ACAM4N6
HFDTE041221
HFFXA050
HFPLTPILOT:JOHN WELSH              
HFGTYGLIDERTYPE:HORNET      
HFGIDGLIDERID:VH-GMY      
HFDTM100GPSDATUM:
HFRFWFIRMWAREVERSION:F2.6
HFRHWHARDWAREVERSION:300 Series Version 2
HFFTYFRTYPE:CAMBRIDGE AERO INSTRUMENTS, 302+
HFGPS:GARMIN,LVS-25,12,18000
HFPRSPRESSALTSENSOR:INTERSEMA, MS5534-AP, 20000
I033638FXA3941ENL4247REX
LCAMSBVER:5FWVER:F26300
C041221052543041221000102
C0000000N00000000WTAKEOFF     
C3207549S11656849EBEVAIR      
C3301432S11652383EWilliams    
C3220282S11752282ECorrigin    
C3207549S11656849EBEVAIR      
C0000000N00000000WLANDING     
B0528323207343S11656861EA0018700207000000000000
B0528343207343S11656861EA0018700207000000000000
B0528363207343S11656861EA0018600207000000000000
B0528383207343S11656861EA0018700207000000000000
B0528403207343S11656861EA0018700207000000000000
B0528423207343S11656861EA0018600207000000000000
B0528443207343S11656861EA0018600207000000000000
B0528463207343S11656861EA0018600207000000000000
B0528483207343S11656861EA0018700207000000000000
B0528503207343S11656861EA0018600207000000000000
B0528523207343S11656861EA0018600207000000000000
B0528543207343S11656861EA0018600207000000000000
B0528563207343S11656861EA0018600207000000000000
B0528583207345S11656861EA0018600207000000000000
B0529003207345S11656862EA0018600207000000000000
B0529033207351S11656867EA0018700206000000000000
B0529073207372S11656886EA0018500206000000000000
B0529113207407S11656912EA0018700206000000000000
B0529153207456S11656942EA0018800207000000000000
B0529193207515S11656978EA0019000208000000000000
B0529233207579S11657020EA0018800213000000000000
B0529273207637S11657064EA0019800229000000000000
B0529313207689S11657112EA0021500246000000000000
B0529353207746S11657147EA0023100262000000000000
B0529393207805S11657179EA0024400277000000000000
B0529433207857S11657230EA0025600290000000000000
B0529473207889S11657302EA0027000309000000000000
B0529513207892S11657384EA0028700324000000000000
B0529553207856S11657460EA0030100339000000000000
B0529593207784S11657504EA0031800363000000000000
B0530033207702S11657503EA0034000384000000000000
B0530073207624S11657460EA0035500395000000000000
B0530113207563S11657394EA0036800412000000000000
B0530153207529S11657307EA0038400428000000000000
B0530193207521S11657211EA0039500439000000000000
B0530233207547S11657120EA0040700447000000000000
B0530273207597S11657049EA0041200452000000000000
B0530313207661S11657004EA0042100465000000000000
B0530353207731S11657000EA0043500474000000000000
B0530393207796S11657029EA0044600487000000000000
B0530433207852S11657074EA0045700501000000000000
B0530473207888S11657143EA0046900515000000000000
B0530513207909S11657220EA0048400532000000000000
B0530553207931S11657291EA0050200547000000000000
B0530593207970S11657352EA0051600563000000000000
B0531033208023S11657403EA0053600585000000000000
B0531073208084S11657443EA0055900608000000000000
B0531113208148S11657472EA0057400630000000000000
B0531153208214S11657488EA0059400648000000000000
B0531193208283S11657491EA0060600657000000000000
B0531233208353S11657473EA0061800670000000000000
B0531273208418S11657420EA0063000681000000000000
B0531313208464S11657335EA0064600703000000000000
B0531353208498S11657238EA0066800725000000000000
B0531393208515S11657133EA0069400753000000000000
B0531433208495S11657038EA0071600769000000000000
B0531473208439S11656997EA0072600782000000000000
B0531513208407S11657026EA0074100793000000000000
B0531553208418S11657065EA0074900797000000000000
B0531593208468S11657070EA0075700813000000000000
B0532033208507S11657014EA0077200824000000000000
B0532073208494S11656940EA0077900828000000000000
B0532113208444S11656912EA0077500821000000000000
B0532153208411S11656948EA0077500824000000000000
B0532193208422S11656999EA0078000832000000000000
B0532233208467S11657017EA0079900851000000000000
B0532273208503S11656960EA0081700863000000000000
B0532313208483S11656886EA0082300872000000000000
B0532353208433S11656852EA0082600872000000000000
B0532393208391S11656877EA0082400870000000000000
B0532433208391S11656927EA0083100885000000000000
B0532473208424S11656960EA0084500894000000000000
B0532513208474S11656940EA0085300903000000000000
B0532553208486S11656867EA0086300918000000000000
B0532593208443S11656822EA0087600931000000000000
B0533033208394S11656835EA0088400931000000000000
B0533073208386S11656888EA0088700940000000000000
B0533113208430S11656918EA0089400946000000000000
B0533153208477S11656871EA0090700964000000000000
B0533193208468S11656799EA0092500984000000000000
B0533233208415S11656775EA0093900994000000015000
B0533273208382S11656819EA0094801002000000015000
B0533313208407S11656867EA0095501008000000015000
B0533353208460S11656849EA0096701022000000015000
B0533393208464S11656775EA0097601032000000015000
B0533433208409S11656745EA0098401047000000015000
B0533473208379S11656788EA0099901056000000015000
B0533513208417S11656822EA0100701062000000015000
B0533553208464S11656776EA0101501079000000015000
B0533593208455S11656700EA0103501101000000015000
B0534033208400S11656669EA0105001114000000015000
B0534073208361S11656702EA0106101124000000015000
B0534113208377S11656750EA0107101130000000015000
B0534153208429S11656747EA0108101146000000015000
B0534193208451S11656682EA0109701161000000000000
B0534233208416S11656615EA0111001175000000015000
B0534273208359S11656607EA0111801184000000015000
B0534313208334S11656657EA0112801194000000015000
B0534353208363S11656701EA0113801200000000015000
B0534393208416S11656688EA0114601217000000015000
B0534433208439S11656619EA0116201230000000015000
B0534473208407S11656552EA0117101240000000015000
B0534513208346S11656535EA0117801247000000015000
B0534553208311S11656578EA0119001258000000015000
B0534593208333S11656626EA0119601260000000015000
B0535033208385S11656614EA0120401271000000015000
B0535073208402S11656542EA0122101289000000015000
B0535113208369S11656477EA0122801297000000015000
B0535153208311S11656459EA0123301303000000015000
B0535193208277S11656501EA0124001311000000015000
B0535233208301S11656545EA0124801317000000015000
B0535273208352S11656527EA0125501323000000015000
B0535313208363S11656451EA0125801331000000015000
B0535353208329S11656383EA0126901342000000015000
B0535393208269S11656362EA0127401344000000015000
B0535433208230S11656405EA0128001354000000015000
B0535473208252S11656453EA0128901359000000015000
B0535513208305S11656450EA0129401365000000015000
B0535553208335S11656388EA0130001378000000000000
B0535593208307S11656315EA0130901381000000015000
B0536033208244S11656290EA0131001383000000015000
B0536073208196S11656327EA0131601394000000015000
B0536113208199S11656383EA0132501399000000015000
B0536153208244S11656414EA0132801399000000015000
B0536193208298S11656389EA0132901401000000015000
B0536233208320S11656315EA0133601410000000000000
B0536273208287S11656241EA0134201413000000015000
B0536313208222S11656211EA0134201414000000015000
B0536353208165S11656240EA0134401416000000015000
B0536393208142S11656302EA0134701417000000015000
B0536433208145S11656371EA0134401413000000015000
B0536473208184S11656415EA0134101415000000015000
B0536513208239S11656402EA0134901426000000015000
B0536553208274S11656347EA0136001434000000000000
B0536593208286S11656273EA0136001432000000000000
B0537033208272S11656190EA0135601427000000000000
B0537073208230S11656120EA0135801432000000000000
B0537113208166S11656090EA0136301440000000000000
B0537153208117S11656120EA0137101443000000000000
B0537193208131S11656178EA0136701439000000015000
B0537233208183S11656171EA0137301451000000015000
B0537273208210S11656104EA0138001453000000015000
B0537313208195S11656025EA0138001455000000015000
B0537353208153S11655960EA0138201460000000015000
B0537393208095S11655937EA0138701461000000015000
B0537433208035S11655956EA0138501462000000000000
B0537473207986S11655995EA0139001469000000000000
B0537513207949S11656046EA0140201481000000000000
B0537553207954S11656097EA0141601495000000000000
B0537593207996S11656111EA0142301498000000000000
B0538033208038S11656072EA0142401500000000000000
B0538073208035S11655999EA0142801502000000000000
B0538113207987S11655946EA0142901505000000015000
B0538153207921S11655935EA0143301514000000015000
B0538193207858S11655948EA0144301521000000000000
B0538233207811S11655986EA0145001533000000000000
B0538273207800S11656041EA0146101540000000000000
B0538313207835S11656077EA0146401540000000000000
B0538353207879S11656046EA0146601542000000000000
B0538393207878S11655965EA0146601543000000000000
B0538433207830S11655899EA0147101551000000015000
B0538473207766S11655866EA0147501557000000015000
B0538513207701S11655869EA0147901560000000000000
B0538553207641S11655894EA0148401565000000000000
B0538593207599S11655946EA0148601567000000000000
B0539033207575S11656009EA0148801567000000000000
B0539073207572S11656077EA0148401563000000000000
B0539113207592S11656138EA0147801554000000000000
B0539153207629S11656188EA0146701542000000000000
B0539193207674S11656237EA0146501542000000000000
B0539233207710S11656299EA0147401553000000000000
B0539273207748S11656360EA0148101562000000000000
B0539313207796S11656402EA0149301575000000000000
B0539353207853S11656380EA0150501586000000000000
B0539393207883S11656310EA0151001585000000000000
B0539433207863S11656225EA0150801587000000000000
B0539473207800S11656176EA0151501598000000000000
B0539513207735S11656194EA0153101617000000000000
B0539553207736S11656249EA0154701631000000015000
B0539593207780S11656241EA0156001642000000015000
B0540033207796S11656177EA0156901649000000015000
B0540073207755S11656124EA0157501658000000015000
B0540113207696S11656130EA0158401667000000015000
B0540153207676S11656181EA0159501679000000015000
B0540193207710S11656204EA0160501687000000015000
B0540233207748S11656162EA0160901690000000015000
B0540273207740S11656091EA0161501701000000015000
B0540313207685S11656054EA0162201706000000015000
B0540353207629S11656081EA0162901715000000015000
B0540393207623S11656137EA0163901723000000015000
B0540433207666S11656150EA0164701728000000015000
B0540473207701S11656100EA0165201737000000015000
B0540513207685S11656034EA0166301750000000015000
B0540553207627S11656008EA0166901752000000015000
B0540593207570S11656041EA0167301758000000015000
B0541033207557S11656099EA0167901764000000015000
B0541073207590S11656139EA0168101767000000015000
B0541113207641S11656125EA0168601772000000015000
B0541153207662S11656065EA0168801776000000015000
B0541193207644S11655993EA0168901776000000015000
B0541233207592S11655939EA0169601790000000015000
B0541273207531S11655957EA0170901801000000015000
B0541313207515S11656016EA0171601803000000015000
B0541353207550S11656055EA0171601802000000015000
B0541393207598S11656033EA0171701801000000015000
B0541433207610S11655963EA0171701799000000015000
B0541473207571S11655898EA0172101810000000015000
B0541513207505S11655890EA0173301820000000015000
B0541553207471S11655943EA0174301830000000015000
B0541593207499S11655987EA0174701828000000015000
B0542033207550S11655968EA0173901819000000015000
B0542073207560S11655892EA0173401820000000015000
B0542113207520S11655825EA0174301829000000015000
B0542153207451S11655800EA0174601832000000015000
B0542193207386S11655825EA0175301845000000015000
B0542233207356S11655885EA0176401854000000015000
B0542273207382S11655930EA0177101858000000015000
B0542313207430S11655916EA0176701847000000015000
B0542353207447S11655846EA0176001847000000000000
B0542393207406S11655782EA0176801858000000015000
B0542433207337S11655764EA0177601864000000015000
B0542473207278S11655801EA0178301871000000015000
B0542513207255S11655865EA0178801875000000015000
B0542553207271S11655924EA0179101876000000015000
B0542593207304S11655973EA0178601867000000000000
B0543033207339S11656025EA0177101849000000000000
B0543073207382S11656069EA0175201831000000000000
B0543113207429S11656113EA0173801819000000000000
B0543153207469S11656172EA0172701809000000000000
B0543193207489S11656253EA0171601798000000000000
B0543233207489S11656342EA0169801781000000000000
B0543273207473S11656436EA0168501766000000000000
B0543313207449S11656528EA0166801747000000000000
B0543353207424S11656622EA0165601735000000000000
B0543393207398S11656715EA0164901733000000000000
B0543433207371S11656805EA0165001737000000000000
B0543473207337S11656888EA0165601743000000000000
B0543513207304S11656971EA0165201733000000000000
B0543553207273S11657059EA0164301726000000000000
B0543593207242S11657144EA0163901724000000000000
B0544033207185S11657204EA0164401732000000000000
B0544073207112S11657217EA0165301738000000000000
B0544113207042S11657212EA0165301733000000000000
B0544153206992S11657248EA0164801730000000000000
B0544193206988S11657308EA0164501724000000000000
B0544233206992S11657365EA0163701714000000000000
B0544273206998S11657420EA0162901708000000000000
B0544313207000S11657468EA0162701706000000000000
B0544353207004S11657516EA0161801686000000000000
B0544393207011S11657576EA0159801673000000000000
B0544433207017S11657629EA0159801682000000000000
B0544473207022S11657672EA0159901669000000000000
B0544513207031S11657728EA0157401641000000000000
B0544553207031S11657796EA0155801633000000000000
B0544593207011S11657859EA0155501629000000000000
B0545033206975S11657913EA0155101627000000000000
B0545073206936S11657957EA0155201629000000000000
B0545113206897S11657996EA0155301625000000000000
B0545153206857S11658036EA0154401618000000000000
B0545193206818S11658070EA0154301618000000000000
B0545233206780S11658067EA0152801583000000000000
B0545273206739S11658062EA0143801473000000000000
B0545313206653S11658080EA0140901490000000015000
B0545353206593S11658112EA0142901512000000015000
B0545393206563S11658157EA0144501528000000015000
B0545433206570S11658201EA0145501527000000015000
B0545473206585S11658212EA0142701447000000030000
B0545513206600S11658301EA0134301416000000030000
B0545553206608S11658392EA0134501427000000015000
B0545593206621S11658470EA0135801438000000015000
B0546033206645S11658533EA0136901443000000015000
B0546073206689S11658550EA0137401440000000015000
B0546113206730S11658502EA0136501426000000015000
B0546153206728S11658417EA0135101418000000015000
B0546193206687S11658340EA0134601419000000015000
B0546233206628S11658279EA0134201414000000000000
B0546273206563S11658221EA0133401406000000000000
B0546313206497S11658162EA0133001403000000000000
B0546353206431S11658106EA0133201407000000000000
B0546393206370S11658049EA0133501412000000000000
B0546433206306S11658002EA0134301422000000000000
B0546473206254S11658024EA0135401432000000000000
B0546513206258S11658071EA0135701430000000000000
B0546553206303S11658069EA0135701437000000000000
B0546593206336S11658013EA0136501440000000000000
B0547033206336S11657933EA0136501437000000000000
B0547073206298S11657862EA0136401439000000000000
B0547113206238S11657818EA0136401439000000000000
B0547153206169S11657803EA0136701444000000000000
B0547193206115S11657828EA0138301462000000000000
B0547233206111S11657874EA0139301467000000000000
B0547273206158S11657880EA0140001479000000000000
B0547313206195S11657832EA0140601480000000000000
B0547353206198S11657753EA0140401479000000000000
B0547393206162S11657679EA0140701481000000000000
B0547433206099S11657638EA0140701485000000015000
B0547473206036S11657638EA0140701479000000000000
B0547513205989S11657677EA0139901472000000015000
B0547553205972S11657737EA0139501474000000000000
B0547593205984S11657797EA0140601486000000000000
B0548033206026S11657814EA0142801515000000000000
B0548073206055S11657759EA0145001530000000000000
B0548113206032S11657686EA0144701517000000000000
B0548153205968S11657668EA0145001535000000000000
B0548193205934S11657715EA0146201544000000015000
B0548233205961S11657755EA0147701559000000015000
B0548273206012S11657737EA0148901576000000000000
B0548313206042S11657675EA0150101580000000000000
B0548353206034S11657598EA0150101581000000000000
B0548393205986S11657541EA0150601587000000015000
B0548433205924S11657530EA0150801587000000015000
B0548473205876S11657564EA0150601585000000015000
B0548513205869S11657619EA0151201593000000015000
B0548553205903S11657650EA0152801608000000015000
B0548593205950S11657636EA0154101618000000015000
B0549033205971S11657572EA0154801622000000000000
B0549073205947S11657497EA0154601619000000015000
B0549113205893S11657445EA0154701626000000015000
B0549153205828S11657428EA0154901624000000000000
B0549193205774S11657460EA0154901630000000000000
B0549233205753S11657508EA0156101648000000000000
B0549273205772S11657545EA0157701660000000000000
B0549313205813S11657541EA0158701664000000000000
B0549353205843S11657484EA0159401671000000015000
B0549393205825S11657413EA0160301681000000015000
B0549433205770S11657378EA0160701680000000015000
B0549473205711S11657393EA0160401680000000015000
B0549513205685S11657446EA0160901694000000015000
B0549553205696S11657490EA0162501700000000015000
B0549593205740S11657495EA0163701710000000015000
B0550033205782S11657447EA0164701719000000015000
B0550073205785S11657373EA0165501730000000015000
B0550113205742S11657316EA0166201735000000015000
B0550153205678S11657300EA0166201739000000015000
B0550193205625S11657332EA0166701747000000015000
B0550233205601S11657385EA0167601756000000015000
B0550273205618S11657432EA0168001761000000015000
B0550313205661S11657433EA0169401768000000015000
B0550353205692S11657378EA0171001780000000015000
B0550393205675S11657308EA0171901791000000015000
B0550433205620S11657276EA0172501798000000015000
B0550473205565S11657302EA0172901807000000015000
B0550513205553S11657355EA0173501814000000015000
B0550553205584S11657385EA0174801824000000015000
B0550593205630S11657363EA0175701833000000015000
B0551033205653S11657295EA0176301843000000015000
B0551073205631S11657222EA0177101858000000015000
B0551113205578S11657179EA0178201870000000015000
B0551153205521S11657186EA0179101876000000015000
B0551193205487S11657229EA0179101874000000015000
B0551233205503S11657282EA0178701879000000015000
B0551273205544S11657302EA0180101891000000015000
B0551313205584S11657259EA0181001895000000015000
B0551353205584S11657181EA0181501902000000015000
B0551393205539S11657122EA0182701916000000015000
B0551433205479S11657126EA0183301917000000015000
B0551473205456S11657178EA0182901917000000015000
B0551513205483S11657220EA0183401923000000015000
B0551553205531S11657216EA0184601929000000015000
B0551593205568S11657161EA0185001929000000015000
B0552033205571S11657083EA0185201937000000015000
B0552073205540S11657010EA0186001945000000015000
B0552113205483S11656961EA0186401947000000015000
B0552153205410S11656952EA0186101947000000015000
B0552193205344S11656971EA0186401950000000015000
B0552233205298S11657021EA0186901959000000000000
B0552273205285S11657079EA0188001975000000000000
B0552313205301S11657131EA0189701988000000000000
B0552353205345S11657159EA0190501996000000015000
B0552393205400S11657151EA0191202002000000015000
B0552433205451S11657114EA0191802009000000000000
B0552473205474S11657044EA0192102011000000000000
B0552513205461S11656968EA0192502019000000015000
B0552553205414S11656914EA0192902021000000015000
B0552593205352S11656906EA0192602013000000015000
B0553033205302S11656951EA0191602009000000015000
B0553073205295S11657013EA0192602029000000015000
B0553113205331S11657048EA0194102033000000015000
B0553153205387S11657035EA0194702030000000015000
B0553193205427S11656968EA0194202032000000015000
B0553233205418S11656884EA0195002042000000015000
B0553273205369S11656834EA0195802050000000015000
B0553313205306S11656823EA0195602042000000015000
B0553353205243S11656849EA0194702036000000015000
B0553393205196S11656901EA0195002045000000015000
B0553433205183S11656962EA0196302066000000015000
B0553473205205S11657007EA0198002072000000015000
B0553513205250S11657018EA0198302074000000015000
B0553553205296S11656981EA0198602080000000015000
B0553593205311S11656913EA0199002084000000015000
B0554033205289S11656843EA0198802082000000015000
B0554073205240S11656797EA0198702084000000015000
B0554113205179S11656802EA0198802083000000015000
B0554153205132S11656845EA0199002087000000015000
B0554193205123S11656905EA0200102099000000015000
B0554233205162S11656942EA0200702102000000015000
B0554273205218S11656929EA0200402102000000015000
B0554313205272S11656888EA0200202099000000015000
B0554353205318S11656832EA0200102096000000015000
B0554393205345S11656758EA0199802092000000015000
B0554433205370S11656678EA0199202085000000000000
B0554473205400S11656598EA0198702079000000000000
B0554513205449S11656527EA0197702063000000000000
B0554553205521S11656468EA0195202033000000000000
B0554593205610S11656424EA0192101999000000000000
B0555033205717S11656396EA0188101954000000000000
B0555073205835S11656388EA0185201918000000000000
B0555113205960S11656401EA0182301893000000000000
B0555153206085S11656431EA0180501877000000000000
B0555193206207S11656472EA0178501852000000000000
B0555233206331S11656523EA0175601818000000000000
B0555273206457S11656575EA0172801797000000000000
B0555313206582S11656624EA0171201781000000000000
B0555353206704S11656671EA0170501787000000000000
B0555393206821S11656714EA0170701777000000000000
B0555433206939S11656756EA0167801739000000000000
B0555473207064S11656799EA0163501690000000000000
B0555513207196S11656847EA0158801643000000000000
B0555553207334S11656900EA0155601601000000000000
B0555593207475S11656956EA0151801560000000000000
B0556033207616S11657014EA0148701549000000000000
B0556073207744S11657064EA0150401599000000000000
B0556113207852S11657103EA0154001620000000015000
B0556153207956S11657138EA0154001609000000015000
B0556193208052S11657165EA0154401624000000015000
B0556233208140S11657191EA0154701620000000015000
B0556273208226S11657212EA0154801620000000015000
B0556313208309S11657224EA0155101629000000000000
B0556353208392S11657231EA0155201630000000000000
B0556393208472S11657239EA0155701636000000000000
B0556433208547S11657241EA0157001654000000000000
B0556473208619S11657239EA0158101666000000000000
B0556513208691S11657242EA0158401674000000000000
B0556553208764S11657247EA0159801691000000000000
B0556593208825S11657220EA0161501700000000000000
B0557033208846S11657146EA0161801700000000000000
B0557073208820S11657066EA0161901704000000015000
B0557113208769S11657008EA0162401708000000000000
B0557153208704S11656983EA0163301723000000000000
B0557193208646S11656995EA0165401746000000000000
B0557233208615S11657043EA0167401764000000000000
B0557273208625S11657090EA0169101771000000015000
B0557313208672S11657099EA0169801774000000015000
B0557353208714S11657051EA0170501787000000015000
B0557393208704S11656981EA0172201806000000015000
B0557433208654S11656949EA0173101814000000015000
B0557473208604S11656979EA0174201834000000015000
B0557513208595S11657029EA0176101844000000015000
B0557553208632S11657061EA0176801847000000015000
B0557593208684S11657038EA0177101852000000015000
B0558033208703S11656969EA0178101865000000015000
B0558073208684S11656899EA0179201877000000015000
B0558113208632S11656862EA0180001886000000015000
B0558153208578S11656880EA0180901906000000015000
B0558193208559S11656927EA0182901918000000015000
B0558233208578S11656970EA0183801924000000015000
B0558273208626S11656981EA0184201927000000015000
B0558313208667S11656931EA0184601937000000015000
B0558353208663S11656856EA0185401943000000015000
B0558393208615S11656806EA0186301954000000015000
B0558433208556S11656808EA0187701970000000015000
B0558473208521S11656851EA0188701977000000015000
B0558513208520S11656909EA0189001980000000015000
B0558553208561S11656951EA0189101984000000015000
B0558593208621S11656975EA0189101977000000015000
B0559033208691S11656991EA0187701960000000015000
B0559073208766S11657001EA0187001953000000015000
B0559113208844S11657005EA0186301949000000015000
B0559153208922S11657003EA0187101966000000015000
B0559193208997S11656997EA0188301975000000015000
B0559233209075S11656991EA0188401978000000000000
B0559273209156S11656984EA0188501975000000000000
B0559313209236S11656979EA0187701964000000000000
B0559353209321S11656973EA0187101959000000000000
B0559393209405S11656966EA0186301945000000000000
B0559433209492S11656964EA0185001940000000000000
B0559473209577S11656968EA0184701936000000000000
B0559513209661S11656970EA0184201930000000000000
B0559553209746S11656978EA0183401918000000000000
B0559593209830S11656988EA0182001908000000000000
B0600033209915S11657000EA0181101899000000000000
B0600073209998S11657016EA0180701896000000000000
B0600113210080S11657038EA0180001885000000000000
B0600153210167S11657055EA0179301876000000000000
B0600193210254S11657068EA0178401871000000000000
B0600233210341S11657079EA0177801866000000000000
B0600273210427S11657092EA0177501863000000000000
B0600313210514S11657103EA0177001856000000000000
B0600353210600S11657116EA0176801854000000000000
B0600393210687S11657124EA0175701843000000000000
B0600433210777S11657134EA0174601830000000000000
B0600473210865S11657144EA0173601823000000000000
B0600513210952S11657156EA0173201819000000000000
B0600553211038S11657160EA0172601806000000000000
B0600593211129S11657155EA0170801786000000000000
B0601033211220S11657140EA0169801782000000000000
B0601073211310S11657117EA0168601766000000000000
B0601113211399S11657099EA0167801767000000000000
B0601153211483S11657092EA0168901779000000000000
B0601193211561S11657092EA0169101777000000000000
B0601233211637S11657090EA0169001779000000000000
B0601273211710S11657082EA0169401786000000000000
B0601313211782S11657074EA0170501795000000000000
B0601353211854S11657065EA0170101782000000000000
B0601393211938S11657053EA0168001758000000000000
B0601433212026S11657047EA0166501749000000000000
B0601473212114S11657044EA0165101732000000000000
B0601513212205S11657043EA0163801721000000000000
B0601553212295S11657038EA0162901711000000000000
B0601593212383S11657046EA0162101700000000000000
B0602033212469S11657062EA0161201692000000000000
B0602073212554S11657075EA0160401683000000000000
B0602113212638S11657085EA0159401668000000000000
B0602153212724S11657075EA0158101659000000000000
B0602193212811S11657056EA0156601643000000000000
B0602233212897S11657033EA0156701650000000000000
B0602273212978S11657007EA0157301660000000000000
B0602313213050S11656983EA0158001665000000000000
B0602353213122S11656961EA0157701657000000000000
B0602393213195S11656932EA0157001650000000000000
B0602433213267S11656899EA0155901636000000000000
B0602473213347S11656879EA0154701627000000000000
B0602513213426S11656875EA0154101619000000000000
B0602553213504S11656878EA0153601618000000000000
B0602593213579S11656880EA0153301611000000000000
B0603033213657S11656886EA0152501602000000000000
B0603073213738S11656891EA0151501589000000000000
B0603113213819S11656891EA0150701582000000000000
B0603153213899S11656890EA0149801574000000000000
B0603193213979S11656884EA0149001567000000000000
B0603233214059S11656884EA0148501560000000000000
B0603273214140S11656882EA0148101555000000000000
B0603313214222S11656867EA0147801553000000000000
B0603353214302S11656831EA0147701552000000000000
B0603393214379S11656775EA0147001544000000000000
B0603433214452S11656711EA0146101535000000000000
B0603473214522S11656641EA0146101540000000000000
B0603513214587S11656568EA0146301536000000000000
B0603553214649S11656493EA0145301527000000000000
B0603593214704S11656414EA0144701521000000000000
B0604033214759S11656329EA0144301517000000000000
B0604073214812S11656245EA0144401528000000000000
B0604113214865S11656173EA0146301553000000000000
B0604153214915S11656116EA0149201580000000000000
B0604193214965S11656106EA0151501607000000000000
B0604233214982S11656146EA0153801615000000000000
B0604273214944S11656199EA0155001622000000015000
B0604313214877S11656212EA0156501649000000015000
B0604353214816S11656178EA0158701668000000015000
B0604393214782S11656110EA0159901678000000015000
B0604433214782S11656034EA0160901692000000015000
B0604473214817S11655985EA0162501707000000015000
B0604513214865S11655981EA0163301712000000015000
B0604553214896S11656020EA0164101719000000015000
B0604593214889S11656073EA0166101725000000015000
B0605033214847S11656120EA0167701735000000015000
B0605073214782S11656124EA0169301760000000015000
B0605113214733S11656073EA0170901778000000015000
B0605153214722S11655996EA0171701787000000015000
B0605193214751S11655931EA0172301795000000015000
B0605233214800S11655912EA0172801802000000015000
B0605273214843S11655944EA0173201806000000015000
B0605313214855S11656006EA0173701813000000015000
B0605353214812S11656060EA0175001829000000030000
B0605393214747S11656035EA0176901856000000030000
B0605433214727S11655960EA0178601863000000030000
B0605473214760S11655896EA0178901875000000015000
B0605513214812S11655882EA0179901886000000015000
B0605553214857S11655916EA0180201890000000015000
B0605593214879S11655981EA0180101890000000030000
B0606033214863S11656054EA0181401915000000030000
B0606073214801S11656085EA0183501929000000030000
B0606113214735S11656056EA0184301938000000030000
B0606153214705S11655982EA0185201948000000015000
B0606193214710S11655902EA0186101955000000015000
B0606233214747S11655840EA0186701964000000015000
B0606273214799S11655804EA0187401967000000015000
B0606313214864S11655792EA0187101962000000015000
B0606353214934S11655795EA0186701961000000015000
B0606393215004S11655811EA0188001983000000000000
B0606433215071S11655830EA0189601993000000000000
B0606473215138S11655850EA0189801990000000000000
B0606513215212S11655869EA0188901978000000000000
B0606553215292S11655883EA0188001970000000000000
B0606593215373S11655896EA0187201960000000000000
B0607033215457S11655908EA0186601958000000000000
B0607073215539S11655917EA0186601953000000000000
B0607113215624S11655924EA0185501941000000000000
B0607153215714S11655922EA0184301927000000000000
B0607193215805S11655917EA0182401910000000000000
B0607233215895S11655915EA0181701907000000000000
B0607273215977S11655918EA0181601907000000000000
B0607313216057S11655925EA0180701894000000000000
B0607353216138S11655931EA0179201880000000000000
B0607393216220S11655939EA0178201870000000000000
B0607433216300S11655948EA0177801864000000000000
B0607473216385S11655957EA0177001856000000000000
B0607513216468S11655967EA0176801857000000000000
B0607553216547S11655976EA0176801855000000000000
B0607593216624S11655985EA0176201849000000000000
B0608033216701S11655993EA0175601843000000000000
B0608073216779S11656000EA0174901834000000000000
B0608113216858S11656008EA0174001827000000000000
B0608153216935S11656012EA0174001832000000000000
B0608193217011S11656017EA0173201815000000000000
B0608233217093S11656022EA0172001802000000000000
B0608273217175S11656030EA0171301798000000000000
B0608313217260S11656042EA0170401784000000000000
B0608353217347S11656054EA0169001771000000000000
B0608393217434S11656071EA0168101763000000000000
B0608433217518S11656089EA0167501759000000000000
B0608473217602S11656108EA0167001753000000000000
B0608513217686S11656132EA0166201745000000000000
B0608553217769S11656155EA0165401739000000000000
B0608593217853S11656177EA0165101735000000000000
B0609033217936S11656199EA0164201720000000000000
B0609073218022S11656224EA0162601704000000000000
B0609113218105S11656258EA0161401692000000000000
B0609153218189S11656281EA0161001690000000000000
B0609193218271S11656299EA0160201682000000000000
B0609233218350S11656323EA0159901681000000000000
B0609273218423S11656353EA0159901681000000000000
B0609313218491S11656396EA0159401671000000000000
B0609353218558S11656444EA0158001658000000000000
B0609393218623S11656493EA0157801658000000000000
B0609433218690S11656540EA0158101662000000000000
B0609473218765S11656562EA0158601674000000000000
B0609513218837S11656574EA0160501694000000000000
B0609553218907S11656580EA0161901705000000000000
B0609593218977S11656584EA0163201719000000000000
B0610033219041S11656559EA0165601751000000000000
B0610073219052S11656489EA0169601791000000000000
B0610113219006S11656455EA0172201811000000000000
B0610153218961S11656487EA0173701825000000015000
B0610193218967S11656542EA0175301831000000015000
B0610233219020S11656561EA0176901845000000015000
B0610273219060S11656507EA0178501870000000030000
B0610313219045S11656438EA0180501889000000015000
B0610353218989S11656427EA0181901905000000015000
B0610393218960S11656479EA0183401926000000015000
B0610433218982S11656531EA0185401933000000015000
B0610473219037S11656539EA0187501945000000030000
B0610513219078S11656487EA0189201965000000030000
B0610553219065S11656419EA0190701980000000030000
B0610593219012S11656399EA0191701995000000015000
B0611033218974S11656445EA0193102017000000015000
B0611073218995S11656503EA0195102038000000030000
B0611113219052S11656510EA0196202053000000030000
B0611153219091S11656454EA0197602072000000030000
B0611193219073S11656389EA0198902082000000030000
B0611233219020S11656364EA0199702090000000015000
B0611273218977S11656396EA0200702101000000015000
B0611313218980S11656453EA0201902108000000015000
B0611353219028S11656475EA0202902117000000015000
B0611393219075S11656435EA0204302130000000030000
B0611433219076S11656366EA0205102138000000015000
B0611473219033S11656323EA0205602145000000015000
B0611513218982S11656336EA0206302156000000015000
B0611553218965S11656389EA0206602160000000015000
B0611593218999S11656432EA0207202165000000015000
B0612033219059S11656438EA0207702166000000015000
B0612073219127S11656429EA0207302157000000015000
B0612113219201S11656414EA0206002143000000015000
B0612153219283S11656393EA0204602130000000015000
B0612193219366S11656367EA0203302119000000015000
B0612233219449S11656333EA0202402112000000015000
B0612273219533S11656301EA0201502102000000015000
B0612313219615S11656269EA0200502096000000000000
B0612353219695S11656238EA0200002087000000000000
B0612393219775S11656207EA0199302084000000000000
B0612433219856S11656177EA0199202084000000000000
B0612473219935S11656151EA0199302083000000000000
B0612513220014S11656132EA0199102085000000000000
B0612553220091S11656110EA0198802078000000000000
B0612593220170S11656090EA0197502061000000000000
B0613033220255S11656073EA0195302039000000000000
B0613073220341S11656055EA0193302021000000000000
B0613113220424S11656037EA0192902022000000000000
B0613153220502S11656024EA0193502030000000000000
B0613193220577S11656008EA0194102032000000000000
B0613233220653S11655985EA0193502022000000000000
B0613273220728S11655961EA0192502014000000000000
B0613313220807S11655941EA0192202015000000000000
B0613353220885S11655928EA0193302033000000000000
B0613393220956S11655915EA0196102061000000000000
B0613433221019S11655904EA0197602072000000000000
B0613473221086S11655889EA0197802073000000000000
B0613513221158S11655870EA0196202052000000000000
B0613553221238S11655847EA0195002042000000000000
B0613593221320S11655824EA0194102032000000000000
B0614033221404S11655799EA0193202025000000000000
B0614073221486S11655779EA0193102027000000000000
B0614113221563S11655764EA0193502028000000000000
B0614153221637S11655748EA0193002019000000000000
B0614193221715S11655730EA0191402001000000000000
B0614233221798S11655707EA0189401982000000000000
B0614273221886S11655682EA0188001965000000000000
B0614313221975S11655655EA0187101960000000000000
B0614353222062S11655625EA0186801957000000000000
B0614393222146S11655595EA0186301954000000000000
B0614433222224S11655567EA0187101967000000000000
B0614473222295S11655541EA0188301977000000000000
B0614513222362S11655515EA0188501975000000000000
B0614553222432S11655488EA0188601982000000000000
B0614593222499S11655469EA0190802006000000000000
B0615033222559S11655461EA0193002026000000000000
B0615073222613S11655470EA0193502024000000000000
B0615113222670S11655482EA0193002017000000000000
B0615153222734S11655480EA0191902006000000000000
B0615193222806S11655469EA0190901996000000000000
B0615233222881S11655452EA0189501977000000000000
B0615273222960S11655432EA0187701959000000000000
B0615313223042S11655410EA0186101943000000000000
B0615353223127S11655387EA0184901932000000000000
B0615393223212S11655369EA0183701922000000000000
B0615433223298S11655354EA0182901918000000000000
B0615473223381S11655345EA0182801917000000000000
B0615513223463S11655339EA0182401911000000000000
B0615553223545S11655331EA0181801906000000000000
B0615593223626S11655324EA0181301902000000000000
B0616033223705S11655319EA0181201899000000000000
B0616073223786S11655317EA0180501891000000000000
B0616113223868S11655317EA0179501881000000000000
B0616153223951S11655319EA0179001878000000000000
B0616193224030S11655319EA0178801873000000000000
B0616233224107S11655320EA0178101867000000000000
B0616273224184S11655322EA0176901852000000000000
B0616313224262S11655323EA0175901844000000000000
B0616353224337S11655326EA0175401839000000000000
B0616393224412S11655330EA0175401847000000000000
B0616433224483S11655332EA0176401856000000000000
B0616473224535S11655370EA0177301864000000000000
B0616513224585S11655410EA0177601862000000000000
B0616553224649S11655415EA0177401860000000000000
B0616593224717S11655405EA0176401846000000000000
B0617033224791S11655387EA0174801830000000000000
B0617073224867S11655367EA0173701818000000000000
B0617113224947S11655349EA0172901808000000000000
B0617153225025S11655326EA0172101804000000000000
B0617193225103S11655304EA0171601799000000000000
B0617233225183S11655281EA0170101778000000000000
B0617273225266S11655262EA0168501763000000000000
B0617313225351S11655241EA0167101749000000000000
B0617353225437S11655224EA0165901740000000000000
B0617393225523S11655209EA0165101731000000000000
B0617433225610S11655197EA0164301723000000000000
B0617473225697S11655187EA0163601716000000000000
B0617513225784S11655177EA0163201713000000000000
B0617553225870S11655171EA0162901711000000000000
B0617593225954S11655167EA0162401700000000000000
B0618033226037S11655161EA0161301688000000000000
B0618073226121S11655144EA0160001675000000000000
B0618113226202S11655120EA0158701662000000000000
B0618153226286S11655094EA0157201646000000000000
B0618193226369S11655068EA0155701630000000000000
B0618233226451S11655041EA0154501619000000000000
B0618273226531S11655018EA0154101621000000000000
B0618313226608S11654993EA0154101621000000000000
B0618353226686S11654969EA0154201620000000000000
B0618393226760S11654953EA0155301641000000000000
B0618433226826S11654955EA0156501656000000000000
B0618473226886S11654973EA0157601651000000000000
B0618513226955S11654981EA0155901627000000000000
B0618553227034S11654969EA0153501602000000000000
B0618593227116S11654947EA0151501585000000000000
B0619033227198S11654921EA0150001572000000000000
B0619073227279S11654891EA0148601560000000000000
B0619113227358S11654862EA0147501549000000000000
B0619153227436S11654832EA0146501542000000000000
B0619193227510S11654803EA0146401538000000000000
B0619233227584S11654773EA0145301529000000000000
B0619273227657S11654743EA0144901521000000000000
B0619313227727S11654709EA0144501524000000000000
B0619353227790S11654657EA0144301519000000000000
B0619393227842S11654587EA0144401524000000000000
B0619433227879S11654509EA0145001527000000000000
B0619473227911S11654426EA0144201515000000000000
B0619513227930S11654331EA0143101509000000000000
B0619553227947S11654236EA0142701501000000000000
B0619593227957S11654141EA0141201486000000000000
B0620033227987S11654049EA0139601461000000000000
B0620073228043S11653970EA0137501442000000000000
B0620113228116S11653913EA0135701425000000000000
B0620153228197S11653872EA0134401415000000000000
B0620193228279S11653848EA0133201404000000000000
B0620233228359S11653832EA0132301396000000000000
B0620273228440S11653819EA0131701389000000000000
B0620313228518S11653803EA0130601377000000000000
B0620353228597S11653786EA0129201361000000000000
B0620393228676S11653773EA0128101347000000000000
B0620433228754S11653763EA0127101341000000000000
B0620473228828S11653750EA0126601337000000000000
B0620513228900S11653737EA0126201333000000000000
B0620553228971S11653728EA0125801329000000000000
B0620593229040S11653721EA0125401324000000000000
B0621033229109S11653719EA0124601317000000000000
B0621073229178S11653724EA0124101311000000000000
B0621113229248S11653733EA0123501305000000000000
B0621153229317S11653742EA0123401306000000000000
B0621193229382S11653760EA0123901313000000000000
B0621233229441S11653790EA0124101312000000000000
B0621273229494S11653831EA0123601306000000000000
B0621313229545S11653876EA0123801311000000000000
B0621353229595S11653919EA0124201316000000000000
B0621393229642S11653967EA0125801335000000000000
B0621433229690S11653985EA0128401360000000000000
B0621473229714S11653928EA0130001369000000000000
B0621513229685S11653864EA0130601378000000000000
B0621553229627S11653844EA0130601374000000000000
B0621593229577S11653884EA0130901385000000000000
B0622033229573S11653940EA0132201395000000000000
B0622073229606S11653975EA0132601396000000015000
B0622113229654S11653971EA0133501403000000015000
B0622153229692S11653922EA0133201390000000015000
B0622193229676S11653845EA0132201385000000015000
B0622233229620S11653790EA0131801386000000015000
B0622273229546S11653786EA0132801404000000015000
B0622313229504S11653832EA0134901423000000015000
B0622353229534S11653871EA0135901431000000015000
B0622393229577S11653840EA0136901439000000015000
B0622433229560S11653767EA0138001449000000015000
B0622473229498S11653742EA0138901460000000015000
B0622513229452S11653786EA0139101460000000015000
B0622553229459S11653853EA0139101464000000015000
B0622593229501S11653900EA0139501466000000015000
B0623033229558S11653902EA0140401477000000015000
B0623073229601S11653850EA0140201466000000015000
B0623113229598S11653771EA0139001454000000015000
B0623153229537S11653724EA0138701460000000015000
B0623193229471S11653742EA0139701468000000015000
B0623233229424S11653789EA0140101475000000015000
B0623273229426S11653854EA0140501477000000015000
B0623313229467S11653897EA0140701479000000015000
B0623353229517S11653932EA0140501467000000015000
B0623393229579S11653971EA0138201438000000000000
B0623433229647S11654006EA0136001423000000000000
B0623473229720S11654037EA0134601407000000000000
B0623513229796S11654065EA0133001392000000000000
B0623553229874S11654089EA0131901386000000000000
B0623593229950S11654108EA0131601382000000000000
B0624033230026S11654123EA0130701374000000000000
B0624073230099S11654137EA0130101366000000000000
B0624113230170S11654150EA0128901354000000000000
B0624153230240S11654160EA0127901342000000000000
B0624193230309S11654165EA0126701330000000000000
B0624233230377S11654170EA0125501318000000000000
B0624273230443S11654175EA0124201305000000000000
B0624313230508S11654180EA0123101294000000000000
B0624353230572S11654186EA0121601277000000000000
B0624393230637S11654195EA0120101261000000000000
B0624433230704S11654204EA0119001253000000000000
B0624473230771S11654205EA0118901253000000000000
B0624513230837S11654199EA0118901255000000000000
B0624553230903S11654186EA0119301262000000000000
B0624593230970S11654183EA0120201276000000000000
B0625033231014S11654214EA0122601301000000000000
B0625073230983S11654264EA0124701322000000000000
B0625113230916S11654231EA0126401341000000000000
B0625153230898S11654147EA0128301364000000000000
B0625193230937S11654089EA0130701386000000000000
B0625233230984S11654102EA0132001394000000015000
B0625273230979S11654162EA0132601400000000015000
B0625313230921S11654196EA0134601430000000015000
B0625353230856S11654169EA0136701457000000015000
B0625393230821S11654100EA0139201482000000015000
B0625433230830S11654027EA0141301494000000000000
B0625473230879S11653985EA0142001502000000000000
B0625513230925S11654002EA0143301519000000000000
B0625553230937S11654054EA0145001531000000000000
B0625593230905S11654105EA0146701546000000000000
B0626033230841S11654110EA0149201575000000000000
B0626073230790S11654056EA0151601598000000000000
B0626113230782S11653975EA0153701620000000000000
B0626153230816S11653914EA0155301645000000000000
B0626193230863S11653902EA0157501666000000000000
B0626233230893S11653935EA0159401683000000000000
B0626273230882S11653984EA0161001692000000000000
B0626313230825S11654009EA0162301708000000000000
B0626353230765S11653970EA0164701736000000000000
B0626393230733S11653896EA0166701756000000000000
B0626433230739S11653815EA0168501774000000000000
B0626473230784S11653764EA0170501795000000000000
B0626513230836S11653763EA0171901810000000000000
B0626553230860S11653803EA0173201830000000000000
B0626593230846S11653853EA0174901835000000000000
B0627033230788S11653885EA0175101845000000000000
B0627073230720S11653854EA0177401883000000000000
B0627113230686S11653777EA0180001896000000000000
B0627153230700S11653693EA0181401919000000000000
B0627193230749S11653650EA0184101943000000000000
B0627233230794S11653663EA0186001960000000000000
B0627273230801S11653714EA0187501969000000000000
B0627313230755S11653760EA0188201979000000000000
B0627353230685S11653746EA0190402011000000000000
B0627393230638S11653676EA0193002032000000000000
B0627433230639S11653586EA0194702051000000000000
B0627473230684S11653523EA0196502069000000000000
B0627513230741S11653506EA0197602080000000000000
B0627553230778S11653538EA0199002098000000000000
B0627593230772S11653589EA0201102112000000000000
B0628033230721S11653621EA0202802122000000000000
B0628073230655S11653604EA0204302143000000000000
B0628113230617S11653539EA0206602168000000000000
B0628153230634S11653467EA0207902179000000000000
B0628193230681S11653441EA0209302197000000015000
B0628233230713S11653472EA0210702208000000015000
B0628273230700S11653524EA0212402218000000015000
B0628313230647S11653554EA0214002234000000015000
B0628353230582S11653526EA0215102255000000015000
B0628393230550S11653454EA0216902275000000015000
B0628433230565S11653380EA0218702291000000000000
B0628473230612S11653343EA0220102307000000015000
B0628513230652S11653356EA0221602318000000000000
B0628553230664S11653403EA0222902326000000000000
B0628593230641S11653454EA0223802334000000015000
B0629033230582S11653477EA0225102351000000015000
B0629073230520S11653441EA0226702372000000015000
B0629113230483S11653369EA0227702384000000015000
B0629153230489S11653287EA0228802396000000015000
B0629193230529S11653230EA0229902407000000000000
B0629233230583S11653203EA0230802421000000000000
B0629273230645S11653198EA0231102410000000000000
B0629313230719S11653199EA0229402396000000000000
B0629353230799S11653199EA0228902395000000000000
B0629393230880S11653199EA0228702391000000000000
B0629433230962S11653201EA0227402377000000000000
B0629473231042S11653203EA0226102364000000000000
B0629513231123S11653204EA0224702350000000000000
B0629553231205S11653205EA0223802340000000000000
B0629593231291S11653208EA0222602328000000000000
B0630033231376S11653216EA0222202327000000000000
B0630073231461S11653225EA0221602320000000000000
B0630113231547S11653234EA0221202314000000000000
B0630153231635S11653239EA0220202304000000000000
B0630193231725S11653244EA0219402297000000000000
B0630233231813S11653246EA0219302300000000000000
B0630273231899S11653247EA0219402298000000000000
B0630313231984S11653252EA0219102293000000000000
B0630353232069S11653255EA0217902279000000000000
B0630393232156S11653259EA0216802270000000000000
B0630433232242S11653264EA0216002264000000000000
B0630473232327S11653274EA0215802262000000000000
B0630513232410S11653286EA0215602259000000000000
B0630553232491S11653298EA0215002252000000000000
B0630593232571S11653309EA0215102258000000000000
B0631033232652S11653318EA0216002270000000000000
B0631073232734S11653324EA0217002279000000000000
B0631113232814S11653329EA0217202275000000000000
B0631153232895S11653334EA0216902272000000000000
B0631193232974S11653339EA0216202265000000000000
B0631233233055S11653343EA0215702263000000000000
B0631273233130S11653347EA0216202269000000000000
B0631313233206S11653351EA0215802262000000000000
B0631353233285S11653359EA0214702248000000000000
B0631393233368S11653370EA0214002240000000000000
B0631433233451S11653382EA0213302235000000000000
B0631473233534S11653395EA0212502225000000000000
B0631513233618S11653411EA0211402212000000000000
B0631553233700S11653426EA0210402200000000000000
B0631593233780S11653441EA0209102191000000000000
B0632033233859S11653455EA0207902175000000000000
B0632073233939S11653463EA0206502162000000000000
B0632113234021S11653468EA0206002160000000000000
B0632153234099S11653469EA0205702156000000000000
B0632193234174S11653468EA0205502152000000000000
B0632233234252S11653467EA0204602143000000000000
B0632273234331S11653464EA0203702135000000000000
B0632313234411S11653465EA0203102127000000000000
B0632353234494S11653472EA0201502110000000000000
B0632393234582S11653480EA0200202097000000000000
B0632433234673S11653486EA0198802082000000000000
B0632473234764S11653493EA0197602068000000000000
B0632513234855S11653495EA0196502060000000000000
B0632553234946S11653495EA0195702052000000000000
B0632593235036S11653495EA0194802041000000000000
B0633033235126S11653495EA0193602028000000000000
B0633073235217S11653497EA0192502020000000000000
B0633113235304S11653500EA0192502023000000000000
B0633153235386S11653503EA0192602027000000000000
B0633193235462S11653519EA0193702046000000000000
B0633233235530S11653542EA0195902062000000000000
B0633273235596S11653564EA0197102074000000000000
B0633313235663S11653589EA0197902083000000000000
B0633353235729S11653614EA0198802088000000000000
B0633393235794S11653638EA0198902083000000000000
B0633433235860S11653666EA0197702066000000000000
B0633473235934S11653692EA0195302038000000000000
B0633513236016S11653721EA0192802019000000000000
B0633553236102S11653741EA0192302018000000000000
B0633593236183S11653764EA0192002016000000000000
B0634033236262S11653792EA0191602009000000000000
B0634073236342S11653815EA0191002002000000000000
B0634113236422S11653841EA0190301993000000000000
B0634153236505S11653858EA0189401986000000000000
B0634193236592S11653871EA0189001981000000000000
B0634233236678S11653880EA0189401991000000000000
B0634273236761S11653883EA0189801990000000000000
B0634313236844S11653881EA0189401988000000000000
B0634353236927S11653887EA0189801995000000000000
B0634393237007S11653888EA0190902012000000000000
B0634433237081S11653885EA0192602026000000000000
B0634473237151S11653864EA0194202043000000000000
B0634513237199S11653801EA0195802056000000000000
B0634553237249S11653737EA0195402044000000000000
B0634593237319S11653701EA0194302035000000000000
B0635033237395S11653685EA0193502025000000000000
B0635073237477S11653677EA0192402017000000000000
B0635113237561S11653672EA0191602008000000000000
B0635153237645S11653676EA0190501997000000000000
B0635193237732S11653681EA0189501985000000000000
B0635233237821S11653689EA0188001971000000000000
B0635273237910S11653703EA0187201960000000000000
B0635313238000S11653728EA0186101948000000000000
B0635353238087S11653753EA0184901934000000000000
B0635393238175S11653771EA0183701926000000000000
B0635433238261S11653786EA0182401912000000000000
B0635473238347S11653799EA0181201900000000000000
B0635513238437S11653809EA0179101872000000000000
B0635553238530S11653812EA0177601863000000000000
B0635593238619S11653818EA0177201860000000000000
B0636033238702S11653822EA0178201886000000000000
B0636073238763S11653781EA0182001926000000000000
B0636113238758S11653699EA0185301954000000000000
B0636153238699S11653654EA0186901960000000000000
B0636193238636S11653672EA0187601971000000000000
B0636233238614S11653728EA0188901982000000000000
B0636273238645S11653770EA0190101991000000000000
B0636313238699S11653753EA0191602009000000000000
B0636353238729S11653690EA0193302025000000000000
B0636393238710S11653614EA0194102030000000000000
B0636433238646S11653573EA0195102046000000000000
B0636473238588S11653594EA0196102056000000000000
B0636513238571S11653646EA0197102067000000000000
B0636553238604S11653667EA0198302077000000015000
B0636593238643S11653621EA0199302091000000015000
B0637033238642S11653546EA0200202097000000000000
B0637073238590S11653487EA0201102110000000000000
B0637113238524S11653499EA0202102118000000015000
B0637153238495S11653549EA0203202126000000015000
B0637193238513S11653589EA0204102132000000000000
B0637233238558S11653580EA0204702139000000015000
B0637273238581S11653512EA0205302145000000015000
B0637313238542S11653433EA0205702150000000015000
B0637353238471S11653430EA0206902169000000015000
B0637393238459S11653481EA0208002174000000015000
B0637433238502S11653495EA0207702164000000000000
B0637473238563S11653487EA0206602156000000000000
B0637513238634S11653478EA0205102137000000000000
B0637553238716S11653468EA0203102122000000000000
B0637593238802S11653458EA0202002114000000000000
B0638033238890S11653452EA0201302107000000000000
B0638073238981S11653448EA0201302111000000000000
B0638113239065S11653445EA0202802132000000000000
B0638153239144S11653448EA0203402126000000000000
B0638193239225S11653459EA0202802123000000000000
B0638233239306S11653473EA0202202117000000000000
B0638273239387S11653498EA0202002116000000000000
B0638313239465S11653524EA0201602104000000000000
B0638353239548S11653542EA0201302112000000000000
B0638393239624S11653563EA0203202133000000000000
B0638433239698S11653580EA0205002150000000000000
B0638473239772S11653567EA0206002156000000000000
B0638513239847S11653551EA0205002136000000000000
B0638553239932S11653537EA0201702102000000000000
B0638593240025S11653521EA0198302074000000000000
B0639033240120S11653508EA0197002059000000000000
B0639073240215S11653495EA0195902052000000000000
B0639113240307S11653481EA0195002046000000000000
B0639153240397S11653469EA0194302035000000000000
B0639193240489S11653458EA0192502015000000000000
B0639233240582S11653447EA0191002006000000000000
B0639273240671S11653438EA0190201993000000000000
B0639313240762S11653433EA0188701980000000000000
B0639353240855S11653429EA0187801968000000000000
B0639393240947S11653428EA0186701956000000000000
B0639433241042S11653429EA0185001940000000000000
B0639473241138S11653430EA0184201936000000000000
B0639513241234S11653432EA0183901934000000000000
B0639553241329S11653434EA0183501928000000000000
B0639593241425S11653433EA0182601918000000000000
B0640033241520S11653428EA0182401920000000000000
B0640073241607S11653424EA0182901926000000000000
B0640113241693S11653417EA0182701917000000000000
B0640153241780S11653411EA0181601908000000000000
B0640193241870S11653400EA0180701898000000000000
B0640233241960S11653389EA0179601886000000000000
B0640273242051S11653378EA0178801879000000000000
B0640313242142S11653369EA0178101873000000000000
B0640353242230S11653363EA0177301863000000000000
B0640393242320S11653360EA0176301852000000000000
B0640433242406S11653357EA0175601845000000000000
B0640473242489S11653356EA0175701851000000000000
B0640513242566S11653368EA0176501865000000000000
B0640553242634S11653386EA0178101877000000000000
B0640593242702S11653404EA0178501877000000000000
B0641033242772S11653420EA0178401877000000000000
B0641073242844S11653432EA0178801880000000000000
B0641113242917S11653439EA0178801883000000000000
B0641153242988S11653447EA0178801877000000000000
B0641193243061S11653455EA0178101867000000000000
B0641233243134S11653465EA0177301867000000000000
B0641273243204S11653489EA0177601868000000000000
B0641313243275S11653507EA0177601866000000000000
B0641353243352S11653519EA0176801856000000000000
B0641393243434S11653528EA0176001846000000000000
B0641433243520S11653530EA0175301844000000000000
B0641473243608S11653534EA0175001836000000000000
B0641513243700S11653536EA0173501815000000000000
B0641553243797S11653533EA0171501796000000000000
B0641593243897S11653530EA0170001783000000000000
B0642033243997S11653528EA0168901773000000000000
B0642073244100S11653526EA0167901764000000000000
B0642113244200S11653525EA0167601766000000000000
B0642153244297S11653521EA0167401759000000000000
B0642193244392S11653521EA0167201757000000000000
B0642233244486S11653525EA0166801749000000000000
B0642273244578S11653526EA0165901741000000000000
B0642313244672S11653524EA0164601724000000000000
B0642353244766S11653526EA0162801707000000000000
B0642393244863S11653532EA0161501694000000000000
B0642433244958S11653536EA0160501685000000000000
B0642473245052S11653536EA0159201669000000000000
B0642513245150S11653536EA0157401651000000000000
B0642553245247S11653537EA0156301643000000000000
B0642593245342S11653539EA0155801635000000000000
B0643033245436S11653541EA0154801623000000000000
B0643073245528S11653530EA0153901617000000000000
B0643113245621S11653515EA0153401615000000000000
B0643153245706S11653485EA0153701616000000000000
B0643193245788S11653443EA0153501614000000000000
B0643233245857S11653380EA0154401626000000000000
B0643273245923S11653316EA0154901629000000000000
B0643313245994S11653261EA0155001632000000000000
B0643353246069S11653238EA0155701641000000000000
B0643393246139S11653243EA0156601649000000000000
B0643433246194S11653281EA0158201672000000000000
B0643473246193S11653348EA0160801698000000000000
B0643513246141S11653381EA0162301717000000000000
B0643553246077S11653360EA0163501718000000000000
B0643593246030S11653291EA0163001712000000000000
B0644033246014S11653199EA0163001716000000000000
B0644073246031S11653108EA0163301717000000000000
B0644113246074S11653031EA0163301716000000000000
B0644153246139S11652986EA0164001730000000000000
B0644193246202S11653005EA0166301755000000000000
B0644233246213S11653065EA0169001787000000000000
B0644273246165S11653086EA0172101815000000000000
B0644313246117S11653038EA0174001831000000015000
B0644353246111S11652957EA0175001846000000015000
B0644393246147S11652893EA0176401860000000015000
B0644433246207S11652879EA0177901875000000015000
B0644473246251S11652917EA0178901883000000000000
B0644513246245S11652977EA0179901895000000000000
B0644553246189S11652995EA0181601915000000015000
B0644593246134S11652957EA0183601930000000015000
B0645033246113S11652876EA0185001947000000000000
B0645073246143S11652800EA0186601966000000000000
B0645113246203S11652772EA0188301975000000000000
B0645153246258S11652804EA0188401978000000000000
B0645193246274S11652869EA0188901988000000000000
B0645233246247S11652926EA0190202006000000000000
B0645273246193S11652947EA0192102026000000000000
B0645313246131S11652921EA0193602037000000015000
B0645353246092S11652847EA0194802049000000000000
B0645393246095S11652758EA0196102064000000000000
B0645433246141S11652698EA0197802081000000000000
B0645473246203S11652694EA0198802081000000000000
B0645513246255S11652737EA0198902087000000000000
B0645553246263S11652802EA0199602100000000000000
B0645593246213S11652836EA0201302116000000000000
B0646033246154S11652797EA0202302119000000015000
B0646073246143S11652701EA0201902109000000000000
B0646113246204S11652628EA0201502117000000000000
B0646153246284S11652620EA0202702128000000000000
B0646193246343S11652666EA0203402133000000000000
B0646233246390S11652727EA0203502126000000000000
B0646273246458S11652776EA0202602115000000000000
B0646313246541S11652802EA0202402116000000000000
B0646353246623S11652814EA0202202114000000000000
B0646393246707S11652827EA0200802097000000000000
B0646433246797S11652840EA0199802082000000000000
B0646473246895S11652854EA0197402057000000000000
B0646513246993S11652870EA0196302057000000000000
B0646553247087S11652883EA0196902057000000000000
B0646593247182S11652895EA0195902039000000000000
B0647033247279S11652902EA0194302027000000000000
B0647073247379S11652908EA0192902014000000000000
B0647113247476S11652914EA0192602016000000000000
B0647153247567S11652925EA0192202005000000000000
B0647193247659S11652934EA0190801993000000000000
B0647233247751S11652944EA0189801982000000000000
B0647273247838S11652954EA0189501987000000000000
B0647313247923S11652966EA0189501981000000000000
B0647353248006S11652975EA0188601972000000000000
B0647393248089S11652983EA0187401960000000000000
B0647433248175S11652996EA0186601953000000000000
B0647473248261S11653012EA0185401943000000000000
B0647513248351S11653029EA0184701931000000000000
B0647553248442S11653047EA0183601920000000000000
B0647593248536S11653065EA0182401909000000000000
B0648033248633S11653082EA0181301900000000000000
B0648073248729S11653096EA0180601894000000000000
B0648113248824S11653105EA0180501897000000000000
B0648153248915S11653116EA0181201902000000000000
B0648193249003S11653126EA0181701906000000000000
B0648233249093S11653135EA0181901909000000000000
B0648273249180S11653147EA0182101913000000000000
B0648313249266S11653164EA0182301915000000000000
B0648353249348S11653185EA0182401915000000000000
B0648393249430S11653211EA0181901905000000000000
B0648433249514S11653239EA0180701896000000000000
B0648473249595S11653276EA0180701897000000000000
B0648513249674S11653312EA0180501894000000000000
B0648553249755S11653341EA0179901879000000000000
B0648593249835S11653370EA0177601856000000000000
B0649033249913S11653411EA0175701841000000000000
B0649073249976S11653471EA0175301839000000000000
B0649113250043S11653517EA0175101833000000000000
B0649153250121S11653541EA0173801821000000000000
B0649193250204S11653550EA0172801812000000000000
B0649233250288S11653554EA0172801812000000000000
B0649273250372S11653555EA0172301804000000000000
B0649313250458S11653554EA0171301797000000000000
B0649353250545S11653549EA0170401787000000000000
B0649393250632S11653545EA0169301774000000000000
B0649433250722S11653541EA0167701757000000000000
B0649473250813S11653538EA0166301743000000000000
B0649513250905S11653536EA0164801729000000000000
B0649553250997S11653534EA0163501716000000000000
B0649593251090S11653534EA0162401703000000000000
B0650033251181S11653538EA0161201689000000000000
B0650073251273S11653541EA0160001676000000000000
B0650113251365S11653545EA0159101664000000000000
B0650153251460S11653549EA0157601646000000000000
B0650193251555S11653550EA0156401629000000000000
B0650233251649S11653550EA0154701613000000000000
B0650273251742S11653549EA0153001594000000000000
B0650313251835S11653550EA0151401577000000000000
B0650353251931S11653552EA0149201554000000000000
B0650393252028S11653556EA0148001547000000000000
B0650433252123S11653562EA0147501543000000000000
B0650473252218S11653569EA0146701534000000000000
B0650513252312S11653578EA0145801526000000000000
B0650553252404S11653585EA0145401519000000000000
B0650593252499S11653590EA0144301506000000000000
B0651033252594S11653594EA0142901491000000000000
B0651073252690S11653598EA0141401477000000000000
B0651113252787S11653602EA0139901463000000000000
B0651153252885S11653607EA0138901454000000000000
B0651193252979S11653610EA0138101448000000000000
B0651233253071S11653610EA0137501440000000000000
B0651273253162S11653608EA0136601433000000000000
B0651313253252S11653607EA0136201431000000000000
B0651353253339S11653602EA0135501420000000000000
B0651393253424S11653597EA0135001420000000000000
B0651433253506S11653601EA0135201423000000000000
B0651473253577S11653627EA0136301441000000000000
B0651513253636S11653664EA0137901446000000000000
B0651553253696S11653702EA0137501436000000000000
B0651593253764S11653732EA0136301423000000000000
B0652033253837S11653754EA0135101413000000000000
B0652073253913S11653771EA0134001403000000000000
B0652113253991S11653786EA0132801387000000000000
B0652153254071S11653803EA0131401376000000000000
B0652193254147S11653828EA0130501369000000000000
B0652233254223S11653851EA0129701358000000000000
B0652273254302S11653872EA0128701352000000000000
B0652313254380S11653890EA0128101344000000000000
B0652353254457S11653902EA0128001346000000000000
B0652393254532S11653903EA0128001350000000000000
B0652433254604S11653909EA0128501355000000000000
B0652473254669S11653928EA0129001363000000000000
B0652513254728S11653948EA0129301362000000000000
B0652553254784S11653981EA0128601354000000000000
B0652593254841S11654017EA0128801362000000000000
B0653033254895S11654053EA0129901376000000000000
B0653073254952S11654076EA0131201383000000000000
B0653113254991S11654014EA0132101396000000000000
B0653153254957S11653944EA0133601415000000000000
B0653193254901S11653928EA0134801422000000000000
B0653233254857S11653961EA0135101424000000000000
B0653273254853S11654017EA0135901433000000000000
B0653313254897S11654037EA0136701441000000000000
B0653353254942S11653994EA0137501450000000000000
B0653393254952S11653919EA0138201456000000015000
B0653433254917S11653853EA0138401458000000015000
B0653473254856S11653831EA0138401461000000015000
B0653513254801S11653851EA0138901468000000000000
B0653553254766S11653898EA0139701479000000000000
B0653593254770S11653952EA0140701488000000000000
B0654033254813S11653963EA0142001503000000000000
B0654073254848S11653913EA0142701505000000000000
B0654113254843S11653835EA0142901507000000000000
B0654153254796S11653777EA0143201509000000000000
B0654193254732S11653768EA0143401511000000000000
B0654233254675S11653793EA0143801519000000000000
B0654273254645S11653844EA0144501525000000000000
B0654313254643S11653903EA0145201533000000000000
B0654353254679S11653942EA0145801533000000000000
B0654393254732S11653922EA0145901539000000000000
B0654433254760S11653848EA0145801537000000000000
B0654473254750S11653754EA0146501549000000000000
B0654513254705S11653685EA0148401570000000000000
B0654553254646S11653681EA0150301585000000000000
B0654593254614S11653724EA0150601585000000000000
B0655033254617S11653783EA0150801588000000000000
B0655073254649S11653827EA0151101589000000000000
B0655113254701S11653844EA0151101586000000000000
B0655153254761S11653837EA0150501585000000000000
B0655193254825S11653831EA0150001577000000000000
B0655233254895S11653822EA0149301570000000000000
B0655273254970S11653811EA0148001555000000000000
B0655313255047S11653799EA0146601540000000000000
B0655353255126S11653790EA0145001525000000000000
B0655393255204S11653784EA0143601509000000000000
B0655433255283S11653779EA0141801489000000000000
B0655473255363S11653775EA0140001470000000000000
B0655513255445S11653770EA0138501458000000000000
B0655553255524S11653766EA0137401441000000000000
B0655593255603S11653760EA0136101431000000000000
B0656033255680S11653755EA0135201424000000000000
B0656073255757S11653751EA0134901424000000000000
B0656113255831S11653747EA0134801424000000000000
B0656153255898S11653758EA0134801424000000000000
B0656193255962S11653775EA0134001410000000000000
B0656233256031S11653786EA0132601396000000000000
B0656273256101S11653794EA0131401378000000000000
B0656313256174S11653799EA0130101371000000000000
B0656353256245S11653801EA0129201361000000000000
B0656393256314S11653812EA0128401355000000000000
B0656433256382S11653825EA0128201354000000000000
B0656473256450S11653833EA0128401359000000000000
B0656513256516S11653836EA0128601360000000000000
B0656553256581S11653849EA0128501359000000000000
B0656593256643S11653867EA0129201371000000000000
B0657033256704S11653849EA0130201374000000000000
B0657073256767S11653823EA0129801371000000000000
B0657113256834S11653819EA0130201380000000000000
B0657153256890S11653850EA0131101387000000000000
B0657193256936S11653902EA0131101380000000000000
B0657233256985S11653954EA0131401394000000000000
B0657273257029S11654001EA0132801403000000000000
B0657313257084S11654030EA0132801400000000000000
B0657353257148S11654026EA0132001393000000000000
B0657393257215S11654002EA0131701392000000000000
B0657433257284S11654001EA0132001399000000000000
B0657473257313S11654061EA0133601422000000000000
B0657513257262S11654093EA0135901447000000000000
B0657553257210S11654048EA0137301448000000000000
B0657593257207S11653967EA0137201449000000000000
B0658033257254S11653918EA0137801459000000000000
B0658073257296S11653942EA0138901474000000015000
B0658113257279S11653996EA0139901478000000015000
B0658153257217S11654005EA0140401487000000015000
B0658193257162S11653952EA0141301495000000015000
B0658233257149S11653870EA0142001501000000015000
B0658273257178S11653799EA0142401502000000015000
B0658313257231S11653773EA0142301499000000015000
B0658353257287S11653780EA0142301502000000000000
B0658393257337S11653806EA0142401504000000000000
B0658433257389S11653836EA0142101496000000000000
B0658473257452S11653846EA0142201497000000000000
B0658513257518S11653844EA0141701490000000000000
B0658553257588S11653831EA0140801481000000000000
B0658593257664S11653816EA0140501482000000000000
B0659033257742S11653799EA0140701480000000000000
B0659073257822S11653788EA0140401479000000000000
B0659113257900S11653803EA0140401482000000000000
B0659153257972S11653835EA0140701486000000000000
B0659193258037S11653861EA0141501492000000000000
B0659233258104S11653859EA0140801481000000000000
B0659273258176S11653845EA0139901473000000000000
B0659313258249S11653827EA0139201466000000000000
B0659353258325S11653809EA0138501457000000000000
B0659393258405S11653792EA0137001441000000000000
B0659433258485S11653773EA0135701429000000000000
B0659473258565S11653760EA0135101422000000000000
B0659513258644S11653758EA0134601417000000000000
B0659553258722S11653758EA0134201412000000000000
B0659593258799S11653754EA0133701407000000000000
B0700033258873S11653758EA0133101404000000000000
B0700073258942S11653772EA0132701398000000000000
B0700113259009S11653786EA0132001391000000000000
B0700153259077S11653799EA0131401383000000000000
B0700193259146S11653809EA0130801379000000000000
B0700233259212S11653819EA0130501377000000000000
B0700273259280S11653827EA0130601380000000000000
B0700313259341S11653850EA0131501394000000000000
B0700353259385S11653892EA0132801403000000000000
B0700393259421S11653942EA0132901401000000000000
B0700433259464S11653989EA0132401395000000000000
B0700473259515S11654028EA0132401397000000000000
B0700513259567S11654037EA0133801415000000000000
B0700553259598S11653987EA0135201424000000000000
B0700593259575S11653914EA0135401421000000000000
B0701033259511S11653887EA0135301424000000000000
B0701073259456S11653911EA0135501426000000000000
B0701113259430S11653961EA0135601426000000000000
B0701153259438S11654013EA0135301423000000000000
B0701193259468S11654054EA0135101424000000000000
B0701233259506S11654092EA0135001423000000000000
B0701273259547S11654128EA0134801418000000000000
B0701313259602S11654144EA0134301417000000000000
B0701353259664S11654131EA0134501420000000000000
B0701393259726S11654087EA0134401417000000000000
B0701433259785S11654035EA0134201416000000000000
B0701473259845S11653979EA0133701409000000000000
B0701513259908S11653922EA0133001403000000000000
B0701553259974S11653870EA0132901403000000000000
B0701593300039S11653823EA0132601399000000000000
B0702033300104S11653780EA0131801393000000000000
B0702073300169S11653742EA0131101382000000000000
B0702113300235S11653705EA0130301374000000000000
B0702153300301S11653666EA0129301361000000000000
B0702193300369S11653627EA0128101349000000000000
B0702233300438S11653588EA0126801336000000000000
B0702273300503S11653541EA0126301333000000000000
B0702313300563S11653487EA0125801327000000000000
B0702353300620S11653432EA0125201322000000000000
B0702393300678S11653377EA0125001321000000000000
B0702433300738S11653324EA0124801318000000000000
B0702473300795S11653274EA0125401330000000000000
B0702513300851S11653227EA0126301337000000000000
B0702553300907S11653185EA0126601337000000000000
B0702593300966S11653140EA0126201333000000000000
B0703033301026S11653095EA0125701324000000000000
B0703073301084S11653045EA0124601313000000000000
B0703113301143S11652991EA0123801305000000000000
B0703153301201S11652932EA0123501301000000000000
B0703193301256S11652871EA0123001292000000000000
B0703233301309S11652802EA0121801283000000000000
B0703273301364S11652732EA0121101277000000000000
B0703313301418S11652663EA0120501272000000000000
B0703353301470S11652589EA0120201269000000000000
B0703393301518S11652515EA0119901267000000000000
B0703433301565S11652442EA0119401260000000000000
B0703473301609S11652369EA0118601248000000000000
B0703513301652S11652301EA0117601242000000000000
B0703553301694S11652233EA0117401242000000000000
B0703593301735S11652168EA0117201238000000000000
B0704033301781S11652106EA0116101224000000000000
B0704073301843S11652086EA0115101218000000000000
B0704113301889S11652132EA0114501210000000000000
B0704153301900S11652206EA0113001192000000000000
B0704193301890S11652285EA0111901180000000000000
B0704233301859S11652362EA0110701168000000000000
B0704273301809S11652427EA0109901161000000000000
B0704313301751S11652481EA0109101152000000000000
B0704353301689S11652531EA0108101141000000000000
B0704393301624S11652579EA0107801141000000000000
B0704433301562S11652626EA0108001144000000000000
B0704473301518S11652679EA0108301146000000000000
B0704513301486S11652739EA0108301148000000000000
B0704553301477S11652801EA0108801154000000000000
B0704593301479S11652861EA0109301159000000000000
B0705033301488S11652918EA0109701162000000000000
B0705073301525S11652951EA0110101162000000000000
B0705113301570S11652922EA0109401154000000000000
B0705153301582S11652845EA0108501146000000000000
B0705193301542S11652775EA0108101144000000000000
B0705233301473S11652758EA0108701155000000000000
B0705273301406S11652762EA0109901166000000000000
B0705313301366S11652801EA0110701173000000000000
B0705353301396S11652837EA0111001172000000000000
B0705393301444S11652800EA0111201174000000000000
B0705433301449S11652722EA0110801172000000015000
B0705473301404S11652657EA0111201185000000015000
B0705513301345S11652650EA0112701195000000000000
B0705553301325S11652696EA0113201196000000000000
B0705593301358S11652723EA0113801204000000000000
B0706033301397S11652684EA0114101204000000015000
B0706073301396S11652607EA0114101210000000015000
B0706113301354S11652551EA0115401226000000015000
B0706153301299S11652541EA0116201227000000015000
B0706193301258S11652576EA0116201227000000000000
B0706233301267S11652622EA0116601233000000000000
B0706273301310S11652615EA0117601241000000015000
B0706313301335S11652559EA0118301245000000015000
B0706353301315S11652488EA0118501248000000015000
B0706393301261S11652444EA0118901253000000015000
B0706433301201S11652441EA0119201254000000000000
B0706473301163S11652483EA0119201257000000000000
B0706513301171S11652531EA0119501261000000000000
B0706553301211S11652550EA0120301269000000000000
B0706593301256S11652519EA0121001275000000015000
B0707033301269S11652453EA0121601280000000015000
B0707073301239S11652381EA0121801282000000015000
B0707113301179S11652343EA0122301286000000015000
B0707153301119S11652359EA0122301286000000015000
B0707193301094S11652410EA0122601295000000015000
B0707233301107S11652457EA0123501300000000000000
B0707273301152S11652464EA0124001303000000015000
B0707313301195S11652424EA0124401308000000015000
B0707353301210S11652353EA0124601312000000015000
B0707393301185S11652275EA0125201320000000015000
B0707433301136S11652217EA0125801326000000000000
B0707473301072S11652210EA0125801323000000000000
B0707513301015S11652238EA0124701309000000000000
B0707553300959S11652288EA0124101307000000000000
B0707593300909S11652346EA0124301308000000000000
B0708033300858S11652410EA0123801299000000000000
B0708073300806S11652476EA0123301301000000000000
B0708113300762S11652545EA0124101309000000000000
B0708153300727S11652616EA0124101305000000000000
B0708193300694S11652692EA0123301295000000000000
B0708233300663S11652767EA0122601290000000000000
B0708273300628S11652843EA0121601279000000000000
B0708313300587S11652914EA0120401267000000000000
B0708353300541S11652986EA0119501257000000000000
B0708393300491S11653053EA0119201257000000000000
B0708433300442S11653117EA0119001255000000000000
B0708473300394S11653185EA0119001257000000000000
B0708513300355S11653253EA0120201269000000000000
B0708553300340S11653326EA0121301282000000000000
B0708593300370S11653373EA0122901295000000000000
B0709033300420S11653359EA0123301298000000000000
B0709073300441S11653289EA0123701302000000000000
B0709113300418S11653211EA0124001311000000000000
B0709153300366S11653159EA0125401325000000000000
B0709193300308S11653155EA0126601336000000000000
B0709233300270S11653196EA0127201338000000000000
B0709273300274S11653247EA0127601345000000000000
B0709313300313S11653265EA0127901340000000000000
B0709353300359S11653222EA0127701345000000015000
B0709393300379S11653152EA0128501354000000015000
B0709433300355S11653079EA0129901371000000015000
B0709473300299S11653055EA0130901380000000015000
B0709513300256S11653088EA0132001389000000015000
B0709553300264S11653139EA0132401395000000015000
B0709593300307S11653147EA0132901400000000015000
B0710033300346S11653100EA0133201402000000015000
B0710073300343S11653023EA0133801413000000015000
B0710113300296S11652973EA0134901422000000015000
B0710153300239S11652979EA0135701427000000015000
B0710193300220S11653030EA0136301434000000000000
B0710233300256S11653055EA0137301446000000015000
B0710273300296S11653009EA0137801449000000015000
B0710313300295S11652930EA0138501461000000015000
B0710353300251S11652873EA0139301465000000015000
B0710393300190S11652860EA0139501469000000015000
B0710433300139S11652889EA0139901469000000015000
B0710473300125S11652943EA0140001474000000000000
B0710513300153S11652980EA0141001485000000000000
B0710553300201S11652971EA0141101483000000015000
B0710593300244S11652915EA0141301489000000015000
B0711033300249S11652837EA0142401505000000015000
B0711073300210S11652775EA0143401507000000015000
B0711113300147S11652757EA0143101506000000015000
B0711153300091S11652782EA0143201506000000015000
B0711193300048S11652828EA0142901502000000000000
B0711233300006S11652883EA0143001508000000000000
B0711273259966S11652940EA0143301500000000000000
B0711313259923S11653003EA0141201477000000000000
B0711353259878S11653073EA0139801468000000000000
B0711393259830S11653147EA0139301464000000000000
B0711433259780S11653220EA0139501467000000000000
B0711473259733S11653290EA0140501477000000000000
B0711513259693S11653357EA0141701492000000000000
B0711553259663S11653430EA0142101496000000000000
B0711593259636S11653502EA0143301512000000000000
B0712033259614S11653571EA0145001528000000000000
B0712073259594S11653640EA0145501532000000000000
B0712113259576S11653710EA0145801533000000000000
B0712153259551S11653785EA0144801519000000000000
B0712193259516S11653862EA0144401517000000000000
B0712233259476S11653936EA0144401519000000000000
B0712273259436S11654011EA0143701507000000000000
B0712313259390S11654087EA0141701486000000000000
B0712353259338S11654163EA0140401466000000000000
B0712393259284S11654241EA0138401449000000000000
B0712433259229S11654323EA0137101436000000000000
B0712473259173S11654407EA0135901422000000000000
B0712513259118S11654490EA0134701415000000000000
B0712553259061S11654568EA0134401413000000000000
B0712593259005S11654643EA0133701402000000000000
B0713033258948S11654717EA0132701392000000000000
B0713073258892S11654791EA0132101385000000000000
B0713113258836S11654864EA0131401375000000000000
B0713153258783S11654940EA0130401370000000000000
B0713193258731S11655015EA0129901362000000000000
B0713233258679S11655090EA0129301359000000000000
B0713273258627S11655164EA0129201360000000000000
B0713313258579S11655239EA0129901368000000000000
B0713353258535S11655314EA0130201368000000000000
B0713393258492S11655383EA0131201384000000000000
B0713433258452S11655447EA0132601398000000000000
B0713473258436S11655513EA0133801411000000000000
B0713513258442S11655571EA0134601418000000000000
B0713553258453S11655626EA0134601412000000000000
B0713593258457S11655691EA0132801386000000000000
B0714033258441S11655770EA0130601367000000000000
B0714073258414S11655852EA0128701349000000000000
B0714113258376S11655934EA0127801342000000000000
B0714153258337S11656015EA0127401340000000000000
B0714193258298S11656093EA0127101336000000000000
B0714233258258S11656171EA0126901335000000000000
B0714273258220S11656249EA0126401330000000000000
B0714313258181S11656328EA0125801319000000000000
B0714353258142S11656407EA0124801309000000000000
B0714393258102S11656488EA0123901301000000000000
B0714433258063S11656568EA0123101292000000000000
B0714473258021S11656648EA0122401283000000000000
B0714513257981S11656727EA0121701279000000000000
B0714553257943S11656805EA0121201274000000000000
B0714593257907S11656880EA0120601266000000000000
B0715033257872S11656956EA0119901261000000000000
B0715073257837S11657030EA0118901252000000000000
B0715113257798S11657104EA0118501247000000000000
B0715153257756S11657177EA0118201245000000000000
B0715193257712S11657244EA0117901238000000000000
B0715233257666S11657312EA0117101228000000000000
B0715273257621S11657377EA0117001230000000000000
B0715313257578S11657443EA0116501225000000000000
B0715353257539S11657511EA0116001218000000000000
B0715393257500S11657579EA0116001223000000000000
B0715433257461S11657645EA0116901234000000000000
B0715473257431S11657710EA0117901245000000000000
B0715513257435S11657771EA0119101255000000000000
B0715553257452S11657833EA0119301251000000000000
B0715593257492S11657881EA0118801250000000000000
B0716033257535S11657926EA0118801252000000000000
B0716073257570S11657978EA0119701263000000000000
B0716113257600S11658030EA0121401279000000000000
B0716153257651S11658037EA0122501292000000000000
B0716193257685S11657975EA0123501297000000000000
B0716233257669S11657893EA0123501297000000000000
B0716273257617S11657839EA0124001301000000000000
B0716313257553S11657820EA0123501294000000000000
B0716353257496S11657850EA0123901307000000000000
B0716393257460S11657900EA0124901319000000000000
B0716433257461S11657952EA0126201330000000000000
B0716473257497S11657979EA0126501326000000000000
B0716513257549S11657956EA0125301318000000000000
B0716553257581S11657888EA0125601325000000015000
B0716593257577S11657810EA0126301335000000015000
B0717033257556S11657735EA0127001339000000000000
B0717073257506S11657677EA0126801335000000000000
B0717113257443S11657663EA0126801334000000000000
B0717153257384S11657688EA0126401332000000000000
B0717193257335S11657732EA0126201329000000000000
B0717233257292S11657789EA0125201313000000000000
B0717273257257S11657862EA0123801301000000000000
B0717313257220S11657935EA0123701303000000000000
B0717353257189S11658009EA0124801317000000000000
B0717393257178S11658082EA0125701325000000000000
B0717433257180S11658152EA0125301313000000000000
B0717473257178S11658229EA0123801296000000000000
B0717513257162S11658308EA0123101299000000000000
B0717553257144S11658383EA0123801301000000000000
B0717593257126S11658461EA0122301284000000000000
B0718033257101S11658542EA0120601265000000000000
B0718073257071S11658625EA0119101252000000000000
B0718113257037S11658708EA0118301243000000000000
B0718153257003S11658793EA0117101233000000000000
B0718193256968S11658879EA0117501241000000000000
B0718233256951S11658960EA0119101259000000000000
B0718273256963S11659036EA0120001262000000000000
B0718313256988S11659107EA0120201267000000000000
B0718353257015S11659178EA0120001262000000000000
B0718393257042S11659252EA0118601246000000000000
B0718433257053S11659343EA0117101236000000000000
B0718473257044S11659435EA0116801232000000000000
B0718513257020S11659526EA0115901221000000000000
B0718553256984S11659612EA0116101227000000000000
B0718593256958S11659690EA0117701253000000000000
B0719033256993S11659727EA0120401273000000000000
B0719073257028S11659678EA0121801283000000000000
B0719113257012S11659600EA0122001285000000000000
B0719153256958S11659551EA0122601291000000015000
B0719193256894S11659519EA0123201299000000000000
B0719233256825S11659495EA0123501298000000000000
B0719273256756S11659499EA0123701302000000000000
B0719313256702S11659539EA0123601301000000000000
B0719353256687S11659600EA0124501313000000000000
B0719393256721S11659638EA0125301318000000000000
B0719433256773S11659620EA0125601320000000000000
B0719473256793S11659549EA0126001325000000000000
B0719513256760S11659478EA0126401333000000015000
B0719553256702S11659447EA0127101335000000015000
B0719593256642S11659464EA0127101338000000015000
B0720033256615S11659518EA0127401344000000015000
B0720073256635S11659568EA0128101349000000000000
B0720113256685S11659577EA0128801354000000000000
B0720153256723S11659522EA0129201357000000015000
B0720193256700S11659445EA0129201356000000015000
B0720233256633S11659409EA0129001357000000015000
B0720273256570S11659430EA0129601366000000015000
B0720313256550S11659484EA0130301372000000000000
B0720353256574S11659527EA0131101378000000000000
B0720393256621S11659527EA0131301377000000000000
B0720433256661S11659475EA0131201377000000015000
B0720473256655S11659393EA0131301377000000015000
B0720513256600S11659341EA0131201374000000015000
B0720553256531S11659339EA0130901377000000015000
B0720593256477S11659371EA0131501385000000015000
B0721033256434S11659423EA0131401379000000000000
B0721073256394S11659483EA0130601369000000000000
B0721113256356S11659551EA0129501357000000000000
B0721153256322S11659622EA0128001343000000000000
B0721193256286S11659698EA0127001334000000000000
B0721233256252S11659774EA0126301329000000000000
B0721273256219S11659852EA0125901325000000000000
B0721313256187S11659929EA0125801322000000000000
B0721353256153S11700004EA0125801325000000000000
B0721393256119S11700078EA0126401336000000000000
B0721433256088S11700149EA0127301342000000000000
B0721473256058S11700216EA0128201351000000000000
B0721513256028S11700286EA0128301351000000000000
B0721553255998S11700355EA0129001359000000000000
B0721593255976S11700423EA0130201370000000000000
B0722033256001S11700474EA0131401381000000000000
B0722073256054S11700462EA0131401376000000000000
B0722113256074S11700387EA0131301380000000000000
B0722153256044S11700309EA0132201396000000000000
B0722193255992S11700255EA0133201400000000000000
B0722233255931S11700240EA0133501404000000000000
B0722273255880S11700270EA0134301417000000000000
B0722313255876S11700322EA0135501425000000000000
B0722353255917S11700348EA0136001426000000000000
B0722393255967S11700323EA0136501434000000015000
B0722433255985S11700258EA0137201444000000015000
B0722473255954S11700190EA0137801448000000015000
B0722513255894S11700162EA0138401460000000015000
B0722553255842S11700182EA0139201467000000015000
B0722593255820S11700237EA0139901475000000015000
B0723033255839S11700288EA0140601480000000000000
B0723073255889S11700296EA0141201481000000000000
B0723113255931S11700240EA0141201486000000015000
B0723153255928S11700164EA0142201499000000015000
B0723193255881S11700112EA0143301508000000015000
B0723233255822S11700110EA0144201519000000015000
B0723273255784S11700149EA0145401535000000000000
B0723313255784S11700205EA0146301537000000000000
B0723353255822S11700237EA0146801547000000000000
B0723393255868S11700206EA0147701550000000015000
B0723433255875S11700128EA0147701550000000015000
B0723473255833S11700064EA0148201558000000015000
B0723513255775S11700046EA0149301569000000015000
B0723553255724S11700072EA0150701582000000015000
B0723593255702S11700125EA0151301586000000015000
B0724033255712S11700181EA0151401587000000000000
B0724073255757S11700208EA0151701590000000000000
B0724113255807S11700181EA0152501604000000015000
B0724153255831S11700117EA0153601614000000015000
B0724193255811S11700049EA0154401621000000015000
B0724233255763S11700010EA0154901625000000015000
B0724273255709S11700021EA0155301630000000015000
B0724313255681S11700073EA0156301641000000015000
B0724353255692S11700127EA0157001645000000000000
B0724393255735S11700154EA0157101647000000000000
B0724433255788S11700134EA0157901660000000015000
B0724473255813S11700073EA0159201674000000015000
B0724513255794S11700006EA0160301680000000015000
B0724553255746S11659961EA0160801685000000015000
B0724593255690S11659956EA0161401691000000015000
B0725033255647S11659994EA0161501693000000000000
B0725073255614S11700047EA0161201689000000000000
B0725113255580S11700111EA0160701683000000000000
B0725153255543S11700180EA0160501684000000000000
B0725193255511S11700254EA0161101699000000000000
B0725233255508S11700324EA0164001728000000000000
B0725273255558S11700337EA0166201741000000000000
B0725313255589S11700270EA0167201757000000000000
B0725353255569S11700189EA0168401769000000015000
B0725393255512S11700142EA0170101788000000015000
B0725433255451S11700150EA0171501798000000015000
B0725473255416S11700206EA0172501812000000015000
B0725513255439S11700254EA0174701834000000015000
B0725553255485S11700247EA0175601834000000015000
B0725593255512S11700175EA0175201835000000015000
B0726033255485S11700093EA0176301852000000015000
B0726073255419S11700062EA0177501866000000015000
B0726113255358S11700091EA0178601874000000015000
B0726153255328S11700154EA0179601888000000015000
B0726193255339S11700215EA0181101903000000015000
B0726233255387S11700242EA0181701901000000000000
B0726273255446S11700215EA0181301898000000015000
B0726313255477S11700140EA0181601905000000015000
B0726353255459S11700054EA0182701918000000015000
B0726393255411S11659986EA0183701931000000000000
B0726433255346S11659972EA0185201942000000000000
B0726473255299S11700017EA0185301936000000000000
B0726513255264S11700088EA0184801936000000000000
B0726553255234S11700163EA0185401944000000000000
B0726593255207S11700241EA0185501942000000000000
B0727033255179S11700320EA0185601944000000000000
B0727073255148S11700400EA0186101949000000000000
B0727113255116S11700475EA0185701943000000000000
B0727153255083S11700552EA0184501926000000000000
B0727193255052S11700632EA0183301920000000000000
B0727233255013S11700709EA0182801913000000000000
B0727273254969S11700783EA0182401911000000000000
B0727313254923S11700856EA0182401909000000000000
B0727353254878S11700929EA0182501914000000000000
B0727393254832S11701000EA0183001916000000000000
B0727433254786S11701073EA0183101919000000000000
B0727473254749S11701147EA0184801942000000000000
B0727513254776S11701202EA0187701966000000000000
B0727553254831S11701195EA0188001956000000000000
B0727593254864S11701128EA0186601943000000000000
B0728033254839S11701050EA0185701939000000000000
B0728073254783S11701009EA0185201934000000015000
B0728113254721S11701016EA0185201939000000000000
B0728153254663S11701051EA0186401958000000000000
B0728193254630S11701104EA0188201979000000000000
B0728233254652S11701160EA0190201995000000000000
B0728273254702S11701146EA0191602006000000000000
B0728313254711S11701076EA0192302014000000015000
B0728353254676S11701021EA0193602032000000015000
B0728393254623S11701018EA0195202043000000015000
B0728433254588S11701065EA0196002054000000015000
B0728473254589S11701129EA0196902061000000015000
B0728513254633S11701163EA0197902070000000015000
B0728553254684S11701139EA0197902064000000015000
B0728593254711S11701070EA0197302064000000015000
B0729033254685S11700999EA0197902072000000015000
B0729073254631S11700964EA0198902089000000015000
B0729113254585S11700995EA0200602104000000015000
B0729153254601S11701055EA0201802112000000015000
B0729193254661S11701055EA0202402116000000015000
B0729233254691S11700986EA0202802119000000015000
B0729273254658S11700914EA0203202124000000015000
B0729313254593S11700891EA0204202139000000015000
B0729353254535S11700914EA0205402151000000015000
B0729393254493S11700969EA0206102160000000000000
B0729433254461S11701037EA0206602158000000000000
B0729473254429S11701112EA0205002132000000000000
B0729513254397S11701196EA0202402107000000000000
B0729553254363S11701287EA0200602091000000000000
B0729593254331S11701381EA0199002076000000000000
B0730033254297S11701477EA0197902067000000000000
B0730073254264S11701570EA0197502065000000000000
B0730113254228S11701662EA0196902060000000000000
B0730153254190S11701752EA0196502053000000000000
B0730193254150S11701841EA0196202048000000000000
B0730233254111S11701931EA0195502045000000000000
B0730273254071S11702022EA0194702032000000000000
B0730313254026S11702116EA0193202017000000000000
B0730353253977S11702212EA0191902004000000000000
B0730393253925S11702309EA0190901993000000000000
B0730433253874S11702407EA0190001985000000000000
B0730473253822S11702504EA0189401977000000000000
B0730513253770S11702599EA0188401967000000000000
B0730553253716S11702694EA0187701961000000000000
B0730593253664S11702784EA0187201956000000000000
B0731033253612S11702871EA0186701951000000000000
B0731073253562S11702955EA0186001943000000000000
B0731113253514S11703039EA0185501941000000000000
B0731153253469S11703120EA0185401941000000000000
B0731193253423S11703201EA0185101938000000000000
B0731233253375S11703280EA0184901931000000000000
B0731273253326S11703358EA0184001922000000000000
B0731313253278S11703439EA0183401917000000000000
B0731353253229S11703518EA0183301919000000000000
B0731393253184S11703595EA0183501921000000000000
B0731433253141S11703674EA0183601923000000000000
B0731473253101S11703752EA0183701926000000000000
B0731513253064S11703830EA0184201930000000000000
B0731553253025S11703906EA0184401930000000000000
B0731593252988S11703984EA0184401932000000000000
B0732033252951S11704063EA0184001921000000000000
B0732073252911S11704145EA0182501905000000000000
B0732113252869S11704227EA0181401898000000000000
B0732153252825S11704309EA0180501887000000000000
B0732193252782S11704391EA0180101886000000000000
B0732233252739S11704471EA0180201887000000000000
B0732273252696S11704552EA0180001884000000000000
B0732313252655S11704634EA0179701883000000000000
B0732353252612S11704712EA0180201889000000000000
B0732393252570S11704788EA0180601889000000000000
B0732433252526S11704866EA0180201884000000000000
B0732473252481S11704946EA0179601876000000000000
B0732513252435S11705025EA0179001871000000000000
B0732553252388S11705102EA0178501867000000000000
B0732593252340S11705178EA0178201861000000000000
B0733033252292S11705256EA0177001849000000000000
B0733073252247S11705334EA0176401843000000000000
B0733113252200S11705412EA0175601835000000000000
B0733153252152S11705489EA0174801827000000000000
B0733193252105S11705564EA0174201823000000000000
B0733233252056S11705637EA0173801815000000000000
B0733273252007S11705709EA0173001809000000000000
B0733313251962S11705780EA0173301817000000000000
B0733353251915S11705852EA0173701820000000000000
B0733393251871S11705921EA0174701835000000000000
B0733433251855S11705992EA0176501854000000000000
B0733473251884S11706045EA0177901864000000000000
B0733513251937S11706062EA0178201859000000000000
B0733553251994S11706038EA0177601854000000000000
B0733593252032S11705970EA0177001852000000015000
B0734033252028S11705883EA0176801852000000015000
B0734073251983S11705810EA0177401863000000015000
B0734113251922S11705756EA0178801877000000000000
B0734153251863S11705770EA0180701896000000000000
B0734193251858S11705823EA0181901907000000000000
B0734233251902S11705840EA0182901918000000000000
B0734273251945S11705801EA0183901933000000015000
B0734313251954S11705726EA0185601951000000015000
B0734353251920S11705654EA0187001961000000015000
B0734393251859S11705627EA0187901968000000015000
B0734433251803S11705649EA0188201969000000015000
B0734473251773S11705702EA0188601973000000015000
B0734513251781S11705757EA0189401988000000015000
B0734553251822S11705779EA0190501995000000000000
B0734593251871S11705753EA0191002001000000015000
B0735033251903S11705691EA0192102014000000015000
B0735073251902S11705610EA0193402033000000015000
B0735113251863S11705545EA0194902043000000015000
B0735153251803S11705520EA0195902050000000015000
B0735193251747S11705535EA0195802045000000015000
B0735233251718S11705585EA0195802051000000015000
B0735273251727S11705635EA0196902064000000015000
B0735313251770S11705648EA0197702071000000015000
B0735353251819S11705619EA0198702081000000000000
B0735393251845S11705549EA0199602096000000015000
B0735433251824S11705468EA0201302110000000015000
B0735473251773S11705414EA0202102116000000015000
B0735513251712S11705401EA0202202112000000015000
B0735553251653S11705425EA0201302100000000000000
B0735593251599S11705475EA0200202086000000000000
B0736033251549S11705538EA0199002078000000000000
B0736073251498S11705611EA0197902066000000000000
B0736113251451S11705692EA0196702051000000000000
B0736153251412S11705782EA0195802050000000000000
B0736193251383S11705863EA0196502055000000000000
B0736233251350S11705940EA0195902044000000000000
B0736273251308S11706016EA0195102034000000000000
B0736313251259S11706090EA0194002022000000000000
B0736353251204S11706162EA0193202017000000000000
B0736393251155S11706231EA0193302022000000000000
B0736433251109S11706302EA0193002012000000000000
B0736473251065S11706372EA0192302009000000000000
B0736513251021S11706441EA0192002005000000000000
B0736553250975S11706511EA0191201995000000000000
B0736593250926S11706586EA0189801978000000000000
B0737033250871S11706667EA0188201955000000000000
B0737073250815S11706754EA0186101938000000000000
B0737113250758S11706840EA0185001935000000000000
B0737153250705S11706922EA0184701931000000000000
B0737193250655S11707001EA0184201923000000000000
B0737233250606S11707080EA0183301912000000000000
B0737273250557S11707160EA0182001900000000000000
B0737313250507S11707239EA0181101891000000000000
B0737353250457S11707317EA0181201896000000000000
B0737393250408S11707396EA0181501898000000000000
B0737433250359S11707474EA0181901907000000000000
B0737473250311S11707547EA0182801911000000000000
B0737513250265S11707620EA0182701913000000000000
B0737553250221S11707694EA0182401907000000000000
B0737593250173S11707773EA0181701897000000000000
B0738033250128S11707852EA0181701895000000000000
B0738073250086S11707925EA0182201900000000000000
B0738113250044S11707994EA0181701891000000000000
B0738153249999S11708062EA0180601885000000000000
B0738193249952S11708131EA0180201884000000000000
B0738233249904S11708200EA0180101884000000000000
B0738273249856S11708270EA0180201884000000000000
B0738313249810S11708340EA0180101884000000000000
B0738353249769S11708408EA0180301885000000000000
B0738393249726S11708479EA0179201870000000000000
B0738433249683S11708553EA0178401861000000000000
B0738473249641S11708627EA0177501853000000000000
B0738513249599S11708703EA0177001849000000000000
B0738553249557S11708781EA0176301839000000000000
B0738593249513S11708860EA0175201833000000000000
B0739033249466S11708937EA0174901828000000000000
B0739073249419S11709015EA0174701825000000000000
B0739113249372S11709091EA0174801829000000000000
B0739153249326S11709168EA0174601825000000000000
B0739193249277S11709245EA0174301821000000000000
B0739233249227S11709321EA0174001818000000000000
B0739273249176S11709398EA0173801819000000000000
B0739313249127S11709471EA0174301827000000000000
B0739353249086S11709544EA0176201845000000000000
B0739393249064S11709618EA0176801848000000000000
B0739433249038S11709695EA0176401840000000000000
B0739473249008S11709771EA0175601832000000000000
B0739513248975S11709851EA0174201815000000000000
B0739553248934S11709931EA0172801803000000000000
B0739593248891S11710010EA0171901795000000000000
B0740033248846S11710088EA0171101787000000000000
B0740073248798S11710166EA0170301778000000000000
B0740113248751S11710247EA0169101762000000000000
B0740153248703S11710328EA0167401743000000000000
B0740193248655S11710406EA0165901730000000000000
B0740233248608S11710484EA0164701719000000000000
B0740273248564S11710562EA0163501707000000000000
B0740313248520S11710638EA0162301695000000000000
B0740353248477S11710718EA0161301685000000000000
B0740393248434S11710796EA0160201674000000000000
B0740433248387S11710875EA0159201664000000000000
B0740473248339S11710957EA0158401655000000000000
B0740513248292S11711039EA0158001655000000000000
B0740553248249S11711119EA0158901669000000000000
B0740593248232S11711196EA0160601687000000000000
B0741033248245S11711257EA0161501690000000000000
B0741073248273S11711310EA0160701679000000000000
B0741113248291S11711375EA0159101663000000000000
B0741153248289S11711451EA0157601647000000000000
B0741193248275S11711530EA0156201630000000000000
B0741233248254S11711612EA0154801619000000000000
B0741273248226S11711691EA0154001614000000000000
B0741313248193S11711767EA0153501607000000000000
B0741353248165S11711843EA0152701599000000000000
B0741393248149S11711920EA0152001591000000000000
B0741433248148S11711996EA0151501588000000000000
B0741473248158S11712067EA0151801594000000000000
B0741513248171S11712139EA0152801605000000000000
B0741553248183S11712206EA0153701618000000000000
B0741593248197S11712270EA0154701623000000000000
B0742033248222S11712326EA0155101628000000000000
B0742073248254S11712373EA0155401625000000000000
B0742113248289S11712422EA0154401616000000000000
B0742153248310S11712483EA0153701610000000000000
B0742193248318S11712551EA0152801601000000000000
B0742233248314S11712622EA0151801588000000000000
B0742273248293S11712698EA0150501576000000000000
B0742313248262S11712772EA0149001560000000000000
B0742353248222S11712844EA0147801550000000000000
B0742393248180S11712916EA0147101543000000000000
B0742433248139S11712990EA0146401535000000000000
B0742473248097S11713064EA0145901527000000000000
B0742513248055S11713140EA0145101522000000000000
B0742553248014S11713214EA0144901519000000000000
B0742593247972S11713285EA0144501514000000000000
B0743033247928S11713354EA0143901507000000000000
B0743073247885S11713422EA0143101501000000000000
B0743113247840S11713488EA0142601495000000000000
B0743153247795S11713556EA0142101485000000000000
B0743193247749S11713626EA0140801472000000000000
B0743233247699S11713696EA0139801463000000000000
B0743273247650S11713765EA0138801453000000000000
B0743313247602S11713835EA0138301452000000000000
B0743353247554S11713903EA0138301450000000000000
B0743393247503S11713969EA0137701443000000000000
B0743433247454S11714033EA0137001434000000000000
B0743473247405S11714100EA0136001419000000000000
B0743513247356S11714169EA0134301403000000000000
B0743553247305S11714238EA0133401399000000000000
B0743593247256S11714307EA0133201397000000000000
B0744033247205S11714376EA0132901392000000000000
B0744073247156S11714446EA0132401388000000000000
B0744113247104S11714514EA0131701376000000000000
B0744153247052S11714586EA0130401366000000000000
B0744193247000S11714662EA0129701357000000000000
B0744233246947S11714735EA0129301357000000000000
B0744273246896S11714806EA0129101356000000000000
B0744313246848S11714875EA0130001369000000000000
B0744353246815S11714941EA0132001389000000000000
B0744393246836S11714992EA0134101412000000000000
B0744433246880S11714966EA0136301435000000000000
B0744473246883S11714889EA0137201437000000000000
B0744513246831S11714830EA0138001450000000015000
B0744553246770S11714826EA0139301465000000015000
B0744593246739S11714865EA0140301472000000000000
B0745033246757S11714904EA0141401478000000000000
B0745073246802S11714884EA0142801492000000015000
B0745113246813S11714809EA0143801499000000015000
B0745153246766S11714741EA0144101509000000015000
B0745193246700S11714728EA0145201521000000015000
B0745233246657S11714766EA0146101530000000015000
B0745273246659S11714820EA0146901537000000015000
B0745313246706S11714828EA0148401548000000015000
B0745353246737S11714765EA0149901565000000015000
B0745393246711S11714688EA0151201579000000015000
B0745433246651S11714654EA0152401592000000015000
B0745473246597S11714670EA0152901598000000015000
B0745513246567S11714718EA0153501608000000015000
B0745553246585S11714758EA0155301620000000015000
B0745593246631S11714748EA0156501629000000015000
B0746033246661S11714683EA0157101641000000015000
