ACAM4N6
HFDTE010521
HFFXA050
HFPLTPILOT:JOHN WELSH              
HFGTYGLIDERTYPE:HORNET      
HFGIDGLIDERID:VH-GMY      
HFDTM100GPSDATUM:
HFRFWFIRMWAREVERSION:F2.6
HFRHWHARDWAREVERSION:300 Series Version 2
HFFTYFRTYPE:CAMBRIDGE AERO INSTRUMENTS, 302+
HFGPS:GARMIN,LVS-25,12,18000
HFPRSPRESSALTSENSOR:INTERSEMA, MS5534-AP, 20000
I033638FXA3941ENL4247REX
LCAMSBVER:5FWVER:F26300
C040421052719040421000102
C0000000N00000000WTAKEOFF     
C3207549S11656849EBEVAIR      
C3212499S11757332EBilbarin    
C3112149S11722799EWyalka AF   
C3207549S11656849EBEVAIR      
C0000000N00000000WLANDING     
B0406543207343S11656857EA0013000205000000000000
B0406563207343S11656857EA0013000205000000000000
B0406583207343S11656857EA0013000205000000000000
B0407003207343S11656857EA0013000205000000000000
B0407023207343S11656857EA0013100205000000000000
B0407043207343S11656857EA0013100205000000000000
B0407063207343S11656857EA0013100205000000000000
B0407083207343S11656857EA0013000205000000000000
B0407103207343S11656857EA0013000205000000000000
B0407123207343S11656857EA0013100205000000000000
B0407143207343S11656857EA0013100205000000000000
B0407163207343S11656857EA0013200204000000000000
B0407183207343S11656857EA0013000204000000000000
B0407203207343S11656857EA0013100204000000000000
B0407223207343S11656857EA0013100204000000000000
B0407253207350S11656864EA0013200204000000000000
B0407293207373S11656886EA0013100204000000000000
B0407333207415S11656914EA0013200204000000000000
B0407373207469S11656949EA0013400205000000000000
B0407413207529S11656991EA0014200214000000000000
B0407453207594S11657034EA0014700219000000000000
B0407493207658S11657074EA0015800234000000000000
B0407533207723S11657113EA0017700254000000000000
B0407573207789S11657152EA0019300273000000000000
B0408013207857S11657191EA0021300291000000000000
B0408053207926S11657230EA0022300304000000000000
B0408093207992S11657269EA0024500328000000000000
B0408133208060S11657308EA0026700348000000000000
B0408173208119S11657358EA0028900373000000000000
B0408213208165S11657425EA0031100391000000000000
B0408253208200S11657501EA0032600406000000000000
B0408293208233S11657579EA0034400425000000000000
B0408333208261S11657658EA0035900445000000000000
B0408373208287S11657737EA0038400465000000000000
B0408413208311S11657816EA0039900485000000000000
B0408453208335S11657897EA0042200503000000000000
B0408493208355S11657976EA0044000521000000000000
B0408533208374S11658056EA0045300536000000000000
B0408573208392S11658134EA0046700550000000000000
B0409013208409S11658214EA0048000561000000000000
B0409053208425S11658292EA0049600585000000000000
B0409093208441S11658370EA0052100605000000000000
B0409133208433S11658448EA0054400633000000000000
B0409173208392S11658511EA0057100658000000000000
B0409213208350S11658563EA0059000665000000000000
B0409253208366S11658635EA0058600656000000015000
B0409293208434S11658646EA0058800666000000015000
B0409333208467S11658580EA0060200676000000030000
B0409373208425S11658525EA0061300687000000045000
B0409413208369S11658544EA0062400697000000045000
B0409453208361S11658609EA0062900705000000030000
B0409493208411S11658641EA0063900719000000030000
B0409533208457S11658611EA0065000726000000030000
B0409573208460S11658548EA0065500731000000030000
B0410013208412S11658512EA0065700734000000030000
B0410053208361S11658538EA0066400745000000015000
B0410093208356S11658596EA0066900742000000015000
B0410133208396S11658647EA0066700744000000015000
B0410173208455S11658643EA0067800755000000045000
B0410213208476S11658582EA0068800762000000045000
B0410253208441S11658529EA0069600774000000030000
B0410293208386S11658535EA0070300784000000015000
B0410333208366S11658593EA0070800784000000015000
B0410373208399S11658647EA0071100791000000015000
B0410413208454S11658661EA0072000799000000015000
B0410453208482S11658608EA0072700805000000030000
B0410493208444S11658561EA0073700813000000045000
B0410533208398S11658591EA0074600823000000030000
B0410573208415S11658651EA0075800839000000030000
B0411013208469S11658651EA0077000846000000030000
B0411053208498S11658595EA0077800852000000030000
B0411093208470S11658538EA0078300858000000045000
B0411133208415S11658539EA0079300874000000030000
B0411173208395S11658598EA0080500881000000030000
B0411213208435S11658646EA0081100883000000045000
B0411253208495S11658626EA0081600889000000045000
B0411293208509S11658560EA0082500899000000045000
B0411333208467S11658511EA0083700911000000030000
B0411373208409S11658526EA0084500921000000015000
B0411413208400S11658593EA0085200926000000015000
B0411453208456S11658626EA0085600930000000030000
B0411493208508S11658580EA0085800935000000030000
B0411533208498S11658504EA0087000946000000015000
B0411573208441S11658477EA0088300958000000030000
B0412013208405S11658525EA0089600969000000015000
B0412053208433S11658580EA0090500978000000030000
B0412093208489S11658576EA0091200986000000030000
B0412133208504S11658513EA0092401004000000030000
B0412173208461S11658476EA0093501012000000015000
B0412213208416S11658505EA0093901015000000015000
B0412253208425S11658570EA0094501022000000030000
B0412293208481S11658582EA0095301031000000030000
B0412333208503S11658525EA0096801049000000030000
B0412373208467S11658482EA0097901057000000030000
B0412413208418S11658507EA0098101058000000030000
B0412453208412S11658573EA0098401061000000045000
B0412493208456S11658624EA0099401070000000045000
B0412533208519S11658619EA0100401077000000045000
B0412573208552S11658555EA0101301091000000030000
B0413013208530S11658490EA0102001100000000045000
B0413053208470S11658481EA0102601103000000030000
B0413093208431S11658539EA0103001106000000030000
B0413133208454S11658615EA0103701115000000030000
B0413173208513S11658633EA0105401128000000030000
B0413213208555S11658583EA0107101144000000030000
B0413253208530S11658528EA0108201156000000030000
B0413293208473S11658538EA0109101168000000015000
B0413333208448S11658603EA0110401184000000015000
B0413373208480S11658663EA0112501207000000015000
B0413413208538S11658669EA0114201221000000015000
B0413453208576S11658613EA0114801225000000015000
B0413493208555S11658551EA0115801235000000030000
B0413533208502S11658546EA0117101249000000030000
B0413573208473S11658604EA0118301262000000015000
B0414013208507S11658664EA0119501274000000015000
B0414053208571S11658656EA0121001286000000015000
B0414093208600S11658595EA0122001292000000030000
B0414133208571S11658534EA0122601299000000030000
B0414173208511S11658538EA0123501314000000015000
B0414213208486S11658604EA0125001332000000015000
B0414253208522S11658664EA0126401351000000015000
B0414293208586S11658661EA0128201366000000015000
B0414333208620S11658600EA0129601373000000015000
B0414373208594S11658539EA0130101378000000015000
B0414413208543S11658541EA0131101398000000015000
B0414453208530S11658606EA0132701408000000015000
B0414493208578S11658655EA0133601416000000015000
B0414533208641S11658630EA0134801427000000015000
B0414573208655S11658560EA0135801436000000030000
B0415013208613S11658511EA0136201439000000015000
B0415053208554S11658528EA0136601448000000015000
B0415093208522S11658595EA0137501459000000015000
B0415133208546S11658663EA0139601487000000015000
B0415173208603S11658676EA0142101501000000015000
B0415213208641S11658624EA0143001508000000015000
B0415253208619S11658560EA0143701515000000030000
B0415293208564S11658560EA0144701528000000015000
B0415333208537S11658621EA0145501537000000015000
B0415373208560S11658686EA0146901550000000015000
B0415413208619S11658708EA0148001557000000030000
B0415453208672S11658668EA0149401572000000030000
B0415493208681S11658599EA0150301580000000030000
B0415533208645S11658547EA0150801581000000030000
B0415573208587S11658556EA0150901583000000015000
B0416013208559S11658622EA0151101584000000030000
B0416053208584S11658698EA0151801590000000030000
B0416093208649S11658736EA0152701602000000030000
B0416133208717S11658716EA0154001616000000030000
B0416173208751S11658646EA0154601620000000030000
B0416213208733S11658570EA0154501614000000015000
B0416253208668S11658541EA0153501608000000015000
B0416293208608S11658586EA0153501618000000000000
B0416333208595S11658668EA0154401623000000000000
B0416373208628S11658746EA0155001628000000000000
B0416413208698S11658786EA0155501633000000015000
B0416453208779S11658780EA0156001638000000015000
B0416493208837S11658721EA0157101651000000015000
B0416533208847S11658639EA0157601653000000015000
B0416573208812S11658573EA0157501651000000000000
B0417013208753S11658554EA0157301647000000000000
B0417053208702S11658595EA0157301649000000000000
B0417093208690S11658669EA0158001652000000000000
B0417133208724S11658738EA0158101652000000000000
B0417173208797S11658760EA0158301652000000000000
B0417213208868S11658720EA0158201648000000015000
B0417253208897S11658633EA0157901647000000015000
B0417293208889S11658544EA0157701647000000030000
B0417333208859S11658463EA0156801644000000030000
B0417373208818S11658388EA0156401639000000030000
B0417413208773S11658317EA0156001636000000030000
B0417453208727S11658249EA0156101633000000030000
B0417493208673S11658186EA0155701631000000030000
B0417533208616S11658123EA0155001625000000030000
B0417573208559S11658057EA0155001626000000015000
B0418013208503S11657987EA0154901623000000015000
B0418053208451S11657913EA0154301614000000015000
B0418093208398S11657833EA0153001599000000000000
B0418133208342S11657753EA0151901589000000000000
B0418173208285S11657673EA0151501587000000000000
B0418213208229S11657602EA0152101597000000000000
B0418253208174S11657530EA0152401591000000000000
B0418293208119S11657455EA0151601586000000000000
B0418333208065S11657378EA0151401584000000000000
B0418373208010S11657304EA0151201583000000000000
B0418413207954S11657231EA0150801576000000000000
B0418453207895S11657156EA0148801549000000000000
B0418493207828S11657074EA0146401529000000000000
B0418533207761S11656988EA0145501524000000000000
B0418573207697S11656905EA0145201523000000000000
B0419013207635S11656825EA0145301524000000000000
B0419053207573S11656753EA0145101523000000000000
B0419093207515S11656683EA0144901521000000000000
B0419133207458S11656615EA0144701519000000000000
B0419173207401S11656552EA0144201515000000000000
B0419213207343S11656488EA0143701512000000000000
B0419253207284S11656433EA0143701509000000000000
B0419293207216S11656428EA0144001514000000000000
B0419333207193S11656489EA0144401518000000000000
B0419373207219S11656555EA0143801510000000030000
B0419413207263S11656614EA0142701499000000165000
B0419453207319S11656671EA0141201488000000105000
B0419493207369S11656747EA0139801466000000030000
B0419533207403S11656834EA0139001459000000030000
B0419573207442S11656913EA0139101456000000045000
B0420013207490S11656978EA0139101454000000045000
B0420053207558S11657014EA0138501453000000045000
B0420093207627S11657049EA0137601446000000030000
B0420133207693S11657095EA0136501440000000030000
B0420173207757S11657156EA0134801432000000030000
B0420213207818S11657230EA0132501418000000030000
B0420253207879S11657311EA0130901411000000030000
B0420293207940S11657391EA0130401406000000030000
B0420333207997S11657473EA0129701402000000045000
B0420373208051S11657553EA0128601397000000045000
B0420413208113S11657625EA0127201390000000030000
B0420453208182S11657697EA0126201385000000030000
B0420493208251S11657766EA0124701381000000030000
B0420533208320S11657836EA0123801376000000030000
B0420573208385S11657911EA0123101372000000030000
B0421013208446S11657989EA0122401368000000045000
B0421053208507S11658069EA0121701365015000045000
B0421093208567S11658138EA0121801362015000045000
B0421133208630S11658204EA0121401347000000045000
B0421173208699S11658274EA0120601327000000045000
B0421213208758S11658356EA0119201317000000045000
B0421253208806S11658451EA0119401311000000045000
B0421293208846S11658550EA0120101310000000045000
B0421333208883S11658648EA0121001307000000030000
B0421373208915S11658746EA0121401303000000030000
B0421413208948S11658846EA0120801287000000015000
B0421453208976S11658947EA0120301282000000015000
B0421493209003S11659050EA0119401262000000015000
B0421533209035S11659154EA0118301246000000015000
B0421573209067S11659266EA0114801197000000015000
B0422013209104S11659387EA0112501186000000015000
B0422053209137S11659512EA0111401173000000015000
B0422093209167S11659639EA0110401165000000015000
B0422133209187S11659768EA0109701159000000045000
B0422173209183S11659891EA0110601171000000045000
B0422213209184S11659987EA0113701210000000045000
B0422253209217S11700054EA0116501220000000030000
B0422293209184S11700117EA0116101213000000030000
B0422333209106S11700101EA0115901224000000030000
B0422373209061S11700025EA0117001237000000075000
B0422413209059S11659933EA0118001244000000075000
B0422453209098S11659856EA0118501253000000105000
B0422493209163S11659811EA0118501252000000045000
B0422533209239S11659796EA0118301250000000045000
B0422573209314S11659815EA0118401249000000045000
B0423013209377S11659863EA0119101257000000030000
B0423053209432S11659919EA0119101258000000030000
B0423093209488S11659982EA0117901250000000030000
B0423133209533S11700073EA0115801229000000045000
B0423173209569S11700180EA0114201216000000030000
B0423213209599S11700288EA0114201212000000030000
B0423253209624S11700388EA0114501214000000030000
B0423293209647S11700491EA0113001204000000030000
B0423333209672S11700595EA0112301196000000030000
B0423373209698S11700700EA0111001190000000030000
B0423413209724S11700805EA0110401182000000030000
B0423453209744S11700909EA0111001180000000045000
B0423493209763S11701008EA0111501186000000045000
B0423533209780S11701109EA0110701178000000030000
B0423573209799S11701211EA0109801171000000030000
B0424013209820S11701311EA0109701168000000045000
B0424053209839S11701412EA0110201167000000045000
B0424093209864S11701502EA0112601171000000045000
B0424133209889S11701581EA0114601185000000030000
B0424173209934S11701648EA0114601189000000030000
B0424213210011S11701649EA0114901199000000030000
B0424253210068S11701596EA0116101213000000030000
B0424293210053S11701525EA0117301234000000030000
B0424333209993S11701527EA0117701241000000015000
B0424373209967S11701593EA0117901246000000030000
B0424413209984S11701667EA0118101250000000030000
B0424453210047S11701714EA0118101249000000030000
B0424493210128S11701727EA0119501260000000030000
B0424533210162S11701670EA0121901264000000045000
B0424573210125S11701622EA0122901278000000030000
B0425013210073S11701640EA0123101282000000030000
B0425053210058S11701709EA0123401292000000030000
B0425093210110S11701745EA0124601313000000030000
B0425133210136S11701683EA0126001325000000030000
B0425173210092S11701642EA0126901336000000030000
B0425213210047S11701687EA0127101342000000030000
B0425253210066S11701761EA0127901351000000030000
B0425293210132S11701783EA0129001359000000030000
B0425333210184S11701732EA0129701365000000030000
B0425373210176S11701655EA0130401376000000030000
B0425413210123S11701619EA0131301383000000030000
B0425453210066S11701645EA0132001388000000030000
B0425493210072S11701715EA0133501404000000030000
B0425533210132S11701706EA0134701417000000030000
B0425573210145S11701640EA0136101430000000045000
B0426013210103S11701599EA0136701436000000045000
B0426053210051S11701627EA0136801437000000030000
B0426093210043S11701698EA0137001444000000060000
B0426133210097S11701735EA0137501447000000075000
B0426173210149S11701689EA0138101456000000105000
B0426213210137S11701624EA0139601464000000090000
B0426253210082S11701611EA0140001463000000075000
B0426293210040S11701670EA0139501455000000060000
B0426333210040S11701753EA0139501454000000045000
B0426373210081S11701831EA0138901450000000060000
B0426413210137S11701898EA0135701439000000060000
B0426453210220S11701958EA0132701427000000060000
B0426493210322S11702014EA0132201423000000060000
B0426533210423S11702070EA0131101414000000090000
B0426573210527S11702121EA0130301406000000090000
B0427013210632S11702169EA0129301394000000135000
B0427053210734S11702221EA0129601399000000195000
B0427093210839S11702273EA0129201385000000150000
B0427133210930S11702342EA0128001361000000060000
B0427173211011S11702415EA0127301355000000060000
B0427213211091S11702490EA0126201346000000060000
B0427253211169S11702568EA0126101341000000045000
B0427293211250S11702645EA0124901320000000030000
B0427333211333S11702721EA0123301310000000030000
B0427373211407S11702814EA0122501304000000030000
B0427413211477S11702907EA0123801302000000045000
B0427453211527S11703000EA0125201303000000045000
B0427493211561S11703093EA0125601306000000045000
B0427533211597S11703183EA0125801308000000060000
B0427573211614S11703282EA0126301316000000045000
B0428013211637S11703377EA0126601318000000045000
B0428053211662S11703470EA0127401317000000045000
B0428093211691S11703560EA0128601320000000060000
B0428133211726S11703643EA0128901328000000045000
B0428173211759S11703734EA0128301330000000045000
B0428213211791S11703830EA0127501323000000045000
B0428253211822S11703929EA0126701322000000030000
B0428293211856S11704028EA0126701329000000030000
B0428333211886S11704127EA0127101333000000030000
B0428373211926S11704222EA0127701343000000015000
B0428413211966S11704316EA0128101342000000015000
B0428453212001S11704414EA0127901342000000015000
B0428493212030S11704518EA0127001333000000015000
B0428533212044S11704627EA0127501339000000015000
B0428573212051S11704734EA0128301344000000015000
B0429013212051S11704840EA0127701338000000015000
B0429053212045S11704950EA0126701329000000015000
B0429093212042S11705063EA0124901319000000015000
B0429133212039S11705177EA0123501304000000015000
B0429173212039S11705290EA0122401294000000015000
B0429213212043S11705405EA0121201282000000015000
B0429253212052S11705518EA0120801280000000015000
B0429293212065S11705628EA0120201277000000015000
B0429333212078S11705739EA0120201274000000015000
B0429373212087S11705848EA0120601272000000015000
B0429413212091S11705951EA0122001278000000015000
B0429453212097S11706045EA0124101287000000015000
B0429493212107S11706130EA0126101293000000030000
B0429533212153S11706186EA0127201306000000030000
B0429573212205S11706153EA0128301322000000030000
B0430013212190S11706092EA0128901330000000045000
B0430053212131S11706081EA0128801339000000030000
B0430093212082S11706129EA0129501347000000045000
B0430133212091S11706204EA0130701359000000045000
B0430173212147S11706209EA0131701369000000045000
B0430213212161S11706148EA0132101377000000045000
B0430253212117S11706108EA0132401387000000030000
B0430293212065S11706140EA0133201395000000045000
B0430333212064S11706217EA0133801401000000045000
B0430373212114S11706261EA0134101404000000045000
B0430413212164S11706229EA0134701413000000060000
B0430453212168S11706162EA0135201415000000045000
B0430493212127S11706107EA0135101415000000030000
B0430533212062S11706082EA0135201417000000015000
B0430573212023S11706140EA0136501428000000030000
B0431013212052S11706211EA0137201430000000015000
B0431053212114S11706227EA0137001431000000015000
B0431093212174S11706199EA0137301437000000015000
B0431133212207S11706134EA0137601441000000030000
B0431173212182S11706065EA0137901448000000030000
B0431213212118S11706055EA0138701462000000015000
B0431253212079S11706112EA0140401479000000015000
B0431293212091S11706179EA0141201479000000015000
B0431333212144S11706220EA0140901475000000015000
B0431373212204S11706196EA0141501485000000015000
B0431413212224S11706131EA0142101491000000015000
B0431453212188S11706073EA0142101490000000015000
B0431493212123S11706070EA0142101493000000015000
B0431533212071S11706125EA0142401495000000015000
B0431573212049S11706211EA0141901483000000015000
B0432013212040S11706311EA0139901470000000015000
B0432053212029S11706419EA0138801458000000015000
B0432093212010S11706525EA0138201453000000015000
B0432133211986S11706630EA0137301442000000015000
B0432173211960S11706736EA0135601426000000015000
B0432213211936S11706842EA0134701418000000015000
B0432253211912S11706945EA0134101415000000015000
B0432293211888S11707046EA0133501412000000015000
B0432333211865S11707141EA0134001419000000015000
B0432373211843S11707231EA0134401418000000015000
B0432413211827S11707321EA0134501422000000015000
B0432453211808S11707408EA0135401431000000015000
B0432493211785S11707492EA0136601437000000015000
B0432533211800S11707572EA0138401452000000015000
B0432573211858S11707559EA0140501477000000030000
B0433013211853S11707495EA0141001474000000030000
B0433053211795S11707466EA0140101467000000030000
B0433093211726S11707488EA0140101471000000045000
B0433133211671S11707548EA0140501477000000030000
B0433173211644S11707633EA0140801482000000030000
B0433213211632S11707728EA0140101479000000030000
B0433253211631S11707834EA0138701470000000030000
B0433293211633S11707941EA0138101464000000015000
B0433333211642S11708049EA0137401456000000015000
B0433373211652S11708154EA0136901448000000015000
B0433413211662S11708261EA0136001434000000015000
B0433453211674S11708367EA0134701420000000015000
B0433493211688S11708473EA0133101406000000015000
B0433533211705S11708575EA0132501400000000015000
B0433573211719S11708675EA0132201396000000000000
B0434013211732S11708773EA0131601390000000000000
B0434053211744S11708868EA0131201386000000000000
B0434093211750S11708963EA0130301374000000000000
B0434133211756S11709061EA0129301364000000000000
B0434173211758S11709160EA0128301356000000000000
B0434213211761S11709263EA0127501345000000000000
B0434253211770S11709364EA0127001341000000000000
B0434293211792S11709464EA0126701338000000000000
B0434333211826S11709561EA0126101334000000000000
B0434373211861S11709658EA0125801332000000000000
B0434413211893S11709752EA0126801334000000015000
B0434453211930S11709834EA0129501347000000015000
B0434493211977S11709903EA0132001376000000015000
B0434533212044S11709895EA0134601404000000015000
B0434573212055S11709825EA0135701413000000015000
B0435013212003S11709782EA0135701417000000015000
B0435053211939S11709801EA0135901425000000015000
B0435093211904S11709866EA0138101456000000015000
B0435133211892S11709938EA0139001452000000015000
B0435173211904S11710020EA0137001430000000015000
B0435213211932S11710108EA0134301424000000030000
B0435253211977S11710200EA0132201400000000015000
B0435293212022S11710289EA0131701396000000015000
B0435333212065S11710376EA0131801396000000015000
B0435373212103S11710465EA0132101399000000015000
B0435413212146S11710547EA0132801406000000015000
B0435453212192S11710631EA0133101407000000015000
B0435493212248S11710698EA0135101422000000015000
B0435533212312S11710672EA0137201445000000015000
B0435573212317S11710595EA0138901462000000015000
B0436013212276S11710549EA0140101475000000015000
B0436053212217S11710559EA0140601482000000015000
B0436093212182S11710618EA0141201490000000015000
B0436133212194S11710694EA0142301502000000015000
B0436173212248S11710736EA0143501513000000015000
B0436213212311S11710725EA0143701505000000015000
B0436253212352S11710666EA0143101506000000015000
B0436293212341S11710593EA0143501511000000015000
B0436333212287S11710555EA0144201520000000015000
B0436373212225S11710549EA0144801523000000015000
B0436413212165S11710577EA0145501533000000015000
B0436453212118S11710640EA0146201539000000015000
B0436493212109S11710714EA0147501557000000015000
B0436533212162S11710733EA0149101566000000015000
B0436573212198S11710676EA0149501570000000015000
B0437013212168S11710616EA0150501583000000015000
B0437053212107S11710615EA0151301589000000015000
B0437093212073S11710675EA0152101598000000015000
B0437133212088S11710746EA0153001607000000015000
B0437173212143S11710785EA0154001618000000015000
B0437213212201S11710772EA0154801620000000015000
B0437253212237S11710712EA0154301611000000015000
B0437293212226S11710637EA0154201616000000015000
B0437333212170S11710602EA0155101628000000015000
B0437373212109S11710624EA0155701627000000015000
B0437413212055S11710680EA0155101616000000015000
B0437453211997S11710750EA0154101607000000000000
B0437493211938S11710827EA0153301599000000000000
B0437533211875S11710906EA0152101587000000000000
B0437573211811S11710988EA0150901573000000000000
B0438013211748S11711073EA0149401560000000000000
B0438053211688S11711158EA0148501555000000000000
B0438093211628S11711243EA0148201549000000000000
B0438133211568S11711322EA0148001553000000000000
B0438173211509S11711400EA0148001551000000000000
B0438213211454S11711478EA0147801551000000000000
B0438253211402S11711555EA0147601549000000000000
B0438293211354S11711632EA0148001556000000000000
B0438333211311S11711707EA0149101565000000000000
B0438373211269S11711784EA0149701571000000000000
B0438413211230S11711860EA0150301574000000000000
B0438453211190S11711937EA0150501574000000000000
B0438493211146S11712014EA0150301571000000000000
B0438533211102S11712092EA0149901570000000000000
B0438573211052S11712166EA0149801568000000000000
B0439013211002S11712235EA0150201577000000000000
B0439053210951S11712302EA0151101583000000000000
B0439093210899S11712366EA0151501585000000000000
B0439133210846S11712430EA0151001579000000000000
B0439173210786S11712495EA0149301559000000000000
B0439213210723S11712562EA0148301552000000000000
B0439253210661S11712627EA0148001552000000000000
B0439293210601S11712691EA0147901549000000000000
B0439333210544S11712753EA0147301545000000000000
B0439373210487S11712813EA0147001542000000000000
B0439413210430S11712870EA0146401534000000000000
B0439453210368S11712929EA0145701530000000000000
B0439493210310S11712989EA0145501526000000000000
B0439533210251S11713054EA0144801515000000000000
B0439573210193S11713121EA0144501519000000000000
B0440013210136S11713189EA0144801519000000000000
B0440053210079S11713255EA0145401538000000000000
B0440093210046S11713327EA0148101560000000000000
B0440133210084S11713384EA0149901573000000000000
B0440173210137S11713354EA0150401576000000000000
B0440213210144S11713284EA0150301572000000000000
B0440253210103S11713231EA0150201576000000000000
B0440293210042S11713224EA0151101586000000000000
B0440333209993S11713264EA0151701587000000000000
B0440373209981S11713340EA0151301584000000000000
B0440413210021S11713398EA0151501590000000000000
B0440453210082S11713393EA0152101594000000015000
B0440493210112S11713332EA0152101588000000015000
B0440533210086S11713260EA0151601587000000015000
B0440573210032S11713208EA0151801590000000015000
B0441013209964S11713172EA0151701588000000000000
B0441053209894S11713142EA0151101580000000000000
B0441093209822S11713119EA0150601576000000000000
B0441133209752S11713097EA0150401574000000000000
B0441173209682S11713075EA0149601565000000000000
B0441213209613S11713058EA0148901560000000000000
B0441253209544S11713043EA0148701558000000000000
B0441293209477S11713033EA0148401555000000000000
B0441333209409S11713024EA0147701547000000000000
B0441373209343S11713016EA0147001540000000000000
B0441413209274S11713012EA0146401535000000000000
B0441453209202S11713003EA0145701529000000000000
B0441493209128S11712985EA0145001520000000000000
B0441533209058S11712955EA0144701518000000000000
B0441573208989S11712917EA0144401512000000000000
B0442013208918S11712882EA0143401499000000000000
B0442053208844S11712846EA0141501480000000000000
B0442093208767S11712809EA0139701464000000000000
B0442133208689S11712777EA0138601457000000000000
B0442173208613S11712746EA0138201454000000000000
B0442213208541S11712714EA0137401444000000000000
B0442253208465S11712683EA0136601437000000000000
B0442293208389S11712657EA0136301435000000000000
B0442333208314S11712631EA0136001431000000000000
B0442373208243S11712610EA0136401440000000000000
B0442413208175S11712596EA0136801442000000000000
B0442453208108S11712581EA0136201432000000000000
B0442493208040S11712564EA0136601443000000000000
B0442533207978S11712553EA0137301448000000000000
B0442573207913S11712544EA0137701455000000000000
B0443013207849S11712543EA0139001470000000000000
B0443053207798S11712581EA0140501481000000000000
B0443093207814S11712646EA0141901495000000000000
B0443133207870S11712642EA0142801505000000000000
B0443173207893S11712582EA0143301515000000000000
B0443213207865S11712527EA0144801530000000015000
B0443253207811S11712514EA0146101543000000015000
B0443293207770S11712556EA0147401551000000015000
B0443333207772S11712623EA0148201559000000015000
B0443373207819S11712656EA0149001567000000015000
B0443413207869S11712629EA0149701573000000015000
B0443453207884S11712568EA0150601581000000015000
B0443493207852S11712510EA0151001582000000015000
B0443533207788S11712497EA0151601593000000015000
B0443573207739S11712542EA0152701608000000015000
B0444013207740S11712609EA0153801613000000015000
B0444053207788S11712644EA0154401616000000015000
B0444093207841S11712620EA0154701622000000015000
B0444133207857S11712555EA0155501629000000015000
B0444173207811S11712509EA0156101634000000015000
B0444213207750S11712535EA0156601638000000015000
B0444253207744S11712609EA0157101645000000015000
B0444293207793S11712647EA0157801650000000015000
B0444333207848S11712614EA0158201656000000015000
B0444373207858S11712545EA0159101665000000015000
B0444413207824S11712477EA0158801656000000015000
B0444453207767S11712415EA0158101651000000000000
B0444493207701S11712354EA0157301642000000000000
B0444533207628S11712295EA0156701639000000000000
B0444573207553S11712236EA0156201631000000000000
B0445013207475S11712175EA0155501626000000000000
B0445053207395S11712113EA0154601613000000000000
B0445093207316S11712049EA0153301603000000000000
B0445133207238S11711981EA0152801599000000000000
B0445173207165S11711912EA0152701597000000000000
B0445213207094S11711842EA0152201591000000000000
B0445253207022S11711771EA0151601584000000000000
B0445293206949S11711700EA0150601575000000000000
B0445333206879S11711630EA0150201575000000000000
B0445373206812S11711565EA0150601579000000000000
B0445413206748S11711500EA0150501577000000000000
B0445453206684S11711437EA0149901570000000000000
B0445493206618S11711373EA0149201560000000000000
B0445533206549S11711313EA0148601560000000000000
B0445573206478S11711260EA0148401558000000000000
B0446013206407S11711209EA0148301557000000000000
B0446053206338S11711162EA0148101554000000000000
B0446093206267S11711121EA0147301543000000000000
B0446133206189S11711096EA0146201534000000000000
B0446173206112S11711066EA0145301524000000000000
B0446213206041S11711022EA0144501517000000000000
B0446253205976S11710969EA0144101510000000000000
B0446293205915S11710906EA0143201501000000000000
B0446333205857S11710842EA0142501494000000000000
B0446373205803S11710779EA0141901490000000000000
B0446413205750S11710715EA0141101482000000000000
B0446453205695S11710651EA0140001471000000000000
B0446493205639S11710588EA0139601469000000000000
B0446533205583S11710529EA0139401470000000000000
B0446573205523S11710478EA0139401464000000000000
B0447013205461S11710424EA0138301452000000000000
B0447053205402S11710359EA0137301444000000000000
B0447093205347S11710289EA0136501436000000000000
B0447133205292S11710217EA0136001434000000000000
B0447173205237S11710148EA0136001435000000000000
B0447213205183S11710079EA0135701430000000000000
B0447253205129S11710008EA0135001421000000000000
B0447293205076S11709934EA0133501406000000000000
B0447333205020S11709858EA0132901399000000000000
B0447373204962S11709788EA0132001391000000000000
B0447413204905S11709718EA0131301386000000000000
B0447453204851S11709649EA0130801381000000000000
B0447493204798S11709580EA0131201387000000000000
B0447533204745S11709518EA0131301388000000000000
B0447573204689S11709461EA0131701394000000000000
B0448013204628S11709410EA0132501399000000000000
B0448053204563S11709375EA0133401413000000000000
B0448093204499S11709359EA0135101428000000000000
B0448133204438S11709385EA0135901438000000000000
B0448173204429S11709453EA0136801448000000000000
B0448213204482S11709475EA0137301445000000000000
B0448253204528S11709423EA0136601437000000000000
B0448293204526S11709345EA0136201439000000000000
B0448333204490S11709276EA0136901447000000000000
B0448373204431S11709256EA0138401463000000000000
B0448413204399S11709311EA0139301468000000000000
B0448453204433S11709359EA0139601470000000015000
B0448493204485S11709334EA0140001478000000015000
B0448533204492S11709272EA0140801485000000015000
B0448573204466S11709211EA0141201486000000000000
B0449013204417S11709184EA0141301486000000000000
B0449053204366S11709211EA0141001483000000000000
B0449093204355S11709273EA0141001485000000000000
B0449133204385S11709329EA0141001480000000000000
B0449173204442S11709357EA0140301475000000000000
B0449213204508S11709363EA0140401479000000000000
B0449253204561S11709327EA0141901496000000000000
B0449293204555S11709260EA0143701514000000000000
B0449333204504S11709251EA0144901525000000000000
B0449373204479S11709306EA0145301526000000000000
B0449413204511S11709360EA0145601530000000000000
B0449453204569S11709372EA0146001533000000000000
B0449493204619S11709336EA0146301542000000015000
B0449533204634S11709269EA0147401557000000015000
B0449573204603S11709217EA0148901568000000000000
B0450013204552S11709224EA0149901575000000000000
B0450053204550S11709288EA0150201574000000000000
B0450093204606S11709320EA0150301580000000000000
B0450133204659S11709282EA0151701596000000015000
B0450173204665S11709216EA0153001605000000015000
B0450213204625S11709173EA0153901619000000015000
B0450253204569S11709185EA0155001626000000015000
B0450293204538S11709243EA0155101623000000015000
B0450333204559S11709316EA0154501618000000015000
B0450373204621S11709354EA0154801627000000015000
B0450413204684S11709333EA0156001639000000015000
B0450453204710S11709271EA0156801646000000015000
B0450493204678S11709208EA0156901640000000015000
B0450533204612S11709189EA0156601647000000015000
B0450573204544S11709190EA0157501653000000015000
B0451013204472S11709197EA0156501634000000015000
B0451053204390S11709202EA0154901620000000000000
B0451093204305S11709208EA0154301612000000000000
B0451133204217S11709212EA0153601605000000000000
B0451173204130S11709215EA0153301602000000000000
B0451213204040S11709220EA0151701583000000000000
B0451253203949S11709220EA0150401571000000000000
B0451293203859S11709215EA0149701569000000000000
B0451333203771S11709210EA0150201576000000000000
B0451373203688S11709208EA0151401590000000000000
B0451413203608S11709204EA0151901592000000000000
B0451453203529S11709202EA0152001596000000000000
B0451493203449S11709199EA0152601600000000000000
B0451533203367S11709193EA0152801601000000000000
B0451573203285S11709188EA0153201606000000000000
B0452013203202S11709189EA0152901601000000000000
B0452053203117S11709191EA0152301591000000000000
B0452093203026S11709193EA0149901565000000000000
B0452133202929S11709190EA0148001549000000000000
B0452173202831S11709185EA0147301544000000000000
B0452213202736S11709176EA0147001539000000000000
B0452253202645S11709163EA0146301531000000000000
B0452293202554S11709149EA0145501525000000000000
B0452333202464S11709136EA0144901518000000000000
B0452373202372S11709124EA0144001508000000000000
B0452413202282S11709111EA0143201502000000000000
B0452453202194S11709098EA0143001500000000000000
B0452493202107S11709082EA0142101492000000000000
B0452533202021S11709058EA0141501485000000000000
B0452573201942S11709025EA0141401487000000000000
B0453013201866S11708987EA0141501487000000000000
B0453053201794S11708948EA0141701493000000000000
B0453093201725S11708903EA0142001492000000000000
B0453133201655S11708863EA0141801493000000000000
B0453173201584S11708830EA0142001494000000000000
B0453213201515S11708798EA0141801491000000000000
B0453253201444S11708760EA0141201484000000000000
B0453293201372S11708718EA0140601478000000000000
B0453333201305S11708671EA0140101473000000000000
B0453373201239S11708621EA0139801469000000000000
B0453413201171S11708571EA0140201480000000000000
B0453453201098S11708561EA0142101498000000000000
B0453493201064S11708627EA0143601513000000000000
B0453533201094S11708690EA0144401518000000000000
B0453573201153S11708699EA0144401515000000000000
B0454013201206S11708664EA0144301516000000015000
B0454053201240S11708601EA0144701525000000015000
B0454093201253S11708532EA0145501533000000000000
B0454133201216S11708475EA0146201542000000000000
B0454173201155S11708475EA0147201555000000000000
B0454213201125S11708534EA0148401563000000015000
B0454253201153S11708588EA0149501579000000015000
B0454293201203S11708575EA0150601584000000015000
B0454333201214S11708512EA0151401596000000015000
B0454373201164S11708475EA0152701604000000015000
B0454413201105S11708504EA0153101606000000015000
B0454453201085S11708577EA0153201610000000015000
B0454493201124S11708632EA0154301623000000015000
B0454533201183S11708634EA0155001628000000015000
B0454573201218S11708579EA0155701640000000015000
B0455013201192S11708519EA0157001647000000015000
B0455053201124S11708521EA0157001645000000015000
B0455093201064S11708580EA0156601634000000015000
B0455133201024S11708669EA0155401623000000015000
B0455173200992S11708768EA0154301611000000015000
B0455213200959S11708872EA0153301604000000000000
B0455253200927S11708974EA0152701601000000000000
B0455293200901S11709074EA0152201595000000000000
B0455333200875S11709178EA0150301570000000000000
B0455373200847S11709286EA0149701575000000000000
B0455413200817S11709389EA0150301580000000000000
B0455453200790S11709487EA0151201591000000000000
B0455493200773S11709579EA0152501606000000000000
B0455533200752S11709670EA0152801601000000000000
B0455573200709S11709757EA0151801589000000000000
B0456013200650S11709835EA0150101570000000000000
B0456053200582S11709910EA0148401559000000000000
B0456093200513S11709981EA0147901552000000000000
B0456133200443S11710049EA0147401553000000000000
B0456173200378S11710113EA0147801554000000000000
B0456213200314S11710174EA0147401548000000000000
B0456253200251S11710238EA0146501536000000000000
B0456293200186S11710300EA0145301523000000000000
B0456333200122S11710365EA0144301517000000000000
B0456373200059S11710426EA0144101513000000000000
B0456413159998S11710489EA0143801515000000000000
B0456453159941S11710555EA0144401519000000000000
B0456493159884S11710620EA0144401520000000000000
B0456533159827S11710684EA0145201533000000000000
B0456573159775S11710748EA0145901532000000000000
B0457013159725S11710819EA0145301530000000000000
B0457053159685S11710894EA0146501544000000000000
B0457093159673S11710975EA0147901557000000000000
B0457133159724S11711018EA0149601571000000000000
B0457173159777S11710978EA0150301577000000015000
B0457213159789S11710902EA0151001585000000015000
B0457253159759S11710829EA0151301586000000015000
B0457293159697S11710796EA0151501589000000015000
B0457333159633S11710818EA0151801595000000015000
B0457373159615S11710880EA0153301614000000015000
B0457413159649S11710931EA0154201618000000015000
B0457453159708S11710930EA0154901626000000015000
B0457493159747S11710876EA0155801634000000015000
B0457533159749S11710802EA0155701628000000015000
B0457573159711S11710735EA0155201627000000015000
B0458013159649S11710696EA0155601631000000015000
B0458053159582S11710662EA0155301628000000000000
B0458093159510S11710624EA0154701617000000000000
B0458133159433S11710585EA0153301599000000000000
B0458173159351S11710542EA0151901588000000000000
B0458213159268S11710499EA0152001595000000000000
B0458253159188S11710460EA0152701599000000000000
B0458293159112S11710424EA0153301609000000000000
B0458333159036S11710390EA0153801609000000000000
B0458373158958S11710364EA0154001612000000000000
B0458413158878S11710337EA0153501602000000000000
B0458453158798S11710303EA0152701599000000000000
B0458493158720S11710265EA0152101590000000000000
B0458533158645S11710213EA0151101577000000000000
B0458573158575S11710146EA0149901568000000000000
B0459013158514S11710064EA0148801554000000000000
B0459053158466S11709969EA0147501543000000000000
B0459093158431S11709866EA0147201543000000000000
B0459133158406S11709762EA0146901540000000000000
B0459173158390S11709657EA0146801539000000000000
B0459213158380S11709550EA0146601539000000000000
B0459253158373S11709445EA0146801541000000000000
B0459293158373S11709338EA0147201546000000000000
B0459333158379S11709232EA0147401547000000000000
B0459373158390S11709121EA0147101541000000000000
B0459413158406S11709012EA0146001528000000000000
B0459453158431S11708903EA0144501514000000000000
B0459493158459S11708798EA0144301519000000000000
B0459533158490S11708696EA0145201529000000000000
B0459573158528S11708600EA0145401526000000000000
B0500013158572S11708509EA0144801517000000000000
B0500053158622S11708422EA0144201517000000000000
B0500093158674S11708340EA0144101516000000000000
B0500133158730S11708263EA0144101516000000000000
B0500173158787S11708190EA0144601523000000000000
B0500213158845S11708123EA0145701537000000000000
B0500253158897S11708053EA0146401535000000000000
B0500293158925S11707964EA0145401526000000000000
B0500333158969S11707880EA0144401516000000000000
B0500373159038S11707815EA0143701505000000000000
B0500413159117S11707767EA0142601498000000000000
B0500453159194S11707717EA0141901490000000000000
B0500493159269S11707672EA0141001481000000000000
B0500533159344S11707637EA0140301478000000000000
B0500573159417S11707608EA0140501479000000000000
B0501013159490S11707586EA0140401477000000000000
B0501053159562S11707568EA0140501476000000000000
B0501093159636S11707544EA0140001469000000000000
B0501133159710S11707505EA0138801456000000000000
B0501173159783S11707456EA0138301455000000000000
B0501213159857S11707403EA0138501455000000000000
B0501253159927S11707339EA0138101450000000000000
B0501293159997S11707273EA0138201458000000000000
B0501333200065S11707208EA0138701459000000000000
B0501373200128S11707134EA0138401456000000000000
B0501413200191S11707057EA0137501446000000000000
B0501453200256S11706980EA0136901441000000000000
B0501493200312S11706901EA0137301450000000000000
B0501533200369S11706824EA0137601449000000000000
B0501573200426S11706751EA0137301445000000000000
B0502013200487S11706684EA0136501434000000000000
B0502053200552S11706617EA0135001414000000000000
B0502093200617S11706549EA0133201402000000000000
B0502133200678S11706481EA0132501400000000000000
B0502173200737S11706419EA0132601400000000000000
B0502213200795S11706359EA0131801379000000000000
B0502253200858S11706294EA0129701364000000000000
B0502293200917S11706226EA0128601354000000000000
B0502333200976S11706157EA0127701350000000000000
B0502373201033S11706087EA0127201342000000000000
B0502413201093S11706017EA0127101347000000000000
B0502453201153S11705947EA0127301343000000000000
B0502493201215S11705878EA0126701336000000000000
B0502533201278S11705810EA0125701327000000000000
B0502573201340S11705745EA0125301323000000000000
B0503013201401S11705681EA0124901320000000000000
B0503053201460S11705616EA0124001312000000000000
B0503093201519S11705546EA0123401306000000000000
B0503133201580S11705473EA0123601309000000000000
B0503173201648S11705407EA0123301302000000000000
B0503213201716S11705338EA0122401291000000000000
B0503253201778S11705265EA0121801291000000000000
B0503293201834S11705194EA0122101292000000000000
B0503333201889S11705126EA0122401295000000000000
B0503373201942S11705063EA0122401294000000000000
B0503413201993S11704995EA0121401277000000000000
B0503453202045S11704921EA0119401258000000000000
B0503493202098S11704843EA0118101249000000000000
B0503533202151S11704768EA0117401244000000000000
B0503573202204S11704693EA0117301244000000000000
B0504013202254S11704618EA0117401244000000000000
B0504053202302S11704543EA0117201244000000000000
B0504093202349S11704466EA0117401249000000000000
B0504133202393S11704388EA0118101258000000000000
B0504173202432S11704309EA0119601271000000000000
B0504213202422S11704223EA0121001287000000000000
B0504253202360S11704215EA0122601304000000000000
B0504293202334S11704277EA0123401312000000000000
B0504333202370S11704333EA0124401320000000000000
B0504373202431S11704341EA0125101328000000015000
B0504413202479S11704289EA0126101338000000015000
B0504453202480S11704212EA0126801345000000015000
B0504493202431S11704162EA0127501351000000015000
B0504533202368S11704164EA0128101354000000015000
B0504573202332S11704224EA0128001352000000015000
B0505013202357S11704292EA0128201361000000015000
B0505053202414S11704328EA0129001367000000015000
B0505093202479S11704314EA0129901373000000015000
B0505133202494S11704242EA0130701379000000015000
B0505173202436S11704215EA0130901380000000015000
B0505213202390S11704266EA0130901382000000030000
B0505253202403S11704339EA0131701393000000015000
B0505293202458S11704368EA0133201409000000015000
B0505333202514S11704336EA0133901407000000015000
B0505373202527S11704255EA0133501403000000015000
B0505413202471S11704207EA0133801410000000015000
B0505453202402S11704218EA0133801403000000015000
B0505493202350S11704276EA0133601408000000015000
B0505533202325S11704352EA0134501422000000015000
B0505573202346S11704417EA0136001443000000015000
B0506013202390S11704443EA0137401447000000015000
B0506053202450S11704423EA0136301435000000015000
B0506093202506S11704368EA0135501429000000015000
B0506133202561S11704300EA0134601419000000015000
B0506173202613S11704223EA0134601423000000000000
B0506213202654S11704141EA0134601417000000000000
B0506253202698S11704056EA0133601411000000000000
B0506293202749S11703975EA0133901413000000000000
B0506333202786S11703889EA0134901426000000000000
B0506373202754S11703811EA0136201435000000000000
B0506413202687S11703800EA0136701439000000000000
B0506453202640S11703855EA0136201428000000000000
B0506493202657S11703932EA0135101421000000000000
B0506533202723S11703962EA0135001420000000015000
B0506573202795S11703930EA0134301416000000015000
B0507013202857S11703871EA0134801422000000015000
B0507053202913S11703804EA0134701419000000000000
B0507093202969S11703733EA0134101408000000000000
B0507133203025S11703655EA0132301387000000000000
B0507173203082S11703573EA0130801377000000000000
B0507213203140S11703497EA0130101371000000000000
B0507253203199S11703427EA0129401363000000000000
B0507293203260S11703360EA0128801358000000000000
B0507333203315S11703287EA0128501356000000000000
B0507373203360S11703205EA0128301353000000000000
B0507413203403S11703120EA0128201354000000000000
B0507453203450S11703041EA0129301376000000000000
B0507493203489S11702968EA0132401409000000000000
B0507533203475S11702901EA0135001427000000000000
B0507573203426S11702899EA0135701426000000000000
B0508013203408S11702951EA0135701431000000000000
B0508053203436S11702998EA0136701441000000000000
B0508093203485S11703005EA0138101454000000000000
B0508133203524S11702959EA0139201456000000015000
B0508173203511S11702893EA0139801470000000015000
B0508213203463S11702868EA0140201464000000015000
B0508253203419S11702906EA0139501464000000015000
B0508293203421S11702967EA0140001473000000015000
B0508333203454S11703019EA0141201488000000015000
B0508373203506S11703036EA0142701501000000015000
B0508413203541S11702981EA0143601505000000015000
B0508453203507S11702925EA0142801498000000015000
B0508493203447S11702938EA0142901505000000015000
B0508533203419S11703000EA0143701516000000015000
B0508573203441S11703058EA0145301532000000015000
B0509013203494S11703054EA0146501539000000015000
B0509053203514S11702983EA0146801538000000015000
B0509093203469S11702924EA0147101544000000015000
B0509133203407S11702931EA0147701550000000015000
B0509173203374S11702994EA0148001556000000015000
B0509213203398S11703057EA0149401572000000015000
B0509253203454S11703074EA0150201573000000015000
B0509293203506S11703027EA0150301575000000015000
B0509333203523S11702949EA0151001588000000015000
B0509373203498S11702879EA0151901591000000015000
B0509413203437S11702854EA0151801591000000015000
B0509453203378S11702885EA0152101598000000015000
B0509493203373S11702953EA0152801602000000015000
B0509533203419S11702996EA0153401608000000015000
B0509573203481S11702988EA0154101615000000015000
B0510013203529S11702932EA0154501615000000015000
B0510053203571S11702860EA0154201611000000015000
B0510093203614S11702780EA0153001599000000000000
B0510133203659S11702697EA0152301593000000000000
B0510173203706S11702612EA0151901589000000000000
B0510213203758S11702529EA0151501586000000000000
B0510253203809S11702448EA0151401586000000000000
B0510293203857S11702364EA0150901577000000000000
B0510333203907S11702283EA0150101572000000000000
B0510373203961S11702203EA0149301562000000000000
B0510413204017S11702119EA0148701560000000000000
B0510453204073S11702040EA0148401554000000000000
B0510493204132S11701962EA0147801548000000000000
B0510533204192S11701887EA0147201544000000000000
B0510573204249S11701811EA0147301547000000000000
B0511013204301S11701737EA0147501549000000000000
B0511053204352S11701666EA0147401546000000000000
B0511093204403S11701593EA0147001540000000000000
B0511133204455S11701523EA0146601538000000000000
B0511173204505S11701450EA0146301534000000000000
B0511213204556S11701378EA0145901530000000000000
B0511253204607S11701306EA0145501525000000000000
B0511293204655S11701230EA0144801518000000000000
B0511333204700S11701152EA0144301515000000000000
B0511373204745S11701077EA0144101513000000000000
B0511413204791S11701004EA0143601507000000000000
B0511453204843S11700936EA0142801499000000000000
B0511493204898S11700871EA0142001491000000000000
B0511533204951S11700803EA0141101480000000000000
B0511573205005S11700731EA0140001467000000000000
B0512013205059S11700658EA0139001459000000000000
B0512053205114S11700584EA0138201454000000000000
B0512093205168S11700510EA0138201452000000000000
B0512133205215S11700428EA0138001455000000000000
B0512173205249S11700344EA0138401456000000000000
B0512213205272S11700260EA0138401458000000000000
B0512253205293S11700181EA0138101452000000000000
B0512293205311S11700103EA0137201440000000000000
B0512333205330S11700023EA0136001431000000000000
B0512373205344S11659941EA0135401425000000000000
B0512413205358S11659859EA0134901421000000000000
B0512453205369S11659777EA0134601418000000000000
B0512493205380S11659694EA0134201415000000000000
B0512533205396S11659610EA0134301418000000000000
B0512573205418S11659531EA0134701421000000000000
B0513013205445S11659453EA0134501414000000000000
B0513053205470S11659370EA0133801409000000000000
B0513093205495S11659288EA0133301404000000000000
B0513133205516S11659202EA0132401395000000000000
B0513173205539S11659116EA0131601386000000000000
B0513213205561S11659033EA0130801379000000000000
B0513253205584S11658949EA0130301375000000000000
B0513293205605S11658866EA0130201373000000000000
B0513333205625S11658780EA0129701365000000000000
B0513373205640S11658690EA0129001363000000000000
B0513413205659S11658599EA0129701374000000000000
B0513453205678S11658512EA0130501376000000000000
B0513493205699S11658425EA0130001370000000000000
B0513533205720S11658336EA0129201361000000000000
B0513573205744S11658248EA0128401354000000000000
B0514013205772S11658162EA0128001353000000000000
B0514053205799S11658080EA0127901352000000000000
B0514093205821S11658000EA0127801350000000000000
B0514133205843S11657918EA0127401346000000000000
B0514173205868S11657835EA0127201345000000000000
B0514213205885S11657750EA0127801356000000000000
B0514253205895S11657671EA0128801366000000000000
B0514293205896S11657593EA0129601371000000000000
B0514333205864S11657524EA0130601387000000000000
B0514373205805S11657534EA0132601407000000000000
B0514413205805S11657599EA0134001414000000000000
B0514453205859S11657623EA0134301415000000000000
B0514493205907S11657582EA0134701423000000000000
B0514533205924S11657511EA0135601433000000000000
B0514573205899S11657439EA0136901449000000015000
B0515013205842S11657402EA0138401461000000000000
B0515053205786S11657423EA0139901480000000000000
B0515093205770S11657478EA0141501492000000000000
B0515133205802S11657523EA0142301497000000000000
B0515173205852S11657521EA0142901502000000000000
B0515213205883S11657471EA0143601512000000000000
B0515253205863S11657411EA0144901525000000000000
B0515293205807S11657402EA0145701530000000000000
B0515333205769S11657452EA0146501539000000000000
B0515373205781S11657516EA0147101543000000000000
B0515413205838S11657541EA0147101541000000000000
B0515453205895S11657510EA0147601551000000015000
B0515493205920S11657446EA0148701570000000015000
B0515533205902S11657380EA0150301585000000015000
B0515573205852S11657342EA0152001600000000000000
B0516013205795S11657350EA0152901605000000000000
B0516053205757S11657394EA0153401610000000000000
B0516093205750S11657451EA0154101619000000000000
B0516133205778S11657494EA0154201614000000000000
B0516173205831S11657497EA0153901613000000000000
B0516213205876S11657456EA0154001612000000015000
B0516253205894S11657390EA0154201616000000015000
B0516293205876S11657319EA0155101625000000015000
B0516333205825S11657281EA0155701628000000015000
B0516373205768S11657303EA0156101636000000000000
B0516413205739S11657364EA0156301633000000000000
B0516453205760S11657429EA0155901624000000000000
B0516493205820S11657452EA0154801616000000000000
B0516533205893S11657437EA0153901608000000000000
B0516573205967S11657406EA0153601606000000000000
B0517013206041S11657359EA0153901614000000000000
B0517053206110S11657303EA0154601617000000000000
B0517093206173S11657239EA0154501616000000000000
B0517133206236S11657170EA0154301610000000000000
B0517173206301S11657099EA0153701602000000000000
B0517213206364S11657022EA0153001597000000000000
B0517253206429S11656945EA0152601596000000000000
B0517293206491S11656873EA0153001603000000000000
B0517333206546S11656800EA0153201600000000000000
B0517373206606S11656730EA0152301586000000000000
B0517413206673S11656659EA0150601572000000000000
B0517453206727S11656579EA0150101572000000000000
B0517493206779S11656501EA0150401578000000000000
B0517533206827S11656431EA0151401589000000000000
B0517573206871S11656366EA0151801589000000000000
B0518013206914S11656294EA0151001577000000000000
B0518053206960S11656219EA0149601565000000000000
B0518093207009S11656143EA0149101561000000000000
B0518133207056S11656068EA0148701560000000000000
B0518173207099S11655991EA0148101553000000000000
B0518213207144S11655916EA0147901551000000000000
B0518253207190S11655840EA0148001551000000000000
B0518293207234S11655764EA0147501544000000000000
B0518333207281S11655687EA0146501535000000000000
B0518373207328S11655610EA0146101532000000000000
B0518413207372S11655532EA0146001532000000000000
B0518453207412S11655454EA0145701528000000000000
B0518493207453S11655376EA0145301520000000000000
B0518533207493S11655297EA0144301513000000000000
B0518573207538S11655223EA0143601504000000000000
B0519013207585S11655149EA0143001499000000000000
B0519053207633S11655076EA0142401493000000000000
B0519093207684S11654999EA0141501483000000000000
B0519133207739S11654921EA0140501476000000000000
B0519173207796S11654847EA0140701485000000000000
B0519213207850S11654782EA0141701492000000000000
B0519253207905S11654717EA0141701489000000000000
B0519293207962S11654648EA0141201481000000000000
B0519333208022S11654576EA0140901482000000000000
B0519373208073S11654490EA0141001481000000000000
B0519413208110S11654394EA0140701480000000000000
B0519453208136S11654295EA0140801480000000000000
B0519493208147S11654199EA0141401489000000000000
B0519533208148S11654104EA0141501487000000000000
B0519573208145S11654005EA0140901480000000000000
B0520013208144S11653910EA0140401479000000000000
B0520053208144S11653815EA0140001468000000000000
B0520093208142S11653716EA0138701456000000000000
B0520133208135S11653615EA0138101454000000000000
B0520173208121S11653513EA0138301460000000000000
B0520213208095S11653417EA0138601457000000000000
B0520253208044S11653338EA0138601460000000000000
B0520293207969S11653304EA0138401452000000000000
B0520333207889S11653320EA0137401442000000000000
B0520373207826S11653376EA0136501435000000000000
B0520413207787S11653456EA0136201433000000000000
B0520453207798S11653545EA0136001428000000000000
B0520493207856S11653606EA0135201419000000000000
B0520533207934S11653627EA0134101412000000000000
B0520573208013S11653634EA0133701409000000000000
B0521013208090S11653633EA0133001401000000000000
B0521053208165S11653625EA0132701402000000000000
B0521093208239S11653616EA0133001407000000000000
B0521133208312S11653603EA0133201407000000000000
B0521173208386S11653594EA0133201407000000000000
B0521213208464S11653594EA0133501410000000000000
B0521253208542S11653593EA0133301403000000000000
B0521293208620S11653604EA0132801402000000000000
B0521333208693S11653632EA0132701398000000000000
B0521373208764S11653672EA0131701383000000000000
B0521413208832S11653723EA0130901380000000000000
B0521453208890S11653784EA0130701377000000000000
B0521493208946S11653848EA0130001367000000000000
B0521533209005S11653913EA0128801356000000000000
B0521573209063S11653978EA0128201351000000000000
B0522013209119S11654039EA0127901350000000000000
B0522053209175S11654095EA0127501343000000000000
B0522093209232S11654148EA0126501328000000000000
B0522133209300S11654196EA0125201318000000000000
B0522173209371S11654235EA0124301312000000000000
B0522213209436S11654282EA0124001309000000000000
B0522253209490S11654344EA0123401301000000000000
B0522293209536S11654410EA0122501293000000000000
B0522333209585S11654478EA0121601284000000000000
B0522373209634S11654546EA0120901276000000000000
B0522413209691S11654604EA0121201284000000000000
B0522453209759S11654628EA0121601286000000000000
B0522493209826S11654635EA0121401279000000000000
B0522533209894S11654621EA0120701273000000000000
B0522573209949S11654573EA0120401273000000000000
B0523013209999S11654514EA0120201270000000000000
B0523053210037S11654444EA0120501274000000000000
B0523093210025S11654369EA0120701277000000000000
B0523133209976S11654321EA0120801276000000000000
B0523173209917S11654304EA0120701275000000000000
B0523213209858S11654322EA0120101266000000000000
B0523253209809S11654370EA0118901254000000000000
B0523293209781S11654440EA0117901246000000000000
B0523333209761S11654520EA0116901233000000000000
B0523373209744S11654604EA0115801224000000000000
B0523413209729S11654689EA0115101218000000000000
B0523453209713S11654771EA0115101223000000000000
B0523493209694S11654846EA0115001217000000000000
B0523533209672S11654923EA0114101208000000000000
B0523573209643S11654998EA0113201202000000000000
B0524013209616S11655076EA0112801197000000000000
B0524053209590S11655157EA0112101189000000000000
B0524093209569S11655237EA0111901189000000000000
B0524133209551S11655318EA0111401183000000000000
B0524173209535S11655398EA0110801177000000000000
B0524213209520S11655475EA0110701179000000000000
B0524253209510S11655547EA0111001185000000000000
B0524293209503S11655616EA0111001179000000000000
B0524333209492S11655687EA0110001166000000000000
B0524373209490S11655762EA0109001159000000000000
B0524413209501S11655839EA0108601155000000000000
B0524453209529S11655913EA0107901147000000000000
B0524493209574S11655980EA0107101142000000000000
B0524533209631S11656032EA0106601135000000000000
B0524573209698S11656073EA0106201130000000000000
B0525013209763S11656120EA0105601122000000000000
B0525053209819S11656180EA0104901118000000000000
B0525093209864S11656247EA0104501115000000000000
B0525133209899S11656319EA0103901105000000000000
B0525173209929S11656394EA0102701094000000000000
B0525213209956S11656472EA0101501082000000000000
B0525253209982S11656550EA0100701076000000000000
B0525293210010S11656628EA0100901078000000000000
B0525333210036S11656706EA0101001083000000000000
B0525373210063S11656786EA0101301082000000000000
B0525413210093S11656864EA0101001080000000000000
B0525453210120S11656943EA0101001084000000000000
B0525493210150S11657018EA0101701087000000000000
B0525533210205S11657066EA0102101092000000000000
B0525573210268S11657048EA0102901101000000000000
B0526013210280S11656987EA0103701110000000000000
B0526053210238S11656949EA0103901109000000000000
B0526093210184S11656969EA0103801108000000000000
B0526133210159S11657031EA0104301119000000000000
B0526173210177S11657095EA0105301123000000000000
B0526213210233S11657121EA0105101118000000000000
B0526253210298S11657113EA0104501116000000000000
B0526293210363S11657090EA0104501115000000000000
B0526333210394S11657020EA0104301117000000000000
B0526373210366S11656951EA0104701123000000015000
B0526413210307S11656925EA0106201139000000015000
B0526453210254S11656943EA0107201151000000015000
B0526493210222S11656995EA0108501160000000015000
B0526533210228S11657060EA0109201165000000030000
B0526573210276S11657096EA0109401164000000015000
B0527013210332S11657073EA0108901160000000015000
B0527053210344S11657010EA0109601173000000015000
B0527093210310S11656964EA0110501178000000015000
B0527133210255S11656957EA0110901181000000015000
B0527173210207S11656997EA0111201183000000015000
B0527213210194S11657072EA0111201182000000015000
B0527253210232S11657134EA0110901176000000015000
B0527293210298S11657148EA0110701178000000000000
B0527333210358S11657113EA0110801180000000015000
B0527373210397S11657049EA0110701178000000015000
B0527413210398S11656970EA0111001184000000015000
B0527453210354S11656922EA0112601206000000015000
B0527493210305S11656949EA0113901215000000015000
B0527533210314S11657018EA0114001209000000015000
B0527573210375S11657038EA0113701209000000015000
B0528013210417S11656986EA0114401219000000015000
B0528053210401S11656922EA0115201226000000015000
B0528093210345S11656909EA0116001233000000015000
B0528133210301S11656957EA0116701240000000015000
B0528173210305S11657033EA0116901236000000015000
B0528213210353S11657087EA0116301228000000015000
B0528253210420S11657124EA0115501219000000000000
B0528293210493S11657151EA0115001216000000000000
B0528333210569S11657153EA0114901216000000000000
B0528373210632S11657108EA0116001229000000000000
B0528413210622S11657033EA0116601235000000000000
B0528453210563S11657013EA0116501232000000000000
B0528493210519S11657069EA0116701236000000000000
B0528533210524S11657148EA0116701232000000000000
B0528573210561S11657224EA0115901218000000000000
B0529013210596S11657308EA0115001213000000000000
B0529053210621S11657397EA0115701228000000000000
B0529093210643S11657480EA0117901246000000000000
B0529133210682S11657549EA0118301237000000000000
B0529173210721S11657627EA0116101211000000000000
B0529213210738S11657722EA0114401205000000000000
B0529253210740S11657814EA0114001204000000000000
B0529293210738S11657905EA0113201196000000000000
B0529333210732S11657997EA0112501188000000000000
B0529373210729S11658088EA0112201188000000000000
B0529413210725S11658177EA0112601193000000000000
B0529453210719S11658266EA0113201201000000000000
B0529493210709S11658352EA0113901209000000000000
B0529533210701S11658437EA0114501210000000000000
B0529573210705S11658522EA0113901200000000000000
B0530013210716S11658611EA0113201198000000000000
B0530053210712S11658699EA0112401187000000000000
B0530093210691S11658788EA0111501180000000000000
B0530133210664S11658872EA0111101183000000000000
B0530173210635S11658957EA0111201180000000000000
B0530213210605S11659041EA0111601191000000000000
B0530253210579S11659119EA0112901204000000000000
B0530293210556S11659197EA0113001201000000000000
B0530333210530S11659271EA0114101220000000000000
B0530373210509S11659341EA0116101236000000000000
B0530413210534S11659405EA0117301243000000000000
B0530453210588S11659380EA0118101257000000000000
B0530493210578S11659317EA0120001276000000000000
B0530533210526S11659297EA0120801282000000000000
B0530573210482S11659343EA0121501291000000000000
B0531013210501S11659410EA0122701302000000000000
B0531053210562S11659422EA0123701311000000015000
B0531093210600S11659365EA0124801322000000015000
B0531133210582S11659295EA0125801335000000015000
B0531173210524S11659271EA0127401353000000015000
B0531213210478S11659309EA0128701361000000015000
B0531253210482S11659378EA0129901373000000015000
B0531293210536S11659405EA0131101390000000015000
B0531333210578S11659362EA0132301399000000015000
B0531373210566S11659300EA0133401411000000015000
B0531413210514S11659282EA0134501420000000015000
B0531453210472S11659323EA0135201426000000015000
B0531493210482S11659392EA0135801431000000015000
B0531533210537S11659425EA0136701445000000015000
B0531573210589S11659399EA0138101458000000015000
B0532013210605S11659336EA0139001470000000015000
B0532053210576S11659279EA0140101480000000015000
B0532093210522S11659265EA0141201492000000015000
B0532133210478S11659304EA0141801493000000015000
B0532173210476S11659373EA0142301499000000015000
B0532213210519S11659421EA0143001502000000000000
B0532253210580S11659409EA0143401508000000015000
B0532293210601S11659343EA0144401519000000015000
B0532333210573S11659282EA0145001525000000015000
B0532373210513S11659262EA0145601532000000015000
B0532413210457S11659297EA0146001533000000015000
B0532453210439S11659366EA0146901547000000015000
B0532493210465S11659430EA0148001558000000015000
B0532533210524S11659454EA0149001563000000015000
B0532573210579S11659421EA0149901575000000015000
B0533013210595S11659350EA0150801582000000015000
B0533053210556S11659291EA0151601592000000015000
B0533093210491S11659288EA0152501597000000015000
B0533133210450S11659345EA0153001605000000015000
B0533173210465S11659414EA0154001617000000015000
B0533213210511S11659469EA0154201614000000000000
B0533253210569S11659519EA0154201615000000000000
B0533293210630S11659570EA0154401614000000000000
B0533333210688S11659627EA0154101609000000000000
B0533373210747S11659687EA0153301597000000000000
B0533413210810S11659746EA0151601580000000000000
B0533453210879S11659804EA0150301570000000000000
B0533493210948S11659860EA0149301559000000000000
B0533533211016S11659917EA0148901556000000000000
B0533573211080S11659971EA0148801562000000000000
B0534013211143S11700021EA0149101563000000000000
B0534053211207S11700069EA0148901556000000000000
B0534093211271S11700123EA0148001548000000000000
B0534133211332S11700175EA0147901548000000000000
B0534173211392S11700234EA0147901551000000000000
B0534213211454S11700292EA0149001562000000000000
B0534253211523S11700290EA0151001588000000000000
B0534293211548S11700224EA0152901603000000000000
B0534333211511S11700167EA0153401604000000000000
B0534373211449S11700156EA0152901595000000000000
B0534413211395S11700205EA0152501597000000000000
B0534453211373S11700280EA0153101607000000015000
B0534493211385S11700359EA0153701608000000015000
B0534533211421S11700427EA0153801609000000000000
B0534573211473S11700479EA0153901610000000000000
B0535013211535S11700522EA0153701607000000000000
B0535053211601S11700557EA0153601604000000000000
B0535093211671S11700587EA0153001597000000000000
B0535133211743S11700615EA0152601592000000000000
B0535173211818S11700649EA0151501579000000000000
B0535213211895S11700688EA0150601571000000000000
B0535253211970S11700730EA0149701559000000000000
B0535293212044S11700771EA0149401568000000000000
B0535333212109S11700813EA0150401576000000000000
B0535373212175S11700853EA0150501576000000000000
B0535413212243S11700894EA0150801580000000000000
B0535453212307S11700948EA0150201570000000000000
B0535493212361S11701020EA0149501565000000000000
B0535533212402S11701104EA0148801557000000000000
B0535573212433S11701196EA0148001542000000000000
B0536013212458S11701295EA0146701531000000000000
B0536053212476S11701395EA0145901529000000000000
B0536093212490S11701489EA0145801529000000000000
B0536133212504S11701580EA0145501523000000000000
B0536173212523S11701671EA0144301511000000000000
B0536213212537S11701765EA0144101515000000000000
B0536253212552S11701854EA0144701521000000000000
B0536293212571S11701941EA0145101527000000000000
B0536333212594S11702028EA0145201522000000000000
B0536373212615S11702119EA0145101524000000000000
B0536413212621S11702217EA0145601528000000000000
B0536453212634S11702311EA0145701526000000000000
B0536493212667S11702400EA0145001520000000000000
B0536533212719S11702477EA0144701516000000000000
B0536573212792S11702522EA0145001516000000000000
B0537013212874S11702513EA0144201511000000000000
B0537053212948S11702467EA0144101509000000015000
B0537093213017S11702412EA0143601501000000015000
B0537133213083S11702351EA0142901499000000015000
B0537173213145S11702290EA0142301486000000015000
B0537213213206S11702221EA0141201483000000015000
B0537253213258S11702148EA0141501486000000015000
B0537293213306S11702074EA0141201482000000000000
B0537333213355S11701996EA0140401472000000000000
B0537373213413S11701924EA0139501458000000000000
B0537413213478S11701857EA0138501450000000000000
B0537453213535S11701784EA0137801446000000000000
B0537493213587S11701703EA0137901445000000000000
B0537533213624S11701610EA0137601440000000000000
B0537573213628S11701505EA0137401443000000000000
B0538013213615S11701399EA0137401437000000000000
B0538053213581S11701298EA0136001422000000000000
B0538093213526S11701208EA0135301418000000000000
B0538133213466S11701125EA0135301416000000000000
B0538173213394S11701059EA0134601406000000000000
B0538213213306S11701048EA0134601417000000000000
B0538253213240S11701098EA0135401423000000000000
B0538293213227S11701183EA0135701422000000000000
B0538333213256S11701268EA0134601409000000000000
B0538373213309S11701343EA0133401398000000000000
B0538413213373S11701414EA0132401389000000000000
B0538453213443S11701480EA0131301377000000000000
B0538493213526S11701531EA0130901373000000000000
B0538533213616S11701563EA0130601372000000000000
B0538573213707S11701579EA0130901376000000000000
B0539013213798S11701584EA0131301381000000000000
B0539053213888S11701584EA0131201379000000000000
B0539093213975S11701581EA0131101378000000000000
B0539133214059S11701579EA0131001378000000000000
B0539173214142S11701579EA0130601370000000000000
B0539213214227S11701577EA0129801361000000000000
B0539253214310S11701575EA0129101358000000000000
B0539293214391S11701576EA0128401348000000000000
B0539333214474S11701575EA0127001332000000000000
B0539373214557S11701579EA0125901326000000000000
B0539413214639S11701583EA0125401320000000000000
B0539453214717S11701590EA0124801315000000000000
B0539493214795S11701602EA0124001306000000000000
B0539533214874S11701610EA0123101294000000000000
B0539573214955S11701620EA0122001285000000000000
B0540013215034S11701633EA0121001273000000000000
B0540053215115S11701653EA0120001264000000000000
B0540093215191S11701676EA0119501262000000000000
B0540133215264S11701701EA0119301259000000000000
B0540173215338S11701714EA0119201259000000000000
B0540213215411S11701714EA0118701254000000000000
B0540253215485S11701711EA0118501251000000000000
B0540293215558S11701713EA0118501258000000000000
B0540333215630S11701701EA0119101258000000000000
B0540373215691S11701654EA0118801259000000000000
B0540413215739S11701588EA0119501267000000000000
B0540453215767S11701510EA0120601279000000000000
B0540493215744S11701433EA0121501284000000000000
B0540533215680S11701412EA0120901273000000000000
B0540573215622S11701454EA0120801275000000000000
B0541013215575S11701514EA0120701274000000000000
B0541053215546S11701589EA0121001282000000000000
B0541093215531S11701667EA0121901291000000000000
B0541133215559S11701737EA0122401292000000000000
B0541173215624S11701735EA0122401294000000000000
B0541213215654S11701664EA0122301293000000000000
B0541253215622S11701590EA0122201291000000000000
B0541293215554S11701557EA0122401297000000000000
B0541333215484S11701573EA0123101301000000000000
B0541373215429S11701632EA0122901296000000000000
B0541413215383S11701706EA0122301291000000000000
B0541453215342S11701791EA0121901287000000000000
B0541493215303S11701875EA0121101277000000000000
B0541533215255S11701954EA0120301271000000000000
B0541573215203S11702030EA0119601263000000000000
B0542013215146S11702101EA0119201259000000000000
B0542053215086S11702166EA0118101246000000000000
B0542093215030S11702235EA0117201240000000000000
B0542133214980S11702305EA0116901236000000000000
B0542173214937S11702381EA0116901241000000000000
B0542213214907S11702459EA0117401246000000000000
B0542253214881S11702537EA0118301257000000000000
B0542293214863S11702616EA0118401252000000000000
B0542333214843S11702703EA0117701248000000000000
B0542373214816S11702790EA0118001251000000000000
B0542413214781S11702875EA0117801249000000000000
B0542453214742S11702957EA0117201235000000000000
B0542493214696S11703042EA0115801225000000000000
B0542533214651S11703130EA0115601224000000000000
B0542573214608S11703214EA0115501225000000000000
B0543013214566S11703297EA0115701225000000000000
B0543053214526S11703382EA0115501223000000000000
B0543093214489S11703468EA0115101220000000000000
B0543133214449S11703548EA0114301212000000000000
B0543173214405S11703624EA0113801209000000000000
B0543213214356S11703689EA0113601205000000000000
B0543253214297S11703744EA0113201203000000000000
B0543293214241S11703804EA0113101203000000000000
B0543333214187S11703865EA0114201217000000000000
B0543373214142S11703928EA0116501240000000000000
B0543413214166S11703994EA0118901267000000000000
B0543453214222S11703990EA0120501278000000000000
B0543493214249S11703929EA0120901278000000000000
B0543533214228S11703856EA0121101282000000015000
B0543573214168S11703821EA0121701291000000015000
B0544013214106S11703838EA0122701299000000000000
B0544053214067S11703897EA0123401308000000000000
B0544093214071S11703969EA0124701321000000000000
B0544133214118S11704020EA0125601329000000000000
B0544173214180S11704024EA0126901344000000000000
B0544213214210S11703973EA0128301356000000015000
B0544253214175S11703925EA0128701359000000015000
B0544293214118S11703939EA0129801369000000015000
B0544333214084S11704003EA0130501371000000000000
B0544373214127S11704066EA0131201384000000015000
B0544413214187S11704042EA0132201395000000015000
B0544453214198S11703976EA0133601408000000015000
B0544493214158S11703930EA0134601419000000015000
B0544533214102S11703939EA0135501427000000000000
B0544573214063S11703999EA0135701426000000000000
B0545013214076S11704079EA0136601443000000000000
B0545053214131S11704119EA0138701462000000000000
B0545093214190S11704101EA0139901471000000015000
B0545133214215S11704037EA0140301472000000015000
B0545173214185S11703975EA0141101483000000015000
B0545213214131S11703947EA0142001490000000000000
B0545253214077S11703981EA0142601498000000000000
B0545293214066S11704051EA0143701516000000000000
B0545333214105S11704103EA0145501533000000000000
B0545373214163S11704101EA0146901544000000000000
B0545413214189S11704043EA0147401546000000000000
B0545453214157S11703989EA0147801551000000000000
B0545493214101S11703998EA0148901563000000000000
B0545533214072S11704056EA0150001573000000000000
B0545573214092S11704121EA0150901583000000000000
B0546013214150S11704138EA0151801590000000000000
B0546053214193S11704090EA0152401595000000000000
B0546093214188S11704021EA0152701595000000000000
B0546133214140S11703980EA0152901597000000000000
B0546173214079S11703994EA0152901597000000000000
B0546213214042S11704059EA0153201601000000000000
B0546253214044S11704146EA0153501603000000000000
B0546293214084S11704220EA0154001611000000000000
B0546333214154S11704251EA0154201609000000000000
B0546373214233S11704253EA0153601599000000000000
B0546413214315S11704246EA0152601587000000000000
B0546453214401S11704238EA0151201572000000000000
B0546493214491S11704235EA0149401555000000000000
B0546533214582S11704228EA0147801541000000000000
B0546573214670S11704218EA0146901534000000000000
B0547013214756S11704203EA0146601531000000000000
B0547053214839S11704188EA0146601533000000000000
B0547093214922S11704172EA0146301528000000000000
B0547133215006S11704155EA0145801522000000000000
B0547173215087S11704140EA0145501521000000000000
B0547213215171S11704131EA0145101516000000000000
B0547253215254S11704121EA0144201505000000000000
B0547293215341S11704111EA0143001493000000000000
B0547333215428S11704102EA0142501492000000000000
B0547373215511S11704093EA0142201487000000000000
B0547413215594S11704080EA0141701486000000000000
B0547453215672S11704063EA0141901488000000000000
B0547493215744S11704047EA0142001489000000000000
B0547533215814S11704032EA0141701485000000000000
B0547573215887S11704023EA0140801474000000000000
B0548013215965S11704017EA0139801465000000000000
B0548053216043S11704014EA0139101459000000000000
B0548093216120S11704012EA0138901459000000000000
B0548133216194S11704021EA0139001457000000000000
B0548173216269S11704041EA0138601452000000000000
B0548213216347S11704046EA0138001446000000000000
B0548253216424S11704046EA0137401445000000000000
B0548293216501S11704045EA0137301444000000000000
B0548333216576S11704046EA0137001440000000000000
B0548373216653S11704051EA0136801438000000000000
B0548413216729S11704058EA0137501449000000000000
B0548453216792S11704027EA0139201470000000000000
B0548493216792S11703963EA0141401490000000000000
B0548533216742S11703934EA0141901486000000000000
B0548573216693S11703963EA0142401498000000000000
B0549013216677S11704025EA0143401509000000000000
B0549053216701S11704085EA0144701521000000000000
B0549093216751S11704116EA0146101536000000000000
B0549133216805S11704102EA0147201543000000000000
B0549173216839S11704049EA0147701550000000000000
B0549213216836S11703984EA0148201553000000015000
B0549253216790S11703936EA0148101549000000015000
B0549293216725S11703930EA0148201554000000000000
B0549333216667S11703958EA0149001566000000000000
B0549373216629S11704014EA0150401577000000000000
B0549413216618S11704084EA0150701575000000000000
B0549453216628S11704158EA0150201569000000000000
B0549493216668S11704224EA0149601565000000000000
B0549533216725S11704274EA0149601564000000000000
B0549573216794S11704302EA0149501565000000000000
B0550013216868S11704310EA0149501563000000000000
B0550053216946S11704296EA0149301560000000000000
B0550093217009S11704240EA0149301564000000000000
B0550133217034S11704153EA0149501563000000000000
B0550173217011S11704067EA0149001558000000000000
B0550213216950S11704007EA0148801556000000015000
B0550253216874S11703981EA0148901556000000000000
B0550293216794S11703982EA0149301561000000000000
B0550333216729S11704029EA0150001574000000000000
B0550373216698S11704107EA0151401590000000000000
B0550413216710S11704189EA0152601595000000000000
B0550453216762S11704242EA0153301601000000000000
B0550493216829S11704237EA0153801607000000015000
B0550533216870S11704173EA0154301612000000015000
B0550573216861S11704090EA0154501610000000015000
B0551013216806S11704028EA0154301609000000015000
B0551053216729S11704007EA0154701616000000015000
B0551093216659S11704037EA0155701627000000000000
B0551133216615S11704105EA0156401630000000000000
B0551173216607S11704192EA0156501630000000000000
B0551213216636S11704275EA0156501626000000000000
B0551253216692S11704337EA0155601614000000000000
B0551293216768S11704363EA0154601609000000000000
B0551333216841S11704336EA0154601614000000015000
B0551373216884S11704271EA0155301623000000015000
B0551413216876S11704193EA0156101629000000015000
B0551453216826S11704136EA0155701620000000015000
B0551493216753S11704110EA0155801629000000015000
B0551533216693S11704155EA0156601633000000015000
B0551573216680S11704240EA0156601627000000000000
B0552013216719S11704324EA0155501615000000000000
B0552053216779S11704397EA0154601605000000000000
B0552093216853S11704453EA0153601595000000000000
B0552133216937S11704495EA0152501582000000000000
B0552173217028S11704522EA0151601580000000000000
B0552213217121S11704541EA0151701584000000000000
B0552253217212S11704552EA0151401576000000000000
B0552293217305S11704562EA0150401567000000000000
B0552333217396S11704576EA0149601557000000000000
B0552373217485S11704591EA0149101559000000000000
B0552413217568S11704608EA0149201555000000000000
B0552453217648S11704622EA0148801557000000000000
B0552493217726S11704631EA0149301563000000000000
B0552533217799S11704636EA0149501566000000000000
B0552573217868S11704631EA0150701580000000000000
B0553013217932S11704613EA0152401596000000000000
B0553053217963S11704553EA0153401603000000000000
B0553093217937S11704489EA0153501600000000000000
B0553133217876S11704479EA0153301599000000000000
B0553173217827S11704523EA0153001594000000000000
B0553213217795S11704591EA0152501589000000000000
B0553253217795S11704667EA0152101588000000000000
B0553293217841S11704723EA0152501598000000000000
B0553333217901S11704756EA0153601608000000000000
B0553373217966S11704769EA0155001623000000000000
B0553413218019S11704732EA0155701623000000000000
B0553453218020S11704653EA0155201618000000000000
B0553493217970S11704599EA0155701629000000000000
B0553533217907S11704601EA0156801645000000000000
B0553573217862S11704645EA0158101654000000000000
B0554013217846S11704712EA0158901662000000000000
B0554053217877S11704766EA0159801672000000000000
B0554093217933S11704768EA0160701679000000000000
B0554133217968S11704716EA0161701692000000015000
B0554173217955S11704651EA0162501694000000015000
B0554213217902S11704623EA0162501695000000015000
B0554253217847S11704661EA0162401694000000000000
B0554293217827S11704736EA0162501694000000000000
B0554333217847S11704814EA0162701699000000000000
B0554373217901S11704862EA0163101701000000000000
B0554413217970S11704877EA0162901698000000000000
B0554453218042S11704875EA0162601694000000000000
B0554493218116S11704868EA0161901685000000000000
B0554533218192S11704861EA0160901676000000000000
B0554573218266S11704855EA0161301685000000000000
B0555013218334S11704846EA0162301695000000000000
B0555053218401S11704831EA0162201691000000000000
B0555093218470S11704812EA0162001689000000000000
B0555133218535S11704778EA0162101689000000000000
B0555173218583S11704717EA0161901686000000000000
B0555213218620S11704640EA0161701684000000000000
B0555253218651S11704556EA0161301680000000000000
B0555293218686S11704472EA0160601671000000000000
B0555333218725S11704388EA0159801664000000000000
B0555373218768S11704307EA0159501661000000000000
B0555413218811S11704228EA0159001656000000000000
B0555453218854S11704150EA0158201646000000000000
B0555493218895S11704069EA0157801646000000000000
B0555533218926S11703989EA0158101653000000000000
B0555573218954S11703915EA0158701656000000000000
B0556013218982S11703842EA0158201649000000000000
B0556053219016S11703768EA0157501644000000000000
B0556093219052S11703696EA0157301640000000000000
B0556133219091S11703626EA0156701632000000000000
B0556173219133S11703553EA0155801623000000000000
B0556213219175S11703478EA0155101619000000000000
B0556253219219S11703405EA0154801615000000000000
B0556293219264S11703332EA0154701617000000000000
B0556333219310S11703262EA0154801618000000000000
B0556373219355S11703192EA0154701615000000000000
B0556413219397S11703118EA0154201611000000000000
B0556453219439S11703044EA0154001608000000000000
B0556493219481S11702970EA0153601601000000000000
B0556533219526S11702896EA0153001597000000000000
B0556573219569S11702821EA0152801596000000000000
B0557013219610S11702751EA0152501592000000000000
B0557053219653S11702678EA0151801584000000000000
B0557093219693S11702604EA0151101579000000000000
B0557133219735S11702533EA0150901578000000000000
B0557173219773S11702464EA0150801574000000000000
B0557213219808S11702394EA0150101569000000000000
B0557253219843S11702325EA0149601562000000000000
B0557293219877S11702253EA0148701553000000000000
B0557333219914S11702182EA0148001547000000000000
B0557373219952S11702109EA0146901535000000000000
B0557413219991S11702035EA0146201528000000000000
B0557453220031S11701966EA0146201531000000000000
B0557493220069S11701897EA0146501534000000000000
B0557533220107S11701831EA0146301530000000000000
B0557573220148S11701765EA0146001527000000000000
B0558013220185S11701694EA0146001532000000000000
B0558053220219S11701623EA0147001541000000000000
B0558093220228S11701544EA0147401544000000000000
B0558133220189S11701482EA0148501562000000000000
B0558173220130S11701471EA0150201575000000000000
B0558213220091S11701520EA0150801576000000000000
B0558253220109S11701590EA0150301571000000000000
B0558293220169S11701631EA0149801566000000000000
B0558333220237S11701628EA0150101576000000000000
B0558373220293S11701592EA0150701576000000000000
B0558413220319S11701521EA0150601575000000000000
B0558453220300S11701445EA0151001578000000015000
B0558493220243S11701399EA0151401581000000000000
B0558533220181S11701419EA0152301594000000000000
B0558573220165S11701489EA0153401606000000000000
B0559013220208S11701547EA0153401598000000000000
B0559053220281S11701560EA0152901596000000000000
B0559093220352S11701536EA0153201602000000015000
B0559133220398S11701471EA0153801604000000015000
B0559173220391S11701388EA0153901606000000015000
B0559213220338S11701332EA0153801602000000015000
B0559253220269S11701329EA0153701604000000000000
B0559293220202S11701352EA0153601600000000000000
B0559333220137S11701388EA0153501600000000000000
B0559373220079S11701438EA0153701601000000000000
B0559413220055S11701514EA0154501618000000000000
B0559453220102S11701551EA0156001632000000000000
B0559493220147S11701511EA0156001620000000000000
B0559533220135S11701434EA0155101616000000000000
B0559573220079S11701382EA0155401619000000000000
B0600013220012S11701389EA0155601621000000000000
B0600053219978S11701450EA0155601620000000000000
B0600093220007S11701516EA0154801610000000000000
B0600133220076S11701541EA0153801601000000000000
B0600173220154S11701544EA0153301594000000000000
B0600213220234S11701537EA0153001596000000000000
B0600253220313S11701528EA0153201594000000000000
B0600293220394S11701511EA0153001598000000000000
B0600333220472S11701486EA0153701606000000000000
B0600373220549S11701460EA0153901605000000000000
B0600413220623S11701427EA0153701605000000000000
B0600453220697S11701393EA0152901590000000000000
B0600493220774S11701355EA0151801582000000000000
B0600533220848S11701311EA0151401578000000000000
B0600573220922S11701264EA0150801571000000000000
B0601013220999S11701219EA0150301568000000000000
B0601053221078S11701174EA0149901565000000000000
B0601093221156S11701134EA0149801564000000000000
B0601133221233S11701100EA0150601578000000000000
B0601173221304S11701077EA0151301581000000000000
B0601213221377S11701064EA0151401582000000000000
B0601253221447S11701055EA0151501585000000000000
B0601293221519S11701051EA0152001590000000000000
B0601333221593S11701043EA0152801599000000000000
B0601373221654S11701001EA0153701606000000000000
B0601413221651S11700925EA0154401614000000000000
B0601453221599S11700892EA0154701611000000000000
B0601493221551S11700927EA0154001601000000000000
B0601533221554S11700998EA0153401602000000000000
B0601573221599S11701048EA0154201613000000000000
B0602013221659S11701066EA0154901619000000000000
B0602053221712S11701025EA0155601618000000015000
B0602093221711S11700942EA0154401601000000015000
B0602133221655S11700894EA0153701601000000015000
B0602173221593S11700917EA0153701600000000000000
B0602213221578S11700987EA0153701601000000000000
B0602253221624S11701040EA0153701602000000000000
B0602293221693S11701046EA0154301613000000000000
B0602333221762S11701042EA0154201602000000015000
B0602373221834S11701046EA0153001585000000000000
B0602413221915S11701051EA0151101568000000000000
B0602453221996S11701051EA0150801572000000000000
B0602493222076S11701047EA0151001575000000000000
B0602533222154S11701053EA0151401578000000000000
B0602573222228S11701068EA0151101573000000000000
B0603013222302S11701089EA0150201565000000000000
B0603053222370S11701130EA0149001553000000000000
B0603093222423S11701198EA0148301543000000000000
B0603133222473S11701272EA0147501540000000000000
B0603173222516S11701349EA0147301537000000000000
B0603213222553S11701429EA0146801527000000000000
B0603253222604S11701501EA0146301524000000000000
B0603293222679S11701533EA0145901523000000000000
B0603333222760S11701525EA0146001524000000000000
B0603373222833S11701488EA0146101525000000000000
B0603413222895S11701433EA0146001524000000000000
B0603453222945S11701367EA0145901522000000000000
B0603493222975S11701284EA0145701520000000000000
B0603533222967S11701196EA0146001527000000000000
B0603573222923S11701134EA0146901538000000000000
B0604013222856S11701111EA0147401539000000000000
B0604053222800S11701150EA0148701561000000000000
B0604093222795S11701215EA0150101566000000000000
B0604133222845S11701255EA0149801563000000000000
B0604173222900S11701224EA0150501575000000015000
B0604213222911S11701156EA0151201579000000015000
B0604253222869S11701108EA0151601581000000015000
B0604293222819S11701142EA0151801582000000015000
B0604333222824S11701216EA0152301593000000015000
B0604373222874S11701258EA0153001599000000015000
B0604413222937S11701238EA0153301598000000015000
B0604453222963S11701172EA0153501602000000015000
B0604493222938S11701104EA0153701603000000015000
B0604533222876S11701085EA0154101608000000015000
B0604573222833S11701137EA0155001618000000015000
B0605013222845S11701212EA0155601618000000015000
B0605053222904S11701254EA0155401618000000015000
B0605093222976S11701245EA0155501618000000015000
B0605133223019S11701185EA0155401619000000015000
B0605173223007S11701111EA0155401615000000015000
B0605213222952S11701055EA0154601605000000000000
B0605253222880S11701020EA0154001602000000000000
B0605293222802S11700994EA0153701593000000000000
B0605333222713S11700977EA0153101599000000000000
B0605373222629S11700965EA0154201612000000000000
B0605413222544S11700955EA0154101602000000000000
B0605453222455S11700944EA0152501583000000000000
B0605493222364S11700931EA0151501577000000000000
B0605533222275S11700920EA0150501565000000000000
B0605573222185S11700907EA0149401555000000000000
B0606013222098S11700882EA0148901551000000000000
B0606053222011S11700853EA0148301542000000000000
B0606093221925S11700819EA0147801539000000000000
B0606133221844S11700787EA0147601538000000000000
B0606173221759S11700757EA0146901529000000000000
B0606213221671S11700739EA0146101519000000000000
B0606253221582S11700734EA0145701519000000000000
B0606293221495S11700734EA0145301513000000000000
B0606333221409S11700734EA0144801507000000000000
B0606373221321S11700734EA0144201499000000000000
B0606413221233S11700730EA0143301492000000000000
B0606453221144S11700722EA0142601485000000000000
B0606493221057S11700713EA0142101481000000000000
B0606533220973S11700705EA0142001482000000000000
B0606573220895S11700699EA0142101482000000000000
B0607013220818S11700693EA0141501476000000000000
B0607053220741S11700686EA0141101469000000000000
B0607093220664S11700676EA0140101459000000000000
B0607133220586S11700669EA0139201450000000000000
B0607173220508S11700666EA0138601448000000000000
B0607213220428S11700666EA0138001438000000000000
B0607253220346S11700661EA0137301434000000000000
B0607293220264S11700652EA0136901428000000000000
B0607333220182S11700643EA0136201421000000000000
B0607373220099S11700635EA0135401414000000000000
B0607413220017S11700631EA0135001411000000000000
B0607453219936S11700631EA0135001411000000000000
B0607493219858S11700630EA0134701407000000000000
B0607533219780S11700626EA0134101400000000000000
B0607573219704S11700617EA0133401393000000000000
B0608013219627S11700604EA0132401380000000000000
B0608053219550S11700595EA0131801379000000000000
B0608093219474S11700585EA0130901368000000000000
B0608133219396S11700579EA0130401367000000000000
B0608173219319S11700578EA0130501366000000000000
B0608213219241S11700576EA0130301367000000000000
B0608253219163S11700572EA0130901372000000000000
B0608293219084S11700565EA0131301379000000000000
B0608333219008S11700552EA0132801398000000000000
B0608373218939S11700545EA0135101415000000000000
B0608413218909S11700605EA0136001426000000000000
B0608453218958S11700650EA0136901441000000000000
B0608493219017S11700628EA0138001452000000000000
B0608533219042S11700561EA0139101461000000015000
B0608573219010S11700501EA0140401474000000015000
B0609013218952S11700505EA0141101480000000000000
B0609053218938S11700567EA0142101495000000000000
B0609093218978S11700614EA0143401501000000015000
B0609133219043S11700605EA0144001510000000015000
B0609173219078S11700541EA0144901518000000015000
B0609213219058S11700471EA0145501521000000015000
B0609253218997S11700449EA0145801532000000015000
B0609293218951S11700489EA0147201547000000015000
B0609333218956S11700556EA0147801544000000015000
B0609373219012S11700596EA0147801548000000015000
B0609413219076S11700566EA0148101551000000015000
B0609453219098S11700491EA0148701555000000015000
B0609493219068S11700419EA0148901555000000015000
B0609533219006S11700384EA0148701553000000015000
B0609573218939S11700401EA0149001556000000000000
B0610013218890S11700454EA0149401563000000000000
B0610053218867S11700524EA0150201578000000000000
B0610093218874S11700596EA0151501585000000000000
B0610133218913S11700653EA0151801584000000000000
B0610173218977S11700673EA0151801586000000000000
B0610213219043S11700656EA0152101590000000000000
B0610253219102S11700611EA0153001599000000015000
B0610293219123S11700537EA0153101594000000015000
B0610333219091S11700465EA0152401583000000015000
B0610373219026S11700440EA0152301588000000015000
B0610413218964S11700478EA0152501589000000015000
B0610453218935S11700557EA0153001596000000015000
B0610493218951S11700643EA0153401600000000015000
B0610533219002S11700705EA0154301615000000015000
B0610573219067S11700734EA0155601625000000000000
B0611013219134S11700714EA0156101627000000015000
B0611053219176S11700650EA0156101625000000015000
B0611093219168S11700567EA0155601616000000015000
B0611133219110S11700506EA0154401603000000015000
B0611173219026S11700480EA0153201587000000015000
B0611213218938S11700476EA0152801593000000015000
B0611253218850S11700484EA0153501601000000000000
B0611293218766S11700496EA0154401609000000000000
B0611333218682S11700511EA0154201599000000000000
B0611373218590S11700515EA0153201591000000000000
B0611413218496S11700511EA0152701586000000000000
B0611453218401S11700501EA0152001581000000000000
B0611493218308S11700487EA0151401573000000000000
B0611533218215S11700470EA0150801568000000000000
B0611573218124S11700448EA0150301560000000000000
B0612013218033S11700424EA0149601554000000000000
B0612053217944S11700400EA0148801547000000000000
B0612093217854S11700372EA0148101541000000000000
B0612133217767S11700345EA0147401533000000000000
B0612173217677S11700315EA0146601523000000000000
B0612213217589S11700285EA0146101521000000000000
B0612253217503S11700251EA0145401513000000000000
B0612293217417S11700215EA0144701505000000000000
B0612333217333S11700176EA0144101499000000000000
B0612373217249S11700133EA0143701494000000000000
B0612413217170S11700086EA0143101489000000000000
B0612453217091S11700036EA0142401482000000000000
B0612493217013S11659984EA0141601473000000000000
B0612533216936S11659933EA0140901468000000000000
B0612573216859S11659885EA0140601466000000000000
B0613013216784S11659839EA0140501464000000000000
B0613053216711S11659792EA0140101461000000000000
B0613093216638S11659742EA0139801456000000000000
B0613133216567S11659691EA0139301452000000000000
B0613173216495S11659639EA0138501442000000000000
B0613213216421S11659584EA0137501433000000000000
B0613253216346S11659531EA0137101430000000000000
B0613293216270S11659475EA0136201419000000000000
B0613333216195S11659422EA0135501413000000000000
B0613373216118S11659370EA0134901405000000000000
B0613413216040S11659318EA0134201397000000000000
B0613453215962S11659269EA0133701400000000000000
B0613493215887S11659223EA0134401403000000000000
B0613533215813S11659176EA0134601406000000000000
B0613573215741S11659131EA0134401406000000000000
B0614013215671S11659088EA0134801410000000000000
B0614053215601S11659045EA0134001398000000000000
B0614093215527S11659001EA0133001388000000000000
B0614133215454S11658953EA0132401385000000000000
B0614173215383S11658901EA0132401389000000000000
B0614213215314S11658850EA0133501404000000000000
B0614253215253S11658807EA0135901431000000000000
B0614293215195S11658768EA0137501443000000000000
B0614333215136S11658772EA0138201447000000000000
B0614373215120S11658841EA0138301449000000000000
B0614413215169S11658881EA0138901460000000000000
B0614453215219S11658850EA0139601462000000015000
B0614493215230S11658780EA0139601462000000015000
B0614533215195S11658713EA0139701462000000015000
B0614573215133S11658684EA0140001465000000015000
B0615013215073S11658713EA0140301471000000000000
B0615053215047S11658785EA0140401468000000000000
B0615093215058S11658864EA0140601473000000000000
B0615133215103S11658906EA0141701490000000015000
B0615173215149S11658880EA0142601493000000015000
B0615213215150S11658810EA0141901486000000015000
B0615253215102S11658755EA0141701485000000015000
B0615293215034S11658758EA0142201490000000015000
B0615333214991S11658816EA0142601491000000000000
B0615373215006S11658886EA0142401487000000015000
B0615413215064S11658911EA0142101488000000015000
B0615453215112S11658868EA0142401491000000015000
B0615493215107S11658795EA0142401489000000015000
B0615533215052S11658750EA0142301486000000015000
B0615573214980S11658734EA0141901480000000000000
B0616013214900S11658728EA0141401476000000000000
B0616053214818S11658726EA0140901468000000000000
B0616093214734S11658725EA0140101460000000000000
B0616133214651S11658725EA0139301449000000000000
B0616173214567S11658725EA0138301440000000000000
B0616213214484S11658724EA0137601436000000000000
B0616253214404S11658719EA0137301434000000000000
B0616293214322S11658706EA0137101430000000000000
B0616333214242S11658690EA0136601425000000000000
B0616373214166S11658671EA0136501425000000000000
B0616413214101S11658652EA0137301439000000000000
B0616453214042S11658638EA0137601436000000000000
B0616493213981S11658626EA0136501419000000000000
B0616533213914S11658616EA0135001405000000000000
B0616573213842S11658602EA0133701394000000000000
B0617013213771S11658585EA0133201392000000000000
B0617053213702S11658563EA0132801387000000000000
B0617093213630S11658542EA0132101378000000000000
B0617133213557S11658522EA0131101369000000000000
B0617173213485S11658496EA0130701367000000000000
B0617213213417S11658457EA0130601365000000000000
B0617253213351S11658413EA0130101360000000000000
B0617293213286S11658370EA0129701353000000000000
B0617333213217S11658330EA0128601342000000000000
B0617373213145S11658290EA0128001340000000000000
B0617413213076S11658252EA0128701350000000000000
B0617453213007S11658214EA0129501358000000000000
B0617493212939S11658186EA0130801368000000000000
B0617533212864S11658205EA0131201369000000000000
B0617573212836S11658281EA0132801399000000000000
B0618013212859S11658349EA0133901406000000000000
B0618053212919S11658375EA0134401412000000000000
B0618093212971S11658339EA0135601422000000015000
B0618133212975S11658270EA0135901420000000015000
B0618173212928S11658225EA0136101423000000015000
B0618213212866S11658240EA0136001423000000000000
B0618253212836S11658308EA0136401432000000000000
B0618293212855S11658379EA0137601443000000015000
B0618333212909S11658414EA0138101443000000015000
B0618373212967S11658388EA0137701438000000015000
B0618413212985S11658316EA0137601442000000015000
B0618453212953S11658253EA0137801443000000015000
B0618493212893S11658226EA0138301447000000015000
B0618533212831S11658247EA0139001458000000015000
B0618573212796S11658312EA0139601461000000000000
B0619013212815S11658386EA0140101465000000015000
B0619053212871S11658422EA0140301466000000015000
B0619093212933S11658401EA0139801458000000015000
B0619133212967S11658333EA0139801462000000015000
B0619173212948S11658264EA0140101465000000015000
B0619213212884S11658240EA0140101462000000015000
B0619253212816S11658273EA0140801479000000015000
B0619293212788S11658340EA0142701493000000015000
B0619333212809S11658409EA0143001492000000015000
B0619373212866S11658443EA0142701488000000015000
B0619413212928S11658418EA0142701489000000015000
B0619453212952S11658348EA0142401485000000015000
B0619493212935S11658274EA0141901478000000015000
B0619533212902S11658193EA0141301472000000015000
B0619573212863S11658112EA0141601480000000000000
B0620013212818S11658032EA0142101482000000000000
B0620053212775S11657949EA0142301485000000000000
B0620093212780S11657865EA0144001513000000000000
B0620133212836S11657837EA0146501534000000000000
B0620173212887S11657875EA0147701540000000000000
B0620213212898S11657954EA0147801539000000015000
B0620253212859S11658027EA0147901544000000015000
B0620293212794S11658053EA0149001561000000015000
B0620333212731S11658036EA0149801561000000015000
B0620373212679S11657987EA0148901546000000015000
B0620413212654S11657913EA0147701534000000000000
B0620453212667S11657831EA0146301520000000000000
B0620493212698S11657746EA0145801523000000000000
B0620533212738S11657667EA0146001523000000000000
B0620573212796S11657603EA0146301529000000000000
B0621013212866S11657584EA0147401545000000000000
B0621053212924S11657611EA0148801559000000000000
B0621093212961S11657666EA0149701562000000000000
B0621133212979S11657737EA0149701560000000000000
B0621173212972S11657816EA0149301557000000000000
B0621213212936S11657885EA0149301559000000000000
B0621253212880S11657936EA0149801565000000000000
B0621293212814S11657967EA0150501574000000000000
B0621333212744S11657983EA0150801573000000000000
B0621373212672S11657987EA0150601569000000000000
B0621413212599S11657976EA0149001551000000000000
B0621453212528S11657943EA0148101545000000000000
B0621493212461S11657893EA0148001545000000000000
B0621533212398S11657841EA0147901542000000000000
B0621573212338S11657785EA0147501535000000000000
B0622013212277S11657728EA0146301518000000000000
B0622053212209S11657671EA0144701504000000000000
B0622093212136S11657616EA0143601496000000000000
B0622133212062S11657559EA0143001488000000000000
B0622173211988S11657506EA0142301483000000000000
B0622213211914S11657454EA0141701477000000000000
B0622253211840S11657403EA0141201470000000000000
B0622293211766S11657355EA0140601464000000000000
B0622333211691S11657307EA0139901454000000000000
B0622373211614S11657260EA0138901446000000000000
B0622413211540S11657211EA0138301441000000000000
B0622453211468S11657164EA0137601435000000000000
B0622493211402S11657108EA0137001429000000000000
B0622533211342S11657042EA0136601427000000000000
B0622573211286S11656974EA0137101436000000000000
B0623013211233S11656909EA0138301445000000000000
B0623053211178S11656852EA0138901450000000000000
B0623093211117S11656799EA0138101434000000000000
B0623133211056S11656732EA0136701421000000000000
B0623173210999S11656657EA0135501413000000000000
B0623213210944S11656581EA0134901406000000000000
B0623253210890S11656506EA0134101397000000000000
B0623293210835S11656429EA0133001385000000000000
B0623333210779S11656351EA0132001374000000000000
B0623373210726S11656271EA0130901363000000000000
B0623413210673S11656190EA0129801351000000000000
B0623453210618S11656110EA0128201334000000000000
B0623493210563S11656028EA0126801324000000000000
B0623533210508S11655946EA0126701326000000000000
B0623573210449S11655868EA0127101333000000000000
B0624013210393S11655792EA0128601353000000000000
B0624053210340S11655727EA0130901374000000000000
B0624093210275S11655696EA0132201389000000000000
B0624133210215S11655722EA0133501405000000000000
B0624173210201S11655786EA0134701414000000000000
B0624213210236S11655833EA0135601429000000000000
B0624253210287S11655826EA0137201441000000015000
