ACAM4N6
HFDTE231020
HFFXA050
HFPLTPILOT:JOHN WELSH              
HFGTYGLIDERTYPE:HORNET      
HFGIDGLIDERID:VH-GMY      
HFDTM100GPSDATUM:
HFRFWFIRMWAREVERSION:F2.6
HFRHWHARDWAREVERSION:300 Series Version 2
HFFTYFRTYPE:CAMBRIDGE AERO INSTRUMENTS, 302+
HFGPS:GARMIN,LVS-25,12,18000
HFPRSPRESSALTSENSOR:INTERSEMA, MS5534-AP, 20000
I033638FXA3941ENL4247REX
LCAMSBVER:5FWVER:F26300
C231020042647231020000102
C0000000N00000000WTAKEOFF     
C3207547S11656879EBEVAIR      
C3301433S11652382EWilliams    
C3220283S11752282ECorrigin    
C3207547S11656879EBEVAIR      
C0000000N00000000WLANDING     
B0430423207337S11656860EA0018500203000000000000
B0430443207337S11656860EA0018600203000000000000
B0430463207337S11656860EA0018600203000000000000
B0430483207337S11656860EA0018600203000000000000
B0430503207337S11656860EA0018700203000000000000
B0430523207337S11656860EA0018700203000000000000
B0430543207337S11656860EA0018700203000000000000
B0430563207336S11656860EA0018700203000000000000
B0430583207336S11656860EA0018700203000000000000
B0431003207336S11656860EA0018600202000000000000
B0431023207336S11656860EA0018600202000000000000
B0431043207336S11656860EA0018600202000000000000
B0431063207336S11656860EA0018600202000000000000
B0431083207337S11656860EA0018600202000000000000
B0431103207337S11656861EA0018700202000000000000
B0431153207354S11656874EA0018700202000000000000
B0431193207385S11656897EA0018800202000000000000
B0431233207432S11656929EA0018900203000000000000
B0431273207492S11656965EA0019000204000000000000
B0431313207555S11657008EA0019600213000000000000
B0431353207622S11657057EA0020300217000000000000
B0431393207687S11657108EA0021300231000000000000
B0431433207750S11657151EA0023900262000000000000
B0431473207810S11657196EA0025900290000000000000
B0431513207870S11657244EA0028300315000000000000
B0431553207934S11657295EA0030500331000000000000
B0431593207997S11657351EA0032000351000000000000
B0432033208061S11657398EA0034400384000000000000
B0432073208121S11657439EA0038200422000000000000
B0432113208179S11657478EA0041400449000000000000
B0432153208239S11657519EA0043200464000000000000
B0432193208292S11657575EA0045200489000000000000
B0432233208330S11657644EA0048200520000000000000
B0432273208359S11657720EA0050700545000000000000
B0432313208378S11657801EA0053200568000000000000
B0432353208386S11657883EA0055200585000000000000
B0432393208379S11657969EA0057000604000000000000
B0432433208352S11658053EA0058500621000000000000
B0432473208305S11658132EA0060300637000000000000
B0432513208247S11658203EA0062400666000000000000
B0432553208183S11658256EA0066100702000000000000
B0432593208161S11658321EA0068500721000000000000
B0433033208204S11658336EA0069900730000000015000
B0433073208226S11658270EA0070400735000000015000
B0433113208194S11658196EA0071200749000000030000
B0433153208127S11658170EA0072300757000000030000
B0433193208084S11658219EA0073100768000000030000
B0433233208113S11658275EA0074000777000000030000
B0433273208166S11658256EA0075600794000000045000
B0433313208177S11658183EA0077100806000000045000
B0433353208134S11658119EA0077600815000000045000
B0433393208067S11658123EA0078500831000000045000
B0433433208039S11658178EA0080400848000000030000
B0433473208070S11658219EA0082000865000000030000
B0433513208112S11658183EA0083000873000000045000
B0433553208100S11658108EA0083900885000000045000
B0433593208038S11658075EA0084800891000000045000
B0434033207993S11658122EA0085900904000000030000
B0434073208019S11658171EA0087200922000000030000
B0434113208065S11658156EA0088900924000000045000
B0434153208067S11658086EA0089600930000000045000
B0434193208013S11658045EA0090500946000000045000
B0434233207965S11658076EA0092000959000000030000
B0434273207971S11658139EA0092300958000000030000
B0434313208019S11658135EA0093400981000000030000
B0434353208012S11658071EA0095100990000000045000
B0434393207952S11658050EA0095300993000000030000
B0434433207927S11658108EA0096001004000000030000
B0434473207970S11658134EA0097101013000000030000
B0434513207991S11658073EA0098201025000000045000
B0434553207939S11658024EA0099101035000000045000
B0434593207888S11658056EA0100101049000000030000
B0435033207904S11658108EA0101601059000000030000
B0435073207949S11658100EA0102701062000000030000
B0435113207976S11658040EA0103101065000000045000
B0435153207954S11657966EA0103301070000000045000
B0435193207892S11657940EA0104201081000000030000
B0435233207866S11657997EA0104901090000000030000
B0435273207901S11658031EA0105801099000000030000
B0435313207943S11657993EA0106901105000000045000
B0435353207932S11657917EA0107301109000000045000
B0435393207871S11657878EA0107601113000000045000
B0435433207817S11657917EA0106901102000000030000
B0435473207817S11657987EA0106201101000000030000
B0435513207848S11658047EA0106601108000000030000
B0435553207898S11658069EA0107901119000000045000
B0435593207921S11658005EA0109801141000000045000
B0436033207872S11657956EA0111501152000000045000
B0436073207832S11658001EA0112001157000000045000
B0436113207867S11658047EA0112501164000000045000
B0436153207914S11658005EA0113701178000000045000
B0436193207905S11657931EA0115201196000000045000
B0436233207850S11657904EA0116701212000000030000
B0436273207815S11657946EA0117601218000000030000
B0436313207841S11657993EA0118101223000000030000
B0436353207888S11657974EA0119301229000000030000
B0436393207896S11657906EA0120101229000000045000
B0436433207846S11657857EA0120101239000000030000
B0436473207788S11657872EA0121301253000000030000
B0436513207766S11657932EA0121501253000000030000
B0436553207792S11657988EA0122101264000000030000
B0436593207841S11657975EA0123501284000000030000
B0437033207850S11657905EA0124801289000000045000
B0437073207801S11657855EA0125801308000000030000
B0437113207748S11657881EA0127101317000000030000
B0437153207752S11657936EA0128001328000000030000
B0437193207800S11657927EA0129001334000000030000
B0437233207813S11657855EA0130201351000000045000
B0437273207767S11657797EA0131401362000000030000
B0437313207706S11657807EA0132301370000000030000
B0437353207696S11657863EA0132901376000000030000
B0437393207744S11657875EA0133101377000000030000
B0437433207771S11657809EA0134001388000000030000
B0437473207739S11657738EA0135101404000000030000
B0437513207677S11657733EA0136001406000000030000
B0437553207663S11657794EA0135301394000000030000
B0437593207714S11657814EA0135501405000000030000
B0438033207752S11657753EA0136001405000000045000
B0438073207744S11657663EA0136401412000000030000
B0438113207711S11657576EA0136101403000000030000
B0438153207667S11657488EA0134301381000000030000
B0438193207616S11657395EA0132401370000000015000
B0438233207559S11657308EA0132801384000000015000
B0438273207499S11657228EA0134601399000000015000
B0438313207440S11657151EA0134901399000000015000
B0438353207380S11657075EA0135201404000000015000
B0438393207324S11657001EA0135301401000000015000
B0438433207282S11656914EA0135101399000000015000
B0438473207299S11656830EA0135001398000000015000
B0438513207359S11656784EA0134301382000000015000
B0438553207437S11656780EA0132501371000000015000
B0438593207515S11656791EA0132001368000000015000
B0439033207593S11656801EA0131701361000000015000
B0439073207676S11656810EA0130301350000000015000
B0439113207759S11656814EA0129601338000000015000
B0439153207845S11656814EA0127601315000000015000
B0439193207934S11656814EA0125601298000000015000
B0439233208021S11656815EA0124401288000000015000
B0439273208106S11656817EA0123801281000000015000
B0439313208192S11656815EA0123201273000000015000
B0439353208275S11656812EA0122301264000000000000
B0439393208357S11656808EA0121801265000000000000
B0439433208437S11656804EA0121801261000000000000
B0439473208516S11656804EA0121301257000000000000
B0439513208595S11656804EA0121001252000000000000
B0439553208675S11656801EA0120201243000000000000
B0439593208756S11656799EA0119601239000000000000
B0440033208836S11656792EA0119501235000000000000
B0440073208915S11656782EA0118801233000000000000
B0440113208996S11656770EA0118701229000000000000
B0440153209076S11656758EA0117201208000000000000
B0440193209161S11656748EA0116301206000000000000
B0440233209244S11656740EA0116801212000000000000
B0440273209325S11656732EA0117101213000000000000
B0440313209404S11656726EA0116101196000000000000
B0440353209484S11656723EA0115001193000000000000
B0440393209564S11656721EA0115101190000000000000
B0440433209646S11656719EA0114801185000000000000
B0440473209728S11656719EA0114001178000000000000
B0440513209807S11656719EA0114101184000000000000
B0440553209884S11656718EA0113701169000000000000
B0440593209960S11656713EA0112501166000000000000
B0441033210032S11656706EA0113401177000000000000
B0441073210097S11656689EA0115201196000000000000
B0441113210115S11656620EA0117401217000000015000
B0441153210059S11656580EA0117801213000000015000
B0441193210017S11656632EA0117501215000000015000
B0441233210036S11656705EA0117401212000000015000
B0441273210089S11656754EA0117801220000000015000
B0441313210155S11656771EA0118601229000000030000
B0441353210223S11656770EA0119201229000000030000
B0441393210293S11656760EA0118301215000000015000
B0441433210366S11656750EA0116601198000000015000
B0441473210441S11656743EA0115201186000000015000
B0441513210517S11656739EA0113801170000000015000
B0441553210593S11656741EA0112801164000000015000
B0441593210670S11656747EA0111501149000000015000
B0442033210748S11656754EA0110501137000000015000
B0442073210826S11656762EA0110001127000000015000
B0442113210905S11656773EA0108901114000000015000
B0442153210982S11656784EA0107701104000000015000
B0442193211059S11656799EA0106401086000000015000
B0442233211137S11656810EA0104601070000000015000
B0442273211215S11656823EA0103101056000000000000
B0442313211294S11656835EA0102001051000000000000
B0442353211371S11656843EA0101701047000000000000
B0442393211444S11656851EA0101201043000000000000
B0442433211515S11656858EA0101001038000000000000
B0442473211583S11656865EA0100501037000000000000
B0442513211648S11656873EA0099901026000000000000
B0442553211713S11656880EA0098501010000000000000
B0442593211780S11656891EA0097401007000000000000
B0443033211841S11656899EA0097301006000000000000
B0443073211902S11656897EA0097401007000000000000
B0443113211936S11656840EA0099001027000000000000
B0443153211893S11656774EA0100201033000000015000
B0443193211832S11656792EA0100701040000000015000
B0443233211823S11656854EA0100401031000000015000
B0443273211862S11656904EA0100001033000000015000
B0443313211919S11656932EA0100201042000000015000
B0443353211960S11656892EA0102301067000000030000
B0443393211917S11656832EA0104301080000000030000
B0443433211865S11656861EA0105001086000000030000
B0443473211884S11656905EA0105501094000000030000
B0443513211932S11656882EA0106401105000000030000
B0443553211923S11656808EA0107801123000000060000
B0443593211860S11656797EA0109201135000000045000
B0444033211848S11656849EA0110101142000000045000
B0444073211884S11656857EA0111501145000000045000
B0444113211910S11656806EA0113001153000000045000
B0444153211878S11656736EA0114101161000000045000
B0444193211815S11656737EA0115001175000000060000
B0444233211802S11656793EA0116001186000000075000
B0444273211847S11656793EA0117301201000000075000
B0444313211854S11656719EA0118701213000000090000
B0444353211796S11656672EA0119901232000000075000
B0444393211745S11656709EA0121201247000000075000
B0444433211749S11656757EA0122601257000000075000
B0444473211798S11656753EA0122901261000000060000
B0444513211813S11656683EA0124201281000000060000
B0444553211754S11656641EA0125801297000000060000
B0444593211709S11656682EA0126701304000000075000
B0445033211735S11656722EA0127501315000000060000
B0445073211784S11656691EA0127801316000000090000
B0445113211769S11656609EA0129401336000000075000
B0445153211704S11656617EA0131401359000000060000
B0445193211697S11656671EA0132501367000000060000
B0445233211743S11656678EA0133601373000000060000
B0445273211770S11656620EA0134901381000000075000
B0445313211726S11656563EA0136201392000000075000
B0445353211672S11656594EA0136501403000000075000
B0445393211697S11656637EA0137801414000000090000
B0445433211737S11656591EA0138901432000000120000
B0445473211704S11656520EA0140701447000000135000
B0445513211644S11656535EA0141601466000000090000
B0445553211632S11656589EA0142901472000000060000
B0445593211678S11656606EA0143501481000000075000
B0446033211701S11656541EA0144701497000000090000
B0446073211653S11656487EA0146401512000000090000
B0446113211602S11656513EA0147601523000000060000
B0446153211623S11656555EA0148001525000000045000
B0446193211670S11656520EA0148601534000000075000
B0446233211652S11656442EA0150401561000000075000
B0446273211590S11656425EA0152601580000000045000
B0446313211564S11656467EA0153601585000000045000
B0446353211600S11656498EA0153801584000000045000
B0446393211642S11656451EA0154301594000000075000
B0446433211619S11656373EA0155901615000000075000
B0446473211557S11656368EA0158201636000000060000
B0446513211542S11656418EA0158901638000000060000
B0446553211589S11656438EA0159101642000000060000
B0446593211627S11656379EA0160301655000000075000
B0447033211587S11656307EA0161201671000000075000
B0447073211528S11656320EA0162901690000000045000
B0447113211528S11656368EA0164501695000000045000
B0447153211576S11656380EA0165101699000000060000
B0447193211607S11656316EA0166001710000000075000
B0447233211563S11656250EA0167401733000000045000
B0447273211510S11656260EA0169701754000000030000
B0447313211510S11656307EA0170801756000000045000
B0447353211561S11656316EA0171201765000000045000
B0447393211596S11656256EA0172701786000000045000
B0447433211566S11656186EA0175101809000000045000
B0447473211511S11656178EA0176901826000000045000
B0447513211496S11656224EA0178201837000000030000
B0447553211536S11656247EA0179201845000000030000
B0447593211580S11656201EA0180101855000000045000
B0448033211553S11656126EA0182201878000000045000
B0448073211496S11656123EA0183401892000000030000
B0448113211493S11656172EA0184801904000000030000
B0448153211537S11656189EA0185901912000000030000
B0448193211583S11656133EA0186901931000000045000
B0448233211562S11656059EA0189301954000000045000
B0448273211506S11656039EA0190801959000000045000
B0448313211483S11656081EA0191501966000000045000
B0448353211507S11656120EA0192701972000000045000
B0448393211571S11656125EA0191701969000000045000
B0448433211654S11656126EA0191101971000000045000
B0448473211737S11656137EA0190401963000000030000
B0448513211822S11656158EA0189201948000000030000
B0448553211906S11656184EA0188501943000000030000
B0448593211991S11656219EA0187501936000000030000
B0449033212074S11656255EA0186401927000000030000
B0449073212157S11656293EA0186101921000000030000
B0449113212234S11656336EA0185201914000000030000
B0449153212309S11656380EA0184701909000000030000
B0449193212383S11656422EA0184201902000000030000
B0449233212459S11656463EA0183301892000000030000
B0449273212534S11656505EA0182601885000000030000
B0449313212612S11656548EA0181801866000000030000
B0449353212694S11656592EA0180101852000000030000
B0449393212780S11656635EA0178801848000000030000
B0449433212867S11656676EA0177601840000000030000
B0449473212954S11656718EA0176501833000000030000
B0449513213039S11656757EA0175801828000000030000
B0449553213121S11656796EA0175301821000000030000
B0449593213200S11656834EA0174401817000000030000
B0450033213278S11656871EA0173801811000000030000
B0450073213358S11656909EA0172801808000000030000
B0450113213436S11656947EA0172901813000000030000
B0450153213516S11656987EA0171901807000000045000
B0450193213592S11657026EA0171101794000000045000
B0450233213669S11657062EA0170601784000000045000
B0450273213742S11657099EA0171401791000000045000
B0450313213808S11657138EA0171601795000000060000
B0450353213876S11657172EA0173501799000000060000
B0450393213924S11657205EA0176801817000000045000
B0450433213976S11657233EA0178501823000000045000
B0450473214033S11657254EA0179501828000000060000
B0450513214092S11657274EA0179901832000000060000
B0450553214154S11657299EA0179401827000000060000
B0450593214223S11657322EA0179101823000000075000
B0451033214293S11657345EA0178101819000000075000
B0451073214375S11657363EA0176201808000000060000
B0451113214460S11657380EA0174701791000000045000
B0451153214544S11657399EA0173701778000000045000
B0451193214631S11657419EA0172001760000000030000
B0451233214717S11657438EA0170901751000000030000
B0451273214803S11657455EA0170001745000000030000
B0451313214885S11657476EA0169201733000000030000
B0451353214968S11657499EA0168001724000000030000
B0451393215050S11657524EA0166701720000000030000
B0451433215129S11657550EA0165901708000000030000
B0451473215208S11657582EA0164701693000000030000
B0451513215285S11657611EA0164601692000000030000
B0451553215359S11657633EA0164801689000000030000
B0451593215435S11657651EA0163801676000000030000
B0452033215515S11657671EA0162401667000000030000
B0452073215598S11657694EA0161001659000000030000
B0452113215680S11657716EA0159601646000000030000
B0452153215765S11657740EA0158201637000000030000
B0452193215845S11657766EA0157201623000000030000
B0452233215929S11657790EA0155701610000000030000
B0452273216013S11657811EA0154501603000000030000
B0452313216092S11657831EA0154401602000000030000
B0452353216172S11657846EA0154201596000000030000
B0452393216252S11657858EA0154201602000000030000
B0452433216328S11657870EA0155101607000000015000
B0452473216400S11657879EA0156001609000000030000
B0452513216471S11657876EA0157201615000000030000
B0452553216532S11657875EA0158801621000000030000
B0452593216586S11657850EA0159801630000000030000
B0453033216634S11657807EA0160601639000000030000
B0453073216684S11657766EA0160601636000000030000
B0453113216737S11657727EA0161201640000000030000
B0453153216788S11657689EA0160901641000000030000
B0453193216853S11657649EA0159801639000000030000
B0453233216924S11657608EA0159401635000000030000
B0453273216995S11657573EA0160101638000000045000
B0453313217062S11657541EA0159601637000000045000
B0453353217135S11657508EA0157901633000000045000
B0453393217210S11657478EA0157001628000000045000
B0453433217288S11657451EA0156801625000000045000
B0453473217375S11657429EA0155701621000000045000
B0453513217460S11657403EA0155301618000000060000
B0453553217546S11657378EA0154201615000000060000
B0453593217635S11657360EA0152601600000000045000
B0454033217723S11657338EA0151801591000000045000
B0454073217807S11657313EA0151801596000000045000
B0454113217890S11657290EA0151501602000000045000
B0454153217972S11657263EA0150601603000000045000
B0454193218055S11657231EA0149701600000000045000
B0454233218137S11657200EA0148801598000000060000
B0454273218218S11657170EA0147901595000000060000
B0454313218296S11657140EA0147101587000000060000
B0454353218373S11657109EA0146601575000000060000
B0454393218447S11657077EA0146001550000000045000
B0454433218518S11657046EA0145901539000000030000
B0454473218591S11657012EA0145701526000000030000
B0454513218661S11656975EA0145001512000000015000
B0454553218733S11656942EA0144801505000000015000
B0454593218805S11656909EA0144501500000000015000
B0455033218882S11656883EA0144301492000000015000
B0455073218952S11656861EA0144801493000000015000
B0455113219029S11656849EA0144801494000000015000
B0455153219110S11656851EA0144401494000000015000
B0455193219192S11656854EA0143401489000000015000
B0455233219276S11656870EA0142701484000000015000
B0455273219359S11656893EA0142201474000000015000
B0455313219442S11656917EA0141301459000000015000
B0455353219523S11656944EA0140401449000000015000
B0455393219604S11656973EA0139701442000000015000
B0455433219682S11657000EA0139301443000000015000
B0455473219757S11657025EA0139301433000000015000
B0455513219832S11657056EA0137701415000000015000
B0455553219908S11657090EA0136101398000000015000
B0455593219985S11657126EA0134201377000000015000
B0456033220061S11657163EA0132701363000000015000
B0456073220137S11657205EA0131801347000000000000
B0456113220216S11657246EA0129801328000000000000
B0456153220297S11657285EA0128501318000000015000
B0456193220377S11657324EA0127301308000000015000
B0456233220460S11657361EA0126401303000000015000
B0456273220542S11657399EA0126701304000000015000
B0456313220622S11657434EA0126801301000000015000
B0456353220693S11657464EA0127901308000000015000
B0456393220763S11657491EA0127801306000000030000
B0456433220832S11657520EA0127601306000000030000
B0456473220898S11657545EA0128001312000000030000
B0456513220961S11657572EA0128801314000000030000
B0456553221030S11657595EA0128801319000000015000
B0456593221095S11657619EA0129101320000000015000
B0457033221161S11657641EA0129501328000000015000
B0457073221225S11657654EA0130801339000000015000
B0457113221287S11657647EA0131901347000000015000
B0457153221305S11657577EA0134101364000000015000
B0457193221249S11657558EA0135601376000000030000
B0457233221226S11657616EA0135901381000000030000
B0457273221266S11657657EA0137001389000000030000
B0457313221301S11657598EA0139401414000000045000
B0457353221262S11657541EA0141001432000000030000
B0457393221204S11657559EA0141901443000000030000
B0457433221197S11657625EA0142701461000000030000
B0457473221247S11657641EA0144701487000000045000
B0457513221266S11657572EA0146501498000000045000
B0457553221216S11657533EA0148101516000000045000
B0457593221166S11657567EA0149101520000000045000
B0458033221177S11657629EA0149801529000000045000
B0458073221234S11657629EA0151501549000000030000
B0458113221264S11657560EA0153301559000000045000
B0458153221234S11657533EA0155401567000000060000
B0458193221196S11657589EA0156801572000000075000
B0458233221230S11657634EA0158101583000000180000
B0458273221270S11657598EA0160001612000000165000
B0458313221244S11657528EA0162201640000000090000
B0458353221183S11657532EA0164101668000000060000
B0458393221174S11657589EA0165701686000000075000
B0458433221217S11657620EA0167101693000000090000
B0458473221262S11657579EA0168501706000000090000
B0458513221239S11657508EA0170501727000000090000
B0458553221184S11657517EA0172501741000000180000
B0458593221178S11657582EA0173901753000000225000
B0459033221227S11657608EA0175101777000000150000
B0459073221277S11657562EA0176301789000000105000
B0459113221249S11657484EA0178201813000000135000
B0459153221184S11657486EA0180501836000000225000
B0459193221170S11657549EA0183001857000000120000
B0459233221214S11657585EA0184301869000000045000
B0459273221257S11657528EA0185701898000000105000
B0459313221208S11657473EA0187701920000000090000
B0459353221161S11657524EA0189801948000000030000
B0459393221194S11657579EA0191601951000000030000
B0459433221253S11657543EA0191501958000000030000
B0459473221229S11657463EA0193201981000000015000
B0459513221158S11657468EA0195802006000000015000
B0459553221143S11657534EA0198102026000000015000
B0459593221195S11657569EA0198402017000000015000
B0500033221273S11657569EA0196902004000000015000
B0500073221365S11657560EA0196302000000000015000
B0500113221464S11657546EA0195502000000000015000
B0500153221569S11657528EA0193201989000000015000
B0500193221676S11657510EA0192101971000000015000
B0500233221786S11657503EA0190901955000000015000
B0500273221896S11657501EA0190001945000000015000
B0500313222005S11657502EA0188601927000000015000
B0500353222115S11657503EA0186901911000000000000
B0500393222217S11657499EA0187401923000000000000
B0500433222312S11657494EA0187801918000000015000
B0500473222400S11657488EA0187901923000000015000
B0500513222483S11657480EA0188201923000000015000
B0500553222565S11657472EA0188401927000000015000
B0500593222643S11657467EA0188201919000000015000
B0501033222725S11657458EA0187101908000000015000
B0501073222808S11657449EA0186201902000000015000
B0501113222891S11657441EA0185701897000000015000
B0501153222976S11657430EA0185301890000000000000
B0501193223060S11657426EA0184601887000000000000
B0501233223142S11657425EA0184501887000000000000
B0501273223222S11657428EA0184101882000000000000
B0501313223301S11657430EA0183701878000000000000
B0501353223379S11657432EA0183101870000000000000
B0501393223459S11657430EA0181101846000000000000
B0501433223544S11657428EA0179001827000000000000
B0501473223630S11657424EA0177901820000000000000
B0501513223712S11657413EA0177301808000000000000
B0501553223794S11657399EA0176101804000000000000
B0501593223872S11657380EA0175901805000000000000
B0502033223950S11657359EA0176001806000000000000
B0502073224025S11657333EA0176801816000000000000
B0502113224100S11657312EA0177701823000000000000
B0502153224181S11657299EA0177501824000000015000
B0502193224264S11657289EA0178401826000000015000
B0502233224338S11657286EA0179901829000000015000
B0502273224420S11657282EA0179001823000000015000
B0502313224506S11657282EA0178401818000000015000
B0502353224596S11657285EA0177601813000000030000
B0502393224680S11657289EA0179001814000000030000
B0502433224757S11657290EA0181001828000000015000
B0502473224837S11657285EA0180401817000000015000
B0502513224925S11657278EA0179001815000000015000
B0502553225013S11657277EA0178401812000000015000
B0502593225101S11657278EA0177201801000000015000
B0503033225195S11657278EA0175601788000000015000
B0503073225287S11657277EA0174501782000000015000
B0503113225377S11657276EA0173701776000000015000
B0503153225467S11657274EA0172801767000000015000
B0503193225554S11657277EA0172201766000000015000
B0503233225640S11657280EA0171301750000000015000
B0503273225731S11657278EA0169601732000000015000
B0503313225820S11657278EA0169401734000000015000
B0503353225909S11657282EA0169001736000000015000
B0503393225989S11657294EA0170401747000000015000
B0503433226072S11657299EA0170901750000000015000
B0503473226158S11657293EA0170701744000000015000
B0503513226244S11657273EA0170101739000000015000
B0503553226335S11657252EA0168901723000000015000
B0503593226426S11657231EA0168401722000000015000
B0504033226513S11657208EA0169201729000000015000
B0504073226595S11657186EA0170001731000000015000
B0504113226677S11657169EA0169701731000000015000
B0504153226755S11657153EA0169601732000000015000
B0504193226832S11657138EA0168801728000000015000
B0504233226911S11657126EA0168301726000000015000
B0504273226990S11657114EA0168101716000000015000
B0504313227073S11657104EA0166501695000000015000
B0504353227163S11657094EA0164401676000000015000
B0504393227253S11657085EA0163201671000000015000
B0504433227340S11657073EA0162901670000000015000
B0504473227423S11657064EA0162701667000000015000
B0504513227505S11657056EA0162001658000000015000
B0504553227586S11657053EA0161601659000000015000
B0504593227658S11657055EA0162301668000000015000
B0505033227726S11657057EA0162501653000000015000
B0505073227803S11657064EA0160501630000000000000
B0505113227886S11657068EA0159101624000000000000
B0505153227963S11657064EA0158801618000000000000
B0505193228043S11657053EA0157301605000000000000
B0505233228120S11657044EA0157401613000000000000
B0505273228194S11657033EA0156701586000000000000
B0505313228273S11657025EA0154701576000000015000
B0505353228353S11657022EA0154001574000000000000
B0505393228428S11657020EA0154601588000000000000
B0505433228498S11657017EA0156001599000000000000
B0505473228567S11657016EA0156501602000000000000
B0505513228633S11657016EA0156601601000000000000
B0505553228704S11657016EA0155601590000000000000
B0505593228775S11657014EA0155001588000000000000
B0506033228849S11657014EA0155001591000000000000
B0506073228923S11657013EA0155001591000000000000
B0506113229001S11657017EA0155001587000000000000
B0506153229083S11657020EA0154401580000000000000
B0506193229165S11657025EA0154401580000000000000
B0506233229248S11657027EA0154701587000000000000
B0506273229325S11657035EA0155801598000000000000
B0506313229398S11657048EA0156101593000000000000
B0506353229478S11657059EA0155101586000000015000
B0506393229560S11657064EA0155701597000000015000
B0506433229640S11657068EA0156501602000000015000
B0506473229718S11657079EA0156301589000000015000
B0506513229803S11657091EA0154701578000000015000
B0506553229891S11657095EA0154501580000000000000
B0506593229978S11657094EA0154501579000000000000
B0507033230065S11657094EA0153301563000000000000
B0507073230156S11657094EA0151801551000000000000
B0507113230244S11657095EA0151301549000000000000
B0507153230327S11657094EA0151601553000000000000
B0507193230408S11657090EA0151501551000000000000
B0507233230487S11657087EA0151101548000000000000
B0507273230564S11657086EA0150801547000000000000
B0507313230638S11657086EA0150601540000000000000
B0507353230713S11657088EA0149901538000000000000
B0507393230789S11657092EA0149401529000000000000
B0507433230868S11657096EA0147901510000000000000
B0507473230949S11657099EA0146501499000000000000
B0507513231029S11657103EA0145301487000000000000
B0507553231111S11657105EA0143901468000000000000
B0507593231194S11657100EA0142801461000000015000
B0508033231274S11657083EA0143201463000000015000
B0508073231345S11657074EA0144901481000000015000
B0508113231414S11657064EA0146501504000000000000
B0508153231466S11657025EA0148601523000000015000
B0508193231496S11656953EA0148401502000000015000
B0508233231557S11656899EA0146301488000000015000
B0508273231636S11656887EA0146701499000000015000
B0508313231714S11656886EA0148201506000000030000
B0508353231792S11656893EA0149301522000000015000
B0508393231864S11656905EA0150601530000000030000
B0508433231935S11656919EA0150501530000000015000
B0508473232013S11656940EA0149201521000000015000
B0508513232097S11656961EA0147601516000000015000
B0508553232180S11656983EA0146601504000000015000
B0508593232266S11657007EA0144301481000000015000
B0509033232349S11657026EA0144401487000000015000
B0509073232427S11657043EA0144401480000000015000
B0509113232509S11657060EA0143701473000000015000
B0509153232587S11657075EA0143601473000000015000
B0509193232666S11657085EA0145001480000000015000
B0509233232734S11657092EA0147501488000000015000
B0509273232803S11657103EA0148001492000000015000
B0509313232875S11657101EA0148001488000000030000
B0509353232949S11657094EA0147801488000000015000
B0509393233031S11657085EA0146301476000000015000
B0509433233120S11657077EA0144901469000000015000
B0509473233207S11657069EA0144501468000000015000
B0509513233295S11657060EA0143201451000000000000
B0509553233385S11657052EA0141601439000000000000
B0509593233477S11657043EA0139801419000000000000
B0510033233570S11657035EA0137601403000000000000
B0510073233662S11657026EA0136501395000000000000
B0510113233753S11657020EA0134901377000000000000
B0510153233844S11657013EA0133501365000000000000
B0510193233931S11657008EA0132901363000000000000
B0510233234015S11657001EA0132901362000000000000
B0510273234095S11656990EA0133701381000000000000
B0510313234170S11656973EA0134801386000000000000
B0510353234240S11656947EA0135801401000000000000
B0510393234307S11656916EA0137701421000000000000
B0510433234329S11656848EA0140401458000000000000
B0510473234279S11656821EA0143501474000000000000
B0510513234247S11656874EA0143801475000000000000
B0510553234283S11656914EA0145001494000000000000
B0510593234321S11656858EA0146801509000000000000
B0511033234285S11656793EA0148701534000000000000
B0511073234229S11656804EA0150701550000000000000
B0511113234218S11656862EA0151601555000000000000
B0511153234266S11656877EA0152701568000000015000
B0511193234294S11656813EA0154201587000000015000
B0511233234253S11656753EA0156201605000000015000
B0511273234195S11656771EA0157301614000000015000
B0511313234195S11656832EA0158301627000000015000
B0511353234247S11656840EA0160101645000000015000
B0511393234270S11656773EA0161801659000000015000
B0511433234222S11656719EA0163201674000000015000
B0511473234168S11656748EA0164201684000000000000
B0511513234177S11656804EA0165001695000000000000
B0511553234230S11656789EA0166401711000000000000
B0511593234231S11656717EA0168001728000000015000
B0512033234174S11656683EA0169201735000000000000
B0512073234129S11656721EA0170001741000000000000
B0512113234142S11656779EA0170801750000000000000
B0512153234191S11656775EA0172201766000000000000
B0512193234192S11656700EA0173601778000000015000
B0512233234132S11656676EA0175001792000000000000
B0512273234093S11656728EA0175901802000000000000
B0512313234114S11656783EA0177501817000000000000
B0512353234168S11656787EA0178201823000000000000
B0512393234214S11656731EA0179101829000000000000
B0512433234204S11656645EA0180701851000000015000
B0512473234143S11656606EA0182901871000000000000
B0512513234087S11656640EA0183601876000000000000
B0512553234083S11656706EA0184401893000000000000
B0512593234130S11656730EA0186301912000000000000
B0513033234170S11656679EA0187801921000000000000
B0513073234144S11656601EA0189201941000000015000
B0513113234078S11656587EA0190901953000000000000
B0513153234040S11656641EA0191801964000000000000
B0513193234061S11656697EA0192901973000000000000
B0513233234118S11656704EA0193301976000000000000
B0513273234182S11656671EA0193401973000000000000
B0513313234252S11656627EA0193101970000000000000
B0513353234320S11656574EA0193001970000000000000
B0513393234391S11656513EA0192501967000000000000
B0513433234463S11656449EA0192901970000000000000
B0513473234535S11656385EA0193301980000000000000
B0513513234604S11656332EA0194401983000000000000
B0513553234678S11656277EA0193001958000000000000
B0513593234762S11656224EA0191101942000000000000
B0514033234851S11656176EA0189601930000000000000
B0514073234941S11656134EA0189001927000000000000
B0514113235029S11656097EA0188201918000000000000
B0514153235119S11656063EA0187501913000000000000
B0514193235209S11656026EA0186601903000000000000
B0514233235300S11655990EA0185501893000000000000
B0514273235391S11655957EA0185301890000000000000
B0514313235482S11655925EA0185201898000000000000
B0514353235569S11655892EA0186501906000000000000
B0514393235660S11655859EA0186201899000000000000
B0514433235754S11655830EA0187101919000000000000
B0514473235842S11655799EA0188801932000000000000
B0514513235925S11655768EA0189901940000000000000
B0514553236012S11655751EA0189201930000000000000
B0514593236103S11655736EA0188301922000000000000
B0515033236197S11655723EA0187201908000000000000
B0515073236294S11655710EA0185401890000000000000
B0515113236396S11655695EA0183901868000000000000
B0515153236498S11655682EA0182401859000000000000
B0515193236597S11655674EA0181801853000000000000
B0515233236693S11655669EA0181001844000000000000
B0515273236786S11655660EA0180801846000000000000
B0515313236868S11655660EA0182701870000000000000
B0515353236947S11655656EA0183501872000000000000
B0515393237026S11655653EA0184201883000000000000
B0515433237106S11655651EA0185201893000000000000
B0515473237185S11655643EA0185501893000000000000
B0515513237267S11655639EA0184401873000000000000
B0515553237355S11655632EA0183101866000000000000
B0515593237444S11655618EA0183301873000000000000
B0516033237532S11655597EA0183001861000000000000
B0516073237622S11655577EA0181901852000000000000
B0516113237710S11655553EA0180801840000000000000
B0516153237797S11655530EA0179501828000000000000
B0516193237884S11655506EA0179101832000000000000
B0516233237971S11655484EA0180001839000000000000
B0516273238058S11655462EA0180501845000000000000
B0516313238146S11655444EA0180501840000000000000
B0516353238233S11655424EA0180501847000000000000
B0516393238320S11655404EA0180801845000000000000
B0516433238404S11655384EA0180701846000000000000
B0516473238490S11655363EA0180501843000000000000
B0516513238576S11655346EA0180401839000000000000
B0516553238660S11655331EA0179901839000000000000
B0516593238749S11655318EA0178601831000000015000
B0517033238838S11655307EA0178001821000000015000
B0517073238927S11655297EA0177701826000000015000
B0517113239010S11655283EA0178501832000000015000
B0517153239091S11655270EA0178801829000000015000
B0517193239175S11655257EA0177801813000000000000
B0517233239262S11655242EA0176701803000000000000
B0517273239349S11655229EA0175801796000000000000
B0517313239439S11655219EA0174901782000000000000
B0517353239530S11655209EA0173301765000000000000
B0517393239622S11655198EA0171701747000000000000
B0517433239713S11655176EA0170101735000000000000
B0517473239798S11655146EA0169701737000000000000
B0517513239877S11655122EA0170001736000000000000
B0517553239956S11655094EA0168901732000000000000
B0517593240037S11655067EA0168901733000000000000
B0518033240115S11655036EA0168801732000000015000
B0518073240190S11655002EA0168901732000000015000
B0518113240262S11654966EA0168701724000000000000
B0518153240333S11654927EA0168101716000000000000
B0518193240409S11654889EA0167401712000000000000
B0518233240483S11654851EA0167501718000000000000
B0518273240551S11654812EA0167801717000000000000
B0518313240622S11654781EA0166201691000000000000
B0518353240704S11654761EA0164401683000000000000
B0518393240783S11654745EA0164301680000000000000
B0518433240863S11654730EA0163301665000000000000
B0518473240939S11654717EA0163801671000000000000
B0518513241011S11654707EA0165101680000000000000
B0518553241080S11654694EA0165101677000000000000
B0518593241150S11654678EA0164101665000000000000
B0519033241224S11654659EA0163301662000000000000
B0519073241299S11654654EA0165001685000000000000
B0519113241358S11654689EA0167001702000000000000
B0519153241414S11654724EA0167801704000000000000
B0519193241480S11654713EA0167601706000000000000
B0519233241545S11654685EA0167501706000000000000
B0519273241615S11654652EA0167601709000000000000
B0519313241675S11654609EA0169501731000000000000
B0519353241732S11654563EA0170501740000000000000
B0519393241760S11654491EA0172101759000000000000
B0519433241721S11654436EA0174101777000000000000
B0519473241671S11654462EA0174701783000000000000
B0519513241684S11654522EA0175501794000000000000
B0519553241739S11654530EA0176601806000000000000
B0519593241773S11654472EA0177801818000000015000
B0520033241754S11654400EA0178601821000000015000
B0520073241695S11654369EA0178901829000000000000
B0520113241644S11654400EA0180001840000000000000
B0520153241643S11654460EA0181101852000000000000
B0520193241692S11654492EA0181401852000000000000
B0520233241763S11654482EA0180801838000000000000
B0520273241845S11654462EA0179401826000000000000
B0520313241934S11654436EA0178101812000000000000
B0520353242027S11654407EA0176601798000000000000
B0520393242124S11654375EA0175401783000000000000
B0520433242220S11654345EA0174401778000000000000
B0520473242315S11654316EA0173901772000000000000
B0520513242410S11654283EA0173201768000000000000
B0520553242501S11654251EA0172701758000000000000
B0520593242592S11654214EA0171201746000000000000
B0521033242680S11654176EA0170401738000000000000
B0521073242767S11654137EA0169301726000000000000
B0521113242854S11654098EA0168001713000000000000
B0521153242939S11654059EA0167101703000000000000
B0521193243019S11654022EA0166901704000000000000
B0521233243097S11653988EA0166201694000000000000
B0521273243175S11653954EA0165201687000000000000
B0521313243252S11653919EA0164401679000000000000
B0521353243327S11653883EA0164401683000000000000
B0521393243403S11653849EA0164401683000000000000
B0521433243477S11653816EA0164501683000000000000
B0521473243551S11653781EA0164701688000000000000
B0521513243624S11653746EA0165101688000000000000
B0521553243697S11653711EA0164701686000000000000
B0521593243769S11653679EA0164501683000000000000
B0522033243846S11653645EA0164101682000000000000
B0522073243923S11653602EA0164301682000000000000
B0522113243998S11653554EA0162901661000000000000
B0522153244077S11653508EA0162001655000000000000
B0522193244158S11653467EA0161301649000000000000
B0522233244241S11653433EA0160801645000000000000
B0522273244327S11653412EA0160901647000000000000
B0522313244409S11653398EA0161501655000000000000
B0522353244486S11653387EA0162201665000000000000
B0522393244549S11653381EA0163501679000000000000
B0522433244610S11653373EA0162901660000000000000
B0522473244682S11653370EA0160701633000000000000
B0522513244764S11653369EA0158701618000000000000
B0522553244846S11653372EA0157701609000000000000
B0522593244929S11653383EA0156901603000000000000
B0523033245011S11653407EA0156401597000000000000
B0523073245093S11653434EA0155701586000000000000
B0523113245173S11653468EA0154901583000000000000
B0523153245250S11653503EA0154401576000000000000
B0523193245328S11653541EA0153101558000000000000
B0523233245409S11653578EA0151801549000000000000
B0523273245489S11653617EA0150601535000000000000
B0523313245571S11653658EA0149201522000000000000
B0523353245653S11653698EA0148401516000000000000
B0523393245734S11653740EA0148001509000000000000
B0523433245814S11653783EA0147101500000000000000
B0523473245897S11653824EA0146101489000000000000
B0523513245982S11653864EA0145101480000000000000
B0523553246066S11653905EA0144401473000000000000
B0523593246150S11653948EA0143801467000000000000
B0524033246232S11653988EA0143501464000000000000
B0524073246316S11654031EA0142401451000000000000
B0524113246399S11654074EA0141701445000000000000
B0524153246482S11654115EA0140401428000000000000
B0524193246567S11654154EA0138901418000000000000
B0524233246650S11654192EA0138301414000000000000
B0524273246732S11654230EA0137801408000000000000
B0524313246815S11654265EA0136701393000000000000
B0524353246898S11654291EA0136601401000000000000
B0524393246976S11654310EA0137201404000000000000
B0524433247056S11654316EA0136501395000000015000
B0524473247136S11654314EA0135201388000000015000
B0524513247221S11654306EA0135001382000000015000
B0524553247303S11654292EA0135801385000000015000
B0524593247378S11654275EA0137601393000000030000
B0525033247451S11654251EA0137701396000000030000
B0525073247520S11654213EA0137801396000000030000
B0525113247590S11654176EA0137301391000000030000
B0525153247663S11654149EA0136701385000000045000
B0525193247742S11654127EA0135801382000000030000
B0525233247825S11654106EA0134901374000000030000
B0525273247916S11654095EA0133501354000000030000
B0525313248007S11654088EA0132101348000000015000
B0525353248098S11654084EA0131201335000000015000
B0525393248189S11654078EA0129801320000000015000
B0525433248280S11654074EA0128401308000000015000
B0525473248369S11654069EA0127501300000000015000
B0525513248455S11654065EA0126601293000000000000
B0525553248539S11654058EA0126101286000000000000
B0525593248624S11654050EA0124901270000000000000
B0526033248711S11654048EA0123101252000000000000
B0526073248799S11654045EA0121401237000000000000
B0526113248886S11654046EA0119801223000000000000
B0526153248971S11654049EA0118701211000000000000
B0526193249054S11654053EA0117501200000000000000
B0526233249137S11654058EA0116601192000000000000
B0526273249219S11654066EA0115801182000000000000
B0526313249301S11654074EA0114901173000000000000
B0526353249384S11654085EA0113701161000000000000
B0526393249469S11654095EA0112501149000000000000
B0526433249549S11654104EA0111601141000000000000
B0526473249630S11654113EA0110601130000000000000
B0526513249710S11654126EA0110101129000000000000
B0526553249779S11654139EA0110801137000000000000
B0526593249848S11654144EA0110801133000000000000
B0527033249914S11654137EA0111101141000000000000
B0527073249978S11654123EA0111701148000000000000
B0527113250037S11654096EA0112601159000000000000
B0527153250094S11654072EA0113801175000000000000
B0527193250142S11654096EA0115201185000000000000
B0527233250128S11654160EA0116401201000000000000
B0527273250067S11654178EA0117901218000000000000
B0527313250009S11654136EA0119101225000000000000
B0527353249990S11654058EA0119401226000000000000
B0527393250011S11653980EA0119801226000000015000
B0527433250064S11653928EA0120001238000000015000
B0527473250124S11653898EA0121801259000000015000
B0527513250180S11653914EA0124001284000000015000
B0527553250185S11653974EA0126301300000000015000
B0527593250130S11654000EA0127301311000000015000
B0528033250078S11653957EA0128701327000000015000
B0528073250080S11653883EA0130401343000000015000
B0528113250128S11653841EA0131501357000000015000
B0528153250185S11653854EA0132801371000000015000
B0528193250217S11653906EA0134301383000000015000
B0528233250216S11653972EA0135401394000000015000
B0528273250182S11654027EA0137001417000000015000
B0528313250129S11654037EA0139201434000000015000
B0528353250080S11654002EA0140201441000000015000
B0528393250060S11653932EA0140701446000000015000
B0528433250089S11653866EA0142101462000000015000
B0528473250145S11653853EA0143601484000000015000
B0528513250187S11653893EA0145301498000000015000
B0528553250194S11653959EA0146601507000000015000
B0528593250156S11654009EA0148001525000000015000
B0529033250100S11654002EA0149701537000000015000
B0529073250067S11653946EA0150601546000000015000
B0529113250090S11653887EA0152301569000000015000
B0529153250139S11653887EA0154501590000000015000
B0529193250172S11653936EA0156001600000000015000
B0529233250167S11654004EA0157301616000000015000
B0529273250128S11654049EA0158701634000000015000
B0529313250073S11654044EA0160001637000000015000
B0529353250037S11653989EA0160101642000000015000
B0529393250037S11653919EA0161101653000000015000
B0529433250076S11653868EA0162901675000000015000
B0529473250124S11653887EA0165101698000000015000
B0529513250129S11653954EA0167001709000000015000
B0529553250081S11653998EA0168101724000000015000
B0529593250024S11653981EA0169501737000000015000
B0530033250000S11653919EA0170701748000000015000
B0530073250029S11653857EA0171501758000000015000
B0530113250090S11653840EA0172501770000000015000
B0530153250147S11653880EA0173501777000000015000
B0530193250165S11653959EA0174901797000000015000
B0530233250134S11654032EA0176401802000000015000
B0530273250068S11654059EA0177101813000000015000
B0530313250008S11654031EA0178001818000000015000
B0530353249978S11653962EA0178101819000000015000
B0530393249996S11653883EA0178301821000000015000
B0530433250052S11653828EA0179401836000000015000
B0530473250120S11653797EA0180701849000000015000
B0530513250191S11653784EA0182101862000000000000
B0530553250269S11653776EA0182701867000000000000
B0530593250351S11653771EA0182601859000000000000
B0531033250436S11653770EA0181401846000000000000
B0531073250525S11653771EA0179901827000000000000
B0531113250616S11653773EA0178001809000000000000
B0531153250711S11653775EA0176301791000000000000
B0531193250805S11653772EA0175101785000000000000
B0531233250897S11653767EA0174801783000000000000
B0531273250984S11653758EA0174801784000000000000
B0531313251070S11653747EA0174501783000000000000
B0531353251153S11653734EA0174101779000000000000
B0531393251237S11653721EA0173301767000000015000
B0531433251322S11653707EA0172501765000000015000
B0531473251406S11653689EA0171601749000000015000
B0531513251491S11653668EA0170001732000000015000
B0531553251580S11653650EA0168501714000000015000
B0531593251668S11653633EA0167301708000000015000
B0532033251754S11653611EA0166301695000000015000
B0532073251841S11653590EA0165201683000000015000
B0532113251927S11653569EA0164301673000000015000
B0532153252011S11653551EA0163101658000000015000
B0532193252098S11653533EA0161401644000000015000
B0532233252184S11653516EA0160001627000000000000
B0532273252270S11653497EA0158101607000000000000
B0532313252358S11653480EA0155301577000000000000
B0532353252449S11653460EA0152801554000000000000
B0532393252538S11653441EA0151701548000000000000
B0532433252622S11653424EA0152201557000000000000
B0532473252703S11653404EA0153301572000000000000
B0532513252782S11653382EA0154301571000000000000
B0532553252862S11653356EA0154201576000000000000
B0532593252941S11653330EA0154401575000000000000
B0533033253023S11653308EA0154101571000000000000
B0533073253109S11653285EA0153301562000000000000
B0533113253198S11653265EA0152601555000000000000
B0533153253288S11653246EA0152401556000000000000
B0533193253379S11653226EA0151701544000000000000
B0533233253471S11653205EA0150701535000000000000
B0533273253561S11653185EA0150501538000000000000
B0533313253644S11653157EA0150501535000000000000
B0533353253726S11653130EA0148901515000000000000
B0533393253809S11653104EA0147501506000000000000
B0533433253891S11653078EA0146801499000000000000
B0533473253973S11653053EA0146201496000000000000
B0533513254055S11653027EA0146501500000000000000
B0533553254134S11653001EA0147701514000000000000
B0533593254208S11652970EA0149201529000000000000
B0534033254280S11652940EA0149901529000000000000
B0534073254353S11652905EA0149801529000000000000
B0534113254427S11652871EA0150101534000000000000
B0534153254498S11652837EA0151101544000000015000
B0534193254570S11652809EA0151601549000000000000
B0534233254644S11652780EA0152201554000000000000
B0534273254719S11652756EA0151901546000000000000
B0534313254801S11652735EA0151001533000000000000
B0534353254887S11652713EA0148901505000000000000
B0534393254975S11652689EA0146101481000000000000
B0534433255066S11652675EA0145101480000000000000
B0534473255153S11652674EA0145101479000000000000
B0534513255239S11652672EA0145301489000000000000
B0534553255319S11652679EA0146601501000000000000
B0534593255397S11652683EA0146901495000000000000
B0535033255478S11652684EA0145701483000000000000
B0535073255563S11652685EA0144701475000000015000
B0535113255646S11652684EA0144301472000000015000
B0535153255728S11652685EA0144201469000000015000
B0535193255811S11652689EA0144401470000000015000
B0535233255892S11652693EA0145201474000000015000
B0535273255971S11652702EA0144601468000000015000
B0535313256052S11652713EA0143601458000000015000
B0535353256132S11652730EA0141901448000000015000
B0535393256213S11652754EA0140501440000000015000
B0535433256291S11652776EA0140101437000000015000
B0535473256368S11652801EA0139801437000000015000
B0535513256440S11652821EA0141001446000000015000
B0535553256511S11652832EA0141901437000000015000
B0535593256589S11652852EA0140501423000000015000
B0536033256667S11652878EA0139801422000000015000
B0536073256739S11652906EA0140801440000000015000
B0536113256806S11652938EA0141801445000000015000
B0536153256876S11652971EA0141901448000000000000
B0536193256947S11653004EA0142401452000000000000
B0536233257018S11653030EA0142601453000000000000
B0536273257090S11653057EA0141901443000000000000
B0536313257167S11653083EA0140601428000000000000
B0536353257245S11653113EA0139301418000000000000
B0536393257323S11653146EA0138301408000000000000
B0536433257401S11653177EA0139101423000000000000
B0536473257477S11653207EA0140001427000000000000
B0536513257555S11653238EA0139801419000000000000
B0536553257633S11653270EA0138701408000000000000
B0536593257711S11653307EA0137901402000000000000
B0537033257786S11653346EA0137901408000000000000
B0537073257855S11653381EA0138801418000000000000
B0537113257924S11653415EA0139001416000000000000
B0537153257995S11653450EA0138701411000000000000
B0537193258069S11653484EA0138301412000000000000
B0537233258137S11653515EA0139601435000000000000
B0537273258195S11653539EA0142801472000000000000
B0537313258246S11653525EA0145301484000000000000
B0537353258246S11653454EA0145401477000000000000
B0537393258181S11653434EA0145201488000000000000
B0537433258127S11653474EA0147101512000000000000
B0537473258119S11653538EA0149201530000000000000
B0537513258168S11653549EA0150901548000000015000
B0537553258193S11653489EA0152101554000000015000
B0537593258160S11653429EA0152501561000000015000
B0538033258101S11653432EA0154001581000000015000
B0538073258072S11653486EA0155701594000000015000
B0538113258111S11653520EA0157401615000000015000
B0538153258145S11653463EA0158901628000000015000
B0538193258114S11653396EA0160101640000000015000
B0538233258052S11653403EA0161901659000000015000
B0538273258037S11653469EA0162401659000000015000
B0538313258088S11653489EA0164401685000000015000
B0538353258099S11653413EA0166501704000000015000
B0538393258043S11653377EA0168701727000000015000
B0538433257997S11653419EA0169401727000000015000
B0538473258008S11653486EA0169801743000000015000
B0538513258062S11653471EA0172201769000000015000
B0538553258050S11653398EA0174501789000000015000
B0538593257990S11653383EA0176001796000000015000
B0539033257959S11653445EA0176101797000000015000
B0539073257995S11653500EA0177101817000000015000
B0539113258054S11653484EA0179701844000000015000
B0539153258065S11653408EA0181901861000000015000
B0539193258016S11653361EA0183301874000000015000
B0539233257960S11653382EA0184401883000000015000
B0539273257942S11653445EA0185601896000000015000
B0539313257980S11653489EA0187401919000000015000
B0539353258030S11653463EA0189201938000000015000
B0539393258029S11653390EA0190901954000000015000
B0539433257977S11653356EA0192701968000000015000
B0539473257934S11653403EA0193301968000000015000
B0539513257964S11653467EA0194201978000000015000
B0539553258039S11653481EA0193901969000000015000
B0539593258125S11653465EA0193001961000000015000
B0540033258219S11653441EA0191601940000000015000
B0540073258318S11653412EA0189901924000000015000
B0540113258419S11653383EA0188601912000000000000
B0540153258519S11653347EA0187301900000000000000
B0540193258621S11653313EA0186301897000000015000
B0540233258721S11653287EA0186301897000000015000
B0540273258818S11653266EA0186401898000000015000
B0540313258916S11653250EA0186101890000000015000
B0540353259013S11653233EA0185301876000000015000
B0540393259112S11653212EA0183801866000000015000
B0540433259209S11653191EA0182901858000000000000
B0540473259308S11653174EA0182101851000000000000
B0540513259404S11653162EA0181601846000000000000
B0540553259499S11653151EA0180801837000000000000
B0540593259597S11653136EA0180101827000000000000
B0541033259690S11653120EA0179601825000000000000
B0541073259783S11653103EA0179301821000000000000
B0541113259870S11653086EA0179101818000000000000
B0541153259956S11653062EA0178101813000000000000
B0541193300039S11653039EA0177801807000000000000
B0541233300123S11653016EA0177001799000000000000
B0541273300209S11652987EA0175801787000000000000
B0541313300296S11652956EA0174701775000000000000
B0541353300382S11652919EA0173701768000000000000
B0541393300465S11652882EA0173101757000000000000
B0541433300548S11652845EA0172101751000000000000
B0541473300630S11652813EA0171501745000000000000
B0541513300710S11652783EA0170901740000000000000
B0541553300789S11652754EA0170001727000000000000
B0541593300870S11652723EA0168701716000000000000
B0542033300950S11652696EA0167901706000000000000
B0542073301032S11652668EA0166801697000000000000
B0542113301115S11652640EA0166401694000000000000
B0542153301197S11652611EA0166001691000000000000
B0542193301279S11652581EA0165501682000000000000
B0542233301361S11652544EA0164501673000000000000
B0542273301438S11652497EA0164001671000000000000
B0542313301505S11652442EA0163901673000000000000
B0542353301564S11652379EA0164301677000000000000
B0542393301614S11652312EA0163901671000000000000
B0542433301678S11652267EA0162701654000000000000
B0542473301748S11652293EA0160901638000000000000
B0542513301778S11652372EA0159601627000000000000
B0542553301768S11652462EA0158501613000000000000
B0542593301734S11652549EA0157201601000000000000
B0543033301692S11652632EA0156201593000000000000
B0543073301647S11652713EA0155201580000000000000
B0543113301598S11652793EA0153801567000000000000
B0543153301547S11652875EA0152201552000000000000
B0543193301492S11652956EA0151301544000000000000
B0543233301440S11653034EA0150301537000000000000
B0543273301390S11653109EA0149501532000000015000
B0543313301343S11653186EA0148301523000000015000
B0543353301296S11653264EA0147501519000000015000
B0543393301252S11653342EA0146501512000000015000
B0543433301209S11653425EA0145001504000000015000
B0543473301170S11653512EA0143901491000000015000
B0543513301137S11653599EA0143301482000000015000
B0543553301107S11653689EA0141701474000000015000
B0543593301083S11653781EA0140101463000000015000
B0544033301063S11653875EA0138701452000000030000
B0544073301045S11653967EA0137701442000000030000
B0544113301027S11654058EA0137201433000000030000
B0544153301013S11654143EA0137901434000000030000
B0544193300998S11654225EA0138201434000000030000
B0544233300988S11654305EA0138101426000000030000
B0544273300983S11654383EA0138701427000000015000
B0544313301000S11654452EA0140201436000000030000
B0544353301035S11654512EA0141601449000000045000
B0544393301092S11654530EA0143601466000000060000
B0544433301123S11654469EA0144801476000000075000
B0544473301093S11654404EA0145501481000000045000
B0544513301029S11654396EA0144901472000000030000
B0544553300972S11654444EA0143901471000000045000
B0544593300931S11654513EA0144901484000000030000
B0545033300893S11654583EA0146301490000000030000
B0545073300854S11654652EA0147801499000000045000
B0545113300812S11654720EA0149101508000000045000
B0545153300768S11654789EA0150001518000000045000
B0545193300723S11654860EA0150201524000000030000
B0545233300677S11654937EA0150001525000000030000
B0545273300634S11655019EA0150501530000000030000
B0545313300589S11655098EA0151001533000000030000
B0545353300548S11655180EA0150901532000000015000
B0545393300511S11655265EA0150501529000000015000
B0545433300467S11655344EA0149901524000000015000
B0545473300418S11655421EA0149401520000000015000
B0545513300368S11655495EA0149001515000000015000
B0545553300313S11655570EA0148301506000000015000
B0545593300253S11655645EA0147401501000000015000
B0546033300195S11655718EA0147201502000000015000
B0546073300132S11655791EA0147201503000000015000
B0546113300073S11655865EA0147601510000000015000
B0546153300018S11655934EA0149001516000000030000
B0546193259965S11655999EA0148401511000000030000
B0546233259906S11656065EA0146701498000000030000
B0546273259846S11656129EA0145401490000000030000
B0546313259787S11656194EA0143801483000000030000
B0546353259727S11656256EA0143101471000000015000
B0546393259667S11656316EA0142001456000000015000
B0546433259609S11656380EA0140701441000000015000
B0546473259553S11656445EA0139801435000000015000
B0546513259502S11656513EA0139201429000000015000
B0546553259455S11656581EA0138501422000000000000
B0546593259408S11656649EA0137601412000000000000
B0547033259365S11656717EA0136801404000000000000
B0547073259324S11656786EA0136501405000000000000
B0547113259286S11656851EA0136801403000000000000
B0547153259250S11656918EA0136501400000000000000
B0547193259226S11656990EA0136501407000000000000
B0547233259215S11657056EA0137101407000000000000
B0547273259202S11657130EA0135401383000000000000
B0547313259180S11657212EA0133301364000000000000
B0547353259148S11657293EA0131601347000000000000
B0547393259112S11657373EA0129801331000000000000
B0547433259070S11657450EA0128501319000000000000
B0547473259029S11657527EA0127801312000000000000
B0547513258988S11657605EA0127101303000000000000
B0547553258947S11657683EA0126201296000000000000
B0547593258903S11657757EA0125201283000000000000
B0548033258858S11657836EA0123901271000000000000
B0548073258818S11657915EA0123101263000000000000
B0548113258779S11657993EA0122001251000000000000
B0548153258741S11658073EA0120801240000000000000
B0548193258704S11658153EA0120101232000000000000
B0548233258666S11658234EA0119301225000000000000
B0548273258628S11658314EA0118501212000000000000
B0548313258589S11658395EA0117601207000000000000
B0548353258552S11658478EA0117201206000000000000
B0548393258514S11658563EA0117101204000000000000
B0548433258476S11658643EA0116901202000000000000
B0548473258437S11658721EA0116501196000000000000
B0548513258398S11658795EA0116301195000000000000
B0548553258357S11658869EA0116001191000000000000
B0548593258312S11658942EA0115701193000000000000
B0549033258270S11659015EA0115701185000000000000
B0549073258231S11659090EA0114301168000000000000
B0549113258195S11659168EA0113201161000000000000
B0549153258160S11659246EA0112301150000000000000
B0549193258128S11659323EA0111701148000000000000
B0549233258095S11659401EA0111101136000000000000
B0549273258062S11659477EA0110001130000000000000
B0549313258028S11659551EA0109101116000000000000
B0549353257993S11659626EA0107401102000000000000
B0549393257959S11659703EA0107001102000000000000
B0549433257928S11659782EA0106901101000000000000
B0549473257896S11659863EA0106401093000000000000
B0549513257869S11659950EA0105201079000000000000
B0549553257844S11700039EA0104201069000000000000
B0549593257816S11700130EA0103201063000000000000
B0550033257790S11700220EA0102501051000000000000
B0550073257768S11700311EA0101001037000000000000
B0550113257750S11700401EA0100301033000000000000
B0550153257733S11700487EA0099701029000000000000
B0550193257712S11700570EA0099201017000000000000
B0550233257691S11700654EA0097701005000000000000
B0550273257666S11700739EA0097101002000000000000
B0550313257636S11700818EA0096600993000000000000
B0550353257605S11700897EA0095600985000000000000
B0550393257575S11700979EA0095000981000000000000
B0550433257548S11701061EA0094500972000000000000
B0550473257521S11701146EA0093400962000000000000
B0550513257495S11701232EA0092700952000000000000
B0550553257469S11701319EA0091400939000000000000
B0550593257443S11701406EA0090100926000000000000
B0551033257419S11701497EA0089000915000000000000
B0551073257397S11701586EA0088100907000000000000
B0551113257375S11701676EA0087000894000000000000
B0551153257349S11701765EA0085500881000000000000
B0551193257326S11701850EA0085100881000000000000
B0551233257304S11701932EA0085800894000000000000
B0551273257300S11702012EA0086900901000000000000
B0551313257319S11702086EA0086900899000000000000
B0551353257354S11702149EA0087000901000000000000
B0551393257401S11702205EA0086300892000000000000
B0551433257447S11702264EA0086200894000000000000
B0551473257491S11702322EA0086200894000000000000
B0551513257538S11702378EA0085500882000000000000
B0551553257584S11702442EA0083700863000000000000
B0551593257629S11702511EA0082700854000000000000
B0552033257669S11702582EA0081700841000000000000
B0552073257707S11702655EA0080400828000000000000
B0552113257747S11702724EA0079300821000000000000
B0552153257794S11702785EA0079400822000000000000
B0552193257851S11702821EA0080400836000000000000
B0552233257913S11702827EA0081500846000000000000
B0552273257974S11702825EA0082400854000000000000
B0552313258023S11702789EA0083700871000000000000
B0552353258007S11702724EA0084900875000000000000
B0552393257945S11702717EA0084300867000000000000
B0552433257916S11702780EA0084800879000000000000
B0552473257955S11702819EA0085900894000000015000
B0552513258002S11702782EA0086800899000000015000
B0552553257991S11702711EA0087400904000000015000
B0552593257932S11702685EA0087400901000000015000
B0553033257885S11702736EA0087200908000000015000
B0553073257904S11702790EA0088900929000000015000
B0553113257959S11702782EA0089600923000000015000
B0553153257984S11702708EA0089300926000000015000
B0553193257948S11702638EA0089800932000000015000
B0553233257878S11702616EA0089700926000000015000
B0553273257815S11702662EA0089900934000000015000
B0553313257817S11702727EA0091600953000000015000
B0553353257869S11702754EA0092200952000000015000
B0553393257937S11702747EA0092400957000000015000
B0553433257972S11702690EA0093400964000000015000
B0553473257935S11702626EA0093500966000000015000
B0553513257865S11702628EA0093700971000000015000
B0553553257803S11702660EA0094300982000000015000
B0553593257798S11702721EA0095700994000000015000
B0554033257851S11702716EA0096701001000000015000
B0554073257841S11702643EA0097901017000000015000
B0554113257783S11702645EA0098801021000000015000
B0554153257779S11702701EA0099301032000000015000
B0554193257829S11702708EA0100101032000000015000
B0554233257851S11702638EA0100401047000000015000
B0554273257813S11702581EA0102501066000000015000
B0554313257759S11702587EA0103401066000000015000
B0554353257738S11702641EA0103801075000000015000
B0554393257770S11702688EA0105001090000000015000
B0554433257817S11702667EA0106101098000000015000
B0554473257822S11702597EA0107201110000000015000
B0554513257770S11702552EA0107901116000000015000
B0554553257717S11702576EA0108801124000000015000
B0554593257717S11702633EA0110501146000000015000
B0555033257761S11702651EA0111401151000000015000
B0555073257795S11702597EA0111701157000000015000
B0555113257776S11702525EA0112901172000000015000
B0555153257722S11702493EA0114001177000000015000
B0555193257665S11702512EA0114501181000000015000
B0555233257642S11702571EA0115101190000000015000
B0555273257668S11702623EA0116501205000000015000
B0555313257720S11702611EA0118001218000000015000
B0555353257730S11702538EA0118301216000000015000
B0555393257686S11702477EA0118601221000000015000
B0555433257625S11702452EA0119601231000000015000
B0555473257570S11702480EA0119601220000000015000
B0555513257535S11702552EA0118301211000000015000
B0555553257512S11702636EA0118401219000000015000
B0555593257492S11702723EA0117401203000000000000
B0556033257473S11702815EA0115701187000000000000
B0556073257456S11702910EA0114801185000000000000
B0556113257436S11703001EA0115201190000000000000
B0556153257415S11703087EA0115601186000000000000
B0556193257392S11703175EA0114901173000000000000
B0556233257367S11703267EA0113601162000000000000
B0556273257345S11703364EA0113001159000000000000
B0556313257326S11703457EA0112801154000000000000
B0556353257308S11703551EA0111601140000000000000
B0556393257287S11703644EA0110401129000000000000
B0556433257263S11703737EA0109701123000000000000
B0556473257241S11703829EA0109001119000000000000
B0556513257218S11703921EA0108701116000000000000
B0556553257200S11704015EA0108901122000000000000
B0556593257185S11704107EA0109101120000000000000
B0557033257170S11704201EA0107801104000000000000
B0557073257154S11704297EA0106601088000000000000
B0557113257135S11704392EA0105301079000000000000
B0557153257111S11704485EA0104301068000000000000
B0557193257087S11704576EA0103301058000000000000
B0557233257062S11704667EA0101601038000000000000
B0557273257040S11704760EA0100001025000000000000
B0557313257014S11704851EA0098301008000000000000
B0557353256986S11704940EA0097701006000000000000
B0557393256959S11705029EA0096900991000000000000
B0557433256931S11705119EA0095900989000000000000
B0557473256899S11705204EA0095700983000000000000
B0557513256869S11705293EA0094900972000000000000
B0557553256838S11705380EA0093600960000000000000
B0557593256806S11705464EA0092800953000000000000
B0558033256775S11705549EA0091900944000000000000
B0558073256742S11705632EA0090600931000000000000
B0558113256706S11705713EA0089800924000000000000
B0558153256668S11705792EA0089200916000000000000
B0558193256630S11705869EA0088500912000000000000
B0558233256595S11705941EA0088700916000000000000
B0558273256563S11706010EA0088800915000000000000
B0558313256528S11706078EA0088500915000000000000
B0558353256495S11706142EA0089000920000000000000
B0558393256465S11706203EA0089300923000000000000
B0558433256435S11706263EA0089600925000000000000
B0558473256407S11706325EA0090400935000000000000
B0558513256351S11706361EA0090400930000000000000
B0558553256282S11706338EA0090600942000000000000
B0558593256244S11706265EA0092000958000000000000
B0559033256266S11706194EA0093700975000000000000
B0559073256316S11706198EA0095000985000000000000
B0559113256309S11706256EA0096000999000000015000
B0559153256256S11706291EA0097801017000000015000
B0559193256186S11706276EA0099201025000000015000
B0559233256144S11706204EA0099401025000000015000
B0559273256152S11706120EA0099801029000000015000
B0559313256191S11706048EA0100601039000000000000
B0559353256249S11706031EA0101601051000000015000
B0559393256266S11706086EA0103201069000000015000
B0559433256219S11706121EA0104001076000000015000
B0559473256161S11706090EA0104501086000000015000
B0559513256151S11706013EA0105601095000000015000
B0559553256199S11705973EA0106501103000000015000
B0559593256242S11706004EA0107201112000000015000
B0600033256242S11706069EA0108001116000000015000
B0600073256206S11706133EA0108801123000000015000
B0600113256153S11706178EA0110201141000000015000
B0600153256091S11706152EA0112601168000000015000
B0600193256070S11706084EA0114301178000000015000
B0600233256097S11706027EA0114701180000000015000
B0600273256147S11706014EA0115201187000000015000
B0600313256197S11706030EA0115801194000000000000
B0600353256229S11706087EA0116401201000000015000
B0600393256216S11706157EA0117601217000000015000
B0600433256157S11706185EA0118801224000000015000
B0600473256092S11706148EA0118301208000000015000
B0600513256050S11706066EA0117901212000000015000
B0600553256035S11705974EA0119001228000000015000
B0600593256075S11705922EA0121101253000000015000
B0601033256121S11705943EA0122301256000000015000
B0601073256118S11706005EA0123201272000000015000
B0601113256070S11706035EA0125401291000000015000
B0601153256009S11706013EA0126501303000000015000
B0601193255969S11705947EA0127301310000000015000
B0601233255965S11705867EA0128301318000000015000
B0601273256001S11705805EA0129301330000000015000
B0601313256057S11705780EA0130701343000000015000
B0601353256109S11705801EA0131901353000000015000
B0601393256126S11705858EA0133101362000000015000
B0601433256096S11705915EA0134301371000000015000
B0601473256037S11705944EA0135301387000000015000
B0601513255978S11705909EA0137001404000000015000
B0601553255969S11705834EA0138501415000000015000
B0601593256015S11705789EA0139201420000000015000
B0602033256069S11705813EA0139601422000000015000
B0602073256079S11705883EA0140301432000000015000
B0602113256037S11705945EA0141301436000000015000
B0602153255967S11705967EA0141601437000000015000
B0602193255896S11705935EA0141701438000000015000
B0602233255835S11705874EA0142301443000000015000
B0602273255788S11705796EA0142501451000000015000
B0602313255794S11705715EA0144301473000000015000
B0602353255842S11705692EA0146301486000000015000
B0602393255880S11705736EA0147201496000000015000
B0602433255865S11705800EA0148001505000000015000
B0602473255803S11705823EA0149701525000000015000
B0602513255742S11705791EA0151001529000000015000
B0602553255707S11705719EA0151301530000000015000
B0602593255718S11705640EA0151301533000000015000
B0603033255771S11705620EA0152901552000000015000
B0603073255803S11705670EA0154701571000000015000
B0603113255787S11705731EA0155601574000000015000
B0603153255727S11705761EA0155901580000000015000
B0603193255664S11705726EA0156601586000000015000
B0603233255644S11705652EA0157101592000000015000
B0603273255675S11705596EA0157501596000000015000
B0603313255725S11705597EA0158301607000000015000
B0603353255754S11705641EA0159601613000000015000
B0603393255744S11705702EA0159901616000000015000
B0603433255707S11705761EA0160401619000000015000
B0603473255663S11705827EA0159001606000000015000
B0603513255611S11705904EA0157901596000000015000
B0603553255554S11705986EA0157801590000000015000
B0603593255495S11706070EA0156901580000000015000
B0604033255437S11706157EA0156001568000000000000
B0604073255380S11706243EA0155501562000000000000
B0604113255324S11706334EA0153601539000000000000
B0604153255269S11706429EA0151801522000000000000
B0604193255218S11706528EA0150501513000000000000
B0604233255170S11706625EA0149601502000000000000
B0604273255124S11706721EA0149001498000000000000
B0604313255075S11706815EA0148201488000000000000
B0604353255027S11706906EA0147201475000000000000
B0604393254977S11706998EA0145901462000000000000
B0604433254925S11707088EA0145101458000000000000
B0604473254875S11707176EA0144701453000000000000
B0604513254827S11707262EA0144101446000000000000
B0604553254786S11707351EA0143001433000000000000
B0604593254754S11707448EA0141601419000000000000
B0605033254735S11707547EA0140901416000000000000
B0605073254721S11707643EA0140601411000000000000
B0605113254708S11707741EA0140301412000000000000
B0605153254696S11707834EA0141301428000000000000
B0605193254687S11707920EA0141801423000000000000
B0605233254678S11708007EA0140401407000000000000
B0605273254666S11708103EA0138501386000000000000
B0605313254645S11708200EA0138201393000000000000
B0605353254620S11708288EA0138701392000000000000
B0605393254593S11708379EA0137301379000000000000
B0605433254561S11708470EA0136301370000000000000
B0605473254526S11708560EA0135401360000000000000
B0605513254488S11708649EA0134901355000000000000
B0605553254441S11708734EA0134201348000000000000
B0605593254389S11708814EA0133401343000000000000
B0606033254338S11708895EA0133501349000000000000
B0606073254289S11708970EA0133601343000000000000
B0606113254233S11709047EA0132301332000000000000
B0606153254171S11709124EA0131601325000000000000
B0606193254108S11709199EA0130601315000000000000
B0606233254042S11709275EA0129701308000000000000
B0606273253976S11709350EA0129101300000000000000
B0606313253911S11709425EA0128201291000000000000
B0606353253844S11709502EA0127101277000000000000
B0606393253778S11709580EA0125801267000000000000
B0606433253713S11709657EA0124401254000000000000
B0606473253648S11709731EA0123801252000000000000
B0606513253584S11709809EA0123001241000000000000
B0606553253521S11709891EA0121901233000000000000
B0606593253460S11709973EA0121501230000000000000
B0607033253398S11710053EA0120601220000000000000
B0607073253337S11710130EA0119901210000000000000
B0607113253276S11710204EA0119001204000000000000
B0607153253214S11710274EA0118401200000000000000
B0607193253151S11710343EA0118101197000000000000
B0607233253088S11710410EA0117801194000000000000
B0607273253023S11710476EA0117501194000000000000
B0607313252962S11710538EA0118301205000000000000
B0607353252906S11710603EA0118501209000000000000
B0607393252852S11710663EA0120001231000000000000
B0607433252820S11710731EA0122101250000000000000
B0607473252843S11710785EA0123601255000000000000
B0607513252894S11710766EA0122901242000000015000
B0607553252895S11710683EA0122301249000000015000
B0607593252842S11710618EA0123201259000000015000
B0608033252769S11710586EA0124501273000000015000
B0608073252707S11710611EA0126201288000000015000
B0608113252707S11710672EA0126401282000000015000
B0608153252755S11710697EA0126101284000000015000
B0608193252812S11710692EA0126301288000000015000
B0608233252867S11710667EA0126701294000000015000
B0608273252868S11710592EA0127501304000000015000
B0608313252807S11710547EA0127901307000000015000
B0608353252735S11710563EA0128701327000000015000
B0608393252673S11710598EA0129801334000000015000
B0608433252615S11710646EA0129601326000000015000
B0608473252556S11710706EA0128201306000000000000
B0608513252501S11710777EA0126701297000000000000
B0608553252444S11710850EA0126101290000000000000
B0608593252383S11710924EA0124701276000000000000
B0609033252329S11711001EA0124701282000000000000
B0609073252278S11711078EA0124801276000000000000
B0609113252226S11711154EA0123801269000000000000
B0609153252174S11711225EA0124001278000000000000
B0609193252127S11711291EA0124501277000000000000
B0609233252079S11711355EA0123801273000000000000
B0609273252024S11711409EA0124001274000000000000
B0609313251967S11711460EA0123501266000000000000
B0609353251914S11711516EA0123201269000000000000
B0609393251871S11711581EA0122601256000000000000
B0609433251837S11711658EA0121301239000000000000
B0609473251798S11711737EA0119701223000000000000
B0609513251749S11711812EA0118001209000000000000
B0609553251693S11711885EA0116801199000000000000
B0609593251637S11711957EA0116401198000000000000
B0610033251585S11712028EA0116101191000000000000
B0610073251530S11712100EA0115201182000000000000
B0610113251472S11712166EA0114801184000000000000
B0610153251416S11712231EA0115101188000000000000
B0610193251364S11712292EA0115201186000000000000
B0610233251309S11712350EA0114501173000000000000
B0610273251259S11712417EA0113201164000000000000
B0610313251208S11712483EA0112601158000000000000
B0610353251152S11712544EA0112001150000000000000
B0610393251103S11712614EA0111001140000000000000
B0610433251062S11712690EA0110501133000000000000
B0610473251031S11712773EA0109501123000000000000
B0610513251006S11712860EA0108201109000000000000
B0610553250987S11712948EA0107201101000000000000
B0610593250971S11713036EA0107301109000000000000
B0611033250966S11713117EA0109101128000000000000
B0611073250996S11713179EA0110201132000000000000
B0611113251035S11713233EA0109401122000000000000
B0611153251064S11713305EA0108201106000000000000
B0611193251073S11713387EA0106601092000000000000
B0611233251068S11713474EA0105501082000000000000
B0611273251053S11713565EA0104501073000000000000
B0611313251030S11713654EA0103601065000000000000
B0611353251001S11713745EA0102601056000000000000
B0611393250971S11713835EA0101701048000000000000
B0611433250940S11713926EA0100501031000000000000
B0611473250910S11714021EA0098201011000000000000
B0611513250887S11714105EA0098901040000000000000
B0611553250865S11714170EA0102301051000000000000
B0611593250848S11714238EA0102301051000000000000
B0612033250844S11714310EA0102501056000000000000
B0612073250866S11714376EA0103501070000000000000
B0612113250910S11714416EA0105101089000000000000
B0612153250943S11714371EA0106801103000000000000
B0612193250904S11714317EA0107301101000000000000
B0612233250840S11714339EA0107301112000000015000
B0612273250817S11714408EA0108501127000000015000
B0612313250856S11714447EA0110201147000000015000
B0612353250889S11714398EA0111501152000000015000
B0612393250849S11714339EA0111901158000000015000
B0612433250784S11714352EA0112801172000000015000
B0612473250763S11714419EA0114101188000000015000
B0612513250808S11714450EA0114801192000000030000
B0612553250845S11714393EA0114901197000000030000
B0612593250817S11714319EA0116001215000000015000
B0613033250757S11714289EA0118001232000000015000
B0613073250704S11714320EA0119401249000000015000
B0613113250706S11714384EA0120901260000000015000
B0613153250756S11714389EA0122001269000000015000
B0613193250774S11714320EA0122301271000000015000
B0613233250732S11714261EA0123201283000000015000
B0613273250668S11714258EA0124701295000000015000
B0613313250626S11714308EA0126101305000000015000
B0613353250641S11714371EA0126701310000000015000
B0613393250696S11714377EA0127301317000000015000
B0613433250739S11714329EA0128101328000000015000
B0613473250737S11714255EA0128801332000000015000
B0613513250680S11714220EA0129601341000000015000
B0613553250629S11714260EA0130601353000000015000
B0613593250662S11714303EA0131901365000000015000
B0614033250696S11714256EA0132301366000000015000
B0614073250665S11714191EA0133001380000000015000
B0614113250602S11714172EA0134301389000000015000
B0614153250550S11714213EA0135301397000000015000
B0614193250551S11714282EA0136101401000000015000
B0614233250601S11714312EA0136501409000000015000
B0614273250648S11714276EA0137401413000000015000
B0614313250654S11714196EA0137101406000000015000
B0614353250606S11714125EA0137201414000000015000
B0614393250531S11714090EA0138101419000000015000
B0614433250468S11714125EA0139501438000000015000
B0614473250462S11714198EA0140901448000000015000
B0614513250503S11714233EA0142101459000000015000
B0614553250535S11714178EA0142301458000000030000
B0614593250518S11714100EA0142801468000000015000
B0615033250453S11714065EA0143301473000000015000
B0615073250386S11714102EA0143601473000000015000
B0615113250358S11714178EA0144101483000000015000
B0615153250380S11714250EA0145601495000000015000
B0615193250432S11714280EA0146501508000000015000
B0615233250460S11714230EA0148101524000000015000
B0615273250420S11714173EA0148601518000000015000
B0615313250346S11714169EA0148201516000000015000
B0615353250271S11714213EA0147401507000000015000
B0615393250200S11714280EA0147701520000000015000
B0615433250134S11714346EA0148801521000000015000
B0615473250065S11714419EA0147401504000000015000
B0615513249992S11714498EA0146301490000000000000
B0615553249925S11714581EA0147901520000000000000
B0615593249879S11714661EA0150201521000000000000
B0616033249820S11714736EA0148901506000000000000
B0616073249752S11714807EA0148401508000000000000
B0616113249684S11714876EA0149101519000000000000
B0616153249622S11714943EA0150801537000000000000
B0616193249561S11715009EA0150701529000000000000
B0616233249497S11715082EA0149201511000000000000
B0616273249428S11715158EA0148101503000000000000
B0616313249359S11715229EA0148901520000000000000
B0616353249298S11715292EA0150601540000000000000
B0616393249240S11715353EA0152701560000000000000
B0616433249235S11715420EA0155501594000000000000
B0616473249279S11715407EA0157901607000000015000
B0616513249274S11715334EA0158301613000000015000
B0616553249211S11715301EA0159301624000000015000
B0616593249164S11715350EA0160601641000000015000
B0617033249189S11715402EA0162301657000000015000
B0617073249241S11715386EA0163401668000000015000
B0617113249262S11715320EA0164401679000000015000
B0617153249228S11715255EA0165601690000000015000
B0617193249163S11715247EA0166601701000000015000
B0617233249133S11715303EA0167601714000000015000
B0617273249168S11715343EA0169001724000000015000
B0617313249214S11715307EA0169601731000000015000
B0617353249219S11715234EA0170701749000000015000
B0617393249180S11715170EA0171601751000000015000
B0617433249110S11715160EA0171501752000000015000
B0617473249068S11715214EA0173301782000000015000
B0617513249089S11715260EA0175701799000000015000
B0617553249136S11715239EA0176801808000000015000
B0617593249151S11715166EA0177801820000000015000
B0618033249111S11715100EA0178701824000000015000
B0618073249040S11715086EA0178701822000000015000
B0618113248985S11715135EA0180201849000000015000
B0618153249001S11715190EA0183101873000000015000
B0618193249051S11715171EA0184301881000000015000
B0618233249066S11715097EA0185701899000000015000
B0618273249025S11715028EA0186401902000000015000
B0618313248952S11715017EA0187001909000000015000
B0618353248903S11715075EA0188301928000000015000
B0618393248916S11715140EA0190301944000000015000
B0618433248971S11715148EA0191401953000000015000
B0618473249004S11715086EA0192701969000000015000
B0618513248978S11715009EA0194001975000000015000
B0618553248908S11714976EA0194201976000000015000
B0618593248851S11715022EA0195701996000000015000
B0619033248856S11715086EA0197202010000000015000
B0619073248906S11715104EA0197702016000000015000
B0619113248952S11715060EA0198902035000000015000
B0619153248950S11714983EA0200802049000000015000
B0619193248894S11714934EA0201402048000000015000
B0619233248819S11714948EA0200402024000000015000
B0619273248743S11715017EA0197401993000000015000
B0619313248669S11715103EA0194801963000000015000
B0619353248599S11715204EA0191901939000000000000
B0619393248534S11715307EA0191601943000000000000
B0619433248473S11715407EA0190401926000000000000
B0619473248419S11715508EA0189901926000000000000
B0619513248361S11715606EA0190101923000000000000
B0619553248304S11715702EA0189501917000000000000
B0619593248245S11715798EA0188801913000000000000
B0620033248184S11715894EA0187801906000000000000
B0620073248122S11715988EA0187201901000000015000
B0620113248062S11716079EA0186301895000000015000
B0620153248005S11716169EA0185801890000000015000
B0620193247950S11716256EA0185501885000000015000
B0620233247896S11716343EA0184901879000000030000
B0620273247841S11716429EA0184001870000000015000
B0620313247788S11716510EA0183601865000000015000
B0620353247733S11716588EA0183001858000000015000
B0620393247678S11716663EA0182401850000000015000
B0620433247621S11716734EA0181801843000000015000
B0620473247568S11716804EA0181401842000000015000
B0620513247512S11716877EA0180401836000000015000
B0620553247459S11716949EA0180001837000000015000
B0620593247400S11717019EA0179301829000000015000
B0621033247339S11717082EA0179101828000000015000
B0621073247277S11717140EA0179401826000000015000
B0621113247213S11717196EA0179501830000000015000
B0621153247153S11717249EA0180801837000000015000
B0621193247100S11717303EA0181601843000000015000
B0621233247045S11717355EA0182201848000000030000
B0621273246987S11717398EA0183101855000000030000
B0621313246926S11717439EA0184201863000000030000
B0621353246870S11717476EA0186701872000000030000
B0621393246814S11717515EA0187301885000000015000
B0621433246748S11717560EA0186701875000000015000
B0621473246672S11717617EA0185301870000000015000
B0621513246599S11717674EA0186701904000000015000
B0621553246529S11717722EA0188501908000000000000
B0621593246454S11717777EA0187001875000000000000
B0622033246369S11717847EA0182801829000000000000
B0622073246280S11717925EA0180001811000000000000
B0622113246190S11717999EA0179001809000000000000
B0622153246103S11718068EA0178301802000000000000
B0622193246017S11718138EA0177501794000000000000
B0622233245935S11718208EA0177901796000000000000
B0622273245856S11718275EA0178101799000000000000
B0622313245779S11718340EA0178301802000000000000
B0622353245704S11718414EA0177201781000000000000
B0622393245622S11718486EA0174901761000000000000
B0622433245535S11718557EA0173501756000000000000
B0622473245449S11718623EA0173201756000000000000
B0622513245363S11718689EA0172101741000000000000
B0622553245280S11718750EA0171801746000000000000
B0622593245197S11718804EA0171401736000000000000
B0623033245116S11718856EA0171001740000000000000
B0623073245037S11718904EA0170601732000000000000
B0623113244954S11718943EA0170801741000000000000
B0623153244872S11718970EA0171301741000000000000
B0623193244790S11719001EA0170601728000000000000
B0623233244708S11719048EA0169301719000000000000
B0623273244631S11719101EA0169101720000000000000
B0623313244556S11719156EA0168801710000000000000
B0623353244484S11719222EA0167601701000000000000
B0623393244413S11719289EA0167401700000000000000
B0623433244345S11719360EA0167001697000000000000
B0623473244282S11719433EA0166701694000000000000
B0623513244215S11719506EA0166001686000000000000
B0623553244150S11719573EA0166301694000000000000
B0623593244090S11719641EA0166501691000000000000
B0624033244037S11719716EA0165101671000000000000
B0624073243979S11719793EA0163401659000000000000
B0624113243918S11719866EA0162501650000000000000
B0624153243854S11719940EA0161501637000000000000
B0624193243790S11720017EA0160201628000000000000
B0624233243729S11720095EA0159801624000000000000
B0624273243665S11720173EA0158701609000000000000
B0624313243600S11720251EA0157701601000000000000
B0624353243535S11720329EA0156801591000000000000
B0624393243470S11720401EA0156001584000000000000
B0624433243405S11720474EA0154801565000000000000
B0624473243339S11720548EA0152701546000000000000
B0624513243274S11720625EA0150901530000000000000
B0624553243213S11720704EA0149801522000000000000
B0624593243156S11720787EA0148701506000000000000
B0625033243099S11720872EA0147501496000000000000
B0625073243040S11720953EA0146501487000000000000
B0625113242983S11721033EA0145801482000000000000
B0625153242928S11721115EA0145301476000000000000
B0625193242879S11721198EA0144301463000000000000
B0625233242833S11721289EA0142801445000000000000
B0625273242793S11721384EA0141201432000000000000
B0625313242754S11721480EA0140301427000000000000
B0625353242715S11721575EA0140101425000000000000
B0625393242677S11721671EA0139901423000000000000
B0625433242646S11721773EA0139801422000000000000
B0625473242619S11721881EA0139601422000000000000
B0625513242592S11721989EA0140401437000000000000
B0625553242573S11722087EA0144401475000000000000
B0625593242619S11722129EA0148401509000000000000
B0626033242657S11722067EA0148901505000000000000
B0626073242610S11721999EA0148501512000000015000
B0626113242538S11721999EA0150701541000000015000
B0626153242516S11722056EA0153001562000000015000
B0626193242562S11722085EA0153601560000000015000
B0626233242612S11722026EA0153401562000000015000
B0626273242608S11721935EA0154001576000000015000
B0626313242556S11721873EA0155701595000000015000
B0626353242494S11721892EA0157501614000000015000
B0626393242504S11721954EA0159201635000000015000
B0626433242563S11721952EA0160801645000000015000
B0626473242610S11721895EA0161701657000000030000
B0626513242608S11721812EA0162801665000000030000
B0626553242554S11721759EA0163401672000000030000
B0626593242484S11721768EA0164301681000000015000
B0627033242447S11721831EA0166201704000000015000
B0627073242473S11721889EA0168701725000000015000
B0627113242529S11721872EA0170001741000000015000
B0627153242549S11721798EA0170901748000000015000
B0627193242512S11721730EA0172201766000000015000
B0627233242447S11721714EA0173701778000000015000
B0627273242391S11721753EA0174601784000000015000
B0627313242376S11721826EA0175901798000000015000
B0627353242416S11721876EA0178001823000000015000
B0627393242476S11721853EA0179801835000000015000
B0627433242504S11721773EA0180601842000000030000
B0627473242465S11721697EA0181901859000000030000
B0627513242395S11721682EA0183401875000000030000
B0627553242333S11721720EA0184901889000000015000
B0627593242315S11721790EA0186101906000000015000
B0628033242348S11721848EA0188301927000000015000
B0628073242406S11721852EA0190001943000000015000
B0628113242455S11721803EA0191201951000000015000
B0628153242469S11721716EA0191901956000000015000
B0628193242430S11721635EA0192701966000000015000
B0628233242355S11721610EA0193801976000000015000
B0628273242281S11721639EA0194601987000000015000
B0628313242243S11721708EA0196202009000000015000
B0628353242260S11721773EA0198602031000000015000
B0628393242312S11721782EA0200202040000000015000
B0628433242358S11721723EA0200702046000000015000
B0628473242359S11721634EA0201902060000000015000
B0628513242312S11721566EA0203702081000000015000
B0628553242244S11721544EA0205602096000000030000
B0628593242177S11721564EA0206202095000000030000
B0629033242124S11721626EA0205002074000000030000
B0629073242085S11721714EA0203302066000000015000
B0629113242049S11721807EA0202402060000000015000
B0629153242016S11721903EA0201202048000000015000
B0629193241984S11722000EA0199802038000000015000
B0629233241955S11722100EA0199602033000000015000
B0629273241926S11722203EA0198502013000000015000
B0629313241897S11722315EA0196601997000000000000
B0629353241867S11722431EA0195101987000000015000
B0629393241836S11722548EA0193501976000000015000
B0629433241806S11722666EA0192101958000000015000
B0629473241779S11722786EA0190901950000000015000
B0629513241757S11722906EA0190101937000000015000
B0629553241736S11723029EA0189401930000000015000
B0629593241718S11723155EA0188401908000000015000
B0630033241700S11723290EA0185801879000000015000
B0630073241682S11723428EA0184101868000000015000
B0630113241666S11723558EA0184701882000000015000
B0630153241653S11723679EA0185301886000000000000
B0630193241640S11723796EA0185301885000000000000
B0630233241628S11723913EA0185701889000000000000
B0630273241617S11724028EA0186301898000000000000
B0630313241602S11724140EA0186801900000000000000
B0630353241583S11724249EA0186201892000000000000
B0630393241555S11724359EA0185201873000000000000
B0630433241524S11724470EA0182801844000000000000
B0630473241488S11724587EA0180501828000000000000
B0630513241449S11724703EA0179701822000000000000
B0630553241410S11724817EA0178801813000000000000
B0630593241371S11724932EA0178601816000000000000
B0631033241333S11725045EA0178101804000000000000
B0631073241295S11725159EA0177101801000000000000
B0631113241258S11725270EA0177901811000000000000
B0631153241219S11725370EA0179201828000000000000
B0631193241177S11725465EA0180401839000000000000
B0631233241133S11725560EA0180901842000000000000
B0631273241091S11725659EA0179401829000000000000
B0631313241042S11725755EA0178301819000000000000
B0631353240991S11725848EA0177601811000000000000
B0631393240939S11725941EA0176401799000000000000
B0631433240890S11726033EA0174801777000000000000
B0631473240844S11726132EA0172801761000000000000
B0631513240795S11726229EA0172701762000000000000
B0631553240746S11726325EA0172101750000000000000
B0631593240697S11726424EA0170801741000000015000
B0632033240648S11726526EA0170101731000000015000
B0632073240599S11726627EA0169901733000000000000
B0632113240552S11726727EA0169601725000000000000
B0632153240504S11726827EA0169201723000000000000
B0632193240460S11726926EA0168801717000000000000
B0632233240417S11727025EA0168101708000000000000
B0632273240375S11727122EA0167101698000000000000
B0632313240333S11727217EA0166101692000000000000
B0632353240293S11727304EA0165901695000000000000
B0632393240253S11727382EA0166501700000000000000
B0632433240213S11727453EA0167001712000000000000
B0632473240171S11727518EA0168101718000000000000
B0632513240127S11727575EA0169001726000000015000
B0632553240079S11727620EA0170601733000000015000
B0632593240032S11727661EA0170401739000000015000
B0633033239986S11727718EA0169301741000000030000
B0633073239938S11727793EA0168901738000000030000
B0633113239897S11727863EA0169001738000000030000
B0633153239852S11727935EA0168201737000000030000
B0633193239812S11728010EA0166201734000000045000
B0633233239761S11728105EA0164401720000000045000
B0633273239720S11728196EA0162601698000000030000
B0633313239678S11728287EA0161601674000000030000
B0633353239637S11728381EA0160601654000000015000
B0633393239591S11728472EA0159401637000000015000
B0633433239544S11728564EA0158001620000000015000
B0633473239495S11728655EA0156801614000000015000
B0633513239447S11728746EA0156001604000000015000
B0633553239403S11728836EA0155601598000000015000
B0633593239360S11728922EA0155101586000000015000
B0634033239322S11729007EA0154301580000000015000
B0634073239286S11729092EA0153701574000000015000
B0634113239251S11729180EA0153101572000000015000
B0634153239215S11729266EA0153201573000000015000
B0634193239182S11729352EA0152501563000000015000
B0634233239149S11729436EA0152001558000000015000
B0634273239117S11729521EA0151001539000000015000
B0634313239083S11729609EA0149301523000000015000
B0634353239048S11729699EA0148001510000000000000
B0634393239011S11729789EA0147401506000000000000
B0634433238976S11729874EA0146801497000000000000
B0634473238941S11729962EA0145701484000000000000
B0634513238903S11730051EA0144301467000000000000
B0634553238867S11730144EA0142801455000000000000
B0634593238831S11730233EA0142401455000000000000
B0635033238796S11730318EA0141901447000000000000
B0635073238762S11730401EA0140801432000000000000
B0635113238724S11730484EA0139501422000000000000
B0635153238684S11730563EA0139301422000000000000
B0635193238643S11730645EA0138701414000000000000
B0635233238606S11730731EA0138001412000000000000
B0635273238569S11730816EA0137901410000000000000
B0635313238536S11730899EA0137501406000000000000
B0635353238499S11730986EA0136901403000000000000
B0635393238465S11731069EA0137001405000000000000
B0635433238438S11731147EA0137201405000000000000
B0635473238408S11731228EA0136101386000000000000
B0635513238368S11731308EA0133901361000000000000
B0635553238315S11731386EA0132201346000000000000
B0635593238252S11731455EA0131701347000000000000
B0636033238192S11731520EA0132601358000000000000
B0636073238140S11731589EA0133301367000000000000
B0636113238099S11731655EA0134301378000000000000
B0636153238066S11731727EA0135401387000000000000
B0636193238083S11731788EA0136801406000000000000
B0636233238133S11731789EA0138301416000000000000
B0636273238160S11731724EA0139101424000000015000
B0636313238139S11731646EA0139901429000000015000
B0636353238079S11731598EA0140101429000000015000
B0636393238006S11731600EA0139801427000000015000
B0636433237931S11731624EA0139401421000000015000
B0636473237854S11731659EA0138901417000000015000
B0636513237775S11731700EA0138201404000000015000
B0636553237693S11731743EA0137401405000000015000
B0636593237615S11731788EA0138301414000000015000
B0637033237538S11731834EA0138901416000000015000
B0637073237464S11731888EA0139601438000000015000
B0637113237446S11731960EA0143301478000000015000
B0637153237496S11731954EA0145701490000000015000
B0637193237492S11731875EA0146501498000000015000
B0637233237427S11731832EA0148001518000000015000
B0637273237371S11731876EA0150401543000000015000
B0637313237395S11731932EA0152501561000000015000
B0637353237444S11731908EA0154201579000000030000
B0637393237446S11731835EA0155701592000000015000
B0637433237390S11731787EA0157201608000000030000
B0637473237332S11731818EA0159201629000000015000
B0637513237337S11731884EA0160801650000000015000
B0637553237386S11731908EA0162501661000000015000
B0637593237431S11731863EA0163401671000000015000
B0638033237425S11731787EA0164401680000000030000
B0638073237369S11731741EA0165801696000000030000
B0638113237303S11731756EA0167401712000000015000
B0638153237272S11731817EA0169601737000000015000
B0638193237301S11731871EA0171601753000000015000
B0638233237347S11731860EA0173001763000000015000
B0638273237363S11731795EA0173401767000000015000
B0638313237330S11731727EA0173801770000000015000
B0638353237264S11731706EA0174501785000000015000
B0638393237219S11731756EA0176401802000000015000
B0638433237242S11731815EA0177401809000000015000
B0638473237298S11731802EA0178701823000000015000
B0638513237315S11731732EA0179801832000000030000
B0638553237272S11731672EA0181101848000000030000
B0638593237216S11731700EA0182601858000000015000
B0639033237230S11731765EA0183101862000000015000
B0639073237291S11731758EA0183801873000000030000
B0639113237328S11731692EA0184701876000000030000
B0639153237308S11731611EA0185901894000000030000
B0639193237243S11731574EA0187001904000000030000
B0639233237167S11731592EA0187301899000000015000
B0639273237091S11731644EA0186501895000000015000
B0639313237018S11731706EA0185901892000000030000
B0639353236946S11731778EA0185601889000000030000
B0639393236874S11731849EA0186001888000000030000
B0639433236805S11731923EA0185801886000000030000
B0639473236734S11731997EA0184601879000000030000
B0639513236656S11732060EA0182401872000000030000
B0639553236571S11732113EA0181001863000000030000
B0639593236491S11732153EA0181901861000000030000
B0640033236405S11732179EA0182301862000000030000
B0640073236310S11732217EA0179701833000000030000
B0640113236222S11732273EA0178501832000000030000
B0640153236140S11732339EA0177701821000000030000
B0640193236054S11732407EA0177001815000000015000
B0640233235967S11732471EA0176301804000000015000
B0640273235878S11732534EA0175701791000000015000
B0640313235790S11732603EA0174601779000000015000
B0640353235704S11732672EA0174101774000000015000
B0640393235618S11732740EA0173901773000000015000
B0640433235540S11732799EA0175501781000000015000
B0640473235460S11732846EA0178301800000000015000
B0640513235382S11732902EA0178301783000000015000
B0640553235297S11732966EA0175801770000000015000
B0640593235211S11733033EA0174701766000000015000
B0641033235126S11733102EA0172801745000000015000
B0641073235040S11733173EA0171301733000000015000
B0641113234955S11733241EA0170801728000000015000
B0641153234871S11733306EA0171601732000000015000
B0641193234789S11733366EA0172901751000000015000
B0641233234711S11733422EA0173601754000000015000
B0641273234633S11733486EA0174001757000000015000
B0641313234558S11733551EA0175301764000000015000
B0641353234476S11733613EA0177101773000000015000
B0641393234395S11733676EA0177101772000000015000
B0641433234316S11733741EA0176201765000000015000
B0641473234233S11733806EA0175501762000000015000
B0641513234148S11733864EA0174701756000000015000
B0641553234064S11733925EA0173501742000000015000
B0641593233978S11733990EA0172201733000000015000
B0642033233889S11734055EA0171301723000000000000
B0642073233802S11734123EA0170501721000000000000
B0642113233716S11734187EA0170001709000000000000
B0642153233627S11734253EA0168101693000000015000
B0642193233536S11734320EA0166701688000000030000
B0642233233447S11734387EA0166101685000000090000
B0642273233362S11734454EA0165501679000000060000
B0642313233278S11734523EA0165201672000000045000
B0642353233199S11734584EA0165701675000000045000
B0642393233124S11734647EA0165501676000000045000
B0642433233053S11734703EA0165201672000000030000
B0642473232982S11734757EA0164101666000000030000
B0642513232909S11734814EA0162801660000000030000
B0642553232838S11734870EA0161801655000000045000
B0642593232765S11734925EA0161101650000000045000
B0643033232688S11734976EA0160501646000000045000
B0643073232609S11735030EA0160501644000000045000
B0643113232543S11735086EA0161701649000000030000
B0643153232484S11735141EA0163001655000000045000
B0643193232442S11735203EA0163801661000000030000
B0643233232437S11735276EA0164001666000000030000
B0643273232422S11735351EA0162801651000000030000
B0643313232366S11735419EA0161301634000000030000
B0643353232293S11735477EA0160101626000000015000
B0643393232216S11735536EA0159401619000000015000
B0643433232140S11735597EA0158901613000000015000
B0643473232062S11735656EA0158501614000000015000
B0643513231987S11735713EA0159401622000000015000
B0643553231916S11735766EA0160601636000000015000
B0643593231848S11735817EA0161201631000000015000
B0644033231781S11735871EA0159901612000000015000
B0644073231707S11735925EA0158401598000000015000
B0644113231630S11735979EA0157001588000000015000
B0644153231553S11736036EA0155801575000000015000
B0644193231478S11736095EA0154501565000000015000
B0644233231404S11736155EA0153901561000000015000
B0644273231330S11736211EA0153401551000000015000
B0644313231252S11736263EA0152401543000000015000
B0644353231175S11736316EA0151301531000000015000
B0644393231098S11736372EA0150001520000000000000
B0644433231025S11736432EA0149101509000000000000
B0644473230951S11736497EA0147701493000000000000
B0644513230877S11736559EA0146401485000000000000
B0644553230806S11736618EA0145601475000000000000
B0644593230734S11736677EA0144201460000000000000
B0645033230663S11736740EA0143601459000000000000
B0645073230594S11736801EA0143501458000000000000
B0645113230526S11736861EA0142901449000000000000
B0645153230459S11736922EA0141701440000000000000
B0645193230392S11736985EA0141101439000000015000
B0645233230325S11737041EA0141001437000000015000
B0645273230255S11737092EA0140801435000000015000
B0645313230184S11737144EA0141001439000000015000
B0645353230121S11737195EA0141901451000000015000
B0645393230061S11737243EA0142301448000000015000
B0645433229995S11737297EA0141801443000000015000
B0645473229923S11737347EA0142101451000000015000
B0645513229853S11737394EA0142301447000000015000
B0645553229785S11737444EA0142001444000000015000
B0645593229716S11737498EA0141201431000000000000
B0646033229646S11737551EA0140001419000000000000
B0646073229573S11737595EA0139801422000000000000
B0646113229501S11737632EA0139601417000000000000
B0646153229430S11737669EA0139301415000000000000
B0646193229365S11737712EA0139101410000000000000
B0646233229303S11737762EA0138001396000000000000
B0646273229241S11737819EA0136701385000000000000
B0646313229185S11737885EA0135601373000000000000
B0646353229135S11737960EA0135101375000000000000
B0646393229092S11738036EA0135601381000000000000
B0646433229056S11738113EA0135701378000000000000
B0646473229021S11738188EA0135301370000000000000
B0646513228988S11738267EA0134501361000000000000
B0646553228970S11738350EA0134501363000000000000
B0646593228984S11738427EA0135101369000000000000
B0647033229016S11738496EA0134401362000000000000
B0647073229040S11738571EA0133201348000000000000
B0647113229051S11738659EA0132801350000000000000
B0647153229065S11738743EA0132801348000000000000
B0647193229096S11738820EA0132201350000000000000
B0647233229133S11738885EA0133601373000000015000
B0647273229172S11738939EA0135101383000000015000
B0647313229221S11738980EA0135901385000000015000
B0647353229281S11739007EA0136101388000000015000
B0647393229332S11739049EA0136301390000000015000
B0647433229358S11739116EA0135701380000000000000
B0647473229350S11739199EA0134301361000000000000
B0647513229311S11739286EA0133101355000000000000
B0647553229255S11739364EA0133001355000000015000
B0647593229192S11739437EA0133201357000000000000
B0648033229133S11739510EA0134301369000000000000
B0648073229121S11739589EA0136901403000000000000
B0648113229173S11739598EA0140101434000000015000
B0648153229183S11739523EA0141101436000000015000
