ACAM4N6
HFDTE060315
HFFXA050
HFPLTPILOT:JOHN WELSH              
HFGTYGLIDERTYPE:HORNET      
HFGIDGLIDERID:VH-GMY      
HFDTM100GPSDATUM:
HFRFWFIRMWAREVERSION:F2.6
HFRHWHARDWAREVERSION:300 Series Version 2
HFFTYFRTYPE:CAMBRIDGE AERO INSTRUMENTS, 302+
HFGPS:GARMIN,LVS-25,12,18000
HFPRSPRESSALTSENSOR:INTERSEMA, MS5534-AP, 20000
I033638FXA3941ENL4247REX
LCAMSBVER:5FWVER:F26300
C060315051415060315000102
C0000000N00000000WTAKEOFF     
C3207549S11656849EBEVAIR      
C3131812S11804949EHINESHLL    
C3220281S11752283ECORRIGIN    
C3207549S11656849EBEVAIR      
C0000000N00000000WLANDING     
B0524093207338S11656860EA0016400224000000000000
B0524113207338S11656860EA0016400224000000000000
B0524133207338S11656860EA0016400224000000000000
B0524153207338S11656860EA0016300224000000000000
B0524173207338S11656860EA0016300224000000000000
B0524193207338S11656860EA0016300224000000000000
B0524213207338S11656860EA0016400224000000000000
B0524233207338S11656860EA0016400224000000000000
B0524253207338S11656860EA0016300224000000000000
B0524273207338S11656860EA0016500224000000000000
B0524293207338S11656860EA0016400224000000000000
B0524313207338S11656860EA0016500224000000000000
B0524333207338S11656860EA0016600224000000000000
B0524353207338S11656860EA0016600224000000000000
B0524373207339S11656860EA0016600224000000000000
B0524403207349S11656866EA0016600223000000000000
B0524443207372S11656887EA0016400223000000000000
B0524483207414S11656914EA0016200223000000000000
B0524523207468S11656948EA0016300222000000000000
B0524563207534S11656988EA0016400223000000000000
B0525003207602S11657034EA0016600227000000000000
B0525043207667S11657086EA0017600243000000000000
B0525083207733S11657133EA0019200262000000000000
B0525123207801S11657177EA0020900283000000000000
B0525163207869S11657224EA0022800303000000000000
B0525203207935S11657272EA0025000330000000000000
B0525243208004S11657312EA0027300350000000000000
B0525283208073S11657354EA0028800366000000000000
B0525323208131S11657408EA0030400384000000000000
B0525363208171S11657480EA0031900399000000000000
B0525403208197S11657559EA0034100424000000000000
B0525443208210S11657641EA0035900440000000000000
B0525483208210S11657724EA0037900464000000000000
B0525523208205S11657807EA0040100480000000000000
B0525563208192S11657891EA0041600498000000000000
B0526003208175S11657971EA0043500518000000000000
B0526043208160S11658052EA0045400535000000000000
B0526083208143S11658132EA0046500545000000000000
B0526123208121S11658214EA0047300555000000000000
B0526163208093S11658294EA0048800568000000000000
B0526203208062S11658373EA0050100581000000000000
B0526243208027S11658450EA0051100594000000000000
B0526283207991S11658526EA0052600609000000000000
B0526323207950S11658602EA0054000624000000000000
B0526363207909S11658676EA0055500639000000000000
B0526403207866S11658750EA0056600649000000000000
B0526443207817S11658823EA0057800660000000000000
B0526483207767S11658893EA0058900673000000000000
B0526523207706S11658955EA0060000685000000000000
B0526563207629S11658993EA0061400699000000000000
B0527003207542S11659010EA0062800713000000000000
B0527043207453S11659006EA0063600723000000000000
B0527083207363S11658976EA0065000735000000000000
B0527123207276S11658928EA0066000747000000000000
B0527163207200S11658853EA0067000758000000000000
B0527203207135S11658760EA0068100768000000000000
B0527243207091S11658652EA0069100779000000000000
B0527283207072S11658534EA0070200792000000000000
B0527323207079S11658416EA0071700806000000000000
B0527363207115S11658308EA0073000819000000000000
B0527403207173S11658218EA0073800825000000000000
B0527443207235S11658131EA0074900842000000000000
B0527483207291S11658045EA0077100865000000000000
B0527523207333S11657958EA0077800862000000000000
B0527563207359S11657865EA0076800851000000000000
B0528003207385S11657768EA0075300833000000000000
B0528043207416S11657673EA0074200827000000000000
B0528083207447S11657581EA0074400833000000000000
B0528123207462S11657493EA0076600854000000000000
B0528163207415S11657438EA0077500860000000000000
B0528203207360S11657460EA0076600864000000000000
B0528243207355S11657523EA0077000869000000000000
B0528283207376S11657580EA0076600865000000000000
B0528323207425S11657615EA0076200860000000000000
B0528363207486S11657595EA0076200857000000000000
B0528403207529S11657527EA0075400843000000000000
B0528443207559S11657436EA0074600844000000000000
B0528483207583S11657341EA0075100846000000000000
B0528523207599S11657246EA0075400846000000000000
B0528563207612S11657148EA0073900827000000000000
B0529003207629S11657048EA0072900818000000000000
B0529043207645S11656951EA0072400808000000000000
B0529083207659S11656852EA0070900789000000000000
B0529123207676S11656750EA0069200774000000000000
B0529163207710S11656657EA0068000763000000000000
B0529203207762S11656583EA0067200754000000000000
B0529243207823S11656526EA0066500747000000000000
B0529283207889S11656481EA0065600736000000000000
B0529323207953S11656431EA0064500728000000000000
B0529363208013S11656379EA0064800728000000000000
B0529403208071S11656320EA0064500728000000000000
B0529443208114S11656249EA0065400737000000000000
B0529483208086S11656175EA0066500749000000000000
B0529523208036S11656195EA0067300758000000000000
B0529563208047S11656250EA0066800749000000000000
B0530003208105S11656241EA0066700756000000000000
B0530043208119S11656165EA0068000770000000000000
B0530083208083S11656100EA0068900778000000000000
B0530123208039S11656120EA0069000772000000000000
B0530163208064S11656163EA0068600772000000000000
B0530203208116S11656128EA0068800772000000000000
B0530243208134S11656039EA0069000779000000000000
B0530283208093S11655981EA0070300789000000000000
B0530323208061S11656020EA0070500789000000000000
B0530363208101S11656054EA0070100788000000000000
B0530403208140S11655996EA0071100801000000000000
B0530443208095S11655943EA0071800807000000000000
B0530483208056S11655974EA0072300809000000000000
B0530523208082S11656016EA0072000811000000000000
B0530563208135S11655983EA0072900825000000000000
B0531003208125S11655905EA0074100835000000000000
B0531043208067S11655883EA0074900841000000000000
B0531083208047S11655933EA0075000843000000000000
B0531123208091S11655960EA0075400846000000000000
B0531163208139S11655915EA0076000857000000000000
B0531203208129S11655839EA0077400868000000000000
B0531243208073S11655824EA0077900872000000000000
B0531283208061S11655872EA0078300877000000000000
B0531323208108S11655883EA0078600880000000000000
B0531363208156S11655831EA0078800885000000000000
B0531403208155S11655755EA0080300904000000000000
B0531443208104S11655721EA0081300907000000000000
B0531483208069S11655759EA0081300906000000000000
B0531523208100S11655799EA0081300909000000000000
B0531563208155S11655765EA0082200918000000000000
B0532003208161S11655687EA0083500933000000000000
B0532043208113S11655649EA0084800944000000000000
B0532083208073S11655681EA0084800944000000000000
B0532123208095S11655723EA0085000949000000000000
B0532163208149S11655703EA0085900962000000000000
B0532203208168S11655629EA0086900971000000000000
B0532243208129S11655571EA0087800978000000000000
B0532283208078S11655588EA0088500982000000000000
B0532323208074S11655640EA0088500982000000000000
B0532363208123S11655657EA0089300991000000000000
B0532403208166S11655599EA0090001000000000000000
B0532443208148S11655523EA0091301014000000000000
B0532483208096S11655512EA0091801017000000000000
B0532523208084S11655558EA0092201020000000000000
B0532563208127S11655582EA0092901030000000000000
B0533003208171S11655535EA0093701041000000000000
B0533043208166S11655456EA0094901053000000000000
B0533083208118S11655418EA0096101061000000000000
B0533123208079S11655447EA0096701068000000000000
B0533163208083S11655492EA0097501076000000000000
B0533203208129S11655502EA0098401085000000000000
B0533243208174S11655460EA0099301096000000000000
B0533283208174S11655379EA0100501108000000000000
B0533323208129S11655322EA0101401116000000000000
B0533363208074S11655326EA0102501128000000000000
B0533403208060S11655371EA0103101134000000000000
B0533443208097S11655397EA0103801141000000000000
B0533483208142S11655356EA0104301146000000000000
B0533523208127S11655272EA0105201160000000000000
B0533563208074S11655233EA0106501168000000000000
B0534003208027S11655253EA0107301175000000000000
B0534043208022S11655300EA0107701180000000000000
B0534083208057S11655328EA0109401191000000000000
B0534123208103S11655307EA0110701204000000000000
B0534163208114S11655235EA0111301208000000000000
B0534203208069S11655172EA0111401214000000000000
B0534243208012S11655168EA0111901222000000000000
B0534283207992S11655215EA0112001224000000000000
B0534323208017S11655259EA0112001222000000000000
B0534363208067S11655249EA0113001245000000000000
B0534403208079S11655181EA0115201263000000000000
B0534443208035S11655128EA0115701263000000000000
B0534483207982S11655140EA0116301272000000000000
B0534523207973S11655188EA0117001276000000000000
B0534563208012S11655213EA0117901291000000000000
B0535003208051S11655167EA0119501302000000000000
B0535043208032S11655094EA0120301314000000000000
B0535083207975S11655080EA0121401322000000000000
B0535123207943S11655124EA0122001331000000000000
B0535163207974S11655159EA0122901346000000000000
B0535203208013S11655118EA0125101366000000000000
B0535243207999S11655045EA0125101366000000000000
B0535283207941S11655024EA0125501372000000000000
B0535323207905S11655067EA0126801388000000000000
B0535363207922S11655112EA0128501406000000000000
B0535403207969S11655099EA0130101420000000000000
B0535443207982S11655027EA0131101430000000000000
B0535483207940S11654967EA0131401429000000000000
B0535523207879S11654973EA0131901441000000000000
B0535563207866S11655023EA0133801459000000000000
B0536003207908S11655047EA0134001462000000000000
B0536043207954S11655007EA0135801484000000000000
B0536083207960S11654932EA0137201494000000000000
B0536123207914S11654876EA0137501494000000000000
B0536163207854S11654884EA0138101501000000000000
B0536203207836S11654936EA0139101514000000000000
B0536243207870S11654971EA0139801521000000000000
B0536283207919S11654946EA0140901536000000000000
B0536323207922S11654868EA0142101541000000000000
B0536363207866S11654817EA0142201548000000000000
B0536403207815S11654842EA0143801567000000000000
B0536443207813S11654893EA0144901574000000000000
B0536483207858S11654911EA0145201577000000000000
B0536523207911S11654875EA0145701586000000000000
B0536563207930S11654795EA0147401603000000000000
B0537003207883S11654738EA0148401609000000000000
B0537043207831S11654755EA0149201615000000000000
B0537083207814S11654812EA0149201617000000000000
B0537123207818S11654878EA0149501624000000000000
B0537163207828S11654945EA0150401632000000000000
B0537203207839S11655016EA0150801629000000000000
B0537243207850S11655094EA0149601613000000000000
B0537283207863S11655177EA0148101600000000000000
B0537323207879S11655258EA0147101589000000000000
B0537363207896S11655339EA0146001577000000000000
B0537403207914S11655415EA0145401571000000000000
B0537443207937S11655492EA0143901548000000000000
B0537483207949S11655580EA0141801532000000000000
B0537523207943S11655670EA0141001527000000000000
B0537563207924S11655756EA0141601537000000000000
B0538003207896S11655837EA0142701546000000000000
B0538043207859S11655915EA0143201550000000000000
B0538083207823S11655990EA0143701554000000000000
B0538123207788S11656067EA0142401534000000000000
B0538163207757S11656146EA0141001524000000000000
B0538203207724S11656227EA0139901514000000000000
B0538243207693S11656306EA0139101504000000000000
B0538283207662S11656386EA0137801490000000000000
B0538323207631S11656467EA0136501479000000000000
B0538363207599S11656548EA0135401465000000000000
B0538403207562S11656630EA0134101448000000000000
B0538443207520S11656711EA0132201427000000000000
B0538483207473S11656795EA0130201409000000000000
B0538523207433S11656877EA0129801409000000000000
B0538563207397S11656958EA0129501406000000000000
B0539003207360S11657039EA0128901398000000000000
B0539043207313S11657114EA0127701386000000000000
B0539083207260S11657185EA0127001379000000000000
B0539123207206S11657251EA0126401367000000000000
B0539163207150S11657319EA0125301356000000000000
B0539203207095S11657387EA0123601340000000000000
B0539243207039S11657458EA0122301325000000000000
B0539283206979S11657528EA0120601310000000000000
B0539323206912S11657589EA0119801303000000000000
B0539363206847S11657649EA0119301297000000000000
B0539403206787S11657711EA0118501287000000000000
B0539443206731S11657776EA0117901278000000000000
B0539483206676S11657842EA0116801267000000000000
B0539523206626S11657913EA0115501253000000000000
B0539563206584S11657987EA0113901235000000000000
B0540003206553S11658063EA0113501235000000000000
B0540043206536S11658138EA0113401231000000000000
B0540083206520S11658213EA0112501223000000000000
B0540123206498S11658288EA0111201212000000000000
B0540163206471S11658365EA0109901200000000000000
B0540203206441S11658443EA0109201190000000000000
B0540243206410S11658522EA0108401183000000000000
B0540283206384S11658603EA0107901179000000000000
B0540323206357S11658681EA0107701179000000000000
B0540363206333S11658758EA0107801177000000000000
B0540403206310S11658833EA0107601177000000000000
B0540443206294S11658911EA0108101181000000000000
B0540483206303S11658985EA0108601187000000000000
B0540523206324S11659059EA0109001198000000000000
B0540563206364S11659097EA0111501224000000000000
B0541003206409S11659044EA0112801233000000000000
B0541043206387S11658968EA0112801231000000000000
B0541083206324S11658953EA0112801233000000000000
B0541123206281S11658993EA0113201237000000000000
B0541163206275S11659053EA0113601239000000000000
B0541203206292S11659110EA0113801243000000000000
B0541243206324S11659161EA0113901245000000000000
B0541283206366S11659204EA0114301247000000000000
B0541323206407S11659250EA0114101247000000000000
B0541363206448S11659293EA0115301261000000000000
B0541403206492S11659327EA0115101255000000000000
B0541443206540S11659361EA0114501243000000000000
B0541483206583S11659405EA0113201229000000000000
B0541523206601S11659474EA0111301208000000000000
B0541563206596S11659553EA0109301192000000000000
B0542003206574S11659633EA0107601175000000000000
B0542043206536S11659709EA0106301163000000000000
B0542083206493S11659782EA0105001150000000000000
B0542123206452S11659856EA0103501131000000000000
B0542163206411S11659928EA0102801126000000000000
B0542203206370S11659997EA0102401118000000000000
B0542243206325S11700064EA0101401107000000000000
B0542283206281S11700132EA0100301100000000000000
B0542323206238S11700198EA0099901093000000000000
B0542363206194S11700263EA0098901080000000000000
B0542403206147S11700329EA0097501068000000000000
B0542443206102S11700397EA0096301053000000000000
B0542483206059S11700467EA0095101039000000000000
B0542523206020S11700537EA0094401032000000000000
B0542563205984S11700606EA0093401021000000000000
B0543003205948S11700676EA0092401014000000000000
B0543043205917S11700744EA0092101011000000000000
B0543083205900S11700816EA0091301000000000000000
B0543123205885S11700887EA0090400992000000000000
B0543163205863S11700956EA0090200990000000000000
B0543203205837S11701024EA0090200988000000000000
B0543243205808S11701089EA0089300976000000000000
B0543283205770S11701152EA0088300968000000000000
B0543323205733S11701212EA0088200972000000000000
B0543363205696S11701272EA0088600974000000000000
B0543403205670S11701334EA0089000980000000000000
B0543443205677S11701401EA0089400981000000000000
B0543483205696S11701467EA0089600986000000000000
B0543523205743S11701495EA0091001004000000000000
B0543563205757S11701412EA0092401018000000000000
B0544003205699S11701382EA0093101023000000000000
B0544043205657S11701428EA0093701028000000000000
B0544083205672S11701486EA0094901049000000000000
B0544123205718S11701466EA0097101071000000000000
B0544163205707S11701390EA0097701070000000000000
B0544203205644S11701364EA0097701078000000000000
B0544243205612S11701411EA0099701094000000000000
B0544283205633S11701459EA0100801109000000000000
B0544323205677S11701427EA0101801119000000000000
B0544363205660S11701349EA0101801119000000000000
B0544403205596S11701326EA0102201127000000000000
B0544443205564S11701376EA0103901149000000000000
B0544483205604S11701385EA0105801165000000000000
B0544523205616S11701316EA0106901177000000015000
B0544563205561S11701268EA0107901184000000000000
B0545003205510S11701298EA0109601205000000000000
B0545043205510S11701347EA0111001213000000000000
B0545083205557S11701358EA0111401216000000000000
B0545123205581S11701295EA0112501231000000000000
B0545163205538S11701234EA0113601240000000000000
B0545203205475S11701241EA0114801256000000000000
B0545243205453S11701293EA0116001266000000000000
B0545283205492S11701319EA0116301267000000015000
B0545323205536S11701267EA0116401273000000015000
B0545363205505S11701195EA0116801277000000015000
B0545403205438S11701199EA0117301281000000000000
B0545443205413S11701258EA0118301291000000000000
B0545483205452S11701287EA0119201299000000015000
B0545523205497S11701245EA0119101296000000015000
B0545563205491S11701165EA0118601292000000015000
B0546003205451S11701087EA0118101293000000015000
B0546043205399S11701017EA0119001300000000000000
B0546083205330S11701005EA0119701306000000000000
B0546123205315S11701063EA0120301313000000015000
B0546163205365S11701056EA0121101323000000015000
B0546203205370S11700982EA0121901336000000015000
B0546243205317S11700943EA0122401337000000015000
B0546283205266S11700974EA0122801341000000015000
B0546323205259S11701029EA0123201346000000000000
B0546363205289S11701074EA0123201341000000000000
B0546403205331S11701116EA0122201328000000000000
B0546443205379S11701157EA0120701311000000000000
B0546483205418S11701221EA0118601289000000000000
B0546523205434S11701304EA0117101273000000000000
B0546563205430S11701390EA0115601258000000000000
B0547003205412S11701477EA0114701252000000000000
B0547043205388S11701566EA0113901246000000000000
B0547083205363S11701651EA0113801244000000000000
B0547123205339S11701736EA0113901248000000000000
B0547163205337S11701820EA0114901256000000000000
B0547203205362S11701896EA0115601263000000000000
B0547243205393S11701961EA0116201269000000000000
B0547283205427S11702022EA0115901258000000000000
B0547323205453S11702099EA0115201262000000000000
B0547363205482S11702170EA0116001266000000000000
B0547403205514S11702239EA0115401254000000000000
B0547443205549S11702309EA0114101240000000000000
B0547483205570S11702392EA0112301223000000000000
B0547523205574S11702483EA0111201215000000000000
B0547563205568S11702574EA0110701213000000000000
B0548003205553S11702664EA0110301204000000000000
B0548043205530S11702755EA0109501195000000000000
B0548083205501S11702846EA0108501186000000000000
B0548123205473S11702936EA0107901178000000000000
B0548163205443S11703023EA0107401174000000000000
B0548203205415S11703110EA0106701168000000000000
B0548243205389S11703196EA0105901159000000000000
B0548283205362S11703283EA0105301153000000000000
B0548323205332S11703370EA0104101141000000000000
B0548363205298S11703457EA0103301129000000000000
B0548403205263S11703542EA0102201119000000000000
B0548443205224S11703624EA0101201106000000000000
B0548483205184S11703708EA0099801091000000000000
B0548523205144S11703791EA0098301077000000000000
B0548563205103S11703876EA0096901061000000000000
B0549003205062S11703959EA0095701050000000000000
B0549043205020S11704041EA0094901045000000000000
B0549083204980S11704120EA0094601040000000000000
B0549123204941S11704197EA0094101032000000000000
B0549163204905S11704274EA0093801033000000000000
B0549203204872S11704346EA0094601041000000000000
B0549243204856S11704420EA0095501049000000000000
B0549283204859S11704492EA0095601049000000000000
B0549323204869S11704560EA0096801068000000000000
B0549363204901S11704602EA0098801083000000000000
B0549403204947S11704562EA0098801083000000000000
B0549443204921S11704487EA0098001076000000000000
B0549483204855S11704478EA0097901078000000000000
B0549523204816S11704528EA0098501087000000000000
B0549563204810S11704593EA0099501098000000000000
B0550003204846S11704625EA0100101093000000000000
B0550043204869S11704554EA0098901080000000000000
B0550083204812S11704498EA0098701090000000000000
B0550123204745S11704506EA0100001102000000000000
B0550163204698S11704552EA0100901108000000000000
B0550203204694S11704614EA0101001105000000000000
B0550243204717S11704677EA0100401104000000000000
B0550283204747S11704736EA0100501102000000000000
B0550323204784S11704790EA0100001095000000000000
B0550363204823S11704844EA0099101088000000000000
B0550403204863S11704900EA0098101075000000000000
B0550443204901S11704963EA0097501067000000000000
B0550483204934S11705026EA0096801062000000000000
B0550523204964S11705090EA0095801050000000000000
B0550563204983S11705163EA0094001026000000000000
B0551003204980S11705245EA0092701020000000000000
B0551043204964S11705325EA0092301018000000000000
B0551083204944S11705402EA0092301018000000000000
B0551123204920S11705476EA0092101014000000000000
B0551163204893S11705551EA0091901014000000000000
B0551203204899S11705622EA0093201026000000000000
B0551243204929S11705683EA0093301028000000000000
B0551283204963S11705739EA0094501043000000000000
B0551323204994S11705789EA0095701051000000000000
B0551363205028S11705840EA0095901051000000000000
B0551403205079S11705845EA0096501059000000000000
B0551443205077S11705766EA0096401058000000000000
B0551483205015S11705739EA0096501056000000000000
B0551523204973S11705779EA0096201057000000000000
B0551563204986S11705835EA0095901054000000000000
B0552003205016S11705893EA0096201060000000000000
B0552043205051S11705948EA0097101068000000000000
B0552083205097S11705991EA0097701076000000000000
B0552123205145S11705945EA0098701089000000000000
B0552163205113S11705876EA0099701097000000000000
B0552203205058S11705892EA0100001099000000000000
B0552243205054S11705951EA0100201100000000000000
B0552283205080S11706006EA0099501094000000000000
B0552323205122S11706056EA0099901102000000000000
B0552363205176S11706044EA0102601129000000000000
B0552403205163S11705964EA0104101143000000000000
B0552443205100S11705957EA0105001153000000000000
B0552483205084S11706008EA0106001162000000000000
B0552523205129S11706021EA0107001177000000000000
B0552563205175S11705973EA0108301186000000000000
B0553003205170S11705887EA0109101197000000000000
B0553043205113S11705837EA0110301212000000000000
B0553083205062S11705857EA0111401219000000000000
B0553123205067S11705904EA0112001228000000000000
B0553163205116S11705891EA0113601243000000000000
B0553203205133S11705813EA0114501254000000000000
B0553243205083S11705759EA0116101270000000000000
B0553283205029S11705774EA0117001276000000000000
B0553323205024S11705823EA0117701286000000000000
B0553363205070S11705824EA0119001299000000000000
B0553403205101S11705757EA0119601305000000000000
B0553443205068S11705684EA0120901322000000000000
B0553483205018S11705691EA0121901331000000000000
B0553523205027S11705733EA0122401339000000000000
B0553563205077S11705710EA0124001350000000000000
B0554003205081S11705628EA0124401359000000000000
B0554043205025S11705589EA0125801374000000000000
B0554083204986S11705623EA0126801379000000000000
B0554123205009S11705663EA0127801392000000000000
B0554163205059S11705641EA0128801399000000000000
B0554203205079S11705564EA0129401408000000000000
B0554243205038S11705501EA0130901422000000000000
B0554283204986S11705515EA0131901433000000000000
B0554323204994S11705561EA0133101444000000000000
B0554363205044S11705546EA0134001452000000000000
B0554403205055S11705467EA0134701462000000000000
B0554443205006S11705408EA0135901475000000000000
B0554483204950S11705415EA0136801479000000000000
B0554523204934S11705468EA0136501479000000000000
B0554563204977S11705492EA0137601490000000000000
B0555003205019S11705432EA0138101495000000000000
B0555043204998S11705346EA0138601503000000000000
B0555083204938S11705315EA0139701515000000000000
B0555123204903S11705355EA0140001513000000000000
B0555163204911S11705411EA0139901514000000000000
B0555203204946S11705455EA0140401525000000000000
B0555243205001S11705444EA0142101538000000000000
B0555283205029S11705371EA0142701541000000000000
B0555323204996S11705291EA0142401542000000000000
B0555363204932S11705273EA0143301553000000000000
B0555403204890S11705310EA0144801565000000000000
B0555443204897S11705356EA0145601571000000000000
B0555483204945S11705363EA0146201578000000000000
B0555523204981S11705303EA0146601588000000000000
B0555563204966S11705224EA0147201592000000000000
B0556003204910S11705178EA0147401591000000000000
B0556043204846S11705176EA0147501594000000000000
B0556083204801S11705211EA0147801595000000000000
B0556123204786S11705267EA0147801593000000000000
B0556163204810S11705316EA0147301591000000000000
B0556203204849S11705360EA0147001588000000000000
B0556243204894S11705399EA0146401581000000000000
B0556283204924S11705460EA0144301558000000000000
B0556323204927S11705544EA0142601544000000000000
B0556363204903S11705627EA0142301544000000000000
B0556403204862S11705701EA0142401542000000000000
B0556443204810S11705770EA0142001539000000000000
B0556483204756S11705839EA0141501532000000000000
B0556523204700S11705902EA0141701537000000000000
B0556563204648S11705962EA0142301537000000000000
B0557003204595S11706022EA0141301528000000000000
B0557043204535S11706078EA0140601518000000000000
B0557083204473S11706133EA0140101517000000000000
B0557123204414S11706186EA0140401514000000000000
B0557163204352S11706242EA0139201501000000000000
B0557203204291S11706300EA0137901487000000000000
B0557243204229S11706357EA0136801479000000000000
B0557283204169S11706412EA0136201467000000000000
B0557323204106S11706467EA0135401462000000000000
B0557363204047S11706520EA0134301450000000000000
B0557403203988S11706573EA0132901433000000000000
B0557443203930S11706625EA0131701419000000000000
B0557483203871S11706677EA0130401403000000000000
B0557523203813S11706728EA0128801390000000000000
B0557563203754S11706775EA0128201384000000000000
B0558003203698S11706822EA0127801380000000000000
B0558043203640S11706870EA0126301363000000000000
B0558083203579S11706922EA0125601362000000000000
B0558123203520S11706971EA0125601359000000000000
B0558163203462S11707020EA0124801350000000000000
B0558203203402S11707074EA0123701335000000000000
B0558243203341S11707126EA0122701326000000000000
B0558283203282S11707182EA0121401314000000000000
B0558323203231S11707245EA0120401303000000000000
B0558363203181S11707313EA0119601296000000000000
B0558403203135S11707383EA0120301310000000000000
B0558443203139S11707447EA0122401330000000000000
B0558483203195S11707431EA0123401338000000000000
B0558523203194S11707353EA0123201340000000000000
B0558563203137S11707322EA0123601346000000000000
B0559003203078S11707345EA0124201351000000000000
B0559043203055S11707397EA0124401352000000000000
B0559083203079S11707442EA0124201351000000000000
B0559123203117S11707478EA0124201350000000000000
B0559163203155S11707521EA0124401353000000000000
B0559203203191S11707561EA0124901359000000000000
B0559243203226S11707600EA0125501367000000000000
B0559283203257S11707637EA0125901365000000000000
B0559323203295S11707670EA0124701351000000000000
B0559363203335S11707709EA0123401342000000000000
B0559403203384S11707743EA0122101328000000000000
B0559443203413S11707800EA0121301314000000000000
B0559483203415S11707873EA0120301308000000000000
B0559523203390S11707949EA0120701316000000000000
B0559563203358S11708019EA0121401324000000000000
B0600003203359S11708083EA0123401343000000000000
B0600043203393S11708124EA0124701352000000000000
B0600083203429S11708163EA0124901353000000000000
B0600123203472S11708194EA0125301358000000000000
B0600163203517S11708227EA0125001353000000000000
B0600203203567S11708257EA0125801372000000000000
B0600243203618S11708276EA0127901393000000000000
B0600283203664S11708252EA0129501406000000000000
B0600323203657S11708168EA0129901410000000000000
B0600363203590S11708141EA0129901411000000000000
B0600403203542S11708187EA0130301417000000000000
B0600443203537S11708252EA0131401427000000000000
B0600483203575S11708292EA0133201447000000000000
B0600523203618S11708235EA0134101460000000000000
B0600563203582S11708168EA0135601478000000000000
B0601003203525S11708180EA0136801484000000000000
B0601043203517S11708236EA0137801495000000000000
B0601083203576S11708239EA0140001523000000000000
B0601123203594S11708164EA0142201542000000000000
B0601163203549S11708114EA0143101546000000000000
B0601203203486S11708142EA0143201555000000000000
B0601243203494S11708201EA0145501585000000000000
B0601283203551S11708188EA0148601609000000000000
B0601323203573S11708112EA0150301624000000000000
B0601363203538S11708046EA0151801639000000000000
B0601403203472S11708040EA0152701649000000000000
B0601443203439S11708089EA0154701674000000000000
B0601483203476S11708122EA0157501694000000000000
B0601523203528S11708084EA0158401703000000000000
B0601563203525S11708006EA0160401724000000000000
B0602003203469S11707960EA0161801740000000000000
B0602043203411S11707985EA0162801754000000000000
B0602083203406S11708041EA0165801780000000000000
B0602123203454S11708060EA0167001790000000000000
B0602163203493S11708008EA0168501809000000000000
B0602203203464S11707942EA0170201824000000000000
B0602243203398S11707937EA0170801832000000000000
B0602283203384S11707998EA0172901855000000000000
B0602323203426S11708020EA0174901873000000000000
B0602363203459S11707967EA0175601881000000000000
B0602403203428S11707899EA0176701898000000000000
B0602443203364S11707899EA0178101910000000000000
B0602483203338S11707960EA0179701923000000000000
B0602523203373S11708003EA0179701918000000000000
B0602563203425S11707972EA0179501923000000000000
B0603003203425S11707897EA0180701935000000000000
B0603043203385S11707824EA0181601947000000000000
B0603083203320S11707793EA0183401965000000000000
B0603123203291S11707847EA0185001976000000000000
B0603163203339S11707871EA0186001984000000000000
B0603203203369S11707807EA0186601996000000000000
B0603243203322S11707745EA0188702022000000000000
B0603283203260S11707760EA0190602035000000000000
B0603323203237S11707821EA0191802044000000000000
B0603363203263S11707867EA0191102036000000000000
B0603403203313S11707858EA0190802037000000000000
B0603443203333S11707791EA0191602046000000000000
B0603483203306S11707717EA0192602058000000000000
B0603523203242S11707715EA0193502063000000000000
B0603563203224S11707780EA0193602068000000000000
B0604003203265S11707807EA0194502075000000000000
B0604043203302S11707756EA0194302072000000000000
B0604083203281S11707674EA0194602075000000000000
B0604123203226S11707607EA0194902082000000000000
B0604163203156S11707595EA0196402095000000000000
B0604203203105S11707643EA0196302087000000000000
B0604243203057S11707708EA0192802045000000000000
B0604283202996S11707784EA0189102017000000000000
B0604323202931S11707858EA0188002006000000000000
B0604363202867S11707929EA0187102001000000000000
B0604403202806S11707997EA0187002001000000000000
B0604443202752S11708062EA0187902014000000000000
B0604483202697S11708128EA0188302013000000000000
B0604523202640S11708197EA0188602017000000000000
B0604563202614S11708266EA0191902062000000000000
B0605003202654S11708291EA0195502087000000000000
B0605043202692S11708229EA0195802090000000000000
B0605083202663S11708151EA0197002109000000000000
B0605123202604S11708133EA0198902123000000000000
B0605163202580S11708177EA0199402125000000000000
B0605203202620S11708203EA0200002132000000000000
B0605243202670S11708162EA0200802140000000000000
B0605283202678S11708077EA0202102154000000000000
B0605323202631S11708018EA0203702172000000000000
B0605363202578S11708033EA0204202176000000000000
B0605403202576S11708085EA0204302179000000000000
B0605443202626S11708096EA0204902186000000000000
B0605483202671S11708046EA0206602206000000000000
B0605523202674S11707966EA0208002215000000000000
B0605563202633S11707899EA0209102225000000000000
B0606003202574S11707867EA0209402226000000000000
B0606043202515S11707869EA0208602212000000000000
B0606083202461S11707908EA0205802186000000000000
B0606123202406S11707966EA0203702168000000000000
B0606163202350S11708031EA0201802148000000000000
B0606203202290S11708103EA0200202137000000000000
B0606243202229S11708176EA0199802130000000000000
B0606283202168S11708252EA0198902120000000000000
B0606323202110S11708330EA0198202114000000000000
B0606363202052S11708406EA0198102114000000000000
B0606403201998S11708483EA0197902112000000000000
B0606443201943S11708561EA0197302104000000000000
B0606483201885S11708643EA0196802101000000000000
B0606523201826S11708721EA0196702099000000000000
B0606563201772S11708795EA0196502095000000000000
B0607003201718S11708869EA0196002089000000000000
B0607043201665S11708943EA0195502083000000000000
B0607083201612S11709017EA0194702076000000000000
B0607123201557S11709093EA0194002067000000000000
B0607163201504S11709168EA0193202058000000000000
B0607203201452S11709245EA0192002045000000000000
B0607243201398S11709325EA0190502029000000000000
B0607283201343S11709409EA0189202020000000000000
B0607323201284S11709489EA0188202005000000000000
B0607363201223S11709570EA0186801994000000000000
B0607403201161S11709649EA0186201985000000000000
B0607443201097S11709727EA0185001975000000000000
B0607483201032S11709804EA0183801962000000000000
B0607523200967S11709880EA0182701952000000000000
B0607563200899S11709956EA0181901944000000000000
B0608003200833S11710033EA0180901935000000000000
B0608043200768S11710109EA0180101925000000000000
B0608083200704S11710187EA0179401918000000000000
B0608123200639S11710263EA0178401905000000000000
B0608163200574S11710341EA0176801889000000000000
B0608203200508S11710419EA0175501876000000000000
B0608243200442S11710497EA0174301865000000000000
B0608283200373S11710575EA0172601850000000000000
B0608323200304S11710653EA0171301837000000000000
B0608363200234S11710729EA0170501825000000000000
B0608403200166S11710805EA0169801821000000000000
B0608443200101S11710875EA0169701821000000000000
B0608483200039S11710943EA0170001821000000000000
B0608523159981S11711011EA0169201812000000000000
B0608563159924S11711080EA0168101795000000000000
B0609003159864S11711151EA0165901774000000000000
B0609043159801S11711219EA0163901754000000000000
B0609083159734S11711287EA0162201737000000000000
B0609123159668S11711355EA0161701730000000000000
B0609163159602S11711422EA0160201714000000000000
B0609203159536S11711492EA0159001706000000000000
B0609243159471S11711564EA0158001694000000000000
B0609283159407S11711637EA0156701680000000000000
B0609323159342S11711710EA0155201664000000000000
B0609363159276S11711781EA0153701654000000000000
B0609403159211S11711850EA0153201645000000000000
B0609443159147S11711918EA0152201636000000000000
B0609483159084S11711984EA0151401629000000000000
B0609523159022S11712049EA0151001621000000000000
B0609563158960S11712115EA0149401606000000000000
B0610003158896S11712184EA0148401596000000000000
B0610043158834S11712254EA0147401585000000000000
B0610083158769S11712324EA0146401577000000000000
B0610123158705S11712393EA0145401567000000000000
B0610163158644S11712465EA0144701560000000000000
B0610203158588S11712542EA0144001551000000000000
B0610243158538S11712622EA0142701538000000000000
B0610283158489S11712705EA0141401521000000000000
B0610323158440S11712789EA0140001508000000000000
B0610363158388S11712872EA0138601494000000000000
B0610403158334S11712955EA0137101479000000000000
B0610443158280S11713037EA0135901466000000000000
B0610483158225S11713120EA0134601450000000000000
B0610523158174S11713205EA0133201436000000000000
B0610563158126S11713289EA0132201427000000000000
B0611003158080S11713375EA0131101414000000000000
B0611043158035S11713461EA0130201408000000000000
B0611083157995S11713545EA0129601402000000000000
B0611123157964S11713626EA0129601403000000000000
B0611163157934S11713700EA0129701399000000000000
B0611203157905S11713774EA0128701388000000000000
B0611243157872S11713849EA0127301373000000000000
B0611283157838S11713930EA0125801360000000000000
B0611323157804S11714013EA0124601349000000000000
B0611363157771S11714098EA0123701339000000000000
B0611403157738S11714186EA0122301323000000000000
B0611443157703S11714274EA0120401300000000000000
B0611483157675S11714365EA0119701302000000000000
B0611523157680S11714453EA0120701314000000000000
B0611563157705S11714527EA0122601337000000000000
B0612003157742S11714585EA0124801355000000000000
B0612043157782S11714637EA0125301358000000000000
B0612083157829S11714688EA0125401356000000000000
B0612123157881S11714731EA0125401360000000000000
B0612163157937S11714767EA0126301371000000000000
B0612203157992S11714794EA0128001387000000000000
B0612243158037S11714740EA0129001394000000000000
B0612283158002S11714674EA0128901397000000000000
B0612323157950S11714690EA0129601405000000000000
B0612363157939S11714746EA0129801410000000000000
B0612403157969S11714798EA0130201415000000000000
B0612443158026S11714780EA0131001420000000000000
B0612483158026S11714701EA0131901435000000000000
B0612523157976S11714674EA0133501444000000000000
B0612563157942S11714715EA0132801439000000000000
B0613003157974S11714758EA0134101455000000000000
B0613043158028S11714727EA0135401460000000000000
B0613083158028S11714648EA0135701467000000000000
B0613123157977S11714612EA0136801480000000000000
B0613163157933S11714641EA0137301484000000000000
B0613203157937S11714698EA0137701487000000000000
B0613243157978S11714750EA0137701487000000000000
B0613283158025S11714805EA0137101478000000000000
B0613323158073S11714867EA0136101468000000000000
B0613363158125S11714928EA0136001475000000000000
B0613403158173S11714989EA0136201475000000000000
B0613443158213S11715061EA0134301439000000000000
B0613483158217S11715162EA0130101411000000000000
B0613523158197S11715265EA0130101420000000000000
B0613563158169S11715356EA0131401430000000000000
B0614003158134S11715444EA0131301425000000000000
B0614043158086S11715528EA0130301412000000000000
B0614083158033S11715610EA0129501402000000000000
B0614123157976S11715688EA0128301386000000000000
B0614163157918S11715769EA0126801371000000000000
B0614203157861S11715853EA0125501363000000000000
B0614243157803S11715933EA0124301349000000000000
B0614283157747S11716014EA0124101347000000000000
B0614323157695S11716097EA0122801331000000000000
B0614363157648S11716178EA0123501343000000000000
B0614403157604S11716256EA0123801340000000000000
B0614443157558S11716334EA0122601326000000000000
B0614483157513S11716412EA0121701314000000000000
B0614523157465S11716488EA0121001310000000000000
B0614563157413S11716561EA0121701319000000000000
B0615003157361S11716630EA0122501322000000000000
B0615043157314S11716702EA0122501325000000000000
B0615083157293S11716776EA0123401331000000000000
B0615123157281S11716848EA0122301318000000000000
B0615163157257S11716921EA0121601318000000000000
B0615203157228S11716989EA0122801334000000000000
B0615243157211S11717053EA0124101352000000000000
B0615283157220S11717107EA0126501370000000000000
B0615323157274S11717099EA0127001373000000000000
B0615363157284S11717011EA0127501380000000000000
B0615403157231S11716956EA0127901389000000000000
B0615443157175S11716968EA0129401403000000000000
B0615483157150S11717012EA0130201412000000000000
B0615523157147S11717066EA0130901417000000000000
B0615563157159S11717123EA0131801429000000000000
B0616003157206S11717151EA0132901440000000000000
B0616043157250S11717089EA0133401444000000000000
B0616083157227S11717008EA0133501446000000000000
B0616123157168S11716990EA0133401442000000000000
B0616163157129S11717032EA0133101442000000000000
B0616203157121S11717095EA0133201445000000000000
B0616243157136S11717160EA0133301446000000000000
B0616283157164S11717225EA0133201444000000000000
B0616323157199S11717289EA0132101429000000000000
B0616363157209S11717371EA0130301410000000000000
B0616403157180S11717456EA0128501397000000000000
B0616443157133S11717535EA0127701387000000000000
B0616483157081S11717609EA0126401375000000000000
B0616523157028S11717682EA0125801370000000000000
B0616563156976S11717752EA0125001359000000000000
B0617003156924S11717823EA0123501342000000000000
B0617043156872S11717896EA0122201326000000000000
B0617083156821S11717969EA0121501322000000000000
B0617123156772S11718041EA0121401321000000000000
B0617163156724S11718107EA0121701324000000000000
B0617203156681S11718171EA0121701321000000000000
B0617243156637S11718232EA0121401318000000000000
B0617283156586S11718290EA0121101317000000000000
B0617323156531S11718346EA0121501322000000000000
B0617363156490S11718407EA0121901328000000000000
B0617403156484S11718475EA0123301340000000000000
B0617443156512S11718531EA0123901346000000000000
B0617483156542S11718584EA0124101343000000000000
B0617523156578S11718632EA0123301335000000000000
B0617563156635S11718657EA0122501326000000000000
B0618003156696S11718619EA0121901322000000000000
B0618043156709S11718528EA0121601319000000000000
B0618083156661S11718458EA0120901309000000000000
B0618123156590S11718453EA0120201304000000000000
B0618163156523S11718486EA0119001285000000000000
B0618203156456S11718529EA0117701275000000000000
B0618243156395S11718580EA0117801276000000000000
B0618283156339S11718633EA0117501272000000000000
B0618323156286S11718692EA0117301271000000000000
B0618363156249S11718758EA0118501286000000000000
B0618403156235S11718824EA0118201274000000000000
B0618443156228S11718899EA0116601260000000000000
B0618483156232S11718978EA0115401245000000000000
B0618523156228S11719062EA0112601218000000000000
B0618563156201S11719149EA0111001200000000000000
B0619003156158S11719229EA0109701189000000000000
B0619043156105S11719299EA0108901180000000000000
B0619083156048S11719363EA0107901171000000000000
B0619123155985S11719420EA0106701159000000000000
B0619163155929S11719481EA0106301155000000000000
B0619203155888S11719551EA0105601144000000000000
B0619243155851S11719627EA0104201128000000000000
B0619283155824S11719702EA0103801129000000000000
B0619323155807S11719777EA0103401122000000000000
B0619363155805S11719853EA0102701112000000000000
B0619403155815S11719929EA0102501117000000000000
B0619443155859S11719976EA0104101131000000000000
B0619483155912S11719948EA0104501132000000000000
B0619523155928S11719870EA0103801123000000000000
B0619563155893S11719788EA0102301109000000000000
B0620003155840S11719714EA0100601093000000000000
B0620043155782S11719636EA0099601082000000000000
B0620083155724S11719559EA0099001080000000000000
B0620123155663S11719486EA0098901077000000000000
B0620163155602S11719411EA0098601075000000000000
B0620203155541S11719338EA0098701076000000000000
B0620243155480S11719265EA0098601076000000000000
B0620283155422S11719200EA0099501082000000000000
B0620323155366S11719135EA0098901074000000000000
B0620363155308S11719068EA0098801074000000000000
B0620403155252S11718997EA0098701074000000000000
B0620443155200S11718927EA0099101078000000000000
B0620483155153S11718854EA0099501084000000000000
B0620523155096S11718804EA0100201090000000000000
B0620563155053S11718834EA0100801092000000000000
B0621003155091S11718865EA0101601102000000000000
B0621043155140S11718814EA0103201120000000000000
B0621083155132S11718740EA0104201128000000000000
B0621123155080S11718730EA0104601132000000000000
B0621163155069S11718775EA0105201139000000000000
B0621203155118S11718784EA0106101153000000000000
B0621243155151S11718724EA0107301161000000000000
B0621283155126S11718655EA0107601169000000000000
B0621323155074S11718653EA0108001170000000000000
B0621363155066S11718701EA0108101172000000000000
B0621403155113S11718714EA0109201185000000000000
B0621443155144S11718649EA0110001191000000000000
B0621483155116S11718579EA0110301201000000000000
B0621523155062S11718567EA0111101205000000000000
B0621563155032S11718606EA0111201207000000000000
B0622003155060S11718646EA0112001220000000000000
B0622043155108S11718605EA0113501230000000000000
B0622083155100S11718524EA0113901236000000000000
B0622123155048S11718496EA0114701240000000000000
B0622163155019S11718540EA0114201238000000000000
B0622203155056S11718567EA0116001259000000000000
B0622243155101S11718529EA0117601271000000000000
B0622283155104S11718454EA0118101276000000000000
B0622323155058S11718401EA0117901272000000000000
B0622363155005S11718406EA0118301278000000000000
B0622403154991S11718451EA0118901287000000000000
B0622443155014S11718492EA0119701298000000000000
B0622483155061S11718470EA0120901307000000000000
B0622523155056S11718386EA0120701307000000000000
B0622563155002S11718340EA0121601316000000000000
B0623003154956S11718363EA0122301325000000000000
B0623043154956S11718414EA0122801332000000000000
B0623083154999S11718428EA0124901353000000000000
B0623123155032S11718371EA0125801356000000000000
B0623163155010S11718291EA0126001365000000000000
B0623203154954S11718259EA0126801376000000000000
B0623243154915S11718290EA0127601381000000000000
B0623283154928S11718338EA0128301391000000000000
B0623323154979S11718347EA0129801407000000000000
B0623363155018S11718294EA0131101415000000000000
B0623403155004S11718215EA0131401419000000000000
B0623443154947S11718177EA0132001427000000000000
B0623483154900S11718202EA0133001434000000000000
B0623523154891S11718256EA0133601444000000000000
B0623563154931S11718285EA0135501465000000000000
B0624003154975S11718245EA0136901477000000000000
B0624043154976S11718167EA0137101476000000000000
B0624083154927S11718107EA0137201483000000000000
B0624123154867S11718099EA0138101492000000000000
B0624163154828S11718137EA0139001500000000000000
B0624203154850S11718178EA0139801509000000000000
B0624243154900S11718151EA0141401532000000000000
B0624283154898S11718074EA0143501552000000000000
B0624323154844S11718038EA0144401560000000000000
B0624363154809S11718069EA0145401569000000000000
B0624403154835S11718106EA0145801570000000000000
B0624443154885S11718081EA0147301595000000000000
B0624483154895S11718007EA0149501614000000000000
B0624523154853S11717948EA0150101615000000000000
B0624563154797S11717956EA0150701627000000000000
B0625003154791S11718003EA0151801632000000000000
B0625043154837S11718024EA0152001635000000000000
B0625083154888S11717978EA0153501657000000000000
B0625123154900S11717899EA0154901669000000000000
B0625163154858S11717836EA0156201680000000000000
B0625203154802S11717835EA0157401690000000000000
B0625243154785S11717883EA0157901695000000000000
B0625283154827S11717911EA0158101700000000000000
B0625323154878S11717869EA0159901719000000000000
B0625363154878S11717792EA0161701733000000000000
B0625403154826S11717743EA0162201739000000000000
B0625443154772S11717762EA0163201750000000000000
B0625483154763S11717814EA0163701756000000000000
B0625523154810S11717843EA0164001761000000000000
B0625563154863S11717804EA0165601777000000000000
B0626003154853S11717727EA0167201791000000000000
B0626043154794S11717700EA0168001800000000000000
B0626083154762S11717740EA0169301812000000000000
B0626123154793S11717781EA0169601813000000000000
B0626163154850S11717756EA0170301823000000000000
B0626203154857S11717680EA0172101841000000000000
B0626243154807S11717631EA0172801846000000000000
B0626283154757S11717653EA0173701858000000000000
B0626323154761S11717705EA0174701865000000000000
B0626363154814S11717719EA0175401871000000000000
B0626403154856S11717664EA0176101884000000000000
B0626443154849S11717586EA0177501899000000000000
B0626483154801S11717536EA0178301904000000000000
B0626523154745S11717543EA0179101914000000000000
B0626563154728S11717591EA0180201922000000000000
B0627003154771S11717625EA0180501927000000000000
B0627043154822S11717589EA0181601940000000000000
B0627083154819S11717511EA0182701948000000000000
B0627123154766S11717467EA0183001954000000000000
B0627163154713S11717485EA0183901964000000000000
B0627203154707S11717539EA0185001978000000000000
B0627243154754S11717562EA0186201989000000000000
B0627283154806S11717528EA0187101995000000000000
B0627323154818S11717452EA0187602000000000000000
B0627363154780S11717385EA0187802002000000000000
B0627403154718S11717371EA0188102007000000000000
B0627443154681S11717414EA0189402024000000000000
B0627483154702S11717457EA0191002038000000000000
B0627523154755S11717444EA0192002047000000000000
B0627563154778S11717376EA0192402050000000000000
B0628003154745S11717314EA0192502052000000000000
B0628043154688S11717306EA0193002060000000000000
B0628083154657S11717345EA0194002071000000000000
B0628123154666S11717391EA0195202081000000000000
B0628163154702S11717423EA0195502082000000000000
B0628203154754S11717435EA0195702084000000000000
B0628243154805S11717391EA0195602081000000000000
B0628283154807S11717316EA0195902087000000000000
B0628323154758S11717270EA0194902070000000000000
B0628363154693S11717294EA0193902068000000000000
B0628403154642S11717352EA0193502059000000000000
B0628443154593S11717418EA0192802055000000000000
B0628483154549S11717489EA0193102058000000000000
B0628523154507S11717566EA0193002057000000000000
B0628563154475S11717645EA0193502062000000000000
B0629003154456S11717729EA0193702059000000000000
B0629043154446S11717813EA0192802044000000000000
B0629083154447S11717900EA0191502034000000000000
B0629123154463S11717985EA0190402021000000000000
B0629163154479S11718069EA0189002005000000000000
B0629203154479S11718161EA0187401990000000000000
B0629243154467S11718252EA0186601985000000000000
B0629283154447S11718341EA0186401981000000000000
B0629323154421S11718427EA0186201980000000000000
B0629363154393S11718509EA0186401984000000000000
B0629403154365S11718587EA0187201991000000000000
B0629443154342S11718661EA0187201990000000000000
B0629483154321S11718736EA0186401976000000000000
B0629523154302S11718819EA0184501955000000000000
B0629563154284S11718909EA0182301941000000000000
B0630003154267S11719000EA0181901936000000000000
B0630043154254S11719088EA0181601932000000000000
B0630083154242S11719173EA0181301928000000000000
B0630123154239S11719257EA0181001926000000000000
B0630163154239S11719339EA0181301931000000000000
B0630203154235S11719421EA0181601934000000000000
B0630243154225S11719502EA0181601933000000000000
B0630283154207S11719581EA0181501932000000000000
B0630323154185S11719659EA0182301944000000000000
B0630363154157S11719727EA0184601967000000000000
B0630403154150S11719786EA0187201990000000000000
B0630443154195S11719802EA0188301997000000000000
B0630483154232S11719736EA0187601981000000000000
B0630523154198S11719653EA0186501981000000000000
B0630563154133S11719629EA0187501996000000000000
B0631003154074S11719654EA0188502005000000000000
B0631043154029S11719698EA0189502021000000000000
B0631083154026S11719749EA0191602042000000000000
B0631123154073S11719753EA0193202053000000000000
B0631163154102S11719688EA0193002043000000000000
B0631203154068S11719602EA0192602052000000000000
B0631243153999S11719565EA0194102066000000000000
B0631283153930S11719582EA0195302077000000000000
B0631323153907S11719637EA0196202084000000000000
B0631363153955S11719650EA0196402091000000000000
B0631403153985S11719581EA0198302114000000000000
B0631443153949S11719508EA0200002137000000000000
B0631483153886S11719491EA0201502140000000000000
B0631523153845S11719536EA0201302138000000000000
B0631563153823S11719602EA0199602115000000000000
B0632003153814S11719682EA0197702101000000000000
B0632043153804S11719770EA0196402086000000000000
B0632083153782S11719863EA0194402066000000000000
B0632123153754S11719963EA0193102056000000000000
B0632163153721S11720066EA0190802029000000000000
B0632203153680S11720171EA0188702009000000000000
B0632243153635S11720267EA0189302021000000000000
B0632283153595S11720355EA0189802021000000000000
B0632323153556S11720444EA0188502007000000000000
B0632363153517S11720531EA0188202003000000000000
B0632403153483S11720616EA0188702010000000000000
B0632443153453S11720700EA0188702004000000000000
B0632483153426S11720786EA0187701993000000000000
B0632523153398S11720876EA0186501974000000000000
B0632563153374S11720971EA0185201965000000000000
B0633003153353S11721066EA0184201959000000000000
B0633043153332S11721158EA0183601953000000000000
B0633083153307S11721248EA0183601950000000000000
B0633123153281S11721335EA0183001944000000000000
B0633163153260S11721422EA0182901945000000000000
B0633203153241S11721514EA0182401937000000000000
B0633243153223S11721610EA0181501931000000000000
B0633283153215S11721704EA0181801930000000000000
B0633323153206S11721798EA0180601918000000000000
B0633363153201S11721895EA0179301905000000000000
B0633403153190S11721995EA0177901894000000000000
B0633443153182S11722094EA0177301887000000000000
B0633483153172S11722193EA0176401874000000000000
B0633523153164S11722292EA0175701872000000000000
B0633563153156S11722389EA0175401865000000000000
B0634003153145S11722488EA0174501859000000000000
B0634043153140S11722581EA0174401853000000000000
B0634083153136S11722675EA0173001841000000000000
B0634123153134S11722766EA0172901839000000000000
B0634163153132S11722857EA0172801840000000000000
B0634203153133S11722944EA0172901841000000000000
B0634243153128S11723034EA0171801829000000000000
B0634283153125S11723124EA0171201828000000000000
B0634323153124S11723211EA0171401827000000000000
B0634363153120S11723300EA0171601836000000000000
B0634403153119S11723386EA0173701860000000000000
B0634443153124S11723462EA0176301881000000000000
B0634483153137S11723534EA0177001882000000000000
B0634523153154S11723610EA0177001881000000000000
B0634563153175S11723681EA0177401883000000000000
B0635003153195S11723751EA0178301897000000000000
B0635043153219S11723819EA0179701907000000000000
B0635083153245S11723888EA0179801907000000000000
B0635123153272S11723961EA0179701909000000000000
B0635163153298S11724034EA0180001911000000000000
B0635203153327S11724105EA0180001912000000000000
B0635243153358S11724177EA0179601903000000000000
B0635283153384S11724260EA0177401877000000000000
B0635323153398S11724357EA0175101856000000000000
B0635363153400S11724463EA0173101837000000000000
B0635403153392S11724569EA0171801830000000000000
B0635443153381S11724672EA0171701830000000000000
B0635483153368S11724773EA0170701810000000000000
B0635523153350S11724877EA0169001801000000000000
B0635563153331S11724981EA0168401795000000000000
B0636003153309S11725083EA0167701787000000000000
B0636043153284S11725185EA0166701776000000000000
B0636083153259S11725287EA0166301777000000000000
B0636123153236S11725386EA0165801766000000000000
B0636163153214S11725484EA0164901757000000000000
B0636203153192S11725582EA0164201753000000000000
B0636243153167S11725678EA0163701745000000000000
B0636283153145S11725774EA0162801736000000000000
B0636323153121S11725870EA0161901726000000000000
B0636363153101S11725968EA0161101717000000000000
B0636403153077S11726067EA0160401712000000000000
B0636443153055S11726162EA0160101709000000000000
B0636483153033S11726255EA0159601702000000000000
B0636523153010S11726348EA0158901700000000000000
B0636563152989S11726433EA0159401703000000000000
B0637003152968S11726518EA0158901694000000000000
B0637043152950S11726602EA0158201688000000000000
B0637083152928S11726687EA0157701681000000000000
B0637123152903S11726771EA0156801673000000000000
B0637163152880S11726856EA0156101663000000000000
B0637203152854S11726940EA0154801649000000000000
B0637243152826S11727024EA0153101631000000000000
B0637283152802S11727107EA0152101625000000000000
B0637323152776S11727191EA0151201610000000000000
B0637363152750S11727274EA0149401592000000000000
B0637403152727S11727358EA0148501584000000000000
B0637443152708S11727443EA0147501576000000000000
B0637483152692S11727528EA0147301577000000000000
B0637523152679S11727611EA0147201572000000000000
B0637563152661S11727696EA0146801567000000000000
B0638003152646S11727780EA0145901556000000000000
B0638043152630S11727869EA0144201537000000000000
B0638083152618S11727958EA0143201534000000000000
B0638123152607S11728047EA0143601532000000000000
B0638163152597S11728136EA0142601523000000000000
B0638203152588S11728229EA0141901514000000000000
B0638243152579S11728325EA0140801503000000000000
B0638283152569S11728421EA0140101498000000000000
B0638323152560S11728517EA0139801499000000000000
B0638363152553S11728608EA0140401506000000000000
B0638403152545S11728695EA0140301494000000000000
B0638443152539S11728786EA0138801483000000000000
B0638483152535S11728879EA0138001476000000000000
B0638523152534S11728967EA0137801481000000000000
B0638563152531S11729052EA0138301480000000000000
B0639003152529S11729136EA0137801473000000000000
B0639043152525S11729222EA0136701459000000000000
B0639083152519S11729310EA0135401448000000000000
B0639123152516S11729399EA0134201437000000000000
B0639163152512S11729488EA0133001425000000000000
B0639203152508S11729579EA0132201415000000000000
B0639243152504S11729670EA0130901403000000000000
B0639283152500S11729763EA0129501388000000000000
B0639323152495S11729855EA0128501380000000000000
B0639363152486S11729943EA0128501383000000000000
B0639403152474S11730028EA0129001388000000000000
B0639443152458S11730112EA0128601382000000000000
B0639483152443S11730198EA0128101373000000000000
B0639523152427S11730284EA0127301364000000000000
B0639563152410S11730374EA0125801350000000000000
B0640003152397S11730462EA0125801353000000000000
B0640043152396S11730548EA0125801352000000000000
B0640083152397S11730634EA0126301356000000000000
B0640123152404S11730718EA0125801352000000000000
B0640163152413S11730804EA0125801355000000000000
B0640203152425S11730886EA0126601366000000000000
B0640243152435S11730961EA0128201376000000000000
B0640283152451S11731033EA0128301374000000000000
B0640323152466S11731107EA0128501380000000000000
B0640363152480S11731181EA0128901382000000000000
B0640403152497S11731256EA0128601376000000000000
B0640443152516S11731334EA0128301377000000000000
B0640483152532S11731414EA0129101383000000000000
B0640523152547S11731492EA0128901379000000000000
B0640563152558S11731574EA0129101383000000000000
B0641003152571S11731653EA0129601395000000000000
B0641043152583S11731727EA0131501418000000000000
B0641083152610S11731785EA0134001443000000000000
B0641123152665S11731761EA0136401458000000000000
B0641163152661S11731681EA0137601476000000000000
B0641203152608S11731659EA0139501498000000000000
B0641243152575S11731697EA0141301515000000000000
B0641283152594S11731741EA0142901530000000000000
B0641323152647S11731748EA0143701538000000000000
B0641363152691S11731691EA0144801550000000000000
B0641403152670S11731618EA0145801566000000000000
B0641443152613S11731601EA0147601584000000000000
B0641483152581S11731641EA0149601604000000000000
B0641523152600S11731687EA0151301617000000000000
B0641563152656S11731681EA0151901623000000000000
B0642003152691S11731615EA0153301640000000000000
B0642043152675S11731544EA0154701653000000000000
B0642083152622S11731524EA0155401664000000000000
B0642123152587S11731561EA0157101682000000000000
B0642163152614S11731601EA0158701696000000000000
B0642203152672S11731577EA0159001700000000000000
B0642243152695S11731503EA0160301716000000000000
B0642283152673S11731434EA0161601731000000000000
B0642323152622S11731411EA0163001744000000000000
B0642363152583S11731442EA0164201760000000000000
B0642403152587S11731489EA0166101780000000000000
B0642443152631S11731514EA0167001781000000000000
B0642483152694S11731492EA0166901784000000000000
B0642523152731S11731419EA0168501804000000000000
B0642563152718S11731347EA0170501822000000000000
B0643003152670S11731324EA0171101822000000000000
B0643043152629S11731363EA0171001829000000000000
B0643083152648S11731415EA0172501849000000000000
B0643123152708S11731410EA0174101858000000000000
B0643163152739S11731337EA0175001870000000000000
B0643203152713S11731267EA0176201884000000000000
B0643243152662S11731251EA0177901897000000000000
B0643283152627S11731289EA0178301902000000000000
B0643323152629S11731346EA0179401916000000000000
B0643363152677S11731372EA0180701922000000000000
B0643403152733S11731328EA0181401932000000000000
B0643443152730S11731249EA0182001940000000000000
B0643483152678S11731213EA0182901951000000000000
B0643523152631S11731238EA0184101961000000000000
B0643563152630S11731290EA0184801968000000000000
B0644003152678S11731315EA0185501974000000000000
B0644043152733S11731271EA0186501987000000000000
B0644083152743S11731191EA0187301993000000000000
B0644123152705S11731132EA0187901999000000000000
B0644163152649S11731120EA0188502007000000000000
B0644203152605S11731155EA0189002013000000000000
B0644243152590S11731215EA0189002010000000000000
B0644283152587S11731284EA0189102012000000000000
B0644323152596S11731358EA0188802007000000000000
B0644363152618S11731429EA0188802014000000000000
B0644403152642S11731498EA0189302012000000000000
B0644443152651S11731579EA0186701975000000000000
B0644483152638S11731678EA0183901960000000000000
B0644523152616S11731776EA0184001965000000000000
B0644563152595S11731873EA0184101960000000000000
B0645003152574S11731970EA0183401950000000000000
B0645043152547S11732070EA0181401929000000000000
B0645083152517S11732177EA0179401911000000000000
B0645123152487S11732282EA0178101900000000000000
B0645163152456S11732387EA0177301889000000000000
B0645203152425S11732493EA0176201876000000000000
B0645243152395S11732599EA0174801862000000000000
B0645283152365S11732706EA0173501852000000000000
B0645323152336S11732809EA0172901846000000000000
B0645363152310S11732910EA0172501846000000000000
B0645403152287S11733005EA0172901848000000000000
B0645443152259S11733093EA0172601843000000000000
B0645483152230S11733180EA0172101837000000000000
B0645523152202S11733266EA0171601830000000000000
B0645563152175S11733353EA0171001823000000000000
B0646003152145S11733439EA0170101812000000000000
B0646043152113S11733527EA0168701796000000000000
B0646083152079S11733618EA0166901781000000000000
B0646123152041S11733709EA0165801769000000000000
B0646163152002S11733798EA0164901760000000000000
B0646203151967S11733885EA0164801759000000000000
B0646243151923S11733966EA0164501756000000000000
B0646283151879S11734047EA0164501755000000000000
B0646323151842S11734132EA0164801759000000000000
B0646363151810S11734219EA0164901755000000000000
B0646403151776S11734306EA0164501753000000000000
B0646443151751S11734395EA0163701739000000000000
B0646483151724S11734487EA0162101723000000000000
B0646523151687S11734577EA0160501702000000000000
B0646563151638S11734665EA0158101682000000000000
B0647003151585S11734752EA0157301679000000000000
B0647043151538S11734834EA0157701677000000000000
B0647083151503S11734922EA0155901653000000000000
B0647123151464S11735015EA0153301625000000000000
B0647163151422S11735110EA0151501615000000000000
B0647203151382S11735207EA0149901598000000000000
B0647243151342S11735307EA0148301584000000000000
B0647283151303S11735406EA0147701579000000000000
B0647323151262S11735501EA0147301575000000000000
B0647363151222S11735591EA0147101574000000000000
B0647403151178S11735678EA0147001569000000000000
B0647443151135S11735766EA0145901554000000000000
B0647483151099S11735860EA0144501540000000000000
B0647523151065S11735956EA0142901526000000000000
B0647563151030S11736051EA0142201523000000000000
B0648003150996S11736135EA0142501522000000000000
B0648043150961S11736217EA0141701511000000000000
B0648083150928S11736299EA0141001504000000000000
B0648123150894S11736380EA0139901491000000000000
B0648163150862S11736464EA0138601476000000000000
B0648203150831S11736547EA0136901458000000000000
B0648243150803S11736636EA0135001439000000000000
B0648283150777S11736727EA0133201422000000000000
B0648323150753S11736816EA0132001409000000000000
B0648363150729S11736907EA0130501394000000000000
B0648403150707S11736997EA0129201377000000000000
B0648443150701S11737091EA0127801367000000000000
B0648483150725S11737178EA0127201359000000000000
B0648523150751S11737265EA0126401352000000000000
B0648563150775S11737356EA0125301341000000000000
B0649003150784S11737451EA0125001340000000000000
B0649043150775S11737548EA0125101342000000000000
B0649083150749S11737639EA0125401357000000000000
B0649123150696S11737704EA0128001378000000000000
B0649163150619S11737707EA0129701393000000000000
B0649203150572S11737630EA0130901399000000000000
B0649243150601S11737550EA0131401407000000000000
B0649283150654S11737546EA0132801422000000000000
B0649323150671S11737596EA0133601426000000000000
B0649363150633S11737643EA0133701427000000000000
B0649403150566S11737630EA0134101432000000000000
B0649443150512S11737564EA0134301435000000000000
B0649483150481S11737478EA0134301433000000000000
B0649523150449S11737390EA0133901429000000000000
B0649563150390S11737326EA0133701432000000000000
B0650003150322S11737327EA0134401438000000000000
B0650043150270S11737369EA0134201436000000000000
B0650083150237S11737430EA0133901433000000000000
B0650123150229S11737500EA0134301438000000000000
B0650163150244S11737567EA0134701444000000000000
B0650203150270S11737632EA0134801442000000000000
B0650243150306S11737699EA0134901443000000000000
B0650283150346S11737767EA0135101446000000000000
B0650323150389S11737838EA0136001453000000000000
B0650363150438S11737901EA0137101467000000000000
B0650403150501S11737918EA0139901504000000000000
B0650443150525S11737851EA0142101525000000000000
B0650483150472S11737803EA0141801524000000000000
B0650523150412S11737828EA0142301534000000000000
B0650563150397S11737886EA0143801550000000000000
B0651003150423S11737937EA0145601566000000000000
B0651043150476S11737927EA0147601582000000000000
B0651083150489S11737854EA0149001594000000000000
B0651123150446S11737801EA0149601602000000000000
B0651163150391S11737810EA0150801617000000000000
B0651203150367S11737864EA0151601623000000000000
B0651243150398S11737907EA0153201646000000000000
B0651283150442S11737866EA0155501666000000000000
B0651323150430S11737793EA0157001680000000000000
B0651363150376S11737771EA0158301695000000000000
B0651403150339S11737810EA0159701709000000000000
B0651443150359S11737856EA0161201725000000000000
B0651483150411S11737850EA0162801740000000000000
B0651523150446S11737788EA0164201756000000000000
B0651563150434S11737708EA0165101770000000000000
B0652003150389S11737660EA0166701785000000000000
B0652043150335S11737667EA0167701792000000000000
B0652083150306S11737717EA0168301802000000000000
B0652123150333S11737763EA0170301825000000000000
B0652163150385S11737736EA0172101843000000000000
B0652203150395S11737659EA0173801859000000000000
B0652243150355S11737599EA0175101871000000000000
B0652283150296S11737600EA0175701877000000000000
B0652323150274S11737654EA0177001893000000000000
B0652363150315S11737681EA0179201915000000000000
B0652403150363S11737641EA0180601930000000000000
B0652443150364S11737567EA0181701942000000000000
B0652483150316S11737522EA0182401947000000000000
B0652523150260S11737537EA0183001953000000000000
B0652563150246S11737590EA0184601975000000000000
B0653003150293S11737608EA0186801995000000000000
B0653043150334S11737552EA0188302011000000000000
B0653083150320S11737476EA0189202019000000000000
B0653123150264S11737446EA0190402029000000000000
B0653163150218S11737481EA0191202038000000000000
B0653203150222S11737535EA0192902059000000000000
B0653243150273S11737550EA0195102077000000000000
B0653283150317S11737505EA0196102095000000000000
B0653323150320S11737433EA0197502101000000000000
B0653363150274S11737381EA0197402102000000000000
B0653403150218S11737386EA0198302113000000000000
B0653443150190S11737437EA0199202122000000000000
B0653483150220S11737474EA0201002143000000000000
B0653523150269S11737440EA0202502156000000000000
B0653563150276S11737365EA0203302164000000000000
B0654003150233S11737309EA0204302172000000000000
B0654043150173S11737303EA0205402182000000000000
B0654083150133S11737343EA0205702185000000000000
B0654123150125S11737403EA0206102188000000000000
B0654163150161S11737444EA0207502208000000000000
B0654203150215S11737420EA0208802216000000000000
B0654243150231S11737344EA0209202225000000000000
B0654283150202S11737274EA0210602238000000000000
B0654323150143S11737248EA0211302243000000000000
B0654363150088S11737273EA0211602244000000000000
B0654403150059S11737333EA0211202239000000000000
B0654443150051S11737403EA0211902250000000000000
B0654483150051S11737474EA0212502245000000000000
B0654523150061S11737555EA0209802207000000000000
B0654563150057S11737652EA0206802184000000000000
B0655003150047S11737752EA0205002170000000000000
B0655043150031S11737854EA0203502155000000000000
B0655083150009S11737955EA0202302145000000000000
B0655123149981S11738053EA0201802144000000000000
B0655163149945S11738144EA0201802145000000000000
B0655203149905S11738230EA0201702139000000000000
B0655243149864S11738315EA0201302135000000000000
B0655283149822S11738401EA0200602127000000000000
B0655323149780S11738490EA0199502112000000000000
B0655363149739S11738581EA0197902097000000000000
B0655403149698S11738674EA0196102083000000000000
B0655443149661S11738768EA0195602078000000000000
B0655483149623S11738860EA0194802068000000000000
B0655523149585S11738952EA0193902057000000000000
B0655563149549S11739047EA0192702046000000000000
B0656003149511S11739140EA0191802038000000000000
B0656043149470S11739229EA0190802028000000000000
B0656083149425S11739318EA0190302027000000000000
B0656123149381S11739402EA0190602026000000000000
B0656163149336S11739485EA0189602016000000000000
B0656203149288S11739570EA0189002011000000000000
B0656243149243S11739652EA0188702005000000000000
B0656283149198S11739732EA0188301998000000000000
B0656323149151S11739810EA0187501990000000000000
B0656363149100S11739888EA0186301975000000000000
B0656403149048S11739968EA0184701961000000000000
B0656443148998S11740047EA0183601952000000000000
B0656483148946S11740124EA0182901947000000000000
B0656523148896S11740194EA0183701954000000000000
B0656563148852S11740261EA0184501961000000000000
B0657003148809S11740328EA0184901963000000000000
B0657043148766S11740393EA0185501971000000000000
B0657083148723S11740455EA0185801967000000000000
B0657123148678S11740523EA0184201949000000000000
B0657163148632S11740597EA0182801937000000000000
B0657203148586S11740676EA0181901932000000000000
B0657243148539S11740758EA0181501927000000000000
B0657283148489S11740841EA0180701918000000000000
B0657323148439S11740927EA0179301904000000000000
B0657363148388S11741014EA0178401890000000000000
B0657403148335S11741105EA0176901865000000000000
B0657443148279S11741197EA0174601849000000000000
B0657483148220S11741290EA0174101840000000000000
B0657523148161S11741381EA0172701825000000000000
B0657563148101S11741474EA0170801806000000000000
B0658003148040S11741572EA0169001791000000000000
B0658043147979S11741667EA0168401788000000000000
B0658083147920S11741760EA0168101783000000000000
B0658123147860S11741853EA0168001779000000000000
B0658163147803S11741942EA0167301769000000000000
B0658203147747S11742029EA0166201760000000000000
B0658243147691S11742115EA0165201750000000000000
B0658283147637S11742202EA0164401740000000000000
B0658323147582S11742288EA0163601730000000000000
B0658363147530S11742374EA0162301716000000000000
B0658403147478S11742461EA0161001702000000000000
B0658443147427S11742552EA0159901693000000000000
B0658483147374S11742643EA0159601695000000000000
B0658523147322S11742733EA0159301689000000000000
B0658563147270S11742821EA0158601677000000000000
B0659003147217S11742910EA0157201664000000000000
B0659043147166S11742995EA0156601660000000000000
B0659083147115S11743079EA0155701644000000000000
B0659123147063S11743163EA0154601638000000000000
B0659163147011S11743245EA0154401639000000000000
B0659203146962S11743327EA0153801632000000000000
B0659243146913S11743407EA0152901625000000000000
B0659283146861S11743487EA0152501619000000000000
B0659323146809S11743565EA0152201625000000000000
B0659363146762S11743636EA0154001642000000000000
B0659403146719S11743704EA0155501657000000000000
B0659443146702S11743770EA0157601673000000000000
B0659483146705S11743834EA0158201676000000000000
B0659523146728S11743894EA0158201674000000000000
B0659563146759S11743955EA0158201679000000000000
B0700003146790S11744013EA0158901686000000000000
B0700043146825S11744068EA0158601682000000000000
B0700083146866S11744126EA0157401667000000000000
B0700123146894S11744202EA0154701638000000000000
B0700163146900S11744294EA0152701613000000000000
B0700203146880S11744390EA0150801606000000000000
B0700243146846S11744481EA0149801592000000000000
B0700283146801S11744567EA0147801575000000000000
B0700323146750S11744650EA0147201570000000000000
B0700363146699S11744728EA0146001558000000000000
B0700403146645S11744805EA0145301551000000000000
B0700443146590S11744876EA0145101553000000000000
B0700483146537S11744944EA0145301553000000000000
B0700523146482S11745013EA0144501542000000000000
B0700563146429S11745082EA0144401544000000000000
B0701003146382S11745149EA0145801564000000000000
B0701043146368S11745218EA0148901592000000000000
B0701083146417S11745234EA0151701614000000000000
B0701123146448S11745165EA0153601629000000000000
B0701163146411S11745100EA0154401642000000000000
B0701203146351S11745105EA0155101650000000000000
B0701243146333S11745160EA0156401668000000000000
B0701283146372S11745190EA0158501688000000000000
B0701323146420S11745153EA0160201702000000000000
B0701363146429S11745075EA0160501705000000000000
B0701403146383S11745009EA0160401707000000000000
B0701443146317S11745008EA0160701718000000000000
B0701483146281S11745060EA0162201734000000000000
B0701523146309S11745104EA0164401756000000000000
B0701563146357S11745064EA0165201763000000000000
B0702003146351S11744975EA0166101776000000000000
B0702043146298S11744914EA0167101786000000000000
B0702083146230S11744909EA0168401800000000000000
B0702123146191S11744956EA0170201816000000000000
B0702163146211S11745012EA0171301825000000000000
B0702203146270S11745019EA0172001829000000000000
B0702243146315S11744956EA0172501839000000000000
B0702283146292S11744873EA0173301854000000000000
B0702323146231S11744837EA0174501865000000000000
B0702363146170S11744853EA0175401873000000000000
B0702403146131S11744904EA0176301881000000000000
B0702443146129S11744969EA0177301887000000000000
B0702483146161S11745027EA0177001881000000000000
B0702523146200S11745087EA0175501859000000000000
B0702563146220S11745173EA0171501819000000000000
B0703003146211S11745278EA0168701794000000000000
B0703043146183S11745381EA0167001784000000000000
B0703083146146S11745476EA0166901781000000000000
B0703123146100S11745565EA0166301770000000000000
B0703163146052S11745650EA0165301763000000000000
B0703203146001S11745732EA0164801758000000000000
B0703243145951S11745812EA0164401754000000000000
B0703283145900S11745892EA0163901747000000000000
B0703323145847S11745970EA0163201741000000000000
B0703363145797S11746046EA0162501732000000000000
B0703403145746S11746127EA0161201720000000000000
B0703443145697S11746210EA0160401708000000000000
B0703483145648S11746293EA0159601702000000000000
B0703523145600S11746375EA0158801694000000000000
B0703563145551S11746457EA0158001684000000000000
B0704003145503S11746538EA0157101673000000000000
B0704043145457S11746617EA0156301667000000000000
B0704083145410S11746696EA0156101662000000000000
B0704123145364S11746777EA0155201653000000000000
B0704163145317S11746856EA0154701649000000000000
B0704203145273S11746936EA0154301640000000000000
B0704243145226S11747016EA0153101630000000000000
B0704283145180S11747097EA0152101618000000000000
B0704323145126S11747175EA0151101611000000000000
B0704363145074S11747252EA0150501602000000000000
B0704403145021S11747326EA0149101588000000000000
B0704443144969S11747400EA0147601571000000000000
B0704483144917S11747474EA0146301561000000000000
B0704523144865S11747545EA0145401544000000000000
B0704563144809S11747618EA0143801528000000000000
B0705003144758S11747692EA0143401530000000000000
B0705043144716S11747766EA0144201533000000000000
B0705083144684S11747843EA0143801529000000000000
B0705123144657S11747920EA0143601526000000000000
B0705163144632S11747999EA0144101538000000000000
B0705203144643S11748071EA0146101554000000000000
B0705243144669S11748137EA0145701540000000000000
B0705283144700S11748212EA0143801525000000000000
B0705323144731S11748293EA0142501515000000000000
B0705363144748S11748381EA0141501508000000000000
B0705403144744S11748474EA0140901499000000000000
B0705443144725S11748568EA0139201484000000000000
B0705483144687S11748662EA0136701460000000000000
B0705523144635S11748754EA0135001450000000000000
B0705563144576S11748838EA0134401445000000000000
B0706003144517S11748919EA0134101436000000000000
B0706043144456S11749000EA0132801422000000000000
B0706083144392S11749077EA0131401409000000000000
B0706123144328S11749150EA0130501404000000000000
B0706163144267S11749220EA0131001407000000000000
B0706203144207S11749287EA0130601398000000000000
B0706243144147S11749359EA0129301387000000000000
B0706283144089S11749425EA0129101382000000000000
B0706323144029S11749491EA0127401364000000000000
B0706363143965S11749560EA0126201355000000000000
B0706403143902S11749629EA0125501343000000000000
B0706443143841S11749699EA0124501337000000000000
B0706483143780S11749768EA0124501339000000000000
B0706523143720S11749836EA0125401355000000000000
B0706563143669S11749893EA0128001374000000000000
B0707003143621S11749952EA0127601360000000000000
B0707043143568S11750017EA0125501340000000000000
B0707083143510S11750084EA0124501333000000000000
B0707123143453S11750153EA0124301334000000000000
B0707163143408S11750221EA0126001352000000000000
B0707203143396S11750294EA0127701368000000000000
B0707243143431S11750347EA0128901372000000000000
B0707283143484S11750392EA0128201366000000000000
B0707323143533S11750452EA0127501361000000000000
B0707363143568S11750518EA0127801370000000000000
B0707403143600S11750578EA0128501368000000000000
B0707443143640S11750635EA0126601347000000000000
B0707483143677S11750707EA0124601327000000000000
B0707523143696S11750789EA0124901336000000000000
B0707563143720S11750859EA0126401356000000000000
B0708003143748S11750921EA0126001343000000000000
B0708043143778S11750989EA0124801330000000000000
B0708083143791S11751068EA0123601311000000000000
B0708123143748S11751149EA0120901293000000000000
B0708163143670S11751211EA0120501305000000000000
B0708203143587S11751263EA0120601301000000000000
B0708243143500S11751311EA0120001300000000000000
B0708283143416S11751358EA0120901306000000000000
B0708323143328S11751405EA0120201298000000000000
B0708363143241S11751451EA0120201301000000000000
B0708403143156S11751495EA0120201296000000000000
B0708443143068S11751538EA0119401285000000000000
B0708483142980S11751578EA0118301271000000000000
B0708523142893S11751617EA0116501249000000000000
B0708563142805S11751655EA0114301228000000000000
B0709003142716S11751688EA0112501210000000000000
B0709043142626S11751721EA0111001196000000000000
B0709083142538S11751748EA0109401179000000000000
B0709123142450S11751778EA0107501155000000000000
B0709163142361S11751811EA0105901146000000000000
B0709203142274S11751846EA0105401134000000000000
B0709243142186S11751880EA0103901120000000000000
B0709283142096S11751912EA0102501103000000000000
B0709323142008S11751945EA0100701086000000000000
B0709363141917S11751977EA0099001070000000000000
B0709403141830S11752013EA0097901057000000000000
B0709443141742S11752054EA0096301042000000000000
B0709483141654S11752095EA0094701025000000000000
B0709523141566S11752140EA0093601010000000000000
B0709563141477S11752185EA0092000996000000000000
B0710003141390S11752229EA0091000988000000000000
B0710043141303S11752272EA0090800986000000000000
B0710083141217S11752312EA0090400983000000000000
B0710123141134S11752350EA0090100979000000000000
B0710163141050S11752387EA0089800976000000000000
B0710203140968S11752419EA0089900977000000000000
B0710243140890S11752461EA0089500971000000000000
B0710283140821S11752513EA0089600978000000000000
B0710323140761S11752562EA0091400992000000000000
B0710363140709S11752617EA0092300998000000000000
B0710403140696S11752687EA0093601015000000000000
B0710443140748S11752722EA0094801025000000000000
B0710483140801S11752675EA0094501027000000000000
B0710523140792S11752589EA0094601037000000000000
B0710563140757S11752510EA0095101039000000000000
B0711003140708S11752448EA0095801045000000000000
B0711043140641S11752441EA0096101048000000000000
B0711083140602S11752494EA0096601056000000000000
B0711123140635S11752540EA0098201071000000000000
B0711163140687S11752501EA0099301084000000000000
B0711203140684S11752423EA0100001091000000000000
B0711243140630S11752381EA0100701098000000000000
B0711283140569S11752397EA0101201101000000000000
B0711323140543S11752454EA0102301116000000000000
B0711363140569S11752500EA0104201131000000000000
B0711403140622S11752489EA0104501132000000000000
B0711443140645S11752419EA0104501136000000000000
B0711483140611S11752349EA0105101140000000000000
B0711523140548S11752311EA0105001138000000000000
B0711563140479S11752309EA0104801137000000000000
B0712003140452S11752368EA0105101145000000000000
B0712043140481S11752435EA0105801145000000000000
B0712083140544S11752470EA0105901150000000000000
B0712123140609S11752437EA0107201165000000000000
B0712163140613S11752358EA0108601176000000000000
B0712203140576S11752283EA0108301175000000000000
B0712243140533S11752211EA0108801181000000000000
B0712283140480S11752158EA0109401182000000000000
B0712323140416S11752158EA0109201179000000000000
B0712363140377S11752211EA0109101178000000000000
B0712403140351S11752283EA0109201185000000000000
B0712443140341S11752354EA0111201207000000000000
B0712483140383S11752392EA0113101216000000000000
B0712523140436S11752354EA0113501220000000000000
B0712563140441S11752275EA0114601237000000000000
B0713003140394S11752227EA0115801247000000000000
B0713043140341S11752249EA0116301253000000000000
B0713083140335S11752309EA0118001272000000000000
B0713123140377S11752336EA0118901275000000000000
B0713163140432S11752302EA0118601279000000000000
B0713203140442S11752225EA0119801296000000000000
B0713243140402S11752162EA0121001307000000000000
B0713283140342S11752162EA0122201321000000000000
B0713323140314S11752211EA0123901336000000000000
B0713363140333S11752263EA0124801343000000000000
B0713403140385S11752279EA0125201345000000000000
B0713443140435S11752241EA0125801354000000000000
B0713483140433S11752166EA0126601363000000000000
B0713523140380S11752124EA0127301370000000000000
B0713563140327S11752149EA0128801385000000000000
B0714003140312S11752208EA0129601390000000000000
B0714043140345S11752255EA0130101395000000000000
B0714083140403S11752259EA0130101395000000000000
B0714123140462S11752224EA0130301403000000000000
B0714163140470S11752153EA0132401424000000000000
B0714203140415S11752123EA0133501432000000000000
B0714243140370S11752162EA0134101437000000000000
B0714283140377S11752221EA0134001436000000000000
B0714323140429S11752251EA0134101436000000000000
B0714363140489S11752223EA0134601443000000000000
B0714403140506S11752147EA0135701455000000000000
B0714443140463S11752088EA0136101460000000000000
B0714483140397S11752078EA0136801466000000000000
B0714523140340S11752114EA0137301469000000000000
B0714563140324S11752175EA0137901478000000000000
B0715003140359S11752223EA0138101478000000000000
B0715043140416S11752255EA0138401480000000000000
B0715083140480S11752277EA0138901485000000000000
B0715123140541S11752245EA0140101500000000000000
B0715163140546S11752166EA0140701504000000000000
B0715203140494S11752116EA0141001507000000000000
B0715243140427S11752130EA0141401515000000000000
B0715283140389S11752192EA0142301519000000000000
B0715323140403S11752262EA0142701530000000015000
B0715363140455S11752285EA0144401547000000015000
B0715403140496S11752233EA0145801559000000030000
B0715443140471S11752166EA0146601571000000015000
B0715483140416S11752168EA0147901584000000015000
B0715523140400S11752224EA0148501587000000015000
B0715563140437S11752263EA0148501589000000015000
B0716003140488S11752236EA0149401599000000015000
B0716043140498S11752163EA0150101605000000015000
B0716083140454S11752107EA0150701614000000015000
B0716123140394S11752110EA0151701620000000000000
B0716163140361S11752155EA0152901635000000000000
B0716203140374S11752205EA0153801638000000000000
B0716243140424S11752218EA0153901640000000000000
B0716283140474S11752179EA0154701652000000000000
B0716323140487S11752103EA0155501662000000000000
B0716363140453S11752038EA0156201674000000000000
B0716403140392S11752024EA0157201680000000000000
B0716443140344S11752065EA0157901689000000000000
B0716483140340S11752128EA0158401693000000000000
B0716523140377S11752166EA0159101701000000000000
B0716563140429S11752140EA0160101710000000000000
B0717003140448S11752065EA0160601716000000000000
B0717043140413S11751997EA0161401725000000000000
B0717083140350S11751980EA0162101732000000000000
B0717123140299S11752016EA0162301734000000000000
B0717163140292S11752078EA0162701736000000000000
B0717203140335S11752115EA0163401746000000000000
B0717243140384S11752088EA0164901764000000000000
B0717283140396S11752016EA0166301775000000000000
B0717323140357S11751961EA0167301787000000000000
B0717363140302S11751961EA0167801788000000000000
B0717403140267S11752004EA0167501785000000000000
B0717443140272S11752062EA0167501788000000000000
B0717483140307S11752106EA0167601786000000000000
B0717523140359S11752136EA0167601786000000000000
B0717563140420S11752123EA0168001789000000000000
B0718003140459S11752058EA0168101790000000000000
B0718043140449S11751971EA0167901793000000000000
B0718083140401S11751902EA0168901802000000000000
B0718123140337S11751859EA0169501812000000000000
B0718163140272S11751870EA0170401814000000000000
B0718203140232S11751934EA0169101802000000000000
B0718243140236S11752012EA0169301808000000000000
B0718283140284S11752062EA0170401819000000000000
B0718323140348S11752051EA0171201824000000000000
B0718363140398S11751987EA0170901823000000000000
B0718403140411S11751896EA0171101832000000000000
B0718443140385S11751815EA0172701850000000000000
B0718483140328S11751765EA0173601855000000000000
B0718523140258S11751768EA0174301861000000000000
B0718563140203S11751813EA0175101868000000000000
B0719003140182S11751881EA0175701873000000000000
B0719043140207S11751942EA0176301879000000000000
B0719083140263S11751972EA0176601882000000000000
B0719123140327S11751950EA0176401877000000000000
B0719163140376S11751882EA0175801869000000000000
B0719203140387S11751785EA0175401875000000000000
B0719243140353S11751695EA0176501886000000000000
B0719283140285S11751639EA0177801898000000000000
B0719323140208S11751636EA0178901909000000000000
B0719363140147S11751679EA0179301909000000000000
B0719403140117S11751751EA0179601916000000000000
B0719443140130S11751820EA0180601925000000000000
B0719483140177S11751864EA0180901922000000000000
B0719523140242S11751877EA0180501921000000000000
B0719563140306S11751860EA0181101928000000000000
B0720003140359S11751820EA0181501927000000000000
B0720043140405S11751756EA0180301913000000000000
B0720083140429S11751666EA0179901912000000000000
B0720123140423S11751570EA0180501924000000000000
B0720163140383S11751493EA0182201943000000000000
B0720203140319S11751456EA0183401951000000000000
B0720243140250S11751470EA0184201964000000000000
B0720283140205S11751525EA0185601978000000000000
B0720323140201S11751594EA0186501987000000000000
B0720363140234S11751648EA0188002002000000000000
B0720403140290S11751662EA0189602016000000000000
B0720443140348S11751631EA0190102018000000000000
B0720483140390S11751562EA0190402020000000000000
B0720523140400S11751471EA0190902028000000000000
B0720563140364S11751388EA0191402033000000000000
B0721003140296S11751343EA0191702041000000000000
B0721043140220S11751347EA0193002055000000000000
B0721083140163S11751392EA0194202064000000000000
B0721123140138S11751462EA0194802067000000000000
B0721163140145S11751535EA0195402076000000000000
B0721203140180S11751592EA0196402085000000000000
B0721243140237S11751621EA0197002087000000000000
B0721283140303S11751613EA0197002089000000000000
B0721323140363S11751573EA0197102086000000000000
B0721363140409S11751503EA0196602080000000000000
B0721403140437S11751413EA0196402083000000000000
B0721443140433S11751318EA0197302096000000000000
B0721483140397S11751240EA0198602111000000000000
B0721523140337S11751193EA0199902121000000000000
B0721563140271S11751191EA0201002135000000000000
B0722003140220S11751227EA0202702150000000000000
B0722043140201S11751284EA0203802161000000000000
B0722083140219S11751339EA0204502167000000000000
B0722123140266S11751361EA0205402179000000000000
B0722163140318S11751335EA0206302184000000000000
B0722203140332S11751262EA0206602189000000000000
B0722243140292S11751196EA0207302195000000000000
B0722283140227S11751175EA0207302191000000000000
B0722323140166S11751207EA0207202195000000000000
B0722363140127S11751271EA0207702198000000000000
B0722403140117S11751347EA0208202204000000000000
B0722443140141S11751414EA0208802210000000000000
B0722483140195S11751451EA0209002209000000000000
B0722523140262S11751454EA0208502201000000000000
B0722563140332S11751431EA0207602192000000000000
B0723003140403S11751392EA0206602182000000000000
B0723043140475S11751345EA0205102166000000000000
B0723083140548S11751291EA0203402149000000000000
B0723123140626S11751230EA0201202124000000000000
B0723163140704S11751163EA0199102107000000000000
B0723203140779S11751092EA0198302099000000000000
B0723243140849S11751020EA0197602086000000000000
B0723283140923S11750954EA0195902067000000000000
B0723323141003S11750899EA0194302051000000000000
B0723363141083S11750851EA0193002036000000000000
B0723403141165S11750802EA0191402020000000000000
B0723443141247S11750749EA0190002002000000000000
B0723483141329S11750693EA0188301988000000000000
B0723523141410S11750637EA0187401981000000000000
B0723563141485S11750577EA0187301983000000000000
B0724003141554S11750513EA0188101983000000000000
B0724043141624S11750450EA0186901968000000000000
B0724083141694S11750383EA0185501956000000000000
B0724123141763S11750316EA0184701950000000000000
B0724163141831S11750252EA0184201944000000000000
B0724203141904S11750203EA0183601937000000000000
B0724243141978S11750161EA0182701928000000000000
B0724283142051S11750117EA0182301924000000000000
B0724323142119S11750071EA0182001916000000000000
B0724363142188S11750023EA0181001905000000000000
B0724403142259S11749971EA0179801894000000000000
B0724443142330S11749915EA0178701887000000000000
B0724483142400S11749857EA0177501872000000000000
B0724523142476S11749793EA0176201865000000000000
B0724563142548S11749728EA0175701859000000000000
B0725003142623S11749664EA0174801849000000000000
B0725043142695S11749598EA0173901844000000000000
B0725083142768S11749533EA0173001837000000000000
B0725123142841S11749468EA0172801837000000000000
B0725163142911S11749403EA0172401830000000000000
B0725203142984S11749338EA0171401821000000000000
B0725243143058S11749273EA0170501814000000000000
B0725283143130S11749207EA0170101806000000000000
B0725323143201S11749142EA0169501800000000000000
B0725363143274S11749079EA0168601792000000000000
B0725403143352S11749023EA0168001787000000000000
B0725443143430S11748978EA0167601784000000000000
B0725483143509S11748940EA0167001774000000000000
B0725523143590S11748903EA0165801761000000000000
B0725563143674S11748867EA0164501753000000000000
B0726003143757S11748828EA0164101750000000000000
B0726043143838S11748792EA0164001749000000000000
B0726083143919S11748754EA0163801746000000000000
B0726123144001S11748717EA0163301744000000000000
B0726163144079S11748680EA0164101752000000000000
B0726203144155S11748639EA0163901745000000000000
B0726243144232S11748597EA0163701748000000000000
B0726283144307S11748563EA0164501760000000000000
B0726323144378S11748550EA0165801769000000000000
B0726363144449S11748555EA0166101765000000000000
B0726403144523S11748550EA0165601761000000000000
B0726443144600S11748529EA0165301761000000000000
B0726483144677S11748494EA0165001756000000000000
B0726523144756S11748458EA0164701759000000000000
B0726563144833S11748435EA0165501768000000000000
B0727003144909S11748415EA0165201756000000000000
B0727043144990S11748388EA0163901742000000000000
B0727083145072S11748355EA0164201743000000000000
B0727123145150S11748323EA0163601744000000000000
B0727163145228S11748290EA0163101735000000000000
B0727203145307S11748253EA0162201731000000000000
B0727243145385S11748211EA0162501736000000000000
B0727283145462S11748177EA0162901736000000000000
B0727323145538S11748139EA0162001724000000000000
B0727363145620S11748099EA0160501709000000000000
B0727403145704S11748059EA0159401700000000000000
B0727443145785S11748017EA0158601695000000000000
B0727483145869S11747976EA0158301688000000000000
B0727523145952S11747935EA0157501677000000000000
B0727563146036S11747896EA0156601673000000000000
B0728003146120S11747859EA0156401667000000000000
B0728043146203S11747821EA0155401661000000000000
B0728083146285S11747783EA0155301658000000000000
B0728123146367S11747744EA0154501647000000000000
B0728163146447S11747703EA0153601638000000000000
B0728203146529S11747661EA0152701630000000000000
B0728243146608S11747623EA0152001622000000000000
B0728283146689S11747584EA0150601606000000000000
B0728323146770S11747545EA0149301597000000000000
B0728363146849S11747509EA0148301584000000000000
B0728403146928S11747473EA0147201572000000000000
B0728443147004S11747439EA0146901574000000000000
B0728483147076S11747404EA0146501564000000000000
B0728523147149S11747369EA0145401552000000000000
B0728563147225S11747333EA0144101541000000000000
B0729003147299S11747300EA0144001541000000000000
B0729043147373S11747267EA0143401535000000000000
B0729083147446S11747240EA0143901543000000000000
B0729123147518S11747215EA0144801551000000000000
B0729163147590S11747205EA0145401556000000000000
B0729203147655S11747226EA0146001562000000000000
B0729243147706S11747268EA0146601568000000000000
B0729283147752S11747318EA0146801566000000000000
B0729323147798S11747375EA0146301563000000000000
B0729363147846S11747418EA0147101574000000000000
B0729403147899S11747456EA0146401554000000000000
B0729443147947S11747519EA0144501540000000000000
B0729483147985S11747595EA0143201527000000000000
B0729523148034S11747656EA0142301517000000000000
B0729563148109S11747669EA0141701508000000000000
B0730003148185S11747640EA0140301490000000000000
B0730043148266S11747596EA0138001466000000000000
B0730083148349S11747549EA0136201449000000000000
B0730123148431S11747502EA0134501430000000000000
B0730163148514S11747456EA0132701417000000000000
B0730203148593S11747411EA0132501411000000000000
B0730243148673S11747369EA0132001408000000000000
B0730283148751S11747339EA0132801422000000000000
B0730323148821S11747357EA0135001443000000000000
B0730363148863S11747417EA0136101441000000000000
B0730403148907S11747482EA0134701427000000000000
B0730443148980S11747512EA0133701417000000000000
B0730483149060S11747493EA0132201402000000000000
B0730523149141S11747453EA0130701391000000000000
B0730563149221S11747411EA0129401376000000000000
B0731003149307S11747367EA0127101353000000000000
B0731043149397S11747319EA0125201335000000000000
B0731083149487S11747268EA0124101319000000000000
B0731123149576S11747220EA0123301314000000000000
B0731163149665S11747174EA0122501306000000000000
B0731203149749S11747128EA0122601310000000000000
B0731243149826S11747081EA0123301312000000000000
B0731283149904S11747033EA0122501303000000000000
B0731323149982S11746985EA0122601311000000000000
B0731363150043S11746930EA0125701338000000000000
B0731403150048S11746851EA0126001334000000000000
B0731443149984S11746817EA0124301309000000000000
B0731483149926S11746867EA0122101293000000000000
B0731523149896S11746945EA0120901286000000000000
B0731563149883S11747025EA0120201278000000000000
B0732003149906S11747101EA0119801277000000000000
B0732043149942S11747168EA0120101281000000000000
B0732083149977S11747235EA0120001277000000000000
B0732123150013S11747301EA0120301277000000000000
B0732163150056S11747366EA0118601256000000000000
B0732203150105S11747435EA0116901241000000000000
B0732243150166S11747491EA0116201230000000000000
B0732283150247S11747491EA0116101236000000000000
B0732323150322S11747444EA0116201232000000000000
B0732363150391S11747382EA0114601217000000000000
B0732403150463S11747313EA0113101205000000000000
B0732443150536S11747245EA0111401188000000000000
B0732483150610S11747179EA0110301177000000000000
B0732523150684S11747114EA0108801163000000000000
B0732563150759S11747053EA0108301157000000000000
B0733003150837S11746998EA0107401146000000000000
B0733043150915S11746947EA0106601139000000000000
B0733083150993S11746902EA0105801129000000000000
B0733123151075S11746865EA0105001123000000000000
B0733163151156S11746833EA0104301116000000000000
B0733203151236S11746804EA0103501105000000000000
B0733243151318S11746776EA0101901090000000000000
B0733283151403S11746750EA0101101077000000000000
B0733323151486S11746722EA0099501061000000000000
B0733363151572S11746695EA0097801046000000000000
B0733403151652S11746670EA0097101043000000000000
B0733443151729S11746647EA0096401029000000000000
B0733483151808S11746622EA0094301007000000000000
B0733523151890S11746595EA0092400990000000000000
B0733563151973S11746569EA0090800974000000000000
B0734003152058S11746548EA0089600959000000000000
B0734043152142S11746533EA0088600951000000000000
B0734083152228S11746520EA0088100949000000000000
B0734123152313S11746508EA0087000933000000000000
B0734163152399S11746498EA0085600921000000000000
B0734203152483S11746488EA0085300921000000000000
B0734243152564S11746481EA0086000927000000000000
B0734283152642S11746474EA0086800939000000000000
B0734323152712S11746494EA0088000947000000000000
B0734363152769S11746538EA0089000959000000000000
B0734403152828S11746535EA0091500984000000000000
B0734443152834S11746457EA0092400987000000000000
B0734483152770S11746413EA0091900988000000000000
B0734523152707S11746451EA0093201003000000000000
B0734563152698S11746518EA0094901017000000000000
B0735003152746S11746543EA0096401034000000000000
B0735043152786S11746494EA0098501064000000015000
B0735083152760S11746427EA0099301069000000015000
B0735123152698S11746427EA0099701071000000015000
B0735163152675S11746486EA0100301080000000000000
B0735203152718S11746521EA0101401089000000000000
B0735243152770S11746488EA0102401099000000000000
B0735283152778S11746410EA0102501101000000000000
B0735323152733S11746349EA0103301112000000000000
B0735363152670S11746356EA0104601124000000000000
B0735403152646S11746410EA0105601133000000000000
B0735443152674S11746461EA0106501140000000000000
B0735483152733S11746460EA0106901145000000000000
B0735523152765S11746395EA0106901144000000000000
B0735563152735S11746318EA0107001147000000000000
B0736003152670S11746296EA0108101166000000000000
B0736043152625S11746336EA0109601179000000000000
B0736083152620S11746397EA0110501184000000000000
B0736123152656S11746448EA0110601186000000000000
B0736163152714S11746464EA0111301192000000000000
B0736203152774S11746435EA0111101188000000000000
B0736243152813S11746366EA0110901185000000000000
B0736283152809S11746279EA0110201178000000000000
B0736323152782S11746189EA0109301171000000000000
B0736363152738S11746104EA0109201170000000000000
B0736403152673S11746046EA0109501179000000000000
B0736443152622S11746083EA0110701191000000000000
B0736483152652S11746124EA0112401205000000000000
B0736523152695S11746084EA0112601206000000000000
B0736563152685S11746006EA0113001212000000000000
B0737003152625S11745962EA0113001206000000000000
B0737043152568S11745997EA0112601210000000000000
B0737083152569S11746059EA0114501231000000000000
B0737123152623S11746061EA0115701235000000000000
B0737163152661S11745992EA0116001242000000000000
B0737203152649S11745897EA0116601248000000000000
B0737243152592S11745829EA0116201248000000000000
B0737283152517S11745819EA0116501248000000000000
B0737323152466S11745871EA0116601254000000000000
B0737363152478S11745937EA0118301276000000000000
B0737403152531S11745958EA0119601279000000000000
B0737443152587S11745902EA0119001275000000000000
B0737483152595S11745806EA0120401295000000000000
B0737523152556S11745727EA0122001308000000000000
B0737563152490S11745694EA0122301308000000000000
B0738003152421S11745711EA0122601312000000000000
B0738043152386S11745767EA0124101332000000000000
B0738083152404S11745818EA0125901349000000000000
B0738123152452S11745828EA0126801353000000000000
B0738163152501S11745781EA0126601356000000000000
B0738203152512S11745701EA0127701370000000000000
B0738243152478S11745627EA0128001369000000000000
B0738283152406S11745597EA0128201379000000000000
B0738323152349S11745627EA0129601390000000000000
B0738363152341S11745688EA0130901403000000000000
B0738403152380S11745725EA0131801410000000000000
B0738443152439S11745705EA0132401420000000000000
B0738483152469S11745629EA0133501430000000000000
B0738523152441S11745546EA0134601440000000000000
B0738563152371S11745508EA0134901446000000000000
B0739003152311S11745547EA0136101463000000000000
B0739043152311S11745611EA0137801482000000000000
B0739083152362S11745610EA0139401493000000000000
B0739123152380S11745534EA0140101502000000000000
B0739163152331S11745471EA0141601520000000000000
B0739203152263S11745481EA0143301533000000000000
B0739243152250S11745542EA0144401546000000000000
B0739283152300S11745562EA0145301553000000000000
B0739323152353S11745517EA0145801558000000000000
B0739363152367S11745432EA0146701571000000000000
B0739403152314S11745376EA0148701591000000000000
B0739443152262S11745406EA0150901612000000000000
B0739483152270S11745458EA0152401625000000000000
B0739523152319S11745459EA0153301634000000000000
B0739563152350S11745399EA0154601648000000000000
B0740003152322S11745329EA0156301670000000000000
B0740043152259S11745307EA0157401681000000000000
B0740083152215S11745350EA0158801700000000000000
B0740123152228S11745400EA0160401712000000000000
B0740163152276S11745403EA0161101720000000000000
B0740203152308S11745339EA0162001729000000000000
B0740243152270S11745266EA0162501735000000000000
B0740283152204S11745272EA0163901752000000000000
B0740323152174S11745325EA0165501764000000000000
B0740363152191S11745377EA0165601763000000000000
B0740403152243S11745382EA0165501760000000000000
B0740443152297S11745331EA0165101758000000000000
B0740483152317S11745244EA0165701772000000000000
B0740523152274S11745175EA0168201796000000000000
B0740563152210S11745182EA0169701811000000000000
B0741003152196S11745240EA0170801821000000000000
B0741043152244S11745261EA0172401839000000000000
B0741083152282S11745205EA0173401846000000000000
B0741123152257S11745125EA0174101854000000000000
B0741163152191S11745090EA0175101867000000000000
B0741203152137S11745129EA0176901882000000000000
B0741243152141S11745186EA0178301895000000000000
B0741283152189S11745185EA0179201911000000000000
B0741323152209S11745118EA0180301917000000000000
B0741363152170S11745048EA0180901926000000000000
B0741403152100S11745040EA0182101938000000000000
