ACAM4N6
HFDTE240916
HFFXA050
HFPLTPILOT:JOHN WELSH              
HFGTYGLIDERTYPE:HORNET      
HFGIDGLIDERID:VH-GMY      
HFDTM100GPSDATUM:
HFRFWFIRMWAREVERSION:F2.6
HFRHWHARDWAREVERSION:300 Series Version 2
HFFTYFRTYPE:CAMBRIDGE AERO INSTRUMENTS, 302+
HFGPS:GARMIN,LVS-25,12,18000
HFPRSPRESSALTSENSOR:INTERSEMA, MS5534-AP, 20000
I033638FXA3941ENL4247REX
LCAMSBVER:5FWVER:F26300
C170916032521170916000102
C0000000N00000000WTAKEOFF     
C3207549S11656849EBEVAIR      
C3137399S11712982ECunderdin AF
C3200819S11723691EQUAIRDNG    
C3207549S11656849EBEVAIR      
C0000000N00000000WLANDING     
B0402183207736S11657095EA0019100205000000000000
B0402203207736S11657095EA0019200205000000000000
B0402223207736S11657095EA0019100205000000000000
B0402243207736S11657095EA0019000205000000000000
B0402263207736S11657095EA0019000205000000000000
B0402283207736S11657095EA0019000205000000000000
B0402303207736S11657095EA0019000205000000000000
B0402323207736S11657095EA0019000205000000000000
B0402343207736S11657095EA0019000205000000000000
B0402363207736S11657095EA0019000205000000000000
B0402383207736S11657095EA0019000205000000000000
B0402403207736S11657095EA0019100205000000000000
B0402423207736S11657095EA0019000205000000000000
B0402443207736S11657095EA0019100205000000000000
B0402463207735S11657094EA0019200205000000000000
B0402473207731S11657092EA0019100205000000000000
B0402513207710S11657085EA0019000205000000000000
B0402553207672S11657065EA0018900205000000000000
B0402593207620S11657036EA0019000205000000000000
B0403033207560S11657000EA0019300206000000000000
B0403073207493S11656960EA0019400210000000000000
B0403113207427S11656918EA0020200221000000000000
B0403153207364S11656883EA0022200248000000000000
B0403193207306S11656844EA0025000273000000000000
B0403233207254S11656797EA0026800291000000000000
B0403273207207S11656744EA0028800312000000000000
B0403313207164S11656685EA0030800329000000000000
B0403353207128S11656624EA0032700352000000000000
B0403393207091S11656566EA0035300377000000000000
B0403433207061S11656503EA0037400398000000000000
B0403473207034S11656436EA0039200414000000000000
B0403513207013S11656366EA0041400437000000000000
B0403553207003S11656293EA0043100453000000000000
B0403593207005S11656216EA0044700470000000000000
B0404033207025S11656141EA0046800492000000000000
B0404073207063S11656072EA0049300513000000000000
B0404113207112S11656012EA0052000540000000000000
B0404153207163S11655956EA0054800567000000000000
B0404193207217S11655909EA0057600596000000000000
B0404233207276S11655865EA0059500617000000000000
B0404273207334S11655822EA0061500638000000000000
B0404313207393S11655781EA0063700659000000000000
B0404353207460S11655751EA0065500676000000000000
B0404393207538S11655746EA0067200688000000000000
B0404433207619S11655760EA0068600709000000000000
B0404473207696S11655794EA0070700726000000000000
B0404513207765S11655850EA0072600747000000000000
B0404553207822S11655921EA0074400764000000000000
B0404593207865S11656004EA0076600785000000000000
B0405033207887S11656091EA0079200811000000000000
B0405073207891S11656181EA0081100829000000000000
B0405113207874S11656267EA0082900845000000000000
B0405153207843S11656346EA0083700854000000000000
B0405193207798S11656420EA0084600864000000000000
B0405233207749S11656487EA0086000879000000000000
B0405273207697S11656546EA0088300907000000000000
B0405313207645S11656604EA0091000930000000000000
B0405353207619S11656675EA0092200934000000000000
B0405393207649S11656745EA0091900929000000000000
B0405433207714S11656760EA0092100935000000000000
B0405473207763S11656721EA0093000944000000000000
B0405513207763S11656662EA0093600952000000000000
B0405553207718S11656635EA0093200945000000000000
B0405593207672S11656671EA0093000949000000000000
B0406033207664S11656741EA0093400947000000000000
B0406073207701S11656804EA0092600942000000000000
B0406113207761S11656819EA0093200952000000000000
B0406153207793S11656774EA0093600950000000000000
B0406193207771S11656721EA0093400946000000000000
B0406233207718S11656722EA0093200946000000000000
B0406273207688S11656775EA0093600949000000000000
B0406313207700S11656845EA0092700938000000000000
B0406353207752S11656893EA0092700942000000000000
B0406393207796S11656865EA0093300941000000000000
B0406433207781S11656809EA0092800939000000015000
B0406473207726S11656806EA0092600943000000000000
B0406513207698S11656864EA0093500950000000000000
B0406553207718S11656932EA0093000940000000000000
B0406593207779S11656965EA0092300938000000000000
B0407033207830S11656931EA0093200949000000000000
B0407073207823S11656871EA0094100957000000000000
B0407113207772S11656851EA0093900953000000000000
B0407153207729S11656897EA0094000954000000000000
B0407193207744S11656971EA0094000954000000000000
B0407233207802S11657001EA0094500959000000000000
B0407273207849S11656964EA0095400971000000000000
B0407313207844S11656904EA0095800975000000015000
B0407353207792S11656884EA0095400975000000000000
B0407393207748S11656930EA0095800980000000000000
B0407433207744S11657001EA0095900977000000000000
B0407473207788S11657060EA0095500972000000000000
B0407513207850S11657064EA0095900977000000000000
B0407553207869S11657008EA0096100984000000000000
B0407593207818S11656978EA0095600980000000000000
B0408033207771S11657029EA0095600980000000000000
B0408073207785S11657104EA0096100983000000000000
B0408113207844S11657137EA0096600989000000000000
B0408153207897S11657112EA0097701000000000000000
B0408193207906S11657051EA0098501003000000000000
B0408233207870S11657008EA0098601002000000000000
B0408273207814S11657023EA0098601002000000000000
B0408313207791S11657090EA0098601005000000000000
B0408353207819S11657157EA0098601002000000000000
B0408393207882S11657178EA0098601004000000000000
B0408433207924S11657135EA0100001018000000000000
B0408473207911S11657081EA0100501024000000000000
B0408513207859S11657065EA0100301019000000000000
B0408553207819S11657117EA0100201018000000000000
B0408593207839S11657191EA0100101020000000000000
B0409033207901S11657212EA0100701026000000000000
B0409073207944S11657168EA0101701036000000000000
B0409113207937S11657109EA0102401042000000000000
B0409153207888S11657083EA0102301039000000000000
B0409193207839S11657120EA0102101036000000000000
B0409233207824S11657192EA0101601031000000000000
B0409273207857S11657260EA0101301030000000000000
B0409313207917S11657285EA0101801036000000000000
B0409353207973S11657265EA0102801047000000000000
B0409393207988S11657209EA0103401044000000000000
B0409433207956S11657163EA0102501038000000000000
B0409473207898S11657169EA0102701043000000000000
B0409513207867S11657224EA0103601052000000000000
B0409553207883S11657293EA0103601048000000000000
B0409593207935S11657337EA0103901053000000000000
B0410033207991S11657321EA0104501059000000000000
B0410073208005S11657264EA0104401057000000000000
B0410113207966S11657222EA0104201055000000000000
B0410153207914S11657239EA0104701062000000000000
B0410193207889S11657302EA0105101063000000000000
B0410233207914S11657371EA0104801060000000000000
B0410273207973S11657398EA0104901062000000000000
B0410313208023S11657364EA0105101064000000000000
B0410353208026S11657302EA0105101064000000000000
B0410393207982S11657265EA0104801062000000000000
B0410433207926S11657283EA0105201067000000000000
B0410473207891S11657341EA0105201066000000000000
B0410513207889S11657419EA0104601059000000000000
B0410553207930S11657484EA0104101055000000000000
B0410593207991S11657521EA0104001057000000000000
B0411033208053S11657546EA0104701064000000000000
B0411073208109S11657530EA0105701073000000000000
B0411113208121S11657469EA0105401067000000000000
B0411153208078S11657425EA0105201071000000000000
B0411193208019S11657433EA0105101069000000000000
B0411233207971S11657484EA0105201071000000000000
B0411273207931S11657545EA0105201070000000000000
B0411313207893S11657610EA0105101067000000000000
B0411353207853S11657676EA0105001064000000000000
B0411393207815S11657746EA0104701063000000000000
B0411433207776S11657815EA0105201068000000000000
B0411473207740S11657884EA0105601071000000000000
B0411513207713S11657959EA0106601081000000000000
B0411553207735S11658036EA0107201083000000000000
B0411593207802S11658067EA0106301075000000000000
B0412033207862S11658034EA0106301077000000000000
B0412073207879S11657971EA0106801084000000000000
B0412113207853S11657922EA0107601090000000000000
B0412153207804S11657911EA0107701090000000000000
B0412193207757S11657954EA0107701089000000000000
B0412233207750S11658034EA0108101094000000000000
B0412273207798S11658091EA0108601095000000000000
B0412313207862S11658087EA0108001092000000000000
B0412353207889S11658034EA0107901091000000000000
B0412393207863S11657982EA0108101094000000000000
B0412433207813S11657972EA0108701100000000000000
B0412473207765S11658011EA0109201105000000000000
B0412513207748S11658087EA0109601107000000000000
B0412553207787S11658158EA0109101097000000000000
B0412593207856S11658171EA0108501096000000000000
B0413033207901S11658130EA0109001103000000000000
B0413073207900S11658071EA0109501109000000000000
B0413113207862S11658034EA0109901112000000000000
B0413153207807S11658045EA0110401114000000000000
B0413193207771S11658112EA0110301115000000000000
B0413233207785S11658197EA0110501117000000000000
B0413273207846S11658240EA0110501117000000000000
B0413313207904S11658212EA0110501117000000000000
B0413353207909S11658152EA0111101125000000000000
B0413393207865S11658121EA0111601128000000000000
B0413433207809S11658152EA0111801129000000000000
B0413473207789S11658232EA0112101131000000000000
B0413513207824S11658310EA0112401135000000000000
B0413553207891S11658333EA0112601136000000000000
B0413593207937S11658294EA0112201132000000000000
B0414033207931S11658234EA0112401136000000000000
B0414073207880S11658216EA0113001143000000000000
B0414113207832S11658260EA0114101152000000000000
B0414153207822S11658342EA0114501154000000000000
B0414193207869S11658408EA0114401152000000000000
B0414233207937S11658409EA0113901148000000000000
B0414273207971S11658355EA0113701149000000000000
B0414313207944S11658304EA0114201151000000000000
B0414353207888S11658313EA0114501154000000000000
B0414393207856S11658382EA0114901159000000000000
B0414433207879S11658463EA0115301163000000000000
B0414473207940S11658502EA0115601163000000000000
B0414513208000S11658479EA0114701153000000000000
B0414553208018S11658421EA0114501154000000000000
B0414593207988S11658373EA0114601154000000000000
B0415033207931S11658381EA0114501154000000000000
B0415073207879S11658438EA0114401153000000000000
B0415113207836S11658513EA0114301151000000000000
B0415153207801S11658599EA0114101150000000000000
B0415193207774S11658686EA0114501157000000000000
B0415233207752S11658769EA0114601155000000000000
B0415273207733S11658851EA0114601155000000000000
B0415313207713S11658932EA0114501154000000000000
B0415353207690S11659007EA0114101146000000000000
B0415393207659S11659083EA0112301128000000000000
B0415433207615S11659154EA0111201118000000000000
B0415473207571S11659220EA0111001118000000000000
B0415513207524S11659282EA0111001117000000000000
B0415553207476S11659339EA0110901115000000000000
B0415593207428S11659396EA0110601116000000000000
B0416033207386S11659461EA0110901115000000000000
B0416073207350S11659529EA0110901117000000000000
B0416113207320S11659597EA0111201120000000000000
B0416153207295S11659669EA0111001115000000000000
B0416193207272S11659743EA0110501112000000000000
B0416233207263S11659820EA0110601113000000000000
B0416273207295S11659891EA0110501112000000000000
B0416313207356S11659928EA0110401109000000000000
B0416353207423S11659922EA0109501103000000000000
B0416393207475S11659876EA0108801095000000000000
B0416433207502S11659804EA0107901088000000000000
B0416473207507S11659726EA0107601086000000000000
B0416513207488S11659653EA0107601088000000000000
B0416553207455S11659595EA0107901089000000000000
B0416593207415S11659545EA0107701086000000000000
B0417033207372S11659500EA0107201078000000000000
B0417073207323S11659452EA0106201069000000000000
B0417113207272S11659401EA0106101069000000000000
B0417153207217S11659361EA0106201073000000000000
B0417193207163S11659328EA0106701076000000000000
B0417233207111S11659298EA0106901077000000000000
B0417273207061S11659267EA0106501072000000000000
B0417313207013S11659230EA0105601061000000000000
B0417353206964S11659189EA0104901055000000000000
B0417393206917S11659145EA0104801057000000000000
B0417433206877S11659100EA0104801053000000000000
B0417473206836S11659053EA0104101047000000000000
B0417513206797S11659002EA0103301039000000000000
B0417553206758S11658949EA0102601034000000000000
B0417593206721S11658894EA0102101030000000000000
B0418033206686S11658838EA0101901026000000000000
B0418073206662S11658778EA0101401017000000000000
B0418113206652S11658715EA0100601010000000000000
B0418153206658S11658648EA0100101008000000000000
B0418193206662S11658583EA0100001006000000000000
B0418233206647S11658524EA0099601002000000000000
B0418273206609S11658479EA0099401001000000000000
B0418313206556S11658465EA0100101012000000000000
B0418353206519S11658520EA0101001020000000000000
B0418393206536S11658596EA0100501011000000000000
B0418433206598S11658629EA0099500998000000000000
B0418473206654S11658598EA0098900996000000000000
B0418513206676S11658538EA0098600995000000000000
B0418553206684S11658474EA0098901002000000000000
B0418593206688S11658411EA0099201002000000000000
B0419033206687S11658348EA0098600995000000000000
B0419073206675S11658287EA0097800988000000000000
B0419113206645S11658236EA0097200982000000000000
B0419153206602S11658199EA0096600974000000000000
B0419193206553S11658170EA0096400975000000000000
B0419233206505S11658148EA0097000982000000000000
B0419273206458S11658134EA0097800986000000000000
B0419313206407S11658132EA0097800986000000000000
B0419353206357S11658134EA0097900987000000000000
B0419393206306S11658135EA0097800984000000000000
B0419433206250S11658144EA0097700987000000000000
B0419473206197S11658162EA0098400993000000000000
B0419513206162S11658221EA0098800995000000000000
B0419553206181S11658295EA0098000985000000000000
B0419593206244S11658316EA0097100973000000000000
B0420033206286S11658270EA0096100970000000000000
B0420073206276S11658214EA0096100973000000000000
B0420113206238S11658175EA0096600977000000000000
B0420153206198S11658147EA0097000983000000000000
B0420193206151S11658152EA0097800988000000000000
B0420233206133S11658223EA0097500984000000000000
B0420273206176S11658283EA0097400984000000000000
B0420313206231S11658270EA0097000982000000000000
B0420353206246S11658219EA0096900981000000000000
B0420393206232S11658167EA0097100986000000000000
B0420433206194S11658143EA0097900995000000000000
B0420473206153S11658184EA0098901001000000000000
B0420513206156S11658260EA0099201004000000000000
B0420553206208S11658301EA0099301004000000000000
B0420593206254S11658277EA0099301003000000000000
B0421033206259S11658222EA0099401004000000000000
B0421073206223S11658193EA0100001013000000000000
B0421113206179S11658227EA0101201025000000000000
B0421153206172S11658301EA0101401024000000000000
B0421193206219S11658356EA0101101024000000000000
B0421233206276S11658344EA0101401024000000000000
B0421273206293S11658291EA0101401026000000000000
B0421313206255S11658262EA0102201039000000000000
B0421353206215S11658308EA0103701051000000000000
B0421393206225S11658383EA0104101051000000000000
B0421433206281S11658420EA0104001052000000000000
B0421473206328S11658390EA0104501059000000000000
B0421513206324S11658342EA0105101064000000000000
B0421553206277S11658331EA0105801073000000000000
B0421593206238S11658386EA0106701078000000000000
B0422033206250S11658466EA0106901080000000000000
B0422073206306S11658504EA0107101082000000000000
B0422113206351S11658473EA0107201081000000000000
B0422153206338S11658420EA0107001080000000000000
B0422193206281S11658427EA0107701088000000000000
B0422233206263S11658504EA0108701097000000000000
B0422273206306S11658567EA0108601096000000000000
B0422313206368S11658561EA0108601099000000000000
B0422353206394S11658509EA0108901102000000000000
B0422393206374S11658456EA0109201107000000000000
B0422433206323S11658468EA0110701122000000000000
B0422473206305S11658539EA0111501126000000000000
B0422513206338S11658608EA0111701128000000000000
B0422553206400S11658626EA0112001130000000000000
B0422593206445S11658591EA0112301132000000000000
B0423033206453S11658535EA0112601136000000000000
B0423073206414S11658504EA0113601145000000000000
B0423113206366S11658539EA0113801146000000000000
B0423153206364S11658620EA0114201157000000000000
B0423193206418S11658663EA0115401163000000000000
B0423233206468S11658637EA0115701168000000000000
B0423273206466S11658581EA0116101172000000000000
B0423313206416S11658561EA0116901178000000000000
B0423353206368S11658608EA0117301181000000000000
B0423393206364S11658691EA0117501185000000000000
B0423433206413S11658743EA0118701198000000000000
B0423473206467S11658734EA0119401204000000000000
B0423513206483S11658684EA0119701205000000000000
B0423553206446S11658645EA0120001207000000000000
B0423593206392S11658658EA0120101207000000000000
B0424033206351S11658721EA0119701206000000000000
B0424073206353S11658807EA0120101210000000000000
B0424113206397S11658868EA0120601215000000000000
B0424153206455S11658877EA0121001220000000000000
B0424193206493S11658838EA0121101221000000000000
B0424233206497S11658784EA0121701228000000000000
B0424273206454S11658769EA0122301234000000000000
B0424313206422S11658830EA0122401231000000000000
B0424353206444S11658906EA0122601236000000000000
B0424393206501S11658934EA0123001242000000000000
B0424433206549S11658905EA0123501246000000000000
B0424473206553S11658854EA0123901253000000000000
B0424513206515S11658825EA0124601259000000000000
B0424553206466S11658846EA0124801257000000000000
B0424593206435S11658914EA0124501254000000000000
B0425033206444S11658992EA0124801258000000000000
B0425073206493S11659041EA0125001261000000000000
B0425113206550S11659037EA0125001261000000000000
B0425153206584S11658992EA0125001263000000000000
B0425193206570S11658940EA0125501268000000000000
B0425233206520S11658929EA0125801268000000000000
B0425273206475S11658980EA0125601266000000000000
B0425313206467S11659059EA0125701269000000000000
B0425353206502S11659126EA0126301273000000000000
B0425393206561S11659144EA0126101271000000000000
B0425433206610S11659111EA0125901269000000000000
B0425473206636S11659054EA0125901271000000000000
B0425513206631S11658994EA0126401277000000000000
B0425553206589S11658958EA0127101283000000000000
B0425593206537S11658981EA0127601286000000000000
B0426033206517S11659055EA0127301282000000000000
B0426073206548S11659126EA0127201281000000000000
B0426113206608S11659149EA0127301282000000000000
B0426153206654S11659113EA0127301283000000000000
B0426193206661S11659049EA0127301282000000000000
B0426233206654S11658983EA0127301282000000000000
B0426273206644S11658916EA0127201283000000000000
B0426313206634S11658849EA0127501285000000000000
B0426353206626S11658784EA0128001291000000000000
B0426393206619S11658724EA0128301292000000000000
B0426433206617S11658663EA0128301292000000000000
B0426473206618S11658603EA0128401291000000000000
B0426513206621S11658541EA0128001289000000000000
B0426553206622S11658479EA0127601284000000000000
B0426593206623S11658417EA0127401282000000000000
B0427033206618S11658353EA0126901278000000000000
B0427073206593S11658295EA0126701275000000000000
B0427113206544S11658262EA0126601276000000000000
B0427153206483S11658264EA0126501270000000000000
B0427193206423S11658252EA0125801263000000000000
B0427233206372S11658222EA0125801266000000000000
B0427273206332S11658184EA0126001267000000000000
B0427313206299S11658140EA0126101265000000000000
B0427353206270S11658092EA0125601263000000000000
B0427393206244S11658045EA0126001265000000000000
B0427433206224S11658004EA0126601270000000000000
B0427473206201S11657959EA0126101264000000000000
B0427513206173S11657914EA0125701261000000000000
B0427553206141S11657870EA0125501257000000000000
B0427593206104S11657827EA0125001252000000000000
B0428033206069S11657783EA0124601251000000000000
B0428073206046S11657733EA0124701250000000000000
B0428113206024S11657681EA0124301246000000000000
B0428153205999S11657631EA0123301235000000000000
B0428193205964S11657580EA0122201225000000000000
B0428233205920S11657534EA0121701218000000000000
B0428273205864S11657506EA0121701218000000000000
B0428313205804S11657491EA0121101210000000000000
B0428353205742S11657486EA0120301207000000000000
B0428393205682S11657488EA0120501210000000000000
B0428433205625S11657493EA0120301204000000000000
B0428473205565S11657499EA0119601197000000000000
B0428513205504S11657507EA0118801189000000000000
B0428553205444S11657519EA0118101184000000000000
B0428593205384S11657530EA0117701180000000000000
B0429033205327S11657534EA0116801171000000000000
B0429073205267S11657534EA0116301168000000000000
B0429113205211S11657534EA0116101166000000000000
B0429153205157S11657536EA0116101167000000000000
B0429193205101S11657540EA0115801162000000000000
B0429233205045S11657546EA0115901166000000000000
B0429273204992S11657567EA0116201167000000000000
B0429313204973S11657637EA0116301169000000000000
B0429353205011S11657701EA0116201165000000000000
B0429393205074S11657702EA0115501158000000000000
B0429433205118S11657651EA0115301160000000000000
B0429473205115S11657592EA0115901168000000000000
B0429513205068S11657581EA0116301169000000000000
B0429553205041S11657646EA0115301157000000000000
B0429593205071S11657716EA0114601153000000000000
B0430033205133S11657735EA0114801157000000000000
B0430073205185S11657702EA0114901158000000000000
B0430113205217S11657649EA0114401152000000000000
B0430153205237S11657584EA0114001149000000000000
B0430193205254S11657516EA0113901149000000000000
B0430233205243S11657456EA0114801157000000000000
B0430273205192S11657450EA0115101156000000000000
B0430313205152S11657508EA0114401148000000000000
B0430353205165S11657590EA0113901147000000000000
B0430393205223S11657637EA0114301150000000000000
B0430433205282S11657624EA0115101160000000000000
B0430473205292S11657569EA0115101158000000000000
B0430513205250S11657538EA0115001156000000000000
B0430553205201S11657571EA0115101159000000000000
B0430593205167S11657634EA0115001155000000000000
B0431033205133S11657706EA0114201151000000000000
B0431073205102S11657780EA0114101148000000000000
B0431113205070S11657857EA0113201138000000000000
B0431153205037S11657932EA0112601134000000000000
B0431193205003S11658006EA0112601133000000000000
B0431233204968S11658075EA0113001140000000000000
B0431273204938S11658143EA0113301139000000000000
B0431313204906S11658210EA0112801132000000000000
B0431353204873S11658278EA0112101123000000000000
B0431393204834S11658342EA0111601120000000000000
B0431433204790S11658396EA0111401121000000000000
B0431473204749S11658448EA0112201131000000000000
B0431513204725S11658513EA0112901134000000000000
B0431553204760S11658574EA0113601142000000000000
B0431593204816S11658568EA0114301146000000000000
B0432033204832S11658515EA0113801146000000000000
B0432073204795S11658482EA0114801159000000000000
B0432113204752S11658495EA0116201168000000000000
B0432153204723S11658550EA0115701160000000000000
B0432193204734S11658625EA0115901167000000000000
B0432233204788S11658659EA0116701172000000000000
B0432273204838S11658630EA0116701174000000000000
B0432313204846S11658574EA0116701174000000000000
B0432353204806S11658539EA0117001174000000000000
B0432393204758S11658573EA0117001175000000000000
B0432433204749S11658652EA0117101178000000000000
B0432473204798S11658706EA0117601180000000000000
B0432513204860S11658697EA0118101185000000000000
B0432553204888S11658642EA0118001184000000000000
B0432593204860S11658590EA0118201188000000000000
B0433033204806S11658593EA0118601192000000000000
B0433073204768S11658652EA0118601190000000000000
B0433113204777S11658733EA0118801195000000000000
B0433153204828S11658785EA0119401201000000000000
B0433193204892S11658786EA0119901204000000000000
B0433233204931S11658741EA0119801204000000000000
B0433273204923S11658682EA0119701205000000000000
B0433313204886S11658634EA0119901207000000000000
B0433353204834S11658635EA0120601214000000000000
B0433393204799S11658694EA0120601211000000000000
B0433433204811S11658771EA0120701213000000000000
B0433473204863S11658816EA0120901216000000000000
B0433513204923S11658807EA0121201216000000000000
B0433553204967S11658758EA0120201209000000000000
B0433593205002S11658697EA0120101211000000000000
B0434033205033S11658635EA0120201207000000000000
B0434073205063S11658572EA0119201198000000000000
B0434113205090S11658504EA0118801193000000000000
B0434153205118S11658437EA0118301188000000000000
B0434193205149S11658370EA0117901185000000000000
B0434233205185S11658308EA0117301179000000000000
B0434273205227S11658247EA0116701170000000000000
B0434313205275S11658191EA0115901163000000000000
B0434353205335S11658148EA0115101157000000000000
B0434393205402S11658122EA0114901154000000000000
B0434433205473S11658104EA0115201158000000000000
B0434473205539S11658074EA0115201158000000000000
B0434513205594S11658030EA0115501159000000000000
B0434553205643S11657979EA0115701161000000000000
B0434593205688S11657924EA0115101154000000000000
B0435033205729S11657863EA0115001155000000000000
B0435073205760S11657803EA0115601166000000000000
B0435113205766S11657742EA0116701176000000000000
B0435153205725S11657724EA0117501180000000000000
B0435193205692S11657775EA0117201174000000000000
B0435233205717S11657848EA0116601171000000000000
B0435273205782S11657868EA0116701174000000000000
B0435313205829S11657827EA0117101176000000000000
B0435353205835S11657766EA0117101175000000000000
B0435393205803S11657723EA0117701182000000000000
B0435433205752S11657725EA0117901182000000000000
B0435473205716S11657779EA0117901184000000000000
B0435513205721S11657854EA0117901184000000000000
B0435553205770S11657904EA0118201185000000000000
B0435593205833S11657898EA0118001185000000000000
B0436033205867S11657846EA0118201187000000000000
B0436073205847S11657796EA0118701193000000000000
B0436113205800S11657805EA0119001194000000000000
B0436153205783S11657874EA0118701190000000000000
B0436193205825S11657936EA0118601189000000000000
B0436233205887S11657939EA0118501189000000000000
B0436273205935S11657892EA0118201185000000000000
B0436313205971S11657829EA0117901187000000000000
B0436353205980S11657763EA0118401188000000000000
B0436393205952S11657703EA0118001184000000000000
B0436433205913S11657649EA0117801184000000000000
B0436473205870S11657599EA0118101188000000000000
B0436513205822S11657556EA0118301189000000000000
B0436553205772S11657516EA0118301188000000000000
B0436593205724S11657477EA0118301188000000000000
B0437033205675S11657438EA0118101183000000000000
B0437073205623S11657404EA0118101187000000000000
B0437113205571S11657374EA0118501193000000000000
B0437153205517S11657367EA0119801205000000000000
B0437193205480S11657426EA0120201205000000000000
B0437233205503S11657501EA0120101205000000000000
B0437273205558S11657530EA0120601209000000000000
B0437313205612S11657511EA0120201205000000000000
B0437353205638S11657458EA0120001205000000000000
B0437393205626S11657400EA0120601211000000000000
B0437433205588S11657365EA0120901213000000000000
B0437473205540S11657395EA0120701206000000000000
B0437513205530S11657473EA0119701198000000000000
B0437553205570S11657540EA0119601197000000000000
B0437593205634S11657554EA0119701203000000000000
B0438033205679S11657516EA0120301206000000000000
B0438073205685S11657458EA0120201204000000000000
B0438113205653S11657408EA0119701197000000000000
B0438153205608S11657367EA0118801189000000000000
B0438193205553S11657333EA0117801175000000000000
B0438233205493S11657300EA0116601166000000000000
B0438273205432S11657274EA0115901160000000000000
B0438313205367S11657256EA0115501157000000000000
B0438353205304S11657250EA0115101155000000000000
B0438393205236S11657263EA0114801149000000000000
B0438433205167S11657276EA0113801143000000000000
B0438473205100S11657272EA0113701144000000000000
B0438513205035S11657257EA0113801144000000000000
B0438553204971S11657238EA0113801144000000000000
B0438593204911S11657216EA0114101146000000000000
B0439033204849S11657202EA0113901141000000000000
B0439073204790S11657186EA0113101137000000000000
B0439113204734S11657164EA0112701131000000000000
B0439153204677S11657139EA0112201122000000000000
B0439193204617S11657109EA0110901114000000000000
B0439233204560S11657075EA0110301107000000000000
B0439273204500S11657042EA0109801101000000000000
B0439313204440S11657014EA0109401099000000000000
B0439353204382S11656992EA0109101097000000000000
B0439393204322S11656973EA0108501090000000000000
B0439433204261S11656956EA0108101088000000000000
B0439473204201S11656942EA0107901084000000000000
B0439513204141S11656929EA0107101076000000000000
B0439553204080S11656917EA0106801074000000000000
B0439593204022S11656904EA0106701075000000000000
B0440033203965S11656892EA0107201083000000000000
B0440073203909S11656883EA0108401092000000000000
B0440113203857S11656914EA0109401102000000000000
B0440153203871S11656999EA0109501102000000000000
B0440193203945S11657027EA0110301115000000000000
B0440233203997S11656982EA0112301135000000000000
B0440273203991S11656923EA0113701144000000000000
B0440313203943S11656904EA0114201148000000000000
B0440353203896S11656947EA0114801154000000000000
B0440393203897S11657027EA0115501162000000000000
B0440433203952S11657085EA0116101171000000000000
B0440473204017S11657072EA0117701188000000000000
B0440513204040S11657016EA0119101200000000000000
B0440553204011S11656970EA0119701201000000000000
B0440593203958S11656974EA0119601197000000000000
B0441033203927S11657040EA0119801206000000000000
B0441073203939S11657120EA0121401222000000000000
B0441113204001S11657148EA0122001225000000000000
B0441153204049S11657103EA0122601232000000000000
B0441193204034S11657047EA0123401244000000000000
B0441233203980S11657055EA0124001246000000000000
B0441273203958S11657130EA0124301253000000000000
B0441313203996S11657204EA0125601266000000000000
B0441353204065S11657220EA0126701276000000000000
B0441393204115S11657176EA0127801289000000000000
B0441433204104S11657120EA0129101299000000000000
B0441473204052S11657120EA0129501300000000000000
B0441513204014S11657183EA0129901305000000000000
B0441553204028S11657267EA0131201322000000000000
B0441593204080S11657320EA0132801333000000000000
B0442033204145S11657319EA0133501349000000000000
B0442073204182S11657268EA0135101361000000000000
B0442113204167S11657211EA0135501364000000000000
B0442153204123S11657173EA0136001364000000000000
B0442193204069S11657153EA0135901362000000000000
B0442233204008S11657150EA0136001367000000000000
B0442273203949S11657151EA0136601370000000000000
B0442313203893S11657161EA0136501371000000000000
B0442353203837S11657190EA0135801361000000000000
B0442393203774S11657222EA0134301346000000000000
B0442433203706S11657256EA0133201334000000000000
B0442473203637S11657290EA0132401327000000000000
B0442513203568S11657322EA0131901321000000000000
B0442553203498S11657351EA0131201317000000000000
B0442593203426S11657382EA0130601311000000000000
B0443033203358S11657411EA0130301309000000000000
B0443073203289S11657439EA0130101307000000000000
B0443113203221S11657464EA0129801304000000000000
B0443153203155S11657486EA0129601303000000000000
B0443193203091S11657502EA0129601303000000000000
B0443233203026S11657515EA0129501298000000000000
B0443273202960S11657519EA0128701290000000000000
B0443313202893S11657511EA0128301288000000000000
B0443353202828S11657494EA0128901299000000000000
B0443393202766S11657495EA0130301310000000000000
B0443433202724S11657553EA0131201317000000000000
B0443473202735S11657632EA0131601323000000000000
B0443513202783S11657688EA0132001325000000000000
B0443553202847S11657702EA0131601320000000000000
B0443593202900S11657664EA0131101314000000000000
B0444033202916S11657598EA0131101317000000000000
B0444073202887S11657538EA0131601319000000000000
B0444113202836S11657495EA0131501320000000000000
B0444153202774S11657508EA0132501333000000000000
B0444193202732S11657569EA0133301337000000000000
B0444233202722S11657654EA0132901331000000000000
B0444273202745S11657737EA0132401328000000000000
B0444313202801S11657794EA0132701331000000000000
B0444353202873S11657818EA0132501329000000000000
B0444393202948S11657822EA0132301324000000000000
B0444433203023S11657814EA0131801323000000000000
B0444473203098S11657803EA0132001325000000000000
B0444513203170S11657794EA0132501331000000000000
B0444553203243S11657784EA0133601340000000000000
B0444593203311S11657764EA0133401337000000000000
B0445033203372S11657738EA0133201332000000000000
B0445073203437S11657714EA0132301324000000000000
B0445113203506S11657697EA0131901321000000000000
B0445153203576S11657684EA0131701318000000000000
B0445193203644S11657673EA0131501314000000000000
B0445233203711S11657663EA0130901309000000000000
B0445273203779S11657655EA0130201302000000000000
B0445313203850S11657651EA0129701296000000000000
B0445353203922S11657657EA0128801290000000000000
B0445393203993S11657676EA0128501287000000000000
B0445433204062S11657706EA0128701287000000000000
B0445473204131S11657738EA0128401285000000000000
B0445513204203S11657770EA0127901280000000000000
B0445553204274S11657801EA0127401273000000000000
B0445593204349S11657833EA0126501265000000000000
B0446033204425S11657867EA0126601271000000000000
B0446073204495S11657897EA0127601280000000000000
B0446113204564S11657906EA0128001280000000000000
B0446153204613S11657871EA0127601275000000000000
B0446193204617S11657814EA0126801262000000000000
B0446233204573S11657779EA0125701254000000000000
B0446273204521S11657809EA0125101246000000000000
B0446313204500S11657885EA0123801235000000000000
B0446353204512S11657974EA0122801226000000000000
B0446393204535S11658062EA0122401224000000000000
B0446433204565S11658148EA0122201223000000000000
B0446473204607S11658229EA0122201224000000000000
B0446513204642S11658310EA0122101221000000000000
B0446553204648S11658403EA0121101210000000000000
B0446593204616S11658482EA0120601208000000000000
B0447033204561S11658535EA0120901210000000000000
B0447073204503S11658577EA0121001212000000000000
B0447113204448S11658620EA0121601222000000000000
B0447153204399S11658661EA0122801230000000000000
B0447193204349S11658703EA0122901230000000000000
B0447233204292S11658728EA0122701228000000000000
B0447273204230S11658725EA0122501228000000000000
B0447313204178S11658693EA0123001230000000000000
B0447353204145S11658634EA0122601224000000000000
B0447393204136S11658559EA0121901221000000000000
B0447433204157S11658486EA0122301229000000000000
B0447473204204S11658433EA0123101237000000000000
B0447513204266S11658401EA0123501240000000000000
B0447553204338S11658391EA0123301232000000000000
B0447593204420S11658392EA0123301235000000000000
B0448033204486S11658362EA0124601250000000000000
B0448073204503S11658299EA0125101252000000000000
B0448113204465S11658251EA0124801248000000000000
B0448153204405S11658251EA0124601245000000000000
B0448193204368S11658313EA0124301244000000000000
B0448233204372S11658401EA0124601254000000000000
B0448273204403S11658477EA0126101270000000000000
B0448313204465S11658490EA0127201275000000000000
B0448353204505S11658439EA0126901273000000000000
B0448393204492S11658378EA0127101274000000000000
B0448433204440S11658365EA0127401278000000000000
B0448473204399S11658414EA0127901287000000000000
B0448513204407S11658492EA0128401294000000000000
B0448553204463S11658531EA0129301299000000000000
B0448593204520S11658507EA0129501305000000000000
B0449033204531S11658450EA0130301309000000000000
B0449073204500S11658409EA0130301307000000000000
B0449113204447S11658403EA0129601297000000000000
B0449153204385S11658412EA0128101283000000000000
B0449193204321S11658429EA0127401282000000000000
B0449233204257S11658448EA0128001287000000000000
B0449273204195S11658468EA0127501277000000000000
B0449313204130S11658487EA0126401269000000000000
B0449353204063S11658507EA0126001266000000000000
B0449393204000S11658525EA0125501261000000000000
B0449433203936S11658539EA0125801266000000000000
B0449473203876S11658548EA0125801265000000000000
B0449513203818S11658555EA0125801265000000000000
B0449553203762S11658557EA0125901266000000000000
B0449593203707S11658557EA0125701263000000000000
B0450033203653S11658559EA0125201257000000000000
B0450073203598S11658557EA0125001257000000000000
B0450113203545S11658556EA0125101254000000000000
B0450153203490S11658552EA0125101257000000000000
B0450193203437S11658546EA0125801262000000000000
B0450233203385S11658556EA0125901262000000000000
B0450273203345S11658612EA0125801262000000000000
B0450313203346S11658691EA0126401269000000000000
B0450353203390S11658752EA0126901275000000000000
B0450393203456S11658760EA0128001287000000000000
B0450433203488S11658713EA0129301296000000000000
B0450473203462S11658663EA0129101291000000000000
B0450513203403S11658664EA0128801291000000000000
B0450553203363S11658725EA0129701299000000000000
B0450593203365S11658804EA0130301305000000000000
B0451033203415S11658868EA0130701308000000000000
B0451073203480S11658877EA0131701323000000000000
B0451113203517S11658833EA0133101334000000000000
B0451153203508S11658776EA0133201329000000000000
B0451193203459S11658743EA0132701330000000000000
B0451233203400S11658765EA0133601341000000000000
B0451273203365S11658828EA0135001356000000000000
B0451313203371S11658905EA0135601358000000000000
B0451353203424S11658955EA0134801349000000000000
B0451393203494S11658947EA0134701355000000000000
B0451433203534S11658898EA0135801364000000000000
B0451473203523S11658841EA0136201367000000000000
B0451513203471S11658824EA0136501372000000000000
B0451553203425S11658875EA0137001380000000000000
B0451593203428S11658959EA0138101391000000000000
B0452033203476S11659029EA0138201388000000000000
B0452073203550S11659061EA0138601397000000000000
B0452113203624S11659050EA0139201400000000000000
B0452153203688S11659011EA0139501404000000000000
B0452193203738S11658958EA0139801407000000000000
B0452233203777S11658897EA0139601405000000000000
B0452273203820S11658836EA0139801408000000000000
B0452313203865S11658780EA0140001404000000000000
B0452353203914S11658726EA0139001395000000000000
B0452393203970S11658676EA0138201389000000000000
B0452433204026S11658626EA0138001384000000000000
B0452473204083S11658581EA0137801384000000000000
B0452513204139S11658539EA0137501380000000000000
B0452553204199S11658503EA0137301377000000000000
B0452593204256S11658468EA0136901372000000000000
B0453033204313S11658431EA0136301364000000000000
B0453073204370S11658395EA0135401355000000000000
B0453113204426S11658353EA0134501349000000000000
B0453153204481S11658309EA0134101344000000000000
B0453193204537S11658268EA0133501340000000000000
B0453233204593S11658226EA0133101336000000000000
B0453273204650S11658187EA0132601331000000000000
B0453313204708S11658151EA0132101324000000000000
B0453353204768S11658115EA0131401318000000000000
B0453393204829S11658083EA0131001314000000000000
B0453433204890S11658054EA0130801312000000000000
B0453473204955S11658030EA0130601308000000000000
B0453513205020S11658006EA0130001304000000000000
B0453553205085S11657982EA0129901304000000000000
B0453593205152S11657959EA0129701300000000000000
B0454033205222S11657943EA0129301297000000000000
B0454073205292S11657931EA0129101295000000000000
B0454113205366S11657930EA0128301286000000000000
B0454153205441S11657937EA0127701282000000000000
B0454193205518S11657953EA0127501280000000000000
B0454233205592S11657975EA0127201277000000000000
B0454273205666S11658002EA0126901272000000000000
B0454313205742S11658032EA0126101266000000000000
B0454353205815S11658066EA0125801266000000000000
B0454393205883S11658101EA0126001267000000000000
B0454433205952S11658136EA0126001264000000000000
B0454473206023S11658169EA0125601259000000000000
B0454513206094S11658199EA0125001256000000000000
B0454553206166S11658229EA0124601250000000000000
B0454593206237S11658262EA0123801242000000000000
B0455033206307S11658295EA0123101236000000000000
B0455073206377S11658326EA0122101225000000000000
B0455113206450S11658348EA0120901214000000000000
B0455153206526S11658362EA0120201206000000000000
B0455193206604S11658374EA0119201195000000000000
B0455233206680S11658386EA0118501190000000000000
B0455273206757S11658398EA0118001186000000000000
B0455313206832S11658411EA0117601183000000000000
B0455353206907S11658429EA0117401180000000000000
B0455393206982S11658451EA0117101177000000000000
B0455433207057S11658459EA0116901177000000000000
B0455473207129S11658435EA0117601184000000000000
B0455513207176S11658385EA0118101191000000000000
B0455553207203S11658323EA0118101188000000000000
B0455593207234S11658262EA0117601180000000000000
B0456033207286S11658214EA0116701170000000000000
B0456073207359S11658192EA0115601161000000000000
B0456113207438S11658195EA0114901155000000000000
B0456153207514S11658213EA0114701153000000000000
B0456193207588S11658240EA0114401153000000000000
B0456233207654S11658271EA0114801156000000000000
B0456273207718S11658303EA0114101147000000000000
B0456313207787S11658333EA0113001133000000000000
B0456353207859S11658362EA0112201130000000000000
B0456393207930S11658388EA0112801142000000000000
B0456433207995S11658411EA0114101151000000000000
B0456473208060S11658434EA0114201149000000000000
B0456513208127S11658450EA0114201149000000000000
B0456553208199S11658455EA0113901148000000000000
B0456593208246S11658408EA0114401152000000000000
B0457033208233S11658349EA0114801153000000000000
B0457073208182S11658326EA0114701151000000000000
B0457113208121S11658327EA0114501153000000000000
B0457153208056S11658338EA0115201164000000000000
B0457193208019S11658395EA0117201182000000000000
B0457233208040S11658466EA0117801180000000000000
B0457273208104S11658491EA0117101180000000000000
B0457313208148S11658447EA0118401198000000000000
B0457353208135S11658395EA0119701207000000000000
B0457393208084S11658386EA0119701203000000000000
B0457433208041S11658442EA0119701206000000000000
B0457473208041S11658522EA0120701213000000000000
B0457513208087S11658583EA0120901216000000000000
B0457553208149S11658596EA0121301226000000000000
B0457593208191S11658557EA0122501236000000000000
B0458033208182S11658504EA0123001237000000000000
B0458073208134S11658478EA0123101240000000000000
B0458113208080S11658512EA0124201250000000000000
B0458153208067S11658587EA0124801257000000000000
B0458193208100S11658656EA0124901257000000000000
B0458233208158S11658690EA0125401262000000000000
B0458273208213S11658671EA0126301274000000000000
B0458313208235S11658621EA0127001282000000000000
B0458353208210S11658576EA0127501284000000000000
B0458393208157S11658572EA0128101294000000000000
B0458433208117S11658622EA0129901308000000000000
B0458473208121S11658697EA0130101304000000000000
B0458513208177S11658743EA0129101293000000000000
B0458553208249S11658739EA0128601293000000000000
B0458593208318S11658707EA0128701294000000000000
B0459033208382S11658664EA0128901296000000000000
B0459073208444S11658613EA0128201289000000000000
B0459113208504S11658560EA0127901287000000000000
B0459153208559S11658504EA0127301280000000000000
B0459193208612S11658451EA0127001278000000000000
B0459233208664S11658403EA0126501274000000000000
B0459273208717S11658357EA0125601258000000000000
B0459313208773S11658309EA0124401249000000000000
B0459353208831S11658262EA0123701243000000000000
B0459393208885S11658217EA0123701245000000000000
B0459433208932S11658178EA0124501251000000000000
B0459473208979S11658139EA0124001242000000000000
B0459513209028S11658095EA0123501235000000000000
B0459553209076S11658048EA0123201231000000000000
B0459593209123S11658002EA0122701226000000000000
B0500033209171S11657958EA0121801218000000000000
B0500073209219S11657915EA0120701211000000000000
B0500113209269S11657870EA0120201207000000000000
B0500153209321S11657826EA0120001205000000000000
B0500193209373S11657780EA0119501200000000000000
B0500233209425S11657737EA0119201197000000000000
B0500273209478S11657697EA0119101197000000000000
B0500313209533S11657659EA0119201196000000000000
B0500353209587S11657621EA0118901194000000000000
B0500393209642S11657584EA0118901194000000000000
B0500433209695S11657547EA0118601191000000000000
B0500473209750S11657510EA0118301188000000000000
B0500513209804S11657469EA0117901185000000000000
B0500553209856S11657430EA0117701182000000000000
B0500593209910S11657391EA0117201176000000000000
B0501033209962S11657351EA0116701172000000000000
B0501073210015S11657311EA0116301165000000000000
B0501113210068S11657268EA0115601161000000000000
B0501153210121S11657225EA0115101157000000000000
B0501193210177S11657186EA0114801153000000000000
B0501233210233S11657147EA0114501149000000000000
B0501273210290S11657111EA0114001147000000000000
B0501313210348S11657077EA0113901146000000000000
B0501353210406S11657046EA0113601141000000000000
B0501393210465S11657016EA0113201136000000000000
B0501433210527S11656990EA0113301133000000000000
B0501473210588S11656968EA0113101132000000000000
B0501513210649S11656953EA0113001132000000000000
B0501553210709S11656935EA0112301123000000000000
B0501593210769S11656913EA0110701112000000000000
B0502033210831S11656890EA0109801104000000000000
B0502073210895S11656867EA0109101097000000000000
B0502113210959S11656845EA0108301090000000000000
B0502153211024S11656823EA0107901087000000000000
B0502193211080S11656787EA0107301079000000000000
B0502233211130S11656743EA0106301069000000000000
B0502273211182S11656696EA0105301058000000000000
B0502313211226S11656639EA0104601052000000000000
B0502353211263S11656574EA0103801041000000000000
B0502393211304S11656510EA0102801030000000000000
B0502433211355S11656454EA0101901023000000000000
B0502473211411S11656405EA0101301019000000000000
B0502513211470S11656362EA0101001017000000000000
B0502553211528S11656323EA0100901013000000000000
B0502593211587S11656282EA0100301008000000000000
B0503033211640S11656238EA0100301013000000000000
B0503073211684S11656190EA0100601012000000000000
B0503113211714S11656132EA0100301009000000000000
B0503153211732S11656065EA0100301011000000000000
B0503193211745S11655999EA0100901017000000000000
B0503233211744S11655934EA0101701023000000000000
B0503273211701S11655903EA0101801020000000000000
B0503313211658S11655944EA0101001011000000000000
B0503353211665S11656022EA0100401006000000000000
B0503393211722S11656072EA0100201005000000000000
B0503433211792S11656073EA0100501010000000000000
B0503473211850S11656035EA0100701013000000000000
B0503513211880S11655973EA0101001018000000000000
B0503553211843S11655929EA0100701011000000000000
B0503593211789S11655965EA0100201011000000000000
B0504033211787S11656045EA0100601018000000000000
B0504073211836S11656100EA0100801019000000000000
B0504113211906S11656110EA0101501028000000000000
B0504153211957S11656068EA0102201035000000000000
B0504193211957S11656007EA0102101031000000000000
B0504233211908S11655978EA0101601024000000000000
B0504273211863S11656024EA0101601025000000000000
B0504313211871S11656100EA0101701028000000000000
B0504353211928S11656147EA0102001029000000000000
B0504393212001S11656154EA0102201030000000000000
B0504433212062S11656119EA0102201035000000000000
B0504473212083S11656051EA0102401035000000000000
B0504513212074S11655978EA0102001030000000000000
B0504553212053S11655905EA0101901030000000000000
B0504593212030S11655835EA0102201033000000000000
B0505033212006S11655766EA0102101028000000000000
B0505073211991S11655694EA0101501023000000000000
B0505113211975S11655622EA0101501025000000000000
B0505153211960S11655553EA0101701025000000000000
B0505193211945S11655482EA0101201018000000000000
B0505233211932S11655409EA0100701015000000000000
B0505273211923S11655337EA0101101022000000000000
B0505313211913S11655268EA0102001028000000000000
B0505353211870S11655235EA0102501036000000000000
B0505393211821S11655278EA0102401033000000000000
B0505433211821S11655361EA0101601029000000000000
B0505473211873S11655421EA0101601030000000000000
B0505513211940S11655430EA0101801034000000000000
B0505553211993S11655392EA0101901036000000000000
B0505593212010S11655326EA0101801033000000000000
B0506033212001S11655257EA0102001037000000000000
B0506073211957S11655226EA0102501041000000000000
B0506113211913S11655283EA0102101038000000000000
B0506153211926S11655367EA0102201042000000000000
B0506193211986S11655413EA0102501041000000000000
B0506233212052S11655397EA0102301039000000000000
B0506273212087S11655335EA0102401044000000000000
B0506313212083S11655265EA0102301039000000000000
B0506353212058S11655196EA0101801034000000000000
B0506393212026S11655129EA0101901036000000000000
B0506433211993S11655064EA0102501041000000000000
B0506473211961S11655008EA0103301045000000000000
B0506513211928S11654951EA0102801038000000000000
B0506553211893S11654895EA0102301034000000000000
B0506593211857S11654842EA0102201028000000000000
B0507033211822S11654786EA0101301019000000000000
B0507073211792S11654722EA0100801014000000000000
B0507113211739S11654698EA0100901017000000000000
B0507153211678S11654725EA0100501009000000000000
B0507193211624S11654789EA0099601002000000000000
B0507233211576S11654858EA0099401002000000000000
B0507273211532S11654929EA0099100996000000000000
B0507313211489S11655002EA0098600992000000000000
B0507353211447S11655076EA0098000987000000000000
B0507393211408S11655151EA0097700985000000000000
B0507433211369S11655222EA0097600980000000000000
B0507473211327S11655289EA0096300967000000000000
B0507513211281S11655354EA0095800965000000000000
B0507553211236S11655415EA0095300960000000000000
B0507593211187S11655474EA0094700953000000000000
B0508033211142S11655538EA0094000947000000000000
B0508073211098S11655605EA0093300935000000000000
B0508113211047S11655669EA0091800922000000000000
B0508153210987S11655722EA0090900916000000000000
B0508193210927S11655765EA0090500913000000000000
B0508233210868S11655801EA0090000909000000000000
B0508273210808S11655831EA0089700905000000000000
B0508313210749S11655863EA0089200900000000000000
B0508353210690S11655891EA0088900894000000000000
B0508393210628S11655918EA0088400890000000000000
B0508433210566S11655947EA0087600876000000000000
B0508473210501S11655980EA0086000862000000000000
B0508513210433S11656008EA0085000855000000000000
B0508553210366S11656034EA0084300849000000000000
B0508593210300S11656061EA0083500841000000000000
B0509033210233S11656086EA0083200839000000000000
B0509073210168S11656107EA0082700834000000000000
B0509113210103S11656123EA0082300828000000000000
B0509153210038S11656132EA0081600821000000000000
B0509193209977S11656133EA0081100819000000000000
B0509233209917S11656129EA0080400810000000000000
B0509273209856S11656124EA0079300802000000000000
B0509313209796S11656119EA0078800794000000000000
B0509353209737S11656113EA0077600784000000000000
B0509393209679S11656102EA0077200780000000000000
B0509433209622S11656095EA0076700775000000000000
B0509473209564S11656097EA0076300773000000000000
B0509513209507S11656104EA0076300774000000000000
B0509553209448S11656120EA0076700775000000000000
B0509593209403S11656169EA0076900778000000000000
B0510033209412S11656245EA0076400771000000000000
B0510073209481S11656268EA0075400762000000000000
B0510113209544S11656227EA0075100760000000000000
B0510153209585S11656163EA0075100761000000000000
B0510193209599S11656090EA0075200763000000000000
B0510233209611S11656017EA0075100758000000000000
B0510273209600S11655954EA0074900757000000000000
B0510313209556S11655924EA0074200747000000000000
B0510353209495S11655934EA0072500730000000000000
B0510393209431S11655960EA0071100718000000000000
B0510433209367S11655993EA0069700707000000000000
B0510473209302S11656025EA0068700696000000000000
B0510513209237S11656059EA0068000685000000000000
B0510553209171S11656091EA0066700675000000000000
B0510593209105S11656124EA0066000669000000000000
B0511033209040S11656154EA0065500663000000000000
B0511073208976S11656184EA0064800659000000000000
B0511113208914S11656214EA0064500655000000000000
B0511153208851S11656243EA0064100651000000000000
B0511193208790S11656279EA0063700648000000000000
B0511233208728S11656314EA0063300643000000000000
B0511273208668S11656349EA0063100640000000000000
B0511313208608S11656383EA0063000641000000000000
B0511353208554S11656418EA0063000640000000000000
B0511393208502S11656458EA0062500634000000000000
B0511433208452S11656501EA0062300635000000000000
B0511473208405S11656541EA0062200631000000000000
B0511513208359S11656583EA0061600623000000000000
B0511553208307S11656618EA0060500613000000000000
B0511593208252S11656645EA0060200611000000000000
B0512033208197S11656670EA0059900608000000000000
B0512073208142S11656692EA0059300602000000000000
B0512113208083S11656705EA0058900597000000000000
B0512153208025S11656710EA0058700595000000000000
B0512193207963S11656710EA0058200590000000000000
B0512233207901S11656704EA0057700586000000000000
B0512273207840S11656695EA0057400582000000000000
B0512313207778S11656685EA0057000580000000000000
B0512353207718S11656678EA0057100582000000000000
B0512393207661S11656670EA0057500584000000000000
B0512433207606S11656663EA0057400583000000000000
B0512473207551S11656657EA0057100580000000000000
B0512513207493S11656653EA0056900578000000000000
B0512553207436S11656648EA0056800579000000000000
B0512593207382S11656626EA0056600578000000000000
B0513033207347S11656578EA0056700577000000000000
B0513073207325S11656520EA0056200570000000000000
B0513113207313S11656459EA0055400560000000000000
B0513153207285S11656402EA0054100550000000000000
B0513193207237S11656371EA0053700545000000000000
B0513233207181S11656358EA0053000537000000000000
B0513273207121S11656364EA0052300531000000000000
B0513313207065S11656397EA0051400523000000000000
B0513353207017S11656453EA0050100509000000000000
B0513393206981S11656523EA0049200504000000000000
B0513433206949S11656596EA0049100504000000000000
B0513473206923S11656669EA0048600494000000000000
B0513513206900S11656748EA0047300481000000000000
B0513553206892S11656836EA0046700482000000000000
B0513593206899S11656923EA0046900483000000000000
B0514033206909S11657010EA0047200490000000000000
B0514073206918S11657096EA0047600493000000000000
B0514113206897S11657173EA0047600489000000000000
B0514153206890S11657254EA0048400501000000000000
B0514193206943S11657293EA0049200508000000000000
B0514233206982S11657246EA0048800504000000000000
B0514273206947S11657207EA0049100509000000000000
B0514313206912S11657257EA0049700515000000000000
B0514353206947S11657321EA0050500522000000000000
B0514393207005S11657315EA0050600519000000000000
B0514433207016S11657257EA0050100516000000000000
B0514473206973S11657238EA0050600524000000000000
B0514513206942S11657295EA0050800519000000000000
B0514553206974S11657360EA0050600523000000000000
B0514593207034S11657354EA0050500519000000000000
B0515033207056S11657293EA0050200517000000000000
B0515073207022S11657254EA0050500522000000000000
B0515113206982S11657294EA0051000526000000000000
B0515153206999S11657367EA0050600520000000000000
B0515193207064S11657374EA0050400519000000000000
B0515233207100S11657321EA0050500520000000000000
B0515273207089S11657261EA0050100518000000000000
B0515313207057S11657204EA0049700516000000000000
B0515353207018S11657156EA0050200520000000000000
B0515393206970S11657177EA0051500534000000000000
B0515433206981S11657248EA0051600530000000000000
B0515473207043S11657261EA0051300528000000000000
B0515513207074S11657208EA0051300529000000000000
B0515553207061S11657143EA0050800526000000000000
B0515593207012S11657124EA0051500532000000000000
B0516033206979S11657183EA0051900533000000000000
B0516073207012S11657250EA0052000537000000000000
B0516113207072S11657248EA0052000535000000000000
B0516153207090S11657187EA0052000537000000000000
B0516193207048S11657153EA0052500540000000000000
B0516233207001S11657196EA0052400542000000000000
B0516273207005S11657273EA0052500544000000000000
B0516313207063S11657298EA0052800547000000000000
B0516353207102S11657250EA0052600548000000015000
B0516393207089S11657190EA0052700554000000000000
B0516433207038S11657194EA0053700560000000000000
B0516473207016S11657259EA0053600559000000000000
B0516513207057S11657311EA0053600554000000000000
B0516553207111S11657283EA0053300558000000000000
B0516593207117S11657221EA0053600562000000000000
B0517033207072S11657191EA0053700559000000000000
B0517073207018S11657225EA0053000550000000000000
B0517113207001S11657302EA0052800547000000000000
B0517153207024S11657378EA0052100542000000000000
B0517193207087S11657391EA0052100543000000000000
B0517233207121S11657339EA0052600550000000000000
B0517273207082S11657313EA0053400556000000000000
B0517313207056S11657373EA0054200562000000000000
B0517353207095S11657426EA0054400562000000000000
B0517393207150S11657411EA0054000556000000000000
B0517433207159S11657345EA0053800558000000000000
B0517473207118S11657304EA0054200559000000000000
B0517513207077S11657356EA0054000558000000000000
B0517553207109S11657423EA0054200561000000000000
B0517593207165S11657413EA0054600564000000000000
B0518033207170S11657350EA0054000558000000000000
B0518073207122S11657326EA0054300560000000000000
B0518113207087S11657386EA0054100559000000000000
B0518153207124S11657447EA0053700557000000000000
B0518193207180S11657430EA0054200561000000000000
B0518233207189S11657372EA0053900556000000000000
B0518273207167S11657309EA0052600540000000000000
B0518313207134S11657248EA0050900525000000000000
B0518353207100S11657182EA0050100520000000000000
B0518393207072S11657117EA0049500511000000000000
B0518433207047S11657048EA0048700502000000000000
B0518473207014S11656986EA0048000495000000000000
B0518513206969S11656939EA0047500492000000000000
B0518553206909S11656921EA0047500496000000000000
B0518593206855S11656897EA0048100498000000000000
B0519033206849S11656836EA0049100510000000000000
B0519073206897S11656805EA0049600512000000000000
B0519113206952S11656840EA0049600510000000000000
B0519153206982S11656910EA0049400508000000000000
B0519193206961S11656979EA0049400509000000000000
B0519233206909S11656994EA0049200505000000000000
B0519273206869S11656955EA0048900500000000000000
B0519313206871S11656891EA0048300497000000000000
B0519353206926S11656864EA0048500500000000000000
B0519393206983S11656899EA0048700501000000000000
B0519433207001S11656973EA0048600499000000000000
B0519473206981S11657048EA0048500497000000000000
B0519513206927S11657083EA0047900491000000000000
B0519553206865S11657079EA0047300489000000000000
B0519593206817S11657035EA0047300490000000000000
B0520033206831S11656973EA0048500504000000000000
B0520073206886S11656955EA0049500511000000000000
B0520113206934S11656996EA0049600508000000000000
B0520153206940S11657072EA0049100504000000000000
B0520193206900S11657121EA0048800504000000000000
B0520233206848S11657107EA0049000504000000000000
B0520273206827S11657048EA0048900505000000000000
B0520313206878S11657010EA0049000506000000000000
B0520353206935S11657049EA0049500513000000000000
B0520393206947S11657124EA0050100516000000000000
B0520433206907S11657172EA0050100515000000000000
B0520473206864S11657147EA0050000514000000000000
B0520513206878S11657091EA0050200520000000000000
B0520553206933S11657096EA0050900523000000000000
B0520593206959S11657160EA0051000523000000000000
B0521033206935S11657224EA0050800524000000000000
B0521073206887S11657237EA0051100525000000000000
B0521113206861S11657192EA0051000526000000000000
B0521153206896S11657150EA0051200525000000000000
B0521193206948S11657182EA0051600531000000000000
B0521233206942S11657251EA0051700531000000000000
B0521273206891S11657270EA0052100536000000000000
B0521313206866S11657228EA0052700541000000000000
B0521353206894S11657182EA0052800543000000000000
B0521393206951S11657195EA0052900543000000000000
B0521433206975S11657263EA0052800543000000000000
B0521473206944S11657324EA0053100547000000000000
B0521513206895S11657316EA0053200547000000000000
B0521553206891S11657260EA0053400550000000000000
B0521593206935S11657229EA0053900554000000000000
B0522033206992S11657252EA0054000553000000000000
B0522073207014S11657325EA0053300547000000000000
B0522113206978S11657390EA0053600552000000000000
B0522153206922S11657400EA0053500550000000000000
B0522193206896S11657347EA0053400549000000000000
B0522233206912S11657282EA0052800540000000000000
B0522273206914S11657209EA0052300542000000000000
B0522313206864S11657194EA0053500552000000000000
B0522353206839S11657255EA0053700548000000000000
B0522393206882S11657313EA0052300534000000000000
B0522433206944S11657299EA0051400531000000000000
B0522473206972S11657239EA0051800538000000000000
B0522513206931S11657209EA0053000547000000000000
B0522553206888S11657254EA0053200546000000000000
B0522593206895S11657328EA0052600540000000000000
B0523033206957S11657352EA0051900533000000000000
B0523073206996S11657300EA0052000539000000000000
B0523113206962S11657255EA0052900549000000000000
B0523153206912S11657285EA0053500552000000000000
B0523193206921S11657360EA0053400554000000000000
B0523233206979S11657381EA0053800556000000000000
B0523273207016S11657333EA0053900557000000000000
B0523313206985S11657286EA0053800558000000000000
B0523353206935S11657321EA0054700568000000000000
B0523393206943S11657393EA0055400570000000000000
B0523433207001S11657412EA0054900566000000000000
B0523473207037S11657361EA0055400573000000000000
B0523513207016S11657304EA0056000579000000000000
B0523553206964S11657306EA0056500582000000000000
B0523593206943S11657377EA0056500581000000000000
B0524033206983S11657439EA0056300582000000000000
B0524073207040S11657429EA0057300592000000000000
B0524113207060S11657372EA0057600596000000000000
B0524153207014S11657335EA0057700596000000000000
B0524193206974S11657385EA0058600607000000000000
B0524233207009S11657443EA0059300609000000000000
B0524273207063S11657419EA0059500612000000000000
B0524313207043S11657364EA0060400622000000000000
B0524353206988S11657371EA0061000625000000000000
B0524393206974S11657441EA0061700631000000000000
B0524433207020S11657493EA0061700629000000000000
B0524473207077S11657471EA0061800634000000000000
B0524513207077S11657411EA0062700643000000000000
B0524553207025S11657403EA0062900642000000000000
B0524593207001S11657475EA0063100644000000000000
B0525033207047S11657530EA0063500651000000000000
B0525073207111S11657520EA0064200657000000000000
B0525113207128S11657460EA0064800667000000000000
B0525153207086S11657425EA0065600669000000000000
B0525193207040S11657469EA0065700674000000000000
B0525233207065S11657533EA0066600682000000000000
B0525273207124S11657528EA0067400688000000000000
B0525313207141S11657469EA0067900692000000000000
B0525353207099S11657428EA0067800689000000000000
B0525393207051S11657469EA0068400700000000000000
B0525433207065S11657542EA0069800712000000000000
B0525473207121S11657559EA0070400716000000000000
B0525513207154S11657508EA0070900724000000000000
B0525553207126S11657459EA0071300729000000000000
B0525593207076S11657469EA0071800734000000000000
B0526033207061S11657538EA0072600741000000000000
B0526073207112S11657581EA0073200747000000000000
B0526113207163S11657546EA0073900755000000000000
B0526153207156S11657485EA0074200758000000000000
B0526193207105S11657473EA0074700764000000000000
B0526233207082S11657536EA0075600772000000000000
B0526273207122S11657593EA0076500780000000000000
B0526313207180S11657582EA0077300787000000000000
B0526353207202S11657525EA0077600790000000000000
B0526393207173S11657476EA0077500788000000000000
B0526433207120S11657480EA0078100795000000000000
B0526473207094S11657541EA0078600799000000000000
B0526513207121S11657606EA0079200804000000000000
B0526553207182S11657606EA0079900812000000000000
B0526593207200S11657549EA0080900821000000000000
B0527033207164S11657515EA0081900831000000000000
B0527073207128S11657555EA0082700835000000000000
B0527113207138S11657627EA0082900838000000000000
B0527153207196S11657659EA0083500848000000000000
B0527193207242S11657621EA0084800860000000000000
B0527233207247S11657564EA0084900856000000000000
B0527273207207S11657524EA0084900857000000000000
B0527313207152S11657520EA0085100855000000000000
B0527353207115S11657575EA0084600852000000000000
B0527393207109S11657651EA0084600852000000000000
B0527433207124S11657728EA0085000861000000000000
B0527473207177S11657770EA0085500862000000000000
B0527513207216S11657728EA0086000873000000000000
B0527553207182S11657684EA0087000884000000000000
B0527593207146S11657733EA0088000891000000000000
B0528033207180S11657801EA0089100901000000000000
B0528073207242S11657796EA0089200903000000000000
B0528113207258S11657729EA0090200916000000000000
B0528153207215S11657688EA0091200924000000000000
B0528193207161S11657724EA0092100934000000000000
B0528233207151S11657803EA0093100940000000000000
B0528273207196S11657870EA0093300941000000000000
B0528313207258S11657855EA0093800950000000000000
B0528353207245S11657797EA0095100963000000000000
B0528393207195S11657819EA0096100972000000000000
B0528433207199S11657892EA0097200979000000000000
B0528473207254S11657931EA0097500985000000000000
B0528513207306S11657904EA0098800999000000000000
B0528553207313S11657842EA0099301002000000000000
B0528593207272S11657807EA0100001010000000000000
B0529033207226S11657846EA0101001017000000000000
B0529073207235S11657919EA0101601025000000000000
B0529113207289S11657953EA0102601037000000000000
B0529153207338S11657923EA0103601043000000000000
B0529193207343S11657858EA0103301041000000000000
B0529233207298S11657824EA0104101052000000000000
B0529273207243S11657853EA0105101058000000000000
B0529313207220S11657924EA0105801065000000000000
B0529353207255S11657988EA0106001068000000000000
B0529393207315S11657987EA0107201083000000000000
B0529433207326S11657933EA0108201090000000000000
B0529473207282S11657904EA0108301091000000000000
B0529513207229S11657943EA0108501089000000000000
B0529553207221S11658022EA0108501094000000000000
B0529593207265S11658080EA0109501103000000000000
B0530033207325S11658084EA0110501114000000000000
B0530073207365S11658037EA0111201121000000000000
B0530113207352S11657978EA0111601126000000000000
B0530153207299S11657963EA0112201131000000000000
B0530193207250S11658009EA0112401131000000000000
B0530233207234S11658087EA0112901135000000000000
B0530273207251S11658162EA0113501140000000000000
B0530313207308S11658203EA0112901133000000000000
B0530353207363S11658169EA0113201142000000000000
B0530393207356S11658108EA0114101152000000000000
B0530433207306S11658092EA0115101160000000000000
B0530473207260S11658143EA0115701163000000000000
B0530513207254S11658225EA0116001163000000000000
B0530553207293S11658292EA0115901164000000000000
B0530593207356S11658309EA0115901163000000000000
B0531033207404S11658268EA0116401171000000000000
B0531073207419S11658203EA0116901177000000000000
B0531113207385S11658148EA0117801189000000000000
B0531153207332S11658131EA0118801192000000000000
B0531193207277S11658173EA0118401186000000000000
B0531233207258S11658256EA0118301187000000000000
B0531273207287S11658333EA0119201198000000000000
B0531313207349S11658360EA0119801203000000000000
B0531353207398S11658327EA0120401211000000000000
B0531393207398S11658269EA0120801215000000000000
B0531433207345S11658244EA0121101217000000000000
B0531473207291S11658294EA0121101218000000000000
B0531513207281S11658377EA0121501224000000000000
B0531553207320S11658444EA0122301230000000000000
B0531593207380S11658459EA0122801235000000000000
B0532033207420S11658417EA0123201240000000000000
B0532073207416S11658356EA0123201241000000000000
B0532113207363S11658338EA0123901249000000000000
B0532153207317S11658390EA0124601250000000000000
B0532193207319S11658474EA0124301246000000000000
B0532233207372S11658530EA0124201247000000000000
B0532273207434S11658520EA0124701252000000000000
B0532313207463S11658464EA0125401262000000000000
B0532353207449S11658405EA0126301271000000000000
B0532393207397S11658381EA0126701271000000000000
B0532433207339S11658422EA0126701268000000000000
B0532473207326S11658507EA0126301266000000000000
B0532513207359S11658587EA0126001264000000000000
B0532553207416S11658641EA0126601270000000000000
B0532593207484S11658645EA0126801272000000000000
B0533033207521S11658596EA0127401284000000000000
B0533073207515S11658534EA0127801273000000000000
B0533113207472S11658470EA0125801256000000000000
B0533153207411S11658409EA0124301237000000000000
B0533193207345S11658346EA0122201218000000000000
B0533233207274S11658281EA0120501202000000000000
B0533273207206S11658210EA0118701182000000000000
B0533313207139S11658134EA0116601163000000000000
B0533353207074S11658052EA0115001150000000000000
B0533393207007S11657971EA0114201135000000000000
B0533433206926S11657904EA0112101109000000000000
B0533473206823S11657875EA0109601091000000000000
B0533513206717S11657913EA0108301081000000000000
B0533553206628S11658006EA0106301060000000000000
B0533593206554S11658125EA0103901037000000000000
B0534033206494S11658258EA0102601031000000000000
B0534073206467S11658396EA0104401053000000000000
B0534113206488S11658515EA0107601084000000000000
B0534153206561S11658574EA0108801092000000030000
B0534193206621S11658526EA0107101056000000015000
B0534233206608S11658429EA0101501009000000015000
B0534273206567S11658318EA0098600980000000000000
B0534313206533S11658204EA0097200972000000000000
B0534353206504S11658095EA0097600985000000000000
B0534393206441S11658037EA0101301019000000000000
B0534433206367S11658061EA0101601006000000000000
B0534473206286S11658093EA0099000979000000000000
B0534513206195S11658075EA0095200938000000000000
B0534553206103S11658035EA0093500934000000000000
B0534593206064S11657969EA0097100988000000000000
B0535033206093S11657926EA0100801011000000000000
B0535073206151S11657933EA0099500987000000000000
B0535113206219S11657974EA0097100965000000000000
B0535153206293S11658023EA0095300948000000000000
B0535193206374S11658054EA0094900950000000000000
B0535233206450S11658039EA0095300954000000000000
B0535273206510S11657991EA0095300953000000000000
B0535313206559S11657931EA0094800945000000000000
B0535353206605S11657863EA0093700935000000000000
B0535393206650S11657798EA0092800929000000000000
B0535433206696S11657737EA0092600931000000000000
B0535473206739S11657679EA0092600926000000000000
B0535513206784S11657621EA0091600917000000000000
B0535553206830S11657564EA0090800911000000000000
B0535593206877S11657507EA0090000903000000000000
B0536033206930S11657456EA0089300897000000000000
B0536073206988S11657412EA0089100895000000000000
B0536113207047S11657373EA0088900892000000000000
B0536153207104S11657334EA0088500890000000000000
B0536193207160S11657296EA0088400888000000000000
B0536233207215S11657257EA0087900886000000000000
B0536273207268S11657220EA0087600884000000000000
B0536313207323S11657187EA0087300879000000000000
B0536353207381S11657159EA0086600874000000000000
B0536393207440S11657129EA0086300870000000000000
B0536433207497S11657100EA0086200870000000000000
B0536473207550S11657069EA0086200870000000000000
B0536513207598S11657033EA0085700861000000000000
B0536553207646S11656984EA0084400849000000000000
B0536593207696S11656934EA0083500838000000000000
B0537033207742S11656879EA0083000835000000000000
B0537073207763S11656818EA0083300841000000000000
B0537113207752S11656762EA0083300838000000000000
B0537153207722S11656711EA0082000824000000000000
B0537193207688S11656657EA0081300816000000000000
B0537233207654S11656601EA0080800810000000000000
B0537273207622S11656542EA0080100803000000000000
B0537313207589S11656481EA0079600800000000000000
B0537353207557S11656427EA0079600799000000000000
B0537393207520S11656376EA0079200795000000000000
B0537433207486S11656324EA0078900792000000000000
B0537473207449S11656272EA0078400786000000000000
B0537513207402S11656232EA0078100781000000000000
B0537553207346S11656212EA0077700777000000000000
B0537593207285S11656221EA0077300774000000000000
B0538033207234S11656266EA0077100772000000000000
B0538073207200S11656334EA0076400764000000000000
B0538113207180S11656414EA0075300754000000000000
B0538153207157S11656497EA0074400745000000000000
B0538193207135S11656583EA0073600739000000000000
B0538233207118S11656669EA0073100738000000000000
B0538273207107S11656753EA0073300742000000000000
B0538313207107S11656836EA0073500739000000000000
B0538353207122S11656918EA0072900737000000000000
B0538393207167S11656982EA0073500744000000000000
B0538433207228S11656969EA0074700753000000000000
B0538473207242S11656910EA0074200744000000000000
B0538513207200S11656875EA0073000732000000000000
B0538553207147S11656896EA0072100724000000000000
B0538593207120S11656962EA0071700720000000000000
B0539033207122S11657043EA0071800722000000000000
B0539073207152S11657114EA0072000727000000000000
B0539113207211S11657117EA0073000736000000000000
B0539153207220S11657061EA0073200737000000000000
B0539193207170S11657052EA0073400740000000000000
B0539233207142S11657111EA0074100748000000000000
B0539273207173S11657169EA0075100755000000000000
B0539313207230S11657160EA0074300744000000000000
B0539353207242S11657100EA0074300749000000000000
B0539393207195S11657073EA0074500750000000000000
B0539433207151S11657116EA0075200758000000000000
B0539473207161S11657186EA0075700761000000000000
B0539513207217S11657211EA0075600759000000000000
B0539553207259S11657165EA0075200755000000000000
B0539593207252S11657100EA0075200757000000000000
B0540033207209S11657064EA0076200770000000000000
B0540073207160S11657082EA0077100776000000000000
B0540113207143S11657150EA0077100773000000000000
B0540153207185S11657203EA0077200779000000000000
B0540193207234S11657179EA0078500790000000000000
B0540233207234S11657122EA0079300795000000000000
B0540273207190S11657099EA0079800800000000000000
B0540313207144S11657129EA0079500793000000000000
B0540353207131S11657199EA0078500783000000000000
B0540393207172S11657260EA0077600778000000000000
B0540433207235S11657282EA0077800780000000000000
B0540473207285S11657238EA0077800782000000000000
B0540513207276S11657174EA0078300789000000000000
B0540553207226S11657198EA0079200798000000000000
B0540593207243S11657267EA0079600802000000000000
B0541033207299S11657261EA0080200805000000000000
B0541073207310S11657198EA0080300808000000000000
B0541113207260S11657179EA0081500819000000000000
B0541153207222S11657229EA0081500815000000000000
B0541193207239S11657300EA0081600819000000000000
B0541233207297S11657320EA0082300828000000000000
B0541273207343S11657282EA0082700828000000000000
B0541313207341S11657220EA0083000833000000000000
B0541353207299S11657192EA0083800841000000000000
B0541393207259S11657230EA0082900825000000000000
B0541433207271S11657304EA0082200826000000000000
B0541473207325S11657341EA0082500830000000000000
B0541513207389S11657328EA0082700830000000000000
B0541553207429S11657276EA0083100837000000000000
B0541593207407S11657225EA0083800843000000000000
B0542033207358S11657217EA0083200829000000000000
B0542073207299S11657255EA0080600802000000000000
B0542113207245S11657325EA0078300782000000000000
B0542153207196S11657410EA0077400777000000000000
B0542193207157S11657501EA0077100772000000000000
B0542233207120S11657593EA0076200763000000000000
B0542273207072S11657679EA0074900746000000000000
B0542313207009S11657761EA0072700728000000000000
B0542353206943S11657832EA0072600732000000000000
B0542393206882S11657897EA0073900752000000000000
B0542433206832S11657958EA0076300774000000000000
B0542473206797S11658023EA0078100788000000000000
B0542513206804S11658093EA0079000798000000000000
B0542553206851S11658131EA0079300801000000000000
B0542593206907S11658121EA0079200795000000000000
B0543033206940S11658070EA0078500789000000000000
B0543073206951S11658010EA0078300788000000000000
B0543113206948S11657949EA0078500791000000000000
B0543153206926S11657894EA0078900794000000000000
B0543193206884S11657858EA0079200796000000000000
B0543233206831S11657852EA0079300793000000000000
B0543273206782S11657884EA0078500785000000000000
B0543313206754S11657952EA0077800779000000000000
B0543353206754S11658034EA0077300776000000000000
B0543393206770S11658114EA0077500778000000000000
B0543433206809S11658179EA0077900783000000000000
B0543473206866S11658161EA0078100784000000000000
B0543513206852S11658106EA0078300785000000000000
B0543553206804S11658104EA0079000791000000000000
B0543593206775S11658160EA0079100792000000000000
B0544033206804S11658218EA0079700803000000000000
B0544073206860S11658216EA0080100805000000000000
B0544113206886S11658164EA0080100804000000000000
B0544153206861S11658117EA0080200804000000000000
B0544193206810S11658109EA0079800799000000000000
B0544233206760S11658144EA0079500794000000000000
B0544273206718S11658205EA0079000793000000000000
B0544313206734S11658277EA0079900802000000000000
B0544353206799S11658296EA0079300792000000000000
B0544393206830S11658242EA0079500801000000000000
B0544433206783S11658219EA0080700813000000000000
B0544473206744S11658266EA0081000807000000000000
B0544513206758S11658343EA0080100804000000000000
B0544553206819S11658377EA0080300807000000000000
B0544593206884S11658360EA0080700812000000000000
B0545033206884S11658303EA0081500821000000000000
B0545073206832S11658316EA0082700832000000000000
B0545113206819S11658383EA0083300836000000000000
B0545153206865S11658435EA0083000832000000000000
B0545193206922S11658412EA0082700830000000000000
B0545233206944S11658349EA0082800832000000000000
B0545273206907S11658300EA0083300840000000000000
B0545313206856S11658333EA0084300844000000000000
B0545353206864S11658407EA0084500849000000000000
B0545393206921S11658417EA0085100854000000000000
B0545433206938S11658360EA0085100852000000000000
B0545473206891S11658326EA0085400857000000000000
B0545513206842S11658364EA0086100862000000000000
B0545553206840S11658439EA0086000860000000000000
B0545593206895S11658483EA0085800860000000000000
B0546033206948S11658453EA0086600869000000000000
B0546073206972S11658390EA0086600869000000000000
B0546113206985S11658318EA0085800859000000000000
B0546153206994S11658240EA0085000845000000000000
B0546193207007S11658158EA0083700831000000000000
B0546233207027S11658075EA0082400823000000000000
B0546273207052S11657995EA0082000822000000000000
B0546313207074S11657919EA0082000820000000000000
B0546353207099S11657842EA0081400811000000000000
B0546393207126S11657764EA0080400804000000000000
B0546433207151S11657688EA0080400805000000000000
B0546473207174S11657611EA0080400803000000000000
B0546513207198S11657538EA0080400805000000000000
B0546553207221S11657468EA0080400803000000000000
B0546593207243S11657398EA0080500806000000000000
B0547033207259S11657328EA0080900808000000000000
B0547073207271S11657260EA0080600803000000000000
B0547113207269S11657191EA0080100799000000000000
B0547153207261S11657125EA0079800797000000000000
B0547193207250S11657059EA0079000788000000000000
B0547233207233S11656992EA0079100793000000000000
B0547273207213S11656931EA0079200793000000000000
B0547313207187S11656877EA0079700800000000000000
B0547353207139S11656883EA0081000812000000000000
B0547393207131S11656956EA0080800804000000000000
B0547433207189S11657003EA0080100800000000000000
B0547473207252S11656978EA0080400802000000000000
B0547513207280S11656916EA0079700795000000000000
B0547553207263S11656847EA0079300794000000000000
B0547593207213S11656817EA0080100802000000000000
B0548033207169S11656865EA0080500804000000000000
B0548073207177S11656943EA0079800792000000000000
B0548113207238S11656973EA0078300778000000000000
B0548153207289S11656929EA0077300774000000000000
B0548193207315S11656860EA0077100773000000000000
B0548233207324S11656784EA0076800767000000000000
B0548273207319S11656706EA0075900764000000000000
B0548313207299S11656636EA0076200763000000000000
B0548353207278S11656572EA0075700759000000000000
B0548393207248S11656514EA0074900749000000000000
B0548433207219S11656453EA0073700738000000000000
B0548473207185S11656393EA0073100731000000000000
B0548513207151S11656340EA0072900729000000000000
B0548553207118S11656289EA0072400722000000000000
B0548593207089S11656234EA0071500710000000000000
B0549033207059S11656177EA0070500703000000000000
B0549073207026S11656121EA0069800700000000000000
B0549113206991S11656068EA0069300692000000000000
B0549153206959S11656011EA0068300683000000000000
B0549193206934S11655947EA0067600675000000000000
B0549233206929S11655876EA0067400675000000000000
B0549273206960S11655809EA0067300676000000000000
B0549313207020S11655768EA0067000672000000000000
B0549353207096S11655759EA0066300663000000000000
B0549393207173S11655769EA0065800661000000000000
B0549433207247S11655785EA0066000661000000000000
B0549473207319S11655799EA0065100650000000000000
B0549513207394S11655816EA0064600646000000000000
B0549553207466S11655816EA0064600647000000000000
B0549593207534S11655808EA0064000636000000000000
B0550033207610S11655818EA0063000629000000000000
B0550073207680S11655852EA0062700629000000000000
B0550113207744S11655903EA0062900631000000000000
B0550153207810S11655946EA0062300624000000000000
B0550193207876S11655989EA0061700619000000000000
B0550233207945S11656004EA0062200624000000000000
B0550273208012S11655991EA0062300624000000000000
B0550313208067S11655954EA0062000620000000000000
B0550353208112S11655899EA0061500615000000000000
B0550393208145S11655838EA0061100614000000000000
B0550433208165S11655770EA0061700618000000000000
B0550473208131S11655726EA0062200624000000000000
B0550513208086S11655761EA0062200622000000000000
B0550553208109S11655834EA0061800616000000000000
B0550593208170S11655833EA0062100623000000000000
B0551033208196S11655778EA0062700628000000000000
B0551073208162S11655736EA0062800628000000000000
B0551113208114S11655764EA0062600624000000000000
B0551153208110S11655840EA0062200623000000000000
B0551193208164S11655892EA0062000622000000000000
B0551233208229S11655882EA0062200622000000000000
B0551273208260S11655826EA0062500630000000000000
B0551313208220S11655791EA0063700641000000000000
B0551353208179S11655834EA0063800638000000000000
B0551393208201S11655905EA0063100630000000000000
B0551433208273S11655920EA0062900631000000000000
B0551473208296S11655865EA0063800646000000000000
B0551513208247S11655864EA0065400657000000000000
B0551553208230S11655933EA0065300654000000000000
B0551593208282S11655987EA0065000651000000000000
B0552033208340S11655956EA0065600661000000000000
B0552073208316S11655904EA0066600674000000000000
B0552113208273S11655948EA0068300687000000000000
B0552153208300S11656019EA0069100692000000000000
B0552193208364S11656025EA0069400701000000000000
B0552233208392S11655965EA0070100707000000000000
B0552273208353S11655921EA0070600713000000000000
B0552313208309S11655968EA0071800725000000000000
B0552353208334S11656039EA0073200736000000000000
B0552393208396S11656039EA0074200748000000000000
B0552433208417S11655981EA0075300758000000000000
B0552473208379S11655941EA0076200765000000000000
B0552513208338S11655983EA0077500780000000000000
B0552553208356S11656054EA0078000783000000000000
B0552593208420S11656065EA0078700791000000000000
B0553033208447S11656004EA0079100795000000000000
B0553073208404S11655961EA0079600805000000000000
B0553113208356S11656000EA0082000824000000000000
B0553153208360S11656072EA0082400827000000000000
B0553193208412S11656113EA0083000837000000000000
B0553233208464S11656093EA0084500853000000000000
B0553273208467S11656038EA0085400858000000000000
B0553313208418S11656030EA0086000867000000000000
B0553353208404S11656093EA0087200879000000000000
B0553393208454S11656130EA0088300886000000000000
B0553433208499S11656097EA0088700891000000000000
B0553473208489S11656041EA0090100906000000000000
B0553513208443S11656032EA0091400917000000000000
B0553553208413S11656084EA0092100922000000000000
B0553593208431S11656151EA0092500927000000000000
B0554033208489S11656175EA0093300936000000000000
B0554073208532S11656134EA0094100946000000000000
B0554113208521S11656080EA0095200961000000000000
B0554153208477S11656077EA0096700971000000000000
B0554193208455S11656136EA0097100974000000000000
B0554233208491S11656194EA0097800981000000000000
B0554273208547S11656177EA0098800991000000000000
B0554313208551S11656119EA0100001004000000000000
B0554353208507S11656104EA0101501018000000000000
B0554393208477S11656156EA0102001020000000000000
B0554433208507S11656224EA0101901021000000000000
B0554473208571S11656227EA0103201036000000000000
B0554513208595S11656173EA0104501051000000000000
B0554553208564S11656134EA0105701060000000000000
B0554593208516S11656163EA0105901060000000000000
B0555033208512S11656237EA0106501069000000000000
B0555073208561S11656285EA0107301076000000000000
B0555113208619S11656264EA0108301086000000000000
B0555153208629S11656204EA0108801091000000000000
B0555193208587S11656173EA0109501098000000000000
B0555233208541S11656210EA0109901101000000000000
B0555273208533S11656284EA0110401106000000000000
B0555313208578S11656338EA0111401117000000000000
B0555353208634S11656325EA0112301130000000000000
B0555393208646S11656273EA0113501141000000000000
B0555433208608S11656243EA0113701141000000000000
B0555473208561S11656266EA0114301145000000000000
B0555513208545S11656333EA0114001142000000000000
B0555553208580S11656397EA0114401149000000000000
B0555593208641S11656410EA0115401159000000000000
B0556033208677S11656371EA0116901174000000000000
B0556073208664S11656321EA0117401175000000000000
B0556113208616S11656308EA0117101174000000000000
B0556153208571S11656345EA0117501176000000000000
B0556193208558S11656414EA0117501176000000000000
B0556233208594S11656474EA0117801184000000000000
B0556273208647S11656468EA0118901193000000000000
B0556313208652S11656415EA0119401196000000000000
B0556353208604S11656392EA0119501196000000000000
B0556393208552S11656423EA0119301192000000000000
B0556433208532S11656492EA0119901204000000000000
B0556473208547S11656557EA0120901207000000000000
B0556513208595S11656601EA0120201203000000000000
B0556553208655S11656602EA0121001215000000000000
B0556593208694S11656565EA0122201226000000000000
B0557033208695S11656510EA0123001235000000000000
B0557073208660S11656475EA0123401234000000000000
B0557113208607S11656489EA0122701223000000000000
B0557153208563S11656553EA0121001206000000000000
B0557193208551S11656641EA0120301202000000000000
B0557233208571S11656731EA0120101203000000000000
B0557273208615S11656805EA0120801210000000000000
B0557313208682S11656822EA0121601221000000000000
B0557353208716S11656778EA0122801233000000000000
B0557393208690S11656734EA0123301234000000000000
B0557433208634S11656754EA0123601241000000000000
B0557473208613S11656831EA0124801249000000000000
B0557513208649S11656903EA0125201256000000000000
B0557553208710S11656921EA0125701258000000000000
B0557593208755S11656882EA0125501256000000000000
B0558033208749S11656828EA0125801260000000000000
B0558073208699S11656821EA0125801261000000000000
B0558113208662S11656883EA0126701272000000000000
B0558153208678S11656956EA0128001285000000000000
B0558193208737S11656974EA0127701278000000000000
B0558233208775S11656926EA0127301274000000000000
B0558273208755S11656871EA0127201276000000000000
B0558313208702S11656848EA0127701282000000000000
B0558353208647S11656884EA0128301286000000000000
B0558393208636S11656968EA0128001280000000000000
B0558433208675S11657044EA0127801281000000000000
B0558473208742S11657052EA0128101286000000000000
B0558513208776S11657001EA0128901295000000000000
B0558553208766S11656935EA0128401281000000000000
B0558593208725S11656865EA0127001273000000000000
B0559033208676S11656797EA0126801269000000000000
B0559073208623S11656731EA0125201251000000000000
B0559113208564S11656662EA0124301243000000000000
B0559153208509S11656598EA0124401251000000000000
B0559193208461S11656553EA0126301268000000000000
B0559233208412S11656519EA0126401260000000000000
B0559273208359S11656488EA0125401248000000000000
B0559313208304S11656455EA0124801243000000000000
B0559353208249S11656424EA0124601244000000000000
B0559393208195S11656396EA0124501243000000000000
B0559433208134S11656370EA0123801234000000000000
B0559473208073S11656351EA0123501236000000000000
B0559513208014S11656337EA0123701237000000000000
B0559553207958S11656323EA0123501231000000000000
B0559593207900S11656321EA0123001224000000000000
B0600033207836S11656332EA0121901209000000000000
B0600073207768S11656354EA0120701200000000000000
B0600113207700S11656380EA0120301199000000000000
B0600153207636S11656409EA0120601203000000000000
B0600193207580S11656453EA0120701202000000000000
B0600233207532S11656514EA0120201197000000000000
B0600273207493S11656584EA0119601189000000000000
B0600313207458S11656665EA0118701182000000000000
B0600353207436S11656750EA0118301182000000000000
B0600393207429S11656840EA0118101178000000000000
B0600433207447S11656929EA0117601173000000000000
B0600473207489S11657005EA0117201171000000000000
B0600513207546S11657062EA0116701167000000000000
B0600553207612S11657101EA0116301162000000000000
B0600593207679S11657134EA0115801157000000000000
B0601033207746S11657163EA0115401150000000000000
B0601073207817S11657191EA0114501141000000000000
B0601113207887S11657217EA0113901138000000000000
B0601153207954S11657242EA0113501133000000000000
B0601193208023S11657263EA0112601124000000000000
B0601233208092S11657278EA0111601114000000000000
B0601273208161S11657293EA0110801105000000000000
B0601313208231S11657308EA0109801098000000000000
B0601353208303S11657319EA0109401091000000000000
B0601393208374S11657328EA0108901091000000000000
B0601433208442S11657338EA0109301095000000000000
B0601473208508S11657351EA0109501097000000000000
B0601513208574S11657364EA0109601096000000000000
B0601553208643S11657378EA0109501093000000000000
B0601593208715S11657389EA0108701082000000000000
B0602033208789S11657398EA0107901079000000000000
B0602073208862S11657404EA0108401085000000000000
B0602113208922S11657377EA0108801088000000000000
B0602153208954S11657320EA0108801086000000000000
B0602193208964S11657251EA0108801089000000000000
B0602233208945S11657194EA0109901104000000000000
B0602273208893S11657191EA0110701107000000000000
B0602313208851S11657247EA0110101100000000000000
B0602353208849S11657330EA0109501096000000000000
B0602393208889S11657400EA0109401095000000000000
B0602433208951S11657434EA0109201095000000000000
B0602473209016S11657428EA0109101091000000000000
B0602513209074S11657385EA0108801089000000000000
B0602553209110S11657321EA0108801091000000000000
B0602593209100S11657255EA0109401097000000000000
B0603033209048S11657234EA0109901101000000000000
B0603073209000S11657280EA0110201106000000000000
B0603113208997S11657363EA0109801100000000000000
B0603153209046S11657424EA0109701104000000000000
B0603193209113S11657434EA0110101108000000000000
B0603233209166S11657398EA0110501110000000000000
B0603273209189S11657338EA0110401108000000000000
B0603313209179S11657274EA0110101104000000000000
B0603353209141S11657228EA0110101106000000000000
B0603393209088S11657234EA0110301114000000000000
B0603433209062S11657300EA0110701114000000000000
B0603473209094S11657373EA0110001109000000000000
B0603513209152S11657424EA0110201112000000000000
B0603553209218S11657442EA0111001119000000000000
B0603593209273S11657412EA0111301118000000000000
B0604033209296S11657352EA0111001115000000000000
B0604073209283S11657293EA0110601110000000000000
B0604113209249S11657244EA0110101106000000000000
B0604153209206S11657202EA0109801103000000000000
B0604193209157S11657166EA0109701102000000000000
B0604233209106S11657133EA0109301097000000000000
B0604273209054S11657099EA0108901093000000000000
B0604313208998S11657070EA0108801092000000000000
B0604353208944S11657042EA0109201096000000000000
B0604393208892S11657012EA0109101093000000000000
B0604433208837S11656983EA0108801091000000000000
B0604473208781S11656951EA0108301083000000000000
B0604513208723S11656918EA0107001070000000000000
B0604553208660S11656887EA0106501069000000000000
B0604593208603S11656861EA0107301076000000000000
B0605033208547S11656836EA0107601079000000000000
B0605073208494S11656813EA0107501076000000000000
B0605113208446S11656788EA0107301076000000000000
B0605153208400S11656763EA0107701080000000000000
B0605193208356S11656736EA0107801079000000000000
B0605233208313S11656704EA0107901080000000000000
B0605273208269S11656667EA0107801079000000000000
B0605313208222S11656632EA0108101081000000000000
B0605353208175S11656596EA0107801078000000000000
B0605393208127S11656555EA0107301072000000000000
B0605433208077S11656513EA0107101071000000000000
B0605473208018S11656505EA0107501076000000000000
B0605513207976S11656561EA0107501076000000000000
B0605553207976S11656643EA0107301072000000000000
B0605593208023S11656706EA0106601064000000000000
B0606033208091S11656730EA0106501067000000000000
B0606073208155S11656714EA0106501069000000000000
B0606113208192S11656663EA0107001073000000000000
B0606153208178S11656609EA0107901080000000000000
B0606193208129S11656591EA0107701075000000000000
B0606233208079S11656626EA0107101072000000000000
B0606273208062S11656698EA0106901067000000000000
B0606313208087S11656773EA0106501067000000000000
B0606353208139S11656814EA0106901067000000000000
B0606393208200S11656822EA0106401061000000000000
B0606433208256S11656796EA0106201062000000000000
B0606473208294S11656748EA0106601066000000000000
B0606513208309S11656688EA0106701065000000000000
B0606553208296S11656624EA0106401062000000000000
B0606593208260S11656575EA0106401063000000000000
B0607033208210S11656549EA0106401063000000000000
B0607073208153S11656554EA0106201060000000000000
B0607113208100S11656591EA0105701054000000000000
B0607153208064S11656658EA0105401052000000000000
B0607193208058S11656740EA0105401052000000000000
B0607233208083S11656813EA0105001049000000000000
B0607273208135S11656867EA0104201040000000000000
B0607313208200S11656883EA0103501036000000000000
B0607353208257S11656857EA0103701039000000000000
B0607393208292S11656805EA0104101042000000000000
B0607433208304S11656743EA0104001038000000000000
B0607473208291S11656676EA0103301033000000000000
B0607513208261S11656614EA0102601025000000000000
B0607553208222S11656555EA0102001023000000000000
B0607593208178S11656502EA0102401027000000000000
B0608033208132S11656455EA0102501028000000000000
B0608073208084S11656410EA0102501029000000000000
B0608113208038S11656364EA0102601024000000000000
B0608153207988S11656320EA0101501010000000000000
B0608193207939S11656273EA0100000997000000000000
B0608233207893S11656224EA0098900989000000000000
B0608273207850S11656176EA0099000993000000000000
B0608313207805S11656136EA0099100990000000000000
B0608353207761S11656097EA0098700986000000000000
B0608393207715S11656059EA0098200983000000000000
B0608433207676S11656015EA0097700973000000000000
B0608473207636S11655968EA0097100967000000000000
B0608513207589S11655925EA0096300959000000000000
B0608553207534S11655891EA0095700953000000000000
B0608593207479S11655863EA0095200949000000000000
B0609033207423S11655838EA0094800942000000000000
B0609073207365S11655816EA0094100938000000000000
B0609113207307S11655798EA0093800934000000000000
B0609153207248S11655782EA0093500934000000000000
B0609193207190S11655769EA0093500929000000000000
B0609233207130S11655753EA0092900926000000000000
B0609273207069S11655743EA0092700924000000000000
B0609313207003S11655738EA0092400921000000000000
B0609353206936S11655742EA0092600924000000000000
B0609393206887S11655790EA0093400935000000000000
B0609433206879S11655866EA0093800937000000000000
B0609473206922S11655937EA0093000926000000000000
B0609513206991S11655969EA0092000918000000000000
B0609553207063S11655960EA0091200911000000000000
B0609593207121S11655921EA0091200914000000000000
B0610033207152S11655860EA0091400913000000000000
B0610073207148S11655791EA0091000908000000000000
B0610113207120S11655729EA0090700909000000000000
B0610153207081S11655671EA0090600907000000000000
B0610193207037S11655617EA0090200902000000000000
B0610233206988S11655567EA0089600896000000000000
B0610273206938S11655522EA0089100890000000000000
B0610313206883S11655483EA0088700887000000000000
B0610353206831S11655440EA0088200880000000000000
B0610393206775S11655397EA0087400875000000000000
B0610433206714S11655367EA0087100871000000000000
B0610473206649S11655349EA0086600865000000000000
B0610513206580S11655337EA0085700858000000000000
B0610553206513S11655328EA0085600855000000000000
B0610593206446S11655319EA0085500855000000000000
B0611033206385S11655306EA0085600858000000000000
B0611073206325S11655296EA0085500855000000000000
B0611113206266S11655297EA0085500853000000000000
B0611153206205S11655309EA0085100848000000000000
B0611193206145S11655327EA0085000848000000000000
B0611233206086S11655344EA0084800846000000000000
B0611273206025S11655357EA0084400840000000000000
B0611313205971S11655396EA0083500832000000000000
B0611353205942S11655469EA0083300830000000000000
B0611393205946S11655549EA0083000828000000000000
B0611433205974S11655622EA0082800828000000000000
B0611473206019S11655686EA0082600825000000000000
B0611513206071S11655744EA0082000818000000000000
B0611553206127S11655799EA0081500814000000000000
B0611593206186S11655852EA0080600804000000000000
B0612033206249S11655903EA0080000800000000000000
B0612073206310S11655948EA0080000801000000000000
B0612113206375S11655982EA0080000795000000000000
B0612153206442S11655977EA0079000784000000000000
B0612193206510S11655947EA0077800775000000000000
B0612233206579S11655924EA0077400773000000000000
B0612273206639S11655894EA0078000779000000000000
B0612313206650S11655834EA0077800775000000000000
B0612353206611S11655795EA0077100771000000000000
B0612393206558S11655807EA0077100771000000000000
B0612433206524S11655864EA0077000766000000000000
B0612473206528S11655942EA0076100760000000000000
B0612513206561S11656013EA0075800755000000000000
B0612553206604S11656080EA0074700744000000000000
B0612593206658S11656138EA0073500734000000000000
B0613033206719S11656188EA0072700726000000000000
B0613073206784S11656236EA0071600716000000000000
B0613113206852S11656277EA0071000709000000000000
B0613153206921S11656318EA0070200701000000000000
B0613193206990S11656353EA0069800699000000000000
B0613233207059S11656381EA0069800700000000000000
B0613273207126S11656402EA0069800698000000000000
B0613313207194S11656414EA0069500695000000000000
B0613353207259S11656406EA0069100689000000000000
B0613393207321S11656380EA0068400683000000000000
B0613433207376S11656340EA0068100680000000000000
B0613473207423S11656289EA0068000679000000000000
B0613513207437S11656223EA0068600685000000000000
B0613553207407S11656169EA0069000688000000000000
B0613593207354S11656163EA0068600683000000000000
B0614033207311S11656211EA0068000677000000000000
B0614073207298S11656288EA0067700672000000000000
B0614113207311S11656370EA0067000668000000000000
B0614153207346S11656444EA0066800668000000000000
B0614193207408S11656483EA0066500665000000000000
B0614233207469S11656464EA0067100673000000000000
B0614273207497S11656412EA0067700676000000000000
B0614313207489S11656351EA0067400671000000000000
B0614353207455S11656305EA0067000671000000000000
B0614393207401S11656302EA0067100674000000000000
B0614433207360S11656353EA0066900673000000000000
B0614473207368S11656424EA0067000673000000000000
B0614513207421S11656463EA0066600670000000000000
B0614553207472S11656437EA0066800673000000000000
B0614593207473S11656380EA0066700670000000000000
B0615033207430S11656346EA0066600669000000000000
B0615073207376S11656359EA0066000662000000000000
B0615113207346S11656423EA0065500660000000000000
B0615153207360S11656496EA0065300659000000000000
B0615193207414S11656537EA0065100655000000000000
B0615233207472S11656527EA0065100656000000000000
B0615273207503S11656476EA0065200655000000000000
B0615313207503S11656414EA0064700648000000000000
B0615353207479S11656353EA0063800641000000000000
B0615393207430S11656319EA0063600642000000000000
B0615433207376S11656337EA0063700646000000000000
B0615473207333S11656390EA0063800642000000000000
B0615513207302S11656457EA0063200637000000000000
B0615553207276S11656526EA0062400629000000000000
B0615593207250S11656598EA0061600619000000000000
B0616033207221S11656670EA0061300621000000000000
B0616073207190S11656739EA0061300617000000000000
B0616113207157S11656810EA0060500611000000000000
B0616153207124S11656880EA0060000607000000000000
B0616193207091S11656947EA0060000609000000000000
B0616233207056S11657008EA0060200610000000000000
B0616273207024S11657068EA0060000604000000000000
B0616313206991S11657129EA0059300595000000000000
B0616353206956S11657194EA0058300587000000000000
B0616393206921S11657259EA0057700586000000000000
B0616433206886S11657322EA0057600582000000000000
B0616473206852S11657382EA0057100576000000000000
B0616513206817S11657442EA0056600569000000000000
B0616553206778S11657498EA0056000564000000000000
B0616593206732S11657541EA0055500558000000000000
B0617033206680S11657567EA0055000554000000000000
B0617073206627S11657576EA0054000545000000000000
B0617113206571S11657567EA0053600541000000000000
B0617153206517S11657555EA0053400538000000000000
B0617193206462S11657540EA0052900532000000000000
B0617233206410S11657515EA0052200520000000000000
B0617273206367S11657463EA0051100515000000000000
B0617313206344S11657395EA0050700514000000000000
B0617353206337S11657324EA0050400509000000000000
B0617393206338S11657251EA0049900502000000000000
B0617433206344S11657177EA0049200495000000000000
B0617473206349S11657107EA0048600493000000000000
B0617513206358S11657039EA0048300488000000000000
B0617553206396S11656984EA0047900482000000000000
B0617593206459S11656962EA0047200475000000000000
B0618033206531S11656975EA0046600469000000000000
B0618073206598S11657012EA0046000464000000000000
B0618113206660S11657060EA0045700461000000000000
B0618153206718S11657109EA0045600460000000000000
B0618193206777S11657159EA0045100455000000000000
B0618233206836S11657205EA0044200447000000000000
B0618273206897S11657252EA0043300438000000000000
B0618313206960S11657296EA0042800432000000000000
B0618353207025S11657337EA0042200426000000000000
B0618393207091S11657376EA0041400418000000000000
B0618433207161S11657410EA0040800412000000000000
B0618473207233S11657441EA0040600412000000000000
B0618513207302S11657472EA0040800415000000000000
B0618553207371S11657504EA0041300421000000000000
B0618593207437S11657543EA0041100416000000000000
B0619033207506S11657585EA0040300408000000000000
B0619073207572S11657629EA0039800402000000000000
B0619113207637S11657675EA0039400399000000000000
B0619153207701S11657720EA0039200393000000000000
B0619193207765S11657764EA0038600388000000000000
B0619233207830S11657809EA0038000386000000000000
B0619273207893S11657853EA0037400375000000000000
B0619313207962S11657885EA0036500370000000000000
B0619353208035S11657892EA0035900365000000000000
B0619393208105S11657881EA0035900365000000000000
B0619433208173S11657858EA0035600360000000000000
B0619473208234S11657824EA0035300357000000000000
