ACAM4N6
HFDTE150314
HFFXA050
HFPLTPILOT:JOHN WELSH              
HFGTYGLIDERTYPE:HORNET      
HFGIDGLIDERID:VH-GMY      
HFDTM100GPSDATUM:
HFRFWFIRMWAREVERSION:F2.6
HFRHWHARDWAREVERSION:300 Series Version 2
HFFTYFRTYPE:CAMBRIDGE AERO INSTRUMENTS, 302+
HFGPS:GARMIN,LVS-25,12,18000
HFPRSPRESSALTSENSOR:INTERSEMA, MS5534-AP, 20000
I033638FXA3941ENL4247REX
LCAMSBVER:5FWVER:F26300
C150314043206150314000103
C0000000N00000000WTAKEOFF     
C3207547S11656879EBeverley Air
C3137397S11712959ECunderdin Ai
C3256165S11710679ENarrogin Sil
C3255535S11704919ENarrogin Aer
C3207547S11656879EBeverley Air
C0000000N00000000WLANDING     
B0433583207337S11656856EA0016200200000000000000
B0434003207337S11656856EA0016200200000000000000
B0434023207337S11656856EA0016200200000000000000
B0434043207337S11656856EA0016100200000000000000
B0434063207337S11656856EA0016100200000000000000
B0434083207337S11656856EA0016200200000000000000
B0434103207337S11656856EA0016000200000000000000
B0434123207337S11656856EA0016100200000000000000
B0434143207337S11656856EA0016100200000000000000
B0434163207337S11656856EA0016100200000000000000
B0434183207337S11656856EA0016200200000000000000
B0434203207337S11656856EA0016200200000000000000
B0434223207338S11656856EA0016200200000000000000
B0434243207338S11656857EA0016100199000000000000
B0434263207341S11656858EA0016100199000000000000
B0434273207342S11656861EA0016200199000000000000
B0434313207362S11656877EA0016000198000000000000
B0434353207397S11656900EA0015900198000000000000
B0434393207446S11656931EA0016100198000000000000
B0434433207507S11656968EA0016000199000000000000
B0434473207571S11657009EA0016200204000000000000
B0434513207633S11657055EA0017100214000000000000
B0434553207693S11657101EA0018200227000000000000
B0434593207750S11657148EA0019400243000000000000
B0435033207811S11657198EA0021000259000000000000
B0435073207874S11657251EA0022000270000000000000
B0435113207937S11657302EA0023000287000000000000
B0435153208001S11657347EA0025800312000000000000
B0435193208064S11657394EA0027800332000000000000
B0435233208126S11657442EA0029700359000000000000
B0435273208181S11657506EA0031800374000000000000
B0435313208221S11657576EA0035000404000000000000
B0435353208248S11657654EA0036900427000000000000
B0435393208261S11657740EA0038600440000000000000
B0435433208261S11657831EA0040100452000000000000
B0435473208252S11657923EA0041000461000000000000
B0435513208240S11658018EA0042100474000000000000
B0435553208222S11658109EA0043700491000000000000
B0435593208203S11658196EA0045300506000000000000
B0436033208179S11658283EA0047000529000000000000
B0436073208152S11658370EA0049600551000000000000
B0436113208106S11658448EA0051800577000000000000
B0436153208030S11658491EA0054000598000000000000
B0436193207943S11658490EA0056200618000000000000
B0436233207861S11658444EA0058200641000000000000
B0436273207805S11658368EA0061000668000000000000
B0436313207778S11658279EA0063300694000000000000
B0436353207722S11658223EA0064900709000000000000
B0436393207653S11658248EA0066400719000000000000
B0436433207635S11658323EA0067300730000000000000
B0436473207671S11658368EA0068400740000000000000
B0436513207720S11658344EA0069200748000000000000
B0436553207706S11658277EA0070400760000000000000
B0436593207642S11658275EA0071700773000000000000
B0437033207607S11658336EA0072200776000000000000
B0437073207625S11658401EA0072500781000000000000
B0437113207671S11658400EA0073900794000000000000
B0437153207661S11658334EA0074700803000000000000
B0437193207596S11658329EA0075400812000000000000
B0437233207571S11658392EA0076100816000000000000
B0437273207609S11658437EA0076200816000000000000
B0437313207649S11658403EA0077900838000000000000
B0437353207637S11658340EA0080100856000000000000
B0437393207579S11658321EA0080600862000000000000
B0437433207531S11658364EA0080800861000000000000
B0437473207536S11658430EA0080800861000000000000
B0437513207583S11658452EA0081200867000000000000
B0437553207619S11658407EA0082000876000000000000
B0437593207603S11658335EA0082800887000000000000
B0438033207541S11658308EA0084600902000000000000
B0438073207489S11658347EA0085600909000000000000
B0438113207482S11658417EA0085600908000000000000
B0438153207523S11658457EA0085700915000000000000
B0438193207567S11658429EA0086700928000000000000
B0438233207562S11658359EA0088000938000000000000
B0438273207502S11658323EA0089400954000000000000
B0438313207449S11658357EA0090800961000000000000
B0438353207445S11658426EA0091000963000000000000
B0438393207484S11658465EA0091300969000000000000
B0438433207529S11658440EA0092200980000000000000
B0438473207520S11658373EA0093500992000000000000
B0438513207456S11658364EA0094701004000000000000
B0438553207419S11658429EA0094701002000000000000
B0438593207441S11658492EA0095301010000000000000
B0439033207495S11658503EA0095901017000000000000
B0439073207533S11658451EA0096601031000000000000
B0439113207505S11658385EA0097901043000000000000
B0439153207438S11658396EA0099501060000000000000
B0439193207419S11658466EA0100501066000000000000
B0439233207460S11658498EA0101101074000000000000
B0439273207493S11658450EA0101901087000000000000
B0439313207456S11658394EA0103501101000000000000
B0439353207393S11658408EA0104801113000000000000
B0439393207372S11658476EA0105601119000000000000
B0439433207406S11658517EA0106301126000000000000
B0439473207451S11658491EA0106501128000000000000
B0439513207458S11658424EA0107101136000000000000
B0439553207401S11658394EA0108101153000000000000
B0439593207358S11658450EA0109701162000000000000
B0440033207378S11658505EA0110401174000000000000
B0440073207419S11658486EA0111501182000000000000
B0440113207416S11658418EA0112001185000000000000
B0440153207355S11658390EA0112701197000000000000
B0440193207316S11658448EA0114001205000000000000
B0440233207342S11658509EA0114301209000000000000
B0440273207393S11658507EA0114901216000000000000
B0440313207414S11658447EA0115901229000000000000
B0440353207377S11658386EA0117201241000000000000
B0440393207311S11658392EA0118501252000000000000
B0440433207278S11658460EA0119301259000000000000
B0440473207302S11658517EA0120001268000000000000
B0440513207350S11658513EA0120601271000000000000
B0440553207373S11658451EA0120601278000000000000
B0440593207336S11658390EA0122101295000000000000
B0441033207274S11658404EA0123801307000000000000
B0441073207256S11658473EA0124401312000000000000
B0441113207293S11658520EA0124801313000000000000
B0441153207336S11658489EA0125301323000000000000
B0441193207323S11658420EA0126201331000000000000
B0441233207256S11658400EA0127001340000000000000
B0441273207203S11658448EA0127701343000000000000
B0441313207193S11658526EA0127901347000000000000
B0441353207229S11658581EA0128301347000000000000
B0441393207285S11658576EA0128201347000000000000
B0441433207332S11658524EA0127801343000000000000
B0441473207319S11658447EA0128301357000000000000
B0441513207247S11658442EA0129601367000000000000
B0441553207217S11658513EA0130301372000000000000
B0441593207248S11658569EA0130901379000000000000
B0442033207299S11658550EA0131601386000000000000
B0442073207302S11658479EA0132401395000000000000
B0442113207241S11658443EA0133101401000000000000
B0442153207182S11658482EA0134101409000000000000
B0442193207174S11658556EA0134001406000000000000
B0442233207217S11658595EA0134801418000000000000
B0442273207265S11658573EA0135401423000000000000
B0442313207277S11658511EA0136101433000000000000
B0442353207235S11658459EA0136701435000000000000
B0442393207169S11658466EA0136401430000000000000
B0442433207142S11658537EA0136201427000000000000
B0442473207183S11658581EA0135801427000000000000
B0442513207234S11658556EA0136401435000000000000
B0442553207269S11658505EA0137601444000000000000
B0442593207291S11658442EA0137001431000000000000
B0443033207306S11658366EA0135301412000000000000
B0443073207320S11658282EA0133401396000000000000
B0443113207336S11658195EA0132301390000000000000
B0443153207352S11658109EA0131801382000000000000
B0443193207371S11658021EA0130901374000000000000
B0443233207390S11657935EA0131001380000000000000
B0443273207410S11657853EA0132001389000000000000
B0443313207428S11657774EA0132601389000000000000
B0443353207453S11657696EA0132201385000000000000
B0443393207480S11657618EA0131701381000000000000
B0443433207511S11657541EA0131501381000000000000
B0443473207545S11657469EA0131601381000000000000
B0443513207577S11657395EA0131601379000000000000
B0443553207609S11657325EA0131101375000000000000
B0443593207642S11657255EA0131101373000000000000
B0444033207676S11657187EA0130401369000000000000
B0444073207709S11657122EA0130301367000000000000
B0444113207737S11657057EA0130001362000000000000
B0444153207763S11656987EA0129201353000000000000
B0444193207783S11656914EA0128901352000000000000
B0444233207761S11656844EA0129101353000000000000
B0444273207700S11656810EA0128701347000000000000
B0444313207624S11656815EA0127601334000000000000
B0444353207546S11656836EA0126101321000000000000
B0444393207466S11656861EA0124801308000000000000
B0444433207385S11656891EA0124101302000000000000
B0444473207307S11656922EA0123401295000000000000
B0444513207230S11656958EA0122701290000000000000
B0444553207155S11657000EA0122301286000000000000
B0444593207079S11657046EA0121701278000000000000
B0445033207001S11657096EA0120901271000000000000
B0445073206925S11657151EA0119701260000000000000
B0445113206847S11657204EA0119001255000000000000
B0445153206771S11657257EA0118501250000000000000
B0445193206696S11657311EA0118001244000000000000
B0445233206621S11657361EA0117401238000000000000
B0445273206545S11657410EA0116201225000000000000
B0445313206468S11657459EA0115501219000000000000
B0445353206392S11657507EA0115201216000000000000
B0445393206315S11657554EA0114701211000000000000
B0445433206238S11657601EA0114401210000000000000
B0445473206164S11657645EA0114901214000000000000
B0445513206089S11657686EA0115101214000000000000
B0445553206015S11657731EA0115301218000000000000
B0445593205942S11657774EA0115601219000000000000
B0446033205867S11657809EA0115301214000000000000
B0446073205785S11657845EA0114001198000000000000
B0446113205699S11657883EA0113001191000000000000
B0446153205612S11657920EA0112101183000000000000
B0446193205525S11657958EA0111301175000000000000
B0446233205439S11657997EA0110601170000000000000
B0446273205354S11658035EA0110201164000000000000
B0446313205269S11658070EA0109201156000000000000
B0446353205183S11658106EA0108301146000000000000
B0446393205097S11658144EA0107401138000000000000
B0446433205011S11658182EA0106901132000000000000
B0446473204928S11658218EA0106501135000000000000
B0446513204851S11658253EA0107501140000000000000
B0446553204776S11658284EA0107701142000000000000
B0446593204699S11658299EA0109101159000000000000
B0447033204632S11658278EA0111401179000000000000
B0447073204615S11658213EA0113301199000000000000
B0447113204654S11658173EA0113701196000000000000
B0447153204710S11658192EA0113501198000000000000
B0447193204737S11658260EA0114301209000000000000
B0447233204720S11658336EA0115301217000000000000
B0447273204664S11658374EA0116401229000000000000
B0447313204616S11658336EA0117801249000000000000
B0447353204620S11658278EA0119501258000000000000
B0447393204669S11658253EA0119501260000000000000
B0447433204719S11658283EA0120801274000000000000
B0447473204734S11658348EA0121601275000000000000
B0447513204710S11658420EA0121201273000000000000
B0447553204654S11658466EA0121701283000000000000
B0447593204591S11658464EA0123301299000000000000
B0448033204559S11658409EA0124501310000000000000
B0448073204582S11658359EA0126601332000000000000
B0448113204630S11658368EA0127401337000000000000
B0448153204661S11658430EA0127701343000000000000
B0448193204650S11658504EA0128601349000000000000
B0448233204598S11658556EA0129001356000000000000
B0448273204531S11658567EA0130001363000000000000
B0448313204477S11658529EA0130101361000000000000
B0448353204466S11658464EA0130401368000000000000
B0448393204504S11658416EA0131101373000000000000
B0448433204560S11658405EA0132401390000000000000
B0448473204590S11658465EA0133701405000000000000
B0448513204556S11658526EA0134301411000000000000
B0448553204495S11658513EA0134501415000000000000
B0448593204474S11658450EA0135201426000000000000
B0449033204516S11658416EA0137101447000000000000
B0449073204557S11658452EA0138701457000000000000
B0449113204555S11658525EA0139001459000000000000
B0449153204508S11658580EA0139501463000000000000
B0449193204446S11658576EA0139401460000000000000
B0449233204422S11658513EA0139701467000000000000
B0449273204451S11658452EA0140401473000000000000
B0449313204505S11658450EA0141601487000000000000
B0449353204518S11658520EA0141801485000000000000
B0449393204463S11658582EA0140801474000000000000
B0449433204381S11658617EA0140201476000000000000
B0449473204296S11658651EA0140301473000000000000
B0449513204208S11658685EA0139301463000000000000
B0449553204118S11658717EA0138301453000000000000
B0449593204026S11658751EA0137201445000000000000
B0450033203933S11658788EA0136501443000000000000
B0450073203844S11658823EA0135801435000000000000
B0450113203754S11658858EA0135201427000000000000
B0450153203664S11658890EA0134601423000000000000
B0450193203579S11658920EA0135401433000000000000
B0450233203495S11658947EA0136401441000000000000
B0450273203411S11658975EA0136801448000000000000
B0450313203326S11658997EA0138201464000000000000
B0450353203243S11659015EA0139201467000000000000
B0450393203159S11659035EA0138001451000000000000
B0450433203070S11659059EA0137001447000000000000
B0450473202983S11659085EA0137101448000000000000
B0450513202899S11659115EA0137201446000000000000
B0450553202814S11659148EA0136401439000000000000
B0450593202727S11659183EA0135701433000000000000
B0451033202640S11659217EA0135101428000000000000
B0451073202554S11659250EA0134801423000000000000
B0451113202470S11659287EA0134401420000000000000
B0451153202386S11659323EA0134301418000000000000
B0451193202305S11659357EA0134401417000000000000
B0451233202223S11659389EA0134001414000000000000
B0451273202141S11659419EA0133601408000000000000
B0451313202059S11659448EA0132401398000000000000
B0451353201973S11659475EA0131901387000000000000
B0451393201885S11659504EA0130601376000000000000
B0451433201796S11659539EA0129801369000000000000
B0451473201717S11659595EA0128801358000000000000
B0451513201644S11659664EA0127801353000000000000
B0451553201574S11659735EA0127601351000000000000
B0451593201509S11659809EA0128001355000000000000
B0452033201439S11659876EA0127501347000000000000
B0452073201361S11659937EA0126901339000000000000
B0452113201281S11659995EA0126301337000000000000
B0452153201202S11700050EA0126101332000000000000
B0452193201122S11700102EA0125201322000000000000
B0452233201038S11700150EA0124601314000000000000
B0452273200953S11700193EA0124301312000000000000
B0452313200868S11700236EA0123801309000000000000
B0452353200784S11700275EA0123701308000000000000
B0452393200702S11700311EA0123801308000000000000
B0452433200621S11700349EA0123201302000000000000
B0452473200543S11700387EA0123401307000000000000
B0452513200472S11700428EA0123601303000000000000
B0452553200399S11700468EA0123101298000000000000
B0452593200323S11700505EA0122301287000000000000
B0453033200243S11700533EA0121301279000000000000
B0453073200161S11700556EA0120401267000000000000
B0453113200078S11700575EA0119501262000000000000
B0453153159994S11700597EA0118901254000000000000
B0453193159911S11700630EA0118301251000000000000
B0453233159831S11700667EA0118001246000000000000
B0453273159745S11700701EA0117001231000000000000
B0453313159653S11700721EA0115801225000000000000
B0453353159560S11700732EA0115401221000000000000
B0453393159467S11700743EA0114501212000000000000
B0453433159372S11700748EA0114001209000000000000
B0453473159278S11700754EA0113601204000000000000
B0453513159185S11700762EA0112901200000000000000
B0453553159094S11700767EA0112701194000000000000
B0453593159003S11700777EA0112001187000000000000
B0454033158912S11700784EA0111101180000000000000
B0454073158822S11700792EA0110401172000000000000
B0454113158732S11700791EA0109601158000000000000
B0454153158644S11700780EA0108201145000000000000
B0454193158553S11700757EA0106901134000000000000
B0454233158460S11700754EA0106401133000000000000
B0454273158372S11700765EA0106401134000000000000
B0454313158285S11700782EA0106101132000000000000
B0454353158202S11700814EA0106001130000000000000
B0454393158116S11700845EA0106001126000000000000
B0454433158026S11700869EA0105001120000000000000
B0454473157935S11700894EA0104601114000000000000
B0454513157847S11700920EA0104301112000000000000
B0454553157760S11700949EA0103701100000000000000
B0454593157671S11700974EA0102401090000000000000
B0455033157583S11701001EA0101501081000000000000
B0455073157495S11701029EA0100701072000000000000
B0455113157407S11701053EA0099901062000000000000
B0455153157316S11701066EA0098901058000000000000
B0455193157225S11701061EA0098901054000000000000
B0455233157136S11701044EA0098101046000000000000
B0455273157045S11701034EA0096901037000000000000
B0455313156956S11701043EA0096501036000000000000
B0455353156874S11701068EA0096601033000000000000
B0455393156796S11701104EA0095701020000000000000
B0455433156718S11701147EA0094401006000000000000
B0455473156638S11701189EA0092900990000000000000
B0455513156556S11701232EA0091400975000000000000
B0455553156474S11701273EA0090100964000000000000
B0455593156393S11701316EA0089300957000000000000
B0456033156313S11701360EA0088200941000000000000
B0456073156231S11701406EA0086800932000000000000
B0456113156154S11701456EA0087400943000000000000
B0456153156104S11701527EA0088900956000000000000
B0456193156097S11701612EA0089700960000000000000
B0456233156139S11701668EA0090100961000000000000
B0456273156201S11701666EA0089500949000000000000
B0456313156208S11701599EA0088300940000000000000
B0456353156145S11701559EA0087500934000000000000
B0456393156067S11701558EA0087100933000000000000
B0456433155992S11701577EA0087200934000000000000
B0456473155922S11701618EA0087000931000000000000
B0456513155857S11701668EA0085900920000000000000
B0456553155794S11701727EA0085000908000000000000
B0456593155729S11701785EA0084000896000000000000
B0457033155655S11701837EA0082500882000000000000
B0457073155578S11701880EA0081900880000000000000
B0457113155503S11701915EA0081800876000000000000
B0457153155426S11701947EA0081000867000000000000
B0457193155350S11701976EA0079700853000000000000
B0457233155270S11702005EA0078200841000000000000
B0457273155195S11702043EA0077900839000000000000
B0457313155126S11702086EA0078200843000000000000
B0457353155082S11702149EA0079400857000000000000
B0457393155080S11702226EA0080100858000000000000
B0457433155118S11702287EA0079800856000000000000
B0457473155177S11702318EA0079900858000000000000
B0457513155229S11702291EA0080200864000000000000
B0457553155212S11702226EA0080500860000000000000
B0457593155143S11702205EA0079300853000000000000
B0458033155074S11702234EA0079300853000000000000
B0458073155069S11702307EA0080200865000000000000
B0458113155123S11702314EA0080700866000000000000
B0458153155132S11702251EA0081300879000000000000
B0458193155077S11702220EA0082500886000000000000
B0458233155023S11702255EA0082600884000000000000
B0458273155041S11702321EA0082500883000000000000
B0458313155093S11702317EA0082500889000000000000
B0458353155092S11702256EA0082900896000000000000
B0458393155035S11702239EA0083600900000000000000
B0458433154995S11702294EA0083900902000000000000
B0458473155014S11702356EA0084500909000000015000
B0458513155060S11702333EA0084300903000000015000
B0458553155026S11702279EA0083500894000000015000
B0458593154954S11702287EA0083300899000000015000
B0459033154947S11702353EA0084500909000000015000
B0459073154996S11702348EA0085000913000000015000
B0459113154997S11702282EA0085000918000000015000
B0459153154940S11702251EA0085700924000000000000
B0459193154884S11702295EA0086400934000000000000
B0459233154895S11702361EA0087300944000000015000
B0459273154947S11702374EA0087200942000000015000
B0459313154978S11702318EA0087200941000000000000
B0459353154939S11702265EA0087600945000000000000
B0459393154867S11702264EA0087400941000000000000
B0459433154806S11702304EA0087800949000000000000
B0459473154820S11702363EA0088500954000000000000
B0459513154865S11702330EA0088600955000000000000
B0459553154843S11702264EA0088900961000000000000
B0459593154778S11702259EA0090100971000000000000
B0500033154745S11702321EA0090200971000000000000
B0500073154778S11702369EA0090400973000000015000
B0500113154824S11702344EA0090100971000000015000
B0500153154815S11702275EA0090300976000000015000
B0500193154753S11702256EA0091600991000000015000
B0500233154739S11702313EA0092800998000000015000
B0500273154784S11702321EA0092901000000000015000
B0500313154789S11702259EA0093101001000000015000
B0500353154728S11702227EA0093901010000000015000
B0500393154676S11702269EA0094401012000000015000
B0500433154690S11702329EA0094101010000000015000
B0500473154744S11702333EA0093901009000000015000
B0500513154783S11702279EA0093801010000000015000
B0500553154749S11702222EA0094901022000000015000
B0500593154697S11702256EA0095601024000000015000
B0501033154722S11702314EA0096201031000000015000
B0501073154770S11702290EA0096801039000000015000
B0501113154754S11702226EA0097701049000000015000
B0501153154690S11702214EA0097801046000000015000
B0501193154642S11702268EA0097801048000000015000
B0501233154655S11702331EA0098301052000000015000
B0501273154709S11702326EA0098601056000000015000
B0501313154722S11702260EA0099201063000000015000
B0501353154663S11702238EA0099901067000000015000
B0501393154622S11702291EA0099901068000000015000
B0501433154650S11702346EA0100401072000000015000
B0501473154698S11702327EA0101001082000000015000
B0501513154690S11702264EA0102001092000000015000
B0501553154636S11702235EA0102301093000000015000
B0501593154568S11702247EA0101701086000000015000
B0502033154497S11702266EA0101001075000000015000
B0502073154421S11702292EA0099301055000000000000
B0502113154343S11702331EA0097501040000000000000
B0502153154264S11702376EA0095801024000000000000
B0502193154182S11702424EA0094301011000000000000
B0502233154102S11702476EA0093601004000000000000
B0502273154018S11702529EA0093201001000000000000
B0502313153935S11702580EA0093200999000000000000
B0502353153853S11702632EA0093401000000000000000
B0502393153767S11702663EA0094401016000000000000
B0502433153686S11702685EA0094901013000000000000
B0502473153602S11702710EA0093500993000000000000
B0502513153511S11702730EA0091400976000000000000
B0502553153423S11702760EA0090500972000000000000
B0502593153340S11702794EA0090700973000000000000
B0503033153262S11702836EA0090500969000000000000
B0503073153184S11702880EA0090000963000000000000
B0503113153106S11702927EA0089100949000000000000
B0503153153030S11702983EA0088000942000000000000
B0503193152964S11703050EA0087300933000000000000
B0503233152899S11703120EA0086400924000000000000
B0503273152834S11703192EA0085400915000000000000
B0503313152768S11703262EA0084900909000000000000
B0503353152700S11703331EA0084000901000000000000
B0503393152633S11703399EA0083800898000000000000
B0503433152568S11703465EA0083400892000000000000
B0503473152501S11703529EA0082700883000000000000
B0503513152435S11703591EA0081700872000000000000
B0503553152370S11703657EA0081300875000000000000
B0503593152311S11703722EA0082700890000000000000
B0504033152245S11703768EA0083900897000000000000
B0504073152184S11703737EA0084000899000000000000
B0504113152201S11703677EA0085000910000000000000
B0504153152249S11703681EA0085800918000000000000
B0504193152280S11703731EA0086300923000000000000
B0504233152265S11703802EA0087100933000000000000
B0504273152204S11703835EA0087400933000000000000
B0504313152144S11703800EA0086700925000000000000
B0504353152149S11703733EA0086200920000000000000
B0504393152198S11703699EA0086500927000000000000
B0504433152249S11703721EA0087300936000000000000
B0504473152233S11703790EA0088600952000000000000
B0504513152170S11703794EA0089100948000000000000
B0504553152148S11703731EA0089000956000000000000
B0504593152188S11703708EA0090200963000000000000
B0505033152213S11703763EA0090700968000000000000
B0505073152167S11703816EA0090700967000000000000
B0505113152106S11703786EA0090800972000000000000
B0505153152106S11703726EA0092000983000000000000
B0505193152154S11703717EA0092800990000000000000
B0505233152176S11703774EA0093400997000000000000
B0505273152133S11703835EA0093701000000000000000
B0505313152063S11703828EA0093500999000000000000
B0505353152038S11703764EA0094501010000000000000
B0505393152072S11703724EA0095601018000000000000
B0505433152119S11703750EA0096201025000000000000
B0505473152127S11703817EA0096701031000000000000
B0505513152090S11703878EA0097301036000000000000
B0505553152023S11703889EA0097101035000000000000
B0505593151977S11703839EA0097501038000000000000
B0506033151981S11703778EA0098501048000000000000
B0506073152025S11703755EA0098901049000000000000
B0506113152072S11703790EA0099001050000000000000
B0506153152083S11703859EA0098901049000000000000
B0506193152040S11703917EA0098901052000000000000
B0506233151972S11703936EA0098901052000000000000
B0506273151902S11703926EA0098401046000000000000
B0506313151866S11703865EA0098101043000000000000
B0506353151890S11703809EA0098601049000000000000
B0506393151940S11703786EA0099301054000000000000
B0506433151993S11703773EA0099301052000000000000
B0506473152037S11703811EA0099501057000000000000
B0506513152025S11703877EA0099601057000000000000
B0506553151962S11703912EA0099301053000000000000
B0506593151888S11703929EA0099001051000000000000
B0507033151814S11703947EA0098601051000000000000
B0507073151738S11703973EA0098101044000000000000
B0507113151663S11704007EA0097501041000000000000
B0507153151587S11704041EA0097301034000000000000
B0507193151508S11704076EA0096101025000000000000
B0507233151429S11704112EA0096001025000000000000
B0507273151355S11704158EA0095901021000000000000
B0507313151278S11704202EA0094901011000000000000
B0507353151199S11704245EA0094100997000000000000
B0507393151119S11704290EA0092500981000000000000
B0507433151039S11704339EA0091000968000000000000
B0507473150959S11704384EA0090200963000000000000
B0507513150881S11704430EA0089500953000000000000
B0507553150802S11704471EA0088300941000000000000
B0507593150720S11704511EA0087500934000000000000
B0508033150638S11704553EA0087000930000000000000
B0508073150558S11704595EA0086600923000000000000
B0508113150477S11704635EA0085600915000000000000
B0508153150398S11704674EA0085300912000000000000
B0508193150321S11704718EA0084700905000000000000
B0508233150247S11704769EA0084400904000000000000
B0508273150191S11704835EA0084800908000000000000
B0508313150165S11704921EA0084600903000000000000
B0508353150155S11705012EA0084800902000000000000
B0508393150166S11705103EA0085200909000000000000
B0508433150215S11705163EA0085500910000000000000
B0508473150278S11705161EA0085300909000000000000
B0508513150306S11705096EA0085300911000000000000
B0508553150280S11705018EA0084900909000000000000
B0508593150221S11705033EA0085700915000000000000
B0509033150252S11705096EA0087000929000000000000
B0509073150302S11705074EA0088900947000000000000
B0509113150298S11705013EA0089100944000000000000
B0509153150237S11704981EA0088100937000000000000
B0509193150199S11705037EA0088500942000000015000
B0509233150252S11705070EA0089600954000000015000
B0509273150265S11705011EA0090700963000000015000
B0509313150213S11704973EA0091000967000000015000
B0509353150147S11704996EA0091400973000000015000
B0509393150139S11705068EA0091900977000000015000
B0509433150192S11705102EA0092000978000000015000
B0509473150211S11705044EA0093000985000000015000
B0509513150152S11705038EA0093800996000000015000
B0509553150146S11705108EA0094601005000000015000
B0509593150195S11705132EA0095401014000000015000
B0510033150211S11705080EA0095601013000000015000
B0510073150160S11705038EA0095501015000000000000
B0510113150113S11705081EA0096301022000000000000
B0510153150146S11705142EA0095801014000000000000
B0510193150194S11705111EA0096701029000000000000
B0510233150181S11705048EA0097301033000000000000
B0510273150120S11705022EA0097101034000000000000
B0510313150055S11705051EA0097201032000000000000
B0510353150047S11705134EA0096401027000000000000
B0510393150098S11705185EA0097001035000000000000
B0510433150153S11705174EA0097901045000000000000
B0510473150150S11705113EA0098301043000000000000
B0510513150083S11705102EA0098201048000000000000
B0510553150052S11705171EA0099601059000000000000
B0510593150085S11705226EA0100101061000000000000
B0511033150124S11705194EA0100401070000000000000
B0511073150091S11705139EA0100201065000000000000
B0511113150023S11705152EA0100501074000000000000
B0511153149991S11705221EA0101901085000000000000
B0511193150008S11705289EA0102201083000000000000
B0511233150057S11705315EA0102201081000000000000
B0511273150098S11705276EA0101601079000000000000
B0511313150079S11705210EA0101601081000000000000
B0511353150016S11705178EA0101601084000000000000
B0511393149951S11705212EA0102601096000000000000
B0511433149944S11705288EA0103501099000000000000
B0511473149992S11705310EA0103201097000000000000
B0511513150007S11705252EA0103001095000000000000
B0511553149952S11705210EA0103401106000000000000
B0511593149883S11705220EA0104501114000000000000
B0512033149853S11705290EA0104701112000000000000
B0512073149893S11705330EA0105101118000000000000
B0512113149919S11705286EA0104901119000000000000
B0512153149882S11705232EA0105001121000000000000
B0512193149812S11705237EA0104801119000000000000
B0512233149740S11705273EA0103801105000000000000
B0512273149663S11705317EA0102601093000000000000
B0512313149584S11705366EA0101501083000000000000
B0512353149506S11705420EA0099901067000000000000
B0512393149428S11705481EA0098801057000000000000
B0512433149351S11705544EA0098001050000000000000
B0512473149273S11705603EA0097501044000000000000
B0512513149193S11705659EA0097101038000000000000
B0512553149113S11705714EA0096701033000000000000
B0512593149034S11705766EA0096001026000000000000
B0513033148955S11705815EA0095201017000000000000
B0513073148874S11705867EA0094401009000000000000
B0513113148795S11705919EA0093701002000000000000
B0513153148720S11705978EA0094501015000000000000
B0513193148666S11706047EA0096901034000000000000
B0513233148688S11706121EA0097801039000000000000
B0513273148742S11706101EA0098601048000000000000
B0513313148739S11706031EA0099301056000000000000
B0513353148688S11705986EA0099301056000000000000
B0513393148623S11705977EA0099701065000000000000
B0513433148595S11706039EA0101001076000000000000
B0513473148638S11706073EA0101801078000000000000
B0513513148658S11706019EA0102001081000000000000
B0513553148610S11705975EA0101701077000000000000
B0513593148539S11705988EA0102001082000000000000
B0514033148510S11706058EA0102301082000000000000
B0514073148552S11706113EA0101601075000000000000
B0514113148593S11706070EA0101801080000000000000
B0514153148552S11706008EA0102701094000000000000
B0514193148482S11705997EA0103601099000000000000
B0514233148434S11706053EA0103701101000000000000
B0514273148458S11706120EA0103701098000000000000
B0514313148519S11706136EA0103601101000000000000
B0514353148557S11706094EA0104701112000000000000
B0514393148514S11706044EA0105401118000000000000
B0514433148448S11706055EA0105501117000000000000
B0514473148384S11706092EA0105301116000000000000
B0514513148322S11706136EA0104601106000000000000
B0514553148254S11706186EA0103001090000000000000
B0514593148184S11706239EA0101701078000000000000
B0515033148111S11706292EA0100401067000000000000
B0515073148041S11706344EA0099601057000000000000
B0515113147967S11706394EA0098301044000000000000
B0515153147893S11706445EA0097401033000000000000
B0515193147821S11706499EA0096501024000000000000
B0515233147750S11706555EA0095601014000000000000
B0515273147678S11706612EA0095001014000000000000
B0515313147615S11706676EA0095101015000000000000
B0515353147559S11706745EA0094901008000000000000
B0515393147504S11706818EA0093800994000000000000
B0515433147444S11706888EA0092400982000000000000
B0515473147381S11706949EA0092200981000000000000
B0515513147316S11707002EA0091800976000000000000
B0515553147247S11707049EA0091000967000000000000
B0515593147175S11707092EA0090300963000000000000
B0516033147106S11707139EA0089600951000000000000
B0516073147033S11707186EA0088100938000000000000
B0516113146957S11707230EA0087400937000000000000
B0516153146877S11707258EA0088300946000000000000
B0516193146798S11707261EA0089300955000000000000
B0516233146745S11707305EA0090000966000000000000
B0516273146772S11707358EA0090500969000000000000
B0516313146829S11707352EA0089600960000000000000
B0516353146867S11707296EA0088800955000000000000
B0516393146877S11707218EA0088500957000000000000
B0516433146837S11707154EA0089500971000000000000
B0516473146770S11707135EA0089900966000000000000
B0516513146698S11707131EA0090200974000000000000
B0516553146673S11707187EA0090800979000000000000
B0516593146721S11707201EA0090400969000000000000
B0517033146736S11707132EA0089500965000000000000
B0517073146690S11707070EA0089500964000000000000
B0517113146623S11707041EA0089300960000000000000
B0517153146572S11707091EA0089400962000000000000
B0517193146590S11707156EA0089400959000000000000
B0517233146634S11707122EA0088700948000000015000
B0517273146601S11707059EA0089000953000000015000
B0517313146536S11707033EA0088900952000000000000
B0517353146463S11707027EA0088500948000000000000
B0517393146387S11707031EA0088200943000000000000
B0517433146309S11707052EA0087200930000000000000
B0517473146227S11707085EA0084800906000000000000
B0517513146147S11707128EA0083100890000000000000
B0517553146068S11707174EA0082000882000000000000
B0517593145990S11707221EA0081500875000000000000
B0518033145913S11707267EA0080400865000000000000
B0518073145837S11707313EA0079400851000000000000
B0518113145759S11707358EA0078500845000000000000
B0518153145684S11707404EA0077900840000000000000
B0518193145607S11707449EA0077000832000000000000
B0518233145535S11707496EA0076800831000000000000
B0518273145464S11707544EA0076800829000000000000
B0518313145393S11707592EA0076600827000000000000
B0518353145320S11707634EA0076000823000000000000
B0518393145249S11707676EA0075500817000000000000
B0518433145178S11707721EA0075100810000000000000
B0518473145106S11707767EA0074200797000000000000
B0518513145030S11707808EA0073300790000000000000
B0518553144955S11707846EA0073000792000000000000
B0518593144875S11707869EA0073000787000000000000
B0519033144796S11707894EA0072200780000000000000
B0519073144717S11707925EA0071700779000000000000
B0519113144640S11707959EA0072200785000000000000
B0519153144579S11708015EA0073400795000000000000
B0519193144608S11708067EA0075100810000000000000
B0519233144634S11708016EA0076300823000000000000
B0519273144582S11707976EA0077600836000000000000
B0519313144532S11708015EA0078400846000000000000
B0519353144557S11708070EA0079000848000000000000
B0519393144602S11708038EA0079900862000000000000
B0519433144573S11707980EA0081200877000000000000
B0519473144509S11707986EA0082000884000000000000
B0519513144489S11708046EA0083000894000000000000
B0519553144528S11708083EA0083300893000000000000
B0519593144573S11708046EA0083400902000000000000
B0520033144540S11707990EA0085300920000000000000
B0520073144478S11707999EA0086200926000000000000
B0520113144458S11708063EA0086600932000000000000
B0520153144497S11708098EA0087100937000000000000
B0520193144539S11708057EA0087400943000000000000
B0520233144522S11707992EA0089000961000000000000
B0520273144459S11707973EA0090100969000000000000
B0520313144411S11708019EA0090700975000000000000
B0520353144419S11708084EA0090400970000000000000
B0520393144471S11708098EA0090700974000000000000
B0520433144506S11708047EA0091800987000000000000
B0520473144480S11707984EA0093101000000000000000
B0520513144414S11707984EA0093701006000000000000
B0520553144380S11708049EA0093901008000000000000
B0520593144409S11708107EA0094301013000000000000
B0521033144462S11708103EA0094701014000000000000
B0521073144476S11708037EA0095401031000000000000
B0521113144427S11707989EA0096801045000000015000
B0521153144362S11708005EA0097301046000000015000
B0521193144328S11708072EA0097501049000000000000
B0521233144366S11708119EA0098001051000000015000
B0521273144414S11708081EA0097801054000000015000
B0521313144417S11708010EA0099301072000000015000
B0521353144371S11707962EA0100601080000000015000
B0521393144305S11707969EA0100801080000000000000
B0521433144277S11708034EA0101001083000000000000
B0521473144307S11708089EA0101201084000000000000
B0521513144361S11708076EA0101001082000000000000
B0521553144363S11708012EA0101501095000000015000
B0521593144298S11708003EA0103001103000000015000
B0522033144271S11708064EA0104001115000000015000
B0522073144310S11708103EA0104301120000000015000
B0522113144350S11708071EA0104701127000000015000
B0522153144323S11708014EA0106401145000000015000
B0522193144259S11708011EA0107001146000000015000
B0522233144222S11708070EA0107401150000000015000
B0522273144244S11708128EA0107501150000000000000
B0522313144294S11708118EA0107501150000000000000
B0522353144306S11708053EA0108101161000000000000
B0522393144258S11708003EA0109201172000000015000
B0522433144189S11708014EA0109201175000000015000
B0522473144158S11708081EA0109301180000000015000
B0522513144184S11708135EA0109701180000000015000
B0522553144235S11708124EA0109401175000000015000
B0522593144245S11708057EA0110301188000000015000
B0523033144203S11707998EA0110501190000000015000
B0523073144133S11707990EA0110601191000000015000
B0523113144079S11708044EA0110701188000000000000
B0523153144077S11708118EA0109901183000000000000
B0523193144131S11708146EA0109801181000000000000
B0523233144176S11708102EA0109701181000000000000
B0523273144160S11708027EA0110301192000000000000
B0523313144099S11707985EA0110801192000000000000
B0523353144027S11707995EA0110601190000000000000
B0523393143954S11708033EA0109201168000000000000
B0523433143878S11708083EA0106401140000000000000
B0523473143800S11708145EA0103801117000000000000
B0523513143724S11708210EA0102701110000000000000
B0523553143651S11708272EA0102601106000000000000
B0523593143575S11708335EA0101801092000000000000
B0524033143496S11708397EA0100701082000000000000
B0524073143421S11708461EA0100401085000000000000
B0524113143345S11708523EA0100301078000000000000
B0524153143269S11708582EA0100001078000000000000
B0524193143192S11708630EA0100701082000000000000
B0524233143118S11708679EA0100301074000000000000
B0524273143045S11708730EA0099601069000000000000
B0524313142967S11708777EA0098701057000000000000
B0524353142890S11708829EA0097901047000000000000
B0524393142818S11708890EA0096301029000000000000
B0524433142749S11708959EA0094401011000000000000
B0524473142678S11709029EA0093401005000000000000
B0524513142611S11709095EA0093201000000000000000
B0524553142546S11709159EA0092700993000000000000
B0524593142490S11709232EA0091500982000000000000
B0525033142434S11709310EA0090100967000000000000
B0525073142378S11709390EA0089500960000000000000
B0525113142331S11709477EA0088600953000000000000
B0525153142285S11709567EA0089000959000000000000
B0525193142277S11709654EA0091100989000000000000
B0525233142325S11709670EA0093901012000000000000
B0525273142335S11709614EA0094701008000000000000
B0525313142286S11709566EA0094101012000000000000
B0525353142218S11709576EA0095301027000000000000
B0525393142210S11709639EA0096501040000000000000
B0525433142257S11709645EA0096701047000000000000
B0525473142274S11709584EA0096501044000000000000
B0525513142225S11709531EA0097601059000000000000
B0525553142160S11709539EA0098601066000000000000
B0525593142132S11709601EA0099001065000000000000
B0526033142165S11709657EA0098601062000000000000
B0526073142222S11709649EA0098901070000000000000
B0526113142252S11709593EA0099601076000000000000
B0526153142244S11709522EA0100801086000000000000
B0526193142187S11709500EA0101801090000000015000
B0526233142145S11709548EA0101901088000000000000
B0526273142162S11709606EA0101601086000000000000
B0526313142214S11709631EA0101801090000000000000
B0526353142243S11709579EA0102501096000000015000
B0526393142191S11709541EA0103101100000000015000
B0526433142155S11709601EA0103501104000000015000
B0526473142188S11709648EA0104501117000000015000
B0526513142229S11709617EA0105601128000000015000
B0526553142212S11709554EA0106701140000000015000
B0526593142152S11709550EA0107301143000000015000
B0527033142121S11709611EA0107401149000000015000
B0527073142144S11709665EA0107801156000000015000
B0527113142192S11709657EA0108401162000000015000
B0527153142194S11709593EA0108701162000000015000
B0527193142132S11709576EA0109401176000000015000
B0527233142114S11709633EA0110501187000000015000
B0527273142152S11709666EA0110601188000000015000
B0527313142192S11709630EA0110701189000000015000
B0527353142177S11709559EA0111201196000000015000
B0527393142117S11709552EA0112001200000000015000
B0527433142083S11709609EA0111901201000000015000
B0527473142113S11709652EA0112401206000000015000
B0527513142152S11709613EA0112801209000000015000
B0527553142143S11709537EA0112801209000000015000
B0527593142091S11709490EA0113401215000000015000
B0528033142022S11709489EA0113201208000000015000
B0528073141954S11709520EA0112301203000000015000
B0528113141889S11709562EA0111401191000000000000
B0528153141820S11709607EA0110301183000000000000
B0528193141750S11709653EA0109901183000000000000
B0528233141681S11709700EA0110101187000000000000
B0528273141615S11709749EA0110301186000000000000
B0528313141549S11709797EA0110001179000000000000
B0528353141480S11709845EA0109201165000000000000
B0528393141411S11709897EA0108001156000000000000
B0528433141342S11709948EA0107301145000000000000
B0528473141269S11709992EA0106301134000000000000
B0528513141189S11710016EA0106501136000000000000
B0528553141109S11710014EA0107001145000000000000
B0528593141035S11710017EA0108401156000000000000
B0529033140965S11710027EA0109201163000000000000
B0529073140896S11710038EA0109501165000000000000
B0529113140836S11710072EA0109601168000000000000
B0529153140856S11710130EA0109901182000000000000
B0529193140904S11710112EA0110901192000000000000
B0529233140909S11710049EA0111601197000000000000
B0529273140873S11709994EA0111101189000000000000
B0529313140812S11709975EA0110801190000000000000
B0529353140748S11709978EA0110201177000000000000
B0529393140682S11710007EA0108501160000000000000
B0529433140615S11710047EA0106701143000000000000
B0529473140549S11710094EA0105201130000000000000
B0529513140483S11710144EA0103901116000000000000
B0529553140416S11710202EA0103301110000000000000
B0529593140354S11710261EA0103401112000000000000
B0530033140296S11710326EA0104601125000000000000
B0530073140270S11710400EA0106001138000000000000
B0530113140319S11710429EA0107101142000000000000
B0530153140362S11710382EA0106801138000000000000
B0530193140358S11710311EA0107301146000000000000
B0530233140299S11710289EA0108401156000000000000
B0530273140268S11710347EA0109201166000000015000
B0530313140309S11710380EA0109701170000000015000
B0530353140337S11710330EA0110401176000000015000
B0530393140310S11710268EA0110601177000000015000
B0530433140246S11710264EA0111601192000000015000
B0530473140221S11710326EA0112901203000000015000
B0530513140267S11710356EA0113901217000000015000
B0530553140284S11710303EA0115001226000000015000
B0530593140234S11710261EA0115301232000000015000
B0531033140172S11710290EA0116301249000000015000
B0531073140193S11710352EA0117701262000000015000
B0531113140240S11710332EA0119201279000000015000
B0531153140224S11710270EA0120301284000000015000
B0531193140160S11710272EA0120801293000000015000
B0531233140136S11710339EA0122801321000000015000
B0531273140176S11710372EA0124801331000000015000
B0531313140206S11710325EA0125401337000000015000
B0531353140167S11710274EA0126401346000000015000
B0531393140103S11710293EA0127301360000000015000
B0531433140086S11710361EA0129401380000000015000
B0531473140123S11710400EA0130801390000000015000
B0531513140167S11710371EA0131601399000000015000
B0531553140158S11710308EA0132101403000000015000
B0531593140103S11710278EA0132801413000000015000
B0532033140046S11710311EA0134201425000000015000
B0532073140043S11710378EA0135301435000000015000
B0532113140088S11710378EA0136501448000000015000
B0532153140076S11710319EA0137301456000000015000
B0532193140015S11710311EA0138801471000000015000
B0532233139978S11710369EA0139001472000000015000
B0532273139990S11710438EA0139301478000000015000
B0532313140036S11710437EA0140601491000000015000
B0532353140037S11710378EA0141301498000000015000
B0532393139982S11710352EA0142701515000000015000
B0532433139928S11710389EA0143601516000000015000
B0532473139916S11710465EA0143101509000000015000
B0532513139954S11710507EA0143601522000000015000
B0532553139993S11710484EA0144401518000000015000
B0532593139987S11710416EA0143801516000000015000
B0533033139938S11710368EA0144701531000000015000
B0533073139877S11710391EA0146101541000000015000
B0533113139848S11710465EA0145601530000000000000
B0533153139811S11710547EA0144401520000000000000
B0533193139761S11710623EA0143801511000000000000
B0533233139699S11710694EA0141801495000000000000
B0533273139627S11710761EA0140901488000000000000
B0533313139556S11710824EA0140801487000000000000
B0533353139486S11710885EA0140801487000000000000
B0533393139417S11710948EA0140701483000000000000
B0533433139350S11711010EA0140401479000000000000
B0533473139288S11711078EA0140001471000000000000
B0533513139222S11711143EA0138901461000000000000
B0533553139154S11711209EA0138701460000000000000
B0533593139088S11711273EA0139001466000000000000
B0534033139024S11711334EA0139401466000000000000
B0534073138960S11711396EA0138901458000000000000
B0534113138895S11711460EA0138401455000000000000
B0534153138834S11711524EA0138401456000000000000
B0534193138775S11711585EA0138401454000000000000
B0534233138715S11711646EA0137901448000000000000
B0534273138652S11711708EA0137101443000000000000
B0534313138591S11711769EA0137001440000000000000
B0534353138530S11711828EA0137001443000000000000
B0534393138472S11711880EA0137401448000000000000
B0534433138413S11711925EA0138401458000000000000
B0534473138357S11711968EA0139401465000000000000
B0534513138301S11712011EA0139601467000000000000
B0534553138245S11712054EA0140501477000000000000
B0534593138191S11712101EA0140901478000000000000
B0535033138177S11712167EA0141201479000000000000
B0535073138217S11712196EA0140201469000000000000
B0535113138249S11712152EA0139901470000000000000
B0535153138225S11712089EA0140301477000000000000
B0535193138166S11712054EA0140701485000000000000
B0535233138099S11712050EA0141201486000000000000
B0535273138035S11712075EA0141201483000000000000
B0535313137978S11712123EA0140201471000000000000
B0535353137920S11712181EA0138501454000000000000
B0535393137862S11712248EA0136901437000000000000
B0535433137798S11712315EA0135001419000000000000
B0535473137737S11712386EA0134301417000000000000
B0535513137676S11712453EA0134301415000000000000
B0535553137611S11712514EA0134001413000000000000
B0535593137546S11712574EA0134101410000000000000
B0536033137482S11712634EA0133201400000000000000
B0536073137420S11712698EA0132401397000000000000
B0536113137364S11712764EA0132701400000000000000
B0536153137322S11712835EA0133001401000000000000
B0536193137312S11712912EA0132901399000000000000
B0536233137332S11712981EA0132401394000000000000
B0536273137368S11713038EA0131901386000000000000
B0536313137412S11713089EA0130901377000000000000
B0536353137462S11713137EA0129701366000000000000
B0536393137512S11713182EA0129001357000000000000
B0536433137566S11713223EA0128001347000000000000
B0536473137623S11713260EA0127101338000000000000
B0536513137681S11713297EA0126501332000000000000
B0536553137740S11713331EA0125601324000000000000
B0536593137801S11713364EA0125001318000000000000
B0537033137862S11713397EA0124201309000000000000
B0537073137923S11713431EA0123401303000000000000
B0537113137985S11713463EA0122901299000000000000
B0537153138049S11713494EA0122401291000000000000
B0537193138115S11713527EA0121301281000000000000
B0537233138182S11713558EA0120601273000000000000
B0537273138249S11713593EA0120101271000000000000
B0537313138316S11713624EA0120101272000000000000
B0537353138378S11713648EA0120201271000000000000
B0537393138439S11713665EA0119901264000000000000
B0537433138500S11713679EA0119101257000000000000
B0537473138561S11713692EA0118601250000000000000
B0537513138622S11713710EA0117801243000000000000
B0537553138684S11713731EA0116901234000000000000
B0537593138746S11713754EA0116801233000000000000
B0538033138807S11713779EA0116301228000000000000
B0538073138869S11713805EA0115301219000000000000
B0538113138933S11713831EA0114501208000000000000
B0538153138997S11713851EA0113501199000000000000
B0538193139061S11713861EA0112901193000000000000
B0538233139123S11713875EA0112301187000000000000
B0538273139185S11713892EA0111701180000000000000
B0538313139248S11713910EA0111201176000000000000
B0538353139310S11713931EA0110201167000000000000
B0538393139373S11713956EA0109701161000000000000
B0538433139434S11713986EA0109101154000000000000
B0538473139496S11714016EA0108101143000000000000
B0538513139561S11714039EA0107001135000000000000
B0538553139627S11714061EA0107001139000000000000
B0538593139688S11714060EA0108001147000000000000
B0539033139746S11714039EA0107501137000000000000
B0539073139804S11714011EA0106901133000000000000
B0539113139857S11713975EA0107301137000000000000
B0539153139908S11713935EA0107301136000000000000
B0539193139960S11713891EA0107101136000000000000
B0539233140000S11713834EA0108001149000000000000
B0539273139973S11713770EA0110001173000000000000
B0539313139909S11713767EA0110401171000000000000
B0539353139873S11713834EA0110301173000000000000
B0539393139890S11713901EA0110401176000000000000
B0539433139938S11713934EA0110801179000000000000
B0539473139987S11713916EA0111201180000000000000
B0539513139986S11713852EA0111601186000000000000
B0539553139935S11713817EA0111601184000000000000
B0539593139876S11713845EA0111301185000000000000
B0540033139856S11713914EA0111701190000000000000
B0540073139882S11713972EA0111801188000000000000
B0540113139934S11714001EA0111601188000000000000
B0540153139993S11714008EA0111201183000000000000
B0540193140051S11714003EA0110001166000000000000
B0540233140114S11713978EA0108401155000000000000
B0540273140176S11713947EA0108001151000000000000
B0540313140236S11713913EA0108101147000000000000
B0540353140296S11713882EA0108701148000000000000
B0540393140357S11713847EA0107901137000000000000
B0540433140422S11713808EA0107401144000000000000
B0540473140479S11713765EA0108801159000000000000
B0540513140478S11713704EA0111101182000000000000
B0540553140420S11713686EA0111501182000000000000
B0540593140368S11713728EA0111401185000000000000
B0541033140381S11713795EA0112501194000000000000
B0541073140433S11713792EA0112601194000000000000
B0541113140427S11713731EA0112701194000000000000
B0541153140363S11713731EA0113201206000000000000
B0541193140338S11713796EA0115201223000000000000
B0541233140371S11713842EA0115501223000000000000
B0541273140411S11713813EA0115601225000000000000
B0541313140390S11713758EA0115701225000000000000
B0541353140329S11713765EA0116101235000000000000
B0541393140306S11713826EA0117001241000000000000
B0541433140342S11713865EA0117401244000000000000
B0541473140375S11713827EA0117401243000000000000
B0541513140344S11713771EA0117201243000000000000
B0541553140286S11713767EA0118101256000000000000
B0541593140257S11713825EA0118701255000000000000
B0542033140285S11713878EA0118101254000000000000
B0542073140336S11713896EA0118601258000000000000
B0542113140389S11713890EA0118201252000000000000
B0542153140446S11713866EA0117801247000000000000
B0542193140505S11713831EA0118001253000000000000
B0542233140530S11713771EA0120401280000000000000
B0542273140489S11713728EA0121901288000000000000
B0542313140428S11713756EA0121901295000000000000
B0542353140427S11713816EA0123501310000000000000
B0542393140474S11713814EA0124301316000000000000
B0542433140472S11713752EA0125001325000000000000
B0542473140413S11713738EA0126201338000000000000
B0542513140384S11713796EA0126901350000000000000
B0542553140416S11713838EA0128001362000000000000
B0542593140454S11713809EA0129001368000000000000
B0543033140441S11713744EA0129301373000000000000
B0543073140383S11713719EA0129901379000000000000
B0543113140345S11713775EA0130401385000000000000
B0543153140374S11713822EA0131301393000000000000
B0543193140411S11713786EA0131601396000000000000
B0543233140375S11713731EA0133501416000000015000
B0543273140319S11713745EA0134501424000000015000
B0543313140305S11713809EA0134201424000000000000
B0543353140345S11713839EA0134301429000000000000
B0543393140376S11713796EA0134701432000000000000
B0543433140338S11713745EA0135601440000000000000
B0543473140277S11713778EA0135101434000000000000
B0543513140266S11713847EA0136101448000000000000
B0543553140298S11713888EA0136901452000000000000
B0543593140349S11713882EA0136701448000000000000
B0544033140372S11713830EA0137001454000000000000
B0544073140333S11713786EA0137901463000000000000
B0544113140275S11713808EA0137901461000000000000
B0544153140253S11713873EA0137401458000000000000
B0544193140283S11713927EA0137201458000000000000
B0544233140332S11713952EA0137201456000000000000
B0544273140388S11713964EA0137001450000000000000
B0544313140450S11713969EA0136501447000000000000
B0544353140517S11713978EA0136001436000000000000
B0544393140585S11713985EA0134801428000000000000
B0544433140657S11713983EA0134301419000000000000
B0544473140731S11713975EA0133201409000000000000
B0544513140806S11713972EA0132301403000000000000
B0544553140881S11713969EA0132001397000000000000
B0544593140955S11713970EA0131301389000000000000
B0545033141030S11713975EA0130101376000000000000
B0545073141105S11713986EA0129301367000000000000
B0545113141181S11713996EA0128501357000000000000
B0545153141256S11714009EA0127601351000000000000
B0545193141329S11714021EA0127101346000000000000
B0545233141399S11714034EA0126501337000000000000
B0545273141471S11714047EA0125501328000000000000
B0545313141541S11714064EA0125001323000000000000
B0545353141610S11714081EA0124601318000000000000
B0545393141677S11714096EA0123801309000000000000
B0545433141748S11714109EA0122801295000000000000
B0545473141820S11714124EA0121601286000000000000
B0545513141893S11714142EA0121201288000000000000
B0545553141962S11714143EA0122601305000000000000
B0545593142023S11714129EA0123801314000000000000
B0546033142082S11714103EA0124301314000000000000
B0546073142138S11714077EA0124901322000000000000
B0546113142190S11714050EA0125201320000000000000
B0546153142243S11714016EA0124601312000000000000
B0546193142299S11713979EA0124401312000000000000
B0546233142360S11713949EA0124101308000000000000
B0546273142425S11713925EA0122801294000000000000
B0546313142495S11713907EA0121201281000000000000
B0546353142568S11713897EA0120001268000000000000
B0546393142645S11713904EA0119001260000000000000
B0546433142720S11713917EA0118301254000000000000
B0546473142793S11713931EA0117801249000000000000
B0546513142863S11713946EA0117201240000000000000
B0546553142936S11713960EA0116001226000000000000
B0546593143011S11713975EA0114501213000000000000
B0547033143085S11713990EA0113701206000000000000
B0547073143159S11714009EA0112401193000000000000
B0547113143235S11714027EA0111601187000000000000
B0547153143309S11714043EA0111001179000000000000
B0547193143383S11714060EA0110101170000000000000
B0547233143456S11714077EA0109601164000000000000
B0547273143527S11714096EA0108601151000000000000
B0547313143600S11714121EA0106901136000000000000
B0547353143674S11714146EA0105801123000000000000
B0547393143747S11714170EA0105001120000000000000
B0547433143817S11714195EA0104601112000000000000
B0547473143886S11714224EA0103601099000000000000
B0547513143959S11714247EA0102601093000000000000
B0547553144030S11714256EA0102901101000000000000
B0547593144094S11714248EA0103501102000000000000
B0548033144155S11714238EA0103101099000000000000
B0548073144216S11714224EA0102501088000000000000
B0548113144279S11714209EA0101401075000000000000
B0548153144341S11714195EA0100001059000000000000
B0548193144409S11714196EA0097901040000000000000
B0548233144476S11714212EA0096201024000000000000
B0548273144544S11714238EA0094901013000000000000
B0548313144606S11714276EA0094201007000000000000
B0548353144665S11714326EA0093401001000000000000
B0548393144719S11714382EA0093200998000000000000
B0548433144774S11714438EA0092600991000000000000
B0548473144830S11714494EA0091600981000000000000
B0548513144887S11714549EA0090400969000000000000
B0548553144944S11714606EA0089600964000000000000
B0548593145003S11714651EA0090200974000000000000
B0549033145064S11714659EA0091800985000000000000
B0549073145122S11714644EA0091500974000000000000
B0549113145186S11714633EA0089800962000000000000
B0549153145251S11714651EA0089600962000000000000
B0549193145310S11714685EA0089600959000000000000
B0549233145367S11714729EA0088700950000000000000
B0549273145423S11714781EA0087600940000000000000
B0549313145479S11714833EA0086700932000000000000
B0549353145535S11714885EA0085500921000000000000
B0549393145589S11714937EA0085000917000000000000
B0549433145641S11714991EA0084300907000000000000
B0549473145694S11715045EA0083100896000000000000
B0549513145746S11715100EA0082600892000000000000
B0549553145798S11715155EA0081700880000000000000
B0549593145849S11715210EA0080600871000000000000
B0550033145901S11715266EA0080100866000000000000
B0550073145951S11715324EA0080400872000000000000
B0550113146000S11715379EA0080700873000000000000
B0550153146051S11715431EA0080800878000000000000
B0550193146096S11715481EA0081600881000000000000
B0550233146148S11715521EA0081000870000000000000
B0550273146205S11715559EA0079600853000000000000
B0550313146266S11715599EA0077700837000000000000
B0550353146329S11715636EA0076300824000000000000
B0550393146391S11715671EA0075000811000000000000
B0550433146455S11715704EA0074000801000000000000
B0550473146516S11715737EA0073100789000000000000
B0550513146580S11715771EA0072500784000000000000
B0550553146646S11715789EA0072700793000000000000
B0550593146667S11715740EA0075600823000000000000
B0551033146617S11715715EA0076900829000000000000
B0551073146568S11715762EA0076400825000000000000
B0551113146576S11715832EA0076000826000000000000
B0551153146628S11715855EA0076000826000000000000
B0551193146673S11715821EA0076100831000000000000
B0551233146659S11715756EA0076700835000000000000
B0551273146594S11715766EA0077100844000000015000
B0551313146602S11715837EA0077500852000000015000
B0551353146645S11715829EA0078800863000000015000
B0551393146642S11715767EA0078700856000000015000
B0551433146584S11715742EA0078800866000000015000
B0551473146551S11715806EA0079900871000000015000
B0551513146588S11715850EA0080300875000000015000
B0551553146624S11715816EA0080300878000000015000
B0551593146614S11715749EA0080500877000000015000
B0552033146555S11715725EA0080600878000000015000
B0552073146517S11715793EA0080100874000000015000
B0552113146543S11715855EA0080600883000000015000
B0552153146597S11715876EA0080900881000000015000
B0552193146643S11715840EA0081000882000000015000
B0552233146667S11715773EA0081700890000000015000
B0552273146614S11715737EA0082000890000000015000
B0552313146580S11715793EA0082600896000000000000
B0552353146619S11715829EA0083000905000000000000
B0552393146653S11715784EA0084000913000000000000
B0552433146627S11715720EA0084000910000000000000
B0552473146563S11715723EA0084800922000000000000
B0552513146541S11715785EA0086100932000000000000
B0552553146581S11715823EA0086100932000000000000
B0552593146621S11715782EA0086900942000000000000
B0553033146610S11715715EA0087400943000000000000
B0553073146550S11715693EA0088200955000000000000
B0553113146510S11715743EA0089300966000000000000
B0553153146524S11715807EA0089700970000000000000
B0553193146572S11715801EA0090200982000000000000
B0553233146571S11715738EA0091000981000000000000
B0553273146512S11715715EA0091700991000000015000
B0553313146473S11715766EA0092901004000000015000
B0553353146497S11715825EA0092701000000000015000
B0553393146545S11715812EA0093301014000000015000
B0553433146543S11715751EA0094501018000000000000
B0553473146491S11715720EA0094601019000000000000
B0553513146435S11715759EA0095401029000000000000
B0553553146430S11715828EA0096501037000000000000
B0553593146474S11715859EA0096901040000000000000
B0554033146511S11715820EA0097701050000000000000
B0554073146493S11715760EA0098501057000000000000
B0554113146435S11715749EA0099201063000000000000
B0554153146395S11715805EA0099701071000000000000
B0554193146404S11715873EA0100301076000000000000
B0554233146452S11715892EA0100701082000000000000
B0554273146473S11715841EA0101801088000000000000
B0554313146442S11715786EA0101901091000000000000
B0554353146383S11715782EA0103001103000000000000
B0554393146344S11715837EA0103701107000000000000
B0554433146357S11715903EA0103901112000000000000
B0554473146407S11715914EA0103801111000000000000
B0554513146420S11715858EA0104901124000000000000
B0554553146382S11715811EA0105601129000000000000
B0554593146321S11715821EA0105701129000000000000
B0555033146298S11715890EA0105901135000000000000
B0555073146333S11715936EA0106801141000000000000
B0555113146381S11715918EA0106701140000000000000
B0555153146394S11715858EA0107101146000000000000
B0555193146350S11715812EA0107701149000000000000
B0555233146290S11715834EA0108301155000000000000
B0555273146268S11715902EA0108601158000000000000
B0555313146303S11715948EA0108601157000000000000
B0555353146352S11715925EA0108901161000000000000
B0555393146355S11715862EA0109101163000000000000
B0555433146313S11715805EA0108701158000000000000
B0555473146246S11715806EA0109001166000000000000
B0555513146225S11715877EA0109401166000000000000
B0555553146272S11715920EA0109001166000000000000
B0555593146334S11715914EA0109001163000000000000
B0556033146377S11715867EA0109201166000000000000
B0556073146344S11715811EA0109001160000000000000
B0556113146270S11715812EA0108201151000000000000
B0556153146199S11715850EA0108101153000000000000
B0556193146201S11715923EA0109301168000000000000
B0556233146253S11715951EA0110201173000000000000
B0556273146299S11715924EA0110901177000000000000
B0556313146276S11715870EA0110601174000000000000
B0556353146214S11715888EA0110101170000000000000
B0556393146204S11715959EA0110801180000000000000
B0556433146246S11716003EA0111301189000000000000
B0556473146296S11715993EA0112601202000000000000
B0556513146302S11715935EA0113301203000000000000
B0556553146247S11715914EA0113001199000000000000
B0556593146213S11715972EA0112601194000000000000
B0557033146250S11716028EA0112501204000000000000
B0557073146305S11716057EA0113901218000000000000
B0557113146347S11716023EA0114901222000000000000
B0557153146322S11715963EA0114401211000000000000
B0557193146261S11715971EA0113701208000000000000
B0557233146247S11716042EA0113701209000000000000
B0557273146290S11716100EA0114001216000000000000
B0557313146348S11716140EA0113801211000000000000
B0557353146417S11716166EA0112101194000000000000
B0557393146490S11716167EA0110801185000000000000
B0557433146564S11716165EA0109601168000000000000
B0557473146645S11716174EA0107701152000000000000
B0557513146723S11716200EA0107701158000000000000
B0557553146794S11716228EA0108001155000000000000
B0557593146867S11716257EA0107101145000000000000
B0558033146939S11716286EA0107101145000000000000
B0558073147007S11716317EA0106301135000000000000
B0558113147079S11716343EA0105401127000000000000
B0558153147154S11716367EA0103801109000000000000
B0558193147230S11716397EA0102401097000000000000
B0558233147303S11716430EA0101701090000000000000
B0558273147371S11716465EA0101701091000000000000
B0558313147436S11716500EA0101401085000000000000
B0558353147500S11716534EA0100801079000000000000
B0558393147564S11716569EA0100401074000000000000
B0558433147629S11716605EA0099301064000000000000
B0558473147694S11716643EA0098701059000000000000
B0558513147761S11716677EA0098701060000000000000
B0558553147829S11716708EA0098001054000000000000
B0558593147901S11716731EA0098001049000000000000
B0559033147972S11716750EA0097201043000000000000
B0559073148044S11716763EA0096801040000000000000
B0559113148114S11716780EA0096601035000000000000
B0559153148184S11716802EA0095901032000000000000
B0559193148252S11716824EA0096501038000000000000
B0559233148317S11716834EA0096501039000000000000
B0559273148376S11716843EA0097501047000000000000
B0559313148436S11716850EA0096801036000000000000
B0559353148500S11716865EA0095401017000000000000
B0559393148565S11716898EA0093901006000000000000
B0559433148629S11716934EA0093300998000000000000
B0559473148691S11716968EA0092500994000000000000
B0559513148749S11717001EA0093401006000000000000
B0559553148805S11717027EA0093801002000000000000
B0559593148866S11717045EA0092300987000000000000
B0600033148931S11717068EA0090800974000000000000
B0600073148994S11717099EA0090300971000000000000
B0600113149058S11717137EA0089900966000000000000
B0600153149117S11717184EA0089700969000000000000
B0600193149173S11717237EA0090400973000000000000
B0600233149227S11717288EA0090600971000000000000
B0600273149284S11717323EA0090900983000000000000
B0600313149320S11717284EA0093901011000000000000
B0600353149289S11717228EA0094201007000000000000
B0600393149228S11717238EA0093000997000000000000
B0600433149216S11717306EA0092100990000000000000
B0600473149263S11717349EA0092100995000000000000
B0600513149321S11717354EA0093501008000000000000
B0600553149320S11717290EA0094801019000000000000
B0600593149259S11717307EA0094201011000000015000
B0601033149268S11717375EA0095601032000000015000
B0601073149318S11717370EA0097501049000000000000
B0601113149331S11717310EA0098101053000000000000
B0601153149280S11717277EA0098201053000000000000
B0601193149240S11717327EA0099001062000000000000
B0601233149262S11717380EA0099601072000000000000
B0601273149310S11717359EA0100901082000000000000
B0601313149303S11717296EA0101701089000000000000
B0601353149247S11717285EA0102101088000000000000
B0601393149220S11717348EA0101801090000000000000
B0601433149262S11717384EA0102901107000000000000
B0601473149298S11717342EA0104201112000000000000
B0601513149272S11717283EA0104501118000000000000
B0601553149214S11717293EA0105001119000000000000
B0601593149194S11717361EA0105401127000000000000
B0602033149229S11717406EA0106801144000000000000
B0602073149273S11717380EA0107501145000000000000
B0602113149258S11717316EA0107301145000000000000
B0602153149202S11717313EA0108501158000000000000
B0602193149175S11717368EA0108601158000000000000
B0602233149202S11717420EA0109501173000000000000
B0602273149242S11717391EA0110701178000000000000
B0602313149232S11717326EA0109601169000000000000
B0602353149172S11717303EA0109801177000000000000
B0602393149125S11717350EA0110701182000000000000
B0602433149133S11717418EA0111301191000000000000
B0602473149182S11717406EA0112401200000000000000
B0602513149169S11717341EA0112901205000000000000
B0602553149108S11717340EA0113401210000000000000
B0602593149085S11717405EA0113901215000000000000
B0603033149130S11717437EA0115301235000000000000
B0603073149165S11717397EA0117201247000000000000
B0603113149146S11717337EA0116801239000000000000
B0603153149084S11717316EA0116201237000000000000
B0603193149022S11717353EA0116101233000000000000
B0603233148996S11717430EA0116201241000000000000
B0603273149030S11717483EA0118201264000000000000
B0603313149064S11717439EA0119901274000000015000
B0603353149025S11717387EA0120901287000000015000
B0603393148972S11717422EA0121701295000000015000
B0603433148977S11717489EA0123001310000000000000
B0603473149028S11717497EA0124601323000000000000
B0603513149046S11717436EA0125501334000000000000
B0603553148999S11717393EA0126701346000000000000
B0603593148950S11717433EA0127501354000000000000
B0604033148965S11717495EA0128301365000000000000
B0604073149019S11717498EA0129301378000000000000
B0604113149038S11717437EA0130601391000000000000
B0604153148989S11717397EA0131901402000000000000
B0604193148934S11717426EA0132801408000000000000
B0604233148930S11717493EA0133301414000000000000
B0604273148980S11717522EA0134301427000000000000
B0604313149022S11717482EA0135501436000000000000
B0604353149002S11717420EA0136201443000000000000
B0604393148941S11717417EA0136801451000000000000
B0604433148909S11717474EA0137601458000000000000
B0604473148941S11717527EA0138701471000000000000
B0604513148993S11717517EA0139701482000000000000
B0604553149009S11717457EA0140301484000000000000
B0604593148977S11717402EA0140701489000000000000
B0605033148917S11717396EA0140901488000000000000
B0605073148877S11717446EA0140801488000000000000
B0605113148898S11717508EA0141101494000000000000
B0605153148955S11717543EA0140801490000000000000
B0605193149012S11717523EA0141701500000000000000
B0605233149016S11717461EA0142401502000000000000
B0605273148964S11717432EA0140601483000000000000
B0605313148925S11717496EA0139001466000000000000
B0605353148972S11717562EA0137001451000000000000
B0605393149045S11717609EA0135101427000000000000
B0605433149126S11717645EA0133301416000000000000
B0605473149208S11717677EA0133201413000000000000
B0605513149289S11717708EA0132801405000000000000
B0605553149370S11717739EA0132001399000000000000
B0605593149449S11717768EA0131701395000000000000
B0606033149527S11717792EA0131401394000000000000
B0606073149602S11717818EA0131301392000000000000
B0606113149675S11717847EA0131101387000000000000
B0606153149748S11717882EA0130401381000000000000
B0606193149821S11717914EA0130601385000000000000
B0606233149893S11717937EA0130301379000000000000
B0606273149969S11717960EA0129501369000000000000
B0606313150046S11717989EA0128801368000000000000
B0606353150118S11718020EA0129201373000000000000
B0606393150186S11718052EA0129601374000000000000
B0606433150252S11718082EA0129101367000000000000
B0606473150321S11718113EA0128401361000000000000
B0606513150389S11718147EA0127901356000000000000
B0606553150455S11718184EA0127201349000000000000
B0606593150524S11718223EA0126401339000000000000
B0607033150590S11718264EA0126101339000000000000
B0607073150655S11718304EA0126201338000000000000
B0607113150719S11718345EA0125901335000000000000
B0607153150783S11718384EA0125501331000000000000
B0607193150849S11718419EA0125201330000000000000
B0607233150914S11718453EA0125001328000000000000
B0607273150978S11718489EA0124801324000000000000
B0607313151041S11718527EA0124401323000000000000
B0607353151105S11718562EA0124301320000000000000
B0607393151171S11718596EA0123601310000000000000
B0607433151240S11718633EA0122401303000000000000
B0607473151307S11718671EA0122201301000000000000
B0607513151373S11718707EA0121601292000000000000
B0607553151440S11718743EA0120701284000000000000
B0607593151507S11718779EA0119701274000000000000
B0608033151574S11718818EA0119201266000000000000
B0608073151642S11718857EA0118301256000000000000
B0608113151710S11718896EA0117301249000000000000
B0608153151777S11718934EA0116701243000000000000
B0608193151843S11718973EA0116201238000000000000
B0608233151911S11719010EA0115701229000000000000
B0608273151979S11719047EA0115001223000000000000
B0608313152049S11719082EA0114401217000000000000
B0608353152118S11719117EA0113701208000000000000
B0608393152187S11719152EA0112501199000000000000
B0608433152256S11719188EA0111901194000000000000
B0608473152322S11719227EA0111301184000000000000
B0608513152392S11719269EA0110401179000000000000
B0608553152460S11719307EA0111201187000000000000
B0608593152527S11719342EA0110901184000000000000
B0609033152595S11719378EA0110501180000000000000
B0609073152661S11719415EA0110201176000000000000
B0609113152729S11719451EA0109701169000000000000
B0609153152798S11719487EA0108601158000000000000
B0609193152867S11719523EA0107801147000000000000
B0609233152937S11719556EA0106501135000000000000
B0609273153008S11719588EA0105701128000000000000
B0609313153078S11719623EA0105001122000000000000
B0609353153147S11719658EA0104701117000000000000
B0609393153215S11719693EA0103901111000000000000
B0609433153281S11719727EA0103401106000000000000
B0609473153346S11719759EA0102901101000000000000
B0609513153411S11719792EA0102201090000000000000
B0609553153479S11719824EA0101101080000000000000
B0609593153548S11719857EA0100001069000000000000
B0610033153617S11719890EA0099701071000000000000
B0610073153683S11719923EA0100001071000000000000
B0610113153751S11719955EA0099901071000000000000
B0610153153818S11719980EA0100301079000000000000
B0610193153882S11719997EA0102001096000000000000
B0610233153935S11719975EA0103901114000000000000
B0610273153920S11719910EA0105601130000000000000
B0610313153852S11719905EA0107201140000000000000
B0610353153809S11719959EA0107701146000000000000
B0610393153823S11720017EA0108301151000000000000
B0610433153870S11720011EA0109101163000000000000
B0610473153883S11719948EA0110101172000000000000
B0610513153838S11719896EA0111001182000000000000
B0610553153769S11719901EA0111701189000000000000
B0610593153723S11719957EA0112201196000000000000
B0611033153722S11720020EA0113001203000000000000
B0611073153754S11720065EA0113201208000000000000
B0611113153803S11720074EA0113901216000000000000
B0611153153840S11720037EA0114901224000000000000
B0611193153827S11719975EA0115301227000000000000
B0611233153769S11719941EA0115501226000000000000
B0611273153702S11719963EA0115401229000000000000
B0611313153671S11720028EA0115601234000000000000
B0611353153683S11720095EA0116201242000000000000
B0611393153721S11720135EA0117101250000000000000
B0611433153762S11720113EA0118101262000000000000
B0611473153749S11720049EA0118801266000000000000
B0611513153691S11720018EA0118701266000000000000
B0611553153626S11720043EA0118901270000000000000
B0611593153588S11720106EA0119301274000000000000
B0612033153588S11720176EA0119201269000000000000
B0612073153619S11720232EA0118401259000000000000
B0612113153673S11720270EA0116901245000000000000
B0612153153738S11720301EA0116001238000000000000
B0612193153806S11720329EA0115701234000000000000
B0612233153881S11720352EA0114601223000000000000
B0612273153957S11720370EA0114201219000000000000
B0612313154035S11720384EA0113601207000000000000
B0612353154115S11720401EA0112001191000000000000
B0612393154194S11720414EA0111301193000000000000
B0612433154267S11720414EA0112501206000000000000
B0612473154333S11720409EA0113301211000000000000
B0612513154398S11720404EA0113501210000000000000
B0612553154464S11720404EA0112901201000000000000
B0612593154532S11720407EA0111901190000000000000
B0613033154602S11720414EA0110601179000000000000
B0613073154672S11720425EA0110001173000000000000
B0613113154742S11720436EA0109601169000000000000
B0613153154811S11720449EA0109201162000000000000
B0613193154880S11720462EA0108401151000000000000
B0613233154953S11720477EA0107001143000000000000
B0613273155022S11720494EA0107401147000000000000
B0613313155090S11720511EA0106501135000000000000
B0613353155158S11720525EA0105101120000000000000
B0613393155227S11720543EA0105401129000000000000
B0613433155294S11720561EA0106101132000000000000
B0613473155359S11720579EA0105801130000000000000
B0613513155422S11720599EA0105401125000000000000
B0613553155487S11720624EA0104601117000000000000
B0613593155556S11720654EA0103701103000000000000
B0614033155629S11720678EA0102601099000000000000
B0614073155703S11720704EA0102001092000000000000
B0614113155776S11720728EA0101901094000000000000
B0614153155845S11720751EA0102401098000000000000
B0614193155912S11720772EA0102601098000000000000
B0614233155980S11720793EA0102401098000000000000
B0614273156048S11720811EA0102301099000000000000
B0614313156114S11720825EA0102701102000000000000
B0614353156179S11720838EA0103501112000000000000
B0614393156240S11720851EA0104401119000000000000
B0614433156302S11720862EA0103901110000000000000
B0614473156370S11720871EA0103301107000000000000
B0614513156436S11720881EA0104601120000000000000
B0614553156497S11720880EA0105801138000000000000
B0614593156518S11720830EA0107701154000000000000
B0615033156469S11720799EA0107501143000000000000
B0615073156401S11720845EA0106001131000000000000
B0615113156378S11720930EA0106001137000000000000
B0615153156401S11721005EA0107001149000000000000
B0615193156449S11721053EA0107501153000000000000
B0615233156509S11721081EA0107701152000000000000
B0615273156574S11721099EA0107701155000000000000
B0615313156639S11721111EA0107401145000000000000
B0615353156709S11721123EA0105501126000000000000
B0615393156783S11721135EA0104301115000000000000
B0615433156860S11721146EA0103101104000000000000
B0615473156939S11721161EA0101901096000000000000
B0615513157016S11721174EA0102001098000000000000
B0615553157090S11721181EA0102901106000000000000
B0615593157163S11721193EA0102901105000000000000
B0616033157237S11721203EA0102601101000000000000
B0616073157311S11721215EA0101601091000000000000
B0616113157389S11721229EA0101401087000000000000
B0616153157465S11721246EA0101701093000000000000
B0616193157539S11721262EA0102401101000000000000
B0616233157613S11721276EA0103001107000000000000
B0616273157680S11721283EA0104201115000000000000
B0616313157722S11721240EA0105201125000000000000
B0616353157696S11721180EA0105401123000000000000
B0616393157625S11721158EA0104901118000000000000
B0616433157550S11721180EA0104601114000000000000
B0616473157506S11721252EA0104501119000000000000
B0616513157508S11721336EA0105101126000000000000
B0616553157541S11721405EA0105501126000000000000
B0616593157592S11721454EA0104901124000000000000
B0617033157654S11721484EA0104901121000000000000
B0617073157721S11721505EA0103401100000000000000
B0617113157794S11721522EA0101001079000000000000
B0617153157869S11721536EA0099701070000000000000
B0617193157942S11721549EA0099201065000000000000
B0617233158013S11721564EA0098901063000000000000
B0617273158085S11721579EA0098901062000000000000
B0617313158155S11721595EA0098901061000000000000
B0617353158225S11721610EA0098901064000000000000
B0617393158293S11721625EA0099701071000000000000
B0617433158358S11721636EA0100801083000000000000
B0617473158420S11721644EA0101901090000000000000
B0617513158477S11721631EA0103001104000000000000
B0617553158485S11721577EA0104101110000000000000
B0617593158429S11721558EA0104001111000000000000
B0618033158388S11721616EA0104001114000000000000
B0618073158390S11721687EA0104401119000000000000
B0618113158424S11721738EA0104701122000000000000
B0618153158473S11721749EA0104601115000000000000
B0618193158529S11721734EA0102901094000000000000
B0618233158590S11721707EA0100601069000000000000
B0618273158659S11721683EA0098101048000000000000
B0618313158731S11721669EA0096901043000000000000
B0618353158800S11721665EA0097101043000000000000
B0618393158863S11721666EA0097101041000000000000
B0618433158925S11721669EA0097301045000000000000
B0618473158986S11721673EA0098101054000000000000
B0618513159045S11721679EA0098601059000000000000
B0618553159104S11721681EA0099101060000000000000
B0618593159164S11721669EA0098101047000000000000
B0619033159227S11721655EA0096801032000000000000
B0619073159295S11721651EA0095501022000000000000
B0619113159364S11721656EA0094401012000000000000
B0619153159435S11721668EA0093401003000000000000
B0619193159502S11721694EA0093301000000000000000
B0619233159563S11721731EA0092900995000000000000
B0619273159617S11721781EA0092600993000000000000
B0619313159668S11721837EA0092100984000000000000
B0619353159718S11721898EA0090800973000000000000
B0619393159767S11721961EA0090000963000000000000
B0619433159818S11722024EA0089300961000000000000
B0619473159868S11722081EA0090200972000000000000
B0619513159924S11722073EA0091800987000000000000
B0619553159915S11722006EA0092300992000000000000
B0619593159855S11721982EA0092100985000000000000
B0620033159802S11722024EA0091300975000000000000
B0620073159806S11722099EA0091000978000000000000
B0620113159853S11722150EA0091400982000000000000
B0620153159911S11722149EA0092100991000000000000
B0620193159897S11722086EA0092500990000000000000
B0620233159837S11722090EA0092600996000000000000
B0620273159811S11722154EA0093501006000000000000
B0620313159851S11722204EA0094201010000000000000
B0620353159894S11722171EA0094701014000000000000
B0620393159876S11722108EA0094501014000000000000
B0620433159816S11722093EA0094901015000000000000
B0620473159762S11722134EA0094501011000000000000
B0620513159753S11722216EA0095101022000000000000
B0620553159803S11722241EA0095901031000000000000
B0620593159818S11722177EA0096101031000000000000
B0621033159776S11722128EA0096701044000000000000
B0621073159719S11722142EA0097901048000000000000
B0621113159694S11722212EA0097801052000000000000
B0621153159724S11722275EA0098801062000000000000
B0621193159775S11722260EA0099801072000000000000
B0621233159771S11722202EA0100401078000000000000
B0621273159720S11722167EA0099901071000000000000
B0621313159655S11722139EA0099301066000000000000
B0621353159586S11722117EA0098501053000000000000
B0621393159519S11722147EA0097301039000000000000
B0621433159519S11722234EA0096601037000000000000
B0621473159573S11722295EA0097101043000000000000
B0621513159642S11722321EA0097901052000000000000
B0621553159710S11722323EA0098901063000000000000
B0621593159764S11722290EA0100101073000000000000
B0622033159729S11722237EA0100701081000000000000
B0622073159680S11722279EA0102001096000000000000
B0622113159694S11722347EA0102401101000000000000
B0622153159747S11722359EA0103101110000000000000
B0622193159753S11722298EA0104001115000000000000
B0622233159699S11722262EA0104101117000000000000
B0622273159654S11722308EA0104901127000000000000
B0622313159676S11722371EA0105801133000000000000
B0622353159732S11722373EA0106601142000000000000
B0622393159755S11722316EA0107001142000000000000
B0622433159724S11722258EA0107301149000000000000
B0622473159667S11722253EA0108001151000000000000
B0622513159630S11722310EA0108201155000000000000
B0622553159651S11722371EA0109101167000000000000
B0622593159699S11722386EA0110201175000000000000
B0623033159728S11722338EA0110301173000000000000
B0623073159706S11722272EA0109601169000000000000
B0623113159654S11722228EA0109501167000000000000
B0623153159590S11722253EA0109001162000000000000
B0623193159571S11722328EA0109001164000000000000
B0623233159590S11722402EA0109701178000000000000
B0623273159638S11722431EA0111701196000000000000
B0623313159660S11722381EA0113001206000000000000
B0623353159616S11722341EA0113601209000000000000
B0623393159565S11722376EA0113901216000000000000
B0623433159565S11722442EA0114601222000000000000
B0623473159614S11722459EA0115101224000000000000
B0623513159647S11722402EA0114901221000000000000
B0623553159611S11722345EA0115501231000000000000
B0623593159554S11722363EA0116001238000000000000
B0624033159517S11722424EA0116401240000000000000
B0624073159520S11722494EA0116601243000000000000
B0624113159572S11722503EA0117401255000000000000
B0624153159577S11722441EA0118801269000000000000
B0624193159523S11722415EA0119501270000000000000
B0624233159472S11722461EA0119501274000000000000
B0624273159460S11722531EA0119901277000000000000
B0624313159487S11722591EA0119601272000000000000
B0624353159537S11722633EA0119201269000000000000
B0624393159595S11722645EA0119401274000000000000
B0624433159658S11722635EA0119901276000000000000
B0624473159710S11722605EA0120501285000000000000
B0624513159720S11722542EA0121301287000000000000
B0624553159737S11722481EA0120301272000000000000
B0624593159799S11722462EA0119001266000000000000
B0625033159867S11722477EA0119201268000000000000
B0625073159935S11722494EA0118401253000000000000
B0625113200005S11722529EA0116501236000000000000
B0625153200069S11722587EA0115201224000000000000
B0625193200124S11722659EA0114401220000000000000
B0625233200171S11722740EA0113401209000000000000
B0625273200212S11722828EA0112701202000000000000
B0625313200247S11722919EA0112301195000000000000
B0625353200275S11723013EA0111401183000000000000
B0625393200304S11723109EA0110001171000000000000
B0625433200335S11723203EA0109701172000000000000
B0625473200371S11723291EA0110501180000000000000
B0625513200410S11723377EA0111001185000000000000
B0625553200455S11723455EA0111201184000000000000
B0625593200499S11723530EA0110501174000000000000
B0626033200548S11723599EA0109701167000000000000
B0626073200596S11723668EA0109001160000000000000
B0626113200647S11723733EA0108301151000000000000
B0626153200699S11723793EA0107701148000000000000
B0626193200755S11723840EA0107701145000000000000
B0626233200820S11723853EA0107001139000000000000
B0626273200881S11723828EA0106101128000000000000
B0626313200932S11723777EA0105201121000000000000
B0626353200972S11723712EA0104701117000000000000
B0626393201005S11723641EA0104101108000000000000
B0626433201033S11723567EA0103201101000000000000
B0626473201063S11723488EA0102301091000000000000
B0626513201093S11723408EA0101701088000000000000
B0626553201123S11723330EA0101201084000000000000
B0626593201150S11723252EA0100901080000000000000
B0627033201175S11723174EA0100401077000000000000
B0627073201197S11723098EA0100001071000000000000
B0627113201219S11723018EA0099601066000000000000
B0627153201242S11722940EA0099001061000000000000
B0627193201267S11722862EA0098701057000000000000
B0627233201294S11722786EA0098001052000000000000
B0627273201323S11722711EA0097901049000000000000
B0627313201353S11722636EA0097101039000000000000
B0627353201383S11722561EA0096601034000000000000
B0627393201414S11722487EA0096101030000000000000
B0627433201447S11722414EA0095901025000000000000
B0627473201482S11722344EA0095101017000000000000
B0627513201517S11722273EA0094501009000000000000
B0627553201551S11722203EA0093401000000000000000
B0627593201583S11722133EA0093200998000000000000
B0628033201617S11722064EA0092300989000000000000
B0628073201648S11721995EA0091400980000000000000
B0628113201678S11721926EA0090800973000000000000
B0628153201707S11721859EA0090000960000000000000
B0628193201735S11721788EA0088300944000000000000
B0628233201765S11721718EA0087200933000000000000
B0628273201796S11721649EA0086800931000000000000
B0628313201827S11721582EA0086800937000000000000
B0628353201864S11721523EA0087400938000000000000
B0628393201909S11721482EA0087200935000000000000
B0628433201951S11721432EA0086600925000000000000
B0628473201993S11721378EA0084600902000000000000
B0628513202026S11721309EA0082800889000000000000
B0628553202052S11721232EA0081900883000000000000
B0628593202074S11721155EA0081300876000000000000
B0629033202093S11721076EA0081000874000000000000
B0629073202110S11721001EA0081200876000000000000
B0629113202142S11720932EA0080200864000000000000
B0629153202173S11720859EA0079300856000000000000
B0629193202201S11720784EA0078900851000000000000
B0629233202215S11720704EA0077900838000000000000
B0629273202224S11720620EA0076800831000000000000
B0629313202232S11720540EA0077100838000000000000
B0629353202236S11720464EA0077700840000000000000
B0629393202241S11720387EA0077200835000000000000
B0629433202250S11720313EA0077500838000000000000
B0629473202282S11720256EA0078200841000000000000
B0629513202321S11720206EA0077200832000000000000
B0629553202346S11720139EA0076500827000000000000
B0629593202364S11720066EA0076500826000000000000
B0630033202381S11719992EA0076500828000000000000
B0630073202427S11719957EA0077300842000000000000
B0630113202457S11720004EA0079200861000000000000
B0630153202415S11720053EA0078700848000000000000
B0630193202346S11720059EA0078000846000000000000
B0630233202275S11720062EA0077900845000000000000
B0630273202204S11720058EA0077900847000000000000
B0630313202149S11720020EA0078700852000000000000
B0630353202142S11719957EA0078600852000000000000
B0630393202188S11719939EA0079300860000000000000
B0630433202195S11719996EA0080300865000000000000
B0630473202137S11720020EA0080200869000000000000
B0630513202112S11719967EA0080600872000000000000
B0630553202150S11719939EA0080200867000000000000
B0630593202188S11719983EA0080400871000000000000
B0631033202155S11720046EA0081500883000000000000
B0631073202098S11720045EA0081900884000000000000
B0631113202078S11719989EA0081600879000000000000
B0631153202117S11719953EA0081300877000000000000
B0631193202168S11719967EA0082100887000000000000
B0631233202204S11719937EA0083300903000000000000
B0631273202165S11719896EA0084500914000000000000
B0631313202111S11719939EA0085500923000000000000
B0631353202121S11720001EA0086600937000000000000
B0631393202165S11720000EA0087900946000000000000
B0631433202173S11719946EA0088900960000000000000
B0631473202123S11719914EA0090100970000000000000
B0631513202063S11719945EA0090700975000000000000
B0631553202055S11720014EA0091500988000000000000
B0631593202094S11720045EA0093101002000000000000
B0632033202129S11720015EA0093701005000000000000
B0632073202112S11719959EA0094501014000000000000
B0632113202050S11719961EA0095001018000000000000
B0632153202013S11720027EA0095201023000000000000
B0632193202039S11720083EA0096101036000000000000
B0632233202084S11720076EA0097501048000000000000
B0632273202091S11720024EA0098401056000000000000
B0632313202042S11719993EA0099301065000000000000
B0632353201986S11720032EA0099601066000000000000
B0632393201982S11720105EA0100001076000000000000
B0632433202024S11720131EA0101201086000000000000
B0632473202054S11720093EA0102201092000000000000
B0632513202021S11720043EA0103001104000000000000
B0632553201957S11720053EA0103801108000000000000
B0632593201921S11720121EA0104201115000000000000
B0633033201933S11720186EA0105001123000000000000
B0633073201978S11720208EA0105201122000000000000
B0633113202022S11720179EA0105401126000000000000
B0633153202025S11720119EA0106201135000000000000
B0633193201977S11720076EA0106901139000000000000
B0633233201912S11720092EA0107501149000000000000
B0633273201889S11720161EA0108101152000000000000
B0633313201922S11720210EA0108401157000000000000
B0633353201961S11720188EA0108701158000000000000
B0633393201959S11720123EA0108601160000000000000
B0633433201907S11720082EA0109201164000000000000
B0633473201843S11720115EA0109501170000000000000
B0633513201829S11720188EA0110501181000000000000
B0633553201859S11720236EA0110901182000000000000
B0633593201904S11720219EA0110601179000000000000
B0634033201915S11720161EA0110901182000000000000
B0634073201879S11720105EA0111001184000000000000
B0634113201812S11720083EA0110801182000000000000
B0634153201738S11720084EA0110801182000000000000
B0634193201687S11720139EA0111901193000000000000
B0634233201695S11720208EA0111801190000000000000
B0634273201747S11720230EA0111201181000000000000
B0634313201804S11720217EA0110101176000000000000
B0634353201859S11720195EA0110801182000000000000
B0634393201911S11720163EA0110801179000000000000
B0634433201960S11720127EA0111401186000000000000
B0634473201954S11720071EA0112701200000000000000
B0634513201892S11720092EA0113201204000000000000
B0634553201878S11720163EA0113901216000000000000
B0634593201911S11720212EA0115101225000000000000
B0635033201954S11720196EA0115001222000000000000
B0635073201943S11720143EA0115501229000000000000
B0635113201882S11720148EA0115801233000000000000
B0635153201850S11720214EA0116901246000000000000
B0635193201863S11720277EA0117801252000000000000
B0635233201911S11720296EA0117201246000000000000
B0635273201944S11720251EA0117201248000000000000
B0635313201916S11720196EA0117701256000000000000
B0635353201856S11720201EA0118401261000000000000
B0635393201840S11720275EA0119101271000000000000
B0635433201881S11720316EA0120001275000000000000
B0635473201922S11720287EA0119501266000000000000
B0635513201944S11720225EA0118901265000000000000
B0635553201963S11720156EA0118501256000000000000
B0635593201980S11720079EA0116301233000000000000
B0636033201998S11719996EA0114401217000000000000
B0636073202015S11719909EA0113501211000000000000
B0636113202033S11719823EA0113201205000000000000
B0636153202052S11719734EA0112401196000000000000
B0636193202073S11719647EA0111601190000000000000
B0636233202095S11719560EA0110801183000000000000
B0636273202115S11719474EA0111001186000000000000
B0636313202137S11719394EA0111201185000000000000
B0636353202160S11719315EA0110601178000000000000
B0636393202184S11719235EA0110501179000000000000
B0636433202207S11719156EA0110601179000000000000
B0636473202232S11719077EA0110801185000000000000
B0636513202241S11719000EA0112301203000000000000
B0636553202195S11718962EA0115501234000000000000
B0636593202145S11719005EA0116901240000000000000
B0637033202149S11719074EA0116901239000000000000
B0637073202198S11719112EA0116801237000000000000
B0637113202251S11719097EA0116701239000000000000
B0637153202288S11719049EA0116901240000000000000
B0637193202314S11718992EA0117101244000000000000
B0637233202333S11718930EA0117501249000000000000
B0637273202327S11718863EA0118101255000000000000
B0637313202272S11718841EA0118901263000000000000
B0637353202227S11718886EA0119501267000000000000
B0637393202229S11718948EA0118901258000000000000
B0637433202276S11718974EA0118401258000000000000
B0637473202329S11718954EA0118601260000000000000
B0637513202376S11718915EA0119301269000000000000
B0637553202393S11718857EA0121001286000000000000
B0637593202360S11718801EA0121801292000000000000
B0638033202294S11718791EA0122401301000000000000
B0638073202263S11718847EA0123701315000000000000
B0638113202295S11718893EA0124301315000000000000
B0638153202342S11718870EA0124401321000000000000
B0638193202338S11718805EA0126001340000000000000
B0638233202286S11718784EA0127301346000000000000
B0638273202237S11718830EA0127101344000000000000
B0638313202238S11718897EA0127701353000000000000
B0638353202279S11718935EA0128301361000000000000
B0638393202329S11718934EA0128901364000000000000
B0638433202363S11718887EA0127601344000000000000
B0638473202383S11718813EA0124901321000000000000
B0638513202398S11718728EA0123501311000000000000
B0638553202411S11718640EA0122601303000000000000
B0638593202425S11718549EA0122001296000000000000
B0639033202438S11718458EA0121501292000000000000
B0639073202451S11718369EA0121201291000000000000
B0639113202462S11718282EA0121401292000000000000
B0639153202474S11718197EA0121601293000000000000
B0639193202485S11718111EA0122001297000000000000
B0639233202497S11718029EA0122301299000000000000
B0639273202507S11717948EA0122301296000000000000
B0639313202522S11717868EA0121601287000000000000
B0639353202540S11717786EA0120701276000000000000
B0639393202558S11717700EA0119301266000000000000
B0639433202578S11717615EA0118901263000000000000
B0639473202596S11717535EA0118501258000000000000
B0639513202614S11717457EA0118301256000000000000
B0639553202630S11717381EA0118101252000000000000
B0639593202645S11717307EA0117301243000000000000
B0640033202661S11717231EA0116301235000000000000
B0640073202676S11717155EA0115901232000000000000
B0640113202688S11717081EA0115901226000000000000
B0640153202698S11717003EA0114501209000000000000
B0640193202715S11716921EA0113001200000000000000
B0640233202737S11716842EA0113101205000000000000
B0640273202763S11716772EA0114701224000000000000
B0640313202802S11716718EA0114801217000000000000
B0640353202848S11716672EA0113501203000000000000
B0640393202886S11716613EA0112501195000000000000
B0640433202913S11716546EA0111901190000000000000
B0640473202938S11716477EA0111501185000000000000
B0640513202960S11716406EA0111001180000000000000
B0640553202979S11716335EA0110801181000000000000
B0640593203000S11716262EA0111201184000000000000
B0641033203020S11716188EA0111301185000000000000
B0641073203051S11716120EA0110901178000000000000
B0641113203086S11716052EA0109901169000000000000
B0641153203116S11715976EA0109501167000000000000
B0641193203150S11715906EA0110501181000000000000
B0641233203192S11715854EA0112301196000000000000
B0641273203198S11715789EA0113401208000000000000
B0641313203127S11715780EA0114801226000000000000
B0641353203088S11715844EA0115401231000000000000
B0641393203104S11715907EA0115001225000000000000
B0641433203155S11715931EA0114801225000000000000
B0641473203211S11715919EA0115301232000000000000
B0641513203228S11715863EA0116801247000000000000
B0641553203177S11715836EA0118701263000000000000
B0641593203122S11715879EA0118301252000000000000
B0642033203112S11715957EA0117601251000000000000
B0642073203156S11715994EA0118201261000000000000
B0642113203202S11715968EA0119101266000000000000
B0642153203202S11715902EA0119301269000000000000
B0642193203152S11715867EA0120301285000000000000
B0642233203096S11715912EA0120901287000000000000
B0642273203095S11715985EA0121301300000000000000
B0642313203138S11716010EA0123001313000000000000
B0642353203174S11715972EA0122801305000000000000
B0642393203150S11715912EA0122801310000000000000
B0642433203085S11715916EA0124601327000000000000
B0642473203044S11715974EA0125201330000000000000
B0642513203057S11716036EA0125901340000000000000
B0642553203101S11716050EA0126701344000000000000
B0642593203131S11716005EA0126201338000000000000
B0643033203112S11715944EA0126501343000000000000
B0643073203052S11715916EA0126901347000000000000
B0643113202995S11715964EA0127601354000000000000
B0643153202999S11716032EA0128601364000000000000
B0643193203043S11716057EA0128801365000000000000
B0643233203086S11716035EA0129001367000000000000
B0643273203105S11715979EA0128501358000000000000
B0643313203113S11715907EA0128101358000000000000
B0643353203124S11715833EA0128101355000000000000
B0643393203137S11715756EA0127501349000000000000
B0643433203148S11715677EA0126001333000000000000
B0643473203161S11715594EA0124201318000000000000
B0643513203179S11715508EA0123301306000000000000
B0643553203200S11715424EA0122301299000000000000
B0643593203225S11715340EA0121701294000000000000
B0644033203247S11715260EA0121101285000000000000
B0644073203269S11715177EA0119701271000000000000
B0644113203290S11715095EA0118701264000000000000
B0644153203311S11715013EA0118801263000000000000
B0644193203332S11714934EA0118201255000000000000
B0644233203354S11714854EA0117401245000000000000
B0644273203377S11714776EA0116701239000000000000
B0644313203400S11714700EA0116001232000000000000
B0644353203423S11714622EA0115501225000000000000
B0644393203441S11714540EA0114201215000000000000
B0644433203459S11714455EA0113301204000000000000
B0644473203475S11714369EA0112501196000000000000
B0644513203488S11714284EA0112101192000000000000
B0644553203501S11714199EA0112101192000000000000
B0644593203515S11714117EA0111301183000000000000
B0645033203530S11714031EA0110501172000000000000
B0645073203545S11713946EA0109901168000000000000
B0645113203558S11713861EA0109201161000000000000
B0645153203569S11713778EA0108901160000000000000
B0645193203581S11713699EA0108701156000000000000
B0645233203593S11713622EA0108701156000000000000
B0645273203606S11713548EA0108201149000000000000
B0645313203619S11713472EA0107401138000000000000
B0645353203629S11713394EA0106301126000000000000
B0645393203640S11713319EA0105701125000000000000
B0645433203653S11713245EA0105801126000000000000
B0645473203671S11713175EA0106701139000000000000
B0645513203703S11713121EA0107901149000000000000
B0645553203741S11713078EA0108401152000000000000
B0645593203780S11713037EA0108401151000000000000
B0646033203820S11712995EA0108101147000000000000
B0646073203863S11712948EA0107801142000000000000
B0646113203909S11712898EA0107201139000000000000
B0646153203958S11712844EA0107501142000000000000
B0646193204005S11712790EA0108401157000000000000
B0646233204017S11712722EA0110901178000000000000
B0646273203961S11712690EA0112201189000000000000
B0646313203901S11712739EA0112801199000000000000
B0646353203893S11712815EA0113701213000000000000
B0646393203931S11712863EA0115601230000000000000
B0646433203984S11712865EA0116201234000000000000
B0646473204021S11712813EA0116501239000000000000
B0646513204004S11712750EA0117101244000000000000
B0646553203943S11712731EA0117401248000000000000
B0646593203888S11712782EA0117601249000000000000
B0647033203880S11712857EA0118701264000000000000
B0647073203920S11712900EA0120201279000000000000
B0647113203970S11712883EA0121001285000000000000
B0647153203988S11712824EA0120701280000000000000
B0647193203957S11712765EA0120401281000000000000
B0647233203896S11712753EA0121101288000000000000
B0647273203841S11712794EA0121401290000000000000
B0647313203814S11712865EA0122001301000000000000
B0647353203826S11712928EA0123701316000000000000
B0647393203875S11712932EA0124001315000000000000
B0647433203892S11712872EA0123601313000000000000
B0647473203840S11712831EA0123801317000000000000
B0647513203783S11712870EA0124201320000000000000
B0647553203767S11712945EA0125101333000000000000
B0647593203788S11713006EA0126001338000000000000
B0648033203835S11713033EA0126301340000000000000
B0648073203883S11713016EA0126301340000000000000
B0648113203918S11712968EA0125701331000000000000
B0648153203943S11712899EA0124301312000000000000
B0648193203963S11712816EA0122401297000000000000
B0648233203982S11712729EA0121301280000000000000
B0648273204002S11712638EA0118801256000000000000
B0648313204021S11712542EA0117001242000000000000
B0648353204037S11712447EA0116201234000000000000
B0648393204054S11712354EA0115301226000000000000
B0648433204070S11712265EA0115201227000000000000
B0648473204084S11712176EA0114901221000000000000
B0648513204099S11712089EA0114301216000000000000
B0648553204110S11712002EA0114301218000000000000
B0648593204122S11711916EA0114501214000000000000
B0649033204134S11711828EA0114001217000000000000
B0649073204147S11711741EA0114601216000000000000
B0649113204164S11711652EA0113701205000000000000
B0649153204180S11711563EA0113401204000000000000
B0649193204206S11711478EA0113501207000000000000
B0649233204234S11711399EA0113701206000000000000
B0649273204257S11711318EA0113301204000000000000
B0649313204281S11711238EA0113401207000000000000
B0649353204304S11711165EA0114401220000000000000
B0649393204334S11711101EA0116001236000000000000
B0649433204352S11711035EA0117601249000000000000
B0649473204313S11710985EA0119401268000000000000
B0649513204260S11711024EA0120301270000000000000
B0649553204260S11711095EA0119301262000000000000
B0649593204307S11711134EA0119601270000000000000
B0650033204353S11711115EA0121301288000000000000
B0650073204355S11711056EA0122201293000000000000
B0650113204303S11711011EA0121601283000000000000
B0650153204239S11711045EA0121901295000000000000
B0650193204230S11711114EA0122801302000000000000
B0650233204270S11711154EA0123001307000000000000
B0650273204317S11711131EA0124001318000000000000
B0650313204318S11711071EA0125101327000000000000
B0650353204270S11711030EA0125101324000000000000
B0650393204206S11711052EA0125301329000000000000
B0650433204183S11711121EA0125401328000000000000
B0650473204214S11711178EA0125701336000000000000
B0650513204262S11711183EA0127001348000000000000
B0650553204294S11711143EA0127701353000000000000
B0650593204288S11711082EA0127701353000000000000
B0651033204236S11711052EA0128601370000000000000
B0651073204182S11711076EA0129701377000000000000
B0651113204158S11711139EA0129901377000000000000
B0651153204182S11711191EA0130101382000000000000
B0651193204227S11711196EA0130501382000000000000
B0651233204257S11711154EA0130001378000000000000
