ACAM4N6
HFDTE110715
HFFXA050
HFPLTPILOT:JOHN WELSH              
HFGTYGLIDERTYPE:HORNET      
HFGIDGLIDERID:VH-GMY      
HFDTM100GPSDATUM:
HFRFWFIRMWAREVERSION:F2.6
HFRHWHARDWAREVERSION:300 Series Version 2
HFFTYFRTYPE:CAMBRIDGE AERO INSTRUMENTS, 302+
HFGPS:GARMIN,LVS-25,12,18000
HFPRSPRESSALTSENSOR:INTERSEMA, MS5534-AP, 20000
I033638FXA3941ENL4247REX
LCAMSBVER:5FWVER:F26300
C050415050137050415000102
C0000000N00000000WTAKEOFF     
C3207549S11656849EBEVAIR      
C3123325S11712260EWATRCRRN    
C3212499S11757329EBILBARIN    
C3207549S11656849EBEVAIR      
C0000000N00000000WLANDING     
B0533003207337S11656854EA0005300200000000000000
B0533023207337S11656854EA0005200200000000000000
B0533043207337S11656854EA0005200200000000000000
B0533063207337S11656854EA0005200200000000000000
B0533083207337S11656854EA0005300200000000000000
B0533103207337S11656854EA0005400200000000000000
B0533123207337S11656854EA0005400200000000000000
B0533143207337S11656854EA0005500200000000000000
B0533163207337S11656854EA0005300200000000000000
B0533183207337S11656854EA0005400200000000000000
B0533203207337S11656854EA0005500200000000000000
B0533223207337S11656854EA0005500200000000000000
B0533243207337S11656854EA0005500200000000000000
B0533263207337S11656856EA0005400200000000000000
B0533283207339S11656857EA0005500200000000000000
B0533313207350S11656866EA0005400200000000000000
B0533353207380S11656891EA0005100200000000000000
B0533393207428S11656922EA0005300201000000000000
B0533433207492S11656958EA0005300203000000000000
B0533473207560S11657001EA0005600210000000000000
B0533513207631S11657043EA0006500220000000000000
B0533553207697S11657086EA0008500245000000000000
B0533593207761S11657120EA0011100270000000000000
B0534033207822S11657153EA0013500297000000000000
B0534073207880S11657194EA0015600317000000000000
B0534113207940S11657234EA0017400336000000000000
B0534153208001S11657273EA0019300352000000000000
B0534193208058S11657313EA0021000371000000000000
B0534233208110S11657359EA0023200393000000000000
B0534273208160S11657404EA0025300416000000000000
B0534313208203S11657455EA0027500438000000000000
B0534353208236S11657517EA0029800462000000000000
B0534393208252S11657592EA0031900484000000000000
B0534433208249S11657670EA0034100504000000000000
B0534473208230S11657745EA0036200528000000000000
B0534513208184S11657805EA0038500549000000000000
B0534553208122S11657846EA0040800573000000000000
B0534593208057S11657874EA0044000604000000000000
B0535033207986S11657885EA0047100635000000000000
B0535073207911S11657865EA0049800660000000000000
B0535113207852S11657805EA0052000682000000000000
B0535153207822S11657719EA0054300705000000000000
B0535193207822S11657627EA0056200730000000000000
B0535233207848S11657536EA0058400747000000000000
B0535273207895S11657459EA0059900763000000000000
B0535313207956S11657406EA0062400789000000000000
B0535353208021S11657374EA0064300799000000000000
B0535393208061S11657317EA0065300809000000000000
B0535433208045S11657250EA0066100815000000000000
B0535473207996S11657222EA0066100815000000000000
B0535513207953S11657247EA0065800808000000000000
B0535553207948S11657303EA0065500811000000000000
B0535593207973S11657350EA0065600809000000000000
B0536033208022S11657373EA0064800802000000000000
B0536073208064S11657337EA0065000806000000000000
B0536113208043S11657270EA0065200806000000000000
B0536153207988S11657248EA0065000804000000000000
B0536193207950S11657286EA0065000808000000000000
B0536233207960S11657338EA0065200807000000000000
B0536273208002S11657360EA0064900806000000000000
B0536313208043S11657319EA0065100809000000000000
B0536353208047S11657250EA0065500813000000000000
B0536393208008S11657203EA0065700816000000000000
B0536433207958S11657208EA0065600813000000000000
B0536473207939S11657252EA0065800816000000000000
B0536513207958S11657296EA0065500811000000000000
B0536553208002S11657306EA0065300812000000000000
B0536593208041S11657270EA0065700814000000000000
B0537033208045S11657208EA0065800816000000000000
B0537073208005S11657168EA0065500812000000000000
B0537113207958S11657185EA0065400811000000000000
B0537153207950S11657234EA0064800803000000000000
B0537193207978S11657274EA0064700804000000000000
B0537233208019S11657295EA0064800806000000000000
B0537273208065S11657276EA0065300807000000000000
B0537313208083S11657215EA0064700802000000000000
B0537353208058S11657152EA0064800804000000000000
B0537393208006S11657139EA0064700800000000000000
B0537433207979S11657186EA0064700803000000000000
B0537473208001S11657231EA0065000805000000000000
B0537513208049S11657237EA0065200804000000000000
B0537553208088S11657192EA0065100804000000000000
B0537593208092S11657124EA0065000803000000000000
B0538033208054S11657070EA0065000803000000000000
B0538073208001S11657073EA0065000803000000000000
B0538113207978S11657124EA0064900803000000000000
B0538153208000S11657170EA0065000803000000000000
B0538193208043S11657139EA0065000801000000000000
B0538233208028S11657074EA0064800800000000000000
B0538273207973S11657060EA0064500796000000000000
B0538313207934S11657100EA0064300798000000000000
B0538353207932S11657157EA0064700799000000000000
B0538393207969S11657199EA0064700801000000000000
B0538433208018S11657187EA0065000802000000000000
B0538473208032S11657125EA0065000803000000000000
B0538513207999S11657070EA0065200804000000000000
B0538553207947S11657074EA0065200806000000000000
B0538593207919S11657120EA0065600810000000000000
B0539033207930S11657174EA0065800811000000000000
B0539073207975S11657187EA0065900813000000000000
B0539113208005S11657138EA0065800810000000000000
B0539153207978S11657077EA0065600807000000000000
B0539193207922S11657062EA0065500810000000000000
B0539233207882S11657107EA0065400805000000000000
B0539273207884S11657170EA0065600812000000000000
B0539313207928S11657198EA0066500820000000000000
B0539353207971S11657161EA0067000821000000000000
B0539393207965S11657091EA0066900819000000000000
B0539433207914S11657051EA0066900822000000000000
B0539473207866S11657077EA0067600830000000000000
B0539513207876S11657129EA0068400837000000000000
B0539553207923S11657122EA0068600837000000000000
B0539593207936S11657061EA0068600836000000000000
B0540033207904S11657007EA0068600834000000000000
B0540073207845S11656990EA0068300834000000000000
B0540113207805S11657029EA0068700839000000000000
B0540153207827S11657075EA0068900837000000000000
B0540193207882S11657069EA0068800840000000000000
B0540233207902S11657008EA0069500847000000000000
B0540273207862S11656961EA0070000851000000000000
B0540313207813S11656981EA0070300856000000000000
B0540353207810S11657035EA0071000861000000000000
B0540393207853S11657059EA0071500868000000000000
B0540433207891S11657017EA0071800871000000000000
B0540473207872S11656953EA0072000870000000000000
B0540513207817S11656939EA0071800869000000000000
B0540553207784S11656988EA0072000875000000000000
B0540593207810S11657038EA0072300878000000000000
B0541033207862S11657030EA0073300887000000000000
B0541073207880S11656969EA0073800889000000000000
B0541113207845S11656913EA0073500887000000000000
B0541153207789S11656923EA0073500889000000000000
B0541193207783S11656981EA0074300897000000000000
B0541233207828S11657005EA0074300897000000000000
B0541273207872S11656970EA0074700902000000000000
B0541313207874S11656901EA0075100906000000000000
B0541353207828S11656860EA0075500906000000000000
B0541393207779S11656880EA0075900912000000000000
B0541433207779S11656936EA0076700921000000000000
B0541473207824S11656951EA0077300924000000000000
B0541513207856S11656899EA0077700926000000000000
B0541553207832S11656835EA0077800926000000000000
B0541593207779S11656822EA0078100932000000000000
B0542033207748S11656867EA0078900939000000000000
B0542073207759S11656923EA0078900937000000000000
B0542113207806S11656945EA0079200943000000000000
B0542153207841S11656899EA0079700949000000000000
B0542193207828S11656828EA0079700948000000000000
B0542233207778S11656800EA0080100953000000000000
B0542273207749S11656843EA0080900962000000000000
B0542313207787S11656870EA0081300963000000000000
B0542353207820S11656822EA0081300963000000000000
B0542393207793S11656760EA0081300965000000000000
B0542433207741S11656765EA0082200975000000000000
B0542473207733S11656818EA0083000982000000000000
B0542513207776S11656839EA0083500984000000000000
B0542553207813S11656796EA0083500986000000000000
B0542593207802S11656728EA0083500985000000000000
B0543033207753S11656695EA0083700989000000000000
B0543073207705S11656717EA0084200994000000000000
B0543113207711S11656770EA0084300993000000000000
B0543153207761S11656786EA0084300993000000000000
B0543193207804S11656747EA0084600999000000000000
B0543233207794S11656678EA0084700997000000000000
B0543273207742S11656649EA0085001002000000000000
B0543313207716S11656691EA0085901009000000000000
B0543353207754S11656723EA0086001011000000000000
B0543393207794S11656684EA0086501017000000000000
B0543433207791S11656615EA0086501015000000000000
B0543473207745S11656571EA0086501017000000000000
B0543513207694S11656583EA0087201025000000000000
B0543553207683S11656632EA0087001020000000000000
B0543593207719S11656670EA0086601019000000000000
B0544033207771S11656656EA0087201025000000000000
B0544073207791S11656592EA0087401023000000000000
B0544113207759S11656528EA0086801019000000000000
B0544153207703S11656507EA0087101024000000000000
B0544193207676S11656550EA0087701029000000000000
B0544233207706S11656593EA0087401025000000000000
B0544273207761S11656600EA0087501030000000000000
B0544313207802S11656557EA0088201033000000000000
B0544353207798S11656485EA0087801029000000000000
B0544393207755S11656432EA0087701027000000000000
B0544433207698S11656416EA0087701028000000000000
B0544473207648S11656438EA0087501026000000000000
B0544513207623S11656488EA0087201022000000000000
B0544553207635S11656546EA0086401013000000000000
B0544593207667S11656605EA0085501009000000000000
B0545033207707S11656653EA0086301020000000000000
B0545073207758S11656636EA0088201036000000000000
B0545113207758S11656567EA0088401036000000000000
B0545153207703S11656536EA0088801041000000000000
B0545193207659S11656567EA0089501049000000000000
B0545233207662S11656618EA0089901052000000000000
B0545273207705S11656633EA0090101054000000000000
B0545313207724S11656570EA0090301056000000000000
B0545353207675S11656533EA0090901062000000000000
B0545393207636S11656571EA0091101065000000000000
B0545433207650S11656624EA0091601070000000000000
B0545473207697S11656613EA0092601084000000000000
B0545513207689S11656548EA0093601088000000000000
B0545553207635S11656529EA0093901093000000000000
B0545593207607S11656578EA0094601101000000000000
B0546033207638S11656615EA0095301109000000000000
B0546073207679S11656585EA0096401120000000000000
B0546113207667S11656519EA0096901124000000000000
B0546153207614S11656494EA0097701131000000000000
B0546193207571S11656528EA0098101134000000000000
B0546233207572S11656584EA0098301137000000000000
B0546273207611S11656613EA0098801146000000000000
B0546313207654S11656589EA0099501149000000000000
B0546353207666S11656523EA0099601151000000000000
B0546393207627S11656468EA0100301160000000000000
B0546433207571S11656470EA0100701161000000000000
B0546473207545S11656520EA0100901164000000000000
B0546513207573S11656562EA0101001168000000000000
B0546553207622S11656550EA0101801175000000000000
B0546593207633S11656488EA0101701170000000000000
B0547033207589S11656433EA0102201180000000000000
B0547073207533S11656440EA0103301189000000000000
B0547113207511S11656490EA0103401185000000000000
B0547153207542S11656535EA0102601181000000000000
B0547193207597S11656535EA0103001187000000000000
B0547233207636S11656490EA0103801195000000000000
B0547273207628S11656424EA0104101200000000000000
B0547313207575S11656406EA0105101208000000000000
B0547353207545S11656451EA0105301208000000000000
B0547393207571S11656498EA0105401210000000000000
B0547433207623S11656492EA0105801217000000000000
B0547473207648S11656432EA0106301222000000000000
B0547513207622S11656371EA0106901226000000000000
B0547553207567S11656351EA0107301229000000000000
B0547593207521S11656389EA0107501231000000000000
B0548033207516S11656449EA0108001238000000000000
B0548073207550S11656487EA0108401241000000000000
B0548113207601S11656483EA0108101236000000000000
B0548153207633S11656429EA0108201241000000000000
B0548193207623S11656363EA0109001247000000000000
B0548233207573S11656333EA0109301248000000000000
B0548273207529S11656370EA0109401251000000000000
B0548313207534S11656428EA0109601252000000000000
B0548353207583S11656450EA0109701251000000000000
B0548393207632S11656422EA0109801254000000000000
B0548433207662S11656362EA0110001258000000000000
B0548473207642S11656293EA0110601262000000000000
B0548513207588S11656276EA0110801264000000000000
B0548553207553S11656321EA0110801267000000000000
B0548593207571S11656377EA0111301266000000000000
B0549033207625S11656388EA0111101267000000000000
B0549073207668S11656338EA0111701275000000000000
B0549113207659S11656268EA0112401283000000000000
B0549153207609S11656237EA0112801283000000000000
B0549193207563S11656267EA0113101287000000000000
B0549233207557S11656324EA0113201287000000000000
B0549273207594S11656363EA0113301287000000000000
B0549313207649S11656353EA0113401290000000000000
B0549353207676S11656293EA0114101297000000000000
B0549393207642S11656234EA0114401299000000000000
B0549433207588S11656240EA0114401298000000000000
B0549473207557S11656292EA0114301295000000000000
B0549513207553S11656358EA0113701292000000000000
B0549553207557S11656425EA0113101286000000000000
B0549593207564S11656497EA0112501278000000000000
B0550033207575S11656571EA0112001276000000000000
B0550073207584S11656645EA0111701271000000000000
B0550113207588S11656721EA0111001264000000000000
B0550153207593S11656795EA0110501258000000000000
B0550193207598S11656870EA0109301247000000000000
B0550233207602S11656947EA0108801245000000000000
B0550273207603S11657021EA0108601242000000000000
B0550313207607S11657094EA0108101235000000000000
B0550353207612S11657169EA0107301225000000000000
B0550393207614S11657243EA0106601222000000000000
B0550433207611S11657316EA0106401219000000000000
B0550473207611S11657386EA0106001215000000000000
B0550513207614S11657454EA0105101203000000000000
B0550553207615S11657525EA0104001197000000000000
B0550593207619S11657595EA0103601192000000000000
B0551033207619S11657664EA0104001199000000000000
B0551073207616S11657724EA0105701215000000000000
B0551113207612S11657779EA0106401222000000000000
B0551153207622S11657832EA0107401233000000000000
B0551193207668S11657839EA0108201237000000000000
B0551233207692S11657774EA0108201232000000000000
B0551273207657S11657711EA0108201235000000000000
B0551313207605S11657712EA0109101243000000000000
B0551353207585S11657759EA0109901253000000000000
B0551393207597S11657807EA0111001261000000000000
B0551433207646S11657813EA0111201263000000000000
B0551473207671S11657750EA0111801267000000000000
B0551513207640S11657686EA0111601263000000000000
B0551553207581S11657671EA0111301269000000000000
B0551593207540S11657706EA0112501281000000000000
B0552033207538S11657757EA0113101278000000000000
B0552073207580S11657783EA0112301272000000000000
B0552113207635S11657767EA0112201272000000000000
B0552153207681S11657725EA0112401276000000000000
B0552193207693S11657657EA0113201283000000000000
B0552233207649S11657611EA0112701277000000000000
B0552273207599S11657632EA0112601279000000000000
B0552313207576S11657681EA0112801281000000000000
B0552353207567S11657738EA0113001283000000000000
B0552393207581S11657790EA0113001280000000000000
B0552433207622S11657822EA0112601275000000000000
B0552473207675S11657835EA0111801267000000000000
B0552513207737S11657837EA0110701258000000000000
B0552553207804S11657837EA0110901265000000000000
B0552593207862S11657813EA0112601278000000000000
B0553033207882S11657741EA0112801275000000000000
B0553073207852S11657672EA0112201272000000000000
B0553113207797S11657649EA0112601279000000000000
B0553153207746S11657670EA0113301286000000000000
B0553193207729S11657719EA0113901293000000000000
B0553233207763S11657758EA0113901292000000000000
B0553273207822S11657748EA0114301297000000000000
B0553313207854S11657685EA0115201304000000000000
B0553353207839S11657612EA0115201304000000000000
B0553393207787S11657582EA0115501309000000000000
B0553433207748S11657614EA0116401318000000000000
B0553473207759S11657664EA0116701318000000000000
B0553513207814S11657680EA0116501317000000000000
B0553553207862S11657633EA0117601328000000000000
B0553593207861S11657562EA0118201334000000000000
B0554033207819S11657516EA0118201335000000000000
B0554073207771S11657529EA0118501339000000000000
B0554113207755S11657579EA0119001340000000000000
B0554153207781S11657625EA0118601336000000000000
B0554193207837S11657642EA0118701340000000000000
B0554233207895S11657611EA0119001345000000000000
B0554273207919S11657542EA0118901344000000000000
B0554313207896S11657473EA0118601338000000000000
B0554353207843S11657445EA0118401340000000000000
B0554393207794S11657460EA0118701342000000000000
B0554433207771S11657508EA0118401338000000000000
B0554473207783S11657564EA0117901334000000000000
B0554513207822S11657607EA0117801332000000000000
B0554553207880S11657623EA0117701334000000000000
B0554593207940S11657602EA0117501328000000000000
B0555033207995S11657551EA0116301316000000000000
B0555073208057S11657502EA0114801301000000000000
B0555113208130S11657460EA0113001287000000000000
B0555153208207S11657429EA0112601282000000000000
B0555193208282S11657411EA0112101276000000000000
B0555233208356S11657399EA0112101280000000000000
B0555273208425S11657390EA0112701282000000000000
B0555313208494S11657381EA0112101273000000000000
B0555353208567S11657369EA0111301269000000000000
B0555393208636S11657358EA0111301270000000000000
B0555433208703S11657347EA0111201267000000000000
B0555473208772S11657334EA0110701262000000000000
B0555513208841S11657322EA0109901253000000000000
B0555553208911S11657313EA0109301247000000000000
B0555593208981S11657307EA0109101247000000000000
B0556033209048S11657306EA0109201248000000000000
B0556073209111S11657307EA0109401248000000000000
B0556113209174S11657307EA0109001242000000000000
B0556153209234S11657304EA0108701241000000000000
B0556193209291S11657299EA0108701240000000000000
B0556233209347S11657295EA0108701240000000000000
B0556273209399S11657290EA0109101244000000000000
B0556313209451S11657289EA0108901242000000000000
B0556353209501S11657294EA0109401249000000000000
B0556393209549S11657299EA0109501245000000000000
B0556433209599S11657308EA0109201243000000000000
B0556473209647S11657322EA0109701251000000000000
B0556513209681S11657359EA0109901250000000000000
B0556553209673S11657413EA0110701261000000000000
B0556593209625S11657437EA0111601268000000000000
B0557033209577S11657402EA0112001272000000000000
B0557073209562S11657335EA0112201275000000000000
B0557113209591S11657281EA0112301281000000000000
B0557153209637S11657272EA0112901285000000000000
B0557193209670S11657299EA0113201287000000000000
B0557233209674S11657348EA0113501289000000000000
B0557273209646S11657393EA0113801293000000000000
B0557313209592S11657403EA0114001295000000000000
B0557353209540S11657368EA0114101294000000000000
B0557393209508S11657302EA0114401300000000000000
B0557433209504S11657225EA0114401300000000000000
B0557473209535S11657164EA0114501304000000000000
B0557513209587S11657146EA0114701302000000000000
B0557553209633S11657168EA0114601301000000000000
B0557593209666S11657212EA0114701304000000000000
B0558033209676S11657272EA0114801305000000000000
B0558073209647S11657328EA0114901305000000000000
B0558113209588S11657343EA0115201306000000000000
B0558153209529S11657308EA0115001305000000000000
B0558193209486S11657243EA0115101305000000000000
B0558233209482S11657161EA0114901304000000000000
B0558273209514S11657092EA0114801304000000000000
B0558313209565S11657044EA0114601302000000000000
B0558353209617S11656999EA0114301298000000000000
B0558393209673S11656956EA0113601291000000000000
B0558433209735S11656935EA0113001285000000000000
B0558473209796S11656951EA0112901285000000000000
B0558513209843S11656994EA0113501292000000000000
B0558553209860S11657052EA0114301302000000000000
B0558593209843S11657104EA0114901303000000000000
B0559033209798S11657130EA0114701301000000000000
B0559073209741S11657134EA0114201293000000000000
B0559113209674S11657129EA0113501288000000000000
B0559153209607S11657120EA0112801281000000000000
B0559193209535S11657118EA0112701282000000000000
B0559233209481S11657156EA0113801295000000000000
B0559273209457S11657215EA0114601302000000000000
B0559313209483S11657252EA0116001315000000000000
B0559353209525S11657231EA0116101316000000000000
B0559393209534S11657165EA0115801315000000000000
B0559433209495S11657111EA0116101317000000000000
B0559473209435S11657109EA0116001318000000000000
B0559513209401S11657153EA0116401321000000000000
B0559553209413S11657204EA0116901327000000000000
B0559593209455S11657224EA0117001326000000000000
B0600033209499S11657196EA0116901327000000000000
B0600073209520S11657133EA0116801328000000000000
B0600113209512S11657057EA0117001329000000000000
B0600153209475S11656997EA0117601338000000000000
B0600193209417S11657004EA0117501334000000000000
B0600233209393S11657061EA0117501338000000000000
B0600273209422S11657104EA0118001342000000000000
B0600313209473S11657090EA0118501344000000000000
B0600353209503S11657030EA0118701345000000000000
B0600393209495S11656952EA0118401343000000000000
B0600433209448S11656888EA0118401342000000000000
B0600473209379S11656870EA0118401342000000000000
B0600513209319S11656895EA0118901348000000000000
B0600553209291S11656952EA0118801343000000000000
B0600593209302S11657016EA0119401353000000000000
B0601033209338S11657051EA0120601360000000000000
B0601073209384S11657055EA0120701360000000000000
B0601113209430S11657022EA0120401355000000000000
B0601153209457S11656958EA0119701351000000000000
B0601193209466S11656878EA0119401348000000000000
B0601233209470S11656793EA0119201349000000000000
B0601273209473S11656713EA0119901352000000000000
B0601313209475S11656630EA0119901351000000000000
B0601353209482S11656544EA0119201340000000000000
B0601393209487S11656455EA0118401337000000000000
B0601433209488S11656370EA0118901344000000000000
B0601473209477S11656290EA0119901351000000000000
B0601513209434S11656228EA0119901352000000000000
B0601553209373S11656211EA0120201352000000000000
B0601593209321S11656241EA0120201352000000000000
B0602033209297S11656295EA0120001350000000000000
B0602073209313S11656351EA0119501345000000000000
B0602113209360S11656379EA0118801338000000000000
B0602153209416S11656367EA0118401330000000000000
B0602193209466S11656328EA0118501331000000000000
B0602233209510S11656275EA0118501333000000000000
B0602273209548S11656212EA0118301332000000000000
B0602313209582S11656143EA0117401324000000000000
B0602353209611S11656069EA0116901320000000000000
B0602393209638S11655994EA0116801320000000000000
B0602433209663S11655922EA0117201324000000000000
B0602473209685S11655850EA0116901317000000000000
B0602513209712S11655775EA0116001306000000000000
B0602553209738S11655696EA0115501303000000000000
B0602593209761S11655619EA0115701306000000000000
B0603033209782S11655548EA0116001307000000000000
B0603073209786S11655474EA0116101308000000000000
B0603113209746S11655432EA0116901315000000000000
B0603153209699S11655452EA0117201319000000000000
B0603193209692S11655504EA0117501321000000000000
B0603233209735S11655523EA0117401318000000000000
B0603273209780S11655483EA0117101316000000000000
B0603313209782S11655415EA0117301320000000000000
B0603353209746S11655370EA0117701320000000000000
B0603393209692S11655363EA0116501304000000000000
B0603433209655S11655411EA0116001306000000000000
B0603473209646S11655475EA0116201307000000000000
B0603513209659S11655535EA0115801302000000000000
B0603553209681S11655593EA0115201297000000000000
B0603593209703S11655656EA0114401283000000000000
B0604033209720S11655726EA0113101273000000000000
B0604073209731S11655795EA0112801271000000000000
B0604113209725S11655864EA0112601268000000000000
B0604153209698S11655925EA0111901259000000000000
B0604193209661S11655983EA0111001253000000000000
B0604233209626S11656043EA0110501247000000000000
B0604273209595S11656104EA0110201246000000000000
B0604313209569S11656168EA0109801244000000000000
B0604353209544S11656232EA0109601240000000000000
B0604393209521S11656294EA0109701245000000000000
B0604433209499S11656357EA0110401252000000000000
B0604473209477S11656414EA0111201258000000000000
B0604513209458S11656471EA0111901262000000000000
B0604553209458S11656531EA0111901264000000000000
B0604593209490S11656574EA0112901274000000000000
B0605033209538S11656555EA0113601280000000000000
B0605073209548S11656487EA0113401280000000000000
B0605113209509S11656432EA0113301282000000000000
B0605153209456S11656433EA0113601285000000000000
B0605193209429S11656483EA0113401281000000000000
B0605233209436S11656542EA0113301283000000000000
B0605273209458S11656601EA0113101278000000000000
B0605313209488S11656661EA0112401273000000000000
B0605353209518S11656718EA0112801277000000000000
B0605393209547S11656771EA0112501270000000000000
B0605433209581S11656827EA0112501274000000000000
B0605473209624S11656864EA0114101287000000000000
B0605513209673S11656831EA0113801280000000000000
B0605553209676S11656754EA0113301281000000000000
B0605593209642S11656687EA0113501283000000000000
B0606033209585S11656672EA0114301292000000000000
B0606073209555S11656718EA0114701296000000000000
B0606113209582S11656763EA0115201301000000000000
B0606153209633S11656756EA0116001310000000000000
B0606193209660S11656702EA0116301310000000000000
B0606233209644S11656639EA0116401314000000000000
B0606273209598S11656618EA0116701315000000000000
B0606313209559S11656653EA0116301310000000000000
B0606353209574S11656706EA0116401315000000000000
B0606393209627S11656706EA0117101318000000000000
B0606433209659S11656648EA0116901319000000000000
B0606473209635S11656580EA0117001319000000000000
B0606513209581S11656566EA0117101320000000000000
B0606553209547S11656610EA0117201322000000000000
B0606593209564S11656666EA0117701328000000000000
B0607033209616S11656678EA0118101332000000000000
B0607073209659S11656631EA0117601325000000000000
B0607113209666S11656555EA0117201325000000000000
B0607153209660S11656477EA0117201324000000000000
B0607193209651S11656397EA0116901321000000000000
B0607233209640S11656319EA0117101321000000000000
B0607273209609S11656253EA0116801319000000000000
B0607313209555S11656237EA0117001321000000000000
B0607353209512S11656276EA0116101310000000000000
B0607393209481S11656337EA0114901299000000000000
B0607433209457S11656406EA0114301296000000000000
B0607473209438S11656476EA0114001297000000000000
B0607513209418S11656546EA0114101298000000000000
B0607553209400S11656619EA0113901289000000000000
B0607593209382S11656697EA0113401293000000000000
B0608033209360S11656771EA0114101299000000000000
B0608073209336S11656841EA0114701302000000000000
B0608113209310S11656909EA0114401297000000000000
B0608153209286S11656975EA0114001293000000000000
B0608193209261S11657040EA0113801291000000000000
B0608233209236S11657107EA0113201285000000000000
B0608273209211S11657173EA0112801281000000000000
B0608313209187S11657237EA0112601278000000000000
B0608353209162S11657302EA0112301276000000000000
B0608393209140S11657368EA0112101271000000000000
B0608433209119S11657433EA0111601266000000000000
B0608473209096S11657497EA0111001260000000000000
B0608513209072S11657562EA0110501254000000000000
B0608553209048S11657627EA0109901249000000000000
B0608593209023S11657689EA0109501243000000000000
B0609033208997S11657755EA0108701236000000000000
B0609073208970S11657820EA0108501234000000000000
B0609113208944S11657885EA0108201232000000000000
B0609153208915S11657949EA0107801226000000000000
B0609193208881S11658013EA0107201220000000000000
B0609233208846S11658075EA0106901218000000000000
B0609273208812S11658138EA0106801216000000000000
B0609313208781S11658204EA0106001206000000000000
B0609353208746S11658274EA0104801197000000000000
B0609393208711S11658342EA0104601195000000000000
B0609433208680S11658405EA0104601195000000000000
B0609473208652S11658469EA0104101189000000000000
B0609513208623S11658533EA0103201178000000000000
B0609553208589S11658598EA0102101170000000000000
B0609593208551S11658661EA0101701167000000000000
B0610033208516S11658726EA0101201161000000000000
B0610073208477S11658793EA0100601157000000000000
B0610113208437S11658856EA0100301152000000000000
B0610153208387S11658911EA0099901150000000000000
B0610193208338S11658963EA0099601146000000000000
B0610233208288S11659012EA0099101142000000000000
B0610273208240S11659067EA0098501137000000000000
B0610313208194S11659124EA0098501139000000000000
B0610353208152S11659181EA0099401149000000000000
B0610393208118S11659239EA0100001151000000000000
B0610433208109S11659302EA0101101163000000000000
B0610473208147S11659334EA0101601166000000000000
B0610513208194S11659298EA0101201161000000000000
B0610553208217S11659224EA0100301154000000000000
B0610593208234S11659142EA0100001151000000000000
B0611033208238S11659061EA0099901153000000000000
B0611073208214S11658989EA0100401156000000000000
B0611113208164S11658950EA0100601158000000000000
B0611153208109S11658957EA0100501157000000000000
B0611193208073S11658997EA0100301156000000000000
B0611233208056S11659050EA0100101157000000000000
B0611273208045S11659103EA0100901164000000000000
B0611313208027S11659152EA0101301168000000000000
B0611353207995S11659194EA0101701171000000000000
B0611393207953S11659230EA0102101175000000000000
B0611433207910S11659263EA0102901184000000000000
B0611473207911S11659313EA0103601188000000000000
B0611513207961S11659313EA0104101194000000000000
B0611553207980S11659248EA0104401196000000000000
B0611593207944S11659189EA0104801201000000000000
B0612033207892S11659198EA0105201205000000000000
B0612073207879S11659250EA0106001212000000000000
B0612113207917S11659279EA0106501218000000000000
B0612153207960S11659240EA0106501215000000000000
B0612193207954S11659166EA0106601222000000000000
B0612233207905S11659124EA0107201226000000000000
B0612273207859S11659150EA0107501228000000000000
B0612313207865S11659205EA0108001238000000000000
B0612353207910S11659215EA0109201245000000000000
B0612393207947S11659171EA0109201245000000000000
B0612433207944S11659098EA0109001242000000000000
B0612473207898S11659044EA0109101246000000000000
B0612513207843S11659042EA0110201257000000000000
B0612553207823S11659088EA0111001264000000000000
B0612593207852S11659123EA0111601273000000000000
B0613033207895S11659096EA0112501277000000000000
B0613073207902S11659027EA0112401275000000000000
B0613113207863S11658970EA0112201276000000000000
B0613153207807S11658957EA0112801283000000000000
B0613193207763S11658981EA0113701290000000000000
B0613233207745S11659025EA0114001292000000000000
B0613273207761S11659070EA0113901290000000000000
B0613313207806S11659092EA0114001290000000000000
B0613353207854S11659059EA0114401297000000000000
B0613393207863S11658986EA0114701297000000000000
B0613433207824S11658921EA0114401297000000000000
B0613473207766S11658908EA0115001303000000000000
B0613513207726S11658944EA0115701309000000000000
B0613553207718S11658994EA0115801309000000000000
B0613593207746S11659036EA0115701308000000000000
B0614033207800S11659033EA0115801309000000000000
B0614073207832S11658977EA0116201314000000000000
B0614113207810S11658905EA0115701305000000000000
B0614153207746S11658875EA0115001304000000000000
B0614193207693S11658903EA0115801312000000000000
B0614233207670S11658958EA0115901313000000000000
B0614273207674S11659018EA0116201313000000000000
B0614313207702S11659068EA0115801308000000000000
B0614353207753S11659100EA0115401304000000000000
B0614393207811S11659118EA0114801296000000000000
B0614433207876S11659135EA0113801287000000000000
B0614473207941S11659152EA0113701287000000000000
B0614513208004S11659167EA0113901290000000000000
B0614553208065S11659176EA0113801287000000000000
B0614593208127S11659174EA0113401285000000000000
B0615033208188S11659154EA0113701289000000000000
B0615073208244S11659124EA0114201294000000000000
B0615113208296S11659085EA0114201294000000000000
B0615153208338S11659031EA0114701300000000000000
B0615193208333S11658960EA0115101302000000000000
B0615233208286S11658920EA0114201293000000000000
B0615273208226S11658915EA0113601285000000000000
B0615313208164S11658918EA0113201283000000000000
B0615353208103S11658923EA0113001279000000000000
B0615393208041S11658931EA0112501273000000000000
B0615433207975S11658932EA0111801268000000000000
B0615473207909S11658916EA0111601266000000000000
B0615513207848S11658876EA0111501264000000000000
B0615553207796S11658817EA0111001261000000000000
B0615593207759S11658746EA0111001261000000000000
B0616033207742S11658668EA0111101263000000000000
B0616073207749S11658591EA0111501263000000000000
B0616113207754S11658512EA0111101260000000000000
B0616153207727S11658442EA0110701258000000000000
B0616193207671S11658413EA0110601256000000000000
B0616233207619S11658438EA0110101249000000000000
B0616273207592S11658491EA0109501248000000000000
B0616313207572S11658548EA0109501247000000000000
B0616353207555S11658609EA0109001240000000000000
B0616393207537S11658677EA0108201231000000000000
B0616433207519S11658747EA0107401226000000000000
B0616473207497S11658817EA0107201226000000000000
B0616513207473S11658886EA0107401225000000000000
B0616553207449S11658958EA0106201210000000000000
B0616593207429S11659032EA0105101206000000000000
B0617033207411S11659105EA0105101206000000000000
B0617073207391S11659175EA0105101204000000000000
B0617113207371S11659243EA0104701197000000000000
B0617153207351S11659310EA0104101195000000000000
B0617193207334S11659375EA0103701188000000000000
B0617233207317S11659441EA0102901180000000000000
B0617273207302S11659508EA0102201173000000000000
B0617313207284S11659574EA0101301165000000000000
B0617353207265S11659642EA0100601159000000000000
B0617393207248S11659708EA0100301156000000000000
B0617433207233S11659772EA0100201153000000000000
B0617473207220S11659839EA0099201141000000000000
B0617513207203S11659909EA0098301134000000000000
B0617553207183S11659980EA0097601129000000000000
B0617593207159S11700045EA0097101123000000000000
B0618033207134S11700110EA0096401112000000000000
B0618073207108S11700179EA0095201103000000000000
B0618113207077S11700246EA0094401096000000000000
B0618153207046S11700315EA0093601088000000000000
B0618193207012S11700384EA0092901079000000000000
B0618233206978S11700453EA0092201075000000000000
B0618273206943S11700517EA0091701068000000000000
B0618313206901S11700576EA0090701059000000000000
B0618353206861S11700639EA0090101055000000000000
B0618393206826S11700701EA0089601046000000000000
B0618433206792S11700770EA0088101031000000000000
B0618473206761S11700844EA0086601019000000000000
B0618513206734S11700922EA0085801011000000000000
B0618553206710S11700998EA0085201005000000000000
B0618593206688S11701072EA0084701002000000000000
B0619033206669S11701143EA0084500998000000000000
B0619073206648S11701212EA0084000994000000000000
B0619113206628S11701281EA0084000994000000000000
B0619153206610S11701347EA0083700989000000000000
B0619193206589S11701412EA0083200984000000000000
B0619233206565S11701476EA0082600979000000000000
B0619273206537S11701538EA0082500980000000000000
B0619313206510S11701598EA0082600979000000000000
B0619353206487S11701658EA0082200973000000000000
B0619393206461S11701719EA0081700969000000000000
B0619433206433S11701781EA0081000962000000000000
B0619473206402S11701845EA0080800961000000000000
B0619513206368S11701906EA0080500959000000000000
B0619553206338S11701969EA0080800961000000000000
B0619593206316S11702034EA0081300964000000000000
B0620033206333S11702088EA0081800972000000000000
B0620073206385S11702091EA0082600982000000000000
B0620113206414S11702032EA0083000985000000000000
B0620153206396S11701958EA0083600992000000000000
B0620193206345S11701926EA0083800992000000000000
B0620233206307S11701962EA0083600988000000000000
B0620273206335S11701999EA0083800991000000000000
B0620313206376S11701962EA0084300999000000000000
B0620353206371S11701891EA0084801004000000000000
B0620393206322S11701861EA0084801002000000000000
B0620433206288S11701901EA0084600998000000000000
B0620473206315S11701936EA0084501001000000000000
B0620513206358S11701902EA0085401012000000000000
B0620553206349S11701833EA0086001012000000000000
B0620593206296S11701806EA0085301008000000000000
B0621033206254S11701839EA0085701013000000000000
B0621073206258S11701888EA0085401008000000000000
B0621113206299S11701913EA0086101018000000000000
B0621153206341S11701887EA0087001027000000000000
B0621193206351S11701818EA0087001026000000000000
B0621233206311S11701765EA0087401033000000000000
B0621273206260S11701771EA0087401027000000000000
B0621313206241S11701822EA0086701021000000000000
B0621353206262S11701872EA0086701023000000000000
B0621393206309S11701889EA0087401032000000000000
B0621433206348S11701848EA0088001034000000000000
B0621473206340S11701774EA0088001035000000000000
B0621513206289S11701739EA0088801047000000000000
B0621553206245S11701766EA0089601053000000000000
B0621593206249S11701814EA0090601060000000000000
B0622033206294S11701818EA0090501059000000000000
B0622073206323S11701762EA0090801065000000000000
B0622113206296S11701697EA0091301071000000000000
B0622153206242S11701683EA0092401081000000000000
B0622193206208S11701718EA0092801084000000000000
B0622233206221S11701765EA0093201087000000000000
B0622273206270S11701768EA0093301086000000000000
B0622313206298S11701713EA0093301090000000000000
B0622353206270S11701649EA0093901096000000000000
B0622393206211S11701636EA0094901103000000000000
B0622433206181S11701675EA0095701111000000000000
B0622473206208S11701711EA0095801112000000000000
B0622513206255S11701697EA0095901114000000000000
B0622553206276S11701636EA0095901116000000000000
B0622593206244S11701573EA0096401123000000000000
B0623033206186S11701560EA0097201126000000000000
B0623073206153S11701599EA0097701134000000000000
B0623113206162S11701648EA0098201136000000000000
B0623153206205S11701672EA0098201137000000000000
B0623193206253S11701650EA0098201136000000000000
B0623233206268S11701586EA0098301138000000000000
B0623273206234S11701525EA0098101137000000000000
B0623313206176S11701515EA0098801147000000000000
B0623353206147S11701555EA0100001156000000000000
B0623393206176S11701590EA0100301156000000000000
B0623433206221S11701560EA0100501160000000000000
B0623473206228S11701490EA0100501161000000000000
B0623513206186S11701429EA0100701166000000000000
B0623553206129S11701417EA0101501170000000000000
B0623593206094S11701456EA0101701171000000000000
B0624033206108S11701505EA0101801171000000000000
B0624073206156S11701521EA0102201174000000000000
B0624113206203S11701486EA0102201174000000000000
B0624153206208S11701412EA0102201178000000000000
B0624193206166S11701355EA0102601180000000000000
B0624233206104S11701334EA0102701179000000000000
B0624273206050S11701351EA0102801182000000000000
B0624313206045S11701399EA0102901182000000000000
B0624353206085S11701428EA0102801180000000000000
B0624393206145S11701417EA0103001185000000000000
B0624433206192S11701375EA0104301199000000000000
B0624473206185S11701303EA0104701200000000000000
B0624513206136S11701256EA0104301196000000000000
B0624553206076S11701263EA0104601197000000000000
B0624593206047S11701311EA0104501196000000000000
B0625033206069S11701358EA0105001204000000000000
B0625073206116S11701376EA0105801211000000000000
B0625113206171S11701368EA0105301201000000000000
B0625153206236S11701349EA0103901190000000000000
B0625193206303S11701320EA0103901195000000000000
B0625233206368S11701290EA0104301195000000000000
B0625273206432S11701261EA0103301181000000000000
B0625313206502S11701229EA0102901179000000000000
B0625353206569S11701196EA0102601176000000000000
B0625393206635S11701164EA0102401177000000000000
B0625433206699S11701134EA0102701177000000000000
B0625473206764S11701104EA0102301173000000000000
B0625513206829S11701070EA0102001169000000000000
B0625553206892S11701037EA0101501163000000000000
B0625593206957S11701001EA0100801156000000000000
B0626033207021S11700974EA0100001149000000000000
B0626073207087S11700949EA0099501142000000000000
B0626113207154S11700926EA0098801133000000000000
B0626153207221S11700901EA0098001128000000000000
B0626193207287S11700875EA0097501125000000000000
B0626233207354S11700855EA0097001119000000000000
B0626273207420S11700840EA0096501115000000000000
B0626313207488S11700831EA0096101109000000000000
B0626353207555S11700823EA0095301102000000000000
B0626393207623S11700814EA0095101101000000000000
B0626433207690S11700797EA0095001100000000000000
B0626473207755S11700779EA0095501108000000000000
B0626513207815S11700762EA0096301115000000000000
B0626553207872S11700751EA0096701119000000000000
B0626593207926S11700739EA0096801120000000000000
B0627033207979S11700727EA0096701116000000000000
B0627073208035S11700710EA0096301112000000000000
B0627113208090S11700686EA0096401112000000000000
B0627153208134S11700632EA0096301112000000000000
B0627193208147S11700553EA0096201110000000000000
B0627233208139S11700468EA0095901108000000000000
B0627273208099S11700401EA0096201114000000000000
B0627313208044S11700403EA0097301124000000000000
B0627353208032S11700453EA0097001115000000000000
B0627393208058S11700501EA0096301113000000000000
B0627433208090S11700545EA0096201109000000000000
B0627473208132S11700578EA0095901106000000000000
B0627513208184S11700569EA0095901107000000000000
B0627553208226S11700511EA0095701107000000000000
B0627593208260S11700440EA0095701108000000000000
B0628033208290S11700364EA0095501101000000000000
B0628073208325S11700285EA0094001088000000000000
B0628113208361S11700202EA0093301085000000000000
B0628153208395S11700124EA0093201082000000000000
B0628193208434S11700051EA0092201074000000000000
B0628233208480S11659985EA0092101074000000000000
B0628273208524S11659922EA0091801065000000000000
B0628313208568S11659854EA0090601055000000000000
B0628353208613S11659782EA0089801046000000000000
B0628393208658S11659712EA0089301047000000000000
B0628433208698S11659642EA0089301046000000000000
B0628473208737S11659577EA0089101043000000000000
B0628513208780S11659512EA0088701040000000000000
B0628553208824S11659447EA0088201038000000000000
B0628593208866S11659380EA0087801031000000000000
B0629033208907S11659310EA0087301025000000000000
B0629073208948S11659240EA0086901024000000000000
B0629113208989S11659175EA0086901025000000000000
B0629153209032S11659111EA0086701023000000000000
B0629193209072S11659045EA0087201030000000000000
B0629233209093S11658973EA0088501042000000000000
B0629273209061S11658918EA0089301048000000000000
B0629313209009S11658929EA0089701050000000000000
B0629353208994S11658984EA0089501049000000000000
B0629393209033S11659018EA0089501050000000000000
B0629433209084S11658990EA0090001055000000000000
B0629473209078S11658924EA0090701061000000000000
B0629513209024S11658908EA0091101064000000000000
B0629553208992S11658950EA0091801072000000000000
B0629593209011S11658996EA0092201075000000000000
B0630033209062S11658992EA0092501078000000000000
B0630073209087S11658929EA0092901082000000000000
B0630113209062S11658864EA0093501088000000000000
B0630153209007S11658846EA0093901091000000000000
B0630193208963S11658879EA0094101092000000000000
B0630233208961S11658931EA0094501098000000000000
B0630273208998S11658958EA0095001101000000000000
B0630313209048S11658940EA0095301106000000000000
B0630353209071S11658880EA0095901112000000000000
B0630393209048S11658819EA0096201116000000000000
B0630433208997S11658808EA0096901123000000000000
B0630473208968S11658849EA0097201123000000000000
B0630513208981S11658899EA0097201124000000000000
B0630553209027S11658924EA0097701131000000000000
B0630593209078S11658902EA0098501137000000000000
B0631033209104S11658843EA0098601140000000000000
B0631073209092S11658776EA0099101145000000000000
B0631113209041S11658745EA0099601149000000000000
B0631153209000S11658775EA0100501157000000000000
B0631193209000S11658825EA0100701158000000000000
B0631233209042S11658854EA0101301161000000000000
B0631273209091S11658832EA0101601166000000000000
B0631313209113S11658771EA0102001172000000000000
B0631353209091S11658711EA0102701179000000000000
B0631393209037S11658690EA0102901178000000000000
B0631433208992S11658720EA0103501187000000000000
B0631473208984S11658772EA0104001189000000000000
B0631513209018S11658810EA0104301195000000000000
B0631553209067S11658802EA0104801197000000000000
B0631593209094S11658745EA0104901201000000000000
B0632033209068S11658687EA0105401205000000000000
B0632073209018S11658685EA0105701205000000000000
B0632113208993S11658733EA0106001211000000000000
B0632153209019S11658778EA0106501214000000000000
B0632193209071S11658780EA0106701214000000000000
B0632233209109S11658730EA0106601216000000000000
B0632273209105S11658661EA0106801218000000000000
B0632313209059S11658617EA0107201220000000000000
B0632353209005S11658630EA0107501223000000000000
B0632393208992S11658685EA0108001230000000000000
B0632433209031S11658716EA0108401232000000000000
B0632473209081S11658690EA0108401233000000000000
B0632513209101S11658625EA0108801239000000000000
B0632553209074S11658561EA0108801237000000000000
B0632593209018S11658531EA0109001240000000000000
B0633033208980S11658570EA0109201243000000000000
B0633073208992S11658629EA0108601236000000000000
B0633113209044S11658655EA0108801238000000000000
B0633153209098S11658626EA0109001243000000000000
B0633193209124S11658559EA0109601247000000000000
B0633233209109S11658485EA0109301239000000000000
B0633273209054S11658442EA0109401241000000000000
B0633313208997S11658452EA0109601245000000000000
B0633353208962S11658499EA0109801246000000000000
B0633393208957S11658559EA0109701244000000000000
B0633433208989S11658608EA0110101250000000000000
B0633473209039S11658615EA0110701255000000000000
B0633513209080S11658574EA0110501252000000000000
B0633553209087S11658505EA0110401251000000000000
B0633593209049S11658450EA0110101247000000000000
B0634033208990S11658438EA0109901247000000000000
B0634073208946S11658470EA0110301250000000000000
B0634113208932S11658528EA0109901245000000000000
B0634153208942S11658589EA0110201248000000000000
B0634193208957S11658652EA0109301238000000000000
B0634233208975S11658720EA0107901225000000000000
B0634273208993S11658790EA0107101216000000000000
B0634313209010S11658858EA0106401209000000000000
B0634353209027S11658927EA0105301197000000000000
B0634393209046S11658998EA0104301189000000000000
B0634433209066S11659068EA0103501182000000000000
B0634473209087S11659137EA0102601173000000000000
B0634513209106S11659209EA0102101169000000000000
B0634553209124S11659280EA0101601164000000000000
B0634593209143S11659354EA0101101157000000000000
B0635033209161S11659427EA0100501152000000000000
B0635073209176S11659500EA0099801145000000000000
B0635113209191S11659573EA0099101138000000000000
B0635153209205S11659644EA0098501131000000000000
B0635193209214S11659720EA0097501123000000000000
B0635233209222S11659795EA0096801117000000000000
B0635273209230S11659870EA0096301113000000000000
B0635313209237S11659945EA0095901105000000000000
B0635353209247S11700021EA0095001095000000000000
B0635393209257S11700101EA0094001089000000000000
B0635433209267S11700180EA0093301082000000000000
B0635473209280S11700259EA0092501075000000000000
B0635513209291S11700337EA0092801075000000000000
B0635553209295S11700410EA0092701078000000000000
B0635593209299S11700480EA0092501074000000000000
B0636033209306S11700550EA0091001059000000000000
B0636073209321S11700623EA0090101051000000000000
B0636113209338S11700693EA0089801049000000000000
B0636153209354S11700762EA0089601049000000000000
B0636193209371S11700830EA0089601044000000000000
B0636233209390S11700901EA0088401032000000000000
B0636273209408S11700975EA0087401025000000000000
B0636313209426S11701047EA0087601028000000000000
B0636353209440S11701115EA0088101034000000000000
B0636393209451S11701181EA0088101031000000000000
B0636433209458S11701247EA0087401021000000000000
B0636473209460S11701317EA0087501028000000000000
B0636513209465S11701382EA0088101035000000000000
B0636553209471S11701445EA0088701039000000000000
B0636593209479S11701510EA0088301033000000000000
B0637033209491S11701576EA0087601026000000000000
B0637073209501S11701646EA0086701022000000000000
B0637113209509S11701718EA0087601031000000000000
B0637153209538S11701767EA0088701042000000000000
B0637193209587S11701757EA0089201040000000000000
B0637233209603S11701689EA0088201032000000000000
B0637273209564S11701629EA0088101034000000000000
B0637313209504S11701615EA0088801041000000000000
B0637353209481S11701663EA0089401045000000000000
B0637393209517S11701688EA0090201052000000000000
B0637433209560S11701653EA0089601043000000000000
B0637473209564S11701579EA0089101042000000000000
B0637513209520S11701528EA0089801050000000000000
B0637553209462S11701529EA0090001047000000000000
B0637593209426S11701575EA0089801048000000000000
B0638033209422S11701635EA0089801049000000000000
B0638073209439S11701692EA0090401055000000000000
B0638113209486S11701705EA0090801058000000000000
B0638153209521S11701658EA0090801056000000000000
B0638193209507S11701590EA0090001049000000000000
B0638233209451S11701566EA0089801048000000000000
B0638273209404S11701598EA0090101054000000000000
B0638313209390S11701653EA0090701055000000000000
B0638353209403S11701707EA0090101048000000000000
B0638393209426S11701767EA0089301043000000000000
B0638433209457S11701824EA0089501044000000000000
B0638473209486S11701880EA0090601057000000000000
B0638513209516S11701930EA0091401062000000000000
B0638553209566S11701941EA0092001065000000000000
B0638593209598S11701883EA0092101069000000000000
B0639033209569S11701818EA0092201071000000000000
B0639073209512S11701814EA0092601072000000000000
B0639113209473S11701862EA0092701075000000000000
B0639153209483S11701917EA0093501083000000000000
B0639193209533S11701900EA0094501095000000000000
B0639233209534S11701832EA0094701093000000000000
B0639273209479S11701804EA0094601096000000000000
B0639313209444S11701849EA0095301102000000000000
B0639353209481S11701880EA0096101109000000000000
B0639393209521S11701833EA0096301111000000000000
B0639433209500S11701768EA0096601116000000000000
B0639473209447S11701762EA0097101118000000000000
B0639513209418S11701813EA0097101117000000000000
B0639553209442S11701861EA0097501126000000000000
B0639593209491S11701854EA0098501135000000000000
B0640033209509S11701792EA0099001138000000000000
B0640073209471S11701740EA0099301139000000000000
B0640113209416S11701744EA0099301139000000000000
B0640153209384S11701793EA0099501144000000000000
B0640193209400S11701844EA0100301151000000000000
B0640233209448S11701849EA0100901155000000000000
B0640273209479S11701792EA0101101157000000000000
B0640313209451S11701728EA0101401164000000000000
B0640353209399S11701729EA0102001166000000000000
B0640393209380S11701784EA0101801164000000000000
B0640433209414S11701824EA0102101170000000000000
B0640473209466S11701813EA0102901179000000000000
B0640513209490S11701750EA0103701186000000000000
B0640553209461S11701689EA0104101190000000000000
B0640593209405S11701687EA0104601191000000000000
B0641033209377S11701735EA0104901199000000000000
B0641073209399S11701776EA0105701205000000000000
B0641113209448S11701770EA0106001208000000000000
B0641153209474S11701709EA0106601216000000000000
B0641193209451S11701641EA0107001217000000000000
B0641233209395S11701618EA0107001218000000000000
B0641273209347S11701653EA0107501224000000000000
B0641313209339S11701707EA0108201230000000000000
B0641353209370S11701745EA0108601233000000000000
B0641393209421S11701731EA0109101238000000000000
B0641433209447S11701668EA0109301241000000000000
B0641473209425S11701601EA0109701245000000000000
B0641513209370S11701584EA0110001246000000000000
B0641553209330S11701627EA0110001249000000000000
B0641593209334S11701683EA0110501253000000000000
B0642033209373S11701715EA0111201260000000000000
B0642073209422S11701700EA0111201260000000000000
B0642113209452S11701636EA0110901257000000000000
B0642153209440S11701560EA0111301261000000000000
B0642193209391S11701519EA0111701265000000000000
B0642233209340S11701544EA0112001269000000000000
B0642273209332S11701598EA0112501273000000000000
B0642313209374S11701620EA0112801276000000000000
B0642353209408S11701571EA0112701274000000000000
B0642393209388S11701501EA0112401274000000000000
B0642433209334S11701471EA0112801277000000000000
B0642473209280S11701493EA0113001278000000000000
B0642513209253S11701546EA0113101278000000000000
B0642553209248S11701611EA0112601270000000000000
B0642593209254S11701683EA0112301271000000000000
B0643033209265S11701753EA0112101266000000000000
B0643073209274S11701823EA0111601262000000000000
B0643113209280S11701891EA0111401257000000000000
B0643153209283S11701962EA0110401247000000000000
B0643193209283S11702036EA0109701243000000000000
B0643233209286S11702109EA0109701244000000000000
B0643273209288S11702182EA0109201239000000000000
B0643313209299S11702253EA0108601233000000000000
B0643353209308S11702327EA0108001227000000000000
B0643393209317S11702402EA0108101225000000000000
B0643433209335S11702467EA0108601236000000000000
B0643473209364S11702520EA0109101235000000000000
B0643513209401S11702571EA0108701230000000000000
B0643553209449S11702604EA0108401226000000000000
B0643593209508S11702602EA0108301227000000000000
B0644033209557S11702559EA0108201230000000000000
B0644073209582S11702486EA0108801236000000000000
B0644113209569S11702411EA0109701245000000000000
B0644153209529S11702352EA0110201249000000000000
B0644193209473S11702347EA0110601253000000000000
B0644233209466S11702399EA0110901257000000000000
B0644273209513S11702395EA0111201259000000000000
B0644313209538S11702329EA0111601264000000000000
B0644353209523S11702257EA0112201267000000000000
B0644393209471S11702223EA0112301266000000000000
B0644433209422S11702252EA0112101266000000000000
B0644473209421S11702308EA0111801262000000000000
B0644513209447S11702363EA0111301257000000000000
B0644553209478S11702417EA0111001253000000000000
B0644593209507S11702478EA0110501249000000000000
B0645033209522S11702550EA0109901242000000000000
B0645073209525S11702626EA0109401241000000000000
B0645113209520S11702701EA0109401239000000000000
B0645153209510S11702776EA0108501226000000000000
B0645193209497S11702854EA0107401220000000000000
B0645233209486S11702929EA0107601224000000000000
B0645273209473S11703003EA0107901224000000000000
B0645313209462S11703076EA0107801226000000000000
B0645353209452S11703145EA0108101227000000000000
B0645393209440S11703217EA0107701222000000000000
B0645433209429S11703289EA0107601220000000000000
B0645473209419S11703360EA0107301219000000000000
B0645513209410S11703430EA0107401219000000000000
B0645553209399S11703497EA0107101215000000000000
B0645593209383S11703565EA0106801213000000000000
B0646033209370S11703631EA0106201206000000000000
B0646073209357S11703699EA0105701202000000000000
B0646113209344S11703767EA0105701201000000000000
B0646153209327S11703832EA0105801204000000000000
B0646193209310S11703895EA0106401210000000000000
B0646233209296S11703956EA0106301206000000000000
B0646273209279S11704017EA0106001202000000000000
B0646313209263S11704079EA0105001193000000000000
B0646353209248S11704144EA0104101185000000000000
B0646393209222S11704209EA0103301177000000000000
B0646433209180S11704266EA0102101163000000000000
B0646473209127S11704314EA0101101157000000000000
B0646513209068S11704353EA0100801152000000000000
B0646553209007S11704391EA0100501151000000000000
B0646593208948S11704427EA0100301149000000000000
B0647033208884S11704463EA0100201151000000000000
B0647073208820S11704489EA0101001160000000000000
B0647113208759S11704515EA0101901168000000000000
B0647153208728S11704567EA0103101179000000000000
B0647193208758S11704602EA0104201190000000000000
B0647233208799S11704570EA0104701192000000000000
B0647273208795S11704496EA0105001196000000000000
B0647313208746S11704446EA0105401201000000000000
B0647353208688S11704457EA0106001205000000000000
B0647393208662S11704510EA0106201207000000000000
B0647433208688S11704557EA0106401209000000000000
B0647473208740S11704552EA0106901215000000000000
B0647513208767S11704493EA0107901227000000000000
B0647553208745S11704424EA0108201229000000000000
B0647593208686S11704392EA0108701232000000000000
B0648033208632S11704415EA0109101238000000000000
B0648073208615S11704469EA0109701244000000000000
B0648113208641S11704508EA0110101246000000000000
B0648153208690S11704501EA0110201248000000000000
B0648193208723S11704448EA0110801255000000000000
B0648233208712S11704375EA0111201259000000000000
B0648273208662S11704331EA0111601263000000000000
B0648313208604S11704345EA0111901264000000000000
B0648353208580S11704398EA0111901266000000000000
B0648393208602S11704446EA0112301270000000000000
B0648433208649S11704453EA0112801275000000000000
B0648473208685S11704407EA0113401279000000000000
B0648513208681S11704335EA0113401280000000000000
B0648553208634S11704280EA0113601280000000000000
B0648593208571S11704276EA0113801281000000000000
B0649033208530S11704323EA0114101286000000000000
B0649073208538S11704376EA0114601292000000000000
B0649113208580S11704397EA0115101296000000000000
B0649153208623S11704366EA0115301297000000000000
B0649193208630S11704298EA0115701303000000000000
B0649233208590S11704244EA0115801301000000000000
B0649273208530S11704246EA0115801303000000000000
B0649313208503S11704294EA0116301309000000000000
B0649353208524S11704335EA0116701311000000000000
B0649393208565S11704323EA0116901312000000000000
B0649433208582S11704261EA0116801312000000000000
B0649473208554S11704197EA0117201316000000000000
B0649513208498S11704164EA0117001315000000000000
B0649553208439S11704176EA0117301318000000000000
B0649593208402S11704219EA0117501321000000000000
B0650033208407S11704270EA0117701322000000000000
B0650073208446S11704292EA0118001324000000000000
B0650113208486S11704263EA0118401329000000000000
B0650153208491S11704198EA0118601330000000000000
B0650193208448S11704146EA0118501330000000000000
B0650233208391S11704150EA0118801333000000000000
B0650273208361S11704194EA0119301336000000000000
B0650313208374S11704240EA0119501339000000000000
B0650353208416S11704244EA0119501337000000000000
B0650393208444S11704193EA0119501337000000000000
B0650433208433S11704118EA0119101331000000000000
B0650473208387S11704055EA0118801331000000000000
B0650513208322S11704046EA0119001334000000000000
B0650553208281S11704092EA0119501336000000000000
B0650593208291S11704149EA0118601328000000000000
B0651033208325S11704203EA0118001320000000000000
B0651073208363S11704257EA0117701318000000000000
B0651113208404S11704307EA0117301310000000000000
B0651153208448S11704361EA0116001295000000000000
B0651193208493S11704417EA0115001289000000000000
B0651233208535S11704471EA0114501286000000000000
B0651273208574S11704527EA0114701289000000000000
B0651313208611S11704582EA0114901291000000000000
B0651353208646S11704636EA0114901290000000000000
B0651393208680S11704693EA0115601298000000000000
B0651433208711S11704748EA0116301309000000000000
B0651473208746S11704796EA0117101313000000000000
B0651513208801S11704795EA0118301325000000000000
B0651553208821S11704734EA0119101335000000000000
B0651593208790S11704674EA0119701339000000000000
B0652033208733S11704664EA0120001341000000000000
B0652073208691S11704704EA0120401347000000000000
B0652113208694S11704761EA0120801350000000000000
B0652153208741S11704781EA0121601359000000000000
B0652193208779S11704736EA0122301368000000000000
B0652233208762S11704674EA0122701369000000000000
B0652273208706S11704660EA0122701368000000000000
B0652313208665S11704703EA0122901371000000000000
B0652353208685S11704757EA0123401379000000000000
B0652393208737S11704756EA0124401384000000000000
B0652433208764S11704696EA0124401385000000000000
B0652473208738S11704631EA0124301386000000000000
B0652513208681S11704609EA0124201386000000000000
B0652553208626S11704639EA0124701393000000000000
B0652593208602S11704693EA0125701401000000000000
B0653033208612S11704751EA0125901401000000000000
B0653073208656S11704788EA0125701396000000000000
B0653113208715S11704788EA0125001389000000000000
B0653153208759S11704740EA0124501387000000000000
B0653193208767S11704662EA0124001383000000000000
B0653233208749S11704586EA0124301386000000000000
B0653273208721S11704513EA0124501387000000000000
B0653313208691S11704436EA0123901382000000000000
B0653353208658S11704361EA0124201386000000000000
B0653393208624S11704287EA0124601391000000000000
B0653433208594S11704212EA0125101393000000000000
B0653473208565S11704136EA0124601386000000000000
B0653513208537S11704055EA0123801380000000000000
B0653553208503S11703980EA0123801378000000000000
B0653593208452S11703924EA0123901380000000000000
B0654033208390S11703910EA0124301385000000000000
B0654073208335S11703936EA0124201383000000000000
B0654113208290S11703978EA0123501374000000000000
B0654153208248S11704033EA0122401364000000000000
B0654193208213S11704090EA0122101365000000000000
B0654233208188S11704145EA0121801358000000000000
B0654273208164S11704207EA0120701344000000000000
B0654313208142S11704271EA0120001340000000000000
B0654353208119S11704333EA0119601336000000000000
B0654393208087S11704393EA0119001326000000000000
B0654433208040S11704449EA0118101319000000000000
B0654473207988S11704498EA0117501319000000000000
B0654513207943S11704547EA0117501316000000000000
B0654553207905S11704602EA0116801307000000000000
B0654593207872S11704661EA0116301305000000000000
B0655033207844S11704717EA0116401307000000000000
B0655073207823S11704771EA0116601307000000000000
B0655113207824S11704825EA0116101301000000000000
B0655153207849S11704872EA0115501294000000000000
B0655193207882S11704911EA0114701288000000000000
B0655233207922S11704948EA0113801276000000000000
B0655273207973S11704977EA0113201273000000000000
B0655313208027S11704979EA0112901269000000000000
B0655353208080S11704946EA0111801257000000000000
B0655393208123S11704874EA0111101253000000000000
B0655433208149S11704791EA0111301260000000000000
B0655473208166S11704712EA0112501271000000000000
B0655513208171S11704635EA0113001274000000000000
B0655553208169S11704558EA0113101271000000000000
B0655593208168S11704487EA0113101270000000000000
B0656033208164S11704414EA0112101259000000000000
B0656073208157S11704333EA0111401254000000000000
B0656113208144S11704250EA0111201251000000000000
B0656153208127S11704168EA0111401254000000000000
B0656193208108S11704093EA0111701256000000000000
B0656233208088S11704017EA0111101247000000000000
B0656273208079S11703937EA0110201239000000000000
B0656313208090S11703858EA0109901239000000000000
B0656353208106S11703783EA0110201245000000000000
B0656393208126S11703712EA0110401245000000000000
B0656433208148S11703639EA0110501247000000000000
B0656473208155S11703564EA0111101252000000000000
B0656513208121S11703499EA0111301252000000000000
B0656553208057S11703481EA0111101250000000000000
B0656593208005S11703517EA0110901249000000000000
B0657033207986S11703575EA0110501244000000000000
B0657073208000S11703630EA0110001241000000000000
B0657113208030S11703677EA0109301235000000000000
B0657153208066S11703725EA0108801232000000000000
B0657193208104S11703769EA0109001234000000000000
B0657233208145S11703812EA0108401226000000000000
B0657273208190S11703856EA0107401214000000000000
B0657313208235S11703900EA0106901211000000000000
B0657353208281S11703943EA0107001212000000000000
B0657393208327S11703980EA0106801211000000000000
B0657433208378S11704007EA0107001217000000000000
B0657473208430S11704028EA0108201228000000000000
B0657513208477S11704003EA0109001235000000000000
B0657553208486S11703934EA0108801233000000000000
B0657593208439S11703893EA0109401239000000000000
B0658033208390S11703913EA0110001246000000000000
B0658073208378S11703968EA0110701251000000000000
B0658113208408S11704006EA0111401257000000000000
B0658153208457S11704003EA0111601259000000000000
B0658193208495S11703952EA0111601260000000000000
B0658233208483S11703885EA0111901261000000000000
B0658273208430S11703859EA0111601258000000000000
B0658313208387S11703897EA0112101265000000000000
B0658353208389S11703956EA0112501267000000000000
B0658393208434S11703986EA0113001275000000000000
B0658433208485S11703965EA0113701281000000000000
B0658473208506S11703902EA0114101286000000000000
B0658513208487S11703839EA0114501289000000000000
B0658553208438S11703811EA0114201285000000000000
B0658593208387S11703834EA0113901285000000000000
B0659033208364S11703891EA0114101285000000000000
B0659073208378S11703946EA0114501294000000000000
B0659113208424S11703965EA0115401296000000000000
B0659153208465S11703923EA0115101295000000000000
B0659193208455S11703854EA0115101295000000000000
B0659233208405S11703819EA0114901294000000000000
B0659273208353S11703835EA0115401297000000000000
B0659313208324S11703887EA0115201296000000000000
B0659353208309S11703954EA0114801291000000000000
B0659393208301S11704024EA0114601292000000000000
B0659433208292S11704093EA0114501287000000000000
B0659473208278S11704160EA0113901278000000000000
B0659513208264S11704228EA0112801267000000000000
B0659553208251S11704297EA0112101268000000000000
B0659593208239S11704359EA0112701272000000000000
B0700033208225S11704419EA0113101273000000000000
B0700073208208S11704480EA0113301276000000000000
B0700113208184S11704539EA0114001284000000000000
B0700153208164S11704600EA0114401285000000000000
B0700193208157S11704660EA0114501287000000000000
B0700233208165S11704717EA0114501282000000000000
B0700273208184S11704773EA0113801275000000000000
B0700313208217S11704826EA0112501263000000000000
B0700353208253S11704883EA0111901259000000000000
B0700393208294S11704940EA0111601253000000000000
B0700433208339S11704995EA0111501259000000000000
B0700473208377S11705054EA0112401268000000000000
B0700513208396S11705119EA0113101273000000000000
B0700553208377S11705172EA0113601278000000000000
B0700593208330S11705189EA0113401271000000000000
B0701033208278S11705160EA0112201254000000000000
B0701073208235S11705098EA0110301237000000000000
B0701113208203S11705017EA0108901225000000000000
B0701153208174S11704933EA0108501226000000000000
B0701193208151S11704846EA0109201236000000000000
B0701233208134S11704761EA0109501236000000000000
B0701273208119S11704677EA0108801229000000000000
B0701313208104S11704588EA0108301221000000000000
B0701353208093S11704501EA0107901222000000000000
B0701393208084S11704415EA0108001222000000000000
B0701433208069S11704331EA0107401214000000000000
B0701473208051S11704244EA0106601206000000000000
B0701513208041S11704154EA0105901203000000000000
B0701553208039S11704064EA0106101202000000000000
B0701593208026S11703975EA0106001200000000000000
B0702033208000S11703889EA0105801200000000000000
B0702073207970S11703806EA0105801199000000000000
B0702113207939S11703722EA0105601197000000000000
B0702153207910S11703637EA0104901189000000000000
B0702193207882S11703549EA0104001181000000000000
B0702233207862S11703457EA0103501177000000000000
B0702273207857S11703365EA0103501178000000000000
B0702313207861S11703274EA0103801184000000000000
B0702353207870S11703189EA0104401190000000000000
B0702393207870S11703109EA0104901194000000000000
B0702433207823S11703055EA0105501200000000000000
B0702473207761S11703055EA0105401194000000000000
B0702513207723S11703104EA0105101194000000000000
B0702553207731S11703154EA0105301195000000000000
B0702593207774S11703170EA0104901191000000000000
B0703033207820S11703140EA0104601189000000000000
B0703073207850S11703081EA0104301186000000000000
B0703113207865S11703010EA0103901183000000000000
B0703153207871S11702933EA0103601179000000000000
B0703193207870S11702854EA0103201175000000000000
B0703233207869S11702773EA0102201161000000000000
B0703273207867S11702688EA0101501157000000000000
B0703313207854S11702604EA0101401160000000000000
B0703353207839S11702520EA0101201154000000000000
B0703393207828S11702431EA0100701151000000000000
B0703433207826S11702343EA0101301160000000000000
B0703473207809S11702264EA0102701172000000000000
B0703513207754S11702231EA0103301176000000000000
B0703553207705S11702266EA0102901168000000000000
B0703593207703S11702326EA0102601169000000000000
B0704033207741S11702360EA0102801173000000000000
B0704073207791S11702356EA0103501183000000000000
B0704113207832S11702327EA0104901194000000000000
B0704153207862S11702275EA0105301197000000000000
B0704193207863S11702207EA0105701201000000000000
B0704233207826S11702151EA0106001202000000000000
B0704273207767S11702131EA0106001203000000000000
B0704313207716S11702160EA0106301209000000000000
B0704353207698S11702210EA0106801209000000000000
B0704393207718S11702252EA0106501208000000000000
B0704433207763S11702257EA0106501209000000000000
B0704473207800S11702212EA0106701211000000000000
B0704513207802S11702143EA0106701211000000000000
B0704553207762S11702082EA0106401208000000000000
B0704593207696S11702071EA0106301207000000000000
B0705033207651S11702118EA0106501209000000000000
B0705073207658S11702177EA0106401205000000000000
B0705113207705S11702203EA0106301208000000000000
B0705153207754S11702175EA0106901214000000000000
B0705193207774S11702108EA0107101216000000000000
B0705233207744S11702039EA0107401217000000000000
B0705273207680S11702017EA0106801211000000000000
B0705313207629S11702062EA0106701209000000000000
B0705353207636S11702122EA0107201214000000000000
B0705393207683S11702140EA0107401218000000000000
B0705433207726S11702100EA0107801224000000000000
B0705473207731S11702027EA0108001224000000000000
B0705513207688S11701965EA0108001223000000000000
B0705553207623S11701952EA0107801223000000000000
B0705593207576S11701993EA0108001225000000000000
B0706033207576S11702053EA0108201226000000000000
B0706073207612S11702088EA0108501229000000000000
B0706113207662S11702091EA0108701231000000000000
B0706153207709S11702060EA0109001237000000000000
B0706193207720S11701992EA0109401239000000000000
B0706233207676S11701935EA0109401236000000000000
B0706273207614S11701947EA0109101234000000000000
B0706313207585S11702005EA0108701228000000000000
B0706353207601S11702061EA0109201237000000000000
B0706393207641S11702084EA0110101244000000000000
B0706433207689S11702075EA0110101243000000000000
B0706473207740S11702051EA0110301248000000000000
B0706513207789S11702019EA0110601250000000000000
B0706553207840S11701986EA0110601250000000000000
B0706593207887S11701943EA0111201257000000000000
B0707033207896S11701871EA0111701262000000000000
B0707073207849S11701815EA0111501256000000000000
B0707113207783S11701818EA0111401254000000000000
B0707153207746S11701865EA0111701260000000000000
B0707193207748S11701921EA0111601257000000000000
B0707233207775S11701973EA0110901252000000000000
B0707273207819S11702009EA0111301258000000000000
B0707313207871S11702019EA0112301268000000000000
B0707353207921S11701996EA0113001274000000000000
B0707393207950S11701934EA0112501269000000000000
B0707433207953S11701852EA0112301267000000000000
B0707473207944S11701768EA0112801274000000000000
B0707513207926S11701689EA0113001275000000000000
B0707553207898S11701611EA0113201278000000000000
B0707593207844S11701580EA0114801293000000000000
B0708033207804S11701615EA0114901291000000000000
B0708073207809S11701671EA0114901293000000000000
B0708113207848S11701693EA0115801305000000000000
B0708153207893S11701679EA0116301304000000000000
B0708193207931S11701629EA0115901303000000000000
B0708233207943S11701559EA0116001306000000000000
B0708273207921S11701490EA0116101304000000000000
B0708313207866S11701450EA0116201307000000000000
B0708353207806S11701455EA0116601312000000000000
B0708393207768S11701503EA0117001314000000000000
B0708433207770S11701566EA0116901313000000000000
B0708473207809S11701602EA0117401320000000000000
B0708513207857S11701584EA0118001325000000000000
B0708553207883S11701523EA0117901322000000000000
B0708593207863S11701453EA0117801324000000000000
B0709033207810S11701416EA0117701321000000000000
B0709073207750S11701438EA0117301317000000000000
B0709113207728S11701499EA0117601322000000000000
B0709153207753S11701553EA0117701323000000000000
B0709193207804S11701567EA0118801335000000000000
B0709233207839S11701519EA0119201336000000000000
B0709273207823S11701447EA0118401327000000000000
B0709313207766S11701412EA0118101325000000000000
B0709353207710S11701432EA0118201326000000000000
B0709393207687S11701486EA0118101324000000000000
B0709433207706S11701538EA0118401328000000000000
B0709473207750S11701554EA0119201336000000000000
B0709513207791S11701521EA0119801341000000000000
B0709553207796S11701454EA0119901341000000000000
B0709593207762S11701393EA0119501337000000000000
B0710033207703S11701371EA0119001332000000000000
B0710073207654S11701402EA0118601328000000000000
B0710113207642S11701463EA0118301328000000000000
B0710153207668S11701512EA0118801331000000000000
B0710193207718S11701524EA0119101336000000000000
B0710233207767S11701494EA0119301335000000000000
B0710273207801S11701433EA0119501339000000000000
B0710313207815S11701355EA0119601338000000000000
B0710353207796S11701276EA0118901331000000000000
B0710393207762S11701195EA0118201325000000000000
B0710433207727S11701116EA0118801333000000000000
B0710473207681S11701047EA0119701342000000000000
B0710513207619S11701033EA0120701351000000000000
B0710553207594S11701083EA0121201353000000000000
B0710593207625S11701125EA0120901347000000000000
B0711033207680S11701120EA0120401344000000000000
B0711073207719S11701070EA0120701350000000000000
B0711113207729S11700996EA0120701350000000000000
B0711153207715S11700917EA0120501344000000000000
B0711193207666S11700864EA0121001354000000000000
B0711233207612S11700882EA0121501360000000000000
B0711273207605S11700936EA0122001365000000000000
B0711313207646S11700953EA0122501367000000000000
B0711353207680S11700903EA0122801372000000000000
B0711393207666S11700830EA0122801370000000000000
B0711433207607S11700810EA0123101374000000000000
B0711473207580S11700860EA0123301377000000000000
B0711513207610S11700900EA0124001384000000000000
B0711553207655S11700879EA0125101394000000000000
B0711593207675S11700818EA0125301395000000000000
B0712033207645S11700751EA0125101392000000000000
B0712073207585S11700739EA0125401399000000000000
B0712113207550S11700780EA0125801400000000000000
B0712153207568S11700827EA0126001404000000000000
B0712193207616S11700822EA0126501407000000000000
B0712233207641S11700761EA0126301405000000000000
B0712273207624S11700684EA0126301407000000000000
B0712313207573S11700639EA0126801411000000000000
B0712353207520S11700658EA0126901410000000000000
B0712393207510S11700713EA0127101412000000000000
B0712433207544S11700745EA0127201416000000000000
B0712473207590S11700725EA0127601417000000000000
B0712513207612S11700661EA0127401416000000000000
B0712553207592S11700585EA0126901411000000000000
B0712593207545S11700523EA0126901412000000000000
B0713033207484S11700501EA0127301415000000000000
B0713073207437S11700539EA0127201415000000000000
B0713113207443S11700592EA0127401417000000000000
B0713153207489S11700600EA0127601418000000000000
B0713193207519S11700548EA0127401414000000000000
B0713233207507S11700470EA0126801408000000000000
B0713273207482S11700390EA0126301403000000000000
B0713313207455S11700309EA0125901400000000000000
B0713353207429S11700224EA0125801401000000000000
B0713393207407S11700140EA0125501395000000000000
B0713433207391S11700055EA0124301383000000000000
B0713473207384S11659969EA0123301372000000000000
B0713513207380S11659885EA0122701369000000000000
B0713553207373S11659803EA0122801370000000000000
B0713593207369S11659724EA0122501368000000000000
B0714033207368S11659643EA0122401366000000000000
B0714073207371S11659560EA0122001362000000000000
B0714113207373S11659474EA0121701356000000000000
B0714153207373S11659388EA0120901349000000000000
B0714193207373S11659300EA0120201343000000000000
B0714233207377S11659211EA0119701337000000000000
B0714273207381S11659123EA0119201333000000000000
B0714313207384S11659035EA0118601328000000000000
B0714353207388S11658945EA0118301323000000000000
B0714393207391S11658856EA0117701316000000000000
B0714433207397S11658768EA0117601317000000000000
B0714473207402S11658684EA0117801316000000000000
B0714513207404S11658599EA0117401310000000000000
B0714553207406S11658515EA0116601303000000000000
B0714593207406S11658429EA0116101297000000000000
B0715033207407S11658342EA0115701296000000000000
B0715073207408S11658261EA0115901297000000000000
B0715113207407S11658179EA0115701291000000000000
B0715153207403S11658097EA0115101286000000000000
B0715193207398S11658015EA0114401279000000000000
B0715233207391S11657933EA0113401271000000000000
B0715273207389S11657849EA0112801263000000000000
B0715313207398S11657767EA0112101258000000000000
B0715353207411S11657686EA0111601255000000000000
B0715393207419S11657605EA0111201251000000000000
B0715433207428S11657524EA0111001251000000000000
B0715473207436S11657442EA0111001248000000000000
B0715513207441S11657360EA0111001251000000000000
B0715553207440S11657277EA0111101249000000000000
B0715593207404S11657204EA0110301245000000000000
B0716033207343S11657169EA0110501247000000000000
B0716073207282S11657178EA0110601249000000000000
B0716113207242S11657218EA0110601248000000000000
B0716153207237S11657278EA0110201245000000000000
B0716193207268S11657328EA0109801240000000000000
B0716233207319S11657346EA0109601240000000000000
B0716273207373S11657334EA0109701242000000000000
B0716313207423S11657302EA0110501248000000000000
B0716353207468S11657260EA0110601250000000000000
B0716393207512S11657211EA0110701251000000000000
B0716433207531S11657138EA0110801252000000000000
B0716473207499S11657073EA0110601247000000000000
B0716513207443S11657048EA0110201244000000000000
B0716553207397S11657074EA0110201246000000000000
B0716593207386S11657127EA0109901240000000000000
B0717033207414S11657174EA0109001232000000000000
B0717073207462S11657194EA0108801233000000000000
B0717113207516S11657198EA0108901234000000000000
B0717153207572S11657196EA0109201235000000000000
B0717193207629S11657192EA0109001233000000000000
B0717233207688S11657169EA0108801231000000000000
B0717273207735S11657113EA0108401228000000000000
B0717313207767S11657040EA0108201225000000000000
B0717353207789S11656964EA0107801223000000000000
B0717393207805S11656884EA0107701220000000000000
B0717433207817S11656806EA0107301215000000000000
B0717473207822S11656724EA0106801209000000000000
B0717513207822S11656643EA0106301205000000000000
B0717553207796S11656571EA0106401208000000000000
B0717593207749S11656542EA0106901212000000000000
B0718033207709S11656568EA0106101200000000000000
B0718073207702S11656626EA0105301193000000000000
B0718113207722S11656679EA0104701189000000000000
B0718153207758S11656721EA0104401184000000000000
B0718193207801S11656757EA0103901178000000000000
B0718233207849S11656783EA0103501177000000000000
B0718273207897S11656802EA0103401175000000000000
B0718313207949S11656814EA0102901173000000000000
B0718353208002S11656822EA0102701171000000000000
B0718393208057S11656825EA0102301168000000000000
B0718433208113S11656832EA0102101166000000000000
B0718473208166S11656851EA0101901165000000000000
B0718513208214S11656880EA0101901164000000000000
B0718553208255S11656921EA0101601159000000000000
B0718593208292S11656965EA0101201156000000000000
B0719033208326S11657012EA0100801151000000000000
B0719073208365S11657051EA0100401149000000000000
B0719113208408S11657082EA0100201145000000000000
B0719153208457S11657107EA0099301138000000000000
B0719193208508S11657133EA0098701130000000000000
B0719233208561S11657163EA0097901123000000000000
B0719273208616S11657189EA0097401117000000000000
B0719313208671S11657216EA0097001115000000000000
B0719353208723S11657241EA0096501107000000000000
B0719393208776S11657273EA0095001091000000000000
B0719433208828S11657317EA0093301075000000000000
B0719473208875S11657372EA0092201066000000000000
B0719513208911S11657432EA0092101066000000000000
B0719553208940S11657491EA0092101067000000000000
B0719593208966S11657555EA0091201053000000000000
B0720033208994S11657624EA0090101042000000000000
B0720073209024S11657694EA0089301037000000000000
B0720113209053S11657763EA0088901034000000000000
B0720153209084S11657831EA0088601031000000000000
B0720193209113S11657894EA0088301028000000000000
B0720233209143S11657957EA0088201026000000000000
B0720273209174S11658018EA0087801022000000000000
B0720313209205S11658076EA0087401019000000000000
B0720353209235S11658136EA0087201016000000000000
B0720393209266S11658193EA0086701011000000000000
B0720433209299S11658249EA0086501011000000000000
B0720473209327S11658301EA0086401010000000000000
B0720513209356S11658353EA0085901002000000000000
B0720553209384S11658409EA0085300995000000000000
B0720593209409S11658464EA0084500987000000000000
B0721033209432S11658517EA0084300983000000000000
B0721073209455S11658568EA0083300970000000000000
B0721113209479S11658621EA0082000956000000000000
B0721153209504S11658682EA0080800946000000000000
B0721193209525S11658749EA0080600947000000000000
B0721233209548S11658811EA0080600950000000000000
B0721273209577S11658868EA0081300956000000000000
B0721313209605S11658920EA0081900961000000000000
B0721353209644S11658962EA0082200964000000000000
B0721393209691S11658951EA0082900975000000000000
B0721433209690S11658879EA0083500975000000000000
B0721473209634S11658841EA0082900970000000000000
B0721513209582S11658872EA0082900973000000000000
B0721553209560S11658933EA0083100973000000000000
B0721593209559S11658998EA0083300978000000000000
B0722033209577S11659053EA0084200985000000000000
B0722073209618S11659076EA0084900994000000000000
B0722113209663S11659049EA0085300993000000000000
B0722153209681S11658983EA0085000995000000000000
B0722193209647S11658916EA0085300998000000000000
B0722233209585S11658906EA0085401003000000000000
B0722273209548S11658951EA0086101007000000000000
B0722313209557S11659007EA0086201010000000000000
B0722353209601S11659023EA0086801016000000000000
B0722393209639S11658983EA0086801013000000000000
B0722433209637S11658907EA0086301011000000000000
B0722473209582S11658869EA0086601015000000000000
B0722513209534S11658901EA0087001020000000000000
B0722553209535S11658957EA0087301020000000000000
B0722593209572S11658993EA0087501023000000000000
B0723033209621S11658986EA0087801025000000000000
B0723073209659S11658937EA0087801026000000000000
B0723113209681S11658867EA0088001029000000000000
B0723153209679S11658790EA0088501035000000000000
B0723193209629S11658749EA0089101041000000000000
B0723233209587S11658786EA0089401042000000000000
B0723273209614S11658825EA0090001048000000000000
B0723313209655S11658788EA0090501056000000000000
B0723353209640S11658720EA0091201062000000000000
B0723393209585S11658699EA0091401064000000000000
B0723433209547S11658738EA0091601070000000000000
B0723473209559S11658784EA0092201074000000000000
B0723513209603S11658788EA0092301073000000000000
B0723553209638S11658736EA0092801078000000000000
B0723593209635S11658663EA0093201081000000000000
B0724033209587S11658615EA0093601088000000000000
B0724073209535S11658628EA0094201093000000000000
B0724113209521S11658680EA0094201090000000000000
B0724153209556S11658712EA0094601094000000000000
B0724193209604S11658686EA0094901097000000000000
B0724233209626S11658617EA0094901100000000000000
B0724273209605S11658543EA0095501106000000000000
B0724313209551S11658504EA0095901109000000000000
B0724353209494S11658518EA0096001110000000000000
B0724393209464S11658568EA0096101110000000000000
B0724433209475S11658622EA0095801105000000000000
B0724473209522S11658650EA0095501103000000000000
B0724513209577S11658637EA0095901112000000000000
B0724553209592S11658572EA0096901120000000000000
B0724593209548S11658521EA0097101120000000000000
B0725033209494S11658539EA0096901118000000000000
B0725073209486S11658593EA0097401123000000000000
B0725113209522S11658621EA0097501122000000000000
B0725153209572S11658602EA0097701127000000000000
B0725193209599S11658538EA0097901128000000000000
B0725233209578S11658464EA0097901127000000000000
B0725273209520S11658431EA0098101131000000000000
B0725313209469S11658455EA0098501135000000000000
B0725353209461S11658508EA0098801136000000000000
B0725393209495S11658539EA0098701135000000000000
B0725433209546S11658516EA0098701134000000000000
B0725473209573S11658450EA0098701137000000000000
B0725513209560S11658374EA0099101143000000000000
B0725553209510S11658326EA0099201141000000000000
B0725593209453S11658329EA0099101141000000000000
B0726033209432S11658379EA0099001137000000000000
B0726073209461S11658425EA0098601135000000000000
B0726113209508S11658451EA0098301131000000000000
B0726153209564S11658469EA0097901125000000000000
B0726193209625S11658489EA0097201119000000000000
B0726233209690S11658508EA0096701113000000000000
B0726273209757S11658526EA0096201111000000000000
B0726313209825S11658543EA0096401114000000000000
B0726353209891S11658564EA0096401114000000000000
B0726393209955S11658583EA0096701118000000000000
B0726433210019S11658599EA0096901117000000000000
B0726473210085S11658616EA0096301110000000000000
B0726513210149S11658642EA0096001108000000000000
B0726553210209S11658674EA0096001110000000000000
B0726593210264S11658708EA0096201110000000000000
B0727033210319S11658743EA0096101108000000000000
B0727073210375S11658780EA0096301112000000000000
B0727113210428S11658816EA0096701112000000000000
B0727153210483S11658853EA0096101103000000000000
B0727193210541S11658888EA0095701101000000000000
B0727233210599S11658921EA0095401098000000000000
B0727273210656S11658951EA0095201096000000000000
B0727313210716S11658980EA0094701091000000000000
B0727353210777S11659009EA0094201088000000000000
B0727393210839S11659036EA0094201090000000000000
B0727433210899S11659063EA0094601095000000000000
B0727473210956S11659089EA0095201099000000000000
B0727513211015S11659096EA0095701106000000000000
B0727553211055S11659050EA0096901122000000000000
B0727593211048S11658981EA0097401117000000000000
B0728033211002S11658925EA0096201104000000000000
B0728073210940S11658880EA0095201096000000000000
B0728113210875S11658837EA0094601090000000000000
B0728153210808S11658797EA0093901085000000000000
B0728193210735S11658759EA0093501083000000000000
B0728233210662S11658726EA0094001087000000000000
B0728273210591S11658702EA0094401091000000000000
B0728313210522S11658681EA0094201087000000000000
B0728353210453S11658676EA0093801087000000000000
B0728393210388S11658682EA0094301090000000000000
B0728433210329S11658700EA0094101087000000000000
B0728473210275S11658726EA0093701083000000000000
B0728513210224S11658759EA0093501078000000000000
B0728553210179S11658798EA0093201076000000000000
B0728593210144S11658845EA0093201077000000000000
B0729033210124S11658897EA0093301080000000000000
B0729073210115S11658949EA0093301079000000000000
B0729113210127S11658998EA0093201076000000000000
B0729153210150S11659049EA0092701070000000000000
B0729193210172S11659103EA0092201067000000000000
B0729233210190S11659155EA0092001066000000000000
B0729273210207S11659207EA0091601062000000000000
B0729313210223S11659261EA0091301058000000000000
B0729353210240S11659311EA0090901054000000000000
B0729393210266S11659353EA0090801053000000000000
B0729433210306S11659378EA0090301044000000000000
B0729473210355S11659391EA0089201033000000000000
B0729513210413S11659378EA0088101021000000000000
B0729553210471S11659348EA0086901012000000000000
B0729593210528S11659310EA0086401009000000000000
B0730033210583S11659271EA0086001004000000000000
B0730073210638S11659233EA0085501000000000000000
B0730113210693S11659204EA0085200997000000000000
B0730153210751S11659179EA0084800995000000000000
B0730193210805S11659157EA0084900995000000000000
B0730233210861S11659136EA0084600992000000000000
B0730273210917S11659115EA0084800994000000000000
B0730313210970S11659087EA0085100997000000000000
B0730353210990S11659019EA0085901007000000000000
B0730393210942S11658963EA0086401011000000000000
B0730433210887S11658983EA0087101016000000000000
B0730473210883S11659040EA0086601009000000000000
B0730513210931S11659058EA0086501008000000000000
B0730553210972S11659011EA0087001015000000000000
B0730593210970S11658937EA0087601026000000000000
B0731033210920S11658897EA0088301029000000000000
B0731073210870S11658924EA0088401028000000000000
B0731113210868S11658979EA0088001023000000000000
B0731153210914S11658993EA0087801022000000000000
B0731193210950S11658940EA0088101026000000000000
B0731233210930S11658860EA0087901027000000000000
B0731273210877S11658815EA0088701036000000000000
B0731313210834S11658847EA0089101036000000000000
B0731353210853S11658894EA0088601029000000000000
B0731393210903S11658881EA0089001040000000000000
B0731433210921S11658812EA0089801046000000000000
B0731473210892S11658738EA0089801044000000000000
B0731513210838S11658682EA0089101037000000000000
B0731553210774S11658632EA0088501030000000000000
B0731593210706S11658583EA0087701023000000000000
B0732033210635S11658537EA0087201020000000000000
B0732073210561S11658491EA0087201021000000000000
B0732113210487S11658452EA0088601034000000000000
B0732153210419S11658455EA0089401042000000000000
B0732193210352S11658461EA0088401026000000000000
B0732233210277S11658446EA0087601021000000000000
B0732273210207S11658414EA0087601022000000000000
B0732313210142S11658372EA0087201016000000000000
B0732353210081S11658322EA0086801012000000000000
B0732393210021S11658270EA0086601008000000000000
B0732433209962S11658221EA0086101004000000000000
B0732473209898S11658174EA0085500996000000000000
B0732513209829S11658145EA0085200997000000000000
B0732553209760S11658132EA0085601001000000000000
B0732593209691S11658134EA0085601002000000000000
B0733033209637S11658162EA0086501014000000000000
B0733073209612S11658217EA0087201017000000000000
B0733113209626S11658269EA0087201017000000000000
B0733153209676S11658284EA0086901010000000000000
B0733193209733S11658290EA0085801002000000000000
B0733233209791S11658291EA0085200994000000000000
B0733273209852S11658297EA0084400988000000000000
B0733313209903S11658325EA0084400991000000000000
B0733353209932S11658375EA0084600993000000000000
B0733393209934S11658433EA0084900994000000000000
B0733433209921S11658490EA0084800996000000000000
B0733473209890S11658538EA0085000999000000000000
B0733513209846S11658570EA0085601002000000000000
B0733553209790S11658574EA0085400999000000000000
B0733593209730S11658552EA0084900990000000000000
B0734033209668S11658529EA0083700980000000000000
B0734073209601S11658505EA0083000977000000000000
B0734113209536S11658483EA0082900974000000000000
B0734153209471S11658463EA0082700973000000000000
B0734193209404S11658443EA0082500972000000000000
B0734233209336S11658429EA0082900973000000000000
B0734273209266S11658416EA0082300966000000000000
B0734313209196S11658399EA0081700962000000000000
B0734353209128S11658381EA0081200957000000000000
B0734393209061S11658357EA0080100947000000000000
B0734433208993S11658330EA0078900933000000000000
B0734473208924S11658303EA0077900917000000000000
B0734513208853S11658262EA0076300904000000000000
B0734553208789S11658208EA0075300896000000000000
B0734593208733S11658139EA0074100884000000000000
B0735033208685S11658060EA0073000875000000000000
B0735073208647S11657975EA0072400870000000000000
B0735113208615S11657889EA0072000867000000000000
B0735153208582S11657809EA0071700862000000000000
B0735193208548S11657727EA0070900854000000000000
B0735233208515S11657646EA0070600851000000000000
B0735273208481S11657569EA0070600852000000000000
B0735313208444S11657497EA0070600850000000000000
B0735353208408S11657424EA0070100846000000000000
B0735393208370S11657350EA0069500841000000000000
B0735433208338S11657270EA0069200840000000000000
B0735473208309S11657191EA0069100838000000000000
B0735513208282S11657114EA0069100838000000000000
B0735553208255S11657039EA0068900835000000000000
B0735593208226S11656968EA0068900832000000000000
B0736033208197S11656896EA0068300827000000000000
B0736073208170S11656823EA0067700818000000000000
B0736113208140S11656750EA0067600822000000000000
B0736153208117S11656676EA0067900821000000000000
B0736193208113S11656600EA0067300816000000000000
B0736233208117S11656524EA0066600812000000000000
B0736273208118S11656448EA0066200807000000000000
B0736313208108S11656371EA0065900801000000000000
B0736353208087S11656294EA0064800790000000000000
B0736393208057S11656219EA0064200785000000000000
B0736433208013S11656156EA0063900784000000000000
B0736473207960S11656113EA0063500779000000000000
B0736513207900S11656089EA0063000774000000000000
B0736553207839S11656089EA0062400769000000000000
B0736593207787S11656120EA0062000765000000000000
B0737033207748S11656169EA0061400761000000000000
B0737073207723S11656228EA0061700765000000000000
B0737113207720S11656288EA0061800765000000000000
B0737153207739S11656341EA0061700767000000000000
B0737193207776S11656380EA0061900767000000000000
B0737233207826S11656376EA0062100769000000000000
B0737273207846S11656314EA0062000767000000000000
B0737313207810S11656256EA0060900757000000000000
B0737353207754S11656251EA0060400752000000000000
B0737393207718S11656289EA0060400754000000000000
B0737433207697S11656341EA0060000748000000000000
B0737473207690S11656402EA0059100738000000000000
B0737513207698S11656466EA0058000728000000000000
B0737553207719S11656527EA0057300721000000000000
B0737593207744S11656585EA0056800713000000000000
B0738033207768S11656646EA0055700705000000000000
B0738073207794S11656706EA0055000697000000000000
B0738113207818S11656769EA0054300691000000000000
B0738153207815S11656834EA0053900689000000000000
B0738193207779S11656887EA0053600682000000000000
B0738233207724S11656926EA0052900673000000000000
B0738273207668S11656962EA0051900665000000000000
B0738313207607S11656981EA0051400666000000000000
B0738353207554S11656948EA0052300671000000000000
B0738393207537S11656879EA0051700660000000000000
B0738433207560S11656809EA0050500650000000000000
B0738473207598S11656749EA0050000646000000000000
B0738513207637S11656692EA0049500640000000000000
B0738553207676S11656633EA0048800635000000000000
B0738593207710S11656575EA0048600633000000000000
B0739033207740S11656514EA0048100629000000000000
B0739073207767S11656454EA0047300621000000000000
B0739113207800S11656396EA0046300611000000000000
B0739153207843S11656346EA0045500603000000000000
B0739193207892S11656316EA0045200601000000000000
B0739233207945S11656305EA0044700596000000000000
B0739273207999S11656307EA0044200591000000000000
B0739313208045S11656331EA0044100592000000000000
B0739353208073S11656373EA0043800585000000000000
B0739393208074S11656428EA0043200579000000000000
B0739433208053S11656481EA0042600574000000000000
B0739473208023S11656531EA0042400574000000000000
B0739513207989S11656576EA0042500572000000000000
B0739553207950S11656619EA0042100569000000000000
B0739593207910S11656661EA0041900565000000000000
B0740033207870S11656706EA0041600562000000000000
B0740073207833S11656753EA0041100556000000000000
B0740113207802S11656804EA0040100543000000000000
B0740153207774S11656861EA0038700533000000000000
B0740193207741S11656919EA0038000529000000000000
B0740233207702S11656975EA0037900525000000000000
B0740273207661S11657030EA0036900516000000000000
B0740313207620S11657090EA0036400513000000000000
B0740353207581S11657150EA0036100514000000000000
B0740393207545S11657208EA0036400516000000000000
B0740433207512S11657265EA0036600516000000000000
B0740473207481S11657324EA0036500515000000000000
B0740513207454S11657382EA0036100508000000000000
B0740553207427S11657443EA0035100498000000000000
B0740593207402S11657506EA0034200491000000000000
B0741033207368S11657563EA0033500483000000000000
B0741073207312S11657603EA0032900475000000000000
B0741113207245S11657618EA0032300472000000000000
B0741153207174S11657612EA0032000469000000000000
B0741193207107S11657592EA0031700464000000000000
B0741233207040S11657560EA0031400461000000000000
B0741273206975S11657525EA0030900455000000000000
B0741313206907S11657493EA0030300449000000000000
B0741353206836S11657458EA0029600444000000000000
B0741393206765S11657424EA0029200440000000000000
B0741433206693S11657393EA0029000438000000000000
B0741473206622S11657364EA0028700436000000000000
B0741513206552S11657339EA0028700435000000000000
B0741553206484S11657315EA0028900438000000000000
B0741593206422S11657282EA0028900438000000000000
B0742033206362S11657238EA0028500432000000000000
B0742073206311S11657174EA0027900428000000000000
B0742113206267S11657103EA0027800425000000000000
B0742153206229S11657027EA0027300421000000000000
B0742193206203S11656945EA0027000418000000000000
B0742233206179S11656864EA0026500412000000000000
B0742273206155S11656779EA0026000412000000000000
B0742313206132S11656698EA0026300414000000000000
B0742353206112S11656617EA0026000410000000000000
B0742393206098S11656533EA0025600404000000000000
B0742433206095S11656446EA0024500395000000000000
B0742473206114S11656366EA0023400387000000000000
B0742513206150S11656299EA0023200383000000000000
B0742553206199S11656260EA0023100381000000000000
B0742593206253S11656245EA0022800375000000000000
B0743033206305S11656254EA0021900368000000000000
B0743073206351S11656276EA0021100358000000000000
B0743113206397S11656305EA0020000348000000000000
B0743153206444S11656334EA0019200341000000000000
B0743193206492S11656366EA0018600336000000000000
B0743233206541S11656396EA0018100330000000000000
B0743273206591S11656424EA0017500323000000000000
B0743313206637S11656453EA0016700317000000000000
B0743353206683S11656479EA0016100311000000000000
B0743393206728S11656509EA0015600307000000000000
B0743433206771S11656536EA0015100301000000000000
B0743473206814S11656561EA0014000289000000000000
B0743513206858S11656585EA0012800277000000000000
B0743553206905S11656611EA0011900264000000000000
B0743593206952S11656641EA0010600251000000000000
B0744033206998S11656672EA0009400241000000000000
B0744073207046S11656702EA0008600231000000000000
B0744113207091S11656730EA0007500221000000000000
B0744153207135S11656757EA0006800214000000000000
B0744193207176S11656780EA0006300210000000000000
B0744233207209S11656799EA0006100209000000000000
B0744273207235S11656815EA0006200209000000000000
B0744313207259S11656828EA0006100209000000000000
B0744353207277S11656839EA0006200209000000000000
B0744393207293S11656847EA0006100209000000000000
B0744433207306S11656853EA0006100210000000000000
B0744473207313S11656857EA0005900210000000000000
B0744513207316S11656860EA0006100210000000000000
B0744553207316S11656860EA0006100211000000000000
B0744593207316S11656860EA0006000211000000000000
B0745033207316S11656860EA0006100211000000000000
B0745073207316S11656860EA0006100211000000000000
B0745113207316S11656860EA0006200211000000000000
G0003000000C5A65AAB0000000000000000000000000000000000000000000000
GAD1D6FBD5EA91516EDA5E4DB4A4B7D4F93892663000000006B401B5691754085
G07579E6B9CCF82F8D6491CDE91130E458980ECDB000000000000000078054CE4
