ACAM4N6
HFDTE060821
HFFXA050
HFPLTPILOT:JOHN WELSH              
HFGTYGLIDERTYPE:HORNET      
HFGIDGLIDERID:VH-GMY      
HFDTM100GPSDATUM:
HFRFWFIRMWAREVERSION:F2.6
HFRHWHARDWAREVERSION:300 Series Version 2
HFFTYFRTYPE:CAMBRIDGE AERO INSTRUMENTS, 302+
HFGPS:GARMIN,LVS-25,12,18000
HFPRSPRESSALTSENSOR:INTERSEMA, MS5534-AP, 20000
I033638FXA3941ENL4247REX
LCAMSBVER:5FWVER:F26300
C020521044002020521000101
C0000000N00000000WTAKEOFF     
C3207549S11656849EBEVAIR      
C3255649S11704983ENARRAIR     
C3207549S11656849EBEVAIR      
C0000000N00000000WLANDING     
B0432153207733S11657095EA0011700217000000000000
B0432173207733S11657095EA0011800216000000000000
B0432193207733S11657095EA0011700216000000000000
B0432213207733S11657095EA0011800216000000000000
B0432233207733S11657095EA0011800216000000000000
B0432253207733S11657095EA0011700216000000000000
B0432273207733S11657095EA0011700216000000000000
B0432293207733S11657095EA0011600216000000000000
B0432313207733S11657095EA0011800216000000000000
B0432333207733S11657095EA0011800216000000000000
B0432353207733S11657095EA0011700216000000000000
B0432373207733S11657094EA0011800216000000000000
B0432393207733S11657094EA0011700216000000000000
B0432413207733S11657094EA0011800216000000000000
B0432433207732S11657094EA0011800216000000000000
B0432443207729S11657092EA0011800216000000000000
B0432483207709S11657086EA0011600216000000000000
B0432523207674S11657069EA0011900216000000000000
B0432563207628S11657042EA0011900216000000000000
B0433003207570S11657008EA0012000218000000000000
B0433043207507S11656974EA0012800225000000000000
B0433083207446S11656944EA0013500238000000000000
B0433123207389S11656923EA0015200261000000000000
B0433163207330S11656900EA0017200281000000000000
B0433203207272S11656875EA0018900293000000000000
B0433243207212S11656851EA0020200307000000000000
B0433283207152S11656819EA0021500322000000000000
B0433323207098S11656780EA0022900337000000000000
B0433363207055S11656723EA0024700356000000000000
B0433403207027S11656653EA0026400372000000000000
B0433443207009S11656578EA0028100388000000000000
B0433483206992S11656501EA0029600404000000000000
B0433523206979S11656423EA0031500421000000000000
B0433563206969S11656344EA0033100437000000000000
B0434003206957S11656263EA0035000451000000000000
B0434043206952S11656180EA0036300465000000000000
B0434083206965S11656098EA0037800487000000000000
B0434123207001S11656020EA0039800503000000000000
B0434163207063S11655957EA0041400518000000000000
B0434203207135S11655913EA0043200536000000000000
B0434243207216S11655885EA0044900554000000000000
B0434283207306S11655889EA0046800571000000000000
B0434323207395S11655924EA0048100577000000000000
B0434363207476S11655980EA0049400595000000000000
B0434403207538S11656054EA0051200613000000000000
B0434443207577S11656141EA0053000631000000000000
B0434483207589S11656234EA0054300642000000000000
B0434523207581S11656320EA0055200660000000000000
B0434563207560S11656396EA0057400680000000000000
B0435003207536S11656471EA0059100692000000000000
B0435043207511S11656550EA0060000702000000000000
B0435083207484S11656630EA0061300718000000000000
B0435123207454S11656706EA0062900728000000000000
B0435163207414S11656774EA0063600737000000000000
B0435203207364S11656809EA0065500759000000000000
B0435243207311S11656815EA0067000770000000000000
B0435283207260S11656806EA0068500788000000000000
B0435323207209S11656791EA0070300802000000000000
B0435363207157S11656773EA0071200811000000000000
B0435403207107S11656749EA0072800835000000000000
B0435443207066S11656713EA0075100858000000000000
B0435483207055S11656649EA0077400879000000000000
B0435523207074S11656574EA0079200892000000000000
B0435563207116S11656503EA0080800910000000000000
B0436003207181S11656449EA0082800932000000000000
B0436043207263S11656416EA0084700949000000000000
B0436083207356S11656414EA0086300963000000000000
B0436123207453S11656450EA0087600976000000000000
B0436163207538S11656518EA0089100992000000000000
B0436203207598S11656610EA0090801010000000000000
B0436243207632S11656711EA0092501028000000000000
B0436283207637S11656812EA0093901040000000000000
B0436323207618S11656899EA0095501057000000000000
B0436363207580S11656964EA0096701071000000000000
B0436403207531S11657000EA0098001084000000000000
B0436443207479S11657005EA0099301095000000000000
B0436483207434S11656982EA0100701110000000000000
B0436523207395S11656949EA0102501126000000000000
B0436563207352S11656935EA0103201130000000000000
B0437003207311S11656969EA0103601132000000000000
B0437043207298S11657044EA0103901134000000000000
B0437083207328S11657127EA0104001133000000000000
B0437123207391S11657187EA0103701130000000000000
B0437163207469S11657205EA0103601128000000015000
B0437203207540S11657190EA0103501125000000015000
B0437243207589S11657150EA0103201123000000015000
B0437283207616S11657101EA0102801120000000000000
B0437323207627S11657053EA0102301115000000000000
B0437363207620S11657009EA0101901111000000000000
B0437403207609S11656969EA0101601108000000000000
B0437443207592S11656932EA0101301107000000000000
B0437483207571S11656899EA0101301107000000000000
B0437523207550S11656867EA0101401108000000000000
B0437563207525S11656841EA0101401108000000000000
B0438003207501S11656817EA0101301109000000000000
B0438043207472S11656799EA0101401108000000000000
B0438083207438S11656788EA0101401108000000000000
B0438123207407S11656776EA0101401109000000000000
B0438163207378S11656758EA0101501109000000000000
B0438203207351S11656737EA0101501108000000000000
B0438243207323S11656717EA0101201105000000000000
B0438283207295S11656695EA0101001104000000000000
B0438323207264S11656675EA0101001101000000000000
B0438363207228S11656669EA0100701100000000000000
B0438403207193S11656663EA0100601100000000000000
B0438443207161S11656649EA0100601100000000000000
B0438483207133S11656631EA0100501100000000000000
B0438523207105S11656613EA0100601099000000000000
B0438563207078S11656593EA0100501099000000000000
B0439003207052S11656575EA0100501097000000000000
B0439043207022S11656561EA0100301095000000000000
B0439083206990S11656555EA0100201093000000000000
B0439123206953S11656565EA0100001092000000000000
B0439163206917S11656591EA0099801092000000000000
B0439203206884S11656627EA0099801091000000000000
B0439243206852S11656671EA0099901091000000000000
B0439283206823S11656717EA0099901091000000000000
B0439323206796S11656766EA0099801090000000000000
B0439363206770S11656819EA0099701089000000000000
B0439403206745S11656873EA0099401086000000000000
B0439443206721S11656927EA0099301084000000000000
B0439483206695S11656981EA0099001080000000000000
B0439523206663S11657022EA0098701077000000000000
B0439563206630S11657047EA0098201074000000000000
B0440003206597S11657051EA0098001070000000000000
B0440043206574S11657031EA0097701065000000000000
B0440083206565S11656994EA0097201061000000000000
B0440123206572S11656948EA0096701057000000000000
B0440163206596S11656900EA0096401053000000000000
B0440203206626S11656853EA0096001049000000000000
B0440243206657S11656805EA0095601044000000000000
B0440283206686S11656756EA0095101039000000000000
B0440323206709S11656705EA0094701035000000000000
B0440363206727S11656654EA0094201031000000000000
B0440403206741S11656604EA0093801028000000000000
B0440443206754S11656553EA0093601025000000000000
B0440483206765S11656503EA0093301023000000000000
B0440523206774S11656455EA0093101020000000000000
B0440563206782S11656407EA0092701017000000000000
B0441003206790S11656359EA0092301013000000000000
B0441043206799S11656308EA0092101009000000000000
B0441083206809S11656259EA0091701007000000000000
B0441123206819S11656210EA0091401004000000000000
B0441163206832S11656160EA0091001000000000000000
B0441203206851S11656111EA0090800998000000000000
B0441243206873S11656063EA0090500994000000000000
B0441283206895S11656013EA0090000988000000000000
B0441323206912S11655963EA0089600983000000000000
B0441363206917S11655915EA0089100978000000000000
B0441403206912S11655873EA0088900974000000000000
B0441443206894S11655839EA0088300969000000000000
B0441483206864S11655822EA0087800965000000000000
B0441523206829S11655824EA0087600965000000000000
B0441563206795S11655840EA0087500963000000000000
B0442003206762S11655869EA0087200960000000000000
B0442043206730S11655905EA0087000958000000000000
B0442083206700S11655946EA0086600957000000000000
B0442123206673S11655990EA0086600956000000000000
B0442163206647S11656038EA0086500955000000000000
B0442203206624S11656089EA0086200953000000000000
B0442243206602S11656142EA0086000951000000000000
B0442283206580S11656194EA0085700948000000000000
B0442323206554S11656241EA0085400945000000000000
B0442363206526S11656284EA0085000942000000000000
B0442403206496S11656324EA0084700939000000000000
B0442443206465S11656366EA0084600938000000000000
B0442483206437S11656410EA0084500938000000000000
B0442523206409S11656450EA0084500939000000000000
B0442563206377S11656483EA0084500938000000000000
B0443003206346S11656513EA0084400936000000000000
B0443043206315S11656542EA0084300934000000000000
B0443083206281S11656574EA0084100933000000000000
B0443123206249S11656607EA0084000933000000000000
B0443163206218S11656644EA0083900932000000000000
B0443203206188S11656684EA0083600929000000000000
B0443243206156S11656726EA0083200923000000000000
B0443283206121S11656757EA0082700917000000000000
B0443323206085S11656773EA0082000913000000000000
B0443363206054S11656770EA0081700910000000000000
B0443403206029S11656752EA0081300904000000000000
B0443443206013S11656719EA0080700899000000000000
B0443483206012S11656676EA0080700899000000000000
B0443523206023S11656631EA0080800900000000000000
B0443563206036S11656584EA0080800900000000000000
B0444003206045S11656535EA0080600899000000000000
B0444043206050S11656485EA0080500895000000000000
B0444083206039S11656442EA0080100891000000000000
B0444123206012S11656416EA0080000893000000000000
B0444163205976S11656422EA0080200897000000000000
B0444203205941S11656455EA0080400897000000000000
B0444243205913S11656511EA0080100894000000000000
B0444283205896S11656580EA0079500891000000000000
B0444323205885S11656650EA0079500891000000000000
B0444363205873S11656717EA0079500891000000000000
B0444403205859S11656782EA0079400890000000000000
B0444443205843S11656847EA0079400890000000000000
B0444483205825S11656906EA0079300889000000000000
B0444523205805S11656964EA0079100887000000000000
B0444563205785S11657020EA0078800884000000000000
B0445003205763S11657075EA0078600882000000000000
B0445043205742S11657129EA0078500881000000000000
B0445083205720S11657182EA0078500881000000000000
B0445123205699S11657235EA0078300879000000000000
B0445163205675S11657287EA0078100876000000000000
B0445203205647S11657329EA0077800874000000000000
B0445243205616S11657350EA0077800873000000000000
B0445283205588S11657343EA0077500869000000000000
B0445323205575S11657311EA0077200867000000000000
B0445363205584S11657265EA0077100866000000000000
B0445403205613S11657218EA0077100865000000000000
B0445443205648S11657174EA0077000864000000000000
B0445483205683S11657129EA0076700861000000000000
B0445523205714S11657082EA0076300857000000000000
B0445563205743S11657035EA0075800850000000000000
B0446003205769S11656986EA0075200844000000000000
B0446043205781S11656932EA0074600840000000000000
B0446083205766S11656892EA0074700841000000000000
B0446123205731S11656891EA0074800843000000000000
B0446163205703S11656935EA0075000844000000000000
B0446203205703S11657010EA0075100846000000000000
B0446243205739S11657085EA0075300848000000000000
B0446283205803S11657135EA0075400846000000000000
B0446323205877S11657147EA0074900841000000000000
B0446363205941S11657120EA0074400835000000015000
B0446403205984S11657072EA0073900829000000000000
B0446443206002S11657012EA0073200824000000000000
B0446483205998S11656956EA0073000819000000000000
B0446523205969S11656919EA0072400816000000000000
B0446563205926S11656914EA0072300816000000000000
B0447003205883S11656947EA0072100814000000000000
B0447043205854S11657008EA0071700809000000000000
B0447083205841S11657091EA0071100805000000000000
B0447123205837S11657178EA0070900806000000000000
B0447163205837S11657265EA0070800804000000000000
B0447203205839S11657354EA0070800804000000000000
B0447243205844S11657442EA0070800804000000000000
B0447283205855S11657533EA0070600802000000000000
B0447323205856S11657619EA0070300794000000000000
B0447363205825S11657677EA0069500789000000000000
B0447403205782S11657705EA0069000785000000000000
B0447443205740S11657710EA0068800784000000000000
B0447483205704S11657699EA0068700782000000000000
B0447523205673S11657677EA0068400778000000000000
B0447563205642S11657653EA0068200776000000000000
B0448003205610S11657628EA0067900773000000000000
B0448043205582S11657602EA0067700771000000000000
B0448083205552S11657575EA0067200765000000000000
B0448123205519S11657549EA0066800761000000000000
B0448163205486S11657523EA0066200755000000000000
B0448203205453S11657494EA0065700752000000000000
B0448243205426S11657459EA0065400747000000000000
B0448283205408S11657416EA0065100744000000000000
B0448323205395S11657368EA0064700738000000000000
B0448363205382S11657317EA0064000730000000000000
B0448403205366S11657264EA0063100722000000000000
B0448443205349S11657211EA0062300714000000000000
B0448483205326S11657159EA0061300704000000000000
B0448523205300S11657103EA0060700699000000000000
B0448563205274S11657048EA0060300695000000000000
B0449003205241S11656999EA0059800690000000000000
B0449043205201S11656960EA0059300684000000000000
B0449083205154S11656927EA0058700680000000000000
B0449123205102S11656913EA0058600678000000000000
B0449163205049S11656929EA0058300675000000000000
B0449203205005S11656978EA0058100673000000000000
B0449243204971S11657039EA0058100675000000000000
B0449283204958S11657112EA0058400675000000000000
B0449323204979S11657192EA0057800667000000000000
B0449363205024S11657269EA0057100663000000000000
B0449403205077S11657343EA0056700658000000000000
B0449443205137S11657410EA0056200653000000000000
B0449483205213S11657456EA0055900649000000000000
B0449523205289S11657446EA0055800650000000000000
B0449563205315S11657382EA0055800648000000000000
B0450003205279S11657356EA0055500645000000015000
B0450043205248S11657404EA0055200643000000015000
B0450083205272S11657477EA0055000638000000015000
B0450123205349S11657506EA0054200632000000015000
B0450163205431S11657506EA0053500625000000000000
B0450203205513S11657497EA0053000621000000000000
B0450243205595S11657478EA0052700618000000000000
B0450283205675S11657455EA0052400616000000000000
B0450323205751S11657424EA0052000614000000000000
B0450363205821S11657385EA0051800611000000000000
B0450403205882S11657335EA0051600609000000000000
B0450443205928S11657274EA0051500607000000000000
B0450483205955S11657208EA0051100602000000000000
B0450523205960S11657140EA0050600598000000000000
B0450563205947S11657075EA0050200594000000000000
B0451003205924S11657017EA0050100595000000000000
B0451043205890S11656971EA0050300596000000000000
B0451083205851S11656936EA0050000591000000000000
B0451123205807S11656912EA0049300584000000000000
B0451163205759S11656892EA0048500574000000000000
B0451203205711S11656908EA0048000570000000000000
B0451243205690S11656966EA0047800568000000000000
B0451283205724S11657031EA0047500563000000000000
B0451323205792S11657060EA0046300553000000000000
B0451363205868S11657053EA0046000552000000000000
B0451403205939S11657033EA0046000551000000000000
B0451443206006S11656990EA0045300544000000000000
B0451483206065S11656935EA0044600537000000000000
B0451523206119S11656871EA0044100531000000000000
B0451563206164S11656804EA0043800528000000000000
B0452003206190S11656730EA0043500525000000000000
B0452043206195S11656656EA0043100523000000000000
B0452083206169S11656601EA0043000523000000000000
B0452123206125S11656571EA0042800519000000000000
B0452163206078S11656585EA0042500516000000000000
B0452203206059S11656646EA0042300511000000000000
B0452243206088S11656715EA0041800508000000000000
B0452283206149S11656762EA0041100501000000000000
B0452323206216S11656797EA0040600498000000000000
B0452363206285S11656832EA0040300495000000000000
B0452403206354S11656865EA0040200494000000000000
B0452443206422S11656900EA0040100491000000000000
B0452483206491S11656935EA0039600485000000000000
B0452523206557S11656973EA0039200481000000000000
B0452563206621S11657017EA0038500472000000000000
B0453003206684S11657068EA0037700465000000000000
B0453043206743S11657121EA0037200461000000000000
B0453083206799S11657177EA0037100460000000000000
B0453123206853S11657231EA0036800457000000000000
B0453163206907S11657283EA0036800458000000000000
B0453203206949S11657345EA0037100460000000000000
B0453243206983S11657408EA0037100458000000000000
B0453283207021S11657472EA0036600453000000000000
B0453323207063S11657533EA0036200449000000000000
B0453363207107S11657592EA0036000448000000000000
B0453403207148S11657649EA0035800446000000000000
B0453443207190S11657711EA0035400440000000000000
B0453483207237S11657772EA0035100436000000000000
B0453523207289S11657829EA0034800435000000000000
B0453563207346S11657881EA0034800434000000000000
B0454003207406S11657928EA0034500432000000000000
B0454043207469S11657971EA0034100426000000000000
B0454083207533S11658017EA0033400420000000000000
B0454123207598S11658061EA0032900418000000000000
B0454163207661S11658104EA0033000418000000000000
B0454203207722S11658147EA0032800415000000000000
B0454243207785S11658187EA0032500409000000000000
B0454283207858S11658209EA0031900404000000000000
B0454323207935S11658200EA0031600402000000000000
B0454363208001S11658158EA0031200394000000000000
B0454403208047S11658088EA0030100390000000000000
B0454443208086S11658015EA0029700386000000000000
B0454483208131S11657946EA0029100378000000000000
B0454523208183S11657881EA0028600370000000000000
B0454563208236S11657818EA0028100368000000000000
B0455003208290S11657757EA0027600362000000000000
B0455043208344S11657696EA0027400360000000000000
B0455083208385S11657625EA0027100356000000000000
B0455123208381S11657551EA0025900347000000000000
B0455163208347S11657494EA0025000337000000000000
B0455203208300S11657454EA0023900328000000000000
B0455243208252S11657424EA0023000318000000000000
B0455283208205S11657400EA0022000305000000000000
B0455323208158S11657374EA0020700292000000000000
B0455363208114S11657345EA0019000274000000000000
B0455403208069S11657315EA0017200256000000000000
B0455443208019S11657286EA0015800242000000000000
B0455483207971S11657254EA0014500231000000000000
B0455523207923S11657224EA0013300218000000000000
B0455563207878S11657198EA0012300209000000000000
B0456003207840S11657176EA0011900208000000000000
B0456043207811S11657157EA0011900208000000000000
B0456083207789S11657143EA0012000208000000000000
B0456123207774S11657133EA0012000208000000000000
B0456163207763S11657125EA0012000208000000000000
B0456203207757S11657120EA0012100207000000000000
B0456243207754S11657116EA0012100207000000000000
B0456283207754S11657116EA0012100207000000000000
B0456323207754S11657116EA0012200207000000000000
B0456363207754S11657114EA0012200207000000000000
B0456403207754S11657111EA0012200207000000000000
B0456443207754S11657107EA0012100207000000000000
G000300000021E654200000000000000000000000000000000000000000000000
G62FC51F6549FB1F131DF073374456E6B11750E0E0000000080188724EA782B53
G49E8FB9D88E681C961A2D3568887067A94F1537100000000000000002F341742
