ACAM4N6
HFDTE030916
HFFXA050
HFPLTPILOT:JOHN WELSH              
HFGTYGLIDERTYPE:HORNET      
HFGIDGLIDERID:VH-GMY      
HFDTM100GPSDATUM:
HFRFWFIRMWAREVERSION:F2.6
HFRHWHARDWAREVERSION:300 Series Version 2
HFFTYFRTYPE:CAMBRIDGE AERO INSTRUMENTS, 302+
HFGPS:GARMIN,LVS-25,12,18000
HFPRSPRESSALTSENSOR:INTERSEMA, MS5534-AP, 20000
I033638FXA3941ENL4247REX
LCAMSBVER:5FWVER:F26300
C291115033441291115000102
C0000000N00000000WTAKEOFF     
C3207550S11656850EBeverley Air
C3301433S11652383EWilliams    
C3152972S11809470EBruce Rock  
C3207550S11656850EBeverley Air
C0000000N00000000WLANDING     
B0417443207336S11656857EA0012600206000004000000
B0417463207336S11656857EA0012500206000004000000
B0417483207336S11656857EA0012500206000004000000
B0417503207336S11656857EA0012400206000004000000
B0417523207336S11656857EA0012500206000004000000
B0417543207336S11656857EA0012500206000004000000
B0417563207336S11656857EA0012600206000004000000
B0417583207336S11656857EA0012600206000004000000
B0418003207336S11656857EA0012600206000004000000
B0418023207336S11656857EA0012600206000004000000
B0418043207336S11656857EA0012500206000004000000
B0418063207336S11656857EA0012500206000004000000
B0418083207336S11656857EA0012600206000004000000
B0418103207337S11656858EA0012600206000004000000
B0418123207338S11656858EA0012700205000004000000
B0418153207347S11656866EA0012800206000004000000
B0418193207373S11656888EA0012400206000004000000
B0418233207419S11656917EA0012300206000004000000
B0418273207479S11656955EA0012400206000004000000
B0418313207549S11656997EA0012500207000004000000
B0418353207622S11657044EA0013000214000004000000
B0418393207688S11657092EA0014900237000004000000
B0418433207749S11657142EA0017300268000004000000
B0418473207807S11657190EA0020100287000004000000
B0418513207870S11657235EA0021400299000004000000
B0418553207934S11657277EA0023100319000004000000
B0418593207997S11657319EA0024900337000004000000
B0419033208056S11657364EA0026700358000004000000
B0419073208105S11657420EA0028900382000004000000
B0419113208145S11657485EA0031300399000004000000
B0419153208190S11657553EA0032700411000004000000
B0419193208239S11657615EA0033700424000004000000
B0419233208288S11657675EA0035300442000004000000
B0419273208335S11657732EA0037500462000004000000
B0419313208381S11657790EA0039200479000004000000
B0419353208425S11657850EA0041000495000004000000
B0419393208464S11657917EA0042400510000004000000
B0419433208494S11657992EA0044000527000004000000
B0419473208507S11658071EA0046000549000004000000
B0419513208506S11658151EA0048600573000004000000
B0419553208493S11658227EA0050800594000004000000
B0419593208468S11658299EA0052800611000004000000
B0420033208437S11658365EA0054400626000004000000
B0420073208409S11658434EA0056000641000004000000
B0420113208383S11658502EA0057400656000004000000
B0420153208356S11658572EA0058200664000004000000
B0420193208330S11658642EA0059200676000004000000
B0420233208307S11658711EA0060800695000004000000
B0420273208281S11658777EA0062700711000004000000
B0420313208251S11658840EA0064500730000004000000
B0420353208217S11658903EA0066300746000004000000
B0420393208183S11658970EA0067600758000004000000
B0420433208157S11659038EA0069200777000004000000
B0420473208131S11659106EA0071500800000004000000
B0420513208109S11659175EA0073000814000004000000
B0420553208108S11659240EA0073700818000004000000
B0420593208135S11659296EA0073600815000004000000
B0421033208174S11659347EA0072900806000004000000
B0421073208214S11659395EA0072300801000004000000
B0421113208253S11659444EA0071700793000004000000
B0421153208295S11659492EA0070900787000004000000
B0421193208337S11659536EA0070400781000004000000
B0421233208379S11659578EA0070100779000004000000
B0421273208421S11659617EA0069600775000004000000
B0421313208463S11659657EA0069300768000004000000
B0421353208506S11659698EA0068900766000004000000
B0421393208547S11659739EA0069200770000004000000
B0421433208591S11659778EA0069500773000004000000
B0421473208649S11659783EA0069700776000004000000
B0421513208691S11659740EA0070300779000004000000
B0421553208695S11659674EA0070200776000004000000
B0421593208660S11659623EA0069600769000004000000
B0422033208606S11659614EA0069000765000004000000
B0422073208559S11659647EA0068900764000004000000
B0422113208537S11659708EA0068900766000004000000
B0422153208546S11659776EA0069300775000004000000
B0422193208595S11659807EA0070500782000004000000
B0422233208650S11659783EA0070500782000004000000
B0422273208680S11659720EA0071000788000004000000
B0422313208665S11659660EA0071500794000004000000
B0422353208623S11659649EA0072100799000004000000
B0422393208599S11659698EA0072100798000004000000
B0422433208624S11659753EA0072900808000004000000
B0422473208677S11659766EA0073500813000004000000
B0422513208725S11659729EA0074000819000004000000
B0422553208738S11659669EA0074600822000004000000
B0422593208710S11659623EA0074500821000004000000
B0423033208667S11659627EA0074600822000004000000
B0423073208645S11659673EA0074400822000004000000
B0423113208656S11659734EA0074900827000004000000
B0423153208699S11659770EA0075600835000004000000
B0423193208754S11659757EA0075700832000004000000
B0423233208780S11659696EA0075300829000004000000
B0423273208756S11659642EA0075400831000004000000
B0423313208710S11659635EA0075500832000004000000
B0423353208680S11659679EA0075800837000004000000
B0423393208697S11659735EA0076500844000004000000
B0423433208749S11659755EA0076700845000004000000
B0423473208797S11659720EA0076700845000004000000
B0423513208805S11659657EA0077000846000004000000
B0423553208772S11659612EA0076500841000004000000
B0423593208723S11659591EA0075700831000004000000
B0424033208669S11659571EA0074900821000004000000
B0424073208613S11659545EA0074200816000004000000
B0424113208558S11659518EA0073900809000004000000
B0424153208500S11659488EA0072700797000004000000
B0424193208444S11659454EA0071600788000004000000
B0424233208389S11659418EA0070800780000004000000
B0424273208334S11659382EA0070100773000004000000
B0424313208282S11659345EA0069700771000004000000
B0424353208234S11659310EA0069900774000004000000
B0424393208188S11659274EA0070200775000004000000
B0424433208144S11659239EA0069800769000004000000
B0424473208095S11659214EA0069900773000004000000
B0424513208061S11659250EA0070600785000004000000
B0424553208086S11659306EA0071300788000004000000
B0424593208147S11659317EA0071800795000004000000
B0425033208195S11659272EA0071900789000004000000
B0425073208203S11659204EA0071100785000004000000
B0425113208169S11659155EA0071100788000004000000
B0425153208118S11659135EA0071500790000004000000
B0425193208071S11659155EA0072300799000004000000
B0425233208054S11659215EA0072400797000004000000
B0425273208083S11659275EA0072600804000004000000
B0425313208145S11659292EA0073000809000004000000
B0425353208199S11659252EA0073800816000004000000
B0425393208210S11659183EA0074400820000004000000
B0425433208179S11659131EA0074600822000004000000
B0425473208126S11659128EA0075000827000004000000
B0425513208095S11659178EA0075500832000004000000
B0425553208114S11659237EA0076300840000004000000
B0425593208171S11659256EA0077100845000004000000
B0426033208223S11659218EA0077200847000004000000
B0426073208234S11659149EA0077600850000004000000
B0426113208200S11659093EA0077600852000004000000
B0426153208144S11659080EA0077800854000004000000
B0426193208100S11659118EA0078500864000004000000
B0426233208099S11659187EA0078900865000004000000
B0426273208149S11659237EA0079600878000004000000
B0426313208208S11659230EA0081500893000004000000
B0426353208242S11659175EA0081700892000004000000
B0426393208234S11659109EA0081900895000004000000
B0426433208192S11659072EA0082600902000004000000
B0426473208144S11659079EA0083100906000004000000
B0426513208108S11659120EA0083500914000004000000
B0426553208099S11659180EA0084400920000004000000
B0426593208125S11659239EA0085000924000004000000
B0427033208175S11659271EA0085500932000004000000
B0427073208230S11659253EA0086200935000004000000
B0427113208259S11659194EA0086100934000004000000
B0427153208244S11659131EA0085800932000004000000
B0427193208199S11659103EA0085900933000004000000
B0427233208152S11659122EA0086300942000004000000
B0427273208130S11659175EA0087400949000004000000
B0427313208153S11659232EA0087700952000004000000
B0427353208208S11659252EA0088200957000004000000
B0427393208255S11659219EA0088500959000004000000
B0427433208272S11659154EA0088700959000004000000
B0427473208252S11659094EA0088700961000004000000
B0427513208207S11659070EA0088700961000004000000
B0427553208160S11659097EA0088900962000004000000
B0427593208144S11659158EA0089000965000004000000
B0428033208173S11659215EA0088900963000004000000
B0428073208233S11659228EA0089100966000004000000
B0428113208281S11659185EA0089900974000004000000
B0428153208291S11659118EA0090200977000004000000
B0428193208260S11659062EA0090400977000004000000
B0428233208210S11659049EA0090700982000004000000
B0428273208168S11659079EA0091200987000004000000
B0428313208155S11659133EA0091600990000004000000
B0428353208182S11659183EA0091000982000004000000
B0428393208239S11659197EA0090400977000004000000
B0428433208288S11659157EA0090700984000004000000
B0428473208298S11659090EA0091300993000004000000
B0428513208272S11659033EA0092200997000004000000
B0428553208222S11659014EA0092400998000004000000
B0428593208181S11659051EA0092200996000004000000
B0429033208187S11659114EA0092200997000004000000
B0429073208236S11659144EA0092100992000004000000
B0429113208290S11659118EA0091600991000004000000
B0429153208309S11659053EA0092000997000004000000
B0429193208286S11658997EA0092601001000004000000
B0429233208238S11658966EA0092500998000004000000
B0429273208184S11658942EA0092200997000004000000
B0429313208130S11658920EA0091800985000004000000
B0429353208071S11658898EA0090200969000004000000
B0429393208010S11658869EA0089000960000004000000
B0429433207950S11658838EA0088800959000004000000
B0429473207893S11658807EA0089100964000004000000
B0429513207836S11658777EA0089800973000004000000
B0429553207779S11658750EA0091200985000004000000
B0429593207724S11658726EA0091200981000004000000
B0430033207668S11658694EA0090300972000004000000
B0430073207612S11658658EA0089300961000004000000
B0430113207560S11658615EA0088400952000004000000
B0430153207506S11658573EA0087800950000004000000
B0430193207451S11658537EA0088600964000004000000
B0430233207398S11658503EA0089400963000004000000
B0430273207343S11658466EA0088400952000004000000
B0430313207285S11658440EA0087400941000004000000
B0430353207222S11658429EA0086400932000004000000
B0430393207161S11658430EA0086600939000004000000
B0430433207104S11658431EA0087600944000004000000
B0430473207047S11658435EA0087800946000004000000
B0430513206990S11658444EA0088400955000004000000
B0430553206938S11658464EA0089100961000004000000
B0430593206917S11658521EA0089500969000004000000
B0431033206962S11658557EA0090000970000004000000
B0431073207014S11658518EA0089400962000004000000
B0431113207022S11658447EA0089200967000004000000
B0431153207005S11658379EA0089700968000004000000
B0431193206964S11658326EA0089500966000004000000
B0431233206910S11658286EA0089800970000004000000
B0431273206853S11658253EA0089900969000004000000
B0431313206796S11658221EA0089700967000004000000
B0431353206736S11658191EA0089600970000004000000
B0431393206676S11658169EA0090500982000004000000
B0431433206627S11658196EA0091300986000004000000
B0431473206634S11658260EA0091000976000004000000
B0431513206688S11658283EA0090100970000004000000
B0431553206740S11658244EA0089700970000004000000
B0431593206757S11658173EA0090300977000004000000
B0432033206756S11658097EA0090700979000004000000
B0432073206739S11658028EA0090900981000004000000
B0432113206697S11657984EA0090600978000004000000
B0432153206640S11657975EA0090300976000004000000
B0432193206583S11657982EA0090500980000004000000
B0432233206528S11657995EA0090500978000004000000
B0432273206475S11658011EA0090600978000004000000
B0432313206420S11658027EA0090500978000004000000
B0432353206366S11658039EA0091100984000004000000
B0432393206312S11658047EA0092000991000004000000
B0432433206259S11658060EA0092200993000004000000
B0432473206224S11658102EA0092400995000004000000
B0432513206241S11658160EA0092300993000004000000
B0432553206298S11658175EA0091700988000004000000
B0432593206353S11658136EA0091600991000004000000
B0433033206380S11658070EA0092200996000004000000
B0433073206376S11658000EA0092901000000004000000
B0433113206340S11657949EA0093201004000004000000
B0433153206285S11657945EA0093201001000004000000
B0433193206251S11657993EA0092600996000004000000
B0433233206267S11658057EA0091900987000004000000
B0433273206325S11658080EA0091200984000004000000
B0433313206377S11658036EA0091200983000004000000
B0433353206381S11657959EA0090900984000004000000
B0433393206346S11657896EA0091400989000004000000
B0433433206292S11657871EA0091800992000004000000
B0433473206242S11657900EA0092000990000004000000
B0433513206237S11657962EA0091200985000004000000
B0433553206283S11658009EA0091000982000004000000
B0433593206345S11658005EA0090500974000004000000
B0434033206398S11657956EA0089700971000004000000
B0434073206440S11657894EA0090300982000004000000
B0434113206476S11657835EA0091000983000004000000
B0434153206511S11657771EA0090700978000004000000
B0434193206545S11657703EA0090200972000004000000
B0434233206576S11657634EA0089500966000004000000
B0434273206605S11657566EA0088900961000004000000
B0434313206637S11657499EA0088300955000004000000
B0434353206679S11657441EA0087800952000004000000
B0434393206726S11657393EA0087700951000004000000
B0434433206777S11657350EA0087600948000004000000
B0434473206826S11657309EA0087400944000004000000
B0434513206877S11657268EA0086800938000004000000
B0434553206929S11657224EA0086200932000004000000
B0434593206978S11657176EA0085700929000004000000
B0435033207027S11657127EA0085500926000004000000
B0435073207074S11657077EA0085100920000004000000
B0435113207120S11657021EA0084500915000004000000
B0435153207161S11656962EA0084100912000004000000
B0435193207202S11656906EA0083600908000004000000
B0435233207245S11656852EA0083100903000004000000
B0435273207285S11656799EA0082700901000004000000
B0435313207324S11656744EA0082700899000004000000
B0435353207351S11656682EA0082400895000004000000
B0435393207349S11656611EA0082000893000004000000
B0435433207323S11656550EA0082100894000004000000
B0435473207284S11656510EA0083100904000004000000
B0435513207246S11656541EA0083600905000004000000
B0435553207268S11656598EA0083800913000004000000
B0435593207320S11656596EA0084700917000004000000
B0436033207350S11656540EA0084400912000004000000
B0436073207338S11656474EA0084400917000004000000
B0436113207297S11656442EA0085500928000004000000
B0436153207259S11656475EA0085700926000004000000
B0436193207280S11656531EA0086200937000004000000
B0436233207336S11656524EA0086900939000004000000
B0436273207363S11656462EA0086500936000004000000
B0436313207342S11656401EA0087100949000004000000
B0436353207297S11656379EA0088600961000004000000
B0436393207258S11656409EA0088900957000004000000
B0436433207263S11656475EA0088500955000004000000
B0436473207316S11656502EA0089000965000004000000
B0436513207368S11656474EA0089800970000004000000
B0436553207382S11656406EA0089500966000004000000
B0436593207354S11656344EA0090200978000004000000
B0437033207310S11656307EA0091800990000004000000
B0437073207259S11656310EA0092100991000004000000
B0437113207229S11656359EA0092400996000004000000
B0437153207245S11656418EA0092801000000004000000
B0437193207297S11656442EA0092500995000004000000
B0437233207351S11656412EA0092300994000004000000
B0437273207372S11656349EA0092601001000004000000
B0437313207360S11656284EA0093201004000004000000
B0437353207338S11656219EA0093201003000004000000
B0437393207311S11656152EA0092901000000004000000
B0437433207281S11656091EA0093301006000004000000
B0437473207250S11656034EA0093601007000004000000
B0437513207213S11655978EA0093401000000004000000
B0437553207173S11655926EA0093201002000004000000
B0437593207130S11655874EA0093101000000004000000
B0438033207089S11655822EA0092600994000004000000
B0438073207046S11655773EA0092100990000004000000
B0438113207005S11655725EA0091600983000004000000
B0438153206965S11655677EA0091500984000004000000
B0438193206925S11655630EA0091500982000004000000
B0438233206883S11655586EA0091200979000004000000
B0438273206838S11655544EA0090900979000004000000
B0438313206788S11655536EA0091800995000004000000
B0438353206765S11655587EA0093001001000004000000
B0438393206796S11655647EA0093201000000004000000
B0438433206857S11655657EA0093501008000004000000
B0438473206900S11655617EA0094201011000004000000
B0438513206905S11655552EA0093801004000004000000
B0438553206875S11655500EA0093401001000004000000
B0438593206829S11655486EA0094101012000004000000
B0439033206786S11655508EA0095101021000004000000
B0439073206779S11655569EA0095501027000004000000
B0439113206822S11655614EA0096501041000004000000
B0439153206881S11655603EA0097001040000004000000
B0439193206912S11655547EA0096901044000004000000
B0439233206900S11655486EA0097701051000004000000
B0439273206857S11655462EA0098401056000004000000
B0439313206818S11655495EA0099101068000004000000
B0439353206818S11655557EA0100501077000004000000
B0439393206861S11655604EA0101401088000004000000
B0439433206918S11655596EA0101901090000004000000
B0439473206948S11655541EA0102001092000004000000
B0439513206936S11655483EA0102401098000004000000
B0439553206894S11655466EA0103001100000004000000
B0439593206853S11655497EA0103501110000004000000
B0440033206853S11655560EA0104601120000004000000
B0440073206894S11655613EA0105401128000004000000
B0440113206949S11655629EA0106201133000004000000
B0440153206998S11655597EA0106001129000004000000
B0440193207013S11655536EA0105901128000004000000
B0440233207001S11655475EA0105901127000004000000
B0440273206978S11655417EA0105301120000004000000
B0440313206949S11655357EA0104801118000004000000
B0440353206916S11655302EA0105301127000004000000
B0440393206865S11655294EA0106201132000004000000
B0440433206831S11655336EA0106401136000004000000
B0440473206839S11655395EA0106601137000004000000
B0440513206882S11655439EA0107001144000004000000
B0440553206940S11655447EA0108401157000004000000
B0440593206991S11655417EA0109401166000004000000
B0441033207012S11655358EA0109801168000004000000
B0441073206995S11655300EA0109901169000004000000
B0441113206948S11655280EA0109801170000004000000
B0441153206908S11655314EA0109901167000004000000
B0441193206908S11655376EA0109201162000004000000
B0441233206955S11655423EA0109201166000004000000
B0441273207018S11655427EA0110101175000004000000
B0441313207073S11655393EA0110601176000004000000
B0441353207092S11655332EA0110301174000004000000
B0441393207074S11655272EA0109901169000004000000
B0441433207040S11655226EA0110001171000004000000
B0441473207003S11655184EA0110001168000004000000
B0441513206964S11655137EA0109501160000004000000
B0441553206927S11655083EA0108801154000004000000
B0441593206900S11655018EA0108201145000004000000
B0442033206877S11654947EA0108201143000004000000
B0442073206857S11654880EA0108501149000004000000
B0442113206843S11654817EA0109101154000004000000
B0442153206831S11654760EA0109201153000004000000
B0442193206819S11654702EA0108701146000004000000
B0442233206813S11654639EA0108101142000004000000
B0442273206805S11654577EA0107601139000004000000
B0442313206797S11654516EA0107401137000004000000
B0442353206786S11654457EA0107301134000004000000
B0442393206779S11654394EA0106401126000004000000
B0442433206777S11654330EA0106501128000004000000
B0442473206774S11654274EA0106401128000004000000
B0442513206767S11654218EA0106001119000004000000
B0442553206762S11654156EA0104601104000004000000
B0442593206765S11654089EA0103701097000004000000
B0443033206767S11654022EA0102701087000004000000
B0443073206753S11653959EA0101501076000004000000
B0443113206725S11653903EA0099801065000004000000
B0443153206687S11653859EA0099401060000004000000
B0443193206645S11653820EA0099101058000004000000
B0443233206602S11653780EA0098801056000004000000
B0443273206556S11653738EA0098501052000004000000
B0443313206506S11653695EA0098201046000004000000
B0443353206458S11653650EA0097701047000004000000
B0443393206409S11653606EA0098401054000004000000
B0443433206359S11653562EA0099101058000004000000
B0443473206303S11653549EA0099701066000004000000
B0443513206267S11653590EA0100301072000004000000
B0443553206279S11653651EA0100201070000004000000
B0443593206332S11653675EA0100001070000004000000
B0444033206376S11653640EA0100301074000004000000
B0444073206385S11653578EA0100501074000004000000
B0444113206358S11653524EA0100401073000004000000
B0444153206318S11653477EA0100301071000004000000
B0444193206271S11653437EA0099901065000004000000
B0444233206220S11653399EA0098901055000004000000
B0444273206169S11653363EA0098601056000004000000
B0444313206119S11653328EA0098801058000004000000
B0444353206063S11653294EA0098601056000004000000
B0444393206008S11653266EA0099101066000004000000
B0444433205958S11653282EA0100401077000004000000
B0444473205939S11653339EA0100701075000004000000
B0444513205964S11653398EA0100001068000004000000
B0444553206023S11653422EA0099201061000004000000
B0444593206082S11653398EA0098601054000004000000
B0445033206116S11653334EA0097901050000004000000
B0445073206108S11653264EA0097901051000004000000
B0445113206065S11653224EA0097501044000004000000
B0445153206010S11653229EA0097401044000004000000
B0445193205968S11653279EA0097401044000004000000
B0445233205961S11653351EA0097001038000004000000
B0445273205993S11653415EA0096301029000004000000
B0445313206058S11653434EA0095001020000004000000
B0445353206127S11653420EA0094901020000004000000
B0445393206193S11653399EA0095001021000004000000
B0445433206257S11653377EA0094801019000004000000
B0445473206322S11653356EA0094701019000004000000
B0445513206385S11653335EA0094101010000004000000
B0445553206449S11653318EA0094001014000004000000
B0445593206509S11653307EA0094701020000004000000
B0446033206569S11653296EA0094401013000004000000
B0446073206631S11653303EA0094101015000004000000
B0446113206661S11653356EA0094801022000004000000
B0446153206648S11653417EA0095301026000004000000
B0446193206606S11653456EA0096001030000004000000
B0446233206553S11653461EA0096301032000004000000
B0446273206510S11653424EA0096401032000004000000
B0446313206507S11653356EA0096501034000004000000
B0446353206544S11653298EA0096901038000004000000
B0446393206604S11653273EA0096901033000004000000
B0446433206663S11653292EA0097001040000004000000
B0446473206701S11653342EA0098001049000004000000
B0446513206717S11653402EA0098301052000004000000
B0446553206712S11653464EA0098301052000004000000
B0446593206682S11653512EA0098401050000004000000
B0447033206630S11653530EA0097801044000004000000
B0447073206575S11653512EA0097401040000004000000
B0447113206531S11653467EA0097201041000004000000
B0447153206500S11653409EA0097601043000004000000
B0447193206472S11653350EA0097401037000004000000
B0447233206444S11653286EA0095801021000004000000
B0447273206411S11653221EA0094701014000004000000
B0447313206370S11653161EA0094101009000004000000
B0447353206323S11653109EA0093801007000004000000
B0447393206273S11653056EA0094201013000004000000
B0447433206227S11653008EA0094701018000004000000
B0447473206177S11652964EA0094601012000004000000
B0447513206125S11652919EA0093801005000004000000
B0447553206073S11652874EA0093201000000004000000
B0447593206024S11652830EA0093000999000004000000
B0448033205968S11652801EA0092800997000004000000
B0448073205911S11652809EA0092900999000004000000
B0448113205877S11652861EA0093501006000004000000
B0448153205877S11652928EA0093701009000004000000
B0448193205907S11652988EA0093801010000004000000
B0448233205963S11653019EA0093901009000004000000
B0448273206028S11653026EA0093701005000004000000
B0448313206090S11653030EA0093100998000004000000
B0448353206154S11653036EA0092300991000004000000
B0448393206219S11653040EA0092000988000004000000
B0448433206283S11653036EA0092400991000004000000
B0448473206344S11653019EA0092700994000004000000
B0448513206379S11652962EA0092700994000004000000
B0448553206370S11652896EA0092700992000004000000
B0448593206323S11652875EA0092600992000004000000
B0449033206286S11652913EA0091900985000004000000
B0449073206293S11652974EA0091100977000004000000
B0449113206338S11653021EA0090800978000004000000
B0449153206394S11653055EA0091100981000004000000
B0449193206452S11653086EA0091400983000004000000
B0449233206513S11653088EA0091800985000004000000
B0449273206556S11653040EA0092100992000004000000
B0449313206550S11652973EA0092400993000004000000
B0449353206507S11652932EA0092000988000004000000
B0449393206458S11652941EA0091400984000004000000
B0449433206436S11652997EA0091200981000004000000
B0449473206458S11653055EA0091000979000004000000
B0449513206513S11653086EA0090900979000004000000
B0449553206575S11653108EA0091000979000004000000
B0449593206635S11653123EA0091200983000004000000
B0450033206693S11653136EA0091100973000004000000
B0450073206756S11653147EA0089700960000004000000
B0450113206819S11653160EA0089300960000004000000
B0450153206882S11653175EA0089700964000004000000
B0450193206942S11653196EA0090100967000004000000
B0450233207003S11653207EA0090600975000004000000
B0450273207039S11653157EA0091700989000004000000
B0450313207018S11653099EA0091900990000004000000
B0450353206968S11653088EA0092200995000004000000
B0450393206935S11653129EA0092900999000004000000
B0450433206942S11653187EA0092700997000004000000
B0450473206986S11653222EA0092901002000004000000
B0450513207037S11653221EA0093701006000004000000
B0450553207061S11653162EA0093201000000004000000
B0450593207020S11653116EA0093301008000004000000
B0451033206973S11653140EA0093901011000004000000
B0451073206975S11653201EA0093901011000004000000
B0451113207027S11653235EA0093801010000004000000
B0451153207086S11653216EA0094801020000004000000
B0451193207111S11653161EA0095701029000004000000
B0451233207087S11653105EA0095701025000004000000
B0451273207035S11653087EA0095401023000004000000
B0451313206994S11653122EA0095901033000004000000
B0451353207000S11653178EA0096501031000004000000
B0451393207056S11653200EA0095701026000004000000
B0451433207102S11653160EA0096601039000004000000
B0451473207098S11653096EA0097101041000004000000
B0451513207050S11653061EA0096701037000004000000
B0451553207000S11653084EA0097201046000004000000
B0451593206990S11653142EA0097501045000004000000
B0452033207034S11653183EA0097101040000004000000
B0452073207099S11653191EA0096901038000004000000
B0452113207161S11653183EA0097401045000004000000
B0452153207195S11653130EA0098001051000004000000
B0452193207182S11653069EA0098101048000004000000
B0452233207134S11653040EA0097301038000004000000
B0452273207085S11653069EA0097101041000004000000
B0452313207064S11653130EA0097401042000004000000
B0452353207082S11653192EA0097201041000004000000
B0452393207135S11653224EA0096801037000004000000
B0452433207199S11653213EA0097101040000004000000
B0452473207232S11653155EA0097101039000004000000
B0452513207213S11653088EA0097001036000004000000
B0452553207165S11653049EA0096701035000004000000
B0452593207107S11653029EA0097001039000004000000
B0453033207050S11653029EA0097601044000004000000
B0453073207017S11653079EA0097401040000004000000
B0453113207016S11653153EA0095901028000004000000
B0453153207031S11653231EA0095901030000004000000
B0453193207055S11653307EA0095901030000004000000
B0453233207083S11653381EA0095501024000004000000
B0453273207109S11653456EA0094901014000004000000
B0453313207124S11653537EA0094101008000004000000
B0453353207135S11653616EA0093701007000004000000
B0453393207150S11653692EA0093501001000004000000
B0453433207168S11653766EA0092900999000004000000
B0453473207187S11653837EA0093001000000004000000
B0453513207209S11653906EA0092700998000004000000
B0453553207230S11653975EA0092600993000004000000
B0453593207252S11654045EA0091800986000004000000
B0454033207274S11654114EA0091200982000004000000
B0454073207300S11654178EA0091400986000004000000
B0454113207325S11654235EA0091100979000004000000
B0454153207352S11654300EA0089800960000004000000
B0454193207376S11654374EA0088200945000004000000
B0454233207391S11654452EA0087800947000004000000
B0454273207404S11654525EA0088300951000004000000
B0454313207417S11654598EA0088400953000004000000
B0454353207428S11654664EA0089100964000004000000
B0454393207442S11654726EA0089600964000004000000
B0454433207451S11654791EA0089600967000004000000
B0454473207458S11654856EA0090400975000004000000
B0454513207432S11654908EA0090900981000004000000
B0454553207384S11654907EA0092300994000004000000
B0454593207355S11654864EA0093100999000004000000
B0455033207354S11654802EA0093201000000004000000
B0455073207386S11654747EA0094101010000004000000
B0455113207438S11654726EA0094501011000004000000
B0455153207493S11654742EA0094301009000004000000
B0455193207534S11654787EA0094401010000004000000
B0455233207555S11654852EA0094201009000004000000
B0455273207554S11654921EA0094701017000004000000
B0455313207528S11654977EA0095201020000004000000
B0455353207481S11655006EA0095101016000004000000
B0455393207429S11654990EA0095301020000004000000
B0455433207391S11654938EA0095301018000004000000
B0455473207382S11654867EA0095001017000004000000
B0455513207408S11654802EA0095701026000004000000
B0455553207459S11654768EA0096401035000004000000
B0455593207518S11654778EA0097001038000004000000
B0456033207553S11654832EA0097301038000004000000
B0456073207544S11654902EA0097201041000004000000
B0456113207501S11654942EA0098301050000004000000
B0456153207450S11654929EA0098401047000004000000
B0456193207420S11654872EA0097801041000004000000
B0456233207429S11654802EA0097801045000004000000
B0456273207476S11654756EA0098301053000004000000
B0456313207534S11654750EA0099001056000004000000
B0456353207586S11654781EA0099101057000004000000
B0456393207610S11654842EA0099101053000004000000
B0456433207609S11654914EA0099501062000004000000
B0456473207606S11654980EA0100001066000004000000
B0456513207573S11655027EA0099801063000004000000
B0456553207523S11655019EA0099301055000004000000
B0456593207492S11654960EA0098601050000004000000
B0457033207477S11654889EA0098201045000004000000
B0457073207463S11654813EA0097701046000004000000
B0457113207480S11654747EA0098301058000004000000
B0457153207532S11654722EA0099601064000004000000
B0457193207589S11654737EA0099701062000004000000
B0457233207649S11654758EA0099901065000004000000
B0457273207703S11654794EA0099701066000004000000
B0457313207744S11654850EA0099801065000004000000
B0457353207766S11654917EA0099601064000004000000
B0457393207778S11654992EA0099101056000004000000
B0457433207779S11655066EA0098901056000004000000
B0457473207775S11655136EA0098901058000004000000
B0457513207774S11655203EA0098901055000004000000
B0457553207774S11655272EA0098601054000004000000
B0457593207774S11655341EA0098401052000004000000
B0458033207767S11655411EA0098101049000004000000
B0458073207754S11655483EA0097701047000004000000
B0458113207735S11655553EA0097901048000004000000
B0458153207705S11655617EA0097601043000004000000
B0458193207666S11655677EA0096801034000004000000
B0458233207627S11655736EA0095901025000004000000
B0458273207588S11655798EA0094901017000004000000
B0458313207553S11655859EA0094201010000004000000
B0458353207518S11655918EA0093901008000004000000
B0458393207485S11655978EA0093401003000004000000
B0458433207453S11656039EA0092600995000004000000
B0458473207420S11656098EA0092100991000004000000
B0458513207386S11656159EA0091700989000004000000
B0458553207352S11656216EA0092000991000004000000
B0458593207320S11656272EA0092100989000004000000
B0459033207286S11656329EA0091400984000004000000
B0459073207254S11656386EA0090900980000004000000
B0459113207221S11656445EA0090600975000004000000
B0459153207187S11656505EA0090500977000004000000
B0459193207156S11656562EA0091600991000004000000
B0459233207128S11656615EA0091700988000004000000
B0459273207105S11656672EA0091700985000004000000
B0459313207086S11656735EA0091000975000004000000
B0459353207063S11656800EA0090000969000004000000
B0459393207035S11656864EA0089500965000004000000
B0459433207003S11656926EA0089500965000004000000
B0459473206973S11656984EA0089300963000004000000
B0459513206943S11657043EA0088900957000004000000
B0459553206912S11657100EA0088100950000004000000
B0459593206875S11657156EA0087800946000004000000
B0500033206840S11657211EA0087600944000004000000
B0500073206808S11657259EA0087600946000004000000
B0500113206775S11657307EA0087600943000004000000
B0500153206740S11657354EA0087000934000004000000
B0500193206702S11657400EA0086200930000004000000
B0500233206661S11657445EA0086200928000004000000
B0500273206614S11657484EA0085900926000004000000
B0500313206565S11657521EA0085500924000004000000
B0500353206514S11657556EA0085500923000004000000
B0500393206461S11657576EA0085400923000004000000
B0500433206405S11657582EA0085700926000004000000
B0500473206350S11657584EA0086200933000004000000
B0500513206297S11657581EA0086900939000004000000
B0500553206247S11657589EA0087800948000004000000
B0500593206234S11657642EA0088300950000004000000
B0501033206280S11657675EA0088100950000004000000
B0501073206329S11657645EA0088400952000004000000
B0501113206336S11657584EA0088400951000004000000
B0501153206305S11657532EA0088300955000004000000
B0501193206257S11657510EA0088900959000004000000
B0501233206219S11657543EA0089100962000004000000
B0501273206223S11657602EA0089300964000004000000
B0501313206268S11657627EA0089600967000004000000
B0501353206314S11657594EA0089600966000004000000
B0501393206315S11657532EA0090000972000004000000
B0501433206272S11657508EA0090600978000004000000
B0501473206237S11657549EA0091100982000004000000
B0501513206249S11657606EA0091500985000004000000
B0501553206299S11657625EA0091600986000004000000
B0501593206346S11657599EA0091800985000004000000
B0502033206355S11657540EA0091800988000004000000
B0502073206324S11657491EA0092500994000004000000
B0502113206281S11657463EA0092800996000004000000
B0502153206232S11657442EA0092400991000004000000
B0502193206181S11657417EA0092600992000004000000
B0502233206140S11657377EA0092200990000004000000
B0502273206099S11657338EA0092600998000004000000
B0502313206065S11657296EA0093401003000004000000
B0502353206060S11657233EA0093601003000004000000
B0502393206094S11657176EA0093401000000004000000
B0502433206153S11657159EA0093200999000004000000
B0502473206205S11657186EA0093000995000004000000
B0502513206228S11657241EA0092300990000004000000
B0502553206218S11657298EA0092100987000004000000
B0502593206177S11657329EA0091700984000004000000
B0503033206129S11657316EA0091800989000004000000
B0503073206091S11657274EA0092900998000004000000
B0503113206062S11657226EA0093401000000004000000
B0503153206025S11657182EA0093701006000004000000
B0503193205982S11657164EA0094101010000004000000
B0503233205950S11657198EA0094401012000004000000
B0503273205961S11657252EA0094801017000004000000
B0503313206012S11657274EA0094701015000004000000
B0503353206063S11657244EA0094501015000004000000
B0503393206076S11657178EA0094801018000004000000
B0503433206051S11657125EA0095101022000004000000
B0503473206004S11657108EA0095101019000004000000
B0503513205960S11657134EA0095101021000004000000
B0503553205946S11657189EA0095601028000004000000
B0503593205977S11657234EA0096201031000004000000
B0504033206034S11657235EA0095901027000004000000
B0504073206077S11657189EA0095701026000004000000
B0504113206073S11657126EA0095901027000004000000
B0504153206033S11657090EA0095701025000004000000
B0504193205980S11657073EA0095501022000004000000
B0504233205925S11657065EA0095401023000004000000
B0504273205872S11657068EA0095701023000004000000
B0504313205816S11657078EA0095301021000004000000
B0504353205760S11657075EA0095001018000004000000
B0504393205704S11657055EA0094301007000004000000
B0504433205652S11657013EA0093600999000004000000
B0504473205608S11656964EA0093200996000004000000
B0504513205565S11656912EA0092500988000004000000
B0504553205518S11656858EA0091400981000004000000
B0504593205471S11656808EA0091200977000004000000
B0505033205425S11656756EA0090700973000004000000
B0505073205382S11656701EA0090300970000004000000
B0505113205340S11656645EA0090000968000004000000
B0505153205301S11656587EA0090300971000004000000
B0505193205267S11656527EA0090400972000004000000
B0505233205235S11656468EA0090600976000004000000
B0505273205201S11656414EA0091000978000004000000
B0505313205165S11656362EA0091100980000004000000
B0505353205124S11656314EA0091400982000004000000
B0505393205081S11656267EA0091500984000004000000
B0505433205032S11656241EA0092400995000004000000
B0505473205001S11656279EA0093901009000004000000
B0505513205018S11656331EA0094401012000004000000
B0505553205074S11656344EA0094401011000004000000
B0505593205115S11656302EA0094601019000004000000
B0506033205113S11656245EA0095101017000004000000
B0506073205071S11656217EA0094501010000004000000
B0506113205031S11656250EA0094501014000004000000
B0506153205031S11656312EA0094501012000004000000
B0506193205075S11656359EA0094501017000004000000
B0506233205136S11656364EA0094801017000004000000
B0506273205188S11656325EA0095001018000004000000
B0506313205202S11656260EA0095701028000004000000
B0506353205179S11656204EA0096301030000004000000
B0506393205133S11656176EA0096101028000004000000
B0506433205080S11656164EA0095901022000004000000
B0506473205020S11656156EA0094901012000004000000
B0506513204958S11656149EA0093600998000004000000
B0506553204893S11656141EA0092300988000004000000
B0506593204829S11656136EA0092000986000004000000
B0507033204765S11656129EA0091700981000004000000
B0507073204703S11656121EA0091000975000004000000
B0507113204639S11656111EA0090600972000004000000
B0507153204576S11656098EA0090300968000004000000
B0507193204512S11656084EA0089800962000004000000
B0507233204447S11656069EA0089300958000004000000
B0507273204385S11656056EA0089400962000004000000
B0507313204323S11656045EA0089400957000004000000
B0507353204261S11656033EA0088600950000004000000
B0507393204196S11656021EA0088400949000004000000
B0507433204134S11656012EA0089100960000004000000
B0507473204073S11656004EA0090100966000004000000
B0507513204022S11656028EA0090700972000004000000
B0507553204010S11656085EA0091000975000004000000
B0507593204049S11656130EA0090900972000004000000
B0508033204112S11656136EA0090700972000004000000
B0508073204169S11656102EA0090800971000004000000
B0508113204204S11656042EA0090700972000004000000
B0508153204205S11655972EA0091800983000004000000
B0508193204178S11655920EA0092400989000004000000
B0508233204128S11655925EA0092300987000004000000
B0508273204108S11655980EA0092200986000004000000
B0508313204135S11656035EA0091800980000004000000
B0508353204197S11656045EA0091300978000004000000
B0508393204251S11656000EA0091300980000004000000
B0508433204265S11655925EA0091800984000004000000
B0508473204235S11655860EA0092500991000004000000
B0508513204183S11655846EA0093400998000004000000
B0508553204154S11655891EA0093701002000004000000
B0508593204175S11655944EA0093400998000004000000
B0509033204232S11655946EA0093000992000004000000
B0509073204262S11655882EA0092600990000004000000
B0509113204234S11655829EA0093000997000004000000
B0509153204184S11655831EA0093300997000004000000
B0509193204141S11655864EA0092900993000004000000
B0509233204102S11655907EA0092200985000004000000
B0509273204065S11655956EA0091700984000004000000
B0509313204030S11656006EA0091600983000004000000
B0509353203995S11656056EA0091300975000004000000
B0509393203956S11656111EA0090200968000004000000
B0509433203914S11656163EA0089800966000004000000
B0509473203871S11656214EA0090400974000004000000
B0509513203828S11656260EA0091500985000004000000
B0509553203824S11656324EA0092700997000004000000
B0509593203876S11656351EA0093401000000004000000
B0510033203931S11656315EA0092900993000004000000
B0510073203943S11656243EA0092700994000004000000
B0510113203904S11656194EA0092900999000004000000
B0510153203853S11656207EA0093401005000004000000
B0510193203842S11656264EA0094501015000004000000
B0510233203881S11656308EA0094701015000004000000
B0510273203944S11656302EA0094701013000004000000
B0510313203988S11656251EA0094701016000004000000
B0510353203989S11656185EA0095201022000004000000
B0510393203952S11656142EA0095701024000004000000
B0510433203901S11656137EA0095901026000004000000
B0510473203863S11656177EA0095901026000004000000
B0510513203865S11656243EA0095901028000004000000
B0510553203914S11656281EA0096001031000004000000
B0510593203969S11656259EA0096501034000004000000
B0511033203989S11656199EA0096101028000004000000
B0511073203958S11656147EA0095501021000004000000
B0511113203901S11656132EA0094601013000004000000
B0511153203840S11656133EA0094501015000004000000
B0511193203781S11656142EA0095001016000004000000
B0511233203722S11656150EA0094301007000004000000
B0511273203660S11656155EA0093400996000004000000
B0511313203595S11656159EA0092500986000004000000
B0511353203530S11656163EA0091800982000004000000
B0511393203467S11656164EA0091400977000004000000
B0511433203404S11656164EA0091100975000004000000
B0511473203342S11656160EA0090600970000004000000
B0511513203282S11656154EA0090100968000004000000
B0511553203222S11656145EA0089600960000004000000
B0511593203161S11656130EA0088800951000004000000
B0512033203100S11656119EA0088600950000004000000
B0512073203040S11656106EA0088200945000004000000
B0512113202983S11656091EA0087900943000004000000
B0512153202927S11656078EA0088500951000004000000
B0512193202875S11656065EA0089300958000004000000
B0512233202823S11656055EA0089300955000004000000
B0512273202767S11656042EA0088600948000004000000
B0512313202709S11656035EA0088500950000004000000
B0512353202652S11656033EA0089000953000004000000
B0512393202592S11656035EA0089100957000004000000
B0512433202539S11656061EA0090500973000004000000
B0512473202542S11656128EA0091800987000004000000
B0512513202600S11656158EA0093000997000004000000
B0512553202652S11656130EA0093301000000004000000
B0512593202659S11656071EA0093301004000004000000
B0513033202622S11656030EA0093501006000004000000
B0513073202568S11656041EA0094001012000004000000
B0513113202539S11656100EA0095101026000004000000
B0513153202562S11656167EA0096101036000004000000
B0513193202619S11656189EA0096301033000004000000
B0513233202671S11656154EA0096401037000004000000
B0513273202676S11656095EA0096801044000004000000
B0513313202641S11656047EA0096801042000004000000
B0513353202585S11656032EA0097701052000004000000
B0513393202541S11656071EA0099001067000004000000
B0513433202549S11656137EA0100401077000004000000
B0513473202604S11656164EA0100301075000004000000
B0513513202659S11656134EA0100401078000004000000
B0513553202676S11656074EA0101501094000004000000
B0513593202645S11656026EA0102401095000004000000
B0514033202591S11656025EA0102901103000004000000
B0514073202555S11656077EA0104201115000004000000
B0514113202571S11656143EA0104601117000004000000
B0514153202628S11656173EA0104501114000004000000
B0514193202687S11656150EA0104501117000004000000
B0514233202711S11656091EA0105601130000004000000
B0514273202697S11656033EA0106101131000004000000
B0514313202648S11656004EA0105801129000004000000
B0514353202596S11656028EA0106801142000004000000
B0514393202580S11656087EA0108301158000004000000
B0514433202607S11656143EA0108901155000004000000
B0514473202666S11656164EA0108001149000004000000
B0514513202723S11656141EA0108101153000004000000
B0514553202766S11656095EA0108901161000004000000
B0514593202776S11656037EA0109401166000004000000
B0515033202739S11655998EA0109001162000004000000
B0515073202685S11656016EA0109001162000004000000
B0515113202676S11656085EA0109801173000004000000
B0515153202724S11656124EA0110501181000004000000
B0515193202776S11656098EA0110801185000004000000
B0515233202779S11656043EA0111401193000004000000
B0515273202737S11656016EA0111501189000004000000
B0515313202692S11656043EA0111701192000004000000
B0515353202678S11656106EA0112301197000004000000
B0515393202706S11656163EA0112401195000004000000
B0515433202761S11656186EA0111901190000004000000
B0515473202815S11656167EA0111501186000004000000
B0515513202840S11656112EA0111201185000004000000
B0515553202834S11656052EA0111501187000004000000
B0515593202810S11655995EA0111301183000004000000
B0516033202782S11655939EA0111401189000004000000
B0516073202747S11655887EA0111601185000004000000
B0516113202701S11655842EA0111601185000004000000
B0516153202649S11655801EA0111201181000004000000
B0516193202592S11655770EA0111401185000004000000
B0516233202535S11655748EA0112801198000004000000
B0516273202476S11655742EA0113201200000004000000
B0516313202442S11655790EA0113801206000004000000
B0516353202462S11655847EA0114101207000004000000
B0516393202518S11655856EA0113701205000004000000
B0516433202559S11655811EA0114301213000004000000
B0516473202558S11655746EA0115101221000004000000
B0516513202510S11655709EA0114701213000004000000
B0516553202455S11655731EA0114401212000004000000
B0516593202423S11655787EA0113901206000004000000
B0517033202435S11655853EA0112801195000004000000
B0517073202480S11655905EA0111801184000004000000
B0517113202533S11655948EA0111301183000004000000
B0517153202593S11655981EA0111201180000004000000
B0517193202657S11656009EA0111001182000004000000
B0517233202721S11656033EA0111901189000004000000
B0517273202782S11656028EA0111701183000004000000
B0517313202813S11655969EA0111301184000004000000
B0517353202799S11655903EA0111901191000004000000
B0517393202756S11655866EA0112401194000004000000
B0517433202705S11655879EA0112501194000004000000
B0517473202685S11655937EA0112801201000004000000
B0517513202718S11655985EA0112801195000004000000
B0517553202776S11655985EA0111401177000004000000
B0517593202817S11655933EA0110601179000004000000
B0518033202812S11655868EA0111001183000004000000
B0518073202770S11655824EA0110501176000004000000
B0518113202715S11655792EA0110501175000004000000
B0518153202658S11655764EA0111201183000004000000
B0518193202600S11655736EA0112301193000004000000
B0518233202544S11655716EA0113001197000004000000
B0518273202490S11655694EA0112501185000004000000
B0518313202433S11655666EA0111401177000004000000
B0518353202375S11655636EA0110401165000004000000
B0518393202315S11655603EA0109401156000004000000
B0518433202256S11655564EA0108901151000004000000
B0518473202197S11655523EA0107901141000004000000
B0518513202134S11655483EA0106801132000004000000
B0518553202071S11655441EA0106701130000004000000
B0518593202007S11655404EA0106401127000004000000
B0519033201942S11655366EA0106201126000004000000
B0519073201878S11655330EA0106201126000004000000
B0519113201814S11655292EA0106301128000004000000
B0519153201756S11655246EA0106801133000004000000
B0519193201700S11655202EA0107101135000004000000
B0519233201644S11655158EA0107101134000004000000
B0519273201588S11655118EA0107801144000004000000
B0519313201532S11655112EA0109301158000004000000
B0519353201513S11655167EA0109801164000004000000
B0519393201549S11655215EA0110201168000004000000
B0519433201610S11655209EA0110401169000004000000
B0519473201647S11655153EA0110901178000004000000
B0519513201645S11655089EA0111801187000004000000
B0519553201609S11655054EA0112701193000004000000
B0519593201567S11655071EA0113201197000004000000
B0520033201557S11655125EA0113201196000004000000
B0520073201591S11655174EA0113001197000004000000
B0520113201648S11655177EA0113301199000004000000
B0520153201688S11655127EA0113801206000004000000
B0520193201691S11655060EA0114201210000004000000
B0520233201658S11655015EA0114501211000004000000
B0520273201614S11655010EA0114601213000004000000
B0520313201575S11655031EA0114801213000004000000
B0520353201557S11655077EA0114201207000004000000
B0520393201578S11655133EA0113501202000004000000
B0520433201621S11655180EA0113401201000004000000
B0520473201666S11655228EA0113201199000004000000
B0520513201709S11655280EA0113501202000004000000
B0520553201762S11655313EA0113801207000004000000
B0520593201821S11655310EA0114101203000004000000
B0521033201873S11655267EA0113201196000004000000
B0521073201885S11655194EA0112701194000004000000
B0521113201850S11655135EA0111701188000004000000
B0521153201795S11655110EA0112001194000004000000
B0521193201743S11655122EA0112901204000004000000
B0521233201707S11655164EA0113701210000004000000
B0521273201697S11655222EA0114201212000004000000
B0521313201729S11655276EA0113501207000004000000
B0521353201786S11655291EA0113901210000004000000
B0521393201837S11655262EA0113901211000004000000
B0521433201864S11655202EA0113901212000004000000
B0521473201866S11655135EA0114101216000004000000
B0521513201843S11655079EA0114901222000004000000
B0521553201798S11655057EA0115101223000004000000
B0521593201755S11655085EA0115001221000004000000
B0522033201740S11655150EA0114601219000004000000
B0522073201762S11655218EA0114301216000004000000
B0522113201816S11655262EA0114101213000004000000
B0522153201882S11655262EA0114501216000004000000
B0522193201931S11655218EA0114401215000004000000
B0522233201950S11655146EA0113701208000004000000
B0522273201930S11655080EA0113701214000004000000
B0522313201887S11655041EA0114201213000004000000
B0522353201830S11655027EA0113701207000004000000
B0522393201769S11655025EA0113301206000004000000
B0522433201710S11655038EA0114401219000004000000
B0522473201691S11655090EA0116401238000004000000
B0522513201731S11655129EA0117201242000004000000
B0522553201791S11655109EA0117301245000004000000
B0522593201818S11655046EA0117701252000004000000
B0523033201799S11654986EA0118201257000004000000
B0523073201752S11654964EA0118301256000004000000
B0523113201712S11654995EA0118401255000004000000
B0523153201723S11655059EA0118301254000004000000
B0523193201788S11655081EA0117701247000004000000
B0523233201842S11655020EA0117201241000004000000
B0523273201812S11654937EA0115501230000004015000
B0523313201744S11654882EA0114901224000004015000
B0523353201675S11654847EA0115701234000004000000
B0523393201619S11654830EA0117601246000004000000
B0523433201569S11654825EA0117201236000004000000
B0523473201513S11654820EA0116001227000004000000
B0523513201456S11654819EA0116001226000004000000
B0523553201404S11654830EA0116101225000004000000
B0523593201357S11654855EA0115701221000004000000
B0524033201313S11654885EA0115201216000004000000
B0524073201268S11654919EA0114601208000004000000
B0524113201216S11654942EA0113701202000004000000
B0524153201163S11654963EA0113401200000004000000
B0524193201111S11654980EA0113001196000004000000
B0524233201058S11654995EA0112701192000004000000
B0524273201005S11655010EA0112301189000004000000
B0524313200951S11655025EA0111901185000004000000
B0524353200897S11655037EA0111501180000004000000
B0524393200842S11655041EA0110801174000004000000
B0524433200785S11655042EA0110401166000004000000
B0524473200726S11655045EA0109401159000004000000
B0524513200668S11655050EA0109101155000004000000
B0524553200611S11655058EA0109001153000004000000
B0524593200555S11655064EA0108901151000004000000
B0525033200499S11655066EA0108401147000004000000
B0525073200442S11655062EA0107701138000004000000
B0525113200384S11655059EA0107201134000004000000
B0525153200327S11655057EA0106801129000004000000
B0525193200271S11655054EA0106601128000004000000
B0525233200215S11655054EA0106401126000004000000
B0525273200160S11655055EA0106501128000004000000
B0525313200106S11655058EA0106601129000004000000
B0525353200053S11655071EA0106401125000004000000
B0525393200006S11655099EA0105801122000004000000
B0525433159962S11655136EA0105901125000004000000
B0525473159922S11655176EA0105701117000004000000
B0525513159883S11655222EA0104901111000004000000
B0525553159844S11655272EA0104001102000004000000
B0525593159807S11655328EA0104601111000004000000
B0526033159771S11655385EA0105001115000004000000
B0526073159738S11655441EA0105901129000004000000
B0526113159747S11655502EA0106901133000004000000
B0526153159801S11655523EA0107201135000004000000
B0526193159845S11655483EA0107001135000004000000
B0526233159841S11655418EA0107301134000004000000
B0526273159797S11655376EA0107601135000004000000
B0526313159741S11655389EA0107801142000004000000
B0526353159720S11655449EA0108801154000004000000
B0526393159750S11655506EA0109201157000004000000
B0526433159807S11655518EA0109701160000004000000
B0526473159851S11655476EA0109501157000004000000
B0526513159850S11655411EA0109501163000004000000
B0526553159810S11655363EA0109901165000004000000
B0526593159753S11655353EA0110201166000004000000
B0527033159694S11655367EA0109901162000004000000
B0527073159633S11655388EA0108801149000004000000
B0527113159571S11655415EA0107901147000004000000
B0527153159510S11655441EA0108101152000004000000
B0527193159454S11655461EA0109301162000004000000
B0527233159398S11655476EA0109401162000004000000
B0527273159341S11655492EA0109001157000004000000
B0527313159281S11655509EA0108301151000004000000
B0527353159221S11655523EA0107901149000004000000
B0527393159160S11655532EA0107701145000004000000
B0527433159096S11655541EA0107201141000004000000
B0527473159035S11655549EA0107501147000004000000
B0527513158978S11655557EA0107601145000004000000
B0527553158919S11655571EA0107301143000004000000
B0527593158861S11655570EA0107701152000004000000
B0528033158835S11655508EA0109001165000004000000
B0528073158879S11655453EA0109901169000004000000
B0528113158940S11655462EA0110301176000004000000
B0528153158967S11655519EA0110801179000004000000
B0528193158953S11655583EA0111001180000004000000
B0528233158906S11655621EA0111101176000004000000
B0528273158845S11655617EA0111201181000004000000
B0528313158800S11655569EA0111801186000004000000
B0528353158795S11655497EA0112101187000004000000
B0528393158836S11655445EA0111501180000004000000
B0528433158900S11655436EA0110801175000004000000
B0528473158954S11655473EA0111001181000004000000
B0528513158988S11655534EA0111701187000004000000
B0528553159000S11655601EA0111901188000004000000
B0528593158984S11655666EA0112101188000004000000
B0529033158938S11655708EA0112401192000004000000
B0529073158880S11655714EA0113101200000004000000
B0529113158824S11655699EA0113601203000004000000
B0529153158793S11655643EA0113801204000004000000
B0529193158817S11655583EA0113901207000004000000
B0529233158871S11655562EA0114001203000004000000
B0529273158923S11655595EA0113801207000004000000
B0529313158941S11655658EA0114801218000004000000
B0529353158928S11655723EA0115101218000004000000
B0529393158889S11655774EA0114801213000004000000
B0529433158836S11655808EA0114401208000004000000
B0529473158778S11655834EA0113001194000004000000
B0529513158718S11655855EA0112501193000004000000
B0529553158659S11655838EA0112301189000004000000
B0529593158611S11655791EA0111901182000004000000
B0530033158575S11655727EA0111501176000004000000
B0530073158542S11655658EA0110701169000004000000
B0530113158510S11655590EA0110001163000004000000
B0530153158473S11655519EA0109401157000004000000
B0530193158437S11655448EA0109801166000004000000
B0530233158401S11655384EA0110901174000004000000
B0530273158358S11655327EA0110901172000004000000
B0530313158301S11655293EA0110801171000004000000
B0530353158237S11655289EA0110201167000004000000
B0530393158174S11655309EA0110001165000004000000
B0530433158117S11655344EA0109701164000004000000
B0530473158060S11655383EA0109701160000004000000
B0530513158000S11655421EA0108801154000004000000
B0530553157940S11655456EA0108101148000004000000
B0530593157885S11655493EA0107901147000004000000
B0531033157830S11655534EA0107301143000004000000
B0531073157775S11655570EA0107101140000004000000
B0531113157723S11655608EA0108101156000004000000
B0531153157712S11655673EA0109601165000004000000
B0531193157766S11655712EA0109901170000004000000
B0531233157826S11655684EA0110601173000004000000
B0531273157846S11655621EA0110401173000004000000
B0531313157813S11655566EA0110201170000004000000
B0531353157761S11655561EA0110501177000004000000
B0531393157722S11655604EA0111101184000004000000
B0531433157732S11655671EA0112101196000004000000
B0531473157784S11655704EA0112901202000004000000
B0531513157839S11655682EA0113801210000004000000
B0531553157861S11655626EA0113801208000004000000
B0531593157842S11655570EA0113501207000004000000
B0532033157796S11655541EA0113601206000004000000
B0532073157748S11655557EA0114201213000004000000
B0532113157721S11655608EA0115401228000004000000
B0532153157732S11655670EA0116401235000004000000
B0532193157786S11655704EA0116601236000004000000
B0532233157844S11655683EA0117101242000004000000
B0532273157866S11655625EA0117701248000004000000
B0532313157843S11655571EA0118101250000004000000
B0532353157794S11655557EA0117801245000004000000
B0532393157739S11655570EA0117801248000004000000
B0532433157686S11655590EA0117401238000004000000
B0532473157626S11655609EA0115701224000004000000
B0532513157562S11655622EA0115101220000004000000
B0532553157498S11655631EA0114501214000004000000
B0532593157435S11655636EA0114001210000004000000
B0533033157372S11655640EA0113701205000004000000
B0533073157307S11655640EA0113001199000004000000
B0533113157244S11655638EA0112801198000004000000
B0533153157183S11655634EA0112501195000004000000
B0533193157123S11655630EA0112201190000004000000
B0533233157063S11655630EA0111901187000004000000
B0533273157003S11655631EA0111401181000004000000
B0533313156943S11655634EA0111001180000004000000
B0533353156885S11655636EA0111101179000004000000
B0533393156828S11655639EA0110701174000004000000
B0533433156768S11655635EA0110401173000004000000
B0533473156709S11655634EA0110501172000004000000
B0533513156651S11655636EA0110301173000004000000
B0533553156595S11655634EA0110301173000004000000
B0533593156539S11655631EA0109801164000004000000
B0534033156479S11655632EA0109001157000004000000
B0534073156418S11655639EA0108901157000004000000
B0534113156360S11655649EA0109001161000004000000
B0534153156304S11655661EA0109701169000004000000
B0534193156249S11655674EA0110401175000004000000
B0534233156201S11655704EA0110501172000004000000
B0534273156183S11655770EA0110001167000004000000
B0534313156218S11655826EA0109801166000004000000
B0534353156279S11655835EA0109001157000004000000
B0534393156341S11655818EA0108201150000004000000
B0534433156405S11655792EA0107501146000004000000
B0534473156470S11655768EA0107301144000004000000
B0534513156535S11655749EA0107301143000004000000
B0534553156599S11655727EA0107201139000004000000
B0534593156664S11655708EA0106901139000004000000
B0535033156730S11655691EA0106801137000004000000
B0535073156796S11655678EA0106801137000004000000
B0535113156864S11655668EA0106401132000004000000
B0535153156932S11655660EA0106101129000004000000
B0535193156999S11655652EA0105501122000004000000
B0535233157069S11655647EA0104901113000004000000
B0535273157141S11655643EA0104101107000004000000
B0535313157212S11655638EA0103501100000004000000
B0535353157287S11655631EA0102601094000004000000
B0535393157359S11655625EA0102101088000004000000
B0535433157433S11655622EA0101601085000004000000
B0535473157505S11655623EA0101301082000004000000
B0535513157574S11655625EA0101101080000004000000
B0535553157641S11655625EA0100701077000004000000
B0535593157709S11655625EA0100401071000004000000
B0536033157777S11655630EA0099601064000004000000
B0536073157847S11655642EA0098601053000004000000
B0536113157920S11655656EA0097501042000004000000
B0536153157992S11655673EA0096601037000004000000
B0536193158063S11655696EA0096401035000004000000
B0536233158130S11655717EA0096301033000004000000
B0536273158199S11655720EA0096101031000004000000
B0536313158267S11655704EA0095901032000004000000
B0536353158327S11655674EA0096201031000004000000
B0536393158382S11655632EA0095801023000004000000
B0536433158436S11655583EA0094901016000004000000
B0536473158489S11655527EA0094101009000004000000
B0536513158537S11655467EA0093701004000004000000
B0536553158579S11655400EA0092700996000004000000
B0536593158611S11655326EA0092600997000004000000
B0537033158633S11655249EA0093401009000004000000
B0537073158610S11655187EA0094901024000004000000
B0537113158567S11655211EA0095601027000004000000
B0537153158583S11655272EA0095801032000004000000
B0537193158640S11655278EA0096201037000004000000
B0537233158678S11655223EA0097501053000004000000
B0537273158659S11655163EA0098701061000004000000
B0537313158611S11655158EA0099001062000004000000
B0537353158593S11655214EA0099201064000004000000
B0537393158628S11655261EA0099501066000004000000
B0537433158688S11655250EA0100201074000004000000
B0537473158727S11655197EA0101501088000004000000
B0537513158704S11655144EA0101801089000004000000
B0537553158658S11655158EA0102001092000004000000
B0537593158657S11655214EA0102601100000004000000
B0538033158704S11655240EA0103401110000004000000
B0538073158753S11655206EA0104401120000004000000
B0538113158756S11655146EA0105401126000004000000
B0538153158713S11655120EA0105401124000004000000
B0538193158678S11655155EA0106001131000004000000
B0538233158691S11655210EA0106301134000004000000
B0538273158746S11655222EA0106801140000004000000
B0538313158784S11655170EA0107501147000004000000
B0538353158763S11655112EA0107901151000004000000
B0538393158715S11655114EA0108601157000004000000
B0538433158694S11655164EA0108801159000004000000
B0538473158724S11655215EA0109501166000004000000
B0538513158783S11655226EA0109601165000004000000
B0538553158839S11655188EA0109201164000004000000
B0538593158854S11655118EA0109801170000004000000
B0539033158826S11655057EA0109501164000004000000
B0539073158770S11655036EA0109201163000004000000
B0539113158723S11655070EA0109901171000004000000
B0539153158715S11655133EA0110201172000004000000
B0539193158749S11655193EA0110201174000004000000
B0539233158810S11655223EA0110201175000004000000
B0539273158878S11655232EA0110101170000004000000
B0539313158949S11655240EA0109301164000004000000
B0539353159021S11655246EA0109501168000004000000
B0539393159091S11655244EA0110101175000004000000
B0539433159160S11655229EA0110501176000004000000
B0539473159230S11655210EA0110401175000004000000
B0539513159302S11655185EA0110101168000004000000
B0539553159377S11655166EA0109101158000004000000
B0539593159454S11655155EA0108901162000004000000
B0540033159526S11655150EA0109001159000004000000
B0540073159599S11655149EA0108201152000004000000
B0540113159673S11655150EA0107701149000004000000
B0540153159746S11655151EA0107901150000004000000
B0540193159818S11655151EA0107601147000004000000
B0540233159889S11655151EA0107301142000004000000
B0540273159961S11655157EA0106601136000004000000
B0540313200032S11655164EA0106101130000004000000
B0540353200105S11655168EA0105701128000004000000
B0540393200175S11655172EA0105201121000004000000
B0540433200245S11655180EA0104901122000004000000
B0540473200312S11655187EA0105901134000004000000
B0540513200375S11655192EA0106001129000004000000
B0540553200440S11655197EA0105401123000004000000
B0540593200508S11655197EA0105301121000004000000
B0541033200578S11655196EA0104501114000004000000
B0541073200647S11655189EA0105101130000004000000
B0541113200712S11655185EA0105601125000004000000
B0541153200781S11655185EA0105401125000004000000
B0541193200849S11655180EA0105801130000004000000
B0541233200915S11655172EA0106201133000004000000
B0541273200984S11655167EA0106001130000004000000
B0541313201057S11655167EA0106101132000004000000
B0541353201128S11655168EA0106001132000004000000
B0541393201200S11655174EA0106001129000004000000
B0541433201271S11655187EA0105401122000004000000
B0541473201344S11655200EA0104601113000004000000
B0541513201418S11655210EA0103701105000004000000
B0541553201492S11655218EA0103501107000004000000
B0541593201562S11655226EA0103501103000004000000
B0542033201634S11655226EA0103701110000004000000
B0542073201690S11655193EA0105301127000004000000
B0542113201679S11655129EA0105901127000004000000
B0542153201621S11655119EA0104601111000004000000
B0542193201580S11655170EA0104401115000004000000
B0542233201574S11655232EA0104901119000004000000
B0542273201605S11655285EA0104901119000004000000
B0542313201660S11655306EA0104901118000004000000
B0542353201722S11655292EA0104901119000004000000
B0542393201770S11655242EA0105501126000004000000
B0542433201770S11655174EA0105501123000004000000
B0542473201725S11655128EA0105201121000004000000
B0542513201668S11655129EA0105501122000004000000
B0542553201625S11655170EA0105501125000004000000
B0542593201613S11655231EA0105701124000004000000
B0543033201645S11655285EA0105601124000004000000
B0543073201701S11655304EA0105701126000004000000
B0543113201764S11655296EA0105901130000004000000
B0543153201827S11655276EA0106001131000004000000
B0543193201891S11655254EA0106101132000004000000
B0543233201954S11655232EA0106101131000004000000
B0543273202019S11655210EA0106101132000004000000
B0543313202085S11655177EA0105801128000004000000
B0543353202155S11655150EA0106401134000004000000
B0543393202225S11655132EA0107001145000004000000
B0543433202294S11655120EA0107801150000004000000
B0543473202363S11655111EA0108101151000004000000
B0543513202435S11655102EA0107801146000004000000
B0543553202506S11655096EA0107801153000004000000
B0543593202571S11655088EA0108801161000004000000
B0544033202632S11655068EA0109201163000004000000
B0544073202697S11655050EA0109601171000004000000
B0544113202758S11655033EA0110401176000004000000
B0544153202823S11655019EA0110201172000004000000
B0544193202893S11655007EA0110001169000004000000
B0544233202962S11654998EA0109901172000004000000
B0544273203031S11654994EA0110501180000004000000
B0544313203099S11654995EA0111601188000004000000
B0544353203164S11654986EA0111501185000004000000
B0544393203226S11654971EA0111101180000004000000
B0544433203293S11654968EA0110101167000004000000
B0544473203361S11654979EA0109101158000004000000
B0544513203430S11655005EA0108701155000004000000
B0544553203497S11655044EA0107901147000004000000
B0544593203562S11655085EA0107301145000004000000
B0545033203624S11655124EA0107201143000004000000
B0545073203685S11655166EA0106701137000004000000
B0545113203749S11655205EA0106301135000004000000
B0545153203811S11655237EA0106201136000004000000
B0545193203875S11655266EA0106201133000004000000
B0545233203939S11655293EA0105601123000004000000
B0545273204004S11655322EA0104601117000004000000
B0545313204067S11655352EA0104601120000004000000
B0545353204131S11655371EA0105701135000004000000
B0545393204190S11655350EA0107401148000004000000
B0545433204209S11655285EA0107901152000004000000
B0545473204175S11655228EA0108101154000004000000
B0545513204119S11655216EA0109001161000004000000
B0545553204076S11655255EA0109101161000004000000
B0545593204066S11655322EA0109201165000004000000
B0546033204097S11655382EA0109101160000004000000
B0546073204157S11655410EA0109301167000004000000
B0546113204218S11655393EA0110101178000004000000
B0546153204253S11655332EA0111001184000004000000
B0546193204244S11655262EA0111401188000004000000
B0546233204199S11655220EA0111801193000004000000
B0546273204144S11655229EA0112501201000004000000
B0546313204112S11655280EA0113001208000004000000
B0546353204113S11655344EA0113401207000004000000
B0546393204148S11655396EA0113001202000004000000
B0546433204196S11655444EA0112801202000004000000
B0546473204247S11655491EA0113401211000004000000
B0546513204300S11655535EA0114101217000004000000
B0546553204355S11655574EA0114001212000004000000
B0546593204411S11655619EA0113001204000004000000
B0547033204464S11655674EA0112501199000004000000
B0547073204513S11655735EA0112301196000004000000
B0547113204560S11655800EA0112001193000004000000
B0547153204606S11655865EA0111501190000004000000
B0547193204650S11655930EA0111401186000004000000
B0547233204689S11655995EA0111201186000004000000
B0547273204726S11656058EA0111101183000004000000
B0547313204763S11656125EA0110201171000004000000
B0547353204802S11656195EA0109201164000004000000
B0547393204843S11656262EA0109201163000004000000
B0547433204886S11656323EA0109001162000004000000
B0547473204929S11656383EA0108901159000004000000
B0547513204972S11656444EA0108301155000004000000
B0547553205016S11656503EA0108101151000004000000
B0547593205059S11656563EA0107501144000004000000
B0548033205105S11656623EA0107001141000004000000
B0548073205153S11656680EA0106601138000004000000
B0548113205201S11656737EA0106301135000004000000
B0548153205249S11656795EA0106601141000004000000
B0548193205295S11656847EA0107001142000004000000
B0548233205339S11656899EA0107301149000004000000
B0548273205389S11656939EA0108501158000004000000
B0548313205447S11656926EA0109101164000004000000
B0548353205474S11656867EA0109501166000004000000
B0548393205460S11656802EA0109001157000004000000
B0548433205421S11656761EA0108801148000004000000
B0548473205373S11656752EA0108501145000004000000
B0548513205339S11656787EA0108101139000004000000
B0548553205340S11656848EA0107401134000004000000
B0548593205382S11656900EA0107201135000004000000
B0549033205439S11656935EA0107301140000004000000
B0549073205495S11656966EA0108001148000004000000
B0549113205547S11656995EA0108701155000004000000
B0549153205603S11657018EA0108601154000004000000
B0549193205662S11657030EA0108101149000004000000
B0549233205725S11657057EA0107601143000004000000
B0549273205781S11657101EA0106901136000004000000
B0549313205833S11657153EA0106001127000004000000
B0549353205881S11657211EA0105501124000004000000
B0549393205929S11657265EA0105201121000004000000
B0549433205974S11657321EA0104901118000004000000
B0549473206019S11657377EA0104701115000004000000
B0549513206062S11657432EA0104301113000004000000
B0549553206104S11657488EA0104201109000004000000
B0549593206149S11657542EA0103601103000004000000
B0550033206197S11657597EA0103001097000004000000
B0550073206245S11657654EA0102601095000004000000
B0550113206294S11657709EA0102201091000004000000
B0550153206344S11657763EA0102601096000004000000
B0550193206390S11657816EA0102901095000004000000
B0550233206439S11657867EA0102301090000004000000
B0550273206485S11657922EA0101801085000004000000
B0550313206531S11657976EA0101201080000004000000
B0550353206572S11658037EA0100601072000004000000
B0550393206600S11658109EA0099901065000004000000
B0550433206598S11658184EA0099301060000004000000
B0550473206569S11658247EA0099301059000004000000
B0550513206522S11658290EA0099101057000004000000
B0550553206467S11658310EA0098601053000004000000
B0550593206410S11658320EA0098101047000004000000
B0551033206354S11658330EA0097701046000004000000
B0551073206298S11658339EA0097101036000004000000
B0551113206240S11658346EA0096301028000004000000
B0551153206181S11658351EA0095301021000004000000
B0551193206121S11658356EA0094701017000004000000
B0551233206062S11658360EA0095001024000004000000
B0551273206004S11658362EA0095501027000004000000
B0551313205947S11658355EA0096301036000004000000
B0551353205895S11658360EA0097301044000004000000
B0551393205876S11658413EA0097301042000004000000
B0551433205916S11658464EA0096801035000004000000
B0551473205977S11658455EA0096801037000004000000
B0551513206010S11658401EA0097001041000004000000
B0551553206000S11658346EA0097401043000004000000
B0551593205965S11658304EA0097601044000004000000
B0552033205919S11658294EA0097701047000004000000
B0552073205881S11658335EA0097701044000004000000
B0552113205881S11658400EA0097701045000004000000
B0552153205920S11658447EA0097301041000004000000
B0552193205978S11658450EA0096701033000004000000
B0552233206020S11658400EA0096001027000004000000
B0552273206028S11658329EA0095601025000004000000
B0552313206020S11658258EA0095701028000004000000
B0552353206008S11658190EA0095901030000004000000
B0552393205993S11658119EA0095701026000004000000
B0552433205982S11658045EA0095001020000004000000
B0552473205978S11657970EA0094501015000004000000
B0552513205976S11657894EA0094001007000004000000
B0552553205976S11657816EA0093401001000004000000
B0552593205976S11657736EA0092900999000004000000
B0553033205976S11657655EA0092300992000004000000
B0553073205976S11657573EA0092000990000004000000
B0553113205980S11657493EA0091700984000004000000
B0553153205977S11657413EA0091200981000004000000
B0553193205973S11657335EA0090900978000004000000
B0553233205969S11657260EA0090800979000004000000
B0553273205963S11657186EA0091100979000004000000
B0553313205942S11657121EA0091200981000004000000
B0553353205906S11657068EA0091100978000004000000
B0553393205864S11657021EA0091600990000004000000
B0553433205815S11657009EA0093001000000004000000
B0553473205789S11657064EA0093601005000004000000
B0553513205821S11657118EA0093901006000004000000
B0553553205877S11657108EA0093801006000004000000
B0553593205904S11657049EA0093701003000004000000
B0554033205891S11656986EA0094201012000004000000
B0554073205856S11656939EA0095401022000004000000
B0554113205807S11656944EA0095501022000004000000
B0554153205789S11657008EA0095601023000004000000
B0554193205812S11657074EA0095901028000004000000
B0554233205864S11657113EA0096501032000004000000
B0554273205924S11657109EA0096301030000004000000
B0554313205971S11657065EA0096101028000004000000
B0554353205976S11656996EA0096001030000004000000
B0554393205954S11656929EA0097001039000004000000
B0554433205903S11656906EA0097901050000004000000
B0554473205869S11656956EA0098301052000004000000
B0554513205894S11657021EA0098301050000004000000
B0554553205954S11657042EA0098601056000004000000
B0554593206012S11657016EA0099301064000004000000
B0555033206016S11656955EA0100001070000004000000
B0555073205969S11656927EA0100701077000004000000
B0555113205924S11656961EA0101301083000004000000
B0555153205917S11657031EA0101201080000004000000
B0555193205956S11657090EA0101401084000004000000
B0555233206019S11657107EA0101801088000004000000
B0555273206078S11657079EA0101801089000004000000
B0555313206094S11657018EA0103001102000004000000
B0555353206054S11656988EA0103801111000004000000
B0555393206024S11657034EA0104701115000004000000
B0555433206049S11657098EA0104801119000004000000
B0555473206111S11657117EA0104901119000004000000
B0555513206168S11657079EA0104701120000004000000
B0555553206190S11657013EA0105701129000004000000
B0555593206168S11656956EA0106601135000004000000
B0556033206116S11656944EA0106501133000004000000
B0556073206071S11656984EA0106801140000004000000
B0556113206059S11657055EA0107501147000004000000
B0556153206098S11657112EA0108401152000004000000
B0556193206162S11657118EA0108501152000004000000
B0556233206216S11657075EA0108401153000004000000
B0556273206238S11657004EA0108401152000004000000
B0556313206240S11656926EA0108401150000004000000
B0556353206224S11656847EA0108201151000004000000
B0556393206203S11656769EA0108101151000004000000
B0556433206181S11656692EA0108101147000004000000
B0556473206156S11656618EA0107901148000004000000
B0556513206130S11656541EA0107501141000004000000
B0556553206110S11656459EA0107001137000004000000
B0556593206091S11656376EA0106401131000004000000
B0557033206078S11656294EA0106301131000004000000
B0557073206068S11656212EA0106201131000004000000
B0557113206058S11656132EA0106101132000004000000
B0557153206046S11656056EA0106301131000004000000
B0557193206036S11655981EA0105901123000004000000
B0557233206023S11655904EA0105201118000004000000
B0557273206012S11655826EA0104601111000004000000
B0557313206003S11655747EA0104101105000004000000
B0557353205994S11655665EA0103201097000004000000
B0557393205980S11655583EA0102401089000004000000
B0557433205963S11655501EA0101801086000004000000
B0557473205942S11655424EA0101801085000004000000
B0557513205919S11655350EA0101601081000004000000
B0557553205894S11655278EA0101101077000004000000
B0557593205868S11655205EA0100701069000004000000
B0558033205837S11655132EA0099801063000004000000
B0558073205796S11655064EA0099401061000004000000
B0558113205750S11655003EA0100001069000004000000
B0558153205704S11654955EA0101501084000004000000
B0558193205661S11654910EA0102001088000004000000
B0558233205610S11654867EA0102501091000004000000
B0558273205553S11654858EA0102601093000004000000
B0558313205512S11654904EA0101901083000004000000
B0558353205519S11654973EA0100901074000004000000
B0558393205570S11655014EA0100201066000004000000
B0558433205635S11655005EA0098701050000004000000
B0558473205686S11654949EA0097501046000004000000
B0558513205726S11654878EA0098101054000004000000
B0558553205729S11654810EA0099901073000004000000
B0558593205679S11654793EA0100801077000004000000
B0559033205653S11654847EA0100901079000004000000
B0559073205685S11654898EA0101201083000004000000
B0559113205740S11654903EA0101301082000004000000
B0559153205792S11654860EA0101301086000004000000
B0559193205809S11654790EA0102001093000004000000
B0559233205781S11654729EA0102001090000004000000
B0559273205727S11654712EA0101701088000004000000
B0559313205682S11654748EA0101701089000004000000
B0559353205673S11654812EA0101301082000004000000
B0559393205703S11654871EA0100301073000004000000
B0559433205757S11654901EA0100801082000004000000
B0559473205820S11654899EA0101601092000004000000
B0559513205872S11654868EA0102601101000004000000
B0559553205865S11654807EA0102901100000004000000
B0559593205818S11654777EA0102701099000004000000
B0600033205772S11654807EA0103201105000004000000
B0600073205764S11654868EA0103501107000004000000
B0600113205807S11654911EA0104001112000004000000
B0600153205870S11654910EA0104701119000004000000
B0600193205915S11654860EA0105301127000004000000
B0600233205913S11654795EA0105901130000004000000
B0600273205867S11654763EA0105701124000004000000
B0600313205820S11654798EA0105301125000004000000
B0600353205825S11654864EA0105601128000004000000
B0600393205877S11654908EA0106001132000004000000
B0600433205942S11654911EA0107001143000004000000
B0600473205993S11654869EA0107701147000004000000
B0600513206006S11654806EA0107201139000004000000
B0600553205980S11654739EA0105901129000004000000
B0600593205941S11654678EA0105201122000004000000
B0601033205894S11654622EA0104501115000004000000
B0601073205844S11654572EA0103701107000004000000
B0601113205786S11654533EA0103001100000004000000
B0601153205725S11654504EA0102601097000004000000
B0601193205662S11654485EA0102601100000004000000
B0601233205604S11654481EA0103301105000004000000
B0601273205547S11654492EA0103501105000004000000
B0601313205493S11654512EA0103401105000004000000
B0601353205443S11654535EA0103301104000004000000
B0601393205392S11654560EA0103501105000004000000
B0601433205344S11654587EA0102901099000004000000
B0601473205292S11654613EA0102001089000004000000
B0601513205235S11654622EA0101101082000004000000
B0601553205174S11654609EA0100701077000004000000
B0601593205115S11654587EA0100301075000004000000
B0602033205061S11654560EA0100301075000004000000
B0602073205009S11654533EA0099501063000004000000
B0602113204951S11654507EA0098901062000004000000
B0602153204895S11654488EA0099201067000004000000
B0602193204840S11654475EA0100001073000004000000
B0602233204788S11654462EA0100701078000004000000
B0602273204734S11654444EA0101001080000004000000
B0602313204681S11654447EA0101801092000004000000
B0602353204658S11654501EA0102901102000004000000
B0602393204694S11654550EA0103701106000004000000
B0602433204750S11654534EA0103501101000004000000
B0602473204772S11654472EA0103001100000004000000
B0602513204746S11654420EA0103501110000004000000
B0602553204700S11654397EA0104401115000004000000
B0602593204652S11654399EA0104501114000004000000
B0603033204621S11654451EA0104601120000004000000
B0603073204647S11654508EA0105201126000004000000
B0603113204706S11654511EA0105801131000004000000
B0603153204741S11654455EA0105901133000004000000
B0603193204720S11654399EA0106401141000004000000
B0603233204669S11654391EA0107001144000004000000
B0603273204637S11654440EA0107401146000004000000
B0603313204656S11654501EA0107901153000004000000
B0603353204710S11654516EA0109001164000004000000
B0603393204756S11654479EA0109301165000004000000
B0603433204763S11654418EA0109501168000004000000
B0603473204725S11654375EA0109601168000004000000
B0603513204673S11654386EA0109501166000004000000
B0603553204651S11654448EA0109401166000004000000
B0603593204677S11654511EA0109501170000004000000
B0604033204736S11654527EA0109901172000004000000
B0604073204790S11654488EA0109801170000004000000
B0604113204827S11654423EA0109601172000004000000
B0604153204854S11654355EA0110101175000004000000
B0604193204875S11654283EA0109601168000004000000
B0604233204899S11654206EA0108701157000004000000
B0604273204929S11654127EA0108301156000004000000
B0604313204954S11654049EA0108601159000004000000
B0604353204981S11653974EA0108501155000004000000
B0604393205009S11653900EA0107901149000004000000
B0604433205037S11653823EA0107001137000004000000
B0604473205061S11653742EA0106201134000004000000
B0604513205079S11653663EA0106601138000004000000
B0604553205093S11653586EA0106201132000004000000
B0604593205101S11653504EA0105601125000004000000
B0605033205100S11653422EA0105601129000004000000
B0605073205077S11653351EA0106101136000004000000
B0605113205027S11653328EA0107701148000004000000
B0605153204983S11653363EA0108101145000004000000
B0605193204975S11653433EA0107101138000004000000
B0605233205007S11653497EA0107201140000004000000
B0605273205064S11653532EA0107001136000004000000
B0605313205131S11653537EA0106401133000004000000
B0605353205196S11653512EA0106701136000004000000
B0605393205245S11653458EA0106001128000004000000
B0605433205262S11653380EA0106001130000004000000
B0605473205244S11653308EA0106401136000004000000
B0605513205201S11653265EA0107301145000004000000
B0605553205146S11653263EA0107801149000004000000
B0605593205101S11653298EA0108801160000004000000
B0606033205083S11653357EA0109001159000004000000
B0606073205098S11653426EA0108801158000004000000
B0606113205144S11653482EA0109001160000004000000
B0606153205205S11653507EA0109401165000004000000
B0606193205271S11653510EA0110001168000004000000
B0606233205331S11653478EA0109901167000004000000
B0606273205375S11653420EA0109701168000004000000
B0606313205397S11653351EA0109801168000004000000
B0606353205396S11653278EA0109501159000004000000
B0606393205373S11653211EA0108101148000004000000
B0606433205328S11653161EA0107601142000004000000
B0606473205271S11653146EA0107501145000004000000
B0606513205215S11653169EA0107901151000004000000
B0606553205179S11653226EA0108201156000004000000
B0606593205178S11653299EA0108801159000004000000
B0607033205206S11653369EA0109001161000004000000
B0607073205261S11653421EA0109401165000004000000
B0607113205330S11653442EA0109501165000004000000
B0607153205404S11653426EA0108801159000004000000
B0607193205474S11653382EA0108401155000004000000
B0607233205523S11653315EA0109001160000004000000
B0607273205542S11653238EA0108701157000004000000
B0607313205526S11653162EA0108301148000004000000
B0607353205488S11653100EA0107201140000004000000
B0607393205445S11653042EA0106801137000004000000
B0607433205400S11652984EA0106601133000004000000
B0607473205352S11652927EA0106301130000004000000
B0607513205304S11652870EA0106201129000004000000
B0607553205253S11652814EA0105701125000004000000
B0607593205200S11652761EA0105001116000004000000
B0608033205150S11652697EA0104201108000004000000
B0608073205107S11652623EA0103401098000004000000
B0608113205075S11652540EA0102601091000004000000
B0608153205050S11652453EA0101901084000004000000
B0608193205033S11652359EA0100901075000004000000
B0608233205022S11652264EA0100101070000004000000
B0608273205007S11652171EA0100101070000004000000
B0608313204989S11652081EA0099701065000004000000
B0608353204967S11651994EA0099201062000004000000
B0608393204945S11651908EA0099501065000004000000
B0608433204924S11651825EA0099701067000004000000
B0608473204903S11651747EA0099801068000004000000
B0608513204892S11651666EA0100001069000004000000
B0608553204890S11651587EA0100001069000004000000
B0608593204899S11651508EA0100001066000004000000
B0609033204920S11651428EA0099501063000004000000
B0609073204938S11651348EA0099701064000004000000
B0609113204925S11651272EA0099301060000004000000
B0609153204880S11651218EA0098901052000004000000
B0609193204819S11651185EA0097901044000004000000
B0609233204755S11651162EA0097501039000004000000
B0609273204690S11651144EA0096701029000004000000
B0609313204620S11651131EA0095401019000004000000
B0609353204551S11651121EA0095201021000004000000
B0609393204486S11651111EA0095301022000004000000
B0609433204421S11651101EA0095201021000004000000
B0609473204356S11651092EA0095201021000004000000
B0609513204292S11651092EA0095301021000004000000
B0609553204230S11651098EA0095001017000004000000
B0609593204167S11651106EA0094301010000004000000
B0610033204105S11651116EA0093301001000004000000
B0610073204040S11651131EA0092400995000004000000
B0610113203976S11651145EA0092400996000004000000
B0610153203911S11651153EA0092400997000004000000
B0610193203848S11651164EA0092701002000004000000
B0610233203788S11651179EA0093901020000004000000
B0610273203741S11651211EA0095601028000004000000
B0610313203750S11651272EA0095701027000004000000
B0610353203806S11651276EA0095401024000004000000
B0610393203840S11651220EA0095001021000004000000
B0610433203831S11651153EA0094901020000004000000
B0610473203792S11651102EA0095201028000004000000
B0610513203741S11651094EA0096901045000004000000
B0610553203720S11651150EA0098401060000004000000
B0610593203757S11651201EA0099301067000004000000
B0611033203814S11651198EA0100201076000004000000
B0611073203845S11651154EA0100501075000004000000
B0611113203833S11651098EA0100501081000004000000
B0611153203789S11651080EA0101601088000004000000
B0611193203753S11651121EA0102201096000004000000
B0611233203768S11651185EA0103501109000004000000
B0611273203826S11651211EA0104001109000004000000
B0611313203881S11651183EA0104201112000004000000
B0611353203901S11651121EA0104301114000004000000
B0611393203872S11651069EA0105301122000004000000
B0611433203823S11651063EA0106101130000004000000
B0611473203794S11651114EA0106801142000004000000
B0611513203824S11651171EA0107701150000004000000
B0611553203883S11651172EA0108301154000004000000
B0611593203915S11651120EA0108801161000004000000
B0612033203896S11651066EA0109401164000004000000
B0612073203846S11651053EA0109901170000004000000
B0612113203806S11651090EA0110701180000004000000
B0612153203803S11651154EA0111801190000004000000
B0612193203841S11651205EA0112201192000004000000
B0612233203901S11651214EA0112601198000004000000
B0612273203948S11651180EA0112901201000004000000
B0612313203961S11651120EA0113101203000004000000
B0612353203933S11651068EA0113501206000004000000
B0612393203884S11651060EA0113701207000004000000
B0612433203850S11651110EA0113901212000004000000
B0612473203859S11651177EA0114701218000004000000
B0612513203909S11651218EA0114801217000004000000
B0612553203966S11651198EA0114901220000004000000
B0612593203982S11651138EA0115101222000004000000
B0613033203943S11651094EA0114901215000004000000
B0613073203881S11651090EA0114201211000004000000
B0613113203820S11651114EA0114401214000004000000
B0613153203759S11651145EA0114501216000004000000
B0613193203698S11651177EA0114101209000004000000
B0613233203633S11651209EA0113501212000004000000
B0613273203569S11651237EA0114101213000004000000
B0613313203503S11651261EA0113501200000004000000
B0613353203434S11651289EA0112201192000004000000
B0613393203367S11651314EA0112201195000004000000
B0613433203302S11651335EA0112001191000004000000
B0613473203237S11651353EA0111601186000004000000
B0613513203173S11651368EA0111401185000004000000
B0613553203111S11651384EA0111301182000004000000
B0613593203047S11651401EA0111401187000004000000
B0614033202984S11651417EA0112101194000004000000
B0614073202925S11651433EA0111801184000004000000
B0614113202860S11651452EA0109901165000004000000
B0614153202789S11651466EA0109701171000004000000
B0614193202724S11651483EA0110901183000004000000
B0614233202669S11651500EA0112301195000004000000
B0614273202614S11651517EA0111901184000004000000
B0614313202557S11651539EA0110701173000004000000
B0614353202496S11651573EA0110701180000004000000
B0614393202440S11651605EA0111901193000004000000
B0614433202388S11651635EA0111901183000004000000
B0614473202329S11651666EA0110301170000004000000
B0614513202266S11651697EA0109601164000004000000
B0614553202202S11651726EA0109301165000004000000
B0614593202141S11651753EA0109301162000004000000
B0615033202085S11651784EA0109301164000004000000
B0615073202029S11651809EA0109201162000004000000
B0615113201970S11651822EA0109001162000004000000
B0615153201909S11651825EA0109301163000004000000
B0615193201848S11651826EA0109201164000004000000
B0615233201782S11651825EA0108801157000004000000
B0615273201714S11651817EA0108201151000004000000
B0615313201647S11651804EA0108201156000004000000
B0615353201583S11651790EA0108901162000004000000
B0615393201519S11651781EA0109201160000004000000
B0615433201456S11651769EA0109201165000004000000
B0615473201398S11651790EA0110001172000004000000
B0615513201378S11651855EA0111301188000004000000
B0615553201411S11651912EA0112101191000004000000
B0615593201471S11651925EA0112001189000004000000
B0616033201528S11651890EA0111901189000004000000
B0616073201564S11651826EA0112001191000004000000
B0616113201566S11651749EA0111901189000004000000
B0616153201554S11651674EA0111701189000004000000
B0616193201539S11651604EA0111801188000004000000
B0616233201517S11651534EA0110901172000004000000
B0616273201495S11651457EA0109701168000004000000
B0616313201479S11651379EA0110001169000004000000
B0616353201463S11651301EA0110201172000004000000
B0616393201443S11651225EA0110201170000004000000
B0616433201406S11651158EA0109401162000004000000
B0616473201349S11651127EA0109401164000004000000
B0616513201294S11651147EA0109101157000004000000
B0616553201274S11651211EA0108101143000004000000
B0616593201279S11651287EA0106501128000004000000
B0617033201288S11651368EA0105201116000004000000
B0617073201296S11651450EA0104701116000004000000
B0617113201319S11651522EA0105101120000004000000
B0617153201359S11651579EA0105101115000004000000
B0617193201410S11651628EA0105101119000004000000
B0617233201460S11651673EA0106201130000004000000
B0617273201515S11651700EA0106701138000004000000
B0617313201567S11651670EA0106701134000004000000
B0617353201567S11651600EA0106301129000004000000
B0617393201517S11651565EA0106101127000004000000
B0617433201462S11651589EA0105701124000004000000
B0617473201435S11651649EA0105601126000004000000
B0617513201428S11651721EA0105601123000004000000
B0617553201431S11651799EA0104901114000004000000
B0617593201441S11651881EA0103701101000004000000
B0618033201467S11651964EA0102801092000004000000
B0618073201514S11652037EA0102001087000004000000
B0618113201574S11652098EA0101101080000004000000
B0618153201639S11652154EA0100401075000004000000
B0618193201705S11652207EA0100101069000004000000
B0618233201770S11652263EA0099101057000004000000
B0618273201820S11652340EA0098101048000004000000
B0618313201873S11652412EA0097701044000004000000
B0618353201931S11652480EA0096901037000004000000
B0618393201999S11652535EA0096501035000004000000
B0618433202069S11652583EA0096601036000004000000
B0618473202138S11652629EA0096501034000004000000
B0618513202208S11652675EA0096201032000004000000
B0618553202277S11652723EA0096001031000004000000
B0618593202344S11652772EA0095901027000004000000
B0619033202410S11652821EA0095401023000004000000
B0619073202475S11652867EA0095201024000004000000
B0619113202540S11652912EA0095101019000004000000
B0619153202602S11652961EA0094201010000004000000
B0619193202654S11653027EA0093601006000004000000
B0619233202695S11653101EA0093201001000004000000
B0619273202724S11653178EA0093001001000004000000
B0619313202752S11653251EA0093401004000004000000
B0619353202780S11653322EA0093701010000004000000
B0619393202806S11653394EA0094001010000004000000
B0619433202825S11653465EA0094001007000004000000
B0619473202845S11653537EA0093200999000004000000
B0619513202886S11653601EA0093100998000004000000
B0619553202945S11653637EA0093701008000004000000
B0619593202999S11653617EA0095001023000004000000
B0620033202994S11653556EA0095201025000004000000
B0620073202942S11653541EA0095401028000004000000
B0620113202909S11653594EA0095801033000004000000
B0620153202926S11653662EA0095901031000004000000
B0620193202975S11653698EA0095901033000004000000
B0620233203027S11653681EA0096001032000004000000
B0620273203052S11653620EA0095701031000004000000
B0620313203026S11653556EA0096001033000004000000
B0620353202974S11653543EA0096801044000004000000
B0620393202947S11653604EA0096901047000004000000
B0620433202970S11653666EA0097601052000004000000
B0620473203022S11653686EA0097701053000004000000
B0620513203057S11653641EA0097501051000004000000
B0620553203036S11653586EA0097801056000004000000
B0620593202983S11653588EA0098001056000004000000
B0621033202965S11653647EA0098801062000004000000
B0621073203003S11653695EA0098601057000004000000
B0621113203059S11653723EA0097901050000004000000
B0621153203120S11653745EA0097001038000004000000
B0621193203186S11653764EA0095801028000004000000
B0621233203255S11653783EA0095301026000004000000
B0621273203321S11653802EA0095001021000004000000
B0621313203384S11653823EA0094801022000004000000
B0621353203445S11653848EA0094801020000004000000
B0621393203506S11653871EA0094401017000004000000
B0621433203567S11653893EA0094901020000004000000
B0621473203627S11653919EA0094701020000004000000
B0621513203685S11653948EA0094901022000004000000
B0621553203746S11653978EA0095201025000004000000
B0621593203806S11653968EA0096201036000004000000
B0622033203819S11653910EA0096601040000004000000
B0622073203779S11653874EA0097101043000004000000
B0622113203731S11653896EA0097101044000004000000
B0622153203715S11653957EA0097701052000004000000
B0622193203750S11654006EA0098301054000004000000
B0622233203810S11654004EA0098301056000004000000
B0622273203837S11653945EA0098501058000004000000
B0622313203803S11653898EA0098801060000004000000
B0622353203751S11653914EA0099101063000004000000
B0622393203729S11653974EA0099401068000004000000
B0622433203758S11654033EA0099701071000004000000
B0622473203818S11654045EA0100101077000004000000
B0622513203866S11654002EA0100901084000004000000
B0622553203874S11653939EA0101401086000004000000
B0622593203840S11653890EA0101601089000004000000
B0623033203785S11653885EA0102001091000004000000
B0623073203741S11653928EA0102401097000004000000
B0623113203735S11653994EA0102801101000004000000
B0623153203772S11654050EA0103501109000004000000
B0623193203833S11654065EA0104101117000004000000
B0623233203880S11654026EA0104901125000004000000
B0623273203884S11653965EA0105201124000004000000
B0623313203845S11653920EA0105201123000004000000
B0623353203792S11653920EA0105401125000004000000
B0623393203755S11653967EA0105801132000004000000
B0623433203755S11654032EA0106401138000004000000
B0623473203790S11654087EA0107201144000004000000
B0623513203849S11654109EA0107701148000004000000
B0623553203905S11654083EA0107901152000004000000
B0623593203927S11654023EA0108201154000004000000
B0624033203901S11653966EA0108001149000004000000
B0624073203846S11653945EA0107601146000004000000
B0624113203794S11653971EA0108201154000004000000
B0624153203766S11654026EA0109301165000004000000
B0624193203764S11654091EA0109901169000004000000
B0624233203798S11654147EA0110301175000004000000
B0624273203857S11654160EA0110801180000004000000
B0624313203905S11654118EA0111101184000004000000
B0624353203907S11654050EA0111301184000004000000
B0624393203865S11654007EA0111301182000004000000
B0624433203806S11654010EA0111601187000004000000
B0624473203764S11654057EA0112001193000004000000
B0624513203759S11654126EA0112701199000004000000
B0624553203797S11654182EA0113001200000004000000
B0624593203858S11654202EA0113001200000004000000
B0625033203924S11654191EA0113201202000004000000
B0625073203969S11654137EA0113501205000004000000
B0625113203961S11654069EA0113401206000004000000
B0625153203911S11654033EA0113401202000004000000
B0625193203852S11654056EA0113001199000004000000
B0625233203820S11654126EA0113301204000004000000
B0625273203836S11654202EA0114101212000004000000
B0625313203888S11654248EA0114801220000004000000
B0625353203950S11654251EA0115401224000004000000
B0625393204001S11654212EA0115801229000004000000
B0625433204028S11654153EA0116001230000004000000
B0625473204023S11654085EA0115501222000004000000
B0625513203996S11654022EA0114801213000004000000
B0625553203958S11653961EA0113801206000004000000
B0625593203913S11653905EA0113901211000004000000
B0626033203858S11653868EA0114301212000004000000
B0626073203798S11653879EA0114301213000004000000
B0626113203758S11653933EA0114701218000004000000
B0626153203754S11654005EA0114801218000004000000
B0626193203793S11654065EA0115201222000004000000
B0626233203855S11654080EA0115801231000004000000
B0626273203906S11654048EA0116701239000004000000
B0626313203919S11653987EA0116801238000004000000
B0626353203892S11653932EA0116501232000004000000
B0626393203840S11653905EA0116001228000004000000
B0626433203788S11653924EA0116201233000004000000
B0626473203770S11653981EA0116801236000004000000
B0626513203797S11654039EA0116401230000004000000
B0626553203852S11654078EA0116201230000004000000
B0626593203915S11654095EA0116701237000004000000
B0627033203959S11654048EA0117101243000004000000
B0627073203954S11653981EA0117301243000004000000
B0627113203910S11653939EA0117401241000004000000
B0627153203855S11653937EA0117201242000004000000
B0627193203811S11653972EA0117501244000004000000
B0627233203793S11654033EA0117401240000004000000
B0627273203811S11654102EA0116601234000004000000
B0627313203857S11654154EA0116401232000004000000
B0627353203918S11654178EA0116401233000004000000
B0627393203980S11654165EA0116501235000004000000
B0627433204027S11654115EA0116901238000004000000
B0627473204045S11654046EA0117101241000004000000
B0627513204009S11653998EA0117401242000004000000
B0627553203956S11654011EA0117101239000004000000
B0627593203924S11654071EA0117401244000004000000
B0628033203928S11654143EA0117801249000004000000
B0628073203961S11654204EA0118301255000004000000
B0628113204011S11654248EA0118101251000004000000
B0628153204070S11654280EA0118101249000004000000
B0628193204135S11654291EA0117801247000004000000
B0628233204195S11654264EA0117901249000004000000
B0628273204232S11654208EA0117501243000004000000
B0628313204248S11654135EA0116501231000004000000
B0628353204264S11654057EA0115601222000004000000
B0628393204277S11653975EA0114701216000004000000
B0628433204284S11653892EA0114601213000004000000
B0628473204284S11653809EA0114301210000004000000
B0628513204266S11653728EA0114001203000004000000
B0628553204225S11653660EA0113301196000004000000
B0628593204165S11653616EA0112301189000004000000
B0629033204097S11653594EA0112201189000004000000
B0629073204031S11653593EA0112701196000004000000
B0629113203975S11653612EA0113801208000004000000
B0629153203937S11653655EA0114201211000004000000
B0629193203924S11653718EA0114201208000004000000
B0629233203937S11653783EA0113801204000004000000
B0629273203966S11653842EA0113801204000004000000
B0629313204002S11653901EA0113601200000004000000
B0629353204044S11653961EA0113101197000004000000
B0629393204083S11654023EA0113001197000004000000
B0629433204119S11654091EA0113001196000004000000
B0629473204156S11654160EA0112701193000004000000
B0629513204192S11654231EA0112901195000004000000
B0629553204231S11654301EA0112801194000004000000
B0629593204270S11654373EA0112501189000004000000
B0630033204308S11654446EA0111601179000004000000
B0630073204347S11654520EA0110601168000004000000
B0630113204385S11654595EA0109901163000004000000
B0630153204426S11654667EA0109601161000004000000
B0630193204470S11654737EA0109601162000004000000
B0630233204516S11654807EA0109501161000004000000
B0630273204559S11654880EA0109001154000004000000
B0630313204600S11654951EA0108301148000004000000
B0630353204639S11655023EA0108101146000004000000
B0630393204678S11655090EA0107901144000004000000
B0630433204717S11655158EA0107701139000004000000
B0630473204759S11655224EA0106901133000004000000
B0630513204802S11655289EA0106301123000004000000
B0630553204845S11655356EA0105101115000004000000
B0630593204888S11655421EA0104801114000004000000
B0631033204927S11655482EA0104501110000004000000
B0631073204962S11655543EA0104301109000004000000
B0631113204994S11655604EA0104301108000004000000
B0631153205027S11655664EA0104301108000004000000
B0631193205057S11655722EA0104101104000004000000
B0631233205087S11655783EA0103401099000004000000
B0631273205118S11655844EA0103101098000004000000
B0631313205146S11655905EA0103701105000004000000
B0631353205178S11655963EA0104701112000004000000
B0631393205235S11655982EA0105101121000004000000
B0631433205276S11655934EA0106101131000004000000
B0631473205259S11655876EA0106001123000004000000
B0631513205209S11655865EA0105401122000004000000
B0631553205171S11655907EA0106201133000004000000
B0631593205167S11655967EA0106901140000004000000
B0632033205207S11656015EA0107501144000004000000
B0632073205267S11656007EA0107401144000004000000
B0632113205302S11655948EA0107801148000004000000
B0632153205289S11655885EA0107901145000004000000
B0632193205246S11655850EA0107301137000004000000
B0632233205194S11655864EA0107101141000004000000
B0632273205166S11655915EA0108101155000004000000
B0632313205171S11655972EA0109401166000004000000
B0632353205209S11656016EA0110001169000004000000
B0632393205265S11656029EA0110201169000004000000
B0632433205306S11655983EA0109601164000004000000
B0632473205297S11655918EA0109401163000004000000
B0632513205253S11655886EA0109701164000004000000
B0632553205205S11655896EA0109901170000004000000
B0632593205172S11655938EA0110701178000004000000
B0633033205171S11655996EA0111101179000004000000
B0633073205202S11656047EA0110801179000004000000
B0633113205257S11656080EA0110801177000004000000
B0633153205313S11656108EA0110901178000004000000
B0633193205370S11656133EA0111001175000004000000
B0633233205434S11656146EA0110401173000004000000
B0633273205496S11656137EA0111001180000004000000
B0633313205535S11656091EA0111001178000004000000
B0633353205516S11656026EA0109901171000004000000
B0633393205466S11656009EA0110201172000004000000
B0633433205427S11656043EA0109801168000004000000
B0633473205422S11656104EA0109501164000004000000
B0633513205460S11656152EA0109201163000004000000
B0633553205518S11656158EA0109601166000004000000
B0633593205575S11656137EA0109701167000004000000
B0634033205631S11656108EA0109601166000004000000
B0634073205685S11656074EA0110001172000004000000
B0634113205709S11656020EA0110401175000004000000
B0634153205678S11655969EA0109701165000004000000
B0634193205622S11655970EA0109501164000004000000
B0634233205591S11656020EA0109901172000004000000
B0634273205599S11656081EA0110701178000004000000
B0634313205642S11656125EA0110601175000004000000
B0634353205701S11656134EA0110801179000004000000
B0634393205760S11656117EA0111001182000004000000
B0634433205815S11656087EA0111201183000004000000
B0634473205868S11656054EA0111401183000004000000
B0634513205922S11656021EA0111201179000004000000
B0634553205978S11655982EA0110701174000004000000
B0634593206030S11655937EA0110601174000004000000
B0635033206065S11655876EA0111001184000004000000
B0635073206046S11655811EA0111401184000004000000
B0635113205990S11655803EA0111301181000004000000
B0635153205956S11655857EA0111201182000004000000
