ACAM4N6
HFDTE291214
HFFXA050
HFPLTPILOT:JOHN WELSH              
HFGTYGLIDERTYPE:HORNET      
HFGIDGLIDERID:VH-GMY      
HFDTM100GPSDATUM:
HFRFWFIRMWAREVERSION:F2.6
HFRHWHARDWAREVERSION:300 Series Version 2
HFFTYFRTYPE:CAMBRIDGE AERO INSTRUMENTS, 302+
HFGPS:GARMIN,LVS-25,12,18000
HFPRSPRESSALTSENSOR:INTERSEMA, MS5534-AP, 20000
I033638FXA3941ENL4247REX
LCAMSBVER:5FWVER:F26300
C291214051913291214000102
C0000000N00000000WTAKEOFF     
C3207549S11656849EBEVAIR      
C3111283S11701799EDOWERIN     
C3136216S11753732EDOODLAKN    
C3207549S11656849EBEVAIR      
C0000000N00000000WLANDING     
B0520553207332S11656861EA0019600211000000000000
B0520573207332S11656861EA0019700211000000000000
B0520593207332S11656861EA0019700211000000000000
B0521013207332S11656861EA0019600211000000000000
B0521033207332S11656861EA0019700211000000000000
B0521053207332S11656861EA0019700211000000000000
B0521073207332S11656861EA0019800211000000000000
B0521093207332S11656861EA0019700211000000000000
B0521113207332S11656861EA0019700211000000000000
B0521133207332S11656861EA0019600211000000000000
B0521153207332S11656861EA0019700211000000000000
B0521173207332S11656861EA0019700211000000000000
B0521193207332S11656861EA0019800211000000000000
B0521213207332S11656861EA0019700211000000000000
B0521233207334S11656864EA0019800211000000000000
B0521263207346S11656870EA0019700210000000000000
B0521303207375S11656891EA0019400210000000000000
B0521343207419S11656921EA0019500210000000000000
B0521383207476S11656956EA0019500210000000000000
B0521423207540S11656997EA0019800213000000000000
B0521463207602S11657046EA0020300221000000000000
B0521503207659S11657095EA0021300238000000000000
B0521543207714S11657143EA0023700260000000000000
B0521583207766S11657198EA0025400276000000000000
B0522023207814S11657259EA0026500295000000000000
B0522063207857S11657326EA0028100304000000000000
B0522103207896S11657397EA0029000315000000000000
B0522143207930S11657469EA0030600331000000000000
B0522183207958S11657545EA0031900345000000000000
B0522223207987S11657623EA0032800354000000000000
B0522263208013S11657706EA0033600359000000000000
B0522303208039S11657789EA0034400376000000000000
B0522343208065S11657871EA0036200391000000000000
B0522383208092S11657956EA0037000398000000000000
B0522423208116S11658036EA0038400417000000000000
B0522463208136S11658118EA0040100434000000000000
B0522503208155S11658200EA0041900456000000000000
B0522543208174S11658282EA0044200481000000000000
B0522583208200S11658353EA0047200513000000000000
B0523023208247S11658412EA0049000528000000000000
B0523063208309S11658446EA0050900550000000000000
B0523103208381S11658452EA0052300560000000000000
B0523143208457S11658435EA0053400568000000000000
B0523183208533S11658391EA0053700574000000000000
B0523223208587S11658316EA0054400586000000000000
B0523263208613S11658219EA0055800602000000000000
B0523303208607S11658114EA0056800616000000000000
B0523343208563S11658030EA0058800643000000000000
B0523383208498S11657972EA0060800660000000000000
B0523423208421S11657937EA0062200670000000000000
B0523463208339S11657919EA0063600688000000000000
B0523503208259S11657928EA0066200714000000000000
B0523543208177S11657954EA0067800728000000000000
B0523583208100S11657992EA0069900756000000000000
B0524023208039S11658047EA0072500785000000000000
B0524063208026S11658110EA0075200809000000000000
B0524103208061S11658148EA0076000812000000000000
B0524143208113S11658125EA0076400820000000000000
B0524183208097S11658049EA0077700836000000000000
B0524223208038S11658028EA0078600847000000000000
B0524263208006S11658075EA0079200852000000000000
B0524303208039S11658114EA0079800858000000000000
B0524343208088S11658087EA0080600870000000000000
B0524383208084S11658017EA0082000883000000000000
B0524423208027S11657997EA0082900890000000000000
B0524463208005S11658048EA0083600898000000000000
B0524503208043S11658083EA0084200903000000000000
B0524543208097S11658067EA0084800910000000000000
B0524583208125S11658002EA0086600931000000000000
B0525023208095S11657931EA0088200943000000000000
B0525063208032S11657910EA0089400957000000000000
B0525103207984S11657948EA0089700957000000000000
B0525143207986S11658010EA0090200964000000000000
B0525183208035S11658035EA0091000976000000000000
B0525223208070S11657979EA0092300989000000000000
B0525263208044S11657904EA0093701006000000000000
B0525303207986S11657894EA0095301023000000000000
B0525343207961S11657945EA0095701025000000000000
B0525383207997S11657988EA0096101031000000000000
B0525423208054S11657965EA0097101043000000000000
B0525463208070S11657888EA0099101062000000000000
B0525503208019S11657832EA0100001071000000000000
B0525543207956S11657849EA0100101073000000000000
B0525583207931S11657919EA0100001074000000000000
B0526023207963S11657982EA0100801085000000000000
B0526063208026S11657976EA0102001098000000000000
B0526103208041S11657900EA0104201121000000000000
B0526143207991S11657845EA0106501142000000000000
B0526183207939S11657870EA0107801151000000000000
B0526223207940S11657930EA0107801149000000000000
B0526263207989S11657961EA0107601148000000000000
B0526303208048S11657927EA0108601159000000000000
B0526343208077S11657852EA0109501171000000000000
B0526383208051S11657776EA0111001194000000000000
B0526423207992S11657770EA0113201218000000000000
B0526463207979S11657822EA0114801229000000000000
B0526503208023S11657842EA0115601239000000000000
B0526543208069S11657797EA0116801253000000000000
B0526583208057S11657723EA0118201269000000000000
B0527023208000S11657697EA0120301285000000000000
B0527063207953S11657736EA0121301292000000000000
B0527103207957S11657796EA0121701301000000000000
B0527143208006S11657819EA0123201314000000000000
B0527183208052S11657776EA0124401324000000000000
B0527223208049S11657698EA0125201333000000000000
B0527263207991S11657663EA0126201347000000000000
B0527303207944S11657702EA0127501361000000000000
B0527343207949S11657759EA0128601373000000000000
B0527383207999S11657781EA0129601377000000000000
B0527423208053S11657748EA0130201387000000000000
B0527463208058S11657671EA0131201396000000000000
B0527503208002S11657624EA0131801403000000000000
B0527543207941S11657647EA0132701414000000000000
B0527583207924S11657710EA0134001426000000000000
B0528023207958S11657762EA0134301429000000000000
B0528063208021S11657768EA0134901433000000000000
B0528103208066S11657712EA0135501442000000000000
B0528143208043S11657633EA0136501453000000000000
B0528183207980S11657618EA0137001458000000000000
B0528223207949S11657675EA0137801471000000000000
B0528263207974S11657735EA0138301472000000000000
B0528303208038S11657749EA0137501462000000000000
B0528343208099S11657698EA0138201473000000000000
B0528383208131S11657612EA0138801480000000000000
B0528423208108S11657523EA0139601487000000000000
B0528463208039S11657480EA0140101493000000000000
B0528503207966S11657497EA0140401498000000000000
B0528543207932S11657566EA0140801503000000000000
B0528583207948S11657641EA0141701512000000000000
B0529023207995S11657693EA0142701523000000000000
B0529063208061S11657698EA0143901535000000000000
B0529103208116S11657653EA0145001548000000000000
B0529143208142S11657575EA0146201558000000000000
B0529183208134S11657488EA0146401558000000000000
B0529223208097S11657407EA0146601560000000000000
B0529263208041S11657335EA0146501558000000000000
B0529303207979S11657257EA0146301560000000000000
B0529343207919S11657174EA0146501555000000000000
B0529383207849S11657081EA0143701519000000000000
B0529423207767S11656977EA0141201501000000000000
B0529463207672S11656892EA0139801488000000000000
B0529503207563S11656849EA0138901483000000000000
B0529543207453S11656827EA0138601483000000000000
B0529583207347S11656818EA0138901486000000000000
B0530023207243S11656817EA0138301469000000000000
B0530063207135S11656821EA0136901464000000000000
B0530103207031S11656830EA0138201475000000000000
B0530143206933S11656840EA0138201469000000000000
B0530183206832S11656854EA0137301463000000000000
B0530223206741S11656873EA0137501460000000000000
B0530263206652S11656897EA0137201461000000000000
B0530303206575S11656931EA0138801484000000000000
B0530343206509S11656971EA0141301501000000000000
B0530383206444S11657008EA0142101507000000000000
B0530423206370S11656995EA0143701523000000000000
B0530463206310S11656948EA0144801533000000000000
B0530503206273S11656882EA0145701544000000000000
B0530543206233S11656813EA0145701542000000000000
B0530583206179S11656750EA0145801548000000000000
B0531023206120S11656693EA0146501550000000000000
B0531063206054S11656643EA0146101540000000000000
B0531103205974S11656610EA0143201499000000000000
B0531143205874S11656600EA0139601477000000000000
B0531183205776S11656594EA0139101477000000000000
B0531223205682S11656593EA0139801482000000000000
B0531263205592S11656591EA0140001481000000000000
B0531303205505S11656591EA0139901483000000000000
B0531343205423S11656591EA0141001494000000000000
B0531383205344S11656589EA0141301495000000000000
B0531423205262S11656583EA0141201497000000000000
B0531463205183S11656579EA0142101510000000000000
B0531503205109S11656575EA0143601526000000000000
B0531543205035S11656568EA0144201526000000000000
B0531583204959S11656562EA0144301525000000000000
B0532023204881S11656557EA0144201523000000000000
B0532063204799S11656554EA0143701516000000000000
B0532103204713S11656550EA0142001496000000000000
B0532143204624S11656545EA0140401487000000000000
B0532183204535S11656540EA0139801479000000000000
B0532223204450S11656535EA0139501470000000000000
B0532263204364S11656528EA0138301454000000000000
B0532303204274S11656515EA0137801459000000000000
B0532343204188S11656503EA0138301465000000000000
B0532383204101S11656492EA0138001458000000000000
B0532423204013S11656481EA0137001446000000000000
B0532463203923S11656472EA0136101440000000000000
B0532503203833S11656463EA0135501434000000000000
B0532543203746S11656454EA0135401435000000000000
B0532583203659S11656448EA0135301429000000000000
B0533023203573S11656441EA0134501422000000000000
B0533063203486S11656438EA0133301406000000000000
B0533103203395S11656436EA0131801391000000000000
B0533143203306S11656444EA0130501378000000000000
B0533183203218S11656481EA0128801358000000000000
B0533223203135S11656536EA0126501334000000000000
B0533263203049S11656594EA0125301323000000000000
B0533303202962S11656649EA0124201313000000000000
B0533343202874S11656697EA0124101312000000000000
B0533383202782S11656723EA0123401300000000000000
B0533423202688S11656740EA0122301288000000000000
B0533463202598S11656761EA0121101288000000000000
B0533503202516S11656787EA0123101313000000000000
B0533543202446S11656818EA0125101326000000000000
B0533583202381S11656852EA0126601340000000000000
B0534023202332S11656899EA0129101369000000000000
B0534063202354S11656951EA0132301401000000000000
B0534103202410S11656944EA0133201403000000000000
B0534143202444S11656878EA0133401410000000000000
B0534183202423S11656809EA0135401431000000000000
B0534223202372S11656778EA0136701447000000000000
B0534263202325S11656800EA0138001463000000000000
B0534303202314S11656853EA0138801467000000000000
B0534343202351S11656897EA0138701466000000000000
B0534383202410S11656900EA0139501470000000000000
B0534423202466S11656867EA0139301471000000000000
B0534463202503S11656804EA0140401491000000000000
B0534503202496S11656732EA0142601512000000000000
B0534543202446S11656714EA0143901522000000000000
B0534583202412S11656760EA0144801533000000000000
B0535023202444S11656809EA0146501550000000000000
B0535063202503S11656799EA0147201557000000000000
B0535103202528S11656728EA0148401580000000000000
B0535143202494S11656674EA0150501596000000000000
B0535183202446S11656688EA0151201599000000000000
B0535223202455S11656749EA0151901612000000000000
B0535263202511S11656760EA0153701628000000000000
B0535303202548S11656702EA0154701638000000000000
B0535343202520S11656636EA0155601647000000000000
B0535383202467S11656635EA0156301656000000000000
B0535423202457S11656691EA0157501668000000000000
B0535463202505S11656722EA0158901683000000000000
B0535503202558S11656692EA0160001694000000000000
B0535543202574S11656623EA0161301708000000000000
B0535583202539S11656568EA0162201715000000000000
B0536023202485S11656570EA0162401715000000000000
B0536063202470S11656628EA0162701718000000000000
B0536103202523S11656661EA0163601731000000000000
B0536143202571S11656617EA0165001746000000000000
B0536183202558S11656546EA0166001752000000000000
B0536223202502S11656511EA0165501742000000000000
B0536263202431S11656485EA0163801728000000000000
B0536303202355S11656464EA0163401729000000000000
B0536343202273S11656453EA0162601710000000000000
B0536383202182S11656445EA0160501687000000000000
B0536423202082S11656438EA0157701665000000000000
B0536463201980S11656438EA0156301653000000000000
B0536503201876S11656440EA0155201644000000000000
B0536543201772S11656444EA0154101632000000000000
B0536583201670S11656449EA0153401626000000000000
B0537023201573S11656453EA0153401624000000000000
B0537063201476S11656454EA0152801611000000000000
B0537103201378S11656454EA0151301596000000000000
B0537143201278S11656458EA0150601589000000000000
B0537183201179S11656462EA0149701586000000000000
B0537223201084S11656466EA0149801584000000000000
B0537263200992S11656470EA0149701582000000000000
B0537303200899S11656475EA0149701576000000000000
B0537343200802S11656476EA0147501554000000000000
B0537383200702S11656474EA0146501548000000000000
B0537423200603S11656471EA0146401547000000000000
B0537463200508S11656468EA0146401552000000000000
B0537503200416S11656467EA0146401544000000000000
B0537543200323S11656464EA0145501541000000000000
B0537583200232S11656466EA0145401539000000000000
B0538023200143S11656471EA0145601536000000000000
B0538063200056S11656474EA0145401527000000000000
B0538103159963S11656472EA0143701504000000000000
B0538143159868S11656472EA0142601493000000000000
B0538183159775S11656472EA0141901486000000000000
B0538223159679S11656471EA0139801458000000000000
B0538263159578S11656471EA0137401434000000000000
B0538303159472S11656472EA0135201418000000000000
B0538343159367S11656472EA0134201413000000000000
B0538383159265S11656471EA0134901429000000000000
B0538423159175S11656468EA0136701446000000000000
B0538463159092S11656474EA0137901455000000000000
B0538503159014S11656488EA0137901458000000000000
B0538543158947S11656528EA0139301472000000000000
B0538583158908S11656592EA0140401477000000000000
B0539023158857S11656646EA0139801466000000000000
B0539063158784S11656676EA0138101445000000000000
B0539103158701S11656689EA0136501436000000000000
B0539143158614S11656696EA0135201419000000000000
B0539183158520S11656700EA0133701403000000000000
B0539223158420S11656698EA0131701382000000000000
B0539263158317S11656692EA0130401374000000000000
B0539303158212S11656687EA0130101367000000000000
B0539343158107S11656682EA0129001362000000000000
B0539383158005S11656684EA0128101352000000000000
B0539423157907S11656691EA0127901350000000000000
B0539463157810S11656691EA0127501344000000000000
B0539503157716S11656685EA0126601331000000000000
B0539543157618S11656691EA0125101318000000000000
B0539583157521S11656706EA0124201310000000000000
B0540023157426S11656723EA0124301317000000000000
B0540063157336S11656744EA0124201306000000000000
B0540103157241S11656761EA0122801291000000000000
B0540143157147S11656778EA0121701290000000000000
B0540183157055S11656799EA0121401277000000000000
B0540223156960S11656814EA0120301267000000000000
B0540263156864S11656822EA0119701264000000000000
B0540303156769S11656823EA0119401259000000000000
B0540343156676S11656828EA0118501251000000000000
B0540383156583S11656831EA0117701247000000000000
B0540423156492S11656834EA0116901237000000000000
B0540463156404S11656847EA0116401236000000000000
B0540503156317S11656871EA0115901221000000000000
B0540543156224S11656890EA0115501224000000000000
B0540583156135S11656903EA0116001232000000000000
B0541023156050S11656917EA0116601237000000000000
B0541063155970S11656942EA0117301250000000000000
B0541103155898S11656965EA0118501255000000000000
B0541143155827S11656995EA0118001237000000000000
B0541183155746S11657025EA0116101224000000000000
B0541223155662S11657047EA0115201216000000000000
B0541263155578S11657066EA0115001216000000000000
B0541303155491S11657078EA0113201189000000000000
B0541343155392S11657082EA0111001170000000000000
B0541383155292S11657081EA0109901161000000000000
B0541423155191S11657072EA0108301138000000000000
B0541463155088S11657055EA0107301134000000000000
B0541503154989S11657033EA0106401124000000000000
B0541543154892S11657008EA0105501114000000000000
B0541583154801S11656986EA0105401114000000000000
B0542023154710S11656969EA0104901111000000000000
B0542063154620S11656958EA0104601104000000000000
B0542103154534S11656953EA0104201107000000000000
B0542143154451S11656952EA0104301108000000000000
B0542183154376S11656957EA0105601129000000000000
B0542223154310S11656962EA0107501139000000000000
B0542263154248S11656971EA0108001139000000000000
B0542303154189S11656991EA0107701137000000000000
B0542343154141S11657035EA0107401134000000000000
B0542383154104S11657092EA0107501135000000000000
B0542423154082S11657157EA0107901138000000000000
B0542463154082S11657224EA0108801146000000000000
B0542503154134S11657235EA0109501152000000000000
B0542543154165S11657172EA0108701140000000000000
B0542583154130S11657098EA0108401144000000000000
B0543023154073S11657055EA0109101152000000000000
B0543063154011S11657065EA0109401152000000000000
B0543103153951S11657096EA0109001140000000000000
B0543143153878S11657111EA0108301143000000000000
B0543183153805S11657117EA0108001134000000000000
B0543223153723S11657112EA0106601121000000000000
B0543263153636S11657103EA0105701114000000000000
B0543303153549S11657094EA0105201108000000000000
B0543343153462S11657085EA0104201100000000000000
B0543383153376S11657073EA0104601105000000000000
B0543423153296S11657052EA0105301115000000000000
B0543463153216S11657033EA0105601113000000000000
B0543503153142S11657034EA0105901124000000000000
B0543543153128S11657090EA0108101151000000000000
B0543583153176S11657107EA0110201163000000000000
B0544023153210S11657048EA0109501147000000000000
B0544063153180S11656965EA0108401144000000000000
B0544103153123S11656906EA0108401145000000000000
B0544143153051S11656869EA0108101140000000000000
B0544183152973S11656843EA0107301134000000000000
B0544223152913S11656870EA0109001147000000000000
B0544263152954S11656901EA0112501175000000000000
B0544303152982S11656844EA0113001176000000015000
B0544343152946S11656784EA0112501177000000015000
B0544383152886S11656771EA0112501179000000015000
B0544423152843S11656812EA0113001190000000000000
B0544463152850S11656869EA0114401210000000000000
B0544503152904S11656880EA0115801219000000000000
B0544543152945S11656818EA0116401224000000000000
B0544583152915S11656752EA0117001235000000000000
B0545023152868S11656771EA0118301248000000000000
B0545063152889S11656814EA0119701262000000000000
B0545103152943S11656787EA0120301263000000000000
B0545143152955S11656708EA0120201264000000000000
B0545183152912S11656645EA0120401269000000000000
B0545223152859S11656648EA0120901276000000000000
B0545263152833S11656700EA0121201280000000000000
B0545303152847S11656758EA0122201290000000000000
B0545343152903S11656770EA0122901300000000000000
B0545383152934S11656704EA0124001305000000000000
B0545423152896S11656637EA0123601302000000000000
B0545463152830S11656601EA0123701308000000000000
B0545503152787S11656633EA0125501335000000000000
B0545543152816S11656672EA0127601345000000000000
B0545583152868S11656635EA0128001349000000000000
B0546023152859S11656555EA0128201352000000000000
B0546063152796S11656545EA0128101352000000015000
B0546103152785S11656607EA0128701362000000015000
B0546143152839S11656606EA0130501381000000015000
B0546183152856S11656531EA0131601391000000000000
B0546223152816S11656474EA0132201400000000000000
B0546263152765S11656480EA0132701401000000000000
B0546303152759S11656535EA0132101392000000000000
B0546343152818S11656545EA0131701393000000000000
B0546383152854S11656474EA0132101398000000000000
B0546423152825S11656390EA0131901395000000000000
B0546463152761S11656336EA0130401372000000000000
B0546503152677S11656306EA0127201341000000000000
B0546543152581S11656298EA0125601326000000000000
B0546583152480S11656307EA0124401317000000000000
B0547023152386S11656318EA0124701315000000000000
B0547063152289S11656325EA0123501300000000000000
B0547103152194S11656338EA0123401309000000000000
B0547143152102S11656353EA0124501322000000000000
B0547183152015S11656353EA0126301338000000015000
B0547223151934S11656355EA0127201348000000000000
B0547263151864S11656359EA0128401356000000000000
B0547303151794S11656364EA0128301353000000000000
B0547343151719S11656362EA0128001347000000000000
B0547383151638S11656355EA0126501330000000000000
B0547423151551S11656354EA0124601312000000000000
B0547463151461S11656358EA0123001292000000000000
B0547503151369S11656367EA0121501281000000000000
B0547543151279S11656379EA0121201282000000000000
B0547583151195S11656390EA0121801288000000000000
B0548023151117S11656401EA0122201284000000000000
B0548063151036S11656411EA0120901268000000000000
B0548103150953S11656422EA0119301251000000000000
B0548143150868S11656433EA0117601233000000000000
B0548183150787S11656437EA0119001254000000000000
B0548223150714S11656436EA0120001259000000000000
B0548263150641S11656436EA0119701252000000000000
B0548303150566S11656435EA0119001244000000000000
B0548343150488S11656436EA0117601228000000000000
B0548383150408S11656442EA0116201217000000000000
B0548423150332S11656451EA0115501209000000000000
B0548463150256S11656463EA0114401196000000000000
B0548503150181S11656483EA0113301182000000000000
B0548543150103S11656501EA0111901170000000000000
B0548583150023S11656518EA0111301161000000000000
B0549023149944S11656536EA0109901145000000000000
B0549063149864S11656554EA0108701138000000000000
B0549103149786S11656574EA0108401138000000000000
B0549143149710S11656591EA0108501135000000000000
B0549183149633S11656610EA0108301133000000000000
B0549223149571S11656650EA0109301151000000000000
B0549263149583S11656700EA0112501181000000000000
B0549303149631S11656669EA0112501175000000000000
B0549343149618S11656591EA0112101173000000000000
B0549383149562S11656549EA0111901175000000000000
B0549423149497S11656552EA0111801171000000000000
B0549463149442S11656591EA0111501175000000000000
B0549503149410S11656648EA0113201197000000000000
B0549543149454S11656667EA0115301214000000000000
B0549583149481S11656597EA0116101214000000015000
B0550023149438S11656545EA0117401231000000015000
B0550063149399S11656576EA0118701243000000015000
B0550103149428S11656618EA0119901260000000015000
B0550143149479S11656584EA0121501271000000015000
B0550183149481S11656506EA0122601287000000015000
B0550223149435S11656470EA0123701298000000015000
B0550263149396S11656501EA0123901300000000015000
B0550303149411S11656550EA0125101316000000000000
B0550343149464S11656531EA0126401327000000015000
B0550383149476S11656449EA0127101336000000015000
B0550423149428S11656392EA0127301335000000015000
B0550463149383S11656427EA0127801344000000000000
B0550503149405S11656480EA0129201363000000000000
B0550543149459S11656470EA0130901379000000000000
B0550583149475S11656396EA0132301392000000015000
B0551023149433S11656342EA0133701406000000000000
B0551063149383S11656355EA0133901404000000000000
B0551103149366S11656412EA0134301413000000000000
B0551143149397S11656462EA0135401426000000000000
B0551183149455S11656458EA0137201447000000000000
B0551223149476S11656390EA0138701460000000000000
B0551263149424S11656351EA0139301469000000015000
B0551303149389S11656389EA0140901488000000000000
B0551343149419S11656429EA0142101495000000000000
B0551383149470S11656383EA0142401502000000015000
B0551423149453S11656307EA0144801527000000015000
B0551463149401S11656311EA0146001545000000015000
B0551503149401S11656364EA0146401543000000015000
B0551543149459S11656379EA0147201557000000015000
B0551583149501S11656319EA0149001573000000015000
B0552023149477S11656253EA0150801592000000015000
B0552063149425S11656253EA0152101605000000015000
B0552103149410S11656305EA0152901613000000000000
B0552143149461S11656323EA0153301616000000000000
B0552183149498S11656256EA0154301628000000015000
B0552223149467S11656195EA0156101646000000015000
B0552263149419S11656215EA0156901654000000015000
B0552303149424S11656273EA0157801665000000015000
B0552343149481S11656286EA0159001675000000015000
B0552383149516S11656221EA0159701684000000015000
B0552423149483S11656160EA0160301699000000015000
B0552463149435S11656180EA0161401708000000015000
B0552503149433S11656241EA0162201716000000015000
B0552543149484S11656271EA0162801718000000015000
B0552583149529S11656214EA0163001712000000015000
B0553023149500S11656129EA0160901688000000015000
B0553063149414S11656081EA0158701676000000015000
B0553103149316S11656071EA0158401680000000015000
B0553143149217S11656082EA0159301691000000015000
B0553183149120S11656103EA0159801691000000000000
B0553223149024S11656128EA0159001677000000000000
B0553263148926S11656156EA0157801669000000000000
B0553303148835S11656186EA0157601662000000000000
B0553343148743S11656215EA0156601649000000000000
B0553383148652S11656242EA0155201635000000000000
B0553423148558S11656269EA0153701620000000000000
B0553463148467S11656298EA0153801627000000000000
B0553503148385S11656311EA0156001651000000000000
B0553543148315S11656310EA0158401672000000000000
B0553583148246S11656310EA0158301665000000000000
B0554023148170S11656316EA0157401663000000000000
B0554063148096S11656323EA0157701665000000000000
B0554103148021S11656332EA0157501659000000000000
B0554143147946S11656345EA0157401660000000000000
B0554183147869S11656358EA0157601667000000000000
B0554223147795S11656373EA0159301686000000000000
B0554263147725S11656390EA0161001699000000000000
B0554303147656S11656407EA0161501698000000000000
B0554343147585S11656422EA0160501686000000000000
B0554383147511S11656438EA0159501678000000000000
B0554423147436S11656462EA0158801667000000000000
B0554463147361S11656488EA0157901653000000000000
B0554503147283S11656516EA0156101631000000000000
B0554543147200S11656546EA0153801612000000000000
B0554583147115S11656570EA0153001607000000000000
B0555023147030S11656584EA0152001595000000000000
B0555063146941S11656600EA0150901583000000000000
B0555103146855S11656617EA0149601573000000000000
B0555143146771S11656637EA0148801565000000000000
B0555183146688S11656663EA0148001554000000000000
B0555223146607S11656693EA0147201543000000000000
B0555263146526S11656736EA0145601523000000000000
B0555303146446S11656783EA0144301513000000000000
B0555343146364S11656821EA0143401508000000000000
B0555383146283S11656858EA0143201509000000000000
B0555423146211S11656904EA0143101504000000000000
B0555463146135S11656944EA0144101521000000000000
B0555503146065S11656978EA0145101526000000000000
B0555543145999S11657022EA0143901510000000000000
B0555583145918S11657061EA0141001479000000000000
B0556023145827S11657094EA0139501463000000000000
B0556063145739S11657129EA0138701469000000000000
B0556103145666S11657174EA0141201502000000000000
B0556143145605S11657216EA0144001521000000000000
B0556183145551S11657259EA0144401522000000000000
B0556223145493S11657304EA0143001493000000000000
B0556263145412S11657347EA0139501466000000000000
B0556303145329S11657393EA0139301477000000000000
B0556343145267S11657449EA0141001492000000000000
B0556383145213S11657501EA0141701493000000000000
B0556423145160S11657553EA0141201482000000000000
B0556463145099S11657606EA0139601463000000000000
B0556503145026S11657655EA0138601460000000000000
B0556543144956S11657701EA0139201472000000000000
B0556583144888S11657742EA0140401480000000000000
B0557023144823S11657783EA0140801481000000000000
B0557063144757S11657823EA0140801480000000000000
B0557103144690S11657863EA0140401476000000000000
B0557143144618S11657902EA0139601463000000000000
B0557183144541S11657940EA0137701441000000000000
B0557223144459S11657982EA0135501422000000000000
B0557263144378S11658028EA0134201408000000000000
B0557303144298S11658073EA0133201396000000000000
B0557343144222S11658115EA0132701391000000000000
B0557383144149S11658167EA0131501373000000000000
B0557423144069S11658226EA0130301371000000000000
B0557463144002S11658288EA0131101380000000000000
B0557503143934S11658346EA0131401383000000000000
B0557543143864S11658392EA0132101394000000000000
B0557583143803S11658437EA0134601423000000000000
B0558023143757S11658485EA0135901425000000000000
B0558063143700S11658534EA0134501409000000000000
B0558103143633S11658582EA0132701383000000000000
B0558143143551S11658626EA0129801366000000000000
B0558183143469S11658667EA0130601382000000000000
B0558223143399S11658698EA0132601390000000000000
B0558263143325S11658726EA0131101367000000000000
B0558303143243S11658755EA0128701341000000000000
B0558343143156S11658786EA0126601330000000000000
B0558383143074S11658823EA0126601330000000000000
B0558423143000S11658871EA0125701314000000000000
B0558463142927S11658928EA0124001299000000000000
B0558503142854S11658990EA0123101295000000000000
B0558543142788S11659053EA0123301296000000000000
B0558583142724S11659116EA0123101288000000000000
B0559023142655S11659176EA0121401271000000000000
B0559063142589S11659241EA0120401265000000000000
B0559103142521S11659306EA0119501251000000000000
B0559143142442S11659354EA0118501242000000000000
B0559183142357S11659387EA0117601236000000000000
B0559223142273S11659418EA0117201226000000000000
B0559263142181S11659440EA0115301202000000000000
B0559303142080S11659447EA0113601188000000000000
B0559343141978S11659436EA0112301176000000000000
B0559383141876S11659422EA0112501179000000000000
B0559423141779S11659405EA0112401178000000000000
B0559463141684S11659383EA0111601165000000000000
B0559503141590S11659353EA0110201154000000000000
B0559543141499S11659317EA0109101145000000000000
B0559583141411S11659280EA0108701138000000000000
B0600023141324S11659246EA0107501122000000000000
B0600063141237S11659211EA0105901105000000000000
B0600103141147S11659176EA0104501093000000000000
B0600143141060S11659139EA0103901088000000000000
B0600183140973S11659103EA0103301082000000000000
B0600223140886S11659067EA0102801076000000000000
B0600263140800S11659033EA0102101071000000000000
B0600303140714S11659001EA0101801066000000000000
B0600343140628S11658971EA0101301060000000000000
B0600383140541S11658949EA0100701056000000000000
B0600423140454S11658927EA0100301054000000000000
B0600463140370S11658914EA0100801062000000000000
B0600503140294S11658936EA0102101072000000000000
B0600543140234S11658979EA0102301071000000000000
B0600583140180S11659029EA0102101071000000000000
B0601023140130S11659080EA0101901069000000000000
B0601063140082S11659131EA0102501078000000000000
B0601103140036S11659178EA0104301095000000000000
B0601143139990S11659150EA0106301117000000000000
B0601183140015S11659089EA0105701103000000000000
B0601223140084S11659105EA0104901104000000000000
B0601263140116S11659161EA0107301131000000000000
B0601303140088S11659200EA0109201142000000000000
B0601343140045S11659165EA0109601148000000000000
B0601383140051S11659097EA0110801161000000000000
B0601423140104S11659062EA0111801172000000000000
B0601463140145S11659092EA0113501189000000000000
B0601503140121S11659136EA0113901187000000000000
B0601543140065S11659128EA0114101194000000000000
B0601583140025S11659071EA0114801200000000000000
B0602023140041S11659001EA0115301209000000000000
B0602063140094S11658963EA0116101213000000000000
B0602103140160S11658962EA0116201216000000000000
B0602143140206S11659002EA0117001222000000000000
B0602183140215S11659064EA0116901219000000000000
B0602223140189S11659126EA0116701218000000000000
B0602263140150S11659181EA0116701221000000000000
B0602303140110S11659236EA0117301235000000000000
B0602343140120S11659291EA0119101255000000000000
B0602383140173S11659282EA0120401257000000000000
B0602423140201S11659211EA0120501261000000000000
B0602463140172S11659142EA0121201274000000000000
B0602503140116S11659127EA0122201285000000000000
B0602543140077S11659168EA0122901291000000000000
B0602583140088S11659223EA0124301308000000000000
B0603023140138S11659228EA0125301314000000000000
B0603063140186S11659179EA0125101313000000000000
B0603103140185S11659102EA0125501320000000000000
B0603143140136S11659058EA0126001326000000000000
B0603183140081S11659081EA0126701333000000000000
B0603223140078S11659146EA0127301345000000000000
B0603263140129S11659171EA0129301360000000000000
B0603303140184S11659132EA0129701361000000000000
B0603343140207S11659055EA0129801365000000000000
B0603383140188S11658981EA0130901377000000000000
B0603423140138S11658937EA0131201378000000000000
B0603463140073S11658911EA0130901373000000000000
B0603503140000S11658884EA0129601361000000000000
B0603543139919S11658868EA0128001340000000000000
B0603583139831S11658858EA0126501329000000000000
B0604023139744S11658850EA0125701325000000000000
B0604063139660S11658845EA0125201314000000000000
B0604103139574S11658843EA0125001317000000015000
B0604143139492S11658842EA0124901314000000000000
B0604183139410S11658843EA0124001299000000000000
B0604223139324S11658846EA0122601289000000000000
B0604263139241S11658847EA0123101297000000000000
B0604303139159S11658850EA0123001294000000000000
B0604343139080S11658867EA0124101311000000000000
B0604383139007S11658892EA0125601331000000000000
B0604423138951S11658937EA0128201352000000000000
B0604463138964S11658996EA0129801367000000000000
B0604503139016S11658980EA0130101365000000000000
B0604543139038S11658906EA0130301373000000000000
B0604583139019S11658829EA0131501386000000000000
B0605023138960S11658791EA0132401392000000000000
B0605063138908S11658823EA0133101403000000000000
B0605103138921S11658884EA0133801407000000000000
B0605143138981S11658884EA0133601409000000000000
B0605183139014S11658819EA0135601432000000000000
B0605223138998S11658746EA0137501445000000000000
B0605263138942S11658710EA0137601443000000000000
B0605303138890S11658743EA0137601447000000000000
B0605343138901S11658808EA0138601458000000000000
B0605383138954S11658828EA0139401466000000000000
B0605423139001S11658782EA0140101475000000000000
B0605463138997S11658708EA0141001485000000000000
B0605503138946S11658654EA0141001480000000000000
B0605543138885S11658667EA0140901483000000000000
B0605583138867S11658732EA0140901478000000000000
B0606023138893S11658794EA0140601481000000000000
B0606063138936S11658846EA0140801483000000000000
B0606103138996S11658841EA0141701494000000000000
B0606143139025S11658775EA0143001508000000000000
B0606183138990S11658711EA0144401520000000000000
B0606223138934S11658734EA0146001537000000000000
B0606263138938S11658793EA0146801546000000000000
B0606303138989S11658798EA0147401549000000000000
B0606343139009S11658734EA0148301564000000015000
B0606383138963S11658680EA0148901577000000015000
B0606423138898S11658691EA0149901585000000015000
B0606463138884S11658756EA0149901579000000015000
B0606503138933S11658790EA0150201593000000000000
B0606543138977S11658754EA0152401613000000015000
B0606583138977S11658687EA0153801625000000015000
B0607023138925S11658643EA0154401635000000015000
B0607063138873S11658668EA0155401644000000000000
B0607103138872S11658726EA0155301638000000000000
B0607143138918S11658771EA0154801637000000000000
B0607183138975S11658759EA0156001651000000000000
B0607223138985S11658687EA0156501653000000000000
B0607263138928S11658639EA0157001664000000000000
B0607303138868S11658668EA0158301676000000000000
B0607343138876S11658728EA0159501687000000000000
B0607383138927S11658728EA0160401694000000000000
B0607423138955S11658664EA0161001699000000000000
B0607463138932S11658591EA0162201713000000000000
B0607503138868S11658565EA0162701721000000000000
B0607543138824S11658608EA0163501726000000000000
B0607583138836S11658664EA0163301722000000000000
B0608023138888S11658651EA0162601713000000000000
B0608063138872S11658576EA0161501700000000000000
B0608103138791S11658533EA0159701683000000000000
B0608143138697S11658509EA0156401645000000000000
B0608183138593S11658511EA0154101629000000000000
B0608223138491S11658524EA0154601637000000015000
B0608263138395S11658542EA0154701635000000015000
B0608303138303S11658564EA0155301645000000015000
B0608343138216S11658587EA0156501651000000000000
B0608383138128S11658611EA0157101654000000000000
B0608423138040S11658635EA0157501663000000000000
B0608463137954S11658663EA0158301669000000000000
B0608503137871S11658690EA0159301678000000000000
B0608543137793S11658724EA0160501691000000000000
B0608583137716S11658760EA0159601676000000000000
B0609023137631S11658793EA0158501665000000000000
B0609063137542S11658823EA0157201653000000000000
B0609103137452S11658850EA0156701646000000000000
B0609143137361S11658875EA0155601633000000000000
B0609183137270S11658898EA0154501621000000000000
B0609223137178S11658919EA0153301610000000000000
B0609263137090S11658937EA0152901608000000000000
B0609303137005S11658954EA0153001607000000000000
B0609343136922S11658970EA0152601603000000000000
B0609383136836S11658983EA0152001596000000000000
B0609423136756S11658993EA0152201595000000000000
B0609463136672S11659003EA0151201585000000000000
B0609503136589S11659012EA0150001569000000000000
B0609543136502S11659019EA0148801562000000000000
B0609583136416S11659028EA0149201569000000000000
B0610023136332S11659037EA0149401569000000000000
B0610063136251S11659054EA0150001578000000000000
B0610103136172S11659072EA0150701584000000000000
B0610143136095S11659090EA0150701578000000000000
B0610183136015S11659106EA0149401569000000000000
B0610223135933S11659119EA0148901561000000000000
B0610263135848S11659132EA0147801552000000000000
B0610303135762S11659145EA0147201547000000000000
B0610343135677S11659159EA0146501538000000000000
B0610383135588S11659172EA0145901531000000000000
B0610423135500S11659184EA0145301528000000000000
B0610463135411S11659193EA0145001520000000000000
B0610503135323S11659200EA0144101512000000000000
B0610543135235S11659207EA0143401504000000000000
B0610583135148S11659213EA0142601496000000000000
B0611023135059S11659218EA0141801486000000000000
B0611063134972S11659220EA0140301474000000000000
B0611103134885S11659222EA0139301462000000000000
B0611143134799S11659224EA0138401454000000000000
B0611183134712S11659223EA0137401438000000000000
B0611223134618S11659219EA0135601416000000000000
B0611263134522S11659213EA0133801402000000000000
B0611303134425S11659204EA0132101385000000000000
B0611343134327S11659193EA0130801370000000000000
B0611383134231S11659183EA0129701359000000000000
B0611423134136S11659171EA0128601343000000000000
B0611463134043S11659158EA0127201331000000000000
B0611503133949S11659148EA0126001315000000000000
B0611543133853S11659139EA0124201292000000000000
B0611583133755S11659126EA0122301275000000000000
B0612023133656S11659106EA0120701257000000000000
B0612063133559S11659087EA0119401250000000000000
B0612103133465S11659064EA0118801244000000000000
B0612143133373S11659042EA0118101237000000000000
B0612183133282S11659027EA0117501230000000000000
B0612223133191S11659014EA0117001225000000000000
B0612263133099S11659001EA0116701219000000000000
B0612303133005S11658990EA0116501220000000000000
B0612343132914S11658977EA0116501224000000000000
B0612383132830S11658962EA0117501238000000000000
B0612423132752S11658947EA0118501243000000000000
B0612463132674S11658932EA0118201234000000000000
B0612503132594S11658916EA0117401231000000000000
B0612543132515S11658914EA0117801237000000000000
B0612583132438S11658924EA0118301240000000000000
B0613023132368S11658957EA0118101241000000000000
B0613063132304S11658998EA0118501247000000000000
B0613103132251S11659051EA0118201236000000000000
B0613143132204S11659114EA0116601216000000000000
B0613183132154S11659179EA0114501190000000000000
B0613223132083S11659236EA0112101165000000000000
B0613263132003S11659279EA0110001149000000000000
B0613303131918S11659313EA0109101139000000000000
B0613343131834S11659341EA0107901124000000000000
B0613383131747S11659366EA0106801113000000000000
B0613423131658S11659387EA0105901107000000000000
B0613463131571S11659408EA0105301099000000000000
B0613503131484S11659430EA0104501090000000000000
B0613543131398S11659451EA0103701083000000000000
B0613583131313S11659469EA0103001074000000000000
B0614023131228S11659487EA0102001065000000000000
B0614063131142S11659508EA0101001057000000000000
B0614103131056S11659527EA0100001048000000000000
B0614143130969S11659547EA0099201040000000000000
B0614183130885S11659569EA0099301043000000000000
B0614223130803S11659592EA0098701037000000000000
B0614263130720S11659614EA0098101031000000000000
B0614303130638S11659638EA0097701027000000000000
B0614343130555S11659660EA0096901016000000000000
B0614383130470S11659681EA0096401015000000000000
B0614423130393S11659707EA0096401015000000000000
B0614463130327S11659752EA0096301014000000000000
B0614503130266S11659804EA0096401019000000000000
B0614543130213S11659859EA0097301026000000000000
B0614583130162S11659916EA0097501024000000000000
B0615023130117S11659984EA0096201008000000000000
B0615063130078S11700056EA0095100998000000000000
B0615103130036S11700129EA0094100983000000000000
B0615143129980S11700192EA0092800968000000000000
B0615183129911S11700238EA0091800957000000000000
B0615223129836S11700266EA0090700951000000000000
B0615263129759S11700277EA0090300946000000000000
B0615303129682S11700284EA0089200933000000000000
B0615343129606S11700288EA0088300926000000000000
B0615383129532S11700289EA0087700920000000000000
B0615423129455S11700290EA0086900913000000000000
B0615463129378S11700298EA0086600911000000000000
B0615503129311S11700331EA0086300907000000000000
B0615543129252S11700377EA0085700899000000000000
B0615583129192S11700423EA0085200887000000000000
B0616023129122S11700449EA0084100877000000000000
B0616063129045S11700455EA0083000864000000000000
B0616103128970S11700466EA0082200864000000000000
B0616143128901S11700496EA0081900855000000000000
B0616183128843S11700540EA0080800844000000000000
B0616223128804S11700600EA0079800832000000000000
B0616263128767S11700663EA0078800822000000000000
B0616303128729S11700726EA0078100812000000000000
B0616343128675S11700777EA0077600810000000000000
B0616383128623S11700830EA0077200807000000000000
B0616423128584S11700897EA0077300809000000000000
B0616463128594S11700959EA0080100842000000000000
B0616503128651S11700920EA0082600849000000000000
B0616543128659S11700832EA0083900857000000015000
B0616583128611S11700778EA0085100868000000015000
B0617023128546S11700795EA0084600873000000015000
B0617063128519S11700855EA0086100898000000015000
B0617103128571S11700869EA0088400921000000015000
B0617143128594S11700797EA0090400939000000015000
B0617183128549S11700749EA0091500954000000015000
B0617223128511S11700784EA0092100965000000015000
B0617263128546S11700822EA0094100989000000015000
B0617303128597S11700782EA0095901006000000015000
B0617343128586S11700704EA0097401024000000015000
B0617383128531S11700684EA0099301044000000000000
B0617423128495S11700725EA0100801062000000000000
B0617463128521S11700769EA0102801079000000000000
B0617503128581S11700751EA0103901092000000000000
B0617543128605S11700671EA0105601110000000000000
B0617583128567S11700598EA0107101129000000000000
B0618023128506S11700583EA0108501148000000000000
B0618063128486S11700632EA0110001164000000000000
B0618103128540S11700647EA0111701179000000000000
B0618143128579S11700580EA0113301199000000000000
B0618183128550S11700505EA0115001212000000000000
B0618223128489S11700502EA0115801223000000000000
B0618263128477S11700558EA0117101241000000000000
B0618303128532S11700567EA0119301264000000000000
B0618343128567S11700500EA0121201281000000000000
B0618383128540S11700422EA0122801297000000000000
B0618423128480S11700416EA0124201311000000000000
B0618463128467S11700472EA0125201321000000000000
B0618503128521S11700484EA0127001339000000000000
B0618543128557S11700415EA0129501368000000000000
B0618583128529S11700337EA0131001381000000000000
B0619023128468S11700338EA0132201396000000000000
B0619063128460S11700396EA0133001405000000000000
B0619103128516S11700400EA0135001429000000000000
B0619143128547S11700323EA0137501454000000000000
B0619183128518S11700245EA0138601463000000000000
B0619223128453S11700238EA0139601480000000000000
B0619263128436S11700293EA0141701498000000000000
B0619303128481S11700316EA0143101517000000000000
B0619343128538S11700279EA0145401542000000000000
B0619383128555S11700195EA0147701563000000000000
B0619423128506S11700134EA0149401580000000000000
B0619463128455S11700160EA0151301601000000000000
B0619503128466S11700212EA0152201608000000000000
B0619543128523S11700194EA0153701625000000000000
B0619583128550S11700111EA0155201642000000000000
B0620023128512S11700038EA0157401666000000000000
B0620063128459S11700043EA0159201680000000000000
B0620103128458S11700095EA0159401674000000000000
B0620143128508S11700107EA0159401678000000000000
B0620183128554S11700041EA0160601694000000000000
B0620223128555S11659951EA0162301721000000000000
B0620263128505S11659907EA0164201734000000000000
B0620303128460S11659941EA0164401729000000000000
B0620343128471S11700000EA0164401732000000000000
B0620383128531S11700016EA0165101744000000000000
B0620423128560S11659941EA0166901768000000000000
B0620463128515S11659885EA0169501797000000000000
B0620503128476S11659916EA0170501800000000000000
B0620543128499S11659967EA0169801795000000000000
B0620583128564S11659954EA0170701809000000000000
B0621023128620S11659895EA0172501829000000000000
B0621063128625S11659812EA0174601850000000000000
B0621103128576S11659769EA0175901861000000000000
B0621143128545S11659813EA0176501867000000000000
B0621183128580S11659863EA0177901884000000000000
B0621223128642S11659833EA0179501905000000000000
B0621263128662S11659747EA0180801914000000000000
B0621303128620S11659674EA0181101914000000000000
B0621343128555S11659672EA0182601940000000000000
B0621383128523S11659720EA0184701956000000000000
B0621423128542S11659772EA0186201973000000000000
B0621463128596S11659755EA0188301994000000000000
B0621503128609S11659678EA0188901995000000000000
B0621543128558S11659631EA0189902008000000000000
B0621583128518S11659672EA0190902017000000000000
B0622023128546S11659714EA0192402034000000000000
B0622063128599S11659678EA0194102050000000000000
B0622103128606S11659600EA0195102059000000000000
B0622143128558S11659549EA0195602064000000000000
B0622183128502S11659561EA0196502070000000000000
B0622223128482S11659614EA0196402073000000000000
B0622263128508S11659665EA0196902078000000000000
B0622303128564S11659675EA0197402083000000000000
B0622343128620S11659622EA0197902092000000000000
B0622383128632S11659538EA0199702115000000000000
B0622423128580S11659493EA0200502119000000000000
B0622463128541S11659532EA0200802124000000000000
B0622503128566S11659586EA0201202126000000000000
B0622543128627S11659578EA0202002138000000000000
B0622583128670S11659508EA0203402149000000000000
B0623023128668S11659418EA0204702161000000000000
B0623063128623S11659353EA0204102153000000000000
B0623103128551S11659330EA0203102133000000000000
B0623143128468S11659317EA0200102106000000000000
B0623183128376S11659306EA0198202083000000000000
B0623223128280S11659301EA0196202068000000000000
B0623263128182S11659302EA0194702050000000000000
B0623303128085S11659305EA0193402044000000000000
B0623343127988S11659304EA0192802032000000000000
B0623383127887S11659306EA0190302006000000000000
B0623423127783S11659317EA0188401986000000000000
B0623463127680S11659326EA0187201972000000000000
B0623503127580S11659332EA0186701970000000000000
B0623543127487S11659344EA0186201962000000000000
B0623583127394S11659362EA0185201946000000000000
B0624023127303S11659383EA0184201946000000000000
B0624063127216S11659406EA0184701947000000000000
B0624103127128S11659430EA0184401938000000000000
B0624143127037S11659445EA0184701951000000000000
B0624183126952S11659460EA0186101965000000000000
B0624223126870S11659471EA0186301963000000000000
B0624263126787S11659484EA0185701955000000000000
B0624303126701S11659497EA0184501933000000000000
B0624343126610S11659512EA0181501903000000000000
B0624383126519S11659526EA0180501905000000000000
B0624423126435S11659536EA0181001908000000000000
B0624463126353S11659544EA0180401898000000000000
B0624503126267S11659547EA0178901883000000000000
B0624543126181S11659552EA0177901876000000000000
B0624583126098S11659560EA0177501871000000000000
B0625023126014S11659564EA0176801864000000000000
B0625063125928S11659570EA0175901857000000000000
B0625103125843S11659579EA0175401850000000000000
B0625143125758S11659586EA0174701841000000000000
B0625183125671S11659591EA0173401820000000000000
B0625223125581S11659597EA0171401802000000000000
B0625263125487S11659601EA0170501799000000000000
B0625303125395S11659608EA0171601811000000000000
B0625343125309S11659613EA0172901824000000000000
B0625383125225S11659618EA0172801818000000000000
B0625423125138S11659625EA0171901803000000000000
B0625463125048S11659625EA0171001804000000000000
B0625503124957S11659629EA0171201806000000000000
B0625543124867S11659636EA0172001820000000000000
B0625583124783S11659642EA0173501835000000000000
B0626023124701S11659646EA0173801833000000000000
B0626063124618S11659648EA0173301829000000000000
B0626103124537S11659652EA0175001851000000000000
B0626143124485S11659699EA0177801879000000000000
B0626183124504S11659753EA0180301902000000000000
B0626223124559S11659753EA0180701900000000000000
B0626263124606S11659694EA0180101898000000000000
B0626303124598S11659610EA0181001912000000000000
B0626343124545S11659569EA0182201925000000000000
B0626383124503S11659605EA0183501938000000000000
B0626423124515S11659669EA0184101942000000000000
B0626463124573S11659688EA0184701950000000000000
B0626503124629S11659643EA0185101955000000000000
B0626543124634S11659564EA0186101966000000000000
B0626583124588S11659508EA0186801972000000000000
B0627023124521S11659509EA0187301977000000000000
B0627063124484S11659568EA0188501990000000000000
B0627103124501S11659634EA0189101994000000000000
B0627143124562S11659655EA0189401996000000000000
B0627183124618S11659603EA0189301997000000000000
B0627223124625S11659513EA0190102007000000000000
B0627263124584S11659447EA0191102019000000000000
B0627303124527S11659451EA0192402031000000000000
B0627343124499S11659510EA0192702033000000000000
B0627383124532S11659561EA0193402043000000000000
B0627423124588S11659527EA0194402052000000000000
B0627463124598S11659448EA0194002048000000000000
B0627503124556S11659386EA0194502055000000000000
B0627543124497S11659369EA0195102057000000000000
B0627583124428S11659376EA0193502029000000000000
B0628023124341S11659387EA0190602012000000000000
B0628063124244S11659402EA0190402013000000000000
B0628103124152S11659418EA0191102021000000000000
B0628143124059S11659434EA0191302016000000000000
B0628183123961S11659447EA0190402007000000000000
B0628223123861S11659465EA0189902003000000000000
B0628263123761S11659482EA0188801988000000000000
B0628303123659S11659500EA0187901983000000000000
B0628343123561S11659516EA0188201990000000000000
B0628383123468S11659530EA0188401985000000000000
B0628423123373S11659540EA0186901967000000000000
B0628463123276S11659552EA0185701957000000000000
B0628503123180S11659564EA0185301951000000000000
B0628543123085S11659577EA0184801948000000000000
B0628583122991S11659591EA0184601947000000000000
B0629023122899S11659604EA0184101941000000000000
B0629063122805S11659616EA0183901938000000000000
B0629103122712S11659630EA0184001933000000000000
B0629143122618S11659646EA0183801932000000000000
B0629183122526S11659661EA0183101920000000000000
B0629223122431S11659675EA0181601908000000000000
B0629263122337S11659691EA0181201901000000000000
B0629303122245S11659705EA0180601898000000000000
B0629343122155S11659720EA0180401894000000000000
B0629383122066S11659734EA0180101887000000000000
B0629423121977S11659748EA0178801875000000000000
B0629463121888S11659764EA0177601864000000000000
B0629503121800S11659779EA0177001859000000000000
B0629543121712S11659794EA0176001847000000000000
B0629583121622S11659804EA0175201838000000000000
B0630023121535S11659821EA0175001838000000000000
B0630063121451S11659843EA0174601829000000000000
B0630103121364S11659863EA0173601821000000000000
B0630143121275S11659881EA0172601808000000000000
B0630183121186S11659898EA0171501801000000000000
B0630223121096S11659917EA0171601804000000000000
B0630263121013S11659943EA0173801827000000000000
B0630303120950S11659993EA0175401844000000000000
B0630343120900S11700050EA0176101847000000000000
B0630383120857S11700112EA0175601836000000000000
B0630423120806S11700177EA0173501811000000000000
B0630463120736S11700229EA0172201804000000000000
B0630503120660S11700268EA0171001794000000000000
B0630543120584S11700299EA0170001788000000000000
B0630583120504S11700324EA0168601770000000000000
B0631023120421S11700340EA0167301760000000000000
B0631063120335S11700353EA0166601753000000000000
B0631103120247S11700363EA0164901733000000000000
B0631143120159S11700380EA0164001723000000000000
B0631183120070S11700398EA0163001713000000000000
B0631223119983S11700416EA0161901701000000000000
B0631263119895S11700435EA0160701688000000000000
B0631303119804S11700455EA0159701678000000000000
B0631343119714S11700475EA0158701665000000000000
B0631383119622S11700491EA0157401656000000000000
B0631423119529S11700502EA0156701650000000000000
B0631463119440S11700514EA0156201645000000000000
B0631503119353S11700526EA0155901641000000000000
B0631543119268S11700541EA0155401634000000000000
B0631583119182S11700558EA0154701628000000000000
B0632023119100S11700574EA0154101617000000000000
B0632063119017S11700589EA0152301598000000000000
B0632103118937S11700604EA0152001602000000000000
B0632143118859S11700627EA0152101600000000000000
B0632183118788S11700669EA0151901597000000000000
B0632223118726S11700721EA0150901584000000000000
B0632263118661S11700778EA0149701569000000000000
B0632303118591S11700832EA0149301578000000000000
B0632343118535S11700891EA0150801588000000000000
B0632383118493S11700951EA0150901586000000000000
B0632423118452S11701016EA0150201575000000000000
B0632463118409S11701083EA0149201565000000000000
B0632503118352S11701150EA0147801548000000000000
B0632543118275S11701206EA0146901545000000000000
B0632583118190S11701246EA0147401556000000000000
B0633023118116S11701291EA0148801569000000000000
B0633063118095S11701364EA0150501584000000000000
B0633103118085S11701440EA0149601560000000000000
B0633143118032S11701510EA0146701532000000000000
B0633183117950S11701553EA0145201527000000000000
B0633223117861S11701568EA0145301529000000000000
B0633263117773S11701571EA0144801517000000000000
B0633303117683S11701572EA0143201502000000000000
B0633343117594S11701572EA0141901488000000000000
B0633383117501S11701567EA0141201484000000000000
B0633423117410S11701564EA0140701478000000000000
B0633463117322S11701564EA0141301491000000000000
B0633503117241S11701573EA0142401499000000000000
B0633543117167S11701606EA0142701502000000000000
B0633583117098S11701649EA0142901503000000000000
B0634023117033S11701697EA0142501496000000000000
B0634063116979S11701759EA0141001478000000000000
B0634103116910S11701817EA0138501452000000000000
B0634143116827S11701856EA0136901438000000000000
B0634183116737S11701872EA0135701424000000000000
B0634223116645S11701874EA0134501412000000000000
B0634263116555S11701870EA0133701404000000000000
B0634303116465S11701865EA0132601392000000000000
B0634343116376S11701856EA0131601382000000000000
B0634383116287S11701840EA0130401373000000000000
B0634423116201S11701826EA0129301360000000000000
B0634463116117S11701814EA0129101362000000000000
B0634503116038S11701804EA0129101360000000000000
B0634543115963S11701794EA0129101363000000000000
B0634583115895S11701783EA0129101359000000000000
B0635023115823S11701765EA0128201342000000000000
B0635063115741S11701748EA0125601313000000000000
B0635103115655S11701733EA0124601301000000000000
B0635143115568S11701722EA0123301291000000000000
B0635183115484S11701716EA0122701281000000000000
B0635223115394S11701720EA0120201254000000000000
B0635263115308S11701741EA0119601254000000000000
B0635303115228S11701774EA0119101245000000000000
B0635343115147S11701811EA0118801245000000000000
B0635383115086S11701863EA0120101256000000000000
B0635423115043S11701924EA0119801248000000000000
B0635463114999S11701992EA0117801217000000000000
B0635503114927S11702044EA0115101196000000000000
B0635543114844S11702071EA0113701188000000000000
B0635583114757S11702078EA0113101178000000000000
B0636023114669S11702070EA0112101171000000000000
B0636063114583S11702060EA0111901168000000000000
B0636103114496S11702048EA0111101158000000000000
B0636143114406S11702034EA0110401153000000000000
B0636183114322S11702034EA0111001162000000000000
B0636223114257S11702074EA0112401178000000000000
B0636263114229S11702145EA0112701171000000000000
B0636303114225S11702229EA0110701148000000000000
B0636343114201S11702312EA0109001137000000000000
B0636383114153S11702379EA0109001140000000000000
B0636423114101S11702443EA0108401127000000000000
B0636463114034S11702489EA0107201118000000000000
B0636503113964S11702509EA0106501110000000000000
B0636543113890S11702508EA0105301094000000000000
B0636583113816S11702493EA0103601077000000000000
B0637023113740S11702470EA0102301064000000000000
B0637063113669S11702448EA0102601074000000000000
B0637103113603S11702428EA0103601085000000000000
B0637143113538S11702431EA0103601080000000000000
B0637183113482S11702474EA0103001073000000000000
B0637223113430S11702530EA0101901061000000000000
B0637263113360S11702559EA0101601063000000000000
B0637303113287S11702561EA0101801061000000000000
B0637343113214S11702554EA0101001050000000000000
B0637383113137S11702533EA0099801036000000000000
B0637423113059S11702500EA0098301024000000000000
B0637463112980S11702470EA0098201027000000000000
B0637503112906S11702443EA0099101041000000000000
B0637543112841S11702454EA0101301065000000000000
B0637583112847S11702508EA0102901082000000000000
B0638023112898S11702503EA0104601095000000000000
B0638063112919S11702439EA0105401099000000000000
B0638103112877S11702386EA0106301112000000000000
B0638143112825S11702408EA0107601126000000000000
B0638183112827S11702461EA0108801139000000000000
B0638223112876S11702473EA0109501146000000000000
B0638263112914S11702421EA0110701158000000000000
B0638303112894S11702355EA0111701166000000000000
B0638343112837S11702334EA0112701180000000000000
B0638383112802S11702376EA0113701194000000000000
B0638423112820S11702421EA0115201205000000000000
B0638463112873S11702416EA0115301206000000000000
B0638503112899S11702352EA0116401222000000000000
B0638543112869S11702290EA0117201232000000015000
B0638583112810S11702281EA0118001242000000015000
B0639023112777S11702326EA0119201256000000015000
B0639063112798S11702370EA0120401266000000000000
B0639103112851S11702368EA0120901267000000000000
B0639143112893S11702312EA0121101269000000000000
B0639183112893S11702230EA0121301274000000000000
B0639223112845S11702170EA0121501279000000000000
B0639263112777S11702165EA0122101285000000000000
B0639303112729S11702205EA0122701292000000000000
B0639343112736S11702264EA0123201293000000000000
B0639383112794S11702266EA0123401295000000000000
B0639423112827S11702199EA0124701310000000000000
B0639463112801S11702127EA0126201327000000000000
B0639503112739S11702106EA0126701329000000000000
B0639543112689S11702144EA0126501326000000000000
B0639583112690S11702207EA0126801332000000000000
B0640023112743S11702216EA0128001345000000000000
B0640063112784S11702156EA0128601352000000000000
B0640103112775S11702074EA0129001358000000000000
B0640143112721S11702026EA0129701364000000000000
B0640183112658S11702039EA0129801363000000000000
B0640223112613S11702093EA0129201358000000000000
B0640263112576S11702158EA0129401364000000000000
B0640303112581S11702221EA0130401370000000000000
B0640343112641S11702207EA0130901379000000000000
B0640383112682S11702136EA0131901387000000000000
B0640423112669S11702057EA0133001401000000000000
B0640463112612S11702032EA0133001396000000000000
B0640503112563S11702077EA0132701397000000000000
B0640543112564S11702140EA0133101402000000000000
B0640583112615S11702162EA0133501406000000000000
B0641023112669S11702110EA0134101413000000000000
B0641063112694S11702031EA0134801423000000000000
B0641103112660S11701963EA0136201437000000000000
B0641143112604S11701941EA0136601432000000000000
B0641183112555S11701976EA0135801427000000000000
B0641223112517S11702034EA0135801428000000000000
B0641263112483S11702093EA0135401421000000000000
B0641303112446S11702153EA0134901415000000000000
B0641343112383S11702184EA0134401409000000000000
B0641383112310S11702165EA0133701400000000000000
B0641423112248S11702101EA0132601391000000000000
B0641463112187S11702028EA0131801384000000000000
B0641503112115S11701974EA0131501379000000000000
B0641543112039S11701931EA0130701373000000000000
B0641583111965S11701895EA0130101363000000000000
B0642023111889S11701865EA0128601346000000000000
B0642063111811S11701844EA0127501334000000000000
B0642103111733S11701843EA0126901332000000000000
B0642143111659S11701841EA0126901329000000000000
B0642183111586S11701836EA0126301320000000000000
B0642223111511S11701826EA0126001318000000000000
B0642263111436S11701823EA0126701331000000000000
B0642303111368S11701824EA0128501350000000000000
B0642343111337S11701867EA0130701370000000000000
B0642383111378S11701897EA0131701381000000000000
B0642423111426S11701858EA0133201397000000000000
B0642463111432S11701787EA0133901401000000000000
B0642503111391S11701733EA0134301406000000000000
B0642543111339S11701741EA0135001415000000000000
B0642583111338S11701794EA0136001432000000000000
B0643023111389S11701805EA0137401443000000000000
B0643063111433S11701753EA0137901447000000000000
B0643103111428S11701679EA0138801457000000000000
B0643143111382S11701640EA0139501461000000000000
B0643183111334S11701663EA0139701465000000000000
B0643223111332S11701720EA0141201482000000000000
B0643263111378S11701745EA0142201492000000000000
B0643303111428S11701707EA0143201502000000000000
B0643343111432S11701635EA0144001510000000000000
B0643383111390S11701586EA0144301512000000000000
B0643423111335S11701599EA0143901510000000000000
B0643463111319S11701658EA0144701526000000000000
B0643503111363S11701694EA0146501540000000000000
B0643543111415S11701654EA0147601553000000000000
B0643583111417S11701580EA0148701562000000000000
B0644023111373S11701533EA0149301567000000000000
B0644063111317S11701544EA0149801574000000000000
B0644103111289S11701593EA0151001589000000000000
B0644143111306S11701646EA0152201600000000000000
B0644183111359S11701649EA0153401614000000000000
B0644223111393S11701589EA0154301628000000000000
B0644263111380S11701515EA0155501635000000000000
B0644303111328S11701480EA0156101643000000000000
B0644343111280S11701508EA0156801653000000000000
B0644383111283S11701563EA0157901661000000000000
B0644423111337S11701577EA0158601669000000000000
B0644463111373S11701520EA0159901685000000000000
B0644503111350S11701455EA0160901693000000000000
B0644543111295S11701451EA0161301696000000000000
B0644583111274S11701503EA0161801703000000000000
B0645023111308S11701553EA0161801703000000000000
B0645063111368S11701546EA0163101721000000000000
B0645103111403S11701488EA0164701734000000000000
B0645143111394S11701412EA0165301737000000000000
B0645183111342S11701385EA0165901748000000000000
B0645223111303S11701424EA0166801757000000000000
B0645263111315S11701482EA0167501763000000000000
B0645303111369S11701503EA0168701777000000000000
B0645343111419S11701464EA0169701785000000000000
B0645383111425S11701389EA0170201792000000000000
B0645423111386S11701334EA0170801804000000000000
B0645463111332S11701323EA0172001815000000000000
B0645503111291S11701354EA0172901822000000000000
B0645543111283S11701408EA0173501824000000000000
B0645583111316S11701462EA0173201822000000000000
B0646023111376S11701485EA0173501828000000000000
B0646063111437S11701454EA0174101833000000000000
B0646103111467S11701381EA0174501837000000000000
B0646143111452S11701306EA0175401850000000000000
B0646183111404S11701281EA0176601866000000000000
B0646223111381S11701326EA0177501871000000000000
B0646263111421S11701367EA0178001876000000000000
B0646303111475S11701334EA0178601881000000000000
B0646343111485S11701263EA0179601893000000000000
B0646383111455S11701207EA0180301899000000000000
B0646423111404S11701195EA0180801904000000000000
B0646463111371S11701232EA0181801915000000000000
B0646503111376S11701285EA0182401918000000000000
B0646543111425S11701313EA0182601922000000000000
B0646583111478S11701284EA0182901925000000000000
B0647023111494S11701213EA0183001927000000000000
B0647063111459S11701160EA0183401931000000000000
B0647103111411S11701167EA0183801934000000000000
B0647143111382S11701219EA0183201928000000000000
B0647183111367S11701287EA0182901924000000000000
B0647223111345S11701359EA0182801924000000000000
B0647263111312S11701429EA0182301914000000000000
B0647303111273S11701503EA0181101905000000000000
B0647343111229S11701579EA0180701903000000000000
B0647383111186S11701651EA0180401899000000000000
B0647423111143S11701727EA0179601883000000000000
B0647463111118S11701819EA0178301877000000000000
B0647503111126S11701918EA0177901871000000000000
B0647543111159S11702013EA0177001861000000000000
B0647583111207S11702101EA0175901851000000000000
B0648023111260S11702187EA0174901839000000000000
B0648063111315S11702273EA0173501826000000000000
B0648103111371S11702357EA0173101825000000000000
B0648143111428S11702437EA0173101822000000000000
B0648183111484S11702516EA0171701807000000000000
B0648223111541S11702594EA0170601795000000000000
B0648263111598S11702673EA0169201780000000000000
B0648303111653S11702755EA0168101771000000000000
B0648343111706S11702834EA0167501767000000000000
B0648383111757S11702907EA0167801770000000000000
B0648423111805S11702979EA0167201761000000000000
B0648463111849S11703053EA0166201746000000000000
B0648503111889S11703131EA0165501742000000000000
B0648543111928S11703210EA0165001734000000000000
B0648583111965S11703289EA0164001722000000000000
B0649023112000S11703371EA0162601708000000000000
B0649063112034S11703453EA0161501696000000000000
B0649103112066S11703535EA0160301681000000000000
B0649143112106S11703616EA0158401659000000000000
B0649183112152S11703695EA0157101647000000000000
B0649223112201S11703770EA0156101633000000000000
B0649263112264S11703835EA0155101624000000000000
B0649303112330S11703898EA0154301621000000000000
B0649343112392S11703963EA0155001627000000000000
B0649383112429S11704047EA0155301630000000000000
B0649423112447S11704134EA0155001624000000000000
B0649463112469S11704222EA0153601606000000000000
B0649503112512S11704305EA0151301583000000000000
B0649543112567S11704381EA0149901566000000000000
B0649583112617S11704466EA0148501555000000000000
B0650023112660S11704550EA0147601545000000000000
B0650063112702S11704635EA0145801526000000000000
B0650103112743S11704717EA0144701518000000000000
B0650143112788S11704792EA0144501516000000000000
B0650183112836S11704861EA0144301514000000000000
B0650223112886S11704929EA0143901509000000000000
B0650263112931S11705002EA0142901499000000000000
B0650303112976S11705080EA0141601481000000000000
B0650343113018S11705167EA0139401460000000000000
B0650383113049S11705255EA0139101461000000000000
B0650423113068S11705342EA0138801454000000000000
B0650463113093S11705425EA0137901443000000000000
B0650503113128S11705503EA0136901431000000000000
B0650543113168S11705583EA0135301415000000000000
B0650583113196S11705666EA0135001414000000000000
B0651023113213S11705746EA0135001412000000000000
B0651063113231S11705827EA0134001396000000000000
B0651103113258S11705913EA0132401379000000000000
B0651143113288S11706001EA0130601361000000000000
B0651183113321S11706090EA0129601353000000000000
B0651223113369S11706166EA0128801344000000000000
B0651263113426S11706239EA0127201329000000000000
B0651303113479S11706313EA0126201321000000000000
B0651343113529S11706390EA0125701319000000000000
B0651383113574S11706467EA0125601314000000000000
B0651423113622S11706545EA0125301316000000000000
B0651463113666S11706620EA0126401334000000000000
B0651503113707S11706681EA0129201365000000000000
B0651543113763S11706675EA0131901384000000000000
B0651583113772S11706603EA0132701390000000000000
B0652023113722S11706554EA0132901395000000000000
B0652063113662S11706564EA0133401399000000000000
B0652103113634S11706614EA0134001405000000000000
B0652143113662S11706655EA0134601412000000000000
B0652183113712S11706630EA0135501420000000000000
B0652223113720S11706556EA0135601419000000000000
B0652263113672S11706500EA0135401419000000000000
B0652303113610S11706504EA0136401431000000000000
B0652343113570S11706551EA0136701431000000000000
B0652383113542S11706616EA0136501431000000000000
B0652423113543S11706684EA0137301446000000000000
B0652463113600S11706671EA0138701455000000000000
B0652503113608S11706590EA0139201466000000000000
B0652543113557S11706539EA0140601476000000000000
B0652583113501S11706555EA0141201485000000000000
B0653023113486S11706610EA0141901486000000000000
B0653063113522S11706651EA0141901491000000000000
B0653103113582S11706655EA0142601497000000000000
B0653143113612S11706588EA0143801511000000000000
B0653183113573S11706530EA0144601520000000000000
B0653223113518S11706546EA0144801523000000000000
B0653263113512S11706599EA0145801531000000000000
B0653303113558S11706612EA0146401537000000000000
B0653343113592S11706547EA0146701540000000000000
B0653383113562S11706478EA0147601552000000000000
B0653423113509S11706481EA0148201552000000000000
B0653463113501S11706534EA0148401558000000000000
B0653503113547S11706552EA0149101565000000000000
B0653543113591S11706502EA0149701570000000000000
B0653583113581S11706426EA0150401578000000000000
B0654023113530S11706398EA0150701578000000000000
B0654063113490S11706439EA0150001573000000000000
B0654103113484S11706507EA0149201565000000000000
B0654143113492S11706581EA0148901558000000000000
B0654183113506S11706658EA0148301550000000000000
B0654223113530S11706734EA0147601547000000000000
B0654263113557S11706811EA0148101560000000000000
B0654303113600S11706867EA0150701594000000000000
B0654343113644S11706827EA0153501615000000000000
B0654383113612S11706753EA0154601633000000000000
B0654423113553S11706754EA0157101657000000000000
B0654463113536S11706803EA0158701668000000000000
B0654503113582S11706833EA0159301677000000000000
B0654543113623S11706784EA0161601706000000000000
B0654583113601S11706714EA0163501719000000000000
B0655023113542S11706690EA0164601733000000000000
B0655063113499S11706729EA0166201749000000000000
B0655103113509S11706784EA0167701764000000000000
B0655143113560S11706796EA0168701782000000000000
B0655183113597S11706740EA0170501803000000000000
B0655223113578S11706666EA0172501824000000000000
B0655263113519S11706643EA0174201837000000000000
B0655303113482S11706685EA0175301847000000000000
B0655343113503S11706734EA0176501864000000000000
B0655383113555S11706720EA0178201878000000000000
B0655423113566S11706642EA0179601895000000000000
B0655463113518S11706594EA0181501914000000000000
B0655503113467S11706616EA0182401919000000000000
B0655543113473S11706675EA0183101928000000000000
B0655583113529S11706697EA0184401946000000000000
B0656023113583S11706662EA0186201969000000000000
B0656063113596S11706589EA0187701980000000000000
B0656103113553S11706526EA0188501988000000000000
B0656143113488S11706529EA0189201993000000000000
B0656183113457S11706585EA0189702001000000000000
B0656223113488S11706632EA0191302019000000000000
B0656263113536S11706597EA0193802044000000000000
B0656303113527S11706525EA0195202059000000000000
B0656343113470S11706490EA0195702061000000000000
B0656383113421S11706524EA0196102069000000000000
B0656423113431S11706582EA0196902074000000000000
B0656463113493S11706584EA0197402084000000000000
B0656503113517S11706512EA0199502113000000000000
B0656543113466S11706465EA0202002130000000000000
B0656583113419S11706500EA0202802135000000000000
B0657023113441S11706555EA0203202141000000000000
B0657063113503S11706538EA0204702162000000000000
B0657103113518S11706459EA0206902185000000000000
B0657143113473S11706398EA0208902202000000000000
B0657183113410S11706404EA0209902209000000000000
B0657223113388S11706464EA0210102212000000000000
B0657263113427S11706511EA0210702219000000000000
B0657303113491S11706510EA0212302240000000000000
B0657343113523S11706448EA0215302269000000000000
B0657383113490S11706383EA0216202278000000000000
B0657423113426S11706381EA0217502295000000000000
B0657463113400S11706432EA0219002307000000000000
B0657503113432S11706474EA0219702311000000000000
B0657543113493S11706460EA0220802331000000000000
B0657583113526S11706398EA0223202356000000000000
B0658023113499S11706331EA0225302373000000000000
B0658063113439S11706317EA0226202379000000000000
B0658103113404S11706364EA0226702386000000000000
B0658143113435S11706413EA0227302393000000000000
B0658183113496S11706399EA0228502408000000000000
B0658223113525S11706331EA0230202433000000000000
B0658263113497S11706261EA0231902448000000000000
B0658303113439S11706238EA0233002455000000000000
B0658343113401S11706281EA0233502461000000000000
B0658383113428S11706334EA0233902465000000000000
B0658423113490S11706346EA0234802477000000000000
B0658463113539S11706299EA0236802499000000000000
B0658503113534S11706226EA0238502513000000000000
B0658543113482S11706181EA0238902515000000000000
B0658583113421S11706190EA0239002518000000000000
B0659023113397S11706246EA0240202530000000000000
B0659063113428S11706291EA0240602537000000000000
B0659103113487S11706274EA0241402546000000000000
B0659143113521S11706204EA0242302556000000000000
B0659183113487S11706136EA0243602568000000000000
B0659223113430S11706144EA0243902568000000000000
B0659263113412S11706209EA0243502557000000000000
B0659303113440S11706292EA0241202535000000000000
B0659343113490S11706382EA0239902530000000000000
B0659383113542S11706477EA0240302533000000000000
B0659423113579S11706578EA0240502537000000000000
B0659463113609S11706681EA0240302530000000000000
B0659503113633S11706790EA0239202508000000000000
B0659543113651S11706905EA0237502495000000000000
B0659583113686S11707014EA0235902479000000000000
B0700023113737S11707121EA0234602467000000000000
B0700063113779S11707228EA0233802462000000000000
B0700103113822S11707331EA0234202470000000000000
B0700143113867S11707426EA0234502469000000000000
B0700183113908S11707522EA0233202450000000000000
B0700223113948S11707621EA0232902452000000000000
B0700263113993S11707713EA0233402462000000000000
B0700303114033S11707802EA0233502457000000000000
B0700343114073S11707891EA0232702442000000000000
B0700383114115S11707985EA0230902423000000000000
B0700423114158S11708083EA0228902406000000000000
B0700463114203S11708181EA0227902400000000000000
B0700503114242S11708281EA0227902396000000000000
B0700543114281S11708383EA0227102387000000000000
B0700583114323S11708487EA0225302365000000000000
B0701023114359S11708597EA0223702343000000000000
B0701063114398S11708709EA0222402340000000000000
B0701103114445S11708811EA0223102347000000000000
B0701143114483S11708911EA0222602341000000000000
B0701183114517S11709008EA0222002337000000000000
B0701223114548S11709104EA0221502328000000000000
B0701263114575S11709201EA0220402319000000000000
B0701303114598S11709298EA0219702309000000000000
B0701343114618S11709397EA0218902298000000000000
B0701383114632S11709500EA0217502282000000000000
B0701423114656S11709602EA0216502272000000000000
B0701463114682S11709706EA0215102250000000000000
B0701503114708S11709814EA0214002247000000000000
B0701543114730S11709919EA0213702242000000000000
B0701583114731S11710023EA0212702230000000000000
B0702023114738S11710129EA0211102213000000000000
B0702063114761S11710233EA0209802209000000000000
B0702103114792S11710330EA0209902205000000000000
B0702143114825S11710429EA0209102195000000000000
B0702183114860S11710530EA0208002183000000000000
B0702223114899S11710632EA0207302181000000000000
B0702263114938S11710729EA0206802171000000000000
B0702303114979S11710828EA0205802161000000000000
B0702343115021S11710927EA0205102152000000000000
B0702383115050S11711034EA0204402147000000000000
B0702423115060S11711138EA0204302147000000000000
B0702463115066S11711236EA0204502150000000000000
B0702503115074S11711331EA0204102137000000000000
B0702543115092S11711433EA0202102119000000000000
B0702583115113S11711535EA0201102110000000000000
B0703023115134S11711641EA0200202106000000000000
B0703063115156S11711746EA0199902100000000000000
B0703103115169S11711853EA0199302093000000000000
B0703143115173S11711959EA0198602084000000000000
B0703183115174S11712066EA0198002083000000000000
B0703223115174S11712170EA0198002084000000000000
B0703263115172S11712272EA0198202087000000000000
B0703303115168S11712376EA0197602069000000000000
B0703343115164S11712483EA0196002064000000000000
B0703383115161S11712591EA0196102065000000000000
B0703423115170S11712691EA0198202104000000000000
B0703463115180S11712774EA0201802137000000000000
B0703503115190S11712846EA0204502160000000000000
B0703543115200S11712915EA0205302155000000000000
B0703583115215S11712997EA0203002121000000000000
B0704023115233S11713094EA0199502087000000000000
B0704063115258S11713197EA0197302072000000000000
B0704103115284S11713299EA0196102056000000000000
B0704143115311S11713402EA0194902047000000000000
B0704183115337S11713506EA0193802032000000000000
B0704223115364S11713614EA0192302020000000000000
B0704263115393S11713718EA0192502021000000000000
B0704303115421S11713823EA0191002002000000000000
B0704343115449S11713929EA0190301996000000000000
B0704383115476S11714034EA0189301983000000000000
B0704423115498S11714144EA0187601970000000000000
B0704463115524S11714251EA0187501974000000000000
B0704503115555S11714351EA0187601971000000000000
B0704543115586S11714450EA0186701960000000000000
B0704583115620S11714549EA0185901955000000000000
B0705023115651S11714644EA0186101961000000000000
B0705063115683S11714735EA0186601963000000000000
B0705103115720S11714819EA0187101974000000000000
B0705143115749S11714898EA0188501989000000000000
B0705183115770S11714974EA0188701972000000000000
B0705223115796S11715061EA0185301937000000000000
B0705263115827S11715157EA0182901916000000000000
B0705303115863S11715256EA0181701902000000000000
B0705343115898S11715355EA0181401914000000000000
B0705383115931S11715446EA0183401936000000000000
B0705423115966S11715529EA0184801943000000000000
B0705463115999S11715616EA0184801945000000000000
B0705503116035S11715701EA0185901960000000000000
B0705543116082S11715759EA0188001981000000000000
B0705583116134S11715717EA0189501984000000000000
B0706023116104S11715641EA0188101977000000000000
B0706063116038S11715624EA0189701999000000000000
B0706103115988S11715658EA0191802017000000000000
B0706143115984S11715721EA0193002025000000000000
B0706183116010S11715789EA0193302032000000000000
B0706223116041S11715859EA0194202042000000000000
B0706263116075S11715929EA0194802045000000000000
B0706303116112S11716006EA0192802018000000000000
B0706343116152S11716100EA0189801987000000000000
B0706383116191S11716198EA0188201978000000000000
B0706423116229S11716297EA0187701975000000000000
B0706463116265S11716396EA0187501975000000000000
B0706503116304S11716495EA0187401965000000000000
B0706543116343S11716596EA0185501947000000000000
B0706583116383S11716700EA0183901926000000000000
B0707023116422S11716807EA0183101928000000000000
B0707063116450S11716912EA0183801930000000000000
B0707103116483S11717016EA0184301941000000000000
B0707143116503S11717115EA0186001960000000000000
B0707183116511S11717207EA0187901980000000000000
B0707223116511S11717294EA0189101989000000000000
B0707263116515S11717383EA0188701978000000000000
B0707303116526S11717478EA0187601973000000000000
B0707343116542S11717571EA0187801976000000000000
B0707383116555S11717664EA0187701973000000000000
B0707423116572S11717758EA0187001964000000000000
B0707463116590S11717855EA0186701961000000000000
B0707503116607S11717950EA0186201958000000000000
B0707543116628S11718043EA0185001941000000000000
B0707583116665S11718142EA0183601925000000000000
B0708023116707S11718239EA0182501920000000000000
B0708063116749S11718336EA0182401918000000000000
B0708103116793S11718431EA0182001914000000000000
B0708143116836S11718524EA0181601909000000000000
B0708183116875S11718618EA0181401906000000000000
B0708223116898S11718715EA0180801896000000000000
B0708263116901S11718817EA0179101884000000000000
B0708303116894S11718917EA0178401874000000000000
B0708343116885S11719017EA0177801870000000000000
B0708383116877S11719114EA0177601866000000000000
B0708423116868S11719211EA0176901855000000000000
B0708463116855S11719309EA0175701847000000000000
B0708503116838S11719403EA0176501860000000000000
B0708543116824S11719486EA0178401877000000000000
B0708583116823S11719568EA0179401891000000000000
B0709023116837S11719638EA0181901916000000000000
B0709063116850S11719705EA0183201924000000000000
B0709103116816S11719759EA0184501942000000000000
B0709143116763S11719745EA0187101970000000000000
B0709183116745S11719676EA0188001978000000000000
B0709223116780S11719615EA0188901989000000000000
B0709263116833S11719606EA0189701994000000000000
B0709303116873S11719641EA0190001994000000000000
B0709343116894S11719706EA0189801993000000000000
B0709383116902S11719779EA0190902007000000000000
B0709423116866S11719823EA0192702029000000000000
B0709463116818S11719807EA0193802033000000000000
B0709503116782S11719741EA0193502031000000000000
B0709543116760S11719660EA0194202042000000000000
B0709583116762S11719576EA0195302056000000000000
B0710023116810S11719528EA0196702075000000000000
B0710063116858S11719549EA0198102082000000000000
B0710103116857S11719606EA0198502090000000000000
B0710143116808S11719614EA0200202107000000000000
B0710183116777S11719551EA0201102111000000000000
B0710223116797S11719474EA0202002122000000000000
B0710263116850S11719434EA0202702128000000000000
B0710303116910S11719441EA0203002130000000000000
B0710343116958S11719481EA0202602127000000000000
B0710383116992S11719545EA0201102107000000000000
B0710423117031S11719630EA0199402098000000000000
B0710463117070S11719723EA0198602089000000000000
B0710503117110S11719818EA0197502078000000000000
B0710543117150S11719913EA0196902075000000000000
B0710583117188S11720005EA0197102076000000000000
B0711023117226S11720096EA0197202082000000000000
B0711063117263S11720182EA0197802082000000000000
B0711103117301S11720270EA0196902069000000000000
B0711143117340S11720362EA0195102050000000000000
B0711183117383S11720457EA0193802038000000000000
B0711223117427S11720550EA0192802029000000000000
B0711263117481S11720639EA0191502014000000000000
B0711303117539S11720729EA0189901995000000000000
B0711343117599S11720819EA0188401985000000000000
B0711383117657S11720906EA0188401989000000000000
B0711423117715S11720989EA0188201982000000000000
B0711463117774S11721073EA0186701964000000000000
B0711503117835S11721163EA0185001946000000000000
B0711543117899S11721253EA0183901935000000000000
B0711583117962S11721346EA0182301920000000000000
B0712023118027S11721439EA0181201912000000000000
B0712063118090S11721526EA0181101908000000000000
B0712103118150S11721616EA0180401900000000000000
B0712143118205S11721709EA0179401890000000000000
B0712183118258S11721801EA0178501880000000000000
B0712223118310S11721895EA0177201865000000000000
B0712263118365S11721983EA0176301860000000000000
B0712303118420S11722063EA0176301862000000000000
B0712343118476S11722141EA0176101854000000000000
B0712383118528S11722223EA0175101843000000000000
B0712423118580S11722307EA0174201832000000000000
B0712463118631S11722394EA0173401829000000000000
B0712503118678S11722479EA0173001820000000000000
B0712543118725S11722567EA0171501805000000000000
B0712583118773S11722653EA0171001801000000000000
B0713023118818S11722740EA0170301792000000000000
B0713063118866S11722826EA0169601781000000000000
B0713103118917S11722910EA0168801772000000000000
B0713143118963S11722997EA0167801762000000000000
B0713183119007S11723087EA0166501753000000000000
B0713223119048S11723173EA0166201747000000000000
B0713263119091S11723256EA0165501741000000000000
B0713303119132S11723338EA0164501729000000000000
B0713343119160S11723428EA0163601720000000000000
B0713383119187S11723517EA0162801712000000000000
B0713423119219S11723606EA0162101701000000000000
B0713463119254S11723693EA0161101693000000000000
B0713503119290S11723780EA0160201682000000000000
B0713543119328S11723868EA0158801669000000000000
B0713583119364S11723957EA0157901662000000000000
B0714023119402S11724041EA0157701658000000000000
B0714063119437S11724126EA0156901647000000000000
B0714103119471S11724212EA0155701632000000000000
B0714143119507S11724299EA0154201619000000000000
B0714183119546S11724385EA0153301611000000000000
B0714223119585S11724470EA0152201591000000000000
B0714263119619S11724564EA0150101571000000000000
B0714303119645S11724663EA0148501557000000000000
B0714343119674S11724758EA0147801552000000000000
B0714383119705S11724849EA0147301543000000000000
B0714423119744S11724934EA0146801538000000000000
B0714463119788S11725020EA0145601524000000000000
B0714503119837S11725106EA0144201510000000000000
B0714543119889S11725192EA0143301498000000000000
B0714583119935S11725282EA0144001519000000000000
B0715023119969S11725365EA0146101538000000000000
B0715063120008S11725438EA0146901547000000000000
B0715103120051S11725496EA0148801569000000000000
B0715143120092S11725548EA0150001575000000000000
B0715183120136S11725600EA0149501565000000000000
B0715223120191S11725633EA0150201581000000000000
B0715263120230S11725581EA0151401586000000000000
B0715303120201S11725522EA0150201569000000000000
B0715343120146S11725536EA0148501553000000000000
B0715383120108S11725592EA0147801549000000000000
B0715423120095S11725661EA0147701545000000000000
B0715463120097S11725737EA0146501534000000000000
B0715503120129S11725811EA0145201518000000000000
B0715543120182S11725876EA0144101513000000000000
B0715583120243S11725933EA0144001514000000000000
B0716023120304S11725990EA0143501506000000000000
B0716063120372S11726049EA0142501494000000000000
B0716103120442S11726110EA0141601490000000000000
B0716143120512S11726172EA0140401473000000000000
B0716183120582S11726241EA0139301466000000000000
B0716223120649S11726309EA0138701461000000000000
B0716263120711S11726377EA0138201452000000000000
B0716303120771S11726450EA0137101437000000000000
B0716343120831S11726526EA0135701428000000000000
B0716383120892S11726596EA0135401425000000000000
B0716423120954S11726663EA0134201406000000000000
B0716463121014S11726739EA0132001379000000000000
B0716503121072S11726822EA0129401357000000000000
B0716543121127S11726905EA0129101354000000000000
B0716583121183S11726987EA0127801340000000000000
B0717023121240S11727063EA0127401340000000000000
B0717063121297S11727130EA0128001342000000000000
B0717103121355S11727195EA0127001326000000000000
B0717143121413S11727261EA0126301327000000000000
B0717183121466S11727323EA0126901331000000000000
B0717223121520S11727385EA0126901332000000000000
B0717263121572S11727447EA0127501340000000000000
B0717303121618S11727512EA0128401350000000000000
B0717343121663S11727577EA0129401361000000000000
B0717383121703S11727640EA0130001367000000000000
B0717423121741S11727705EA0129901362000000000000
B0717463121795S11727750EA0130301371000000000000
B0717503121845S11727711EA0131901388000000000000
B0717543121833S11727632EA0132701398000000000000
B0717583121781S11727580EA0133701412000000000000
B0718023121732S11727596EA0135301423000000000000
B0718063121729S11727651EA0134801414000000000000
B0718103121759S11727707EA0133701402000000000000
B0718143121802S11727761EA0132901396000000000000
B0718183121855S11727805EA0133001403000000000000
B0718223121915S11727839EA0133301403000000000000
B0718263121985S11727848EA0133501404000000000000
B0718303122059S11727836EA0133501400000000000000
B0718343122106S11727768EA0133901411000000000000
B0718383122084S11727684EA0135201424000000000000
B0718423122028S11727679EA0137101445000000000000
B0718463122046S11727733EA0137901448000000000000
B0718503122106S11727710EA0138601457000000000000
B0718543122106S11727632EA0139301465000000000000
B0718583122046S11727597EA0140301478000000000000
B0719023122010S11727642EA0142701501000000000000
B0719063122042S11727685EA0144001515000000000000
B0719103122099S11727674EA0143201502000000000000
B0719143122141S11727605EA0143101503000000000000
B0719183122124S11727527EA0144001521000000000000
B0719223122068S11727527EA0145901540000000000000
B0719263122066S11727581EA0147301549000000000000
B0719303122118S11727599EA0147801551000000000000
B0719343122164S11727547EA0148101556000000000000
B0719383122159S11727473EA0148801560000000000000
B0719423122111S11727430EA0149201568000000000000
B0719463122081S11727471EA0150601581000000000000
B0719503122127S11727497EA0151001587000000000000
B0719543122179S11727450EA0151101587000000000000
B0719583122171S11727375EA0151901597000000000000
B0720023122122S11727337EA0152901608000000000000
B0720063122068S11727350EA0154201622000000000000
B0720103122049S11727399EA0155501641000000000000
B0720143122077S11727442EA0157001651000000000000
B0720183122136S11727440EA0156801645000000000000
B0720223122180S11727375EA0156401644000000000000
B0720263122187S11727289EA0156501647000000000000
B0720303122137S11727256EA0157801663000000000000
B0720343122098S11727295EA0158801672000000000000
B0720383122112S11727349EA0159901685000000000000
B0720423122168S11727347EA0160801690000000000000
B0720463122207S11727284EA0160801690000000000000
B0720503122185S11727213EA0160801689000000000000
B0720543122128S11727200EA0161201693000000000000
B0720583122096S11727250EA0161901704000000000000
B0721023122092S11727316EA0162101700000000000000
B0721063122099S11727391EA0161501693000000000000
B0721103122120S11727468EA0159601665000000000000
B0721143122150S11727554EA0156801639000000000000
B0721183122188S11727637EA0155901640000000000000
B0721223122229S11727716EA0155701633000000000000
B0721263122281S11727789EA0154501620000000000000
B0721303122346S11727856EA0153201607000000000000
B0721343122415S11727921EA0152701609000000000000
B0721383122483S11727983EA0153601620000000000000
B0721423122538S11728052EA0154801633000000000000
B0721463122577S11728127EA0155901643000000000000
B0721503122610S11728205EA0156101641000000000000
B0721543122652S11728278EA0156901660000000000000
B0721583122700S11728327EA0159301683000000000000
B0722023122743S11728285EA0163101722000000000000
B0722063122723S11728213EA0164501732000000000000
B0722103122662S11728188EA0164601733000000000000
B0722143122621S11728230EA0166101748000000000000
B0722183122635S11728278EA0167201756000000000000
B0722223122688S11728278EA0167301756000000000000
B0722263122723S11728209EA0167301759000000000000
B0722303122703S11728129EA0168701777000000000000
B0722343122644S11728110EA0170401793000000000000
B0722383122609S11728156EA0170901793000000000000
B0722423122640S11728200EA0171501803000000000000
B0722463122692S11728169EA0172601817000000000000
B0722503122697S11728090EA0173401823000000000000
B0722543122645S11728034EA0174401834000000000000
B0722583122587S11728039EA0175701846000000000000
B0723023122556S11728087EA0176401853000000000000
B0723063122561S11728153EA0175801844000000000000
B0723103122582S11728234EA0174301831000000000000
B0723143122609S11728324EA0174801844000000000000
B0723183122639S11728408EA0176001851000000000000
B0723223122669S11728496EA0174201822000000000000
B0723263122700S11728595EA0172301808000000000000
B0723303122727S11728690EA0172401812000000000000
B0723343122757S11728784EA0172601823000000000000
B0723383122779S11728867EA0175301851000000000000
B0723423122798S11728951EA0175301832000000000000
B0723463122821S11729045EA0173401823000000000000
B0723503122844S11729139EA0173101820000000000000
B0723543122869S11729232EA0172801815000000000000
B0723583122892S11729326EA0172501813000000000000
B0724023122920S11729418EA0172001804000000000000
B0724063122947S11729510EA0171601802000000000000
B0724103122976S11729599EA0172401816000000000000
B0724143122999S11729683EA0173301819000000000000
B0724183123022S11729768EA0173501836000000000000
B0724223123041S11729839EA0176601863000000000000
B0724263123078S11729891EA0178201875000000000000
B0724303123136S11729869EA0179501889000000000000
B0724343123151S11729795EA0180201890000000000000
B0724383123111S11729725EA0180001887000000000000
B0724423123047S11729687EA0180101892000000000000
B0724463122983S11729700EA0180701898000000000000
B0724503122935S11729741EA0181401903000000000000
B0724543122918S11729802EA0181201898000000000000
B0724583122929S11729873EA0179801884000000000000
B0725023122947S11729954EA0178501869000000000000
B0725063122974S11730040EA0176701845000000000000
B0725103123007S11730128EA0175301839000000000000
B0725143123037S11730214EA0174301825000000000000
B0725183123067S11730302EA0172801808000000000000
B0725223123099S11730389EA0171601800000000000000
B0725263123136S11730474EA0171301800000000000000
B0725303123171S11730552EA0173301828000000000000
B0725343123199S11730623EA0175301845000000000000
B0725383123229S11730696EA0175201841000000000000
B0725423123264S11730773EA0174901838000000000000
B0725463123294S11730856EA0175101841000000000000
B0725503123311S11730940EA0176601867000000000000
B0725543123323S11731021EA0178001871000000000000
B0725583123337S11731107EA0176801849000000000000
B0726023123354S11731203EA0175301843000000000000
B0726063123373S11731297EA0175601845000000000000
B0726103123393S11731392EA0174801833000000000000
B0726143123411S11731490EA0172901808000000000000
B0726183123433S11731593EA0172001811000000000000
B0726223123450S11731689EA0172201811000000000000
B0726263123466S11731785EA0171801806000000000000
B0726303123481S11731879EA0171301797000000000000
B0726343123501S11731971EA0170101784000000000000
B0726383123523S11732064EA0169101768000000000000
B0726423123565S11732149EA0167501755000000000000
B0726463123617S11732233EA0165701737000000000000
B0726503123672S11732315EA0164901734000000000000
B0726543123727S11732393EA0164701732000000000000
B0726583123784S11732471EA0163801719000000000000
B0727023123844S11732549EA0162201704000000000000
B0727063123901S11732629EA0161201690000000000000
B0727103123958S11732714EA0159601674000000000000
B0727143124014S11732802EA0158001659000000000000
B0727183124069S11732892EA0157301656000000000000
B0727223124121S11732981EA0157101655000000000000
B0727263124173S11733066EA0157101656000000000000
B0727303124224S11733147EA0157301656000000000000
B0727343124274S11733226EA0158101669000000000000
B0727383124321S11733300EA0159501681000000000000
B0727423124361S11733369EA0161101706000000000000
B0727463124390S11733438EA0163701728000000000000
B0727503124439S11733464EA0165801752000000000000
B0727543124475S11733409EA0167801767000000000000
B0727583124450S11733340EA0168901780000000000000
B0728023124393S11733318EA0170301796000000000000
B0728063124348S11733355EA0171601807000000000000
B0728103124350S11733412EA0172601818000000000000
B0728143124398S11733438EA0173701833000000000000
B0728183124450S11733403EA0175301848000000000000
B0728223124464S11733329EA0176101859000000000000
B0728263124429S11733269EA0177501877000000000000
B0728303124372S11733266EA0178901890000000000000
B0728343124341S11733316EA0179801896000000000000
B0728383124365S11733368EA0180601906000000000000
B0728423124420S11733361EA0181901921000000000000
B0728463124451S11733297EA0183401935000000000000
B0728503124432S11733227EA0184501947000000000000
B0728543124376S11733210EA0185601959000000000000
B0728583124342S11733260EA0186701968000000000000
B0729023124365S11733312EA0187401980000000000000
B0729063124420S11733305EA0188201986000000000000
B0729103124446S11733232EA0188501991000000000000
B0729143124419S11733161EA0189402003000000000000
B0729183124360S11733149EA0191102022000000000000
B0729223124325S11733193EA0192702033000000000000
B0729263124345S11733241EA0193002037000000000000
B0729303124403S11733241EA0193602045000000000000
B0729343124447S11733184EA0194102048000000000000
B0729383124443S11733098EA0194202051000000000000
B0729423124386S11733054EA0195102065000000000000
B0729463124335S11733088EA0196802083000000000000
B0729503124350S11733139EA0198702101000000000000
B0729543124400S11733143EA0199602108000000000000
B0729583124445S11733091EA0200002115000000000000
B0730023124449S11733015EA0201102127000000000000
B0730063124408S11732965EA0202602143000000000000
B0730103124354S11732962EA0203802153000000000000
B0730143124316S11732998EA0205202169000000000000
B0730183124319S11733046EA0205902174000000000000
B0730223124363S11733072EA0206202179000000000000
B0730263124416S11733050EA0207102192000000000000
B0730303124439S11732981EA0207902199000000000000
B0730343124417S11732913EA0209102213000000000000
B0730383124364S11732892EA0210202222000000000000
B0730423124321S11732928EA0210702228000000000000
B0730463124324S11732983EA0211902239000000000000
B0730503124371S11733004EA0212802248000000000000
B0730543124415S11732957EA0213202253000000000000
B0730583124413S11732877EA0214202265000000000000
B0731023124368S11732829EA0215102276000000000000
B0731063124312S11732838EA0216202285000000000000
B0731103124283S11732890EA0216902288000000000000
B0731143124300S11732949EA0216502282000000000000
B0731183124329S11733017EA0215802278000000000000
B0731223124354S11733091EA0216002283000000000000
B0731263124374S11733169EA0216402285000000000000
B0731303124391S11733254EA0215702276000000000000
B0731343124406S11733349EA0215202273000000000000
B0731383124420S11733442EA0215402278000000000000
B0731423124432S11733531EA0215502275000000000000
B0731463124441S11733620EA0215002267000000000000
B0731503124452S11733715EA0212702238000000000000
B0731543124476S11733815EA0209702211000000000000
B0731583124508S11733912EA0209002211000000000000
B0732023124545S11734003EA0209202211000000000000
B0732063124584S11734094EA0209602216000000000000
B0732103124618S11734184EA0210702232000000000000
B0732143124645S11734275EA0211502229000000000000
B0732183124671S11734371EA0210302216000000000000
B0732223124697S11734467EA0210202228000000000000
B0732263124723S11734560EA0212602243000000000000
B0732303124741S11734655EA0212302240000000000000
B0732343124761S11734751EA0212002235000000000000
B0732383124780S11734851EA0211202225000000000000
B0732423124802S11734951EA0210702222000000000000
B0732463124826S11735052EA0210102216000000000000
B0732503124852S11735154EA0209702215000000000000
B0732543124876S11735253EA0210002217000000000000
B0732583124902S11735346EA0210302217000000000000
B0733023124931S11735437EA0210702213000000000000
B0733063124961S11735528EA0209502209000000000000
B0733103124988S11735618EA0209802216000000000000
B0733143125015S11735705EA0209902213000000000000
B0733183125037S11735795EA0208802201000000000000
B0733223125066S11735883EA0207802186000000000000
B0733263125093S11735973EA0206902185000000000000
B0733303125115S11736059EA0206402176000000000000
B0733343125140S11736144EA0205602165000000000000
B0733383125158S11736229EA0205702171000000000000
B0733423125174S11736313EA0205302160000000000000
B0733463125191S11736403EA0203902147000000000000
B0733503125213S11736494EA0203302146000000000000
B0733543125235S11736585EA0202602135000000000000
B0733583125258S11736676EA0201602124000000000000
B0734023125284S11736766EA0201002119000000000000
B0734063125310S11736855EA0200202105000000000000
B0734103125353S11736940EA0198202086000000000000
B0734143125413S11737017EA0197002078000000000000
B0734183125478S11737089EA0196502074000000000000
B0734223125542S11737161EA0196102070000000000000
B0734263125608S11737236EA0194902059000000000000
B0734303125676S11737309EA0194502054000000000000
B0734343125743S11737383EA0193902044000000000000
B0734383125812S11737455EA0193502046000000000000
B0734423125879S11737525EA0193602045000000000000
B0734463125945S11737595EA0192702034000000000000
B0734503126014S11737664EA0192002029000000000000
B0734543126080S11737732EA0191902032000000000000
B0734583126141S11737801EA0192302035000000000000
B0735023126202S11737867EA0192202026000000000000
B0735063126266S11737936EA0190802012000000000000
B0735103126332S11738006EA0189702000000000000000
B0735143126400S11738077EA0188501989000000000000
B0735183126466S11738152EA0187301976000000000000
B0735223126532S11738230EA0186001965000000000000
B0735263126597S11738308EA0185201954000000000000
B0735303126659S11738387EA0183901941000000000000
B0735343126722S11738465EA0183201936000000000000
B0735383126786S11738540EA0182501929000000000000
B0735423126850S11738614EA0181601915000000000000
B0735463126915S11738688EA0180501906000000000000
B0735503126980S11738763EA0179401893000000000000
B0735543127042S11738839EA0178401887000000000000
B0735583127101S11738913EA0178101881000000000000
B0736023127159S11738986EA0177101867000000000000
B0736063127212S11739064EA0175201845000000000000
B0736103127266S11739143EA0174101840000000000000
B0736143127318S11739219EA0173501830000000000000
B0736183127372S11739294EA0172401821000000000000
B0736223127426S11739366EA0171901818000000000000
B0736263127478S11739436EA0171601812000000000000
B0736303127530S11739506EA0170901806000000000000
B0736343127579S11739572EA0171101809000000000000
B0736383127628S11739640EA0170201794000000000000
B0736423127676S11739715EA0169001784000000000000
B0736463127725S11739793EA0168401784000000000000
B0736503127774S11739870EA0168901789000000000000
B0736543127822S11739946EA0169201788000000000000
B0736583127873S11740020EA0168401783000000000000
B0737023127927S11740090EA0168501785000000000000
B0737063127986S11740155EA0169001798000000000000
B0737103128037S11740212EA0171701824000000000000
B0737143128091S11740232EA0174301849000000000000
B0737183128135S11740185EA0175901859000000000000
B0737223128134S11740107EA0176501867000000000000
B0737263128094S11740056EA0177101871000000000000
B0737303128038S11740047EA0177201874000000000000
B0737343127991S11740073EA0177901881000000000000
B0737383127972S11740124EA0177701874000000000000
B0737423127985S11740185EA0176601863000000000000
B0737463128009S11740247EA0176501863000000000000
B0737503128042S11740302EA0177401880000000000000
B0737543128102S11740302EA0179201896000000000000
B0737583128130S11740222EA0180101906000000000000
B0738023128091S11740168EA0181001915000000000000
B0738063128044S11740183EA0181101913000000000000
B0738103128026S11740238EA0181301919000000000000
B0738143128040S11740295EA0182901941000000000000
B0738183128098S11740291EA0185201958000000000000
B0738223128126S11740212EA0185801964000000000000
B0738263128087S11740152EA0186201969000000000000
