ACAM4N6
HFDTE080320
HFFXA050
HFPLTPILOT:JOHN WELSH              
HFGTYGLIDERTYPE:HORNET      
HFGIDGLIDERID:VH-GMY      
HFDTM100GPSDATUM:
HFRFWFIRMWAREVERSION:F2.6
HFRHWHARDWAREVERSION:300 Series Version 2
HFFTYFRTYPE:CAMBRIDGE AERO INSTRUMENTS, 302+
HFGPS:GARMIN,LVS-25,12,18000
HFPRSPRESSALTSENSOR:INTERSEMA, MS5534-AP, 20000
I033638FXA3941ENL4247REX
LCAMSBVER:5FWVER:F26300
C080320044711080320000102
C0000000N00000000WTAKEOFF     
C3207549S11656849EBEVERLEY AF 
C3053283S11642765EWongan Hills
C3136216S11753732EDoodlakine  
C3207549S11656849EBEVERLEY AF 
C0000000N00000000WLANDING     
B0447423207338S11656857EA0019200207000000000000
B0447443207338S11656857EA0019200207000000000000
B0447463207338S11656857EA0019200207000000000000
B0447483207338S11656857EA0019200207000000000000
B0447503207338S11656857EA0019200207000000000000
B0447523207338S11656857EA0019200207000000000000
B0447543207338S11656857EA0019200207000000000000
B0447563207338S11656857EA0019200207000000000000
B0447583207338S11656857EA0019200207000000000000
B0448003207338S11656857EA0019200207000000000000
B0448023207338S11656857EA0019200207000000000000
B0448043207338S11656857EA0019200207000000000000
B0448063207338S11656857EA0019300207000000000000
B0448083207339S11656858EA0019200207000000000000
B0448103207339S11656858EA0019200207000000000000
B0448153207355S11656873EA0019300207000000000000
B0448193207386S11656895EA0019300208000000000000
B0448233207432S11656925EA0019300208000000000000
B0448273207489S11656960EA0019100209000000000000
B0448313207554S11657000EA0019400213000000000000
B0448353207619S11657051EA0019900216000000000000
B0448393207680S11657103EA0021300234000000000000
B0448433207740S11657153EA0022900254000000000000
B0448473207797S11657203EA0024800273000000000000
B0448513207856S11657248EA0026600292000000000000
B0448553207910S11657303EA0027900300000000000000
B0448593207967S11657355EA0028900315000000000000
B0449033208023S11657402EA0030200334000000000000
B0449073208080S11657449EA0032200355000000000000
B0449113208140S11657495EA0033600368000000000000
B0449153208200S11657537EA0035100386000000000000
B0449193208264S11657576EA0037400404000000000000
B0449233208327S11657615EA0039300424000000000000
B0449273208389S11657654EA0041600451000000000000
B0449313208450S11657694EA0044100478000000000000
B0449353208513S11657728EA0046000503000000000000
B0449393208580S11657762EA0048300524000000000000
B0449433208645S11657803EA0050300547000000000000
B0449473208703S11657855EA0052200565000000000000
B0449513208746S11657920EA0054600593000000000000
B0449553208772S11657993EA0057200622000000000000
B0449593208790S11658071EA0059500640000000000000
B0450033208799S11658154EA0060700654000000000000
B0450073208802S11658240EA0062400668000000000000
B0450113208802S11658330EA0063300677000000000000
B0450153208801S11658418EA0064700691000000000000
B0450193208794S11658505EA0066100705000000000000
B0450233208784S11658593EA0067600722000000000000
B0450273208768S11658680EA0069400740000000000000
B0450313208754S11658769EA0070500750000000000000
B0450353208741S11658858EA0071700766000000000000
B0450393208727S11658942EA0073500783000000000000
B0450433208711S11659024EA0074600798000000000000
B0450473208695S11659105EA0076000813000000000000
B0450513208676S11659185EA0077200821000000000000
B0450553208636S11659257EA0078000832000000000000
B0450593208590S11659315EA0078500832000000000000
B0451033208534S11659357EA0078100826000000000000
B0451073208465S11659365EA0077700821000000000000
B0451113208394S11659334EA0077200819000000000000
B0451153208330S11659282EA0077200820000000000000
B0451193208269S11659219EA0077100818000000000000
B0451233208201S11659181EA0077100819000000000000
B0451273208151S11659210EA0077200815000000000000
B0451313208161S11659263EA0076600805000000000000
B0451353208214S11659267EA0075700802000000015000
B0451393208259S11659211EA0075600801000000015000
B0451433208272S11659129EA0075100792000000015000
B0451473208252S11659045EA0074100784000000015000
B0451513208216S11658964EA0072500762000000015000
B0451553208169S11658885EA0070700745000000015000
B0451593208130S11658798EA0069500735000000000000
B0452033208103S11658704EA0068800725000000000000
B0452073208087S11658612EA0068200722000000000000
B0452113208073S11658522EA0067800716000000000000
B0452153208053S11658435EA0067100707000000000000
B0452193208031S11658347EA0066000694000000000000
B0452233208015S11658256EA0064900686000000000000
B0452273208006S11658165EA0064500683000000000000
B0452313208008S11658076EA0064500684000000000000
B0452353208041S11658004EA0064600685000000000000
B0452393208095S11657974EA0065100694000000000000
B0452433208136S11657998EA0065800703000000000000
B0452473208143S11658050EA0066700707000000000000
B0452513208103S11658089EA0066800710000000000000
B0452553208041S11658076EA0067000709000000000000
B0452593207997S11658015EA0067100713000000015000
B0453033207965S11657941EA0067300713000000000000
B0453073207909S11657894EA0067600718000000000000
B0453113207853S11657913EA0067600714000000015000
B0453153207845S11657967EA0067400714000000015000
B0453193207879S11658001EA0067300711000000015000
B0453233207926S11658023EA0066400701000000000000
B0453273207975S11658048EA0065900694000000000000
B0453313208035S11658057EA0065000689000000000000
B0453353208088S11658018EA0065900704000000000000
B0453393208082S11657939EA0067100708000000015000
B0453433208021S11657936EA0066100692000000015000
B0453473208023S11657995EA0066100705000000015000
B0453513208073S11657980EA0067400718000000015000
B0453553208077S11657905EA0068200726000000015000
B0453593208019S11657871EA0068600725000000015000
B0454033207986S11657913EA0068400726000000015000
B0454073208008S11657957EA0068500729000000015000
B0454113208053S11657923EA0069100733000000015000
B0454153208032S11657842EA0069600738000000015000
B0454193207967S11657831EA0069400736000000015000
B0454233207936S11657880EA0069500740000000015000
B0454273207954S11657933EA0069900743000000015000
B0454313208004S11657950EA0069700742000000015000
B0454353208047S11657901EA0070800757000000015000
B0454393208004S11657844EA0072100770000000015000
B0454433207960S11657876EA0073100780000000015000
B0454473207980S11657918EA0073700785000000015000
B0454513208027S11657901EA0074500791000000015000
B0454553208032S11657829EA0075200794000000015000
B0454593207974S11657796EA0075900804000000015000
B0455033207935S11657841EA0076700812000000015000
B0455073207965S11657888EA0077000814000000015000
B0455113208019S11657871EA0077600823000000015000
B0455153208035S11657793EA0078300832000000015000
B0455193207992S11657724EA0079000841000000015000
B0455233207930S11657728EA0080200859000000015000
B0455273207918S11657780EA0081400865000000015000
B0455313207963S11657787EA0082000874000000015000
B0455353207988S11657723EA0082900882000000015000
B0455393207950S11657658EA0083800893000000015000
B0455433207891S11657658EA0084800903000000015000
B0455473207865S11657707EA0085600911000000015000
B0455513207895S11657746EA0085800911000000015000
B0455553207943S11657716EA0086400918000000015000
B0455593207939S11657638EA0087700930000000015000
B0456033207882S11657598EA0088600942000000015000
B0456073207826S11657621EA0089200950000000015000
B0456113207820S11657676EA0089800956000000015000
B0456153207866S11657697EA0090200957000000015000
B0456193207911S11657658EA0091200969000000015000
B0456233207918S11657586EA0092700984000000015000
B0456273207875S11657533EA0093900996000000015000
B0456313207820S11657540EA0094701003000000015000
B0456353207797S11657589EA0095201009000000015000
B0456393207818S11657637EA0095701010000000015000
B0456433207869S11657634EA0095901013000000015000
B0456473207897S11657573EA0096301021000000015000
B0456513207874S11657501EA0097201031000000015000
B0456553207813S11657486EA0098101043000000015000
B0456593207787S11657538EA0099501053000000015000
B0457033207823S11657573EA0100001055000000015000
B0457073207867S11657528EA0100301063000000015000
B0457113207850S11657452EA0101401078000000015000
B0457153207787S11657424EA0102301089000000015000
B0457193207745S11657464EA0103801103000000015000
B0457233207757S11657523EA0104201103000000015000
B0457273207809S11657540EA0104301103000000015000
B0457313207856S11657490EA0104101103000000015000
B0457353207858S11657407EA0104601110000000015000
B0457393207804S11657352EA0105801128000000015000
B0457433207745S11657365EA0107301141000000015000
B0457473207726S11657419EA0108101149000000015000
B0457513207758S11657464EA0108301146000000015000
B0457553207813S11657456EA0108701152000000015000
B0457593207848S11657397EA0109501158000000015000
B0458033207840S11657317EA0109101151000000015000
B0458073207781S11657263EA0108201143000000015000
B0458113207713S11657278EA0108701160000000015000
B0458153207679S11657338EA0110201173000000015000
B0458193207698S11657399EA0111001177000000015000
B0458233207750S11657425EA0111101178000000015000
B0458273207810S11657399EA0111801186000000015000
B0458313207849S11657337EA0112101181000000015000
B0458353207844S11657254EA0111701179000000015000
B0458393207789S11657202EA0111701179000000015000
B0458433207726S11657215EA0110801169000000015000
B0458473207697S11657276EA0110601175000000015000
B0458513207707S11657342EA0111401183000000015000
B0458553207757S11657365EA0112301195000000015000
B0458593207810S11657330EA0112701188000000015000
B0459033207839S11657254EA0112001179000000015000
B0459073207822S11657169EA0111401174000000015000
B0459113207765S11657111EA0111001173000000015000
B0459153207694S11657072EA0110501164000000015000
B0459193207618S11657043EA0109701157000000015000
B0459233207533S11657020EA0110101167000000000000
B0459273207449S11657017EA0110701170000000000000
B0459313207363S11657013EA0111501183000000000000
B0459353207286S11656981EA0112601195000000000000
B0459393207212S11656943EA0112801189000000000000
B0459433207133S11656910EA0111601169000000000000
B0459473207046S11656886EA0109601151000000000000
B0459513206957S11656867EA0108601144000000000000
B0459553206869S11656856EA0108001140000000000000
B0459593206782S11656844EA0107401132000000000000
B0500033206693S11656838EA0106001116000000000000
B0500073206605S11656835EA0105001106000000000000
B0500113206518S11656839EA0104901110000000000000
B0500153206435S11656848EA0105201115000000000000
B0500193206354S11656858EA0105401113000000000000
B0500233206273S11656873EA0105001108000000000000
B0500273206195S11656888EA0104701108000000000000
B0500313206117S11656903EA0104701103000000000000
B0500353206038S11656914EA0103901096000000000000
B0500393205955S11656922EA0103501093000000000000
B0500433205873S11656931EA0102801085000000000000
B0500473205792S11656948EA0102101078000000000000
B0500513205718S11656977EA0101801075000000000000
B0500553205651S11657020EA0101501071000000000000
B0500593205590S11657070EA0100701060000000000000
B0501033205532S11657126EA0099801052000000000000
B0501073205478S11657183EA0099401046000000000000
B0501113205427S11657243EA0098801045000000000000
B0501153205387S11657306EA0098801043000000000000
B0501193205367S11657374EA0098301038000000000000
B0501233205371S11657445EA0097301028000000000000
B0501273205384S11657515EA0096701019000000000000
B0501313205402S11657582EA0095901010000000000000
B0501353205434S11657642EA0095101003000000000000
B0501393205483S11657681EA0094200993000000000000
B0501433205538S11657711EA0093900998000000000000
B0501473205591S11657737EA0094901009000000000000
B0501513205642S11657720EA0096001018000000000000
B0501553205640S11657646EA0096301016000000000000
B0501593205581S11657606EA0096101012000000000000
B0502033205527S11657638EA0095901012000000000000
B0502073205517S11657703EA0096001014000000000000
B0502113205545S11657753EA0096301015000000000000
B0502153205596S11657737EA0096201013000000015000
B0502193205604S11657658EA0095501005000000000000
B0502233205551S11657589EA0095001000000000000000
B0502273205475S11657564EA0094801002000000000000
B0502313205399S11657540EA0095101003000000000000
B0502353205323S11657516EA0094500994000000000000
B0502393205246S11657486EA0093600985000000000000
B0502433205172S11657452EA0093000977000000000000
B0502473205100S11657420EA0092100968000000000000
B0502513205027S11657385EA0091200958000000000000
B0502553204953S11657356EA0090100944000000000000
B0502593204876S11657329EA0088600931000000000000
B0503033204798S11657299EA0087200913000000000000
B0503073204715S11657280EA0085300896000000000000
B0503113204633S11657256EA0084400887000000000000
B0503153204555S11657213EA0083600881000000000000
B0503193204489S11657146EA0083200876000000000000
B0503233204439S11657055EA0082900873000000000000
B0503273204408S11656955EA0083200878000000000000
B0503313204375S11656858EA0083400880000000000000
B0503353204329S11656776EA0083500879000000000000
B0503393204268S11656711EA0083000874000000000000
B0503433204197S11656659EA0082600870000000000000
B0503473204126S11656657EA0082800874000000000000
B0503513204104S11656713EA0083100880000000000000
B0503553204114S11656774EA0083500880000000000000
B0503593204151S11656821EA0083200878000000000000
B0504033204197S11656856EA0082800869000000000000
B0504073204251S11656886EA0081500856000000000000
B0504113204308S11656916EA0080700850000000000000
B0504153204362S11656948EA0080500851000000000000
B0504193204416S11656978EA0081100859000000000000
B0504233204470S11656960EA0082600874000000000000
B0504273204463S11656883EA0082900864000000000000
B0504313204400S11656867EA0082100864000000000000
B0504353204370S11656919EA0082300866000000000000
B0504393204414S11656942EA0082900872000000000000
B0504433204444S11656871EA0083200876000000000000
B0504473204413S11656797EA0083500880000000000000
B0504513204355S11656795EA0083800883000000000000
B0504553204336S11656848EA0083500880000000000000
B0504593204379S11656869EA0084100886000000000000
B0505033204413S11656804EA0084600893000000000000
B0505073204399S11656719EA0085000898000000000000
B0505113204346S11656676EA0085600907000000000000
B0505153204309S11656710EA0086100906000000000000
B0505193204334S11656749EA0086100911000000000000
B0505233204382S11656732EA0087000922000000000000
B0505273204401S11656658EA0087900924000000000000
B0505313204365S11656592EA0088100925000000000000
B0505353204313S11656607EA0087900921000000000000
B0505393204326S11656658EA0087800926000000000000
B0505433204379S11656648EA0088500936000000015000
B0505473204392S11656570EA0089400939000000000000
B0505513204344S11656514EA0089600940000000000000
B0505553204299S11656542EA0089300936000000000000
B0505593204321S11656592EA0089100938000000000000
B0506033204379S11656572EA0089900948000000000000
B0506073204412S11656501EA0090400949000000000000
B0506113204424S11656415EA0089200933000000000000
B0506153204429S11656320EA0088300922000000000000
B0506193204429S11656223EA0087400915000000000000
B0506233204431S11656123EA0087000912000000000000
B0506273204442S11656026EA0086600909000000000000
B0506313204460S11655933EA0086400907000000000000
B0506353204473S11655838EA0086200908000000000000
B0506393204476S11655744EA0086600912000000000000
B0506433204433S11655670EA0087000911000000000000
B0506473204369S11655649EA0086200902000000000000
B0506513204320S11655687EA0085300890000000000000
B0506553204287S11655747EA0084000883000000000000
B0506593204253S11655808EA0084000891000000000000
B0507033204190S11655801EA0085500913000000000000
B0507073204182S11655727EA0087500928000000000000
B0507113204231S11655707EA0087800922000000000000
B0507153204242S11655757EA0088000936000000000000
B0507193204190S11655774EA0089500946000000000000
B0507233204149S11655712EA0090600960000000000000
B0507273204169S11655636EA0091400963000000000000
B0507313204221S11655613EA0091800968000000000000
B0507353204257S11655647EA0091900967000000000000
B0507393204257S11655704EA0091500962000000000000
B0507433204221S11655755EA0091900971000000000000
B0507473204160S11655757EA0092900981000000000000
B0507513204112S11655705EA0093500988000000000000
B0507553204112S11655627EA0094000991000000000000
B0507593204161S11655574EA0094000990000000000000
B0508033204208S11655599EA0094601008000000000000
B0508073204200S11655649EA0096401019000000000000
B0508113204147S11655655EA0097301026000000000000
B0508153204101S11655596EA0097401022000000000000
B0508193204127S11655525EA0098001040000000000000
B0508233204164S11655553EA0099501051000000000000
B0508273204119S11655584EA0100201054000000000000
B0508313204063S11655538EA0100201060000000000000
B0508353204060S11655452EA0101201075000000000000
B0508393204102S11655397EA0102401083000000000000
B0508433204157S11655396EA0103501096000000000000
B0508473204182S11655441EA0104501102000000000000
B0508513204152S11655488EA0105201111000000000000
B0508553204089S11655484EA0105801117000000000000
B0508593204048S11655415EA0106201127000000000000
B0509033204066S11655337EA0107501139000000000000
B0509073204121S11655318EA0108501149000000000000
B0509113204152S11655358EA0109701158000000000000
B0509153204122S11655402EA0110601166000000000000
B0509193204057S11655395EA0111201170000000000000
B0509233204015S11655322EA0112001184000000000000
B0509273204036S11655241EA0112901190000000015000
B0509313204097S11655213EA0113401197000000000000
B0509353204141S11655246EA0114601208000000000000
B0509393204128S11655304EA0115301217000000000000
B0509433204066S11655319EA0115901220000000000000
B0509473203998S11655274EA0116101224000000000000
B0509513204000S11655189EA0117501247000000000000
B0509553204058S11655170EA0118601244000000000000
B0509593204093S11655222EA0118301249000000000000
B0510033204071S11655285EA0119601262000000000000
B0510073204019S11655328EA0120001259000000000000
B0510113203950S11655326EA0119701256000000000000
B0510153203879S11655293EA0118601238000000000000
B0510193203800S11655253EA0116801223000000000000
B0510233203718S11655211EA0116101225000000000000
B0510273203636S11655170EA0117201236000000000000
B0510313203556S11655131EA0118401249000000000000
B0510353203480S11655127EA0120201264000000000000
B0510393203456S11655180EA0120801268000000000000
B0510433203503S11655187EA0119701250000000000000
B0510473203536S11655107EA0118501246000000000000
B0510513203533S11655011EA0118801253000000000000
B0510553203497S11654920EA0120001264000000000000
B0510593203425S11654893EA0121201279000000000000
B0511033203406S11654946EA0122401291000000000000
B0511073203450S11654954EA0123101294000000015000
B0511113203477S11654885EA0123501300000000015000
B0511153203450S11654808EA0124301314000000015000
B0511193203385S11654799EA0125301317000000015000
B0511233203363S11654854EA0125301319000000015000
B0511273203402S11654880EA0126001332000000015000
B0511313203446S11654846EA0127101339000000015000
B0511353203459S11654776EA0127601343000000015000
B0511393203425S11654704EA0128001346000000000000
B0511433203360S11654659EA0127401331000000000000
B0511473203280S11654620EA0125801317000000000000
B0511513203191S11654585EA0125001309000000000000
B0511553203100S11654546EA0124001297000000000000
B0511593203010S11654501EA0123201290000000000000
B0512033202918S11654455EA0122401281000000000000
B0512073202826S11654410EA0121601276000000000000
B0512113202735S11654365EA0121601275000000000000
B0512153202646S11654317EA0121101271000000000000
B0512193202561S11654269EA0120701267000000000000
B0512233202474S11654222EA0120201262000000000000
B0512273202385S11654180EA0119601254000000000000
B0512313202297S11654137EA0119001247000000000000
B0512353202208S11654096EA0118601249000000000000
B0512393202124S11654057EA0119501256000000000000
B0512433202041S11654017EA0119701258000000000000
B0512473201957S11653978EA0120101262000000000000
B0512513201873S11653939EA0120301264000000000000
B0512553201791S11653896EA0119701253000000000000
B0512593201707S11653850EA0118201240000000000000
B0513033201622S11653802EA0117401233000000000000
B0513073201539S11653758EA0116501225000000000000
B0513113201454S11653716EA0115701213000000000000
B0513153201369S11653672EA0114701202000000000000
B0513193201283S11653627EA0113601191000000000000
B0513233201194S11653580EA0112501179000000000000
B0513273201106S11653533EA0111001162000000000000
B0513313201016S11653486EA0109501144000000000000
B0513353200928S11653438EA0107601129000000000000
B0513393200841S11653390EA0106201112000000000000
B0513433200755S11653342EA0104801100000000000000
B0513473200672S11653292EA0104101091000000000000
B0513513200591S11653243EA0103001080000000000000
B0513553200512S11653195EA0102201071000000000000
B0513593200431S11653144EA0100701053000000000000
B0514033200348S11653095EA0099601048000000000000
B0514073200266S11653047EA0099901054000000000000
B0514113200189S11653009EA0101101067000000000000
B0514153200118S11652979EA0101701072000000000000
B0514193200045S11652958EA0102201078000000000000
B0514233159974S11652948EA0102101076000000000000
B0514273159901S11652938EA0101801072000000000000
B0514313159827S11652923EA0101401065000000000000
B0514353159751S11652908EA0100501055000000000000
B0514393159673S11652896EA0099301039000000000000
B0514433159594S11652892EA0098401037000000000000
B0514473159519S11652871EA0098501031000000000000
B0514513159441S11652847EA0096901014000000000000
B0514553159359S11652832EA0095601002000000000000
B0514593159276S11652826EA0095201000000000000000
B0515033159203S11652841EA0095101001000000000000
B0515073159166S11652896EA0095801008000000000000
B0515113159168S11652958EA0095500998000000000000
B0515153159168S11653026EA0094200984000000000000
B0515193159147S11653097EA0093200977000000000000
B0515233159103S11653159EA0092300967000000000000
B0515273159040S11653207EA0091400958000000000000
B0515313158974S11653246EA0090500949000000000000
B0515353158906S11653277EA0089300936000000000000
B0515393158839S11653311EA0088300918000000000000
B0515433158769S11653344EA0086500902000000000000
B0515473158697S11653377EA0085000885000000000000
B0515513158626S11653411EA0083500872000000000000
B0515553158551S11653441EA0082600866000000000000
B0515593158477S11653472EA0082000858000000000000
B0516033158405S11653504EA0080800845000000000000
B0516073158330S11653542EA0079700833000000000000
B0516113158256S11653580EA0078100818000000000000
B0516153158180S11653614EA0077500810000000000000
B0516193158107S11653645EA0076800804000000000000
B0516233158033S11653673EA0076000794000000000000
B0516273157956S11653699EA0075100785000000000000
B0516313157881S11653724EA0074400781000000000000
B0516353157810S11653749EA0074300782000000000000
B0516393157743S11653775EA0074300779000000000000
B0516433157675S11653801EA0074100776000000000000
B0516473157618S11653845EA0073700770000000000000
B0516513157584S11653909EA0073300768000000000000
B0516553157591S11653974EA0073700780000000000000
B0516593157641S11653968EA0075400797000000000000
B0517033157664S11653901EA0075600782000000000000
B0517073157625S11653833EA0073900769000000000000
B0517113157557S11653820EA0073200765000000000000
B0517153157493S11653850EA0072400756000000000000
B0517193157452S11653909EA0072000758000000000000
B0517233157441S11653976EA0072200760000000000000
B0517273157452S11654044EA0072200759000000000000
B0517313157498S11654058EA0073400776000000000000
B0517353157510S11653988EA0073900775000000000000
B0517393157448S11653946EA0073500770000000000000
B0517433157388S11653980EA0073600772000000015000
B0517473157388S11654043EA0073500773000000015000
B0517513157440S11654043EA0073900780000000015000
B0517553157456S11653967EA0074400785000000015000
B0517593157414S11653901EA0075300796000000015000
B0518033157349S11653888EA0076200802000000015000
B0518073157320S11653937EA0076300800000000015000
B0518113157361S11653967EA0076000797000000015000
B0518153157409S11653923EA0076200801000000015000
B0518193157406S11653838EA0077000810000000015000
B0518233157349S11653785EA0077900819000000015000
B0518273157294S11653811EA0078500823000000015000
B0518313157303S11653864EA0078200822000000015000
B0518353157358S11653864EA0079100836000000015000
B0518393157391S11653801EA0080200845000000015000
B0518433157372S11653723EA0080500844000000015000
B0518473157313S11653675EA0080100840000000000000
B0518513157245S11653686EA0079900839000000000000
B0518553157236S11653746EA0079800838000000015000
B0518593157281S11653786EA0079700842000000015000
B0519033157332S11653754EA0080900858000000015000
B0519073157307S11653675EA0082400871000000015000
B0519113157238S11653655EA0083000872000000015000
B0519153157211S11653710EA0083200877000000015000
B0519193157258S11653734EA0083800886000000015000
B0519233157301S11653684EA0085000901000000015000
B0519273157285S11653606EA0086200910000000015000
B0519313157225S11653560EA0086400903000000015000
B0519353157157S11653580EA0085700900000000015000
B0519393157140S11653646EA0085700904000000015000
B0519433157176S11653693EA0086500915000000015000
B0519473157228S11653669EA0088000930000000015000
B0519513157214S11653589EA0088700933000000015000
B0519553157144S11653549EA0089100937000000015000
B0519593157084S11653582EA0089500944000000015000
B0520033157081S11653647EA0090100958000000015000
B0520073157128S11653663EA0092000974000000015000
B0520113157163S11653607EA0093000978000000015000
B0520153157142S11653526EA0093400984000000015000
B0520193157079S11653485EA0093900991000000015000
B0520233157015S11653506EA0094400996000000000000
B0520273156997S11653567EA0095001002000000015000
B0520313157037S11653604EA0095801012000000015000
B0520353157090S11653572EA0096501019000000015000
B0520393157093S11653491EA0097301027000000015000
B0520433157038S11653434EA0097801034000000015000
B0520473156972S11653446EA0098401038000000015000
B0520513156954S11653508EA0098901039000000015000
B0520553156994S11653552EA0099201043000000015000
B0520593157050S11653521EA0099701051000000015000
B0521033157067S11653439EA0100301061000000015000
B0521073157028S11653364EA0100901063000000015000
B0521113156956S11653333EA0101501068000000015000
B0521153156904S11653373EA0102201075000000015000
B0521193156933S11653422EA0102901082000000015000
B0521233156993S11653400EA0103401091000000015000
B0521273157020S11653320EA0104301099000000015000
B0521313156986S11653235EA0104901104000000015000
B0521353156915S11653201EA0105401107000000015000
B0521393156858S11653237EA0105601113000000015000
B0521433156864S11653292EA0106801129000000015000
B0521473156916S11653303EA0107901134000000015000
B0521513156959S11653244EA0108301139000000015000
B0521553156941S11653159EA0109101147000000015000
B0521593156874S11653116EA0109201146000000015000
B0522033156813S11653143EA0109401151000000015000
B0522073156802S11653208EA0109501148000000015000
B0522113156845S11653260EA0108801143000000015000
B0522153156907S11653295EA0108801144000000000000
B0522193156975S11653281EA0109901160000000000000
B0522233157001S11653203EA0111601174000000000000
B0522273156967S11653129EA0112301179000000000000
B0522313156906S11653116EA0112901192000000000000
B0522353156900S11653168EA0113601192000000015000
B0522393156955S11653168EA0113701196000000015000
B0522433156986S11653096EA0114101200000000015000
B0522473156952S11653016EA0113801191000000015000
B0522513156873S11652979EA0112901187000000015000
B0522553156786S11652960EA0112801189000000000000
B0522593156696S11652943EA0113301198000000000000
B0523033156608S11652928EA0113901200000000000000
B0523073156517S11652914EA0113901203000000000000
B0523113156425S11652904EA0113601191000000000000
B0523153156328S11652892EA0113201194000000000000
B0523193156236S11652880EA0115401223000000000000
B0523233156157S11652896EA0118001249000000000000
B0523273156137S11652951EA0120801274000000000000
B0523313156185S11652954EA0121201274000000000000
B0523353156214S11652876EA0122901298000000015000
B0523393156176S11652797EA0124401320000000000000
B0523433156106S11652792EA0126001329000000000000
B0523473156085S11652849EA0127201345000000015000
B0523513156128S11652874EA0128301352000000015000
B0523553156162S11652802EA0129801375000000015000
B0523593156128S11652723EA0132401399000000015000
B0524033156058S11652707EA0133901411000000000000
B0524073156022S11652756EA0135101426000000015000
B0524113156045S11652798EA0136101434000000015000
B0524153156093S11652771EA0136801435000000015000
B0524193156100S11652678EA0137001443000000015000
B0524233156050S11652600EA0138401464000000015000
B0524273155980S11652597EA0140201479000000015000
B0524313155962S11652652EA0141401486000000015000
B0524353156009S11652668EA0142301496000000015000
B0524393156045S11652602EA0143101509000000015000
B0524433156013S11652518EA0144501519000000015000
B0524473155944S11652484EA0145101525000000015000
B0524513155880S11652512EA0145501527000000000000
B0524553155857S11652575EA0145901531000000000000
B0524593155876S11652637EA0146201535000000000000
B0525033155931S11652666EA0146801544000000000000
B0525073155988S11652613EA0147201547000000015000
B0525113155985S11652515EA0147901558000000015000
B0525153155927S11652442EA0148501563000000015000
B0525193155845S11652407EA0148601560000000000000
B0525233155754S11652394EA0148201556000000000000
B0525273155662S11652388EA0147601550000000000000
B0525313155569S11652385EA0147101544000000000000
B0525353155477S11652386EA0146701541000000000000
B0525393155382S11652384EA0146101534000000000000
B0525433155287S11652377EA0145601528000000000000
B0525473155191S11652369EA0145501531000000000000
B0525513155097S11652362EA0145701533000000000000
B0525553155005S11652355EA0146701543000000000000
B0525593154937S11652390EA0147901555000000000000
B0526033154941S11652451EA0148901565000000000000
B0526073154997S11652451EA0148801561000000000000
B0526113155027S11652376EA0148701563000000015000
B0526153155014S11652281EA0148401557000000015000
B0526193154967S11652198EA0147701550000000015000
B0526233154893S11652156EA0147501547000000000000
B0526273154822S11652174EA0146801536000000000000
B0526313154755S11652212EA0145201517000000000000
B0526353154680S11652250EA0143201496000000000000
B0526393154590S11652268EA0142101492000000000000
B0526433154499S11652273EA0142401499000000000000
B0526473154406S11652268EA0142601497000000000000
B0526513154315S11652269EA0142601493000000000000
B0526553154225S11652286EA0141001471000000000000
B0526593154131S11652307EA0139401461000000000000
B0527033154034S11652321EA0138801456000000000000
B0527073153935S11652330EA0137801444000000000000
B0527113153832S11652332EA0136601429000000000000
B0527153153727S11652325EA0135701425000000000000
B0527193153623S11652319EA0135101415000000000000
B0527233153519S11652321EA0134301408000000000000
B0527273153416S11652328EA0133501399000000000000
B0527313153314S11652334EA0132501389000000000000
B0527353153210S11652332EA0131601382000000000000
B0527393153111S11652317EA0131701384000000000000
B0527433153016S11652293EA0131001372000000000000
B0527473152921S11652263EA0129801356000000000000
B0527513152829S11652238EA0128201335000000000000
B0527553152733S11652220EA0126701325000000000000
B0527593152636S11652215EA0125801318000000000000
B0528033152543S11652223EA0125001310000000000000
B0528073152452S11652238EA0124701312000000000000
B0528113152362S11652245EA0124801309000000000000
B0528153152274S11652250EA0124101304000000000000
B0528193152189S11652258EA0123701298000000000000
B0528233152106S11652267EA0123101292000000000000
B0528273152027S11652280EA0122901287000000000000
B0528313151946S11652291EA0121901274000000000000
B0528353151867S11652311EA0120201258000000000000
B0528393151784S11652329EA0118701244000000000000
B0528433151700S11652342EA0117601235000000000000
B0528473151620S11652353EA0117101228000000000000
B0528513151541S11652355EA0116601222000000000000
B0528553151463S11652359EA0115901210000000000000
B0528593151386S11652377EA0114701199000000000000
B0529033151310S11652403EA0113901193000000000000
B0529073151234S11652428EA0113101185000000000000
B0529113151158S11652446EA0112901186000000000000
B0529153151084S11652462EA0113501193000000000000
B0529193151011S11652481EA0114801210000000000000
B0529233150953S11652509EA0116401225000000000000
B0529273150944S11652563EA0116801220000000000000
B0529313150996S11652576EA0116101211000000000000
B0529353151028S11652509EA0115201202000000015000
B0529393151001S11652425EA0114601205000000015000
B0529433150961S11652349EA0114801207000000000000
B0529473150913S11652277EA0114801204000000000000
B0529513150845S11652232EA0114401202000000000000
B0529553150775S11652203EA0114601204000000000000
B0529593150703S11652185EA0114101199000000000000
B0530033150632S11652173EA0113201189000000000000
B0530073150555S11652164EA0112301176000000000000
B0530113150475S11652159EA0111001164000000000000
B0530153150393S11652158EA0110001152000000000000
B0530193150308S11652158EA0108901141000000000000
B0530233150220S11652156EA0107901132000000000000
B0530273150135S11652156EA0108601142000000000000
B0530313150085S11652206EA0110601170000000000000
B0530353150125S11652241EA0113001193000000000000
B0530393150151S11652182EA0114501207000000015000
B0530433150109S11652126EA0115501216000000015000
B0530473150057S11652143EA0116601229000000015000
B0530513150047S11652200EA0117501239000000015000
B0530553150091S11652230EA0118401247000000015000
B0530593150137S11652187EA0119201255000000015000
B0531033150118S11652111EA0120101266000000015000
B0531073150061S11652076EA0121301281000000015000
B0531113150014S11652112EA0122601293000000015000
B0531153150034S11652169EA0123801304000000015000
B0531193150092S11652158EA0124601317000000015000
B0531233150108S11652087EA0125901328000000015000
B0531273150057S11652042EA0126701334000000015000
B0531313150000S11652068EA0127401344000000015000
B0531353149997S11652134EA0128301351000000015000
B0531393150055S11652158EA0129501367000000015000
B0531433150100S11652112EA0131001381000000015000
B0531473150095S11652041EA0131801390000000015000
B0531513150043S11652000EA0132801400000000015000
B0531553149994S11652031EA0133601411000000015000
B0531593149997S11652094EA0134601422000000015000
B0532033150051S11652108EA0136201444000000015000
B0532073150081S11652050EA0138201459000000015000
B0532113150043S11651991EA0139001467000000015000
B0532153149984S11652005EA0139801477000000015000
B0532193149977S11652068EA0141101490000000015000
B0532233150031S11652090EA0142501505000000015000
B0532273150077S11652034EA0144101523000000015000
B0532313150061S11651957EA0145401538000000015000
B0532353150001S11651935EA0146801551000000015000
B0532393149962S11651981EA0148101565000000015000
B0532433149994S11652030EA0149401577000000015000
B0532473150047S11651999EA0150801595000000015000
B0532513150053S11651918EA0152001606000000015000
B0532553150007S11651862EA0153301617000000015000
B0532593149945S11651870EA0154301629000000015000
B0533033149922S11651927EA0155701642000000015000
B0533073149960S11651961EA0157201658000000015000
B0533113150008S11651920EA0158601672000000015000
B0533153150000S11651844EA0160301687000000015000
B0533193149947S11651808EA0161201700000000015000
B0533233149896S11651835EA0162201707000000015000
B0533273149893S11651898EA0162401708000000015000
B0533313149948S11651918EA0163401730000000015000
B0533353149991S11651852EA0165301745000000015000
B0533393149958S11651779EA0166801758000000015000
B0533433149893S11651781EA0167801766000000015000
B0533473149867S11651839EA0168401774000000015000
B0533513149899S11651887EA0169901791000000015000
B0533553149960S11651885EA0170701798000000015000
B0533593150017S11651827EA0171201804000000015000
B0534033150013S11651747EA0173601834000000015000
B0534073149956S11651734EA0175701852000000015000
B0534113149931S11651783EA0176801864000000015000
B0534153149958S11651829EA0178501875000000015000
B0534193150018S11651822EA0179701888000000015000
B0534233150051S11651752EA0181001907000000015000
B0534273150023S11651682EA0183001929000000015000
B0534313149966S11651669EA0184501940000000015000
B0534353149934S11651718EA0185401950000000015000
B0534393149966S11651766EA0186901970000000015000
B0534433150027S11651748EA0188701986000000015000
B0534473150060S11651675EA0190402004000000015000
B0534513150039S11651593EA0191702017000000015000
B0534553149981S11651553EA0192802027000000015000
B0534593149922S11651579EA0193402031000000000000
B0535033149901S11651644EA0194202038000000015000
B0535073149934S11651700EA0195002059000000015000
B0535113149996S11651690EA0196702070000000015000
B0535153150047S11651625EA0197802083000000015000
B0535193150025S11651550EA0199502102000000015000
B0535233149970S11651561EA0201102114000000015000
B0535273149974S11651621EA0202402130000000015000
B0535313150030S11651645EA0204202154000000015000
B0535353150078S11651599EA0206202170000000015000
B0535393150061S11651523EA0207102178000000015000
B0535433149999S11651501EA0207802185000000015000
B0535473149964S11651554EA0208702195000000015000
B0535513149999S11651613EA0210002208000000015000
B0535553150065S11651606EA0210902220000000015000
B0535593150082S11651530EA0212302227000000015000
B0536033150022S11651472EA0211902221000000015000
B0536073149940S11651445EA0211002215000000000000
B0536113149852S11651435EA0210902213000000000000
B0536153149757S11651436EA0210402209000000000000
B0536193149658S11651446EA0209402185000000000000
B0536233149550S11651461EA0207302170000000000000
B0536273149442S11651479EA0205302144000000000000
B0536313149334S11651496EA0204002139000000000000
B0536353149233S11651508EA0204102141000000000000
B0536393149137S11651515EA0204202144000000000000
B0536433149045S11651522EA0204102143000000000000
B0536473148954S11651524EA0204202146000000000000
B0536513148863S11651522EA0205102155000000000000
B0536553148775S11651524EA0205302150000000000000
B0536593148684S11651534EA0204402144000000000000
B0537033148592S11651543EA0204702152000000000000
B0537073148502S11651553EA0205602154000000000000
B0537113148409S11651563EA0204602139000000000000
B0537153148313S11651574EA0203102124000000000000
B0537193148214S11651582EA0201902113000000000000
B0537233148114S11651588EA0200802102000000000000
B0537273148012S11651599EA0199802094000000000000
B0537313147910S11651612EA0199402091000000000000
B0537353147808S11651626EA0199802101000000000000
B0537393147708S11651638EA0200702110000000000000
B0537433147611S11651647EA0200902105000000000000
B0537473147513S11651654EA0199602083000000000000
B0537513147414S11651660EA0197502066000000000000
B0537553147314S11651667EA0196102051000000000000
B0537593147217S11651675EA0196002064000000000000
B0538033147127S11651683EA0197802084000000000000
B0538073147043S11651693EA0199802104000000000000
B0538113146962S11651703EA0202002124000000000000
B0538153146905S11651748EA0204102146000000000000
B0538193146945S11651796EA0206302167000000000000
B0538233147000S11651749EA0206902168000000000000
B0538273146985S11651658EA0206602165000000000000
B0538313146914S11651602EA0207102180000000000000
B0538353146844S11651625EA0209102207000000000000
B0538393146858S11651682EA0211402225000000015000
B0538433146915S11651647EA0212002226000000015000
B0538473146903S11651566EA0213502254000000015000
B0538513146846S11651526EA0215702268000000015000
B0538553146785S11651554EA0216302269000000015000
B0538593146781S11651625EA0216702278000000015000
B0539033146833S11651661EA0217202275000000015000
B0539073146901S11651627EA0216402270000000015000
B0539113146933S11651539EA0216602272000000015000
B0539153146902S11651445EA0217402288000000015000
B0539193146835S11651388EA0219002309000000015000
B0539233146767S11651396EA0221702336000000015000
B0539273146773S11651452EA0223602352000000015000
B0539313146829S11651433EA0224402360000000015000
B0539353146838S11651353EA0226102382000000015000
B0539393146788S11651293EA0227502389000000015000
B0539433146714S11651267EA0228402403000000015000
B0539473146632S11651259EA0228802399000000000000
B0539513146542S11651258EA0227702381000000000000
B0539553146442S11651244EA0225702364000000000000
B0539593146341S11651212EA0225002361000000000000
B0540033146240S11651173EA0224502348000000000000
B0540073146135S11651132EA0222702329000000000000
B0540113146029S11651085EA0220902312000000000000
B0540153145923S11651032EA0219702298000000000000
B0540193145817S11650973EA0218102285000000000000
B0540233145711S11650912EA0217502280000000000000
B0540273145607S11650852EA0216702268000000000000
B0540313145505S11650794EA0215802262000000000000
B0540353145405S11650734EA0215102250000000000000
B0540393145306S11650674EA0214002244000000000000
B0540433145208S11650616EA0213602239000000000000
B0540473145112S11650557EA0214102246000000000000
B0540513145017S11650504EA0214002240000000000000
B0540553144920S11650451EA0213202231000000000000
B0540593144822S11650397EA0212702229000000000000
B0541033144723S11650344EA0211402212000000000000
B0541073144625S11650287EA0210402205000000000000
B0541113144526S11650228EA0209502194000000000000
B0541153144430S11650171EA0209002187000000000000
B0541193144335S11650117EA0208102178000000000000
B0541233144241S11650062EA0207602175000000000000
B0541273144149S11650014EA0207402175000000000000
B0541313144056S11649970EA0206902166000000000000
B0541353143962S11649924EA0205902156000000000000
B0541393143867S11649872EA0205202147000000000000
B0541433143772S11649821EA0204502145000000000000
B0541473143682S11649771EA0204602145000000000000
B0541513143594S11649720EA0204402141000000000000
B0541553143503S11649672EA0203602130000000000000
B0541593143410S11649619EA0202602120000000000000
B0542033143318S11649560EA0201702113000000000000
B0542073143226S11649502EA0200602099000000000000
B0542113143133S11649442EA0199402085000000000000
B0542153143037S11649391EA0198102073000000000000
B0542193142940S11649348EA0197002056000000000000
B0542233142842S11649316EA0195902051000000000000
B0542273142749S11649291EA0195102044000000000000
B0542313142658S11649261EA0194802037000000000000
B0542353142567S11649235EA0193502021000000000000
B0542393142476S11649196EA0191902009000000000000
B0542433142389S11649148EA0190801998000000000000
B0542473142305S11649091EA0189501982000000000000
B0542513142221S11649035EA0188401974000000000000
B0542553142136S11648988EA0187201958000000000000
B0542593142051S11648934EA0185901943000000000000
B0543033141975S11648862EA0184801937000000000000
B0543073141910S11648781EA0184401929000000000000
B0543113141846S11648697EA0183701923000000000000
B0543153141780S11648614EA0183401924000000000000
B0543193141714S11648537EA0183701927000000000000
B0543233141646S11648467EA0183601923000000000000
B0543273141573S11648401EA0183301921000000000000
B0543313141495S11648346EA0183001916000000000000
B0543353141411S11648302EA0182001908000000000000
B0543393141329S11648265EA0182101919000000000000
B0543433141254S11648235EA0183201921000000000000
B0543473141177S11648213EA0182801914000000000000
B0543513141096S11648211EA0181901901000000000000
B0543553141013S11648221EA0180001881000000000000
B0543593140926S11648238EA0178401867000000000000
B0544033140838S11648263EA0176801850000000000000
B0544073140747S11648290EA0175301833000000000000
B0544113140653S11648319EA0173501816000000000000
B0544153140557S11648346EA0172001802000000000000
B0544193140462S11648377EA0170501785000000000000
B0544233140366S11648410EA0169601776000000000000
B0544273140268S11648437EA0168901766000000000000
B0544313140169S11648462EA0167801756000000000000
B0544353140073S11648489EA0167201754000000000000
B0544393139981S11648516EA0166901750000000000000
B0544433139890S11648545EA0166101740000000000000
B0544473139798S11648570EA0165401735000000000000
B0544513139705S11648589EA0164501724000000000000
B0544553139609S11648606EA0163301705000000000000
B0544593139509S11648616EA0161501687000000000000
B0545033139405S11648622EA0159701670000000000000
B0545073139300S11648623EA0158001651000000000000
B0545113139194S11648622EA0157001646000000000000
B0545153139093S11648620EA0156301636000000000000
B0545193138993S11648620EA0155401627000000000000
B0545233138898S11648627EA0155701632000000000000
B0545273138806S11648636EA0154901623000000000000
B0545313138713S11648640EA0155401647000000000000
B0545353138630S11648632EA0158101667000000000000
B0545393138552S11648610EA0158601658000000000000
B0545433138466S11648594EA0156901643000000000000
B0545473138381S11648598EA0157401663000000000000
B0545513138322S11648649EA0159601686000000000000
B0545553138307S11648718EA0161701712000000000000
B0545593138355S11648729EA0164001726000000015000
B0546033138374S11648661EA0164601727000000015000
B0546073138327S11648601EA0164201721000000015000
B0546113138258S11648610EA0164401736000000015000
B0546153138239S11648672EA0166601761000000015000
B0546193138284S11648706EA0168401774000000015000
B0546233138325S11648650EA0170101796000000015000
B0546273138300S11648580EA0171801807000000015000
B0546313138236S11648570EA0172301814000000015000
B0546353138201S11648623EA0173701834000000015000
B0546393138221S11648677EA0175001843000000015000
B0546433138275S11648681EA0175801848000000015000
B0546473138312S11648616EA0176401856000000015000
B0546513138275S11648546EA0177901875000000015000
B0546553138214S11648550EA0179101885000000015000
B0546593138197S11648612EA0179701893000000015000
B0547033138236S11648659EA0180101894000000015000
B0547073138297S11648640EA0180501902000000015000
B0547113138320S11648564EA0181801918000000015000
B0547153138282S11648501EA0183301931000000015000
B0547193138219S11648511EA0183801934000000015000
B0547233138203S11648570EA0184801947000000015000
B0547273138243S11648610EA0185401947000000015000
B0547313138301S11648584EA0185701955000000015000
B0547353138322S11648510EA0187101972000000015000
B0547393138292S11648443EA0188301978000000015000
B0547433138230S11648438EA0188001975000000015000
B0547473138173S11648471EA0188101983000000015000
B0547513138153S11648536EA0188701983000000015000
B0547553138170S11648609EA0188501979000000015000
B0547593138225S11648651EA0189101989000000015000
B0548033138284S11648628EA0190202000000000015000
B0548073138304S11648554EA0190401998000000000000
B0548113138265S11648479EA0190001990000000000000
B0548153138188S11648433EA0189001977000000000000
B0548193138096S11648403EA0187401967000000000000
B0548233137997S11648376EA0187201965000000000000
B0548273137894S11648350EA0187001959000000000000
B0548313137790S11648321EA0186701958000000000000
B0548353137684S11648294EA0187201970000000000000
B0548393137582S11648265EA0189101995000000000000
B0548433137489S11648233EA0191702022000000000000
B0548473137402S11648204EA0193102030000000000000
B0548513137316S11648173EA0193102027000000000000
B0548553137230S11648141EA0192402016000000000000
B0548593137142S11648111EA0191502008000000000000
B0549033137055S11648079EA0191702013000000000000
B0549073136966S11648047EA0190701994000000000000
B0549113136870S11648020EA0188801974000000000000
B0549153136771S11647990EA0188301976000000000000
B0549193136672S11647960EA0188901982000000000000
B0549233136576S11647925EA0189401986000000000000
B0549273136483S11647891EA0189801990000000000000
B0549313136388S11647856EA0189901988000000000000
B0549353136293S11647829EA0190902011000000000000
B0549393136208S11647804EA0193602035000000000000
B0549433136145S11647825EA0196002062000000000000
B0549473136158S11647874EA0198302080000000000000
B0549513136214S11647845EA0198402076000000000000
B0549553136236S11647754EA0199002087000000015000
B0549593136206S11647670EA0200302101000000015000
B0550033136142S11647631EA0200602095000000015000
B0550073136061S11647598EA0197902064000000000000
B0550113135965S11647566EA0196402052000000000000
B0550153135863S11647537EA0195302040000000000000
B0550193135757S11647507EA0194702036000000000000
B0550233135653S11647479EA0194902045000000000000
B0550273135552S11647452EA0194802032000000000000
B0550313135445S11647424EA0192702007000000000000
B0550353135335S11647393EA0190701990000000000000
B0550393135226S11647363EA0190001984000000000000
B0550433135120S11647331EA0189301981000000000000
B0550473135016S11647294EA0189701986000000000000
B0550513134916S11647255EA0190101991000000000000
B0550553134823S11647223EA0190501996000000000000
B0550593134730S11647190EA0190701997000000000000
B0551033134639S11647159EA0190701998000000000000
B0551073134548S11647128EA0190801999000000000000
B0551113134459S11647097EA0190801999000000000000
B0551153134368S11647069EA0190601997000000000000
B0551193134275S11647043EA0191502010000000000000
B0551233134188S11647017EA0193602037000000000000
B0551273134102S11646991EA0195002043000000000000
B0551313134010S11646969EA0194102029000000000000
B0551353133911S11646946EA0192502013000000000000
B0551393133810S11646922EA0191802004000000000000
B0551433133710S11646896EA0190701991000000000000
B0551473133611S11646869EA0189501980000000000000
B0551513133511S11646839EA0188101963000000000000
B0551553133411S11646811EA0186601947000000000000
B0551593133311S11646785EA0185101937000000000000
B0552033133211S11646753EA0184601931000000000000
B0552073133112S11646720EA0184301930000000000000
B0552113133017S11646685EA0184201929000000000000
B0552153132923S11646646EA0183701921000000000000
B0552193132830S11646610EA0183801928000000000000
B0552233132737S11646579EA0184201924000000000000
B0552273132644S11646549EA0182501910000000000000
B0552313132550S11646522EA0181801905000000000000
B0552353132459S11646493EA0181901905000000000000
B0552393132367S11646469EA0181501899000000000000
B0552433132276S11646448EA0181501905000000000000
B0552473132190S11646427EA0182401916000000000000
B0552513132107S11646412EA0182401912000000000000
B0552553132025S11646387EA0182401913000000000000
B0552593131944S11646360EA0182801916000000000000
B0553033131864S11646345EA0183201923000000000000
B0553073131787S11646339EA0184601937000000000000
B0553113131717S11646349EA0185501942000000000000
B0553153131661S11646393EA0185401938000000000000
B0553193131621S11646454EA0184601929000000000000
B0553233131576S11646521EA0182901910000000000000
B0553273131511S11646577EA0180901890000000000000
B0553313131427S11646610EA0179501870000000000000
B0553353131331S11646626EA0177901858000000000000
B0553393131232S11646627EA0177101851000000000000
B0553433131134S11646623EA0177301862000000000000
B0553473131042S11646630EA0178301873000000000000
B0553513130954S11646648EA0179201883000000000000
B0553553130871S11646674EA0180401897000000000000
B0553593130794S11646712EA0181701910000000000000
B0554033130730S11646764EA0183701937000000000000
B0554073130744S11646828EA0187501977000000000000
B0554113130800S11646799EA0190502004000000000000
B0554153130799S11646726EA0192202017000000000000
B0554193130741S11646692EA0193302032000000000000
B0554233130695S11646730EA0195002053000000000000
B0554273130702S11646794EA0197202077000000000000
B0554313130752S11646820EA0199702098000000000000
B0554353130806S11646779EA0201102109000000000000
B0554393130808S11646699EA0202102120000000015000
B0554433130750S11646653EA0203102135000000000000
B0554473130695S11646687EA0204602155000000000000
B0554513130711S11646746EA0207202187000000015000
B0554553130768S11646742EA0209702204000000015000
B0554593130799S11646675EA0211402219000000015000
B0555033130770S11646604EA0212902238000000015000
B0555073130711S11646594EA0214802255000000015000
B0555113130690S11646649EA0216102271000000015000
B0555153130739S11646683EA0218002294000000015000
B0555193130790S11646635EA0220202312000000015000
B0555233130776S11646555EA0221802327000000015000
B0555273130716S11646519EA0223402345000000015000
B0555313130666S11646557EA0224602360000000015000
B0555353130683S11646617EA0225902378000000015000
B0555393130743S11646609EA0228402405000000015000
B0555433130764S11646536EA0230302420000000015000
B0555473130724S11646473EA0231902443000000015000
B0555513130661S11646443EA0233102443000000015000
B0555553130590S11646417EA0232602436000000000000
B0555593130509S11646392EA0232202431000000000000
B0556033130423S11646366EA0231002413000000000000
B0556073130331S11646336EA0229802401000000000000
B0556113130235S11646302EA0229102396000000000000
B0556153130136S11646265EA0228102380000000000000
B0556193130032S11646226EA0225902356000000000000
B0556233129925S11646192EA0224302342000000000000
B0556273129818S11646161EA0222802324000000000000
B0556313129708S11646133EA0221802313000000000000
B0556353129600S11646106EA0220702300000000000000
B0556393129493S11646077EA0219202285000000000000
B0556433129385S11646048EA0218102276000000000000
B0556473129278S11646016EA0217302265000000000000
B0556513129171S11645985EA0216502261000000000000
B0556553129067S11645954EA0215802250000000000000
B0556593128962S11645918EA0215102244000000000000
B0557033128859S11645876EA0214802241000000000000
B0557073128759S11645833EA0214602238000000000000
B0557113128659S11645790EA0213802229000000000000
B0557153128560S11645747EA0213002221000000000000
B0557193128462S11645707EA0212502218000000000000
B0557233128363S11645668EA0211702209000000000000
B0557273128265S11645633EA0210702199000000000000
B0557313128167S11645596EA0209602183000000000000
B0557353128068S11645557EA0208202172000000000000
B0557393127968S11645517EA0207302159000000000000
B0557433127865S11645476EA0205902143000000000000
B0557473127764S11645434EA0204602131000000000000
B0557513127661S11645394EA0203102114000000000000
B0557553127558S11645357EA0201802105000000000000
B0557593127457S11645320EA0200502090000000000000
B0558033127355S11645283EA0199602085000000000000
B0558073127257S11645247EA0199502084000000000000
B0558113127158S11645214EA0199002073000000000000
B0558153127058S11645186EA0197602058000000000000
B0558193126955S11645160EA0196502048000000000000
B0558233126855S11645134EA0195402039000000000000
B0558273126755S11645112EA0195202042000000000000
B0558313126659S11645095EA0195802049000000000000
B0558353126565S11645084EA0196902063000000000000
B0558393126478S11645080EA0197402064000000000000
B0558433126391S11645082EA0196602053000000000000
B0558473126300S11645086EA0195502040000000000000
B0558513126206S11645092EA0194502031000000000000
B0558553126113S11645100EA0193902028000000000000
B0558593126018S11645109EA0193302019000000000000
B0559033125919S11645109EA0192402008000000000000
B0559073125816S11645104EA0191602004000000000000
B0559113125715S11645099EA0191802007000000000000
B0559153125616S11645095EA0191602002000000000000
B0559193125521S11645087EA0192102014000000000000
B0559233125430S11645078EA0193302026000000000000
B0559273125346S11645078EA0194902051000000000000
B0559313125308S11645136EA0198202081000000000000
B0559353125291S11645205EA0198702066000000000000
B0559393125232S11645256EA0197002054000000000000
B0559433125153S11645278EA0195902046000000000000
B0559473125066S11645278EA0194602027000000000000
B0559513124972S11645260EA0192502006000000000000
B0559553124878S11645232EA0191001993000000000000
B0559593124781S11645195EA0189701979000000000000
B0600033124685S11645154EA0188801973000000000000
B0600073124589S11645110EA0188201968000000000000
B0600113124491S11645067EA0188801975000000000000
B0600153124395S11645026EA0189601986000000000000
B0600193124300S11644984EA0190201990000000000000
B0600233124209S11644939EA0190701996000000000000
B0600273124121S11644893EA0190701990000000000000
B0600313124030S11644846EA0189301975000000000000
B0600353123936S11644801EA0187701960000000000000
B0600393123843S11644755EA0186901955000000000000
B0600433123750S11644712EA0186601953000000000000
B0600473123658S11644671EA0185701938000000000000
B0600513123565S11644633EA0184301921000000000000
B0600553123470S11644610EA0183701919000000000000
B0600593123376S11644594EA0183401917000000000000
B0601033123285S11644575EA0183701926000000000000
B0601073123206S11644541EA0185801958000000000000
B0601113123136S11644502EA0188201975000000000000
B0601153123068S11644464EA0188001959000000000000
B0601193122991S11644428EA0185601932000000000000
B0601233122909S11644387EA0183601916000000000000
B0601273122825S11644347EA0182601906000000000000
B0601313122739S11644309EA0181901901000000000000
B0601353122656S11644270EA0182301913000000000000
B0601393122582S11644239EA0184101931000000000000
B0601433122510S11644215EA0185001938000000000000
B0601473122436S11644196EA0185901949000000000000
B0601513122379S11644226EA0187901974000000000000
B0601553122385S11644282EA0189801987000000000000
B0601593122439S11644287EA0190601993000000000000
B0602033122480S11644224EA0190601994000000000000
B0602073122487S11644138EA0191302005000000000000
B0602113122452S11644066EA0192202011000000015000
B0602153122391S11644038EA0192602015000000015000
B0602193122333S11644074EA0192802014000000000000
B0602233122294S11644139EA0192602013000000000000
B0602273122280S11644222EA0192502015000000000000
B0602313122294S11644303EA0193602034000000000000
B0602353122346S11644358EA0195402049000000000000
B0602393122417S11644358EA0196802065000000000000
B0602433122470S11644296EA0197302060000000015000
B0602473122480S11644200EA0196202047000000015000
B0602513122444S11644107EA0195702047000000015000
B0602553122383S11644030EA0196202057000000000000
B0602593122311S11644025EA0198502080000000000000
B0603033122320S11644094EA0199802093000000015000
B0603073122391S11644109EA0201102112000000015000
B0603113122447S11644057EA0203102130000000015000
B0603153122456S11643968EA0203402130000000015000
B0603193122434S11643877EA0203702133000000015000
B0603233122384S11643804EA0204202142000000000000
B0603273122314S11643776EA0205002145000000000000
B0603313122236S11643756EA0204102128000000000000
B0603353122149S11643737EA0203002116000000000000
B0603393122054S11643730EA0201202096000000000000
B0603433121954S11643731EA0199802086000000000000
B0603473121854S11643732EA0198602073000000000000
B0603513121752S11643736EA0197402059000000000000
B0603553121648S11643741EA0195902044000000000000
B0603593121546S11643748EA0195302036000000000000
B0604033121440S11643753EA0194602026000000000000
B0604073121332S11643758EA0193502016000000000000
B0604113121226S11643766EA0192402001000000000000
B0604153121115S11643771EA0190401981000000000000
B0604193121002S11643775EA0189001970000000000000
B0604233120890S11643779EA0188301967000000000000
B0604273120777S11643782EA0187601958000000000000
B0604313120666S11643783EA0187101954000000000000
B0604353120555S11643784EA0186201940000000000000
B0604393120445S11643788EA0185401938000000000000
B0604433120337S11643793EA0184801931000000000000
B0604473120229S11643799EA0184201923000000000000
B0604513120121S11643808EA0184201931000000000000
B0604553120019S11643821EA0184401928000000000000
B0604593119917S11643834EA0184001924000000000000
B0605033119815S11643845EA0183401917000000000000
B0605073119711S11643854EA0182001902000000000000
B0605113119606S11643858EA0180401888000000000000
B0605153119502S11643861EA0179501872000000000000
B0605193119395S11643862EA0177901854000000000000
B0605233119289S11643858EA0176601842000000000000
B0605273119181S11643854EA0176001835000000000000
B0605313119074S11643854EA0175201827000000000000
B0605353118972S11643854EA0175301835000000000000
B0605393118872S11643856EA0175001823000000000000
B0605433118769S11643858EA0173501809000000000000
B0605473118667S11643858EA0172601799000000000000
B0605513118567S11643858EA0171801791000000000000
B0605553118470S11643858EA0170801777000000000000
B0605593118374S11643861EA0169101755000000000000
B0606033118276S11643864EA0167201740000000000000
B0606073118179S11643865EA0165901723000000000000
B0606113118081S11643866EA0164801721000000000000
B0606153117986S11643865EA0164401714000000000000
B0606193117891S11643865EA0163601708000000000000
B0606233117798S11643864EA0162601697000000000000
B0606273117700S11643867EA0161401680000000000000
B0606313117600S11643870EA0159301658000000000000
B0606353117496S11643874EA0157901650000000000000
B0606393117391S11643880EA0157301646000000000000
B0606433117299S11643891EA0159801688000000000000
B0606473117226S11643923EA0163201713000000015000
B0606513117182S11643988EA0164501723000000015000
B0606553117158S11644065EA0165601738000000000000
B0606593117182S11644125EA0167901763000000000000
B0607033117240S11644099EA0169701775000000015000
B0607073117245S11644022EA0170801786000000015000
B0607113117193S11643969EA0171901797000000015000
B0607153117136S11643994EA0173301814000000015000
B0607193117152S11644049EA0175201832000000015000
B0607233117210S11644036EA0176601845000000015000
B0607273117234S11643964EA0177401850000000015000
B0607313117196S11643892EA0178401864000000015000
B0607353117131S11643877EA0179801877000000015000
B0607393117083S11643922EA0180801893000000015000
B0607433117100S11643979EA0183101915000000015000
B0607473117158S11643979EA0184201918000000015000
B0607513117200S11643910EA0184901927000000015000
B0607553117182S11643826EA0186701949000000015000
B0607593117124S11643783EA0188001960000000015000
B0608033117057S11643796EA0188401960000000015000
B0608073117016S11643857EA0188701969000000015000
B0608113117048S11643912EA0191602010000000015000
B0608153117102S11643892EA0194402027000000015000
B0608193117118S11643818EA0194802026000000015000
B0608233117071S11643752EA0195002036000000015000
B0608273117001S11643745EA0196102047000000015000
B0608313116961S11643796EA0197402057000000015000
B0608353116984S11643856EA0197902070000000015000
B0608393117037S11643890EA0199202087000000015000
B0608433117098S11643865EA0201402111000000015000
B0608473117114S11643783EA0202802115000000015000
B0608513117067S11643709EA0203102116000000015000
B0608553116990S11643688EA0203402122000000015000
B0608593116920S11643714EA0204202129000000015000
B0609033116873S11643776EA0204402133000000015000
B0609073116834S11643849EA0205002147000000000000
B0609113116806S11643927EA0206602163000000000000
B0609153116833S11643984EA0208502178000000000000
B0609193116892S11643975EA0208502173000000015000
B0609233116931S11643906EA0208602172000000015000
B0609273116949S11643817EA0208102168000000000000
B0609313116959S11643717EA0208402174000000000000
B0609353116935S11643624EA0210202196000000000000
B0609393116880S11643633EA0212602220000000015000
B0609433116884S11643693EA0213202224000000015000
B0609473116942S11643713EA0214402240000000015000
B0609513116997S11643661EA0215502253000000015000
B0609553116989S11643571EA0216902263000000015000
B0609593116920S11643510EA0216102238000000015000
B0610033116823S11643488EA0213102206000000015000
B0610073116714S11643480EA0210202178000000000000
B0610113116597S11643479EA0207302151000000000000
B0610153116476S11643481EA0205502139000000000000
B0610193116353S11643484EA0204702137000000000000
B0610233116236S11643489EA0204702138000000000000
B0610273116123S11643496EA0204102130000000000000
B0610313116008S11643502EA0202402109000000000000
B0610353115892S11643509EA0200602093000000000000
B0610393115776S11643513EA0199502085000000000000
B0610433115664S11643516EA0198602069000000000000
B0610473115554S11643519EA0197202057000000000000
B0610513115445S11643523EA0196002048000000000000
B0610553115338S11643527EA0195602045000000000000
B0610593115234S11643535EA0194802034000000000000
B0611033115133S11643542EA0193102016000000000000
B0611073115031S11643548EA0191702004000000000000
B0611113114935S11643557EA0190801997000000000000
B0611153114840S11643571EA0190201988000000000000
B0611193114744S11643583EA0189001975000000000000
B0611233114644S11643589EA0188101964000000000000
B0611273114543S11643591EA0187701964000000000000
B0611313114439S11643592EA0187601962000000000000
B0611353114336S11643596EA0187901973000000000000
B0611393114237S11643598EA0188201969000000000000
B0611433114138S11643600EA0188101973000000000000
B0611473114043S11643604EA0189301984000000000000
B0611513113959S11643630EA0190701997000000000000
B0611553113874S11643659EA0190401987000000000000
B0611593113782S11643683EA0188801968000000000000
B0612033113683S11643701EA0187001950000000000000
B0612073113582S11643713EA0185701941000000000000
B0612113113478S11643717EA0184601927000000000000
B0612153113374S11643711EA0183701921000000000000
B0612193113271S11643702EA0182401906000000000000
B0612233113168S11643693EA0180601886000000000000
B0612273113064S11643683EA0178701866000000000000
B0612313112963S11643675EA0177501856000000000000
B0612353112864S11643665EA0176401847000000000000
B0612393112767S11643656EA0175701840000000000000
B0612433112669S11643645EA0174501821000000000000
B0612473112572S11643635EA0172901808000000000000
B0612513112476S11643620EA0171501794000000000000
B0612553112381S11643607EA0169901777000000000000
B0612593112287S11643596EA0168601765000000000000
B0613033112195S11643588EA0167601750000000000000
B0613073112101S11643580EA0165901734000000000000
B0613113112008S11643575EA0165001728000000000000
B0613153111917S11643567EA0164801729000000000000
B0613193111826S11643558EA0164701727000000000000
B0613233111738S11643553EA0164801727000000000000
B0613273111655S11643557EA0166001750000000000000
B0613313111619S11643619EA0169001779000000000000
B0613353111662S11643670EA0171001798000000000000
B0613393111722S11643657EA0172201807000000000000
B0613433111751S11643593EA0172601810000000000000
B0613473111729S11643531EA0173401820000000015000
B0613513111679S11643505EA0174201832000000015000
B0613553111627S11643527EA0175601847000000015000
B0613593111605S11643587EA0176601862000000015000
B0614033111627S11643645EA0178001875000000015000
B0614073111681S11643669EA0179201886000000015000
B0614113111738S11643643EA0180001888000000015000
B0614153111770S11643578EA0180101888000000015000
B0614193111753S11643510EA0180801900000000015000
B0614233111701S11643483EA0181601908000000015000
B0614273111657S11643520EA0182401918000000015000
B0614313111659S11643584EA0183201929000000015000
B0614353111714S11643613EA0184301935000000015000
B0614393111770S11643571EA0184601936000000015000
B0614433111774S11643496EA0184901944000000015000
B0614473111727S11643448EA0185401947000000015000
B0614513111667S11643462EA0186501966000000015000
B0614553111637S11643519EA0188201978000000015000
B0614593111657S11643584EA0189501993000000015000
B0615033111714S11643604EA0190601996000000015000
B0615073111761S11643550EA0191202002000000030000
B0615113111749S11643480EA0191301998000000075000
B0615153111693S11643453EA0191201997000000090000
B0615193111640S11643485EA0191802011000000060000
B0615233111659S11643544EA0193202019000000030000
B0615273111729S11643545EA0193502021000000030000
B0615313111781S11643480EA0193802020000000030000
B0615353111770S11643397EA0193702021000000030000
B0615393111707S11643351EA0193902030000000015000
B0615433111637S11643325EA0194602034000000015000
B0615473111563S11643314EA0194602032000000015000
B0615513111485S11643311EA0193602022000000015000
B0615553111400S11643315EA0192402010000000015000
B0615593111309S11643328EA0191501996000000000000
B0616033111215S11643345EA0190201985000000000000
B0616073111117S11643364EA0189101969000000000000
B0616113111016S11643388EA0187601957000000000000
B0616153110914S11643411EA0186501945000000000000
B0616193110812S11643435EA0185201931000000000000
B0616233110708S11643458EA0184101921000000000000
B0616273110604S11643485EA0183101911000000000000
B0616313110502S11643514EA0182401903000000000000
B0616353110402S11643541EA0181701891000000000000
B0616393110303S11643568EA0180101875000000000000
B0616433110204S11643596EA0178201852000000000000
B0616473110106S11643626EA0176201834000000000000
B0616513110008S11643656EA0174701817000000000000
B0616553109909S11643683EA0172701798000000000000
B0616593109809S11643708EA0170301771000000000000
B0617033109704S11643734EA0167501744000000000000
B0617073109595S11643757EA0165801724000000000000
B0617113109487S11643776EA0165001722000000000000
B0617153109382S11643792EA0164501714000000000000
B0617193109278S11643802EA0163201697000000000000
B0617233109171S11643812EA0161801686000000000000
B0617273109066S11643822EA0160501671000000000000
B0617313108960S11643835EA0159101659000000000000
B0617353108855S11643849EA0157701644000000000000
B0617393108750S11643865EA0156201620000000000000
B0617433108643S11643880EA0154001604000000000000
B0617473108537S11643895EA0152701595000000000000
B0617513108430S11643906EA0152001587000000000000
B0617553108325S11643922EA0151701589000000000000
B0617593108225S11643938EA0152401596000000000000
B0618033108130S11643956EA0152401594000000000000
B0618073108036S11643968EA0152501599000000000000
B0618113107949S11643981EA0153001604000000000000
B0618153107866S11643996EA0153501609000000000000
B0618193107784S11644013EA0152701588000000000000
B0618233107698S11644027EA0150701567000000000000
B0618273107610S11644044EA0148901552000000000000
B0618313107519S11644057EA0147801541000000000000
B0618353107430S11644064EA0148701555000000000000
B0618393107354S11644095EA0149601559000000000000
B0618433107285S11644143EA0149801567000000000000
B0618473107234S11644194EA0152001591000000000000
B0618513107247S11644250EA0153501601000000000000
B0618553107307S11644256EA0152801589000000015000
B0618593107355S11644196EA0152201585000000015000
B0619033107370S11644109EA0151901586000000015000
B0619073107373S11644018EA0152301593000000000000
B0619113107342S11643938EA0152701595000000000000
B0619153107279S11643891EA0152501595000000000000
B0619193107205S11643877EA0152001589000000000000
B0619233107131S11643874EA0152501599000000000000
B0619273107061S11643884EA0153601611000000000000
B0619313107030S11643938EA0155401634000000000000
B0619353107065S11643984EA0155901625000000000000
B0619393107131S11643957EA0155201627000000015000
B0619433107161S11643880EA0156001636000000015000
B0619473107161S11643793EA0156301638000000015000
B0619513107136S11643711EA0156601642000000015000
B0619553107083S11643649EA0156501634000000015000
B0619593107008S11643620EA0155601623000000000000
B0620033106922S11643614EA0154401614000000000000
B0620073106835S11643618EA0154301618000000000000
B0620113106745S11643630EA0154701627000000000000
B0620153106661S11643652EA0155701627000000000000
B0620193106575S11643674EA0153701600000000000000
B0620233106483S11643695EA0151801579000000000000
B0620273106386S11643717EA0149601558000000000000
B0620313106289S11643736EA0147801541000000000000
B0620353106193S11643753EA0146401528000000000000
B0620393106098S11643773EA0145601518000000000000
B0620433106003S11643789EA0144301500000000000000
B0620473105908S11643812EA0142601486000000000000
B0620513105813S11643838EA0141401474000000000000
B0620553105717S11643865EA0140701472000000000000
B0620593105625S11643895EA0140401467000000000000
B0621033105535S11643925EA0140701474000000000000
B0621073105452S11643955EA0140601469000000000000
B0621113105368S11643984EA0140401470000000000000
B0621153105287S11644014EA0140101458000000000000
B0621193105205S11644044EA0138401443000000000000
B0621233105124S11644074EA0137301437000000000000
B0621273105042S11644100EA0136901430000000000000
B0621313104960S11644124EA0136801436000000000000
B0621353104881S11644143EA0136801429000000000000
B0621393104802S11644159EA0136501428000000000000
B0621433104722S11644170EA0136801437000000000000
B0621473104650S11644187EA0138201452000000000000
B0621513104587S11644224EA0139301462000000000000
B0621553104530S11644269EA0141201489000000000000
B0621593104518S11644325EA0144201519000000000000
B0622033104570S11644325EA0146301535000000000000
B0622073104575S11644246EA0147301546000000000000
B0622113104516S11644207EA0148701560000000000000
B0622153104465S11644243EA0149901571000000015000
B0622193104482S11644304EA0151101587000000015000
B0622233104546S11644290EA0153001607000000015000
B0622273104556S11644208EA0154701626000000015000
B0622313104501S11644161EA0156201639000000015000
B0622353104447S11644191EA0157201648000000015000
B0622393104451S11644256EA0158301662000000015000
B0622433104518S11644260EA0159801674000000015000
B0622473104546S11644176EA0160601691000000015000
B0622513104496S11644111EA0162701716000000015000
B0622553104435S11644122EA0164601730000000015000
B0622593104426S11644181EA0165901743000000015000
B0623033104483S11644203EA0167301761000000015000
B0623073104535S11644148EA0169101782000000015000
B0623113104530S11644066EA0170901795000000015000
B0623153104471S11644021EA0171501798000000015000
B0623193104410S11644040EA0172501810000000015000
B0623233104397S11644101EA0173901829000000015000
B0623273104449S11644135EA0175901848000000015000
B0623313104508S11644092EA0177401863000000015000
B0623353104514S11644008EA0178401875000000015000
B0623393104458S11643960EA0179401883000000015000
B0623433104409S11644001EA0180301892000000015000
B0623473104443S11644060EA0181901916000000015000
B0623513104513S11644040EA0183701930000000015000
B0623553104539S11643955EA0184801943000000015000
B0623593104508S11643870EA0186401959000000015000
B0624033104443S11643828EA0187801973000000015000
B0624073104379S11643845EA0189201986000000015000
B0624113104348S11643905EA0190201995000000015000
B0624153104370S11643965EA0191602020000000015000
B0624193104432S11643964EA0193802039000000015000
B0624233104475S11643897EA0195102047000000030000
B0624273104465S11643812EA0196002057000000045000
B0624313104405S11643774EA0197302068000000030000
B0624353104354S11643815EA0197902075000000030000
B0624393104375S11643879EA0199502098000000015000
B0624433104442S11643880EA0201702117000000015000
B0624473104487S11643817EA0203202132000000015000
B0624513104475S11643737EA0204902150000000015000
B0624553104421S11643702EA0205902159000000015000
B0624593104374S11643735EA0207002176000000015000
B0625033104393S11643787EA0208702192000000015000
B0625073104457S11643784EA0210102203000000015000
B0625113104501S11643718EA0211302216000000015000
B0625153104482S11643644EA0212602231000000015000
B0625193104425S11643617EA0213902241000000015000
B0625233104377S11643649EA0214802254000000015000
B0625273104375S11643708EA0216502272000000015000
B0625313104425S11643737EA0218102284000000015000
B0625353104483S11643705EA0219002293000000015000
B0625393104505S11643628EA0219702301000000015000
B0625433104471S11643557EA0220502312000000015000
B0625473104416S11643540EA0222002327000000015000
B0625513104374S11643570EA0223402341000000000000
B0625553104366S11643623EA0224802354000000000000
B0625593104403S11643667EA0225402352000000000000
B0626033104461S11643661EA0225602356000000000000
B0626073104503S11643597EA0226202366000000000000
B0626113104517S11643511EA0226502366000000000000
B0626153104488S11643424EA0226902375000000000000
B0626193104425S11643399EA0228002388000000000000
B0626233104406S11643455EA0229502399000000000000
B0626273104431S11643526EA0229602394000000000000
B0626313104430S11643610EA0228902388000000000000
B0626353104400S11643696EA0228702389000000000000
B0626393104356S11643782EA0228202381000000000000
B0626433104302S11643869EA0227302371000000000000
B0626473104247S11643961EA0226202360000000000000
B0626513104193S11644060EA0225302350000000000000
B0626553104139S11644159EA0223902333000000000000
B0626593104085S11644260EA0222202318000000000000
B0627033104031S11644361EA0221102299000000000000
B0627073103976S11644464EA0220102284000000000000
B0627113103924S11644567EA0219302275000000000000
B0627153103875S11644668EA0218402267000000000000
B0627193103828S11644768EA0217702259000000000000
B0627233103779S11644865EA0216802251000000000000
B0627273103732S11644959EA0216602253000000000000
B0627313103691S11645050EA0217002254000000000000
B0627353103652S11645139EA0215802239000000000000
B0627393103611S11645227EA0214902232000000000000
B0627433103572S11645314EA0214202225000000000000
B0627473103529S11645400EA0213202215000000000000
B0627513103485S11645485EA0212102207000000000000
B0627553103439S11645569EA0211502198000000000000
B0627593103395S11645656EA0210702193000000000000
B0628033103352S11645742EA0209802181000000000000
B0628073103308S11645828EA0208402165000000000000
B0628113103265S11645916EA0207102152000000000000
B0628153103220S11645998EA0207102159000000000000
B0628193103174S11646072EA0207302157000000000000
B0628233103129S11646146EA0206502147000000000000
B0628273103088S11646222EA0206002146000000000000
B0628313103056S11646298EA0206102148000000000000
B0628353103027S11646374EA0205902144000000000000
B0628393103006S11646453EA0205402138000000000000
B0628433102995S11646536EA0204202121000000000000
B0628473103000S11646623EA0202802109000000000000
B0628513103019S11646711EA0202402108000000000000
B0628553103045S11646795EA0201902100000000000000
B0628593103075S11646880EA0201002088000000000000
B0629033103106S11646961EA0200002077000000000000
B0629073103139S11647039EA0199002070000000000000
B0629113103174S11647115EA0198202061000000000000
B0629153103210S11647189EA0196802042000000000000
B0629193103251S11647264EA0194202018000000000000
B0629233103292S11647342EA0192802004000000000000
B0629273103337S11647420EA0191701993000000000000
B0629313103383S11647497EA0190601976000000000000
B0629353103437S11647575EA0188701957000000000000
B0629393103495S11647650EA0187001940000000000000
B0629433103563S11647721EA0185401923000000000000
B0629473103637S11647786EA0183701903000000000000
B0629513103716S11647848EA0181901888000000000000
B0629553103799S11647908EA0180701875000000000000
B0629593103888S11647965EA0178801853000000000000
B0630033103979S11648024EA0177301837000000000000
B0630073104072S11648081EA0175701813000000000000
B0630113104170S11648137EA0173701798000000000000
B0630153104267S11648191EA0172501786000000000000
B0630193104362S11648242EA0172301792000000000000
B0630233104451S11648286EA0173101804000000000000
B0630273104536S11648329EA0173601804000000000000
B0630313104617S11648376EA0173701809000000000000
B0630353104696S11648424EA0174101808000000000000
B0630393104773S11648473EA0173601805000000000000
B0630433104848S11648528EA0173001800000000000000
B0630473104921S11648584EA0172201787000000000000
B0630513104995S11648640EA0171201779000000000000
B0630553105071S11648698EA0170701771000000000000
B0630593105147S11648755EA0169401757000000000000
B0631033105225S11648814EA0168501751000000000000
B0631073105305S11648870EA0167801743000000000000
B0631113105389S11648926EA0166801728000000000000
B0631153105476S11648979EA0165201713000000000000
B0631193105563S11649032EA0164001700000000000000
B0631233105651S11649084EA0162901687000000000000
B0631273105739S11649136EA0161401672000000000000
B0631313105829S11649187EA0160301661000000000000
B0631353105920S11649234EA0159401655000000000000
B0631393106009S11649275EA0159101653000000000000
B0631433106100S11649313EA0158701648000000000000
B0631473106190S11649350EA0158001641000000000000
B0631513106280S11649385EA0157701640000000000000
B0631553106369S11649412EA0157601639000000000000
B0631593106458S11649437EA0157501640000000000000
B0632033106544S11649459EA0157401637000000000000
B0632073106631S11649480EA0157001632000000000000
B0632113106715S11649503EA0156601627000000000000
B0632153106800S11649524EA0156001623000000000000
B0632193106884S11649545EA0156001627000000000000
B0632233106958S11649560EA0158601661000000000000
B0632273107026S11649559EA0160201673000000000000
B0632313107088S11649512EA0160001670000000000000
B0632353107122S11649434EA0160601681000000000000
B0632393107090S11649360EA0160901677000000000000
B0632433107026S11649342EA0160501674000000000000
B0632473106986S11649383EA0160501673000000000000
B0632513107008S11649439EA0160401673000000000000
B0632553107057S11649483EA0159901669000000000000
B0632593107105S11649535EA0160101673000000000000
B0633033107148S11649595EA0161201690000000000000
B0633073107191S11649652EA0162901703000000000000
B0633113107251S11649665EA0164501723000000000000
B0633153107281S11649599EA0165501728000000000000
B0633193107252S11649528EA0165501728000000000000
B0633233107195S11649521EA0165501726000000000000
B0633273107144S11649564EA0165501733000000000000
B0633313107118S11649623EA0167001753000000000000
B0633353107151S11649671EA0168701766000000000000
B0633393107212S11649658EA0169101766000000000000
B0633433107242S11649577EA0168401758000000015000
B0633473107216S11649491EA0168401764000000015000
B0633513107157S11649438EA0169601777000000000000
B0633553107110S11649465EA0172001804000000000000
B0633593107153S11649498EA0173301810000000000000
B0634033107196S11649437EA0174001820000000015000
B0634073107161S11649370EA0175001835000000015000
B0634113107096S11649374EA0175901840000000000000
B0634153107064S11649438EA0176601848000000000000
B0634193107095S11649504EA0177301854000000000000
B0634233107162S11649521EA0177801860000000000000
B0634273107231S11649483EA0178201862000000000000
B0634313107268S11649398EA0178501866000000015000
B0634353107257S11649300EA0178801873000000000000
B0634393107212S11649222EA0179301878000000000000
B0634433107140S11649188EA0180001890000000000000
B0634473107071S11649218EA0181301904000000000000
B0634513107086S11649278EA0183401928000000000000
B0634553107135S11649234EA0184901936000000000000
B0634593107097S11649166EA0185901949000000015000
B0635033107042S11649200EA0186401952000000015000
B0635073107068S11649268EA0187001964000000015000
B0635113107135S11649259EA0188501983000000015000
B0635153107160S11649186EA0190602006000000015000
B0635193107123S11649121EA0192602023000000015000
B0635233107058S11649109EA0194202039000000015000
B0635273107019S11649157EA0195602050000000000000
B0635313107045S11649214EA0196402053000000000000
B0635353107107S11649204EA0197402067000000000000
B0635393107118S11649127EA0198802082000000015000
B0635433107069S11649079EA0200102103000000015000
B0635473107017S11649104EA0201602111000000000000
B0635513107025S11649162EA0202302114000000000000
B0635553107086S11649171EA0202002114000000000000
B0635593107134S11649112EA0202902128000000015000
B0636033107091S11649052EA0204902152000000030000
B0636073107048S11649101EA0206502161000000045000
B0636113107084S11649151EA0207702173000000030000
B0636153107136S11649114EA0209002189000000015000
B0636193107125S11649040EA0210502207000000015000
B0636233107061S11649028EA0212302228000000015000
B0636273107034S11649082EA0214002239000000015000
B0636313107062S11649134EA0214802243000000000000
B0636353107118S11649140EA0215202251000000000000
B0636393107166S11649093EA0216002262000000015000
B0636433107178S11649015EA0216802268000000015000
B0636473107136S11648950EA0217302269000000000000
B0636513107065S11648937EA0217502275000000000000
B0636553107003S11648976EA0218602290000000000000
B0636593107004S11649043EA0219802299000000000000
B0637033107038S11649108EA0218302263000000000000
B0637073107083S11649190EA0214902229000000000000
B0637113107135S11649279EA0212402211000000000000
B0637153107191S11649372EA0211202201000000000000
B0637193107250S11649463EA0210602198000000000000
B0637233107307S11649552EA0210502196000000000000
B0637273107359S11649642EA0211002192000000000000
B0637313107411S11649733EA0209902174000000000000
B0637353107464S11649827EA0208102159000000000000
B0637393107521S11649919EA0206302136000000000000
B0637433107577S11650013EA0204302123000000000000
B0637473107634S11650105EA0203202109000000000000
B0637513107688S11650196EA0202602109000000000000
B0637553107729S11650286EA0203202120000000000000
B0637593107768S11650369EA0203602121000000000000
B0638033107811S11650447EA0203102113000000000000
B0638073107857S11650523EA0202402107000000000000
B0638113107901S11650600EA0201602094000000000000
B0638153107948S11650679EA0200702087000000000000
B0638193107996S11650759EA0200502090000000000000
B0638233108040S11650835EA0201502103000000000000
B0638273108087S11650904EA0202702121000000000000
B0638313108136S11650952EA0205702151000000000000
B0638353108196S11650960EA0206202146000000000000
B0638393108258S11650994EA0206402156000000000000
B0638433108264S11651059EA0207602163000000000000
B0638473108196S11651067EA0207002159000000000000
B0638513108147S11651001EA0206702150000000000000
B0638553108145S11650903EA0206102148000000000000
B0638593108166S11650806EA0206202154000000000000
B0639033108223S11650744EA0207402177000000000000
B0639073108287S11650739EA0209502194000000000000
B0639113108339S11650773EA0210402198000000000000
B0639153108379S11650826EA0211102203000000000000
B0639193108418S11650887EA0211302207000000000000
B0639233108453S11650955EA0212002213000000000000
B0639273108487S11651032EA0211902206000000000000
B0639313108522S11651116EA0210402182000000000000
B0639353108560S11651207EA0208802169000000000000
B0639393108600S11651300EA0208502176000000000000
B0639433108639S11651391EA0209202180000000000000
B0639473108678S11651482EA0209402179000000000000
B0639513108720S11651575EA0209102173000000000000
B0639553108764S11651670EA0208902174000000000000
B0639593108802S11651769EA0209702186000000000000
B0640033108836S11651861EA0211502204000000000000
B0640073108864S11651951EA0211702204000000000000
B0640113108894S11652043EA0211302200000000000000
B0640153108924S11652138EA0211502203000000000000
B0640193108956S11652230EA0212202218000000000000
B0640233108990S11652317EA0213102224000000000000
B0640273109020S11652408EA0213002217000000000000
B0640313109044S11652501EA0212402213000000000000
B0640353109055S11652596EA0212402215000000000000
B0640393109062S11652688EA0213502233000000000000
B0640433109068S11652779EA0214002231000000000000
B0640473109073S11652871EA0214002233000000000000
B0640513109077S11652965EA0213902229000000000000
B0640553109079S11653060EA0213502225000000000000
B0640593109080S11653157EA0212402212000000000000
B0641033109085S11653256EA0211302196000000000000
B0641073109092S11653360EA0209802184000000000000
B0641113109105S11653463EA0209202181000000000000
B0641153109119S11653563EA0208502171000000000000
B0641193109132S11653664EA0207302160000000000000
B0641233109144S11653763EA0206602154000000000000
B0641273109151S11653861EA0205702143000000000000
B0641313109157S11653963EA0204202128000000000000
B0641353109162S11654067EA0203402117000000000000
B0641393109168S11654173EA0202302107000000000000
B0641433109175S11654278EA0201502101000000000000
B0641473109181S11654381EA0201402103000000000000
B0641513109189S11654483EA0201402102000000000000
B0641553109201S11654579EA0201602103000000000000
B0641593109213S11654676EA0201302099000000000000
B0642033109219S11654768EA0201602104000000000000
B0642073109227S11654854EA0202102112000000000000
B0642113109239S11654940EA0201902106000000000000
B0642153109253S11655027EA0201302100000000000000
B0642193109271S11655111EA0201402106000000000000
B0642233109291S11655192EA0201802109000000000000
B0642273109305S11655271EA0202402117000000000000
B0642313109324S11655349EA0202902120000000000000
B0642353109345S11655426EA0203102121000000000000
B0642393109365S11655506EA0203102122000000000000
B0642433109383S11655587EA0202902120000000000000
B0642473109401S11655669EA0202502112000000000000
B0642513109421S11655756EA0201502101000000000000
B0642553109437S11655847EA0201202103000000000000
B0642593109456S11655933EA0202602121000000000000
B0643033109474S11656008EA0204202138000000000000
B0643073109492S11656082EA0204602132000000000000
B0643113109512S11656163EA0204102130000000000000
B0643153109534S11656238EA0205802152000000000000
B0643193109577S11656285EA0207502165000000000000
B0643233109623S11656334EA0207302158000000000000
B0643273109651S11656405EA0207102160000000000000
B0643313109664S11656485EA0206902156000000000000
B0643353109674S11656567EA0207202163000000000000
B0643393109683S11656648EA0207502165000000000000
B0643433109695S11656731EA0207102157000000000000
B0643473109705S11656817EA0206902157000000000000
B0643513109717S11656901EA0206702153000000000000
B0643553109731S11656990EA0206302151000000000000
B0643593109746S11657079EA0206102152000000000000
B0644033109759S11657172EA0206702159000000000000
B0644073109774S11657263EA0207102164000000000000
B0644113109787S11657352EA0207602170000000000000
B0644153109803S11657441EA0208402177000000000000
B0644193109818S11657529EA0208402173000000000000
B0644233109837S11657621EA0208302174000000000000
B0644273109859S11657711EA0208202170000000000000
B0644313109881S11657803EA0207002151000000000000
B0644353109904S11657901EA0205002130000000000000
B0644393109934S11657997EA0204302134000000000000
B0644433109968S11658088EA0204102127000000000000
B0644473110006S11658179EA0203302115000000000000
B0644513110043S11658274EA0202202108000000000000
B0644553110082S11658369EA0202202114000000000000
B0644593110119S11658460EA0203202124000000000000
B0645033110154S11658546EA0204002130000000000000
B0645073110188S11658630EA0203802126000000000000
B0645113110224S11658711EA0204502140000000000000
B0645153110268S11658777EA0206502159000000000000
B0645193110314S11658836EA0207402169000000000000
B0645233110357S11658899EA0207802173000000000000
B0645273110398S11658966EA0208702185000000000000
B0645313110448S11659015EA0210102198000000000000
B0645353110505S11658988EA0211402212000000000000
B0645393110514S11658912EA0212302217000000000000
B0645433110476S11658845EA0212402219000000000000
B0645473110414S11658814EA0213002228000000000000
B0645513110354S11658837EA0213902240000000000000
B0645553110329S11658898EA0215002249000000000000
B0645593110360S11658958EA0215302247000000000000
B0646033110424S11658966EA0215602254000000000000
B0646073110471S11658907EA0216302260000000000000
B0646113110470S11658823EA0216602266000000000000
B0646153110418S11658773EA0217402279000000000000
B0646193110363S11658797EA0218802289000000000000
B0646233110346S11658866EA0218802282000000000000
B0646273110362S11658949EA0218102277000000000000
B0646313110388S11659036EA0217802275000000000000
B0646353110420S11659124EA0216802254000000000000
B0646393110455S11659219EA0214802237000000000000
B0646433110494S11659317EA0213602226000000000000
B0646473110533S11659417EA0212302209000000000000
B0646513110574S11659519EA0210602196000000000000
B0646553110614S11659620EA0209802186000000000000
B0646593110656S11659720EA0208902176000000000000
B0647033110698S11659816EA0208102166000000000000
B0647073110740S11659915EA0207102157000000000000
B0647113110784S11700011EA0206202149000000000000
B0647153110830S11700108EA0205302139000000000000
B0647193110875S11700203EA0204802135000000000000
B0647233110921S11700297EA0204302130000000000000
B0647273110966S11700390EA0203702124000000000000
B0647313111010S11700484EA0202902116000000000000
B0647353111053S11700576EA0202402112000000000000
B0647393111094S11700669EA0201902105000000000000
B0647433111131S11700762EA0201102097000000000000
B0647473111168S11700853EA0200602093000000000000
B0647513111204S11700944EA0200402091000000000000
B0647553111243S11701033EA0199602077000000000000
B0647593111282S11701124EA0198802071000000000000
B0648033111321S11701213EA0199202079000000000000
B0648073111360S11701300EA0199502081000000000000
B0648113111403S11701382EA0200102094000000000000
B0648153111438S11701459EA0201902117000000000000
B0648193111465S11701532EA0203802133000000000000
B0648233111485S11701603EA0205302148000000000000
B0648273111501S11701674EA0206102152000000000000
B0648313111523S11701746EA0205802145000000000000
B0648353111549S11701823EA0205002135000000000000
B0648393111581S11701905EA0203502119000000000000
B0648433111616S11701993EA0201702100000000000000
B0648473111655S11702084EA0200202081000000000000
B0648513111698S11702175EA0198802067000000000000
B0648553111744S11702265EA0197402054000000000000
B0648593111792S11702352EA0196302045000000000000
B0649033111841S11702437EA0195502035000000000000
B0649073111893S11702519EA0194202024000000000000
B0649113111946S11702599EA0193402016000000000000
B0649153111997S11702680EA0192602010000000000000
B0649193112049S11702762EA0191902000000000000000
B0649233112097S11702842EA0191802002000000000000
B0649273112145S11702920EA0191702000000000000000
B0649313112191S11702996EA0191401997000000000000
B0649353112235S11703071EA0190601988000000000000
B0649393112279S11703146EA0189601977000000000000
B0649433112322S11703222EA0189201973000000000000
B0649473112357S11703297EA0189101973000000000000
B0649513112391S11703371EA0188701974000000000000
B0649553112422S11703436EA0189901989000000000000
B0649593112452S11703497EA0190201986000000000000
B0650033112482S11703560EA0189601976000000000000
B0650073112516S11703624EA0188401963000000000000
B0650113112544S11703692EA0187501954000000000000
B0650153112574S11703763EA0186701946000000000000
B0650193112607S11703833EA0186601952000000000000
B0650233112637S11703906EA0186401942000000000000
B0650273112672S11703982EA0185801944000000000000
B0650313112707S11704058EA0187001959000000000000
B0650353112749S11704127EA0188301975000000000000
B0650393112794S11704188EA0190001992000000000000
B0650433112854S11704205EA0192202021000000000000
B0650473112886S11704144EA0194702037000000000000
B0650513112851S11704069EA0195002035000000000000
B0650553112776S11704053EA0195502046000000000000
B0650593112725S11704102EA0196802063000000000000
B0651033112730S11704171EA0198402077000000000000
B0651073112788S11704196EA0199302083000000000000
B0651113112834S11704142EA0200602101000000015000
B0651153112819S11704059EA0201202105000000015000
B0651193112750S11704019EA0201602109000000015000
B0651233112687S11704056EA0202902124000000015000
B0651273112719S11704108EA0204202142000000015000
B0651313112765S11704072EA0206302163000000015000
B0651353112752S11703998EA0207502171000000015000
B0651393112687S11703964EA0207902177000000015000
B0651433112635S11704004EA0209102195000000000000
B0651473112647S11704062EA0211002211000000000000
B0651513112700S11704069EA0211702214000000015000
B0651553112736S11704007EA0212602226000000015000
B0651593112707S11703930EA0213402233000000015000
B0652033112637S11703900EA0214102242000000015000
B0652073112580S11703938EA0215502253000000015000
B0652113112572S11704007EA0216602264000000030000
B0652153112617S11704050EA0217002264000000015000
B0652193112685S11704030EA0216902267000000015000
B0652233112719S11703958EA0218002288000000015000
B0652273112700S11703878EA0219502296000000015000
B0652313112650S11703812EA0219902300000000000000
B0652353112581S11703783EA0220502309000000000000
B0652393112530S11703828EA0221802322000000000000
B0652433112552S11703887EA0222902334000000000000
B0652473112607S11703878EA0224302349000000000000
B0652513112621S11703809EA0225402360000000000000
B0652553112578S11703754EA0226102365000000015000
B0652593112516S11703759EA0226902373000000015000
B0653033112490S11703813EA0227502378000000015000
B0653073112504S11703881EA0226802358000000000000
B0653113112546S11703956EA0224502336000000000000
B0653153112599S11704036EA0223402331000000000000
B0653193112658S11704114EA0223002332000000000000
B0653233112719S11704193EA0223002329000000000000
B0653273112781S11704271EA0222902329000000000000
B0653313112841S11704352EA0222602323000000000000
B0653353112899S11704432EA0221702314000000000000
B0653393112957S11704515EA0220502300000000000000
B0653433113016S11704597EA0218902284000000000000
B0653473113079S11704682EA0217702272000000000000
B0653513113144S11704766EA0216702258000000000000
B0653553113214S11704851EA0215102242000000000000
B0653593113285S11704937EA0213702228000000000000
B0654033113360S11705022EA0212402216000000000000
B0654073113432S11705107EA0211702213000000000000
B0654113113500S11705187EA0212002216000000000000
B0654153113561S11705265EA0212002217000000000000
B0654193113617S11705340EA0212102220000000000000
B0654233113672S11705408EA0212302220000000000000
B0654273113724S11705473EA0212302219000000000000
B0654313113772S11705536EA0212002216000000000000
B0654353113817S11705597EA0211802215000000000000
B0654393113860S11705655EA0211402210000000000000
B0654433113900S11705718EA0210902202000000000000
B0654473113941S11705783EA0209802190000000000000
B0654513113981S11705852EA0208902183000000000000
B0654553114021S11705919EA0208202173000000000000
B0654593114064S11705990EA0207202159000000000000
B0655033114112S11706064EA0205802147000000000000
B0655073114163S11706138EA0204602134000000000000
B0655113114215S11706212EA0203602125000000000000
B0655153114266S11706287EA0203002123000000000000
B0655193114315S11706360EA0202902122000000000000
B0655233114364S11706429EA0202602117000000000000
B0655273114415S11706497EA0201602106000000000000
B0655313114466S11706565EA0200902095000000000000
B0655353114515S11706638EA0199802084000000000000
B0655393114562S11706711EA0198802076000000000000
B0655433114609S11706784EA0198202069000000000000
B0655473114653S11706858EA0197502062000000000000
B0655513114697S11706933EA0196702053000000000000
B0655553114740S11707010EA0195102035000000000000
B0655593114783S11707091EA0193302020000000000000
B0656033114825S11707171EA0192502009000000000000
B0656073114865S11707253EA0191602000000000000000
B0656113114904S11707335EA0190601991000000000000
B0656153114946S11707413EA0190701994000000000000
B0656193114988S11707490EA0190401988000000000000
B0656233115033S11707566EA0189401978000000000000
B0656273115081S11707642EA0188501970000000000000
B0656313115130S11707713EA0188001961000000000000
B0656353115183S11707781EA0188101963000000000000
B0656393115234S11707851EA0187901959000000000000
B0656433115285S11707925EA0187101952000000000000
B0656473115332S11708003EA0186301942000000000000
B0656513115376S11708084EA0185501932000000000000
B0656553115420S11708167EA0184501923000000000000
B0656593115462S11708255EA0184001924000000000000
B0657033115497S11708339EA0185201944000000000000
B0657073115525S11708417EA0186401953000000000000
B0657113115550S11708496EA0186601949000000000000
B0657153115575S11708579EA0185701932000000000000
B0657193115602S11708666EA0183901914000000000000
B0657233115628S11708757EA0182701906000000000000
B0657273115653S11708848EA0182101900000000000000
B0657313115687S11708933EA0182901917000000015000
B0657353115715S11709015EA0184301927000000000000
B0657393115746S11709098EA0184401926000000015000
B0657433115779S11709177EA0184901931000000015000
B0657473115811S11709246EA0187001952000000015000
B0657513115869S11709277EA0189001979000000015000
B0657553115918S11709238EA0191401999000000015000
B0657593115915S11709169EA0191701997000000015000
B0658033115866S11709129EA0191301994000000000000
B0658073115804S11709136EA0191101998000000000000
B0658113115753S11709177EA0191702005000000000000
B0658153115737S11709243EA0191802003000000000000
B0658193115758S11709316EA0192102012000000000000
B0658233115800S11709379EA0193502028000000000000
B0658273115859S11709411EA0194502035000000000000
B0658313115911S11709459EA0194602032000000000000
B0658353115956S11709519EA0193802022000000000000
B0658393115997S11709583EA0192502005000000000000
B0658433116038S11709657EA0190701985000000000000
B0658473116075S11709736EA0189801983000000000000
B0658513116108S11709817EA0189001972000000000000
B0658553116140S11709899EA0188201961000000000000
B0658593116174S11709982EA0186301942000000000000
B0659033116210S11710069EA0184501923000000000000
B0659073116249S11710157EA0183101902000000000000
B0659113116290S11710250EA0180901880000000000000
B0659153116326S11710343EA0179001861000000000000
B0659193116370S11710432EA0177801853000000000000
B0659233116425S11710511EA0177201848000000000000
B0659273116481S11710584EA0177101848000000000000
B0659313116539S11710654EA0176701844000000000000
B0659353116602S11710715EA0176601844000000000000
B0659393116667S11710767EA0177501860000000000000
B0659433116728S11710803EA0179201874000000000000
B0659473116790S11710835EA0179601880000000000000
B0659513116854S11710865EA0179501877000000000000
B0659553116915S11710909EA0179101872000000000000
B0659593116962S11710974EA0179301877000000000000
B0700033116981S11711052EA0180201888000000000000
B0700073116980S11711130EA0181001897000000000000
B0700113116970S11711205EA0181401897000000000000
B0700153116955S11711283EA0181101892000000000000
B0700193116936S11711362EA0181301896000000000000
B0700233116920S11711443EA0181201893000000000000
B0700273116907S11711529EA0181101893000000000000
B0700313116901S11711616EA0180901881000000000000
B0700353116914S11711707EA0179001864000000000000
B0700393116940S11711799EA0177601847000000000000
B0700433116972S11711894EA0175401825000000000000
B0700473117010S11711989EA0173801810000000000000
B0700513117048S11712085EA0172801804000000000000
B0700553117087S11712178EA0172501801000000000000
B0700593117127S11712272EA0171701787000000000000
B0701033117167S11712366EA0170401772000000000000
B0701073117210S11712462EA0168901760000000000000
B0701113117247S11712562EA0168301759000000000000
B0701153117278S11712662EA0168101753000000000000
B0701193117309S11712764EA0167101741000000000000
B0701233117339S11712868EA0166301735000000000000
B0701273117369S11712971EA0165801727000000000000
B0701313117396S11713071EA0165001717000000000000
B0701353117419S11713169EA0164001709000000000000
B0701393117443S11713267EA0163401705000000000000
B0701433117470S11713364EA0162701698000000000000
B0701473117496S11713458EA0163301707000000000000
B0701513117523S11713550EA0163501708000000000000
B0701553117548S11713643EA0163801713000000000000
B0701593117569S11713735EA0164501721000000000000
B0702033117583S11713825EA0165401728000000000000
B0702073117598S11713917EA0165201722000000000000
B0702113117614S11714013EA0164801716000000000000
B0702153117631S11714113EA0164301716000000000000
B0702193117653S11714212EA0164701725000000000000
B0702233117676S11714307EA0166001738000000000000
B0702273117702S11714397EA0166301735000000000000
B0702313117730S11714486EA0166001733000000000000
B0702353117757S11714579EA0166501745000000000000
B0702393117780S11714661EA0168801772000000000000
B0702433117796S11714736EA0170501786000000000000
B0702473117806S11714813EA0171801799000000000000
B0702513117808S11714889EA0172801810000000000000
B0702553117800S11714969EA0173601815000000000000
B0702593117796S11715051EA0174401830000000000000
B0703033117808S11715123EA0177101861000000000000
B0703073117861S11715129EA0179401878000000000000
B0703113117878S11715053EA0180101884000000000000
B0703153117833S11714993EA0180901897000000000000
B0703193117773S11714995EA0182301910000000000000
B0703233117735S11715044EA0183101919000000000000
B0703273117755S11715100EA0184501934000000000000
B0703313117809S11715090EA0186201951000000000000
B0703353117829S11715015EA0187201959000000000000
B0703393117787S11714948EA0187801969000000000000
B0703433117722S11714940EA0189101984000000000000
B0703473117679S11714984EA0190201993000000000000
B0703513117683S11715044EA0191202006000000000000
B0703553117734S11715058EA0192802027000000000000
B0703593117776S11715006EA0194602043000000000000
B0704033117757S11714932EA0195902053000000000000
B0704073117691S11714915EA0196702061000000000000
B0704113117648S11714965EA0197702071000000000000
B0704153117665S11715023EA0199002087000000000000
B0704193117722S11715039EA0200202097000000000000
B0704233117781S11714992EA0201102110000000000000
B0704273117794S11714902EA0202202120000000000000
B0704313117751S11714822EA0203502139000000000000
B0704353117683S11714789EA0205402157000000000000
B0704393117617S11714800EA0206802167000000000000
B0704433117581S11714850EA0207502170000000000000
B0704473117594S11714911EA0207602172000000000000
B0704513117647S11714932EA0208502183000000000000
B0704553117699S11714880EA0209102188000000000000
B0704593117695S11714788EA0209502195000000000000
B0705033117640S11714726EA0210802211000000000000
B0705073117575S11714724EA0211802214000000000000
B0705113117535S11714774EA0211802213000000000000
B0705153117535S11714841EA0211302205000000000000
