ACAM4N6
HFDTE120121
HFFXA050
HFPLTPILOT:JOHN WELSH              
HFGTYGLIDERTYPE:HORNET      
HFGIDGLIDERID:VH-GMY      
HFDTM100GPSDATUM:
HFRFWFIRMWAREVERSION:F2.6
HFRHWHARDWAREVERSION:300 Series Version 2
HFFTYFRTYPE:CAMBRIDGE AERO INSTRUMENTS, 302+
HFGPS:GARMIN,LVS-25,12,18000
HFPRSPRESSALTSENSOR:INTERSEMA, MS5534-AP, 20000
I033638FXA3941ENL4247REX
LCAMSBVER:5FWVER:F26300
C120121061657120121000102
C0000000N00000000WTAKEOFF     
C3207549S11656849EBEVERLEY AF 
C3320833S11702415EArthur River
C3255999S11750999EHarrismith  
C3207549S11656849EBEVERLEY AF 
C0000000N00000000WLANDING     
B0618553207338S11656856EA0024800205000000000000
B0618573207338S11656856EA0024800205000000000000
B0618593207338S11656856EA0024800205000000000000
B0619013207338S11656856EA0024800205000000000000
B0619033207338S11656856EA0024800205000000000000
B0619053207338S11656856EA0024900205000000000000
B0619073207338S11656856EA0024800205000000000000
B0619093207338S11656856EA0024900205000000000000
B0619113207338S11656856EA0024800205000000000000
B0619133207338S11656856EA0024900205000000000000
B0619153207338S11656856EA0024800205000000000000
B0619173207338S11656856EA0024800205000000000000
B0619193207338S11656856EA0024800205000000000000
B0619213207338S11656856EA0024900205000000000000
B0619233207341S11656857EA0024800205000000000000
B0619243207342S11656860EA0024800205000000000000
B0619283207360S11656874EA0024800204000000000000
B0619323207391S11656899EA0024900205000000000000
B0619363207436S11656927EA0024700205000000000000
B0619403207490S11656961EA0024700206000000000000
B0619443207551S11657001EA0024700209000000000000
B0619483207612S11657044EA0025600218000000000000
B0619523207672S11657087EA0026100227000000000000
B0619563207731S11657129EA0027500247000000000000
B0620003207788S11657166EA0029500265000000000000
B0620043207843S11657203EA0031100282000000000000
B0620083207898S11657239EA0032500296000000000000
B0620123207956S11657277EA0033500305000000000000
B0620163208010S11657315EA0034800323000000000000
B0620203208062S11657355EA0036600341000000000000
B0620243208117S11657395EA0037900355000000000000
B0620283208170S11657434EA0039600372000000000000
B0620323208225S11657475EA0040600382000000000000
B0620363208277S11657514EA0042300399000000000000
B0620403208329S11657555EA0043400415000000000000
B0620443208382S11657594EA0045100430000000000000
B0620483208433S11657634EA0046200442000000000000
B0620523208485S11657680EA0047000448000000000000
B0620563208539S11657727EA0048400462000000000000
B0621003208594S11657774EA0050100489000000000000
B0621043208651S11657820EA0052300509000000000000
B0621083208706S11657867EA0054500534000000000000
B0621123208758S11657914EA0056200553000000000000
B0621163208805S11657959EA0058900583000000000000
B0621203208850S11658004EA0061600611000000000000
B0621243208896S11658049EA0063500623000000000000
B0621283208940S11658101EA0064100630000000000000
B0621323208966S11658177EA0064800639000000000000
B0621363208955S11658270EA0066100655000000000000
B0621403208912S11658357EA0067500667000000000000
B0621443208840S11658417EA0068400676000000000000
B0621483208754S11658435EA0069900704000000000000
B0621523208669S11658422EA0073100735000000000000
B0621563208586S11658399EA0076100766000000000000
B0622003208509S11658390EA0078800787000000000000
B0622043208476S11658443EA0079700788000000000000
B0622083208511S11658474EA0079600786000000000000
B0622123208555S11658435EA0079700790000000000000
B0622163208532S11658369EA0080600801000000000000
B0622203208468S11658399EA0081500810000000000000
B0622243208482S11658455EA0082100815000000000000
B0622283208532S11658434EA0082500819000000000000
B0622323208525S11658359EA0083700836000000015000
B0622363208455S11658339EA0085600856000000015000
B0622403208421S11658398EA0087000867000000015000
B0622443208454S11658430EA0088100878000000015000
B0622483208483S11658386EA0089000889000000015000
B0622523208450S11658323EA0090200900000000015000
B0622563208379S11658323EA0091400915000000000000
B0623003208346S11658382EA0092500922000000015000
B0623043208379S11658413EA0093200929000000015000
B0623083208417S11658366EA0093500936000000015000
B0623123208395S11658291EA0094500950000000015000
B0623163208324S11658282EA0096100965000000015000
B0623203208292S11658340EA0097700982000000015000
B0623243208324S11658366EA0098900989000000015000
B0623283208352S11658317EA0099601000000000015000
B0623323208314S11658253EA0100401007000000015000
B0623363208243S11658261EA0101401020000000015000
B0623403208214S11658320EA0102301027000000015000
B0623443208240S11658360EA0102801032000000000000
B0623483208281S11658333EA0103601042000000015000
B0623523208274S11658262EA0104501053000000015000
B0623563208213S11658229EA0105801066000000015000
B0624003208155S11658258EA0106801072000000000000
B0624043208144S11658313EA0107401080000000015000
B0624083208178S11658334EA0107301075000000000000
B0624123208218S11658303EA0107501085000000000000
B0624163208220S11658236EA0108701100000000000000
B0624203208164S11658200EA0109801107000000000000
B0624243208105S11658232EA0110301111000000000000
B0624283208103S11658295EA0110601112000000015000
B0624323208143S11658322EA0110701113000000000000
B0624363208186S11658282EA0111001118000000000000
B0624403208187S11658204EA0111901131000000000000
B0624443208136S11658145EA0113101141000000000000
B0624483208069S11658162EA0113901154000000000000
B0624523208044S11658227EA0114601152000000000000
B0624563208079S11658274EA0114401155000000000000
B0625003208126S11658252EA0115001164000000000000
B0625043208135S11658184EA0116101180000000000000
B0625083208079S11658149EA0117701190000000015000
B0625123208031S11658197EA0118301195000000015000
B0625163208043S11658258EA0118601198000000015000
B0625203208088S11658251EA0119101204000000015000
B0625243208099S11658182EA0120001215000000015000
B0625283208041S11658136EA0121101227000000015000
B0625323207987S11658174EA0122301241000000015000
B0625363207989S11658235EA0122601238000000015000
B0625403208032S11658247EA0123401252000000015000
B0625443208060S11658197EA0124301263000000015000
B0625483208043S11658130EA0125401272000000015000
B0625523207986S11658087EA0126001277000000000000
B0625563207921S11658104EA0126601284000000000000
B0626003207887S11658161EA0127201288000000000000
B0626043207901S11658216EA0127501291000000000000
B0626083207945S11658230EA0127701294000000000000
B0626123207975S11658186EA0128601308000000000000
B0626163207941S11658123EA0129801318000000000000
B0626203207874S11658125EA0130301320000000000000
B0626243207833S11658180EA0130601327000000000000
B0626283207845S11658240EA0131001326000000000000
B0626323207895S11658242EA0131101330000000000000
B0626363207913S11658178EA0131901340000000000000
B0626403207870S11658115EA0132801352000000000000
B0626443207801S11658115EA0133901359000000000000
B0626483207752S11658169EA0133801358000000000000
B0626523207736S11658243EA0133801359000000000000
B0626563207759S11658304EA0134701373000000000000
B0627003207802S11658297EA0136401390000000000000
B0627043207787S11658232EA0137601402000000000000
B0627083207718S11658225EA0138701417000000000000
B0627123207694S11658286EA0139901423000000000000
B0627163207737S11658304EA0140401432000000000000
B0627203207754S11658240EA0141201437000000000000
B0627243207710S11658173EA0142301459000000000000
B0627283207642S11658171EA0144101473000000000000
B0627323207603S11658225EA0145001474000000000000
B0627363207615S11658284EA0145301483000000015000
B0627403207655S11658305EA0146601495000000015000
B0627443207681S11658251EA0147301503000000015000
B0627483207646S11658187EA0148501519000000015000
B0627523207577S11658197EA0149501526000000000000
B0627563207555S11658264EA0150201531000000000000
B0628003207585S11658312EA0151101544000000015000
B0628043207633S11658284EA0151901549000000015000
B0628083207646S11658201EA0151901550000000015000
B0628123207628S11658105EA0152101553000000000000
B0628163207599S11658008EA0152301554000000000000
B0628203207562S11657906EA0151301538000000000000
B0628243207524S11657805EA0150201529000000000000
B0628283207485S11657710EA0149901532000000000000
B0628323207443S11657621EA0150101532000000000000
B0628363207403S11657533EA0149401523000000000000
B0628403207362S11657443EA0148901520000000000000
B0628443207321S11657356EA0148801520000000000000
B0628483207284S11657268EA0148401515000000000000
B0628523207251S11657179EA0148301515000000000000
B0628563207229S11657091EA0148301515000000000000
B0629003207213S11657004EA0147801505000000000000
B0629043207224S11656919EA0146401489000000000000
B0629083207265S11656849EA0144801471000000000000
B0629123207330S11656808EA0143201456000000000000
B0629163207403S11656791EA0142201448000000000000
B0629203207475S11656793EA0141301438000000000000
B0629243207544S11656801EA0140401431000000000000
B0629283207612S11656810EA0139401419000000000000
B0629323207681S11656819EA0138901414000000000000
B0629363207748S11656838EA0138401410000000000000
B0629403207813S11656857EA0138701415000000000000
B0629443207876S11656870EA0139101417000000000000
B0629483207944S11656884EA0138201404000000000000
B0629523208017S11656905EA0137401399000000000000
B0629563208092S11656925EA0137101395000000000000
B0630003208168S11656947EA0137001397000000000000
B0630043208236S11656966EA0137801405000000000000
B0630083208305S11656987EA0137901408000000000000
B0630123208374S11657003EA0138001403000000000000
B0630163208446S11657018EA0137101394000000000000
B0630203208519S11657031EA0136401388000000000000
B0630243208590S11657046EA0135501373000000000000
B0630283208665S11657064EA0134001358000000000000
B0630323208743S11657086EA0132101335000000000000
B0630363208825S11657107EA0130401321000000000000
B0630403208912S11657112EA0129301312000000000000
B0630443209000S11657120EA0128501302000000000000
B0630483209084S11657133EA0127801293000000000000
B0630523209167S11657151EA0126601279000000000000
B0630563209249S11657159EA0126101278000000000000
B0631003209327S11657161EA0125801274000000000000
B0631043209404S11657165EA0125501273000000000000
B0631083209478S11657174EA0125501270000000000000
B0631123209552S11657178EA0125501273000000000000
B0631163209622S11657189EA0126201285000000000000
B0631203209687S11657199EA0127401297000000000000
B0631243209721S11657160EA0129501320000000000000
B0631283209666S11657120EA0130601322000000000000
B0631323209594S11657168EA0130101321000000000000
B0631363209553S11657250EA0130801334000000000000
B0631403209559S11657330EA0131201327000000000000
B0631443209599S11657387EA0129601306000000000000
B0631483209657S11657421EA0128001294000000000000
B0631523209720S11657447EA0127001287000000000000
B0631563209783S11657467EA0125401263000000000000
B0632003209851S11657473EA0123601246000000000000
B0632043209919S11657462EA0122301235000000000000
B0632083209989S11657451EA0120401215000000000000
B0632123210063S11657454EA0118801201000000000000
B0632163210137S11657465EA0118701204000000000000
B0632203210203S11657491EA0119501211000000000000
B0632243210266S11657515EA0120301217000000000000
B0632283210329S11657530EA0119801208000000000000
B0632323210396S11657543EA0118501194000000000000
B0632363210469S11657550EA0117301184000000000000
B0632403210541S11657559EA0117001186000000000000
B0632443210612S11657569EA0117501192000000000000
B0632483210679S11657580EA0118301201000000000000
B0632523210739S11657569EA0120701227000000000000
B0632563210734S11657504EA0123101248000000000000
B0633003210664S11657502EA0124301260000000000000
B0633043210638S11657573EA0124601260000000000000
B0633083210679S11657608EA0125101268000000000000
B0633123210718S11657564EA0125901277000000000000
B0633163210708S11657491EA0126401283000000000000
B0633203210635S11657459EA0126701280000000000000
B0633243210560S11657508EA0126301284000000000000
B0633283210536S11657593EA0127401300000000000000
B0633323210562S11657658EA0128701312000000000000
B0633363210606S11657655EA0131001332000000000000
B0633403210627S11657601EA0131601339000000000000
B0633443210612S11657536EA0132301347000000000000
B0633483210548S11657508EA0132901349000000000000
B0633523210484S11657554EA0132401346000000000000
B0633563210453S11657629EA0133201363000000000000
B0634003210485S11657663EA0134801375000000000000
B0634043210500S11657614EA0135801388000000000000
B0634083210445S11657576EA0137001397000000000000
B0634123210385S11657619EA0137501401000000000000
B0634163210394S11657683EA0138101406000000000000
B0634203210440S11657677EA0138401409000000000000
B0634243210437S11657614EA0139501426000000000000
B0634283210371S11657590EA0141101439000000000000
B0634323210315S11657638EA0141601448000000000000
B0634363210314S11657703EA0142401450000000000000
B0634403210355S11657732EA0142201442000000000000
B0634443210411S11657740EA0141301436000000000000
B0634483210474S11657745EA0140501428000000000000
B0634523210543S11657748EA0139801421000000000000
B0634563210613S11657745EA0138701406000000000000
B0635003210687S11657746EA0137001390000000000000
B0635043210761S11657751EA0136201387000000000000
B0635083210831S11657755EA0135901382000000000000
B0635123210903S11657763EA0135501379000000000000
B0635163210974S11657768EA0136001386000000000000
B0635203211044S11657768EA0135901385000000000000
B0635243211115S11657763EA0136401395000000000000
B0635283211187S11657754EA0136101372000000000000
B0635323211267S11657746EA0134101362000000000000
B0635363211345S11657742EA0133201353000000000000
B0635403211421S11657741EA0132401348000000000000
B0635443211498S11657745EA0132201347000000000000
B0635483211571S11657751EA0132901358000000000000
B0635523211640S11657759EA0133901370000000000000
B0635563211707S11657762EA0134101365000000000000
B0636003211779S11657764EA0133501359000000000000
B0636043211854S11657768EA0133201356000000000000
B0636083211934S11657771EA0133101357000000000000
B0636123212016S11657772EA0133001357000000000000
B0636163212099S11657772EA0133101355000000000000
B0636203212185S11657768EA0133101356000000000000
B0636243212268S11657762EA0133301361000000000000
B0636283212347S11657751EA0134201370000000000000
B0636323212422S11657740EA0135501387000000000000
B0636363212491S11657731EA0136701395000000000000
B0636403212563S11657727EA0137101399000000000000
B0636443212636S11657719EA0137601411000000000000
B0636483212701S11657692EA0139301422000000000000
B0636523212703S11657616EA0141001446000000000000
B0636563212638S11657605EA0142301446000000000000
B0637003212610S11657673EA0141501437000000000000
B0637043212612S11657757EA0141001432000000000000
B0637083212634S11657835EA0140901433000000000000
B0637123212688S11657887EA0140401422000000000000
B0637163212757S11657910EA0139001409000000000000
B0637203212828S11657923EA0137801396000000000000
B0637243212900S11657931EA0136801389000000000000
B0637283212970S11657931EA0136501384000000000000
B0637323213043S11657937EA0136401387000000000000
B0637363213111S11657948EA0136901395000000000000
B0637403213178S11657959EA0136501382000000000000
B0637443213251S11657972EA0135601377000000000000
B0637483213322S11657972EA0135801388000000000000
B0637523213388S11657965EA0138201414000000000000
B0637563213427S11657914EA0140701438000000000000
B0638003213387S11657849EA0142201450000000000000
B0638043213319S11657871EA0143001455000000000000
B0638083213316S11657939EA0143401459000000000000
B0638123213362S11657930EA0144101468000000000000
B0638163213352S11657854EA0145101482000000000000
B0638203213283S11657833EA0146801500000000000000
B0638243213235S11657880EA0147201496000000000000
B0638283213252S11657939EA0147201501000000000000
B0638323213297S11657927EA0147901508000000000000
B0638363213308S11657854EA0148201512000000000000
B0638403213267S11657788EA0149801531000000000000
B0638443213199S11657803EA0150601535000000000000
B0638483213176S11657874EA0150901540000000000000
B0638523213215S11657896EA0151901550000000000000
B0638563213235S11657832EA0151701545000000000000
B0639003213188S11657764EA0152801564000000000000
B0639043213114S11657764EA0153701568000000000000
B0639083213066S11657826EA0154001575000000000000
B0639123213063S11657889EA0155001580000000000000
B0639163213108S11657915EA0154801575000000000000
B0639203213165S11657915EA0154401575000000000000
B0639243213226S11657911EA0154701581000000000000
B0639283213290S11657909EA0154701580000000000000
B0639323213358S11657910EA0154601580000000000000
B0639363213430S11657907EA0154301573000000000000
B0639403213507S11657904EA0153601568000000000000
B0639443213583S11657904EA0153601572000000000000
B0639483213656S11657905EA0153601568000000000000
B0639523213729S11657902EA0152901560000000000000
B0639563213802S11657904EA0152401553000000000000
B0640003213877S11657900EA0151801550000000000000
B0640043213953S11657888EA0151501544000000000000
B0640083214032S11657878EA0151101544000000000000
B0640123214115S11657866EA0150301532000000000000
B0640163214200S11657858EA0149601528000000000000
B0640203214279S11657852EA0149901536000000000000
B0640243214352S11657846EA0150801542000000000000
B0640283214423S11657845EA0150201532000000000000
B0640323214499S11657841EA0148801513000000000000
B0640363214577S11657837EA0147701506000000000000
B0640403214653S11657824EA0147901516000000000000
B0640443214727S11657815EA0148201507000000000000
B0640483214804S11657805EA0147101499000000000000
B0640523214882S11657787EA0146801500000000000000
B0640563214956S11657771EA0147501510000000000000
B0641003215029S11657750EA0148301518000000000000
B0641043215103S11657735EA0148801522000000000000
B0641083215173S11657716EA0149201526000000000000
B0641123215245S11657702EA0149501533000000000000
B0641163215306S11657677EA0151701558000000000000
B0641203215299S11657603EA0154301584000000000000
B0641243215227S11657572EA0156001598000000000000
B0641283215168S11657621EA0157801617000000000000
B0641323215178S11657689EA0158901622000000000000
B0641363215225S11657681EA0159301629000000000000
B0641403215214S11657606EA0159901633000000000000
B0641443215132S11657584EA0161201654000000000000
B0641483215081S11657645EA0163201674000000000000
B0641523215102S11657705EA0164601683000000000000
B0641563215147S11657689EA0165601696000000000000
B0642003215138S11657621EA0166901710000000000000
B0642043215069S11657594EA0168201724000000000000
B0642083215013S11657641EA0169201737000000000000
B0642123215020S11657705EA0170101739000000000000
B0642163215064S11657715EA0170701750000000000000
B0642203215076S11657657EA0172001764000000000000
B0642243215022S11657607EA0173201776000000000000
B0642283214952S11657620EA0174401788000000000000
B0642323214928S11657684EA0175401795000000000000
B0642363214960S11657727EA0175601798000000000000
B0642403214996S11657701EA0176601810000000000000
B0642443214980S11657636EA0177401818000000000000
B0642483214909S11657616EA0178201824000000000000
B0642523214863S11657673EA0179001833000000000000
B0642563214876S11657732EA0179501835000000000000
B0643003214925S11657745EA0179301830000000000000
B0643043214982S11657732EA0178701825000000000000
B0643083215042S11657712EA0178501824000000000000
B0643123215106S11657694EA0177501809000000000000
B0643163215175S11657676EA0176301804000000000000
B0643203215245S11657660EA0176301806000000000000
B0643243215315S11657647EA0176201802000000000000
B0643283215386S11657636EA0175501795000000000000
B0643323215459S11657625EA0174801787000000000000
B0643363215533S11657621EA0173701777000000000000
B0643403215609S11657624EA0173001766000000000000
B0643443215684S11657629EA0171801751000000000000
B0643483215758S11657642EA0170601742000000000000
B0643523215832S11657651EA0169701728000000000000
B0643563215910S11657649EA0167601706000000000000
B0644003215991S11657655EA0165501684000000000000
B0644043216072S11657679EA0163801671000000000000
B0644083216153S11657701EA0163401668000000000000
B0644123216235S11657714EA0163701674000000000000
B0644163216316S11657712EA0164001677000000000000
B0644203216395S11657710EA0163901676000000000000
B0644243216472S11657707EA0164201682000000000000
B0644283216545S11657702EA0164801688000000000000
B0644323216616S11657697EA0165101688000000000000
B0644363216689S11657690EA0165301690000000000000
B0644403216762S11657681EA0165101689000000000000
B0644443216835S11657667EA0164801685000000000000
B0644483216909S11657649EA0163601665000000000000
B0644523216988S11657637EA0162501657000000000000
B0644563217069S11657625EA0162101655000000000000
B0645003217149S11657620EA0161901655000000000000
B0645043217227S11657627EA0162401661000000000000
B0645083217303S11657644EA0163701681000000000000
B0645123217375S11657664EA0165301693000000000000
B0645163217444S11657686EA0165801694000000000000
B0645203217515S11657709EA0165801695000000000000
B0645243217583S11657731EA0166001695000000000000
B0645283217656S11657746EA0165201682000000000000
B0645323217734S11657764EA0163701668000000000000
B0645363217815S11657780EA0163201668000000000000
B0645403217895S11657798EA0163201666000000000000
B0645443217973S11657814EA0163901677000000000000
B0645483218050S11657827EA0163401658000000000000
B0645523218132S11657840EA0161101637000000000000
B0645563218215S11657850EA0159901630000000000000
B0646003218297S11657857EA0159301623000000000000
B0646043218380S11657853EA0158301611000000000000
B0646083218465S11657853EA0157301599000000000000
B0646123218548S11657857EA0156401593000000000000
B0646163218629S11657857EA0155601581000000000000
B0646203218711S11657853EA0153901561000000000000
B0646243218790S11657855EA0152901560000000000000
B0646283218867S11657861EA0152701555000000000000
B0646323218942S11657874EA0152101551000000000000
B0646363219015S11657885EA0151401538000000000000
B0646403219089S11657906EA0149901525000000000000
B0646443219164S11657926EA0149001511000000000000
B0646483219245S11657927EA0147401491000000000000
B0646523219325S11657911EA0145701480000000000000
B0646563219407S11657896EA0144801472000000000000
B0647003219489S11657896EA0144101466000000000000
B0647043219566S11657907EA0144001468000000000000
B0647083219639S11657927EA0144501473000000000000
B0647123219710S11657943EA0144401469000000000000
B0647163219780S11657958EA0143801460000000000000
B0647203219851S11657980EA0143001456000000000000
B0647243219921S11658002EA0142301442000000000000
B0647283219991S11658031EA0140901428000000000000
B0647323220063S11658067EA0139301409000000000000
B0647363220137S11658101EA0137801395000000000000
B0647403220216S11658122EA0136801389000000000000
B0647443220293S11658135EA0136501387000000000000
B0647483220364S11658145EA0136401383000000000000
B0647523220432S11658162EA0136001382000000000000
B0647563220498S11658180EA0135301370000000000000
B0648003220567S11658199EA0133801353000000000000
B0648043220637S11658219EA0132201336000000000000
B0648083220707S11658240EA0130901323000000000000
B0648123220771S11658278EA0130001313000000000000
B0648163220831S11658323EA0128801301000000000000
B0648203220895S11658361EA0128201298000000000000
B0648243220957S11658392EA0128301297000000000000
B0648283221022S11658407EA0128201299000000000000
B0648323221084S11658408EA0127901293000000000000
B0648363221147S11658408EA0127301288000000000000
B0648403221207S11658403EA0127201287000000000000
B0648443221264S11658388EA0126801282000000000000
B0648483221325S11658378EA0126101274000000000000
B0648523221387S11658378EA0125601271000000000000
B0648563221451S11658375EA0125201265000000000000
B0649003221517S11658370EA0124501257000000000000
B0649043221586S11658374EA0123701248000000000000
B0649083221654S11658378EA0123201243000000000000
B0649123221723S11658383EA0122101230000000000000
B0649163221793S11658396EA0120401209000000000000
B0649203221863S11658424EA0118301188000000000000
B0649243221929S11658464EA0117101181000000000000
B0649283221993S11658502EA0117101182000000000000
B0649323222053S11658535EA0116901178000000000000
B0649363222115S11658564EA0116301169000000000000
B0649403222178S11658593EA0114901152000000000000
B0649443222239S11658632EA0113501138000000000000
B0649483222296S11658680EA0112501131000000000000
B0649523222349S11658730EA0112001127000000000000
B0649563222406S11658773EA0111501120000000000000
B0650003222469S11658801EA0111001118000000000000
B0650043222534S11658814EA0110501108000000000000
B0650083222601S11658810EA0109501098000000000000
B0650123222669S11658789EA0108801092000000000000
B0650163222731S11658751EA0108201083000000000000
B0650203222789S11658703EA0107001074000000000000
B0650243222841S11658645EA0106201063000000000000
B0650283222887S11658581EA0105401053000000000000
B0650323222928S11658512EA0104301043000000000000
B0650363222965S11658444EA0103501036000000000000
B0650403222998S11658378EA0103401038000000000000
B0650443223025S11658310EA0103101030000000000000
B0650483223045S11658236EA0102501028000000000000
B0650523223059S11658158EA0101501012000000000000
B0650563223077S11658083EA0100301002000000000000
B0651003223101S11658014EA0099400992000000000000
B0651043223132S11657950EA0098800982000000000000
B0651083223159S11657884EA0097500971000000000000
B0651123223179S11657810EA0096800963000000000000
B0651163223196S11657735EA0095600947000000000000
B0651203223205S11657655EA0094300938000000000000
B0651243223209S11657577EA0093500930000000000000
B0651283223216S11657502EA0092600921000000000000
B0651323223228S11657428EA0092100915000000000000
B0651363223244S11657356EA0091600911000000000000
B0651403223274S11657302EA0091600914000000000000
B0651443223313S11657270EA0091600910000000000000
B0651483223357S11657247EA0090700900000000000000
B0651523223404S11657228EA0089600887000000000000
B0651563223449S11657198EA0088200873000000000000
B0652003223495S11657164EA0087200864000000000000
B0652043223541S11657125EA0085900848000000000000
B0652083223592S11657087EA0084400835000000000000
B0652123223649S11657064EA0083700824000000000000
B0652163223710S11657060EA0082900817000000000000
B0652203223773S11657061EA0082200812000000000000
B0652243223833S11657081EA0081700806000000000000
B0652283223883S11657122EA0081100798000000000000
B0652323223922S11657185EA0080000786000000000000
B0652363223947S11657261EA0078800777000000000000
B0652403223960S11657345EA0077600763000000000000
B0652443223965S11657429EA0076500749000000000000
B0652483223965S11657515EA0075100734000000000000
B0652523223964S11657601EA0073500717000000000000
B0652563223965S11657686EA0072100703000000000000
B0653003223969S11657774EA0070600686000000000000
B0653043223976S11657863EA0068900668000000000000
B0653083223981S11657950EA0067900661000000000000
B0653123223989S11658035EA0068100664000000000000
B0653163224004S11658117EA0067400655000000000000
B0653203224018S11658199EA0067200656000000000000
B0653243224047S11658268EA0067800668000000000000
B0653283224098S11658261EA0069700686000000000000
B0653323224086S11658193EA0070800691000000000000
B0653363224016S11658186EA0070800689000000000000
B0653403223981S11658255EA0070600686000000000000
B0653443224024S11658286EA0071500707000000000000
B0653483224047S11658230EA0073200719000000015000
B0653523224000S11658175EA0073800724000000015000
B0653563223930S11658191EA0073900721000000000000
B0654003223900S11658264EA0073900724000000000000
B0654043223933S11658317EA0074500735000000000000
B0654083223981S11658290EA0076200753000000015000
B0654123223953S11658225EA0077700768000000015000
B0654163223885S11658226EA0077900764000000000000
B0654203223852S11658296EA0078000768000000000000
B0654243223879S11658359EA0078700782000000000000
B0654283223927S11658378EA0079300780000000000000
B0654323223956S11658329EA0079000779000000000000
B0654363223927S11658262EA0078700771000000000000
B0654403223856S11658231EA0078200774000000000000
B0654443223784S11658252EA0079500789000000000000
B0654483223792S11658316EA0079800777000000000000
B0654523223836S11658261EA0079100781000000015000
B0654563223775S11658208EA0080400797000000015000
B0655003223722S11658274EA0080900790000000015000
B0655043223771S11658329EA0080200785000000015000
B0655083223810S11658255EA0081000804000000015000
B0655123223761S11658182EA0082900826000000015000
B0655163223687S11658206EA0084500841000000015000
B0655203223671S11658283EA0085300844000000015000
B0655243223722S11658316EA0085500848000000000000
B0655283223764S11658270EA0086700866000000015000
B0655323223734S11658201EA0088100874000000015000
B0655363223661S11658193EA0088500876000000000000
B0655403223615S11658257EA0088800880000000000000
B0655443223639S11658321EA0089100882000000000000
B0655483223687S11658290EA0089700888000000015000
B0655523223651S11658217EA0090600901000000015000
B0655563223579S11658239EA0091700910000000015000
B0656003223574S11658317EA0092000917000000015000
B0656043223622S11658339EA0092900930000000015000
B0656083223640S11658277EA0093900939000000015000
B0656123223582S11658225EA0094500943000000015000
B0656163223518S11658268EA0095200954000000015000
B0656203223530S11658336EA0096100958000000015000
B0656243223580S11658323EA0096700968000000015000
B0656283223571S11658253EA0097100968000000015000
B0656323223502S11658206EA0096700962000000015000
B0656363223428S11658248EA0097000968000000015000
B0656403223448S11658322EA0097400969000000015000
B0656443223517S11658346EA0096400958000000000000
B0656483223584S11658334EA0096700968000000000000
B0656523223606S11658261EA0098400988000000015000
B0656563223587S11658179EA0099200991000000015000
B0657003223518S11658141EA0099700997000000015000
B0657043223440S11658153EA0100000998000000000000
B0657083223370S11658190EA0100001002000000000000
B0657123223350S11658258EA0101301016000000000000
B0657163223391S11658286EA0101601010000000000000
B0657203223420S11658232EA0101401014000000015000
B0657243223378S11658169EA0101801013000000015000
B0657283223298S11658169EA0101401013000000015000
B0657323223257S11658238EA0102301030000000000000
B0657363223289S11658288EA0103501036000000015000
B0657403223328S11658249EA0103501035000000015000
B0657443223301S11658180EA0103701041000000015000
B0657483223229S11658149EA0104001042000000015000
B0657523223154S11658141EA0104401048000000000000
B0657563223097S11658190EA0104601044000000000000
B0658003223101S11658266EA0104101042000000000000
B0658043223147S11658309EA0105301059000000000000
B0658083223171S11658258EA0106901072000000015000
B0658123223111S11658222EA0107001073000000015000
B0658163223050S11658266EA0107501084000000000000
B0658203223049S11658339EA0109001103000000015000
B0658243223095S11658349EA0110201111000000015000
B0658283223097S11658290EA0111001122000000015000
B0658323223028S11658283EA0111501123000000015000
B0658363223002S11658355EA0112501139000000015000
B0658403223040S11658399EA0113501146000000015000
B0658443223077S11658366EA0114301154000000015000
B0658483223062S11658307EA0115101157000000015000
B0658523223001S11658275EA0115301165000000015000
B0658563222947S11658307EA0117201192000000015000
B0659003222946S11658364EA0117901181000000015000
B0659043223003S11658379EA0116001179000000015000
B0659083223046S11658344EA0117501199000000015000
B0659123223047S11658281EA0118301196000000015000
B0659163222999S11658223EA0117401185000000015000
B0659203222924S11658197EA0116901181000000015000
B0659243222845S11658204EA0117901196000000000000
B0659283222786S11658260EA0118501195000000000000
B0659323222769S11658342EA0118301195000000000000
B0659363222791S11658418EA0118601200000000000000
B0659403222843S11658457EA0119201215000000015000
B0659443222885S11658431EA0121301231000000015000
B0659483222851S11658373EA0121701225000000015000
B0659523222772S11658379EA0121101225000000015000
B0659563222716S11658443EA0121601232000000015000
B0700003222715S11658526EA0121801227000000000000
B0700043222764S11658577EA0121401230000000000000
B0700083222822S11658572EA0122101237000000000000
B0700123222878S11658546EA0122601245000000000000
B0700163222924S11658504EA0124301263000000000000
B0700203222921S11658439EA0126201283000000000000
B0700243222860S11658407EA0126701283000000000000
B0700283222796S11658448EA0126801288000000000000
B0700323222780S11658520EA0127501293000000000000
B0700363222813S11658569EA0128201304000000000000
B0700403222859S11658570EA0129401316000000000000
B0700443222880S11658522EA0130601322000000000000
B0700483222855S11658461EA0131101327000000000000
B0700523222791S11658437EA0131901339000000000000
B0700563222730S11658470EA0133001347000000000000
B0701003222704S11658537EA0133401352000000000000
B0701043222718S11658599EA0133901360000000000000
B0701083222757S11658638EA0134601364000000000000
B0701123222807S11658659EA0134201355000000000000
B0701163222867S11658672EA0133301350000000000000
B0701203222929S11658681EA0133201347000000000000
B0701243222995S11658687EA0132001330000000000000
B0701283223064S11658693EA0130401319000000000000
B0701323223125S11658697EA0130201319000000000000
B0701363223186S11658700EA0129101302000000000000
B0701403223250S11658707EA0127601289000000000000
B0701443223314S11658708EA0127101286000000000000
B0701483223379S11658706EA0126101266000000000000
B0701523223446S11658699EA0124301250000000000000
B0701563223517S11658704EA0123101241000000000000
B0702003223584S11658711EA0122301230000000000000
B0702043223654S11658724EA0120901217000000000000
B0702083223725S11658738EA0119901208000000000000
B0702123223792S11658760EA0118301189000000000000
B0702163223860S11658797EA0116701171000000000000
B0702203223929S11658834EA0115501158000000000000
B0702243223995S11658873EA0114301143000000000000
B0702283224064S11658911EA0112501125000000000000
B0702323224133S11658949EA0111201114000000000000
B0702363224202S11658983EA0110001099000000000000
B0702403224269S11659018EA0108801090000000000000
B0702443224332S11659062EA0107701078000000000000
B0702483224393S11659107EA0106301062000000000000
B0702523224454S11659149EA0104801047000000000000
B0702563224518S11659187EA0103501031000000000000
B0703003224581S11659228EA0102301022000000000000
B0703043224641S11659272EA0101901019000000000000
B0703083224698S11659310EA0102201025000000000000
B0703123224757S11659322EA0102501024000000000000
B0703163224814S11659315EA0101601013000000000000
B0703203224873S11659313EA0100601004000000000000
B0703243224931S11659311EA0099200988000000000000
B0703283224991S11659313EA0098400982000000000000
B0703323225049S11659311EA0098100977000000000000
B0703363225108S11659310EA0097600974000000000000
B0703403225165S11659309EA0097000965000000000000
B0703443225222S11659300EA0096100954000000000000
B0703483225281S11659292EA0094700941000000000000
B0703523225341S11659280EA0093200925000000000000
B0703563225404S11659288EA0092200915000000000000
B0704003225464S11659305EA0092500928000000000000
B0704043225521S11659310EA0093400935000000000000
B0704083225578S11659308EA0094000939000000000000
B0704123225636S11659304EA0094300941000000000000
B0704163225692S11659291EA0095300954000000000000
B0704203225720S11659244EA0096200957000000000000
B0704243225693S11659185EA0095300944000000000000
B0704283225628S11659175EA0094200937000000000000
B0704323225572S11659222EA0093400927000000000000
B0704363225554S11659300EA0092900925000000000000
B0704403225565S11659375EA0093100930000000000000
B0704443225598S11659431EA0093600931000000000000
B0704483225650S11659444EA0093000927000000000000
B0704523225705S11659441EA0092800926000000000000
B0704563225757S11659431EA0092200915000000000000
B0705003225812S11659413EA0090500897000000000000
B0705043225875S11659404EA0089000883000000000000
B0705083225940S11659408EA0088500877000000000000
B0705123226005S11659425EA0087700863000000000000
B0705163226070S11659461EA0085900845000000000000
B0705203226128S11659513EA0084800839000000000000
B0705243226179S11659570EA0084500838000000000000
B0705283226221S11659626EA0084500837000000000000
B0705323226258S11659679EA0084100832000000000000
B0705363226292S11659734EA0083100819000000000000
B0705403226325S11659790EA0082000803000000000000
B0705443226355S11659851EA0080600791000000000000
B0705483226386S11659915EA0079600781000000000000
B0705523226417S11659981EA0078600770000000000000
B0705563226448S11700049EA0077900767000000000000
B0706003226482S11700114EA0078200770000000000000
B0706043226529S11700153EA0079200785000000000000
B0706083226553S11700107EA0080100785000000000000
B0706123226500S11700067EA0078800769000000000000
B0706163226434S11700103EA0078300769000000000000
B0706203226408S11700181EA0078600774000000000000
B0706243226431S11700250EA0078800780000000000000
B0706283226479S11700286EA0079300780000000000000
B0706323226529S11700255EA0079700793000000000000
B0706363226513S11700195EA0081100800000000015000
B0706403226448S11700181EA0080400785000000015000
B0706443226399S11700236EA0079700782000000015000
B0706483226409S11700306EA0080000786000000015000
B0706523226462S11700307EA0080100787000000015000
B0706563226482S11700249EA0080400791000000015000
B0707003226426S11700206EA0080100782000000015000
B0707043226361S11700242EA0079400778000000015000
B0707083226338S11700319EA0079700787000000015000
B0707123226360S11700385EA0080300790000000015000
B0707163226414S11700413EA0079900783000000015000
B0707203226475S11700406EA0080200794000000000000
B0707243226461S11700348EA0081500799000000000000
B0707283226391S11700367EA0081000794000000000000
B0707323226369S11700444EA0081500807000000000000
B0707363226414S11700485EA0082400814000000015000
B0707403226449S11700437EA0082700811000000015000
B0707443226400S11700379EA0082200805000000015000
B0707483226326S11700406EA0082200810000000015000
B0707523226308S11700488EA0082900820000000015000
B0707563226344S11700553EA0083800831000000015000
B0708003226397S11700536EA0084900842000000015000
B0708043226381S11700467EA0085300841000000015000
B0708083226308S11700449EA0085300844000000015000
B0708123226256S11700505EA0086600860000000015000
B0708163226267S11700576EA0087000861000000015000
B0708203226325S11700611EA0087000864000000015000
B0708243226366S11700572EA0088400884000000015000
B0708283226317S11700523EA0088700872000000015000
B0708323226247S11700557EA0088500881000000015000
B0708363226222S11700640EA0089500890000000015000
B0708403226234S11700719EA0090000893000000015000
B0708443226277S11700764EA0090500902000000015000
B0708483226327S11700766EA0090800895000000000000
B0708523226374S11700738EA0089300885000000015000
B0708563226394S11700679EA0088800881000000015000
B0709003226366S11700611EA0088200871000000015000
B0709043226306S11700570EA0087500863000000015000
B0709083226234S11700552EA0086900854000000000000
B0709123226156S11700541EA0086500855000000000000
B0709163226079S11700541EA0086900861000000000000
B0709203226022S11700585EA0087700864000000000000
B0709243226013S11700662EA0086700851000000000000
B0709283226052S11700717EA0086100848000000000000
B0709323226106S11700730EA0085500844000000000000
B0709363226163S11700717EA0086000853000000000000
B0709403226187S11700666EA0087200861000000000000
B0709443226131S11700628EA0087000860000000000000
B0709483226076S11700680EA0087000862000000000000
B0709523226089S11700754EA0087400860000000000000
B0709563226148S11700765EA0087300867000000000000
B0710003226175S11700705EA0087700863000000015000
B0710043226132S11700640EA0087000859000000015000
B0710083226056S11700645EA0087100866000000000000
B0710123225998S11700701EA0088100877000000000000
B0710163225989S11700777EA0088700878000000000000
B0710203226035S11700816EA0088200873000000000000
B0710243226093S11700806EA0087800868000000000000
B0710283226145S11700778EA0087800871000000000000
B0710323226145S11700715EA0088400877000000000000
B0710363226089S11700676EA0088200864000000000000
B0710403226015S11700696EA0086800853000000000000
B0710443225941S11700727EA0087000866000000000000
B0710483225872S11700761EA0088500879000000000000
B0710523225846S11700831EA0088800876000000000000
B0710563225888S11700870EA0088100869000000000000
B0711003225932S11700836EA0088100872000000000000
B0711043225941S11700766EA0088100873000000000000
B0711083225901S11700702EA0088500876000000000000
B0711123225829S11700708EA0089000888000000000000
B0711163225801S11700780EA0089800885000000000000
B0711203225836S11700844EA0089000879000000000000
B0711243225894S11700835EA0088900885000000000000
B0711283225927S11700778EA0089500893000000015000
B0711323225894S11700709EA0090000888000000015000
B0711363225816S11700697EA0089700898000000000000
B0711403225767S11700753EA0092000919000000000000
B0711443225799S11700801EA0092600918000000000000
B0711483225845S11700769EA0092300913000000000000
B0711523225829S11700695EA0092100917000000000000
B0711563225770S11700652EA0093000928000000000000
B0712003225698S11700669EA0093700932000000000000
B0712043225660S11700736EA0093600929000000000000
B0712083225676S11700810EA0093200925000000000000
B0712123225723S11700853EA0093200926000000000000
B0712163225783S11700853EA0092900923000000000000
B0712203225840S11700838EA0092800924000000000000
B0712243225897S11700814EA0092800924000000000000
B0712283225958S11700797EA0092500917000000000000
B0712323226022S11700787EA0091500907000000000000
B0712363226069S11700836EA0091300909000000000000
B0712403226061S11700918EA0091100908000000000000
B0712443226005S11700981EA0090900902000000000000
B0712483225929S11701007EA0090000885000000000000
B0712523225849S11701017EA0088500870000000000000
B0712563225763S11701025EA0087500865000000000000
B0713003225676S11701038EA0087800873000000000000
B0713043225593S11701057EA0088300873000000000000
B0713083225513S11701085EA0088500878000000000000
B0713123225437S11701113EA0088200869000000000000
B0713163225356S11701137EA0086900857000000000000
B0713203225276S11701159EA0085900843000000000000
B0713243225194S11701172EA0084900835000000000000
B0713283225113S11701174EA0084200828000000000000
B0713323225032S11701168EA0083600821000000000000
B0713363224953S11701155EA0082900815000000000000
B0713403224873S11701143EA0082000806000000000000
B0713443224792S11701131EA0081700805000000000000
B0713483224711S11701116EA0081500799000000000000
B0713523224628S11701098EA0080800794000000000000
B0713563224546S11701100EA0081600801000000000000
B0714003224520S11701174EA0082100805000000000000
B0714043224563S11701212EA0082100811000000000000
B0714083224600S11701174EA0083000820000000000000
B0714123224592S11701102EA0083500821000000000000
B0714163224531S11701053EA0083400822000000000000
B0714203224454S11701072EA0082900811000000000000
B0714243224415S11701146EA0082500814000000000000
B0714283224445S11701195EA0083500828000000000000
B0714323224483S11701170EA0083500822000000000000
B0714363224473S11701102EA0082700815000000015000
B0714403224412S11701057EA0082300809000000015000
B0714443224334S11701044EA0080800791000000000000
B0714483224251S11701046EA0080200791000000000000
B0714523224168S11701060EA0080800798000000000000
B0714563224089S11701083EA0081000796000000000000
B0715003224011S11701111EA0080300789000000000000
B0715043223930S11701117EA0080100788000000000000
B0715083223852S11701116EA0079900786000000000000
B0715123223777S11701099EA0079500780000000000000
B0715163223703S11701077EA0078900775000000000000
B0715203223627S11701053EA0078500767000000000000
B0715243223553S11701018EA0077800762000000000000
B0715283223482S11700983EA0077600759000000000000
B0715323223409S11700952EA0076900753000000000000
B0715363223332S11700931EA0076700752000000000000
B0715403223257S11700910EA0076700750000000000000
B0715443223180S11700892EA0076100746000000000000
B0715483223105S11700879EA0076800753000000000000
B0715523223053S11700922EA0077400757000000000000
B0715563223075S11700973EA0077400758000000000000
B0716003223124S11700956EA0077400758000000000000
B0716043223136S11700887EA0077200754000000000000
B0716083223090S11700821EA0076700750000000000000
B0716123223015S11700806EA0076800753000000000000
B0716163222990S11700870EA0077100752000000000000
B0716203223040S11700886EA0077000757000000000000
B0716243223059S11700821EA0077700766000000015000
B0716283223011S11700765EA0078000765000000015000
B0716323222943S11700786EA0078200766000000000000
B0716363222937S11700849EA0078600771000000000000
B0716403222982S11700857EA0078600774000000000000
B0716443223002S11700797EA0078700775000000000000
B0716483222965S11700732EA0079000780000000000000
B0716523222899S11700719EA0079800786000000000000
B0716563222848S11700762EA0080100784000000000000
B0717003222858S11700822EA0079600777000000000000
B0717043222903S11700814EA0079600785000000000000
B0717083222904S11700743EA0080100788000000000000
B0717123222843S11700700EA0080300792000000000000
B0717163222781S11700732EA0080700791000000000000
B0717203222780S11700796EA0080300787000000000000
B0717243222822S11700819EA0080100789000000000000
B0717283222861S11700782EA0080800796000000000000
B0717323222858S11700713EA0081100800000000000000
B0717363222800S11700667EA0081100797000000000000
B0717403222733S11700691EA0081100796000000000000
B0717443222722S11700756EA0081100795000000000000
B0717483222764S11700783EA0080900796000000000000
B0717523222798S11700738EA0081400807000000000000
B0717563222780S11700669EA0081900806000000015000
B0718003222711S11700630EA0081800807000000000000
B0718043222647S11700662EA0082400814000000000000
B0718083222635S11700725EA0082000803000000000000
B0718123222677S11700762EA0081300799000000000000
B0718163222729S11700757EA0081100804000000000000
B0718203222759S11700700EA0081600807000000000000
B0718243222756S11700619EA0081100795000000000000
B0718283222751S11700531EA0080800800000000000000
B0718323222747S11700444EA0081300804000000000000
B0718363222754S11700359EA0081300803000000000000
B0718403222800S11700315EA0082200820000000000000
B0718443222848S11700329EA0084500847000000000000
B0718483222864S11700383EA0086500859000000000000
B0718523222833S11700436EA0087100865000000000000
B0718563222768S11700441EA0087800874000000000000
B0719003222716S11700393EA0088500878000000000000
B0719043222711S11700318EA0088500879000000000000
B0719083222755S11700273EA0089000892000000000000
B0719123222804S11700293EA0090700910000000000000
B0719163222822S11700351EA0092000919000000000000
B0719203222781S11700407EA0093500942000000000000
B0719243222715S11700398EA0095200956000000000000
B0719283222679S11700333EA0096200962000000000000
B0719323222704S11700271EA0097000973000000000000
B0719363222755S11700280EA0097800978000000000000
B0719403222770S11700349EA0098700992000000000000
B0719443222731S11700415EA0100201017000000000000
B0719483222666S11700441EA0102401034000000000000
B0719523222601S11700415EA0103501041000000000000
B0719563222566S11700345EA0103801040000000000000
B0720003222581S11700270EA0104101048000000000000
B0720043222627S11700233EA0105701066000000000000
B0720083222678S11700250EA0107201081000000015000
B0720123222698S11700311EA0108601095000000015000
B0720163222661S11700380EA0109901110000000015000
B0720203222591S11700405EA0111201131000000000000
B0720243222526S11700370EA0112801139000000000000
B0720283222495S11700296EA0113301143000000015000
B0720323222509S11700218EA0113901150000000000000
B0720363222559S11700181EA0115201169000000000000
B0720403222608S11700210EA0116701184000000000000
B0720443222616S11700279EA0118301201000000000000
B0720483222568S11700338EA0119701216000000000000
B0720523222490S11700340EA0120901228000000000000
B0720563222429S11700289EA0122401245000000000000
B0721003222404S11700216EA0124001259000000000000
B0721043222421S11700150EA0125501274000000000000
B0721083222468S11700125EA0126301283000000000000
B0721123222518S11700141EA0127001293000000000000
B0721163222548S11700194EA0128501309000000000000
B0721203222527S11700260EA0130401331000000000000
B0721243222457S11700277EA0131901336000000000000
B0721283222400S11700221EA0132401348000000000000
B0721323222386S11700142EA0133601361000000000000
B0721363222409S11700077EA0134701369000000000000
B0721403222460S11700062EA0134401360000000000000
B0721443222516S11700088EA0134501369000000000000
B0721483222574S11700110EA0135601378000000000000
B0721523222626S11700081EA0136201387000000000000
B0721563222627S11700015EA0137401402000000000000
B0722003222590S11659961EA0137901398000000015000
B0722043222534S11659926EA0137201389000000000000
B0722083222468S11659913EA0136301379000000000000
B0722123222403S11659942EA0135701378000000000000
B0722163222364S11700002EA0136001383000000000000
B0722203222361S11700068EA0137501401000000000000
B0722243222393S11700110EA0139101416000000000000
B0722283222430S11700073EA0139701420000000000000
B0722323222414S11700000EA0139801424000000015000
B0722363222357S11659973EA0140601433000000015000
B0722403222305S11700007EA0141201438000000015000
B0722443222287S11700071EA0141901449000000015000
B0722483222314S11700117EA0142901457000000015000
B0722523222360S11700114EA0143901470000000000000
B0722563222390S11700059EA0144701475000000015000
B0723003222371S11659994EA0145601484000000015000
B0723043222317S11659961EA0145601480000000015000
B0723083222253S11659978EA0145801484000000015000
B0723123222214S11700034EA0146001489000000015000
B0723163222209S11700095EA0147301507000000015000
B0723203222235S11700137EA0148301509000000015000
B0723243222284S11700119EA0148401516000000015000
B0723283222296S11700047EA0149401528000000015000
B0723323222247S11659998EA0150001527000000015000
B0723363222182S11700028EA0149401519000000015000
B0723403222166S11700102EA0150201541000000015000
B0723443222191S11700155EA0152401563000000015000
B0723483222235S11700175EA0154001575000000000000
B0723523222276S11700150EA0154901583000000000000
B0723563222291S11700089EA0155301580000000000000
B0724003222262S11700020EA0155401588000000000000
B0724043222205S11659993EA0156401596000000000000
B0724083222152S11700026EA0156401589000000000000
B0724123222141S11700093EA0156301601000000000000
B0724163222171S11700140EA0157201603000000000000
B0724203222228S11700147EA0157301606000000000000
B0724243222291S11700146EA0157501607000000000000
B0724283222358S11700146EA0156401590000000000000
B0724323222431S11700158EA0155401582000000000000
B0724363222505S11700182EA0154701571000000000000
B0724403222583S11700208EA0152701548000000000000
B0724443222666S11700228EA0151101539000000000000
B0724483222747S11700249EA0151501547000000000000
B0724523222820S11700266EA0152101553000000000000
B0724563222887S11700279EA0152101551000000000000
B0725003222952S11700286EA0151801544000000000000
B0725043223017S11700298EA0150701531000000000000
B0725083223082S11700323EA0149701520000000000000
B0725123223146S11700353EA0149201514000000000000
B0725163223211S11700376EA0147801499000000000000
B0725203223276S11700398EA0146301483000000000000
B0725243223339S11700448EA0144301459000000000000
B0725283223404S11700494EA0143201450000000000000
B0725323223470S11700526EA0142301442000000000000
B0725363223535S11700546EA0141701438000000000000
B0725403223599S11700565EA0141201434000000000000
B0725443223662S11700579EA0140701426000000000000
B0725483223727S11700596EA0140001419000000000000
B0725523223791S11700618EA0139201412000000000000
B0725563223852S11700645EA0138401404000000000000
B0726003223912S11700675EA0138001396000000000000
B0726043223973S11700700EA0137001384000000000000
B0726083224038S11700721EA0135701371000000000000
B0726123224103S11700745EA0135001367000000000000
B0726163224168S11700761EA0134401362000000000000
B0726203224230S11700774EA0134401361000000000000
B0726243224291S11700796EA0134101358000000000000
B0726283224353S11700819EA0133801355000000000000
B0726323224415S11700844EA0133701355000000000000
B0726363224476S11700871EA0133701355000000000000
B0726403224537S11700903EA0133401348000000000000
B0726443224598S11700936EA0132201335000000000000
B0726483224661S11700968EA0131501330000000000000
B0726523224723S11700998EA0130901323000000000000
B0726563224785S11701026EA0130201315000000000000
B0727003224847S11701053EA0129601311000000000000
B0727043224908S11701086EA0128701298000000000000
B0727083224973S11701102EA0127501288000000000000
B0727123225039S11701091EA0127301286000000000000
B0727163225100S11701061EA0127301288000000000000
B0727203225159S11701030EA0126701278000000000000
B0727243225220S11701004EA0125901273000000000000
B0727283225281S11700985EA0125501267000000000000
B0727323225341S11700965EA0125301265000000000000
B0727363225399S11700939EA0124501255000000000000
B0727403225458S11700908EA0123301243000000000000
B0727443225519S11700877EA0122501229000000000000
B0727483225578S11700832EA0120701212000000000000
B0727523225645S11700800EA0119101199000000000000
B0727563225714S11700799EA0118801204000000000000
B0728003225775S11700817EA0119301209000000000000
B0728043225829S11700845EA0119501207000000000000
B0728083225881S11700879EA0118801198000000000000
B0728123225936S11700914EA0118301195000000000000
B0728163225991S11700949EA0118301195000000000000
B0728203226044S11700988EA0118201191000000000000
B0728243226102S11701003EA0117801190000000000000
B0728283226158S11700992EA0117801192000000000000
B0728323226212S11700973EA0117701185000000000000
B0728363226264S11700946EA0117001179000000000000
B0728403226314S11700914EA0116901181000000000000
B0728443226364S11700875EA0116301171000000000000
B0728483226418S11700844EA0115801167000000000000
B0728523226472S11700810EA0116001169000000000000
B0728563226526S11700782EA0115701167000000000000
B0729003226579S11700756EA0115501164000000000000
B0729043226630S11700723EA0115101155000000000000
B0729083226681S11700687EA0114801156000000000000
B0729123226716S11700637EA0115801174000000000000
B0729163226674S11700584EA0117701185000000000000
B0729203226595S11700622EA0118101187000000015000
B0729243226578S11700702EA0118701205000000015000
B0729283226621S11700725EA0120401218000000015000
B0729323226644S11700674EA0121201231000000015000
B0729363226600S11700623EA0122801249000000015000
B0729403226527S11700640EA0124301253000000015000
B0729443226501S11700717EA0123801256000000015000
B0729483226529S11700766EA0125101271000000015000
B0729523226568S11700769EA0125101262000000015000
B0729563226604S11700732EA0124601261000000015000
B0730003226638S11700684EA0124801264000000000000
B0730043226652S11700622EA0125501275000000000000
B0730083226594S11700580EA0126501285000000015000
B0730123226538S11700639EA0127301292000000015000
B0730163226546S11700714EA0127801296000000015000
B0730203226595S11700743EA0127901300000000015000
B0730243226624S11700704EA0129501324000000015000
B0730283226573S11700656EA0130701325000000015000
B0730323226501S11700693EA0130801335000000015000
B0730363226496S11700767EA0132401352000000015000
B0730403226540S11700788EA0133101348000000015000
B0730443226564S11700735EA0133501363000000015000
B0730483226525S11700678EA0135101380000000015000
B0730523226456S11700669EA0136501392000000015000
B0730563226409S11700732EA0136901390000000015000
B0731003226421S11700805EA0137101400000000015000
B0731043226466S11700829EA0138001404000000015000
B0731083226495S11700786EA0138701414000000015000
B0731123226452S11700736EA0140301432000000015000
B0731163226386S11700764EA0141101436000000015000
B0731203226375S11700836EA0141901446000000015000
B0731243226417S11700866EA0142501450000000015000
B0731283226443S11700822EA0143201458000000015000
B0731323226403S11700769EA0143901467000000015000
B0731363226331S11700777EA0144801476000000015000
B0731403226295S11700844EA0146001488000000015000
B0731443226321S11700901EA0146701496000000015000
B0731483226360S11700871EA0146801494000000015000
B0731523226357S11700801EA0147201502000000015000
B0731563226305S11700749EA0148501518000000015000
B0732003226231S11700753EA0149501528000000015000
B0732043226191S11700822EA0150901540000000015000
B0732083226218S11700884EA0151501546000000015000
B0732123226266S11700875EA0151801550000000015000
B0732163226275S11700809EA0152401558000000015000
B0732203226222S11700761EA0153501568000000015000
B0732243226147S11700782EA0153901572000000015000
B0732283226110S11700861EA0154901591000000015000
B0732323226127S11700927EA0156601604000000015000
B0732363226174S11700938EA0156901601000000015000
B0732403226218S11700901EA0156701602000000015000
B0732443226221S11700839EA0158101623000000015000
B0732483226169S11700795EA0159401626000000015000
B0732523226091S11700801EA0158901621000000015000
B0732563226043S11700871EA0159801640000000015000
B0733003226049S11700949EA0161101649000000015000
B0733043226100S11700975EA0161201648000000015000
B0733083226140S11700929EA0161301650000000015000
B0733123226118S11700856EA0162201665000000015000
B0733163226044S11700826EA0163101666000000015000
B0733203225968S11700873EA0163101669000000015000
B0733243225926S11700952EA0164501692000000015000
B0733283225935S11701024EA0166101701000000015000
B0733323225979S11701051EA0166301700000000015000
B0733363226028S11701034EA0166201700000000015000
B0733403226075S11700999EA0166101699000000000000
B0733443226126S11700959EA0165101685000000000000
B0733483226191S11700931EA0163801673000000000000
B0733523226262S11700921EA0163401670000000000000
B0733563226335S11700920EA0163501673000000000000
B0734003226408S11700925EA0163101664000000000000
B0734043226481S11700935EA0162301655000000000000
B0734083226553S11700943EA0161701651000000000000
B0734123226622S11700948EA0160801636000000000000
B0734163226690S11700961EA0158901614000000000000
B0734203226760S11700968EA0157001600000000000000
B0734243226828S11700968EA0156701598000000000000
B0734283226893S11700965EA0155801583000000000000
B0734323226959S11700969EA0154101564000000000000
B0734363227027S11700977EA0152801553000000000000
B0734403227096S11700978EA0151601543000000000000
B0734443227162S11700974EA0150801533000000000000
B0734483227231S11700973EA0149801523000000000000
B0734523227300S11700972EA0148801513000000000000
B0734563227369S11700977EA0147701501000000000000
B0735003227440S11700990EA0146601485000000000000
B0735043227513S11700990EA0145401475000000000000
B0735083227583S11700961EA0144301464000000000000
B0735123227655S11700939EA0143201455000000000000
B0735163227729S11700936EA0142701452000000000000
B0735203227800S11700947EA0142301447000000000000
B0735243227873S11700956EA0142301448000000000000
B0735283227944S11700962EA0141901441000000000000
B0735323228016S11700970EA0141801446000000000000
B0735363228084S11700970EA0142501453000000000000
B0735403228147S11700964EA0143101457000000000000
B0735443228212S11700959EA0143501462000000000000
B0735483228275S11700953EA0144201471000000000000
B0735523228334S11700949EA0144901478000000000000
B0735563228394S11700949EA0145801486000000000000
B0736003228453S11700947EA0146501495000000000000
B0736043228507S11700931EA0147501503000000000000
B0736083228557S11700897EA0147501500000000000000
B0736123228611S11700878EA0146501487000000000000
B0736163228670S11700875EA0145901487000000000000
B0736203228727S11700874EA0145601480000000000000
B0736243228787S11700881EA0144501469000000000000
B0736283228852S11700899EA0143001450000000000000
B0736323228918S11700930EA0142101444000000000000
B0736363228984S11700962EA0142101446000000000000
B0736403229048S11700990EA0142301447000000000000
B0736443229109S11701012EA0142201446000000000000
B0736483229169S11701026EA0142001440000000000000
B0736523229231S11701030EA0141001429000000000000
B0736563229294S11701031EA0140001421000000000000
B0737003229356S11701034EA0139101409000000000000
B0737043229420S11701047EA0137901396000000000000
B0737083229480S11701077EA0136901384000000000000
B0737123229534S11701121EA0135801375000000000000
B0737163229581S11701176EA0134701361000000000000
B0737203229625S11701235EA0133701352000000000000
B0737243229666S11701297EA0133001345000000000000
B0737283229709S11701354EA0131901335000000000000
B0737323229755S11701406EA0131001320000000000000
B0737363229803S11701456EA0129601307000000000000
B0737403229853S11701505EA0128601298000000000000
B0737443229897S11701560EA0127301283000000000000
B0737483229944S11701616EA0127001285000000000000
B0737523230000S11701636EA0127901299000000000000
B0737563230056S11701628EA0129101310000000000000
B0738003230110S11701616EA0129501310000000000000
B0738043230167S11701598EA0129101306000000000000
B0738083230223S11701570EA0128501296000000000000
B0738123230286S11701547EA0127401283000000000000
B0738163230349S11701528EA0126001270000000000000
B0738203230411S11701508EA0124801255000000000000
B0738243230474S11701502EA0122901236000000000000
B0738283230533S11701537EA0121601223000000000000
B0738323230578S11701602EA0120501215000000000000
B0738363230617S11701674EA0119801209000000000000
B0738403230658S11701745EA0119201202000000000000
B0738443230700S11701815EA0118901198000000000000
B0738483230745S11701885EA0118201192000000000000
B0738523230790S11701954EA0117901191000000000000
B0738563230834S11702026EA0117601184000000000000
B0739003230888S11702083EA0117001181000000000000
B0739043230946S11702113EA0117101183000000000000
B0739083231006S11702121EA0118201197000000000000
B0739123231058S11702101EA0119501210000000000000
B0739163231055S11702039EA0120301221000000000000
B0739203230990S11702035EA0121401225000000015000
B0739243230954S11702103EA0121101223000000015000
B0739283230971S11702174EA0121501235000000015000
B0739323231014S11702196EA0123101250000000015000
B0739363231044S11702157EA0123901249000000015000
B0739403231022S11702093EA0123901256000000015000
B0739443230958S11702075EA0125301274000000030000
B0739483230908S11702123EA0126501286000000030000
B0739523230910S11702192EA0126801286000000015000
B0739563230951S11702217EA0127301293000000015000
B0740003230966S11702165EA0127601294000000015000
B0740043230920S11702116EA0127901301000000030000
B0740083230850S11702108EA0128801311000000030000
B0740123230793S11702151EA0129801319000000030000
B0740163230788S11702223EA0130201322000000015000
B0740203230833S11702255EA0130501327000000015000
B0740243230881S11702234EA0130901327000000015000
B0740283230907S11702181EA0131201331000000015000
B0740323230882S11702114EA0131901340000000015000
B0740363230819S11702083EA0132701349000000015000
B0740403230751S11702109EA0133601362000000015000
B0740443230715S11702173EA0134501374000000015000
B0740483230719S11702240EA0135301380000000015000
B0740523230759S11702273EA0135601378000000015000
B0740563230799S11702240EA0135401379000000015000
B0741003230794S11702177EA0136001386000000015000
B0741043230747S11702129EA0137201396000000015000
B0741083230680S11702114EA0137701401000000015000
B0741123230617S11702145EA0138401412000000015000
B0741163230587S11702212EA0139301421000000015000
B0741203230607S11702272EA0139601427000000015000
B0741243230651S11702281EA0140501435000000015000
B0741283230665S11702230EA0141501444000000015000
B0741323230625S11702178EA0142001443000000030000
B0741363230554S11702184EA0142401455000000030000
B0741403230520S11702251EA0143401465000000030000
B0741443230544S11702311EA0144201474000000015000
B0741483230593S11702314EA0145201482000000015000
B0741523230609S11702260EA0146101488000000015000
B0741563230573S11702205EA0147501501000000015000
B0742003230508S11702201EA0148101504000000030000
B0742043230464S11702259EA0148401514000000030000
B0742083230474S11702324EA0149101523000000015000
B0742123230520S11702335EA0150101534000000015000
B0742163230542S11702287EA0151201539000000015000
B0742203230516S11702225EA0152101548000000015000
B0742243230451S11702208EA0152901557000000015000
B0742283230400S11702259EA0153501563000000015000
B0742323230411S11702325EA0154101571000000015000
B0742363230457S11702342EA0154801579000000015000
B0742403230491S11702303EA0155801588000000015000
B0742443230485S11702239EA0157401599000000015000
B0742483230434S11702196EA0158401610000000015000
B0742523230372S11702214EA0159101618000000030000
B0742563230348S11702279EA0159601624000000015000
B0743003230373S11702334EA0160201634000000015000
B0743043230416S11702330EA0161201643000000015000
B0743083230409S11702264EA0162201656000000015000
B0743123230346S11702235EA0163001663000000030000
B0743163230287S11702275EA0163801677000000015000
B0743203230277S11702342EA0164601681000000015000
B0743243230312S11702386EA0164601682000000015000
B0743283230364S11702377EA0165101690000000015000
B0743323230372S11702312EA0166501705000000015000
B0743363230307S11702288EA0168101719000000030000
B0743403230258S11702342EA0168901724000000015000
B0743443230265S11702412EA0169001729000000015000
B0743483230316S11702446EA0169701739000000015000
B0743523230366S11702416EA0170801752000000015000
B0743563230375S11702344EA0171801763000000015000
B0744003230327S11702288EA0173301779000000030000
B0744043230260S11702304EA0174701793000000030000
B0744083230229S11702370EA0175501805000000015000
B0744123230252S11702429EA0176301815000000015000
B0744163230301S11702428EA0177401824000000015000
B0744203230323S11702374EA0178201828000000015000
B0744243230296S11702312EA0178901834000000015000
B0744283230231S11702294EA0179701845000000015000
B0744323230183S11702342EA0181001858000000015000
B0744363230186S11702411EA0182001870000000015000
B0744403230226S11702447EA0183001879000000015000
B0744443230270S11702429EA0183801884000000015000
B0744483230275S11702366EA0183801883000000015000
B0744523230229S11702312EA0183901889000000015000
B0744563230164S11702309EA0184801903000000015000
B0745003230126S11702364EA0186201917000000015000
B0745043230144S11702421EA0187001922000000015000
B0745083230193S11702426EA0187301924000000015000
B0745123230227S11702382EA0187401924000000015000
B0745163230214S11702316EA0187601926000000015000
B0745203230161S11702277EA0188001931000000015000
B0745243230100S11702295EA0188201936000000015000
B0745283230063S11702353EA0188601939000000015000
B0745323230069S11702422EA0189001944000000015000
B0745363230097S11702480EA0189501946000000015000
B0745403230144S11702509EA0189401946000000015000
B0745443230196S11702498EA0189301945000000015000
B0745483230248S11702470EA0189201946000000000000
B0745523230301S11702441EA0189201944000000000000
B0745563230356S11702409EA0189201944000000000000
B0746003230417S11702387EA0189201944000000000000
B0746043230482S11702377EA0188701931000000000000
B0746083230551S11702379EA0186801911000000000000
B0746123230624S11702394EA0184901891000000000000
B0746163230697S11702411EA0183401879000000000000
B0746203230771S11702428EA0182401867000000000000
B0746243230845S11702438EA0181501860000000000000
B0746283230919S11702447EA0180601849000000000000
B0746323230996S11702461EA0178901828000000000000
B0746363231077S11702467EA0177501814000000000000
B0746403231157S11702467EA0176901814000000000000
B0746443231235S11702463EA0176201802000000000000
B0746483231313S11702456EA0175101790000000000000
B0746523231392S11702450EA0173801775000000000000
B0746563231474S11702444EA0172301761000000000000
B0747003231555S11702441EA0171001746000000000000
B0747043231635S11702439EA0169801733000000000000
B0747083231714S11702443EA0169201728000000000000
B0747123231791S11702447EA0168301714000000000000
B0747163231869S11702454EA0166801701000000000000
B0747203231947S11702463EA0166001691000000000000
B0747243232026S11702477EA0164601676000000000000
B0747283232104S11702487EA0163801671000000000000
B0747323232181S11702495EA0163401670000000000000
B0747363232253S11702499EA0163801674000000000000
B0747403232325S11702499EA0163701669000000000000
B0747443232402S11702491EA0162301655000000000000
B0747483232479S11702486EA0161601648000000000000
B0747523232556S11702489EA0161201645000000000000
B0747563232630S11702490EA0160901643000000000000
B0748003232702S11702490EA0160901641000000000000
B0748043232773S11702490EA0160801639000000000000
B0748083232844S11702483EA0160801640000000000000
B0748123232916S11702473EA0161301647000000000000
B0748163232988S11702463EA0161201643000000000000
B0748203233064S11702454EA0160601633000000000000
B0748243233142S11702446EA0159601626000000000000
B0748283233217S11702434EA0158901616000000000000
B0748323233293S11702424EA0157601604000000000000
B0748363233369S11702425EA0157001600000000000000
B0748403233446S11702430EA0156601596000000000000
B0748443233524S11702429EA0156201592000000000000
B0748483233602S11702417EA0155801588000000000000
B0748523233680S11702398EA0155601585000000000000
B0748563233758S11702387EA0155001578000000000000
B0749003233835S11702382EA0154501573000000000000
B0749043233910S11702379EA0153901566000000000000
B0749083233986S11702378EA0152901555000000000000
B0749123234061S11702382EA0151901543000000000000
B0749163234136S11702389EA0150901533000000000000
B0749203234212S11702402EA0150001521000000000000
B0749243234287S11702420EA0149101515000000000000
B0749283234360S11702441EA0148701511000000000000
B0749323234433S11702469EA0148001502000000000000
B0749363234507S11702498EA0146701485000000000000
B0749403234584S11702525EA0145301473000000000000
B0749443234660S11702545EA0144401465000000000000
B0749483234736S11702563EA0143201451000000000000
B0749523234812S11702586EA0142401446000000000000
B0749563234886S11702613EA0141801438000000000000
B0750003234962S11702638EA0140801427000000000000
B0750043235037S11702669EA0139901420000000000000
B0750083235113S11702699EA0139301411000000000000
B0750123235188S11702725EA0138401402000000000000
B0750163235266S11702749EA0137501389000000000000
B0750203235347S11702764EA0136301377000000000000
B0750243235427S11702768EA0135601378000000000000
B0750283235504S11702769EA0136401386000000000000
B0750323235579S11702768EA0136501381000000000000
B0750363235653S11702767EA0135401366000000000000
B0750403235729S11702760EA0134001353000000000000
B0750443235803S11702751EA0133001343000000000000
B0750483235876S11702758EA0132001334000000000000
B0750523235949S11702780EA0131001322000000000000
B0750563236023S11702798EA0130101314000000000000
B0751003236095S11702803EA0129701311000000000000
B0751043236167S11702807EA0129601313000000000000
B0751083236233S11702811EA0130501323000000000000
B0751123236294S11702811EA0131201329000000000000
B0751163236354S11702808EA0131701334000000000000
B0751203236410S11702797EA0132201340000000000000
B0751243236465S11702782EA0132501341000000000000
B0751283236518S11702768EA0132201337000000000000
B0751323236573S11702754EA0131401327000000000000
B0751363236631S11702743EA0130201313000000000000
B0751403236692S11702729EA0129501308000000000000
B0751443236752S11702711EA0128801299000000000000
B0751483236818S11702702EA0128301300000000000000
B0751523236883S11702706EA0129301314000000000000
B0751563236943S11702712EA0131101334000000000000
B0752003236995S11702706EA0133001352000000000000
B0752043237007S11702647EA0133601347000000000000
B0752083236950S11702602EA0132401335000000000000
B0752123236881S11702634EA0132001336000000000000
B0752163236852S11702711EA0132301344000000000000
B0752203236856S11702788EA0133301353000000000000
B0752243236886S11702849EA0133701358000000000000
B0752283236934S11702880EA0134001357000000000000
B0752323236987S11702892EA0133501352000000000000
B0752363237041S11702881EA0132801344000000000000
B0752403237095S11702863EA0132201337000000000000
B0752443237148S11702836EA0131301328000000000000
B0752483237204S11702801EA0130201317000000000000
B0752523237267S11702779EA0129201307000000000000
B0752563237333S11702767EA0128301299000000000000
B0753003237401S11702763EA0127501290000000000000
B0753043237470S11702769EA0127101285000000000000
B0753083237536S11702789EA0126301274000000000000
B0753123237601S11702816EA0125301265000000000000
B0753163237666S11702847EA0124201253000000000000
B0753203237731S11702885EA0123001242000000000000
B0753243237796S11702925EA0122001229000000000000
B0753283237863S11702963EA0120701216000000000000
B0753323237934S11702997EA0119501203000000000000
B0753363238005S11703027EA0118801198000000000000
B0753403238075S11703046EA0118501192000000000000
B0753443238147S11703049EA0117501181000000000000
B0753483238221S11703049EA0116101166000000000000
B0753523238292S11703066EA0115701169000000000000
B0753563238357S11703098EA0116401176000000000000
B0754003238417S11703126EA0117201185000000000000
B0754043238473S11703148EA0118301197000000000000
B0754083238528S11703153EA0119401207000000000000
B0754123238575S11703128EA0119701212000000000000
B0754163238604S11703080EA0120801229000000000000
B0754203238573S11703020EA0122001232000000000000
B0754243238502S11703032EA0121901230000000000000
B0754283238472S11703106EA0121901236000000000000
B0754323238493S11703178EA0122401239000000000000
B0754363238541S11703211EA0123301256000000000000
B0754403238555S11703161EA0125401271000000015000
B0754443238484S11703136EA0125401268000000015000
B0754483238425S11703196EA0126701288000000015000
B0754523238425S11703278EA0127301289000000015000
B0754563238469S11703325EA0128001302000000015000
B0755003238507S11703295EA0129601317000000015000
B0755043238486S11703226EA0129901317000000015000
B0755083238416S11703200EA0130301322000000015000
B0755123238346S11703244EA0131101339000000015000
B0755163238315S11703314EA0133101360000000015000
B0755203238331S11703373EA0134501371000000015000
B0755243238364S11703357EA0135201373000000015000
B0755283238348S11703293EA0135501382000000015000
B0755323238282S11703279EA0136701395000000015000
B0755363238242S11703345EA0137701405000000015000
B0755403238272S11703395EA0138801417000000015000
B0755443238303S11703365EA0139701425000000015000
B0755483238274S11703308EA0140401434000000015000
B0755523238209S11703295EA0141801450000000015000
B0755563238156S11703341EA0143201464000000015000
B0756003238140S11703412EA0143901469000000015000
B0756043238165S11703460EA0144601481000000015000
B0756083238203S11703458EA0145601485000000015000
B0756123238209S11703404EA0146001491000000015000
B0756163238161S11703365EA0147201502000000000000
B0756203238097S11703395EA0148301514000000015000
B0756243238082S11703466EA0149101522000000015000
B0756283238118S11703503EA0150101533000000015000
B0756323238153S11703475EA0150801539000000015000
B0756363238144S11703414EA0151501548000000015000
B0756403238084S11703380EA0152401558000000000000
B0756443238012S11703404EA0153501573000000015000
B0756483237971S11703474EA0154601583000000015000
B0756523237978S11703547EA0155401592000000015000
B0756563238017S11703586EA0156301601000000015000
B0757003238064S11703583EA0157201607000000000000
B0757043238087S11703535EA0158101616000000015000
B0757083238068S11703475EA0159501631000000000000
B0757123238006S11703451EA0160501640000000000000
B0757163237945S11703487EA0162001662000000015000
B0757203237926S11703553EA0163301670000000015000
B0757243237953S11703605EA0163501671000000015000
B0757283237999S11703603EA0163501673000000015000
B0757323238031S11703560EA0163901676000000015000
B0757363238017S11703491EA0164701687000000015000
B0757403237954S11703464EA0166001700000000015000
B0757443237893S11703507EA0166601704000000015000
B0757483237882S11703585EA0167601720000000015000
B0757523237923S11703621EA0168601727000000015000
B0757563237954S11703582EA0169501738000000015000
B0758003237931S11703521EA0170601749000000015000
B0758043237867S11703500EA0171501757000000015000
B0758083237802S11703538EA0172001767000000015000
B0758123237780S11703609EA0173401784000000015000
B0758163237806S11703661EA0174401787000000015000
B0758203237852S11703661EA0174801793000000015000
B0758243237869S11703612EA0175901799000000015000
B0758283237839S11703555EA0176601807000000015000
B0758323237776S11703536EA0177501818000000015000
B0758363237717S11703575EA0178301828000000015000
B0758403237704S11703651EA0179201836000000015000
B0758443237741S11703696EA0179601841000000015000
B0758483237784S11703677EA0180101848000000015000
B0758523237779S11703616EA0181201856000000015000
B0758563237723S11703579EA0182201864000000015000
B0759003237654S11703603EA0183001875000000015000
B0759043237614S11703668EA0184201890000000015000
B0759083237611S11703742EA0184701892000000000000
B0759123237645S11703796EA0184701892000000000000
B0759163237696S11703834EA0184201886000000000000
B0759203237754S11703871EA0183101870000000000000
B0759243237823S11703904EA0181701854000000000000
B0759283237896S11703936EA0180501847000000000000
B0759323237971S11703965EA0180101844000000000000
B0759363238045S11703994EA0180001848000000000000
B0759403238120S11704015EA0181101860000000000000
B0759443238187S11704015EA0182401878000000000000
B0759483238248S11704002EA0183801885000000000000
B0759523238309S11703991EA0184101890000000000000
B0759563238369S11703981EA0184801899000000000000
B0800003238428S11703968EA0185201899000000000000
B0800043238489S11703955EA0185001897000000000000
B0800083238555S11703950EA0185001900000000000000
B0800123238617S11703943EA0186101913000000000000
B0800163238679S11703937EA0186901918000000000000
B0800203238740S11703937EA0187201921000000000000
B0800243238802S11703938EA0187601925000000000000
B0800283238864S11703939EA0188201934000000000000
B0800323238924S11703937EA0188901939000000000000
B0800363238984S11703933EA0189201944000000000000
B0800403239041S11703930EA0189601946000000000000
B0800443239098S11703936EA0189701944000000000000
B0800483239158S11703943EA0189101936000000000000
B0800523239222S11703951EA0188401932000000000000
B0800563239286S11703959EA0188101926000000000000
B0801003239353S11703972EA0186801911000000000000
B0801043239422S11703988EA0185601899000000000000
B0801083239492S11704007EA0184601889000000000000
B0801123239564S11704025EA0183701875000000000000
B0801163239637S11704047EA0182601868000000000000
B0801203239707S11704072EA0181901860000000000000
B0801243239777S11704101EA0181001851000000000000
B0801283239845S11704131EA0180301845000000000000
B0801323239910S11704162EA0179701839000000000000
B0801363239976S11704192EA0179201832000000000000
B0801403240042S11704222EA0178201821000000000000
B0801443240110S11704255EA0177201811000000000000
B0801483240179S11704288EA0176601804000000000000
B0801523240248S11704316EA0175701794000000000000
B0801563240317S11704345EA0174601783000000000000
B0802003240387S11704375EA0173901778000000000000
B0802043240458S11704406EA0173301771000000000000
B0802083240528S11704443EA0173101773000000000000
B0802123240595S11704479EA0173301774000000000000
B0802163240661S11704515EA0172801764000000000000
B0802203240727S11704552EA0172001754000000000000
B0802243240796S11704589EA0170501738000000000000
B0802283240865S11704628EA0169501729000000000000
B0802323240934S11704666EA0168701723000000000000
B0802363240999S11704706EA0168401721000000000000
B0802403241063S11704745EA0168301720000000000000
B0802443241124S11704782EA0168501723000000000000
B0802483241184S11704818EA0168301719000000000000
B0802523241243S11704853EA0168001718000000000000
B0802563241301S11704892EA0167301705000000000000
B0803003241359S11704937EA0165601684000000000000
B0803043241419S11704983EA0163601664000000000000
B0803083241479S11705030EA0162201651000000000000
B0803123241539S11705076EA0161201643000000000000
B0803163241596S11705116EA0160801641000000000000
B0803203241653S11705152EA0160401634000000000000
B0803243241711S11705184EA0159301622000000000000
B0803283241770S11705213EA0158801622000000000000
B0803323241827S11705237EA0158801619000000000000
B0803363241887S11705255EA0158401618000000000000
B0803403241945S11705256EA0158801621000000000000
B0803443242004S11705245EA0158801623000000000000
B0803483242062S11705233EA0158701620000000000000
B0803523242122S11705225EA0158301615000000000000
B0803563242182S11705220EA0157901608000000000000
B0804003242243S11705217EA0156801595000000000000
B0804043242303S11705228EA0156101590000000000000
B0804083242361S11705238EA0155701586000000000000
B0804123242420S11705250EA0155501589000000000000
B0804163242478S11705260EA0156101595000000000000
B0804203242529S11705241EA0157301610000000000000
B0804243242525S11705181EA0158101613000000000000
B0804283242465S11705145EA0157901610000000000000
B0804323242394S11705171EA0158101614000000000000
B0804363242351S11705239EA0158401620000000000000
B0804403242341S11705319EA0158701621000000000000
B0804443242365S11705389EA0159001622000000000000
B0804483242413S11705414EA0159601633000000000000
B0804523242445S11705372EA0160501646000000000000
B0804563242420S11705310EA0161401649000000000000
B0805003242351S11705302EA0162001653000000000000
B0805043242300S11705363EA0161901652000000015000
B0805083242307S11705437EA0162001655000000015000
B0805123242351S11705458EA0162701663000000015000
B0805163242380S11705418EA0163801671000000015000
B0805203242360S11705356EA0164701679000000015000
B0805243242300S11705327EA0165101681000000015000
B0805283242234S11705356EA0165201682000000015000
B0805323242211S11705431EA0165001683000000015000
B0805363242239S11705489EA0165001685000000015000
B0805403242290S11705497EA0165301691000000015000
B0805443242333S11705467EA0166401697000000015000
B0805483242338S11705399EA0167001701000000015000
B0805523242296S11705336EA0167501709000000015000
B0805563242224S11705333EA0168301719000000015000
B0806003242178S11705393EA0168701722000000015000
B0806043242191S11705463EA0168301718000000015000
B0806083242239S11705499EA0168101718000000015000
B0806123242298S11705505EA0168101716000000000000
B0806163242356S11705492EA0167701708000000000000
B0806203242382S11705436EA0167501713000000000000
B0806243242364S11705369EA0167801713000000000000
B0806283242308S11705323EA0167101701000000000000
B0806323242230S11705301EA0166101696000000000000
B0806363242148S11705288EA0165801692000000000000
B0806403242064S11705277EA0165101684000000000000
B0806443241978S11705267EA0164701685000000000000
B0806483241891S11705258EA0164601684000000000000
B0806523241802S11705246EA0164501684000000000000
B0806563241713S11705232EA0164201678000000000000
B0807003241623S11705215EA0163501665000000000000
B0807043241531S11705195EA0162501656000000000000
B0807083241438S11705176EA0161301645000000000000
B0807123241347S11705156EA0160601638000000000000
B0807163241255S11705138EA0159601627000000000000
B0807203241164S11705122EA0159001624000000000000
B0807243241072S11705111EA0158101613000000000000
B0807283240980S11705096EA0157301605000000000000
B0807323240890S11705081EA0156601595000000000000
B0807363240799S11705064EA0155201576000000000000
B0807403240705S11705048EA0153301555000000000000
B0807443240612S11705033EA0151701541000000000000
B0807483240519S11705016EA0150201525000000000000
B0807523240427S11704995EA0149101519000000000000
B0807563240337S11704976EA0148601511000000000000
B0808003240245S11704953EA0147401498000000000000
B0808043240153S11704934EA0146401489000000000000
B0808083240059S11704913EA0145601479000000000000
B0808123239967S11704890EA0144501467000000000000
B0808163239877S11704862EA0143401458000000000000
B0808203239790S11704833EA0142401445000000000000
B0808243239704S11704800EA0140801426000000000000
B0808283239617S11704765EA0139101409000000000000
B0808323239530S11704734EA0138101402000000000000
B0808363239442S11704706EA0137701399000000000000
B0808403239353S11704684EA0137701401000000000000
B0808443239265S11704670EA0138501417000000000000
B0808483239184S11704667EA0140801436000000000000
B0808523239132S11704723EA0142101448000000000000
B0808563239148S11704794EA0142301446000000000000
B0809003239196S11704796EA0142201445000000000000
B0809043239223S11704742EA0142201446000000015000
B0809083239206S11704673EA0142601452000000015000
B0809123239171S11704608EA0143601463000000000000
B0809163239121S11704558EA0144401471000000000000
B0809203239050S11704537EA0144901480000000000000
B0809243238975S11704536EA0146001491000000000000
B0809283238924S11704583EA0146501487000000000000
B0809323238941S11704647EA0145501475000000015000
B0809363238996S11704644EA0144901477000000015000
B0809403239043S11704601EA0145801487000000015000
B0809443239052S11704534EA0147201501000000015000
B0809483238998S11704489EA0148601514000000015000
B0809523238944S11704530EA0149601526000000015000
B0809563238959S11704596EA0150201530000000015000
B0810003239010S11704601EA0151101544000000015000
B0810043239027S11704544EA0151901548000000015000
B0810083238979S11704483EA0152101551000000015000
B0810123238905S11704480EA0152901566000000015000
B0810163238870S11704545EA0154601583000000015000
B0810203238898S11704606EA0155101581000000015000
B0810243238955S11704600EA0155201589000000015000
B0810283238970S11704531EA0156301599000000015000
B0810323238929S11704466EA0157201605000000015000
B0810363238858S11704454EA0157901616000000015000
B0810403238811S11704510EA0159301630000000015000
B0810443238823S11704576EA0159701632000000015000
B0810483238879S11704599EA0159301623000000015000
B0810523238935S11704565EA0159301635000000015000
B0810563238931S11704491EA0161101651000000015000
B0811003238871S11704448EA0162201657000000015000
B0811043238811S11704488EA0162401658000000015000
B0811083238818S11704562EA0163001670000000015000
B0811123238874S11704561EA0163801678000000015000
B0811163238888S11704493EA0164701687000000015000
B0811203238840S11704443EA0165901702000000015000
B0811243238781S11704472EA0166601701000000015000
B0811283238783S11704544EA0166801709000000015000
B0811323238832S11704566EA0167601715000000015000
B0811363238864S11704514EA0168201722000000015000
B0811403238848S11704443EA0168701725000000015000
B0811443238793S11704391EA0168701722000000015000
B0811483238721S11704365EA0168001716000000015000
B0811523238641S11704344EA0167501714000000000000
B0811563238559S11704323EA0167301708000000000000
B0812003238473S11704302EA0166301698000000000000
B0812043238385S11704280EA0165501692000000000000
B0812083238295S11704259EA0164701678000000000000
B0812123238200S11704245EA0163301665000000000000
B0812163238104S11704233EA0161801648000000000000
B0812203238006S11704225EA0160301635000000000000
B0812243237906S11704223EA0159401619000000000000
B0812283237805S11704223EA0157101600000000000000
B0812323237704S11704224EA0155801586000000000000
B0812363237602S11704227EA0154601573000000000000
B0812403237502S11704233EA0153601563000000000000
B0812443237405S11704245EA0152801557000000000000
B0812483237308S11704258EA0151801545000000000000
B0812523237212S11704267EA0150701535000000000000
B0812563237116S11704272EA0150001526000000000000
B0813003237021S11704277EA0149401520000000000000
B0813043236927S11704284EA0148601512000000000000
B0813083236835S11704289EA0148001505000000000000
B0813123236744S11704293EA0147401504000000000000
B0813163236656S11704298EA0147301501000000000000
B0813203236567S11704302EA0147001497000000000000
B0813243236479S11704303EA0147101501000000000000
B0813283236393S11704301EA0147601507000000000000
B0813323236306S11704296EA0148201514000000000000
B0813363236223S11704290EA0149601536000000000000
B0813403236147S11704302EA0152101560000000000000
B0813443236116S11704367EA0154001575000000000000
B0813483236159S11704404EA0155001584000000000000
B0813523236189S11704350EA0156301603000000015000
B0813563236149S11704290EA0157801617000000015000
B0814003236079S11704298EA0159101626000000015000
B0814043236053S11704371EA0160001640000000015000
B0814083236093S11704418EA0161501655000000015000
B0814123236141S11704391EA0162701672000000015000
B0814163236144S11704322EA0164301685000000015000
B0814203236094S11704272EA0165701703000000015000
B0814243236032S11704287EA0167301717000000015000
B0814283236008S11704349EA0168501731000000015000
B0814323236042S11704393EA0169701742000000015000
B0814363236082S11704354EA0170601750000000015000
B0814403236055S11704287EA0171701764000000015000
B0814443235990S11704279EA0173401781000000015000
B0814483235963S11704339EA0174601792000000015000
B0814523235998S11704383EA0176001810000000015000
B0814563236043S11704366EA0177101817000000015000
B0815003236049S11704302EA0178001826000000015000
B0815043236001S11704254EA0179001837000000015000
B0815083235946S11704284EA0179801843000000015000
B0815123235954S11704349EA0180501856000000015000
B0815163236003S11704365EA0181801870000000015000
B0815203236034S11704319EA0183401880000000015000
B0815243236020S11704253EA0184201888000000015000
B0815283235964S11704224EA0185201898000000015000
B0815323235911S11704257EA0185901902000000015000
B0815363235903S11704326EA0186101910000000015000
B0815403235941S11704372EA0187201924000000015000
B0815443235990S11704357EA0188301936000000015000
B0815483236007S11704296EA0189601947000000015000
B0815523235971S11704237EA0190401957000000015000
B0815563235908S11704238EA0191501967000000015000
B0816003235871S11704292EA0192101973000000015000
B0816043235877S11704359EA0192701980000000015000
B0816083235920S11704400EA0193201989000000015000
B0816123235969S11704374EA0194301998000000015000
B0816163235976S11704301EA0194902005000000015000
B0816203235925S11704249EA0195802012000000015000
B0816243235858S11704259EA0196202015000000015000
B0816283235820S11704326EA0196602023000000015000
B0816323235813S11704404EA0197702034000000015000
B0816363235856S11704446EA0198502042000000015000
B0816403235907S11704414EA0199902057000000015000
B0816443235903S11704342EA0200702063000000015000
B0816483235845S11704311EA0201302069000000015000
B0816523235799S11704359EA0201702071000000015000
B0816563235812S11704424EA0202402079000000015000
B0817003235864S11704427EA0203002088000000015000
B0817043235895S11704368EA0204102100000000015000
B0817083235884S11704296EA0204702103000000015000
B0817123235830S11704251EA0205302109000000015000
B0817163235760S11704233EA0204902102000000015000
B0817203235683S11704218EA0204802106000000000000
B0817243235607S11704201EA0205602111000000000000
B0817283235526S11704184EA0204602100000000000000
B0817323235440S11704166EA0204502105000000000000
B0817363235357S11704147EA0205502119000000000000
B0817403235275S11704129EA0206302123000000000000
B0817443235193S11704118EA0206402121000000000000
B0817483235111S11704108EA0206302119000000000000
B0817523235028S11704103EA0206102117000000000000
B0817563234944S11704097EA0206002116000000000000
B0818003234859S11704084EA0206202121000000000000
B0818043234775S11704067EA0206802127000000000000
B0818083234690S11704053EA0206502120000000000000
B0818123234606S11704041EA0206302121000000000000
B0818163234519S11704032EA0206502121000000000000
B0818203234429S11704033EA0206502123000000000000
B0818243234339S11704036EA0206302118000000000000
B0818283234248S11704033EA0205402107000000000000
B0818323234160S11704024EA0204902106000000000000
B0818363234070S11704014EA0204602101000000000000
B0818403233982S11704006EA0203702088000000000000
B0818443233892S11703991EA0202502077000000000000
B0818483233804S11703976EA0201602071000000000000
B0818523233715S11703959EA0200902062000000000000
B0818563233628S11703949EA0200202053000000000000
B0819003233541S11703941EA0199702049000000000000
B0819043233455S11703937EA0198902040000000000000
B0819083233368S11703936EA0197402017000000000000
B0819123233280S11703930EA0195302000000000000000
B0819163233193S11703919EA0194301992000000000000
B0819203233105S11703903EA0193001978000000000000
B0819243233021S11703884EA0192301972000000000000
B0819283232940S11703865EA0191701966000000000000
B0819323232860S11703848EA0190901953000000000000
B0819363232778S11703830EA0189801943000000000000
B0819403232697S11703811EA0189001934000000000000
B0819443232617S11703793EA0187501916000000000000
B0819483232532S11703769EA0185401895000000000000
B0819523232446S11703741EA0184201888000000000000
B0819563232364S11703715EA0183601883000000000000
B0820003232284S11703687EA0183301879000000000000
B0820043232207S11703660EA0183001875000000000000
B0820083232128S11703634EA0182101862000000000000
B0820123232046S11703607EA0180901850000000000000
B0820163231959S11703581EA0179801839000000000000
B0820203231869S11703557EA0178701828000000000000
B0820243231779S11703531EA0177601816000000000000
B0820283231690S11703503EA0176601806000000000000
B0820323231599S11703474EA0176001800000000000000
B0820363231508S11703447EA0175201793000000000000
B0820403231418S11703423EA0174901790000000000000
B0820443231330S11703403EA0174501788000000000000
B0820483231243S11703386EA0175001797000000000000
B0820523231158S11703367EA0175501799000000000000
B0820563231072S11703344EA0175501797000000000000
B0821003230984S11703326EA0174701785000000000000
B0821043230895S11703299EA0173401769000000000000
B0821083230808S11703258EA0172001756000000000000
B0821123230724S11703214EA0170801744000000000000
B0821163230639S11703166EA0169501731000000000000
B0821203230555S11703118EA0168401719000000000000
B0821243230470S11703065EA0167301709000000000000
B0821283230390S11703003EA0166501699000000000000
B0821323230310S11702938EA0165401686000000000000
B0821363230232S11702872EA0164001671000000000000
B0821403230153S11702806EA0162201653000000000000
B0821443230073S11702737EA0160601634000000000000
B0821483229991S11702667EA0159101621000000000000
B0821523229909S11702597EA0158001610000000000000
B0821563229824S11702528EA0156701595000000000000
B0822003229736S11702461EA0155801585000000000000
B0822043229649S11702399EA0155201582000000000000
B0822083229562S11702343EA0154901577000000000000
B0822123229469S11702292EA0154101570000000000000
B0822163229374S11702249EA0153601563000000000000
B0822203229276S11702212EA0152701556000000000000
B0822243229182S11702168EA0152501554000000000000
B0822283229086S11702131EA0151801547000000000000
B0822323228988S11702100EA0151301542000000000000
B0822363228891S11702070EA0150601534000000000000
B0822403228792S11702043EA0150101530000000000000
B0822443228695S11702013EA0149601523000000000000
B0822483228596S11701987EA0149101518000000000000
B0822523228497S11701970EA0148701516000000000000
B0822563228399S11701965EA0148001505000000000000
B0823003228302S11701963EA0147001495000000000000
B0823043228206S11701963EA0146101485000000000000
B0823083228107S11701960EA0144701468000000000000
B0823123228008S11701956EA0143601458000000000000
B0823163227909S11701958EA0142601445000000000000
B0823203227811S11701954EA0141601440000000000000
B0823243227714S11701940EA0141301437000000000000
B0823283227619S11701923EA0140701430000000000000
B0823323227526S11701904EA0140101425000000000000
B0823363227432S11701880EA0139501414000000000000
B0823403227340S11701850EA0138701409000000000000
B0823443227246S11701824EA0138301407000000000000
B0823483227153S11701805EA0138701416000000000000
B0823523227066S11701798EA0140701440000000000000
B0823563227015S11701854EA0143101463000000000000
B0824003227038S11701914EA0144001470000000000000
B0824043227084S11701910EA0144801477000000000000
B0824083227109S11701858EA0145101481000000000000
B0824123227099S11701787EA0145301480000000015000
B0824163227051S11701719EA0145701487000000015000
B0824203226980S11701676EA0147001501000000015000
B0824243226911S11701720EA0147801507000000015000
B0824283226914S11701796EA0148601524000000015000
B0824323226963S11701817EA0150001538000000015000
B0824363226990S11701763EA0151701556000000015000
B0824403226955S11701698EA0153601572000000015000
B0824443226881S11701681EA0154901584000000015000
B0824483226838S11701745EA0155401582000000015000
B0824523226872S11701797EA0155901597000000015000
B0824563226911S11701762EA0157301610000000015000
B0825003226884S11701692EA0158601624000000015000
B0825043226810S11701674EA0159601634000000015000
B0825083226754S11701724EA0160401639000000015000
B0825123226755S11701797EA0160901651000000015000
B0825163226790S11701843EA0162501665000000015000
B0825203226838S11701837EA0163201672000000015000
B0825243226858S11701775EA0164101682000000015000
B0825283226821S11701705EA0165101694000000015000
B0825323226748S11701685EA0166801712000000015000
B0825363226694S11701735EA0167801715000000015000
B0825403226700S11701806EA0167601716000000015000
B0825443226746S11701823EA0169001735000000015000
B0825483226781S11701788EA0170101738000000015000
B0825523226782S11701715EA0170301742000000015000
B0825563226729S11701654EA0171301756000000015000
B0826003226652S11701664EA0172401772000000015000
B0826043226616S11701735EA0173501779000000015000
B0826083226644S11701788EA0174501793000000015000
B0826123226687S11701762EA0175701804000000015000
B0826163226683S11701688EA0176501810000000015000
B0826203226626S11701627EA0177501823000000015000
B0826243226550S11701629EA0178901839000000015000
B0826283226511S11701696EA0180001845000000015000
B0826323226542S11701749EA0180401851000000015000
B0826363226586S11701716EA0181401864000000015000
B0826403226582S11701641EA0182401874000000015000
B0826443226525S11701584EA0183201886000000015000
B0826483226449S11701586EA0184701903000000015000
B0826523226409S11701646EA0186301918000000015000
B0826563226430S11701705EA0187301929000000015000
B0827003226474S11701700EA0188701942000000015000
B0827043226494S11701644EA0189601945000000015000
B0827083226453S11701579EA0189901951000000015000
B0827123226381S11701563EA0191001966000000015000
B0827163226325S11701610EA0192501980000000015000
B0827203226331S11701675EA0193601992000000015000
B0827243226377S11701684EA0194702005000000015000
B0827283226405S11701633EA0195802013000000015000
B0827323226394S11701558EA0196402023000000015000
B0827363226342S11701499EA0197902040000000015000
B0827403226270S11701488EA0198902048000000015000
B0827443226210S11701533EA0199502051000000015000
B0827483226204S11701607EA0199802057000000015000
B0827523226249S11701646EA0200602066000000015000
B0827563226300S11701624EA0201902080000000015000
B0828003226317S11701554EA0203002092000000015000
B0828043226280S11701477EA0203802099000000015000
B0828083226205S11701451EA0204602106000000015000
B0828123226136S11701493EA0204602103000000015000
B0828163226117S11701576EA0204502105000000015000
B0828203226150S11701642EA0205302113000000015000
B0828243226208S11701672EA0206302126000000015000
B0828283226265S11701659EA0208002147000000015000
B0828323226303S11701605EA0210002163000000015000
B0828363226295S11701527EA0211502180000000015000
B0828403226238S11701479EA0212702193000000015000
B0828443226169S11701489EA0213702203000000015000
B0828483226127S11701547EA0214302208000000015000
B0828523226137S11701614EA0215202223000000015000
B0828563226183S11701640EA0216802237000000015000
B0829003226228S11701609EA0218102253000000015000
B0829043226243S11701544EA0219902269000000015000
B0829083226218S11701475EA0221102278000000015000
B0829123226160S11701436EA0221702286000000015000
B0829163226095S11701438EA0222402290000000015000
B0829203226045S11701486EA0222802298000000015000
B0829243226040S11701551EA0223402305000000015000
B0829283226076S11701594EA0224302315000000015000
B0829323226123S11701584EA0225602332000000015000
B0829363226148S11701532EA0226902342000000015000
B0829403226127S11701464EA0227602348000000015000
B0829443226074S11701423EA0228402356000000015000
B0829483226009S11701424EA0228802359000000015000
B0829523225952S11701455EA0229202362000000000000
B0829563225918S11701515EA0228802359000000000000
B0830003225929S11701580EA0228702360000000015000
B0830043225976S11701603EA0229602373000000015000
B0830083226027S11701577EA0230702384000000015000
B0830123226066S11701527EA0232002394000000000000
B0830163226063S11701454EA0232702400000000000000
B0830203226013S11701403EA0233302406000000015000
B0830243225945S11701403EA0233502405000000015000
B0830283225887S11701447EA0233102398000000015000
B0830323225867S11701523EA0232702398000000015000
B0830363225898S11701584EA0233002407000000015000
B0830403225953S11701614EA0234202420000000015000
B0830443226010S11701611EA0235702434000000000000
B0830483226052S11701560EA0236302435000000000000
B0830523226048S11701481EA0236502437000000015000
B0830563225994S11701424EA0237002446000000015000
B0831003225923S11701415EA0237402450000000015000
B0831043225846S11701414EA0237402449000000000000
B0831083225764S11701402EA0237002436000000000000
B0831123225676S11701376EA0235302417000000000000
B0831163225585S11701349EA0233702406000000000000
B0831203225494S11701321EA0233202404000000000000
B0831243225406S11701295EA0233002399000000000000
B0831283225316S11701265EA0232002388000000000000
B0831323225224S11701234EA0231102381000000000000
B0831363225134S11701206EA0230802376000000000000
B0831403225048S11701176EA0230202369000000000000
B0831443224962S11701150EA0229702365000000000000
B0831483224874S11701124EA0229102353000000000000
B0831523224780S11701102EA0227102333000000000000
B0831563224684S11701081EA0226302332000000000000
B0832003224588S11701060EA0226102330000000000000
B0832043224493S11701042EA0226002329000000000000
B0832083224398S11701022EA0225802325000000000000
B0832123224302S11701003EA0225302322000000000000
B0832163224203S11700985EA0225202319000000000000
B0832203224104S11700969EA0225002314000000000000
B0832243224004S11700956EA0224202305000000000000
B0832283223905S11700944EA0223602300000000000000
B0832323223808S11700929EA0223002292000000000000
B0832363223710S11700913EA0222002283000000000000
B0832403223613S11700899EA0220802269000000000000
B0832443223513S11700884EA0219402257000000000000
B0832483223413S11700868EA0219402261000000000000
B0832523223313S11700857EA0219802269000000000000
B0832563223216S11700851EA0221202284000000000000
B0833003223125S11700848EA0222802299000000000000
B0833043223037S11700844EA0223002293000000000000
B0833083222943S11700838EA0221702278000000000000
B0833123222846S11700830EA0220002260000000000000
B0833163222743S11700817EA0219502266000000000000
B0833203222642S11700804EA0220402273000000000000
B0833243222539S11700790EA0220302270000000000000
B0833283222436S11700777EA0220702276000000000000
B0833323222334S11700767EA0221302281000000000000
B0833363222231S11700761EA0220702262000000000000
B0833403222126S11700753EA0218902250000000000000
B0833443222019S11700745EA0218402245000000000000
B0833483221911S11700735EA0218002245000000000000
B0833523221803S11700722EA0218502249000000000000
B0833563221695S11700702EA0218502248000000000000
B0834003221586S11700678EA0218302247000000000000
B0834043221477S11700653EA0218702257000000000000
B0834083221368S11700630EA0219502262000000000000
B0834123221256S11700602EA0219602260000000000000
B0834163221148S11700572EA0219802267000000000000
B0834203221040S11700541EA0219902262000000000000
B0834243220931S11700513EA0219402259000000000000
B0834283220819S11700487EA0219002253000000000000
B0834323220706S11700462EA0218502248000000000000
B0834363220593S11700439EA0218302247000000000000
B0834403220482S11700414EA0217802240000000000000
B0834443220371S11700388EA0217002232000000000000
B0834483220258S11700361EA0216602227000000000000
B0834523220147S11700335EA0216402227000000000000
B0834563220035S11700307EA0216002219000000000000
B0835003219920S11700279EA0214702203000000000000
B0835043219801S11700246EA0213702196000000000000
B0835083219682S11700216EA0213202192000000000000
B0835123219566S11700188EA0212402180000000000000
B0835163219450S11700163EA0211002163000000000000
B0835203219336S11700141EA0209502147000000000000
B0835243219219S11700119EA0208102134000000000000
B0835283219103S11700097EA0206702117000000000000
B0835323218984S11700073EA0205102101000000000000
B0835363218863S11700051EA0204302099000000000000
B0835403218743S11700033EA0204202099000000000000
B0835443218622S11700016EA0204402104000000000000
B0835483218503S11659999EA0205002108000000000000
B0835523218384S11659981EA0205402111000000000000
B0835563218267S11659958EA0206302114000000000000
B0836003218152S11659933EA0206202111000000000000
B0836043218035S11659908EA0205302096000000000000
B0836083217916S11659881EA0204502091000000000000
B0836123217799S11659850EA0203602077000000000000
B0836163217681S11659817EA0201602054000000000000
B0836203217559S11659786EA0198902021000000000000
B0836243217434S11659757EA0196001993000000000000
