ACAM4N6
HFDTE130121
HFFXA050
HFPLTPILOT:JOHN WELSH              
HFGTYGLIDERTYPE:HORNET      
HFGIDGLIDERID:VH-GMY      
HFDTM100GPSDATUM:
HFRFWFIRMWAREVERSION:F2.6
HFRHWHARDWAREVERSION:300 Series Version 2
HFFTYFRTYPE:CAMBRIDGE AERO INSTRUMENTS, 302+
HFGPS:GARMIN,LVS-25,12,18000
HFPRSPRESSALTSENSOR:INTERSEMA, MS5534-AP, 20000
I033638FXA3941ENL4247REX
LCAMSBVER:5FWVER:F26300
C130121053302130121000102
C0000000N00000000WTAKEOFF     
C3207547S11656819EBEVERLEY AF 
C3137399S11712982ECUNAIR      
C3200816S11723699EQuairading  
C3207549S11656849EBEVAIR      
C0000000N00000000WLANDING     
B0534303207337S11656861EA0019300211000000000000
B0534323207337S11656861EA0019200211000000000000
B0534343207337S11656861EA0019200211000000000000
B0534363207337S11656861EA0019300211000000000000
B0534383207337S11656861EA0019300211000000000000
B0534403207337S11656861EA0019300211000000000000
B0534423207337S11656861EA0019200211000000000000
B0534443207337S11656861EA0019300211000000000000
B0534463207337S11656861EA0019200211000000000000
B0534483207337S11656861EA0019300211000000000000
B0534503207337S11656861EA0019300211000000000000
B0534523207337S11656861EA0019200211000000000000
B0534543207337S11656861EA0019300211000000000000
B0534563207337S11656862EA0019300211000000000000
B0534583207339S11656862EA0019300211000000000000
B0535013207345S11656867EA0019300211000000000000
B0535053207364S11656883EA0019300211000000000000
B0535093207397S11656906EA0019500211000000000000
B0535133207441S11656934EA0019600212000000000000
B0535173207493S11656966EA0019700213000000000000
B0535213207547S11657003EA0020100219000000000000
B0535253207602S11657036EA0021100234000000000000
B0535293207659S11657068EA0022600248000000000000
B0535333207714S11657101EA0023800261000000000000
B0535373207770S11657137EA0025000275000000000000
B0535413207823S11657172EA0026100290000000000000
B0535453207878S11657202EA0027700310000000000000
B0535493207930S11657230EA0029800332000000000000
B0535533207983S11657254EA0032300362000000000000
B0535573208038S11657282EA0034400376000000000000
B0536013208091S11657308EA0036500405000000000000
B0536053208145S11657330EA0038200418000000000000
B0536093208199S11657354EA0039400430000000000000
B0536133208251S11657384EA0040200437000000000000
B0536173208296S11657423EA0040900444000000000000
B0536213208335S11657468EA0041400450000000000000
B0536253208369S11657520EA0042200459000000000000
B0536293208395S11657580EA0043200471000000000000
B0536333208415S11657645EA0045000490000000000000
B0536373208425S11657712EA0047300517000000000000
B0536413208435S11657780EA0049700538000000000000
B0536453208447S11657849EA0050900545000000000000
B0536493208460S11657922EA0051500551000000000000
B0536533208469S11657996EA0052300560000000000000
B0536573208477S11658070EA0053700576000000000000
B0537013208487S11658141EA0055100587000000000000
B0537053208499S11658214EA0055900596000000000000
B0537093208508S11658288EA0057100609000000000000
B0537133208519S11658361EA0058500624000000000000
B0537173208529S11658430EA0060000637000000000000
B0537213208538S11658496EA0061400653000000000000
B0537253208550S11658563EA0062800668000000000000
B0537293208563S11658630EA0064000683000000000000
B0537333208572S11658697EA0066000706000000000000
B0537373208581S11658762EA0068000723000000000000
B0537413208590S11658827EA0069400739000000000000
B0537453208600S11658893EA0070600748000000000000
B0537493208610S11658960EA0071400755000000000000
B0537533208619S11659029EA0072500767000000000000
B0537573208629S11659098EA0074100785000000000000
B0538013208639S11659165EA0076400812000000000000
B0538053208669S11659206EA0078600830000000000000
B0538093208714S11659162EA0079500837000000000000
B0538133208702S11659075EA0079200831000000000000
B0538173208639S11659024EA0078900829000000000000
B0538213208569S11659023EA0078500821000000000000
B0538253208520S11659063EA0078400826000000000000
B0538293208513S11659111EA0078800833000000000000
B0538333208556S11659109EA0079600840000000000000
B0538373208590S11659045EA0080000841000000000000
B0538413208574S11658958EA0079900839000000015000
B0538453208509S11658914EA0079600836000000015000
B0538493208457S11658938EA0079700838000000000000
B0538533208487S11658964EA0079900840000000000000
B0538573208533S11658918EA0079900836000000015000
B0539013208532S11658825EA0079400832000000015000
B0539053208474S11658749EA0078900825000000015000
B0539093208395S11658743EA0078300823000000015000
B0539133208342S11658788EA0078400824000000000000
B0539173208326S11658843EA0079300835000000000000
B0539213208365S11658854EA0079900839000000000000
B0539253208395S11658780EA0079500834000000015000
B0539293208363S11658687EA0079200835000000015000
B0539333208287S11658646EA0079700838000000015000
B0539373208216S11658659EA0079600838000000000000
B0539413208173S11658704EA0080300845000000000000
B0539453208203S11658732EA0081500862000000000000
B0539493208227S11658656EA0082500868000000015000
B0539533208168S11658587EA0082100858000000015000
B0539573208096S11658602EA0081100849000000015000
B0540013208060S11658658EA0081100859000000000000
B0540053208092S11658690EA0083100884000000000000
B0540093208129S11658629EA0085300903000000015000
B0540133208091S11658546EA0086900916000000015000
B0540173208026S11658528EA0088000925000000015000
B0540213207999S11658564EA0088700934000000000000
B0540253208027S11658591EA0089800945000000000000
B0540293208073S11658560EA0090600954000000000000
B0540333208092S11658479EA0091600969000000015000
B0540373208071S11658388EA0092500971000000015000
B0540413208013S11658320EA0092700975000000015000
B0540453207940S11658307EA0092900975000000000000
B0540493207892S11658343EA0093200981000000000000
B0540533207895S11658391EA0094000990000000000000
B0540573207944S11658357EA0095201001000000000000
B0541013207930S11658256EA0095901009000000015000
B0541053207856S11658217EA0096401012000000015000
B0541093207794S11658251EA0096801015000000000000
B0541133207792S11658310EA0097601030000000000000
B0541173207836S11658334EA0099001040000000000000
B0541213207888S11658287EA0099901057000000015000
B0541253207898S11658197EA0101501071000000015000
B0541293207854S11658114EA0102601079000000015000
B0541333207783S11658091EA0103101087000000015000
B0541373207732S11658122EA0103901089000000000000
B0541413207722S11658174EA0104401101000000000000
B0541453207753S11658203EA0105701111000000000000
B0541493207801S11658165EA0106401118000000000000
B0541533207815S11658076EA0107001125000000015000
B0541573207779S11657991EA0107501130000000015000
B0542013207709S11657958EA0108201137000000015000
B0542053207657S11657988EA0108801143000000000000
B0542093207651S11658044EA0109201150000000000000
B0542133207689S11658065EA0110701166000000000000
B0542173207732S11658013EA0111701170000000015000
B0542213207731S11657919EA0112301178000000015000
B0542253207679S11657852EA0113201189000000015000
B0542293207620S11657859EA0114301199000000000000
B0542333207606S11657906EA0115201209000000000000
B0542373207644S11657928EA0116201220000000000000
B0542413207688S11657879EA0117101228000000015000
B0542453207683S11657788EA0117801234000000015000
B0542493207622S11657738EA0118201237000000015000
B0542533207570S11657761EA0118601246000000000000
B0542573207580S11657800EA0119901262000000000000
B0543013207628S11657789EA0121101268000000000000
B0543053207659S11657712EA0121601276000000015000
B0543093207637S11657627EA0122801287000000015000
B0543133207576S11657586EA0123001286000000015000
B0543173207520S11657602EA0123101293000000000000
B0543213207498S11657646EA0124001300000000000000
B0543253207520S11657685EA0125301315000000000000
B0543293207568S11657670EA0126101320000000000000
B0543333207597S11657594EA0126401325000000015000
B0543373207573S11657510EA0126701327000000015000
B0543413207511S11657465EA0126801329000000015000
B0543453207454S11657477EA0127801346000000000000
B0543493207447S11657521EA0129501358000000000000
B0543533207492S11657521EA0130501369000000000000
B0543573207523S11657449EA0131001369000000015000
B0544013207498S11657359EA0130901371000000015000
B0544053207434S11657311EA0131501378000000015000
B0544093207380S11657332EA0132301385000000015000
B0544133207381S11657378EA0133001392000000000000
B0544173207432S11657374EA0133801401000000015000
B0544213207467S11657295EA0134101405000000015000
B0544253207447S11657200EA0134701413000000015000
B0544293207386S11657146EA0135501422000000015000
B0544333207328S11657150EA0136201428000000015000
B0544373207303S11657191EA0136701429000000015000
B0544413207326S11657228EA0136901434000000015000
B0544453207373S11657205EA0138101449000000015000
B0544493207394S11657124EA0138601448000000015000
B0544533207358S11657039EA0138901453000000015000
B0544573207290S11657004EA0138901453000000015000
B0545013207232S11657018EA0138901452000000015000
B0545053207207S11657066EA0138901455000000015000
B0545093207228S11657109EA0139301458000000015000
B0545133207278S11657112EA0139901467000000015000
B0545173207326S11657061EA0140401466000000015000
B0545213207350S11656973EA0140301465000000015000
B0545253207356S11656873EA0140101466000000015000
B0545293207328S11656783EA0140401470000000015000
B0545333207264S11656750EA0140501469000000015000
B0545373207217S11656775EA0140001465000000015000
B0545413207208S11656822EA0139801464000000015000
B0545453207219S11656867EA0139801467000000015000
B0545493207232S11656913EA0140401471000000000000
B0545533207246S11656960EA0140601474000000000000
B0545573207261S11657005EA0141001476000000000000
B0546013207277S11657053EA0140701472000000000000
B0546053207291S11657107EA0140801474000000000000
B0546093207310S11657157EA0141001475000000000000
B0546133207330S11657205EA0140501468000000000000
B0546173207346S11657257EA0140201467000000000000
B0546213207354S11657313EA0140101462000000000000
B0546253207358S11657371EA0139001449000000000000
B0546293207377S11657426EA0137801440000000000000
B0546333207398S11657484EA0136801427000000000000
B0546373207420S11657546EA0135801421000000000000
B0546413207437S11657608EA0135901423000000000000
B0546453207451S11657671EA0136101425000000000000
B0546493207460S11657735EA0136001422000000000000
B0546533207467S11657798EA0135601415000000000000
B0546573207480S11657865EA0134801410000000000000
B0547013207494S11657928EA0134701412000000000000
B0547053207508S11657989EA0134901413000000000000
B0547093207525S11658049EA0134601409000000000000
B0547133207540S11658108EA0134401407000000000000
B0547173207553S11658164EA0134401407000000000000
B0547213207571S11658218EA0134301407000000000000
B0547253207590S11658270EA0134201406000000000000
B0547293207605S11658325EA0134101403000000000000
B0547333207622S11658382EA0133801400000000000000
B0547373207636S11658443EA0133601400000000000000
B0547413207650S11658505EA0133001390000000000000
B0547453207667S11658569EA0132201383000000000000
B0547493207688S11658632EA0131701378000000000000
B0547533207710S11658694EA0131501377000000000000
B0547573207732S11658756EA0131001370000000000000
B0548013207754S11658820EA0130501363000000000000
B0548053207788S11658877EA0129701356000000000000
B0548093207830S11658928EA0129201353000000000000
B0548133207882S11658967EA0128801348000000000000
B0548173207940S11658994EA0128301341000000000000
B0548213208001S11659014EA0128101343000000000000
B0548253208061S11659029EA0128201342000000000000
B0548293208106S11659063EA0128101341000000000000
B0548333208130S11659118EA0128001340000000000000
B0548373208129S11659178EA0127701335000000000000
B0548413208121S11659239EA0127201329000000000000
B0548453208130S11659298EA0126501322000000000000
B0548493208156S11659350EA0125701312000000000000
B0548533208197S11659393EA0124301296000000000000
B0548573208252S11659417EA0123001286000000000000
B0549013208312S11659428EA0122001274000000000000
B0549053208374S11659432EA0121201268000000000000
B0549093208437S11659428EA0120201257000000000000
B0549133208503S11659418EA0119201248000000000000
B0549173208567S11659405EA0118501239000000000000
B0549213208633S11659391EA0117501227000000000000
B0549253208701S11659373EA0117201234000000000000
B0549293208762S11659373EA0119201254000000000000
B0549333208795S11659422EA0120301262000000000000
B0549373208803S11659486EA0121001268000000000000
B0549413208825S11659536EA0121601273000000000000
B0549453208877S11659508EA0121701272000000000000
B0549493208889S11659414EA0121401270000000015000
B0549533208854S11659319EA0121101268000000015000
B0549573208789S11659254EA0120901263000000015000
B0550013208708S11659239EA0120801271000000015000
B0550053208638S11659259EA0121801281000000015000
B0550093208593S11659314EA0122601291000000015000
B0550133208589S11659373EA0124001306000000000000
B0550173208633S11659367EA0125001311000000015000
B0550213208647S11659295EA0124901306000000015000
B0550253208599S11659222EA0124101302000000015000
B0550293208526S11659204EA0124601309000000015000
B0550333208470S11659239EA0125501320000000015000
B0550373208450S11659293EA0126301324000000015000
B0550413208473S11659334EA0126401323000000015000
B0550453208519S11659311EA0126001314000000015000
B0550493208532S11659223EA0125101309000000015000
B0550533208528S11659128EA0124801312000000015000
B0550573208489S11659048EA0125801321000000015000
B0551013208416S11659037EA0126301323000000015000
B0551053208403S11659089EA0126801334000000015000
B0551093208452S11659077EA0128201346000000015000
B0551133208469S11658996EA0129001356000000015000
B0551173208418S11658924EA0129201355000000015000
B0551213208343S11658914EA0129201357000000015000
B0551253208303S11658964EA0129901367000000015000
B0551293208317S11659011EA0131701386000000015000
B0551333208361S11659006EA0133401398000000015000
B0551373208398S11658947EA0133201395000000015000
B0551413208399S11658856EA0133001398000000015000
B0551453208356S11658778EA0133501406000000015000
B0551493208286S11658747EA0134201410000000015000
B0551533208225S11658768EA0134601412000000015000
B0551573208184S11658814EA0134701411000000015000
B0552013208174S11658871EA0134301410000000015000
B0552053208192S11658921EA0134901415000000015000
B0552093208239S11658918EA0134901410000000015000
B0552133208273S11658847EA0134101405000000015000
B0552173208288S11658756EA0134001408000000015000
B0552213208257S11658667EA0135001419000000015000
B0552253208188S11658637EA0135601419000000015000
B0552293208144S11658677EA0135701420000000015000
B0552333208162S11658724EA0135601418000000015000
B0552373208214S11658706EA0136201432000000015000
B0552413208223S11658622EA0137501443000000015000
B0552453208181S11658547EA0138301448000000015000
B0552493208110S11658515EA0138101445000000015000
B0552533208044S11658533EA0138301450000000015000
B0552573208013S11658581EA0139001459000000015000
B0553013207997S11658635EA0139301457000000015000
B0553053207997S11658697EA0138901453000000000000
B0553093208008S11658758EA0138201443000000000000
B0553133208023S11658819EA0137201430000000000000
B0553173208030S11658890EA0136301425000000000000
B0553213208030S11658962EA0136501432000000000000
B0553253208032S11659032EA0136601429000000000000
B0553293208036S11659103EA0136101423000000000000
B0553333208044S11659179EA0135301414000000000000
B0553373208065S11659246EA0135501419000000000000
B0553413208119S11659249EA0136101426000000000000
B0553453208158S11659184EA0136001421000000015000
B0553493208151S11659090EA0135301415000000015000
B0553533208091S11659015EA0135001408000000015000
B0553573208005S11658993EA0134301406000000015000
B0554013207928S11659020EA0134401406000000015000
B0554053207884S11659081EA0134201401000000015000
B0554093207874S11659150EA0133401397000000015000
B0554133207872S11659218EA0133101392000000000000
B0554173207878S11659285EA0132201379000000000000
B0554213207892S11659356EA0130401362000000000000
B0554253207909S11659425EA0129301355000000000000
B0554293207917S11659493EA0128801351000000000000
B0554333207909S11659564EA0128601348000000000000
B0554373207898S11659631EA0128601348000000000000
B0554413207904S11659692EA0128701349000000000000
B0554453207921S11659750EA0128101341000000000000
B0554493207952S11659795EA0127501333000000000000
B0554533208001S11659808EA0126901327000000000000
B0554573208053S11659773EA0126901330000000000000
B0555013208082S11659699EA0126301318000000015000
B0555053208073S11659600EA0125301306000000015000
B0555093208044S11659501EA0124001293000000000000
B0555133208009S11659400EA0122801283000000000000
B0555173207975S11659296EA0121901277000000000000
B0555213207945S11659192EA0121401272000000000000
B0555253207921S11659087EA0120901264000000000000
B0555293207897S11658980EA0120401262000000000000
B0555333207871S11658875EA0120001258000000000000
B0555373207840S11658773EA0119501250000000000000
B0555413207804S11658676EA0118701242000000000000
B0555453207763S11658578EA0117601230000000000000
B0555493207718S11658481EA0116901224000000000000
B0555533207675S11658382EA0116301217000000000000
B0555573207638S11658282EA0115801214000000000000
B0556013207607S11658180EA0116001220000000000000
B0556053207572S11658091EA0117001231000000000000
B0556093207532S11658005EA0117201228000000000000
B0556133207488S11657919EA0116701224000000000000
B0556173207447S11657827EA0117201232000000000000
B0556213207416S11657732EA0118301241000000000000
B0556253207347S11657686EA0119301255000000000000
B0556293207294S11657719EA0120001258000000000000
B0556333207287S11657772EA0119901258000000000000
B0556373207316S11657807EA0120301263000000000000
B0556413207352S11657774EA0121501279000000015000
B0556453207334S11657697EA0123001291000000015000
B0556493207269S11657657EA0123501293000000015000
B0556533207208S11657679EA0123901299000000015000
B0556573207196S11657724EA0124601304000000015000
B0557013207225S11657740EA0124601303000000015000
B0557053207263S11657714EA0124701304000000015000
B0557093207285S11657653EA0125101309000000015000
B0557133207248S11657577EA0125501316000000015000
B0557173207176S11657555EA0125901318000000015000
B0557213207130S11657597EA0126501326000000015000
B0557253207139S11657637EA0127201332000000015000
B0557293207174S11657621EA0127501335000000015000
B0557333207189S11657550EA0127401338000000015000
B0557373207154S11657468EA0127901344000000015000
B0557413207085S11657426EA0128201345000000015000
B0557453207014S11657442EA0128201345000000015000
B0557493206975S11657494EA0127801340000000015000
B0557533206982S11657549EA0127601337000000015000
B0557573207021S11657572EA0127101326000000015000
B0558013207065S11657542EA0126601324000000015000
B0558053207077S11657464EA0126501319000000015000
B0558093207059S11657371EA0126001322000000015000
B0558133207034S11657277EA0126201323000000000000
B0558173206995S11657189EA0125701313000000000000
B0558213206922S11657126EA0125001308000000000000
B0558253206835S11657091EA0124801307000000000000
B0558293206748S11657072EA0124901310000000000000
B0558333206662S11657064EA0124701307000000000000
B0558373206576S11657062EA0124501304000000000000
B0558413206492S11657065EA0124001297000000000000
B0558453206411S11657073EA0123701296000000000000
B0558493206332S11657078EA0123501294000000000000
B0558533206255S11657077EA0123701299000000000000
B0558573206184S11657066EA0123701292000000000000
B0559013206108S11657053EA0122301278000000000000
B0559053206029S11657039EA0120901265000000000000
B0559093205947S11657022EA0119701251000000000000
B0559133205865S11657007EA0119001245000000000000
B0559173205786S11656992EA0118501240000000000000
B0559213205707S11656983EA0118101237000000000000
B0559253205630S11656978EA0117701233000000000000
B0559293205552S11656973EA0117101224000000000000
B0559333205471S11656971EA0115901211000000000000
B0559373205391S11656971EA0114501198000000000000
B0559413205311S11656973EA0113901192000000000000
B0559453205243S11656991EA0114501202000000000000
B0559493205198S11657038EA0115301214000000000000
B0559533205171S11657091EA0116001213000000000000
B0559573205161S11657153EA0115301208000000000000
B0600013205165S11657212EA0115701219000000000000
B0600053205207S11657212EA0117301230000000000000
B0600093205239S11657146EA0117101225000000015000
B0600133205223S11657057EA0116901226000000015000
B0600173205167S11656995EA0116901228000000015000
B0600213205105S11656999EA0117401232000000015000
B0600253205070S11657044EA0116901222000000015000
B0600293205059S11657101EA0116301219000000015000
B0600333205054S11657163EA0115801212000000000000
B0600373205035S11657229EA0115001200000000000000
B0600413205031S11657300EA0114001191000000000000
B0600453205044S11657365EA0114001200000000000000
B0600493205050S11657429EA0115101216000000000000
B0600533205018S11657481EA0117001233000000000000
B0600573204942S11657465EA0118701251000000000000
B0601013204890S11657393EA0120201268000000000000
B0601053204879S11657308EA0121901283000000000000
B0601093204901S11657242EA0123101294000000015000
B0601133204940S11657211EA0123701295000000015000
B0601173204976S11657216EA0123701295000000015000
B0601213204992S11657254EA0123501294000000015000
B0601253204983S11657306EA0123701292000000015000
B0601293204931S11657347EA0124101303000000000000
B0601333204864S11657365EA0125201313000000000000
B0601373204791S11657342EA0126001329000000000000
B0601413204758S11657268EA0127501340000000000000
B0601453204777S11657199EA0128201347000000015000
B0601493204817S11657172EA0129101355000000015000
B0601533204843S11657195EA0129901360000000015000
B0601573204829S11657244EA0129701355000000015000
B0602013204797S11657300EA0129301351000000000000
B0602053204786S11657359EA0129001349000000015000
B0602093204812S11657400EA0128701343000000015000
B0602133204860S11657412EA0127601332000000015000
B0602173204915S11657402EA0126901327000000000000
B0602213204971S11657380EA0126901330000000000000
B0602253205024S11657354EA0127001328000000000000
B0602293205075S11657322EA0126601322000000000000
B0602333205126S11657293EA0125901316000000000000
B0602373205176S11657267EA0125401310000000000000
B0602413205228S11657241EA0124401299000000000000
B0602453205282S11657217EA0123801294000000000000
B0602493205336S11657192EA0123501292000000000000
B0602533205391S11657169EA0123401293000000000000
B0602573205445S11657146EA0123601295000000000000
B0603013205496S11657125EA0123701294000000000000
B0603053205549S11657107EA0122901280000000000000
B0603093205604S11657088EA0121701272000000000000
B0603133205661S11657073EA0121201268000000000000
B0603173205717S11657057EA0121501273000000000000
B0603213205764S11657023EA0122801292000000000000
B0603253205776S11656949EA0124201300000000000000
B0603293205737S11656873EA0124201298000000000000
B0603333205665S11656836EA0124001297000000015000
B0603373205600S11656849EA0124301301000000015000
B0603413205564S11656892EA0124401298000000000000
B0603453205560S11656944EA0124001293000000000000
B0603493205566S11656997EA0123101280000000000000
B0603533205587S11657048EA0121901268000000000000
B0603573205629S11657088EA0120301251000000000000
B0604013205686S11657108EA0119001241000000000000
B0604053205751S11657111EA0118101231000000000000
B0604093205820S11657105EA0117401223000000000000
B0604133205893S11657096EA0116201211000000000000
B0604173205967S11657082EA0115501206000000000000
B0604213206041S11657066EA0115401208000000000000
B0604253206111S11657048EA0115801212000000000000
B0604293206177S11657025EA0116201218000000000000
B0604333206245S11657003EA0115701207000000000000
B0604373206314S11656982EA0114501196000000000000
B0604413206384S11656965EA0114001190000000000000
B0604453206452S11656949EA0113501186000000000000
B0604493206519S11656936EA0112801178000000000000
B0604533206584S11656925EA0112601182000000000000
B0604573206647S11656917EA0113101186000000000000
B0605013206706S11656910EA0113501188000000000000
B0605053206765S11656906EA0113201184000000000000
B0605093206825S11656903EA0112701178000000000000
B0605133206886S11656901EA0112701184000000000000
B0605173206948S11656896EA0113201185000000000000
B0605213207011S11656892EA0112501177000000000000
B0605253207069S11656890EA0112601185000000000000
B0605293207124S11656893EA0113401188000000000000
B0605333207180S11656899EA0112901182000000000000
B0605373207238S11656904EA0112101174000000000000
B0605413207298S11656901EA0111801172000000000000
B0605453207358S11656884EA0111501169000000000000
B0605493207417S11656861EA0110901163000000000000
B0605533207477S11656836EA0110401154000000000000
B0605573207538S11656810EA0109701146000000000000
B0606013207602S11656786EA0108701140000000000000
B0606053207666S11656774EA0108101132000000000000
B0606093207727S11656776EA0106901116000000000000
B0606133207784S11656795EA0105601106000000000000
B0606173207835S11656825EA0104801098000000000000
B0606213207884S11656856EA0104501095000000000000
B0606253207932S11656884EA0104601101000000000000
B0606293207984S11656884EA0105701115000000000000
B0606333208013S11656818EA0107301132000000000000
B0606373207982S11656739EA0108401135000000015000
B0606413207906S11656711EA0107901130000000015000
B0606453207841S11656743EA0107701131000000015000
B0606493207798S11656796EA0108001134000000015000
B0606533207771S11656854EA0108201134000000015000
B0606573207781S11656905EA0109401151000000015000
B0607013207820S11656890EA0111201164000000015000
B0607053207826S11656812EA0111101157000000015000
B0607093207770S11656745EA0111001163000000015000
B0607133207698S11656734EA0112101175000000045000
B0607173207644S11656766EA0112801181000000030000
B0607213207645S11656805EA0113601186000000030000
B0607253207679S11656786EA0114001192000000030000
B0607293207689S11656711EA0114401192000000015000
B0607333207655S11656632EA0114201195000000015000
B0607373207588S11656597EA0114701198000000015000
B0607413207527S11656613EA0114301187000000015000
B0607453207499S11656665EA0112801175000000015000
B0607493207498S11656721EA0111901168000000015000
B0607533207520S11656767EA0111401163000000015000
B0607573207549S11656812EA0110001158000000015000
B0608013207545S11656871EA0109601152000000015000
B0608053207501S11656927EA0108501138000000015000
B0608093207433S11656968EA0107201126000000015000
B0608133207356S11657000EA0106701126000000015000
B0608173207290S11657040EA0107601132000000015000
B0608213207255S11657098EA0108101134000000015000
B0608253207255S11657157EA0108201137000000030000
B0608293207268S11657216EA0108601142000000030000
B0608333207286S11657270EA0107701140000000030000
B0608373207304S11657332EA0106801132000000015000
B0608413207323S11657395EA0108001152000000015000
B0608453207349S11657446EA0110701163000000015000
B0608493207393S11657410EA0112601177000000015000
B0608533207365S11657334EA0113501189000000030000
B0608573207298S11657320EA0114201197000000015000
B0609013207263S11657360EA0115801221000000015000
B0609053207282S11657386EA0117901233000000015000
B0609093207319S11657352EA0119401251000000015000
B0609133207317S11657280EA0120901264000000015000
B0609173207265S11657229EA0121601267000000015000
B0609213207204S11657244EA0121901277000000015000
B0609253207195S11657289EA0123201289000000030000
B0609293207237S11657293EA0124401299000000030000
B0609333207263S11657226EA0125701317000000030000
B0609373207226S11657156EA0127101334000000030000
B0609413207161S11657133EA0128201338000000030000
B0609453207108S11657159EA0129201348000000045000
B0609493207096S11657211EA0129801355000000030000
B0609533207126S11657237EA0131101371000000030000
B0609573207170S11657213EA0132701385000000030000
B0610013207198S11657148EA0133601395000000030000
B0610053207159S11657073EA0134801412000000030000
B0610093207092S11657055EA0135401416000000045000
B0610133207055S11657095EA0135901424000000045000
B0610173207070S11657139EA0136901431000000045000
B0610213207117S11657139EA0138101440000000030000
B0610253207155S11657081EA0138901443000000030000
B0610293207133S11657000EA0139501456000000045000
B0610333207070S11656965EA0139601450000000030000
B0610373207017S11656996EA0139301453000000015000
B0610413207004S11657055EA0139601459000000015000
B0610453207030S11657099EA0141201467000000015000
B0610493207079S11657083EA0142501475000000030000
B0610533207104S11657013EA0142501478000000015000
B0610573207079S11656934EA0142701485000000015000
B0611013207021S11656888EA0142701486000000015000
B0611053206955S11656886EA0143001492000000015000
B0611093206905S11656922EA0143501497000000015000
B0611133206888S11656982EA0143801502000000015000
B0611173206920S11657020EA0145001512000000015000
B0611213206970S11656991EA0145301509000000015000
B0611253206991S11656914EA0144801507000000015000
B0611293206970S11656827EA0144401502000000015000
B0611333206929S11656750EA0144501510000000015000
B0611373206866S11656721EA0144801510000000015000
B0611413206805S11656743EA0144001498000000015000
B0611453206739S11656770EA0142901488000000015000
B0611493206661S11656789EA0142301490000000015000
B0611533206593S11656826EA0142901493000000015000
B0611573206553S11656882EA0143001493000000015000
B0612013206517S11656940EA0142301484000000000000
B0612053206461S11656992EA0141501477000000000000
B0612093206394S11657036EA0141001475000000000000
B0612133206322S11657070EA0141201476000000000000
B0612173206247S11657096EA0141201476000000000000
B0612213206169S11657113EA0141001469000000000000
B0612253206089S11657129EA0140701470000000000000
B0612293206007S11657140EA0140701468000000000000
B0612333205926S11657155EA0140401463000000000000
B0612373205848S11657178EA0139901459000000000000
B0612413205772S11657204EA0139401455000000000000
B0612453205696S11657229EA0138901447000000000000
B0612493205618S11657256EA0137601435000000000000
B0612533205539S11657283EA0136601420000000000000
B0612573205457S11657308EA0135501412000000000000
B0613013205374S11657333EA0134401398000000000000
B0613053205289S11657355EA0133301390000000000000
B0613093205204S11657373EA0132801383000000000000
B0613133205114S11657386EA0132401383000000000000
B0613173205025S11657398EA0133101390000000000000
B0613213204940S11657416EA0133501394000000000000
B0613253204862S11657446EA0134501405000000000000
B0613293204798S11657491EA0135101410000000000000
B0613333204747S11657547EA0134801404000000000000
B0613373204694S11657605EA0133601389000000000000
B0613413204632S11657659EA0132401379000000000000
B0613453204564S11657709EA0131701374000000000000
B0613493204494S11657751EA0131201367000000000000
B0613533204420S11657788EA0130301359000000000000
B0613573204344S11657818EA0129801353000000000000
B0614013204268S11657844EA0129401350000000000000
B0614053204192S11657868EA0129401354000000000000
B0614093204125S11657902EA0130501368000000000000
B0614133204091S11657957EA0132601389000000015000
B0614173204110S11657995EA0134301398000000000000
B0614213204154S11657956EA0134801399000000015000
B0614253204169S11657875EA0134701402000000015000
B0614293204147S11657789EA0134701407000000015000
B0614333204092S11657729EA0135401415000000015000
B0614373204030S11657720EA0136201422000000030000
B0614413203987S11657754EA0136201417000000015000
B0614453203958S11657807EA0135201407000000015000
B0614493203932S11657865EA0134601401000000015000
B0614533203922S11657927EA0134001397000000015000
B0614573203923S11657988EA0133601395000000000000
B0615013203927S11658049EA0133201389000000000000
B0615053203922S11658112EA0132201375000000000000
B0615093203891S11658174EA0131201370000000000000
B0615133203837S11658227EA0131001368000000000000
B0615173203775S11658275EA0131401370000000000000
B0615213203722S11658329EA0130901363000000000000
B0615253203664S11658379EA0129801352000000000000
B0615293203598S11658421EA0128801343000000000000
B0615333203525S11658459EA0128001335000000000000
B0615373203449S11658492EA0127201325000000000000
B0615413203367S11658518EA0126401317000000000000
B0615453203286S11658538EA0126301321000000000000
B0615493203213S11658556EA0126501322000000000000
B0615533203140S11658569EA0126001310000000000000
B0615573203060S11658581EA0124901298000000000000
B0616013202978S11658591EA0124001290000000000000
B0616053202895S11658608EA0123301284000000000000
B0616093202817S11658638EA0122601278000000000000
B0616133202743S11658680EA0122201271000000000000
B0616173202669S11658723EA0121501266000000000000
B0616213202598S11658765EA0122001275000000000000
B0616253202537S11658811EA0121901271000000000000
B0616293202474S11658858EA0121201262000000000000
B0616333202409S11658906EA0119801245000000000000
B0616373202340S11658957EA0118401235000000000000
B0616413202273S11659005EA0119001245000000000000
B0616453202227S11659062EA0119401247000000000000
B0616493202203S11659126EA0118801238000000000000
B0616533202181S11659192EA0117801224000000000000
B0616573202139S11659250EA0116601210000000000000
B0617013202082S11659302EA0115501204000000000000
B0617053202028S11659360EA0115201204000000000000
B0617093201978S11659418EA0115501209000000000000
B0617133201939S11659475EA0116701220000000000000
B0617173201911S11659535EA0116801217000000000000
B0617213201890S11659599EA0116101212000000000000
B0617253201877S11659665EA0115601205000000000000
B0617293201864S11659735EA0114701196000000000000
B0617333201833S11659804EA0113801184000000000000
B0617373201783S11659864EA0113001177000000000000
B0617413201721S11659916EA0112301173000000000000
B0617453201656S11659961EA0111701164000000000000
B0617493201588S11700002EA0110901158000000000000
B0617533201518S11700039EA0110301150000000000000
B0617573201445S11700072EA0109201137000000000000
B0618013201375S11700106EA0107901124000000000000
B0618053201304S11700140EA0107201115000000000000
B0618093201231S11700172EA0106201107000000000000
B0618133201159S11700202EA0106201112000000000000
B0618173201092S11700237EA0106901119000000000000
B0618213201058S11700293EA0107501129000000000000
B0618253201050S11700354EA0108201133000000000000
B0618293201058S11700409EA0109001141000000000000
B0618333201102S11700419EA0108801133000000000000
B0618373201133S11700346EA0107501120000000000000
B0618413201109S11700251EA0107301126000000000000
B0618453201044S11700186EA0108401139000000015000
B0618493200977S11700188EA0110101154000000015000
B0618533200975S11700234EA0110801156000000015000
B0618573201020S11700221EA0110601153000000015000
B0619013201029S11700141EA0110401154000000015000
B0619053200973S11700076EA0111401168000000015000
B0619093200915S11700088EA0112401172000000015000
B0619133200912S11700141EA0112201171000000015000
B0619173200954S11700153EA0112501176000000015000
B0619213200986S11700094EA0112801179000000015000
B0619253200981S11700004EA0113001185000000015000
B0619293200936S11659928EA0114001194000000015000
B0619333200877S11659937EA0115101205000000015000
B0619373200877S11659980EA0115501207000000015000
B0619413200919S11659972EA0115701209000000015000
B0619453200933S11659896EA0116401221000000015000
B0619493200884S11659825EA0117201225000000015000
B0619533200815S11659820EA0118001234000000015000
B0619573200780S11659863EA0118901240000000015000
B0620013200793S11659906EA0119301244000000015000
B0620053200832S11659912EA0119001239000000015000
B0620093200872S11659861EA0118501237000000015000
B0620133200877S11659773EA0119101251000000015000
B0620173200828S11659699EA0119801254000000015000
B0620213200755S11659687EA0119801253000000015000
B0620253200715S11659727EA0120701263000000030000
B0620293200747S11659748EA0120801259000000015000
B0620333200785S11659700EA0121101268000000030000
B0620373200793S11659616EA0121701273000000015000
B0620413200758S11659531EA0121901273000000015000
B0620453200686S11659484EA0121401269000000015000
B0620493200608S11659467EA0121601272000000015000
B0620533200539S11659488EA0121901273000000015000
B0620573200495S11659542EA0122301275000000015000
B0621013200465S11659600EA0122801286000000015000
B0621053200459S11659656EA0123801299000000015000
B0621093200499S11659665EA0125101304000000015000
B0621133200531S11659596EA0124401295000000015000
B0621173200527S11659497EA0123501291000000015000
B0621213200512S11659397EA0123701295000000015000
B0621253200482S11659304EA0124701304000000015000
B0621293200416S11659283EA0125601304000000015000
B0621333200383S11659336EA0124501293000000015000
B0621373200374S11659401EA0124001291000000015000
B0621413200368S11659467EA0124701298000000015000
B0621453200362S11659536EA0124901297000000015000
B0621493200355S11659609EA0124301288000000015000
B0621533200318S11659681EA0123301280000000000000
B0621573200252S11659734EA0122601276000000000000
B0622013200167S11659759EA0122501274000000000000
B0622053200076S11659772EA0122801282000000000000
B0622093159988S11659781EA0123901289000000015000
B0622133159902S11659794EA0124601295000000015000
B0622173159848S11659842EA0124701295000000015000
B0622213159837S11659904EA0124501293000000015000
B0622253159848S11659960EA0124501297000000015000
B0622293159859S11700013EA0124801298000000015000
B0622333159876S11700067EA0124101290000000000000
B0622373159893S11700121EA0122801275000000000000
B0622413159870S11700186EA0121401268000000000000
B0622453159807S11700227EA0120901260000000000000
B0622493159725S11700220EA0120001247000000000000
B0622533159640S11700180EA0118501230000000000000
B0622573159556S11700132EA0117401220000000000000
B0623013159473S11700084EA0116201209000000000000
B0623053159387S11700041EA0115401203000000000000
B0623093159304S11659995EA0114801197000000000000
B0623133159218S11659956EA0114101187000000000000
B0623173159131S11659921EA0113401180000000000000
B0623213159043S11659894EA0112901175000000000000
B0623253158958S11659890EA0112801174000000000000
B0623293158882S11659906EA0112501171000000000000
B0623333158811S11659933EA0111901164000000000000
B0623373158746S11659971EA0111001157000000000000
B0623413158684S11700015EA0110001145000000000000
B0623453158619S11700058EA0109101139000000000000
B0623493158553S11700099EA0108301128000000000000
B0623533158489S11700143EA0107601124000000000000
B0623573158428S11700190EA0107901131000000000000
B0624013158382S11700242EA0109001143000000000000
B0624053158382S11700294EA0110701160000000015000
B0624093158425S11700285EA0111801167000000015000
B0624133158436S11700208EA0112101170000000015000
B0624173158382S11700138EA0112101171000000015000
B0624213158311S11700125EA0113001180000000015000
B0624253158285S11700168EA0113901184000000015000
B0624293158319S11700190EA0113801183000000015000
B0624333158359S11700145EA0114201190000000015000
B0624373158353S11700058EA0114601191000000015000
B0624413158295S11659990EA0114801197000000015000
B0624453158224S11659981EA0115401204000000015000
B0624493158176S11700013EA0116001211000000015000
B0624533158169S11700059EA0116501217000000015000
B0624573158204S11700076EA0116501212000000015000
B0625013158250S11700039EA0116201215000000015000
B0625053158260S11659961EA0117201227000000015000
B0625093158213S11659893EA0117601227000000015000
B0625133158145S11659883EA0117801229000000015000
B0625173158121S11659924EA0118201234000000015000
B0625213158160S11659932EA0118201232000000015000
B0625253158190S11659870EA0118301240000000015000
B0625293158176S11659783EA0119101247000000015000
B0625333158130S11659708EA0119701253000000015000
B0625373158065S11659685EA0120201252000000015000
B0625413158024S11659727EA0119901250000000015000
B0625453158035S11659772EA0120201256000000015000
B0625493158077S11659773EA0120801261000000015000
B0625533158109S11659713EA0121301264000000015000
B0625573158099S11659625EA0121601271000000015000
B0626013158042S11659557EA0122101273000000015000
B0626053157969S11659547EA0121901269000000015000
B0626093157920S11659586EA0121601265000000015000
B0626133157905S11659640EA0121601268000000015000
B0626173157911S11659694EA0121001255000000015000
B0626213157916S11659756EA0119101232000000000000
B0626253157888S11659825EA0117201216000000000000
B0626293157843S11659886EA0116701212000000000000
B0626333157792S11659942EA0116201206000000000000
B0626373157735S11659994EA0115201198000000015000
B0626413157674S11700047EA0115301202000000015000
B0626453157632S11700103EA0117201217000000015000
B0626493157647S11700150EA0119401234000000015000
B0626533157693S11700123EA0119501229000000015000
B0626573157695S11700032EA0118301223000000015000
B0627013157632S11659969EA0118001226000000015000
B0627053157565S11659965EA0119401244000000015000
B0627093157535S11700008EA0120201247000000015000
B0627133157562S11700050EA0119701243000000015000
B0627173157618S11700033EA0119801244000000015000
B0627213157644S11659952EA0119701243000000015000
B0627253157610S11659867EA0119501243000000015000
B0627293157541S11659839EA0119501245000000015000
B0627333157474S11659851EA0119701249000000015000
B0627373157415S11659880EA0120601252000000000000
B0627413157392S11659933EA0120701250000000015000
B0627453157384S11659994EA0120001242000000015000
B0627493157380S11700056EA0119101235000000000000
B0627533157398S11700115EA0118301227000000000000
B0627573157448S11700143EA0117301221000000000000
B0628013157508S11700146EA0116901215000000000000
B0628053157573S11700132EA0115901208000000015000
B0628093157638S11700106EA0115101202000000015000
B0628133157703S11700069EA0114301196000000015000
B0628173157766S11700036EA0113501187000000015000
B0628213157829S11700000EA0113001185000000015000
B0628253157891S11659961EA0112601180000000015000
B0628293157952S11659922EA0112001175000000000000
B0628333158012S11659885EA0111501169000000000000
B0628373158073S11659848EA0111001162000000000000
B0628413158133S11659812EA0110601157000000000000
B0628453158191S11659774EA0110101152000000000000
B0628493158250S11659739EA0109701149000000000000
B0628533158307S11659708EA0109701150000000000000
B0628573158364S11659679EA0109301143000000000000
B0629013158421S11659649EA0108301132000000000000
B0629043158466S11659627EA0107501123000000000000
B0629093158540S11659592EA0106801115000000000000
B0629133158598S11659564EA0105901105000000000000
B0629173158659S11659532EA0104701089000000000000
B0629213158722S11659501EA0103101076000000000000
B0629253158784S11659470EA0102101066000000000000
B0629293158845S11659438EA0101401061000000000000
B0629333158906S11659410EA0101301061000000000000
B0629373158966S11659387EA0101101057000000000000
B0629413159029S11659365EA0100701053000000000000
B0629453159092S11659340EA0100201047000000000000
B0629493159153S11659318EA0100301051000000000000
B0629533159213S11659301EA0100201049000000000000
B0629573159274S11659283EA0100101049000000000000
B0630013159335S11659259EA0099601041000000000000
B0630053159398S11659233EA0099001037000000000000
B0630093159458S11659210EA0098901035000000000000
B0630133159515S11659201EA0099201041000000000000
B0630173159562S11659215EA0099701044000000000000
B0630213159598S11659248EA0099401036000000000000
B0630253159640S11659280EA0098201022000000000000
B0630293159693S11659293EA0097101015000000000000
B0630333159750S11659282EA0096701012000000000000
B0630373159806S11659254EA0096701011000000000000
B0630413159861S11659214EA0095700999000000000000
B0630453159916S11659165EA0094300985000000000000
B0630493159971S11659113EA0093300976000000000000
B0630533200027S11659061EA0092500967000000000000
B0630573200080S11659007EA0091800958000000000000
B0631013200135S11658958EA0090800947000000000000
B0631053200191S11658910EA0089600933000000000000
B0631093200247S11658862EA0088400924000000000000
B0631133200301S11658811EA0088000921000000000000
B0631173200355S11658759EA0087900921000000000000
B0631213200405S11658702EA0087700916000000000000
B0631253200456S11658639EA0087300914000000000000
B0631293200507S11658581EA0088300937000000000000
B0631333200535S11658515EA0090700956000000000000
B0631373200496S11658442EA0091700953000000000000
B0631413200422S11658444EA0090900951000000000000
B0631453200408S11658496EA0092200974000000000000
B0631493200446S11658492EA0094600988000000015000
B0631533200456S11658420EA0096101001000000015000
B0631573200405S11658353EA0096701002000000015000
B0632013200332S11658344EA0096701007000000015000
B0632053200293S11658390EA0097701021000000015000
B0632093200310S11658429EA0099501045000000000000
B0632133200349S11658417EA0101101054000000000000
B0632173200364S11658342EA0101701064000000000000
B0632213200316S11658270EA0103201079000000000000
B0632253200243S11658256EA0103801087000000015000
B0632293200197S11658294EA0105401104000000015000
B0632333200208S11658333EA0106901122000000015000
B0632373200245S11658316EA0107901131000000015000
B0632413200257S11658236EA0108401139000000015000
B0632453200212S11658161EA0109901154000000015000
B0632493200139S11658141EA0110801160000000015000
B0632533200087S11658180EA0111501169000000015000
B0632573200083S11658229EA0113201186000000015000
B0633013200114S11658243EA0114101191000000015000
B0633053200150S11658203EA0114701197000000015000
B0633093200152S11658117EA0115401202000000030000
B0633133200102S11658035EA0116001208000000030000
B0633173200023S11658009EA0116801213000000045000
B0633213159955S11658039EA0116801217000000015000
B0633253159929S11658093EA0118001234000000015000
B0633293159963S11658115EA0118501229000000015000
B0633333200005S11658062EA0118301234000000015000
B0633373200000S11657970EA0119101252000000015000
B0633413159937S11657915EA0120901264000000015000
B0633453159868S11657922EA0121101265000000015000
B0633493159828S11657965EA0122001277000000015000
B0633533159836S11658005EA0122701271000000015000
B0633573159877S11658004EA0122201271000000015000
B0634013159911S11657950EA0122801283000000015000
B0634053159914S11657867EA0123401291000000030000
B0634093159875S11657787EA0124001293000000015000
B0634133159799S11657749EA0123901292000000015000
B0634173159728S11657770EA0123701287000000015000
B0634213159705S11657828EA0123701292000000015000
B0634253159734S11657871EA0123801286000000015000
B0634293159786S11657855EA0123701292000000015000
B0634333159807S11657777EA0124601305000000015000
B0634373159764S11657696EA0125301306000000000000
B0634413159684S11657670EA0125101301000000015000
B0634453159620S11657709EA0125101306000000000000
B0634493159604S11657763EA0126101318000000015000
B0634533159614S11657809EA0126001309000000015000
B0634573159641S11657845EA0124201288000000000000
B0635013159690S11657861EA0122001267000000000000
B0635053159750S11657855EA0120001253000000000000
B0635093159812S11657836EA0119101242000000000000
B0635133159875S11657813EA0118701242000000000000
B0635173159940S11657789EA0118601240000000000000
B0635213200009S11657762EA0118301239000000000000
B0635253200076S11657731EA0118401241000000000000
B0635293200140S11657694EA0118901247000000000000
B0635333200204S11657658EA0118601236000000000000
B0635373200270S11657627EA0117601228000000000000
B0635413200334S11657595EA0117401227000000000000
B0635453200399S11657571EA0116601218000000000000
B0635493200464S11657550EA0116101215000000000000
B0635533200527S11657529EA0115501208000000000000
B0635573200590S11657510EA0115501210000000000000
B0636013200651S11657490EA0115801215000000000000
B0636053200713S11657468EA0115601209000000000000
B0636093200777S11657445EA0114901200000000000000
B0636133200842S11657423EA0114301196000000000000
B0636173200904S11657400EA0114301198000000000000
B0636213200962S11657376EA0116101220000000000000
B0636253200999S11657389EA0117101227000000000000
B0636293200964S11657426EA0117701228000000000000
B0636333200891S11657399EA0117701226000000000000
B0636373200836S11657324EA0117401230000000000000
B0636413200821S11657234EA0118501244000000000000
B0636453200839S11657157EA0119101245000000000000
B0636493200881S11657111EA0119401251000000000000
B0636533200919S11657108EA0120101259000000000000
B0636573200928S11657142EA0120501258000000000000
B0637013200894S11657183EA0119901254000000000000
B0637053200826S11657194EA0119701252000000000000
B0637093200751S11657163EA0119601253000000000000
B0637133200686S11657100EA0119801256000000000000
B0637173200644S11657016EA0120201256000000000000
B0637213200637S11656922EA0120201254000000000000
B0637253200667S11656841EA0119501247000000000000
B0637293200717S11656786EA0119001242000000000000
B0637333200777S11656750EA0118101228000000000000
B0637373200839S11656730EA0116901217000000000000
B0637413200901S11656713EA0115901209000000000000
B0637453200963S11656701EA0114601195000000000000
B0637493201028S11656691EA0113401181000000000000
B0637533201094S11656679EA0112401170000000000000
B0637573201159S11656670EA0112001173000000000000
B0638013201215S11656662EA0113101183000000000000
B0638053201267S11656658EA0112901173000000000000
B0638093201322S11656652EA0111401157000000000000
B0638133201375S11656649EA0110201150000000000000
B0638173201424S11656648EA0110101148000000000000
B0638213201471S11656645EA0109301140000000000000
B0638253201522S11656639EA0109001140000000000000
B0638293201571S11656635EA0109401145000000000000
B0638333201616S11656649EA0109901152000000000000
B0638373201645S11656679EA0110501155000000000000
B0638413201655S11656723EA0110401150000000000000
B0638453201661S11656769EA0109601139000000000000
B0638493201677S11656812EA0108601128000000000000
B0638533201704S11656848EA0107401116000000000000
B0638573201748S11656869EA0106701106000000000000
B0639013201801S11656871EA0105701101000000000000
B0639053201857S11656861EA0105601101000000000000
B0639093201916S11656845EA0105601101000000000000
B0639133201974S11656826EA0105401099000000000000
B0639173202035S11656810EA0104801093000000000000
B0639213202098S11656795EA0103901080000000000000
B0639253202163S11656783EA0102401067000000000000
B0639293202228S11656774EA0101401057000000000000
B0639333202292S11656770EA0100701047000000000000
B0639373202355S11656769EA0099501032000000000000
B0639413202420S11656766EA0098001019000000000000
B0639453202485S11656763EA0096901007000000000000
B0639493202549S11656762EA0095800998000000000000
B0639533202613S11656761EA0094800985000000000000
B0639573202676S11656757EA0093100966000000000000
B0640013202744S11656750EA0091100947000000000000
B0640053202812S11656739EA0090000935000000000000
B0640093202878S11656726EA0088900925000000000000
B0640133202945S11656718EA0087800911000000000000
B0640173203013S11656718EA0086200897000000000000
B0640213203081S11656722EA0085500893000000000000
B0640253203144S11656727EA0084900886000000000000
B0640293203207S11656734EA0084200881000000000000
B0640333203268S11656739EA0083800877000000000000
B0640373203329S11656740EA0083500873000000000000
B0640413203393S11656739EA0083200874000000000000
B0640453203456S11656737EA0084000884000000000000
B0640493203491S11656776EA0085300901000000000000
B0640533203450S11656814EA0087200919000000000000
B0640573203385S11656763EA0087900914000000000000
B0641013203378S11656675EA0087800922000000000000
B0641053203417S11656620EA0088600929000000000000
B0641093203456S11656630EA0089000934000000000000
B0641133203443S11656671EA0089700943000000000000
B0641173203382S11656669EA0090200943000000000000
B0641213203326S11656598EA0089700936000000000000
B0641253203315S11656510EA0090200952000000015000
B0641293203352S11656484EA0092100962000000015000
B0641333203356S11656520EA0092200962000000015000
B0641373203306S11656542EA0092300966000000015000
B0641413203238S11656510EA0092300963000000015000
B0641453203200S11656432EA0092800978000000015000
B0641493203207S11656351EA0093900985000000015000
B0641533203250S11656312EA0094400991000000015000
B0641573203290S11656325EA0094900991000000015000
B0642013203299S11656373EA0094800992000000015000
B0642053203265S11656411EA0095501002000000015000
B0642093203205S11656416EA0096101000000000015000
B0642133203138S11656388EA0095600993000000015000
B0642173203072S11656340EA0095900991000000030000
B0642213203048S11656262EA0097300996000000030000
B0642253203077S11656197EA0097300991000000030000
B0642293203127S11656175EA0096700992000000030000
B0642333203170S11656190EA0097101001000000030000
B0642373203161S11656236EA0097601007000000030000
B0642413203103S11656255EA0097701012000000030000
B0642453203033S11656230EA0098301019000000015000
B0642493202975S11656168EA0098801025000000015000
B0642533202948S11656085EA0099201033000000015000
B0642573202947S11656003EA0099701036000000015000
B0643013202974S11655935EA0099801038000000015000
B0643053203018S11655898EA0099901039000000015000
B0643093203068S11655887EA0099601035000000015000
B0643133203117S11655891EA0099501034000000000000
B0643173203169S11655895EA0098801025000000000000
B0643213203225S11655900EA0097901017000000000000
B0643253203281S11655902EA0097501015000000000000
B0643293203338S11655900EA0097401013000000000000
B0643333203395S11655903EA0096501000000000000000
B0643373203456S11655903EA0095200989000000000000
B0643413203517S11655903EA0094400983000000000000
B0643453203577S11655903EA0093400969000000000000
B0643493203637S11655904EA0091600950000000000000
B0643533203698S11655907EA0090000934000000000000
B0643573203758S11655917EA0088600921000000000000
B0644013203815S11655933EA0087600907000000000000
B0644053203872S11655951EA0086500901000000000000
B0644093203928S11655968EA0086200900000000000000
B0644133203985S11655981EA0085700895000000000000
B0644173204035S11656008EA0086200905000000000000
B0644213204066S11656050EA0087000909000000000000
B0644253204093S11656097EA0087100906000000000000
B0644293204118S11656145EA0086200895000000000000
B0644333204151S11656188EA0084700879000000000000
B0644373204191S11656224EA0083500869000000000000
B0644413204234S11656258EA0082900862000000000000
B0644453204279S11656289EA0082300855000000000000
B0644493204327S11656318EA0081400845000000000000
B0644533204378S11656344EA0080500841000000000000
B0644573204430S11656368EA0080300837000000000000
B0645013204483S11656389EA0079900836000000000000
B0645053204538S11656409EA0079800834000000000000
B0645093204595S11656422EA0079900836000000000000
B0645133204651S11656425EA0080200838000000000000
B0645173204710S11656420EA0080200832000000000000
B0645213204769S11656415EA0079100821000000000000
B0645253204829S11656414EA0078400814000000000000
B0645293204889S11656419EA0077200797000000000000
B0645333204954S11656423EA0076200789000000000000
B0645373205020S11656425EA0075100780000000000000
B0645413205089S11656423EA0073700764000000000000
B0645453205158S11656420EA0072600754000000000000
B0645493205227S11656419EA0071900744000000000000
B0645533205295S11656418EA0071000739000000000000
B0645573205357S11656415EA0070900738000000000000
B0646013205417S11656411EA0071000742000000000000
B0646053205461S11656435EA0071400741000000000000
B0646093205477S11656493EA0071100739000000000000
B0646133205490S11656553EA0071300742000000000000
B0646173205506S11656605EA0072500752000000015000
B0646213205552S11656578EA0073100756000000015000
B0646253205538S11656490EA0073400766000000015000
B0646293205473S11656446EA0074400776000000015000
B0646333205414S11656464EA0075200784000000015000
B0646373205406S11656506EA0075400778000000015000
B0646413205448S11656502EA0074700773000000015000
B0646453205469S11656432EA0074700776000000015000
B0646493205439S11656347EA0075200783000000030000
B0646533205378S11656350EA0076300793000000030000
B0646573205397S11656377EA0076900794000000015000
B0647013205427S11656319EA0077200804000000030000
B0647053205395S11656240EA0078300813000000015000
B0647093205326S11656227EA0078800820000000015000
B0647133205297S11656271EA0079100825000000015000
B0647173205327S11656294EA0079700833000000015000
B0647213205366S11656256EA0080200840000000015000
B0647253205379S11656176EA0081500853000000015000
B0647293205330S11656113EA0082300859000000015000
B0647333205272S11656138EA0082700864000000000000
B0647373205291S11656178EA0083100870000000000000
B0647413205335S11656145EA0084300886000000015000
B0647453205339S11656061EA0085400897000000015000
B0647493205284S11655996EA0086600909000000000000
B0647533205217S11655996EA0088000922000000000000
B0647573205184S11656039EA0088600922000000000000
B0648013205207S11656073EA0088800931000000000000
B0648053205250S11656047EA0090300946000000015000
B0648093205259S11655972EA0091400961000000015000
B0648133205204S11655920EA0092700971000000015000
B0648173205142S11655935EA0093700978000000000000
B0648213205128S11655983EA0094200985000000000000
B0648253205154S11656012EA0094400982000000000000
B0648293205201S11656004EA0094300986000000000000
B0648333205236S11655946EA0095701006000000000000
B0648373205200S11655869EA0097101015000000000000
B0648413205133S11655863EA0098301032000000000000
B0648453205103S11655904EA0099201037000000015000
B0648493205128S11655938EA0100201051000000015000
B0648533205174S11655920EA0101701067000000015000
B0648573205197S11655846EA0103201081000000015000
B0649013205162S11655764EA0104301093000000015000
B0649053205096S11655734EA0105801110000000015000
B0649093205049S11655764EA0107001115000000015000
B0649133205063S11655808EA0107801128000000015000
B0649173205111S11655798EA0109101143000000015000
B0649213205145S11655734EA0111101157000000030000
B0649253205135S11655644EA0112201165000000030000
B0649293205089S11655571EA0112801173000000015000
B0649333205023S11655541EA0113301181000000015000
B0649373204963S11655554EA0114501196000000015000
B0649413204938S11655596EA0115601204000000015000
B0649453204960S11655629EA0116201210000000015000
B0649493205005S11655613EA0117301216000000015000
B0649533205022S11655541EA0118601224000000030000
B0649573204992S11655463EA0119501234000000045000
B0650013204931S11655423EA0120201247000000045000
B0650053204869S11655432EA0121401256000000045000
B0650093204843S11655476EA0121901263000000030000
B0650133204856S11655519EA0122401270000000030000
B0650173204902S11655523EA0123401286000000030000
B0650213204942S11655471EA0124901304000000015000
B0650253204944S11655385EA0125701310000000015000
B0650293204905S11655309EA0125601307000000015000
B0650333204840S11655274EA0125901318000000015000
B0650373204785S11655291EA0126801327000000015000
B0650413204762S11655335EA0127501328000000015000
B0650453204778S11655379EA0127301326000000015000
B0650493204823S11655385EA0128401332000000015000
B0650533204859S11655332EA0130501342000000030000
B0650573204836S11655250EA0131701353000000030000
B0651013204772S11655214EA0132201364000000030000
B0651053204715S11655229EA0133101374000000030000
B0651093204695S11655279EA0133401380000000015000
B0651133204725S11655313EA0133601384000000015000
B0651173204772S11655292EA0134201392000000015000
B0651213204789S11655215EA0135001403000000030000
B0651253204762S11655128EA0136001415000000030000
B0651293204697S11655081EA0136801424000000030000
B0651333204634S11655094EA0137701431000000045000
B0651373204606S11655142EA0138201435000000060000
B0651413204621S11655187EA0138501440000000105000
B0651453204658S11655211EA0138401439000000225000
B0651493204708S11655203EA0138001431000000120000
B0651533204772S11655146EA0137101421000000000000
B0651573204825S11655073EA0136301421000000180000
B0652013204876S11655012EA0135201414000000165000
B0652053204932S11654967EA0134501407000000180000
B0652093204990S11654934EA0134001400015000150000
B0652133205049S11654936EA0133701392015000135000
B0652173205115S11654958EA0133101386015000105000
B0652213205171S11654980EA0132001380015000090000
B0652253205228S11655005EA0131101373015000075000
B0652293205285S11655034EA0131101367015000075000
B0652333205344S11655053EA0130601362015000075000
B0652373205400S11655073EA0129801357015000090000
B0652413205452S11655099EA0129101353015000090000
B0652453205505S11655123EA0128201342000000030000
B0652493205557S11655149EA0127401336000000030000
B0652533205608S11655174EA0126401330000000045000
B0652573205659S11655198EA0125501323000000045000
B0653013205712S11655218EA0124301317000000045000
B0653053205766S11655232EA0123701310000000060000
B0653093205821S11655244EA0123401304000000060000
B0653133205874S11655255EA0123101299000000060000
B0653173205928S11655268EA0122801294000000075000
B0653213205982S11655280EA0122601289015000075000
B0653253206034S11655294EA0122301285015000075000
B0653293206086S11655318EA0121601280015000075000
B0653333206140S11655344EA0121301276015000075000
B0653373206192S11655374EA0120301272015000075000
B0653413206244S11655405EA0119301267015000060000
B0653453206294S11655435EA0118901263015000060000
B0653493206345S11655467EA0118501258015000045000
B0653533206397S11655496EA0118101254015000060000
B0653573206449S11655523EA0117901252015000060000
B0654013206498S11655551EA0118201249000000045000
B0654053206548S11655574EA0118301242000000015000
B0654093206598S11655601EA0118701250000000015000
B0654133206652S11655621EA0119601256000000015000
B0654173206702S11655644EA0120001255000000015000
B0654213206738S11655686EA0120101258000000015000
B0654253206760S11655736EA0120001254000000015000
B0654293206773S11655794EA0119701248000000000000
B0654333206783S11655855EA0118901240000000000000
B0654373206797S11655917EA0118001231000000000000
B0654413206814S11655982EA0117001221000000000000
B0654453206830S11656047EA0116301212000000000000
B0654493206844S11656115EA0115801213000000000000
B0654533206853S11656181EA0116201218000000000000
B0654573206869S11656245EA0117201229000000000000
B0655013206887S11656306EA0117101221000000000000
B0655053206903S11656371EA0116701223000000000000
B0655093206920S11656436EA0116901220000000000000
B0655133206939S11656503EA0116701222000000000000
B0655173206959S11656568EA0117001225000000000000
B0655213206977S11656631EA0117101226000000000000
B0655253206995S11656695EA0117001225000000000000
B0655293207011S11656760EA0116801219000000000000
B0655333207027S11656826EA0116101212000000000000
B0655373207040S11656893EA0115501208000000000000
B0655413207048S11656964EA0115301205000000000000
B0655453207055S11657033EA0114801197000000000000
B0655493207064S11657103EA0113701184000000000000
B0655533207072S11657177EA0112501174000000000000
B0655573207086S11657248EA0111401161000000000000
B0656013207103S11657324EA0110001149000000000000
B0656053207128S11657394EA0109801148000000000000
B0656093207168S11657452EA0109001139000000000000
B0656133207206S11657512EA0108601137000000000000
B0656173207239S11657569EA0108101130000000000000
B0656213207260S11657636EA0107301117000000000000
B0656253207260S11657710EA0106201108000000000000
B0656293207263S11657784EA0105601106000000000000
B0656333207277S11657850EA0105401100000000000000
B0656373207307S11657911EA0104101087000000000000
B0656413207346S11657963EA0103101077000000000000
B0656453207389S11658011EA0102001065000000000000
B0656493207433S11658058EA0100701051000000000000
B0656533207477S11658106EA0099701036000000000000
B0656573207523S11658153EA0098101020000000000000
B0657013207571S11658201EA0096401004000000000000
B0657053207622S11658247EA0095300996000000000000
B0657093207671S11658288EA0094800991000000000000
B0657133207719S11658330EA0094200985000000000000
B0657173207766S11658373EA0093600979000000000000
B0657213207814S11658413EA0092900971000000000000
B0657253207861S11658453EA0092100963000000000000
B0657293207909S11658491EA0091500954000000000000
B0657333207960S11658524EA0090600944000000000000
B0657373208012S11658551EA0089300929000000000000
B0657413208061S11658583EA0088400924000000000000
B0657453208106S11658615EA0088100919000000000000
B0657493208155S11658639EA0087000905000000000000
B0657533208204S11658661EA0086100899000000000000
B0657573208252S11658682EA0085600895000000000000
B0658013208303S11658697EA0085300892000000000000
B0658053208355S11658707EA0085000887000000000000
B0658093208411S11658711EA0084400882000000000000
B0658133208470S11658708EA0084000880000000000000
B0658173208529S11658700EA0084200884000000000000
B0658213208587S11658698EA0084500884000000000000
B0658253208634S11658719EA0084600887000000000000
B0658293208663S11658760EA0085000890000000000000
B0658333208669S11658814EA0085400895000000000000
B0658373208672S11658872EA0085800899000000000000
B0658413208681S11658927EA0087000910000000000000
B0658453208725S11658910EA0088200921000000000000
B0658493208740S11658832EA0087800902000000000000
B0658533208699S11658746EA0085900888000000000000
B0658573208628S11658699EA0085400896000000000000
B0659013208555S11658698EA0086600905000000000000
B0659053208507S11658738EA0087200913000000000000
B0659093208511S11658789EA0088400924000000000000
B0659133208551S11658801EA0089500936000000000000
B0659173208590S11658749EA0090500944000000015000
B0659213208593S11658660EA0090700944000000015000
B0659253208547S11658582EA0091200956000000015000
B0659293208480S11658557EA0092200964000000015000
B0659333208429S11658587EA0092600965000000015000
B0659373208422S11658641EA0093000970000000015000
B0659413208461S11658659EA0093300978000000000000
B0659453208506S11658609EA0094000985000000015000
B0659493208513S11658521EA0094300986000000015000
B0659533208477S11658437EA0095100997000000015000
B0659573208413S11658398EA0096101004000000015000
B0700013208353S11658416EA0096101007000000015000
B0700053208329S11658461EA0096901015000000015000
B0700093208350S11658491EA0097601025000000015000
B0700133208390S11658466EA0098501033000000015000
B0700173208411S11658392EA0098801031000000015000
B0700213208386S11658308EA0098901038000000015000
B0700253208326S11658255EA0100001050000000015000
B0700293208261S11658252EA0100601052000000000000
B0700333208221S11658295EA0100701054000000000000
B0700373208225S11658340EA0101201057000000000000
B0700413208264S11658352EA0101101055000000000000
B0700453208309S11658320EA0101401063000000015000
B0700493208329S11658244EA0102001066000000015000
B0700533208311S11658153EA0102201067000000015000
B0700573208249S11658102EA0103001083000000015000
B0701013208194S11658119EA0103901083000000015000
B0701053208174S11658169EA0103701081000000000000
B0701093208190S11658214EA0103701083000000000000
B0701133208236S11658210EA0104101090000000000000
B0701173208277S11658157EA0104501089000000000000
B0701213208290S11658071EA0104001087000000000000
B0701253208268S11657979EA0104401093000000000000
B0701293208217S11657907EA0104801098000000000000
B0701333208149S11657883EA0105701107000000000000
B0701373208090S11657902EA0106001104000000000000
B0701413208057S11657953EA0105601097000000000000
B0701453208049S11658013EA0104801094000000000000
B0701493208051S11658075EA0105001098000000000000
B0701533208071S11658123EA0106101116000000000000
B0701573208116S11658115EA0108301133000000000000
B0702013208129S11658045EA0108801134000000015000
B0702053208086S11657979EA0109101139000000000000
B0702093208021S11657974EA0109501146000000000000
B0702133207991S11658015EA0110601157000000000000
B0702173208014S11658048EA0111701167000000000000
B0702213208058S11658031EA0112301170000000000000
B0702253208082S11657959EA0112601175000000015000
B0702293208045S11657885EA0113401186000000015000
B0702333207976S11657870EA0114301191000000015000
B0702373207936S11657911EA0114801199000000000000
B0702413207950S11657957EA0116101213000000015000
B0702453207996S11657948EA0116601214000000000000
B0702493208025S11657881EA0117001217000000015000
B0702533208005S11657800EA0117101227000000015000
B0702573207944S11657758EA0118301236000000015000
B0703013207885S11657779EA0118501235000000000000
B0703053207863S11657836EA0118801243000000000000
B0703093207888S11657878EA0119901252000000000000
B0703133207939S11657866EA0119701243000000000000
B0703173207971S11657798EA0118801237000000015000
B0703213207974S11657709EA0118601238000000015000
B0703253207953S11657620EA0118901245000000000000
B0703293207908S11657545EA0119701255000000000000
B0703333207846S11657493EA0120301256000000000000
B0703373207776S11657465EA0120001253000000000000
B0703413207709S11657459EA0119601247000000000000
B0703453207642S11657468EA0119201244000000000000
B0703493207588S11657497EA0119401250000000000000
B0703533207547S11657538EA0120001256000000000000
B0703573207518S11657584EA0121201273000000000000
B0704013207497S11657633EA0122301280000000000000
B0704053207482S11657686EA0122601280000000000000
B0704093207489S11657735EA0121801270000000000000
B0704133207525S11657766EA0120601260000000000000
B0704173207577S11657767EA0120201259000000000000
B0704213207628S11657725EA0120001256000000000000
B0704253207661S11657657EA0119801252000000000000
B0704293207676S11657575EA0119101243000000000000
B0704333207677S11657486EA0118301232000000000000
B0704373207649S11657394EA0117801236000000000000
B0704413207592S11657322EA0118401245000000000000
B0704453207516S11657295EA0119501253000000000000
B0704493207449S11657311EA0120101256000000000000
B0704533207416S11657361EA0120801269000000000000
B0704573207433S11657400EA0122201280000000000000
B0705013207475S11657384EA0122901284000000000000
B0705053207499S11657311EA0123001284000000015000
B0705093207488S11657216EA0123301291000000015000
B0705133207432S11657143EA0124001297000000015000
B0705173207355S11657122EA0123801292000000000000
B0705213207290S11657151EA0123501294000000000000
B0705253207261S11657204EA0124501307000000000000
B0705293207264S11657254EA0125401312000000000000
B0705333207302S11657277EA0125101306000000000000
B0705373207354S11657257EA0124501299000000000000
B0705413207394S11657190EA0124001295000000000000
B0705453207403S11657094EA0124101302000000000000
B0705493207385S11656992EA0125001311000000000000
B0705533207332S11656910EA0125601319000000000000
B0705573207256S11656865EA0126001317000000000000
B0706013207181S11656862EA0125401304000000000000
B0706053207128S11656910EA0124101295000000000000
B0706093207094S11656970EA0124201302000000000000
B0706133207070S11657033EA0124601303000000000000
B0706173207057S11657099EA0124001294000000000000
B0706213207051S11657168EA0123301287000000000000
B0706253207050S11657237EA0123001285000000000000
B0706293207052S11657306EA0122101273000000000000
B0706333207065S11657374EA0121301266000000000000
B0706373207094S11657437EA0120701260000000000000
B0706413207129S11657497EA0120001248000000000000
B0706453207169S11657558EA0119001238000000000000
B0706493207215S11657614EA0118001234000000000000
B0706533207267S11657663EA0117601229000000000000
B0706573207321S11657710EA0117101224000000000000
B0707013207377S11657754EA0116701220000000000000
B0707053207432S11657796EA0116301218000000000000
B0707093207488S11657832EA0116001211000000000000
B0707133207544S11657866EA0115601208000000000000
B0707173207598S11657893EA0115501206000000000000
B0707213207654S11657910EA0115501210000000000000
B0707253207711S11657902EA0116001216000000000000
B0707293207765S11657867EA0116501219000000000000
B0707333207815S11657814EA0116501217000000000000
B0707373207869S11657763EA0116401217000000000000
B0707413207923S11657727EA0116201214000000000000
B0707453207975S11657737EA0115501206000000000000
B0707493208008S11657777EA0115001200000000000000
B0707533208040S11657820EA0114101187000000000000
B0707573208086S11657852EA0113001180000000000000
B0708013208143S11657853EA0113001186000000000000
B0708053208201S11657836EA0113101181000000000000
B0708093208260S11657809EA0112901180000000000000
B0708133208320S11657790EA0113201187000000000000
B0708173208356S11657816EA0114601204000000000000
B0708213208338S11657862EA0115301206000000000000
B0708253208272S11657878EA0115301205000000000000
B0708293208200S11657833EA0116001219000000000000
B0708333208165S11657746EA0116701223000000000000
B0708373208181S11657657EA0116501219000000000000
B0708413208233S11657607EA0116501223000000000000
B0708453208286S11657605EA0116401216000000000000
B0708493208318S11657642EA0115601207000000000000
B0708533208313S11657701EA0115301207000000000000
B0708573208275S11657755EA0115401207000000000000
B0709013208214S11657800EA0115501210000000000000
B0709053208143S11657827EA0116301223000000000000
B0709093208078S11657776EA0117601233000000000000
B0709133208077S11657693EA0118001234000000000000
B0709173208121S11657664EA0118501244000000000000
B0709213208144S11657697EA0119401251000000000000
B0709253208121S11657750EA0119801256000000000000
B0709293208057S11657776EA0120501266000000000000
B0709333207983S11657754EA0121201268000000000000
B0709373207932S11657680EA0121301268000000000000
B0709413207932S11657589EA0121001264000000000000
B0709453207970S11657524EA0121301271000000000000
B0709493208019S11657494EA0121701275000000000000
B0709533208061S11657507EA0122301280000000000000
B0709573208073S11657553EA0122601284000000000000
B0710013208041S11657605EA0122901288000000000000
B0710053207976S11657629EA0123501296000000000000
B0710093207902S11657614EA0124601312000000000000
B0710133207850S11657551EA0126101326000000000000
B0710173207831S11657473EA0126601323000000000000
B0710213207850S11657404EA0126401324000000000000
B0710253207892S11657376EA0126501323000000000000
B0710293207930S11657394EA0126501324000000000000
B0710333207939S11657441EA0126901328000000000000
B0710373207909S11657493EA0127501335000000000000
B0710413207850S11657519EA0128201346000000000000
B0710453207780S11657506EA0129201354000000000000
B0710493207719S11657450EA0129801356000000000000
B0710533207683S11657365EA0129901358000000000000
B0710573207685S11657278EA0129801355000000000000
B0711013207722S11657216EA0129801356000000000000
B0711053207771S11657190EA0129901358000000000000
B0711093207817S11657203EA0129901357000000000000
B0711133207845S11657244EA0129701354000000000000
B0711173207863S11657298EA0129801357000000000000
B0711213207878S11657354EA0129901355000000000000
B0711253207906S11657402EA0129801355000000000000
B0711293207956S11657408EA0129701354000000000000
B0711333208004S11657365EA0129601353000000000000
B0711373208026S11657285EA0129601354000000000000
B0711413208025S11657191EA0129401352000000000000
B0711453208013S11657094EA0129201351000000000000
B0711493207986S11656999EA0129201351000000000000
B0711533207931S11656927EA0129901361000000000000
B0711573207859S11656909EA0130101355000000000000
B0712013207794S11656935EA0129201345000000000000
B0712053207735S11656977EA0128101335000000000000
B0712093207700S11657035EA0128001341000000000000
B0712133207693S11657091EA0129001351000000000000
B0712173207719S11657125EA0129401352000000000000
B0712213207765S11657122EA0129301350000000000000
B0712253207810S11657086EA0129101349000000000000
B0712293207841S11657016EA0128901347000000000000
B0712333207839S11656923EA0129001349000000000000
B0712373207794S11656835EA0129201351000000000000
B0712413207723S11656784EA0129301349000000000000
B0712453207646S11656784EA0129101347000000000000
B0712493207590S11656819EA0129101348000000000000
B0712533207567S11656874EA0128801344000000000000
B0712573207570S11656932EA0128401340000000000000
B0713013207583S11656991EA0127801335000000000000
B0713053207606S11657047EA0127301327000000000000
B0713093207648S11657088EA0126501321000000000000
B0713133207703S11657105EA0126101316000000000000
B0713173207763S11657081EA0125401309000000000000
B0713213207813S11657018EA0124801304000000000000
B0713253207841S11656930EA0124301298000000000000
B0713293207836S11656827EA0123801294000000000000
B0713333207797S11656732EA0123101287000000000000
B0713373207729S11656662EA0122701285000000000000
B0713413207648S11656635EA0122901289000000000000
B0713453207573S11656649EA0123601297000000000000
B0713493207524S11656693EA0124001296000000000000
B0713533207511S11656752EA0123601290000000000000
B0713573207540S11656791EA0122901284000000000000
B0714013207588S11656791EA0122301275000000000000
B0714053207636S11656741EA0122001276000000000000
B0714093207659S11656658EA0121601269000000000000
B0714133207642S11656561EA0121001266000000000000
B0714173207593S11656476EA0121101267000000000000
B0714213207521S11656416EA0121301269000000000000
B0714253207441S11656388EA0121601270000000000000
B0714293207363S11656397EA0121501268000000000000
B0714333207304S11656441EA0121401267000000000000
B0714373207287S11656503EA0121901278000000000000
B0714413207315S11656550EA0121901271000000000000
B0714453207372S11656558EA0121101262000000000000
B0714493207427S11656510EA0120801263000000000000
B0714533207456S11656424EA0121001266000000000000
B0714573207456S11656320EA0121001266000000000000
B0715013207443S11656211EA0121101268000000000000
B0715053207412S11656110EA0121901278000000000000
B0715093207349S11656037EA0122201276000000000000
B0715133207267S11656016EA0121201263000000000000
B0715173207190S11656038EA0120001251000000000000
B0715213207141S11656089EA0119501247000000000000
B0715253207122S11656150EA0119301246000000000000
B0715293207130S11656208EA0119201247000000000000
B0715333207143S11656266EA0119001243000000000000
B0715373207159S11656327EA0118401233000000000000
B0715413207178S11656389EA0117201222000000000000
B0715453207196S11656455EA0116101210000000000000
B0715493207219S11656520EA0115101200000000000000
B0715533207246S11656585EA0113601182000000000000
B0715573207271S11656658EA0112101170000000000000
B0716013207300S11656727EA0111301163000000000000
B0716053207346S11656779EA0111001161000000000000
B0716093207402S11656808EA0111301167000000000000
B0716133207458S11656828EA0111401164000000000000
B0716173207516S11656841EA0110801157000000000000
B0716213207580S11656835EA0110301149000000000000
B0716253207645S11656804EA0109601145000000000000
B0716293207710S11656767EA0109101138000000000000
B0716333207772S11656718EA0109201143000000000000
B0716373207819S11656645EA0109801145000000000000
B0716413207845S11656549EA0109401139000000000000
B0716453207852S11656444EA0109101136000000000000
B0716493207823S11656340EA0108501132000000000000
B0716533207771S11656247EA0107601122000000000000
B0716573207705S11656169EA0106901117000000000000
B0717013207635S11656099EA0106501110000000000000
B0717053207562S11656033EA0105501100000000000000
B0717093207482S11655970EA0104301087000000000000
B0717133207402S11655904EA0103201071000000000000
B0717173207316S11655843EA0102201066000000000000
B0717213207228S11655814EA0102401074000000000000
B0717253207156S11655833EA0103601087000000000000
B0717293207118S11655877EA0104101084000000000000
B0717333207108S11655931EA0103201075000000000000
B0717373207096S11655991EA0102201065000000000000
B0717413207085S11656054EA0101301057000000000000
B0717453207065S11656123EA0099801037000000000000
B0717493207022S11656191EA0097901018000000000000
B0717533206978S11656262EA0096701012000000000000
B0717573206947S11656334EA0096701011000000000000
B0718013206931S11656407EA0096001002000000000000
B0718053206933S11656483EA0095200991000000000000
B0718093206949S11656555EA0094100982000000000000
B0718133206977S11656626EA0093100974000000000000
B0718173207009S11656692EA0092200964000000000000
B0718213207050S11656752EA0091200953000000000000
B0718253207094S11656810EA0090300946000000000000
B0718293207139S11656865EA0089600938000000000000
B0718333207187S11656919EA0088800929000000000000
B0718373207242S11656965EA0087900916000000000000
B0718413207300S11657004EA0086900908000000000000
B0718453207356S11657036EA0086600907000000000000
B0718493207411S11657065EA0086300903000000000000
B0718533207464S11657092EA0085600893000000000000
B0718573207518S11657118EA0084400883000000000000
B0719013207571S11657146EA0083300869000000000000
B0719053207624S11657173EA0081700853000000000000
B0719093207677S11657203EA0080800842000000000000
B0719133207729S11657234EA0079900832000000000000
B0719173207780S11657267EA0078700821000000000000
B0719213207830S11657300EA0077600808000000000000
B0719253207879S11657334EA0076700804000000000000
B0719293207927S11657364EA0076700804000000000000
B0719333207973S11657399EA0076200796000000000000
B0719373208013S11657437EA0076300801000000000000
B0719413208047S11657477EA0077000808000000000000
B0719453208066S11657527EA0077200809000000000000
B0719493208071S11657580EA0077200809000000000000
B0719533208075S11657636EA0077100807000000000000
B0719573208084S11657693EA0077600819000000000000
B0720013208105S11657735EA0079200831000000000000
B0720053208147S11657710EA0078800826000000000000
B0720093208144S11657625EA0078500822000000000000
B0720133208090S11657553EA0077500808000000000000
B0720173208013S11657523EA0077300816000000000000
B0720213207982S11657564EA0078500826000000015000
B0720253208022S11657579EA0079000831000000015000
B0720293208058S11657525EA0079500832000000000000
B0720333208048S11657437EA0078600820000000015000
B0720373207988S11657367EA0077900817000000015000
B0720413207913S11657346EA0078100826000000015000
B0720453207862S11657378EA0079000830000000015000
B0720493207861S11657430EA0078900823000000000000
B0720533207904S11657449EA0078300823000000000000
B0720573207949S11657400EA0079000831000000000000
B0721013207962S11657316EA0079100827000000000000
B0721053207936S11657222EA0078600825000000000000
B0721093207882S11657160EA0079600840000000000000
B0721133207822S11657172EA0080600849000000000000
B0721173207811S11657213EA0081500856000000000000
B0721213207850S11657222EA0081900863000000000000
B0721253207889S11657177EA0082700867000000000000
B0721293207896S11657091EA0082300859000000015000
B0721333207867S11657001EA0082200862000000015000
B0721373207805S11656948EA0082900875000000015000
B0721413207749S11656962EA0084100880000000015000
B0721453207745S11657005EA0084100879000000015000
B0721493207783S11657016EA0084800892000000015000
B0721533207820S11656960EA0086000898000000015000
B0721573207807S11656867EA0086500903000000015000
B0722013207742S11656808EA0086800913000000015000
B0722053207672S11656806EA0087700917000000015000
B0722093207638S11656849EA0087600918000000015000
B0722133207648S11656899EA0087800923000000015000
B0722173207675S11656940EA0088600935000000015000
B0722213207720S11656918EA0089900949000000015000
B0722253207727S11656835EA0090300946000000015000
B0722293207676S11656757EA0090100948000000015000
B0722333207605S11656744EA0091400967000000015000
B0722373207563S11656783EA0093200982000000015000
B0722413207570S11656831EA0094200991000000015000
B0722453207615S11656840EA0094900994000000015000
B0722493207655S11656784EA0094900993000000015000
B0722533207657S11656691EA0094200986000000015000
B0722573207619S11656596EA0094300990000000015000
B0723013207553S11656533EA0095401005000000015000
B0723053207482S11656537EA0096601014000000015000
B0723093207450S11656583EA0097101021000000015000
B0723133207458S11656632EA0097701029000000015000
B0723173207497S11656650EA0098901040000000000000
B0723213207542S11656610EA0099201038000000000000
B0723253207563S11656528EA0098701038000000015000
B0723293207542S11656437EA0099401049000000015000
B0723333207485S11656372EA0100501055000000015000
B0723373207412S11656355EA0101001061000000015000
B0723413207359S11656385EA0101101060000000015000
B0723453207337S11656436EA0101601069000000015000
B0723493207360S11656470EA0102901081000000015000
B0723533207407S11656462EA0103501084000000015000
B0723573207449S11656405EA0103201076000000015000
B0724013207460S11656314EA0102801081000000015000
B0724053207423S11656227EA0103901093000000015000
B0724093207354S11656198EA0104701096000000015000
B0724133207313S11656243EA0104901100000000015000
B0724173207329S11656292EA0105901113000000015000
B0724213207376S11656288EA0107201125000000015000
B0724253207419S11656240EA0107301122000000015000
B0724293207441S11656163EA0107301125000000015000
B0724333207427S11656073EA0107601128000000015000
B0724373207372S11656004EA0107901135000000015000
B0724413207299S11655972EA0108201134000000015000
B0724453207237S11655986EA0108801148000000015000
B0724493207213S11656028EA0110101159000000015000
B0724533207237S11656056EA0110701162000000015000
B0724573207284S11656029EA0111201170000000015000
B0725013207306S11655952EA0112101178000000015000
B0725053207280S11655866EA0112501180000000015000
B0725093207213S11655814EA0112401178000000015000
B0725133207146S11655822EA0112701185000000015000
B0725173207107S11655861EA0113501189000000015000
B0725213207094S11655907EA0113201185000000015000
B0725253207116S11655947EA0113101189000000015000
B0725293207160S11655961EA0114001199000000015000
B0725333207207S11655920EA0114801204000000015000
B0725373207219S11655835EA0115401210000000015000
B0725413207180S11655751EA0115501209000000015000
B0725453207109S11655723EA0115901214000000015000
B0725493207065S11655761EA0115901213000000015000
B0725533207074S11655814EA0116401218000000015000
B0725573207122S11655826EA0117301225000000015000
B0726013207173S11655783EA0117401226000000015000
B0726053207196S11655699EA0117701232000000015000
B0726093207177S11655604EA0118001232000000015000
B0726133207118S11655538EA0118001234000000015000
B0726173207043S11655513EA0118101234000000015000
B0726213206975S11655528EA0118301241000000015000
B0726253206934S11655575EA0119201252000000015000
B0726293206910S11655629EA0119801255000000015000
B0726333206921S11655675EA0120801266000000015000
B0726373206961S11655651EA0121601274000000015000
B0726413206969S11655567EA0121401269000000015000
B0726453206929S11655483EA0121501278000000015000
B0726493206860S11655443EA0122501283000000015000
B0726533206795S11655461EA0122001270000000015000
B0726573206756S11655514EA0120901264000000015000
B0727013206738S11655578EA0120701264000000015000
B0727053206748S11655639EA0121101272000000000000
B0727093206774S11655688EA0121201269000000000000
B0727133206809S11655731EA0120701265000000000000
B0727173206848S11655768EA0120601264000000000000
B0727213206886S11655808EA0120301261000000000000
B0727253206918S11655852EA0120401261000000000000
B0727293206956S11655894EA0120201259000000000000
B0727333206991S11655941EA0120001255000000000000
B0727373207026S11655990EA0119401249000000000000
B0727413207063S11656039EA0118801244000000000000
B0727453207098S11656089EA0118401238000000000000
B0727493207131S11656138EA0117901235000000000000
B0727533207164S11656185EA0117501229000000000000
B0727573207202S11656230EA0116101213000000000000
B0728013207239S11656280EA0115201204000000000000
B0728053207268S11656334EA0114701199000000000000
B0728093207284S11656399EA0114201192000000000000
B0728133207302S11656462EA0113801194000000000000
B0728173207317S11656522EA0114401201000000000000
B0728213207337S11656578EA0115101208000000000000
B0728253207356S11656633EA0115301206000000000000
B0728293207382S11656691EA0114401195000000000000
B0728333207406S11656748EA0114001193000000000000
B0728373207433S11656804EA0112801178000000000000
B0728413207462S11656867EA0111801167000000000000
B0728453207485S11656934EA0111001160000000000000
B0728493207507S11656996EA0110501153000000000000
B0728533207538S11657055EA0109201137000000000000
B0728573207566S11657118EA0107401122000000000000
B0729013207571S11657190EA0106501112000000000000
B0729053207568S11657260EA0105601104000000000000
B0729093207580S11657326EA0104701095000000000000
B0729133207615S11657377EA0104101087000000000000
B0729173207662S11657413EA0103401081000000000000
B0729213207710S11657445EA0102601071000000000000
B0729253207761S11657476EA0101501059000000000000
B0729293207810S11657510EA0100901055000000000000
B0729333207858S11657542EA0100801054000000000000
B0729373207910S11657568EA0099901042000000000000
B0729413207966S11657590EA0098501027000000000000
B0729453208025S11657611EA0097401013000000000000
B0729493208084S11657632EA0096001001000000000000
B0729533208147S11657647EA0095100993000000000000
B0729573208209S11657660EA0094800992000000000000
B0730013208268S11657670EA0094600988000000000000
B0730053208325S11657676EA0093800979000000000000
B0730093208379S11657688EA0092700966000000000000
B0730133208435S11657701EA0091300953000000000000
B0730173208491S11657715EA0090800949000000000000
B0730213208546S11657729EA0090400944000000000000
B0730253208599S11657745EA0089600937000000000000
B0730293208647S11657767EA0089200934000000000000
B0730333208695S11657788EA0089000931000000000000
B0730373208745S11657805EA0088600928000000000000
B0730413208788S11657835EA0088700930000000000000
B0730453208815S11657879EA0088900930000000000000
B0730493208832S11657932EA0088400925000000000000
B0730533208846S11657987EA0088100922000000000000
B0730573208855S11658044EA0087700916000000000000
B0731013208870S11658102EA0086900906000000000000
B0731053208894S11658162EA0085900897000000000000
B0731093208922S11658222EA0085400893000000000000
B0731133208950S11658279EA0085100893000000000000
B0731173208974S11658336EA0084800887000000000000
B0731213208997S11658395EA0083900877000000000000
B0731253209032S11658450EA0083000865000000000000
B0731293209081S11658491EA0082200860000000000000
B0731333209141S11658512EA0082000861000000000000
B0731373209200S11658528EA0082200862000000000000
B0731413209258S11658543EA0081900857000000000000
B0731453209313S11658567EA0081200849000000000000
B0731493209360S11658607EA0080300841000000000000
B0731533209391S11658661EA0079400829000000000000
B0731573209406S11658724EA0078300819000000000000
B0732013209429S11658784EA0077900814000000000000
B0732053209462S11658833EA0077300810000000000000
B0732093209504S11658871EA0077000806000000000000
B0732133209548S11658899EA0076700803000000000000
B0732173209591S11658931EA0076200793000000000000
B0732213209616S11658983EA0075000781000000000000
B0732253209614S11659048EA0073800771000000000000
B0732293209592S11659116EA0072900762000000000000
B0732333209553S11659180EA0071800754000000000000
B0732373209496S11659232EA0071800752000000000000
B0732413209423S11659265EA0071000739000000000000
B0732453209340S11659275EA0069900729000000000000
B0732493209252S11659269EA0069200723000000000000
B0732533209163S11659250EA0068300708000000000000
B0732573209072S11659226EA0066400690000000000000
B0733013208981S11659201EA0065200679000000000000
B0733053208894S11659178EA0064800677000000000000
B0733093208808S11659159EA0064400672000000000000
B0733133208721S11659142EA0064000668000000000000
B0733173208636S11659126EA0064100672000000000000
B0733213208571S11659150EA0065000679000000000000
B0733253208568S11659198EA0065000677000000000000
B0733293208608S11659198EA0064700675000000000000
B0733333208639S11659137EA0064300674000000015000
B0733373208638S11659055EA0064500677000000030000
B0733413208580S11658993EA0064400677000000030000
B0733453208507S11658996EA0064300678000000030000
B0733493208480S11659046EA0064300676000000030000
B0733533208504S11659084EA0063600668000000015000
B0733573208550S11659062EA0063500668000000015000
B0734013208568S11658989EA0063300666000000015000
B0734053208569S11658906EA0063100663000000015000
B0734093208555S11658817EA0062900660000000015000
B0734133208520S11658734EA0062500656000000015000
B0734173208454S11658680EA0062400656000000015000
B0734213208376S11658655EA0061900650000000015000
B0734253208294S11658647EA0061300642000000015000
B0734293208213S11658652EA0060300631000000015000
B0734333208132S11658667EA0059600628000000000000
B0734373208056S11658678EA0059800629000000000000
B0734413207983S11658697EA0059800627000000000000
B0734453207932S11658737EA0060000630000000000000
B0734493207932S11658782EA0059700622000000000000
B0734533207973S11658794EA0058500613000000000000
B0734573208015S11658747EA0057700610000000015000
B0735013208036S11658665EA0057300607000000015000
B0735053208045S11658577EA0057000602000000000000
B0735093208034S11658485EA0056500599000000000000
B0735133208005S11658392EA0055600585000000000000
B0735173207992S11658290EA0053600565000000000000
B0735213207969S11658188EA0053100566000000000000
B0735253207901S11658128EA0053700574000000015000
B0735293207823S11658113EA0054400580000000015000
B0735333207752S11658127EA0055100586000000015000
B0735373207741S11658177EA0055800595000000015000
B0735413207784S11658174EA0056400601000000015000
B0735453207797S11658099EA0057200605000000015000
B0735493207739S11658034EA0057400608000000030000
B0735533207667S11658048EA0057800612000000030000
B0735573207655S11658101EA0058400618000000015000
B0736013207694S11658115EA0058000611000000015000
B0736053207736S11658067EA0058100615000000015000
B0736093207745S11657982EA0058400616000000030000
B0736133207727S11657893EA0058600617000000030000
B0736173207661S11657858EA0059300629000000030000
B0736213207632S11657898EA0059800632000000030000
B0736253207667S11657902EA0060200637000000015000
B0736293207677S11657828EA0060700638000000030000
B0736333207623S11657764EA0061400646000000030000
B0736373207572S11657790EA0061700647000000030000
B0736413207590S11657826EA0062100655000000030000
B0736453207633S11657798EA0062600659000000030000
B0736493207649S11657720EA0062500660000000045000
B0736533207620S11657632EA0062500663000000060000
B0736573207547S11657598EA0062700667000000075000
B0737013207502S11657637EA0063300670000000060000
B0737053207544S11657649EA0064100680000000045000
B0737093207566S11657573EA0064900689000000045000
B0737133207520S11657494EA0065300692000000060000
B0737173207446S11657488EA0065400692000000060000
B0737213207417S11657542EA0065100685000000045000
B0737253207454S11657569EA0065900704000000045000
B0737293207484S11657506EA0067400714000000060000
B0737333207453S11657419EA0067900716000000075000
B0737373207378S11657380EA0068100718000000060000
B0737413207324S11657411EA0068600723000000075000
B0737453207333S11657459EA0069100729000000060000
B0737493207376S11657437EA0070400736000000060000
B0737533207372S11657350EA0071100740000000075000
B0737573207303S11657300EA0072000742000000105000
B0738013207252S11657339EA0072000747000000075000
B0738053207285S11657371EA0073000765000000075000
B0738093207313S11657303EA0074400777000000090000
B0738133207267S11657225EA0075500786000000105000
B0738173207198S11657229EA0076000792000000105000
B0738213207183S11657277EA0076500797000000090000
B0738253207225S11657289EA0076900803000000060000
B0738293207259S11657226EA0077800820000000060000
B0738333207229S11657142EA0079400834000000075000
B0738373207159S11657122EA0079900836000000075000
B0738413207124S11657165EA0080400846000000045000
B0738453207147S11657200EA0081000852000000045000
B0738493207187S11657160EA0081800862000000045000
B0738533207156S11657077EA0082800870000000060000
B0738573207090S11657074EA0083400874000000075000
B0739013207079S11657120EA0083800880000000075000
B0739053207121S11657118EA0084100888000000075000
B0739093207133S11657035EA0084900892000000090000
B0739133207078S11656964EA0085500899000000120000
B0739173207008S11656964EA0086200906000000090000
B0739213206977S11657010EA0086400906000000060000
B0739253206996S11657049EA0086700909000000045000
B0739293207037S11657009EA0087200908000000045000
B0739333207037S11656918EA0087600915000000045000
B0739373206975S11656857EA0088700924000000060000
B0739413206923S11656882EA0089400930000000045000
B0739453206938S11656922EA0089300936000000045000
B0739493206979S11656880EA0089800940000000045000
B0739533206966S11656788EA0090300952000000060000
B0739573206905S11656728EA0091300958000000075000
B0740013206842S11656744EA0091800966000000075000
B0740053206832S11656796EA0092100962000000045000
B0740093206877S11656804EA0092200969000000045000
B0740133206914S11656744EA0093300977000000060000
B0740173206904S11656652EA0093800979000000075000
B0740213206844S11656589EA0094600992000000090000
B0740253206778S11656591EA0095700996000000090000
B0740293206753S11656640EA0095901003000000060000
B0740333206778S11656670EA0096501009000000045000
B0740373206819S11656636EA0097101021000000045000
B0740413206819S11656552EA0097901026000000030000
B0740453206770S11656476EA0098101033000000030000
B0740493206700S11656454EA0098801042000000030000
B0740533206653S11656487EA0099601051000000030000
B0740573206656S11656535EA0100201056000000015000
B0741013206699S11656545EA0100401059000000015000
B0741053206736S11656489EA0101301067000000015000
B0741093206726S11656398EA0101501065000000030000
B0741133206667S11656324EA0101101065000000015000
B0741173206589S11656314EA0101801070000000015000
B0741213206546S11656360EA0102401084000000015000
B0741253206558S11656407EA0103901095000000030000
B0741293206602S11656407EA0104501102000000045000
B0741333206632S11656340EA0105401113000000075000
B0741373206621S11656249EA0106101118000000150000
B0741413206556S11656176EA0106301121000000120000
B0741453206480S11656173EA0107201129000000090000
B0741493206457S11656224EA0107901134000000090000
B0741533206493S11656253EA0108401140000000075000
B0741573206537S11656211EA0109501147000000090000
B0742013206535S11656120EA0110101156000000090000
B0742053206472S11656047EA0110801159000000045000
B0742093206396S11656039EA0111201166000000045000
B0742133206355S11656085EA0112001177000000060000
B0742173206361S11656130EA0113301184000000075000
B0742213206405S11656146EA0114001190000000045000
B0742253206450S11656100EA0114601197000000045000
B0742293206449S11656009EA0115501206000000075000
B0742333206401S11655926EA0116001213000000135000
B0742373206331S11655872EA0116901224000000075000
B0742413206260S11655868EA0117401235000000075000
B0742453206231S11655912EA0118301240000000060000
B0742493206254S11655946EA0118801245000000060000
B0742533206299S11655911EA0119101253000000045000
B0742573206299S11655829EA0120001261000000060000
B0743013206246S11655759EA0120401260000000045000
B0743053206176S11655744EA0120901269000000045000
B0743093206130S11655778EA0121801279000000060000
B0743133206129S11655822EA0122001278000000045000
B0743173206166S11655843EA0121301271000000030000
B0743213206214S11655817EA0121301273000000030000
B0743253206241S11655748EA0122101286000000060000
B0743293206240S11655661EA0123101291000000060000
B0743333206195S11655586EA0123901295000000045000
B0743373206129S11655577EA0124101301000000045000
B0743413206110S11655626EA0124301302000000045000
B0743453206143S11655652EA0124601307000000045000
B0743493206189S11655614EA0125101313000000060000
B0743533206206S11655532EA0126401328000000075000
B0743573206176S11655447EA0127301335000000090000
B0744013206107S11655408EA0127301339000000075000
B0744053206051S11655437EA0127501335000000075000
B0744093206034S11655495EA0127701332000000045000
B0744133206056S11655538EA0127901337000000030000
B0744173206103S11655531EA0128401343000000030000
B0744213206132S11655457EA0129201345000000030000
B0744253206108S11655359EA0129401356000000030000
B0744293206050S11655288EA0130601365000000045000
B0744333205978S11655265EA0130901369000000045000
B0744373205926S11655293EA0131201375000000045000
B0744413205913S11655344EA0131101378000000045000
B0744453205937S11655383EA0130701375000000045000
B0744493205984S11655396EA0130601375000000030000
B0744533206036S11655378EA0131501381000000030000
B0744573206063S11655307EA0132501388000000045000
B0745013206038S11655220EA0133401396000000060000
B0745053205974S11655167EA0133901400000000030000
B0745093205909S11655161EA0134601409000000045000
B0745133205868S11655192EA0134801408000000045000
B0745173205852S11655241EA0134701409000000030000
B0745213205860S11655285EA0135001415000000030000
B0745253205885S11655331EA0134601410000000030000
B0745293205915S11655379EA0133601404000000030000
B0745333205951S11655428EA0133101399000000030000
B0745373205997S11655469EA0132701393000000015000
B0745413206047S11655504EA0132501390000000015000
B0745453206095S11655545EA0132001381000000015000
B0745493206140S11655593EA0131101370000000015000
B0745533206185S11655643EA0130401365000000015000
B0745573206233S11655688EA0129501356000000000000
B0746013206281S11655730EA0129201352000000000000
B0746053206325S11655774EA0128301335000000000000
B0746093206361S11655827EA0127001327000000000000
B0746133206394S11655883EA0126301322000000000000
B0746173206431S11655934EA0126201322000000000000
B0746213206465S11655983EA0126601325000000000000
B0746253206494S11656034EA0127101326000000015000
B0746293206522S11656086EA0126601321000000015000
B0746333206550S11656142EA0125901313000000015000
B0746373206578S11656199EA0124701299000000015000
B0746413206606S11656260EA0123301287000000015000
B0746453206637S11656321EA0122401284000000015000
B0746493206674S11656375EA0122501286000000015000
B0746533206710S11656420EA0122901290000000015000
B0746573206747S11656463EA0123201292000000015000
B0747013206783S11656506EA0123201291000000015000
B0747053206817S11656552EA0122701285000000015000
B0747093206853S11656600EA0121801274000000015000
B0747133206891S11656650EA0121101267000000015000
B0747173206926S11656702EA0120701266000000000000
B0747213206960S11656752EA0120601264000000000000
B0747253206986S11656805EA0120201258000000000000
B0747293207007S11656865EA0119401248000000000000
B0747333207026S11656923EA0118401240000000000000
B0747373207050S11656977EA0117501230000000000000
B0747413207082S11657022EA0116701222000000000000
B0747453207117S11657065EA0116001213000000000000
B0747493207150S11657109EA0115301203000000000000
B0747533207180S11657159EA0114001191000000000000
B0747573207216S11657205EA0112601181000000015000
B0748013207260S11657247EA0111601170000000015000
B0748053207306S11657286EA0110901164000000015000
B0748093207355S11657315EA0109901153000000015000
B0748133207415S11657321EA0108601139000000015000
B0748173207473S11657332EA0107301128000000015000
B0748213207525S11657360EA0106201112000000015000
B0748253207568S11657404EA0105201105000000015000
B0748293207603S11657452EA0104401099000000015000
B0748333207641S11657503EA0103501090000000015000
B0748373207676S11657562EA0102701082000000015000
B0748413207709S11657623EA0102701079000000015000
B0748453207742S11657676EA0103101078000000030000
B0748493207780S11657727EA0102301071000000045000
B0748533207819S11657776EA0101401065000000030000
B0748573207858S11657827EA0101001061000000030000
B0749013207895S11657880EA0100401052000000030000
B0749053207927S11657937EA0099301049000000030000
B0749093207954S11657998EA0098101040000000030000
B0749133207979S11658066EA0096701025000000030000
B0749173208010S11658128EA0095701015000000030000
B0749213208047S11658183EA0094701005000000030000
B0749253208087S11658239EA0093400987000000030000
B0749293208129S11658292EA0092200974000000015000
B0749333208164S11658347EA0091600967000000030000
B0749373208192S11658405EA0090700958000000030000
B0749413208217S11658464EA0089900951000000030000
B0749453208243S11658522EA0089300944000000030000
B0749493208265S11658581EA0088800939000000030000
B0749533208285S11658641EA0088000934000000030000
B0749573208301S11658703EA0087800930000000030000
B0750013208324S11658762EA0087400926000000030000
B0750053208361S11658807EA0086800919000000030000
B0750093208404S11658846EA0085900908000000015000
B0750133208435S11658897EA0085200897000000015000
B0750173208448S11658959EA0084600894000000015000
B0750213208456S11659024EA0084700894000000015000
B0750253208470S11659085EA0084800892000000015000
B0750293208499S11659135EA0085000894000000015000
B0750333208539S11659157EA0086100901000000015000
B0750373208574S11659107EA0087300908000000030000
B0750413208542S11659023EA0087600910000000030000
B0750453208469S11659003EA0087400907000000015000
B0750493208430S11659044EA0087200905000000030000
B0750533208433S11659094EA0086900901000000030000
B0750573208452S11659140EA0086700897000000030000
B0751013208483S11659178EA0086500895000000030000
B0751053208532S11659154EA0086300894000000030000
B0751093208530S11659066EA0085900891000000015000
B0751133208482S11658983EA0085200885000000015000
B0751173208425S11658902EA0083900877000000030000
B0751213208351S11658851EA0083800876000000030000
B0751253208279S11658860EA0084000883000000030000
B0751293208282S11658906EA0084500883000000045000
B0751333208325S11658885EA0084500883000000045000
B0751373208330S11658804EA0084700882000000075000
B0751413208295S11658720EA0084600880000000105000
B0751453208231S11658676EA0084400882000000105000
B0751493208166S11658682EA0084200876000000135000
B0751533208151S11658733EA0083200869000000150000
B0751573208173S11658788EA0082500863000000135000
B0752013208199S11658840EA0081800856000000120000
