ACAM4N6
HFDTE170916
HFFXA050
HFPLTPILOT:JOHN WELSH              
HFGTYGLIDERTYPE:HORNET      
HFGIDGLIDERID:VH-GMY      
HFDTM100GPSDATUM:
HFRFWFIRMWAREVERSION:F2.6
HFRHWHARDWAREVERSION:300 Series Version 2
HFFTYFRTYPE:CAMBRIDGE AERO INSTRUMENTS, 302+
HFGPS:GARMIN,LVS-25,12,18000
HFPRSPRESSALTSENSOR:INTERSEMA, MS5534-AP, 20000
I033638FXA3941ENL4247REX
LCAMSBVER:5FWVER:F26300
C170916032521170916000102
C0000000N00000000WTAKEOFF     
C3207549S11656849EBEVAIR      
C3137399S11712982ECunderdin AF
C3200819S11723691EQUAIRDNG    
C3207549S11656849EBEVAIR      
C0000000N00000000WLANDING     
B0327463207736S11657099EA0011200202000000000000
B0327483207736S11657099EA0011200202000000000000
B0327503207736S11657099EA0011200202000000000000
B0327523207736S11657099EA0011200202000000000000
B0327543207736S11657099EA0011100202000000000000
B0327563207736S11657099EA0011100202000000000000
B0327583207736S11657099EA0011100202000000000000
B0328003207736S11657099EA0011200202000000000000
B0328023207736S11657099EA0011100202000000000000
B0328043207736S11657099EA0011100202000000000000
B0328063207736S11657099EA0011100202000000000000
B0328083207736S11657099EA0011200202000000000000
B0328103207736S11657099EA0011100202000000000000
B0328123207736S11657099EA0011200202000000000000
B0328143207736S11657098EA0011300202000000000000
B0328173207727S11657095EA0011300202000000000000
B0328213207700S11657085EA0011100202000000000000
B0328253207658S11657061EA0011100203000000000000
B0328293207602S11657029EA0011100204000000000000
B0328333207536S11656990EA0011200205000000000000
B0328373207467S11656948EA0011500208000000000000
B0328413207394S11656908EA0012000219000000000000
B0328453207323S11656870EA0014500241000000000000
B0328493207248S11656828EA0015700258000000000000
B0328533207173S11656787EA0017500274000000000000
B0328573207098S11656748EA0019100288000000000000
B0329013207022S11656709EA0020500307000000000000
B0329053206957S11656650EA0023000334000000000000
B0329093206914S11656566EA0024800350000000000000
B0329133206896S11656471EA0026900378000000000000
B0329173206896S11656373EA0029200400000000000000
B0329213206912S11656275EA0031300413000000000000
B0329253206947S11656188EA0032900432000000000000
B0329293206998S11656117EA0035100453000000000000
B0329333207068S11656065EA0037300474000000000000
B0329373207147S11656047EA0039700502000000000000
B0329413207217S11656072EA0043200535000000000000
B0329453207272S11656130EA0045500555000000000000
B0329493207297S11656216EA0047400575000000000000
B0329533207276S11656305EA0049700596000000000000
B0329573207219S11656368EA0051700616000000000000
B0330013207143S11656386EA0053900640000000000000
B0330053207069S11656359EA0056300667000000000000
B0330093207013S11656294EA0058600689000000000000
B0330133206957S11656245EA0060300700000000000000
B0330173206907S11656273EA0060900703000000000000
B0330213206921S11656336EA0061100705000000000000
B0330253206979S11656358EA0061500709000000000000
B0330293207040S11656325EA0061800713000000000000
B0330333207048S11656253EA0062900723000000000000
B0330373206999S11656224EA0063300724000000000000
B0330413206969S11656272EA0063600731000000000000
B0330453206998S11656323EA0064100736000000000000
B0330493207057S11656314EA0064600742000000000000
B0330533207078S11656247EA0065000745000000000000
B0330573207040S11656202EA0065600752000000000000
B0331013206999S11656230EA0066000753000000000000
B0331053207013S11656286EA0066300760000000000000
B0331093207066S11656301EA0067500771000000000000
B0331133207108S11656251EA0068000773000000000000
B0331173207099S11656186EA0068000777000000000000
B0331213207051S11656172EA0068700780000000000000
B0331253207030S11656220EA0068700782000000000000
B0331293207068S11656262EA0069500790000000000000
B0331333207125S11656242EA0069600788000000000000
B0331373207139S11656171EA0069000783000000000000
B0331413207092S11656129EA0069100785000000000000
B0331453207043S11656147EA0069500791000000000000
B0331493207033S11656202EA0070400801000000000000
B0331533207076S11656232EA0071400810000000000000
B0331573207124S11656190EA0071600808000000000000
B0332013207124S11656119EA0070800804000000000000
B0332053207077S11656078EA0070700802000000000000
B0332093207021S11656090EA0070500800000000000000
B0332133206974S11656133EA0070300800000000000000
B0332173206965S11656194EA0071200810000000000000
B0332213207013S11656224EA0071600813000000000000
B0332253207052S11656169EA0072300822000000000000
B0332293207022S11656104EA0073000826000000000000
B0332333206964S11656106EA0073200829000000000000
B0332373206939S11656164EA0073400830000000000000
B0332413206968S11656219EA0073800832000000000000
B0332453207026S11656224EA0074500841000000000000
B0332493207072S11656175EA0075400847000000000000
B0332533207065S11656100EA0075100845000000000000
B0332573207007S11656065EA0074700841000000000000
B0333013206952S11656100EA0075100848000000000000
B0333053206948S11656163EA0076000858000000000000
B0333093206992S11656198EA0076700861000000000000
B0333133207046S11656159EA0076700862000000000000
B0333173207060S11656085EA0077500874000000000000
B0333213207021S11656038EA0078500881000000000000
B0333253206975S11656056EA0079100886000000000000
B0333293206970S11656110EA0079000883000000000000
B0333333207009S11656147EA0078700881000000000000
B0333373207065S11656125EA0079200890000000000000
B0333413207102S11656063EA0079900892000000000000
B0333453207095S11655986EA0080200895000000000000
B0333493207046S11655939EA0080300897000000000000
B0333533206987S11655959EA0080300894000000000000
B0333573206955S11656020EA0080100897000000000000
B0334013206975S11656078EA0081400910000000000000
B0334053207029S11656098EA0082000915000000000000
B0334093207081S11656065EA0082400919000000000000
B0334133207116S11656007EA0083000921000000000000
B0334173207105S11655933EA0082400916000000000000
B0334213207055S11655899EA0083200927000000000000
B0334253207012S11655930EA0084300936000000000000
B0334293207009S11655989EA0084100933000000000000
B0334333207053S11656029EA0083900932000000000000
B0334373207115S11656025EA0084300936000000000000
B0334413207172S11655991EA0084800942000000000000
B0334453207186S11655924EA0085800953000000000000
B0334493207146S11655876EA0086400955000000000000
B0334533207096S11655899EA0086000951000000000000
B0334573207099S11655959EA0085900951000000000000
B0335013207147S11655989EA0086600959000000000000
B0335053207202S11655968EA0087000959000000000000
B0335093207239S11655907EA0086800960000000000000
B0335133207243S11655835EA0087500971000000000000
B0335173207196S11655814EA0088900983000000000000
B0335213207164S11655857EA0089700993000000000000
B0335253207176S11655913EA0090600999000000000000
B0335293207225S11655939EA0090500999000000000000
B0335333207281S11655917EA0091201004000000000000
B0335373207311S11655856EA0091801012000000000000
B0335413207284S11655801EA0092801023000000000000
B0335453207230S11655804EA0093501026000000000000
B0335493207202S11655857EA0094101037000000000000
B0335533207230S11655902EA0095301045000000000000
B0335573207286S11655892EA0095501046000000000000
B0336013207316S11655831EA0096201055000000000000
B0336053207289S11655777EA0097501069000000000000
B0336093207241S11655786EA0098501076000000000000
B0336133207230S11655844EA0099501086000000000000
B0336173207271S11655885EA0099901089000000000000
B0336213207329S11655872EA0100301094000000000000
B0336253207358S11655812EA0101401106000000000000
B0336293207333S11655757EA0102401117000000000000
B0336333207284S11655769EA0103501130000000000000
B0336373207274S11655825EA0104601138000000000000
B0336413207320S11655860EA0105401145000000000000
B0336453207371S11655835EA0106601158000000000000
B0336493207386S11655774EA0107501166000000000000
B0336533207352S11655730EA0108101172000000000000
B0336573207307S11655756EA0109201183000000000000
B0337013207317S11655816EA0110401194000000000000
B0337053207373S11655833EA0111301204000000000000
B0337093207410S11655783EA0112201215000000000000
B0337133207391S11655723EA0113001221000000000000
B0337173207341S11655718EA0113501227000000000000
B0337213207315S11655769EA0114901243000000000000
B0337253207342S11655825EA0116001249000000000000
B0337293207403S11655824EA0116501259000000000000
B0337333207427S11655759EA0117301261000000000000
B0337373207384S11655709EA0117401263000000000000
B0337413207329S11655733EA0118501274000000000000
B0337453207320S11655800EA0120101292000000000000
B0337493207365S11655848EA0121201307000000000000
B0337533207428S11655831EA0122601315000000000000
B0337573207456S11655762EA0123201321000000000000
B0338013207427S11655699EA0123401324000000000000
B0338053207367S11655694EA0124001330000000000000
B0338093207332S11655744EA0125501350000000000000
B0338133207352S11655803EA0127701369000000000000
B0338173207403S11655825EA0129101380000000000000
B0338213207456S11655803EA0130301388000000000000
B0338253207485S11655747EA0130501390000000000000
B0338293207473S11655683EA0130301387000000000000
B0338333207420S11655664EA0130301393000000000000
B0338373207385S11655713EA0131201400000000000000
B0338413207412S11655773EA0132101409000000000000
B0338453207472S11655779EA0132901418000000000000
B0338493207511S11655729EA0133401418000000000000
B0338533207501S11655664EA0133001416000000000000
B0338573207449S11655638EA0133201421000000000000
B0339013207397S11655662EA0134201429000000000000
B0339053207385S11655722EA0135201439000000000000
B0339093207427S11655765EA0135801445000000000000
B0339133207481S11655747EA0136201448000000000000
B0339173207495S11655686EA0136201446000000000000
B0339213207456S11655639EA0135901445000000000000
B0339253207402S11655655EA0136301451000000000000
B0339293207382S11655716EA0137001457000000000000
B0339333207417S11655768EA0137501462000000000000
B0339373207477S11655766EA0137901464000000000000
B0339413207516S11655714EA0138001464000000000000
B0339453207512S11655649EA0138001465000000000000
B0339493207467S11655613EA0138301469000000000000
B0339533207416S11655638EA0138901474000000000000
B0339573207406S11655703EA0139101478000000000000
B0340013207447S11655755EA0139501481000000000000
B0340053207510S11655752EA0139801482000000000000
B0340093207546S11655696EA0140001484000000000000
B0340133207533S11655634EA0140201482000000000000
B0340173207480S11655618EA0140101486000000000000
B0340213207441S11655664EA0140901494000000000000
B0340253207450S11655734EA0141401500000000000000
B0340293207479S11655801EA0142001507000000000000
B0340333207511S11655864EA0142501510000000000000
B0340373207550S11655928EA0142001501000000000000
B0340413207593S11655995EA0140401486000000000000
B0340453207636S11656068EA0139001474000000000000
B0340493207676S11656142EA0138301468000000000000
B0340533207701S11656224EA0138101469000000000000
B0340573207709S11656306EA0138301470000000000000
B0341013207709S11656386EA0138201466000000000000
B0341053207703S11656466EA0137701459000000000000
B0341093207688S11656546EA0136701446000000000000
B0341133207654S11656622EA0135501437000000000000
B0341173207607S11656687EA0135001434000000000000
B0341213207555S11656741EA0134901429000000000000
B0341253207499S11656791EA0134201422000000000000
B0341293207438S11656836EA0133201416000000000000
B0341333207377S11656880EA0132801410000000000000
B0341373207316S11656926EA0132001400000000000000
B0341413207254S11656975EA0130901389000000000000
B0341453207191S11657025EA0129801377000000000000
B0341493207126S11657073EA0128701369000000000000
B0341533207063S11657118EA0128801374000000000000
B0341573207000S11657163EA0129401376000000000000
B0342013206940S11657204EA0129301374000000000000
B0342053206879S11657247EA0128301365000000000000
B0342093206818S11657291EA0127701359000000000000
B0342133206756S11657341EA0127201355000000000000
B0342173206695S11657394EA0126601348000000000000
B0342213206634S11657447EA0125801341000000000000
B0342253206574S11657503EA0125401339000000000000
B0342293206517S11657558EA0125401337000000000000
B0342333206461S11657612EA0124701328000000000000
B0342373206406S11657667EA0124201325000000000000
B0342413206351S11657718EA0123901319000000000000
B0342453206293S11657766EA0123101309000000000000
B0342493206234S11657813EA0122101302000000000000
B0342533206175S11657861EA0121401295000000000000
B0342573206117S11657910EA0121101283000000000000
B0343013206055S11657962EA0119701272000000000000
B0343053205990S11658009EA0119001269000000000000
B0343093205922S11658052EA0118501259000000000000
B0343133205850S11658093EA0117001247000000000000
B0343173205776S11658128EA0116401242000000000000
B0343213205703S11658162EA0116001239000000000000
B0343253205633S11658196EA0116001239000000000000
B0343293205565S11658225EA0116201244000000000000
B0343333205499S11658248EA0117101255000000000000
B0343373205436S11658271EA0118401268000000000000
B0343413205375S11658292EA0119601277000000000000
B0343453205335S11658342EA0121501302000000000000
B0343493205350S11658398EA0123101312000000000000
B0343533205405S11658411EA0122401302000000000000
B0343573205454S11658361EA0122301305000000000000
B0344013205452S11658291EA0123401321000000000000
B0344053205415S11658247EA0124801332000000000000
B0344093205363S11658239EA0125301331000000000000
B0344133205314S11658270EA0125601340000000000000
B0344173205271S11658314EA0126301346000000000000
B0344213205233S11658369EA0126501343000000000000
B0344253205196S11658430EA0125501332000000000000
B0344293205155S11658495EA0124201321000000000000
B0344333205110S11658563EA0124001322000000000000
B0344373205064S11658628EA0124601332000000000000
B0344413205019S11658689EA0126201348000000000000
B0344453204973S11658742EA0127401355000000000000
B0344493204929S11658794EA0127301348000000000000
B0344533204884S11658853EA0126001341000000000000
B0344573204840S11658914EA0126001339000000000000
B0345013204794S11658973EA0125201329000000000000
B0345053204743S11659032EA0124901328000000000000
B0345093204689S11659085EA0125801338000000000000
B0345133204634S11659135EA0126501349000000000000
B0345173204585S11659184EA0127801359000000000000
B0345213204589S11659245EA0129101371000000000000
B0345253204639S11659259EA0129101366000000000000
B0345293204681S11659198EA0129001372000000000000
B0345333204682S11659116EA0130101384000000000000
B0345373204647S11659051EA0131101390000000000000
B0345413204585S11659036EA0131001390000000000000
B0345453204526S11659064EA0130601382000000000000
B0345493204470S11659110EA0129101368000000000000
B0345533204417S11659161EA0128401359000000000000
B0345573204361S11659213EA0127201345000000000000
B0346013204305S11659269EA0125701332000000000000
B0346053204247S11659323EA0124801327000000000000
B0346093204190S11659373EA0124601325000000000000
B0346133204134S11659422EA0124101318000000000000
B0346173204074S11659470EA0123501314000000000000
B0346213204015S11659514EA0124101323000000000000
B0346253203962S11659560EA0125801341000000000000
B0346293203914S11659601EA0126401340000000000000
B0346333203867S11659644EA0125301327000000000000
B0346373203810S11659685EA0124301318000000000000
B0346413203745S11659716EA0123801318000000000000
B0346453203677S11659743EA0124101322000000000000
B0346493203615S11659770EA0125001330000000000000
B0346533203554S11659798EA0125101331000000000000
B0346573203489S11659825EA0124601324000000000000
B0347013203417S11659848EA0123501313000000000000
B0347053203338S11659863EA0122201299000000000000
B0347093203255S11659872EA0121201285000000000000
B0347133203168S11659872EA0119701275000000000000
B0347173203085S11659868EA0119401275000000000000
B0347213203003S11659863EA0119601275000000000000
B0347253202921S11659855EA0118501259000000000000
B0347293202835S11659848EA0117301251000000000000
B0347333202750S11659844EA0116601243000000000000
B0347373202669S11659841EA0116201240000000000000
B0347413202591S11659835EA0116401247000000000000
B0347453202520S11659831EA0117401254000000000000
B0347493202454S11659829EA0117601255000000000000
B0347533202390S11659828EA0118301266000000000000
B0347573202331S11659828EA0119201270000000000000
B0348013202272S11659830EA0119301272000000000000
B0348053202217S11659846EA0119801280000000000000
B0348093202164S11659867EA0120401283000000000000
B0348133202111S11659838EA0120701287000000000000
B0348173202065S11659792EA0121101287000000000000
B0348213202003S11659779EA0120901290000000000000
B0348253201943S11659800EA0121101288000000000000
B0348293201881S11659831EA0120201280000000000000
B0348333201817S11659868EA0119401271000000000000
B0348373201752S11659909EA0118301261000000000000
B0348413201690S11659947EA0118201264000000000000
B0348453201629S11659981EA0118401264000000000000
B0348493201569S11700012EA0118101260000000000000
B0348533201508S11700045EA0117601254000000000000
B0348573201444S11700077EA0116901246000000000000
B0349013201382S11700106EA0116901251000000000000
B0349053201320S11700134EA0117501255000000000000
B0349093201261S11700163EA0117601256000000000000
B0349133201200S11700195EA0116401241000000000000
B0349173201135S11700227EA0115301234000000000000
B0349213201068S11700258EA0115101232000000000000
B0349253201005S11700289EA0114701227000000000000
B0349293200938S11700323EA0114101220000000000000
B0349333200871S11700357EA0113701217000000000000
B0349373200804S11700396EA0113201210000000000000
B0349413200737S11700432EA0112701208000000000000
B0349453200668S11700465EA0112501205000000000000
B0349493200600S11700496EA0112201203000000000000
B0349533200531S11700527EA0111401193000000000000
B0349573200460S11700559EA0110501184000000000000
B0350013200387S11700591EA0110001180000000000000
B0350053200316S11700622EA0110101183000000000000
B0350093200245S11700657EA0110101181000000000000
B0350133200178S11700691EA0110001180000000000000
B0350173200110S11700726EA0109301170000000000000
B0350213200041S11700761EA0108601167000000000000
B0350253159974S11700791EA0108501165000000000000
B0350293159906S11700818EA0108101160000000000000
B0350333159840S11700847EA0107301151000000000000
B0350373159768S11700875EA0106201135000000000000
B0350413159695S11700903EA0104701122000000000000
B0350453159625S11700929EA0103801118000000000000
B0350493159559S11700959EA0103801119000000000000
B0350533159495S11700986EA0103701116000000000000
B0350573159432S11701014EA0102501103000000000000
B0351013159368S11701048EA0101601095000000000000
B0351053159308S11701085EA0101701099000000000000
B0351093159250S11701121EA0102201108000000000000
B0351133159203S11701168EA0103901128000000000000
B0351173159201S11701228EA0105701142000000000000
B0351213159255S11701248EA0106001146000000000000
B0351253159298S11701195EA0106401153000000000000
B0351293159289S11701122EA0107601165000000000000
B0351333159240S11701082EA0108001167000000000000
B0351373159183S11701087EA0108901178000000000000
B0351413159151S11701137EA0109501182000000000000
B0351453159173S11701198EA0109901190000000000000
B0351493159229S11701213EA0111301201000000000000
B0351533159278S11701178EA0111701204000000000000
B0351573159292S11701105EA0112301210000000000000
B0352013159261S11701040EA0112501212000000000000
B0352053159203S11701025EA0113001220000000000000
B0352093159165S11701074EA0113901224000000000000
B0352133159188S11701134EA0114001228000000000000
B0352173159250S11701139EA0114901237000000000000
B0352213159290S11701082EA0116401255000000000000
B0352253159278S11701014EA0117101260000000000000
B0352293159227S11700982EA0117601262000000000000
B0352333159172S11700999EA0117901261000000000000
B0352373159135S11701052EA0117801265000000000000
B0352413159133S11701120EA0118901278000000000000
B0352453159181S11701148EA0120201289000000000000
B0352493159230S11701115EA0120501289000000000000
B0352533159237S11701042EA0121101297000000000000
B0352573159198S11700990EA0122001305000000000000
B0353013159140S11700988EA0121901302000000000000
B0353053159100S11701037EA0122401309000000000000
B0353093159096S11701103EA0122801313000000000000
B0353133159129S11701159EA0123501321000000000000
B0353173159186S11701170EA0123501318000000000000
B0353213159229S11701124EA0122901315000000000000
B0353253159216S11701053EA0123001317000000000000
B0353293159157S11701024EA0123201320000000000000
B0353333159090S11701030EA0123501320000000000000
B0353373159018S11701053EA0123501321000000000000
B0353413158952S11701085EA0124701329000000000000
B0353453158886S11701117EA0124101319000000000000
B0353493158814S11701144EA0123501313000000000000
B0353533158744S11701173EA0123101311000000000000
B0353573158675S11701200EA0123201310000000000000
B0354013158607S11701230EA0122101297000000000000
B0354053158538S11701258EA0121001289000000000000
B0354093158467S11701276EA0120101281000000000000
B0354133158394S11701285EA0119301274000000000000
B0354173158324S11701291EA0119101271000000000000
B0354213158255S11701302EA0118801268000000000000
B0354253158186S11701316EA0117901260000000000000
B0354293158120S11701328EA0117601256000000000000
B0354333158051S11701334EA0116801248000000000000
B0354373157982S11701346EA0116101244000000000000
B0354413157920S11701360EA0116901254000000000000
B0354453157862S11701376EA0117501257000000000000
B0354493157809S11701395EA0117801263000000000000
B0354533157768S11701433EA0118501273000000000000
B0354573157786S11701486EA0119101276000000000000
B0355013157844S11701479EA0119801283000000000000
B0355053157874S11701415EA0120001282000000000000
B0355093157849S11701351EA0120201287000000000000
B0355133157801S11701324EA0121101294000000000000
B0355173157747S11701329EA0121901300000000000000
B0355213157693S11701354EA0122801312000000000000
B0355253157662S11701402EA0124501329000000000000
B0355293157692S11701443EA0125201333000000000000
B0355333157742S11701414EA0125501335000000000000
B0355373157739S11701341EA0125801338000000000000
B0355413157691S11701297EA0127401357000000000000
B0355453157632S11701289EA0128801371000000000000
B0355493157584S11701323EA0129401373000000000000
B0355533157582S11701386EA0129101372000000000000
B0355573157630S11701414EA0129801381000000000000
B0356013157678S11701378EA0130401387000000000000
B0356053157688S11701306EA0131801401000000000000
B0356093157645S11701261EA0133801424000000000000
B0356133157604S11701298EA0135201427000000000000
B0356173157608S11701363EA0134301420000000000000
B0356213157654S11701399EA0135201434000000000000
B0356253157706S11701380EA0136301442000000000000
B0356293157721S11701313EA0136901450000000000000
B0356333157674S11701274EA0138301463000000000000
B0356373157630S11701315EA0139501480000000000000
B0356413157649S11701376EA0140301482000000000000
B0356453157709S11701372EA0141401497000000000000
B0356493157739S11701312EA0142401507000000000000
B0356533157712S11701247EA0143601519000000000000
B0356573157653S11701229EA0144901525000000000000
B0357013157599S11701267EA0145601533000000000000
B0357053157579S11701336EA0145501526000000000000
B0357093157615S11701398EA0145101526000000000000
B0357133157677S11701403EA0145601532000000000000
B0357173157714S11701351EA0146001535000000000000
B0357213157691S11701285EA0145901539000000000000
B0357253157627S11701261EA0146901548000000000000
B0357293157560S11701276EA0146801538000000000000
B0357333157487S11701307EA0145301525000000000000
B0357373157410S11701342EA0143601507000000000000
B0357413157332S11701377EA0142201496000000000000
B0357453157257S11701411EA0141401487000000000000
B0357493157183S11701442EA0141201489000000000000
B0357533157111S11701472EA0141401489000000000000
B0357573157041S11701501EA0142101496000000000000
B0358013156972S11701533EA0142001495000000000000
B0358053156906S11701564EA0142201501000000000000
B0358093156842S11701594EA0143001505000000000000
B0358133156776S11701620EA0143101504000000000000
B0358173156705S11701646EA0142701497000000000000
B0358213156635S11701672EA0141601487000000000000
B0358253156560S11701696EA0141001482000000000000
B0358293156486S11701716EA0140701479000000000000
B0358333156410S11701737EA0139901475000000000000
B0358373156335S11701755EA0141101493000000000000
B0358413156265S11701774EA0142901512000000000000
B0358453156195S11701788EA0144201521000000000000
B0358493156123S11701800EA0145101525000000000000
B0358533156049S11701811EA0144401511000000000000
B0358573155972S11701826EA0142501497000000000000
B0359013155892S11701841EA0141501489000000000000
B0359053155814S11701854EA0141001483000000000000
B0359093155736S11701866EA0139901474000000000000
B0359133155656S11701882EA0138901463000000000000
B0359173155578S11701897EA0138401459000000000000
B0359213155500S11701913EA0138301457000000000000
B0359253155424S11701928EA0137701450000000000000
B0359293155346S11701940EA0136901443000000000000
B0359333155269S11701952EA0136501438000000000000
B0359373155192S11701965EA0135601432000000000000
B0359413155118S11701978EA0135501430000000000000
B0359453155045S11701993EA0135301429000000000000
B0359493154975S11702010EA0135001424000000000000
B0359533154905S11702028EA0134201417000000000000
B0359573154835S11702045EA0133801414000000000000
B0400013154766S11702061EA0133201407000000000000
B0400053154698S11702080EA0132601400000000000000
B0400093154629S11702100EA0131701392000000000000
B0400133154563S11702121EA0131301389000000000000
B0400173154497S11702140EA0131001385000000000000
B0400213154432S11702157EA0130901383000000000000
B0400253154367S11702173EA0130701389000000000000
B0400293154308S11702191EA0132101409000000000000
B0400333154258S11702212EA0134001420000000000000
B0400373154209S11702236EA0134501424000000000000
B0400413154168S11702281EA0134501421000000000000
B0400453154121S11702321EA0133701412000000000000
B0400493154061S11702351EA0132601403000000000000
B0400533153996S11702365EA0132401402000000000000
B0400573153930S11702373EA0132001395000000000000
B0401013153858S11702379EA0130801383000000000000
B0401053153786S11702386EA0130001377000000000000
B0401093153714S11702394EA0129601372000000000000
B0401133153644S11702400EA0129301368000000000000
B0401173153572S11702405EA0128901369000000000000
B0401213153504S11702412EA0129401376000000000000
B0401253153436S11702417EA0130101379000000000000
B0401293153367S11702422EA0129801372000000000000
B0401333153297S11702426EA0129001365000000000000
B0401373153227S11702430EA0128801366000000000000
B0401413153155S11702431EA0128601358000000000000
B0401453153081S11702429EA0127301347000000000000
B0401493153007S11702429EA0126401340000000000000
B0401533152934S11702433EA0126001334000000000000
B0401573152861S11702437EA0125301327000000000000
B0402013152790S11702435EA0124401320000000000000
B0402053152721S11702433EA0123801314000000000000
B0402093152653S11702433EA0123301308000000000000
B0402133152586S11702437EA0122301297000000000000
B0402173152518S11702439EA0121801293000000000000
B0402213152454S11702446EA0121301288000000000000
B0402253152391S11702452EA0120901281000000000000
B0402293152327S11702455EA0120101272000000000000
B0402333152262S11702459EA0118901261000000000000
B0402373152196S11702469EA0118001252000000000000
B0402413152131S11702487EA0117101241000000000000
B0402453152067S11702511EA0116101234000000000000
B0402493152005S11702537EA0115201227000000000000
B0402533151945S11702568EA0114801224000000000000
B0402573151888S11702599EA0114501219000000000000
B0403013151832S11702633EA0114901236000000000000
B0403053151806S11702684EA0117001254000000000000
B0403093151845S11702720EA0117801256000000000000
B0403133151895S11702685EA0117401251000000000000
B0403173151902S11702610EA0116601243000000000000
B0403213151858S11702564EA0116201241000000000000
B0403253151802S11702569EA0116701249000000000000
B0403293151752S11702594EA0118001260000000000000
B0403333151724S11702641EA0118601266000000000000
B0403373151758S11702685EA0118201261000000000000
B0403413151811S11702662EA0118501264000000000000
B0403453151821S11702593EA0118601265000000000000
B0403493151790S11702533EA0119201272000000000000
B0403533151738S11702503EA0119701280000000000000
B0403573151680S11702499EA0120901289000000000000
B0404013151642S11702537EA0121901301000000000000
B0404053151667S11702585EA0122501303000000000000
B0404093151724S11702571EA0122301298000000000000
B0404133151742S11702503EA0122101300000000000000
B0404173151700S11702448EA0122701308000000000000
B0404213151642S11702437EA0124101321000000000000
B0404253151612S11702485EA0125501335000000000000
B0404293151635S11702537EA0126301343000000000000
B0404333151689S11702543EA0126401340000000000000
B0404373151734S11702493EA0125401332000000000000
B0404413151733S11702416EA0126001343000000000000
B0404453151685S11702372EA0127101350000000000000
B0404493151628S11702389EA0127901359000000000000
B0404533151615S11702448EA0129401376000000000000
B0404573151659S11702480EA0130901386000000000000
B0405013151711S11702451EA0130901384000000000000
B0405053151730S11702378EA0130801388000000000000
B0405093151703S11702313EA0131901398000000000000
B0405133151647S11702288EA0132301400000000000000
B0405173151591S11702316EA0132601401000000000000
B0405213151564S11702377EA0133001411000000000000
B0405253151589S11702433EA0134201424000000000000
B0405293151642S11702437EA0135701436000000000000
B0405333151677S11702383EA0135801435000000000000
B0405373151664S11702311EA0136001442000000000000
B0405413151612S11702283EA0137101452000000000000
B0405453151560S11702313EA0137301451000000000000
B0405493151552S11702382EA0137301456000000000000
B0405533151602S11702418EA0138701469000000000000
B0405573151659S11702391EA0139301474000000000000
B0406013151678S11702318EA0139301471000000000000
B0406053151645S11702246EA0138901473000000000000
B0406093151580S11702212EA0139401475000000000000
B0406133151508S11702214EA0139401474000000000000
B0406173151434S11702236EA0139201470000000000000
B0406213151356S11702269EA0138901461000000000000
B0406253151281S11702307EA0138801462000000000000
B0406293151210S11702350EA0138901465000000000000
B0406333151143S11702394EA0138801459000000000000
B0406373151071S11702439EA0137901449000000000000
B0406413151000S11702482EA0137001443000000000000
B0406453150928S11702524EA0136701440000000000000
B0406493150859S11702565EA0136101436000000000000
B0406533150793S11702607EA0135701431000000000000
B0406573150727S11702650EA0134801423000000000000
B0407013150660S11702693EA0134101417000000000000
B0407053150595S11702733EA0133501410000000000000
B0407093150530S11702769EA0133001405000000000000
B0407133150464S11702805EA0132501403000000000000
B0407173150398S11702838EA0132301400000000000000
B0407213150332S11702868EA0131701393000000000000
B0407253150265S11702899EA0131001387000000000000
B0407293150202S11702937EA0130401386000000000000
B0407333150143S11702977EA0131401397000000000000
B0407373150088S11703019EA0132101402000000000000
B0407413150036S11703059EA0132401405000000000000
B0407453149984S11703101EA0132501409000000000000
B0407493149934S11703140EA0133601423000000000000
B0407533149895S11703179EA0135301434000000000000
B0407573149873S11703230EA0135601435000000000000
B0408013149861S11703288EA0135301432000000000000
B0408053149844S11703344EA0135601434000000000000
B0408093149814S11703392EA0135401431000000000000
B0408133149769S11703429EA0134701423000000000000
B0408173149713S11703458EA0133801413000000000000
B0408213149652S11703487EA0132501401000000000000
B0408253149584S11703513EA0131301389000000000000
B0408293149510S11703535EA0130301378000000000000
B0408333149436S11703560EA0129401371000000000000
B0408373149364S11703586EA0128801367000000000000
B0408413149295S11703611EA0128501364000000000000
B0408453149228S11703637EA0127301346000000000000
B0408493149156S11703664EA0125701335000000000000
B0408533149087S11703690EA0125101333000000000000
B0408573149020S11703718EA0124701327000000000000
B0409013148952S11703747EA0124101321000000000000
B0409053148886S11703777EA0124001323000000000000
B0409093148824S11703807EA0124401325000000000000
B0409133148761S11703838EA0124201321000000000000
B0409173148700S11703867EA0124001317000000000000
B0409213148639S11703891EA0123301311000000000000
B0409253148577S11703917EA0122601305000000000000
B0409293148517S11703946EA0121701295000000000000
B0409333148456S11703975EA0121001289000000000000
B0409373148395S11704004EA0120801291000000000000
B0409413148337S11704034EA0121001292000000000000
B0409453148279S11704063EA0120901289000000000000
B0409493148219S11704092EA0120401284000000000000
B0409533148163S11704125EA0120301286000000000000
B0409573148114S11704166EA0120801289000000000000
B0410013148068S11704210EA0121401300000000000000
B0410053148031S11704253EA0123001313000000000000
B0410093147999S11704302EA0122901307000000000000
B0410133147964S11704354EA0122701311000000000000
B0410173147938S11704410EA0124101323000000000000
B0410213147963S11704457EA0125301337000000000000
B0410253148011S11704430EA0126001341000000000000
B0410293148005S11704365EA0126701346000000000000
B0410333147955S11704337EA0127901360000000000000
B0410373147911S11704368EA0129601376000000000000
B0410413147907S11704426EA0130901389000000000000
B0410453147949S11704452EA0131801400000000000000
B0410493147992S11704418EA0132601406000000000000
B0410533147986S11704354EA0133201411000000000000
B0410573147941S11704319EA0134001420000000000000
B0411013147888S11704337EA0135101429000000000000
B0411053147856S11704392EA0136301445000000000000
B0411093147869S11704444EA0138301463000000000000
B0411133147915S11704454EA0138801464000000000000
B0411173147951S11704407EA0138901466000000000000
B0411213147938S11704341EA0139201473000000000000
B0411253147885S11704320EA0140301483000000000000
B0411293147843S11704359EA0141701501000000000000
B0411333147849S11704411EA0143201514000000000000
B0411373147894S11704428EA0143601516000000000000
B0411413147934S11704388EA0144501522000000000000
B0411453147930S11704323EA0144601525000000000000
B0411493147884S11704284EA0145201529000000000000
B0411533147823S11704292EA0145601536000000000000
B0411573147774S11704336EA0146201540000000000000
B0412013147767S11704401EA0146101536000000000000
B0412053147808S11704440EA0145501532000000000000
B0412093147862S11704419EA0146201542000000000000
B0412133147885S11704358EA0147201552000000000000
B0412173147872S11704289EA0148401561000000000000
B0412213147823S11704249EA0148901566000000000000
B0412253147755S11704242EA0148501555000000000000
B0412293147677S11704257EA0146801536000000000000
B0412333147596S11704283EA0145101521000000000000
B0412373147516S11704310EA0144101514000000000000
B0412413147439S11704341EA0143301505000000000000
B0412453147361S11704374EA0141901494000000000000
B0412493147282S11704397EA0141301489000000000000
B0412533147201S11704413EA0141101487000000000000
B0412573147122S11704427EA0140701480000000000000
B0413013147044S11704443EA0140001470000000000000
B0413053146965S11704462EA0139301467000000000000
B0413093146885S11704482EA0138901459000000000000
B0413133146809S11704505EA0138101454000000000000
B0413173146736S11704530EA0137701448000000000000
B0413213146664S11704554EA0136501434000000000000
B0413253146591S11704576EA0135001422000000000000
B0413293146517S11704596EA0134101408000000000000
B0413333146443S11704613EA0133101397000000000000
B0413373146369S11704627EA0132101388000000000000
B0413413146295S11704641EA0131401384000000000000
B0413453146224S11704651EA0131401383000000000000
B0413493146152S11704651EA0131501387000000000000
B0413533146083S11704647EA0131901392000000000000
B0413573146018S11704645EA0132801401000000000000
B0414013145957S11704638EA0133901413000000000000
B0414053145897S11704625EA0134701421000000000000
B0414093145839S11704618EA0135501430000000000000
B0414133145780S11704622EA0136101428000000000000
B0414173145724S11704649EA0135401424000000000000
B0414213145668S11704682EA0135001419000000000000
B0414253145611S11704719EA0134101411000000000000
B0414293145555S11704762EA0133301405000000000000
B0414333145503S11704814EA0131801388000000000000
B0414373145449S11704869EA0130701376000000000000
B0414413145393S11704922EA0129801369000000000000
B0414453145336S11704973EA0129101361000000000000
B0414493145280S11705029EA0127901350000000000000
B0414533145223S11705089EA0127101345000000000000
B0414573145167S11705147EA0126601343000000000000
B0415013145109S11705206EA0126101334000000000000
B0415053145054S11705267EA0125501330000000000000
B0415093144998S11705327EA0125501332000000000000
B0415133144947S11705389EA0125501333000000000000
B0415173144899S11705453EA0125601336000000000000
B0415213144848S11705514EA0126101343000000000000
B0415253144796S11705566EA0127401353000000000000
B0415293144740S11705611EA0128101362000000000000
B0415333144686S11705653EA0128901367000000000000
B0415373144635S11705696EA0129101367000000000000
B0415413144586S11705743EA0128301358000000000000
B0415453144534S11705792EA0127601352000000000000
B0415493144483S11705847EA0126301339000000000000
B0415533144435S11705905EA0125701331000000000000
B0415573144385S11705964EA0124601321000000000000
B0416013144339S11706025EA0123501309000000000000
B0416053144294S11706088EA0122401300000000000000
B0416093144253S11706155EA0121401290000000000000
B0416133144209S11706221EA0121101290000000000000
B0416173144167S11706282EA0121301292000000000000
B0416213144124S11706338EA0121101290000000000000
B0416253144080S11706394EA0120901285000000000000
B0416293144034S11706450EA0120301280000000000000
B0416333143993S11706508EA0119601272000000000000
B0416373143950S11706569EA0118901266000000000000
B0416413143908S11706632EA0118401264000000000000
B0416453143869S11706690EA0118301260000000000000
B0416493143830S11706750EA0117501253000000000000
B0416533143790S11706810EA0116901245000000000000
B0416573143746S11706867EA0116401241000000000000
B0417013143703S11706923EA0115801233000000000000
B0417053143663S11706980EA0114601223000000000000
B0417093143624S11707039EA0114001218000000000000
B0417133143585S11707095EA0113401208000000000000
B0417173143546S11707154EA0112201200000000000000
B0417213143508S11707210EA0111901195000000000000
B0417253143481S11707273EA0111101187000000000000
B0417293143461S11707343EA0110101178000000000000
B0417333143444S11707413EA0110201184000000000000
B0417373143452S11707481EA0111401200000000000000
B0417413143505S11707501EA0112901211000000000000
B0417453143556S11707452EA0113301212000000000000
B0417493143556S11707375EA0113201215000000015000
B0417533143512S11707323EA0113801219000000000000
B0417573143455S11707321EA0113701215000000000000
B0418013143405S11707358EA0113701220000000000000
B0418053143366S11707410EA0114701233000000000000
B0418093143361S11707472EA0115701244000000000000
B0418133143413S11707483EA0116501245000000000000
B0418173143452S11707426EA0116401248000000000000
B0418213143435S11707356EA0117101263000000000000
B0418253143384S11707316EA0118601274000000000000
B0418293143327S11707316EA0119601281000000000000
B0418333143296S11707361EA0121101297000000000000
B0418373143310S11707414EA0122301306000000000000
B0418413143354S11707444EA0121601292000000000000
B0418453143417S11707427EA0121201294000000000000
B0418493143451S11707366EA0122201305000000000000
B0418533143443S11707297EA0123401321000000000000
B0418573143399S11707262EA0124601328000000000000
B0419013143353S11707292EA0124801328000000000000
B0419053143356S11707352EA0125001340000000000000
B0419093143406S11707362EA0126501350000000000000
B0419133143443S11707305EA0126601350000000000000
B0419173143419S11707238EA0127701362000000015000
B0419213143367S11707228EA0128601368000000015000
B0419253143336S11707278EA0129101379000000000000
B0419293143357S11707327EA0130801396000000000000
B0419333143409S11707326EA0131901403000000000000
B0419373143445S11707271EA0132001403000000000000
B0419413143434S11707202EA0132301409000000000000
B0419453143386S11707178EA0132901411000000000000
B0419493143347S11707210EA0132901414000000000000
B0419533143354S11707265EA0134101428000000000000
B0419573143404S11707273EA0135301437000000000000
B0420013143442S11707217EA0135401441000000000000
B0420053143426S11707149EA0136201449000000015000
B0420093143373S11707131EA0136101444000000015000
B0420133143325S11707169EA0135901444000000000000
B0420173143302S11707232EA0137201462000000000000
B0420213143340S11707271EA0139201485000000000000
B0420253143386S11707247EA0141001490000000000000
B0420293143390S11707179EA0140401485000000015000
B0420333143334S11707144EA0140701497000000015000
B0420373143270S11707158EA0141301502000000000000
B0420413143206S11707191EA0142301512000000000000
B0420453143139S11707231EA0142201506000000000000
B0420493143065S11707273EA0141201495000000000000
B0420533142988S11707314EA0140101489000000000000
B0420573142912S11707355EA0139801483000000000000
B0421013142840S11707394EA0139801484000000000000
B0421053142771S11707430EA0140001486000000000000
B0421093142704S11707462EA0140101485000000000000
B0421133142639S11707492EA0139901481000000000000
B0421173142573S11707521EA0139201473000000000000
B0421213142507S11707552EA0138301464000000000000
B0421253142442S11707587EA0137501456000000000000
B0421293142378S11707621EA0136501446000000000000
B0421333142312S11707654EA0135101432000000000000
B0421373142244S11707686EA0134201422000000000000
B0421413142178S11707717EA0133401416000000000000
B0421453142112S11707743EA0132901409000000000000
B0421493142045S11707769EA0132201403000000000000
B0421533141980S11707797EA0131701399000000000000
B0421573141917S11707825EA0131201394000000000000
B0422013141853S11707855EA0130701390000000000000
B0422053141789S11707882EA0130501386000000000000
B0422093141726S11707910EA0130201385000000000000
B0422133141661S11707936EA0130001377000000000000
B0422173141597S11707962EA0128801365000000000000
B0422213141534S11707998EA0127701356000000000000
B0422253141476S11708040EA0126701347000000000000
B0422293141423S11708085EA0126101345000000000000
B0422333141371S11708132EA0125701339000000000000
B0422373141320S11708181EA0125301335000000000000
B0422413141271S11708233EA0124801327000000000000
B0422453141221S11708288EA0124501328000000000000
B0422493141174S11708336EA0125301342000000000000
B0422533141129S11708383EA0126801353000000000000
B0422573141087S11708430EA0127001348000000000000
B0423013141046S11708482EA0126701351000000000000
B0423053141005S11708534EA0127701359000000000000
B0423093140966S11708587EA0127701355000000000000
B0423133140921S11708639EA0127301352000000000000
B0423173140869S11708687EA0126901347000000000000
B0423213140810S11708733EA0126301344000000000000
B0423253140749S11708775EA0126701352000000000000
B0423293140693S11708813EA0128101369000000000000
B0423333140652S11708866EA0129001367000000000000
B0423373140611S11708926EA0127701353000000000000
B0423413140556S11708974EA0127101350000000000000
B0423453140493S11709009EA0126301343000000000000
B0423493140429S11709045EA0125801338000000000000
B0423533140367S11709081EA0125301331000000000000
B0423573140303S11709113EA0124001318000000000000
B0424013140238S11709137EA0122601305000000000000
B0424053140168S11709145EA0121501295000000000000
B0424093140101S11709149EA0121101294000000000000
B0424133140034S11709151EA0120801288000000000000
B0424173139968S11709156EA0120301281000000000000
B0424213139900S11709162EA0119401273000000000000
B0424253139833S11709164EA0118301261000000000000
B0424293139766S11709163EA0117001248000000000000
B0424333139700S11709156EA0115901235000000000000
B0424373139634S11709143EA0114701222000000000000
B0424413139571S11709126EA0113701213000000000000
B0424453139510S11709111EA0113101205000000000000
B0424493139452S11709102EA0112401200000000000000
B0424533139393S11709100EA0111601191000000000000
B0424573139335S11709099EA0111301192000000000000
B0425013139282S11709097EA0112401202000000000000
B0425053139232S11709090EA0112801207000000000000
B0425093139185S11709078EA0113901217000000000000
B0425133139142S11709045EA0114401227000000000000
B0425173139141S11708981EA0116101244000000000000
B0425213139192S11708961EA0117401252000000000000
B0425253139226S11709009EA0117801255000000000000
B0425293139217S11709069EA0118601267000000000000
B0425333139183S11709102EA0119701276000000000000
B0425373139135S11709103EA0119701274000000000000
B0425413139089S11709061EA0119401273000000000000
B0425453139071S11708991EA0120301286000000000000
B0425493139088S11708926EA0122201307000000000000
B0425533139131S11708886EA0124101321000000000000
B0425573139184S11708889EA0125001332000000000000
B0426013139217S11708934EA0125701338000000000000
B0426053139206S11708993EA0126101341000000000000
B0426093139161S11709009EA0126901349000000000000
B0426133139123S11708964EA0127501356000000000000
B0426173139122S11708896EA0128801370000000000000
B0426213139163S11708853EA0130401387000000000000
B0426253139214S11708868EA0131801395000000000000
B0426293139228S11708926EA0131801395000000000000
B0426333139194S11708970EA0131901399000000000000
B0426373139148S11708956EA0133101417000000000000
B0426413139124S11708904EA0134801427000000000000
B0426453139148S11708847EA0135401433000000000000
B0426493139201S11708827EA0136801448000000000000
B0426533139248S11708856EA0137901455000000000000
B0426573139267S11708915EA0138101456000000000000
B0427013139245S11708968EA0138401461000000000000
B0427053139201S11708968EA0139401471000000000000
B0427093139171S11708917EA0139601470000000000000
B0427133139189S11708850EA0139901480000000000000
B0427173139239S11708816EA0141301493000000000000
B0427213139293S11708821EA0141901497000000000000
B0427253139336S11708864EA0142001498000000000000
B0427293139341S11708928EA0141901494000000000000
B0427333139314S11708987EA0141501490000000000000
B0427373139280S11709046EA0140901483000000000000
B0427413139244S11709103EA0140501485000000000000
B0427453139206S11709160EA0140901489000000000000
B0427493139167S11709216EA0141201492000000000000
B0427533139129S11709275EA0141501489000000000000
B0427573139093S11709333EA0141601491000000000000
B0428013139059S11709392EA0142001497000000000000
B0428053139025S11709451EA0142201497000000000000
B0428093138989S11709513EA0142001494000000000000
B0428133138951S11709575EA0141501490000000000000
B0428173138911S11709633EA0141301487000000000000
B0428213138872S11709692EA0140901479000000000000
B0428253138834S11709754EA0140401476000000000000
B0428293138797S11709815EA0140101475000000000000
B0428333138756S11709874EA0140401481000000000000
B0428373138716S11709931EA0140401477000000000000
B0428413138677S11709991EA0139401466000000000000
B0428453138634S11710051EA0138501457000000000000
B0428493138590S11710109EA0137901453000000000000
B0428533138547S11710170EA0137401450000000000000
B0428573138505S11710231EA0137201444000000000000
B0429013138464S11710294EA0136701441000000000000
B0429053138425S11710355EA0136501439000000000000
B0429093138387S11710415EA0136201437000000000000
B0429133138347S11710473EA0136001435000000000000
B0429173138308S11710530EA0136001435000000000000
B0429213138271S11710588EA0135801434000000000000
B0429253138235S11710646EA0135801434000000000000
B0429293138197S11710702EA0135701429000000000000
B0429333138164S11710762EA0135101426000000000000
B0429373138128S11710822EA0134901423000000000000
B0429413138093S11710881EA0134701420000000000000
B0429453138057S11710943EA0134201418000000000000
B0429493138022S11711001EA0134301419000000000000
B0429533137988S11711058EA0134201418000000000000
B0429573137954S11711115EA0134301418000000000000
B0430013137919S11711169EA0134101413000000000000
B0430053137885S11711226EA0133501407000000000000
B0430093137854S11711287EA0133001405000000000000
B0430133137822S11711349EA0132901404000000000000
B0430173137792S11711411EA0132701403000000000000
B0430213137761S11711472EA0132701402000000000000
B0430253137729S11711534EA0132701402000000000000
B0430293137698S11711596EA0132601400000000000000
B0430333137666S11711656EA0132501398000000000000
B0430373137634S11711713EA0132101394000000000000
B0430413137601S11711769EA0131701391000000000000
B0430453137566S11711823EA0131401389000000000000
B0430493137534S11711877EA0131701391000000000000
B0430533137506S11711933EA0131901394000000000000
B0430573137478S11711988EA0131701391000000000000
B0431013137450S11712044EA0131901397000000000000
B0431053137417S11712094EA0132901407000000000000
B0431093137394S11712149EA0133801413000000000000
B0431133137399S11712207EA0133401406000000000000
B0431173137390S11712274EA0132701400000000000000
B0431213137361S11712339EA0132101393000000000000
B0431253137322S11712399EA0131701386000000000000
B0431293137285S11712460EA0130901382000000000000
B0431333137260S11712529EA0130401378000000000000
B0431373137252S11712603EA0129901370000000000000
B0431413137250S11712678EA0129101362000000000000
B0431453137246S11712753EA0128801360000000000000
B0431493137239S11712826EA0128701359000000000000
B0431533137234S11712896EA0128601358000000000000
B0431573137230S11712964EA0128601358000000000000
B0432013137239S11713030EA0128501357000000000000
B0432053137277S11713081EA0128401354000000000000
B0432093137337S11713103EA0127901351000000000000
B0432133137400S11713098EA0127601348000000000000
B0432173137463S11713076EA0127501346000000000000
B0432213137524S11713046EA0126701339000000000000
B0432253137589S11713033EA0126101334000000000000
B0432293137651S11713041EA0125801332000000000000
B0432333137714S11713059EA0125501325000000000000
B0432373137775S11713084EA0124801320000000000000
B0432413137833S11713108EA0124301319000000000000
B0432453137891S11713130EA0124401317000000000000
B0432493137948S11713153EA0124001315000000000000
B0432533138006S11713176EA0124001315000000000000
B0432573138062S11713198EA0123901313000000000000
B0433013138117S11713223EA0123501309000000000000
B0433053138173S11713247EA0122801302000000000000
B0433093138231S11713271EA0122401297000000000000
B0433133138288S11713292EA0121601289000000000000
B0433173138346S11713312EA0120801283000000000000
B0433213138400S11713337EA0120301276000000000000
B0433253138456S11713362EA0119301264000000000000
B0433293138516S11713385EA0118301256000000000000
B0433333138574S11713409EA0117401250000000000000
B0433373138633S11713433EA0116901241000000000000
B0433413138691S11713455EA0116201236000000000000
B0433453138749S11713478EA0115401226000000000000
B0433493138806S11713497EA0114501219000000000000
B0433533138864S11713514EA0114101216000000000000
B0433573138920S11713531EA0114601226000000000000
B0434013138971S11713548EA0116101242000000000000
B0434053139011S11713579EA0117601255000000000000
B0434093139016S11713635EA0118001257000000000000
B0434133138970S11713665EA0118101258000000000000
B0434173138916S11713627EA0118101262000000000000
B0434213138898S11713556EA0119001269000000000000
B0434253138921S11713493EA0120201282000000000000
B0434293138968S11713468EA0121101293000000000000
B0434333139007S11713497EA0122601312000000000000
B0434373139001S11713550EA0123701320000000000000
B0434413138949S11713565EA0123701319000000000000
B0434453138899S11713515EA0123801318000000000000
B0434493138889S11713440EA0124601332000000000000
B0434533138915S11713380EA0125901343000000000000
B0434573138960S11713348EA0126801352000000000000
B0435013139006S11713362EA0128101365000000000000
B0435053139018S11713414EA0129701381000000000000
B0435093138980S11713458EA0131101392000000000000
B0435133138918S11713453EA0131701398000000000000
B0435173138869S11713401EA0132301404000000000000
B0435213138858S11713328EA0133101412000000000000
B0435253138885S11713267EA0133601416000000000000
B0435293138934S11713238EA0133801417000000000000
B0435333138988S11713242EA0134201425000000000000
B0435373139028S11713279EA0135201435000000000000
B0435413139033S11713340EA0136701451000000000000
B0435453138994S11713385EA0138401465000000000000
B0435493138933S11713387EA0139301472000000000000
B0435533138885S11713333EA0139801476000000000000
B0435573138879S11713254EA0140601485000000000000
B0436013138915S11713194EA0141101489000000000000
B0436053138971S11713180EA0141601495000000000000
B0436093139015S11713216EA0141901499000000000000
B0436133139015S11713280EA0143001513000000000000
B0436173138966S11713306EA0144801532000000000000
B0436213138915S11713272EA0146701546000000000000
B0436253138892S11713208EA0148101557000000000000
B0436293138907S11713146EA0148801564000000000000
B0436333138947S11713112EA0149201565000000000000
B0436373138999S11713114EA0148901563000000000000
B0436413139041S11713151EA0149001567000000000000
B0436453139053S11713211EA0149701574000000000000
B0436493139019S11713264EA0150401584000000000000
B0436533138962S11713272EA0152001597000000000000
B0436573138910S11713232EA0153301611000000000000
B0437013138888S11713163EA0154801622000000000000
B0437053138902S11713095EA0155601631000000000000
B0437093138942S11713054EA0156101635000000000000
B0437133138996S11713050EA0155601628000000000000
B0437173139041S11713089EA0155301625000000000000
B0437213139068S11713150EA0155301629000000000000
B0437253139066S11713218EA0156101638000000000000
B0437293139025S11713254EA0157201646000000000000
B0437333138971S11713244EA0156901638000000000000
B0437373138923S11713193EA0156801642000000000000
B0437413138911S11713117EA0157701653000000000000
B0437453138941S11713056EA0158701663000000000000
B0437493138992S11713028EA0159201667000000000000
B0437533139046S11713032EA0159301661000000000000
B0437573139110S11713041EA0157701649000000000000
B0438013139180S11713047EA0157601648000000000000
B0438053139253S11713055EA0157301639000000000000
B0438093139328S11713063EA0156301631000000000000
B0438133139404S11713069EA0155801627000000000000
B0438173139480S11713080EA0155301622000000000000
B0438213139555S11713094EA0154601615000000000000
B0438253139626S11713108EA0154301615000000000000
B0438293139695S11713124EA0154501616000000000000
B0438333139763S11713140EA0154001606000000000000
B0438373139831S11713155EA0153101602000000000000
B0438413139900S11713171EA0152901600000000000000
B0438453139968S11713189EA0152701599000000000000
B0438493140034S11713210EA0153101604000000000000
B0438533140095S11713236EA0153301602000000000000
B0438573140158S11713259EA0152301592000000000000
B0439013140221S11713283EA0151001579000000000000
B0439053140288S11713306EA0150301572000000000000
B0439093140353S11713329EA0149901569000000000000
B0439133140414S11713364EA0149601565000000000000
B0439173140467S11713414EA0148801558000000000000
B0439213140517S11713471EA0148101552000000000000
B0439253140562S11713535EA0147601547000000000000
B0439293140605S11713600EA0146901540000000000000
B0439333140648S11713667EA0146301536000000000000
B0439373140688S11713735EA0146201532000000000000
B0439413140730S11713803EA0145601527000000000000
B0439453140771S11713870EA0145101522000000000000
B0439493140816S11713935EA0144601517000000000000
B0439533140860S11713999EA0144101513000000000000
B0439573140904S11714063EA0143401505000000000000
B0440013140951S11714128EA0142301495000000000000
B0440053140996S11714194EA0141801491000000000000
B0440093141039S11714258EA0142001493000000000000
B0440133141082S11714320EA0141801489000000000000
B0440173141122S11714384EA0141301486000000000000
B0440213141163S11714445EA0141001482000000000000
B0440253141206S11714501EA0140601478000000000000
B0440293141248S11714554EA0140401473000000000000
B0440333141297S11714603EA0139401465000000000000
B0440373141346S11714654EA0138501457000000000000
B0440413141395S11714705EA0138201455000000000000
B0440453141443S11714752EA0138001449000000000000
B0440493141494S11714801EA0137101442000000000000
B0440533141541S11714854EA0136601441000000000000
B0440573141586S11714906EA0137401450000000000000
B0441013141628S11714953EA0138301458000000000000
B0441053141666S11714995EA0138801462000000000000
B0441093141706S11715039EA0138501457000000000000
B0441133141740S11715090EA0138801465000000000000
B0441173141753S11715151EA0140001480000000000000
B0441213141713S11715197EA0141601496000000000000
B0441253141666S11715166EA0142801501000000000000
B0441293141661S11715100EA0143101505000000000000
B0441333141693S11715049EA0143501508000000000000
B0441373141744S11715035EA0143901515000000000000
B0441413141787S11715064EA0145601534000000000000
B0441453141807S11715118EA0147601556000000000000
B0441493141776S11715166EA0149901577000000000000
B0441533141720S11715161EA0150901583000000000000
B0441573141690S11715103EA0151601594000000000000
B0442013141713S11715049EA0153101608000000000000
B0442053141762S11715043EA0154101619000000000000
B0442093141791S11715092EA0155901642000000000000
B0442133141768S11715155EA0157901656000000000000
B0442173141710S11715179EA0158601659000000000000
B0442213141651S11715156EA0159401668000000000000
B0442253141615S11715101EA0160101671000000000000
B0442293141610S11715038EA0159401662000000000000
B0442333141646S11714993EA0158201649000000000000
B0442373141701S11714989EA0158001655000000000000
B0442413141755S11715010EA0158901665000000000000
B0442453141809S11715038EA0159901676000000000000
B0442493141865S11715065EA0160901682000000000000
B0442533141928S11715095EA0160101675000000000000
B0442573141997S11715129EA0160801682000000000000
B0443013142065S11715164EA0161701687000000000000
B0443053142135S11715199EA0161601686000000000000
B0443093142208S11715234EA0161601683000000000000
B0443133142285S11715269EA0160501674000000000000
B0443173142359S11715303EA0160501676000000000000
B0443213142430S11715337EA0160101671000000000000
B0443253142503S11715368EA0159501662000000000000
B0443293142578S11715400EA0158501655000000000000
B0443333142654S11715435EA0158101654000000000000
B0443373142727S11715470EA0157901651000000000000
B0443413142799S11715508EA0157701650000000000000
B0443453142871S11715541EA0157701651000000000000
B0443493142940S11715572EA0158001651000000000000
B0443533143007S11715600EA0157501647000000000000
B0443573143076S11715632EA0157201644000000000000
B0444013143143S11715663EA0156901640000000000000
B0444053143210S11715695EA0156101632000000000000
B0444093143279S11715725EA0155901631000000000000
B0444133143347S11715754EA0155601630000000000000
B0444173143412S11715782EA0155501627000000000000
B0444213143477S11715812EA0155201622000000000000
B0444253143544S11715840EA0154501617000000000000
B0444293143612S11715870EA0154101612000000000000
B0444333143681S11715898EA0153501606000000000000
B0444373143750S11715927EA0152901601000000000000
B0444413143819S11715953EA0152301598000000000000
B0444453143887S11715979EA0152101595000000000000
B0444493143955S11716002EA0151701591000000000000
B0444533144023S11716026EA0151501590000000000000
B0444573144089S11716046EA0151501589000000000000
B0445013144155S11716067EA0151201585000000000000
B0445053144220S11716089EA0150801579000000000000
B0445093144285S11716113EA0150101572000000000000
B0445133144349S11716137EA0149601570000000000000
B0445173144410S11716163EA0149201563000000000000
B0445213144472S11716187EA0148301558000000000000
B0445253144535S11716208EA0148001549000000000000
B0445293144600S11716228EA0146601535000000000000
B0445333144665S11716248EA0146001535000000000000
B0445373144725S11716266EA0147401552000000000000
B0445413144779S11716283EA0148001551000000000000
B0445453144835S11716301EA0148201560000000000000
B0445493144890S11716317EA0149401569000000000000
B0445533144946S11716335EA0150201577000000000000
B0445573145002S11716351EA0151401588000000000000
B0446013145048S11716313EA0151301585000000000000
B0446043145042S11716263EA0151401589000000000000
B0446093144974S11716244EA0151201585000000000000
B0446133144939S11716302EA0151201594000000000000
B0446173144956S11716367EA0153001613000000000000
B0446213145002S11716412EA0154401624000000000000
B0446253145060S11716434EA0155201627000000000000
B0446293145129S11716442EA0154301615000000000000
B0446333145203S11716452EA0152701601000000000000
B0446373145282S11716460EA0151201589000000000000
B0446413145359S11716468EA0150601585000000000000
B0446453145432S11716477EA0150401584000000000000
B0446493145502S11716486EA0150501582000000000000
B0446533145574S11716500EA0149701573000000000000
B0446573145645S11716513EA0148901564000000000000
B0447013145715S11716526EA0148401560000000000000
B0447053145780S11716536EA0147501551000000000000
B0447093145843S11716546EA0147401554000000000000
B0447133145899S11716539EA0147901553000000000000
B0447173145953S11716538EA0147201548000000000000
B0447213146008S11716555EA0147601555000000000000
B0447253146057S11716585EA0148401563000000000000
B0447293146103S11716616EA0149301569000000000000
B0447333146147S11716653EA0149301567000000000000
B0447373146195S11716695EA0148401552000000000000
B0447413146251S11716737EA0146501539000000000000
B0447453146309S11716774EA0145401526000000000000
B0447493146369S11716811EA0144001519000000000000
B0447533146428S11716843EA0143901519000000000000
B0447573146485S11716873EA0143901516000000000000
B0448013146542S11716900EA0143601514000000000000
B0448053146602S11716928EA0143101508000000000000
B0448093146662S11716958EA0142701507000000000000
B0448133146720S11716986EA0143101510000000000000
B0448173146780S11717011EA0143001509000000000000
B0448213146838S11717037EA0142801509000000000000
B0448253146896S11717063EA0143201510000000000000
B0448293146952S11717085EA0142701504000000000000
B0448333147007S11717108EA0141701494000000000000
B0448373147066S11717134EA0140501482000000000000
B0448413147127S11717159EA0140401485000000000000
B0448453147186S11717184EA0141201494000000000000
B0448493147241S11717207EA0142501507000000000000
B0448533147295S11717216EA0144401519000000000000
B0448573147348S11717209EA0144701521000000000000
B0449013147405S11717196EA0145001523000000000000
B0449053147448S11717147EA0146401539000000000000
B0449093147427S11717077EA0146901544000000000000
B0449133147368S11717072EA0147701550000000000000
B0449173147343S11717129EA0148101554000000000000
B0449213147370S11717185EA0148601559000000000000
B0449253147423S11717214EA0149201568000000000000
B0449293147482S11717210EA0150701588000000000000
B0449333147500S11717149EA0152401602000000000000
B0449373147457S11717103EA0153401611000000000000
B0449413147407S11717123EA0154101619000000000000
B0449453147397S11717177EA0155101628000000000000
B0449493147434S11717215EA0155801634000000000000
B0449533147486S11717222EA0156401638000000000000
B0449573147546S11717210EA0155701629000000000000
B0450013147613S11717196EA0154601619000000000000
B0450053147683S11717180EA0154101611000000000000
B0450093147755S11717168EA0153301606000000000000
B0450133147824S11717157EA0153101602000000000000
B0450173147891S11717145EA0152201595000000000000
B0450213147962S11717134EA0152101596000000000000
B0450253148031S11717120EA0152201594000000000000
B0450293148102S11717107EA0151501586000000000000
B0450333148175S11717098EA0151101583000000000000
B0450373148245S11717099EA0150501577000000000000
B0450413148315S11717111EA0150001569000000000000
B0450453148384S11717125EA0149201563000000000000
B0450493148453S11717138EA0148501554000000000000
B0450533148522S11717151EA0147801551000000000000
B0450573148586S11717168EA0147501548000000000000
B0451013148648S11717184EA0147501549000000000000
B0451053148708S11717202EA0147701551000000000000
B0451093148769S11717216EA0148001555000000000000
B0451133148831S11717218EA0148301558000000000000
B0451173148890S11717212EA0148901568000000000000
B0451213148944S11717192EA0149701573000000000000
B0451253148994S11717154EA0149901568000000000000
B0451293149050S11717125EA0149101563000000000000
B0451333149113S11717115EA0148401552000000000000
B0451373149182S11717114EA0147401543000000000000
B0451413149251S11717116EA0147301547000000000000
B0451453149319S11717124EA0147601550000000000000
B0451493149383S11717138EA0148401557000000000000
B0451533149448S11717149EA0148101551000000000000
B0451573149511S11717158EA0147901550000000000000
B0452013149575S11717167EA0147801549000000000000
B0452053149636S11717184EA0147901552000000000000
B0452093149697S11717206EA0147901551000000000000
B0452133149757S11717233EA0147601547000000000000
B0452173149815S11717263EA0147101543000000000000
B0452213149875S11717293EA0147001543000000000000
B0452253149936S11717319EA0147101544000000000000
B0452293149997S11717352EA0146401534000000000000
B0452333150056S11717394EA0145701527000000000000
B0452373150112S11717439EA0145301528000000000000
B0452413150165S11717485EA0145201526000000000000
B0452453150216S11717535EA0144701519000000000000
B0452493150268S11717584EA0144001510000000000000
B0452533150322S11717635EA0143201504000000000000
B0452573150376S11717686EA0142401499000000000000
B0453013150430S11717734EA0141501490000000000000
B0453053150485S11717782EA0141001481000000000000
B0453093150541S11717829EA0140301476000000000000
B0453133150594S11717873EA0140301481000000000000
B0453173150646S11717912EA0140701481000000000000
B0453213150696S11717950EA0141101491000000000000
B0453253150741S11717983EA0142001500000000000000
B0453293150787S11718017EA0143001507000000000000
B0453333150833S11718048EA0143601512000000000000
B0453373150880S11718081EA0144201518000000000000
B0453413150924S11718120EA0144801524000000000000
B0453453150978S11718148EA0145101526000000000000
B0453493151031S11718178EA0145201522000000000000
B0453533151082S11718221EA0143601505000000000000
B0453573151136S11718265EA0142301494000000000000
B0454013151197S11718303EA0141301486000000000000
B0454053151260S11718336EA0140701482000000000000
B0454093151322S11718367EA0140401481000000000000
B0454133151386S11718398EA0140101476000000000000
B0454173151450S11718427EA0139801471000000000000
B0454213151515S11718450EA0138901463000000000000
B0454253151580S11718468EA0138201453000000000000
B0454293151645S11718486EA0137601450000000000000
B0454333151706S11718506EA0138001460000000000000
B0454373151763S11718525EA0139001468000000000000
B0454413151819S11718549EA0139601475000000000000
B0454453151875S11718572EA0139601472000000000000
B0454493151933S11718596EA0139701473000000000000
B0454533151992S11718624EA0139201466000000000000
B0454573152051S11718661EA0138501459000000000000
B0455013152106S11718705EA0138101459000000000000
B0455053152155S11718752EA0138401463000000000000
B0455093152202S11718801EA0138801468000000000000
B0455133152246S11718849EA0140001483000000000000
B0455173152288S11718893EA0141701497000000000000
B0455213152336S11718927EA0142601503000000000000
B0455253152388S11718909EA0143401514000000000000
B0455293152402S11718843EA0144101514000000000000
B0455333152363S11718784EA0143901509000000000000
B0455373152302S11718774EA0143501506000000000000
B0455413152256S11718815EA0144401518000000000000
B0455453152245S11718880EA0145301529000000000000
B0455493152266S11718939EA0146001530000000000000
B0455533152313S11718977EA0146301538000000000000
B0455573152363S11718956EA0147401550000000000000
B0456013152369S11718889EA0147501548000000000000
B0456053152318S11718847EA0147701551000000000000
B0456093152262S11718867EA0148301558000000000000
B0456133152239S11718928EA0148801562000000000000
B0456173152266S11718986EA0149001565000000000000
B0456213152322S11719004EA0149401568000000000000
B0456253152373S11718969EA0150301580000000000000
B0456293152370S11718900EA0150901583000000000000
B0456333152318S11718857EA0151401589000000000000
B0456373152259S11718865EA0152301597000000000000
B0456413152218S11718912EA0152501600000000000000
B0456453152211S11718977EA0152701601000000000000
B0456493152240S11719035EA0152701601000000000000
B0456533152291S11719071EA0152701601000000000000
B0456573152350S11719097EA0152301594000000000000
B0457013152415S11719126EA0150901580000000000000
B0457053152483S11719153EA0150201577000000000000
B0457093152552S11719182EA0149501568000000000000
B0457133152622S11719212EA0148501558000000000000
B0457173152694S11719247EA0148001555000000000000
B0457213152766S11719283EA0148101557000000000000
B0457253152837S11719320EA0148601564000000000000
B0457293152904S11719355EA0149101568000000000000
B0457333152972S11719389EA0149301572000000000000
B0457373153038S11719422EA0149801572000000000000
B0457413153102S11719452EA0149501568000000000000
B0457453153166S11719482EA0149101564000000000000
B0457493153231S11719512EA0149201567000000000000
B0457533153294S11719546EA0149601572000000000000
B0457573153358S11719578EA0150401577000000000000
B0458013153420S11719612EA0150201574000000000000
B0458053153484S11719647EA0149201564000000000000
B0458093153546S11719686EA0148401556000000000000
B0458133153606S11719728EA0147501548000000000000
B0458173153666S11719770EA0146601538000000000000
B0458213153726S11719811EA0145701529000000000000
B0458253153783S11719854EA0145301527000000000000
B0458293153838S11719894EA0145301527000000000000
B0458333153894S11719935EA0144801520000000000000
B0458373153949S11719978EA0143601510000000000000
B0458413154008S11720020EA0143101505000000000000
B0458453154066S11720062EA0142501501000000000000
B0458493154125S11720101EA0142101499000000000000
B0458533154183S11720136EA0142501507000000000000
B0458573154239S11720170EA0143701516000000000000
B0459013154295S11720202EA0143901512000000000000
B0459053154356S11720232EA0143401508000000000000
B0459093154419S11720265EA0143101505000000000000
B0459133154481S11720296EA0143301509000000000000
B0459173154546S11720323EA0143401507000000000000
B0459213154612S11720351EA0143001504000000000000
B0459253154679S11720378EA0142701501000000000000
B0459293154744S11720410EA0142701496000000000000
B0459333154810S11720446EA0142701495000000000000
B0459373154872S11720482EA0142701495000000000000
B0459413154935S11720518EA0142001491000000000000
B0459453154995S11720557EA0141301487000000000000
B0459493155057S11720592EA0140501478000000000000
B0459533155122S11720626EA0139701471000000000000
B0459573155188S11720659EA0139101465000000000000
B0500013155255S11720689EA0138501460000000000000
B0500053155320S11720716EA0137701451000000000000
B0500093155385S11720745EA0137101444000000000000
B0500133155447S11720774EA0136801441000000000000
B0500173155508S11720803EA0136501439000000000000
B0500213155569S11720832EA0136201435000000000000
B0500253155633S11720858EA0135601430000000000000
B0500293155695S11720884EA0134801420000000000000
B0500333155759S11720910EA0134101413000000000000
B0500373155823S11720933EA0133601412000000000000
B0500413155884S11720958EA0133501410000000000000
B0500453155945S11720981EA0132901400000000000000
B0500493156007S11721003EA0131901391000000000000
B0500533156070S11721025EA0131001383000000000000
B0500573156133S11721047EA0130501376000000000000
B0501013156201S11721071EA0129601367000000000000
B0501053156270S11721096EA0128601361000000000000
B0501093156340S11721125EA0128801366000000000000
B0501133156406S11721158EA0129401372000000000000
B0501173156469S11721193EA0129801373000000000000
B0501213156533S11721226EA0129701371000000000000
B0501253156598S11721255EA0129601374000000000000
B0501293156661S11721283EA0130201380000000000000
B0501333156722S11721307EA0131201393000000000000
B0501373156782S11721328EA0132401402000000000000
B0501413156843S11721348EA0132201397000000000000
B0501453156908S11721363EA0132301405000000000000
B0501493156972S11721376EA0133101406000000000000
B0501533157038S11721388EA0132501394000000000000
B0501573157108S11721398EA0131201385000000000000
B0502013157177S11721409EA0130901384000000000000
B0502053157244S11721422EA0131201390000000000000
B0502093157309S11721434EA0131801392000000000000
B0502133157374S11721447EA0131201386000000000000
B0502173157441S11721460EA0130201372000000000000
B0502213157508S11721476EA0129501371000000000000
B0502253157570S11721493EA0129101365000000000000
B0502293157632S11721510EA0127901350000000000000
B0502333157699S11721528EA0126101331000000000000
B0502373157766S11721549EA0124401317000000000000
B0502413157833S11721574EA0123501311000000000000
B0502453157896S11721604EA0122801304000000000000
B0502493157960S11721634EA0122301296000000000000
B0502533158022S11721666EA0121101282000000000000
B0502573158090S11721684EA0119901275000000000000
B0503013158159S11721671EA0119701272000000000000
B0503053158223S11721639EA0119301269000000000000
B0503093158281S11721599EA0120101280000000000000
B0503133158332S11721549EA0121201291000000000000
B0503173158379S11721500EA0122401304000000000000
B0503213158423S11721452EA0123801317000000000000
B0503253158434S11721384EA0124401320000000000000
B0503293158377S11721344EA0123701315000000000000
B0503333158325S11721382EA0123201313000000000000
B0503373158329S11721445EA0123601317000000000000
B0503413158379S11721473EA0123801321000000000000
B0503453158441S11721471EA0124601329000000000000
B0503493158501S11721448EA0125501339000000000000
B0503533158557S11721414EA0126801351000000000000
B0503573158607S11721366EA0128101363000000000000
B0504013158600S11721298EA0128901373000000000000
B0504053158542S11721288EA0129001371000000000000
B0504093158512S11721348EA0129101373000000000000
B0504133158550S11721397EA0130801396000000000000
B0504173158611S11721398EA0132301406000000000000
B0504213158670S11721370EA0133501417000000000000
B0504253158687S11721301EA0134301429000000000000
B0504293158644S11721254EA0135601437000000000000
B0504333158593S11721278EA0135701431000000000000
B0504373158587S11721350EA0135701442000000000000
B0504413158626S11721405EA0137701457000000000000
B0504453158684S11721415EA0139601480000000000000
B0504493158730S11721371EA0141401494000000000000
B0504533158722S11721302EA0141801492000000000000
B0504573158666S11721287EA0141601491000000000000
B0505013158644S11721348EA0142501502000000000000
B0505053158684S11721391EA0144101518000000000000
B0505093158740S11721363EA0145501530000000000000
B0505133158752S11721292EA0145901532000000000000
B0505173158710S11721240EA0145701530000000000000
B0505213158658S11721262EA0146501544000000000000
B0505253158653S11721324EA0147801558000000000000
B0505293158696S11721361EA0149501573000000000000
B0505333158752S11721337EA0151101587000000000000
B0505373158766S11721272EA0151701590000000000000
B0505413158727S11721223EA0151401588000000000000
B0505453158680S11721252EA0151501592000000000000
B0505493158689S11721311EA0152901609000000000000
B0505533158736S11721346EA0154901625000000000000
B0505573158791S11721331EA0156101634000000000000
B0506013158810S11721267EA0155801627000000000000
B0506053158770S11721215EA0155201627000000000000
B0506093158723S11721242EA0155901636000000000000
B0506133158722S11721307EA0156501644000000000000
B0506173158754S11721369EA0156801643000000000000
B0506213158797S11721426EA0156601638000000000000
B0506253158844S11721483EA0155501619000000000000
B0506293158897S11721540EA0153501602000000000000
B0506333158953S11721599EA0151901586000000000000
B0506373159012S11721660EA0150301573000000000000
B0506413159070S11721721EA0150901582000000000000
B0506453159125S11721779EA0151501586000000000000
B0506493159178S11721843EA0151101577000000000000
B0506533159233S11721905EA0150901578000000000000
B0506573159286S11721972EA0149901565000000000000
B0507013159334S11722039EA0149101560000000000000
B0507053159383S11722106EA0148801557000000000000
B0507093159434S11722167EA0148701559000000000000
B0507133159484S11722223EA0149001560000000000000
B0507173159533S11722276EA0148801557000000000000
B0507213159585S11722329EA0148401552000000000000
B0507253159637S11722385EA0148701561000000000000
B0507293159688S11722437EA0150101575000000000000
B0507333159734S11722485EA0151501587000000000000
B0507373159783S11722531EA0152001591000000000000
B0507413159829S11722578EA0152701597000000000000
B0507453159879S11722630EA0152301588000000000000
B0507493159933S11722683EA0151701585000000000000
B0507533159989S11722735EA0151701583000000000000
B0507573200045S11722787EA0150801577000000000000
B0508013200097S11722840EA0151101584000000000000
B0508053200145S11722895EA0151901589000000000000
B0508093200196S11722948EA0151501581000000000000
B0508133200251S11723003EA0150901575000000000000
B0508173200308S11723060EA0150301571000000000000
B0508213200362S11723116EA0150201570000000000000
B0508253200418S11723173EA0149801563000000000000
B0508293200473S11723230EA0148801552000000000000
B0508333200529S11723287EA0147801545000000000000
B0508373200586S11723338EA0147801547000000000000
B0508413200642S11723387EA0147601543000000000000
B0508453200693S11723439EA0147101539000000000000
B0508493200737S11723497EA0147101540000000000000
B0508533200774S11723558EA0147201544000000000000
B0508573200812S11723618EA0148201556000000000000
B0509013200849S11723671EA0149201564000000000000
B0509053200882S11723725EA0149301562000000000000
B0509093200914S11723781EA0148801554000000000000
B0509133200954S11723837EA0148201551000000000000
B0509173201016S11723862EA0148201553000000000000
B0509213201088S11723846EA0147401541000000000000
B0509253201155S11723797EA0146801538000000000000
B0509293201216S11723732EA0146101532000000000000
B0509333201267S11723655EA0146101532000000000000
B0509373201300S11723573EA0145701529000000000000
B0509413201319S11723484EA0145901531000000000000
B0509453201339S11723397EA0146601539000000000000
B0509493201359S11723311EA0147501547000000000000
B0509533201380S11723229EA0147901548000000000000
B0509573201404S11723144EA0147401542000000000000
B0510013201426S11723056EA0146701535000000000000
B0510053201450S11722965EA0145601523000000000000
B0510093201476S11722874EA0144501512000000000000
B0510133201506S11722783EA0143301502000000000000
B0510173201539S11722692EA0142601494000000000000
B0510213201574S11722600EA0141901489000000000000
B0510253201608S11722510EA0141501485000000000000
B0510293201639S11722420EA0141001480000000000000
B0510333201665S11722332EA0140401475000000000000
B0510373201690S11722242EA0139801469000000000000
B0510413201714S11722152EA0139401464000000000000
B0510453201742S11722063EA0138701456000000000000
B0510493201768S11721970EA0138201451000000000000
B0510533201790S11721878EA0137301441000000000000
B0510573201812S11721785EA0136901442000000000000
B0511013201834S11721699EA0137301445000000000000
B0511053201855S11721617EA0137401445000000000000
B0511093201878S11721534EA0136901440000000000000
B0511133201902S11721447EA0135801426000000000000
B0511173201921S11721359EA0134501418000000000000
B0511213201937S11721271EA0133301404000000000000
B0511253201954S11721181EA0132201393000000000000
B0511293201970S11721092EA0131101383000000000000
B0511333201990S11721005EA0130601382000000000000
B0511373202004S11720923EA0130901383000000000000
B0511413202024S11720842EA0130701378000000000000
B0511453202041S11720760EA0130301374000000000000
B0511493202056S11720673EA0129301363000000000000
B0511533202071S11720583EA0128401354000000000000
B0511573202085S11720490EA0127001337000000000000
B0512013202095S11720392EA0125901326000000000000
B0512053202107S11720299EA0125301324000000000000
B0512093202121S11720212EA0125401325000000000000
B0512133202134S11720128EA0124901319000000000000
B0512173202152S11720043EA0124001309000000000000
B0512213202172S11719958EA0123101301000000000000
B0512253202190S11719875EA0121901289000000000000
B0512293202210S11719792EA0121201283000000000000
B0512333202230S11719710EA0120501274000000000000
B0512373202250S11719625EA0119301263000000000000
B0512413202267S11719543EA0118801259000000000000
B0512453202280S11719459EA0118601259000000000000
B0512493202286S11719373EA0118501257000000000000
B0512533202292S11719286EA0118501257000000000000
B0512573202272S11719205EA0119501272000000000000
B0513013202223S11719161EA0121201289000000000000
B0513053202175S11719179EA0122701303000000000000
B0513093202177S11719235EA0123201306000000000000
B0513133202234S11719248EA0123601313000000000000
B0513173202272S11719196EA0124901325000000000000
B0513213202251S11719134EA0125701328000000000000
B0513253202199S11719123EA0125801331000000000000
B0513293202169S11719174EA0126401338000000000000
B0513333202199S11719226EA0127001350000000000000
B0513373202255S11719218EA0128401362000000000000
B0513413202282S11719159EA0128801366000000000000
B0513453202258S11719096EA0129401370000000000000
B0513493202206S11719081EA0130101377000000000000
B0513533202171S11719118EA0130401381000000000000
B0513573202190S11719174EA0130901388000000000000
B0514013202246S11719186EA0132201401000000000000
B0514053202292S11719143EA0132901408000000000000
B0514093202290S11719073EA0133401412000000000000
B0514133202243S11719039EA0133501413000000000000
B0514173202195S11719062EA0134101422000000000000
B0514213202181S11719116EA0135501436000000000000
B0514253202211S11719160EA0136401444000000000000
B0514293202263S11719162EA0137601454000000000000
B0514333202306S11719117EA0137901456000000000000
B0514373202303S11719048EA0137901458000000000000
B0514413202258S11719010EA0138401463000000000000
B0514453202212S11719029EA0139201472000000000000
B0514493202208S11719083EA0139901478000000000000
B0514533202258S11719103EA0140501486000000000000
B0514573202305S11719056EA0141101490000000000000
B0515013202302S11718986EA0141701494000000000000
B0515053202255S11718944EA0141801490000000000000
B0515093202204S11718960EA0142301504000000000000
B0515133202193S11719010EA0144101517000000000000
B0515173202224S11719048EA0144801524000000000000
B0515213202281S11719036EA0145101525000000000000
B0515253202312S11718975EA0145601533000000000000
B0515293202299S11718910EA0146201539000000000000
B0515333202256S11718874EA0146601540000000000000
B0515373202207S11718884EA0146501540000000000000
B0515413202178S11718930EA0147301548000000000000
B0515453202189S11718979EA0147201543000000000000
B0515493202237S11719009EA0146501539000000000000
B0515533202298S11718991EA0147401550000000000000
B0515573202338S11718932EA0147601549000000000000
B0516013202357S11718853EA0147001542000000000000
B0516053202368S11718770EA0146501539000000000000
B0516093202376S11718687EA0146101532000000000000
B0516133202383S11718598EA0145501530000000000000
B0516173202390S11718510EA0145701531000000000000
B0516213202399S11718424EA0146201535000000000000
B0516253202409S11718340EA0146001533000000000000
B0516293202418S11718256EA0145601527000000000000
B0516333202429S11718173EA0144801520000000000000
B0516373202444S11718090EA0144201513000000000000
B0516413202462S11718008EA0143501506000000000000
B0516453202477S11717926EA0142701496000000000000
B0516493202494S11717843EA0141901492000000000000
B0516533202511S11717758EA0141201482000000000000
B0516573202529S11717671EA0140401478000000000000
B0517013202546S11717586EA0139801474000000000000
B0517053202566S11717498EA0139401469000000000000
B0517093202587S11717413EA0139001465000000000000
B0517133202607S11717328EA0138901462000000000000
B0517173202630S11717244EA0138101453000000000000
B0517213202652S11717158EA0137501449000000000000
B0517253202671S11717076EA0137401449000000000000
B0517293202691S11716995EA0137101444000000000000
B0517333202709S11716915EA0136301438000000000000
B0517373202724S11716835EA0136001434000000000000
B0517413202740S11716756EA0135701430000000000000
B0517453202754S11716677EA0135201421000000000000
B0517493202766S11716596EA0134201412000000000000
B0517533202776S11716518EA0133601410000000000000
B0517573202791S11716442EA0132901400000000000000
B0518013202804S11716362EA0132101393000000000000
B0518053202817S11716282EA0131401385000000000000
B0518093202834S11716200EA0130501377000000000000
B0518133202848S11716114EA0129501368000000000000
B0518173202864S11716028EA0128801362000000000000
B0518213202880S11715941EA0128201353000000000000
B0518253202900S11715854EA0127501348000000000000
B0518293202918S11715766EA0127101343000000000000
B0518333202938S11715677EA0126301334000000000000
B0518373202958S11715587EA0125401332000000000000
B0518413202979S11715500EA0125901336000000000000
B0518453203000S11715415EA0125901334000000000000
B0518493203021S11715330EA0125501331000000000000
B0518533203042S11715243EA0124901324000000000000
B0518573203064S11715156EA0124401318000000000000
B0519013203087S11715069EA0123701313000000000000
B0519053203108S11714980EA0123101303000000000000
B0519093203127S11714889EA0121801290000000000000
B0519133203131S11714797EA0120401278000000000000
B0519173203121S11714706EA0119501272000000000000
B0519213203104S11714618EA0119001267000000000000
B0519253203083S11714532EA0118301256000000000000
B0519293203061S11714446EA0117001245000000000000
B0519333203038S11714360EA0116501238000000000000
B0519373203016S11714274EA0115701233000000000000
B0519413202992S11714189EA0115501233000000000000
B0519453202970S11714105EA0116101238000000000000
B0519493202945S11714025EA0116501237000000000000
B0519533202919S11713947EA0116301236000000000000
B0519573202892S11713868EA0116201237000000000000
B0520013202865S11713792EA0116201233000000000000
B0520053202839S11713714EA0114301215000000000000
B0520093202809S11713635EA0113101205000000000000
B0520133202775S11713557EA0112901200000000000000
B0520173202740S11713481EA0112401199000000000000
B0520213202702S11713411EA0113501211000000000000
B0520253202649S11713368EA0114401225000000000000
B0520293202602S11713397EA0116701250000000000000
B0520333202622S11713452EA0118201263000000000000
B0520373202676S11713448EA0118801264000000000000
B0520413202704S11713385EA0118501260000000000000
B0520453202675S11713319EA0119001274000000000000
B0520493202630S11713331EA0121801301000000000000
B0520533202635S11713388EA0123301314000000000000
B0520573202685S11713410EA0124601325000000000000
B0521013202731S11713368EA0125001325000000000000
B0521053202724S11713296EA0124501318000000000000
B0521093202667S11713266EA0125301332000000000000
B0521133202622S11713301EA0126901355000000000000
B0521173202622S11713367EA0128901372000000000000
B0521213202670S11713407EA0130201381000000000000
B0521253202730S11713385EA0131001390000000000000
B0521293202753S11713319EA0131901395000000000000
B0521333202721S11713258EA0132001397000000000000
B0521373202666S11713258EA0133501414000000000000
B0521413202645S11713312EA0135301437000000000000
B0521453202675S11713367EA0137101449000000000000
B0521493202737S11713367EA0137601454000000000000
B0521533202774S11713306EA0138401463000000000000
B0521573202758S11713232EA0138801464000000000000
B0522013202704S11713214EA0139701478000000000000
B0522053202680S11713271EA0141601501000000000000
B0522093202721S11713316EA0143701517000000000000
B0522133202783S11713301EA0144601524000000000000
B0522173202817S11713234EA0144901525000000000000
B0522213202805S11713155EA0144701521000000000000
B0522253202754S11713104EA0145301529000000000000
B0522293202692S11713095EA0146001539000000000000
B0522333202636S11713124EA0147601558000000000000
B0522373202630S11713186EA0149501576000000000000
B0522413202682S11713216EA0151201588000000000000
B0522453202736S11713180EA0151401588000000000000
B0522493202739S11713106EA0151901595000000000000
B0522533202692S11713068EA0153201611000000000000
B0522573202648S11713098EA0155001629000000000000
B0523013202650S11713159EA0156301638000000000000
B0523053202704S11713182EA0157001642000000000000
B0523093202758S11713140EA0156901639000000000000
B0523133202767S11713060EA0156601640000000000000
B0523173202726S11713000EA0157101645000000000000
B0523213202667S11713002EA0158401662000000000000
B0523253202632S11713049EA0159801670000000000000
B0523293202630S11713112EA0159601667000000000000
B0523333202675S11713154EA0159701672000000000000
B0523373202739S11713151EA0160401675000000000000
B0523413202795S11713108EA0160401675000000000000
B0523453202834S11713037EA0160401673000000000000
B0523493202860S11712950EA0159701667000000000000
B0523533202884S11712856EA0158701652000000000000
B0523573202910S11712753EA0157201637000000000000
B0524013202942S11712647EA0156001628000000000000
B0524053202970S11712539EA0155701627000000000000
B0524093202996S11712431EA0155501623000000000000
B0524133203021S11712326EA0155001619000000000000
B0524173203046S11712222EA0154801618000000000000
B0524213203069S11712120EA0154501615000000000000
B0524253203092S11712019EA0153801606000000000000
B0524293203113S11711919EA0153301602000000000000
B0524333203131S11711821EA0153201604000000000000
B0524373203151S11711732EA0153901610000000000000
B0524413203170S11711648EA0154101611000000000000
B0524453203192S11711565EA0153801602000000000000
B0524493203216S11711477EA0152401590000000000000
B0524533203241S11711387EA0151801583000000000000
B0524573203264S11711295EA0151201579000000000000
B0525013203287S11711204EA0151001577000000000000
B0525053203309S11711115EA0151201581000000000000
B0525093203330S11711028EA0151301583000000000000
B0525133203350S11710948EA0151501584000000000000
B0525173203369S11710871EA0151601580000000000000
B0525213203393S11710792EA0150601572000000000000
B0525253203413S11710707EA0149701561000000000000
B0525293203436S11710623EA0149201560000000000000
B0525333203458S11710538EA0149201560000000000000
B0525373203477S11710451EA0149301565000000000000
B0525413203497S11710365EA0150001569000000000000
B0525453203516S11710280EA0150401577000000000000
B0525493203536S11710195EA0151801593000000000000
B0525533203554S11710111EA0152601593000000000000
B0525573203571S11710023EA0152601593000000000000
B0526013203588S11709934EA0151801581000000000000
B0526053203608S11709841EA0150501569000000000000
B0526093203636S11709749EA0149901567000000000000
B0526133203663S11709661EA0150101567000000000000
B0526173203692S11709571EA0148801554000000000000
B0526213203723S11709479EA0147701545000000000000
B0526253203751S11709383EA0146901534000000000000
B0526293203781S11709288EA0146201529000000000000
B0526333203809S11709191EA0145701525000000000000
B0526373203835S11709097EA0145401522000000000000
B0526413203862S11709003EA0145101519000000000000
B0526453203891S11708911EA0144401513000000000000
B0526493203919S11708820EA0144101513000000000000
B0526533203948S11708729EA0143301500000000000000
B0526573203974S11708634EA0142301488000000000000
B0527013204000S11708540EA0141301482000000000000
B0527053204024S11708447EA0140901480000000000000
B0527093204047S11708353EA0141001481000000000000
B0527133204070S11708261EA0140901476000000000000
B0527173204092S11708168EA0139601458000000000000
B0527213204114S11708072EA0138301451000000000000
B0527253204134S11707975EA0137901445000000000000
B0527293204157S11707876EA0136601430000000000000
B0527333204184S11707777EA0135001417000000000000
B0527373204212S11707680EA0134001408000000000000
B0527413204240S11707583EA0133101398000000000000
B0527453204268S11707490EA0132101390000000000000
B0527493204295S11707399EA0131201379000000000000
B0527533204322S11707308EA0130201370000000000000
B0527573204348S11707215EA0129001358000000000000
B0528013204378S11707123EA0128101349000000000000
B0528053204408S11707032EA0127301341000000000000
B0528093204438S11706941EA0126501332000000000000
B0528133204466S11706850EA0125601323000000000000
B0528173204498S11706760EA0125301326000000000000
B0528213204529S11706672EA0125701330000000000000
B0528253204556S11706585EA0126301336000000000000
B0528293204582S11706497EA0126501339000000000000
B0528333204604S11706411EA0127001340000000000000
B0528373204628S11706322EA0126001326000000000000
B0528413204654S11706231EA0124701315000000000000
B0528453204678S11706140EA0124001309000000000000
B0528493204703S11706049EA0123501304000000000000
B0528533204725S11705958EA0122901299000000000000
B0528573204746S11705871EA0123201307000000000000
B0529013204769S11705788EA0123601308000000000000
B0529053204793S11705705EA0123501307000000000000
B0529093204808S11705616EA0123201302000000000000
B0529133204815S11705525EA0123101304000000000000
B0529173204816S11705433EA0123001300000000000000
B0529213204814S11705340EA0122501293000000000000
B0529253204811S11705242EA0121101279000000000000
B0529293204811S11705141EA0119701264000000000000
B0529333204812S11705039EA0118101248000000000000
B0529373204811S11704938EA0116901238000000000000
B0529413204814S11704839EA0115901229000000000000
B0529453204819S11704743EA0115301227000000000000
B0529493204825S11704652EA0116001238000000000000
B0529533204830S11704566EA0117201249000000000000
B0529573204834S11704484EA0118401264000000000000
B0530013204837S11704411EA0119901270000000000000
B0530053204837S11704336EA0119201260000000000000
B0530093204824S11704258EA0118401254000000000000
B0530133204824S11704176EA0118101254000000000000
B0530173204833S11704094EA0118901268000000000000
B0530213204814S11704025EA0120501283000000000000
B0530253204758S11704015EA0121701293000000000000
B0530293204723S11704072EA0122201296000000000000
B0530333204737S11704142EA0122601303000000000000
B0530373204788S11704177EA0123901318000000000000
B0530413204838S11704154EA0124901323000000000000
B0530453204862S11704089EA0125001325000000000000
B0530493204847S11704016EA0125801335000000000000
B0530533204797S11703978EA0126401342000000000000
B0530573204741S11703998EA0127501355000000000000
B0531013204720S11704058EA0127901357000000000000
B0531053204751S11704118EA0127901358000000000000
B0531093204812S11704136EA0128901369000000000000
B0531133204869S11704106EA0130101380000000000000
B0531173204907S11704045EA0130401381000000000000
B0531213204934S11703969EA0130201375000000000000
B0531253204962S11703890EA0129701372000000000000
B0531293204988S11703807EA0129901376000000000000
B0531333205014S11703724EA0130301379000000000000
B0531373205041S11703635EA0130401382000000000000
B0531413205066S11703548EA0131601396000000000000
B0531453205089S11703466EA0132701403000000000000
B0531493205113S11703380EA0133001401000000000000
B0531533205137S11703291EA0132101392000000000000
B0531573205162S11703198EA0131501389000000000000
B0532013205189S11703107EA0131401388000000000000
B0532053205222S11703022EA0131501390000000000000
B0532093205256S11702940EA0132101396000000000000
B0532133205287S11702855EA0131801386000000000000
B0532173205319S11702766EA0130601373000000000000
B0532213205350S11702673EA0129501366000000000000
B0532253205382S11702584EA0129201364000000000000
B0532293205412S11702495EA0128801361000000000000
B0532333205438S11702404EA0128301352000000000000
B0532373205462S11702312EA0127301344000000000000
B0532413205488S11702221EA0126801340000000000000
B0532453205514S11702131EA0126601337000000000000
B0532493205543S11702043EA0126701343000000000000
B0532533205569S11701962EA0128601360000000000000
B0532573205591S11701887EA0129801376000000000000
B0533013205609S11701813EA0131501390000000000000
B0533053205621S11701739EA0133001406000000000000
B0533093205592S11701677EA0135101425000000000000
B0533133205540S11701689EA0136901444000000000000
B0533173205536S11701744EA0138701463000000000000
B0533213205578S11701775EA0139801476000000000000
B0533253205631S11701757EA0141201490000000000000
B0533293205656S11701697EA0142201499000000000000
B0533333205636S11701633EA0142701495000000000000
B0533373205579S11701616EA0140801480000000000000
B0533413205518S11701650EA0140901487000000000000
B0533453205475S11701702EA0142801510000000000000
B0533493205488S11701757EA0144901527000000000000
B0533533205540S11701774EA0145101521000000000000
B0533573205594S11701732EA0145201529000000000000
B0534013205614S11701659EA0146801545000000000000
B0534053205571S11701611EA0147101543000000000000
B0534093205521S11701645EA0147201551000000000000
B0534133205530S11701707EA0148801570000000000000
B0534173205584S11701715EA0150501584000000000000
B0534213205614S11701655EA0151601595000000000000
B0534253205577S11701606EA0152501600000000000000
B0534293205527S11701623EA0153101605000000000000
B0534333205531S11701683EA0153801617000000000000
B0534373205582S11701707EA0155201627000000000000
B0534413205633S11701670EA0155401625000000000000
B0534453205674S11701597EA0153201598000000000000
B0534493205716S11701508EA0150801579000000000000
B0534533205759S11701415EA0148501553000000000000
B0534573205805S11701320EA0147201545000000000000
B0535013205856S11701238EA0147801559000000000000
B0535053205904S11701165EA0148801563000000000000
B0535093205955S11701095EA0148801559000000000000
B0535133206007S11701022EA0148101554000000000000
B0535173206054S11700947EA0148901568000000000000
B0535213206097S11700875EA0151401596000000000000
B0535253206134S11700810EA0154201617000000000000
B0535293206169S11700745EA0155001619000000000000
B0535333206207S11700678EA0154701616000000000000
B0535373206250S11700606EA0154401612000000000000
B0535413206294S11700530EA0154001609000000000000
B0535453206344S11700452EA0153701604000000000000
B0535493206396S11700375EA0152801599000000000000
B0535533206449S11700296EA0152301591000000000000
B0535573206504S11700218EA0151201583000000000000
B0536013206554S11700141EA0151501588000000000000
B0536053206605S11700064EA0151901593000000000000
B0536093206657S11659990EA0152201594000000000000
B0536133206709S11659915EA0152401595000000000000
B0536173206760S11659837EA0152101589000000000000
B0536213206810S11659755EA0151101576000000000000
B0536253206864S11659670EA0149401562000000000000
B0536293206916S11659587EA0148401554000000000000
B0536333206964S11659504EA0147701550000000000000
B0536373207009S11659425EA0147501548000000000000
B0536413207051S11659349EA0148401558000000000000
B0536453207087S11659276EA0149001562000000000000
B0536493207120S11659204EA0149301569000000000000
B0536533207150S11659129EA0150401575000000000000
B0536573207180S11659051EA0149801566000000000000
B0537013207213S11658968EA0149301560000000000000
B0537053207250S11658885EA0149301566000000000000
B0537093207286S11658804EA0150301574000000000000
B0537133207321S11658725EA0151001581000000000000
B0537173207355S11658645EA0150801577000000000000
B0537213207386S11658556EA0150101571000000000000
B0537253207417S11658463EA0149701560000000000000
B0537293207447S11658364EA0148301546000000000000
B0537333207476S11658260EA0147001538000000000000
B0537373207501S11658156EA0146401534000000000000
B0537413207523S11658050EA0146301532000000000000
B0537453207542S11657945EA0145701526000000000000
B0537493207562S11657839EA0144901515000000000000
B0537533207585S11657735EA0144501514000000000000
B0537573207609S11657633EA0144601514000000000000
B0538013207632S11657534EA0144201510000000000000
B0538053207657S11657438EA0143601504000000000000
B0538093207681S11657342EA0143101496000000000000
B0538133207706S11657247EA0142201490000000000000
B0538173207729S11657150EA0141601484000000000000
B0538213207750S11657053EA0141001481000000000000
B0538253207771S11656958EA0140901477000000000000
B0538293207789S11656864EA0140301471000000000000
B0538333207804S11656770EA0139901466000000000000
B0538373207817S11656675EA0139101457000000000000
B0538413207828S11656581EA0138401450000000000000
B0538453207833S11656489EA0138101452000000000000
B0538493207802S11656410EA0138801457000000000000
B0538533207736S11656368EA0138201448000000000000
B0538573207657S11656375EA0137101439000000000000
B0539013207579S11656397EA0136101430000000000000
B0539053207499S11656420EA0135101421000000000000
B0539093207420S11656448EA0134301415000000000000
B0539133207342S11656477EA0133501408000000000000
B0539173207267S11656513EA0132501396000000000000
B0539213207189S11656549EA0131401382000000000000
B0539253207108S11656585EA0130301376000000000000
B0539293207027S11656620EA0129801373000000000000
B0539333206948S11656654EA0129901373000000000000
B0539373206870S11656689EA0129601371000000000000
B0539413206792S11656726EA0128901362000000000000
B0539453206717S11656765EA0128701362000000000000
B0539493206644S11656809EA0129001366000000000000
B0539533206575S11656849EA0128901366000000000000
B0539573206506S11656888EA0129501371000000000000
B0540013206440S11656927EA0129301366000000000000
B0540053206372S11656966EA0129501375000000000000
B0540093206306S11657000EA0131001387000000000000
B0540133206242S11657030EA0131601390000000000000
B0540173206177S11657060EA0130901380000000000000
B0540213206106S11657090EA0130301377000000000000
B0540253206033S11657120EA0130601384000000000000
B0540293205961S11657151EA0131601394000000000000
B0540333205891S11657179EA0132701407000000000000
B0540373205821S11657207EA0133201408000000000000
B0540413205750S11657237EA0133901417000000000000
B0540453205679S11657267EA0134401421000000000000
B0540493205609S11657295EA0134701423000000000000
B0540533205539S11657319EA0134401417000000000000
B0540573205470S11657343EA0133801412000000000000
B0541013205401S11657363EA0133701409000000000000
B0541053205332S11657381EA0133001401000000000000
B0541093205262S11657402EA0132101392000000000000
B0541133205192S11657421EA0131401386000000000000
B0541173205123S11657439EA0130601379000000000000
B0541213205053S11657455EA0130201374000000000000
B0541253204981S11657473EA0129301365000000000000
B0541293204908S11657491EA0128101352000000000000
B0541333204832S11657514EA0127201344000000000000
B0541373204755S11657536EA0126401337000000000000
B0541413204677S11657558EA0125601327000000000000
B0541453204598S11657580EA0124801320000000000000
B0541493204518S11657601EA0124001313000000000000
B0541533204439S11657623EA0123301305000000000000
B0541573204359S11657647EA0122201297000000000000
B0542013204278S11657673EA0121501291000000000000
B0542053204199S11657699EA0121101285000000000000
B0542093204122S11657727EA0120501282000000000000
B0542133204045S11657753EA0120401281000000000000
B0542173203971S11657776EA0120101275000000000000
B0542213203896S11657796EA0119201264000000000000
B0542253203819S11657814EA0117901251000000000000
B0542293203742S11657832EA0116501239000000000000
B0542333203667S11657852EA0115801231000000000000
B0542373203594S11657872EA0114901222000000000000
B0542413203523S11657892EA0114101215000000000000
B0542453203452S11657914EA0113101203000000000000
B0542493203380S11657933EA0112301195000000000000
B0542533203306S11657952EA0111801195000000000000
B0542573203231S11657971EA0112001196000000000000
B0543013203157S11657992EA0112101198000000000000
B0543053203087S11658022EA0112301199000000000000
B0543093203027S11658069EA0113101213000000000000
B0543133202986S11658132EA0114101219000000000000
B0543173202968S11658206EA0114101216000000000000
B0543213202939S11658283EA0113301210000000000000
B0543253202892S11658349EA0113501214000000000000
B0543293202834S11658405EA0113601212000000000000
B0543333202766S11658448EA0113701218000000000000
B0543373202700S11658486EA0115101235000000000000
B0543413202640S11658521EA0116501245000000000000
B0543453202581S11658559EA0117101248000000000000
B0543493202518S11658600EA0117201250000000000000
B0543533202457S11658645EA0117901255000000000000
B0543573202397S11658684EA0117901257000000000000
B0544013202333S11658719EA0118101256000000000000
B0544053202267S11658758EA0117701250000000000000
B0544093202199S11658795EA0117001248000000000000
B0544133202132S11658832EA0117101247000000000000
B0544173202064S11658867EA0116701241000000000000
B0544213201996S11658902EA0115601231000000000000
B0544253201928S11658937EA0114701220000000000000
B0544293201855S11658967EA0113401207000000000000
B0544333201774S11658977EA0112501201000000000000
B0544373201696S11658971EA0111901197000000000000
B0544413201621S11658955EA0111401192000000000000
B0544453201547S11658932EA0110801184000000000000
B0544493201476S11658899EA0110301177000000000000
B0544533201408S11658860EA0109201165000000000000
B0544573201341S11658815EA0108201159000000000000
B0545013201279S11658767EA0108101157000000000000
B0545053201220S11658719EA0107801156000000000000
B0545093201162S11658674EA0107501151000000000000
B0545133201101S11658637EA0107001148000000000000
B0545173201036S11658621EA0106901148000000000000
