ACAM4N6
HFDTE061213
HFFXA050
HFPLTPILOT:JOHN WELSH              
HFGTYGLIDERTYPE:HORNET      
HFGIDGLIDERID:VH-GMY      
HFDTM100GPSDATUM:
HFRFWFIRMWAREVERSION:F2.6
HFRHWHARDWAREVERSION:300 Series Version 2
HFFTYFRTYPE:CAMBRIDGE AERO INSTRUMENTS, 302+
HFGPS:GARMIN,LVS-25,12,18000
HFPRSPRESSALTSENSOR:INTERSEMA, MS5534-AP, 20000
I033638FXA3941ENL4247REX
LCAMSBVER:5FWVER:F26300
C061213023757061213000102
C0000000N00000000WTAKEOFF     
C3207549S11656849EBeverley AF 
C3017166S11639349EDalwallinu  
C3106849S11755332EKununoppin  
C3207549S11656849EBeverley AF 
C0000000N00000000WLANDING     
B0241273207737S11657096EA0025900215000000000000
B0241293207737S11657096EA0026000215000000000000
B0241313207737S11657096EA0025900215000000000000
B0241333207737S11657096EA0025900215000000000000
B0241353207737S11657096EA0025800215000000000000
B0241373207737S11657096EA0026000215000000000000
B0241393207737S11657096EA0026000215000000000000
B0241413207737S11657096EA0026000215000000000000
B0241433207737S11657096EA0025900215000000000000
B0241453207737S11657096EA0026000215000000000000
B0241473207737S11657096EA0025900215000000000000
B0241493207737S11657096EA0025800215000000000000
B0241513207737S11657096EA0025900215000000000000
B0241533207736S11657096EA0026000214000000000000
B0241553207733S11657095EA0026100214000000000000
B0241563207729S11657094EA0026100214000000000000
B0242003207707S11657085EA0026100213000000000000
B0242043207670S11657068EA0026400213000000000000
B0242083207623S11657038EA0026400212000000000000
B0242123207570S11657000EA0026500212000000000000
B0242163207510S11656968EA0027000216000000000000
B0242203207447S11656936EA0027800227000000000000
B0242243207386S11656901EA0028800240000000000000
B0242283207326S11656870EA0031100267000000000000
B0242323207267S11656843EA0032800285000000000000
B0242363207212S11656813EA0035300311000000000000
B0242403207165S11656767EA0037300329000000000000
B0242443207122S11656715EA0038500340000000000000
B0242483207089S11656653EA0039400350000000000000
B0242523207063S11656580EA0040400361000000000000
B0242563207044S11656500EA0041600376000000000000
B0243003207029S11656415EA0043200395000000000000
B0243043207016S11656323EA0043700410000000000000
B0243083207011S11656224EA0044900419000000000000
B0243123207022S11656128EA0046500440000000000000
B0243163207055S11656038EA0048700460000000000000
B0243203207105S11655960EA0050700479000000000000
B0243243207167S11655886EA0051800488000000000000
B0243283207234S11655813EA0052200493000000000000
B0243323207304S11655743EA0052800499000000000000
B0243363207385S11655691EA0053900513000000000000
B0243403207472S11655662EA0055300526000000000000
B0243443207564S11655665EA0056300535000000000000
B0243483207653S11655699EA0057100541000000000000
B0243523207722S11655769EA0057400543000000000000
B0243563207765S11655853EA0057900550000000000000
B0244003207781S11655938EA0059200563000000000000
B0244043207776S11656019EA0060300577000000000000
B0244083207753S11656094EA0061500590000000000000
B0244123207722S11656165EA0062500602000000000000
B0244163207685S11656234EA0064000620000000000000
B0244203207661S11656307EA0066000642000000000000
B0244243207645S11656388EA0068000661000000000000
B0244283207629S11656471EA0069500676000000000000
B0244323207615S11656559EA0070700690000000000000
B0244363207612S11656649EA0072700709000000000000
B0244403207618S11656740EA0074700729000000000000
B0244443207619S11656828EA0076400748000000000000
B0244483207619S11656914EA0079000776000000000000
B0244523207615S11656999EA0081800802000000000000
B0244563207633S11657081EA0083100816000000000000
B0245003207703S11657124EA0084700831000000000000
B0245043207783S11657104EA0084900832000000000000
B0245083207826S11657038EA0084400824000000000000
B0245123207814S11656973EA0083400811000000000000
B0245163207772S11656938EA0082300803000000000000
B0245203207720S11656921EA0082400806000000000000
B0245243207671S11656932EA0083300815000000000000
B0245283207680S11656997EA0085300836000000000000
B0245323207749S11657025EA0085900836000000000000
B0245363207819S11656982EA0084900832000000000000
B0245403207832S11656905EA0085600840000000000000
B0245443207806S11656852EA0086800854000000000000
B0245483207766S11656831EA0087500857000000000000
B0245523207739S11656867EA0087800865000000000000
B0245563207762S11656921EA0088300861000000000000
B0246003207831S11656944EA0087700859000000000000
B0246043207896S11656904EA0088200863000000000000
B0246083207909S11656831EA0088200865000000000000
B0246123207874S11656792EA0089100875000000000000
B0246163207846S11656832EA0089400875000000000000
B0246203207876S11656895EA0088600868000000000000
B0246243207953S11656908EA0088800876000000000000
B0246283208013S11656852EA0089900885000000000000
B0246323208014S11656778EA0090500892000000000000
B0246363207974S11656745EA0091000893000000000000
B0246403207941S11656779EA0091100894000000000000
B0246443207952S11656843EA0090300883000000000000
B0246483208014S11656884EA0089900883000000000000
B0246523208096S11656862EA0090200886000000000000
B0246563208143S11656789EA0090600895000000000000
B0247003208139S11656717EA0091500904000000000000
B0247043208097S11656692EA0091700900000000000000
B0247083208069S11656730EA0091200894000000000000
B0247123208086S11656795EA0090300883000000000000
B0247163208157S11656825EA0089700879000000000000
B0247203208229S11656783EA0089800886000000000000
B0247243208260S11656705EA0090200890000000000000
B0247283208268S11656622EA0090800897000000000000
B0247323208255S11656549EA0091200898000000000000
B0247363208213S11656520EA0090400885000000000000
B0247403208181S11656554EA0089500875000000000000
B0247443208162S11656607EA0088400861000000000000
B0247483208117S11656623EA0087600855000000000000
B0247523208071S11656593EA0086900849000000000000
B0247563208038S11656529EA0086200845000000000000
B0248003208010S11656455EA0085700837000000000000
B0248043207983S11656379EA0084300821000000000000
B0248083207944S11656308EA0082300800000000000000
B0248123207891S11656256EA0081300795000000000000
B0248163207831S11656241EA0081000791000000000000
B0248203207774S11656263EA0080200782000000000000
B0248243207722S11656303EA0079000771000000000000
B0248283207671S11656346EA0078300762000000000000
B0248323207623S11656394EA0078000763000000000000
B0248363207583S11656450EA0078200767000000000000
B0248403207537S11656494EA0077900755000000000000
B0248443207480S11656501EA0077600755000000000000
B0248483207423S11656506EA0077300752000000000000
B0248523207367S11656515EA0077100750000000000000
B0248563207313S11656529EA0076700745000000000000
B0249003207261S11656552EA0076600743000000000000
B0249043207212S11656578EA0076600745000000000000
B0249083207168S11656611EA0076500741000000000000
B0249123207126S11656652EA0075600730000000000000
B0249163207082S11656688EA0074500718000000000000
B0249203207038S11656728EA0073600709000000000000
B0249243206992S11656773EA0072500701000000000000
B0249283206952S11656818EA0073000705000000000000
B0249323206917S11656865EA0072800701000000000000
B0249363206886S11656913EA0072700700000000000000
B0249403206852S11656958EA0072800698000000000000
B0249443206812S11656999EA0072200689000000000000
B0249483206769S11657046EA0070800677000000000000
B0249523206739S11657108EA0070500678000000000000
B0249563206709S11657166EA0071100684000000000000
B0250003206676S11657218EA0070800676000000000000
B0250043206640S11657269EA0069700665000000000000
B0250083206595S11657307EA0068900658000000000000
B0250123206550S11657346EA0068500654000000000000
B0250163206510S11657391EA0067500637000000000000
B0250203206457S11657421EA0065000612000000000000
B0250243206392S11657408EA0063300598000000000000
B0250283206341S11657356EA0063100598000000000000
B0250323206305S11657289EA0062900593000000000000
B0250363206284S11657208EA0061800584000000000000
B0250403206277S11657121EA0062100592000000000000
B0250443206273S11657035EA0062700598000000000000
B0250483206234S11656983EA0063600608000000000000
B0250523206211S11657029EA0064800621000000000000
B0250563206260S11657082EA0065100624000000000000
B0251003206329S11657062EA0065600633000000000000
B0251043206355S11656995EA0066400639000000000000
B0251083206327S11656938EA0066700640000000000000
B0251123206284S11656945EA0067400654000000000000
B0251163206285S11657004EA0068300658000000000000
B0251203206341S11657052EA0067800651000000000000
B0251243206416S11657042EA0068300662000000000000
B0251283206446S11656979EA0069700675000000000000
B0251323206416S11656926EA0070100676000000000000
B0251363206376S11656945EA0070100675000000000000
B0251403206397S11657017EA0070000676000000000000
B0251443206461S11657060EA0070500681000000000000
B0251483206526S11657033EA0071000686000000000000
B0251523206518S11656968EA0071600690000000000000
B0251563206468S11656957EA0071800692000000000000
B0252003206452S11657017EA0072600700000000000000
B0252043206489S11657081EA0072700702000000000000
B0252083206561S11657101EA0073000707000000000000
B0252123206614S11657051EA0073400711000000000000
B0252163206592S11656990EA0074000717000000000000
B0252203206545S11656997EA0074600725000000000000
B0252243206540S11657060EA0075600731000000000000
B0252283206591S11657113EA0075000728000000000000
B0252323206665S11657114EA0075600736000000000000
B0252363206721S11657068EA0075800735000000000000
B0252403206736S11656996EA0075700737000000000000
B0252443206700S11656949EA0076300741000000000000
B0252483206660S11656977EA0077200752000000000000
B0252523206666S11657044EA0077400751000000000000
B0252563206721S11657099EA0076900749000000000000
B0253003206796S11657094EA0077400753000000000000
B0253043206845S11657038EA0077400753000000000000
B0253083206843S11656965EA0077400758000000000000
B0253123206804S11656922EA0078100761000000000000
B0253163206764S11656951EA0078700771000000000000
B0253203206780S11657016EA0079500776000000000000
B0253243206844S11657052EA0079300772000000000000
B0253283206909S11657017EA0079100777000000000000
B0253323206905S11656956EA0080500790000000000000
B0253363206864S11656936EA0080400784000000000000
B0253403206838S11656986EA0080700791000000000000
B0253443206877S11657048EA0080600785000000000000
B0253483206952S11657059EA0080500788000000000000
B0253523207005S11657009EA0081000793000000000000
B0253563206992S11656943EA0081000790000000000000
B0254003206944S11656930EA0080800786000000000000
B0254043206909S11656978EA0080700790000000000000
B0254083206916S11657047EA0081100792000000000000
B0254123206965S11657105EA0080600787000000000000
B0254163207033S11657140EA0080400786000000000000
B0254203207105S11657124EA0080200783000000000000
B0254243207144S11657056EA0079800779000000000000
B0254283207134S11656981EA0079000772000000000000
B0254323207098S11656913EA0078200766000000000000
B0254363207051S11656851EA0077800760000000000000
B0254403206998S11656838EA0078300765000000000000
B0254443206972S11656897EA0078500764000000000000
B0254483207007S11656966EA0078400762000000000000
B0254523207081S11656987EA0078100757000000000000
B0254563207146S11656945EA0077600752000000000000
B0255003207164S11656871EA0076600744000000000000
B0255043207141S11656804EA0075300731000000000000
B0255083207098S11656750EA0073800717000000000000
B0255123207044S11656709EA0072700705000000000000
B0255163206985S11656680EA0071800698000000000000
B0255203206923S11656659EA0071500697000000000000
B0255243206864S11656641EA0071200691000000000000
B0255283206805S11656632EA0070800690000000000000
B0255323206749S11656632EA0071100691000000000000
B0255363206696S11656636EA0070700684000000000000
B0255403206640S11656639EA0069900674000000000000
B0255443206587S11656646EA0070200683000000000000
B0255483206536S11656663EA0069600667000000000000
B0255523206480S11656662EA0068300658000000000000
B0255563206426S11656652EA0068100657000000000000
B0256003206374S11656654EA0067900655000000000000
B0256043206325S11656667EA0067700652000000000000
B0256083206277S11656680EA0067100646000000000000
B0256123206231S11656700EA0066200636000000000000
B0256163206184S11656721EA0065600631000000000000
B0256203206138S11656740EA0065500630000000000000
B0256243206094S11656761EA0065800634000000000000
B0256283206051S11656788EA0066100639000000000000
B0256323206004S11656792EA0066900641000000000000
B0256363205989S11656718EA0067500649000000000000
B0256403206050S11656656EA0068500662000000000000
B0256443206130S11656659EA0069100668000000000000
B0256483206181S11656709EA0069000666000000000000
B0256523206193S11656769EA0069400672000000000000
B0256563206169S11656805EA0070200680000000000000
B0257003206140S11656758EA0071000687000000000000
B0257043206181S11656688EA0071500691000000000000
B0257083206263S11656679EA0071500694000000000000
B0257123206312S11656724EA0072100703000000000000
B0257163206302S11656770EA0072900710000000000000
B0257203206263S11656745EA0073400714000000000000
B0257243206277S11656665EA0074400726000000000000
B0257283206348S11656620EA0075300734000000000000
B0257323206415S11656643EA0075600737000000000000
B0257363206428S11656700EA0076000738000000000000
B0257403206390S11656721EA0076500747000000000000
B0257443206359S11656667EA0077400755000000000000
B0257483206390S11656587EA0077900757000000000000
B0257523206468S11656550EA0078400764000000000000
B0257563206533S11656584EA0078800771000000000000
B0258003206541S11656640EA0079600774000000000000
B0258043206502S11656659EA0079700780000000000000
B0258083206470S11656610EA0081200793000000000000
B0258123206494S11656532EA0081900798000000000000
B0258163206566S11656484EA0081800796000000000000
B0258203206648S11656493EA0081900800000000000000
B0258243206697S11656542EA0082600807000000000000
B0258283206699S11656597EA0083000811000000000000
B0258323206663S11656620EA0083400816000000000000
B0258363206623S11656588EA0084200831000000000000
B0258403206619S11656516EA0085900842000000000000
B0258443206660S11656445EA0085800833000000000000
B0258483206738S11656412EA0084800834000000000000
B0258523206801S11656446EA0085900847000000000000
B0258563206801S11656496EA0086600850000000000000
B0259003206761S11656490EA0086900853000000000000
B0259043206757S11656411EA0087800864000000000000
B0259083206827S11656371EA0088600870000000000000
B0259123206882S11656416EA0088400870000000000000
B0259163206869S11656467EA0089400883000000000000
B0259203206825S11656461EA0090500892000000000000
B0259243206799S11656396EA0090800890000000000000
B0259283206831S11656312EA0090200887000000000000
B0259323206914S11656279EA0090000885000000000000
B0259363206998S11656297EA0090100889000000000000
B0259403207048S11656349EA0090900897000000000000
B0259443207029S11656381EA0092000910000000000000
B0259483206998S11656336EA0092800915000000000000
B0259523207014S11656254EA0093500923000000000000
B0259563207082S11656204EA0094000925000000000000
B0300003207152S11656224EA0093600921000000000000
B0300043207165S11656284EA0093700923000000000000
B0300083207126S11656295EA0094500933000000000000
B0300123207094S11656240EA0095700945000000000000
B0300163207104S11656155EA0095700941000000000000
B0300203207163S11656084EA0095600942000000000000
B0300243207245S11656060EA0095600941000000000000
B0300283207325S11656081EA0095200939000000000000
B0300323207385S11656129EA0095300939000000000000
B0300363207390S11656186EA0095100938000000000000
B0300403207354S11656208EA0094900934000000000000
B0300443207308S11656173EA0095000941000000000000
B0300483207269S11656116EA0095700943000000000000
B0300523207226S11656108EA0096500953000000000000
B0300563207208S11656159EA0096600952000000000000
B0301003207229S11656228EA0096400950000000000000
B0301043207287S11656282EA0096500952000000000000
B0301083207364S11656302EA0097300960000000000000
B0301123207442S11656273EA0097700966000000000000
B0301163207493S11656202EA0098200970000000000000
B0301203207507S11656113EA0098400976000000000000
B0301243207484S11656048EA0099200984000000000000
B0301283207446S11656034EA0100100990000000000000
B0301323207420S11656069EA0100100986000000000000
B0301363207419S11656133EA0099200981000000000000
B0301403207447S11656201EA0099200984000000000000
B0301443207502S11656256EA0099500985000000000000
B0301483207579S11656280EA0099300980000000000000
B0301523207658S11656254EA0099000981000000000000
B0301563207707S11656180EA0099500990000000000000
B0302003207716S11656099EA0100701000000000000000
B0302043207683S11656061EA0101601008000000000000
B0302083207662S11656094EA0102601020000000000000
B0302123207701S11656146EA0103001019000000000000
B0302163207778S11656150EA0103201026000000000000
B0302203207833S11656086EA0104201036000000000000
B0302243207832S11656008EA0104701039000000000000
B0302283207793S11655980EA0105701050000000000000
B0302323207772S11656020EA0106401058000000000000
B0302363207796S11656080EA0106901065000000000000
B0302403207863S11656111EA0107501068000000000000
B0302443207941S11656076EA0107501073000000000000
B0302483207982S11655995EA0108301085000000000000
B0302523207973S11655913EA0109001089000000000000
B0302563207931S11655879EA0110101101000000000000
B0303003207906S11655915EA0111401112000000000000
B0303043207930S11655974EA0111801119000000000000
B0303083207996S11656011EA0112701126000000000000
B0303123208079S11656004EA0113201134000000000000
B0303163208145S11655946EA0114801151000000000000
B0303203208170S11655869EA0116001161000000000000
B0303243208155S11655803EA0116301164000000000000
B0303283208117S11655778EA0116901170000000000000
B0303323208087S11655799EA0117601180000000000000
B0303363208087S11655852EA0118401184000000000000
B0303403208129S11655908EA0119001195000000000000
B0303443208200S11655929EA0120001202000000000000
B0303483208277S11655899EA0120501211000000000000
B0303523208325S11655827EA0121401219000000000000
B0303563208331S11655744EA0122201226000000000000
B0304003208301S11655687EA0122401230000000000000
B0304043208260S11655677EA0123101241000000000000
B0304083208240S11655718EA0124401250000000000000
B0304123208260S11655781EA0124801254000000000000
B0304163208321S11655827EA0125501262000000000000
B0304203208402S11655833EA0126201269000000000000
B0304243208474S11655788EA0127301282000000000000
B0304283208519S11655710EA0128001289000000000000
B0304323208526S11655625EA0128701295000000000000
B0304363208499S11655561EA0129301302000000000000
B0304403208457S11655541EA0130001310000000000000
B0304443208426S11655570EA0130601314000000000000
B0304483208424S11655631EA0130801315000000000000
B0304523208463S11655696EA0131001322000000000000
B0304563208538S11655730EA0132201332000000000000
B0305003208623S11655720EA0133201341000000000000
B0305043208697S11655669EA0134201352000000000000
B0305083208745S11655590EA0135101361000000000000
B0305123208759S11655502EA0135401360000000000000
B0305163208745S11655426EA0135401366000000000000
B0305203208708S11655385EA0136601379000000000000
B0305243208678S11655400EA0137801386000000000000
B0305283208678S11655457EA0137401381000000000000
B0305323208721S11655517EA0137901391000000000000
B0305363208794S11655541EA0139301405000000000000
B0305403208871S11655519EA0140601418000000000000
B0305443208931S11655458EA0141501425000000000000
B0305483208950S11655378EA0141201421000000000000
B0305523208927S11655317EA0141001420000000000000
B0305563208886S11655305EA0141701430000000000000
B0306003208872S11655346EA0142501437000000000000
B0306043208901S11655405EA0142501435000000000000
B0306083208968S11655443EA0142601437000000000000
B0306123209057S11655432EA0143201448000000000000
B0306313209127S11655375EA0144801462000000000000
B0306353209156S11655296EA0145201463000000000000
B0306393209136S11655232EA0144801457000000000000
B0306433209091S11655201EA0144101452000000000000
B0306473209050S11655210EA0145601470000000000000
B0306513209049S11655265EA0146501475000000000000
B0306553209102S11655314EA0146701482000000000000
B0306593209183S11655309EA0147701491000000000000
B0307033209254S11655252EA0147901493000000000000
B0307073209296S11655168EA0148201493000000000000
B0307113209292S11655086EA0147501487000000000000
B0307153209258S11655028EA0147201488000000000000
B0307193209214S11655011EA0147801493000000000000
B0307233209196S11655062EA0147901494000000000000
B0307273209234S11655129EA0147501490000000000000
B0307313209314S11655159EA0148001498000000000000
B0307353209404S11655151EA0148701509000000000000
B0307393209481S11655105EA0149701515000000000000
B0307433209510S11655020EA0149501508000000000000
B0307473209487S11654954EA0149101507000000000000
B0307513209445S11654945EA0149101508000000000000
B0307553209405S11654962EA0149201510000000000000
B0307593209366S11654988EA0149201509000000000000
B0308033209332S11655024EA0148701503000000000000
B0308073209299S11655067EA0148001499000000000000
B0308113209267S11655115EA0148001500000000000000
B0308153209232S11655161EA0147901496000000000000
B0308193209197S11655210EA0147401493000000000000
B0308233209174S11655268EA0147401494000000000000
B0308273209156S11655327EA0147401490000000000000
B0308313209120S11655374EA0146701481000000000000
B0308353209072S11655396EA0146401478000000000000
B0308393209016S11655401EA0145601472000000000000
B0308433208957S11655395EA0145501476000000000000
B0308473208909S11655409EA0146801495000000000000
B0308513208922S11655469EA0149101508000000000000
B0308553209001S11655487EA0148501500000000000000
B0308593209080S11655437EA0148401505000000000000
B0309033209119S11655356EA0149401518000000000000
B0309073209105S11655284EA0150201523000000000000
B0309113209059S11655253EA0149901517000000000000
B0309153209015S11655272EA0150401526000000000000
B0309193209032S11655337EA0151701538000000000000
B0309233209110S11655357EA0151801536000000000000
B0309273209180S11655302EA0151701536000000000000
B0309313209191S11655222EA0152001536000000000000
B0309353209150S11655179EA0151601534000000000000
B0309393209097S11655174EA0151101532000000000000
B0309433209045S11655183EA0151301537000000000000
B0309473208996S11655197EA0151901540000000000000
B0309513208946S11655216EA0152701548000000000000
B0309553208899S11655240EA0152101538000000000000
B0309593208853S11655266EA0151201532000000000000
B0310033208806S11655292EA0151001527000000000000
B0310073208753S11655306EA0150501528000000000000
B0310113208698S11655311EA0151101535000000000000
B0310153208645S11655314EA0152101542000000000000
B0310193208591S11655309EA0152601546000000000000
B0310233208538S11655302EA0152801547000000000000
B0310273208485S11655298EA0152701546000000000000
B0310313208431S11655293EA0152101537000000000000
B0310353208373S11655291EA0150401519000000000000
B0310393208309S11655296EA0148801503000000000000
B0310433208243S11655293EA0147801493000000000000
B0310473208178S11655289EA0147001484000000000000
B0310513208113S11655294EA0145501466000000000000
B0310553208044S11655306EA0143901450000000000000
B0310593207974S11655317EA0143101451000000000000
B0311033207908S11655332EA0143101446000000000000
B0311073207840S11655344EA0141601428000000000000
B0311113207768S11655359EA0140001414000000000000
B0311153207698S11655378EA0139401407000000000000
B0311193207627S11655374EA0138801404000000000000
B0311233207557S11655365EA0138601400000000000000
B0311273207486S11655356EA0137601385000000000000
B0311313207414S11655343EA0136201378000000000000
B0311353207345S11655333EA0136201377000000000000
B0311393207278S11655328EA0135701371000000000000
B0311433207212S11655327EA0135101364000000000000
B0311473207148S11655330EA0134701359000000000000
B0311513207087S11655336EA0134501357000000000000
B0311553207027S11655344EA0134101350000000000000
B0311593206965S11655348EA0133101341000000000000
B0312033206904S11655359EA0132501336000000000000
B0312073206843S11655375EA0131801326000000000000
B0312113206778S11655382EA0130701317000000000000
B0312153206712S11655382EA0129801310000000000000
B0312193206648S11655374EA0129101303000000000000
B0312233206584S11655367EA0128501296000000000000
B0312273206523S11655371EA0128001286000000000000
B0312313206462S11655393EA0127301282000000000000
B0312353206401S11655413EA0127201282000000000000
B0312393206345S11655422EA0127801289000000000000
B0312433206293S11655423EA0127701283000000000000
B0312473206240S11655431EA0126401267000000000000
B0312513206188S11655453EA0125801263000000000000
B0312553206137S11655486EA0125101256000000000000
B0312593206084S11655518EA0123801243000000000000
B0313033206028S11655545EA0122801230000000000000
B0313073205972S11655573EA0121901223000000000000
B0313113205917S11655597EA0121101211000000000000
B0313153205856S11655593EA0119601196000000000000
B0313193205799S11655560EA0118501182000000000000
B0313233205751S11655501EA0117101170000000000000
B0313273205716S11655424EA0116201160000000000000
B0313313205688S11655336EA0114801145000000000000
B0313353205665S11655242EA0112801124000000000000
B0313393205643S11655145EA0110901110000000000000
B0313433205620S11655047EA0109801098000000000000
B0313473205596S11654954EA0109501098000000000000
B0313513205570S11654871EA0110001103000000000000
B0313553205543S11654794EA0110201101000000000000
B0313593205496S11654741EA0109901097000000000000
B0314033205439S11654700EA0109101087000000000000
B0314073205378S11654659EA0108601083000000000000
B0314113205317S11654626EA0108401081000000000000
B0314153205254S11654618EA0108401086000000000000
B0314193205198S11654617EA0110001102000000000000
B0314233205150S11654616EA0110801107000000000000
B0314273205110S11654639EA0111201110000000000000
B0314313205084S11654690EA0111101108000000000000
B0314353205061S11654745EA0110801107000000000000
B0314393205044S11654804EA0111001110000000000000
B0314433205032S11654864EA0111301111000000000000
B0314473205006S11654920EA0110901104000000000000
B0314513204954S11654940EA0110101092000000000000
B0314553204908S11654889EA0109601092000000000000
B0314593204911S11654806EA0110301101000000000000
B0315033204946S11654725EA0109901093000000000000
B0315073204988S11654638EA0108601078000000000000
B0315113205032S11654546EA0107801078000000000000
B0315153205068S11654456EA0108101081000000000000
B0315193205096S11654362EA0108201082000000000000
B0315233205106S11654269EA0109601101000000000000
B0315273205064S11654239EA0112001122000000000000
B0315313205058S11654296EA0113701140000000000000
B0315353205123S11654329EA0114901153000000000000
B0315393205192S11654288EA0116301167000000000000
B0315433205217S11654213EA0117501178000000000000
B0315473205192S11654153EA0117601176000000000000
B0315513205145S11654149EA0117601180000000000000
B0315553205122S11654201EA0118601194000000000000
B0315593205152S11654270EA0119701203000000000000
B0316033205224S11654304EA0120201209000000000000
B0316073205298S11654266EA0122001231000000000000
B0316113205314S11654192EA0124301251000000000000
B0316153205279S11654152EA0124901252000000000000
B0316193205243S11654180EA0125901268000000000000
B0316233205267S11654240EA0127801287000000000000
B0316123205336S11654260EA0128201288000000000000
B0316163205406S11654213EA0128601298000000000000
B0316203205430S11654135EA0130901318000000000000
B0316243205410S11654074EA0131501320000000000000
B0316283205369S11654063EA0132401333000000000000
B0316323205356S11654114EA0133201340000000000000
B0316363205404S11654173EA0132701335000000000000
B0316403205486S11654179EA0133501351000000000000
B0316443205548S11654127EA0135401368000000000000
B0316483205565S11654050EA0136001368000000000000
B0316523205539S11653987EA0135701365000000000000
B0316563205500S11654000EA0136601379000000000000
B0317003205519S11654069EA0137101380000000000000
B0317043205596S11654106EA0137701388000000000000
B0317083205675S11654070EA0138801403000000000000
B0317123205708S11653992EA0139801409000000000000
B0317163205688S11653927EA0140201411000000000000
B0317203205646S11653922EA0140701417000000000000
B0317243205646S11653981EA0141201424000000000000
B0317283205711S11654032EA0141701427000000000000
B0317323205795S11654011EA0142001434000000000000
B0317363205838S11653935EA0143001443000000000000
B0317403205835S11653858EA0143201440000000000000
B0317443205795S11653824EA0143601448000000000000
B0317483205768S11653858EA0144601460000000000000
B0317523205796S11653920EA0145601469000000000000
B0317563205870S11653948EA0146701475000000000000
B0318003205946S11653914EA0147001480000000000000
B0318043205990S11653841EA0147401484000000000000
B0318083205998S11653763EA0147601482000000000000
B0318123205965S11653711EA0146801477000000000000
B0318163205920S11653716EA0147401484000000000000
B0318203205899S11653766EA0147201475000000000000
B0318243205929S11653835EA0147201485000000000000
B0318283206000S11653868EA0148501497000000000000
B0318323206081S11653848EA0149201501000000000000
B0318363206136S11653780EA0148301488000000000000
B0318403206156S11653685EA0147801488000000000000
B0318443206145S11653603EA0148501496000000000000
B0318483206101S11653585EA0149101498000000000000
B0318523206084S11653634EA0148101484000000000000
B0318563206128S11653697EA0147401482000000000000
B0319003206212S11653723EA0147001477000000000000
B0319043206306S11653724EA0147501487000000000000
B0319083206379S11653673EA0148801496000000000000
B0319123206400S11653591EA0148501485000000000000
B0319163206363S11653539EA0146601463000000000000
B0319203206303S11653537EA0144101439000000000000
B0319243206240S11653550EA0142401422000000000000
B0319283206172S11653573EA0140201402000000000000
B0319323206107S11653597EA0139401390000000000000
B0319363206036S11653607EA0137601372000000000000
B0319403205961S11653617EA0136001361000000000000
B0319443205889S11653636EA0135401357000000000000
B0319483205820S11653659EA0134501344000000000000
B0319523205748S11653685EA0133601336000000000000
B0319563205678S11653710EA0133001328000000000000
B0320003205601S11653721EA0132401326000000000000
B0320043205530S11653716EA0133001333000000000000
B0320083205464S11653715EA0134501354000000000000
B0320123205431S11653759EA0137001372000000000000
B0320163205491S11653815EA0137301367000000000000
B0320203205579S11653790EA0135801348000000000000
B0320243205630S11653706EA0133701333000000000000
B0320283205622S11653614EA0133101334000000000000
B0320323205600S11653529EA0133401336000000000000
B0320363205564S11653464EA0133701338000000000000
B0320403205513S11653430EA0133801338000000000000
B0320443205456S11653421EA0133201329000000000000
B0320483205395S11653426EA0131901317000000000000
B0320523205334S11653434EA0131701313000000000000
B0320563205271S11653445EA0131201312000000000000
B0321003205217S11653461EA0132801333000000000000
B0321043205167S11653481EA0133501331000000000000
B0321083205113S11653493EA0132001311000000000000
B0321123205054S11653503EA0130201294000000000000
B0321163204989S11653515EA0129101287000000000000
B0321203204927S11653530EA0130401307000000000000
B0321243204871S11653549EA0130601304000000000000
B0321283204815S11653558EA0130201300000000000000
B0321323204758S11653567EA0129001284000000000000
B0321363204702S11653588EA0128401282000000000000
B0321403204648S11653607EA0127801271000000000000
B0321443204593S11653628EA0126101254000000000000
B0321483204535S11653646EA0125301248000000000000
B0321523204479S11653664EA0124901244000000000000
B0321563204421S11653662EA0124601241000000000000
B0322003204362S11653660EA0123701229000000000000
B0322043204301S11653663EA0122401217000000000000
B0322083204243S11653675EA0122101214000000000000
B0322123204186S11653690EA0121401206000000000000
B0322163204127S11653710EA0120401193000000000000
B0322203204067S11653736EA0118601177000000000000
B0322243204005S11653763EA0117501168000000000000
B0322283203945S11653789EA0117401168000000000000
B0322323203889S11653818EA0116901158000000000000
B0322363203827S11653840EA0115501147000000000000
B0322403203764S11653846EA0116301160000000000000
B0322443203709S11653849EA0117101164000000000000
B0322483203654S11653851EA0116801157000000000000
B0322523203598S11653858EA0116101149000000000000
B0322563203542S11653868EA0115101140000000000000
B0323003203485S11653884EA0114301133000000000000
B0323043203428S11653900EA0113601126000000000000
B0323083203371S11653915EA0112901117000000000000
B0323123203312S11653936EA0112101109000000000000
B0323163203254S11653959EA0111401103000000000000
B0323203203195S11653984EA0111001095000000000000
B0323243203137S11654010EA0110801101000000000000
B0323283203079S11654028EA0111901113000000000000
B0323323203051S11654071EA0113901132000000000000
B0323363203100S11654124EA0114001120000000000000
B0323403203182S11654104EA0112701114000000000000
B0323443203217S11654026EA0112601115000000000000
B0323483203202S11653950EA0112501111000000000000
B0323523203161S11653894EA0112201112000000000000
B0323563203112S11653862EA0112001110000000000000
B0324003203059S11653851EA0111801109000000000000
B0324043203008S11653853EA0112001109000000000000
B0324083202960S11653859EA0111601101000000000000
B0324123202910S11653868EA0110501089000000000000
B0324163202857S11653876EA0109001074000000000000
B0324203202802S11653889EA0107701060000000000000
B0324243202743S11653906EA0106501051000000000000
B0324283202683S11653928EA0106001046000000000000
B0324323202624S11653957EA0105801045000000000000
B0324363202570S11653989EA0105601039000000000000
B0324403202518S11654030EA0104401027000000000000
B0324443202468S11654075EA0103801023000000000000
B0324483202423S11654123EA0103501020000000000000
B0324523202377S11654173EA0103201018000000000000
B0324563202347S11654231EA0103701024000000000000
B0325003202373S11654301EA0104401028000000000000
B0325043202440S11654355EA0103301015000000000000
B0325083202522S11654400EA0101600995000000000000
B0325123202610S11654444EA0100000984000000000000
B0325163202701S11654488EA0099500980000000000000
B0325203202793S11654529EA0099100973000000000000
B0325243202886S11654570EA0098100963000000000000
B0325283202978S11654611EA0098200970000000000000
B0325323203059S11654660EA0099500982000000000000
B0325363203126S11654715EA0100200988000000000000
B0325403203196S11654755EA0101000993000000000000
B0325443203260S11654717EA0101700998000000000000
B0325483203256S11654648EA0100800983000000000000
B0325523203211S11654643EA0099800975000000000000
B0325563203185S11654698EA0098800962000000000000
B0326003203209S11654774EA0097100950000000000000
B0326043203255S11654847EA0096700946000000000000
B0326083203312S11654912EA0095900934000000000000
B0326123203382S11654969EA0094400920000000000000
B0326163203462S11655018EA0093700911000000000000
B0326203203545S11655062EA0092400895000000000000
B0326243203632S11655111EA0090300877000000000000
B0326283203720S11655161EA0089000866000000000000
B0326323203810S11655209EA0087900856000000000000
B0326363203898S11655259EA0086800846000000000000
B0326403203989S11655298EA0087700861000000000000
B0326443204078S11655323EA0089300873000000000000
B0326483204164S11655340EA0089500870000000000000
B0326523204253S11655358EA0088300854000000000000
B0326563204343S11655389EA0086800838000000000000
B0327003204434S11655427EA0085200826000000000000
B0327043204524S11655467EA0083800810000000000000
B0327083204612S11655517EA0082200798000000000000
B0327123204697S11655566EA0081200786000000000000
B0327163204785S11655612EA0079800772000000000000
B0327203204873S11655660EA0079000767000000000000
B0327243204959S11655705EA0078900765000000000000
B0327283205040S11655762EA0078600759000000000000
B0327323205098S11655839EA0078400762000000000000
B0327363205093S11655913EA0080000778000000000000
B0327403205045S11655911EA0080700776000000000000
B0327443205019S11655835EA0079900766000000000000
B0327483205014S11655746EA0079300764000000000000
B0327523205020S11655653EA0079200765000000000000
B0327563205024S11655564EA0079100762000000000000
B0328003205005S11655488EA0079000762000000000000
B0328043204960S11655467EA0078500754000000000000
B0328083204940S11655518EA0077100735000000000000
B0328123204986S11655588EA0075300721000000000000
B0328163205058S11655649EA0074600717000000000000
B0328203205131S11655713EA0074100714000000000000
B0328243205189S11655783EA0075100732000000000000
B0328283205243S11655846EA0076400735000000000000
B0328323205308S11655896EA0075800724000000000000
B0328363205380S11655943EA0074600715000000000000
B0328403205456S11655990EA0073200699000000000000
B0328443205532S11656041EA0071700688000000000000
B0328483205599S11656106EA0070600674000000000000
B0328523205656S11656185EA0068900658000000000000
B0328563205709S11656272EA0067600638000000000000
B0329003205751S11656359EA0067300647000000000000
B0329043205804S11656419EA0069400669000000000000
B0329083205867S11656383EA0070900677000000000000
B0329123205850S11656311EA0070200670000000000000
B0329163205796S11656307EA0070500678000000000000
B0329203205782S11656362EA0071500687000000000000
B0329243205820S11656412EA0071800683000000000000
B0329283205890S11656423EA0071400684000000000000
B0329323205932S11656360EA0072300694000000000000
B0329363205899S11656310EA0072600697000000000000
B0329403205855S11656328EA0073100699000000000000
B0329443205856S11656389EA0072700693000000000000
B0329483205907S11656436EA0072100691000000000000
B0329523205982S11656437EA0072200696000000000000
B0329563206033S11656385EA0073500710000000000000
B0330003206011S11656328EA0074500720000000000000
B0330043205971S11656354EA0075700732000000000000
B0330083205985S11656418EA0076200739000000000000
B0330123206050S11656441EA0077300749000000000000
B0330163206111S11656406EA0078100758000000000000
B0330203206125S11656337EA0078900769000000000000
B0330243206090S11656295EA0079900778000000000000
B0330283206047S11656321EA0080400780000000000000
B0330323206056S11656388EA0080600783000000000000
B0330363206123S11656419EA0081100788000000000000
B0330403206186S11656380EA0081900801000000000000
B0330443206198S11656312EA0083200815000000000000
B0330483206164S11656275EA0084200822000000000000
B0330523206121S11656290EA0084400819000000000000
B0330563206115S11656354EA0084100820000000000000
B0331003206175S11656396EA0085400837000000000000
B0331043206244S11656377EA0086700848000000000000
B0331083206280S11656312EA0088000863000000000000
B0331123206263S11656255EA0089400874000000000000
B0331163206218S11656245EA0089200866000000000000
B0331203206193S11656301EA0087600852000000000000
B0331243206225S11656373EA0088600869000000000000
B0331283206284S11656424EA0089900883000000000000
B0331323206355S11656425EA0091000895000000000000
B0331363206405S11656368EA0091100891000000000000
B0331403206394S11656297EA0091500897000000000000
B0331443206341S11656279EA0092000905000000000000
B0331483206305S11656328EA0093500925000000000000
B0331523206327S11656393EA0094800933000000000000
B0331563206398S11656411EA0095100934000000000000
B0332003206461S11656364EA0095600940000000000000
B0332043206466S11656289EA0096300949000000000000
B0332083206424S11656250EA0097200959000000000000
B0332123206383S11656279EA0098500977000000000000
B0332163206392S11656342EA0100100988000000000000
B0332203206453S11656372EA0100800994000000000000
B0332243206517S11656338EA0101401000000000000000
B0332283206532S11656266EA0101801005000000000000
B0332323206493S11656219EA0102201011000000000000
B0332363206448S11656241EA0103901029000000000000
B0332403206448S11656302EA0105701048000000000000
B0332443206496S11656345EA0106201049000000000000
B0332483206567S11656333EA0106101053000000000000
B0332523206597S11656266EA0107001056000000000000
B0332563206563S11656211EA0106901064000000000000
B0333003206519S11656232EA0109101086000000000000
B0333043206519S11656294EA0110401095000000000000
B0333083206572S11656338EA0110301090000000000000
B0333123206648S11656318EA0110501096000000000000
B0333163206669S11656243EA0111301104000000000000
B0333203206628S11656198EA0111701109000000000000
B0333243206587S11656228EA0113001123000000000000
B0333283206598S11656294EA0114401137000000000000
B0333323206658S11656333EA0115001140000000000000
B0333363206734S11656320EA0115301146000000000000
B0333403206779S11656258EA0115901154000000000000
B0333443206770S11656189EA0116701162000000000000
B0333483206723S11656172EA0117601172000000000000
B0333523206700S11656220EA0118601183000000000000
B0333563206731S11656282EA0119901195000000000000
B0334003206801S11656301EA0120401197000000000000
B0334043206865S11656256EA0120501200000000000000
B0334083206878S11656181EA0121501213000000000000
B0334123206847S11656129EA0122001214000000000000
B0334163206797S11656133EA0122101218000000000000
B0334203206787S11656193EA0123201229000000000000
B0334243206845S11656236EA0123701235000000000000
B0334283206917S11656210EA0124101243000000000000
B0334323206943S11656137EA0124901250000000000000
B0334363206916S11656077EA0125501253000000000000
B0334403206869S11656069EA0125801258000000000000
B0334443206849S11656123EA0126301265000000000000
B0334483206894S11656181EA0126801267000000000000
B0334523206973S11656176EA0126801270000000000000
B0334563207025S11656113EA0128301286000000000000
B0335003207033S11656039EA0128901285000000000000
B0335043206994S11655994EA0128201280000000000000
B0335083206953S11656017EA0129601297000000000000
B0335123206952S11656073EA0130501303000000000000
B0335163207003S11656125EA0130101295000000000000
B0335203207083S11656130EA0129701298000000000000
B0335243207139S11656072EA0130901311000000000000
B0335283207143S11655995EA0131201308000000000000
B0335323207100S11655948EA0130101294000000000000
B0335363207050S11655965EA0130301305000000000000
B0335403207025S11656021EA0130201295000000000000
B0335443207046S11656098EA0129101289000000000000
B0335483207107S11656154EA0128501281000000000000
B0335523207191S11656178EA0128201283000000000000
B0335563207277S11656191EA0128701289000000000000
B0336003207362S11656202EA0129301297000000000000
B0336043207441S11656185EA0130501307000000000000
B0336083207476S11656115EA0131001306000000000000
B0336123207446S11656052EA0130301300000000000000
B0336163207390S11656029EA0129801294000000000000
B0336203207337S11656032EA0130501304000000000000
B0336243207337S11656097EA0131701315000000000000
B0336283207406S11656134EA0131901315000000000000
B0336323207485S11656106EA0132001321000000000000
B0336363207540S11656039EA0133001327000000000000
B0336403207549S11655960EA0133101327000000000000
B0336443207515S11655900EA0132601323000000000000
B0336483207462S11655879EA0132401322000000000000
B0336523207420S11655912EA0133101333000000000000
B0336563207417S11655973EA0134001333000000000000
B0337003207460S11656035EA0132901321000000000000
B0337043207541S11656071EA0131901320000000000000
B0337083207628S11656091EA0132201324000000000000
B0337123207716S11656102EA0132901330000000000000
B0337163207797S11656132EA0133301335000000000000
B0337203207818S11656201EA0134601353000000000000
B0337243207780S11656212EA0136401365000000000000
B0337283207761S11656152EA0136901370000000000000
B0337323207785S11656078EA0137601378000000000000
B0337363207839S11656020EA0138201382000000000000
B0337403207908S11655982EA0138601387000000000000
B0337443207983S11655977EA0139301395000000000000
B0337483208048S11656016EA0140101405000000000000
B0337523208075S11656084EA0140901414000000000000
B0337563208052S11656134EA0141101413000000000000
B0338003208005S11656134EA0141601422000000000000
B0338043207969S11656091EA0142701435000000000000
B0338083207954S11656025EA0144101450000000000000
B0338123207986S11655952EA0144501447000000000000
B0338163208066S11655924EA0143401435000000000000
B0338203208142S11655967EA0143901450000000000000
B0338243208170S11656042EA0146001472000000000000
B0338283208152S11656103EA0147401485000000000000
B0338323208108S11656117EA0148401496000000000000
B0338363208074S11656072EA0149501503000000000000
B0338403208087S11655990EA0149501503000000000000
B0338443208151S11655928EA0150101513000000000000
B0338483208234S11655912EA0150701514000000000000
B0338523208301S11655961EA0151101521000000000000
B0338563208303S11656030EA0152301536000000000000
B0339003208257S11656039EA0152501533000000000000
B0339043208227S11655977EA0152901540000000000000
B0339083208235S11655895EA0154501559000000000000
B0339123208275S11655822EA0155601566000000000000
B0339163208346S11655778EA0155401561000000000000
B0339203208429S11655785EA0155301563000000000000
B0339243208491S11655837EA0156301577000000000000
B0339283208498S11655900EA0157401596000000000000
B0339323208456S11655908EA0159001606000000000000
B0339363208447S11655838EA0159801613000000000000
B0339403208502S11655773EA0160401614000000000000
B0339443208589S11655756EA0160201614000000000000
B0339483208662S11655796EA0160401616000000000000
B0339523208690S11655872EA0161101628000000000000
B0339563208684S11655943EA0163101653000000000000
B0340003208647S11655970EA0164801667000000000000
B0340043208625S11655916EA0165601672000000000000
B0340083208665S11655846EA0166701687000000000000
B0340123208742S11655824EA0168001696000000000000
B0340163208808S11655868EA0168901707000000000000
B0340203208819S11655942EA0169601719000000000000
B0340243208781S11655972EA0171001734000000000000
B0340283208750S11655928EA0172201742000000000000
B0340323208775S11655851EA0173101752000000000000
B0340363208846S11655811EA0174001759000000000000
B0340403208924S11655834EA0174701771000000000000
B0340443208971S11655899EA0176201788000000000000
B0340483208964S11655961EA0176901790000000000000
B0340523208920S11655977EA0177001792000000000000
B0340563208879S11655938EA0177501797000000000000
B0341003208864S11655866EA0178401807000000000000
B0341043208894S11655791EA0179201818000000000000
B0341083208964S11655749EA0180501830000000000000
B0341123209046S11655761EA0181501841000000000000
B0341163209107S11655813EA0182301850000000000000
B0341203209132S11655882EA0183301861000000000000
B0341243209117S11655934EA0183801863000000000000
B0341283209074S11655941EA0183701861000000000000
B0341323209046S11655885EA0184001865000000000000
B0341363209078S11655803EA0184401869000000000000
B0341403209150S11655756EA0185401879000000000000
B0341443209232S11655761EA0186301888000000000000
B0341483209289S11655813EA0186601889000000000000
B0341523209295S11655878EA0186401889000000000000
B0341563209260S11655912EA0185901878000000000000
B0342003209206S11655921EA0184601866000000000000
B0342043209143S11655921EA0183101853000000000000
B0342083209072S11655931EA0183201863000000000000
B0342123209006S11655938EA0184101869000000000000
B0342163208941S11655950EA0184601871000000000000
B0342203208877S11655976EA0183601861000000000000
B0342243208810S11656021EA0181701842000000000000
B0342283208738S11656074EA0179301820000000000000
B0342323208664S11656129EA0178801821000000000000
B0342363208595S11656173EA0180301840000000000000
B0342403208530S11656211EA0181301839000000000000
B0342443208464S11656250EA0180301828000000000000
B0342483208395S11656290EA0179801826000000000000
B0342523208329S11656325EA0179701824000000000000
B0342563208260S11656354EA0178901812000000000000
B0343003208188S11656379EA0177401796000000000000
B0343043208114S11656406EA0176401789000000000000
B0343083208047S11656437EA0176601792000000000000
B0343123207980S11656463EA0176601789000000000000
B0343163207914S11656484EA0176101783000000000000
B0343203207844S11656501EA0175301774000000000000
B0343243207776S11656520EA0174801770000000000000
B0343283207710S11656549EA0174801770000000000000
B0343323207646S11656583EA0174901772000000000000
B0343363207589S11656619EA0175601779000000000000
B0343403207536S11656657EA0175901781000000000000
B0343443207482S11656693EA0175701776000000000000
B0343483207429S11656728EA0175301774000000000000
B0343523207375S11656762EA0175101769000000000000
B0343563207317S11656787EA0174401762000000000000
B0344003207256S11656799EA0173901754000000000000
B0344043207194S11656786EA0172901745000000000000
B0344083207137S11656752EA0172301740000000000000
B0344123207086S11656706EA0171601731000000000000
B0344163207037S11656661EA0170501719000000000000
B0344203206978S11656637EA0169501708000000000000
B0344243206917S11656631EA0168701701000000000000
B0344283206856S11656631EA0167901690000000000000
B0344323206791S11656632EA0166501677000000000000
B0344363206723S11656635EA0165101662000000000000
B0344403206654S11656643EA0164301656000000000000
B0344443206587S11656649EA0163401646000000000000
B0344483206518S11656654EA0162801642000000000000
B0344523206450S11656659EA0162301630000000000000
B0344563206381S11656666EA0161101617000000000000
B0345003206311S11656670EA0159801604000000000000
B0345043206238S11656679EA0159301609000000000000
B0345083206172S11656685EA0161201633000000000000
B0345123206115S11656684EA0163101643000000000000
B0345163206058S11656687EA0162401630000000000000
B0345203205994S11656695EA0160801612000000000000
B0345243205925S11656705EA0159401601000000000000
B0345283205856S11656709EA0159101599000000000000
B0345323205789S11656705EA0158901595000000000000
B0345363205722S11656698EA0158501591000000000000
B0345403205657S11656697EA0158201586000000000000
B0345443205591S11656695EA0157101574000000000000
B0345483205525S11656688EA0156501568000000000000
B0345523205457S11656682EA0155801559000000000000
B0345563205387S11656670EA0154501546000000000000
B0346003205317S11656659EA0154001545000000000000
B0346043205250S11656658EA0154201545000000000000
B0346083205188S11656661EA0154401545000000000000
B0346123205127S11656674EA0153901536000000000000
B0346163205063S11656688EA0152601522000000000000
B0346203204997S11656696EA0151901518000000000000
B0346243204934S11656705EA0152101520000000000000
B0346283204875S11656719EA0151901516000000000000
B0346323204816S11656747EA0150901497000000000000
B0346363204750S11656762EA0148201465000000000000
B0346403204677S11656758EA0146001451000000000000
B0346443204603S11656758EA0145301444000000000000
B0346483204528S11656753EA0145101447000000000000
B0346523204459S11656732EA0146301461000000000000
B0346563204398S11656719EA0147401477000000000000
B0347003204348S11656711EA0149401488000000000000
B0347043204299S11656714EA0149001479000000000000
B0347083204249S11656722EA0148001467000000000000
B0347123204195S11656726EA0146201445000000000000
B0347163204132S11656726EA0144901440000000000000
B0347203204075S11656730EA0144801437000000000000
B0347243204021S11656730EA0143901422000000000000
B0347283203958S11656723EA0141901400000000000000
B0347323203892S11656727EA0140001386000000000000
B0347363203826S11656726EA0139201379000000000000
B0347403203761S11656713EA0138401368000000000000
B0347443203693S11656692EA0137001352000000000000
B0347483203623S11656662EA0135801346000000000000
B0347523203558S11656627EA0136201351000000000000
B0347563203498S11656588EA0136201351000000000000
B0348003203439S11656549EA0136001349000000000000
B0348043203380S11656519EA0135701348000000000000
B0348083203322S11656492EA0135401342000000000000
B0348123203261S11656470EA0134301329000000000000
B0348163203199S11656445EA0133301319000000000000
B0348203203137S11656418EA0132101305000000000000
B0348243203070S11656388EA0131001298000000000000
B0348283203005S11656354EA0130801290000000000000
B0348323202939S11656325EA0129601282000000000000
B0348363202870S11656314EA0129201279000000000000
B0348403202800S11656303EA0128601270000000000000
B0348443202731S11656292EA0128301265000000000000
B0348483202666S11656293EA0128901280000000000000
B0348523202610S11656299EA0130601290000000000000
B0348563202555S11656315EA0130601287000000000000
B0349003202498S11656328EA0129601275000000000000
B0349043202437S11656347EA0128301265000000000000
B0349083202379S11656372EA0127401256000000000000
B0349123202316S11656388EA0125801238000000000000
B0349163202247S11656393EA0124001211000000000000
B0349203202168S11656383EA0120701179000000000000
B0349243202085S11656357EA0119001171000000000000
B0349283202006S11656327EA0118601168000000000000
B0349323201928S11656292EA0118001157000000000000
B0349363201847S11656253EA0116201139000000000000
B0349403201765S11656212EA0115701135000000000000
B0349443201684S11656176EA0115801141000000000000
B0349483201606S11656150EA0116301144000000000000
B0349523201528S11656134EA0115801135000000000000
B0349563201450S11656113EA0115401132000000000000
B0350003201374S11656085EA0115101124000000000000
B0350043201302S11656048EA0115001135000000000000
B0350083201237S11656015EA0116301142000000000000
B0350123201172S11655987EA0116001133000000000000
B0350163201098S11655977EA0113601109000000000000
B0350203201019S11655969EA0112701106000000000000
B0350243200955S11656002EA0115301144000000000000
B0350283200979S11656058EA0118801167000000015000
B0350323201047S11656045EA0118501159000000015000
B0350363201081S11655967EA0118001165000000015000
B0350403201058S11655889EA0119301176000000000000
B0350443201005S11655860EA0120201185000000000000
B0350483200972S11655908EA0121301197000000000000
B0350523201003S11655964EA0121901201000000000000
B0350563201073S11655964EA0121601197000000000000
B0351003201125S11655898EA0121401202000000000000
B0351043201128S11655814EA0122901213000000000000
B0351083201085S11655766EA0122401201000000000000
B0351123201028S11655787EA0121501199000000000000
B0351163201002S11655853EA0122201208000000000000
B0351203201038S11655911EA0123001216000000000000
B0351243201107S11655881EA0123101215000000000000
B0351283201097S11655801EA0123701232000000000000
B0351323201038S11655798EA0125201245000000000000
B0351363201007S11655856EA0126001247000000000000
B0351403201044S11655916EA0126101247000000000000
B0351443201116S11655908EA0125501238000000000000
B0351483201148S11655833EA0125601247000000000000
B0351523201118S11655764EA0126301256000000000000
B0351563201064S11655720EA0127001260000000000000
B0352003201008S11655725EA0127701266000000000000
B0352043201008S11655799EA0127401259000000000000
B0352083201071S11655844EA0127401261000000000000
B0352123201140S11655816EA0127101255000000000000
B0352163201157S11655735EA0126601250000000000000
B0352203201110S11655671EA0125301238000000000000
B0352243201041S11655627EA0123301219000000000000
B0352283200967S11655593EA0122401211000000000000
B0352323200890S11655561EA0121001196000000000000
B0352363200811S11655530EA0120201185000000000000
B0352403200733S11655500EA0119301182000000000000
B0352443200664S11655473EA0120701197000000000000
B0352483200600S11655449EA0120901188000000000000
B0352523200534S11655422EA0119001166000000000000
B0352563200464S11655388EA0117501151000000000000
B0353003200391S11655349EA0116201141000000000000
B0353043200321S11655310EA0116301145000000000000
B0353083200254S11655270EA0116401145000000000000
B0353123200189S11655228EA0115901141000000000000
B0353163200126S11655183EA0115701138000000000000
B0353203200063S11655137EA0115501136000000000000
B0353243200013S11655101EA0116901156000000000000
B0353283159970S11655072EA0117801153000000000000
B0353323159924S11655036EA0117001146000000000000
B0353363159876S11654999EA0116401142000000000000
B0353403159823S11654972EA0116201139000000000000
B0353443159767S11654960EA0116501148000000000000
B0353483159718S11654954EA0117801157000000000000
B0353523159669S11654951EA0118101160000000000000
B0353563159621S11654955EA0118301160000000000000
B0354003159589S11654993EA0118701169000000000000
B0354043159636S11655045EA0120001183000000000000
B0354083159716S11655011EA0120501192000000000000
B0354123159737S11654928EA0121101202000000000000
B0354163159702S11654877EA0121401199000000000000
B0354203159668S11654910EA0121501205000000000000
B0354243159701S11654969EA0123001221000000000000
B0354283159773S11654977EA0124501233000000000000
B0354323159833S11654917EA0124501233000000000000
B0354363159831S11654841EA0124901238000000000000
B0354403159789S11654821EA0124701234000000000000
B0354443159773S11654873EA0125801249000000000000
B0354483159829S11654914EA0127001261000000000000
B0354523159903S11654881EA0127101260000000000000
B0354563159928S11654798EA0127501266000000000000
B0355003159894S11654750EA0127501265000000000000
B0355043159853S11654765EA0127401266000000000000
B0355083159867S11654828EA0128101276000000000000
B0355123159937S11654851EA0129401290000000000000
B0355163200010S11654806EA0129501284000000000000
B0355203200036S11654722EA0129701289000000000000
B0355243159996S11654681EA0129301278000000000000
B0355283159954S11654717EA0128001270000000000000
B0355323159962S11654790EA0129001287000000000000
B0355363200022S11654837EA0130701300000000000000
B0355403200106S11654839EA0131001300000000000000
B0355443200184S11654789EA0131101302000000000000
B0355483200214S11654704EA0132201317000000000000
B0355523200193S11654642EA0132801318000000000000
B0355563200149S11654629EA0132201312000000000000
B0356003200115S11654669EA0131801309000000000000
B0356043200131S11654735EA0132201317000000000000
B0356083200202S11654773EA0132401318000000000000
B0356123200293S11654769EA0132301316000000000000
B0356163200361S11654709EA0133101328000000000000
B0356203200362S11654633EA0134301337000000000000
B0356243200323S11654603EA0134501336000000000000
B0356283200288S11654635EA0133701325000000000000
B0356323200291S11654711EA0133301328000000000000
B0356363200351S11654764EA0135201347000000000000
B0356403200431S11654758EA0135801349000000000000
B0356443200512S11654728EA0135601348000000000000
B0356483200589S11654683EA0135701351000000000000
B0356523200634S11654607EA0136301357000000000000
B0356563200628S11654527EA0135701343000000000000
B0357003200579S11654511EA0134601336000000000000
B0357043200529S11654539EA0132801310000000000000
B0357083200469S11654576EA0129901282000000000000
B0357123200399S11654612EA0127601267000000000000
B0357163200326S11654648EA0128201278000000000000
B0357203200269S11654685EA0130601298000000000000
B0357243200221S11654722EA0132001312000000000000
B0357283200182S11654765EA0132901327000000000000
B0357323200152S11654810EA0134501342000000000000
B0357363200131S11654855EA0135801353000000000000
B0357403200115S11654898EA0137101365000000000000
B0357443200102S11654940EA0137601369000000000000
B0357483200085S11654981EA0137801369000000000000
B0357523200065S11655023EA0137901371000000000000
B0357563200040S11655063EA0137801369000000000000
B0358003159997S11655057EA0137801369000000000000
B0358043159980S11654986EA0138701380000000000000
B0358083200007S11654908EA0139801393000000000000
B0358123200050S11654836EA0140301398000000000000
B0358163200097S11654763EA0141201411000000000000
B0358203200144S11654694EA0142901427000000000000
B0358243200192S11654626EA0144301443000000000000
B0358283200243S11654563EA0145601457000000000000
B0358323200274S11654491EA0146501462000000000000
B0358363200249S11654442EA0146401461000000000000
B0358403200210S11654464EA0146401466000000000000
B0358443200189S11654517EA0146901469000000000000
B0358483200169S11654578EA0147101471000000000000
B0358523200141S11654635EA0148001485000000000000
B0358563200109S11654685EA0149901504000000000000
B0359003200076S11654730EA0150901513000000000000
B0359043200041S11654772EA0150201495000000000000
B0359083159994S11654768EA0148601482000000000000
B0359123159979S11654702EA0147701470000000000000
B0359163200020S11654624EA0146201459000000000000
B0359203200098S11654570EA0145901463000000000000
B0359243200186S11654534EA0147301482000000000000
B0359283200267S11654492EA0148901495000000000000
B0359323200347S11654448EA0150001503000000000000
B0359363200423S11654399EA0150601509000000000000
B0359403200465S11654321EA0150901513000000000000
B0359443200447S11654254EA0150801511000000000000
B0359483200401S11654245EA0151001515000000000000
B0359523200365S11654286EA0151401521000000000000
B0359563200336S11654334EA0152901542000000000000
B0400003200310S11654378EA0154701555000000000000
B0400043200266S11654384EA0155201556000000000000
B0400083200248S11654321EA0156301573000000000000
B0400123200296S11654262EA0158001589000000000000
B0400163200366S11654264EA0158401587000000000000
B0400203200422S11654317EA0157701586000000000000
B0400243200427S11654387EA0159201605000000000000
B0400283200395S11654431EA0160501614000000000000
B0400323200344S11654420EA0161101622000000000000
B0400363200342S11654340EA0162801640000000000000
B0400403200413S11654309EA0164201658000000000000
B0400443200473S11654357EA0165601675000000000000
B0400483200479S11654429EA0166201675000000000000
B0400523200435S11654466EA0166701686000000000000
B0400563200384S11654434EA0168001701000000000000
B0401003200400S11654349EA0168701698000000000000
B0401043200486S11654317EA0169001719000000000000
B0401083200553S11654360EA0171701741000000000000
B0401123200564S11654433EA0172301742000000000000
B0401163200521S11654474EA0173201754000000000000
B0401203200468S11654451EA0174801770000000000000
B0401243200453S11654379EA0175901775000000000000
B0401283200503S11654312EA0177201795000000000000
B0401323200574S11654316EA0178801811000000000000
B0401363200603S11654382EA0179301814000000000000
B0401403200568S11654439EA0179701826000000000000
B0401443200513S11654433EA0180901833000000000000
B0401483200509S11654358EA0180701831000000000000
B0401523200572S11654303EA0182201854000000000000
B0401563200643S11654318EA0184501875000000000000
B0402003200674S11654383EA0185901889000000000000
B0402043200655S11654446EA0187601903000000000000
B0402083200611S11654483EA0188101901000000000000
B0402123200559S11654512EA0186901885000000000000
B0402163200499S11654543EA0184001856000000000000
B0402203200434S11654581EA0182301843000000000000
B0402243200371S11654616EA0182001838000000000000
B0402283200308S11654643EA0181301830000000000000
B0402323200243S11654668EA0180501821000000000000
B0402363200176S11654693EA0179201804000000000000
B0402403200106S11654720EA0177501780000000000000
B0402443200032S11654746EA0175301764000000000000
B0402483159957S11654772EA0174401757000000000000
B0402523159887S11654799EA0174501757000000000000
B0402563159819S11654824EA0173901746000000000000
B0403003159751S11654846EA0173101740000000000000
B0403043159684S11654864EA0173301746000000000000
B0403083159621S11654888EA0174901765000000000000
B0403123159567S11654914EA0176201773000000000000
B0403163159515S11654947EA0175901767000000000000
B0403203159459S11654981EA0174901752000000000000
B0403243159402S11655024EA0173901748000000000000
B0403283159344S11655071EA0174601760000000000000
B0403323159285S11655094EA0176301777000000000000
B0403363159240S11655050EA0177801789000000000000
B0403403159273S11654975EA0177601782000000000000
B0403443159360S11654972EA0176701781000000000000
B0403483159424S11655034EA0178001796000000000000
B0403523159438S11655115EA0180001819000000000000
B0403563159415S11655174EA0182401843000000000000
B0404003159369S11655200EA0183101844000000000000
B0404043159321S11655177EA0183001840000000000000
B0404083159305S11655103EA0182101832000000000000
B0404123159311S11655014EA0181901833000000000000
B0404163159318S11654919EA0182701843000000000000
B0404203159328S11654825EA0184101859000000000000
B0404243159309S11654752EA0185401868000000000000
B0404283159261S11654752EA0185201862000000000000
B0404323159216S11654795EA0184301857000000000000
B0404363159168S11654838EA0184901864000000000000
B0404403159118S11654880EA0185001864000000000000
B0404443159069S11654924EA0186001876000000000000
B0404483159022S11654966EA0187101886000000000000
B0404523158975S11655005EA0187801892000000000000
B0404563158930S11655045EA0187701891000000000000
B0405003158882S11655085EA0187701888000000000000
B0405043158830S11655131EA0186901879000000000000
B0405083158779S11655181EA0186501881000000000000
B0405123158733S11655233EA0187101886000000000000
B0405163158688S11655284EA0187701894000000000000
B0405203158649S11655343EA0189001906000000000000
B0405243158670S11655418EA0190001920000000000000
B0405283158745S11655426EA0190701926000000000000
B0405323158795S11655357EA0190701930000000000000
B0405363158791S11655278EA0190901930000000000000
B0405403158746S11655223EA0191101936000000000000
B0405443158685S11655202EA0192501954000000000000
B0405483158644S11655241EA0194701976000000000000
B0405523158665S11655313EA0196001988000000000000
B0405563158736S11655337EA0197102001000000000000
B0406003158795S11655287EA0198202012000000000000
B0406043158800S11655206EA0199202019000000000000
B0406083158756S11655161EA0200302032000000000000
B0406123158707S11655181EA0201202045000000000000
B0406163158698S11655250EA0202302056000000000000
B0406203158745S11655310EA0203302067000000000000
B0406243158818S11655323EA0204502078000000000000
B0406283158879S11655276EA0205402086000000000000
B0406323158891S11655200EA0206202095000000000000
B0406363158853S11655148EA0207002103000000000000
B0406403158800S11655149EA0207702114000000000000
B0406443158772S11655205EA0208902125000000000000
B0406483158800S11655275EA0209802136000000000000
B0406523158865S11655311EA0210902145000000000000
B0406563158936S11655288EA0210902143000000000000
B0407003158970S11655211EA0211302153000000000000
B0407043158960S11655140EA0212802167000000000000
B0407083158917S11655103EA0213602173000000000000
B0407123158871S11655123EA0214302180000000000000
B0407163158865S11655190EA0214802187000000000000
B0407203158909S11655248EA0215102191000000000000
B0407243158986S11655250EA0215602197000000000000
B0407283159043S11655197EA0216102200000000000000
B0407323159051S11655122EA0216202201000000000000
B0407363159012S11655073EA0216202203000000000000
B0407403158961S11655088EA0216702210000000000000
B0407443158947S11655153EA0217702217000000000000
B0407483158983S11655220EA0217402213000000000000
B0407523159058S11655246EA0217602220000000000000
B0407563159139S11655239EA0218402225000000000000
B0408003159211S11655196EA0218502225000000000000
B0408043159243S11655116EA0218902227000000000000
B0408083159225S11655041EA0218302219000000000000
B0408123159165S11655007EA0216502200000000000000
B0408163159088S11655011EA0214702190000000000000
B0408203159008S11655024EA0214302185000000000000
B0408243158923S11655040EA0212502164000000000000
B0408283158836S11655058EA0212102170000000000000
B0408323158756S11655071EA0213302181000000000000
B0408363158672S11655086EA0212202162000000000000
B0408403158587S11655111EA0209702137000000000000
B0408443158501S11655142EA0209102139000000000000
B0408483158428S11655171EA0211102157000000000000
B0408523158362S11655200EA0212102157000000000000
B0408563158294S11655229EA0211402150000000000000
B0409003158220S11655258EA0210702141000000000000
B0409043158143S11655287EA0210602147000000000000
B0409083158069S11655310EA0212302169000000000000
B0409123158005S11655332EA0215602201000000000000
B0409163157989S11655401EA0217202209000000000000
B0409203158043S11655473EA0216002198000000000000
B0409243158135S11655476EA0216702214000000000000
B0409283158200S11655423EA0219602241000000000000
B0409323158221S11655349EA0221002250000000000000
B0409363158195S11655281EA0220702245000000000000
B0409403158137S11655266EA0220902253000000000000
B0409443158103S11655320EA0222402272000000000000
B0409483158132S11655397EA0223202272000000000000
B0409523158211S11655431EA0222602271000000000000
B0409563158299S11655422EA0223302280000000000000
B0410003158372S11655376EA0224502291000000000000
B0410043158408S11655297EA0225002292000000000000
B0410083158427S11655209EA0224902290000000000000
B0410123158412S11655125EA0225202294000000000000
B0410163158356S11655094EA0225702301000000000000
B0410203158302S11655132EA0226002307000000000000
B0410243158268S11655205EA0226502311000000000000
B0410283158242S11655285EA0227002314000000000000
B0410323158223S11655369EA0227702324000000000000
B0410363158182S11655427EA0227802316000000000000
B0410403158122S11655465EA0226202305000000000000
B0410443158056S11655501EA0226702314000000000000
B0410483157999S11655548EA0228102329000000000000
B0410523157955S11655613EA0229502342000000000000
B0410563157924S11655688EA0230302354000000000000
B0411003157898S11655762EA0231002355000000000000
B0411043157874S11655840EA0230302344000000000000
B0411083157843S11655920EA0228702326000000000000
B0411123157801S11655999EA0226902312000000000000
B0411163157757S11656078EA0226102305000000000000
B0411203157708S11656159EA0224702288000000000000
B0411243157649S11656238EA0222802270000000000000
B0411283157583S11656308EA0221802263000000000000
B0411323157513S11656368EA0221502258000000000000
B0411363157439S11656416EA0221002250000000000000
B0411403157363S11656454EA0220202243000000000000
B0411443157285S11656481EA0219602234000000000000
B0411483157207S11656503EA0218602220000000000000
B0411523157128S11656519EA0216902206000000000000
B0411563157050S11656537EA0215402190000000000000
B0412003156967S11656558EA0213802177000000000000
B0412043156887S11656574EA0214002179000000000000
B0412083156812S11656585EA0214102176000000000000
B0412123156737S11656593EA0213002164000000000000
B0412163156659S11656601EA0211502150000000000000
B0412203156582S11656605EA0210702144000000000000
B0412243156507S11656607EA0210202136000000000000
B0412283156431S11656605EA0209402129000000000000
B0412323156353S11656602EA0208402116000000000000
B0412363156271S11656601EA0207502109000000000000
B0412403156188S11656600EA0206702104000000000000
B0412443156104S11656598EA0206702104000000000000
B0412483156020S11656598EA0206402097000000000000
B0412523155936S11656600EA0205902091000000000000
B0412563155854S11656602EA0206002103000000000000
B0413003155786S11656604EA0209002129000000000000
B0413043155723S11656607EA0209002120000000000000
B0413083155650S11656609EA0206402093000000000000
B0413123155571S11656607EA0204602078000000000000
B0413163155494S11656605EA0205102084000000000000
B0413203155422S11656601EA0204802078000000000000
B0413243155350S11656594EA0203702063000000000000
B0413283155273S11656587EA0202002051000000000000
B0413323155196S11656574EA0201302044000000000000
B0413363155121S11656558EA0200602033000000000000
B0413403155044S11656541EA0198902015000000000000
B0413443154965S11656524EA0197502003000000000000
B0413483154883S11656511EA0196801996000000000000
B0413523154802S11656496EA0196201990000000000000
B0413563154720S11656481EA0195701986000000000000
B0414003154644S11656466EA0195901993000000000000
B0414043154573S11656451EA0197202002000000000000
B0414083154503S11656440EA0196801992000000000000
B0414123154430S11656428EA0195701985000000000000
B0414163154359S11656418EA0195501987000000000000
B0414203154291S11656409EA0196001990000000000000
B0414243154221S11656401EA0194801975000000000000
B0414283154147S11656392EA0194001970000000000000
B0414323154072S11656385EA0193301960000000000000
B0414363153994S11656379EA0192601956000000000000
B0414403153917S11656372EA0193001963000000000000
B0414443153847S11656368EA0193601966000000000000
B0414483153779S11656366EA0193101955000000000000
B0414523153710S11656371EA0192301949000000000000
B0414563153643S11656368EA0193401963000000000000
B0415003153584S11656355EA0195201981000000000000
B0415043153532S11656346EA0195901980000000000000
B0415083153476S11656346EA0194201950000000000000
B0415123153410S11656344EA0191401933000000000000
B0415163153341S11656329EA0190701929000000000000
B0415203153271S11656315EA0190201923000000000000
B0415243153203S11656298EA0190201926000000000000
B0415283153138S11656277EA0190001918000000000000
B0415323153069S11656256EA0188201897000000000000
B0415363152995S11656236EA0186401883000000000000
B0415403152921S11656206EA0186101892000000000000
B0415443152859S11656171EA0188001908000000000000
B0415483152803S11656134EA0189201917000000000000
B0415523152752S11656098EA0189501915000000000000
B0415563152699S11656065EA0188801905000000000000
B0416003152642S11656030EA0187201889000000000000
B0416043152578S11655996EA0185801878000000000000
B0416083152514S11655963EA0185201875000000000000
B0416123152451S11655928EA0184601864000000000000
B0416163152382S11655896EA0183001850000000000000
B0416203152310S11655863EA0182201842000000000000
B0416243152239S11655827EA0181201830000000000000
B0416283152163S11655803EA0179901817000000000000
B0416323152084S11655788EA0178901810000000000000
B0416363152003S11655783EA0178401801000000000000
B0416403151923S11655783EA0177801799000000000000
B0416443151846S11655779EA0177301786000000000000
B0416483151767S11655760EA0175401765000000000000
B0416523151687S11655727EA0173501750000000000000
B0416563151609S11655692EA0172601742000000000000
B0417003151531S11655674EA0171601735000000000000
B0417043151452S11655671EA0170401718000000000000
B0417083151372S11655673EA0168901704000000000000
B0417123151290S11655675EA0167701691000000000000
B0417163151209S11655681EA0166601678000000000000
B0417203151128S11655681EA0165501663000000000000
B0417243151047S11655658EA0163701647000000000000
B0417283150969S11655612EA0162401636000000000000
B0417323150896S11655553EA0161701629000000000000
B0417363150826S11655489EA0160801620000000000000
B0417403150757S11655426EA0159801609000000000000
B0417443150685S11655362EA0158201587000000000000
B0417483150615S11655296EA0156801581000000000000
B0417523150550S11655231EA0156801578000000000000
B0417563150490S11655164EA0156201569000000000000
B0418003150426S11655107EA0155001554000000000000
B0418043150355S11655060EA0153001535000000000000
B0418083150277S11655020EA0151801526000000000000
B0418123150195S11654998EA0150901516000000000000
B0418163150113S11654997EA0150001507000000000000
B0418203150033S11655012EA0148701490000000000000
B0418243149952S11655034EA0146801471000000000000
B0418283149874S11655064EA0145101452000000000000
B0418323149795S11655098EA0143201436000000000000
B0418363149714S11655133EA0142601430000000000000
B0418403149640S11655176EA0143401442000000000000
B0418443149587S11655237EA0144701460000000000000
B0418483149542S11655300EA0146001468000000000000
B0418523149498S11655356EA0146201465000000000000
B0418563149449S11655409EA0144901447000000000000
B0419003149393S11655461EA0142801426000000000000
B0419043149337S11655523EA0140501402000000000000
B0419083149281S11655595EA0139401393000000000000
B0419123149230S11655669EA0140101406000000000000
B0419163149185S11655739EA0141601420000000000000
B0419203149125S11655777EA0142501428000000000000
B0419243149084S11655721EA0144601454000000000000
B0419283149120S11655651EA0146601475000000000000
B0419323149189S11655630EA0146901471000000000000
B0419363149250S11655668EA0146601476000000000000
B0419403149277S11655736EA0147601487000000000000
B0419443149269S11655807EA0148001492000000000000
B0419483149236S11655859EA0148201490000000000000
B0419523149184S11655881EA0147601481000000000000
B0419563149125S11655855EA0146601470000000000000
B0420003149086S11655781EA0145601462000000000000
B0420043149058S11655694EA0146101469000000000000
B0420083149026S11655613EA0147501484000000000000
B0420123148973S11655595EA0149101502000000000000
B0420163148948S11655660EA0149301505000000000000
B0420203148994S11655722EA0150601525000000000000
B0420243149063S11655723EA0152001534000000000000
B0420283149112S11655662EA0152001531000000000000
B0420323149102S11655588EA0152701544000000000000
B0420363149052S11655558EA0153501546000000000000
B0420403149000S11655588EA0153601550000000000000
B0420443148996S11655657EA0154901565000000000000
B0420483149048S11655707EA0155701568000000000000
B0420523149123S11655691EA0155601570000000000000
B0420563149159S11655618EA0156201575000000000000
B0421003149146S11655539EA0156401577000000000000
B0421043149102S11655480EA0156801580000000000000
B0421083149041S11655461EA0156601578000000000000
B0421123148993S11655501EA0156901583000000000000
B0421163148993S11655571EA0157901594000000000000
B0421203149043S11655623EA0157701589000000000000
B0421243149123S11655621EA0157501591000000000000
B0421283149182S11655564EA0159001606000000000000
B0421323149208S11655486EA0159701611000000000000
B0421363149223S11655404EA0159801611000000000000
B0421403149229S11655324EA0159901610000000000000
B0421443149203S11655266EA0160201610000000000000
B0421483149155S11655271EA0159701606000000000000
B0421523149117S11655320EA0158101591000000000000
B0421563149077S11655380EA0156701577000000000000
B0422003149035S11655441EA0156001570000000000000
B0422043148991S11655506EA0155101566000000000000
B0422083148942S11655564EA0156101576000000000000
B0422123148877S11655571EA0157501592000000000000
B0422163148857S11655505EA0160501621000000000000
B0422203148911S11655461EA0162201634000000000000
B0422243148981S11655474EA0161501628000000000000
B0422283149032S11655532EA0161601637000000000000
B0422323149035S11655600EA0163501661000000000000
B0422363148998S11655632EA0165101668000000000000
B0422403148947S11655610EA0165201667000000000000
B0422443148913S11655547EA0165101669000000000000
B0422483148904S11655465EA0165401669000000000000
B0422523148935S11655385EA0165601673000000000000
B0422563149007S11655345EA0166401681000000000000
B0423003149085S11655349EA0167301689000000000000
B0423043149152S11655388EA0167501693000000000000
B0423083149199S11655449EA0168901712000000000000
B0423123149214S11655514EA0170001722000000000000
B0423163149189S11655561EA0170601727000000000000
B0423203149139S11655558EA0171701741000000000000
B0423243149111S11655496EA0172601744000000000000
B0423283149134S11655411EA0173101751000000000000
B0423323149203S11655363EA0173801759000000000000
B0423363149281S11655372EA0174201763000000000000
B0423403149338S11655427EA0174601768000000000000
B0423443149354S11655505EA0175101773000000000000
B0423483149328S11655574EA0175701779000000000000
B0423523149277S11655614EA0176301786000000000000
B0423563149214S11655616EA0177301803000000000000
B0424003149163S11655574EA0179601824000000000000
B0424043149163S11655497EA0180201818000000000000
B0424083149232S11655443EA0179501817000000000000
B0424123149320S11655437EA0180001824000000000000
B0424163149398S11655471EA0181201843000000000000
B0424203149429S11655541EA0182801856000000000000
B0424243149410S11655613EA0182501848000000000000
B0424283149354S11655657EA0182601853000000000000
B0424323149290S11655645EA0184501876000000000000
B0424363149275S11655571EA0187201903000000000000
B0424403149320S11655515EA0189201916000000000000
B0424443149393S11655508EA0189001910000000000000
B0424483149457S11655552EA0189701925000000000000
B0424523149484S11655618EA0191001939000000000000
B0424563149457S11655674EA0191801945000000000000
B0425003149401S11655671EA0191901949000000000000
B0425043149376S11655600EA0193201966000000000000
B0425083149419S11655531EA0195401990000000000000
B0425123149492S11655534EA0197002000000000000000
B0425163149532S11655597EA0197302001000000000000
B0425203149523S11655673EA0196901998000000000000
B0425243149475S11655720EA0197002002000000000000
B0425283149418S11655708EA0199102027000000000000
B0425323149392S11655645EA0201002041000000000000
B0425363149415S11655570EA0200902033000000000000
B0425403149483S11655519EA0200402033000000000000
B0425443149566S11655521EA0200902042000000000000
B0425483149637S11655567EA0202002052000000000000
B0425523149667S11655644EA0203202072000000000000
B0425563149652S11655713EA0205302091000000000000
B0426003149602S11655744EA0205902090000000000000
B0426043149549S11655714EA0206902106000000000000
B0426083149548S11655638EA0209602135000000000000
B0426123149596S11655575EA0211402151000000000000
B0426163149672S11655557EA0212502164000000000000
B0426203149737S11655599EA0213502170000000000000
B0426243149758S11655675EA0214102178000000000000
B0426283149734S11655742EA0214502181000000000000
B0426323149678S11655769EA0214402181000000000000
B0426363149622S11655734EA0215302195000000000000
B0426403149601S11655655EA0216902211000000000000
B0426443149640S11655582EA0218502226000000000000
B0426483149718S11655565EA0219402233000000000000
B0426523149792S11655605EA0220502249000000000000
B0426563149825S11655683EA0222002262000000000000
B0427003149801S11655755EA0222702267000000000000
B0427043149744S11655773EA0223702280000000000000
B0427083149691S11655733EA0224502292000000000000
B0427123149672S11655655EA0225402300000000000000
B0427163149702S11655580EA0227002314000000000000
B0427203149765S11655536EA0227202310000000000000
B0427243149847S11655531EA0227402318000000000000
B0427283149921S11655562EA0229402344000000000000
B0427323149961S11655623EA0231502364000000000000
B0427363149960S11655691EA0232702374000000000000
B0427403149921S11655729EA0232702371000000000000
B0427443149869S11655697EA0232702372000000000000
B0427483149847S11655619EA0233602381000000000000
B0427523149860S11655534EA0234602393000000000000
B0427563149913S11655466EA0235102394000000000000
B0428003149994S11655432EA0235102394000000000000
B0428043150082S11655431EA0235802404000000000000
B0428083150161S11655461EA0237602427000000000000
B0428123150208S11655521EA0239802450000000000000
B0428163150199S11655580EA0241802471000000000000
B0428203150157S11655587EA0243602486000000000000
B0428243150127S11655536EA0244702495000000000000
B0428283150140S11655454EA0245502503000000000000
B0428323150198S11655389EA0246202513000000000000
B0428363150280S11655382EA0247002518000000000000
B0428403150354S11655428EA0246902516000000000000
B0428443150393S11655509EA0246602518000000000000
B0428483150390S11655592EA0247502530000000000000
B0428523150358S11655660EA0248802542000000000000
B0428563150304S11655712EA0248902539000000000000
B0429003150239S11655752EA0247302521000000000000
B0429043150166S11655788EA0245502503000000000000
B0429083150086S11655825EA0243902487000000000000
B0429123150003S11655860EA0242402476000000000000
B0429163149921S11655894EA0241702471000000000000
B0429203149843S11655926EA0241602469000000000000
B0429243149769S11655959EA0241602467000000000000
B0429283149697S11655990EA0240702455000000000000
B0429323149620S11656016EA0239202441000000000000
B0429363149544S11656037EA0238602436000000000000
B0429403149471S11656055EA0238802436000000000000
B0429443149402S11656072EA0239002443000000000000
B0429483149338S11656095EA0239802449000000000000
B0429523149279S11656121EA0240302451000000000000
B0429563149219S11656146EA0240002445000000000000
B0430003149156S11656169EA0238802430000000000000
B0430043149089S11656194EA0237102416000000000000
B0430083149020S11656220EA0236202409000000000000
B0430123148952S11656246EA0236102408000000000000
B0430163148889S11656269EA0235902405000000000000
B0430203148825S11656290EA0235202394000000000000
B0430243148759S11656307EA0234102380000000000000
B0430283148690S11656325EA0232902372000000000000
B0430323148622S11656344EA0232102365000000000000
B0430363148553S11656359EA0231302357000000000000
B0430403148483S11656375EA0230802353000000000000
B0430443148411S11656393EA0230402348000000000000
B0430483148340S11656412EA0230102345000000000000
B0430523148271S11656432EA0230002346000000000000
B0430563148205S11656450EA0230502352000000000000
B0431003148140S11656463EA0230802349000000000000
B0431043148073S11656477EA0229802339000000000000
B0431083148005S11656496EA0229502337000000000000
B0431123147934S11656515EA0229402342000000000000
B0431163147864S11656527EA0230402350000000000000
B0431203147795S11656535EA0231402359000000000000
B0431243147725S11656545EA0231802366000000000000
B0431283147655S11656558EA0232202367000000000000
B0431323147585S11656574EA0231802360000000000000
B0431363147513S11656591EA0231102355000000000000
B0431403147440S11656602EA0230602349000000000000
B0431443147364S11656619EA0230002347000000000000
B0431483147284S11656639EA0229702341000000000000
B0431523147202S11656653EA0228002324000000000000
B0431563147122S11656669EA0227302320000000000000
B0432003147048S11656684EA0227402318000000000000
B0432043146975S11656709EA0226802307000000000000
B0432083146902S11656737EA0225802296000000000000
B0432123146827S11656769EA0224602287000000000000
B0432163146750S11656799EA0224502285000000000000
B0432203146672S11656827EA0224402287000000000000
B0432243146597S11656856EA0225402296000000000000
B0432283146519S11656880EA0226302306000000000000
B0432323146441S11656903EA0226902311000000000000
B0432363146363S11656927EA0227502318000000000000
B0432403146289S11656956EA0227902321000000000000
B0432443146237S11657023EA0228702331000000000000
B0432483146244S11657124EA0229602334000000000000
B0432523146303S11657209EA0228602322000000000000
B0432563146395S11657252EA0227402310000000000000
B0433003146484S11657225EA0226002298000000000000
B0433043146537S11657148EA0225102288000000000000
B0433083146545S11657057EA0224502279000000000000
B0433123146508S11656982EA0223802274000000000000
B0433163146443S11656942EA0223202268000000000000
B0433203146365S11656940EA0222002254000000000000
B0433243146281S11656969EA0219402225000000000000
B0433283146190S11657009EA0217102209000000000000
B0433323146101S11657053EA0216302200000000000000
B0433363146013S11657095EA0215302192000000000000
B0433403145928S11657134EA0215202190000000000000
B0433443145845S11657170EA0214502182000000000000
B0433483145762S11657207EA0213602169000000000000
B0433523145679S11657242EA0212702165000000000000
B0433563145600S11657272EA0213802177000000000000
B0434003145524S11657299EA0214202174000000000000
B0434043145447S11657326EA0212902160000000000000
B0434083145364S11657354EA0211202147000000000000
B0434123145281S11657386EA0211102150000000000000
B0434163145202S11657416EA0211502151000000000000
B0434203145120S11657449EA0210502137000000000000
B0434243145034S11657482EA0208502117000000000000
B0434283144946S11657520EA0207902117000000000000
B0434323144860S11657558EA0208202120000000000000
B0434363144779S11657592EA0208902124000000000000
B0434403144700S11657625EA0208602118000000000000
B0434443144622S11657662EA0207802111000000000000
B0434483144547S11657698EA0206602097000000000000
B0434523144471S11657736EA0205702088000000000000
B0434563144398S11657768EA0204402072000000000000
B0435003144324S11657801EA0202602055000000000000
B0435043144250S11657837EA0201402037000000000000
B0435083144176S11657870EA0199602024000000000000
B0435123144105S11657907EA0199602026000000000000
B0435163144041S11657945EA0200002031000000000000
B0435203143982S11657982EA0200602037000000000000
B0435243143930S11658019EA0201402044000000000000
B0435283143878S11658054EA0201102035000000000000
B0435323143820S11658088EA0198602009000000000000
B0435363143752S11658125EA0197201999000000000000
B0435403143683S11658162EA0197702006000000000000
B0435443143616S11658196EA0198302013000000000000
B0435483143549S11658222EA0199302024000000000000
B0435523143486S11658242EA0200202028000000000000
B0435563143426S11658270EA0200102029000000000000
B0436003143367S11658300EA0201002040000000000000
B0436043143317S11658331EA0202802061000000000000
B0436083143270S11658361EA0203902064000000000000
B0436123143224S11658404EA0204802075000000000000
B0436163143198S11658466EA0206102094000000000000
B0436203143228S11658542EA0207502108000000000000
B0436243143302S11658589EA0208902120000000000000
B0436283143393S11658582EA0209502127000000000000
B0436323143469S11658518EA0209902125000000000000
B0436363143501S11658421EA0209402123000000000000
B0436403143474S11658338EA0210002140000000000000
B0436443143417S11658321EA0212302165000000000000
B0436483143380S11658378EA0214602183000000000000
B0436523143399S11658464EA0215902194000000000000
B0436563143473S11658508EA0218002222000000000000
B0437003143547S11658477EA0221302255000000000000
B0437043143573S11658412EA0223202273000000000000
B0437083143546S11658374EA0224102279000000000000
B0437123143503S11658398EA0224302285000000000000
B0437163143483S11658468EA0225302299000000000000
B0437203143514S11658547EA0226902319000000000000
B0437243143587S11658572EA0229702347000000000000
B0437283143640S11658515EA0230902351000000000000
B0437323143630S11658438EA0231402364000000000000
B0437363143582S11658413EA0233702388000000000000
B0437403143538S11658448EA0235502401000000000000
B0437443143526S11658528EA0235802403000000000000
B0437483143569S11658609EA0236902419000000000000
B0437523143647S11658637EA0239402445000000000000
B0437563143715S11658598EA0241102463000000000000
B0438003143739S11658525EA0242302476000000000000
B0438043143712S11658474EA0243402489000000000000
B0438083143664S11658470EA0244602495000000000000
B0438123143605S11658490EA0243502478000000000000
B0438163143531S11658513EA0241002461000000000000
B0438203143445S11658541EA0239502444000000000000
B0438243143351S11658570EA0237302428000000000000
B0438283143252S11658604EA0237302428000000000000
B0438323143153S11658637EA0237402433000000000000
B0438363143057S11658671EA0238402441000000000000
B0438403142962S11658704EA0238402440000000000000
B0438443142868S11658745EA0239002442000000000000
B0438483142777S11658785EA0238302430000000000000
B0438523142689S11658823EA0238202434000000000000
B0438563142602S11658860EA0237802425000000000000
B0439003142512S11658895EA0236602407000000000000
B0439043142417S11658925EA0234602392000000000000
B0439083142322S11658950EA0234902400000000000000
B0439123142230S11658971EA0235502401000000000000
B0439163142136S11658994EA0234302391000000000000
B0439203142044S11659016EA0234502395000000000000
B0439243141958S11659038EA0235402403000000000000
B0439283141874S11659062EA0235302399000000000000
B0439323141787S11659088EA0234302380000000000000
B0439363141694S11659114EA0231702356000000000000
B0439403141597S11659141EA0229802342000000000000
B0439443141497S11659165EA0229102337000000000000
B0439483141399S11659181EA0228902336000000000000
B0439523141304S11659197EA0229102340000000000000
B0439563141216S11659210EA0229502339000000000000
B0440003141128S11659222EA0229702343000000000000
B0440043141043S11659233EA0230802362000000000000
B0440083140968S11659249EA0233202383000000000000
B0440123140914S11659295EA0235102398000000000000
B0440163140910S11659374EA0236202399000000000000
B0440203140968S11659448EA0234402374000000000000
B0440243141061S11659477EA0232102355000000000000
B0440283141155S11659444EA0230402337000000000000
B0440323141225S11659370EA0229402331000000000000
B0440363141251S11659279EA0230602353000000000000
B0440403141234S11659205EA0232702372000000000000
B0440443141194S11659157EA0233702379000000000000
B0440483141138S11659133EA0234102384000000000000
B0440523141074S11659128EA0234302386000000000000
B0440563141011S11659132EA0234502387000000000000
B0441003140947S11659142EA0234102377000000000000
B0441043140881S11659155EA0232002353000000000000
B0441083140809S11659172EA0229602336000000000000
B0441123140741S11659189EA0229702341000000000000
B0441163140688S11659205EA0231002353000000000000
B0441203140645S11659218EA0231602351000000000000
B0441243140598S11659230EA0229702326000000000000
B0441283140541S11659246EA0227202306000000000000
B0441323140480S11659269EA0227202312000000000000
B0441363140432S11659291EA0229902339000000000000
B0441403140394S11659309EA0230602342000000000000
B0441443140353S11659324EA0229602323000000000000
B0441483140302S11659337EA0227002297000000000000
B0441523140245S11659349EA0225402288000000000000
B0441563140192S11659362EA0225502294000000000000
B0442003140145S11659376EA0225402287000000000000
B0442043140091S11659392EA0223902273000000000000
B0442083140039S11659401EA0223102265000000000000
B0442123139991S11659404EA0222202253000000000000
B0442163139943S11659405EA0220802231000000000000
B0442203139889S11659410EA0218302207000000000000
B0442243139825S11659417EA0215702176000000000000
B0442283139751S11659419EA0212502152000000000000
B0442323139673S11659425EA0211302147000000000000
B0442363139600S11659430EA0210902142000000000000
B0442403139525S11659436EA0210402134000000000000
B0442443139448S11659443EA0209602128000000000000
B0442483139369S11659444EA0208602116000000000000
B0442523139289S11659439EA0207802111000000000000
B0442563139211S11659428EA0207702111000000000000
B0443003139137S11659414EA0207502108000000000000
B0443043139062S11659401EA0207002104000000000000
B0443083138984S11659396EA0207202108000000000000
B0443123138908S11659391EA0208402120000000000000
B0443163138836S11659389EA0209502128000000000000
B0443203138765S11659392EA0210502139000000000000
B0443243138695S11659393EA0210802138000000000000
B0443283138622S11659388EA0210702143000000000000
B0443323138552S11659378EA0211702157000000000000
B0443363138485S11659370EA0213102168000000000000
B0443403138418S11659362EA0214102177000000000000
B0443443138352S11659354EA0214602181000000000000
B0443483138288S11659348EA0214902184000000000000
B0443523138227S11659347EA0215202188000000000000
B0443563138169S11659348EA0214902182000000000000
B0444003138109S11659349EA0214102166000000000000
B0444043138041S11659352EA0212202149000000000000
B0444083137969S11659354EA0210702137000000000000
B0444123137894S11659356EA0209902133000000000000
B0444163137823S11659357EA0209302126000000000000
B0444203137753S11659352EA0208902117000000000000
B0444243137685S11659349EA0207502101000000000000
B0444283137612S11659349EA0205202073000000000000
B0444323137533S11659348EA0202302046000000000000
B0444363137450S11659349EA0200902038000000000000
B0444403137368S11659348EA0200102029000000000000
B0444443137286S11659350EA0199802027000000000000
B0444483137205S11659358EA0199602029000000000000
B0444523137130S11659366EA0200302032000000000000
B0444563137057S11659379EA0199702020000000000000
B0445003136982S11659396EA0198002002000000000000
B0445043136900S11659414EA0196501989000000000000
B0445083136815S11659430EA0195301978000000000000
B0445123136727S11659452EA0193801963000000000000
B0445163136644S11659475EA0193801972000000000000
B0445203136565S11659497EA0194401974000000000000
B0445243136487S11659521EA0193801961000000000000
B0445283136406S11659547EA0192401948000000000000
B0445323136325S11659575EA0191901947000000000000
B0445363136246S11659605EA0192201951000000000000
B0445403136168S11659636EA0191501936000000000000
B0445443136086S11659672EA0190101924000000000000
B0445483136006S11659708EA0190201935000000000000
B0445523135933S11659739EA0190901933000000000000
B0445563135860S11659774EA0190001925000000000000
B0446003135792S11659820EA0189401915000000000000
B0446043135723S11659867EA0188101902000000000000
B0446083135655S11659911EA0187101895000000000000
B0446123135584S11659951EA0186401881000000000000
B0446163135506S11659981EA0184601864000000000000
B0446203135430S11700010EA0183701857000000000000
B0446243135353S11700038EA0182801849000000000000
B0446283135278S11700068EA0182901856000000000000
B0446323135205S11700103EA0183701861000000000000
B0446363135136S11700145EA0184601878000000000000
B0446403135079S11700184EA0186601890000000000000
B0446443135025S11700223EA0186701888000000000000
B0446483134977S11700271EA0187001892000000000000
B0446523134930S11700323EA0187101887000000000000
B0446563134882S11700377EA0185901875000000000000
B0447003134834S11700444EA0184801865000000000000
B0447043134786S11700518EA0184001862000000000000
B0447083134737S11700588EA0184001859000000000000
B0447123134682S11700653EA0183801861000000000000
B0447163134626S11700706EA0184701869000000000000
B0447203134569S11700756EA0184701865000000000000
B0447243134512S11700804EA0184601866000000000000
B0447283134451S11700848EA0184301855000000000000
B0447323134383S11700883EA0182801841000000000000
B0447363134314S11700918EA0181801834000000000000
B0447403134247S11700956EA0181001822000000000000
B0447443134179S11700999EA0179601809000000000000
B0447483134109S11701026EA0179601824000000000000
B0447523134054S11701047EA0182901857000000000000
B0447563134010S11701068EA0184501857000000000000
B0448003133962S11701102EA0183301844000000000000
B0448043133911S11701141EA0182901847000000000000
B0448083133862S11701178EA0183401847000000000000
B0448123133816S11701226EA0183701857000000000000
B0448163133816S11701307EA0184701861000000000000
B0448203133887S11701363EA0184501858000000000000
B0448243133972S11701343EA0184501859000000000000
B0448283134017S11701269EA0184801864000000000000
B0448323134009S11701195EA0185401872000000000000
B0448363133974S11701146EA0186201877000000000000
B0448403133926S11701142EA0186801885000000000000
B0448443133898S11701204EA0186901884000000000000
B0448483133931S11701287EA0186801882000000000000
B0448523134010S11701321EA0186901888000000000000
B0448563134087S11701290EA0187101887000000000000
B0449003134128S11701217EA0187101888000000000000
B0449043134139S11701137EA0187201891000000000000
B0449083134117S11701079EA0187801898000000000000
B0449123134069S11701089EA0188001899000000000000
B0449163134046S11701161EA0188101901000000000000
B0449203134087S11701243EA0188101900000000000000
B0449243134171S11701277EA0187801896000000000000
B0449283134254S11701247EA0187601898000000000000
B0449323134301S11701177EA0188001902000000000000
B0449363134299S11701105EA0188301906000000000000
B0449403134254S11701083EA0189401919000000000000
B0449443134226S11701142EA0190401926000000000000
B0449483134247S11701226EA0190901932000000000000
B0449523134314S11701284EA0191001933000000000000
B0449563134392S11701276EA0191801940000000000000
B0450003134435S11701213EA0191701936000000000000
B0450043134427S11701147EA0191401937000000000000
B0450083134381S11701133EA0192201946000000000000
B0450123134344S11701186EA0193101955000000000000
B0450163134349S11701272EA0194101965000000000000
B0450203134405S11701342EA0194201965000000000000
B0450243134488S11701355EA0194101963000000000000
B0450283134555S11701302EA0194201967000000000000
B0450323134574S11701224EA0194101963000000000000
B0450363134555S11701151EA0193901964000000000000
B0450403134520S11701096EA0194901980000000000000
B0450443134470S11701089EA0196601997000000000000
B0450483134444S11701148EA0198002011000000000000
B0450523134486S11701224EA0198902020000000000000
B0450563134566S11701238EA0199902028000000000000
B0451003134628S11701186EA0200402032000000000000
B0451043134635S11701115EA0201002040000000000000
B0451083134598S11701081EA0202402056000000000000
B0451123134557S11701115EA0203202060000000000000
B0451163134551S11701195EA0203002059000000000000
B0451203134602S11701276EA0204102073000000000000
B0451243134682S11701307EA0205602091000000000000
B0451283134758S11701278EA0207002102000000000000
B0451323134794S11701213EA0208102110000000000000
B0451363134782S11701155EA0208702119000000000000
B0451403134741S11701144EA0209902132000000000000
B0451443134708S11701190EA0210702138000000000000
B0451483134711S11701268EA0211202143000000000000
B0451523134759S11701342EA0212402157000000000000
B0451563134830S11701382EA0213702174000000000000
B0452003134906S11701372EA0214902183000000000000
B0452043134950S11701316EA0215202182000000000000
B0452083134947S11701250EA0215002184000000000000
B0452123134911S11701221EA0216402204000000000000
B0452163134876S11701241EA0218302218000000000000
B0452203134854S11701298EA0218402216000000000000
B0452243134868S11701376EA0219102226000000000000
B0452283134925S11701434EA0220202237000000000000
B0452323135003S11701450EA0220802244000000000000
B0452363135068S11701412EA0221302251000000000000
B0452403135101S11701349EA0222002253000000000000
B0452443135094S11701285EA0222102259000000000000
B0452483135057S11701258EA0223202272000000000000
B0452523135015S11701282EA0223202261000000000000
B0452563134994S11701358EA0222102258000000000000
B0453003135018S11701445EA0223402274000000000000
B0453043135084S11701495EA0224802286000000000000
B0453083135163S11701488EA0225302290000000000000
B0453123135214S11701425EA0225302292000000000000
B0453163135209S11701358EA0225902304000000000000
B0453203135170S11701337EA0227402317000000000000
B0453243135129S11701371EA0227402306000000000000
B0453283135122S11701455EA0226302300000000000000
B0453323135172S11701534EA0226802313000000000000
B0453363135252S11701558EA0228402326000000000000
B0453403135326S11701524EA0228302322000000000000
B0453443135362S11701450EA0228402330000000000000
B0453483135357S11701382EA0229402340000000000000
B0453523135322S11701349EA0230102342000000000000
B0453563135272S11701356EA0229702337000000000000
B0454003135229S11701407EA0229302333000000000000
B0454043135219S11701489EA0229902344000000000000
B0454083135258S11701567EA0231102355000000000000
B0454123135335S11701605EA0231802361000000000000
B0454163135413S11701580EA0232102363000000000000
B0454203135470S11701518EA0232202365000000000000
B0454243135500S11701442EA0232102363000000000000
B0454283135492S11701375EA0232402367000000000000
B0454323135461S11701326EA0232302365000000000000
B0454363135418S11701293EA0231302352000000000000
B0454403135369S11701256EA0230002337000000000000
B0454443135314S11701220EA0228402317000000000000
B0454483135252S11701183EA0226502297000000000000
B0454523135183S11701146EA0224302278000000000000
B0454563135111S11701111EA0222902264000000000000
B0455003135047S11701063EA0222602261000000000000
B0455043135014S11700982EA0222102255000000000000
B0455083135016S11700883EA0221202245000000000000
B0455123135059S11700787EA0220302235000000000000
B0455163135136S11700710EA0219402226000000000000
B0455203135231S11700652EA0219002228000000000000
B0455243135320S11700600EA0220802253000000000000
B0455283135369S11700527EA0223602280000000000000
B0455323135362S11700459EA0224902283000000000000
B0455363135314S11700439EA0224202273000000000000
B0455403135272S11700494EA0223802276000000000000
B0455443135275S11700584EA0224302282000000000000
B0455483135323S11700670EA0224502282000000000000
B0455523135404S11700717EA0224802288000000000000
B0455563135489S11700709EA0225702297000000000000
B0456003135547S11700652EA0227202313000000000000
B0456043135567S11700583EA0227702315000000000000
B0456083135553S11700519EA0227402311000000000000
B0456123135513S11700480EA0226702306000000000000
B0456163135463S11700492EA0226702307000000000000
B0456203135437S11700554EA0227302313000000000000
B0456243135469S11700632EA0227802314000000000000
B0456283135547S11700678EA0226902307000000000000
B0456323135642S11700689EA0225302290000000000000
B0456363135743S11700687EA0224602281000000000000
B0456403135850S11700688EA0223202270000000000000
B0456443135959S11700686EA0222102257000000000000
B0456483136073S11700673EA0220702248000000000000
B0456523136188S11700654EA0220702243000000000000
B0456563136307S11700650EA0219902231000000000000
B0457003136425S11700674EA0219402232000000000000
B0457043136533S11700719EA0220702258000000000000
B0457083136623S11700773EA0224002286000000000000
B0457123136704S11700829EA0225502293000000000000
B0457163136780S11700894EA0225302284000000000000
B0457203136854S11700966EA0224102272000000000000
B0457243136925S11701047EA0223502270000000000000
B0457283136994S11701126EA0223902274000000000000
B0457323137064S11701204EA0224102272000000000000
B0457363137137S11701281EA0223802267000000000000
B0457403137211S11701360EA0223002261000000000000
B0457443137283S11701440EA0222402261000000000000
B0457483137355S11701515EA0222402256000000000000
B0457523137425S11701590EA0222002249000000000000
B0457563137495S11701666EA0220802235000000000000
B0458003137569S11701735EA0219702225000000000000
B0458043137646S11701805EA0218302212000000000000
B0458083137723S11701876EA0217602203000000000000
B0458123137798S11701948EA0216802194000000000000
B0458163137875S11702021EA0215802186000000000000
B0458203137949S11702095EA0215402177000000000000
B0458243138024S11702169EA0214502173000000000000
B0458283138100S11702240EA0214302170000000000000
B0458323138177S11702311EA0213802165000000000000
B0458363138253S11702379EA0212902152000000000000
B0458403138331S11702446EA0211402134000000000000
B0458443138412S11702511EA0209902118000000000000
B0458483138494S11702574EA0208102099000000000000
B0458523138580S11702641EA0206202079000000000000
B0458563138667S11702708EA0204202058000000000000
