ACAM4N6
HFDTE140314
HFFXA050
HFPLTPILOT:JOHN WELSH              
HFGTYGLIDERTYPE:HORNET      
HFGIDGLIDERID:VH-GMY      
HFDTM100GPSDATUM:
HFRFWFIRMWAREVERSION:F2.6
HFRHWHARDWAREVERSION:300 Series Version 2
HFFTYFRTYPE:CAMBRIDGE AERO INSTRUMENTS, 302+
HFGPS:GARMIN,LVS-25,12,18000
HFPRSPRESSALTSENSOR:INTERSEMA, MS5534-AP, 20000
I033638FXA3941ENL4247REX
LCAMSBVER:5FWVER:F26300
C140314053632140314000102
C0000000N00000000WTAKEOFF     
C3207549S11656849EBEVAIR      
C3155866S11750649ESHACKLTN    
C3244533S11709682EYornaing    
C3207549S11656849EBEVAIR      
C0000000N00000000WLANDING     
B0553173207339S11656858EA0018300217000000000000
B0553193207339S11656858EA0018200217000000000000
B0553213207339S11656858EA0018200217000000000000
B0553233207339S11656858EA0018300217000000000000
B0553253207339S11656858EA0018200217000000000000
B0553273207339S11656858EA0018200217000000000000
B0553293207339S11656858EA0018200217000000000000
B0553313207339S11656858EA0018200217000000000000
B0553333207339S11656858EA0018100217000000000000
B0553353207339S11656858EA0018100217000000000000
B0553373207339S11656860EA0018100217000000000000
B0553393207339S11656860EA0018200217000000000000
B0553413207341S11656860EA0018200217000000000000
B0553433207341S11656860EA0018200217000000000000
B0553453207343S11656862EA0018100217000000000000
B0553463207346S11656864EA0018100217000000000000
B0553503207365S11656879EA0018100216000000000000
B0553543207402S11656905EA0017900216000000000000
B0553583207454S11656936EA0018100216000000000000
B0554023207516S11656978EA0017800216000000000000
B0554063207585S11657027EA0018000218000000000000
B0554103207659S11657079EA0018500225000000000000
B0554143207731S11657127EA0020100246000000000000
B0554183207797S11657176EA0022600274000000000000
B0554223207859S11657224EA0025200303000000000000
B0554263207918S11657276EA0027300325000000000000
B0554303207967S11657333EA0029200346000000000000
B0554343208008S11657398EA0031400368000000000000
B0554383208035S11657472EA0033300387000000000000
B0554423208049S11657558EA0034700394000000000000
B0554463208062S11657646EA0035800408000000000000
B0554503208074S11657735EA0037500428000000000000
B0554543208084S11657820EA0039000445000000000000
B0554583208090S11657907EA0041000461000000000000
B0555023208092S11658000EA0042000475000000000000
B0555063208086S11658092EA0044100497000000000000
B0555103208080S11658183EA0046400519000000000000
B0555143208073S11658274EA0048700545000000000000
B0555183208070S11658364EA0051200567000000000000
B0555223208073S11658460EA0051100566000000000000
B0555263208077S11658552EA0052400584000000000000
B0555303208079S11658643EA0054300602000000000000
B0555343208088S11658733EA0056000618000000000000
B0555383208103S11658823EA0057200629000000000000
B0555423208116S11658914EA0058300639000000000000
B0555463208125S11659010EA0059600653000000000000
B0555503208131S11659111EA0060600665000000000000
B0555543208142S11659211EA0062900691000000000000
B0555583208164S11659289EA0065500729000000000000
B0556023208209S11659308EA0068800754000000000000
B0556063208216S11659249EA0070800772000000000000
B0556103208156S11659222EA0072200786000000000000
B0556143208117S11659275EA0072800788000000000000
B0556183208152S11659315EA0073200798000000000000
B0556223208170S11659267EA0075200816000000000000
B0556263208109S11659244EA0076000822000000015000
B0556303208074S11659306EA0077200835000000000000
B0556343208108S11659341EA0078500848000000015000
B0556383208131S11659293EA0079800862000000015000
B0556423208088S11659235EA0081000875000000015000
B0556463208021S11659243EA0082400886000000015000
B0556503207995S11659308EA0083500897000000015000
B0556543208034S11659348EA0084700913000000015000
B0556583208069S11659315EA0086900937000000015000
B0557023208051S11659254EA0088600951000000015000
B0557063207986S11659232EA0089100958000000015000
B0557103207931S11659276EA0089800963000000015000
B0557143207921S11659350EA0090200971000000015000
B0557183207957S11659400EA0091400983000000000000
B0557223207993S11659371EA0092800995000000015000
B0557263207952S11659317EA0093801007000000015000
B0557303207885S11659339EA0095701031000000015000
B0557343207874S11659409EA0097501046000000015000
B0557383207913S11659443EA0098501051000000015000
B0557423207945S11659400EA0099001059000000015000
B0557463207910S11659339EA0100101075000000015000
B0557503207841S11659356EA0102201097000000015000
B0557543207832S11659426EA0104301116000000015000
B0557583207872S11659454EA0105701124000000000000
B0558023207900S11659410EA0106601139000000000000
B0558063207858S11659358EA0108601158000000000000
B0558103207792S11659380EA0110101174000000000000
B0558143207794S11659447EA0111501188000000000000
B0558183207839S11659444EA0112801199000000000000
B0558223207831S11659383EA0114101214000000000000
B0558263207767S11659375EA0116301237000000000000
B0558303207745S11659441EA0117401247000000000000
B0558343207784S11659479EA0117801254000000000000
B0558383207814S11659435EA0119501271000000000000
B0558423207778S11659378EA0121301290000000000000
B0558463207714S11659391EA0123101311000000000000
B0558503207692S11659457EA0124501318000000000000
B0558543207729S11659500EA0125001327000000000000
B0558583207761S11659462EA0126601344000000000000
B0559023207723S11659408EA0127701354000000000000
B0559063207663S11659436EA0129501377000000000000
B0559103207658S11659499EA0130901381000000000000
B0559143207702S11659525EA0130501378000000000000
B0559183207741S11659484EA0130901386000000000000
B0559223207714S11659426EA0133001411000000000000
B0559263207653S11659441EA0135001427000000000000
B0559303207646S11659508EA0135701437000000000000
B0559343207689S11659526EA0136101443000000000000
B0559383207728S11659491EA0136501443000000000000
B0559423207731S11659427EA0136801448000000000000
B0559463207679S11659379EA0137101449000000000000
B0559503207602S11659380EA0136901444000000000000
B0559543207529S11659425EA0136901451000000000000
B0559583207485S11659499EA0138101461000000000000
B0600023207494S11659574EA0139301473000000000000
B0600063207537S11659568EA0140701485000000000000
B0600103207534S11659506EA0141101488000000000000
B0600143207481S11659457EA0141101490000000000000
B0600183207414S11659475EA0142301500000000000000
B0600223207402S11659547EA0143201515000000000000
B0600263207441S11659573EA0144401523000000000000
B0600303207459S11659525EA0144301522000000000000
B0600343207419S11659465EA0144201524000000000000
B0600383207349S11659452EA0145001532000000000000
B0600423207300S11659509EA0145701539000000000000
B0600463207310S11659577EA0146101541000000000000
B0600503207358S11659608EA0146201540000000000000
B0600543207407S11659584EA0145701534000000000000
B0600583207441S11659523EA0144701524000000000000
B0601023207464S11659445EA0143601510000000000000
B0601063207482S11659357EA0142001497000000000000
B0601103207494S11659262EA0140801477000000000000
B0601143207506S11659163EA0139501469000000000000
B0601183207520S11659071EA0139301465000000000000
B0601223207537S11658979EA0138301452000000000000
B0601263207550S11658881EA0136901435000000000000
B0601303207557S11658777EA0135201419000000000000
B0601343207564S11658673EA0134301412000000000000
B0601383207571S11658572EA0133801409000000000000
B0601423207573S11658473EA0133901410000000000000
B0601463207575S11658377EA0133701405000000000000
B0601503207573S11658282EA0133101399000000000000
B0601543207573S11658187EA0132701397000000000000
B0601583207572S11658095EA0132401391000000000000
B0602023207572S11658002EA0132601398000000000000
B0602063207573S11657911EA0132801396000000000000
B0602103207575S11657822EA0132301389000000000000
B0602143207577S11657732EA0131601383000000000000
B0602183207584S11657641EA0131001378000000000000
B0602223207592S11657551EA0130501370000000000000
B0602263207601S11657460EA0129101358000000000000
B0602303207609S11657368EA0128301349000000000000
B0602343207618S11657278EA0128301354000000000000
B0602383207619S11657192EA0129301366000000000000
B0602423207611S11657109EA0130101364000000000000
B0602463207605S11657027EA0129501357000000000000
B0602503207612S11656947EA0128901352000000000000
B0602543207635S11656871EA0128601350000000000000
B0602583207671S11656805EA0128101343000000000000
B0603023207710S11656740EA0127001332000000000000
B0603063207740S11656669EA0127101335000000000000
B0603103207728S11656593EA0128501348000000000000
B0603143207666S11656567EA0129201350000000000000
B0603183207609S11656611EA0128101338000000000000
B0603223207580S11656685EA0126601324000000000000
B0603263207559S11656769EA0125201315000000000000
B0603303207537S11656854EA0124201303000000000000
B0603343207511S11656948EA0122601289000000000000
B0603383207486S11657048EA0121501284000000000000
B0603423207463S11657147EA0121801288000000000000
B0603463207441S11657243EA0122301293000000000000
B0603503207419S11657337EA0123301303000000000000
B0603543207397S11657428EA0123401296000000000000
B0603583207375S11657527EA0121601281000000000000
B0604023207350S11657629EA0120001262000000000000
B0604063207324S11657738EA0118801255000000000000
B0604103207297S11657846EA0118401249000000000000
B0604143207265S11657954EA0117101240000000000000
B0604183207232S11658057EA0116801232000000000000
B0604223207195S11658158EA0115701222000000000000
B0604263207159S11658262EA0115401222000000000000
B0604303207125S11658364EA0117101241000000000000
B0604343207139S11658442EA0120701276000000000000
B0604383207178S11658425EA0124201310000000000000
B0604423207164S11658366EA0124801310000000000000
B0604463207096S11658355EA0124001308000000000000
B0604503207051S11658412EA0125101323000000000000
B0604543207066S11658470EA0126001331000000000000
B0604583207111S11658453EA0126801342000000000000
B0605023207104S11658387EA0127801355000000000000
B0605063207043S11658356EA0128701361000000000000
B0605103206985S11658398EA0129401367000000000000
B0605143206988S11658464EA0129601369000000000000
B0605183207037S11658470EA0130101381000000000000
B0605223207038S11658408EA0131501395000000000000
B0605263206979S11658374EA0132201398000000000000
B0605303206916S11658405EA0132401400000000000000
B0605343206873S11658476EA0130101365000000000000
B0605383206838S11658581EA0127301353000000000000
B0605423206804S11658693EA0126801350000000000000
B0605463206771S11658807EA0126101338000000000000
B0605503206740S11658923EA0125801338000000000000
B0605543206712S11659037EA0125501334000000000000
B0605583206688S11659146EA0125801336000000000000
B0606023206667S11659252EA0125901331000000000000
B0606063206648S11659358EA0124701315000000000000
B0606103206626S11659464EA0124401314000000000000
B0606143206605S11659569EA0125601336000000000000
B0606183206588S11659661EA0128401354000000000000
B0606223206565S11659756EA0126801330000000000000
B0606263206531S11659864EA0123901307000000000000
B0606303206491S11659973EA0123201300000000000000
B0606343206449S11700084EA0122601295000000000000
B0606383206410S11700189EA0123101300000000000000
B0606423206372S11700293EA0122901296000000000000
B0606463206335S11700400EA0121801281000000000000
B0606503206302S11700513EA0120401269000000000000
B0606543206266S11700624EA0119501260000000000000
B0606583206219S11700736EA0118501252000000000000
B0607023206171S11700847EA0117901246000000000000
B0607063206128S11700959EA0116701232000000000000
B0607103206091S11701074EA0115801222000000000000
B0607143206058S11701187EA0115901232000000000000
B0607183206026S11701290EA0117101239000000000000
B0607223205995S11701391EA0116401222000000000000
B0607263205964S11701503EA0114001202000000000000
B0607303205930S11701618EA0113401204000000000000
B0607343205899S11701719EA0115001223000000000000
B0607383205872S11701817EA0115401215000000000000
B0607423205850S11701919EA0115101215000000000000
B0607463205843S11702019EA0116201227000000000000
B0607503205861S11702113EA0116501229000000000000
B0607543205903S11702181EA0118501250000000000000
B0607583205960S11702165EA0119501260000000000000
B0608023205974S11702091EA0119801266000000000000
B0608063205950S11702018EA0120401276000000000000
B0608103205883S11701988EA0120901277000000000000
B0608143205815S11702039EA0119201261000000000000
B0608183205768S11702130EA0118401257000000000000
B0608223205731S11702223EA0119501275000000000000
B0608263205703S11702314EA0120201267000000000000
B0608303205674S11702416EA0117901245000000000000
B0608343205649S11702525EA0116301231000000000000
B0608383205627S11702634EA0115501222000000000000
B0608423205607S11702741EA0114901216000000000000
B0608463205586S11702846EA0114301205000000000000
B0608503205562S11702954EA0113401197000000000000
B0608543205539S11703061EA0112901197000000000000
B0608583205514S11703163EA0112801192000000000000
B0609023205490S11703265EA0112201185000000000000
B0609063205465S11703366EA0111501178000000000000
B0609103205443S11703466EA0111901186000000000000
B0609143205453S11703548EA0115201218000000000000
B0609183205495S11703530EA0118401242000000000000
B0609223205456S11703478EA0118801247000000000000
B0609263205395S11703510EA0119001255000000000000
B0609303205391S11703578EA0121301280000000000000
B0609343205435S11703577EA0122901292000000000000
B0609383205427S11703512EA0123301297000000000000
B0609423205362S11703505EA0124001307000000000000
B0609463205332S11703572EA0125301321000000000000
B0609503205370S11703609EA0127101343000000015000
B0609543205406S11703577EA0128101347000000000000
B0609583205395S11703513EA0127601341000000000000
B0610023205335S11703486EA0126801335000000000000
B0610063205270S11703525EA0127301346000000000000
B0610103205259S11703594EA0128901361000000000000
B0610143205309S11703591EA0129701373000000000000
B0610183205293S11703521EA0131201392000000000000
B0610223205228S11703520EA0133001408000000000000
B0610263205206S11703582EA0134001414000000000000
B0610303205249S11703614EA0134401418000000015000
B0610343205283S11703562EA0135301432000000015000
B0610383205246S11703501EA0136101439000000015000
B0610423205179S11703510EA0136901446000000015000
B0610463205155S11703577EA0137901456000000015000
B0610503205194S11703621EA0138401458000000015000
B0610543205245S11703585EA0138401462000000015000
B0610583205233S11703512EA0138601463000000015000
B0611023205167S11703490EA0138501460000000000000
B0611063205103S11703539EA0137801445000000000000
B0611103205070S11703631EA0135701432000000000000
B0611143205054S11703738EA0136001442000000000000
B0611183205054S11703838EA0137201441000000000000
B0611223205054S11703950EA0136001428000000000000
B0611263205048S11704068EA0134401412000000000000
B0611303205038S11704192EA0132501397000000000000
B0611343205029S11704315EA0131301386000000000000
B0611383205023S11704436EA0130401377000000000000
B0611423205016S11704552EA0130101378000000000000
B0611463205011S11704661EA0131201387000000000000
B0611503205010S11704764EA0131501385000000000000
B0611543205005S11704868EA0130301375000000000000
B0611583204996S11704970EA0130401377000000000000
B0612023204983S11705072EA0130301371000000000000
B0612063204970S11705174EA0129301364000000000000
B0612103204959S11705276EA0129301365000000000000
B0612143204947S11705376EA0129201362000000000000
B0612183204936S11705477EA0128401351000000000000
B0612223204924S11705580EA0128001352000000000000
B0612263204914S11705678EA0128801360000000000000
B0612303204908S11705770EA0129201360000000000000
B0612343204907S11705865EA0127501339000000000000
B0612383204902S11705970EA0125301312000000000000
B0612423204893S11706081EA0123501302000000000000
B0612463204880S11706190EA0122801295000000000000
B0612503204862S11706299EA0121901288000000000000
B0612543204841S11706406EA0121701286000000000000
B0612583204815S11706510EA0121101277000000000000
B0613023204789S11706611EA0120901277000000000000
B0613063204762S11706710EA0120501271000000000000
B0613103204732S11706807EA0119701262000000000000
B0613143204702S11706903EA0119101254000000000000
B0613183204671S11706998EA0119001258000000000000
B0613223204642S11707093EA0119501261000000000000
B0613263204622S11707186EA0121401284000000000000
B0613303204617S11707273EA0122501289000000000000
B0613343204616S11707364EA0122101280000000000000
B0613383204602S11707462EA0120501266000000000000
B0613423204580S11707563EA0119201254000000000000
B0613463204552S11707661EA0118401246000000000000
B0613503204524S11707759EA0117801236000000000000
B0613543204492S11707856EA0116601224000000000000
B0613583204461S11707955EA0115701217000000000000
B0614023204431S11708053EA0115301215000000000000
B0614063204408S11708150EA0114501205000000000000
B0614103204385S11708250EA0113501196000000000000
B0614143204362S11708352EA0112801191000000000000
B0614183204346S11708452EA0112401187000000000000
B0614223204333S11708549EA0111901179000000000000
B0614263204322S11708644EA0111601179000000000000
B0614303204313S11708735EA0111901177000000000000
B0614343204303S11708827EA0111101166000000000000
B0614383204288S11708924EA0109501155000000000000
B0614423204275S11709020EA0109101154000000000000
B0614463204262S11709111EA0109901164000000000000
B0614503204248S11709199EA0110701170000000000000
B0614543204248S11709284EA0111601181000000000000
B0614583204269S11709358EA0112401185000000000000
B0615023204297S11709433EA0111601168000000000000
B0615063204316S11709529EA0109801152000000000000
B0615103204318S11709636EA0108901150000000000000
B0615143204314S11709739EA0109201153000000000000
B0615183204309S11709841EA0109101147000000000000
B0615223204304S11709944EA0108301139000000000000
B0615263204290S11710049EA0107901136000000000000
B0615303204271S11710150EA0108001137000000000000
B0615343204248S11710246EA0108201142000000000000
B0615383204223S11710337EA0108401141000000000000
B0615423204206S11710425EA0108501140000000000000
B0615463204188S11710516EA0107301124000000000000
B0615503204164S11710612EA0105701111000000000000
B0615543204134S11710710EA0104701102000000000000
B0615583204101S11710806EA0103901091000000000000
B0616023204066S11710904EA0102501081000000000000
B0616063204030S11711001EA0101601074000000000000
B0616103203992S11711097EA0101301075000000000000
B0616143203957S11711187EA0102601092000000000000
B0616183203930S11711273EA0104501102000000000000
B0616223203911S11711364EA0103901090000000000000
B0616263203901S11711460EA0102801086000000000000
B0616303203898S11711552EA0102701082000000000000
B0616343203893S11711643EA0102101075000000000000
B0616383203884S11711739EA0100901061000000000000
B0616423203865S11711840EA0099701052000000000000
B0616463203839S11711942EA0098701042000000000000
B0616503203809S11712041EA0097901037000000000000
B0616543203775S11712137EA0097401029000000000000
B0616583203737S11712228EA0096901025000000000000
B0617023203699S11712319EA0096301016000000000000
B0617063203659S11712413EA0095201005000000000000
B0617103203619S11712506EA0094500998000000000000
B0617143203577S11712599EA0093700991000000000000
B0617183203537S11712691EA0092700980000000000000
B0617223203495S11712785EA0091600971000000000000
B0617263203458S11712878EA0091000962000000000000
B0617303203421S11712974EA0090000952000000000000
B0617343203386S11713072EA0089700952000000000000
B0617383203352S11713166EA0089800954000000000000
B0617423203322S11713260EA0089500946000000000000
B0617463203291S11713357EA0088400935000000000000
B0617503203261S11713453EA0087800938000000000000
B0617543203234S11713544EA0088900948000000000000
B0617583203211S11713634EA0089800956000000000000
B0618023203211S11713717EA0090600961000000000000
B0618063203241S11713784EA0090800956000000000000
B0618103203269S11713861EA0089400941000000000000
B0618143203272S11713956EA0087600921000000000000
B0618183203251S11714057EA0085300899000000000000
B0618223203218S11714159EA0084000889000000000000
B0618263203183S11714256EA0083100879000000000000
B0618303203144S11714351EA0081900869000000000000
B0618343203103S11714445EA0081300864000000000000
B0618383203062S11714537EA0080600857000000000000
B0618423203023S11714629EA0080700859000000000000
B0618463202986S11714722EA0080600855000000000000
B0618503202949S11714817EA0080200854000000000000
B0618543202913S11714906EA0080300853000000000000
B0618583202873S11714997EA0079300838000000000000
B0619023202831S11715088EA0078300833000000000000
B0619063202792S11715178EA0078100830000000000000
B0619103202753S11715266EA0077000818000000000000
B0619143202714S11715357EA0075700804000000000000
B0619183202675S11715450EA0075100798000000000000
B0619223202635S11715538EA0074900796000000000000
B0619263202594S11715624EA0074400789000000000000
B0619303202552S11715710EA0073600781000000000000
B0619343202511S11715797EA0072900773000000000000
B0619383202474S11715883EA0072600773000000000000
B0619423202437S11715968EA0072500769000000000000
B0619463202399S11716053EA0071600760000000000000
B0619503202362S11716139EA0071000751000000000000
B0619543202328S11716224EA0070300747000000000000
B0619583202293S11716308EA0069800740000000000000
B0620023202255S11716390EA0069400737000000000000
B0620063202214S11716470EA0068500727000000000000
B0620103202173S11716551EA0067800719000000000000
B0620143202133S11716626EA0067300715000000000000
B0620183202097S11716699EA0067000710000000000000
B0620223202061S11716772EA0065600693000000000000
B0620263202026S11716851EA0064800688000000000000
B0620303202000S11716937EA0064600687000000000000
B0620343202000S11717025EA0064600689000000000000
B0620383202025S11717101EA0065400699000000000000
B0620423202077S11717103EA0067100729000000000000
B0620463202067S11717046EA0068800746000000000000
B0620503202003S11717050EA0070000756000000000000
B0620543201974S11717123EA0070500760000000000000
B0620583202011S11717168EA0071500773000000000000
B0621023202032S11717124EA0073000786000000000000
B0621063201982S11717089EA0073900796000000000000
B0621103201933S11717140EA0075400810000000000000
B0621143201937S11717210EA0075800812000000000000
B0621183201983S11717232EA0076100818000000000000
B0621223202006S11717184EA0076700821000000000000
B0621263201963S11717133EA0077000827000000000000
B0621303201899S11717163EA0078300842000000000000
B0621343201896S11717236EA0079600853000000000000
B0621383201942S11717258EA0079700854000000000000
B0621423201970S11717212EA0079800853000000000000
B0621463201944S11717151EA0080000856000000000000
B0621503201886S11717110EA0080700867000000000000
B0621543201817S11717132EA0081900878000000000000
B0621583201809S11717207EA0082500881000000000000
B0622023201857S11717209EA0083400895000000000000
B0622063201855S11717151EA0085000906000000000000
B0622103201794S11717123EA0085600915000000000000
B0622143201736S11717164EA0086900927000000000000
B0622183201735S11717236EA0087300928000000000000
B0622223201782S11717251EA0087300929000000000000
B0622263201795S11717196EA0088000938000000000000
B0622303201748S11717147EA0088900949000000000000
B0622343201682S11717160EA0089900958000000000000
B0622383201642S11717223EA0090400963000000000000
B0622423201645S11717296EA0090900970000000000000
B0622463201691S11717314EA0091500971000000000000
B0622503201717S11717267EA0091400972000000000000
B0622543201691S11717205EA0091900978000000000000
B0622583201640S11717154EA0092300979000000000000
B0623023201579S11717116EA0092100974000000000000
B0623063201508S11717133EA0090400952000000000000
B0623103201445S11717205EA0088100935000000000000
B0623143201395S11717290EA0088500944000000000000
B0623183201357S11717379EA0089100947000000000000
B0623223201327S11717470EA0088600935000000000000
B0623263201297S11717565EA0087200924000000000000
B0623303201265S11717660EA0086600919000000000000
B0623343201233S11717756EA0085600904000000000000
B0623383201201S11717855EA0084300894000000000000
B0623423201166S11717950EA0083700891000000000000
B0623463201128S11718043EA0082900879000000000000
B0623503201089S11718137EA0081500866000000000000
B0623543201049S11718230EA0080600852000000000000
B0623583201008S11718325EA0079500846000000000000
B0624023200968S11718416EA0079200840000000000000
B0624063200928S11718506EA0078800840000000000000
B0624103200889S11718593EA0079300846000000000000
B0624143200854S11718679EA0080100854000000000000
B0624183200820S11718762EA0080300851000000000000
B0624223200786S11718849EA0079700847000000000000
B0624263200756S11718935EA0079900849000000000000
B0624303200729S11719018EA0079900847000000000000
B0624343200706S11719105EA0078700830000000000000
B0624383200681S11719195EA0077700823000000000000
B0624423200659S11719283EA0077300824000000000000
B0624463200644S11719368EA0078500835000000000000
B0624503200672S11719426EA0079000836000000000000
B0624543200709S11719394EA0078800836000000000000
B0624583200687S11719324EA0079400844000000000000
B0625023200620S11719290EA0079600846000000000000
B0625063200548S11719305EA0079900849000000000000
B0625103200511S11719370EA0080100848000000000000
B0625143200547S11719394EA0079900859000000000000
B0625183200546S11719328EA0080000871000000000000
B0625223200479S11719300EA0081300880000000000000
B0625263200426S11719350EA0082200884000000000000
B0625303200444S11719412EA0082000880000000000000
B0625343200491S11719408EA0082300887000000000000
B0625383200483S11719348EA0083400896000000000000
B0625423200417S11719328EA0083300892000000000000
B0625463200361S11719378EA0084200903000000000000
B0625503200364S11719443EA0085000907000000000000
B0625543200408S11719455EA0084800902000000000000
B0625583200414S11719395EA0085000908000000000000
B0626023200352S11719364EA0085700914000000000000
B0626063200295S11719407EA0086600922000000000000
B0626103200295S11719471EA0087200927000000000000
B0626143200336S11719489EA0087400928000000000000
B0626183200356S11719442EA0087600930000000000000
B0626223200316S11719386EA0087800931000000000000
B0626263200248S11719393EA0087900934000000000000
B0626303200205S11719455EA0088200938000000000000
B0626343200183S11719533EA0087400926000000000000
B0626383200169S11719620EA0086500918000000000000
B0626423200156S11719715EA0085100906000000000000
B0626463200147S11719814EA0084400902000000000000
B0626503200139S11719913EA0085100909000000000000
B0626543200156S11719984EA0086600927000000000000
B0626583200191S11719949EA0088000949000000000000
B0627023200157S11719890EA0088600951000000000000
B0627063200085S11719877EA0088600950000000000000
B0627103200027S11719932EA0089100953000000000000
B0627143200010S11720011EA0089000953000000000000
B0627183200035S11720070EA0089900961000000000000
B0627223200074S11720052EA0090300962000000000000
B0627263200065S11719987EA0089800953000000000000
B0627303159998S11719976EA0089600953000000000000
B0627343159952S11720043EA0089300952000000000000
B0627383159936S11720122EA0088800945000000000000
B0627423159932S11720206EA0087200928000000000000
B0627463159931S11720297EA0086000916000000000000
B0627503159935S11720388EA0085200909000000000000
B0627543159937S11720479EA0084700901000000000000
B0627583159941S11720570EA0083800895000000000000
B0628023159945S11720657EA0084300904000000000000
B0628063159957S11720738EA0085200909000000000000
B0628103159970S11720816EA0085500908000000000000
B0628143159983S11720894EA0084700897000000000000
B0628183159994S11720976EA0084000891000000000000
B0628223159997S11721063EA0083400883000000000000
B0628263159992S11721155EA0082400874000000000000
B0628303159979S11721248EA0081300862000000000000
B0628343159961S11721340EA0080700853000000000000
B0628383159940S11721436EA0079500843000000000000
B0628423159920S11721530EA0079400849000000000000
B0628463159905S11721617EA0079900848000000000000
B0628503159892S11721703EA0079300840000000000000
B0628543159879S11721790EA0078500831000000000000
B0628583159866S11721879EA0077300819000000000000
B0629023159854S11721968EA0076300808000000000000
B0629063159853S11722055EA0075700803000000000000
B0629103159858S11722141EA0075500799000000000000
B0629143159875S11722221EA0075000794000000000000
B0629183159903S11722294EA0074400788000000000000
B0629223159929S11722368EA0074600791000000000000
B0629263159946S11722446EA0074900793000000000000
B0629303159959S11722531EA0074500789000000000000
B0629343159972S11722617EA0074400792000000000000
B0629383159987S11722700EA0074900795000000000000
B0629423200022S11722771EA0074600791000000000000
B0629463200076S11722784EA0075200798000000000000
B0629503200076S11722721EA0076000805000000000000
B0629543200009S11722698EA0076200811000000000000
B0629583159954S11722752EA0077200820000000000000
B0630023159966S11722819EA0077300816000000000000
B0630063200009S11722812EA0077200821000000000000
B0630103200005S11722750EA0077900827000000000000
B0630143159953S11722706EA0077900827000000000000
B0630183159884S11722697EA0078100829000000000000
B0630223159836S11722756EA0078500832000000000000
B0630263159842S11722828EA0078100827000000000000
B0630303159881S11722887EA0077400820000000000000
B0630343159931S11722931EA0077200820000000000000
B0630383159978S11722970EA0078600836000000000000
B0630423200015S11722947EA0079100839000000000000
B0630463159985S11722891EA0079100840000000000000
B0630503159913S11722897EA0079700848000000000000
B0630543159862S11722960EA0080100850000000000000
B0630583159875S11723025EA0080500855000000000000
B0631023159924S11723026EA0080800857000000000000
B0631063159948S11722966EA0081000860000000000000
B0631103159913S11722908EA0082100876000000000000
B0631143159848S11722913EA0084000891000000000000
B0631183159805S11722975EA0083800886000000000000
B0631223159822S11723038EA0083600886000000000000
B0631263159870S11723025EA0084000892000000000000
B0631303159875S11722961EA0084600896000000000000
B0631343159831S11722908EA0085500909000000000000
B0631383159760S11722904EA0086600917000000000000
B0631423159708S11722964EA0086900918000000000000
B0631463159719S11723029EA0087200925000000000000
B0631503159760S11723018EA0087800927000000000000
B0631543159763S11722957EA0087100923000000000000
B0631583159705S11722916EA0088400941000000000000
B0632023159633S11722922EA0089700950000000000000
B0632063159584S11722977EA0090200955000000000000
B0632103159577S11723047EA0090400956000000000000
B0632143159608S11723092EA0090800960000000000000
B0632183159647S11723078EA0091600967000000000000
B0632223159637S11723021EA0091700968000000000000
B0632263159575S11722991EA0091800970000000000000
B0632303159506S11723014EA0092100972000000000000
B0632343159463S11723077EA0092300973000000000000
B0632383159469S11723147EA0092400971000000000000
B0632423159512S11723190EA0090900954000000000000
B0632463159571S11723215EA0089500945000000000000
B0632503159632S11723230EA0089300943000000000000
B0632543159697S11723241EA0089000944000000000000
B0632583159763S11723246EA0089800951000000000000
B0633023159827S11723241EA0090600957000000000000
B0633063159837S11723177EA0091800980000000000000
B0633103159768S11723165EA0093000997000000000000
B0633143159728S11723228EA0094101010000000000000
B0633183159746S11723291EA0095301018000000000000
B0633223159796S11723285EA0095701018000000000000
B0633263159792S11723215EA0096001022000000000000
B0633303159733S11723173EA0096201022000000000000
B0633343159666S11723198EA0096701030000000000000
B0633383159637S11723264EA0097801041000000000000
B0633423159660S11723321EA0098701049000000000000
B0633463159706S11723306EA0099601057000000000000
B0633503159701S11723241EA0100101059000000000000
B0633543159642S11723198EA0099701055000000000000
B0633583159568S11723208EA0100401062000000000000
B0634023159536S11723270EA0101901077000000000000
B0634063159572S11723303EA0102301077000000000000
B0634103159612S11723259EA0101701073000000000000
B0634143159580S11723191EA0102601084000000000000
B0634183159511S11723187EA0103301097000000000000
B0634223159473S11723242EA0105001111000000000000
B0634263159498S11723286EA0105601111000000000000
B0634303159542S11723261EA0105101108000000000000
B0634343159530S11723195EA0105701113000000000000
B0634383159464S11723166EA0105601116000000000000
B0634423159413S11723216EA0106601129000000000000
B0634463159434S11723268EA0107601134000000000000
B0634503159477S11723247EA0107901137000000000000
B0634543159469S11723185EA0108501142000000000000
B0634583159408S11723163EA0108401143000000000000
B0635023159354S11723209EA0108801148000000000000
B0635063159346S11723281EA0109001149000000000000
B0635103159383S11723334EA0109001147000000000000
B0635143159432S11723324EA0109901159000000000000
B0635183159413S11723261EA0110901167000000000000
B0635223159344S11723248EA0110701166000000000000
B0635263159289S11723295EA0111401178000000000000
B0635303159268S11723367EA0112201184000000000000
B0635343159290S11723429EA0112501186000000000000
B0635383159338S11723434EA0112901191000000000000
B0635423159357S11723382EA0113501197000000000000
B0635463159328S11723325EA0113401192000000000000
B0635503159256S11723322EA0112401185000000000000
B0635543159209S11723390EA0113001195000000000000
B0635583159222S11723460EA0113801200000000000000
B0636023159270S11723488EA0113801198000000000000
B0636063159311S11723460EA0114001199000000000000
B0636103159308S11723402EA0114001198000000000000
B0636143159259S11723356EA0113401194000000000000
B0636183159187S11723339EA0113001189000000000000
B0636223159112S11723359EA0112601186000000000000
B0636263159045S11723406EA0113001192000000000000
B0636303159016S11723478EA0113101188000000000000
B0636343159034S11723547EA0112501185000000000000
B0636383159074S11723598EA0112301181000000000000
B0636423159125S11723632EA0110101154000000000000
B0636463159185S11723651EA0108401136000000000000
B0636503159246S11723666EA0107601131000000000000
B0636543159304S11723679EA0107401131000000000000
B0636583159360S11723690EA0107501128000000000000
B0637023159417S11723706EA0106701122000000000000
B0637063159474S11723723EA0106201119000000000000
B0637103159533S11723740EA0105901117000000000000
B0637143159593S11723759EA0105501110000000000000
B0637183159655S11723784EA0104301097000000000000
B0637223159719S11723811EA0102601080000000000000
B0637263159784S11723841EA0101601068000000000000
B0637303159849S11723868EA0100301058000000000000
B0637343159914S11723891EA0099301047000000000000
B0637383159980S11723913EA0098301037000000000000
B0637423200048S11723932EA0097301028000000000000
B0637463200115S11723953EA0096301020000000000000
B0637503200184S11723971EA0096001018000000000000
B0637543200251S11723989EA0096001015000000000000
B0637583200318S11724009EA0095501008000000000000
B0638023200384S11724030EA0094600997000000000000
B0638063200452S11724048EA0094701001000000000000
B0638103200518S11724058EA0095401012000000000000
B0638143200581S11724062EA0096601021000000000000
B0638183200643S11724061EA0097101022000000000000
B0638223200706S11724056EA0097501030000000000000
B0638263200763S11724041EA0097901030000000000000
B0638303200790S11723984EA0099001044000000000000
B0638343200758S11723924EA0100101052000000000000
B0638383200687S11723924EA0099501041000000000000
B0638423200642S11723992EA0098401035000000000000
B0638463200652S11724063EA0098001029000000000000
B0638503200699S11724101EA0097101021000000000000
B0638543200755S11724119EA0096101012000000000000
B0638583200816S11724118EA0095601008000000000000
B0639023200873S11724092EA0094400992000000000000
B0639063200924S11724047EA0092800978000000000000
B0639103200969S11723989EA0091600967000000000000
B0639143201011S11723926EA0090600952000000000000
B0639183201053S11723857EA0088900935000000000000
B0639223201093S11723783EA0087300921000000000000
B0639263201133S11723707EA0086200911000000000000
B0639303201172S11723632EA0085200903000000000000
B0639343201210S11723558EA0084700897000000000000
B0639383201245S11723485EA0084300892000000000000
B0639423201278S11723416EA0084100889000000000000
B0639463201310S11723347EA0083300880000000000000
B0639503201341S11723278EA0082900876000000000000
B0639543201370S11723209EA0082000865000000000000
B0639583201400S11723139EA0080600852000000000000
B0640023201434S11723070EA0080400852000000000000
B0640063201483S11723029EA0081200861000000000000
B0640103201534S11722999EA0081100855000000000000
B0640143201586S11722966EA0080300848000000000000
B0640183201636S11722935EA0080000844000000000000
B0640223201686S11722896EA0079600841000000000000
B0640263201733S11722857EA0080000849000000000000
B0640303201775S11722814EA0081000854000000000000
B0640343201764S11722753EA0081400860000000000000
B0640383201699S11722740EA0081200852000000000000
B0640423201645S11722804EA0080900853000000000000
B0640463201639S11722880EA0081400861000000000000
B0640503201681S11722903EA0082800876000000000000
B0640543201691S11722857EA0083100876000000000000
B0640583201638S11722823EA0082000861000000000000
B0641023201577S11722869EA0081000860000000000000
B0641063201560S11722945EA0081700867000000000000
B0641103201593S11722990EA0082200871000000000000
B0641143201629S11722965EA0082400870000000000000
B0641183201616S11722903EA0082400870000000000000
B0641223201549S11722877EA0082100865000000000000
B0641263201491S11722929EA0081800866000000000000
B0641303201492S11723003EA0082300872000000000000
B0641343201525S11723057EA0082600873000000000000
B0641383201573S11723090EA0082200870000000000000
B0641423201626S11723090EA0082000866000000000000
B0641463201677S11723062EA0081600863000000000000
B0641503201723S11723017EA0080600856000000000000
B0641543201765S11722965EA0080000846000000000000
B0641583201812S11722912EA0078700834000000000000
B0642023201850S11722849EA0078200831000000000000
B0642063201879S11722780EA0077400821000000000000
B0642103201903S11722708EA0076500811000000000000
B0642143201922S11722631EA0076000807000000000000
B0642183201938S11722555EA0075700802000000000000
B0642223201951S11722479EA0074700792000000000000
B0642263201965S11722402EA0073600780000000000000
B0642303201977S11722325EA0072800773000000000000
B0642343201987S11722247EA0072000764000000000000
B0642383201998S11722168EA0071200756000000000000
B0642423202008S11722090EA0070800755000000000000
B0642463202017S11722013EA0070800752000000000000
B0642503202026S11721935EA0069900742000000000000
B0642543202051S11721868EA0069900743000000000000
B0642583202094S11721824EA0070400746000000000000
B0643023202143S11721794EA0069700736000000000000
B0643063202193S11721753EA0068400723000000000000
B0643103202238S11721705EA0067300712000000000000
B0643143202284S11721651EA0066200704000000000000
B0643183202325S11721588EA0065400696000000000000
B0643223202364S11721525EA0064800689000000000000
B0643263202401S11721461EA0064200682000000000000
B0643303202435S11721395EA0063500676000000000000
B0643343202450S11721322EA0063300671000000000000
B0643383202451S11721245EA0063100673000000000000
B0643423202429S11721171EA0064400688000000000000
B0643463202366S11721157EA0065800702000000000000
B0643503202337S11721227EA0066300704000000000000
B0643543202376S11721263EA0066300706000000000000
B0643583202405S11721223EA0067000719000000000000
B0644023202379S11721168EA0067900724000000000000
B0644063202314S11721166EA0068200725000000000000
B0644103202282S11721233EA0068600732000000000000
B0644143202311S11721287EA0069000736000000000000
B0644183202353S11721279EA0069700744000000000000
B0644223202359S11721226EA0070300751000000000000
B0644263202323S11721175EA0070900757000000000000
B0644303202259S11721174EA0071400762000000000000
B0644343202217S11721236EA0071800764000000000000
B0644383202236S11721301EA0071800765000000000000
B0644423202284S11721307EA0071900766000000000000
B0644463202298S11721255EA0072600772000000000000
B0644503202256S11721209EA0073100777000000000000
B0644543202194S11721229EA0073500780000000000000
B0644583202186S11721302EA0073900785000000000000
B0645023202229S11721330EA0074400792000000000000
B0645063202256S11721288EA0074600788000000000000
B0645103202229S11721232EA0074400792000000000000
B0645143202164S11721227EA0075000795000000000000
B0645183202119S11721284EA0075300800000000000000
B0645223202141S11721344EA0076000804000000000000
B0645263202189S11721353EA0075800798000000000000
B0645303202204S11721294EA0075100793000000000000
B0645343202164S11721237EA0074900790000000000000
B0645383202095S11721201EA0074700793000000000000
B0645423202032S11721233EA0075800803000000000000
B0645463202058S11721287EA0076600812000000000000
B0645503202086S11721246EA0077800824000000000000
B0645543202047S11721197EA0078000826000000000000
B0645583201987S11721235EA0078500835000000000000
B0646023201989S11721305EA0079800847000000000000
B0646063202035S11721318EA0080400852000000000000
B0646103202055S11721266EA0080800856000000000000
B0646143202013S11721216EA0081400863000000000000
B0646183201948S11721236EA0082000869000000000000
B0646223201926S11721307EA0083300885000000000000
B0646263201963S11721346EA0084200890000000000000
B0646303202006S11721324EA0084800899000000000000
B0646343202011S11721265EA0085500902000000000000
B0646383201973S11721211EA0086000909000000000000
B0646423201909S11721197EA0086700915000000000000
B0646463201853S11721239EA0087300928000000000000
B0646503201838S11721305EA0088500934000000000000
B0646543201870S11721350EA0088700936000000000000
B0646583201916S11721339EA0089000943000000000000
B0647023201925S11721280EA0090300954000000000000
B0647063201882S11721232EA0091200965000000000000
B0647103201817S11721242EA0092100973000000000000
B0647143201783S11721305EA0093300984000000000000
B0647183201803S11721367EA0094000990000000000000
B0647223201851S11721383EA0094501000000000000000
B0647263201881S11721344EA0095701011000000000000
B0647303201856S11721289EA0096901021000000000000
B0647343201792S11721292EA0097501027000000000000
B0647383201755S11721354EA0098001032000000000000
B0647423201785S11721411EA0098801043000000000000
B0647463201831S11721400EA0100001056000000000000
B0647503201839S11721343EA0100501054000000000000
B0647543201801S11721289EA0100901062000000000000
B0647583201736S11721275EA0101801069000000000000
B0648023201683S11721322EA0102301077000000000000
B0648063201691S11721385EA0103101086000000000000
B0648103201739S11721392EA0103801094000000000000
B0648143201760S11721337EA0104801107000000000000
B0648183201729S11721281EA0106401119000000000000
B0648223201664S11721267EA0107001126000000000000
B0648263201612S11721314EA0107701133000000000000
B0648303201616S11721383EA0107701132000000000000
B0648343201664S11721410EA0108201139000000000000
B0648383201701S11721372EA0109201155000000000000
B0648423201695S11721310EA0110101155000000000000
B0648463201638S11721268EA0110201165000000000000
B0648503201571S11721285EA0111801179000000000000
B0648543201544S11721352EA0112001177000000000000
B0648583201578S11721404EA0112201180000000000000
B0649023201629S11721395EA0113001190000000000000
B0649063201632S11721339EA0114301202000000000000
B0649103201583S11721297EA0114601206000000000000
B0649143201518S11721320EA0115201210000000000000
B0649183201502S11721393EA0115201211000000000000
B0649223201540S11721443EA0115601215000000000000
B0649263201591S11721434EA0116301227000000000000
B0649303201605S11721379EA0117101231000000000000
B0649343201574S11721319EA0116901227000000000000
B0649383201512S11721274EA0116501228000000000000
B0649423201441S11721237EA0117001231000000000000
B0649463201369S11721249EA0117701238000000000000
B0649503201341S11721322EA0117801237000000000000
B0649543201375S11721379EA0117601236000000000000
B0649583201434S11721385EA0118001243000000000000
B0650023201465S11721343EA0119501258000000000000
B0650063201436S11721285EA0119801262000000000000
B0650103201371S11721270EA0120001263000000000000
B0650143201315S11721319EA0120201265000000000000
B0650183201307S11721391EA0120301265000000000000
B0650223201339S11721453EA0120001263000000000000
B0650263201382S11721509EA0119901262000000000000
B0650303201430S11721557EA0120301265000000000000
B0650343201486S11721584EA0120101261000000000000
B0650383201541S11721560EA0118801245000000000000
B0650423201586S11721499EA0116901223000000000000
B0650463201621S11721423EA0115001208000000000000
B0650503201655S11721344EA0113801198000000000000
B0650543201684S11721266EA0112801189000000000000
B0650583201713S11721185EA0112501183000000000000
B0651023201736S11721102EA0111601174000000000000
B0651063201759S11721016EA0110601163000000000000
B0651103201781S11720932EA0109401151000000000000
B0651143201799S11720841EA0107901137000000000000
B0651183201816S11720752EA0107201128000000000000
B0651223201833S11720665EA0106701122000000000000
B0651263201850S11720578EA0105801112000000000000
B0651303201864S11720494EA0105701116000000000000
B0651343201874S11720412EA0106101115000000000000
B0651383201886S11720330EA0105801115000000000000
B0651423201898S11720253EA0106401120000000000000
B0651463201908S11720176EA0106401117000000000000
B0651503201918S11720101EA0106401119000000000000
B0651543201930S11720028EA0106801122000000000000
B0651583201944S11719955EA0106501114000000000000
B0652023201965S11719880EA0105701109000000000000
B0652063201986S11719803EA0106301121000000000000
B0652103202008S11719728EA0107801135000000000000
B0652143202038S11719662EA0109001142000000000000
B0652183202089S11719653EA0110501161000000000000
B0652223202107S11719703EA0111301169000000000000
B0652263202068S11719758EA0111601173000000000000
B0652303202003S11719766EA0111801179000000000000
B0652343201952S11719720EA0112901188000000000000
B0652383201947S11719656EA0113101184000000000000
B0652423201989S11719614EA0112001173000000000000
B0652463202045S11719604EA0111301167000000000000
B0652503202097S11719621EA0111201164000000000000
B0652543202151S11719627EA0109901148000000000000
B0652583202201S11719580EA0108901146000000000000
B0653023202241S11719516EA0108301137000000000000
B0653063202272S11719443EA0106801123000000000000
B0653103202299S11719365EA0106501124000000000000
B0653143202323S11719289EA0106501122000000000000
B0653183202346S11719212EA0106701127000000000000
B0653223202366S11719138EA0107301132000000000000
B0653263202388S11719066EA0107201127000000000000
B0653303202412S11718992EA0106101116000000000000
B0653343202438S11718917EA0105101106000000000000
B0653383202466S11718841EA0104501101000000000000
B0653423202493S11718767EA0103801093000000000000
B0653463202519S11718691EA0103401086000000000000
B0653503202544S11718610EA0102601077000000000000
B0653543202567S11718528EA0101601067000000000000
B0653583202591S11718442EA0100501055000000000000
B0654023202613S11718356EA0100101054000000000000
B0654063202631S11718272EA0100001051000000000000
B0654103202649S11718186EA0099501046000000000000
B0654143202666S11718100EA0099901053000000000000
B0654183202697S11718030EA0100801065000000000000
B0654223202750S11718021EA0102801089000000000000
B0654263202756S11718080EA0105401112000000000000
B0654303202693S11718115EA0104501086000000000000
B0654343202627S11718073EA0103601094000000000000
B0654383202604S11718000EA0104601102000000000000
B0654423202630S11717950EA0105901117000000000000
B0654463202670S11717969EA0107301131000000000000
B0654503202676S11718034EA0107301129000000000000
B0654543202632S11718096EA0107301131000000000000
B0654583202559S11718115EA0107501134000000000000
B0655023202489S11718083EA0107601131000000000000
B0655063202446S11718016EA0107301129000000000000
B0655103202446S11717940EA0108301141000000000000
B0655143202481S11717891EA0108701144000000000000
B0655183202536S11717874EA0108501138000000000000
B0655223202597S11717881EA0108401142000000000000
B0655263202653S11717914EA0109601156000000000000
B0655303202646S11717986EA0112201188000000000000
B0655343202591S11718012EA0113901193000000000000
B0655383202535S11717978EA0113401189000000000000
B0655423202519S11717911EA0114001201000000000000
B0655463202555S11717874EA0116201225000000000000
B0655503202598S11717904EA0117801239000000000000
B0655543202597S11717972EA0119001248000000000000
B0655583202549S11718030EA0119501253000000000000
B0656023202483S11718033EA0120301265000000000000
B0656063202450S11717979EA0121601276000000000000
B0656103202474S11717927EA0122401286000000000000
B0656143202526S11717931EA0123301297000000000000
B0656183202555S11717990EA0124601307000000000000
B0656223202540S11718065EA0124601304000000000000
B0656263202485S11718120EA0123801294000000000000
B0656303202410S11718126EA0123301293000000000000
B0656343202346S11718087EA0123401295000000000000
B0656383202316S11718018EA0124101302000000000000
B0656423202349S11717969EA0125001316000000000000
B0656463202399S11717989EA0126201328000000000000
B0656503202402S11718059EA0127801347000000000000
B0656543202347S11718096EA0129501360000000000000
B0656583202294S11718072EA0130601371000000000000
B0657023202277S11718016EA0131201375000000000000
B0657063202299S11717964EA0131701382000000000000
B0657103202349S11717950EA0132201388000000000000
B0657143202394S11717986EA0133801403000000000000
B0657183202399S11718054EA0134701413000000000000
B0657223202357S11718116EA0135001412000000000000
B0657263202285S11718124EA0135201419000000000000
B0657303202241S11718072EA0136501434000000000000
B0657343202249S11718009EA0137401443000000000000
B0657383202295S11717982EA0138701457000000000000
B0657423202338S11718017EA0140301473000000000000
B0657463202337S11718082EA0141701482000000000000
B0657503202290S11718134EA0141801482000000000000
B0657543202220S11718138EA0141701483000000000000
B0657583202169S11718091EA0143101499000000000000
B0658023202171S11718030EA0144101510000000000000
B0658063202217S11718011EA0144801519000000000000
B0658103202264S11718044EA0145401524000000000000
B0658143202279S11718113EA0146201532000000000000
B0658183202246S11718182EA0146701535000000000000
B0658223202181S11718212EA0147001541000000000000
B0658263202117S11718189EA0147801546000000000000
B0658303202085S11718124EA0147701546000000000000
B0658343202086S11718050EA0148201551000000000000
B0658383202121S11717990EA0148501554000000000000
B0658423202178S11717974EA0149601566000000000000
B0658463202229S11718012EA0150001567000000000000
B0658503202240S11718087EA0149601555000000000000
B0658543202191S11718150EA0148301547000000000000
B0658583202121S11718150EA0148401554000000000000
B0659023202064S11718107EA0149101559000000000000
B0659063202025S11718050EA0149501564000000000000
B0659103202008S11717979EA0149301557000000000000
B0659143202015S11717904EA0148801557000000000000
B0659183202033S11717829EA0148801556000000000000
B0659223202058S11717752EA0148401549000000000000
B0659263202087S11717671EA0146901528000000000000
B0659303202117S11717583EA0144701508000000000000
B0659343202147S11717489EA0143301497000000000000
B0659383202175S11717396EA0142801494000000000000
B0659423202201S11717301EA0142401487000000000000
B0659463202229S11717206EA0142201489000000000000
B0659503202258S11717114EA0142301486000000000000
B0659543202284S11717021EA0141301476000000000000
B0659583202311S11716928EA0140201465000000000000
B0700023202338S11716837EA0139901463000000000000
B0700063202364S11716748EA0139601458000000000000
B0700103202389S11716659EA0138901450000000000000
B0700143202412S11716569EA0138101443000000000000
B0700183202431S11716478EA0137901443000000000000
B0700223202449S11716392EA0137901442000000000000
B0700263202467S11716306EA0137201432000000000000
B0700303202487S11716219EA0136501429000000000000
B0700343202503S11716136EA0137301439000000000000
B0700383202522S11716058EA0138201449000000000000
B0700423202536S11715985EA0138901448000000000000
B0700463202549S11715906EA0137601432000000000000
B0700503202565S11715821EA0137001432000000000000
B0700543202580S11715737EA0137601438000000000000
B0700583202596S11715655EA0137901442000000000000
B0701023202611S11715573EA0137801437000000000000
B0701063202627S11715491EA0137601435000000000000
B0701103202643S11715404EA0137201431000000000000
B0701143202659S11715313EA0137501434000000000000
B0701183202675S11715220EA0137201435000000000000
B0701223202688S11715129EA0137601437000000000000
B0701263202698S11715038EA0137101428000000000000
B0701303202713S11714947EA0135801413000000000000
B0701343202728S11714853EA0134301399000000000000
B0701383202743S11714758EA0133101389000000000000
B0701423202754S11714663EA0132401382000000000000
B0701463202767S11714571EA0132101382000000000000
B0701503202779S11714484EA0132401385000000000000
B0701543202791S11714403EA0132301383000000000000
B0701583202802S11714325EA0132201378000000000000
B0702023202814S11714246EA0131401372000000000000
B0702063202826S11714168EA0131601376000000000000
B0702103202836S11714092EA0131201366000000000000
B0702143202849S11714016EA0130301361000000000000
B0702183202862S11713939EA0130101357000000000000
B0702223202878S11713860EA0128901346000000000000
B0702263202893S11713780EA0128401341000000000000
B0702303202913S11713702EA0127701331000000000000
B0702343202934S11713624EA0126701320000000000000
B0702383202956S11713544EA0125601315000000000000
B0702423202979S11713467EA0125601315000000000000
B0702463203005S11713392EA0125501308000000000000
B0702503203033S11713315EA0124501298000000000000
B0702543203061S11713234EA0123501285000000000000
B0702583203090S11713153EA0122301276000000000000
B0703023203116S11713071EA0121601268000000000000
B0703063203140S11712989EA0120801264000000000000
B0703103203161S11712909EA0120801264000000000000
B0703143203182S11712833EA0120601259000000000000
B0703183203203S11712757EA0119601245000000000000
B0703223203221S11712677EA0118301236000000000000
B0703263203234S11712596EA0117601228000000000000
B0703303203243S11712514EA0116901222000000000000
B0703343203252S11712436EA0116801223000000000000
B0703383203273S11712370EA0117301231000000000000
B0703423203302S11712317EA0117501222000000000000
B0703463203329S11712258EA0116201209000000000000
B0703503203358S11712196EA0115001197000000000000
B0703543203384S11712132EA0114101192000000000000
B0703583203410S11712064EA0113301179000000000000
B0704023203426S11711989EA0111601166000000000000
B0704063203443S11711910EA0111301168000000000000
B0704103203467S11711837EA0112401179000000000000
B0704143203494S11711771EA0113601194000000000000
B0704183203506S11711706EA0116001222000000000000
B0704223203462S11711660EA0117901235000000000000
B0704263203398S11711689EA0118401242000000000000
B0704303203382S11711758EA0119001250000000000000
B0704343203421S11711801EA0119401255000000000000
B0704383203471S11711794EA0121001273000000000000
B0704423203478S11711736EA0123101293000000000000
B0704463203430S11711694EA0123401293000000000000
B0704503203369S11711721EA0124001302000000000000
B0704543203360S11711786EA0124701309000000000000
B0704583203400S11711819EA0125701326000000000000
B0705023203443S11711802EA0127701343000000000000
B0705063203455S11711746EA0128401348000000000000
B0705103203421S11711693EA0128701350000000000000
B0705143203358S11711684EA0128601345000000000000
B0705183203307S11711738EA0128201346000000000000
B0705223203306S11711811EA0128601355000000000000
B0705263203343S11711850EA0130101370000000000000
B0705303203391S11711843EA0131001375000000000000
B0705343203416S11711794EA0131301378000000000000
B0705383203384S11711736EA0131601381000000000000
B0705423203309S11711724EA0130901370000000000000
B0705463203247S11711777EA0130201368000000000000
B0705503203239S11711858EA0130601377000000000000
B0705543203277S11711906EA0131601386000000000000
B0705583203329S11711906EA0132001388000000000000
B0706023203367S11711863EA0132601396000000000000
B0706063203350S11711799EA0133201400000000000000
B0706103203289S11711764EA0132701392000000000000
B0706143203218S11711797EA0132501392000000000000
B0706183203191S11711871EA0132601397000000000000
B0706223203213S11711929EA0133501407000000000000
B0706263203256S11711957EA0134001410000000000000
B0706303203308S11711949EA0134001408000000000000
B0706343203358S11711918EA0133501401000000000000
B0706383203398S11711860EA0132001385000000000000
B0706423203430S11711786EA0130001365000000000000
B0706463203462S11711703EA0128901357000000000000
B0706503203488S11711619EA0128201349000000000000
B0706543203511S11711533EA0127301341000000000000
B0706583203533S11711450EA0126401330000000000000
B0707023203555S11711368EA0125701324000000000000
B0707063203575S11711290EA0125601318000000000000
B0707103203594S11711208EA0124001300000000000000
B0707143203615S11711121EA0122601286000000000000
B0707183203637S11711034EA0121601278000000000000
B0707223203659S11710946EA0121001273000000000000
B0707263203683S11710862EA0120901271000000000000
B0707303203705S11710776EA0120401266000000000000
B0707343203725S11710693EA0120201264000000000000
B0707383203744S11710608EA0119701258000000000000
B0707423203763S11710524EA0119001249000000000000
B0707463203785S11710439EA0118201242000000000000
B0707503203803S11710354EA0117501234000000000000
B0707543203823S11710267EA0116901228000000000000
B0707583203842S11710181EA0116501222000000000000
B0708023203863S11710095EA0115901217000000000000
B0708063203883S11710009EA0115601214000000000000
B0708103203902S11709922EA0115501214000000000000
B0708143203920S11709839EA0115701216000000000000
B0708183203939S11709757EA0115501212000000000000
B0708223203954S11709676EA0115201209000000000000
B0708263203972S11709597EA0115101209000000000000
B0708303203995S11709520EA0115401216000000000000
B0708343204017S11709448EA0116401224000000000000
B0708383204057S11709401EA0117901240000000000000
B0708423204097S11709437EA0119101253000000000000
B0708463204080S11709513EA0120401267000000000000
B0708503204015S11709540EA0121901276000000000000
B0708543203966S11709496EA0121901273000000000000
B0708583203963S11709429EA0121901277000000000000
B0709023204000S11709402EA0122901288000000000000
B0709063204036S11709444EA0123701295000000000000
B0709103204031S11709520EA0124601305000000000000
B0709143203982S11709580EA0125601315000000000000
B0709183203913S11709581EA0126001317000000000000
B0709223203868S11709529EA0126101320000000000000
B0709263203871S11709468EA0126501328000000000000
B0709303203909S11709446EA0127401336000000000000
B0709343203948S11709483EA0127901345000000000000
B0709383203948S11709554EA0129301359000000000000
B0709423203902S11709607EA0130801367000000000000
B0709463203837S11709614EA0130501362000000000000
B0709503203780S11709575EA0130301362000000000000
B0709543203750S11709514EA0130801368000000000000
B0709583203751S11709451EA0131301376000000000000
B0710023203779S11709405EA0131801384000000000000
B0710063203822S11709394EA0133301405000000000000
B0710103203846S11709440EA0135001416000000000000
B0710143203818S11709507EA0135601421000000000000
B0710183203751S11709533EA0136501431000000000000
B0710223203688S11709507EA0137201436000000000000
B0710263203646S11709450EA0137401437000000000000
B0710303203636S11709381EA0137801441000000000000
B0710343203658S11709325EA0138001447000000000000
B0710383203699S11709292EA0138501454000000000000
B0710423203748S11709277EA0138901456000000000000
B0710463203792S11709306EA0139201458000000000000
B0710503203793S11709377EA0139201459000000000000
B0710543203738S11709440EA0139301458000000000000
B0710583203660S11709448EA0140101471000000000000
B0711023203625S11709385EA0141601486000000000000
B0711063203657S11709350EA0142601494000000000000
B0711103203696S11709381EA0143001496000000000000
B0711143203699S11709454EA0143101501000000000000
B0711183203660S11709531EA0143301500000000000000
B0711223203581S11709559EA0143701511000000000000
B0711263203507S11709531EA0145201526000000000000
B0711303203465S11709466EA0146401536000000000000
B0711343203472S11709402EA0147701550000000000000
B0711383203516S11709397EA0148601559000000000000
B0711423203536S11709455EA0149401566000000000000
B0711463203506S11709522EA0150401576000000000000
B0711503203443S11709552EA0151601583000000000000
B0711543203376S11709532EA0151601582000000000000
B0711583203326S11709475EA0151501582000000000000
B0712023203309S11709402EA0151401581000000000000
B0712063203316S11709328EA0150801573000000000000
B0712103203337S11709251EA0149901564000000000000
B0712143203365S11709172EA0148901557000000000000
B0712183203398S11709094EA0148701553000000000000
B0712223203434S11709015EA0147201536000000000000
B0712263203469S11708928EA0146201531000000000000
B0712303203502S11708847EA0146401535000000000000
B0712343203533S11708774EA0147001536000000000000
B0712383203566S11708699EA0146601526000000000000
B0712423203595S11708617EA0145901521000000000000
B0712463203627S11708536EA0145501513000000000000
B0712503203655S11708456EA0144801510000000000000
B0712543203681S11708378EA0144201501000000000000
B0712583203709S11708297EA0143101492000000000000
B0713023203733S11708216EA0142701492000000000000
B0713063203759S11708138EA0143201498000000000000
B0713103203781S11708062EA0143601504000000000000
B0713143203806S11707984EA0144501512000000000000
B0713183203833S11707906EA0145301515000000000000
B0713223203862S11707824EA0143901493000000000000
B0713263203896S11707735EA0141801474000000000000
B0713303203931S11707646EA0140501465000000000000
B0713343203969S11707553EA0139601454000000000000
B0713383204009S11707462EA0138701444000000000000
B0713423204054S11707371EA0137101429000000000000
B0713463204100S11707277EA0136301419000000000000
B0713503204143S11707179EA0135301413000000000000
B0713543204183S11707082EA0134601404000000000000
B0713583204219S11706983EA0134201403000000000000
B0714023204255S11706885EA0134001398000000000000
B0714063204286S11706786EA0133501397000000000000
B0714103204316S11706690EA0133501397000000000000
B0714143204343S11706597EA0133701397000000000000
B0714183204369S11706504EA0133201388000000000000
B0714223204398S11706411EA0132201377000000000000
B0714263204430S11706318EA0131801380000000000000
B0714303204461S11706233EA0133001393000000000000
B0714343204491S11706149EA0134201404000000000000
B0714383204522S11706071EA0134901406000000000000
B0714423204554S11705991EA0133501387000000000000
B0714463204586S11705902EA0131601370000000000000
B0714503204619S11705811EA0130901364000000000000
B0714543204656S11705720EA0129801350000000000000
B0714583204691S11705628EA0128601343000000000000
B0715023204723S11705538EA0128201340000000000000
B0715063204755S11705454EA0127801333000000000000
B0715103204784S11705371EA0127501333000000000000
B0715143204815S11705294EA0128001339000000000000
B0715183204845S11705217EA0127801334000000000000
B0715223204876S11705139EA0126701323000000000000
B0715263204907S11705057EA0126501325000000000000
B0715303204938S11704977EA0126701324000000000000
B0715343204967S11704899EA0126901327000000000000
B0715383204993S11704822EA0127701340000000000000
B0715423205016S11704747EA0128801342000000000000
B0715463205041S11704671EA0128201341000000000000
B0715503205064S11704596EA0128301340000000000000
B0715543205088S11704518EA0127101326000000000000
B0715583205114S11704436EA0126001310000000000000
B0716023205140S11704350EA0124801299000000000000
B0716063205165S11704262EA0123801296000000000000
B0716103205191S11704175EA0123601288000000000000
B0716143205222S11704086EA0122601276000000000000
B0716183205254S11703999EA0121601266000000000000
B0716223205285S11703911EA0120201253000000000000
B0716263205318S11703824EA0119601252000000000000
B0716303205350S11703742EA0119501250000000000000
B0716343205379S11703661EA0119201242000000000000
B0716383205409S11703577EA0118001229000000000000
B0716423205439S11703491EA0117201226000000000000
B0716463205467S11703405EA0116501215000000000000
B0716503205497S11703319EA0115701212000000000000
B0716543205525S11703237EA0115701208000000000000
B0716583205553S11703158EA0115101200000000000000
B0717023205583S11703079EA0114901203000000000000
B0717063205612S11703003EA0114901199000000000000
B0717103205640S11702927EA0114101195000000000000
B0717143205668S11702850EA0114601196000000000000
B0717183205694S11702773EA0114101189000000000000
B0717223205717S11702695EA0113801189000000000000
B0717263205738S11702617EA0114001193000000000000
B0717303205761S11702542EA0114501198000000000000
B0717343205785S11702467EA0115201206000000000000
B0717383205809S11702390EA0115301202000000000000
B0717423205837S11702308EA0114801201000000000000
B0717463205863S11702227EA0114301195000000000000
B0717503205891S11702145EA0112401176000000000000
B0717543205920S11702058EA0111001161000000000000
B0717583205951S11701969EA0109601150000000000000
B0718023205980S11701879EA0109001147000000000000
B0718063206008S11701793EA0108801145000000000000
B0718103206038S11701710EA0108601143000000000000
B0718143206067S11701629EA0108601141000000000000
B0718183206098S11701549EA0108001132000000000000
B0718223206132S11701467EA0107101126000000000000
B0718263206164S11701386EA0106601120000000000000
B0718303206197S11701307EA0105901113000000000000
B0718343206225S11701233EA0105401105000000000000
B0718383206254S11701159EA0105201107000000000000
B0718423206281S11701086EA0105201104000000000000
B0718463206309S11701012EA0105501112000000000000
B0718503206336S11700940EA0106301116000000000000
B0718543206362S11700868EA0106201116000000000000
B0718583206387S11700791EA0105901111000000000000
B0719023206411S11700713EA0105101102000000000000
B0719063206436S11700631EA0104301093000000000000
B0719103206461S11700550EA0103101083000000000000
B0719143206484S11700470EA0102201073000000000000
B0719183206507S11700389EA0101201063000000000000
B0719223206530S11700309EA0100501057000000000000
B0719263206552S11700229EA0100001051000000000000
B0719303206574S11700155EA0099301043000000000000
B0719343206595S11700084EA0098401030000000000000
B0719383206611S11700006EA0096501008000000000000
B0719423206628S11659922EA0094800997000000000000
B0719463206645S11659839EA0093900988000000000000
B0719503206665S11659757EA0093000979000000000000
B0719543206687S11659675EA0091900964000000000000
B0719583206708S11659587EA0090600956000000000000
B0720023206725S11659493EA0090000953000000000000
B0720063206735S11659400EA0089900948000000000000
B0720103206745S11659302EA0088400934000000000000
B0720143206757S11659202EA0087600929000000000000
B0720183206773S11659105EA0087500930000000000000
B0720223206793S11659024EA0088800944000000000000
B0720263206814S11658951EA0089700946000000000000
B0720303206829S11658873EA0089400940000000000000
B0720343206827S11658794EA0089000937000000000000
B0720383206816S11658712EA0088200928000000000000
B0720423206812S11658628EA0087000913000000000000
B0720463206821S11658543EA0085500899000000000000
B0720503206835S11658460EA0084100885000000000000
B0720543206857S11658379EA0083300877000000000000
B0720583206886S11658305EA0082300868000000000000
B0721023206920S11658236EA0081500859000000000000
B0721063206956S11658170EA0080400847000000000000
B0721103206996S11658108EA0079500836000000000000
B0721143207040S11658048EA0078500828000000000000
B0721183207085S11657991EA0077500815000000000000
B0721223207130S11657931EA0076400802000000000000
B0721263207178S11657872EA0075000789000000000000
B0721303207224S11657813EA0074300783000000000000
B0721343207267S11657751EA0073800776000000000000
B0721383207307S11657690EA0073100767000000000000
B0721423207346S11657627EA0072100759000000000000
B0721463207384S11657564EA0071400750000000000000
B0721503207423S11657502EA0070300740000000000000
B0721543207460S11657441EA0069300726000000000000
B0721583207501S11657380EA0067900714000000000000
B0722023207537S11657319EA0067400713000000000000
B0722063207568S11657259EA0067200704000000000000
B0722103207601S11657200EA0065900689000000000000
B0722143207632S11657140EA0064500678000000000000
B0722183207663S11657081EA0063400665000000000000
B0722223207694S11657021EA0062200653000000000000
B0722263207726S11656961EA0061200645000000000000
B0722303207759S11656904EA0060700643000000000000
B0722343207791S11656848EA0060700642000000000000
B0722383207820S11656795EA0060800643000000000000
B0722423207850S11656740EA0060800643000000000000
B0722463207871S11656679EA0060800643000000000000
B0722503207857S11656613EA0061700654000000000000
B0722543207823S11656555EA0062300658000000000000
B0722583207770S11656515EA0062000654000000000000
B0723023207701S11656528EA0061300651000000000000
B0723063207655S11656588EA0062100661000000000000
B0723103207651S11656661EA0062600666000000000000
B0723143207688S11656701EA0063500674000000000000
B0723183207735S11656683EA0062700663000000000000
B0723223207752S11656618EA0062500666000000000000
B0723263207720S11656553EA0062900667000000000000
B0723303207655S11656529EA0062800666000000000000
B0723343207593S11656561EA0063300676000000000000
B0723383207560S11656623EA0064500688000000000000
B0723423207563S11656687EA0065200691000000000000
B0723463207603S11656709EA0065600694000000000000
B0723503207640S11656671EA0065800696000000000000
B0723543207638S11656607EA0066000700000000000000
B0723583207589S11656559EA0066400706000000000000
B0724023207520S11656563EA0067300716000000000000
B0724063207471S11656617EA0068300728000000000000
B0724103207469S11656679EA0069300736000000000000
B0724143207510S11656701EA0069600734000000000000
B0724183207551S11656670EA0069700740000000000000
B0724223207540S11656606EA0070800752000000000000
B0724263207479S11656584EA0071400756000000000000
B0724303207432S11656628EA0072300766000000000000
B0724343207441S11656685EA0072800770000000000000
B0724383207486S11656701EA0073300775000000000000
B0724423207518S11656658EA0074200787000000000000
B0724463207490S11656602EA0075300802000000000000
B0724503207430S11656593EA0076500810000000000000
B0724543207386S11656637EA0077100813000000000000
B0724583207393S11656697EA0077200818000000000000
B0725023207430S11656723EA0078400830000000000000
B0725063207468S11656700EA0078800834000000000000
B0725103207466S11656641EA0079800844000000000000
B0725143207417S11656598EA0080300850000000000000
B0725183207352S11656602EA0081000860000000000000
B0725223207302S11656646EA0082000870000000000000
B0725263207290S11656711EA0082200871000000000000
B0725303207320S11656758EA0082800878000000000000
B0725343207367S11656757EA0083400884000000000000
B0725383207390S11656710EA0084400898000000000000
B0725423207373S11656653EA0085300904000000000000
B0725463207321S11656618EA0085800909000000000000
B0725503207259S11656631EA0086600919000000000000
B0725543207232S11656691EA0087500925000000000000
B0725583207254S11656744EA0088000932000000000000
B0726023207298S11656750EA0088900941000000000000
B0726063207326S11656709EA0089600951000000000000
B0726103207317S11656649EA0090100953000000000000
B0726143207268S11656604EA0090400956000000000000
B0726183207202S11656596EA0090700960000000000000
B0726223207146S11656636EA0092300980000000000000
B0726263207124S11656697EA0093600989000000000000
B0726303207142S11656757EA0094000991000000000000
B0726343207187S11656778EA0094300997000000000000
B0726383207226S11656744EA0095001002000000000000
B0726423207224S11656680EA0095201004000000000000
B0726463207173S11656633EA0095001001000000000000
B0726503207100S11656643EA0095001008000000000000
B0726543207055S11656698EA0096901029000000000000
B0726583207056S11656761EA0098601040000000000000
B0727023207096S11656791EA0098601038000000000000
B0727063207142S11656769EA0099301049000000000000
B0727103207155S11656714EA0100001053000000000000
B0727143207129S11656654EA0099701049000000000000
B0727183207069S11656617EA0099801050000000000000
B0727223207000S11656605EA0100501062000000000000
B0727263206947S11656640EA0102301083000000000000
B0727303206939S11656700EA0103701091000000000000
B0727343206972S11656737EA0104301099000000000000
B0727383207016S11656719EA0105101104000000000000
B0727423207026S11656657EA0105601112000000000000
B0727463206986S11656600EA0106501121000000000000
B0727503206923S11656589EA0107501132000000000000
B0727543206879S11656636EA0108601142000000000000
B0727583206884S11656697EA0109101148000000000000
B0728023206927S11656722EA0110301161000000000000
B0728063206966S11656693EA0111401177000000000000
B0728103206970S11656633EA0112701186000000000000
B0728143206930S11656576EA0113101187000000000000
B0728183206864S11656562EA0113501194000000000000
B0728223206814S11656604EA0115101211000000000000
B0728263206808S11656663EA0115601210000000000000
B0728303206844S11656701EA0115701214000000000000
B0728343206886S11656684EA0117301233000000000000
B0728383206891S11656624EA0118301244000000000000
B0728423206853S11656565EA0118801246000000000000
B0728463206788S11656545EA0119101253000000000000
B0728503206731S11656575EA0120301265000000000000
B0728543206705S11656632EA0121101268000000000000
B0728583206721S11656689EA0121001268000000000000
B0729023206765S11656709EA0121601275000000000000
B0729063206801S11656672EA0122301285000000000000
B0729103206805S11656606EA0123501295000000000000
B0729143206771S11656541EA0124001299000000000000
B0729183206709S11656507EA0124301306000000000000
B0729223206648S11656520EA0125301316000000000000
B0729263206609S11656570EA0125901319000000000000
B0729303206611S11656628EA0126001317000000000000
B0729343206654S11656659EA0125701315000000000000
B0729383206700S11656633EA0125801318000000000000
B0729423206704S11656568EA0125901317000000000000
B0729463206652S11656509EA0125301313000000000000
B0729503206576S11656489EA0125801319000000000000
B0729543206513S11656520EA0127001331000000000000
B0729583206474S11656578EA0126601324000000000000
B0730023206468S11656649EA0126101318000000000000
B0730063206502S11656697EA0125801314000000000000
B0730103206554S11656723EA0125601310000000000000
B0730143206611S11656740EA0125601315000000000000
B0730183206670S11656750EA0126101321000000000000
B0730223206727S11656758EA0126501324000000000000
B0730263206790S11656763EA0126001319000000000000
B0730303206853S11656760EA0126701327000000000000
B0730343206890S11656706EA0127001330000000000000
B0730383206871S11656637EA0126901326000000000000
B0730423206813S11656601EA0126501316000000000000
B0730463206744S11656614EA0124701296000000000000
B0730503206688S11656669EA0123801298000000000000
B0730543206652S11656740EA0124101294000000000000
B0730583206631S11656821EA0123601292000000000000
B0731023206628S11656903EA0124801305000000000000
B0731063206647S11656974EA0125101302000000000000
B0731103206689S11657020EA0124401295000000000000
B0731143206740S11657062EA0124101293000000000000
B0731183206796S11657103EA0123801292000000000000
B0731223206853S11657137EA0123901296000000000000
B0731263206913S11657163EA0123801291000000000000
B0731303206977S11657163EA0123201291000000000000
B0731343207025S11657127EA0123601296000000000000
B0731383207030S11657057EA0123501290000000000000
B0731423206988S11656990EA0122301276000000000000
B0731463206917S11656961EA0121201270000000000000
B0731503206844S11656977EA0121001268000000000000
B0731543206783S11657027EA0120701265000000000000
B0731583206747S11657107EA0120901267000000000000
B0732023206740S11657199EA0120301260000000000000
B0732063206749S11657296EA0119201245000000000000
B0732103206766S11657399EA0117701236000000000000
B0732143206787S11657499EA0117001227000000000000
B0732183206812S11657599EA0116001220000000000000
B0732223206838S11657698EA0115501212000000000000
B0732263206868S11657794EA0114401198000000000000
B0732303206897S11657891EA0112901182000000000000
B0732343206926S11657988EA0111501170000000000000
B0732383206956S11658084EA0110601160000000000000
B0732423206987S11658177EA0109701148000000000000
B0732463207020S11658266EA0108701138000000000000
B0732503207050S11658353EA0108601145000000000000
B0732543207073S11658438EA0109601150000000000000
B0732583207098S11658520EA0109401147000000000000
B0733023207120S11658606EA0109101146000000000000
B0733063207142S11658690EA0109901158000000000000
B0733103207151S11658775EA0111101167000000000000
B0733143207161S11658862EA0111301171000000000000
B0733183207195S11658929EA0113001190000000000000
B0733223207239S11658937EA0115801216000000000000
B0733263207264S11658894EA0116201216000000000000
B0733303207251S11658829EA0116501228000000000000
B0733343207206S11658784EA0118101243000000000000
B0733383207147S11658788EA0119301251000000000000
B0733423207105S11658842EA0119401251000000000000
B0733463207111S11658905EA0120201261000000000000
B0733503207147S11658924EA0120901265000000000000
B0733543207181S11658890EA0120001255000000000000
B0733583207186S11658821EA0120401267000000000000
B0734023207133S11658788EA0122101282000000000000
B0734063207082S11658832EA0122301280000000000000
B0734103207103S11658888EA0123701300000000000000
B0734143207139S11658868EA0125301314000000000000
B0734183207124S11658812EA0125801317000000000000
B0734223207063S11658799EA0125201310000000000000
B0734263207013S11658847EA0125901328000000000000
B0734303207016S11658903EA0128201347000000000000
B0734343207052S11658919EA0128901349000000000000
B0734383207077S11658875EA0128701350000000000000
B0734423207043S11658825EA0129701357000000000000
B0734463206978S11658842EA0128701350000000000000
B0734503206961S11658910EA0130101369000000000000
B0734543206991S11658949EA0131401377000000000000
B0734583207029S11658931EA0132201385000000000000
B0735023207021S11658876EA0132801392000000000000
B0735063206966S11658850EA0132801386000000000000
B0735103206907S11658885EA0132701391000000000000
B0735143206903S11658947EA0133801402000000000000
B0735183206943S11658972EA0134601410000000000000
B0735223206979S11658945EA0135401419000000000000
B0735263206977S11658886EA0135901425000000000000
B0735303206926S11658846EA0135801418000000000000
B0735343206857S11658866EA0135701423000000000000
B0735383206806S11658924EA0136201426000000000000
B0735423206797S11658996EA0136701439000000000000
B0735463206839S11659022EA0138601453000000000000
B0735503206874S11658988EA0139301460000000000000
B0735543206853S11658931EA0140001465000000000000
B0735583206786S11658928EA0139801462000000000000
B0736023206744S11658990EA0140701474000000000000
B0736063206770S11659035EA0141901482000000000000
B0736103206801S11658998EA0141401481000000000000
B0736143206782S11658924EA0141201477000000000000
B0736183206726S11658853EA0139901462000000000000
B0736223206653S11658777EA0137001435000000000000
B0736263206569S11658697EA0135301426000000000000
B0736303206478S11658622EA0134901415000000000000
B0736343206380S11658560EA0133701406000000000000
B0736383206276S11658517EA0133301403000000000000
B0736423206173S11658491EA0133701409000000000000
B0736463206071S11658476EA0134101404000000000000
B0736503205971S11658460EA0133901399000000000000
B0736543205876S11658434EA0134101400000000000000
B0736583205783S11658414EA0133001391000000000000
B0737023205712S11658465EA0133801401000000000000
B0737063205724S11658530EA0134501401000000000000
B0737103205761S11658508EA0132501381000000000000
B0737143205725S11658440EA0130601359000000000000
B0737183205644S11658411EA0128101339000000000000
B0737223205556S11658395EA0127301330000000000000
B0737263205467S11658369EA0126701325000000000000
B0737303205383S11658330EA0126501326000000000000
B0737343205304S11658277EA0127101331000000000000
B0737383205230S11658221EA0127601336000000000000
B0737423205153S11658174EA0127401329000000000000
B0737463205067S11658139EA0126001318000000000000
B0737503204976S11658114EA0125501313000000000000
B0737543204882S11658109EA0124601302000000000000
B0737583204793S11658145EA0124101299000000000000
B0738023204733S11658219EA0124201300000000000000
B0738063204719S11658310EA0124001294000000000000
B0738103204743S11658391EA0122801282000000000000
B0738143204790S11658455EA0121801274000000000000
B0738183204847S11658500EA0121101266000000000000
B0738223204910S11658535EA0119701249000000000000
B0738263204976S11658563EA0118401240000000000000
B0738303205042S11658583EA0117801235000000000000
B0738343205109S11658603EA0117801238000000000000
B0738383205170S11658624EA0118601251000000000000
B0738423205226S11658645EA0120201262000000000000
B0738463205280S11658658EA0120701262000000000000
B0738503205321S11658628EA0120501261000000000000
B0738543205311S11658568EA0120001251000000000000
B0738583205265S11658517EA0119001242000000000000
B0739023205241S11658450EA0118201237000000000000
B0739063205262S11658386EA0117501230000000000000
B0739103205308S11658344EA0116301215000000000000
B0739143205365S11658317EA0114701196000000000000
B0739183205425S11658290EA0113401188000000000000
B0739223205484S11658261EA0112701179000000000000
B0739263205548S11658235EA0111601169000000000000
B0739303205617S11658212EA0111201170000000000000
B0739343205682S11658196EA0112701185000000000000
B0739383205737S11658170EA0113901196000000000000
B0739423205783S11658127EA0114101193000000000000
B0739463205817S11658066EA0112601176000000000000
B0739503205844S11657995EA0110701161000000000000
B0739543205877S11657931EA0110601160000000000000
B0739583205916S11657879EA0110401156000000000000
B0740023205963S11657837EA0109701148000000000000
B0740063206016S11657801EA0108801139000000000000
B0740103206072S11657774EA0108201134000000000000
B0740143206132S11657753EA0107701131000000000000
B0740183206190S11657737EA0107501129000000000000
B0740223206245S11657732EA0107901133000000000000
B0740263206298S11657732EA0107901132000000000000
B0740303206353S11657733EA0107701127000000000000
B0740343206409S11657737EA0107301126000000000000
B0740383206463S11657740EA0107301125000000000000
B0740423206517S11657745EA0106901119000000000000
B0740463206572S11657750EA0106301112000000000000
B0740503206628S11657751EA0105501106000000000000
B0740543206686S11657753EA0105301106000000000000
B0740583206741S11657754EA0105301105000000000000
B0741023206797S11657753EA0105001099000000000000
B0741063206856S11657748EA0104301091000000000000
B0741103206918S11657738EA0103501086000000000000
B0741143206982S11657729EA0103301088000000000000
B0741183207043S11657718EA0103701090000000000000
B0741223207103S11657707EA0103801090000000000000
B0741263207164S11657699EA0103901094000000000000
B0741303207224S11657688EA0104801104000000000000
B0741343207284S11657675EA0105401106000000000000
B0741383207341S11657649EA0106201114000000000000
B0741423207371S11657586EA0106401120000000000000
B0741463207355S11657511EA0107001123000000000000
B0741503207304S11657450EA0106801120000000000000
B0741543207232S11657426EA0106901123000000000000
B0741583207161S11657447EA0107201128000000000000
B0742023207105S11657499EA0107801134000000000000
B0742063207079S11657569EA0108701144000000000000
B0742103207086S11657640EA0109301149000000000000
B0742143207125S11657686EA0109601152000000000000
B0742183207178S11657698EA0109901159000000000000
B0742223207232S11657681EA0110201158000000000000
B0742263207276S11657641EA0109701156000000000000
B0742303207306S11657581EA0109601152000000000000
B0742343207312S11657503EA0108801143000000000000
B0742383207293S11657416EA0107501130000000000000
B0742423207293S11657324EA0106701123000000000000
B0742463207334S11657265EA0106401119000000000000
B0742503207397S11657255EA0105801113000000000000
B0742543207454S11657283EA0105601114000000000000
B0742583207499S11657330EA0106401124000000000000
B0743023207542S11657372EA0107901140000000000000
B0743063207588S11657397EA0109101150000000000000
B0743103207636S11657408EA0109901158000000000000
B0743143207687S11657411EA0110601165000000000000
B0743183207739S11657411EA0111701175000000000000
B0743223207787S11657391EA0112601185000000000000
B0743263207819S11657343EA0113201189000000000000
B0743303207823S11657274EA0113001185000000000000
B0743343207788S11657204EA0112101174000000000000
B0743383207720S11657157EA0111201165000000000000
B0743423207636S11657150EA0110101155000000000000
B0743463207553S11657185EA0109301148000000000000
B0743503207498S11657259EA0109401152000000000000
B0743543207492S11657342EA0109701155000000000000
B0743583207525S11657403EA0110601163000000000000
B0744023207581S11657420EA0111301173000000000000
B0744063207633S11657394EA0112201182000000000000
B0744103207653S11657333EA0113101191000000000000
B0744143207635S11657259EA0112901185000000000000
B0744183207584S11657199EA0112501181000000000000
B0744223207511S11657170EA0112101176000000000000
B0744263207432S11657178EA0111401169000000000000
B0744303207362S11657224EA0110701163000000000000
B0744343207313S11657298EA0110301161000000000000
B0744383207299S11657382EA0110401164000000000000
B0744423207317S11657458EA0111401178000000000000
B0744463207358S11657508EA0113001194000000000000
B0744503207410S11657527EA0114601207000000000000
B0744543207458S11657503EA0116301228000000000000
B0744583207466S11657442EA0117901238000000000000
B0745023207425S11657381EA0117701233000000000000
B0745063207358S11657354EA0117401232000000000000
B0745103207281S11657364EA0117001228000000000000
B0745143207215S11657410EA0117101233000000000000
B0745183207173S11657478EA0118201247000000000000
B0745223207164S11657551EA0119601258000000000000
B0745263207187S11657607EA0121001273000000000000
B0745303207233S11657621EA0121601278000000000000
B0745343207278S11657589EA0122201285000000000000
B0745383207294S11657521EA0123301297000000000000
B0745423207269S11657449EA0124101305000000000000
B0745463207211S11657402EA0125501317000000000000
B0745503207142S11657407EA0125901323000000000000
B0745543207089S11657455EA0126701331000000000000
B0745583207066S11657525EA0127301339000000000000
B0746023207085S11657589EA0128501351000000000000
B0746063207133S11657608EA0129301359000000000000
B0746103207172S11657569EA0129901366000000000000
B0746143207173S11657494EA0130901375000000000000
B0746183207129S11657429EA0131701382000000000000
B0746223207057S11657402EA0132201387000000000000
B0746263206987S11657426EA0133001399000000000000
B0746303206947S11657484EA0134401414000000000000
B0746343206952S11657543EA0135801427000000000000
B0746383206992S11657566EA0137001438000000000000
B0746423207034S11657536EA0137501440000000000000
B0746463207039S11657465EA0137501441000000000000
B0746503206991S11657407EA0137601442000000000000
B0746543206922S11657410EA0138501454000000000000
B0746583206874S11657458EA0139501462000000000000
B0747023206869S11657521EA0139801464000000000000
B0747063206904S11657566EA0140201472000000000000
B0747103206956S11657562EA0141201482000000000000
B0747143206990S11657512EA0141901487000000000000
B0747183206985S11657439EA0142401492000000000000
B0747223206935S11657385EA0142801496000000000000
B0747263206869S11657380EA0143701506000000000000
B0747303206819S11657416EA0144601512000000000000
B0747343206805S11657473EA0144801513000000000000
B0747383206830S11657521EA0145101516000000000000
B0747423206877S11657529EA0145501520000000000000
B0747463206913S11657482EA0145201516000000000000
B0747503206922S11657406EA0145001518000000000000
B0747543206901S11657326EA0145501525000000000000
B0747583206847S11657276EA0146101528000000000000
B0748023206777S11657268EA0145901525000000000000
B0748063206717S11657306EA0145901527000000000000
B0748103206684S11657372EA0145701524000000000000
B0748143206686S11657443EA0145601522000000000000
B0748183206717S11657501EA0146001532000000000000
B0748223206765S11657520EA0147401544000000000000
B0748263206810S11657495EA0147801544000000000000
B0748303206839S11657433EA0147201542000000000000
B0748343206834S11657354EA0147501545000000000000
B0748383206792S11657283EA0147401539000000000000
B0748423206722S11657251EA0146801536000000000000
B0748463206652S11657267EA0146901535000000000000
B0748503206605S11657321EA0146601533000000000000
B0748543206589S11657393EA0146501531000000000000
B0748583206608S11657459EA0146401528000000000000
B0749023206649S11657508EA0146301529000000000000
B0749063206704S11657537EA0146001526000000000000
B0749103206757S11657514EA0146101530000000000000
B0749143206773S11657439EA0146501534000000000000
B0749183206735S11657360EA0146501532000000000000
B0749223206663S11657325EA0146801538000000000000
B0749263206595S11657346EA0146901535000000000000
B0749303206554S11657408EA0146401530000000000000
B0749343206562S11657473EA0146601532000000000000
B0749383206605S11657507EA0146401526000000000000
B0749423206661S11657508EA0145401515000000000000
B0749463206722S11657495EA0144801515000000000000
B0749503206783S11657475EA0144601511000000000000
B0749543206843S11657450EA0143401494000000000000
B0749583206910S11657441EA0141701483000000000000
B0750023206979S11657446EA0141401484000000000000
B0750063207044S11657460EA0141901490000000000000
B0750103207104S11657480EA0141901486000000000000
B0750143207163S11657502EA0141201474000000000000
B0750183207225S11657530EA0139501455000000000000
B0750223207291S11657563EA0138201446000000000000
B0750263207355S11657593EA0138201450000000000000
B0750303207415S11657623EA0138701453000000000000
B0750343207471S11657653EA0139001456000000000000
B0750383207527S11657681EA0138901454000000000000
B0750423207583S11657711EA0138301447000000000000
B0750463207640S11657736EA0137901443000000000000
B0750503207700S11657759EA0137501436000000000000
B0750543207763S11657766EA0136501427000000000000
B0750583207818S11657737EA0136301429000000000000
B0751023207850S11657681EA0136501428000000000000
B0751063207856S11657611EA0135901421000000000000
B0751103207849S11657534EA0134701407000000000000
B0751143207863S11657458EA0132701389000000000000
B0751183207909S11657402EA0131601382000000000000
B0751223207967S11657377EA0131201379000000000000
B0751263208030S11657369EA0130901373000000000000
B0751303208093S11657371EA0130001360000000000000
B0751343208162S11657380EA0129101356000000000000
B0751383208233S11657386EA0129601365000000000000
B0751423208300S11657394EA0130901373000000000000
B0751463208368S11657404EA0129901360000000000000
B0751503208438S11657416EA0129001353000000000000
B0751543208507S11657420EA0129001354000000000000
B0751583208578S11657425EA0128601347000000000000
B0752023208649S11657437EA0128601353000000000000
B0752063208714S11657446EA0129401361000000000000
B0752103208777S11657454EA0129801362000000000000
B0752143208838S11657459EA0130001364000000000000
B0752183208898S11657467EA0130101363000000000000
B0752223208961S11657475EA0129801361000000000000
B0752263209024S11657486EA0129501359000000000000
B0752303209087S11657499EA0129201350000000000000
B0752343209150S11657514EA0127801332000000000000
B0752383209217S11657530EA0126601326000000000000
B0752423209284S11657538EA0126501326000000000000
B0752463209353S11657541EA0126101322000000000000
B0752503209422S11657545EA0126201325000000000000
B0752543209488S11657554EA0126301325000000000000
B0752583209555S11657556EA0126501327000000000000
B0753023209621S11657562EA0126001318000000000000
B0753063209690S11657567EA0125101311000000000000
B0753103209755S11657569EA0125301317000000000000
B0753143209816S11657577EA0125701316000000000000
B0753183209880S11657585EA0125101311000000000000
B0753223209942S11657595EA0125301316000000000000
B0753263210002S11657612EA0125701318000000000000
B0753303210060S11657623EA0125901321000000000000
B0753343210118S11657631EA0126501327000000000000
B0753383210172S11657632EA0127201334000000000000
B0753423210225S11657631EA0127401334000000000000
B0753463210280S11657629EA0127301333000000000000
B0753503210336S11657633EA0127001327000000000000
B0753543210394S11657637EA0126301322000000000000
B0753583210456S11657646EA0125901318000000000000
B0754023210517S11657658EA0125801319000000000000
B0754063210576S11657670EA0125501315000000000000
B0754103210636S11657681EA0125001308000000000000
B0754143210697S11657693EA0124301298000000000000
B0754183210761S11657707EA0123101286000000000000
B0754223210827S11657723EA0121801272000000000000
B0754263210894S11657736EA0120801264000000000000
B0754303210960S11657746EA0119601251000000000000
B0754343211026S11657753EA0119101248000000000000
B0754383211091S11657763EA0118801245000000000000
B0754423211155S11657774EA0118201240000000000000
B0754463211217S11657775EA0118001238000000000000
B0754503211278S11657776EA0118001236000000000000
B0754543211341S11657779EA0117601232000000000000
B0754583211402S11657783EA0117301230000000000000
B0755023211460S11657790EA0117601235000000000000
B0755063211519S11657805EA0117701234000000000000
B0755103211576S11657814EA0117401229000000000000
B0755143211636S11657822EA0116701221000000000000
B0755183211696S11657829EA0116001213000000000000
B0755223211758S11657841EA0115101204000000000000
B0755263211821S11657863EA0114401201000000000000
B0755303211878S11657900EA0114401201000000000000
B0755343211931S11657941EA0114001194000000000000
B0755383211982S11657983EA0113801197000000000000
B0755423212030S11658028EA0114201196000000000000
B0755463212073S11658087EA0114201199000000000000
B0755503212117S11658139EA0115001207000000000000
B0755543212165S11658178EA0115201205000000000000
B0755583212214S11658212EA0114701199000000000000
B0756023212268S11658243EA0113901193000000000000
B0756063212322S11658268EA0113701190000000000000
B0756103212376S11658266EA0113901195000000000000
B0756143212413S11658232EA0114501201000000000000
B0756183212425S11658178EA0115501212000000000000
B0756223212395S11658123EA0116501219000000000000
B0756263212335S11658091EA0117001226000000000000
B0756303212269S11658114EA0117601233000000000000
B0756343212239S11658186EA0117601231000000000000
B0756383212257S11658255EA0117701236000000000000
B0756423212302S11658278EA0118701246000000000000
B0756463212342S11658252EA0118801245000000000000
B0756503212356S11658192EA0118701243000000000000
B0756543212331S11658122EA0118501240000000000000
B0756583212269S11658078EA0118401244000000000000
B0757023212196S11658093EA0119501258000000000000
B0757063212149S11658158EA0120701269000000000000
B0757103212153S11658235EA0120801267000000000000
B0757143212199S11658278EA0121401276000000000000
B0757183212240S11658256EA0122201289000000000000
B0757223212237S11658199EA0123501296000000000000
B0757263212185S11658160EA0123401292000000000000
B0757303212113S11658179EA0123301296000000000000
B0757343212078S11658251EA0124501309000000000000
B0757383212099S11658314EA0125401315000000000000
B0757423212143S11658322EA0126201323000000000000
B0757463212164S11658275EA0126501324000000000000
B0757503212139S11658216EA0126301322000000000000
B0757543212073S11658196EA0126401322000000000000
B0757583212014S11658243EA0127001332000000000000
B0758023212018S11658314EA0127501336000000000000
B0758063212066S11658334EA0127801343000000000000
B0758103212092S11658292EA0128901353000000000000
B0758143212068S11658234EA0128901347000000000000
B0758183212001S11658212EA0128601345000000000000
B0758223211936S11658252EA0128701349000000000000
B0758263211913S11658326EA0129401358000000000000
B0758303211928S11658394EA0130001362000000000000
B0758343211970S11658430EA0130501367000000000000
B0758383212017S11658427EA0130001356000000000000
B0758423212070S11658424EA0128301338000000000000
B0758463212130S11658421EA0126401318000000000000
B0758503212194S11658416EA0124401301000000000000
B0758543212260S11658418EA0123001287000000000000
B0758583212328S11658427EA0121801278000000000000
B0759023212396S11658435EA0121001272000000000000
B0759063212463S11658437EA0121601280000000000000
B0759103212524S11658430EA0122301286000000000000
B0759143212582S11658420EA0122501283000000000000
B0759183212640S11658409EA0121601272000000000000
B0759223212699S11658396EA0121101270000000000000
B0759263212759S11658387EA0120601265000000000000
B0759303212820S11658378EA0120401261000000000000
B0759343212883S11658366EA0120301260000000000000
B0759383212944S11658353EA0120801270000000000000
B0759423212998S11658330EA0123101291000000000000
B0759463213013S11658271EA0125101318000000000000
B0759503212963S11658230EA0127001331000000000000
B0759543212894S11658253EA0127301335000000000000
B0759583212859S11658325EA0128001345000000000000
B0800023212870S11658394EA0128701352000000000000
B0800063212915S11658424EA0129301357000000000000
B0800103212954S11658390EA0129901367000000000000
B0800143212948S11658325EA0131001377000000000000
B0800183212889S11658283EA0132001386000000000000
B0800223212814S11658303EA0133501404000000000000
B0800263212764S11658366EA0134501414000000000000
B0800303212772S11658437EA0135501422000000000000
B0800343212819S11658460EA0135801416000000000000
B0800383212857S11658414EA0135701424000000000000
B0800423212828S11658351EA0137601449000000000000
B0800463212762S11658360EA0139801468000000000000
B0800503212741S11658425EA0141601484000000000000
B0800543212776S11658459EA0142601491000000000000
B0800583212802S11658416EA0143101499000000000000
B0801023212764S11658360EA0144301513000000000000
B0801063212697S11658373EA0145601525000000000000
B0801103212660S11658438EA0147201541000000000000
B0801143212681S11658494EA0147801546000000000000
B0801183212723S11658481EA0148301552000000000000
B0801223212719S11658413EA0149001561000000000000
B0801263212660S11658369EA0150001573000000000000
B0801303212589S11658383EA0151601589000000000000
B0801343212550S11658444EA0153001600000000000000
B0801383212551S11658512EA0153101597000000000000
B0801423212590S11658548EA0153501605000000000000
B0801463212633S11658521EA0154401613000000000000
B0801503212632S11658456EA0155301623000000000000
B0801543212569S11658424EA0156601636000000000000
B0801583212508S11658465EA0157301644000000000000
B0802023212497S11658541EA0157401645000000000000
B0802063212532S11658593EA0157901650000000000000
B0802103212584S11658594EA0158001651000000000000
B0802143212632S11658560EA0157801645000000000000
B0802183212692S11658538EA0156301629000000000000
B0802223212763S11658528EA0154701615000000000000
B0802263212837S11658522EA0153701609000000000000
B0802303212913S11658520EA0153101600000000000000
B0802343212987S11658516EA0152201591000000000000
B0802383213061S11658513EA0151501585000000000000
B0802423213135S11658516EA0151101581000000000000
B0802463213209S11658525EA0150701576000000000000
B0802503213283S11658543EA0150101572000000000000
B0802543213356S11658561EA0149801568000000000000
B0802583213429S11658577EA0149501566000000000000
B0803023213499S11658590EA0149501565000000000000
B0803063213568S11658602EA0149101561000000000000
B0803103213637S11658615EA0148401551000000000000
B0803143213706S11658632EA0147701548000000000000
B0803183213773S11658650EA0147501546000000000000
B0803223213841S11658665EA0147401543000000000000
B0803263213908S11658682EA0146901537000000000000
B0803303213976S11658700EA0146301532000000000000
B0803343214041S11658724EA0146001528000000000000
B0803383214107S11658752EA0145601525000000000000
B0803423214172S11658778EA0145101520000000000000
B0803463214237S11658803EA0144801516000000000000
B0803503214302S11658824EA0144501512000000000000
B0803543214367S11658845EA0143901506000000000000
B0803583214432S11658866EA0143301500000000000000
B0804023214499S11658885EA0142901495000000000000
B0804063214564S11658903EA0142601491000000000000
B0804103214627S11658921EA0141801482000000000000
B0804143214694S11658942EA0141001475000000000000
B0804183214757S11658962EA0140701473000000000000
B0804223214821S11658980EA0140001465000000000000
B0804263214886S11658993EA0139201458000000000000
B0804303214952S11659009EA0138501450000000000000
B0804343215017S11659020EA0138201446000000000000
B0804383215082S11659023EA0137501442000000000000
B0804423215147S11659022EA0137001435000000000000
B0804463215212S11659020EA0136201429000000000000
B0804503215277S11659019EA0136001425000000000000
B0804543215341S11659019EA0135601421000000000000
B0804583215403S11659022EA0135001416000000000000
B0805023215466S11659024EA0134001404000000000000
B0805063215529S11659028EA0133101396000000000000
B0805103215592S11659035EA0132901396000000000000
B0805143215652S11659040EA0132601389000000000000
B0805183215713S11659046EA0131601380000000000000
B0805223215774S11659055EA0130801372000000000000
B0805263215835S11659061EA0129901361000000000000
B0805303215896S11659055EA0129001353000000000000
B0805343215955S11659041EA0128601348000000000000
B0805383216016S11659032EA0128001340000000000000
B0805423216077S11659032EA0127001329000000000000
B0805463216140S11659038EA0126001318000000000000
B0805503216204S11659036EA0124801310000000000000
B0805543216267S11659028EA0124801310000000000000
B0805583216328S11659023EA0124701312000000000000
B0806023216387S11659025EA0125501317000000000000
B0806063216445S11659029EA0125801320000000000000
B0806103216502S11659029EA0126001324000000000000
B0806143216556S11659029EA0126601330000000000000
B0806183216611S11659031EA0127001334000000000000
B0806223216668S11659028EA0126801327000000000000
B0806263216728S11659024EA0125801317000000000000
B0806303216789S11659024EA0124701304000000000000
B0806343216853S11659016EA0123201289000000000000
B0806383216919S11659011EA0122101279000000000000
B0806423216987S11659010EA0121601278000000000000
B0806463217053S11659006EA0122101285000000000000
B0806503217110S11658983EA0123601302000000000000
B0806543217113S11658918EA0126201328000000000000
B0806583217057S11658875EA0127101327000000000000
B0807023216988S11658907EA0126201320000000000000
B0807063216959S11658980EA0125901319000000000000
B0807103216975S11659046EA0126001322000000000000
B0807143217015S11659088EA0126201325000000000000
B0807183217065S11659113EA0126501326000000000000
B0807223217119S11659124EA0126201323000000000000
B0807263217178S11659122EA0125901324000000000000
B0807303217236S11659110EA0126301328000000000000
B0807343217296S11659093EA0126701334000000000000
B0807383217347S11659057EA0128201354000000000000
B0807423217339S11658992EA0130701375000000000000
B0807463217283S11658962EA0130901368000000000000
B0807503217223S11659001EA0129901359000000000000
B0807543217206S11659074EA0130001366000000000000
B0807583217227S11659137EA0130701374000000000000
B0808023217270S11659174EA0132001387000000000000
B0808063217300S11659133EA0133601403000000000000
B0808103217260S11659080EA0134401410000000000000
B0808143217200S11659105EA0135101419000000000000
B0808183217191S11659170EA0136001430000000000000
B0808223217234S11659192EA0137101438000000000000
B0808263217257S11659137EA0137901449000000000000
B0808303217217S11659080EA0139001463000000000000
B0808343217154S11659084EA0140101470000000000000
B0808383217113S11659137EA0140401473000000000000
B0808423217117S11659205EA0141301484000000000000
B0808463217157S11659236EA0142301496000000000000
B0808503217196S11659206EA0143201504000000000000
B0808543217190S11659139EA0143801508000000000000
B0808583217131S11659103EA0144301517000000000000
B0809023217075S11659139EA0145301529000000000000
B0809063217073S11659202EA0146201535000000000000
B0809103217115S11659232EA0146701541000000000000
B0809143217154S11659198EA0147401550000000000000
B0809183217144S11659133EA0148301556000000000000
B0809223217087S11659094EA0148401557000000000000
B0809263217023S11659119EA0148601561000000000000
B0809303217000S11659187EA0149001564000000000000
B0809343217021S11659248EA0149401570000000000000
B0809383217069S11659276EA0149701573000000000000
B0809423217109S11659243EA0150401581000000000000
B0809463217104S11659175EA0150901584000000000000
B0809503217049S11659129EA0150801583000000000000
B0809543216978S11659145EA0150501580000000000000
B0809583216940S11659214EA0150601582000000000000
B0810023216954S11659284EA0150801584000000000000
B0810063217002S11659318EA0151101586000000000000
B0810103217058S11659330EA0151201585000000000000
B0810143217118S11659334EA0150301572000000000000
B0810183217186S11659336EA0148401551000000000000
B0810223217257S11659337EA0146601538000000000000
B0810263217329S11659336EA0146201534000000000000
B0810303217398S11659330EA0145801529000000000000
B0810343217465S11659324EA0145201524000000000000
B0810383217535S11659321EA0144401510000000000000
B0810423217608S11659317EA0143401505000000000000
B0810463217680S11659310EA0143401505000000000000
