ACAM4N6
HFDTE260920
HFFXA050
HFPLTPILOT:JOHN WELSH              
HFGTYGLIDERTYPE:HORNET      
HFGIDGLIDERID:VH-GMY      
HFDTM100GPSDATUM:
HFRFWFIRMWAREVERSION:F2.6
HFRHWHARDWAREVERSION:300 Series Version 2
HFFTYFRTYPE:CAMBRIDGE AERO INSTRUMENTS, 302+
HFGPS:GARMIN,LVS-25,12,18000
HFPRSPRESSALTSENSOR:INTERSEMA, MS5534-AP, 20000
I033638FXA3941ENL4247REX
LCAMSBVER:5FWVER:F26300
C080320044711080320000102
C0000000N00000000WTAKEOFF     
C3207549S11656849EBEVERLEY AF 
C3053283S11642765EWongan Hills
C3136216S11753732EDoodlakine  
C3207549S11656849EBEVERLEY AF 
C0000000N00000000WLANDING     
B0231253207733S11657092EA0021900206000000000000
B0231273207733S11657092EA0021900206000000000000
B0231293207733S11657092EA0021900206000000000000
B0231313207733S11657092EA0021900206000000000000
B0231333207733S11657092EA0021800206000000000000
B0231353207733S11657092EA0021900206000000000000
B0231373207733S11657092EA0021900206000000000000
B0231393207733S11657092EA0021900206000000000000
B0231413207733S11657092EA0021900206000000000000
B0231433207733S11657092EA0021800206000000000000
B0231453207733S11657092EA0021900206000000000000
B0231473207733S11657092EA0021800206000000000000
B0231493207733S11657094EA0021900206000000000000
B0231513207733S11657092EA0021900206000000000000
B0231533207732S11657092EA0021900206000000000000
B0231563207722S11657090EA0021800206000000000000
B0232003207693S11657078EA0021900206000000000000
B0232043207650S11657053EA0021900207000000000000
B0232083207594S11657021EA0022000207000000000000
B0232123207529S11656983EA0022100210000000000000
B0232163207459S11656945EA0022900217000000000000
B0232203207391S11656910EA0024000237000000000000
B0232243207328S11656882EA0026400262000000000000
B0232283207264S11656854EA0028600283000000000000
B0232323207202S11656825EA0030100302000000000000
B0232363207141S11656791EA0032000322000000000000
B0232403207082S11656754EA0034100345000000000000
B0232443207022S11656719EA0036300366000000000000
B0232483206968S11656678EA0038000384000000000000
B0232523206934S11656617EA0040000401000000000000
B0232563206923S11656545EA0041800420000000000000
B0233003206939S11656470EA0043400433000000000000
B0233043206972S11656399EA0044700446000000000000
B0233083207014S11656332EA0045700458000000000000
B0233123207061S11656266EA0047100472000000000000
B0233163207117S11656207EA0048600487000000000000
B0233203207183S11656162EA0050200504000000000000
B0233243207258S11656129EA0051800519000000000000
B0233283207337S11656115EA0053200535000000000000
B0233323207416S11656094EA0054800553000000000000
B0233363207481S11656047EA0056400573000000000000
B0233403207529S11655983EA0058400592000000000000
B0233443207567S11655913EA0059900604000000000000
B0233483207605S11655844EA0060900614000000000000
B0233523207640S11655777EA0062200627000000000000
B0233563207681S11655709EA0062900632000000000000
B0234003207722S11655640EA0063800640000000000000
B0234043207763S11655570EA0064800651000000000000
B0234083207802S11655499EA0066500671000000000000
B0234123207843S11655427EA0068500690000000000000
B0234163207887S11655356EA0069800702000000000000
B0234203207930S11655284EA0071600723000000000000
B0234243207971S11655211EA0073600743000000000000
B0234283208013S11655137EA0076000769000000000000
B0234323208040S11655064EA0078200796000000000000
B0234363208021S11655008EA0080500807000000000000
B0234403207971S11655007EA0081000806000000000000
B0234443207940S11655062EA0080700806000000000000
B0234483207953S11655133EA0080600806000000000000
B0234523208005S11655181EA0080500802000000000000
B0234563208073S11655184EA0080200803000000015000
B0235003208132S11655151EA0081000813000000015000
B0235043208143S11655085EA0082000823000000015000
B0235083208101S11655051EA0083000836000000015000
B0235123208057S11655081EA0084300840000000015000
B0235163208056S11655145EA0084300839000000015000
B0235203208104S11655183EA0084400844000000015000
B0235243208164S11655164EA0084500842000000015000
B0235283208187S11655106EA0085100858000000015000
B0235323208153S11655067EA0086300866000000015000
B0235363208105S11655092EA0086700868000000015000
B0235403208088S11655157EA0087100871000000015000
B0235443208113S11655219EA0087200875000000015000
B0235483208168S11655248EA0087800878000000015000
B0235523208223S11655232EA0088300888000000015000
B0235563208244S11655183EA0089300898000000015000
B0236003208208S11655153EA0090700910000000015000
B0236043208168S11655190EA0091600920000000015000
B0236083208178S11655254EA0092400928000000015000
B0236123208230S11655283EA0092600927000000015000
B0236163208278S11655258EA0093000938000000015000
B0236203208275S11655209EA0094300951000000015000
B0236243208231S11655197EA0095600960000000015000
B0236283208196S11655248EA0096300964000000015000
B0236323208212S11655318EA0096600968000000015000
B0236363208268S11655357EA0097200976000000015000
B0236403208324S11655340EA0097900983000000015000
B0236443208342S11655285EA0098900993000000015000
B0236483208312S11655241EA0100000998000000015000
B0236523208259S11655250EA0100701009000000015000
B0236563208249S11655314EA0101901026000000015000
B0237003208298S11655357EA0102701027000000015000
B0237043208351S11655328EA0102801037000000015000
B0237083208353S11655270EA0103901046000000015000
B0237123208308S11655242EA0105001055000000015000
B0237163208264S11655283EA0106201067000000015000
B0237203208274S11655352EA0107201076000000015000
B0237243208327S11655391EA0108201088000000015000
B0237283208381S11655372EA0109101098000000015000
B0237323208396S11655320EA0110101106000000015000
B0237363208365S11655274EA0110801112000000015000
B0237403208313S11655288EA0111701127000000015000
B0237443208304S11655352EA0113201137000000015000
B0237483208347S11655400EA0113701143000000015000
B0237523208402S11655382EA0114201152000000015000
B0237563208412S11655322EA0115301164000000015000
B0238003208369S11655291EA0116701177000000030000
B0238043208324S11655326EA0117601189000000015000
B0238083208320S11655393EA0118701195000000015000
B0238123208363S11655447EA0119301203000000030000
B0238163208422S11655448EA0120301211000000030000
B0238203208457S11655401EA0121501224000000015000
B0238243208457S11655346EA0122201227000000015000
B0238283208417S11655311EA0123101235000000015000
B0238323208374S11655341EA0124301247000000015000
B0238363208381S11655405EA0125201251000000015000
B0238403208434S11655443EA0125301255000000030000
B0238443208487S11655421EA0126101265000000030000
B0238483208502S11655363EA0126701269000000030000
B0238523208468S11655315EA0126801275000000015000
B0238563208418S11655331EA0127901291000000030000
B0239003208418S11655402EA0128701296000000030000
B0239043208474S11655441EA0129201303000000030000
B0239083208521S11655409EA0129901305000000030000
B0239123208516S11655345EA0129801303000000030000
B0239163208467S11655324EA0130201312000000030000
B0239203208418S11655361EA0131001313000000030000
B0239243208409S11655436EA0131401319000000030000
B0239283208464S11655484EA0131901325000000030000
B0239323208521S11655466EA0132801336000000045000
B0239363208529S11655413EA0133701342000000030000
B0239403208489S11655380EA0133601344000000015000
B0239443208435S11655405EA0134301349000000015000
B0239483208415S11655474EA0134901355000000015000
B0239523208451S11655534EA0135401356000000015000
B0239563208515S11655541EA0135501356000000030000
B0240003208551S11655493EA0135501358000000015000
B0240043208534S11655437EA0135601363000000015000
B0240083208485S11655423EA0136301372000000015000
B0240123208438S11655461EA0136901375000000015000
B0240163208422S11655531EA0137001374000000015000
B0240203208457S11655597EA0136901375000000015000
B0240243208517S11655616EA0137601386000000015000
B0240283208548S11655570EA0138301385000000015000
B0240323208524S11655523EA0137801382000000015000
B0240363208468S11655535EA0137501379000000015000
B0240403208428S11655599EA0137301375000000015000
B0240443208412S11655678EA0137101371000000030000
B0240483208435S11655756EA0137201378000000015000
B0240523208470S11655829EA0137101376000000015000
B0240563208507S11655903EA0137101379000000015000
B0241003208538S11655978EA0138201392000000015000
B0241043208565S11656054EA0139101400000000015000
B0241083208589S11656133EA0139701404000000015000
B0241123208616S11656207EA0140801412000000015000
B0241163208673S11656229EA0141901419000000030000
B0241203208711S11656190EA0142201419000000030000
B0241243208701S11656132EA0141901419000000015000
B0241283208652S11656103EA0141901422000000015000
B0241323208599S11656132EA0142501428000000015000
B0241363208573S11656198EA0143101436000000015000
B0241403208594S11656271EA0144001444000000030000
B0241443208651S11656311EA0144801456000000030000
B0241483208708S11656303EA0145701462000000030000
B0241523208732S11656254EA0145901461000000030000
B0241563208716S11656203EA0145801464000000015000
B0242003208671S11656182EA0145901465000000015000
B0242043208620S11656203EA0146101470000000015000
B0242083208593S11656269EA0146301475000000030000
B0242123208602S11656349EA0147101482000000015000
B0242163208663S11656373EA0147701492000000015000
B0242203208706S11656337EA0148901501000000030000
B0242243208710S11656282EA0149601505000000015000
B0242283208673S11656249EA0149701506000000015000
B0242323208624S11656254EA0150101510000000015000
B0242363208593S11656310EA0150701516000000015000
B0242403208608S11656383EA0151001520000000015000
B0242443208667S11656418EA0151501523000000015000
B0242483208725S11656392EA0151801527000000015000
B0242523208745S11656329EA0152001521000000015000
B0242563208708S11656272EA0151201512000000015000
B0243003208639S11656253EA0150101500000000015000
B0243043208559S11656262EA0149401499000000015000
B0243083208478S11656288EA0150001503000000015000
B0243123208402S11656315EA0151301510000000015000
B0243163208326S11656347EA0150901503000000015000
B0243203208249S11656385EA0150201496000000015000
B0243243208175S11656431EA0149901500000000015000
B0243283208106S11656483EA0149701492000000015000
B0243323208040S11656541EA0148801485000000015000
B0243363207975S11656606EA0148401486000000015000
B0243403207918S11656674EA0148701487000000015000
B0243443207861S11656741EA0148301484000000015000
B0243483207806S11656810EA0147701478000000015000
B0243523207746S11656877EA0147501475000000000000
B0243563207681S11656931EA0147201473000000000000
B0244003207612S11656970EA0147001471000000000000
B0244043207544S11656991EA0146601467000000000000
B0244083207475S11656997EA0146101462000000015000
B0244123207408S11656994EA0145601456000000015000
B0244163207351S11656970EA0145601455000000015000
B0244203207302S11656938EA0145301455000000015000
B0244243207259S11656897EA0144901453000000030000
B0244283207233S11656839EA0144201449000000030000
B0244323207213S11656775EA0143501442000000030000
B0244363207204S11656709EA0142601436000000030000
B0244403207209S11656639EA0142301434000000015000
B0244443207220S11656574EA0142101429000000015000
B0244483207237S11656511EA0141601421000000015000
B0244523207260S11656450EA0141001414000000015000
B0244563207287S11656389EA0140701412000000015000
B0245003207315S11656329EA0140801412000000015000
B0245043207338S11656266EA0140801412000000000000
B0245083207356S11656202EA0140901415000000000000
B0245123207369S11656138EA0141301418000000000000
B0245163207382S11656076EA0141501421000000000000
B0245203207390S11656012EA0141301417000000000000
B0245243207401S11655947EA0140901411000000000000
B0245283207410S11655882EA0140501409000000000000
B0245323207417S11655816EA0140001404000000000000
B0245363207427S11655748EA0139401398000000015000
B0245403207437S11655682EA0138801390000000015000
B0245443207449S11655616EA0137901379000000015000
B0245483207464S11655548EA0136901369000000015000
B0245523207481S11655479EA0135601362000000015000
B0245563207499S11655413EA0134501355000000015000
B0246003207518S11655345EA0134001353000000015000
B0246043207532S11655275EA0133501343000000015000
B0246083207547S11655203EA0133001336000000015000
B0246123207559S11655132EA0132301331000000015000
B0246163207568S11655060EA0131701325000000015000
B0246203207577S11654986EA0131501320000000015000
B0246243207588S11654908EA0130901315000000015000
B0246283207602S11654833EA0130401312000000015000
B0246323207623S11654759EA0130601312000000015000
B0246363207657S11654694EA0131401318000000015000
B0246403207687S11654628EA0132201323000000015000
B0246443207666S11654574EA0133401338000000030000
B0246483207620S11654599EA0134301345000000030000
B0246523207602S11654667EA0134301341000000045000
B0246563207619S11654741EA0133901341000000060000
B0247003207668S11654791EA0134001340000000060000
B0247043207744S11654785EA0134901348000000060000
B0247083207789S11654741EA0135601352000000090000
B0247123207778S11654682EA0136001356000000105000
B0247163207726S11654681EA0136301362000000120000
B0247203207690S11654738EA0136301366000000090000
B0247243207710S11654813EA0136201363000000090000
B0247283207774S11654843EA0136501373000000075000
B0247323207824S11654804EA0136901377000000090000
B0247363207830S11654742EA0136901381000000090000
B0247403207805S11654685EA0136501366000000030000
B0247443207766S11654630EA0135301350000000015000
B0247483207722S11654573EA0134001338000000015000
B0247523207674S11654513EA0132701326000000015000
B0247563207623S11654455EA0131901323000000015000
B0248003207571S11654396EA0131301315000000015000
B0248043207520S11654330EA0130001301000000015000
B0248083207473S11654264EA0130201308000000015000
B0248123207429S11654202EA0130201303000000015000
B0248163207382S11654149EA0130501310000000015000
B0248203207337S11654097EA0131001315000000015000
B0248243207293S11654039EA0130901306000000015000
B0248283207246S11653971EA0130401310000000015000
B0248323207203S11653907EA0130901305000000015000
B0248363207157S11653841EA0129201284000000015000
B0248403207112S11653770EA0128001276000000015000
B0248443207068S11653698EA0127201272000000015000
B0248483207026S11653627EA0126701264000000015000
B0248523206979S11653555EA0125101255000000015000
B0248563206934S11653481EA0124401251000000015000
B0249003206888S11653411EA0124001246000000015000
B0249043206840S11653343EA0123901249000000015000
B0249083206788S11653282EA0124401253000000015000
B0249123206740S11653220EA0124901256000000015000
B0249163206693S11653153EA0125001257000000015000
B0249203206649S11653087EA0125301258000000015000
B0249243206604S11653023EA0125401259000000000000
B0249283206556S11652960EA0125701263000000000000
B0249323206505S11652908EA0127401282000000000000
B0249363206450S11652947EA0130201313000000015000
B0249403206459S11653022EA0131901326000000015000
B0249443206515S11653048EA0132501329000000015000
B0249483206550S11653004EA0133101337000000015000
B0249523206533S11652948EA0133901348000000015000
B0249563206480S11652936EA0134901356000000015000
B0250003206429S11652987EA0135101353000000015000
B0250043206431S11653071EA0135401367000000015000
B0250083206480S11653122EA0137001381000000015000
B0250123206530S11653109EA0138201392000000015000
B0250163206532S11653056EA0139101394000000015000
B0250203206484S11653034EA0139201397000000015000
B0250243206429S11653070EA0139401399000000000000
B0250283206402S11653146EA0140101408000000000000
B0250323206423S11653220EA0141101417000000000000
B0250363206476S11653244EA0141801426000000000000
B0250403206517S11653213EA0142501433000000015000
B0250443206511S11653157EA0142901435000000000000
B0250483206465S11653133EA0143701448000000000000
B0250523206413S11653160EA0144701452000000000000
B0250563206384S11653229EA0145001456000000000000
B0251003206401S11653304EA0145501461000000000000
B0251043206452S11653344EA0146201470000000000000
B0251083206504S11653341EA0147201477000000000000
B0251123206533S11653300EA0147701482000000000000
B0251163206527S11653250EA0148201486000000000000
B0251203206484S11653226EA0148701492000000000000
B0251243206433S11653253EA0148701491000000000000
B0251283206402S11653322EA0148901493000000000000
B0251323206422S11653400EA0149201497000000015000
B0251363206478S11653437EA0149601506000000015000
B0251403206524S11653413EA0150601513000000015000
B0251443206533S11653363EA0151301519000000015000
B0251483206509S11653315EA0151501520000000000000
B0251523206468S11653279EA0151501519000000000000
B0251563206419S11653247EA0150701509000000000000
B0252003206362S11653218EA0150201505000000000000
B0252043206303S11653187EA0150301507000000015000
B0252083206246S11653159EA0150801510000000015000
B0252123206194S11653125EA0150501499000000015000
B0252163206145S11653082EA0149401485000000015000
B0252203206094S11653035EA0147901470000000015000
B0252243206043S11652987EA0146501460000000015000
B0252283205994S11652940EA0146601467000000015000
B0252323205942S11652901EA0146501462000000015000
B0252363205887S11652860EA0145501450000000015000
B0252403205839S11652808EA0144701446000000015000
B0252443205794S11652753EA0144401443000000015000
B0252483205748S11652698EA0143901438000000015000
B0252523205703S11652645EA0143801437000000015000
B0252563205661S11652590EA0143401433000000015000
B0253003205616S11652538EA0143201430000000015000
B0253043205569S11652489EA0142501423000000015000
B0253083205522S11652440EA0141401410000000015000
B0253123205471S11652389EA0140701400000000015000
B0253163205413S11652347EA0139801393000000015000
B0253203205347S11652316EA0138701382000000015000
B0253243205275S11652291EA0137901375000000015000
B0253283205201S11652278EA0137201367000000015000
B0253323205124S11652271EA0136301361000000015000
B0253363205049S11652267EA0135901356000000015000
B0253403204973S11652265EA0135101349000000015000
B0253443204901S11652267EA0134701344000000015000
B0253483204829S11652265EA0134301340000000015000
B0253523204759S11652265EA0134001338000000015000
B0253563204690S11652265EA0133601331000000015000
B0254003204621S11652265EA0133301328000000015000
B0254043204551S11652263EA0133201326000000030000
B0254083204481S11652262EA0133501330000000015000
B0254123204411S11652264EA0134301336000000015000
B0254163204343S11652269EA0135601342000000015000
B0254203204274S11652304EA0137001347000000030000
B0254243204294S11652401EA0137901351000000030000
B0254283204349S11652450EA0137901358000000030000
B0254323204399S11652446EA0137901362000000030000
B0254363204426S11652405EA0137901365000000015000
B0254403204431S11652350EA0137901367000000015000
B0254443204407S11652299EA0138001372000000015000
B0254483204364S11652262EA0138801379000000015000
B0254523204313S11652250EA0140001385000000015000
B0254563204284S11652311EA0140701391000000030000
B0255003204323S11652381EA0141201394000000045000
B0255043204386S11652390EA0141301400000000060000
B0255083204424S11652346EA0142101408000000045000
B0255123204426S11652288EA0142701417000000045000
B0255163204390S11652249EA0143701427000000030000
B0255203204335S11652260EA0144401431000000030000
B0255243204303S11652328EA0145101441000000045000
B0255283204322S11652405EA0146201455000000060000
B0255323204378S11652432EA0147201468000000045000
B0255363204424S11652410EA0148301483000000090000
B0255403204431S11652363EA0149401491000000135000
B0255443204399S11652329EA0149801498000000150000
B0255483204347S11652353EA0150401502000000105000
B0255523204330S11652421EA0151401512000000105000
B0255563204365S11652481EA0152101524000000075000
B0256003204420S11652480EA0152701532000000075000
B0256043204444S11652438EA0153401534000000090000
B0256083204427S11652384EA0152901531000000060000
B0256123204390S11652328EA0152701530000000045000
B0256163204348S11652271EA0152501528000000045000
B0256203204304S11652211EA0152501528000000030000
B0256243204262S11652150EA0152801530000000030000
B0256283204223S11652087EA0152901533000000030000
B0256323204182S11652022EA0153201535000000030000
B0256363204140S11651957EA0153401537000000030000
B0256403204099S11651890EA0153801543000000030000
B0256443204060S11651820EA0155001547000000030000
B0256483204022S11651749EA0155701551000000030000
B0256523203983S11651678EA0155601555000000030000
B0256563203941S11651604EA0155601549000000030000
B0257003203898S11651528EA0154801540000000030000
B0257043203853S11651452EA0153601528000000030000
B0257083203807S11651371EA0152401516000000030000
B0257123203763S11651290EA0151501510000000030000
B0257163203720S11651207EA0151101505000000015000
B0257203203683S11651124EA0150601505000000015000
B0257243203646S11651040EA0150301500000000015000
B0257283203612S11650956EA0149901498000000015000
B0257323203579S11650880EA0150101503000000015000
B0257363203540S11650808EA0150401506000000015000
B0257403203501S11650741EA0150701510000000015000
B0257443203463S11650676EA0151201517000000015000
B0257483203425S11650613EA0151901523000000015000
B0257523203390S11650549EA0152301527000000015000
B0257563203359S11650484EA0152101531000000030000
B0258003203321S11650421EA0151601526000000015000
B0258043203285S11650352EA0150501511000000015000
B0258083203252S11650275EA0149201501000000015000
B0258123203230S11650192EA0148401494000000015000
B0258163203209S11650111EA0148301495000000015000
B0258203203186S11650035EA0148101491000000015000
B0258243203160S11649962EA0148601499000000015000
B0258283203135S11649892EA0149401503000000015000
B0258323203095S11649837EA0150001507000000015000
B0258363203036S11649837EA0150801515000000015000
B0258403202995S11649894EA0151301513000000015000
B0258443202995S11649980EA0150501505000000030000
B0258483203048S11650046EA0150101506000000015000
B0258523203120S11650066EA0150801515000000030000
B0258563203182S11650039EA0151301522000000075000
B0259003203212S11649975EA0151701521000000090000
B0259043203198S11649909EA0152301528000000045000
B0259083203144S11649879EA0152401528000000060000
B0259123203088S11649903EA0152301532000000120000
B0259163203057S11649971EA0152501535000000015000
B0259203203046S11650053EA0151901531000000180000
B0259243203062S11650132EA0151601527000000150000
B0259283203159S11650217EA0151501517000000000000
B0259323203216S11650291EA0151701516000000120000
B0259363203269S11650362EA0151501518000000120000
B0259403203319S11650443EA0150801516000000090000
B0259443203360S11650523EA0150601516000000090000
B0259483203398S11650605EA0150101515000000090000
B0259523203432S11650691EA0149401509000000075000
B0259563203465S11650780EA0148201496000000075000
B0300003203503S11650865EA0147801490015000060000
B0300043203538S11650945EA0147601482000000045000
B0300083203575S11651025EA0147401478000000030000
B0300123203611S11651107EA0146701470000000030000
B0300163203649S11651190EA0146001462000000030000
B0300203203685S11651275EA0145501456000000015000
B0300243203722S11651358EA0145001451000000015000
B0300283203757S11651441EA0144001445000000015000
B0300323203792S11651526EA0143001440000000030000
B0300363203829S11651613EA0142401435000000030000
B0300403203858S11651700EA0141701429000000030000
B0300443203887S11651790EA0140601417000000030000
B0300483203923S11651878EA0139001402000000030000
B0300523203959S11651969EA0138201393000000015000
B0300563203993S11652057EA0137901388000000015000
B0301003204028S11652143EA0137801389000000015000
B0301043204067S11652225EA0137701387000000015000
B0301083204106S11652304EA0137101379000000015000
B0301123204144S11652385EA0136201371000000015000
B0301163204178S11652470EA0135601369000000030000
B0301203204201S11652566EA0134401363000000030000
B0301243204219S11652663EA0134101359000000015000
B0301283204238S11652757EA0134101355000000015000
B0301323204260S11652849EA0134201354000000015000
B0301363204288S11652939EA0134401355000000015000
B0301403204321S11653023EA0135401359000000030000
B0301443204364S11653096EA0136001359000000015000
B0301483204425S11653120EA0136301363000000030000
B0301523204474S11653090EA0136501363000000030000
B0301563204490S11653034EA0135601354000000030000
B0302003204459S11652988EA0134401346000000030000
B0302043204399S11652988EA0133401340000000015000
B0302083204342S11653027EA0133101339000000075000
B0302123204310S11653101EA0133001335000000120000
B0302163204316S11653203EA0133401343000000180000
B0302203204343S11653298EA0134101353000000090000
B0302243204374S11653377EA0134201357000000075000
B0302283204409S11653452EA0133901360000000075000
B0302323204456S11653525EA0133801357000000060000
B0302363204524S11653563EA0134301359000000060000
B0302403204573S11653532EA0134401355000000075000
B0302443204560S11653481EA0134501356000000045000
B0302483204502S11653490EA0134801358000000060000
B0302523204461S11653551EA0135301366000000120000
B0302563204459S11653628EA0135701369000000180000
B0303003204490S11653698EA0136001374000000060000
B0303043204547S11653737EA0135801373000000105000
B0303083204635S11653697EA0135401374015000060000
B0303123204591S11653611EA0135401370015000030000
B0303163204534S11653602EA0135401370015000150000
B0303203204479S11653649EA0135301363015000075000
B0303243204457S11653729EA0135501364015000165000
B0303283204451S11653818EA0136001368015000225000
B0303323204459S11653907EA0136401371000000105000
B0303363204507S11653955EA0137201378000000090000
B0303403204556S11653929EA0137601374000000090000
B0303443204564S11653868EA0137101371000000090000
B0303483204548S11653812EA0137201370000000090000
B0303523204518S11653772EA0136601371000000090000
B0303563204448S11653779EA0136601373000000090000
B0304003204370S11653823EA0137601374000000090000
B0304043204373S11653935EA0137901370000000090000
B0304083204425S11653984EA0137701366000000105000
B0304123204486S11653963EA0137401365000000090000
B0304163204513S11653905EA0137401364015000090000
B0304203204509S11653838EA0138001372015000120000
B0304243204489S11653786EA0138601382015000225000
B0304283204450S11653759EA0138701396015000210000
B0304323204408S11653789EA0138501411015000120000
B0304363204395S11653944EA0138201398015000195000
B0304403204416S11654052EA0137901377015000195000
B0304443204460S11654139EA0137401377015000195000
B0304483204500S11654218EA0137501375015000165000
B0304523204537S11654301EA0137201373015000135000
B0304563204572S11654387EA0136701370015000120000
B0305003204611S11654469EA0136701368015000135000
B0305043204648S11654550EA0137001368015000105000
B0305083204684S11654633EA0137101368015000075000
B0305123204719S11654715EA0137201369015000075000
B0305163204756S11654798EA0137001370015000075000
B0305203204799S11654880EA0137301371015000090000
B0305243204847S11654955EA0138701373015000090000
B0305283204903S11654923EA0140401386015000090000
B0305323204898S11654863EA0141301403000000060000
B0305363204847S11654863EA0142101418000000030000
B0305403204825S11654933EA0143201435000000030000
B0305443204863S11654994EA0144901453000000030000
B0305483204920S11654986EA0146001463000000030000
B0305523204940S11654932EA0146101466000000075000
B0305563204899S11654897EA0146601471000000060000
B0306003204851S11654929EA0147401480000000075000
B0306043204850S11655008EA0148601491000000060000
B0306083204903S11655053EA0149901507000000075000
B0306123204955S11655028EA0150901514000000120000
B0306163204957S11654964EA0150901518000000135000
B0306203204914S11654927EA0151501525000000090000
B0306243204860S11654949EA0152301533000000060000
B0306283204827S11655018EA0153001536000000045000
B0306323204823S11655099EA0154001543000000060000
B0306363204871S11655159EA0155601552000000045000
B0306403204932S11655159EA0156601564000000045000
B0306443204967S11655106EA0157101564000000075000
B0306483204964S11655046EA0157301567000000060000
B0306523204942S11655010EA0158201572000000060000
B0306563204877S11655033EA0159401577000000060000
B0307003204845S11655138EA0160201582000000060000
B0307043204855S11655215EA0161401587000000060000
B0307083204944S11655245EA0162601612000000045000
B0307123204993S11655207EA0163801617000000075000
B0307163204994S11655140EA0163801623000000090000
B0307203204955S11655099EA0164201631000000150000
B0307243204899S11655128EA0165201641000000180000
B0307283204871S11655202EA0165601647000000165000
B0307323204876S11655287EA0166501656000000165000
B0307363204933S11655327EA0167601669015000165000
B0307403204985S11655289EA0168901677015000150000
B0307443204998S11655220EA0169101689000000090000
B0307483204954S11655184EA0169601703000000075000
B0307523204897S11655209EA0170501705000000090000
B0307563204855S11655271EA0170401704000000090000
B0308003204877S11655372EA0170001701000000075000
B0308043204932S11655466EA0169601697000000060000
B0308083204998S11655548EA0169301693000000030000
B0308123205070S11655619EA0168901690000000030000
B0308163205146S11655687EA0169001688000000030000
B0308203205223S11655759EA0169201693000000030000
B0308243205297S11655827EA0170001698000000015000
B0308283205369S11655886EA0171801706000000030000
B0308323205436S11655935EA0173201714000000030000
B0308363205504S11655964EA0173801716000000030000
B0308403205573S11655955EA0173201714000000030000
B0308443205629S11655915EA0172301711000000030000
B0308483205685S11655874EA0172101710000000045000
B0308523205739S11655833EA0172201708000000045000
B0308563205791S11655788EA0172201707000000045000
B0309003205848S11655744EA0171501705000000060000
B0309043205906S11655703EA0171101703000000060000
B0309083205968S11655657EA0171001701000000075000
B0309123206025S11655610EA0171201707000000045000
B0309163206082S11655567EA0171901713000000060000
B0309203206134S11655530EA0172701726000000045000
B0309243206188S11655495EA0173101730000000030000
B0309283206242S11655463EA0173201733000000030000
B0309323206296S11655436EA0173001735000000045000
B0309363206350S11655411EA0172401736000000045000
B0309403206407S11655382EA0171601737000000060000
B0309443206466S11655350EA0170701736000000060000
B0309483206528S11655320EA0170101736000000060000
B0309523206591S11655291EA0169401735015000075000
B0309563206653S11655259EA0168701733015000075000
B0310003206714S11655226EA0168101733015000075000
B0310043206775S11655194EA0168001732015000075000
B0310083206839S11655166EA0167301731015000075000
B0310123206899S11655137EA0166601730015000090000
B0310163206960S11655105EA0166001730015000090000
B0310203207022S11655073EA0165601730015000090000
B0310243207081S11655042EA0165001730015000105000
B0310283207139S11655007EA0164201730015000105000
B0310323207202S11654968EA0163901731015000120000
B0310363207263S11654936EA0163301733015000120000
B0310403207326S11654904EA0162501733015000135000
B0310443207395S11654875EA0161501734015000135000
B0310483207467S11654852EA0160701734015000135000
B0310523207544S11654847EA0160101735015000150000
B0310563207623S11654859EA0159701736015000150000
B0311003207700S11654884EA0159501737015000150000
B0311043207772S11654920EA0159101739030000135000
B0311083207848S11654959EA0159301742030000135000
B0311123207922S11654998EA0159401745030000150000
B0311163207989S11655029EA0159401745015000150000
B0311203208062S11655059EA0159601747015000150000
B0311243208135S11655077EA0159301749015000165000
B0311283208207S11655090EA0159001752015000165000
B0311323208279S11655099EA0158101753015000165000
B0311363208356S11655112EA0156701752015000180000
B0311403208435S11655136EA0155301751015000180000
B0311443208524S11655176EA0153401751015000195000
B0311483208613S11655231EA0151601750015000195000
B0311523208688S11655298EA0150701750015000180000
B0311563208730S11655389EA0150201751030000165000
B0312003208708S11655506EA0150101751030000165000
B0312043208714S11655573EA0149701751030000150000
B0312083208684S11655648EA0149301751030000135000
B0312123208623S11655736EA0149001752045000120000
B0312163208556S11655827EA0149201754030000120000
B0312203208522S11655900EA0149301755015000135000
B0312243208490S11655972EA0149201757015000135000
B0312283208461S11656047EA0148701759015000135000
B0312323208438S11656126EA0147901760015000150000
B0312363208416S11656204EA0147401761015000150000
B0312403208394S11656284EA0146601761015000165000
B0312443208370S11656363EA0145601760015000165000
B0312483208343S11656440EA0145101758030000165000
B0312523208218S11656592EA0144501528030000210000
B0312563208204S11656676EA0144001531015000225000
B0313003208177S11656754EA0143401522015000210000
B0313043208148S11656839EA0142701511015000210000
B0313083208119S11656918EA0142201488015000165000
B0313123208088S11657001EA0141701484015000165000
B0313163208056S11657083EA0141601478015000150000
B0313203208023S11657168EA0141701476015000165000
B0313243207997S11657247EA0142601476015000150000
B0313283207982S11657330EA0142901479015000135000
B0313323207980S11657417EA0142201481015000135000
B0313363207991S11657504EA0141601484015000135000
B0313403208036S11657585EA0141301486015000135000
B0313443208108S11657664EA0141301488015000135000
B0313483208165S11657735EA0142101489015000135000
B0313523208216S11657801EA0142601490015000135000
B0313563208272S11657861EA0143701488015000120000
B0314003208326S11657902EA0144901493015000135000
B0314043208382S11657926EA0145601498015000120000
B0314083208421S11657937EA0145901504015000105000
B0314123208435S11657930EA0146001509030000105000
B0314163208416S11657948EA0146301514030000105000
B0314203208299S11657909EA0146701519030000105000
B0314243208260S11657936EA0147501524030000105000
B0314283208305S11657976EA0147701523015000105000
B0314323208360S11657958EA0147801521015000120000
B0314363208391S11657911EA0148301527015000195000
B0314403208386S11657852EA0148401531015000045000
B0314443208334S11657826EA0149101531015000015000
B0314483208283S11657854EA0149801524015000195000
B0314523208260S11657923EA0150001527015000180000
B0314563208275S11658004EA0150701529015000165000
B0315003208329S11658047EA0151101530015000165000
B0315043208382S11658023EA0151301531015000225000
B0315083208411S11657966EA0151501531015000225000
B0315123208415S11657910EA0151601533015000120000
B0315163208347S11657894EA0151801527015000180000
B0315203208294S11657919EA0152501526000000090000
B0315243208259S11657979EA0152801531000000090000
B0315283208260S11658066EA0153101536000000075000
B0315323208307S11658132EA0153801541000000090000
B0315363208373S11658157EA0154001545000000075000
B0315403208429S11658127EA0154301551000000105000
B0315443208465S11658078EA0154201556000000225000
B0315483208470S11658015EA0153801564015000000000
B0315523208429S11657967EA0153701570015000135000
B0315563208304S11657963EA0153301537015000165000
B0316003208234S11657961EA0152301520000000060000
B0316043208162S11657961EA0151301510000000045000
B0316083208091S11657970EA0150301503000000030000
B0316123208017S11657978EA0149801501000000030000
B0316163207944S11657984EA0149901505000000015000
B0316203207872S11657995EA0150101502000000015000
B0316243207801S11658004EA0149901502000000015000
B0316283207728S11658009EA0150101503000000015000
B0316323207655S11658011EA0150401507000000030000
B0316363207588S11658006EA0151301513000000015000
B0316403207521S11658001EA0151001515000000030000
B0316443207450S11658002EA0150201512000000030000
B0316483207377S11658011EA0149701505000000030000
B0316523207303S11658023EA0149001497000000030000
B0316563207228S11658027EA0148301491000000030000
B0317003207152S11658024EA0147501486000000045000
B0317043207076S11658015EA0147501482000000045000
B0317083207005S11658001EA0147601479000000045000
B0317123206934S11657991EA0147201478000000045000
B0317163206864S11657980EA0146501475000000045000
B0317203206791S11657969EA0145701472000000060000
B0317243206718S11657962EA0144901468000000060000
B0317283206647S11657956EA0144001461000000060000
B0317323206571S11657948EA0142901455000000060000
B0317363206493S11657940EA0142101442000000060000
B0317403206418S11657931EA0141201436000000060000
B0317443206344S11657917EA0140501429000000060000
B0317483206270S11657902EA0139701424000000060000
B0317523206194S11657888EA0138601398000000030000
B0317563206121S11657870EA0137501391000000030000
B0318003206049S11657849EA0136701380000000015000
B0318043205977S11657829EA0136801382000000015000
B0318083205908S11657811EA0136501374000000015000
B0318123205838S11657798EA0136201368000000015000
B0318163205765S11657797EA0136101365000000015000
B0318203205692S11657815EA0135701361000000015000
B0318243205621S11657852EA0135301357000000015000
B0318283205552S11657896EA0135001354000000015000
B0318323205488S11657948EA0134601351000000015000
B0318363205425S11658002EA0134101348000000015000
B0318403205362S11658058EA0133801345000000030000
B0318443205302S11658110EA0134301347000000030000
B0318483205245S11658158EA0135401351000000030000
B0318523205188S11658201EA0136501358000000030000
B0318563205168S11658268EA0137901370000000045000
B0319003205211S11658317EA0138901377000000090000
B0319043205271S11658305EA0139201382000000060000
B0319083205301S11658245EA0138601378000000030000
B0319123205283S11658179EA0138501385000000030000
B0319163205228S11658149EA0139301391000000030000
B0319203205171S11658179EA0139901400000000045000
B0319243205144S11658251EA0140701409000000045000
B0319283205161S11658325EA0141701424000000090000
B0319323205219S11658355EA0142701434000000090000
B0319363205275S11658346EA0143201437000000090000
B0319403205322S11658325EA0142801441000000060000
B0319443205347S11658286EA0142601446000000060000
B0319483205267S11658178EA0143001449000000060000
B0319523205194S11658144EA0143201453000000060000
B0319563205132S11658183EA0143501456015000075000
B0320003205101S11658261EA0143401457015000105000
B0320043205096S11658346EA0144001459015000075000
B0320083205103S11658413EA0144701462015000090000
B0320123205131S11658434EA0145001465015000075000
B0320163205171S11658420EA0145201468015000060000
B0320203205215S11658362EA0145601470015000060000
B0320243205256S11658192EA0145601472030000060000
B0320283205230S11658136EA0145101475030000060000
B0320323205165S11658100EA0144301478030000060000
B0320363205094S11658080EA0143901482030000060000
B0320403205023S11658073EA0143301485030000075000
B0320443204947S11658082EA0143401488030000075000
B0320483204876S11658097EA0144101488015000075000
B0320523204803S11658113EA0144201486015000060000
B0320563204733S11658130EA0144701478000000045000
B0321003204668S11658139EA0145601483000000045000
B0321043204613S11658169EA0147101493000000045000
B0321083204587S11658235EA0148501504000000075000
B0321123204629S11658304EA0148301494000000090000
B0321163204700S11658326EA0148501492000000060000
B0321203204767S11658314EA0148501488000000045000
B0321243204821S11658281EA0148001484000000045000
B0321283204856S11658229EA0147801480000000045000
B0321323204853S11658158EA0147801477000000060000
B0321363204808S11658091EA0147401474000000060000
B0321403204775S11658031EA0146501469000000060000
B0321443204741S11657969EA0146001465000000075000
B0321483204717S11657901EA0144801459015000075000
B0321523204695S11657829EA0142901452015000075000
B0321563204676S11657754EA0141401444015000090000
B0322003204647S11657676EA0140801436015000090000
B0322043204587S11657618EA0141801429015000090000
B0322083204529S11657562EA0142601423015000090000
B0322123204469S11657528EA0142401417015000075000
B0322163204411S11657490EA0142501415000000060000
B0322203204351S11657452EA0143401424000000045000
B0322243204360S11657387EA0144401440000000060000
B0322283204417S11657377EA0146501451000000090000
B0322323204472S11657425EA0146801456000000090000
B0322363204507S11657501EA0146601455000000090000
B0322403204516S11657585EA0146901455000000090000
B0322443204489S11657668EA0147201457000000090000
B0322483204444S11657735EA0147601458000000090000
B0322523204388S11657774EA0148401459000000090000
B0322563204297S11657718EA0149601463015000090000
B0323003204281S11657651EA0149001456015000120000
B0323043204307S11657581EA0148301455015000105000
B0323083204364S11657545EA0148301461015000165000
B0323123204452S11657555EA0148801473015000120000
B0323163204520S11657606EA0149501490000000090000
B0323203204557S11657684EA0150701508000000060000
B0323243204564S11657771EA0151701517000000060000
B0323283204544S11657854EA0151601523000000060000
B0323323204511S11657932EA0150701529000000075000
B0323363204444S11657982EA0150101533000000075000
B0323403204357S11657997EA0150101539000000075000
B0323443204253S11657974EA0150401543015000090000
B0323483204175S11657966EA0149401548015000090000
B0323523204093S11657954EA0148601551015000090000
B0323563204010S11657945EA0147801554015000090000
B0324003203927S11657937EA0146501555015000105000
B0324043203844S11657931EA0145901555015000105000
B0324083203764S11657923EA0146001555015000105000
B0324123203686S11657911EA0146601553015000105000
B0324163203606S11657904EA0146701519000000060000
B0324203203525S11657902EA0145801500000000060000
B0324243203443S11657901EA0145401483000000045000
B0324283203363S11657901EA0145201477000000030000
B0324323203282S11657902EA0145201465000000030000
B0324363203200S11657901EA0144601454000000015000
B0324403203117S11657904EA0143801441000000015000
B0324443203033S11657905EA0142901430000000015000
B0324483202949S11657910EA0142301423000000015000
B0324523202865S11657917EA0141601417000000015000
B0324563202782S11657923EA0141101412000000015000
B0325003202700S11657930EA0140801407000000015000
B0325043202619S11657936EA0140501404000000015000
B0325083202540S11657943EA0140201400000000015000
B0325123202462S11657950EA0139901397000000015000
B0325163202384S11657958EA0139801394000000015000
B0325203202308S11657966EA0139501391000000015000
B0325243202233S11657970EA0139001388000000015000
B0325283202155S11657982EA0138801386000000015000
B0325323202078S11657992EA0138701386000000015000
B0325363202003S11658002EA0138801388000000015000
B0325403201930S11658015EA0138801387000000015000
B0325443201856S11658032EA0138301381000000015000
B0325483201783S11658053EA0137601374000000015000
B0325523201709S11658076EA0136701367000000015000
B0325563201634S11658101EA0136001363000000015000
B0326003201558S11658123EA0135401359000000015000
B0326043201483S11658147EA0135001356000000030000
B0326083201410S11658173EA0134701353000000030000
B0326123201336S11658196EA0133901348000000030000
B0326163201259S11658216EA0132801343000000045000
B0326203201184S11658231EA0131901337000000045000
B0326243201107S11658245EA0131101331000000045000
B0326283201029S11658260EA0130601326000000060000
B0326323200951S11658274EA0130301322000000060000
B0326363200876S11658288EA0130201318015000060000
B0326403200800S11658309EA0129701314015000075000
B0326443200728S11658335EA0129601311015000075000
B0326483200656S11658362EA0128801308015000075000
B0326523200586S11658388EA0128001304015000075000
B0326563200517S11658416EA0127101299015000090000
B0327003200448S11658446EA0126501294015000090000
B0327043200382S11658478EA0126101290015000090000
B0327083200316S11658515EA0125701286015000090000
B0327123200251S11658557EA0124901282015000105000
B0327163200186S11658600EA0124401278015000105000
B0327203200122S11658643EA0124001274015000105000
B0327243200058S11658682EA0123801271015000120000
B0327283159996S11658723EA0123501268015000120000
B0327323159937S11658765EA0123101264015000120000
B0327363159888S11658825EA0123101262015000120000
B0327403159853S11658902EA0122401260015000120000
B0327443159824S11658986EA0122401253015000105000
B0327483159798S11659066EA0123101249000000075000
B0327523159781S11659144EA0124401252000000060000
B0327563159816S11659194EA0126001266000000060000
B0328003159863S11659174EA0127001272000000060000
B0328043159859S11659114EA0127301275000000060000
B0328083159806S11659087EA0127801279000000105000
B0328123159749S11659123EA0128101281000000105000
B0328163159733S11659204EA0128901289000000075000
B0328203159775S11659265EA0130001301000000060000
B0328243159832S11659261EA0131901323000000045000
B0328283159854S11659210EA0133601335000000045000
B0328323159815S11659171EA0134601343000000045000
B0328363159760S11659196EA0135601358000000045000
B0328403159751S11659263EA0136801369000000090000
B0328443159797S11659306EA0137601380000000090000
B0328483159842S11659280EA0138901388000000075000
B0328523159840S11659227EA0139901397000000060000
B0328563159792S11659205EA0140401402000000075000
B0329003159740S11659243EA0141101411000000090000
B0329043159721S11659311EA0142101417000000165000
B0329083159758S11659370EA0143501430000000195000
B0329123159819S11659366EA0144501442000000135000
B0329163159842S11659317EA0145401446000000120000
B0329203159816S11659265EA0145801455000000090000
B0329243159767S11659236EA0146001459000000105000
B0329283159707S11659239EA0146501463000000105000
B0329323159656S11659301EA0147801466000000090000
B0329363159671S11659384EA0149101470015000075000
B0329403159738S11659418EA0150201476015000075000
B0329443159781S11659356EA0150801482015000090000
B0329483159745S11659314EA0151201486015000105000
B0329523159692S11659331EA0152001498015000150000
B0329563159659S11659386EA0153101508015000150000
B0330003159702S11659447EA0154201526000000120000
B0330043159757S11659441EA0155301539000000120000
B0330083159768S11659384EA0155901553000000060000
B0330123159733S11659340EA0156501561000000105000
B0330163159688S11659328EA0157401575000000045000
B0330203159656S11659426EA0158401586000000000000
B0330243159712S11659474EA0158701585000000135000
B0330283159766S11659436EA0159101594000000075000
B0330323159772S11659367EA0159601598000000045000
B0330363159736S11659311EA0159801597000000060000
B0330403159671S11659305EA0159401594000000075000
B0330443159616S11659356EA0160201602000000060000
B0330483159603S11659441EA0160701605000000060000
B0330523159643S11659521EA0161601626000000045000
B0330563159708S11659544EA0164201654000000045000
B0331003159754S11659509EA0166201668000000045000
B0331043159771S11659451EA0166901674000000045000
B0331083159727S11659408EA0167401683000000045000
B0331123159673S11659414EA0168701691000000030000
B0331163159634S11659466EA0169201695000000030000
B0331203159640S11659551EA0169301695000000045000
B0331243159694S11659605EA0170801712000000030000
B0331283159754S11659590EA0172201726000000030000
B0331323159770S11659529EA0173001728000000060000
B0331363159727S11659483EA0172501724000000150000
B0331403159655S11659505EA0172801734000000045000
B0331443159598S11659564EA0173401736000000045000
B0331483159545S11659633EA0173501734000000030000
B0331523159481S11659681EA0173201735000000030000
B0331563159416S11659707EA0173401739000000015000
B0332003159354S11659718EA0173401741000000015000
B0332043159295S11659709EA0172901735000000015000
B0332083159234S11659692EA0172201722000000015000
B0332123159169S11659678EA0170801701000000015000
B0332163159099S11659665EA0169301693000000015000
B0332203159029S11659659EA0168201684000000015000
B0332243158956S11659662EA0167401677000000015000
B0332283158884S11659672EA0167101674000000000000
B0332323158814S11659679EA0166701669000000000000
B0332363158744S11659686EA0166401667000000015000
B0332403158675S11659688EA0166201665000000015000
B0332443158606S11659695EA0166001664000000000000
B0332483158537S11659701EA0165801658000000000000
B0332523158467S11659708EA0165601657000000000000
B0332563158394S11659713EA0165401657000000000000
B0333003158323S11659713EA0165601661000000000000
B0333043158252S11659709EA0166201665000000015000
B0333083158185S11659708EA0167301672000000015000
B0333123158115S11659714EA0168501679000000015000
B0333163158047S11659731EA0169601689000000015000
B0333203157999S11659792EA0170701699000000015000
B0333243157999S11659881EA0170801697000000015000
B0333283158042S11659959EA0170401694000000015000
B0333323158107S11700003EA0170301696000000030000
B0333363158174S11700002EA0170701703000000030000
B0333403158226S11659967EA0170701703000000015000
B0333443158254S11659907EA0170701709000000030000
B0333483158251S11659843EA0172001720000000015000
B0333523158233S11659786EA0173701741000000015000
B0333563158198S11659750EA0175901759000000015000
B0334003158152S11659782EA0176701761000000015000
B0334043158148S11659864EA0176701763000000015000
B0334083158195S11659937EA0177001772000000030000
B0334123158267S11659961EA0178101781000000030000
B0334163158324S11659924EA0178301783000000030000
B0334203158338S11659854EA0179001792000000045000
B0334243158307S11659795EA0179901805000000060000
B0334283158245S11659785EA0181701826000000045000
B0334323158202S11659839EA0183301837000000045000
B0334363158211S11659926EA0183101833000000045000
B0334403158268S11659984EA0184201850000000045000
B0334443158329S11659974EA0186401872000000060000
B0334483158359S11659922EA0187301875000000060000
B0334523158341S11659860EA0187501883000000060000
B0334563158294S11659813EA0188601897000000045000
B0335003158242S11659779EA0190101909000000030000
B0335043158191S11659756EA0191601922000000015000
B0335083158141S11659748EA0192701929000000015000
B0335123158087S11659774EA0192601924000000015000
B0335163158039S11659830EA0192101922000000015000
B0335203157996S11659894EA0192301923000000015000
B0335243157955S11659959EA0192501926000000015000
B0335283157916S11700028EA0192301923000000015000
B0335323157872S11700094EA0191801916000000000000
B0335363157813S11700143EA0191001908000000000000
B0335403157748S11700173EA0190301901000000000000
B0335443157683S11700180EA0189901899000000000000
B0335483157630S11700158EA0189701898000000000000
B0335523157587S11700123EA0189501896000000000000
B0335563157560S11700077EA0189001890000000000000
B0336003157544S11700025EA0188501883000000000000
B0336043157532S11659971EA0187601872000000000000
B0336083157522S11659912EA0186501862000000000000
B0336123157511S11659854EA0185601854000000000000
B0336163157496S11659796EA0184801847000000000000
B0336203157478S11659739EA0184101840000000000000
B0336243157461S11659682EA0183401834000000000000
B0336283157441S11659626EA0182901829000000000000
B0336323157422S11659571EA0182301823000000000000
B0336363157401S11659516EA0181901817000000000000
B0336403157381S11659460EA0181201811000000000000
B0336443157363S11659402EA0180601806000000000000
B0336483157344S11659345EA0180201803000000000000
B0336523157324S11659289EA0179801798000000000000
B0336563157302S11659235EA0179401795000000000000
B0337003157277S11659180EA0179001791000000000000
B0337043157250S11659126EA0178701787000000000000
B0337083157224S11659070EA0178401783000000000000
B0337123157197S11659015EA0178101780000000000000
B0337163157171S11658959EA0177901780000000000000
B0337203157151S11658901EA0178001781000000000000
B0337243157149S11658840EA0178001782000000000000
B0337283157166S11658780EA0177901778000000000000
B0337323157198S11658724EA0177601775000000000000
B0337363157236S11658672EA0177201773000000000000
B0337403157288S11658639EA0177201773000000000000
B0337443157354S11658641EA0176801764000000000000
B0337483157422S11658678EA0175601748000000000000
B0337523157483S11658739EA0174401739000000000000
B0337563157534S11658814EA0173601733000000000000
B0338003157579S11658893EA0172901727000000000000
B0338043157626S11658970EA0172401723000000000000
B0338083157671S11659044EA0172401725000000000000
B0338123157712S11659119EA0172501724000000000000
B0338163157732S11659201EA0172501726000000000000
B0338203157714S11659276EA0172501720000000000000
B0338243157665S11659322EA0171501711000000000000
B0338283157608S11659321EA0170901705000000000000
B0338323157562S11659283EA0170501699000000015000
B0338363157526S11659237EA0170301703000000000000
B0338403157492S11659194EA0170701706000000000000
B0338443157459S11659154EA0170701704000000000000
B0338483157427S11659113EA0170401697000000000000
B0338523157392S11659068EA0169401687000000000000
B0338563157357S11659022EA0168501677000000000000
B0339003157322S11658976EA0167801671000000000000
B0339043157288S11658931EA0167001664000000000000
B0339083157250S11658884EA0166101653000000000000
B0339123157215S11658833EA0165201646000000000000
B0339163157184S11658780EA0164701642000000000000
B0339203157155S11658725EA0164401636000000000000
B0339243157128S11658669EA0163901632000000000000
B0339283157106S11658613EA0163701629000000000000
B0339323157088S11658554EA0163001620000000000000
B0339363157072S11658491EA0162501618000000000000
B0339403157051S11658429EA0161901610000000000000
B0339443157025S11658366EA0161301606000000000000
B0339483156998S11658307EA0161401607000000000000
B0339523156971S11658248EA0161601612000000000000
B0339563156943S11658192EA0161901617000000000000
B0340003156915S11658139EA0162201615000000000000
B0340043156886S11658084EA0161901612000000000000
B0340083156856S11658031EA0161801610000000000000
B0340123156828S11657976EA0161201604000000000000
B0340163156802S11657918EA0160501596000000000000
B0340203156774S11657857EA0159801591000000000000
B0340243156748S11657793EA0159701588000000000000
B0340283156716S11657732EA0159901596000000000000
B0340323156681S11657675EA0160301599000000000000
B0340363156644S11657619EA0160401597000000000000
B0340403156608S11657564EA0159901590000000000000
B0340443156572S11657504EA0159101582000000000000
B0340483156536S11657445EA0158701580000000000000
B0340523156500S11657385EA0158401577000000000000
B0340563156469S11657321EA0158201574000000000000
B0341003156439S11657256EA0157901568000000000000
B0341043156405S11657192EA0157101563000000000000
B0341083156371S11657129EA0156801561000000000000
B0341123156340S11657062EA0156701559000000000000
B0341163156310S11656996EA0156601558000000000000
B0341203156276S11656932EA0156701560000000000000
B0341243156243S11656873EA0157601572000000000000
B0341283156215S11656814EA0159101586000000000000
B0341323156167S11656796EA0160801604000000000000
B0341363156119S11656841EA0161201605000000000000
B0341403156100S11656923EA0160801597000000000000
B0341443156119S11657017EA0160501598000000015000
B0341483156172S11657087EA0160901606000000015000
B0341523156240S11657113EA0161901620000000015000
B0341563156295S11657094EA0162901628000000015000
B0342003156322S11657043EA0163201628000000015000
B0342043156310S11656987EA0163401632000000015000
B0342083156276S11656940EA0163701634000000015000
B0342123156231S11656904EA0163701632000000015000
B0342163156183S11656867EA0163301626000000015000
B0342203156130S11656828EA0163101626000000015000
B0342243156076S11656789EA0163401632000000015000
B0342283156026S11656748EA0163501630000000000000
B0342323155976S11656701EA0163401629000000000000
B0342363155931S11656649EA0163301628000000000000
B0342403155893S11656592EA0163301628000000000000
B0342443155862S11656529EA0163101625000000000000
B0342483155831S11656464EA0162701619000000000000
B0342523155798S11656396EA0162001613000000000000
B0342563155773S11656323EA0161601609000000000000
B0343003155753S11656247EA0161301608000000000000
B0343043155730S11656177EA0161801618000000000000
B0343083155711S11656110EA0163101628000000000000
B0343123155690S11656042EA0163501629000000000000
B0343163155667S11655974EA0163101625000000000000
B0343203155642S11655907EA0162701621000000000000
B0343243155619S11655837EA0162201616000000015000
B0343283155599S11655766EA0161801612000000000000
B0343323155580S11655695EA0161501609000000000000
B0343363155555S11655626EA0160401596000000000000
B0343403155517S11655561EA0159501586000000000000
B0343443155477S11655497EA0159101581000000000000
B0343483155430S11655440EA0158501577000000000000
B0343523155372S11655398EA0158301575000000000000
B0343563155305S11655384EA0158401578000000000000
B0344003155236S11655402EA0158401576000000000000
B0344043155170S11655437EA0158001575000000000000
B0344083155106S11655479EA0158401579000000000000
B0344123155045S11655526EA0158501581000000000000
B0344163154986S11655574EA0159201591000000000000
B0344203154950S11655645EA0160501601000000000000
B0344243154967S11655726EA0162001607000000015000
B0344283155043S11655718EA0163001618000000015000
B0344323155067S11655665EA0164301630000000045000
B0344363155034S11655630EA0164901635000000030000
B0344403154975S11655645EA0164801634000000030000
B0344443154932S11655713EA0164901639000000030000
B0344483154930S11655804EA0165301641000000030000
B0344523154969S11655885EA0165201640000000045000
B0344563155044S11655920EA0165501647000000060000
B0345003155117S11655899EA0165501649000000105000
B0345043155149S11655834EA0166101658000000150000
B0345083155131S11655762EA0167001666000000075000
B0345123155088S11655712EA0167701670000000060000
B0345163155026S11655682EA0167401669000000045000
B0345203154954S11655666EA0166601663000000030000
B0345243154882S11655652EA0165601656000000030000
B0345283154807S11655639EA0164801648000000030000
B0345323154736S11655629EA0164201645000000015000
B0345363154668S11655614EA0163701637000000015000
B0345403154602S11655595EA0163301632000000015000
B0345443154537S11655582EA0162801625000000015000
B0345483154472S11655569EA0162001614000000015000
B0345523154402S11655562EA0161901618000000015000
B0345563154329S11655562EA0163101632000000015000
B0346003154280S11655610EA0165901665000000015000
B0346043154291S11655679EA0167901680000000015000
B0346083154347S11655709EA0168801685000000015000
B0346123154401S11655679EA0169301695000000015000
B0346163154420S11655616EA0170501710000000015000
B0346203154406S11655553EA0172001722000000015000
B0346243154358S11655515EA0173001732000000015000
B0346283154298S11655522EA0174101743000000015000
B0346323154256S11655573EA0175401758000000015000
B0346363154259S11655647EA0176001754000000015000
B0346403154316S11655687EA0175601754000000015000
B0346443154382S11655679EA0176201763000000015000
B0346483154427S11655634EA0177501781000000015000
B0346523154415S11655578EA0179101787000000030000
B0346563154363S11655545EA0178601776000000030000
B0347003154298S11655527EA0177401768000000030000
B0347043154237S11655499EA0176801763000000030000
B0347083154200S11655437EA0176001756000000015000
B0347123154183S11655365EA0175401748000000015000
B0347163154159S11655294EA0174701744000000015000
B0347203154103S11655253EA0174201741000000030000
B0347243154030S11655258EA0173801742000000060000
B0347283153956S11655294EA0173701743000000060000
B0347323153886S11655336EA0173501738000000030000
B0347363153813S11655378EA0173001733000000030000
B0347403153744S11655423EA0173201737000000030000
B0347443153678S11655473EA0174001739000000015000
B0347483153640S11655551EA0175401751000000030000
B0347523153674S11655622EA0176701763000000030000
B0347563153736S11655622EA0176501759000000045000
B0348003153774S11655571EA0176501759000000045000
B0348043153762S11655501EA0176901761000000045000
B0348083153715S11655450EA0176701757000000045000
B0348123153652S11655440EA0176501757000000030000
B0348163153583S11655449EA0176001752000000030000
B0348203153511S11655467EA0175101743000000030000
B0348243153437S11655486EA0174301739000000030000
B0348283153361S11655502EA0173501735000000015000
B0348323153286S11655517EA0173401734000000015000
B0348363153216S11655523EA0173601734000000015000
B0348403153150S11655521EA0173701733000000015000
B0348443153084S11655517EA0173301729000000015000
B0348483153017S11655513EA0172901723000000015000
B0348523152950S11655509EA0172401718000000015000
B0348563152882S11655522EA0172301716000000000000
B0349003152816S11655556EA0171701711000000000000
B0349043152747S11655588EA0171001707000000000000
B0349083152677S11655618EA0170501696000000000000
B0349123152605S11655647EA0169501687000000000000
B0349163152532S11655677EA0168901682000000000000
B0349203152460S11655707EA0168101676000000000000
B0349243152387S11655739EA0167301668000000000000
B0349283152311S11655772EA0166601659000000000000
B0349323152237S11655798EA0166101658000000000000
B0349363152165S11655822EA0166201658000000000000
B0349403152093S11655848EA0166001658000000000000
B0349443152020S11655873EA0166001656000000000000
B0349483151947S11655902EA0165701651000000000000
B0349523151877S11655946EA0165101646000000000000
B0349563151816S11656011EA0165001650000000000000
B0350003151767S11656089EA0165201654000000000000
B0350043151726S11656172EA0165801661000000000000
B0350083151715S11656262EA0167401681000000015000
B0350123151758S11656328EA0169201693000000015000
B0350163151827S11656334EA0169801695000000015000
B0350203151866S11656279EA0169401690000000015000
B0350243151851S11656217EA0170101702000000015000
B0350283151808S11656184EA0170901709000000015000
B0350323151751S11656193EA0171101706000000015000
B0350363151699S11656245EA0170801704000000015000
B0350403151674S11656325EA0170701706000000015000
B0350443151667S11656414EA0171001708000000015000
B0350483151674S11656503EA0171501710000000015000
B0350523151723S11656563EA0172201720000000015000
B0350563151781S11656554EA0173201726000000015000
B0351003151801S11656498EA0173401732000000015000
B0351043151773S11656459EA0174401745000000015000
B0351083151726S11656476EA0175201748000000015000
B0351123151707S11656550EA0174901742000000015000
B0351163151742S11656622EA0175201750000000015000
B0351203151803S11656640EA0175701755000000015000
B0351243151845S11656601EA0175701756000000015000
B0351283151838S11656546EA0176401768000000015000
B0351323151797S11656529EA0177401774000000015000
B0351363151756S11656576EA0177901774000000015000
B0351403151755S11656656EA0177801774000000015000
B0351443151793S11656718EA0178101780000000015000
B0351483151851S11656730EA0178201780000000015000
B0351523151893S11656693EA0178201779000000015000
B0351563151898S11656639EA0178201782000000015000
B0352003151869S11656597EA0178501785000000015000
B0352043151816S11656587EA0179001791000000015000
B0352083151765S11656624EA0179801802000000015000
B0352123151754S11656697EA0181101815000000015000
B0352163151788S11656762EA0181401809000000015000
B0352203151851S11656782EA0180801806000000015000
B0352243151907S11656754EA0180801808000000015000
B0352283151941S11656704EA0180901808000000000000
B0352323151949S11656640EA0180801808000000000000
B0352363151942S11656574EA0180801806000000000000
B0352403151934S11656507EA0181001809000000000000
B0352443151925S11656444EA0181401814000000000000
B0352473151916S11656397EA0181701818000000000000
B0352523151901S11656321EA0181901819000000000000
B0352563151893S11656258EA0181601814000000000000
B0353003151889S11656194EA0181501814000000000000
B0353043151880S11656130EA0181001806000000000000
B0353083151871S11656063EA0180001795000000000000
B0353123151867S11655993EA0178801783000000000000
B0353163151862S11655921EA0177801772000000000000
B0353203151856S11655852EA0176501761000000000000
B0353243151851S11655785EA0175601750000000000000
B0353283151843S11655720EA0174901746000000000000
B0353323151837S11655656EA0174201738000000000000
B0353363151829S11655595EA0173101725000000000000
B0353403151821S11655530EA0172001714000000000000
B0353443151811S11655467EA0171001706000000000000
B0353483151799S11655404EA0170101698000000000000
B0353523151789S11655340EA0169101686000000000000
B0353563151780S11655276EA0168201676000000000000
B0354003151767S11655215EA0167601674000000000000
B0354043151754S11655158EA0168001682000000000000
B0354083151738S11655105EA0168601686000000000000
B0354123151716S11655055EA0168801689000000000000
B0354163151698S11655005EA0168901688000000000000
B0354203151684S11654947EA0168401680000000000000
B0354243151671S11654885EA0167801676000000000000
B0354283151667S11654819EA0167801676000000000000
B0354323151669S11654755EA0168001681000000000000
B0354363151674S11654694EA0168201680000000000000
B0354403151682S11654633EA0167901677000000000000
B0354443151689S11654572EA0167701675000000000000
B0354483151694S11654511EA0167401672000000000000
B0354523151695S11654449EA0166901668000000000000
B0354563151694S11654387EA0166301661000000000000
B0355003151691S11654323EA0165701655000000000000
B0355043151689S11654260EA0165301650000000000000
B0355083151690S11654196EA0165001649000000000000
B0355123151698S11654135EA0164701643000000000000
B0355163151712S11654072EA0164001635000000000000
B0355203151726S11654007EA0163301631000000000000
B0355243151741S11653944EA0162901626000000000000
B0355283151756S11653881EA0162301620000000000000
B0355323151771S11653820EA0161801616000000000000
B0355363151785S11653762EA0161501611000000000000
B0355403151795S11653703EA0160901604000000000000
B0355443151808S11653643EA0160301599000000000000
B0355483151824S11653584EA0159901596000000000000
B0355523151840S11653523EA0159401590000000000000
B0355563151853S11653461EA0159001585000000000000
B0356003151867S11653399EA0158401581000000000000
B0356043151885S11653337EA0158101579000000000000
B0356083151902S11653276EA0158001576000000000000
B0356123151919S11653216EA0157601571000000000000
B0356163151936S11653153EA0157101567000000000000
B0356203151951S11653092EA0156701563000000000000
B0356243151966S11653029EA0156401559000000000000
B0356283151975S11652965EA0156001556000000000000
B0356323151984S11652900EA0155501551000000000000
B0356363151998S11652836EA0155101547000000000000
B0356403152014S11652774EA0154801543000000000000
B0356443152032S11652710EA0154301537000000000000
B0356483152054S11652646EA0153601530000000000000
B0356523152074S11652581EA0153001524000000000000
B0356563152090S11652516EA0152401520000000000000
B0357003152109S11652453EA0151901514000000000000
B0357043152139S11652392EA0151501509000000000000
B0357083152175S11652336EA0150901504000000000000
B0357123152218S11652280EA0150201497000000000000
B0357163152265S11652225EA0149601490000000000000
B0357203152311S11652171EA0149101487000000000000
B0357243152360S11652117EA0148901483000000000000
B0357283152406S11652067EA0148601481000000000000
B0357323152454S11652017EA0148401478000000000000
B0357363152501S11651970EA0147601471000000000000
B0357403152548S11651921EA0146801462000000000000
B0357443152594S11651869EA0145601451000000000000
B0357483152635S11651816EA0144401439000000000000
B0357523152675S11651761EA0143101425000000000000
B0357563152716S11651704EA0141701411000000000000
B0358003152753S11651644EA0140701396000000000000
B0358043152791S11651586EA0138801381000000000000
B0358083152830S11651527EA0137401360000000000000
B0358123152873S11651469EA0135301340000000000000
B0358163152920S11651410EA0133501327000000000000
B0358203152964S11651353EA0133601334000000000000
B0358243153007S11651297EA0134301341000000000000
B0358283153030S11651241EA0135701352000000000000
B0358323153002S11651193EA0135901350000000000000
B0358363152935S11651198EA0135301342000000000000
B0358403152885S11651276EA0135101346000000000000
B0358443152886S11651376EA0135501349000000015000
B0358483152929S11651453EA0135601348000000015000
B0358523152993S11651466EA0135001341000000015000
B0358563153038S11651430EA0134801345000000015000
B0359003153059S11651375EA0135201348000000015000
B0359043153059S11651315EA0135501350000000000000
B0359083153046S11651253EA0135701355000000000000
B0359123153025S11651188EA0135501347000000000000
B0359163153003S11651120EA0135301354000000000000
B0359203152987S11651059EA0137101369000000000000
B0359243152967S11651002EA0137101358000000000000
B0359283152942S11650936EA0136501362000000000000
B0359323152909S11650877EA0138301384000000000000
B0359363152859S11650889EA0140501401000000000000
B0359403152848S11650964EA0140501390000000000000
B0359443152895S11651025EA0139601388000000015000
B0359483152955S11651020EA0141101413000000015000
B0359523152989S11650980EA0143301435000000015000
B0359563152985S11650928EA0144601443000000015000
B0400003152950S11650886EA0145601450000000015000
B0400043152899S11650898EA0146501458000000015000
B0400083152874S11650964EA0146901453000000015000
B0400123152894S11651042EA0146301450000000015000
B0400163152952S11651084EA0146201454000000015000
B0400203153015S11651077EA0147301468000000015000
B0400243153060S11651037EA0148201476000000015000
B0400283153075S11650976EA0148601476000000015000
B0400323153063S11650908EA0148801480000000015000
B0400363153025S11650864EA0149801494000000015000
B0400403152971S11650889EA0150501495000000015000
B0400443152955S11650967EA0150301494000000015000
B0400483152998S11651033EA0150601503000000015000
B0400523153060S11651050EA0151701518000000015000
B0400563153107S11651016EA0152801521000000015000
B0401003153111S11650958EA0152601516000000015000
B0401043153071S11650920EA0152201516000000015000
B0401083153011S11650925EA0152201516000000015000
B0401123152956S11650965EA0152401518000000015000
B0401163152946S11651043EA0152701519000000015000
B0401203152994S11651102EA0152401517000000015000
B0401243153060S11651111EA0152501523000000015000
B0401283153108S11651073EA0153701534000000015000
B0401323153116S11651010EA0153801526000000015000
B0401363153090S11650942EA0152701517000000015000
B0401403153055S11650871EA0151801511000000015000
B0401443153016S11650799EA0151101500000000000000
B0401483152976S11650725EA0150001490000000000000
B0401523152937S11650647EA0148501472000000000000
B0401563152899S11650569EA0147201465000000000000
B0402003152861S11650491EA0145901449000000000000
B0402043152824S11650418EA0145201445000000015000
B0402083152789S11650349EA0145001443000000015000
B0402123152751S11650284EA0144201433000000015000
B0402163152711S11650222EA0143301426000000000000
B0402203152669S11650161EA0142301414000000000000
B0402243152627S11650097EA0141201401000000000000
B0402283152588S11650031EA0140101390000000000000
B0402323152545S11649966EA0139001377000000000000
B0402363152495S11649907EA0138201372000000000000
B0402403152444S11649851EA0137801366000000000000
B0402443152393S11649797EA0137701373000000000000
B0402483152347S11649747EA0139301392000000000000
B0402523152302S11649698EA0141101407000000000000
B0402563152250S11649686EA0142701420000000000000
B0403003152222S11649746EA0143301421000000000000
B0403043152253S11649810EA0143401428000000015000
B0403083152311S11649823EA0144301436000000015000
B0403123152358S11649790EA0145301446000000015000
B0403163152369S11649730EA0146201455000000015000
B0403203152335S11649685EA0146801462000000015000
B0403243152279S11649681EA0147501468000000015000
B0403283152236S11649733EA0148301477000000015000
B0403323152239S11649812EA0148801482000000030000
B0403363152279S11649875EA0149701492000000030000
B0403403152340S11649892EA0150701499000000015000
B0403443152396S11649866EA0150901499000000015000
B0403483152428S11649806EA0151101505000000015000
B0403523152428S11649737EA0151001502000000015000
B0403563152404S11649669EA0150401497000000015000
B0404003152365S11649606EA0150301497000000015000
B0404043152323S11649545EA0150501493000000015000
B0404083152269S11649493EA0150001493000000015000
B0404123152209S11649450EA0150001492000000030000
B0404163152149S11649408EA0150101494000000015000
B0404203152085S11649377EA0150901502000000015000
B0404243152018S11649355EA0150601497000000015000
B0404283151951S11649330EA0149901492000000015000
B0404323151888S11649312EA0149701490000000015000
B0404363151824S11649298EA0149201484000000015000
B0404403151764S11649266EA0148801478000000015000
B0404443151713S11649220EA0149101480000000015000
B0404483151674S11649164EA0150101488000000030000
B0404523151638S11649112EA0152101496000000030000
B0404563151586S11649123EA0153301505000000045000
B0405003151576S11649194EA0154501514000000060000
B0405043151620S11649251EA0155501522000000075000
B0405083151680S11649243EA0156101532000000090000
B0405123151704S11649191EA0157001543000000120000
B0405163151677S11649149EA0157701552000000075000
B0405203151621S11649153EA0158001554000000090000
B0405243151585S11649216EA0158701566000000120000
B0405283151599S11649299EA0159401580000000105000
B0405323151655S11649351EA0160401589000000090000
B0405363151719S11649342EA0160801596000000090000
B0405403151754S11649288EA0161501606000000090000
B0405443151738S11649236EA0162401616000000060000
B0405483151687S11649229EA0162901621000000060000
B0405523151642S11649277EA0163301626000000075000
B0405563151615S11649350EA0164301631000000075000
B0406003151645S11649420EA0165601636000000090000
B0406043151677S11649455EA0166201641000000075000
B0406083151741S11649322EA0166601648000000075000
B0406123151702S11649290EA0166801651000000075000
B0406163151652S11649324EA0167401654000000075000
B0406203151629S11649392EA0168201660000000075000
B0406243151650S11649463EA0169401676000000060000
B0406283151704S11649495EA0170101685000000045000
B0406323151758S11649476EA0170401690000000045000
B0406363151793S11649431EA0171101696000000045000
B0406403151797S11649382EA0171601701000000060000
B0406443151759S11649346EA0171401703000000075000
B0406483151706S11649352EA0171501704000000135000
B0406523151659S11649395EA0171501705000000000000
B0406563151629S11649463EA0171101708000000225000
B0407003151663S11649555EA0170701709000000225000
B0407043151734S11649604EA0170901702000000120000
B0407083151814S11649608EA0171001703000000075000
B0407123151892S11649597EA0171001703000000195000
B0407163151971S11649578EA0170801705000000165000
B0407203152046S11649554EA0170801706000000120000
B0407243152122S11649521EA0171401714000000090000
B0407283152189S11649491EA0171901720000000060000
B0407323152253S11649463EA0172001721000000060000
B0407363152317S11649434EA0171801718000000060000
B0407403152383S11649403EA0171301714000000060000
B0407443152448S11649372EA0171101711000000045000
B0407483152514S11649340EA0170601698000000045000
B0407523152584S11649311EA0169401695000000045000
B0407563152656S11649285EA0168501689000000060000
B0408003152729S11649264EA0168001683000000045000
B0408043152803S11649242EA0167601677000000045000
B0408083152877S11649218EA0166701668000000045000
B0408123152954S11649196EA0166101662000000045000
B0408163153030S11649177EA0165701657000000045000
B0408203153108S11649157EA0165101648000000030000
B0408243153188S11649139EA0164001642000000030000
B0408283153266S11649126EA0163701638000000045000
B0408323153341S11649113EA0164001636000000045000
B0408363153415S11649099EA0163701636000000045000
B0408403153488S11649083EA0163501632000000045000
B0408443153561S11649062EA0163001629000000045000
B0408483153634S11649040EA0162401625000000060000
B0408523153706S11649015EA0161701621000000060000
B0408563153780S11648992EA0161201616000000075000
B0409003153853S11648971EA0161101613000000075000
B0409043153922S11648950EA0161201610000000075000
B0409083153990S11648927EA0160801607000000045000
B0409123154061S11648908EA0160501603000000030000
B0409163154134S11648889EA0160201601000000030000
B0409203154206S11648872EA0160401599000000045000
B0409243154273S11648854EA0161401600000000045000
B0409283154341S11648835EA0162001604000000045000
B0409323154406S11648806EA0162501605000000045000
B0409363154446S11648754EA0164101610000000045000
B0409403154433S11648696EA0165501622000000045000
B0409443154378S11648684EA0166001626000000045000
B0409483154329S11648731EA0166501638000000045000
B0409523154324S11648817EA0167101648000000045000
B0409563154365S11648895EA0167601655000000030000
B0410003154436S11648917EA0167601659000000045000
B0410043154503S11648889EA0167901663000000045000
B0410083154558S11648836EA0168201668000000045000
B0410123154588S11648766EA0169201673000000045000
B0410163154575S11648690EA0169901679000000060000
B0410203154527S11648633EA0169601676000000045000
B0410243154459S11648619EA0168801672000000045000
B0410283154388S11648638EA0168301665000000045000
B0410323154324S11648689EA0168101664000000045000
B0410363154295S11648775EA0169301678000000045000
B0410403154299S11648869EA0169601680000000045000
B0410443154339S11648961EA0169101677000000060000
B0410483154406S11649043EA0169001679000000075000
B0410523154481S11649118EA0169601682000000075000
B0410563154557S11649184EA0170401688000000060000
B0411003154629S11649244EA0171301695000000060000
B0411043154703S11649298EA0172601705000000045000
B0411083154779S11649335EA0172501700000000045000
B0411123154861S11649339EA0171601695000000030000
B0411163154939S11649311EA0170901689000000030000
B0411203155000S11649256EA0170301688000000030000
B0411243155041S11649190EA0170101689000000030000
B0411283155057S11649117EA0170201689000000030000
B0411323155032S11649051EA0170101686000000030000
B0411363154987S11649002EA0169201679000000135000
B0411403154924S11648987EA0166901664000000060000
B0411443154830S11649032EA0164901640000000030000
B0411483154754S11649071EA0164001637000000165000
B0411523154683S11649113EA0163701635000000150000
B0411563154623S11649181EA0163601629000000105000
B0412003154593S11649275EA0163401629000000090000
B0412043154601S11649385EA0162501628000000105000
B0412083154632S11649489EA0162101627000000105000
B0412123154684S11649585EA0162001626000000105000
B0412163154779S11649637EA0162201625000000075000
B0412203154850S11649699EA0162201624000000075000
B0412243154923S11649758EA0161801621000000075000
B0412283154996S11649815EA0161201614000000075000
B0412323155070S11649870EA0160601611000000060000
B0412363155140S11649924EA0160501607000000045000
B0412403155212S11649979EA0159901591000000045000
B0412443155290S11650026EA0158901584000000045000
B0412483155366S11650071EA0158701583000000045000
B0412523155439S11650119EA0158701581000000045000
B0412563155512S11650169EA0158601578000000045000
B0413003155585S11650218EA0158001570000000045000
B0413043155662S11650266EA0157401568000000045000
B0413083155734S11650313EA0157101569000000045000
B0413123155806S11650361EA0156601570000000060000
B0413163155877S11650409EA0155301569000000060000
B0413203155949S11650462EA0154301566000000075000
B0413243156019S11650520EA0153101563000000075000
B0413283156091S11650577EA0152101559000000075000
B0413323156163S11650642EA0151801553000000090000
B0413363156236S11650700EA0151201552000000090000
B0413403156310S11650755EA0151001551000000090000
B0413443156387S11650804EA0150401550000000105000
B0413483156461S11650854EA0150701550000000105000
B0413523156527S11650897EA0151801549000000105000
B0413563156599S11650943EA0152101550000000105000
B0414003156669S11650990EA0153101554000000120000
B0414043156738S11651029EA0154601560000000120000
B0414083156799S11651016EA0156001570000000120000
B0414123156820S11650959EA0157201578000000135000
B0414163156793S11650904EA0157101575000000195000
B0414203156739S11650876EA0157101574000000195000
B0414243156673S11650906EA0156501568000000180000
B0414283156642S11650988EA0155401559000000165000
B0414323156676S11651077EA0155501564000000180000
B0414363156741S11651133EA0156101570000000135000
B0414403156808S11651168EA0157001573000000135000
B0414443156878S11651181EA0157401580000000150000
B0414483156947S11651177EA0157501586000000090000
B0414523156980S11651103EA0158701600000000105000
B0414563156978S11651041EA0159901614000000180000
B0415003156958S11650984EA0160001623000000195000
B0415043156912S11650943EA0159701622015000150000
B0415083156820S11651030EA0159801609015000075000
B0415123156791S11651129EA0158701588000000225000
B0415163156803S11651229EA0158601582000000180000
B0415203156845S11651313EA0159001582000000150000
B0415243156912S11651358EA0159801588000000120000
B0415283156986S11651365EA0160501602000000090000
B0415323157056S11651357EA0162101606000000090000
B0415363157094S11651310EA0164101621000000090000
B0415403157066S11651267EA0164401614000000090000
B0415443157008S11651283EA0163701605000000120000
B0415483156971S11651348EA0164501629000000105000
B0415523156955S11651424EA0165501632000000120000
B0415563156985S11651504EA0167201640000000090000
B0416003157037S11651556EA0168401653000000060000
B0416043157102S11651571EA0168601653000000045000
B0416083157154S11651536EA0168701662000000060000
B0416123157167S11651474EA0169001663000000105000
B0416163157128S11651419EA0169001667000000165000
B0416203157076S11651393EA0169701672000000030000
B0416243157011S11651424EA0170201685000000015000
B0416283156976S11651497EA0171101693000000090000
B0416323156981S11651586EA0171701701000000090000
B0416363157027S11651666EA0171901705000000210000
B0416403157092S11651730EA0171601706000000135000
B0416443157164S11651784EA0170401691000000075000
B0416483157241S11651840EA0169101684000000075000
B0416523157322S11651890EA0168101677000000075000
B0416563157405S11651935EA0166601672000000075000
B0417003157489S11651981EA0165001666000000090000
B0417043157570S11652030EA0164701660000000090000
B0417083157644S11652077EA0164401655000000090000
B0417123157719S11652126EA0163201651000000090000
B0417163157799S11652174EA0162101637000000090000
B0417203157879S11652224EA0160701630000000090000
B0417243157960S11652281EA0159501623000000105000
B0417283158038S11652341EA0158101616000000105000
B0417323158117S11652399EA0157201610000000105000
B0417363158197S11652449EA0156401606000000105000
B0417403158275S11652496EA0155701606000000120000
B0417443158351S11652545EA0154701605000000120000
B0417483158427S11652596EA0153401603000000135000
B0417523158502S11652652EA0151801600000000135000
B0417563158576S11652709EA0150201596000000135000
B0418003158649S11652774EA0148701586000000135000
B0418043158722S11652834EA0148001591000000150000
B0418083158795S11652889EA0147401596000000165000
B0418123158869S11652944EA0146601600000000165000
B0418163158943S11653000EA0146001604015000165000
B0418203159017S11653057EA0145701608015000180000
B0418243159091S11653110EA0145201601000000180000
B0418283159165S11653162EA0145001592000000180000
B0418323159239S11653213EA0144501580000000180000
B0418363159316S11653263EA0143701565000000180000
B0418403159395S11653313EA0143001546000000180000
B0418443159476S11653367EA0142101533000000195000
B0418483159554S11653417EA0141601525000000195000
B0418523159629S11653461EA0141201516000000195000
B0418563159706S11653498EA0141101500000000180000
B0419003159781S11653538EA0141301478000000150000
B0419043159857S11653581EA0140701448000000135000
B0419083159932S11653623EA0139701427000000120000
B0419123200006S11653669EA0139501417000000090000
B0419163200082S11653714EA0139301409000000090000
B0419203200157S11653758EA0138601395000000060000
B0419243200231S11653801EA0138101385000000045000
B0419283200303S11653853EA0137501372000000045000
B0419323200371S11653911EA0136701360000000030000
B0419363200440S11653972EA0135301342000000030000
B0419403200508S11654039EA0133801326000000030000
B0419443200574S11654109EA0132501312000000015000
B0419483200642S11654178EA0131301301000000015000
B0419523200711S11654245EA0130101288000000015000
B0419563200778S11654313EA0128801273000000015000
B0420003200845S11654384EA0127601263000000015000
B0420043200910S11654456EA0126901257000000015000
B0420083200975S11654524EA0126301252000000015000
B0420123201041S11654590EA0126001253000000015000
B0420163201105S11654657EA0126801263000000015000
B0420203201166S11654720EA0127601268000000015000
B0420243201224S11654782EA0127701265000000015000
B0420283201287S11654838EA0127001256000000000000
B0420323201348S11654897EA0126001246000000000000
B0420363201411S11654956EA0125501246000000000000
B0420403201476S11655015EA0125301239000000000000
B0420443201548S11655068EA0124601231000000000000
B0420483201621S11655114EA0124101230000000000000
B0420523201691S11655157EA0124201230000000000000
B0420563201762S11655198EA0123901227000000000000
B0421003201833S11655248EA0123701223000000000000
B0421043201902S11655304EA0123501223000000000000
B0421083201968S11655356EA0123401221000000000000
B0421123202035S11655406EA0122501205000000000000
B0421163202106S11655454EA0121301194000000000000
B0421203202180S11655489EA0120701193000000000000
B0421243202254S11655517EA0121101201000000000000
B0421283202323S11655525EA0122201213000000000000
B0421323202362S11655488EA0123601229000000015000
B0421363202349S11655445EA0124401231000000015000
B0421403202301S11655443EA0124301229000000015000
B0421443202263S11655500EA0123601226000000030000
B0421483202267S11655586EA0123501229000000045000
B0421523202306S11655661EA0123601231000000075000
B0421563202364S11655705EA0124101235000000075000
B0422003202420S11655696EA0124601241000000135000
B0422043202449S11655651EA0125201252000000225000
B0422083202448S11655597EA0126001262000000210000
B0422123202416S11655558EA0126301271000000195000
B0422163202362S11655556EA0126901266000000120000
B0422203202310S11655593EA0126101258000000090000
B0422243202279S11655665EA0126001260000000090000
B0422283202284S11655747EA0126701264000000060000
B0422323202324S11655817EA0126901260000000045000
B0422363202380S11655859EA0127201265000000045000
B0422403202436S11655853EA0127801267000000045000
B0422443202472S11655812EA0127901270000000045000
B0422483202476S11655757EA0128401277000000045000
B0422523202446S11655718EA0129101281000000045000
B0422563202393S11655710EA0129401283000000045000
B0423003202341S11655742EA0129501285000000045000
B0423043202307S11655805EA0129601285000000060000
B0423083202301S11655890EA0129501285000000060000
B0423123202325S11655972EA0130001291000000045000
B0423163202368S11656034EA0130501298000000045000
B0423203202431S11656069EA0130401301000000060000
B0423243202493S11656052EA0130301305000000060000
B0423283202518S11655996EA0130701311000000075000
B0423323202506S11655943EA0131801317000000075000
B0423363202457S11655924EA0132301313000000060000
B0423403202397S11655960EA0132301313000000045000
B0423443202363S11656035EA0132401317000000045000
B0423483202366S11656121EA0132801325000000045000
B0423523202397S11656198EA0132901326000000045000
B0423563202466S11656236EA0133001330000000045000
B0424003202531S11656253EA0133501334000000045000
B0424043202585S11656247EA0134101339000000045000
B0424083202631S11656212EA0134601345000000045000
B0424123202662S11656167EA0134801350000000060000
B0424163202661S11656093EA0135001355000000060000
B0424203202615S11656024EA0135701360000000060000
B0424243202578S11655983EA0136101365000000075000
B0424283202539S11655959EA0136301370000000075000
B0424323202492S11655978EA0137001375015000075000
B0424363202464S11655977EV0137500000000000000128
B0424403202464S11655977EV0137900000000000000128
B0424443202468S11656321EA0138301388030000075000
B0424483202502S11656380EA0138701392030000075000
B0424523202563S11656415EA0139201398030000090000
B0424563202624S11656416EA0139801403045000090000
B0425003202705S11656288EA0140701407045000090000
B0425043202676S11656207EA0140901406000000075000
B0425083202631S11656178EA0141001407000000060000
B0425123202583S11656169EA0142001411000000045000
B0425163202529S11656191EA0141801407000000045000
B0425203202483S11656249EA0141001400000000045000
B0425243202451S11656329EA0140601398000000030000
B0425283202462S11656411EA0141001409000000030000
B0425323202506S11656471EA0141701409000000030000
B0425363202566S11656502EA0141801413000000030000
B0425403202627S11656527EA0142401416000000030000
B0425443202689S11656544EA0142901422000000030000
B0425483202747S11656531EA0143301429000000030000
B0425523202737S11656457EA0144001438000000045000
B0425563202691S11656427EA0145001444000000045000
B0426003202639S11656448EA0145401448000000045000
B0426043202609S11656509EA0145401448000000045000
B0426083202618S11656580EA0145501449000000045000
B0426123202663S11656635EA0145501448000000060000
B0426163202724S11656649EA0145701454000000060000
B0426203202778S11656622EA0146801466000000075000
B0426243202796S11656567EA0147801471000000075000
B0426283202775S11656511EA0148001473000000060000
B0426323202723S11656489EA0148201472000000045000
B0426363202667S11656516EA0148201472000000030000
B0426403202632S11656585EA0148001473000000030000
B0426443202624S11656669EA0148601479000000030000
B0426483202656S11656736EA0149301488000000015000
B0426523202713S11656749EA0149801491000000030000
B0426563202754S11656708EA0150301497000000030000
B0427003202754S11656649EA0151201506000000030000
B0427043202714S11656615EA0151801507000000030000
B0427083202661S11656633EA0151901511000000030000
B0427123202626S11656698EA0151601504000000030000
B0427163202626S11656782EA0151801510000000030000
B0427203202663S11656849EA0152101510000000030000
B0427243202723S11656880EA0152301512000000015000
B0427283202784S11656867EA0152301513000000030000
B0427323202830S11656822EA0152601520000000015000
B0427363202853S11656761EA0153501529000000015000
B0427403202839S11656701EA0154601539000000015000
B0427443202791S11656682EA0155301542000000015000
B0427483202745S11656722EA0155101543000000015000
B0427523202741S11656793EA0155101543000000015000
B0427563202782S11656849EA0155501554000000015000
B0428003202840S11656878EA0156101558000000015000
B0428043202904S11656900EA0156701563000000015000
B0428083202968S11656929EA0157001562000000015000
B0428123203030S11656968EA0157101561000000015000
B0428163203095S11657005EA0156601553000000015000
B0428203203165S11657044EA0155901551000000015000
B0428243203233S11657087EA0156101552000000015000
B0428283203300S11657131EA0156001548000000015000
B0428323203372S11657170EA0155501541000000015000
B0428363203446S11657209EA0155001536000000015000
B0428403203517S11657256EA0154801535000000015000
B0428443203586S11657304EA0154701536000000015000
B0428483203655S11657347EA0155001538000000015000
B0428523203723S11657389EA0155201538000000015000
B0428563203793S11657424EA0154901533000000015000
B0429003203862S11657463EA0154401529000000015000
B0429043203931S11657499EA0153901524000000015000
B0429083203998S11657536EA0153401518000000015000
B0429123204067S11657576EA0153301522000000015000
B0429163204134S11657611EA0154001528000000015000
B0429203204199S11657646EA0154201527000000015000
B0429243204264S11657688EA0153801522000000015000
B0429283204329S11657731EA0153701523000000030000
B0429323204398S11657770EA0154101530000000030000
B0429363204466S11657806EA0154801535000000030000
B0429403204535S11657832EA0155401541000000030000
B0429443204596S11657810EA0155701548000000030000
B0429483204622S11657751EA0156301553000000045000
B0429523204607S11657692EA0156501550000000045000
B0429563204557S11657659EA0155901546000000030000
B0430003204495S11657659EA0155701547000000030000
B0430043204434S11657681EA0155901550000000030000
B0430083204387S11657741EA0156101552000000030000
B0430123204365S11657824EA0156201550000000030000
B0430163204368S11657914EA0156401552000000030000
B0430203204401S11657998EA0156501559000000030000
B0430243204456S11658063EA0156901560000000030000
B0430283204526S11658105EA0156401558000000030000
B0430323204604S11658132EA0156701558000000045000
B0430363204684S11658157EA0157401562000000045000
B0430403204759S11658182EA0157401561000000045000
B0430443204834S11658213EA0157001557000000045000
B0430483204910S11658247EA0156801555000000045000
B0430523204984S11658275EA0156901553000000045000
B0430563205057S11658308EA0156601548000000045000
B0431003205127S11658344EA0155701542000000045000
B0431043205198S11658382EA0155201537000000045000
B0431083205267S11658421EA0154801532000000045000
B0431123205327S11658487EA0153001528000000045000
B0431163205382S11658565EA0151301524000000045000
B0431203205438S11658643EA0150901526000000045000
B0431243205492S11658720EA0150901526000000045000
B0431283205548S11658793EA0151001532000000060000
B0431323205607S11658864EA0150801524000000045000
B0431363205666S11658933EA0150601517000000045000
B0431403205730S11658999EA0150901517000000045000
B0431443205796S11659059EA0150601508000000045000
B0431483205864S11659114EA0149901502000000045000
B0431523205933S11659161EA0149401492000000045000
B0431563205999S11659215EA0148701481000000030000
B0432003206064S11659272EA0147801470000000030000
B0432043206129S11659330EA0147101460000000030000
B0432083206189S11659396EA0146201455000000030000
B0432123206244S11659466EA0145401441000000030000
B0432163206302S11659539EA0143901431000000030000
B0432203206361S11659614EA0143101426000000030000
B0432243206410S11659700EA0143001420000000045000
B0432283206441S11659800EA0143101415000000045000
B0432323206452S11659903EA0143001410000000045000
B0432363206466S11700002EA0142801405000000060000
B0432403206497S11700095EA0143001404000000060000
B0432443206543S11700163EA0144101407000000060000
B0432483206593S11700151EA0146301418000000090000
B0432523206601S11700099EA0147401423000000150000
B0432563206556S11700078EA0147901432000000165000
B0433003206507S11700128EA0147501431000000180000
B0433043206487S11700214EA0147401436000000120000
B0433083206492S11700306EA0147901440000000120000
B0433123206526S11700387EA0148801443000000120000
B0433163206571S11700435EA0149101443000000120000
B0433203206632S11700372EA0149401445000000120000
B0433243206623S11700284EA0149701443000000150000
B0433283206550S11700280EA0150101460000000150000
B0433323206511S11700361EA0151701496000000105000
B0433363206531S11700442EA0152801511000000090000
B0433403206585S11700487EA0153301517000000090000
B0433443206649S11700484EA0153101521000000090000
B0433483206695S11700439EA0153901527000000105000
B0433523206696S11700370EA0154701532000000135000
B0433563206669S11700311EA0155701540000000150000
B0434003206618S11700288EA0156501543000000135000
B0434043206563S11700324EA0158001554000000105000
B0434083206524S11700389EA0159201563000000105000
B0434123206514S11700471EA0159301566000000105000
B0434163206558S11700548EA0159301572000000090000
B0434203206623S11700579EA0159901583000000075000
B0434243206678S11700578EA0161301589000000075000
B0434283206713S11700537EA0162201596000000075000
B0434323206702S11700483EA0162701600000000090000
B0434363206652S11700468EA0163201604000000090000
B0434403206598S11700520EA0163201612000000075000
B0434443206583S11700610EA0163601621000000090000
B0434483206614S11700695EA0164101627000000075000
B0434523206658S11700769EA0165101635000000075000
B0434563206713S11700826EA0165401643000000075000
B0435003206775S11700862EA0165501647000000075000
B0435043206840S11700873EA0166001652000000090000
B0435083206892S11700852EA0167101658000000090000
B0435123206883S11700793EA0168201666000000105000
B0435163206831S11700777EA0169201670000000135000
B0435203206786S11700834EA0169201674000000120000
B0435243206775S11700917EA0169201680000000090000
B0435283206797S11700996EA0169601685000000060000
B0435323206847S11701052EA0169501685000000045000
B0435363206908S11701072EA0169601690000000045000
B0435403206962S11701057EA0170701695000000045000
B0435443207008S11701025EA0171201702000000045000
B0435483207038S11700977EA0171401705000000060000
B0435523207026S11700916EA0170801704000000075000
B0435563206998S11700851EA0170401701000000060000
B0436003206966S11700788EA0170401700000000075000
B0436043206933S11700726EA0171101704000000075000
B0436083206899S11700662EA0172201710000000090000
B0436123206861S11700601EA0173301716000000075000
B0436163206801S11700582EA0173901722000000075000
B0436203206751S11700641EA0174801728000000075000
B0436243206745S11700728EA0175001733000000090000
B0436283206796S11700801EA0175101738000000105000
B0436323206868S11700825EA0175201743000000105000
B0436363206936S11700806EA0175201741000000120000
B0436403206996S11700758EA0174901737000000135000
B0436443207025S11700683EA0174601733000000135000
B0436483207027S11700600EA0174001730000000135000
B0436523207033S11700511EA0173101725000000135000
B0436563207042S11700415EA0172601719000000105000
B0437003207053S11700325EA0171901712000000075000
B0437043207070S11700237EA0170901699000000075000
B0437083207091S11700151EA0170201696000000060000
B0437123207107S11700069EA0170001695000000060000
B0437163207121S11659989EA0169901691000000060000
B0437203207130S11659907EA0169101677000000045000
B0437243207141S11659820EA0167701666000000030000
B0437283207151S11659733EA0167201662000000030000
B0437323207157S11659647EA0167401660000000045000
B0437363207164S11659562EA0167301655000000030000
B0437403207169S11659478EA0166701651000000030000
B0437443207176S11659392EA0166301648000000030000
B0437483207182S11659302EA0166001649000000030000
B0437523207186S11659218EA0166201655000000030000
B0437563207190S11659136EA0166901657000000030000
B0438003207200S11659057EA0166901659000000030000
B0438043207209S11658977EA0166701658000000030000
B0438083207220S11658898EA0166701656000000030000
B0438123207237S11658823EA0166401654000000030000
B0438163207256S11658749EA0166101649000000030000
B0438203207272S11658673EA0165501643000000030000
B0438243207287S11658596EA0164701638000000030000
B0438283207304S11658520EA0164301632000000030000
B0438323207312S11658437EA0163301620000000030000
B0438363207316S11658355EA0162201611000000030000
B0438403207323S11658274EA0162101604000000045000
B0438443207332S11658199EA0161501598000000030000
B0438483207345S11658123EA0160801591000000030000
B0438523207359S11658047EA0160101585000000030000
B0438563207377S11657970EA0159101578000000030000
B0439003207397S11657893EA0158401572000000030000
B0439043207419S11657818EA0157801568000000030000
B0439083207438S11657744EA0157401565000000030000
B0439123207458S11657671EA0157301562000000030000
B0439163207477S11657598EA0156901557000000030000
B0439203207498S11657527EA0156301552000000030000
B0439243207516S11657452EA0155401542000000030000
B0439283207525S11657378EA0154401532000000030000
B0439323207520S11657306EA0153701527000000015000
B0439363207512S11657235EA0153101521000000015000
B0439403207498S11657169EA0152601516000000015000
B0439443207481S11657105EA0152601520000000015000
B0439483207463S11657044EA0152601516000000015000
B0439523207445S11656983EA0152301515000000015000
B0439563207429S11656917EA0151801507000000015000
B0440003207411S11656851EA0151101504000000000000
B0440043207388S11656795EA0152301520000000000000
B0440083207345S11656784EA0154401540000000000000
B0440123207308S11656835EA0155301544000000000000
B0440163207313S11656918EA0155601546000000015000
B0440203207365S11656978EA0155501545000000015000
B0440243207432S11656994EA0155601547000000015000
B0440283207493S11656979EA0155401543000000015000
B0440323207536S11656939EA0155101538000000015000
B0440363207544S11656877EA0154301530000000015000
B0440403207531S11656810EA0154101533000000015000
B0440443207498S11656763EA0154301532000000015000
B0440483207445S11656752EA0153601525000000015000
B0440523207388S11656762EA0153501526000000000000
B0440563207334S11656792EA0154101530000000000000
B0441003207308S11656864EA0154201531000000000000
B0441043207347S11656940EA0154701539000000000000
B0441083207417S11656958EA0155101545000000015000
B0441123207468S11656929EA0155601554000000015000
B0441163207481S11656879EA0156401558000000015000
B0441203207462S11656836EA0156401551000000015000
B0441243207415S11656822EA0155601544000000015000
B0441283207363S11656843EA0155501547000000015000
B0441323207328S11656893EA0156401559000000015000
B0441363207317S11656965EA0157501568000000015000
B0441403207346S11657036EA0158601583000000015000
B0441443207404S11657065EA0159201584000000015000
B0441483207462S11657046EA0159401586000000015000
B0441523207488S11656997EA0159901596000000015000
B0441563207472S11656951EA0160401595000000015000
B0442003207427S11656940EA0160501599000000015000
B0442043207388S11656978EA0161001605000000015000
B0442083207381S11657049EA0161501609000000015000
B0442123207420S11657113EA0162101618000000015000
B0442163207484S11657124EA0162701622000000015000
B0442203207527S11657082EA0163101626000000015000
B0442243207528S11657029EA0163401629000000030000
B0442283207492S11657001EA0163501629000000030000
B0442323207446S11657023EA0163301626000000015000
B0442363207425S11657090EA0163201629000000015000
B0442403207450S11657163EA0164001639000000015000
B0442443207510S11657203EA0164701642000000015000
B0442483207571S11657185EA0165101647000000015000
B0442523207597S11657129EA0165801652000000015000
B0442563207576S11657079EA0165701649000000030000
B0443003207529S11657069EA0165501647000000015000
B0443043207492S11657111EA0165301645000000015000
B0443083207489S11657183EA0165301645000000015000
B0443123207528S11657257EA0165101641000000015000
B0443163207593S11657307EA0165301648000000015000
B0443203207668S11657312EA0165501647000000015000
B0443243207736S11657281EA0165501646000000015000
B0443283207793S11657233EA0164801629000000015000
B0443323207848S11657177EA0163101613000000015000
B0443363207897S11657114EA0162101604000000015000
B0443403207944S11657053EA0161601601000000015000
B0443443207993S11656997EA0161201593000000015000
B0443483208045S11656940EA0160401586000000000000
B0443523208091S11656880EA0159701581000000000000
B0443563208136S11656819EA0159201578000000000000
B0444003208175S11656760EA0158901576000000000000
B0444043208210S11656696EA0158401566000000000000
B0444083208242S11656630EA0157501560000000000000
B0444123208272S11656562EA0156701552000000000000
B0444163208301S11656493EA0156501552000000000000
B0444203208330S11656427EA0156501553000000000000
B0444243208357S11656360EA0156401550000000000000
B0444283208386S11656294EA0155801543000000000000
B0444323208415S11656225EA0155201537000000000000
B0444363208443S11656158EA0154601530000000000000
B0444403208472S11656087EA0153701521000000000000
B0444443208503S11656020EA0153001516000000000000
B0444483208534S11655952EA0152401509000000000000
B0444523208561S11655886EA0152101506000000000000
B0444563208586S11655822EA0151401498000000000000
B0445003208608S11655759EA0150801494000000000000
B0445043208630S11655694EA0150801496000000000000
B0445083208651S11655629EA0150801498000000000000
B0445123208676S11655564EA0151001500000000000000
B0445163208694S11655497EA0151401502000000000000
B0445203208715S11655432EA0150401489000000000000
B0445243208738S11655365EA0149601482000000000000
B0445283208764S11655298EA0148801472000000000000
B0445323208793S11655232EA0148101465000000000000
B0445363208820S11655163EA0146801451000000000000
B0445403208847S11655090EA0145501439000000000000
B0445443208872S11655019EA0144301427000000000000
B0445483208896S11654947EA0142901413000000000000
B0445523208916S11654876EA0141801402000000000000
B0445563208927S11654806EA0140601390000000000000
B0446003208925S11654737EA0140201388000000000000
B0446043208923S11654670EA0140001385000000000000
B0446083208924S11654602EA0139501378000000000000
B0446123208932S11654529EA0138701372000000000000
B0446163208946S11654455EA0138401370000000000000
B0446203208966S11654382EA0137501359000000000000
B0446243208989S11654310EA0136101345000000000000
B0446283209014S11654238EA0135001331000000000000
B0446323209039S11654161EA0133901318000000000000
B0446363209059S11654082EA0132801313000000000000
B0446403209080S11654004EA0132701312000000000000
B0446443209100S11653926EA0132201304000000000000
B0446483209115S11653845EA0131701303000000000000
B0446523209133S11653767EA0131801304000000000000
B0446563209152S11653690EA0132201309000000000000
B0447003209171S11653616EA0133001320000000000000
B0447043209183S11653546EA0134001328000000000000
B0447083209170S11653487EA0135201344000000000000
B0447123209123S11653498EA0136501357000000000000
B0447163209113S11653571EA0138801387000000000000
B0447203209166S11653627EA0141401410000000000000
B0447243209232S11653615EA0143301427000000015000
B0447283209261S11653559EA0144901441000000015000
B0447323209235S11653523EA0145801449000000015000
B0447363209189S11653552EA0146501458000000015000
B0447403209185S11653628EA0149201491000000015000
B0447443209231S11653688EA0151801513000000015000
B0447483209300S11653699EA0153301529000000015000
B0447523209352S11653663EA0154701542000000015000
B0447563209352S11653612EA0155701549000000015000
B0448003209309S11653610EA0156701560000000015000
B0448043209286S11653677EA0158001579000000015000
B0448083209318S11653745EA0160401602000000015000
B0448123209384S11653760EA0161801612000000015000
B0448163209430S11653719EA0162601618000000015000
B0448203209417S11653676EA0163501630000000015000
B0448243209373S11653689EA0164701641000000015000
B0448283209357S11653760EA0165901653000000015000
B0448323209399S11653831EA0167601672000000015000
B0448363209468S11653842EA0168901684000000015000
B0448403209513S11653798EA0169501686000000015000
B0448443209505S11653745EA0170001695000000015000
B0448483209464S11653736EA0171601713000000015000
B0448523209431S11653789EA0173301729000000015000
B0448563209451S11653868EA0174601743000000015000
