ACAM4N6
HFDTE070320
HFFXA050
HFPLTPILOT:JOHN WELSH              
HFGTYGLIDERTYPE:HORNET      
HFGIDGLIDERID:VH-GMY      
HFDTM100GPSDATUM:
HFRFWFIRMWAREVERSION:F2.6
HFRHWHARDWAREVERSION:300 Series Version 2
HFFTYFRTYPE:CAMBRIDGE AERO INSTRUMENTS, 302+
HFGPS:GARMIN,LVS-25,12,18000
HFPRSPRESSALTSENSOR:INTERSEMA, MS5534-AP, 20000
I033638FXA3941ENL4247REX
LCAMSBVER:5FWVER:F26300
C070320041326070320000102
C0000000N00000000WTAKEOFF     
C3207549S11656849EBEVERLEY AF 
C3123333S11712265EWatercarrin 
C3110883S11723215EWyalkatchem 
C3207549S11656849EBEVERLEY AF 
C0000000N00000000WLANDING     
B0417353207337S11656856EA0019200203000000000000
B0417373207337S11656856EA0019100203000000000000
B0417393207337S11656856EA0019200203000000000000
B0417413207337S11656856EA0019200203000000000000
B0417433207337S11656856EA0019200203000000000000
B0417453207337S11656856EA0019100203000000000000
B0417473207337S11656856EA0019100203000000000000
B0417493207337S11656856EA0019000203000000000000
B0417513207337S11656856EA0019100203000000000000
B0417533207337S11656856EA0019200203000000000000
B0417553207337S11656856EA0019200203000000000000
B0417573207337S11656856EA0019200203000000000000
B0417593207337S11656856EA0019200203000000000000
B0418013207337S11656856EA0019000203000000000000
B0418033207339S11656857EA0019100203000000000000
B0418043207342S11656860EA0019100203000000000000
B0418083207362S11656875EA0019200203000000000000
B0418123207398S11656901EA0019200202000000000000
B0418163207450S11656935EA0019500203000000000000
B0418203207515S11656975EA0019700205000000000000
B0418243207581S11657022EA0020400214000000000000
B0418283207653S11657070EA0020800216000000000000
B0418323207723S11657121EA0021300231000000000000
B0418363207797S11657169EA0022500249000000000000
B0418403207869S11657215EA0024600276000000000000
B0418443207936S11657257EA0027100299000000000000
B0418483208001S11657295EA0029100322000000000000
B0418523208069S11657330EA0031100342000000000000
B0418563208138S11657363EA0033100360000000000000
B0419003208200S11657411EA0034900383000000000000
B0419043208244S11657482EA0037400404000000000000
B0419083208265S11657571EA0039800426000000000000
B0419123208264S11657664EA0041300438000000000000
B0419163208234S11657753EA0042800455000000000000
B0419203208174S11657820EA0044400468000000000000
B0419243208099S11657859EA0045500481000000000000
B0419283208019S11657865EA0047200500000000000000
B0419323207941S11657846EA0049300522000000000000
B0419363207869S11657803EA0051000538000000000000
B0419403207810S11657735EA0052200555000000000000
B0419443207783S11657647EA0053400569000000000000
B0419483207778S11657559EA0054800581000000000000
B0419523207778S11657467EA0055800591000000000000
B0419563207787S11657373EA0057200600000000000000
B0420003207802S11657276EA0059200623000000000000
B0420043207819S11657183EA0061900658000000000000
B0420083207797S11657112EA0065300689000000000000
B0420123207737S11657104EA0067100699000000000000
B0420163207707S11657160EA0067400702000000000000
B0420203207729S11657217EA0067500703000000015000
B0420243207781S11657226EA0068100713000000000000
B0420283207800S11657169EA0069100721000000015000
B0420323207745S11657126EA0069200721000000015000
B0420363207681S11657157EA0069500731000000015000
B0420403207666S11657228EA0070800741000000015000
B0420443207705S11657278EA0070800741000000015000
B0420483207765S11657272EA0070900739000000000000
B0420523207801S11657205EA0070800743000000015000
B0420563207771S11657137EA0072400762000000015000
B0421003207705S11657150EA0073800775000000015000
B0421043207677S11657218EA0075000788000000015000
B0421083207698S11657282EA0076000796000000015000
B0421123207746S11657311EA0076400799000000000000
B0421163207800S11657280EA0077000807000000015000
B0421203207798S11657216EA0078500825000000015000
B0421243207739S11657217EA0079500832000000015000
B0421283207732S11657283EA0080400844000000015000
B0421323207787S11657286EA0081600853000000015000
B0421363207804S11657221EA0083300875000000015000
B0421403207755S11657177EA0084600893000000015000
B0421443207698S11657208EA0085900901000000015000
B0421483207690S11657280EA0086600911000000015000
B0421523207735S11657319EA0087900928000000015000
B0421563207785S11657289EA0089400940000000015000
B0422003207787S11657222EA0091100959000000015000
B0422043207739S11657182EA0092700975000000015000
B0422083207680S11657198EA0094100984000000015000
B0422123207641S11657255EA0094400986000000000000
B0422163207645S11657328EA0095300996000000000000
B0422203207692S11657358EA0096601013000000000000
B0422243207736S11657320EA0097401019000000000000
B0422283207720S11657256EA0098701042000000015000
B0422323207658S11657248EA0100301051000000015000
B0422363207614S11657304EA0100701053000000015000
B0422403207631S11657374EA0101101061000000015000
B0422443207688S11657389EA0101901068000000015000
B0422483207728S11657339EA0103001085000000015000
B0422523207709S11657272EA0104901102000000015000
B0422563207648S11657244EA0106201113000000015000
B0423003207584S11657276EA0106801113000000015000
B0423043207562S11657351EA0107601125000000015000
B0423083207597S11657403EA0108501140000000015000
B0423123207650S11657385EA0109401143000000000000
B0423163207664S11657315EA0109901155000000015000
B0423203207611S11657278EA0111701175000000015000
B0423243207553S11657315EA0112501169000000015000
B0423283207540S11657398EA0111901167000000015000
B0423323207585S11657455EA0112901184000000015000
B0423363207632S11657423EA0114701206000000015000
B0423403207610S11657364EA0116201212000000015000
B0423443207547S11657385EA0117101224000000015000
B0423483207537S11657455EA0118401237000000015000
B0423523207579S11657493EA0119501245000000015000
B0423563207625S11657468EA0119801248000000000000
B0424003207637S11657407EA0120901262000000000000
B0424043207593S11657369EA0122401279000000000000
B0424083207536S11657393EA0123401283000000000000
B0424123207512S11657462EA0124001296000000000000
B0424163207540S11657516EA0125401308000000000000
B0424203207590S11657511EA0125701305000000000000
B0424243207614S11657454EA0126101314000000000000
B0424283207585S11657400EA0127401332000000000000
B0424323207527S11657411EA0128801341000000000000
B0424363207502S11657475EA0129501351000000000000
B0424403207538S11657520EA0130701362000000000000
B0424443207584S11657504EA0131901372000000000000
B0424483207586S11657450EA0133201384000000000000
B0424523207533S11657428EA0134001395000000000000
B0424563207484S11657468EA0135401408000000000000
B0425003207481S11657536EA0136001413000000000000
B0425043207524S11657576EA0136701425000000000000
B0425083207572S11657562EA0137201422000000000000
B0425123207584S11657497EA0137301431000000000000
B0425163207545S11657442EA0138601443000000000000
B0425203207473S11657441EA0139401449000000000000
B0425243207421S11657508EA0139601449000000000000
B0425283207438S11657588EA0140801471000000015000
B0425323207490S11657614EA0142001476000000015000
B0425363207540S11657581EA0141901474000000015000
B0425403207553S11657510EA0142401481000000015000
B0425443207512S11657449EA0143401497000000015000
B0425483207440S11657438EA0144601502000000015000
B0425523207376S11657490EA0145001505000000015000
B0425563207362S11657577EA0145101509000000015000
B0426003207398S11657642EA0145901517000000015000
B0426043207458S11657657EA0145601508000000000000
B0426083207510S11657614EA0145201507000000000000
B0426123207520S11657536EA0145701518000000000000
B0426163207492S11657462EA0146501529000000000000
B0426203207430S11657412EA0147601533000000000000
B0426243207354S11657403EA0147301525000000000000
B0426283207267S11657415EA0145801507000000000000
B0426323207172S11657430EA0144801501000000000000
B0426363207074S11657454EA0143901488000000000000
B0426403206972S11657481EA0142201470000000000000
B0426443206866S11657519EA0141501468000000000000
B0426483206765S11657560EA0140701456000000000000
B0426523206662S11657605EA0139301441000000000000
B0426563206558S11657646EA0138501432000000000000
B0427003206452S11657680EA0137301422000000000000
B0427043206346S11657706EA0136901421000000000000
B0427083206245S11657729EA0136701418000000000000
B0427123206146S11657750EA0136001408000000000000
B0427163206047S11657772EA0134901398000000000000
B0427203205948S11657797EA0133801387000000000000
B0427243205851S11657823EA0132901377000000000000
B0427283205752S11657848EA0132301372000000000000
B0427323205655S11657868EA0132401375000000000000
B0427363205560S11657889EA0132601378000000000000
B0427403205467S11657910EA0132501375000000000000
B0427443205375S11657930EA0132201371000000000000
B0427483205285S11657928EA0131901371000000000000
B0427523205213S11657883EA0132201373000000000000
B0427563205178S11657803EA0131901367000000000000
B0428003205188S11657718EA0130801357000000000000
B0428043205233S11657650EA0130001343000000000000
B0428083205300S11657605EA0128201332000000000000
B0428123205378S11657584EA0127601322000000000000
B0428163205460S11657581EA0126501311000000000000
B0428203205542S11657586EA0125501302000000000000
B0428243205623S11657594EA0124301288000000000000
B0428283205707S11657598EA0122701272000000000000
B0428323205794S11657599EA0121101255000000000000
B0428363205881S11657597EA0119701246000000000000
B0428403205969S11657594EA0118901236000000000000
B0428443206058S11657590EA0117801224000000000000
B0428483206147S11657588EA0116801211000000000000
B0428523206237S11657584EA0115601196000000000000
B0428563206329S11657577EA0114301185000000000000
B0429003206422S11657571EA0113301177000000000000
B0429043206513S11657563EA0112801173000000000000
B0429083206602S11657555EA0112101167000000000000
B0429123206692S11657547EA0111401159000000000000
B0429163206783S11657538EA0110301145000000000000
B0429203206877S11657528EA0109301137000000000000
B0429243206970S11657516EA0109101137000000000000
B0429283207061S11657501EA0109001134000000000000
B0429323207150S11657477EA0109201140000000000000
B0429363207233S11657450EA0110701160000000000000
B0429403207310S11657423EA0111601165000000000000
B0429443207386S11657416EA0112301176000000000000
B0429483207460S11657432EA0113701186000000000000
B0429523207533S11657449EA0114101189000000000000
B0429563207607S11657456EA0114301191000000000000
B0430003207667S11657424EA0115201202000000000000
B0430043207690S11657361EA0115901205000000000000
B0430083207670S11657300EA0115801205000000000000
B0430123207614S11657276EA0115701199000000000000
B0430163207550S11657302EA0114401182000000000000
B0430203207506S11657377EA0112701166000000000000
B0430243207501S11657472EA0111401158000000000000
B0430283207524S11657568EA0110301147000000000000
B0430323207562S11657662EA0109401140000000000000
B0430363207610S11657748EA0108701131000000000000
B0430403207661S11657828EA0108401133000000000000
B0430443207711S11657901EA0108901138000000000000
B0430483207762S11657967EA0109801150000000000000
B0430523207811S11658030EA0110101151000000000000
B0430563207863S11658092EA0110201151000000000000
B0431003207924S11658143EA0110201150000000000000
B0431043207996S11658147EA0111001163000000000000
B0431083208043S11658099EA0112501179000000000000
B0431123208025S11658032EA0113401180000000000000
B0431163207973S11657978EA0112301164000000000000
B0431203207926S11657906EA0111201153000000000000
B0431243207870S11657836EA0110601153000000000000
B0431283207809S11657772EA0110701152000000000000
B0431323207740S11657715EA0110201145000000000000
B0431363207664S11657671EA0108901132000000000000
B0431403207588S11657632EA0107901123000000000000
B0431443207515S11657590EA0107401119000000000000
B0431483207443S11657546EA0107201118000000000000
B0431523207373S11657506EA0106901108000000000000
B0431563207290S11657498EA0105601098000000000000
B0432003207209S11657538EA0105101097000000000000
B0432043207152S11657614EA0105101099000000000000
B0432083207111S11657699EA0106501117000000000000
B0432123207120S11657774EA0109001148000000000000
B0432163207169S11657784EA0111101164000000000000
B0432203207200S11657731EA0111301161000000000000
B0432243207177S11657667EA0111301163000000000000
B0432283207118S11657649EA0111801167000000000000
B0432323207069S11657693EA0112301173000000000000
B0432363207057S11657767EA0112601172000000000000
B0432403207089S11657833EA0112101171000000000000
B0432443207150S11657863EA0112601176000000000000
B0432483207215S11657840EA0113101180000000000000
B0432523207237S11657767EA0113901190000000000000
B0432563207198S11657709EA0114001187000000015000
B0433003207133S11657711EA0114301193000000015000
B0433043207090S11657767EA0114601192000000000000
B0433083207092S11657844EA0114601200000000000000
B0433123207138S11657889EA0115901214000000000000
B0433163207195S11657888EA0116601214000000000000
B0433203207243S11657839EA0116201206000000000000
B0433243207284S11657767EA0115001192000000000000
B0433283207321S11657686EA0113701179000000000000
B0433323207360S11657598EA0112401167000000000000
B0433363207399S11657507EA0111501157000000000000
B0433403207440S11657420EA0111201154000000000000
B0433443207480S11657332EA0110601149000000000000
B0433483207516S11657244EA0110001141000000000000
B0433523207551S11657156EA0108901128000000000000
B0433563207585S11657066EA0107901122000000000000
B0434003207616S11656979EA0107101110000000000000
B0434043207645S11656890EA0105701094000000000000
B0434083207667S11656793EA0103901075000000000000
B0434123207655S11656697EA0103901083000000000000
B0434163207593S11656635EA0104801090000000000000
B0434203207506S11656633EA0104801086000000000000
B0434243207420S11656672EA0103901076000000000000
B0434283207336S11656726EA0102901065000000000000
B0434323207252S11656788EA0101701053000000000000
B0434363207181S11656871EA0100501041000000000000
B0434403207125S11656971EA0099601034000000000000
B0434443207090S11657083EA0099501036000000000000
B0434483207065S11657199EA0100401046000000000000
B0434523207003S11657261EA0102401090000000000000
B0434563206946S11657226EA0106101116000000000000
B0435003206935S11657159EA0107901132000000000000
B0435043206961S11657099EA0109401148000000000000
B0435083207018S11657075EA0111401170000000000000
B0435123207077S11657107EA0113001184000000000000
B0435163207117S11657172EA0114301197000000000000
B0435203207124S11657251EA0115301207000000000000
B0435243207089S11657313EA0116701225000000000000
B0435283207033S11657329EA0118201235000000000000
B0435323206988S11657289EA0118601238000000000000
B0435363206986S11657220EA0119101244000000000000
B0435403207024S11657165EA0119601254000000000000
B0435443207083S11657144EA0121001268000000000000
B0435483207144S11657173EA0122101277000000000000
B0435523207185S11657238EA0122801284000000000000
B0435563207190S11657321EA0123101281000000000000
B0436003207163S11657403EA0122901282000000000000
B0436043207115S11657468EA0123301286000000000000
B0436083207044S11657510EA0123201285000000000000
B0436123206969S11657499EA0124101297000000000000
B0436163206907S11657447EA0124701304000000000000
B0436203206875S11657369EA0125601315000000000000
B0436243206897S11657290EA0126101317000000000000
B0436283206964S11657255EA0127001330000000000000
B0436323207031S11657278EA0128301338000000000000
B0436363207066S11657352EA0128701342000000000000
B0436403207042S11657432EA0129501352000000000000
B0436443206978S11657459EA0130101358000000000000
B0436483206923S11657417EA0131201371000000000000
B0436523206914S11657347EA0131501369000000000000
B0436563206944S11657277EA0131501368000000000000
B0437003206992S11657216EA0131701374000000000000
B0437043207059S11657212EA0133001397000000000000
B0437083207099S11657265EA0135001409000000000000
B0437123207091S11657337EA0135301407000000000000
B0437163207047S11657387EA0135301410000000000000
B0437203206990S11657419EA0135401409000000000000
B0437243206922S11657438EA0134601397000000000000
B0437283206848S11657445EA0133701391000000000000
B0437323206767S11657445EA0133001382000000000000
B0437363206682S11657434EA0132801382000000000000
B0437403206593S11657416EA0132101369000000000000
B0437443206500S11657395EA0131001358000000000000
B0437483206405S11657373EA0130101347000000000000
B0437523206306S11657347EA0128301325000000000000
B0437563206203S11657315EA0126501311000000000000
B0438003206099S11657281EA0125301297000000000000
B0438043205994S11657250EA0123801285000000000000
B0438083205887S11657220EA0122601271000000000000
B0438123205782S11657187EA0121701263000000000000
B0438163205678S11657155EA0120701251000000000000
B0438203205574S11657124EA0119701238000000000000
B0438243205471S11657095EA0118401227000000000000
B0438283205370S11657068EA0117701219000000000000
B0438323205267S11657043EA0116501207000000000000
B0438363205163S11657016EA0116401212000000000000
B0438403205061S11656992EA0117301223000000000000
B0438443204959S11656973EA0118901245000000000000
B0438483204859S11656964EA0120101245000000000000
B0438523204776S11657005EA0121701266000000000000
B0438563204710S11657073EA0121801266000000015000
B0439003204622S11657113EA0120901250000000000000
B0439043204524S11657120EA0119001229000000000000
B0439083204422S11657103EA0116601200000000000000
B0439123204322S11657068EA0114101180000000000000
B0439163204221S11657027EA0111601146000000000000
B0439203204115S11656977EA0109201131000000000000
B0439243204015S11656922EA0109501140000000000000
B0439283203930S11656883EA0113601187000000015000
B0439323203855S11656899EA0117201217000000015000
B0439363203841S11656964EA0119101240000000015000
B0439403203884S11656992EA0120201249000000015000
B0439443203931S11656960EA0120401249000000015000
B0439483203957S11656892EA0120601255000000015000
B0439523203931S11656828EA0122101283000000030000
B0439563203876S11656822EA0124001289000000045000
B0440003203845S11656882EA0124001289000000045000
B0440043203876S11656939EA0124301298000000060000
B0440083203940S11656932EA0125201309000000045000
B0440123203970S11656870EA0126101322000000045000
B0440163203943S11656802EA0127201331000000030000
B0440203203876S11656783EA0128301342000000030000
B0440243203827S11656835EA0129401347000000015000
B0440283203842S11656908EA0129801355000000030000
B0440323203902S11656930EA0130901369000000030000
B0440363203946S11656887EA0132601391000000045000
B0440403203927S11656828EA0134601392000000045000
B0440443203863S11656812EA0135101401000000045000
B0440483203810S11656857EA0136101413000000030000
B0440523203818S11656926EA0137401429000000030000
B0440563203868S11656955EA0137901434000000045000
B0441003203920S11656923EA0138101440000000045000
B0441043203927S11656852EA0138801449000000045000
B0441083203884S11656789EA0139101447000000030000
B0441123203807S11656774EA0138301438000000030000
B0441163203731S11656815EA0138101439000000030000
B0441203203683S11656893EA0138601442000000045000
B0441243203681S11656981EA0139101451000000045000
B0441283203727S11657043EA0139701454000000030000
B0441323203794S11657056EA0139001442000000015000
B0441363203853S11657008EA0138801444000000015000
B0441403203874S11656926EA0138701444000000015000
B0441443203849S11656838EA0138701445000000015000
B0441483203793S11656767EA0138801445000000015000
B0441523203712S11656723EA0138401444000000030000
B0441563203612S11656726EA0137501434000000015000
B0442003203510S11656745EA0135501409000000015000
B0442043203402S11656753EA0133901394000000015000
B0442083203290S11656747EA0132401376000000030000
B0442123203176S11656735EA0130301352000000015000
B0442163203060S11656718EA0129001342000000015000
B0442203202945S11656696EA0127801327000000015000
B0442243202830S11656670EA0126801315000000015000
B0442283202715S11656645EA0125801304000000015000
B0442323202602S11656622EA0124901292000000015000
B0442363202489S11656600EA0123701280000000015000
B0442403202379S11656574EA0122401269000000000000
B0442443202271S11656544EA0121501262000000000000
B0442483202165S11656514EA0120701252000000015000
B0442523202063S11656484EA0119701245000000015000
B0442563201967S11656451EA0120101248000000015000
B0443003201877S11656418EA0121101259000000015000
B0443043201792S11656379EA0121801263000000015000
B0443083201714S11656328EA0121701260000000015000
B0443123201631S11656286EA0121301256000000015000
B0443163201541S11656263EA0121101259000000015000
B0443203201452S11656251EA0121201262000000000000
B0443243201365S11656242EA0121601266000000000000
B0443283201280S11656238EA0121401263000000015000
B0443323201197S11656242EA0121001259000000015000
B0443363201114S11656250EA0121101260000000015000
B0443403201032S11656255EA0121401258000000015000
B0443443200949S11656267EA0123201267000000015000
B0443483200898S11656227EA0126201286000000030000
B0443523200910S11656159EA0128001301000000030000
B0443563200964S11656139EA0128901315000000045000
B0444003201007S11656180EA0130001329000000060000
B0444043201003S11656241EA0130201339000000045000
B0444083200962S11656289EA0130401344000000045000
B0444123200895S11656305EA0130601352000000045000
B0444163200829S11656273EA0131401367000000060000
B0444203200784S11656217EA0132201373000000060000
B0444243200810S11656145EA0133701384000000060000
B0444283200865S11656124EA0134601392000000075000
B0444323200919S11656167EA0134701394000000060000
B0444363200917S11656243EA0134801405000000075000
B0444403200869S11656297EA0135901414000000090000
B0444443200795S11656282EA0136201418000000090000
B0444483200751S11656215EA0137201421000000090000
B0444523200764S11656139EA0138501429000000090000
B0444563200815S11656099EA0139201434000000090000
B0445003200872S11656112EA0139401443000000075000
B0445043200902S11656173EA0139701447000000030000
B0445083200888S11656250EA0139301445000000030000
B0445123200839S11656315EA0139501451000000030000
B0445163200773S11656357EA0140101455000000030000
B0445203200696S11656396EA0139801451000000015000
B0445243200612S11656438EA0138901440000000015000
B0445283200526S11656487EA0138001431000000000000
B0445323200436S11656535EA0136901416000000000000
B0445363200340S11656583EA0135601403000000000000
B0445403200241S11656630EA0134001388000000000000
B0445443200139S11656672EA0132701375000000000000
B0445483200036S11656715EA0131801362000000000000
B0445523159933S11656756EA0130801356000000000000
B0445563159832S11656800EA0130401355000000000000
B0446003159736S11656845EA0130101351000000000000
B0446043159641S11656895EA0129301339000000000000
B0446083159547S11656951EA0128001328000000000000
B0446123159456S11657013EA0127201320000000000000
B0446163159368S11657078EA0126201308000000000000
B0446203159279S11657144EA0125801301000000000000
B0446243159191S11657209EA0124901291000000000000
B0446283159105S11657278EA0124601291000000000000
B0446323159022S11657348EA0125101296000000000000
B0446363158941S11657419EA0125201294000000000000
B0446403158867S11657494EA0125001295000000000000
B0446443158797S11657568EA0124901293000000000000
B0446483158736S11657650EA0124601289000000000000
B0446523158700S11657746EA0124801294000000000000
B0446563158674S11657840EA0125801308000000000000
B0447003158674S11657931EA0126901319000000000000
B0447043158724S11657987EA0127901334000000000000
B0447083158787S11657992EA0128801333000000000000
B0447123158835S11657949EA0128601332000000000000
B0447163158871S11657887EA0128101325000000000000
B0447203158884S11657811EA0127801324000000000000
B0447243158862S11657737EA0127401320000000000000
B0447283158805S11657686EA0126701314000000000000
B0447323158727S11657664EA0125901303000000000000
B0447363158644S11657651EA0125001292000000000000
B0447403158555S11657641EA0124001283000000000000
B0447443158463S11657632EA0123301276000000000000
B0447483158371S11657619EA0122801272000000000000
B0447523158276S11657606EA0122201266000000000000
B0447563158181S11657588EA0121601260000000000000
B0448003158086S11657568EA0120501247000000000000
B0448043157990S11657542EA0119101233000000000000
B0448083157894S11657514EA0117801219000000000000
B0448123157795S11657486EA0116401205000000000000
B0448163157695S11657460EA0115701204000000000000
B0448203157596S11657434EA0115701201000000000000
B0448243157498S11657411EA0115101196000000015000
B0448283157400S11657385EA0114101189000000015000
B0448323157301S11657364EA0113001177000000015000
B0448363157201S11657343EA0111901171000000015000
B0448403157105S11657328EA0112201177000000015000
B0448443157012S11657319EA0113901188000000015000
B0448483156925S11657324EA0115301202000000015000
B0448523156843S11657342EA0116101214000000000000
B0448563156764S11657355EA0116801215000000000000
B0449003156685S11657360EA0116401209000000000000
B0449043156603S11657346EA0116301211000000000000
B0449083156533S11657365EA0118201237000000000000
B0449123156540S11657438EA0120401254000000015000
B0449163156600S11657429EA0121501266000000015000
B0449203156601S11657363EA0122801285000000015000
B0449243156549S11657335EA0124401299000000015000
B0449283156497S11657372EA0125701311000000015000
B0449323156494S11657442EA0127201330000000015000
B0449363156538S11657485EA0129001346000000015000
B0449403156592S11657467EA0129801351000000015000
B0449443156608S11657410EA0130701362000000015000
B0449483156572S11657359EA0131301365000000015000
B0449523156504S11657358EA0131401368000000015000
B0449563156455S11657415EA0132301382000000015000
B0450003156456S11657494EA0133801399000000030000
B0450043156507S11657543EA0135301411000000030000
B0450083156569S11657540EA0136301419000000030000
B0450123156596S11657481EA0136801423000000045000
B0450163156592S11657417EA0137601428000000060000
B0450203156508S11657406EA0138001434000000045000
B0450243156443S11657456EA0138201440000000045000
B0450283156427S11657541EA0139301452000000030000
B0450323156464S11657615EA0140101458000000015000
B0450363156526S11657645EA0140701469000000015000
B0450403156582S11657620EA0141701473000000015000
B0450443156607S11657562EA0141901473000000030000
B0450483156590S11657493EA0141501465000000030000
B0450523156536S11657438EA0140701459000000030000
B0450563156461S11657402EA0140301458000000015000
B0451003156375S11657376EA0139901455000000015000
B0451043156282S11657356EA0139601454000000015000
B0451083156184S11657339EA0139801455000000015000
B0451123156084S11657321EA0139401447000000015000
B0451163155983S11657295EA0138901445000000015000
B0451203155884S11657260EA0138101437000000015000
B0451243155782S11657222EA0136801426000000015000
B0451283155680S11657186EA0135801415000000015000
B0451323155581S11657142EA0134301411000000030000
B0451363155489S11657088EA0134501408000000030000
B0451403155402S11657030EA0134501405000000030000
B0451443155322S11656969EA0135401407000000015000
B0451483155247S11656904EA0134801400000000015000
B0451523155170S11656839EA0134001394000000015000
B0451563155095S11656770EA0133601391000000015000
B0452003155019S11656705EA0133201386000000015000
B0452043154944S11656636EA0132501375000000015000
B0452083154870S11656566EA0131501361000000015000
B0452123154797S11656492EA0130201356000000015000
B0452163154729S11656415EA0130201356000000015000
B0452203154662S11656342EA0130001352000000015000
B0452243154594S11656272EA0130101353000000015000
B0452283154525S11656204EA0130601357000000015000
B0452323154441S11656184EA0131601362000000015000
B0452363154351S11656172EA0130501358000000015000
B0452403154259S11656146EA0130501361000000015000
B0452443154174S11656112EA0130501357000000015000
B0452483154086S11656077EA0129501345000000015000
B0452523153995S11656043EA0127901328000000015000
B0452563153901S11656009EA0126601315000000015000
B0453003153812S11655973EA0125501308000000000000
B0453043153725S11655937EA0124901300000000000000
B0453083153639S11655900EA0124001293000000000000
B0453123153553S11655861EA0123501287000000000000
B0453163153470S11655821EA0122801277000000000000
B0453203153385S11655781EA0121601265000000000000
B0453243153298S11655738EA0120301254000000000000
B0453283153210S11655694EA0119601247000000000000
B0453323153123S11655649EA0118801238000000000000
B0453363153034S11655604EA0117701226000000000000
B0453403152947S11655554EA0116401212000000000000
B0453443152860S11655505EA0115301204000000000000
B0453483152773S11655460EA0114401193000000000000
B0453523152683S11655417EA0113601182000000000000
B0453563152599S11655378EA0112901180000000000000
B0454003152518S11655335EA0112201169000000000000
B0454043152440S11655285EA0111001157000000000000
B0454083152369S11655231EA0111001164000000000000
B0454123152301S11655180EA0112001168000000000000
B0454163152231S11655138EA0111301159000000000000
B0454203152154S11655103EA0109401153000000000000
B0454243152072S11655068EA0107901145000000015000
B0454283151992S11655036EA0107701147000000015000
B0454323151915S11655001EA0107301136000000015000
B0454363151837S11654960EA0106101122000000015000
B0454403151760S11654914EA0105401113000000015000
B0454443151686S11654864EA0104701104000000015000
B0454483151613S11654811EA0103901097000000015000
B0454523151539S11654759EA0102801082000000015000
B0454563151464S11654708EA0101801071000000015000
B0455003151386S11654660EA0100901061000000015000
B0455043151305S11654621EA0100501059000000015000
B0455083151221S11654595EA0100101053000000015000
B0455123151136S11654570EA0099401042000000015000
B0455163151056S11654527EA0098501033000000015000
B0455203150985S11654468EA0098501043000000015000
B0455243150930S11654400EA0099701052000000015000
B0455283150883S11654327EA0100701060000000015000
B0455323150833S11654257EA0101501064000000015000
B0455363150762S11654240EA0102801074000000015000
B0455403150710S11654301EA0104001082000000045000
B0455443150724S11654373EA0105401092000000060000
B0455483150775S11654387EA0106501101000000060000
B0455523150801S11654339EA0107001105000000075000
B0455563150775S11654273EA0107601110000000105000
B0456003150718S11654232EA0108101118000000180000
B0456043150653S11654232EA0108701127000000015000
B0456083150602S11654336EA0109001128000000225000
B0456123150621S11654414EA0110101146000000225000
B0456163150681S11654439EA0110601155000000000000
B0456203150727S11654394EA0111401171000000015000
B0456243150724S11654321EA0112201177000000075000
B0456283150658S11654279EA0112901183000000195000
B0456323150586S11654313EA0114001188000000165000
B0456363150553S11654390EA0114701200000000135000
B0456403150588S11654442EA0116201218000000120000
B0456443150638S11654412EA0116001213000000135000
B0456483150632S11654336EA0116201221000000180000
B0456523150572S11654288EA0117101228000000150000
B0456563150502S11654309EA0117401236000000135000
B0457003150473S11654397EA0117101236000000105000
B0457043150508S11654474EA0118001240000000105000
B0457083150568S11654483EA0119301249000000120000
B0457123150599S11654422EA0120001258000000150000
B0457163150559S11654358EA0120701268000000105000
B0457203150481S11654351EA0121101270000000075000
B0457243150421S11654405EA0121501276000000045000
B0457283150406S11654487EA0122201285000000060000
B0457323150430S11654560EA0123201291000000105000
B0457363150493S11654572EA0123501291000000060000
B0457403150536S11654520EA0123901296000000060000
B0457443150524S11654447EA0124701304000000090000
B0457483150462S11654407EA0125301306000000105000
B0457523150386S11654430EA0125001307000000060000
B0457563150348S11654508EA0125701321000000045000
B0458003150360S11654587EA0126701330000000030000
B0458043150411S11654626EA0127401337000000045000
B0458083150465S11654612EA0127401336000000045000
B0458123150497S11654555EA0127501338000000060000
B0458163150480S11654483EA0128001344000000045000
B0458203150415S11654447EA0128601344000000045000
B0458243150335S11654465EA0128101337000000060000
B0458283150283S11654535EA0128501345000000060000
B0458323150280S11654621EA0129201352000000060000
B0458363150324S11654681EA0129401352000000105000
B0458403150386S11654695EA0129201350000000060000
B0458443150428S11654648EA0129301353000000045000
B0458483150424S11654576EA0129501353000000030000
B0458523150368S11654518EA0129001349000000030000
B0458563150287S11654490EA0128601337000000045000
B0459003150196S11654477EA0127201333000000045000
B0459043150099S11654472EA0126201326000000045000
B0459083150000S11654474EA0125101320000000045000
B0459123149900S11654501EA0123501313000000045000
B0459163149800S11654547EA0122201306000000045000
B0459203149705S11654602EA0121401301000000045000
B0459243149611S11654655EA0120001297000000045000
B0459283149519S11654709EA0118301292000000060000
B0459323149433S11654774EA0117001288000000045000
B0459363149338S11654842EA0117301283000000045000
B0459403149246S11654908EA0117301265000000045000
B0459443149158S11654967EA0116501237000000030000
B0459483149068S11655018EA0115001228000000030000
B0459523148973S11655058EA0113701219000000030000
B0459563148878S11655086EA0113001211000000030000
B0500003148783S11655120EA0112201205000000030000
B0500043148690S11655158EA0112101199000000030000
B0500083148597S11655201EA0111401189000000030000
B0500123148506S11655249EA0110201178000000030000
B0500163148424S11655301EA0111301177000000030000
B0500203148387S11655396EA0113701210000000045000
B0500243148426S11655443EA0116901242000000060000
B0500283148453S11655397EA0117601232000000045000
B0500323148413S11655337EA0116901230000000045000
B0500363148339S11655317EA0117401231000000045000
B0500403148263S11655356EA0117901236000000060000
B0500443148255S11655436EA0119201254000000045000
B0500483148305S11655454EA0120101251000000045000
B0500523148340S11655398EA0119201244000000030000
B0500563148319S11655323EA0120001256000000060000
B0501003148254S11655279EA0120301254000000090000
B0501043148167S11655294EA0120001251000000075000
B0501083148086S11655341EA0118901252000000060000
B0501123148002S11655397EA0117701243000000060000
B0501163147915S11655457EA0115801236000000060000
B0501203147826S11655525EA0113901227000000060000
B0501243147735S11655588EA0112001220000000075000
B0501283147643S11655648EA0110601213000000075000
B0501323147550S11655701EA0109201206000000075000
B0501363147455S11655755EA0108401195000000090000
B0501403147360S11655804EA0107801198000000090000
B0501443147269S11655848EA0106801186000000075000
B0501483147178S11655895EA0106001184000000090000
B0501523147085S11655942EA0105001181000000090000
B0501563146997S11655990EA0104301153000000060000
B0502003146902S11656041EA0103601124000000045000
B0502043146812S11656085EA0103501111000000030000
B0502083146721S11656126EA0102601094000000015000
B0502123146630S11656172EA0100801068000000015000
B0502163146539S11656223EA0099401054000000015000
B0502203146448S11656276EA0098701043000000015000
B0502243146360S11656331EA0098001035000000015000
B0502283146274S11656386EA0097701028000000000000
B0502323146191S11656444EA0097001023000000015000
B0502363146109S11656496EA0096701019000000015000
B0502403146031S11656549EA0096101016000000015000
B0502443145949S11656605EA0096101013000000015000
B0502483145875S11656652EA0097901025000000015000
B0502523145819S11656704EA0100801045000000015000
B0502563145828S11656779EA0102301061000000015000
B0503003145884S11656795EA0103001065000000015000
B0503043145917S11656744EA0103301074000000030000
B0503083145895S11656684EA0104301085000000030000
B0503123145836S11656659EA0104901093000000030000
B0503163145774S11656695EA0105501102000000030000
B0503203145754S11656770EA0106901122000000045000
B0503243145787S11656828EA0108601137000000045000
B0503283145839S11656838EA0109001139000000060000
B0503323145876S11656799EA0109301140000000045000
B0503363145870S11656739EA0110001145000000060000
B0503403145817S11656713EA0110101147000000045000
B0503443145753S11656737EA0110001146000000090000
B0503483145717S11656809EA0110801158000000105000
B0503523145720S11656891EA0112001174000000165000
B0503563145744S11656956EA0112601185000000045000
B0504003145817S11656948EA0111801187000000135000
B0504043145870S11656919EA0111701194000000060000
B0504083145860S11656843EA0112301196015000150000
B0504123145730S11656822EA0112401182015000045000
B0504163145659S11656869EA0112301181015000015000
B0504203145610S11656935EA0113101177015000225000
B0504243145633S11657004EA0114001179015000030000
B0504283145698S11657009EA0112801173015000225000
B0504323145762S11656982EA0111501155000000135000
B0504363145817S11656943EA0111201149000000090000
B0504403145770S11656865EA0111101147000000120000
B0504443145687S11656860EA0110701146000000150000
B0504483145610S11656910EA0110901155015000120000
B0504523145544S11656978EA0111201161000000075000
B0504563145483S11657055EA0110901161000000060000
B0505003145420S11657135EA0110001154000000060000
B0505043145354S11657218EA0109301145000000045000
B0505083145282S11657293EA0108901139000000030000
B0505123145204S11657360EA0109401146000000030000
B0505163145122S11657417EA0110201150000000030000
B0505203145042S11657469EA0111101153000000030000
B0505243144960S11657510EA0111701158000000030000
B0505283144883S11657550EA0113001165000000045000
B0505323144848S11657616EA0115401186000000060000
B0505363144891S11657647EA0117701189000000090000
B0505403144934S11657607EA0117001189000000090000
B0505443144935S11657538EA0117101185000000090000
B0505483144879S11657503EA0117801187000000135000
B0505523144812S11657533EA0118501199000000180000
B0505563144800S11657614EA0119801232000000150000
B0506003144847S11657629EA0121401250000000165000
B0506043144870S11657579EA0122001255000000225000
B0506083144825S11657521EA0122201264000000090000
B0506123144753S11657515EA0122701271000000090000
B0506163144687S11657567EA0123101274000000090000
B0506203144658S11657657EA0123201277000000075000
B0506243144671S11657744EA0123301277000000075000
B0506283144734S11657794EA0123201278000000045000
B0506323144800S11657788EA0122801278000000030000
B0506363144848S11657742EA0122801281000000030000
B0506403144881S11657679EA0122801279000000030000
B0506443144899S11657603EA0123501277000000045000
B0506483144827S11657555EA0124101284000000045000
B0506523144761S11657598EA0125801303000000060000
B0506563144764S11657677EA0126601308000000090000
B0507003144817S11657711EA0127001311000000165000
B0507043144865S11657684EA0128001329000000150000
B0507083144869S11657625EA0129401343000000135000
B0507123144829S11657577EA0129901351000000120000
B0507163144783S11657550EA0130101356000000120000
B0507203144734S11657554EA0130601362000000090000
B0507243144695S11657560EA0131301367015000090000
B0507283144674S11657594EA0131601373015000075000
B0507323144846S11657716EA0131901376015000090000
B0507363144849S11657653EA0132901384015000105000
B0507403144801S11657601EA0133301380015000165000
B0507443144730S11657592EA0132601376015000015000
B0507483144669S11657680EA0134301409015000210000
B0507523144704S11657735EA0136401424000000120000
B0507563144751S11657711EA0137301430000000150000
B0508003144748S11657649EA0137901433000000180000
B0508043144717S11657589EA0137301431000000165000
B0508083144626S11657607EA0137501432000000180000
B0508123144544S11657671EA0137301422000000120000
B0508163144463S11657737EA0135701419000000105000
B0508203144372S11657800EA0134301415000000090000
B0508243144272S11657858EA0132601398000000075000
B0508283144168S11657915EA0131001377000000045000
B0508323144064S11657970EA0130001365000000045000
B0508363143960S11658023EA0129201352000000045000
B0508403143858S11658076EA0128101340000000045000
B0508443143757S11658127EA0127401332000000030000
B0508483143663S11658177EA0127201327000000030000
B0508523143566S11658221EA0127401329000000015000
B0508563143473S11658262EA0127201324000000015000
B0509003143378S11658304EA0126401317000000015000
B0509043143284S11658343EA0126001319000000015000
B0509083143196S11658383EA0125901315000000015000
B0509123143107S11658434EA0125101306000000000000
B0509163143022S11658487EA0124701299000000000000
B0509203142932S11658539EA0124201296000000000000
B0509243142842S11658589EA0124101294000000000000
B0509283142751S11658635EA0123501290000000000000
B0509323142659S11658681EA0123201285000000000000
B0509363142564S11658725EA0122201269000000000000
B0509403142465S11658767EA0120501260000000000000
B0509443142368S11658811EA0119401244000000000000
B0509483142268S11658859EA0117401223000000000000
B0509523142169S11658910EA0116701222000000015000
B0509563142073S11658959EA0116801220000000015000
B0510003141979S11659016EA0116401218000000015000
B0510043141888S11659077EA0116101217000000015000
B0510083141797S11659142EA0116201216000000015000
B0510123141706S11659202EA0116501215000000015000
B0510163141638S11659269EA0119501230000000030000
B0510203141657S11659336EA0123201265000000045000
B0510243141698S11659330EA0124101267000000045000
B0510283141711S11659267EA0122201250000000045000
B0510323141666S11659204EA0121701259000000045000
B0510363141589S11659180EA0122501264000000060000
B0510403141511S11659211EA0122801272000000090000
B0510443141454S11659278EA0123501281000000105000
B0510483141467S11659350EA0124301299000000120000
B0510523141520S11659379EA0125401310000000135000
B0510563141563S11659349EA0125501317000000090000
B0511003141550S11659283EA0125801323000000135000
B0511043141482S11659240EA0125801314000000135000
B0511083141397S11659235EA0124501303000000090000
B0511123141306S11659246EA0123501291000000060000
B0511163141208S11659261EA0121101275000000045000
B0511203141104S11659275EA0119401251000000030000
B0511243141001S11659287EA0118301238000000030000
B0511283140899S11659292EA0117601225000000015000
B0511323140797S11659295EA0116601218000000015000
B0511363140699S11659298EA0116201212000000015000
B0511403140601S11659304EA0115901209000000015000
B0511443140511S11659309EA0115901207000000015000
B0511483140426S11659314EA0115501202000000000000
B0511523140341S11659322EA0115101193000000000000
B0511563140258S11659331EA0114801192000000000000
B0512003140177S11659332EA0115201190000000000000
B0512043140094S11659334EA0114801194000000000000
B0512083140013S11659340EA0115801205000000000000
B0512123139932S11659343EA0116501206000000000000
B0512163139847S11659336EA0115801201000000000000
B0512203139759S11659336EA0114901186000000000000
B0512243139664S11659343EA0113201174000000000000
B0512283139568S11659352EA0112101168000000000000
B0512323139471S11659361EA0111401159000000000000
B0512363139373S11659371EA0110201150000000015000
B0512403139274S11659383EA0109501144000000015000
B0512443139179S11659392EA0109201143000000015000
B0512483139085S11659401EA0109101141000000015000
B0512523138994S11659406EA0108901137000000000000
B0512563138905S11659412EA0108501129000000000000
B0513003138814S11659421EA0107401117000000000000
B0513043138723S11659436EA0106601107000000000000
B0513083138630S11659456EA0105801098000000000000
B0513123138538S11659470EA0104501085000000000000
B0513163138443S11659484EA0103301078000000000000
B0513203138349S11659496EA0102201065000000000000
B0513243138253S11659509EA0101101057000000015000
B0513283138160S11659519EA0100801053000000015000
B0513323138069S11659526EA0100101049000000015000
B0513363137982S11659539EA0099801041000000015000
B0513403137891S11659548EA0098601034000000015000
B0513443137800S11659557EA0097501028000000015000
B0513483137707S11659562EA0096501019000000015000
B0513523137616S11659566EA0095501011000000015000
B0513563137525S11659570EA0094601002000000015000
B0514003137436S11659571EA0093700992000000015000
B0514043137348S11659571EA0092800971000000015000
B0514083137259S11659568EA0091700962000000015000
B0514123137176S11659564EA0091200962000000015000
B0514163137092S11659560EA0090900954000000000000
B0514203137008S11659547EA0090700951000000000000
B0514243136926S11659532EA0090500951000000000000
B0514283136848S11659523EA0091000955000000000000
B0514323136773S11659518EA0091600964000000000000
B0514363136713S11659471EA0092200967000000015000
B0514403136701S11659415EA0093300977000000015000
B0514443136765S11659413EA0094600988000000030000
B0514483136788S11659480EA0095601000000000030000
B0514523136739S11659525EA0096901017000000030000
B0514563136687S11659500EA0097601020000000015000
B0515003136679S11659439EA0097901023000000030000
B0515043136724S11659408EA0098201026000000030000
B0515083136775S11659438EA0099001039000000030000
B0515123136792S11659504EA0100801051000000015000
B0515163136771S11659579EA0100901050000000015000
B0515203136717S11659636EA0100701049000000015000
B0515243136649S11659657EA0101001053000000015000
B0515283136581S11659644EA0101101055000000015000
B0515323136532S11659597EA0101601066000000015000
B0515363136546S11659547EA0103201081000000015000
B0515403136591S11659569EA0103901079000000015000
B0515443136591S11659642EA0103701078000000015000
B0515483136542S11659696EA0104101084000000015000
B0515523136475S11659699EA0104301089000000015000
B0515563136435S11659648EA0105201099000000045000
B0516003136461S11659595EA0105601098000000030000
B0516043136518S11659609EA0105701104000000030000
B0516083136545S11659678EA0106201107000000030000
B0516123136524S11659755EA0106601115000000030000
B0516163136463S11659800EA0107301119000000015000
B0516203136401S11659804EA0107801123000000030000
B0516243136381S11659743EA0109001135000000030000
B0516283136425S11659707EA0109301135000000030000
B0516323136480S11659735EA0109201137000000015000
B0516363136503S11659807EA0109701142000000015000
B0516403136484S11659885EA0110301146000000015000
B0516443136433S11659947EA0110201145000000015000
B0516483136373S11700006EA0110501142000000015000
B0516523136333S11700069EA0112101150000000030000
B0516563136377S11700112EA0114401161000000060000
B0517003136412S11700069EA0114901168000000105000
B0517043136381S11700016EA0115601185000000075000
B0517083136314S11700020EA0116701199000000075000
B0517123136266S11700084EA0117801214000000060000
B0517163136262S11700164EA0118801222000000030000
B0517203136299S11700227EA0117901214000000030000
B0517243136359S11700229EA0116801204000000030000
B0517283136384S11700168EA0115901201000000030000
B0517323136362S11700099EA0116201207000000030000
B0517363136310S11700062EA0117101217000000030000
B0517403136284S11700128EA0118901230000000060000
B0517443136333S11700168EA0119701238000000120000
B0517483136371S11700120EA0120301248000000195000
B0517523136334S11700073EA0121201267000000150000
B0517563136268S11700084EA0122201274000000120000
B0518003136234S11700156EA0123001287000000135000
B0518043136263S11700227EA0123901290000000105000
B0518083136325S11700240EA0124401298000000135000
B0518123136367S11700194EA0125201306000000120000
B0518163136362S11700134EA0126401311000000090000
B0518203136325S11700085EA0126901317000000075000
B0518243136256S11700093EA0127201324000000060000
B0518283136201S11700147EA0127601330000000060000
B0518323136199S11700225EA0128601345000000075000
B0518363136250S11700266EA0129201346000000060000
B0518403136307S11700244EA0129301349000000060000
B0518443136315S11700177EA0129801354000000075000
B0518483136269S11700124EA0130301359000000075000
B0518523136198S11700110EA0130201355000000060000
B0518563136120S11700141EA0129201350000000060000
B0519003136045S11700189EA0128301341000000045000
B0519043135968S11700242EA0127601332000000030000
B0519083135886S11700299EA0125801317000000030000
B0519123135800S11700362EA0124501309000000030000
B0519163135712S11700426EA0123901303000000030000
B0519203135626S11700493EA0124001304000000030000
B0519243135541S11700558EA0124901315000000030000
B0519283135462S11700622EA0125401314000000030000
B0519323135387S11700688EA0126901315000000030000
B0519363135402S11700757EA0130301342000000045000
B0519403135448S11700731EA0131801353000000075000
B0519443135435S11700667EA0132801361000000120000
B0519483135370S11700634EA0133001365000000135000
B0519523135300S11700667EA0133001375000000090000
B0519563135271S11700743EA0134101390000000165000
B0520003135293S11700810EA0135401402000000225000
B0520043135358S11700809EA0136401419000000210000
B0520083135393S11700764EA0137201428000000060000
B0520123135391S11700692EA0137601431000000135000
B0520163135336S11700639EA0137801437000000150000
B0520203135266S11700686EA0138501442000000180000
B0520243135261S11700758EA0139501463015000165000
B0520283135302S11700790EA0140301475015000120000
B0520323135345S11700761EA0141201481015000045000
B0520363135371S11700712EA0142401485015000045000
B0520403135362S11700649EA0142501492015000210000
B0520443135336S11700601EA0142401499015000180000
B0520483135307S11700572EA0142701504015000135000
B0520523135280S11700574EA0143001509015000120000
B0520563135265S11700579EA0143501515030000120000
B0521003135265S11700579EV0144300000000000000128
B0521043135227S11700647EA0145201523045000105000
B0521083135232S11700627EA0145501525045000090000
B0521123135211S11700604EA0145301527045000090000
B0521163135166S11700591EA0145501531045000090000
B0521203135124S11700600EA0146201537045000075000
B0521243135118S11700654EA0146901541045000075000
B0521283135224S11700775EA0147101546030000075000
B0521323135240S11700706EA0147601549015000090000
B0521363135214S11700632EA0148001555015000090000
B0521403135177S11700572EA0147401560015000090000
B0521443135081S11700580EA0145501556015000075000
B0521483135003S11700595EA0143301557015000075000
B0521523134895S11700656EA0142601558015000075000
B0521563134797S11700697EA0141401558015000075000
B0522003134687S11700741EA0140201556015000075000
B0522043134551S11700796EA0139601519000000060000
B0522083134446S11700831EA0138401509000000090000
B0522123134339S11700862EA0137401503000000120000
B0522163134232S11700892EA0136301493000000180000
B0522203134122S11700920EA0134801465000000090000
B0522243134014S11700952EA0134101455000000090000
B0522283133910S11700983EA0133001443000000135000
B0522323133806S11701016EA0132601436015000150000
B0522363133706S11701051EA0132001430015000150000
B0522403133607S11701082EA0132401419000000090000
B0522443133515S11701108EA0132501409000000060000
B0522483133420S11701133EA0133101402000000030000
B0522523133335S11701152EA0134801415000000015000
B0522563133264S11701198EA0136001421000000015000
B0523003133200S11701255EA0136701425000000015000
B0523043133136S11701316EA0136401421000000015000
B0523083133070S11701378EA0136401419000000015000
B0523123133000S11701438EA0136001405000000015000
B0523163132923S11701503EA0134001391000000015000
B0523203132841S11701568EA0132701382000000015000
B0523243132756S11701632EA0131601376000000015000
B0523283132665S11701694EA0130301370000000015000
B0523323132571S11701754EA0129101363000000015000
B0523363132480S11701815EA0128001352000000015000
B0523403132385S11701872EA0127601345000000015000
B0523443132291S11701928EA0127201339000000015000
B0523483132202S11701984EA0127001333000000015000
B0523523132115S11702038EA0126601328000000015000
B0523563132026S11702093EA0125601321000000030000
B0524003131937S11702153EA0124701313000000030000
B0524043131848S11702209EA0124501306000000030000
B0524083131761S11702265EA0123701300000000045000
B0524123131675S11702324EA0122801294000000045000
B0524163131593S11702386EA0122301288000000060000
B0524203131511S11702450EA0122101282000000060000
B0524243131433S11702517EA0121601277000000060000
B0524283131358S11702589EA0120901272015000075000
B0524323131292S11702668EA0120701267015000075000
B0524363131231S11702753EA0120201262015000075000
B0524403131172S11702838EA0119601258015000090000
B0524443131121S11702929EA0118601250015000075000
B0524483131073S11703022EA0118701244000000060000
B0524523131025S11703111EA0119301247000000060000
B0524563130978S11703202EA0119401250000000060000
B0525003130934S11703293EA0119501253000000045000
B0525043130886S11703380EA0119101256000000060000
B0525083130842S11703470EA0118501248000000045000
B0525123130793S11703555EA0118101240000000030000
B0525163130742S11703642EA0117101233000000030000
B0525203130687S11703729EA0116701229000000030000
B0525243130634S11703817EA0116001219000000030000
B0525283130583S11703906EA0114901211000000030000
B0525323130535S11703994EA0114701202000000015000
B0525363130490S11704085EA0113701187000000015000
B0525403130442S11704176EA0112601179000000015000
B0525443130395S11704267EA0112001174000000015000
B0525483130347S11704358EA0111501170000000015000
B0525523130302S11704449EA0111501170000000015000
B0525563130257S11704531EA0113001189000000015000
B0526003130213S11704608EA0113901187000000015000
B0526043130171S11704691EA0112801174000000015000
B0526083130128S11704778EA0112301171000000015000
B0526123130084S11704866EA0111901166000000015000
B0526163130040S11704956EA0111701166000000015000
B0526203129992S11705042EA0111701163000000000000
B0526243129938S11705128EA0111201153000000000000
B0526283129888S11705215EA0110501152000000000000
B0526323129840S11705297EA0110801157000000000000
B0526363129794S11705376EA0111001157000000000000
B0526403129755S11705455EA0111401163000000000000
B0526443129723S11705536EA0112001166000000000000
B0526483129690S11705616EA0111601161000000000000
B0526523129642S11705687EA0111201159000000000000
B0526563129576S11705740EA0111701167000000000000
B0527003129504S11705756EA0112801174000000000000
B0527043129452S11705697EA0113701182000000015000
B0527083129460S11705626EA0114701193000000030000
B0527123129511S11705610EA0116301213000000075000
B0527163129534S11705659EA0117501221000000045000
B0527203129494S11705713EA0117301224000000045000
B0527243129438S11705687EA0117601227000000045000
B0527283129441S11705623EA0118301237000000075000
B0527323129486S11705598EA0119001237000000090000
B0527363129539S11705610EA0118401234000000090000
B0527403129587S11705640EA0118501230000000075000
B0527443129555S11705724EA0118501231000000060000
B0527483129408S11705778EA0118401232000000045000
B0527523129326S11705804EA0118001232000000060000
B0527563129238S11705845EA0117601230000000045000
B0528003129152S11705891EA0117501231000000045000
B0528043129066S11705938EA0117601230000000045000
B0528083128982S11705983EA0116701225000000045000
B0528123128891S11706034EA0115701216000000045000
B0528163128798S11706082EA0114801210000000045000
B0528203128707S11706133EA0114501203000000045000
B0528243128618S11706183EA0113801194000000045000
B0528283128528S11706234EA0113001186000000030000
B0528323128438S11706285EA0112601182000000030000
B0528363128352S11706334EA0112001176000000030000
B0528403128268S11706385EA0111101169000000030000
B0528443128185S11706438EA0109801162000000045000
B0528483128104S11706494EA0108801157000000045000
B0528523128025S11706546EA0108201148000000045000
B0528563127944S11706598EA0106801141000000045000
B0529003127858S11706647EA0105801134000000060000
B0529043127770S11706688EA0105801129000000060000
B0529083127682S11706727EA0106601126000000060000
B0529123127605S11706767EA0107301127000000030000
B0529163127530S11706814EA0107001118000000030000
B0529203127449S11706851EA0106901114000000030000
B0529243127389S11706900EA0108601123000000030000
B0529283127415S11706961EA0110301137000000075000
B0529323127466S11706957EA0110201132000000135000
B0529363127484S11706898EA0109801136000000210000
B0529403127454S11706833EA0109801135000000000000
B0529443127375S11706811EA0109801144000000105000
B0529483127302S11706846EA0110401153000000075000
B0529523127255S11706922EA0111001157000000045000
B0529563127262S11707002EA0111601166000000030000
B0530003127309S11707057EA0112201172000000030000
B0530043127370S11707053EA0112401176000000045000
B0530083127385S11706992EA0112801185000000090000
B0530123127336S11706942EA0113201190000000195000
B0530163127255S11706959EA0113401183000000060000
B0530203127244S11707035EA0115101209000000060000
B0530243127296S11707041EA0116901221000000090000
B0530283127306S11706985EA0117801232000000120000
B0530323127253S11706949EA0118301233000000210000
B0530363127184S11706979EA0118301231000000090000
B0530403127156S11707058EA0118701229000000150000
B0530443127173S11707140EA0118001224000000210000
B0530483127206S11707204EA0118201223000000105000
B0530523127246S11707227EA0118701233000000225000
B0530563127310S11707075EA0119401248015000225000
B0531003127264S11707013EA0119601248000000075000
B0531043127189S11707007EA0119901250000000105000
B0531083127117S11707050EA0119901249000000120000
B0531123127052S11707123EA0118201246000000105000
B0531163126997S11707218EA0117401234000000060000
B0531203126939S11707308EA0117601235000000060000
B0531243126882S11707397EA0117901238000000060000
B0531283126822S11707488EA0117101232000000060000
B0531323126763S11707578EA0116401228000000060000
B0531363126700S11707661EA0116201222000000045000
B0531403126634S11707742EA0115801220000000045000
B0531443126566S11707823EA0114701216000000045000
B0531483126499S11707907EA0113601210000000045000
B0531523126431S11707992EA0112701204000000060000
B0531563126363S11708077EA0111601196000000060000
B0532003126298S11708162EA0111101189000000060000
B0532043126239S11708244EA0110201180000000060000
B0532083126176S11708327EA0109401174000000075000
B0532123126115S11708409EA0108901168000000075000
B0532163126057S11708491EA0108401162000000075000
B0532203126005S11708570EA0108701153000000060000
B0532243125946S11708647EA0108301149000000060000
B0532283125884S11708723EA0107301145000000060000
B0532323125824S11708808EA0106201140000000075000
B0532363125767S11708892EA0105201133015000075000
B0532403125708S11708976EA0104401127015000075000
B0532443125651S11709060EA0103501119015000090000
B0532483125599S11709146EA0102301105015000075000
B0532523125539S11709230EA0101801099015000075000
B0532563125481S11709312EA0101601094015000090000
B0533003125422S11709388EA0103001093000000060000
B0533043125359S11709461EA0103801091000000045000
B0533083125307S11709537EA0104301089000000045000
B0533123125264S11709613EA0105801090000000045000
B0533163125231S11709687EA0106001090000000045000
B0533203125292S11709680EA0105001092015000045000
B0533243125299S11709684EA0105001093015000045000
B0533283125300S11709688EV0106200000000000000128
B0533323125273S11709643EA0107001095015000045000
B0533363125262S11709581EA0107601096030000060000
B0533403125278S11709533EA0106801097030000060000
B0533443125275S11709484EA0106501098030000060000
B0533483125261S11709436EA0106401098030000060000
B0533523125217S11709389EA0105901098045000060000
B0533563125122S11709401EA0103901099045000060000
B0534003125027S11709466EA0102801097045000060000
B0534043124961S11709604EA0101201095045000060000
B0534083124911S11709731EA0099801093045000060000
B0534123124848S11709862EA0099301091045000060000
B0534163124796S11709965EA0098801090045000075000
B0534203124753S11710064EA0098601069000000060000
B0534243124707S11710157EA0097601050000000045000
B0534283124662S11710251EA0097201044000000045000
B0534323124620S11710342EA0097301036000000030000
B0534363124575S11710430EA0096701028000000030000
B0534403124530S11710520EA0096201020000000030000
B0534443124486S11710608EA0095401013000000045000
B0534483124447S11710698EA0095001007000000045000
B0534523124412S11710785EA0095001005000000045000
B0534563124384S11710868EA0094701003000000045000
B0535003124364S11710952EA0094700999000000045000
B0535043124355S11711036EA0094200992000000030000
B0535083124354S11711122EA0093600985000000030000
B0535123124363S11711206EA0094400980000000030000
B0535163124433S11711191EA0095100974000000045000
B0535203124499S11711135EA0094700979000000045000
B0535243124491S11711073EA0094700982000000030000
B0535283124433S11711048EA0094500978000000030000
B0535323124369S11711088EA0093600968000000015000
B0535363124313S11711151EA0092200956000000015000
B0535403124259S11711225EA0092000958000000015000
B0535443124224S11711303EA0093400970000000030000
B0535483124251S11711360EA0095300988000000060000
B0535523124293S11711336EA0096300993000000135000
B0535563124281S11711271EA0097001003000000210000
B0536003124217S11711256EA0098001010000000060000
B0536043124173S11711316EA0098501018000000150000
B0536083124204S11711370EA0099501030000000225000
B0536123124246S11711347EA0100701042000000030000
B0536163124230S11711283EA0101801057000000015000
B0536203124163S11711261EA0102601063000000120000
B0536243124111S11711318EA0103001076000000225000
B0536283124117S11711387EA0104001088000000165000
B0536323124168S11711392EA0105101098000000150000
B0536363124169S11711330EA0106401113000000135000
B0536403124098S11711314EA0106701117015000210000
B0536443124044S11711372EA0107501128000000195000
B0536483124022S11711446EA0108701143000000015000
B0536523124025S11711499EA0109701155015000150000
B0536563124060S11711531EA0110301155015000120000
B0537003124088S11711504EA0110801160015000180000
B0537043124061S11711476EA0111401172015000075000
B0537083124000S11711426EA0112201185030000165000
B0537123123981S11711511EA0113101190030000225000
B0537163123999S11711568EA0114001193030000015000
B0537203124043S11711594EA0115001201030000225000
B0537243124056S11711472EA0115401216030000150000
B0537283123995S11711433EA0116401225015000075000
B0537323123938S11711470EA0118101239015000090000
B0537363123939S11711535EA0119301251015000105000
B0537403123983S11711552EA0120201259015000195000
B0537443124008S11711508EA0120601266015000210000
B0537483123988S11711446EA0121101270015000195000
B0537523123925S11711431EA0122301277015000195000
B0537563123874S11711483EA0123301285015000225000
B0538003123870S11711559EA0124301293015000060000
B0538043123913S11711591EA0124801300015000105000
B0538083123942S11711552EA0125401308000000135000
B0538123123929S11711485EA0126201317000000150000
B0538163123891S11711430EA0127101322000000210000
B0538203123825S11711479EA0127701329000000180000
B0538243123831S11711551EA0128101336000000030000
B0538283123877S11711557EA0129001346000000150000
B0538323123879S11711498EA0130001355000000015000
B0538363123828S11711452EA0131101365015000060000
B0538403123760S11711472EA0131901373015000225000
B0538443123717S11711539EA0132201379015000165000
B0538483123682S11711602EA0132301384015000210000
B0538523123666S11711660EA0133301389015000135000
B0538563123653S11711703EA0134301393015000105000
B0539003123631S11711716EA0135101395015000090000
B0539043123604S11711715EA0135601397030000075000
B0539083123605S11711687EA0135801399030000075000
B0539123123633S11711686EA0136301401030000075000
B0539163123685S11711685EA0136501404030000075000
B0539203123722S11711682EA0136001407045000075000
B0539243123767S11711655EA0135301409045000075000
B0539283123802S11711625EA0135201411045000090000
B0539323123826S11711587EA0135501413045000090000
B0539363123614S11711509EA0136201423015000090000
B0539403123628S11711581EA0137001430000000045000
B0539443123682S11711604EA0137801438000000060000
B0539483123722S11711557EA0138101439000000090000
B0539523123697S11711482EA0138101436000000165000
B0539563123624S11711450EA0138301439000000150000
B0540003123553S11711498EA0138401441000000105000
B0540043123526S11711580EA0138801442000000105000
B0540083123559S11711645EA0139101448000000105000
B0540123123615S11711639EA0139801452000000075000
B0540163123635S11711573EA0139601448000000045000
B0540203123588S11711503EA0139101440000000045000
B0540243123505S11711491EA0138801443000000045000
B0540283123435S11711543EA0139101446000000045000
B0540323123405S11711626EA0139301447000000030000
B0540363123423S11711700EA0139201449000000030000
B0540403123474S11711719EA0139801457000000030000
B0540443123510S11711677EA0140301459000000030000
B0540483123494S11711608EA0140401459000000030000
B0540523123428S11711574EA0140401458000000015000
B0540563123359S11711606EA0139901448000000045000
B0541003123311S11711682EA0138301440000000030000
B0541043123277S11711776EA0136301434000000030000
B0541083123247S11711876EA0135201430000000030000
B0541123123215S11711977EA0135101429000000030000
B0541163123177S11712077EA0135201429000000045000
B0541203123133S11712167EA0135801431000000045000
B0541243123081S11712245EA0136501434000000045000
B0541283123026S11712322EA0136701438000000045000
B0541323122972S11712402EA0136901436000000045000
B0541363122931S11712490EA0136901430000000030000
B0541403122891S11712581EA0136301422000000015000
B0541443122857S11712675EA0136201418000000030000
B0541483122861S11712766EA0136501420000000015000
B0541523122899S11712834EA0136701419000000015000
B0541563122956S11712861EA0135901406000000015000
B0542003123017S11712882EA0134301399000000030000
B0542043123086S11712899EA0132301392000000030000
B0542083123164S11712903EA0131601384000000030000
B0542123123212S11712856EA0132401391000000045000
B0542163123229S11712787EA0132301384000000030000
B0542203123272S11712729EA0131101364000000015000
B0542243123345S11712701EA0129601349000000015000
B0542283123424S11712701EA0128601345000000015000
B0542323123502S11712713EA0128201344000000015000
B0542363123581S11712733EA0127501339000000030000
B0542403123658S11712755EA0127101335000000030000
B0542443123735S11712782EA0126501330000000030000
B0542483123812S11712811EA0126001321000000015000
B0542523123886S11712844EA0124801301000000015000
B0542563123961S11712883EA0123101283000000015000
B0543003124040S11712924EA0122101273000000015000
B0543043124120S11712967EA0121301262000000015000
B0543083124199S11713007EA0120401250000000000000
B0543123124280S11713049EA0119601244000000000000
B0543163124359S11713084EA0119201239000000000000
B0543203124438S11713114EA0118501232000000000000
B0543243124517S11713143EA0118101225000000015000
B0543283124595S11713173EA0117201219000000015000
B0543323124675S11713202EA0116701216000000015000
B0543363124754S11713228EA0116101200000000015000
B0543403124837S11713258EA0114301190000000015000
B0543443124919S11713289EA0113101186000000015000
B0543483125002S11713323EA0112201179000000015000
B0543523125084S11713357EA0111201167000000015000
B0543563125164S11713388EA0110201160000000030000
B0544003125243S11713422EA0109401152000000015000
B0544043125321S11713458EA0108701146000000030000
B0544083125398S11713494EA0108401144000000030000
B0544123125472S11713532EA0108101143000000030000
B0544163125543S11713569EA0107601141000000030000
B0544203125611S11713602EA0107501141000000030000
B0544243125677S11713637EA0108001146000000030000
B0544283125743S11713670EA0108101146000000030000
B0544323125812S11713701EA0108301143000000030000
B0544363125881S11713721EA0108301135000000015000
B0544403125951S11713734EA0108601136000000030000
B0544443126009S11713712EA0109001142000000030000
B0544483126045S11713657EA0109701146000000045000
B0544523126075S11713596EA0110501150000000060000
B0544563126090S11713536EA0110801155000000060000
B0545003126080S11713485EA0110001159000000060000
B0545043126046S11713440EA0109201162015000060000
B0545083125964S11713433EA0109601166015000060000
B0545123125737S11713602EA0110701169015000060000
B0545163125661S11713656EA0112601177015000060000
B0545203125604S11713734EA0113801183015000060000
B0545243125620S11713801EA0113601186030000075000
B0545283125655S11713834EA0112901184030000150000
B0545323125717S11713775EA0112301173030000210000
B0545363125732S11713686EA0112201173000000120000
B0545403125684S11713626EA0112501174000000060000
B0545443125617S11713634EA0113601184000000075000
B0545483125607S11713697EA0114601192000000075000
B0545523125651S11713721EA0114901193000000060000
B0545563125671S11713671EA0115501197000000060000
B0546003125628S11713619EA0115901201000000060000
B0546043125560S11713628EA0115901203000000060000
B0546083125525S11713700EA0115501202000000060000
B0546123125547S11713767EA0116001206000000045000
B0546163125599S11713777EA0116201209000000045000
B0546203125629S11713727EA0116401213000000045000
B0546243125606S11713665EA0117401223000000060000
B0546283125547S11713644EA0118301232000000060000
B0546323125492S11713687EA0118301228000000090000
B0546363125483S11713762EA0118001228000000135000
B0546403125522S11713818EA0118001225000000060000
B0546443125574S11713812EA0118201229000000045000
B0546483125608S11713762EA0118001228000000045000
B0546523125637S11713700EA0117801227000000045000
B0546563125638S11713626EA0118601233000000045000
B0547003125573S11713604EA0120001243000000060000
B0547043125538S11713665EA0120301239000000060000
B0547083125572S11713727EA0119401234000000045000
B0547123125632S11713732EA0119501244000000090000
B0547163125654S11713680EA0121501269000000090000
B0547203125604S11713648EA0123001276000000165000
B0547243125548S11713693EA0122801267000000165000
B0547283125557S11713765EA0122801275000000105000
B0547323125606S11713801EA0123301278000000150000
B0547363125659S11713806EA0124201281000000000000
B0547403125700S11713790EA0124701281000000150000
B0547443125690S11713692EA0125301281015000135000
B0547483125516S11713670EA0125401297015000195000
B0547523125479S11713753EA0125001302000000135000
B0547563125496S11713831EA0125401307000000150000
B0548003125547S11713883EA0125601308000000150000
B0548043125606S11713875EA0126501313000000150000
B0548083125645S11713827EA0126501308000000120000
B0548123125694S11713783EA0124601287000000180000
B0548163125768S11713764EA0122701275000000225000
B0548203125847S11713757EA0121501262000000075000
B0548243125928S11713773EA0120001246000000165000
B0548283126015S11713808EA0118601245015000210000
B0548323126094S11713838EA0117801238015000210000
B0548363126174S11713870EA0116601227015000150000
B0548403126253S11713901EA0115901217015000120000
B0548443126331S11713944EA0115101201000000090000
B0548483126412S11713981EA0114001188000000045000
B0548523126495S11714001EA0113501179000000030000
B0548563126578S11714013EA0112501171000000030000
B0549003126660S11714017EA0111501162000000030000
B0549043126740S11714016EA0111001157000000030000
B0549083126816S11714013EA0110901154000000030000
B0549123126890S11714011EA0110101149000000030000
B0549163126967S11714007EA0109201143000000045000
B0549203127045S11714007EA0110101140000000030000
B0549243127110S11713988EA0112901155000000045000
B0549283127091S11713934EA0115901177000000045000
B0549323127033S11713962EA0116401181000000045000
B0549363127034S11714042EA0116501188000000075000
B0549403127082S11714081EA0117401194000000135000
B0549443127120S11714034EA0118601217000000120000
B0549483127093S11713972EA0120001224000000120000
B0549523127032S11714001EA0120601234000000120000
B0549563127010S11714104EA0121601251000000150000
B0550003127058S11714147EA0122701267000000225000
B0550043127097S11714113EA0124601292000000150000
B0550083127071S11714059EA0126201309000000180000
B0550123127003S11714057EA0126801318000000150000
B0550163126955S11714120EA0127701323000000150000
B0550203126984S11714183EA0128501331000000165000
B0550243127038S11714161EA0128801339000000165000
B0550283127023S11714095EA0129801354000000165000
B0550323126952S11714096EA0131001371000000195000
B0550363126917S11714169EA0131801376000000135000
B0550403126954S11714226EA0132501384000000150000
B0550443126999S11714203EA0133601395000000210000
B0550483126985S11714146EA0134801405000000120000
B0550523126922S11714135EA0135701413000000135000
B0550563126876S11714193EA0136301417000000150000
B0551003126885S11714263EA0137201425000000225000
B0551043126934S11714281EA0137901429000000075000
B0551083126964S11714234EA0138501439000000120000
B0551123126929S11714183EA0138901444000000105000
B0551163126864S11714183EA0140001451000000105000
B0551203126818S11714241EA0140801463000000135000
B0551243126837S11714306EA0141501466000000090000
B0551283126885S11714307EA0142301475000000135000
B0551323126885S11714248EA0143201487000000150000
B0551363126831S11714209EA0144201494000000135000
B0551403126770S11714247EA0145001502000000135000
B0551443126757S11714326EA0145701510000000120000
B0551483126802S11714371EA0145901516000000165000
B0551523126850S11714336EA0146501524000000210000
B0551563126826S11714267EA0147301533000000195000
B0552003126764S11714252EA0148301543000000165000
B0552043126721S11714311EA0149701553000000135000
B0552083126740S11714380EA0150001552000000180000
B0552123126799S11714399EA0149701552000000210000
B0552163126844S11714359EA0150701563000000045000
B0552203126837S11714291EA0151601571000000030000
B0552243126774S11714267EA0151801578000000120000
B0552283126718S11714308EA0152301587000000090000
B0552323126704S11714382EA0153101593000000090000
B0552363126734S11714446EA0153601597000000090000
B0552403126789S11714456EA0154401601000000105000
B0552443126816S11714411EA0155001609000000150000
B0552483126769S11714368EA0155701616000000090000
B0552523126714S11714408EA0155801620000000045000
B0552563126720S11714485EA0155801622000000060000
B0553003126776S11714525EA0155801618000000090000
B0553043126842S11714533EA0155301616000000165000
B0553083126917S11714532EA0154401603000000165000
B0553123126994S11714531EA0152701607000000135000
B0553163127081S11714527EA0150701590000000075000
B0553203127169S11714524EA0149301577000000060000
B0553243127262S11714527EA0148301570000000075000
B0553283127353S11714528EA0147101564000000075000
B0553323127446S11714529EA0145801556000000075000
B0553363127545S11714525EA0144901544000000060000
B0553403127639S11714521EA0144501533000000045000
B0553443127730S11714518EA0143801528000000045000
B0553483127821S11714515EA0143501522000000045000
B0553523127910S11714511EA0142801500000000030000
B0553563127998S11714506EA0142401495000000015000
B0554003128082S11714501EA0142101485000000015000
B0554043128164S11714490EA0141701479000000015000
B0554083128243S11714479EA0141201476000000015000
B0554123128320S11714468EA0140901470000000000000
B0554163128394S11714458EA0140501467000000000000
B0554203128468S11714450EA0140201461000000000000
B0554243128542S11714442EA0139601454000000000000
B0554283128618S11714438EA0138901447000000000000
B0554323128693S11714434EA0138601442000000000000
B0554363128768S11714432EA0137901435000000000000
B0554403128845S11714430EA0137201429000000000000
B0554443128921S11714427EA0136601422000000000000
B0554483128999S11714425EA0136001413000000000000
B0554523129075S11714427EA0135201405000000000000
B0554563129153S11714428EA0134401397000000000000
B0555003129231S11714429EA0133901392000000000000
B0555043129311S11714430EA0133501387000000000000
B0555083129389S11714432EA0133101384000000000000
B0555123129463S11714429EA0132901384000000000000
B0555163129535S11714425EA0133101387000000000000
B0555203129610S11714423EA0132701376000000000000
B0555243129688S11714416EA0132201369000000000000
B0555283129767S11714410EA0131201362000000000000
B0555323129849S11714406EA0131101361000000000000
B0555363129931S11714404EA0130801359000000000000
B0555403130009S11714403EA0131101362000000000000
B0555443130087S11714402EA0130601352000000000000
B0555483130167S11714397EA0129301335000000000000
B0555523130248S11714391EA0127501320000000000000
B0555563130328S11714386EA0126701314000000000000
B0556003130406S11714382EA0126501312000000000000
B0556043130483S11714378EA0125801303000000000000
B0556083130562S11714372EA0125001297000000000000
B0556123130640S11714364EA0124601288000000000000
B0556163130720S11714359EA0123801280000000000000
B0556203130799S11714352EA0123101273000000000000
B0556243130873S11714343EA0123101279000000000000
B0556283130941S11714336EA0123101271000000000000
B0556323131014S11714328EA0121501251000000000000
B0556363131089S11714320EA0120201241000000000000
B0556403131164S11714313EA0119301236000000000000
B0556443131240S11714307EA0119001229000000000000
B0556483131315S11714302EA0118101221000000000000
B0556523131391S11714294EA0117401216000000015000
B0556563131465S11714287EA0117301215000000015000
B0557003131536S11714281EA0116601208000000015000
B0557043131612S11714276EA0116101205000000015000
B0557083131682S11714263EA0116901209000000015000
B0557123131739S11714230EA0118001216000000015000
B0557163131790S11714187EA0118401219000000030000
B0557203131842S11714144EA0118301219000000015000
B0557243131892S11714100EA0118201223000000015000
B0557283131944S11714056EA0118001220000000015000
B0557323131998S11714009EA0117001215000000030000
B0557363132052S11713956EA0116001208000000030000
B0557403132109S11713900EA0116001209000000030000
B0557443132163S11713851EA0117401215000000045000
B0557483132180S11713787EA0119201231000000045000
B0557523132121S11713758EA0120401240000000045000
B0557563132076S11713810EA0120401237000000060000
B0558003132083S11713879EA0119701233000000030000
B0558043132128S11713920EA0119501238000000030000
B0558083132177S11713929EA0120101244000000030000
B0558123132224S11713908EA0120501246000000015000
B0558163132267S11713870EA0120601247000000015000
B0558203132289S11713813EA0121701255000000015000
B0558243132249S11713762EA0122001255000000030000
B0558283132185S11713795EA0121701253000000030000
B0558323132168S11713874EA0121001245000000090000
B0558363132208S11713930EA0120801254000000075000
B0558403132269S11713933EA0121201255000000030000
B0558443132325S11713895EA0121501255000000030000
B0558483132369S11713842EA0122101256000000045000
B0558523132395S11713779EA0122601257000000045000
B0558563132419S11713723EA0122301258000000045000
B0559003132410S11713695EA0123601259015000030000
B0559043132410S11713673EA0125001262015000030000
B0559083132405S11713632EA0125501261015000060000
B0559123132230S11713844EA0125301285015000150000
B0559163132182S11713907EA0124501285015000135000
B0559203132186S11713994EA0125101294015000180000
B0559243132237S11714027EA0125901303015000075000
B0559283132269S11713974EA0125701297015000210000
B0559323132286S11713901EA0124901288015000150000
B0559363132320S11713830EA0123501281015000150000
B0559403132381S11713773EA0121901273015000135000
B0559443132453S11713728EA0119901265015000135000
B0559483132535S11713701EA0118301255015000120000
B0559523132624S11713687EA0116001249015000120000
B0559563132723S11713687EA0114201242015000135000
B0600003132819S11713684EA0113401237015000135000
B0600043132919S11713686EA0113301225015000105000
B0600083133017S11713682EA0112601205000000090000
B0600123133108S11713671EA0112301199000000090000
B0600163133200S11713660EA0112901193000000045000
B0600203133285S11713641EA0113701188000000030000
B0600243133368S11713615EA0112101160000000045000
B0600283133456S11713592EA0110601150000000030000
B0600323133546S11713572EA0109501139000000030000
B0600363133637S11713558EA0108901134000000030000
B0600403133725S11713548EA0108601129000000015000
B0600443133814S11713541EA0107301122000000030000
B0600483133901S11713539EA0106101112000000015000
B0600523133988S11713537EA0105801111000000030000
B0600563134074S11713537EA0105401105000000030000
B0601003134161S11713540EA0104501096000000030000
B0601043134248S11713540EA0105001098000000015000
B0601083134327S11713539EA0107001110000000015000
B0601123134348S11713483EA0110801148000000030000
B0601163134283S11713479EA0113601171000000030000
B0601203134261S11713541EA0114501176000000045000
B0601243134303S11713557EA0114401175000000075000
B0601283134314S11713500EA0115301187000000090000
B0601323134248S11713472EA0116001197000000090000
B0601363134202S11713536EA0117001209000000135000
B0601403134230S11713592EA0117401213000000165000
B0601443134275S11713567EA0118401222000000135000
B0601483134256S11713501EA0119901232000000120000
B0601523134186S11713483EA0121401251000000090000
B0601563134134S11713533EA0122001259000000090000
B0602003134145S11713598EA0122401265000000135000
B0602043134193S11713592EA0122601262000000090000
B0602083134174S11713526EA0123101272000000090000
B0602123134100S11713510EA0124101282000000045000
B0602163134052S11713569EA0124701286000000075000
B0602203134069S11713639EA0125201292000000120000
B0602243134119S11713661EA0125501296000000195000
B0602283134173S11713649EA0126301302000000075000
B0602323134173S11713563EA0127201321000000015000
B0602363134092S11713548EA0128901334000000210000
B0602403134059S11713614EA0130001345000000180000
B0602443134097S11713654EA0130501350000000165000
B0602483134131S11713609EA0131101358000000135000
B0602523134083S11713552EA0132501377000000075000
B0602563134017S11713587EA0133101385000000075000
B0603003134015S11713658EA0134501399000000105000
B0603043134063S11713679EA0134801397000000135000
B0603083134102S11713626EA0134901393000000090000
B0603123134075S11713546EA0135601406000000090000
B0603163134000S11713518EA0136701422000000075000
B0603203133939S11713567EA0137801423000000075000
B0603243133941S11713649EA0137901426000000105000
B0603283133998S11713675EA0138101440000000060000
B0603323134032S11713621EA0139801454000000045000
B0603363133997S11713554EA0141301470000000060000
B0603403133926S11713549EA0142501482000000075000
B0603443133881S11713611EA0142801485000000075000
B0603483133897S11713678EA0143201493000000075000
B0603523133950S11713678EA0143801498000000060000
B0603563133963S11713608EA0143901492000000045000
B0604003133902S11713550EA0144201499000000030000
B0604043133828S11713574EA0145301510000000045000
B0604083133805S11713644EA0146201519000000060000
B0604123133823S11713701EA0146301526000000060000
B0604163133890S11713702EA0145801528000000075000
B0604203133955S11713696EA0145701531000000075000
B0604243134020S11713687EA0144901533000000075000
B0604283134092S11713670EA0143801533000000090000
B0604323134169S11713653EA0143101533000000075000
B0604363134248S11713632EA0141901532000000090000
B0604403134330S11713614EA0140101529000000090000
B0604443134414S11713589EA0139001524000000090000
B0604483134507S11713574EA0138001507000000090000
B0604523134592S11713559EA0137601505000000090000
B0604563134680S11713545EA0137001500000000090000
B0605003134767S11713535EA0136201497000000105000
B0605043134852S11713526EA0135701494000000105000
B0605083134936S11713518EA0135301492015000105000
B0605123135019S11713506EA0135201490015000120000
B0605163135103S11713492EA0134301467015000105000
B0605203135185S11713478EA0133301460015000090000
B0605243135268S11713462EA0132401452015000090000
B0605283135352S11713448EA0131901445015000090000
B0605323135436S11713440EA0131301439015000105000
B0605363135519S11713436EA0130601433015000105000
B0605403135604S11713431EA0130101426015000105000
B0605443135687S11713426EA0129301420015000105000
B0605483135769S11713416EA0128001413015000105000
B0605523135852S11713410EA0127101405015000105000
B0605563135934S11713402EA0126301397015000105000
B0606003136015S11713397EA0125701390015000120000
B0606043136098S11713388EA0125001377015000120000
B0606083136178S11713379EA0124601340000000075000
B0606123136260S11713364EA0123801310000000045000
B0606163136338S11713346EA0122801289000000030000
B0606203136414S11713329EA0121901283000000030000
B0606243136489S11713318EA0122201284000000015000
B0606283136562S11713302EA0121701275000000015000
B0606323136636S11713285EA0121001265000000015000
B0606363136711S11713275EA0120501258000000015000
B0606403136788S11713272EA0120401259000000015000
B0606443136865S11713270EA0120201258000000015000
B0606483136939S11713271EA0119501255000000015000
B0606523137010S11713273EA0119501252000000030000
B0606563137081S11713273EA0119101248000000030000
B0607003137150S11713279EA0118601241000000045000
B0607043137220S11713286EA0118201236000000045000
B0607083137290S11713299EA0117301230000000045000
B0607123137360S11713323EA0116701225000000060000
B0607163137428S11713353EA0116101219000000060000
B0607203137499S11713381EA0115001213000000075000
B0607243137572S11713411EA0113701206000000075000
B0607283137649S11713441EA0112701199000000075000
B0607323137731S11713471EA0111401173000000045000
B0607363137810S11713500EA0110001150000000030000
B0607403137888S11713531EA0109101138000000015000
B0607443137963S11713566EA0108101125000000015000
B0607483138040S11713598EA0106901114000000015000
B0607523138117S11713631EA0106401108000000000000
B0607563138192S11713662EA0105801103000000000000
B0608003138266S11713696EA0105401098000000000000
B0608043138340S11713730EA0104701091000000000000
B0608083138414S11713764EA0104001083000000000000
B0608123138489S11713799EA0103401076000000000000
B0608163138563S11713835EA0102601067000000000000
B0608203138635S11713874EA0101401060000000000000
B0608243138707S11713914EA0100901054000000000000
B0608283138777S11713953EA0100201045000000000000
B0608323138847S11713990EA0099701042000000000000
B0608363138916S11714025EA0099701045000000000000
B0608403138983S11714056EA0099501038000000000000
B0608443139050S11714083EA0098801030000000000000
B0608483139119S11714108EA0098601031000000015000
B0608523139185S11714125EA0098801029000000015000
B0608563139253S11714134EA0098501024000000015000
B0609003139317S11714120EA0098001018000000015000
B0609043139374S11714082EA0097001010000000015000
B0609083139430S11714043EA0096101002000000015000
B0609123139492S11714020EA0095300994000000015000
B0609163139557S11714017EA0094200982000000000000
B0609203139621S11714034EA0093300972000000000000
B0609243139683S11714061EA0092100961000000000000
B0609283139747S11714085EA0091200956000000015000
B0609323139815S11714102EA0090600946000000015000
B0609363139880S11714120EA0089600940000000015000
B0609403139947S11714116EA0090200946000000015000
B0609443140008S11714099EA0091200955000000015000
B0609483140068S11714073EA0091700956000000015000
B0609523140128S11714042EA0091700954000000000000
B0609563140164S11713991EA0092700973000000015000
B0610003140117S11713955EA0094000967000000015000
B0610043140063S11714014EA0092300954000000015000
B0610083140064S11714100EA0092300958000000030000
B0610123140119S11714137EA0093200972000000015000
B0610163140177S11714126EA0094100982000000015000
B0610203140177S11714063EA0095100991000000030000
B0610243140110S11714051EA0095500991000000030000
B0610283140071S11714121EA0095500992000000045000
B0610323140107S11714176EA0096201002000000075000
B0610363140163S11714160EA0096901008000000075000
B0610403140173S11714092EA0098001017000000105000
B0610443140124S11714042EA0099101026000000180000
B0610483140055S11714051EA0099101023000000045000
B0610523140015S11714121EA0098401018000000150000
B0610563140017S11714206EA0098801024000000090000
B0611003140068S11714243EA0100301039000000060000
B0611043140114S11714209EA0100501037000000060000
B0611083140098S11714141EA0101001042000000105000
B0611123140029S11714125EA0101501051000000060000
B0611163139984S11714187EA0101701060000000060000
B0611203140010S11714248EA0102201067000000120000
B0611243140067S11714239EA0103101071000000060000
B0611283140080S11714172EA0103101071000000090000
B0611323140020S11714122EA0102601070000000090000
B0611363139943S11714122EA0103101072000000075000
B0611403139882S11714160EA0103901086000000060000
B0611443139882S11714238EA0104401091000000045000
B0611483139933S11714273EA0104601098000000045000
B0611523139968S11714225EA0105401102000000030000
B0611563139938S11714156EA0105101099000000030000
B0612003139874S11714113EA0105001093000000030000
B0612043139804S11714089EA0104901095000000015000
B0612083139744S11714130EA0105201096000000015000
B0612123139727S11714209EA0105201096000000015000
B0612163139733S11714291EA0105301100000000015000
B0612203139772S11714354EA0105801102000000015000
B0612243139822S11714407EA0105801107000000015000
B0612283139882S11714430EA0106701113000000015000
B0612323139911S11714376EA0107601122000000030000
B0612363139859S11714317EA0107601121000000060000
B0612403139792S11714350EA0108201131000000060000
B0612443139794S11714427EA0109201142000000060000
B0612483139844S11714454EA0110001149000000135000
B0612523139893S11714421EA0110501157000000135000
B0612563139891S11714351EA0110801164000000150000
B0613003139854S11714282EA0111401173000000225000
B0613043139786S11714261EA0112101184000000075000
B0613083139747S11714325EA0112401191000000150000
B0613123139744S11714402EA0113001199000000045000
B0613163139781S11714466EA0113301203000000180000
B0613203139837S11714425EA0113501206015000075000
B0613243139826S11714300EA0114701220015000225000
B0613283139760S11714297EA0115001210015000225000
B0613323139739S11714372EA0113701187000000000000
B0613363139790S11714425EA0113401187000000195000
B0613403139855S11714408EA0114501197000000030000
B0613443139882S11714341EA0115501206000000120000
B0613483139843S11714274EA0115801205000000015000
B0613523139769S11714272EA0115701206000000165000
B0613563139726S11714337EA0115601204015000060000
B0614003139742S11714408EA0116001214015000225000
B0614043139803S11714429EA0116701221015000105000
B0614083139857S11714397EA0117801229015000180000
B0614123139860S11714328EA0118101231015000105000
B0614163139799S11714286EA0118401237000000180000
B0614203139738S11714326EA0118401234000000180000
B0614243139733S11714404EA0117901234000000195000
B0614283139781S11714459EA0118401237000000225000
B0614323139838S11714490EA0118701239000000165000
B0614363139893S11714427EA0119001246000000135000
B0614403139867S11714350EA0119801256000000165000
B0614443139796S11714356EA0119501248000000105000
B0614483139776S11714433EA0118901244000000150000
B0614523139822S11714486EA0118601239000000165000
B0614563139880S11714459EA0119001238000000150000
B0615003139919S11714395EA0118801232000000075000
B0615043139954S11714328EA0118001226000000060000
B0615083139986S11714256EA0117301222000000045000
B0615123140023S11714183EA0116101211000000045000
B0615163140062S11714107EA0114101203000000030000
B0615203140104S11714027EA0112201196000000045000
B0615243140151S11713948EA0111201190000000045000
B0615283140201S11713870EA0110901183000000045000
B0615323140247S11713797EA0110801182000000060000
B0615363140293S11713727EA0110101181000000060000
B0615403140338S11713658EA0109401179000000060000
B0615443140388S11713591EA0109001176000000075000
B0615483140435S11713526EA0108501167000000060000
B0615523140484S11713459EA0108201161000000060000
B0615563140531S11713397EA0108401161000000060000
B0616003140575S11713332EA0108301150000000045000
B0616043140622S11713268EA0107301131000000030000
B0616083140674S11713211EA0106501119000000030000
B0616123140727S11713155EA0105801112000000015000
B0616163140779S11713099EA0105401101000000015000
B0616203140834S11713041EA0103501078000000015000
B0616243140896S11712987EA0102201068000000015000
B0616283140953S11712930EA0102201068000000000000
B0616323141001S11712867EA0102801079000000000000
B0616363141040S11712804EA0104701096000000000000
B0616403141016S11712746EA0106601115000000000000
B0616443140959S11712770EA0107001118000000015000
B0616483140947S11712851EA0106901117000000015000
B0616523140990S11712900EA0107401125000000015000
B0616563141022S11712857EA0108101132000000015000
B0617003140983S11712815EA0108801138000000015000
B0617043140926S11712843EA0109201141000000015000
B0617083140934S11712916EA0109101140000000015000
B0617123140991S11712933EA0109301143000000015000
B0617163141018S11712882EA0110101153000000015000
B0617203140975S11712838EA0110501151000000015000
B0617243140913S11712869EA0110501157000000015000
B0617283140900S11712945EA0111301166000000015000
B0617323140942S11712998EA0111801167000000015000
B0617363140992S11712981EA0111601165000000015000
B0617403140996S11712917EA0111801170000000015000
B0617443140940S11712887EA0112501174000000015000
B0617483140881S11712932EA0112601174000000015000
B0617523140869S11713015EA0112801181000000015000
B0617563140908S11713078EA0113301178000000015000
B0618003140966S11713084EA0112301169000000015000
B0618043140991S11713030EA0112201170000000015000
B0618083140953S11712982EA0112401174000000015000
B0618123140890S11713006EA0113001181000000015000
B0618163140836S11713064EA0113101181000000015000
B0618203140819S11713142EA0113101178000000015000
B0618243140857S11713197EA0112401168000000015000
B0618283140916S11713203EA0111101150000000015000
B0618323140948S11713147EA0109301129000000015000
B0618363140947S11713068EA0107501119000000015000
B0618403140940S11712987EA0108101133000000015000
B0618443140930S11712909EA0108701136000000000000
B0618483140892S11712843EA0109301144000000000000
B0618523140831S11712804EA0110501159000000000000
B0618563140788S11712855EA0111501165000000015000
B0619003140832S11712890EA0111101158000000015000
B0619043140858S11712824EA0110901160000000015000
B0619083140813S11712756EA0111501167000000015000
B0619123140744S11712778EA0113201186000000015000
B0619163140752S11712844EA0114001190000000015000
B0619203140804S11712837EA0113801185000000015000
B0619243140819S11712769EA0114101189000000015000
B0619283140775S11712712EA0115101200000000015000
B0619323140708S11712740EA0115501206000000015000
B0619363140701S11712809EA0116501214000000015000
B0619403140747S11712842EA0116201204000000015000
B0619443140797S11712803EA0115501201000000015000
B0619483140797S11712726EA0116201210000000015000
B0619523140730S11712712EA0117101221000000015000
B0619563140713S11712779EA0117801230000000015000
B0620003140761S11712795EA0118201227000000015000
B0620043140783S11712730EA0117401215000000015000
B0620083140757S11712643EA0115901195000000015000
B0620123140751S11712547EA0114001182000000015000
B0620163140774S11712454EA0113201173000000015000
B0620203140818S11712373EA0111301152000000000000
B0620243140877S11712296EA0109101130000000000000
B0620283140940S11712220EA0107701114000000000000
B0620323141007S11712146EA0106001099000000000000
B0620363141078S11712075EA0105201086000000000000
B0620403141152S11712005EA0104301080000000000000
B0620443141226S11711934EA0103901077000000000000
B0620483141302S11711863EA0102701062000000000000
B0620523141378S11711788EA0101801055000000000000
B0620563141450S11711712EA0102001058000000000000
B0621003141488S11711621EA0105801095000000000000
B0621043141436S11711552EA0109501134000000000000
B0621083141362S11711574EA0111501153000000000000
B0621123141329S11711650EA0112101157000000015000
B0621163141356S11711720EA0112601165000000015000
B0621203141414S11711730EA0113701181000000015000
B0621243141454S11711682EA0114401181000000015000
B0621283141449S11711602EA0114401185000000015000
B0621323141390S11711539EA0115001190000000015000
B0621363141311S11711547EA0115901204000000015000
B0621403141265S11711616EA0116401208000000015000
B0621443141284S11711686EA0116401209000000015000
B0621483141339S11711700EA0116701212000000015000
B0621523141385S11711656EA0117501224000000015000
B0621563141351S11711587EA0118501226000000015000
B0622003141274S11711609EA0117801222000000015000
B0622043141251S11711693EA0117701224000000015000
B0622083141286S11711759EA0118101231000000015000
B0622123141343S11711775EA0118801239000000015000
B0622163141389S11711736EA0119901255000000015000
B0622203141381S11711668EA0121601269000000015000
B0622243141315S11711648EA0122501272000000015000
B0622283141267S11711708EA0122601275000000015000
B0622323141281S11711778EA0122601277000000015000
B0622363141333S11711789EA0122801278000000015000
B0622403141368S11711728EA0123101283000000015000
B0622443141351S11711646EA0124601303000000015000
B0622483141287S11711599EA0125601309000000015000
B0622523141206S11711611EA0126001312000000015000
B0622563141147S11711669EA0126301313000000030000
B0623003141133S11711749EA0125801308000000015000
B0623043141168S11711814EA0125601311000000015000
B0623083141226S11711834EA0126201315000000030000
B0623123141265S11711784EA0127401333000000015000
B0623163141229S11711721EA0129201347000000015000
B0623203141157S11711736EA0130001353000000015000
B0623243141134S11711811EA0129801351000000015000
B0623283141172S11711863EA0129801352000000015000
B0623323141233S11711863EA0130301357000000030000
B0623363141281S11711819EA0131201368000000030000
B0623403141272S11711743EA0132101374000000060000
B0623443141204S11711723EA0132901393000000030000
B0623483141185S11711788EA0134201404000000030000
B0623523141230S11711799EA0135301410000000030000
B0623563141246S11711738EA0135701412000000030000
B0624003141195S11711690EA0136401421000000105000
B0624043141129S11711713EA0137401430000000195000
B0624083141109S11711782EA0138101434000000030000
B0624123141152S11711817EA0138601440000000150000
B0624163141177S11711768EA0139201442000000225000
B0624203141139S11711708EA0139201445000000060000
B0624243141072S11711723EA0140101456000000165000
B0624283141057S11711790EA0140601460000000000000
B0624323141098S11711824EA0140901464000000060000
B0624363141143S11711780EA0140801465000000165000
B0624403141134S11711703EA0140501463000000180000
B0624443141079S11711637EA0140901467000000075000
B0624483141009S11711664EA0142501485000000045000
B0624523141014S11711736EA0142601480000000030000
B0624563141068S11711725EA0142301479000000030000
B0625003141081S11711652EA0142901490000000015000
B0625043141031S11711590EA0143801497000000015000
B0625083140961S11711598EA0144001501000000030000
B0625123140929S11711665EA0143401490000000030000
B0625163140948S11711736EA0142901485000000030000
B0625203141000S11711760EA0143101491000000030000
B0625243141047S11711724EA0143501495000000030000
B0625283141091S11711664EA0142701484000000030000
B0625323141141S11711606EA0141501477000000030000
B0625363141196S11711546EA0140501469000000030000
B0625403141258S11711490EA0139801463000000030000
B0625443141324S11711443EA0138701455000000030000
B0625483141391S11711392EA0137501448000000030000
B0625523141458S11711338EA0136901444000000030000
B0625563141525S11711283EA0137001446000000030000
B0626003141593S11711236EA0137901445000000015000
B0626043141661S11711190EA0137301435000000015000
B0626083141728S11711139EA0137001430000000015000
B0626123141796S11711089EA0136301422000000015000
B0626163141863S11711040EA0135401416000000015000
B0626203141934S11710987EA0133401406000000015000
B0626243142006S11710933EA0132201393000000015000
B0626283142078S11710888EA0132501394000000015000
B0626323142152S11710846EA0132201392000000015000
B0626363142227S11710807EA0132201389000000015000
B0626403142304S11710768EA0131901386000000015000
B0626443142379S11710733EA0131601380000000015000
B0626483142454S11710694EA0131001375000000015000
B0626523142528S11710655EA0130701371000000015000
B0626563142604S11710625EA0129501354000000015000
B0627003142684S11710603EA0128301342000000015000
B0627043142766S11710589EA0127501333000000015000
B0627083142845S11710568EA0126701323000000015000
B0627123142923S11710536EA0125901311000000015000
B0627163143000S11710497EA0125001304000000000000
B0627203143078S11710458EA0124101293000000000000
B0627243143157S11710420EA0123201284000000000000
B0627283143234S11710384EA0122601276000000000000
B0627323143310S11710347EA0121701265000000000000
B0627363143387S11710315EA0120901260000000000000
B0627403143462S11710286EA0120401255000000000000
B0627443143538S11710257EA0119701248000000000000
B0627483143612S11710229EA0119201244000000000000
B0627523143685S11710198EA0118201235000000015000
B0627563143759S11710166EA0117501221000000015000
B0628003143835S11710137EA0116401211000000015000
B0628043143912S11710109EA0115601204000000015000
B0628083143989S11710083EA0114901197000000015000
B0628123144066S11710053EA0114001189000000015000
B0628163144145S11710034EA0113901189000000015000
B0628203144223S11710020EA0114001188000000000000
B0628243144301S11710001EA0113601186000000015000
B0628283144376S11709974EA0112501181000000015000
B0628323144453S11709948EA0111901173000000015000
B0628363144527S11709917EA0110801156000000015000
B0628403144604S11709888EA0109701147000000015000
B0628443144682S11709862EA0109201141000000015000
B0628483144755S11709838EA0109201141000000015000
B0628523144825S11709813EA0108801131000000015000
B0628563144895S11709783EA0107801123000000000000
B0629003144965S11709761EA0107401117000000000000
B0629043145038S11709747EA0106901114000000000000
B0629083145109S11709727EA0107001117000000000000
B0629123145181S11709719EA0107301115000000000000
B0629163145247S11709700EA0108001130000000000000
B0629203145277S11709641EA0109901147000000000000
B0629243145250S11709579EA0110601148000000000000
B0629283145184S11709554EA0110101141000000000000
B0629323145109S11709554EA0109801141000000000000
B0629363145048S11709602EA0109901139000000000000
B0629403145022S11709675EA0109001133000000000000
B0629443145059S11709727EA0108401123000000000000
B0629483145117S11709749EA0107401116000000000000
B0629523145181S11709763EA0107701121000000000000
B0629563145241S11709761EA0108601130000000000000
B0630003145242S11709700EA0110001141000000015000
B0630043145174S11709701EA0109901134000000015000
B0630083145152S11709774EA0109701139000000000000
B0630123145189S11709819EA0109701133000000000000
B0630163145246S11709808EA0109101132000000000000
B0630203145246S11709744EA0109701142000000015000
B0630243145180S11709726EA0109401131000000015000
B0630283145130S11709789EA0108701128000000015000
B0630323145147S11709864EA0108701129000000000000
B0630363145200S11709874EA0109201134000000015000
B0630403145223S11709821EA0109201134000000015000
B0630443145186S11709758EA0109101133000000015000
B0630483145121S11709717EA0108101121000000015000
B0630523145055S11709748EA0107801127000000000000
B0630563145044S11709818EA0108801135000000000000
B0631003145078S11709866EA0108701129000000015000
B0631043145129S11709883EA0107801122000000090000
B0631083145186S11709879EA0107701119000000180000
B0631123145241S11709827EA0108201128000000060000
B0631163145208S11709771EA0109301139000000030000
B0631203145152S11709809EA0109801140000000015000
B0631243145178S11709869EA0109901144000000015000
B0631283145225S11709849EA0110901159000000015000
B0631323145211S11709792EA0112001167000000015000
B0631363145151S11709783EA0112101160000000015000
B0631403145117S11709851EA0110401144000000015000
B0631443145160S11709910EA0110401152000000000000
B0631483145216S11709909EA0111501163000000015000
B0631523145221S11709847EA0112801176000000015000
B0631563145163S11709828EA0113501182000000015000
B0632003145132S11709890EA0114401192000000015000
B0632043145171S11709930EA0114701191000000015000
B0632083145208S11709887EA0115001200000000015000
B0632123145178S11709832EA0116101210000000015000
B0632163145117S11709839EA0116601212000000045000
B0632203145089S11709908EA0116701213000000030000
B0632243145128S11709956EA0116901218000000015000
B0632283145176S11709927EA0117201223000000015000
B0632323145163S11709866EA0118201234000000015000
B0632363145102S11709873EA0118801240000000015000
B0632403145083S11709942EA0119201246000000015000
B0632443145125S11709977EA0119901248000000015000
B0632483145160S11709939EA0120201252000000015000
B0632523145128S11709887EA0120401255000000015000
B0632563145067S11709904EA0120901261000000015000
B0633003145059S11709973EA0121901269000000000000
B0633043145109S11709996EA0121701261000000000000
B0633083145141S11709942EA0121901272000000015000
B0633123145104S11709892EA0122901279000000015000
B0633163145047S11709918EA0123001279000000000000
B0633203145043S11709992EA0123101280000000000000
B0633243145091S11710039EA0123101281000000000000
B0633283145142S11710010EA0123601287000000015000
B0633323145130S11709943EA0123901290000000015000
B0633363145068S11709912EA0123701286000000015000
B0633403145015S11709961EA0124001297000000015000
B0633443145013S11710036EA0124801303000000015000
B0633483145060S11710074EA0125301305000000015000
B0633523145107S11710039EA0125101303000000015000
B0633563145096S11709970EA0125301306000000015000
B0634003145035S11709951EA0125201302000000015000
B0634043144990S11710005EA0125201306000000000000
B0634083145003S11710075EA0125701310000000015000
B0634123145050S11710113EA0125801310000000015000
B0634163145107S11710126EA0125601310000000015000
B0634203145165S11710133EA0125701313000000015000
B0634243145219S11710107EA0125401309000000015000
B0634283145259S11710057EA0124801298000000015000
B0634323145302S11710008EA0123601286000000015000
B0634363145349S11709961EA0122801277000000000000
B0634403145394S11709914EA0122501273000000000000
B0634443145436S11709856EA0122301273000000000000
B0634483145476S11709799EA0122101270000000000000
B0634523145524S11709748EA0121701262000000000000
B0634563145577S11709705EA0120701254000000000000
B0635003145636S11709666EA0119501237000000000000
B0635043145701S11709631EA0117901223000000000000
