ACAM4N6
HFDTE120920
HFFXA050
HFPLTPILOT:JOHN WELSH              
HFGTYGLIDERTYPE:HORNET      
HFGIDGLIDERID:VH-GMY      
HFDTM100GPSDATUM:
HFRFWFIRMWAREVERSION:F2.6
HFRHWHARDWAREVERSION:300 Series Version 2
HFFTYFRTYPE:CAMBRIDGE AERO INSTRUMENTS, 302+
HFGPS:GARMIN,LVS-25,12,18000
HFPRSPRESSALTSENSOR:INTERSEMA, MS5534-AP, 20000
I033638FXA3941ENL4247REX
LCAMSBVER:5FWVER:F26300
C080320044711080320000102
C0000000N00000000WTAKEOFF     
C3207549S11656849EBEVERLEY AF 
C3053283S11642765EWongan Hills
C3136216S11753732EDoodlakine  
C3207549S11656849EBEVERLEY AF 
C0000000N00000000WLANDING     
B0626093207334S11656858EA0010700206000000000000
B0626113207334S11656858EA0010700206000000000000
B0626133207334S11656858EA0010700206000000000000
B0626153207334S11656857EA0010700206000000000000
B0626173207334S11656857EA0010700206000000000000
B0626193207334S11656857EA0010700206000000000000
B0626213207334S11656857EA0010700206000000000000
B0626233207334S11656857EA0010600206000000000000
B0626253207334S11656857EA0010700206000000000000
B0626273207334S11656857EA0010700206000000000000
B0626293207334S11656857EA0010700206000000000000
B0626313207334S11656857EA0010600206000000000000
B0626333207334S11656858EA0010600207000000000000
B0626353207336S11656858EA0010600207000000000000
B0626373207338S11656861EA0010700207000000000000
B0626383207341S11656862EA0010700207000000000000
B0626423207363S11656879EA0010600207000000000000
B0626463207399S11656906EA0010700207000000000000
B0626503207453S11656940EA0010900208000000000000
B0626543207516S11656979EA0011000209000000000000
B0626583207589S11657023EA0011200211000000000000
B0627023207663S11657068EA0011600217000000000000
B0627063207733S11657114EA0012400233000000000000
B0627103207800S11657160EA0014200258000000000000
B0627143207865S11657200EA0017000282000000000000
B0627183207923S11657243EA0019000302000000000000
B0627223207980S11657289EA0020900319000000000000
B0627263208040S11657333EA0022300333000000000000
B0627303208103S11657377EA0023500344000000000000
B0627343208166S11657424EA0024500357000000000000
B0627383208227S11657475EA0026300377000000000000
B0627423208291S11657525EA0028300400000000000000
B0627463208353S11657572EA0030700423000000000000
B0627503208411S11657620EA0033300454000000000000
B0627543208464S11657670EA0036200479000000000000
B0627583208516S11657725EA0038100493000000000000
B0628023208542S11657807EA0039200502000000000000
B0628063208539S11657900EA0039700506000000000000
B0628103208511S11657992EA0040100512000000000000
B0628143208455S11658067EA0041200524000000000000
B0628183208379S11658113EA0042400534000000000000
B0628223208295S11658114EA0043400544000000000000
B0628263208218S11658073EA0044200550000000000000
B0628303208153S11658005EA0044500555000000000000
B0628343208114S11657917EA0045600567000000000000
B0628383208110S11657824EA0047300587000000000000
B0628423208129S11657737EA0049300606000000000000
B0628463208155S11657660EA0051400624000000000000
B0628503208168S11657586EA0052700630000000000000
B0628543208069S11657573EA0053600637000000000000
B0628583208019S11657621EA0053800639000000000000
B0629023208018S11657688EA0053600635000000000000
B0629063208058S11657725EA0053500636000000015000
B0629103208108S11657723EA0053800641000000015000
B0629143208139S11657680EA0054300645000000015000
B0629183208110S11657628EA0054700649000000015000
B0629223208049S11657638EA0054400646000000015000
B0629263208017S11657706EA0054000645000000015000
B0629303208038S11657772EA0054300649000000015000
B0629343208090S11657790EA0054800654000000015000
B0629383208126S11657745EA0055000655000000015000
B0629423208112S11657676EA0055400659000000015000
B0629463208051S11657655EA0056000670000000015000
B0629503208012S11657712EA0056800673000000015000
B0629543208041S11657771EA0056700672000000015000
B0629583208088S11657744EA0057100680000000015000
B0630023208066S11657684EA0058100692000000015000
B0630063208005S11657693EA0059100699000000015000
B0630103207987S11657755EA0060100712000000015000
B0630143208017S11657803EA0060900715000000015000
B0630183208064S11657798EA0061200720000000015000
B0630223208082S11657749EA0061600724000000015000
B0630263208054S11657698EA0061800726000000015000
B0630303207997S11657688EA0061700724000000000000
B0630343207952S11657735EA0061900728000000000000
B0630383207978S11657788EA0062500736000000015000
B0630423208014S11657762EA0063500745000000015000
B0630463207989S11657709EA0063600744000000015000
B0630503207930S11657723EA0063900750000000015000
B0630543207924S11657793EA0064200750000000015000
B0630583207973S11657816EA0064700763000000015000
B0631023207984S11657768EA0066500780000000015000
B0631063207936S11657741EA0066800776000000015000
B0631103207883S11657780EA0066700782000000015000
B0631143207874S11657848EA0067600791000000015000
B0631183207911S11657885EA0068800800000000015000
B0631223207950S11657868EA0069500806000000015000
B0631263207954S11657816EA0069900811000000015000
B0631303207911S11657781EA0070300812000000015000
B0631343207854S11657802EA0070300815000000015000
B0631383207837S11657870EA0070800822000000015000
B0631423207876S11657902EA0071800832000000015000
B0631463207900S11657859EA0072400831000000015000
B0631503207866S11657810EA0072500837000000015000
B0631543207809S11657822EA0073100843000000015000
B0631583207779S11657881EA0073700845000000015000
B0632023207792S11657948EA0073800847000000015000
B0632063207837S11657971EA0073800846000000015000
B0632103207878S11657937EA0073700844000000015000
B0632143207872S11657874EA0073500845000000015000
B0632183207817S11657844EA0073700849000000015000
B0632223207753S11657878EA0073800845000000015000
B0632263207733S11657954EA0074100853000000015000
B0632303207778S11657996EA0074700856000000015000
B0632343207822S11657965EA0074600854000000015000
B0632383207818S11657898EA0074500853000000015000
B0632423207763S11657853EA0074500854000000015000
B0632463207693S11657862EA0074900863000000015000
B0632503207662S11657928EA0075900872000000015000
B0632543207692S11657987EA0075500855000000015000
B0632583207753S11657991EA0074400853000000015000
B0633023207811S11657967EA0074000849000000015000
B0633063207853S11657918EA0074200852000000015000
B0633103207852S11657852EA0074600856000000015000
B0633143207806S11657802EA0074600853000000015000
B0633183207736S11657776EA0074000847000000015000
B0633223207661S11657776EA0073800848000000000000
B0633263207609S11657833EA0074500855000000000000
B0633303207625S11657898EA0075100861000000000000
B0633343207671S11657874EA0075700865000000015000
B0633383207648S11657807EA0075700866000000015000
B0633423207576S11657796EA0075700866000000015000
B0633463207529S11657855EA0076300874000000015000
B0633503207545S11657922EA0076200869000000015000
B0633543207594S11657928EA0076500879000000015000
B0633583207611S11657874EA0077400885000000015000
B0634023207568S11657829EA0077700882000000015000
B0634063207506S11657854EA0077600884000000015000
B0634103207482S11657924EA0077500879000000015000
B0634143207511S11657991EA0077000875000000015000
B0634183207566S11658024EA0076600871000000000000
B0634223207622S11658010EA0076800875000000000000
B0634263207640S11657948EA0077000878000000015000
B0634303207614S11657880EA0077000878000000015000
B0634343207553S11657845EA0077200882000000000000
B0634383207485S11657857EA0077700889000000000000
B0634423207447S11657920EA0078600896000000000000
B0634463207469S11657983EA0078600894000000015000
B0634503207525S11657985EA0078400890000000015000
B0634543207559S11657930EA0078500895000000015000
B0634583207533S11657865EA0079400904000000015000
B0635023207468S11657846EA0079700906000000015000
B0635063207416S11657893EA0080100909000000015000
B0635103207406S11657966EA0080400911000000015000
B0635143207441S11658018EA0080400909000000000000
B0635183207497S11658040EA0079900905000000000000
B0635223207554S11658034EA0079800905000000000000
B0635263207590S11657985EA0080200908000000000000
B0635303207580S11657923EA0080200908000000015000
B0635343207524S11657892EA0080000907000000015000
B0635383207454S11657885EA0079700902000000000000
B0635423207380S11657893EA0079300899000000000000
B0635463207306S11657915EA0079300901000000000000
B0635503207238S11657954EA0079700905000000000000
B0635543207232S11658022EA0080200905000000000000
B0635583207282S11658041EA0078800883000000000000
B0636023207325S11657995EA0077600881000000000000
B0636063207324S11657920EA0077600884000000000000
B0636103207282S11657855EA0078100890000000000000
B0636143207216S11657866EA0078700895000000000000
B0636183207195S11657936EA0078500889000000000000
B0636223207234S11657985EA0078300892000000000000
B0636263207273S11657959EA0078600891000000015000
B0636303207248S11657905EA0078900892000000015000
B0636343207183S11657909EA0078400889000000015000
B0636383207135S11657961EA0078200887000000000000
B0636423207094S11658021EA0077600879000000000000
B0636463207047S11658078EA0076700869000000000000
B0636503206987S11658117EA0076300869000000000000
B0636543206921S11658134EA0076300866000000000000
B0636583206853S11658140EA0075900861000000000000
B0637023206784S11658136EA0076000867000000000000
B0637063206719S11658156EA0076400866000000000000
B0637103206692S11658218EA0076300865000000000000
B0637143206712S11658277EA0076100866000000000000
B0637183206756S11658297EA0076300871000000000000
B0637223206791S11658268EA0076700869000000000000
B0637263206779S11658201EA0076200865000000000000
B0637303206726S11658156EA0076000865000000000000
B0637343206660S11658149EA0076200870000000000000
B0637383206602S11658186EA0076300869000000000000
B0637423206569S11658244EA0075900861000000000000
B0637463206565S11658317EA0075000855000000000000
B0637503206540S11658391EA0073900845000000000000
B0637543206480S11658440EA0073400841000000000000
B0637583206410S11658465EA0073800851000000000000
B0638023206346S11658495EA0075000863000000000000
B0638063206328S11658557EA0076000869000000000000
B0638103206367S11658593EA0076100868000000000000
B0638143206401S11658548EA0076100864000000000000
B0638183206371S11658479EA0075600862000000015000
B0638223206303S11658482EA0076400872000000015000
B0638263206296S11658550EA0077100877000000015000
B0638303206342S11658567EA0077100879000000015000
B0638343206379S11658528EA0077900884000000015000
B0638383206362S11658463EA0077700880000000015000
B0638423206299S11658461EA0078200889000000015000
B0638463206281S11658528EA0078300888000000015000
B0638503206325S11658543EA0078500891000000015000
B0638543206333S11658479EA0078200884000000015000
B0638583206272S11658446EA0077600881000000015000
B0639023206199S11658447EA0077400880000000000000
B0639063206127S11658466EA0076800872000000000000
B0639103206051S11658483EA0076000862000000000000
B0639143205976S11658469EA0075100853000000000000
B0639183205909S11658425EA0074300845000000000000
B0639223205852S11658365EA0073400836000000000000
B0639263205804S11658294EA0072500828000000000000
B0639303205766S11658217EA0071700823000000000000
B0639343205742S11658136EA0071300818000000000000
B0639383205721S11658057EA0070800811000000000000
B0639423205707S11657978EA0069700799000000000000
B0639463205699S11657896EA0068800791000000000000
B0639503205692S11657815EA0068100782000000000000
B0639543205691S11657731EA0067100772000000000000
B0639583205698S11657647EA0066200764000000000000
B0640023205708S11657567EA0065300756000000000000
B0640063205718S11657488EA0065400758000000000000
B0640103205717S11657411EA0066000764000000000000
B0640143205675S11657360EA0067200785000000000000
B0640183205627S11657393EA0069000794000000000000
B0640223205643S11657450EA0069100787000000000000
B0640263205688S11657432EA0068700790000000015000
B0640303205664S11657377EA0069500805000000015000
B0640343205607S11657393EA0070400811000000015000
B0640383205594S11657458EA0071100813000000015000
B0640423205633S11657493EA0071000814000000015000
B0640463205665S11657458EA0071700819000000015000
B0640503205644S11657399EA0071900822000000015000
B0640543205586S11657411EA0072400829000000015000
B0640583205595S11657476EA0072700824000000015000
B0641023205643S11657460EA0072700831000000015000
B0641063205616S11657406EA0073200831000000015000
B0641103205557S11657436EA0073500844000000015000
B0641143205569S11657497EA0074700849000000015000
B0641183205617S11657491EA0074800850000000015000
B0641223205613S11657436EA0075300854000000015000
B0641263205555S11657420EA0075200854000000015000
B0641303205512S11657472EA0075600860000000015000
B0641343205532S11657532EA0076300867000000015000
B0641383205578S11657536EA0077100873000000015000
B0641423205588S11657484EA0077200873000000015000
B0641463205545S11657442EA0077200874000000015000
B0641503205483S11657447EA0077200873000000015000
B0641543205440S11657503EA0077500881000000000000
B0641583205462S11657562EA0078600891000000015000
B0642023205500S11657541EA0079100888000000015000
B0642063205467S11657488EA0078600891000000015000
B0642103205408S11657510EA0079200897000000015000
B0642143205401S11657581EA0080000911000000015000
B0642183205444S11657602EA0081200919000000015000
B0642223205465S11657559EA0081800924000000015000
B0642263205435S11657515EA0082200926000000015000
B0642303205376S11657529EA0082000928000000015000
B0642343205356S11657593EA0082800937000000015000
B0642383205389S11657632EA0083400941000000015000
B0642423205421S11657594EA0083300940000000015000
B0642463205389S11657541EA0083800947000000015000
B0642503205328S11657553EA0084600952000000015000
B0642543205323S11657620EA0085200955000000015000
B0642583205373S11657634EA0085300959000000015000
B0643023205393S11657584EA0085800963000000015000
B0643063205352S11657534EA0086400971000000015000
B0643103205291S11657551EA0087000975000000015000
B0643143205275S11657621EA0087100980000000015000
B0643183205315S11657660EA0087700982000000015000
B0643223205361S11657640EA0087500982000000015000
B0643263205376S11657580EA0087900988000000015000
B0643303205354S11657519EA0088700995000000000000
B0643343205302S11657481EA0089401003000000000000
B0643383205248S11657508EA0090101007000000000000
B0643423205240S11657576EA0090401010000000000000
B0643463205284S11657599EA0090801013000000015000
B0643503205306S11657550EA0091001016000000015000
B0643543205259S11657510EA0091201018000000015000
B0643583205209S11657546EA0092501031000000015000
B0644023205218S11657610EA0092401025000000015000
B0644063205272S11657612EA0092001026000000015000
B0644103205282S11657555EA0092801035000000015000
B0644143205231S11657527EA0093301042000000015000
B0644183205179S11657563EA0093801043000000015000
B0644223205180S11657631EA0093901047000000015000
B0644263205231S11657655EA0094201045000000015000
B0644303205257S11657606EA0094301052000000015000
B0644343205215S11657558EA0094601052000000015000
B0644383205157S11657582EA0094901057000000015000
B0644423205152S11657651EA0095301060000000015000
B0644463205198S11657681EA0095901067000000015000
B0644503205239S11657650EA0096001066000000015000
B0644543205241S11657588EA0096001066000000000000
B0644583205194S11657537EA0096001067000000000000
B0645023205135S11657556EA0096701079000000015000
B0645063205149S11657620EA0097601085000000015000
B0645103205198S11657608EA0097901084000000015000
B0645143205200S11657547EA0098001089000000015000
B0645183205146S11657521EA0098401094000000015000
B0645223205098S11657564EA0099301105000000015000
B0645263205113S11657625EA0099801105000000015000
B0645303205162S11657634EA0099601099000000015000
B0645343205184S11657581EA0099101098000000015000
B0645383205140S11657538EA0099301101000000015000
B0645423205089S11657580EA0100101109000000015000
B0645463205101S11657645EA0100401112000000015000
B0645503205150S11657645EA0100401109000000015000
B0645543205161S11657584EA0099901107000000015000
B0645583205123S11657533EA0100201112000000015000
B0646023205059S11657537EA0100501113000000000000
B0646063205031S11657606EA0100901120000000000000
B0646103205063S11657663EA0101101121000000015000
B0646143205116S11657662EA0101001116000000015000
B0646183205148S11657610EA0100801119000000015000
B0646223205149S11657545EA0101701129000000000000
B0646263205101S11657514EA0102501129000000000000
B0646303205061S11657571EA0102501133000000000000
B0646343205096S11657621EA0103101140000000015000
B0646383205141S11657594EA0103501143000000015000
B0646423205142S11657532EA0103801150000000015000
B0646463205093S11657501EA0104501150000000015000
B0646503205037S11657530EA0104701161000000015000
B0646543205010S11657595EA0105701169000000015000
B0646583205045S11657638EA0106201170000000015000
B0647023205088S11657611EA0106301173000000015000
B0647063205088S11657551EA0106901177000000015000
B0647103205033S11657529EA0106801172000000015000
B0647143204989S11657585EA0107301184000000015000
B0647183205022S11657632EA0108301190000000015000
B0647223205059S11657590EA0108001186000000015000
B0647263205027S11657534EA0108201189000000015000
B0647303204960S11657534EA0108701193000000015000
B0647343204911S11657582EA0109501205000000015000
B0647383204933S11657641EA0110101205000000015000
B0647423204988S11657624EA0109201196000000015000
B0647463204998S11657555EA0110001210000000015000
B0647503204947S11657520EA0111401224000000015000
B0647543204908S11657571EA0112701239000000015000
B0647583204931S11657619EA0113601244000000000000
B0648023204975S11657607EA0113701242000000000000
B0648063204973S11657549EA0113901244000000015000
B0648103204918S11657519EA0113701249000000015000
B0648143204877S11657568EA0115201266000000015000
B0648183204906S11657615EA0116201270000000015000
B0648223204947S11657593EA0116501271000000000000
B0648263204940S11657536EA0116701270000000015000
B0648303204884S11657499EA0116201268000000015000
B0648343204819S11657503EA0117101283000000015000
B0648383204788S11657563EA0118401293000000015000
B0648423204827S11657603EA0118801295000000015000
B0648463204856S11657563EA0120001309000000015000
B0648503204814S11657523EA0120201307000000015000
B0648543204762S11657566EA0121101324000000015000
B0648583204772S11657631EA0122401332000000015000
B0649023204815S11657642EA0122501331000000015000
B0649063204832S11657590EA0121801323000000000000
B0649103204793S11657538EA0122401339000000015000
B0649143204733S11657553EA0123701348000000000000
B0649183204711S11657620EA0124301356000000000000
B0649223204745S11657666EA0125201363000000000000
B0649263204780S11657642EA0125401360000000000000
B0649303204760S11657586EA0125201361000000015000
B0649343204702S11657566EA0126101376000000015000
B0649383204661S11657621EA0127201380000000015000
B0649423204687S11657684EA0127201382000000015000
B0649463204734S11657686EA0127601384000000015000
B0649503204754S11657638EA0127601385000000000000
B0649543204729S11657580EA0128101392000000000000
B0649583204677S11657554EA0129101403000000015000
B0650023204628S11657593EA0130101407000000000000
B0650063204625S11657662EA0130301408000000015000
B0650103204663S11657699EA0130301406000000015000
B0650143204703S11657677EA0130001407000000015000
B0650183204713S11657623EA0130701416000000000000
B0650223204674S11657581EA0131201418000000015000
B0650263204615S11657594EA0131401423000000015000
B0650303204591S11657658EA0132001428000000015000
B0650343204633S11657702EA0132001426000000015000
B0650383204674S11657671EA0132101432000000015000
B0650423204663S11657607EA0132501433000000015000
B0650463204609S11657569EA0132801441000000015000
B0650503204547S11657585EA0133501443000000015000
B0650543204513S11657655EA0133201439000000015000
B0650583204539S11657725EA0133401440000000015000
B0651023204595S11657741EA0133101436000000015000
B0651063204637S11657699EA0133201441000000015000
B0651103204663S11657641EA0133501441000000000000
B0651143204676S11657573EA0133401438000000000000
B0651183204691S11657502EA0133401441000000000000
B0651223204702S11657432EA0134001449000000000000
B0651263204689S11657360EA0134401452000000000000
B0651303204635S11657319EA0135101461000000000000
B0651343204570S11657326EA0135701466000000000000
B0651383204521S11657377EA0136401475000000000000
B0651423204524S11657439EA0137301480000000000000
B0651463204567S11657459EA0137401481000000000000
B0651503204602S11657421EA0137901484000000000000
B0651543204589S11657359EA0138101486000000000000
B0651583204530S11657335EA0138301490000000000000
B0652023204481S11657377EA0138901494000000000000
B0652063204481S11657445EA0138801492000000000000
B0652103204525S11657471EA0139001496000000015000
B0652143204563S11657436EA0139401496000000000000
B0652183204557S11657373EA0139701500000000000000
B0652223204505S11657343EA0139801500000000015000
B0652263204459S11657389EA0140001506000000000000
B0652303204466S11657450EA0140501511000000015000
B0652343204512S11657464EA0140601509000000015000
B0652383204539S11657415EA0140401507000000015000
B0652423204515S11657351EA0140101507000000015000
B0652463204457S11657319EA0140301509000000015000
B0652503204394S11657329EA0140301510000000000000
B0652543204359S11657386EA0140901518000000000000
B0652583204372S11657446EA0141001515000000000000
B0653023204414S11657473EA0140501510000000000000
B0653063204465S11657463EA0140101507000000000000
B0653103204513S11657430EA0140001507000000000000
B0653143204556S11657389EA0140301510000000000000
B0653183204598S11657346EA0140501509000000000000
B0653223204646S11657304EA0139701497000000000000
B0653263204698S11657268EA0138601488000000000000
B0653303204750S11657233EA0138101486000000000000
B0653343204801S11657198EA0137801480000000000000
B0653383204849S11657163EA0137401478000000000000
B0653423204897S11657127EA0137701482000000000000
B0653463204946S11657095EA0137801480000000000000
B0653503204994S11657060EA0137001473000000000000
B0653543205045S11657027EA0136301463000000000000
B0653583205097S11656997EA0135901464000000000000
B0654023205149S11656965EA0136301468000000000000
B0654063205200S11656932EA0136601470000000000000
B0654103205248S11656899EA0136601468000000000000
B0654143205295S11656861EA0136101463000000000000
B0654183205340S11656819EA0135701459000000000000
B0654223205387S11656778EA0135801463000000000000
B0654263205430S11656732EA0136201464000000000000
B0654303205466S11656678EA0135601455000000000000
B0654343205504S11656619EA0134601447000000000000
B0654383205542S11656558EA0134101442000000000000
B0654423205574S11656496EA0133801439000000000000
B0654463205597S11656428EA0134001444000000000000
B0654503205614S11656359EA0134101444000000000000
B0654543205635S11656290EA0133701438000000000000
B0654583205657S11656220EA0133501436000000000000
B0655023205678S11656149EA0133101429000000000000
B0655063205696S11656074EA0132201422000000000000
B0655103205716S11656007EA0132301426000000000000
B0655143205734S11655942EA0132301423000000000000
B0655183205757S11655879EA0131701418000000000000
B0655223205791S11655827EA0131501416000000000000
B0655263205834S11655788EA0131501416000000000000
B0655303205881S11655764EA0131401413000000000000
B0655343205932S11655748EA0130901407000000000000
B0655383205982S11655733EA0130301401000000000000
B0655423206028S11655704EA0129601394000000000000
B0655463206067S11655661EA0128701385000000000000
B0655503206099S11655606EA0127901379000000000000
B0655543206123S11655547EA0127401375000000000000
B0655583206137S11655479EA0127201373000000000000
B0656023206146S11655410EA0127001370000000000000
B0656063206150S11655340EA0126701367000000000000
B0656103206147S11655266EA0126301361000000000000
B0656143206143S11655188EA0125301351000000000000
B0656183206141S11655107EA0124501346000000000000
B0656223206145S11655031EA0124301345000000000000
B0656263206147S11654956EA0124201346000000000000
B0656303206147S11654884EA0124001342000000000000
B0656343206145S11654810EA0123601339000000000000
B0656383206142S11654737EA0123501337000000000000
B0656423206138S11654663EA0123101332000000000000
B0656463206134S11654586EA0122501326000000000000
B0656503206136S11654508EA0122101324000000000000
B0656543206141S11654434EA0122101325000000000000
B0656583206147S11654364EA0122001324000000000000
B0657023206156S11654296EA0121801322000000000000
B0657063206171S11654230EA0121401316000000000000
B0657103206186S11654165EA0120901310000000000000
B0657143206202S11654100EA0120401305000000000000
B0657183206212S11654033EA0119901302000000000000
B0657223206218S11653968EA0119401295000000000000
B0657263206218S11653901EA0118501286000000000000
B0657303206214S11653831EA0117701278000000000000
B0657343206210S11653759EA0116801270000000000000
B0657383206202S11653688EA0116101264000000000000
B0657423206192S11653615EA0115201255000000000000
B0657463206179S11653542EA0114601249000000000000
B0657503206163S11653471EA0114201244000000000000
B0657543206145S11653399EA0113501237000000000000
B0657583206123S11653328EA0112701228000000000000
B0658023206111S11653252EA0111901222000000000000
B0658063206123S11653183EA0111701220000000000000
B0658103206154S11653125EA0111601218000000000000
B0658143206194S11653078EA0111401219000000000000
B0658183206234S11653040EA0111901227000000000000
B0658223206279S11653012EA0112301225000000000000
B0658263206331S11652999EA0111801222000000000000
B0658303206384S11652990EA0112001225000000000000
B0658343206437S11652982EA0111901220000000000000
B0658383206488S11652965EA0111601221000000000000
B0658423206537S11652944EA0111601218000000000000
B0658463206585S11652917EA0110801211000000000000
B0658503206639S11652905EA0110301205000000000000
B0658543206692S11652922EA0109801198000000000000
B0658583206744S11652945EA0109601200000000000000
B0659023206793S11652980EA0109701199000000000000
B0659063206843S11653018EA0109501199000000000000
B0659103206895S11653048EA0109401194000000000000
B0659143206949S11653079EA0108501184000000000000
B0659183207005S11653114EA0107801179000000000000
B0659223207063S11653126EA0107901180000000000000
B0659263207117S11653110EA0107901182000000000000
B0659303207169S11653095EA0107701177000000000000
B0659343207224S11653079EA0107001171000000000000
B0659383207278S11653065EA0106801169000000000000
B0659423207334S11653049EA0106601169000000000000
B0659463207388S11653027EA0106601166000000000000
B0659503207446S11653017EA0105301153000000000000
B0659543207510S11653031EA0104501147000000000000
B0659583207566S11653069EA0104601150000000000000
B0700023207612S11653120EA0104601148000000000000
B0700063207649S11653182EA0104301145000000000000
B0700103207677S11653250EA0104101143000000000000
B0700143207698S11653321EA0104101144000000000000
B0700183207714S11653393EA0104301147000000000000
B0700223207733S11653460EA0105101157000000000000
B0700263207776S11653481EA0106001162000000000000
B0700303207800S11653434EA0106001162000000000000
B0700343207772S11653377EA0105601158000000015000
B0700383207714S11653346EA0105501159000000015000
B0700423207657S11653369EA0106201169000000015000
B0700463207645S11653435EA0106401167000000015000
B0700503207687S11653463EA0106601172000000015000
B0700543207710S11653413EA0106701175000000015000
B0700583207668S11653369EA0106901176000000030000
B0701023207610S11653398EA0106901177000000015000
B0701063207597S11653464EA0107101180000000015000
B0701103207631S11653510EA0107701187000000015000
B0701143207663S11653480EA0108401189000000030000
B0701183207648S11653420EA0108401193000000030000
B0701223207598S11653394EA0109201199000000030000
B0701263207542S11653425EA0108801193000000015000
B0701303207520S11653491EA0108701195000000015000
B0701343207547S11653543EA0108801198000000015000
B0701383207592S11653542EA0109401200000000015000
B0701423207612S11653493EA0109501199000000015000
B0701463207589S11653434EA0109501202000000015000
B0701503207531S11653412EA0109501201000000015000
B0701543207479S11653454EA0109501202000000015000
B0701583207464S11653525EA0109401202000000015000
B0702023207484S11653585EA0110201212000000015000
B0702063207524S11653590EA0110701213000000015000
B0702103207547S11653538EA0110301209000000015000
B0702143207532S11653473EA0110501216000000015000
B0702183207477S11653441EA0111001215000000015000
B0702223207415S11653467EA0110601215000000015000
B0702263207380S11653529EA0110801215000000015000
B0702303207389S11653595EA0110901216000000015000
B0702343207427S11653632EA0111001217000000015000
B0702383207473S11653641EA0111101217000000015000
B0702423207523S11653632EA0110901215000000015000
B0702463207572S11653616EA0110501209000000015000
B0702503207622S11653591EA0109901201000000015000
B0702543207675S11653578EA0109601200000000015000
B0702583207727S11653564EA0109501199000000015000
B0703023207778S11653551EA0109201195000000000000
B0703063207830S11653547EA0108801188000000000000
B0703103207882S11653539EA0108201182000000000000
B0703143207935S11653545EA0107601178000000000000
B0703183207986S11653571EA0107301173000000000000
B0703223208032S11653614EA0107001173000000000000
B0703263208073S11653663EA0107401178000000000000
B0703303208118S11653702EA0107601177000000000000
B0703343208169S11653712EA0107201172000000000000
B0703383208217S11653692EA0106501166000000000000
B0703423208257S11653649EA0105901160000000000000
B0703463208295S11653601EA0105301155000000000000
B0703503208333S11653551EA0104701149000000000000
B0703543208366S11653497EA0103901142000000000000
B0703583208396S11653438EA0103501139000000000000
B0704023208429S11653385EA0103301137000000000000
B0704063208464S11653337EA0103001135000000000000
B0704103208500S11653291EA0102801133000000000000
B0704143208538S11653248EA0102401127000000000000
B0704183208576S11653205EA0101901124000000000000
B0704223208611S11653160EA0101601121000000000000
B0704263208642S11653112EA0101201116000000000000
B0704303208673S11653061EA0100601110000000000000
B0704343208703S11653008EA0100301108000000000000
B0704383208733S11652956EA0100101104000000000000
B0704423208767S11652908EA0099701102000000000000
B0704463208801S11652862EA0099601099000000000000
B0704503208832S11652814EA0098901094000000000000
B0704543208864S11652765EA0098601090000000000000
B0704583208897S11652719EA0098101084000000000000
B0705023208931S11652672EA0097301077000000000000
B0705063208964S11652627EA0096701070000000000000
B0705103208998S11652581EA0096201065000000000000
B0705143209031S11652537EA0095701061000000000000
B0705183209062S11652492EA0095101053000000000000
B0705223209092S11652446EA0094301047000000000000
B0705263209120S11652398EA0093901041000000000000
B0705303209145S11652349EA0093101035000000000000
B0705343209172S11652301EA0092601030000000000000
B0705383209201S11652255EA0092201026000000000000
B0705423209234S11652212EA0091801020000000000000
B0705463209266S11652171EA0091201017000000000000
B0705503209300S11652129EA0090901014000000000000
B0705543209336S11652089EA0090601011000000000000
B0705583209373S11652052EA0090301008000000000000
B0706023209413S11652021EA0089801003000000000000
B0706063209455S11651992EA0089300997000000000000
B0706103209501S11651983EA0088800991000000000000
B0706143209547S11652007EA0088200984000000000000
B0706183209582S11652056EA0087600976000000000000
B0706223209600S11652120EA0086900971000000000000
B0706263209603S11652191EA0086600968000000000000
B0706303209592S11652264EA0086200964000000000000
B0706343209575S11652336EA0085800964000000000000
B0706383209547S11652401EA0086200968000000000000
B0706423209486S11652411EA0087100981000000000000
B0706463209447S11652359EA0087900986000000000000
B0706503209464S11652295EA0087800985000000000000
B0706543209517S11652280EA0088000990000000015000
B0706583209561S11652312EA0088400990000000015000
B0707023209581S11652373EA0088400992000000015000
B0707063209559S11652438EA0088800998000000015000
B0707103209513S11652488EA0089801009000000000000
B0707143209455S11652497EA0090601019000000000000
B0707183209413S11652451EA0091801028000000000000
B0707223209418S11652388EA0092001028000000000000
B0707263209460S11652343EA0092001032000000015000
B0707303209516S11652342EA0092201031000000015000
B0707343209561S11652381EA0092301038000000015000
B0707383209574S11652444EA0093301047000000015000
B0707423209549S11652505EA0094501059000000015000
B0707463209500S11652549EA0095301064000000015000
B0707503209442S11652554EA0096001072000000015000
B0707543209403S11652510EA0096801077000000015000
B0707583209409S11652450EA0097501087000000015000
B0708023209449S11652436EA0098501091000000015000
B0708063209482S11652479EA0098901096000000015000
B0708103209466S11652540EA0099601107000000015000
B0708143209416S11652570EA0100401113000000015000
B0708183209360S11652559EA0100901117000000015000
B0708223209315S11652520EA0101401125000000015000
B0708263209292S11652463EA0102201133000000015000
B0708303209299S11652402EA0102601138000000015000
B0708343209334S11652360EA0103701148000000015000
B0708383209378S11652355EA0104501153000000015000
B0708423209421S11652373EA0104401149000000015000
B0708463209456S11652416EA0104101147000000015000
B0708503209466S11652477EA0104501154000000015000
B0708543209442S11652536EA0105201162000000015000
B0708583209388S11652561EA0106201173000000015000
B0709023209335S11652540EA0107001179000000015000
B0709063209308S11652485EA0107301181000000015000
B0709103209317S11652425EA0108001191000000015000
B0709143209354S11652393EA0108801196000000015000
B0709183209397S11652390EA0109201196000000015000
B0709223209442S11652412EA0109301196000000015000
B0709263209484S11652440EA0108801189000000015000
B0709303209533S11652470EA0107901181000000015000
B0709343209581S11652509EA0107301175000000015000
B0709383209627S11652550EA0106501167000000015000
B0709423209676S11652590EA0105801163000000000000
B0709463209725S11652624EA0105401157000000000000
B0709503209776S11652654EA0104601148000000000000
B0709543209828S11652685EA0104001145000000000000
B0709583209878S11652717EA0103901143000000000000
B0710023209932S11652744EA0103201132000000000000
B0710063209986S11652774EA0102101123000000000000
B0710103210040S11652801EA0101601118000000000000
B0710143210095S11652821EA0101201112000000000000
B0710183210151S11652834EA0100601104000000000000
B0710223210207S11652837EA0099701096000000000000
B0710263210266S11652844EA0098701085000000000000
B0710303210320S11652876EA0098101080000000000000
B0710343210359S11652931EA0097701078000000000000
B0710383210381S11652997EA0097401073000000000000
B0710423210391S11653070EA0096901069000000000000
B0710463210391S11653144EA0097101073000000000000
B0710503210393S11653214EA0097201073000000000000
B0710543210397S11653283EA0097301075000000000000
B0710583210415S11653343EA0097301075000000000000
B0711023210448S11653387EA0097501075000000000000
B0711063210489S11653407EA0097201071000000000000
B0711103210534S11653394EA0096301061000000000000
B0711143210575S11653361EA0095401053000000000000
B0711183210609S11653316EA0095001053000000000000
B0711223210627S11653259EA0095001051000000000000
B0711263210634S11653196EA0094301043000000000000
B0711303210625S11653127EA0093201033000000000000
B0711343210604S11653056EA0092401026000000000000
B0711383210574S11652986EA0091801021000000000000
B0711423210537S11652918EA0091201013000000000000
B0711463210496S11652850EA0090301005000000000000
B0711503210446S11652788EA0089500996000000000000
B0711543210391S11652731EA0088800991000000000000
B0711583210336S11652674EA0088600990000000000000
B0712023210281S11652620EA0088400988000000000000
B0712063210227S11652564EA0088000983000000000000
B0712103210172S11652511EA0087900983000000000000
B0712143210116S11652466EA0088400991000000000000
B0712183210058S11652431EA0088800995000000000000
B0712223209994S11652403EA0089301002000000000000
B0712263209930S11652408EA0089801005000000000000
B0712303209908S11652476EA0089901007000000000000
B0712343209947S11652518EA0089501001000000000000
B0712383209989S11652494EA0089200999000000015000
B0712423210006S11652438EA0089201000000000015000
B0712463209997S11652372EA0089401004000000015000
B0712503209956S11652316EA0089501005000000015000
B0712543209904S11652268EA0089401003000000000000
B0712583209845S11652263EA0089901011000000000000
B0713023209809S11652317EA0090201007000000000000
B0713063209817S11652388EA0089300996000000000000
B0713103209854S11652442EA0088900994000000000000
B0713143209902S11652472EA0088600991000000000000
B0713183209949S11652464EA0089100998000000000000
B0713223209980S11652420EA0089200998000000000000
B0713263209984S11652358EA0089401005000000000000
B0713303209937S11652308EA0089601002000000015000
B0713343209865S11652299EA0089000997000000015000
B0713383209803S11652340EA0088700997000000015000
B0713423209769S11652411EA0088800998000000000000
B0713463209767S11652489EA0089000999000000000000
B0713503209798S11652550EA0088400988000000000000
B0713543209858S11652576EA0086800974000000000000
B0713583209919S11652559EA0086800981000000015000
B0714023209951S11652502EA0087400986000000030000
B0714063209950S11652428EA0087700988000000015000
B0714103209920S11652358EA0087900992000000015000
B0714143209873S11652301EA0088400998000000015000
B0714183209817S11652329EA0089401006000000015000
B0714223209825S11652394EA0089200996000000015000
B0714263209877S11652412EA0088600997000000015000
B0714303209913S11652371EA0089501008000000030000
B0714343209907S11652304EA0090101010000000030000
B0714383209858S11652254EA0090101011000000030000
B0714423209791S11652247EA0090501017000000015000
B0714463209737S11652290EA0091201024000000015000
B0714503209711S11652356EA0091601025000000015000
B0714543209717S11652428EA0091301019000000015000
B0714583209764S11652470EA0090801014000000015000
B0715023209816S11652454EA0090901022000000015000
B0715063209837S11652398EA0092001037000000030000
B0715103209813S11652338EA0093201042000000030000
B0715143209755S11652308EA0093101040000000030000
B0715183209694S11652333EA0093401047000000015000
B0715223209666S11652399EA0093801047000000015000
B0715263209683S11652468EA0093501041000000015000
B0715303209730S11652497EA0093301041000000015000
B0715343209772S11652472EA0094501046000000015000
B0715383209783S11652412EA0094901050000000015000
B0715423209751S11652354EA0095701056000000015000
B0715463209690S11652337EA0096101058000000015000
B0715503209638S11652382EA0096001059000000015000
B0715543209626S11652457EA0096001061000000015000
B0715583209653S11652516EA0095701057000000015000
B0716023209702S11652546EA0096101067000000015000
B0716063209747S11652528EA0096601071000000015000
B0716103209772S11652473EA0096601074000000015000
B0716143209754S11652408EA0097101079000000015000
B0716183209694S11652385EA0097501088000000015000
B0716223209634S11652411EA0098501094000000015000
B0716263209601S11652471EA0098401088000000015000
B0716303209612S11652536EA0097701081000000015000
B0716343209656S11652572EA0097401083000000015000
B0716383209707S11652583EA0097701085000000015000
B0716423209750S11652554EA0098001088000000015000
B0716463209772S11652497EA0098101088000000015000
B0716503209768S11652429EA0098301091000000015000
B0716543209720S11652381EA0098601094000000015000
B0716583209656S11652395EA0098701094000000015000
B0717023209626S11652459EA0099401106000000015000
B0717063209653S11652509EA0099901101000000015000
B0717103209704S11652498EA0099401101000000015000
B0717143209725S11652441EA0099801108000000030000
B0717183209698S11652376EA0099901107000000030000
B0717223209634S11652355EA0100301114000000015000
B0717263209590S11652401EA0101801131000000015000
B0717303209607S11652460EA0102301130000000015000
B0717343209652S11652453EA0102601135000000030000
B0717383209653S11652388EA0102701130000000030000
B0717423209605S11652333EA0102601134000000030000
B0717463209549S11652355EA0103601144000000015000
B0717503209555S11652420EA0104001144000000015000
B0717543209603S11652449EA0104101146000000030000
B0717583209639S11652405EA0104501151000000030000
B0718023209624S11652338EA0105101158000000030000
B0718063209569S11652306EA0105801164000000030000
B0718103209510S11652328EA0106101168000000015000
B0718143209490S11652392EA0106401174000000015000
B0718183209527S11652432EA0106801173000000015000
B0718223209568S11652398EA0107001180000000030000
B0718263209552S11652334EA0107301180000000030000
B0718303209494S11652319EA0107601189000000030000
B0718343209452S11652366EA0108101190000000030000
B0718383209464S11652429EA0108401200000000030000
B0718423209509S11652449EA0109301205000000030000
B0718463209540S11652408EA0110001209000000030000
B0718503209520S11652347EA0109801208000000030000
B0718543209461S11652330EA0110101217000000030000
B0718583209418S11652379EA0110401215000000015000
B0719023209425S11652446EA0110401220000000015000
B0719063209468S11652475EA0111201223000000030000
B0719103209503S11652434EA0111201221000000030000
B0719143209479S11652369EA0110801222000000030000
B0719183209418S11652377EA0111101227000000030000
B0719223209412S11652444EA0111801232000000030000
B0719263209458S11652455EA0112201234000000045000
B0719303209473S11652397EA0112301236000000045000
B0719343209430S11652351EA0112501243000000045000
B0719383209375S11652367EA0113101248000000030000
B0719423209347S11652425EA0113201245000000030000
B0719463209351S11652492EA0113201244000000015000
B0719503209392S11652529EA0113301247000000015000
B0719543209434S11652509EA0114101251000000015000
B0719583209439S11652449EA0114101250000000015000
B0720023209392S11652414EA0114501255000000030000
B0720063209348S11652460EA0114501255000000015000
B0720103209366S11652522EA0114601256000000015000
B0720143209416S11652528EA0114801260000000030000
B0720183209444S11652481EA0114801262000000030000
B0720223209431S11652416EA0114601263000000030000
B0720263209390S11652366EA0115201272000000015000
B0720303209331S11652356EA0116001276000000015000
B0720343209270S11652372EA0116001277000000015000
B0720383209206S11652392EA0115601268000000015000
B0720423209140S11652415EA0114801260000000015000
B0720463209074S11652447EA0114701261000000015000
B0720503209009S11652481EA0115301269000000015000
B0720543208945S11652522EA0115701270000000015000
B0720583208880S11652559EA0115601269000000015000
B0721023208815S11652593EA0115501265000000000000
B0721063208753S11652635EA0115101259000000000000
B0721103208688S11652672EA0114301250000000000000
B0721143208621S11652707EA0113901250000000000000
B0721183208564S11652756EA0114301254000000000000
B0721223208511S11652811EA0114501254000000000000
B0721263208460S11652866EA0114301250000000000000
B0721303208411S11652922EA0113901250000000000000
B0721343208361S11652973EA0114301254000000000000
B0721383208338S11653038EA0114701258000000000000
B0721423208364S11653095EA0114601252000000000000
B0721463208418S11653122EA0113501241000000000000
B0721503208468S11653107EA0113201242000000015000
B0721543208486S11653052EA0112701240000000015000
B0721583208468S11652988EA0111501231000000015000
B0722023208431S11652930EA0110901222000000015000
B0722063208374S11652900EA0110401215000000015000
B0722103208305S11652915EA0109701211000000015000
B0722143208240S11652941EA0110301218000000015000
B0722183208175S11652967EA0110701222000000000000
B0722223208132S11653019EA0111301228000000000000
B0722263208157S11653075EA0110901216000000015000
B0722303208212S11653070EA0109701206000000015000
B0722343208265S11653043EA0108701199000000015000
B0722383208299S11652990EA0108001196000000015000
B0722423208290S11652921EA0107701195000000015000
B0722463208260S11652857EA0107901196000000015000
B0722503208210S11652811EA0107901194000000015000
B0722543208140S11652796EA0107901198000000015000
B0722583208080S11652827EA0108901204000000015000
B0723023208095S11652897EA0108401193000000015000
B0723063208152S11652896EA0108401202000000030000
B0723103208168S11652837EA0109301212000000030000
B0723143208121S11652796EA0110101216000000030000
B0723183208067S11652831EA0110501221000000030000
B0723223208078S11652892EA0110901221000000030000
B0723263208125S11652895EA0111301226000000030000
B0723303208132S11652837EA0111301225000000030000
B0723343208074S11652810EA0110901224000000030000
B0723383208039S11652870EA0111401228000000030000
B0723423208086S11652900EA0111001217000000030000
B0723463208118S11652841EA0110501219000000045000
B0723503208108S11652763EA0110601220000000045000
B0723543208054S11652707EA0110901224000000045000
B0723583207987S11652731EA0111601233000000030000
B0724023208002S11652793EA0112301235000000030000
B0724063208061S11652793EA0111901230000000030000
B0724103208104S11652748EA0112301241000000045000
B0724143208095S11652679EA0113101244000000045000
B0724183208039S11652646EA0113301248000000030000
B0724223207980S11652681EA0113501249000000030000
B0724263207931S11652732EA0114001256000000015000
B0724303207882S11652783EA0114101254000000015000
B0724343207828S11652834EA0114201257000000015000
B0724383207770S11652879EA0114101253000000015000
B0724423207714S11652934EA0113401243000000015000
B0724463207658S11652995EA0112501236000000015000
B0724503207607S11653057EA0112301235000000015000
B0724543207557S11653120EA0112001229000000000000
B0724583207502S11653183EA0111301222000000000000
B0725023207447S11653244EA0110901219000000000000
B0725063207393S11653305EA0110501214000000000000
B0725103207339S11653363EA0109801209000000000000
B0725143207278S11653403EA0109401203000000000000
B0725183207211S11653428EA0109101201000000000000
B0725223207142S11653443EA0108901196000000000000
B0725263207074S11653456EA0108201191000000000000
B0725303207008S11653478EA0107701186000000000000
B0725343206944S11653512EA0106701175000000000000
B0725383206882S11653560EA0105601165000000000000
B0725423206818S11653606EA0105401163000000000000
B0725463206754S11653646EA0104901158000000000000
B0725503206697S11653699EA0104301153000000000000
B0725543206657S11653767EA0103901146000000000000
B0725583206628S11653844EA0103001137000000000000
B0726023206606S11653924EA0102101129000000000000
B0726063206584S11654006EA0101701125000000000000
B0726103206566S11654087EA0101301124000000000000
B0726143206553S11654166EA0101201120000000000000
B0726183206540S11654244EA0100501112000000000000
B0726223206528S11654322EA0099701105000000000000
B0726263206507S11654399EA0099501105000000000000
B0726303206489S11654473EA0099901109000000000000
B0726343206496S11654540EA0100101109000000000000
B0726383206530S11654587EA0099801107000000000000
B0726423206575S11654605EA0099501104000000000000
B0726463206624S11654609EA0099201101000000000000
B0726503206676S11654605EA0098801098000000000000
B0726543206732S11654613EA0098801096000000000000
B0726583206787S11654612EA0099001100000000000000
B0727023206819S11654565EA0099601104000000000000
B0727063206799S11654499EA0099501103000000015000
B0727103206736S11654478EA0099301104000000015000
B0727143206674S11654504EA0099101102000000015000
B0727183206611S11654535EA0098901097000000000000
B0727223206552S11654574EA0098601096000000000000
B0727263206498S11654620EA0098701098000000000000
B0727303206452S11654673EA0098701098000000000000
B0727343206415S11654735EA0098601096000000000000
B0727383206390S11654803EA0098601096000000000000
B0727423206377S11654871EA0098101089000000000000
B0727463206368S11654940EA0097201081000000000000
B0727503206363S11655006EA0096901081000000000000
B0727543206366S11655067EA0096901078000000000000
B0727583206368S11655129EA0096101071000000000000
B0728023206371S11655194EA0095801069000000000000
B0728063206366S11655263EA0095901071000000000000
B0728103206362S11655331EA0095901068000000000000
B0728143206374S11655396EA0095701070000000000000
B0728183206401S11655448EA0096301074000000000000
B0728223206444S11655462EA0096401073000000000000
B0728263206479S11655422EA0096101071000000000000
B0728303206476S11655358EA0096201074000000015000
B0728343206428S11655313EA0096101068000000015000
B0728383206359S11655315EA0095501068000000015000
B0728423206302S11655359EA0096001072000000015000
B0728463206283S11655426EA0096301076000000015000
B0728503206294S11655488EA0096401072000000015000
B0728543206331S11655530EA0095901067000000015000
B0728583206380S11655549EA0095301064000000015000
B0729023206426S11655522EA0095501064000000030000
B0729063206432S11655454EA0095201060000000060000
B0729103206377S11655408EA0094801058000000060000
B0729143206307S11655423EA0094501056000000090000
B0729183206260S11655487EA0094401058000000090000
B0729223206253S11655561EA0094601057000000075000
B0729263206284S11655622EA0094401055000000060000
B0729303206332S11655662EA0094501056000000045000
B0729343206383S11655668EA0095201062000000045000
B0729383206389S11655606EA0096001063000000045000
B0729423206331S11655575EA0096001068000000045000
B0729463206275S11655618EA0096201068000000030000
B0729503206272S11655690EA0096201072000000030000
B0729543206316S11655718EA0096901079000000030000
B0729583206349S11655675EA0097201083000000030000
B0730023206323S11655614EA0097801090000000030000
B0730063206260S11655596EA0098301096000000030000
B0730103206206S11655634EA0098501096000000030000
B0730143206197S11655700EA0098701100000000030000
B0730183206236S11655738EA0099201104000000030000
B0730223206284S11655714EA0099001106000000045000
B0730263206296S11655657EA0100001112000000045000
B0730303206258S11655605EA0100501112000000030000
B0730343206194S11655592EA0100501117000000030000
B0730383206141S11655635EA0100701117000000030000
B0730423206132S11655703EA0100801122000000030000
B0730463206167S11655742EA0101101123000000030000
B0730503206218S11655747EA0101101122000000030000
B0730543206251S11655709EA0101801127000000030000
B0730583206246S11655647EA0101801125000000030000
B0731023206197S11655601EA0101101125000000030000
B0731063206132S11655608EA0100901121000000030000
B0731103206091S11655669EA0100301116000000015000
B0731143206095S11655744EA0100101115000000030000
B0731183206127S11655801EA0100701120000000030000
B0731223206175S11655792EA0101201122000000030000
B0731263206181S11655731EA0101301122000000030000
B0731303206132S11655683EA0101001118000000030000
B0731343206062S11655688EA0100801128000000030000
B0731383206026S11655743EA0102201139000000030000
B0731423206055S11655790EA0102201134000000030000
B0731463206102S11655773EA0101901135000000030000
B0731503206119S11655714EA0102301138000000030000
B0731543206094S11655655EA0102601137000000030000
B0731583206030S11655631EA0102201131000000030000
B0732023205963S11655662EA0101801131000000030000
B0732063205899S11655703EA0101801131000000015000
B0732103205837S11655744EA0102001132000000015000
B0732143205795S11655805EA0102201134000000015000
B0732183205768S11655876EA0101601125000000015000
B0732223205742S11655947EA0100901120000000015000
B0732263205716S11656019EA0100401114000000015000
B0732303205692S11656091EA0099301104000000000000
B0732343205670S11656165EA0098401095000000000000
B0732383205651S11656240EA0097901091000000000000
B0732423205631S11656314EA0097301086000000000000
B0732463205610S11656388EA0097001080000000000000
B0732503205590S11656463EA0096401077000000000000
B0732543205573S11656537EA0096301078000000000000
B0732583205564S11656610EA0096301075000000000000
B0733023205557S11656683EA0095801072000000000000
B0733063205549S11656756EA0095601068000000000000
B0733103205540S11656827EA0095101065000000000000
B0733143205529S11656899EA0095001064000000000000
B0733183205518S11656969EA0095101067000000000000
B0733223205518S11657036EA0095501072000000000000
B0733263205529S11657101EA0095801074000000000000
B0733303205544S11657164EA0096001076000000000000
B0733343205562S11657226EA0096301078000000015000
B0733383205584S11657286EA0096401077000000000000
B0733423205623S11657326EA0096101074000000000000
B0733463205673S11657337EA0096001073000000000000
B0733503205696S11657295EA0096401078000000015000
B0733543205657S11657248EA0096801078000000015000
B0733583205590S11657251EA0096701078000000015000
B0734023205531S11657286EA0096801082000000015000
B0734063205519S11657351EA0096901079000000015000
B0734103205558S11657391EA0096101073000000015000
B0734143205610S11657389EA0095401069000000015000
B0734183205662S11657374EA0094701060000000015000
B0734223205716S11657346EA0093601048000000015000
B0734263205773S11657332EA0092601040000000015000
B0734303205826S11657350EA0093801041000000015000
B0734343205876S11657381EA0094601045000000015000
B0734383205915S11657352EA0094701045000000015000
B0734423205893S11657294EA0094301042000000030000
B0734463205824S11657287EA0094201046000000045000
B0734503205765S11657329EA0094501052000000045000
B0734543205769S11657391EA0095101054000000045000
B0734583205820S11657391EA0094301052000000045000
B0735023205839S11657329EA0094201053000000045000
B0735063205803S11657265EA0094401058000000045000
B0735103205735S11657244EA0095501068000000045000
B0735143205685S11657287EA0096301078000000060000
B0735183205696S11657350EA0096901079000000045000
B0735223205743S11657365EA0097101081000000060000
B0735263205778S11657324EA0097101080000000060000
B0735303205763S11657254EA0097101082000000075000
B0735343205703S11657207EA0097701091000000090000
B0735383205640S11657230EA0098901101000000090000
B0735423205652S11657289EA0099701103000000060000
B0735463205699S11657273EA0099701101000000075000
B0735503205695S11657202EA0100501110000000165000
B0735543205620S11657182EA0101601124000000165000
B0735583205577S11657242EA0102601136000000195000
B0736023205608S11657294EA0102901135000000120000
B0736063205653S11657273EA0103701142000000105000
B0736103205648S11657207EA0104601150000000165000
B0736143205592S11657160EA0105501158000000000000
B0736183205523S11657174EA0106801170000000195000
B0736223205492S11657238EA0107101180000000120000
B0736263205519S11657287EA0107901190000000135000
B0736303205566S11657285EA0108601194000000090000
B0736343205595S11657233EA0109201197000000090000
B0736383205595S11657163EA0110101200000000105000
B0736423205530S11657113EA0110901208000000075000
B0736463205457S11657130EA0111201216000000075000
B0736503205427S11657198EA0111501220000000060000
B0736543205454S11657254EA0112501231000000060000
B0736583205497S11657242EA0113601240000000075000
B0737023205497S11657174EA0114101238000000075000
B0737063205440S11657121EA0114601248000000045000
B0737103205369S11657126EA0115201258000000045000
B0737143205324S11657182EA0115601262000000030000
B0737183205332S11657246EA0115701264000000030000
B0737223205380S11657264EA0115901263000000015000
B0737263205415S11657216EA0116201267000000030000
B0737303205392S11657140EA0116401267000000045000
B0737343205323S11657111EA0116901270000000060000
B0737383205252S11657142EA0116801266000000075000
B0737423205211S11657212EA0116401265000000090000
B0737463205197S11657293EA0116501267000000060000
B0737503205191S11657368EA0117401276000000045000
B0737543205193S11657438EA0118301284000000030000
B0737583205223S11657486EA0118801283000000030000
B0738023205275S11657484EA0117901277000000030000
B0738063205309S11657428EA0117201276000000030000
B0738103205314S11657355EA0117001276000000015000
B0738143205291S11657285EA0117301281000000015000
B0738183205245S11657224EA0117701284000000015000
B0738223205192S11657169EA0118701292000000015000
B0738263205123S11657168EA0119501296000000015000
B0738303205100S11657238EA0118701287000000015000
B0738343205129S11657298EA0118601291000000015000
B0738383205176S11657326EA0119401297000000015000
B0738423205209S11657282EA0119801302000000030000
B0738463205192S11657212EA0120001305000000030000
B0738503205132S11657169EA0120601315000000030000
B0738543205059S11657179EA0121401324000000030000
B0738583205007S11657231EA0121901329000000030000
B0739023204996S11657298EA0122101329000000015000
B0739063205022S11657350EA0122001328000000015000
B0739103205068S11657354EA0122101328000000015000
B0739143205089S11657293EA0121901328000000030000
B0739183205045S11657229EA0122101337000000045000
B0739223204980S11657250EA0123401349000000045000
B0739263204971S11657315EA0123701346000000045000
B0739303205012S11657341EA0123801349000000045000
B0739343205042S11657299EA0124601358000000060000
B0739383205025S11657234EA0125101361000000060000
B0739423204963S11657202EA0125201367000000045000
B0739463204899S11657238EA0125301365000000030000
B0739503204881S11657309EA0125201366000000030000
B0739543204910S11657361EA0125501364000000030000
B0739583204960S11657371EA0125401362000000030000
B0740023205002S11657326EA0125101360000000030000
B0740063204990S11657254EA0125501367000000060000
B0740103204925S11657221EA0126401380000000075000
B0740143204872S11657270EA0127301383000000075000
B0740183204879S11657339EA0126901376000000060000
B0740223204925S11657364EA0127301382000000060000
B0740263204962S11657319EA0127701385000000045000
B0740303204938S11657247EA0127801389000000075000
B0740343204872S11657230EA0128501403000000060000
B0740383204828S11657281EA0129501408000000060000
B0740423204842S11657337EA0129701407000000045000
B0740463204884S11657351EA0129801408000000045000
B0740503204919S11657316EA0130601414000000030000
B0740543204910S11657251EA0130501411000000030000
B0740583204849S11657220EA0130901413000000015000
B0741023204788S11657256EA0131001417000000030000
B0741063204769S11657324EA0131101415000000015000
B0741103204798S11657369EA0131401420000000015000
B0741143204843S11657364EA0131701422000000015000
B0741183204875S11657317EA0131601422000000015000
B0741223204882S11657252EA0131601422000000015000
B0741263204860S11657177EA0131701423000000015000
B0741303204815S11657116EA0132201429000000015000
B0741343204745S11657098EA0132101421000000015000
B0741383204682S11657146EA0131201418000000015000
B0741423204667S11657220EA0131901430000000015000
B0741463204687S11657276EA0132801438000000015000
B0741503204728S11657298EA0133501444000000015000
B0741543204769S11657282EA0133901448000000015000
B0741583204795S11657234EA0134001449000000000000
B0742023204785S11657170EA0134301453000000000000
B0742063204733S11657126EA0134601454000000000000
B0742103204667S11657120EA0134501454000000000000
B0742143204611S11657155EA0134901460000000000000
B0742183204587S11657215EA0135301463000000000000
B0742223204598S11657270EA0135601466000000000000
B0742263204629S11657300EA0136001468000000000000
B0742303204669S11657293EA0136001466000000000000
B0742343204698S11657244EA0135701465000000015000
B0742383204695S11657178EA0135501465000000015000
B0742423204664S11657113EA0135601466000000000000
B0742463204617S11657057EA0135701467000000000000
B0742503204568S11657007EA0135901470000000000000
B0742543204525S11656951EA0135501462000000000000
B0742583204499S11656878EA0134301447000000000000
B0743023204472S11656802EA0133301443000000000000
B0743063204444S11656728EA0132801440000000000000
B0743103204435S11656656EA0132901441000000000000
B0743143204447S11656589EA0132901440000000000000
B0743183204477S11656540EA0133001442000000000000
B0743223204516S11656510EA0133301447000000000000
B0743263204557S11656494EA0133901451000000000000
B0743303204600S11656480EA0133801448000000000000
B0743343204647S11656462EA0132901439000000000000
B0743383204695S11656448EA0132501437000000000000
B0743423204746S11656437EA0132301437000000000000
B0743463204795S11656427EA0132401435000000000000
B0743503204847S11656414EA0131901430000000000000
B0743543204898S11656398EA0131801430000000000000
B0743583204950S11656389EA0131701430000000000000
B0744023205002S11656379EA0131501426000000000000
B0744063205051S11656358EA0130901419000000000000
B0744103205103S11656340EA0129801407000000000000
B0744143205158S11656329EA0129101404000000000000
B0744183205209S11656312EA0128801401000000000000
B0744223205257S11656289EA0128601399000000000000
B0744263205304S11656266EA0128301396000000000000
B0744303205354S11656255EA0127601386000000000000
B0744343205408S11656255EA0126901380000000000000
B0744383205460S11656260EA0127001383000000000000
B0744423205509S11656262EA0127201385000000000000
B0744463205558S11656256EA0126901381000000000000
B0744503205609S11656250EA0126001369000000000000
B0744543205662S11656251EA0125201362000000000000
B0744583205716S11656250EA0124801361000000000000
B0745023205765S11656221EA0124901364000000000000
B0745063205807S11656177EA0125501369000000000000
B0745103205828S11656112EA0125601362000000000000
B0745143205795S11656039EA0124101346000000000000
B0745183205725S11656008EA0123101339000000000000
B0745223205659S11656030EA0122601333000000000000
B0745263205623S11656091EA0122001325000000000000
B0745303205625S11656160EA0121201323000000000000
B0745343205646S11656220EA0121701330000000000000
B0745383205675S11656267EA0122401335000000000000
B0745423205717S11656264EA0123201338000000000000
B0745463205709S11656198EA0123401342000000000000
B0745503205646S11656173EA0123601344000000000000
B0745543205607S11656225EA0123801346000000000000
B0745583205631S11656268EA0124101349000000015000
B0746023205666S11656242EA0124401353000000015000
B0746063205662S11656176EA0124801351000000015000
B0746103205617S11656120EA0124701350000000015000
B0746143205547S11656119EA0124501347000000000000
B0746183205503S11656173EA0124601349000000000000
B0746223205517S11656233EA0124101341000000000000
B0746263205564S11656253EA0123801343000000000000
B0746303205607S11656224EA0124301349000000015000
B0746343205621S11656158EA0124301341000000015000
B0746383205603S11656078EA0123301331000000015000
B0746423205566S11655999EA0122501321000000000000
B0746463205503S11655939EA0120901307000000000000
B0746503205427S11655895EA0120001300000000000000
B0746543205348S11655877EA0119901301000000000000
B0746583205276S11655905EA0120001308000000000000
B0747023205227S11655961EA0120301308000000000000
B0747063205200S11656032EA0120001301000000000000
B0747103205192S11656104EA0119601297000000000000
B0747143205198S11656169EA0119301297000000000000
B0747183205231S11656214EA0118901291000000000000
B0747223205279S11656237EA0118501290000000000000
B0747263205332S11656246EA0118401290000000000000
B0747303205384S11656245EA0118501291000000000000
B0747343205438S11656228EA0118301287000000000000
B0747383205492S11656207EA0117901280000000000000
B0747423205551S11656189EA0116901269000000000000
B0747463205613S11656178EA0115301254000000000000
B0747503205679S11656165EA0114401243000000000000
B0747543205747S11656136EA0113301236000000000000
B0747583205809S11656094EA0112901233000000000000
B0748023205867S11656042EA0112801232000000000000
B0748063205915S11655983EA0112401228000000000000
B0748103205956S11655920EA0112101226000000000000
B0748143205994S11655856EA0111601218000000000000
B0748183206032S11655792EA0110601208000000000000
B0748223206080S11655738EA0110101207000000000000
B0748263206137S11655703EA0110301210000000000000
B0748303206195S11655679EA0110301210000000000000
B0748343206253S11655669EA0110201209000000000000
B0748383206310S11655660EA0110001207000000000000
B0748423206366S11655647EA0109801203000000000000
B0748463206419S11655619EA0109101196000000000000
B0748503206472S11655583EA0108501191000000000000
B0748543206528S11655549EA0108301190000000000000
B0748583206584S11655534EA0108401194000000000000
B0749023206639S11655530EA0108601193000000000000
B0749063206696S11655535EA0108001183000000000000
B0749103206757S11655548EA0107501180000000000000
B0749143206818S11655554EA0107501182000000000000
B0749183206877S11655552EA0107701185000000000000
B0749223206933S11655541EA0107701183000000000000
B0749263206988S11655513EA0106801168000000000000
B0749303207046S11655474EA0105601168000000000000
B0749343207104S11655443EA0105901169000000000000
B0749383207163S11655422EA0105501163000000000000
B0749423207221S11655408EA0105001155000000000000
B0749463207277S11655393EA0104101148000000000000
B0749503207332S11655367EA0103601143000000000000
B0749543207385S11655337EA0103101141000000000000
B0749583207438S11655311EA0102901137000000000000
B0750023207492S11655291EA0102301131000000000000
B0750063207545S11655272EA0101801127000000000000
B0750103207598S11655257EA0101601124000000000000
B0750143207650S11655252EA0101001118000000000000
B0750183207706S11655259EA0100001104000000000000
B0750223207762S11655279EA0099201101000000000000
B0750263207817S11655302EA0099101101000000000000
B0750303207870S11655326EA0098801095000000000000
B0750343207924S11655349EA0098301091000000000000
B0750383207982S11655371EA0098001091000000000000
B0750423208040S11655387EA0098301095000000000000
B0750463208091S11655366EA0099001101000000000000
B0750503208104S11655302EA0099401106000000000000
B0750543208066S11655249EA0099901108000000000000
B0750583208004S11655242EA0099801107000000015000
B0751023207954S11655285EA0100001110000000000000
B0751063207939S11655348EA0100401115000000000000
B0751103207975S11655388EA0100501112000000000000
B0751143208015S11655357EA0100801115000000015000
B0751183207999S11655291EA0101101116000000015000
B0751223207936S11655271EA0101401120000000015000
B0751263207884S11655313EA0101801126000000000000
B0751303207869S11655376EA0102301131000000000000
B0751343207896S11655428EA0102601130000000000000
B0751383207945S11655435EA0102601132000000000000
B0751423207979S11655393EA0103101135000000000000
B0751463207966S11655328EA0103101132000000015000
B0751503207905S11655300EA0103001135000000015000
B0751543207850S11655336EA0103801144000000000000
B0751583207843S11655398EA0104101147000000000000
B0752023207878S11655436EA0104301148000000000000
B0752063207923S11655427EA0104601152000000000000
B0752103207945S11655379EA0104901155000000000000
B0752143207923S11655323EA0104901152000000000000
B0752183207866S11655298EA0104801154000000000000
B0752223207804S11655306EA0104901156000000000000
B0752263207759S11655350EA0104901157000000000000
B0752303207757S11655411EA0105201159000000000000
B0752343207789S11655454EA0105201159000000000000
B0752383207835S11655478EA0105101157000000000000
B0752423207882S11655480EA0105101156000000000000
B0752463207902S11655428EA0104901153000000000000
B0752503207867S11655374EA0104701151000000000000
B0752543207805S11655363EA0104701155000000000000
B0752583207750S11655389EA0105201162000000000000
B0753023207714S11655435EA0105901168000000000000
B0753063207700S11655492EA0106001167000000000000
B0753103207716S11655544EA0106201170000000000000
B0753143207761S11655554EA0106101168000000000000
B0753183207792S11655518EA0106001167000000000000
B0753223207783S11655463EA0105901163000000000000
B0753263207740S11655421EA0105501160000000000000
B0753303207684S11655402EA0105501163000000000000
B0753343207627S11655405EA0105601164000000000000
B0753383207583S11655441EA0105801165000000000000
B0753423207576S11655497EA0105601161000000000000
B0753463207623S11655517EA0104101156000000015000
B0753503207661S11655478EA0104801163000000015000
B0753543207644S11655415EA0105001157000000015000
B0753583207584S11655391EA0104701154000000015000
B0754023207527S11655422EA0104701160000000000000
B0754063207503S11655479EA0105401167000000000000
B0754103207512S11655532EA0106001170000000000000
B0754143207549S11655558EA0105901162000000000000
B0754183207593S11655534EA0105301155000000000000
B0754223207605S11655475EA0105701156000000000000
B0754263207570S11655419EA0105401154000000000000
B0754303207507S11655408EA0105201155000000000000
B0754343207451S11655439EA0105401159000000000000
B0754383207417S11655491EA0105801163000000000000
B0754423207424S11655551EA0105601157000000000000
B0754463207462S11655591EA0105101156000000000000
B0754503207510S11655583EA0105601161000000000000
B0754543207531S11655532EA0106001163000000000000
B0754583207512S11655473EA0105601158000000000000
B0755023207462S11655430EA0105101154000000000000
B0755063207401S11655422EA0105401162000000000000
B0755103207355S11655460EA0105801163000000000000
B0755143207341S11655522EA0105401157000000000000
B0755183207352S11655584EA0105301158000000000000
B0755223207384S11655635EA0105301157000000000000
B0755263207428S11655666EA0105101155000000000000
B0755303207481S11655679EA0104801151000000000000
B0755343207534S11655677EA0104601150000000000000
B0755383207590S11655669EA0104701152000000000000
B0755423207642S11655660EA0104801155000000000000
B0755463207690S11655647EA0104801153000000000000
B0755503207737S11655635EA0104701152000000000000
B0755543207784S11655623EA0104101145000000000000
B0755583207833S11655612EA0103501141000000000000
B0756023207882S11655605EA0103101135000000000000
B0756063207931S11655609EA0102301127000000000000
B0756103207979S11655622EA0101801123000000000000
B0756143208026S11655644EA0101301119000000000000
B0756183208069S11655670EA0100701112000000000000
B0756223208112S11655701EA0100101106000000000000
B0756263208155S11655731EA0099701102000000000000
B0756303208196S11655759EA0099101095000000000000
B0756343208240S11655782EA0098501090000000000000
B0756383208286S11655794EA0098301086000000000000
B0756423208335S11655787EA0097401079000000000000
B0756463208382S11655769EA0096901074000000000000
B0756503208426S11655738EA0096401067000000000000
B0756543208465S11655699EA0095601060000000000000
B0756583208506S11655658EA0094901053000000000000
B0757023208543S11655618EA0094401049000000000000
B0757063208577S11655575EA0093901043000000000000
B0757103208612S11655535EA0093201036000000000000
B0757143208649S11655495EA0092801034000000000000
B0757183208684S11655452EA0092801033000000000000
B0757223208715S11655402EA0092701034000000000000
B0757263208750S11655359EA0092601032000000000000
B0757303208798S11655346EA0092501030000000000000
B0757343208847S11655346EA0092101024000000000000
B0757383208897S11655340EA0091901026000000000000
B0757423208937S11655311EA0092001025000000000000
B0757463208959S11655255EA0091401017000000000000
B0757503208948S11655190EA0090801013000000000000
B0757543208909S11655137EA0090201007000000000000
B0757583208845S11655114EA0089700998000000000000
B0758023208775S11655118EA0088600989000000000000
B0758063208707S11655145EA0088000986000000000000
B0758103208646S11655183EA0087700982000000000000
B0758143208589S11655226EA0087100974000000000000
B0758183208542S11655283EA0086100966000000000000
B0758223208515S11655350EA0085200956000000000000
B0758263208508S11655426EA0084400949000000000000
B0758303208508S11655504EA0084200947000000000000
B0758343208512S11655579EA0084000945000000000000
B0758383208526S11655649EA0083900946000000000000
B0758423208550S11655714EA0083900942000000000000
B0758463208577S11655778EA0083100933000000000000
B0758503208610S11655843EA0082300928000000000000
B0758543208646S11655903EA0082300928000000000000
B0758583208684S11655960EA0082300929000000000000
B0759023208724S11656016EA0082600932000000000000
B0759063208771S11656054EA0083100940000000000000
B0759103208819S11656038EA0084300951000000000000
B0759143208821S11655981EA0085300954000000000000
B0759183208772S11655943EA0085200955000000000000
B0759223208714S11655957EA0085600958000000000000
B0759263208677S11656012EA0085300956000000000000
B0759303208677S11656081EA0085300957000000000000
B0759343208707S11656134EA0085600960000000000000
B0759383208755S11656159EA0085500958000000000000
B0759423208805S11656150EA0085800963000000000000
B0759463208821S11656093EA0086200962000000000000
B0759503208777S11656042EA0086300968000000015000
B0759543208717S11656067EA0087100977000000000000
B0759583208712S11656136EA0087600979000000000000
B0800023208758S11656169EA0087400975000000000000
B0800063208805S11656138EA0087400977000000030000
B0800103208807S11656065EA0087700983000000015000
B0800143208755S11656015EA0088300985000000015000
B0800183208685S11656024EA0088400986000000015000
B0800223208643S11656084EA0088700996000000000000
B0800263208649S11656150EA0089801006000000015000
B0800303208698S11656158EA0089900997000000015000
B0800343208703S11656090EA0089901009000000015000
B0800383208642S11656076EA0091401020000000015000
B0800423208612S11656138EA0091801023000000000000
B0800463208649S11656182EA0092201025000000015000
B0800503208691S11656152EA0092501029000000015000
B0800543208682S11656086EA0093001035000000015000
B0800583208626S11656052EA0094001048000000015000
B0801023208569S11656081EA0094601053000000015000
B0801063208555S11656145EA0095301061000000015000
B0801103208591S11656180EA0095601061000000015000
B0801143208633S11656151EA0095601065000000015000
B0801183208629S11656093EA0096701075000000015000
B0801223208578S11656059EA0097301078000000000000
B0801263208521S11656085EA0097701083000000000000
B0801303208508S11656147EA0098101087000000000000
B0801343208548S11656180EA0098401088000000000000
B0801383208591S11656147EA0098601089000000000000
B0801423208585S11656081EA0099301097000000015000
B0801463208533S11656041EA0099501096000000015000
B0801503208465S11656051EA0099201094000000000000
B0801543208417S11656108EA0098901092000000000000
B0801583208402S11656185EA0098701092000000000000
B0802023208430S11656247EA0099501100000000015000
B0802063208480S11656230EA0100101104000000015000
B0802103208464S11656165EA0100101103000000030000
B0802143208400S11656162EA0100801111000000030000
B0802183208368S11656220EA0101801120000000045000
B0802223208395S11656271EA0102101121000000030000
B0802263208438S11656241EA0102201126000000045000
B0802303208416S11656181EA0102701130000000030000
B0802343208353S11656185EA0102901133000000030000
B0802383208330S11656249EA0103401139000000015000
B0802423208365S11656289EA0103801143000000015000
B0802463208404S11656258EA0104101146000000015000
B0802503208387S11656191EA0104301145000000015000
B0802543208322S11656181EA0104501155000000015000
B0802583208286S11656237EA0105301162000000000000
B0803023208311S11656290EA0105901168000000000000
B0803063208356S11656284EA0106401173000000000000
B0803103208370S11656224EA0106801174000000000000
B0803143208329S11656173EA0107101180000000015000
B0803183208269S11656191EA0107701183000000000000
B0803223208252S11656256EA0107901188000000000000
B0803263208290S11656289EA0108401192000000000000
B0803303208322S11656245EA0108401188000000015000
B0803343208292S11656182EA0108401196000000015000
B0803383208231S11656172EA0109201201000000000000
B0803423208186S11656221EA0109301202000000000000
B0803463208184S11656293EA0109401202000000000000
B0803503208226S11656333EA0109501202000000000000
B0803543208274S11656302EA0109501202000000000000
B0803583208272S11656232EA0110001211000000015000
B0804023208223S11656186EA0110701214000000015000
B0804063208158S11656197EA0110701214000000000000
B0804103208123S11656262EA0110901219000000000000
B0804143208138S11656329EA0111201221000000000000
B0804183208186S11656358EA0111601225000000000000
B0804223208229S11656331EA0112101231000000000000
B0804263208234S11656269EA0112301234000000015000
B0804303208190S11656217EA0112701234000000015000
B0804343208122S11656212EA0112701233000000000000
B0804383208071S11656263EA0112601237000000000000
B0804423208066S11656337EA0113301245000000000000
B0804463208099S11656386EA0113901246000000000000
B0804503208148S11656384EA0113801247000000000000
B0804543208181S11656329EA0113801247000000000000
B0804583208169S11656262EA0114401255000000015000
B0805023208118S11656215EA0114901259000000000000
B0805063208053S11656220EA0115201262000000000000
B0805103208014S11656280EA0114901258000000000000
B0805143208018S11656357EA0114901260000000000000
B0805183208054S11656415EA0115101256000000000000
B0805223208114S11656415EA0114801253000000000000
B0805263208145S11656353EA0114601254000000015000
B0805303208118S11656280EA0115401267000000015000
B0805343208057S11656249EA0116501275000000015000
B0805383207993S11656271EA0117001278000000015000
B0805423207956S11656332EA0117101279000000000000
B0805463207962S11656402EA0117501285000000015000
B0805503208008S11656429EA0117701288000000015000
B0805543208044S11656394EA0118101293000000015000
B0805583208030S11656334EA0118801297000000015000
B0806023207975S11656306EA0119001301000000015000
B0806063207919S11656329EA0119401307000000000000
B0806103207895S11656389EA0119601306000000000000
B0806143207904S11656450EA0119801313000000000000
B0806183207928S11656494EA0120901319000000000000
B0806223207963S11656515EA0120801314000000000000
B0806263208005S11656498EA0120001304000000000000
B0806303208038S11656454EA0119901313000000000000
B0806343208034S11656394EA0121001319000000000000
B0806383207992S11656347EA0121101318000000000000
B0806423207928S11656341EA0121001319000000000000
B0806463207872S11656376EA0121401324000000000000
B0806503207848S11656437EA0121801328000000000000
B0806543207859S11656493EA0122101330000000000000
B0806583207900S11656511EA0121901326000000000000
B0807023207940S11656485EA0121901328000000000000
B0807063207950S11656429EA0122601335000000015000
B0807103207919S11656375EA0122701334000000015000
B0807143207861S11656355EA0122701340000000000000
B0807183207806S11656383EA0123101342000000000000
B0807223207775S11656441EA0123201345000000000000
B0807263207776S11656501EA0123701348000000000000
B0807303207810S11656539EA0123701344000000000000
B0807343207854S11656533EA0123301343000000000000
B0807383207875S11656483EA0123501346000000000000
B0807423207839S11656429EA0123701347000000015000
B0807463207775S11656436EA0123601345000000000000
B0807503207736S11656493EA0123601348000000000000
B0807543207746S11656557EA0123701346000000000000
B0807583207789S11656581EA0123501344000000000000
B0808023207837S11656578EA0123601345000000000000
B0808063207872S11656537EA0123801347000000000000
B0808103207867S11656470EA0123601344000000000000
B0808143207813S11656422EA0123801349000000000000
B0808183207748S11656444EA0124101349000000000000
B0808223207724S11656514EA0124001352000000000000
B0808263207750S11656574EA0123701348000000000000
B0808303207802S11656585EA0123501347000000000000
B0808343207841S11656541EA0123501350000000000000
B0808383207843S11656468EA0124001354000000015000
B0808423207802S11656407EA0124501356000000015000
B0808463207737S11656385EA0124601356000000000000
B0808503207674S11656415EA0124701360000000000000
B0808543207636S11656477EA0124801357000000000000
B0808583207637S11656549EA0124601357000000000000
B0809023207670S11656605EA0124301352000000000000
B0809063207722S11656628EA0124201355000000000000
B0809103207774S11656624EA0124801363000000000000
B0809143207802S11656580EA0125301364000000000000
B0809183207784S11656515EA0124601354000000000000
B0809223207723S11656476EA0124101354000000000000
B0809263207653S11656480EA0124201356000000000000
B0809303207610S11656540EA0124401357000000000000
B0809343207625S11656609EA0124301354000000000000
B0809383207676S11656630EA0124401358000000000000
B0809423207711S11656581EA0124501355000000015000
B0809463207688S11656509EA0124001352000000015000
B0809503207625S11656468EA0124301360000000015000
B0809543207559S11656474EA0125301369000000000000
B0809583207503S11656516EA0125401366000000000000
B0810023207468S11656583EA0125301363000000000000
B0810063207464S11656656EA0125101362000000000000
B0810103207482S11656721EA0125101362000000000000
B0810143207519S11656767EA0125101361000000000000
B0810183207571S11656789EA0124701356000000000000
B0810223207625S11656800EA0124601354000000000000
B0810263207683S11656802EA0123701345000000000000
B0810303207739S11656791EA0123101341000000000000
B0810343207794S11656780EA0122501336000000000000
B0810383207852S11656782EA0122301332000000000000
B0810423207908S11656786EA0122101329000000000000
B0810463207963S11656786EA0121801325000000000000
B0810503208019S11656782EA0121401322000000000000
B0810543208073S11656796EA0121501325000000000000
B0810583208112S11656836EA0122101330000000000000
B0811023208135S11656895EA0122001327000000000000
B0811063208149S11656965EA0122001326000000000000
B0811103208153S11657039EA0121901324000000000000
B0811143208161S11657111EA0121801322000000000000
B0811183208187S11657177EA0121201315000000000000
B0811223208222S11657237EA0121101319000000000000
B0811263208246S11657299EA0121501323000000000000
B0811303208248S11657373EA0121201314000000000000
B0811343208226S11657454EA0120501306000000000000
B0811383208204S11657537EA0119601298000000000000
B0811423208194S11657620EA0119101297000000000000
B0811463208188S11657701EA0118901293000000000000
B0811503208187S11657779EA0118301287000000000000
B0811543208184S11657858EA0117601280000000000000
B0811583208174S11657939EA0117301279000000000000
B0812023208165S11658015EA0117601283000000000000
B0812063208143S11658086EA0117901287000000000000
B0812103208103S11658141EA0118101282000000000000
B0812143208078S11658212EA0116701268000000000000
B0812183208031S11658273EA0116201270000000000000
B0812223207958S11658277EA0116001258000000000000
B0812263207911S11658210EA0114401241000000000000
B0812303207908S11658125EA0113001229000000000000
B0812343207913S11658039EA0112001222000000000000
B0812383207924S11657956EA0111701220000000000000
B0812423207940S11657878EA0111301218000000000000
B0812463207963S11657807EA0110701211000000000000
B0812503207996S11657742EA0109901202000000000000
B0812543208031S11657681EA0109101196000000000000
B0812583208061S11657619EA0108901195000000000000
B0813023208079S11657551EA0108401189000000000000
B0813063208084S11657476EA0107401173000000000000
B0813103208084S11657391EA0105901160000000000000
B0813143208090S11657309EA0105401158000000000000
B0813183208100S11657234EA0105301159000000000000
B0813223208114S11657165EA0105101157000000000000
B0813263208127S11657096EA0104701151000000000000
B0813303208143S11657027EA0104601153000000000000
B0813343208162S11656958EA0104701155000000000000
B0813383208199S11656904EA0105301162000000000000
B0813423208239S11656860EA0106001169000000000000
B0813463208247S11656796EA0106701175000000000000
B0813503208203S11656749EA0107101177000000000000
B0813543208139S11656761EA0107301179000000000000
B0813583208103S11656815EA0107701184000000000000
B0814023208116S11656874EA0107901187000000000000
B0814063208164S11656892EA0108101188000000000000
B0814103208203S11656851EA0108301189000000015000
B0814143208196S11656776EA0108501191000000015000
B0814183208139S11656734EA0108801195000000015000
B0814223208077S11656758EA0109001192000000015000
B0814263208058S11656830EA0108601193000000015000
B0814303208087S11656891EA0109301198000000015000
B0814343208139S11656905EA0109601200000000015000
B0814383208184S11656866EA0109701201000000015000
B0814423208199S11656797EA0110001204000000015000
B0814463208173S11656726EA0110401209000000015000
B0814503208114S11656685EA0110801214000000015000
B0814543208052S11656705EA0111201216000000015000
B0814583208027S11656766EA0111201219000000015000
B0815023208058S11656813EA0111901226000000015000
B0815063208112S11656800EA0112101225000000015000
B0815103208131S11656730EA0112001225000000015000
B0815143208093S11656659EA0112301232000000015000
B0815183208026S11656665EA0112601233000000015000
B0815223208002S11656730EA0112701236000000015000
B0815263208040S11656769EA0113101240000000015000
B0815303208088S11656741EA0113201240000000015000
B0815343208127S11656689EA0113501246000000015000
B0815383208130S11656622EA0114201250000000015000
B0815423208086S11656566EA0114001245000000015000
B0815463208018S11656561EA0113701243000000015000
B0815503207966S11656605EA0113601243000000015000
B0815543207948S11656669EA0113701244000000015000
B0815583207979S11656718EA0113501242000000000000
B0816023208030S11656739EA0113601246000000015000
B0816063208075S11656705EA0114001247000000015000
B0816103208075S11656632EA0114001244000000015000
B0816143208014S11656581EA0113201230000000015000
B0816183207934S11656594EA0112301231000000015000
B0816223207887S11656662EA0112601234000000015000
B0816263207892S11656739EA0112901240000000015000
B0816303207937S11656780EA0113801250000000015000
B0816343207987S11656765EA0115001261000000015000
B0816383208006S11656706EA0115901265000000015000
B0816423207971S11656646EA0115901260000000015000
B0816463207905S11656633EA0115301259000000015000
B0816503207850S11656675EA0115301260000000015000
B0816543207837S11656740EA0115501264000000015000
B0816583207863S11656788EA0116201274000000015000
B0817023207905S11656800EA0116801277000000015000
B0817063207944S11656766EA0116801276000000015000
B0817103207956S11656702EA0116901277000000015000
B0817143207931S11656639EA0117401283000000015000
B0817183207878S11656598EA0117501281000000015000
B0817223207813S11656591EA0117301281000000015000
B0817263207754S11656614EA0117701285000000000000
B0817303207716S11656663EA0117801285000000000000
B0817343207701S11656721EA0117801286000000000000
B0817383207710S11656775EA0117801285000000000000
B0817423207739S11656814EA0117901287000000000000
B0817463207779S11656826EA0118201290000000000000
B0817503207815S11656801EA0118301291000000000000
B0817543207831S11656739EA0118201288000000000000
B0817583207806S11656670EA0117901290000000000000
B0818023207767S11656607EA0117901286000000000000
B0818063207745S11656536EA0117801288000000000000
B0818103207761S11656476EA0118301292000000000000
B0818143207798S11656440EA0118001288000000000000
B0818183207846S11656436EA0117001275000000000000
B0818223207889S11656467EA0116001266000000000000
B0818263207909S11656526EA0115301264000000000000
B0818303207893S11656591EA0115501265000000000000
B0818343207846S11656643EA0115301256000000000000
B0818383207791S11656688EA0114501252000000000000
B0818423207729S11656726EA0114501252000000000000
B0818463207662S11656757EA0114701251000000000000
B0818503207610S11656809EA0114601253000000000000
B0818543207588S11656882EA0114501251000000000000
B0818583207596S11656948EA0115201259000000000000
B0819023207628S11656992EA0115401258000000000000
B0819063207677S11657009EA0115501261000000000000
B0819103207726S11656990EA0115801264000000000000
B0819143207755S11656934EA0115701263000000000000
B0819183207755S11656866EA0116001265000000000000
B0819223207714S11656810EA0115201253000000000000
B0819263207648S11656789EA0114801255000000000000
B0819303207592S11656818EA0115201260000000000000
B0819343207575S11656883EA0115001254000000000000
B0819383207607S11656939EA0114601254000000000000
B0819423207662S11656940EA0114901255000000015000
B0819463207698S11656883EA0114501249000000015000
B0819503207690S11656805EA0113901245000000015000
B0819543207642S11656739EA0113301230000000015000
B0819583207564S11656708EA0112201225000000015000
B0820023207488S11656727EA0112301228000000015000
B0820063207442S11656796EA0112001224000000015000
B0820103207447S11656877EA0111801221000000015000
B0820143207495S11656923EA0111401220000000015000
B0820183207558S11656917EA0111401222000000015000
B0820223207598S11656857EA0111901227000000015000
B0820263207597S11656778EA0112101225000000015000
B0820303207559S11656705EA0111301218000000015000
B0820343207503S11656643EA0110801209000000015000
B0820383207438S11656594EA0110601210000000015000
B0820423207365S11656588EA0110701213000000000000
B0820463207306S11656620EA0111201219000000000000
B0820503207267S11656675EA0111401219000000000000
B0820543207264S11656736EA0111201216000000000000
B0820583207299S11656780EA0110701212000000000000
B0821023207351S11656796EA0110501209000000000000
B0821063207399S11656770EA0110501209000000000000
B0821103207427S11656705EA0110201202000000000000
B0821143207425S11656623EA0109301194000000000000
B0821183207375S11656558EA0108701187000000000000
B0821223207300S11656572EA0108101177000000000000
B0821263207278S11656653EA0106901167000000000000
B0821303207329S11656705EA0106301168000000015000
B0821343207397S11656700EA0106301167000000015000
B0821383207459S11656672EA0106201168000000000000
B0821423207514S11656635EA0106101164000000000000
B0821463207567S11656597EA0105801160000000000000
B0821503207622S11656563EA0105201156000000000000
B0821543207679S11656527EA0104801152000000000000
B0821583207736S11656493EA0104101143000000000000
B0822023207794S11656463EA0103201134000000000000
B0822063207857S11656436EA0102401127000000000000
B0822103207918S11656409EA0101601119000000000000
B0822143207979S11656379EA0101001113000000000000
B0822183208040S11656351EA0100701111000000000000
B0822223208099S11656324EA0100401108000000000000
B0822263208152S11656293EA0099901102000000000000
B0822303208201S11656253EA0099301098000000000000
B0822343208247S11656210EA0098801094000000000000
B0822383208295S11656175EA0098401088000000000000
B0822423208350S11656150EA0097801082000000000000
B0822463208405S11656136EA0097601079000000000000
B0822503208464S11656119EA0097001073000000000000
B0822543208520S11656093EA0096701072000000000000
B0822583208564S11656046EA0096501071000000000000
B0823023208587S11655978EA0096501071000000000000
B0823063208582S11655902EA0096701074000000000000
B0823103208547S11655835EA0097101077000000000000
B0823143208486S11655804EA0097501078000000000000
B0823183208420S11655826EA0097101075000000000000
B0823223208389S11655887EA0097201078000000000000
B0823263208402S11655947EA0097001069000000000000
B0823303208446S11655982EA0096101061000000000000
B0823343208498S11656000EA0095501057000000000000
B0823383208554S11656004EA0095501059000000000000
B0823423208595S11655965EA0096001064000000000000
B0823463208591S11655896EA0096001062000000000000
B0823503208539S11655850EA0095701061000000015000
B0823543208472S11655859EA0095501057000000000000
B0823583208424S11655912EA0095501062000000000000
B0824023208417S11655974EA0096001066000000000000
B0824063208448S11656019EA0095801060000000000000
B0824103208499S11656028EA0095401058000000000000
B0824143208542S11655990EA0095301057000000015000
B0824183208550S11655922EA0095401059000000015000
B0824223208509S11655865EA0095601061000000015000
B0824263208443S11655869EA0095501058000000015000
B0824303208403S11655928EA0095101056000000015000
B0824343208412S11655995EA0095101055000000015000
B0824383208457S11656026EA0094901054000000015000
B0824423208500S11655994EA0094901056000000015000
B0824463208489S11655928EA0095201059000000015000
B0824503208429S11655907EA0095701063000000015000
B0824543208378S11655947EA0095601062000000015000
B0824583208372S11656015EA0095301059000000015000
B0825023208408S11656055EA0095201061000000015000
B0825063208455S11656038EA0095101056000000015000
B0825103208467S11655974EA0095101060000000015000
B0825143208429S11655916EA0095601064000000015000
B0825183208366S11655912EA0095901068000000015000
B0825223208321S11655959EA0096101067000000015000
B0825263208316S11656022EA0095901067000000015000
B0825303208344S11656068EA0095901069000000015000
B0825343208389S11656081EA0095901069000000015000
B0825383208426S11656051EA0095901067000000015000
B0825423208431S11655991EA0095701062000000015000
B0825463208395S11655930EA0095301059000000015000
B0825503208335S11655912EA0095701068000000015000
B0825543208290S11655955EA0096201067000000015000
B0825583208281S11656022EA0095601057000000015000
B0826023208301S11656091EA0094301043000000015000
B0826063208337S11656156EA0093601039000000000000
B0826103208376S11656220EA0093301035000000000000
B0826143208417S11656285EA0093001031000000000000
B0826183208473S11656328EA0093101034000000000000
B0826223208535S11656320EA0093301034000000000000
B0826263208578S11656267EA0093401038000000000000
B0826303208587S11656191EA0093501036000000015000
B0826343208561S11656115EA0093201030000000015000
B0826383208504S11656056EA0092601026000000015000
B0826423208428S11656038EA0092101022000000015000
B0826463208350S11656046EA0091701020000000000000
B0826503208275S11656077EA0091401016000000000000
B0826543208203S11656115EA0091101014000000000000
B0826583208131S11656159EA0091001013000000000000
B0827023208066S11656210EA0091501019000000000000
B0827063208040S11656279EA0092301029000000000000
B0827103208062S11656338EA0092201022000000000000
B0827143208104S11656381EA0091501013000000000000
B0827183208158S11656390EA0091001011000000000000
B0827223208197S11656351EA0091201014000000000000
B0827263208192S11656286EA0091101010000000015000
B0827303208138S11656249EA0091001012000000015000
B0827343208066S11656247EA0090601008000000000000
B0827383207996S11656255EA0090601010000000000000
B0827423207928S11656272EA0090201005000000000000
B0827463207858S11656292EA0089300992000000000000
B0827503207783S11656289EA0088000981000000000000
B0827543207713S11656255EA0087300975000000000000
B0827583207657S11656194EA0086700969000000000000
B0828023207620S11656116EA0086100961000000000000
B0828063207599S11656034EA0085700959000000000000
B0828103207588S11655954EA0085200954000000000000
B0828143207583S11655874EA0084800950000000000000
B0828183207579S11655795EA0084800952000000000000
B0828223207570S11655717EA0085300960000000000000
B0828263207525S11655666EA0086700978000000000000
B0828303207469S11655682EA0088000982000000000000
B0828343207450S11655744EA0087800980000000000000
B0828383207485S11655786EA0088100985000000000000
B0828423207532S11655760EA0088300986000000015000
B0828463207527S11655692EA0088500986000000015000
B0828503207466S11655662EA0088800991000000015000
B0828543207424S11655717EA0089400998000000015000
B0828583207443S11655779EA0089601000000000015000
B0829023207497S11655779EA0089901004000000015000
B0829063207502S11655710EA0090001001000000015000
B0829103207440S11655665EA0089700998000000015000
B0829143207372S11655699EA0090301012000000015000
B0829183207356S11655766EA0092001027000000015000
B0829223207394S11655804EA0092501028000000015000
B0829263207440S11655770EA0092601028000000015000
B0829303207417S11655708EA0092901033000000015000
B0829343207351S11655705EA0093601043000000015000
B0829383207316S11655764EA0094301047000000015000
B0829423207341S11655824EA0094101045000000015000
B0829463207397S11655840EA0093901044000000015000
B0829503207440S11655795EA0094101048000000015000
B0829543207428S11655721EA0094301044000000015000
B0829583207365S11655677EA0093701034000000015000
B0830023207284S11655662EA0093001032000000015000
B0830063207216S11655697EA0094001050000000015000
B0830103207225S11655762EA0095301058000000015000
B0830143207278S11655774EA0095201056000000015000
B0830183207311S11655720EA0095301057000000015000
B0830223207287S11655647EA0095601062000000015000
B0830263207217S11655644EA0096301068000000015000
B0830303207185S11655709EA0096901078000000015000
B0830343207209S11655769EA0097401077000000015000
B0830383207263S11655773EA0097601083000000015000
B0830423207286S11655717EA0098201088000000015000
B0830463207241S11655665EA0098701092000000015000
B0830503207176S11655687EA0099101098000000015000
B0830543207168S11655755EA0099901106000000015000
B0830583207212S11655777EA0100101110000000015000
B0831023207243S11655729EA0100401112000000015000
B0831063207207S11655670EA0100901115000000015000
B0831103207138S11655682EA0101201121000000015000
B0831143207121S11655749EA0102001129000000015000
B0831183207160S11655788EA0102301128000000015000
B0831223207204S11655761EA0102601135000000015000
B0831263207198S11655697EA0103301138000000015000
B0831303207142S11655657EA0103501142000000015000
B0831343207078S11655674EA0104001151000000015000
B0831383207047S11655735EA0104701151000000015000
B0831423207064S11655800EA0104401148000000015000
B0831463207113S11655820EA0104501151000000015000
B0831503207159S11655786EA0104601152000000015000
B0831543207163S11655718EA0105001152000000015000
B0831583207117S11655662EA0104901152000000015000
B0832023207050S11655671EA0105401161000000015000
B0832063207017S11655731EA0106101168000000015000
B0832103207037S11655787EA0106201164000000015000
B0832143207081S11655821EA0105801164000000015000
B0832183207134S11655817EA0106001164000000015000
B0832223207181S11655781EA0105101148000000015000
B0832263207233S11655739EA0103201132000000015000
B0832303207294S11655708EA0102201122000000015000
B0832343207358S11655684EA0101301115000000015000
B0832383207421S11655664EA0101001116000000015000
B0832423207482S11655642EA0100901113000000015000
B0832463207545S11655625EA0100701109000000015000
B0832503207607S11655614EA0100601111000000015000
B0832543207668S11655597EA0100301105000000015000
B0832583207727S11655573EA0099701100000000000000
B0833023207787S11655548EA0099001093000000000000
B0833063207848S11655535EA0098701090000000000000
B0833103207909S11655536EA0097901080000000000000
B0833143207973S11655560EA0097101070000000000000
B0833183208035S11655593EA0096501066000000000000
B0833223208096S11655617EA0096201061000000000000
B0833263208160S11655614EA0095301054000000000000
B0833303208226S11655612EA0094101040000000000000
B0833343208295S11655629EA0093301033000000000000
B0833383208357S11655658EA0092901031000000000000
B0833423208416S11655692EA0092701030000000000000
B0833463208470S11655730EA0092401024000000000000
B0833503208524S11655772EA0091701015000000000000
B0833543208577S11655816EA0090801008000000000000
B0833583208629S11655863EA0090000999000000000000
B0834023208686S11655899EA0089500996000000000000
B0834063208746S11655909EA0089300994000000000000
B0834103208807S11655909EA0088600987000000000000
B0834143208870S11655903EA0088200984000000000000
B0834183208931S11655891EA0087800979000000000000
B0834223208993S11655883EA0087100970000000000000
B0834263209055S11655882EA0086300965000000000000
B0834303209117S11655900EA0086100963000000000000
B0834343209170S11655931EA0085900962000000000000
B0834383209217S11655976EA0085400955000000000000
B0834423209257S11656034EA0084800951000000000000
B0834463209289S11656102EA0084600948000000000000
B0834503209310S11656175EA0084600951000000000000
B0834543209318S11656247EA0085000956000000000000
B0834583209323S11656319EA0085300955000000000000
B0835023209334S11656393EA0085300954000000000000
B0835063209362S11656457EA0085200953000000000000
B0835103209409S11656497EA0084800948000000000000
B0835143209464S11656493EA0084600949000000000000
B0835183209513S11656466EA0084200943000000000000
B0835223209561S11656432EA0083400935000000000000
B0835263209614S11656407EA0082800928000000000000
B0835303209672S11656406EA0082400924000000000000
B0835343209726S11656431EA0082000920000000000000
B0835383209774S11656471EA0081600918000000000000
B0835423209816S11656522EA0081600919000000000000
B0835463209851S11656579EA0081600916000000000000
B0835503209889S11656632EA0081300914000000000000
B0835543209926S11656683EA0081000911000000000000
B0835583209965S11656732EA0080700907000000000000
B0836023210007S11656784EA0080200903000000000000
B0836063210047S11656836EA0079900898000000000000
B0836103210090S11656884EA0079100891000000000000
B0836143210140S11656926EA0078800888000000000000
B0836183210194S11656949EA0078500887000000000000
B0836223210251S11656956EA0077900879000000000000
B0836263210310S11656956EA0076800867000000000000
B0836303210371S11656960EA0075800856000000000000
B0836343210431S11656981EA0074800850000000000000
B0836383210482S11657017EA0074700851000000000000
B0836423210518S11657070EA0074600849000000000000
B0836463210536S11657138EA0074100842000000000000
B0836503210531S11657216EA0073200830000000000000
B0836543210502S11657296EA0072000819000000000000
B0836583210462S11657373EA0070900810000000000000
B0837023210418S11657446EA0070300805000000000000
B0837063210372S11657516EA0070100801000000000000
B0837103210322S11657581EA0069800798000000000000
B0837143210267S11657641EA0069300793000000000000
B0837183210209S11657696EA0068800788000000000000
B0837223210149S11657748EA0068400783000000000000
B0837263210089S11657798EA0068000780000000000000
B0837303210027S11657844EA0067600778000000000000
B0837343209964S11657888EA0067300774000000000000
B0837383209906S11657937EA0067300775000000000000
B0837423209865S11657998EA0067200773000000000000
B0837463209845S11658069EA0066800769000000000000
B0837503209829S11658139EA0066900771000000000000
B0837543209832S11658205EA0067000772000000000000
B0837583209864S11658253EA0066600767000000000000
B0838023209908S11658291EA0066100761000000000000
B0838063209945S11658347EA0065400753000000000000
B0838103209954S11658425EA0065100751000000000000
B0838143209942S11658505EA0065200756000000000000
B0838183209934S11658581EA0065800759000000000000
B0838223209968S11658630EA0065700759000000000000
B0838263210015S11658624EA0065800759000000000000
B0838303210042S11658574EA0065100747000000000000
B0838343210032S11658504EA0063700734000000000000
B0838383209982S11658450EA0062600728000000000000
B0838423209920S11658412EA0062300725000000000000
B0838463209851S11658395EA0062300724000000000000
B0838503209778S11658396EA0062100723000000000000
B0838543209705S11658414EA0062200725000000000000
B0838583209651S11658464EA0062200725000000000000
B0839023209625S11658531EA0062000723000000000000
B0839063209630S11658602EA0061800721000000000000
B0839103209653S11658665EA0062000721000000000000
B0839143209703S11658684EA0061400716000000000000
B0839183209744S11658648EA0060800710000000000000
B0839223209752S11658581EA0060300702000000000000
B0839263209720S11658511EA0059500694000000000000
B0839303209660S11658463EA0058800689000000000000
B0839343209583S11658453EA0058300682000000000000
B0839383209507S11658472EA0057700680000000000000
B0839423209435S11658504EA0057900684000000000000
B0839463209371S11658548EA0058500688000000000000
B0839503209349S11658613EA0059500698000000000000
B0839543209386S11658650EA0059400694000000000000
B0839583209425S11658613EA0059000692000000015000
B0840023209414S11658547EA0059500699000000015000
B0840063209357S11658517EA0060000702000000015000
B0840103209301S11658552EA0059900701000000015000
B0840143209292S11658613EA0060300707000000015000
B0840183209326S11658642EA0060200703000000015000
B0840223209370S11658615EA0059800698000000015000
B0840263209380S11658550EA0060200704000000015000
B0840303209343S11658494EA0060500705000000015000
B0840343209275S11658491EA0060100702000000015000
B0840383209241S11658544EA0060600710000000015000
B0840423209263S11658596EA0060600704000000015000
B0840463209310S11658578EA0060200702000000015000
B0840503209306S11658505EA0060200706000000015000
B0840543209248S11658476EA0060800712000000015000
B0840583209191S11658513EA0060800710000000015000
B0841023209183S11658578EA0060900713000000015000
B0841063209218S11658619EA0061100716000000015000
B0841103209263S11658612EA0061600719000000015000
B0841143209269S11658547EA0061200712000000015000
B0841183209210S11658508EA0061100718000000015000
B0841223209150S11658538EA0061400718000000015000
B0841263209136S11658602EA0061500721000000015000
B0841303209169S11658643EA0062000725000000015000
B0841343209214S11658638EA0062200729000000015000
B0841383209236S11658589EA0062700733000000015000
B0841423209202S11658534EA0062900731000000015000
B0841463209137S11658525EA0062800734000000015000
B0841503209097S11658576EA0063200737000000015000
B0841543209115S11658629EA0063400737000000015000
B0841583209163S11658624EA0063500738000000015000
B0842023209176S11658564EA0064000744000000015000
B0842063209133S11658511EA0064100743000000015000
B0842103209067S11658513EA0064200742000000015000
B0842143209035S11658574EA0064000743000000015000
B0842183209065S11658625EA0064200744000000015000
B0842223209113S11658604EA0064200746000000015000
B0842263209113S11658537EA0064800752000000015000
B0842303209057S11658498EA0065200757000000015000
B0842343208998S11658522EA0065700760000000015000
B0842383208983S11658585EA0066000765000000015000
B0842423209014S11658621EA0066500769000000015000
B0842463209054S11658599EA0066600770000000015000
B0842503209053S11658539EA0066900772000000015000
B0842543209001S11658498EA0066700771000000015000
B0842583208937S11658513EA0066900774000000015000
B0843023208907S11658573EA0066900775000000015000
B0843063208932S11658626EA0066900777000000015000
B0843103208979S11658626EA0067100780000000015000
B0843143208989S11658569EA0067600782000000015000
B0843183208938S11658522EA0067300779000000015000
B0843223208877S11658542EA0067700787000000015000
B0843263208858S11658600EA0068300790000000015000
B0843303208888S11658645EA0068200787000000015000
B0843343208932S11658638EA0068200792000000015000
B0843383208951S11658587EA0068700793000000015000
