ACAM4N6
HFDTE171222
HFFXA050
HFPLTPILOT:JOHN WELSH              
HFGTYGLIDERTYPE:HORNET      
HFGIDGLIDERID:VH-GMY      
HFDTM100GPSDATUM:
HFRFWFIRMWAREVERSION:F2.6
HFRHWHARDWAREVERSION:300 Series Version 2
HFFTYFRTYPE:CAMBRIDGE AERO INSTRUMENTS, 302+
HFGPS:GARMIN,LVS-25,12,18000
HFPRSPRESSALTSENSOR:INTERSEMA, MS5534-AP, 20000
I033638FXA3941ENL4247REX
LCAMSBVER:5FWVER:F26300
C171222031956171222000103
C0000000N00000000WTAKEOFF     
C3207549S11656849EBeverley Air
C3053283S11642765EWongan Hills
C3110883S11723215EWyalkatchem 
C3256166S11710665ENarrogin Sil
C3207549S11656849EBeverley Air
C0000000N00000000WLANDING     
B0324013207336S11656864EA0021100202000000000000
B0324033207336S11656864EA0021100202000000000000
B0324053207336S11656862EA0021000202000000000000
B0324073207336S11656862EA0021100202000000000000
B0324093207336S11656862EA0021100202000000000000
B0324113207336S11656862EA0021100202000000000000
B0324133207336S11656862EA0021100202000000000000
B0324153207336S11656864EA0021100202000000000000
B0324173207336S11656864EA0021200202000000000000
B0324193207336S11656862EA0021100202000000000000
B0324213207336S11656862EA0021100202000000000000
B0324233207336S11656862EA0021100202000000000000
B0324253207336S11656862EA0021100201000000000000
B0324273207336S11656862EA0021200201000000000000
B0324293207337S11656864EA0021200201000000000000
B0324323207345S11656869EA0021200201000000000000
B0324363207368S11656886EA0021200201000000000000
B0324403207407S11656909EA0021300201000000000000
B0324443207456S11656939EA0021500202000000000000
B0324483207516S11656977EA0021700207000000000000
B0324523207576S11657021EA0023000221000000000000
B0324563207637S11657066EA0024600234000000000000
B0325003207698S11657105EA0025500248000000000000
B0325043207761S11657142EA0026700269000000000000
B0325083207823S11657178EA0028300284000000000000
B0325123207887S11657220EA0029800293000000000000
B0325163207950S11657261EA0030900314000000000000
B0325203208015S11657296EA0032900336000000000000
B0325243208078S11657332EA0035400363000000000000
B0325283208138S11657369EA0038100390000000000000
B0325323208195S11657408EA0040300411000000000000
B0325363208249S11657451EA0041700424000000000000
B0325403208294S11657507EA0042700432000000000000
B0325443208314S11657577EA0043700444000000000000
B0325483208314S11657650EA0045500459000000000000
B0325523208305S11657724EA0046700471000000000000
B0325563208285S11657800EA0047900482000000000000
B0326003208266S11657876EA0048800492000000000000
B0326043208249S11657950EA0050400509000000000000
B0326083208233S11658022EA0051700522000000000000
B0326123208218S11658093EA0052800532000000000000
B0326163208213S11658166EA0053700545000000000000
B0326203208210S11658239EA0055500567000000000000
B0326243208199S11658313EA0056800571000000000000
B0326283208170S11658382EA0057500583000000000000
B0326323208117S11658431EA0059300603000000000000
B0326363208043S11658453EA0060500610000000000000
B0326403207960S11658440EA0061800630000000000000
B0326443207883S11658392EA0063900650000000000000
B0326483207822S11658314EA0065800667000000000000
B0326523207779S11658219EA0067400683000000000000
B0326563207762S11658113EA0068300690000000000000
B0327003207778S11658011EA0069300703000000000000
B0327043207826S11657932EA0070600714000000000000
B0327083207892S11657885EA0072000732000000000000
B0327123207965S11657875EA0073100740000000000000
B0327163208026S11657893EA0074400759000000000000
B0327203208071S11657935EA0075900774000000000000
B0327243208101S11657987EA0076900770000000000000
B0327283208155S11658004EA0075700756000000000000
B0327323208204S11657954EA0074300740000000000000
B0327363208208S11657865EA0072500724000000000000
B0327403208162S11657784EA0071400712000000000000
B0327443208095S11657742EA0070100702000000000000
B0327483208032S11657761EA0069500697000000000000
B0327523208006S11657816EA0068800686000000000000
B0327563208027S11657871EA0067800677000000000000
B0328003208078S11657901EA0066600660000000000000
B0328043208138S11657919EA0064700642000000000000
B0328083208200S11657935EA0063100629000000000000
B0328123208265S11657946EA0061700612000000000000
B0328163208335S11657950EA0060200599000000000000
B0328203208407S11657948EA0059100589000000000000
B0328243208478S11657943EA0058400583000000000000
B0328283208546S11657940EA0057900577000000000000
B0328323208613S11657935EA0057100570000000000000
B0328363208680S11657930EA0056300561000000000000
B0328403208746S11657924EA0055600554000000000000
B0328443208812S11657914EA0054700546000000000000
B0328483208881S11657900EA0054400544000000000000
B0328523208949S11657887EA0055300558000000000000
B0328563209001S11657919EA0056300572000000000000
B0329003208989S11657974EA0057800583000000000000
B0329043208932S11657974EA0058600593000000000000
B0329083208890S11657910EA0059300598000000000000
B0329123208903S11657827EA0060000609000000000000
B0329163208958S11657796EA0061600627000000000000
B0329203208987S11657837EA0063300640000000000000
B0329243208962S11657883EA0063800644000000000000
B0329283208907S11657883EA0064400650000000000000
B0329323208863S11657826EA0064900652000000000000
B0329363208860S11657737EA0064900650000000000000
B0329403208915S11657693EA0065500661000000000000
B0329443208938S11657741EA0067000679000000000000
B0329483208890S11657770EA0068900697000000000000
B0329523208842S11657714EA0070200708000000000000
B0329563208853S11657631EA0070500710000000000000
B0330003208909S11657607EA0071300725000000000000
B0330043208928S11657655EA0072900741000000015000
B0330083208881S11657681EA0074600760000000015000
B0330123208832S11657632EA0076200771000000015000
B0330163208838S11657553EA0076700777000000015000
B0330203208889S11657520EA0077900794000000015000
B0330243208920S11657554EA0079500807000000000000
B0330283208894S11657597EA0080700821000000000000
B0330323208840S11657584EA0082200835000000000000
B0330363208811S11657516EA0083000834000000000000
B0330403208831S11657441EA0083400847000000000000
B0330443208880S11657413EA0085100863000000000000
B0330483208914S11657447EA0085500863000000000000
B0330523208893S11657498EA0086200877000000000000
B0330563208837S11657486EA0087800893000000000000
B0331003208806S11657417EA0088600900000000000000
B0331043208828S11657345EA0089500913000000000000
B0331083208879S11657322EA0090500921000000000000
B0331123208907S11657363EA0091400929000000000000
B0331163208877S11657406EA0092600941000000000000
B0331203208823S11657374EA0093500950000000000000
B0331243208818S11657290EA0094300959000000000000
B0331283208868S11657250EA0095500975000000000000
B0331323208902S11657283EA0096900982000000000000
B0331363208868S11657322EA0098101003000000000000
B0331403208815S11657287EA0099801014000000000000
B0331443208808S11657205EA0100701023000000000000
B0331483208855S11657161EA0102101040000000000000
B0331523208893S11657186EA0103001045000000000000
B0331563208880S11657237EA0103701058000000000000
B0332003208825S11657237EA0105701086000000000000
B0332043208785S11657181EA0107701098000000000000
B0332083208788S11657103EA0108401102000000000000
B0332123208827S11657048EA0109201118000000000000
B0332163208872S11657036EA0110601124000000000000
B0332203208912S11657061EA0110701122000000000000
B0332243208931S11657114EA0111101125000000000000
B0332283208912S11657170EA0110501113000000000000
B0332323208854S11657189EA0109001098000000000000
B0332363208789S11657146EA0108301096000000000000
B0332403208733S11657078EA0109101102000000000000
B0332443208663S11657052EA0109901114000000000000
B0332483208624S11657101EA0111501131000000000000
B0332523208662S11657135EA0112801151000000000000
B0332563208704S11657094EA0114401162000000000000
B0333003208689S11657016EA0114501157000000000000
B0333043208625S11656997EA0114801168000000000000
B0333083208589S11657042EA0116201185000000000000
B0333123208602S11657095EA0117201191000000000000
B0333163208649S11657104EA0118101201000000000000
B0333203208677S11657048EA0118501198000000000000
B0333243208649S11656977EA0118101195000000000000
B0333283208586S11656975EA0118201201000000000000
B0333323208555S11657025EA0119201215000000000000
B0333363208565S11657081EA0119501210000000000000
B0333403208613S11657108EA0117901191000000000000
B0333443208675S11657120EA0115301162000000000000
B0333483208740S11657142EA0113201136000000000000
B0333523208807S11657168EA0110801113000000000000
B0333563208876S11657194EA0109301103000000000000
B0334003208944S11657217EA0108101092000000000000
B0334043209013S11657239EA0106901078000000000000
B0334083209081S11657260EA0106201077000000000000
B0334123209145S11657278EA0106201076000000000000
B0334163209205S11657293EA0106001077000000000000
B0334203209261S11657304EA0105901073000000000000
B0334243209315S11657319EA0106001077000000000000
B0334283209367S11657332EA0107201094000000000000
B0334323209414S11657335EA0108501109000000000000
B0334363209465S11657308EA0109301111000000000000
B0334403209486S11657229EA0109901128000000000000
B0334443209436S11657179EA0111601140000000000000
B0334483209387S11657220EA0111501135000000000000
B0334523209401S11657276EA0112001148000000000000
B0334563209451S11657263EA0113501163000000000000
B0335003209460S11657181EA0114601170000000000000
B0335043209404S11657125EA0116001187000000000000
B0335083209345S11657142EA0116701189000000000000
B0335123209325S11657198EA0116501188000000000000
B0335163209344S11657252EA0117101196000000000000
B0335203209397S11657255EA0118001203000000000000
B0335243209438S11657191EA0118801212000000000000
B0335283209414S11657113EA0120001235000000000000
B0335323209356S11657112EA0121801242000000000000
B0335363209356S11657168EA0122101246000000000000
B0335403209406S11657157EA0123201262000000000000
B0335443209419S11657087EA0124401276000000000000
B0335483209374S11657038EA0125801286000000000000
B0335523209318S11657051EA0127001298000000000000
B0335563209308S11657098EA0127801306000000000000
B0336003209345S11657112EA0128401310000000000000
B0336043209380S11657056EA0128601315000000000000
B0336083209352S11656987EA0130101333000000000000
B0336123209295S11656983EA0131201343000000000000
B0336163209276S11657031EA0131701345000000000000
B0336203209309S11657062EA0132101350000000000000
B0336243209360S11657044EA0132001349000000000000
B0336283209414S11657013EA0132401358000000000000
B0336323209458S11656960EA0133901374000000000000
B0336363209447S11656886EA0135701393000000000000
B0336403209393S11656869EA0136501389000000000000
B0336443209354S11656914EA0136001393000000000000
B0336483209341S11656973EA0137401407000000000000
B0336523209356S11657022EA0138201414000000000000
B0336563209404S11657038EA0138401416000000000000
B0337003209460S11657031EA0139401430000000000000
B0337043209510S11656999EA0140201435000000000000
B0337083209525S11656929EA0140901445000000000000
B0337123209483S11656874EA0142101458000000000000
B0337163209432S11656891EA0143301472000000000000
B0337203209434S11656942EA0144901489000000000000
B0337243209478S11656945EA0145901490000000000000
B0337283209510S11656883EA0145701488000000000000
B0337323209482S11656814EA0146201498000000000000
B0337363209423S11656813EA0147601515000000015000
B0337403209405S11656869EA0149101526000000015000
B0337443209444S11656901EA0150401539000000015000
B0337483209492S11656869EA0150701540000000015000
B0337523209507S11656797EA0151101546000000015000
B0337563209462S11656748EA0151601546000000015000
B0338003209400S11656760EA0152101558000000015000
B0338043209373S11656812EA0153801578000000015000
B0338083209401S11656857EA0155301586000000015000
B0338123209460S11656848EA0155401583000000015000
B0338163209497S11656776EA0155101583000000000000
B0338203209478S11656691EA0155101583000000000000
B0338243209418S11656637EA0155601589000000000000
B0338283209347S11656618EA0156101595000000000000
B0338323209269S11656628EA0155601586000000000000
B0338363209182S11656643EA0154501572000000000000
B0338403209087S11656665EA0152801555000000000000
B0338443208989S11656685EA0152101550000000000000
B0338483208892S11656708EA0151801546000000000000
B0338523208794S11656722EA0151201539000000000000
B0338563208697S11656732EA0150201527000000000000
B0339003208599S11656744EA0149101516000000000000
B0339043208503S11656756EA0148401512000000000000
B0339083208409S11656763EA0148201510000000000000
B0339123208317S11656766EA0147801506000000000000
B0339163208226S11656767EA0147201500000000000000
B0339203208136S11656770EA0146401491000000000000
B0339243208049S11656779EA0145701485000000000000
B0339283207963S11656791EA0146001494000000000000
B0339323207882S11656802EA0146901501000000000000
B0339363207802S11656813EA0146801499000000000000
B0339403207722S11656821EA0146801499000000000000
B0339443207642S11656828EA0146401492000000000000
B0339483207559S11656834EA0145501483000000000000
B0339523207473S11656831EA0144101466000000000000
B0339563207385S11656819EA0142501451000000000000
B0340003207293S11656800EA0141001435000000000000
B0340043207196S11656778EA0139801419000000000000
B0340083207098S11656753EA0138101401000000000000
B0340123206995S11656728EA0136501388000000000000
B0340163206894S11656705EA0135801385000000000000
B0340203206793S11656680EA0135301376000000000000
B0340243206693S11656654EA0134701373000000000000
B0340283206597S11656630EA0134901376000000000000
B0340323206505S11656607EA0134401370000000000000
B0340363206414S11656588EA0133901362000000000000
B0340403206323S11656565EA0133401358000000000000
B0340443206234S11656541EA0133001356000000000000
B0340483206147S11656516EA0132901356000000000000
B0340523206062S11656492EA0132701353000000000000
B0340563205976S11656466EA0132801357000000000000
B0341003205891S11656445EA0133201355000000000000
B0341043205802S11656427EA0132701353000000000000
B0341083205712S11656409EA0132301348000000000000
B0341123205621S11656389EA0131501338000000000000
B0341163205529S11656371EA0131401343000000000000
B0341203205439S11656354EA0133001361000000000000
B0341243205350S11656337EA0133201348000000000000
B0341283205257S11656320EA0131901341000000000000
B0341323205161S11656306EA0131601335000000000000
B0341363205066S11656292EA0131301338000000000000
B0341403204973S11656275EA0131601337000000000000
B0341443204884S11656258EA0131701341000000000000
B0341483204794S11656238EA0132101347000000000000
B0341523204706S11656219EA0132401349000000000000
B0341563204617S11656202EA0132401347000000000000
B0342003204525S11656182EA0132101344000000000000
B0342043204434S11656162EA0131701342000000000000
B0342083204346S11656137EA0132501353000000000000
B0342123204260S11656111EA0133501369000000000000
B0342163204179S11656087EA0134901370000000000000
B0342203204093S11656068EA0133201351000000000000
B0342243204001S11656051EA0131701333000000000000
B0342283203905S11656035EA0130301322000000000000
B0342323203809S11656016EA0129501316000000000000
B0342363203714S11655994EA0129001311000000000000
B0342403203619S11655968EA0128501304000000000000
B0342443203527S11655941EA0127901299000000000000
B0342483203436S11655911EA0127201291000000000000
B0342523203346S11655881EA0126101277000000000000
B0342563203256S11655853EA0124901269000000000000
B0343003203168S11655825EA0124101261000000000000
B0343043203079S11655800EA0123301252000000000000
B0343083202991S11655775EA0122501246000000000000
B0343123202904S11655751EA0121801236000000000000
B0343163202815S11655726EA0120901227000000000000
B0343203202728S11655703EA0120201221000000000000
B0343243202641S11655681EA0119401213000000000000
B0343283202553S11655662EA0118101195000000000000
B0343323202463S11655649EA0116801185000000000000
B0343363202377S11655643EA0116201180000000000000
B0343403202292S11655638EA0115301169000000000000
B0343443202204S11655632EA0114401162000000000000
B0343483202120S11655627EA0113901157000000000000
B0343523202034S11655627EA0113401148000000000000
B0343563201947S11655632EA0112501141000000000000
B0344003201859S11655640EA0111801136000000000000
B0344043201774S11655652EA0111701132000000000000
B0344083201691S11655670EA0110801121000000000000
B0344123201613S11655700EA0109601106000000000000
B0344163201539S11655739EA0108101092000000000000
B0344203201470S11655785EA0107001081000000000000
B0344243201401S11655830EA0105201060000000000000
B0344283201326S11655870EA0103801053000000000000
B0344323201252S11655902EA0104501065000000000000
B0344363201187S11655938EA0105301068000000000000
B0344403201128S11655985EA0105501072000000000000
B0344443201076S11656035EA0105301066000000000000
B0344483201029S11656090EA0104201053000000000000
B0344523200990S11656154EA0102201030000000000000
B0344563200933S11656210EA0100501016000000000000
B0345003200851S11656225EA0099701012000000000000
B0345043200764S11656210EA0099401008000000000000
B0345083200680S11656175EA0099001004000000000000
B0345123200596S11656146EA0098901000000000000000
B0345163200513S11656141EA0098100990000000000000
B0345203200427S11656133EA0096700974000000000000
B0345243200343S11656111EA0095800970000000000000
B0345283200261S11656081EA0095400966000000000000
B0345323200180S11656067EA0095600969000000000000
B0345363200114S11656099EA0095900973000000000000
B0345403200079S11656160EA0096100975000000000000
B0345443200062S11656228EA0095900971000000000000
B0345483200048S11656302EA0095600968000000000000
B0345523200039S11656377EA0095400969000000000000
B0345563200048S11656446EA0096700982000000000000
B0346003200105S11656457EA0097500989000000000000
B0346043200131S11656377EA0097900991000000000000
B0346083200082S11656310EA0098501001000000000000
B0346123200019S11656325EA0099001003000000000000
B0346163200022S11656384EA0099201006000000000000
B0346203200072S11656398EA0099201006000000000000
B0346243200114S11656337EA0099501009000000000000
B0346283200100S11656246EA0099401008000000000000
B0346323200036S11656203EA0099901015000000000000
B0346363159997S11656247EA0100301015000000000000
B0346403200033S11656282EA0100401024000000000000
B0346443200080S11656238EA0101401029000000000000
B0346483200078S11656147EA0101401025000000000000
B0346523200019S11656093EA0101401029000000000000
B0346563159970S11656129EA0101801030000000000000
B0347003159985S11656186EA0101501030000000000000
B0347043200040S11656163EA0102101038000000000000
B0347083200044S11656076EA0103101048000000000000
B0347123159988S11656050EA0103901054000000000000
B0347163159962S11656102EA0103201041000000000000
B0347203200000S11656137EA0103201048000000000000
B0347243200048S11656094EA0103801050000000000000
B0347283200050S11656004EA0103501048000000000000
B0347323159994S11655946EA0103701054000000000000
B0347363159941S11655969EA0104701064000000000000
B0347403159927S11656030EA0104601059000000000000
B0347443159923S11656099EA0104001054000000000000
B0347483159922S11656171EA0104501059000000000000
B0347523159967S11656206EA0105501075000000000000
B0347563200009S11656146EA0106401077000000000000
B0348003200001S11656054EA0106001071000000000000
B0348043159980S11655960EA0105401065000000000000
B0348083159923S11655891EA0105401071000000000000
B0348123159859S11655904EA0106101072000000000000
B0348163159867S11655959EA0106001072000000000000
B0348203159922S11655929EA0106101076000000000000
B0348243159929S11655843EA0106601079000000000000
B0348283159877S11655788EA0107001086000000000000
B0348323159836S11655826EA0107001083000000000000
B0348363159853S11655877EA0106501074000000000000
B0348403159905S11655866EA0106001073000000000000
B0348443159929S11655794EA0106101074000000000000
B0348483159897S11655722EA0106401079000000000000
B0348523159838S11655703EA0106901084000000000000
B0348563159799S11655733EA0106901078000000000000
B0349003159799S11655787EA0106001067000000000000
B0349043159805S11655846EA0105101064000000000000
B0349083159809S11655903EA0105701069000000000000
B0349123159838S11655947EA0105901070000000000000
B0349163159894S11655928EA0106001070000000000000
B0349203159902S11655835EA0105701067000000000000
B0349243159853S11655765EA0105801069000000000000
B0349283159785S11655761EA0106101074000000000000
B0349323159749S11655811EA0106801083000000000000
B0349363159744S11655869EA0107001082000000000000
B0349403159746S11655929EA0106701079000000000000
B0349443159754S11655991EA0106701081000000000000
B0349483159767S11656051EA0107801098000000000000
B0349523159818S11656045EA0110101128000000000000
B0349563159831S11655972EA0111601125000000000000
B0350003159777S11655909EA0110901121000000000000
B0350043159714S11655920EA0111601137000000000000
B0350083159693S11655970EA0113201154000000000000
B0350123159732S11655994EA0114801170000000000000
B0350163159772S11655939EA0116001178000000000000
B0350203159770S11655852EA0116601183000000000000
B0350243159715S11655794EA0117601197000000000000
B0350283159654S11655796EA0118701207000000000000
B0350323159629S11655847EA0118601200000000000000
B0350363159655S11655900EA0118601204000000000000
B0350403159702S11655929EA0119301222000000000000
B0350443159740S11655873EA0121201237000000000000
B0350483159710S11655800EA0121601231000000000000
B0350523159643S11655791EA0121601243000000000000
B0350563159629S11655842EA0123301261000000000000
B0351003159677S11655850EA0124501267000000000000
B0351043159710S11655782EA0125401277000000000000
B0351083159686S11655699EA0126601289000000000000
B0351123159627S11655660EA0127601301000000000000
B0351163159584S11655691EA0128301305000000000000
B0351203159597S11655738EA0128601309000000000000
B0351243159646S11655753EA0128801311000000000000
B0351283159706S11655738EA0129101314000000000000
B0351323159742S11655671EA0130501328000000000000
B0351363159712S11655597EA0130901329000000000000
B0351403159649S11655587EA0131201337000000000000
B0351443159624S11655635EA0131801340000000000000
B0351483159660S11655674EA0132401351000000000000
B0351523159711S11655645EA0133801363000000000000
B0351563159706S11655562EA0134101359000000000000
B0352003159643S11655527EA0134301365000000000000
B0352043159608S11655573EA0135101374000000000000
B0352083159645S11655614EA0135401376000000000000
B0352123159702S11655579EA0136201387000000000000
B0352163159701S11655495EA0137301396000000000000
B0352203159645S11655453EA0137901402000000000000
B0352243159595S11655479EA0138601408000000000000
B0352283159598S11655535EA0138801411000000000000
B0352323159646S11655557EA0139301416000000000000
B0352363159702S11655527EA0139801422000000000000
B0352403159733S11655454EA0140001416000000000000
B0352443159715S11655372EA0139801419000000000000
B0352483159658S11655332EA0139701415000000000000
B0352523159591S11655324EA0139401417000000000000
B0352563159523S11655322EA0139001411000000000000
B0353003159450S11655317EA0138401402000000000000
B0353043159372S11655307EA0137801400000000000000
B0353083159290S11655294EA0138601410000000000000
B0353123159220S11655306EA0140801432000000000000
B0353163159226S11655356EA0143501465000000000000
B0353203159276S11655344EA0145701486000000000000
B0353243159296S11655265EA0146401488000000000000
B0353283159253S11655192EA0147101505000000000000
B0353323159192S11655185EA0148901523000000000000
B0353363159173S11655232EA0150501535000000000000
B0353403159213S11655259EA0151601549000000000000
B0353443159264S11655207EA0152901558000000000000
B0353483159253S11655116EA0153901573000000000000
B0353523159194S11655071EA0155701589000000000000
B0353563159143S11655094EA0156801598000000000000
B0354003159156S11655148EA0157601606000000000000
B0354043159217S11655141EA0159201628000000000000
B0354083159253S11655068EA0161001647000000000000
B0354123159229S11654985EA0162601661000000000000
B0354163159168S11654955EA0163801671000000000000
B0354203159131S11654994EA0164701681000000000000
B0354243159160S11655037EA0166101697000000000000
B0354283159216S11655008EA0167801714000000000000
B0354323159221S11654921EA0168801725000000000000
B0354363159164S11654875EA0170001735000000000000
B0354403159123S11654910EA0171001747000000000000
B0354443159149S11654953EA0172501764000000000000
B0354483159200S11654916EA0174001778000000000000
B0354523159190S11654832EA0175001787000000000000
B0354563159130S11654811EA0176201800000000000000
B0355003159104S11654851EA0177701815000000000000
B0355043159135S11654890EA0178701821000000000000
B0355083159192S11654859EA0179901841000000000000
B0355123159203S11654778EA0181501854000000000000
B0355163159153S11654719EA0182101855000000000000
B0355203159082S11654698EA0181401840000000000000
B0355243158999S11654681EA0179101813000000000000
B0355283158904S11654665EA0177201799000000000000
B0355323158808S11654651EA0176801796000000000000
B0355363158711S11654637EA0176301791000000000000
B0355403158616S11654620EA0176001788000000000000
B0355443158523S11654603EA0175301779000000000000
B0355483158431S11654585EA0174501772000000000000
B0355523158338S11654563EA0173601762000000000000
B0355563158243S11654543EA0172201748000000000000
B0356003158147S11654520EA0170901733000000000000
B0356043158051S11654495EA0169801724000000000000
B0356083157955S11654472EA0169501722000000000000
B0356123157859S11654452EA0169201720000000000000
B0356163157762S11654435EA0169101720000000000000
B0356203157670S11654421EA0169901736000000000000
B0356243157580S11654408EA0171101742000000000000
B0356283157491S11654396EA0171301742000000000000
B0356323157400S11654382EA0170401731000000000000
B0356363157303S11654366EA0169101716000000000000
B0356403157203S11654347EA0168301709000000000000
B0356443157101S11654330EA0167401701000000000000
B0356483156998S11654314EA0166901691000000000000
B0356523156895S11654297EA0165801683000000000000
B0356563156794S11654278EA0165201681000000000000
B0357003156695S11654254EA0164901675000000000000
B0357043156599S11654230EA0164301667000000000000
B0357083156503S11654208EA0163201656000000000000
B0357123156408S11654187EA0162501649000000000000
B0357163156314S11654165EA0161701642000000000000
B0357203156223S11654144EA0161501640000000000000
B0357243156132S11654124EA0161201638000000000000
B0357283156044S11654105EA0161001638000000000000
B0357323155955S11654085EA0161401644000000000000
B0357363155870S11654065EA0161801649000000000000
B0357403155786S11654043EA0162301651000000000000
B0357443155704S11654018EA0161901644000000000000
B0357483155621S11653994EA0161301641000000000000
B0357523155538S11653975EA0162001651000000000000
B0357563155460S11653957EA0163301665000000000000
B0358003155382S11653939EA0163901667000000000000
B0358043155303S11653924EA0165001688000000000000
B0358083155225S11653916EA0166801700000000000000
B0358123155173S11653958EA0167401703000000000000
B0358163155188S11654011EA0168201711000000000000
B0358203155242S11654001EA0168901719000000000000
B0358243155264S11653920EA0169401727000000000000
B0358283155243S11653824EA0170901748000000000000
B0358323155196S11653757EA0173001763000000000000
B0358363155145S11653779EA0173001755000000000000
B0358403155158S11653831EA0172001746000000000000
B0358443155212S11653816EA0172601760000000000000
B0358483155233S11653734EA0173501767000000000000
B0358523155212S11653642EA0174201773000000000000
B0358563155173S11653554EA0174301775000000000000
B0359003155113S11653484EA0173501753000000000000
B0359043155032S11653434EA0170601727000000000000
B0359083154944S11653396EA0169401713000000000000
B0359123154856S11653361EA0168401706000000000000
B0359163154767S11653326EA0167401696000000000000
B0359203154676S11653291EA0166801693000000000000
B0359243154586S11653257EA0166801694000000000000
B0359283154495S11653226EA0166701693000000000000
B0359323154404S11653196EA0166501692000000000000
B0359363154313S11653169EA0167101702000000000000
B0359403154222S11653144EA0167601702000000000000
B0359443154128S11653131EA0166601693000000000000
B0359483154027S11653127EA0166601694000000000000
B0359523153927S11653123EA0166401688000000000000
B0359563153823S11653120EA0165701685000000000000
B0400003153723S11653116EA0165201677000000000000
B0400043153623S11653113EA0164401667000000000000
B0400083153524S11653112EA0163501657000000000000
B0400123153428S11653120EA0162501649000000000000
B0400163153335S11653135EA0161501640000000000000
B0400203153245S11653153EA0161001634000000000000
B0400243153160S11653178EA0160501631000000000000
B0400283153082S11653211EA0159901623000000000000
B0400323153007S11653246EA0159901628000000000000
B0400363152938S11653279EA0160501634000000000000
B0400403152873S11653316EA0160601634000000000000
B0400443152817S11653365EA0160901637000000000000
B0400483152785S11653429EA0161101641000000000000
B0400523152772S11653498EA0161401644000000000000
B0400563152764S11653563EA0161501643000000000000
B0401003152738S11653624EA0161201638000000000000
B0401043152683S11653667EA0160201625000000000000
B0401083152610S11653686EA0159101616000000000000
B0401123152530S11653685EA0158401607000000000000
B0401163152448S11653676EA0158301612000000000000
B0401203152367S11653663EA0158801617000000000000
B0401243152285S11653646EA0158101604000000000000
B0401283152200S11653625EA0156401589000000000000
B0401323152111S11653602EA0155301577000000000000
B0401363152023S11653569EA0153601559000000000000
B0401403151937S11653530EA0152201545000000000000
B0401443151854S11653490EA0151001529000000000000
B0401483151769S11653450EA0149601516000000000000
B0401523151685S11653413EA0148501509000000000000
B0401563151600S11653377EA0147801503000000000000
B0402003151516S11653343EA0147301499000000000000
B0402043151431S11653309EA0146601489000000000000
B0402083151347S11653278EA0146001484000000000000
B0402123151262S11653250EA0145301476000000000000
B0402163151179S11653224EA0144701469000000000000
B0402203151095S11653198EA0143901460000000000000
B0402243151009S11653170EA0143001449000000000000
B0402283150923S11653142EA0142001439000000000000
B0402323150836S11653113EA0140901427000000000000
B0402363150749S11653084EA0139601416000000000000
B0402403150664S11653053EA0138801407000000000000
B0402443150581S11653019EA0137601396000000000000
B0402483150498S11652986EA0136601385000000000000
B0402523150417S11652951EA0136001379000000000000
B0402563150337S11652919EA0134801361000000000000
B0403003150252S11652889EA0133101346000000000000
B0403043150170S11652862EA0131801335000000000000
B0403083150092S11652837EA0131001330000000000000
B0403123150016S11652818EA0130301320000000000000
B0403163149935S11652797EA0128701300000000000000
B0403203149852S11652758EA0128401302000000000000
B0403243149786S11652770EA0130101323000000000000
B0403283149806S11652819EA0132001342000000000000
B0403323149865S11652798EA0132601347000000000000
B0403363149890S11652718EA0133201357000000015000
B0403403149861S11652641EA0133801358000000015000
B0403443149801S11652614EA0134101357000000015000
B0403483149756S11652649EA0133601358000000015000
B0403523149737S11652709EA0133701359000000015000
B0403563149724S11652771EA0134201364000000000000
B0404003149715S11652836EA0135401380000000000000
B0404043149758S11652870EA0137601408000000000000
B0404083149797S11652813EA0139601424000000015000
B0404123149765S11652746EA0140401429000000015000
B0404163149713S11652753EA0141701445000000015000
B0404203149713S11652804EA0143201461000000015000
B0404243149760S11652828EA0144901479000000015000
B0404283149812S11652791EA0146201496000000015000
B0404323149813S11652713EA0147201502000000015000
B0404363149765S11652671EA0148001510000000015000
B0404403149728S11652704EA0149001523000000015000
B0404443149756S11652746EA0150501534000000015000
B0404483149814S11652718EA0151101544000000015000
B0404523149823S11652636EA0152401557000000015000
B0404563149775S11652592EA0153301565000000015000
B0405003149731S11652613EA0154501579000000015000
B0405043149726S11652663EA0156101592000000015000
B0405083149773S11652688EA0157201602000000015000
B0405123149827S11652649EA0158201614000000015000
B0405163149832S11652572EA0159401628000000015000
B0405203149788S11652525EA0160001633000000015000
B0405243149743S11652542EA0161001648000000015000
B0405283149745S11652588EA0162401658000000015000
B0405323149797S11652601EA0163201663000000015000
B0405363149848S11652551EA0163701671000000015000
B0405403149851S11652473EA0164501679000000015000
B0405443149806S11652423EA0165001682000000015000
B0405483149756S11652438EA0166101697000000015000
B0405523149752S11652488EA0167501709000000015000
B0405563149799S11652510EA0168401715000000015000
B0406003149852S11652468EA0169001721000000015000
B0406043149861S11652392EA0169701731000000015000
B0406083149828S11652328EA0170101732000000015000
B0406123149773S11652307EA0170401735000000015000
B0406163149726S11652340EA0170601740000000015000
B0406203149730S11652397EA0171801756000000015000
B0406243149786S11652405EA0172901762000000015000
B0406283149828S11652338EA0173201764000000015000
B0406323149821S11652254EA0174101777000000015000
B0406363149770S11652212EA0174901781000000015000
B0406403149718S11652230EA0175401787000000015000
B0406443149700S11652285EA0175901790000000015000
B0406483149711S11652347EA0176001791000000015000
B0406523149756S11652386EA0177101805000000015000
B0406563149813S11652368EA0177801811000000015000
B0407003149840S11652297EA0178201814000000015000
B0407043149827S11652211EA0178401812000000015000
B0407083149783S11652143EA0178501823000000015000
B0407123149723S11652117EA0179701828000000015000
B0407163149658S11652116EA0179201817000000015000
B0407203149583S11652119EA0178901820000000000000
B0407243149507S11652120EA0180301840000000000000
B0407283149433S11652121EA0181101842000000000000
B0407323149354S11652121EA0181501851000000000000
B0407363149275S11652121EA0182401857000000000000
B0407403149191S11652119EA0182101846000000000000
B0407443149104S11652112EA0180801835000000000000
B0407483149015S11652108EA0180001834000000000000
B0407523148926S11652106EA0180601838000000000000
B0407563148837S11652102EA0180401831000000000000
B0408003148746S11652098EA0179101815000000000000
B0408043148652S11652095EA0178101809000000000000
B0408083148560S11652093EA0177401800000000000000
B0408123148467S11652089EA0176601794000000000000
B0408163148376S11652082EA0176601797000000000000
B0408203148289S11652067EA0176801795000000000000
B0408243148203S11652050EA0176101785000000000000
B0408283148114S11652037EA0175001777000000000000
B0408323148027S11652008EA0174301770000000000000
B0408363147942S11651960EA0173301758000000000000
B0408403147860S11651904EA0172301750000000000000
B0408443147782S11651843EA0171301738000000000000
B0408483147704S11651777EA0170001724000000000000
B0408523147625S11651710EA0169501719000000000000
B0408563147546S11651645EA0168501709000000000000
B0409003147464S11651580EA0167701701000000000000
B0409043147383S11651515EA0166901693000000000000
B0409083147303S11651446EA0165901682000000000000
B0409123147223S11651379EA0165401682000000000000
B0409163147145S11651316EA0166201692000000000000
B0409203147067S11651259EA0166201690000000000000
B0409243146985S11651207EA0165501679000000000000
B0409283146902S11651154EA0164601670000000000000
B0409323146819S11651099EA0164001662000000000000
B0409363146736S11651046EA0162801650000000000000
B0409403146649S11650990EA0161201630000000000000
B0409443146559S11650933EA0160301626000000000000
B0409483146468S11650876EA0160201628000000000000
B0409523146378S11650825EA0160701633000000000000
B0409563146289S11650780EA0161601648000000000000
B0410003146203S11650735EA0161901641000000000000
B0410043146112S11650690EA0161501643000000000000
B0410083146021S11650642EA0162201657000000000000
B0410123145934S11650595EA0163401663000000000000
B0410163145845S11650547EA0163301662000000000000
B0410203145758S11650499EA0162801651000000000000
B0410243145668S11650445EA0161201634000000000000
B0410283145577S11650388EA0160301626000000000000
B0410323145486S11650330EA0159201614000000000000
B0410363145394S11650270EA0158801610000000000000
B0410403145303S11650211EA0159101617000000000000
B0410443145213S11650156EA0159101611000000000000
B0410483145122S11650097EA0157901600000000000000
B0410523145031S11650037EA0157101591000000000000
B0410563144940S11649976EA0156501584000000000000
B0411003144851S11649915EA0155901579000000000000
B0411043144760S11649853EA0155001567000000000000
B0411083144670S11649789EA0154001556000000000000
B0411123144579S11649729EA0153001549000000000000
B0411163144489S11649673EA0152601542000000000000
B0411203144400S11649623EA0151601536000000000000
B0411243144310S11649576EA0151001526000000000000
B0411283144222S11649532EA0150501528000000000000
B0411323144136S11649489EA0150701524000000000000
B0411363144047S11649448EA0149601514000000000000
B0411403143959S11649412EA0149701519000000000000
B0411443143872S11649379EA0149801516000000000000
B0411483143787S11649352EA0150501530000000000000
B0411523143711S11649356EA0151601538000000000000
B0411563143653S11649403EA0152001542000000000000
B0412003143600S11649454EA0152401544000000000000
B0412043143559S11649520EA0152401545000000000000
B0412083143526S11649593EA0152701552000000000000
B0412123143486S11649662EA0153001551000000000000
B0412163143442S11649728EA0153801564000000000000
B0412203143474S11649772EA0157001603000000000000
B0412243143525S11649736EA0157801598000000015000
B0412283143534S11649643EA0156901592000000015000
B0412323143509S11649552EA0157101594000000015000
B0412363143451S11649490EA0157001592000000015000
B0412403143375S11649491EA0157001591000000015000
B0412443143302S11649525EA0156201575000000015000
B0412483143214S11649550EA0154601560000000000000
B0412523143118S11649563EA0153901558000000000000
B0412563143022S11649572EA0153101547000000000000
B0413003142924S11649572EA0151901538000000000000
B0413043142827S11649559EA0151301532000000000000
B0413083142732S11649530EA0151001530000000000000
B0413123142638S11649494EA0150501524000000000000
B0413163142546S11649454EA0149901516000000000000
B0413203142451S11649422EA0148901508000000000000
B0413243142356S11649404EA0148701504000000000000
B0413283142261S11649392EA0148001495000000000000
B0413323142168S11649389EA0148001503000000000000
B0413363142080S11649391EA0148201502000000000000
B0413403141992S11649395EA0148001499000000000000
B0413443141905S11649403EA0147501492000000000000
B0413483141815S11649412EA0146501483000000000000
B0413523141723S11649417EA0146001479000000000000
B0413563141632S11649420EA0146601486000000000000
B0414003141554S11649447EA0147101491000000000000
B0414043141494S11649498EA0147201488000000000000
B0414083141432S11649550EA0146201477000000000000
B0414123141363S11649591EA0146501485000000000000
B0414163141300S11649636EA0146801487000000000000
B0414203141237S11649680EA0146501483000000000000
B0414243141164S11649714EA0146701489000000000000
B0414283141082S11649723EA0147301498000000000000
B0414323141000S11649720EA0148201507000000000000
B0414363140921S11649704EA0148001498000000000000
B0414403140839S11649682EA0146501482000000000000
B0414443140758S11649642EA0145301468000000000000
B0414483140679S11649595EA0144201457000000000000
B0414523140597S11649545EA0143001442000000000000
B0414563140511S11649500EA0141501428000000000000
B0415003140420S11649476EA0140201413000000000000
B0415043140327S11649472EA0138601398000000000000
B0415083140232S11649474EA0138101398000000000000
B0415123140145S11649486EA0139801418000000000000
B0415163140071S11649516EA0139801410000000000000
B0415203139991S11649547EA0138701402000000000000
B0415243139908S11649572EA0138601402000000000000
B0415283139821S11649586EA0138401397000000000000
B0415323139734S11649591EA0136901380000000000000
B0415363139646S11649590EA0135601368000000000000
B0415403139562S11649590EA0135201367000000000000
B0415443139482S11649590EA0134701361000000000000
B0415483139401S11649586EA0133701349000000000000
B0415523139319S11649576EA0132701336000000000000
B0415563139237S11649561EA0131501328000000000000
B0416003139154S11649543EA0130801319000000000000
B0416043139071S11649529EA0129701311000000000000
B0416083138989S11649515EA0129201303000000000000
B0416123138908S11649503EA0128201289000000000000
B0416163138825S11649495EA0126801275000000000000
B0416203138739S11649489EA0125301256000000000000
B0416243138651S11649481EA0123401239000000000000
B0416283138560S11649477EA0122101228000000000000
B0416323138470S11649478EA0121101219000000000000
B0416363138383S11649485EA0120301212000000000000
B0416403138300S11649496EA0120001209000000000000
B0416443138222S11649509EA0119901212000000000000
B0416483138148S11649524EA0120401217000000000000
B0416523138079S11649542EA0120201210000000000000
B0416563138013S11649568EA0119101198000000000000
B0417003137952S11649606EA0118601199000000000000
B0417043137901S11649646EA0119001205000000000000
B0417083137861S11649693EA0119101205000000000000
B0417123137833S11649746EA0119601210000000000000
B0417163137814S11649803EA0121001224000000000000
B0417203137839S11649847EA0122301236000000000000
B0417243137891S11649811EA0124001261000000000000
B0417283137885S11649732EA0126301283000000015000
B0417323137832S11649691EA0127701292000000015000
B0417363137787S11649717EA0128101297000000015000
B0417403137803S11649758EA0128901312000000015000
B0417443137855S11649732EA0130001323000000015000
B0417483137862S11649649EA0131401339000000015000
B0417523137811S11649591EA0133101354000000015000
B0417563137759S11649607EA0134101360000000015000
B0418003137768S11649655EA0134801369000000015000
B0418043137820S11649639EA0136101388000000015000
B0418083137837S11649564EA0138101405000000030000
B0418123137798S11649499EA0139201413000000030000
B0418163137740S11649496EA0139801419000000015000
B0418203137718S11649543EA0140501426000000015000
B0418243137740S11649586EA0141301438000000015000
B0418283137793S11649576EA0142601447000000015000
B0418323137820S11649503EA0143801461000000030000
B0418363137771S11649452EA0145301478000000015000
B0418403137729S11649481EA0146501485000000015000
B0418443137750S11649526EA0147501500000000015000
B0418483137805S11649508EA0149201521000000015000
B0418523137823S11649433EA0150701532000000030000
B0418563137777S11649372EA0151701548000000015000
B0419003137722S11649374EA0153101556000000015000
B0419043137702S11649424EA0153801563000000015000
B0419083137737S11649464EA0154801574000000015000
B0419123137797S11649452EA0155901586000000015000
B0419163137831S11649382EA0157701608000000015000
B0419203137805S11649309EA0159501620000000015000
B0419243137745S11649288EA0160101627000000015000
B0419283137709S11649329EA0161001642000000015000
B0419323137735S11649370EA0162601657000000015000
B0419363137788S11649353EA0164001669000000015000
B0419403137810S11649278EA0165201681000000015000
B0419443137775S11649210EA0166301692000000030000
B0419483137715S11649195EA0166801695000000015000
B0419523137676S11649239EA0167601705000000015000
B0419563137697S11649287EA0169401725000000015000
B0420003137750S11649282EA0170701737000000015000
B0420043137788S11649223EA0171501745000000015000
B0420083137776S11649147EA0172401763000000015000
B0420123137727S11649105EA0173901768000000015000
B0420163137672S11649117EA0174401774000000015000
B0420203137653S11649170EA0175401787000000015000
B0420243137685S11649212EA0176501796000000015000
B0420283137741S11649195EA0177201800000000015000
B0420323137771S11649125EA0177801808000000015000
B0420363137745S11649047EA0178701817000000015000
B0420403137685S11649018EA0179701828000000015000
B0420443137633S11649045EA0180301837000000015000
B0420483137623S11649103EA0181301847000000015000
B0420523137668S11649134EA0182301855000000015000
B0420563137722S11649097EA0182401850000000015000
B0421003137733S11649012EA0182001849000000015000
B0421043137705S11648924EA0183001865000000015000
B0421083137645S11648893EA0184401876000000015000
B0421123137602S11648934EA0184601872000000015000
B0421163137576S11648999EA0183901866000000015000
B0421203137545S11649069EA0184201873000000015000
B0421243137515S11649138EA0184301870000000015000
B0421283137459S11649197EA0182801851000000015000
B0421323137378S11649240EA0181601844000000015000
B0421363137287S11649262EA0181601848000000000000
B0421403137194S11649269EA0181601847000000000000
B0421443137098S11649261EA0181501843000000000000
B0421483136997S11649249EA0180201826000000000000
B0421523136896S11649238EA0179001818000000000000
B0421563136795S11649222EA0178401810000000000000
B0422003136695S11649201EA0177401797000000000000
B0422043136593S11649182EA0176501789000000000000
B0422083136493S11649162EA0175901786000000000000
B0422123136398S11649143EA0175801786000000000000
B0422163136306S11649123EA0175701783000000000000
B0422203136215S11649103EA0175201776000000000000
B0422243136124S11649083EA0174501768000000000000
B0422283136033S11649064EA0173501756000000000000
B0422323135941S11649045EA0171901739000000000000
B0422363135848S11649034EA0170401724000000000000
B0422403135757S11649023EA0169601720000000000000
B0422443135666S11649013EA0169901723000000000000
B0422483135577S11649000EA0169901722000000000000
B0422523135486S11648986EA0168901705000000000000
B0422563135391S11648973EA0167201691000000000000
B0423003135297S11648961EA0166001681000000000000
B0423043135206S11648947EA0165501679000000000000
B0423083135120S11648927EA0165201674000000000000
B0423123135037S11648906EA0164301662000000000000
B0423163134951S11648883EA0162801647000000000000
B0423203134862S11648856EA0162001639000000000000
B0423243134776S11648835EA0162401657000000000000
B0423283134699S11648814EA0164601676000000000000
B0423323134622S11648796EA0165301678000000000000
B0423363134546S11648781EA0165301673000000000000
B0423403134462S11648765EA0164201666000000000000
B0423443134378S11648744EA0163801660000000000000
B0423483134292S11648720EA0163301656000000000000
B0423523134206S11648698EA0162501646000000000000
B0423563134118S11648676EA0161601638000000000000
B0424003134030S11648658EA0161001630000000000000
B0424043133939S11648638EA0160501623000000000000
B0424083133848S11648616EA0159901617000000000000
B0424123133755S11648594EA0159301612000000000000
B0424163133662S11648568EA0158701605000000000000
B0424203133568S11648541EA0158201601000000000000
B0424243133474S11648518EA0157901600000000000000
B0424283133378S11648495EA0157701598000000000000
B0424323133282S11648477EA0157401592000000000000
B0424363133183S11648459EA0156901584000000000000
B0424403133084S11648438EA0155901574000000000000
B0424443132986S11648420EA0155001568000000000000
B0424483132886S11648403EA0154101555000000000000
B0424523132788S11648384EA0153001543000000000000
B0424563132694S11648363EA0152301543000000000000
B0425003132613S11648347EA0153001554000000000000
B0425043132540S11648336EA0153101547000000000000
B0425083132463S11648326EA0151501525000000000000
B0425123132377S11648315EA0149601510000000000000
B0425163132289S11648297EA0149901524000000000000
B0425203132208S11648287EA0151601539000000000000
B0425243132133S11648297EA0152401546000000000000
B0425283132061S11648313EA0152401540000000000000
B0425323131985S11648330EA0151301529000000000000
B0425363131904S11648343EA0149801509000000000000
B0425403131812S11648339EA0148001494000000000000
B0425443131717S11648319EA0147301489000000000000
B0425483131622S11648287EA0147201490000000000000
B0425523131528S11648255EA0147501494000000000000
B0425563131437S11648225EA0147701498000000000000
B0426003131350S11648199EA0148401504000000000000
B0426043131263S11648173EA0148001496000000000000
B0426083131175S11648146EA0147701494000000000000
B0426123131085S11648118EA0147401490000000000000
B0426163130999S11648096EA0147501492000000000000
B0426203130915S11648074EA0146701478000000000000
B0426243130830S11648052EA0145401463000000000000
B0426283130742S11648027EA0143501442000000000000
B0426323130652S11647998EA0141701426000000000000
B0426363130562S11647966EA0140601416000000000000
B0426403130474S11647939EA0139701408000000000000
B0426443130386S11647910EA0138501391000000000000
B0426483130293S11647882EA0137101380000000000000
B0426523130200S11647851EA0136201371000000000000
B0426563130109S11647817EA0136001372000000000000
B0427003130019S11647783EA0136301378000000000000
B0427043129933S11647753EA0137401395000000000000
B0427083129857S11647754EA0139801415000000000000
B0427123129837S11647813EA0141701439000000000000
B0427163129890S11647823EA0143201451000000000000
B0427203129919S11647744EA0144501468000000000000
B0427243129880S11647679EA0145501476000000000000
B0427283129821S11647680EA0145701475000000000000
B0427323129792S11647731EA0145201466000000000000
B0427363129823S11647773EA0145801484000000000000
B0427403129877S11647765EA0147101492000000000000
B0427443129923S11647706EA0147901504000000000000
B0427483129936S11647623EA0148901516000000000000
B0427523129893S11647569EA0149401512000000000000
B0427563129854S11647602EA0149301517000000000000
B0428003129892S11647641EA0149401513000000000000
B0428043129953S11647605EA0149901528000000000000
B0428083129983S11647522EA0150901535000000000000
B0428123129946S11647452EA0151701543000000000000
B0428163129896S11647468EA0152501551000000000000
B0428203129911S11647515EA0153201555000000000000
B0428243129972S11647515EA0153001551000000000000
B0428283130031S11647459EA0153601567000000000000
B0428323130035S11647375EA0155001574000000000000
B0428363129980S11647323EA0154501565000000000000
B0428403129907S11647309EA0153301551000000000000
B0428443129825S11647299EA0152201540000000000000
B0428483129740S11647293EA0150301521000000000000
B0428523129650S11647288EA0149001503000000000000
B0428563129559S11647283EA0147801494000000000000
B0429003129469S11647277EA0146801482000000000000
B0429043129381S11647275EA0145601470000000000000
B0429083129294S11647270EA0144501461000000000000
B0429123129205S11647262EA0143901455000000000000
B0429163129117S11647250EA0142601440000000000000
B0429203129028S11647236EA0142001437000000000000
B0429243128944S11647220EA0141701435000000000000
B0429283128859S11647210EA0141401431000000000000
B0429323128779S11647203EA0142401452000000000000
B0429363128705S11647208EA0144101468000000000000
B0429403128653S11647253EA0145401477000000000000
B0429443128610S11647311EA0145501474000000000000
B0429483128567S11647371EA0144501458000000000000
B0429523128503S11647419EA0142401437000000000000
B0429563128423S11647446EA0140501422000000000000
B0430003128336S11647449EA0138701400000000000000
B0430043128245S11647437EA0136701373000000000000
B0430083128152S11647415EA0134801359000000000000
B0430123128061S11647388EA0133401343000000000000
B0430163127969S11647359EA0131901332000000000000
B0430203127883S11647329EA0131201326000000000000
B0430243127801S11647301EA0130601321000000000000
B0430283127721S11647277EA0129701309000000000000
B0430323127643S11647259EA0129201306000000000000
B0430363127563S11647241EA0128501295000000000000
B0430403127484S11647221EA0128301302000000000000
B0430443127410S11647201EA0129001312000000000000
B0430483127337S11647190EA0129801317000000000000
B0430523127268S11647195EA0130301323000000000000
B0430563127211S11647223EA0131701339000000000000
B0431003127199S11647275EA0132701342000000000000
B0431043127246S11647296EA0132401336000000000000
B0431083127293S11647238EA0132001336000000000000
B0431123127289S11647150EA0132701349000000000000
B0431163127257S11647076EA0133901358000000000000
B0431203127193S11647050EA0134301358000000000000
B0431243127163S11647097EA0134501360000000000000
B0431283127199S11647136EA0135101370000000000000
B0431323127255S11647120EA0135601375000000000000
B0431363127303S11647055EA0136101381000000000000
B0431403127319S11646971EA0137001391000000000000
B0431443127267S11646915EA0137201386000000000000
B0431483127210S11646942EA0137001387000000000000
B0431523127234S11646991EA0138101408000000000000
B0431563127285S11646958EA0140201425000000000000
B0432003127280S11646880EA0141001426000000000000
B0432043127221S11646839EA0140701424000000000000
B0432083127171S11646868EA0141201434000000000000
B0432123127172S11646922EA0142301444000000000000
B0432163127219S11646934EA0143501458000000000000
B0432203127264S11646882EA0143901459000000000000
B0432243127267S11646802EA0144801477000000000000
B0432283127229S11646743EA0145901480000000000000
B0432323127169S11646726EA0146001481000000000000
B0432363127120S11646755EA0146501488000000000000
B0432403127110S11646805EA0146601486000000000000
B0432443127154S11646824EA0146801487000000000000
B0432483127194S11646765EA0146301481000000000000
B0432523127207S11646679EA0146301488000000000000
B0432563127206S11646590EA0147201495000000000000
B0433003127169S11646514EA0147501499000000000000
B0433043127106S11646497EA0148201508000000000000
B0433083127089S11646542EA0149201516000000000000
B0433123127134S11646557EA0149601518000000000000
B0433163127179S11646501EA0149901525000000000000
B0433203127156S11646425EA0150901536000000000000
B0433243127094S11646401EA0150901526000000000000
B0433283127023S11646404EA0150001521000000000000
B0433323126948S11646415EA0149301509000000000000
B0433363126870S11646435EA0147901495000000000000
B0433403126789S11646458EA0147701497000000000000
B0433443126709S11646477EA0148201504000000000000
B0433483126629S11646496EA0148201503000000000000
B0433523126543S11646510EA0148001499000000000000
B0433563126456S11646522EA0147701499000000000000
B0434003126370S11646535EA0147501495000000000000
B0434043126283S11646545EA0147301493000000000000
B0434083126196S11646555EA0147201487000000000000
B0434123126109S11646564EA0146301481000000000000
B0434163126025S11646571EA0147401504000000000000
B0434203125955S11646605EA0148501503000000000000
B0434243125880S11646638EA0147801496000000000000
B0434283125793S11646659EA0147201492000000000000
B0434323125703S11646669EA0147701498000000000000
B0434363125611S11646672EA0146401476000000000000
B0434403125513S11646674EA0144701460000000000000
B0434443125414S11646675EA0144701467000000000000
B0434483125321S11646677EA0145801482000000000000
B0434523125260S11646726EA0148001510000000000000
B0434563125287S11646782EA0150501535000000000000
B0435003125336S11646773EA0151601534000000000000
B0435043125374S11646721EA0151301533000000000000
B0435083125383S11646646EA0151501537000000000000
B0435123125348S11646577EA0151901542000000000000
B0435163125286S11646571EA0152401547000000000000
B0435203125277S11646629EA0153101555000000000000
B0435243125330S11646635EA0153101551000000000000
B0435283125359S11646566EA0153401560000000000000
B0435323125330S11646496EA0154001563000000000000
B0435363125265S11646470EA0154101565000000000000
B0435403125200S11646492EA0154701574000000000000
B0435443125154S11646543EA0155201578000000000000
B0435483125104S11646597EA0154101549000000000000
B0435523125028S11646640EA0151001525000000000000
B0435563124941S11646665EA0149201510000000000000
B0436003124853S11646678EA0148701509000000000000
B0436043124763S11646682EA0148101496000000000000
B0436083124671S11646679EA0146301475000000000000
B0436123124579S11646678EA0144501459000000000000
B0436163124486S11646674EA0143001445000000000000
B0436203124395S11646669EA0142001436000000000000
B0436243124306S11646662EA0141001426000000000000
B0436283124215S11646652EA0140501420000000000000
B0436323124125S11646643EA0139501408000000000000
B0436363124033S11646635EA0138801407000000000000
B0436403123944S11646631EA0139501416000000000000
B0436443123857S11646626EA0139901417000000000000
B0436483123769S11646623EA0140001422000000000000
B0436523123684S11646623EA0141201433000000000000
B0436563123601S11646623EA0141301432000000000000
B0437003123514S11646625EA0140601423000000000000
B0437043123425S11646625EA0139501403000000000000
B0437083123333S11646620EA0137601384000000000000
B0437123123240S11646613EA0136201373000000000000
B0437163123149S11646609EA0135001359000000000000
B0437203123059S11646607EA0134001353000000000000
B0437243122973S11646604EA0133501349000000000000
B0437283122890S11646599EA0132401334000000000000
B0437323122805S11646596EA0130901322000000000000
B0437363122725S11646594EA0130201310000000000000
B0437403122645S11646591EA0129301304000000000000
B0437443122565S11646595EA0128401292000000000000
B0437483122483S11646603EA0127501287000000000000
B0437523122405S11646610EA0127001280000000000000
B0437563122322S11646618EA0125501260000000000000
B0438003122241S11646638EA0123501242000000000000
B0438043122164S11646672EA0121901228000000000000
B0438083122092S11646709EA0120501212000000000000
B0438123122016S11646750EA0119001193000000000000
B0438163121942S11646795EA0117601181000000000000
B0438203121872S11646843EA0117001178000000000000
B0438243121807S11646893EA0117501187000000000000
B0438283121758S11646947EA0118301194000000000000
B0438323121713S11647003EA0117801185000000000000
B0438363121664S11647060EA0116901175000000000000
B0438403121609S11647115EA0115701163000000000000
B0438443121552S11647171EA0114601148000000000000
B0438483121490S11647227EA0113501141000000000000
B0438523121423S11647279EA0113001137000000000000
B0438563121355S11647327EA0112501130000000000000
B0439003121287S11647375EA0112401134000000000000
B0439043121230S11647431EA0113801153000000000000
B0439083121186S11647492EA0115301166000000000000
B0439123121174S11647556EA0116901181000000000000
B0439163121221S11647550EA0118001191000000000000
B0439203121226S11647467EA0118001190000000000000
B0439243121166S11647416EA0119001205000000000000
B0439283121128S11647458EA0120501223000000000000
B0439323121160S11647483EA0121601230000000000000
B0439363121195S11647428EA0121401225000000000000
B0439403121167S11647348EA0121901235000000000000
B0439443121100S11647324EA0122801247000000000000
B0439483121056S11647362EA0124001257000000000000
B0439523121058S11647414EA0124301254000000000000
B0439563121104S11647427EA0124201255000000000000
B0440003121145S11647375EA0124101255000000000000
B0440043121139S11647293EA0124601265000000000000
B0440083121084S11647245EA0126001278000000000000
B0440123121043S11647283EA0126901284000000000000
B0440163121078S11647310EA0127301289000000000000
B0440203121113S11647253EA0127701293000000000000
B0440243121091S11647176EA0128301302000000000000
B0440283121027S11647142EA0129401311000000000000
B0440323120972S11647169EA0129601314000000000000
B0440363120962S11647228EA0129701310000000000000
B0440403121000S11647260EA0129701313000000000000
B0440443121049S11647228EA0130001314000000000000
B0440483121059S11647143EA0129601313000000000000
B0440523121048S11647054EA0130001319000000000000
B0440563120987S11647015EA0131101332000000000000
B0441003120965S11647060EA0131901334000000000000
B0441043121009S11647077EA0131701334000000000000
B0441083121046S11647016EA0132301343000000000000
B0441123121026S11646935EA0133001350000000000000
B0441163120962S11646904EA0133701360000000000000
B0441203120914S11646935EA0134601362000000000000
B0441243120919S11646990EA0134601360000000000000
B0441283120967S11646998EA0134601363000000000000
B0441323120993S11646926EA0134701366000000000000
B0441363120948S11646865EA0135501375000000000000
B0441403120887S11646874EA0135801374000000000000
B0441443120829S11646909EA0135101365000000000000
B0441483120775S11646956EA0134001353000000000000
B0441523120721S11647012EA0132501338000000000000
B0441563120666S11647073EA0131401328000000000000
B0442003120607S11647136EA0130901323000000000000
B0442043120550S11647197EA0130201314000000000000
B0442083120493S11647259EA0129501308000000000000
B0442123120435S11647319EA0128601296000000000000
B0442163120377S11647377EA0127601290000000000000
B2359463207336S11656865EV0126400000000000000128
B2359503207336S11656865EV0124700000000000000128
B2359543207336S11656865EV0124500000000000000128
B2359573207336S11656865EV0124800000000000000128
B0442423119974S11647706EA0124601277015000090000
B0442463119910S11647747EA0123601268000000075000
B0442503119844S11647783EA0122601259000000210000
B0442543119774S11647821EA0121401243000000105000
B0442583119702S11647858EA0119401225000000045000
B0443023119628S11647892EA0118001207000000030000
B0443063119553S11647926EA0116401193000000015000
B0443103119479S11647959EA0115201181000000015000
B0443143119405S11647990EA0113801164000000015000
B0443183119332S11648020EA0112801159000000015000
B0443223119259S11648048EA0112601156000000000000
B0443263119185S11648074EA0112301152000000000000
B0443303119115S11648098EA0112101151000000000000
B0443343119043S11648121EA0111401140000000000000
B0443383118973S11648146EA0110301130000000000000
B0443423118904S11648169EA0109801127000000000000
B0443463118838S11648194EA0109501124000000000000
B0443503118774S11648219EA0109001116000000000000
B0443543118710S11648247EA0108301110000000000000
B0443583118652S11648277EA0108101107000000000000
B0444023118599S11648317EA0107101092000000000000
B0444063118545S11648360EA0106001086000000000000
B0444103118501S11648414EA0105601082000000000000
B0444143118466S11648472EA0105501082000000000000
B0444183118448S11648536EA0105301080000000000000
B0444223118435S11648601EA0104801072000000000000
B0444263118426S11648667EA0103901062000000000000
B0444303118422S11648735EA0102601049000000000000
B0444343118420S11648804EA0101701039000000000000
B0444383118423S11648872EA0101401041000000000000
B0444423118426S11648939EA0102001045000000000000
B0444463118431S11649005EA0101701041000000000000
B0444503118436S11649071EA0101401036000000000000
B0444543118441S11649138EA0100701029000000000000
B0444583118449S11649204EA0100201025000000000000
B0445023118458S11649269EA0099601018000000000000
B0445063118480S11649329EA0099301015000000000000
B0445103118508S11649385EA0098801009000000000000
B0445143118534S11649446EA0098000996000000000000
B0445183118561S11649508EA0096800987000000000000
B0445223118597S11649561EA0096300982000000000000
B0445263118634S11649615EA0095100967000000000000
B0445303118652S11649684EA0093900958000000000000
B0445343118651S11649758EA0093500954000000000000
B0445383118634S11649831EA0092400940000000000000
B0445423118599S11649898EA0091100928000000000000
B0445463118552S11649955EA0090100916000000000000
B0445503118504S11650011EA0088800899000000000000
B0445543118456S11650070EA0087400891000000000000
B0445583118411S11650127EA0087000888000000000000
B0446023118368S11650184EA0086500881000000000000
B0446063118324S11650241EA0086200880000000000000
B0446103118316S11650308EA0087300897000000000000
B0446143118370S11650314EA0089700923000000000000
B0446183118376S11650235EA0091500938000000000000
B0446223118318S11650196EA0092300946000000000000
B0446263118283S11650234EA0093500960000000000000
B0446303118319S11650274EA0094600970000000000000
B0446343118366S11650223EA0096000988000000000000
B0446383118335S11650146EA0097400999000000000000
B0446423118271S11650139EA0098501013000000000000
B0446463118253S11650189EA0099701027000000000000
B0446503118298S11650219EA0100801039000000000000
B0446543118340S11650161EA0102401060000000000000
B0446583118306S11650087EA0104101074000000000000
B0447023118244S11650076EA0105401089000000000000
B0447063118216S11650123EA0107001101000000000000
B0447103118255S11650162EA0107901109000000000000
B0447143118311S11650111EA0109101129000000000000
B0447183118297S11650029EA0111401153000000000000
B0447223118241S11650002EA0113301165000000000000
B0447263118203S11650041EA0114101174000000000000
B0447303118228S11650093EA0114901183000000000000
B0447343118287S11650066EA0117401215000000000000
B0447383118283S11649988EA0119801236000000000000
B0447423118227S11649961EA0121401248000000000000
B0447463118193S11650005EA0122401259000000000000
B0447503118225S11650053EA0124101282000000000000
B0447543118280S11650020EA0126701308000000000000
B0447583118276S11649940EA0128201327000000000000
B0448023118219S11649910EA0130101347000000000000
B0448063118193S11649957EA0131901362000000000000
B0448103118235S11649984EA0133901386000000000000
B0448143118277S11649931EA0136201409000000000000
B0448183118267S11649851EA0137901424000000000000
B0448223118210S11649815EA0139301439000000000000
B0448263118171S11649851EA0141301461000000000000
B0448303118194S11649896EA0143001476000000000000
B0448343118246S11649863EA0144601492000000000000
B0448383118235S11649784EA0145901505000000000000
B0448423118176S11649760EA0147601526000000000000
B0448463118141S11649802EA0149101540000000000000
B0448503118166S11649844EA0151201565000000000000
B0448543118212S11649827EA0154201597000000000000
B0448583118235S11649768EA0156301611000000000000
B0449023118209S11649697EA0157101618000000000000
B0449063118151S11649672EA0158301632000000000000
B0449103118107S11649703EA0159001640000000000000
B0449143118123S11649751EA0160501664000000000000
B0449183118175S11649736EA0162901686000000000000
B0449223118197S11649669EA0164701702000000000000
B0449263118163S11649606EA0166001712000000000000
B0449303118105S11649586EA0166701716000000000000
B0449343118060S11649624EA0167501726000000000000
B0449383118069S11649676EA0169101743000000000000
B0449423118120S11649677EA0170901761000000000000
B0449463118154S11649617EA0172601778000000000000
B0449503118137S11649542EA0173801790000000000000
B0449543118081S11649512EA0174901802000000000000
B0449583118027S11649529EA0175601808000000000000
B0450023118001S11649578EA0176401813000000000000
B0450063118032S11649623EA0176901823000000000000
B0450103118086S11649608EA0178401839000000000000
B0450143118106S11649530EA0179401846000000000000
B0450183118063S11649456EA0180501862000000000000
B0450223117995S11649444EA0181901874000000000000
B0450263117972S11649499EA0182901883000000000000
B0450303118019S11649520EA0184501902000000000000
B0450343118046S11649454EA0186201920000000000000
B0450383118006S11649385EA0187401930000000000000
B0450423117941S11649379EA0188501940000000000000
B0450463117915S11649430EA0189101946000000000000
B0450503117945S11649478EA0189901954000000000000
B0450543118002S11649469EA0191101964000000000000
B0450583118045S11649403EA0191601969000000000000
B0451023118042S11649313EA0192601983000000000000
B0451063117994S11649242EA0193601992000000000000
B0451103117925S11649233EA0194702004000000000000
B0451143117880S11649274EA0195402009000000000000
B0451183117851S11649338EA0194801995000000000000
B0451223117824S11649416EA0193301979000000000000
B0451263117794S11649499EA0192201965000000000000
B0451303117763S11649589EA0190901951000000000000
B0451343117728S11649681EA0189501939000000000000
B0451383117690S11649776EA0188101926000000000000
B0451423117650S11649872EA0187501924000000000000
B0451463117609S11649963EA0187301920000000000000
B0451503117573S11650052EA0187401923000000000000
B0451543117539S11650139EA0186401910000000000000
B0451583117509S11650227EA0185501899000000000000
B0452023117479S11650314EA0184301885000000000000
B0452063117452S11650401EA0183001872000000000000
B0452103117427S11650494EA0181201850000000000000
B0452143117401S11650592EA0179001829000000000000
B0452183117370S11650689EA0177501814000000000000
B0452223117334S11650783EA0176001800000000000000
B0452263117297S11650873EA0174801790000000000000
B0452303117266S11650962EA0174701793000000000000
B0452343117234S11651047EA0174401788000000000000
B0452383117200S11651131EA0174101783000000000000
B0452423117167S11651218EA0173201774000000000000
B0452463117131S11651306EA0172601772000000000000
B0452503117096S11651392EA0172901777000000000000
B0452543117061S11651476EA0174101793000000000000
B0452583117037S11651556EA0176401812000000000000
B0453023117027S11651634EA0176201800000000000000
B0453063117006S11651717EA0175101793000000000000
B0453103116979S11651800EA0174401789000000000000
B0453143116948S11651882EA0173501775000000000000
B0453183116910S11651968EA0172301758000000000000
B0453223116868S11652055EA0171301755000000000000
B0453263116827S11652141EA0172301774000000000000
B0453303116790S11652220EA0173401779000000000000
B0453343116755S11652298EA0173901788000000000000
B0453383116716S11652371EA0174901800000000000000
B0453423116676S11652442EA0175501797000000000000
B0453463116634S11652516EA0173901775000000000000
B0453503116586S11652597EA0171901759000000000000
B0453543116539S11652679EA0171101746000000000000
B0453583116491S11652761EA0169801734000000000000
B0454023116442S11652840EA0168801724000000000000
B0454063116390S11652922EA0167801716000000000000
B0454103116338S11653001EA0167201708000000000000
B0454143116286S11653081EA0166101695000000000000
B0454183116239S11653162EA0165901698000000000000
B0454223116197S11653243EA0166401700000000000000
B0454263116160S11653321EA0167001715000000000000
B0454303116126S11653398EA0168301720000000000000
B0454343116091S11653473EA0167801708000000000000
B0454383116056S11653552EA0166401693000000000000
B0454423116018S11653630EA0166001698000000000000
B0454463115986S11653702EA0167801713000000000000
B0454503115987S11653773EA0168001708000000000000
B0454543115980S11653851EA0166601693000000000000
B0454583115954S11653932EA0166501699000000000000
B0455023115917S11654005EA0167401710000000000000
B0455063115878S11654072EA0168301709000000000000
B0455103115835S11654144EA0166601683000000000000
B0455143115789S11654222EA0164401670000000000000
B0455183115740S11654299EA0163601659000000000000
B0455223115690S11654374EA0162101642000000000000
B0455263115640S11654447EA0160901635000000000000
B0455303115589S11654516EA0160501630000000000000
B0455343115541S11654586EA0160101624000000000000
B0455383115494S11654656EA0159501618000000000000
B0455423115449S11654726EA0158601607000000000000
B0455463115406S11654800EA0157601595000000000000
B0455503115363S11654876EA0156501585000000000000
B0455543115320S11654950EA0155701577000000000000
B0455583115277S11655023EA0154801565000000000000
B0456023115233S11655094EA0153201548000000000000
B0456063115186S11655164EA0151601534000000000000
B0456103115141S11655233EA0150601522000000000000
B0456143115098S11655302EA0149501514000000000000
B0456183115057S11655370EA0149201514000000000000
B0456223115018S11655436EA0148601501000000000000
B0456263114985S11655508EA0147601492000000000000
B0456303114953S11655579EA0146701482000000000000
B0456343114925S11655652EA0146101480000000000000
B0456383114899S11655723EA0145801474000000000000
B0456423114869S11655791EA0145401475000000000000
B0456463114835S11655851EA0146301487000000000000
B0456503114801S11655904EA0146901489000000000000
B0456543114767S11655959EA0146201477000000000000
B0456583114735S11656019EA0145301470000000000000
B0457023114704S11656081EA0144901466000000000000
B0457063114683S11656150EA0144501462000000000000
B0457103114673S11656219EA0144701465000000000000
B0457143114686S11656281EA0144801467000000000000
B0457183114712S11656336EA0144501462000000000000
B0457223114741S11656396EA0144101457000000000000
B0457263114777S11656453EA0144301464000000000000
B0457303114817S11656506EA0144801468000000000000
B0457343114856S11656559EA0145401475000000000000
B0457383114899S11656605EA0146601486000000000000
B0457423114952S11656578EA0147801501000000000000
B0457463114947S11656503EA0148401503000000000000
B0457503114886S11656467EA0148401507000000000000
B0457543114823S11656490EA0148901508000000000000
B0457583114818S11656550EA0149401521000000000000
B0458023114868S11656545EA0150701534000000000000
B0458063114887S11656483EA0151801542000000000000
B0458103114853S11656416EA0151801534000000000000
B0458143114784S11656403EA0151701538000000000000
B0458183114727S11656436EA0152201544000000000000
B0458223114706S11656496EA0152701549000000000000
B0458263114726S11656545EA0153201553000000000000
B0458303114762S11656581EA0153201554000000000000
B0458343114809S11656611EA0153001549000000000000
B0458383114860S11656646EA0152901549000000000000
B0458423114910S11656683EA0152501539000000000000
B0458463114962S11656730EA0151001523000000000000
B0458503114998S11656795EA0149201505000000000000
B0458543115018S11656871EA0148001496000000000000
B0458583115031S11656945EA0148201500000000000000
B0459023115027S11657017EA0148101496000000000000
B0459063115000S11657083EA0147801493000000000000
B0459103114960S11657146EA0146901484000000000000
B0459143114914S11657208EA0146401479000000000000
B0459183114869S11657268EA0146801490000000000000
B0459223114822S11657325EA0147401490000000000000
B0459263114777S11657384EA0147201490000000000000
B0459303114730S11657442EA0147601494000000000000
B0459343114688S11657502EA0147701494000000000000
B0459383114650S11657562EA0147501492000000000000
B0459423114615S11657625EA0147301491000000000000
B0459463114579S11657688EA0147601496000000000000
B0459503114519S11657727EA0147601488000000000000
B0459543114446S11657740EA0146801480000000000000
B0459583114387S11657780EA0145801468000000000000
B0500023114344S11657842EA0144701460000000000000
B0500063114309S11657909EA0143701446000000000000
B0500103114279S11657978EA0142601438000000000000
B0500143114250S11658049EA0141601427000000000000
B0500183114219S11658123EA0140201414000000000000
B0500223114185S11658197EA0139901411000000000000
B0500263114159S11658270EA0139501407000000000000
B0500303114133S11658343EA0138301388000000000000
B0500343114099S11658421EA0135801358000000000000
B0500383114060S11658504EA0133501337000000000000
B0500423114015S11658586EA0132101328000000000000
B0500463113964S11658667EA0131101316000000000000
B0500503113912S11658742EA0130701317000000000000
B0500543113860S11658815EA0131101322000000000000
B0500583113812S11658886EA0131401324000000000000
B0501023113765S11658955EA0131001315000000000000
B0501063113721S11659028EA0129701300000000000000
B0501103113683S11659103EA0129001293000000000000
B0501143113655S11659183EA0127701280000000000000
B0501183113620S11659262EA0126401266000000000000
B0501223113581S11659340EA0125101253000000000000
B0501263113547S11659422EA0124201244000000000000
B0501303113510S11659504EA0123001233000000000000
B0501343113467S11659581EA0122301224000000000000
B0501383113426S11659656EA0121301216000000000000
B0501423113413S11659738EA0120801209000000000000
B0501463113415S11659820EA0119901203000000000000
B0501503113423S11659898EA0119301195000000000000
B0501543113436S11659976EA0118501187000000000000
B0501583113453S11700052EA0117101170000000000000
B0502023113469S11700129EA0115701159000000000000
B0502063113475S11700203EA0114801150000000000000
B0502103113487S11700276EA0113701138000000000000
B0502143113522S11700337EA0113201135000000000000
B0502183113564S11700389EA0112101113000000000000
B0502223113583S11700466EA0109001079000000000000
B0502263113568S11700554EA0106201058000000000000
B0502303113527S11700631EA0105101052000000000000
B0502343113469S11700688EA0104301044000000000000
B0502383113399S11700723EA0103901039000000000000
B0502423113323S11700743EA0103401032000000000000
B0502463113249S11700769EA0102301019000000000000
B0502503113178S11700805EA0101001007000000000000
B0502543113107S11700840EA0099800995000000000000
B0502583113033S11700865EA0099100988000000000000
B0503023112958S11700883EA0098300981000000000000
B0503063112884S11700901EA0097500971000000000000
B0503103112808S11700923EA0097200972000000000000
B0503143112732S11700933EA0097800980000000000000
B0503183112654S11700933EA0098000982000000000000
B0503223112576S11700943EA0098500989000000000000
B0503263112525S11700986EA0100001009000000000000
B0503303112551S11701020EA0101801024000000000000
B0503343112581S11700961EA0102401025000000000000
B0503383112544S11700886EA0102701033000000000000
B0503423112479S11700878EA0103801046000000000000
B0503463112466S11700927EA0105001056000000000000
B0503503112511S11700936EA0105401059000000000000
B0503543112533S11700868EA0106201069000000000000
B0503583112494S11700797EA0106801072000000000000
B0504023112431S11700805EA0107401081000000000000
B0504063112426S11700858EA0108701098000000000000
B0504103112465S11700870EA0109501099000000000000
B0504143112489S11700801EA0109101099000000000000
B0504183112447S11700735EA0109701102000000000000
B0504223112385S11700740EA0110001109000000000000
B0504263112379S11700797EA0111201124000000000000
B0504303112425S11700792EA0112401132000000000000
B0504343112431S11700719EA0112701133000000000000
B0504383112381S11700671EA0112801137000000000000
B0504423112331S11700696EA0113801150000000000000
B0504463112342S11700747EA0114101148000000000000
B0504503112391S11700744EA0114701155000000000000
B0504543112411S11700674EA0115001155000000000000
B0504583112373S11700604EA0114901155000000000000
B0505023112309S11700576EA0115201159000000000000
B0505063112240S11700559EA0115001154000000000000
B0505103112182S11700589EA0114501149000000000000
B0505143112173S11700650EA0114601153000000000000
B0505183112201S11700699EA0114501149000000000000
B0505223112257S11700715EA0113701139000000000000
B0505263112321S11700695EA0113401138000000000000
B0505303112356S11700617EA0113101133000000000000
B0505343112340S11700526EA0112601129000000000000
B0505383112300S11700441EA0112201126000000000000
B0505423112255S11700359EA0112701135000000000000
B0505463112191S11700315EA0114101148000000000000
B0505503112153S11700355EA0114501149000000000000
B0505543112182S11700396EA0113901145000000000000
B0505583112234S11700377EA0114101148000000000000
B0506023112268S11700310EA0114001148000000000000
B0506063112277S11700224EA0114401153000000000000
B0506103112230S11700168EA0115201165000000000000
B0506143112188S11700194EA0116801175000000000000
B0506183112200S11700241EA0116301160000000000000
B0506223112256S11700244EA0115501164000000000000
B0506263112291S11700181EA0116201168000000000000
B0506303112284S11700099EA0116501174000000000000
B0506343112255S11700021EA0117201181000000000000
B0506383112196S11700010EA0118001190000000000000
B0506423112188S11700056EA0118701195000000000000
B0506463112238S11700077EA0118501193000000000000
B0506503112288S11700026EA0119001200000000000000
B0506543112287S11659941EA0120201211000000000000
B0506583112229S11659896EA0120501215000000000000
B0507023112179S11659922EA0121101228000000000000
B0507063112196S11659964EA0122501239000000000000
B0507103112252S11659950EA0123001241000000000000
B0507143112269S11659872EA0124101256000000000000
B0507183112229S11659808EA0124801254000000000000
B0507223112166S11659807EA0124001248000000000000
B0507263112149S11659860EA0124601264000000000000
B0507303112187S11659891EA0126001270000000000000
B0507343112242S11659859EA0126101274000000000000
B0507383112255S11659781EA0127401293000000000000
B0507423112216S11659718EA0128301293000000000000
B0507463112156S11659707EA0128001290000000000000
B0507503112122S11659748EA0128401299000000000000
B0507543112151S11659786EA0129501311000000000000
B0507583112204S11659763EA0130301319000000000000
B0508023112216S11659686EA0131101328000000000000
B0508063112167S11659631EA0131701328000000000000
B0508103112113S11659644EA0131501332000000000000
B0508143112101S11659692EA0132101333000000000000
B0508183112154S11659704EA0132201338000000000000
B0508223112204S11659649EA0133201352000000000000
B0508263112201S11659565EA0134601364000000000000
B0508303112157S11659509EA0134701355000000000000
B0508343112100S11659516EA0134301356000000000000
B0508383112086S11659564EA0135101367000000000000
B0508423112113S11659609EA0135201364000000000000
B0508463112148S11659659EA0135101365000000000000
B0508503112171S11659720EA0134801358000000000000
B0508543112180S11659792EA0134201352000000000000
B0508583112184S11659870EA0133601348000000000000
B0509023112191S11659950EA0133801351000000000000
B0509063112193S11700026EA0134501363000000000000
B0509103112196S11700099EA0136101378000000000000
B0509143112245S11700132EA0138701408000000000000
B0509183112281S11700067EA0140401423000000000000
B0509223112251S11659999EA0142001442000000000000
B0509263112192S11659987EA0143601455000000000000
B0509303112154S11700028EA0144501460000000000000
B0509343112178S11700073EA0146301484000000000000
B0509383112227S11700055EA0147601493000000000000
B0509423112243S11659981EA0148401504000000000000
B0509463112203S11659924EA0150001524000000000000
B0509503112147S11659925EA0151301535000000000000
B0509543112123S11659973EA0152301552000000000000
B0509583112162S11659993EA0154301568000000000000
B0510023112203S11659941EA0155101573000000000000
B0510063112190S11659864EA0156301588000000000000
B0510103112134S11659831EA0157701600000000000000
B0510143112082S11659854EA0158501607000000000000
B0510183112080S11659908EA0159801628000000000000
B0510223112127S11659917EA0161701645000000000000
B0510263112162S11659859EA0162701652000000000000
B0510303112139S11659783EA0163601663000000000000
B0510343112079S11659772EA0164901677000000000000
B0510383112062S11659821EA0166501693000000000000
B0510423112109S11659837EA0167801705000000000000
B0510463112145S11659774EA0169101722000000000000
B0510503112122S11659701EA0170501732000000000000
B0510543112065S11659687EA0171201741000000000000
B0510583112032S11659729EA0172101752000000000000
B0511023112061S11659766EA0173501768000000000000
B0511063112114S11659740EA0174601777000000000000
B0511103112130S11659665EA0175901793000000000000
B0511143112086S11659614EA0177201802000000000000
B0511183112032S11659634EA0177801810000000000000
B0511223112023S11659688EA0179301827000000000000
B0511263112069S11659709EA0180601836000000000000
B0511303112104S11659646EA0181101841000000000000
B0511343112071S11659575EA0182301859000000000000
B0511383112014S11659561EA0183801871000000000000
B0511423111975S11659600EA0185001885000000000000
B0511463111992S11659648EA0186401897000000000000
B0511503112045S11659648EA0187001900000000000000
B0511543112076S11659583EA0187501908000000000000
B0511583112050S11659517EA0188701924000000000000
B0512023111995S11659509EA0189901931000000000000
B0512063111961S11659553EA0191001947000000000000
B0512103111958S11659609EA0191501945000000000000
B0512143111961S11659679EA0189701917000000000000
B0512183111961S11659763EA0188001904000000000000
B0512223111957S11659852EA0186301887000000000000
B0512263111948S11659946EA0184501867000000000000
B0512303111932S11700039EA0183801863000000000000
B0512343111911S11700127EA0183401858000000000000
B0512383111883S11700211EA0182401845000000000000
B0512423111845S11700293EA0181101834000000000000
B0512463111802S11700374EA0180201826000000000000
B0512503111758S11700450EA0179901827000000000000
B0512543111714S11700526EA0180701835000000000000
B0512583111668S11700601EA0181401844000000000000
B0513023111625S11700675EA0182501857000000000000
B0513063111580S11700747EA0183701869000000000000
B0513103111536S11700818EA0184201873000000000000
B0513143111494S11700891EA0184701883000000000000
B0513183111456S11700965EA0186401902000000000000
B0513223111419S11701040EA0188301918000000000000
B0513263111382S11701118EA0188301909000000000000
B0513303111346S11701199EA0187401902000000000000
B0513343111309S11701284EA0186401890000000000000
B0513383111270S11701371EA0185201876000000000000
B0513423111222S11701454EA0184301872000000000000
B0513463111160S11701525EA0184601879000000000000
B0513503111091S11701588EA0184901875000000000000
B0513543111013S11701645EA0183901865000000000000
B0513583110927S11701692EA0183301858000000000000
B0514023110838S11701733EA0182601851000000000000
B0514063110748S11701771EA0181701842000000000000
B0514103110656S11701806EA0181101837000000000000
B0514143110567S11701839EA0180401830000000000000
B0514183110481S11701874EA0180001824000000000000
B0514223110399S11701911EA0179501822000000000000
B0514263110319S11701950EA0179101815000000000000
B0514303110237S11701986EA0178801811000000000000
B0514343110150S11702000EA0178601812000000000000
B0514383110060S11701995EA0179401827000000000000
B0514423109972S11701980EA0180501834000000000000
B0514463109886S11701958EA0181301846000000000000
B0514503109804S11701926EA0182401855000000000000
B0514543109725S11701887EA0182701860000000000000
B0514583109645S11701841EA0183001859000000000000
B0515023109566S11701793EA0183301868000000000000
B0515063109486S11701744EA0183301862000000000000
B0515103109401S11701693EA0183301866000000000000
B0515143109317S11701641EA0183901872000000000000
B0515183109232S11701589EA0183401860000000000000
B0515223109144S11701534EA0182501853000000000000
B0515263109057S11701480EA0182001851000000000000
B0515303108972S11701423EA0182001849000000000000
B0515343108889S11701365EA0181701844000000000000
B0515383108803S11701310EA0180101821000000000000
B0515423108713S11701254EA0178001801000000000000
B0515463108626S11701193EA0176101779000000000000
B0515503108538S11701126EA0174101764000000000000
B0515543108451S11701059EA0173501760000000000000
B0515583108365S11700987EA0172701750000000000000
B0516023108282S11700913EA0171701739000000000000
B0516063108200S11700836EA0171401740000000000000
B0516103108119S11700761EA0172501758000000000000
B0516143108046S11700689EA0175001790000000000000
B0516183107971S11700643EA0178101821000000000000
B0516223107922S11700674EA0180501837000000000000
B0516263107953S11700710EA0181201842000000000000
B0516303108002S11700669EA0182001854000000000000
B0516343108007S11700584EA0183501875000000000000
B0516383107974S11700507EA0184901880000000000000
B0516423107909S11700463EA0185401887000000000000
B0516463107836S11700424EA0185001874000000000000
B0516503107753S11700370EA0184001867000000000000
B0516543107667S11700311EA0183501864000000000000
B0516583107581S11700251EA0183001856000000000000
B0517023107500S11700185EA0182201847000000000000
B0517063107419S11700116EA0180601825000000000000
B0517103107335S11700045EA0178701809000000000000
B0517143107253S11659972EA0177501796000000000000
B0517183107172S11659896EA0175901780000000000000
B0517223107088S11659821EA0174601770000000000000
B0517263107006S11659746EA0173801760000000000000
B0517303106923S11659670EA0172801750000000000000
B0517343106839S11659595EA0172301744000000000000
B0517383106754S11659522EA0171801742000000000000
B0517423106671S11659451EA0171201732000000000000
B0517463106588S11659380EA0169801717000000000000
B0517503106502S11659314EA0168401701000000000000
B0517543106414S11659250EA0166501683000000000000
B0517583106328S11659185EA0165801681000000000000
B0518023106243S11659120EA0164801662000000000000
B0518063106155S11659055EA0163001642000000000000
B0518103106067S11658992EA0161601631000000000000
B0518143105979S11658927EA0160801623000000000000
B0518183105895S11658858EA0159701615000000000000
B0518223105810S11658786EA0158801604000000000000
B0518263105725S11658717EA0157701590000000000000
B0518303105640S11658646EA0156301577000000000000
B0518343105557S11658570EA0154601559000000000000
B0518383105475S11658489EA0153401550000000000000
B0518423105396S11658405EA0153201549000000000000
B0518463105315S11658323EA0153101549000000000000
B0518503105232S11658248EA0152701536000000000000
B0518543105145S11658179EA0151201530000000000000
B0518583105059S11658118EA0152701553000000000000
B0519023104975S11658065EA0154501569000000000000
B0519063104891S11658017EA0156601594000000000000
B0519103104816S11657998EA0160001633000000000000
B0519143104791S11658052EA0162601651000000000000
B0519183104839S11658078EA0163001652000000000000
B0519223104877S11658014EA0162901652000000000000
B0519263104854S11657932EA0164001668000000000000
B0519303104794S11657884EA0165901686000000000000
B0519343104728S11657896EA0167401699000000000000
B0519383104709S11657954EA0168201711000000000000
B0519423104754S11657974EA0169401726000000000000
B0519463104795S11657930EA0170101723000000000000
B0519503104798S11657850EA0170301733000000015000
B0519543104752S11657788EA0171701746000000015000
B0519583104686S11657749EA0172101741000000000000
B0520023104609S11657716EA0171101730000000000000
B0520063104526S11657680EA0170001721000000000000
B0520103104439S11657641EA0168901706000000000000
B0520143104349S11657599EA0167701692000000000000
B0520183104257S11657551EA0166101677000000000000
B0520223104167S11657498EA0164901668000000000000
B0520263104079S11657443EA0163601654000000000000
B0520303103992S11657385EA0162901648000000000000
B0520343103907S11657322EA0162501639000000000000
B0520383103829S11657246EA0161301629000000000000
B0520423103759S11657160EA0160401619000000000000
B0520463103693S11657069EA0159401612000000000000
B0520503103630S11656977EA0158901607000000000000
B0520543103569S11656886EA0158301601000000000000
B0520583103508S11656795EA0157701594000000000000
B0521023103438S11656714EA0156801583000000000000
B0521063103353S11656663EA0156401582000000000000
B0521103103269S11656635EA0156101578000000000000
B0521143103183S11656619EA0155401571000000000000
B0521183103101S11656611EA0154801567000000000000
B0521223103019S11656604EA0154301560000000000000
B0521263102940S11656597EA0153901556000000000000
B0521303102861S11656589EA0153601556000000000000
B0521343102783S11656581EA0152901544000000000000
B0521383102703S11656574EA0151801534000000000000
B0521423102623S11656561EA0151001524000000000000
B0521463102545S11656545EA0150201517000000000000
B0521503102467S11656536EA0149501508000000000000
B0521543102386S11656529EA0148401495000000000000
B0521583102306S11656535EA0147501491000000000000
B0522023102232S11656554EA0147501490000000000000
B0522063102163S11656587EA0146201476000000000000
B0522103102094S11656620EA0145801474000000000000
B0522143102033S11656657EA0145701472000000000000
B0522183101985S11656706EA0145401469000000000000
B0522223101951S11656763EA0144601455000000000000
B0522263101909S11656821EA0142401430000000000000
B0522303101849S11656870EA0140101406000000000000
B0522343101774S11656903EA0138501396000000000000
B0522383101696S11656926EA0138101393000000000000
B0522423101619S11656953EA0136901378000000000000
B0522463101543S11656988EA0136601380000000000000
B0522503101470S11657026EA0137801395000000000000
B0522543101450S11657090EA0139501410000000000000
B0522583101504S11657107EA0140801429000000000000
B0523023101548S11657051EA0142101439000000000000
B0523063101544S11656964EA0143201455000000000000
B0523103101491S11656913EA0145101476000000000000
B0523143101444S11656929EA0146601485000000000000
B0523183101445S11656970EA0146601479000000000000
B0523223101493S11656969EA0146401486000000000000
B0523263101531S11656906EA0147601498000000000000
B0523303101520S11656823EA0148801509000000000000
B0523343101462S11656788EA0149901523000000000000
B0523383101435S11656822EA0152101547000000000000
B0523423101465S11656838EA0152901544000000000000
B0523463101511S11656788EA0152201541000000000000
B0523503101515S11656702EA0153401558000000000000
B0523543101484S11656624EA0154001556000000000000
B0523583101420S11656585EA0153901558000000000000
B0524023101355S11656593EA0154401569000000000000
B0524063101329S11656636EA0155701579000000000000
B0524103101363S11656669EA0155801572000000000000
B0524143101423S11656640EA0155201569000000000000
B0524183101436S11656558EA0155701584000000000000
B0524223101414S11656476EA0156701586000000000000
B0524263101376S11656394EA0156601586000000000000
B0524303101323S11656320EA0156801587000000000000
B0524343101258S11656254EA0156401582000000000000
B0524383101186S11656195EA0156101579000000000000
B0524423101111S11656141EA0154901565000000000000
B0524463101032S11656087EA0153701547000000000000
B0524503100950S11656043EA0152101531000000000000
B0524543100867S11655991EA0150101508000000000000
B0524583100787S11655922EA0148001486000000000000
B0525023100712S11655839EA0145901466000000000000
B0525063100643S11655746EA0144301452000000000000
B0525103100578S11655643EA0143501444000000000000
B0525143100522S11655535EA0142701437000000000000
B0525183100474S11655423EA0142801440000000000000
B0525223100426S11655315EA0144001454000000000000
B0525263100354S11655268EA0146701486000000000000
B0525303100313S11655304EA0146901476000000000000
B0525343100340S11655348EA0144301445000000000000
B0525383100400S11655336EA0143201445000000000000
B0525423100443S11655279EA0143601458000000000000
B0525463100449S11655201EA0144801462000000000000
B0525503100415S11655129EA0144901462000000000000
B0525543100363S11655066EA0143601438000000000000
B0525583100306S11654990EA0141701423000000000000
B0526023100253S11654902EA0140701414000000000000
B0526063100202S11654806EA0140901421000000000000
B0526103100146S11654722EA0143301456000000000000
B0526143100093S11654737EA0146601487000000000000
B0526183100114S11654781EA0147401488000000000000
B0526223100171S11654752EA0148001499000000000000
B0526263100179S11654669EA0149801522000000000000
B0526303100135S11654609EA0151601537000000000000
B0526343100084S11654621EA0153201555000000000000
B0526383100083S11654672EA0154201558000000000000
B0526423100127S11654696EA0154401569000000000000
B0526463100171S11654651EA0155901587000000000000
B0526503100171S11654572EA0157701605000000000000
B0526543100127S11654513EA0159201619000000000000
B0526583100072S11654517EA0160601634000000000000
B0527023100062S11654565EA0162301652000000000000
B0527063100092S11654602EA0163001649000000000000
B0527103100149S11654585EA0163201661000000000000
B0527143100179S11654513EA0165001679000000000000
B0527183100163S11654431EA0166301690000000000000
B0527223100110S11654378EA0167701707000000000000
B0527263100055S11654383EA0169101722000000015000
B0527303100046S11654431EA0170001727000000000000
B0527343100085S11654466EA0170801739000000000000
B0527383100140S11654452EA0171901751000000000000
B0527423100167S11654379EA0173301761000000000000
B0527463100137S11654297EA0173901770000000015000
B0527503100074S11654269EA0175701790000000015000
B0527543100032S11654306EA0177001798000000015000
B0527583100050S11654357EA0177701806000000000000
B0528023100107S11654365EA0178501814000000000000
B0528063100155S11654309EA0179201826000000015000
B0528103100154S11654225EA0180101830000000000000
B0528143100120S11654143EA0179501816000000000000
B0528183100075S11654049EA0178001800000000000000
B0528223100024S11653945EA0176801786000000000000
B0528263059967S11653838EA0175901784000000000000
B0528303059906S11653734EA0175401776000000000000
B0528343059840S11653628EA0174701769000000000000
B0528383059775S11653524EA0175201779000000000000
B0528423059712S11653421EA0175201771000000000000
B0528463059654S11653317EA0174201762000000000000
B0528503059596S11653213EA0173801761000000000000
B0528543059547S11653116EA0174101762000000000000
B0528583059500S11653016EA0173201746000000000000
B0529023059453S11652908EA0171601728000000000000
B0529063059404S11652796EA0170001716000000000000
B0529103059356S11652685EA0169201708000000000000
B0529143059305S11652574EA0167901691000000000000
B0529183059253S11652463EA0166501679000000000000
B0529223059204S11652353EA0166001680000000000000
B0529263059160S11652246EA0165501670000000000000
B0529303059110S11652138EA0163701652000000000000
B0529343059058S11652029EA0162501636000000000000
B0529383059004S11651920EA0160801617000000000000
B0529423058946S11651810EA0159401608000000000000
B0529463058891S11651706EA0160001622000000000000
B0529503058833S11651614EA0161201629000000000000
B0529543058774S11651524EA0160701619000000000000
B0529583058712S11651439EA0161301635000000000000
B0530023058657S11651362EA0163201655000000000000
B0530063058599S11651287EA0164601667000000000000
B0530103058534S11651248EA0166701691000000000000
B0530143058497S11651288EA0168401702000000000000
B0530183058521S11651336EA0168301699000000000000
B0530223058586S11651332EA0167701691000000000000
B0530263058642S11651267EA0166901687000000000000
B0530303058668S11651170EA0167201697000000000000
B0530343058667S11651069EA0168101701000000000000
B0530383058641S11650976EA0167801697000000000000
B0530423058594S11650887EA0167001687000000000000
B0530463058538S11650799EA0166001675000000000000
B0530503058476S11650708EA0164601660000000000000
B0530543058417S11650613EA0164401664000000000000
B0530583058365S11650525EA0164601660000000000000
B0531023058311S11650435EA0164001654000000000000
B0531063058256S11650345EA0163401647000000000000
B0531103058199S11650254EA0162701643000000000000
B0531143058142S11650167EA0162401641000000000000
B0531183058087S11650079EA0161401626000000000000
B0531223058030S11649990EA0159901614000000000000
B0531263057971S11649903EA0159401609000000000000
B0531303057909S11649820EA0158801598000000000000
B0531343057847S11649736EA0157401579000000000000
B0531383057780S11649652EA0155101559000000000000
B0531423057714S11649568EA0154101554000000000000
B0531463057654S11649481EA0153501547000000000000
B0531503057594S11649394EA0152701537000000000000
B0531543057532S11649308EA0151501525000000000000
B0531583057467S11649223EA0149901505000000000000
B0532023057396S11649148EA0149301504000000000000
B0532063057324S11649082EA0148301486000000000000
B0532103057250S11649008EA0146401465000000000000
B0532143057186S11648921EA0144801453000000000000
B0532183057130S11648827EA0143601439000000000000
B0532223057078S11648727EA0142401426000000000000
B0532263057028S11648627EA0141601425000000000000
B0532303056981S11648527EA0141601425000000000000
B0532343056930S11648424EA0141401422000000000000
B0532383056872S11648328EA0141601427000000000000
B0532423056812S11648241EA0142801444000000000000
B0532463056749S11648167EA0143901454000000000000
B0532503056688S11648096EA0144701462000000000000
B0532543056627S11648027EA0145301468000000000000
B0532583056562S11647964EA0145801469000000000000
B0533023056487S11647927EA0145501463000000000000
B0533063056411S11647879EA0144601456000000000000
B0533103056344S11647816EA0143701443000000000000
B0533143056293S11647725EA0142901437000000000000
B0533183056252S11647627EA0142801438000000000000
B0533223056205S11647535EA0142901437000000000000
B0533263056148S11647452EA0142001425000000000000
B0533303056079S11647379EA0141201421000000000000
B0533343056007S11647314EA0140601414000000000000
B0533383055933S11647247EA0139501402000000000000
B0533423055856S11647181EA0138701391000000000000
B0533463055776S11647117EA0137701379000000000000
B0533503055691S11647063EA0136501370000000000000
B0533543055605S11647016EA0135601360000000000000
B0533583055520S11646974EA0135301362000000000000
B0534023055434S11646943EA0136701380000000000000
B0534063055371S11646963EA0139801419000000000000
B0534103055388S11647007EA0143201450000000000000
B0534143055444S11646985EA0144601458000000000000
B0534183055466S11646906EA0145701474000000000000
B0534223055434S11646835EA0146901483000000000000
B0534263055375S11646820EA0147601491000000000000
B0534303055348S11646863EA0149001510000000000000
B0534343055381S11646896EA0151001528000000000000
B0534383055434S11646868EA0152001535000000000000
B0534423055452S11646790EA0152801547000000000000
B0534463055420S11646722EA0153701556000000000000
B0534503055364S11646716EA0154201561000000000000
B0534543055347S11646763EA0155401577000000000000
B0534583055386S11646789EA0157001592000000000000
B0535023055434S11646739EA0157901597000000000000
B0535063055431S11646655EA0158601607000000000000
B0535103055379S11646612EA0159201613000000000000
B0535143055334S11646630EA0160301627000000000000
B0535183055332S11646673EA0161501641000000000000
B0535223055378S11646686EA0162701651000000000000
B0535263055427S11646636EA0163401654000000000000
B0535303055427S11646552EA0164001662000000000000
B0535343055382S11646496EA0164601668000000000000
B0535383055326S11646482EA0164901668000000000000
B0535423055299S11646529EA0164601670000000000000
B0535463055309S11646588EA0165301677000000000000
B0535503055347S11646631EA0166301689000000000000
B0535543055408S11646591EA0167101690000000000000
B0535583055421S11646495EA0167401698000000000000
B0536023055371S11646425EA0168601713000000000000
B0536063055312S11646428EA0170201733000000000000
B0536103055316S11646479EA0172201751000000000000
B0536143055370S11646478EA0173301760000000000000
B0536183055404S11646401EA0174101767000000000000
B0536223055375S11646319EA0174901775000000000000
B0536263055314S11646288EA0175701786000000000000
B0536303055270S11646318EA0176901807000000000000
B0536343055278S11646365EA0178601816000000000000
B0536383055330S11646374EA0179101815000000000000
B0536423055377S11646313EA0179201822000000000000
B0536463055370S11646227EA0180101832000000000000
B0536503055319S11646168EA0180601834000000000000
B0536543055257S11646159EA0181601849000000000000
B0536583055241S11646207EA0182701860000000000000
B0537023055287S11646222EA0183901871000000000000
B0537063055334S11646170EA0184501877000000000000
B0537103055331S11646084EA0185001880000000000000
B0537143055286S11646010EA0184801872000000000000
B0537183055232S11645931EA0183301851000000000000
B0537223055171S11645850EA0182201848000000000000
B0537263055111S11645772EA0182901862000000000000
B0537303055056S11645697EA0184001864000000000000
B0537343055000S11645616EA0182901845000000000000
B0537383054940S11645528EA0181301831000000000000
B0537423054881S11645438EA0180101821000000000000
B0537463054822S11645348EA0179401814000000000000
B0537503054766S11645257EA0179401817000000000000
B0537543054712S11645166EA0180001832000000000000
B0537583054663S11645079EA0182201851000000000000
B0538023054614S11644995EA0183401861000000000000
B0538063054560S11644911EA0185301883000000000000
B0538103054491S11644888EA0187301913000000000000
B0538143054477S11644932EA0189401923000000000000
B0538183054524S11644948EA0190001927000000000000
B0538223054576S11644902EA0191401951000000000000
B0538263054590S11644815EA0193501969000000000000
B0538303054556S11644731EA0195001986000000000000
B0538343054493S11644696EA0196602003000000000000
B0538383054448S11644729EA0198402020000000000000
B0538423054459S11644775EA0199802034000000000000
B0538463054512S11644772EA0200702042000000000000
B0538503054552S11644701EA0202502063000000000000
B0538543054542S11644610EA0204602082000000000000
B0538583054482S11644559EA0205802094000000000000
B0539023054428S11644586EA0206902114000000000000
B0539063054433S11644633EA0209202137000000000000
B0539103054480S11644640EA0210702145000000000000
B0539143054529S11644584EA0211802161000000000000
B0539183054534S11644493EA0213902182000000000000
B0539223054486S11644433EA0215802201000000000000
B0539263054434S11644455EA0217002206000000000000
B0539303054438S11644510EA0218302228000000000000
B0539343054489S11644520EA0220202248000000000000
B0539383054541S11644464EA0222102267000000000000
B0539423054539S11644376EA0224402291000000000000
B0539463054485S11644334EA0226402310000000000000
B0539503054439S11644361EA0227502317000000000000
B0539543054456S11644411EA0228202329000000000000
B0539583054515S11644395EA0230602358000000000000
B0540023054546S11644319EA0232702373000000000000
B0540063054519S11644239EA0233902395000000000000
B0540103054460S11644213EA0236002410000000000000
B0540143054420S11644257EA0237202420000000000000
B0540183054443S11644306EA0238902442000000000000
B0540223054498S11644285EA0241002463000000000000
B0540263054512S11644202EA0243002479000000000000
B0540303054468S11644133EA0244102492000000000000
B0540343054408S11644085EA0245202502000000000000
B0540383054344S11644033EA0245702503000000000000
B0540423054282S11643968EA0245602499000000000000
B0540463054217S11643890EA0245402498000000000000
B0540503054148S11643813EA0245902505000000000000
B0540543054078S11643744EA0246402512000000000000
B0540583054010S11643683EA0246102499000000000000
B0541023053939S11643618EA0243802471000000000000
B0541063053860S11643548EA0242002458000000000000
B0541103053783S11643471EA0240902448000000000000
B0541143053707S11643392EA0240402447000000000000
B0541183053639S11643315EA0240902453000000000000
B0541223053574S11643238EA0240902448000000000000
B0541263053511S11643162EA0239702435000000000000
B0541303053449S11643085EA0239202433000000000000
B0541343053392S11643006EA0238502427000000000000
