ACAM4N6
HFDTE251020
HFFXA050
HFPLTPILOT:JOHN WELSH              
HFGTYGLIDERTYPE:HORNET      
HFGIDGLIDERID:VH-GMY      
HFDTM100GPSDATUM:
HFRFWFIRMWAREVERSION:F2.6
HFRHWHARDWAREVERSION:300 Series Version 2
HFFTYFRTYPE:CAMBRIDGE AERO INSTRUMENTS, 302+
HFGPS:GARMIN,LVS-25,12,18000
HFPRSPRESSALTSENSOR:INTERSEMA, MS5534-AP, 20000
I033638FXA3941ENL4247REX
LCAMSBVER:5FWVER:F26300
C251020032240251020000102
C0000000N00000000WTAKEOFF     
C3207549S11656849EBEVERLEY AF 
C3320333S11644515EDarkin      
C3220283S11752282ECorrigin    
C3207549S11656849EBEVERLEY AF 
C0000000N00000000WLANDING     
B0333313207736S11657096EA0020900203000000000000
B0333333207736S11657096EA0020800203000000000000
B0333353207736S11657096EA0020800203000000000000
B0333373207736S11657096EA0020900203000000000000
B0333393207736S11657096EA0020900203000000000000
B0333413207736S11657096EA0020900203000000000000
B0333433207736S11657096EA0020900203000000000000
B0333453207736S11657096EA0020800203000000000000
B0333473207736S11657096EA0020800203000000000000
B0333493207736S11657096EA0020800203000000000000
B0333513207736S11657096EA0020800203000000000000
B0333533207736S11657095EA0020800203000000000000
B0333553207735S11657095EA0020800203000000000000
B0333573207733S11657095EA0020900203000000000000
B0333593207731S11657094EA0020900203000000000000
B0334023207716S11657088EA0020900203000000000000
B0334063207681S11657073EA0020900204000000000000
B0334103207633S11657046EA0021100205000000000000
B0334143207575S11657010EA0021300207000000000000
B0334183207510S11656973EA0021900216000000000000
B0334223207441S11656939EA0023000226000000000000
B0334263207373S11656906EA0024300243000000000000
B0334303207310S11656877EA0026100269000000000000
B0334343207251S11656851EA0028700295000000000000
B0334383207194S11656819EA0029900306000000000000
B0334423207135S11656787EA0031100320000000000000
B0334463207083S11656743EA0032500338000000000000
B0334503207043S11656680EA0034800362000000000000
B0334543207016S11656601EA0036000369000000000000
B0334583207004S11656509EA0037100382000000000000
B0335023207014S11656414EA0038700404000000000000
B0335063207042S11656324EA0041500432000000000000
B0335103207092S11656246EA0044000455000000000000
B0335143207167S11656185EA0045100452000000000000
B0335183207252S11656149EA0046200474000000000000
B0335223207338S11656138EA0049000507000000000000
B0335263207420S11656152EA0052300539000000000000
B0335303207493S11656188EA0054900565000000000000
B0335343207559S11656236EA0056500587000000000000
B0335383207611S11656294EA0058800615000000000000
B0335423207650S11656360EA0061500637000000000000
B0335463207679S11656432EA0063300650000000000000
B0335503207701S11656505EA0064300656000000015000
B0335543207723S11656579EA0065500663000000015000
B0335583207733S11656654EA0066400673000000015000
B0336023207726S11656727EA0067800679000000015000
B0336063207706S11656797EA0068900689000000015000
B0336103207687S11656866EA0070400708000000015000
B0336143207674S11656934EA0072600732000000015000
B0336183207666S11657007EA0074300742000000015000
B0336223207681S11657083EA0076400770000000015000
B0336263207720S11657153EA0078300794000000015000
B0336303207774S11657217EA0079900805000000015000
B0336343207839S11657263EA0081500818000000015000
B0336383207911S11657277EA0082400824000000015000
B0336423207978S11657237EA0082100826000000015000
B0336463208012S11657163EA0082100826000000015000
B0336503208008S11657086EA0081900832000000015000
B0336543207980S11657027EA0081800831000000015000
B0336583207937S11657023EA0082300841000000000000
B0337023207910S11657060EA0082500842000000000000
B0337063207921S11657120EA0082200838000000000000
B0337103207976S11657156EA0081700834000000000000
B0337143208044S11657129EA0081400825000000015000
B0337183208083S11657057EA0080300815000000015000
B0337223208104S11656974EA0079500813000000000000
B0337263208105S11656893EA0079400816000000000000
B0337303208086S11656825EA0080100825000000000000
B0337343208043S11656812EA0081600842000000000000
B0337383208056S11656860EA0082900856000000000000
B0337423208118S11656857EA0084200866000000015000
B0337463208151S11656792EA0085200876000000015000
B0337503208125S11656739EA0085600881000000015000
B0337543208088S11656763EA0086900898000000015000
B0337583208118S11656809EA0088800916000000015000
B0338023208181S11656789EA0089300921000000015000
B0338063208205S11656722EA0090000932000000015000
B0338103208178S11656672EA0090800937000000015000
B0338143208140S11656696EA0091200941000000015000
B0338183208171S11656747EA0092600963000000015000
B0338223208238S11656734EA0094100972000000015000
B0338263208259S11656663EA0095300983000000015000
B0338303208220S11656627EA0095900986000000015000
B0338343208187S11656661EA0096700996000000015000
B0338383208233S11656704EA0098101018000000015000
B0338423208298S11656685EA0099301022000000015000
B0338463208327S11656615EA0099901033000000015000
B0338503208305S11656557EA0101101044000000015000
B0338543208262S11656554EA0102201057000000000000
B0338583208249S11656597EA0103201065000000000000
B0339023208298S11656630EA0103901072000000000000
B0339063208357S11656592EA0104501077000000015000
B0339103208359S11656519EA0104901082000000015000
B0339143208312S11656500EA0105801095000000015000
B0339183208301S11656544EA0107301108000000015000
B0339223208357S11656570EA0107901111000000015000
B0339263208416S11656531EA0108701119000000015000
B0339303208429S11656459EA0109401127000000015000
B0339343208390S11656428EA0110201139000000015000
B0339383208372S11656464EA0111801153000000015000
B0339423208409S11656496EA0112201148000000000000
B0339463208472S11656467EA0111501152000000015000
B0339503208498S11656396EA0112501161000000015000
B0339543208478S11656331EA0113001165000000015000
B0339583208433S11656320EA0113801174000000015000
B0340023208426S11656370EA0115001190000000015000
B0340063208482S11656389EA0116301201000000015000
B0340103208530S11656332EA0117201209000000015000
B0340143208513S11656264EA0118101223000000015000
B0340183208470S11656267EA0119101230000000015000
B0340223208472S11656320EA0120101245000000015000
B0340263208522S11656345EA0121901261000000015000
B0340303208581S11656310EA0122901271000000015000
B0340343208599S11656237EA0123701279000000015000
B0340383208568S11656184EA0124501285000000015000
B0340423208525S11656193EA0125301292000000015000
B0340463208521S11656246EA0125901297000000000000
B0340503208577S11656276EA0127001311000000000000
B0340543208638S11656232EA0128401322000000015000
B0340583208639S11656154EA0129201333000000015000
B0341023208595S11656128EA0129901337000000015000
B0341063208576S11656171EA0130701351000000000000
B0341103208619S11656206EA0132201367000000000000
B0341143208680S11656176EA0133201375000000015000
B0341183208698S11656100EA0134201386000000015000
B0341223208664S11656046EA0134701387000000015000
B0341263208616S11656047EA0134801391000000000000
B0341303208595S11656097EA0135501401000000000000
B0341343208629S11656147EA0136201410000000000000
B0341383208697S11656152EA0137501421000000000000
B0341423208755S11656097EA0138301426000000000000
B0341463208764S11656012EA0138701434000000015000
B0341503208724S11655956EA0139201434000000015000
B0341543208673S11655969EA0139401441000000015000
B0341583208667S11656028EA0140101448000000015000
B0342023208720S11656064EA0140801452000000015000
B0342063208789S11656022EA0140701449000000015000
B0342103208819S11655937EA0141501460000000015000
B0342143208805S11655853EA0141801457000000015000
B0342183208755S11655804EA0141301453000000015000
B0342223208699S11655804EA0140801441000000015000
B0342263208652S11655842EA0139501432000000000000
B0342303208613S11655895EA0139001432000000000000
B0342343208581S11655951EA0138901426000000000000
B0342383208541S11656004EA0137401407000000000000
B0342423208494S11656056EA0135901395000000000000
B0342463208446S11656108EA0135101388000000000000
B0342503208396S11656159EA0134501382000000000000
B0342543208348S11656210EA0134101380000000000000
B0342583208300S11656255EA0133901379000000000000
B0343023208249S11656297EA0133801376000000000000
B0343063208197S11656337EA0133401371000000000000
B0343103208147S11656377EA0132901366000000000000
B0343143208099S11656416EA0132401365000000000000
B0343183208051S11656455EA0132401363000000000000
B0343223208002S11656496EA0131901356000000000000
B0343263207952S11656536EA0131301350000000000000
B0343303207901S11656571EA0130901346000000000000
B0343343207846S11656598EA0130501341000000000000
B0343383207791S11656620EA0130301337000000000000
B0343423207739S11656644EA0130001336000000000000
B0343463207690S11656674EA0129801334000000000000
B0343503207644S11656702EA0129401328000000000000
B0343543207598S11656734EA0128801322000000000000
B0343583207555S11656767EA0128301316000000000000
B0344023207514S11656801EA0127501307000000000000
B0344063207475S11656838EA0126501296000000000000
B0344103207454S11656896EA0125501284000000000000
B0344143207479S11656968EA0124301274000000000000
B0344183207541S11657014EA0123501268000000000000
B0344223207615S11657040EA0122901262000000000000
B0344263207694S11657055EA0122301255000000000000
B0344303207776S11657059EA0121501248000000000000
B0344343207861S11657059EA0120701240000000000000
B0344383207947S11657055EA0119901232000000000000
B0344423208035S11657048EA0119401226000000000000
B0344463208121S11657043EA0119101223000000000000
B0344503208205S11657039EA0118701218000000000000
B0344543208288S11657034EA0118201213000000000000
B0344583208370S11657029EA0117701209000000000000
B0345023208452S11657023EA0117501207000000000000
B0345063208533S11657017EA0117701211000000000000
B0345103208610S11657000EA0119201228000000000000
B0345143208652S11656940EA0121401254000000000000
B0345183208649S11656879EA0122101252000000000000
B0345223208606S11656857EA0121601249000000000000
B0345263208565S11656882EA0121301249000000000000
B0345303208542S11656932EA0121401251000000000000
B0345343208532S11656994EA0121501251000000000000
B0345383208561S11657053EA0121401251000000000000
B0345423208624S11657081EA0121101242000000000000
B0345463208699S11657086EA0120301239000000000000
B0345503208776S11657078EA0120701246000000000000
B0345543208829S11657022EA0122001258000000000000
B0345583208814S11656957EA0122901265000000000000
B0346023208769S11656968EA0123101269000000000000
B0346063208767S11657027EA0123801277000000000000
B0346103208824S11657053EA0124401281000000000000
B0346143208879S11657005EA0124601282000000015000
B0346183208867S11656935EA0125101292000000015000
B0346223208821S11656927EA0125901297000000015000
B0346263208802S11656977EA0126401302000000015000
B0346303208853S11657009EA0126801303000000015000
B0346343208910S11656965EA0126501303000000015000
B0346383208911S11656888EA0126801306000000015000
B0346423208864S11656848EA0127001308000000015000
B0346463208820S11656875EA0127701317000000015000
B0346503208831S11656935EA0128401324000000015000
B0346543208888S11656964EA0128601322000000015000
B0346583208961S11656965EA0128301318000000000000
B0347023209037S11656957EA0127701311000000000000
B0347063209115S11656948EA0127001302000000000000
B0347103209195S11656936EA0126101292000000000000
B0347143209278S11656926EA0124801278000000000000
B0347183209362S11656923EA0123501267000000000000
B0347223209449S11656923EA0122401255000000000000
B0347263209538S11656926EA0121901254000000000000
B0347303209626S11656923EA0122101259000000000000
B0347343209716S11656922EA0123101267000000000000
B0347383209804S11656921EA0123401270000000000000
B0347423209891S11656922EA0123301267000000000000
B0347463209980S11656923EA0122701258000000000000
B0347503210072S11656925EA0122101254000000000000
B0347543210163S11656923EA0121901251000000000000
B0347583210254S11656925EA0121301245000000000000
B0348023210342S11656931EA0120801239000000000000
B0348063210431S11656939EA0119801230000000000000
B0348103210518S11656949EA0119301224000000000000
B0348143210604S11656960EA0118901217000000000000
B0348183210690S11656966EA0118101208000000000000
B0348223210777S11656962EA0117301200000000000000
B0348263210862S11656953EA0116101188000000000000
B0348303210948S11656949EA0114801176000000000000
B0348343211034S11656947EA0113901166000000000000
B0348383211117S11656952EA0112901158000000000000
B0348423211199S11656965EA0112401151000000000000
B0348463211278S11656992EA0111801143000000000000
B0348503211358S11657021EA0111101139000000000000
B0348543211438S11657049EA0110901140000000000000
B0348583211514S11657075EA0111001138000000000000
B0349023211590S11657103EA0110201128000000000000
B0349063211667S11657130EA0109401122000000000000
B0349103211744S11657153EA0109601129000000000000
B0349143211793S11657207EA0111001146000000000000
B0349183211769S11657259EA0113001166000000000000
B0349223211720S11657238EA0113701164000000000000
B0349263211709S11657161EA0113401165000000000000
B0349303211733S11657086EA0113501169000000000000
B0349343211789S11657035EA0114001180000000000000
B0349383211856S11657022EA0114801184000000000000
B0349423211909S11657055EA0114601179000000000000
B0349463211923S11657114EA0114001172000000000000
B0349503211904S11657168EA0113601166000000000000
B0349543211865S11657212EA0113201166000000000000
B0349583211821S11657257EA0113501168000000000000
B0350023211783S11657309EA0114101176000000000000
B0350063211814S11657359EA0115101183000000000000
B0350103211876S11657332EA0114401170000000000000
B0350143211889S11657248EA0113701172000000000000
B0350183211849S11657200EA0114301181000000000000
B0350223211796S11657199EA0114801180000000000000
B0350263211757S11657237EA0114601175000000000000
B0350303211770S11657298EA0114201176000000000000
B0350343211822S11657342EA0113901168000000000000
B0350383211887S11657368EA0112801155000000000000
B0350423211957S11657382EA0111301139000000000000
B0350463212030S11657393EA0110401133000000000000
B0350503212103S11657406EA0110601136000000000000
B0350543212174S11657400EA0111401154000000000000
B0350583212213S11657346EA0113001159000000000000
B0351023212190S11657285EA0112401150000000000000
B0351063212136S11657281EA0112901170000000000000
B0351103212142S11657337EA0114901187000000000000
B0351143212201S11657341EA0115801191000000000000
B0351183212230S11657276EA0116101193000000015000
B0351223212194S11657241EA0116401199000000015000
B0351263212166S11657290EA0116801205000000015000
B0351303212207S11657342EA0117501214000000015000
B0351343212268S11657321EA0119001230000000015000
B0351383212282S11657254EA0119201221000000015000
B0351423212237S11657221EA0118401221000000015000
B0351463212199S11657257EA0118901224000000015000
B0351503212195S11657325EA0118101211000000000000
B0351543212243S11657384EA0117601212000000000000
B0351583212307S11657416EA0117601209000000000000
B0352023212373S11657393EA0117701214000000000000
B0352063212415S11657328EA0117501206000000000000
B0352103212406S11657255EA0117001204000000000000
B0352143212363S11657209EA0117001207000000000000
B0352183212309S11657187EA0117301210000000000000
B0352223212274S11657231EA0118101215000000000000
B0352263212292S11657295EA0118201216000000000000
B0352303212352S11657321EA0119101234000000000000
B0352343212386S11657270EA0121001249000000000000
B0352383212352S11657222EA0121101246000000015000
B0352423212305S11657246EA0121201245000000015000
B0352463212305S11657315EA0120801241000000015000
B0352503212356S11657363EA0120301239000000015000
B0352543212424S11657361EA0120501240000000015000
B0352583212473S11657308EA0120701249000000015000
B0353023212476S11657235EA0122101267000000015000
B0353063212429S11657218EA0123501267000000015000
B0353103212413S11657289EA0122801263000000015000
B0353143212467S11657337EA0123701279000000015000
B0353183212529S11657315EA0124901289000000015000
B0353223212546S11657248EA0126001301000000015000
B0353263212504S11657207EA0126701306000000015000
B0353303212458S11657246EA0127201308000000015000
B0353343212465S11657326EA0127301313000000015000
B0353383212523S11657374EA0128001319000000015000
B0353423212595S11657356EA0128801333000000015000
B0353463212651S11657299EA0129701340000000015000
B0353503212650S11657225EA0130601347000000015000
B0353543212598S11657199EA0130901351000000015000
B0353583212556S11657244EA0131601360000000015000
B0354023212575S11657316EA0132401369000000015000
B0354063212643S11657329EA0133901389000000015000
B0354103212684S11657255EA0135801404000000015000
B0354143212685S11657165EA0136101400000000000000
B0354183212642S11657111EA0137001423000000015000
B0354223212589S11657131EA0139101437000000015000
B0354263212573S11657192EA0139901446000000015000
B0354303212607S11657248EA0141201461000000015000
B0354343212667S11657259EA0142401473000000015000
B0354383212721S11657211EA0143701486000000015000
B0354423212724S11657140EA0144801500000000015000
B0354463212679S11657122EA0145901505000000015000
B0354503212650S11657173EA0146001508000000015000
B0354543212675S11657233EA0147401528000000015000
B0354583212736S11657246EA0148901548000000015000
B0355023212792S11657195EA0150701563000000015000
B0355063212797S11657116EA0152401582000000015000
B0355103212758S11657077EA0154301595000000015000
B0355143212714S11657104EA0154901598000000000000
B0355183212716S11657165EA0156001617000000015000
B0355223212768S11657192EA0158001636000000015000
B0355263212828S11657151EA0159301644000000015000
B0355303212841S11657069EA0160001656000000000000
B0355343212798S11657027EA0161701670000000015000
B0355383212753S11657055EA0162201674000000000000
B0355423212753S11657118EA0163301689000000015000
B0355463212803S11657153EA0164701703000000015000
B0355503212868S11657131EA0165901712000000015000
B0355543212906S11657060EA0166301717000000015000
B0355583212897S11656981EA0167101726000000015000
B0356023212849S11656945EA0168301739000000015000
B0356063212803S11656974EA0169201742000000000000
B0356103212809S11657035EA0170101763000000015000
B0356143212862S11657065EA0172001778000000015000
B0356183212926S11657046EA0173001785000000015000
B0356223212967S11656978EA0173601789000000000000
B0356263212957S11656903EA0174401801000000015000
B0356303212911S11656893EA0175301808000000015000
B0356343212901S11656951EA0175601811000000015000
B0356383212957S11656977EA0177001832000000015000
B0356423213010S11656929EA0178501838000000015000
B0356463213014S11656849EA0178601842000000015000
B0356503212972S11656800EA0179301850000000015000
B0356543212927S11656818EA0179701848000000015000
B0356573212919S11656866EA0179301851000000015000
B0357023212975S11656925EA0180401869000000015000
B0357063213043S11656905EA0181901874000000015000
B0357103213082S11656831EA0182101876000000015000
B0357143213063S11656754EA0182601881000000015000
B0357183213015S11656736EA0183001887000000015000
B0357223212988S11656774EA0183101879000000015000
B0357263213014S11656830EA0182401876000000015000
B0357303213083S11656851EA0182401877000000015000
B0357343213162S11656839EA0182201876000000000000
B0357383213245S11656812EA0181801869000000000000
B0357423213332S11656776EA0181001861000000000000
B0357463213423S11656739EA0180401856000000000000
B0357503213516S11656704EA0180501860000000000000
B0357543213609S11656670EA0180701863000000000000
B0357583213704S11656641EA0180701857000000000000
B0358023213803S11656622EA0179901850000000000000
B0358063213906S11656610EA0179201843000000000000
B0358103214007S11656601EA0178401836000000000000
B0358143214109S11656597EA0177701829000000000000
B0358183214210S11656597EA0177301824000000000000
B0358223214311S11656597EA0176701819000000000000
B0358263214413S11656598EA0176401816000000000000
B0358303214512S11656601EA0176101813000000000000
B0358343214608S11656605EA0176201815000000000000
B0358383214703S11656606EA0176201812000000000000
B0358423214798S11656607EA0175601806000000000000
B0358463214894S11656609EA0175001799000000000000
B0358503214989S11656609EA0174901799000000000000
B0358543215084S11656610EA0174501792000000000000
B0358583215180S11656610EA0173801787000000000000
B0359023215276S11656611EA0173301780000000000000
B0359063215372S11656613EA0173501778000000000000
B0359103215467S11656614EA0173201774000000000000
B0359143215565S11656615EA0172701767000000000000
B0359183215662S11656613EA0172001762000000000000
B0359223215761S11656610EA0171501757000000000000
B0359263215860S11656607EA0171201751000000000000
B0359303215957S11656605EA0170101745000000000000
B0359343216053S11656604EA0169501742000000000000
B0359383216148S11656602EA0169301740000000000000
B0359423216241S11656601EA0168901736000000000000
B0359463216332S11656604EA0168401728000000000000
B0359503216423S11656609EA0167801724000000000000
B0359543216511S11656615EA0167401717000000000000
B0359583216598S11656623EA0166601708000000000000
B0400023216684S11656631EA0165801698000000000000
B0400063216771S11656637EA0164801689000000000000
B0400103216858S11656643EA0163801678000000000000
B0400143216948S11656646EA0162901671000000000000
B0400183217037S11656650EA0161801660000000000000
B0400223217127S11656659EA0160901649000000000000
B0400263217217S11656670EA0160001643000000000000
B0400303217305S11656679EA0159701640000000000000
B0400343217394S11656688EA0159301637000000000000
B0400383217479S11656696EA0159201636000000000000
B0400423217567S11656704EA0159201637000000000000
B0400463217651S11656711EA0159201633000000000000
B0400503217733S11656722EA0158301622000000000000
B0400543217815S11656732EA0157501614000000000000
B0400583217899S11656744EA0156501603000000000000
B0401023217984S11656754EA0155701595000000000000
B0401063218068S11656766EA0154801588000000000000
B0401103218152S11656776EA0154101581000000000000
B0401143218236S11656784EA0153401573000000000000
B0401183218321S11656793EA0152701565000000000000
B0401223218406S11656802EA0151701557000000000000
B0401263218491S11656812EA0151201551000000000000
B0401303218575S11656822EA0150501543000000000000
B0401343218660S11656832EA0149801538000000000000
B0401383218743S11656841EA0149501536000000000000
B0401423218825S11656848EA0148901527000000000000
B0401463218908S11656857EA0148001516000000000000
B0401503218991S11656866EA0146601501000000000000
B0401543219076S11656874EA0145201485000000000000
B0401583219160S11656888EA0144001479000000000000
B0402023219242S11656905EA0144001478000000000000
B0402063219323S11656921EA0144001477000000000000
B0402103219403S11656942EA0143101464000000000000
B0402143219487S11656962EA0141801452000000000000
B0402183219571S11656981EA0140901442000000000000
B0402223219657S11656997EA0139901432000000000000
B0402263219743S11657016EA0138701422000000000000
B0402303219829S11657036EA0137901413000000000000
B0402343219912S11657057EA0137001404000000000000
B0402383219994S11657077EA0136601402000000000000
B0402423220073S11657095EA0136201396000000000000
B0402463220150S11657113EA0136101401000000000000
B0402503220225S11657122EA0137101411000000000000
B0402543220295S11657096EA0137601412000000000000
B0402583220363S11657052EA0136601397000000000000
B0403023220441S11657030EA0135201385000000000000
B0403063220519S11657030EA0134601379000000000000
B0403103220597S11657044EA0133801373000000000000
B0403143220675S11657061EA0133201366000000000000
B0403183220753S11657083EA0132701360000000000000
B0403223220830S11657111EA0131801349000000000000
B0403263220909S11657138EA0130901340000000000000
B0403303220988S11657166EA0130601342000000000000
B0403343221064S11657196EA0130901346000000000000
B0403383221127S11657246EA0131001343000000000000
B0403423221184S11657303EA0130601340000000000000
B0403463221251S11657347EA0130101334000000000000
B0403503221322S11657382EA0129301325000000000000
B0403543221398S11657413EA0128201316000000000000
B0403583221474S11657442EA0127501305000000000000
B0404023221552S11657471EA0126701301000000000000
B0404063221629S11657498EA0126401298000000000000
B0404103221707S11657524EA0126201296000000000000
B0404143221785S11657554EA0125801286000000000000
B0404183221863S11657584EA0124601270000000000000
B0404223221945S11657611EA0123101257000000000000
B0404263222028S11657637EA0121601245000000000000
B0404303222109S11657667EA0120901239000000000000
B0404343222187S11657698EA0120501234000000000000
B0404383222265S11657727EA0119901227000000000000
B0404423222344S11657758EA0119001217000000000000
B0404463222423S11657789EA0118101207000000000000
B0404503222501S11657824EA0117201199000000000000
B0404543222578S11657863EA0116601193000000000000
B0404583222651S11657901EA0116401196000000000000
B0405023222724S11657935EA0116901200000000000000
B0405063222799S11657949EA0117801211000000000000
B0405103222854S11657898EA0119201226000000000000
B0405143222841S11657826EA0119601227000000015000
B0405183222795S11657818EA0119601227000000015000
B0405223222778S11657871EA0118701218000000015000
B0405263222817S11657931EA0118401222000000015000
B0405303222877S11657971EA0118501220000000015000
B0405343222951S11657985EA0118801226000000015000
B0405383223024S11657958EA0120101243000000015000
B0405423223053S11657884EA0122701263000000015000
B0405463223019S11657833EA0123801272000000015000
B0405503222975S11657854EA0124401281000000015000
B0405543222972S11657914EA0125301292000000015000
B0405583223012S11657965EA0126001299000000015000
B0406023223084S11657972EA0127001313000000015000
B0406063223146S11657924EA0129301337000000030000
B0406103223171S11657848EA0130701345000000030000
B0406143223147S11657783EA0130701343000000030000
B0406183223097S11657775EA0131201358000000015000
B0406223223068S11657819EA0132801371000000015000
B0406263223089S11657879EA0133901375000000015000
B0406303223155S11657897EA0134701387000000015000
B0406343223215S11657848EA0136101404000000030000
B0406383223223S11657770EA0137901420000000030000
B0406423223181S11657733EA0138901429000000030000
B0406463223144S11657764EA0139901438000000015000
B0406503223154S11657828EA0140701443000000015000
B0406543223215S11657859EA0141101455000000015000
B0406583223280S11657827EA0142501465000000030000
B0407023223301S11657751EA0143701483000000030000
B0407063223266S11657711EA0145101497000000030000
B0407103223237S11657742EA0146501512000000015000
B0407143223258S11657796EA0147401516000000015000
B0407183223324S11657815EA0147801522000000015000
B0407223223391S11657779EA0148701533000000030000
B0407263223400S11657705EA0150301551000000030000
B0407303223359S11657686EA0151001553000000015000
B0407343223350S11657742EA0151701568000000015000
B0407383223397S11657789EA0153401581000000015000
B0407423223469S11657781EA0154101586000000015000
B0407463223514S11657715EA0154801595000000030000
B0407503223498S11657647EA0155601605000000030000
B0407543223456S11657640EA0157001621000000015000
B0407583223449S11657690EA0158501633000000015000
B0408023223504S11657732EA0159401641000000015000
B0408063223576S11657712EA0160301653000000030000
B0408103223612S11657644EA0161701666000000030000
B0408143223592S11657585EA0162901679000000030000
B0408183223556S11657584EA0164401697000000015000
B0408223223549S11657632EA0165801705000000015000
B0408263223600S11657673EA0166501712000000015000
B0408303223671S11657651EA0167501724000000030000
B0408343223701S11657580EA0168301730000000030000
B0408383223671S11657529EA0169001743000000030000
B0408423223636S11657550EA0170501760000000015000
B0408463223651S11657608EA0171901771000000015000
B0408503223717S11657638EA0172601777000000015000
B0408543223786S11657607EA0173301786000000030000
B0408583223808S11657533EA0174101795000000030000
B0409023223775S11657495EA0174901806000000030000
B0409063223753S11657534EA0176101817000000015000
B0409103223800S11657588EA0176701823000000015000
B0409143223873S11657579EA0177701835000000030000
B0409183223908S11657508EA0178401836000000030000
B0409223223882S11657456EA0178801843000000030000
B0409263223848S11657478EA0179901855000000015000
B0409303223874S11657533EA0180801860000000015000
B0409343223946S11657542EA0180901863000000015000
B0409383224003S11657488EA0181401867000000030000
B0409423224012S11657413EA0181801868000000030000
B0409463223978S11657369EA0181601868000000030000
B0409503223933S11657360EA0181801874000000015000
B0409543223916S11657408EA0183001886000000015000
B0409583223969S11657451EA0183701888000000015000
B0410023224034S11657406EA0183601886000000030000
B0410063224030S11657332EA0184101897000000030000
B0410103223985S11657321EA0185101907000000015000
B0410143223974S11657376EA0185801915000000015000
B0410183224030S11657417EA0186301916000000015000
B0410223224102S11657390EA0186501924000000030000
B0410263224132S11657320EA0187201929000000030000
B0410303224108S11657265EA0187701934000000030000
B0410343224067S11657248EA0188401943000000015000
B0410383224031S11657270EA0189001946000000015000
B0410423224017S11657324EA0189201948000000015000
B0410463223991S11657369EA0189201948000000015000
B0410503223946S11657372EA0189801954000000015000
B0410543223909S11657334EA0189701949000000015000
B0410583223901S11657261EA0188601938000000015000
B0411023223939S11657191EA0187701929000000015000
B0411063224005S11657143EA0187401931000000015000
B0411103224082S11657103EA0187701934000000015000
B0411143224161S11657060EA0187801931000000000000
B0411183224245S11657014EA0186701919000000000000
B0411223224333S11656971EA0185501904000000000000
B0411263224424S11656925EA0183901888000000000000
B0411303224515S11656877EA0182801880000000000000
B0411343224606S11656831EA0182401876000000000000
B0411383224696S11656788EA0182201874000000000000
B0411423224782S11656747EA0182201876000000000000
B0411463224869S11656708EA0182401877000000000000
B0411503224954S11656667EA0182401875000000000000
B0411543225040S11656627EA0182101872000000000000
B0411583225125S11656588EA0181701867000000000000
B0412023225209S11656549EA0181401863000000000000
B0412063225294S11656513EA0180901859000000000000
B0412103225378S11656477EA0180501854000000000000
B0412143225464S11656445EA0180001848000000000000
B0412183225551S11656415EA0179801847000000000000
B0412223225638S11656385EA0179501843000000000000
B0412263225727S11656357EA0179101836000000000000
B0412303225816S11656328EA0178301830000000000000
B0412343225906S11656299EA0177801826000000000000
B0412383225996S11656269EA0177501822000000000000
B0412423226085S11656240EA0177401823000000015000
B0412463226173S11656210EA0177501823000000015000
B0412503226261S11656185EA0177301816000000015000
B0412543226349S11656160EA0176501809000000015000
B0412583226438S11656129EA0176201804000000015000
B0413023226524S11656097EA0175601799000000015000
B0413063226609S11656064EA0175001791000000000000
B0413103226695S11656037EA0174501786000000000000
B0413143226780S11656007EA0173301771000000000000
B0413183226871S11655990EA0172401763000000000000
B0413223226959S11655983EA0172301764000000000000
B0413263227046S11655970EA0172101759000000000000
B0413303227132S11655955EA0171301751000000000000
B0413343227218S11655941EA0170901750000000000000
B0413383227302S11655924EA0171001752000000000000
B0413423227384S11655902EA0170901747000000000000
B0413463227466S11655869EA0170501745000000000000
B0413503227548S11655840EA0171701765000000000000
B0413543227619S11655798EA0173401780000000000000
B0413583227643S11655718EA0174201793000000000000
B0414023227608S11655679EA0175001792000000015000
B0414063227574S11655713EA0174501788000000000000
B0414103227587S11655775EA0173901786000000015000
B0414143227648S11655814EA0174301795000000015000
B0414183227722S11655814EA0175501806000000015000
B0414223227773S11655749EA0176401808000000015000
B0414263227768S11655671EA0176401811000000015000
B0414303227726S11655647EA0177001820000000015000
B0414343227699S11655683EA0177001816000000015000
B0414383227717S11655749EA0176601819000000015000
B0414423227792S11655752EA0177601831000000015000
B0414463227824S11655671EA0178401837000000015000
B0414503227790S11655629EA0179301845000000015000
B0414543227760S11655662EA0179401843000000015000
B0414583227786S11655726EA0179201843000000015000
B0415023227863S11655747EA0179401847000000015000
B0415063227951S11655729EA0179201840000000015000
B0415103228041S11655695EA0178201827000000015000
B0415143228130S11655655EA0177201818000000015000
B0415183228220S11655612EA0176401811000000015000
B0415223228311S11655574EA0175301800000000015000
B0415263228406S11655549EA0174501792000000015000
B0415303228500S11655531EA0173901783000000000000
B0415343228592S11655501EA0173601783000000000000
B0415383228674S11655456EA0173601783000000000000
B0415423228752S11655404EA0173301780000000000000
B0415463228830S11655348EA0172701772000000000000
B0415503228905S11655288EA0172101767000000000000
B0415543228978S11655227EA0171701764000000000000
B0415583229051S11655164EA0171501764000000000000
B0416023229120S11655101EA0171401762000000000000
B0416063229191S11655040EA0171301764000000000000
B0416103229267S11654989EA0171901770000000000000
B0416143229345S11654951EA0172201771000000000000
B0416183229424S11654923EA0172401772000000000000
B0416223229504S11654893EA0171701759000000000000
B0416263229592S11654864EA0170301745000000000000
B0416303229683S11654847EA0169101736000000000000
B0416343229775S11654837EA0168601733000000000000
B0416383229863S11654832EA0168801736000000000000
B0416423229949S11654821EA0169101736000000000000
B0416463230034S11654806EA0168601730000000000000
B0416503230118S11654785EA0167901720000000000000
B0416543230201S11654763EA0166901710000000000000
B0416583230286S11654735EA0166101702000000000000
B0417023230369S11654707EA0165301696000000000000
B0417063230452S11654680EA0164901693000000000000
B0417103230533S11654652EA0164701691000000000000
B0417143230615S11654626EA0165001694000000000000
B0417183230690S11654592EA0166501719000000000000
B0417223230700S11654522EA0169001740000000000000
B0417263230655S11654504EA0169701742000000000000
B0417303230638S11654563EA0170101749000000000000
B0417343230690S11654613EA0171201759000000015000
B0417383230762S11654599EA0172001773000000015000
B0417423230790S11654534EA0174201793000000030000
B0417463230760S11654486EA0174601792000000030000
B0417503230720S11654516EA0175401808000000015000
B0417543230752S11654576EA0176601816000000015000
B0417583230825S11654566EA0177701835000000030000
B0418023230859S11654500EA0179401844000000030000
B0418063230836S11654442EA0179301840000000030000
B0418103230784S11654434EA0179701855000000015000
B0418143230758S11654485EA0180601859000000015000
B0418183230804S11654538EA0181301873000000015000
B0418223230867S11654501EA0182501883000000030000
B0418263230862S11654434EA0183301892000000030000
B0418303230816S11654427EA0183801891000000015000
B0418343230791S11654483EA0184101897000000015000
B0418383230821S11654544EA0185201908000000015000
B0418423230886S11654568EA0185901912000000015000
B0418463230951S11654534EA0186201919000000030000
B0418503230953S11654470EA0187701934000000030000
B0418543230908S11654468EA0188501939000000015000
B0418583230897S11654526EA0189001946000000015000
B0419023230953S11654570EA0189601951000000015000
B0419063231016S11654538EA0190101959000000030000
B0419103231014S11654473EA0191001967000000030000
B0419143230967S11654472EA0191801975000000015000
B0419183230950S11654534EA0192301980000000015000
B0419223230990S11654594EA0192501977000000015000
B0419263231067S11654608EA0192201974000000015000
B0419303231136S11654572EA0192501986000000030000
B0419343231146S11654504EA0193601991000000030000
B0419383231106S11654478EA0193301988000000030000
B0419423231055S11654499EA0193001983000000015000
B0419463231020S11654550EA0193301988000000015000
B0419503231036S11654621EA0193001978000000015000
B0419543231105S11654655EA0191701962000000015000
B0419583231188S11654639EA0189901945000000030000
B0420023231274S11654607EA0188701936000000015000
B0420063231360S11654569EA0187801928000000015000
B0420103231447S11654530EA0187201919000000015000
B0420143231538S11654490EA0186501914000000015000
B0420183231629S11654451EA0185401898000000015000
B0420223231722S11654416EA0183701882000000015000
B0420263231815S11654384EA0182401869000000000000
B0420303231906S11654353EA0181301857000000000000
B0420343231997S11654322EA0180001844000000000000
B0420383232089S11654293EA0178701831000000000000
B0420423232180S11654261EA0177801820000000000000
B0420463232270S11654225EA0177001815000000000000
B0420503232355S11654184EA0176801814000000000000
B0420543232440S11654152EA0176701811000000000000
B0420583232527S11654123EA0176201806000000000000
B0421023232602S11654070EA0175901806000000000000
B0421063232669S11654005EA0175601802000000000000
B0421103232735S11653939EA0175001795000000000000
B0421143232801S11653871EA0174401789000000000000
B0421183232875S11653812EA0173901783000000000000
B0421223232953S11653763EA0173501781000000000000
B0421263233025S11653703EA0173101777000000000000
B0421303233100S11653655EA0172601771000000000000
B0421343233181S11653624EA0171801760000000000000
B0421383233263S11653591EA0170501748000000000000
B0421423233347S11653560EA0169701742000000000000
B0421463233429S11653526EA0169001735000000000000
B0421503233512S11653491EA0168301725000000000000
B0421543233596S11653463EA0167701720000000000000
B0421583233679S11653441EA0168101729000000000000
B0422023233759S11653417EA0168501728000000000000
B0422063233841S11653393EA0168001720000000000000
B0422103233926S11653364EA0167101713000000000000
B0422143234012S11653333EA0166701709000000000000
B0422183234100S11653302EA0165801701000000000000
B0422223234188S11653270EA0164901691000000000000
B0422263234277S11653238EA0164301687000000000000
B0422303234365S11653200EA0164201686000000000000
B0422343234454S11653157EA0163601678000000000000
B0422383234542S11653117EA0163001675000000000000
B0422423234629S11653070EA0162801668000000000000
B0422463234715S11653019EA0161901661000000000000
B0422503234802S11652973EA0161401658000000000000
B0422543234890S11652934EA0161001653000000000000
B0422583234980S11652893EA0160401647000000000000
B0423023235068S11652854EA0159901641000000000000
B0423063235156S11652815EA0159401635000000000000
B0423103235243S11652775EA0158601624000000000000
B0423143235328S11652733EA0157501613000000000000
B0423183235413S11652694EA0156701609000000000000
B0423223235496S11652655EA0156701608000000000000
B0423263235577S11652618EA0156401605000000000000
B0423303235656S11652580EA0156201602000000000000
B0423343235733S11652538EA0155801598000000000000
B0423383235809S11652497EA0155401595000000000000
B0423423235887S11652457EA0154901589000000000000
B0423463235965S11652414EA0154201583000000000000
B0423503236045S11652372EA0153701577000000000000
B0423543236124S11652333EA0153201573000000000000
B0423583236205S11652293EA0152701567000000000000
B0424023236287S11652252EA0152301562000000000000
B0424063236368S11652215EA0151801558000000000000
B0424103236450S11652177EA0151401555000000000000
B0424143236530S11652139EA0151201555000000000000
B0424183236610S11652106EA0150901549000000000000
B0424223236695S11652085EA0150401545000000000000
B0424263236779S11652077EA0150201544000000000000
B0424303236861S11652073EA0150201542000000000000
B0424343236943S11652068EA0149701537000000000000
B0424383237025S11652048EA0149301533000000000000
B0424423237104S11652017EA0148901532000000000000
B0424463237180S11651979EA0148901532000000000000
B0424503237252S11651939EA0148701527000000000000
B0424543237327S11651900EA0148401522000000000000
B0424583237405S11651862EA0147701517000000000000
B0425023237481S11651827EA0147301513000000000000
B0425063237555S11651791EA0146901511000000000000
B0425103237628S11651747EA0146101499000000000000
B0425143237704S11651709EA0145301492000000000000
B0425183237779S11651678EA0145001490000000000000
B0425223237854S11651645EA0144801488000000000000
B0425263237927S11651618EA0144601487000000000000
B0425303237999S11651586EA0144401484000000000000
B0425343238069S11651553EA0144601488000000000000
B0425383238136S11651517EA0144601487000000000000
B0425423238205S11651483EA0144401486000000000000
B0425463238273S11651454EA0144601488000000000000
B0425503238341S11651428EA0144201483000000000000
B0425543238411S11651405EA0143701476000000000000
B0425583238481S11651376EA0143001467000000000000
B0426023238554S11651352EA0142301462000000000000
B0426063238629S11651340EA0141701454000000000000
B0426103238707S11651324EA0141301451000000000000
B0426143238785S11651301EA0141101448000000000000
B0426183238863S11651274EA0140301440000000000000
B0426223238944S11651249EA0139401430000000000000
B0426263239024S11651219EA0138801426000000000000
B0426303239104S11651179EA0138801431000000000000
B0426343239162S11651115EA0140101447000000000000
B0426383239154S11651043EA0141901463000000000000
B0426423239109S11651045EA0142401465000000015000
B0426463239097S11651105EA0142701469000000015000
B0426503239141S11651159EA0143101470000000015000
B0426543239217S11651162EA0143501476000000015000
B0426583239273S11651106EA0144301489000000030000
B0427023239274S11651033EA0145301496000000030000
B0427063239232S11651004EA0145501496000000030000
B0427103239200S11651042EA0145901506000000030000
B0427143239217S11651101EA0146701509000000015000
B0427183239280S11651121EA0146901509000000030000
B0427223239348S11651084EA0147301515000000030000
B0427263239381S11651008EA0147801520000000030000
B0427303239362S11650941EA0147901520000000030000
B0427343239314S11650920EA0148101525000000030000
B0427383239283S11650956EA0149301533000000030000
B0427423239303S11651017EA0149901539000000015000
B0427463239370S11651029EA0150801548000000030000
B0427503239425S11650969EA0151201555000000030000
B0427543239422S11650893EA0152301567000000030000
B0427583239381S11650865EA0153001572000000030000
B0428023239348S11650900EA0153401575000000030000
B0428063239364S11650965EA0153901583000000030000
B0428103239430S11650985EA0155001594000000030000
B0428143239494S11650938EA0155701596000000030000
B0428183239509S11650856EA0156001604000000030000
B0428223239474S11650808EA0156901614000000030000
B0428263239430S11650820EA0157301618000000030000
B0428303239423S11650878EA0157801628000000030000
B0428343239472S11650920EA0158901640000000030000
B0428383239539S11650895EA0159801644000000030000
B0428423239570S11650820EA0160101648000000030000
B0428463239543S11650764EA0160801659000000030000
B0428503239505S11650783EA0161501665000000030000
B0428543239514S11650843EA0162101673000000030000
B0428583239574S11650867EA0163101678000000030000
B0429023239635S11650819EA0163401680000000030000
B0429063239643S11650739EA0163801690000000030000
B0429103239608S11650699EA0164801703000000030000
B0429143239574S11650721EA0165901709000000015000
B0429183239585S11650780EA0166201708000000015000
B0429223239644S11650812EA0166401716000000030000
B0429263239711S11650782EA0167301723000000030000
B0429303239737S11650707EA0167901726000000030000
B0429343239712S11650648EA0168301736000000030000
B0429383239668S11650634EA0168901739000000030000
B0429423239634S11650665EA0169601746000000015000
B0429463239659S11650722EA0170401753000000015000
B0429503239726S11650725EA0170801754000000030000
B0429543239781S11650661EA0170801756000000030000
B0429583239793S11650578EA0171301767000000030000
B0430023239758S11650531EA0172301779000000030000
B0430063239719S11650556EA0172801780000000030000
B0430103239737S11650620EA0173201790000000030000
B0430143239807S11650627EA0174201795000000030000
B0430183239855S11650560EA0174801801000000030000
B0430223239846S11650479EA0174901804000000030000
B0430263239800S11650449EA0175801816000000030000
B0430303239763S11650483EA0176101815000000030000
B0430343239782S11650547EA0176801825000000015000
B0430383239849S11650564EA0177801837000000030000
B0430423239908S11650514EA0178601841000000030000
B0430463239920S11650435EA0179001848000000030000
B0430503239885S11650387EA0179701855000000030000
B0430543239841S11650399EA0179801854000000030000
B0430583239830S11650456EA0180101860000000015000
B0431023239871S11650512EA0181101867000000015000
B0431063239941S11650527EA0181701873000000030000
B0431103240010S11650491EA0182301879000000030000
B0431143240050S11650418EA0182701881000000030000
B0431183240049S11650343EA0183301890000000030000
B0431223240012S11650302EA0183601891000000030000
B0431263239962S11650306EA0183501893000000030000
B0431303239914S11650323EA0183501890000000015000
B0431343239886S11650373EA0183901896000000015000
B0431383239888S11650439EA0185001903000000015000
B0431423239946S11650479EA0185401904000000015000
B0431463240016S11650440EA0185201902000000030000
B0431503240077S11650373EA0184801898000000015000
B0431543240146S11650308EA0184501898000000015000
B0431583240222S11650243EA0184001891000000015000
B0432023240306S11650185EA0183301886000000015000
B0432063240392S11650137EA0182901883000000015000
B0432103240483S11650105EA0182401875000000015000
B0432143240578S11650091EA0181801872000000015000
B0432183240671S11650081EA0181201865000000015000
B0432223240768S11650079EA0180301857000000015000
B0432263240865S11650076EA0179801854000000015000
B0432303240960S11650076EA0179701853000000015000
B0432343241052S11650080EA0179701852000000015000
B0432383241143S11650083EA0179701851000000000000
B0432423241232S11650083EA0179301845000000000000
B0432463241320S11650074EA0178301833000000000000
B0432503241410S11650061EA0177501828000000000000
B0432543241497S11650049EA0177201825000000000000
B0432583241584S11650036EA0176601819000000000000
B0433023241671S11650022EA0176301814000000000000
B0433063241758S11650005EA0175701808000000000000
B0433103241847S11649993EA0175201803000000000000
B0433143241934S11649980EA0174701799000000000000
B0433183242022S11649966EA0174201795000000000000
B0433223242109S11649950EA0173801792000000000000
B0433263242196S11649933EA0173301785000000000000
B0433303242282S11649914EA0172501779000000000000
B0433343242369S11649897EA0171901773000000000000
B0433383242456S11649880EA0171501765000000000000
B0433423242545S11649862EA0170501758000000000000
B0433463242633S11649838EA0169901755000000000000
B0433503242719S11649812EA0169601749000000000000
B0433543242806S11649789EA0168901741000000000000
B0433583242894S11649768EA0167801728000000000000
B0434023242984S11649755EA0166701719000000000000
B0434063243076S11649751EA0165901710000000000000
B0434103243169S11649751EA0165301702000000000000
B0434143243260S11649750EA0164801700000000000000
B0434183243349S11649755EA0164901702000000000000
B0434223243437S11649769EA0165401708000000000000
B0434263243521S11649776EA0165601706000000000000
B0434303243609S11649769EA0164701694000000000000
B0434343243697S11649741EA0163301680000000000000
B0434383243782S11649699EA0162301671000000000000
B0434423243867S11649652EA0161601665000000000000
B0434463243949S11649603EA0161401668000000000000
B0434503244027S11649551EA0161801669000000000000
B0434543244103S11649498EA0161301663000000000000
B0434583244184S11649444EA0160801660000000000000
B0435023244269S11649392EA0160501655000000000000
B0435063244352S11649342EA0160201653000000000000
B0435103244432S11649292EA0160201653000000000000
B0435143244510S11649235EA0159901649000000000000
B0435183244588S11649178EA0159101642000000000000
B0435223244666S11649118EA0158601633000000000000
B0435263244744S11649058EA0157801625000000000000
B0435303244824S11649000EA0157301623000000000000
B0435343244902S11648941EA0156901618000000000000
B0435383244978S11648880EA0156501614000000000000
B0435423245056S11648822EA0156101610000000000000
B0435463245134S11648766EA0155601602000000000000
B0435503245212S11648707EA0154801596000000000000
B0435543245289S11648645EA0154001586000000000000
B0435583245366S11648580EA0153001575000000000000
B0436023245444S11648515EA0152001567000000000000
B0436063245523S11648455EA0151401563000000000000
B0436103245601S11648395EA0151101561000000000000
B0436143245679S11648336EA0150801557000000000000
B0436183245756S11648274EA0150401553000000000000
B0436223245829S11648208EA0150101550000000000000
B0436263245896S11648139EA0149901549000000000000
B0436303245960S11648065EA0149801548000000000000
B0436343246017S11647986EA0149701547000000000000
B0436383246072S11647907EA0149401541000000000000
B0436423246122S11647826EA0148701533000000000000
B0436463246165S11647739EA0147801525000000000000
B0436503246206S11647649EA0147201519000000000000
B0436543246239S11647556EA0146501514000000000000
B0436583246271S11647462EA0146501513000000000000
B0437023246304S11647371EA0146301511000000000000
B0437063246343S11647284EA0145801504000000000000
B0437103246408S11647216EA0144801494000000000000
B0437143246490S11647179EA0144401492000000000000
B0437183246575S11647160EA0144701497000000000000
B0437223246655S11647137EA0144901497000000000000
B0437263246735S11647115EA0144701494000000000000
B0437303246813S11647085EA0144301491000000000000
B0437343246889S11647049EA0143501480000000000000
B0437383246971S11647020EA0142401467000000000000
B0437423247057S11647004EA0141201456000000000000
B0437463247143S11646993EA0140501452000000000000
B0437503247230S11646982EA0139701439000000000000
B0437543247318S11646978EA0138501429000000000000
B0437583247405S11646978EA0137601418000000000000
B0438023247491S11646982EA0136701410000000000000
B0438063247576S11646989EA0136101403000000000000
B0438103247659S11646997EA0135501395000000000000
B0438143247742S11647008EA0134601384000000000000
B0438183247823S11647030EA0133801377000000000000
B0438223247901S11647064EA0133301371000000000000
B0438263247972S11647108EA0132401363000000000000
B0438303248041S11647159EA0131401350000000000000
B0438343248106S11647215EA0130201339000000000000
B0438383248171S11647271EA0129201328000000000000
B0438423248234S11647328EA0128301317000000000000
B0438463248293S11647388EA0127301306000000000000
B0438503248353S11647449EA0126701303000000000000
B0438543248409S11647510EA0126301296000000000000
B0438583248468S11647572EA0125101284000000000000
B0439023248523S11647636EA0124501281000000000000
B0439063248573S11647704EA0125001287000000000000
B0439103248630S11647757EA0126101300000000000000
B0439143248705S11647734EA0127201308000000015000
B0439183248733S11647649EA0126701299000000015000
B0439223248716S11647566EA0126501301000000015000
B0439263248674S11647527EA0126801304000000015000
B0439303248631S11647532EA0127201306000000015000
B0439343248631S11647588EA0127201304000000015000
B0439383248694S11647628EA0126901300000000015000
B0439423248778S11647627EA0126901303000000015000
B0439463248841S11647566EA0127301306000000030000
B0439503248835S11647485EA0127601306000000030000
B0439543248794S11647442EA0127501308000000030000
B0439583248751S11647445EA0127801312000000015000
B0440023248734S11647492EA0127901314000000015000
B0440063248763S11647550EA0127901311000000015000
B0440103248832S11647582EA0127801313000000015000
B0440143248908S11647600EA0127801310000000015000
B0440183248991S11647605EA0127501308000000015000
B0440223249075S11647614EA0127101304000000015000
B0440263249153S11647645EA0126801303000000015000
B0440303249181S11647706EA0127401309000000015000
B0440343249153S11647749EA0127001299000000015000
B0440383249112S11647786EA0125801287000000015000
B0440423249107S11647853EA0124901285000000015000
B0440463249129S11647926EA0124601279000000015000
B0440503249166S11647996EA0124001271000000015000
B0440543249206S11648065EA0123301267000000015000
B0440583249253S11648130EA0122801261000000015000
B0441023249301S11648196EA0122301258000000015000
B0441063249350S11648263EA0121901253000000015000
B0441103249398S11648329EA0121401249000000015000
B0441143249450S11648393EA0120701240000000015000
B0441183249502S11648458EA0119601226000000015000
B0441223249549S11648528EA0118501214000000015000
B0441263249593S11648599EA0117601208000000015000
B0441303249639S11648675EA0116901198000000015000
B0441343249682S11648752EA0115901188000000015000
B0441383249723S11648830EA0114701175000000000000
B0441423249762S11648910EA0113401162000000000000
B0441463249804S11648992EA0111901146000000000000
B0441503249846S11649074EA0111101142000000000000
B0441543249886S11649152EA0110701137000000000000
B0441583249926S11649229EA0110201128000000000000
B0442023249969S11649305EA0109201118000000000000
B0442063250026S11649369EA0108601115000000000000
B0442103250099S11649413EA0108001108000000000000
B0442143250176S11649444EA0107601104000000000000
B0442183250252S11649473EA0107401102000000000000
B0442223250330S11649496EA0107301102000000000000
B0442263250401S11649526EA0108301114000000000000
B0442303250421S11649589EA0109701128000000015000
B0442343250390S11649623EA0110601133000000015000
B0442383250355S11649581EA0110801134000000015000
B0442423250372S11649500EA0110801138000000015000
B0442463250436S11649461EA0111701150000000015000
B0442503250488S11649496EA0111901143000000030000
B0442543250481S11649552EA0111601148000000015000
B0442583250441S11649571EA0112001152000000015000
B0443023250401S11649532EA0112501155000000015000
B0443063250401S11649452EA0112601155000000015000
B0443103250455S11649387EA0112701157000000015000
B0443143250529S11649376EA0113201165000000015000
B0443183250567S11649422EA0113901171000000030000
B0443223250550S11649467EA0113901170000000015000
B0443263250506S11649461EA0114201173000000015000
B0443303250473S11649402EA0114801176000000015000
B0443343250479S11649317EA0115001176000000015000
B0443383250528S11649244EA0114901179000000015000
B0443423250600S11649221EA0114901179000000015000
B0443463250655S11649255EA0115201185000000030000
B0443503250667S11649316EA0115501189000000030000
B0443543250633S11649353EA0115701188000000030000
B0443583250585S11649331EA0116001192000000015000
B0444023250568S11649253EA0116201191000000015000
B0444063250606S11649171EA0116101190000000015000
B0444103250679S11649136EA0115801184000000015000
B0444143250753S11649155EA0115401187000000030000
B0444183250788S11649213EA0116401205000000030000
B0444223250750S11649246EA0117801213000000030000
B0444263250709S11649199EA0117901211000000030000
B0444303250727S11649117EA0117901212000000015000
B0444343250793S11649066EA0117601211000000030000
B0444383250870S11649066EA0117601210000000030000
B0444423250921S11649118EA0118301215000000030000
B0444463250917S11649187EA0118701218000000030000
B0444503250866S11649221EA0119301225000000030000
B0444543250810S11649194EA0119901225000000015000
B0444583250792S11649112EA0120001226000000015000
B0445023250831S11649027EA0119701221000000015000
B0445063250906S11648984EA0119501224000000015000
B0445103250988S11648979EA0119601222000000015000
B0445143251069S11648993EA0119601223000000015000
B0445183251142S11649036EA0119601221000000015000
B0445223251205S11649103EA0119601220000000015000
B0445263251264S11649183EA0119501215000000015000
B0445303251312S11649270EA0119901229000000015000
B0445343251291S11649338EA0122201261000000015000
B0445383251243S11649317EA0124601277000000015000
B0445423251255S11649234EA0126201295000000015000
B0445463251321S11649188EA0127201304000000015000
B0445503251394S11649207EA0127701308000000015000
B0445543251433S11649269EA0127901314000000015000
B0445583251413S11649326EA0128801326000000015000
B0446023251365S11649342EA0129501328000000015000
B0446063251326S11649292EA0130301342000000015000
B0446103251344S11649212EA0132601363000000015000
B0446143251409S11649166EA0133501368000000015000
B0446183251481S11649190EA0134401384000000030000
B0446223251500S11649251EA0135601399000000030000
B0446263251468S11649286EA0136501400000000015000
B0446303251422S11649260EA0136801408000000015000
B0446343251419S11649187EA0138601426000000015000
B0446383251465S11649119EA0139601427000000015000
B0446423251545S11649103EA0139601433000000015000
B0446463251604S11649147EA0140601450000000030000
B0446503251615S11649209EA0142101459000000015000
B0446543251590S11649255EA0142001455000000015000
B0446583251542S11649257EA0142001459000000015000
B0447023251507S11649212EA0142501465000000015000
B0447063251498S11649139EA0143101466000000015000
B0447103251537S11649067EA0143801477000000015000
B0447143251608S11649035EA0144801487000000015000
B0447183251682S11649052EA0145601497000000015000
B0447223251719S11649114EA0146201503000000015000
B0447263251697S11649165EA0147401518000000015000
B0447303251656S11649142EA0148801526000000015000
B0447343251656S11649067EA0149301532000000015000
B0447383251707S11649002EA0149801538000000015000
B0447423251784S11648983EA0150101539000000015000
B0447463251858S11649017EA0150201542000000015000
B0447503251909S11649079EA0150701546000000015000
B0447543251903S11649143EA0150501539000000015000
B0447583251863S11649173EA0149701530000000015000
B0448023251815S11649188EA0148901520000000000000
B0448063251770S11649147EA0148001514000000000000
B0448103251770S11649057EA0147601515000000000000
B0448143251803S11648967EA0148101520000000000000
B0448183251862S11648895EA0148701529000000000000
B0448223251931S11648841EA0149901537000000000000
B0448263251952S11648765EA0150401546000000000000
B0448303251910S11648735EA0151301553000000000000
B0448343251874S11648774EA0151201548000000000000
B0448383251870S11648844EA0151201556000000000000
B0448423251916S11648900EA0152701572000000000000
B0448463251987S11648905EA0153701575000000000000
B0448503252049S11648856EA0153801574000000015000
B0448543252080S11648779EA0154101581000000000000
B0448583252067S11648711EA0155401595000000000000
B0449023252026S11648690EA0155901596000000000000
B0449063251992S11648731EA0155601595000000000000
B0449103252005S11648798EA0155701596000000000000
B0449143252062S11648849EA0155701596000000000000
B0449183252136S11648882EA0155801597000000000000
B0449223252215S11648908EA0155701592000000000000
B0449263252301S11648928EA0155001583000000000000
B0449303252391S11648945EA0154001572000000000000
B0449343252482S11648956EA0152501556000000000000
B0449383252577S11648958EA0151001545000000000000
B0449423252672S11648957EA0150001536000000000000
B0449463252765S11648952EA0149601536000000000000
B0449503252858S11648948EA0149701534000000000000
B0449543252950S11648941EA0148901528000000000000
B0449583253041S11648935EA0148901525000000000000
B0450023253131S11648930EA0148201517000000000000
B0450063253219S11648923EA0147201506000000000000
B0450103253309S11648921EA0145801490000000000000
B0450143253398S11648934EA0144201470000000000000
B0450183253486S11648969EA0142201452000000000000
B0450223253566S11649022EA0140401433000000000000
B0450263253643S11649082EA0139801430000000000000
B0450303253729S11649116EA0139501425000000000000
B0450343253821S11649119EA0139301430000000000000
B0450383253908S11649113EA0140901453000000000000
B0450423253991S11649106EA0142201461000000000000
B0450463254071S11649105EA0143101473000000000000
B0450503254147S11649101EA0144801491000000000000
B0450543254198S11649044EA0146301503000000000000
B0450583254185S11648973EA0146601496000000000000
B0451023254132S11648957EA0145801492000000000000
B0451063254086S11648993EA0145301486000000000000
B0451103254076S11649058EA0145101488000000000000
B0451143254113S11649123EA0145601495000000000000
B0451183254177S11649166EA0146001492000000000000
B0451223254258S11649178EA0145001477000000000000
B0451263254347S11649174EA0144101476000000000000
B0451303254438S11649165EA0143701471000000000000
B0451343254529S11649149EA0142901462000000000000
B0451383254620S11649122EA0142101454000000000000
B0451423254710S11649084EA0141901456000000000000
B0451463254792S11649048EA0144501489000000000000
B0451503254793S11648979EA0147701520000000000000
B0451543254747S11648987EA0148701524000000000000
B0451583254744S11649056EA0150301550000000000000
B0452023254800S11649091EA0152801570000000000000
B0452063254851S11649044EA0154001581000000000000
B0452103254836S11648988EA0155401598000000000000
B0452143254789S11648993EA0156401604000000000000
B0452183254779S11649057EA0157501622000000000000
B0452223254825S11649106EA0158901632000000000000
B0452263254888S11649093EA0159701639000000015000
B0452303254910S11649030EA0160501646000000015000
B0452343254867S11649000EA0161301654000000015000
B0452383254839S11649054EA0161901665000000000000
B0452423254888S11649112EA0162601666000000015000
B0452463254965S11649108EA0162701670000000015000
B0452503255023S11649057EA0163401678000000015000
B0452543255033S11648979EA0164401688000000015000
B0452583254992S11648944EA0165701701000000015000
B0453023254968S11649001EA0166901716000000000000
B0453063255007S11649066EA0167901721000000000000
B0453103255079S11649061EA0168701733000000015000
B0453143255104S11648991EA0169601744000000015000
B0453183255068S11648953EA0171101760000000000000
B0453223255038S11648996EA0172301768000000000000
B0453263255070S11649065EA0172901774000000000000
B0453303255143S11649084EA0173601782000000000000
B0453343255202S11649035EA0174201785000000015000
B0453383255196S11648969EA0175101799000000015000
B0453423255155S11648970EA0176401811000000000000
B0453463255156S11649034EA0176801814000000000000
B0453503255220S11649070EA0177401821000000000000
B0453543255293S11649047EA0177701823000000000000
B0453583255337S11648979EA0178001828000000015000
B0454023255350S11648904EA0178501835000000015000
B0454063255324S11648850EA0179301842000000000000
B0454103255277S11648850EA0179701843000000000000
B0454143255246S11648908EA0180101854000000000000
B0454183255277S11648970EA0182201879000000000000
B0454223255346S11648957EA0183201879000000000000
B0454263255368S11648883EA0183301886000000015000
B0454303255328S11648848EA0184801902000000000000
B0454343255294S11648893EA0186101915000000000000
B0454383255322S11648965EA0187501927000000000000
B0454423255397S11648975EA0188401936000000000000
B0454463255443S11648913EA0189101942000000015000
B0454503255420S11648850EA0190501962000000015000
B0454543255374S11648859EA0192201980000000000000
B0454583255364S11648928EA0193301988000000000000
B0455023255413S11648988EA0194302001000000000000
B0455063255489S11648980EA0195102001000000015000
B0455103255530S11648908EA0195102004000000015000
B0455143255510S11648837EA0196202022000000015000
B0455183255463S11648835EA0198502044000000000000
B0455223255445S11648895EA0199402047000000000000
B0455263255488S11648962EA0200002056000000000000
B0455303255563S11648967EA0200702061000000000000
B0455343255614S11648900EA0200902063000000015000
B0455383255599S11648824EA0201602073000000015000
B0455423255546S11648820EA0202702087000000000000
B0455463255527S11648884EA0204002101000000000000
B0455503255569S11648950EA0205002107000000000000
B0455543255644S11648958EA0205802116000000000000
B0455583255697S11648900EA0206302115000000015000
B0456023255692S11648823EA0206502124000000015000
B0456063255644S11648815EA0207802138000000000000
B0456103255627S11648876EA0208302139000000000000
B0456143255676S11648936EA0208502142000000000000
B0456183255751S11648940EA0209102147000000015000
B0456223255805S11648879EA0209302148000000015000
B0456263255794S11648804EA0209502152000000015000
B0456303255745S11648785EA0210502167000000000000
B0456343255709S11648830EA0211502175000000000000
B0456383255714S11648900EA0212102179000000000000
B0456423255763S11648954EA0212602184000000000000
B0456463255836S11648961EA0213002187000000000000
B0456503255889S11648909EA0213302191000000015000
B0456543255911S11648831EA0212802181000000015000
B0456583255963S11648755EA0211602175000000015000
B0457023256041S11648701EA0211202170000000000000
B0457063256134S11648663EA0210202157000000000000
B0457103256235S11648641EA0209202143000000000000
B0457143256338S11648625EA0208402136000000000000
B0457183256439S11648609EA0207702119000000000000
B0457223256544S11648596EA0206102108000000000000
B0457263256652S11648581EA0205302102000000000000
B0457303256760S11648566EA0204802098000000000000
B0457343256867S11648553EA0204602094000000000000
B0457383256976S11648542EA0203902085000000000000
B0457423257088S11648538EA0202502068000000000000
B0457463257200S11648541EA0200802055000000000000
B0457503257311S11648542EA0200202044000000000000
B0457543257423S11648541EA0198802029000000000000
B0457583257538S11648532EA0197302015000000000000
B0458023257652S11648520EA0196002003000000000000
B0458063257766S11648506EA0195201999000000000000
B0458103257876S11648492EA0195201999000000000000
B0458143257984S11648482EA0194701993000000000000
B0458183258090S11648477EA0194601993000000000000
B0458223258194S11648467EA0194601993000000000000
B0458263258297S11648454EA0194401987000000000000
B0458303258400S11648442EA0193501980000000000000
B0458343258501S11648432EA0192701968000000000000
B0458383258602S11648423EA0191201952000000000000
B0458423258704S11648415EA0189801939000000000000
B0458463258804S11648406EA0188601929000000000000
B0458503258901S11648398EA0187701918000000000000
B0458543259000S11648391EA0186401906000000000000
B0458583259098S11648388EA0185401896000000000000
B0459023259195S11648382EA0184501888000000000000
B0459063259291S11648377EA0183901882000000000000
B0459103259385S11648367EA0183901884000000000000
B0459143259476S11648350EA0183401881000000000000
B0459183259566S11648332EA0182901871000000000000
B0459223259657S11648315EA0182301868000000000000
B0459263259746S11648294EA0181801858000000000000
B0459303259837S11648271EA0180301842000000000000
B0459343259930S11648248EA0178901831000000000000
B0459383300022S11648229EA0178401828000000000000
B0459423300114S11648206EA0178101822000000000000
B0459463300207S11648177EA0177001810000000000000
B0459503300300S11648147EA0176301804000000000000
B0459543300395S11648120EA0175401796000000000000
B0459583300489S11648098EA0174801791000000000000
B0500023300582S11648082EA0174201781000000000000
B0500063300672S11648068EA0173401774000000000000
B0500103300762S11648052EA0172201761000000000000
B0500143300854S11648038EA0171401755000000000000
B0500183300945S11648024EA0170901752000000000000
B0500223301036S11648008EA0170101744000000000000
B0500263301128S11647992EA0169201735000000000000
B0500303301221S11647978EA0168301726000000000000
B0500343301312S11647964EA0167701720000000000000
B0500383301403S11647949EA0166901710000000000000
B0500423301494S11647936EA0165801698000000000000
B0500463301585S11647922EA0164701688000000000000
B0500503301677S11647905EA0163601674000000000000
B0500543301770S11647892EA0162601665000000000000
B0500583301864S11647888EA0161501654000000000000
B0501023301958S11647901EA0160301640000000000000
B0501063302050S11647923EA0159001625000000000000
B0501103302145S11647938EA0158101621000000000000
B0501143302240S11647927EA0158101625000000000000
B0501183302331S11647904EA0158801631000000000000
B0501223302418S11647875EA0159001631000000000000
B0501263302505S11647844EA0158601622000000000000
B0501303302593S11647810EA0157801616000000000000
B0501343302682S11647771EA0156701600000000000000
B0501383302778S11647741EA0155301589000000000000
B0501423302877S11647717EA0154501581000000000000
B0501463302977S11647686EA0153001560000000000000
B0501503303080S11647654EA0151201546000000000000
B0501543303182S11647637EA0150401541000000000000
B0501583303284S11647623EA0149701529000000000000
B0502023303380S11647578EA0148501518000000000000
B0502063303466S11647511EA0147601511000000000000
B0502103303542S11647433EA0146501498000000000000
B0502143303609S11647345EA0145201483000000000000
B0502183303666S11647250EA0144101473000000000000
B0502223303727S11647159EA0143001463000000000000
B0502263303802S11647088EA0142601460000000000000
B0502303303891S11647046EA0142301456000000000000
B0502343303984S11647036EA0142001454000000000000
B0502383304075S11647051EA0142101459000000000000
B0502423304165S11647071EA0143001469000000000000
B0502463304252S11647075EA0144101482000000000000
B0502503304338S11647067EA0144301476000000000000
B0502543304425S11647046EA0143801475000000000000
B0502583304508S11647011EA0144201480000000000000
B0503023304558S11646939EA0145301491000000000000
B0503063304526S11646882EA0146001498000000000000
B0503103304476S11646896EA0145701489000000000000
B0503143304467S11646969EA0145501492000000000000
B0503183304513S11647037EA0146001495000000000000
B0503223304593S11647056EA0146001495000000000000
B0503263304671S11647026EA0146201498000000000000
B0503303304681S11646950EA0146701502000000000000
B0503343304633S11646922EA0146801502000000000000
B0503383304595S11646971EA0146801505000000000000
B0503423304611S11647047EA0147201510000000000000
B0503463304677S11647086EA0147801514000000000000
B0503503304751S11647060EA0147901516000000000000
B0503543304792S11646991EA0148001513000000015000
B0503583304785S11646915EA0147301505000000015000
B0504023304742S11646868EA0146801501000000000000
B0504063304686S11646834EA0146601501000000000000
B0504103304628S11646809EA0146501499000000000000
B0504143304567S11646796EA0146001494000000000000
B0504183304503S11646791EA0145901492000000000000
B0504223304438S11646800EA0145601491000000000000
B0504263304373S11646816EA0145601492000000000000
B0504303304321S11646854EA0147001509000000000000
B0504343304337S11646926EA0148101518000000000000
B0504383304402S11646961EA0147701509000000000000
B0504423304481S11646964EA0147301510000000000000
B0504463304563S11646959EA0147801516000000000000
B0504503304611S11646898EA0149001529000000000000
B0504543304584S11646831EA0149201525000000000000
B0504583304530S11646841EA0149601539000000000000
B0505023304525S11646907EA0150701546000000000000
B0505063304582S11646958EA0151001548000000000000
B0505103304649S11646942EA0152101565000000000000
B0505143304654S11646876EA0153201566000000000000
B0505183304606S11646867EA0152901565000000000000
B0505223304599S11646933EA0153301573000000000000
B0505263304656S11646972EA0154201579000000000000
B0505303304716S11646938EA0154601584000000000000
B0505343304723S11646867EA0154901586000000000000
B0505383304676S11646838EA0155101590000000000000
B0505423304647S11646887EA0155401591000000000000
B0505463304690S11646943EA0155601595000000000000
B0505503304760S11646937EA0155401589000000000000
B0505543304831S11646898EA0155101585000000000000
B0505583304900S11646850EA0154701583000000000000
B0506023304974S11646800EA0154401578000000000000
B0506063305056S11646755EA0154001578000000000000
B0506103305130S11646700EA0154501585000000000000
B0506143305175S11646623EA0155601595000000000000
B0506183305171S11646547EA0156301599000000000000
B0506223305124S11646526EA0156101594000000000000
B0506263305096S11646578EA0155401588000000000000
B0506303305131S11646644EA0155301589000000000000
B0506343305208S11646660EA0155001585000000000000
B0506383305288S11646639EA0154901588000000000000
B0506423305364S11646595EA0155401596000000000000
B0506463305421S11646529EA0156301604000000000000
B0506503305420S11646452EA0157701622000000000000
B0506543305378S11646441EA0158701626000000000000
B0506583305365S11646495EA0158801627000000000000
B0507023305412S11646545EA0158801626000000000000
B0507063305487S11646548EA0159001631000000000000
B0507103305540S11646487EA0159801640000000000000
B0507143305538S11646408EA0160001635000000000000
B0507183305491S11646360EA0159801641000000000000
B0507223305435S11646349EA0160901655000000000000
B0507263305394S11646384EA0161601658000000000000
B0507303305392S11646448EA0162001666000000000000
B0507343305440S11646497EA0162701668000000000000
B0507383305513S11646505EA0163101671000000000000
B0507423305589S11646479EA0163701681000000000000
B0507463305638S11646413EA0164401689000000000000
B0507503305638S11646337EA0165701702000000000000
B0507543305600S11646297EA0166701712000000000000
B0507583305564S11646319EA0167401717000000000000
B0508023305578S11646379EA0167501718000000000000
B0508063305642S11646410EA0167701719000000000000
B0508103305719S11646401EA0167801720000000000000
B0508143305800S11646382EA0167701718000000000000
B0508183305886S11646365EA0167201713000000000000
B0508223305975S11646350EA0165901696000000000000
B0508263306068S11646337EA0164401683000000000000
B0508303306164S11646327EA0163401673000000000000
B0508343306261S11646315EA0162901669000000000000
B0508383306357S11646311EA0162701668000000000000
B0508423306453S11646304EA0162401664000000000000
B0508463306548S11646289EA0162201666000000000000
B0508503306642S11646275EA0162401666000000000000
B0508543306731S11646252EA0162701672000000000000
B0508583306817S11646222EA0163701680000000000000
B0509023306860S11646141EA0164901692000000000000
B0509063306825S11646079EA0165501693000000000000
B0509103306774S11646107EA0165501695000000000000
B0509143306766S11646178EA0165801700000000000000
B0509183306808S11646237EA0166301705000000000000
B0509223306881S11646244EA0166601706000000000000
B0509263306933S11646174EA0166501700000000000000
B0509303306920S11646085EA0166201698000000000000
B0509343306859S11646055EA0166201703000000000000
B0509383306809S11646096EA0166701710000000000000
B0509423306811S11646165EA0167601720000000000000
B0509463306859S11646211EA0168201725000000000000
B0509503306926S11646223EA0168301720000000000000
B0509543307000S11646213EA0167701715000000000000
B0509583307078S11646189EA0167401713000000000000
B0510023307159S11646159EA0167201712000000000000
B0510063307241S11646126EA0166801706000000000000
B0510103307325S11646089EA0166601705000000000000
B0510143307409S11646046EA0165901696000000000000
B0510183307494S11646016EA0165201691000000000000
B0510223307583S11645998EA0164201680000000000000
B0510263307671S11645985EA0163201671000000000000
B0510303307760S11645977EA0162401663000000000000
B0510343307848S11645973EA0161901659000000000000
B0510383307935S11645963EA0162701673000000000000
B0510423307996S11645905EA0164101689000000000000
B0510463307986S11645836EA0165501697000000000000
B0510503307940S11645821EA0165401691000000000000
B0510543307918S11645864EA0165101690000000000000
B0510583307951S11645920EA0164701686000000000000
B0511023308025S11645949EA0164801688000000000000
B0511063308104S11645970EA0165001690000000000000
B0511103308189S11645975EA0165901702000000000000
B0511143308255S11645932EA0168401731000000000000
B0511183308244S11645864EA0170001743000000000000
B0511223308194S11645862EA0170601750000000000000
B0511263308181S11645921EA0171601761000000000000
B0511303308226S11645985EA0172301765000000000000
B0511343308303S11645976EA0173701790000000000000
B0511383308320S11645903EA0176001805000000000000
B0511423308276S11645881EA0177501823000000000000
B0511463308255S11645936EA0179001839000000000000
B0511503308291S11646001EA0180101845000000000000
B0511543308365S11646003EA0181601866000000000000
B0511583308400S11645936EA0183301881000000015000
B0512023308367S11645888EA0184701895000000000000
B0512063308333S11645924EA0186401917000000000000
B0512103308358S11645993EA0187701925000000000000
B0512143308432S11646016EA0189001940000000000000
B0512183308490S11645964EA0190501953000000000000
B0512223308485S11645894EA0191401963000000015000
B0512263308439S11645884EA0192601982000000000000
B0512303308420S11645936EA0194501999000000000000
B0512343308452S11646002EA0195702010000000000000
B0512383308524S11646025EA0197302026000000000000
B0512423308588S11645986EA0198602038000000000000
B0512463308601S11645921EA0199802049000000015000
B0512503308566S11645892EA0200602057000000000000
B0512543308536S11645928EA0202002077000000000000
B0512583308551S11645992EA0203602093000000000000
B0513023308608S11646035EA0205102106000000000000
B0513063308679S11646020EA0205902112000000000000
B0513103308722S11645962EA0206502116000000000000
B0513143308715S11645901EA0206702115000000000000
B0513183308672S11645882EA0206802121000000000000
B0513223308653S11645937EA0208202144000000000000
B0513263308686S11646005EA0210102155000000000000
B0513303308762S11646024EA0210902164000000000000
B0513343308826S11645977EA0211302161000000000000
B0513383308840S11645906EA0211002162000000000000
B0513423308814S11645856EA0211202164000000000000
B0513463308771S11645854EA0211902173000000000000
B0513503308754S11645907EA0213102190000000000000
B0513543308787S11645975EA0213802187000000000000
B0513583308867S11645998EA0214102199000000000000
B0514023308927S11645940EA0215102200000000015000
B0514063308917S11645872EA0215002200000000015000
B0514103308876S11645888EA0215502206000000000000
B0514143308879S11645962EA0215702213000000000000
B0514183308931S11646032EA0216202217000000000000
B0514223309010S11646068EA0216502214000000000000
B0514263309104S11646071EA0215102193000000000000
B0514303309206S11646068EA0212902171000000000000
B0514343309314S11646067EA0211002153000000000000
B0514383309424S11646064EA0209702144000000000000
B0514423309531S11646059EA0209102139000000000000
B0514463309637S11646054EA0208302132000000000000
B0514503309741S11646045EA0207902130000000000000
B0514543309845S11646036EA0207702127000000000000
B0514583309949S11646027EA0207702131000000000000
B0515023310051S11646016EA0207802130000000000000
B0515063310153S11646010EA0207602126000000000000
B0515103310253S11645999EA0207002119000000000000
B0515143310353S11645989EA0206102109000000000000
B0515183310453S11645973EA0205202104000000000000
B0515223310553S11645958EA0204802100000000000000
B0515263310651S11645944EA0204702097000000000000
B0515303310750S11645927EA0204102089000000000000
B0515343310847S11645905EA0203402085000000000000
B0515383310945S11645882EA0203202082000000000000
B0515423311041S11645860EA0203002082000000000000
B0515463311136S11645838EA0203002082000000000000
B0515503311229S11645816EA0202702079000000000000
B0515543311320S11645797EA0202602076000000000000
B0515583311409S11645775EA0202902082000000000000
B0516023311493S11645749EA0202602074000000000000
B0516063311580S11645729EA0201302058000000000000
B0516103311674S11645713EA0199502038000000000000
B0516143311771S11645699EA0198002028000000000000
B0516183311866S11645687EA0197702028000000000000
B0516223311961S11645682EA0196902014000000000000
B0516263312057S11645674EA0195702006000000000000
B0516303312151S11645665EA0195202001000000000000
B0516343312242S11645654EA0194701996000000000000
B0516383312332S11645645EA0194201987000000000000
B0516423312421S11645634EA0193201976000000000000
B0516463312512S11645619EA0192801975000000000000
B0516503312601S11645598EA0193501990000000000000
B0516543312684S11645573EA0194701998000000000000
B0516583312767S11645542EA0194401993000000000000
B0517023312854S11645513EA0193401977000000000000
B0517063312947S11645487EA0192801976000000000000
B0517103313038S11645460EA0193201984000000000000
B0517143313127S11645435EA0193901990000000000000
B0517183313216S11645416EA0193901988000000000000
B0517223313305S11645398EA0193501980000000000000
B0517263313398S11645379EA0192601972000000000000
B0517303313491S11645364EA0192101966000000000000
B0517343313586S11645348EA0191201957000000000000
B0517383313681S11645329EA0190201947000000000000
B0517423313777S11645309EA0189301934000000000000
B0517463313875S11645290EA0188601931000000000000
B0517503313970S11645269EA0188001926000000000000
B0517543314065S11645244EA0187401918000000000000
B0517583314157S11645221EA0186901916000000000000
B0518023314247S11645199EA0186601911000000000000
B0518063314335S11645179EA0186201910000000000000
B0518103314419S11645162EA0186201909000000000000
B0518143314503S11645148EA0185801899000000000000
B0518183314588S11645130EA0184401885000000000000
B0518223314677S11645104EA0183701882000000000000
B0518263314765S11645074EA0182901872000000000000
B0518303314856S11645044EA0183501884000000000000
B0518343314934S11644998EA0185401910000000000000
B0518383314951S11644920EA0187901934000000000000
B0518423314916S11644883EA0189201931000000000000
B0518463314872S11644911EA0188201919000000000000
B0518503314863S11644985EA0188101928000000000000
B0518543314907S11645052EA0189101940000000000000
B0518583314982S11645056EA0190101950000000015000
B0519023315016S11644985EA0191501966000000015000
B0519063314980S11644933EA0192901976000000015000
B0519103314929S11644954EA0193501985000000015000
B0519143314926S11645022EA0194902004000000015000
B0519183314972S11645076EA0196302013000000015000
B0519223315042S11645075EA0197102019000000015000
B0519263315092S11645015EA0198202033000000015000
B0519303315092S11644945EA0199602045000000015000
B0519343315047S11644918EA0200102043000000015000
B0519383315003S11644959EA0200002048000000015000
B0519423315011S11645032EA0201102066000000015000
B0519463315063S11645084EA0202202072000000015000
B0519503315137S11645088EA0202702076000000015000
B0519543315206S11645047EA0203302082000000015000
B0519583315241S11644983EA0204602094000000015000
B0520023315232S11644918EA0205202095000000015000
B0520063315189S11644875EA0204602086000000015000
B0520103315131S11644880EA0204002085000000015000
B0520143315098S11644939EA0204802101000000015000
B0520183315099S11645010EA0206902123000000015000
B0520223315147S11645061EA0207902125000000015000
B0520263315219S11645061EA0207702126000000015000
B0520303315279S11645010EA0208502140000000015000
B0520343315296S11644941EA0209802148000000015000
B0520383315263S11644896EA0210402153000000015000
B0520423315211S11644905EA0210402150000000015000
B0520463315183S11644969EA0210802163000000015000
B0520503315206S11645043EA0212302176000000015000
B0520543315271S11645082EA0212602176000000015000
B0520583315352S11645075EA0212602179000000015000
B0521023315431S11645049EA0212902178000000000000
B0521063315482S11644984EA0213502190000000015000
B0521103315509S11644907EA0213902184000000015000
B0521143315565S11644832EA0212202165000000000000
B0521183315647S11644767EA0211302163000000000000
B0521223315740S11644720EA0211702167000000000000
B0521263315838S11644681EA0211402158000000000000
B0521303315940S11644642EA0210702153000000000000
B0521343316044S11644610EA0210702153000000000000
B0521383316151S11644581EA0210802155000000000000
B0521423316254S11644551EA0210802153000000000000
B0521463316355S11644523EA0210002147000000000000
B0521503316455S11644498EA0209902150000000000000
B0521543316554S11644476EA0210602157000000000000
B0521583316652S11644456EA0210502152000000000000
B0522023316750S11644436EA0209702146000000000000
B0522063316850S11644413EA0208502131000000000000
B0522103316953S11644395EA0206902113000000000000
B0522143317062S11644380EA0205202088000000000000
B0522183317175S11644364EA0203402076000000000000
B0522223317292S11644352EA0202002059000000000000
B0522263317412S11644342EA0200202044000000000000
B0522303317534S11644332EA0199202031000000000000
B0522343317656S11644320EA0197902019000000000000
B0522383317779S11644308EA0196001998000000000000
B0522423317903S11644294EA0194101982000000000000
B0522463318028S11644281EA0192501963000000000000
B0522503318156S11644268EA0191001942000000000000
B0522543318284S11644257EA0189101926000000000000
B0522583318414S11644247EA0187601908000000000000
B0523023318546S11644237EA0186201899000000000000
B0523063318673S11644235EA0185901898000000000000
B0523103318795S11644238EA0186301908000000000000
B0523143318910S11644222EA0187801927000000000000
B0523183319011S11644176EA0190001949000000000000
B0523223319070S11644083EA0193501990000000015000
B0523263319049S11644004EA0197202026000000015000
B0523303319001S11644003EA0199002044000000015000
B0523343318999S11644062EA0200002041000000015000
B0523383319063S11644103EA0199502043000000015000
B0523423319144S11644072EA0200902064000000015000
B0523463319176S11643991EA0203402091000000015000
B0523503319150S11643927EA0205602109000000015000
B0523543319109S11643935EA0207202125000000015000
B0523583319114S11643994EA0208202132000000015000
B0524023319157S11644044EA0209302148000000015000
B0524063319219S11644074EA0211202164000000000000
B0524103319284S11644055EA0213102182000000015000
B0524143319293S11643983EA0213702185000000015000
B0524183319244S11643968EA0214702199000000015000
B0524223319220S11644023EA0216202217000000015000
B0524263319240S11644088EA0217702230000000015000
B0524303319300S11644125EA0218602240000000000000
B0524343319365S11644092EA0219702256000000015000
B0524383319387S11644017EA0220702263000000015000
B0524423319369S11643947EA0221902277000000015000
B0524463319324S11643923EA0223502292000000015000
B0524503319294S11643965EA0224402299000000015000
B0524543319310S11644030EA0225002303000000015000
B0524583319365S11644083EA0225302304000000015000
B0525023319441S11644103EA0225802313000000015000
B0525063319517S11644074EA0226702322000000015000
B0525103319562S11643999EA0227402331000000015000
B0525143319565S11643913EA0227902335000000015000
B0525183319534S11643844EA0228702347000000015000
B0525223319483S11643804EA0229802356000000015000
B0525263319428S11643812EA0230602363000000015000
B0525303319389S11643865EA0231102365000000015000
B0525343319371S11643936EA0230902360000000000000
B0525383319372S11644017EA0231402372000000000000
B0525423319426S11644078EA0232402380000000000000
B0525463319510S11644074EA0232602384000000000000
B0525503319590S11644029EA0233202396000000000000
B0525543319662S11643979EA0234502408000000000000
B0525583319742S11643943EA0235402411000000000000
B0526023319831S11643944EA0235002405000000000000
B0526063319920S11643973EA0233802389000000000000
B0526103320000S11644027EA0232602378000000000000
B0526143320072S11644099EA0231802371000000000000
B0526183320143S11644173EA0231502368000000000000
B0526223320211S11644252EA0230702357000000000000
B0526263320273S11644342EA0230002353000000000000
B0526303320332S11644432EA0230602363000000000000
B0526343320393S11644515EA0231302369000000000000
B0526383320457S11644592EA0232102377000000000000
B0526423320509S11644676EA0232202371000000000000
B0526463320523S11644779EA0231502362000000000000
B0526503320520S11644883EA0230302350000000000000
B0526543320506S11644987EA0229602345000000000000
B0526583320487S11645087EA0229602346000000000000
B0527023320462S11645180EA0230002354000000000000
B0527063320436S11645268EA0230902366000000000000
B0527103320402S11645344EA0232102374000000000000
B0527143320362S11645416EA0231802362000000000000
B0527183320315S11645485EA0230702351000000000000
B0527223320263S11645548EA0229602343000000000000
B0527263320208S11645611EA0228602332000000000000
B0527303320150S11645671EA0227202316000000000000
B0527343320089S11645732EA0226002303000000000000
B0527383320028S11645797EA0225602302000000000000
B0527423319968S11645860EA0225702306000000000000
B0527463319908S11645924EA0226202310000000000000
B0527503319847S11645986EA0226402312000000000000
B0527543319777S11646036EA0226902322000000000000
B0527583319704S11646074EA0227302321000000000000
B0528023319630S11646105EA0227302322000000000000
B0528063319557S11646136EA0227202319000000000000
B0528103319486S11646159EA0226602314000000000000
B0528143319411S11646180EA0226202303000000000000
B0528183319336S11646211EA0224802290000000000000
B0528223319261S11646250EA0224002284000000000000
B0528263319188S11646291EA0223502280000000000000
B0528303319115S11646332EA0222802273000000000000
B0528343319040S11646374EA0222302265000000000000
B0528383318964S11646409EA0220802250000000000000
B0528423318888S11646449EA0219702241000000000000
B0528463318815S11646491EA0219402235000000000000
B0528503318743S11646536EA0218602226000000000000
B0528543318673S11646582EA0217702219000000000000
B0528583318605S11646627EA0216702207000000000000
B0529023318538S11646674EA0215502195000000000000
B0529063318473S11646725EA0214402187000000000000
B0529103318408S11646778EA0213602177000000000000
B0529143318344S11646834EA0212702168000000000000
B0529183318284S11646893EA0212502167000000000000
B0529223318223S11646948EA0211802155000000000000
B0529263318162S11647003EA0210802151000000000000
B0529303318106S11647059EA0210802153000000000000
B0529343318050S11647112EA0210802153000000000000
B0529383317993S11647163EA0210102142000000000000
B0529423317936S11647219EA0208902130000000000000
B0529463317879S11647280EA0207102109000000000000
B0529503317824S11647350EA0205702094000000000000
B0529543317776S11647429EA0204702086000000000000
B0529583317736S11647514EA0204002080000000000000
B0530023317701S11647604EA0202902066000000000000
B0530063317664S11647696EA0201402051000000000000
B0530103317630S11647791EA0199902037000000000000
B0530143317597S11647883EA0199102030000000000000
B0530183317564S11647973EA0198402025000000000000
B0530223317533S11648060EA0198002022000000000000
B0530263317502S11648146EA0197402011000000000000
B0530303317472S11648235EA0196402004000000000000
B0530343317443S11648325EA0195901997000000000000
B0530383317413S11648412EA0194801985000000000000
B0530423317381S11648498EA0193001963000000000000
B0530463317350S11648586EA0192301963000000000000
B0530503317318S11648670EA0192501965000000000000
B0530543317282S11648749EA0192501963000000000000
B0530583317237S11648814EA0192401960000000000000
B0531023317179S11648857EA0192001961000000000000
B0531063317118S11648884EA0191601952000000000000
B0531103317055S11648921EA0190201938000000000000
B0531143316996S11648973EA0188701922000000000000
B0531183316947S11649043EA0188101922000000000000
B0531223316902S11649113EA0188501929000000000000
B0531263316871S11649190EA0190001947000000000000
B0531303316908S11649261EA0191901966000000000000
B0531343316986S11649256EA0191901955000000000000
B0531383317016S11649168EA0191801968000000015000
B0531423316984S11649090EA0193101979000000015000
B0531463316921S11649058EA0193601982000000015000
B0531503316866S11649091EA0195002004000000015000
B0531543316850S11649157EA0196702013000000015000
B0531583316876S11649229EA0196302006000000015000
B0532023316944S11649265EA0195902001000000015000
B0532063317017S11649231EA0195001991000000015000
B0532103317047S11649147EA0194501993000000015000
B0532143317034S11649064EA0195102004000000015000
B0532183317000S11649001EA0196602021000000015000
B0532223316947S11648986EA0197902030000000015000
B0532263316906S11649025EA0198602033000000015000
B0532303316882S11649095EA0197302007000000000000
B0532343316856S11649181EA0194601978000000000000
B0532383316831S11649277EA0192401960000000000000
B0532423316805S11649377EA0190601945000000000000
B0532463316782S11649477EA0189501937000000000000
B0532503316759S11649577EA0188601928000000000000
B0532543316737S11649676EA0187301915000000000000
B0532583316717S11649773EA0186401901000000000000
B0533023316697S11649871EA0184901886000000000000
B0533063316680S11649967EA0183401872000000000000
B0533103316661S11650059EA0182301864000000000000
B0533143316641S11650149EA0181501852000000000000
B0533183316620S11650240EA0180001835000000000000
B0533223316598S11650335EA0178201819000000000000
B0533263316574S11650432EA0176901806000000000000
B0533303316545S11650531EA0175801796000000000000
B0533343316518S11650629EA0175101784000000000000
B0533383316486S11650728EA0173801772000000000000
B0533423316455S11650824EA0173001772000000000000
B0533463316425S11650917EA0172501754000000000000
B0533503316394S11651016EA0170801740000000000000
B0533543316349S11651111EA0169401724000000000000
B0533583316277S11651176EA0168101716000000000000
B0534023316193S11651214EA0167101705000000000000
B0534063316104S11651231EA0165801693000000000000
B0534103316016S11651233EA0165401689000000000000
B0534143315927S11651227EA0164301674000000000000
B0534183315840S11651218EA0162801661000000000000
B0534223315752S11651209EA0161701648000000000000
B0534263315666S11651198EA0160801641000000000000
B0534303315580S11651183EA0160101633000000000000
B0534343315497S11651167EA0160101635000000000000
B0534383315417S11651149EA0159801630000000000000
B0534423315336S11651129EA0159401626000000000000
B0534463315259S11651112EA0159501635000000000000
B0534503315185S11651097EA0161201647000000000000
B0534543315112S11651081EA0162301660000000000000
B0534583315042S11651069EA0163601678000000000000
B0535023314973S11651059EA0164901683000000000000
B0535063314902S11651053EA0164601682000000000000
B0535103314828S11651045EA0164901686000000000000
B0535143314754S11651033EA0166101699000000000000
B0535183314683S11651025EA0167301720000000000000
B0535223314625S11651045EA0169601738000000000000
B0535263314638S11651108EA0171501761000000000000
B0535303314708S11651111EA0172401768000000015000
B0535343314743S11651036EA0173601786000000015000
B0535383314704S11650991EA0176001811000000015000
B0535423314681S11651032EA0177401816000000015000
B0535463314720S11651084EA0178201829000000015000
B0535503314786S11651071EA0179301839000000015000
B0535543314815S11650998EA0180601855000000015000
B0535583314781S11650941EA0182401871000000015000
B0536023314735S11650952EA0183301876000000015000
B0536063314737S11651015EA0183601880000000015000
B0536103314795S11651050EA0184501892000000015000
B0536143314852S11651002EA0185501906000000015000
B0536183314846S11650926EA0186701911000000015000
B0536223314796S11650911EA0187401923000000015000
B0536263314780S11650963EA0188401929000000015000
B0536303314820S11651015EA0188801934000000015000
B0536343314891S11651010EA0189501941000000015000
B0536383314949S11650951EA0190301954000000015000
B0536423314976S11650869EA0191801967000000015000
B0536463314956S11650793EA0192901973000000015000
B0536503314907S11650746EA0191901955000000015000
B0536543314837S11650725EA0189801933000000015000
B0536583314756S11650718EA0188501920000000000000
B0537023314668S11650717EA0187501913000000000000
B0537063314578S11650721EA0186201895000000000000
B0537103314487S11650728EA0184701884000000000000
B0537143314399S11650734EA0183801876000000000000
B0537183314312S11650741EA0182901868000000000000
B0537223314226S11650748EA0182101859000000000000
B0537263314141S11650759EA0181301852000000000000
B0537303314059S11650770EA0180601845000000000000
B0537343313977S11650782EA0180001833000000000000
B0537383313897S11650798EA0178801822000000000000
B0537423313816S11650817EA0177601809000000000000
B0537463313737S11650835EA0176401799000000000000
B0537503313656S11650851EA0175401789000000000000
B0537543313577S11650863EA0174701786000000000000
B0537583313502S11650872EA0174001773000000000000
B0538023313428S11650882EA0173301767000000000000
B0538063313355S11650897EA0172601763000000000000
B0538103313287S11650913EA0172201758000000000000
B0538143313220S11650928EA0171301746000000000000
B0538183313155S11650942EA0170601739000000000000
B0538223313088S11650947EA0169001719000000000000
B0538263313018S11650943EA0167501707000000000000
B0538303312952S11650943EA0166601701000000000000
B0538343312887S11650949EA0165701688000000000000
B0538383312824S11650964EA0164001671000000000000
B0538423312762S11650994EA0162301655000000000000
B0538463312702S11651034EA0161101644000000000000
B0538503312648S11651085EA0160701641000000000000
B0538543312592S11651136EA0159901629000000000000
B0538583312536S11651190EA0158601617000000000000
B0539023312482S11651248EA0157601609000000000000
B0539063312428S11651306EA0156701599000000000000
B0539103312368S11651357EA0155601589000000000000
B0539143312307S11651407EA0154701578000000000000
B0539183312251S11651467EA0153501568000000000000
B0539223312199S11651534EA0152701553000000000000
B0539263312144S11651604EA0151201539000000000000
B0539303312090S11651674EA0149901528000000000000
B0539343312034S11651743EA0148901519000000000000
B0539383311978S11651810EA0148001510000000000000
B0539423311925S11651878EA0147401506000000000000
B0539463311873S11651944EA0146901502000000000000
B0539503311814S11651990EA0147801514000000000000
B0539543311751S11652008EA0148601523000000000000
B0539583311689S11652018EA0150001541000000000000
B0540023311635S11652028EA0151701553000000000000
B0540063311619S11652085EA0152801566000000000000
B0540103311675S11652128EA0153401565000000000000
B0540143311741S11652093EA0153201564000000015000
B0540183311774S11652018EA0152601553000000015000
B0540223311756S11651955EA0152201559000000015000
B0540263311713S11651935EA0152301555000000015000
B0540303311662S11651953EA0151001535000000015000
B0540343311610S11651999EA0148901516000000000000
B0540383311554S11652057EA0148201515000000000000
B0540423311500S11652120EA0149201527000000000000
B0540463311445S11652184EA0150001539000000000000
B0540503311413S11652260EA0151601558000000000000
B0540543311444S11652334EA0154001591000000000000
B0540583311513S11652349EA0156701602000000000000
B0541023311570S11652289EA0157101605000000015000
B0541063311565S11652211EA0157901621000000015000
B0541103311519S11652184EA0159501635000000015000
B0541143311479S11652212EA0160601642000000015000
B0541183311479S11652272EA0161801659000000015000
B0541223311536S11652308EA0163001661000000015000
B0541263311601S11652271EA0163401672000000015000
B0541303311609S11652197EA0164301680000000015000
B0541343311567S11652167EA0164901691000000015000
B0541383311540S11652211EA0166101699000000015000
B0541423311574S11652271EA0166601709000000015000
B0541463311647S11652276EA0167601720000000015000
B0541503311697S11652220EA0168601730000000015000
B0541543311691S11652148EA0169601741000000015000
B0541583311647S11652134EA0171201757000000015000
B0542023311623S11652181EA0172401767000000015000
B0542063311652S11652241EA0173401781000000015000
B0542103311722S11652251EA0174301790000000015000
B0542143311780S11652199EA0175301802000000015000
B0542183311788S11652126EA0176501818000000015000
B0542223311754S11652086EA0178201833000000015000
B0542263311713S11652100EA0179401842000000015000
B0542303311710S11652161EA0180201850000000015000
B0542343311766S11652202EA0180801855000000015000
B0542383311832S11652165EA0181301858000000015000
B0542423311834S11652085EA0181701865000000015000
B0542463311786S11652065EA0183401888000000015000
B0542503311760S11652117EA0184701897000000015000
B0542543311796S11652178EA0185801909000000015000
B0542583311866S11652173EA0186901916000000015000
B0543023311897S11652104EA0187401925000000015000
B0543063311866S11652054EA0188301933000000015000
B0543103311822S11652078EA0189201943000000015000
B0543143311831S11652148EA0190301956000000015000
B0543183311888S11652197EA0191601973000000015000
B0543223311960S11652176EA0193201979000000015000
B0543263311972S11652106EA0194201995000000015000
B0543303311930S11652082EA0195302000000000015000
B0543343311897S11652128EA0195802008000000015000
B0543383311917S11652195EA0197402030000000015000
B0543423311978S11652232EA0199602051000000015000
B0543463312040S11652199EA0201102061000000015000
B0543503312055S11652128EA0201502066000000015000
B0543543312022S11652082EA0202602078000000015000
B0543583311975S11652095EA0203102080000000015000
B0544023311949S11652150EA0203802092000000015000
B0544063311990S11652211EA0205402108000000015000
B0544103312057S11652184EA0207202127000000015000
B0544143312066S11652108EA0208702142000000015000
B0544183312029S11652070EA0210002153000000015000
B0544223311988S11652094EA0210802157000000015000
B0544263311978S11652160EA0211902175000000015000
B0544303312035S11652212EA0214402200000000015000
B0544343312113S11652197EA0215502211000000015000
B0544383312135S11652121EA0217302238000000015000
B0544423312099S11652080EA0219402254000000015000
B0544463312053S11652102EA0220402259000000015000
B0544503312061S11652173EA0221502279000000015000
B0544543312139S11652191EA0222702281000000015000
B0544583312200S11652124EA0223602304000000015000
B0545023312195S11652043EA0225802318000000015000
B0545063312142S11652020EA0226302318000000015000
B0545103312092S11652065EA0226202323000000015000
B0545143312091S11652146EA0228002347000000015000
B0545183312135S11652217EA0230602375000000015000
B0545223312215S11652213EA0233002395000000015000
B0545263312255S11652143EA0233702396000000015000
B0545303312230S11652074EA0233702404000000015000
B0545343312176S11652052EA0234702412000000015000
B0545383312120S11652080EA0235602423000000015000
B0545423312105S11652154EA0236702433000000015000
B0545463312176S11652199EA0238302455000000015000
B0545503312242S11652142EA0240302470000000015000
B0545543312224S11652074EA0242202496000000015000
B0545583312173S11652082EA0244002508000000015000
B0546023312159S11652151EA0245202524000000015000
B0546063312222S11652197EA0246702537000000015000
B0546103312293S11652148EA0247602546000000015000
B0546143312291S11652072EA0248602562000000015000
B0546183312238S11652059EA0250102575000000015000
B0546223312203S11652109EA0251302591000000015000
B0546263312213S11652181EA0253402610000000015000
B0546303312269S11652230EA0255002621000000015000
B0546343312350S11652230EA0255702628000000015000
B0546383312414S11652174EA0256402636000000015000
B0546423312427S11652099EA0257902655000000015000
B0546463312385S11652073EA0259602671000000015000
B0546503312355S11652125EA0260802681000000015000
B0546543312388S11652198EA0261702687000000015000
B0546583312468S11652208EA0261902693000000015000
B0547023312518S11652150EA0263302715000000015000
B0547063312514S11652087EA0265302729000000015000
B0547103312476S11652057EA0266402733000000015000
B0547143312427S11652068EA0266502731000000015000
B0547183312389S11652124EA0266402733000000015000
B0547223312381S11652207EA0267702751000000015000
B0547263312436S11652273EA0269602772000000015000
B0547303312508S11652255EA0270902781000000015000
B0547343312528S11652190EA0271702789000000015000
B0547383312494S11652154EA0272402794000000015000
B0547423312445S11652169EA0272502794000000015000
B0547463312394S11652221EA0272602799000000015000
B0547503312346S11652288EA0273502806000000000000
B0547543312295S11652356EA0273202795000000000000
B0547583312241S11652431EA0272402791000000000000
B0548023312182S11652501EA0271202782000000015000
B0548063312117S11652571EA0269302772000000015000
B0548103312052S11652644EA0268902768000000015000
B0548143311992S11652704EA0269602770000000015000
B0548183311926S11652759EA0268802759000000015000
B0548223311856S11652815EA0267502749000000015000
B0548263311786S11652873EA0266902742000000015000
B0548303311714S11652934EA0265402734000000015000
B0548343311643S11652999EA0263502724000000015000
B0548383311574S11653066EA0262002711000000015000
B0548423311509S11653129EA0261302700000000015000
B0548463311444S11653191EA0260002680000000015000
B0548503311377S11653255EA0259202667000000015000
B0548543311312S11653321EA0257502650000000015000
B0548583311247S11653390EA0256302639000000015000
B0549023311182S11653458EA0255302632000000015000
B0549063311119S11653528EA0254602623000000015000
B0549103311054S11653597EA0253802613000000015000
B0549143310991S11653666EA0253502610000000015000
B0549183310930S11653733EA0253502611000000015000
B0549223310870S11653798EA0253202609000000030000
B0549263310809S11653863EA0252802602000000030000
B0549303310747S11653927EA0252102596000000030000
B0549343310686S11653993EA0251402590000000030000
B0549383310625S11654058EA0251202584000000030000
B0549423310565S11654124EA0250602579000000030000
B0549463310504S11654192EA0249802574000000045000
B0549503310441S11654260EA0248902566000000045000
B0549543310378S11654322EA0247902557000000045000
B0549583310311S11654382EA0247202548000000045000
B0550023310243S11654442EA0246302539000000045000
B0550063310172S11654503EA0245202530000000045000
B0550103310101S11654568EA0244302522000000045000
B0550143310028S11654634EA0243302512000000045000
B0550183309954S11654696EA0242402504000000045000
B0550223309882S11654760EA0241602497000000045000
B0550263309814S11654825EA0241002496000000045000
B0550303309747S11654895EA0240502493000000045000
B0550343309684S11654964EA0239502476000000045000
B0550383309621S11655038EA0238702461000000030000
B0550423309560S11655111EA0238202450000000030000
B0550463309502S11655185EA0237702443000000015000
B0550503309442S11655259EA0237102433000000015000
B0550543309382S11655333EA0236602429000000015000
B0550583309325S11655404EA0236402426000000015000
B0551023309266S11655470EA0236202425000000015000
