ACAM4N6
HFDTE221021
HFFXA050
HFPLTPILOT:John.Welsh              
HFGTYGLIDERTYPE:HORNET      
HFGIDGLIDERID:VH-GMY      
HFDTM100GPSDATUM:
HFRFWFIRMWAREVERSION:F2.6
HFRHWHARDWAREVERSION:300 Series Version 2
HFFTYFRTYPE:CAMBRIDGE AERO INSTRUMENTS, 302+
HFGPS:GARMIN,LVS-25,12,18000
HFPRSPRESSALTSENSOR:INTERSEMA, MS5534-AP, 20000
I033638FXA3941ENL4247REX
LCAMSBVER:5FWVER:F26300
C221021053942221021000102
C0000000N00000000WTAKEOFF     
C3207550S11656850EBeverley Air
C3301433S11652383EWilliams    
C3220282S11752284ECorrigin    
C3207550S11656850EBeverley Air
C0000000N00000000WLANDING     
B0621433207339S11656856EA0013900207000004000000
B0621453207339S11656856EA0013900207000000000000
B0621473207339S11656856EA0013900207000004000000
B0621493207339S11656856EA0014000207000004000000
B0621513207339S11656857EA0013900207000000000000
B0621533207339S11656856EA0014000207000000000000
B0621553207339S11656856EA0013900207000004000000
B0621573207339S11656856EA0013900207000004000000
B0621593207339S11656856EA0013900207000004000000
B0622013207339S11656856EA0013900207000004000000
B0622033207339S11656856EA0013900207000004000000
B0622053207339S11656856EA0013900207000004000000
B0622073207339S11656857EA0013900207000004000000
B0622093207339S11656857EA0013900207000004000000
B0622113207341S11656858EA0013800207000000000000
B0622163207359S11656873EA0014000207000000000000
B0622203207390S11656897EA0014000207000000000000
B0622243207438S11656931EA0014400208000000000000
B0622283207499S11656970EA0014400209000000000000
B0622323207568S11657017EA0014700210000000000000
B0622363207641S11657068EA0015000213000000000000
B0622403207714S11657118EA0015800225000000000000
B0622443207785S11657168EA0017800244000000000000
B0622483207858S11657212EA0019600265000004000000
B0622523207928S11657256EA0021800288000004000000
B0622563208001S11657299EA0024200310000004000000
B0623003208074S11657339EA0026100328000004000000
B0623043208145S11657378EA0027700345000000000000
B0623083208216S11657419EA0029500365000000000000
B0623123208290S11657456EA0031500383000004000000
B0623163208368S11657495EA0032700394000000000000
B0623203208444S11657530EA0034400416000000000000
B0623243208520S11657567EA0036000434000000000000
B0623283208593S11657601EA0038300453000000000000
B0623323208665S11657636EA0040700473000000000000
B0623363208738S11657671EA0043000488000000015000
B0623403208808S11657711EA0045700512000000015000
B0623443208879S11657746EA0048400545000004015000
B0623483208953S11657759EA0050700568000000015000
B0623523209031S11657758EA0052600587000000015000
B0623563209109S11657740EA0054500605000000015000
B0624003209180S11657706EA0056300613000004015000
B0624043209217S11657647EA0057500621000000015000
B0624083209205S11657581EA0057500621000000015000
B0624123209158S11657534EA0057000614000000015000
B0624163209094S11657512EA0055800603000000015000
B0624203209022S11657506EA0054800603000000015000
B0624243208949S11657498EA0055000604000000015000
B0624283208877S11657525EA0054800605000004015000
B0624323208859S11657607EA0055000607000004030000
B0624363208906S11657651EA0054800600000004045000
B0624403208955S11657618EA0054300593000004060000
B0624443208963S11657549EA0054200593000004150000
B0624483208936S11657480EA0054500594000004060000
B0624523208910S11657417EA0055000594000004150000
B0624563208893S11657367EA0054100590000000000000
B0625003208876S11657320EA0053200585015000180000
B0625043208876S11657320EV0053100000000000000128
B0625083208970S11657502EA0053100615030000165000
B0625123208974S11657507EA0053400596015000105000
B0625163208916S11657525EA0053600601000000135000
B0625203208884S11657595EA0053300599000000090000
B0625243208877S11657679EA0052600592000004090000
B0625283208880S11657762EA0052800586000004090000
B0625323208885S11657839EA0053800580000000090000
B0625363208889S11657910EA0054700575015000090000
B0625403208910S11657853EA0054900570015000090000
B0625443208907S11657781EA0054800565015000090000
B0625483208918S11657790EA0054900560015000090000
B0625523208941S11657783EA0055400555015000090000
B0625563208955S11657762EA0056000549030000090000
B0626003208953S11657751EA0055900544030004090000
B0626043208915S11657768EA0056100540030004090000
B0626083208892S11657772EA0056600536030004090000
B0626123208911S11657770EA0056800531030004090000
B0626163208911S11657740EA0057200525030000090000
B0626203208894S11657712EA0057700520045000090000
B0626243208868S11657702EA0058000515045000090000
B0626283208836S11657715EA0058000510045000090000
B0626323208827S11657735EA0058100505045000090000
B0626363208833S11657745EA0058400501045000090000
B0626403208827S11657741EA0058600496045000090000
B0626443208823S11657740EV0058500000000004000128
B0626483208823S11657740EV0058300000000000000128
B0626523208823S11657740EV0058300000000000000128
B0626563208798S11657701EA0058400479075000120000
B0627003208795S11657699EV0058900000000000000128
B0627043208795S11657699EV0059200000000000000128
B0627063208795S11657699EV0059300000000000000128
B0627083208795S11657699EV0059300000000000000128
B0627103208795S11657699EV0059400000000000000128
B0627123208795S11657699EV0059400000000000000128
B0627143208795S11657699EV0059500000000000000128
B0627163208795S11657699EV0059500000000000000128
B0627183208795S11657699EV0059700000000000000128
B0627203208795S11657699EV0060000000000000000128
B0627223208795S11657699EV0060100000000000000128
B0627243208795S11657699EV0060200000000000000128
B0627263208795S11657699EV0060100000000000000128
B0627283208795S11657699EV0060100000000000000128
B0627323208780S11657761EA0060200453075000165000
B0627363208730S11657907EA0060000452075000180000
B0627403208754S11658002EA0060300465045000225000
B0627443208794S11657997EA0060600475045000180000
B0627483208827S11657952EA0060300483045000105000
B0627523208756S11657850EA0060600488045000075000
B0627563208711S11657835EA0060600521045004225000
B0628003208688S11658009EA0060900526045000000000
B0628043208743S11658015EA0061900564045000105000
B0628083208750S11657967EA0062900595045000090000
B0628123208686S11657958EA0062700643015000135000
B0628163208646S11658023EA0062400660015000150000
B0628203208658S11658099EA0063300666015000105000
B0628243208707S11658101EA0063200689015000225000
B0628283208706S11658044EA0064100711000000120000
B0628323208650S11658043EA0064600713000000090000
B0628363208616S11658108EA0064600717000000090000
B0628403208639S11658170EA0065200724000000075000
B0628443208689S11658178EA0065500725000000060000
B0628483208706S11658130EA0066000731000000075000
B0628523208663S11658096EA0066700737000000060000
B0628563208608S11658131EA0066700736000004060000
B0629003208600S11658204EA0067100741000004060000
B0629043208643S11658238EA0067600745000000045000
B0629083208678S11658206EA0067900750000000030000
B0629123208652S11658160EA0068400755000000030000
B0629163208594S11658174EA0068600756000000015000
B0629203208564S11658243EA0068800757000004015000
B0629243208587S11658308EA0068900761000000015000
B0629283208639S11658313EA0069100762000004015000
B0629323208658S11658265EA0069600767000004015000
B0629363208621S11658223EA0070000769000000015000
B0629403208561S11658238EA0070300772000000015000
B0629443208528S11658304EA0070400773000000015000
B0629483208547S11658374EA0070400771000000015000
B0629523208599S11658388EA0070300770000004015000
B0629563208630S11658342EA0070100767000004015000
B0630003208613S11658279EA0069700765000000015000
B0630043208555S11658251EA0069600765000000045000
B0630083208491S11658294EA0069800765000004060000
B0630123208464S11658374EA0070000766000004090000
B0630163208456S11658459EA0070100765000004090000
B0630203208467S11658534EA0070100764000004090000
B0630243208478S11658604EA0069500763000000090000
B0630283208487S11658658EA0069400761000004090000
B0630323208498S11658700EA0069800760015000090000
B0630363208498S11658700EV0070200000000000000128
B0630403208396S11658429EA0070300760030000075000
B0630443208391S11658474EA0070400759030000075000
B0630483208392S11658541EA0069600758030004075000
B0630523208422S11658621EA0068600758030000075000
B0630563208448S11658686EA0068400757045000075000
B0631003208480S11658686EA0068100756045000075000
B0631043208496S11658673EA0068100756045000060000
B0631083208508S11658658EV0067800000000000000128
B0631123208508S11658658EV0067000000000004000128
B0631163208508S11658658EV0067200000000000000128
B0631203208282S11658277EA0067500755060004060000
B0631243208244S11658205EA0067500755045000060000
B0631283208231S11658132EA0067300754045000060000
B0631323208223S11658056EA0067100753045000060000
B0631363208216S11657979EA0066300751045004075000
B0631403208205S11657900EA0065100749045000075000
B0631443208192S11657822EA0064000746030004075000
B0631483208184S11657745EA0062800742030000090000
B0631523208179S11657666EA0061700738030000090000
B0631563208173S11657586EA0060700733030004090000
B0632003208161S11657507EA0060000728030004105000
B0632043208143S11657428EA0059000723030000105000
B0632083208113S11657350EA0058700715030000105000
B0632123208093S11657269EA0058800708015000105000
B0632163208092S11657192EA0060000707015004105000
B0632203208071S11657117EA0061200698000000060000
B0632243208005S11657116EA0062000700000000030000
B0632283207978S11657185EA0062000693000004030000
B0632323208015S11657242EA0061100685000004030000
B0632363208079S11657234EA0061000685000000030000
B0632403208114S11657176EA0061900694000000015000
B0632443208058S11657143EA0062600694000000015000
B0632483208028S11657211EA0063200705000004030000
B0632523208077S11657251EA0064500715000000030000
B0632563208103S11657198EA0065300720000000030000
B0633003208049S11657156EA0064800711000004030000
B0633043207987S11657198EA0065000723000004030000
B0633083208017S11657255EA0066700741000000030000
B0633123208049S11657207EA0067400747000000030000
B0633163207999S11657163EA0068700761000000015000
B0633203207948S11657205EA0069800771000000015000
B0633243207961S11657270EA0069300755000000030000
B0633283208022S11657257EA0067300742000004030000
B0633323208022S11657182EA0068100756000004030000
B0633363207954S11657146EA0068700759000004030000
B0633403207902S11657205EA0069300765000004045000
B0633443207919S11657278EA0068700756000000075000
B0633483207979S11657281EA0068300759000004075000
B0633523208010S11657213EA0068800763000004045000
B0633563207983S11657143EA0069800772000000030000
B0634003207913S11657130EA0069800763000004030000
B0634043207854S11657189EA0068800757000004015000
B0634083207849S11657268EA0068900760000000030000
B0634123207898S11657296EA0068800750000004030000
B0634163207940S11657238EA0067700742000004030000
B0634203207956S11657153EA0067200742000000030000
B0634243207906S11657090EA0068000753000004030000
B0634283207836S11657124EA0068400752000004045000
B0634323207833S11657203EA0068100750000004075000
B0634363207887S11657204EA0068600752000004105000
B0634403207895S11657131EA0068600753000004120000
B0634443207832S11657092EA0068800757000004105000
B0634483207766S11657124EA0068700754000004150000
B0634523207741S11657205EA0067600742000004225000
B0634563207758S11657294EA0066900739000004000000
B0635003207805S11657333EA0067300741000004030000
B0635043207880S11657277EA0068100751000000105000
B0635083207910S11657191EA0068900762000004090000
B0635123207869S11657131EA0068900755000004045000
B0635163207793S11657143EA0068500753000000030000
B0635203207752S11657215EA0068600763000000030000
B0635243207752S11657291EA0069300768000000030000
B0635283207797S11657329EA0069600774000000060000
B0635323207848S11657315EA0070400782000004060000
B0635363207848S11657243EA0070600785000004075000
B0635403207785S11657229EA0070800784000004045000
B0635443207744S11657294EA0070800783000004030000
B0635483207774S11657355EA0071500795000004030000
B0635523207826S11657328EA0072500800000004030000
B0635563207814S11657260EA0072500798000004015000
B0636003207746S11657243EA0072700803000004015000
B0636043207690S11657296EA0073300806000000015000
B0636083207687S11657374EA0073200803000004015000
B0636123207732S11657416EA0072700795000000015000
B0636163207784S11657378EA0072000792000004015000
B0636203207810S11657303EA0071300784000000030000
B0636243207810S11657225EA0071900784000000030000
B0636283207759S11657176EA0072400788000000045000
B0636323207687S11657187EA0072000792000000060000
B0636363207663S11657265EA0071700796000000075000
B0636403207666S11657351EA0072400805000000150000
B0636443207681S11657450EA0072400801000000165000
B0636483207689S11657541EA0072300800000000120000
B0636523207679S11657636EA0072400801000000105000
B0636563207666S11657731EA0071900801000004105000
B0637003207646S11657827EA0071300798000000105000
B0637043207637S11657920EA0071000793000004090000
B0637083207676S11657980EA0070800791000004090000
B0637123207731S11657974EA0070200781000004105000
B0637163207757S11657911EA0068600775000004105000
B0637203207762S11657831EA0066200763000004090000
B0637243207772S11657748EA0064800757000000105000
B0637283207796S11657668EA0064100751000000105000
B0637323207823S11657588EA0062900746000000105000
B0637363207854S11657507EA0062300741000000105000
B0637403207893S11657439EA0062400738000000105000
B0637443207956S11657400EA0062700736015000090000
B0637483208026S11657373EA0062700731015000090000
B0637523208088S11657337EA0062700727015000090000
B0637563208135S11657273EA0062600718015000075000
B0638003208157S11657200EA0061600715015004075000
B0638043208149S11657114EA0060600707015000075000
B0638083208134S11657027EA0059900699000000060000
B0638123208110S11656943EA0058800691000004060000
B0638163208078S11656860EA0058100685000000060000
B0638203208036S11656784EA0057800681000004060000
B0638243207979S11656727EA0057400679000004060000
B0638283207921S11656684EA0057000678000004060000
B0638323207859S11656661EA0056500677000004060000
B0638363207801S11656657EA0055600676015000060000
B0638403207745S11656650EA0054100675015000075000
B0638443207694S11656680EA0052900674015000075000
B0638483207670S11656682EV0052000000000000000128
B0638523207670S11656682EV0051500000000000000128
B0638563207957S11657038EA0051000671045000090000
B0639003208035S11657118EA0050300669045004105000
B0639043208082S11657169EA0049300667030004105000
B0639083208127S11657222EA0048500665030004105000
B0639123208169S11657286EA0047800663030004120000
B0639163208200S11657358EA0047200661030000120000
B0639203208208S11657433EA0046600660030000120000
B0639243208186S11657516EA0045600658030000135000
B0639283208190S11657601EA0044600655030004120000
B0639323208207S11657679EA0045300652030000135000
B0639363208253S11657681EA0046000652030000150000
B0639403208279S11657632EA0046000651030000000000
B0639443208288S11657566EA0045200647030000015000
B0639483208303S11657497EA0045100646030000225000
B0639523208295S11657426EA0044600634015000225000
B0639563208255S11657387EA0044500635015000225000
B0640003208204S11657430EA0044100632015000060000
B0640043208177S11657499EA0042600618015000210000
B0640083208164S11657581EA0041500605015004150000
B0640123208147S11657660EA0041300599030004015000
B0640163208125S11657733EA0041600590030004060000
B0640203208113S11657809EA0041900588030004135000
B0640243208113S11657879EA0041900589030004030000
B0640283208110S11657948EA0041800597030004015000
B0640323208106S11658000EV0042900000000004000128
B0640363208075S11657829EA0044000566015004150000
B0640403208106S11657840EA0044000522000004120000
B0640443208121S11657790EA0043400509000004060000
B0640483208075S11657751EA0043600511000000030000
B0640523208019S11657789EA0044400517000000030000
B0640563208028S11657853EA0044800516000004030000
B0641003208073S11657845EA0044700519000004030000
B0641043208066S11657789EA0045200523000004015000
B0641083208005S11657780EA0045800528000000015000
B0641123207967S11657842EA0046200534000004015000
B0641163207996S11657894EA0046500533000004015000
B0641203208038S11657866EA0046000527000004015000
B0641243208026S11657805EA0046300536000004015000
B0641283207962S11657815EA0047300541000004015000
B0641323207965S11657887EA0047400542000000030000
B0641363208010S11657875EA0047800551000000030000
B0641403207991S11657818EA0048600562000000030000
B0641443207928S11657809EA0049400566000000015000
B0641483207896S11657868EA0050300577000000030000
B0641523207928S11657914EA0050700575000004030000
B0641563207962S11657880EA0050700580000004030000
B0642003207915S11657839EA0051800589000000015000
B0642043207863S11657884EA0052900602000000015000
B0642083207876S11657948EA0053700604000000015000
B0642123207924S11657956EA0053500603000000015000
B0642163207927S11657900EA0054200611000004015000
B0642203207867S11657875EA0054800617000004015000
B0642243207820S11657928EA0055600625000004015000
B0642283207846S11657983EA0056300630000004015000
B0642323207887S11657957EA0056700637000004015000
B0642363207863S11657901EA0057900648000000015000
B0642403207801S11657911EA0058500652000000015000
B0642443207792S11657980EA0059200663000004015000
B0642483207837S11658000EA0059600667000000015000
B0642523207845S11657945EA0060300681000000015000
B0642563207787S11657931EA0061900690000000015000
B0643003207755S11657992EA0062400698000000015000
B0643043207792S11658043EA0063000702000000015000
B0643083207836S11658028EA0063700712000004015000
B0643123207837S11657970EA0064200711000004015000
B0643163207787S11657935EA0063800713000004015000
B0643203207726S11657959EA0064300716000004015000
B0643243207698S11658024EA0065000726000000015000
B0643283207735S11658061EA0065600727000000030000
B0643323207766S11658019EA0065800731000000030000
B0643363207726S11657976EA0067300748000004015000
B0643403207667S11657998EA0068400757000004015000
B0643443207658S11658066EA0069000762000004015000
B0643483207703S11658087EA0069600766000004030000
B0643523207727S11658039EA0070200778000004015000
B0643563207687S11657996EA0071400790000004015000
B0644003207624S11658018EA0072300798000000015000
B0644043207605S11658086EA0073200809000004015000
B0644083207641S11658130EA0074000810000004015000
B0644123207684S11658106EA0073900808000004015000
B0644163207671S11658041EA0074000813000004015000
B0644203207609S11658028EA0075100828000004015000
B0644243207568S11658086EA0076200840000004015000
B0644283207593S11658141EA0077600853000000030000
B0644323207641S11658131EA0078300856000000015000
B0644363207645S11658069EA0078700861000000015000
B0644403207590S11658041EA0079400872000000015000
B0644443207544S11658093EA0080600886000000015000
B0644483207564S11658154EA0081900897000004030000
B0644523207612S11658139EA0082800902000000030000
B0644563207606S11658075EA0083200906000000015000
B0645003207544S11658067EA0083900920000000015000
B0645043207506S11658130EA0085300933000000015000
B0645083207531S11658192EA0086700950000000015000
B0645123207580S11658199EA0088000956000000030000
B0645163207603S11658147EA0088600957000000015000
B0645203207570S11658093EA0088700959000000015000
B0645243207507S11658109EA0089500974000000015000
B0645283207482S11658177EA0091000988000004015000
B0645323207520S11658219EA0092200998000000030000
B0645363207559S11658180EA0092901004000000015000
B0645403207542S11658122EA0093401011000000015000
B0645443207488S11658104EA0094301020000000015000
B0645483207430S11658138EA0094601019000004015000
B0645523207399S11658213EA0094901030000000015000
B0645563207428S11658273EA0096401045000000030000
B0646003207480S11658260EA0097301048000004030000
B0646043207502S11658197EA0097601050000004015000
B0646083207468S11658141EA0098601069000004015000
B0646123207411S11658145EA0100501079000004015000
B0646163207371S11658204EA0100901087000004015000
B0646203207378S11658270EA0102301103000004015000
B0646243207427S11658281EA0103301109000004030000
B0646283207446S11658226EA0103501110000004015000
B0646323207397S11658190EA0104701128000000015000
B0646363207343S11658234EA0106401146000000015000
B0646403207356S11658296EA0108301163000000015000
B0646443207403S11658303EA0109001164000000015000
B0646483207428S11658249EA0109301169000000015000
B0646523207399S11658197EA0110701183000004015000
B0646563207342S11658191EA0110801181000000015000
B0647003207285S11658238EA0111001189000004015000
B0647043207284S11658305EA0112101200000000015000
B0647083207336S11658305EA0112801201000000030000
B0647123207341S11658240EA0112601204000000030000
B0647163207281S11658221EA0114301231000000015000
B0647203207250S11658282EA0116001238000000015000
B0647243207285S11658334EA0116601247000000015000
B0647283207336S11658321EA0117001247000000015000
B0647323207350S11658256EA0117201251000000015000
B0647363207312S11658204EA0118501266000000015000
B0647403207248S11658200EA0119701276000004015000
B0647443207207S11658260EA0120401284000004015000
B0647483207221S11658327EA0121301295000004015000
B0647523207273S11658336EA0122001297000004030000
B0647563207302S11658277EA0121801294000000030000
B0648003207267S11658218EA0123201315000000015000
B0648043207209S11658222EA0125501336000000015000
B0648083207181S11658282EA0126101337000000015000
B0648123207203S11658343EA0126501346000000015000
B0648163207255S11658356EA0127401352000000030000
B0648203207295S11658310EA0127401349000000030000
B0648243207289S11658242EA0127801356000000030000
B0648283207237S11658205EA0128601367000000015000
B0648323207177S11658223EA0130101383000000015000
B0648363207164S11658287EA0131701396000000015000
B0648403207208S11658318EA0132001395000000030000
B0648443207251S11658278EA0132301400000000030000
B0648483207237S11658214EA0132801406000000015000
B0648523207185S11658180EA0133801414000000015000
B0648563207125S11658192EA0134001417000000015000
B0649003207086S11658251EA0134201419000000015000
B0649043207090S11658326EA0134201418000000015000
B0649083207141S11658372EA0134601428000004015000
B0649123207190S11658340EA0135901442000000015000
B0649163207176S11658279EA0137001448000000015000
B0649203207116S11658274EA0137601458000004015000
B0649243207076S11658330EA0138401463000000015000
B0649283207087S11658400EA0139101475000004015000
B0649323207135S11658420EA0140801488000004030000
B0649363207164S11658370EA0140901486000004030000
B0649403207133S11658313EA0141001491000004015000
B0649443207077S11658329EA0142101500000004015000
B0649483207060S11658394EA0142501506000004015000
B0649523207087S11658456EA0143001510000004015000
B0649563207146S11658464EA0142801501000004015000
B0650003207208S11658426EA0142001497000000015000
B0650043207276S11658381EA0139301467000004015000
B0650083207352S11658327EA0136501438000004015000
B0650123207432S11658275EA0134701423000000015000
B0650163207515S11658229EA0133601412000000000000
B0650203207599S11658187EA0132401398000004000000
B0650243207685S11658147EA0131401391000000000000
B0650283207767S11658105EA0131101392000000000000
B0650323207835S11658060EA0132601407000000000000
B0650363207896S11658014EA0132401395000000000000
B0650403207958S11657965EA0131201385000000000000
B0650443208019S11657914EA0130501379000004000000
B0650483208078S11657865EA0130201377000000000000
B0650523208136S11657820EA0129901371000000000000
B0650563208196S11657779EA0129001362000000000000
B0651003208261S11657738EA0127801350000000000000
B0651043208331S11657706EA0126801340000000000000
B0651083208407S11657679EA0125801331000000000000
B0651123208482S11657646EA0125601333000000000000
B0651163208554S11657608EA0125701334000000000000
B0651203208628S11657573EA0125501331000000000000
B0651243208701S11657545EA0126301342000004000000
B0651283208738S11657478EA0127801360000004000000
B0651323208711S11657411EA0129001364000004000000
B0651363208645S11657404EA0129001362000004000000
B0651403208604S11657464EA0129101368000000000000
B0651443208619S11657533EA0129701375000004015000
B0651483208665S11657579EA0130401382000004015000
B0651523208723S11657598EA0131001383000004015000
B0651563208781S11657573EA0130901383000004015000
B0652003208837S11657528EA0130601379000004015000
B0652043208892S11657476EA0130301377000000015000
B0652083208949S11657421EA0129701370000000015000
B0652123209011S11657364EA0129601373000000015000
B0652163209075S11657302EA0129701374000000015000
B0652203209141S11657233EA0129001358000000015000
B0652243209198S11657159EA0129401380000000015000
B0652283209185S11657082EA0133201417000000015000
B0652323209123S11657078EA0135301428000000015000
B0652363209109S11657148EA0136601448000000015000
B0652403209152S11657179EA0138301461000000030000
B0652443209188S11657142EA0139501465000004015000
B0652483209179S11657086EA0140501471000000015000
B0652523209127S11657065EA0141301487000004015000
B0652563209080S11657103EA0142601498000000015000
B0653003209074S11657172EA0143201508000000015000
B0653043209109S11657221EA0144201520000000030000
B0653083209163S11657221EA0144701523000000030000
B0653123209215S11657190EA0144401515000004015000
B0653163209271S11657150EA0143801510000004015000
B0653203209331S11657113EA0144001521000004015000
B0653243209387S11657081EA0144701522000004015000
B0653283209442S11657042EA0144301515000000000000
B0653323209500S11656994EA0143301508000004000000
B0653363209560S11656942EA0143201510000000000000
B0653403209626S11656890EA0142801505000000000000
B0653443209691S11656838EA0143601520000000000000
B0653483209757S11656793EA0144601528000004000000
B0653523209821S11656749EA0145001526000004000000
B0653563209891S11656708EA0144801523000000000000
B0654003209964S11656669EA0145101534000000000000
B0654043210033S11656627EA0146101544000000000000
B0654083210097S11656584EA0146901549000000000000
B0654123210159S11656537EA0147501553000000000000
B0654163210219S11656490EA0147501551000004000000
B0654203210288S11656451EA0146301533000004000000
B0654243210370S11656422EA0144601516000000000000
B0654283210457S11656397EA0143301506000000000000
B0654323210548S11656381EA0142401498000000000000
B0654363210638S11656370EA0143301518000000000000
B0654403210706S11656342EA0147301556000000000000
B0654443210700S11656281EA0150501589000000000000
B0654483210643S11656272EA0153001612000000000000
B0654523210605S11656327EA0154501622000000000000
B0654563210622S11656397EA0154901630000000015000
B0655003210673S11656407EA0156001648000004015000
B0655043210684S11656359EA0157401657000004015000
B0655083210636S11656333EA0158701673000004015000
B0655123210591S11656381EA0160101685000000015000
B0655163210605S11656454EA0160901693000000015000
B0655203210660S11656467EA0161801701000004015000
B0655243210684S11656416EA0162501706000000015000
B0655283210644S11656376EA0164401728000004015000
B0655323210589S11656402EA0166001741000000015000
B0655363210578S11656477EA0166601742000000015000
B0655403210627S11656526EA0166701746000000015000
B0655443210690S11656522EA0167001749000000015000
B0655483210756S11656505EA0166501740000000015000
B0655523210830S11656483EA0165201725000004015000
B0655563210907S11656454EA0164601722000004000000
B0656003210986S11656427EA0163901716000000015000
B0656043211064S11656397EA0163101709000000015000
B0656083211141S11656368EA0162601706000000015000
B0656123211216S11656342EA0162101702000000015000
B0656163211291S11656319EA0161901702000000015000
B0656203211363S11656292EA0162101704000000015000
B0656243211433S11656258EA0162801711000000015000
B0656283211501S11656217EA0163101716000000015000
B0656323211564S11656171EA0162401714000000015000
B0656363211631S11656117EA0161001697000004015000
B0656403211691S11656058EA0159601690000000015000
B0656443211746S11655998EA0159101688000000015000
B0656483211804S11655939EA0158601679000004015000
B0656523211863S11655879EA0157401666000004015000
B0656563211926S11655816EA0155901656000004015000
B0657003211986S11655748EA0155501650000004030000
B0657043212040S11655677EA0155101644000004030000
B0657083212092S11655601EA0153801639000004045000
B0657123212153S11655531EA0152201630000004045000
B0657163212226S11655480EA0151301622000004045000
B0657203212298S11655434EA0151001615000000060000
B0657243212383S11655410EA0151801611000004045000
B0657283212454S11655366EA0152001607000004030000
B0657323212523S11655327EA0152501609000004030000
B0657363212594S11655297EA0152701608000000030000
B0657403212664S11655258EA0153701621000000015000
B0657443212729S11655213EA0154901633000000015000
B0657483212793S11655171EA0155701638000000030000
B0657523212853S11655125EA0156801652000000030000
B0657563212913S11655079EA0157701656000000030000
B0658003212976S11655036EA0158201657000000030000
B0658043213041S11654989EA0158401657000000030000
B0658083213106S11654941EA0158601663000004030000
B0658123213171S11654891EA0158501654000000015000
B0658163213243S11654843EA0157101638000004015000
B0658203213316S11654789EA0156101634000000015000
B0658243213394S11654738EA0156201639000000015000
B0658283213464S11654686EA0158501666000004015000
B0658323213498S11654618EA0162101701000004015000
B0658363213465S11654565EA0164201718000004015000
B0658403213409S11654595EA0165101727000000015000
B0658443213395S11654673EA0166301743000000030000
B0658483213430S11654733EA0167301755000000030000
B0658523213478S11654717EA0168301764000004030000
B0658563213468S11654656EA0169201773000004030000
B0659003213414S11654638EA0170501786000004030000
B0659043213365S11654681EA0171701797000000030000
B0659083213368S11654755EA0172601802000000030000
B0659123213421S11654789EA0172601802000004030000
B0659163213486S11654773EA0172601802000004030000
B0659203213552S11654745EA0172401798000000030000
B0659243213624S11654708EA0171001782000000015000
B0659283213695S11654659EA0170501781000004015000
B0659323213764S11654602EA0170301776000004015000
B0659363213838S11654543EA0169201767000004015000
B0659403213906S11654479EA0170501791000004015000
B0659443213967S11654416EA0171501787000004015000
B0659483214027S11654342EA0170001778000000015000
B0659523214070S11654243EA0169101773000000015000
B0659563214098S11654140EA0170101779000000030000
B0700003214118S11654039EA0171101784000000030000
B0700043214136S11653939EA0171701788000000030000
B0700083214148S11653836EA0173501801000000030000
B0700123214159S11653734EA0174201804000004030000
B0700163214164S11653636EA0173001795000004030000
B0700203214175S11653533EA0172101787000004030000
B0700243214180S11653426EA0171301781000000030000
B0700283214188S11653320EA0170501769000004015000
B0700323214198S11653212EA0169501761000000015000
B0700363214210S11653103EA0168801754000000015000
B0700403214219S11652995EA0168201747000000015000
B0700443214224S11652886EA0167101741000000015000
B0700483214236S11652779EA0165301734000000015000
B0700523214246S11652671EA0164701730000004030000
B0700563214253S11652566EA0163601727000000030000
B0701003214255S11652458EA0162301720000000030000
B0701043214257S11652351EA0161301715000000030000
B0701083214258S11652246EA0160801712000000030000
B0701123214262S11652141EA0160401715000000030000
B0701163214270S11652038EA0159601717000000045000
B0701203214281S11651935EA0159001718000000045000
B0701243214300S11651836EA0158401719000000045000
B0701283214324S11651735EA0157401711000000045000
B0701323214337S11651631EA0156101702000000045000
B0701363214339S11651522EA0154301683000000045000
B0701403214339S11651409EA0152701676000000045000
B0701443214336S11651294EA0151201660000000045000
B0701483214335S11651183EA0150601653000000045000
B0701523214331S11651068EA0150201635000004045000
B0701563214320S11650960EA0150201636000000045000
B0702003214305S11650858EA0150301637000004045000
B0702043214287S11650756EA0149501629000004045000
B0702083214261S11650656EA0148201611000004060000
B0702123214229S11650561EA0148001601000000045000
B0702163214207S11650468EA0149201608000000045000
B0702203214203S11650374EA0150301608000000045000
B0702243214215S11650282EA0151001605000000030000
B0702283214232S11650195EA0150901597000004030000
B0702323214253S11650107EA0151001596000000030000
B0702363214274S11650018EA0151601595000000015000
B0702403214289S11649925EA0152001597000000015000
B0702443214302S11649833EA0151801590000000015000
B0702483214318S11649737EA0150901574000000015000
B0702523214328S11649634EA0150101574000000015000
B0702563214336S11649533EA0151201586000000015000
B0703003214354S11649435EA0152201598000000015000
B0703043214346S11649347EA0154301621000000015000
B0703083214285S11649301EA0156101632000000015000
B0703123214213S11649331EA0156101628000004015000
B0703163214184S11649412EA0156101631000000015000
B0703203214219S11649481EA0156401635000000015000
B0703243214281S11649480EA0156801642000000015000
B0703283214328S11649429EA0157501651000004015000
B0703323214365S11649364EA0158001655000004015000
B0703363214397S11649290EA0157801648000000000000
B0703403214428S11649205EA0156801636000000000000
B0703443214458S11649113EA0156401635000004000000
B0703483214487S11649018EA0156301631000004000000
B0703523214522S11648923EA0155201618000004000000
B0703563214554S11648826EA0154701621000004000000
B0704003214577S11648728EA0155401629000004000000
B0704043214592S11648628EA0155701629000000000000
B0704083214612S11648528EA0155401625000000000000
B0704123214634S11648428EA0155301623000004000000
B0704163214653S11648328EA0154301612000004000000
B0704203214677S11648228EA0153401602000004000000
B0704243214703S11648128EA0152001586000004000000
B0704283214735S11648026EA0151201578000004000000
B0704323214768S11647926EA0150201570000004000000
B0704363214792S11647825EA0150101575000000000000
B0704403214812S11647726EA0151201586000000000000
B0704443214830S11647628EA0152101593000000000000
B0704483214857S11647536EA0152101588000000000000
B0704523214892S11647446EA0151501582000000000000
B0704563214931S11647357EA0150301567000000000000
B0705003214973S11647267EA0148701549000004000000
B0705043215024S11647179EA0146601530000004000000
B0705083215076S11647090EA0145501522000000000000
B0705123215130S11647004EA0144801512000000000000
B0705163215182S11646920EA0144001506000000000000
B0705203215240S11646842EA0143401500000000000000
B0705243215301S11646770EA0143101500000000000000
B0705283215355S11646698EA0143601507000004000000
B0705323215402S11646623EA0143901510000000000000
B0705363215446S11646549EA0143801508000000000000
B0705403215483S11646470EA0144101514000000000000
B0705443215514S11646392EA0144801519000000000000
B0705483215542S11646313EA0145001521000000000000
B0705523215563S11646227EA0144801516000000000000
B0705563215574S11646133EA0144101509000000000000
B0706003215567S11646037EA0144101511000000000000
B0706043215548S11645937EA0144101509000000000000
B0706083215540S11645832EA0144301514000000000000
B0706123215546S11645728EA0145201524000000000000
B0706163215568S11645628EA0144801511000000000000
B0706203215604S11645531EA0143301498000000000000
B0706243215650S11645442EA0142201487000000000000
B0706283215704S11645356EA0141401478000004000000
B0706323215760S11645273EA0140301466000004000000
B0706363215818S11645190EA0139101453000004000000
B0706403215877S11645106EA0137801440000000000000
B0706443215934S11645022EA0136401426000000000000
B0706483215988S11644935EA0135401415000000000000
B0706523216040S11644845EA0134101405000000000000
B0706563216091S11644758EA0133201395000000000000
B0707003216142S11644672EA0132501390000000000000
B0707043216196S11644595EA0132601397000000000000
B0707083216250S11644527EA0133201401000000000000
B0707123216296S11644456EA0133301400000000000000
B0707163216328S11644382EA0132901398000000000000
B0707203216351S11644302EA0132001387000004000000
B0707243216376S11644218EA0130901377000004000000
B0707283216412S11644139EA0130501373000004000000
B0707323216458S11644064EA0130201371000004000000
B0707363216508S11643994EA0130101373000004000000
B0707403216567S11643936EA0130301373000004000000
B0707443216638S11643908EA0130101370000004000000
B0707483216716S11643893EA0129301360000000000000
B0707523216797S11643882EA0128601359000004000000
B0707563216871S11643854EA0129001357000000000000
B0708003216933S11643810EA0129201358000000015000
B0708043216983S11643747EA0129701362000004015000
B0708083217026S11643676EA0129801360000004015000
B0708123217070S11643602EA0129301356000004015000
B0708163217119S11643531EA0128301342000004015000
B0708203217182S11643471EA0127501336000000015000
B0708243217251S11643422EA0126701329000004015000
B0708283217321S11643375EA0125901325000004015000
B0708323217394S11643333EA0125401322000004015000
B0708363217468S11643301EA0125101321000004015000
B0708403217546S11643290EA0125001321000004015000
B0708443217622S11643293EA0124701317000004015000
B0708483217698S11643302EA0124101309000004015000
B0708523217776S11643308EA0123401301000004000000
B0708563217854S11643298EA0122301291000000000000
B0709003217928S11643275EA0121301279000004000000
B0709043218005S11643253EA0119801263000004000000
B0709083218083S11643230EA0118601254000004000000
B0709123218158S11643199EA0117901245000004000000
B0709163218226S11643151EA0118101250000000000000
B0709203218274S11643078EA0118101244000000000000
B0709243218315S11642999EA0117601239000000015000
B0709283218356S11642920EA0117201236000000015000
B0709323218392S11642838EA0116301227000004015000
B0709363218428S11642755EA0115401221000004015000
B0709403218478S11642677EA0114401218000004015000
B0709443218540S11642612EA0114101216000004015000
B0709483218605S11642557EA0113901218000004015000
B0709523218669S11642500EA0112801203000000015000
B0709563218735S11642445EA0111901190000000015000
B0710003218805S11642398EA0111001182000000015000
B0710043218878S11642358EA0110101172000000015000
B0710083218951S11642323EA0109401165000000015000
B0710123219024S11642291EA0109401166000000015000
B0710163219095S11642261EA0109301165000000015000
B0710203219168S11642231EA0108301153000000015000
B0710243219241S11642201EA0107301146000000015000
B0710283219314S11642176EA0107101144000004015000
B0710323219380S11642137EA0107501151000004015000
B0710363219441S11642089EA0108301156000004015000
B0710403219492S11642028EA0108801159000004015000
B0710443219515S11641953EA0109501164000004015000
B0710483219466S11641902EA0110801177000004075000
B0710523219407S11641941EA0111301183000004180000
B0710563219405S11642024EA0111601188000004060000
B0711003219454S11642067EA0112101190000000030000
B0711043219515S11642059EA0112001185000000030000
B0711083219566S11642018EA0112001182000000030000
B0711123219605S11641971EA0113001180000004030000
B0711163219641S11641923EA0113401178000004030000
B0711203219641S11641956EA0113201173000004030000
B0711243219539S11642093EA0113201200000004210000
B0711283219596S11642068EA0113101200000004090000
B0711323219640S11642016EA0113901209000000060000
B0711363219624S11641956EA0114501213000000075000
B0711403219561S11641973EA0115601227000000060000
B0711443219531S11642045EA0116401235000000030000
B0711483219554S11642116EA0116701235000000030000
B0711523219610S11642151EA0116901241000000045000
B0711563219661S11642120EA0117801252000000045000
B0712003219663S11642049EA0118701259000000045000
B0712043219608S11642020EA0119701270000000030000
B0712083219561S11642077EA0120201270000000045000
B0712123219585S11642151EA0120101271000000120000
B0712163219652S11642163EA0121001286000000090000
B0712203219688S11642102EA0122301298000000075000
B0712243219662S11642037EA0123701308000000060000
B0712283219600S11642042EA0124301320000000045000
B0712323219567S11642114EA0125001323000000030000
B0712363219596S11642187EA0125101327000000030000
B0712403219658S11642192EA0126001341000000030000
B0712443219676S11642124EA0127501356000004030000
B0712483219627S11642084EA0128201364000004045000
B0712523219587S11642140EA0129101374000000045000
B0712563219608S11642209EA0129601381000004075000
B0713003219665S11642224EA0130701392000000045000
B0713043219704S11642172EA0131901397000004030000
B0713083219678S11642107EA0132701405000004030000
B0713123219619S11642115EA0133401416000004030000
B0713163219589S11642179EA0133801414000004015000
B0713203219610S11642254EA0133601416000000015000
B0713243219671S11642280EA0134801428000000015000
B0713283219725S11642237EA0135701440000000015000
B0713323219728S11642167EA0136901450000000030000
B0713363219679S11642131EA0138001462000000030000
B0713403219627S11642166EA0138801461000000015000
B0713443219623S11642245EA0138601463000000015000
B0713483219673S11642292EA0139501476000000015000
B0713523219736S11642278EA0140201481000000015000
B0713563219762S11642211EA0141001485000000015000
B0714003219731S11642146EA0141401487000000015000
B0714043219670S11642144EA0142101499000000015000
B0714083219628S11642197EA0143301509000004015000
B0714123219627S11642271EA0143301503000004015000
B0714163219671S11642332EA0143001506000000015000
B0714203219735S11642339EA0144201523000004015000
B0714243219758S11642281EA0145201523000004015000
B0714283219718S11642232EA0144701516000004015000
B0714323219658S11642255EA0144801524000000015000
B0714363219624S11642322EA0145001525000000015000
B0714403219634S11642402EA0145301529000000015000
B0714443219688S11642456EA0145901530000000015000
B0714483219761S11642463EA0145801529000000015000
B0714523219838S11642444EA0145201521000000015000
B0714563219912S11642408EA0144001513000000015000
B0715003219987S11642363EA0142401501000000015000
B0715043220063S11642311EA0141601495000000015000
B0715083220134S11642252EA0140601483000000030000
B0715123220180S11642163EA0139801485000000030000
B0715163220186S11642063EA0140501490000000030000
B0715203220186S11641969EA0141501493000000030000
B0715243220164S11641890EA0142801498000000015000
B0715283220113S11641826EA0142501488000004015000
B0715323220043S11641786EA0141701482000000015000
B0715363219964S11641773EA0141701486000000030000
B0715403219887S11641798EA0142201493000000030000
B0715443219817S11641847EA0142301491000004015000
B0715483219749S11641904EA0142501493000000015000
B0715523219688S11641972EA0142501493000000015000
B0715563219643S11642057EA0143001510000000015000
B0716003219600S11642135EA0144701521000000015000
B0716043219559S11642218EA0144801518000000000000
B0716083219519S11642304EA0145301526000000000000
B0716123219507S11642393EA0146501539000000000000
B0716163219553S11642460EA0147401550000000000000
B0716203219619S11642460EA0148601563000004015000
B0716243219658S11642404EA0149501573000004015000
B0716283219641S11642337EA0150301579000000015000
B0716323219587S11642315EA0150701581000000015000
B0716363219533S11642356EA0151101584000004015000
B0716403219515S11642431EA0151201583000004015000
B0716443219537S11642509EA0150901582000004015000
B0716483219589S11642570EA0150901584000004015000
B0716523219654S11642603EA0151701593000000015000
B0716563219715S11642575EA0151901592000000015000
B0717003219734S11642505EA0151601589000004015000
B0717043219697S11642445EA0151401587000004015000
B0717083219635S11642430EA0151301586000004015000
B0717123219578S11642463EA0151501589000000015000
B0717163219531S11642521EA0151501588000000015000
B0717203219493S11642587EA0151701597000000015000
B0717243219468S11642661EA0153101611000000000000
B0717283219500S11642725EA0154401620000000000000
B0717323219559S11642720EA0155401635000000015000
B0717363219587S11642664EA0156801646000000015000
B0717403219559S11642610EA0157401648000000015000
B0717443219505S11642606EA0157701653000004015000
B0717483219457S11642655EA0158201660000000015000
B0717523219452S11642723EA0159701678000000015000
B0717563219497S11642759EA0161001686000000015000
B0718003219541S11642716EA0161501690000000015000
B0718043219522S11642652EA0162201697000000015000
B0718083219465S11642658EA0163101709000004015000
B0718123219445S11642723EA0164001719000004015000
B0718163219489S11642772EA0164601723000000015000
B0718203219540S11642743EA0165701737000000015000
B0718243219541S11642679EA0166801745000004015000
B0718283219493S11642656EA0167501751000004015000
B0718323219452S11642704EA0167801753000004015000
B0718363219463S11642778EA0168301757000004015000
B0718403219522S11642807EA0169001765000000015000
B0718443219569S11642759EA0170201778000004015000
B0718483219550S11642695EA0171001787000000030000
B0718523219494S11642691EA0171801798000004030000
B0718563219459S11642748EA0172401798000004015000
B0719003219449S11642829EA0172201796000004015000
B0719043219437S11642913EA0172601808000000015000
B0719083219420S11642996EA0173701817000000015000
B0719123219406S11643086EA0174301820000000000000
B0719163219396S11643181EA0174501822000004000000
B0719203219387S11643276EA0174801827000000000000
B0719243219387S11643367EA0175601834000004000000
B0719283219415S11643453EA0175501827000000000000
B0719323219459S11643535EA0174501816000004000000
B0719363219501S11643620EA0173601808000004000000
B0719403219540S11643709EA0172501799000004000000
B0719443219571S11643801EA0171601786000004000000
B0719483219598S11643895EA0170501778000000000000
B0719523219632S11643984EA0170101775000004000000
B0719563219667S11644070EA0170001776000000000000
B0720003219697S11644155EA0170301780000004000000
B0720043219717S11644242EA0170201776000000000000
B0720083219734S11644330EA0169701771000000000000
B0720123219751S11644417EA0169301766000004000000
B0720163219770S11644504EA0168401755000004000000
B0720203219788S11644594EA0167501747000004000000
B0720243219803S11644679EA0167301749000004000000
B0720283219813S11644761EA0166501735000004000000
B0720323219823S11644848EA0165001722000004000000
B0720363219831S11644935EA0164301715000000000000
B0720403219839S11645018EA0163501706000004000000
B0720443219851S11645100EA0162401694000004000000
B0720483219865S11645186EA0161401685000004000000
B0720523219879S11645273EA0160601680000004000000
B0720563219886S11645365EA0160101673000004000000
B0721003219888S11645459EA0159801674000004000000
B0721043219884S11645548EA0160001675000000000000
B0721083219878S11645637EA0159701672000000000000
B0721123219871S11645725EA0159601670000000000000
B0721163219866S11645811EA0159401667000004000000
B0721203219858S11645895EA0159301666000000000000
B0721243219847S11645980EA0158901662000000000000
B0721283219838S11646063EA0158001652000000000000
B0721323219830S11646149EA0157201644000000000000
B0721363219823S11646237EA0157001645000000000000
B0721403219817S11646323EA0157701655000000000000
B0721443219806S11646405EA0158301658000000000000
B0721483219790S11646483EA0158101655000000000000
B0721523219765S11646560EA0157701646000004000000
B0721563219738S11646642EA0157001644000004000000
B0722003219714S11646727EA0158001651000004000000
B0722043219721S11646809EA0159501666000000000000
B0722083219774S11646847EA0161101682000004000000
B0722123219819S11646809EA0162201692000000015000
B0722163219806S11646751EA0164201725000000030000
B0722203219754S11646744EA0166501739000000045000
B0722243219705S11646791EA0167401744000000030000
B0722283219688S11646869EA0168101754000000030000
B0722323219710S11646938EA0169301769000000015000
B0722363219754S11646969EA0170901784000000015000
B0722403219800S11646948EA0171401785000000015000
B0722443219809S11646893EA0172401790000000015000
B0722483219770S11646859EA0174801801000004015000
B0722523219717S11646880EA0176301818000000030000
B0722563219693S11646951EA0177201826000000015000
B0723003219725S11647015EA0178101841000004015000
B0723043219779S11647021EA0179001849000004030000
B0723083219812S11646973EA0179701862000004030000
B0723123219805S11646913EA0181401880000000090000
B0723163219754S11646893EA0183101908000004195000
B0723203219689S11646961EA0184001914000000165000
B0723243219713S11647064EA0184801923000000180000
B0723283219770S11647103EA0185501931000000105000
B0723323219832S11647094EA0186101941000000195000
B0723363219849S11647025EA0187401956000000180000
B0723403219813S11646976EA0188801980000000225000
B0723443219753S11646986EA0190601993000004210000
B0723483219708S11647052EA0191201988000004075000
B0723523219699S11647146EA0191001985000004060000
B0723563219719S11647242EA0190801982000004060000
B0724003219751S11647335EA0190501978000000030000
B0724043219787S11647428EA0190101970000000030000
B0724083219819S11647526EA0189101960000000030000
B0724123219842S11647623EA0188501955000004015000
B0724163219862S11647719EA0187701947000004015000
B0724203219882S11647817EA0186601936000000015000
B0724243219904S11647916EA0185301923000000015000
B0724283219925S11648017EA0184501911000000015000
B0724323219944S11648124EA0183101893000000015000
B0724363219964S11648237EA0181601881000000000000
B0724403219982S11648352EA0180901876000000000000
B0724443219999S11648468EA0180701879000004015000
B0724483220007S11648580EA0180901882000000015000
B0724523220012S11648689EA0180601876000000015000
B0724563220021S11648801EA0179801866000000000000
B0725003220033S11648913EA0179701864000004000000
B0725043220044S11649027EA0179201856000004000000
B0725083220048S11649145EA0178301849000004000000
B0725123220044S11649264EA0177701846000004000000
B0725163220039S11649379EA0177501842000004000000
B0725203220030S11649498EA0176601827000004000000
B0725243220022S11649615EA0175201816000004000000
B0725283220013S11649732EA0174101803000004000000
B0725323220001S11649849EA0172601790000000000000
B0725363219988S11649967EA0171301774000000000000
B0725403219975S11650088EA0170001763000000000000
B0725443219962S11650209EA0169301759000000000000
B0725483219951S11650327EA0169001755000000000000
B0725523219940S11650445EA0168201748000000000000
B0725563219929S11650561EA0167801747000000000000
B0726003219921S11650669EA0168401754000000000000
B0726043219916S11650774EA0168401750000004000000
B0726083219912S11650881EA0167801744000000000000
B0726123219907S11650988EA0167501744000000000000
B0726163219904S11651093EA0167401741000000000000
B0726203219900S11651196EA0166901737000000000000
B0726243219896S11651298EA0166201727000004000000
B0726283219892S11651402EA0165401724000000000000
B0726323219894S11651502EA0165901729000000000000
B0726363219894S11651602EA0165801728000000000000
B0726403219897S11651700EA0166601743000000000000
B0726443219903S11651791EA0167701751000000000000
B0726483219909S11651882EA0167801748000000000000
B0726523219916S11651973EA0168201759000000000000
B0726563219926S11652057EA0169701773000000000000
B0727003219955S11652132EA0170601780000000000000
B0727043220009S11652164EA0171401787000000000000
B0727083220065S11652134EA0170801775000000000000
B0727123220096S11652061EA0169501761000004000000
B0727163220082S11651978EA0168101748000000015000
B0727203220026S11651920EA0167401742000000015000
B0727243219952S11651912EA0167201747000004015000
B0727283219887S11651955EA0167701753000000015000
B0727323219838S11652018EA0168901767000000015000
B0727363219810S11652098EA0169501767000000000000
B0727403219813S11652186EA0169301768000004000000
B0727443219831S11652273EA0169401765000004000000
B0727483219853S11652366EA0169001762000004000000
B0727523219883S11652460EA0168401755000004000000
B0727563219918S11652557EA0168101754000004000000
B0728003219955S11652652EA0168001753000004000000
B0728043219987S11652748EA0167801747000004000000
B0728083220021S11652845EA0166801735000004000000
B0728123220053S11652944EA0165901727000000000000
B0728163220081S11653044EA0165101719000004000000
B0728203220109S11653146EA0163801705000004000000
B0728243220141S11653246EA0162601695000000000000
B0728283220172S11653348EA0161801688000000000000
B0728323220202S11653448EA0161601688000000000000
B0728363220230S11653543EA0161601687000000000000
B0728403220260S11653638EA0161201685000004000000
B0728443220290S11653733EA0161001682000004000000
B0728483220312S11653835EA0160701676000004000000
B0728523220328S11653941EA0159801663000004000000
B0728563220345S11654050EA0158901657000004000000
B0729003220364S11654157EA0158601659000004000000
B0729043220381S11654256EA0159101661000004000000
B0729083220397S11654353EA0158401656000000000000
B0729123220410S11654446EA0158801666000000000000
B0729163220420S11654533EA0159301665000000000000
B0729203220437S11654621EA0158201652000000000000
B0729243220460S11654713EA0157101641000000000000
B0729283220485S11654807EA0156701636000000000000
B0729323220512S11654899EA0156101630000000000000
B0729363220540S11654994EA0155501622000000000000
B0729403220568S11655089EA0154601614000000000000
B0729443220594S11655184EA0153901609000000000000
B0729483220619S11655279EA0153301601000000000000
B0729523220644S11655376EA0152501594000000000000
B0729563220666S11655474EA0151701585000000000000
B0730003220685S11655574EA0150501573000000000000
B0730043220707S11655677EA0149401562000000000000
B0730083220728S11655781EA0148501550000004000000
B0730123220750S11655883EA0147601544000004000000
B0730163220772S11655985EA0147401545000004000000
B0730203220796S11656085EA0147601547000000000000
B0730243220819S11656182EA0147601546000000000000
B0730283220843S11656279EA0147301543000004000000
B0730323220869S11656373EA0146801536000000000000
B0730363220896S11656466EA0146101531000000000000
B0730403220922S11656557EA0145801529000004000000
B0730443220944S11656646EA0145301521000004000000
B0730483220970S11656736EA0144501513000004000000
B0730523220997S11656826EA0143601502000004000000
B0730563221026S11656918EA0142301490000000000000
B0731003221052S11657013EA0141601483000000000000
B0731043221077S11657109EA0140501470000000000000
B0731083221103S11657208EA0139101456000000000000
B0731123221129S11657304EA0138401455000000000000
B0731163221155S11657395EA0138801462000000000000
B0731203221177S11657482EA0139501468000000000000
B0731243221204S11657564EA0140001471000004000000
B0731283221248S11657634EA0140301475000004000000
B0731323221318S11657668EA0141201490000004000000
B0731363221369S11657625EA0143001514000004000000
B0731403221352S11657564EA0144801527000004015000
B0731443221295S11657556EA0145401536000004015000
B0731483221264S11657611EA0146801549000004015000
B0731523221287S11657672EA0148001556000004015000
B0731563221347S11657677EA0148701564000000015000
B0732003221376S11657620EA0149701578000000030000
B0732043221334S11657571EA0150501582000000030000
B0732083221277S11657594EA0151701600000004015000
B0732123221268S11657660EA0153401613000000015000
B0732163221313S11657706EA0154401620000000015000
B0732203221370S11657685EA0154901630000000015000
B0732243221377S11657619EA0156201645000000030000
B0732283221327S11657582EA0157301650000000015000
B0732323221273S11657618EA0157901662000000015000
B0732363221265S11657692EA0159401677000000015000
B0732403221301S11657750EA0160601685000000015000
B0732443221365S11657759EA0161301692000004015000
B0732483221413S11657720EA0162501706000000030000
B0732523221417S11657653EA0163001708000004030000
B0732563221372S11657599EA0163501715000004015000
B0733003221303S11657610EA0164401724000004015000
B0733043221262S11657672EA0165701741000004015000
B0733083221278S11657745EA0166901750000004015000
B0733123221338S11657777EA0167501754000004015000
B0733163221394S11657745EA0168401767000000030000
B0733203221403S11657677EA0169801779000000030000
B0733243221360S11657628EA0170801785000000030000
B0733283221296S11657636EA0171601791000000015000
B0733323221256S11657696EA0172501804000000015000
B0733363221256S11657771EA0173801814000000015000
B0733403221277S11657846EA0174001813000004015000
B0733443221313S11657924EA0173801810000000015000
B0733483221357S11658006EA0173901812000000015000
B0733523221405S11658091EA0173901811000004000000
B0733563221457S11658178EA0173601801000004000000
B0734003221511S11658268EA0172401793000004000000
B0734043221561S11658359EA0172001789000004000000
B0734083221612S11658450EA0171401783000004000000
B0734123221665S11658538EA0170801778000004000000
B0734163221721S11658624EA0170301770000004000000
B0734203221777S11658711EA0168901756000004000000
B0734243221836S11658799EA0167201741000004000000
B0734283221897S11658888EA0166401732000000000000
B0734323221950S11658981EA0165601726000000000000
B0734363221998S11659077EA0165401722000004000000
B0734403222048S11659171EA0164701716000000000000
B0734443222101S11659257EA0164401716000000000000
B0734483222154S11659335EA0164701720000000000000
B0734523222205S11659409EA0164301712000000000000
B0734563222256S11659480EA0162901695000000000000
B0735003222308S11659553EA0161501685000000000000
B0735043222361S11659623EA0161101683000000000000
B0735083222417S11659692EA0160601677000000000000
B0735123222473S11659761EA0160201675000000000000
B0735163222529S11659830EA0160301678000000000000
B0735203222590S11659887EA0161001688000000000000
B0735243222653S11659921EA0162901711000000000000
B0735283222700S11659885EA0165701742000004000000
B0735323222694S11659821EA0167901760000004015000
B0735363222637S11659795EA0169101768000004015000
B0735403222579S11659835EA0170001775000000015000
B0735443222565S11659912EA0170501778000004015000
B0735483222596S11659980EA0171301787000000015000
B0735523222653S11659994EA0172601803000000015000
B0735563222690S11659946EA0174101817000000015000
B0736003222678S11659877EA0174801826000000015000
B0736043222618S11659843EA0175901840000004015000
B0736083222556S11659872EA0177301849000004015000
B0736123222533S11659946EA0177901853000000015000
B0736163222562S11700015EA0178701863000004015000
B0736203222620S11700030EA0179901879000004015000
B0736243222661S11659987EA0181401889000000015000
B0736283222657S11659913EA0181901893000000015000
B0736323222601S11659864EA0182601904000004015000
B0736363222531S11659868EA0184101918000004015000
B0736403222475S11659919EA0184801923000004015000
B0736443222461S11659999EA0185201925000004015000
B0736483222477S11700084EA0185101923000004015000
B0736523222499S11700171EA0185001920000000015000
B0736563222529S11700257EA0184101911000000015000
B0737003222569S11700338EA0183201905000000000000
B0737043222616S11700415EA0183101908000000000000
B0737083222672S11700481EA0184101920000000000000
B0737123222728S11700545EA0185301928000000000000
B0737163222783S11700606EA0185901935000004000000
B0737203222855S11700624EA0186201936000004000000
B0737243222915S11700578EA0186501943000004015000
B0737283222924S11700502EA0187201948000004015000
B0737323222873S11700453EA0186501934000004015000
B0737363222796S11700463EA0185601927000000015000
B0737403222731S11700524EA0185201925000000015000
B0737443222696S11700617EA0185401930000004015000
B0737483222703S11700714EA0186101935000000015000
B0737523222752S11700795EA0185901930000000015000
B0737563222825S11700853EA0185401924000000015000
B0738003222906S11700905EA0184701916000000015000
B0738043222986S11700955EA0184201911000000000000
B0738083223064S11701008EA0183801905000000000000
B0738123223138S11701069EA0183001897000000000000
B0738163223218S11701104EA0182701894000004000000
B0738203223300S11701099EA0181701881000000015000
B0738243223383S11701082EA0180101865000004000000
B0738283223465S11701052EA0178501848000004000000
B0738323223544S11701009EA0176601830000004000000
B0738363223618S11700956EA0175501823000004000000
B0738403223688S11700904EA0174801818000004000000
B0738443223757S11700855EA0174201806000004000000
B0738483223827S11700804EA0172901793000004000000
B0738523223894S11700745EA0171801784000004000000
B0738563223959S11700680EA0170501768000004000000
B0739003224028S11700617EA0169601767000004000000
B0739043224099S11700565EA0169601763000004000000
B0739083224169S11700514EA0169301762000004000000
B0739123224229S11700450EA0168801758000004000000
B0739163224276S11700375EA0168301752000004000000
B0739203224321S11700296EA0167701747000004000000
B0739243224376S11700227EA0167101739000004000000
B0739283224446S11700177EA0166701736000004000000
B0739323224523S11700138EA0166701738000004000000
B0739363224598S11700095EA0166701738000004000000
B0739403224672S11700051EA0166701740000004000000
B0739443224746S11700010EA0166801749000004000000
B0739483224818S11659969EA0167601757000004000000
B0739523224888S11659926EA0168001760000000000000
B0739563224954S11659880EA0167701755000004000000
B0740003225022S11659833EA0167601755000004000000
B0740043225091S11659787EA0167601754000000000000
B0740083225155S11659737EA0167401752000000000000
B0740123225221S11659686EA0167301752000000000000
B0740163225283S11659630EA0167801757000000000000
B0740203225305S11659549EA0168001757000000000000
B0740243225274S11659471EA0167401747000000000000
B0740283225200S11659447EA0166501741000000000000
B0740323225122S11659484EA0165601733000004000000
B0740363225049S11659542EA0165801738000000000000
B0740403224983S11659608EA0166601747000000000000
B0740443224936S11659683EA0168401768000000000000
B0740483224945S11659761EA0170101781000004000000
B0740523225003S11659791EA0170201778000000000000
B0740563225049S11659753EA0170801790000004015000
B0741003225058S11659688EA0171401792000004015000
B0741043225022S11659633EA0172101800000004015000
B0741083224961S11659608EA0172901803000000015000
B0741123224891S11659621EA0172701800000004015000
B0741163224821S11659655EA0172301792000004000000
B0741203224744S11659694EA0171201780000000000000
B0741243224663S11659731EA0169901768000004000000
B0741283224579S11659772EA0169501765000000000000
B0741323224497S11659825EA0168901760000004000000
B0741363224419S11659882EA0169601776000004000000
B0741403224351S11659945EA0171701799000000000000
B0741443224312S11700024EA0173401806000004000000
B0741483224332S11700111EA0173501805000004000000
B0741523224395S11700143EA0174201823000004000000
B0741563224454S11700117EA0175501832000000015000
B0742003224477S11700052EA0176101838000004015000
B0742043224455S11659985EA0176501839000004015000
B0742083224390S11659952EA0176401837000004015000
B0742123224314S11659961EA0176501840000004015000
B0742163224236S11659993EA0176301836000000000000
B0742203224156S11700030EA0176001830000000000000
B0742243224073S11700075EA0175401823000000000000
B0742283223989S11700121EA0175301825000000000000
B0742323223903S11700166EA0175101822000000000000
B0742363223817S11700208EA0174801816000004000000
B0742403223731S11700247EA0173901804000000000000
B0742443223643S11700290EA0172601794000000000000
B0742483223557S11700340EA0172601800000000000000
B0742523223471S11700385EA0173301805000004000000
B0742563223385S11700422EA0173801809000000000000
B0743003223300S11700455EA0173901809000000000000
B0743043223215S11700501EA0173301796000000000000
B0743083223131S11700553EA0171701783000000000000
B0743123223045S11700597EA0170801775000000000000
B0743163222959S11700634EA0170201773000000000000
B0743203222876S11700667EA0169901767000000000000
B0743243222790S11700700EA0168401747000004000000
B0743283222696S11700725EA0166901736000004000000
B0743323222600S11700741EA0166501734000004000000
B0743363222503S11700754EA0166301731000004000000
B0743403222404S11700771EA0166101731000004000000
B0743443222308S11700796EA0165801725000004000000
B0743483222208S11700804EA0165401724000004000000
B0743523222120S11700767EA0166001736000004000000
B0743563222070S11700689EA0167101750000000000000
B0744003222048S11700600EA0167901751000000000000
B0744043222039S11700506EA0167801753000000000000
B0744083222048S11700413EA0168101756000004000000
B0744123222079S11700332EA0169401775000000000000
B0744163222128S11700281EA0171001790000000000000
B0744203222185S11700262EA0171901792000004000000
B0744243222249S11700266EA0171401788000004000000
B0744283222305S11700306EA0172001797000004000000
B0744323222312S11700387EA0173101813000004000000
B0744363222257S11700436EA0174401825000004000000
B0744403222195S11700410EA0175101823000000000000
B0744443222169S11700340EA0175101829000004000000
B0744483222167S11700266EA0175701834000004000000
B0744523222187S11700197EA0175501831000004000000
B0744563222234S11700155EA0176101840000004000000
B0745003222288S11700171EA0176701845000004000000
B0745043222315S11700234EA0177001848000004015000
B0745083222304S11700314EA0176801839000004015000
B0745123222270S11700393EA0176901849000004000000
B0745163222231S11700470EA0177701854000004000000
B0745203222185S11700546EA0177601850000004000000
B0745243222133S11700623EA0177401846000000000000
B0745283222074S11700697EA0177401845000004000000
B0745323222011S11700771EA0177001844000004000000
B0745363221949S11700847EA0177501850000004000000
B0745403221886S11700922EA0177701849000000000000
B0745443221820S11701003EA0177001840000004000000
B0745483221747S11701082EA0176001830000004000000
B0745523221669S11701157EA0175501824000004000000
B0745563221585S11701226EA0175601827000000000000
B0746003221496S11701284EA0175701828000004000000
B0746043221407S11701339EA0175801825000000000000
B0746083221318S11701402EA0174501809000000000000
B0746123221229S11701469EA0173001796000000000000
B0746163221135S11701531EA0172301791000000000000
B0746203221039S11701581EA0172101789000000000000
B0746243220945S11701628EA0171701786000000000000
B0746283220852S11701674EA0171101780000000000000
B0746323220757S11701719EA0171201783000000000000
B0746363220680S11701779EA0174901824000000000000
B0746403220675S11701863EA0177901855000000000000
B0746443220724S11701905EA0179301869000000000000
B0746483220784S11701880EA0179701868000000000000
B0746523220819S11701811EA0179701874000000000000
B0746563220820S11701733EA0181101894000000000000
B0747003220775S11701689EA0183101915000004000000
B0747043220726S11701710EA0184601924000004000000
B0747083220726S11701774EA0185301929000004000000
B0747123220780S11701792EA0186001939000004000000
B0747163220819S11701739EA0186801946000004015000
B0747203220810S11701667EA0187301944000004015000
B0747243220758S11701627EA0187601954000004015000
B0747283220693S11701645EA0187701949000004015000
B0747323220628S11701690EA0186301931000000000000
B0747363220555S11701745EA0184901915000000000000
B0747403220473S11701800EA0183701904000000000000
B0747443220384S11701845EA0182901896000000000000
B0747483220294S11701895EA0181601880000000000000
B0747523220203S11701947EA0179801860000000000000
B0747563220103S11701992EA0178001845000000000000
B0748003220000S11702035EA0177001835000000000000
B0748043219900S11702083EA0176101832000000000000
B0748083219801S11702119EA0176101833000000000000
B0748123219701S11702140EA0175701827000000000000
B0748163219598S11702156EA0175001820000000000000
B0748203219498S11702168EA0175801838000000000000
B0748243219405S11702181EA0176901844000000000000
B0748283219307S11702194EA0175501821000000000000
B0748323219201S11702209EA0174101812000000000000
B0748363219094S11702234EA0173601806000000000000
B0748403218989S11702253EA0173601806000000000000
B0748443218882S11702269EA0172101783000000000000
B0748483218774S11702285EA0170501776000000000000
B0748523218668S11702301EA0170101771000004000000
B0748563218564S11702322EA0169301764000004000000
B0749003218461S11702352EA0169001760000004000000
B0749043218363S11702391EA0169101769000000000000
B0749083218267S11702411EA0170601784000000000000
B0749123218175S11702425EA0171701792000000000000
B0749163218089S11702459EA0172601801000000000000
B0749203218010S11702520EA0172201787000000000000
B0749243217923S11702584EA0170801774000004000000
B0749283217836S11702647EA0170401776000000000000
B0749323217750S11702706EA0170501778000000000000
B0749363217667S11702760EA0170601781000000000000
B0749403217586S11702811EA0171001784000000000000
B0749443217505S11702860EA0170801781000004000000
B0749483217425S11702909EA0170201775000004000000
B0749523217343S11702955EA0169301766000004000000
B0749563217264S11703007EA0168001752000000000000
B0750003217180S11703057EA0167101739000004000000
B0750043217097S11703107EA0166101729000004000000
B0750083217021S11703167EA0165101721000004000000
B0750123216949S11703232EA0164601719000004000000
B0750163216876S11703292EA0164501717000004000000
B0750203216809S11703360EA0164401720000004000000
B0750243216750S11703432EA0164701722000000000000
B0750283216684S11703499EA0164601720000000000000
B0750323216607S11703551EA0164801723000000000000
B0750363216528S11703596EA0165601732000000000000
B0750403216465S11703660EA0167401752000004000000
B0750443216456S11703748EA0169401776000004000000
B0750483216428S11703821EA0170901792000004000000
B0750523216367S11703819EA0172401810000004000000
B0750563216342S11703764EA0173901823000000000000
B0751003216368S11703716EA0174501821000000000000
B0751043216425S11703708EA0174201825000000000000
B0751083216480S11703738EA0175401837000000000000
B0751123216525S11703787EA0176801853000000000000
B0751163216546S11703859EA0177801856000000000000
B0751203216537S11703936EA0177901855000004000000
B0751243216490S11704001EA0177801854000000000000
B0751283216425S11704043EA0177801855000000000000
B0751323216351S11704073EA0177901854000000000000
B0751363216273S11704099EA0177101842000000000000
B0751403216187S11704127EA0175901826000004000000
B0751443216095S11704153EA0173901802000000000000
B0751483215999S11704180EA0171601785000000000000
B0751523215905S11704202EA0170401777000000000000
B0751563215814S11704220EA0170401783000000000000
B0752003215728S11704237EA0171101790000000000000
B0752043215644S11704258EA0172001798000000000000
B0752083215558S11704277EA0172201800000000000000
B0752123215471S11704298EA0172401798000004000000
B0752163215392S11704342EA0173001810000004000000
B0752203215336S11704413EA0174001823000004000000
B0752243215318S11704496EA0175501838000004000000
B0752283215342S11704565EA0176101838000000000000
B0752323215396S11704602EA0175701833000000000000
B0752363215455S11704599EA0175501829000000000000
B0752403215497S11704548EA0175201828000000000000
B0752443215501S11704474EA0174901824000000000000
B0752483215463S11704406EA0174701825000004000000
B0752523215399S11704371EA0174801826000004000000
B0752563215327S11704387EA0175001826000000000000
B0753003215269S11704444EA0174701820000000000000
B0753043215210S11704504EA0173801810000000000000
B0753083215138S11704557EA0173101805000000000000
B0753123215064S11704606EA0173101806000000000000
B0753163214991S11704657EA0173301811000000000000
B0753203214925S11704709EA0174301824000000000000
B0753243214864S11704760EA0175201833000000000000
B0753283214801S11704805EA0175801833000000000000
B0753323214738S11704849EA0175001825000000000000
B0753363214666S11704886EA0174301817000000000000
B0753403214588S11704909EA0173501811000000000000
B0753443214509S11704929EA0173601813000004000000
B0753483214431S11704944EA0173701817000004000000
B0753523214356S11704957EA0173801816000004000000
B0753563214280S11704977EA0173301805000004000000
B0754003214198S11704995EA0172001792000000000000
B0754043214112S11705013EA0171801796000000000000
B0754083214027S11705030EA0172401802000000000000
B0754123213942S11705048EA0172901807000004000000
B0754163213858S11705070EA0173201809000000000000
B0754203213772S11705093EA0173501811000004000000
B0754243213689S11705124EA0173101805000004000000
B0754283213603S11705154EA0172501799000004000000
B0754323213521S11705194EA0173101809000004000000
B0754363213482S11705273EA0174501829000004000000
B0754403213499S11705346EA0176401846000004000000
B0754443213548S11705375EA0177001843000004000000
B0754483213595S11705347EA0176601841000004000000
B0754523213596S11705280EA0176001835000004000000
B0754563213556S11705215EA0175601832000004000000
B0755003213496S11705158EA0175601829000004000000
B0755043213429S11705103EA0175001824000004000000
B0755083213357S11705046EA0175201828000004000000
B0755123213286S11704986EA0175101822000000000000
B0755163213212S11704929EA0174401817000004000000
B0755203213140S11704870EA0174101812000000000000
B0755243213071S11704808EA0172901798000000000000
B0755283213005S11704742EA0171501783000000000000
B0755323212935S11704677EA0170401775000004000000
B0755363212864S11704613EA0170201776000004000000
B0755403212802S11704548EA0170101774000004000000
B0755443212741S11704482EA0169201764000000000000
B0755483212680S11704415EA0168401757000000000000
B0755523212617S11704348EA0167501747000000000000
B0755563212552S11704277EA0166901738000000000000
B0756003212486S11704209EA0165901728000000000000
B0756043212419S11704136EA0164701713000000000000
B0756083212348S11704060EA0163101696000000000000
B0756123212277S11703980EA0161601680000000000000
B0756163212204S11703895EA0159901664000000000000
B0756203212129S11703809EA0158401650000000000000
B0756243212051S11703726EA0157501644000000000000
B0756283211973S11703647EA0156801636000004000000
B0756323211896S11703570EA0156201633000004000000
B0756363211822S11703497EA0156301637000004000000
B0756403211754S11703427EA0156701639000004000000
B0756443211688S11703362EA0156701639000004000000
B0756483211622S11703301EA0156301634000000000000
B0756523211554S11703243EA0155401624000000000000
B0756563211488S11703183EA0154401612000000000000
B0757003211423S11703119EA0153201602000000000000
B0757043211356S11703055EA0152201590000000000000
B0757083211288S11702994EA0151501587000004000000
B0757123211223S11702931EA0151101581000000000000
B0757163211160S11702863EA0150701578000000000000
B0757203211100S11702797EA0150501581000000000000
B0757243211042S11702734EA0151501593000000000000
B0757283210977S11702693EA0152701602000000000000
B0757323210898S11702698EA0152901602000000000000
B0757363210829S11702749EA0153201608000000000000
B0757403210792S11702831EA0153301608000000000000
B0757443210799S11702923EA0153001603000000000000
B0757483210846S11703001EA0152701600000000000000
B0757523210917S11703037EA0152201595000000000000
B0757563210990S11703015EA0152001594000000000000
B0758003211037S11702951EA0152301603000000000000
B0758043211060S11702877EA0153601618000004000000
B0758083211059S11702806EA0154501626000004000000
B0758123211038S11702740EA0154901630000004000000
B0758163210998S11702680EA0154901628000004000000
B0758203210948S11702623EA0156001643000000000000
B0758243210888S11702594EA0157701658000000000000
B0758283210838S11702645EA0158601663000004000000
B0758323210861S11702724EA0158701665000004000000
B0758363210924S11702727EA0159801678000004000000
B0758403210937S11702659EA0161001690000004000000
B0758443210894S11702607EA0162101700000004000000
B0758483210830S11702612EA0162701706000004000000
B0758523210799S11702681EA0163301714000004000000
B0758563210833S11702747EA0163801719000000000000
B0759003210898S11702753EA0164101719000004000000
B0759043210942S11702694EA0164701729000004015000
B0759083210935S11702616EA0165701736000000015000
B0759123210886S11702561EA0166301744000000015000
B0759163210818S11702556EA0167001751000000000000
B0759203210761S11702603EA0168101766000000000000
B0759243210742S11702678EA0169101768000000000000
B0759283210765S11702751EA0168801766000000000000
B0759323210825S11702790EA0168901764000000000000
B0759363210898S11702785EA0168601766000000015000
B0759403210959S11702746EA0169601781000004015000
B0759443210996S11702682EA0170801789000000015000
B0759483211003S11702604EA0170901786000004000000
B0759523210978S11702525EA0170401776000004000000
B0759563210922S11702452EA0169101760000004000000
B0800003210849S11702390EA0168401759000004000000
B0800043210773S11702333EA0168801762000000000000
B0800083210692S11702282EA0169201771000000000000
B0800123210612S11702236EA0169701775000000000000
B0800163210530S11702192EA0169801774000000000000
B0800203210448S11702148EA0169901774000000000000
B0800243210366S11702100EA0169601769000000000000
B0800283210284S11702053EA0169101762000000000000
B0800323210199S11702005EA0168201754000000000000
B0800363210119S11701948EA0167701751000000000000
B0800403210042S11701884EA0167001743000000000000
B0800443209963S11701823EA0166501739000004000000
B0800483209885S11701761EA0166301737000000000000
B0800523209808S11701698EA0166201735000000000000
B0800563209729S11701636EA0165101725000000000000
B0801003209648S11701577EA0164901723000000000000
B0801043209569S11701516EA0164401715000000000000
B0801083209488S11701453EA0163101697000000000000
B0801123209403S11701386EA0161501686000000000000
B0801163209315S11701323EA0161301687000000000000
B0801203209230S11701260EA0161001679000004000000
B0801243209146S11701193EA0160001670000004000000
B0801283209062S11701126EA0158501655000004000000
B0801323208974S11701064EA0158301656000004000000
B0801363208890S11701000EA0159101668000000000000
B0801403208815S11700936EA0159601671000000000000
B0801443208740S11700875EA0159101663000000000000
B0801483208663S11700816EA0158701659000000000000
B0801523208587S11700757EA0158001652000000000000
B0801563208512S11700699EA0157201644000000000000
B0802003208438S11700643EA0157001645000000000000
B0802043208365S11700588EA0156901642000000000000
B0802083208291S11700535EA0156701642000000000000
B0802123208217S11700484EA0157201649000004000000
B0802163208142S11700439EA0157401650000004000000
B0802203208066S11700390EA0158001655000004000000
B0802243207992S11700333EA0158001658000004000000
B0802283207919S11700279EA0158501658000000000000
B0802323207844S11700223EA0157301639000004000000
B0802363207763S11700166EA0155101622000004000000
B0802403207680S11700111EA0154001609000004000000
B0802443207596S11700056EA0152801598000000000000
B0802483207511S11700002EA0151901589000000000000
B0802523207428S11659950EA0151201585000000000000
B0802563207347S11659900EA0150101570000000000000
B0803003207267S11659851EA0149101561000000000000
B0803043207181S11659809EA0148001549000000000000
B0803083207094S11659776EA0147701552000000000000
B0803123207005S11659746EA0147501545000000000000
B0803163206916S11659714EA0147101546000004000000
B0803203206832S11659673EA0147401548000004000000
B0803243206751S11659621EA0146801537000004000000
B0803283206666S11659568EA0145601525000004000000
B0803323206579S11659514EA0144301510000004000000
B0803363206491S11659462EA0143101499000000000000
B0803403206403S11659410EA0142101489000000000000
B0803443206320S11659354EA0141201482000000000000
B0803483206240S11659297EA0140701476000000000000
B0803523206162S11659241EA0140601481000000000000
B0803563206091S11659184EA0140701480000000000000
B0804003206025S11659123EA0140501480000004000000
B0804043205968S11659058EA0140701480000000000000
B0804083205908S11658997EA0140601482000000000000
B0804123205847S11658940EA0141401496000000000000
B0804163205779S11658912EA0142901508000000000000
B0804203205712S11658954EA0143401508000004000000
B0804243205683S11659042EA0143601512000000000000
B0804283205701S11659133EA0143701513000004000000
B0804323205759S11659194EA0144101518000000000000
B0804363205830S11659213EA0144901525000000000000
B0804403205878S11659165EA0145401530000004000000
B0804443205872S11659087EA0145401527000000000000
B0804483205822S11659020EA0144801520000000000000
B0804523205746S11658993EA0145301533000004000000
B0804563205669S11658999EA0146401542000004000000
B0805003205592S11659012EA0146701544000004000000
B0805043205517S11659038EA0146701545000000000000
B0805083205443S11659072EA0147101550000004000000
B0805123205369S11659106EA0147601556000004000000
B0805163205295S11659141EA0148001556000000000000
B0805203205233S11659197EA0149001575000000000000
B0805243205231S11659269EA0151301597000000000000
B0805283205275S11659304EA0152001596000000000000
B0805323205324S11659279EA0151801594000000000000
B0805363205337S11659211EA0151801600000000000000
B0805403205300S11659153EA0152201600000004000000
B0805443205230S11659144EA0152601604000004000000
B0805483205176S11659196EA0153201613000004000000
B0805523205181S11659272EA0154001620000004000000
B0805563205233S11659306EA0154601623000000000000
B0806003205283S11659272EA0154801630000000015000
B0806043205291S11659205EA0155601636000000015000
B0806083205250S11659146EA0155901641000004000000
B0806123205183S11659139EA0156501648000004000000
B0806163205135S11659192EA0157301654000004000000
B0806203205139S11659267EA0157701655000004000000
B0806243205191S11659309EA0157401649000004000000
B0806283205253S11659282EA0156801642000000000000
B0806323205283S11659206EA0156701644000000015000
B0806363205259S11659127EA0157301657000000015000
B0806403205194S11659122EA0159301679000004015000
B0806443205167S11659191EA0160101680000004000000
B0806483205205S11659241EA0160701689000004000000
B0806523205259S11659222EA0161201692000004015000
B0806563205270S11659150EA0161501690000000015000
B0807003205227S11659080EA0161001683000004000000
B0807043205157S11659027EA0160701683000000000000
B0807083205081S11658976EA0160301671000004000000
B0807123205001S11658919EA0159001659000000000000
B0807163204916S11658860EA0157601644000004000000
B0807203204830S11658798EA0156701636000000000000
B0807243204751S11658730EA0156201635000004000000
B0807283204673S11658667EA0155601625000004000000
B0807323204595S11658603EA0154401616000004000000
B0807363204520S11658542EA0154401617000000000000
B0807403204440S11658487EA0153801610000000000000
B0807443204357S11658440EA0153001601000000000000
B0807483204270S11658398EA0152101592000000000000
B0807523204182S11658356EA0151101584000000000000
B0807563204097S11658310EA0150601587000000000000
B0808003204018S11658262EA0150301582000000000000
B0808043203941S11658209EA0149801579000000000000
B0808083203865S11658161EA0149601578000000000000
B0808123203788S11658114EA0149201572000000000000
B0808163203712S11658061EA0148701566000000000000
B0808203203644S11657998EA0148401562000004000000
B0808243203579S11657932EA0147901558000000000000
B0808283203516S11657865EA0147701558000000000000
B0808323203455S11657801EA0147701557000000000000
B0808363203389S11657741EA0147301549000000000000
B0808403203319S11657685EA0146501543000000000000
B0808443203247S11657633EA0145901536000000000000
B0808483203177S11657580EA0145001527000000000000
B0808523203107S11657527EA0144201522000004000000
B0808563203040S11657476EA0144501531000000000000
B0809003202979S11657433EA0146501554000000000000
B0809043202922S11657400EA0148401566000000000000
B0809083202866S11657372EA0148901571000000000000
B0809123202809S11657345EA0148701566000000000000
B0809163202745S11657313EA0147701552000004000000
B0809203202675S11657281EA0146301538000004000000
B0809243202598S11657251EA0145601534000004000000
B0809283202522S11657215EA0145901541000000000000
B0809323202449S11657176EA0146501545000000000000
B0809363202377S11657140EA0146301540000000000000
B0809403202303S11657104EA0145101525000000000000
B0809443202230S11657065EA0143401509000000000000
B0809483202156S11657022EA0142101499000000000000
B0809523202084S11656981EA0141501494000000000000
B0809563202011S11656945EA0141201493000000000000
B0810003201941S11656919EA0141201492000000000000
B0810043201870S11656893EA0141201489000000000000
B0810083201800S11656862EA0140501483000000000000
B0810123201731S11656825EA0140201480000004000000
B0810163201666S11656775EA0139101465000004000000
B0810203201608S11656706EA0137201442000004000000
B0810243201553S11656626EA0136401442000004000000
B0810283201501S11656542EA0136801451000004000000
B0810323201470S11656461EA0138801476000004000000
B0810363201462S11656390EA0140501487000004000000
B0810403201475S11656333EA0140901486000004000000
B0810443201505S11656282EA0140101476000004000000
B0810483201538S11656221EA0138701459000000000000
B0810523201551S11656143EA0136701440000000000000
B0810563201535S11656058EA0135201427000000000000
B0811003201499S11655976EA0133601411000004000000
B0811043201452S11655894EA0132301397000004000000
B0811083201406S11655811EA0132101392000004000000
B0811123201362S11655723EA0130801379000000000000
B0811163201317S11655634EA0129801366000004000000
B0811203201271S11655544EA0128901361000004000000
B0811243201220S11655457EA0128301353000000000000
B0811283201168S11655374EA0127601347000004000000
B0811323201116S11655293EA0126901339000004000000
B0811363201062S11655214EA0126001331000004000000
B0811403201010S11655135EA0125401326000000000000
B0811443200963S11655054EA0125101323000000000000
B0811483200920S11654971EA0124701321000000000000
B0811523200877S11654889EA0124501319000004000000
B0811563200834S11654810EA0124601322000000000000
B0812003200791S11654733EA0125101333000000000000
B0812043200747S11654664EA0126201344000000000000
B0812083200704S11654598EA0126801345000004000000
B0812123200657S11654533EA0126301335000000000000
B0812163200609S11654466EA0124901321000000000000
B0812203200564S11654391EA0124001315000000000000
B0812243200521S11654308EA0123401309000000000000
B0812283200475S11654230EA0124001320000000000000
B0812323200433S11654158EA0124501323000000000000
B0812363200391S11654085EA0124101314000000000000
B0812403200355S11654009EA0124101324000000000000
B0812443200342S11653931EA0126001349000000000000
B0812483200373S11653872EA0127901363000000000000
B0812523200421S11653828EA0128701364000000000000
B0812563200455S11653767EA0128801367000004000000
B0813003200440S11653693EA0129801388000004000000
B0813043200388S11653647EA0132001404000000000000
B0813083200323S11653662EA0133001410000000000000
B0813123200295S11653737EA0133601420000000000000
B0813163200326S11653801EA0135301436000000000000
B0813203200381S11653798EA0136301439000000000000
B0813243200412S11653737EA0136701452000000000000
B0813283200396S11653673EA0138201472000004000000
B0813323200343S11653642EA0139301474000004000000
B0813363200277S11653659EA0139001470000004000000
B0813403200225S11653715EA0139401483000004000000
B0813443200217S11653794EA0140901498000004000000
B0813483200258S11653844EA0142301512000004000000
B0813523200316S11653835EA0143401518000000000000
B0813563200342S11653775EA0144301528000000000000
B0814003200327S11653706EA0145101536000000000000
B0814043200287S11653650EA0146101542000004000000
B0814083200223S11653645EA0146301544000004000000
B0814123200174S11653695EA0147101555000004000000
B0814163200171S11653767EA0147901562000004000000
B0814203200213S11653819EA0148701570000004000000
B0814243200270S11653816EA0149901585000004000000
B0814283200310S11653766EA0150701592000004000000
B0814323200316S11653694EA0151201595000004015000
B0814363200282S11653629EA0151201591000000000000
B0814403200215S11653597EA0150501583000000000000
B0814443200144S11653610EA0150101582000000000000
B0814483200089S11653662EA0150001580000000000000
B0814523200050S11653732EA0149301576000004000000
B0814563200019S11653809EA0149901583000000000000
B0815003159993S11653883EA0150801591000000000000
B0815043159987S11653958EA0151801604000000000000
B0815083200019S11654013EA0153401619000000000000
B0815123200074S11654009EA0153901620000004000000
B0815163200105S11653950EA0154401627000004000000
B0815203200076S11653884EA0155401642000004000000
B0815243200009S11653867EA0156401651000004000000
B0815283159952S11653916EA0157301658000004000000
B0815323159950S11653996EA0158001667000000000000
B0815363159996S11654046EA0159101675000000000000
B0815403200057S11654040EA0159901685000000000000
B0815443200096S11653988EA0161201702000000015000
B0815483200102S11653922EA0162901717000004000000
B0815523200079S11653861EA0163801725000004000000
B0815563200026S11653820EA0163701718000004000000
B0816003159957S11653788EA0162801709000004000000
B0816043159880S11653755EA0161901696000004000000
B0816083159798S11653720EA0160801682000004000000
B0816123159712S11653684EA0159901679000000000000
B0816163159625S11653650EA0159701670000004000000
B0816203159536S11653616EA0159001659000004000000
B0816243159446S11653581EA0157901647000000000000
B0816283159352S11653552EA0156201629000004000000
B0816323159256S11653529EA0154301609000000000000
B0816363159159S11653507EA0152901596000000000000
B0816403159062S11653484EA0153201607000000000000
B0816443158969S11653464EA0154301619000000000000
B0816483158878S11653442EA0155201627000004000000
B0816523158787S11653424EA0155601627000000000000
B0816563158692S11653404EA0154701615000000000000
B0817003158593S11653381EA0154001609000000000000
B0817043158496S11653351EA0153001597000000000000
B0817083158401S11653317EA0152201593000000000000
B0817123158307S11653287EA0151701585000004000000
B0817163158212S11653260EA0150901579000000000000
B0817203158119S11653230EA0150001568000000000000
B0817243158025S11653195EA0149101558000000000000
B0817283157931S11653157EA0148001545000000000000
B0817323157835S11653117EA0147001539000000000000
B0817363157740S11653077EA0146701537000000000000
B0817403157645S11653039EA0146501538000000000000
B0817443157549S11653009EA0146001528000004000000
B0817483157450S11652982EA0145001517000000000000
B0817523157350S11652956EA0144301514000000000000
B0817563157251S11652928EA0144201514000000000000
B0818003157155S11652902EA0144101513000000000000
B0818043157056S11652888EA0143701502000000000000
B0818083156955S11652883EA0142801499000000000000
B0818123156855S11652874EA0142601495000000000000
B0818163156757S11652858EA0141601478000000000000
B0818203156657S11652848EA0139601457000000000000
B0818243156556S11652844EA0137901441000000000000
B0818283156456S11652835EA0136401426000000000000
B0818323156356S11652827EA0135301418000000000000
B0818363156257S11652831EA0134401411000000000000
B0818403156159S11652826EA0133201397000004000000
B0818443156059S11652810EA0132201386000004000000
B0818483155961S11652796EA0131401379000000000000
B0818523155862S11652783EA0130201366000004000000
B0818563155763S11652774EA0129601363000000000000
B0819003155668S11652772EA0129601364000000000000
B0819043155576S11652784EA0129801366000000000000
B0819083155489S11652798EA0130001369000000000000
B0819123155403S11652811EA0130201375000000000000
B0819163155320S11652815EA0131801393000000000000
B0819203155243S11652830EA0133101406000004000000
B0819243155188S11652891EA0134301418000000000000
B0819283155188S11652978EA0135001427000000000000
B0819323155242S11653029EA0136401442000000000000
B0819363155305S11653014EA0137301451000000000000
B0819403155337S11652948EA0138301461000004000000
B0819443155317S11652871EA0139201472000004000000
B0819483155257S11652827EA0140701485000000000000
B0819523155188S11652840EA0141701493000000000000
B0819563155148S11652908EA0142101498000000015000
B0820003155162S11652987EA0142301500000000015000
B0820043155222S11653030EA0142901505000004015000
B0820083155288S11653010EA0143501517000004015000
B0820123155320S11652945EA0144901529000004015000
B0820163155299S11652873EA0146001540000004015000
B0820203155234S11652850EA0146901549000004015000
B0820243155183S11652901EA0148001559000004015000
B0820283155186S11652983EA0148001552000004015000
B0820323155240S11653035EA0148201560000004015000
B0820363155305S11653022EA0149201573000004015000
B0820403155316S11652957EA0151101595000004015000
B0820443155262S11652935EA0152401600000004015000
B0820483155230S11653000EA0152701604000004015000
B0820523155261S11653069EA0153201610000004015000
B0820563155321S11653077EA0154601627000004015000
B0821003155347S11653019EA0156001639000004015000
B0821043155312S11652965EA0157201653000004015000
B0821083155253S11652967EA0158101660000004015000
B0821123155217S11653027EA0158901668000004015000
B0821163155225S11653101EA0159201669000004015000
B0821203155274S11653156EA0159601673000004015000
B0821243155337S11653153EA0160301680000000015000
B0821283155359S11653086EA0160801688000000015000
B0821323155326S11653026EA0161901701000000015000
B0821363155265S11653021EA0163301711000004015000
B0821403155220S11653078EA0163601711000004015000
B0821443155221S11653161EA0163901714000004015000
B0821483155266S11653222EA0164201718000004000000
B0821523155331S11653227EA0164801726000004015000
B0821563155383S11653182EA0165101724000004015000
B0822003155398S11653107EA0165201728000000015000
B0822043155386S11653030EA0165701737000000015000
B0822083155334S11652993EA0167001750000000015000
B0822123155275S11653025EA0167601754000000015000
B0822163155262S11653104EA0167801751000004015000
B0822203155307S11653172EA0167801753000000015000
B0822243155378S11653182EA0168101757000000015000
B0822283155433S11653133EA0168401759000000015000
B0822323155446S11653057EA0168301758000000015000
B0822363155405S11652992EA0167701748000000015000
B0822403155337S11652962EA0167001744000004000000
B0822443155257S11652953EA0166801741000000000000
B0822483155174S11652956EA0166701740000004000000
B0822523155090S11652967EA0167101749000004000000
B0822563155008S11652984EA0167101743000004000000
B0823003154924S11653006EA0166601737000004000000
B0823043154841S11653031EA0166401739000000000000
B0823083154759S11653062EA0166101733000000000000
B0823123154672S11653088EA0165301726000004000000
B0823163154583S11653109EA0165101725000004000000
B0823203154490S11653113EA0165401733000000000000
B0823243154407S11653125EA0167401756000000000000
B0823283154359S11653191EA0169501778000004000000
B0823323154368S11653268EA0170701783000000000000
B0823363154421S11653305EA0170801782000004000000
B0823403154482S11653282EA0170801783000004000000
B0823443154515S11653214EA0171001785000000000000
B0823483154510S11653134EA0171201789000004015000
B0823523154475S11653057EA0171201787000004000000
B0823563154411S11653009EA0171801802000004000000
B0824003154341S11653023EA0173001807000004000000
B0824043154300S11653090EA0173201810000000000000
B0824083154319S11653164EA0173701816000000000000
B0824123154378S11653191EA0174601823000004015000
B0824163154432S11653153EA0175101833000004015000
B0824203154441S11653082EA0176101845000000015000
B0824243154406S11653017EA0177101847000004000000
B0824283154342S11652974EA0176701839000000000000
B0824323154265S11652938EA0175401818000000000000
B0824363154176S11652908EA0173101795000000000000
B0824403154077S11652876EA0172101794000004000000
B0824443153979S11652850EA0172101790000004000000
B0824483153881S11652826EA0171401784000004000000
B0824523153780S11652788EA0169701763000000000000
B0824563153682S11652741EA0168401757000000000000
B0825003153585S11652689EA0168001752000000000000
B0825043153491S11652640EA0167501745000000000000
B0825083153398S11652589EA0166501737000000000000
B0825123153319S11652522EA0166201737000000000000
B0825163153258S11652442EA0166301739000000000000
B0825203153210S11652356EA0166201735000000000000
B0825243153172S11652265EA0165701730000000000000
B0825283153134S11652173EA0164901721000000000000
B0825323153098S11652081EA0164001713000000000000
B0825363153058S11651990EA0163401708000000000000
B0825403153019S11651903EA0163501712000000000000
B0825443152977S11651825EA0163801715000000000000
B0825483152932S11651753EA0163801715000000000000
B0825523152890S11651683EA0163601712000000000000
B0825563152828S11651639EA0163301707000000000000
B0826003152747S11651649EA0162301697000004000000
B0826043152669S11651677EA0161801696000004000000
B0826083152591S11651683EA0161301691000004000000
B0826123152513S11651675EA0160901685000000000000
B0826163152435S11651667EA0160601680000004000000
B0826203152374S11651714EA0160501681000000000000
B0826243152373S11651790EA0160601681000000000000
B0826283152421S11651820EA0160201674000000000000
B0826323152456S11651775EA0159401662000004000000
B0826363152426S11651704EA0157401643000000000000
B0826403152354S11651666EA0156701641000004000000
B0826443152275S11651667EA0156601640000004015000
B0826483152209S11651714EA0156501638000004015000
B0826523152180S11651794EA0156201631000004015000
B0826563152204S11651870EA0155501621000000015000
B0827003152262S11651924EA0153601601000000015000
B0827043152326S11651979EA0151901586000000000000
B0827083152391S11652042EA0150701575000000000000
B0827123152456S11652107EA0149401561000000000000
B0827163152525S11652172EA0148201551000000000000
B0827203152595S11652236EA0147101541000004000000
B0827243152666S11652298EA0146501535000004000000
B0827283152738S11652356EA0146101531000004000000
B0827323152809S11652410EA0145701527000000000000
B0827363152881S11652462EA0145401526000000000000
B0827403152951S11652512EA0145001519000004000000
B0827443153023S11652562EA0144101512000004000000
B0827483153095S11652613EA0143401505000004000000
B0827523153169S11652659EA0142601496000004000000
B0827563153245S11652701EA0141801489000000000000
B0828003153320S11652743EA0141101481000004000000
B0828043153394S11652780EA0140501471000000000000
B0828083153472S11652810EA0139201461000004000000
B0828123153553S11652832EA0138001448000000000000
B0828163153636S11652841EA0137101440000004000000
B0828203153721S11652840EA0136101430000004000000
B0828243153804S11652831EA0135701430000000000000
B0828283153883S11652819EA0135701429000004000000
B0828323153960S11652801EA0135301424000000000000
B0828363154037S11652772EA0134601418000000000000
B0828403154113S11652732EA0134101412000000000000
B0828443154186S11652684EA0133501402000000000000
B0828483154255S11652620EA0132301390000000000000
B0828523154325S11652558EA0131501386000000000000
B0828563154398S11652506EA0131501388000004000000
B0829003154469S11652453EA0131201382000000000000
B0829043154538S11652392EA0130301372000000000000
B0829083154606S11652324EA0129001358000000000000
B0829123154676S11652260EA0127901351000000000000
B0829163154746S11652197EA0127501346000000000000
B0829203154814S11652134EA0127801354000000000000
B0829243154872S11652070EA0128901368000000000000
B0829283154918S11651999EA0129601369000000000000
B0829323154957S11651924EA0129001364000000000000
B0829363154999S11651853EA0129101365000000000000
B0829403155044S11651787EA0128501355000000000000
B0829443155100S11651730EA0127901353000000000000
B0829483155161S11651680EA0127801353000000000000
B0829523155229S11651640EA0128201360000000000000
B0829563155295S11651609EA0129001366000000000000
B0830003155360S11651571EA0128801361000000000000
B0830043155418S11651518EA0128801365000000000000
B0830083155443S11651441EA0130001375000004000000
B0830123155413S11651372EA0130401377000004000000
B0830163155351S11651365EA0130401373000004015000
B0830203155316S11651424EA0129801373000000015000
B0830243155327S11651491EA0129801374000004015000
B0830283155374S11651531EA0129801372000004015000
B0830323155438S11651534EA0129601371000004015000
B0830363155503S11651509EA0129401370000000000000
B0830403155567S11651470EA0129301369000000000000
B0830443155623S11651410EA0129401368000004000000
B0830483155658S11651335EA0129901380000000000000
B0830523155617S11651275EA0131601398000000000000
B0830563155559S11651300EA0132301396000000015000
B0831003155537S11651371EA0131701390000000015000
B0831043155535S11651450EA0131101383000000000000
B0831083155572S11651518EA0131301390000000000000
B0831123155637S11651530EA0132001394000004000000
B0831163155676S11651470EA0132601406000004015000
B0831203155643S11651417EA0134401426000004015000
B0831243155587S11651428EA0134701420000004015000
B0831283155573S11651495EA0134701427000000015000
B0831323155621S11651523EA0135701436000000015000
B0831363155667S11651484EA0136201437000000015000
B0831403155658S11651417EA0136801446000000015000
B0831443155602S11651393EA0137501450000004015000
B0831483155555S11651437EA0137201444000004015000
B0831523155559S11651513EA0137101446000000015000
B0831563155611S11651554EA0137401447000000015000
B0832003155665S11651523EA0137901459000004015000
B0832043155660S11651457EA0139201471000004015000
B0832083155604S11651437EA0139901480000004015000
B0832123155568S11651484EA0140601487000000015000
B0832163155585S11651545EA0140901485000000015000
B0832203155639S11651553EA0140501484000000015000
B0832243155671S11651497EA0141201495000000015000
B0832283155647S11651437EA0142301506000000015000
B0832323155590S11651427EA0143001511000004015000
B0832363155546S11651472EA0143401515000004015000
B0832403155548S11651535EA0143901522000004015000
B0832443155597S11651570EA0143901518000000015000
B0832483155652S11651549EA0143901521000004015000
B0832523155678S11651487EA0144501531000004015000
B0832563155656S11651423EA0145601540000004015000
B0833003155598S11651404EA0146201547000004015000
B0833043155546S11651440EA0146801551000000015000
B0833083155535S11651508EA0147201555000000015000
B0833123155581S11651548EA0147601557000000015000
B0833163155639S11651527EA0147301551000000015000
B0833203155680S11651467EA0147701562000000015000
B0833243155654S11651404EA0148701572000000015000
B0833283155587S11651396EA0148901569000000015000
B0833323155545S11651456EA0149201577000000015000
B0833363155559S11651524EA0150101584000000015000
B0833403155612S11651554EA0150701588000004015000
B0833443155663S11651522EA0150901591000000015000
B0833483155671S11651454EA0151701598000000015000
B0833523155628S11651402EA0152401605000004015000
B0833563155565S11651406EA0152801609000004015000
B0834003155530S11651466EA0153101611000004015000
B0834043155546S11651537EA0153201614000000015000
B0834083155599S11651575EA0153501614000000015000
B0834123155662S11651557EA0153501615000004015000
B0834163155697S11651496EA0154101626000004015000
B0834203155685S11651424EA0154901631000004015000
B0834243155634S11651378EA0155301637000004015000
B0834283155572S11651388EA0156201647000004015000
B0834323155539S11651446EA0156901651000004015000
B0834363155559S11651511EA0157201652000004015000
B0834403155613S11651537EA0157401653000000015000
B0834443155669S11651515EA0157401652000000015000
B0834483155697S11651450EA0157701661000000015000
B0834523155678S11651380EA0158401662000000015000
B0834563155617S11651348EA0158101662000004015000
B0835003155550S11651363EA0158401662000004015000
B0835043155495S11651411EA0158801671000004015000
B0835083155489S11651484EA0159801679000004015000
B0835123155532S11651530EA0160201678000004015000
B0835163155594S11651519EA0159801672000004015000
B0835203155628S11651453EA0159801681000004015000
B0835243155612S11651379EA0160801690000004015000
B0835283155556S11651335EA0161401697000000015000
B0835323155491S11651348EA0161901701000000015000
B0835363155455S11651409EA0162301706000000015000
B0835403155465S11651482EA0162501706000004015000
B0835443155517S11651524EA0162701709000004015000
B0835483155582S11651518EA0162601705000004015000
B0835523155626S11651458EA0162601707000004015000
B0835563155643S11651376EA0163001712000000000000
B0836003155604S11651316EA0164401725000004015000
B0836043155541S11651315EA0164901728000000015000
B0836083155478S11651342EA0164901729000000000000
B0836123155454S11651407EA0165501737000004000000
B0836163155490S11651457EA0166001739000000015000
B0836203155545S11651437EA0165901735000000015000
B0836243155565S11651366EA0165801741000000015000
B0836283155532S11651300EA0166701750000000015000
B0836323155468S11651281EA0167401758000000015000
B0836363155418S11651323EA0168201767000000015000
B0836403155411S11651388EA0168701768000000015000
B0836443155448S11651437EA0168601766000000015000
B0836483155508S11651435EA0168701762000004015000
B0836523155547S11651374EA0168701768000000015000
B0836563155532S11651301EA0169601779000004015000
B0837003155474S11651263EA0170101782000000015000
B0837043155412S11651283EA0170501789000000015000
B0837083155379S11651341EA0171401796000000015000
B0837123155396S11651407EA0171301791000000015000
B0837163155452S11651440EA0171001788000000015000
B0837203155516S11651446EA0171201794000000015000
B0837243155582S11651431EA0170501780000000000000
B0837283155662S11651426EA0169801776000000000000
B0837323155742S11651430EA0170401784000000000000
B0837363155807S11651389EA0171701800000000000000
B0837403155820S11651309EA0173401815000000000000
B0837443155780S11651244EA0174101815000004000000
B0837483155708S11651233EA0173801813000000015000
B0837523155652S11651283EA0173901816000000015000
B0837563155638S11651361EA0174101815000000015000
B0838003155663S11651441EA0173501806000000015000
B0838043155717S11651515EA0172001792000000015000
B0838083155785S11651586EA0171501789000000000000
B0838123155857S11651653EA0171401788000004000000
B0838163155931S11651722EA0171101784000004000000
B0838203156003S11651791EA0170801782000004000000
B0838243156076S11651857EA0170601781000004000000
B0838283156146S11651922EA0170501782000000000000
B0838323156215S11651983EA0170501780000000000000
B0838363156284S11652042EA0169501764000000000000
B0838403156356S11652104EA0167601745000000000000
B0838443156430S11652171EA0166001729000000000000
B0838483156504S11652237EA0165101723000000000000
B0838523156578S11652306EA0164801720000000000000
