ACAM4N6
HFDTE140218
HFFXA050
HFPLTPILOT:JOHN WELSH              
HFGTYGLIDERTYPE:HORNET      
HFGIDGLIDERID:VH-GMY      
HFDTM100GPSDATUM:
HFRFWFIRMWAREVERSION:F2.6
HFRHWHARDWAREVERSION:300 Series Version 2
HFFTYFRTYPE:CAMBRIDGE AERO INSTRUMENTS, 302+
HFGPS:GARMIN,LVS-25,12,18000
HFPRSPRESSALTSENSOR:INTERSEMA, MS5534-AP, 20000
I033638FXA3941ENL4247REX
LCAMSBVER:5FWVER:F26300
C140218040304140218000102
C0000000N00000000WTAKEOFF     
C3207549S11656849EBEVAIR      
C3110883S11723215EWYLKTCHM    
C3152966S11809465EBRUCERCK    
C3207549S11656849EBEVAIR      
C0000000N00000000WLANDING     
B0408473207338S11656858EA0018700200000000000000
B0408493207338S11656858EA0018600200000000000000
B0408513207338S11656858EA0018500200000000000000
B0408533207338S11656858EA0018600200000000000000
B0408553207338S11656858EA0018400200000000000000
B0408573207338S11656858EA0018500200000000000000
B0408593207338S11656858EA0018500200000000000000
B0409013207338S11656858EA0018500200000000000000
B0409033207338S11656858EA0018500200000000000000
B0409053207338S11656858EA0018500200000000000000
B0409073207338S11656858EA0018600200000000000000
B0409093207338S11656858EA0018600200000000000000
B0409113207338S11656858EA0018500200000000000000
B0409133207339S11656858EA0018600200000000000000
B0409153207342S11656861EA0018600200000000000000
B0409183207354S11656871EA0018500200000000000000
B0409223207381S11656895EA0018500201000000000000
B0409263207425S11656923EA0018700201000000000000
B0409303207480S11656958EA0018800202000000000000
B0409343207545S11656997EA0019000205000000000000
B0409383207614S11657042EA0019500211000000000000
B0409423207680S11657092EA0019900221000000000000
B0409463207740S11657139EA0022200249000000000000
B0409503207797S11657183EA0024400279000000000000
B0409543207854S11657231EA0026900300000000000000
B0409583207915S11657277EA0027900306000000000000
B0410023207978S11657317EA0028700318000000000000
B0410063208041S11657359EA0030000332000000000000
B0410103208100S11657410EA0031200343000000000000
B0410143208153S11657468EA0032000351000000000000
B0410183208196S11657530EA0033700374000000000000
B0410223208235S11657602EA0034600375000000000000
B0410263208270S11657679EA0035100383000000000000
B0410303208291S11657761EA0036600406000000000000
B0410343208299S11657841EA0039300429000000000000
B0410383208299S11657927EA0040400436000000000000
B0410423208294S11658014EA0041100445000000000000
B0410463208285S11658100EA0041900453000000000000
B0410503208274S11658186EA0042400461000000000000
B0410543208268S11658273EA0043400470000000000000
B0410583208275S11658357EA0044800487000000000000
B0411023208300S11658437EA0046700508000000000000
B0411063208343S11658509EA0048400523000000000000
B0411103208398S11658569EA0050400548000000000000
B0411143208464S11658613EA0052800572000000000000
B0411183208538S11658639EA0055400597000000000000
B0411223208619S11658639EA0056600604000000000000
B0411263208699S11658615EA0057000609000000000000
B0411303208771S11658572EA0057900620000000000000
B0411343208831S11658508EA0059200635000000000000
B0411383208871S11658421EA0060800653000000000000
B0411423208889S11658317EA0061600660000000000000
B0411463208885S11658205EA0062000663000000000000
B0411503208855S11658104EA0062900673000000000000
B0411543208806S11658021EA0064100688000000000000
B0411583208742S11657958EA0065900707000000000000
B0412023208665S11657917EA0067200715000000000000
B0412063208582S11657901EA0067700721000000000000
B0412103208500S11657910EA0068800732000000000000
B0412143208424S11657930EA0070000745000000000000
B0412183208344S11657936EA0071500758000000000000
B0412223208265S11657939EA0072200766000000000000
B0412263208186S11657957EA0073000773000000000000
B0412303208110S11657988EA0073700781000000000000
B0412343208039S11658028EA0074700791000000000000
B0412383207971S11658075EA0075300801000000000000
B0412423207906S11658126EA0076600812000000000000
B0412463207845S11658178EA0077600825000000000000
B0412503207785S11658229EA0079300843000000000000
B0412543207748S11658288EA0080600854000000000000
B0412583207761S11658351EA0080900855000000000000
B0413023207813S11658375EA0080400845000000000000
B0413063207874S11658385EA0078900829000000000000
B0413103207936S11658405EA0077500817000000000000
B0413143207999S11658438EA0076300801000000000000
B0413183208064S11658481EA0074600781000000000000
B0413223208136S11658529EA0073500780000000000000
B0413263208207S11658569EA0074500791000000000000
B0413303208274S11658568EA0076600816000000000000
B0413343208288S11658500EA0079200840000000000000
B0413383208242S11658457EA0080000846000000000000
B0413423208195S11658477EA0080500849000000000000
B0413463208194S11658533EA0081100857000000000000
B0413503208234S11658564EA0081400860000000000000
B0413543208288S11658552EA0082000866000000000000
B0413583208322S11658495EA0083000873000000000000
B0414023208301S11658426EA0083300877000000000000
B0414063208246S11658416EA0083900885000000000000
B0414103208221S11658464EA0084400894000000000000
B0414143208242S11658511EA0085000899000000000000
B0414183208292S11658513EA0085400903000000000000
B0414223208327S11658460EA0086000910000000000000
B0414263208308S11658395EA0086800918000000000000
B0414303208255S11658387EA0087200921000000000000
B0414343208227S11658435EA0087700925000000000000
B0414383208249S11658483EA0087800925000000000000
B0414423208299S11658489EA0088200932000000000000
B0414463208335S11658442EA0088800935000000000000
B0414503208326S11658373EA0088600932000000000000
B0414543208275S11658338EA0088900940000000000000
B0414583208223S11658349EA0089800946000000000000
B0415023208200S11658398EA0090400953000000000000
B0415063208225S11658443EA0090200949000000000000
B0415103208281S11658446EA0090200949000000000000
B0415143208324S11658395EA0090300949000000000000
B0415183208326S11658321EA0090200953000000000000
B0415223208286S11658275EA0091100962000000000000
B0415263208243S11658299EA0091800968000000000000
B0415303208269S11658348EA0091400961000000000000
B0415343208321S11658313EA0091400965000000000000
B0415383208313S11658239EA0091800966000000000000
B0415423208259S11658217EA0092700980000000000000
B0415463208225S11658260EA0093900992000000000000
B0415503208244S11658308EA0094600998000000000000
B0415543208296S11658309EA0094700998000000000000
B0415583208331S11658257EA0094801000000000000000
B0416023208318S11658191EA0095101001000000000000
B0416063208268S11658167EA0095301005000000000000
B0416103208244S11658216EA0095801011000000000000
B0416143208288S11658242EA0096501017000000000000
B0416183208331S11658197EA0096401014000000000000
B0416223208321S11658125EA0096201013000000000000
B0416263208268S11658093EA0096601019000000000000
B0416303208225S11658123EA0097301028000000000000
B0416343208230S11658177EA0097901033000000000000
B0416383208275S11658197EA0098301037000000000000
B0416423208324S11658165EA0098201034000000000000
B0416463208348S11658096EA0097901032000000000000
B0416503208329S11658024EA0098101036000000000000
B0416543208273S11658027EA0098501039000000000000
B0416583208272S11658082EA0098901043000000000000
B0417023208321S11658089EA0099101048000000000000
B0417063208352S11658034EA0099301049000000000000
B0417103208324S11657972EA0099901060000000000000
B0417143208270S11657988EA0100401060000000000000
B0417183208265S11658044EA0100801065000000000000
B0417223208309S11658065EA0101001067000000000000
B0417263208364S11658037EA0101001066000000000000
B0417303208391S11657976EA0101601074000000000000
B0417343208361S11657919EA0102701086000000000000
B0417383208309S11657928EA0103401093000000000000
B0417423208300S11657983EA0103901096000000000000
B0417463208340S11658010EA0104301101000000000000
B0417503208389S11657980EA0104801103000000000000
B0417543208399S11657913EA0105201108000000000000
B0417583208360S11657859EA0105501113000000000000
B0418023208298S11657844EA0104501096000000000000
B0418063208222S11657861EA0103801096000000000000
B0418103208149S11657841EA0104801109000000000000
B0418143208099S11657777EA0105601111000000000000
B0418183208060S11657702EA0105801115000000000000
B0418223208004S11657679EA0107101135000000000000
B0418263207967S11657715EA0107901137000000000000
B0418303207957S11657780EA0107601133000000000000
B0418343207958S11657858EA0106501117000000000000
B0418383207969S11657948EA0106701133000000000000
B0418423208008S11658004EA0109401163000000000000
B0418463208054S11657972EA0111601176000000000000
B0418503208032S11657911EA0112001182000000000000
B0418543207982S11657915EA0113401199000000000000
B0418583207976S11657965EA0114201202000000000000
B0419023208025S11657984EA0114001201000000000000
B0419063208071S11657937EA0114801212000000000000
B0419103208083S11657868EA0116001225000000000000
B0419143208053S11657811EA0116701230000000000000
B0419183208000S11657803EA0117301237000000000000
B0419223207979S11657850EA0118401246000000000000
B0419263208023S11657880EA0118301243000000000000
B0419303208069S11657835EA0119301259000000000000
B0419343208054S11657768EA0119801259000000000000
B0419383208000S11657746EA0120001263000000000000
B0419423207966S11657788EA0121101277000000000000
B0419463207992S11657831EA0121901284000000000000
B0419503208048S11657815EA0121901284000000000000
B0419543208066S11657755EA0123301301000000000000
B0419583208032S11657705EA0123401290000000000000
B0420023207974S11657712EA0122301290000000000000
B0420063207950S11657766EA0123901308000000000000
B0420103207982S11657803EA0124901313000000000000
B0420143208038S11657784EA0124601307000000000000
B0420183208060S11657719EA0125401323000000000000
B0420223208026S11657667EA0126001322000000000000
B0420263207973S11657675EA0125601319000000000000
B0420303207965S11657733EA0126301330000000000000
B0420343208013S11657759EA0126801334000000000000
B0420383208065S11657723EA0126801334000000000000
B0420423208064S11657653EA0127301338000000000000
B0420463208014S11657618EA0127101336000000000000
B0420503207967S11657645EA0127001337000000000000
B0420543207952S11657699EA0127501345000000000000
B0420583207983S11657741EA0127901346000000000000
B0421023208039S11657732EA0127801347000000000000
B0421063208079S11657679EA0128201353000000000000
B0421103208093S11657611EA0128301349000000000000
B0421143208097S11657536EA0127601340000000000000
B0421183208100S11657458EA0127001335000000000000
B0421223208109S11657377EA0126401330000000000000
B0421263208125S11657299EA0126001326000000000000
B0421303208139S11657221EA0125501318000000000000
B0421343208157S11657143EA0124901312000000000000
B0421383208177S11657066EA0124701310000000000000
B0421423208195S11656990EA0124001303000000000000
B0421463208217S11656917EA0123501299000000000000
B0421503208236S11656843EA0122701290000000000000
B0421543208247S11656765EA0121901281000000000000
B0421583208255S11656685EA0120601267000000000000
B0422023208252S11656604EA0119701259000000000000
B0422063208230S11656526EA0119201251000000000000
B0422103208191S11656458EA0118201242000000000000
B0422143208140S11656403EA0117501235000000000000
B0422183208083S11656359EA0117301232000000000000
B0422223208026S11656324EA0117001231000000000000
B0422263207966S11656293EA0116801227000000000000
B0422303207906S11656268EA0116401222000000000000
B0422343207843S11656258EA0116101219000000000000
B0422383207781S11656269EA0115801220000000000000
B0422423207723S11656298EA0115501211000000000000
B0422463207664S11656327EA0114601203000000000000
B0422503207606S11656360EA0113701196000000000000
B0422543207551S11656397EA0113201190000000000000
B0422583207497S11656436EA0112401180000000000000
B0423023207443S11656477EA0111601174000000000000
B0423063207399S11656529EA0111401175000000000000
B0423103207365S11656591EA0111401172000000000000
B0423143207339S11656657EA0111001168000000000000
B0423183207328S11656727EA0110201158000000000000
B0423223207310S11656799EA0109701159000000000000
B0423263207281S11656864EA0110101162000000000000
B0423303207255S11656929EA0110601168000000000000
B0423343207256S11656991EA0111301178000000000000
B0423383207293S11657027EA0111501174000000000000
B0423423207347S11657007EA0110601165000000000000
B0423463207369S11656938EA0110301163000000000000
B0423503207346S11656869EA0110201162000000000000
B0423543207293S11656831EA0109901158000000000000
B0423583207230S11656819EA0109901157000000000000
B0424023207167S11656826EA0109501151000000000000
B0424063207102S11656834EA0109101150000000000000
B0424103207034S11656843EA0108801147000000000000
B0424143206968S11656852EA0109101149000000000000
B0424183206909S11656878EA0110101161000000000000
B0424223206904S11656938EA0110701166000000000000
B0424263206959S11656944EA0112101183000000000000
B0424303206981S11656874EA0113501199000000000000
B0424343206940S11656812EA0113701198000000000000
B0424383206883S11656812EA0114201206000000000000
B0424423206855S11656861EA0115201218000000000000
B0424463206873S11656910EA0116201228000000000000
B0424503206929S11656912EA0116701233000000000000
B0424543206966S11656853EA0118001249000000000000
B0424583206947S11656782EA0119001258000000000000
B0425023206894S11656763EA0119601261000000000000
B0425063206862S11656805EA0120001266000000000000
B0425103206883S11656854EA0120901274000000000000
B0425143206938S11656844EA0121701288000000000000
B0425183206951S11656775EA0122601293000000000000
B0425223206901S11656727EA0123001297000000000000
B0425263206855S11656752EA0123801307000000000000
B0425303206852S11656809EA0124401310000000000000
B0425343206900S11656832EA0125101319000000000000
B0425383206935S11656774EA0125901323000000000000
B0425423206905S11656706EA0126501334000000000000
B0425463206851S11656704EA0127501343000000000000
B0425503206830S11656758EA0127801345000000000000
B0425543206865S11656801EA0128201350000000000000
B0425583206920S11656778EA0128801353000000000000
B0426023206935S11656704EA0129101358000000000000
B0426063206896S11656648EA0130101372000000000000
B0426103206844S11656654EA0130701374000000000000
B0426143206826S11656709EA0131201379000000000000
B0426183206858S11656753EA0131701383000000000000
B0426223206908S11656726EA0132101387000000000000
B0426263206901S11656653EA0132001384000000000000
B0426303206847S11656628EA0132301390000000000000
B0426343206816S11656671EA0133001398000000000000
B0426383206839S11656719EA0133101397000000000000
B0426423206897S11656710EA0133001398000000000000
B0426463206922S11656643EA0133801407000000000000
B0426503206882S11656588EA0133801402000000000000
B0426543206830S11656601EA0133601400000000000000
B0426583206818S11656659EA0133501402000000000000
B0427023206853S11656704EA0134101409000000000000
B0427063206909S11656687EA0134301409000000000000
B0427103206933S11656615EA0134201409000000000000
B0427143206901S11656549EA0134201406000000000000
B0427183206845S11656526EA0134101408000000000000
B0427223206803S11656550EA0134301408000000000000
B0427263206800S11656609EA0133801405000000000000
B0427303206840S11656649EA0133801406000000000000
B0427343206904S11656633EA0133501401000000000000
B0427383206934S11656562EA0133501405000000000000
B0427423206910S11656488EA0133601402000000000000
B0427463206856S11656455EA0133201398000000000000
B0427503206803S11656476EA0132701394000000000000
B0427543206760S11656524EA0132801394000000000000
B0427583206722S11656581EA0133101401000000000000
B0428023206713S11656643EA0134501418000000000000
B0428063206758S11656662EA0135401420000000000000
B0428103206801S11656607EA0134801415000000000000
B0428143206797S11656526EA0134601414000000000000
B0428183206754S11656470EA0134801418000000000000
B0428223206700S11656475EA0135001419000000000000
B0428263206660S11656516EA0135401425000000000000
B0428303206634S11656571EA0136501437000000000000
B0428343206666S11656607EA0137601447000000000000
B0428383206719S11656576EA0137401443000000000000
B0428423206731S11656500EA0137601450000000000000
B0428463206691S11656444EA0138401459000000000000
B0428503206634S11656438EA0139001465000000000000
B0428543206595S11656481EA0139501468000000000000
B0428583206597S11656539EA0140001478000000000000
B0429023206637S11656567EA0140701482000000000000
B0429063206691S11656546EA0141201486000000000000
B0429103206721S11656483EA0141301487000000000000
B0429143206706S11656409EA0141901493000000000000
B0429183206657S11656371EA0142301498000000000000
B0429223206606S11656389EA0142501498000000000000
B0429263206566S11656432EA0142501499000000000000
B0429303206531S11656487EA0142601502000000000000
B0429343206532S11656542EA0143501509000000000000
B0429383206584S11656552EA0143001501000000000000
B0429423206627S11656503EA0143101507000000000000
B0429463206636S11656428EA0143401511000000000000
B0429503206598S11656364EA0144201519000000000000
B0429543206543S11656362EA0144701523000000000000
B0429583206507S11656411EA0144801524000000000000
B0430023206515S11656471EA0144701524000000000000
B0430063206563S11656501EA0144801525000000000000
B0430103206619S11656484EA0145301529000000000000
B0430143206648S11656423EA0145901537000000000000
B0430183206623S11656354EA0146101537000000000000
B0430223206565S11656332EA0146201539000000000000
B0430263206517S11656370EA0145801533000000000000
B0430303206519S11656436EA0145801536000000000000
B0430343206566S11656471EA0146101538000000000000
B0430383206626S11656454EA0145401527000000000000
B0430423206661S11656386EA0145201529000000000000
B0430463206652S11656306EA0146001540000000000000
B0430503206600S11656264EA0146701543000000000000
B0430543206545S11656282EA0146501541000000000000
B0430583206518S11656338EA0146201539000000000000
B0431023206531S11656401EA0146201537000000000000
B0431063206566S11656457EA0145701532000000000000
B0431103206608S11656513EA0145101522000000000000
B0431143206656S11656566EA0144301514000000000000
B0431183206712S11656614EA0143401505000000000000
B0431223206769S11656658EA0142601497000000000000
B0431263206818S11656710EA0142601502000000000000
B0431303206860S11656767EA0142501497000000000000
B0431343206904S11656823EA0141801489000000000000
B0431383206951S11656882EA0141201481000000000000
B0431423206995S11656945EA0140701475000000000000
B0431463207035S11657009EA0140101469000000000000
B0431503207066S11657074EA0139601465000000000000
B0431543207089S11657140EA0139301462000000000000
B0431583207099S11657204EA0139401466000000000000
B0432023207105S11657269EA0139701470000000000000
B0432063207111S11657334EA0140701482000000000000
B0432103207115S11657398EA0141801492000000000000
B0432143207148S11657439EA0143201509000000000000
B0432183207198S11657412EA0144901524000000000000
B0432223207207S11657338EA0144801518000000000000
B0432263207163S11657270EA0144901522000000000000
B0432303207104S11657248EA0145801531000000000000
B0432343207053S11657269EA0146301536000000000000
B0432383207031S11657322EA0146501539000000000000
B0432423207046S11657381EA0146501537000000000000
B0432463207098S11657408EA0146901544000000000000
B0432503207155S11657380EA0147801556000000000000
B0432543207174S11657309EA0148901565000000000000
B0432583207139S11657244EA0149101565000000000000
B0433023207076S11657231EA0149101566000000000000
B0433063207033S11657280EA0149801574000000000000
B0433103207035S11657346EA0150401579000000000000
B0433143207078S11657387EA0151201591000000000000
B0433183207138S11657386EA0151801596000000000000
B0433223207193S11657337EA0151501586000000000000
B0433263207229S11657254EA0150901582000000000000
B0433303207233S11657163EA0151101586000000000000
B0433343207202S11657083EA0151101583000000000000
B0433383207146S11657043EA0150701581000000000000
B0433423207089S11657057EA0150401576000000000000
B0433463207063S11657111EA0150501579000000000000
B0433503207060S11657172EA0150601584000000000000
B0433543207064S11657233EA0151201588000000000000
B0433583207072S11657296EA0151401590000000000000
B0434023207082S11657360EA0151401591000000000000
B0434063207092S11657426EA0151701592000000000000
B0434103207102S11657495EA0152001597000000000000
B0434143207115S11657563EA0152601607000000000000
B0434183207137S11657621EA0154201622000000000000
B0434223207187S11657647EA0155101627000000000000
B0434263207239S11657611EA0155301629000000000000
B0434303207251S11657537EA0155301627000000000000
B0434343207213S11657476EA0155201628000000000000
B0434383207154S11657460EA0155201626000000000000
B0434423207107S11657495EA0155201628000000000000
B0434463207092S11657555EA0155901640000000000000
B0434503207096S11657619EA0156601639000000000000
B0434543207137S11657657EA0157001648000000000000
B0434583207193S11657636EA0156801639000000000000
B0435023207212S11657564EA0156701645000000000000
B0435063207189S11657494EA0157001647000000000000
B0435103207135S11657455EA0156401639000000000000
B0435143207076S11657467EA0156501641000000000000
B0435183207038S11657519EA0157301652000000000000
B0435223207016S11657582EA0158401669000000000000
B0435263207020S11657645EA0159401671000000000000
B0435303207072S11657658EA0158601661000000000000
B0435343207098S11657593EA0158601668000000000000
B0435383207065S11657529EA0160001683000000000000
B0435423207005S11657519EA0161301695000000000000
B0435463206962S11657569EA0162501707000000000000
B0435503206970S11657636EA0163501716000000000000
B0435543207014S11657673EA0162901703000000000000
B0435583207069S11657654EA0162201700000000000000
B0436023207098S11657593EA0162801710000000000000
B0436063207085S11657529EA0163701720000000000000
B0436103207034S11657516EA0164701730000000000000
B0436143207013S11657571EA0165101730000000000000
B0436183207048S11657614EA0164501721000000000000
B0436223207100S11657589EA0164001721000000000000
B0436263207116S11657521EA0164601725000000000000
B0436303207083S11657459EA0164701727000000000000
B0436343207022S11657438EA0165301732000000000000
B0436383206966S11657477EA0165901741000000000000
B0436423206946S11657547EA0166701750000000000000
B0436463206966S11657608EA0167001751000000000000
B0436503207014S11657629EA0166601744000000000000
B0436543207060S11657601EA0165901740000000000000
B0436583207083S11657541EA0165701736000000000000
B0437023207085S11657469EA0165501735000000000000
B0437063207047S11657408EA0165701738000000000000
B0437103206986S11657395EA0166001740000000000000
B0437143206933S11657438EA0166901750000000000000
B0437183206930S11657506EA0167501757000000000000
B0437223206977S11657536EA0167401751000000000000
B0437263207018S11657498EA0167201753000000000000
B0437303207020S11657432EA0167101751000000000000
B0437343206977S11657377EA0167101751000000000000
B0437383206912S11657368EA0167601759000000000000
B0437423206860S11657411EA0168301765000000000000
B0437463206845S11657482EA0168401764000000000000
B0437503206877S11657541EA0167801756000000000000
B0437543206933S11657549EA0167201749000000000000
B0437583206977S11657507EA0166501743000000000000
B0438023206979S11657434EA0166101738000000000000
B0438063206940S11657372EA0166301743000000000000
B0438103206877S11657354EA0166601747000000000000
B0438143206817S11657382EA0166901748000000000000
B0438183206782S11657443EA0166801743000000000000
B0438223206778S11657515EA0165401729000000000000
B0438263206810S11657572EA0164301720000000000000
B0438303206862S11657594EA0163501710000000000000
B0438343206914S11657572EA0163001707000000000000
B0438383206944S11657520EA0162501696000000000000
B0438423206957S11657452EA0161401688000000000000
B0438463206953S11657380EA0161301689000000000000
B0438503206910S11657328EA0161501694000000000000
B0438543206853S11657348EA0162201699000000000000
B0438583206847S11657413EA0162701704000000000000
B0439023206887S11657452EA0162301696000000000000
B0439063206939S11657432EA0161701693000000000000
B0439103206959S11657368EA0161601691000000000000
B0439143206925S11657313EA0161901697000000000000
B0439183206864S11657312EA0162101694000000000000
B0439223206818S11657364EA0161701691000000000000
B0439263206806S11657437EA0161301686000000000000
B0439303206829S11657501EA0160201674000000000000
B0439343206878S11657534EA0158901660000000000000
B0439383206933S11657516EA0157401643000000000000
B0439423206972S11657463EA0156301631000000000000
B0439463206986S11657390EA0155301624000000000000
B0439503206966S11657315EA0155101623000000000000
B0439543206917S11657259EA0154701622000000000000
B0439583206849S11657234EA0154901624000000000000
B0440023206779S11657231EA0155601630000000000000
B0440063206713S11657254EA0155401623000000000000
B0440103206673S11657311EA0155101622000000000000
B0440143206671S11657381EA0154001610000000000000
B0440183206697S11657449EA0152601596000000000000
B0440223206736S11657507EA0151701585000000000000
B0440263206783S11657559EA0150801576000000000000
B0440303206834S11657603EA0149601565000000000000
B0440343206888S11657644EA0148601554000000000000
B0440383206946S11657681EA0147801546000000000000
B0440423207005S11657715EA0146301531000000000000
B0440463207069S11657746EA0145501526000000000000
B0440503207133S11657775EA0145101523000000000000
B0440543207198S11657800EA0144701518000000000000
B0440583207261S11657827EA0144101513000000000000
B0441023207323S11657863EA0143501506000000000000
B0441063207377S11657911EA0143201501000000000000
B0441103207428S11657962EA0143201503000000000000
B0441143207476S11658011EA0143001499000000000000
B0441183207521S11658062EA0142501493000000000000
B0441223207573S11658106EA0141901489000000000000
B0441263207624S11658151EA0141801487000000000000
B0441303207666S11658206EA0141701481000000000000
B0441343207711S11658262EA0140801475000000000000
B0441383207762S11658316EA0140201467000000000000
B0441423207819S11658364EA0139501461000000000000
B0441463207882S11658401EA0138901455000000000000
B0441503207945S11658433EA0138401451000000000000
B0441543208009S11658459EA0137901444000000000000
B0441583208075S11658486EA0137601443000000000000
B0442023208130S11658530EA0137601445000000000000
B0442063208164S11658587EA0138201453000000000000
B0442103208181S11658650EA0138901461000000000000
B0442143208184S11658711EA0139401462000000000000
B0442183208186S11658775EA0139301461000000000000
B0442223208181S11658838EA0139701469000000000000
B0442263208187S11658898EA0140301471000000000000
B0442303208242S11658910EA0140001466000000000000
B0442343208279S11658841EA0140601477000000000000
B0442383208253S11658765EA0140701476000000000000
B0442423208186S11658730EA0140701477000000000000
B0442463208123S11658754EA0140901482000000000000
B0442503208099S11658815EA0141401488000000000000
B0442543208100S11658882EA0141201478000000000000
B0442583208114S11658953EA0140201470000000000000
B0443023208168S11658986EA0140501480000000000000
B0443063208229S11658979EA0141101486000000000000
B0443103208286S11658946EA0141701488000000000000
B0443143208304S11658871EA0141801486000000000000
B0443183208260S11658815EA0140801477000000000000
B0443223208204S11658836EA0140601477000000000000
B0443263208173S11658898EA0140501477000000000000
B0443303208148S11658968EA0141001483000000000000
B0443343208126S11659040EA0141401490000000000000
B0443383208105S11659113EA0142301499000000000000
B0443423208136S11659165EA0143701510000000000000
B0443463208194S11659140EA0143701506000000000000
B0443503208210S11659062EA0143501510000000000000
B0443543208181S11658992EA0144201516000000000000
B0443583208122S11658980EA0144901528000000000000
B0444023208097S11659027EA0146401539000000000000
B0444063208127S11659066EA0146501538000000000000
B0444103208183S11659046EA0146001532000000000000
B0444143208194S11658975EA0147101546000000000000
B0444183208149S11658932EA0147701550000000000000
B0444223208105S11658958EA0148101556000000000000
B0444263208112S11659011EA0149001567000000000000
B0444303208158S11659028EA0149401564000000000000
B0444343208205S11658984EA0149001563000000000000
B0444383208203S11658911EA0149701573000000000000
B0444423208158S11658867EA0150401578000000000000
B0444463208110S11658884EA0151001582000000000000
B0444503208093S11658941EA0151001583000000000000
B0444543208123S11658993EA0151301587000000000000
B0444583208181S11659009EA0151401585000000000000
B0445023208238S11658975EA0151201584000000000000
B0445063208265S11658903EA0151401586000000000000
B0445103208246S11658829EA0151301584000000000000
B0445143208187S11658801EA0151301586000000000000
B0445183208140S11658834EA0151801592000000000000
B0445223208142S11658898EA0151801592000000000000
B0445263208190S11658928EA0152601601000000000000
B0445303208238S11658889EA0153101605000000000000
B0445343208238S11658816EA0153401606000000000000
B0445383208190S11658775EA0153101604000000000000
B0445423208136S11658794EA0153001605000000000000
B0445463208110S11658851EA0153201607000000000000
B0445503208132S11658908EA0153501610000000000000
B0445543208190S11658929EA0153301608000000000000
B0445583208247S11658894EA0153501607000000000000
B0446023208262S11658814EA0152401596000000000000
B0446063208221S11658745EA0152201594000000000000
B0446103208155S11658739EA0152101590000000000000
B0446143208114S11658793EA0152201594000000000000
B0446183208127S11658862EA0152501599000000000000
B0446223208182S11658897EA0153001606000000000000
B0446263208242S11658879EA0153401605000000000000
B0446303208275S11658815EA0153301604000000000000
B0446343208264S11658741EA0153201603000000000000
B0446383208217S11658699EA0153101599000000000000
B0446423208165S11658716EA0152501595000000000000
B0446463208140S11658771EA0152601596000000000000
B0446503208139S11658834EA0152401595000000000000
B0446543208149S11658898EA0152401598000000000000
B0446583208165S11658966EA0152201593000000000000
B0447023208177S11659035EA0151801588000000000000
B0447063208184S11659105EA0151501585000000000000
B0447103208210S11659170EA0151101580000000000000
B0447143208252S11659224EA0150701575000000000000
B0447183208292S11659287EA0149901568000000000000
B0447223208326S11659358EA0149201558000000000000
B0447263208361S11659430EA0148301549000000000000
B0447303208405S11659495EA0147701541000000000000
B0447343208460S11659548EA0147401541000000000000
B0447383208513S11659597EA0147201542000000000000
B0447423208554S11659662EA0147501543000000000000
B0447463208578S11659733EA0147101539000000000000
B0447503208595S11659804EA0146501534000000000000
B0447543208615S11659869EA0145801522000000000000
B0447583208649S11659933EA0144201507000000000000
B0448023208701S11659986EA0143301499000000000000
B0448063208764S11700016EA0143501506000000000000
B0448103208831S11700025EA0143901508000000000000
B0448143208897S11700016EA0143501501000000000000
B0448183208967S11659993EA0141801482000000000000
B0448223209042S11659976EA0141001477000000000000
B0448263209117S11659961EA0140401473000000000000
B0448303209189S11659950EA0140501474000000000000
B0448343209261S11659942EA0140201470000000000000
B0448383209332S11659928EA0140101469000000000000
B0448423209382S11659873EA0140701476000000000000
B0448463209391S11659798EA0140501475000000000000
B0448503209367S11659722EA0139801464000000000000
B0448543209326S11659655EA0138901455000000000000
B0448583209275S11659595EA0138101450000000000000
B0449023209222S11659539EA0137701445000000000000
B0449063209165S11659484EA0136701433000000000000
B0449103209106S11659431EA0135501423000000000000
B0449143209045S11659378EA0135101419000000000000
B0449183208985S11659326EA0134601413000000000000
B0449223208924S11659274EA0134001408000000000000
B0449263208862S11659226EA0133601404000000000000
B0449303208797S11659196EA0134001412000000000000
B0449343208737S11659213EA0134701417000000000000
B0449383208691S11659262EA0134601417000000000000
B0449423208664S11659328EA0134201411000000000000
B0449463208646S11659397EA0134101412000000000000
B0449503208634S11659464EA0134801422000000000000
B0449543208626S11659526EA0134701416000000000000
B0449583208620S11659590EA0133501397000000000000
B0450023208589S11659649EA0132001386000000000000
B0450063208530S11659682EA0131001375000000000000
B0450103208457S11659679EA0129601359000000000000
B0450143208385S11659649EA0128301347000000000000
B0450183208316S11659599EA0128101350000000000000
B0450223208252S11659539EA0128701358000000000000
B0450263208183S11659500EA0129001357000000000000
B0450303208117S11659516EA0128801356000000000000
B0450343208071S11659565EA0128501351000000000000
B0450383208036S11659626EA0127501338000000000000
B0450423207980S11659672EA0126501331000000000000
B0450463207913S11659695EA0125801324000000000000
B0450503207837S11659692EA0125501323000000000000
B0450543207766S11659656EA0124901313000000000000
B0450583207710S11659590EA0124001305000000000000
B0451023207668S11659512EA0123201298000000000000
B0451063207636S11659426EA0122101287000000000000
B0451103207609S11659334EA0121401277000000000000
B0451143207583S11659244EA0120701272000000000000
B0451183207555S11659157EA0120001263000000000000
B0451223207528S11659071EA0119401257000000000000
B0451263207502S11658986EA0118701250000000000000
B0451303207482S11658894EA0117801241000000000000
B0451343207463S11658801EA0117301236000000000000
B0451383207432S11658712EA0117201236000000000000
B0451423207373S11658661EA0119601265000000000000
B0451463207317S11658698EA0121601291000000000000
B0451503207319S11658767EA0123301305000000000000
B0451543207368S11658793EA0123901303000000000000
B0451583207420S11658758EA0123301294000000000000
B0452023207430S11658681EA0122301287000000000000
B0452063207385S11658629EA0123601310000000000000
B0452103207349S11658680EA0125601328000000015000
B0452143207388S11658712EA0126701337000000000000
B0452183207424S11658667EA0127201334000000000000
B0452223207403S11658596EA0126901336000000000000
B0452263207338S11658590EA0128001351000000000000
B0452303207304S11658652EA0129301364000000000000
B0452343207330S11658713EA0130501373000000000000
B0452383207386S11658716EA0130801375000000000000
B0452423207424S11658654EA0130101364000000000000
B0452463207401S11658577EA0130001368000000000000
B0452503207336S11658561EA0130901381000000000000
B0452543207315S11658624EA0132401399000000000000
B0452583207356S11658664EA0133201403000000000000
B0453023207404S11658628EA0133301400000000000000
B0453063207407S11658547EA0132701398000000000000
B0453103207358S11658490EA0133501408000000000000
B0453143207304S11658521EA0135001425000000000000
B0453183207312S11658590EA0136001436000000000000
B0453223207365S11658609EA0136801442000000000000
B0453263207406S11658561EA0137401444000000000000
B0453303207398S11658489EA0137301446000000000000
B0453343207342S11658459EA0137801453000000000000
B0453383207289S11658498EA0138601460000000000000
B0453423207281S11658565EA0139201471000000000000
B0453463207317S11658612EA0140101476000000000000
B0453503207367S11658602EA0140701481000000000000
B0453543207389S11658543EA0140701480000000000000
B0453583207360S11658481EA0140601480000000000000
B0454023207303S11658479EA0141201485000000000000
B0454063207274S11658535EA0141201486000000000000
B0454103207297S11658591EA0141501487000000000000
B0454143207345S11658607EA0141501489000000000000
B0454183207386S11658567EA0141501484000000000000
B0454223207399S11658490EA0140601472000000000000
B0454263207377S11658409EA0140101472000000000000
B0454303207317S11658369EA0140401478000000000000
B0454343207248S11658373EA0140901481000000000000
B0454383207212S11658430EA0141901497000000000000
B0454423207245S11658469EA0143101503000000000000
B0454463207285S11658431EA0143001501000000000000
B0454503207265S11658365EA0143101503000000000000
B0454543207203S11658364EA0143801512000000000000
B0454583207177S11658429EA0144501520000000000000
B0455023207212S11658474EA0145301527000000000000
B0455063207264S11658460EA0145301524000000000000
B0455103207281S11658394EA0145201524000000000000
B0455143207238S11658335EA0145401529000000000000
B0455183207172S11658334EA0146001534000000000000
B0455223207135S11658395EA0147101547000000000000
B0455263207169S11658434EA0147701550000000000000
B0455303207211S11658392EA0147601550000000000000
B0455343207186S11658326EA0148101555000000000000
B0455383207122S11658336EA0148301553000000000000
B0455423207117S11658408EA0149001566000000000000
B0455463207168S11658426EA0149701568000000000000
B0455503207203S11658375EA0150301575000000000000
B0455543207181S11658312EA0150801577000000000000
B0455583207117S11658308EA0151001577000000000000
B0456023207087S11658374EA0151301584000000000000
B0456063207116S11658430EA0151601587000000000000
B0456103207170S11658427EA0151901590000000000000
B0456143207203S11658373EA0152201593000000000000
B0456183207193S11658305EA0152701598000000000000
B0456223207146S11658260EA0153001603000000000000
B0456263207082S11658261EA0153101603000000000000
B0456303207038S11658313EA0153501609000000000000
B0456343207038S11658382EA0153801614000000000000
B0456383207072S11658433EA0154001613000000000000
B0456423207125S11658443EA0154201613000000000000
B0456463207170S11658407EA0154101611000000000000
B0456503207180S11658340EA0153901612000000000000
B0456543207143S11658282EA0153701608000000000000
B0456583207081S11658277EA0153801610000000000000
B0457023207025S11658312EA0153901611000000000000
B0457063207001S11658378EA0153601608000000000000
B0457103207043S11658427EA0153301604000000000000
B0457143207103S11658411EA0153001603000000000000
B0457183207142S11658349EA0152701599000000000000
B0457223207163S11658271EA0152501601000000000000
B0457263207170S11658190EA0152901602000000000000
B0457303207182S11658101EA0152401596000000000000
B0457343207199S11658011EA0152001595000000000000
B0457383207219S11657919EA0152101597000000000000
B0457423207245S11657831EA0152401601000000000000
B0457463207272S11657745EA0152901606000000000000
B0457503207300S11657660EA0152901605000000000000
B0457543207336S11657577EA0153101607000000000000
B0457583207372S11657497EA0153101606000000000000
B0458023207412S11657419EA0152701599000000000000
B0458063207456S11657341EA0152001594000000000000
B0458103207498S11657261EA0151501588000000000000
B0458143207536S11657185EA0151301591000000000000
B0458183207572S11657112EA0151601592000000000000
B0458223207605S11657040EA0151401589000000000000
B0458263207637S11656968EA0150701583000000000000
B0458303207666S11656895EA0150701584000000000000
B0458343207693S11656821EA0150601580000000000000
B0458383207713S11656745EA0150301575000000000000
B0458423207681S11656682EA0149601565000000000000
B0458463207612S11656670EA0148401553000000000000
B0458503207544S11656691EA0147701545000000000000
B0458543207469S11656718EA0146501534000000000000
B0458583207395S11656749EA0144901519000000000000
B0459023207317S11656783EA0143901511000000000000
B0459063207241S11656814EA0143501508000000000000
B0459103207161S11656841EA0143601509000000000000
B0459143207081S11656857EA0143301505000000000000
B0459183207000S11656874EA0142601497000000000000
B0459223206921S11656899EA0142301500000000000000
B0459263206844S11656930EA0142901504000000000000
B0459303206775S11656970EA0142801503000000000000
B0459343206714S11657020EA0142001496000000000000
B0459383206634S11657059EA0139401467000000000000
B0459423206544S11657088EA0138401464000000000000
B0459463206458S11657113EA0138801464000000000000
B0459503206381S11657148EA0139001466000000000000
B0459543206311S11657192EA0138901464000000000000
B0459583206246S11657246EA0139401472000000000000
B0500023206193S11657307EA0140601489000000000000
B0500063206147S11657369EA0141901501000000000000
B0500103206106S11657432EA0142401502000000000000
B0500143206058S11657498EA0141201489000000000000
B0500183206011S11657563EA0141501497000000000000
B0500223205969S11657627EA0142601505000000000000
B0500263205925S11657692EA0142001491000000000000
B0500303205856S11657745EA0139601465000000000000
B0500343205772S11657780EA0138201457000000000000
B0500383205686S11657806EA0137601452000000000000
B0500423205601S11657832EA0136801443000000000000
B0500463205517S11657857EA0136201441000000000000
B0500503205436S11657881EA0136101439000000000000
B0500543205356S11657906EA0135601431000000000000
B0500583205274S11657930EA0135101426000000000000
B0501023205192S11657953EA0134201416000000000000
B0501063205110S11657978EA0133201399000000000000
B0501103205023S11658005EA0131601381000000000000
B0501143204936S11658035EA0129801366000000000000
B0501183204846S11658063EA0128201349000000000000
B0501223204758S11658092EA0127501348000000000000
B0501263204674S11658119EA0127901353000000000000
B0501303204604S11658160EA0129301371000000000000
B0501343204555S11658213EA0130801385000000000000
B0501383204516S11658270EA0132101398000000000000
B0501423204483S11658327EA0133201413000000000000
B0501463204470S11658388EA0134601426000000000000
B0501503204508S11658421EA0136001436000000000000
B0501543204550S11658381EA0136401437000000000000
B0501583204535S11658312EA0136801440000000000000
B0502023204477S11658283EA0136901443000000000000
B0502063204439S11658322EA0138001458000000000000
B0502103204476S11658360EA0139101466000000000000
B0502143204517S11658314EA0139801474000000000000
B0502183204499S11658245EA0140501480000000000000
B0502223204443S11658219EA0141201489000000000000
B0502263204395S11658255EA0141801491000000000000
B0502303204390S11658317EA0142501501000000000000
B0502343204433S11658346EA0143601515000000000000
B0502383204479S11658309EA0144501518000000000000
B0502423204481S11658236EA0145001530000000000000
B0502463204430S11658205EA0146001535000000015000
B0502503204395S11658252EA0146501545000000000000
B0502543204426S11658291EA0147701555000000000000
B0502583204472S11658253EA0148101558000000000000
B0503023204465S11658183EA0149001568000000000000
B0503063204411S11658158EA0149901573000000000000
B0503103204383S11658205EA0150801585000000000000
B0503143204420S11658240EA0151401588000000000000
B0503183204459S11658196EA0152001598000000000000
B0503223204437S11658130EA0152701601000000000000
B0503263204383S11658123EA0153401609000000000000
B0503303204359S11658175EA0153701613000000000000
B0503343204383S11658226EA0154101618000000000000
B0503383204435S11658214EA0154501617000000000000
B0503423204443S11658143EA0154201612000000000000
B0503463204374S11658114EA0152001588000000000000
B0503503204292S11658138EA0151501587000000000000
B0503543204213S11658174EA0151501592000000000000
B0503583204135S11658213EA0151801587000000000000
B0504023204054S11658252EA0150101570000000000000
B0504063203967S11658284EA0149101564000000000000
B0504103203880S11658310EA0148501559000000000000
B0504143203794S11658335EA0148301557000000000000
B0504183203707S11658357EA0147601550000000000000
B0504223203620S11658378EA0147001545000000000000
B0504263203534S11658399EA0146601541000000000000
B0504303203451S11658418EA0146201536000000000000
B0504343203371S11658446EA0146001534000000000000
B0504383203295S11658479EA0146001537000000000000
B0504423203225S11658520EA0145801531000000000000
B0504463203152S11658561EA0144501517000000000000
B0504503203073S11658599EA0143101504000000000000
B0504543202988S11658634EA0142301498000000000000
B0504583202906S11658668EA0142201496000000000000
B0505023202827S11658700EA0141601489000000000000
B0505063202748S11658733EA0140901481000000000000
B0505103202669S11658765EA0140201472000000000000
B0505143202589S11658798EA0139001461000000000000
B0505183202507S11658832EA0138001454000000000000
B0505223202429S11658864EA0137501446000000000000
B0505263202350S11658897EA0136101430000000000000
B0505303202269S11658933EA0134701417000000000000
B0505343202189S11658973EA0134101412000000000000
B0505383202106S11659012EA0133701409000000000000
B0505423202022S11659053EA0133301406000000000000
B0505463201944S11659100EA0133801412000000000000
B0505503201887S11659165EA0135401431000000000000
B0505543201843S11659233EA0135301423000000000000
B0505583201786S11659301EA0132501384000000000000
B0506023201704S11659352EA0130401373000000000000
B0506063201622S11659396EA0129701368000000000000
B0506103201543S11659443EA0129301365000000000000
B0506143201466S11659488EA0128201351000000000000
B0506183201380S11659523EA0127201336000000000000
B0506223201289S11659548EA0125701323000000000000
B0506263201197S11659571EA0124401311000000000000
B0506303201106S11659597EA0123601307000000000000
B0506343201021S11659625EA0123701308000000000000
B0506383200940S11659651EA0123501303000000000000
B0506423200859S11659677EA0122601295000000000000
B0506463200778S11659703EA0121401278000000000000
B0506503200693S11659730EA0120101261000000000000
B0506543200609S11659759EA0119201259000000000000
B0506583200530S11659791EA0118901253000000000000
B0507023200453S11659825EA0118301247000000000000
B0507063200383S11659869EA0117901239000000000000
B0507103200312S11659916EA0116301223000000000000
B0507143200236S11659950EA0115101213000000000000
B0507183200157S11659978EA0114701215000000000000
B0507223200087S11700017EA0116001231000000000000
B0507263200039S11700072EA0117601249000000000000
B0507303200001S11700133EA0119001262000000000000
B0507343200007S11700193EA0120701281000000000000
B0507383200063S11700182EA0121601286000000000000
B0507423200085S11700107EA0121801290000000000000
B0507463200043S11700047EA0123001300000000000000
B0507503159980S11700051EA0124001308000000000000
B0507543159961S11700107EA0124501313000000000000
B0507583200001S11700146EA0124501310000000000000
B0508023200065S11700142EA0124401311000000000000
B0508063200109S11700086EA0125601326000000000000
B0508103200074S11700026EA0127301336000000015000
B0508143200027S11700052EA0127601338000000000000
B0508183200035S11700107EA0128001343000000000000
B0508223200085S11700116EA0128801350000000000000
B0508263200115S11700054EA0129401358000000000000
B0508303200074S11700003EA0130801370000000015000
B0508343200031S11700032EA0131301374000000015000
B0508383200056S11700076EA0131401376000000015000
B0508423200106S11700042EA0132001383000000015000
B0508463200104S11659967EA0132701395000000015000
B0508503200052S11659934EA0133701399000000015000
B0508543200010S11659972EA0133901404000000015000
B0508583200032S11700020EA0134101407000000015000
B0509023200088S11700029EA0134601411000000015000
B0509063200143S11700000EA0135301418000000000000
B0509103200161S11659925EA0135901424000000000000
B0509143200121S11659864EA0136501427000000000000
B0509183200057S11659850EA0136601429000000000000
B0509223200015S11659894EA0137701441000000000000
B0509263200037S11659941EA0138601449000000000000
B0509303200085S11659911EA0139401458000000000000
B0509343200089S11659841EA0140001465000000000000
B0509383200041S11659803EA0140101465000000000000
B0509423200001S11659844EA0140101464000000000000
B0509463159981S11659912EA0140001468000000000000
B0509503159967S11659981EA0140201468000000000000
B0509543159952S11700055EA0138701443000000000000
B0509583159903S11700136EA0135001403000000000000
B0510023159824S11700202EA0133101395000000000000
B0510063159737S11700245EA0133301405000000000000
B0510103159653S11700277EA0134301416000000000000
B0510143159568S11700301EA0134601416000000000000
B0510183159480S11700318EA0133301403000000000000
B0510223159389S11700331EA0132501393000000000000
B0510263159300S11700350EA0131801386000000000000
B0510303159216S11700384EA0130801375000000000000
B0510343159133S11700422EA0129301360000000000000
B0510383159049S11700461EA0128601358000000000000
B0510423158967S11700497EA0128801360000000000000
B0510463158888S11700537EA0128901358000000000000
B0510503158811S11700579EA0128001346000000000000
B0510543158730S11700615EA0126801336000000000000
B0510583158649S11700650EA0126101330000000000000
B0511023158571S11700688EA0125601325000000000000
B0511063158488S11700717EA0125001322000000000000
B0511103158403S11700745EA0125201323000000000000
B0511143158323S11700784EA0124701316000000000000
B0511183158259S11700840EA0126401343000000000000
B0511223158262S11700904EA0130401386000000000000
B0511263158314S11700910EA0132301393000000000000
B0511303158355S11700848EA0132301393000000000000
B0511343158336S11700771EA0132801401000000000000
B0511383158277S11700758EA0133701408000000000000
B0511423158230S11700797EA0134801421000000000000
B0511463158241S11700851EA0135401426000000000000
B0511503158299S11700852EA0136201433000000000000
B0511543158333S11700786EA0137001445000000000000
B0511583158303S11700715EA0138001454000000000000
B0512023158245S11700709EA0138701456000000000000
B0512063158213S11700761EA0139301466000000000000
B0512103158247S11700803EA0140501478000000000000
B0512143158297S11700761EA0141501487000000000000
B0512183158293S11700686EA0142301495000000000000
B0512223158242S11700645EA0143301506000000000000
B0512263158189S11700662EA0143501503000000000000
B0512303158181S11700718EA0144101515000000000000
B0512343158238S11700714EA0145401526000000000000
B0512383158255S11700644EA0146801540000000000000
B0512423158212S11700596EA0147301543000000000000
B0512463158165S11700622EA0147401543000000000000
B0512503158174S11700675EA0148301555000000000000
B0512543158230S11700660EA0148901562000000000000
B0512583158249S11700587EA0149601571000000000000
B0513023158207S11700533EA0150301573000000000000
B0513063158158S11700559EA0149901565000000000000
B0513103158134S11700624EA0149701571000000000000
B0513143158115S11700696EA0150501577000000000000
B0513183158100S11700769EA0150901581000000000000
B0513223158081S11700849EA0149201554000000000000
B0513263158022S11700930EA0146201529000000000000
B0513303157944S11700988EA0145301525000000000000
B0513343157862S11701029EA0145501530000000000000
B0513383157782S11701064EA0145501528000000000000
B0513423157705S11701104EA0145001527000000000000
B0513463157631S11701150EA0144601517000000000000
B0513503157557S11701202EA0143701508000000000000
B0513543157480S11701255EA0142601496000000000000
B0513583157404S11701308EA0142001493000000000000
B0514023157327S11701358EA0141801491000000000000
B0514063157251S11701406EA0141301485000000000000
B0514103157177S11701458EA0140501476000000000000
B0514143157101S11701507EA0139401467000000000000
B0514183157023S11701557EA0138701456000000000000
B0514223156947S11701606EA0137901451000000000000
B0514263156876S11701659EA0137401443000000000000
B0514303156807S11701711EA0137001441000000000000
B0514343156741S11701763EA0136201427000000000000
B0514383156672S11701819EA0134601413000000000000
B0514423156600S11701878EA0134001410000000000000
B0514463156538S11701943EA0134901424000000000000
B0514503156495S11702015EA0136901445000000000000
B0514543156504S11702083EA0140401485000000000000
B0514583156561S11702071EA0142701504000000000000
B0515023156572S11701993EA0143101504000000000000
B0515063156518S11701963EA0143701510000000000000
B0515103156484S11702010EA0144901529000000000000
B0515143156525S11702047EA0146701541000000000000
B0515183156575S11702002EA0147701554000000000000
B0515223156568S11701928EA0148901561000000000000
B0515263156513S11701904EA0149301566000000000000
B0515303156475S11701944EA0150301580000000000000
B0515343156505S11701995EA0151901598000000000000
B0515383156560S11701963EA0153101607000000000000
B0515423156547S11701889EA0153901614000000000000
B0515463156494S11701888EA0155401627000000000000
B0515503156482S11701949EA0156101639000000000000
B0515543156534S11701978EA0157701656000000000000
B0515583156586S11701927EA0159101667000000000000
B0516023156574S11701850EA0160301677000000015000
B0516063156522S11701831EA0161101688000000015000
B0516103156491S11701878EA0161801694000000000000
B0516143156516S11701937EA0162201704000000000000
B0516183156578S11701930EA0164001721000000015000
B0516223156586S11701858EA0165501733000000015000
B0516263156535S11701837EA0166201736000000015000
B0516303156522S11701891EA0166801748000000015000
B0516343156575S11701918EA0167801759000000015000
B0516383156626S11701867EA0169401774000000015000
B0516423156613S11701800EA0170301780000000015000
B0516463156561S11701796EA0170401779000000015000
B0516503156535S11701853EA0170301782000000000000
B0516543156521S11701922EA0170601788000000000000
B0516583156508S11701997EA0170801787000000000000
B0517023156491S11702080EA0169901776000000000000
B0517063156468S11702173EA0166501733000000000000
B0517103156414S11702265EA0164801727000000000000
B0517143156349S11702340EA0165501739000000000000
B0517183156276S11702403EA0165801736000000000000
B0517223156201S11702456EA0165301729000000000000
B0517263156124S11702507EA0164101717000000000000
B0517303156045S11702555EA0162901706000000000000
B0517343155962S11702602EA0161701690000000000000
B0517383155879S11702649EA0161401694000000000000
B0517423155797S11702693EA0161101691000000000000
B0517463155715S11702738EA0160301677000000000000
B0517503155632S11702784EA0159001667000000000000
B0517543155546S11702827EA0158101658000000000000
B0517583155461S11702867EA0157201648000000000000
B0518023155377S11702906EA0156601648000000000000
B0518063155299S11702941EA0156601645000000000000
B0518103155217S11702980EA0155001626000000000000
B0518143155136S11703019EA0154001617000000000000
B0518183155057S11703058EA0153301609000000000000
B0518223154980S11703098EA0152701604000000000000
B0518263154904S11703135EA0151901590000000000000
B0518303154824S11703170EA0150801580000000000000
B0518343154745S11703202EA0149401568000000000000
B0518383154663S11703228EA0148501557000000000000
B0518423154580S11703236EA0147401546000000000000
B0518463154494S11703240EA0146001533000000000000
B0518503154411S11703247EA0145601530000000000000
B0518543154332S11703253EA0145201525000000000000
B0518583154251S11703260EA0145001525000000000000
B0519023154173S11703269EA0145401528000000000000
B0519063154104S11703300EA0145601530000000000000
B0519103154039S11703345EA0145001520000000000000
B0519143153983S11703400EA0144401519000000000000
B0519183153933S11703462EA0143501506000000000000
B0519223153874S11703521EA0142301493000000000000
B0519263153805S11703565EA0141901489000000000000
B0519303153732S11703598EA0141201480000000000000
B0519343153656S11703625EA0139801464000000000000
B0519383153575S11703655EA0138201447000000000000
B0519423153493S11703685EA0137101436000000000000
B0519463153411S11703713EA0136701438000000000000
B0519503153331S11703739EA0136301432000000000000
B0519543153251S11703767EA0136201431000000000000
B0519583153188S11703812EA0137601449000000000000
B0520023153150S11703873EA0138801460000000000000
B0520063153121S11703937EA0139001459000000000000
B0520103153101S11704003EA0139301463000000000000
B0520143153085S11704071EA0139701469000000000000
B0520183153071S11704137EA0139801465000000000000
B0520223153062S11704211EA0139201458000000000000
B0520263153047S11704288EA0138301451000000000000
B0520303153030S11704371EA0136901428000000000000
B0520343152987S11704454EA0134901413000000000000
B0520383152924S11704521EA0133901405000000000000
B0520423152851S11704569EA0133101396000000000000
B0520463152773S11704608EA0132201386000000000000
B0520503152694S11704644EA0131801380000000000000
B0520543152616S11704680EA0131001375000000000000
B0520583152536S11704718EA0130301366000000000000
B0521023152460S11704756EA0129701362000000000000
B0521063152380S11704783EA0128801353000000000000
B0521103152296S11704804EA0127701337000000000000
B0521143152211S11704831EA0126401327000000000000
B0521183152131S11704861EA0125501317000000000000
B0521223152055S11704901EA0126001323000000000000
B0521263152001S11704960EA0126701335000000000000
B0521303151960S11705024EA0127701345000000000000
B0521343151938S11705093EA0129401364000000000000
B0521383151933S11705161EA0130601373000000000000
B0521423151910S11705213EA0131301378000000000000
B0521463151864S11705185EA0132201386000000000000
B0521503151869S11705112EA0132301382000000000000
B0521543151911S11705044EA0132001383000000000000
B0521583151964S11704985EA0132101386000000000000
B0522023152029S11704944EA0132601393000000000000
B0522063152097S11704942EA0133501403000000000000
B0522103152137S11704985EA0134601415000000000000
B0522143152144S11705043EA0135201420000000000000
B0522183152119S11705094EA0135701426000000000000
B0522223152072S11705128EA0134901411000000000000
B0522263152015S11705167EA0133901401000000000000
B0522303151985S11705229EA0133901408000000000000
B0522343151970S11705299EA0134401411000000000000
B0522383151955S11705369EA0134901417000000000000
B0522423151940S11705441EA0135201419000000000000
B0522463151931S11705512EA0136301434000000000000
B0522503151980S11705528EA0138101453000000000000
B0522543152007S11705467EA0138701456000000000000
B0522583151959S11705424EA0139101463000000000000
B0523023151929S11705473EA0140301473000000000000
B0523063151973S11705507EA0141201482000000000000
B0523103152020S11705457EA0141701486000000000000
B0523143152001S11705384EA0142401498000000000000
B0523183151945S11705380EA0143901515000000000000
B0523223151932S11705438EA0144901522000000000000
B0523263151983S11705462EA0145701535000000000000
B0523303152023S11705406EA0146201535000000000000
B0523343151989S11705346EA0147001547000000000000
B0523383151945S11705379EA0148401557000000000000
B0523423151970S11705436EA0148901565000000000000
B0523463152031S11705424EA0149901576000000000000
B0523503152050S11705350EA0150301579000000000000
B0523543152009S11705289EA0151001588000000000000
B0523583151960S11705312EA0152401601000000000000
B0524023151979S11705371EA0153201613000000000000
B0524063152036S11705380EA0154601624000000000000
B0524103152070S11705317EA0155101626000000000000
B0524143152038S11705251EA0155401633000000000000
B0524183151984S11705252EA0156401641000000000000
B0524223151947S11705314EA0156301636000000000000
B0524263151921S11705386EA0156601643000000000000
B0524303151902S11705462EA0157001646000000000000
B0524343151889S11705538EA0156601639000000000000
B0524383151858S11705622EA0153701603000000000000
B0524423151794S11705694EA0152101596000000000000
B0524463151717S11705750EA0152501599000000000000
B0524503151647S11705810EA0153501612000000000000
B0524543151598S11705880EA0154401623000000000000
B0524583151559S11705951EA0154601618000000000000
B0525023151521S11706029EA0152901594000000000000
B0525063151485S11706112EA0151201582000000000000
B0525103151429S11706185EA0149601563000000000000
B0525143151353S11706242EA0148501557000000000000
B0525183151269S11706285EA0148201555000000000000
B0525223151184S11706321EA0147801552000000000000
B0525263151109S11706365EA0148301557000000000000
B0525303151040S11706420EA0147601543000000000000
B0525343150962S11706467EA0146501538000000000000
B0525383150880S11706500EA0146901547000000000000
B0525423150802S11706532EA0148301560000000000000
B0525463150741S11706585EA0150201584000000000000
B0525503150703S11706654EA0151601594000000000000
B0525543150677S11706727EA0151801592000000000000
B0525583150659S11706803EA0151601591000000000000
B0526023150646S11706881EA0150601574000000000000
B0526063150603S11706963EA0147601544000000000000
B0526103150534S11707035EA0146501538000000000000
B0526143150460S11707096EA0145901530000000000000
B0526183150390S11707152EA0145401526000000000000
B0526223150316S11707199EA0144501514000000000000
B0526263150233S11707234EA0143501507000000000000
B0526303150150S11707267EA0143101501000000000000
B0526343150065S11707304EA0142001491000000000000
B0526383149979S11707339EA0141201483000000000000
B0526423149893S11707373EA0140301472000000000000
B0526463149808S11707405EA0139701466000000000000
B0526503149724S11707434EA0139601468000000000000
B0526543149644S11707461EA0139001459000000000000
B0526583149565S11707492EA0138301451000000000000
B0527023149484S11707525EA0137201436000000000000
B0527063149403S11707560EA0135801420000000000000
B0527103149320S11707596EA0134901415000000000000
B0527143149240S11707631EA0134001403000000000000
B0527183149160S11707668EA0133401399000000000000
B0527223149087S11707706EA0133201394000000000000
B0527263149013S11707745EA0132401387000000000000
B0527303148950S11707793EA0132201385000000000000
B0527343148903S11707855EA0131401374000000000000
B0527383148843S11707911EA0129901360000000000000
B0527423148773S11707958EA0129501360000000000000
B0527463148704S11707994EA0129801364000000000000
B0527503148632S11708028EA0129001350000000000000
B0527543148554S11708059EA0128401348000000000000
B0527583148476S11708093EA0127701341000000000000
B0528023148400S11708129EA0127101334000000000000
B0528063148322S11708167EA0126401326000000000000
B0528103148244S11708201EA0125601314000000000000
B0528143148164S11708233EA0124301304000000000000
B0528183148084S11708270EA0123501296000000000000
B0528223148012S11708314EA0123001291000000000000
B0528263147943S11708362EA0121601272000000000000
B0528303147872S11708408EA0120501263000000000000
B0528343147800S11708445EA0119901257000000000000
B0528383147728S11708479EA0118901245000000000000
B0528423147655S11708518EA0117601233000000000000
B0528463147587S11708566EA0117101224000000000000
B0528503147524S11708619EA0116001211000000000000
B0528543147465S11708678EA0115101204000000000000
B0528583147413S11708740EA0114201188000000000000
B0529023147366S11708808EA0113101184000000000000
B0529063147325S11708877EA0112601178000000000000
B0529103147277S11708948EA0111701170000000000000
B0529143147228S11709019EA0111901174000000000000
B0529183147187S11709093EA0111701168000000000000
B0529223147143S11709168EA0110801157000000000000
B0529263147091S11709237EA0110601164000000000000
B0529303147044S11709302EA0112101180000000000000
B0529343147048S11709366EA0113201190000000000000
B0529383147104S11709350EA0113201192000000000000
B0529423147098S11709276EA0114601211000000000000
B0529463147044S11709236EA0115201210000000000000
B0529503146985S11709260EA0115101212000000000000
B0529543146958S11709323EA0115501213000000000000
B0529583146981S11709375EA0115301211000000000000
B0530023147036S11709368EA0115101208000000000000
B0530063147056S11709301EA0115001206000000000000
B0530103147030S11709223EA0115201213000000000000
B0530143146972S11709188EA0116701226000000000000
B0530183146922S11709228EA0116901228000000000000
B0530223146907S11709290EA0117201234000000000000
B0530263146953S11709306EA0117501233000000000000
B0530303146979S11709246EA0117101227000000000000
B0530343146929S11709191EA0116601227000000000000
B0530383146858S11709195EA0117101237000000000000
B0530423146807S11709243EA0118101240000000000000
B0530463146796S11709308EA0117701234000000000000
B0530503146831S11709358EA0116401217000000000000
B0530543146861S11709416EA0114501194000000000000
B0530583146853S11709492EA0112501177000000000000
B0531023146810S11709558EA0110601156000000000000
B0531063146741S11709606EA0109001141000000000000
B0531103146662S11709640EA0108101125000000000000
B0531143146580S11709662EA0107001123000000000000
B0531183146495S11709666EA0107101122000000000000
B0531223146411S11709671EA0106301113000000000000
B0531263146326S11709684EA0106101116000000000000
B0531303146255S11709718EA0107001126000000000000
B0531343146192S11709765EA0107701134000000000000
B0531383146147S11709826EA0108101139000000000000
B0531423146110S11709891EA0109201149000000000000
B0531463146082S11709960EA0109501148000000000000
B0531503146095S11710021EA0109801154000000000000
B0531543146147S11710016EA0110301156000000000000
B0531583146166S11709940EA0110401160000000000000
B0532023146159S11709849EA0109901156000000000000
B0532063146136S11709758EA0110001163000000000000
B0532103146092S11709683EA0110901171000000000000
B0532143146030S11709685EA0112501190000000000000
B0532183146023S11709744EA0113301193000000000000
B0532223146073S11709753EA0113201190000000000000
B0532263146094S11709687EA0113201195000000000000
B0532303146048S11709626EA0113301194000000000000
B0532343145979S11709626EA0114001205000000000000
B0532383145952S11709684EA0115001210000000000000
B0532423145990S11709711EA0115101217000000000000
B0532463146034S11709675EA0114801213000000000000
B0532503146073S11709615EA0114401206000000000000
B0532543146068S11709537EA0114701213000000000000
B0532583146014S11709492EA0115401224000000000000
B0533023145970S11709529EA0116301231000000000000
B0533063146003S11709570EA0117201242000000000000
B0533103146043S11709532EA0117801243000000000000
B0533143146031S11709457EA0117301241000000000000
B0533183145980S11709392EA0117001234000000000000
B0533223145910S11709341EA0116701230000000000000
B0533263145832S11709314EA0117401240000000000000
B0533303145780S11709355EA0119601260000000000000
B0533343145802S11709399EA0121701289000000015000
B0533383145845S11709364EA0123101300000000015000
B0533423145824S11709295EA0123601302000000015000
B0533463145759S11709293EA0124001307000000000000
B0533503145744S11709354EA0125401324000000015000
B0533543145792S11709360EA0127201342000000015000
B0533583145811S11709292EA0127801345000000015000
B0534023145761S11709236EA0128801359000000015000
B0534063145702S11709263EA0130001371000000015000
B0534103145713S11709321EA0131501389000000015000
B0534143145761S11709306EA0132701405000000015000
B0534183145754S11709234EA0133401409000000000000
B0534223145689S11709208EA0133901412000000000000
B0534263145654S11709268EA0134901425000000000000
B0534303145694S11709308EA0136601445000000015000
B0534343145739S11709269EA0138001459000000015000
B0534383145730S11709195EA0138601464000000000000
B0534423145667S11709164EA0139201470000000000000
B0534463145626S11709214EA0140201486000000000000
B0534503145657S11709255EA0141801508000000015000
B0534543145698S11709220EA0142601509000000000000
B0534583145685S11709143EA0142301508000000000000
B0535023145623S11709112EA0143201520000000000000
B0535063145592S11709164EA0144801537000000000000
B0535103145633S11709194EA0145901544000000000000
B0535143145672S11709145EA0146701552000000000000
B0535183145645S11709071EA0147201559000000000000
B0535223145584S11709068EA0148701575000000000000
B0535263145567S11709126EA0149901582000000000000
B0535303145613S11709150EA0150601591000000000000
B0535343145649S11709094EA0151301596000000000000
B0535383145650S11709007EA0151701600000000000000
B0535423145648S11708913EA0152701612000000000000
B0535463145626S11708826EA0154201622000000000000
B0535503145561S11708811EA0154501626000000000000
B0535543145523S11708872EA0154701625000000000000
B0535583145537S11708939EA0155001631000000000000
B0536023145594S11708959EA0155801642000000000000
B0536063145640S11708904EA0157201657000000000000
B0536103145610S11708834EA0158701673000000000000
B0536143145557S11708852EA0159401678000000000000
B0536183145553S11708917EA0159301672000000000000
B0536223145601S11708950EA0160101688000000000000
B0536263145639S11708892EA0161801701000000000000
B0536303145597S11708835EA0162901716000000000000
B0536343145541S11708861EA0164001726000000000000
B0536383145548S11708920EA0164701733000000000000
B0536423145603S11708913EA0166001748000000000000
B0536463145620S11708844EA0167901767000000000000
B0536503145575S11708794EA0168601772000000000000
B0536543145516S11708814EA0168901775000000000000
B0536583145505S11708881EA0169001776000000000000
B0537023145550S11708920EA0170101792000000000000
B0537063145593S11708870EA0171601809000000000000
B0537103145570S11708801EA0173001825000000000000
B0537143145509S11708794EA0173701827000000000000
B0537183145481S11708853EA0173701826000000000000
B0537223145525S11708887EA0174801839000000000000
B0537263145575S11708840EA0175701848000000000000
B0537303145571S11708759EA0176901862000000000000
B0537343145518S11708697EA0176801854000000000000
B0537383145434S11708686EA0174501826000000000000
B0537423145340S11708705EA0171701797000000000000
B0537463145239S11708733EA0169001766000000000000
B0537503145137S11708774EA0166801738000000000000
B0537543145034S11708822EA0164701720000000000000
B0537583144931S11708879EA0163401708000000000000
B0538023144836S11708938EA0163601717000000000000
B0538063144747S11708996EA0163901719000000000000
B0538103144661S11709055EA0163601716000000000000
B0538143144579S11709112EA0163501716000000000000
B0538183144500S11709168EA0163401709000000000000
B0538223144419S11709221EA0162201698000000000000
B0538263144341S11709279EA0161501691000000000000
B0538303144268S11709338EA0160901686000000000000
B0538343144197S11709401EA0160501680000000000000
B0538383144128S11709462EA0160101678000000000000
B0538423144062S11709518EA0159801671000000000000
B0538463143999S11709576EA0159501671000000000000
B0538503143936S11709632EA0159101665000000000000
B0538543143868S11709685EA0158201655000000000000
B0538583143795S11709736EA0157501651000000000000
B0539023143721S11709787EA0156901641000000000000
B0539063143644S11709838EA0156101631000000000000
B0539103143570S11709888EA0155201622000000000000
B0539143143495S11709938EA0154301613000000000000
B0539183143422S11709986EA0154001615000000000000
B0539223143353S11710030EA0154501619000000000000
B0539263143287S11710077EA0154101614000000000000
B0539303143223S11710126EA0153201601000000000000
B0539343143158S11710177EA0152201593000000000000
B0539383143092S11710229EA0151101574000000000000
B0539423143023S11710285EA0148901551000000000000
B0539463142949S11710343EA0146601530000000000000
B0539503142872S11710397EA0145701522000000000000
B0539543142794S11710445EA0145001518000000000000
B0539583142720S11710497EA0145601527000000000000
B0540023142651S11710551EA0145901527000000000000
B0540063142589S11710610EA0147601550000000000000
B0540103142564S11710681EA0149601571000000000000
B0540143142555S11710751EA0150401577000000000000
B0540183142545S11710824EA0150401575000000000000
B0540223142528S11710897EA0150901587000000000000
B0540263142524S11710971EA0152201598000000000000
B0540303142572S11710993EA0154101618000000000000
B0540343142599S11710933EA0154801621000000000000
B0540383142552S11710875EA0155001627000000000000
B0540423142487S11710889EA0156001638000000000000
B0540463142467S11710953EA0157201649000000000000
B0540503142500S11711005EA0158101662000000000000
B0540543142558S11710995EA0159301667000000000000
B0540583142577S11710924EA0159301669000000000000
B0541023142530S11710862EA0159201669000000000000
B0541063142455S11710853EA0159201672000000000000
B0541103142376S11710874EA0159201665000000000000
B0541143142291S11710904EA0158001653000000000000
B0541183142203S11710941EA0156401632000000000000
B0541223142112S11710982EA0155001621000000000000
B0541263142025S11711021EA0154101610000000000000
B0541303141937S11711060EA0152901600000000000000
B0541343141848S11711101EA0151701584000000000000
B0541383141761S11711147EA0151201585000000000000
B0541423141677S11711192EA0151301585000000000000
B0541463141603S11711243EA0151901587000000000000
B0541503141533S11711303EA0150201559000000000000
B0541543141460S11711364EA0148201548000000000000
B0541583141389S11711421EA0147901543000000000000
B0542023141315S11711477EA0146801536000000000000
B0542063141238S11711526EA0146201530000000000000
B0542103141164S11711569EA0146201533000000000000
B0542143141090S11711611EA0145901526000000000000
B0542183141011S11711656EA0143701497000000000000
B0542223140923S11711704EA0142501489000000000000
B0542263140839S11711751EA0142701496000000000000
B0542303140765S11711798EA0144401514000000000000
B0542343140699S11711850EA0144401508000000000000
B0542383140628S11711903EA0143101493000000000000
B0542423140544S11711954EA0140901467000000000000
B0542463140454S11711998EA0140101468000000000000
B0542503140366S11712038EA0140401472000000000000
B0542543140280S11712079EA0139701458000000000000
B0542583140194S11712122EA0138501446000000000000
B0543023140106S11712166EA0137001432000000000000
B0543063140019S11712211EA0135701421000000000000
B0543103139934S11712254EA0135101414000000000000
B0543143139850S11712295EA0134301401000000000000
B0543183139766S11712336EA0132701389000000000000
B0543223139683S11712378EA0132301384000000000000
B0543263139600S11712419EA0131701378000000000000
B0543303139525S11712460EA0132101385000000000000
B0543343139451S11712496EA0131501376000000000000
B0543383139376S11712534EA0130801368000000000000
B0543423139300S11712573EA0129801351000000000000
B0543463139223S11712614EA0128601342000000000000
B0543503139148S11712656EA0127801338000000000000
B0543543139076S11712695EA0127601338000000000000
B0543583139002S11712734EA0125901309000000000000
B0544023138916S11712774EA0123501290000000000000
B0544063138832S11712815EA0123501297000000000000
B0544103138749S11712851EA0123701295000000000000
B0544143138665S11712886EA0122801285000000000000
B0544183138581S11712919EA0122801294000000000000
B0544223138503S11712943EA0124601318000000000000
B0544263138429S11712964EA0126901341000000000000
B0544303138359S11712973EA0129101359000000000000
B0544343138313S11713019EA0131101382000000000000
B0544383138349S11713059EA0133001402000000000000
B0544423138390S11713008EA0134801418000000000000
B0544463138361S11712950EA0136301434000000000000
B0544503138308S11712969EA0137201438000000000000
B0544543138323S11713032EA0138201455000000000000
B0544583138375S11713006EA0140501481000000000000
B0545023138362S11712941EA0142301497000000000000
B0545063138304S11712946EA0143201505000000000000
B0545103138296S11713013EA0144001517000000000000
B0545143138352S11713028EA0146201547000000000000
B0545183138374S11712965EA0148801571000000000000
B0545223138330S11712921EA0150201583000000000000
B0545263138279S11712951EA0151001589000000000000
B0545303138292S11713017EA0152301605000000000000
B0545343138346S11713023EA0154501629000000000000
B0545383138372S11712960EA0156201644000000000000
B0545423138336S11712899EA0157701658000000000000
B0545463138277S11712908EA0158501662000000000000
B0545503138264S11712978EA0158701663000000000000
B0545543138307S11713032EA0160501685000000000000
B0545583138357S11712997EA0161901705000000000000
B0546023138351S11712924EA0164001728000000000000
B0546063138296S11712898EA0166001741000000000000
B0546103138257S11712947EA0166701748000000000000
B0546143138290S11713004EA0168001762000000000000
B0546183138346S11712980EA0169001776000000000000
B0546223138362S11712904EA0170601794000000000000
B0546263138326S11712839EA0172201806000000000000
B0546303138265S11712848EA0173001812000000000000
B0546343138258S11712917EA0173001811000000000000
B0546383138310S11712954EA0174101824000000000000
B0546423138348S11712904EA0176201851000000000000
B0546463138305S11712863EA0177801867000000000000
B0546503138264S11712908EA0178301869000000000000
B0546543138291S11712972EA0178701873000000000000
B0546583138343S11712950EA0180601897000000000000
B0547023138320S11712890EA0182001914000000000000
B0547063138262S11712913EA0182601918000000000000
B0547103138279S11712984EA0183601928000000000000
B0547143138339S11712973EA0184901945000000000000
B0547183138346S11712902EA0186701965000000000000
B0547223138295S11712860EA0187701977000000000000
B0547263138238S11712894EA0188501979000000000000
B0547303138249S11712963EA0188801983000000000000
B0547343138313S11712976EA0189401988000000000000
B0547383138327S11712911EA0190902007000000000000
B0547423138269S11712907EA0192602019000000000000
B0547463138265S11712978EA0192502016000000000000
B0547503138326S11712980EA0193202025000000000000
B0547543138329S11712906EA0194302039000000000000
B0547583138270S11712878EA0195802055000000000000
B0548023138235S11712938EA0196502054000000000000
B0548063138287S11712981EA0196802061000000000000
B0548103138342S11712941EA0197902075000000000000
B0548143138329S11712870EA0198902085000000000000
B0548183138262S11712869EA0199902093000000000000
B0548223138240S11712943EA0200402097000000000000
B0548263138290S11712994EA0201102104000000000000
B0548303138339S11712954EA0202002117000000000000
B0548343138330S11712882EA0202602123000000000000
B0548383138274S11712842EA0203102131000000000000
B0548423138213S11712874EA0203402129000000000000
B0548463138160S11712941EA0201602100000000000000
B0548503138084S11713006EA0198802071000000000000
B0548543137995S11713059EA0196902055000000000000
B0548583137901S11713107EA0195202038000000000000
B0549023137807S11713158EA0194502034000000000000
B0549063137718S11713202EA0195202046000000000000
B0549103137631S11713238EA0195402043000000000000
B0549143137541S11713275EA0194602035000000000000
B0549183137451S11713309EA0194102027000000000000
B0549223137361S11713341EA0193402020000000000000
B0549263137273S11713372EA0192702011000000000000
B0549303137187S11713403EA0191701999000000000000
B0549343137104S11713436EA0190501990000000000000
B0549383137023S11713467EA0190301989000000000000
B0549423136945S11713504EA0190101987000000000000
B0549463136869S11713541EA0190101989000000000000
B0549503136799S11713579EA0190701997000000000000
B0549543136732S11713615EA0191302001000000000000
B0549583136667S11713652EA0191101996000000000000
B0550023136600S11713689EA0190501988000000000000
B0550063136529S11713728EA0189601979000000000000
B0550103136455S11713764EA0188901973000000000000
B0550143136379S11713795EA0188301965000000000000
B0550183136299S11713825EA0187701959000000000000
B0550223136219S11713857EA0186801951000000000000
B0550263136138S11713891EA0186501947000000000000
B0550303136056S11713925EA0185801942000000000000
B0550343135976S11713956EA0185501937000000000000
B0550383135895S11713981EA0185301933000000000000
B0550423135817S11714013EA0184201920000000000000
B0550463135739S11714050EA0183001909000000000000
B0550503135664S11714086EA0182101900000000000000
B0550543135595S11714130EA0181801901000000000000
B0550583135530S11714183EA0181401897000000000000
B0551023135460S11714234EA0181201896000000000000
B0551063135387S11714284EA0180401885000000000000
B0551103135310S11714328EA0180101883000000000000
B0551143135233S11714364EA0179801882000000000000
B0551183135158S11714395EA0179901881000000000000
B0551223135080S11714427EA0178601861000000000000
B0551263134995S11714462EA0177101849000000000000
B0551303134908S11714495EA0176401844000000000000
B0551343134821S11714528EA0176201842000000000000
B0551383134734S11714557EA0175701836000000000000
B0551423134648S11714584EA0175201831000000000000
B0551463134563S11714611EA0174701826000000000000
B0551503134475S11714637EA0174701827000000000000
B0551543134391S11714664EA0174601824000000000000
B0551583134306S11714690EA0173801814000000000000
B0552023134221S11714719EA0173301811000000000000
B0552063134136S11714749EA0173301810000000000000
B0552103134053S11714781EA0173201811000000000000
B0552143133974S11714819EA0174201823000000000000
B0552183133903S11714869EA0174901827000000000000
B0552223133838S11714927EA0174101814000000000000
B0552263133764S11714983EA0172701802000000000000
B0552303133682S11715027EA0171801794000000000000
B0552343133599S11715065EA0171301790000000000000
B0552383133516S11715101EA0170901786000000000000
B0552423133434S11715135EA0170501783000000000000
B0552463133354S11715170EA0170101776000000000000
B0552503133272S11715205EA0169201767000000000000
B0552543133190S11715239EA0168601760000000000000
B0552583133105S11715270EA0167701750000000000000
B0553023133022S11715303EA0167401749000000000000
B0553063132957S11715364EA0168301762000000000000
B0553103132913S11715434EA0169401774000000000000
B0553143132879S11715506EA0170601787000000000000
B0553183132850S11715576EA0171901801000000000000
B0553223132839S11715646EA0173301813000000000000
B0553263132866S11715702EA0174501826000000000000
B0553303132917S11715702EA0176301848000000000000
B0553343132935S11715634EA0177601860000000000000
B0553383132887S11715581EA0179201878000000000000
B0553423132831S11715602EA0180201888000000000000
B0553463132824S11715664EA0180701891000000000000
B0553503132874S11715688EA0181501902000000000000
B0553543132910S11715637EA0182901918000000000000
B0553583132884S11715567EA0183901930000000000000
B0554023132819S11715552EA0185101941000000000000
B0554063132780S11715607EA0185901948000000000000
B0554103132808S11715659EA0187001961000000000000
B0554143132860S11715656EA0188601974000000000000
B0554183132892S11715600EA0189401984000000000000
B0554223132869S11715532EA0190801999000000000000
B0554263132808S11715519EA0191602010000000000000
B0554303132772S11715571EA0192202014000000000000
B0554343132798S11715624EA0193102024000000000000
B0554383132848S11715600EA0194002032000000000000
B0554423132849S11715526EA0194802042000000000000
B0554463132798S11715481EA0195902053000000000000
B0554503132744S11715509EA0196802058000000000000
B0554543132730S11715574EA0197002060000000000000
B0554583132775S11715606EA0197802069000000000000
B0555023132811S11715560EA0198702081000000000000
B0555063132800S11715490EA0199502089000000000000
B0555103132741S11715456EA0200202095000000000000
B0555143132691S11715495EA0200502097000000000000
B0555183132670S11715567EA0200102091000000000000
B0555223132641S11715647EA0199302079000000000000
B0555263132579S11715720EA0197102049000000000000
B0555303132490S11715779EA0194402023000000000000
B0555343132392S11715825EA0192102004000000000000
B0555383132291S11715863EA0191201999000000000000
B0555423132194S11715896EA0190901994000000000000
B0555463132099S11715927EA0190401989000000000000
B0555503132011S11715955EA0189701982000000000000
B0555543131925S11715983EA0188401965000000000000
B0555583131839S11716010EA0187501954000000000000
B0556023131755S11716031EA0187501965000000000000
B0556063131675S11716049EA0188401971000000000000
B0556103131593S11716062EA0188801974000000000000
B0556143131513S11716078EA0189001975000000000000
B0556183131432S11716093EA0189201981000000000000
B0556223131353S11716101EA0190001988000000000000
B0556263131279S11716109EA0190401990000000000000
B0556303131202S11716124EA0190101985000000000000
B0556343131124S11716150EA0189501978000000000000
B0556383131043S11716183EA0187501951000000000000
B0556423130955S11716219EA0185701937000000000000
B0556463130865S11716254EA0185101932000000000000
B0556503130780S11716288EA0184901931000000000000
B0556543130695S11716325EA0183901917000000000000
B0556583130611S11716358EA0183001907000000000000
B0557023130527S11716390EA0182101898000000000000
B0557063130443S11716417EA0181001888000000000000
B0557103130357S11716443EA0179901876000000000000
B0557143130269S11716466EA0179001873000000000000
B0557183130182S11716487EA0179201871000000000000
B0557223130096S11716509EA0177501852000000000000
B0557263130006S11716535EA0176501844000000000000
B0557303129920S11716559EA0176201846000000000000
B0557343129833S11716579EA0176001838000000000000
B0557383129745S11716603EA0174901824000000000000
B0557423129650S11716622EA0174101818000000000000
B0557463129563S11716652EA0175301840000000000000
B0557503129499S11716707EA0176801855000000000000
B0557543129447S11716768EA0177901860000000000000
B0557583129399S11716834EA0177101853000000000000
B0558023129343S11716902EA0175701837000000000000
B0558063129274S11716963EA0174701819000000000000
B0558103129191S11717019EA0173001806000000000000
B0558143129103S11717068EA0172201801000000000000
B0558183129015S11717112EA0172401804000000000000
B0558223128934S11717158EA0172701808000000000000
B0558263128867S11717222EA0172401802000000000000
B0558303128789S11717277EA0170201774000000000000
B0558343128696S11717300EA0168801764000000000000
B0558383128597S11717298EA0167701751000000000000
B0558423128498S11717288EA0166101736000000000000
B0558463128402S11717279EA0165501729000000000000
B0558503128306S11717270EA0165001723000000000000
B0558543128211S11717262EA0163801710000000000000
B0558583128115S11717261EA0162301695000000000000
B0559023128018S11717264EA0161101680000000000000
B0559063127918S11717266EA0159001656000000000000
B0559103127816S11717262EA0157001638000000000000
B0559143127713S11717266EA0155901628000000000000
B0559183127614S11717276EA0154801615000000000000
B0559223127515S11717290EA0153401601000000000000
B0559263127420S11717307EA0153201601000000000000
B0559303127331S11717329EA0152601592000000000000
B0559343127242S11717354EA0152101586000000000000
B0559383127154S11717385EA0151101575000000000000
B0559423127067S11717419EA0150001565000000000000
B0559463126982S11717454EA0149801571000000000000
B0559503126903S11717488EA0150001568000000000000
B0559543126824S11717523EA0149401557000000000000
B0559583126743S11717561EA0147701535000000000000
B0600023126660S11717609EA0146001524000000000000
B0600063126586S11717662EA0146701538000000000000
B0600103126547S11717736EA0148501561000000000000
B0600143126544S11717814EA0150201577000000000000
B0600183126582S11717861EA0151701587000000000000
B0600223126629S11717822EA0151901590000000000000
B0600263126612S11717756EA0151201582000000000000
B0600303126549S11717726EA0151101587000000000000
B0600343126490S11717748EA0152001599000000000000
B0600383126503S11717809EA0153401607000000000000
B0600423126556S11717784EA0154101614000000000000
B0600463126547S11717717EA0155101629000000000000
B0600503126490S11717709EA0156001639000000000000
B0600543126465S11717768EA0157001647000000000000
B0600583126508S11717812EA0157701652000000000000
B0601023126562S11717784EA0158401663000000000000
B0601063126570S11717718EA0159101666000000000000
B0601103126526S11717671EA0159001667000000000000
B0601143126466S11717687EA0159701678000000000000
B0601183126436S11717751EA0160301677000000000000
B0601223126467S11717814EA0160301681000000000000
B0601263126527S11717836EA0161301691000000000000
B0601303126558S11717779EA0161801696000000000000
B0601343126512S11717736EA0162301703000000000000
B0601383126477S11717791EA0162501702000000000000
B0601423126518S11717840EA0163201711000000000000
B0601463126574S11717822EA0163701714000000000000
B0601503126612S11717758EA0163101708000000000000
B0601543126621S11717680EA0163101709000000000000
B0601583126571S11717636EA0163501714000000000000
B0602023126517S11717674EA0162901704000000000000
B0602063126478S11717748EA0163001713000000000000
B0602103126444S11717823EA0162601699000000000000
B0602143126392S11717901EA0159201665000000000000
B0602183126317S11717969EA0157401640000000000000
B0602223126231S11718017EA0156001634000000000000
B0602263126150S11718057EA0156201637000000000000
B0602303126075S11718100EA0156801647000000000000
B0602343126006S11718150EA0157501649000000000000
B0602383125958S11718217EA0157701650000000000000
B0602423125918S11718291EA0156301631000000000000
B0602463125864S11718364EA0154801616000000000000
B0602503125797S11718421EA0153701605000000000000
B0602543125717S11718462EA0153001598000000000000
B0602583125635S11718484EA0152601598000000000000
B0603023125552S11718493EA0153201604000000000000
B0603063125482S11718519EA0154901623000000000000
B0603103125459S11718581EA0156601639000000000000
B0603143125481S11718644EA0156601635000000000000
B0603183125539S11718666EA0156301630000000000000
B0603223125589S11718611EA0155801626000000000000
B0603263125577S11718529EA0156001634000000000000
B0603303125543S11718454EA0156101636000000000000
B0603343125500S11718382EA0156201638000000000000
B0603383125452S11718315EA0156501642000000000000
B0603423125396S11718256EA0157801659000000000000
B0603463125340S11718268EA0159401671000000000000
B0603503125353S11718323EA0159901675000000000000
B0603543125413S11718308EA0160501683000000000000
B0603583125437S11718234EA0161401695000000000000
B0604023125408S11718168EA0162601706000000000000
B0604063125355S11718167EA0162901706000000000000
B0604103125349S11718226EA0163301712000000000000
B0604143125403S11718242EA0164501723000000000000
B0604183125444S11718182EA0165201728000000000000
B0604223125420S11718111EA0165501732000000000000
B0604263125360S11718103EA0165401730000000000000
B0604303125331S11718159EA0166001746000000000000
B0604343125365S11718202EA0167901761000000000000
B0604383125416S11718168EA0169001771000000000000
B0604423125417S11718095EA0169901781000000000000
B0604463125369S11718059EA0169801775000000000000
B0604503125317S11718086EA0169801778000000000000
B0604543125325S11718150EA0170801790000000000000
B0604583125379S11718167EA0172101805000000000000
B0605023125418S11718108EA0173001811000000000000
B0605063125387S11718046EA0173501816000000000000
B0605103125331S11718060EA0173701820000000000000
B0605143125339S11718117EA0175101833000000000000
B0605183125395S11718121EA0176201844000000000000
B0605223125431S11718059EA0176301840000000000000
B0605263125411S11717985EA0176101841000000000000
B0605303125349S11717955EA0175201829000000000000
B0605343125271S11717963EA0173701814000000000000
B0605383125188S11717983EA0173301813000000000000
B0605423125104S11718012EA0173101812000000000000
B0605463125019S11718047EA0172901808000000000000
B0605503124933S11718090EA0172701810000000000000
B0605543124849S11718126EA0173401814000000000000
B0605583124763S11718155EA0173201812000000000000
B0606023124677S11718180EA0172601805000000000000
B0606063124593S11718204EA0172001796000000000000
B0606103124508S11718236EA0170601782000000000000
B0606143124425S11718269EA0170001779000000000000
B0606183124343S11718304EA0169401769000000000000
B0606223124261S11718336EA0168301758000000000000
B0606263124178S11718362EA0167501751000000000000
B0606303124098S11718384EA0167201745000000000000
B0606343124018S11718405EA0166301737000000000000
B0606383123938S11718427EA0165501727000000000000
B0606423123860S11718453EA0164301717000000000000
B0606463123780S11718479EA0163401708000000000000
B0606503123702S11718506EA0162601699000000000000
B0606543123626S11718532EA0162101694000000000000
B0606583123552S11718555EA0161101677000000000000
B0607023123474S11718580EA0159501665000000000000
B0607063123396S11718605EA0158301653000000000000
B0607103123316S11718628EA0157001638000000000000
B0607143123234S11718650EA0155501623000000000000
B0607183123156S11718678EA0155401624000000000000
B0607223123082S11718711EA0156101634000000000000
B0607263123012S11718745EA0157301649000000000000
B0607303122956S11718796EA0158001652000000000000
B0607343122903S11718854EA0157101642000000000000
B0607383122843S11718909EA0157101641000000000000
B0607423122773S11718943EA0157001641000000000000
B0607463122704S11718966EA0157401646000000000000
B0607503122662S11719021EA0158601663000000000000
B0607543122678S11719082EA0160301680000000000000
B0607583122739S11719075EA0161701694000000000000
B0608023122765S11719004EA0162201699000000000000
B0608063122723S11718947EA0162801704000000000000
B0608103122675S11718971EA0162801704000000000000
B0608143122681S11719034EA0163001706000000000000
B0608183122744S11719035EA0164101717000000000000
B0608223122770S11718965EA0164601723000000000000
B0608263122721S11718923EA0165201733000000000000
B0608303122681S11718958EA0165801736000000000000
B0608343122708S11719006EA0166401747000000000000
B0608383122765S11718983EA0166901746000000000000
B0608423122764S11718908EA0166801746000000000000
B0608463122716S11718848EA0166201739000000000000
B0608503122658S11718788EA0164801723000000000000
B0608543122588S11718740EA0164001713000000000000
B0608583122505S11718710EA0162401694000000000000
B0609023122411S11718706EA0160801679000000000000
B0609063122313S11718714EA0159901674000000000000
B0609103122215S11718730EA0160301677000000000000
B0609143122118S11718750EA0158901659000000000000
B0609183122021S11718772EA0158401659000000000000
B0609223121927S11718795EA0157701647000000000000
B0609263121833S11718817EA0156001629000000000000
B0609303121741S11718843EA0156001637000000000000
B0609343121656S11718867EA0157001652000000000000
B0609383121574S11718888EA0158101658000000000000
B0609423121496S11718912EA0158501658000000000000
B0609463121416S11718935EA0157601646000000000000
B0609503121330S11718962EA0156501633000000000000
B0609543121244S11718996EA0155601623000000000000
B0609583121160S11719034EA0154301605000000000000
B0610023121074S11719071EA0153701602000000000000
B0610063120992S11719110EA0154401613000000000000
B0610103120933S11719169EA0156301633000000000000
B0610143120900S11719242EA0157101643000000000000
B0610183120885S11719320EA0157401643000000000000
B0610223120876S11719402EA0156701630000000000000
B0610263120840S11719480EA0154301603000000000000
B0610303120777S11719546EA0152401589000000000000
B0610343120705S11719598EA0150901572000000000000
B0610383120623S11719636EA0149301557000000000000
B0610423120541S11719664EA0148101546000000000000
B0610463120459S11719692EA0147401542000000000000
B0610503120380S11719715EA0147301539000000000000
B0610543120304S11719737EA0147101537000000000000
B0610583120231S11719759EA0146601527000000000000
B0611023120156S11719784EA0145001511000000000000
B0611063120074S11719809EA0143701496000000000000
B0611103119991S11719837EA0143101495000000000000
B0611143119909S11719872EA0142901489000000000000
B0611183119826S11719914EA0142401490000000000000
B0611223119749S11719962EA0143601503000000000000
B0611263119693S11720027EA0143701501000000000000
B0611303119628S11720083EA0142301485000000000000
B0611343119553S11720128EA0141201469000000000000
B0611383119471S11720163EA0139501454000000000000
B0611423119386S11720191EA0138701447000000000000
B0611463119303S11720214EA0137901440000000000000
B0611503119221S11720238EA0137101430000000000000
B0611543119139S11720264EA0136001417000000000000
B0611583119059S11720293EA0134801408000000000000
B0612023118979S11720322EA0134401405000000000000
B0612063118900S11720351EA0133401390000000000000
B0612103118817S11720379EA0132601382000000000000
B0612143118731S11720407EA0131501371000000000000
B0612183118645S11720431EA0130901365000000000000
B0612223118561S11720459EA0130101359000000000000
B0612263118480S11720485EA0130101360000000000000
B0612303118401S11720512EA0130001360000000000000
B0612343118324S11720540EA0130101358000000000000
B0612383118249S11720568EA0129601354000000000000
B0612423118172S11720595EA0129401352000000000000
B0612463118094S11720624EA0129501358000000000000
B0612503118019S11720650EA0130301360000000000000
B0612543117945S11720680EA0130001361000000000000
B0612583117873S11720711EA0130301364000000000000
B0613023117802S11720745EA0129401346000000000000
B0613063117724S11720782EA0127901332000000000000
B0613103117644S11720817EA0126401316000000000000
B0613143117562S11720852EA0126001316000000000000
B0613183117491S11720894EA0127501336000000000000
B0613223117475S11720960EA0130301366000000000000
B0613263117523S11720992EA0131101370000000000000
B0613303117569S11720937EA0131201371000000000000
B0613343117559S11720856EA0131501378000000000000
B0613383117503S11720812EA0132401387000000000000
B0613423117464S11720858EA0133401400000000000000
B0613463117505S11720898EA0133401395000000000000
B0613503117556S11720851EA0134201407000000000000
B0613543117562S11720768EA0134801410000000000000
B0613583117510S11720708EA0134201402000000000000
B0614023117439S11720721EA0134401409000000000000
B0614063117397S11720777EA0135101418000000000000
B0614103117435S11720824EA0136501432000000000000
B0614143117474S11720773EA0137301438000000000000
B0614183117427S11720720EA0137901445000000000000
B0614223117375S11720746EA0138601452000000000000
B0614263117383S11720806EA0139201457000000000000
B0614303117436S11720826EA0139401457000000000000
B0614343117475S11720769EA0140101467000000000000
B0614383117464S11720694EA0140801475000000000000
B0614423117421S11720633EA0140801475000000000000
B0614463117370S11720573EA0140801476000000000000
B0614503117314S11720521EA0140901473000000000000
B0614543117244S11720487EA0139401449000000000000
B0614583117161S11720494EA0137101431000000000000
B0615023117079S11720518EA0136201422000000000000
B0615063117001S11720555EA0136401430000000000000
B0615103116936S11720603EA0137901443000000000000
B0615143116901S11720672EA0140201468000000000000
B0615183116940S11720713EA0141901484000000000000
B0615223116979S11720667EA0142601493000000000000
B0615263116963S11720600EA0143401505000000000000
B0615303116906S11720591EA0144401513000000000000
B0615343116879S11720648EA0145201523000000000000
B0615383116912S11720706EA0145801526000000000000
B0615423116976S11720715EA0147001539000000000000
B0615463117031S11720674EA0148101552000000000000
B0615503117053S11720605EA0149201560000000000000
B0615543117033S11720531EA0149501559000000000000
B0615583116979S11720483EA0149201563000000000000
B0616023116912S11720483EA0149601566000000000000
B0616063116845S11720508EA0149201559000000000000
B0616103116776S11720552EA0149401568000000000000
B0616143116741S11720620EA0151601593000000000000
B0616183116773S11720669EA0153401608000000000000
B0616223116825S11720650EA0154201612000000000000
B0616263116837S11720578EA0154401616000000000000
B0616303116798S11720516EA0155601633000000000000
B0616343116738S11720503EA0157901659000000000000
B0616383116693S11720540EA0159501670000000000000
B0616423116694S11720604EA0160001676000000000000
B0616463116738S11720643EA0159701669000000000000
B0616503116805S11720633EA0159201665000000000000
B0616543116851S11720572EA0159601681000000000000
B0616583116838S11720499EA0161601700000000000000
B0617023116779S11720477EA0163101714000000000000
B0617063116727S11720520EA0164301727000000000000
B0617103116725S11720587EA0165801740000000000000
B0617143116771S11720618EA0166401744000000000000
B0617183116825S11720589EA0166901750000000000000
B0617223116850S11720521EA0167601763000000000000
B0617263116820S11720464EA0169201777000000000000
B0617303116760S11720470EA0170001785000000000000
B0617343116727S11720531EA0170501793000000000000
B0617383116751S11720591EA0171401800000000000000
B0617423116811S11720592EA0171901802000000000000
B0617463116847S11720529EA0172101807000000000000
B0617503116827S11720459EA0173301821000000000000
B0617543116766S11720439EA0174701835000000000000
B0617583116716S11720486EA0175501842000000000000
B0618023116723S11720553EA0177001858000000000000
B0618063116771S11720572EA0178001867000000000000
B0618103116810S11720525EA0178001867000000000000
B0618143116789S11720460EA0178801879000000000000
B0618183116732S11720438EA0180001888000000000000
B0618223116676S11720474EA0180301893000000000000
B0618263116669S11720542EA0181301902000000000000
B0618303116719S11720570EA0181601907000000000000
B0618343116763S11720529EA0182301916000000000000
B0618383116764S11720465EA0183001920000000000000
B0618423116716S11720425EA0182701916000000000000
B0618463116647S11720440EA0182201912000000000000
B0618503116577S11720474EA0182001907000000000000
B0618543116504S11720514EA0181201898000000000000
B0618583116428S11720557EA0180501888000000000000
B0619023116350S11720598EA0179701880000000000000
B0619063116270S11720637EA0178801870000000000000
B0619103116195S11720677EA0178101867000000000000
B0619143116119S11720719EA0177501855000000000000
B0619183116040S11720759EA0176401847000000000000
B0619223115962S11720799EA0176201846000000000000
B0619263115885S11720836EA0176201845000000000000
B0619303115810S11720869EA0176601849000000000000
B0619343115737S11720904EA0176301841000000000000
B0619383115662S11720943EA0175001829000000000000
B0619423115588S11720982EA0174501823000000000000
B0619463115514S11721020EA0174101818000000000000
B0619503115441S11721059EA0173301810000000000000
B0619543115369S11721098EA0172501804000000000000
B0619583115298S11721136EA0171601794000000000000
B0620023115225S11721171EA0171101789000000000000
B0620063115154S11721207EA0170701785000000000000
B0620103115085S11721244EA0170201779000000000000
B0620143115021S11721281EA0169501773000000000000
B0620183114959S11721322EA0168401759000000000000
B0620223114895S11721362EA0167101744000000000000
B0620263114827S11721401EA0165901735000000000000
B0620303114760S11721440EA0165601728000000000000
B0620343114688S11721476EA0164901720000000000000
B0620383114613S11721512EA0164401723000000000000
B0620423114540S11721544EA0165801742000000000000
B0620463114478S11721584EA0167501755000000000000
B0620503114432S11721642EA0168101757000000000000
B0620543114400S11721713EA0167001739000000000000
B0620583114361S11721786EA0165901734000000000000
B0621023114324S11721861EA0165801733000000000000
B0621063114293S11721937EA0165101726000000000000
B0621103114249S11722011EA0163201697000000000000
B0621143114188S11722072EA0161101680000000000000
B0621183114119S11722117EA0160301678000000000000
B0621223114049S11722151EA0160201676000000000000
B0621263113977S11722176EA0159601670000000000000
B0621303113903S11722198EA0158701660000000000000
B0621343113830S11722217EA0157701648000000000000
B0621383113756S11722237EA0156301633000000000000
B0621423113679S11722258EA0154801617000000000000
B0621463113600S11722272EA0154701616000000000000
B0621503113522S11722284EA0154301610000000000000
B0621543113439S11722297EA0152601589000000000000
B0621583113350S11722312EA0150801572000000000000
B0622023113261S11722329EA0148901550000000000000
B0622063113172S11722347EA0147601541000000000000
B0622103113085S11722366EA0147201541000000000000
B0622143113005S11722381EA0147401541000000000000
B0622183112929S11722398EA0147701548000000000000
B0622223112867S11722427EA0148501554000000000000
B0622263112819S11722472EA0148501550000000000000
B0622303112765S11722516EA0147301538000000000000
B0622343112706S11722555EA0146801536000000000000
B0622383112643S11722587EA0147201543000000000000
B0622423112581S11722614EA0147001536000000000000
B0622463112517S11722641EA0146501532000000000000
B0622503112452S11722670EA0146101524000000000000
B0622543112385S11722697EA0145201515000000000000
B0622583112316S11722723EA0144201500000000000000
B0623023112244S11722744EA0142801487000000000000
B0623063112170S11722762EA0142301488000000000000
B0623103112100S11722787EA0142401486000000000000
B0623143112024S11722808EA0141301475000000000000
B0623183111945S11722826EA0140401464000000000000
B0623223111867S11722844EA0139601459000000000000
B0623263111790S11722857EA0139201455000000000000
B0623303111716S11722866EA0138401445000000000000
B0623343111638S11722871EA0136701423000000000000
B0623383111559S11722875EA0135201414000000000000
B0623423111482S11722879EA0134301397000000000000
B0623463111402S11722880EA0132101370000000000000
B0623503111317S11722879EA0130601364000000000000
B0623543111241S11722877EA0130901369000000000000
B0623583111172S11722879EA0131501375000000000000
B0624023111108S11722884EA0131901377000000000000
B0624063111042S11722884EA0132101383000000000000
B0624103110975S11722888EA0132801390000000000000
B0624143110918S11722914EA0133501396000000000000
B0624183110880S11722968EA0133701398000000000000
B0624223110848S11723031EA0133301393000000000000
B0624263110818S11723103EA0133501399000000000000
B0624303110802S11723179EA0134401406000000000000
B0624343110835S11723248EA0134401404000000000000
B0624383110899S11723257EA0134801411000000000000
B0624423110930S11723203EA0134501400000000000000
B0624463110901S11723134EA0132701383000000000000
B0624503110856S11723075EA0133201397000000000000
B0624543110815S11723025EA0134201403000000000000
B0624583110770S11722983EA0134401409000000000000
B0625023110721S11722948EA0134801414000000000000
B0625063110669S11722916EA0134801404000000000000
B0625103110609S11722913EA0134101401000000000000
B0625143110555S11722949EA0133601396000000000000
B0625183110527S11723010EA0133101391000000000000
B0625223110523S11723082EA0133201394000000000000
B0625263110548S11723146EA0133701400000000000000
B0625303110596S11723187EA0134401408000000000000
B0625343110649S11723221EA0134401405000000000000
B0625383110705S11723267EA0133701394000000000000
B0625423110762S11723317EA0133501397000000000000
B0625463110818S11723368EA0133301396000000000000
B0625503110867S11723426EA0132501381000000000000
B0625543110913S11723494EA0131001366000000000000
B0625583110955S11723567EA0129601356000000000000
B0626023110997S11723642EA0128401341000000000000
B0626063111042S11723720EA0127201329000000000000
B0626103111083S11723801EA0126201319000000000000
B0626143111126S11723881EA0125301304000000000000
B0626183111170S11723965EA0123501288000000000000
