ACAM4N6
HFDTE101117
HFFXA050
HFPLTPILOT:JOHN WELSH              
HFGTYGLIDERTYPE:HORNET      
HFGIDGLIDERID:VH-GMY      
HFDTM100GPSDATUM:
HFRFWFIRMWAREVERSION:F2.6
HFRHWHARDWAREVERSION:300 Series Version 2
HFFTYFRTYPE:CAMBRIDGE AERO INSTRUMENTS, 302+
HFGPS:GARMIN,LVS-25,12,18000
HFPRSPRESSALTSENSOR:INTERSEMA, MS5534-AP, 20000
I033638FXA3941ENL4247REX
LCAMSBVER:5FWVER:F26300
C101117031036101117000103
C0000000N00000000WTAKEOFF     
C3207549S11656849EBEVAIR      
C3111283S11701799EDOWERIN     
C3206999S11824999ENarembeen   
C3256166S11710665ENARSIL      
C3207549S11656849EBEVAIR      
C0000000N00000000WLANDING     
B0311423207732S11657100EA0022600210000000000000
B0311443207732S11657100EA0022700210000000000000
B0311463207732S11657100EA0022700210000000000000
B0311483207732S11657100EA0022500210000000000000
B0311503207732S11657100EA0022600210000000000000
B0311523207732S11657100EA0022500210000000000000
B0311543207732S11657100EA0022500210000000000000
B0311563207732S11657100EA0022500210000000000000
B0311583207732S11657100EA0022600210000000000000
B0312003207732S11657100EA0022600210000000000000
B0312023207732S11657100EA0022500210000000000000
B0312043207732S11657100EA0022600210000000000000
B0312063207732S11657100EA0022600210000000000000
B0312083207732S11657100EA0022600210000000000000
B0312103207729S11657099EA0022600210000000000000
B0312133207719S11657094EA0022600210000000000000
B0312173207692S11657081EA0022500210000000000000
B0312213207650S11657059EA0022500210000000000000
B0312253207599S11657029EA0022600211000000000000
B0312293207538S11656991EA0022800211000000000000
B0312333207471S11656955EA0023000213000000000000
B0312373207401S11656918EA0023400220000000000000
B0312413207329S11656888EA0024500233000000000000
B0312453207259S11656865EA0025800252000000000000
B0312493207193S11656840EA0027400271000000000000
B0312533207125S11656814EA0028500278000000000000
B0312573207059S11656787EA0029500293000000000000
B0313013206992S11656762EA0030500303000000000000
B0313053206927S11656727EA0031500312000000000000
B0313093206875S11656666EA0033100329000000000000
B0313133206845S11656587EA0034000342000000000000
B0313173206847S11656503EA0036100368000000000000
B0313213206878S11656428EA0038100388000000000000
B0313253206934S11656373EA0039700398000000000000
B0313293207007S11656349EA0040700408000000000000
B0313333207083S11656360EA0041900422000000000000
B0313373207152S11656407EA0043400438000000000000
B0313413207203S11656481EA0045000454000000000000
B0313453207235S11656566EA0047300482000000000000
B0313493207251S11656652EA0049500501000000000000
B0313533207252S11656736EA0051000517000000000000
B0313573207233S11656817EA0052900535000000000000
B0314013207199S11656888EA0054400552000000000000
B0314053207159S11656960EA0054700554000000000000
B0314093207118S11657029EA0054800557000000000000
B0314133207077S11657096EA0055100558000000000000
B0314173207033S11657164EA0055100558000000000000
B0314213206986S11657229EA0055400561000000000000
B0314253206931S11657287EA0056100572000000000000
B0314293206874S11657338EA0057400588000000000000
B0314333206822S11657387EA0060300621000000000000
B0314373206803S11657449EA0063100647000000000000
B0314413206840S11657497EA0064300656000000000000
B0314453206901S11657480EA0065600669000000000000
B0314493206922S11657411EA0067300688000000000000
B0314533206900S11657354EA0067900691000000000000
B0314573206852S11657348EA0068100692000000000000
B0315013206825S11657400EA0068700703000000000000
B0315053206847S11657463EA0069300705000000000000
B0315093206909S11657481EA0069500709000000000000
B0315133206972S11657439EA0070400721000000000000
B0315173206998S11657367EA0071200726000000000000
B0315213206975S11657299EA0070800718000000000000
B0315253206922S11657273EA0070500718000000000000
B0315293206882S11657303EA0071900733000000000000
B0315333206916S11657350EA0073200747000000000000
B0315373206974S11657324EA0073600747000000000000
B0315413206990S11657246EA0073500748000000000000
B0315453206951S11657191EA0073300746000000000000
B0315493206897S11657202EA0073600751000000000000
B0315533206888S11657259EA0074700762000000000000
B0315573206939S11657291EA0075400769000000000000
B0316013206999S11657251EA0075900775000000000000
B0316053207013S11657174EA0076500782000000000000
B0316093206972S11657122EA0076300772000000000000
B0316133206914S11657130EA0075800770000000000000
B0316173206883S11657182EA0076200774000000000000
B0316213206920S11657230EA0076600775000000000000
B0316253206985S11657203EA0076800780000000000000
B0316293206992S11657124EA0077600792000000000000
B0316333206949S11657090EA0078200792000000000000
B0316373206913S11657127EA0077700785000000000000
B0316413206929S11657191EA0076700777000000000000
B0316453206995S11657202EA0077000781000000000000
B0316493207043S11657139EA0077600790000000000000
B0316533207038S11657057EA0077600786000000000000
B0316573206991S11657007EA0076600773000000000000
B0317013206935S11657022EA0075800771000000000000
B0317053206907S11657077EA0076200774000000000000
B0317093206918S11657140EA0076000768000000000000
B0317133206968S11657183EA0075800772000000000000
B0317173207030S11657168EA0076600779000000000000
B0317213207056S11657095EA0077100784000000000000
B0317253207017S11657039EA0076700775000000000000
B0317293206962S11657053EA0076600777000000000000
B0317333206939S11657109EA0076300770000000000000
B0317373206968S11657165EA0076000769000000000000
B0317413207033S11657174EA0076400776000000000000
B0317453207079S11657117EA0077200785000000000000
B0317493207063S11657046EA0077600788000000000000
B0317533207013S11657039EA0077500789000000000000
B0317573207007S11657088EA0077900796000000000000
B0318013207053S11657107EA0078700801000000000000
B0318053207091S11657051EA0078700800000000000000
B0318093207064S11656990EA0078200794000000000000
B0318133207016S11657004EA0077800790000000000000
B0318173207025S11657060EA0077500786000000000000
B0318213207081S11657056EA0078000798000000000000
B0318253207105S11656991EA0079000804000000000000
B0318293207074S11656935EA0078000789000000000000
B0318333207026S11656945EA0077300785000000000000
B0318373207018S11656997EA0077400785000000000000
B0318413207060S11657021EA0077100781000000000000
B0318453207111S11656978EA0076900782000000000000
B0318493207152S11656917EA0076300776000000000000
B0318533207191S11656852EA0075100760000000000000
B0318573207233S11656789EA0074100751000000000000
B0319013207276S11656728EA0073000740000000000000
B0319053207324S11656672EA0072100733000000000000
B0319093207373S11656624EA0072400740000000000000
B0319133207423S11656578EA0072900746000000000000
B0319173207471S11656531EA0073900753000000000000
B0319213207510S11656472EA0074400759000000000000
B0319253207502S11656405EA0075100767000000000000
B0319293207447S11656390EA0076000777000000000000
B0319333207415S11656446EA0076500781000000000000
B0319373207437S11656513EA0076900790000000000000
B0319413207495S11656528EA0077800795000000000000
B0319453207538S11656476EA0078300803000000000000
B0319493207521S11656415EA0079000808000000000000
B0319533207472S11656419EA0079500812000000000000
B0319573207456S11656481EA0079800818000000000000
B0320013207501S11656522EA0081100831000000000000
B0320053207553S11656492EA0081400831000000000000
B0320093207547S11656423EA0081700833000000000000
B0320133207492S11656403EA0081600832000000000000
B0320173207451S11656454EA0083100851000000000000
B0320213207462S11656518EA0084200866000000000000
B0320253207516S11656528EA0085900881000000000000
B0320293207555S11656476EA0086400883000000000000
B0320333207537S11656418EA0086800891000000000000
B0320373207489S11656414EA0087400893000000000000
B0320413207466S11656475EA0087500895000000000000
B0320453207503S11656520EA0089300919000000000000
B0320493207555S11656493EA0091000934000000000000
B0320533207563S11656429EA0091700938000000000000
B0320573207521S11656397EA0091600936000000000000
B0321013207480S11656442EA0091800939000000000000
B0321053207497S11656507EA0092700952000000000000
B0321093207555S11656498EA0094100972000000000000
B0321133207563S11656435EA0095800987000000000000
B0321173207521S11656397EA0096100986000000000000
B0321213207471S11656429EA0096600996000000000000
B0321253207467S11656496EA0097901008000000000000
B0321293207515S11656526EA0099101024000000000000
B0321333207555S11656479EA0100501032000000000000
B0321373207532S11656415EA0100801042000000000000
B0321413207477S11656418EA0102401054000000000000
B0321453207454S11656477EA0103201060000000000000
B0321493207489S11656529EA0104101071000000000000
B0321533207547S11656518EA0105001082000000000000
B0321573207567S11656449EA0105701090000000000000
B0322013207524S11656398EA0106801103000000000000
B0322053207467S11656409EA0108101117000000000000
B0322093207437S11656464EA0108801121000000000000
B0322133207464S11656523EA0109701135000000000000
B0322173207521S11656519EA0110701139000000000000
B0322213207538S11656453EA0111701152000000000000
B0322253207493S11656418EA0112601162000000000000
B0322293207445S11656450EA0113001165000000000000
B0322333207446S11656514EA0113801181000000000000
B0322373207494S11656542EA0115601192000000000000
B0322413207544S11656501EA0116001195000000000000
B0322453207538S11656432EA0117101212000000000000
B0322493207489S11656407EA0118501221000000000000
B0322533207445S11656444EA0118801225000000000000
B0322573207447S11656509EA0119801239000000000000
B0323013207495S11656542EA0121701258000000000000
B0323053207553S11656522EA0122601263000000000000
B0323093207573S11656458EA0123601273000000000000
B0323133207531S11656420EA0124001281000000000000
B0323173207484S11656451EA0125001285000000000000
B0323213207481S11656515EA0125401295000000000000
B0323253207524S11656563EA0126401305000000000000
B0323293207586S11656563EA0127001310000000000000
B0323333207624S11656510EA0127901318000000000000
B0323373207605S11656451EA0128601329000000000000
B0323413207553S11656444EA0129701337000000000000
B0323453207516S11656492EA0130501345000000000000
B0323493207525S11656559EA0131401356000000000000
B0323533207576S11656598EA0131901358000000000000
B0323573207637S11656583EA0131901360000000000000
B0324013207667S11656522EA0132501368000000000000
B0324053207644S11656462EA0132601368000000000000
B0324093207586S11656455EA0133301382000000000000
B0324133207550S11656509EA0134701399000000000000
B0324173207558S11656583EA0136201414000000000000
B0324213207602S11656639EA0136501409000000000000
B0324253207670S11656644EA0136401409000000000000
B0324293207713S11656587EA0136501414000000000000
B0324333207715S11656507EA0136601418000000000000
B0324373207672S11656466EA0137601429000000000000
B0324413207632S11656503EA0138601438000000000000
B0324453207648S11656574EA0139301447000000000000
B0324493207697S11656614EA0140001454000000000000
B0324533207758S11656631EA0140501457000000000000
B0324573207820S11656627EA0141201468000000000000
B0325013207884S11656617EA0140801458000000000000
B0325053207952S11656641EA0140101455000000000000
B0325093208002S11656696EA0140601462000000000000
B0325133208028S11656763EA0141101463000000000000
B0325173208032S11656835EA0140501455000000000000
B0325213207997S11656896EA0138901437000000000000
B0325253207927S11656923EA0137001413000000000000
B0325293207848S11656923EA0135901404000000000000
B0325333207768S11656906EA0134901394000000000000
B0325373207688S11656896EA0134101382000000000000
B0325413207607S11656893EA0133201376000000000000
B0325453207529S11656900EA0133301382000000000000
B0325493207453S11656903EA0133501379000000000000
B0325533207376S11656888EA0132401364000000000000
B0325573207303S11656860EA0131901361000000000000
B0326013207233S11656825EA0131201353000000000000
B0326053207157S11656786EA0129701338000000000000
B0326093207081S11656745EA0129101335000000000000
B0326133207007S11656713EA0129201339000000000000
B0326173206936S11656689EA0130001346000000000000
B0326213206873S11656674EA0131201357000000000000
B0326253206813S11656663EA0131401356000000000000
B0326293206753S11656654EA0131701359000000000000
B0326333206693S11656646EA0131701359000000000000
B0326373206632S11656650EA0132001367000000000000
B0326413206578S11656671EA0133001375000000000000
B0326453206557S11656730EA0133601378000000000000
B0326493206600S11656774EA0134101389000000000000
B0326533206645S11656731EA0135301398000000000000
B0326573206626S11656659EA0135101396000000000000
B0327013206571S11656617EA0135101398000000000000
B0327053206510S11656581EA0134701394000000000000
B0327093206446S11656549EA0135001401000000000000
B0327133206385S11656536EA0137001427000000000000
B0327173206350S11656580EA0139501448000000000000
B0327213206375S11656636EA0140301446000000000000
B0327253206431S11656627EA0140001446000000000000
B0327293206452S11656568EA0140201446000000000000
B0327333206431S11656507EA0140201451000000000000
B0327373206387S11656462EA0141101460000000000000
B0327413206336S11656429EA0142301474000000000000
B0327453206280S11656402EA0142201467000000000000
B0327493206214S11656372EA0141501466000000000000
B0327533206149S11656349EA0143101485000000000000
B0327573206086S11656329EA0144501497000000000000
B0328013206024S11656319EA0145801517000000000000
B0328053205990S11656367EA0148301542000000000000
B0328093206021S11656418EA0149301545000000000000
B0328133206076S11656396EA0150001561000000000000
B0328173206076S11656334EA0151901580000000000000
B0328213206026S11656311EA0152701582000000000000
B0328253205990S11656362EA0153701599000000000000
B0328293206010S11656420EA0156101625000000000000
B0328333206060S11656425EA0157701635000000000000
B0328373206094S11656375EA0158301644000000000000
B0328413206072S11656316EA0159701659000000000000
B0328453206021S11656316EA0161201673000000000000
B0328493206002S11656376EA0161801677000000000000
B0328533206045S11656416EA0162801691000000000000
B0328573206091S11656381EA0164101704000000000000
B0329013206082S11656318EA0164901716000000000000
B0329053206030S11656292EA0166001728000000000000
B0329093205987S11656333EA0167201737000000000000
B0329133206002S11656399EA0168501753000000000000
B0329173206052S11656415EA0170001766000000000000
B0329213206093S11656368EA0170601773000000000000
B0329253206078S11656302EA0171301782000000000000
B0329293206024S11656299EA0173001798000000000000
B0329333206003S11656359EA0173701805000000000000
B0329373206038S11656409EA0174801815000000000000
B0329413206089S11656384EA0175501825000000000000
B0329453206091S11656315EA0176201837000000000000
B0329493206043S11656280EA0177901854000000000000
B0329533205995S11656310EA0179401868000000000000
B0329573205994S11656377EA0180401877000000000000
B0330013206041S11656418EA0181101882000000000000
B0330053206097S11656394EA0181801895000000000000
B0330093206114S11656328EA0183301912000000000000
B0330133206080S11656279EA0184601924000000000000
B0330173206025S11656288EA0185701931000000000000
B0330213206004S11656351EA0186501936000000000000
B0330253206039S11656403EA0187201946000000000000
B0330293206091S11656388EA0187801953000000000000
B0330333206103S11656323EA0188401962000000000000
B0330373206062S11656275EA0189401971000000000000
B0330413206004S11656293EA0190401980000000000000
B0330453205994S11656359EA0191601992000000000000
B0330493206036S11656403EA0192101996000000000000
B0330533206088S11656383EA0192502001000000000000
B0330573206095S11656318EA0193302011000000000000
B0331013206051S11656279EA0194302019000000000000
B0331053205999S11656303EA0194702025000000000000
B0331093205995S11656371EA0195202029000000000000
B0331133206045S11656403EA0195702031000000000000
B0331173206090S11656364EA0196102036000000000000
B0331213206080S11656298EA0196302039000000000000
B0331253206024S11656250EA0195202026000000000000
B0331293205951S11656210EA0195802039000000000000
B0331333205873S11656180EA0196502044000000000000
B0331373205792S11656152EA0198702068000000000000
B0331413205716S11656129EA0200202086000000000000
B0331453205639S11656116EA0202302105000000000000
B0331493205564S11656102EA0203002111000000000000
B0331533205490S11656090EA0203502112000000000000
B0331573205417S11656074EA0203302110000000000000
B0332013205343S11656063EA0203902121000000000000
B0332053205271S11656054EA0204602126000000000000
B0332093205200S11656042EA0204602127000000000000
B0332133205128S11656033EA0204602122000000000000
B0332173205053S11656025EA0204102120000000000000
B0332213204979S11656019EA0203902116000000000000
B0332253204901S11656013EA0202702099000000000000
B0332293204815S11656004EA0201202087000000000000
B0332333204725S11655996EA0200502083000000000000
B0332373204637S11655991EA0200602083000000000000
B0332413204548S11655983EA0199802071000000000000
B0332453204459S11655978EA0198702060000000000000
B0332493204374S11655970EA0200302083000000000000
B0332533204297S11655961EA0201302090000000000000
B0332573204219S11655951EA0201602088000000015000
B0333013204135S11655941EA0199602062000000000000
B0333053204048S11655930EA0198302056000000000000
B0333093203961S11655925EA0196802038000000000000
B0333133203871S11655922EA0194802016000000000000
B0333173203781S11655920EA0194102014000000000000
B0333213203698S11655920EA0194202014000000000000
B0333253203618S11655918EA0195102028000000000000
B0333293203541S11655920EA0196102038000000000000
B0333333203463S11655920EA0196702045000000000000
B0333373203387S11655924EA0198002062000000000000
B0333413203313S11655928EA0198602060000000000000
B0333453203233S11655938EA0197502042000000000000
B0333493203150S11655944EA0196502035000000000000
B0333533203066S11655948EA0195902032000000000000
B0333573202981S11655948EA0195302025000000000000
B0334013202892S11655944EA0194702017000000000000
B0334053202802S11655947EA0193702008000000000000
B0334093202713S11655948EA0192601998000000000000
B0334133202623S11655947EA0191601980000000000000
B0334173202533S11655944EA0190401974000000000000
B0334213202444S11655943EA0189701966000000000000
B0334253202359S11655946EA0189501965000000000000
B0334293202273S11655952EA0188801956000000000000
B0334333202188S11655961EA0188001948000000000000
B0334373202100S11655972EA0186601932000000000000
B0334413202016S11655985EA0186501934000000000000
B0334453201941S11655994EA0187401943000000000000
B0334493201868S11656007EA0187201939000000000000
B0334533201795S11656024EA0187201939000000000000
B0334573201725S11656047EA0187001940000000000000
B0335013201657S11656069EA0188101955000000000000
B0335053201597S11656093EA0189501967000000000000
B0335093201538S11656120EA0190001973000000000000
B0335133201474S11656143EA0190601976000000000000
B0335173201417S11656181EA0192801999000000000000
B0335213201414S11656249EA0195102029000000000000
B0335253201460S11656285EA0196702039000000000000
B0335293201508S11656249EA0197302044000000000000
B0335333201510S11656177EA0197702051000000000000
B0335373201463S11656142EA0199002068000000000000
B0335413201413S11656173EA0200602084000000000000
B0335453201411S11656240EA0202102099000000000000
B0335493201461S11656277EA0203202108000000000000
B0335533201518S11656249EA0204202121000000000000
B0335573201538S11656180EA0205202132000000000000
B0336013201505S11656123EA0205702139000000000000
B0336053201448S11656124EA0207202159000000000000
B0336093201422S11656180EA0209002174000000000000
B0336133201449S11656236EA0210202185000000000000
B0336173201508S11656245EA0211402198000000000000
B0336213201547S11656193EA0212302208000000000000
B0336253201531S11656128EA0213202215000000000000
B0336293201476S11656104EA0213902224000000000000
B0336333201432S11656150EA0214702236000000000000
B0336373201437S11656220EA0216002246000000000000
B0336413201487S11656266EA0216802253000000000000
B0336453201552S11656249EA0217902268000000000000
B0336493201571S11656181EA0218902279000000000000
B0336533201532S11656129EA0218902277000000000000
B0336573201465S11656110EA0218302267000000000000
B0337013201384S11656106EA0218002263000000000000
B0337053201297S11656108EA0217402257000000000000
B0337093201206S11656115EA0217302254000000000000
B0337133201112S11656125EA0216802249000000000000
B0337173201020S11656139EA0216702245000000000000
B0337213200929S11656156EA0215802234000000000000
B0337253200837S11656175EA0214702225000000000000
B0337293200747S11656194EA0214202223000000000000
B0337333200660S11656212EA0213602218000000000000
B0337373200573S11656228EA0212602203000000000000
B0337413200482S11656237EA0211402191000000000000
B0337453200392S11656241EA0212002200000000000000
B0337493200306S11656240EA0212802214000000000000
B0337533200222S11656241EA0212902211000000000000
B0337573200135S11656240EA0212402203000000000000
B0338013200044S11656240EA0211602195000000000000
B0338053159953S11656243EA0210302185000000000000
B0338093159862S11656243EA0209702182000000000000
B0338133159775S11656246EA0209402180000000000000
B0338173159689S11656242EA0209802181000000000000
B0338213159601S11656241EA0209402175000000000000
B0338253159513S11656242EA0210802200000000000000
B0338293159432S11656243EA0212202209000000000000
B0338333159343S11656245EA0211702201000000000000
B0338373159252S11656245EA0211302196000000000000
B0338413159159S11656241EA0210702189000000000000
B0338453159065S11656240EA0210502188000000000000
B0338493158967S11656238EA0210502186000000000000
B0338533158870S11656237EA0208802170000000000000
B0338573158772S11656238EA0207902163000000000000
B0339013158678S11656241EA0207502160000000000000
B0339053158587S11656243EA0206802150000000000000
B0339093158493S11656245EA0205102131000000000000
B0339133158397S11656238EA0204102124000000000000
B0339173158303S11656229EA0203802120000000000000
B0339213158215S11656223EA0203502113000000000000
B0339253158128S11656221EA0203002111000000000000
B0339293158042S11656220EA0202702106000000000000
B0339333157959S11656217EA0202102101000000000000
B0339373157877S11656216EA0201202088000000000000
B0339413157792S11656216EA0199902078000000000000
B0339453157706S11656212EA0198802064000000000000
B0339493157621S11656211EA0197602048000000000000
B0339533157534S11656215EA0196102033000000000000
B0339573157449S11656217EA0195102028000000000000
B0340013157366S11656221EA0194402016000000000000
B0340053157281S11656225EA0193002005000000000000
B0340093157196S11656227EA0191901992000000000000
B0340133157112S11656236EA0191201989000000000000
B0340173157032S11656247EA0191401993000000000000
B0340213156956S11656262EA0191601993000000000000
B0340253156877S11656280EA0190701982000000000000
B0340293156800S11656298EA0191701997000000000000
B0340333156724S11656312EA0192502004000000000000
B0340373156651S11656329EA0194702031000000000000
B0340413156585S11656341EA0195702038000000000000
B0340453156512S11656350EA0195202033000000000000
B0340493156440S11656359EA0196402047000000000000
B0340533156370S11656368EA0197002051000000000000
B0340573156300S11656379EA0197702062000000000000
B0341013156227S11656388EA0198702071000000000000
B0341053156153S11656394EA0199302081000000000000
B0341093156078S11656402EA0199902078000000000000
B0341133155997S11656412EA0198902065000000000000
B0341173155915S11656424EA0198102064000000000000
B0341213155833S11656440EA0197902057000000000000
B0341253155750S11656453EA0197202052000000000000
B0341293155665S11656463EA0196402040000000000000
B0341333155582S11656476EA0195802038000000000000
B0341373155499S11656488EA0195502035000000000000
B0341413155417S11656500EA0194902029000000000000
B0341453155338S11656513EA0194602024000000000000
B0341493155259S11656528EA0194002015000000000000
B0341533155177S11656545EA0193802016000000000000
B0341573155095S11656553EA0193002002000000000000
B0342013155009S11656552EA0191501990000000000000
B0342053154921S11656546EA0190201977000000000000
B0342093154828S11656540EA0189001961000000000000
B0342133154735S11656529EA0188101955000000000000
B0342173154645S11656519EA0187501950000000000000
B0342213154557S11656510EA0186801939000000000000
B0342253154466S11656498EA0185801931000000000000
B0342293154375S11656488EA0185301930000000000000
B0342333154286S11656476EA0185201930000000000000
B0342373154202S11656463EA0185201928000000000000
B0342413154118S11656449EA0184801925000000000000
B0342453154038S11656433EA0184501919000000000000
B0342493153959S11656415EA0183701910000000000000
B0342533153877S11656396EA0182501898000000000000
B0342573153795S11656375EA0182401901000000000000
B0343013153713S11656359EA0182901906000000000000
B0343053153632S11656344EA0183001908000000000000
B0343093153552S11656325EA0183001906000000000000
B0343133153470S11656306EA0182001893000000000000
B0343173153387S11656286EA0181001884000000000000
B0343213153302S11656263EA0180201874000000000000
B0343253153216S11656241EA0179201861000000000000
B0343293153133S11656221EA0179601874000000000000
B0343333153054S11656201EA0180601882000000000000
B0343373152972S11656177EA0180101867000000000000
B0343413152886S11656158EA0178601856000000000000
B0343453152802S11656138EA0177801847000000000000
B0343493152718S11656117EA0176701835000000000000
B0343533152635S11656100EA0175401824000000000000
B0343573152553S11656081EA0174501812000000000000
B0344013152470S11656061EA0173001796000000000000
B0344053152386S11656050EA0171501782000000000000
B0344093152302S11656041EA0170501773000000000000
B0344133152219S11656032EA0169401757000000000000
B0344173152139S11656022EA0168901757000000000000
B0344213152061S11656016EA0168501750000000000000
B0344253151984S11656016EA0167401741000000000000
B0344293151911S11656033EA0167301742000000000000
B0344333151840S11656058EA0167501741000000000000
B0344373151765S11656086EA0167101738000000000000
B0344413151691S11656117EA0167101740000000000000
B0344453151620S11656150EA0165901717000000000000
B0344493151534S11656163EA0163001690000000000000
B0344533151444S11656160EA0162201689000000000000
B0344573151359S11656150EA0161801680000000000000
B0345013151274S11656130EA0160601668000000000000
B0345053151192S11656102EA0159501657000000000000
B0345093151112S11656064EA0158601648000000000000
B0345133151035S11656026EA0158001643000000000000
B0345173150956S11655987EA0156501621000000000000
B0345213150872S11655946EA0154501603000000000000
B0345253150792S11655900EA0153701596000000000000
B0345293150711S11655853EA0152901586000000000000
B0345333150631S11655809EA0152101578000000000000
B0345373150547S11655773EA0152301583000000000000
B0345413150465S11655743EA0153001592000000000000
B0345453150385S11655709EA0153301589000000000000
B0345493150299S11655675EA0153101593000000000000
B0345533150217S11655651EA0154401608000000000000
B0345573150139S11655634EA0155001608000000000000
B0346013150057S11655614EA0154801607000000000000
B0346053149984S11655574EA0156201625000000000000
B0346093149940S11655500EA0157801638000000015000
B0346133149891S11655439EA0157901637000000000000
B0346173149826S11655406EA0157801634000000000000
B0346213149753S11655382EA0157001625000000000000
B0346253149676S11655362EA0156501624000000000000
B0346293149600S11655348EA0156101620000000000000
B0346333149522S11655333EA0155401603000000000000
B0346373149442S11655318EA0153601590000000000000
B0346413149360S11655305EA0152401577000000000000
B0346453149277S11655293EA0151201565000000000000
B0346493149195S11655285EA0150901564000000000000
B0346533149116S11655275EA0150701561000000000000
B0346573149035S11655265EA0149701551000000000000
B0347013148955S11655257EA0149101546000000000000
B0347053148876S11655250EA0148701545000000000000
B0347093148798S11655249EA0149401552000000000000
B0347133148723S11655254EA0149901557000000000000
B0347173148649S11655258EA0149701553000000000000
B0347213148575S11655263EA0149301546000000000000
B0347253148499S11655271EA0148501538000000000000
B0347293148422S11655283EA0147801533000000000000
B0347333148346S11655292EA0147901532000000000000
B0347373148278S11655317EA0148901545000000000000
B0347413148257S11655384EA0150301561000000000000
B0347453148294S11655434EA0151001567000000000000
B0347493148356S11655430EA0150501558000000000000
B0347533148409S11655383EA0150301558000000000000
B0347573148428S11655318EA0151101566000000000000
B0348013148408S11655261EA0151701576000000000000
B0348053148361S11655268EA0152801585000000000000
B0348093148353S11655331EA0153001582000000000000
B0348133148406S11655366EA0152401578000000000000
B0348173148453S11655327EA0153101589000000000000
B0348213148449S11655266EA0153801594000000000000
B0348253148402S11655242EA0153801592000000000000
B0348293148344S11655259EA0152301575000000000000
B0348333148281S11655301EA0150601559000000000000
B0348373148215S11655350EA0149701550000000000000
B0348413148146S11655397EA0149501547000000000000
B0348453148075S11655444EA0149101543000000000000
B0348493148003S11655488EA0149501553000000000000
B0348533147936S11655530EA0150401562000000000000
B0348573147869S11655573EA0150101553000000000000
B0349013147799S11655618EA0148201531000000000000
B0349053147722S11655664EA0146401514000000000000
B0349093147644S11655707EA0145701510000000000000
B0349133147565S11655748EA0145401507000000000000
B0349173147486S11655794EA0144801497000000000000
B0349213147405S11655842EA0144001493000000000000
B0349253147325S11655885EA0144201500000000000000
B0349293147248S11655926EA0145401509000000000000
B0349333147171S11655963EA0146501521000000000000
B0349373147096S11655995EA0147401532000000000000
B0349413147023S11656011EA0149001549000000000000
B0349453146957S11656030EA0151501574000000000000
B0349493146941S11656093EA0153801597000000000000
B0349533146992S11656125EA0155101607000000000000
B0349573147039S11656081EA0155801614000000000000
B0350013147023S11656017EA0157401635000000000000
B0350053146974S11656004EA0158401643000000000000
B0350093146940S11656051EA0158801643000000000000
B0350133146957S11656120EA0158801645000000000000
B0350173147014S11656155EA0159501655000000000000
B0350213147070S11656123EA0160901670000000000000
B0350253147072S11656058EA0162601688000000000000
B0350293147024S11656022EA0163801698000000000000
B0350333146971S11656047EA0164401702000000000000
B0350373146957S11656113EA0165301715000000000000
B0350413146996S11656168EA0166101724000000000000
B0350453147056S11656169EA0167001732000000000000
B0350493147095S11656115EA0167601742000000000000
B0350533147083S11656051EA0169301758000000000000
B0350573147028S11656032EA0170201765000000000000
B0351013146980S11656076EA0170601769000000000000
B0351053146987S11656149EA0171401777000000000000
B0351093147041S11656191EA0172101784000000000000
B0351133147106S11656177EA0172701792000000000000
B0351173147144S11656116EA0173801808000000000000
B0351213147137S11656047EA0174801814000000000000
B0351253147091S11655998EA0175101813000000000000
B0351293147024S11655982EA0175201815000000000000
B0351333146953S11655999EA0174201798000000000000
B0351373146876S11656034EA0172801784000000000000
B0351413146798S11656080EA0172001775000000000000
B0351453146719S11656130EA0171101770000000000000
B0351493146642S11656182EA0171701781000000000000
B0351533146569S11656234EA0171301773000000000000
B0351573146498S11656289EA0170801770000000000000
B0352013146428S11656345EA0170201762000000000000
B0352053146356S11656402EA0169301752000000000000
B0352093146285S11656457EA0168601747000000000000
B0352133146212S11656507EA0167901738000000000000
B0352173146136S11656558EA0166601723000000000000
B0352213146057S11656609EA0165101708000000000000
B0352253145979S11656661EA0164201700000000000000
B0352293145901S11656711EA0163001691000000000000
B0352333145824S11656761EA0162501685000000000000
B0352373145749S11656809EA0162101680000000000000
B0352413145679S11656857EA0161901681000000000000
B0352453145610S11656906EA0161801678000000000000
B0352493145542S11656955EA0161101668000000000000
B0352533145473S11657004EA0160101657000000000000
B0352573145402S11657052EA0159401654000000000000
B0353013145328S11657100EA0159201652000000000000
B0353053145259S11657144EA0160001671000000000000
B0353093145200S11657186EA0162001694000000000000
B0353133145148S11657230EA0163901713000000000000
B0353173145111S11657283EA0166401739000000000000
B0353213145130S11657350EA0168401755000000000000
B0353253145187S11657345EA0169401761000000000000
B0353293145200S11657273EA0170201771000000000000
B0353333145156S11657235EA0171601785000000000000
B0353373145112S11657276EA0172901801000000000000
B0353413145128S11657347EA0174501816000000000000
B0353453145186S11657365EA0175901831000000000000
B0353493145226S11657311EA0177401843000000000000
B0353533145202S11657248EA0178301855000000000000
B0353573145146S11657246EA0179601873000000000000
B0354013145111S11657306EA0181501891000000000000
B0354053145126S11657380EA0182501895000000000000
B0354093145189S11657407EA0183501910000000000000
B0354133145243S11657363EA0185501930000000000000
B0354173145242S11657290EA0187201945000000000000
B0354213145190S11657265EA0188801965000000000000
B0354253145150S11657313EA0190401978000000000000
B0354293145167S11657382EA0191601988000000000000
B0354333145226S11657395EA0192802007000000000000
B0354373145272S11657343EA0194302018000000000000
B0354413145265S11657268EA0195002024000000000000
B0354453145210S11657246EA0196502043000000000000
B0354493145186S11657308EA0198502062000000000000
B0354533145233S11657354EA0199902075000000000000
B0354573145289S11657321EA0201302089000000000000
B0355013145294S11657251EA0202402100000000000000
B0355053145245S11657217EA0204102121000000000000
B0355093145203S11657259EA0206202140000000000000
B0355133145220S11657328EA0207002148000000000000
B0355173145282S11657345EA0208102165000000000000
B0355213145325S11657290EA0209602180000000000000
B0355253145302S11657228EA0210502190000000000000
B0355293145246S11657235EA0212502213000000000000
B0355333145230S11657300EA0214302227000000000000
B0355373145272S11657352EA0215302241000000000000
B0355413145332S11657334EA0216502251000000000000
B0355453145351S11657267EA0217402260000000000000
B0355493145316S11657212EA0218702275000000000000
B0355533145259S11657218EA0220702294000000000000
B0355573145233S11657283EA0221702304000000000000
B0356013145264S11657347EA0222702319000000000000
B0356053145327S11657348EA0224102328000000000000
B0356093145358S11657283EA0225102340000000000000
B0356133145330S11657218EA0226002346000000000000
B0356173145269S11657213EA0227102365000000000000
B0356213145230S11657270EA0228802379000000000000
B0356253145246S11657347EA0230302391000000000000
B0356293145304S11657384EA0231502404000000000000
B0356333145364S11657355EA0233002420000000000000
B0356373145384S11657287EA0234002430000000000000
B0356413145353S11657228EA0234602437000000000000
B0356453145290S11657212EA0235502447000000000000
B0356493145229S11657244EA0236102450000000000000
B0356533145161S11657293EA0234602430000000000000
B0356573145074S11657320EA0233902425000000000000
B0357013144982S11657334EA0233302421000000000000
B0357053144886S11657338EA0232702416000000000000
B0357093144788S11657334EA0232902422000000000000
B0357133144692S11657325EA0233702431000000000000
B0357173144593S11657315EA0232702420000000000000
B0357213144496S11657306EA0232802417000000000000
B0357253144401S11657298EA0232602412000000000000
B0357293144307S11657286EA0231802401000000000000
B0357333144215S11657272EA0231302398000000000000
B0357373144124S11657256EA0231402398000000000000
B0357413144034S11657246EA0231702402000000000000
B0357453143943S11657234EA0231102391000000000000
B0357493143851S11657222EA0230102383000000000000
B0357533143761S11657212EA0229202375000000000000
B0357573143673S11657203EA0229302378000000000000
B0358013143587S11657191EA0229302376000000000000
B0358053143500S11657181EA0228302362000000000000
B0358093143406S11657173EA0226902340000000000000
B0358133143309S11657172EA0225602331000000000000
B0358173143213S11657173EA0224902330000000000000
B0358213143118S11657179EA0224502327000000000000
B0358253143024S11657187EA0224402328000000000000
B0358293142935S11657196EA0224902334000000000000
B0358333142849S11657211EA0225202338000000000000
B0358373142766S11657229EA0226002348000000000000
B0358413142681S11657244EA0226002342000000000000
B0358453142594S11657251EA0225502343000000000000
B0358493142508S11657255EA0226002351000000000000
B0358533142425S11657254EA0226202351000000000000
B0358573142342S11657250EA0225902348000000000000
B0359013142257S11657246EA0225402339000000000000
B0359053142171S11657238EA0224402329000000000000
B0359093142084S11657229EA0223702323000000000000
B0359133141997S11657213EA0223702324000000000000
B0359173141917S11657195EA0223902325000000000000
B0359213141836S11657177EA0223402318000000000000
B0359253141757S11657157EA0223002317000000000000
B0359293141679S11657143EA0222402310000000000000
B0359333141602S11657126EA0221702302000000000000
B0359373141524S11657109EA0220502288000000000000
B0359413141442S11657094EA0219302276000000000000
B0359453141365S11657082EA0218802275000000000000
B0359493141291S11657072EA0219102277000000000000
B0359533141219S11657062EA0219002273000000000000
B0359573141142S11657049EA0219302283000000000000
B0400013141066S11657036EA0220802295000000000000
B0400053140995S11657025EA0221502302000000000000
B0400093140921S11657016EA0222102307000000000000
B0400133140849S11656997EA0222402309000000000000
B0400173140777S11656975EA0222602310000000000000
B0400213140701S11656970EA0223002322000000000000
B0400253140630S11656971EA0225102343000000000000
B0400293140562S11656981EA0225802347000000000000
B0400333140491S11656988EA0225602345000000000000
B0400373140411S11656983EA0225402334000000000000
B0400413140327S11656968EA0224502329000000000000
B0400453140238S11656948EA0224102325000000000000
B0400493140149S11656930EA0223602317000000000000
B0400533140056S11656906EA0223102315000000000000
B0400573139965S11656884EA0223502316000000000000
B0401013139874S11656861EA0223002309000000000000
B0401053139785S11656840EA0222302304000000000000
B0401093139698S11656823EA0221802295000000000000
B0401133139609S11656806EA0221102292000000000000
B0401173139525S11656791EA0220802287000000000000
B0401213139441S11656776EA0220102279000000000000
B0401253139358S11656762EA0219602276000000000000
B0401293139278S11656747EA0219402270000000000000
B0401333139198S11656728EA0218702264000000000000
B0401373139118S11656708EA0217702249000000000000
B0401413139036S11656687EA0216402238000000000000
B0401453138953S11656663EA0215602230000000000000
B0401493138871S11656641EA0214802222000000000000
B0401533138789S11656617EA0214002210000000000000
B0401573138706S11656591EA0212802197000000000000
B0402013138622S11656563EA0211502186000000000000
B0402053138542S11656533EA0211302185000000000000
B0402093138465S11656506EA0211002183000000000000
B0402133138388S11656481EA0211002183000000000000
B0402173138312S11656458EA0210802183000000000000
B0402213138235S11656436EA0211702191000000000000
B0402253138157S11656412EA0211802190000000000000
B0402293138079S11656386EA0211502185000000000000
B0402333137997S11656357EA0210602173000000000000
B0402373137913S11656325EA0209802166000000000000
B0402413137828S11656293EA0208802155000000000000
B0402453137744S11656260EA0208102148000000000000
B0402493137659S11656230EA0207302140000000000000
B0402533137576S11656207EA0206102129000000000000
B0402573137491S11656186EA0205702128000000000000
B0403013137410S11656169EA0206802142000000000000
B0403053137334S11656149EA0208402159000000000000
B0403093137261S11656136EA0209402166000000000000
B0403133137187S11656133EA0209202162000000000000
B0403173137112S11656130EA0209702173000000000000
B0403213137039S11656136EA0210202175000000000000
B0403253136966S11656142EA0209902168000000000000
B0403293136890S11656149EA0210302176000000000000
B0403333136813S11656152EA0210202171000000000000
B0403373136734S11656158EA0209702166000000000000
B0403413136652S11656159EA0208902155000000000000
B0403453136568S11656162EA0207602141000000000000
B0403493136484S11656163EA0206502133000000000000
B0403533136402S11656160EA0205802124000000000000
B0403573136318S11656156EA0204702110000000000000
B0404013136230S11656152EA0203602100000000000000
B0404053136145S11656156EA0202902093000000000000
B0404093136058S11656160EA0201602077000000000000
B0404133135967S11656163EA0200502067000000000000
B0404173135876S11656168EA0199602058000000000000
B0404213135785S11656173EA0199002052000000000000
B0404253135695S11656184EA0198502045000000000000
B0404293135604S11656195EA0197502035000000000000
B0404333135515S11656210EA0197102035000000000000
B0404373135432S11656232EA0197602041000000000000
B0404413135357S11656258EA0198202045000000000000
B0404453135284S11656292EA0197902038000000000000
B0404493135206S11656311EA0197202031000000000000
B0404533135124S11656323EA0196202017000000000000
B0404573135038S11656321EA0194702002000000000000
B0405013134951S11656310EA0193901999000000000000
B0405053134865S11656298EA0194001998000000000000
B0405093134777S11656277EA0194802014000000000000
B0405133134712S11656314EA0198602059000000000000
B0405173134721S11656385EA0201902091000000000000
B0405213134777S11656412EA0203702103000000000000
B0405253134830S11656376EA0205102119000000000000
B0405293134829S11656310EA0206202130000000000000
B0405333134784S11656292EA0207302136000000000000
B0405373134746S11656347EA0207302140000000000000
B0405413134773S11656415EA0208602156000000000000
B0405453134839S11656425EA0209902171000000000000
B0405493134891S11656377EA0211002179000000000000
B0405533134899S11656299EA0211602185000000000000
B0405573134858S11656227EA0211002170000000000000
B0406013134776S11656184EA0209902170000000000000
B0406053134682S11656160EA0211202187000000000000
B0406093134587S11656145EA0212502201000000015000
B0406133134494S11656130EA0212702196000000000000
B0406173134395S11656123EA0211502182000000000000
B0406213134299S11656112EA0210202172000000000000
B0406253134206S11656100EA0210002173000000000000
B0406293134117S11656091EA0209602168000000000000
B0406333134027S11656081EA0209102166000000000000
B0406373133941S11656069EA0209602171000000000000
B0406413133857S11656054EA0209302168000000000000
B0406453133772S11656035EA0208802159000000000000
B0406493133689S11656020EA0207802147000000000000
B0406533133606S11656009EA0207102141000000000000
B0406573133524S11656002EA0206202134000000000000
B0407013133441S11655989EA0205502122000000000000
B0407053133355S11655976EA0204302109000000000000
B0407093133272S11655961EA0204302117000000000000
B0407133133194S11655955EA0206002136000000000000
B0407173133125S11655973EA0208202159000000000000
B0407213133108S11656039EA0210502183000000000000
B0407253133156S11656090EA0211202189000000000000
B0407293133222S11656068EA0211602191000000000000
B0407333133247S11655991EA0212302201000000000000
B0407373133224S11655916EA0213202208000000000000
B0407413133173S11655859EA0214102220000000000000
B0407453133109S11655827EA0214902226000000000000
B0407493133040S11655837EA0215902236000000000000
B0407533132999S11655895EA0217602257000000000000
B0407573133008S11655969EA0219602275000000000000
B0408013133066S11656002EA0221002289000000000000
B0408053133133S11655968EA0221802295000000000000
B0408093133156S11655889EA0223002314000000000000
B0408133133117S11655833EA0224702328000000000000
B0408173133064S11655857EA0225502333000000000000
B0408213133066S11655928EA0226502348000000000000
B0408253133121S11655956EA0228202365000000000000
B0408293133177S11655920EA0229402377000000000000
B0408333133194S11655846EA0230202385000000000000
B0408373133155S11655790EA0231102391000000000000
B0408413133095S11655787EA0231702396000000000000
B0408453133066S11655844EA0233002411000000000000
B0408493133097S11655903EA0234202426000000000000
B0408533133159S11655904EA0235602440000000000000
B0408573133200S11655848EA0236502447000000000000
B0409013133187S11655779EA0237302454000000000000
B0409053133136S11655748EA0236902444000000000000
B0409093133068S11655769EA0235902436000000000000
B0409133132999S11655808EA0235702432000000000000
B0409173132923S11655857EA0235502432000000000000
B0409213132845S11655908EA0235802434000000000000
B0409253132761S11655947EA0235602432000000000000
B0409293132675S11655972EA0235702432000000000000
B0409333132587S11655986EA0235202425000000000000
B0409373132497S11655994EA0234602422000000000000
B0409413132405S11655996EA0234102416000000000000
B0409453132312S11655996EA0233502413000000000000
B0409493132220S11655994EA0234102423000000000000
B0409533132129S11655993EA0234702430000000000000
B0409573132038S11655990EA0235302438000000000000
B0410013131947S11655989EA0235302433000000000000
B0410053131852S11655985EA0235002433000000000000
B0410093131757S11655983EA0234202417000000000000
B0410133131656S11655983EA0231702387000000000000
B0410173131549S11655983EA0229702372000000000000
B0410213131443S11655989EA0228502361000000000000
B0410253131337S11655995EA0227802363000000000000
B0410293131237S11656002EA0227702358000000000000
B0410333131140S11656006EA0227602360000000000000
B0410373131045S11656008EA0227502356000000000000
B0410413130952S11656015EA0229002379000000000000
B0410453130867S11656016EA0231102398000000000000
B0410493130786S11656021EA0232302412000000000000
B0410533130711S11656030EA0234002433000000000000
B0410573130664S11656078EA0236302455000000000000
B0411013130681S11656137EA0237902468000000000000
B0411053130747S11656146EA0238302470000000000000
B0411093130803S11656097EA0239702490000000000000
B0411133130821S11656024EA0241302500000000000000
B0411173130785S11655957EA0241302495000000000000
B0411213130713S11655925EA0239702474000000000000
B0411253130625S11655912EA0238602465000000000000
B0411293130531S11655899EA0237002443000000000000
B0411333130430S11655889EA0234702422000000000000
B0411373130323S11655882EA0232702397000000000000
B0411413130218S11655882EA0231502394000000000000
B0411453130119S11655881EA0231502395000000000000
B0411493130022S11655882EA0231102392000000000000
B0411533129928S11655885EA0230602384000000000000
B0411573129832S11655886EA0229502373000000000000
B0412013129737S11655883EA0228502362000000000000
B0412053129643S11655883EA0227602356000000000000
B0412093129548S11655878EA0226402336000000000000
B0412133129454S11655873EA0225402331000000000000
B0412173129361S11655864EA0225002328000000000000
B0412213129272S11655859EA0225702339000000000000
B0412253129182S11655852EA0225902342000000000000
B0412293129096S11655850EA0226602346000000000000
B0412333129006S11655847EA0226702346000000000000
B0412373128917S11655846EA0226302337000000000000
B0412413128827S11655846EA0224902323000000000000
B0412453128737S11655846EA0224002318000000000000
B0412493128648S11655844EA0223302309000000000000
B0412533128558S11655840EA0222502301000000000000
B0412573128468S11655837EA0222102300000000000000
B0413013128380S11655835EA0221602292000000000000
B0413053128291S11655837EA0220902284000000000000
B0413093128203S11655838EA0220402276000000000000
B0413133128115S11655839EA0220302278000000000000
B0413173128029S11655844EA0219902271000000000000
B0413213127940S11655852EA0219402266000000000000
B0413253127853S11655861EA0218502257000000000000
B0413293127766S11655874EA0218002251000000000000
B0413333127682S11655887EA0216902240000000000000
B0413373127596S11655900EA0215902226000000000000
B0413413127514S11655912EA0215402229000000000000
B0413453127437S11655928EA0215502228000000000000
B0413493127364S11655946EA0215802233000000000000
B0413533127294S11655968EA0216402239000000000000
B0413573127227S11655994EA0215802224000000000000
B0414013127154S11656022EA0213902205000000000000
B0414053127080S11656055EA0213202199000000000000
B0414093127007S11656080EA0213702209000000000000
B0414133126939S11656106EA0214402214000000000000
B0414173126868S11656134EA0213202193000000000000
B0414213126790S11656160EA0211502181000000000000
B0414253126711S11656181EA0210802175000000000000
B0414293126631S11656202EA0210102168000000000000
B0414333126551S11656224EA0209202160000000000000
B0414373126471S11656246EA0208402147000000000000
B0414413126389S11656263EA0207402139000000000000
B0414453126308S11656279EA0206102124000000000000
B0414493126224S11656295EA0205102115000000000000
B0414533126141S11656310EA0204102102000000000000
B0414573126057S11656327EA0203302095000000000000
B0415013125971S11656345EA0202702083000000000000
B0415053125881S11656363EA0200502063000000000000
B0415093125790S11656381EA0199502054000000000000
B0415133125700S11656397EA0198802047000000000000
B0415173125611S11656414EA0197802038000000000000
B0415213125522S11656431EA0196602027000000000000
B0415253125433S11656448EA0195902020000000000000
B0415293125347S11656467EA0196102028000000000000
B0415333125264S11656487EA0196802029000000000000
B0415373125178S11656507EA0196402024000000000000
B0415413125095S11656536EA0195802014000000000000
B0415453125010S11656566EA0194201995000000000000
B0415493124924S11656600EA0193401995000000000000
B0415533124840S11656632EA0193001986000000000000
B0415573124750S11656663EA0191301964000000000000
B0416013124664S11656702EA0190401962000000000000
B0416053124580S11656745EA0189701949000000000000
B0416093124495S11656789EA0188801939000000000000
B0416133124413S11656835EA0187401927000000000000
B0416173124333S11656882EA0186701917000000000000
B0416213124254S11656930EA0185801907000000000000
B0416253124176S11656982EA0184701896000000000000
B0416293124095S11657036EA0183401879000000000000
B0416333124013S11657091EA0182401869000000000000
B0416373123931S11657144EA0181401862000000000000
B0416413123848S11657196EA0180501851000000000000
B0416453123763S11657247EA0179301836000000000000
B0416493123679S11657291EA0179001838000000000000
B0416533123596S11657338EA0178301825000000000000
B0416573123510S11657386EA0176301802000000000000
B0417013123424S11657432EA0175101790000000000000
B0417053123341S11657478EA0174001782000000000000
B0417093123262S11657525EA0174301787000000000000
B0417133123185S11657571EA0174001778000000000000
B0417173123107S11657618EA0173001767000000000000
B0417213123026S11657664EA0171601751000000000000
B0417253122944S11657710EA0170201738000000000000
B0417293122861S11657753EA0169001725000000000000
B0417333122775S11657796EA0167701711000000000000
B0417373122687S11657840EA0166101695000000000000
B0417413122597S11657883EA0164401674000000000000
B0417453122509S11657927EA0162601656000000000000
B0417493122422S11657971EA0162001652000000000000
B0417533122341S11658015EA0162101658000000000000
B0417573122266S11658063EA0162701662000000000000
B0418013122188S11658113EA0161901653000000000000
B0418053122107S11658166EA0161701650000000000000
B0418093122033S11658221EA0162501660000000000000
B0418133121962S11658281EA0162001656000000000000
B0418173121890S11658338EA0162101662000000000000
B0418213121819S11658396EA0161801653000000000000
B0418253121745S11658452EA0161201648000000000000
B0418293121673S11658503EA0161201650000000000000
B0418333121602S11658555EA0160901643000000000000
B0418373121529S11658604EA0160101635000000000000
B0418413121453S11658652EA0159001616000000000000
B0418453121373S11658703EA0157401604000000000000
B0418493121290S11658751EA0156501592000000000000
B0418533121204S11658795EA0155601583000000000000
B0418573121119S11658837EA0154801573000000000000
B0419013121037S11658882EA0153501560000000000000
B0419053120955S11658932EA0152001543000000000000
B0419093120874S11658983EA0150601528000000000000
B0419133120792S11659032EA0149301519000000000000
B0419173120715S11659081EA0149301520000000000000
B0419213120643S11659127EA0149401520000000000000
B0419253120572S11659172EA0148401508000000000000
B0419293120506S11659217EA0147601501000000000000
B0419333120439S11659263EA0146601489000000000000
B0419373120374S11659313EA0145401479000000000000
B0419413120308S11659362EA0144801471000000000000
B0419453120239S11659412EA0144201465000000000000
B0419493120170S11659461EA0143201453000000000000
B0419533120099S11659510EA0142201445000000000000
B0419573120029S11659558EA0142001445000000000000
B0420013119962S11659607EA0142101444000000000000
B0420053119895S11659657EA0141101430000000000000
B0420093119824S11659712EA0139701414000000000000
B0420133119752S11659763EA0139301417000000000000
B0420173119683S11659807EA0140301427000000000000
B0420213119618S11659851EA0140501425000000000000
B0420253119550S11659893EA0140501426000000000000
B0420293119488S11659939EA0140701430000000000000
B0420333119429S11659993EA0141201436000000000000
B0420373119373S11700046EA0141701442000000000000
B0420413119321S11700095EA0142101446000000000000
B0420453119269S11700143EA0142401451000000000000
B0420493119213S11700192EA0142401449000000000000
B0420533119155S11700238EA0142601453000000000000
B0420573119098S11700286EA0143101457000000000000
B0421013119041S11700337EA0143001452000000000000
B0421053118989S11700402EA0142401448000000000000
B0421093118933S11700470EA0141901443000000000000
B0421133118869S11700530EA0141001431000000000000
B0421173118801S11700583EA0141001437000000000000
B0421213118755S11700650EA0141701447000000000000
B0421253118710S11700719EA0141601440000000000000
B0421293118654S11700782EA0140101421000000000000
B0421333118587S11700835EA0138601406000000000000
B0421373118514S11700881EA0137301393000000000000
B0421413118435S11700917EA0136101383000000000000
B0421453118353S11700944EA0135701381000000000000
B0421493118271S11700969EA0136001386000000000000
B0421533118192S11700992EA0136901401000000000000
B0421573118116S11700979EA0138601419000000000000
B0422013118075S11700917EA0140501440000000000000
B0422053118085S11700852EA0142401460000000000000
B0422093118131S11700818EA0143901474000000000000
B0422133118189S11700825EA0144901484000000000000
B0422173118235S11700879EA0146501501000000000000
B0422213118231S11700955EA0148601524000000000000
B0422253118184S11701004EA0150101537000000000000
B0422293118121S11701009EA0150801545000000000000
B0422333118066S11700973EA0151201548000000000000
B0422373118030S11700912EA0151801551000000000000
B0422413118028S11700840EA0151701556000000000000
B0422453118064S11700786EA0152901568000000000000
B0422493118121S11700765EA0154301583000000000000
B0422533118176S11700791EA0155901601000000000000
B0422573118194S11700861EA0157401617000000000000
B0423013118159S11700925EA0159001632000000000000
B0423053118095S11700944EA0159801643000000000000
B0423093118038S11700914EA0160501645000000000000
B0423133117982S11700870EA0160001631000000000000
B0423173117908S11700865EA0158101610000000000000
B0423213117832S11700892EA0157501609000000000000
B0423253117754S11700927EA0155601582000000000000
B0423293117673S11700970EA0153301558000000000000
B0423333117586S11701020EA0150501531000000000000
B0423373117496S11701066EA0148901513000000000000
B0423413117405S11701109EA0146801490000000000000
B0423453117313S11701147EA0145401478000000000000
B0423493117222S11701185EA0144101459000000000000
B0423533117132S11701217EA0142801448000000000000
B0423573117044S11701250EA0141501433000000000000
B0424013116955S11701281EA0139901417000000000000
B0424053116866S11701313EA0139201412000000000000
B0424093116780S11701343EA0140001425000000000000
B0424133116712S11701388EA0142701455000000000000
B0424173116688S11701458EA0144801477000000000000
B0424213116717S11701514EA0145601481000000000000
B0424253116776S11701515EA0144701464000000000000
B0424293116814S11701447EA0143001448000000000000
B0424333116790S11701371EA0142501449000000000000
B0424373116728S11701342EA0142501453000000000000
B0424413116660S11701352EA0143401460000000000000
B0424453116595S11701376EA0143201456000000000000
B0424493116526S11701406EA0143501462000000000000
B0424533116461S11701438EA0145801488000000000000
B0424573116443S11701502EA0149101525000000000000
B0425013116496S11701519EA0152401557000000000000
B0425053116528S11701467EA0154701581000000000000
B0425093116504S11701408EA0156501595000000000000
B0425133116450S11701398EA0157501611000000000000
B0425173116418S11701453EA0159001628000000000000
B0425213116450S11701512EA0161401658000000000000
B0425253116509S11701506EA0164101685000000000000
B0425293116535S11701441EA0166501706000000000000
B0425333116502S11701380EA0167901718000000000000
B0425373116441S11701386EA0169301736000000000000
B0425413116418S11701456EA0171601759000000000000
B0425453116463S11701511EA0174501793000000000000
B0425493116524S11701499EA0176501817000000000000
B0425533116556S11701433EA0178401835000000000000
B0425573116535S11701362EA0179701848000000000000
B0426013116477S11701332EA0181101860000000000000
B0426053116418S11701368EA0182601879000000000000
B0426093116418S11701445EA0185101905000000000000
B0426133116478S11701467EA0187701930000000000000
B0426173116513S11701408EA0189501950000000000000
B0426213116491S11701345EA0190901959000000000000
B0426253116428S11701329EA0191401969000000000000
B0426293116383S11701388EA0193501992000000000000
B0426333116413S11701455EA0196102021000000000000
B0426373116472S11701437EA0198902048000000000000
B0426413116480S11701371EA0200902067000000000000
B0426453116433S11701336EA0201702076000000000000
B0426493116376S11701372EA0202802091000000000000
B0426533116366S11701454EA0204402106000000000000
B0426573116421S11701505EA0206802135000000000000
B0427013116478S11701469EA0209502163000000000000
B0427053116478S11701397EA0211502179000000000000
B0427093116426S11701360EA0213102197000000000000
B0427133116373S11701398EA0215002220000000000000
B0427173116368S11701473EA0217402242000000000000
B0427213116415S11701519EA0219502264000000000000
B0427253116470S11701489EA0220902281000000000000
B0427293116480S11701417EA0222102297000000000000
B0427333116434S11701369EA0223902315000000000000
B0427373116374S11701393EA0225902338000000000000
B0427413116355S11701467EA0228202356000000000000
B0427453116400S11701521EA0230302383000000000000
B0427493116460S11701507EA0232202398000000000000
B0427533116485S11701440EA0234102419000000000000
B0427573116455S11701377EA0235702434000000000000
B0428013116394S11701375EA0236702445000000000000
B0428053116363S11701446EA0237502457000000000000
B0428093116411S11701501EA0240702493000000000000
B0428133116464S11701469EA0243502522000000000000
B0428173116469S11701401EA0245502538000000000000
B0428213116418S11701364EA0247002551000000000000
B0428253116361S11701402EA0248102566000000000000
B0428293116357S11701480EA0250902595000000000000
B0428333116412S11701525EA0253102617000000000000
B0428373116473S11701502EA0255702646000000000000
B0428413116486S11701434EA0257802665000000000000
B0428453116443S11701389EA0259302680000000000000
B0428493116387S11701423EA0260902700000000000000
B0428533116391S11701499EA0263102726000000000000
B0428573116444S11701542EA0265302746000000000000
B0429013116500S11701514EA0268002776000000000000
B0429053116506S11701442EA0270202795000000000000
B0429093116456S11701403EA0272202814000000000000
B0429133116396S11701430EA0274102837000000000000
B0429173116391S11701510EA0276602860000000000000
B0429213116444S11701553EA0279102884000000000000
B0429253116493S11701511EA0281702909000000000000
B0429293116468S11701446EA0282602913000000000000
B0429333116389S11701434EA0282202909000000000000
B0429373116298S11701449EA0282402909000000000000
B0429413116199S11701472EA0282602913000000000000
B0429453116096S11701497EA0282802917000000000000
B0429493115988S11701515EA0283102921000000000000
B0429533115878S11701528EA0283802926000000000000
B0429573115774S11701541EA0283002917000000000000
B0430013115670S11701550EA0282302913000000000000
B0430053115572S11701555EA0282702922000000000000
B0430093115480S11701558EA0283202925000000000000
B0430133115388S11701559EA0283102925000000000000
B0430173115298S11701559EA0282602916000000000000
B0430213115203S11701558EA0281702909000000000000
B0430253115109S11701550EA0281502910000000000000
B0430293115018S11701538EA0281602909000000000000
B0430333114927S11701531EA0281302901000000000000
B0430373114836S11701523EA0281202904000000000000
B0430413114747S11701515EA0280902899000000000000
B0430453114656S11701506EA0280002891000000000000
B0430493114566S11701495EA0279502887000000000000
B0430533114478S11701482EA0279002876000000000000
B0430573114389S11701469EA0277902867000000000000
B0431013114299S11701456EA0277202861000000000000
B0431053114211S11701441EA0276502854000000000000
B0431093114124S11701420EA0276002849000000000000
B0431133114038S11701399EA0276002849000000000000
B0431173113951S11701388EA0275402843000000000000
B0431213113863S11701381EA0275002839000000000000
B0431253113776S11701377EA0275002838000000000000
B0431293113690S11701380EA0274902834000000000000
B0431333113604S11701390EA0274102825000000000000
B0431373113519S11701403EA0273202816000000000000
B0431413113434S11701417EA0272802814000000000000
B0431453113352S11701433EA0272302809000000000000
B0431493113270S11701450EA0271702803000000000000
B0431533113187S11701468EA0271102796000000000000
B0431573113103S11701484EA0270902795000000000000
B0432013113022S11701501EA0270802793000000000000
B0432053112938S11701516EA0270202783000000000000
B0432093112855S11701532EA0269202769000000000000
B0432133112771S11701542EA0267702760000000000000
B0432173112691S11701551EA0267102755000000000000
B0432213112613S11701559EA0266402745000000000000
B0432253112531S11701566EA0264802724000000000000
B0432293112447S11701577EA0262602706000000000000
B0432333112362S11701588EA0261502694000000000000
B0432373112275S11701596EA0260502678000000000000
B0432413112188S11701603EA0258902662000000000000
B0432453112101S11701615EA0257802654000000000000
B0432493112015S11701629EA0257202648000000000000
B0432533111930S11701644EA0256202635000000000000
B0432573111844S11701657EA0254402613000000000000
B0433013111754S11701668EA0252502598000000000000
B0433053111667S11701679EA0251802594000000000000
B0433093111584S11701690EA0251502592000000000000
B0433133111503S11701702EA0251702596000000000000
B0433173111424S11701716EA0251102585000000000000
B0433213111345S11701732EA0250102572000000000000
B0433253111265S11701755EA0248702557000000000000
B0433293111192S11701798EA0247802551000000000000
B0433333111148S11701869EA0248302558000000000000
B0433373111148S11701950EA0248602560000000000000
B0433413111179S11702026EA0247802551000000000000
B0433453111228S11702092EA0246502540000000000000
B0433493111282S11702156EA0245202526000000000000
B0433533111337S11702227EA0243602507000000000000
B0433573111389S11702308EA0242102497000000000000
B0434013111438S11702389EA0241702493000000000000
B0434053111488S11702470EA0241302490000000000000
B0434093111537S11702552EA0241202490000000000000
B0434133111584S11702634EA0241502496000000000000
B0434173111629S11702712EA0241702495000000000000
B0434213111672S11702795EA0241602492000000000000
B0434253111714S11702883EA0241702497000000000000
B0434293111755S11702972EA0241802495000000000000
B0434333111801S11703061EA0242302504000000000000
B0434373111845S11703148EA0243502516000000000000
B0434413111892S11703231EA0244502529000000000000
B0434453111939S11703313EA0244502528000000000000
B0434493111988S11703393EA0245102534000000000000
B0434533112039S11703471EA0245002528000000000000
B0434573112092S11703548EA0244402521000000000000
B0435013112145S11703620EA0244202519000000000000
B0435053112200S11703691EA0243202509000000000000
B0435093112257S11703761EA0242202499000000000000
B0435133112317S11703830EA0241102486000000000000
B0435173112381S11703895EA0239902470000000000000
B0435213112446S11703955EA0239102466000000000000
B0435253112500S11704027EA0239102466000000000000
B0435293112547S11704101EA0239002461000000000000
B0435333112595S11704179EA0238102454000000000000
B0435373112645S11704262EA0237302445000000000000
B0435413112689S11704354EA0236702440000000000000
B0435453112721S11704458EA0237602452000000000000
B0435493112747S11704560EA0237802450000000000000
B0435533112772S11704666EA0237102440000000000000
B0435573112794S11704770EA0236202431000000000000
B0436013112815S11704874EA0235102421000000000000
B0436053112836S11704979EA0234002408000000000000
B0436093112859S11705087EA0232402393000000000000
B0436133112882S11705197EA0230902377000000000000
B0436173112902S11705308EA0229702367000000000000
B0436213112918S11705418EA0229202362000000000000
B0436253112932S11705524EA0228902358000000000000
B0436293112944S11705629EA0227702339000000000000
B0436333112957S11705739EA0225802320000000000000
B0436373112970S11705848EA0224302307000000000000
B0436413112983S11705953EA0223702303000000000000
B0436453112994S11706058EA0222302288000000000000
B0436493113006S11706161EA0220902272000000000000
B0436533113016S11706266EA0219602260000000000000
B0436573113027S11706370EA0219002254000000000000
B0437013113037S11706473EA0218302246000000000000
B0437053113050S11706576EA0217602241000000000000
B0437093113064S11706677EA0217202235000000000000
B0437133113076S11706776EA0217302236000000000000
B0437173113089S11706872EA0217002234000000000000
B0437213113103S11706966EA0216802233000000000000
B0437253113119S11707056EA0217202239000000000000
B0437293113136S11707147EA0216802231000000000000
B0437333113153S11707239EA0215502216000000000000
B0437373113171S11707335EA0214102203000000000000
B0437413113192S11707430EA0213002192000000000000
B0437453113213S11707522EA0212102181000000000000
B0437493113231S11707616EA0211502173000000000000
B0437533113252S11707706EA0210302163000000000000
B0437573113276S11707790EA0209302155000000000000
B0438013113301S11707873EA0208302143000000000000
B0438053113323S11707958EA0207002130000000000000
B0438093113343S11708040EA0206102121000000000000
B0438133113360S11708122EA0205602117000000000000
B0438173113374S11708207EA0204702104000000000000
B0438213113382S11708296EA0204202108000000000000
B0438253113387S11708378EA0205302120000000000000
B0438293113388S11708454EA0205602114000000000000
B0438333113389S11708534EA0204902111000000000000
B0438373113389S11708612EA0205202118000000000000
B0438413113395S11708683EA0206202128000000000000
B0438453113400S11708756EA0206202124000000000000
B0438493113400S11708835EA0205902120000000000000
B0438533113396S11708918EA0205802120000000000000
B0438573113400S11709000EA0207002136000000000000
B0439013113439S11709050EA0209102161000000000000
B0439053113495S11709030EA0211302183000000000000
B0439093113519S11708963EA0212302190000000000000
B0439133113495S11708895EA0213502203000000000000
B0439173113436S11708876EA0214302212000000000000
B0439213113388S11708908EA0215002217000000000000
B0439253113363S11708970EA0215202219000000000000
B0439293113365S11709045EA0215702229000000000000
B0439333113376S11709121EA0216402237000000000000
B0439373113391S11709198EA0217802253000000000000
B0439413113412S11709276EA0219802277000000000000
B0439453113457S11709323EA0222302301000000000000
B0439493113505S11709297EA0223302302000000000000
B0439533113505S11709228EA0223102302000000000000
B0439573113449S11709197EA0223802314000000000000
B0440013113392S11709230EA0225402333000000000000
B0440053113348S11709289EA0227302353000000000000
B0440093113315S11709362EA0228402357000000000000
B0440133113295S11709449EA0228202355000000000000
B0440173113288S11709544EA0228602358000000000000
B0440213113295S11709641EA0228702361000000000000
B0440253113313S11709736EA0229502373000000000000
B0440293113330S11709835EA0229202360000000000000
B0440333113348S11709936EA0228202350000000000000
B0440373113365S11710036EA0227602349000000000000
B0440413113383S11710127EA0227802350000000000000
B0440453113402S11710212EA0227102346000000000000
B0440493113414S11710296EA0226202330000000000000
B0440533113415S11710386EA0225202320000000000000
B0440573113404S11710476EA0225602333000000000000
B0441013113391S11710560EA0227302348000000000000
B0441053113382S11710642EA0228202360000000000000
B0441093113383S11710727EA0228702364000000000000
B0441133113396S11710818EA0229002362000000000000
B0441173113419S11710911EA0229502374000000000000
B0441213113449S11711005EA0229302364000000000000
B0441253113488S11711101EA0228702360000000000000
B0441293113532S11711196EA0229202368000000000000
B0441333113595S11711253EA0232602416000000000000
B0441373113653S11711236EA0236202443000000000000
B0441413113670S11711169EA0236802445000000000000
B0441453113627S11711114EA0237502457000000000000
B0441493113565S11711110EA0238702466000000000000
B0441533113508S11711148EA0238902466000000000000
B0441573113475S11711223EA0239402471000000000000
B0442013113478S11711312EA0239902476000000000000
B0442053113501S11711400EA0239902475000000000000
B0442093113539S11711490EA0240902493000000000000
B0442133113582S11711577EA0242002498000000000000
B0442173113629S11711660EA0243302523000000000000
B0442213113678S11711738EA0243902514000000000000
B0442253113738S11711820EA0242702505000000000000
B0442293113803S11711893EA0243802522000000000000
B0442333113870S11711960EA0243602510000000000000
B0442373113941S11712031EA0242302498000000000000
B0442413114012S11712103EA0241302482000000000000
B0442453114080S11712172EA0241002485000000000000
B0442493114145S11712240EA0240502473000000000000
B0442533114214S11712311EA0238902455000000000000
B0442573114281S11712388EA0237502438000000000000
B0443013114342S11712469EA0236202435000000000000
B0443053114398S11712549EA0236502435000000000000
B0443093114450S11712629EA0235902426000000000000
B0443133114505S11712707EA0234302407000000000000
B0443173114563S11712783EA0232302385000000000000
B0443213114626S11712856EA0230602374000000000000
B0443253114691S11712926EA0229702359000000000000
B0443293114753S11712995EA0229602369000000000000
B0443333114810S11713058EA0230602380000000000000
B0443373114870S11713124EA0230502373000000000000
B0443413114934S11713193EA0230402376000000000000
B0443453114991S11713259EA0232502403000000000000
B0443493115047S11713314EA0234302418000000000000
B0443533115103S11713366EA0234802421000000000000
B0443573115161S11713419EA0235202426000000000000
B0444013115215S11713480EA0236702441000000000000
B0444053115261S11713540EA0238402460000000000000
B0444093115316S11713585EA0239402471000000000000
B0444133115375S11713634EA0240002473000000000000
B0444173115438S11713673EA0241402494000000000000
B0444213115505S11713684EA0242302496000000000000
B0444253115576S11713717EA0240302464000000000000
B0444293115657S11713779EA0238502454000000000000
B0444333115733S11713851EA0238502458000000000000
B0444373115811S11713918EA0238702457000000000000
B0444413115885S11713985EA0238802462000000000000
B0444453115958S11714044EA0239302466000000000000
B0444493116031S11714102EA0239502475000000000000
B0444533116100S11714148EA0241602500000000000000
B0444573116164S11714189EA0242802507000000000000
B0445013116231S11714235EA0241902488000000000000
B0445053116303S11714290EA0240602479000000000000
B0445093116374S11714349EA0240202475000000000000
B0445133116441S11714414EA0240302477000000000000
B0445173116502S11714481EA0240602479000000000000
B0445213116563S11714551EA0240902481000000000000
B0445253116621S11714623EA0240802478000000000000
B0445293116685S11714694EA0240302471000000000000
B0445333116749S11714774EA0239702464000000000000
B0445373116812S11714853EA0239002456000000000000
B0445413116875S11714932EA0238202449000000000000
B0445453116938S11715013EA0237502442000000000000
B0445493117001S11715092EA0237302441000000000000
B0445533117062S11715174EA0236402428000000000000
B0445573117123S11715253EA0235702426000000000000
B0446013117183S11715330EA0236302432000000000000
B0446053117244S11715403EA0236002424000000000000
B0446093117306S11715476EA0234602413000000000000
B0446133117369S11715551EA0233802402000000000000
B0446173117434S11715628EA0232802391000000000000
B0446213117499S11715702EA0232302390000000000000
B0446253117562S11715775EA0232102389000000000000
B0446293117627S11715849EA0231502377000000000000
B0446333117698S11715925EA0230002360000000000000
B0446373117770S11716003EA0228402342000000000000
B0446413117843S11716087EA0226802328000000000000
B0446453117912S11716170EA0225902315000000000000
B0446493117981S11716257EA0224902307000000000000
B0446533118047S11716343EA0224302304000000000000
B0446573118114S11716430EA0224002302000000000000
B0447013118181S11716516EA0223502294000000000000
B0447053118249S11716599EA0223502297000000000000
B0447093118316S11716682EA0223602299000000000000
B0447133118379S11716763EA0224002303000000000000
B0447173118443S11716841EA0224602312000000000000
B0447213118504S11716916EA0224902309000000000000
B0447253118567S11716995EA0223702298000000000000
B0447293118632S11717075EA0223002290000000000000
B0447333118697S11717155EA0222402288000000000000
B0447373118761S11717238EA0221702277000000000000
B0447413118825S11717320EA0221002270000000000000
B0447453118883S11717404EA0220602265000000000000
B0447493118942S11717484EA0220102260000000000000
B0447533119000S11717563EA0219502252000000000000
B0447573119063S11717639EA0218802246000000000000
B0448013119124S11717714EA0217902234000000000000
B0448053119189S11717791EA0216302216000000000000
B0448093119254S11717866EA0214902205000000000000
B0448133119319S11717940EA0214402201000000000000
B0448173119381S11718013EA0214102199000000000000
B0448213119446S11718085EA0213202182000000000000
B0448253119512S11718159EA0211402167000000000000
B0448293119579S11718232EA0210202154000000000000
B0448333119648S11718303EA0208702135000000000000
B0448373119718S11718379EA0207102122000000000000
B0448413119788S11718451EA0206102112000000000000
B0448453119860S11718524EA0204902099000000000000
B0448493119928S11718601EA0204102094000000000000
B0448533119991S11718680EA0204402101000000000000
B0448573120044S11718761EA0204302096000000000000
B0449013120099S11718841EA0203202078000000000000
B0449053120153S11718925EA0201502065000000000000
B0449093120208S11719008EA0200402052000000000000
B0449133120263S11719088EA0200002051000000000000
B0449173120317S11719168EA0199602050000000000000
B0449213120373S11719240EA0199602050000000000000
B0449253120428S11719316EA0199102039000000000000
B0449293120482S11719390EA0198902041000000000000
B0449333120534S11719463EA0198702035000000000000
B0449373120590S11719530EA0198102030000000000000
B0449413120645S11719598EA0198202035000000000000
B0449453120698S11719666EA0198302036000000000000
B0449493120751S11719733EA0199702053000000000000
B0449533120805S11719798EA0200202054000000000000
B0449573120861S11719871EA0199502042000000000000
B0450013120919S11719948EA0198302030000000000000
B0450053120979S11720026EA0197502023000000000000
B0450093121036S11720108EA0196602010000000000000
B0450133121095S11720187EA0196002012000000000000
B0450173121152S11720260EA0196902019000000000000
B0450213121208S11720331EA0197002019000000000000
B0450253121264S11720403EA0197002023000000000000
B0450293121321S11720472EA0197602024000000000000
B0450333121378S11720538EA0197402026000000000000
B0450373121435S11720604EA0197502023000000000000
B0450413121492S11720670EA0196502013000000000000
B0450453121550S11720737EA0195301999000000000000
B0450493121605S11720812EA0193801981000000000000
B0450533121661S11720890EA0192101964000000000000
B0450573121720S11720972EA0190501950000000000000
B0451013121773S11721054EA0190001952000000000000
B0451053121825S11721131EA0190001945000000000000
B0451093121878S11721210EA0189101939000000000000
B0451133121929S11721287EA0188801931000000000000
B0451173121981S11721362EA0187601923000000000000
B0451213122033S11721439EA0186601909000000000000
B0451253122084S11721515EA0185501896000000000000
B0451293122135S11721592EA0183901879000000000000
B0451333122188S11721671EA0182301861000000000000
B0451373122241S11721749EA0181201852000000000000
B0451413122297S11721822EA0180701851000000000000
B0451453122353S11721892EA0179201834000000000000
B0451493122409S11721968EA0177901820000000000000
B0451533122465S11722043EA0177401818000000000000
B0451573122514S11722116EA0176701805000000000000
B0452013122567S11722193EA0174601779000000000000
B0452053122626S11722275EA0171801751000000000000
B0452093122691S11722358EA0169301725000000000000
B0452133122756S11722445EA0167301706000000000000
B0452173122817S11722535EA0166501697000000000000
B0452213122874S11722623EA0165701690000000000000
B0452253122933S11722710EA0164301677000000000000
B0452293122993S11722795EA0163301668000000000000
B0452333123051S11722877EA0162401654000000000000
B0452373123113S11722957EA0160601635000000000000
B0452413123177S11723035EA0159601630000000000000
B0452453123238S11723112EA0158701619000000000000
B0452493123299S11723191EA0157501605000000000000
B0452533123358S11723273EA0156601598000000000000
B0452573123412S11723354EA0155901591000000000000
B0453013123467S11723434EA0154601573000000000000
B0453053123526S11723521EA0152001544000000000000
B0453093123587S11723610EA0150801530000000000000
B0453133123648S11723696EA0149201519000000000000
B0453173123708S11723781EA0148101508000000000000
B0453213123765S11723866EA0147401498000000000000
B0453253123823S11723946EA0146201484000000000000
B0453293123883S11724027EA0144501468000000000000
B0453333123945S11724105EA0143801460000000000000
B0453373124008S11724178EA0143401460000000000000
B0453413124069S11724243EA0143801466000000000000
B0453453124121S11724299EA0145201481000000000000
B0453493124170S11724355EA0145001473000000000000
B0453533124233S11724392EA0144601473000000000000
B0453573124298S11724413EA0145601490000000000000
B0454013124360S11724416EA0147601511000000000000
B0454053124390S11724357EA0149301527000000000000
B0454093124347S11724301EA0150601540000000000000
B0454133124285S11724316EA0151201546000000000000
B0454173124264S11724382EA0152201559000000000000
B0454213124300S11724435EA0152901563000000000000
B0454253124365S11724434EA0154001578000000000000
B0454293124399S11724372EA0156301601000000000000
B0454333124365S11724307EA0157501617000000000000
B0454373124299S11724307EA0158401625000000000000
B0454413124260S11724369EA0159501636000000000000
B0454453124280S11724439EA0160201642000000000000
B0454493124342S11724469EA0161101654000000000000
B0454533124394S11724425EA0163701683000000000000
B0454573124382S11724349EA0165501698000000000000
B0455013124321S11724320EA0166601713000000000000
B0455053124265S11724353EA0167901724000000000000
B0455093124252S11724422EA0168801733000000000000
B0455133124295S11724476EA0169601747000000000000
B0455173124358S11724479EA0171201763000000000000
B0455213124404S11724430EA0173201784000000000000
B0455253124402S11724356EA0175201806000000000000
B0455293124354S11724307EA0176701820000000000000
B0455333124291S11724314EA0177601826000000000000
B0455373124250S11724370EA0178401836000000000000
B0455413124256S11724443EA0179201845000000000000
B0455453124304S11724487EA0181101865000000000000
B0455493124356S11724455EA0183101885000000000000
B0455533124355S11724383EA0184301901000000000000
B0455573124304S11724339EA0185701915000000000000
B0456013124247S11724362EA0187101927000000000000
B0456053124222S11724427EA0188001934000000000000
B0456093124251S11724494EA0188901944000000000000
B0456133124311S11724512EA0190601965000000000000
B0456173124363S11724473EA0192001980000000000000
B0456213124372S11724398EA0193801996000000000000
B0456253124332S11724338EA0195802018000000000000
B0456293124270S11724329EA0197302031000000000000
B0456333124226S11724377EA0197802037000000000000
B0456373124230S11724450EA0198802048000000000000
B0456413124278S11724491EA0200102064000000000000
B0456453124338S11724477EA0201502075000000000000
B0456493124377S11724416EA0202702088000000000000
B0456533124368S11724338EA0204302106000000000000
B0456573124316S11724292EA0205702119000000000000
B0457013124256S11724308EA0206902130000000000000
B0457053124230S11724373EA0207402137000000000000
B0457093124257S11724434EA0208602149000000000000
B0457133124316S11724453EA0209602161000000000000
B0457173124373S11724418EA0210602170000000000000
B0457213124373S11724340EA0212002189000000000000
B0457253124317S11724301EA0213802205000000000000
B0457293124264S11724334EA0214802213000000000000
B0457333124251S11724404EA0215802223000000000000
B0457373124285S11724463EA0216802236000000000000
B0457413124345S11724469EA0217902244000000000000
B0457453124395S11724416EA0218102246000000000000
B0457493124402S11724331EA0219302262000000000000
B0457533124351S11724281EA0221302284000000000000
B0457573124294S11724301EA0222602295000000000000
B0458013124278S11724369EA0223502305000000000000
B0458053124316S11724425EA0224802319000000000000
B0458093124377S11724433EA0225802327000000000000
B0458133124426S11724382EA0226502336000000000000
B0458173124433S11724301EA0227702349000000000000
B0458213124387S11724245EA0229002366000000000000
B0458253124326S11724247EA0230402373000000000000
B0458293124298S11724309EA0230602373000000000000
B0458333124329S11724386EA0229602359000000000000
B0458373124386S11724465EA0228502349000000000000
B0458413124454S11724542EA0228502355000000000000
B0458453124524S11724620EA0228402351000000000000
B0458493124597S11724700EA0227602344000000000000
B0458533124672S11724784EA0227302343000000000000
B0458573124742S11724864EA0227702347000000000000
B0459013124810S11724949EA0227002335000000000000
B0459053124874S11725032EA0226202330000000000000
B0459093124936S11725115EA0226202326000000000000
B0459133124992S11725201EA0226102324000000000000
B0459173125048S11725284EA0225502318000000000000
B0459213125102S11725370EA0224402305000000000000
B0459253125158S11725457EA0222902288000000000000
B0459293125217S11725545EA0221302271000000000000
B0459333125275S11725635EA0220302264000000000000
B0459373125333S11725722EA0219202253000000000000
B0459413125388S11725807EA0218802249000000000000
B0459453125444S11725889EA0218302243000000000000
B0459493125499S11725969EA0217602234000000000000
B0459533125551S11726050EA0217602237000000000000
B0459573125603S11726129EA0217202233000000000000
B0500013125654S11726208EA0217402235000000000000
B0500053125704S11726284EA0218002244000000000000
B0500093125756S11726358EA0218502248000000000000
B0500133125807S11726428EA0218802250000000000000
B0500173125859S11726501EA0218402245000000000000
B0500213125912S11726578EA0218302247000000000000
B0500253125966S11726652EA0218902251000000000000
B0500293126019S11726725EA0218502243000000000000
B0500333126072S11726799EA0217702238000000000000
B0500373126124S11726871EA0217702240000000000000
B0500413126180S11726947EA0216702224000000000000
B0500453126241S11727025EA0215702218000000000000
B0500493126304S11727105EA0215102208000000000000
B0500533126363S11727189EA0214702209000000000000
B0500573126418S11727269EA0214802210000000000000
B0501013126469S11727352EA0214702207000000000000
B0501053126518S11727437EA0214402205000000000000
B0501093126568S11727519EA0214202203000000000000
B0501133126618S11727601EA0212902185000000000000
B0501173126670S11727688EA0211502172000000000000
B0501213126718S11727778EA0211302173000000000000
B0501253126769S11727861EA0211202173000000000000
B0501293126817S11727943EA0211002171000000000000
B0501333126863S11728025EA0211202176000000000000
B0501373126906S11728105EA0211402171000000000000
B0501413126947S11728192EA0210002155000000000000
B0501453126989S11728285EA0209202148000000000000
B0501493127030S11728377EA0208202134000000000000
B0501533127080S11728468EA0207902138000000000000
B0501573127125S11728552EA0208602145000000000000
B0502013127172S11728637EA0207302125000000000000
B0502053127223S11728721EA0206202114000000000000
B0502093127275S11728807EA0205202101000000000000
B0502133127325S11728889EA0204802106000000000000
B0502173127374S11728974EA0204302089000000000000
B0502213127423S11729063EA0203102083000000000000
B0502253127474S11729153EA0202502074000000000000
B0502293127528S11729241EA0201502062000000000000
B0502333127587S11729330EA0200302045000000000000
B0502373127649S11729419EA0198302028000000000000
B0502413127709S11729508EA0196702016000000000000
B0502453127767S11729595EA0196302009000000000000
B0502493127826S11729682EA0195502000000000000000
B0502533127886S11729768EA0195902015000000000000
B0502573127936S11729854EA0197802041000000000000
B0503013127982S11729933EA0200202060000000000000
B0503053128027S11730012EA0201802080000000000000
B0503093128073S11730090EA0202902083000000000000
B0503133128122S11730173EA0202202075000000000000
B0503173128176S11730259EA0201202058000000000000
B0503213128232S11730352EA0199202038000000000000
B0503253128289S11730449EA0197702026000000000000
B0503293128343S11730544EA0197002018000000000000
B0503333128397S11730640EA0196202012000000000000
B0503373128449S11730734EA0195702004000000000000
B0503413128503S11730830EA0194201990000000000000
B0503453128558S11730924EA0193401982000000000000
B0503493128612S11731017EA0192701976000000000000
B0503533128667S11731107EA0192101970000000000000
B0503573128722S11731195EA0191701965000000000000
B0504013128772S11731284EA0191001957000000000000
B0504053128823S11731371EA0190101948000000000000
B0504093128874S11731457EA0189001932000000000000
B0504133128924S11731545EA0187401918000000000000
B0504173128974S11731636EA0186801912000000000000
B0504213129023S11731726EA0185701899000000000000
B0504253129073S11731817EA0184801894000000000000
B0504293129123S11731904EA0184601891000000000000
B0504333129174S11731990EA0183701880000000000000
B0504373129225S11732077EA0182601869000000000000
B0504413129275S11732164EA0181701860000000000000
B0504453129327S11732250EA0180801849000000000000
B0504493129379S11732334EA0179501834000000000000
B0504533129428S11732420EA0178201822000000000000
B0504573129473S11732507EA0177501816000000000000
B0505013129517S11732589EA0176901806000000000000
B0505053129565S11732669EA0174901783000000000000
B0505093129613S11732754EA0173701775000000000000
B0505133129660S11732835EA0172501759000000000000
B0505173129707S11732918EA0170901747000000000000
B0505213129751S11733000EA0170101737000000000000
B0505253129797S11733083EA0168101710000000000000
B0505293129846S11733169EA0166301695000000000000
B0505333129890S11733257EA0165401685000000000000
B0505373129929S11733345EA0164101672000000000000
B0505413129971S11733434EA0162701657000000000000
B0505453130020S11733514EA0161301644000000000000
B0505493130074S11733590EA0160201631000000000000
B0505533130130S11733664EA0158601614000000000000
B0505573130195S11733728EA0157101599000000000000
B0506013130260S11733790EA0156101594000000000000
B0506053130323S11733846EA0156101595000000000000
B0506093130384S11733888EA0158001620000000000000
B0506133130444S11733923EA0159101628000000000000
B0506173130501S11733914EA0160601641000000000000
B0506213130507S11733846EA0160601641000000000000
B0506253130449S11733810EA0160801646000000000000
B0506293130384S11733832EA0161201650000000000000
B0506333130327S11733877EA0162001658000000000000
B0506373130301S11733947EA0161901650000000000000
B0506413130315S11734021EA0159901630000000000000
B0506453130358S11734089EA0157701599000000000000
B0506493130409S11734158EA0155201576000000000000
B0506533130469S11734226EA0153301567000000000000
B0506573130525S11734297EA0153001565000000000000
B0507013130581S11734370EA0153201570000000000000
B0507053130629S11734447EA0154001580000000000000
B0507093130665S11734526EA0155401593000000000000
B0507133130694S11734608EA0155601594000000000000
B0507173130731S11734688EA0155101587000000000000
B0507213130773S11734768EA0155401590000000000000
B0507253130813S11734847EA0155301586000000000000
B0507293130856S11734930EA0154101570000000000000
B0507333130900S11735013EA0153201566000000000000
B0507373130951S11735089EA0152901565000000000000
B0507413131006S11735162EA0153101567000000000000
B0507453131056S11735234EA0152901563000000000000
B0507493131107S11735314EA0152301558000000000000
B0507533131157S11735396EA0152001555000000000000
B0507573131209S11735475EA0152401567000000000000
B0508013131251S11735557EA0154101583000000000000
B0508053131289S11735637EA0155001591000000000000
B0508093131328S11735715EA0155801599000000000000
B0508133131366S11735793EA0156401605000000000000
B0508173131406S11735873EA0156201597000000000000
B0508213131452S11735951EA0155201586000000000000
B0508253131501S11736029EA0153701568000000000000
B0508293131549S11736113EA0151201541000000000000
B0508333131588S11736208EA0150601536000000000000
B0508373131621S11736302EA0149901525000000000000
B0508413131648S11736400EA0148201506000000000000
B0508453131675S11736504EA0146701491000000000000
B0508493131700S11736610EA0145201475000000000000
B0508533131719S11736718EA0143901461000000000000
B0508573131734S11736822EA0144301470000000000000
B0509013131744S11736922EA0144701475000000000000
B0509053131752S11737018EA0145501485000000000000
B0509093131757S11737110EA0146001493000000000000
B0509133131766S11737199EA0147801517000000000000
B0509173131817S11737227EA0150801547000000000000
B0509213131844S11737174EA0152201558000000000000
B0509253131808S11737122EA0153801577000000000000
B0509293131747S11737130EA0154901587000000000000
B0509333131713S11737190EA0156101599000000000000
B0509373131732S11737258EA0157201609000000000000
B0509413131790S11737288EA0157401609000000000000
B0509453131849S11737264EA0158301622000000000000
B0509493131878S11737203EA0159601635000000000000
B0509533131860S11737134EA0160501645000000000000
B0509573131803S11737100EA0161501656000000000000
B0510013131740S11737117EA0162701671000000000000
B0510053131706S11737174EA0164301684000000000000
B0510093131735S11737235EA0165301695000000000000
B0510133131794S11737239EA0166301705000000000000
B0510173131830S11737186EA0167601717000000000000
B0510213131808S11737119EA0168701728000000000000
B0510253131745S11737097EA0169301739000000000000
B0510293131690S11737135EA0170701754000000000000
B0510333131675S11737204EA0171801765000000000000
B0510373131709S11737265EA0172601769000000000000
B0510413131771S11737284EA0172801772000000000000
B0510453131835S11737257EA0173401780000000000000
B0510493131865S11737192EA0174901798000000000000
B0510533131838S11737126EA0175401800000000000000
B0510573131777S11737095EA0176301810000000000000
B0511013131710S11737100EA0176901817000000000000
B0511053131653S11737143EA0177901830000000000000
B0511093131631S11737213EA0179101843000000000000
B0511133131660S11737283EA0179501844000000000000
B0511173131703S11737355EA0177601817000000015000
B0511213131734S11737453EA0175701804000000000000
B0511253131753S11737552EA0176001810000000000000
B0511293131774S11737650EA0176201811000000000000
B0511333131794S11737749EA0175901807000000000000
B0511373131812S11737849EA0174501787000000000000
B0511413131834S11737953EA0173101775000000000000
B0511453131857S11738055EA0172501766000000000000
B0511493131883S11738157EA0171501756000000000000
B0511533131912S11738258EA0170401741000000000000
B0511573131943S11738358EA0169001729000000000000
B0512013131978S11738454EA0168001722000000000000
B0512053132013S11738549EA0166801706000000000000
B0512093132050S11738642EA0166001698000000000000
B0512133132091S11738729EA0165001690000000000000
B0512173132133S11738812EA0164601685000000000000
B0512213132174S11738895EA0163701672000000000000
B0512253132219S11738978EA0162501659000000000000
B0512293132264S11739062EA0162101656000000000000
B0512333132304S11739147EA0162201659000000000000
B0512373132347S11739225EA0162101655000000000000
B0512413132388S11739305EA0161801653000000000000
B0512453132431S11739376EA0162401662000000000000
B0512493132473S11739444EA0162701662000000000000
B0512533132516S11739511EA0163001668000000000000
B0512573132553S11739584EA0163701676000000000000
B0513013132596S11739649EA0164801691000000000000
B0513053132650S11739641EA0167101717000000000000
B0513093132649S11739580EA0168901733000000000000
B0513133132592S11739556EA0170401748000000000000
B0513173132541S11739608EA0171501756000000000000
B0513213132555S11739680EA0172501768000000000000
B0513253132611S11739686EA0174101786000000000000
B0513293132629S11739626EA0176001805000000000000
B0513333132587S11739580EA0177401818000000000000
B0513373132518S11739604EA0178801835000000000000
B0513413132485S11739671EA0180601852000000000000
B0513453132509S11739736EA0181601870000000000000
B0513493132561S11739749EA0183901896000000000000
B0513533132596S11739705EA0185901909000000000000
B0513573132577S11739643EA0187201927000000000000
B0514013132516S11739630EA0188901944000000000000
B0514053132466S11739683EA0190601963000000000000
B0514093132467S11739758EA0192401980000000000000
B0514133132515S11739801EA0194301999000000000000
B0514173132567S11739779EA0196202018000000000000
B0514213132564S11739714EA0198102036000000000000
B0514253132505S11739684EA0199202051000000000000
B0514293132444S11739725EA0200402066000000000000
B0514333132428S11739801EA0202402090000000000000
B0514373132460S11739858EA0204002099000000000000
B0514413132520S11739870EA0204702107000000000000
B0514453132574S11739830EA0206102126000000000000
B0514493132571S11739761EA0208402148000000000000
B0514533132510S11739744EA0209802161000000000000
B0514573132460S11739803EA0211402179000000000000
B0515013132471S11739879EA0213302200000000000000
B0515053132525S11739913EA0214402207000000000000
B0515093132584S11739879EA0215402221000000000000
B0515133132588S11739809EA0217502250000000000000
B0515173132540S11739769EA0220002275000000000000
B0515213132476S11739796EA0221702287000000000000
B0515253132450S11739874EA0222902305000000000000
B0515293132477S11739946EA0224902322000000000000
B0515333132538S11739978EA0225802328000000000000
B0515373132603S11739952EA0226402338000000000000
B0515413132635S11739882EA0228502365000000000000
B0515453132613S11739809EA0230702384000000000000
B0515493132554S11739779EA0233302413000000000000
B0515533132493S11739808EA0235202426000000000000
B0515573132453S11739879EA0235902441000000000000
B0516013132449S11739962EA0237802461000000000000
B0516053132479S11740026EA0239702481000000000000
B0516093132537S11740047EA0241402490000000000000
B0516133132597S11740009EA0241602491000000000000
B0516173132623S11739929EA0242502507000000000000
B0516213132597S11739849EA0245202534000000000000
B0516253132537S11739826EA0248202569000000000000
B0516293132481S11739861EA0250502587000000000000
B0516333132455S11739936EA0251702599000000000000
B0516373132477S11740013EA0252602614000000000000
B0516413132536S11740047EA0254502632000000000000
B0516453132600S11740027EA0255702643000000000000
B0516493132636S11739965EA0257102659000000000000
B0516533132626S11739890EA0259402685000000000000
B0516573132575S11739853EA0261602706000000000000
B0517013132518S11739878EA0263602724000000000000
B0517053132492S11739948EA0265002738000000000000
B0517093132518S11740014EA0266702756000000000000
B0517133132579S11740035EA0267702769000000000000
B0517173132636S11739999EA0268602777000000000000
B0517213132641S11739922EA0270002795000000000000
B0517253132592S11739873EA0272102818000000000000
B0517293132533S11739887EA0274302837000000000000
B0517333132507S11739953EA0275902851000000000000
B0517373132536S11740021EA0277202864000000000000
B0517413132600S11740042EA0278502879000000000000
B0517453132655S11740001EA0280102894000000000000
B0517493132665S11739927EA0282102914000000000000
B0517533132622S11739878EA0283302928000000000000
B0517573132563S11739899EA0284602942000000000000
B0518013132546S11739970EA0286302959000000000000
B0518053132572S11740047EA0286402953000000000000
B0518093132624S11740125EA0286002943000000000000
B0518133132689S11740204EA0286702959000000000000
B0518173132753S11740280EA0288502976000000000000
B0518213132819S11740359EA0288202965000000000000
B0518253132889S11740445EA0287402959000000000000
B0518293132960S11740533EA0287902972000000000000
B0518333133030S11740618EA0288802975000000000000
B0518373133103S11740702EA0288802974000000000000
B0518413133174S11740784EA0289202984000000000000
B0518453133246S11740865EA0289002972000000000000
B0518493133322S11740950EA0287602958000000000000
B0518533133394S11741036EA0288702981000000000000
B0518573133458S11741116EA0290703000000000000000
B0519013133523S11741194EA0290802995000000000000
B0519053133588S11741275EA0291303002000000000000
B0519093133651S11741356EA0291503002000000000000
B0519133133718S11741441EA0291503000000000000000
B0519173133784S11741524EA0291202999000000000000
B0519213133849S11741610EA0290702987000000000000
B0519253133920S11741699EA0288702966000000000000
B0519293133994S11741790EA0288102963000000000000
B0519333134066S11741879EA0287702962000000000000
B0519373134139S11741966EA0286802949000000000000
B0519413134210S11742053EA0285702938000000000000
B0519453134283S11742140EA0284202920000000000000
B0519493134358S11742227EA0283102912000000000000
B0519533134431S11742310EA0282602902000000000000
B0519573134505S11742396EA0281602895000000000000
B0520013134578S11742483EA0280502884000000000000
B0520053134650S11742570EA0279702878000000000000
B0520093134721S11742656EA0279502878000000000000
B0520133134790S11742741EA0279202876000000000000
B0520173134856S11742821EA0279402878000000000000
B0520213134921S11742900EA0279102874000000000000
B0520253134982S11742980EA0278902874000000000000
B0520293135044S11743056EA0278902872000000000000
B0520333135105S11743133EA0278602870000000000000
B0520373135164S11743203EA0278802872000000000000
B0520413135227S11743271EA0279002874000000000000
B0520453135289S11743340EA0278802872000000000000
B0520493135352S11743414EA0278402866000000000000
B0520533135413S11743488EA0278202865000000000000
B0520573135475S11743563EA0277702852000000000000
B0521013135538S11743636EA0276902849000000000000
B0521053135599S11743706EA0276502849000000000000
B0521093135658S11743774EA0277102856000000000000
B0521133135712S11743839EA0278502873000000000000
B0521173135765S11743904EA0278502865000000000000
B0521213135825S11743973EA0277502855000000000000
B0521253135887S11744046EA0276502844000000000000
B0521293135950S11744124EA0275202831000000000000
B0521333136015S11744204EA0274302819000000000000
B0521373136080S11744282EA0274402823000000000000
B0521413136143S11744362EA0274502825000000000000
B0521453136206S11744444EA0274302823000000000000
B0521493136268S11744524EA0274302821000000000000
B0521533136331S11744603EA0273302807000000000000
B0521573136393S11744685EA0272202796000000000000
B0522013136454S11744766EA0271502790000000000000
B0522053136516S11744847EA0270502782000000000000
B0522093136580S11744926EA0269602770000000000000
B0522133136645S11745005EA0268602760000000000000
B0522173136709S11745087EA0267802753000000000000
B0522213136773S11745173EA0267102748000000000000
B0522253136835S11745257EA0267302751000000000000
B0522293136897S11745342EA0267702760000000000000
B0522333136958S11745422EA0269302778000000000000
B0522373137020S11745500EA0270002778000000000000
B0522413137079S11745580EA0269402774000000000000
B0522453137140S11745659EA0268902768000000000000
B0522493137203S11745736EA0268102756000000000000
B0522533137268S11745819EA0266702737000000000000
B0522573137332S11745905EA0265102726000000000000
B0523013137394S11745988EA0264702719000000000000
B0523053137454S11746076EA0263602710000000000000
B0523093137510S11746166EA0262902703000000000000
B0523133137567S11746253EA0262302698000000000000
B0523173137624S11746338EA0261402688000000000000
B0523213137681S11746425EA0260502680000000000000
B0523253137736S11746514EA0260002676000000000000
B0523293137788S11746600EA0260002680000000000000
B0523333137840S11746686EA0259702672000000000000
B0523373137893S11746776EA0258502659000000000000
B0523413137948S11746868EA0257602651000000000000
B0523453138001S11746960EA0256802641000000000000
B0523493138056S11747051EA0255902634000000000000
B0523533138108S11747144EA0255302626000000000000
B0523573138158S11747237EA0254502618000000000000
B0524013138208S11747332EA0253702609000000000000
B0524053138256S11747430EA0252702599000000000000
B0524093138305S11747526EA0252002591000000000000
B0524133138353S11747619EA0251702591000000000000
B0524173138399S11747713EA0251402588000000000000
B0524213138443S11747805EA0250902581000000000000
B0524253138491S11747899EA0250402574000000000000
B0524293138539S11747993EA0249602566000000000000
B0524333138589S11748089EA0248602556000000000000
B0524373138639S11748186EA0247902548000000000000
B0524413138691S11748284EA0247302541000000000000
B0524453138743S11748381EA0246602536000000000000
B0524493138795S11748479EA0246002526000000000000
B0524533138849S11748575EA0245002516000000000000
B0524573138903S11748670EA0243902505000000000000
B0525013138958S11748762EA0243002499000000000000
B0525053139010S11748853EA0241802483000000000000
B0525093139062S11748944EA0240402469000000000000
B0525133139115S11749034EA0238802456000000000000
B0525173139167S11749122EA0238102448000000000000
B0525213139219S11749211EA0237402445000000000000
B0525253139270S11749296EA0237602443000000000000
B0525293139324S11749378EA0237302444000000000000
B0525333139380S11749459EA0236702433000000000000
B0525373139440S11749541EA0234802409000000000000
B0525413139501S11749629EA0233402398000000000000
B0525453139557S11749715EA0233102399000000000000
B0525493139612S11749798EA0232902397000000000000
B0525533139666S11749880EA0231202379000000000000
B0525573139724S11749963EA0229702370000000000000
B0526013139778S11750045EA0229002361000000000000
B0526053139828S11750134EA0227602341000000000000
B0526093139876S11750226EA0225802323000000000000
B0526133139920S11750322EA0224402311000000000000
B0526173139963S11750414EA0223402299000000000000
B0526213140006S11750508EA0221802281000000000000
B0526253140051S11750602EA0220702275000000000000
B0526293140097S11750691EA0220802276000000000000
B0526333140140S11750778EA0221202283000000000000
B0526373140182S11750864EA0222302298000000000000
B0526413140220S11750945EA0224602324000000000000
B0526453140257S11751023EA0226602342000000000000
B0526493140296S11751101EA0228002356000000000000
B0526533140337S11751180EA0228602362000000000000
B0526573140381S11751259EA0229102366000000000000
B0527013140423S11751341EA0229002362000000000000
B0527053140462S11751425EA0227902348000000000000
B0527093140502S11751508EA0226602326000000000000
B0527133140546S11751595EA0223902298000000000000
B0527173140592S11751685EA0222102283000000000000
B0527213140634S11751774EA0221002273000000000000
B0527253140678S11751864EA0220302267000000000000
B0527293140722S11751952EA0220602275000000000000
B0527333140761S11752034EA0221702288000000000000
B0527373140786S11752117EA0222602302000000000000
B0527413140790S11752198EA0224502319000000000000
B0527453140797S11752268EA0226602341000000000000
B0527493140848S11752284EA0228602357000000000000
B0527533140868S11752219EA0229702374000000000000
B0527573140823S11752160EA0231202388000000000000
B0528013140757S11752163EA0231802395000000000000
B0528053140726S11752221EA0232902404000000000000
B0528093140751S11752279EA0233902414000000000000
B0528133140804S11752289EA0235302429000000000000
B0528173140835S11752229EA0236102435000000000000
B0528213140796S11752164EA0237102445000000000000
B0528253140726S11752168EA0237802454000000000000
B0528293140689S11752228EA0238902468000000000000
B0528333140702S11752293EA0240302482000000000000
B0528373140754S11752322EA0241002483000000000000
B0528413140797S11752271EA0242002498000000000000
B0528453140779S11752199EA0242702500000000000000
B0528493140712S11752179EA0243002508000000000000
B0528533140647S11752208EA0244002517000000000000
B0528573140619S11752283EA0243902513000000000000
B0529013140636S11752370EA0243502511000000000000
B0529053140679S11752453EA0243602514000000000000
B0529093140730S11752531EA0244102518000000000000
