ACAM4N6
HFDTE111221
HFFXA050
HFPLTPILOT:JOHN WELSH              
HFGTYGLIDERTYPE:HORNET      
HFGIDGLIDERID:VH-GMY      
HFDTM100GPSDATUM:
HFRFWFIRMWAREVERSION:F2.6
HFRHWHARDWAREVERSION:300 Series Version 2
HFFTYFRTYPE:CAMBRIDGE AERO INSTRUMENTS, 302+
HFGPS:GARMIN,LVS-25,12,18000
HFPRSPRESSALTSENSOR:INTERSEMA, MS5534-AP, 20000
I033638FXA3941ENL4247REX
LCAMSBVER:5FWVER:F26300
C051221030001051221000103
C0000000N00000000WTAKEOFF     
C3207547S11656879EBeverley Air
C3111282S11701799EDowerin     
C3203749S11824249ENarembeen   
C3256165S11710679ENarrogin Sil
C3207547S11656879EBeverley Air
C0000000N00000000WLANDING     
B0514413207341S11656861EA0022500202000000000000
B0514433207341S11656861EA0022500202000000000000
B0514453207341S11656861EA0022500202000000000000
B0514473207341S11656861EA0022500202000004000000
B0514493207341S11656861EA0022600202000000000000
B0514513207341S11656861EA0022500202000000000000
B0514533207341S11656861EA0022500202000000000000
B0514553207341S11656861EA0022600202000000000000
B0514573207341S11656861EA0022500202000000000000
B0514593207341S11656861EA0022500202000000000000
B0515013207341S11656861EA0022600202000000000000
B0515033207341S11656861EA0022500202000000000000
B0515053207341S11656860EA0022600202000000000000
B0515073207341S11656861EA0022600202000000000000
B0515093207342S11656861EA0022600202000000000000
B0515123207351S11656869EA0022700202000000000000
B0515163207377S11656890EA0022600201000000000000
B0515203207419S11656918EA0022600201000000000000
B0515243207475S11656956EA0023000202000000000000
B0515283207540S11656999EA0023000203000000000000
B0515323207611S11657042EA0023300208000004000000
B0515363207681S11657085EA0024300218000004000000
B0515403207749S11657124EA0025600236000004000000
B0515443207818S11657160EA0027500258000004000000
B0515483207884S11657194EA0029200283000004000000
B0515523207945S11657228EA0031600308000004000000
B0515563208002S11657261EA0033500322000000000000
B0516003208056S11657309EA0034600337000004000000
B0516043208086S11657393EA0036100347000004000000
B0516083208086S11657490EA0036800357000000000000
B0516123208052S11657586EA0038200371000000000000
B0516163207987S11657658EA0040400395000004000000
B0516203207904S11657690EA0042500419000000000000
B0516243207819S11657673EA0045000441000004000000
B0516283207754S11657621EA0047100461000004000000
B0516323207709S11657554EA0049500488000004000000
B0516363207680S11657485EA0051500521000004000000
B0516403207664S11657413EA0054100544000004000000
B0516443207674S11657339EA0055900562000004000000
B0516483207723S11657295EA0057900579000000000000
B0516523207787S11657293EA0059600600000004000000
B0516563207845S11657328EA0061700624000000000000
B0517003207887S11657395EA0063900648000004000000
B0517043207904S11657485EA0065700659000004000000
B0517083207883S11657581EA0066800680000004000000
B0517123207830S11657653EA0069600708000004000000
B0517163207762S11657696EA0072000730000004000000
B0517203207684S11657709EA0074100750000004000000
B0517243207609S11657688EA0075800764000000000000
B0517283207545S11657638EA0076600770000000000000
B0517323207499S11657567EA0077400782000004000000
B0517363207489S11657488EA0079300804000000000000
B0517403207499S11657412EA0081000810000004000000
B0517443207462S11657356EA0081300815000004000000
B0517483207402S11657385EA0081800818000004015000
B0517523207389S11657459EA0081400810000004015000
B0517563207423S11657514EA0081400813000000015000
B0518003207473S11657519EA0081700814000000015000
B0518043207512S11657484EA0081600811000004015000
B0518083207506S11657426EA0081600816000000015000
B0518123207453S11657400EA0082500828000004015000
B0518163207407S11657446EA0083500836000004015000
B0518203207415S11657514EA0083500829000004015000
B0518243207466S11657537EA0082800825000004015000
B0518283207511S11657512EA0083000829000004015000
B0518323207519S11657459EA0083500834000000015000
B0518363207476S11657416EA0084100840000000015000
B0518403207414S11657438EA0085000856000000015000
B0518443207411S11657511EA0086500867000000015000
B0518483207460S11657543EA0086700863000000015000
B0518523207501S11657506EA0086700867000000015000
B0518563207492S11657443EA0087400877000000015000
B0519003207434S11657434EA0089300901000000015000
B0519043207399S11657493EA0090800911000000015000
B0519083207423S11657556EA0091700916000000015000
B0519123207472S11657556EA0092400927000000015000
B0519163207477S11657504EA0093400935000000015000
B0519203207425S11657480EA0094300946000000015000
B0519243207380S11657529EA0095500958000000015000
B0519283207398S11657595EA0096800972000000015000
B0519323207446S11657607EA0097600980000000015000
B0519363207466S11657562EA0098500987000000015000
B0519403207428S11657521EA0099501003000000015000
B0519443207375S11657543EA0100801011000000015000
B0519483207360S11657614EA0101501020000000015000
B0519523207403S11657654EA0102401029000000015000
B0519563207436S11657621EA0103601042000000015000
B0520003207411S11657575EA0104701054000000015000
B0520043207354S11657581EA0105601060000000015000
B0520083207326S11657651EA0106201068000004015000
B0520123207362S11657706EA0107201078000000015000
B0520163207406S11657690EA0108001087000000015000
B0520203207399S11657637EA0108801094000000015000
B0520243207345S11657621EA0110001102000004015000
B0520283207298S11657679EA0110201106000004015000
B0520323207316S11657749EA0111501121000000015000
B0520363207365S11657758EA0112101128000000015000
B0520403207386S11657710EA0112901136000000015000
B0520443207352S11657666EA0114001148000000015000
B0520483207293S11657671EA0114801156000000015000
B0520523207256S11657733EA0115701163000000015000
B0520563207277S11657801EA0116301168000000015000
B0521003207330S11657803EA0116501171000000030000
B0521043207346S11657746EA0117401185000000015000
B0521083207310S11657697EA0118501194000000015000
B0521123207243S11657696EA0119401203000000015000
B0521163207195S11657757EA0119701210000004015000
B0521203207195S11657839EA0120901222000004015000
B0521243207239S11657891EA0121301218000000015000
B0521283207298S11657884EA0121001219000004030000
B0521323207303S11657823EA0122101238000000030000
B0521363207245S11657805EA0124101255000000015000
B0521403207198S11657854EA0125201266000000015000
B0521443207206S11657926EA0125801265000000015000
B0521483207254S11657950EA0125701265000004030000
B0521523207291S11657911EA0125901268000004015000
B0521563207287S11657850EA0127301275000004015000
B0522003207237S11657822EA0128701289000004015000
B0522043207181S11657862EA0129901302000004015000
B0522083207176S11657937EA0130601309000000015000
B0522123207220S11657979EA0131201315000000030000
B0522163207263S11657950EA0131801321000000030000
B0522203207243S11657894EA0132801335000000030000
B0522243207182S11657889EA0133701348000000015000
B0522283207138S11657944EA0134701357000000015000
B0522323207144S11658018EA0135201360000000015000
B0522363207193S11658050EA0135601364000000030000
B0522403207241S11658030EA0135801366000000030000
B0522443207246S11657971EA0136801376000004015000
B0522483207191S11657952EA0138201394000004015000
B0522523207147S11658005EA0139501409000004015000
B0522563207159S11658075EA0140501416000004015000
B0523003207206S11658104EA0141001419000004030000
B0523043207246S11658073EA0141401428000000030000
B0523083207247S11658011EA0141901432000000015000
B0523123207195S11657978EA0142501441000000015000
B0523163207147S11658027EA0143801456000000015000
B0523203207161S11658097EA0145301472000000015000
B0523243207209S11658106EA0146701485000000030000
B0523283207224S11658056EA0147601486000000015000
B0523323207185S11658021EA0148201493000000015000
B0523363207134S11658056EA0148901499000004015000
B0523403207141S11658132EA0149801514000004015000
B0523443207191S11658160EA0151501530000004015000
B0523483207222S11658118EA0152101531000000015000
B0523523207196S11658065EA0152301536000004015000
B0523563207138S11658075EA0153101546000000015000
B0524003207108S11658141EA0154001562000000015000
B0524043207131S11658209EA0155401572000004015000
B0524083207180S11658209EA0156501584000004030000
B0524123207185S11658158EA0157201585000004015000
B0524163207133S11658131EA0157201590000004015000
B0524203207083S11658175EA0158201604000004015000
B0524243207087S11658249EA0159101608000004015000
B0524283207139S11658278EA0159501611000004015000
B0524323207160S11658229EA0160201623000004030000
B0524363207111S11658199EA0161201628000000030000
B0524403207059S11658248EA0161801636000000015000
B0524443207068S11658325EA0162001633000000015000
B0524483207124S11658356EA0161801636000000030000
B0524523207174S11658334EA0162901649000000030000
B0524563207172S11658278EA0164001653000000030000
B0525003207116S11658262EA0164301660000000015000
B0525043207081S11658326EA0165001667000004015000
B0525083207117S11658388EA0165501668000004015000
B0525123207172S11658375EA0165701676000004030000
B0525163207182S11658316EA0166401684000004015000
B0525203207147S11658270EA0167401689000000015000
B0525243207092S11658269EA0168101695000004015000
B0525283207046S11658321EA0168101691000004015000
B0525323207024S11658400EA0167401683000000015000
B0525363207042S11658485EA0166501674000004015000
B0525403207085S11658565EA0165401668000000015000
B0525443207135S11658642EA0165501676000000015000
B0525483207186S11658717EA0166201675000000000000
B0525523207242S11658790EA0165201665000004000000
B0525563207300S11658863EA0164501659000000000000
B0526003207359S11658934EA0163701652000000000000
B0526043207417S11659003EA0163501654000000000000
B0526083207471S11659068EA0163801656000000000000
B0526123207523S11659131EA0163901656000000000000
B0526163207575S11659192EA0163701653000004000000
B0526203207628S11659253EA0163601652000004000000
B0526243207680S11659314EA0163301651000004000000
B0526283207732S11659375EA0163401652000004000000
B0526323207781S11659436EA0163701655000004000000
B0526363207832S11659497EA0163801655000004000000
B0526403207883S11659560EA0163501650000004000000
B0526443207935S11659625EA0163001646000004000000
B0526483207989S11659691EA0162501641000004000000
B0526523208048S11659752EA0162201638000000000000
B0526563208109S11659805EA0162001637000000000000
B0527003208165S11659868EA0162001638000000000000
B0527043208199S11659950EA0162201638000000000000
B0527083208220S11700038EA0161701633000004000000
B0527123208242S11700128EA0160601618000004000000
B0527163208272S11700219EA0159201605000004000000
B0527203208303S11700307EA0158801605000004000000
B0527243208335S11700393EA0158901606000004000000
B0527283208368S11700474EA0158801602000004000000
B0527323208400S11700557EA0157801590000004000000
B0527363208434S11700640EA0157101585000004000000
B0527403208472S11700719EA0157401594000004000000
B0527443208506S11700796EA0157801594000000000000
B0527483208541S11700873EA0157001583000000000000
B0527523208577S11700951EA0156601582000000000000
B0527563208612S11701027EA0156901587000000000000
B0528003208646S11701102EA0156901584000000000000
B0528043208681S11701174EA0156701582000000000000
B0528083208719S11701246EA0156101575000004000000
B0528123208758S11701319EA0155701575000000000000
B0528163208797S11701390EA0156301583000000000000
B0528203208834S11701456EA0156701584000004000000
B0528243208875S11701520EA0156701584000000000000
B0528283208918S11701580EA0156101573000004000000
B0528323208966S11701640EA0155401571000004000000
B0528363209014S11701697EA0156101580000004000000
B0528403209067S11701749EA0156601585000004000000
B0528443209127S11701755EA0157101584000004000000
B0528483209157S11701701EA0156701585000000000000
B0528523209139S11701636EA0157201588000000000000
B0528563209083S11701605EA0157801599000000015000
B0529003209016S11701632EA0158901609000000015000
B0529043208983S11701703EA0160401627000000015000
B0529083209005S11701767EA0161501632000000015000
B0529123209054S11701791EA0161601631000004015000
B0529163209092S11701762EA0161201628000004015000
B0529203209084S11701705EA0160801625000000015000
B0529243209026S11701685EA0161001632000000015000
B0529283208971S11701732EA0161701639000000015000
B0529323208948S11701811EA0162201639000000015000
B0529363208970S11701885EA0162501644000000030000
B0529403209018S11701939EA0161901635000004030000
B0529443209072S11701988EA0161801640000004015000
B0529483209124S11702040EA0162601647000004015000
B0529523209176S11702095EA0162701644000000015000
B0529563209228S11702155EA0162001637000000015000
B0530003209280S11702214EA0161901638000000015000
B0530043209335S11702273EA0162201641000000000000
B0530083209391S11702329EA0162101637000000000000
B0530123209455S11702370EA0162201639000000000000
B0530163209512S11702350EA0162501646000000000000
B0530203209527S11702285EA0163301648000000015000
B0530243209483S11702226EA0163501653000000015000
B0530283209406S11702225EA0163701652000000015000
B0530323209335S11702266EA0163401649000000015000
B0530363209267S11702316EA0163601654000000000000
B0530403209208S11702370EA0164401658000000000000
B0530443209163S11702439EA0164101653000004000000
B0530483209159S11702528EA0163401651000004015000
B0530523209192S11702599EA0163401655000004015000
B0530563209240S11702646EA0163601656000004015000
B0531003209296S11702659EA0164201664000000015000
B0531043209353S11702658EA0164501663000000015000
B0531083209410S11702649EA0163801654000000015000
B0531123209470S11702637EA0162701641000000000000
B0531163209535S11702637EA0162501646000000000000
B0531203209595S11702629EA0164601669000000000000
B0531243209620S11702576EA0166101685000000000000
B0531283209587S11702517EA0166801682000000015000
B0531323209525S11702498EA0166501671000000015000
B0531363209460S11702537EA0165701666000000015000
B0531403209423S11702613EA0165501665000000015000
B0531443209432S11702698EA0165301665000000015000
B0531483209477S11702759EA0165901676000004015000
B0531523209530S11702771EA0167701699000004015000
B0531563209542S11702719EA0169801716000000015000
B0532003209495S11702677EA0170701723000000015000
B0532043209426S11702697EA0171701734000000015000
B0532083209390S11702767EA0172901747000000015000
B0532123209404S11702836EA0174201759000000015000
B0532163209451S11702864EA0174901768000000030000
B0532203209488S11702841EA0176401777000000030000
B0532243209501S11702795EA0178101800000004015000
B0532283209488S11702742EA0179101804000004015000
B0532323209457S11702686EA0179601807000004015000
B0532363209419S11702629EA0178501796000004015000
B0532403209388S11702558EA0177201780000004015000
B0532443209399S11702477EA0176401774000004015000
B0532483209436S11702404EA0175801765000000015000
B0532523209501S11702353EA0175201763000004015000
B0532563209577S11702322EA0174501750000000000000
B0533003209661S11702304EA0172701732000000000000
B0533043209746S11702292EA0172001730000000000000
B0533083209830S11702286EA0172001727000000000000
B0533123209913S11702278EA0171601724000004000000
B0533163209995S11702269EA0171201720000000000000
B0533203210077S11702257EA0170701714000000000000
B0533243210157S11702251EA0170101715000004000000
B0533283210235S11702253EA0170401716000000000000
B0533323210311S11702261EA0170301714000000000000
B0533363210388S11702265EA0169601706000004000000
B0533403210469S11702261EA0168601697000004000000
B0533443210549S11702251EA0168401698000004000000
B0533483210627S11702238EA0168701703000004000000
B0533523210700S11702221EA0169201707000004000000
B0533563210770S11702203EA0169201703000000000000
B0534003210840S11702183EA0168601700000000000000
B0534043210912S11702171EA0168501698000004000000
B0534083210983S11702164EA0168301697000000000000
B0534123211054S11702157EA0168301696000000000000
B0534163211122S11702148EA0168101695000000000000
B0534203211190S11702135EA0167901693000000000000
B0534243211255S11702116EA0167801687000000000000
B0534283211319S11702093EA0166901677000000000000
B0534323211385S11702067EA0166101673000000000000
B0534363211450S11702043EA0165901670000000000000
B0534403211515S11702023EA0165501665000004000000
B0534443211579S11702002EA0165301663000000000000
B0534483211641S11701983EA0165301665000000000000
B0534523211704S11701970EA0165901673000004000000
B0534563211763S11701956EA0166401677000000000000
B0535003211822S11701941EA0166101672000000000000
B0535043211884S11701932EA0165801671000004000000
B0535083211947S11701924EA0166101676000004000000
B0535123212009S11701919EA0166301675000004000000
B0535163212073S11701919EA0165901668000004000000
B0535203212139S11701915EA0165601666000004000000
B0535243212207S11701910EA0165301663000000000000
B0535283212277S11701909EA0164801656000000000000
B0535323212348S11701906EA0164101650000000000000
B0535363212421S11701904EA0163601645000000000000
B0535403212495S11701904EA0163101641000004000000
B0535443212571S11701908EA0162601635000004000000
B0535483212646S11701913EA0161901627000004000000
B0535523212721S11701918EA0160801616000004000000
B0535563212798S11701924EA0160201611000004000000
B0536003212874S11701927EA0159401603000004000000
B0536043212949S11701927EA0158701594000004000000
B0536083213024S11701922EA0157601582000000000000
B0536123213098S11701900EA0156601573000004000000
B0536163213167S11701861EA0155901568000004000000
B0536203213228S11701810EA0155401564000004000000
B0536243213283S11701754EA0155401565000004000000
B0536283213330S11701694EA0155701570000004000000
B0536323213365S11701631EA0155701565000004000000
B0536363213397S11701566EA0154901558000000000000
B0536403213430S11701503EA0154001547000000000000
B0536443213461S11701437EA0152401530000000000000
B0536483213494S11701365EA0151501519000000000000
B0536523213526S11701295EA0150701516000000000000
B0536563213557S11701225EA0150301510000000000000
B0537003213579S11701152EA0150201514000000000000
B0537043213611S11701091EA0151101524000000000000
B0537083213641S11701033EA0151301521000000000000
B0537123213663S11700975EA0151501529000000000000
B0537163213680S11700920EA0152701542000000000000
B0537203213696S11700868EA0153101542000000000000
B0537243213706S11700808EA0153201544000000000000
B0537283213715S11700749EA0153801557000000000000
B0537323213709S11700693EA0155101566000004000000
B0537363213661S11700675EA0155401566000004000000
B0537403213612S11700727EA0155101560000004000000
B0537443213612S11700809EA0155001566000004015000
B0537483213643S11700882EA0155101565000004015000
B0537523213683S11700946EA0155501571000000015000
B0537563213738S11700962EA0156001575000000015000
B0538003213760S11700917EA0156901582000000015000
B0538043213719S11700873EA0157401588000000015000
B0538083213655S11700907EA0158201594000000015000
B0538123213648S11700988EA0158801602000004015000
B0538163213693S11701038EA0159601607000004030000
B0538203213738S11701020EA0160001612000000030000
B0538243213748S11700964EA0160501613000000015000
B0538283213707S11700916EA0161201627000000015000
B0538323213644S11700931EA0162301635000004015000
B0538363213609S11701004EA0162701640000000015000
B0538403213624S11701085EA0163101642000004030000
B0538443213673S11701131EA0163401648000004030000
B0538483213724S11701126EA0164601657000004030000
B0538523213745S11701079EA0164701656000004030000
B0538563213709S11701027EA0165001664000004015000
B0539003213646S11701025EA0165801671000004015000
B0539043213599S11701090EA0166301678000004015000
B0539083213603S11701177EA0166801683000004030000
B0539123213638S11701254EA0167001685000004015000
B0539163213682S11701325EA0167101684000000015000
B0539203213730S11701399EA0167201685000000015000
B0539243213781S11701471EA0168301700000004015000
B0539283213837S11701540EA0169801712000004015000
B0539323213897S11701606EA0170701725000000015000
B0539363213964S11701645EA0172201740000000015000
B0539403214028S11701627EA0173601750000000015000
B0539443214058S11701564EA0173901748000000015000
B0539483214034S11701492EA0174001753000000015000
B0539523213964S11701455EA0174801767000000015000
B0539563213885S11701477EA0176901788000004015000
B0540003213824S11701549EA0177901791000000015000
B0540043213810S11701659EA0177901790000004015000
B0540083213858S11701762EA0177601781000000015000
B0540123213940S11701815EA0178301804000004030000
B0540163214006S11701850EA0181301822000004030000
B0540203214055S11701906EA0183001829000000030000
B0540243214086S11701995EA0181701806000000030000
B0540283214089S11702106EA0180001794000004030000
B0540323214064S11702220EA0179601789000004030000
B0540363214059S11702329EA0179501801000004030000
B0540403214075S11702430EA0179401801000000015000
B0540443214112S11702522EA0179201798000000015000
B0540483214168S11702602EA0178301786000000015000
B0540523214233S11702671EA0177201775000000015000
B0540563214302S11702736EA0176301766000000015000
B0541003214374S11702794EA0175601765000000015000
B0541043214444S11702850EA0175601765000000015000
B0541083214513S11702906EA0175401763000000000000
B0541123214580S11702962EA0175301763000000000000
B0541163214645S11703019EA0175201761000004000000
B0541203214708S11703076EA0174901758000004000000
B0541243214770S11703133EA0174801756000004000000
B0541283214831S11703189EA0174501754000000000000
B0541323214894S11703243EA0174101750000000000000
B0541363214956S11703296EA0173701747000000000000
B0541403215019S11703351EA0173301743000000000000
B0541443215081S11703406EA0172801739000000000000
B0541483215143S11703462EA0172401734000004000000
B0541523215206S11703517EA0172901744000004000000
B0541563215266S11703566EA0175001762000004000000
B0542003215331S11703574EA0176401783000004000000
B0542043215372S11703529EA0178401804000004015000
B0542083215373S11703460EA0180001812000004015000
B0542123215331S11703404EA0180301811000000015000
B0542163215264S11703391EA0180501816000000015000
B0542203215202S11703430EA0180601812000004015000
B0542243215164S11703503EA0180001806000000015000
B0542283215164S11703590EA0179701807000000015000
B0542323215206S11703657EA0180301818000004015000
B0542363215271S11703681EA0181301826000004015000
B0542403215328S11703644EA0182201841000000030000
B0542443215360S11703575EA0182701834000000030000
B0542483215366S11703483EA0181701825000000015000
B0542523215350S11703387EA0181101826000004015000
B0542563215333S11703304EA0182001840000004015000
B0543003215321S11703231EA0183101851000004015000
B0543043215316S11703162EA0183601851000004015000
B0543083215314S11703093EA0183501851000000000000
B0543123215318S11703027EA0183701851000004000000
B0543163215324S11702961EA0183701852000004000000
B0543203215332S11702894EA0183801851000004000000
B0543243215344S11702829EA0183301845000004000000
B0543283215358S11702764EA0182901844000000000000
B0543323215371S11702699EA0182901844000004000000
B0543363215384S11702637EA0182801840000004000000
B0543403215401S11702574EA0182301836000004000000
B0543443215416S11702511EA0181901831000004000000
B0543483215435S11702448EA0181501827000000000000
B0543523215455S11702386EA0181001821000004000000
B0543563215474S11702322EA0180301815000004000000
B0544003215493S11702257EA0179701807000004000000
B0544043215513S11702191EA0178901798000004000000
B0544083215532S11702125EA0178101789000000000000
B0544123215553S11702061EA0177401782000004000000
B0544163215575S11701997EA0176601772000004000000
B0544203215594S11701932EA0175501765000004000000
B0544243215613S11701870EA0175201763000004000000
B0544283215633S11701813EA0174901760000004000000
B0544323215650S11701754EA0174501751000004000000
B0544363215667S11701692EA0173301739000004000000
B0544403215685S11701623EA0172501734000000000000
B0544443215708S11701551EA0172701738000000000000
B0544483215730S11701479EA0172601734000004000000
B0544523215753S11701407EA0172601739000004000000
B0544563215780S11701341EA0172901741000004000000
B0545003215808S11701274EA0172801739000004000000
B0545043215834S11701207EA0172201730000004000000
B0545083215861S11701138EA0171801730000004000000
B0545123215887S11701070EA0172101730000004000000
B0545163215910S11701004EA0171601724000004000000
B0545203215935S11700936EA0171201724000004000000
B0545243215958S11700870EA0171301726000000000000
B0545283215986S11700808EA0171201722000000000000
B0545323216008S11700740EA0169801702000000000000
B0545363216033S11700667EA0168301687000000000000
B0545403216062S11700598EA0167801685000004000000
B0545443216087S11700532EA0167501684000004000000
B0545483216111S11700466EA0167001674000004000000
B0545523216130S11700393EA0166401672000000000000
B0545563216146S11700322EA0166401674000000000000
B0546003216161S11700254EA0166601673000004000000
B0546043216178S11700188EA0165901666000004000000
B0546083216198S11700119EA0165201655000004000000
B0546123216212S11700045EA0164401653000000000000
B0546163216216S11659973EA0164401653000000000000
B0546203216221S11659904EA0164301651000000000000
B0546243216231S11659837EA0164401656000000000000
B0546283216243S11659772EA0164801658000000000000
B0546323216252S11659701EA0165301666000000000000
B0546363216254S11659638EA0166501679000004000000
B0546403216225S11659586EA0167401686000004000000
B0546443216161S11659590EA0168101696000000000000
B0546483216113S11659649EA0169101707000000000000
B0546523216096S11659726EA0169701708000000015000
B0546563216116S11659803EA0169401702000000015000
B0547003216161S11659864EA0169101702000000030000
B0547043216221S11659895EA0169201705000004015000
B0547083216281S11659886EA0169501708000000015000
B0547123216326S11659846EA0169601705000004015000
B0547163216347S11659787EA0169401702000004015000
B0547203216352S11659721EA0168901698000004015000
B0547243216351S11659651EA0169201706000000000000
B0547283216348S11659581EA0170101712000000000000
B0547323216316S11659521EA0170601715000004000000
B0547363216248S11659514EA0170801719000000000000
B0547403216186S11659568EA0171501729000000015000
B0547443216172S11659657EA0172701740000000015000
B0547483216207S11659739EA0172701737000000030000
B0547523216274S11659782EA0173001742000000030000
B0547563216345S11659785EA0173401747000004030000
B0548003216404S11659756EA0174301757000004015000
B0548043216456S11659713EA0174901756000000015000
B0548083216503S11659660EA0174701757000000015000
B0548123216545S11659603EA0175001759000004015000
B0548163216585S11659543EA0175401764000004015000
B0548203216602S11659478EA0176001770000004015000
B0548243216571S11659421EA0176001766000004015000
B0548283216508S11659402EA0175801768000004015000
B0548323216443S11659430EA0175801766000004015000
B0548363216391S11659497EA0175401758000004015000
B0548403216359S11659591EA0174601755000000015000
B0548443216359S11659694EA0175201764000004015000
B0548483216397S11659783EA0175801770000004015000
B0548523216463S11659839EA0176401772000004015000
B0548563216542S11659848EA0176001766000004015000
B0549003216618S11659817EA0175301753000000030000
B0549043216686S11659765EA0173701733000004015000
B0549083216754S11659703EA0171901719000000015000
B0549123216814S11659629EA0170601708000004015000
B0549163216867S11659552EA0169501698000000015000
B0549203216919S11659474EA0168901693000004000000
B0549243216965S11659400EA0168501692000000000000
B0549283217005S11659327EA0168101685000000000000
B0549323217041S11659253EA0166701671000000000000
B0549363217078S11659179EA0166101667000004000000
B0549403217113S11659106EA0166201671000004000000
B0549443217149S11659035EA0166201670000004000000
B0549483217188S11658966EA0166101667000004000000
B0549523217229S11658895EA0165701663000004000000
B0549563217269S11658823EA0165601664000004000000
B0550003217309S11658751EA0165201658000000000000
B0550043217351S11658678EA0164101644000004000000
B0550083217390S11658606EA0162601631000004000000
B0550123217426S11658533EA0161801621000000000000
B0550163217464S11658461EA0160801612000004000000
B0550203217502S11658390EA0159901605000004000000
B0550243217539S11658321EA0159401602000000000000
B0550283217574S11658255EA0159101599000000000000
B0550323217609S11658188EA0158501591000000000000
B0550363217643S11658122EA0157701583000004000000
B0550403217681S11658057EA0156701573000004000000
B0550443217719S11657991EA0156001563000004000000
B0550483217755S11657922EA0155001552000004000000
B0550523217791S11657854EA0154701554000000000000
B0550563217828S11657788EA0154001543000000000000
B0551003217864S11657720EA0153201538000004000000
B0551043217901S11657653EA0152901536000000000000
B0551083217934S11657584EA0152501530000004000000
B0551123217966S11657514EA0152101525000000000000
B0551163217994S11657439EA0151401515000000000000
B0551203218025S11657367EA0150301505000000000000
B0551243218062S11657299EA0150101506000004000000
B0551283218097S11657242EA0150301509000000000000
B0551323218129S11657183EA0149501497000004000000
B0551363218163S11657118EA0148401487000004000000
B0551403218200S11657052EA0148101487000004000000
B0551443218237S11656990EA0147501478000000000000
B0551483218270S11656923EA0146801469000000000000
B0551523218296S11656852EA0146201466000004000000
B0551563218311S11656776EA0145701462000004000000
B0552003218315S11656702EA0145701465000004000000
B0552043218317S11656630EA0145801465000004000000
B0552083218314S11656557EA0145501461000004000000
B0552123218306S11656487EA0145101457000004000000
B0552163218301S11656416EA0144701454000004000000
B0552203218295S11656349EA0144501453000004000000
B0552243218295S11656281EA0144301448000004000000
B0552283218298S11656214EA0143801443000004000000
B0552323218300S11656146EA0143201436000004000000
B0552363218310S11656077EA0143001437000004000000
B0552403218322S11656008EA0143201435000004000000
B0552443218330S11655939EA0142401421000004000000
B0552483218310S11655873EA0140801406000004000000
B0552523218257S11655830EA0139601397000000000000
B0552563218184S11655824EA0138401383000000000000
B0553003218106S11655842EA0136801369000000000000
B0553043218025S11655868EA0136001361000000000000
B0553083217945S11655900EA0136501374000004000000
B0553123217892S11655973EA0138101390000000000000
B0553163217918S11656045EA0139601405000004000000
B0553203217968S11656046EA0139601398000004015000
B0553243217988S11655994EA0139001400000004015000
B0553283217962S11655943EA0140301405000004015000
B0553323217905S11655957EA0141301408000004015000
B0553363217884S11656037EA0141201409000000015000
B0553403217923S11656102EA0141401415000000015000
B0553443217976S11656107EA0141901422000000015000
B0553483218003S11656063EA0142701427000004015000
B0553523217979S11656020EA0143201429000000015000
B0553563217924S11656032EA0143201428000000015000
B0554003217890S11656103EA0143301434000000015000
B0554043217908S11656184EA0143601435000004015000
B0554083217959S11656234EA0143401435000000015000
B0554123218014S11656220EA0143601444000000015000
B0554163218035S11656169EA0144101449000000015000
B0554203218009S11656119EA0144601454000000015000
B0554243217953S11656108EA0144501449000004015000
B0554283217894S11656151EA0143601437000004015000
B0554323217863S11656236EA0143501444000004015000
B0554363217858S11656325EA0143901448000000015000
B0554403217898S11656398EA0143701440000004015000
B0554443217964S11656431EA0143301440000000015000
B0554483218024S11656412EA0143201439000004015000
B0554523218055S11656357EA0143201441000004015000
B0554563218071S11656292EA0143401443000000015000
B0555003218077S11656224EA0143201438000000000000
B0555043218062S11656162EA0142401427000000000000
B0555083218003S11656130EA0140701410000004000000
B0555123217929S11656147EA0139101397000004000000
B0555163217854S11656184EA0137401378000004000000
B0555203217778S11656227EA0136201366000004000000
B0555243217703S11656269EA0135701367000000000000
B0555283217625S11656311EA0135601363000000000000
B0555323217544S11656349EA0135501369000000000000
B0555363217470S11656401EA0137201386000000000000
B0555403217464S11656484EA0139301410000000000000
B0555443217512S11656505EA0141001421000000000000
B0555483217534S11656457EA0141801428000000015000
B0555523217505S11656399EA0142701440000000015000
B0555563217444S11656383EA0144101451000004015000
B0556003217387S11656435EA0144701454000004015000
B0556043217381S11656520EA0144801456000004015000
B0556083217422S11656580EA0145001461000004015000
B0556123217478S11656587EA0145401467000004015000
B0556163217512S11656541EA0146301474000004015000
B0556203217486S11656485EA0147501491000004015000
B0556243217422S11656488EA0149101507000004015000
B0556283217391S11656557EA0150301515000004015000
B0556323217420S11656623EA0151101523000000015000
B0556363217464S11656617EA0151901530000004015000
B0556403217461S11656562EA0152301534000004015000
B0556443217404S11656537EA0152801538000004015000
B0556483217344S11656589EA0153301549000004015000
B0556523217335S11656674EA0154101555000004015000
B0556563217381S11656723EA0154501560000004015000
B0557003217431S11656713EA0155201565000004015000
B0557043217455S11656658EA0155201566000004015000
B0557083217435S11656594EA0155701574000004015000
B0557123217372S11656579EA0156501581000000015000
B0557163217318S11656640EA0156501575000000015000
B0557203217318S11656730EA0156601582000000000000
B0557243217365S11656782EA0157501593000000000000
B0557283217413S11656771EA0158401602000004000000
B0557323217437S11656721EA0158901601000004000000
B0557363217435S11656656EA0158901603000004000000
B0557403217403S11656601EA0159601608000004000000
B0557443217339S11656592EA0159201600000000000000
B0557483217282S11656644EA0158001589000004000000
B0557523217261S11656731EA0157001580000000000000
B0557563217251S11656822EA0156901584000004000000
B0558003217256S11656910EA0157401587000000000000
B0558043217300S11656966EA0157401589000004000000
B0558083217351S11656956EA0157701594000000000000
B0558123217372S11656903EA0158001596000004000000
B0558163217342S11656843EA0158601604000004000000
B0558203217275S11656834EA0159201605000000000000
B0558243217226S11656900EA0158901599000000000000
B0558283217236S11656986EA0158101595000000015000
B0558323217290S11657025EA0158101598000000015000
B0558363217338S11656995EA0158401600000000015000
B0558403217342S11656927EA0158701606000000015000
B0558443217292S11656880EA0159201609000000015000
B0558483217219S11656903EA0159401610000000015000
B0558523217170S11656977EA0159401606000000000000
B0558563217157S11657069EA0158901604000000015000
B0559003217190S11657146EA0158901603000000015000
B0559043217245S11657185EA0158701601000000000000
B0559083217299S11657168EA0158401600000000015000
B0559123217338S11657121EA0158401602000000000000
B0559163217364S11657064EA0158401601000000000000
B0559203217379S11656997EA0158401600000000000000
B0559243217374S11656925EA0158101594000000000000
B0559283217338S11656857EA0157601588000004000000
B0559323217269S11656819EA0156701578000004000000
B0559363217186S11656814EA0155901575000004000000
B0559403217101S11656818EA0155901573000004000000
B0559443217018S11656826EA0155701573000000000000
B0559483216936S11656835EA0155201567000000000000
B0559523216853S11656844EA0154901559000000000000
B0559563216768S11656856EA0153801550000000000000
B0600003216685S11656866EA0153301548000004000000
B0600043216605S11656877EA0153301550000000000000
B0600083216527S11656883EA0153601552000004000000
B0600123216452S11656891EA0153701555000004000000
B0600163216384S11656901EA0153701552000004000000
B0600203216315S11656910EA0152701538000004000000
B0600243216242S11656917EA0151001521000000000000
B0600283216170S11656922EA0150201513000004000000
B0600323216099S11656929EA0149201502000004000000
B0600363216025S11656934EA0147901487000000000000
B0600403215951S11656938EA0146601474000000000000
B0600443215874S11656944EA0145801469000004000000
B0600483215796S11656953EA0145001459000004000000
B0600523215717S11656955EA0144201452000000000000
B0600563215640S11656945EA0143901448000004000000
B0601003215563S11656936EA0143601449000004000000
B0601043215485S11656930EA0143601448000004000000
B0601083215406S11656926EA0144401459000000000000
B0601123215346S11656977EA0146101483000004000000
B0601163215353S11657059EA0148001492000004000000
B0601203215409S11657100EA0147801490000004000000
B0601243215463S11657079EA0147701490000004000000
B0601283215498S11657026EA0147601489000004000000
B0601323215503S11656962EA0148501500000004000000
B0601363215449S11656947EA0149701512000004000000
B0601403215412S11657012EA0151301530000004000000
B0601443215437S11657082EA0152001531000004015000
B0601483215494S11657092EA0151901534000004015000
B0601523215523S11657047EA0152701544000004015000
B0601563215501S11656997EA0153501547000000000000
B0602003215442S11656987EA0153901553000004000000
B0602043215384S11657030EA0154101553000004000000
B0602083215362S11657113EA0154701563000004000000
B0602123215390S11657189EA0155801575000004015000
B0602163215450S11657224EA0156501581000004015000
B0602203215507S11657208EA0157001589000004015000
B0602243215527S11657155EA0157701596000004015000
B0602283215494S11657111EA0158301601000004000000
B0602323215435S11657108EA0159001609000004000000
B0602363215375S11657147EA0159601611000004015000
B0602403215346S11657225EA0160201624000004015000
B0602443215368S11657303EA0161101631000004015000
B0602483215425S11657346EA0161601633000004015000
B0602523215483S11657326EA0162101639000004015000
B0602563215500S11657269EA0162401644000004015000
B0603003215467S11657222EA0163001650000004000000
B0603043215405S11657225EA0163301648000000000000
B0603083215354S11657290EA0163101651000000000000
B0603123215346S11657376EA0164401667000000000000
B0603163215381S11657443EA0165401672000000000000
B0603203215440S11657471EA0165701677000000015000
B0603243215501S11657464EA0166101679000004000000
B0603283215536S11657416EA0166501683000000000000
B0603323215519S11657363EA0166801688000000000000
B0603363215462S11657355EA0167101688000000000000
B0603403215415S11657420EA0166901687000000000000
B0603443215415S11657511EA0167001691000000000000
B0603483215451S11657588EA0167801699000000000000
B0603523215514S11657631EA0168201700000000000000
B0603563215583S11657636EA0168301701000000015000
B0604003215636S11657605EA0168701705000000000000
B0604043215658S11657549EA0168201696000000000000
B0604083215663S11657481EA0167201680000000000000
B0604123215661S11657408EA0165901675000004000000
B0604163215663S11657335EA0165801671000004000000
B0604203215671S11657261EA0165701674000004000000
B0604243215679S11657189EA0166601680000004000000
B0604283215684S11657113EA0167101685000000000000
B0604323215685S11657035EA0167601688000004000000
B0604363215689S11656958EA0167601688000004000000
B0604403215688S11656886EA0168101698000004000000
B0604443215682S11656821EA0169301711000004000000
B0604483215667S11656757EA0169801710000000000000
B0604523215622S11656704EA0168901697000000000000
B0604563215553S11656684EA0168201694000000000000
B0605003215476S11656692EA0168101694000000000000
B0605043215399S11656717EA0168001694000000000000
B0605083215321S11656739EA0168401699000004000000
B0605123215245S11656765EA0168501698000000000000
B0605163215168S11656795EA0168301695000000000000
B0605203215091S11656821EA0168001691000000000000
B0605243215015S11656844EA0167401687000004000000
B0605283214938S11656862EA0166901680000004000000
B0605323214860S11656884EA0165801664000004000000
B0605363214777S11656906EA0164601654000000000000
B0605403214694S11656930EA0163801647000004000000
B0605443214610S11656955EA0163301644000004000000
B0605483214527S11656978EA0162901639000004000000
B0605523214444S11657001EA0162201632000004000000
B0605563214362S11657026EA0161201619000004000000
B0606003214280S11657051EA0160101608000004000000
B0606043214198S11657075EA0159201603000004000000
B0606083214118S11657100EA0158901599000004000000
B0606123214040S11657121EA0158401593000000000000
B0606163213960S11657140EA0157801586000000000000
B0606203213881S11657163EA0157101578000000000000
B0606243213799S11657186EA0156301572000000000000
B0606283213717S11657209EA0155801567000000000000
B0606323213635S11657225EA0155501562000000000000
B0606363213552S11657242EA0154601554000000000000
B0606403213468S11657265EA0153801545000000000000
B0606443213383S11657285EA0153401541000000000000
B0606483213300S11657302EA0153201539000004000000
B0606523213218S11657316EA0152601530000004000000
B0606563213134S11657330EA0151601523000000000000
B0607003213049S11657345EA0150701512000004000000
B0607043212962S11657354EA0149701503000000000000
B0607083212875S11657361EA0149101497000004000000
B0607123212788S11657368EA0148801493000004000000
B0607163212701S11657376EA0148001483000000000000
B0607203212611S11657386EA0146901472000000000000
B0607243212521S11657400EA0146001462000004000000
B0607283212429S11657417EA0145001453000004000000
B0607323212338S11657436EA0144201447000000000000
B0607363212250S11657450EA0143601441000000000000
B0607403212161S11657467EA0142801432000004000000
B0607443212074S11657484EA0142001424000000000000
B0607483211987S11657503EA0141101412000000000000
B0607523211899S11657525EA0139701399000000000000
B0607563211809S11657547EA0138701388000004000000
B0608003211715S11657567EA0137801379000004000000
B0608043211622S11657585EA0137201376000000000000
B0608083211529S11657605EA0136901373000004000000
B0608123211440S11657624EA0136801371000004000000
B0608163211353S11657641EA0137201380000004000000
B0608203211271S11657664EA0137001372000000000000
B0608243211185S11657690EA0136101359000000000000
B0608283211098S11657716EA0135401356000004000000
B0608323211012S11657744EA0135201354000004000000
B0608363210925S11657771EA0133801338000004000000
B0608403210831S11657794EA0132901327000004000000
B0608443210736S11657815EA0132101325000004000000
B0608483210643S11657835EA0132301330000004000000
B0608523210552S11657855EA0132501328000004000000
B0608563210463S11657876EA0131901318000004000000
B0609003210372S11657900EA0130701306000000000000
B0609043210283S11657922EA0129801300000004000000
B0609083210192S11657936EA0129001289000000000000
B0609123210101S11657943EA0128301285000000000000
B0609163210014S11657949EA0128801298000000000000
B0609203209930S11657950EA0129701300000000000000
B0609243209848S11657954EA0129301296000000000000
B0609283209763S11657959EA0128501282000000000000
B0609323209674S11657966EA0127301274000004000000
B0609363209588S11657969EA0126901270000000000000
B0609403209508S11657969EA0126301264000000000000
B0609443209427S11657965EA0125501255000004000000
B0609483209345S11657961EA0124701245000000000000
B0609523209263S11657957EA0123801234000000000000
B0609563209180S11657957EA0122701227000000000000
B0610003209096S11657958EA0122101220000000000000
B0610043209013S11657957EA0121601216000000000000
B0610083208929S11657952EA0121101211000000000000
B0610123208847S11657945EA0120801207000000000000
B0610163208767S11657950EA0120301203000000000000
B0610203208689S11657967EA0119601193000004000000
B0610243208611S11657989EA0118501182000004000000
B0610283208532S11658014EA0117701176000004000000
B0610323208451S11658040EA0117001168000000000000
B0610363208366S11658061EA0116401163000004000000
B0610403208282S11658067EA0116601171000000000000
B0610443208205S11658073EA0118401196000004000000
B0610483208139S11658067EA0120301212000000000000
B0610523208101S11658018EA0120801220000000000000
B0610563208112S11657963EA0121901234000000000000
B0611003208158S11657945EA0123101239000000000000
B0611043208210S11657976EA0123401243000000000000
B0611083208240S11658047EA0123401241000000000000
B0611123208233S11658130EA0123501243000000000000
B0611163208200S11658206EA0124101251000000000000
B0611203208160S11658277EA0124601257000000000000
B0611243208104S11658317EA0125301267000000000000
B0611283208057S11658294EA0126501280000004000000
B0611323208064S11658244EA0127701289000000000000
B0611363208110S11658235EA0128701300000000000000
B0611403208151S11658283EA0129601309000000000000
B0611443208152S11658357EA0129901308000000000000
B0611483208110S11658417EA0130501320000000000000
B0611523208053S11658430EA0131501328000000000000
B0611563208014S11658392EA0132001330000004000000
B0612003208018S11658336EA0132401341000000000000
B0612043208054S11658301EA0133701354000000000000
B0612083208108S11658305EA0134601357000000000000
B0612123208157S11658359EA0135001363000004000000
B0612163208186S11658440EA0135701366000004000000
B0612203208196S11658535EA0135501360000004000000
B0612243208171S11658621EA0135401362000004000000
B0612283208118S11658681EA0135101358000000000000
B0612323208051S11658702EA0134801352000000000000
B0612363207978S11658681EA0134101344000000000000
B0612403207906S11658650EA0134101350000000000000
B0612443207852S11658600EA0135001364000000000000
B0612483207869S11658543EA0136901387000004000000
B0612523207919S11658567EA0139001405000004000000
B0612563207932S11658641EA0140001413000004000000
B0613003207889S11658702EA0140901422000000000000
B0613043207826S11658713EA0141601428000004000000
B0613083207780S11658669EA0142001431000004000000
B0613123207770S11658604EA0142501435000000000000
B0613163207804S11658559EA0143701455000004000000
B0613203207853S11658582EA0145601469000004000000
B0613243207857S11658659EA0146201474000004000000
B0613283207805S11658712EA0147001483000004000000
B0613323207744S11658702EA0147701490000000000000
B0613363207716S11658647EA0148201497000000000000
B0613403207739S11658595EA0149001503000000000000
B0613443207792S11658583EA0149601507000000000000
B0613483207840S11658628EA0150601527000000000000
B0613523207831S11658700EA0152501538000000000000
B0613563207771S11658733EA0152901543000000000000
B0614003207726S11658698EA0153701550000000000000
B0614043207735S11658648EA0154201557000000000000
B0614083207781S11658630EA0154801559000004000000
B0614123207833S11658659EA0155101565000004000000
B0614163207865S11658726EA0155801573000004000000
B0614203207863S11658810EA0156401580000004000000
B0614243207824S11658881EA0157201588000000000000
B0614283207762S11658912EA0158401604000000000000
B0614323207705S11658890EA0159401609000000000000
B0614363207683S11658832EA0159901615000000000000
B0614403207707S11658785EA0160801625000000000000
B0614443207759S11658782EA0161601631000000000000
B0614483207800S11658837EA0162501641000000000000
B0614523207804S11658914EA0163601655000000000000
B0614563207772S11658984EA0164701665000000000000
B0615003207715S11659031EA0165501672000000000000
B0615043207650S11659041EA0166201678000000000000
B0615083207599S11659007EA0167001686000000000000
B0615123207586S11658953EA0167501691000000000000
B0615163207612S11658906EA0167801689000000000000
B0615203207662S11658876EA0167501687000000000000
B0615243207718S11658853EA0167501688000000000000
B0615283207779S11658853EA0167801694000000000000
B0615323207833S11658898EA0168201697000000000000
B0615363207863S11658976EA0168701704000000000000
B0615403207859S11659064EA0169401708000000000000
B0615443207813S11659133EA0169601710000000000000
B0615483207740S11659163EA0169601707000000000000
B0615523207661S11659153EA0169901714000000000000
B0615563207585S11659131EA0170501719000000000000
B0616003207508S11659100EA0170101710000000000000
B0616043207429S11659066EA0169301702000000000000
B0616083207351S11659028EA0168601695000004000000
B0616123207276S11658983EA0167801682000000000000
B0616163207199S11658934EA0166601673000000000000
B0616203207124S11658889EA0166401676000000000000
B0616243207052S11658842EA0165901665000000000000
B0616283206978S11658791EA0164801653000004000000
B0616323206901S11658738EA0163201634000000000000
B0616363206821S11658684EA0162701635000000000000
B0616403206738S11658634EA0162901641000000000000
B0616443206656S11658583EA0164101658000000000000
B0616483206583S11658533EA0165901672000004000000
B0616523206509S11658486EA0166401675000000000000
B0616563206427S11658452EA0166401673000004000000
B0617003206344S11658424EA0166401678000000000000
B0617043206267S11658399EA0167401687000000000000
B0617083206194S11658374EA0167501686000000000000
B0617123206124S11658349EA0167001680000000000000
B0617163206055S11658321EA0166401667000000000000
B0617203205980S11658294EA0164601650000004000000
B0617243205898S11658279EA0163501642000004000000
B0617283205815S11658274EA0162901638000004000000
B0617323205730S11658271EA0162701636000004000000
B0617363205649S11658279EA0162801639000000000000
B0617403205571S11658288EA0163301645000000000000
B0617443205495S11658291EA0163801649000000000000
B0617483205425S11658325EA0164401654000000000000
B0617523205379S11658398EA0164101647000000000000
B0617563205367S11658486EA0163601640000000000000
B0618003205395S11658567EA0162401626000000000000
B0618043205457S11658611EA0160801614000000000000
B0618083205527S11658635EA0160101611000000000000
B0618123205597S11658646EA0160201613000000000000
B0618163205656S11658619EA0160801619000000000000
B0618203205688S11658560EA0161101623000004000000
B0618243205685S11658487EA0161101621000004000000
B0618283205629S11658456EA0161901635000004000000
B0618323205557S11658466EA0161901627000004000000
B0618363205482S11658472EA0161201622000004000000
B0618403205404S11658472EA0160801617000000000000
B0618443205327S11658466EA0160301613000004000000
B0618483205250S11658457EA0159501601000004000000
B0618523205170S11658446EA0158401592000004000000
B0618563205093S11658431EA0158201591000004000000
B0619003205018S11658412EA0157401580000004000000
B0619043204937S11658387EA0156501567000004000000
B0619083204856S11658365EA0155701562000004000000
B0619123204777S11658346EA0155301560000004000000
B0619163204699S11658334EA0155201559000004000000
B0619203204622S11658326EA0155001557000004000000
B0619243204550S11658316EA0154801556000004000000
B0619283204478S11658301EA0154001544000000000000
B0619323204401S11658287EA0152701531000000000000
B0619363204323S11658271EA0151701523000000000000
B0619403204247S11658258EA0151501521000000000000
B0619443204173S11658245EA0151101516000000000000
B0619483204099S11658234EA0150501509000000000000
B0619523204021S11658222EA0149601499000000000000
B0619563203943S11658208EA0148701491000004000000
B0620003203866S11658191EA0148301488000000000000
B0620043203797S11658162EA0148001485000000000000
B0620083203742S11658110EA0147701481000004000000
B0620123203710S11658043EA0147401478000004000000
B0620163203697S11657966EA0147201475000004000000
B0620203203701S11657892EA0147001473000004000000
B0620243203709S11657818EA0146101463000004000000
B0620283203712S11657738EA0145001456000000000000
B0620323203712S11657660EA0144301451000000000000
B0620363203712S11657582EA0143401438000000000000
B0620403203714S11657501EA0142101425000000000000
B0620443203714S11657417EA0141101411000004000000
B0620483203712S11657334EA0139701396000000000000
B0620523203705S11657251EA0138301383000000000000
B0620563203689S11657168EA0137201371000004000000
B0621003203670S11657083EA0135701358000004000000
B0621043203647S11656997EA0134801353000000000000
B0621083203627S11656912EA0134501349000000000000
B0621123203602S11656827EA0134001344000004000000
B0621163203576S11656743EA0133601339000004000000
B0621203203553S11656659EA0133301334000000000000
B0621243203530S11656579EA0132801333000004000000
B0621283203506S11656503EA0132901336000000000000
B0621323203482S11656431EA0132701329000004000000
B0621363203458S11656355EA0132101323000004000000
B0621403203434S11656277EA0131601323000004000000
B0621443203439S11656201EA0132301329000004000000
B0621483203462S11656130EA0132201322000004000000
B0621523203489S11656056EA0131301315000004000000
B0621563203517S11655983EA0130501307000000000000
B0622003203554S11655913EA0130001304000000000000
B0622043203592S11655846EA0129801300000000000000
B0622083203627S11655777EA0129301294000000000000
B0622123203662S11655704EA0128401284000000000000
B0622163203696S11655630EA0127801281000000000000
B0622203203733S11655558EA0127901283000000000000
B0622243203771S11655489EA0127801282000000000000
B0622283203806S11655419EA0128001280000000000000
B0622323203820S11655339EA0128101284000000000000
B0622363203793S11655262EA0129501304000000000000
B0622403203731S11655229EA0131301322000000000000
B0622443203666S11655266EA0132301336000000000000
B0622483203641S11655348EA0133501344000004000000
B0622523203667S11655421EA0134101347000004000000
B0622563203724S11655449EA0134001347000004000000
B0623003203741S11655404EA0135101363000000015000
B0623043203692S11655375EA0135501360000000015000
B0623083203632S11655422EA0135301359000004015000
B0623123203620S11655517EA0135101353000004015000
B0623163203660S11655597EA0135001357000004015000
B0623203203724S11655623EA0135201359000000015000
B0623243203775S11655593EA0135701369000000015000
B0623283203777S11655538EA0137601393000000015000
B0623323203729S11655515EA0139701410000000015000
B0623363203675S11655553EA0140901417000000015000
B0623403203651S11655634EA0141001417000000000000
B0623443203681S11655705EA0141401422000000000000
B0623483203735S11655721EA0141701425000004000000
B0623523203764S11655679EA0142001430000004015000
B0623563203738S11655629EA0143201445000000000000
B0624003203683S11655618EA0144701459000000000000
B0624043203624S11655652EA0145801465000000000000
B0624083203585S11655720EA0146201469000000000000
B0624123203577S11655803EA0146101465000000000000
B0624163203610S11655876EA0145701464000000000000
B0624203203668S11655899EA0145101456000000000000
B0624243203724S11655876EA0144401448000004000000
B0624283203772S11655833EA0144201450000000000000
B0624323203806S11655775EA0144501450000000000000
B0624363203794S11655701EA0144301447000000000000
B0624403203744S11655647EA0143901443000004000000
B0624443203676S11655621EA0143901447000000000000
B0624483203603S11655608EA0143501440000000000000
B0624523203529S11655586EA0142301424000004000000
B0624563203449S11655557EA0142201427000000000000
B0625003203365S11655553EA0142501432000000000000
B0625043203276S11655556EA0142301427000000000000
B0625083203185S11655549EA0141901422000000000000
B0625123203095S11655534EA0142101422000000000000
B0625163203018S11655570EA0142201425000004000000
B0625203202977S11655651EA0142101423000000000000
B0625243202983S11655743EA0141501418000004000000
B0625283203029S11655818EA0141501421000004000000
B0625323203083S11655887EA0141701422000004000000
B0625363203151S11655924EA0142201429000000000000
B0625403203222S11655920EA0142601432000000000000
B0625443203296S11655907EA0142301431000000000000
B0625483203377S11655890EA0142001423000000000000
B0625523203451S11655857EA0144001447000004000000
B0625563203447S11655792EA0147301483000000000000
B0626003203389S11655779EA0148501497000004000000
B0626043203333S11655830EA0149101504000004015000
B0626083203319S11655913EA0149901514000004015000
B0626123203356S11655977EA0151101529000004015000
B0626163203412S11655981EA0152601541000000015000
B0626203203426S11655933EA0153701552000000015000
B0626243203386S11655892EA0154001556000000015000
B0626283203325S11655900EA0155301572000000015000
B0626323203276S11655951EA0156101573000000015000
B0626363203260S11656035EA0155401561000000000000
B0626403203286S11656123EA0154701557000000015000
B0626443203341S11656188EA0155201564000000015000
B0626483203406S11656225EA0155901571000000000000
B0626523203471S11656237EA0156401578000000000000
B0626563203521S11656211EA0157601593000000000000
B0627003203508S11656164EA0158901604000000000000
B0627043203452S11656156EA0159301604000000000000
B0627083203389S11656191EA0158901596000000000000
B0627123203328S11656251EA0158801600000000000000
B0627163203291S11656333EA0159901611000000000000
B0627203203321S11656409EA0159901604000000000000
B0627243203380S11656448EA0159001601000000000000
B0627283203442S11656477EA0158501595000000000000
B0627323203507S11656506EA0158201588000004000000
B0627363203575S11656539EA0157301578000004000000
B0627403203651S11656566EA0156401571000004000000
B0627443203731S11656588EA0156101570000004000000
B0627483203810S11656610EA0156201572000004000000
B0627523203887S11656641EA0156201571000004000000
B0627563203958S11656685EA0155801565000004000000
B0628003204027S11656743EA0154501549000004000000
B0628043204099S11656802EA0153601543000004000000
B0628083204173S11656858EA0152901537000004000000
B0628123204244S11656912EA0153201544000004000000
B0628163204313S11656956EA0153601546000004000000
B0628203204385S11656999EA0152701529000004000000
B0628243204464S11657039EA0150901513000000000000
B0628283204546S11657077EA0149701504000004000000
B0628323204625S11657116EA0149301501000004000000
B0628363204700S11657150EA0149401506000000000000
B0628403204771S11657174EA0149401503000000000000
B0628443204841S11657199EA0148801494000000000000
B0628483204910S11657234EA0148301490000004000000
B0628523204977S11657272EA0148201492000004000000
B0628563205044S11657309EA0148201487000000000000
B0629003205111S11657347EA0147001477000004000000
B0629043205180S11657382EA0145601461000000000000
B0629083205253S11657416EA0144101446000004000000
B0629123205327S11657446EA0143001438000004000000
B0629163205402S11657476EA0142601434000000000000
B0629203205475S11657508EA0142101426000004000000
B0629243205549S11657542EA0141301418000004000000
B0629283205623S11657573EA0140501412000004000000
B0629323205696S11657602EA0140301410000000000000
B0629363205768S11657632EA0140101408000000000000
B0629403205835S11657660EA0139501401000000000000
B0629443205903S11657683EA0138501390000000000000
B0629483205972S11657705EA0138201390000000000000
B0629523206038S11657729EA0138101387000000000000
B0629563206103S11657759EA0137601382000000000000
B0630003206168S11657788EA0137301381000000000000
B0630043206229S11657819EA0137101379000000000000
B0630083206290S11657850EA0136601374000000000000
B0630123206353S11657885EA0136001367000000000000
B0630163206414S11657924EA0135201359000000000000
B0630203206478S11657961EA0134801356000004000000
B0630243206540S11657991EA0134801358000000000000
B0630283206602S11658015EA0135301366000000000000
B0630323206662S11658028EA0136801380000004000000
B0630363206704S11658000EA0137901387000004000000
B0630403206697S11657945EA0138801397000004000000
B0630443206650S11657914EA0139901408000004000000
B0630483206591S11657933EA0140601413000000000000
B0630523206557S11658002EA0140601409000004000000
B0630563206565S11658084EA0140401410000004000000
B0631003206608S11658139EA0141101418000004000000
B0631043206662S11658153EA0141201415000004000000
B0631083206709S11658125EA0140901414000000015000
B0631123206728S11658070EA0141301421000004015000
B0631163206712S11658010EA0141701423000000015000
B0631203206663S11657961EA0141901427000000015000
B0631243206598S11657950EA0142401435000004000000
B0631283206536S11657987EA0143101441000004000000
B0631323206492S11658053EA0143301441000004000000
B0631363206462S11658130EA0143501444000004000000
B0631403206455S11658214EA0143101437000000000000
B0631443206479S11658296EA0142701436000000000000
B0631483206523S11658360EA0143201441000000000000
B0631523206584S11658369EA0143301438000000000000
B0631563206624S11658322EA0142901436000000000000
B0632003206637S11658257EA0142501434000000000000
B0632043206649S11658188EA0142501434000000000000
B0632083206658S11658115EA0142801439000000000000
B0632123206661S11658039EA0142801436000000000000
B0632163206662S11657957EA0142201430000000000000
B0632203206665S11657871EA0142001428000004000000
B0632243206669S11657787EA0141901424000004000000
B0632283206673S11657705EA0141301412000004000000
B0632323206670S11657620EA0139701398000004000000
B0632363206665S11657536EA0138601388000000000000
B0632403206660S11657452EA0137801380000000000000
B0632443206656S11657369EA0136801371000000000000
B0632483206657S11657290EA0136501371000000000000
B0632523206662S11657216EA0136401369000000000000
B0632563206669S11657147EA0135901363000000000000
B0633003206675S11657078EA0135201354000000000000
B0633043206680S11657008EA0134401345000000000000
B0633083206691S11656939EA0133301332000004000000
B0633123206697S11656869EA0132201323000004000000
B0633163206693S11656797EA0131201314000004000000
B0633203206680S11656724EA0130301304000004000000
B0633243206670S11656649EA0129201290000004000000
B0633283206666S11656574EA0128301285000004000000
B0633323206669S11656502EA0128301284000004000000
B0633363206670S11656431EA0128001284000004000000
B0633403206665S11656359EA0128001282000004000000
B0633443206656S11656285EA0127001270000004000000
B0633483206653S11656208EA0126001259000004000000
B0633523206661S11656132EA0125301252000000000000
B0633563206670S11656055EA0124901250000004000000
B0634003206674S11655977EA0123801236000004000000
B0634043206675S11655896EA0123101228000004000000
B0634083206675S11655816EA0122401222000000000000
B0634123206680S11655735EA0122001222000000000000
B0634163206683S11655657EA0122301228000004000000
B0634203206682S11655580EA0123501240000000000000
B0634243206640S11655530EA0124601253000004000000
B0634283206575S11655531EA0126001269000004000000
B0634323206526S11655586EA0128001289000000000000
B0634363206523S11655665EA0129101294000000000000
B0634403206566S11655718EA0129301299000000000000
B0634443206617S11655705EA0129801303000000000000
B0634483206626S11655651EA0129901302000004000000
B0634523206582S11655604EA0129901304000000000000
B0634563206513S11655604EA0130801319000004000000
B0635003206459S11655664EA0132701339000000000000
B0635043206454S11655748EA0134001347000000000000
B0635083206497S11655800EA0134601352000000000000
B0635123206548S11655791EA0134701351000000015000
B0635163206574S11655742EA0134701350000000000000
B0635203206559S11655679EA0135001360000000000000
B0635243206507S11655644EA0136301375000000015000
B0635283206444S11655668EA0137901391000000000000
B0635323206413S11655744EA0138901395000000000000
B0635363206435S11655822EA0139401401000000000000
B0635403206487S11655861EA0140501419000000000000
B0635443206533S11655852EA0142501435000004015000
B0635483206541S11655804EA0143001435000004015000
B0635523206505S11655755EA0143101438000000015000
B0635563206437S11655747EA0144101451000000000000
B0636003206377S11655791EA0146001472000000000000
B0636043206353S11655866EA0147001478000004000000
B0636083206374S11655943EA0147301480000004000000
B0636123206426S11655986EA0147801488000004015000
B0636163206481S11655985EA0148701498000000015000
B0636203206518S11655943EA0149401503000000015000
B0636243206519S11655879EA0149901510000000015000
B0636283206481S11655825EA0150901521000000015000
B0636323206419S11655805EA0151901531000000015000
B0636363206353S11655838EA0152701542000000015000
B0636403206315S11655913EA0154001554000000015000
B0636443206331S11655994EA0155001561000000015000
B0636483206383S11656035EA0155701568000000015000
B0636523206437S11656025EA0156401579000004015000
B0636563206453S11655972EA0157401584000000015000
B0637003206413S11655917EA0157601588000000015000
B0637043206346S11655907EA0158701603000000015000
B0637083206285S11655947EA0159801611000000000000
B0637123206250S11656028EA0160201613000000000000
B0637163206258S11656115EA0161001623000000000000
B0637203206296S11656175EA0161501627000004000000
B0637243206354S11656198EA0161701628000000015000
B0637283206407S11656180EA0162501642000000015000
B0637323206419S11656128EA0164201653000004015000
B0637363206383S11656084EA0165001657000000015000
B0637403206316S11656087EA0165301662000000015000
B0637443206262S11656147EA0166001670000004000000
B0637483206246S11656238EA0166601674000004000000
B0637523206275S11656320EA0167101681000004000000
B0637563206329S11656370EA0167601687000004015000
B0638003206392S11656376EA0168501699000004015000
B0638043206418S11656332EA0170101716000000015000
B0638083206385S11656285EA0170701719000000015000
B0638123206320S11656282EA0171001729000000015000
B0638163206263S11656331EA0172401739000000015000
B0638203206240S11656414EA0172701738000004000000
B0638243206260S11656496EA0172601739000004000000
B0638283206315S11656544EA0172701739000004015000
B0638323206379S11656567EA0172601738000004000000
B0638363206440S11656554EA0172601735000004000000
B0638403206485S11656505EA0171901728000000000000
B0638443206527S11656446EA0172001730000004000000
B0638483206562S11656380EA0172201735000000000000
B0638523206591S11656308EA0172601740000004000000
B0638563206615S11656234EA0172801739000004000000
B0639003206631S11656158EA0172601738000004000000
B0639043206644S11656080EA0172601737000004000000
B0639083206654S11655998EA0171601724000004000000
B0639123206658S11655912EA0171601729000004000000
B0639163206660S11655829EA0171601721000004000000
B0639203206658S11655740EA0170201706000004000000
B0639243206654S11655651EA0169101695000000000000
B0639283206649S11655564EA0168301691000000000000
B0639323206630S11655484EA0168401697000000000000
B0639363206595S11655421EA0168501694000004000000
B0639403206545S11655374EA0168001691000004000000
B0639443206485S11655352EA0167701686000000000000
B0639483206419S11655361EA0166601674000004000000
B0639523206353S11655398EA0165501664000000000000
B0639563206301S11655463EA0165001660000000000000
B0640003206268S11655544EA0164801659000000000000
B0640043206259S11655629EA0164601654000000000000
B0640083206271S11655717EA0163501643000000000000
B0640123206294S11655805EA0162401632000000000000
B0640163206322S11655896EA0161401621000000000000
B0640203206345S11655991EA0160401613000000000000
B0640243206358S11656089EA0159901607000000000000
B0640283206374S11656189EA0159501606000000000000
B0640323206401S11656284EA0159501605000000000000
B0640363206432S11656375EA0159301605000000000000
B0640403206455S11656468EA0159701609000000000000
B0640443206472S11656561EA0159801609000000000000
B0640483206487S11656652EA0159501605000004000000
B0640523206506S11656743EA0158401592000004000000
B0640563206543S11656828EA0157301582000004000000
B0641003206593S11656908EA0156701576000004000000
B0641043206645S11656984EA0156401573000000000000
B0641083206699S11657056EA0156301572000000000000
B0641123206757S11657117EA0155701563000004000000
B0641163206822S11657177EA0154201547000004000000
B0641203206891S11657238EA0153201539000004000000
B0641243206960S11657291EA0152701535000004000000
B0641283207031S11657335EA0152401535000004000000
B0641323207102S11657377EA0151901525000004000000
B0641363207178S11657407EA0150901515000004000000
B0641403207255S11657402EA0150101504000004000000
B0641443207324S11657364EA0148901496000004000000
B0641483207380S11657307EA0148401495000000000000
B0641523207424S11657243EA0148001487000000000000
B0641563207459S11657172EA0146701473000004000000
B0642003207492S11657096EA0145701466000004000000
B0642043207523S11657023EA0145001459000004000000
B0642083207557S11656953EA0144201449000000000000
B0642123207592S11656884EA0143401438000000000000
B0642163207623S11656810EA0142501433000004000000
B0642203207655S11656737EA0142601437000000000000
B0642243207687S11656666EA0143401441000000000000
B0642283207693S11656588EA0143201439000000000000
B0642323207705S11656509EA0142901438000000000000
B0642363207726S11656433EA0142501433000000000000
B0642403207755S11656358EA0141501418000000000000
B0642443207792S11656282EA0140401406000000000000
B0642483207830S11656208EA0139301392000000000000
B0642523207865S11656130EA0137901375000000000000
B0642563207895S11656048EA0136501367000000000000
B0643003207917S11655964EA0136001361000000000000
B0643043207930S11655879EA0135401363000000000000
B0643083207940S11655801EA0136401373000004000000
B0643123207948S11655726EA0136001366000004000000
B0643163207958S11655647EA0135101355000004000000
B0643203207978S11655567EA0134601348000004000000
B0643243207996S11655487EA0134101343000004000000
B0643283208017S11655402EA0133101331000004000000
B0643323208040S11655317EA0132601331000004000000
B0643363208065S11655236EA0132601329000000000000
B0643403208093S11655161EA0132201326000000000000
B0643443208121S11655093EA0132201328000000000000
B0643483208148S11655027EA0131501318000000000000
B0643523208170S11654955EA0130901310000000000000
B0643563208182S11654876EA0130001302000000000000
B0644003208188S11654794EA0129801304000000000000
B0644043208197S11654712EA0130301310000000000000
B0644083208177S11654638EA0131701328000004000000
B0644123208114S11654616EA0133501345000004000000
B0644163208052S11654659EA0134501353000000000000
B0644203208018S11654741EA0135101361000000000000
B0644243208022S11654823EA0135501364000000000000
B0644283208057S11654886EA0135601363000000000000
B0644323208110S11654919EA0135401361000004000000
B0644363208169S11654920EA0135301362000000000000
B0644403208222S11654898EA0135401363000000000000
B0644443208265S11654855EA0135801368000004000000
B0644483208255S11654797EA0136801382000004000000
B0644523208197S11654778EA0137301379000004000000
B0644563208136S11654826EA0137001378000004000000
B0645003208114S11654914EA0137501387000004000000
B0645043208145S11654989EA0138401398000004015000
B0645083208203S11655006EA0139701410000004015000
B0645123208246S11654972EA0140301411000004015000
B0645163208253S11654914EA0140601415000004015000
B0645203208220S11654860EA0140901415000004015000
B0645243208153S11654842EA0140701411000004015000
B0645283208084S11654877EA0140701416000004015000
B0645323208041S11654953EA0141201419000004015000
B0645363208028S11655046EA0141301419000000015000
B0645403208047S11655137EA0141401420000004000000
B0645443208105S11655193EA0141501426000004000000
B0645483208168S11655193EA0142401439000004015000
B0645523208195S11655145EA0143501446000004015000
B0645563208173S11655092EA0143901450000004015000
B0646003208116S11655072EA0144601458000004015000
B0646043208053S11655102EA0145101461000004015000
B0646083208017S11655175EA0145701470000000015000
B0646123208017S11655258EA0146601477000004015000
B0646163208054S11655319EA0147201481000004015000
B0646203208110S11655335EA0147201482000004015000
B0646243208158S11655311EA0147501486000004015000
B0646283208170S11655259EA0148101489000000015000
B0646323208142S11655210EA0148201490000004015000
B0646363208084S11655189EA0148601494000004015000
B0646403208018S11655210EA0148901495000004015000
B0646443207973S11655278EA0149201500000004015000
B0646483207991S11655358EA0149401498000004015000
B0646523208051S11655387EA0149401504000004000000
B0646563208096S11655356EA0150101512000000015000
B0647003208097S11655297EA0150801517000004015000
B0647043208049S11655259EA0151401527000004015000
B0647083207986S11655278EA0152401533000004015000
B0647123207934S11655340EA0152501533000004015000
B0647163207908S11655422EA0152801538000000015000
B0647203207906S11655502EA0153201541000000000000
B0647243207926S11655577EA0152901535000000000000
B0647283207970S11655638EA0152501531000004000000
B0647323208031S11655669EA0152201529000000000000
B0647363208093S11655661EA0152001526000000000000
B0647403208142S11655621EA0151601523000000000000
B0647443208171S11655562EA0151201518000004000000
B0647483208178S11655488EA0150501511000004000000
B0647523208170S11655410EA0150501516000004000000
B0647563208160S11655333EA0151201524000004000000
B0648003208142S11655259EA0151701526000004000000
B0648043208118S11655183EA0151401522000004000000
B0648083208088S11655106EA0150701515000000000000
B0648123208051S11655032EA0150501512000004000000
B0648163208019S11654955EA0150101509000004000000
B0648203207989S11654880EA0149801505000004000000
B0648243207962S11654806EA0149701508000004000000
B0648283207936S11654738EA0150401514000004000000
B0648323207909S11654674EA0150301510000004000000
B0648363207883S11654608EA0149701502000000000000
B0648403207858S11654539EA0149101496000000000000
B0648443207835S11654469EA0148601490000000000000
B0648483207810S11654396EA0148301490000000000000
B0648523207785S11654323EA0148701492000004000000
B0648563207757S11654254EA0148201485000004000000
B0649003207729S11654182EA0147501480000004000000
B0649043207709S11654104EA0147401480000004000000
B0649083207683S11654028EA0148001490000000000000
B0649123207655S11653955EA0149001496000000000000
B0649163207601S11653910EA0149601499000000000000
B0649203207532S11653922EA0149501499000000000000
B0649243207485S11653994EA0148901493000000000000
B0649283207486S11654087EA0148801494000000000000
B0649323207521S11654165EA0148601489000000000000
B0649363207575S11654228EA0147901480000000000000
B0649403207631S11654299EA0147001473000000000000
B0649443207683S11654382EA0147201479000004000000
B0649483207731S11654470EA0146901474000000000000
B0649523207771S11654569EA0146001462000004000000
B0649563207806S11654676EA0145201457000004000000
B0650003207839S11654784EA0145101455000004000000
B0650043207866S11654891EA0144801454000000000000
B0650083207887S11654994EA0145501468000000000000
B0650123207902S11655093EA0146001462000004000000
B0650163207919S11655196EA0145001451000004000000
B0650203207943S11655297EA0144101446000004000000
B0650243207969S11655395EA0144101447000000000000
B0650283207989S11655489EA0143901444000000000000
B0650323208006S11655586EA0143701443000004000000
B0650363208019S11655681EA0143501440000000000000
B0650403208034S11655777EA0143201435000000000000
B0650443208051S11655872EA0143001435000000000000
B0650483208067S11655968EA0142901433000000000000
B0650523208082S11656064EA0142801433000000000000
B0650563208101S11656160EA0142901437000004000000
B0651003208134S11656243EA0143701445000000000000
B0651043208192S11656273EA0144901461000004000000
B0651083208238S11656245EA0146101471000000000000
B0651123208253S11656190EA0147001477000000000000
B0651163208229S11656134EA0147101477000000000000
B0651203208166S11656107EA0147001474000000000000
B0651243208093S11656121EA0146701475000000000000
B0651283208040S11656189EA0147301483000000000000
B0651323208028S11656277EA0147701483000000000000
B0651363208058S11656357EA0147601481000004000000
B0651403208117S11656406EA0147201478000000000000
B0651443208186S11656432EA0147001473000000000000
B0651483208256S11656435EA0147201478000004000000
B0651523208304S11656392EA0147401478000004000000
B0651563208318S11656323EA0146601468000000000000
B0652003208322S11656245EA0145301452000004000000
B0652043208318S11656162EA0144801455000004000000
B0652083208320S11656077EA0145001454000004000000
B0652123208326S11655990EA0144701453000000000000
B0652163208342S11655905EA0143901442000000000000
B0652203208376S11655827EA0143201440000000000000
B0652243208416S11655759EA0143301440000000000000
B0652283208456S11655692EA0143001438000000000000
B0652323208502S11655630EA0142801431000000000000
B0652363208555S11655571EA0141601415000000000000
B0652403208621S11655525EA0140501404000000000000
B0652443208689S11655479EA0139701399000000000000
B0652483208747S11655421EA0139501399000000000000
B0652523208807S11655361EA0140001403000000000000
B0652563208855S11655293EA0141201418000004000000
B0653003208849S11655222EA0142701437000004000000
B0653043208792S11655181EA0143101437000000000000
B0653083208715S11655196EA0143001434000000000000
B0653123208652S11655262EA0142701433000000000000
B0653163208607S11655346EA0143101444000000000000
B0653203208578S11655436EA0144201453000000000000
B0653243208577S11655527EA0144401448000000000000
B0653283208608S11655609EA0143401439000000000000
B0653323208655S11655677EA0142901435000000000000
B0653363208715S11655730EA0142301426000000000000
B0653403208784S11655751EA0142501434000000000000
B0653443208846S11655735EA0143401443000000000000
B0653483208899S11655701EA0143801446000000000000
B0653523208944S11655657EA0144201452000004000000
B0653563208980S11655601EA0144101446000004000000
B0654003209006S11655535EA0142701429000004000000
B0654043209031S11655461EA0141601418000000000000
B0654083209050S11655379EA0140601407000000000000
B0654123209072S11655291EA0139501397000000000000
B0654163209097S11655202EA0139701405000000000000
B0654203209124S11655116EA0139501397000000000000
B0654243209145S11655025EA0139801399000000000000
B0654283209115S11654947EA0141801430000000000000
B0654323209042S11654958EA0144301455000000000000
B0654363209031S11655046EA0146301478000000000000
B0654403209078S11655105EA0148001489000000000000
B0654443209135S11655092EA0148701496000004000000
B0654483209135S11655037EA0149901514000000015000
B0654523209080S11655021EA0151001522000000015000
B0654563209026S11655077EA0151801531000000015000
B0655003209035S11655163EA0153401552000000015000
B0655043209091S11655196EA0155001564000004000000
B0655083209132S11655162EA0156001571000000015000
B0655123209115S11655111EA0156901578000000015000
B0655163209054S11655112EA0157601585000000015000
B0655203209011S11655185EA0158301592000000015000
B0655243209033S11655276EA0159301606000000015000
B0655283209097S11655317EA0160301618000000000000
B0655323209159S11655304EA0161001616000000015000
B0655363209202S11655250EA0160501608000000015000
B0655403209204S11655176EA0159601603000000015000
B0655443209179S11655103EA0159201603000000015000
B0655483209137S11655041EA0160001613000000000000
B0655523209068S11655023EA0161501633000000000000
B0655563209011S11655079EA0163701655000004000000
B0656003208989S11655164EA0164801658000004000000
B0656043209006S11655254EA0165101663000004000000
B0656083209068S11655293EA0165801677000000000000
B0656123209109S11655254EA0167201686000000015000
B0656163209097S11655197EA0167401686000000015000
B0656203209037S11655177EA0167701693000000015000
B0656243208967S11655214EA0168401690000000015000
B0656283208909S11655291EA0167801688000004000000
B0656323208883S11655398EA0168501702000000000000
B0656363208898S11655505EA0170801727000000015000
B0656403208964S11655539EA0173401754000000015000
B0656443209000S11655492EA0175201772000000015000
B0656483208975S11655437EA0176301782000000015000
B0656523208910S11655427EA0177101791000000015000
B0656563208850S11655482EA0178301805000000015000
B0657003208840S11655575EA0179801821000000015000
B0657043208880S11655647EA0181201830000000015000
B0657083208942S11655671EA0181801831000000015000
B0657123209003S11655649EA0181801833000004015000
B0657163209052S11655595EA0182001836000004015000
B0657203209084S11655526EA0182101836000004000000
B0657243209105S11655449EA0181501828000004000000
B0657283209117S11655362EA0181201826000000000000
B0657323209118S11655270EA0181201828000000000000
B0657363209119S11655175EA0181501833000000000000
B0657403209122S11655076EA0181901828000000000000
B0657443209128S11654975EA0181401825000000000000
B0657483209131S11654871EA0180501814000004000000
B0657523209133S11654767EA0179801810000000000000
B0657563209137S11654663EA0179401803000004000000
B0658003209144S11654555EA0178401794000004000000
B0658043209152S11654446EA0177801789000004000000
B0658083209163S11654336EA0177001780000000000000
B0658123209178S11654228EA0176401775000000000000
B0658163209195S11654123EA0176001769000000000000
B0658203209209S11654017EA0174801751000000000000
B0658243209217S11653903EA0173401738000000000000
B0658283209219S11653788EA0171801724000000000000
B0658323209219S11653673EA0171401725000004000000
B0658363209218S11653565EA0171601727000000000000
B0658403209214S11653463EA0171901732000000000000
B0658443209210S11653365EA0172601739000000000000
B0658483209202S11653270EA0173001745000000000000
B0658523209193S11653178EA0173801755000000000000
B0658563209182S11653090EA0174201752000000000000
B0659003209171S11652996EA0173201739000004000000
B0659043209157S11652897EA0172901738000000000000
B0659083209135S11652793EA0172101727000000000000
B0659123209110S11652687EA0170801715000004000000
B0659163209080S11652584EA0170201713000000000000
B0659203209049S11652488EA0170601718000004000000
B0659243209018S11652392EA0170201710000000000000
B0659283208983S11652294EA0169601705000004000000
B0659323208946S11652198EA0168901694000004000000
B0659363208909S11652103EA0168501695000000000000
B0659403208873S11652011EA0168501696000004000000
B0659443208849S11651916EA0168201687000000000000
B0659483208829S11651816EA0167001676000004000000
B0659523208810S11651714EA0165101653000004000000
B0659563208795S11651610EA0164501654000004000000
B0700003208784S11651511EA0164601651000004000000
B0700043208772S11651413EA0163901644000004000000
B0700083208754S11651314EA0163201638000004000000
B0700123208736S11651215EA0163401642000004000000
B0700163208712S11651120EA0163101640000000000000
B0700203208688S11651028EA0162801635000000000000
B0700243208664S11650936EA0161901623000004000000
B0700283208639S11650839EA0160901607000004000000
B0700323208613S11650742EA0159401594000000000000
B0700363208585S11650644EA0158101581000000000000
B0700403208555S11650546EA0156601565000004000000
B0700443208524S11650448EA0155801565000004000000
B0700483208494S11650353EA0155501557000000000000
B0700523208464S11650258EA0154901553000000000000
B0700563208430S11650165EA0154401543000000000000
B0701003208394S11650072EA0153501537000000000000
B0701043208359S11649981EA0153001537000004000000
B0701083208327S11649892EA0152801532000004000000
B0701123208303S11649801EA0152401526000000000000
B0701163208281S11649710EA0151201511000004000000
B0701203208256S11649617EA0149401489000004000000
B0701243208223S11649522EA0147401472000004000000
B0701283208190S11649431EA0146401468000004000000
B0701323208157S11649343EA0146001460000004000000
B0701363208126S11649255EA0145001447000004000000
B0701403208091S11649164EA0143901435000000000000
B0701443208049S11649077EA0143301433000000000000
B0701483208005S11648995EA0142901427000004000000
B0701523207958S11648914EA0141901416000004000000
B0701563207910S11648836EA0141101410000000000000
B0702003207862S11648763EA0141701419000000000000
B0702043207804S11648707EA0142501429000000000000
B0702083207732S11648683EA0143401437000000000000
B0702123207651S11648700EA0143801437000000000000
B0702163207577S11648765EA0143501432000000000000
B0702203207529S11648863EA0142901430000000000000
B0702243207505S11648978EA0142601425000000000000
B0702283207502S11649101EA0141501407000000000000
B0702323207506S11649230EA0140401403000000000000
B0702363207511S11649363EA0139801400000004000000
B0702403207520S11649493EA0140101405000000000000
B0702443207531S11649617EA0140801417000004000000
B0702483207540S11649737EA0142101433000000000000
B0702523207545S11649849EA0143801451000000000000
B0702563207549S11649954EA0145001460000000000000
B0703003207551S11650057EA0145701465000000000000
B0703043207555S11650161EA0145601460000000000000
B0703083207557S11650267EA0144701448000000000000
B0703123207558S11650374EA0143801441000000000000
B0703163207563S11650481EA0143001432000000000000
B0703203207568S11650588EA0142701434000000000000
B0703243207575S11650694EA0143001435000004000000
B0703283207576S11650799EA0142801428000000000000
B0703323207576S11650910EA0141401411000000000000
B0703363207576S11651023EA0140101400000000000000
B0703403207579S11651134EA0139101391000000000000
B0703443207581S11651249EA0137801376000000000000
B0703483207583S11651366EA0136701367000000000000
B0703523207584S11651480EA0136701370000000000000
B0703563207585S11651592EA0136601368000000000000
B0704003207589S11651704EA0136801373000004000000
B0704043207594S11651810EA0138101395000004000000
B0704083207607S11651908EA0140201405000004000000
B0704123207657S11651978EA0140001400000000000000
B0704163207727S11651996EA0139801402000000000000
B0704203207792S11651974EA0140201407000000000000
B0704243207839S11651924EA0141201417000004000000
B0704283207849S11651848EA0141501418000004000000
B0704323207818S11651774EA0141301417000000000000
B0704363207755S11651725EA0141301418000000000000
B0704403207677S11651708EA0141601423000000000000
B0704443207594S11651723EA0141901424000000000000
B0704483207518S11651769EA0142601435000000000000
B0704523207459S11651834EA0143801449000000000000
B0704563207425S11651918EA0144601456000000000000
B0705003207445S11652002EA0145701469000000000000
B0705043207501S11652042EA0146001467000000000000
B0705083207563S11652029EA0145601462000000000000
B0705123207610S11651978EA0145701466000000015000
B0705163207625S11651912EA0146501477000000000000
B0705203207585S11651853EA0147401485000000015000
B0705243207518S11651833EA0147701483000000015000
B0705283207442S11651856EA0147601483000000015000
B0705323207373S11651911EA0147701484000000000000
B0705363207321S11651986EA0148001489000000000000
B0705403207290S11652073EA0148901500000004000000
B0705443207280S11652163EA0149501505000004000000
B0705483207287S11652250EA0149301502000004000000
B0705523207308S11652334EA0149001497000004000000
B0705563207336S11652419EA0148401489000004000000
B0706003207369S11652502EA0147201476000004000000
B0706043207410S11652588EA0145801462000004000000
B0706083207454S11652675EA0144801453000004000000
B0706123207495S11652767EA0144101447000004000000
B0706163207533S11652861EA0143701444000004000000
B0706203207570S11652957EA0143601443000004000000
B0706243207606S11653055EA0143901446000000000000
B0706283207649S11653148EA0143701440000000000000
B0706323207692S11653246EA0143401441000000000000
B0706363207728S11653344EA0144401458000000000000
B0706403207783S11653406EA0146701480000000000000
B0706443207835S11653382EA0148601496000004000000
B0706483207831S11653328EA0149501505000004000000
B0706523207785S11653294EA0150001509000004000000
B0706563207723S11653308EA0150501514000004000000
B0707003207675S11653369EA0150701515000004000000
B0707043207648S11653454EA0150801519000004000000
B0707083207651S11653542EA0151301520000000000000
B0707123207692S11653616EA0150801513000000000000
B0707163207744S11653679EA0150401510000004000000
B0707203207794S11653745EA0149901505000000000000
B0707243207841S11653820EA0149301498000000000000
B0707283207887S11653901EA0148401487000000000000
B0707323207927S11653989EA0147401479000000000000
B0707363207960S11654083EA0146701465000000000000
B0707403207993S11654179EA0145101452000000000000
B0707443208026S11654278EA0144301445000004000000
B0707483208052S11654379EA0143801443000000000000
B0707523208071S11654483EA0144101447000004000000
B0707563208100S11654582EA0145001458000004000000
B0708003208157S11654643EA0145801463000004000000
B0708043208223S11654672EA0145401459000004000000
B0708083208292S11654708EA0144301443000004000000
B0708123208361S11654765EA0143301431000004000000
B0708163208428S11654830EA0142301423000004000000
B0708203208496S11654895EA0141701418000000000000
B0708243208565S11654960EA0141201411000000000000
B0708283208634S11655021EA0141101416000000000000
B0708323208702S11655070EA0142501434000000000000
B0708363208769S11655092EA0143401436000000000000
B0708403208836S11655072EA0142701426000000000000
B0708443208881S11655011EA0142201423000000000000
B0708483208890S11654933EA0141801420000000000000
B0708523208858S11654865EA0141401415000000000000
B0708563208793S11654828EA0140401400000000000000
B0709003208712S11654837EA0138901389000000000000
B0709043208641S11654890EA0138101384000000000000
B0709083208589S11654967EA0137901385000004000000
B0709123208554S11655050EA0137901383000000000000
B0709163208520S11655135EA0136801364000004000000
B0709203208496S11655236EA0134301340000004000000
B0709243208481S11655345EA0133401336000004000000
B0709283208467S11655454EA0132701326000004000000
B0709323208451S11655566EA0132401325000004000000
B0709363208442S11655679EA0132401327000004000000
B0709403208439S11655788EA0132901338000000000000
B0709443208442S11655892EA0133401336000004000000
B0709483208446S11655998EA0132401325000000000000
B0709523208450S11656104EA0131701322000004000000
B0709563208459S11656207EA0131901322000000000000
B0710003208476S11656303EA0131701322000004000000
B0710043208504S11656396EA0131901324000004000000
B0710083208539S11656483EA0131701320000000000000
B0710123208569S11656576EA0131401316000004000000
B0710163208587S11656674EA0130801311000000000000
B0710203208597S11656775EA0130101302000004000000
B0710243208599S11656875EA0129301294000004000000
B0710283208606S11656977EA0128701291000000000000
B0710323208625S11657077EA0128001279000000000000
B0710363208646S11657182EA0127501278000000000000
B0710403208684S11657280EA0129201304000000000000
B0710443208747S11657307EA0132101331000000000000
B0710483208754S11657257EA0134001351000004000000
B0710523208699S11657246EA0135001357000004015000
B0710563208646S11657299EA0135801366000004000000
B0711003208651S11657384EA0137301385000004015000
B0711043208703S11657411EA0138301388000004015000
B0711083208730S11657368EA0139001400000004015000
B0711123208689S11657328EA0139301397000000015000
B0711163208620S11657360EA0139701409000004015000
B0711203208582S11657442EA0141501426000000015000
B0711243208621S11657495EA0142801435000000015000
B0711283208660S11657462EA0143301440000000015000
B0711323208654S11657398EA0143701445000000015000
B0711363208599S11657361EA0144701453000000015000
B0711403208545S11657417EA0145501466000000015000
B0711443208569S11657493EA0146801483000000015000
B0711483208623S11657490EA0148401498000000015000
B0711523208630S11657436EA0150001508000004015000
B0711563208577S11657403EA0151101514000000015000
B0712003208513S11657442EA0151701526000004015000
B0712043208508S11657527EA0153001540000000015000
B0712083208561S11657564EA0154101550000000015000
B0712123208610S11657530EA0155801567000000015000
B0712163208593S11657467EA0156801577000000015000
B0712203208526S11657437EA0157501583000004015000
B0712243208455S11657465EA0159001601000004015000
B0712283208409S11657538EA0160101618000000015000
B0712323208403S11657624EA0162301644000004015000
B0712363208438S11657692EA0164101654000000015000
B0712403208499S11657707EA0164401655000000015000
B0712443208545S11657667EA0165501675000000015000
B0712483208537S11657608EA0167701697000000015000
B0712523208480S11657580EA0169001701000000015000
B0712563208416S11657616EA0170301718000000015000
B0713003208404S11657697EA0170801720000000015000
B0713043208443S11657764EA0171201725000000015000
B0713083208506S11657787EA0171601729000000015000
B0713123208563S11657757EA0172001736000004015000
B0713163208584S11657689EA0173001744000000015000
B0713203208558S11657620EA0173501748000000015000
B0713243208504S11657564EA0174101754000000015000
B0713283208444S11657514EA0174901764000000000000
B0713323208383S11657468EA0176101775000000000000
B0713363208322S11657428EA0176001771000004000000
B0713403208264S11657378EA0175201760000004000000
B0713443208216S11657317EA0174501756000004000000
B0713483208171S11657252EA0174001751000004000000
B0713523208136S11657182EA0173801749000004000000
B0713563208100S11657113EA0173701743000000000000
B0714003208039S11657064EA0172501730000000000000
B0714043207971S11657017EA0171501722000000000000
B0714083207905S11656966EA0171101720000004000000
B0714123207843S11656912EA0171301720000004000000
B0714163207772S11656886EA0171701726000004000000
B0714203207705S11656925EA0171801725000000000000
B0714243207677S11657016EA0171101712000000000000
B0714283207710S11657113EA0170101704000000000000
B0714323207788S11657156EA0169501701000000000000
B0714363207869S11657139EA0168901698000000015000
B0714403207927S11657081EA0168801697000004015000
B0714443207952S11657001EA0168901702000000015000
B0714483207940S11656926EA0169601709000000015000
B0714523207905S11656865EA0169801709000004000000
B0714563207856S11656815EA0169301700000004000000
B0715003207798S11656765EA0168401692000004000000
B0715043207735S11656723EA0167901690000004000000
B0715083207663S11656696EA0167801690000004000000
B0715123207585S11656693EA0167401683000004000000
B0715163207503S11656714EA0166701676000004000000
B0715203207425S11656750EA0166601675000000000000
B0715243207363S11656814EA0166301671000000000000
B0715283207304S11656891EA0165001655000004000000
B0715323207242S11656971EA0163901641000000000000
B0715363207176S11657055EA0162801630000000000000
B0715403207126S11657150EA0162601634000000000000
B0715443207128S11657254EA0162801633000000000000
B0715483207181S11657334EA0161801621000000000000
B0715523207256S11657390EA0160701610000000000000
B0715563207333S11657447EA0160101607000000000000
B0716003207407S11657503EA0160301612000000000000
B0716043207456S11657577EA0161301629000004000000
B0716083207442S11657662EA0162201625000000000000
B0716123207372S11657679EA0161101609000004000000
B0716163207323S11657616EA0159801596000000000000
B0716203207312S11657528EA0158701587000004000000
B0716243207319S11657441EA0158601593000004000000
B0716283207313S11657361EA0159101604000000000000
B0716323207303S11657289EA0159501605000004000000
B0716363207299S11657218EA0159501604000004000000
B0716403207316S11657152EA0159101596000004000000
B0716443207371S11657104EA0157701575000004000000
B0716483207437S11657061EA0155701557000004000000
B0716523207511S11657021EA0154801554000004000000
B0716563207589S11657020EA0155401567000004000000
B0717003207633S11657090EA0156801584000004000000
B0717043207605S11657165EA0157701576000004000000
B0717083207534S11657168EA0155901554000004000000
B0717123207482S11657107EA0154201543000000000000
B0717163207459S11657021EA0153201534000000000000
B0717203207462S11656930EA0152701535000000000000
B0717243207476S11656843EA0153201541000004000000
B0717283207494S11656758EA0153101538000004000000
B0717323207529S11656680EA0152601529000000000000
B0717363207588S11656618EA0151301513000000000000
B0717403207668S11656588EA0150001504000000000000
B0717443207758S11656585EA0149101490000000000000
B0717483207846S11656610EA0148301485000000000000
B0717523207931S11656653EA0147701481000000000000
B0717563208014S11656696EA0147101474000000000000
B0718003208100S11656741EA0145701459000000000000
B0718043208187S11656787EA0144701450000000000000
B0718083208272S11656830EA0144801452000000000000
B0718123208352S11656852EA0145301462000000000000
B0718163208428S11656849EA0145601464000000000000
B0718203208491S11656823EA0145501462000004000000
B0718243208539S11656769EA0144001445000000000000
B0718283208563S11656685EA0142601428000000000000
B0718323208563S11656593EA0141501423000000000000
B0718363208543S11656506EA0141801428000000000000
B0718403208504S11656429EA0141901427000000000000
B0718443208438S11656379EA0141401422000000000000
B0718483208355S11656370EA0141201421000000000000
B0718523208273S11656396EA0141101418000000000000
B0718563208200S11656451EA0140901413000000000000
B0719003208148S11656535EA0140101406000000000000
B0719043208108S11656628EA0139201395000000000000
B0719083208071S11656727EA0138201384000000000000
B0719123208041S11656831EA0137001372000000000000
B0719163208012S11656936EA0135701358000000000000
B0719203207984S11657042EA0134801352000000000000
B0719243207952S11657143EA0134601353000000000000
B0719283207889S11657216EA0134701346000000000000
B0719323207804S11657244EA0133601332000000000000
B0719363207720S11657218EA0132701325000000000000
B0719403207655S11657163EA0131901317000000000000
B0719443207607S11657088EA0130801304000004000000
B0719483207577S11656999EA0129101285000000000000
B0719523207559S11656905EA0127801275000004000000
B0719563207547S11656813EA0126601266000000000000
B0720003207554S11656722EA0126101262000000000000
B0720043207583S11656643EA0126001261000000000000
B0720083207635S11656584EA0125801258000000000000
B0720123207697S11656542EA0125501255000000000000
B0720163207761S11656507EA0124901248000004000000
B0720203207827S11656479EA0124301241000004000000
B0720243207897S11656461EA0123701237000004000000
B0720283207962S11656440EA0123501238000000000000
B0720323208017S11656402EA0123301234000000000000
B0720363208061S11656347EA0122301224000000000000
B0720403208097S11656282EA0121801218000000000000
B0720443208123S11656212EA0121301215000000000000
B0720483208134S11656137EA0120701203000000000000
B0720523208121S11656055EA0119601194000000000000
B0720563208099S11655974EA0119401198000004000000
B0721003208079S11655895EA0119901201000000000000
B0721043208070S11655813EA0119801198000000000000
B0721083208083S11655729EA0119901200000000000000
B0721123208112S11655651EA0120001201000000000000
B0721163208145S11655574EA0120701212000000000000
B0721203208177S11655504EA0122101227000000000000
B0721243208208S11655441EA0123201238000000000000
B0721283208235S11655383EA0123801239000000000000
B0721323208252S11655317EA0123401231000000000000
B0721363208240S11655244EA0122401219000000000000
B0721403208188S11655180EA0121201212000000000000
B0721443208110S11655155EA0121101212000000000000
B0721483208030S11655194EA0120801204000000000000
B0721523207974S11655280EA0119601189000000000000
B0721563207956S11655387EA0118201173000004000000
B0722003207952S11655501EA0116301154000004000000
B0722043207956S11655619EA0114801139000004000000
B0722083207961S11655743EA0113701132000004000000
B0722123207965S11655865EA0113601131000000000000
B0722163207966S11655987EA0113301129000004000000
B0722203207967S11656110EA0113201128000004000000
B0722243207976S11656230EA0113201129000004000000
B0722283207988S11656355EA0113001125000004000000
B0722323207997S11656481EA0112801123000004000000
B0722363207995S11656609EA0112301114000004000000
B0722403207997S11656736EA0111301105000004000000
B0722443208004S11656860EA0110401095000004000000
B0722483208012S11656982EA0109401086000000000000
B0722523207996S11657105EA0108601077000000000000
B0722563207945S11657217EA0107601066000000000000
B0723003207870S11657306EA0106201051000000000000
B0723043207771S11657359EA0104901038000000000000
B0723083207674S11657410EA0103901025000004000000
B0723123207573S11657428EA0103101026000000000000
B0723163207489S11657394EA0103201029000000000000
B0723203207441S11657326EA0103801035000000000000
B0723243207419S11657251EA0103501026000004000000
B0723283207416S11657170EA0102401016000004000000
B0723323207417S11657088EA0101601006000004000000
B0723363207417S11657004EA0100200993000000000000
B0723403207425S11656919EA0099400988000000000000
B0723443207445S11656843EA0099400989000004000000
B0723483207473S11656774EA0099100986000000000000
B0723523207505S11656708EA0098800981000000000000
B0723563207534S11656641EA0098100971000004000000
B0724003207568S11656572EA0096900960000004000000
B0724043207606S11656502EA0096500958000004000000
B0724083207650S11656442EA0096500961000004000000
B0724123207713S11656419EA0097400973000004000000
B0724163207774S11656453EA0098500982000004000000
B0724203207801S11656540EA0098900981000004000000
B0724243207807S11656640EA0098300976000004000000
B0724283207819S11656739EA0097900969000000000000
B0724323207827S11656840EA0097400969000004000000
B0724363207810S11656942EA0097500967000004000000
B0724403207787S11657043EA0096900958000000000000
B0724443207748S11657133EA0095900952000000000000
B0724483207683S11657176EA0095900956000000000000
B0724523207622S11657166EA0095900948000000000000
B0724563207575S11657124EA0094200926000000000000
B0725003207534S11657065EA0092300913000000000000
B0725043207502S11656994EA0091400903000000000000
B0725083207488S11656913EA0090400889000004000000
B0725123207489S11656826EA0089200879000004000000
B0725163207499S11656736EA0088300872000000000000
B0725203207518S11656649EA0087600865000000000000
B0725243207540S11656561EA0086800856000000000000
B0725283207566S11656476EA0086500858000000000000
B0725323207599S11656396EA0086300852000000000000
B0725363207637S11656321EA0085400840000000000000
B0725403207685S11656255EA0083900826000000000000
B0725443207745S11656206EA0083000818000000000000
B0725483207810S11656171EA0082300810000004000000
B0725523207875S11656139EA0081300798000000000000
B0725563207939S11656098EA0080300790000000000000
B0726003207996S11656054EA0079600785000000000000
B0726043208053S11656013EA0078500771000000000000
B0726083208109S11655980EA0076900755000000000000
B0726123208164S11655952EA0075100736000000000000
B0726163208221S11655930EA0072800712000000000000
B0726203208278S11655922EA0070600690000000000000
B0726243208337S11655938EA0068900667000000000000
B0726283208394S11655974EA0066500643000000000000
B0726323208443S11656032EA0063900615000000000000
B0726363208470S11656117EA0061500594000000000000
B0726403208461S11656221EA0059700577000000000000
B0726443208426S11656325EA0058100559000000000000
B0726483208387S11656425EA0055900535000000000000
B0726523208346S11656520EA0053900519000000000000
B0726563208304S11656609EA0052800501000000000000
B0727003208260S11656693EA0051000484000000000000
B0727043208216S11656774EA0049600470000000000000
B0727083208170S11656851EA0048100456000000000000
B0727123208123S11656930EA0046700443000000000000
B0727163208078S11657012EA0045700433000004000000
B0727203208035S11657099EA0044600422000004000000
B0727243207995S11657189EA0043500410000004000000
B0727283207956S11657283EA0042700401000004000000
B0727323207914S11657376EA0041900392000000000000
B0727363207866S11657465EA0040900382000000000000
B0727403207811S11657553EA0040100374000000000000
B0727443207741S11657623EA0039800373000000000000
B0727483207657S11657663EA0039200366000004000000
B0727523207571S11657675EA0038000353000004000000
B0727563207493S11657650EA0036700338000004000000
B0728003207428S11657597EA0035200323000004000000
B0728043207384S11657525EA0034100310000000000000
B0728083207373S11657449EA0033100305000000000000
B0728123207385S11657377EA0032300298000000000000
B0728163207408S11657312EA0031300286000004000000
B0728203207433S11657247EA0030300274000004000000
B0728243207458S11657181EA0029200262000000000000
B0728283207479S11657114EA0027700246000000000000
B0728323207501S11657047EA0026000232000000000000
B0728363207523S11656978EA0024400215000000000000
B0728403207542S11656914EA0023300205000004000000
B0728443207559S11656861EA0022900204000000000000
B0728483207572S11656818EA0022900204000000000000
B0728523207581S11656782EA0022800203000000000000
B0728563207584S11656757EA0022800203000000000000
B0729003207583S11656743EA0022700203000000000000
B0729043207581S11656739EA0022700203000000000000
B0729083207581S11656739EA0022700203000000000000
B0729123207581S11656740EA0022700203000004000000
B0729163207581S11656740EA0022800203000004000000
B0729203207581S11656740EA0022700203000004000000
B0729243207581S11656740EA0022700203000004000000
B0729283207581S11656740EA0022700203000004000000
G00030000003456DC710000000000000000000000000000000000000000000000
G7B0113CEDEE4F424FF9F47B7EA23923AD18438180000000048205625C681308F
G2BF8946A6F8EB51D067B91C7FCCC27EB9615DA1600000000000000004A249FA2
