ACAM4N6
HFDTE270221
HFFXA050
HFPLTPILOT:JOHN WELSH              
HFGTYGLIDERTYPE:HORNET      
HFGIDGLIDERID:VH-GMY      
HFDTM100GPSDATUM:
HFRFWFIRMWAREVERSION:F2.6
HFRHWHARDWAREVERSION:300 Series Version 2
HFFTYFRTYPE:CAMBRIDGE AERO INSTRUMENTS, 302+
HFGPS:GARMIN,LVS-25,12,18000
HFPRSPRESSALTSENSOR:INTERSEMA, MS5534-AP, 20000
I033638FXA3941ENL4247REX
LCAMSBVER:5FWVER:F26300
C270221051021270221000102
C0000000N00000000WTAKEOFF     
C3207549S11656849EBEVAIR      
C3251466S11653683ECongel      
C3207499S11801415EBabakin     
C3207549S11656849EBEVAIR      
C0000000N00000000WLANDING     
B0511213207339S11656858EA0024200204000000000000
B0511233207339S11656858EA0024300204000000000000
B0511253207339S11656858EA0024200204000000000000
B0511273207339S11656858EA0024300204000000000000
B0511293207339S11656858EA0024200204000000000000
B0511313207339S11656858EA0024300204000000000000
B0511333207339S11656858EA0024200204000000000000
B0511353207339S11656858EA0024200204000000000000
B0511373207339S11656858EA0024300204000000000000
B0511393207339S11656858EA0024300204000000000000
B0511413207339S11656858EA0024200204000000000000
B0511433207339S11656858EA0024200204000000000000
B0511453207339S11656858EA0024300204000000000000
B0511473207339S11656860EA0024300204000000000000
B0511493207342S11656861EA0024200204000000000000
B0511503207345S11656864EA0024300204000000000000
B0511543207364S11656878EA0024300203000000000000
B0511583207398S11656904EA0024400204000000000000
B0512023207443S11656934EA0024500204000000000000
B0512063207499S11656969EA0024700206000000000000
B0512103207559S11657005EA0025300216000000000000
B0512143207615S11657043EA0026000224000000000000
B0512183207667S11657077EA0027700244000000000000
B0512223207718S11657114EA0028800252000000000000
B0512263207772S11657155EA0029800265000000000000
B0512303207827S11657196EA0031300279000000000000
B0512343207880S11657235EA0033100302000000000000
B0512383207930S11657272EA0035100323000000000000
B0512423207978S11657313EA0036600334000000000000
B0512463208012S11657372EA0038200351000000000000
B0512503208021S11657442EA0040300367000000000000
B0512543208012S11657512EA0042300385000000000000
B0512583207983S11657585EA0043000387000000000000
B0513023207931S11657651EA0043200396000000000000
B0513063207857S11657697EA0044600417000000000000
B0513103207771S11657710EA0047000444000000000000
B0513143207685S11657681EA0049200466000000000000
B0513183207612S11657621EA0051400493000000000000
B0513223207557S11657543EA0053700512000000000000
B0513263207515S11657450EA0054900521000000000000
B0513303207499S11657343EA0055500532000000000000
B0513343207519S11657244EA0057100550000000000000
B0513383207563S11657168EA0058900571000000000000
B0513423207622S11657122EA0061600599000000000000
B0513463207685S11657099EA0063600617000000000000
B0513503207750S11657111EA0065100631000000000000
B0513543207793S11657160EA0066500649000000000000
B0513583207807S11657230EA0067600662000000000000
B0514023207791S11657304EA0068800670000000000000
B0514063207742S11657365EA0069700681000000000000
B0514103207674S11657403EA0071200702000000000000
B0514143207593S11657408EA0073600725000000000000
B0514183207508S11657374EA0075500744000000000000
B0514223207429S11657330EA0077100752000000000000
B0514263207356S11657348EA0077000747000000000000
B0514303207347S11657408EA0076800747000000015000
B0514343207394S11657428EA0076300740000000015000
B0514383207451S11657386EA0075900737000000030000
B0514423207454S11657290EA0076700747000000015000
B0514463207389S11657231EA0077400755000000015000
B0514503207323S11657252EA0078400760000000015000
B0514543207307S11657311EA0078100757000000015000
B0514583207341S11657347EA0078000758000000015000
B0515023207394S11657346EA0078000757000000015000
B0515063207443S11657298EA0078300766000000015000
B0515103207434S11657213EA0080000779000000015000
B0515143207368S11657198EA0080800785000000015000
B0515183207338S11657242EA0080900788000000015000
B0515223207363S11657272EA0081200792000000015000
B0515263207407S11657233EA0081000785000000015000
B0515303207402S11657146EA0081200801000000015000
B0515343207341S11657108EA0083000815000000015000
B0515383207290S11657138EA0083700819000000015000
B0515423207289S11657183EA0084200825000000015000
B0515463207328S11657195EA0084100827000000015000
B0515503207375S11657153EA0083600819000000015000
B0515543207401S11657074EA0083600822000000015000
B0515583207380S11656996EA0084800830000000030000
B0516023207315S11656977EA0085600840000000030000
B0516063207277S11657022EA0086800851000000030000
B0516103207306S11657057EA0087700863000000030000
B0516143207349S11657023EA0088300864000000015000
B0516183207351S11656951EA0088600873000000015000
B0516223207311S11656890EA0089100873000000015000
B0516263207246S11656867EA0089100877000000015000
B0516303207193S11656900EA0089900886000000015000
B0516343207187S11656953EA0090700893000000015000
B0516383207225S11656970EA0092200900000000015000
B0516423207267S11656938EA0092900904000000015000
B0516463207282S11656862EA0093100912000000015000
B0516503207243S11656795EA0093700915000000015000
B0516543207176S11656787EA0093800921000000015000
B0516583207139S11656839EA0094300929000000030000
B0517023207164S11656888EA0094900940000000045000
B0517063207213S11656874EA0095900946000000045000
B0517103207242S11656806EA0096400952000000060000
B0517143207225S11656726EA0096800955000000060000
B0517183207164S11656683EA0096700953000000075000
B0517223207095S11656702EA0096700957000000075000
B0517263207047S11656752EA0097100959000000045000
B0517303207047S11656810EA0098200970000000060000
B0517343207095S11656813EA0099300978000000060000
B0517383207112S11656745EA0100600994000000045000
B0517423207066S11656691EA0102001007000000060000
B0517463207009S11656705EA0102901017000000045000
B0517503207003S11656753EA0103701030000000045000
B0517543207043S11656760EA0104701034000000045000
B0517583207068S11656700EA0105701046000000045000
B0518023207034S11656633EA0106901058000000045000
B0518063206973S11656626EA0108201074000000060000
B0518103206944S11656667EA0109501085000000060000
B0518143206978S11656696EA0109701089000000045000
B0518183207018S11656652EA0110901106000000045000
B0518223206999S11656581EA0112601117000000045000
B0518263206938S11656559EA0113501124000000045000
B0518303206904S11656600EA0114701135000000060000
B0518343206931S11656633EA0116001153000000045000
B0518383206969S11656600EA0117201163000000045000
B0518423206965S11656528EA0118601171000000045000
B0518463206910S11656483EA0119301183000000045000
B0518503206857S11656500EA0120401197000000030000
B0518543206849S11656546EA0121501212000000030000
B0518583206887S11656562EA0123101227000000030000
B0519023206918S11656506EA0123901235000000030000
B0519063206888S11656433EA0124901246000000030000
B0519103206829S11656419EA0125701254000000030000
B0519143206796S11656462EA0126401261000000030000
B0519183206816S11656501EA0127901280000000015000
B0519223206860S11656477EA0129801303000000015000
B0519263206860S11656403EA0130801311000000015000
B0519303206805S11656358EA0131401316000000030000
B0519343206756S11656383EA0132101324000000030000
B0519383206756S11656431EA0133201329000000030000
B0519423206799S11656441EA0134701354000000030000
B0519463206827S11656386EA0137401384000000030000
B0519503206799S11656318EA0139001391000000030000
B0519543206736S11656301EA0138901392000000030000
B0519583206693S11656338EA0139501400000000030000
B0520023206705S11656388EA0140701414000000030000
B0520063206753S11656383EA0142801437000000030000
B0520103206777S11656318EA0144901457000000015000
B0520143206747S11656241EA0146301473000000015000
B0520183206684S11656217EA0147601482000000015000
B0520223206645S11656256EA0148501492000000015000
B0520263206658S11656305EA0149501506000000015000
B0520303206705S11656306EA0151201517000000015000
B0520343206732S11656245EA0153401539000000030000
B0520383206697S11656172EA0155201555000000030000
B0520423206635S11656159EA0156801571000000045000
B0520463206609S11656206EA0157801580000000030000
B0520503206641S11656247EA0157801583000000015000
B0520543206697S11656277EA0158001587000000015000
B0520583206762S11656303EA0158001588000000015000
B0521023206831S11656331EA0158701601000000015000
B0521063206896S11656358EA0159001604000000015000
B0521103206964S11656383EA0158601605000000015000
B0521143207043S11656398EA0159001610000000015000
B0521183207121S11656412EA0158701591000000015000
B0521223207203S11656432EA0157601582000000015000
B0521263207285S11656459EA0157501586000000015000
B0521303207364S11656485EA0157801592000000015000
B0521343207442S11656511EA0159101603000000015000
B0521383207508S11656546EA0160501614000000015000
B0521423207580S11656579EA0160001598000000015000
B0521463207658S11656606EA0159101594000000015000
B0521503207745S11656620EA0158301587000000015000
B0521543207835S11656620EA0157501582000000015000
B0521583207927S11656604EA0156401567000000015000
B0522023208023S11656565EA0154301548000000015000
B0522063208119S11656511EA0152801533000000000000
B0522103208214S11656449EA0151401519000000000000
B0522143208307S11656379EA0150201508000000000000
B0522183208395S11656305EA0149601506000000000000
B0522223208480S11656232EA0149201498000000015000
B0522263208563S11656155EA0148201484000000000000
B0522303208643S11656077EA0147001475000000000000
B0522343208719S11655999EA0146601473000000000000
B0522383208790S11655922EA0145901463000000000000
B0522423208859S11655847EA0145401463000000000000
B0522463208925S11655773EA0145601469000000015000
B0522503208984S11655703EA0145201474000000015000
B0522543209044S11655630EA0144801477000000015000
B0522583209101S11655556EA0144701481000000030000
B0523023209158S11655479EA0144301478000000030000
B0523063209211S11655400EA0144001470000000015000
B0523103209262S11655326EA0145301478000000030000
B0523143209304S11655249EA0147901501000000015000
B0523183209271S11655167EA0151001532000000015000
B0523223209201S11655161EA0153601556000000015000
B0523263209162S11655203EA0155201566000000015000
B0523303209172S11655252EA0156001570000000015000
B0523343209213S11655259EA0157201577000000015000
B0523383209247S11655207EA0158501581000000015000
B0523423209243S11655128EA0159801591000000030000
B0523463209182S11655083EA0162201616000000060000
B0523503209119S11655101EA0163401625000000075000
B0523543209096S11655157EA0164201643000000075000
B0523583209120S11655192EA0165001651000000060000
B0524023209165S11655176EA0165901655000000060000
B0524063209193S11655120EA0167401665000000060000
B0524103209156S11655038EA0168401688000000045000
B0524143209091S11655023EA0170501713000000045000
B0524183209058S11655067EA0170901712000000060000
B0524223209080S11655106EA0171501719000000045000
B0524263209124S11655086EA0172201728000000045000
B0524303209145S11655015EA0172601731000000045000
B0524343209117S11654937EA0173401740000000045000
B0524383209054S11654914EA0175001752000000045000
B0524423209009S11654958EA0175701765000000030000
B0524463209013S11655010EA0176601778000000015000
B0524503209054S11655024EA0177201783000000015000
B0524543209098S11654984EA0177601789000000015000
B0524583209120S11654907EA0177601786000000030000
B0525023209089S11654823EA0178001796000000030000
B0525063209020S11654781EA0179001805000000030000
B0525103208949S11654785EA0179201804000000030000
B0525143208905S11654838EA0179001805000000030000
B0525183208911S11654897EA0179501813000000015000
B0525223208949S11654930EA0180101818000000015000
B0525263209001S11654942EA0179701808000000015000
B0525303209070S11654943EA0178101793000000015000
B0525343209146S11654936EA0177501796000000015000
B0525383209226S11654925EA0177401794000000015000
B0525423209309S11654911EA0177101791000000015000
B0525463209392S11654893EA0177701796000000015000
B0525503209477S11654873EA0178701811000000015000
B0525543209560S11654852EA0179501812000000015000
B0525583209646S11654833EA0178101794000000015000
B0526023209734S11654816EA0176701785000000015000
B0526063209821S11654802EA0176101776000000015000
B0526103209908S11654790EA0175201771000000015000
B0526143209995S11654776EA0174401767000000015000
B0526183210082S11654767EA0173701752000000015000
B0526223210172S11654759EA0172301738000000015000
B0526263210264S11654751EA0171001727000000015000
B0526303210357S11654745EA0170301722000000015000
B0526343210445S11654738EA0170201721000000000000
B0526383210531S11654733EA0170401724000000000000
B0526423210613S11654726EA0170101717000000000000
B0526463210696S11654721EA0169101703000000000000
B0526503210782S11654717EA0167801698000000000000
B0526543210862S11654713EA0169801728000000000000
B0526583210937S11654707EA0171401732000000000000
B0527023211011S11654699EA0171101731000000000000
B0527063211085S11654694EA0171001723000000000000
B0527103211163S11654691EA0168801698000000000000
B0527143211247S11654686EA0167801695000000000000
B0527183211332S11654681EA0167501683000000000000
B0527223211419S11654676EA0166201671000000000000
B0527263211507S11654672EA0164901660000000000000
B0527303211596S11654670EA0163901649000000000000
B0527343211683S11654668EA0163501650000000000000
B0527383211766S11654664EA0163701651000000000000
B0527423211848S11654661EA0163401647000000000000
B0527463211931S11654660EA0162501636000000000000
B0527503212017S11654664EA0161401626000000000000
B0527543212105S11654669EA0160801615000000000000
B0527583212192S11654677EA0159901612000000000000
B0528023212278S11654682EA0159501604000000000000
B0528063212365S11654683EA0158601600000000000000
B0528103212451S11654683EA0158601597000000000000
B0528143212539S11654676EA0157501584000000000000
B0528183212629S11654651EA0156501577000000000000
B0528223212716S11654617EA0156101573000000000000
B0528263212801S11654583EA0155601564000000000000
B0528303212883S11654550EA0154301549000000000000
B0528343212963S11654507EA0153001539000000000000
B0528383213039S11654457EA0152901543000000000000
B0528423213110S11654404EA0152901539000000000000
B0528463213184S11654347EA0151901535000000000000
B0528503213251S11654295EA0153401559000000000000
B0528543213305S11654247EA0155301573000000000000
B0528583213357S11654199EA0155401566000000000000
B0529023213407S11654144EA0155001564000000000000
B0529063213465S11654102EA0153901548000000000000
B0529103213531S11654078EA0152701537000000000000
B0529143213602S11654059EA0151801531000000000000
B0529183213669S11654049EA0151901532000000000000
B0529223213739S11654040EA0151701530000000000000
B0529263213810S11654028EA0151801527000000000000
B0529303213882S11654014EA0150601512000000000000
B0529343213959S11654001EA0148101480000000000000
B0529383214042S11653993EA0146401470000000000000
B0529423214124S11653984EA0145401457000000000000
B0529463214207S11653976EA0144201447000000000000
B0529503214289S11653971EA0143601440000000000000
B0529543214370S11653968EA0143001435000000000000
B0529583214450S11653967EA0142501430000000000000
B0530023214530S11653958EA0143301451000000000000
B0530063214606S11653949EA0146001473000000000000
B0530103214677S11653955EA0147801494000000000000
B0530143214740S11653978EA0148901502000000000000
B0530183214804S11654000EA0148901497000000000000
B0530223214878S11654014EA0147501480000000000000
B0530263214961S11654018EA0145201455000000000000
B0530303215052S11654018EA0143701436000000000000
B0530343215145S11654017EA0142401427000000000000
B0530383215236S11654013EA0141601420000000000000
B0530423215325S11654007EA0141201419000000000000
B0530463215410S11654004EA0140901414000000000000
B0530503215493S11653997EA0140401410000000000000
B0530543215575S11653988EA0140101408000000000000
B0530583215656S11653979EA0139501397000000000000
B0531023215736S11653971EA0138401387000000000000
B0531063215817S11653963EA0137501376000000000000
B0531103215896S11653957EA0136501367000000000000
B0531143215974S11653948EA0135701357000000000000
B0531183216053S11653939EA0134401344000000000000
B0531223216133S11653928EA0133101332000000000000
B0531263216213S11653920EA0131901321000000000000
B0531303216294S11653914EA0131101313000000000000
B0531343216374S11653910EA0130201303000000000000
B0531383216455S11653909EA0129201292000000000000
B0531423216534S11653903EA0128101279000000000000
B0531463216615S11653898EA0126801266000000000000
B0531503216694S11653892EA0125401249000000000000
B0531543216775S11653881EA0124301243000000000000
B0531583216853S11653870EA0123501233000000000000
B0532023216932S11653858EA0122801231000000000000
B0532063217010S11653844EA0122301221000000000000
B0532103217091S11653829EA0120701201000000000000
B0532143217173S11653816EA0119501194000000000000
B0532183217251S11653810EA0119501198000000000000
B0532223217320S11653814EA0120401207000000000000
B0532263217383S11653825EA0121101214000000000000
B0532303217448S11653825EA0121601218000000000000
B0532343217502S11653772EA0122201228000000000000
B0532383217539S11653699EA0123001233000000000000
B0532423217531S11653614EA0123701240000000000000
B0532463217482S11653539EA0123401229000000000000
B0532503217407S11653506EA0122701225000000015000
B0532543217334S11653532EA0122401227000000015000
B0532583217265S11653575EA0122901233000000000000
B0533023217221S11653634EA0124001249000000000000
B0533063217249S11653682EA0125401258000000000000
B0533103217297S11653720EA0124901243000000000000
B0533143217355S11653759EA0122701220000000000000
B0533183217418S11653802EA0120501200000000000000
B0533223217483S11653845EA0118901186000000000000
B0533263217548S11653890EA0117601172000000000000
B0533303217615S11653936EA0116201160000000000000
B0533343217681S11653979EA0115101150000000000000
B0533383217745S11654022EA0114701148000000000000
B0533423217806S11654070EA0115401161000000000000
B0533463217860S11654114EA0117201178000000000000
B0533503217919S11654150EA0117601175000000000000
B0533543217981S11654188EA0117301174000000000000
B0533583218044S11654228EA0116601162000000000000
B0534023218106S11654266EA0115201146000000000000
B0534063218170S11654304EA0113701132000000000000
B0534103218231S11654347EA0113001128000000000000
B0534143218288S11654392EA0113001126000000000000
B0534183218341S11654442EA0112501123000000000000
B0534223218395S11654490EA0112501123000000000000
B0534263218448S11654533EA0112801128000000000000
B0534303218500S11654573EA0113701146000000000000
B0534343218549S11654608EA0115601164000000000000
B0534383218599S11654642EA0117301182000000000000
B0534423218648S11654669EA0119601204000000000000
B0534463218692S11654637EA0121501222000000000000
B0534503218685S11654561EA0121901217000000015000
B0534543218627S11654522EA0121901222000000015000
B0534583218571S11654542EA0122601231000000015000
B0535023218539S11654590EA0123701245000000015000
B0535063218539S11654644EA0124901255000000015000
B0535103218574S11654668EA0126601278000000015000
B0535143218610S11654616EA0128701295000000015000
B0535183218586S11654543EA0129801303000000015000
B0535223218523S11654535EA0130401311000000015000
B0535263218492S11654582EA0131301318000000015000
B0535303218513S11654630EA0132801332000000015000
B0535343218564S11654626EA0135101353000000015000
B0535383218591S11654553EA0137001372000000015000
B0535423218553S11654481EA0138301383000000015000
B0535463218491S11654482EA0138701389000000015000
B0535503218473S11654535EA0139801406000000015000
B0535543218506S11654572EA0141801423000000015000
B0535583218560S11654544EA0143901449000000015000
B0536023218574S11654468EA0145901468000000015000
B0536063218542S11654399EA0147401485000000015000
B0536103218486S11654377EA0148601494000000015000
B0536143218444S11654412EA0148901499000000015000
B0536183218458S11654461EA0150401508000000015000
B0536223218509S11654461EA0152501521000000015000
B0536263218536S11654392EA0154501536000000030000
B0536303218501S11654321EA0155101550000000030000
B0536343218439S11654304EA0155801556000000030000
B0536383218400S11654349EA0156701573000000045000
B0536423218417S11654401EA0158501585000000030000
B0536463218470S11654410EA0160601604000000045000
B0536503218510S11654351EA0162301620000000045000
B0536543218495S11654266EA0163301632000000060000
B0536583218434S11654226EA0164401647000000060000
B0537023218379S11654256EA0165501663000000060000
B0537063218382S11654317EA0166801680000000060000
B0537103218438S11654321EA0169301713000000075000
B0537143218466S11654249EA0170801714000000075000
B0537183218431S11654171EA0171701724000000075000
B0537223218362S11654148EA0172601742000000060000
B0537263218313S11654186EA0174001759000000060000
B0537303218314S11654247EA0175101772000000045000
B0537343218362S11654274EA0176701790000000030000
B0537383218419S11654235EA0178001803000000030000
B0537423218443S11654153EA0179701821000000030000
B0537463218399S11654082EA0180801831000000030000
B0537503218336S11654076EA0181801843000000015000
B0537543218304S11654124EA0182701856000000015000
B0537583218324S11654171EA0184301874000000015000
B0538023218371S11654197EA0184801876000000015000
B0538063218435S11654222EA0183501869000000015000
B0538103218508S11654249EA0182201860000000015000
B0538143218587S11654279EA0179801852000000015000
B0538183218673S11654312EA0179001848000000030000
B0538223218751S11654331EA0180701850000000015000
B0538263218824S11654347EA0180301850000000030000
B0538303218899S11654366EA0178401846000000030000
B0538343218987S11654382EA0177101839000000030000
B0538383219069S11654395EA0176901841000000030000
B0538423219149S11654410EA0176501841000000045000
B0538463219234S11654423EA0176201834000000045000
B0538503219319S11654440EA0175901814000000030000
B0538543219400S11654460EA0177201828000000030000
B0538583219481S11654479EA0176901791000000015000
B0539023219575S11654495EA0173201749000000015000
B0539063219675S11654508EA0171101745000000015000
B0539103219774S11654518EA0171001735000000015000
B0539143219873S11654527EA0170101727000000015000
B0539183219975S11654535EA0170901725000000015000
B0539223220061S11654556EA0172801733000000030000
B0539263220142S11654559EA0174901751000000015000
B0539303220221S11654553EA0175901758000000015000
B0539343220307S11654551EA0174701741000000015000
B0539383220401S11654557EA0172301714000000015000
B0539423220502S11654566EA0170101703000000015000
B0539463220603S11654578EA0168601695000000015000
B0539503220709S11654590EA0166701681000000015000
B0539543220810S11654599EA0166301685000000015000
B0539583220908S11654612EA0166201682000000015000
B0540023221004S11654625EA0165201673000000015000
B0540063221100S11654637EA0165001675000000015000
B0540103221194S11654646EA0164901675000000015000
B0540143221286S11654659EA0164001667000000015000
B0540183221378S11654674EA0162601660000000015000
B0540223221470S11654691EA0161501652000000030000
B0540263221561S11654707EA0160601638000000015000
B0540303221649S11654722EA0159901633000000015000
B0540343221734S11654738EA0159501632000000030000
B0540383221819S11654751EA0159101629000000030000
B0540423221903S11654767EA0158601627000000030000
B0540463221985S11654781EA0157901623000000030000
B0540503222068S11654794EA0157001619000000045000
B0540543222152S11654806EA0156401615000000045000
B0540583222235S11654816EA0155101603000000045000
B0541023222319S11654820EA0154101583000000030000
B0541063222403S11654825EA0153301571000000030000
B0541103222486S11654830EA0153001567000000015000
B0541143222559S11654832EA0154801584000000015000
B0541183222629S11654833EA0155401580000000015000
B0541223222702S11654834EA0155401577000000015000
B0541263222774S11654839EA0154901567000000015000
B0541303222851S11654851EA0153001545000000000000
B0541343222933S11654868EA0151501524000000000000
B0541383223019S11654890EA0150001510000000000000
B0541423223101S11654910EA0149501514000000000000
B0541463223179S11654925EA0150001514000000000000
B0541503223258S11654945EA0149601509000000000000
B0541543223340S11654967EA0148601501000000000000
B0541583223423S11654990EA0147701486000000000000
B0542023223508S11655012EA0146601475000000015000
B0542063223592S11655036EA0145201459000000015000
B0542103223680S11655057EA0144201459000000000000
B0542143223765S11655073EA0144301454000000000000
B0542183223847S11655094EA0143501442000000000000
B0542223223924S11655124EA0143001438000000000000
B0542263223998S11655157EA0142301428000000000000
B0542303224069S11655188EA0141201418000000000000
B0542343224142S11655222EA0139701396000000000000
B0542383224217S11655254EA0137901380000000000000
B0542423224293S11655285EA0136801370000000000000
B0542463224367S11655314EA0136001363000000000000
B0542503224442S11655343EA0134801345000000000000
B0542543224519S11655372EA0132901326000000000000
B0542583224600S11655402EA0131001310000000000000
B0543023224678S11655432EA0130301305000000000000
B0543063224757S11655463EA0129301292000000000000
B0543103224839S11655493EA0128001279000000000000
B0543143224921S11655525EA0127201271000000000000
B0543183225003S11655554EA0126301261000000000000
B0543223225084S11655584EA0124601245000000000000
B0543263225166S11655616EA0123601234000000000000
B0543303225244S11655649EA0122801226000000000000
B0543343225317S11655682EA0121901219000000000000
B0543383225390S11655713EA0121101208000000000000
B0543423225460S11655747EA0120701207000000000000
B0543463225526S11655778EA0120601206000000000000
B0543503225593S11655804EA0119601191000000000000
B0543543225662S11655833EA0118501187000000000000
B0543583225728S11655864EA0118301185000000000000
B0544023225797S11655886EA0117701179000000015000
B0544063225874S11655886EA0116401171000000015000
B0544103225953S11655876EA0115101155000000015000
B0544143226036S11655863EA0113501140000000015000
B0544183226118S11655838EA0112801139000000015000
B0544223226191S11655796EA0113001144000000015000
B0544263226253S11655761EA0114601163000000015000
B0544303226312S11655746EA0115501164000000015000
B0544343226370S11655734EA0115301158000000000000
B0544383226431S11655718EA0114301145000000000000
B0544423226498S11655701EA0112901130000000000000
B0544463226569S11655687EA0111601118000000000000
B0544503226642S11655673EA0111201116000000000000
B0544543226717S11655658EA0110301102000000000000
B0544583226794S11655644EA0109401095000000000000
B0545023226871S11655630EA0108901091000000000000
B0545063226949S11655625EA0108201082000000000000
B0545103227025S11655616EA0108501090000000000000
B0545143227101S11655603EA0108301080000000000000
B0545183227180S11655586EA0107001066000000000000
B0545223227262S11655566EA0105801053000000000000
B0545263227346S11655547EA0104701042000000000000
B0545303227430S11655528EA0103301026000000000000
B0545343227515S11655510EA0101901013000000000000
B0545383227601S11655495EA0100701003000000000000
B0545423227686S11655478EA0100100997000000000000
B0545463227769S11655460EA0099100984000000000000
B0545503227853S11655443EA0097800974000000000000
B0545543227937S11655427EA0096900962000000000000
B0545583228022S11655410EA0095800950000000000000
B0546023228110S11655396EA0094700938000000000000
B0546063228197S11655385EA0093600927000000000000
B0546103228284S11655374EA0092600919000000000000
B0546143228371S11655365EA0091900910000000000000
B0546183228455S11655356EA0091300906000000000000
B0546223228539S11655345EA0090700900000000000000
B0546263228620S11655335EA0089900890000000000000
B0546303228700S11655326EA0089000880000000000000
B0546343228779S11655320EA0088000869000000000000
B0546383228856S11655318EA0087100862000000000000
B0546423228931S11655318EA0086500854000000000000
B0546463229007S11655318EA0085500843000000000000
B0546503229079S11655319EA0084700837000000000000
B0546543229151S11655318EA0084400835000000000000
B0546583229216S11655314EA0084500835000000000000
B0547023229277S11655306EA0084100830000000000000
B0547063229337S11655311EA0083900828000000000000
B0547103229384S11655341EA0084400836000000000000
B0547143229416S11655385EA0084900838000000000000
B0547183229446S11655432EA0084400828000000000000
B0547223229494S11655465EA0083500823000000000000
B0547263229550S11655444EA0084100832000000000000
B0547303229590S11655379EA0084100829000000000000
B0547343229623S11655301EA0083500825000000000000
B0547383229660S11655227EA0083800827000000000000
B0547423229718S11655189EA0083300820000000000000
B0547463229781S11655196EA0082900818000000000000
B0547503229841S11655216EA0082400812000000000000
B0547543229893S11655252EA0082000806000000000000
B0547583229944S11655289EA0081300797000000000000
B0548023230005S11655280EA0080800796000000000000
B0548063230039S11655207EA0081300804000000015000
B0548103230034S11655116EA0081600807000000015000
B0548143230030S11655023EA0081900806000000000000
B0548183229991S11654943EA0082200814000000015000
B0548223229930S11654954EA0083100826000000015000
B0548263229926S11655006EA0083500827000000015000
B0548303229974S11655023EA0083500830000000015000
B0548343230024S11654979EA0084100839000000015000
B0548383230004S11654897EA0085500853000000030000
B0548423229940S11654885EA0086200860000000030000
B0548463229910S11654933EA0086600861000000030000
B0548503229941S11654971EA0086800863000000030000
B0548543229992S11654930EA0087600874000000030000
B0548583229987S11654845EA0089100892000000030000
B0549023229933S11654787EA0089800894000000030000
B0549063229872S11654791EA0090200902000000030000
B0549103229841S11654833EA0091200907000000015000
B0549143229861S11654872EA0091800911000000015000
B0549183229906S11654856EA0092600916000000015000
B0549223229932S11654790EA0093700920000000015000
B0549263229917S11654709EA0094100924000000030000
B0549303229862S11654667EA0094600935000000030000
B0549343229809S11654678EA0095400943000000030000
B0549383229789S11654725EA0095500944000000015000
B0549423229809S11654772EA0095900948000000015000
B0549463229855S11654774EA0096600955000000015000
B0549503229872S11654702EA0097800966000000015000
B0549543229824S11654639EA0098300970000000030000
B0549583229762S11654644EA0098900982000000030000
B0550023229740S11654693EA0099900990000000030000
B0550063229761S11654737EA0100100991000000015000
B0550103229814S11654737EA0100200994000000015000
B0550143229857S11654678EA0100701006000000015000
B0550183229879S11654595EA0101801010000000030000
B0550223229855S11654513EA0102201009000000030000
B0550263229793S11654475EA0102201017000000030000
B0550303229738S11654496EA0102901025000000030000
B0550343229725S11654548EA0103501027000000015000
B0550383229766S11654581EA0103501028000000015000
B0550423229824S11654553EA0103801035000000030000
B0550463229874S11654487EA0104001032000000030000
B0550503229885S11654396EA0104101030000000030000
B0550543229842S11654322EA0104101031000000030000
B0550583229779S11654304EA0104101032000000030000
B0551023229723S11654334EA0103601028000000015000
B0551063229680S11654384EA0103501030000000015000
B0551103229645S11654440EA0104001042000000015000
B0551143229624S11654501EA0104901048000000015000
B0551183229655S11654544EA0106001061000000015000
B0551223229706S11654508EA0106901068000000015000
B0551263229710S11654423EA0107001068000000015000
B0551303229664S11654348EA0106701066000000030000
B0551343229595S11654297EA0106801065000000015000
B0551383229527S11654295EA0107501073000000015000
B0551423229517S11654345EA0108001080000000015000
B0551463229560S11654374EA0108001076000000015000
B0551503229623S11654369EA0107301070000000015000
B0551543229693S11654353EA0106801066000000015000
B0551583229763S11654332EA0107101071000000015000
B0552023229833S11654308EA0106801063000000015000
B0552063229907S11654282EA0106301060000000000000
B0552103229983S11654256EA0105401048000000000000
B0552143230058S11654232EA0104001032000000000000
B0552183230131S11654204EA0102401017000000000000
B0552223230204S11654175EA0101901017000000000000
B0552263230273S11654148EA0103101031000000000000
B0552303230313S11654076EA0104801051000000000000
B0552343230265S11654011EA0107501082000000015000
B0552383230209S11654030EA0109901104000000015000
B0552423230204S11654080EA0110701107000000015000
B0552463230247S11654093EA0110901107000000015000
B0552503230286S11654046EA0111701118000000015000
B0552543230253S11653980EA0113501138000000030000
B0552583230192S11653985EA0114701156000000030000
B0553023230170S11654037EA0116301162000000030000
B0553063230196S11654082EA0116601165000000015000
B0553103230249S11654075EA0116601167000000015000
B0553143230281S11654006EA0117001171000000015000
B0553183230284S11653916EA0117301175000000015000
B0553223230251S11653833EA0118101188000000015000
B0553263230182S11653798EA0119801208000000030000
B0553303230144S11653840EA0121901227000000030000
B0553343230183S11653861EA0123201239000000030000
B0553383230205S11653794EA0125301265000000045000
B0553423230160S11653736EA0126401270000000030000
B0553463230099S11653749EA0127201280000000030000
B0553503230074S11653802EA0128401297000000030000
B0553543230096S11653846EA0129801305000000015000
B0553583230145S11653831EA0130501317000000015000
B0554023230156S11653760EA0132601339000000030000
B0554063230110S11653702EA0133701347000000030000
B0554103230048S11653707EA0134901365000000030000
B0554143230028S11653760EA0136301372000000030000
B0554183230063S11653799EA0137101377000000015000
B0554223230115S11653790EA0138501385000000015000
B0554263230147S11653733EA0139401390000000015000
B0554303230122S11653659EA0139901397000000030000
B0554343230053S11653630EA0140301404000000030000
B0554383229997S11653667EA0141101418000000030000
B0554423229987S11653728EA0142401432000000030000
B0554463230030S11653760EA0143501442000000030000
B0554503230075S11653719EA0144401451000000030000
B0554543230054S11653642EA0144801454000000030000
B0554583229988S11653603EA0145401473000000030000
B0555023229939S11653638EA0147401492000000030000
B0555063229953S11653694EA0148201494000000030000
B0555103230009S11653693EA0148901506000000030000
B0555143230044S11653630EA0149801513000000030000
B0555183230021S11653554EA0150301520000000030000
B0555223229953S11653519EA0151101528000000030000
B0555263229900S11653550EA0152501542000000030000
B0555303229904S11653606EA0154001553000000030000
B0555343229953S11653619EA0154701562000000030000
B0555383229988S11653562EA0155701568000000030000
B0555423229959S11653489EA0156501573000000030000
B0555463229894S11653474EA0157401582000000030000
B0555503229857S11653523EA0158301596000000030000
B0555543229872S11653578EA0159401604000000030000
B0555583229922S11653593EA0159901607000000015000
B0556023229962S11653538EA0160501612000000030000
B0556063229945S11653459EA0161001618000000030000
B0556103229879S11653421EA0161501627000000030000
B0556143229814S11653442EA0162301638000000030000
B0556183229784S11653503EA0162701635000000030000
B0556223229796S11653572EA0161901627000000015000
B0556263229827S11653636EA0160801615000000015000
B0556303229868S11653695EA0159901612000000015000
B0556343229917S11653745EA0160001612000000015000
B0556383229965S11653792EA0160101612000000015000
B0556423230014S11653842EA0159501605000000015000
B0556463230066S11653896EA0158701598000000000000
B0556503230128S11653932EA0158401597000000000000
B0556543230196S11653942EA0158001595000000000000
B0556583230268S11653940EA0157401586000000000000
B0557023230340S11653933EA0156401577000000000000
B0557063230412S11653919EA0155901569000000000000
B0557103230485S11653887EA0154801561000000000000
B0557143230555S11653845EA0153901556000000000000
B0557183230628S11653803EA0153201548000000000000
B0557223230704S11653767EA0152201536000000000000
B0557263230785S11653753EA0151001524000000000000
B0557303230862S11653757EA0151401533000000000000
B0557343230932S11653764EA0152701546000000000000
B0557383230998S11653775EA0153301545000000000000
B0557423231064S11653788EA0152701536000000000000
B0557463231133S11653799EA0151401521000000000000
B0557503231204S11653811EA0150401513000000000000
B0557543231272S11653824EA0149501503000000000000
B0557583231341S11653838EA0148901497000000000000
B0558023231412S11653853EA0148101492000000000000
B0558063231478S11653867EA0147801490000000000000
B0558103231545S11653884EA0147701488000000000000
B0558143231613S11653903EA0147301483000000000000
B0558183231679S11653929EA0147001481000000000000
B0558223231743S11653952EA0147401486000000000000
B0558263231805S11653972EA0147301481000000000000
B0558303231869S11653992EA0147001476000000000000
B0558343231935S11654009EA0146501474000000000000
B0558383231998S11654022EA0147101484000000000000
B0558423232052S11654046EA0148201494000000000000
B0558463232101S11654079EA0149001503000000000000
B0558503232150S11654105EA0150001514000000000000
B0558543232202S11654095EA0151501531000000000000
B0558583232207S11654026EA0153001549000000000000
B0559023232149S11653991EA0154201558000000015000
B0559063232095S11654030EA0154901565000000000000
B0559103232094S11654089EA0156101580000000000000
B0559143232136S11654114EA0157201585000000015000
B0559183232175S11654066EA0157801598000000015000
B0559223232159S11653993EA0159101610000000015000
B0559263232098S11653954EA0160201622000000015000
B0559303232038S11653975EA0161701635000000015000
B0559343232017S11654033EA0162401636000000015000
B0559383232054S11654072EA0162401639000000015000
B0559423232111S11654057EA0162401641000000015000
B0559463232169S11654014EA0162701648000000015000
B0559503232203S11653939EA0164401656000000015000
B0559543232175S11653858EA0164601655000000015000
B0559583232106S11653846EA0164401653000000015000
B0600023232056S11653894EA0165101667000000015000
B0600063232033S11653957EA0167201688000000015000
B0600103232065S11653998EA0168401699000000015000
B0600143232123S11653998EA0168801699000000015000
B0600183232188S11653985EA0168501698000000015000
B0600223232258S11653970EA0167501685000000000000
B0600263232331S11653953EA0166501677000000000000
B0600303232407S11653936EA0165401663000000000000
B0600343232485S11653922EA0163901651000000000000
B0600383232566S11653909EA0163301644000000000000
B0600423232645S11653894EA0162301634000000000000
B0600463232725S11653881EA0161801629000000000000
B0600503232804S11653868EA0161201619000000000000
B0600543232884S11653854EA0160301612000000000000
B0600583232966S11653838EA0159601606000000000000
B0601023233050S11653823EA0158601598000000000000
B0601063233131S11653807EA0158201594000000000000
B0601103233213S11653794EA0158001592000000000000
B0601143233293S11653783EA0157601587000000000000
B0601183233373S11653772EA0156901581000000000000
B0601223233450S11653763EA0156801581000000000000
B0601263233520S11653753EA0157701600000000000000
B0601303233583S11653744EA0159801613000000000000
B0601343233645S11653734EA0159901607000000000000
B0601383233713S11653725EA0159101599000000000000
B0601423233787S11653718EA0158601598000000000000
B0601463233861S11653707EA0157901587000000000000
B0601503233937S11653694EA0156901577000000000000
B0601543234017S11653680EA0155901568000000000000
B0601583234096S11653667EA0155001556000000000000
B0602023234177S11653658EA0153701545000000000000
B0602063234259S11653653EA0152801536000000000000
B0602103234340S11653646EA0152301530000000000000
B0602143234417S11653637EA0153801542000000000000
B0602183234489S11653627EA0155001553000000000000
B0602223234563S11653614EA0155101553000000000000
B0602263234637S11653599EA0154601547000000000000
B0602303234714S11653586EA0153901542000000000000
B0602343234790S11653572EA0152701527000000000000
B0602383234868S11653563EA0151601517000000000000
B0602423234945S11653559EA0150401504000000000000
B0602463235020S11653560EA0149301493000000000000
B0602503235094S11653564EA0149001498000000000000
B0602543235165S11653565EA0150001512000000000000
B0602583235228S11653569EA0151601530000000000000
B0603023235291S11653562EA0153401548000000000000
B0603063235314S11653489EA0155201565000000000000
B0603103235262S11653434EA0156601578000000000000
B0603143235211S11653464EA0157401586000000000000
B0603183235226S11653517EA0158101596000000000000
B0603223235278S11653530EA0159101609000000015000
B0603263235321S11653482EA0160101618000000015000
B0603303235317S11653403EA0161101631000000015000
B0603343235267S11653351EA0162301644000000015000
B0603383235213S11653360EA0163701656000000015000
B0603423235200S11653412EA0164301659000000015000
B0603463235245S11653438EA0164901666000000015000
B0603503235291S11653396EA0165901679000000015000
B0603543235288S11653318EA0166801683000000015000
B0603583235232S11653269EA0167701699000000015000
B0604023235178S11653281EA0169301713000000015000
B0604063235156S11653333EA0169701718000000015000
B0604103235180S11653382EA0170201722000000000000
B0604143235236S11653390EA0170601724000000000000
B0604183235289S11653347EA0170801726000000000000
B0604223235319S11653270EA0171101729000000000000
B0604263235334S11653182EA0171101727000000000000
B0604303235358S11653090EA0169901706000000000000
B0604343235417S11653006EA0167101677000000015000
B0604383235494S11652945EA0166201665000000090000
B0604423235579S11652925EA0166501682000000015000
B0604463235663S11652919EA0167001687000000015000
B0604503235744S11652918EA0166201671000000015000
B0604543235828S11652928EA0164801660000000015000
B0604583235911S11652949EA0164401660000000000000
B0605023235993S11652970EA0164401663000000000000
B0605063236075S11652991EA0163601646000000000000
B0605103236159S11653009EA0162101635000000000000
B0605143236245S11653021EA0161601633000000000000
B0605183236328S11653027EA0161301628000000000000
B0605223236410S11653031EA0161001624000000000000
B0605263236491S11653040EA0160701622000000000000
B0605303236570S11653052EA0160501620000000000000
B0605343236649S11653066EA0159801604000000000000
B0605383236732S11653075EA0158301595000000000000
B0605423236814S11653084EA0157601589000000000000
B0605463236895S11653092EA0157401585000000000000
B0605503236974S11653103EA0156701580000000000000
B0605543237054S11653112EA0156201572000000000000
B0605583237132S11653117EA0155401561000000000000
B0606023237212S11653109EA0154201555000000000000
B0606063237289S11653092EA0154301556000000000000
B0606103237366S11653069EA0153701547000000000000
B0606143237444S11653039EA0152701538000000000000
B0606183237524S11653012EA0152501539000000000000
B0606223237601S11652983EA0152401537000000000000
B0606263237679S11652958EA0152001535000000000000
B0606303237757S11652934EA0152101534000000000000
B0606343237834S11652915EA0152101539000000000000
B0606383237908S11652896EA0152601542000000000000
B0606423237979S11652874EA0153001546000000000000
B0606463238049S11652850EA0152901543000000000000
B0606503238120S11652826EA0152001530000000000000
B0606543238192S11652802EA0150501515000000000000
B0606583238269S11652780EA0149201504000000000000
B0607023238339S11652772EA0150601526000000000000
B0607063238400S11652772EA0151701536000000000000
B0607103238455S11652782EA0152901552000000000000
B0607143238504S11652801EA0154701565000000000000
B0607183238555S11652797EA0155601572000000000000
B0607223238591S11652732EA0156201573000000000000
B0607263238567S11652646EA0156401579000000000000
B0607303238503S11652613EA0157201589000000015000
B0607343238459S11652650EA0157801591000000000000
B0607383238459S11652709EA0157701591000000000000
B0607423238484S11652761EA0157801592000000000000
B0607463238517S11652811EA0158201597000000000000
B0607503238569S11652824EA0159201608000000000000
B0607543238603S11652759EA0159701607000000015000
B0607583238580S11652665EA0158801595000000015000
B0608023238517S11652590EA0158001593000000015000
B0608063238439S11652550EA0158401599000000000000
B0608103238365S11652567EA0159101608000000000000
B0608143238313S11652614EA0159901617000000000000
B0608183238279S11652678EA0160701623000000000000
B0608223238268S11652744EA0160801620000000000000
B0608263238305S11652791EA0159701603000000000000
B0608303238368S11652782EA0158401604000000000000
B0608343238415S11652724EA0158601600000000015000
B0608383238455S11652655EA0157901594000000000000
B0608423238497S11652585EA0157701595000000000000
B0608463238537S11652514EA0157701592000000000000
B0608503238578S11652440EA0157001585000000000000
B0608543238630S11652377EA0155901574000000000000
B0608583238695S11652337EA0155201565000000000000
B0609023238763S11652315EA0154701565000000000000
B0609063238831S11652299EA0154701564000000000000
B0609103238898S11652297EA0154701565000000000000
B0609143238963S11652306EA0154401557000000000000
B0609183239026S11652332EA0154301560000000000000
B0609223239082S11652367EA0154001553000000000000
B0609263239127S11652421EA0153101543000000000000
B0609303239160S11652489EA0152301536000000000000
B0609343239174S11652561EA0152501542000000000000
B0609383239180S11652627EA0152201531000000000000
B0609423239183S11652696EA0150401511000000000000
B0609463239204S11652765EA0149001491000000000000
B0609503239258S11652818EA0146801467000000000000
B0609543239335S11652849EA0144701449000000000000
B0609583239420S11652865EA0142301425000000000000
B0610023239505S11652870EA0140901416000000000000
B0610063239587S11652866EA0140201409000000000000
B0610103239669S11652860EA0138901394000000000000
B0610143239752S11652857EA0137501382000000000000
B0610183239833S11652853EA0136901372000000000000
B0610223239914S11652848EA0135901362000000000000
B0610263239994S11652840EA0134801353000000000000
B0610303240073S11652835EA0133901341000000000000
B0610343240153S11652831EA0132601328000000000000
B0610383240231S11652835EA0131101312000000000000
B0610423240310S11652847EA0129901305000000000000
B0610463240382S11652852EA0130601317000000000000
B0610503240445S11652850EA0131901329000000000000
B0610543240504S11652849EA0132201328000000000000
B0610583240558S11652871EA0132101327000000000000
B0611023240597S11652915EA0131901323000000000000
B0611063240621S11652973EA0131801322000000000000
B0611103240638S11653031EA0131601320000000000000
B0611143240653S11653090EA0131001313000000000000
B0611183240662S11653155EA0130501309000000000000
B0611223240664S11653224EA0129801300000000000000
B0611263240669S11653295EA0128801288000000000000
B0611303240681S11653369EA0127901278000000000000
B0611343240683S11653447EA0127301277000000000000
B0611383240695S11653524EA0127101273000000000000
B0611423240712S11653594EA0127401279000000000000
B0611463240729S11653662EA0127201271000000000000
B0611503240748S11653732EA0126301259000000000000
B0611543240787S11653798EA0124901246000000000000
B0611583240844S11653849EA0124001240000000000000
B0612023240912S11653888EA0123001229000000000000
B0612063240982S11653926EA0121901220000000000000
B0612103241050S11653963EA0121701221000000000000
B0612143241112S11654001EA0121901219000000000000
B0612183241173S11654040EA0121001206000000000000
B0612223241238S11654078EA0119601192000000000000
B0612263241303S11654114EA0118501184000000000000
B0612303241368S11654150EA0117601174000000000000
B0612343241435S11654183EA0116601161000000000000
B0612383241502S11654218EA0114901145000000000000
B0612423241574S11654251EA0113201127000000000000
B0612463241648S11654292EA0111801115000000000000
B0612503241719S11654332EA0111301112000000000000
B0612543241792S11654375EA0110301099000000000000
B0612583241861S11654422EA0109801095000000000000
B0613023241931S11654470EA0108901085000000000000
B0613063242000S11654518EA0108601087000000000000
B0613103242064S11654564EA0110201110000000000000
B0613143242121S11654607EA0112601132000000000000
B0613183242177S11654594EA0114401148000000000000
B0613223242173S11654518EA0115601159000000000000
B0613263242116S11654482EA0116301164000000000000
B0613303242061S11654517EA0116901177000000000000
B0613343242061S11654581EA0118201191000000000000
B0613383242108S11654590EA0120001208000000015000
B0613423242138S11654538EA0121501214000000015000
B0613463242112S11654473EA0121901221000000015000
B0613503242051S11654460EA0122601231000000015000
B0613543242012S11654509EA0123801243000000015000
B0613583242029S11654565EA0124601250000000000000
B0614023242081S11654566EA0125701264000000015000
B0614063242108S11654508EA0127301281000000015000
B0614103242078S11654446EA0128001290000000015000
B0614143242018S11654438EA0128901299000000015000
B0614183241981S11654485EA0129901311000000000000
B0614223241995S11654535EA0131301324000000000000
B0614263242044S11654533EA0132401333000000000000
B0614303242061S11654469EA0133701348000000015000
B0614343242022S11654410EA0134601352000000015000
B0614383241960S11654417EA0135501363000000015000
B0614423241935S11654473EA0135901370000000015000
B0614463241958S11654525EA0137201386000000000000
B0614503242010S11654529EA0139001400000000015000
B0614543242039S11654469EA0140001413000000015000
B0614583242008S11654405EA0140901415000000015000
B0615023241944S11654405EA0141101421000000015000
B0615063241912S11654462EA0142001436000000000000
B0615103241926S11654524EA0143501450000000000000
B0615143241977S11654538EA0145001465000000015000
B0615183242010S11654483EA0146201475000000015000
B0615223241991S11654417EA0146901482000000015000
B0615263241935S11654392EA0147401486000000015000
B0615303241879S11654425EA0148201498000000015000
B0615343241877S11654487EA0149801516000000000000
B0615383241925S11654508EA0150901528000000015000
B0615423241968S11654465EA0152101539000000015000
B0615463241969S11654396EA0152701539000000015000
B0615503241927S11654343EA0152501539000000015000
B0615543241867S11654331EA0153301553000000000000
B0615583241813S11654360EA0154501561000000000000
B0616023241776S11654414EA0155001563000000000000
B0616063241792S11654475EA0155701576000000000000
B0616103241843S11654475EA0156901584000000015000
B0616143241845S11654405EA0157401589000000030000
B0616183241780S11654384EA0158301601000000030000
B0616223241741S11654443EA0159001606000000015000
B0616263241769S11654501EA0159801618000000015000
B0616303241830S11654491EA0160201610000000015000
B0616343241854S11654412EA0160001623000000015000
B0616383241838S11654331EA0161701636000000015000
B0616423241780S11654287EA0162701648000000015000
B0616463241736S11654336EA0163901659000000015000
B0616503241776S11654383EA0164501669000000015000
B0616543241817S11654329EA0165401674000000030000
B0616583241796S11654247EA0166101685000000015000
B0617023241728S11654218EA0167201694000000015000
B0617063241674S11654261EA0168301705000000015000
B0617103241676S11654330EA0169301713000000015000
B0617143241724S11654364EA0170501729000000015000
B0617183241775S11654342EA0171901739000000015000
B0617223241799S11654271EA0172201740000000015000
B0617263241773S11654195EA0172301747000000015000
B0617303241713S11654150EA0173301755000000015000
B0617343241648S11654167EA0173801759000000015000
B0617383241613S11654230EA0174801771000000000000
B0617423241643S11654278EA0176201786000000000000
B0617463241688S11654240EA0176701783000000015000
B0617503241678S11654163EA0176601784000000015000
B0617543241613S11654132EA0176601784000000015000
B0617583241557S11654176EA0177301794000000000000
B0618023241562S11654243EA0178201802000000000000
B0618063241617S11654262EA0178501808000000000000
B0618103241667S11654219EA0179201816000000015000
B0618143241674S11654141EA0179701816000000015000
B0618183241618S11654087EA0179701818000000015000
B0618223241549S11654110EA0179701819000000015000
B0618263241523S11654183EA0180401828000000015000
B0618303241555S11654244EA0181501838000000000000
B0618343241617S11654249EA0181601836000000015000
B0618383241662S11654193EA0181501835000000015000
B0618423241653S11654111EA0181801842000000015000
B0618463241597S11654066EA0182601851000000015000
B0618503241535S11654084EA0182901852000000015000
B0618543241520S11654150EA0183401859000000000000
B0618583241565S11654196EA0183401854000000000000
B0619023241624S11654176EA0183101852000000015000
B0619063241679S11654130EA0182501842000000015000
B0619103241745S11654089EA0180801824000000000000
B0619143241822S11654058EA0179701815000000000000
B0619183241900S11654031EA0178401803000000000000
B0619223241978S11654006EA0177301794000000000000
B0619263242056S11653983EA0177001791000000000000
B0619303242134S11653961EA0176301781000000000000
B0619343242212S11653940EA0175401775000000000000
B0619383242289S11653919EA0175001773000000000000
B0619423242365S11653896EA0174901771000000000000
B0619463242443S11653868EA0174401767000000000000
B0619503242520S11653842EA0174601769000000000000
B0619543242597S11653816EA0174601770000000000000
B0619583242672S11653790EA0174101761000000000000
B0620023242749S11653763EA0173701759000000000000
B0620063242827S11653738EA0173701760000000000000
B0620103242905S11653719EA0173601756000000000000
B0620143242987S11653697EA0172301740000000000000
B0620183243071S11653675EA0171201730000000000000
B0620223243154S11653653EA0170401722000000000000
B0620263243239S11653630EA0169301710000000000000
B0620303243322S11653606EA0168401703000000000000
B0620343243405S11653582EA0167801698000000000000
B0620383243490S11653560EA0167601698000000000000
B0620423243573S11653539EA0167501693000000000000
B0620463243658S11653520EA0166701684000000000000
B0620503243743S11653499EA0165701675000000000000
B0620543243829S11653482EA0165401675000000000000
B0620583243915S11653467EA0165401673000000000000
B0621023244001S11653454EA0164801667000000000000
B0621063244087S11653443EA0164301661000000000000
B0621103244172S11653430EA0163901656000000000000
B0621143244258S11653416EA0163301649000000000000
B0621183244343S11653402EA0162501642000000000000
B0621223244428S11653387EA0161701634000000000000
B0621263244512S11653376EA0161601635000000000000
B0621303244594S11653363EA0161201626000000000000
B0621343244675S11653350EA0160901627000000000000
B0621383244755S11653338EA0160501620000000000000
B0621423244835S11653326EA0159401605000000000000
B0621463244917S11653317EA0158401599000000000000
B0621503244997S11653305EA0157901594000000000000
B0621543245076S11653291EA0157201586000000000000
B0621583245154S11653274EA0156201577000000000000
B0622023245232S11653255EA0155401568000000000000
B0622063245309S11653235EA0154701562000000000000
B0622103245383S11653213EA0154001555000000000000
B0622143245457S11653191EA0153501547000000000000
B0622183245531S11653169EA0152301530000000000000
B0622223245606S11653147EA0151101527000000000000
B0622263245680S11653125EA0151301528000000000000
B0622303245752S11653101EA0150801522000000000000
B0622343245826S11653079EA0150601523000000000000
B0622383245897S11653055EA0150801526000000000000
B0622423245969S11653038EA0151301533000000000000
B0622463246035S11653039EA0152301543000000000000
B0622503246094S11653056EA0153101551000000000000
B0622543246147S11653078EA0153901558000000000000
B0622583246196S11653105EA0154501566000000000000
B0623023246246S11653129EA0155301571000000000000
B0623063246297S11653149EA0155401565000000000000
B0623103246360S11653157EA0154001552000000000000
B0623143246430S11653151EA0153701554000000000000
B0623183246499S11653144EA0153801550000000000000
B0623223246573S11653133EA0152801538000000000000
B0623263246650S11653117EA0151901530000000000000
B0623303246727S11653099EA0151101525000000000000
B0623343246802S11653078EA0150601517000000000000
B0623383246878S11653058EA0149601505000000000000
B0623423246956S11653040EA0148301493000000000000
B0623463247034S11653025EA0147601487000000000000
B0623503247110S11653009EA0147301486000000000000
B0623543247186S11652995EA0147101483000000000000
B0623583247262S11652982EA0146801481000000000000
B0624023247338S11652966EA0146601475000000000000
B0624063247416S11652949EA0146001472000000000000
B0624103247495S11652932EA0145801470000000000000
B0624143247572S11652917EA0145201460000000000000
B0624183247649S11652904EA0144101448000000000000
B0624223247725S11652892EA0143101441000000000000
B0624263247801S11652883EA0142701438000000000000
B0624303247875S11652871EA0142301432000000000000
B0624343247949S11652860EA0141401419000000000000
B0624383248027S11652848EA0139701402000000000000
B0624423248107S11652836EA0138301390000000000000
B0624463248191S11652823EA0137001372000000000000
B0624503248276S11652811EA0135401359000000000000
B0624543248362S11652800EA0134101345000000000000
B0624583248448S11652792EA0133201337000000000000
B0625023248533S11652785EA0132501330000000000000
B0625063248617S11652778EA0131801324000000000000
B0625103248702S11652769EA0131801329000000000000
B0625143248783S11652759EA0133201345000000000000
B0625183248863S11652750EA0134401358000000000000
B0625223248936S11652752EA0137001385000000000000
B0625263248981S11652793EA0138701401000000000000
B0625303248963S11652844EA0140001414000000000000
B0625343248903S11652844EA0140501411000000000000
B0625383248856S11652784EA0140301414000000000000
B0625423248847S11652705EA0141201427000000000000
B0625463248830S11652629EA0142601439000000000000
B0625503248777S11652602EA0143701452000000000000
B0625543248746S11652641EA0144601456000000000000
B0625583248761S11652694EA0144801461000000000000
B0626023248812S11652701EA0146201471000000000000
B0626063248846S11652641EA0147201472000000015000
B0626103248826S11652564EA0147201479000000015000
B0626143248772S11652520EA0148001489000000015000
B0626183248717S11652535EA0148701498000000015000
B0626223248700S11652592EA0149501506000000000000
B0626263248730S11652639EA0150601517000000000000
B0626303248786S11652649EA0151101515000000000000
B0626343248852S11652641EA0149201490000000000000
B0626383248930S11652624EA0147001472000000000000
B0626423249011S11652603EA0146001460000000000000
B0626463249093S11652584EA0144801448000000000000
B0626503249177S11652564EA0143001432000000000000
B0626543249263S11652548EA0142101426000000000000
B0626583249348S11652529EA0141601424000000000000
B0627023249427S11652511EA0141201420000000000000
B0627063249505S11652493EA0140601411000000000000
B0627103249584S11652475EA0139301399000000000000
B0627143249664S11652458EA0138701391000000000000
B0627183249742S11652441EA0137501375000000000000
B0627223249822S11652419EA0136601376000000000000
B0627263249899S11652395EA0137701392000000000000
B0627303249970S11652373EA0139101407000000000000
B0627343250041S11652359EA0140401416000000000000
B0627383250111S11652360EA0140701418000000000000
B0627423250177S11652377EA0141101423000000000000
B0627463250238S11652410EA0140901410000000000000
B0627503250298S11652457EA0139501406000000000000
B0627543250355S11652505EA0140601424000000000000
B0627583250411S11652553EA0141601427000000000000
B0628023250466S11652607EA0141001418000000000000
B0628063250516S11652663EA0140901421000000000000
B0628103250567S11652718EA0140701417000000000000
B0628143250618S11652778EA0140101412000000000000
B0628183250668S11652836EA0140601417000000000000
B0628223250720S11652895EA0140401411000000000000
B0628263250771S11652952EA0139901407000000000000
B0628303250824S11653008EA0139301400000000000000
B0628343250878S11653066EA0138401390000000000000
B0628383250932S11653126EA0137801385000000000000
B0628423250987S11653186EA0137501381000000000000
B0628463251048S11653242EA0136701375000000000000
B0628503251109S11653298EA0137301385000000000000
B0628543251166S11653350EA0138301393000000000000
B0628583251222S11653402EA0138401394000000000000
B0629023251278S11653451EA0139101413000000000000
B0629063251338S11653455EA0142101444000000000000
B0629103251355S11653373EA0144101451000000000000
B0629143251302S11653308EA0143701444000000000000
B0629183251238S11653324EA0143901457000000000000
B0629223251201S11653377EA0144901460000000000000
B0629263251201S11653443EA0145001465000000000000
B0629303251218S11653512EA0145401469000000000000
B0629343251240S11653584EA0145801474000000000000
B0629383251283S11653627EA0148001501000000000000
B0629423251324S11653576EA0150101518000000015000
B0629463251298S11653504EA0150101510000000015000
B0629503251230S11653481EA0149301506000000015000
B0629543251164S11653498EA0149501507000000000000
B0629583251142S11653568EA0149201504000000000000
B0630023251152S11653647EA0149001502000000000000
B0630063251169S11653727EA0148401492000000000000
B0630103251192S11653807EA0147701487000000000000
B0630143251220S11653884EA0147801486000000000000
B0630183251244S11653965EA0146201467000000000000
B0630223251270S11654052EA0144801458000000000000
B0630263251299S11654143EA0143701443000000000000
B0630303251330S11654240EA0141901423000000000000
B0630343251361S11654340EA0139601398000000000000
B0630383251394S11654442EA0138501388000000000000
B0630423251425S11654540EA0137601381000000000000
B0630463251455S11654639EA0136401368000000000000
B0630503251486S11654737EA0135101353000000000000
B0630543251520S11654833EA0133501338000000000000
B0630583251551S11654930EA0132401330000000000000
B0631023251580S11655024EA0132701336000000000000
B0631063251611S11655109EA0133501348000000000000
B0631103251645S11655184EA0134501356000000000000
B0631143251675S11655257EA0135201364000000000000
B0631183251702S11655328EA0136001370000000000000
B0631223251727S11655397EA0137201388000000000000
B0631263251747S11655457EA0139301411000000000000
B0631303251768S11655510EA0141101427000000000000
B0631343251809S11655534EA0142601438000000000000
B0631383251845S11655483EA0143401441000000000000
B0631423251827S11655398EA0143301444000000000000
B0631463251763S11655358EA0144101455000000000000
B0631503251699S11655367EA0145301466000000000000
B0631543251666S11655410EA0146501480000000000000
B0631583251699S11655432EA0147501488000000000000
B0632023251732S11655369EA0148001495000000000000
B0632063251706S11655289EA0148701499000000015000
B0632103251641S11655253EA0149001502000000000000
B0632143251584S11655283EA0149201505000000000000
B0632183251550S11655344EA0149301507000000000000
B0632223251529S11655413EA0149801511000000000000
B0632263251532S11655482EA0150201516000000000000
B0632303251549S11655545EA0151201523000000000000
B0632343251567S11655603EA0153101531000000000000
B0632383251588S11655656EA0154401538000000000000
B0632423251624S11655688EA0155201548000000000000
B0632463251662S11655648EA0155601550000000015000
B0632503251637S11655577EA0155601553000000015000
B0632543251569S11655535EA0155401556000000000000
B0632583251493S11655517EA0155401561000000000000
B0633023251416S11655530EA0156401578000000000000
B0633063251386S11655587EA0158601598000000000000
B0633103251430S11655605EA0160001613000000000000
B0633143251454S11655540EA0161401629000000015000
B0633183251416S11655467EA0162001629000000015000
B0633223251343S11655444EA0162001634000000030000
B0633263251274S11655473EA0162801643000000075000
B0633303251221S11655509EA0164501662000000165000
B0633343251303S11655538EA0165101675000000090000
B0633383251356S11655475EA0165901681000000045000
B0633423251339S11655389EA0167301694000000030000
B0633463251281S11655330EA0167501692000000015000
B0633503251207S11655335EA0167401692000000015000
B0633543251149S11655395EA0167501692000000015000
B0633583251101S11655470EA0167101690000000000000
B0634023251060S11655554EA0166801683000000000000
B0634063251018S11655645EA0165401666000000000000
B0634103250982S11655744EA0163801652000000000000
B0634143250952S11655847EA0163101647000000000000
B0634183250927S11655951EA0162301638000000000000
B0634223250906S11656056EA0160901624000000000000
B0634263250888S11656160EA0159601610000000000000
B0634303250873S11656263EA0158601597000000000000
B0634343250861S11656362EA0158001600000000000000
B0634383250854S11656455EA0158701606000000000000
B0634423250856S11656549EA0159201612000000000000
B0634463250860S11656641EA0159701614000000000000
B0634503250854S11656734EA0160301624000000000000
B0634543250841S11656819EA0162301649000000000000
B0634583250830S11656896EA0164001662000000000000
B0635023250811S11656974EA0163501648000000000000
B0635063250782S11657061EA0161501628000000000000
B0635103250744S11657155EA0161101628000000000000
B0635143250707S11657250EA0161201634000000000000
B0635183250668S11657333EA0163301664000000000000
B0635223250632S11657407EA0165301675000000000000
B0635263250594S11657485EA0165201666000000000000
B0635303250559S11657572EA0163701649000000000000
B0635343250528S11657663EA0163201647000000000000
B0635383250497S11657753EA0162901643000000000000
B0635423250466S11657844EA0162101638000000000000
B0635463250434S11657931EA0162101637000000000000
B0635503250402S11658017EA0162201639000000000000
B0635543250368S11658102EA0161801631000000000000
B0635583250333S11658192EA0160901622000000000000
B0636023250301S11658284EA0160201618000000000000
B0636063250268S11658375EA0159801611000000000000
B0636103250236S11658466EA0158701602000000000000
B0636143250202S11658555EA0158101595000000000000
B0636183250168S11658641EA0157201587000000000000
B0636223250133S11658726EA0156001573000000000000
B0636263250098S11658812EA0155201565000000000000
B0636303250063S11658897EA0154401557000000000000
B0636343250029S11658981EA0153601549000000000000
B0636383249995S11659064EA0152601538000000000000
B0636423249959S11659146EA0151701528000000000000
B0636463249925S11659228EA0151001522000000000000
B0636503249892S11659310EA0150101514000000000000
B0636543249861S11659391EA0149501505000000000000
B0636583249829S11659471EA0148601497000000000000
B0637023249796S11659553EA0148001487000000000000
B0637063249764S11659639EA0146701472000000000000
B0637103249735S11659726EA0145501466000000000000
B0637143249705S11659813EA0145001457000000000000
B0637183249675S11659902EA0143901445000000000000
B0637223249647S11659994EA0142701432000000000000
B0637263249618S11700088EA0141901428000000000000
B0637303249587S11700179EA0141201417000000000000
B0637343249556S11700267EA0139801401000000000000
B0637383249523S11700358EA0138401390000000000000
B0637423249492S11700445EA0137301375000000000000
B0637463249459S11700535EA0135301353000000000000
B0637503249430S11700627EA0133501338000000000000
B0637543249398S11700721EA0132501330000000000000
B0637583249365S11700816EA0131501324000000000000
B0638023249336S11700909EA0131001320000000000000
B0638063249309S11701001EA0131001315000000000000
B0638103249301S11701091EA0131601324000000000000
B0638143249309S11701173EA0132301331000000000000
B0638183249324S11701248EA0133001339000000000000
B0638223249345S11701321EA0133401344000000000000
B0638263249365S11701391EA0134401364000000000000
B0638303249388S11701450EA0136901387000000000000
B0638343249437S11701458EA0139301409000000000000
B0638383249461S11701389EA0140801421000000015000
B0638423249422S11701319EA0141301423000000015000
B0638463249357S11701312EA0141901433000000000000
B0638503249324S11701359EA0142901444000000000000
B0638543249357S11701403EA0144101457000000000000
B0638583249413S11701385EA0145401466000000015000
B0639023249433S11701302EA0145901474000000015000
B0639063249387S11701229EA0146801482000000015000
B0639103249319S11701219EA0147801491000000015000
B0639143249274S11701263EA0148301499000000000000
B0639183249290S11701313EA0149701519000000000000
B0639223249340S11701304EA0151501529000000015000
B0639263249365S11701233EA0151801529000000015000
B0639303249332S11701159EA0152701546000000015000
B0639343249274S11701130EA0153901553000000000000
B0639383249219S11701160EA0153601539000000000000
B0639423249175S11701229EA0152301535000000000000
B0639463249136S11701307EA0153101552000000000000
B0639503249103S11701388EA0154601566000000000000
B0639543249069S11701473EA0155101566000000000000
B0639583249034S11701568EA0154101555000000000000
B0640023248994S11701668EA0152901545000000000000
B0640063248952S11701771EA0152401546000000015000
B0640103248910S11701870EA0152401543000000015000
B0640143248863S11701965EA0151501526000000000000
B0640183248815S11702060EA0149801508000000000000
B0640223248768S11702158EA0148401499000000000000
B0640263248724S11702253EA0148401500000000000000
B0640303248679S11702350EA0147501492000000015000
B0640343248634S11702448EA0145601483000000015000
B0640383248588S11702550EA0144101477000000015000
B0640423248548S11702649EA0142701455000000015000
B0640463248510S11702753EA0140901425000000015000
B0640503248479S11702862EA0139201413000000000000
B0640543248451S11702967EA0138801405000000000000
B0640583248425S11703067EA0138001397000000000000
B0641023248403S11703165EA0137601393000000000000
B0641063248380S11703257EA0136701382000000000000
B0641103248361S11703347EA0136401377000000000000
B0641143248343S11703432EA0136101375000000000000
B0641183248325S11703513EA0136001373000000000000
B0641223248305S11703592EA0135301361000000000000
B0641263248291S11703673EA0134101352000000000000
B0641303248279S11703752EA0133901352000000000000
B0641343248270S11703830EA0134201356000000000000
B0641383248257S11703907EA0135001369000000000000
B0641423248253S11703978EA0137301390000000000000
B0641463248275S11704037EA0138901406000000000000
B0641503248325S11704047EA0140601421000000000000
B0641543248353S11703982EA0141601430000000000000
B0641583248326S11703903EA0141901429000000015000
B0642023248260S11703861EA0141701430000000000000
B0642063248187S11703868EA0142601440000000000000
B0642103248132S11703903EA0143801448000000015000
B0642143248119S11703964EA0144301453000000015000
B0642183248143S11704021EA0144201453000000015000
B0642223248180S11704084EA0144101450000000015000
B0642263248226S11704146EA0145301452000000015000
B0642303248284S11704153EA0147801473000000015000
B0642343248279S11704062EA0149601491000000030000
B0642383248214S11704033EA0151001505000000030000
B0642423248174S11704077EA0151801513000000015000
B0642463248202S11704128EA0152901531000000015000
B0642503248253S11704106EA0154701552000000015000
B0642543248260S11704027EA0156001563000000030000
B0642583248210S11703962EA0156301573000000015000
B0643023248144S11703959EA0157301588000000015000
B0643063248113S11704010EA0158301599000000015000
B0643103248126S11704062EA0159401605000000015000
B0643143248166S11704063EA0161501614000000015000
B0643183248189S11703999EA0162401621000000015000
B0643223248159S11703916EA0162901634000000015000
B0643263248091S11703881EA0163801648000000015000
B0643303248040S11703920EA0164901658000000000000
B0643343248058S11703972EA0165701669000000000000
B0643383248107S11703952EA0167001690000000015000
B0643423248126S11703876EA0168701704000000015000
B0643463248089S11703798EA0169501715000000015000
B0643503248022S11703774EA0171001734000000015000
B0643543247981S11703816EA0172301742000000015000
B0643583248005S11703863EA0173001747000000000000
B0644023248057S11703835EA0173601754000000015000
B0644063248067S11703748EA0174901774000000015000
B0644103248026S11703673EA0176401787000000000000
B0644143247957S11703650EA0177101791000000000000
B0644183247901S11703691EA0177101793000000000000
B0644223247896S11703760EA0178201804000000000000
B0644263247937S11703799EA0179301816000000000000
B0644303247988S11703769EA0180901830000000015000
B0644343248005S11703690EA0181601834000000015000
B0644383247964S11703607EA0181901842000000015000
B0644423247894S11703555EA0183001852000000000000
B0644463247823S11703565EA0184201873000000000000
B0644503247792S11703618EA0186401892000000000000
B0644543247812S11703663EA0187701897000000000000
B0644583247863S11703660EA0187701896000000000000
B0645023247907S11703605EA0188201905000000000000
B0645063247906S11703522EA0188901912000000000000
B0645103247849S11703457EA0189101912000000000000
B0645143247772S11703453EA0189701921000000000000
B0645183247707S11703497EA0190101920000000000000
B0645223247659S11703573EA0189001901000000000000
B0645263247612S11703661EA0186801881000000000000
B0645303247568S11703757EA0185701878000000000000
B0645343247526S11703851EA0185601877000000000000
B0645383247487S11703943EA0185001870000000000000
B0645423247447S11704033EA0183901858000000000000
B0645463247407S11704123EA0183301845000000000000
B0645503247366S11704215EA0181801828000000000000
B0645543247324S11704309EA0180801816000000000000
B0645583247281S11704402EA0179701808000000000000
B0646023247239S11704496EA0179101802000000000000
B0646063247197S11704588EA0178601795000000000000
B0646103247155S11704684EA0176401761000000000000
B0646143247106S11704791EA0174101747000000000000
B0646183247057S11704896EA0173301744000000000000
B0646223247008S11704999EA0172901735000000000000
B0646263246958S11705098EA0171701729000000000000
B0646303246905S11705193EA0171601730000000000000
B0646343246853S11705281EA0172301740000000000000
B0646383246802S11705367EA0172701735000000000000
B0646423246754S11705455EA0171101715000000000000
B0646463246705S11705544EA0169501703000000000000
B0646503246654S11705628EA0168601695000000000000
B0646543246605S11705709EA0167601684000000000000
B0646583246553S11705788EA0166701676000000000000
B0647023246502S11705865EA0166301673000000000000
B0647063246451S11705943EA0165701662000000000000
B0647103246397S11706021EA0164701656000000000000
B0647143246347S11706099EA0165901677000000000000
B0647183246350S11706169EA0168101701000000000000
B0647223246398S11706177EA0170201718000000000000
B0647263246432S11706104EA0171801736000000000000
B0647303246437S11706013EA0173501755000000000000
B0647343246384S11705943EA0175401772000000000000
B0647383246311S11705940EA0176901784000000000000
B0647423246286S11705992EA0177601795000000000000
B0647463246328S11706006EA0178201800000000000000
B0647503246358S11705935EA0180001829000000015000
B0647543246323S11705854EA0182401848000000015000
B0647583246251S11705837EA0182901846000000015000
B0648023246196S11705884EA0182801852000000000000
B0648063246152S11705940EA0183201851000000000000
B0648103246104S11706005EA0182401842000000000000
B0648143246055S11706081EA0182101836000000000000
B0648183246001S11706162EA0181501831000000000000
B0648223245948S11706244EA0181101830000000000000
B0648263245894S11706326EA0180601818000000000000
B0648303245838S11706413EA0178701803000000000000
B0648343245782S11706503EA0177001790000000000000
B0648383245726S11706594EA0175801782000000000000
B0648423245667S11706682EA0175101774000000000000
B0648463245609S11706770EA0174501767000000000000
B0648503245550S11706854EA0174101757000000000000
B0648543245492S11706941EA0173001745000000000000
B0648583245435S11707028EA0171901735000000000000
B0649023245379S11707115EA0170901722000000000000
B0649063245323S11707204EA0169801713000000000000
B0649103245268S11707290EA0168901702000000000000
B0649143245215S11707375EA0168201698000000000000
B0649183245162S11707460EA0167501690000000000000
B0649223245108S11707540EA0166901683000000000000
B0649263245054S11707618EA0165901671000000000000
B0649303244997S11707695EA0165101662000000000000
B0649343244938S11707769EA0164101650000000000000
B0649383244878S11707845EA0162901639000000000000
B0649423244821S11707919EA0162101632000000000000
B0649463244760S11707988EA0162001631000000000000
B0649503244699S11708051EA0161901628000000000000
B0649543244640S11708116EA0161101615000000000000
B0649583244582S11708181EA0160101613000000000000
B0650023244526S11708245EA0160201614000000000000
B0650063244471S11708310EA0160201614000000000000
B0650103244413S11708374EA0159801607000000000000
B0650143244353S11708439EA0158801595000000000000
B0650183244292S11708506EA0157901591000000000000
B0650223244231S11708569EA0157801587000000000000
B0650263244166S11708635EA0157201582000000000000
B0650303244101S11708705EA0156901574000000000000
B0650343244035S11708777EA0155801568000000000000
B0650383243972S11708847EA0155501561000000000000
B0650423243914S11708920EA0154401551000000000000
B0650463243853S11708989EA0153801543000000000000
B0650503243789S11709054EA0153701543000000000000
B0650543243726S11709117EA0153301536000000000000
B0650583243664S11709184EA0152501528000000000000
B0651023243600S11709250EA0152101523000000000000
B0651063243537S11709312EA0151801523000000000000
B0651103243474S11709371EA0151101515000000000000
B0651143243411S11709433EA0149301492000000000000
B0651183243349S11709498EA0147601479000000000000
B0651223243290S11709566EA0147301486000000000000
B0651263243236S11709628EA0148501500000000000000
B0651303243187S11709685EA0150001515000000000000
B0651343243165S11709749EA0151501531000000000000
B0651383243192S11709795EA0153301548000000000000
B0651423243238S11709763EA0154501553000000000000
B0651463243244S11709678EA0153301527000000000000
B0651503243193S11709600EA0151601527000000000000
B0651543243125S11709549EA0152201537000000000000
B0651583243052S11709532EA0153101542000000000000
B0652023242978S11709553EA0153201539000000000000
B0652063242911S11709598EA0152701537000000000000
B0652103242852S11709654EA0152901536000000000000
B0652143242794S11709721EA0151201516000000000000
B0652183242737S11709793EA0149801502000000000000
B0652223242680S11709869EA0148901496000000000000
B0652263242624S11709945EA0148001487000000015000
B0652303242573S11710023EA0147201478000000015000
B0652343242524S11710101EA0146301471000000015000
B0652383242476S11710178EA0145301461000000000000
B0652423242429S11710255EA0144401452000000000000
B0652463242382S11710330EA0143401444000000000000
B0652503242333S11710403EA0142501437000000015000
B0652543242281S11710475EA0141401430000000015000
B0652583242229S11710545EA0140701423000000030000
B0653023242179S11710612EA0140401416000000030000
B0653063242130S11710676EA0139801408000000030000
B0653103242083S11710745EA0138901402000000030000
B0653143242040S11710816EA0138601396000000045000
B0653183242003S11710894EA0138601393000000030000
B0653223241965S11710974EA0138901396000000030000
B0653263241945S11711058EA0139701405000000015000
B0653303241938S11711138EA0141301422000000015000
B0653343241953S11711205EA0143901439000000015000
B0653383242007S11711180EA0146301464000000015000
B0653423242009S11711099EA0146901461000000030000
B0653463241952S11711044EA0146401463000000030000
B0653503241883S11711041EA0147201477000000045000
B0653543241828S11711080EA0148601493000000015000
B0653583241809S11711143EA0150501510000000015000
B0654023241852S11711166EA0152101536000000015000
B0654063241880S11711108EA0153901548000000015000
B0654103241841S11711043EA0155101562000000015000
B0654143241774S11711044EA0156501577000000015000
B0654183241740S11711100EA0158301594000000015000
B0654223241769S11711144EA0160301617000000000000
B0654263241819S11711114EA0161401620000000015000
B0654303241818S11711031EA0161901634000000015000
B0654343241758S11710989EA0163501658000000000000
B0654383241702S11711019EA0165301669000000000000
B0654423241695S11711082EA0166801689000000000000
B0654463241740S11711100EA0169001710000000000000
B0654503241782S11711053EA0170001713000000000000
B0654543241765S11710978EA0170301723000000000000
B0654583241708S11710948EA0172401747000000000000
B0655023241653S11710972EA0173701754000000000000
B0655063241617S11711031EA0174301761000000000000
B0655103241628S11711091EA0176201779000000000000
B0655143241674S11711053EA0177501790000000000000
B0655183241659S11710974EA0177601793000000000000
B0655223241597S11710941EA0178401808000000000000
B0655263241542S11710982EA0179501818000000000000
B0655303241535S11711050EA0180701831000000000000
B0655343241578S11711070EA0182501850000000015000
B0655383241610S11711014EA0183901852000000015000
B0655423241594S11710931EA0182901836000000015000
B0655463241522S11710901EA0182101835000000015000
B0655503241451S11710950EA0180901821000000015000
B0655543241394S11711028EA0179401813000000015000
B0655583241346S11711117EA0178401807000000015000
B0656023241301S11711210EA0177901801000000015000
B0656063241255S11711304EA0177401794000000000000
B0656103241210S11711398EA0176801785000000000000
B0656143241159S11711490EA0175601769000000000000
B0656183241106S11711582EA0174501766000000000000
B0656223241054S11711669EA0174001756000000000000
B0656263241002S11711754EA0173701754000000000000
B0656303240951S11711832EA0173801757000000000000
B0656343240902S11711906EA0173501749000000000000
B0656383240850S11711980EA0172501737000000000000
B0656423240796S11712054EA0171801734000000000000
B0656463240744S11712129EA0171301723000000000000
B0656503240691S11712206EA0170301713000000000000
B0656543240640S11712285EA0168901702000000000000
B0656583240592S11712367EA0168401701000000000000
B0657023240543S11712445EA0168301700000000000000
B0657063240497S11712523EA0169601721000000000000
B0657103240453S11712596EA0171401731000000015000
B0657143240408S11712666EA0171801733000000015000
B0657183240356S11712731EA0171101727000000015000
B0657223240301S11712798EA0169201720000000015000
B0657263240237S11712869EA0166801708000000015000
B0657303240177S11712945EA0166201711000000030000
B0657343240118S11713021EA0165801702000000015000
B0657383240059S11713098EA0166501704000000015000
B0657423240005S11713172EA0167801711000000015000
B0657463239949S11713242EA0168801716000000015000
B0657503239894S11713311EA0169501716000000015000
B0657543239836S11713381EA0169201708000000015000
B0657583239777S11713457EA0167901691000000015000
B0658023239715S11713533EA0166401683000000015000
B0658063239651S11713610EA0165401677000000015000
B0658103239583S11713683EA0164401668000000015000
B0658143239517S11713756EA0163301664000000015000
B0658183239449S11713827EA0162401660000000030000
B0658223239381S11713896EA0161801656000000030000
B0658263239313S11713964EA0161201651000000045000
B0658303239245S11714030EA0160501647000000045000
B0658343239179S11714098EA0159501642015000045000
B0658383239115S11714165EA0158701638015000060000
B0658423239053S11714230EA0158101633015000060000
B0658463238992S11714297EA0158301627015000060000
B0658503238937S11714364EA0158001610000000045000
B0658543238881S11714434EA0157501592000000030000
B0658583238828S11714502EA0156901583000000015000
B0659023238775S11714570EA0156601581000000015000
B0659063238723S11714635EA0156301582000000015000
B0659103238675S11714698EA0156001582000000030000
B0659143238625S11714761EA0155001581000000030000
B0659183238584S11714830EA0154001580000000045000
B0659223238572S11714908EA0153701571000000030000
B0659263238545S11714987EA0152501550000000030000
B0659303238507S11715071EA0150701529000000030000
B0659343238465S11715151EA0149701520000000030000
B0659383238419S11715230EA0149401513000000030000
B0659423238387S11715307EA0150701514000000030000
B0659463238385S11715389EA0153001528000000030000
B0659503238400S11715452EA0155001552000000030000
B0659543238421S11715506EA0157501586000000015000
B0659583238467S11715489EA0160501613000000030000
B0700023238465S11715398EA0162501629000000030000
B0700063238409S11715347EA0164301650000000060000
B0700103238365S11715376EA0166401671000000075000
B0700143238391S11715413EA0168301691000000030000
B0700183238430S11715357EA0170201715000000030000
B0700223238406S11715272EA0172101737000000030000
B0700263238346S11715212EA0173701762000000075000
B0700303238279S11715226EA0174901765000000090000
B0700343238244S11715281EA0175801775000000090000
B0700383238282S11715298EA0177501796000000150000
B0700423238324S11715238EA0179401816000000135000
B0700463238286S11715162EA0180801827000000075000
B0700503238218S11715162EA0181601832000000075000
B0700543238188S11715218EA0182501845000000045000
B0700583238218S11715260EA0184301864000000045000
B0701023238269S11715243EA0186101869000000060000
B0701063238279S11715157EA0187101877000000075000
B0701103238231S11715082EA0188201894000000075000
B0701143238161S11715071EA0188801901000000075000
B0701183238112S11715117EA0189201912000000045000
B0701223238108S11715177EA0190301921000000030000
B0701263238151S11715209EA0191401935000000030000
B0701303238200S11715169EA0193001952000000030000
B0701343238201S11715087EA0194401968000000015000
B0701383238148S11715036EA0196101985000000015000
B0701423238091S11715048EA0197601994000000015000
B0701463238078S11715104EA0197801995000000015000
B0701503238118S11715144EA0198102000000000015000
B0701543238169S11715099EA0199402014000000015000
B0701583238151S11715018EA0200802035000000015000
B0702023238090S11715001EA0202602045000000015000
B0702063238035S11715043EA0202302028000000015000
B0702103237992S11715117EA0200102011000000015000
B0702143237952S11715210EA0198702007000000015000
B0702183237910S11715311EA0198602008000000015000
B0702223237867S11715417EA0197702001000000015000
B0702263237827S11715522EA0195501995000000015000
B0702303237787S11715633EA0194301988000000015000
B0702343237745S11715738EA0193101978000000015000
B0702383237704S11715845EA0193001976000000015000
B0702423237661S11715942EA0192801978000000030000
B0702463237619S11716040EA0192101980000000030000
B0702503237583S11716137EA0191901981000000045000
B0702543237546S11716230EA0191401980000000045000
B0702583237507S11716325EA0190601979000000060000
B0703023237464S11716419EA0189701976000000060000
B0703063237419S11716513EA0188801973000000060000
B0703103237369S11716605EA0188401970000000075000
B0703143237325S11716699EA0187601967015000075000
B0703183237281S11716793EA0186801964015000075000
B0703223237230S11716889EA0186201960015000090000
B0703263237180S11716984EA0186001957015000090000
B0703303237130S11717071EA0185301954015000090000
B0703343237081S11717157EA0184601951015000105000
B0703383237037S11717237EA0184301947015000105000
B0703423236998S11717319EA0184101945015000105000
B0703463236963S11717404EA0183701942015000120000
B0703503236931S11717487EA0183401939015000120000
B0703543236899S11717557EA0183801934015000120000
B0703583236868S11717639EA0184601940015000120000
B0704023236840S11717719EA0184701943015000120000
B0704063236809S11717807EA0185301946015000120000
B0704103236775S11717896EA0186001949015000135000
B0704143236743S11717989EA0186501945015000120000
B0704183236704S11718086EA0187401934015000090000
B0704223236670S11718185EA0187001909000000075000
B0704263236634S11718281EA0185501902000000075000
B0704303236596S11718381EA0184801887000000060000
B0704343236556S11718479EA0183301881000000060000
B0704383236511S11718575EA0182401875000000060000
B0704423236469S11718671EA0181001869000000060000
B0704463236430S11718769EA0180301864000000075000
B0704503236387S11718865EA0179901859015000075000
B0704543236341S11718957EA0179401854015000075000
B0704583236297S11719048EA0179001850015000090000
B0705023236253S11719138EA0178001846015000090000
B0705063236205S11719226EA0177201841015000105000
B0705103236158S11719316EA0176501837015000105000
B0705143236111S11719407EA0175401833015000105000
B0705183236066S11719498EA0174301828015000105000
B0705223236023S11719585EA0173601824015000105000
B0705263235981S11719672EA0172601819015000105000
B0705303235942S11719757EA0171601814030000105000
B0705343235904S11719835EA0170301808030000120000
B0705383235871S11719920EA0169501802030000120000
B0705423235841S11720009EA0168701797030000120000
B0705463235812S11720098EA0167801792030000135000
B0705503235791S11720189EA0167801787030000135000
B0705543235767S11720279EA0167901786030000135000
B0705583235742S11720369EA0167801786030000150000
B0706023235720S11720462EA0167301781015000150000
B0706063235703S11720561EA0167801777015000150000
B0706103235696S11720657EA0169101775015000135000
B0706143235699S11720746EA0170601780015000135000
B0706183235746S11720810EA0173001781015000120000
B0706223235791S11720761EA0174701791000000090000
B0706263235774S11720685EA0176301792000000075000
B0706303235715S11720630EA0176701788000000060000
B0706343235646S11720605EA0177401794000000045000
B0706383235577S11720621EA0178801801000000045000
B0706423235509S11720657EA0179301807000000045000
B0706463235457S11720708EA0179901813000000060000
B0706503235475S11720852EA0179601793000000045000
B0706543235460S11720955EA0176201752000000030000
B0706583235442S11721068EA0173601733000000015000
B0707023235422S11721185EA0171301711000000015000
B0707063235404S11721302EA0170101708000000015000
B0707103235387S11721414EA0170101706000000015000
B0707143235373S11721522EA0169801700000000015000
B0707183235362S11721631EA0169301692000000015000
B0707223235354S11721740EA0168601687000000000000
B0707263235351S11721848EA0167901680000000000000
B0707303235349S11721950EA0168201680000000015000
B0707343235351S11722048EA0167401671000000015000
B0707383235353S11722149EA0166501666000000015000
B0707423235353S11722247EA0165901658000000015000
B0707463235349S11722347EA0164601645000000015000
B0707503235344S11722448EA0164201641000000015000
B0707543235343S11722549EA0163101634000000015000
B0707583235345S11722653EA0162601628000000015000
B0708023235347S11722756EA0161401618000000015000
B0708063235351S11722858EA0159901610000000015000
B0708103235354S11722960EA0159201607000000015000
B0708143235356S11723059EA0159101600000000015000
B0708183235360S11723156EA0158901596000000015000
B0708223235362S11723248EA0160301599000000030000
B0708263235367S11723337EA0161501607000000030000
B0708303235375S11723416EA0161401606000000015000
B0708343235393S11723494EA0160401596000000015000
B0708383235413S11723573EA0159401583000000015000
B0708423235421S11723662EA0157901574000000015000
B0708463235422S11723751EA0157201568000000015000
B0708503235421S11723842EA0156901571000000000000
B0708543235430S11723927EA0157401576000000000000
B0708583235448S11724011EA0156601562000000000000
B0709023235462S11724100EA0155701557000000000000
B0709063235473S11724191EA0154801547000000000000
B0709103235481S11724284EA0153801538000000000000
B0709143235483S11724377EA0153301532000000000000
B0709183235478S11724470EA0152901531000000000000
B0709223235471S11724560EA0152801528000000000000
B0709263235457S11724648EA0152501528000000000000
B0709303235439S11724730EA0153201538000000000000
B0709343235416S11724810EA0152801529000000000000
B0709383235387S11724890EA0151701516000000000000
B0709423235354S11724971EA0151201513000000000000
B0709463235323S11725054EA0151301515000000000000
B0709503235315S11725137EA0151501517000000000000
B0709543235319S11725218EA0151301511000000000000
B0709583235319S11725300EA0150201502000000000000
B0710023235302S11725384EA0149101488000000000000
B0710063235270S11725467EA0147701475000000000000
B0710103235223S11725548EA0146501464000000000000
B0710143235167S11725623EA0145801457000000000000
B0710183235114S11725699EA0145001444000000000000
B0710223235063S11725778EA0143201423000000000000
B0710263235013S11725863EA0141001402000000000000
B0710303234959S11725947EA0139601389000000000000
B0710343234898S11726028EA0138201379000000000000
B0710383234841S11726108EA0138901390000000000000
B0710423234794S11726192EA0138901387000000000000
B0710463234745S11726272EA0138901389000000000000
B0710503234693S11726353EA0138301372000000000000
B0710543234654S11726442EA0137001362000000000000
B0710583234641S11726532EA0136901364000000000000
B0711023234651S11726613EA0136701362000000000000
B0711063234672S11726684EA0136101351000000000000
B0711103234690S11726760EA0134301332000000000000
B0711143234702S11726843EA0132401315000000000000
B0711183234701S11726933EA0130901301000000000000
B0711223234681S11727020EA0130201296000000000000
B0711263234649S11727102EA0129801291000000000000
B0711303234607S11727178EA0129001283000000000000
B0711343234556S11727254EA0128001272000000000000
B0711383234500S11727326EA0127101263000000000000
B0711423234443S11727397EA0126601260000000000000
B0711463234389S11727469EA0125901244000000000000
B0711503234337S11727546EA0124301232000000000000
B0711543234283S11727623EA0123501226000000000000
B0711583234235S11727702EA0122901220000000000000
B0712023234195S11727788EA0122401214000000000000
B0712063234168S11727876EA0122201214000000000000
B0712103234149S11727965EA0121701207000000000000
B0712143234144S11728051EA0120601195000000000000
B0712183234144S11728139EA0119901193000000000000
B0712223234144S11728226EA0119301177000000000000
B0712263234157S11728312EA0118601178000000000000
B0712303234175S11728394EA0118601176000000000000
B0712343234199S11728472EA0118001171000000000000
B0712383234231S11728545EA0118101174000000000000
B0712423234269S11728608EA0118601179000000000000
B0712463234311S11728665EA0118401174000000000000
B0712503234353S11728721EA0117701166000000000000
B0712543234404S11728772EA0116501150000000000000
B0712583234451S11728831EA0115501143000000000000
B0713023234486S11728901EA0114601134000000000000
B0713063234511S11728979EA0113601123000000000000
B0713103234528S11729062EA0112001104000000000000
B0713143234538S11729152EA0110001085000000000000
B0713183234539S11729245EA0109201079000000000000
B0713223234546S11729336EA0109001075000000000000
B0713263234561S11729425EA0108501069000000000000
B0713303234585S11729505EA0108001067000000000000
B0713343234612S11729579EA0107701062000000000000
B0713383234654S11729639EA0107001052000000000000
B0713423234686S11729708EA0105501038000000000000
B0713463234701S11729789EA0104801038000000000000
B0713503234712S11729863EA0105101037000000000000
B0713543234738S11729928EA0104801032000000000000
B0713583234776S11729982EA0104101024000000000000
B0714023234819S11730032EA0103301014000000000000
B0714063234866S11730081EA0102701014000000000000
B0714103234916S11730125EA0102701010000000000000
B0714143234975S11730162EA0101700998000000000000
B0714183235039S11730196EA0100800990000000000000
B0714223235101S11730225EA0100200985000000000000
B0714263235166S11730250EA0099600979000000000000
B0714303235230S11730270EA0099400980000000000000
B0714343235289S11730300EA0099600982000000000000
B0714383235345S11730339EA0100100989000000000000
B0714423235404S11730366EA0101301003000000000000
B0714463235455S11730313EA0103701026000000000000
B0714503235435S11730222EA0105101038000000000000
B0714543235365S11730176EA0106201055000000000000
B0714583235304S11730206EA0107801068000000000000
B0715023235306S11730264EA0108801077000000000000
B0715063235357S11730258EA0110301096000000015000
B0715103235373S11730180EA0111901110000000015000
B0715143235326S11730111EA0113301130000000015000
B0715183235260S11730105EA0114701143000000015000
B0715223235236S11730155EA0115901155000000015000
B0715263235273S11730181EA0117001166000000015000
B0715303235313S11730131EA0118201181000000015000
B0715343235305S11730046EA0119601195000000015000
B0715383235244S11729991EA0120901209000000015000
B0715423235180S11730014EA0122501225000000015000
B0715463235183S11730072EA0124001241000000015000
B0715503235232S11730062EA0125901258000000015000
B0715543235248S11729978EA0127301272000000015000
B0715583235197S11729907EA0128301279000000015000
B0716023235119S11729899EA0129201294000000015000
B0716063235085S11729952EA0131401319000000015000
B0716103235127S11729963EA0133501340000000015000
B0716143235146S11729894EA0135001352000000015000
B0716183235101S11729825EA0135601360000000015000
B0716223235032S11729834EA0136701373000000015000
B0716263235032S11729890EA0138301395000000015000
B0716303235081S11729880EA0140001407000000015000
B0716343235094S11729798EA0140501406000000015000
B0716383235042S11729722EA0141101419000000015000
B0716423234964S11729699EA0142501434000000015000
B0716463234902S11729741EA0144101449000000015000
B0716503234903S11729807EA0145901463000000015000
B0716543234954S11729834EA0146401469000000015000
B0716583235009S11729799EA0147801486000000015000
B0717023235040S11729722EA0148901492000000015000
B0717063235041S11729625EA0149601501000000015000
B0717103235000S11729539EA0150801520000000015000
B0717143234932S11729547EA0152601534000000015000
B0717183234941S11729604EA0154001557000000015000
B0717223234993S11729582EA0156301580000000015000
B0717263235006S11729500EA0158001593000000015000
B0717303234966S11729422EA0159401610000000015000
B0717343234898S11729401EA0161101624000000015000
B0717383234851S11729443EA0161901630000000015000
B0717423234866S11729499EA0162901642000000015000
B0717463234919S11729495EA0164501660000000015000
B0717503234955S11729430EA0166201676000000015000
B0717543234942S11729341EA0167501689000000015000
B0717583234885S11729278EA0168801701000000015000
B0718023234814S11729270EA0169401707000000015000
B0718063234769S11729317EA0170001714000000015000
B0718103234777S11729378EA0171101729000000015000
B0718143234828S11729392EA0172601739000000015000
B0718183234867S11729328EA0173901757000000015000
B0718223234847S11729235EA0175201766000000015000
B0718263234781S11729180EA0176201780000000015000
B0718303234714S11729195EA0177201788000000015000
B0718343234699S11729256EA0178101797000000015000
B0718383234745S11729283EA0179901818000000015000
B0718423234795S11729248EA0181001830000000015000
B0718463234811S11729163EA0182001839000000015000
B0718503234776S11729078EA0182901849000000015000
B0718543234710S11729046EA0184001856000000015000
B0718583234652S11729079EA0184201857000000015000
B0719023234634S11729143EA0184401862000000015000
B0719063234638S11729211EA0185201871000000000000
B0719103234673S11729260EA0186301879000000000000
B0719143234727S11729224EA0187001885000000015000
B0719183234746S11729140EA0187001883000000015000
B0719223234706S11729053EA0187201889000000015000
B0719263234630S11729007EA0187901896000000015000
B0719303234546S11729013EA0188001891000000015000
B0719343234472S11729059EA0187201882000000000000
B0719383234402S11729127EA0185901868000000000000
B0719423234333S11729208EA0184201848000000000000
B0719463234264S11729297EA0182901827000000000000
B0719503234194S11729395EA0181301812000000000000
B0719543234123S11729495EA0179801797000000000000
B0719583234054S11729595EA0178801787000000000000
B0720023233987S11729695EA0177601769000000000000
B0720063233919S11729794EA0176101758000000000000
B0720103233852S11729893EA0175101748000000000000
B0720143233783S11729990EA0174101739000000000000
B0720183233713S11730084EA0173201729000000000000
B0720223233645S11730179EA0172301723000000000000
B0720263233577S11730270EA0171801718000000000000
B0720303233510S11730358EA0171101711000000000000
B0720343233441S11730443EA0170601707000000000000
B0720383233371S11730524EA0170201699000000000000
B0720423233303S11730608EA0169401690000000000000
B0720463233234S11730693EA0168301679000000000000
B0720503233165S11730781EA0167601672000000000000
B0720543233098S11730865EA0166801664000000000000
B0720583233033S11730951EA0165601652000000000000
B0721023232968S11731037EA0164201637000000000000
B0721063232904S11731124EA0163301624000000000000
B0721103232839S11731208EA0162001617000000000000
B0721143232775S11731291EA0161801614000000000000
B0721183232712S11731372EA0161201608000000000000
B0721223232643S11731449EA0160701602000000000000
B0721263232574S11731522EA0160201597000000000000
B0721303232505S11731596EA0159901599000000000000
B0721343232444S11731659EA0162001629000000000000
B0721383232390S11731717EA0163801638000000000000
B0721423232344S11731782EA0164001640000000000000
B0721463232307S11731854EA0164001637000000000000
B0721503232273S11731935EA0163001623000000000000
B0721543232242S11732022EA0162201619000000000000
B0721583232215S11732113EA0161301603000000000000
B0722023232184S11732211EA0159401583000000000000
B0722063232150S11732313EA0157601565000000000000
B0722103232117S11732420EA0156501562000000000000
B0722143232084S11732519EA0157501574000000000000
B0722183232051S11732615EA0157501570000000000000
B0722223232019S11732710EA0157301571000000000000
B0722263231987S11732802EA0157301571000000000000
B0722303231958S11732893EA0156801561000000000000
B0722343231926S11732987EA0155801553000000000000
B0722383231894S11733079EA0155201547000000000000
B0722423231864S11733173EA0154401537000000000000
B0722463231837S11733267EA0153301526000000000000
B0722503231807S11733362EA0152401514000000000000
B0722543231776S11733457EA0150701499000000000000
B0722583231742S11733551EA0149801487000000000000
B0723023231709S11733644EA0148601476000000000000
B0723063231675S11733738EA0147701464000000000000
B0723103231643S11733833EA0146501455000000000000
B0723143231612S11733930EA0145901447000000000000
B0723183231582S11734027EA0145401448000000000000
B0723223231553S11734120EA0145901453000000000000
B0723263231527S11734213EA0145701449000000000000
B0723303231504S11734305EA0144701439000000000000
B0723343231480S11734400EA0143201424000000000000
B0723383231456S11734496EA0141501408000000000000
B0723423231430S11734591EA0140301398000000000000
B0723463231404S11734683EA0139701394000000000000
B0723503231374S11734773EA0139201386000000000000
B0723543231343S11734859EA0138701384000000000000
B0723583231311S11734943EA0138201376000000000000
B0724023231284S11735029EA0137701375000000000000
B0724063231266S11735112EA0138201379000000000000
B0724103231256S11735195EA0137501361000000000000
B0724143231243S11735285EA0135601349000000000000
B0724183231226S11735373EA0135101346000000000000
B0724223231213S11735454EA0135801356000000000000
B0724263231207S11735531EA0136301360000000000000
B0724303231204S11735604EA0136501359000000000000
B0724343231215S11735670EA0136401355000000000000
B0724383231240S11735730EA0135101341000000000000
B0724423231253S11735796EA0133901330000000000000
B0724463231259S11735865EA0132601316000000000000
B0724503231270S11735936EA0131001300000000000000
B0724543231270S11736013EA0130201294000000000000
B0724583231252S11736088EA0129801287000000000000
B0725023231219S11736160EA0128801276000000000000
B0725063231188S11736235EA0127701264000000000000
B0725103231172S11736315EA0127201262000000000000
B0725143231163S11736387EA0127501267000000000000
B0725183231165S11736455EA0127101258000000000000
B0725223231178S11736521EA0125501239000000000000
B0725263231179S11736597EA0123901225000000000000
B0725303231171S11736675EA0122401209000000000000
B0725343231153S11736754EA0121201201000000000000
B0725383231132S11736832EA0120901199000000000000
B0725423231113S11736910EA0120401192000000000000
B0725463231097S11736989EA0120001189000000000000
B0725503231088S11737067EA0119701187000000000000
B0725543231097S11737141EA0120201194000000000000
B0725583231116S11737213EA0120801202000000000000
B0726023231144S11737278EA0121801213000000000000
B0726063231183S11737333EA0123001225000000000000
B0726103231240S11737334EA0124101234000000000000
B0726143231271S11737262EA0124501235000000000000
B0726183231246S11737171EA0123601225000000000000
B0726223231188S11737093EA0123301225000000000000
B0726263231113S11737044EA0124401242000000000000
B0726303231067S11737088EA0126601262000000000000
B0726343231106S11737104EA0127901275000000015000
B0726383231120S11737034EA0128701282000000015000
B0726423231081S11736963EA0129101291000000015000
B0726463231015S11736962EA0130201303000000015000
B0726503230986S11737015EA0131201307000000015000
B0726543231020S11737053EA0131701314000000015000
B0726583231057S11737005EA0132901332000000015000
B0727023231028S11736932EA0134101337000000015000
B0727063230958S11736914EA0134401341000000015000
B0727103230920S11736967EA0135101351000000015000
B0727143230950S11737014EA0136001361000000015000
B0727183230999S11736992EA0137501378000000015000
B0727223231007S11736919EA0138901389000000015000
B0727263230962S11736850EA0139501395000000015000
B0727303230893S11736846EA0139701398000000015000
B0727343230866S11736910EA0140201403000000015000
B0727383230901S11736953EA0141201419000000015000
B0727423230947S11736917EA0142801436000000015000
B0727463230947S11736839EA0144301447000000015000
B0727503230894S11736779EA0145201454000000015000
B0727543230819S11736774EA0145401452000000015000
B0727583230764S11736827EA0145301453000000015000
B0728023230751S11736904EA0146001461000000015000
B0728063230773S11736966EA0146401462000000000000
B0728103230830S11736961EA0146201462000000015000
B0728143230853S11736884EA0146401461000000015000
B0728183230821S11736792EA0146101466000000015000
B0728223230776S11736711EA0147401481000000015000
B0728263230706S11736684EA0148701488000000015000
B0728303230676S11736742EA0149601500000000015000
B0728343230706S11736788EA0150801512000000015000
B0728383230752S11736767EA0151901515000000015000
B0728423230762S11736692EA0152801525000000015000
B0728463230715S11736628EA0153601534000000015000
B0728503230642S11736620EA0153901532000000015000
