ACAM4N6
HFDTE100921
HFFXA050
HFPLTPILOT:JOHN WELSH              
HFGTYGLIDERTYPE:HORNET      
HFGIDGLIDERID:VH-GMY      
HFDTM100GPSDATUM:
HFRFWFIRMWAREVERSION:F2.6
HFRHWHARDWAREVERSION:300 Series Version 2
HFFTYFRTYPE:CAMBRIDGE AERO INSTRUMENTS, 302+
HFGPS:GARMIN,LVS-25,12,18000
HFPRSPRESSALTSENSOR:INTERSEMA, MS5534-AP, 20000
I033638FXA3941ENL4247REX
LCAMSBVER:5FWVER:F26300
C020521044002020521000101
C0000000N00000000WTAKEOFF     
C3207549S11656849EBEVAIR      
C3255649S11704983ENARRAIR     
C3207549S11656849EBEVAIR      
C0000000N00000000WLANDING     
B0519113207338S11656856EA0015200205000004000000
B0519133207338S11656856EA0015200205000004000000
B0519153207338S11656856EA0015100205000004000000
B0519173207338S11656856EA0015100205000000000000
B0519193207338S11656856EA0015200205000000000000
B0519213207338S11656856EA0015200205000000000000
B0519233207338S11656856EA0015300205000000000000
B0519253207338S11656856EA0015300205000000000000
B0519273207338S11656856EA0015200204000000000000
B0519293207338S11656856EA0015200204000004000000
B0519313207338S11656856EA0015200204000004000000
B0519333207338S11656856EA0015200204000004000000
B0519353207338S11656857EA0015200204000004000000
B0519373207339S11656857EA0015200204000004000000
B0519393207341S11656858EA0015300205000004000000
B0519443207358S11656874EA0015300204000004000000
B0519483207388S11656897EA0015200204000004000000
B0519523207433S11656927EA0015300205000004000000
B0519563207492S11656966EA0015600206000000000000
B0520003207557S11657010EA0016000210000004000000
B0520043207629S11657056EA0016700217000004000000
B0520083207706S11657103EA0017600225000004000000
B0520123207781S11657156EA0017900229000004000000
B0520163207850S11657215EA0019400250000004000000
B0520203207914S11657278EA0021300270000004000000
B0520243207970S11657343EA0024100302000000000000
B0520283208025S11657412EA0026500322000000000000
B0520323208071S11657490EA0028000338000000000000
B0520363208113S11657575EA0029500353000000000000
B0520403208147S11657666EA0031000374000000000000
B0520443208168S11657763EA0032800389000000000000
B0520483208175S11657866EA0034100407000000000000
B0520523208173S11657969EA0036200429000000000000
B0520563208161S11658069EA0038100450000000000000
B0521003208138S11658160EA0041000480000000000000
B0521043208104S11658244EA0043600503000000000000
B0521083208057S11658314EA0046200527000000000000
B0521123207999S11658372EA0047800539000000000000
B0521163207935S11658413EA0049000554000000000000
B0521203207867S11658443EA0050700570000004000000
B0521243207798S11658461EA0052800594000000000000
B0521283207723S11658478EA0054600606000004000000
B0521323207646S11658495EA0056000623000004000000
B0521363207570S11658505EA0057800639000000000000
B0521403207495S11658511EA0059400657000000000000
B0521443207427S11658505EA0061100672000000000000
B0521483207359S11658491EA0062500686000004000000
B0521523207293S11658468EA0063500693000004000000
B0521563207228S11658433EA0064100700000000000000
B0522003207173S11658387EA0065800718000000000000
B0522043207128S11658331EA0067500735000000000000
B0522083207091S11658266EA0068300746000004000000
B0522123207064S11658196EA0070000766000004000000
B0522163207050S11658122EA0071700781000000000000
B0522203207047S11658047EA0073400797000004000000
B0522243207053S11657967EA0075100814000000000000
B0522283207059S11657893EA0076400823000000000000
B0522323207022S11657846EA0077500834000000000000
B0522363206968S11657874EA0078400839000000000000
B0522403206956S11657948EA0078500839000000000000
B0522443206996S11657998EA0078800844000000000000
B0522483207043S11657982EA0079200844000000015000
B0522523207038S11657928EA0078900842000000015000
B0522563206986S11657915EA0078900842000000015000
B0523003206938S11657963EA0078700842000000015000
B0523043206933S11658037EA0078900847000004015000
B0523083206981S11658087EA0079200848000004015000
B0523123207035S11658073EA0079100843000000015000
B0523163207047S11658011EA0078800840000004015000
B0523203207003S11657978EA0078800844000004030000
B0523243206961S11658039EA0078900840000000030000
B0523283206987S11658112EA0078200836000000030000
B0523323207051S11658118EA0077700835000000045000
B0523363207077S11658056EA0077400832000000045000
B0523403207068S11657978EA0076900823000000030000
B0523443207024S11657926EA0076400818000000030000
B0523483206957S11657913EA0076400820000004030000
B0523523206891S11657939EA0076900823000004030000
B0523563206884S11658039EA0076800821000004030000
B0524003206881S11658125EA0076900822000004015000
B0524043206896S11658201EA0077400828000004015000
B0524083206948S11658230EA0077600828000004030000
B0524123206991S11658192EA0077300825000004060000
B0524163206969S11658134EA0077300828000000045000
B0524203206912S11658151EA0077900834000004075000
B0524243206907S11658226EA0077600832000000165000
B0524283206956S11658273EA0077500834000000045000
B0524323206999S11658232EA0077100824000000105000
B0524363206952S11658200EA0077000825000000150000
B0524403206908S11658253EA0077600827000000075000
B0524443206917S11658327EA0077700823000000030000
B0524483206970S11658365EA0077300818000000030000
B0524523207017S11658329EA0076800815000004030000
B0524563206998S11658269EA0076600814000004045000
B0525003206935S11658283EA0076700813000004105000
B0525043206923S11658361EA0076700815000000225000
B0525083206975S11658420EA0076800817000000090000
B0525123207033S11658398EA0077200823000000210000
B0525163207022S11658338EA0077500822000000165000
B0525203206966S11658327EA0077600822000000120000
B0525243206916S11658382EA0077600828000000045000
B0525283206897S11658459EA0078100833000004030000
B0525323206930S11658517EA0079100841000000030000
B0525363206965S11658483EA0079100840000004075000
B0525403206930S11658438EA0078300836000004165000
B0525443206875S11658466EA0078300842000000225000
B0525483206871S11658539EA0079100850000000105000
B0525523206913S11658586EA0079900853000000030000
B0525563206965S11658576EA0079500845000000030000
B0526003206981S11658521EA0079500845000000015000
B0526043206944S11658481EA0079700846000000015000
B0526083206887S11658499EA0079700846000000015000
B0526123206862S11658568EA0079900849000000015000
B0526163206884S11658638EA0080100851000000000000
B0526203206940S11658659EA0080200848000000015000
B0526243206978S11658617EA0079900844000000015000
B0526283206962S11658561EA0079800845000000015000
B0526323206909S11658548EA0079900847000004015000
B0526363206858S11658594EA0079800843000004015000
B0526403206844S11658671EA0079900847000000015000
B0526443206883S11658726EA0080200849000000000000
B0526483206935S11658710EA0080100844000000015000
B0526523206943S11658647EA0079600840000000015000
B0526563206901S11658600EA0079500840000000015000
B0527003206839S11658600EA0079500841000004015000
B0527043206786S11658650EA0079500838000004015000
B0527083206766S11658728EA0078900833000004015000
B0527123206793S11658804EA0078100826000004000000
B0527163206853S11658843EA0077600824000004015000
B0527203206920S11658845EA0077600821000004015000
B0527243206969S11658801EA0077300816000004015000
B0527283206999S11658745EA0077800814000000015000
B0527323206892S11658759EA0078100817000000015000
B0527363206856S11658836EA0077900814000000015000
B0527403206884S11658905EA0077600814000000015000
B0527443206939S11658927EA0077200809000000015000
B0527483206994S11658901EA0076400803000000015000
B0527523207030S11658849EA0075700796000004015000
B0527563207051S11658782EA0074900788000004015000
B0528003207060S11658711EA0073900778000004000000
B0528043207070S11658637EA0073100772000000000000
B0528083207077S11658564EA0072300765000000000000
B0528123207082S11658491EA0071500757000004000000
B0528163207103S11658422EA0071200758000004000000
B0528203207139S11658366EA0071400762000004000000
B0528243207183S11658322EA0071900766000004000000
B0528283207224S11658273EA0072100767000000000000
B0528323207246S11658213EA0072700772000000000000
B0528363207196S11658193EA0072900773000004015000
B0528403207167S11658261EA0072500771000004015000
B0528443207200S11658327EA0071600764000000015000
B0528483207260S11658352EA0071700769000004015000
B0528523207303S11658321EA0072600778000004015000
B0528563207290S11658261EA0072600772000000045000
B0529003207263S11658209EA0072200770000000165000
B0529043207234S11658161EA0071700767000000075000
B0529083207193S11658127EA0071500765000000180000
B0529123207320S11658403EA0072000771015000090000
B0529163207299S11658356EA0072700772000000045000
B0529203207248S11658388EA0072300773000000030000
B0529243207258S11658461EA0072100773000004015000
B0529283207313S11658479EA0072200775000004015000
B0529323207332S11658427EA0072100767000000015000
B0529363207278S11658408EA0071800770000000015000
B0529403207243S11658469EA0072100773000004015000
B0529443207272S11658537EA0072100774000004015000
B0529483207328S11658548EA0072400775000000015000
B0529523207336S11658494EA0072500775000000015000
B0529563207278S11658491EA0072300771000004015000
B0530003207254S11658564EA0071800772000000015000
B0530043207291S11658624EA0072400778000004015000
B0530083207333S11658594EA0072500773000004015000
B0530123207295S11658552EA0072200772000004060000
B0530163207252S11658615EA0072000776000004090000
B0530203207280S11658685EA0072400777000004045000
B0530243207337S11658678EA0072900778000004030000
B0530283207342S11658619EA0072900778000000030000
B0530323207286S11658599EA0072700777000004015000
B0530363207241S11658656EA0073000780000004015000
B0530403207248S11658734EA0073500782000000015000
B0530443207302S11658772EA0073700782000000015000
B0530483207332S11658723EA0073600782000004015000
B0530523207286S11658685EA0073700785000004015000
B0530563207233S11658730EA0073800787000004015000
B0531003207245S11658812EA0073900791000000015000
B0531043207304S11658843EA0074000788000004015000
B0531083207350S11658801EA0074000789000004015000
B0531123207333S11658738EA0074100792000004015000
B0531163207274S11658728EA0074400793000004015000
B0531203207230S11658784EA0074600793000000015000
B0531243207238S11658862EA0074700794000000015000
B0531283207291S11658899EA0074800795000000015000
B0531323207339S11658868EA0075000796000000015000
B0531363207319S11658817EA0075100799000004015000
B0531403207259S11658845EA0075000795000000015000
B0531443207247S11658923EA0075000799000000015000
B0531483207297S11658964EA0075100801000000015000
B0531523207346S11658936EA0075200800000004015000
B0531563207330S11658880EA0075000791000000015000
B0532003207267S11658888EA0074800796000000015000
B0532043207239S11658957EA0075600805000000015000
B0532083207269S11659022EA0075900801000000015000
B0532123207328S11659019EA0075100793000000015000
B0532163207336S11658957EA0074900795000000015000
B0532203207276S11658950EA0075100801000004015000
B0532243207247S11659019EA0076000815000000015000
B0532283207274S11659081EA0076700816000000015000
B0532323207332S11659103EA0076100807000004015000
B0532363207382S11659071EA0075400801000000015000
B0532403207373S11659014EA0075600806000000015000
B0532443207320S11658998EA0075500802000000015000
B0532483207268S11659042EA0075400805000000015000
B0532523207256S11659118EA0076100812000004015000
B0532563207291S11659176EA0076200809000000015000
B0533003207346S11659180EA0075800807000004015000
B0533043207375S11659135EA0075800804000004015000
B0533083207345S11659088EA0075200797000004015000
B0533123207284S11659101EA0074600793000004015000
B0533163207252S11659175EA0074400795000000015000
B0533203207281S11659246EA0074800797000004015000
B0533243207338S11659259EA0074900798000004015000
B0533283207388S11659232EA0074700794000004015000
B0533323207417S11659181EA0074100786000004015000
B0533363207430S11659115EA0073200777000004000000
B0533403207440S11659044EA0072100767000004000000
B0533443207450S11658968EA0071700765000004000000
B0533483207455S11658893EA0070900755000000000000
B0533523207464S11658817EA0070300750000004000000
B0533563207479S11658745EA0070100750000000000000
B0534003207493S11658673EA0070200753000000000000
B0534043207508S11658603EA0070800759000000000000
B0534083207490S11658543EA0071600770000000000000
B0534123207434S11658539EA0072500775000000000000
B0534163207397S11658598EA0072100768000000000000
B0534203207407S11658676EA0071300760000000000000
B0534243207456S11658725EA0071100761000004000000
B0534283207511S11658710EA0071500762000000015000
B0534323207506S11658650EA0071200761000000015000
B0534363207450S11658646EA0071800773000004015000
B0534403207420S11658710EA0072400772000000015000
B0534443207440S11658784EA0072000769000004015000
B0534483207492S11658817EA0072500779000004015000
B0534523207521S11658773EA0073000777000004015000
B0534563207480S11658738EA0073100781000004030000
B0535003207427S11658781EA0073600786000000015000
B0535043207419S11658860EA0073900787000000015000
B0535083207467S11658908EA0074100789000000015000
B0535123207518S11658880EA0074100790000000015000
B0535163207505S11658823EA0074600797000000015000
B0535203207450S11658838EA0075300804000000015000
B0535243207440S11658915EA0075800806000000015000
B0535283207489S11658958EA0076200809000000015000
B0535323207533S11658921EA0076200808000000015000
B0535363207512S11658867EA0076400815000000015000
B0535403207455S11658877EA0077100819000000015000
B0535443207430S11658951EA0077200822000000015000
B0535483207467S11659018EA0077600825000004015000
B0535523207528S11659018EA0077800827000004015000
B0535563207550S11658962EA0078000831000004015000
B0536003207514S11658918EA0078200831000000015000
B0536043207458S11658946EA0078600836000004015000
B0536083207453S11659023EA0079200844000004015000
B0536123207503S11659057EA0080200853000000015000
B0536163207545S11659022EA0080500853000004015000
B0536203207523S11658971EA0080600856000004015000
B0536243207466S11658992EA0080800858000000015000
B0536283207456S11659068EA0081100863000000015000
B0536323207508S11659109EA0081700865000000015000
B0536363207549S11659068EA0082100868000000015000
B0536403207515S11659024EA0082300873000000015000
B0536443207460S11659049EA0082800879000000015000
B0536483207443S11659123EA0083000880000000015000
B0536523207486S11659179EA0083300885000000015000
B0536563207533S11659155EA0084000891000004015000
B0537003207511S11659111EA0084400896000000015000
B0537043207463S11659140EA0084800898000004015000
B0537083207459S11659217EA0084700898000004015000
B0537123207505S11659266EA0085200904000000015000
B0537163207549S11659241EA0085700907000000015000
B0537203207528S11659196EA0085700908000000015000
B0537243207472S11659218EA0086100914000000015000
B0537283207462S11659296EA0086500918000000015000
B0537323207507S11659348EA0086900922000000015000
B0537363207558S11659330EA0086900921000000015000
B0537403207558S11659274EA0087000920000000015000
B0537443207502S11659269EA0087100920000000015000
B0537483207472S11659341EA0087600926000004015000
B0537523207502S11659414EA0088100932000000015000
B0537563207560S11659422EA0088300932000000015000
B0538003207584S11659371EA0088400935000004015000
B0538043207546S11659336EA0089100940000000015000
B0538083207493S11659367EA0089300942000004015000
B0538123207484S11659448EA0089400945000000015000
B0538163207527S11659501EA0090000949000000015000
B0538203207577S11659486EA0090300949000004015000
B0538243207576S11659432EA0090000947000004015000
B0538283207523S11659412EA0090000951000004015000
B0538323207481S11659470EA0090600954000000015000
B0538363207505S11659548EA0090400952000000015000
B0538403207566S11659575EA0090500956000000015000
B0538443207603S11659538EA0090800959000000015000
B0538483207583S11659488EA0090900960000004015000
B0538523207529S11659474EA0091200964000000015000
B0538563207484S11659525EA0091800970000000015000
B0539003207501S11659600EA0091800965000004015000
B0539043207559S11659626EA0091600968000004015000
B0539083207596S11659591EA0092000972000004015000
B0539123207571S11659548EA0092100969000000015000
B0539163207514S11659561EA0092000970000000015000
B0539203207482S11659627EA0092300975000004030000
B0539243207506S11659700EA0092000980000004030000
B0539283207557S11659740EA0091800985000004030000
B0539323207610S11659753EA0092200990000004045000
B0539363207663S11659739EA0092300994000004045000
B0539403207707S11659737EA0091300999000004045000
B0539443207745S11659730EA0090801003015004060000
B0539483207775S11659734EA0091301008015000060000
B0539523207456S11659714EA0092101003030004060000
B0539563207495S11659773EA0092200997000004045000
B0540003207547S11659774EA0092500992000004030000
B0540043207566S11659725EA0092100983000004030000
B0540083207533S11659685EA0092200982000004015000
B0540123207481S11659722EA0092700983000000015000
B0540163207482S11659802EA0092900985000004015000
B0540203207531S11659842EA0093000985000004015000
B0540243207576S11659822EA0092900983000000015000
B0540283207583S11659772EA0093000984000004015000
B0540323207541S11659743EA0093100984000000015000
B0540363207488S11659774EA0093100985000000015000
B0540403207473S11659854EA0093300986000000015000
B0540443207515S11659916EA0093400983000000015000
B0540483207573S11659917EA0093200981000000015000
B0540523207596S11659867EA0093200976000000015000
B0540563207553S11659822EA0092500971000000015000
B0541003207489S11659834EA0093000982000000015000
B0541043207451S11659902EA0093600984000000015000
B0541083207469S11659982EA0093700988000000015000
B0541123207521S11700023EA0094000990000000015000
B0541163207570S11659998EA0093900987000000015000
B0541203207573S11659941EA0093700987000000015000
B0541243207532S11659908EA0094100992000000015000
B0541283207476S11659938EA0094300991000000015000
B0541323207453S11700019EA0094200992000000015000
B0541363207481S11700094EA0094300993000000000000
B0541403207542S11700115EA0094300991000000000000
B0541443207583S11700075EA0094100989000000015000
B0541483207576S11700016EA0094400994000000015000
B0541523207533S11659984EA0094700998000000015000
B0541563207476S11700000EA0094800997000000015000
B0542003207437S11700067EA0094700993000000000000
B0542043207430S11700153EA0094400993000000000000
B0542083207450S11700234EA0094500997000004000000
B0542123207507S11700270EA0094700996000004000000
B0542163207555S11700244EA0094700996000004015000
B0542203207551S11700189EA0094700994000000015000
B0542243207503S11700162EA0094700996000000015000
B0542283207451S11700207EA0095001003000000015000
B0542323207446S11700285EA0095701009000000015000
B0542363207488S11700342EA0095601006000000015000
B0542403207545S11700341EA0095401004000000015000
B0542443207575S11700297EA0095301004000000015000
B0542483207581S11700238EA0095001000000004015000
B0542523207583S11700179EA0094901001000000000000
B0542563207581S11700119EA0095001002000000000000
B0543003207581S11700060EA0094800997000004000000
B0543043207579S11700000EA0094400993000004000000
B0543083207577S11659942EA0094400993000000000000
B0543123207583S11659885EA0094400993000000000000
B0543163207588S11659826EA0094200990000000000000
B0543203207590S11659768EA0094000988000000000000
B0543243207588S11659708EA0094300991000004000000
B0543283207554S11659664EA0094600997000000000000
B0543323207498S11659678EA0095301005000004000000
B0543363207466S11659748EA0095300996000000000000
B0543403207484S11659828EA0094600993000004000000
B0543443207537S11659868EA0094500992000004000000
B0543483207590S11659864EA0094500995000004015000
B0543523207629S11659834EA0094700995000000000000
B0543563207654S11659786EA0094500992000000000000
B0544003207671S11659731EA0094400990000000000000
B0544043207683S11659674EA0094300990000000000000
B0544083207688S11659616EA0094700996000004000000
B0544123207659S11659574EA0095000998000004000000
B0544163207612S11659622EA0094800996000000000000
B0544203207624S11659705EA0094500990000000000000
B0544243207676S11659761EA0094100990000000000000
B0544283207733S11659751EA0094400991000000000000
B0544323207729S11659698EA0094500990000000015000
B0544363207671S11659688EA0094000985000000015000
B0544403207627S11659752EA0094200993000004015000
B0544443207641S11659834EA0094500994000004015000
B0544483207701S11659868EA0094400990000004015000
B0544523207746S11659834EA0094400991000004015000
B0544563207729S11659783EA0094300989000000015000
B0545003207671S11659792EA0094100989000004015000
B0545043207644S11659868EA0094100991000000015000
B0545083207670S11659947EA0094300993000000015000
B0545123207723S11659993EA0094400991000000015000
B0545163207776S11659981EA0094200989000000015000
B0545203207800S11659932EA0093800983000000015000
B0545243207794S11659870EA0092900970000000000000
B0545283207783S11659805EA0092100966000000000000
B0545323207784S11659744EA0091900967000000000000
B0545363207801S11659692EA0091900967000000000000
B0545403207824S11659644EA0091700961000000000000
B0545443207844S11659592EA0091000958000004000000
B0545483207862S11659539EA0090800957000004000000
B0545523207880S11659487EA0090700957000004000000
B0545563207892S11659432EA0090600956000004000000
B0546003207900S11659374EA0090500956000000000000
B0546043207902S11659314EA0090400954000000000000
B0546083207900S11659256EA0090200951000000000000
B0546123207863S11659215EA0090200954000000000000
B0546163207807S11659226EA0090400955000004000000
B0546203207770S11659291EA0090300952000004000000
B0546243207783S11659369EA0090200956000000000000
B0546283207830S11659418EA0090200950000000000000
B0546323207888S11659430EA0089300941000000000000
B0546363207937S11659402EA0088700937000000000000
B0546403207966S11659356EA0088700937000004000000
B0546443207980S11659304EA0088500932000004000000
B0546483207988S11659252EA0088500932000004000000
B0546523207989S11659198EA0088500933000004000000
B0546563207989S11659144EA0088400933000000000000
B0547003207993S11659088EA0088300932000004000000
B0547043207958S11659053EA0088900940000000000000
B0547083207908S11659097EA0089400943000000000000
B0547123207913S11659172EA0089600946000000000000
B0547163207961S11659205EA0089900949000000000000
B0547203208000S11659176EA0090200947000000000000
B0547243207983S11659128EA0090100951000000015000
B0547283207927S11659126EA0090600955000000015000
B0547323207887S11659187EA0090900961000004015000
B0547363207893S11659262EA0091200962000000015000
B0547403207943S11659298EA0091200961000000015000
B0547443207986S11659270EA0090900956000000015000
B0547483207978S11659219EA0091300963000000015000
B0547523207922S11659218EA0091500963000000015000
B0547563207882S11659282EA0091700966000000015000
B0548003207887S11659363EA0091600962000000015000
B0548043207934S11659423EA0091300962000000015000
B0548083207993S11659430EA0091200960000000015000
B0548123208035S11659386EA0090800952000000015000
B0548163208049S11659322EA0090400948000000015000
B0548203208057S11659253EA0089900943000000000000
B0548243208061S11659183EA0089000935000000000000
B0548283208064S11659115EA0088600934000000000000
B0548323208067S11659050EA0088500931000000000000
B0548363208075S11658986EA0087800922000004000000
B0548403208078S11658920EA0087000916000004000000
B0548443208083S11658855EA0086900919000004000000
B0548483208093S11658793EA0087500923000000000000
B0548523208101S11658732EA0087500921000000000000
B0548563208108S11658667EA0087000916000004000000
B0549003208086S11658611EA0087500924000004000000
B0549043208030S11658639EA0088200928000000000000
B0549083208022S11658724EA0087400918000000000000
B0549123208058S11658798EA0086600915000000000000
B0549163208112S11658846EA0086400910000000000000
B0549203208169S11658845EA0085900908000004000000
B0549243208209S11658804EA0085900909000004000000
B0549283208229S11658746EA0085700906000000000000
B0549323208231S11658682EA0085800906000000000000
B0549363208181S11658667EA0086100913000004000000
B0549403208147S11658737EA0085900904000000000000
B0549443208173S11658816EA0085100901000000000000
B0549483208226S11658851EA0085400909000000000000
B0549523208274S11658833EA0086100912000000000000
B0549563208290S11658785EA0086100910000000000000
B0550003208255S11658743EA0085800909000000015000
B0550043208196S11658754EA0085800909000000015000
B0550083208157S11658819EA0086000909000000015000
B0550123208166S11658897EA0085700905000000015000
B0550163208213S11658944EA0085400902000000015000
B0550203208270S11658953EA0085100900000004000000
B0550243208318S11658925EA0085100900000004000000
B0550283208344S11658876EA0085200899000000000000
B0550323208312S11658836EA0085400904000000015000
B0550363208260S11658869EA0085800914000000015000
B0550403208255S11658945EA0086700917000004015000
B0550443208298S11658993EA0086200910000004015000
B0550483208346S11658976EA0085700905000004015000
B0550523208351S11658924EA0085500905000000015000
B0550563208304S11658901EA0086100911000000015000
B0551003208255S11658940EA0086700914000000015000
B0551043208246S11659019EA0086900914000000015000
B0551083208286S11659080EA0086600908000000015000
B0551123208340S11659074EA0086100906000000015000
B0551163208359S11659022EA0085800904000000015000
B0551203208329S11658976EA0086300911000000015000
B0551243208272S11658977EA0086400907000000015000
B0551283208227S11659040EA0085700900000000015000
B0551323208227S11659129EA0085400903000000015000
B0551363208256S11659206EA0085600903000004015000
B0551403208316S11659230EA0085700906000000015000
B0551443208346S11659181EA0086000906000004015000
B0551483208309S11659142EA0086200910000000015000
B0551523208260S11659181EA0086900917000004015000
B0551563208255S11659258EA0086900913000004015000
B0552003208294S11659318EA0086400915000000015000
B0552043208350S11659319EA0086900918000000015000
B0552083208376S11659271EA0087000920000000075000
B0552123208370S11659217EA0087200929000000120000
B0552163208340S11659180EA0087500939000004225000
B0552203208287S11659296EA0087800938000004225000
B0552243208304S11659379EA0088000934000004120000
B0552283208356S11659404EA0088100937000000225000
B0552323208396S11659363EA0087900926000000135000
B0552363208385S11659308EA0087800928000000045000
B0552403208335S11659285EA0088000933000000030000
B0552443208278S11659308EA0087600923000000015000
B0552483208235S11659370EA0087200921000000015000
B0552523208227S11659449EA0087300921000004015000
B0552563208274S11659497EA0087000919000004015000
B0553003208331S11659495EA0086900917000000015000
B0553043208359S11659448EA0086800914000004015000
B0553083208324S11659404EA0086700915000004015000
B0553123208269S11659431EA0086800918000000015000
B0553163208252S11659506EA0086600916000000015000
B0553203208278S11659579EA0086700917000004015000
B0553243208330S11659614EA0087200920000004015000
B0553283208373S11659586EA0086900915000004015000
B0553323208374S11659527EA0086800916000004015000
B0553363208326S11659516EA0087200919000004015000
B0553403208291S11659574EA0086800910000004015000
B0553443208314S11659648EA0086100909000004015000
B0553483208369S11659673EA0086300912000004015000
B0553523208421S11659657EA0086100907000004000000
B0553563208452S11659608EA0085500900000004000000
B0554003208469S11659547EA0084600889000004000000
B0554043208494S11659486EA0083400876000000000000
B0554083208534S11659432EA0082600870000004000000
B0554123208580S11659387EA0082400869000004000000
B0554163208629S11659347EA0082100868000000000000
B0554203208685S11659309EA0081800862000000000000
B0554243208750S11659288EA0082000863000000000000
B0554283208819S11659287EA0082400865000000000000
B0554323208886S11659284EA0082800870000000000000
B0554363208909S11659235EA0083600880000000000000
B0554403208864S11659204EA0084100884000000015000
B0554443208811S11659241EA0084300889000000015000
B0554483208803S11659323EA0084500891000000015000
B0554523208846S11659384EA0084400889000000015000
B0554563208906S11659397EA0084000885000000015000
B0555003208967S11659384EA0083500879000004000000
B0555043209023S11659358EA0083200873000004000000
B0555083209063S11659313EA0083100877000004000000
B0555123209059S11659257EA0083400876000000000000
B0555163209015S11659217EA0083100875000000000000
B0555203208964S11659184EA0083300879000000000000
B0555243208907S11659200EA0083900886000000000000
B0555283208889S11659271EA0084300887000000015000
B0555323208927S11659326EA0083900884000000015000
B0555363208974S11659317EA0083500881000000015000
B0555403208992S11659267EA0082800876000000015000
B0555443208997S11659207EA0082500871000000015000
B0555483209000S11659145EA0081700859000004000000
B0555523208988S11659083EA0080800852000004000000
B0555563208945S11659040EA0080300848000000000000
B0556003208888S11659020EA0080000847000004000000
B0556043208827S11659010EA0079500841000004000000
B0556083208762S11659006EA0079000837000000000000
B0556123208697S11659003EA0078700835000004000000
B0556163208633S11659005EA0078500835000000000000
B0556203208567S11659009EA0078000828000000000000
B0556243208499S11659015EA0077700825000000000000
B0556283208431S11659035EA0078200833000000000000
B0556323208412S11659109EA0079300842000004000000
B0556363208457S11659150EA0079600844000004000000
B0556403208496S11659126EA0079500840000004000000
B0556443208490S11659074EA0079000836000004000000
B0556483208444S11659033EA0078500833000004000000
B0556523208382S11659029EA0078900838000000000000
B0556563208335S11659090EA0078800835000004000000
B0557003208313S11659175EA0078500834000004000000
B0557043208314S11659259EA0078800836000000000000
B0557083208360S11659293EA0079000837000000000000
B0557123208386S11659254EA0078800835000000000000
B0557163208351S11659215EA0079300842000000015000
B0557203208299S11659243EA0079800844000000015000
B0557243208288S11659314EA0079400837000000015000
B0557283208325S11659370EA0078900836000000015000
B0557323208377S11659375EA0078900833000000015000
B0557363208405S11659334EA0078700832000000015000
B0557403208394S11659279EA0078700836000000015000
B0557443208346S11659254EA0079200841000000015000
B0557483208291S11659298EA0079200836000000015000
B0557523208277S11659383EA0078800835000000015000
B0557563208309S11659447EA0078800837000000015000
B0558003208361S11659456EA0078800834000000015000
B0558043208365S11659404EA0078100827000000015000
B0558083208309S11659376EA0077900827000000015000
B0558123208253S11659422EA0078500832000000015000
B0558163208243S11659503EA0078200828000000015000
B0558203208282S11659562EA0078100830000000015000
B0558243208333S11659566EA0078400831000004015000
B0558283208364S11659530EA0078200828000004015000
B0558323208369S11659475EA0077800824000000000000
B0558363208368S11659417EA0077300818000000000000
B0558403208369S11659354EA0076800814000004000000
B0558443208379S11659292EA0076600811000000000000
B0558483208392S11659231EA0076200807000000000000
B0558523208405S11659168EA0075600802000000000000
B0558563208422S11659105EA0075000794000000000000
B0559003208439S11659040EA0074400787000000000000
B0559043208456S11658973EA0073900783000000000000
B0559083208468S11658908EA0073700781000000000000
B0559123208485S11658842EA0073100773000004000000
B0559163208502S11658776EA0072400768000000000000
B0559203208519S11658710EA0071900763000000000000
B0559243208538S11658642EA0071400759000000000000
B0559283208555S11658577EA0071200757000000000000
B0559323208559S11658508EA0070900755000000000000
B0559363208545S11658442EA0070800755000000000000
B0559403208520S11658381EA0070800753000004000000
B0559443208502S11658318EA0070400750000000000000
B0559483208483S11658255EA0070200747000004000000
B0559523208476S11658190EA0069700742000004000000
B0559563208474S11658125EA0069400738000000000000
B0600003208469S11658061EA0069000732000000000000
B0600043208454S11657995EA0068100725000004000000
B0600083208426S11657935EA0067900725000004000000
B0600123208396S11657876EA0067800723000000000000
B0600163208377S11657815EA0067400719000004000000
B0600203208370S11657753EA0067100716000000000000
B0600243208356S11657692EA0066600708000000000000
B0600283208334S11657631EA0065700700000000000000
B0600323208309S11657569EA0065000694000004000000
B0600363208279S11657511EA0064800693000000000000
B0600403208246S11657458EA0064700692000000000000
B0600443208207S11657408EA0064200687000000000000
B0600483208162S11657364EA0063700681000000000000
B0600523208117S11657321EA0063200677000000000000
B0600563208088S11657268EA0062800676000000000000
B0601003208083S11657212EA0063000678000000000000
B0601043208101S11657165EA0063000676000000000000
B0601083208127S11657121EA0062400669000000000000
B0601123208153S11657075EA0061700663000000000000
B0601163208174S11657026EA0061400660000000000000
B0601203208183S11656974EA0061000655000004000000
B0601243208169S11656922EA0060600652000004000000
B0601283208139S11656877EA0060200648000000000000
B0601323208099S11656839EA0059900645000000000000
B0601363208053S11656805EA0059600642000004000000
B0601403208010S11656769EA0059200634000004000000
B0601443207976S11656719EA0058300627000000000000
B0601483207943S11656674EA0058100626000004000000
B0601523207896S11656652EA0058200627000000000000
B0601563207845S11656688EA0058000623000000000000
B0602003207822S11656767EA0057600621000000000000
B0602043207813S11656852EA0057100617000000000000
B0602083207806S11656940EA0056500610000000000000
B0602123207804S11657027EA0055900605000000000000
B0602163207805S11657116EA0055500598000000000000
B0602203207806S11657204EA0054800594000004000000
B0602243207806S11657291EA0054300588000004000000
B0602283207806S11657378EA0053900584000000000000
B0602323207817S11657463EA0053400579000004000000
B0602363207841S11657541EA0052800573000004000000
B0602403207874S11657612EA0052600574000000000000
B0602443207927S11657651EA0052700572000000000000
B0602483207975S11657632EA0052600573000004000000
B0602523208002S11657589EA0052400569000004000000
B0602563208014S11657542EA0051900565000000000000
B0603003208006S11657495EA0051600561000000000000
B0603043207967S11657464EA0051000556000000000000
B0603083207914S11657449EA0050800556000000000000
B0603123207858S11657468EA0050800555000004000000
B0603163207840S11657546EA0050600552000000000000
B0603203207882S11657599EA0050500552000000000000
B0603243207931S11657595EA0050400551000000000000
B0603283207958S11657555EA0050200550000000000000
B0603323207970S11657502EA0050100548000000000000
B0603363207937S11657464EA0050300550000000015000
B0603403207892S11657517EA0050100544000000015000
B0603443207908S11657597EA0049500546000000030000
B0603483207963S11657605EA0050200550000004015000
B0603523207978S11657554EA0050300548000000015000
B0603563207926S11657549EA0050300548000000015000
B0604003207893S11657619EA0050000545000000015000
B0604043207915S11657698EA0049700544000004015000
B0604083207970S11657733EA0049900545000004015000
B0604123207993S11657685EA0050200548000004015000
B0604163207949S11657658EA0050600551000004015000
B0604203207898S11657706EA0050300543000004015000
B0604243207898S11657792EA0049900543000004015000
B0604283207949S11657846EA0049900544000004015000
B0604323207997S11657816EA0049600539000000015000
B0604363208021S11657757EA0049300537000000015000
B0604403207997S11657706EA0050200551000000015000
B0604443207943S11657719EA0050600546000004015000
B0604483207914S11657794EA0049800535000004000000
B0604523207952S11657866EA0049400536000004015000
B0604563208017S11657879EA0049500536000004015000
B0605003208048S11657828EA0049600539000004015000
B0605043208006S11657794EA0050100542000000015000
B0605083207957S11657842EA0050300544000004015000
B0605123207966S11657923EA0050600546000004015000
B0605163208023S11657958EA0050400541000004015000
B0605203208069S11657923EA0050200542000004015000
B0605243208051S11657872EA0050400543000004015000
B0605283207993S11657881EA0050300544000004015000
B0605323207963S11657954EA0050400550000000000000
B0605363207999S11658017EA0051000554000000015000
B0605403208049S11658001EA0051000555000000015000
B0605443208043S11657952EA0051500560000000015000
B0605483207992S11657958EA0051500559000000015000
B0605523207966S11658028EA0051500559000000015000
B0605563208000S11658095EA0051500557000000015000
B0606003208060S11658101EA0051200554000000015000
B0606043208075S11658049EA0051300557000004015000
B0606083208035S11658022EA0051600558000004015000
B0606123207992S11658073EA0051400554000000015000
B0606163207993S11658154EA0051200555000000015000
B0606203208043S11658200EA0051000550000000015000
B0606243208086S11658174EA0050900551000004015000
B0606283208073S11658128EA0051000551000000015000
B0606323208021S11658126EA0050700545000000015000
B0606363207982S11658187EA0050100542000000015000
B0606403207975S11658270EA0050300547000000015000
B0606443208019S11658318EA0050400541000000015000
B0606483208066S11658301EA0049700538000000015000
B0606523208074S11658252EA0049400538000004015000
B0606563208067S11658201EA0049200535000004015000
B0607003208056S11658149EA0048800531000004015000
B0607043208043S11658101EA0048700530000004015000
B0607083208030S11658053EA0048400523000004015000
B0607123208026S11657998EA0047600514000004000000
B0607163208017S11657949EA0047300513000004000000
B0607203207978S11657926EA0046900508000004000000
B0607243207927S11657931EA0045900498000004000000
B0607283207871S11657948EA0044800488000000000000
B0607323207817S11657978EA0043900481000004000000
B0607363207766S11658022EA0043200475000000000000
B0607403207711S11658056EA0042700468000000000000
B0607443207650S11658062EA0041700457000000000000
B0607483207594S11658037EA0041200456000000000000
B0607523207542S11658010EA0041500460000000000000
B0607563207490S11657983EA0041500460000000000000
B0608003207441S11657952EA0041400458000000000000
B0608043207394S11657924EA0041400462000000000000
B0608083207341S11657926EA0042200467000000000000
B0608123207311S11657987EA0042000461000000000000
B0608163207338S11658049EA0041000451000000015000
B0608203207388S11658047EA0040100442000000015000
B0608243207399S11657993EA0038600430000000015000
B0608283207380S11657932EA0037800421000000015000
B0608323207351S11657871EA0036800412000000015000
B0608363207316S11657813EA0036200405000004015000
B0608403207276S11657754EA0035300397000000000000
B0608443207235S11657694EA0034500390000004000000
B0608483207194S11657633EA0033500377000004000000
B0608523207155S11657569EA0032900375000004000000
B0608563207117S11657507EA0032400369000000000000
B0609003207081S11657449EA0032100367000004000000
B0609043207042S11657393EA0032000366000000000000
B0609083207003S11657341EA0032100369000000000000
B0609123206960S11657293EA0032200368000004000000
B0609163206914S11657247EA0031600360000004000000
B0609203206866S11657205EA0031000354000004000000
B0609243206817S11657165EA0030600352000004000000
B0609283206766S11657127EA0030000345000004000000
B0609323206713S11657092EA0029300339000000000000
B0609363206671S11657042EA0028400331000004000000
B0609403206657S11656975EA0027700320000000000000
B0609443206663S11656908EA0027200315000000000000
B0609483206671S11656841EA0026800312000000000000
B0609523206671S11656774EA0026400309000000000000
B0609563206669S11656708EA0026000305000000000000
B0610003206666S11656641EA0025600299000000000000
B0610043206687S11656580EA0024600290000000000000
B0610083206740S11656548EA0024000289000000015000
B0610123206805S11656565EA0023800286000000015000
B0610163206866S11656596EA0022700274000000015000
B0610203206925S11656627EA0021500259000000015000
B0610243206983S11656661EA0020400246000000015000
B0610283207042S11656697EA0019200232000004015000
B0610323207099S11656735EA0017600217000000015000
B0610363207154S11656769EA0016600209000000015000
B0610403207202S11656796EA0016000206000000015000
B0610443207243S11656818EA0015900205000000015000
B0610483207280S11656838EA0015800204000000015000
B0610523207308S11656854EA0015800205000004015000
B0610563207329S11656865EA0015700205000000015000
B0611003207341S11656870EA0015700205000000015000
B0611043207345S11656871EA0015700205000000015000
B0611083207345S11656871EA0015700205000004000000
B0611123207345S11656871EA0015700204000004000000
B0611163207345S11656871EA0015700204000004000000
B0611203207342S11656870EA0015700204000004000000
B0611243207339S11656869EA0015700204000004000000
B0611283207337S11656867EA0015700205000004000000
G0003000000F31988D10000000000000000000000000000000000000000000000
G72DA45959E40ACFE71A58B4549BC3E845B59018A000000001E6ECBDD5A68DF27
G666AF8BD85F748CCB7381755CC4614E8AEABA47A00000000000000009EEFF206
