ACAM4N6
HFDTE201122
HFFXA050
HFPLTPILOT:JOHN WELSH              
HFGTYGLIDERTYPE:HORNET      
HFGIDGLIDERID:VH-GMY      
HFDTM100GPSDATUM:
HFRFWFIRMWAREVERSION:F2.6
HFRHWHARDWAREVERSION:300 Series Version 2
HFFTYFRTYPE:CAMBRIDGE AERO INSTRUMENTS, 302+
HFGPS:GARMIN,LVS-25,12,18000
HFPRSPRESSALTSENSOR:INTERSEMA, MS5534-AP, 20000
I033638FXA3941ENL4247REX
LCAMSBVER:5FWVER:F26300
C201122033729201122000102
C0000000N00000000WTAKEOFF     
C3207549S11656849EBeverley Air
C3255533S11704932ENarrogin Aer
C3207499S11801415EBabakin     
C3207549S11656849EBeverley Air
C0000000N00000000WLANDING     
B0337393207317S11656854EA0016600205000004000000
B0337413207317S11656854EA0016700205000004000000
B0337433207317S11656854EA0016700205000000000000
B0337453207317S11656854EA0016700205000004000000
B0337473207317S11656854EA0016700205000004000000
B0337493207317S11656854EA0016700205000004000000
B0337513207317S11656854EA0016700205000000000000
B0337533207317S11656854EA0016700205000000000000
B0337553207317S11656854EA0016700205000000000000
B0337573207317S11656854EA0016700204000000000000
B0337593207317S11656854EA0016700204000000000000
B0338013207317S11656854EA0016700204000000000000
B0338033207317S11656854EA0016700204000000000000
B0338053207317S11656854EA0016700204000000000000
B0338073207320S11656856EA0016700204000004000000
B0338123207339S11656869EA0016700204000004000000
B0338163207372S11656890EA0016700204000004000000
B0338203207419S11656919EA0017000204000000000000
B0338243207476S11656955EA0017100205000004000000
B0338283207540S11656999EA0017500211000004000000
B0338323207601S11657051EA0018300223000004000000
B0338363207658S11657113EA0019400229000004000000
B0338403207711S11657178EA0020300245000004000000
B0338443207761S11657242EA0022000266000004000000
B0338483207806S11657307EA0023700282000000000000
B0338523207850S11657374EA0024800293000000000000
B0338563207893S11657441EA0026500314000000000000
B0339003207930S11657514EA0028200332000000000000
B0339043207940S11657601EA0029900348000004000000
B0339083207914S11657694EA0031700364000004000000
B0339123207869S11657779EA0033500386000000000000
B0339163207800S11657835EA0036200412000000000000
B0339203207715S11657854EA0038200431000000000000
B0339243207627S11657845EA0040000446000000000000
B0339283207547S11657809EA0041900468000000000000
B0339323207473S11657759EA0043500480000004000000
B0339363207403S11657706EA0045000495000004000000
B0339403207333S11657660EA0046400511000000000000
B0339443207265S11657618EA0048800539000004000000
B0339483207200S11657569EA0050700564000004000000
B0339523207131S11657516EA0052900580000004000000
B0339563207061S11657455EA0054600599000000000000
B0340003206995S11657391EA0056800620000000000000
B0340043206929S11657330EA0058400633000000000000
B0340083206865S11657270EA0059300643000000000000
B0340123206823S11657192EA0060800658000004000000
B0340163206810S11657101EA0061900667000004000000
B0340203206816S11657008EA0063100679000004000000
B0340243206810S11656913EA0064500696000000000000
B0340283206773S11656827EA0066700720000004000000
B0340323206702S11656786EA0069700748000004000000
B0340363206645S11656832EA0071400764000004000000
B0340403206657S11656904EA0072000763000000000000
B0340443206717S11656925EA0071900765000000000000
B0340483206770S11656887EA0072400769000000015000
B0340523206777S11656819EA0073100783000000015000
B0340563206725S11656793EA0074000782000000015000
B0341003206679S11656845EA0074200788000004015000
B0341043206710S11656896EA0075300797000004015000
B0341083206754S11656862EA0074900790000000015000
B0341123206741S11656793EA0075000795000004015000
B0341163206680S11656769EA0076000809000004015000
B0341203206618S11656786EA0077400822000004015000
B0341243206595S11656847EA0078400828000004015000
B0341283206631S11656891EA0078600832000004015000
B0341323206674S11656858EA0078900835000000015000
B0341363206656S11656796EA0079500845000000015000
B0341403206595S11656795EA0080700857000000015000
B0341443206567S11656854EA0081600861000000015000
B0341483206592S11656916EA0081800863000004015000
B0341523206645S11656927EA0081900862000000015000
B0341563206686S11656883EA0081800864000000015000
B0342003206692S11656812EA0082400872000000015000
B0342043206644S11656771EA0084000890000000015000
B0342083206606S11656821EA0085000892000000015000
B0342123206643S11656869EA0085100899000004015000
B0342163206692S11656838EA0085900906000000015000
B0342203206682S11656771EA0087600926000004015000
B0342243206626S11656756EA0088900942000004015000
B0342283206585S11656805EA0090000950000004015000
B0342323206601S11656865EA0090900958000004015000
B0342363206653S11656869EA0091600966000004015000
B0342403206679S11656812EA0092600977000000015000
B0342443206656S11656752EA0093500988000000015000
B0342483206600S11656739EA0094801002000000015000
B0342523206563S11656787EA0095901007000000015000
B0342563206583S11656845EA0096501015000000015000
B0343003206631S11656841EA0097501026000000015000
B0343043206649S11656788EA0098901034000000015000
B0343083206623S11656730EA0099201032000000015000
B0343123206562S11656719EA0099701049000000015000
B0343163206524S11656770EA0101201061000000015000
B0343203206540S11656827EA0102101067000000015000
B0343243206591S11656834EA0102601072000004015000
B0343283206621S11656778EA0103501082000004015000
B0343323206600S11656713EA0104201089000004015000
B0343363206540S11656693EA0105301102000004015000
B0343403206494S11656743EA0106201109000004000000
B0343443206513S11656804EA0106901115000004015000
B0343483206566S11656792EA0107901129000000015000
B0343523206579S11656727EA0109201144000000015000
B0343563206543S11656671EA0110501159000004015000
B0344003206481S11656671EA0111901173000000015000
B0344043206453S11656728EA0113001178000004015000
B0344083206484S11656778EA0113101178000004015000
B0344123206535S11656753EA0113701192000004015000
B0344163206535S11656684EA0115601210000000015000
B0344203206481S11656657EA0117601229000000015000
B0344243206435S11656700EA0118401233000000015000
B0344283206433S11656767EA0118701235000000015000
B0344323206478S11656809EA0118901239000000015000
B0344363206537S11656796EA0119301244000000015000
B0344403206557S11656728EA0120201251000000015000
B0344443206513S11656674EA0121201265000000015000
B0344483206449S11656676EA0122401276000000015000
B0344523206407S11656730EA0123501285000000015000
B0344563206418S11656793EA0124501294000000015000
B0345003206466S11656805EA0125501302000000015000
B0345043206494S11656753EA0125701305000000015000
B0345083206474S11656688EA0126101313000000015000
B0345123206414S11656675EA0127201321000000015000
B0345163206375S11656727EA0127801327000000015000
B0345203206397S11656786EA0128301332000000015000
B0345243206450S11656782EA0128901338000000015000
B0345283206480S11656728EA0129501344000000015000
B0345323206446S11656672EA0130401356000000015000
B0345363206390S11656680EA0131401364000000015000
B0345403206366S11656737EA0131901367000000015000
B0345443206398S11656787EA0132101372000004015000
B0345483206446S11656771EA0132801378000004015000
B0345523206458S11656710EA0133201382000004015000
B0345563206436S11656645EA0134101397000000015000
B0346003206380S11656643EA0135601408000000015000
B0346043206354S11656702EA0136301413000000015000
B0346083206387S11656749EA0136901423000000015000
B0346123206440S11656752EA0137701432000000015000
B0346163206497S11656744EA0137501423000000000000
B0346203206566S11656745EA0136301407000004000000
B0346243206644S11656749EA0134901392000004000000
B0346283206726S11656753EA0134401393000004000000
B0346323206806S11656754EA0134801397000004000000
B0346363206886S11656758EA0134801393000004000000
B0346403206964S11656766EA0134101383000000000000
B0346443207046S11656773EA0132801369000004000000
B0346483207131S11656779EA0131501358000000000000
B0346523207216S11656788EA0130901355000000000000
B0346563207299S11656799EA0130501351000000000000
B0347003207380S11656812EA0130201348000000000000
B0347043207459S11656826EA0130101346000004000000
B0347083207538S11656844EA0129601336000004000000
B0347123207619S11656858EA0128401327000004000000
B0347163207698S11656873EA0127301317000004000000
B0347203207778S11656883EA0126701311000004000000
B0347243207857S11656892EA0126201306000004000000
B0347283207937S11656901EA0125101292000000000000
B0347323208019S11656909EA0123501277000000000000
B0347363208104S11656918EA0122601270000004000000
B0347403208188S11656926EA0122701276000000000000
B0347443208270S11656930EA0123901289000000000000
B0347483208352S11656934EA0123901279000000000000
B0347523208438S11656943EA0123101272000000000000
B0347563208522S11656956EA0122401268000000000000
B0348003208606S11656970EA0122201266000000000000
B0348043208689S11656983EA0121801262000000000000
B0348083208773S11656994EA0121701264000000000000
B0348123208854S11657007EA0123001279000000000000
B0348163208932S11657021EA0124001284000000000000
B0348203209007S11657023EA0123301276000004000000
B0348243209085S11657031EA0122501269000004000000
B0348283209163S11657053EA0121701262000004000000
B0348323209239S11657082EA0121901263000004000000
B0348363209312S11657120EA0121101252000004000000
B0348403209379S11657165EA0120301246000000000000
B0348443209439S11657216EA0120401252000000000000
B0348483209496S11657264EA0120501251000000000000
B0348523209556S11657316EA0120101241000000000000
B0348563209614S11657373EA0120101248000000000000
B0349003209669S11657426EA0120601249000000000000
B0349043209731S11657477EA0120001240000000000000
B0349083209798S11657517EA0120501260000000000000
B0349123209861S11657543EA0122101267000000000000
B0349163209929S11657564EA0122501272000000000000
B0349203209985S11657536EA0124801300000000000000
B0349243209976S11657476EA0126801312000000000000
B0349283209920S11657460EA0126501301000000000000
B0349323209869S11657510EA0126201310000000000000
B0349363209858S11657579EA0127101318000004000000
B0349403209878S11657641EA0128301330000004000000
B0349443209921S11657638EA0129801348000000000000
B0349483209913S11657581EA0131101361000000015000
B0349523209860S11657555EA0132501377000000015000
B0349563209817S11657598EA0133901389000000000000
B0350003209817S11657663EA0134301389000004015000
B0350043209863S11657689EA0134101392000004015000
B0350083209887S11657642EA0135101408000004015000
B0350123209847S11657598EA0136701420000004015000
B0350163209787S11657623EA0137501430000000015000
B0350203209773S11657692EA0138401436000000015000
B0350243209815S11657733EA0138401434000000015000
B0350283209854S11657702EA0139301447000000015000
B0350323209828S11657646EA0140301452000000015000
B0350363209763S11657657EA0141301465000004015000
B0350403209738S11657723EA0142001468000000015000
B0350443209768S11657781EA0141701463000000015000
B0350483209819S11657826EA0140801457000004015000
B0350523209876S11657863EA0140501454000004015000
B0350563209941S11657902EA0139901445000004000000
B0351003210012S11657941EA0139301442000004000000
B0351043210090S11657978EA0139101443000004000000
B0351083210166S11658017EA0140201454000004000000
B0351123210241S11658061EA0140201449000004000000
B0351163210319S11658102EA0139701444000004000000
B0351203210396S11658147EA0139101441000004000000
B0351243210470S11658195EA0139201440000004000000
B0351283210544S11658240EA0138701434000004000000
B0351323210623S11658277EA0137301417000004000000
B0351363210710S11658301EA0135601401000004000000
B0351403210803S11658322EA0134301388000004000000
B0351443210896S11658342EA0133301375000004000000
B0351483210994S11658361EA0132201363000004000000
B0351523211089S11658381EA0131401358000000000000
B0351563211178S11658401EA0131401363000000000000
B0352003211260S11658425EA0131801365000000000000
B0352043211341S11658448EA0131001352000004000000
B0352083211425S11658473EA0129601341000004000000
B0352123211510S11658500EA0128801333000004000000
B0352163211597S11658525EA0127601321000004000000
B0352203211683S11658546EA0127001316000000000000
B0352243211767S11658567EA0126801312000000000000
B0352283211848S11658586EA0127201321000000000000
B0352323211926S11658599EA0127001307000000000000
B0352363212009S11658611EA0125601299000000000000
B0352403212094S11658624EA0125001289000004000000
B0352443212178S11658634EA0123501276000004000000
B0352483212263S11658647EA0123001274000004000000
B0352523212343S11658660EA0122801271000004000000
B0352563212421S11658671EA0121701258000004000000
B0353003212499S11658684EA0120701247000004000000
B0353043212576S11658698EA0119301229000004000000
B0353083212655S11658715EA0117601215000004000000
B0353123212732S11658734EA0116801212000000000000
B0353163212806S11658755EA0116101201000000000000
B0353203212881S11658778EA0114901190000000000000
B0353243212958S11658807EA0114201187000000000000
B0353283213032S11658842EA0113501175000004000000
B0353323213109S11658882EA0111901160000004000000
B0353363213189S11658921EA0111301156000000000000
B0353403213269S11658960EA0110701145000000000000
B0353443213349S11658998EA0109501134000000000000
B0353483213430S11659038EA0108401122000000000000
B0353523213511S11659079EA0107401114000000000000
B0353563213590S11659115EA0107201115000004000000
B0354003213665S11659141EA0107801120000004000000
B0354043213735S11659159EA0108801134000004000000
B0354083213804S11659175EA0109401134000000000000
B0354123213872S11659187EA0110601154000000000000
B0354163213928S11659168EA0113501182000004000000
B0354203213923S11659106EA0115301194000004000000
B0354243213863S11659103EA0115701200000004000000
B0354283213829S11659167EA0116201208000004000000
B0354323213846S11659236EA0117501228000004000000
B0354363213894S11659233EA0119901253000004015000
B0354403213894S11659172EA0121601267000004015000
B0354443213841S11659142EA0123101285000004015000
B0354483213790S11659176EA0124301296000004015000
B0354523213782S11659241EA0125501313000004015000
B0354563213820S11659279EA0127501333000004015000
B0355003213858S11659244EA0129301349000004015000
B0355043213833S11659179EA0130501360000004015000
B0355083213769S11659179EA0132301380000004015000
B0355123213743S11659243EA0133601389000000015000
B0355163213782S11659285EA0134801405000000015000
B0355203213825S11659248EA0136801425000004015000
B0355243213799S11659181EA0138401439000004015000
B0355283213735S11659180EA0139701456000004015000
B0355323213700S11659240EA0141301472000004015000
B0355363213721S11659296EA0143001489000000015000
B0355403213767S11659289EA0144901508000004015000
B0355443213777S11659224EA0146301515000000015000
B0355483213721S11659187EA0147701533000000015000
B0355523213665S11659228EA0149201547000004015000
B0355563213667S11659296EA0150501561000004015000
B0356003213715S11659313EA0151801572000004015000
B0356043213739S11659252EA0153001585000004015000
B0356083213698S11659194EA0154601600000004015000
B0356123213633S11659219EA0156201616000004015000
B0356163213616S11659289EA0157201629000004015000
B0356203213654S11659341EA0157801624000004015000
B0356243213724S11659357EA0157201623000000015000
B0356283213804S11659363EA0156401601000000015000
B0356323213894S11659367EA0154301584000000015000
B0356363213985S11659370EA0153601583000000015000
B0356403214077S11659375EA0152901576000004015000
B0356443214168S11659379EA0153001583000004000000
B0356483214254S11659382EA0152701569000004000000
B0356523214343S11659383EA0151501566000004000000
B0356563214428S11659386EA0151901572000004000000
B0357003214512S11659392EA0151801562000004000000
B0357043214597S11659400EA0150301547000004000000
B0357083214684S11659405EA0149401541000004000000
B0357123214773S11659410EA0148601527000000000000
B0357163214863S11659410EA0148201530000000000000
B0357203214952S11659401EA0149001541000000000000
B0357243215038S11659383EA0149101537000000000000
B0357283215121S11659366EA0149401542000000000000
B0357323215203S11659347EA0149001537000000000000
B0357363215281S11659324EA0150101557000000000000
B0357403215354S11659305EA0151401561000000000000
B0357443215432S11659285EA0150301544000004000000
B0357483215514S11659265EA0149501541000004000000
B0357523215596S11659246EA0149101535000004000000
B0357563215679S11659232EA0148301524000004000000
B0358003215762S11659215EA0147701519000000000000
B0358043215845S11659193EA0146801507000004000000
B0358083215931S11659168EA0145501493000004000000
B0358123216018S11659150EA0144501487000000000000
B0358163216103S11659140EA0145001497000000000000
B0358203216182S11659131EA0145701499000000000000
B0358243216265S11659120EA0144401484000000000000
B0358283216351S11659111EA0143601477000004000000
B0358323216437S11659107EA0143101475000004000000
B0358363216523S11659102EA0142501467000000000000
B0358403216610S11659097EA0141501455000000000000
B0358443216697S11659094EA0141201456000000000000
B0358483216783S11659096EA0141001455000000000000
B0358523216866S11659097EA0141901467000000000000
B0358563216945S11659100EA0142701471000000000000
B0359003217024S11659098EA0141901459000000000000
B0359043217109S11659093EA0140901449000004000000
B0359083217191S11659087EA0141601464000004000000
B0359123217269S11659081EA0141901455000004000000
B0359163217352S11659079EA0140001433000004000000
B0359203217442S11659075EA0137601410000000000000
B0359243217534S11659071EA0136501407000000000000
B0359283217621S11659072EA0136501410000000000000
B0359323217706S11659075EA0136501408000000000000
B0359363217786S11659074EA0135901405000000000000
B0359403217864S11659067EA0135501396000004000000
B0359443217945S11659061EA0134001378000004000000
B0359483218024S11659046EA0133501378000004000000
B0359523218102S11659032EA0132701368000004000000
B0359563218180S11659019EA0132001363000000000000
B0400003218256S11659007EA0132201371000000000000
B0400043218326S11658992EA0133401381000004000000
B0400083218393S11658976EA0133601382000000000000
B0400123218462S11658957EA0133001372000000000000
B0400163218538S11658938EA0132201362000000000000
B0400203218617S11658920EA0131401360000004000000
B0400243218695S11658905EA0132201377000000000000
B0400283218768S11658890EA0133901395000000000000
B0400323218837S11658879EA0134801398000000000000
B0400363218907S11658875EA0134801392000000000000
B0400403218984S11658875EA0133601375000000000000
B0400443219067S11658877EA0131301350000000000000
B0400483219155S11658884EA0129301332000000000000
B0400523219244S11658892EA0128001323000004000000
B0400563219331S11658903EA0127301317000004000000
B0401003219415S11658915EA0126601307000004000000
B0401043219502S11658923EA0125301295000004000000
B0401083219589S11658932EA0124501288000000000000
B0401123219676S11658941EA0123001272000004000000
B0401163219762S11658949EA0122301267000000000000
B0401203219844S11658954EA0121701262000000000000
B0401243219923S11658955EA0121501260000000000000
B0401283220005S11658953EA0120701251000000000000
B0401323220086S11658944EA0120901261000000000000
B0401363220161S11658928EA0122101273000000000000
B0401403220230S11658911EA0123301284000004000000
B0401443220300S11658893EA0123801287000000000000
B0401483220372S11658866EA0124601300000000000000
B0401523220412S11658798EA0126801323000000000000
B0401563220372S11658741EA0129301351000000000000
B0402003220313S11658756EA0131901374000000000000
B0402043220290S11658817EA0133701391000000000000
B0402083220316S11658869EA0135301407000000000000
B0402123220367S11658862EA0136901425000000015000
B0402163220381S11658798EA0138501437000000015000
B0402203220341S11658746EA0139801452000000015000
B0402243220282S11658760EA0141201465000000015000
B0402283220264S11658827EA0142301481000004015000
B0402323220300S11658875EA0143901498000000015000
B0402363220351S11658854EA0145301507000000015000
B0402403220355S11658782EA0146701525000000015000
B0402443220304S11658745EA0148301540000000015000
B0402483220251S11658776EA0149601552000000015000
B0402523220239S11658842EA0150901564000000015000
B0402563220276S11658888EA0152301580000000015000
B0403003220323S11658863EA0154201598000004015000
B0403043220323S11658797EA0155701613000004015000
B0403083220273S11658763EA0156901628000004015000
B0403123220221S11658795EA0158401642000004015000
B0403163220216S11658860EA0159501649000004015000
B0403203220259S11658897EA0160501661000004015000
B0403243220299S11658853EA0161801673000004015000
B0403283220272S11658790EA0162901682000004015000
B0403323220211S11658794EA0164001697000000015000
B0403363220182S11658855EA0165201704000000015000
B0403403220203S11658921EA0165501704000000015000
B0403443220260S11658967EA0164801694000000015000
B0403483220336S11659002EA0163501680000004015000
B0403523220420S11659037EA0161601660000004000000
B0403563220510S11659074EA0159601633000000000000
B0404003220605S11659114EA0157201616000000000000
B0404043220697S11659157EA0156401611000000000000
B0404083220791S11659206EA0155101599000000000000
B0404123220882S11659257EA0155001599000000000000
B0404163220969S11659313EA0154701594000000000000
B0404203221052S11659376EA0153201576000004000000
B0404243221134S11659444EA0152501573000004000000
B0404283221210S11659505EA0152901581000004000000
B0404323221286S11659566EA0152501572000004000000
B0404363221363S11659627EA0151601561000004000000
B0404403221441S11659687EA0150901558000000000000
B0404443221519S11659748EA0150101545000004000000
B0404483221598S11659812EA0149201543000000000000
B0404523221673S11659876EA0150301555000000000000
B0404563221747S11659941EA0149801542000000000000
B0405003221821S11700007EA0148701535000000000000
B0405043221894S11700075EA0148101527000000000000
B0405083221972S11700133EA0147701523000000000000
B0405123222058S11700181EA0146501507000000000000
B0405163222149S11700216EA0145901510000000000000
B0405203222235S11700246EA0146701520000000000000
B0405243222317S11700273EA0147101516000004000000
B0405283222403S11700301EA0146601514000000000000
B0405323222488S11700328EA0145701502000004000000
B0405363222577S11700355EA0144601491000000000000
B0405403222665S11700381EA0143601483000004000000
B0405443222750S11700405EA0143801489000004000000
B0405483222834S11700426EA0143201479000004000000
B0405523222917S11700444EA0143201487000000000000
B0405563222997S11700459EA0143801490000004000000
B0406003223075S11700471EA0144101494000000000000
B0406043223149S11700479EA0144701496000000000000
B0406083223224S11700487EA0144601494000000000000
B0406123223305S11700496EA0144701500000000000000
B0406163223383S11700509EA0145901510000000000000
B0406203223461S11700522EA0146001510000000000000
B0406243223540S11700539EA0146101510000000000000
B0406283223621S11700556EA0146801520000000000000
B0406323223701S11700574EA0147101517000004000000
B0406363223786S11700591EA0146101507000000000000
B0406403223874S11700613EA0144701490000000000000
B0406443223965S11700639EA0143501483000000000000
B0406483224054S11700667EA0143301480000000000000
B0406523224141S11700696EA0142901477000000000000
B0406563224228S11700723EA0142101468000000000000
B0407003224314S11700749EA0141501464000004000000
B0407043224397S11700773EA0141301463000004000000
B0407083224479S11700791EA0141001457000000000000
B0407123224562S11700809EA0140201452000000000000
B0407163224642S11700825EA0140001451000004000000
B0407203224722S11700842EA0139501444000004000000
B0407243224802S11700862EA0139001439000004000000
B0407283224883S11700875EA0139001441000004000000
B0407323224965S11700882EA0138901441000004000000
B0407363225039S11700875EA0141101472000004000000
B0407403225057S11700813EA0144201499000004000000
B0407443225001S11700791EA0146601523000004000000
B0407483224960S11700838EA0148401542000000000000
B0407523224975S11700899EA0149901554000000000000
B0407563225023S11700913EA0151301568000000000000
B0408003225039S11700864EA0152301576000004015000
B0408043224992S11700832EA0153401588000004015000
B0408083224947S11700877EA0154901607000000015000
B0408123224960S11700939EA0156601619000000015000
B0408163225010S11700951EA0157001622000000015000
B0408203225032S11700901EA0157801628000000015000
B0408243225000S11700855EA0159301641000000015000
B0408283224945S11700874EA0160201647000000015000
B0408323224938S11700951EA0160901659000000015000
B0408363224983S11700999EA0162001672000004015000
B0408403225044S11701005EA0162301659000004015000
B0408443225117S11701003EA0160301637000004015000
B0408483225198S11700998EA0158301624000004000000
B0408523225283S11700992EA0156201591000004000000
B0408563225377S11700988EA0153201568000000000000
B0409003225472S11700986EA0151701559000000000000
B0409043225565S11700990EA0151101557000000000000
B0409083225655S11700992EA0151101556000000000000
B0409123225742S11700994EA0150401550000004000000
B0409163225828S11700995EA0149601543000000000000
B0409203225911S11700998EA0148901533000000000000
B0409243225994S11700999EA0148001527000000000000
B0409283226075S11701001EA0147501523000000000000
B0409323226156S11701011EA0146601510000000000000
B0409363226239S11701018EA0145501499000004000000
B0409403226325S11701029EA0143901482000004000000
B0409443226410S11701039EA0143001476000000000000
B0409483226496S11701050EA0142101467000004000000
B0409523226583S11701057EA0140801453000000000000
B0409563226670S11701064EA0140101446000000000000
B0410003226755S11701070EA0139701445000000000000
B0410043226836S11701073EA0138901437000000000000
B0410083226912S11701072EA0138201431000000000000
B0410123226988S11701069EA0138001432000000000000
B0410163227059S11701063EA0138701442000000000000
B0410203227128S11701052EA0139301444000000000000
B0410243227201S11701040EA0139301449000004000000
B0410283227275S11701031EA0139801455000000000000
B0410323227350S11701029EA0140401461000000000000
B0410363227426S11701030EA0140401451000000000000
B0410403227506S11701034EA0138601433000000000000
B0410443227588S11701039EA0137401425000000000000
B0410483227670S11701051EA0136801420000004000000
B0410523227749S11701068EA0136601416000000000000
B0410563227830S11701082EA0135801406000004000000
B0411003227915S11701099EA0136001420000004000000
B0411043227990S11701128EA0138201442000000000000
B0411083228058S11701161EA0138701437000004000000
B0411123228128S11701198EA0137301424000004000000
B0411163228202S11701238EA0137001420000000000000
B0411203228273S11701280EA0136401410000000000000
B0411243228346S11701326EA0135001396000000000000
B0411283228420S11701375EA0133501378000000000000
B0411323228505S11701411EA0131201355000000000000
B0411363228594S11701428EA0129701346000000000000
B0411403228683S11701430EA0128801333000004000000
B0411443228771S11701427EA0127201318000004000000
B0411483228858S11701416EA0126501322000004000000
B0411523228940S11701421EA0128101347000000000000
B0411563229009S11701449EA0131001375000000000000
B0412003229072S11701472EA0133101393000004000000
B0412043229131S11701493EA0134401398000004000000
B0412083229199S11701495EA0133601380000004000000
B0412123229277S11701480EA0132101375000004000000
B0412163229355S11701456EA0132201377000004000000
B0412203229433S11701434EA0131901369000004000000
B0412243229512S11701415EA0130901359000004000000
B0412283229590S11701397EA0130501358000000000000
B0412323229668S11701378EA0129801343000000000000
B0412363229749S11701362EA0128801337000000000000
B0412403229829S11701347EA0127801326000004000000
B0412443229910S11701338EA0126801316000004000000
B0412483229991S11701332EA0125801307000004000000
B0412523230073S11701324EA0124701293000004000000
B0412563230154S11701316EA0123501284000004000000
B0413003230235S11701308EA0123101281000000000000
B0413043230313S11701300EA0122401272000000000000
B0413083230394S11701291EA0121301259000004000000
B0413123230474S11701284EA0120601258000000000000
B0413163230554S11701280EA0121201267000000000000
B0413203230628S11701278EA0122101273000004000000
B0413243230703S11701276EA0121501259000004000000
B0413283230782S11701269EA0120001245000004000000
B0413323230864S11701265EA0118501229000004000000
B0413363230945S11701264EA0117401223000004000000
B0413403231024S11701263EA0117101223000000000000
B0413443231097S11701263EA0117601230000004000000
B0413483231167S11701260EA0117801226000004000000
B0413523231240S11701251EA0116501209000004000000
B0413563231317S11701243EA0116001218000000000000
B0414003231388S11701245EA0118101240000000000000
B0414043231452S11701241EA0120301259000000000000
B0414083231483S11701191EA0122201277000000000000
B0414123231435S11701156EA0123801290000000000000
B0414163231379S11701198EA0124401293000000000000
B0414203231369S11701276EA0124801300000000000000
B0414243231405S11701326EA0126301318000000015000
B0414283231448S11701315EA0127701331000000015000
B0414323231457S11701263EA0128001324000000015000
B0414363231417S11701213EA0127801328000000015000
B0414403231353S11701221EA0128601336000000015000
B0414443231321S11701285EA0129501351000000015000
B0414483231336S11701354EA0130501357000004015000
B0414523231369S11701419EA0130901363000004000000
B0414563231406S11701486EA0131101359000000000000
B0415003231451S11701557EA0129801342000000000000
B0415043231504S11701631EA0128501334000000000000
B0415083231558S11701703EA0128601339000004000000
B0415123231609S11701771EA0128801341000004000000
B0415163231661S11701835EA0129201344000004000000
B0415203231718S11701893EA0130101359000004000000
B0415243231777S11701944EA0132101382000004000000
B0415283231837S11701979EA0134501400000000000000
B0415323231878S11701934EA0136701424000004000000
B0415363231842S11701883EA0138901448000000000000
B0415403231792S11701905EA0140701461000004000000
B0415443231790S11701973EA0142201475000004000000
B0415483231839S11702010EA0143601486000004000000
B0415523231889S11701976EA0144601496000004015000
B0415563231889S11701906EA0145601512000004015000
B0416003231842S11701867EA0146701516000004015000
B0416043231789S11701893EA0147101522000004015000
B0416083231782S11701967EA0148301538000000015000
B0416123231833S11702005EA0150001552000004015000
B0416163231878S11701958EA0151401565000000015000
B0416203231855S11701892EA0153101585000000015000
B0416243231799S11701891EA0154201589000000015000
B0416283231770S11701958EA0154901601000000015000
B0416323231817S11701996EA0156601618000000015000
B0416363231855S11701940EA0157901632000000015000
B0416403231817S11701883EA0158701638000000015000
B0416443231760S11701902EA0159901653000000015000
B0416483231753S11701971EA0161801670000000015000
B0416523231804S11702012EA0162701675000000015000
B0416563231855S11701970EA0163901688000000015000
B0417003231837S11701905EA0165001699000000015000
B0417043231782S11701895EA0165701705000000015000
B0417083231747S11701948EA0166601722000000015000
B0417123231763S11702010EA0168301733000000015000
B0417163231817S11702056EA0167801716000000015000
B0417203231891S11702097EA0166501703000000000000
B0417243231976S11702132EA0164501683000004000000
B0417283232067S11702165EA0163301679000000000000
B0417323232159S11702200EA0162501664000000000000
B0417363232257S11702233EA0160801651000004000000
B0417403232351S11702265EA0159901646000004000000
B0417443232442S11702300EA0159301639000000000000
B0417483232533S11702337EA0158101626000000000000
B0417523232627S11702370EA0157101615000000000000
B0417563232721S11702404EA0156001602000004000000
B0418003232814S11702439EA0154801590000004000000
B0418043232907S11702477EA0153601577000004000000
B0418083232999S11702517EA0152401570000000000000
B0418123233086S11702556EA0152801582000000000000
B0418163233167S11702589EA0154801603000000000000
B0418203233242S11702620EA0156201609000000000000
B0418243233321S11702647EA0154701588000000000000
B0418283233404S11702677EA0153701585000004000000
B0418323233486S11702710EA0153501583000004000000
B0418363233568S11702743EA0152801569000004000000
B0418403233651S11702775EA0152501575000004000000
B0418443233727S11702808EA0153001572000004000000
B0418483233806S11702833EA0151701558000004000000
B0418523233889S11702858EA0150401545000004000000
B0418563233974S11702885EA0149101536000004000000
B0419003234058S11702915EA0148501530000004000000
B0419043234142S11702946EA0148101527000004000000
B0419083234223S11702981EA0147601522000004000000
B0419123234307S11703022EA0146801513000004000000
B0419163234390S11703062EA0146201507000004000000
B0419203234474S11703102EA0145701502000004000000
B0419243234558S11703143EA0145201498000000000000
B0419283234637S11703182EA0145501507000000000000
B0419323234715S11703222EA0145401498000000000000
B0419363234795S11703262EA0144001484000000000000
B0419403234879S11703301EA0143101477000000000000
B0419443234963S11703338EA0142301470000000000000
B0419483235046S11703374EA0141001455000000000000
B0419523235130S11703410EA0140301454000000000000
B0419563235205S11703447EA0140901458000000000000
B0420003235278S11703483EA0140301447000000000000
B0420043235351S11703517EA0139201437000000000000
B0420083235426S11703553EA0138201428000000000000
B0420123235501S11703590EA0137601424000000000000
B0420163235579S11703625EA0137301418000000000000
B0420203235657S11703663EA0137601428000004000000
B0420243235734S11703700EA0138801440000004000000
B0420283235809S11703735EA0140101453000000000000
B0420323235884S11703769EA0140101446000000000000
B0420363235962S11703800EA0139301437000004000000
B0420403236045S11703825EA0137901421000000000000
B0420443236129S11703848EA0136801413000000000000
B0420483236211S11703874EA0136201407000000000000
B0420523236292S11703903EA0135601402000000000000
B0420563236372S11703929EA0134601387000004000000
B0421003236454S11703954EA0133201376000004000000
B0421043236535S11703978EA0132401368000000000000
B0421083236613S11703998EA0132301376000000000000
B0421123236683S11704015EA0133501385000000000000
B0421163236752S11704024EA0133701382000000000000
B0421203236821S11704021EA0133401380000000000000
B0421243236891S11704012EA0132901373000004000000
B0421283236964S11703998EA0131501357000004000000
B0421323237043S11703981EA0130201348000004000000
B0421363237120S11703960EA0130001345000000000000
B0421403237198S11703936EA0129101335000000000000
B0421443237272S11703911EA0129301345000004000000
B0421483237342S11703890EA0130401356000004000000
B0421523237408S11703868EA0131201362000000000000
B0421563237476S11703842EA0131901371000000000000
B0422003237535S11703804EA0133001380000004000000
B0422043237594S11703763EA0132001354000000000000
B0422083237670S11703725EA0129601332000004000000
B0422123237754S11703700EA0128501327000000000000
B0422163237843S11703689EA0127701319000000000000
B0422203237930S11703686EA0127101313000000000000
B0422243238017S11703687EA0126201304000000000000
B0422283238103S11703689EA0125501299000004000000
B0422323238187S11703686EA0125201295000004000000
B0422363238269S11703685EA0124401287000004000000
B0422403238346S11703682EA0123701280000004000000
B0422443238421S11703679EA0122701269000004000000
B0422483238493S11703674EA0121901261000004000000
B0422523238562S11703666EA0121201259000004000000
B0422563238625S11703657EA0121601263000000000000
B0423003238686S11703647EA0121501256000000000000
B0423043238753S11703633EA0120301246000000000000
B0423083238819S11703620EA0119901244000000000000
B0423123238885S11703608EA0119501238000000000000
B0423163238954S11703600EA0118601229000000000000
B0423203239024S11703596EA0117901223000000000000
B0423243239097S11703603EA0117101215000000000000
B0423283239169S11703618EA0116501209000000000000
B0423323239240S11703640EA0115801201000000000000
B0423363239312S11703665EA0115201196000000000000
B0423403239382S11703695EA0114401186000000000000
B0423443239452S11703728EA0113301176000000000000
B0423483239524S11703761EA0112501166000000000000
B0423523239596S11703795EA0111401157000004000000
B0423563239668S11703830EA0110501147000004000000
B0424003239741S11703868EA0109301134000004000000
B0424043239813S11703910EA0107901121000004000000
B0424083239885S11703954EA0106601105000004000000
B0424123239956S11703999EA0105801102000004000000
B0424163240027S11704040EA0105601102000004000000
B0424203240094S11704075EA0105401097000000000000
B0424243240163S11704103EA0104001075000000000000
B0424283240235S11704134EA0102001058000000000000
B0424323240306S11704164EA0100801052000000000000
B0424363240378S11704197EA0101201061000000000000
B0424403240445S11704227EA0102401074000000000000
B0424443240510S11704254EA0103901091000000000000
B0424483240575S11704284EA0105401102000000000000
B0424523240636S11704268EA0106501113000004000000
B0424563240631S11704201EA0107201116000004000000
B0425003240565S11704193EA0107001116000004015000
B0425043240522S11704257EA0107501123000004015000
B0425083240525S11704335EA0108301135000004015000
B0425123240562S11704393EA0109101138000004015000
B0425163240616S11704422EA0108901133000000015000
B0425203240670S11704415EA0108201125000000015000
B0425243240730S11704413EA0106801108000000015000
B0425283240794S11704430EA0105001093000000000000
B0425323240855S11704462EA0104701094000000000000
B0425363240913S11704501EA0104501091000000000000
B0425403240973S11704536EA0104601091000000000000
B0425443241032S11704567EA0104501092000004000000
B0425483241090S11704591EA0103801079000004000000
B0425523241152S11704610EA0102101062000004000000
B0425563241216S11704626EA0101701059000004000000
B0426003241277S11704634EA0101001050000004000000
B0426043241338S11704636EA0100301048000004000000
B0426083241403S11704640EA0100101044000004000000
B0426123241467S11704656EA0100301050000004000000
B0426163241531S11704671EA0101301058000000000000
B0426203241596S11704675EA0101901064000004000000
B0426243241627S11704619EA0103201078000004000000
B0426283241580S11704571EA0103801081000000015000
B0426323241514S11704601EA0103901083000004015000
B0426363241492S11704677EA0104001086000004015000
B0426403241523S11704739EA0104801097000004015000
B0426443241578S11704760EA0105501097000004015000
B0426483241632S11704729EA0105201092000004015000
B0426523241652S11704653EA0104801087000004015000
B0426563241627S11704573EA0104801090000004015000
B0427003241567S11704523EA0105201097000004015000
B0427043241496S11704532EA0106001104000004015000
B0427083241441S11704588EA0106601111000004015000
B0427123241418S11704664EA0107001115000004015000
B0427163241444S11704722EA0107801125000004015000
B0427203241496S11704726EA0108401130000000015000
B0427243241527S11704674EA0108801133000000015000
B0427283241501S11704609EA0109101137000004015000
B0427323241435S11704592EA0109401139000000015000
B0427363241376S11704639EA0109901143000000015000
B0427403241359S11704714EA0109901139000000015000
B0427443241392S11704779EA0109701141000000015000
B0427483241449S11704792EA0110101146000000015000
B0427523241492S11704747EA0110501146000000015000
B0427563241496S11704673EA0110401143000004015000
B0428003241466S11704596EA0110101143000004015000
B0428043241414S11704536EA0110601152000004015000
B0428083241341S11704541EA0111601159000004015000
B0428123241295S11704608EA0112101163000004015000
B0428163241308S11704679EA0112301164000004015000
B0428203241359S11704708EA0112401164000004015000
B0428243241410S11704679EA0112301162000004015000
B0428283241420S11704608EA0112301169000000015000
B0428323241381S11704548EA0113201178000004015000
B0428363241312S11704530EA0113601180000004015000
B0428403241246S11704565EA0114201189000004015000
B0428443241229S11704635EA0115401199000000015000
B0428483241268S11704673EA0115401193000004015000
B0428523241310S11704636EA0114801194000000015000
B0428563241303S11704565EA0114801194000000015000
B0429003241276S11704489EA0114801196000000015000
B0429043241245S11704413EA0115001194000000015000
B0429083241214S11704328EA0114301186000000015000
B0429123241180S11704238EA0114001183000000000000
B0429163241143S11704145EA0113201179000000000000
B0429203241107S11704053EA0113201178000000000000
B0429243241074S11703962EA0113001177000000000000
B0429283241051S11703873EA0113301181000000000000
B0429323241033S11703789EA0113801185000000000000
B0429363241017S11703708EA0113901186000000000000
B0429403241003S11703629EA0114001187000000000000
B0429443240989S11703548EA0113901187000000000000
B0429483240978S11703470EA0114201191000000000000
B0429523240972S11703392EA0114301187000000000000
B0429563240961S11703315EA0113301178000000000000
B0430003240939S11703241EA0112701170000004000000
B0430043240921S11703163EA0111401154000000000000
B0430083240935S11703081EA0109501140000000000000
B0430123240980S11703014EA0108601133000000000000
B0430163241037S11702961EA0108101128000000000000
B0430203241102S11702924EA0107701123000000000000
B0430243241171S11702897EA0107401117000000000000
B0430283241245S11702889EA0106701116000000000000
B0430323241315S11702890EA0107801126000004000000
B0430363241384S11702894EA0107901123000000000000
B0430403241455S11702901EA0107801126000004000000
B0430443241524S11702915EA0108401131000004000000
B0430483241592S11702929EA0108301128000004000000
B0430523241662S11702945EA0107601119000004000000
B0430563241736S11702951EA0107801125000004000000
B0431003241809S11702959EA0108701135000004000000
B0431043241857S11702928EA0110801156000000000000
B0431083241835S11702871EA0112201169000000000000
B0431123241770S11702877EA0113301182000000015000
B0431163241734S11702938EA0114201190000000015000
B0431203241761S11702992EA0114801191000000015000
B0431243241809S11702979EA0114801194000000015000
B0431283241818S11702924EA0115401197000000015000
B0431323241771S11702881EA0116101208000000015000
B0431363241713S11702910EA0117201216000000015000
B0431403241696S11702981EA0117501218000000015000
B0431443241736S11703026EA0117601219000000015000
B0431483241787S11703010EA0117601216000004015000
B0431523241801S11702946EA0117401218000004015000
B0431563241760S11702889EA0118201228000000015000
B0432003241693S11702885EA0119301239000000015000
B0432043241656S11702950EA0119801243000000015000
B0432083241682S11703018EA0120101245000000015000
B0432123241737S11703026EA0120401250000004015000
B0432163241761S11702968EA0121301257000004015000
B0432203241724S11702906EA0121601265000004030000
B0432243241659S11702877EA0122301271000000015000
B0432283241597S11702912EA0123401285000000015000
B0432323241581S11702988EA0124601294000000015000
B0432363241614S11703046EA0125201297000000015000
B0432403241670S11703065EA0124601284000000015000
B0432443241740S11703071EA0123401280000000015000
B0432483241809S11703068EA0124701298000000015000
B0432523241843S11703024EA0127401322000000015000
B0432563241828S11702963EA0127901322000000015000
B0433003241765S11702935EA0128201331000000015000
B0433043241693S11702938EA0129501345000000015000
B0433083241639S11702990EA0130601359000004015000
B0433123241643S11703058EA0131701367000004015000
B0433163241692S11703050EA0131901362000004015000
B0433203241695S11702985EA0132001372000004015000
B0433243241648S11702938EA0133201383000000015000
B0433283241584S11702941EA0134001386000000015000
B0433323241553S11703011EA0134001384000000015000
B0433363241589S11703072EA0133701376000000015000
B0433403241658S11703098EA0132301362000000015000
B0433443241734S11703119EA0131501359000000015000
B0433483241812S11703140EA0130801352000000015000
B0433523241890S11703161EA0130301351000000000000
B0433563241965S11703184EA0130801352000000000000
B0434003242042S11703209EA0130201344000000000000
B0434043242120S11703234EA0129501336000004000000
B0434083242199S11703254EA0128301325000004000000
B0434123242277S11703276EA0127301314000000000000
B0434163242354S11703301EA0126401307000004000000
B0434203242426S11703330EA0126001302000000000000
B0434243242501S11703358EA0125301296000004000000
B0434283242577S11703384EA0125001293000004000000
B0434323242657S11703412EA0124801290000004000000
B0434363242732S11703439EA0125701306000000000000
B0434403242805S11703466EA0126001302000000000000
B0434443242881S11703483EA0126001305000004000000
B0434483242958S11703504EA0127001325000000000000
B0434523243030S11703523EA0129101340000000000000
B0434563243102S11703535EA0130601358000004000000
B0435003243141S11703481EA0133301388000000000000
B0435043243108S11703430EA0135501406000000000000
B0435083243054S11703448EA0137401427000000000000
B0435123243043S11703512EA0139501447000004015000
B0435163243082S11703560EA0141101460000000015000
B0435203243138S11703543EA0142401474000000015000
B0435243243145S11703481EA0143701489000000015000
B0435283243097S11703448EA0144801498000004015000
B0435323243049S11703490EA0146101514000000015000
B0435363243054S11703559EA0148101533000004015000
B0435403243102S11703594EA0149801548000004015000
B0435443243144S11703561EA0151501564000004015000
B0435483243131S11703504EA0152101567000004015000
B0435523243076S11703491EA0153101582000004015000
B0435563243044S11703543EA0154701599000000015000
B0436003243067S11703604EA0156101608000004015000
B0436043243122S11703614EA0157001623000000015000
B0436083243145S11703565EA0158401633000000015000
B0436123243115S11703518EA0159101639000000015000
B0436163243065S11703535EA0160101650000004015000
B0436203243053S11703604EA0161001661000004015000
B0436243243091S11703661EA0162101666000000015000
B0436283243154S11703690EA0161601657000004015000
B0436323243230S11703705EA0160101638000004015000
B0436363243310S11703720EA0158001619000004015000
B0436403243395S11703733EA0155801592000004000000
B0436443243483S11703748EA0153901581000004000000
B0436483243568S11703767EA0153001570000000000000
B0436523243650S11703786EA0152701570000000000000
B0436563243729S11703804EA0153401583000000000000
B0437003243804S11703821EA0154401593000000000000
B0437043243877S11703838EA0155901614000000000000
B0437083243947S11703851EA0157701631000000000000
B0437123244020S11703863EA0157701618000000000000
B0437163244101S11703876EA0156801614000000000000
B0437203244183S11703891EA0156701614000000000000
B0437243244265S11703910EA0156501608000000000000
B0437283244348S11703926EA0155701601000000000000
B0437323244434S11703938EA0154301582000000000000
B0437363244521S11703950EA0152701571000000000000
B0437403244605S11703960EA0153301577000000000000
B0437443244685S11703977EA0153701581000004000000
B0437483244764S11703990EA0154001586000004000000
B0437523244844S11704004EA0153401573000000000000
B0437563244929S11704016EA0152701571000000000000
B0438003245013S11704027EA0152001563000004000000
B0438043245099S11704042EA0152001567000000000000
B0438083245185S11704056EA0152601574000004000000
B0438123245273S11704068EA0153201581000000000000
B0438163245358S11704075EA0155001601000000000000
B0438203245440S11704077EA0155301598000000000000
B0438243245526S11704079EA0154201579000000000000
B0438283245615S11704080EA0152601567000000000000
B0438323245705S11704082EA0152001557000000000000
B0438363245796S11704085EA0151101547000000000000
B0438403245886S11704088EA0149901533000000000000
B0438443245979S11704089EA0148701525000000000000
B0438483246072S11704090EA0148801528000000000000
B0438523246163S11704090EA0148701529000000000000
B0438563246254S11704089EA0148601524000000000000
B0439003246345S11704086EA0148601527000000000000
B0439043246436S11704085EA0148101520000000000000
B0439083246523S11704081EA0147801520000000000000
B0439123246607S11704073EA0147301513000004000000
B0439163246692S11704064EA0146801510000004000000
B0439203246775S11704055EA0146401503000000000000
B0439243246859S11704046EA0145101490000004000000
B0439283246947S11704038EA0144401485000000000000
B0439323247032S11704029EA0144501487000004000000
B0439363247118S11704021EA0144401482000004000000
B0439403247205S11704014EA0143901479000000000000
B0439443247288S11704002EA0145301506000000000000
B0439483247363S11703988EA0146801509000000000000
B0439523247439S11703975EA0146101498000000000000
B0439563247517S11703964EA0145601497000004000000
B0440003247597S11703950EA0145101490000000000000
B0440043247678S11703936EA0144501483000000000000
B0440083247762S11703920EA0144001478000000000000
B0440123247844S11703902EA0143301471000004000000
B0440163247927S11703884EA0142001458000004000000
B0440203248013S11703874EA0140701448000004000000
B0440243248098S11703872EA0140501448000000000000
B0440283248182S11703874EA0140001438000000000000
B0440323248265S11703878EA0139301432000000000000
B0440363248347S11703880EA0138501424000004000000
B0440403248426S11703881EA0137701416000000000000
B0440443248505S11703885EA0136601400000000000000
B0440483248586S11703887EA0134901387000000000000
B0440523248664S11703887EA0134301382000000000000
B0440563248741S11703881EA0133601376000000000000
B0441003248815S11703872EA0133201372000004000000
B0441043248889S11703859EA0132201367000000000000
B0441083248962S11703842EA0131401357000004000000
B0441123249037S11703824EA0130401348000004000000
B0441163249108S11703804EA0130601358000004000000
B0441203249176S11703783EA0131701367000004000000
B0441243249241S11703759EA0132601377000000000000
B0441283249306S11703731EA0133501385000000000000
B0441323249370S11703717EA0134301393000000000000
B0441363249432S11703698EA0134801395000000000000
B0441403249485S11703648EA0134401388000000000000
B0441443249547S11703608EA0133401377000004000000
B0441483249619S11703586EA0132101364000004000000
B0441523249697S11703581EA0131001354000004000000
B0441563249777S11703585EA0130101343000004000000
B0442003249856S11703592EA0129501342000004000000
B0442043249934S11703604EA0128901332000004000000
B0442083250016S11703614EA0127801324000000000000
B0442123250100S11703626EA0127301317000000000000
B0442163250186S11703635EA0126201305000004000000
B0442203250271S11703644EA0125001295000004000000
B0442243250351S11703652EA0124701295000000000000
B0442283250428S11703666EA0123801278000000000000
B0442323250507S11703677EA0121601253000000000000
B0442363250588S11703686EA0120401257000004000000
B0442403250661S11703705EA0121401264000004000000
B0442443250731S11703725EA0121101257000004000000
B0442483250805S11703743EA0120801257000004000000
B0442523250876S11703760EA0121701266000000000000
B0442563250948S11703769EA0121601264000000000000
B0443003251019S11703778EA0121901268000000000000
B0443043251087S11703795EA0122701278000000000000
B0443083251155S11703813EA0123001278000000000000
B0443123251224S11703833EA0122101263000004000000
B0443163251296S11703860EA0120501245000004000000
B0443203251373S11703884EA0119001234000004000000
B0443243251452S11703899EA0118101222000000000000
B0443283251534S11703911EA0117201222000000000000
B0443323251611S11703929EA0117901227000004000000
B0443363251684S11703949EA0117601221000000000000
B0443403251758S11703968EA0117401223000004000000
B0443443251825S11704002EA0119001244000004000000
B0443483251881S11704042EA0121001260000000000000
B0443523251937S11704036EA0122201273000004000000
B0443563251932S11703967EA0123201282000000000000
B0444003251875S11703941EA0123801285000000000000
B0444043251823S11703981EA0123601279000000000000
B0444083251814S11704051EA0123501284000000000000
B0444123251838S11704112EA0124001291000000000000
B0444163251879S11704164EA0124601297000004000000
B0444203251929S11704206EA0125801306000004000000
B0444243251988S11704222EA0127101319000004000000
B0444283252018S11704170EA0128301331000000000000
B0444323251983S11704114EA0128801334000000000000
B0444363251924S11704108EA0129901348000004000000
B0444403251889S11704159EA0130801355000000000000
B0444443251906S11704223EA0130901351000000000000
B0444483251962S11704251EA0131001358000000000000
B0444523252026S11704250EA0130901350000004000000
B0444563252097S11704240EA0129001323000004000000
B0445003252178S11704219EA0126501303000000000000
B0445043252260S11704193EA0125101292000000000000
B0445083252342S11704166EA0124501287000000000000
B0445123252425S11704142EA0123701281000000000000
B0445163252507S11704121EA0123101275000000000000
B0445203252587S11704103EA0123001277000004000000
B0445243252667S11704086EA0122601266000004000000
B0445283252745S11704067EA0121901267000004000000
B0445323252819S11704053EA0122701274000004000000
B0445363252889S11704040EA0123001278000000000000
B0445403252956S11704027EA0123301279000000000000
B0445443253027S11704015EA0123201274000000000000
B0445483253092S11703990EA0123901291000004000000
B0445523253148S11703965EA0126501318000004000000
B0445563253183S11703919EA0128001328000004000000
B0446003253151S11703861EA0128601332000004000000
B0446043253085S11703873EA0128501330000004000000
B0446083253045S11703945EA0128501335000004000000
B0446123253058S11704023EA0129301347000004000000
B0446163253109S11704053EA0131001367000000000000
B0446203253146S11704015EA0132201366000000015000
B0446243253128S11703945EA0131601360000004015000
B0446283253063S11703917EA0131901372000000015000
B0446323252995S11703943EA0133201384000004015000
B0446363252958S11704011EA0134501396000004000000
B0446403252982S11704075EA0135101394000000000000
B0446443253041S11704090EA0134301387000004000000
B0446483253109S11704080EA0133001371000000000000
B0446523253181S11704062EA0131601355000000000000
B0446563253257S11704049EA0130701346000000000000
B0447003253335S11704038EA0129601335000000000000
B0447043253414S11704023EA0128701330000000000000
B0447083253489S11703995EA0128101326000000000000
B0447123253561S11703964EA0127901322000000000000
B0447163253631S11703937EA0128201330000000000000
B0447203253695S11703907EA0129301343000000000000
B0447243253757S11703876EA0130201351000000000000
B0447283253816S11703842EA0130701356000004000000
B0447323253873S11703804EA0131101360000004000000
B0447363253928S11703764EA0131901371000004000000
B0447403253973S11703713EA0132701376000004000000
B0447443254028S11703672EA0131901363000004000000
B0447483254100S11703663EA0131001358000004000000
B0447523254177S11703683EA0130701355000004000000
B0447563254253S11703724EA0130401353000004000000
B0448003254324S11703774EA0129901344000004000000
B0448043254393S11703833EA0129001336000004000000
B0448083254462S11703894EA0128601334000000000000
B0448123254529S11703954EA0128701336000000000000
B0448163254598S11704014EA0128801336000000000000
B0448203254667S11704075EA0128801338000004000000
B0448243254737S11704136EA0129101338000000000000
B0448283254809S11704197EA0128501329000000000000
B0448323254879S11704257EA0128601338000000000000
B0448363254948S11704313EA0129501346000000000000
B0448403255016S11704362EA0130301354000004000000
B0448443255081S11704410EA0129901344000000000000
B0448483255146S11704456EA0128701330000004000000
B0448523255212S11704505EA0127501320000004000000
B0448563255276S11704560EA0126701315000004000000
B0449003255337S11704615EA0126401308000004000000
B0449043255400S11704667EA0125501302000004000000
B0449083255465S11704714EA0125401301000004000000
B0449123255530S11704755EA0125101293000004000000
B0449163255595S11704795EA0124201286000004000000
B0449203255662S11704834EA0123601281000000000000
B0449243255727S11704873EA0123101279000000000000
B0449283255792S11704907EA0123201281000000000000
B0449323255858S11704940EA0123401282000000000000
B0449363255923S11704972EA0123701288000004000000
B0449403255985S11705004EA0124901302000004000000
B0449443256044S11705035EA0126301314000004000000
B0449483256101S11705021EA0127501325000004000000
B0449523256122S11704957EA0128101324000000000000
B0449563256087S11704894EA0127801320000000000000
B0450003256022S11704877EA0127701321000000000000
B0450043255970S11704924EA0127601322000004000000
B0450083255974S11704998EA0127601322000004000000
B0450123256018S11705048EA0127801325000004000000
B0450163256070S11705087EA0128001327000004000000
B0450203256127S11705116EA0127701316000000000000
B0450243256191S11705125EA0126801313000004000000
B0450283256255S11705125EA0127001317000004000000
B0450323256314S11705117EA0128001331000004000000
B0450363256373S11705104EA0128401329000000000000
B0450403256433S11705091EA0128101326000000000000
B0450443256496S11705082EA0128001326000000000000
B0450483256552S11705048EA0128601332000000000000
B0450523256580S11704981EA0128901333000004000000
B0450563256574S11704905EA0128801331000004000000
B0451003256526S11704856EA0128501328000004000000
B0451043256460S11704872EA0128001321000004000000
B0451083256407S11704937EA0126901309000000000000
B0451123256361S11705020EA0126301313000000000000
B0451163256320S11705102EA0126801314000000000000
B0451203256279S11705190EA0126301306000000000000
B0451243256238S11705280EA0125101291000004000000
B0451283256197S11705369EA0123901282000000000000
B0451323256156S11705457EA0123001272000004000000
B0451363256115S11705544EA0122301266000004000000
B0451403256074S11705627EA0122101264000000000000
B0451443256032S11705705EA0122301271000000000000
B0451483255992S11705782EA0122401264000000000000
B0451523255950S11705860EA0121401259000000000000
B0451563255910S11705936EA0121701264000000000000
B0452003255870S11706010EA0122201265000000000000
B0452043255831S11706087EA0122501272000004000000
B0452083255800S11706160EA0123501283000004000000
B0452123255771S11706234EA0123701281000004000000
B0452163255748S11706313EA0123401280000004000000
B0452203255723S11706396EA0124101289000004000000
B0452243255723S11706478EA0125001295000004000000
B0452283255767S11706533EA0125301292000004000000
B0452323255827S11706555EA0124601285000004000000
B0452363255887S11706577EA0123601279000004000000
B0452403255948S11706601EA0123601282000000000000
B0452443256006S11706627EA0124101284000000000000
B0452483256063S11706658EA0124801293000000000000
B0452523256119S11706685EA0125601300000000000000
B0452563256166S11706659EA0126401308000000000000
B0453003256157S11706586EA0126901313000000000000
B0453043256099S11706537EA0127801334000000000000
B0453083256044S11706573EA0130701359000000000000
B0453123256054S11706634EA0131701357000000000000
B0453163256101S11706638EA0131501357000000000000
B0453203256134S11706586EA0131601360000000015000
B0453243256112S11706517EA0132701377000000015000
B0453283256047S11706526EA0134401389000000015000
B0453323256031S11706599EA0135701406000000015000
B0453363256070S11706641EA0137301417000004015000
B0453403256115S11706627EA0138101425000000015000
B0453443256122S11706563EA0138601431000000015000
B0453483256070S11706515EA0138801438000000015000
B0453523256001S11706528EA0139601449000004015000
B0453563255965S11706591EA0141201465000004000000
B0454003255983S11706650EA0142501470000004000000
B0454043256028S11706649EA0143001476000004015000
B0454083256039S11706591EA0143401480000000015000
B0454123255995S11706538EA0144101491000004015000
B0454163255935S11706556EA0145601506000000015000
B0454203255926S11706620EA0146601513000000000000
B0454243255966S11706643EA0147301519000000015000
B0454283255995S11706602EA0147701524000000015000
B0454323255974S11706539EA0148201529000000015000
B0454363255911S11706511EA0148401530000004015000
B0454403255845S11706543EA0148801536000004000000
B0454443255818S11706615EA0149701543000004000000
B0454483255859S11706655EA0149901542000004000000
B0454523255911S11706640EA0149901543000004015000
B0454563255945S11706591EA0150401552000004015000
B0455003255932S11706528EA0151101555000004015000
B0455043255868S11706504EA0150601546000004015000
B0455083255800S11706551EA0149401537000004015000
B0455123255744S11706627EA0148801529000004000000
B0455163255683S11706710EA0147101510000004000000
B0455203255621S11706798EA0146501509000004000000
B0455243255562S11706889EA0145601499000000000000
B0455283255503S11706985EA0144401483000000000000
B0455323255450S11707082EA0143301475000004000000
B0455363255394S11707173EA0142801473000004000000
B0455403255337S11707257EA0142201463000004000000
B0455443255278S11707344EA0140801449000004000000
B0455483255220S11707434EA0139501439000004000000
B0455523255161S11707524EA0138901434000004000000
B0455563255104S11707608EA0138601430000004000000
B0456003255048S11707693EA0138201424000004000000
B0456043254995S11707777EA0137501415000004000000
B0456083254944S11707862EA0136301405000000000000
B0456123254895S11707946EA0135801400000000000000
B0456163254845S11708027EA0135601400000004000000
B0456203254799S11708102EA0136001407000004000000
B0456243254756S11708172EA0136501411000000000000
B0456283254715S11708244EA0136001402000004000000
B0456323254671S11708317EA0135501399000004000000
B0456363254624S11708389EA0135301397000004000000
B0456403254576S11708462EA0135601403000004000000
B0456443254531S11708536EA0135801401000004000000
B0456483254480S11708613EA0135401400000000000000
B0456523254423S11708684EA0135801402000000000000
B0456563254367S11708753EA0136601415000000000000
B0457003254315S11708821EA0137301419000000000000
B0457043254263S11708891EA0137601420000000000000
B0457083254229S11708972EA0138701435000000000000
B0457123254258S11709038EA0139801448000004000000
B0457163254312S11709022EA0141401468000000000000
B0457203254319S11708955EA0143101483000000000000
B0457243254264S11708917EA0144601499000000000000
B0457283254212S11708952EA0146001509000004000000
B0457323254206S11709021EA0146601512000004000000
B0457363254247S11709069EA0147001519000000000000
B0457403254297S11709051EA0148501538000004015000
B0457443254311S11708989EA0150101552000004015000
B0457483254273S11708938EA0151301565000000015000
B0457523254214S11708956EA0152001568000000015000
B0457563254197S11709028EA0152501576000000000000
B0458003254236S11709076EA0153401587000000000000
B0458043254286S11709055EA0155001605000000015000
B0458083254273S11708995EA0156701622000000015000
B0458123254217S11708980EA0157601625000004015000
B0458163254167S11709025EA0158001631000000000000
B0458203254167S11709097EA0158801641000004000000
B0458243254214S11709125EA0160401661000000000000
B0458283254243S11709087EA0162201673000000015000
B0458323254220S11709030EA0163001679000000015000
B0458363254158S11709015EA0163301682000000000000
B0458403254106S11709064EA0164001691000000000000
B0458443254116S11709134EA0165401710000000000000
B0458483254164S11709147EA0167201728000004015000
B0458523254188S11709099EA0168601738000004015000
B0458563254154S11709045EA0169501744000004015000
B0459003254089S11709050EA0170001750000004000000
B0459043254054S11709119EA0170501755000000000000
B0459083254077S11709188EA0171601772000000000000
B0459123254128S11709195EA0173301792000000015000
B0459163254151S11709146EA0174501795000000015000
B0459203254119S11709090EA0175101807000000015000
B0459243254058S11709084EA0176101815000000000000
B0459283254007S11709133EA0176501816000000000000
B0459323254002S11709207EA0177501829000000000000
B0459363254041S11709251EA0178701841000004000000
B0459403254085S11709234EA0179901851000004000000
B0459443254095S11709180EA0180301854000004015000
B0459483254058S11709134EA0180501860000004015000
B0459523253996S11709132EA0181201863000000000000
B0459563253938S11709177EA0180901857000000000000
B0500003253885S11709246EA0180301849000000000000
B0500043253822S11709320EA0179101836000000000000
B0500083253752S11709396EA0178001827000000000000
B0500123253681S11709470EA0177001815000000000000
B0500163253608S11709545EA0175401799000004000000
B0500203253535S11709622EA0174501791000004000000
B0500243253462S11709697EA0174101789000004000000
B0500283253388S11709766EA0174601798000004000000
B0500323253318S11709835EA0174601791000004000000
B0500363253249S11709904EA0174701801000000000000
B0500403253184S11709969EA0175301805000000000000
B0500443253119S11710033EA0175701808000000000000
B0500483253055S11710100EA0175601805000000000000
B0500523252989S11710172EA0175001799000004000000
B0500563252923S11710242EA0175101801000000000000
B0501003252856S11710308EA0175501806000004000000
B0501043252793S11710374EA0175801809000004000000
B0501083252732S11710439EA0176301818000004000000
B0501123252676S11710499EA0177301823000004000000
B0501163252618S11710556EA0177101817000004000000
B0501203252555S11710615EA0175701798000004000000
B0501243252485S11710677EA0174001783000004000000
B0501283252413S11710738EA0173501787000004000000
B0501323252347S11710793EA0174601800000004000000
B0501363252286S11710841EA0176001814000000000000
B0501403252225S11710885EA0176201809000000000000
B0501443252158S11710933EA0174501789000000000000
B0501483252085S11710991EA0173401777000000000000
B0501523252009S11711043EA0173201782000000000000
B0501563251939S11711091EA0173301780000000000000
B0502003251872S11711147EA0172501770000000000000
B0502043251810S11711208EA0171401758000000000000
B0502083251745S11711270EA0170101746000000000000
B0502123251680S11711333EA0170201751000000000000
B0502163251616S11711396EA0169601742000000000000
B0502203251550S11711463EA0169701746000000000000
B0502243251487S11711529EA0169801745000000000000
B0502283251424S11711595EA0168701728000000000000
B0502323251357S11711664EA0167701725000000000000
B0502363251291S11711732EA0167701726000000000000
B0502403251227S11711794EA0168701739000000000000
B0502443251166S11711855EA0169201742000000000000
B0502483251107S11711916EA0169201737000000000000
B0502523251042S11711984EA0168001725000004000000
B0502563250974S11712051EA0167201720000004000000
B0503003250908S11712119EA0166101706000004000000
B0503043250845S11712188EA0165401697000004000000
B0503083250780S11712256EA0164401689000004000000
B0503123250714S11712322EA0163701682000004000000
B0503163250654S11712392EA0163601686000000000000
B0503203250601S11712465EA0164301693000004000000
B0503243250554S11712540EA0165301707000004000000
B0503283250541S11712623EA0167101726000004000000
B0503323250587S11712662EA0169101742000004000000
B0503363250626S11712625EA0170001747000004000000
B0503403250610S11712558EA0169601739000004000000
B0503443250550S11712521EA0169801751000000000000
B0503483250486S11712506EA0171201765000000000000
B0503523250437S11712555EA0172601780000000000000
B0503563250441S11712623EA0174101792000000000000
B0504003250492S11712640EA0174801796000000000000
B0504043250524S11712587EA0174701794000000015000
B0504083250506S11712516EA0174901801000000015000
B0504123250447S11712480EA0175401802000000015000
B0504163250377S11712493EA0175601808000000000000
B0504203250327S11712557EA0176101810000000000000
B0504243250286S11712638EA0176701821000000000000
B0504283250246S11712712EA0178701841000000000000
B0504323250207S11712787EA0179201839000000000000
B0504363250163S11712872EA0178701831000004000000
B0504403250113S11712959EA0176901812000004000000
B0504443250063S11713049EA0176201807000004000000
B0504483250008S11713136EA0175301793000004000000
B0504523249951S11713219EA0174101779000004000000
B0504563249890S11713294EA0174101798000004000000
B0505003249833S11713363EA0176601823000000000000
B0505043249797S11713436EA0178901843000004000000
B0505083249822S11713496EA0180101848000000000000
B0505123249882S11713492EA0180701860000000000000
B0505163249921S11713441EA0182501880000000000000
B0505203249913S11713374EA0184301897000000000000
B0505243249862S11713324EA0185801911000000000000
B0505283249797S11713332EA0187001923000000000000
B0505323249766S11713392EA0188101928000000000000
B0505363249786S11713458EA0187801924000000000000
B0505403249843S11713479EA0187901930000004000000
B0505443249892S11713439EA0188901945000004015000
B0505483249904S11713370EA0190701964000000015000
B0505523249877S11713305EA0192101971000004015000
B0505563249812S11713277EA0192101969000004015000
B0506003249743S11713303EA0192101969000004000000
B0506043249687S11713357EA0192301972000004000000
B0506083249645S11713422EA0191801962000004000000
B0506123249599S11713497EA0189401934000004000000
B0506163249539S11713576EA0188201923000004000000
B0506203249467S11713644EA0188201923000004000000
B0506243249394S11713713EA0187601916000004000000
B0506283249322S11713786EA0185701891000004000000
B0506323249254S11713875EA0183401878000000000000
B0506363249193S11713973EA0182301865000000000000
B0506403249134S11714072EA0182301872000004000000
B0506443249080S11714168EA0183101882000000000000
B0506483249030S11714258EA0184101885000000000000
B0506523248981S11714345EA0183201876000000000000
B0506563248925S11714428EA0182101857000004000000
B0507003248860S11714508EA0180601847000004000000
B0507043248789S11714588EA0180501852000000000000
B0507083248713S11714667EA0181101856000000000000
B0507123248635S11714744EA0181101858000000000000
B0507163248556S11714819EA0181401859000000000000
B0507203248475S11714897EA0180401845000000000000
B0507243248395S11714979EA0179301835000004000000
B0507283248315S11715064EA0178401830000004000000
B0507323248237S11715143EA0178501831000004000000
B0507363248161S11715220EA0178301829000004000000
B0507403248083S11715295EA0177701818000000000000
B0507443248005S11715373EA0176801810000004000000
B0507483247927S11715454EA0176101808000000000000
B0507523247854S11715532EA0176001807000000000000
B0507563247781S11715611EA0175601801000000000000
B0508003247711S11715689EA0175501802000000000000
B0508043247645S11715769EA0175001792000000000000
B0508083247580S11715850EA0174601792000004000000
B0508123247522S11715929EA0174501790000000000000
B0508163247467S11716011EA0173301773000004000000
B0508203247407S11716096EA0172301768000004000000
B0508243247346S11716178EA0172501774000004000000
B0508283247285S11716257EA0173701786000004000000
B0508323247221S11716331EA0174701797000004000000
B0508363247157S11716400EA0175601808000000000000
B0508403247091S11716468EA0175501797000000000000
B0508443247017S11716539EA0174501786000000000000
B0508483246939S11716614EA0174201789000000000000
B0508523246861S11716690EA0174101781000000000000
B0508563246779S11716768EA0172701768000000000000
B0509003246698S11716847EA0171901762000000000000
B0509043246619S11716929EA0170901752000000000000
B0509083246538S11717010EA0169801740000000000000
B0509123246455S11717090EA0168901731000004000000
B0509163246375S11717168EA0168401727000004000000
B0509203246297S11717246EA0167901721000000000000
B0509243246219S11717322EA0167001710000004000000
B0509283246139S11717396EA0165701696000004000000
B0509323246061S11717472EA0164401687000004000000
B0509363245985S11717549EA0163901683000000000000
B0509403245910S11717623EA0163901685000000000000
B0509443245839S11717695EA0163301677000000000000
B0509483245769S11717765EA0162801672000004000000
B0509523245702S11717839EA0161801663000004000000
B0509563245644S11717920EA0161801666000004000000
B0510003245588S11718000EA0162101670000004000000
B0510043245535S11718080EA0163201686000000000000
B0510083245484S11718155EA0164401685000000000000
B0510123245426S11718233EA0162601660000000000000
B0510163245359S11718311EA0161001652000000000000
B0510203245288S11718384EA0161201658000004000000
B0510243245216S11718454EA0161501660000004000000
B0510283245146S11718527EA0161501662000004000000
B0510323245072S11718598EA0161501658000000000000
B0510363244999S11718670EA0161501660000000000000
B0510403244926S11718741EA0161301656000004000000
B0510443244851S11718809EA0160901654000004000000
B0510483244777S11718871EA0160901655000004000000
B0510523244707S11718927EA0160801653000004000000
B0510563244635S11718979EA0160201642000004000000
B0511003244562S11719031EA0158701627000004000000
B0511043244490S11719090EA0157401615000000000000
B0511083244418S11719152EA0156501611000000000000
B0511123244349S11719217EA0156201608000004000000
B0511163244283S11719282EA0155901602000000000000
B0511203244217S11719346EA0155301596000004000000
B0511243244152S11719408EA0154501588000004000000
B0511283244089S11719474EA0153701577000000000000
B0511323244025S11719542EA0152201562000004000000
B0511363243958S11719610EA0151601562000004000000
B0511403243888S11719672EA0151601561000000000000
B0511443243820S11719732EA0151601561000000000000
B0511483243754S11719793EA0151201557000000000000
B0511523243690S11719858EA0150701549000004000000
B0511563243624S11719924EA0149801541000004000000
B0512003243559S11719991EA0149001534000004000000
B0512043243492S11720054EA0148401528000004000000
B0512083243429S11720117EA0148301529000004000000
B0512123243368S11720180EA0147901521000004000000
B0512163243305S11720239EA0146901510000004000000
B0512203243238S11720299EA0146101501000000000000
B0512243243171S11720364EA0144901490000000000000
B0512283243112S11720436EA0143801477000000000000
B0512323243049S11720511EA0142801474000000000000
B0512363242988S11720579EA0143001475000000000000
B0512403242926S11720651EA0141901458000004000000
B0512443242865S11720730EA0140601452000000000000
B0512483242806S11720807EA0140401448000000000000
B0512523242748S11720886EA0139701439000004000000
B0512563242684S11720960EA0140401457000004000000
B0513003242623S11721028EA0142101471000004000000
B0513043242563S11721094EA0143601488000000000000
B0513083242493S11721145EA0145001497000000000000
B0513123242420S11721184EA0146601517000000000000
B0513163242421S11721253EA0148801537000004000000
B0513203242478S11721271EA0149301535000000000000
B0513243242523S11721216EA0149301541000004000000
B0513283242529S11721138EA0150801560000000000000
B0513323242472S11721094EA0152701576000000000000
B0513363242413S11721125EA0153801587000000000000
B0513403242412S11721192EA0155301602000004000000
B0513443242458S11721220EA0156101607000000000000
B0513483242507S11721190EA0157001620000004015000
B0513523242521S11721127EA0158501642000004015000
B0513563242498S11721066EA0159701647000000015000
B0514003242441S11721027EA0159901647000000000000
B0514043242372S11721036EA0160201648000000000000
B0514083242329S11721099EA0160601658000004000000
B0514123242319S11721180EA0161501663000000000000
B0514163242359S11721236EA0162401672000000000000
B0514203242419S11721220EA0162901675000000000000
B0514243242463S11721162EA0163101674000004015000
B0514283242478S11721086EA0164801698000004015000
B0514323242434S11721031EA0165601700000004015000
B0514363242363S11721041EA0165301686000004015000
B0514403242302S11721105EA0163501678000004015000
B0514443242251S11721181EA0163301680000004000000
B0514483242202S11721262EA0163201678000004000000
B0514523242147S11721341EA0164401693000004000000
B0514563242087S11721419EA0164301679000000000000
B0515003242025S11721502EA0162901672000000000000
B0515043241962S11721584EA0162001661000000000000
B0515083241901S11721671EA0160401645000004000000
B0515123241839S11721761EA0159501639000004000000
B0515163241783S11721851EA0159801648000000000000
B0515203241734S11721937EA0159801642000000000000
B0515243241679S11722025EA0158601621000000000000
B0515283241623S11722117EA0157101615000000000000
B0515323241567S11722208EA0157001617000004000000
B0515363241515S11722295EA0157501622000000000000
B0515403241466S11722380EA0157601622000000000000
B0515443241415S11722462EA0157701622000004000000
B0515483241357S11722537EA0157501621000004000000
B0515523241289S11722604EA0158001627000000000000
B0515563241216S11722659EA0159001643000000000000
B0516003241146S11722709EA0160301654000000000000
B0516043241078S11722763EA0160801651000000000000
B0516083241017S11722822EA0159701639000000000000
B0516123240948S11722878EA0158101624000004000000
B0516163240873S11722919EA0157201616000000000000
B0516203240796S11722948EA0156801614000004000000
B0516243240718S11722970EA0156701612000004000000
B0516283240643S11722987EA0158101631000004000000
B0516323240579S11723018EA0160801656000004000000
B0516363240573S11723078EA0162401669000000000000
B0516403240619S11723085EA0162501668000000000000
B0516443240642S11723021EA0162701673000004000000
B0516483240606S11722953EA0163301683000004000000
B0516523240539S11722966EA0165101705000000000000
B0516563240531S11723033EA0167201719000000000000
B0517003240583S11723046EA0167901723000000000000
B0517043240614S11722988EA0168401733000000000000
B0517083240590S11722918EA0169401746000000000000
B0517123240527S11722893EA0170901761000000000000
B0517163240467S11722927EA0172001768000000000000
B0517203240449S11722999EA0172901781000000000000
B0517243240484S11723046EA0175001802000000000000
B0517283240535S11723031EA0175901804000000015000
B0517323240556S11722962EA0175901805000000015000
B0517363240528S11722888EA0176301816000000015000
B0517403240462S11722849EA0177201823000000015000
B0517443240388S11722867EA0177701825000004000000
B0517483240336S11722938EA0178501836000004000000
B0517523240336S11723018EA0180301858000004000000
B0517563240383S11723047EA0182301874000004000000
B0518003240418S11723000EA0183101879000004000000
B0518043240411S11722922EA0183101879000004000000
B0518083240358S11722866EA0184001892000004000000
B0518123240291S11722878EA0185101904000000000000
B0518163240259S11722947EA0186301915000000000000
B0518203240289S11723004EA0187601926000004000000
B0518243240339S11722988EA0188501933000004015000
B0518283240350S11722916EA0189201941000000015000
B0518323240310S11722853EA0190001950000000015000
B0518363240242S11722844EA0191101961000000000000
B0518403240194S11722896EA0192001971000000000000
B0518443240188S11722974EA0191901963000000000000
B0518483240167S11723069EA0190301950000000000000
B0518523240129S11723172EA0189401941000004000000
B0518563240083S11723274EA0188601931000004000000
B0519003240024S11723376EA0187601917000000000000
B0519043239955S11723476EA0185901901000000000000
B0519083239884S11723575EA0185201897000004000000
B0519123239813S11723670EA0185201897000004000000
B0519163239745S11723763EA0184501890000004000000
B0519203239676S11723854EA0184501892000004000000
B0519243239608S11723943EA0184401889000004000000
B0519283239539S11724031EA0182901873000004000000
B0519323239472S11724121EA0182101862000000000000
B0519363239403S11724212EA0181401856000004000000
B0519403239334S11724299EA0180801850000000000000
B0519443239264S11724387EA0179701838000004000000
B0519483239195S11724474EA0179201836000004000000
B0519523239124S11724556EA0179701844000004000000
B0519563239058S11724634EA0181001858000004000000
B0520003238991S11724710EA0180701849000000000000
B0520043238916S11724789EA0179601836000004000000
B0520083238844S11724873EA0179001832000004000000
B0520123238772S11724960EA0178901829000000000000
B0520163238699S11725049EA0179901839000000000000
B0520203238629S11725137EA0179801831000000000000
B0520243238559S11725232EA0178901826000000000000
B0520283238489S11725326EA0179601837000004000000
B0520323238421S11725415EA0181201857000004000000
B0520363238356S11725500EA0182401863000004000000
B0520403238292S11725586EA0181801855000000000000
B0520443238227S11725673EA0180901846000000000000
B0520483238162S11725761EA0180301839000000000000
B0520523238099S11725851EA0179601832000000000000
B0520563238038S11725941EA0179001829000000000000
B0521003237978S11726029EA0178801825000004000000
B0521043237919S11726116EA0178501824000000000000
B0521083237862S11726201EA0178201819000004000000
B0521123237801S11726284EA0178001821000004000000
B0521163237739S11726366EA0177401811000004000000
B0521203237674S11726448EA0176901810000004000000
B0521243237603S11726526EA0177001808000004000000
B0521283237536S11726604EA0177601823000004000000
B0521323237473S11726682EA0179101832000004000000
B0521363237410S11726761EA0177701810000004000000
B0521403237345S11726839EA0176901806000004000000
B0521443237281S11726916EA0176701807000004000000
B0521483237219S11726995EA0176601805000004000000
B0521523237158S11727078EA0177101816000000000000
B0521563237098S11727161EA0177701815000000000000
B0522003237035S11727247EA0176201794000004000000
B0522043236968S11727337EA0174601781000004000000
B0522083236898S11727424EA0173601770000004000000
B0522123236826S11727507EA0172201758000004000000
B0522163236755S11727589EA0171401750000000000000
B0522203236684S11727671EA0170901748000000000000
B0522243236619S11727755EA0170501743000000000000
B0522283236565S11727845EA0170001736000000000000
B0522323236514S11727937EA0169001729000000000000
B0522363236457S11728026EA0168901732000000000000
B0522403236396S11728106EA0170301752000000000000
B0522443236350S11728188EA0172501772000000000000
B0522483236370S11728261EA0174901802000000000000
B0522523236423S11728266EA0176601811000000000000
B0522563236439S11728203EA0177601826000000000000
B0523003236393S11728149EA0178901837000000000000
B0523043236324S11728153EA0179801844000000000000
B0523083236285S11728213EA0180401847000000000000
B0523123236261S11728288EA0180001839000000000000
B0523163236222S11728366EA0178801826000000000000
B0523203236167S11728448EA0178401824000000000000
B0523243236108S11728526EA0179201835000000000000
B0523283236049S11728608EA0179601841000000000000
B0523323235988S11728690EA0180201836000000000000
B0523363235919S11728773EA0179501827000000000000
B0523403235843S11728860EA0178401817000000000000
B0523443235764S11728946EA0177701814000000000000
B0523483235686S11729032EA0177301807000000000000
B0523523235604S11729117EA0176201797000000000000
B0523563235521S11729196EA0175101788000000000000
B0524003235434S11729275EA0174401779000000000000
B0524043235348S11729356EA0173501767000000000000
B0524083235263S11729436EA0173201771000000000000
B0524123235183S11729513EA0173301771000000000000
B0524163235104S11729587EA0173001766000000000000
B0524203235023S11729660EA0172001757000004000000
B0524243234945S11729735EA0171501751000004000000
B0524283234867S11729813EA0170701744000004000000
B0524323234792S11729893EA0169901738000004000000
B0524363234717S11729972EA0169501731000004000000
B0524403234641S11730049EA0168701725000000000000
B0524443234565S11730124EA0168101719000000000000
B0524483234490S11730202EA0167101707000000000000
B0524523234413S11730283EA0166201699000000000000
B0524563234337S11730367EA0165001688000000000000
B0525003234260S11730452EA0164601687000000000000
B0525043234186S11730532EA0164401685000000000000
B0525083234112S11730614EA0163901677000000000000
B0525123234039S11730695EA0164001686000000000000
B0525163233970S11730773EA0165101699000000000000
B0525203233905S11730848EA0166601716000000000000
B0525243233843S11730918EA0167701722000000000000
B0525283233781S11730991EA0167001712000000000000
B0525323233716S11731067EA0166201702000000000000
B0525363233651S11731145EA0165101690000000000000
B0525403233585S11731226EA0163701676000000000000
B0525443233520S11731307EA0163201671000000000000
B0525483233456S11731386EA0162901671000004000000
B0525523233394S11731463EA0162601664000000000000
B0525563233332S11731541EA0160901643000004000000
B0526003233267S11731622EA0159101629000004000000
B0526043233207S11731704EA0159501637000000000000
B0526083233154S11731784EA0159701639000000000000
B0526123233107S11731862EA0160401647000000000000
B0526163233059S11731941EA0160601650000000000000
B0526203233011S11732025EA0161301663000000000000
B0526243232964S11732107EA0163201688000000000000
B0526283232918S11732181EA0166201720000000000000
B0526323232891S11732256EA0169401747000000000000
B0526363232918S11732313EA0171401759000000000000
B0526403232968S11732299EA0171801757000000000000
B0526443232983S11732234EA0171101750000000000000
B0526483232943S11732164EA0171101760000000000000
B0526523232883S11732105EA0172801780000000000000
B0526563232813S11732101EA0175001798000000000000
B0527003232784S11732170EA0175101794000000000000
B0527043232825S11732235EA0175501804000000000000
B0527083232884S11732252EA0177701831000000000000
B0527123232907S11732191EA0180301855000000000000
B0527163232856S11732144EA0181701860000000000000
B0527203232792S11732170EA0182201866000000000000
B0527243232779S11732247EA0182801876000000000000
B0527283232823S11732296EA0183901889000004000000
B0527323232878S11732269EA0185701911000004000000
B0527363232882S11732199EA0187701930000000000000
B0527403232827S11732153EA0189101937000000000000
B0527443232762S11732182EA0189501938000000000000
B0527483232723S11732255EA0188801923000000000000
B0527523232675S11732343EA0185901887000000000000
B0527563232615S11732445EA0183801871000000000000
B0528003232549S11732549EA0182701859000000000000
B0528043232476S11732649EA0181401845000000000000
B0528083232400S11732749EA0180201835000000000000
B0528123232320S11732850EA0179301826000000000000
B0528163232242S11732953EA0178301817000000000000
B0528203232167S11733053EA0178401821000000000000
B0528243232093S11733149EA0177901816000000000000
B0528283232021S11733247EA0177101806000000000000
B0528323231950S11733342EA0176301802000000000000
B0528363231878S11733434EA0175201787000000000000
B0528403231809S11733525EA0174801781000000000000
B0528443231751S11733618EA0174301783000004000000
B0528483231695S11733709EA0174601790000004000000
B0528523231639S11733797EA0174701786000004000000
B0528563231584S11733888EA0173901780000000000000
B0529003231530S11733975EA0174801796000000000000
B0529043231473S11734050EA0176401814000004000000
B0529083231415S11734114EA0178001828000004000000
B0529123231358S11734177EA0178801835000004000000
B0529163231302S11734244EA0179001837000000000000
B0529203231244S11734310EA0178501829000000000000
B0529243231180S11734383EA0178101823000000000000
B0529283231116S11734460EA0178001823000000000000
B0529323231050S11734540EA0177501814000000000000
B0529363230983S11734626EA0177401817000000000000
B0529403230914S11734710EA0177501819000000000000
B0529443230846S11734799EA0176601802000004000000
B0529483230777S11734891EA0175101788000000000000
B0529523230706S11734986EA0173601773000000000000
B0529563230634S11735080EA0172501764000000000000
B0530003230564S11735172EA0171701752000000000000
B0530043230491S11735264EA0170301737000004000000
B0530083230417S11735358EA0169401733000000000000
B0530123230343S11735449EA0169201732000000000000
B0530163230270S11735537EA0168801727000000000000
B0530203230197S11735626EA0168201722000000000000
B0530243230125S11735710EA0167601714000000000000
B0530283230053S11735797EA0166501702000000000000
B0530323229982S11735882EA0165601693000000000000
B0530363229913S11735968EA0164101674000000000000
B0530403229841S11736055EA0162101655000000000000
B0530443229768S11736144EA0160601640000000000000
B0530483229697S11736235EA0159601631000000000000
B0530523229624S11736328EA0158301618000000000000
B0530563229553S11736421EA0157201608000000000000
B0531003229480S11736515EA0155801594000000000000
B0531043229403S11736605EA0155201585000000000000
B0531083229328S11736693EA0154601584000000000000
B0531123229256S11736779EA0154501585000004000000
B0531163229190S11736865EA0154401580000004000000
B0531203229125S11736952EA0153401570000004000000
B0531243229057S11737036EA0152701562000004000000
B0531283228990S11737119EA0151701553000004000000
B0531323228919S11737204EA0150601541000004000000
B0531363228848S11737288EA0149801536000004000000
B0531403228776S11737373EA0148701520000004000000
B0531443228704S11737457EA0147101503000000000000
B0531483228632S11737541EA0145701493000000000000
B0531523228559S11737621EA0144701483000000000000
B0531563228489S11737699EA0143901479000000000000
B0532003228420S11737771EA0144401490000000000000
B0532043228358S11737838EA0145201496000000000000
B0532083228298S11737908EA0145501499000000000000
B0532123228240S11737980EA0146001509000004000000
B0532163228188S11738048EA0147801529000000000000
B0532203228146S11738118EA0149301544000000000000
B0532243228150S11738191EA0150801558000004000000
B0532283228195S11738189EA0152201569000004000000
B0532323228210S11738135EA0152701573000004000000
B0532363228173S11738079EA0152801575000004000000
B0532403228107S11738058EA0153401583000004000000
B0532443228042S11738083EA0154701596000004015000
B0532483228026S11738152EA0155601599000004015000
B0532523228067S11738192EA0155901604000000015000
B0532563228106S11738157EA0156801614000000015000
B0533003228095S11738088EA0157401618000000015000
B0533043228030S11738053EA0157701624000000015000
B0533083227965S11738092EA0158601637000000015000
B0533123227939S11738163EA0159601640000000015000
B0533163227951S11738237EA0159401634000000015000
B0533203227985S11738304EA0158901631000004000000
B0533243228030S11738363EA0158801631000004000000
B0533283228080S11738423EA0158701628000000000000
B0533323228138S11738479EA0159201637000000000000
B0533363228201S11738527EA0160101642000000000000
B0533403228271S11738556EA0160401645000000000000
B0533443228344S11738564EA0160101640000000000000
B0533483228409S11738604EA0159301628000000000000
B0533523228432S11738695EA0157701608000000000000
B0533563228401S11738802EA0156201597000000000000
B0534003228345S11738895EA0156701616000000000000
B0534043228292S11738981EA0158301622000000000000
B0534083228254S11739078EA0157801615000000000000
B0534123228204S11739176EA0157101608000000000000
B0534163228142S11739270EA0156501601000000000000
B0534203228071S11739355EA0155601589000000000000
B0534243227993S11739433EA0154901586000000000000
B0534283227918S11739511EA0154801585000000000000
B0534323227847S11739587EA0154501582000000000000
B0534363227778S11739663EA0153801574000004000000
B0534403227712S11739741EA0153501570000004000000
B0534443227645S11739818EA0152501560000004000000
B0534483227578S11739896EA0151601552000000000000
B0534523227512S11739974EA0151301551000004000000
B0534563227447S11740053EA0151201552000000000000
B0535003227385S11740131EA0151601555000000000000
B0535043227323S11740208EA0151401553000004000000
B0535083227263S11740282EA0151901564000000000000
B0535123227206S11740350EA0153201574000000000000
B0535163227149S11740423EA0152501558000000000000
B0535203227088S11740495EA0151101546000000000000
B0535243227020S11740563EA0150301541000000000000
B0535283226954S11740627EA0150601547000004000000
B0535323226888S11740690EA0150801549000000000000
B0535363226823S11740754EA0151201555000004000000
B0535403226759S11740823EA0151501552000004000000
B0535443226693S11740896EA0151301551000004000000
B0535483226628S11740970EA0150401538000004000000
B0535523226561S11741048EA0149801537000004000000
B0535563226498S11741125EA0149901538000004000000
B0536003226436S11741203EA0149501530000004000000
B0536043226369S11741279EA0148201514000004000000
B0536083226299S11741355EA0147701515000004000000
B0536123226231S11741428EA0148301524000004000000
B0536163226166S11741502EA0147901508000004000000
B0536203226098S11741577EA0145901492000004000000
B0536243226030S11741651EA0145901499000004000000
B0536283225959S11741720EA0146001497000004000000
B0536323225892S11741789EA0145601493000000000000
B0536363225822S11741855EA0144801484000000000000
B0536403225747S11741922EA0143801473000000000000
B0536443225677S11741992EA0143301470000000000000
B0536483225610S11742063EA0142901467000004000000
B0536523225547S11742139EA0142701463000004000000
B0536563225485S11742211EA0142301455000004000000
B0537003225420S11742275EA0142001458000004000000
B0537043225355S11742336EA0141401449000004000000
B0537083225290S11742400EA0140101434000000000000
B0537123225226S11742469EA0138801422000000000000
B0537163225162S11742540EA0138901426000000000000
B0537203225097S11742608EA0139401435000000000000
B0537243225035S11742669EA0140001438000000000000
B0537283224973S11742729EA0139501428000000000000
B0537323224908S11742790EA0138801425000000000000
B0537363224844S11742852EA0139201435000004000000
B0537403224782S11742910EA0139801434000004000000
B0537443224720S11742968EA0139001423000004000000
B0537483224655S11743030EA0137901410000004000000
B0537523224585S11743092EA0136501397000004000000
B0537563224515S11743157EA0135701395000000000000
B0538003224445S11743220EA0136301405000004000000
B0538043224375S11743275EA0137301412000000000000
B0538083224311S11743336EA0137101408000000000000
B0538123224242S11743397EA0136701403000000000000
B0538163224172S11743456EA0136601410000000000000
B0538203224106S11743509EA0138001425000000000000
B0538243224050S11743565EA0138901426000000000000
B0538283223995S11743628EA0138101417000004000000
B0538323223929S11743682EA0138501428000004000000
B0538363223872S11743739EA0139701432000004000000
B0538403223865S11743823EA0138901424000004000000
B0538443223909S11743879EA0139301436000004000000
B0538483223955S11743844EA0140801453000000000000
B0538523223935S11743778EA0141901462000004000000
B0538563223872S11743778EA0142401471000004000000
B0539003223842S11743840EA0142901470000004015000
B0539043223873S11743900EA0142701472000004015000
B0539083223930S11743898EA0143401481000004015000
B0539123223955S11743831EA0144301493000004000000
B0539163223914S11743768EA0146101510000004015000
B0539203223849S11743779EA0147001515000004015000
B0539243223835S11743849EA0147601523000004015000
B0539283223882S11743883EA0148501530000000015000
B0539323223922S11743836EA0149101537000000015000
B0539363223890S11743766EA0150201552000000015000
B0539403223822S11743770EA0151501561000004015000
B0539443223794S11743834EA0152601569000004015000
B0539483223825S11743888EA0152601566000004015000
B0539523223886S11743892EA0152501570000004015000
B0539563223925S11743834EA0153601584000000015000
B0540003223901S11743760EA0154501588000000015000
B0540043223829S11743731EA0154301582000004015000
B0540083223756S11743769EA0154701593000000015000
B0540123223723S11743838EA0156101612000000015000
B0540163223743S11743896EA0157301613000000015000
B0540203223800S11743900EA0156901610000004015000
B0540243223829S11743834EA0157001613000000015000
B0540283223794S11743762EA0157901626000000015000
B0540323223725S11743739EA0158701627000000015000
B0540363223658S11743777EA0158501627000000015000
B0540403223608S11743838EA0157801615000004015000
B0540443223560S11743911EA0156601603000004000000
B0540483223506S11743991EA0155101589000004000000
B0540523223452S11744074EA0154901591000004000000
B0540563223394S11744155EA0155701598000000000000
B0541003223350S11744239EA0156601617000000000000
B0541043223324S11744329EA0158401635000000000000
B0541083223327S11744411EA0160301653000000000000
B0541123223378S11744421EA0161501652000000000000
B0541163223389S11744354EA0160201641000000000000
B0541203223336S11744302EA0160801663000000015000
B0541243223267S11744325EA0163301683000004015000
B0541283223236S11744402EA0163901678000004015000
B0541323223275S11744464EA0163801684000004015000
B0541363223329S11744458EA0164401688000000015000
B0541403223354S11744401EA0164401690000000015000
B0541443223335S11744336EA0165501704000000015000
B0541483223289S11744288EA0167101722000004015000
B0541523223235S11744323EA0169501737000000015000
B0541563223244S11744401EA0170101743000000015000
B0542003223296S11744434EA0170601746000004015000
B0542043223339S11744397EA0170601746000004015000
B0542083223319S11744340EA0171801764000000015000
B0542123223258S11744327EA0173301780000000015000
B0542163223207S11744381EA0175101799000004015000
B0542203223222S11744453EA0176701810000000015000
B0542243223272S11744466EA0176701805000004015000
B0542283223296S11744408EA0175701798000000015000
B0542323223258S11744356EA0176501814000004015000
B0542363223190S11744366EA0177901831000004015000
B0542403223149S11744433EA0179401845000004015000
B0542443223167S11744510EA0180601850000004015000
B0542483223224S11744540EA0180601845000004015000
B0542523223275S11744501EA0180001838000004015000
B0542563223266S11744432EA0179701841000000015000
B0543003223212S11744384EA0180501853000004015000
B0543043223146S11744366EA0182401873000004015000
B0543083223106S11744423EA0184001886000000015000
B0543123223150S11744477EA0184501890000004015000
B0543163223205S11744450EA0185501902000004015000
B0543203223199S11744382EA0187101921000004015000
B0543243223140S11744358EA0188501938000000015000
B0543283223090S11744407EA0189801946000000015000
B0543323223107S11744477EA0190801955000004015000
B0543363223166S11744486EA0191301959000004015000
B0543403223214S11744441EA0191801966000000015000
B0543443223212S11744369EA0193001981000000015000
B0543483223149S11744351EA0193901982000000015000
B0543523223095S11744419EA0193001974000000015000
B0543563223063S11744511EA0193401984000000015000
B0544003223036S11744602EA0193801985000004000000
B0544043223003S11744693EA0193101966000004000000
B0544083222963S11744784EA0191101946000000000000
B0544123222921S11744879EA0189101931000000000000
B0544163222877S11744975EA0188201921000004000000
B0544203222832S11745074EA0187601917000004000000
B0544243222782S11745172EA0186201899000000000000
B0544283222730S11745269EA0184701888000004000000
B0544323222673S11745363EA0183601875000004000000
B0544363222613S11745455EA0182301863000004000000
B0544403222551S11745546EA0181401857000004000000
B0544443222484S11745633EA0180901848000004000000
B0544483222416S11745720EA0179701837000004000000
B0544523222345S11745807EA0179001833000004000000
B0544563222274S11745892EA0178501829000004000000
B0545003222204S11745974EA0177901822000004000000
B0545043222135S11746056EA0177101815000000000000
B0545083222066S11746134EA0176501810000000000000
B0545123221997S11746210EA0176201807000000000000
B0545163221927S11746287EA0175801802000000000000
B0545203221857S11746368EA0175301791000000000000
B0545243221781S11746447EA0173701776000000000000
B0545283221706S11746522EA0172701767000000000000
B0545323221629S11746591EA0172301767000000000000
B0545363221552S11746657EA0172301764000004000000
B0545403221478S11746722EA0171701759000004000000
B0545443221405S11746790EA0171001754000004000000
B0545483221334S11746855EA0170701751000004000000
B0545523221262S11746919EA0170501748000004000000
B0545563221192S11746982EA0170101743000004000000
B0546003221122S11747044EA0169801742000004000000
B0546043221056S11747103EA0169701741000004000000
B0546083220991S11747164EA0169501738000004000000
B0546123220924S11747224EA0169101734000004000000
B0546163220857S11747285EA0168901734000004000000
B0546203220791S11747344EA0168201724000000000000
B0546243220727S11747404EA0167501716000000000000
B0546283220662S11747462EA0166701707000000000000
B0546323220597S11747521EA0165901702000004000000
B0546363220532S11747579EA0165501699000000000000
B0546403220467S11747636EA0165201694000000000000
B0546443220402S11747694EA0164001679000000000000
B0546483220333S11747756EA0162101662000004000000
B0546523220265S11747817EA0160901650000000000000
B0546563220196S11747879EA0160101640000000000000
B0547003220131S11747946EA0158901628000000000000
B0547043220065S11748013EA0158001621000004000000
B0547083219999S11748081EA0157401616000004000000
B0547123219933S11748149EA0156801611000000000000
B0547163219868S11748215EA0156301606000000000000
B0547203219803S11748281EA0155801599000000000000
B0547243219732S11748347EA0155001591000004000000
B0547283219662S11748415EA0154901592000000000000
B0547323219592S11748479EA0155101601000000000000
B0547363219528S11748536EA0156101607000004000000
B0547403219462S11748592EA0156401612000000000000
B0547443219393S11748636EA0158001634000004000000
B0547483219324S11748659EA0159301637000000000000
B0547523219254S11748683EA0159501641000000000000
B0547563219190S11748721EA0159501639000000000000
B0548003219133S11748773EA0159201636000000000000
B0548043219076S11748830EA0159101635000000000000
B0548083219012S11748883EA0159001636000004000000
B0548123218946S11748940EA0158901630000004000000
B0548163218882S11749003EA0158401628000000000000
B0548203218820S11749070EA0157401611000000000000
B0548243218756S11749142EA0155501589000000000000
B0548283218690S11749216EA0154001580000004000000
B0548323218623S11749291EA0153001567000004000000
B0548363218556S11749364EA0151301548000004000000
B0548403218486S11749432EA0149801534000004000000
B0548443218414S11749499EA0148201515000004000000
B0548483218345S11749571EA0146001493000000000000
B0548523218274S11749645EA0144201480000000000000
B0548563218206S11749720EA0143201472000000000000
B0549003218139S11749794EA0142301462000000000000
B0549043218070S11749870EA0141401451000000000000
B0549083218001S11749943EA0140401441000000000000
B0549123217932S11750017EA0139301430000000000000
B0549163217867S11750092EA0138401421000000000000
B0549203217804S11750169EA0137701418000000000000
B0549243217745S11750245EA0137201413000004000000
B0549283217685S11750320EA0137001411000004000000
B0549323217625S11750392EA0136601406000004000000
B0549363217567S11750463EA0136401406000000000000
B0549403217508S11750529EA0136101401000004000000
B0549443217451S11750596EA0135301390000004000000
B0549483217391S11750667EA0133901374000000000000
B0549523217331S11750741EA0132501364000000000000
B0549563217275S11750815EA0131701355000000000000
B0550003217221S11750890EA0131201355000000000000
B0550043217167S11750966EA0130801344000000000000
B0550083217110S11751040EA0128701318000000000000
B0550123217048S11751118EA0126401298000000000000
B0550163216989S11751198EA0125301290000000000000
B0550203216935S11751278EA0124601282000000000000
B0550243216884S11751358EA0123301270000000000000
B0550283216832S11751439EA0122201259000000000000
B0550323216780S11751518EA0121501254000000000000
B0550363216731S11751596EA0121401252000000000000
B0550403216685S11751674EA0120701243000000000000
B0550443216645S11751756EA0119401230000000000000
B0550483216603S11751839EA0118301220000004000000
B0550523216553S11751915EA0117701217000004000000
B0550563216498S11751985EA0117301209000000000000
B0551003216441S11752052EA0117101210000004000000
B0551043216395S11752130EA0117401221000004000000
B0551083216367S11752208EA0120001250000000000000
B0551123216398S11752254EA0122201265000000000000
B0551163216438S11752221EA0123401275000004015000
B0551203216426S11752162EA0124601289000000015000
B0551243216373S11752133EA0126101303000000015000
B0551283216312S11752162EA0126901310000000015000
B0551323216287S11752231EA0128201327000000015000
B0551363216320S11752279EA0129801341000000030000
B0551403216368S11752260EA0130601348000000030000
B0551443216371S11752198EA0131801363000000030000
B0551483216316S11752167EA0132801375000000030000
B0551523216252S11752205EA0133601379000000015000
B0551563216233S11752281EA0134601396000000015000
B0552003216259S11752341EA0136601415000004030000
B0552043216309S11752349EA0138001420000000030000
B0552083216339S11752296EA0138801436000000030000
B0552123216312S11752238EA0140401453000000030000
B0552163216247S11752240EA0141501460000004015000
B0552203216209S11752301EA0142101469000000015000
B0552243216220S11752374EA0143501482000000030000
B0552283216268S11752401EA0144801492000004030000
B0552323216316S11752371EA0145601503000000030000
B0552363216311S11752312EA0146901526000000030000
B0552403216252S11752301EA0148601535000004030000
B0552443216215S11752359EA0149201542000004030000
B0552483216246S11752414EA0149601547000000030000
B0552523216299S11752393EA0150101553000000045000
B0552563216295S11752327EA0151401572000000030000
B0553003216238S11752301EA0153101584000000030000
B0553043216183S11752350EA0154201595000004030000
B0553083216179S11752427EA0155201600000000030000
B0553123216230S11752466EA0155601605000000030000
B0553163216282S11752442EA0156701622000000030000
B0553203216283S11752380EA0158401638000000030000
B0553243216226S11752355EA0159401644000000030000
B0553283216178S11752415EA0159801650000004030000
B0553323216207S11752481EA0160501660000000030000
B0553363216260S11752471EA0161701674000000030000
B0553403216274S11752410EA0162901684000000030000
B0553443216238S11752349EA0163301681000000030000
B0553483216166S11752337EA0163601693000000030000
B0553523216113S11752390EA0165101707000000015000
B0553563216120S11752466EA0166301715000000015000
B0554003216173S11752491EA0167101723000004030000
B0554043216212S11752448EA0168101736000004030000
B0554083216211S11752380EA0168701739000000030000
B0554123216163S11752325EA0168901739000000015000
B0554163216092S11752325EA0169301746000000015000
B0554203216043S11752389EA0170001748000000015000
B0554243216000S11752471EA0169601746000004015000
B0554283215979S11752563EA0171001767000004015000
B0554323216027S11752608EA0173701793000004015000
B0554363216070S11752562EA0174701798000004015000
B0554403216060S11752489EA0175601806000000015000
B0554443215999S11752450EA0176201815000000030000
B0554483215925S11752474EA0177301826000000015000
B0554523215887S11752546EA0179401851000004015000
B0554563215901S11752619EA0180501854000004030000
B0555003215957S11752649EA0180501858000004030000
B0555043216007S11752615EA0181301870000004030000
B0555083216021S11752548EA0182601878000004030000
B0555123215984S11752487EA0183401888000000030000
