ACAM4N6
HFDTE170923
HFFXA050
HFPLTPILOT:JOHN WELSH              
HFGTYGLIDERTYPE:HORNET      
HFGIDGLIDERID:VH-GMY      
HFDTM100GPSDATUM:
HFRFWFIRMWAREVERSION:F2.6
HFRHWHARDWAREVERSION:300 Series Version 2
HFFTYFRTYPE:CAMBRIDGE AERO INSTRUMENTS, 302+
HFGPS:GARMIN,LVS-25,12,18000
HFPRSPRESSALTSENSOR:INTERSEMA, MS5534-AP, 20000
I033638FXA3941ENL4247REX
LCAMSBVER:5FWVER:F26300
C120323035839120323000102
C0000000N00000000WTAKEOFF     
C3207549S11656849EBEVERLEY AF 
C3152966S11809465EBruce Rock  
C3110883S11723215EWyalkatchem 
C3207549S11656849EBEVERLEY AF 
C0000000N00000000WLANDING     
B0421403207376S11656887EA0013900207000000000000
B0421423207376S11656887EA0013900207000000000000
B0421443207376S11656887EA0013900207000000000000
B0421463207376S11656887EA0013900207000000000000
B0421483207376S11656887EA0013800207000000000000
B0421503207376S11656887EA0013900207000000000000
B0421523207376S11656887EA0013900207000000000000
B0421543207376S11656887EA0013900207000000000000
B0421563207376S11656887EA0013900207000000000000
B0421583207376S11656887EA0013800206000000000000
B0422003207376S11656887EA0013900206000000000000
B0422023207376S11656887EA0013900206000000000000
B0422043207376S11656887EA0013900206000000000000
B0422063207376S11656887EA0013800206000000000000
B0422083207377S11656888EA0013900206000000000000
B0422093207380S11656890EA0013900206000000000000
B0422133207398S11656904EA0013900206000000000000
B0422173207434S11656927EA0014000206000000000000
B0422213207484S11656960EA0014200207000000000000
B0422253207546S11656997EA0014300209000000000000
B0422293207611S11657039EA0015100220000000000000
B0422333207676S11657091EA0015900225000000000000
B0422373207731S11657155EA0017000242000000000000
B0422413207785S11657212EA0019100264000000000000
B0422453207836S11657263EA0021400288000000000000
B0422493207885S11657311EA0023400307000000000000
B0422533207935S11657358EA0025400328000000000000
B0422573207986S11657403EA0027300343000000000000
B0423013208040S11657447EA0028900361000000000000
B0423053208096S11657490EA0030900381000000000000
B0423093208152S11657534EA0032800401000000000000
B0423133208207S11657588EA0034800422000000000000
B0423173208257S11657650EA0037100445000000000000
B0423213208301S11657719EA0039200465000000000000
B0423253208344S11657785EA0041400490000000000000
B0423293208392S11657846EA0044100517000000000000
B0423333208450S11657892EA0046600542000000000000
B0423373208519S11657914EA0048300549000000000000
B0423413208590S11657911EA0049500566000000000000
B0423453208658S11657888EA0051000579000000000000
B0423493208724S11657850EA0052400591000000000000
B0423533208780S11657790EA0054000605000000000000
B0423573208820S11657714EA0055300617000000000000
B0424013208853S11657629EA0056400630000000000000
B0424053208880S11657545EA0057500645000000000000
B0424093208901S11657460EA0059100663000000000000
B0424133208920S11657376EA0060800680000000000000
B0424173208938S11657289EA0062600698000000000000
B0424213208955S11657202EA0064200713000000000000
B0424253208974S11657116EA0066200733000000000000
B0424293208996S11657033EA0068000755000000000000
B0424333209013S11656951EA0070700781000000000000
B0424373209027S11656869EA0073300807000000000000
B0424413209041S11656791EA0075500828000000000000
B0424453209042S11656718EA0076700832000000000000
B0424493209028S11656646EA0076600828000000000000
B0424533209016S11656576EA0075900820000000000000
B0424573209036S11656509EA0074900812000000000000
B0425013209079S11656458EA0074200805000000000000
B0425053209136S11656427EA0073400795000000000000
B0425093209197S11656412EA0072500788000000000000
B0425133209257S11656407EA0071700777000000000000
B0425173209315S11656407EA0070000759000000000000
B0425213209375S11656410EA0069000747000000000000
B0425253209438S11656415EA0067800735000000000000
B0425293209500S11656420EA0067000731000000000000
B0425333209560S11656423EA0066800731000000000000
B0425373209621S11656425EA0066100720000000000000
B0425413209681S11656429EA0065100711000000000000
B0425453209739S11656432EA0064100701000000000000
B0425493209796S11656433EA0064200706000000000000
B0425533209850S11656436EA0063900701000000000000
B0425573209903S11656438EA0063500695000000000000
B0426013209959S11656433EA0062900689000000000000
B0426053210015S11656432EA0062600691000000000000
B0426093210068S11656441EA0063600705000000000000
B0426133210116S11656440EA0064700710000000000000
B0426173210146S11656389EA0065100714000000000000
B0426213210116S11656334EA0065100714000000000000
B0426253210059S11656331EA0065000715000000000000
B0426293210020S11656373EA0065600722000000000000
B0426333210020S11656429EA0065900727000000000000
B0426373210064S11656437EA0066700734000000000000
B0426413210085S11656377EA0067200737000000000000
B0426453210045S11656324EA0067200735000000015000
B0426493209984S11656332EA0067200738000000015000
B0426533209955S11656390EA0067100742000000015000
B0426573209976S11656450EA0067300743000000015000
B0427013210025S11656479EA0067700749000000015000
B0427053210066S11656436EA0068900765000000015000
B0427093210051S11656371EA0070300776000000015000
B0427133209997S11656340EA0070800776000000015000
B0427173209946S11656368EA0071000779000000000000
B0427213209939S11656431EA0071100778000000000000
B0427253209977S11656470EA0071100783000000000000
B0427293210027S11656458EA0071800790000000000000
B0427333210049S11656398EA0072700800000000015000
B0427373210019S11656337EA0073800811000000015000
B0427413209958S11656327EA0074300811000000015000
B0427453209920S11656375EA0074400815000000015000
B0427493209942S11656428EA0074500815000000000000
B0427533209997S11656422EA0074900819000000000000
B0427573210014S11656357EA0076400839000000015000
B0428013209976S11656303EA0077700847000000015000
B0428053209915S11656297EA0077800848000000015000
B0428093209881S11656344EA0078400859000000000000
B0428133209894S11656396EA0078900858000000000000
B0428173209942S11656407EA0079000865000000000000
B0428213209980S11656362EA0079800874000000000000
B0428253209968S11656293EA0080800878000000015000
B0428293209910S11656255EA0080800876000000015000
B0428333209859S11656290EA0081300887000000000000
B0428373209858S11656354EA0081600886000000000000
B0428413209897S11656399EA0082100891000000000000
B0428453209954S11656386EA0082400891000000000000
B0428493209965S11656312EA0082500894000000015000
B0428533209917S11656247EA0083000902000000015000
B0428573209850S11656246EA0083700914000000015000
B0429013209811S11656297EA0084700922000000000000
B0429053209817S11656355EA0085700931000000000000
B0429093209856S11656389EA0086300932000000000000
B0429133209910S11656372EA0086000929000000000000
B0429173209938S11656308EA0086000932000000015000
B0429213209921S11656232EA0086600937000000015000
B0429253209865S11656181EA0087000941000000015000
B0429293209795S11656184EA0087300944000000000000
B0429333209751S11656234EA0087600948000000000000
B0429373209752S11656298EA0088200953000000000000
B0429413209793S11656332EA0088600958000000000000
B0429453209845S11656325EA0088900958000000000000
B0429493209895S11656305EA0088800960000000000000
B0429533209936S11656264EA0089800974000000000000
B0429573209930S11656203EA0091100983000000000000
B0430013209877S11656173EA0091000980000000000000
B0430053209829S11656214EA0091700991000000000000
B0430093209839S11656267EA0092400996000000000000
B0430133209884S11656266EA0092700998000000000000
B0430173209906S11656212EA0093101007000000000000
B0430213209876S11656156EA0093901008000000000000
B0430253209815S11656151EA0094101015000000000000
B0430293209778S11656198EA0094901025000000000000
B0430333209787S11656250EA0095501025000000000000
B0430373209829S11656260EA0095501025000000000000
B0430413209869S11656227EA0095601027000000000000
B0430453209907S11656178EA0095901032000000000000
B0430493209929S11656117EA0096201033000000000000
B0430533209919S11656047EA0096301036000000000000
B0430573209878S11655985EA0096501036000000000000
B0431013209817S11655944EA0096801041000000000000
B0431053209748S11655937EA0097401047000000000000
B0431093209679S11655959EA0097901049000000000000
B0431133209620S11656004EA0098101052000000000000
B0431173209582S11656069EA0098601056000000000000
B0431213209572S11656142EA0098701056000000000000
B0431253209588S11656208EA0098801058000000000000
B0431293209631S11656253EA0098701057000000000000
B0431333209687S11656259EA0098701055000000000000
B0431373209739S11656225EA0098301050000000000000
B0431413209768S11656156EA0098301054000000000000
B0431453209750S11656074EA0098601057000000000000
B0431493209700S11656009EA0099101064000000000000
B0431533209629S11655994EA0100101073000000000000
B0431573209565S11656032EA0099901066000000015000
B0432013209531S11656107EA0099301064000000015000
B0432053209533S11656186EA0099401065000000015000
B0432093209568S11656245EA0099601067000000015000
B0432133209624S11656263EA0099701073000000000000
B0432173209682S11656243EA0100201073000000000000
B0432213209728S11656194EA0100001073000000000000
B0432253209761S11656129EA0100301076000000000000
B0432293209786S11656060EA0101201086000000000000
B0432333209782S11655987EA0102201095000000000000
B0432373209733S11655942EA0102901102000000000000
B0432413209670S11655951EA0103401109000000000000
B0432453209631S11656003EA0104101113000000000000
B0432493209635S11656069EA0104301112000000000000
B0432533209681S11656110EA0104201115000000000000
B0432573209738S11656100EA0104801122000000000000
B0433013209780S11656048EA0105401125000000000000
B0433053209787S11655976EA0105501126000000000000
B0433093209755S11655911EA0105401123000000000000
B0433133209707S11655851EA0105401126000000000000
B0433173209644S11655816EA0105901134000000000000
B0433213209582S11655835EA0106901144000000000000
B0433253209560S11655892EA0108001152000000000000
B0433293209586S11655939EA0108401154000000000000
B0433333209634S11655938EA0108301152000000000000
B0433373209669S11655883EA0108101152000000000000
B0433413209678S11655809EA0108901162000000000000
B0433453209640S11655752EA0110301176000000000000
B0433493209582S11655757EA0111101182000000000000
B0433533209559S11655813EA0111701187000000000000
B0433573209592S11655850EA0111801187000000000000
B0434013209637S11655824EA0112001194000000000000
B0434053209633S11655755EA0113001200000000000000
B0434093209582S11655712EA0113701211000000000000
B0434133209530S11655733EA0114601218000000000000
B0434173209520S11655791EA0114601219000000000000
B0434213209553S11655821EA0115101220000000000000
B0434253209595S11655786EA0114701217000000000000
B0434293209611S11655714EA0115001224000000000000
B0434333209620S11655638EA0114701213000000000000
B0434373209626S11655552EA0113701209000000000000
B0434413209634S11655469EA0114801222000000000000
B0434453209635S11655387EA0116001230000000000000
B0434493209586S11655339EA0118401259000000000000
B0434533209540S11655375EA0119601264000000000000
B0434573209547S11655440EA0119501263000000000000
B0435013209598S11655467EA0119901270000000000000
B0435053209638S11655424EA0120701277000000000000
B0435093209626S11655352EA0121401283000000000000
B0435133209568S11655311EA0122201293000000000000
B0435173209508S11655328EA0123601308000000000000
B0435213209474S11655379EA0124101309000000000000
B0435253209487S11655436EA0124301312000000000000
B0435293209533S11655457EA0124601313000000000000
B0435333209586S11655443EA0124301308000000000000
B0435373209620S11655385EA0124401315000000000000
B0435413209603S11655318EA0125301324000000000000
B0435453209546S11655285EA0126001331000000000000
B0435493209482S11655288EA0126401333000000000000
B0435533209422S11655311EA0126801338000000000000
B0435573209375S11655361EA0126801336000000000000
B0436013209354S11655428EA0125901323000000000000
B0436053209386S11655487EA0125501326000000000000
B0436093209435S11655510EA0125901329000000000000
B0436133209488S11655519EA0125901330000000000000
B0436173209547S11655525EA0125801328000000000000
B0436213209612S11655528EA0125001316000000000000
B0436253209682S11655534EA0123401304000000000000
B0436293209754S11655541EA0122701295000000000000
B0436333209825S11655549EA0121501281000000000000
B0436373209900S11655564EA0120301270000000000000
B0436413209975S11655582EA0120101270000000000000
B0436453210045S11655606EA0119901266000000000000
B0436493210114S11655629EA0119401263000000000000
B0436533210184S11655651EA0118801256000000000000
B0436573210254S11655670EA0118201250000000000000
B0437013210324S11655688EA0117601246000000000000
B0437053210393S11655708EA0117301240000000000000
B0437093210461S11655726EA0116901241000000000000
B0437133210526S11655738EA0117101242000000000000
B0437173210591S11655751EA0116701237000000000000
B0437213210652S11655765EA0116501237000000000000
B0437253210710S11655781EA0116401233000000000000
B0437293210769S11655794EA0116201234000000000000
B0437333210826S11655814EA0115901226000000000000
B0437373210882S11655842EA0115001218000000000000
B0437413210939S11655866EA0114501216000000000000
B0437453210995S11655890EA0114601218000000000000
B0437493211052S11655908EA0114401212000000000000
B0437533211113S11655928EA0113701205000000000000
B0437573211176S11655951EA0113201202000000000000
B0438013211237S11655980EA0113401206000000000000
B0438053211295S11656009EA0114101216000000000000
B0438093211355S11656025EA0115201224000000000000
B0438133211385S11655974EA0116201233000000000000
B0438173211347S11655922EA0116001223000000000000
B0438213211281S11655938EA0115101213000000000000
B0438253211252S11656007EA0115301222000000000000
B0438293211268S11656072EA0116701241000000000000
B0438333211314S11656094EA0117601245000000000000
B0438373211353S11656060EA0117701243000000000000
B0438413211354S11655998EA0117101236000000000000
B0438453211333S11655930EA0116301226000000000000
B0438493211307S11655859EA0115601225000000000000
B0438533211285S11655787EA0116301234000000000000
B0438573211267S11655717EA0116801236000000000000
B0439013211247S11655643EA0117301246000000000000
B0439053211226S11655571EA0118601258000000000000
B0439093211173S11655545EA0119801269000000000000
B0439133211143S11655595EA0120501277000000000000
B0439173211174S11655640EA0121701292000000000000
B0439213211217S11655618EA0123101302000000000000
B0439253211224S11655554EA0123301302000000000000
B0439293211181S11655509EA0124001312000000000000
B0439333211129S11655526EA0124801318000000000000
B0439373211111S11655582EA0125501330000000000000
B0439413211137S11655630EA0126501338000000000000
B0439453211184S11655630EA0127501345000000000000
B0439493211208S11655571EA0127501341000000000000
B0439533211176S11655510EA0127701347000000000000
B0439573211120S11655512EA0128301352000000000000
B0440013211098S11655566EA0128801360000000000000
B0440053211128S11655605EA0130101374000000000000
B0440093211172S11655588EA0130601373000000000000
B0440133211187S11655525EA0130301371000000000000
B0440173211154S11655470EA0130501373000000000000
B0440213211100S11655441EA0130401373000000000000
B0440253211046S11655445EA0130801375000000000000
B0440293211016S11655495EA0130901380000000000000
B0440333211033S11655551EA0131701392000000000000
B0440373211074S11655586EA0132701395000000000000
B0440413211128S11655613EA0132401389000000000000
B0440453211187S11655636EA0132101385000000000000
B0440493211256S11655651EA0131501378000000000000
B0440533211332S11655661EA0130701375000000000000
B0440573211411S11655669EA0130101363000000000000
B0441013211492S11655675EA0128901355000000000000
B0441053211572S11655684EA0128601356000000000000
B0441093211648S11655694EA0128901359000000000000
B0441133211719S11655705EA0129001358000000000000
B0441173211788S11655720EA0128801355000000000000
B0441213211858S11655734EA0128501355000000000000
B0441253211926S11655747EA0128401352000000000000
B0441293211993S11655762EA0128101349000000000000
B0441333212061S11655775EA0127801346000000000000
B0441373212127S11655787EA0127501343000000000000
B0441413212191S11655798EA0127001337000000000000
B0441453212255S11655811EA0126401332000000000000
B0441493212318S11655824EA0126001328000000000000
B0441533212382S11655831EA0125701327000000000000
B0441573212445S11655842EA0125501323000000000000
B0442013212507S11655855EA0125201323000000000000
B0442053212567S11655874EA0125701330000000000000
B0442093212625S11655890EA0126501339000000000000
B0442133212680S11655908EA0127201342000000000000
B0442173212732S11655934EA0127001338000000000000
B0442213212780S11655969EA0127001339000000000000
B0442253212833S11655995EA0126901334000000000000
B0442293212881S11655976EA0126801338000000000000
B0442333212896S11655921EA0127001335000000000000
B0442373212862S11655865EA0126301328000000000000
B0442413212801S11655830EA0126301334000000000000
B0442453212734S11655801EA0127101342000000000000
B0442493212673S11655833EA0128201352000000000000
B0442533212666S11655904EA0128301345000000000000
B0442573212710S11655955EA0127701340000000000000
B0443013212770S11655951EA0127501339000000000000
B0443053212805S11655902EA0128001341000000000000
B0443093212781S11655838EA0128101346000000000000
B0443133212718S11655807EA0128901356000000000000
B0443173212645S11655791EA0129901363000000000000
B0443213212595S11655839EA0130801372000000000000
B0443253212615S11655903EA0130701366000000000000
B0443293212672S11655917EA0130201360000000000000
B0443333212721S11655874EA0129901362000000000000
B0443373212742S11655807EA0130901380000000000000
B0443413212711S11655752EA0132901400000000000000
B0443453212649S11655759EA0134101405000000000000
B0443493212616S11655822EA0135001415000000000000
B0443533212640S11655881EA0135801420000000000000
B0443573212686S11655889EA0135901421000000000000
B0444013212712S11655840EA0136301427000000000000
B0444053212684S11655783EA0136901435000000000000
B0444093212619S11655783EA0137501441000000000000
B0444133212585S11655846EA0138501449000000000000
B0444173212607S11655905EA0138701448000000000000
B0444213212655S11655917EA0138401445000000000000
B0444253212690S11655877EA0138101443000000000000
B0444293212695S11655808EA0138201445000000000000
B0444333212664S11655744EA0138601452000000000000
B0444373212604S11655704EA0138901454000000000000
B0444413212536S11655683EA0139501461000000000000
B0444453212474S11655714EA0140401472000000000000
B0444493212456S11655778EA0140901467000000000000
B0444533212486S11655831EA0139801452000000000000
B0444573212541S11655856EA0138501446000000000000
B0445013212601S11655864EA0138001442000000000000
B0445053212662S11655865EA0138001447000000000000
B0445093212721S11655866EA0138001442000000000000
B0445133212785S11655878EA0137001432000000000000
B0445173212851S11655895EA0136201425000000000000
B0445213212920S11655915EA0135801423000000000000
B0445253212985S11655937EA0136001424000000000000
B0445293213048S11655954EA0136101427000000000000
B0445333213105S11655972EA0136301427000000000000
B0445373213163S11655993EA0135701418000000000000
B0445413213225S11656015EA0134801410000000000000
B0445453213288S11656037EA0134201405000000000000
B0445493213355S11656058EA0133801400000000000000
B0445533213422S11656076EA0133101395000000000000
B0445573213487S11656089EA0133001393000000000000
B0446013213552S11656098EA0132801394000000000000
B0446053213615S11656108EA0132701394000000000000
B0446093213676S11656119EA0132801394000000000000
B0446133213737S11656129EA0132701391000000000000
B0446173213799S11656138EA0132101385000000000000
B0446213213860S11656147EA0131901385000000000000
B0446253213923S11656159EA0131601379000000000000
B0446293213986S11656176EA0131001375000000000000
B0446333214049S11656194EA0130801373000000000000
B0446373214112S11656212EA0130301369000000000000
B0446413214176S11656230EA0130601376000000000000
B0446453214239S11656245EA0131001377000000000000
B0446493214301S11656254EA0131001379000000000000
B0446533214363S11656262EA0131401382000000000000
B0446573214426S11656267EA0131501381000000000000
B0447013214488S11656268EA0131101377000000000000
B0447053214552S11656275EA0130301367000000000000
B0447093214617S11656292EA0129101356000000000000
B0447133214683S11656316EA0128501350000000000000
B0447173214747S11656347EA0128601353000000000000
B0447213214808S11656380EA0128801354000000000000
B0447253214870S11656407EA0128301346000000000000
B0447293214938S11656437EA0127201334000000000000
B0447333215006S11656472EA0126201324000000000000
B0447373215072S11656509EA0125301317000000000000
B0447413215139S11656546EA0124701309000000000000
B0447453215208S11656583EA0123601294000000000000
B0447493215279S11656618EA0122301284000000000000
B0447533215349S11656649EA0121901285000000000000
B0447573215416S11656678EA0121601282000000000000
B0448013215481S11656708EA0121601283000000000000
B0448053215544S11656735EA0121601281000000000000
B0448093215606S11656765EA0121001273000000000000
B0448133215672S11656789EA0119601258000000000000
B0448173215741S11656813EA0118501246000000000000
B0448213215812S11656834EA0117501237000000000000
B0448253215883S11656852EA0116801229000000000000
B0448293215956S11656869EA0115901220000000000000
B0448333216030S11656880EA0115101212000000000000
B0448373216104S11656890EA0114701211000000000000
B0448413216174S11656900EA0114501209000000000000
B0448453216244S11656909EA0114401210000000000000
B0448493216312S11656914EA0114301207000000000000
B0448533216381S11656918EA0113801205000000000000
B0448573216447S11656923EA0114001212000000000000
B0449013216514S11656930EA0114601212000000000000
B0449053216581S11656934EA0114401210000000000000
B0449093216649S11656932EA0114301213000000000000
B0449133216715S11656932EA0115201224000000000000
B0449173216777S11656934EA0116301234000000000000
B0449213216829S11656901EA0117401247000000000000
B0449253216814S11656836EA0118701255000000000000
B0449293216754S11656827EA0118401249000000000000
B0449333216702S11656875EA0117901242000000000000
B0449373216683S11656945EA0118301256000000000000
B0449413216690S11657010EA0119501265000000000000
B0449453216723S11657060EA0120101271000000000000
B0449493216772S11657088EA0120901278000000000000
B0449533216827S11657103EA0121601287000000000000
B0449573216874S11657081EA0122501292000000000000
B0450013216885S11657020EA0122501291000000000000
B0450053216858S11656956EA0122501290000000000000
B0450093216806S11656912EA0122601290000000000000
B0450133216737S11656908EA0122601290000000000000
B0450173216671S11656938EA0122801297000000000000
B0450213216634S11657000EA0123601305000000000000
B0450253216649S11657068EA0124401310000000000000
B0450293216701S11657087EA0124901316000000000000
B0450333216746S11657047EA0125101317000000000000
B0450373216779S11656984EA0125001314000000000000
B0450413216806S11656916EA0125201318000000000000
B0450453216796S11656845EA0126001322000000000000
B0450493216745S11656800EA0124801305000000000000
B0450533216673S11656787EA0123501295000000000000
B0450573216599S11656773EA0122901293000000000000
B0451013216527S11656756EA0123101295000000000000
B0451053216456S11656744EA0123201297000000000000
B0451093216386S11656748EA0123401299000000000000
B0451133216346S11656797EA0123701299000000000000
B0451173216354S11656860EA0122701284000000000000
B0451213216398S11656903EA0121101274000000000000
B0451253216454S11656927EA0120701272000000000000
B0451293216515S11656940EA0120301266000000000000
B0451333216577S11656952EA0119901266000000000000
B0451373216638S11656962EA0120601278000000000000
B0451413216696S11656971EA0121601288000000000000
B0451453216753S11656971EA0122101289000000000000
B0451493216787S11656923EA0122401287000000000000
B0451533216767S11656857EA0121401274000000000000
B0451573216707S11656826EA0120401263000000000000
B0452013216640S11656840EA0119101254000000000000
B0452053216573S11656873EA0118801255000000000000
B0452093216510S11656910EA0119501263000000000000
B0452133216463S11656965EA0120501277000000000000
B0452173216468S11657027EA0121201273000000000000
B0452213216519S11657056EA0120001261000000000000
B0452253216581S11657048EA0119701263000000000000
B0452293216642S11657023EA0120201271000000000000
B0452333216696S11656986EA0121101280000000000000
B0452373216716S11656921EA0121401278000000000000
B0452413216696S11656851EA0120601265000000000000
B0452453216638S11656810EA0119701258000000000000
B0452493216577S11656826EA0119401258000000000000
B0452533216543S11656879EA0119401259000000000000
B0452573216520S11656945EA0118801251000000000000
B0453013216494S11657020EA0119101259000000000000
B0453053216490S11657090EA0120301276000000000000
B0453093216534S11657116EA0121901287000000000000
B0453133216579S11657075EA0121801279000000000000
B0453173216568S11657008EA0122401298000000000000
B0453213216517S11656981EA0123801306000000000000
B0453253216467S11657001EA0124201309000000000000
B0453293216449S11657060EA0124001305000000000000
B0453333216481S11657108EA0124601317000000000000
B0453373216528S11657099EA0125301317000000000000
B0453413216541S11657036EA0125101317000000000000
B0453453216499S11656986EA0125701323000000000000
B0453493216443S11656995EA0126101327000000000000
B0453533216426S11657056EA0126001327000000000000
B0453573216464S11657100EA0126501335000000000000
B0454013216514S11657085EA0127001337000000000000
B0454053216525S11657021EA0127401343000000000000
B0454093216486S11656970EA0128001346000000000000
B0454133216429S11656974EA0128301349000000000000
B0454173216406S11657030EA0128301349000000000000
B0454213216445S11657070EA0128301348000000000000
B0454253216493S11657044EA0128501353000000000000
B0454293216498S11656977EA0128801356000000000000
B0454333216467S11656917EA0129201360000000000000
B0454373216423S11656864EA0129201355000000000000
B0454413216368S11656810EA0128501349000000000000
B0454453216307S11656757EA0128401348000000000000
B0454493216238S11656727EA0128601353000000000000
B0454533216165S11656724EA0128801351000000000000
B0454573216090S11656722EA0127601337000000000000
B0455013216012S11656719EA0126301328000000000000
B0455053215934S11656715EA0126201323000000000000
B0455093215853S11656717EA0125401315000000000000
B0455133215774S11656732EA0124801310000000000000
B0455173215696S11656760EA0124301307000000000000
B0455213215620S11656792EA0124101303000000000000
B0455253215546S11656827EA0123501296000000000000
B0455293215472S11656867EA0122801289000000000000
B0455333215398S11656910EA0121801281000000000000
B0455373215324S11656960EA0121101277000000000000
B0455413215254S11657007EA0121101278000000000000
B0455453215185S11657051EA0121201279000000000000
B0455493215121S11657096EA0121101274000000000000
B0455533215064S11657151EA0120601268000000000000
B0455573215016S11657213EA0119601256000000000000
B0456013214978S11657294EA0117801237000000000000
B0456053214963S11657391EA0116901239000000000000
B0456093214960S11657488EA0117801247000000000000
B0456133214968S11657575EA0118801260000000000000
B0456173214986S11657653EA0119301260000000000000
B0456213215024S11657722EA0118801255000000000000
B0456253215082S11657764EA0118801255000000000000
B0456293215154S11657777EA0118501253000000000000
B0456333215227S11657775EA0118701253000000000000
B0456373215284S11657731EA0118801252000000000000
B0456413215298S11657655EA0118601249000000000000
B0456453215263S11657586EA0117301231000000000000
B0456493215195S11657554EA0116101224000000000000
B0456533215123S11657550EA0116301234000000000000
B0456573215052S11657551EA0117401247000000000000
B0457013214991S11657575EA0119001261000000000000
B0457053214981S11657641EA0119501259000000000000
B0457093215030S11657677EA0119201258000000000000
B0457133215082S11657642EA0119301261000000000000
B0457173215080S11657575EA0120401274000000000000
B0457213215028S11657538EA0121101275000000000000
B0457253214969S11657568EA0121401277000000000000
B0457293214963S11657640EA0121501280000000000000
B0457333215011S11657677EA0121401278000000000000
B0457373215064S11657647EA0121401278000000000000
B0457413215078S11657573EA0122001283000000000000
B0457453215037S11657512EA0122501291000000000000
B0457493214969S11657514EA0123101296000000000000
B0457533214925S11657572EA0123601301000000000000
B0457573214921S11657647EA0124101304000000000000
B0458013214955S11657705EA0124301308000000000000
B0458053215011S11657728EA0124301305000000000000
B0458093215074S11657718EA0123701299000000000000
B0458133215138S11657685EA0123201293000000000000
B0458173215198S11657645EA0122901294000000000000
B0458213215254S11657601EA0122001281000000000000
B0458253215310S11657554EA0121001273000000000000
B0458293215366S11657508EA0120501268000000000000
B0458333215423S11657465EA0120401268000000000000
B0458373215477S11657425EA0120301267000000000000
B0458413215528S11657385EA0120301271000000000000
B0458453215576S11657346EA0120401265000000000000
B0458493215627S11657308EA0119301259000000000000
B0458533215680S11657276EA0119201258000000000000
B0458573215736S11657248EA0119201257000000000000
B0459013215793S11657228EA0119501263000000000000
B0459053215851S11657207EA0120301272000000000000
B0459093215884S11657153EA0121501283000000000000
B0459133215853S11657085EA0122001282000000000000
B0459173215783S11657074EA0122601295000000000000
B0459213215737S11657122EA0123801306000000000000
B0459253215737S11657187EA0124601311000000000000
B0459293215778S11657228EA0124801312000000000000
B0459333215826S11657208EA0125201321000000000000
B0459373215835S11657143EA0126501332000000000000
B0459413215784S11657088EA0126601330000000000000
B0459453215715S11657104EA0127501344000000000000
B0459493215693S11657168EA0128801353000000000000
B0459533215726S11657217EA0128901353000000000000
B0459573215779S11657209EA0129101359000000000000
B0500013215805S11657151EA0130501381000000000000
B0500053215783S11657087EA0132201388000000000000
B0500093215722S11657061EA0132401389000000000000
B0500133215670S11657099EA0132801395000000000000
B0500173215657S11657164EA0133501399000000000000
B0500213215688S11657213EA0133401395000000000000
B0500253215743S11657212EA0133601403000000000000
B0500293215771S11657153EA0134701414000000000000
B0500333215743S11657085EA0135701422000000000000
B0500373215680S11657070EA0136201431000000000000
B0500413215643S11657122EA0136801434000000000000
B0500453215663S11657179EA0136801434000000000000
B0500493215713S11657177EA0137401444000000000000
B0500533215721S11657114EA0138701455000000000000
B0500573215665S11657075EA0139101455000000000000
B0501013215609S11657111EA0139301462000000000000
B0501053215605S11657176EA0139701462000000000000
B0501093215643S11657215EA0139901461000000000000
B0501133215695S11657207EA0139901466000000000000
B0501173215726S11657150EA0140901473000000000000
B0501213215708S11657078EA0141101475000000000000
B0501253215649S11657038EA0141401482000000000000
B0501293215585S11657047EA0141901482000000000000
B0501333215546S11657103EA0141601479000000000000
B0501373215544S11657172EA0141501478000000000000
B0501413215576S11657228EA0141101472000000000000
B0501453215630S11657264EA0140501467000000000000
B0501493215688S11657290EA0140101465000000000000
B0501533215752S11657313EA0139701460000000000000
B0501573215818S11657339EA0139001450000000000000
B0502013215886S11657373EA0137801438000000000000
B0502053215955S11657413EA0136801429000000000000
B0502093216023S11657454EA0136201425000000000000
B0502133216092S11657491EA0136001423000000000000
B0502173216161S11657525EA0135601419000000000000
B0502213216229S11657551EA0135401418000000000000
B0502253216298S11657577EA0135101414000000000000
B0502293216364S11657602EA0134801412000000000000
B0502333216430S11657627EA0134601408000000000000
B0502373216497S11657653EA0134001400000000000000
B0502413216564S11657681EA0133301394000000000000
B0502453216631S11657709EA0132701391000000000000
B0502493216696S11657735EA0132801392000000000000
B0502533216761S11657761EA0132401387000000000000
B0502573216826S11657787EA0131701381000000000000
B0503013216891S11657814EA0131401377000000000000
B0503053216953S11657842EA0131301378000000000000
B0503093217013S11657871EA0131501378000000000000
B0503133217071S11657896EA0130801371000000000000
B0503173217130S11657917EA0130601371000000000000
B0503213217187S11657935EA0130301364000000000000
B0503253217245S11657950EA0129201354000000000000
B0503293217307S11657961EA0128501349000000000000
B0503333217369S11657970EA0128201347000000000000
B0503373217431S11657975EA0128001346000000000000
B0503413217491S11657980EA0128001348000000000000
B0503453217547S11657989EA0128401353000000000000
B0503493217600S11658001EA0128601353000000000000
B0503533217656S11658002EA0129001360000000000000
B0503573217693S11657956EA0129801364000000000000
B0504013217665S11657894EA0129701360000000000000
B0504053217598S11657881EA0129201356000000000000
B0504093217526S11657885EA0129301363000000000000
B0504133217466S11657913EA0130101369000000000000
B0504173217442S11657975EA0130101364000000000000
B0504213217466S11658034EA0129801364000000000000
B0504253217512S11658071EA0129601362000000000000
B0504293217555S11658113EA0129901369000000000000
B0504333217595S11658164EA0130701375000000000000
B0504373217638S11658209EA0131601387000000000000
B0504413217686S11658206EA0132401382000000000000
B0504453217708S11658149EA0130901367000000000000
B0504493217676S11658091EA0130101363000000000000
B0504533217609S11658073EA0129601361000000000000
B0504573217539S11658069EA0130301371000000000000
B0505013217473S11658088EA0131601386000000000000
B0505053217439S11658149EA0133001395000000000000
B0505093217446S11658218EA0133001388000000000000
B0505133217494S11658260EA0131901375000000000000
B0505173217552S11658252EA0131301376000000000000
B0505213217604S11658213EA0131201378000000000000
B0505253217659S11658169EA0131101372000000000000
B0505293217724S11658134EA0130201364000000000000
B0505333217795S11658108EA0129601360000000000000
B0505373217869S11658092EA0129601361000000000000
B0505413217942S11658086EA0129601358000000000000
B0505453218015S11658087EA0129101355000000000000
B0505493218088S11658095EA0128501347000000000000
B0505533218159S11658101EA0128001342000000000000
B0505573218227S11658101EA0127801344000000000000
B0506013218288S11658099EA0128401350000000000000
B0506053218348S11658093EA0128401348000000000000
B0506093218410S11658099EA0127301335000000000000
B0506133218475S11658119EA0126301328000000000000
B0506173218539S11658152EA0125901322000000000000
B0506213218601S11658188EA0125901327000000000000
B0506253218659S11658227EA0126401332000000000000
B0506293218716S11658265EA0126401327000000000000
B0506333218773S11658307EA0126001327000000000000
B0506373218829S11658348EA0126301329000000000000
B0506413218885S11658390EA0126401331000000000000
B0506453218943S11658425EA0126301327000000000000
B0506493219004S11658451EA0126501331000000000000
B0506533219064S11658477EA0127301340000000000000
B0506573219117S11658517EA0127501339000000000000
B0507013219176S11658543EA0127901344000000000000
B0507053219224S11658511EA0128601353000000000000
B0507093219232S11658447EA0128801349000000000000
B0507133219198S11658385EA0128001338000000000000
B0507173219138S11658338EA0127201335000000000000
B0507213219068S11658309EA0127801342000000000000
B0507253219002S11658321EA0129501362000000000000
B0507293218997S11658387EA0130301365000000000000
B0507333219049S11658424EA0130001362000000000000
B0507373219111S11658420EA0131001380000000000000
B0507413219154S11658379EA0132401388000000000000
B0507453219151S11658310EA0132501385000000000000
B0507493219095S11658282EA0132801394000000015000
B0507533219051S11658325EA0133601403000000015000
B0507573219056S11658392EA0134201408000000015000
B0508013219104S11658424EA0135001419000000000000
B0508053219146S11658394EA0135901421000000000000
B0508093219145S11658330EA0135301413000000015000
B0508133219098S11658286EA0135001416000000015000
B0508173219046S11658304EA0135801424000000015000
B0508213219054S11658366EA0135901423000000015000
B0508253219111S11658383EA0135901426000000015000
B0508293219169S11658356EA0135901416000000015000
B0508333219231S11658313EA0134001390000000000000
B0508373219298S11658261EA0131701368000000000000
B0508413219364S11658204EA0130301364000000000000
B0508453219428S11658148EA0130101363000000000000
B0508493219489S11658093EA0129801361000000000000
B0508533219548S11658041EA0129601356000000000000
B0508573219604S11657991EA0129201354000000000000
B0509013219658S11657943EA0129001353000000000000
B0509053219713S11657898EA0128801349000000000000
B0509093219766S11657855EA0128501347000000000000
B0509133219818S11657811EA0128401347000000000000
B0509173219870S11657771EA0128601349000000000000
B0509213219920S11657731EA0128501349000000000000
B0509253219970S11657693EA0128601349000000000000
B0509293220024S11657660EA0128801352000000000000
B0509333220077S11657632EA0129401361000000000000
B0509373220133S11657633EA0130301374000000000000
B0509413220163S11657684EA0131501384000000000000
B0509453220154S11657746EA0131901379000000000000
B0509493220112S11657794EA0131001370000000000000
B0509533220052S11657789EA0130201364000000000000
B0509573220024S11657736EA0129801361000000000000
B0510013220026S11657677EA0129901366000000000000
B0510053220039S11657624EA0130601373000000000000
B0510093220053S11657569EA0130601372000000000000
B0510133220068S11657508EA0130601372000000000000
B0510173220079S11657445EA0131201378000000000000
B0510213220098S11657381EA0131101372000000000000
B0510253220102S11657312EA0130401367000000000000
B0510293220052S11657267EA0130201364000000000000
B0510333219990S11657286EA0129701355000000000000
B0510373219959S11657351EA0129001352000000000000
B0510413219953S11657425EA0128601348000000000000
B0510453219962S11657501EA0128201346000000000000
B0510493219975S11657575EA0128401347000000000000
B0510533219988S11657651EA0128501349000000000000
B0510573220013S11657719EA0129001356000000000000
B0511013220057S11657758EA0129601359000000000000
B0511053220112S11657763EA0129301355000000000000
B0511093220168S11657750EA0128901351000000000000
B0511133220226S11657733EA0128401344000000000000
B0511173220280S11657702EA0128501347000000000000
B0511213220303S11657645EA0129201353000000000000
B0511253220281S11657589EA0129201352000000000000
B0511293220225S11657569EA0128601343000000000000
B0511333220163S11657580EA0127701337000000000000
B0511373220098S11657601EA0127201333000000000000
B0511413220030S11657615EA0127001333000000000000
B0511453219961S11657636EA0127301337000000000000
B0511493219897S11657675EA0127801340000000000000
B0511533219836S11657722EA0127501337000000000000
B0511573219777S11657776EA0127501338000000000000
B0512013219718S11657835EA0127401334000000000000
B0512053219657S11657897EA0126501326000000000000
B0512093219592S11657958EA0125901320000000000000
B0512133219526S11658017EA0125301313000000000000
B0512173219458S11658076EA0124401303000000000000
B0512213219389S11658136EA0123901301000000000000
B0512253219323S11658195EA0123501297000000000000
B0512293219259S11658255EA0122601286000000000000
B0512333219197S11658321EA0121601277000000000000
B0512373219136S11658386EA0121401280000000000000
B0512413219076S11658447EA0121801282000000000000
B0512453219021S11658504EA0122001281000000000000
B0512493218969S11658564EA0121101274000000000000
B0512533218921S11658629EA0120501267000000000000
B0512573218874S11658694EA0120201266000000000000
B0513013218825S11658755EA0120901278000000000000
B0513053218774S11658807EA0121901287000000000000
B0513093218721S11658854EA0122501292000000000000
B0513133218685S11658912EA0123201298000000000000
B0513173218698S11658971EA0123501299000000000000
B0513213218743S11658990EA0123401299000000000000
B0513253218791S11658976EA0123501302000000000000
B0513293218837S11658954EA0124101307000000000000
B0513333218860S11658902EA0124001306000000000000
B0513373218844S11658840EA0124301307000000000000
B0513413218794S11658807EA0124601312000000000000
B0513453218733S11658816EA0124801315000000000000
B0513493218675S11658846EA0124801312000000000000
B0513533218616S11658881EA0124501309000000000000
B0513573218553S11658918EA0124501307000000000000
B0514013218488S11658953EA0124201306000000000000
B0514053218419S11658975EA0124101305000000000000
B0514093218345S11658975EA0123701298000000000000
B0514133218271S11658953EA0123401296000000000000
B0514173218198S11658919EA0123101294000000000000
B0514213218124S11658884EA0122601286000000000000
B0514253218049S11658847EA0121601276000000000000
B0514293217972S11658810EA0120901270000000000000
B0514333217895S11658772EA0120401266000000000000
B0514373217821S11658736EA0120101262000000000000
B0514413217749S11658698EA0119501258000000000000
B0514453217680S11658661EA0119201256000000000000
B0514493217611S11658628EA0118401246000000000000
B0514533217541S11658594EA0117901240000000000000
B0514573217473S11658559EA0117401236000000000000
B0515013217408S11658524EA0116801229000000000000
B0515053217340S11658491EA0116301224000000000000
B0515093217270S11658463EA0115801220000000000000
B0515133217203S11658430EA0115401217000000000000
B0515173217132S11658401EA0115301216000000000000
B0515213217063S11658377EA0115301217000000000000
B0515253216995S11658356EA0115401218000000000000
B0515293216924S11658347EA0115901225000000000000
B0515333216871S11658313EA0117101243000000000000
B0515373216879S11658257EA0118701260000000000000
B0515413216924S11658240EA0120101268000000000000
B0515453216969S11658273EA0120801276000000000000
B0515493216984S11658334EA0121601286000000000000
B0515533216966S11658396EA0122501288000000015000
B0515573216919S11658433EA0122501287000000000000
B0516013216863S11658422EA0122501287000000000000
B0516053216832S11658374EA0123201294000000000000
B0516093216832S11658317EA0123901304000000000000
B0516133216867S11658282EA0124601311000000000000
B0516173216920S11658300EA0125001313000000000000
B0516213216946S11658362EA0125901330000000000000
B0516253216926S11658425EA0127401338000000000000
B0516293216876S11658453EA0127701335000000000000
B0516333216828S11658433EA0127501334000000000000
B0516373216803S11658379EA0127701340000000000000
B0516413216788S11658323EA0128301347000000000000
B0516453216789S11658262EA0128501348000000000000
B0516493216820S11658214EA0128901353000000000000
B0516533216874S11658193EA0128901349000000000000
B0516573216935S11658204EA0128401345000000000000
B0517013216993S11658231EA0127601334000000000000
B0517053217044S11658283EA0126601324000000000000
B0517093217073S11658356EA0125701313000000000000
B0517133217065S11658439EA0124801308000000000000
B0517173217019S11658500EA0124201298000000000000
B0517213216952S11658522EA0123201286000000000000
B0517253216881S11658513EA0122101278000000000000
B0517293216813S11658486EA0121701274000000000000
B0517333216745S11658450EA0121301272000000000000
B0517373216677S11658408EA0121701278000000000000
B0517413216618S11658351EA0122001282000000000000
B0517453216564S11658286EA0122701290000000000000
B0517493216514S11658227EA0124001304000000000000
B0517533216486S11658158EA0125101317000000000000
B0517573216504S11658096EA0125601316000000000000
B0518013216562S11658074EA0125001310000000000000
B0518053216620S11658105EA0125101318000000000000
B0518093216651S11658166EA0126401339000000000000
B0518133216632S11658229EA0128501348000000015000
B0518173216575S11658249EA0128601346000000000000
B0518213216525S11658210EA0129001352000000000000
B0518253216516S11658147EA0129601362000000000000
B0518293216541S11658093EA0130601370000000000000
B0518333216586S11658065EA0130901371000000000000
B0518373216638S11658076EA0131001371000000000000
B0518413216668S11658134EA0131201373000000000000
B0518453216655S11658203EA0131501375000000000000
B0518493216599S11658243EA0131301371000000000000
B0518533216533S11658231EA0131301380000000000000
B0518573216481S11658190EA0132201385000000000000
B0519013216432S11658138EA0131701372000000000000
B0519053216364S11658093EA0130101357000000000000
B0519093216282S11658062EA0129501355000000000000
B0519133216205S11658031EA0130101369000000000000
B0519173216137S11658000EA0131001372000000000000
B0519213216065S11657967EA0130101361000000000000
B0519253215988S11657935EA0128901349000000000000
B0519293215906S11657902EA0128001339000000000000
B0519333215825S11657872EA0127201333000000000000
B0519373215743S11657846EA0127101331000000000000
B0519413215662S11657818EA0126701326000000000000
B0519453215583S11657785EA0126001320000000000000
B0519493215503S11657750EA0125501316000000000000
B0519533215424S11657716EA0125101313000000000000
B0519573215345S11657685EA0124801309000000000000
B0520013215263S11657655EA0124301302000000000000
B0520053215181S11657627EA0123601295000000000000
B0520093215098S11657601EA0123401294000000000000
B0520133215020S11657579EA0123501297000000000000
B0520173214948S11657556EA0123801300000000000000
B0520213214879S11657534EA0123801299000000000000
B0520253214811S11657512EA0123201289000000000000
B0520293214740S11657490EA0122601286000000000000
B0520333214673S11657467EA0121801276000000000000
B0520373214601S11657437EA0120801268000000000000
B0520413214531S11657403EA0120501267000000000000
B0520453214463S11657364EA0120701273000000000000
B0520493214401S11657322EA0121101276000000000000
B0520533214337S11657285EA0122101288000000000000
B0520573214280S11657308EA0123501299000000000000
B0521013214291S11657371EA0123801296000000000000
B0521053214344S11657374EA0124201310000000000000
B0521093214362S11657322EA0125701326000000000000
B0521133214331S11657272EA0126901334000000000000
B0521173214275S11657272EA0127501337000000000000
B0521213214250S11657326EA0127501336000000000000
B0521253214285S11657371EA0127401336000000000000
B0521293214336S11657350EA0127501338000000000000
B0521333214349S11657283EA0128301347000000000000
B0521373214304S11657235EA0129301356000000000000
B0521413214246S11657248EA0129901363000000000000
B0521453214236S11657307EA0130101362000000000000
B0521493214272S11657343EA0130201366000000000000
B0521533214322S11657329EA0130001363000000000000
B0521573214341S11657273EA0130601372000000000000
B0522013214302S11657221EA0130701368000000000000
B0522053214236S11657205EA0130401367000000000000
B0522093214167S11657200EA0130101364000000000000
B0522133214097S11657212EA0129601357000000000000
B0522173214021S11657228EA0128801349000000000000
B0522213213941S11657230EA0128201343000000000000
B0522253213860S11657213EA0127801339000000000000
B0522293213784S11657182EA0127201333000000000000
B0522333213708S11657146EA0126901332000000000000
B0522373213634S11657105EA0126501326000000000000
B0522413213557S11657066EA0125501316000000000000
B0522453213478S11657029EA0124801311000000000000
B0522493213401S11656996EA0124701311000000000000
B0522533213327S11656966EA0124601309000000000000
B0522573213253S11656936EA0124301305000000000000
B0523013213180S11656903EA0123801303000000000000
B0523053213109S11656865EA0123601300000000000000
B0523093213039S11656826EA0123401298000000000000
B0523133212970S11656786EA0123001294000000000000
B0523173212903S11656743EA0122901294000000000000
B0523213212836S11656706EA0122801294000000000000
B0523253212767S11656678EA0122601293000000000000
B0523293212699S11656653EA0122501290000000000000
B0523333212632S11656631EA0122001285000000000000
B0523373212563S11656611EA0121401280000000000000
B0523413212495S11656596EA0121201279000000000000
B0523453212429S11656578EA0121301279000000000000
B0523493212365S11656553EA0121001274000000000000
B0523533212299S11656529EA0120401269000000000000
B0523573212231S11656502EA0120001263000000000000
B0524013212162S11656474EA0119501256000000000000
B0524053212095S11656445EA0118601249000000000000
B0524093212025S11656419EA0117901244000000000000
B0524133211957S11656397EA0118301253000000000000
B0524173211891S11656379EA0119501266000000000000
B0524213211827S11656358EA0120801279000000000000
B0524253211763S11656354EA0122601296000000000000
B0524293211731S11656403EA0124201310000000000000
B0524333211759S11656451EA0123901299000000000000
B0524373211811S11656441EA0123201297000000000000
B0524413211832S11656384EA0123701305000000000000
B0524453211809S11656327EA0124801317000000000000
B0524493211761S11656286EA0125501319000000000000
B0524533211701S11656276EA0125701319000000000000
B0524573211662S11656329EA0125601317000000000000
B0525013211687S11656384EA0126001328000000000000
B0525053211731S11656379EA0126801331000000000000
B0525093211748S11656319EA0126801334000000000000
B0525133211715S11656263EA0127901346000000000000
B0525173211655S11656250EA0128301343000000000000
B0525213211600S11656284EA0127901340000000000000
B0525253211567S11656345EA0128001341000000000000
B0525293211566S11656411EA0128301350000000000000
B0525333211594S11656459EA0129301358000000000000
B0525373211641S11656467EA0129401353000000000000
B0525413211681S11656431EA0128601345000000000000
B0525453211684S11656364EA0128201345000000000000
B0525493211644S11656310EA0128501349000000000000
B0525533211580S11656288EA0128401346000000000000
B0525573211512S11656267EA0127801338000000000000
B0526013211438S11656241EA0126801331000000000000
B0526053211360S11656215EA0126301323000000000000
B0526093211281S11656189EA0125301312000000000000
B0526133211200S11656162EA0124601306000000000000
B0526173211122S11656133EA0124201304000000000000
B0526213211047S11656108EA0123801301000000000000
B0526253210969S11656084EA0123301295000000000000
B0526293210890S11656061EA0122601289000000000000
B0526333210808S11656038EA0122001283000000000000
B0526373210729S11656011EA0121701279000000000000
B0526413210649S11655982EA0121101272000000000000
B0526453210569S11655955EA0120601268000000000000
B0526493210488S11655930EA0120201264000000000000
B0526533210410S11655907EA0119801260000000000000
B0526573210333S11655885EA0118701246000000000000
B0527013210253S11655865EA0117701238000000000000
B0527053210173S11655842EA0117401237000000000000
B0527093210097S11655813EA0117401239000000000000
B0527133210020S11655787EA0117601240000000000000
B0527173209945S11655764EA0117601241000000000000
B0527213209873S11655740EA0117901245000000000000
B0527253209804S11655720EA0118201247000000000000
B0527293209737S11655699EA0118101244000000000000
B0527333209670S11655675EA0118101247000000000000
B0527373209608S11655648EA0118501251000000000000
B0527413209544S11655631EA0119501263000000000000
B0527453209491S11655661EA0120501269000000000000
B0527493209477S11655720EA0120401267000000000000
B0527533209497S11655779EA0120101262000000000000
B0527573209543S11655818EA0119701256000000000000
B0528013209592S11655842EA0118801245000000000000
B0528053209638S11655820EA0117401232000000000000
B0528093209659S11655765EA0116401222000000000000
B0528133209638S11655701EA0115901220000000000000
B0528173209581S11655670EA0115601221000000000000
B0528213209517S11655657EA0115601220000000000000
B0528253209448S11655649EA0115501219000000000000
B0528293209380S11655655EA0115401215000000000000
B0528333209317S11655687EA0114601205000000000000
B0528373209254S11655730EA0113901203000000000000
B0528413209195S11655773EA0114401208000000000000
B0528453209136S11655818EA0114301205000000000000
B0528493209076S11655866EA0114001203000000000000
B0528533209014S11655911EA0114001203000000000000
B0528573208953S11655955EA0113601197000000000000
B0529013208892S11655999EA0112601186000000000000
B0529053208829S11656046EA0111801178000000000000
B0529093208767S11656086EA0111001172000000000000
B0529133208702S11656121EA0110701169000000000000
B0529173208636S11656150EA0110701169000000000000
B0529213208573S11656182EA0111301178000000000000
B0529253208560S11656246EA0112201187000000000000
B0529293208606S11656271EA0112701189000000000000
B0529333208638S11656223EA0113001196000000000000
B0529373208617S11656162EA0113701201000000000000
B0529413208561S11656137EA0114301204000000000000
B0529453208508S11656178EA0113901197000000000000
B0529493208500S11656254EA0113901204000000000000
B0529533208534S11656301EA0115101215000000000000
B0529573208582S11656279EA0115401213000000000000
B0530013208598S11656211EA0115301215000000000000
B0530053208565S11656150EA0115901225000000000000
B0530093208504S11656136EA0116801232000000000000
B0530133208451S11656177EA0116701228000000000000
B0530173208433S11656251EA0117001233000000000000
B0530213208461S11656314EA0117301238000000000000
B0530253208516S11656327EA0117801242000000000000
B0530293208558S11656282EA0118301247000000000000
B0530333208551S11656217EA0118901256000000000000
B0530373208503S11656178EA0119301254000000000000
B0530413208438S11656191EA0118701250000000000000
B0530453208395S11656253EA0118301247000000000000
B0530493208394S11656329EA0118501253000000000000
B0530533208426S11656389EA0119101254000000000000
B0530573208482S11656416EA0118601246000000000000
B0531013208541S11656403EA0118101246000000000000
B0531053208584S11656358EA0118501256000000000000
B0531093208600S11656297EA0119301259000000000000
B0531133208587S11656229EA0119401255000000000000
B0531173208542S11656177EA0119001256000000000000
B0531213208478S11656155EA0119101256000000000000
B0531253208412S11656152EA0119701266000000000000
B0531293208363S11656191EA0120701273000000000000
B0531333208365S11656255EA0120601267000000000000
B0531373208412S11656276EA0120401269000000000000
B0531413208443S11656234EA0120501269000000000000
B0531453208422S11656172EA0120301266000000000000
B0531493208373S11656120EA0120001263000000000000
B0531533208308S11656097EA0120001266000000000000
B0531573208238S11656117EA0119701261000000000000
B0532013208171S11656160EA0119301258000000000000
B0532053208117S11656223EA0119201256000000000000
B0532093208083S11656299EA0119401263000000000000
B0532133208057S11656375EA0119901266000000000000
B0532173208034S11656450EA0119701263000000000000
B0532213208027S11656529EA0119601259000000000000
B0532253208026S11656609EA0118901254000000000000
B0532293208021S11656685EA0118501252000000000000
B0532333208009S11656760EA0118501252000000000000
B0532373207993S11656830EA0118701253000000000000
B0532413207992S11656897EA0118801253000000000000
B0532453208025S11656953EA0118501252000000000000
B0532493208070S11656995EA0119201262000000000000
B0532533208113S11656969EA0121301282000000000000
B0532573208103S11656901EA0121601280000000000000
B0533013208049S11656866EA0122001288000000000000
B0533053207999S11656897EA0122601292000000000000
B0533093207992S11656961EA0123001300000000000000
B0533133208027S11656992EA0124001308000000000000
B0533173208067S11656961EA0124801317000000000000
B0533213208061S11656896EA0125701323000000000000
B0533253208012S11656860EA0126001324000000000000
B0533293207960S11656893EA0125701316000000000000
B0533333207965S11656964EA0124901314000000000000
B0533373207995S11657026EA0125501321000000000000
B0533413208040S11657060EA0126501331000000000000
B0533453208090S11657035EA0126701327000000000000
B0533493208112S11656965EA0126001320000000000000
B0533533208083S11656895EA0125501315000000000000
B0533573208030S11656844EA0125301318000000000000
B0534013207966S11656806EA0125501318000000000000
B0534053207895S11656778EA0125101317000000000000
B0534093207817S11656762EA0124901314000000000000
B0534133207736S11656749EA0124401305000000000000
B0534173207653S11656748EA0123501297000000000000
B0534213207573S11656779EA0122401286000000000000
B0534253207503S11656838EA0121301275000000000000
B0534293207449S11656916EA0120501270000000000000
B0534333207401S11656994EA0120701274000000000000
B0534373207358S11657070EA0120901275000000000000
B0534413207319S11657146EA0121001277000000000000
B0534453207284S11657220EA0121501281000000000000
B0534493207250S11657291EA0121401279000000000000
B0534533207219S11657365EA0120701271000000000000
B0534573207183S11657442EA0119801263000000000000
B0535013207150S11657521EA0119301256000000000000
B0535053207115S11657599EA0118801253000000000000
B0535093207079S11657676EA0118701252000000000000
B0535133207046S11657754EA0118101247000000000000
B0535173207013S11657832EA0118101248000000000000
B0535213206977S11657906EA0118201248000000000000
B0535253206947S11657983EA0117701242000000000000
B0535293206922S11658062EA0117401240000000000000
B0535333206899S11658141EA0117301239000000000000
B0535373206877S11658219EA0117101237000000000000
B0535413206858S11658296EA0116801234000000000000
B0535453206852S11658373EA0116701233000000000000
B0535493206868S11658440EA0116701232000000000000
B0535533206907S11658489EA0116201226000000000000
B0535573206961S11658505EA0115401218000000000000
B0536013207017S11658490EA0114901213000000000000
B0536053207068S11658451EA0114101205000000000000
B0536093207111S11658399EA0113601200000000000000
B0536133207148S11658340EA0113401198000000000000
B0536173207181S11658277EA0113101196000000000000
B0536213207212S11658213EA0113201196000000000000
B0536253207243S11658153EA0112801190000000000000
B0536293207272S11658088EA0112101184000000000000
B0536333207298S11658023EA0111601181000000000000
B0536373207324S11657957EA0111101173000000000000
B0536413207351S11657885EA0109901161000000000000
B0536453207382S11657813EA0109501159000000000000
B0536493207417S11657748EA0109501158000000000000
B0536533207456S11657688EA0109001150000000000000
B0536573207498S11657624EA0107701138000000000000
B0537013207541S11657562EA0107101133000000000000
B0537053207576S11657494EA0107001135000000000000
B0537093207602S11657421EA0106701130000000000000
B0537133207620S11657346EA0106501128000000000000
B0537173207629S11657269EA0106201120000000000000
B0537213207624S11657186EA0105201113000000000000
B0537253207615S11657101EA0105901129000000000000
B0537293207644S11657040EA0107401145000000000000
B0537333207696S11657053EA0108401149000000000000
B0537373207715S11657112EA0108801151000000000000
B0537413207692S11657174EA0108701148000000000000
B0537453207636S11657208EA0108101144000000000000
B0537493207572S11657199EA0108601151000000000000
B0537533207511S11657172EA0109301158000000000000
B0537573207471S11657117EA0109701168000000000000
B0538013207481S11657057EA0111001178000000000000
B0538053207529S11657044EA0111201173000000000000
B0538093207564S11657098EA0111101181000000000000
B0538133207551S11657166EA0112001191000000000000
B0538173207493S11657194EA0112901199000000000000
B0538213207442S11657160EA0113801204000000000000
B0538253207434S11657092EA0113901205000000000000
B0538293207469S11657043EA0114301207000000000000
B0538333207524S11657047EA0114601211000000000000
B0538373207566S11657095EA0115001216000000015000
B0538413207570S11657165EA0115501227000000015000
B0538453207527S11657218EA0116301228000000000000
B0538493207462S11657228EA0116401232000000000000
B0538533207408S11657190EA0117001236000000000000
B0538573207381S11657118EA0116301219000000000000
B0539013207375S11657030EA0115301213000000000000
B0539053207375S11656938EA0115001212000000000000
B0539093207403S11656857EA0115401222000000000000
B0539133207464S11656848EA0117201243000000000000
B0539173207485S11656905EA0119001253000000000000
B0539213207437S11656944EA0119201255000000015000
B0539253207381S11656908EA0119601263000000000000
B0539293207386S11656835EA0120901278000000000000
B0539333207437S11656815EA0121901283000000015000
B0539373207460S11656871EA0122201283000000015000
B0539413207416S11656917EA0122301289000000015000
B0539453207352S11656910EA0123201296000000015000
B0539493207299S11656862EA0123801299000000015000
B0539533207295S11656789EA0124101304000000000000
B0539573207336S11656741EA0124301305000000000000
B0540013207393S11656732EA0124401306000000000000
B0540053207437S11656773EA0125101316000000015000
B0540093207430S11656839EA0125701320000000015000
B0540133207377S11656867EA0126001324000000015000
B0540173207317S11656843EA0126501329000000015000
B0540213207259S11656805EA0126901333000000000000
B0540253207199S11656763EA0126601327000000000000
B0540293207137S11656718EA0126201321000000000000
B0540333207070S11656669EA0124801306000000000000
B0540373207003S11656613EA0124001298000000000000
B0540413206934S11656558EA0123601296000000000000
B0540453206874S11656492EA0122701283000000000000
B0540493206830S11656409EA0121901276000000000000
B0540533206803S11656321EA0121301272000000000000
B0540573206784S11656234EA0120901268000000000000
B0541013206770S11656149EA0120401262000000000000
B0541053206762S11656064EA0120101260000000000000
B0541093206753S11655982EA0119201251000000000000
B0541133206747S11655900EA0118501245000000000000
B0541173206739S11655818EA0117801237000000000000
B0541213206735S11655738EA0117001226000000000000
B0541253206731S11655653EA0115701212000000000000
B0541293206725S11655566EA0114501201000000000000
B0541333206715S11655479EA0113601196000000000000
B0541373206704S11655395EA0113401194000000000000
B0541413206691S11655314EA0112801189000000000000
B0541453206682S11655232EA0112201182000000000000
B0541493206670S11655149EA0111401174000000000000
B0541533206657S11655066EA0110901166000000000000
B0541573206648S11654982EA0110101158000000000000
B0542013206637S11654898EA0109401153000000000000
B0542053206626S11654815EA0109001149000000000000
B0542093206617S11654729EA0108401144000000000000
B0542133206606S11654644EA0107901139000000000000
B0542173206596S11654561EA0107001132000000000000
B0542213206587S11654482EA0106901131000000000000
B0542253206579S11654404EA0106601126000000000000
B0542293206566S11654330EA0106101119000000000000
B0542333206549S11654253EA0105001108000000000000
B0542373206532S11654176EA0104201101000000000000
B0542413206515S11654098EA0103201092000000000000
B0542453206504S11654018EA0102401085000000000000
B0542493206488S11653936EA0102001079000000000000
B0542533206470S11653851EA0101001069000000000000
B0542573206450S11653766EA0100501067000000000000
B0543013206429S11653684EA0100601068000000000000
B0543053206402S11653604EA0100501065000000000000
B0543093206372S11653529EA0100801070000000000000
B0543133206332S11653464EA0101001070000000000000
B0543173206286S11653402EA0100601066000000000000
B0543213206233S11653352EA0100601066000000000000
B0543253206171S11653344EA0100601063000000000000
B0543293206120S11653389EA0099801054000000000000
B0543333206104S11653461EA0099101042000000000000
B0543373206124S11653536EA0098001039000000000000
B0543413206154S11653604EA0097401035000000000000
B0543453206189S11653669EA0097201036000000000000
B0543493206225S11653734EA0097501037000000000000
B0543533206266S11653796EA0097201034000000000000
B0543573206312S11653854EA0096801030000000000000
B0544013206359S11653907EA0096801033000000000000
B0544053206406S11653953EA0097101035000000000000
B0544093206450S11653998EA0096501027000000000000
B0544133206493S11654053EA0096001023000000000000
B0544173206536S11654106EA0096501032000000000000
B0544213206580S11654152EA0097001035000000000000
B0544253206623S11654196EA0097401039000000000000
B0544293206669S11654235EA0097301036000000000000
B0544333206714S11654277EA0097301036000000000000
B0544373206762S11654319EA0097101035000000000000
B0544413206810S11654365EA0097501037000000000000
B0544453206864S11654366EA0099101057000000000000
B0544493206873S11654306EA0100201062000000000000
B0544533206817S11654267EA0100001061000000000000
B0544573206758S11654293EA0100701070000000000000
B0545013206739S11654353EA0101101070000000000000
B0545053206764S11654408EA0100801065000000000000
B0545093206812S11654447EA0100801074000000000000
B0545133206851S11654418EA0102801092000000000000
B0545173206825S11654364EA0103201090000000000000
B0545213206762S11654362EA0103001090000000000000
B0545253206730S11654420EA0103801098000000000000
B0545293206757S11654472EA0104401108000000000000
B0545333206801S11654465EA0105701119000000000000
B0545373206818S11654410EA0105801117000000000000
B0545413206790S11654352EA0106701130000000000000
B0545453206734S11654335EA0107201133000000000000
B0545493206687S11654377EA0107201133000000000000
B0545533206700S11654436EA0107501140000000000000
B0545573206745S11654426EA0108601150000000000000
B0546013206736S11654362EA0109501156000000000000
B0546053206675S11654352EA0109801160000000000000
B0546093206635S11654404EA0109801156000000000000
B0546133206649S11654469EA0109401154000000000000
B0546173206699S11654478EA0110301168000000000000
B0546213206719S11654423EA0111101170000000000000
B0546253206676S11654366EA0111501179000000000000
B0546293206613S11654370EA0112301184000000000000
B0546333206580S11654433EA0112101177000000000000
B0546373206600S11654503EA0111201169000000000000
B0546413206654S11654537EA0111201175000000000000
B0546453206715S11654535EA0111801185000000000000
B0546493206752S11654490EA0113601206000000000000
B0546533206756S11654426EA0114401203000000000000
B0546573206713S11654371EA0113601193000000000000
B0547013206641S11654368EA0113601200000000000000
B0547053206584S11654412EA0114301206000000000000
B0547093206558S11654481EA0114801211000000000000
B0547133206565S11654548EA0115501214000000000000
B0547173206609S11654590EA0115201209000000000000
B0547213206663S11654573EA0115701223000000000000
B0547253206663S11654511EA0116901230000000000000
B0547293206609S11654468EA0116901227000000000000
B0547333206545S11654483EA0117001235000000000000
B0547373206515S11654543EA0117801240000000000000
B0547413206536S11654602EA0118301244000000000000
B0547453206583S11654604EA0118801250000000000000
B0547493206610S11654556EA0119801257000000000000
B0547533206591S11654494EA0120201262000000000000
B0547573206535S11654465EA0120301260000000000000
B0548013206474S11654494EA0120101262000000000000
B0548053206449S11654557EA0120501270000000000000
B0548093206468S11654613EA0121101270000000000000
B0548133206517S11654625EA0121201272000000000000
B0548173206548S11654578EA0121901279000000000000
B0548213206526S11654514EA0122701288000000000000
B0548253206470S11654491EA0123101287000000000000
B0548293206413S11654522EA0122501282000000000000
B0548333206383S11654586EA0122601286000000000000
B0548373206383S11654654EA0122701286000000000000
B0548413206413S11654711EA0122501282000000000000
B0548453206458S11654758EA0122501283000000000000
B0548493206510S11654794EA0122901289000000000000
B0548533206566S11654820EA0123801297000000000000
B0548573206619S11654807EA0124801305000000000000
B0549013206636S11654747EA0124301295000000000000
B0549053206596S11654695EA0123801296000000000000
B0549093206536S11654665EA0123901297000000000000
B0549133206470S11654668EA0124301304000000000000
B0549173206414S11654712EA0125101309000000000000
B0549213206381S11654778EA0125801320000000000000
B0549253206393S11654847EA0126501330000000000000
B0549293206436S11654882EA0127501337000000000000
B0549333206483S11654864EA0127801335000000000000
B0549373206491S11654807EA0127801336000000000000
B0549413206455S11654755EA0128001342000000000000
B0549453206397S11654737EA0128801350000000000000
B0549493206337S11654756EA0129301355000000000000
B0549533206299S11654812EA0129801361000000000000
B0549573206302S11654882EA0130201363000000000000
B0550013206345S11654919EA0130801370000000000000
B0550053206388S11654889EA0131201375000000000000
B0550093206379S11654823EA0131601380000000000000
B0550133206320S11654787EA0132301386000000000000
B0550173206260S11654823EA0132801392000000000000
B0550213206247S11654895EA0133201395000000000000
B0550253206286S11654940EA0133801403000000000000
B0550293206332S11654919EA0134401406000000000000
B0550333206340S11654856EA0134901414000000000000
B0550373206301S11654806EA0135901424000000000000
B0550413206240S11654806EA0136101422000000000000
B0550453206199S11654864EA0136101422000000000000
B0550493206214S11654927EA0136201424000000000000
B0550533206260S11654958EA0136101422000000000000
B0550573206309S11654947EA0136501425000000000000
B0551013206324S11654889EA0136401425000000000000
B0551053206294S11654823EA0136401425000000000000
B0551093206250S11654764EA0137001434000000000000
B0551133206188S11654752EA0137701441000000000000
B0551173206137S11654794EA0138101443000000000000
B0551213206117S11654859EA0138201445000000000000
B0551253206133S11654917EA0138301447000000000000
B0551293206168S11654962EA0138101440000000000000
B0551333206214S11655002EA0137101430000000000000
B0551373206264S11655042EA0136401421000000000000
B0551413206319S11655086EA0135101405000000000000
B0551453206375S11655132EA0134001398000000000000
B0551493206429S11655177EA0134201402000000000000
B0551533206487S11655207EA0134501404000000000000
B0551573206549S11655226EA0133801398000000000000
B0552013206613S11655245EA0133301393000000000000
B0552053206676S11655272EA0132901387000000000000
B0552093206736S11655309EA0132701385000000000000
B0552133206793S11655350EA0132401381000000000000
B0552173206852S11655393EA0131801378000000000000
B0552213206910S11655431EA0131701377000000000000
B0552253206972S11655465EA0130901367000000000000
B0552293207029S11655508EA0130401363000000000000
B0552333207077S11655558EA0130301364000000000000
B0552373207120S11655616EA0129501353000000000000
B0552413207163S11655678EA0128401339000000000000
B0552453207209S11655740EA0127101327000000000000
B0552493207256S11655803EA0126101319000000000000
B0552533207306S11655865EA0125201307000000000000
B0552573207359S11655924EA0124201298000000000000
B0553013207410S11655986EA0123401293000000000000
B0553053207458S11656052EA0123101290000000000000
B0553093207508S11656116EA0122901287000000000000
B0553133207563S11656172EA0123001291000000000000
B0553173207618S11656220EA0123201290000000000000
B0553213207671S11656267EA0122501283000000000000
B0553253207724S11656314EA0121801276000000000000
B0553293207779S11656362EA0120901266000000000000
B0553333207836S11656410EA0120201261000000000000
B0553373207893S11656454EA0120101259000000000000
B0553413207948S11656501EA0119501253000000000000
B0553453208002S11656550EA0118601241000000000000
B0553493208056S11656606EA0117601232000000000000
B0553533208103S11656671EA0116701226000000000000
B0553573208139S11656747EA0116101221000000000000
B0554013208158S11656828EA0115701218000000000000
B0554053208161S11656914EA0115401213000000000000
B0554093208152S11656999EA0115001208000000000000
B0554133208136S11657086EA0114301203000000000000
B0554173208121S11657173EA0114001200000000000000
B0554213208103S11657259EA0113701196000000000000
B0554253208082S11657343EA0113401193000000000000
B0554293208056S11657428EA0112901187000000000000
B0554333208026S11657511EA0112601189000000000000
B0554373207987S11657586EA0112601185000000000000
B0554413207940S11657657EA0112201181000000000000
B0554453207893S11657727EA0111501175000000000000
B0554493207845S11657794EA0111201173000000000000
B0554533207800S11657862EA0111301177000000000000
B0554573207757S11657926EA0112201186000000000000
B0555013207724S11657993EA0112901192000000000000
B0555053207722S11658063EA0113601199000000000000
B0555093207759S11658112EA0113901197000000000000
B0555133207810S11658108EA0113301189000000000000
B0555173207845S11658063EA0112901186000000000000
B0555213207837S11658004EA0112501185000000000000
B0555253207804S11657949EA0112301180000000000000
B0555293207761S11657893EA0111701174000000000000
B0555333207705S11657842EA0111701175000000000000
B0555373207637S11657846EA0112501183000000000000
B0555413207606S11657907EA0112801185000000000000
B0555453207620S11657975EA0112501182000000000000
B0555493207657S11658032EA0112501183000000000000
B0555533207707S11658074EA0112301178000000000000
B0555573207767S11658099EA0111401169000000000000
B0556013207830S11658123EA0110401155000000000000
B0556053207893S11658148EA0109301143000000000000
B0556093207962S11658145EA0108001133000000000000
B0556133208022S11658108EA0107301128000000000000
B0556173208073S11658052EA0106801118000000000000
B0556213208114S11657985EA0106001112000000000000
B0556253208143S11657910EA0105401107000000000000
B0556293208165S11657827EA0104901103000000000000
B0556333208177S11657741EA0104801105000000000000
B0556373208182S11657658EA0105501112000000000000
B0556413208188S11657575EA0105801116000000000000
B0556453208164S11657504EA0106401121000000000000
B0556493208100S11657510EA0106201115000000000000
B0556533208069S11657580EA0105501109000000000000
B0556573208091S11657651EA0105701116000000000000
B0557013208136S11657705EA0105901117000000000000
B0557053208194S11657709EA0106501125000000000000
B0557093208221S11657660EA0107201132000000000000
B0557133208192S11657616EA0106901120000000000000
B0557173208132S11657633EA0105601112000000000000
B0557213208109S11657698EA0105701118000000000000
B0557253208130S11657762EA0105901117000000000000
B0557293208168S11657814EA0105801116000000000000
B0557333208216S11657855EA0105401108000000000000
B0557373208278S11657881EA0104601100000000000000
B0557413208343S11657904EA0104201103000000000000
B0557453208405S11657923EA0104501101000000000000
B0557493208468S11657913EA0104001095000000000000
B0557533208504S11657855EA0103501090000000000000
B0557573208526S11657785EA0102701081000000000000
B0558013208541S11657710EA0102101076000000000000
B0558053208547S11657631EA0101801072000000000000
B0558093208550S11657551EA0101001062000000000000
B0558133208546S11657468EA0099701050000000000000
B0558173208534S11657385EA0099201045000000000000
B0558213208519S11657303EA0098701040000000000000
B0558253208495S11657222EA0098301039000000000000
B0558293208465S11657146EA0097801031000000000000
B0558333208429S11657073EA0096901020000000000000
B0558373208390S11657000EA0096001013000000000000
B0558413208348S11656931EA0095601010000000000000
B0558453208303S11656862EA0095201008000000000000
B0558493208252S11656799EA0095101006000000000000
B0558533208196S11656736EA0095101009000000000000
B0558573208136S11656682EA0095801017000000000000
B0559013208090S11656615EA0096301025000000000000
B0559053208083S11656542EA0097101029000000000000
B0559093208127S11656518EA0097501037000000000000
B0559133208149S11656574EA0098301042000000015000
B0559173208109S11656630EA0098001034000000015000
B0559213208040S11656639EA0097701033000000015000
B0559253207967S11656626EA0097701035000000015000
B0559293207900S11656593EA0097701037000000000000
B0559333207865S11656529EA0097801038000000000000
B0559373207887S11656475EA0097901037000000000000
B0559413207930S11656493EA0097601033000000015000
B0559453207963S11656545EA0097301026000000015000
B0559493208006S11656594EA0096501018000000000000
B0559533208056S11656631EA0095701012000000000000
B0559573208097S11656594EA0096001014000000000000
B0600013208071S11656527EA0095201006000000000000
B0600053208008S11656485EA0094701002000000000000
B0600093207935S11656451EA0094401000000000000000
B0600133207858S11656419EA0094401003000000000000
B0600173207781S11656410EA0096001022000000000000
B0600213207759S11656471EA0097501033000000000000
B0600253207802S11656484EA0098001041000000000000
B0600293207814S11656428EA0098701044000000000000
B0600333207758S11656392EA0099401054000000000000
B0600373207715S11656441EA0099901055000000000000
B0600413207748S11656485EA0099701055000000000000
B0600453207784S11656446EA0100601070000000000000
B0600493207754S11656388EA0101601073000000015000
B0600533207685S11656388EA0101901077000000015000
B0600573207650S11656453EA0102001077000000000000
B0601013207675S11656511EA0102501089000000000000
B0601053207714S11656496EA0103601097000000000000
B0601093207710S11656435EA0103901096000000015000
B0601133207650S11656402EA0104101099000000015000
B0601173207590S11656442EA0103901096000000000000
B0601213207579S11656516EA0104301105000000000000
B0601253207611S11656557EA0105001106000000000000
B0601293207655S11656542EA0104101095000000000000
B0601333207671S11656476EA0103801096000000000000
B0601373207641S11656406EA0104201100000000000000
B0601413207576S11656368EA0104701103000000000000
B0601453207505S11656398EA0104601098000000000000
B0601493207482S11656475EA0104301102000000000000
B0601533207533S11656490EA0104901105000000000000
B0601573207560S11656436EA0104301094000000015000
B0602013207521S11656368EA0103801093000000015000
B0602053207451S11656327EA0103501087000000015000
B0602093207375S11656338EA0103501097000000000000
B0602133207330S11656401EA0104501106000000000000
B0602173207325S11656474EA0105001109000000000000
B0602213207363S11656518EA0105501113000000000000
B0602253207412S11656540EA0105301109000000000000
B0602293207466S11656550EA0104801105000000000000
B0602333207521S11656554EA0104801105000000000000
B0602373207579S11656553EA0104701104000000000000
B0602413207637S11656544EA0104501097000000000000
B0602453207690S11656510EA0104101096000000000000
B0602493207701S11656441EA0104401100000000000000
B0602533207664S11656377EA0104201096000000000000
B0602573207597S11656349EA0103901093000000000000
B0603013207519S11656338EA0103401090000000000000
B0603053207450S11656368EA0104801110000000000000
B0603093207463S11656429EA0106101121000000000000
B0603133207506S11656411EA0106301117000000000000
B0603173207489S11656349EA0106801127000000000000
B0603213207428S11656349EA0107601135000000000000
B0603253207401S11656410EA0108001138000000000000
B0603293207428S11656461EA0108501143000000000000
B0603333207468S11656445EA0109001147000000000000
B0603373207455S11656384EA0109401153000000015000
B0603413207394S11656379EA0109901154000000015000
B0603453207358S11656440EA0109801158000000015000
B0603493207378S11656498EA0110401164000000000000
B0603533207425S11656500EA0110601164000000000000
B0603573207438S11656438EA0110801170000000000000
B0604013207395S11656393EA0112101182000000015000
B0604053207336S11656414EA0112301180000000000000
B0604093207319S11656483EA0112401186000000000000
B0604133207354S11656520EA0113001192000000000000
B0604173207398S11656503EA0113401195000000000000
B0604213207414S11656446EA0113901203000000000000
B0604253207380S11656393EA0114301205000000000000
B0604293207316S11656397EA0114701207000000000000
B0604333207286S11656459EA0115101214000000000000
B0604373207312S11656510EA0116001223000000000000
B0604413207358S11656503EA0116401227000000000000
B0604453207375S11656448EA0116701229000000000000
B0604493207343S11656388EA0116901231000000000000
B0604533207282S11656371EA0117301238000000000000
B0604573207233S11656412EA0118001244000000000000
B0605013207229S11656476EA0118401247000000000000
B0605053207267S11656510EA0118901253000000000000
B0605093207308S11656489EA0119301255000000000000
B0605133207319S11656429EA0119301256000000000000
B0605173207289S11656373EA0119701263000000000000
B0605213207232S11656349EA0120101265000000000000
B0605253207178S11656383EA0120401267000000000000
B0605293207181S11656446EA0120301265000000000000
B0605333207226S11656463EA0120601271000000000000
B0605373207256S11656422EA0121101275000000000000
B0605413207241S11656360EA0121401276000000000000
B0605453207185S11656334EA0121701280000000000000
B0605493207134S11656373EA0121701277000000000000
B0605533207141S11656441EA0121401276000000000000
B0605573207183S11656464EA0122001288000000000000
B0606013207220S11656433EA0122701290000000000000
B0606053207222S11656372EA0122901292000000000000
B0606093207181S11656321EA0123001291000000000000
B0606133207115S11656318EA0123001295000000000000
B0606173207065S11656360EA0123801303000000000000
B0606213207047S11656420EA0124001298000000000000
B0606253207069S11656476EA0123601297000000000000
B0606293207113S11656498EA0123801300000000000000
B0606333207165S11656502EA0123401292000000000000
B0606373207219S11656488EA0123001290000000000000
B0606413207248S11656431EA0123101290000000000000
B0606453207225S11656362EA0122601281000000000000
B0606493207164S11656312EA0121201268000000000000
B0606533207090S11656275EA0120601265000000000000
B0606573207008S11656262EA0120901269000000000000
B0607013206927S11656275EA0121101271000000000000
B0607053206874S11656336EA0121401272000000000000
B0607093206857S11656419EA0120701258000000000000
B0607133206871S11656502EA0119801256000000000000
B0607173206901S11656574EA0119901259000000000000
B0607213206935S11656633EA0120101259000000000000
B0607253206979S11656682EA0120101262000000000000
B0607293207027S11656718EA0120401265000000000000
B0607333207078S11656748EA0120401265000000000000
B0607373207131S11656773EA0120401263000000000000
B0607413207190S11656788EA0120101260000000000000
B0607453207256S11656793EA0119801257000000000000
B0607493207323S11656786EA0119601254000000000000
B0607533207389S11656778EA0119201251000000000000
B0607573207454S11656766EA0118901250000000000000
B0608013207519S11656758EA0119101252000000000000
B0608053207581S11656750EA0119501255000000000000
B0608093207645S11656744EA0119001247000000000000
B0608133207713S11656739EA0117801235000000000000
B0608173207778S11656741EA0117401235000000000000
B0608213207839S11656748EA0117601238000000000000
B0608253207898S11656754EA0117501234000000000000
B0608293207958S11656760EA0116701224000000000000
B0608333208021S11656770EA0116101219000000000000
B0608373208082S11656779EA0115401212000000000000
B0608413208143S11656784EA0114801209000000000000
B0608453208204S11656793EA0114401202000000000000
B0608493208264S11656819EA0113601196000000000000
B0608533208316S11656865EA0113501195000000000000
B0608573208357S11656921EA0113501196000000000000
B0609013208390S11656983EA0113701199000000000000
B0609053208421S11657048EA0113901199000000000000
B0609093208463S11657105EA0114101202000000000000
B0609133208508S11657156EA0114801209000000000000
B0609173208561S11657177EA0115801221000000000000
B0609213208580S11657122EA0116601225000000000000
B0609253208530S11657082EA0116201220000000000000
B0609293208464S11657103EA0116401227000000000000
B0609333208433S11657169EA0117501240000000000000
B0609373208463S11657220EA0118201245000000000000
B0609413208512S11657205EA0118501247000000000000
B0609453208519S11657139EA0118701251000000000000
B0609493208473S11657091EA0119601260000000000000
B0609533208408S11657098EA0120301267000000000000
B0609573208368S11657156EA0121301276000000000000
B0610013208376S11657222EA0121601276000000000000
B0610053208425S11657246EA0121801280000000000000
B0610093208454S11657196EA0122301284000000000000
B0610133208409S11657142EA0123101293000000000000
B0610173208346S11657163EA0124601305000000000000
B0610213208333S11657231EA0125001304000000000000
B0610253208376S11657273EA0125001309000000000000
B0610293208421S11657252EA0126101326000000000000
B0610333208428S11657195EA0127301332000000000000
B0610373208381S11657148EA0127601336000000000000
B0610413208318S11657165EA0128701351000000000000
B0610453208291S11657225EA0129501353000000000000
B0610493208311S11657285EA0129501354000000000000
B0610533208356S11657307EA0130301365000000000000
B0610573208395S11657280EA0131201372000000000000
B0611013208399S11657218EA0131401371000000000000
B0611053208357S11657163EA0131301371000000000000
B0611093208292S11657153EA0131901385000000000000
B0611133208236S11657189EA0133001392000000000000
B0611173208210S11657248EA0133501394000000000000
B0611213208223S11657309EA0133501394000000000000
B0611253208270S11657334EA0133901399000000000000
B0611293208314S11657313EA0134801408000000000000
B0611333208334S11657260EA0135401415000000000000
B0611373208314S11657202EA0136001421000000000000
B0611413208269S11657161EA0136701428000000000000
B0611453208209S11657160EA0137101429000000000000
B0611493208162S11657205EA0137301430000000000000
B0611533208144S11657268EA0137401432000000000000
B0611573208158S11657329EA0137401429000000000000
B0612013208201S11657363EA0137401429000000000000
B0612053208256S11657373EA0137301428000000000000
B0612093208304S11657341EA0137201422000000000000
B0612133208320S11657270EA0136701421000000000000
B0612173208301S11657195EA0137001421000000000000
B0612213208270S11657124EA0136201412000000000000
B0612253208223S11657060EA0136401419000000000000
B0612293208155S11657046EA0137501433000000000000
B0612333208114S11657098EA0138401438000000000000
B0612373208135S11657159EA0138101434000000000000
B0612413208186S11657156EA0138401441000000000000
B0612453208203S11657100EA0139401453000000000000
B0612493208177S11657043EA0139901455000000000000
B0612533208126S11656995EA0140001455000000000000
B0612573208060S11656982EA0140101454000000000000
B0613013208012S11657027EA0140101459000000000000
B0613053208017S11657088EA0140401457000000000000
B0613093208058S11657127EA0139301443000000000000
B0613133208099S11657178EA0138301439000000000000
B0613173208119S11657247EA0139301452000000000000
B0613213208134S11657316EA0140201460000000000000
B0613253208157S11657381EA0140401457000000000000
B0613293208205S11657413EA0139801447000000000000
B0613333208262S11657403EA0138601436000000000000
B0613373208308S11657356EA0138101434000000000000
B0613413208316S11657287EA0138101433000000000000
B0613453208281S11657224EA0137601428000000000000
B0613493208226S11657179EA0136701418000000000000
B0613533208175S11657129EA0135701411000000000000
B0613573208136S11657068EA0135601413000000000000
B0614013208101S11657004EA0136201420000000000000
B0614053208047S11656966EA0137001427000000000000
B0614093207992S11656997EA0137401425000000000000
B0614133207987S11657065EA0136801422000000000000
B0614173208026S11657109EA0136701421000000000000
B0614213208080S11657100EA0136901428000000000000
B0614253208103S11657046EA0138301448000000000000
B0614293208065S11656996EA0139001448000000000000
B0614333208001S11657000EA0139001446000000000000
B0614373207971S11657060EA0138801445000000000000
B0614413207992S11657117EA0138801445000000000000
B0614453208039S11657146EA0138701447000000000000
B0614493208091S11657151EA0138801444000000000000
B0614533208130S11657101EA0138301435000000000000
B0614573208119S11657030EA0138101437000000000000
B0615013208067S11656986EA0138101438000000000000
B0615053208001S11656966EA0137801437000000000000
B0615093207932S11656955EA0137701435000000000000
B0615133207867S11656974EA0137901438000000000000
B0615173207836S11657039EA0137501427000000000000
B0615213207852S11657116EA0136701425000000000000
B0615253207888S11657176EA0137101431000000000000
B0615293207935S11657217EA0137901438000000000000
B0615333207987S11657247EA0138101440000000000000
B0615373208039S11657238EA0138101433000000000000
B0615413208067S11657181EA0136801416000000000000
B0615453208087S11657105EA0135501407000000000000
B0615493208108S11657027EA0134901402000000000000
B0615533208127S11656952EA0135101411000000000000
B0615573208145S11656877EA0136001417000000000000
B0616013208140S11656795EA0135901412000000000000
B0616053208092S11656728EA0136001417000000000000
B0616093208021S11656706EA0136601426000000000000
B0616133207956S11656728EA0137201432000000000000
B0616173207909S11656778EA0137301428000000000000
B0616213207892S11656851EA0136501419000000000000
B0616253207910S11656921EA0136101416000000000000
B0616293207950S11656977EA0135301403000000000000
B0616333208014S11657003EA0134401396000000000000
B0616373208082S11656994EA0134401401000000000000
B0616413208131S11656944EA0135001405000000000000
B0616453208156S11656875EA0135401410000000000000
B0616493208143S11656804EA0135501411000000000000
B0616533208092S11656754EA0135701417000000000000
B0616573208025S11656748EA0136001420000000000000
B0617013207969S11656789EA0136001416000000000000
B0617053207927S11656853EA0135601413000000000000
B0617093207897S11656923EA0135901418000000000000
B0617133207874S11656992EA0136101418000000000000
B0617173207852S11657062EA0135401408000000000000
B0617213207839S11657140EA0134401397000000000000
B0617253207833S11657224EA0133501387000000000000
B0617293207835S11657311EA0132801383000000000000
B0617333207837S11657397EA0132601380000000000000
B0617373207840S11657481EA0132201378000000000000
B0617413207849S11657563EA0132101378000000000000
B0617453207870S11657637EA0132201377000000000000
B0617493207902S11657705EA0131701371000000000000
B0617533207952S11657754EA0131001361000000000000
B0617573208010S11657789EA0130301357000000000000
B0618013208070S11657816EA0129901356000000000000
B0618053208130S11657840EA0129801353000000000000
B0618093208194S11657850EA0129601351000000000000
B0618133208256S11657840EA0129301347000000000000
B0618173208312S11657802EA0128401336000000000000
B0618213208361S11657745EA0127301326000000000000
B0618253208408S11657683EA0126401319000000000000
B0618293208463S11657633EA0126401322000000000000
B0618333208517S11657602EA0126801327000000000000
B0618373208572S11657580EA0126701321000000000000
B0618413208628S11657553EA0125901313000000000000
B0618453208684S11657525EA0125401311000000000000
B0618493208738S11657502EA0124901303000000000000
B0618533208797S11657476EA0123701293000000000000
B0618573208855S11657450EA0123101289000000000000
B0619013208915S11657424EA0123201290000000000000
B0619053208972S11657398EA0123101287000000000000
B0619093209027S11657367EA0122501281000000000000
B0619133209070S11657316EA0122101275000000000000
B0619173209091S11657248EA0121701273000000000000
B0619213209085S11657176EA0121401269000000000000
B0619253209050S11657109EA0120501259000000000000
B0619293209000S11657051EA0119501250000000000000
B0619333208944S11656996EA0118901245000000000000
B0619373208885S11656947EA0118301243000000000000
B0619413208821S11656912EA0118501245000000000000
B0619453208759S11656878EA0118101239000000000000
B0619493208693S11656843EA0117401228000000000000
B0619533208623S11656805EA0116401218000000000000
B0619573208552S11656762EA0115601214000000000000
B0620013208491S11656714EA0115701219000000000000
B0620053208437S11656663EA0116001220000000000000
B0620093208382S11656615EA0115601214000000000000
B0620133208322S11656566EA0114901208000000000000
B0620173208264S11656510EA0115001210000000000000
B0620213208201S11656458EA0114801206000000000000
B0620253208132S11656418EA0114301203000000000000
B0620293208065S11656379EA0114701212000000000000
B0620333208002S11656336EA0115301215000000000000
B0620373207937S11656295EA0115101211000000000000
B0620413207870S11656264EA0115401217000000000000
B0620453207800S11656246EA0115801220000000000000
B0620493207732S11656228EA0115601218000000000000
B0620533207668S11656197EA0115401217000000000000
B0620573207627S11656136EA0115201212000000000000
B0621013207625S11656060EA0114701207000000000000
B0621053207657S11656003EA0114401205000000000000
B0621093207709S11655982EA0113101172000000000000
B0621133207785S11656000EA0108901138000000000000
B0621173207848S11655995EA0109601179000000000000
B0621213207857S11655942EA0111401154000000015000
B0621253207785S11655895EA0105801103000000015000
B0621293207728S11655848EA0106501153000000015000
B0621333207737S11655792EA0108001120000000015000
B0621373207811S11655799EA0100801036000000015000
B0621413207898S11655851EA0097001036000000015000
B0621453207970S11655911EA0098301056000000000000
B0621493208023S11655969EA0099901067000000000000
B0621533208073S11656025EA0100601071000000000000
B0621573208122S11656078EA0100901072000000000000
B0622013208171S11656129EA0101301073000000000000
B0622053208227S11656156EA0101901082000000000000
B0622093208265S11656112EA0103001093000000000000
B0622133208233S11656047EA0102201072000000000000
B0622173208149S11656048EA0100601066000000000000
B0622213208097S11656121EA0101301079000000000000
B0622253208099S11656202EA0102401090000000000000
B0622293208140S11656246EA0103301098000000000000
B0622333208195S11656273EA0103601098000000000000
B0622373208235S11656327EA0104301111000000000000
B0622413208201S11656383EA0105101117000000015000
B0622453208145S11656357EA0105101115000000015000
B0622493208131S11656288EA0105201119000000000000
B0622533208166S11656237EA0106501139000000000000
B0622573208217S11656236EA0108301152000000015000
B0623013208251S11656280EA0109301159000000015000
B0623053208242S11656344EA0109501156000000015000
B0623093208191S11656381EA0109701163000000015000
B0623133208132S11656366EA0109801159000000015000
B0623173208097S11656305EA0109601161000000015000
B0623213208109S11656241EA0110601179000000015000
B0623253208157S11656234EA0112101184000000015000
B0623293208181S11656290EA0112601190000000015000
B0623333208147S11656344EA0113001194000000015000
B0623373208084S11656336EA0113001189000000015000
B0623413208057S11656272EA0113401202000000015000
B0623453208086S11656221EA0115001216000000015000
B0623493208136S11656225EA0115701218000000015000
B0623533208158S11656284EA0116001220000000015000
B0623573208114S11656333EA0116101220000000015000
B0624013208052S11656311EA0116101224000000015000
B0624053208030S11656242EA0116901237000000015000
B0624093208054S11656185EA0118101250000000015000
B0624133208103S11656176EA0119101252000000015000
B0624173208130S11656234EA0118601251000000015000
B0624213208105S11656297EA0119101259000000015000
B0624253208049S11656319EA0119701261000000015000
B0624293207988S11656297EA0119901259000000015000
B0624333207930S11656255EA0119901263000000015000
B0624373207904S11656188EA0120301271000000015000
B0624413207918S11656128EA0121101280000000015000
B0624453207965S11656113EA0122101288000000015000
B0624493207997S11656156EA0123001298000000015000
B0624533207979S11656219EA0124101304000000015000
B0624573207919S11656247EA0124601308000000015000
B0625013207859S11656220EA0125201312000000015000
B0625053207826S11656159EA0125201309000000015000
B0625093207835S11656089EA0124601304000000015000
B0625133207880S11656046EA0125101311000000015000
B0625173207930S11656051EA0125801322000000015000
B0625213207941S11656115EA0126601325000000015000
B0625253207893S11656165EA0127101335000000015000
B0625293207830S11656145EA0127901339000000015000
B0625333207817S11656076EA0128101338000000015000
B0625373207859S11656039EA0128201343000000015000
B0625413207904S11656065EA0128801349000000015000
B0625453207905S11656132EA0129401356000000015000
B0625493207849S11656165EA0130101362000000015000
B0625533207793S11656126EA0130401363000000015000
B0625573207781S11656059EA0130901371000000015000
B0626013207813S11656013EA0131401372000000015000
B0626053207861S11656007EA0131401372000000015000
B0626093207900S11656041EA0131701378000000015000
B0626133207904S11656099EA0132301384000000015000
B0626173207862S11656147EA0132701385000000015000
B0626213207800S11656145EA0133201393000000015000
B0626253207763S11656091EA0133701396000000015000
B0626293207779S11656033EA0133601394000000015000
B0626333207826S11656013EA0133501398000000015000
B0626373207871S11656022EA0133901399000000000000
B0626413207918S11656037EA0133801398000000000000
B0626453207966S11656045EA0133801398000000000000
B0626493208019S11656048EA0133301393000000000000
B0626533208075S11656050EA0133101392000000000000
B0626573208131S11656056EA0133401396000000000000
B0627013208186S11656063EA0133601394000000000000
B0627053208244S11656073EA0132701382000000000000
B0627093208304S11656090EA0131701371000000000000
B0627133208365S11656108EA0130701361000000000000
B0627173208426S11656134EA0129901356000000000000
B0627213208487S11656164EA0129801355000000000000
B0627253208550S11656197EA0129701354000000000000
B0627293208607S11656219EA0129901364000000000000
B0627333208660S11656233EA0130701367000000000000
B0627373208716S11656246EA0130101353000000000000
B0627413208782S11656256EA0128601341000000000000
B0627453208851S11656266EA0128101337000000000000
B0627493208915S11656277EA0128001340000000000000
B0627533208974S11656294EA0128501344000000000000
B0627573209031S11656315EA0128201339000000000000
B0628013209088S11656337EA0127501333000000000000
B0628053209145S11656355EA0126801326000000000000
B0628093209202S11656376EA0126301320000000000000
B0628133209261S11656392EA0126301321000000000000
B0628173209321S11656403EA0126401324000000000000
B0628213209378S11656412EA0126601327000000000000
B0628253209432S11656424EA0127201334000000000000
B0628293209488S11656436EA0127501332000000000000
B0628333209544S11656424EA0127201328000000000000
B0628373209586S11656377EA0127001326000000000000
B0628413209604S11656303EA0126701325000000000000
B0628453209587S11656224EA0127001330000000000000
B0628493209546S11656156EA0127201328000000000000
B0628533209482S11656111EA0126701320000000000000
B0628573209408S11656090EA0126001315000000000000
B0629013209331S11656085EA0124701301000000000000
B0629053209250S11656091EA0123401290000000000000
B0629093209167S11656108EA0122701283000000000000
B0629133209089S11656141EA0122301279000000000000
B0629173209019S11656188EA0121701274000000000000
B0629213208959S11656246EA0121301268000000000000
B0629253208902S11656307EA0120601261000000000000
B0629293208847S11656372EA0120001254000000000000
B0629333208794S11656437EA0119501247000000000000
B0629373208747S11656509EA0118601240000000000000
B0629413208707S11656584EA0117701230000000000000
B0629453208668S11656662EA0117101226000000000000
B0629493208623S11656737EA0116701223000000000000
B0629533208567S11656802EA0116401218000000000000
B0629573208503S11656856EA0116101219000000000000
B0630013208433S11656892EA0116101218000000000000
B0630053208360S11656909EA0115901216000000000000
B0630093208290S11656903EA0115701213000000000000
B0630133208227S11656862EA0114801203000000000000
B0630173208183S11656792EA0113701193000000000000
B0630213208158S11656710EA0113001185000000000000
B0630253208155S11656626EA0112101177000000000000
B0630293208169S11656545EA0111501171000000000000
B0630333208199S11656474EA0111101168000000000000
B0630373208238S11656411EA0110601162000000000000
B0630413208281S11656354EA0109901153000000000000
B0630453208331S11656302EA0108701141000000000000
B0630493208391S11656258EA0107801135000000000000
B0630533208457S11656228EA0107501128000000000000
B0630573208530S11656224EA0106801125000000000000
B0631013208603S11656242EA0106701120000000000000
B0631053208673S11656282EA0105701108000000000000
B0631093208740S11656340EA0104301093000000000000
B0631133208798S11656411EA0103201085000000000000
B0631173208847S11656492EA0102501078000000000000
B0631213208890S11656578EA0101201066000000000000
B0631253208925S11656667EA0100401059000000000000
B0631293208946S11656765EA0099701053000000000000
B0631333208957S11656860EA0099801052000000000000
B0631373208974S11656951EA0099301045000000000000
B0631413208989S11657043EA0097901027000000000000
B0631453208994S11657146EA0095701004000000000000
B0631493208987S11657256EA0093800991000000000000
B0631533208974S11657367EA0093500989000000000000
B0631573208959S11657465EA0094101005000000000000
B0632013208942S11657555EA0095501013000000000000
B0632053208922S11657640EA0095701013000000000000
B0632093208892S11657725EA0095501008000000000000
B0632133208860S11657813EA0094600999000000000000
B0632173208831S11657900EA0094200997000000000000
B0632213208803S11657987EA0093700991000000000000
B0632253208779S11658078EA0093100988000000000000
B0632293208758S11658171EA0092700983000000000000
B0632333208743S11658264EA0092800984000000000000
B0632373208756S11658346EA0092500982000000000000
B0632413208797S11658409EA0092200978000000000000
B0632453208851S11658448EA0091900974000000000000
B0632493208910S11658477EA0091200964000000000000
B0632533208971S11658507EA0090500960000000000000
B0632573209032S11658539EA0089800953000000000000
B0633013209093S11658578EA0089300948000000000000
B0633053209156S11658612EA0088900944000000000000
B0633093209219S11658637EA0088700942000000000000
B0633133209283S11658638EA0088000935000000000000
B0633173209345S11658615EA0087100925000000000000
B0633213209405S11658570EA0085800911000000000000
B0633253209461S11658515EA0084800900000000000000
B0633293209513S11658451EA0084000895000000000000
B0633333209564S11658387EA0083200884000000000000
B0633373209612S11658317EA0081900871000000000000
B0633413209655S11658243EA0081100866000000000000
B0633453209695S11658173EA0080700862000000000000
B0633493209735S11658101EA0080400861000000000000
B0633533209770S11658026EA0080300858000000000000
B0633573209804S11657953EA0080000855000000000000
B0634013209832S11657879EA0079700855000000000000
B0634053209856S11657803EA0079700856000000000000
B0634093209885S11657735EA0079900859000000000000
B0634133209939S11657699EA0080300865000000000000
B0634173209999S11657692EA0081200874000000000000
B0634213210045S11657659EA0081400871000000000000
B0634253210045S11657593EA0080400855000000000000
B0634293209993S11657546EA0079000845000000000000
B0634333209929S11657515EA0078300838000000000000
B0634373209860S11657489EA0078100840000000000000
B0634413209790S11657472EA0078200843000000000000
B0634453209720S11657473EA0078200840000000000000
B0634493209650S11657481EA0077800839000000000000
B0634533209586S11657497EA0078700852000000000000
B0634573209578S11657559EA0079800855000000000000
B0635013209627S11657577EA0079200849000000000000
B0635053209657S11657527EA0078500842000000000000
B0635093209638S11657459EA0078400846000000000000
B0635133209590S11657411EA0078800846000000000000
B0635173209529S11657387EA0078800846000000000000
B0635213209468S11657403EA0078100838000000000000
B0635253209406S11657436EA0077100824000000000000
B0635293209338S11657446EA0076200823000000000000
B0635333209270S11657433EA0076300823000000000000
B0635373209206S11657408EA0076200819000000000000
B0635413209140S11657380EA0075100805000000000000
B0635453209070S11657345EA0073700794000000000000
B0635493209003S11657300EA0072900786000000000000
B0635533208942S11657248EA0072500784000000000000
B0635573208879S11657200EA0071700774000000000000
B0636013208812S11657150EA0070000757000000000000
B0636053208747S11657092EA0069100749000000000000
B0636093208682S11657033EA0068100737000000000000
B0636133208620S11656970EA0066800724000000000000
B0636173208559S11656904EA0066000717000000000000
B0636213208499S11656840EA0065500714000000000000
B0636253208437S11656780EA0065000708000000000000
B0636293208372S11656724EA0064200698000000000000
B0636333208301S11656678EA0063200689000000000000
B0636373208225S11656649EA0062700685000000000000
B0636413208151S11656613EA0062200683000000000000
B0636453208091S11656561EA0062200684000000000000
B0636493208043S11656500EA0062400686000000000000
B0636533208000S11656437EA0062400685000000000000
B0636573207967S11656367EA0062200685000000000000
B0637013207995S11656305EA0063000699000000000000
B0637053208044S11656329EA0064200707000000000000
B0637093208023S11656388EA0064900710000000000000
B0637133207963S11656375EA0064600705000000000000
B0637173207948S11656305EA0064700710000000000000
B0637213207991S11656263EA0065700722000000000000
B0637253208017S11656312EA0066900727000000015000
B0637293207966S11656353EA0066400723000000015000
B0637333207917S11656306EA0066800734000000015000
B0637373207935S11656246EA0067900743000000000000
B0637413207982S11656256EA0068300743000000015000
B0637453207989S11656321EA0068400747000000015000
B0637493207943S11656364EA0069100753000000015000
B0637533207888S11656341EA0069600760000000015000
B0637573207878S11656279EA0070400766000000000000
B0638013207911S11656241EA0071100776000000000000
B0638053207948S11656273EA0071400768000000000000
B0638093207931S11656342EA0070500768000000000000
B0638133207876S11656368EA0071800782000000000000
B0638173207832S11656329EA0072400782000000000000
B0638213207841S11656269EA0072400789000000000000
B0638253207889S11656264EA0073200795000000000000
B0638293207906S11656325EA0073600800000000015000
B0638333207869S11656371EA0074500812000000015000
B0638373207815S11656368EA0075400813000000000000
B0638413207781S11656316EA0074900806000000015000
B0638453207797S11656255EA0075300820000000000000
B0638493207841S11656246EA0076900833000000000000
B0638533207866S11656293EA0077200833000000015000
B0638573207841S11656350EA0077900841000000000000
B0639013207785S11656363EA0078500849000000015000
B0639053207742S11656323EA0079000850000000000000
B0639093207745S11656259EA0079300858000000000000
