ACAM4N6
HFDTE100922
HFFXA050
HFPLTPILOT:JOHN WELSH              
HFGTYGLIDERTYPE:HORNET      
HFGIDGLIDERID:VH-GMY      
HFDTM100GPSDATUM:
HFRFWFIRMWAREVERSION:F2.6
HFRHWHARDWAREVERSION:300 Series Version 2
HFFTYFRTYPE:CAMBRIDGE AERO INSTRUMENTS, 302+
HFGPS:GARMIN,LVS-25,12,18000
HFPRSPRESSALTSENSOR:INTERSEMA, MS5534-AP, 20000
I033638FXA3941ENL4247REX
LCAMSBVER:5FWVER:F26300
C100922042344100922000102
C0000000N00000000WTAKEOFF     
C3207549S11656849EBEVAIR      
C3155216S11657749EGreen Hills 
C3159766S11709882EMawson      
C3207549S11656849EBEVAIR      
C0000000N00000000WLANDING     
B0433543207330S11656864EA0017100206000000000000
B0433563207330S11656864EA0017200206000000000000
B0433583207330S11656864EA0017200206000004000000
B0434003207330S11656864EA0017100206000004000000
B0434023207330S11656864EA0017100206000000000000
B0434043207330S11656864EA0017200206000000000000
B0434063207330S11656864EA0017200206000000000000
B0434083207330S11656864EA0017200206000000000000
B0434103207330S11656864EA0017200206000000000000
B0434123207330S11656864EA0017200206000000000000
B0434143207330S11656864EA0017200206000000000000
B0434163207330S11656864EA0017200206000000000000
B0434183207330S11656864EA0017200206000000000000
B0434203207330S11656864EA0017300206000000000000
B0434223207332S11656865EA0017300206000000000000
B0434253207345S11656873EA0017300206000004000000
B0434293207373S11656892EA0017200205000004000000
B0434333207417S11656919EA0017200205000004000000
B0434373207473S11656955EA0017400207000004000000
B0434413207540S11656992EA0017600210000004000000
B0434453207606S11657035EA0018100218000004000000
B0434493207671S11657081EA0019100230000004000000
B0434533207735S11657125EA0020700251000004000000
B0434573207794S11657165EA0022400271000004000000
B0435013207854S11657203EA0024100292000004000000
B0435053207913S11657243EA0025900307000004000000
B0435093207950S11657311EA0027200319000004000000
B0435133207954S11657395EA0028400326000004000000
B0435173207923S11657476EA0029100336000004000000
B0435213207862S11657532EA0030600359000004000000
B0435253207789S11657556EA0032900375000004000000
B0435293207713S11657555EA0034100387000004000000
B0435333207640S11657536EA0035400401000000000000
B0435373207570S11657508EA0036900415000004000000
B0435413207503S11657469EA0038300429000004000000
B0435453207443S11657413EA0039700443000004000000
B0435493207406S11657334EA0040900455000004000000
B0435533207393S11657247EA0042000470000000000000
B0435573207395S11657157EA0043200479000000000000
B0436013207416S11657072EA0044400497000004000000
B0436053207451S11656990EA0046300512000004000000
B0436093207506S11656926EA0048000530000000000000
B0436133207576S11656899EA0049900547000000000000
B0436173207653S11656899EA0051300558000000000000
B0436213207723S11656923EA0053000575000000000000
B0436253207783S11656970EA0055100598000000000000
B0436293207839S11657020EA0056500614000000000000
B0436333207872S11657090EA0057900630000000000000
B0436373207872S11657169EA0059300641000000000000
B0436413207849S11657246EA0060500652000000000000
B0436453207807S11657315EA0061600665000000000000
B0436493207752S11657368EA0062700674000000000000
B0436533207687S11657404EA0063800688000004000000
B0436573207618S11657433EA0065300700000000000000
B0437013207550S11657469EA0066200711000000000000
B0437053207484S11657510EA0067400720000004000000
B0437093207415S11657543EA0068200733000000000000
B0437133207345S11657571EA0069500745000000000000
B0437173207272S11657595EA0070700756000004000000
B0437213207198S11657614EA0071700767000000000000
B0437253207125S11657627EA0073400783000000000000
B0437293207051S11657642EA0074200790000000000000
B0437333206977S11657660EA0075100798000000000000
B0437373206901S11657679EA0075800805000000000000
B0437413206826S11657694EA0077100819000000000000
B0437453206749S11657706EA0078500837000000000000
B0437493206684S11657731EA0079900846000000000000
B0437533206656S11657789EA0080500849000000000000
B0437573206676S11657846EA0080600849000004000000
B0438013206731S11657854EA0080400843000004000000
B0438053206777S11657805EA0079700836000000000000
B0438093206783S11657731EA0079000829000000015000
B0438133206749S11657666EA0077800817000000015000
B0438173206689S11657631EA0076900809000000015000
B0438213206623S11657619EA0076500806000000015000
B0438253206557S11657621EA0076200802000000000000
B0438293206489S11657634EA0075900799000004000000
B0438333206429S11657667EA0075600798000004000000
B0438373206419S11657733EA0076100805000004000000
B0438413206472S11657744EA0077100817000004015000
B0438453206488S11657676EA0077800821000004015000
B0438493206436S11657638EA0077800816000004015000
B0438533206384S11657675EA0077600819000000015000
B0438573206388S11657742EA0078100823000000015000
B0439013206441S11657772EA0078800836000000015000
B0439053206497S11657741EA0079700840000000015000
B0439093206515S11657664EA0080000842000000015000
B0439133206485S11657594EA0080100841000000015000
B0439173206423S11657563EA0079800836000000015000
B0439213206358S11657582EA0079400831000000015000
B0439253206318S11657644EA0079200829000000015000
B0439293206310S11657719EA0079600836000000015000
B0439333206367S11657736EA0081100852000000015000
B0439373206387S11657670EA0082000857000000015000
B0439413206338S11657628EA0082500864000000015000
B0439453206296S11657664EA0083200873000000015000
B0439493206311S11657720EA0083800880000000015000
B0439533206364S11657718EA0084500889000000015000
B0439573206385S11657655EA0085400896000000015000
B0440013206350S11657607EA0085900901000000015000
B0440053206303S11657629EA0086300905000000015000
B0440093206307S11657689EA0086600912000000015000
B0440133206357S11657699EA0087300921000000015000
B0440173206384S11657641EA0088000923000000015000
B0440213206348S11657588EA0088400929000000015000
B0440253206297S11657606EA0088900935000004015000
B0440293206293S11657666EA0089300944000004015000
B0440333206336S11657690EA0090400953000004015000
B0440373206379S11657651EA0090900956000004015000
B0440413206370S11657586EA0091400962000004015000
B0440453206322S11657563EA0091900966000004015000
B0440493206284S11657606EA0091700963000004015000
B0440533206311S11657660EA0092000973000004015000
B0440573206362S11657637EA0093000984000000015000
B0441013206357S11657568EA0093400984000004015000
B0441053206303S11657549EA0093900990000004015000
B0441093206271S11657599EA0094100992000000015000
B0441133206293S11657654EA0094901006000000015000
B0441173206344S11657657EA0095701012000000015000
B0441213206371S11657599EA0096101010000000015000
B0441253206342S11657540EA0096201014000000015000
B0441293206289S11657537EA0097001024000000015000
B0441333206263S11657592EA0097201022000000015000
B0441373206293S11657649EA0097301028000000015000
B0441413206348S11657638EA0098101035000000015000
B0441453206366S11657567EA0097801027000004015000
B0441493206328S11657501EA0097901033000000015000
B0441533206266S11657486EA0098901043000004015000
B0441573206218S11657527EA0099501052000004015000
B0442013206205S11657592EA0100301059000004015000
B0442053206236S11657644EA0101101071000004015000
B0442093206281S11657623EA0102101078000004015000
B0442133206283S11657558EA0102201071000004015000
B0442173206234S11657517EA0102201078000004015000
B0442213206182S11657541EA0103001083000004015000
B0442253206163S11657602EA0103101083000000015000
B0442293206190S11657662EA0102601077000000015000
B0442333206240S11657711EA0101601064000000015000
B0442373206303S11657754EA0100401053000000000000
B0442413206372S11657793EA0100301053000000000000
B0442453206442S11657829EA0100001048000000000000
B0442493206511S11657865EA0099901050000004000000
B0442533206576S11657900EA0100001046000004000000
B0442573206643S11657935EA0099001036000000000000
B0443013206709S11657969EA0098701034000000000000
B0443053206777S11658000EA0098401030000004000000
B0443093206842S11658032EA0098501032000004000000
B0443133206907S11658065EA0098101025000004000000
B0443173206975S11658092EA0097901025000004000000
B0443213207044S11658110EA0098501034000004000000
B0443253207109S11658122EA0099401044000004000000
B0443293207172S11658132EA0100001047000004000000
B0443333207235S11658140EA0100201049000004000000
B0443373207297S11658148EA0100401051000004000000
B0443413207358S11658149EA0100501051000004000000
B0443453207421S11658157EA0100601054000004000000
B0443493207476S11658188EA0100901053000004000000
B0443533207524S11658231EA0100801049000004000000
B0443573207581S11658260EA0100001040000004000000
B0444013207644S11658240EA0099801041000004000000
B0444053207677S11658171EA0100001043000004000000
B0444093207658S11658095EA0100301044000004000000
B0444133207601S11658049EA0100201047000000000000
B0444173207536S11658032EA0100501050000000000000
B0444213207469S11658034EA0100501050000000000000
B0444253207404S11658049EA0100201046000000000000
B0444293207342S11658074EA0100701056000000000000
B0444333207319S11658127EA0102301071000000000000
B0444373207365S11658151EA0103501080000004000000
B0444413207398S11658097EA0103701076000004015000
B0444453207360S11658041EA0102801069000000015000
B0444493207303S11658058EA0103201081000004015000
B0444533207278S11658117EA0104101091000000015000
B0444573207304S11658171EA0105201105000000015000
B0445013207355S11658149EA0106701119000004015000
B0445053207360S11658082EA0107301118000000015000
B0445093207315S11658037EA0107201119000000015000
B0445133207263S11658062EA0107501123000000015000
B0445173207263S11658131EA0107701130000000015000
B0445213207319S11658157EA0108601142000000015000
B0445253207365S11658109EA0109801150000000015000
B0445293207360S11658035EA0109701144000000015000
B0445333207310S11657993EA0109301141000000015000
B0445373207250S11658014EA0109801147000000015000
B0445413207208S11658069EA0110401160000000015000
B0445453207234S11658121EA0111901173000004015000
B0445493207280S11658076EA0112601180000004015000
B0445533207255S11658009EA0113701192000004015000
B0445573207198S11658015EA0114601203000004015000
B0446013207186S11658074EA0116001221000004015000
B0446053207226S11658108EA0117301230000004015000
B0446093207269S11658075EA0118301238000004015000
B0446133207263S11658009EA0119201243000004015000
B0446173207209S11657985EA0119801252000000015000
B0446213207177S11658035EA0120801261000000015000
B0446253207215S11658075EA0121301267000004015000
B0446293207261S11658037EA0122301279000000015000
B0446333207252S11657970EA0123501289000004015000
B0446373207199S11657950EA0124501298000004015000
B0446413207164S11657995EA0125101304000004015000
B0446453207193S11658043EA0125501310000004015000
B0446493207245S11658024EA0126201320000004015000
B0446533207254S11657956EA0127101326000000015000
B0446573207208S11657913EA0128101334000000015000
B0447013207164S11657950EA0128801340000000015000
B0447053207189S11658006EA0128901344000000015000
B0447093207245S11657992EA0129701356000000015000
B0447133207264S11657926EA0131101365000004015000
B0447173207234S11657863EA0131801371000000015000
B0447213207178S11657863EA0132201374000000015000
B0447253207151S11657922EA0132701382000000015000
B0447293207178S11657978EA0133201390000000015000
B0447333207230S11657984EA0134301405000004015000
B0447373207272S11657940EA0135401407000004015000
B0447413207273S11657870EA0135401403000004015000
B0447453207228S11657816EA0135101403000000015000
B0447493207168S11657818EA0135901413000000015000
B0447533207143S11657875EA0136301417000000015000
B0447573207182S11657922EA0136501422000000015000
B0448013207241S11657898EA0137301430000000015000
B0448053207261S11657828EA0138101435000000015000
B0448093207230S11657764EA0138501436000000015000
B0448133207174S11657755EA0138701438000000015000
B0448173207121S11657784EA0138701434000000015000
B0448213207066S11657822EA0138801439000004000000
B0448253207014S11657862EA0139901447000004000000
B0448293207003S11657927EA0141101458000004000000
B0448333207048S11657965EA0141801462000004000000
B0448373207096S11657935EA0141901461000000015000
B0448413207100S11657863EA0141501458000000015000
B0448453207053S11657813EA0141801463000000015000
B0448493206988S11657810EA0142301473000004015000
B0448533206938S11657852EA0143201480000000015000
B0448573206933S11657919EA0143701484000004015000
B0449013206978S11657962EA0143401475000004015000
B0449053207039S11657948EA0142601470000000015000
B0449093207083S11657893EA0142401468000004015000
B0449133207107S11657818EA0142101464000000015000
B0449173207107S11657736EA0142301469000004000000
B0449213207082S11657660EA0142901475000004000000
B0449253207022S11657625EA0143201473000004000000
B0449293206962S11657655EA0142901469000004000000
B0449333206948S11657727EA0142501467000004000000
B0449373206979S11657790EA0142801474000004015000
B0449413207034S11657826EA0143401478000004015000
B0449453207096S11657846EA0143401473000004000000
B0449493207165S11657829EA0142901472000004000000
B0449533207216S11657764EA0143201476000004000000
B0449573207248S11657681EA0143201475000004000000
B0450013207267S11657589EA0143301472000000000000
B0450053207264S11657493EA0142701462000000000000
B0450093207229S11657403EA0141801456000000000000
B0450133207174S11657330EA0141101448000000000000
B0450173207108S11657269EA0140401442000000000000
B0450213207033S11657220EA0140201441000000000000
B0450253206951S11657203EA0140801446000000000000
B0450293206883S11657238EA0141301449000004000000
B0450333206849S11657309EA0140801441000004000000
B0450373206851S11657393EA0140001427000004000000
B0450413206866S11657480EA0138201408000004000000
B0450453206871S11657579EA0136101386000000000000
B0450493206852S11657686EA0134901372000000000000
B0450533206812S11657790EA0133501361000000000000
B0450573206760S11657883EA0133401367000000000000
B0451013206702S11657965EA0133401363000000000000
B0451053206645S11658044EA0133001361000000000000
B0451093206589S11658123EA0132601358000000000000
B0451133206533S11658196EA0133201369000000000000
B0451173206480S11658258EA0133601368000004000000
B0451213206429S11658322EA0133201366000000000000
B0451253206381S11658385EA0133101366000000000000
B0451293206332S11658443EA0133101366000000000000
B0451333206283S11658499EA0132801362000000000000
B0451373206232S11658556EA0132301357000000000000
B0451413206182S11658615EA0131701349000000000000
B0451453206130S11658672EA0130901344000000000000
B0451493206076S11658726EA0130401339000000000000
B0451533206023S11658781EA0130001335000004000000
B0451573205969S11658838EA0129501330000000000000
B0452013205917S11658894EA0128801324000000000000
B0452053205861S11658946EA0128301316000000000000
B0452093205804S11658999EA0127201305000000000000
B0452133205751S11659059EA0126401299000000000000
B0452173205699S11659119EA0125801292000000000000
B0452213205653S11659179EA0125501292000004000000
B0452253205612S11659240EA0125401291000000000000
B0452293205571S11659304EA0124901284000004000000
B0452333205532S11659369EA0124201278000004000000
B0452373205492S11659431EA0123601272000000000000
B0452413205452S11659496EA0123301268000000000000
B0452453205415S11659564EA0122901266000000000000
B0452493205383S11659633EA0122401261000000000000
B0452533205356S11659707EA0121901257000000000000
B0452573205336S11659781EA0121901257000000000000
B0453013205328S11659856EA0121801256000000000000
B0453053205330S11659930EA0121501253000000000000
B0453093205339S11700004EA0121201252000000000000
B0453133205353S11700075EA0121801259000000000000
B0453173205395S11700124EA0121701252000000000000
B0453213205457S11700132EA0120801244000000000000
B0453253205508S11700082EA0120701245000000000000
B0453293205512S11700003EA0120601240000000000000
B0453333205471S11659937EA0119801233000000015000
B0453373205410S11659898EA0118801225000004000000
B0453413205339S11659889EA0118101216000000000000
B0453453205269S11659908EA0117701216000000000000
B0453493205207S11659948EA0117701219000004000000
B0453533205158S11659997EA0118701229000000000000
B0453573205120S11700054EA0119401234000000000000
B0454013205129S11700119EA0120201245000004000000
B0454053205183S11700107EA0121001253000000000000
B0454093205175S11700036EA0121501256000000000000
B0454133205116S11700015EA0121701256000000015000
B0454173205076S11700067EA0122601272000000015000
B0454213205093S11700121EA0124201291000000015000
B0454253205140S11700123EA0125101295000000015000
B0454293205166S11700065EA0125301300000000015000
B0454333205144S11700006EA0126301314000000015000
B0454373205094S11659985EA0127501322000000015000
B0454413205050S11700013EA0127801325000000015000
B0454453205031S11700069EA0128701337000000015000
B0454493205050S11700116EA0130101346000000015000
B0454533205097S11700119EA0130401348000004015000
B0454573205120S11700058EA0130501351000004015000
B0455013205084S11700002EA0131201366000004015000
B0455053205033S11700015EA0132501374000004015000
B0455093205020S11700075EA0133301389000000015000
B0455133205048S11700112EA0134901397000004015000
B0455173205094S11700102EA0135301397000004015000
B0455213205123S11700050EA0136001409000004015000
B0455253205110S11659989EA0136801416000004015000
B0455293205062S11659955EA0137401422000000015000
B0455333205012S11659974EA0138301434000000015000
B0455373204998S11700030EA0138801441000000015000
B0455413205032S11700072EA0139501446000000015000
B0455453205081S11700056EA0140501459000000015000
B0455493205098S11659995EA0141701464000000015000
B0455533205063S11659942EA0142401474000004015000
B0455573205011S11659933EA0143601491000004015000
B0456013204971S11659964EA0144701495000004015000
B0456053204968S11700025EA0144701499000004015000
B0456093205010S11700060EA0145301507000000015000
B0456133205061S11700039EA0145701510000004015000
B0456173205084S11659971EA0146101509000004015000
B0456213205059S11659896EA0146301513000004015000
B0456253204998S11659865EA0146801518000000015000
B0456293204934S11659891EA0147401521000000015000
B0456333204905S11659961EA0147201521000004015000
B0456373204925S11700036EA0147501527000000015000
B0456413204984S11700059EA0148401536000000015000
B0456453205044S11700026EA0148701534000000015000
B0456493205070S11659948EA0148701538000000015000
B0456533205038S11659872EA0149401542000000015000
B0456573204971S11659842EA0149901545000000015000
B0457013204906S11659873EA0150501551000000015000
B0457053204880S11659943EA0151001554000000015000
B0457093204886S11700021EA0151001551000004015000
B0457133204918S11700088EA0151001551000004015000
B0457173204976S11700120EA0151301553000000015000
B0457213205044S11700103EA0151101551000000015000
B0457253205100S11700050EA0151001548000004015000
B0457293205150S11659982EA0150201535000004000000
B0457333205202S11659906EA0148701517000004000000
B0457373205258S11659825EA0147001501000000000000
B0457413205321S11659746EA0145501487000000000000
B0457453205389S11659670EA0144101475000000000000
B0457493205462S11659597EA0142901461000000000000
B0457533205535S11659529EA0142101458000000000000
B0457573205603S11659466EA0142801469000000000000
B0458013205670S11659412EA0142601461000000000000
B0458053205738S11659357EA0141901455000000000000
B0458093205808S11659305EA0141501450000000000000
B0458133205880S11659254EA0140901446000000000000
B0458173205950S11659206EA0140501442000004000000
B0458213206019S11659155EA0139901436000000000000
B0458253206088S11659105EA0139301428000000000000
B0458293206155S11659053EA0138901428000000000000
B0458333206219S11658998EA0139301432000004000000
B0458373206283S11658944EA0139601437000004000000
B0458413206348S11658892EA0140201441000004000000
B0458453206413S11658837EA0139801433000004000000
B0458493206480S11658781EA0138701421000004000000
B0458533206549S11658724EA0137801410000000000000
B0458573206618S11658663EA0136601399000000000000
B0459013206688S11658604EA0135801393000004000000
B0459053206756S11658544EA0135201387000004000000
B0459093206825S11658490EA0134701382000000000000
B0459133206896S11658440EA0134401379000000000000
B0459173206968S11658391EA0134101375000000000000
B0459213207039S11658343EA0133501369000000000000
B0459253207111S11658295EA0132801362000000000000
B0459293207183S11658247EA0132201355000000000000
B0459333207256S11658200EA0131601351000000000000
B0459373207329S11658157EA0131201347000000000000
B0459413207403S11658113EA0130601339000004000000
B0459453207476S11658067EA0130201336000004000000
B0459493207547S11658021EA0129801331000000000000
B0459533207618S11657976EA0129301329000004000000
B0459573207685S11657936EA0129701337000000000000
B0500013207750S11657894EA0130301340000004000000
B0500053207814S11657857EA0130501344000000000000
B0500093207878S11657835EA0130801344000000000000
B0500133207934S11657798EA0130801343000000000000
B0500173207952S11657723EA0130301339000000000000
B0500213207921S11657653EA0130101338000000000000
B0500253207874S11657593EA0129601330000004000000
B0500293207823S11657536EA0129201328000000000000
B0500333207771S11657476EA0128401318000004000000
B0500373207722S11657410EA0127701314000004000000
B0500413207674S11657342EA0127601313000000000000
B0500453207620S11657277EA0127401310000000000000
B0500493207558S11657220EA0126501298000000000000
B0500533207490S11657166EA0125101285000004000000
B0500573207421S11657114EA0124401277000000000000
B0501013207351S11657068EA0123801271000000000000
B0501053207278S11657026EA0122801262000004000000
B0501093207202S11656996EA0121901250000004000000
B0501133207122S11656973EA0121101248000004000000
B0501173207043S11656953EA0120901243000000000000
B0501213206961S11656935EA0120401239000004000000
B0501253206881S11656918EA0120501244000000000000
B0501293206801S11656905EA0120401239000004000000
B0501333206721S11656892EA0120301241000000000000
B0501373206641S11656880EA0120501241000000000000
B0501413206561S11656867EA0120001233000000000000
B0501453206478S11656848EA0118901223000004000000
B0501493206394S11656825EA0118601225000000000000
B0501533206314S11656797EA0119001229000000000000
B0501573206238S11656769EA0118801224000004000000
B0502013206163S11656743EA0117901216000004000000
B0502053206089S11656713EA0117201209000004000000
B0502093206016S11656685EA0116501199000004000000
B0502133205942S11656666EA0115701189000000000000
B0502173205867S11656652EA0114901184000000000000
B0502213205790S11656632EA0114301178000000000000
B0502253205714S11656604EA0114201184000000000000
B0502293205670S11656540EA0116401215000000000000
B0502333205686S11656474EA0119001237000000000000
B0502373205737S11656462EA0120001234000000000000
B0502413205761S11656516EA0119701240000000000000
B0502453205730S11656566EA0120401248000000000000
B0502493205674S11656561EA0121501260000000000000
B0502533205643S11656505EA0122701269000000000000
B0502573205659S11656438EA0123201276000000000000
B0503013205713S11656411EA0123601279000000000000
B0503053205768S11656433EA0124001284000000000000
B0503093205791S11656487EA0124901294000000000000
B0503133205785S11656546EA0125301293000004000000
B0503173205748S11656594EA0125201293000004000000
B0503213205695S11656624EA0125401298000004000000
B0503253205635S11656633EA0126201305000004000000
B0503293205574S11656623EA0126501308000000000000
B0503333205519S11656583EA0126901311000000000000
B0503373205490S11656513EA0126701307000004000000
B0503413205501S11656435EA0126301303000004000000
B0503453205547S11656381EA0126201302000004000000
B0503493205604S11656363EA0126301306000004000000
B0503533205664S11656362EA0126501308000000000000
B0503573205724S11656370EA0126601311000000000000
B0504013205772S11656409EA0127301320000000000000
B0504053205796S11656466EA0127701319000000000000
B0504093205787S11656535EA0127101315000000000000
B0504133205744S11656589EA0126901313000000000000
B0504173205681S11656611EA0126601306000000000000
B0504213205609S11656614EA0125901300000000000000
B0504253205532S11656606EA0125701298000004000000
B0504293205451S11656594EA0125101289000000000000
B0504333205366S11656580EA0124801285000000000000
B0504373205279S11656563EA0123501266000000000000
B0504413205187S11656545EA0121901253000000000000
B0504453205094S11656524EA0120901245000000000000
B0504493205001S11656505EA0119901233000000000000
B0504533204907S11656485EA0118601221000000000000
B0504573204814S11656466EA0117801215000000000000
B0505013204721S11656445EA0117301205000004000000
B0505053204630S11656423EA0116401199000004000000
B0505093204541S11656402EA0115801193000000000000
B0505133204451S11656381EA0114801182000004000000
B0505173204362S11656363EA0114201180000004000000
B0505213204275S11656345EA0113901176000004000000
B0505253204188S11656328EA0113301170000004000000
B0505293204102S11656308EA0112601163000000000000
B0505333204017S11656288EA0111801154000000000000
B0505373203930S11656264EA0111301148000000000000
B0505413203844S11656237EA0110701140000000000000
B0505453203758S11656207EA0109701129000000000000
B0505493203672S11656176EA0108701121000004000000
B0505533203588S11656139EA0109001126000000000000
B0505573203503S11656110EA0109001127000004000000
B0506013203420S11656089EA0108501119000004000000
B0506053203335S11656074EA0107401110000000000000
B0506093203252S11656068EA0106901106000000000000
B0506133203170S11656065EA0106701105000004000000
B0506173203091S11656065EA0107001110000000000000
B0506213203012S11656065EA0107701118000000000000
B0506253202936S11656069EA0107901120000000000000
B0506293202864S11656076EA0108101119000000000000
B0506333202792S11656084EA0107601113000000000000
B0506373202718S11656094EA0107501114000000000000
B0506413202648S11656113EA0107901120000000000000
B0506453202581S11656134EA0108701132000000000000
B0506493202519S11656158EA0109401135000000000000
B0506533202461S11656188EA0110001139000000000000
B0506573202437S11656250EA0110301144000000000000
B0507013202476S11656294EA0110701145000004000000
B0507053202531S11656266EA0110801149000004000000
B0507093202570S11656201EA0110901146000004000000
B0507133202575S11656124EA0111301152000004000000
B0507173202531S11656073EA0111901158000004000000
B0507213202471S11656071EA0112101161000004000000
B0507253202429S11656113EA0112901174000004000000
B0507293202455S11656163EA0113501176000004000000
B0507333202511S11656146EA0113501174000004000000
B0507373202540S11656085EA0113601175000004015000
B0507413202524S11656013EA0113401169000004015000
B0507453202471S11655964EA0112401159000004015000
B0507493202399S11655935EA0112101162000000000000
B0507533202336S11655952EA0114101183000004000000
B0507573202353S11656009EA0115701197000004000000
B0508013202403S11655990EA0116201204000004000000
B0508053202418S11655921EA0117001213000004000000
B0508093202380S11655868EA0118101223000004015000
B0508133202329S11655898EA0119201237000004015000
B0508173202341S11655959EA0120401248000000015000
B0508213202396S11655964EA0121101254000000015000
B0508253202423S11655903EA0121701261000000015000
B0508293202396S11655837EA0122301269000000015000
B0508333202336S11655808EA0123601283000004015000
B0508373202277S11655834EA0124701291000004015000
B0508413202258S11655900EA0125001291000000000000
B0508453202299S11655950EA0124701288000004000000
B0508493202360S11655934EA0124801290000000000000
B0508533202402S11655872EA0124901289000000000000
B0508573202419S11655792EA0125401294000004000000
B0509013202373S11655749EA0126001302000004015000
B0509053202336S11655805EA0126601306000000000000
B0509093202375S11655864EA0127301321000004015000
B0509133202435S11655848EA0129101338000000015000
B0509173202453S11655777EA0129701340000000000000
B0509213202411S11655721EA0129801342000000015000
B0509253202349S11655731EA0130501349000000015000
B0509293202320S11655799EA0131201358000000000000
B0509333202345S11655870EA0132001366000000000000
B0509373202407S11655894EA0132701373000004015000
B0509413202461S11655848EA0133501383000004015000
B0509453202464S11655768EA0134201387000004015000
B0509493202423S11655709EA0134701392000004015000
B0509533202359S11655697EA0135201396000000015000
B0509573202295S11655707EA0135801404000000000000
B0510013202253S11655757EA0136501410000000000000
B0510053202240S11655829EA0136501407000004000000
B0510093202256S11655900EA0136001403000004000000
B0510133202306S11655951EA0136401412000000000000
B0510173202367S11655963EA0137001416000004000000
B0510213202431S11655947EA0137301420000000000000
B0510253202489S11655912EA0137601421000000000000
B0510293202535S11655853EA0137901421000000000000
B0510333202542S11655777EA0137901420000004000000
B0510373202502S11655708EA0137001406000004000000
B0510413202435S11655666EA0135701396000000000000
B0510453202355S11655642EA0134701385000004000000
B0510493202271S11655621EA0134101381000004000000
B0510533202184S11655601EA0133601379000004000000
B0510573202098S11655583EA0133701377000000000000
B0511013202012S11655567EA0133201372000004000000
B0511053201925S11655553EA0132801369000004000000
B0511093201840S11655543EA0132501366000004000000
B0511133201756S11655530EA0132101362000004000000
B0511173201673S11655513EA0131701357000000000000
B0511213201591S11655493EA0130901349000004000000
B0511253201506S11655471EA0130001338000004000000
B0511293201419S11655448EA0129101329000000000000
B0511333201333S11655424EA0128601322000000000000
B0511373201246S11655402EA0127601312000000000000
B0511413201162S11655384EA0127301314000000000000
B0511453201080S11655367EA0127101312000000000000
B0511493200999S11655350EA0126801307000000000000
B0511533200919S11655332EA0126001299000004000000
B0511573200839S11655311EA0125201290000000000000
B0512013200759S11655285EA0124501285000000000000
B0512053200680S11655258EA0124201281000000000000
B0512093200600S11655232EA0123801275000000000000
B0512133200520S11655210EA0123001266000000000000
B0512173200438S11655185EA0122301262000000000000
B0512213200357S11655166EA0121901257000000000000
B0512253200277S11655149EA0121201249000004000000
B0512293200197S11655133EA0120501244000000000000
B0512333200119S11655119EA0120001238000000000000
B0512373200043S11655105EA0119601232000000000000
B0512413159967S11655093EA0118901225000000000000
B0512453159894S11655084EA0118301221000000000000
B0512493159823S11655072EA0117801216000000000000
B0512533159754S11655055EA0117301209000004000000
B0512573159685S11655036EA0116301200000004000000
B0513013159615S11655019EA0115601194000000000000
B0513053159547S11654986EA0114901187000004000000
B0513093159491S11654930EA0114701186000004000000
B0513133159445S11654860EA0114701188000004000000
B0513173159399S11654791EA0115401199000004000000
B0513213159337S11654764EA0116701212000004000000
B0513253159300S11654807EA0117801216000000000000
B0513293159325S11654858EA0117701215000000000000
B0513333159381S11654856EA0117901219000004000000
B0513373159424S11654810EA0118201221000004015000
B0513413159429S11654733EA0118701229000004015000
B0513453159394S11654673EA0120001244000004015000
B0513493159338S11654676EA0120401242000004015000
B0513533159309S11654737EA0120201241000004015000
B0513573159333S11654791EA0120701254000004015000
B0514013159381S11654789EA0122101263000004015000
B0514053159412S11654732EA0122701268000004015000
B0514093159403S11654660EA0123701281000004015000
B0514133159356S11654618EA0124501285000004015000
B0514173159302S11654635EA0124601286000004015000
B0514213159282S11654693EA0125001290000004015000
B0514253159308S11654745EA0125001290000004015000
B0514293159363S11654764EA0125401296000004015000
B0514333159419S11654734EA0125801295000004015000
B0514373159435S11654657EA0126301302000004015000
B0514413159390S11654603EA0127501321000004015000
B0514453159335S11654617EA0128601327000004015000
B0514493159324S11654678EA0128701329000004015000
B0514533159368S11654721EA0129201337000004015000
B0514573159424S11654702EA0130101345000004015000
B0515013159435S11654628EA0130501346000004015000
B0515053159390S11654566EA0131301355000004015000
B0515093159324S11654564EA0132001361000004015000
B0515133159281S11654615EA0132401364000004015000
B0515173159291S11654685EA0132701369000000015000
B0515213159341S11654726EA0133401380000000015000
B0515253159400S11654715EA0134401384000000015000
B0515293159432S11654644EA0134201378000000015000
B0515333159403S11654565EA0134401387000000015000
B0515373159341S11654533EA0135601399000000015000
B0515413159283S11654559EA0136501408000004015000
B0515453159261S11654620EA0137201414000004015000
B0515493159287S11654674EA0138101423000004015000
B0515533159343S11654669EA0139101430000004015000
B0515573159369S11654600EA0139001428000004015000
B0516013159335S11654533EA0139101432000000015000
B0516053159268S11654526EA0139201434000000015000
B0516093159220S11654576EA0139001437000000015000
B0516133159221S11654646EA0139601442000000015000
B0516173159274S11654676EA0140601457000000015000
B0516213159326S11654638EA0141801466000000015000
B0516253159330S11654566EA0143101480000000015000
B0516293159283S11654527EA0144101486000004030000
B0516333159230S11654548EA0143901481000004015000
B0516373159175S11654591EA0142801469000004015000
B0516413159116S11654644EA0142001457000000015000
B0516453159051S11654700EA0141101451000000015000
B0516493158983S11654758EA0140701452000000000000
B0516533158915S11654812EA0141001453000000000000
B0516573158849S11654865EA0140801449000004000000
B0517013158780S11654920EA0140101441000004000000
B0517053158713S11654975EA0139501439000004000000
B0517093158642S11655029EA0139201436000000000000
B0517133158574S11655084EA0139301436000004000000
B0517173158507S11655136EA0139001432000004000000
B0517213158441S11655188EA0138601427000004000000
B0517253158375S11655237EA0138101420000004000000
B0517293158306S11655287EA0137101410000000000000
B0517333158236S11655340EA0136201400000000000000
B0517373158165S11655397EA0135201392000000000000
B0517413158094S11655454EA0134301384000000000000
B0517453158024S11655513EA0133801378000000000000
B0517493157953S11655571EA0133301375000000000000
B0517533157886S11655629EA0133001371000000000000
B0517573157820S11655687EA0132601368000000000000
B0518013157753S11655746EA0132201362000000000000
B0518053157686S11655804EA0131501354000000000000
B0518093157622S11655861EA0130801349000000000000
B0518133157561S11655918EA0130801350000000000000
B0518173157501S11655977EA0130401345000004000000
B0518213157443S11656035EA0129801340000004000000
B0518253157387S11656097EA0129201333000004000000
B0518293157332S11656163EA0128601328000000000000
B0518333157280S11656230EA0128101321000004000000
B0518373157225S11656299EA0127401317000000000000
B0518413157175S11656367EA0127601321000000000000
B0518453157128S11656437EA0128601332000000000000
B0518493157112S11656514EA0131001358000004000000
B0518533157164S11656542EA0133101379000000000000
B0518573157193S11656488EA0134501387000004015000
B0519013157155S11656441EA0135101392000000015000
B0519053157105S11656470EA0136001407000000015000
B0519093157111S11656531EA0137601422000000015000
B0519133157163S11656546EA0138301429000000015000
B0519173157199S11656494EA0139001438000004015000
B0519213157176S11656435EA0139301435000000030000
B0519253157116S11656425EA0139601448000000015000
B0519293157080S11656477EA0141101458000004015000
B0519333157101S11656540EA0141901466000000015000
B0519373157160S11656544EA0143001478000000015000
B0519413157197S11656487EA0143601480000004015000
B0519453157181S11656415EA0143901485000004015000
B0519493157131S11656373EA0144301486000004015000
B0519533157064S11656381EA0144501492000004015000
B0519573157028S11656444EA0145601508000004015000
B0520013157049S11656510EA0147001519000000015000
B0520053157108S11656523EA0148201531000004015000
B0520093157154S11656474EA0149201537000004015000
B0520133157154S11656398EA0150101545000004015000
B0520173157105S11656350EA0150801553000004015000
B0520213157040S11656362EA0151401559000004015000
B0520253157001S11656424EA0152601571000000015000
B0520293157024S11656487EA0153901586000004015000
B0520333157081S11656483EA0155001592000004015000
B0520373157099S11656415EA0155401598000000015000
B0520413157056S11656360EA0156401609000000015000
B0520453156991S11656360EA0157101614000000015000
B0520493156947S11656416EA0158201631000000015000
B0520533156951S11656487EA0159701640000000015000
B0520573157002S11656518EA0160401648000004015000
B0521013157051S11656479EA0161201654000004015000
B0521053157050S11656407EA0162101665000000015000
B0521093156997S11656370EA0163301675000000015000
B0521133156929S11656380EA0163601674000004015000
B0521173156852S11656397EA0162501657000004015000
B0521213156768S11656412EA0161201651000004015000
B0521253156678S11656423EA0160901644000004015000
B0521293156586S11656428EA0160201634000000000000
B0521333156492S11656432EA0158801618000004000000
B0521373156395S11656432EA0157501608000004000000
B0521413156299S11656432EA0157301607000000000000
B0521453156208S11656444EA0157601613000004000000
B0521493156128S11656483EA0157501612000000000000
B0521533156063S11656541EA0157101607000000000000
B0521573156009S11656614EA0156601602000000000000
B0522013155959S11656691EA0156101599000000000000
B0522053155911S11656766EA0155901598000000000000
B0522093155863S11656841EA0155701595000000000000
B0522133155816S11656916EA0155701596000004000000
B0522173155769S11656986EA0155901598000004000000
B0522213155721S11657049EA0155901597000004000000
B0522253155672S11657108EA0155501592000004000000
B0522293155623S11657169EA0154901583000004000000
B0522333155578S11657237EA0154501587000004000000
B0522373155538S11657306EA0155201594000004000000
B0522413155498S11657373EA0155601596000000000000
B0522453155456S11657437EA0155701596000000000000
B0522493155417S11657499EA0155401592000000000000
B0522533155378S11657563EA0154701584000000000000
B0522573155337S11657628EA0153701574000000000000
B0523013155279S11657681EA0152801565000000000000
B0523053155208S11657705EA0152401557000004000000
B0523093155130S11657702EA0151401547000004000000
B0523133155049S11657684EA0150301538000000000000
B0523173154969S11657654EA0149601532000000000000
B0523213154889S11657620EA0149201529000000000000
B0523253154813S11657584EA0149001527000000000000
B0523293154737S11657545EA0148501523000000000000
B0523333154663S11657507EA0147701514000000000000
B0523373154586S11657472EA0147101507000000000000
B0523413154510S11657436EA0146501502000000000000
B0523453154436S11657399EA0146401506000000000000
B0523493154362S11657368EA0146701508000000000000
B0523533154290S11657342EA0146701508000000000000
B0523573154217S11657315EA0146301503000000000000
B0524013154144S11657289EA0145701497000000000000
B0524053154070S11657256EA0144901488000000000000
B0524093153998S11657220EA0143601474000000000000
B0524133153920S11657182EA0142701463000004000000
B0524173153842S11657140EA0142101461000000000000
B0524213153764S11657096EA0142001460000000000000
B0524253153687S11657049EA0141701456000000000000
B0524293153610S11656996EA0141101450000000000000
B0524333153533S11656939EA0140801449000004000000
B0524373153458S11656883EA0140701449000000000000
B0524413153384S11656828EA0140701446000004000000
B0524453153310S11656771EA0140001438000004000000
B0524493153237S11656710EA0139301431000000000000
B0524533153166S11656648EA0138701428000004000000
B0524573153097S11656585EA0138601426000000000000
B0525013153028S11656524EA0138201421000000000000
B0525053152959S11656464EA0137601415000000000000
B0525093152893S11656403EA0137401414000000000000
B0525133152831S11656344EA0137301412000000000000
B0525173152768S11656282EA0136501404000000000000
B0525213152701S11656225EA0136201402000004000000
B0525253152634S11656168EA0135801395000004000000
B0525293152568S11656113EA0135401393000004000000
B0525333152503S11656060EA0135101388000000000000
B0525373152436S11656009EA0134501382000004000000
B0525413152374S11655955EA0134001379000004000000
B0525453152315S11655899EA0133601375000004000000
B0525493152253S11655847EA0132901367000004000000
B0525533152189S11655796EA0133201372000000000000
B0525573152122S11655800EA0134101378000000000000
B0526013152076S11655859EA0133701372000000000000
B0526053152045S11655935EA0133501375000004000000
B0526093152058S11656003EA0134801392000004000000
B0526133152107S11656019EA0136001399000004000000
B0526173152148S11655973EA0135901396000000015000
B0526213152142S11655904EA0135801399000000015000
B0526253152087S11655887EA0135501391000000015000
B0526293152064S11655954EA0135201393000000015000
B0526333152118S11655982EA0135801396000000015000
B0526373152167S11655942EA0135901394000000015000
B0526413152166S11655866EA0135601391000004015000
B0526453152106S11655835EA0134901380000000015000
B0526493152063S11655894EA0134201381000004015000
B0526533152092S11655956EA0135301395000004015000
B0526573152149S11655944EA0135901394000004015000
B0527013152171S11655874EA0135601394000000015000
B0527053152168S11655796EA0135501391000000015000
B0527093152158S11655717EA0135201388000000015000
B0527133152135S11655642EA0134701379000000015000
B0527173152088S11655580EA0133901373000000000000
B0527213152025S11655553EA0133801369000004000000
B0527253151962S11655577EA0133101363000000000000
B0527293151927S11655644EA0132501362000004015000
B0527333151937S11655722EA0132601366000004015000
B0527373151970S11655794EA0132501361000004000000
B0527413152012S11655863EA0132201360000004000000
B0527453152058S11655926EA0132601367000004000000
B0527493152105S11655986EA0133101368000000000000
B0527533152155S11656037EA0133201368000004000000
B0527573152210S11656080EA0132901364000004000000
B0528013152266S11656126EA0132601365000004000000
B0528053152319S11656175EA0132801365000004000000
B0528093152370S11656229EA0132601361000004000000
B0528133152422S11656286EA0132101355000004000000
B0528173152474S11656349EA0131501349000004000000
B0528213152527S11656414EA0131401351000000000000
B0528253152582S11656471EA0131701351000004000000
B0528293152638S11656527EA0131001347000000000000
B0528333152694S11656581EA0131201348000000000000
B0528373152748S11656639EA0130801340000004000000
B0528413152805S11656698EA0129801332000004000000
B0528453152865S11656757EA0129301325000004000000
B0528493152922S11656819EA0128601320000000000000
B0528533152976S11656883EA0128201316000004000000
B0528573153025S11656948EA0127901314000004000000
B0529013153073S11657014EA0127501308000004000000
B0529053153121S11657086EA0127001302000004000000
B0529093153171S11657157EA0126301295000004000000
B0529133153221S11657226EA0125601291000004000000
B0529173153272S11657296EA0125301286000004000000
B0529213153319S11657368EA0124801281000000000000
B0529253153366S11657439EA0124201276000004000000
B0529293153414S11657508EA0123801272000004000000
B0529333153465S11657575EA0123201267000004000000
B0529373153518S11657641EA0122801260000004000000
B0529413153570S11657706EA0122301257000004000000
B0529453153624S11657768EA0121801252000004000000
B0529493153678S11657832EA0121101245000004000000
B0529533153732S11657894EA0121101246000004000000
B0529573153784S11657957EA0121201251000004000000
B0530013153832S11658014EA0122301259000000000000
B0530053153881S11658070EA0122001251000000000000
B0530093153930S11658130EA0120901240000000000000
B0530133153979S11658192EA0120101233000004000000
B0530173154029S11658255EA0119101223000004000000
B0530213154079S11658320EA0118301215000000000000
B0530253154130S11658386EA0117701211000000000000
B0530293154180S11658455EA0117401208000000000000
B0530333154224S11658524EA0118501227000000000000
B0530373154274S11658570EA0119901236000000000000
B0530413154317S11658533EA0120601240000000000000
B0530453154287S11658473EA0120501237000000000000
B0530493154225S11658490EA0119901231000000000000
B0530533154182S11658548EA0119601234000000000000
B0530573154157S11658620EA0119801236000000000000
B0531013154159S11658695EA0119401230000004000000
B0531053154185S11658767EA0118301218000004000000
B0531093154229S11658832EA0117301206000004000000
B0531133154282S11658894EA0115801191000004000000
B0531173154346S11658947EA0115101184000004000000
B0531213154410S11658999EA0115201190000004000000
B0531253154469S11659048EA0115801196000004000000
B0531293154534S11659083EA0116701204000000000000
B0531333154581S11659041EA0118401224000004000000
B0531373154544S11658985EA0119301228000004000000
B0531413154489S11659019EA0119501232000004000000
B0531453154486S11659092EA0119501231000000015000
B0531493154538S11659126EA0119801241000000015000
B0531533154580S11659084EA0121401254000000015000
B0531573154573S11659014EA0121901257000000015000
B0532013154515S11659001EA0122201259000000015000
B0532053154492S11659064EA0122001258000000015000
B0532093154529S11659120EA0122501265000000015000
B0532133154588S11659120EA0123501278000000015000
B0532173154620S11659061EA0124601290000000015000
B0532213154584S11659005EA0125501296000000015000
B0532253154525S11659012EA0125901302000000015000
B0532293154497S11659072EA0126501309000000015000
B0532333154523S11659131EA0127301316000000015000
B0532373154576S11659128EA0128101323000000015000
B0532413154601S11659063EA0128701330000004015000
B0532453154564S11658999EA0129401335000004015000
B0532493154497S11659002EA0129401336000004015000
B0532533154463S11659067EA0130001348000004015000
B0532573154486S11659131EA0131001354000004015000
B0533013154544S11659140EA0131601363000000015000
B0533053154586S11659093EA0132901379000004030000
B0533093154584S11659024EA0134601394000004015000
B0533133154536S11658985EA0135501396000000015000
B0533173154479S11659012EA0135401398000000015000
B0533213154459S11659080EA0136501411000000015000
B0533253154482S11659140EA0137201416000000015000
B0533293154537S11659155EA0137801420000004015000
B0533333154580S11659110EA0138101424000000030000
B0533373154571S11659038EA0138801438000004015000
B0533413154516S11659001EA0140001451000004015000
B0533453154456S11659024EA0141001460000004015000
B0533493154445S11659093EA0142101467000004015000
B0533533154492S11659127EA0142801473000004015000
B0533573154541S11659089EA0142901472000004030000
B0534013154533S11659012EA0143601485000004015000
B0534053154473S11658975EA0144901495000000015000
B0534093154410S11658999EA0146001506000000015000
B0534133154384S11659068EA0146801513000000015000
B0534173154410S11659131EA0147201517000000015000
B0534213154466S11659145EA0147901526000000015000
B0534253154512S11659102EA0148701530000000015000
B0534293154511S11659027EA0149101540000000015000
B0534333154463S11658979EA0150601551000000015000
B0534373154401S11658990EA0151301560000000015000
B0534413154381S11659058EA0151801561000000015000
B0534453154424S11659106EA0152001563000000015000
B0534493154481S11659085EA0152401566000000015000
B0534533154502S11659012EA0153001579000000015000
B0534573154469S11658946EA0154301594000000015000
B0535013154408S11658925EA0155801607000004015000
B0535053154351S11658953EA0156701614000000015000
B0535093154329S11659015EA0157301617000004015000
B0535133154358S11659071EA0157201616000004015000
B0535173154414S11659085EA0157101615000004015000
B0535213154464S11659042EA0157401619000004015000
B0535253154476S11658968EA0158401632000004015000
B0535293154436S11658919EA0160501654000004015000
B0535333154380S11658936EA0161101656000004015000
B0535373154363S11658998EA0161601663000004015000
B0535413154403S11659038EA0162201669000000015000
B0535453154451S11659007EA0162701674000000015000
B0535493154447S11658938EA0163501686000000015000
B0535533154395S11658903EA0164701694000000015000
B0535573154338S11658925EA0165601707000000015000
B0536013154313S11658979EA0167001717000000015000
B0536053154336S11659033EA0167201714000000015000
B0536093154386S11659048EA0167301720000004015000
B0536133154427S11659006EA0167901726000004015000
B0536173154425S11658942EA0168801736000000015000
B0536213154378S11658903EA0169501739000004015000
B0536253154319S11658921EA0169801743000004015000
B0536293154293S11658985EA0170301750000004015000
B0536333154317S11659042EA0170801752000004015000
B0536373154372S11659058EA0170901753000004015000
B0536413154423S11659024EA0171301762000004030000
B0536453154437S11658958EA0172001772000004015000
B0536493154402S11658905EA0173001780000004015000
B0536533154341S11658898EA0173601782000004015000
B0536573154287S11658944EA0173401777000000015000
B0537013154259S11659020EA0172801769000000015000
B0537053154248S11659113EA0171801758000000015000
B0537093154246S11659213EA0170801746000004000000
B0537133154250S11659315EA0169901739000004000000
B0537173154258S11659419EA0169201734000000000000
B0537213154268S11659521EA0169601744000000000000
B0537253154280S11659610EA0171201762000004000000
B0537293154300S11659688EA0171801759000004000000
B0537333154325S11659769EA0170401733000000000000
B0537373154352S11659865EA0167401705000004000000
B0537413154382S11659969EA0165801697000004000000
B0537453154407S11700068EA0166101703000004000000
B0537493154427S11700163EA0166201701000000000000
B0537533154447S11700257EA0165901699000000000000
B0537573154467S11700349EA0165601695000000000000
B0538013154488S11700441EA0164901688000004000000
B0538053154508S11700531EA0164401681000000000000
B0538093154531S11700621EA0163601675000000000000
B0538133154554S11700706EA0163101671000004000000
B0538173154576S11700791EA0163201676000004000000
B0538213154597S11700869EA0163601678000004000000
B0538253154618S11700946EA0164401691000004000000
B0538293154638S11701018EA0166101706000004000000
B0538333154662S11701089EA0165901697000004000000
B0538373154692S11701161EA0164301680000000000000
B0538413154724S11701237EA0163501674000000000000
B0538453154761S11701313EA0163101671000004000000
B0538493154800S11701390EA0162401663000000000000
B0538533154836S11701469EA0161801657000000000000
B0538573154871S11701549EA0161501656000000000000
B0539013154906S11701624EA0161401656000000000000
B0539053154945S11701700EA0161201655000000000000
B0539093154987S11701775EA0161301654000000000000
B0539133155027S11701849EA0161001652000000000000
B0539173155069S11701924EA0160201641000000000000
B0539213155112S11702001EA0159301631000004000000
B0539253155152S11702080EA0158401626000004000000
B0539293155191S11702158EA0158301625000004000000
B0539333155227S11702235EA0158601629000004000000
B0539373155262S11702311EA0158501627000004000000
B0539413155296S11702385EA0157801618000004000000
B0539453155334S11702460EA0157901625000000000000
B0539493155373S11702532EA0158401628000004000000
B0539533155415S11702599EA0158401628000004000000
B0539573155454S11702668EA0158201625000004000000
B0540013155493S11702736EA0158101626000000000000
B0540053155533S11702805EA0157601617000000000000
B0540093155576S11702877EA0156801611000000000000
B0540133155620S11702953EA0156401605000000000000
B0540173155665S11703028EA0155701599000000000000
B0540213155711S11703102EA0155001590000004000000
B0540253155759S11703178EA0153801576000000000000
B0540293155807S11703254EA0152501566000000000000
B0540333155857S11703330EA0152001559000000000000
B0540373155906S11703404EA0151101548000004000000
B0540413155958S11703477EA0149901538000004000000
B0540453156010S11703546EA0149501539000004000000
B0540493156062S11703614EA0149301532000004000000
B0540533156110S11703689EA0148501526000004000000
B0540573156158S11703760EA0148001520000004000000
B0541013156208S11703833EA0147201512000004000000
B0541053156257S11703903EA0146701508000004000000
B0541093156309S11703968EA0146201503000004000000
B0541133156361S11704033EA0145501496000004000000
B0541173156412S11704097EA0144801488000004000000
B0541213156462S11704159EA0144201486000004000000
B0541253156514S11704222EA0144401487000004000000
B0541293156562S11704283EA0144101483000004000000
B0541333156611S11704346EA0143301473000000000000
B0541373156660S11704411EA0142701471000004000000
B0541413156711S11704476EA0142501466000000000000
B0541453156760S11704544EA0141901460000000000000
B0541493156808S11704614EA0141301454000004000000
B0541533156858S11704683EA0141001456000000000000
B0541573156906S11704749EA0141901470000000000000
B0542013156950S11704814EA0142901476000000000000
B0542053156998S11704877EA0143501482000000000000
B0542093157045S11704940EA0143901485000000000000
B0542133157092S11705003EA0144501490000000000000
B0542173157142S11705064EA0144201485000000000000
B0542213157194S11705126EA0143701478000000000000
B0542253157248S11705193EA0143001476000000000000
B0542293157302S11705258EA0143301483000000000000
B0542333157349S11705324EA0144301493000000000000
B0542373157398S11705379EA0145801509000004000000
B0542413157457S11705362EA0147201517000000000000
B0542453157466S11705291EA0147701524000000000000
B0542493157420S11705249EA0148401529000000000000
B0542533157365S11705269EA0148801530000000015000
B0542573157340S11705337EA0148801530000000015000
B0543013157361S11705408EA0148801532000000015000
B0543053157405S11705472EA0147901516000000015000
B0543093157453S11705546EA0147001512000000000000
B0543133157497S11705623EA0147501519000004000000
B0543173157537S11705697EA0147701518000000000000
B0543213157583S11705770EA0147101509000000000000
B0543253157630S11705843EA0147001513000000000000
B0543293157679S11705913EA0147101512000000000000
B0543333157731S11705983EA0146601504000000000000
B0543373157786S11706052EA0146201504000000000000
B0543413157840S11706120EA0146401507000004000000
B0543453157891S11706187EA0147001518000000000000
B0543493157938S11706255EA0147601521000004000000
B0543533157983S11706321EA0146801507000004000000
B0543573158030S11706393EA0145701493000004000000
B0544013158076S11706468EA0144301481000004000000
B0544053158120S11706547EA0143001470000000000000
B0544093158164S11706627EA0142401465000000000000
B0544133158206S11706703EA0141701458000004000000
B0544173158247S11706777EA0140901451000004000000
B0544213158286S11706848EA0140501450000004000000
B0544253158328S11706918EA0140401446000000000000
B0544293158367S11706988EA0140301448000004000000
B0544333158408S11707057EA0140501451000004000000
B0544373158450S11707123EA0140901458000000000000
B0544413158489S11707188EA0142201473000000000000
B0544453158544S11707213EA0143801485000004000000
B0544493158585S11707157EA0144201479000004000000
B0544533158561S11707075EA0142801464000004015000
B0544573158488S11707040EA0141801457000004015000
B0545013158425S11707082EA0142001465000000015000
B0545053158424S11707157EA0143201483000000015000
B0545093158453S11707219EA0144301492000004015000
B0545133158488S11707277EA0145201500000004000000
B0545173158541S11707300EA0146601514000000015000
B0545213158584S11707247EA0147301512000000015000
B0545253158563S11707174EA0146801509000000015000
B0545293158502S11707149EA0146701511000004015000
B0545333158449S11707189EA0147201519000000015000
B0545373158436S11707258EA0148001529000000015000
B0545413158447S11707327EA0149101538000000000000
B0545453158488S11707379EA0150101544000004000000
B0545493158542S11707348EA0150601549000004015000
B0545533158527S11707275EA0151401557000000015000
B0545573158468S11707252EA0151601560000004015000
B0546013158418S11707290EA0152201571000004015000
B0546053158408S11707357EA0153401583000004015000
B0546093158453S11707405EA0154601594000004015000
B0546133158516S11707395EA0155601601000004015000
B0546173158542S11707325EA0155701603000004015000
B0546213158506S11707257EA0156301608000004015000
B0546253158442S11707251EA0157301620000004015000
B0546293158412S11707309EA0158401630000004015000
B0546333158458S11707353EA0159101633000004015000
B0546373158515S11707314EA0159201637000000015000
B0546413158516S11707235EA0159901645000000015000
B0546453158470S11707184EA0160601655000000015000
B0546493158410S11707188EA0161501663000000015000
B0546533158371S11707238EA0162501674000004015000
B0546573158384S11707299EA0164201694000000015000
B0547013158436S11707299EA0165301699000000015000
B0547053158454S11707232EA0165701707000000015000
B0547093158407S11707186EA0166401712000004015000
B0547133158353S11707209EA0167301721000004015000
B0547173158346S11707274EA0168401737000000015000
B0547213158392S11707308EA0170001751000000015000
B0547253158440S11707274EA0171101757000004015000
B0547293158446S11707206EA0171501764000004015000
B0547333158411S11707152EA0172301771000004015000
B0547373158351S11707148EA0172801776000000015000
B0547413158315S11707200EA0173701787000000015000
B0547453158330S11707265EA0175001799000000015000
B0547493158380S11707295EA0176401811000000015000
B0547533158431S11707264EA0177501822000000015000
B0547573158446S11707195EA0178101830000000015000
B0548013158419S11707134EA0178701835000004015000
B0548053158364S11707113EA0179201839000000015000
B0548093158315S11707152EA0179201833000000015000
B0548133158304S11707231EA0178601833000000015000
B0548173158312S11707317EA0178601831000000015000
B0548213158327S11707409EA0179001835000004000000
B0548253158346S11707504EA0178901832000004000000
B0548293158366S11707602EA0178701832000004000000
B0548333158382S11707702EA0178501827000000000000
B0548373158395S11707803EA0177801819000000000000
B0548413158405S11707903EA0177501818000004000000
B0548453158402S11708002EA0177701822000000000000
B0548493158401S11708098EA0178701834000004000000
B0548533158402S11708192EA0179001835000004000000
B0548573158407S11708287EA0179101836000004000000
B0549013158412S11708383EA0179101833000004000000
B0549053158412S11708479EA0178801835000004000000
B0549093158402S11708573EA0178901830000004000000
B0549133158399S11708669EA0178001823000000000000
B0549173158407S11708766EA0176901807000000000000
B0549213158436S11708864EA0174901785000000000000
B0549253158486S11708955EA0173001770000000000000
B0549293158548S11709035EA0172401765000000000000
B0549333158610S11709110EA0172201763000000000000
B0549373158674S11709180EA0171601752000004000000
B0549413158739S11709251EA0170401746000000000000
B0549453158802S11709320EA0170101743000000000000
B0549493158865S11709389EA0169601735000000000000
B0549533158927S11709459EA0168401725000000000000
B0549573158991S11709527EA0167901719000000000000
B0550013159056S11709589EA0167601716000004000000
B0550053159121S11709648EA0167201710000004000000
B0550093159185S11709708EA0166401698000004000000
B0550133159250S11709771EA0165301691000004000000
B0550173159313S11709831EA0164701687000004000000
B0550213159378S11709884EA0164301685000004000000
B0550253159443S11709931EA0164201684000004000000
B0550293159510S11709965EA0164101685000004000000
B0550333159575S11709992EA0164001683000000000000
B0550373159637S11710017EA0164001686000000000000
B0550413159694S11710040EA0164901698000000000000
B0550453159753S11710040EA0166301713000004000000
B0550493159801S11710001EA0167101711000004000000
B0550533159831S11709936EA0166401705000004000000
B0550573159849S11709858EA0165901701000004000000
B0551013159866S11709775EA0165401693000000000000
B0551053159885S11709688EA0164201684000004000000
B0551093159905S11709600EA0163801680000000000000
B0551133159926S11709509EA0163101674000000000000
B0551173159952S11709418EA0162301665000000000000
B0551213159981S11709325EA0161601658000004000000
B0551253200018S11709236EA0160701650000000000000
B0551293200058S11709150EA0160501652000004000000
B0551333200100S11709069EA0161001656000000000000
B0551373200141S11708986EA0161301662000000000000
B0551413200180S11708905EA0162201671000000000000
B0551453200217S11708827EA0162501670000000000000
B0551493200254S11708747EA0161701660000000000000
B0551533200295S11708662EA0160501645000000000000
B0551573200336S11708577EA0159401637000000000000
B0552013200373S11708489EA0158801632000000000000
B0552053200407S11708402EA0158701633000000000000
B0552093200436S11708315EA0158801632000004000000
B0552133200461S11708227EA0158301627000004000000
B0552173200485S11708137EA0157701622000004000000
B0552213200507S11708045EA0157801626000000000000
B0552253200529S11707955EA0158001625000000000000
B0552293200548S11707864EA0157301617000000000000
B0552333200569S11707771EA0156601608000000000000
B0552373200592S11707674EA0155701604000000000000
B0552413200621S11707582EA0155401598000000000000
B0552453200663S11707500EA0154701592000004000000
B0552493200716S11707427EA0153701581000004000000
B0552533200772S11707357EA0152901574000000000000
B0552573200829S11707290EA0152501569000000000000
B0553013200886S11707223EA0152001568000000000000
B0553053200941S11707157EA0151601560000000000000
B0553093200998S11707088EA0150701553000000000000
B0553133201054S11707018EA0150301550000000000000
B0553173201111S11706950EA0150801558000000000000
B0553213201166S11706884EA0151801567000000000000
B0553253201216S11706815EA0152001566000000000000
B0553293201266S11706742EA0151601560000000000000
B0553333201317S11706664EA0150501545000004000000
B0553373201371S11706584EA0149601542000004000000
B0553413201421S11706500EA0149601543000000000000
B0553453201467S11706412EA0149501540000004000000
B0553493201515S11706324EA0149001535000000000000
B0553533201566S11706237EA0148701533000004000000
B0553573201618S11706153EA0148501531000000000000
B0554013201670S11706070EA0147901521000000000000
B0554053201723S11705987EA0147201514000000000000
B0554093201775S11705904EA0146901508000000000000
B0554133201827S11705821EA0146001497000000000000
B0554173201882S11705737EA0145001490000000000000
B0554213201935S11705654EA0144201481000004000000
B0554253201990S11705570EA0143201471000000000000
B0554293202045S11705486EA0142401463000004000000
B0554333202098S11705401EA0141301447000000000000
B0554373202150S11705310EA0140001433000004000000
B0554413202199S11705216EA0138601421000004000000
B0554453202246S11705120EA0137901417000004000000
B0554493202281S11705018EA0137401411000004000000
B0554533202314S11704913EA0136701403000004000000
B0554573202350S11704809EA0136201405000000000000
B0555013202393S11704716EA0137001415000000000000
B0555053202437S11704634EA0138001426000004000000
B0555093202484S11704557EA0138301427000004000000
B0555133202536S11704482EA0137701417000000000000
B0555173202591S11704407EA0136901407000000000000
B0555213202648S11704333EA0136101401000004000000
B0555253202705S11704258EA0135501397000004000000
B0555293202760S11704184EA0135301394000000000000
B0555333202814S11704110EA0134401381000000000000
B0555373202870S11704032EA0133001369000004000000
B0555413202926S11703955EA0132201361000000000000
B0555453202981S11703880EA0132201365000000000000
B0555493203034S11703803EA0132201366000004000000
B0555533203087S11703731EA0132001362000000000000
B0555573203140S11703656EA0131301352000000000000
B0556013203194S11703578EA0130201338000000000000
B0556053203248S11703499EA0128901326000000000000
B0556093203306S11703421EA0128001317000000000000
B0556133203363S11703344EA0127101313000000000000
B0556173203423S11703271EA0126701302000000000000
B0556213203484S11703201EA0125601294000000000000
B0556253203546S11703132EA0124501283000000000000
B0556293203610S11703061EA0123801274000000000000
B0556333203672S11702988EA0122601264000000000000
B0556373203736S11702915EA0121701256000000000000
B0556413203803S11702845EA0120901245000000000000
B0556453203871S11702776EA0119901236000000000000
B0556493203939S11702707EA0119001227000000000000
B0556533204005S11702636EA0118201219000000000000
B0556573204067S11702561EA0117301209000000000000
B0557013204132S11702486EA0115901194000004000000
B0557053204199S11702409EA0114801187000004000000
B0557093204264S11702338EA0114401183000000000000
B0557133204327S11702266EA0113701176000000000000
B0557173204391S11702197EA0113901184000000000000
B0557213204451S11702132EA0114401186000000000000
B0557253204508S11702070EA0114601191000000000000
B0557293204564S11702010EA0115201198000004000000
B0557333204622S11701957EA0115501196000000000000
B0557373204674S11701898EA0115101192000000000000
B0557413204725S11701837EA0114101179000000000000
B0557453204776S11701772EA0112901167000004000000
B0557493204828S11701706EA0112301166000004000000
B0557533204877S11701638EA0112701171000004000000
B0557573204918S11701567EA0113601181000004000000
B0558013204951S11701493EA0114301190000004000000
B0558053204983S11701420EA0114901194000000000000
B0558093205006S11701343EA0115201193000004000000
B0558133205010S11701258EA0114401183000004000000
B0558173205019S11701168EA0113601176000004000000
B0558213205044S11701081EA0113801184000000000000
B0558253205087S11701009EA0114301186000000000000
B0558293205133S11700942EA0114101183000004000000
B0558333205181S11700870EA0113201173000000000000
B0558373205232S11700800EA0112601166000000000000
B0558413205285S11700731EA0111801156000004000000
B0558453205343S11700661EA0110501145000004000000
B0558493205401S11700592EA0109801136000000000000
B0558533205460S11700527EA0109101132000004000000
B0558573205519S11700465EA0108601127000000000000
B0559013205578S11700403EA0108001122000004000000
B0559053205636S11700346EA0107701118000004000000
B0559093205694S11700289EA0107401116000004000000
B0559133205751S11700229EA0107301118000000000000
B0559173205804S11700169EA0108001125000000000000
B0559213205856S11700110EA0108101126000000000000
B0559253205904S11700049EA0108001122000000000000
B0559293205955S11659987EA0107001108000004000000
B0559333206006S11659922EA0105701098000000000000
B0559373206056S11659856EA0104801087000004000000
B0559413206108S11659787EA0103901079000000000000
B0559453206159S11659716EA0103001069000000000000
B0559493206210S11659647EA0102201062000004000000
B0559533206262S11659577EA0101301052000004000000
B0559573206315S11659509EA0100501044000004000000
B0600013206367S11659441EA0099801038000000000000
B0600053206419S11659374EA0099001029000000000000
B0600093206471S11659308EA0098101021000000000000
B0600133206522S11659240EA0097501016000000000000
B0600173206574S11659175EA0097101015000000000000
B0600213206622S11659110EA0097301017000000000000
B0600253206669S11659048EA0097501021000000000000
B0600293206715S11658990EA0097901025000000000000
B0600333206762S11658938EA0097901022000000000000
B0600373206814S11658889EA0097501018000004000000
B0600413206868S11658836EA0097501017000000000000
B0600453206878S11658762EA0098501034000000000000
B0600493206836S11658713EA0099401035000000000000
B0600533206778S11658733EA0098801028000000000000
B0600573206762S11658802EA0098401025000000000000
B0601013206806S11658856EA0098501027000000000000
B0601053206873S11658853EA0098801028000000015000
B0601093206920S11658793EA0099001030000004015000
B0601133206908S11658716EA0099501035000004015000
B0601173206849S11658697EA0099701039000004015000
B0601213206810S11658746EA0099901039000000015000
B0601253206823S11658814EA0099901039000000015000
B0601293206871S11658858EA0099801036000004015000
B0601333206939S11658853EA0099401037000000015000
B0601373207003S11658819EA0099801041000000015000
B0601413207040S11658760EA0100401044000004015000
B0601453207042S11658682EA0099701035000004015000
B0601493207003S11658617EA0099101029000004015000
B0601533206942S11658581EA0099001030000004015000
B0601573206873S11658585EA0099101034000004015000
B0602013206816S11658624EA0099601040000004015000
B0602053206779S11658684EA0100101043000004000000
B0602093206769S11658754EA0100201043000004000000
B0602133206766S11658828EA0100001040000004000000
B0602173206773S11658903EA0100201043000000000000
B0602213206810S11658958EA0100701056000000000000
B0602253206868S11658945EA0101501060000000000000
B0602293206886S11658875EA0101701060000000015000
B0602333206844S11658823EA0101801063000000015000
B0602373206791S11658838EA0102401072000004015000
B0602413206783S11658897EA0103101076000000015000
B0602453206823S11658937EA0103401078000000015000
B0602493206881S11658921EA0103501076000000015000
B0602533206914S11658858EA0103401076000000015000
B0602573206900S11658784EA0102901071000000015000
B0603013206857S11658716EA0101901062000000015000
B0603053206812S11658645EA0101401055000004000000
B0603093206769S11658569EA0100901053000004000000
B0603133206740S11658486EA0101201058000004000000
B0603173206731S11658400EA0101601061000004000000
B0603213206743S11658320EA0101901066000000000000
B0603253206773S11658251EA0102401069000000000000
B0603293206805S11658182EA0102101062000000000000
B0603333206835S11658106EA0101501059000000000000
B0603373206864S11658028EA0101201055000000000000
B0603413206895S11657946EA0100701050000004000000
B0603453206926S11657863EA0100601053000004000000
B0603493206947S11657777EA0101101055000004000000
B0603533206935S11657692EA0101101048000004000000
B0603573206886S11657618EA0099801038000004000000
B0604013206822S11657559EA0099001034000004000000
B0604053206756S11657508EA0099001034000004000000
B0604093206688S11657462EA0098301023000004000000
B0604133206617S11657419EA0097401015000004000000
B0604173206544S11657377EA0096501006000004000000
B0604213206470S11657335EA0095800999000004000000
B0604253206396S11657295EA0095700999000004000000
B0604293206323S11657254EA0095100990000000000000
B0604333206250S11657212EA0093900978000000000000
B0604373206177S11657169EA0093100972000000000000
B0604413206107S11657122EA0092700966000000000000
B0604453206039S11657073EA0092000958000000000000
B0604493205972S11657023EA0091100950000000000000
B0604533205903S11656978EA0090800947000000000000
B0604573205837S11656938EA0090800947000000000000
B0605013205773S11656896EA0090600944000000000000
B0605053205712S11656852EA0090100937000004000000
B0605093205653S11656805EA0089500934000000000000
B0605133205597S11656757EA0089100928000000000000
B0605173205542S11656710EA0088200919000000000000
B0605213205488S11656654EA0087400911000000000000
B0605253205434S11656604EA0086900907000000000000
B0605293205370S11656584EA0087400918000000000000
B0605333205317S11656613EA0089000934000000000000
B0605373205278S11656663EA0090100943000000000000
B0605413205266S11656724EA0091300955000000000000
B0605453205311S11656749EA0092000958000000000000
B0605493205347S11656702EA0092300965000000000000
B0605533205332S11656640EA0093300977000000000000
B0605573205280S11656613EA0094300986000000000000
B0606013205226S11656633EA0095000993000000000000
B0606053205202S11656696EA0095701004000000000000
B0606093205226S11656754EA0096701009000000000000
B0606133205279S11656771EA0097401016000000000000
B0606173205323S11656731EA0097901019000000000000
B0606213205324S11656665EA0098501032000004000000
B0606253205278S11656630EA0100001045000004000000
B0606293205228S11656656EA0101001054000004000000
B0606333205211S11656718EA0101901061000004000000
B0606373205243S11656766EA0102601067000004000000
B0606413205295S11656766EA0102901072000004000000
B0606453205328S11656721EA0103401076000004000000
B0606493205328S11656654EA0103801084000004000000
B0606533205285S11656617EA0104801093000004000000
B0606573205236S11656641EA0105701100000000000000
B0607013205231S11656708EA0106301106000000000000
B0607053205276S11656747EA0107101113000004000000
B0607093205326S11656714EA0107401116000000000000
B0607133205334S11656644EA0107901122000000000000
B0607173205295S11656589EA0108801132000000000000
B0607213205235S11656591EA0109701139000000000000
B0607253205193S11656648EA0110001145000000000000
B0607293205198S11656718EA0111301161000000000000
B0607333205244S11656756EA0112301166000004000000
B0607373205300S11656740EA0112201160000004000000
B0607413205332S11656676EA0111901161000000000000
B0607453205317S11656604EA0112601170000004000000
B0607493205261S11656572EA0113901185000000000000
B0607533205211S11656605EA0115101192000004000000
B0607573205206S11656676EA0115301193000004000000
B0608013205253S11656730EA0115901200000004000000
B0608053205317S11656730EA0116401208000004000000
B0608093205363S11656685EA0117101212000000000000
B0608133205380S11656617EA0117301216000000000000
B0608173205363S11656548EA0117501216000000000000
B0608213205314S11656500EA0117701221000000000000
B0608253205252S11656501EA0118701234000004000000
B0608293205215S11656561EA0119401236000004000000
B0608333205222S11656635EA0119701240000004000000
B0608373205256S11656695EA0120201244000004000000
B0608413205310S11656727EA0120301244000004000000
B0608453205371S11656723EA0120301244000004000000
B0608493205422S11656683EA0120001239000000000000
B0608533205448S11656615EA0119201231000004000000
B0608573205443S11656537EA0118501224000000000000
B0609013205422S11656463EA0118001220000000000000
B0609053205380S11656401EA0117701219000000000000
B0609093205319S11656363EA0117401216000000000000
B0609133205250S11656376EA0117701220000000000000
B0609173205201S11656429EA0118001227000000000000
B0609213205218S11656492EA0119101240000000000000
B0609253205272S11656493EA0119501231000000000000
B0609293205293S11656431EA0119001233000004000000
B0609333205250S11656380EA0119601241000004000000
B0609373205189S11656385EA0120101243000004000000
B0609413205157S11656442EA0120201246000004000000
B0609453205168S11656516EA0120001239000004000000
B0609493205214S11656584EA0119201231000000000000
B0609533205278S11656631EA0119401239000000000000
B0609573205349S11656658EA0120201244000000000000
B0610013205423S11656683EA0119701234000000000000
B0610053205503S11656700EA0118501223000004000000
B0610093205583S11656713EA0117301210000004000000
B0610133205665S11656726EA0116101203000004000000
B0610173205746S11656739EA0115701197000000000000
B0610213205826S11656749EA0114901190000000000000
B0610253205906S11656760EA0114301184000000000000
B0610293205984S11656773EA0113501177000000000000
B0610333206059S11656782EA0112901171000004000000
B0610373206133S11656793EA0112501165000000000000
B0610413206205S11656810EA0111801157000000000000
B0610453206277S11656828EA0110901148000000000000
B0610493206350S11656843EA0110101143000000000000
B0610533206424S11656852EA0109701138000000000000
B0610573206497S11656860EA0109301135000000000000
B0611013206571S11656869EA0108601127000000000000
B0611053206643S11656879EA0108001122000000000000
B0611093206714S11656891EA0107401115000004000000
B0611133206783S11656906EA0107001109000004000000
B0611173206851S11656921EA0106001097000004000000
B0611213206921S11656930EA0104301081000000000000
B0611253206994S11656938EA0102901067000004000000
B0611293207066S11656942EA0102001058000004000000
B0611333207138S11656947EA0101201054000004000000
B0611373207206S11656955EA0100901051000000000000
B0611413207271S11656958EA0100601048000000000000
B0611453207336S11656951EA0100301042000000000000
B0611493207395S11656921EA0099701038000000000000
B0611533207447S11656877EA0099301033000000000000
B0611573207489S11656818EA0098501025000000000000
B0612013207529S11656754EA0097801020000000000000
B0612053207576S11656696EA0097501018000000000000
B0612093207618S11656636EA0097401015000000000000
B0612133207642S11656561EA0096701009000000000000
B0612173207654S11656480EA0096101000000000000000
B0612213207675S11656398EA0095300995000000000000
B0612253207706S11656325EA0095701004000004000000
B0612293207759S11656292EA0096501012000004000000
B0612333207807S11656316EA0097501019000004000000
B0612373207815S11656377EA0097401014000000000000
B0612413207778S11656435EA0096801010000000000000
B0612453207716S11656462EA0096901014000000000000
B0612493207651S11656454EA0097401017000004000000
B0612533207598S11656418EA0097401015000000000000
B0612573207558S11656358EA0096901009000004000000
B0613013207524S11656292EA0096401004000000000000
B0613053207484S11656225EA0095300990000000000000
B0613093207441S11656155EA0095000995000000000000
B0613133207382S11656129EA0096801015000004000000
B0613173207352S11656178EA0098101024000000000000
B0613213207386S11656227EA0098101020000000000000
B0613253207438S11656207EA0098101022000000000000
B0613293207455S11656139EA0098401021000000000000
B0613333207415S11656076EA0098201022000000000000
B0613373207349S11656069EA0098701031000000000000
B0613413207320S11656126EA0100001044000000000000
B0613453207362S11656165EA0100501039000000000000
B0613493207408S11656126EA0100701049000000000000
B0613533207393S11656055EA0101401055000000000000
B0613573207330S11656032EA0102001059000000000000
B0614013207285S11656082EA0102501065000000000000
B0614053207294S11656154EA0102801064000000000000
B0614093207347S11656188EA0102401061000000000000
B0614133207408S11656163EA0103101071000000000000
B0614173207446S11656102EA0103801078000000000000
B0614213207446S11656026EA0104101081000000000000
B0614253207404S11655969EA0104001077000000000000
B0614293207338S11655969EA0104601090000000000000
B0614333207306S11656029EA0105601097000000000000
B0614373207337S11656076EA0106201097000000000000
B0614413207388S11656048EA0105901093000000000000
B0614453207398S11655976EA0105601093000000000000
B0614493207365S11655908EA0106101102000000000000
B0614533207310S11655860EA0106801108000000000000
B0614573207243S11655824EA0107301113000000000000
B0615013207177S11655822EA0108301126000000000000
B0615053207154S11655879EA0109101126000000000000
B0615093207187S11655933EA0108401117000000000000
B0615133207243S11655972EA0107801117000000000000
B0615173207302S11655998EA0108601129000000000000
B0615213207346S11655961EA0110001142000004000000
B0615253207324S11655899EA0110701145000004000000
B0615293207260S11655892EA0111101151000004000000
B0615333207224S11655947EA0112001165000004000000
B0615373207241S11656004EA0113201175000000000000
B0615413207287S11656019EA0113501177000004000000
B0615453207328S11655982EA0114001182000004000000
B0615493207330S11655915EA0114001182000004000000
B0615533207286S11655856EA0114101189000004000000
B0615573207224S11655835EA0115201199000004000000
B0616013207165S11655860EA0116101206000004000000
B0616053207130S11655916EA0116701208000004000000
B0616093207134S11655977EA0116201204000004000000
B0616133207168S11656024EA0115901200000004000000
B0616173207217S11656052EA0115601196000004000000
B0616213207272S11656065EA0115501196000004000000
B0616253207317S11656028EA0116101206000000000000
B0616293207316S11655956EA0116201205000000000000
B0616333207269S11655902EA0116201208000004000000
B0616373207204S11655899EA0117401221000004000000
B0616413207170S11655955EA0118101221000004000000
B0616453207187S11656021EA0117701217000004000000
B0616493207239S11656052EA0117701220000004000000
B0616533207291S11656026EA0118201226000000000000
B0616573207307S11655959EA0118301222000000000000
B0617013207278S11655885EA0117701217000000000000
B0617053207215S11655835EA0117701221000000000000
B0617093207142S11655798EA0117901223000004000000
B0617133207069S11655785EA0118901232000004000000
B0617173207024S11655837EA0119001228000004000000
B0617213207029S11655913EA0118101216000004000000
B0617253207063S11655986EA0116901205000000000000
B0617293207116S11656038EA0116201202000004000000
B0617333207183S11656039EA0116301207000000000000
B0617373207243S11656006EA0117001213000000000000
B0617413207300S11655960EA0117101214000000000000
B0617453207358S11655916EA0117101213000000000000
B0617493207427S11655898EA0117001214000004000000
B0617533207494S11655911EA0117601224000004000000
B0617573207553S11655939EA0118701235000004000000
B0618013207592S11655990EA0120001251000000000000
B0618053207579S11656052EA0122101275000000000000
B0618093207528S11656078EA0123801285000000000000
B0618133207475S11656048EA0124501290000000000000
B0618173207463S11655981EA0125201298000000000000
B0618213207497S11655929EA0125701307000000000000
B0618253207546S11655918EA0126801318000000000000
B0618293207586S11655951EA0127901328000000000000
B0618333207597S11656009EA0128701334000004000000
B0618373207568S11656067EA0129501344000004000000
B0618413207515S11656094EA0130701356000004000000
B0618453207456S11656074EA0131801366000004000000
B0618493207423S11656016EA0132901377000004000000
B0618533207424S11655948EA0133701386000004000000
B0618573207456S11655892EA0134401392000000000000
B0619013207507S11655866EA0135101400000004000000
B0619053207560S11655876EA0135801406000004000000
B0619093207597S11655922EA0136401411000004000000
B0619133207599S11655983EA0136701411000004000000
B0619173207564S11656037EA0136801415000004000000
B0619213207507S11656060EA0137901429000004000000
B0619253207450S11656037EA0138801436000000000000
B0619293207427S11655968EA0139001436000000000000
B0619333207454S11655896EA0139201441000000000000
B0619373207510S11655868EA0140101457000000000000
B0619413207562S11655889EA0141401463000000000000
B0619453207590S11655946EA0141601461000004000000
B0619493207597S11656016EA0141201454000000000000
B0619533207594S11656093EA0141001458000000000000
B0619573207562S11656155EA0142801480000000000000
B0620013207510S11656188EA0144501493000000000000
B0620053207453S11656178EA0145001496000000000000
B0620093207415S11656121EA0145201497000000000000
B0620133207421S11656051EA0145901510000000000000
B0620173207464S11656015EA0147301524000000000000
B0620213207512S11656033EA0148201531000000000000
B0620253207528S11656091EA0149101538000004000000
B0620293207493S11656150EA0149801547000000000000
B0620333207437S11656165EA0151401565000000000000
B0620373207384S11656145EA0152201564000000000000
B0620413207329S11656103EA0152001564000004000000
B0620453207271S11656060EA0152101564000004000000
B0620493207207S11656015EA0151601557000004000000
B0620533207143S11655968EA0151301555000004000000
B0620573207077S11655921EA0150501545000004000000
B0621013207004S11655876EA0149201532000004000000
B0621053206923S11655831EA0148201523000004000000
B0621093206843S11655786EA0147301515000004000000
B0621133206762S11655740EA0146201502000004000000
B0621173206680S11655690EA0145201494000000000000
B0621213206601S11655642EA0144801489000000000000
B0621253206527S11655591EA0144301485000000000000
B0621293206455S11655538EA0144101482000004000000
B0621333206385S11655488EA0143901481000000000000
B0621373206314S11655444EA0143201472000000000000
B0621413206242S11655398EA0141701457000004000000
B0621453206166S11655356EA0140401446000000000000
B0621493206091S11655314EA0140601452000000000000
B0621533206023S11655274EA0141501465000000000000
B0621573205959S11655231EA0142501473000000000000
B0622013205896S11655187EA0143001476000000000000
B0622053205837S11655142EA0143401481000004000000
B0622093205777S11655105EA0143601482000000000000
B0622133205714S11655073EA0143501479000004000000
B0622173205647S11655042EA0142701469000000000000
B0622213205571S11655015EA0142101466000004000000
B0622253205493S11654985EA0142101464000004000000
B0622293205415S11654941EA0141901462000004000000
B0622333205347S11654875EA0141901462000004000000
B0622373205288S11654798EA0142701475000000000000
B0622413205232S11654724EA0144201490000000000000
B0622453205168S11654676EA0145801506000000000000
B0622493205102S11654683EA0147301519000000000000
B0622533205066S11654742EA0148001524000000000000
B0622573205083S11654807EA0148801535000000000000
B0623013205136S11654833EA0149701541000000000000
B0623053205188S11654799EA0150201548000000000000
B0623093205200S11654730EA0151101559000000000000
B0623133205162S11654674EA0152001566000000000000
B0623173205100S11654670EA0152601569000000000000
B0623213205050S11654715EA0152701568000004000000
B0623253205035S11654787EA0153001575000004000000
B0623293205051S11654852EA0154301590000004000000
B0623333205101S11654868EA0155501598000004000000
B0623373205133S11654815EA0155501594000000000000
B0623413205110S11654746EA0156201606000000000000
B0623453205051S11654732EA0157101614000000000000
B0623493205005S11654781EA0156701605000004000000
B0623533204970S11654856EA0156101600000000000000
B0623573204940S11654941EA0155701595000004000000
B0624013204911S11655033EA0155201591000004000000
B0624053204881S11655133EA0154001569000004000000
B0624093204853S11655236EA0152501561000004000000
B0624133204827S11655337EA0151801558000004000000
B0624173204801S11655435EA0151501556000000000000
B0624213204772S11655530EA0150701545000000000000
B0624253204743S11655623EA0150301546000004000000
B0624293204716S11655710EA0150401549000000000000
B0624333204684S11655790EA0150901552000000000000
B0624373204652S11655863EA0151301558000000000000
B0624413204625S11655935EA0151501553000004000000
B0624453204603S11656016EA0150401543000004000000
B0624493204576S11656097EA0150001543000004000000
B0624533204544S11656173EA0150401549000004000000
B0624573204513S11656246EA0150701549000004000000
B0625013204478S11656318EA0150401547000000000000
B0625053204438S11656390EA0149701538000004000000
B0625093204388S11656461EA0149601538000004000000
B0625133204331S11656523EA0149401534000000000000
B0625173204271S11656581EA0148601525000000000000
B0625213204208S11656639EA0147301510000004000000
B0625253204143S11656701EA0145701493000004000000
B0625293204075S11656765EA0144701488000004000000
B0625333204009S11656825EA0144701487000004000000
B0625373203948S11656882EA0144301485000004000000
B0625413203889S11656938EA0143701478000000000000
B0625453203831S11656988EA0143401474000000000000
B0625493203770S11657034EA0143101470000000000000
B0625533203711S11657082EA0142401465000000000000
B0625573203653S11657133EA0141801458000004000000
B0626013203597S11657187EA0141501456000000000000
B0626053203549S11657248EA0141301456000000000000
B0626093203506S11657313EA0142101466000000000000
B0626133203469S11657378EA0143301475000004000000
B0626173203471S11657451EA0144201492000000000000
B0626213203525S11657460EA0146001508000000000000
B0626253203550S11657395EA0146801512000004000000
B0626293203510S11657341EA0147401519000004000000
B0626333203447S11657341EA0148101528000004000000
B0626373203402S11657387EA0149001534000004000000
B0626413203399S11657456EA0149601538000004000000
B0626453203441S11657504EA0150101544000000000000
B0626493203503S11657502EA0150301546000000000000
B0626533203545S11657443EA0150801552000000000000
B0626573203542S11657368EA0151701562000000000000
B0627013203502S11657312EA0152201563000004000000
B0627053203434S11657303EA0152101566000000000000
B0627093203373S11657335EA0152801572000000000000
B0627133203337S11657399EA0153301579000000000000
B0627173203342S11657473EA0154201584000000000000
B0627213203382S11657530EA0154701590000004000000
B0627253203443S11657549EA0155101595000004000000
B0627293203504S11657523EA0155801603000000000000
B0627333203547S11657469EA0156501611000000000000
B0627373203566S11657398EA0156901612000000000000
B0627413203540S11657324EA0156801608000004000000
B0627453203481S11657277EA0156401610000000000000
B0627493203411S11657270EA0157101620000000000000
B0627533203348S11657296EA0157901626000000000000
B0627573203321S11657360EA0158401628000000000000
B0628013203343S11657429EA0158501629000000000000
B0628053203394S11657476EA0158901634000000000000
B0628093203458S11657501EA0158801629000000000000
B0628133203530S11657504EA0158501630000000000000
B0628173203607S11657501EA0158401627000000000000
B0628213203684S11657494EA0158001623000000000000
B0628253203764S11657486EA0157701619000000000000
B0628293203845S11657478EA0157201612000000000000
B0628333203928S11657472EA0156301603000000000000
B0628373204013S11657468EA0155601598000000000000
B0628413204096S11657469EA0154801588000000000000
B0628453204182S11657476EA0153501570000000000000
B0628493204270S11657477EA0152501568000000000000
B0628533204355S11657477EA0152801572000000000000
B0628573204435S11657481EA0152701567000000000000
B0629013204516S11657482EA0152101563000000000000
B0629053204595S11657482EA0151701559000000000000
B0629093204672S11657482EA0151401558000000000000
B0629133204750S11657485EA0150801550000004000000
B0629173204830S11657486EA0150001540000000000000
B0629213204911S11657488EA0149501537000000000000
B0629253204989S11657490EA0149201534000000000000
B0629293205066S11657498EA0148601527000000000000
B0629333205146S11657506EA0147901519000000000000
B0629373205226S11657512EA0146901512000000000000
B0629413205301S11657516EA0146601509000000000000
B0629453205376S11657521EA0146401509000004000000
B0629493205451S11657525EA0146201504000004000000
B0629533205523S11657528EA0145801501000000000000
B0629573205592S11657534EA0145801504000000000000
B0630013205661S11657545EA0146101505000000000000
B0630053205727S11657562EA0146401511000000000000
B0630093205791S11657579EA0146801514000000000000
B0630133205855S11657601EA0146801512000004000000
B0630173205917S11657627EA0146001503000004000000
B0630213205984S11657653EA0145701500000000000000
B0630253206052S11657668EA0146101508000004000000
B0630293206116S11657640EA0147201520000004000000
B0630333206142S11657568EA0148901539000004000000
B0630373206117S11657497EA0150301548000004000000
B0630413206058S11657459EA0150401544000004000000
B0630453205990S11657469EA0149901540000000000000
B0630493205941S11657517EA0150001545000000000000
B0630533205917S11657586EA0150301545000000000000
B0630573205915S11657660EA0150401545000000000000
B0631013205932S11657733EA0150401547000000000000
B0631053205963S11657797EA0150501548000000000000
B0631093206002S11657857EA0151001556000000000000
B0631133206041S11657917EA0151501556000004000000
B0631173206086S11657971EA0151901565000004000000
B0631213206137S11658011EA0153201577000004000000
B0631253206192S11658000EA0153901580000004000000
B0631293206208S11657931EA0153501576000004000000
B0631333206176S11657866EA0153301574000004000000
B0631373206123S11657815EA0152901568000004000000
B0631413206055S11657780EA0152401563000000000000
B0631453205978S11657771EA0152701571000004000000
B0631493205912S11657803EA0153801586000000000000
B0631533205891S11657872EA0155101596000000000000
B0631573205924S11657931EA0155401596000004000000
B0632013205982S11657939EA0155701598000000000000
B0632053206033S11657893EA0155101591000004000000
B0632093206055S11657816EA0155001593000004000000
B0632133206043S11657735EA0155301601000004000000
B0632173206006S11657666EA0156301612000000000000
B0632213205952S11657612EA0157501625000004000000
B0632253205890S11657618EA0159001633000004000000
B0632293205867S11657680EA0159101632000004000000
B0632333205896S11657738EA0158801629000000000000
B0632373205956S11657757EA0158701631000000000000
B0632413206011S11657720EA0159401642000000000000
B0632453206037S11657650EA0160601651000000000000
B0632493206038S11657572EA0161401658000000000000
B0632533205999S11657506EA0162001668000000000000
B0632573205935S11657488EA0162701668000000000000
B0633013205873S11657521EA0162401668000000000000
B0633053205838S11657588EA0162901673000000000000
B0633093205841S11657662EA0163101674000004000000
B0633133205876S11657722EA0163501681000004000000
B0633173205922S11657758EA0164601694000004000000
B0633213205977S11657774EA0165301700000004000000
B0633253206036S11657781EA0165801703000004000000
B0633293206094S11657792EA0166301708000004000000
B0633333206155S11657797EA0166101703000000000000
B0633373206221S11657796EA0165501700000000000000
B0633413206286S11657784EA0165601700000000000000
B0633453206351S11657763EA0165601698000000000000
B0633493206416S11657736EA0164801690000004000000
B0633533206483S11657714EA0164101684000004000000
B0633573206550S11657701EA0163701679000000000000
B0634013206618S11657692EA0163401679000000000000
B0634053206687S11657685EA0162901671000000000000
B0634093206761S11657686EA0162001661000000000000
B0634133206838S11657694EA0161201652000000000000
B0634173206914S11657707EA0160601650000004000000
B0634213206987S11657720EA0160501650000004000000
B0634253207059S11657733EA0160601650000004000000
B0634293207128S11657748EA0160501648000004000000
B0634333207196S11657770EA0160001645000004000000
B0634373207261S11657800EA0159901643000000000000
B0634413207324S11657833EA0159801640000004000000
B0634453207384S11657868EA0159201635000000000000
B0634493207447S11657902EA0158501625000004000000
B0634533207514S11657936EA0157601618000000000000
B0634573207581S11657967EA0157401619000004000000
B0635013207645S11658000EA0157701623000004000000
B0635053207705S11658034EA0157901621000004000000
B0635093207765S11658069EA0157401614000004000000
B0635133207828S11658101EA0156601606000004000000
B0635173207896S11658134EA0155901601000000000000
B0635213207961S11658167EA0155701601000000000000
B0635253208023S11658199EA0155901604000004000000
B0635293208083S11658230EA0155501597000004000000
B0635333208143S11658270EA0154501585000000000000
B0635373208200S11658322EA0153601574000000000000
B0635413208256S11658377EA0153001574000004000000
B0635453208308S11658426EA0153001576000004000000
B0635493208359S11658477EA0152801573000000000000
B0635533208405S11658531EA0152401565000000000000
B0635573208454S11658587EA0151701562000004000000
B0636013208500S11658641EA0151701563000004000000
B0636053208546S11658697EA0151701561000004000000
B0636093208587S11658758EA0151601561000004000000
B0636133208628S11658823EA0151501557000004000000
B0636173208667S11658893EA0150601544000000000000
B0636213208703S11658967EA0149901544000000000000
B0636253208743S11659035EA0150301548000000000000
B0636293208784S11659096EA0150701550000000000000
B0636333208823S11659155EA0151201554000004000000
B0636373208859S11659215EA0151101551000004000000
B0636413208899S11659274EA0150301545000000000000
B0636453208942S11659334EA0149801537000000000000
B0636493208985S11659393EA0149001527000000000000
B0636533209028S11659456EA0148001518000000000000
B0636573209075S11659522EA0147201511000004000000
B0637013209122S11659591EA0146701505000004000000
B0637053209170S11659657EA0146501507000000000000
B0637093209214S11659722EA0147101512000004000000
B0637133209250S11659790EA0147501515000004000000
B0637173209288S11659856EA0147501517000004000000
B0637213209326S11659922EA0147601517000004000000
B0637253209366S11659986EA0146901506000004000000
B0637293209405S11700052EA0145801497000004000000
B0637333209440S11700120EA0145101490000004000000
B0637373209473S11700190EA0143901477000004000000
B0637413209507S11700262EA0142601464000000000000
B0637453209543S11700332EA0141201450000000000000
B0637493209583S11700402EA0140401442000000000000
B0637533209624S11700466EA0140101441000004000000
B0637573209660S11700530EA0139901437000004000000
B0638013209695S11700593EA0139501435000004000000
B0638053209730S11700656EA0139201430000004000000
B0638093209769S11700718EA0138501422000004000000
B0638133209808S11700782EA0138001419000004000000
B0638173209845S11700844EA0138001418000004000000
B0638213209880S11700907EA0137801415000004000000
B0638253209915S11700970EA0137301410000004000000
B0638293209950S11701035EA0136901406000004000000
B0638333209986S11701099EA0136501402000004000000
B0638373210023S11701165EA0136001396000004000000
B0638413210058S11701230EA0135401392000004000000
B0638453210095S11701294EA0135001388000000000000
B0638493210134S11701359EA0134201377000000000000
B0638533210175S11701425EA0133501371000004000000
B0638573210214S11701493EA0133101367000000000000
B0639013210249S11701559EA0132801365000004000000
B0639053210280S11701625EA0132601361000004000000
B0639093210316S11701685EA0131901352000004000000
B0639133210355S11701749EA0130701342000000000000
B0639173210396S11701817EA0130001334000000000000
B0639213210435S11701889EA0129301329000000000000
B0639253210472S11701963EA0128901326000004000000
B0639293210513S11702036EA0128401318000004000000
B0639333210556S11702109EA0127801312000004000000
B0639373210599S11702183EA0126901304000000000000
B0639413210641S11702260EA0126701308000000000000
B0639453210682S11702329EA0127801321000004000000
B0639493210719S11702395EA0128801329000004000000
B0639533210758S11702459EA0129101329000000000000
B0639573210799S11702522EA0129101327000000000000
B0640013210835S11702590EA0128401318000000000000
B0640053210873S11702660EA0127501309000000000000
B0640093210909S11702734EA0126701303000000000000
B0640133210939S11702808EA0126501303000000000000
B0640173210968S11702881EA0126401304000004000000
B0640213210996S11702954EA0126301299000004000000
B0640253211024S11703031EA0126001297000000000000
B0640293211054S11703104EA0126401308000000000000
B0640333211083S11703171EA0127201313000004000000
B0640373211116S11703236EA0127801318000000000000
B0640413211154S11703296EA0128601325000004000000
B0640453211210S11703302EA0129301331000004000000
B0640493211247S11703240EA0129901344000004000000
B0640533211221S11703174EA0132401378000004000000
B0640573211168S11703172EA0134501387000004000000
B0641013211143S11703227EA0134701387000004000000
B0641053211169S11703276EA0135101394000000000000
B0641093211220S11703275EA0135701402000004000000
B0641133211252S11703224EA0137601424000004000000
B0641173211225S11703172EA0139001431000000000000
B0641213211172S11703178EA0140101444000000000000
B0641253211151S11703236EA0140701448000000000000
B0641293211185S11703282EA0141401460000000000000
B0641333211230S11703256EA0142801477000000015000
B0641373211224S11703192EA0144201489000000015000
B0641413211171S11703169EA0145401501000004015000
B0641453211126S11703210EA0146101504000004000000
B0641493211122S11703278EA0146301506000000000000
B0641533211161S11703327EA0146901512000004000000
B0641573211221S11703327EA0147501515000004000000
B0642013211271S11703276EA0147901522000004000000
B0642053211271S11703204EA0150001549000004000000
B0642093211219S11703174EA0151801567000004000000
B0642133211173S11703215EA0153201579000004000000
B0642173211186S11703282EA0154601590000000000000
B0642213211243S11703304EA0155501598000000000000
B0642253211294S11703257EA0156601612000000000000
B0642293211295S11703184EA0157901626000004000000
B0642333211251S11703139EA0159401641000004000000
B0642373211191S11703149EA0160401647000004000000
B0642413211160S11703210EA0161601665000000000000
B0642453211173S11703275EA0163501684000000000000
B0642493211221S11703304EA0164401691000000000000
B0642533211273S11703271EA0164901695000000000000
B0642573211280S11703198EA0165801708000000000000
B0643013211234S11703153EA0167201720000000000000
B0643053211177S11703178EA0168101729000000000000
B0643093211164S11703250EA0169201739000004000000
B0643133211208S11703300EA0170301750000004000000
B0643173211265S11703278EA0171301761000004000000
B0643213211278S11703210EA0172601774000004000000
B0643253211238S11703163EA0173901786000004000000
B0643293211180S11703178EA0174501794000004000000
B0643333211152S11703241EA0175301800000004000000
B0643373211180S11703308EA0175601805000004000000
B0643413211239S11703321EA0176401810000004000000
B0643453211291S11703274EA0176701813000004000000
B0643493211298S11703200EA0177601824000004000000
B0643533211256S11703148EA0178501831000004000000
B0643573211191S11703146EA0178701832000000000000
B0644013211146S11703204EA0179501843000000000000
B0644053211142S11703283EA0180601851000004000000
B0644093211181S11703345EA0181001853000004000000
B0644133211246S11703356EA0181201857000004000000
B0644173211298S11703312EA0181601858000004000000
B0644213211325S11703232EA0180901853000000000000
B0644253211336S11703144EA0181001858000004000000
B0644293211338S11703059EA0181801866000000000000
B0644333211340S11702972EA0181901863000000000000
B0644373211342S11702881EA0181601860000000000000
B0644413211338S11702786EA0181401859000000000000
B0644453211329S11702691EA0181401859000000000000
B0644493211315S11702598EA0181101855000000000000
B0644533211301S11702506EA0180901853000000000000
B0644573211291S11702413EA0180601849000000000000
B0645013211282S11702320EA0180101843000000000000
B0645053211273S11702223EA0179501839000000000000
B0645093211262S11702129EA0178901831000000000000
B0645133211254S11702032EA0178001821000000000000
B0645173211255S11701934EA0176901810000000000000
B0645213211262S11701836EA0176101803000000000000
B0645253211267S11701737EA0175201795000000000000
B0645293211271S11701638EA0174201781000000000000
B0645333211267S11701536EA0173501779000000000000
B0645373211255S11701437EA0174001788000000000000
B0645413211237S11701341EA0174801799000000000000
B0645453211213S11701248EA0175301798000000000000
B0645493211186S11701155EA0174901795000000000000
B0645533211155S11701064EA0174901793000000000000
B0645573211121S11700975EA0174401787000000000000
B0646013211085S11700890EA0174101786000000000000
B0646053211050S11700810EA0174101786000000000000
B0646093211015S11700734EA0173701779000000000000
B0646133210969S11700657EA0173001773000004000000
B0646173210917S11700585EA0172601765000004000000
B0646213210855S11700522EA0172001762000004000000
B0646253210790S11700466EA0171701759000004000000
B0646293210722S11700418EA0171101753000004000000
B0646333210654S11700371EA0170401745000004000000
B0646373210587S11700315EA0169501737000000000000
B0646413210524S11700253EA0168901730000000000000
B0646453210469S11700184EA0168501727000000000000
B0646493210415S11700114EA0168001722000004000000
B0646533210365S11700043EA0167401714000004000000
B0646573210314S11659969EA0166601706000004000000
B0647013210266S11659893EA0165901700000000000000
B0647053210224S11659812EA0165601699000000000000
B0647093210184S11659734EA0165501698000000000000
B0647133210145S11659660EA0165101693000000000000
B0647173210102S11659584EA0164201682000000000000
B0647213210055S11659506EA0162901671000000000000
B0647253210008S11659427EA0162401669000000000000
B0647293209964S11659349EA0162601673000000000000
B0647333209924S11659275EA0162901673000000000000
B0647373209884S11659202EA0162501667000000000000
B0647413209841S11659128EA0161601655000000000000
B0647453209796S11659051EA0160601646000000000000
B0647493209754S11658973EA0160101643000000000000
B0647533209712S11658897EA0160201644000000000000
B0647573209670S11658824EA0160101643000004000000
B0648013209626S11658754EA0159501636000000000000
B0648053209579S11658681EA0158401623000000000000
B0648093209533S11658604EA0157301613000000000000
B0648133209488S11658525EA0157001612000000000000
B0648173209447S11658450EA0156901610000000000000
B0648213209408S11658375EA0156401603000000000000
B0648253209370S11658299EA0155701597000000000000
B0648293209330S11658222EA0155301594000000000000
B0648333209287S11658147EA0155001592000000000000
B0648373209240S11658075EA0154701590000004000000
B0648413209188S11658006EA0154701590000004000000
B0648453209135S11657941EA0155101597000000000000
B0648493209081S11657883EA0155901607000000000000
B0648533209031S11657828EA0156801613000000000000
B0648573208977S11657781EA0157501621000000000000
B0649013208914S11657767EA0158201629000000000000
B0649053208850S11657781EA0158901633000000000000
B0649093208790S11657814EA0158701630000004000000
B0649133208734S11657855EA0158401626000000000000
B0649173208681S11657904EA0157401615000004000000
B0649213208636S11657961EA0157001611000004000000
B0649253208600S11658030EA0156601609000000000000
B0649293208571S11658105EA0157001616000004000000
B0649333208545S11658182EA0157301616000004000000
B0649373208526S11658262EA0156701609000004000000
B0649413208513S11658347EA0156301606000000000000
B0649453208499S11658430EA0156501610000000000000
B0649493208482S11658512EA0156501609000000000000
B0649533208468S11658596EA0156601613000000000000
B0649573208455S11658676EA0157301619000004000000
B0650013208443S11658752EA0157101612000004000000
B0650053208434S11658833EA0155501592000000000000
B0650093208425S11658921EA0153301570000000000000
B0650133208417S11659011EA0152501571000000000000
B0650173208403S11659096EA0152901576000000000000
B0650213208389S11659176EA0153601583000000000000
B0650253208376S11659253EA0154301588000000000000
B0650293208360S11659328EA0154401588000000000000
B0650333208340S11659406EA0154001583000000000000
B0650373208324S11659490EA0153701584000004000000
B0650413208313S11659575EA0154201591000000000000
B0650453208311S11659660EA0154701591000000000000
B0650493208312S11659746EA0154201585000000000000
B0650533208313S11659831EA0154401590000000000000
B0650573208331S11659909EA0155501602000000000000
B0651013208385S11659956EA0157101622000000000000
B0651053208441S11659932EA0158801643000000000000
B0651093208450S11659863EA0160101647000004000000
B0651133208408S11659812EA0160801657000004000000
B0651173208348S11659813EA0161801664000004000000
B0651213208307S11659860EA0162501673000004000000
B0651253208318S11659921EA0163601687000000000000
