ACAM4N6
HFDTE150423
HFFXA050
HFPLTPILOT:JOHN WELSH              
HFGTYGLIDERTYPE:HORNET      
HFGIDGLIDERID:VH-GMY      
HFDTM100GPSDATUM:
HFRFWFIRMWAREVERSION:F2.6
HFRHWHARDWAREVERSION:300 Series Version 2
HFFTYFRTYPE:CAMBRIDGE AERO INSTRUMENTS, 302+
HFGPS:GARMIN,LVS-25,12,18000
HFPRSPRESSALTSENSOR:INTERSEMA, MS5534-AP, 20000
I033638FXA3941ENL4247REX
LCAMSBVER:5FWVER:F26300
C120323035839120323000102
C0000000N00000000WTAKEOFF     
C3207549S11656849EBEVERLEY AF 
C3152966S11809465EBruce Rock  
C3110883S11723215EWyalkatchem 
C3207549S11656849EBEVERLEY AF 
C0000000N00000000WLANDING     
B0329513207376S11656887EA0016000206000004000000
B0329533207376S11656887EA0016000206000004000000
B0329553207376S11656887EA0016100206000004000000
B0329573207376S11656887EA0016100206000004000000
B0329593207376S11656887EA0016200206000000000000
B0330013207377S11656887EA0016100206000000000000
B0330033207377S11656887EA0016100206000000000000
B0330053207377S11656887EA0016200206000004000000
B0330073207377S11656887EA0016200206000000000000
B0330093207377S11656887EA0016100205000004000000
B0330113207377S11656887EA0016200205000000000000
B0330133207377S11656887EA0016100205000004000000
B0330153207377S11656887EA0016200205000000000000
B0330173207377S11656887EA0016000205000000000000
B0330193207380S11656890EA0016100205000000000000
B0330223207393S11656897EA0016100205000000000000
B0330263207424S11656917EA0016200204000004000000
B0330303207469S11656945EA0016400205000000000000
B0330343207528S11656982EA0016700206000000000000
B0330383207594S11657025EA0017000208000000000000
B0330423207663S11657072EA0017500217000000000000
B0330463207733S11657112EA0019000236000000000000
B0330503207801S11657153EA0020400257000000000000
B0330543207869S11657194EA0022300275000000000000
B0330583207932S11657238EA0024200295000000000000
B0331023207995S11657283EA0026000316000000000000
B0331063208058S11657324EA0027900335000000000000
B0331103208118S11657376EA0029900353000000000000
B0331143208179S11657426EA0031500368000000000000
B0331183208243S11657476EA0033200386000000000000
B0331223208305S11657532EA0035000405000004000000
B0331263208366S11657589EA0036600418000000000000
B0331303208424S11657651EA0038000434000000000000
B0331343208467S11657729EA0039700450000000000000
B0331383208494S11657820EA0041300466000000000000
B0331423208508S11657917EA0042900482000000000000
B0331463208504S11658015EA0044600501000000000000
B0331503208476S11658112EA0046600516000004000000
B0331543208429S11658200EA0048000533000004000000
B0331583208372S11658278EA0050100556000004000000
B0332023208308S11658348EA0052300579000004000000
B0332063208256S11658433EA0054700604000004000000
B0332103208238S11658530EA0057300628000004000000
B0332143208246S11658626EA0059100642000000000000
B0332183208282S11658711EA0060400655000000000000
B0332223208340S11658771EA0061600667000000000000
B0332263208409S11658802EA0062900678000000000000
B0332303208480S11658802EA0064000691000004000000
B0332343208538S11658765EA0065100702000004000000
B0332383208582S11658708EA0066200717000004000000
B0332423208606S11658641EA0068000739000004000000
B0332463208608S11658565EA0069900756000000000000
B0332503208587S11658490EA0071600773000000000000
B0332543208546S11658425EA0073700792000000000000
B0332583208481S11658400EA0074600793000000000000
B0333023208428S11658451EA0075100800000000000000
B0333063208442S11658520EA0075800802000004000000
B0333103208493S11658528EA0075500799000004000000
B0333143208521S11658477EA0075300797000000000000
B0333183208504S11658413EA0075000796000004000000
B0333223208451S11658372EA0074900796000004000000
B0333263208381S11658366EA0074600792000004000000
B0333303208312S11658403EA0074400791000000000000
B0333343208290S11658479EA0075000799000004000000
B0333383208333S11658528EA0075100796000004000000
B0333423208385S11658504EA0074700790000000000000
B0333463208389S11658434EA0074500793000000000000
B0333503208340S11658386EA0074900798000004000000
B0333543208277S11658399EA0075400800000004000000
B0333583208244S11658464EA0075300799000004000000
B0334023208272S11658525EA0075300799000000000000
B0334063208324S11658525EA0075200796000000000000
B0334103208346S11658469EA0074900798000000000000
B0334143208312S11658414EA0075300798000000000000
B0334183208248S11658414EA0075000794000000000000
B0334223208187S11658453EA0074200787000000000000
B0334263208132S11658509EA0074000787000000000000
B0334303208101S11658583EA0074000785000000000000
B0334343208127S11658656EA0073500780000000000000
B0334383208186S11658689EA0073200777000000000000
B0334423208243S11658672EA0073200779000000000000
B0334463208255S11658612EA0073800786000000000000
B0334503208214S11658568EA0073900784000000000000
B0334543208152S11658576EA0073500782000000000000
B0334583208090S11658615EA0073300781000000000000
B0335023208030S11658663EA0073000776000004000000
B0335063207971S11658717EA0072400770000004000000
B0335103207918S11658782EA0072000765000004000000
B0335143207914S11658864EA0072400774000004000000
B0335183207960S11658890EA0072500771000004000000
B0335223207992S11658847EA0071500759000004000000
B0335263207978S11658785EA0071000756000004000000
B0335303207923S11658747EA0070700753000000000000
B0335343207853S11658745EA0070200745000000000000
B0335383207781S11658777EA0069600740000004000000
B0335423207714S11658825EA0069000737000004000000
B0335463207658S11658885EA0069500741000004000000
B0335503207646S11658970EA0069800747000004000000
B0335543207693S11659020EA0071200760000000000000
B0335583207727S11658985EA0072200770000000000000
B0336023207684S11658946EA0072600771000000000000
B0336063207627S11658977EA0072800770000000000000
B0336103207615S11659055EA0072900780000000000000
B0336143207659S11659100EA0073800786000000000000
B0336183207692S11659063EA0074600795000004000000
B0336223207657S11659022EA0075300798000004000000
B0336263207601S11659054EA0075900811000000000000
B0336303207614S11659123EA0077100817000000000000
B0336343207667S11659124EA0077100817000000000000
B0336383207667S11659067EA0077500827000000000000
B0336423207610S11659049EA0078300830000000000000
B0336463207571S11659106EA0079300844000000000000
B0336503207594S11659168EA0080100847000004000000
B0336543207649S11659175EA0079900847000004000000
B0336583207663S11659120EA0080300853000004000000
B0337023207620S11659080EA0080900857000000000000
B0337063207558S11659088EA0081300857000004000000
B0337103207511S11659145EA0081100857000000000000
B0337143207514S11659226EA0081600864000000000000
B0337183207570S11659245EA0082000865000000000000
B0337223207589S11659192EA0082100868000000000000
B0337263207546S11659146EA0082200866000000000000
B0337303207476S11659161EA0082100865000000000000
B0337343207434S11659239EA0081800867000000000000
B0337383207477S11659292EA0083300886000000000000
B0337423207512S11659256EA0084000883000000000000
B0337463207482S11659202EA0083800886000000000000
B0337503207419S11659198EA0084300890000004000000
B0337543207372S11659261EA0084400890000004000000
B0337583207386S11659339EA0084700894000004000000
B0338023207441S11659350EA0085000898000004000000
B0338063207447S11659295EA0085500904000000000000
B0338103207388S11659297EA0086400911000004000000
B0338143207364S11659375EA0086600914000000000000
B0338183207406S11659431EA0087000922000000000000
B0338223207454S11659408EA0088000929000000000000
B0338263207453S11659345EA0088400931000000000000
B0338303207399S11659321EA0089100943000004000000
B0338343207346S11659363EA0090000948000000000000
B0338383207346S11659441EA0090000950000000000000
B0338423207398S11659465EA0090800959000000000000
B0338463207424S11659417EA0091400961000000000000
B0338503207388S11659370EA0091900969000000000000
B0338543207329S11659391EA0092700976000000000000
B0338583207306S11659464EA0092800975000000000000
B0339023207339S11659526EA0093200982000000000000
B0339063207393S11659522EA0093900989000000000000
B0339103207407S11659465EA0094300991000000000000
B0339143207368S11659418EA0094800998000000000000
B0339183207311S11659441EA0095801005000000000000
B0339223207286S11659512EA0095701002000004000000
B0339263207317S11659581EA0095501003000004000000
B0339303207376S11659591EA0095901008000004000000
B0339343207412S11659540EA0096301011000000000000
B0339383207394S11659474EA0096701016000000000000
B0339423207333S11659452EA0097301021000004000000
B0339463207271S11659488EA0097301017000000000000
B0339503207250S11659571EA0097101021000000000000
B0339543207284S11659640EA0097901028000000000000
B0339583207337S11659640EA0098501033000000000000
B0340023207341S11659579EA0098501033000000000000
B0340063207284S11659555EA0098601034000000000000
B0340103207241S11659614EA0099101046000004000000
B0340143207263S11659683EA0099701043000004000000
B0340183207320S11659691EA0099501043000000000000
B0340223207349S11659639EA0099701048000000000000
B0340263207328S11659581EA0100201052000000000000
B0340303207267S11659564EA0100501052000000000000
B0340343207199S11659590EA0099801041000000000000
B0340383207135S11659644EA0098901037000000000000
B0340423207079S11659713EA0099201041000004000000
B0340463207050S11659800EA0099401040000004000000
B0340503207079S11659878EA0099301044000004000000
B0340543207139S11659907EA0099701043000004000000
B0340583207189S11659872EA0099201033000004000000
B0341023207226S11659811EA0097501017000004000000
B0341063207261S11659738EA0096501009000004000000
B0341103207295S11659657EA0096001007000000000000
B0341143207328S11659577EA0096301004000004000000
B0341183207362S11659493EA0095300991000000000000
B0341223207397S11659405EA0093200967000000000000
B0341263207433S11659309EA0091000947000004000000
B0341303207475S11659214EA0089900933000004000000
B0341343207518S11659120EA0089000927000004000000
B0341383207562S11659029EA0088100920000000000000
B0341423207609S11658944EA0087300908000000000000
B0341463207655S11658859EA0086100901000000000000
B0341503207698S11658776EA0085800900000000000000
B0341543207735S11658691EA0085500895000000000000
B0341583207768S11658608EA0084600884000000000000
B0342023207805S11658529EA0084000880000000000000
B0342063207841S11658455EA0083800880000000000000
B0342103207874S11658381EA0083600876000000000000
B0342143207908S11658308EA0083300877000000000000
B0342183207943S11658242EA0083600878000004000000
B0342223207986S11658183EA0083600878000000000000
B0342263208036S11658136EA0083800883000000000000
B0342303208096S11658109EA0084700893000004000000
B0342343208157S11658112EA0085700903000000000000
B0342383208218S11658132EA0086300907000000000000
B0342423208278S11658114EA0086700913000000000000
B0342463208278S11658050EA0087800929000000000000
B0342503208220S11658044EA0089600949000000000000
B0342543208190S11658106EA0091400967000000000000
B0342583208216S11658157EA0092800975000000000000
B0343023208262S11658151EA0092800971000000000000
B0343063208275S11658092EA0093200980000000000000
B0343103208233S11658054EA0094600994000000000000
B0343143208178S11658087EA0095701005000000000000
B0343183208173S11658154EA0097001020000000000000
B0343223208210S11658195EA0098101028000000000000
B0343263208253S11658183EA0098801036000000000000
B0343303208257S11658130EA0099301040000000000000
B0343343208209S11658096EA0100001050000004000000
B0343383208152S11658123EA0100701056000004000000
B0343423208121S11658192EA0101501066000004000000
B0343463208131S11658260EA0102701078000004000000
B0343503208174S11658288EA0103301079000000000000
B0343543208216S11658260EA0103301080000000000000
B0343583208223S11658199EA0103801084000000000000
B0344023208188S11658143EA0104501094000004000000
B0344063208123S11658135EA0105201100000004000000
B0344103208064S11658179EA0105701104000004000000
B0344143208032S11658256EA0106101108000004000000
B0344183208032S11658339EA0106701114000004000000
B0344223208069S11658403EA0107001117000004000000
B0344263208125S11658417EA0107401117000004000000
B0344303208175S11658385EA0106901111000004000000
B0344343208221S11658338EA0106201106000004000000
B0344383208269S11658283EA0106101107000004000000
B0344423208318S11658230EA0106601113000000000000
B0344463208368S11658177EA0107301120000004000000
B0344503208418S11658125EA0107501123000004000000
B0344543208469S11658074EA0107301115000004000000
B0344583208522S11658021EA0106101103000000000000
B0345023208576S11657963EA0104701086000004000000
B0345063208634S11657905EA0103101072000004000000
B0345103208698S11657848EA0102201059000004000000
B0345143208762S11657792EA0101001049000004000000
B0345183208827S11657737EA0100001038000004000000
B0345223208890S11657688EA0099201033000004000000
B0345263208953S11657640EA0098501028000004000000
B0345303209013S11657590EA0097801020000000000000
B0345343209071S11657541EA0097001009000004000000
B0345383209135S11657490EA0095400992000004000000
B0345423209201S11657441EA0094700985000004000000
B0345463209266S11657394EA0094000980000004000000
B0345503209326S11657342EA0093500975000004000000
B0345543209378S11657283EA0092800969000004000000
B0345583209430S11657230EA0092400966000004000000
B0346023209484S11657189EA0092900976000004000000
B0346063209530S11657147EA0094800989000004000000
B0346103209520S11657081EA0095501000000004000000
B0346143209452S11657065EA0096701014000000000000
B0346183209400S11657120EA0097601024000000000000
B0346223209401S11657195EA0097901024000000000000
B0346263209447S11657234EA0098101027000000000000
B0346303209481S11657207EA0098801033000000000000
B0346343209453S11657153EA0099301037000000000000
B0346383209383S11657153EA0099401038000000000000
B0346423209336S11657221EA0099501043000000000000
B0346463209348S11657299EA0100101049000000000000
B0346503209395S11657330EA0100701054000000000000
B0346543209430S11657296EA0101201057000000000000
B0346583209403S11657242EA0101401060000004000000
B0347023209334S11657246EA0102001065000000000000
B0347063209296S11657319EA0102101064000004000000
B0347103209325S11657380EA0102401068000004000000
B0347143209371S11657385EA0102201064000000000000
B0347183209416S11657358EA0101401053000000000000
B0347223209460S11657312EA0100401046000004000000
B0347263209505S11657260EA0100201044000000000000
B0347303209552S11657203EA0100701053000000000000
B0347343209566S11657133EA0102101067000000000000
B0347383209505S11657096EA0103601083000000000000
B0347423209449S11657144EA0105001098000000000000
B0347463209449S11657220EA0106201109000000000000
B0347503209486S11657263EA0107101120000000000000
B0347543209521S11657241EA0107901123000000000000
B0347583209497S11657189EA0108201128000000000000
B0348023209434S11657191EA0108601131000004000000
B0348063209395S11657255EA0109001139000000000000
B0348103209414S11657317EA0110101150000000000000
B0348143209455S11657315EA0111301162000000000000
B0348183209468S11657268EA0111801163000000000000
B0348223209431S11657224EA0112001167000000000000
B0348263209366S11657234EA0112101167000004000000
B0348303209330S11657303EA0112401174000000000000
B0348343209348S11657368EA0113801189000000000000
B0348383209387S11657361EA0114801195000000000000
B0348423209382S11657303EA0115101198000004000000
B0348463209326S11657277EA0115501200000000000000
B0348503209266S11657320EA0115601208000000000000
B0348543209254S11657394EA0116701218000004000000
B0348583209286S11657439EA0117901231000004000000
B0349023209326S11657425EA0118701231000004000000
B0349063209358S11657377EA0118601233000004000000
B0349103209392S11657329EA0118701232000004000000
B0349143209431S11657283EA0118701235000000000000
B0349183209473S11657235EA0118501226000000000000
B0349223209523S11657185EA0116701206000004000000
B0349263209586S11657139EA0114601184000004000000
B0349303209655S11657100EA0113501174000004000000
B0349343209725S11657066EA0112801167000000000000
B0349383209798S11657038EA0111801156000000000000
B0349423209872S11657008EA0110601144000000000000
B0349463209947S11656978EA0109501134000000000000
B0349503210021S11656948EA0108701129000000000000
B0349543210093S11656918EA0108401126000000000000
B0349583210163S11656891EA0108101125000000000000
B0350023210229S11656864EA0108001123000004000000
B0350063210293S11656827EA0107601119000004000000
B0350103210354S11656791EA0107401116000000000000
B0350143210407S11656747EA0107301117000000000000
B0350183210463S11656706EA0106901110000004000000
B0350223210527S11656687EA0106901113000000000000
B0350263210595S11656685EA0107301118000004000000
B0350303210658S11656676EA0108201124000004000000
B0350343210714S11656644EA0108401132000000000000
B0350383210765S11656605EA0109901150000000000000
B0350423210762S11656541EA0111901167000004000000
B0350463210700S11656516EA0112301160000004000000
B0350503210634S11656571EA0111401151000004000000
B0350543210615S11656667EA0110901149000000000000
B0350583210634S11656760EA0111001153000000000000
B0351023210682S11656821EA0112101173000004000000
B0351063210731S11656812EA0113901190000004000000
B0351103210722S11656757EA0114801194000000000000
B0351143210660S11656739EA0114901193000004000000
B0351183210604S11656801EA0115601203000000000000
B0351223210615S11656883EA0116601214000000000000
B0351263210669S11656904EA0117801227000000000000
B0351303210696S11656861EA0118501233000000000000
B0351343210665S11656812EA0119301241000000000000
B0351383210600S11656812EA0119801247000000000000
B0351423210545S11656869EA0120201252000000000000
B0351463210548S11656948EA0121201262000000000000
B0351503210597S11656969EA0122001268000000000000
B0351543210626S11656925EA0122501275000004000000
B0351583210600S11656871EA0123801291000004000000
B0352023210536S11656861EA0124801296000004000000
B0352063210482S11656916EA0125501301000004000000
B0352103210484S11656992EA0126001307000004000000
B0352143210531S11657018EA0126301310000004000000
B0352183210556S11656974EA0127301322000004000000
B0352223210518S11656927EA0128401330000000000000
B0352263210448S11656953EA0128901334000000000000
B0352303210419S11657033EA0129601342000000000000
B0352343210450S11657096EA0129901344000000000000
B0352383210501S11657091EA0130401352000004000000
B0352423210506S11657039EA0131301361000000000000
B0352463210450S11657010EA0131901365000000000000
B0352503210392S11657062EA0132601373000000000000
B0352543210387S11657143EA0133501384000000000000
B0352583210427S11657192EA0134201390000000000000
B0353023210474S11657181EA0134601390000000000000
B0353063210480S11657125EA0134601391000000000000
B0353103210437S11657074EA0134801397000000000000
B0353143210372S11657099EA0136201407000000000000
B0353183210372S11657179EA0136401409000000000000
B0353223210426S11657218EA0136501405000004000000
B0353263210475S11657187EA0136201405000000000000
B0353303210480S11657122EA0136201408000000000000
B0353343210436S11657072EA0136201404000000000000
B0353383210359S11657075EA0135601397000000000000
B0353423210300S11657142EA0135701404000000000000
B0353463210274S11657231EA0136101406000000000000
B0353503210277S11657326EA0136301410000000000000
B0353543210307S11657408EA0136701410000000000000
B0353583210358S11657472EA0136101404000000000000
B0354023210415S11657528EA0135401398000000000000
B0354063210472S11657582EA0134401386000004000000
B0354103210536S11657637EA0133401374000004000000
B0354143210599S11657698EA0132601367000004000000
B0354183210662S11657764EA0131601356000004000000
B0354223210723S11657836EA0130601346000000000000
B0354263210786S11657909EA0129801338000000000000
B0354303210844S11657982EA0129101332000004000000
B0354343210901S11658057EA0128601328000004000000
B0354383210957S11658130EA0128301324000004000000
B0354423211015S11658203EA0127501312000004000000
B0354463211076S11658277EA0126201302000004000000
B0354503211142S11658342EA0125601300000004000000
B0354543211210S11658400EA0125801303000004000000
B0354583211276S11658456EA0125801300000000000000
B0355023211341S11658516EA0125401296000004000000
B0355063211408S11658565EA0125901303000004000000
B0355103211480S11658586EA0127201317000000000000
B0355143211549S11658583EA0127501312000000000000
B0355183211614S11658559EA0126801314000000000000
B0355223211671S11658521EA0127601321000000000000
B0355263211678S11658451EA0128201329000000000000
B0355303211657S11658378EA0128201321000000000000
B0355343211628S11658300EA0127101309000000000000
B0355383211597S11658217EA0126101303000000000000
B0355423211563S11658134EA0127201318000000000000
B0355463211494S11658102EA0130201350000000000000
B0355503211438S11658151EA0132001366000000000000
B0355543211444S11658219EA0132701370000004000000
B0355583211492S11658242EA0132901378000004000000
B0356023211523S11658201EA0134001390000000000000
B0356063211501S11658145EA0135401403000000000000
B0356103211438S11658149EA0136001401000000000000
B0356143211408S11658221EA0135701404000000000000
B0356183211442S11658279EA0136301407000000000000
B0356223211489S11658257EA0136601410000000000000
B0356263211471S11658195EA0137701427000000000000
B0356303211411S11658201EA0139101440000000000000
B0356343211380S11658266EA0139501440000000000000
B0356383211405S11658331EA0139401437000000000000
B0356423211459S11658336EA0139801445000000000000
B0356463211485S11658283EA0141001458000000000000
B0356503211449S11658232EA0142101474000000000000
B0356543211388S11658253EA0143201482000004000000
B0356583211364S11658325EA0143901487000004000000
B0357023211392S11658385EA0144601495000000000000
B0357063211441S11658388EA0145401505000004000000
B0357103211462S11658343EA0146601513000004000000
B0357143211431S11658292EA0147101519000004000000
B0357183211366S11658296EA0147801525000004000000
B0357223211328S11658362EA0148301530000004000000
B0357263211346S11658437EA0148701538000004000000
B0357303211395S11658466EA0149801550000000000000
B0357343211437S11658438EA0150801554000000000000
B0357383211437S11658379EA0150801554000000000000
B0357423211393S11658333EA0151001559000000000000
B0357463211330S11658308EA0151101558000004000000
B0357503211258S11658303EA0150801554000004000000
B0357543211181S11658300EA0150201548000004000000
B0357583211100S11658295EA0150201548000004000000
B0358023211018S11658288EA0150501553000004000000
B0358063210935S11658279EA0150801553000000000000
B0358103210852S11658262EA0150101542000000000000
B0358143210768S11658244EA0149501539000004000000
B0358183210682S11658225EA0148801532000004000000
B0358223210597S11658203EA0148001524000004000000
B0358263210511S11658178EA0147401515000004000000
B0358303210426S11658152EA0146501506000004000000
B0358343210341S11658125EA0145601499000004000000
B0358383210261S11658092EA0145301496000004000000
B0358423210183S11658053EA0144901493000004000000
B0358463210108S11658009EA0144801493000000000000
B0358503210042S11657958EA0144801493000000000000
B0358543209978S11657904EA0144801492000000000000
B0358583209917S11657850EA0144601492000000000000
B0359023209856S11657797EA0144401488000000000000
B0359063209794S11657748EA0144501490000000000000
B0359103209729S11657702EA0144601492000000000000
B0359143209661S11657662EA0144401489000000000000
B0359183209590S11657628EA0143901481000000000000
B0359223209513S11657605EA0143001469000000000000
B0359263209431S11657603EA0141801460000000000000
B0359303209352S11657633EA0141401456000000000000
B0359343209293S11657698EA0140901449000000000000
B0359383209267S11657784EA0139801437000000000000
B0359423209276S11657871EA0138801424000000000000
B0359463209309S11657944EA0137601413000000000000
B0359503209357S11657993EA0136701405000000000000
B0359543209418S11658015EA0135701397000000000000
B0359583209483S11658021EA0135201393000000000000
B0400023209547S11658013EA0135101394000000000000
B0400063209608S11657996EA0135401398000000000000
B0400103209660S11657963EA0135701401000004000000
B0400143209709S11657923EA0135001392000000000000
B0400183209763S11657881EA0134401388000000000000
B0400223209815S11657839EA0134501392000000000000
B0400263209867S11657797EA0134401387000000000000
B0400303209923S11657758EA0134101386000000000000
B0400343209978S11657720EA0134001384000004000000
B0400383210036S11657680EA0133401377000004000000
B0400423210094S11657640EA0132501368000000000000
B0400463210154S11657601EA0131901361000000000000
B0400503210216S11657568EA0131301354000000000000
B0400543210279S11657536EA0130601346000000000000
B0400583210344S11657501EA0130101345000000000000
B0401023210406S11657464EA0130001343000000000000
B0401063210466S11657423EA0129801341000004000000
B0401103210517S11657365EA0129301333000000000000
B0401143210543S11657285EA0128701328000000000000
B0401183210536S11657203EA0129601341000004000000
B0401223210483S11657147EA0130101340000004000000
B0401263210428S11657085EA0128701318000000000000
B0401303210381S11657008EA0127001305000000000000
B0401343210349S11656925EA0126001299000004000000
B0401383210336S11656840EA0125901299000000000000
B0401423210336S11656761EA0126001298000004000000
B0401463210335S11656680EA0125501295000004000000
B0401503210331S11656600EA0124901289000004000000
B0401543210322S11656520EA0125201295000004000000
B0401583210309S11656449EA0126101306000004000000
B0402023210289S11656385EA0126501308000000000000
B0402063210277S11656319EA0126001299000000000000
B0402103210292S11656251EA0125101294000000000000
B0402143210328S11656194EA0125801306000000000000
B0402183210349S11656137EA0127201323000000000000
B0402223210318S11656091EA0128701336000004000000
B0402263210258S11656113EA0129601344000004000000
B0402303210244S11656184EA0130301352000004000000
B0402343210281S11656229EA0130901355000000000000
B0402383210323S11656210EA0131201359000004000000
B0402423210314S11656156EA0131901367000004000000
B0402463210258S11656141EA0132501372000004000000
B0402503210209S11656194EA0133201382000004000000
B0402543210219S11656264EA0134101393000004000000
B0402583210264S11656289EA0135001398000004000000
B0403023210300S11656260EA0135501401000000000000
B0403063210293S11656207EA0135601400000000000000
B0403103210240S11656184EA0135901407000000000000
B0403143210181S11656227EA0136401411000000000000
B0403183210175S11656299EA0137501423000004000000
B0403223210219S11656321EA0137901424000004000000
B0403263210237S11656272EA0138301430000004000000
B0403303210193S11656232EA0139101440000004000000
B0403343210129S11656268EA0139501439000000000000
B0403383210116S11656349EA0140001450000000000000
B0403423210157S11656394EA0141001462000000000000
B0403463210198S11656380EA0141901467000000000000
B0403503210202S11656329EA0142301472000000000000
B0403543210159S11656293EA0142701474000004000000
B0403583210093S11656307EA0142901479000004000000
B0404023210056S11656376EA0143501482000004000000
B0404063210079S11656440EA0144201488000004000000
B0404103210125S11656437EA0144401490000004000000
B0404143210129S11656379EA0144601494000004000000
B0404183210079S11656344EA0145901511000004000000
B0404223210017S11656363EA0147001521000004000000
B0404263209981S11656425EA0147301519000000000000
B0404303209994S11656493EA0147401523000004000000
B0404343210037S11656516EA0148001530000004000000
B0404383210071S11656489EA0148401533000004000000
B0404423210071S11656436EA0149001540000000000000
B0404463210024S11656397EA0149301539000000000000
B0404503209954S11656388EA0149201539000004000000
B0404543209877S11656401EA0148601530000004000000
B0404583209795S11656427EA0147301515000004000000
B0405023209711S11656462EA0146201502000000000000
B0405063209625S11656503EA0145401495000004000000
B0405103209539S11656549EA0144801491000000000000
B0405143209456S11656598EA0144101484000000000000
B0405183209373S11656652EA0143101473000000000000
B0405223209292S11656710EA0142501469000004000000
B0405263209215S11656770EA0142301466000000000000
B0405303209140S11656834EA0140901450000000000000
B0405343209055S11656888EA0139501428000000000000
B0405383208959S11656930EA0137701415000000000000
B0405423208863S11656965EA0137101414000004000000
B0405463208769S11656999EA0137301419000000000000
B0405503208676S11657030EA0137701420000000000000
B0405543208584S11657061EA0137301417000000000000
B0405583208494S11657094EA0137601423000004000000
B0406023208404S11657130EA0138001422000004000000
B0406063208324S11657189EA0137901422000004000000
B0406103208265S11657272EA0137901423000000000000
B0406143208231S11657367EA0138201427000000000000
B0406183208229S11657459EA0138201423000000000000
B0406223208262S11657537EA0137901423000000000000
B0406263208316S11657588EA0138101430000000000000
B0406303208376S11657618EA0138401426000000000000
B0406343208443S11657608EA0137301408000000000000
B0406383208504S11657553EA0135301381000000000000
B0406423208525S11657463EA0134701390000000000000
B0406463208495S11657382EA0135801405000004000000
B0406503208434S11657329EA0136701414000004000000
B0406543208361S11657300EA0136901412000004000000
B0406583208282S11657277EA0136401404000004000000
B0407023208204S11657248EA0135701398000000000000
B0407063208132S11657207EA0135401397000004000000
B0407103208069S11657160EA0135201395000004000000
B0407143207995S11657122EA0134501385000004000000
B0407183207917S11657087EA0134001385000004000000
B0407223207841S11657055EA0134101385000004000000
B0407263207765S11657023EA0133801381000000000000
B0407303207685S11656991EA0133001371000004000000
B0407343207603S11656956EA0131701358000000000000
B0407383207516S11656919EA0130901346000000000000
B0407423207428S11656883EA0129801337000000000000
B0407463207339S11656844EA0129001329000004000000
B0407503207255S11656800EA0128301323000000000000
B0407543207172S11656756EA0127601314000000000000
B0407583207086S11656714EA0127101315000004000000
B0408023207001S11656674EA0127501318000004000000
B0408063206921S11656628EA0127401314000004000000
B0408103206840S11656580EA0126601304000004000000
B0408143206761S11656527EA0125701298000004000000
B0408183206686S11656477EA0125701301000004000000
B0408223206614S11656429EA0125101290000004000000
B0408263206544S11656375EA0123801280000000000000
B0408303206480S11656311EA0123501280000004000000
B0408343206424S11656243EA0124601291000004000000
B0408383206374S11656184EA0125601301000004000000
B0408423206319S11656129EA0125801301000004000000
B0408463206264S11656077EA0125801303000004000000
B0408503206216S11656021EA0125801300000004000000
B0408543206172S11655961EA0125301295000004000000
B0408583206125S11655902EA0124801290000004000000
B0409023206076S11655843EA0124501289000004000000
B0409063206026S11655786EA0124101284000004000000
B0409103205981S11655726EA0123601278000004000000
B0409143205947S11655660EA0122701267000004000000
B0409183205938S11655586EA0121901258000004000000
B0409223205959S11655521EA0121201254000000000000
B0409263206010S11655489EA0120501246000000000000
B0409303206073S11655506EA0119401229000000000000
B0409343206136S11655553EA0118001219000000000000
B0409383206193S11655610EA0117401213000004000000
B0409423206251S11655665EA0116401204000004000000
B0409463206312S11655718EA0115301194000000000000
B0409503206372S11655774EA0115101193000004000000
B0409543206429S11655829EA0115301198000004000000
B0409583206484S11655883EA0115801205000000000000
B0410023206536S11655937EA0116701213000004000000
B0410063206591S11655990EA0116301202000004000000
B0410103206650S11656041EA0114801188000004000000
B0410143206714S11656089EA0114101184000000000000
B0410183206777S11656138EA0113901181000000000000
B0410223206842S11656185EA0113701181000000000000
B0410263206909S11656220EA0113901180000000000000
B0410303206978S11656228EA0113901181000000000000
B0410343207044S11656219EA0114001185000000000000
B0410383207107S11656202EA0114801191000000000000
B0410423207169S11656178EA0113901176000000000000
B0410463207234S11656154EA0112701165000000000000
B0410503207303S11656130EA0111801159000000000000
B0410543207372S11656106EA0111101152000000000000
B0410583207441S11656085EA0110601146000004000000
B0411023207508S11656063EA0110301144000004000000
B0411063207575S11656043EA0109901140000000000000
B0411103207644S11656022EA0109201128000000000000
B0411143207714S11655998EA0108401126000000000000
B0411183207788S11656000EA0108701134000000000000
B0411223207848S11656039EA0110001148000000000000
B0411263207887S11656102EA0110501150000000000000
B0411303207908S11656180EA0110401143000000000000
B0411343207918S11656264EA0109701135000000000000
B0411383207932S11656354EA0108601124000000000000
B0411423207950S11656445EA0107701113000000000000
B0411463207973S11656540EA0106101099000000000000
B0411503207999S11656636EA0105101090000000000000
B0411543208028S11656731EA0104301081000000000000
B0411583208060S11656826EA0103501073000000000000
B0412023208092S11656919EA0102901066000000000000
B0412063208129S11657010EA0102001055000000000000
B0412103208166S11657101EA0101001047000000000000
B0412143208208S11657189EA0100201041000004000000
B0412183208251S11657272EA0099701036000004000000
B0412223208298S11657350EA0099401032000000000000
B0412263208352S11657417EA0098901026000004000000
B0412303208415S11657475EA0097801015000000000000
B0412343208480S11657529EA0097401013000000000000
B0412383208548S11657569EA0097301010000000000000
B0412423208621S11657586EA0096701006000000000000
B0412463208695S11657597EA0095900998000000000000
B0412503208771S11657605EA0095400993000000000000
B0412543208847S11657615EA0094700985000000000000
B0412583208923S11657629EA0094000980000000000000
B0413023208998S11657644EA0093500973000000000000
B0413063209071S11657659EA0092800964000000000000
B0413103209145S11657668EA0091800955000000000000
B0413143209221S11657673EA0091500953000000000000
B0413183209293S11657664EA0092100961000004000000
B0413223209326S11657607EA0094100991000000000000
B0413263209292S11657560EA0096101006000000000000
B0413303209230S11657572EA0096401006000000000000
B0413343209200S11657641EA0096601009000004000000
B0413383209218S11657709EA0097301017000004000000
B0413423209263S11657711EA0098201025000004000000
B0413463209261S11657660EA0098401024000000000000
B0413503209205S11657644EA0098301022000000000000
B0413543209157S11657697EA0098001020000000000000
B0413583209149S11657776EA0097701018000000000000
B0414023209192S11657827EA0097901021000000000000
B0414063209241S11657814EA0097901021000000000000
B0414103209271S11657757EA0097701016000000000000
B0414143209279S11657690EA0098501030000000000000
B0414183209226S11657660EA0099501038000004000000
B0414223209172S11657709EA0099401034000000000000
B0414263209161S11657787EA0099301034000000000000
B0414303209198S11657850EA0098901027000000000000
B0414343209260S11657880EA0098401025000000000000
B0414383209327S11657888EA0098701031000004000000
B0414423209373S11657848EA0099701043000004000000
B0414463209364S11657787EA0100301044000004000000
B0414503209304S11657764EA0099601036000004000000
B0414543209235S11657794EA0099001031000004000000
B0414583209170S11657844EA0099201036000004000000
B0415023209113S11657904EA0099701042000000000000
B0415063209081S11657982EA0100301046000004000000
B0415103209107S11658049EA0100101044000000000000
B0415143209162S11658047EA0099801038000000000000
B0415183209219S11658030EA0099301033000000000000
B0415223209284S11658023EA0098701027000004000000
B0415263209354S11658022EA0097901016000004000000
B0415303209429S11658021EA0096701004000004000000
B0415343209505S11658019EA0096401007000004000000
B0415383209578S11658010EA0098201030000004000000
B0415423209630S11657975EA0100301048000004000000
B0415463209638S11657919EA0101801060000000000000
B0415503209588S11657887EA0101401051000000000000
B0415543209523S11657919EA0100301041000004000000
B0415583209490S11658000EA0099601038000004000000
B0416023209488S11658089EA0099801046000004000000
B0416063209520S11658156EA0101201061000000000000
B0416103209570S11658145EA0101801059000004000000
B0416143209579S11658083EA0101401055000000000000
B0416183209529S11658044EA0102201072000000000000
B0416223209469S11658074EA0103501083000000000000
B0416263209455S11658147EA0104301088000000000000
B0416303209497S11658190EA0104501087000000000000
B0416343209542S11658157EA0104201086000000000000
B0416383209542S11658096EA0104901102000000000000
B0416423209505S11658053EA0106101108000000000000
B0416463209448S11658043EA0106401109000000000000
B0416503209390S11658079EA0106601110000000000000
B0416543209364S11658153EA0106401110000000000000
B0416583209374S11658231EA0107001119000004000000
B0417023209419S11658269EA0107801125000004000000
B0417063209464S11658243EA0108001125000004000000
B0417103209465S11658184EA0108401128000000000000
B0417143209414S11658149EA0108701132000000000000
B0417183209351S11658171EA0109201138000000000000
B0417223209315S11658243EA0109301140000000000000
B0417263209330S11658322EA0109701146000004000000
B0417303209380S11658364EA0110501152000004000000
B0417343209427S11658338EA0111101155000000000000
B0417383209430S11658277EA0111001152000004000000
B0417423209379S11658235EA0110301146000000000000
B0417463209308S11658244EA0110601153000000000000
B0417503209245S11658294EA0111401158000000000000
B0417543209222S11658375EA0111701162000000000000
B0417583209257S11658444EA0111801162000000000000
B0418023209321S11658460EA0111701161000000000000
B0418063209390S11658453EA0111001146000000000000
B0418103209466S11658439EA0109601134000000000000
B0418143209546S11658424EA0108901128000000000000
B0418183209626S11658405EA0108301124000000000000
B0418223209703S11658388EA0108201123000000000000
B0418263209777S11658378EA0107601116000000000000
B0418303209854S11658375EA0106701106000000000000
B0418343209932S11658375EA0105701091000000000000
B0418383210012S11658374EA0104201074000004000000
B0418423210094S11658374EA0103001069000000000000
B0418463210172S11658374EA0102801071000004000000
B0418503210245S11658370EA0103301077000000000000
B0418543210315S11658361EA0103601077000000000000
B0418583210384S11658351EA0103701079000004000000
B0419023210452S11658343EA0104001081000000000000
B0419063210515S11658330EA0105001096000004000000
B0419103210567S11658307EA0106401112000004000000
B0419143210587S11658257EA0107501117000000000000
B0419183210557S11658210EA0107501115000004000000
B0419223210498S11658210EA0107601118000004000000
B0419263210454S11658268EA0107501114000000000000
B0419303210461S11658343EA0107101114000000000000
B0419343210508S11658373EA0107501119000000000000
B0419383210553S11658353EA0107901125000000000000
B0419423210593S11658318EA0107901121000000000000
B0419463210634S11658277EA0107701121000000000000
B0419503210671S11658229EA0107301112000000000000
B0419543210712S11658175EA0106101103000000000000
B0419583210749S11658123EA0105101090000000000000
B0420023210771S11658057EA0104101079000004000000
B0420063210771S11657979EA0102501065000000000000
B0420103210758S11657897EA0101601055000004000000
B0420143210738S11657813EA0100601044000000000000
B0420183210716S11657724EA0099401032000000000000
B0420223210692S11657634EA0098401020000000000000
B0420263210666S11657543EA0097201009000000000000
B0420303210643S11657454EA0096000996000000000000
B0420343210619S11657364EA0094500982000000000000
B0420383210596S11657276EA0093700976000000000000
B0420423210571S11657190EA0093000969000000000000
B0420463210549S11657107EA0093700982000000000000
B0420503210536S11657031EA0096301012000004000000
B0420543210493S11656988EA0099001036000004000000
B0420583210445S11657030EA0099901040000004000000
B0421023210457S11657100EA0100101047000000000000
B0421063210502S11657124EA0101001059000000000000
B0421103210527S11657079EA0102001070000000000000
B0421143210491S11657034EA0103201081000004000000
B0421183210430S11657057EA0104301090000000000000
B0421223210413S11657130EA0104901096000000000000
B0421263210454S11657177EA0105601101000000000000
B0421303210500S11657152EA0106401114000004000000
B0421343210482S11657095EA0108101130000004000000
B0421383210419S11657100EA0109301139000004000000
B0421423210387S11657169EA0110201150000004000000
B0421463210418S11657229EA0111601161000004000000
B0421503210466S11657216EA0112501171000000000000
B0421543210458S11657160EA0113801186000000000000
B0421583210400S11657147EA0115101197000000000000
B0422023210355S11657203EA0115701205000000000000
B0422063210367S11657274EA0116801214000000000000
B0422103210422S11657290EA0117301217000000000000
B0422143210441S11657237EA0118201232000000000000
B0422183210396S11657200EA0119801248000000000000
B0422223210340S11657237EA0120801252000000000000
B0422263210335S11657315EA0121401260000000000000
B0422303210383S11657359EA0122301269000004000000
B0422343210432S11657341EA0123501282000004000000
B0422383210432S11657285EA0124301288000004000000
B0422423210381S11657260EA0124901301000000000000
B0422463210333S11657304EA0126201311000000000000
B0422503210335S11657380EA0126901311000000000000
B0422543210387S11657413EA0127101318000000000000
B0422583210424S11657377EA0127701322000000000000
B0423023210401S11657326EA0128101326000004000000
B0423063210342S11657337EA0129001340000000000000
B0423103210311S11657406EA0129601339000000000000
B0423143210339S11657476EA0129701343000000000000
B0423183210394S11657481EA0129901343000000000000
B0423223210435S11657437EA0129201332000000000000
B0423263210446S11657372EA0128601328000000000000
B0423303210414S11657317EA0128801333000004000000
B0423343210353S11657304EA0128601325000004000000
B0423383210283S11657329EA0127401313000004000000
B0423423210207S11657360EA0127101317000004000000
B0423463210137S11657402EA0127701321000004000000
B0423503210069S11657451EA0127801324000004000000
B0423543210003S11657499EA0127701320000004000000
B0423583209932S11657545EA0127901323000000000000
B0424023209877S11657606EA0129401341000000000000
B0424063209886S11657679EA0130701352000000000000
B0424103209930S11657702EA0130901350000000000000
B0424143209964S11657668EA0130501344000000000000
B0424183209954S11657610EA0130001342000000000000
B0424223209899S11657572EA0130001345000004000000
B0424263209830S11657567EA0130301348000004000000
B0424303209760S11657584EA0130401348000004000000
B0424343209691S11657615EA0130401347000004000000
B0424383209625S11657651EA0130301346000000000000
B0424423209559S11657693EA0130001343000004000000
B0424463209491S11657737EA0129601339000004000000
B0424503209422S11657785EA0129601342000004000000
B0424543209353S11657829EA0129601341000004000000
B0424583209284S11657872EA0129501341000004000000
B0425023209214S11657919EA0130101346000000000000
B0425063209143S11657969EA0130201352000004000000
B0425103209078S11658019EA0130901357000004000000
B0425143209015S11658067EA0131501365000000000000
B0425183208954S11658121EA0131801364000000000000
B0425223208892S11658178EA0130801353000000000000
B0425263208821S11658234EA0130401349000000000000
B0425303208750S11658296EA0130101346000000000000
B0425343208685S11658368EA0130901359000004000000
B0425383208678S11658450EA0133001382000000000000
B0425423208728S11658470EA0134001384000004000000
B0425463208760S11658425EA0134001388000004000000
B0425503208741S11658365EA0134801395000004000000
B0425543208680S11658338EA0135001394000004000000
B0425583208608S11658362EA0134501388000004000000
B0426023208563S11658440EA0134401392000004000000
B0426063208569S11658526EA0135401406000000000000
B0426103208617S11658568EA0136101405000004000000
B0426143208673S11658547EA0135401394000004000000
B0426183208702S11658482EA0135201399000004000000
B0426223208690S11658408EA0135801403000000000000
B0426263208637S11658356EA0136401413000000000000
B0426303208565S11658349EA0137301421000000000000
B0426343208498S11658383EA0137601421000000000000
B0426383208439S11658440EA0137301417000000000000
B0426423208373S11658496EA0136201404000000000000
B0426463208290S11658528EA0135701401000000000000
B0426503208208S11658537EA0135601400000000000000
B0426543208129S11658528EA0135201393000000000000
B0426583208053S11658502EA0134201383000000000000
B0427023207983S11658464EA0133201374000000000000
B0427063207917S11658420EA0132001361000000000000
B0427103207853S11658364EA0130901349000000000000
B0427143207801S11658296EA0130101342000000000000
B0427183207755S11658222EA0129501333000000000000
B0427223207715S11658143EA0128601326000000000000
B0427263207676S11658063EA0127901319000004000000
B0427303207636S11657984EA0127001312000000000000
B0427343207598S11657904EA0126601307000004000000
B0427383207570S11657819EA0126101303000004000000
B0427423207542S11657736EA0126201307000004000000
B0427463207518S11657654EA0126901314000004000000
B0427503207494S11657575EA0128001335000004000000
B0427543207471S11657502EA0129901348000004000000
B0427583207425S11657451EA0131301364000004000000
B0428023207362S11657459EA0132401372000004000000
B0428063207328S11657523EA0133201378000004000000
B0428103207349S11657589EA0132901371000004000000
B0428143207404S11657623EA0132601373000004000000
B0428183207464S11657620EA0133701388000000000000
B0428223207493S11657571EA0134901393000000000000
B0428263207464S11657510EA0134201383000000000000
B0428303207394S11657493EA0134501395000000000000
B0428343207336S11657537EA0135801407000000000000
B0428383207320S11657618EA0136201409000004000000
B0428423207359S11657679EA0136701417000000000000
B0428463207415S11657666EA0137601426000000000000
B0428503207421S11657605EA0138001425000000000000
B0428543207369S11657560EA0137701421000000000000
B0428583207294S11657564EA0138001431000004000000
B0429023207232S11657614EA0138901438000000000000
B0429063207211S11657694EA0139101436000004000000
B0429103207242S11657767EA0138801433000004000000
B0429143207306S11657789EA0138801434000004000000
B0429183207360S11657750EA0139501446000004000000
B0429223207369S11657683EA0140401452000000000000
B0429263207321S11657629EA0140401448000000000000
B0429303207250S11657605EA0140501452000000000000
B0429343207183S11657642EA0141701465000004000000
B0429383207174S11657719EA0142301466000000000000
B0429423207221S11657770EA0141901462000000000000
B0429463207285S11657779EA0142001469000004000000
B0429503207345S11657771EA0143201479000004000000
B0429543207384S11657728EA0143401475000004000000
B0429583207394S11657659EA0142401463000004000000
B0430023207389S11657581EA0141401457000000000000
B0430063207378S11657501EA0141301456000004000000
B0430103207360S11657423EA0141301458000004000000
B0430143207329S11657348EA0141401458000004000000
B0430183207280S11657286EA0141301455000004000000
B0430223207207S11657250EA0140701450000004000000
B0430263207124S11657257EA0140201449000000000000
B0430303207042S11657282EA0140101448000004000000
B0430343206961S11657308EA0140101449000004000000
B0430383206881S11657334EA0140201451000004000000
B0430423206803S11657356EA0140601452000004000000
B0430463206726S11657387EA0140101445000004000000
B0430503206652S11657433EA0139801440000004000000
B0430543206593S11657507EA0139301436000000000000
B0430583206558S11657598EA0139201438000000000000
B0431023206546S11657692EA0139501443000000000000
B0431063206561S11657777EA0139401437000000000000
B0431103206595S11657857EA0138701430000000000000
B0431143206639S11657931EA0138101425000000000000
B0431183206691S11658000EA0137901426000004000000
B0431223206747S11658065EA0138301431000000000000
B0431263206797S11658134EA0138501432000000000000
B0431303206843S11658209EA0138201429000000000000
B0431343206884S11658292EA0138101427000000000000
B0431383206925S11658379EA0137801421000000000000
B0431423206970S11658463EA0137501423000004000000
B0431463207024S11658534EA0137601422000004000000
B0431503207089S11658585EA0137401418000004000000
B0431543207160S11658609EA0136801412000004000000
B0431583207234S11658619EA0136601412000004000000
B0432023207306S11658620EA0136501411000004000000
B0432063207377S11658622EA0135901404000004000000
B0432103207450S11658626EA0135001391000000000000
B0432143207527S11658630EA0133601376000000000000
B0432183207602S11658630EA0133001378000000000000
B0432223207672S11658632EA0133101376000000000000
B0432263207740S11658641EA0132801371000000000000
B0432303207807S11658651EA0131701357000000000000
B0432343207878S11658664EA0130201345000000000000
B0432383207947S11658677EA0129201336000004000000
B0432423208014S11658686EA0128501325000004000000
B0432463208083S11658691EA0127501314000000000000
B0432503208153S11658698EA0126001298000000000000
B0432543208225S11658706EA0125101296000000000000
B0432583208296S11658706EA0125401297000000000000
B0433023208355S11658671EA0125601301000000000000
B0433063208405S11658621EA0125701302000000000000
B0433103208451S11658563EA0125101292000000000000
B0433143208498S11658499EA0124101283000000000000
B0433183208538S11658429EA0123501276000000000000
B0433223208573S11658352EA0122801269000000000000
B0433263208598S11658271EA0122301268000004000000
B0433303208620S11658190EA0122801276000004000000
B0433343208647S11658113EA0123101274000004000000
B0433383208675S11658035EA0122401264000004000000
B0433423208698S11657952EA0121101253000000000000
B0433463208723S11657870EA0120101240000000000000
B0433503208751S11657790EA0119301234000004000000
B0433543208775S11657710EA0118801229000000000000
B0433583208801S11657636EA0118501229000004000000
B0434023208824S11657563EA0118401226000004000000
B0434063208840S11657486EA0117401214000004000000
B0434103208845S11657403EA0116801210000004000000
B0434143208841S11657319EA0116501209000004000000
B0434183208837S11657238EA0116501209000004000000
B0434223208834S11657160EA0116601207000004000000
B0434263208820S11657081EA0116001200000004000000
B0434303208782S11657005EA0114901188000000000000
B0434343208724S11656942EA0113901179000000000000
B0434383208656S11656891EA0113301175000000000000
B0434423208584S11656854EA0112501166000000000000
B0434463208507S11656823EA0111601157000000000000
B0434503208430S11656795EA0110701150000000000000
B0434543208356S11656766EA0110401146000004000000
B0434583208286S11656740EA0110101141000000000000
B0435023208216S11656717EA0109301135000004000000
B0435063208147S11656691EA0108901133000000000000
B0435103208079S11656662EA0109001136000004000000
B0435143208019S11656626EA0109501142000004000000
B0435183207975S11656575EA0109801144000004000000
B0435223207956S11656509EA0109701140000000000000
B0435263207961S11656438EA0109201135000000000000
B0435303207989S11656379EA0108701130000000000000
B0435343208030S11656329EA0108301129000000000000
B0435383208071S11656279EA0108101124000004000000
B0435423208118S11656227EA0107401117000000000000
B0435463208166S11656173EA0106601110000000000000
B0435503208216S11656121EA0106301106000000000000
B0435543208262S11656067EA0105501096000000000000
B0435583208312S11656013EA0104301083000004000000
B0436023208363S11655960EA0103601073000004000000
B0436063208409S11655902EA0102601067000004000000
B0436103208455S11655843EA0102001060000004000000
B0436143208506S11655787EA0100901049000004000000
B0436183208563S11655740EA0100701047000000000000
B0436223208594S11655673EA0100301043000000000000
B0436263208590S11655595EA0099401033000000000000
B0436303208561S11655517EA0098001021000000000000
B0436343208519S11655444EA0097201010000004000000
B0436383208472S11655371EA0096201000000004000000
B0436423208422S11655298EA0094900987000004000000
B0436463208369S11655224EA0093700972000004000000
B0436503208314S11655149EA0092500965000004000000
B0436543208260S11655075EA0091800957000004000000
B0436583208207S11655001EA0091100953000000000000
B0437023208158S11654929EA0091300954000004000000
B0437063208108S11654863EA0090600942000004000000
B0437103208056S11654797EA0089100925000004000000
B0437143208001S11654734EA0087900921000004000000
B0437183207948S11654673EA0087200911000000000000
B0437223207895S11654613EA0086400906000004000000
B0437263207835S11654564EA0086600910000000000000
B0437303207775S11654521EA0087200916000000000000
B0437343207732S11654462EA0087500919000000000000
B0437383207723S11654390EA0087900924000004000000
B0437423207741S11654326EA0088300930000004000000
B0437463207794S11654323EA0088800935000004000000
B0437503207826S11654386EA0088900924000004000000
B0437543207814S11654468EA0087900921000004000000
B0437583207771S11654540EA0087400913000004000000
B0438023207711S11654600EA0087000911000004000000
B0438063207651S11654663EA0087900923000000000000
B0438103207654S11654737EA0088600929000000000000
B0438143207707S11654747EA0088500925000000000000
B0438183207739S11654696EA0088000922000004000000
B0438223207729S11654638EA0088400930000004000000
B0438263207676S11654617EA0089000937000004000000
B0438303207614S11654654EA0089300940000004000000
B0438343207585S11654721EA0090200948000004000000
B0438383207631S11654754EA0090600947000000000000
B0438423207664S11654712EA0090300944000004000000
B0438463207648S11654654EA0090200947000004000000
B0438503207590S11654638EA0091100957000004000000
B0438543207544S11654699EA0091200950000004000000
B0438583207567S11654769EA0091800967000000000000
B0439023207611S11654759EA0093000973000004000000
B0439063207612S11654707EA0092800967000000000000
B0439103207557S11654685EA0092300964000004000000
B0439143207490S11654719EA0091700956000004000000
B0439183207428S11654776EA0091500955000004000000
B0439223207406S11654856EA0092600970000000015000
B0439263207458S11654882EA0093500977000004015000
B0439303207468S11654823EA0094300989000004015000
B0439343207414S11654802EA0094700994000000015000
B0439383207367S11654850EA0095200995000004015000
B0439423207375S11654929EA0095000991000000015000
B0439463207433S11654960EA0095000994000000015000
B0439503207472S11654910EA0095801005000000015000
B0439543207432S11654871EA0097501023000000015000
B0439583207381S11654906EA0098401027000000015000
B0440023207378S11654979EA0098201023000004015000
B0440063207427S11655018EA0098501033000004000000
B0440103207468S11654989EA0099001032000004000000
B0440143207467S11654928EA0098501027000000000000
B0440183207423S11654884EA0099301041000000000000
B0440223207364S11654903EA0100001042000000000000
B0440263207307S11654950EA0099601038000000000000
B0440303207280S11655023EA0100001042000000000000
B0440343207320S11655084EA0099801039000004000000
B0440383207380S11655075EA0100201050000004000000
B0440423207393S11655016EA0101101056000004015000
B0440463207347S11654973EA0101201057000000015000
B0440503207285S11654981EA0101801060000004015000
B0440543207237S11655040EA0101201052000004000000
B0440583207230S11655122EA0101001058000004015000
B0441023207269S11655188EA0102501077000000015000
B0441063207307S11655168EA0104301093000000015000
B0441103207272S11655127EA0104601088000004000000
B0441143207212S11655157EA0104701093000004015000
B0441183207207S11655236EA0106101113000004015000
B0441223207254S11655254EA0108301134000000015000
B0441263207260S11655209EA0109301140000000015000
B0441303207216S11655177EA0109701145000000015000
B0441343207160S11655202EA0110401155000004015000
B0441383207155S11655278EA0111301159000000015000
B0441423207206S11655305EA0112701187000000015000
B0441463207229S11655263EA0115201207000000015000
B0441503207202S11655218EA0116101208000000015000
B0441543207139S11655211EA0116201213000000015000
B0441583207092S11655257EA0117301227000000015000
B0442023207095S11655324EA0118501235000000015000
B0442063207144S11655348EA0119501249000000015000
B0442103207161S11655300EA0121201270000004015000
B0442143207111S11655272EA0122501272000004015000
B0442183207061S11655322EA0122901283000000015000
B0442223207069S11655393EA0124201297000000015000
B0442263207117S11655424EA0125801313000000015000
B0442303207157S11655396EA0127501331000004015000
B0442343207157S11655346EA0129001350000004015000
B0442383207125S11655313EA0130101354000000015000
B0442423207070S11655304EA0129801347000000000000
B0442463207005S11655328EA0128901341000000000000
B0442503206962S11655389EA0129401352000004000000
B0442543206953S11655463EA0130501363000000015000
B0442583206982S11655521EA0131701374000000015000
B0443023207029S11655540EA0133101389000000015000
B0443063207068S11655515EA0134301399000000015000
B0443103207064S11655460EA0135501415000000015000
B0443143207012S11655430EA0137601430000004015000
B0443183206948S11655457EA0137901430000004015000
B0443223206920S11655530EA0138501441000000015000
B0443263206939S11655601EA0139401452000000015000
B0443303206987S11655638EA0141101468000004015000
B0443343207031S11655614EA0142201475000000015000
B0443383207025S11655554EA0142901486000004015000
B0443423206969S11655525EA0144501501000004015000
B0443463206905S11655557EA0145201504000004015000
B0443503206877S11655632EA0146201515000004015000
B0443543206901S11655704EA0147201525000004015000
B0443583206955S11655725EA0148201538000004015000
B0444023206992S11655687EA0149201550000004015000
B0444063206982S11655629EA0150201554000000015000
B0444103206923S11655591EA0150501556000000015000
B0444143206851S11655571EA0150401549000000015000
B0444183206770S11655557EA0149601541000000000000
B0444223206687S11655547EA0149401543000000000000
B0444263206602S11655541EA0149901550000000000000
B0444303206519S11655541EA0149801546000000000000
B0444343206433S11655549EA0149001535000000000000
B0444383206344S11655554EA0148001522000000000000
B0444423206253S11655553EA0146801510000000000000
B0444463206159S11655553EA0145801503000000000000
B0444503206068S11655556EA0145201500000000000000
B0444543205976S11655553EA0144901494000000000000
B0444583205883S11655552EA0144601494000000000000
B0445023205794S11655548EA0144401491000000000000
B0445063205708S11655544EA0144201490000004000000
B0445103205625S11655536EA0143801484000004000000
B0445143205547S11655519EA0143201478000000000000
B0445183205475S11655487EA0142701473000000000000
B0445223205409S11655447EA0142401471000000000000
B0445263205345S11655405EA0142401472000004000000
B0445303205283S11655363EA0141801465000004000000
B0445343205220S11655317EA0141001456000004000000
B0445383205157S11655271EA0140201451000000000000
B0445423205092S11655228EA0140101449000000000000
B0445463205029S11655185EA0140101452000000000000
B0445503204975S11655136EA0140001447000000000000
B0445543204924S11655077EA0139501442000000000000
B0445583204876S11655014EA0139201441000000000000
B0446023204825S11654954EA0139301444000000000000
B0446063204782S11654889EA0139201439000004000000
B0446103204751S11654815EA0138101428000004000000
B0446143204733S11654732EA0137201415000004000000
B0446183204726S11654646EA0136701417000000000000
B0446223204728S11654566EA0137601427000000000000
B0446263204738S11654495EA0138101432000000000000
B0446303204750S11654426EA0138101428000000000000
B0446343204759S11654353EA0137201418000000000000
B0446383204768S11654278EA0135901406000000000000
B0446423204778S11654201EA0134801398000000000000
B0446463204790S11654124EA0134101390000004000000
B0446503204808S11654052EA0133801384000004000000
B0446543204828S11653981EA0133201379000004000000
B0446583204843S11653911EA0132501372000004000000
B0447023204856S11653836EA0131501361000004000000
B0447063204871S11653759EA0130401351000004000000
B0447103204886S11653682EA0129601344000000000000
B0447143204903S11653608EA0129001338000004000000
B0447183204918S11653534EA0128201329000004000000
B0447223204921S11653456EA0127501322000004000000
B0447263204907S11653377EA0127001319000004000000
B0447303204873S11653299EA0126701317000004000000
B0447343204832S11653222EA0127001320000004000000
B0447383204793S11653151EA0127101319000000000000
B0447423204754S11653079EA0126801315000004000000
B0447463204706S11653013EA0126101307000004000000
B0447503204639S11652966EA0125701307000004000000
B0447543204564S11652948EA0126101312000004000000
B0447583204487S11652956EA0126101312000000000000
B0448023204413S11652978EA0126301313000000000000
B0448063204336S11653008EA0126101310000000000000
B0448103204261S11653049EA0126001308000000000000
B0448143204186S11653095EA0125701305000000000000
B0448183204113S11653144EA0125601304000000000000
B0448223204040S11653196EA0125101296000000000000
B0448263203969S11653255EA0124401289000004000000
B0448303203905S11653328EA0123201275000004000000
B0448343203859S11653420EA0122001263000000000000
B0448383203828S11653526EA0121001253000000000000
B0448423203810S11653638EA0120201246000004000000
B0448463203801S11653754EA0119301235000004000000
B0448503203807S11653867EA0118601230000004000000
B0448543203827S11653971EA0118201225000000000000
B0448583203861S11654067EA0117301218000000000000
B0449023203901S11654158EA0116501212000000000000
B0449063203946S11654243EA0116301207000000000000
B0449103203998S11654318EA0115601200000000000000
B0449143204050S11654395EA0114801193000000000000
B0449183204104S11654469EA0114201187000004000000
B0449223204162S11654538EA0113401179000000000000
B0449263204222S11654603EA0112501172000000000000
B0449303204283S11654668EA0111601163000000000000
B0449343204340S11654735EA0110801154000000000000
B0449383204398S11654804EA0109901142000000000000
B0449423204455S11654876EA0108801131000000000000
B0449463204513S11654946EA0107501120000000000000
B0449503204570S11655020EA0106201104000000000000
B0449543204628S11655098EA0105001094000004000000
B0449583204686S11655171EA0104901097000000000000
B0450023204746S11655239EA0105001097000000000000
B0450063204808S11655300EA0104901096000000000000
B0450103204872S11655357EA0104901099000000000000
B0450143204938S11655408EA0105401105000000000000
B0450183205006S11655450EA0106601119000004000000
B0450223205070S11655457EA0107701126000004000000
B0450263205089S11655406EA0108501133000004000000
B0450303205040S11655376EA0108101126000000000000
B0450343204981S11655424EA0107401119000000000000
B0450383204979S11655510EA0107201120000000000000
B0450423205027S11655566EA0107501121000004000000
B0450463205089S11655582EA0106901112000000000000
B0450503205155S11655579EA0105801101000000000000
B0450543205222S11655566EA0104901090000000000000
B0450583205293S11655564EA0103901080000000000000
B0451023205366S11655586EA0103301076000000000000
B0451063205430S11655629EA0103101077000000000000
B0451103205487S11655683EA0103101078000004000000
B0451143205536S11655744EA0102901073000000000000
B0451183205583S11655812EA0101901063000000000000
B0451223205629S11655883EA0101401059000000000000
B0451263205672S11655952EA0101301061000000000000
B0451303205712S11656020EA0101301059000000000000
B0451343205751S11656090EA0101101057000004000000
B0451383205787S11656160EA0100801055000000000000
B0451423205820S11656230EA0100401050000000000000
B0451463205852S11656299EA0100201049000000000000
B0451503205887S11656362EA0099501040000004000000
B0451543205929S11656419EA0098301027000004000000
B0451583205976S11656470EA0097401016000004000000
B0452023206029S11656511EA0096701011000000000000
B0452063206085S11656545EA0096101004000004000000
B0452103206146S11656565EA0095300997000000000000
B0452143206207S11656568EA0095000997000004000000
B0452183206268S11656559EA0095501001000000000000
B0452223206314S11656526EA0096501017000004000000
B0452263206319S11656474EA0097601024000000000000
B0452303206275S11656442EA0097601019000000000000
B0452343206219S11656471EA0097801025000000000000
B0452383206221S11656541EA0097901025000000000000
B0452423206268S11656553EA0097901026000000000000
B0452463206289S11656503EA0097901026000000015000
B0452503206251S11656455EA0098101030000000015000
B0452543206186S11656454EA0098301029000000015000
B0452583206134S11656507EA0098201030000000015000
B0453023206124S11656587EA0099101044000000015000
B0453063206159S11656632EA0099801042000000015000
B0453103206198S11656606EA0099601042000000015000
B0453143206169S11656557EA0099301038000000015000
B0453183206101S11656566EA0100001051000000015000
B0453223206063S11656630EA0101301062000004015000
B0453263206085S11656685EA0101601062000004015000
B0453303206128S11656676EA0101301056000004015000
B0453343206132S11656622EA0100701056000004015000
B0453383206093S11656572EA0101101059000004015000
B0453423206025S11656576EA0101701061000004015000
B0453463205981S11656648EA0101601060000004015000
B0453503206000S11656722EA0101701060000004015000
B0453543206055S11656724EA0101201054000004015000
B0453583206097S11656674EA0100401049000000015000
B0454023206124S11656607EA0101001055000004015000
B0454063206089S11656550EA0101701058000000015000
B0454103206019S11656574EA0101101047000000015000
B0454143205998S11656658EA0100201044000000015000
B0454183206033S11656727EA0100301050000000015000
B0454223206086S11656737EA0101001057000000015000
B0454263206137S11656709EA0100901051000000015000
B0454303206181S11656663EA0100301044000000015000
B0454343206223S11656610EA0098601025000000000000
B0454383206271S11656558EA0098101023000000000000
B0454423206311S11656501EA0098101023000004000000
B0454463206333S11656433EA0097401015000004000000
B0454503206344S11656359EA0097001014000000000000
B0454543206357S11656284EA0096901014000000000000
B0454583206370S11656210EA0096801008000004000000
B0455023206372S11656134EA0095600997000004000000
B0455063206361S11656056EA0095200995000000000000
B0455103206338S11655985EA0095300997000004000000
B0455143206310S11655920EA0095400997000000000000
B0455183206277S11655855EA0094700988000004000000
B0455223206260S11655782EA0094200985000000000000
B0455263206279S11655718EA0095001000000000000000
B0455303206338S11655726EA0096401015000000000000
B0455343206346S11655803EA0097801027000000000000
B0455383206294S11655840EA0098501035000004000000
B0455423206253S11655808EA0099001039000004015000
B0455463206268S11655759EA0099701048000004015000
B0455503206319S11655751EA0100501052000004015000
B0455543206359S11655800EA0101001061000000015000
B0455583206358S11655873EA0102001067000000015000
B0456023206322S11655937EA0102101068000004015000
B0456063206262S11655959EA0102301072000004015000
B0456103206216S11655926EA0102901078000004015000
B0456143206218S11655872EA0103601084000004015000
B0456183206260S11655842EA0104101084000000015000
B0456223206316S11655872EA0103901084000000015000
B0456263206341S11655948EA0104401090000004015000
B0456303206323S11656030EA0105101099000004015000
B0456343206275S11656094EA0105601101000004015000
B0456383206208S11656121EA0105801104000004015000
B0456423206149S11656099EA0105801102000000015000
B0456463206117S11656045EA0105801104000000015000
B0456503206121S11655981EA0105501098000000015000
B0456543206154S11655928EA0105501099000000015000
B0456583206201S11655885EA0105701098000000000000
B0457023206251S11655846EA0105701098000000000000
B0457063206298S11655801EA0106301109000000000000
B0457103206297S11655736EA0107801126000000000000
B0457143206236S11655729EA0108501130000000000000
B0457183206194S11655796EA0108401129000004000000
B0457223206207S11655876EA0108201128000004015000
B0457263206254S11655928EA0109101140000004000000
B0457303206305S11655931EA0110501155000004000000
B0457343206316S11655882EA0111401160000004000000
B0457383206275S11655840EA0111301153000000015000
B0457423206203S11655846EA0110501146000004000000
B0457463206141S11655903EA0110201149000000015000
B0457503206111S11655986EA0111101162000000015000
B0457543206125S11656061EA0111901165000004015000
B0457583206175S11656087EA0111801162000004015000
B0458023206214S11656048EA0111601163000004015000
B0458063206211S11655990EA0112401174000004015000
B0458103206158S11655960EA0113101176000004015000
B0458143206091S11655990EA0113401181000000015000
B0458183206056S11656064EA0113801188000000015000
B0458223206071S11656141EA0114301190000000015000
B0458263206115S11656177EA0114401188000000015000
B0458303206163S11656156EA0113901184000000015000
B0458343206184S11656100EA0114001189000000015000
B0458383206149S11656051EA0114901200000000015000
B0458423206082S11656056EA0115301196000000015000
B0458463206030S11656120EA0114901194000000015000
B0458503206021S11656207EA0115601201000000015000
B0458543206055S11656275EA0115701200000000015000
B0458583206111S11656294EA0115501202000000015000
B0459023206168S11656279EA0115501199000000015000
B0459063206224S11656249EA0115301197000000000000
B0459103206268S11656199EA0115501198000000000000
B0459143206259S11656129EA0115601199000000000000
B0459183206197S11656089EA0115601199000000000000
B0459223206124S11656116EA0115501199000000000000
B0459263206059S11656180EA0114801191000004000000
B0459303205997S11656249EA0114501188000004000000
B0459343205942S11656328EA0114701194000004000000
B0459383205937S11656422EA0115501200000000000000
B0459423205984S11656488EA0115201190000000000000
B0459463206055S11656502EA0114401188000000000000
B0459503206127S11656496EA0114401188000000000000
B0459543206198S11656479EA0114401188000004000000
B0459583206270S11656458EA0114401189000000000000
B0500023206340S11656436EA0114401189000000000000
B0500063206411S11656416EA0114401183000000000000
B0500103206483S11656397EA0113601176000000000000
B0500143206556S11656380EA0112901167000004000000
B0500183206631S11656362EA0111801157000000000000
B0500223206708S11656344EA0110801147000000000000
B0500263206786S11656324EA0109601134000004000000
B0500303206866S11656303EA0108401121000004000000
B0500343206943S11656280EA0108001120000004000000
B0500383207014S11656251EA0107701113000004000000
B0500423207089S11656224EA0106401097000004000000
B0500463207168S11656207EA0105101088000004000000
B0500503207247S11656195EA0104401081000000000000
B0500543207324S11656182EA0103901078000000000000
B0500583207397S11656167EA0103901077000000000000
B0501023207467S11656146EA0103401073000000000000
B0501063207536S11656124EA0103501073000000000000
B0501103207598S11656086EA0103201070000004000000
B0501143207651S11656038EA0103301072000000000000
B0501183207688S11655977EA0103501075000000000000
B0501223207714S11655911EA0103001067000000000000
B0501263207736S11655840EA0102201061000000000000
B0501303207762S11655770EA0101601054000004000000
B0501343207789S11655701EA0101301052000000000000
B0501383207810S11655629EA0101201053000004000000
B0501423207826S11655554EA0101001051000004000000
B0501463207844S11655482EA0101301055000004000000
B0501503207859S11655413EA0101801059000004000000
B0501543207876S11655345EA0101901060000004000000
B0501583207893S11655279EA0102101063000004000000
B0502023207906S11655214EA0102501066000004000000
B0502063207928S11655150EA0101901057000004000000
B0502103207961S11655086EA0101201052000004000000
B0502143208000S11655025EA0100801047000004000000
B0502183208039S11654964EA0100101038000004000000
B0502223208082S11654903EA0098801023000004000000
B0502263208131S11654842EA0097901020000004000000
B0502303208179S11654786EA0098701033000004000000
B0502343208227S11654735EA0099601038000000000000
B0502383208275S11654686EA0099101030000004000000
B0502423208326S11654641EA0098401024000004000000
B0502463208374S11654595EA0098201021000004000000
B0502503208424S11654552EA0098501031000004000000
B0502543208472S11654512EA0099301036000000000000
B0502583208521S11654473EA0099701036000004000000
B0503023208569S11654431EA0099401032000004000000
B0503063208611S11654381EA0099101032000004000000
B0503103208633S11654322EA0100201044000000000000
B0503143208582S11654299EA0101401057000000000000
B0503183208543S11654358EA0101901058000000000000
B0503223208569S11654429EA0101701055000000000000
B0503263208625S11654436EA0101801060000000000000
B0503303208643S11654387EA0102601070000004015000
B0503343208598S11654355EA0103301073000000015000
B0503383208539S11654394EA0103801079000004015000
B0503423208528S11654469EA0104601085000004015000
B0503463208568S11654522EA0104701086000000015000
B0503503208620S11654511EA0104701087000000015000
B0503543208617S11654457EA0105201097000000015000
B0503583208564S11654436EA0106201105000000015000
B0504023208508S11654478EA0106901112000000015000
B0504063208499S11654556EA0107301112000000015000
B0504103208546S11654603EA0107201107000000015000
B0504143208598S11654586EA0106601106000000015000
B0504183208620S11654533EA0107001114000000015000
B0504223208587S11654482EA0107401115000000015000
B0504263208521S11654495EA0107501114000000015000
B0504303208480S11654568EA0107701117000000015000
B0504343208498S11654648EA0108401127000000015000
B0504383208552S11654657EA0109101133000004015000
B0504423208572S11654607EA0109901142000004015000
B0504463208525S11654574EA0110701147000004015000
B0504503208468S11654613EA0111301157000000015000
B0504543208459S11654693EA0112101162000000015000
B0504583208503S11654743EA0112401164000000015000
B0505023208559S11654732EA0112301164000000015000
B0505063208580S11654680EA0113001175000000015000
B0505103208530S11654646EA0113501173000004015000
B0505143208467S11654694EA0113301173000000015000
B0505183208465S11654780EA0114301189000000015000
B0505223208516S11654826EA0115501197000004015000
B0505263208567S11654815EA0116001204000000015000
B0505303208573S11654763EA0116701210000004015000
B0505343208524S11654732EA0116301200000000015000
B0505383208451S11654755EA0115501193000004015000
B0505423208391S11654823EA0115601199000004015000
B0505463208404S11654907EA0116501205000000015000
B0505503208465S11654934EA0116001193000000015000
B0505543208507S11654882EA0115401196000000015000
B0505583208486S11654826EA0116801221000004015000
B0506023208425S11654825EA0117801220000000015000
B0506063208366S11654881EA0117601216000000015000
B0506103208339S11654960EA0118201227000000015000
B0506143208373S11655021EA0118501225000004015000
B0506183208430S11655025EA0117701214000004015000
B0506223208470S11654980EA0117401217000004015000
B0506263208461S11654920EA0118101226000004015000
B0506303208404S11654897EA0118601228000004015000
B0506343208339S11654932EA0118801226000004015000
B0506383208312S11655014EA0118801232000004015000
B0506423208346S11655073EA0119401234000004015000
B0506463208398S11655071EA0119401235000004015000
B0506503208417S11655023EA0119501237000004015000
B0506543208386S11654973EA0119601238000004015000
B0506583208320S11654966EA0119701237000004015000
B0507023208252S11655005EA0119601234000000015000
B0507063208190S11655063EA0119601236000000015000
B0507103208166S11655148EA0120601249000000015000
B0507143208205S11655206EA0121201253000004015000
B0507183208260S11655197EA0120901248000004015000
B0507223208283S11655144EA0120901251000004015000
B0507263208261S11655086EA0121101251000000015000
B0507303208199S11655066EA0120501242000004015000
B0507343208126S11655096EA0119901239000004015000
B0507383208065S11655154EA0120401246000004015000
B0507423208053S11655237EA0121801265000000015000
B0507463208096S11655288EA0122801272000004015000
B0507503208145S11655272EA0123101270000000015000
B0507543208151S11655216EA0122801268000000015000
B0507583208095S11655193EA0122701266000000015000
B0508023208038S11655239EA0122801274000000015000
B0508063208017S11655317EA0123701282000004015000
B0508103208040S11655389EA0124701293000004015000
B0508143208092S11655405EA0125501298000000015000
B0508183208118S11655359EA0125201291000000015000
B0508223208096S11655298EA0124401280000000015000
B0508263208032S11655274EA0123801278000000015000
B0508303207965S11655307EA0124201284000000015000
B0508343207921S11655382EA0124901295000000015000
B0508383207911S11655469EA0125901303000000015000
B0508423207957S11655519EA0126701312000000015000
B0508463208002S11655497EA0127201318000000015000
B0508503208001S11655445EA0128101326000000015000
B0508543207952S11655428EA0128501325000000015000
B0508583207908S11655486EA0128501329000000015000
B0509023207917S11655561EA0129201336000000015000
B0509063207966S11655599EA0129401337000000015000
B0509103208012S11655574EA0129601338000000015000
B0509143208015S11655519EA0129701341000000015000
B0509183207974S11655487EA0130101343000004015000
B0509223207919S11655509EA0130301346000000015000
B0509263207891S11655574EA0130601347000004015000
B0509303207905S11655649EA0130601347000004015000
B0509343207950S11655695EA0130901352000004015000
B0509383207997S11655679EA0131001352000004015000
B0509423208006S11655629EA0131001352000004015000
B0509463207967S11655587EA0130601337000004015000
B0509503207911S11655547EA0129301331000004015000
B0509543207854S11655506EA0129301332000000015000
B0509583207796S11655470EA0129201330000004015000
B0510023207733S11655431EA0128401320000004000000
B0510063207668S11655387EA0127101306000004000000
B0510103207602S11655339EA0125701294000004000000
B0510143207536S11655288EA0125301292000004000000
B0510183207473S11655237EA0125301293000000000000
B0510223207417S11655187EA0125501300000000000000
B0510263207367S11655137EA0126301308000004000000
B0510303207320S11655084EA0127201316000000000000
B0510343207313S11655018EA0127801320000000000000
B0510383207336S11654959EA0128101323000000000000
B0510423207367S11654912EA0128301321000000000000
B0510463207380S11654856EA0127901317000000000000
B0510503207339S11654808EA0127001307000000000000
B0510543207273S11654785EA0125601292000000000000
B0510583207195S11654782EA0125001283000000000000
B0511023207117S11654790EA0124301279000000000000
B0511063207037S11654803EA0124001277000000000000
B0511103206956S11654820EA0123901275000000000000
B0511143206877S11654838EA0123201266000000000000
B0511183206795S11654859EA0122101255000000000000
B0511223206712S11654886EA0121101246000004000000
B0511263206627S11654915EA0120801245000004000000
B0511303206548S11654943EA0121501253000000000000
B0511343206475S11654985EA0121501251000000000000
B0511383206414S11655053EA0121301250000000000000
B0511423206361S11655125EA0121601261000000000000
B0511463206355S11655205EA0123901281000000000000
B0511503206407S11655219EA0124901287000000000000
B0511543206415S11655164EA0125301294000000000000
B0511583206367S11655133EA0125901298000000015000
B0512023206306S11655164EA0126601313000000015000
B0512063206297S11655239EA0128401327000000015000
B0512103206350S11655266EA0128801329000004015000
B0512143206380S11655222EA0129701341000004015000
B0512183206358S11655174EA0131301352000004015000
B0512223206305S11655157EA0131701352000004015000
B0512263206245S11655193EA0132201366000000015000
B0512303206229S11655270EA0133501379000004015000
B0512343206268S11655319EA0134501386000000015000
B0512383206316S11655294EA0134701389000000015000
B0512423206312S11655232EA0135801407000000015000
B0512463206268S11655189EA0136901406000004015000
B0512503206203S11655201EA0136401404000000015000
B0512543206150S11655265EA0136701412000000015000
B0512583206141S11655343EA0138201432000000015000
B0513023206186S11655379EA0139701442000004015000
B0513063206224S11655344EA0140201449000004030000
B0513103206208S11655285EA0141501463000000015000
B0513143206156S11655263EA0143501482000000015000
B0513183206110S11655306EA0143501474000000030000
B0513223206099S11655384EA0143801485000000030000
B0513263206130S11655444EA0144601493000000015000
B0513303206182S11655454EA0145501501000000015000
B0513343206215S11655411EA0146401511000000015000
B0513383206199S11655352EA0147401511000004015000
B0513423206149S11655305EA0146701498000000015000
B0513463206082S11655262EA0145701492000004015000
B0513503206007S11655231EA0145101488000004015000
B0513543205925S11655203EA0144501482000000015000
B0513583205843S11655170EA0143901475000000015000
B0514023205765S11655133EA0143801475000004015000
B0514063205688S11655101EA0143501474000000015000
B0514103205610S11655076EA0143401471000000015000
B0514143205531S11655057EA0142901466000000000000
B0514183205453S11655038EA0142601464000000000000
B0514223205376S11655019EA0142301460000000000000
B0514263205300S11654998EA0141801456000000000000
B0514303205223S11654980EA0141301450000004000000
B0514343205144S11654964EA0141001447000004000000
B0514383205064S11654949EA0140601444000004000000
B0514423204985S11654930EA0140601444000004000000
B0514463204910S11654915EA0140701447000000000000
B0514503204836S11654902EA0140601441000000000000
B0514543204759S11654889EA0139801434000000000000
B0514583204681S11654877EA0139001425000000000000
B0515023204603S11654863EA0138201418000000000000
B0515063204526S11654841EA0137201408000000000000
B0515103204451S11654811EA0136201399000000000000
B0515143204382S11654769EA0135301392000000000000
B0515183204318S11654722EA0134801386000000000000
B0515223204258S11654670EA0134401381000000000000
B0515263204205S11654612EA0134001376000000000000
B0515303204154S11654551EA0133501370000000000000
B0515343204096S11654499EA0133001370000000000000
B0515383204037S11654452EA0132901367000000000000
B0515423203975S11654405EA0132201359000004000000
B0515463203913S11654357EA0131101349000004000000
B0515503203849S11654309EA0130601345000004000000
B0515543203788S11654260EA0130601346000004000000
B0515583203731S11654212EA0130601346000004000000
B0516023203677S11654161EA0130701347000000000000
B0516063203625S11654114EA0130701349000004000000
B0516103203569S11654071EA0130801348000000000000
B0516143203520S11654020EA0130701350000004000000
B0516183203490S11653954EA0131001351000004000000
B0516223203486S11653883EA0131501357000004000000
B0516263203463S11653824EA0131801358000000000000
B0516303203399S11653820EA0131901360000004000000
B0516343203342S11653875EA0131701356000000015000
B0516383203322S11653962EA0131101347000000015000
B0516423203345S11654049EA0130101340000000015000
B0516463203394S11654106EA0129901341000004015000
B0516503203456S11654124EA0130501346000004015000
B0516543203501S11654091EA0131401356000004015000
B0516583203491S11654031EA0131801359000004015000
B0517023203441S11653996EA0131901358000000015000
B0517063203378S11654019EA0131501351000000015000
B0517103203332S11654084EA0130301340000004015000
B0517143203294S11654167EA0129801337000004015000
B0517183203267S11654256EA0129701336000004015000
B0517223203246S11654352EA0129401333000004015000
B0517263203234S11654447EA0130001346000004015000
B0517303203254S11654520EA0131601360000004015000
B0517343203304S11654529EA0131301348000004015000
B0517383203325S11654475EA0130901355000004015000
B0517423203281S11654434EA0131801362000004015000
B0517463203216S11654443EA0132601369000004015000
B0517503203164S11654496EA0133201375000004015000
B0517543203134S11654573EA0133401374000000015000
B0517583203124S11654657EA0133401376000000015000
B0518023203135S11654735EA0133301374000000015000
B0518063203170S11654798EA0132501366000000015000
B0518103203221S11654837EA0132201367000004015000
B0518143203277S11654862EA0132501369000000015000
B0518183203334S11654877EA0132701369000000015000
B0518223203391S11654865EA0132301364000000015000
B0518263203446S11654838EA0131901359000004000000
B0518303203498S11654800EA0131101349000004000000
B0518343203545S11654751EA0130101338000000000000
B0518383203589S11654695EA0129101328000000000000
B0518423203628S11654634EA0128301324000000000000
B0518463203667S11654574EA0127901321000000000000
B0518503203712S11654524EA0127901319000000000000
B0518543203764S11654482EA0127801320000000000000
B0518583203816S11654443EA0127401314000004000000
B0519023203872S11654408EA0126501305000000000000
B0519063203932S11654377EA0126001300000000000000
B0519103203993S11654351EA0125601297000000000000
B0519143204053S11654325EA0125301294000000000000
B0519183204113S11654297EA0124801287000000000000
B0519223204173S11654270EA0124001279000004000000
B0519263204232S11654240EA0123101272000004000000
B0519303204292S11654208EA0122501266000004000000
B0519343204352S11654176EA0122101259000004000000
B0519383204412S11654145EA0121501254000004000000
B0519423204470S11654114EA0120901249000004000000
B0519463204528S11654080EA0120401246000000000000
B0519503204585S11654045EA0120201242000000000000
B0519543204639S11654007EA0119901240000004000000
B0519583204695S11653972EA0119701237000004000000
B0520023204758S11653949EA0119101231000004000000
B0520063204825S11653939EA0118801229000004000000
B0520103204894S11653941EA0118901230000000000000
B0520143204962S11653946EA0119001229000004000000
B0520183205027S11653945EA0118701224000000000000
B0520223205093S11653940EA0118001219000004000000
B0520263205161S11653939EA0117301210000004000000
B0520303205232S11653949EA0116501204000000000000
B0520343205304S11653974EA0116201199000000000000
B0520383205373S11654006EA0116101200000000000000
B0520423205439S11654039EA0116001197000000000000
B0520463205504S11654066EA0115301188000000000000
B0520503205573S11654085EA0114301180000000000000
B0520543205640S11654101EA0114201182000000000000
B0520583205704S11654115EA0114401185000004000000
B0521023205763S11654132EA0114501186000000000000
B0521063205820S11654152EA0114301183000000000000
B0521103205876S11654180EA0114101180000004000000
B0521143205928S11654215EA0113901177000004000000
B0521183205978S11654256EA0113301171000004000000
B0521223206028S11654300EA0112801167000004000000
B0521263206077S11654345EA0112401164000004000000
B0521303206127S11654391EA0111901157000004000000
B0521343206176S11654442EA0111401152000004000000
B0521383206224S11654492EA0111001149000000000000
B0521423206271S11654548EA0110901147000000000000
B0521463206320S11654600EA0110901150000000000000
B0521503206374S11654624EA0112301171000000000000
B0521543206402S11654589EA0114401187000004000000
B0521583206380S11654547EA0115401194000004000000
B0522023206327S11654550EA0115901197000000000000
B0522063206289S11654609EA0116401204000000015000
B0522103206309S11654680EA0116901210000000015000
B0522143206357S11654680EA0118501228000000015000
B0522183206358S11654631EA0119701240000000015000
B0522223206314S11654607EA0120401244000000015000
B0522263206262S11654652EA0120701247000000015000
B0522303206258S11654732EA0121601261000004015000
B0522343206301S11654764EA0123301279000004030000
B0522383206319S11654721EA0124301286000004030000
B0522423206273S11654690EA0125901308000000015000
B0522463206221S11654729EA0127401321000000030000
B0522503206215S11654806EA0128001323000004030000
B0522543206251S11654859EA0129201343000000030000
B0522583206286S11654845EA0130701350000004030000
B0523023206267S11654793EA0131001353000004030000
B0523063206202S11654797EA0132201375000000015000
B0523103206160S11654864EA0134101388000004030000
B0523143206167S11654943EA0135401405000000030000
B0523183206205S11654977EA0137001419000000030000
B0523223206232S11654950EA0137801421000000030000
B0523263206207S11654897EA0138301429000004030000
B0523303206145S11654891EA0139301440000004015000
B0523343206098S11654959EA0140401447000004030000
B0523383206104S11655041EA0140701451000004030000
B0523423206151S11655075EA0141201458000000030000
B0523463206182S11655045EA0142101471000000030000
B0523503206160S11654993EA0143001476000000030000
B0523543206094S11654988EA0143201475000004015000
B0523583206043S11655057EA0144001487000004030000
B0524023206055S11655131EA0144701490000000030000
B0524063206104S11655144EA0144701490000004030000
B0524103206123S11655096EA0145501502000004030000
B0524143206082S11655046EA0146401504000004030000
B0524183206012S11655068EA0146701508000004030000
B0524223205993S11655154EA0147201516000004030000
B0524263206021S11655223EA0148001527000000030000
B0524303206068S11655248EA0148901536000004030000
B0524343206101S11655220EA0150101553000004030000
B0524383206078S11655172EA0151501562000004015000
B0524423206017S11655176EA0152401565000000015000
B0524463205968S11655241EA0152201564000000015000
B0524503205969S11655323EA0152701571000000015000
B0524543206008S11655375EA0153201573000000015000
B0524583206062S11655384EA0153401574000000015000
B0525023206114S11655362EA0153601576000000015000
B0525063206167S11655328EA0153701576000004015000
B0525103206219S11655287EA0153801577000000000000
B0525143206273S11655244EA0153601573000000000000
B0525183206336S11655205EA0153801581000004000000
B0525223206398S11655170EA0154801591000000000000
B0525263206461S11655135EA0155401590000000000000
B0525303206526S11655098EA0155001586000000000000
B0525343206592S11655060EA0155101588000000000000
B0525383206658S11655021EA0154401579000000000000
B0525423206727S11654981EA0153401569000000000000
B0525463206796S11654942EA0152701559000000000000
B0525503206868S11654901EA0151301543000000000000
B0525543206940S11654860EA0149901534000000000000
B0525583207012S11654821EA0149501532000000000000
B0526023207082S11654784EA0149101527000004000000
B0526063207152S11654748EA0148601519000004000000
B0526103207225S11654719EA0147701511000004000000
B0526143207298S11654691EA0147201505000004000000
B0526183207369S11654657EA0146801504000000000000
B0526223207436S11654620EA0146801501000000000000
B0526263207499S11654581EA0146101494000000000000
B0526303207563S11654543EA0145301489000004000000
B0526343207628S11654509EA0145001484000000000000
B0526383207694S11654478EA0144301479000000000000
B0526423207759S11654448EA0144201480000000000000
B0526463207820S11654417EA0144301480000004000000
B0526503207879S11654383EA0143901471000004000000
B0526543207934S11654335EA0143101466000000000000
B0526583207988S11654287EA0143101468000004000000
B0527023208047S11654248EA0143001467000004000000
B0527063208108S11654213EA0142601461000004000000
B0527103208173S11654179EA0142401461000004000000
B0527143208234S11654140EA0142501464000000000000
B0527183208292S11654097EA0143101468000004000000
B0527223208324S11654036EA0143601473000000000000
B0527263208296S11653970EA0143901472000000000000
B0527303208226S11653949EA0143601468000000000000
B0527343208152S11653984EA0143201466000000000000
B0527383208105S11654069EA0142701462000004000000
B0527423208101S11654169EA0142401462000004015000
B0527463208130S11654260EA0142201457000004000000
B0527503208188S11654325EA0141801454000004000000
B0527543208262S11654355EA0141901454000004000000
B0527583208334S11654351EA0142001458000004000000
B0528023208396S11654322EA0142301462000004000000
B0528063208448S11654279EA0142301459000004000000
B0528103208499S11654228EA0142001455000004000000
B0528143208551S11654176EA0141301448000004000000
B0528183208606S11654127EA0140601441000004000000
B0528223208667S11654089EA0139901434000004000000
B0528263208738S11654075EA0138901423000004000000
B0528303208818S11654083EA0138301412000004000000
B0528343208898S11654114EA0137301404000000000000
B0528383208977S11654160EA0136601401000000000000
B0528423209054S11654205EA0136701402000000000000
B0528463209130S11654249EA0136501399000000000000
B0528503209204S11654293EA0136601403000004000000
B0528543209276S11654330EA0137001406000000000000
B0528583209349S11654334EA0137001404000000000000
B0529023209412S11654306EA0136801399000004000000
B0529063209453S11654249EA0135901393000000000000
B0529103209481S11654179EA0135101384000000000000
B0529143209499S11654101EA0134201376000000000000
B0529183209514S11654020EA0133601369000000000000
B0529223209530S11653940EA0132501356000000000000
B0529263209544S11653855EA0131401346000000000000
B0529303209553S11653770EA0130701341000000000000
B0529343209556S11653685EA0130401339000004000000
B0529383209553S11653603EA0130001331000004000000
B0529423209547S11653520EA0129101324000004000000
B0529463209536S11653439EA0128601322000004000000
B0529503209522S11653361EA0128401319000004000000
B0529543209501S11653285EA0128001315000004000000
B0529583209478S11653211EA0127901317000004000000
B0530023209453S11653139EA0127901315000004000000
B0530063209419S11653075EA0128401323000004000000
B0530103209382S11653019EA0129101330000004000000
B0530143209353S11652958EA0129401333000004000000
B0530183209348S11652893EA0130101344000004000000
B0530223209383S11652853EA0131601363000004000000
B0530263209434S11652878EA0133501373000004000000
B0530303209452S11652951EA0133801375000004000000
B0530343209422S11653023EA0133801372000004015000
B0530383209361S11653055EA0134101379000000015000
B0530423209302S11653042EA0134701387000000015000
B0530463209278S11652992EA0135201391000000015000
B0530503209305S11652947EA0135801397000000015000
B0530543209357S11652953EA0136701414000000015000
B0530583209393S11653012EA0137801413000000015000
B0531023209404S11653095EA0137401412000000015000
B0531063209380S11653179EA0137901419000000015000
B0531103209325S11653231EA0138701431000000000000
B0531143209265S11653229EA0139801439000000015000
B0531183209231S11653182EA0140001436000000015000
B0531223209243S11653122EA0139901437000000015000
B0531263209291S11653095EA0140501447000000015000
B0531303209348S11653122EA0141701455000004015000
B0531343209388S11653188EA0141301448000004015000
B0531383209408S11653278EA0140701445000004015000
B0531423209396S11653372EA0141201451000004015000
B0531463209354S11653451EA0141301446000004015000
B0531503209293S11653512EA0140501439000004000000
B0531543209223S11653568EA0140001433000004000000
B0531583209153S11653627EA0139301430000004000000
B0532023209081S11653688EA0139401432000000000000
B0532063209013S11653745EA0139601432000004000000
B0532103208945S11653802EA0139101424000000000000
B0532143208877S11653866EA0138001409000000000000
B0532183208812S11653941EA0136601398000000000000
B0532223208747S11654018EA0135801392000000000000
B0532263208682S11654095EA0135101385000004000000
B0532303208613S11654171EA0134601378000000000000
B0532343208545S11654249EA0134101375000000000000
B0532383208477S11654329EA0133901373000000000000
B0532423208411S11654408EA0133701374000004000000
B0532463208347S11654485EA0133901376000004000000
B0532503208285S11654560EA0134101376000000000000
B0532543208218S11654634EA0133601369000000000000
B0532583208151S11654708EA0132801362000000000000
B0533023208088S11654790EA0132201356000000000000
B0533063208031S11654876EA0131801351000004000000
B0533103207980S11654967EA0131401348000000000000
B0533143207936S11655060EA0131601352000000000000
B0533183207897S11655155EA0131501349000000000000
B0533223207854S11655249EA0131101346000000000000
B0533263207806S11655339EA0131101345000004000000
B0533303207758S11655426EA0131101350000000000000
B0533343207705S11655506EA0131401351000000000000
B0533383207645S11655580EA0131201346000000000000
B0533423207580S11655647EA0130301336000000000000
B0533463207512S11655714EA0129601330000004000000
B0533503207446S11655782EA0128901323000000000000
B0533543207381S11655850EA0128501320000000000000
B0533583207319S11655918EA0128001316000004000000
B0534023207256S11655987EA0127601310000004000000
B0534063207194S11656056EA0127201308000004000000
B0534103207131S11656121EA0127401310000004000000
B0534143207068S11656184EA0126901304000004000000
B0534183206999S11656237EA0126501300000004000000
B0534223206929S11656277EA0126801304000000000000
B0534263206886S11656347EA0127001303000000000000
B0534303206888S11656437EA0126101287000004000000
B0534343206922S11656520EA0124701277000004000000
B0534383206974S11656587EA0124101274000004000000
B0534423207034S11656637EA0123601269000004000000
B0534463207098S11656675EA0123201265000004000000
B0534503207163S11656708EA0122701259000004000000
B0534543207228S11656737EA0121801251000004000000
B0534583207295S11656763EA0121301245000000000000
B0535023207364S11656784EA0120801237000004000000
B0535063207434S11656801EA0119701228000004000000
B0535103207506S11656814EA0118601217000004000000
B0535143207580S11656822EA0117801207000000000000
B0535183207655S11656823EA0116801198000004000000
B0535223207729S11656821EA0116201194000004000000
B0535263207802S11656814EA0115701190000004000000
B0535303207872S11656806EA0115301185000004000000
B0535343207943S11656793EA0115001182000000000000
B0535383208012S11656778EA0114701181000000000000
B0535423208078S11656762EA0114401176000000000000
B0535463208145S11656745EA0113501165000000000000
B0535503208213S11656727EA0112601157000000000000
B0535543208282S11656709EA0111901152000000000000
B0535583208351S11656695EA0111401148000004000000
B0536023208421S11656683EA0110901142000000000000
B0536063208491S11656670EA0110401136000000000000
B0536103208560S11656654EA0109901134000000000000
B0536143208628S11656636EA0109601130000000000000
B0536183208693S11656611EA0109201126000004000000
B0536223208753S11656576EA0108901122000000000000
B0536263208807S11656532EA0108401117000004000000
B0536303208858S11656481EA0107801111000000000000
B0536343208907S11656428EA0107401107000000000000
B0536383208954S11656375EA0107201107000000000000
B0536423208996S11656321EA0107001104000000000000
B0536463209023S11656259EA0106601097000000000000
B0536503209019S11656184EA0105301082000000000000
B0536543208970S11656113EA0103601065000000000000
B0536583208883S11656087EA0102001053000004000000
B0537023208792S11656123EA0101601052000004000000
B0537063208725S11656202EA0101301048000004000000
B0537103208693S11656306EA0100801038000004000000
B0537143208690S11656418EA0099501027000004000000
B0537183208704S11656526EA0099201030000004000000
B0537223208725S11656626EA0099501031000004000000
B0537263208750S11656719EA0099601034000004000000
B0537303208776S11656804EA0100201041000000000000
B0537343208802S11656882EA0100501043000000000000
B0537383208827S11656955EA0100601044000000000000
B0537423208853S11657023EA0100401039000004000000
B0537463208880S11657095EA0099701031000000000000
B0537503208911S11657166EA0099101025000004000000
B0537543208944S11657233EA0098501020000000000000
B0537583208976S11657295EA0098101017000000000000
B0538023209006S11657351EA0097701012000000000000
B0538063209032S11657399EA0097001003000000000000
B0538103209071S11657449EA0094900978000000000000
B0538143209117S11657503EA0093400967000000000000
B0538183209156S11657563EA0093700977000004000000
B0538223209204S11657594EA0094200970000004000000
B0538263209254S11657577EA0092800958000004000000
B0538303209288S11657525EA0091800950000004000000
B0538343209295S11657462EA0091300948000004000000
B0538383209270S11657403EA0091200949000000000000
B0538423209219S11657367EA0091100948000000000000
B0538463209153S11657365EA0090600941000000000000
B0538503209085S11657394EA0089700929000000000000
B0538543209018S11657439EA0088500917000004000000
B0538583208950S11657490EA0087600904000004000000
B0539023208881S11657542EA0086100889000000000000
B0539063208808S11657585EA0085000880000000000000
B0539103208736S11657623EA0084700878000000000000
B0539143208671S11657666EA0084500877000000000000
B0539183208612S11657716EA0083900871000000000000
B0539223208556S11657770EA0082900860000000000000
B0539263208494S11657820EA0081800849000000000000
B0539303208426S11657857EA0081100843000000000000
B0539343208356S11657872EA0081000844000000000000
B0539383208292S11657862EA0080900843000000000000
B0539423208248S11657822EA0080700839000000000000
B0539463208225S11657767EA0080200833000000000000
B0539503208216S11657709EA0079600829000000000000
B0539543208218S11657650EA0079300826000000000000
B0539583208222S11657594EA0079100823000004000000
B0540023208226S11657538EA0078400817000004000000
B0540063208229S11657482EA0077700810000004000000
B0540103208231S11657424EA0077300806000000000000
B0540143208243S11657369EA0077000800000004000000
B0540183208270S11657320EA0076200792000000000000
B0540223208304S11657273EA0075400786000004000000
B0540263208344S11657231EA0074900781000000000000
B0540303208390S11657199EA0074700781000004000000
B0540343208437S11657178EA0074600781000000000000
B0540383208486S11657164EA0073900773000000000000
B0540423208539S11657163EA0073500767000000000000
B0540463208593S11657191EA0072900761000000000000
B0540503208646S11657234EA0072500753000004000000
B0540543208694S11657218EA0072100757000000000000
B0540583208675S11657173EA0071800747000000000000
B0541023208611S11657187EA0071000742000000000000
B0541063208560S11657256EA0070600735000000000000
B0541103208515S11657332EA0070000729000004000000
B0541143208478S11657413EA0070100733000000000000
B0541183208460S11657499EA0070600739000004000000
B0541223208472S11657585EA0070400736000004000000
B0541263208498S11657664EA0070300740000004000000
B0541303208533S11657728EA0071400749000004000000
B0541343208582S11657745EA0071200740000004000000
B0541383208625S11657715EA0069900726000004000000
B0541423208659S11657667EA0068900717000004000000
B0541463208689S11657610EA0067900706000000000000
B0541503208711S11657549EA0066900697000004000000
B0541543208681S11657494EA0066100691000004000000
B0541583208615S11657501EA0065400685000004000000
B0542023208571S11657572EA0065100681000004000000
B0542063208567S11657666EA0064200667000004000000
B0542103208526S11657748EA0062800665000000015000
B0542143208463S11657741EA0062900665000000015000
B0542183208460S11657681EA0062400657000000015000
B0542223208507S11657645EA0061600638000004015000
B0542263208573S11657658EA0060000625000004015000
B0542303208630S11657712EA0059000620000000015000
B0542343208677S11657781EA0058100612000000015000
B0542383208714S11657858EA0057500607000000015000
B0542423208740S11657944EA0056700596000000015000
B0542463208755S11658036EA0055500585000000000000
B0542503208751S11658135EA0055000576000000000000
B0542543208732S11658235EA0054700576000000000000
B0542583208704S11658333EA0055000582000000000000
B0543023208665S11658421EA0055400583000004000000
B0543063208610S11658496EA0054800571000004000000
B0543103208532S11658534EA0053300563000000000000
B0543143208452S11658533EA0052800559000000000000
B0543183208390S11658495EA0052200550000000000000
B0543223208370S11658425EA0051500539000000000000
B0543263208387S11658353EA0050900531000000000000
B0543303208434S11658300EA0050100525000000000000
B0543343208489S11658256EA0050100529000004000000
B0543383208489S11658191EA0050500533000000000000
B0543423208446S11658140EA0049700521000004000000
B0543463208383S11658108EA0048400507000000000000
B0543503208311S11658084EA0047500502000004000000
B0543543208234S11658061EA0047100497000000000000
B0543583208155S11658041EA0046400489000004000000
B0544023208075S11658021EA0045600480000004000000
B0544063207997S11658002EA0045000476000000000000
B0544103207918S11657985EA0044300462000000000000
B0544143207839S11657956EA0042500444000000000000
B0544183207763S11657910EA0041200433000000000000
B0544223207690S11657858EA0039900420000004000000
B0544263207619S11657803EA0039200418000004000000
B0544303207547S11657758EA0039700425000004000000
B0544343207479S11657718EA0039900425000004000000
B0544383207410S11657683EA0039900427000000000000
B0544423207341S11657653EA0039600423000004000000
B0544463207271S11657623EA0039100416000004000000
B0544503207200S11657590EA0038200403000000000000
B0544543207135S11657545EA0037000394000000000000
B0544583207073S11657497EA0036600393000000000000
B0545023207011S11657451EA0036800394000000000000
B0545063206948S11657410EA0036100384000000000000
B0545103206886S11657364EA0034800371000004000000
B0545143206830S11657307EA0033500357000000000000
B0545183206786S11657235EA0032700347000000000000
B0545223206754S11657156EA0031900342000000000000
B0545263206726S11657078EA0031600343000004000000
B0545303206693S11657007EA0032000348000004000000
B0545343206657S11656940EA0032300349000004000000
B0545383206617S11656878EA0031900344000000000000
B0545423206584S11656812EA0031000334000004000000
B0545463206579S11656739EA0030300327000000000000
B0545503206605S11656672EA0029700320000000000000
B0545543206650S11656624EA0029600321000000000000
B0545583206702S11656594EA0029600323000000000000
B0546023206760S11656591EA0029300317000000000000
B0546063206816S11656604EA0028300304000000000000
B0546103206873S11656622EA0026800290000004000000
B0546143206926S11656646EA0025300274000004000000
B0546183206979S11656678EA0023500255000000000000
B0546223207034S11656706EA0021900239000000000000
B0546263207087S11656739EA0020300224000000000000
B0546303207141S11656770EA0019300212000004000000
B0546343207190S11656800EA0018400206000000000000
B0546383207234S11656825EA0017900204000004000000
B0546423207271S11656847EA0017900204000004000000
B0546463207299S11656865EA0017900203000004000000
B0546503207320S11656877EA0017800203000004000000
B0546543207330S11656882EA0017800203000004000000
B0546583207336S11656883EA0017700203000004000000
B0547023207337S11656883EA0017700203000004000000
B0547063207336S11656883EA0017700203000000000000
B0547103207336S11656883EA0017800203000000000000
B0547143207336S11656883EA0017800203000000000000
B0547183207336S11656883EA0017800203000000000000
B0547223207336S11656883EA0017900203000000000000
