ACAM4N6
HFDTE091021
HFFXA050
HFPLTPILOT:JOHN WELSH              
HFGTYGLIDERTYPE:HORNET      
HFGIDGLIDERID:VH-GMY      
HFDTM100GPSDATUM:
HFRFWFIRMWAREVERSION:F2.6
HFRHWHARDWAREVERSION:300 Series Version 2
HFFTYFRTYPE:CAMBRIDGE AERO INSTRUMENTS, 302+
HFGPS:GARMIN,LVS-25,12,18000
HFPRSPRESSALTSENSOR:INTERSEMA, MS5534-AP, 20000
I033638FXA3941ENL4247REX
LCAMSBVER:5FWVER:F26300
C091021035202091021000102
C0000000N00000000WTAKEOFF     
C3207549S11656849EBEVAIR      
C3301432S11652383EWilliams    
C3220282S11752282ECorrigin    
C3207549S11656849EBEVAIR      
C0000000N00000000WLANDING     
B0418343207341S11656858EA0013700204000004000000
B0418363207341S11656858EA0013800204000004000000
B0418383207341S11656858EA0013700204000000000000
B0418403207341S11656858EA0013700204000004000000
B0418423207341S11656858EA0013700205000004000000
B0418443207341S11656858EA0013700205000000000000
B0418463207341S11656858EA0013700205000000000000
B0418483207341S11656858EA0013700205000000000000
B0418503207341S11656858EA0013700205000000000000
B0418523207341S11656858EA0013700204000000000000
B0418543207341S11656858EA0013700204000000000000
B0418563207341S11656858EA0013700204000000000000
B0418583207341S11656858EA0013700204000000000000
B0419003207341S11656858EA0013700204000000000000
B0419023207343S11656860EA0013700204000000000000
B0419053207352S11656869EA0013700205000000000000
B0419093207378S11656891EA0013800204000000000000
B0419133207420S11656918EA0013900205000004000000
B0419173207473S11656952EA0014200207000004000000
B0419213207533S11656988EA0015100218000004000000
B0419253207593S11657030EA0016300225000004000000
B0419293207654S11657068EA0017000234000000015000
B0419333207715S11657100EA0018800251000000015000
B0419373207776S11657129EA0020900275000000015000
B0419413207833S11657155EA0023700305000000015000
B0419453207891S11657185EA0025600323000000015000
B0419493207945S11657221EA0027000339000000015000
B0419533207980S11657280EA0028500358000000015000
B0419573207987S11657358EA0029800367000000015000
B0420013207970S11657438EA0031000382000000015000
B0420053207932S11657512EA0032700403000000015000
B0420093207887S11657586EA0034900421000004000000
B0420133207844S11657663EA0036100434000004000000
B0420173207788S11657732EA0037700451000000000000
B0420213207707S11657763EA0039400469000000015000
B0420253207619S11657758EA0041300485000004015000
B0420293207536S11657723EA0043100505000004015000
B0420333207460S11657670EA0045000526000004015000
B0420373207389S11657610EA0047500553000004000000
B0420413207338S11657529EA0050100576000004015000
B0420453207321S11657433EA0051900594000004015000
B0420493207338S11657345EA0053600607000000015000
B0420533207372S11657264EA0054800618000004015000
B0420573207407S11657182EA0055800632000004015000
B0421013207443S11657104EA0057100645000000015000
B0421053207484S11657029EA0058700660000004015000
B0421093207521S11656953EA0060200675000004015000
B0421133207555S11656877EA0062000692000000015000
B0421173207593S11656800EA0064100711000000015000
B0421213207633S11656724EA0066000731000004015000
B0421253207671S11656646EA0068400755000004000000
B0421293207680S11656567EA0070200766000000015000
B0421333207636S11656513EA0070600768000004015000
B0421373207575S11656516EA0070200757000000015000
B0421413207538S11656567EA0068500745000000015000
B0421453207544S11656627EA0067700740000000015000
B0421493207577S11656669EA0067800738000000015000
B0421533207623S11656693EA0067700740000000015000
B0421573207674S11656687EA0068000742000000015000
B0422013207711S11656635EA0068100742000000015000
B0422053207696S11656563EA0068200743000000030000
B0422093207633S11656544EA0068000743000004030000
B0422133207593S11656588EA0068000743000000015000
B0422173207601S11656645EA0067500739000000015000
B0422213207644S11656674EA0067800741000004015000
B0422253207693S11656678EA0067800741000004015000
B0422293207748S11656674EA0067300737000004015000
B0422333207802S11656665EA0066900735000000015000
B0422373207857S11656659EA0066600733000000015000
B0422413207910S11656659EA0066500733000004030000
B0422453207961S11656661EA0066400730000004015000
B0422493208010S11656661EA0065700724000004015000
B0422533208061S11656658EA0065000717000000015000
B0422573208113S11656656EA0064300713000000015000
B0423013208165S11656657EA0063100701000000030000
B0423053208218S11656659EA0061800694000000030000
B0423093208270S11656658EA0061600694000000015000
B0423133208321S11656670EA0061800693000004015000
B0423173208368S11656688EA0062200699000000015000
B0423213208411S11656659EA0063200704000000015000
B0423253208408S11656589EA0063500700000004030000
B0423293208353S11656546EA0063000696000004030000
B0423333208290S11656562EA0062600688000000015000
B0423373208256S11656619EA0061700682000000015000
B0423413208266S11656675EA0061600687000004015000
B0423453208312S11656693EA0062000688000004015000
B0423493208363S11656704EA0062500692000000030000
B0423533208413S11656701EA0063400694000000030000
B0423573208421S11656639EA0064500700000004030000
B0424013208370S11656604EA0064700703000004030000
B0424053208320S11656627EA0065000708000004030000
B0424093208311S11656680EA0065300712000004015000
B0424133208347S11656700EA0066100719000004030000
B0424173208376S11656649EA0066500720000000030000
B0424213208351S11656585EA0066700724000000045000
B0424253208292S11656574EA0066400721000000030000
B0424293208257S11656620EA0066200727000000030000
B0424333208265S11656674EA0067100732000000030000
B0424373208308S11656666EA0068400738000004030000
B0424413208317S11656600EA0068700735000004045000
B0424453208269S11656548EA0068400737000004045000
B0424493208213S11656561EA0068400742000004030000
B0424533208196S11656614EA0069100750000000030000
B0424573208225S11656641EA0070400756000000030000
B0425013208256S11656598EA0071500760000000030000
B0425053208231S11656532EA0071400756000004030000
B0425093208170S11656516EA0070800757000004030000
B0425133208132S11656559EA0071100770000000030000
B0425173208155S11656594EA0072200778000000030000
B0425213208194S11656554EA0072800777000000030000
B0425253208169S11656480EA0072800784000000045000
B0425293208105S11656470EA0073500796000000030000
B0425333208083S11656520EA0074400803000000030000
B0425373208116S11656546EA0075200808000004030000
B0425413208156S11656509EA0075800812000004030000
B0425453208144S11656436EA0076700820000004045000
B0425493208091S11656402EA0077100826000000045000
B0425533208045S11656429EA0077400833000000030000
B0425573208056S11656475EA0077700838000000030000
B0426013208099S11656453EA0078500847000000030000
B0426053208091S11656380EA0079100855000000015000
B0426093208038S11656346EA0079500864000000015000
B0426133207989S11656370EA0079900861000000015000
B0426173207989S11656419EA0079700861000004015000
B0426213208035S11656427EA0079900865000000030000
B0426253208066S11656371EA0080900872000000030000
B0426293208035S11656302EA0081100872000000045000
B0426333207970S11656289EA0080800871000000060000
B0426373207931S11656334EA0081100880000000045000
B0426413207940S11656388EA0081500885000000030000
B0426453207978S11656423EA0081700888000000030000
B0426493208025S11656406EA0082200893000000045000
B0426533208047S11656336EA0083000896000000045000
B0426573208001S11656279EA0082800894000000030000
B0427013207940S11656285EA0082400892000000030000
B0427053207914S11656334EA0082400894000000015000
B0427093207923S11656386EA0083000899000000015000
B0427133207957S11656422EA0083000897000000015000
B0427173207999S11656451EA0082400888000000015000
B0427213208044S11656481EA0081900883000000015000
B0427253208093S11656514EA0081100874000000015000
B0427293208136S11656484EA0081100877000004015000
B0427333208113S11656419EA0081000876000004015000
B0427373208047S11656392EA0079800864000000015000
B0427413207974S11656375EA0078500851000000000000
B0427453207898S11656353EA0077900850000000000000
B0427493207826S11656328EA0078300855000000000000
B0427533207755S11656297EA0079000862000000000000
B0427573207688S11656292EA0080000871000000000000
B0428013207666S11656342EA0080200867000000000000
B0428053207701S11656371EA0079200861000000015000
B0428093207744S11656334EA0079000863000000015000
B0428133207752S11656260EA0079400868000004015000
B0428173207715S11656194EA0080300877000000015000
B0428213207654S11656197EA0081000879000000015000
B0428253207633S11656247EA0080900875000004015000
B0428293207666S11656281EA0079900871000004015000
B0428333207714S11656253EA0079700875000000015000
B0428373207736S11656186EA0080600883000004015000
B0428413207709S11656115EA0081200885000000015000
B0428453207642S11656093EA0081400883000000015000
B0428493207593S11656130EA0081400883000000015000
B0428533207597S11656184EA0081800889000000015000
B0428573207636S11656191EA0082400892000000015000
B0429013207672S11656147EA0082700896000004015000
B0429053207650S11656072EA0083000899000000030000
B0429093207585S11656046EA0083000897000000030000
B0429133207533S11656084EA0083000896000000030000
B0429173207534S11656138EA0083300899000000045000
B0429213207572S11656159EA0083100899000000045000
B0429253207619S11656124EA0082900897000000030000
B0429293207657S11656060EA0082600891000000030000
B0429333207688S11655983EA0082400892000000030000
B0429373207715S11655903EA0082000882000000030000
B0429413207736S11655816EA0080400865000000030000
B0429453207761S11655729EA0079200860000000015000
B0429493207787S11655643EA0078600854000000015000
B0429533207815S11655562EA0077900846000000015000
B0429573207849S11655486EA0078200855000000015000
B0430013207883S11655414EA0078800857000000015000
B0430053207918S11655343EA0078900858000000015000
B0430093207960S11655275EA0078400854000000015000
B0430133208018S11655228EA0077700851000000015000
B0430173208082S11655198EA0077800851000000015000
B0430213208148S11655188EA0077700851000000015000
B0430253208216S11655194EA0077900854000004015000
B0430293208282S11655206EA0078600859000004015000
B0430333208321S11655153EA0079800868000004015000
B0430373208287S11655090EA0079900867000000015000
B0430413208225S11655080EA0079600865000000015000
B0430453208175S11655120EA0079200860000000015000
B0430493208158S11655185EA0078900858000000015000
B0430533208177S11655248EA0078900860000000015000
B0430573208209S11655304EA0079200865000000015000
B0431013208256S11655292EA0080100870000000015000
B0431053208251S11655223EA0080100869000004015000
B0431093208197S11655187EA0079400859000004015000
B0431133208138S11655209EA0078700858000000015000
B0431173208097S11655258EA0078900857000004015000
B0431213208109S11655317EA0079100858000000015000
B0431253208153S11655354EA0079000857000000015000
B0431293208207S11655385EA0078000850000000015000
B0431333208264S11655415EA0077500844000004015000
B0431373208321S11655447EA0076900836000000015000
B0431413208381S11655475EA0076000830000000015000
B0431453208430S11655522EA0074700814000004015000
B0431493208460S11655591EA0073700805000004015000
B0431533208470S11655669EA0072700797000000015000
B0431573208472S11655751EA0071700785000000015000
B0432013208467S11655835EA0070400774000000000000
B0432053208455S11655918EA0069800770000004000000
B0432093208435S11655998EA0069900774000004000000
B0432133208409S11656071EA0070200776000004000000
B0432173208378S11656138EA0070000771000000000000
B0432213208346S11656204EA0069700771000000000000
B0432253208344S11656272EA0070500777000004000000
B0432293208385S11656273EA0071400780000004015000
B0432333208378S11656207EA0071300780000000030000
B0432373208317S11656186EA0071800791000000045000
B0432413208287S11656236EA0072700796000004045000
B0432453208320S11656266EA0072400787000000045000
B0432493208348S11656215EA0071900789000000045000
B0432533208309S11656152EA0072000790000000045000
B0432573208244S11656141EA0072400796000000030000
B0433013208192S11656178EA0072900802000000030000
B0433053208184S11656234EA0073500808000000030000
B0433093208223S11656253EA0073700813000000030000
B0433133208246S11656204EA0074100819000000030000
B0433173208210S11656152EA0074600819000000030000
B0433213208148S11656154EA0074900821000000015000
B0433253208112S11656202EA0074900821000000015000
B0433293208118S11656255EA0075300825000000015000
B0433333208158S11656263EA0075700827000000015000
B0433373208179S11656210EA0076000833000000015000
B0433413208140S11656156EA0076700840000004015000
B0433453208082S11656162EA0077400849000004015000
B0433493208064S11656212EA0077800851000004015000
B0433533208096S11656242EA0077600848000000015000
B0433573208132S11656211EA0077800851000000015000
B0434013208125S11656149EA0079000860000000015000
B0434053208079S11656102EA0079600866000000015000
B0434093208022S11656117EA0079900867000004015000
B0434133208012S11656178EA0079800868000004015000
B0434173208051S11656202EA0080300874000004015000
B0434213208084S11656162EA0081100880000004015000
B0434253208070S11656097EA0081900889000004015000
B0434293208014S11656063EA0082200888000000015000
B0434333207953S11656090EA0081500883000000015000
B0434373207926S11656152EA0081700886000004015000
B0434413207944S11656207EA0082000889000004015000
B0434453207988S11656211EA0082400893000004015000
B0434493208017S11656159EA0082900898000004015000
B0434533207996S11656091EA0083800911000004015000
B0434573207940S11656052EA0084400910000000015000
B0435013207876S11656071EA0083700903000004015000
B0435053207835S11656129EA0083300904000004015000
B0435093207828S11656203EA0082500898000000015000
B0435133207839S11656285EA0080800890000000015000
B0435173207865S11656371EA0080000884000000015000
B0435213207892S11656458EA0079600878000000015000
B0435253207917S11656546EA0079300878000000015000
B0435293207932S11656635EA0080000884000004015000
B0435333207945S11656723EA0080400884000004015000
B0435373207961S11656812EA0080600882000004015000
B0435413207976S11656896EA0080800887000004015000
B0435453207993S11656983EA0080000862000004015000
B0435493208013S11657081EA0077500834000004015000
B0435533208045S11657176EA0076300829000000015000
B0435573208105S11657224EA0078400854000004030000
B0436013208157S11657196EA0081900875000004030000
B0436053208153S11657130EA0084800903000000030000
B0436093208091S11657111EA0085200906000000015000
B0436133208036S11657146EA0085500921000000015000
B0436173208017S11657205EA0086700932000000015000
B0436213208028S11657260EA0087500937000000015000
B0436253208066S11657293EA0087800940000000015000
B0436293208114S11657290EA0087900941000000015000
B0436333208161S11657255EA0088100946000000015000
B0436373208184S11657191EA0088800961000000015000
B0436413208178S11657116EA0090200972000004015000
B0436453208143S11657051EA0091000982000000000000
B0436493208080S11657016EA0092300993000000000000
B0436533208018S11657026EA0093501006000000000000
B0436573207982S11657069EA0094901017000000000000
B0437013207989S11657117EA0095701020000004015000
B0437053208028S11657135EA0096101023000004015000
B0437093208073S11657118EA0096601026000004015000
B0437133208112S11657077EA0096601028000004000000
B0437173208139S11657018EA0096501027000004000000
B0437213208144S11656943EA0096601030000000000000
B0437253208114S11656869EA0097201040000004000000
B0437293208054S11656825EA0098101044000004000000
B0437333207986S11656830EA0098201048000000000000
B0437373207936S11656873EA0098901055000000000000
B0437413207918S11656931EA0099701063000000000000
B0437453207954S11656961EA0100501071000000015000
B0437493208000S11656939EA0101801078000000015000
B0437533208028S11656883EA0102801091000000015000
B0437573208025S11656812EA0103801098000000015000
B0438013207984S11656747EA0104101100000000015000
B0438053207917S11656726EA0104201099000000015000
B0438093207852S11656756EA0103901100000000015000
B0438133207830S11656817EA0104501108000000015000
B0438173207870S11656843EA0105401113000000015000
B0438213207908S11656795EA0106001120000000015000
B0438253207874S11656726EA0106401123000000015000
B0438293207804S11656728EA0106301125000000015000
B0438333207775S11656787EA0106901135000000015000
B0438373207814S11656812EA0107701139000000030000
B0438413207844S11656763EA0108601147000000030000
B0438453207813S11656698EA0109501155000000030000
B0438493207752S11656680EA0110001161000000030000
B0438533207709S11656717EA0110501167000004015000
B0438573207707S11656767EA0110801166000000015000
B0439013207745S11656786EA0111201169000000015000
B0439053207771S11656737EA0112101177000000015000
B0439093207744S11656674EA0112701185000000015000
B0439133207683S11656649EA0113401194000000015000
B0439173207627S11656671EA0113801198000004015000
B0439213207607S11656723EA0113801196000004015000
B0439253207648S11656744EA0113701196000004015000
B0439293207680S11656689EA0114001205000000015000
B0439333207649S11656626EA0115201222000000015000
B0439373207586S11656615EA0116201225000000015000
B0439413207549S11656658EA0116301224000000015000
B0439453207560S11656709EA0116101223000000015000
B0439493207598S11656741EA0116201225000004015000
B0439533207645S11656749EA0117001234000004015000
B0439573207658S11656687EA0117901245000000015000
B0440013207609S11656641EA0119201259000000015000
B0440053207555S11656661EA0120101263000004015000
B0440093207549S11656719EA0120301265000000015000
B0440133207580S11656757EA0120601267000000015000
B0440173207624S11656744EA0121301273000000015000
B0440213207648S11656684EA0122201279000000015000
B0440253207631S11656613EA0123301288000000015000
B0440293207572S11656574EA0124201299000000015000
B0440333207508S11656591EA0124801307000000015000
B0440373207477S11656646EA0125601314000000015000
B0440413207488S11656704EA0125901317000000015000
B0440453207523S11656744EA0126401320000000000000
B0440493207568S11656728EA0127701330000000015000
B0440533207580S11656663EA0128801340000000015000
B0440573207544S11656602EA0129901357000000015000
B0441013207482S11656588EA0131301371000000015000
B0441053207433S11656623EA0132201378000004015000
B0441093207425S11656683EA0132801384000000015000
B0441133207459S11656708EA0133501390000000015000
B0441173207501S11656676EA0134201396000000015000
B0441213207518S11656613EA0135101406000000015000
B0441253207497S11656542EA0136101419000000015000
B0441293207437S11656503EA0136701429000000015000
B0441333207372S11656515EA0137501437000000015000
B0441373207336S11656568EA0138001446000000015000
B0441413207339S11656626EA0138701450000000015000
B0441453207380S11656648EA0139301455000000015000
B0441493207421S11656624EA0140401462000000015000
B0441533207445S11656567EA0141501474000000015000
B0441573207430S11656498EA0142701488000004015000
B0442013207377S11656453EA0143401494000004015000
B0442053207310S11656459EA0143801500000000015000
B0442093207259S11656506EA0143901500000000000000
B0442133207260S11656570EA0144401508000000000000
B0442173207303S11656598EA0144801510000000015000
B0442213207354S11656591EA0145601519000000015000
B0442253207380S11656529EA0147001536000000015000
B0442293207358S11656462EA0148501547000000015000
B0442333207299S11656423EA0149001556000000015000
B0442373207238S11656433EA0150201567000000015000
B0442413207194S11656477EA0150701572000004000000
B0442453207187S11656535EA0151401581000000000000
B0442493207219S11656566EA0152201586000000000000
B0442533207261S11656553EA0152901591000000015000
B0442573207287S11656501EA0153701598000000015000
B0443013207271S11656436EA0155001611000004015000
B0443053207217S11656398EA0155701618000004015000
B0443093207157S11656405EA0156501627000004015000
B0443133207109S11656444EA0157001632000004000000
B0443173207099S11656500EA0157501638000004000000
B0443213207135S11656527EA0157801644000004000000
B0443253207177S11656502EA0158501650000004015000
B0443293207199S11656448EA0159501660000004015000
B0443333207191S11656381EA0160301665000004000000
B0443373207150S11656324EA0160801671000000000000
B0443413207091S11656289EA0161001672000000000000
B0443453207026S11656271EA0161001673000000000000
B0443493206969S11656292EA0161701684000000000000
B0443533206948S11656342EA0161901681000000000000
B0443573206972S11656388EA0161101678000000000000
B0444013207012S11656412EA0161501687000000000000
B0444053207059S11656423EA0161901687000000000000
B0444093207111S11656427EA0161901688000000000000
B0444133207168S11656425EA0162201691000000000000
B0444173207222S11656440EA0163101702000000000000
B0444213207272S11656467EA0164001706000004000000
B0444253207325S11656490EA0164201708000004000000
B0444293207384S11656505EA0164501713000004000000
B0444333207445S11656514EA0164701711000004000000
B0444373207511S11656520EA0163401689000004000000
B0444413207588S11656523EA0160901664000004000000
B0444453207675S11656523EA0158501642000004000000
B0444493207767S11656523EA0156501623000004000000
B0444533207862S11656523EA0155401612000004000000
B0444573207957S11656523EA0155101609000004000000
B0445013208048S11656523EA0154801607000000000000
B0445053208138S11656522EA0154501601000004000000
B0445093208226S11656519EA0153401591000004000000
B0445133208314S11656515EA0152501583000000000000
B0445173208400S11656514EA0152101580000000000000
B0445213208485S11656513EA0151701574000000000000
B0445253208568S11656511EA0150801565000000000000
B0445293208651S11656505EA0150001558000000000000
B0445333208732S11656500EA0149301552000000000000
B0445373208812S11656494EA0148601545000000000000
B0445413208890S11656488EA0148301544000004000000
B0445453208963S11656480EA0148301545000000000000
B0445493209035S11656468EA0148201544000000000000
B0445533209102S11656455EA0148301546000000000000
B0445573209169S11656448EA0148301545000000000000
B0446013209232S11656440EA0148001543000000000000
B0446053209297S11656436EA0147801539000004000000
B0446093209365S11656431EA0147001531000000000000
B0446133209435S11656427EA0146501526000000000000
B0446173209503S11656423EA0147101537000000000000
B0446213209569S11656419EA0147501538000000000000
B0446253209637S11656416EA0147301532000000000000
B0446293209705S11656418EA0147101538000004000000
B0446333209772S11656423EA0147601538000000000000
B0446373209842S11656425EA0146901528000000000000
B0446413209913S11656435EA0146701532000004000000
B0446453209978S11656441EA0147501536000004000000
B0446493210046S11656448EA0146801523000004000000
B0446533210119S11656454EA0145801516000004000000
B0446573210193S11656459EA0145001508000000000000
B0447013210266S11656462EA0144401503000000000000
B0447053210339S11656466EA0144001499000000000000
B0447093210407S11656474EA0143701495000000000000
B0447133210476S11656480EA0143201492000000000000
B0447173210545S11656483EA0142701485000004000000
B0447213210614S11656487EA0141901479000000000000
B0447253210683S11656492EA0141001466000000000000
B0447293210753S11656494EA0140001458000000000000
B0447333210821S11656489EA0139001449000000000000
B0447373210888S11656484EA0138101439000004000000
B0447413210957S11656483EA0137301433000004000000
B0447453211022S11656483EA0137101432000004000000
B0447493211086S11656481EA0136701427000000000000
B0447533211148S11656492EA0136201421000000000000
B0447573211208S11656510EA0135301411000000000000
B0448013211268S11656529EA0134501405000004000000
B0448053211328S11656550EA0134101402000004000000
B0448093211386S11656570EA0133401394000004000000
B0448133211447S11656587EA0132701389000004000000
B0448173211509S11656598EA0132501389000004000000
B0448213211567S11656607EA0133201400000000000000
B0448253211624S11656617EA0134201407000000000000
B0448293211681S11656627EA0134301404000000000000
B0448333211744S11656635EA0133401394000000000000
B0448373211808S11656645EA0133001391000000000000
B0448413211873S11656656EA0132701388000000000000
B0448453211938S11656669EA0132201382000000000000
B0448493212004S11656671EA0131601375000000000000
B0448533212070S11656671EA0130601363000000000000
B0448573212136S11656671EA0129601358000000000000
B0449013212203S11656672EA0129501355000000000000
B0449053212266S11656675EA0128701345000000000000
B0449093212331S11656680EA0127801338000000000000
B0449133212396S11656679EA0126701323000000000000
B0449173212464S11656670EA0125101311000004000000
B0449213212532S11656663EA0124301303000004000000
B0449253212602S11656659EA0123501295000000000000
B0449293212671S11656658EA0122801289000000000000
B0449333212737S11656658EA0122401287000000000000
B0449373212803S11656662EA0121801279000004000000
B0449413212871S11656666EA0121101274000004000000
B0449453212939S11656667EA0120901272000000000000
B0449493213005S11656669EA0120701268000000000000
B0449533213072S11656675EA0119901258000000000000
B0449573213139S11656679EA0119201254000000000000
B0450013213205S11656665EA0119001256000000000000
B0450053213267S11656649EA0119201259000000000000
B0450093213331S11656636EA0119201256000000000000
B0450133213396S11656630EA0118801248000000000000
B0450173213464S11656632EA0118101242000000000000
B0450213213530S11656640EA0117701242000000000000
B0450253213596S11656643EA0117901244000000000000
B0450293213660S11656628EA0118501250000000000000
B0450333213716S11656585EA0118501245000004000000
B0450373213776S11656548EA0117201231000004000000
B0450413213841S11656516EA0116401226000000000000
B0450453213908S11656490EA0115701215000000000000
B0450493213977S11656459EA0114401203000000000000
B0450533214047S11656423EA0113701199000000000000
B0450573214115S11656385EA0113201192000000000000
B0451013214181S11656344EA0113201194000000000000
B0451053214248S11656318EA0113401198000000000000
B0451093214313S11656293EA0113301197000004000000
B0451133214378S11656266EA0113201192000004000000
B0451173214444S11656236EA0111901180000004000000
B0451213214513S11656198EA0110701164000000000000
B0451253214579S11656145EA0109301153000000000000
B0451293214643S11656089EA0108401144000000000000
B0451333214708S11656034EA0107201133000000000000
B0451373214774S11655980EA0106201121000004000000
B0451413214844S11655934EA0104901110000004000000
B0451453214915S11655890EA0104501109000004000000
B0451493214980S11655844EA0104501109000000000000
B0451533215041S11655800EA0104201105000004000000
B0451573215103S11655756EA0103601095000004000000
B0452013215165S11655710EA0102401083000004000000
B0452053215228S11655666EA0101301076000004000000
B0452093215289S11655622EA0100501067000000000000
B0452133215350S11655578EA0099901063000000000000
B0452173215407S11655532EA0099301055000000000000
B0452213215464S11655487EA0098301046000000000000
B0452253215526S11655447EA0097501038000004000000
B0452293215588S11655411EA0096901032000004000000
B0452333215653S11655391EA0096301028000000000000
B0452373215719S11655383EA0095901025000000000000
B0452413215784S11655389EA0095501019000000000000
B0452453215848S11655408EA0095101015000000000000
B0452493215912S11655432EA0094701006000000000000
B0452533215975S11655461EA0093200992000000000000
B0452573216036S11655496EA0091900981000000000000
B0453013216096S11655536EA0090800969000000000000
B0453053216153S11655582EA0089600958000000000000
B0453093216208S11655632EA0088800950000000000000
B0453133216260S11655684EA0088000942000000000000
B0453173216309S11655738EA0087400935000000000000
B0453213216356S11655796EA0086400925000000000000
B0453253216403S11655856EA0085700919000000000000
B0453293216449S11655916EA0085300918000000000000
B0453333216493S11655977EA0085300917000000000000
B0453373216534S11656039EA0084900913000000000000
B0453413216573S11656104EA0084600910000000000000
B0453453216614S11656168EA0084300904000000000000
B0453493216653S11656233EA0083600898000004000000
B0453533216694S11656298EA0082900890000004000000
B0453573216735S11656363EA0082100883000004000000
B0454013216776S11656428EA0081500877000004000000
B0454053216816S11656493EA0081000872000004000000
B0454093216855S11656557EA0080700872000000000000
B0454133216892S11656619EA0080700870000000000000
B0454173216926S11656683EA0080500871000000000000
B0454213216965S11656740EA0080700871000004000000
B0454253217014S11656783EA0080600870000004000000
B0454293217067S11656812EA0080900876000000000000
B0454333217119S11656832EA0081100874000004000000
B0454373217174S11656845EA0080000862000004000000
B0454413217230S11656867EA0078900851000000000000
B0454453217282S11656904EA0078100842000000000000
B0454493217325S11656953EA0077100833000000000000
B0454533217364S11657012EA0076000820000000000000
B0454573217401S11657074EA0074600805000000000000
B0455013217439S11657139EA0073300795000000000000
B0455053217476S11657204EA0072500788000004000000
B0455093217513S11657269EA0071700780000004000000
B0455133217550S11657334EA0070700768000000000000
B0455173217586S11657402EA0069700756000000000000
B0455213217622S11657471EA0068500744000004000000
B0455253217660S11657538EA0067600739000004000000
B0455293217700S11657605EA0067300736000004000000
B0455333217747S11657660EA0066600728000000000000
B0455373217799S11657711EA0065800719000004000000
B0455413217855S11657754EA0065300717000004000000
B0455453217911S11657792EA0065500719000000000000
B0455493217970S11657818EA0065600721000000000000
B0455533218027S11657840EA0065700721000000000000
B0455573218083S11657862EA0065400718000000000000
B0456013218140S11657880EA0065000714000000000000
B0456053218200S11657893EA0064600712000000000000
B0456093218261S11657900EA0064800716000000000000
B0456133218317S11657910EA0065900729000000000000
B0456173218361S11657884EA0066800735000000000000
B0456213218356S11657818EA0067000732000004000000
B0456253218297S11657784EA0066400725000000000000
B0456293218237S11657820EA0066000726000004000000
B0456333218211S11657888EA0066400730000000000000
B0456373218250S11657926EA0066800733000000015000
B0456413218275S11657870EA0066700730000000015000
B0456453218227S11657811EA0066700732000000015000
B0456493218155S11657820EA0067100739000000015000
B0456533218119S11657881EA0067800743000000015000
B0456573218139S11657941EA0067800740000000015000
B0457013218191S11657950EA0067500742000004015000
B0457053218218S11657896EA0068500755000000015000
B0457093218185S11657837EA0068800755000004015000
B0457133218120S11657841EA0068600753000000015000
B0457173218107S11657906EA0068800758000004015000
B0457213218148S11657933EA0069300761000004015000
B0457253218180S11657888EA0069700763000004015000
B0457293218159S11657820EA0069800766000004015000
B0457333218098S11657794EA0069800767000004015000
B0457373218045S11657831EA0070100773000004015000
B0457413218050S11657889EA0070500775000004015000
B0457453218096S11657897EA0070900778000000015000
B0457493218114S11657841EA0071200777000000015000
B0457533218079S11657783EA0071000776000000015000
B0457573218014S11657777EA0070600774000000015000
B0458013217977S11657832EA0070900778000004015000
B0458053218005S11657875EA0071400783000000015000
B0458093218041S11657844EA0071800789000000015000
B0458133218022S11657781EA0071800787000000015000
B0458173217959S11657761EA0071800786000004015000
B0458213217907S11657802EA0071600783000000015000
B0458253217895S11657874EA0071300777000000015000
B0458293217931S11657928EA0070700771000000015000
B0458333217989S11657935EA0070600777000000015000
B0458373218009S11657879EA0072100796000000015000
B0458413217963S11657840EA0073200800000004015000
B0458453217907S11657867EA0073100798000004015000
B0458493217899S11657928EA0073500803000004015000
B0458533217944S11657946EA0073700804000000015000
B0458573217970S11657894EA0073900808000000015000
B0459013217929S11657840EA0074200810000000015000
B0459053217867S11657858EA0074500813000000015000
B0459093217856S11657926EA0075100818000000015000
B0459133217898S11657959EA0075900825000000015000
B0459173217942S11657933EA0076300830000000015000
B0459213217944S11657868EA0076600834000000015000
B0459253217890S11657826EA0076800831000000015000
B0459293217824S11657845EA0076300829000004015000
B0459333217785S11657913EA0076300832000004000000
B0459373217808S11657970EA0077300843000004015000
B0459413217847S11657945EA0078500854000004015000
B0459453217825S11657885EA0079100857000004015000
B0459493217763S11657884EA0079600862000004015000
B0459533217734S11657943EA0079900864000000015000
B0459573217764S11657989EA0080400869000004015000
B0500013217807S11657975EA0080700869000004015000
B0500053217817S11657915EA0081000875000000015000
B0500093217781S11657866EA0081900884000000015000
B0500133217723S11657865EA0082500890000000015000
B0500173217682S11657914EA0082800892000000000000
B0500213217687S11657976EA0083000894000000015000
B0500253217728S11658008EA0083600901000000015000
B0500293217769S11657984EA0083900899000000015000
B0500333217780S11657922EA0083900902000000015000
B0500373217750S11657861EA0084200905000000015000
B0500413217690S11657837EA0084300907000000015000
B0500453217632S11657867EA0084500909000000000000
B0500493217603S11657933EA0084600911000004000000
B0500533217609S11658000EA0085200920000000000000
B0500573217652S11658019EA0086300932000000015000
B0501013217672S11657971EA0087300938000004015000
B0501053217635S11657922EA0087600942000004015000
B0501093217581S11657937EA0088000945000004015000
B0501133217561S11657995EA0088200948000004015000
B0501173217594S11658032EA0088700951000004015000
B0501213217633S11658000EA0089100954000000015000
B0501253217615S11657935EA0089200958000000015000
B0501293217556S11657914EA0089700963000000015000
B0501333217509S11657961EA0089900963000004015000
B0501373217516S11658027EA0090300974000004015000
B0501413217561S11658044EA0091700984000000015000
B0501453217590S11657997EA0092400987000000015000
B0501493217564S11657936EA0092200987000000015000
B0501533217504S11657911EA0092700994000004000000
B0501573217444S11657935EA0093200997000000000000
B0502013217416S11657997EA0093501001000000000000
B0502053217439S11658049EA0094001006000000000000
B0502093217485S11658058EA0094301007000000000000
B0502133217503S11658006EA0095001012000000000000
B0502173217452S11657976EA0095601018000000000000
B0502213217407S11658019EA0096101025000000000000
B0502253217424S11658073EA0096701029000000000000
B0502293217469S11658061EA0097101035000000015000
B0502333217470S11658004EA0097601038000000015000
B0502373217421S11657967EA0097701035000000015000
B0502413217356S11657983EA0097201032000000000000
B0502453217333S11658052EA0097201036000000000000
B0502493217349S11658115EA0097801045000004000000
B0502533217390S11658091EA0098901052000004015000
B0502573217352S11658035EA0099401058000004015000
B0503013217297S11658061EA0100001061000004015000
B0503053217299S11658123EA0100101060000000000000
B0503093217344S11658144EA0100101064000000000000
B0503133217381S11658101EA0100501069000004015000
B0503173217368S11658039EA0100701069000000015000
B0503213217314S11658005EA0100801069000000000000
B0503253217253S11658028EA0100701071000004000000
B0503293217229S11658088EA0101401082000000000000
B0503333217239S11658148EA0102101084000004000000
B0503373217279S11658166EA0102401085000004000000
B0503413217287S11658109EA0102401085000004015000
B0503453217231S11658076EA0102401086000004015000
B0503493217177S11658106EA0102601091000000000000
B0503533217165S11658169EA0103101099000000000000
B0503573217193S11658199EA0104101105000000000000
B0504013217223S11658162EA0104401103000000000000
B0504053217199S11658104EA0104301103000000015000
B0504093217136S11658092EA0104101103000000000000
B0504133217084S11658136EA0104701112000000000000
B0504173217071S11658200EA0105801123000000000000
B0504213217096S11658244EA0106801128000000000000
B0504253217138S11658234EA0107401133000004000000
B0504293217148S11658173EA0107501133000004015000
B0504333217102S11658123EA0107501138000004015000
B0504373217040S11658138EA0107801141000000015000
B0504413217013S11658199EA0108201148000000000000
B0504453217035S11658249EA0109101157000000000000
B0504493217082S11658258EA0109901161000000000000
B0504533217118S11658216EA0109901162000000015000
B0504573217112S11658153EA0110101162000004015000
B0505013217060S11658118EA0109701158000004015000
B0505053217000S11658145EA0109301156000004000000
B0505093216983S11658205EA0109601166000004000000
B0505133217010S11658249EA0110601169000000000000
B0505173217054S11658268EA0110801170000000000000
B0505213217105S11658265EA0109901156000004000000
B0505253217164S11658266EA0108101140000000000000
B0505293217227S11658277EA0107101132000004000000
B0505333217294S11658288EA0106201124000000000000
B0505373217359S11658303EA0106201127000000000000
B0505413217421S11658320EA0106201126000000000000
B0505453217483S11658338EA0105801122000000000000
B0505493217546S11658353EA0105101114000000000000
B0505533217607S11658365EA0104801111000000000000
B0505573217667S11658381EA0104301108000000000000
B0506013217724S11658396EA0104001103000000000000
B0506053217781S11658412EA0103201095000000000000
B0506093217836S11658422EA0102701091000000000000
B0506133217890S11658433EA0102101083000000000000
B0506173217944S11658447EA0100301065000000000000
B0506213217999S11658461EA0098501045000000000000
B0506253218059S11658465EA0097301036000000000000
B0506293218118S11658461EA0096801031000000000000
B0506333218176S11658465EA0096601032000000000000
B0506373218233S11658479EA0097201042000000000000
B0506413218284S11658490EA0098901060000000000000
B0506453218317S11658446EA0100101066000000000000
B0506493218288S11658382EA0100401071000000000000
B0506533218224S11658374EA0101101078000000000000
B0506573218185S11658422EA0101301077000004000000
B0507013218192S11658485EA0101301080000004000000
B0507053218231S11658516EA0101801085000004000000
B0507093218276S11658494EA0102201085000000000000
B0507133218293S11658431EA0102101082000004015000
B0507173218257S11658369EA0101901084000000015000
B0507213218189S11658348EA0102301089000000000000
B0507253218133S11658375EA0102701089000000000000
B0507293218141S11658437EA0102801092000000000000
B0507333218181S11658420EA0103801104000000015000
B0507373218165S11658355EA0104301106000004015000
B0507413218105S11658344EA0105001113000004015000
B0507453218074S11658394EA0104901105000004000000
B0507493218107S11658440EA0104201105000004000000
B0507533218162S11658434EA0104501108000000000000
B0507573218219S11658421EA0103801098000004000000
B0508013218280S11658421EA0103001095000000000000
B0508053218341S11658424EA0102701090000000000000
B0508093218401S11658433EA0102601089000004000000
B0508133218460S11658450EA0102401089000004000000
B0508173218514S11658469EA0102301087000004000000
B0508213218569S11658489EA0101901081000000000000
B0508253218623S11658511EA0101301076000004000000
B0508293218677S11658534EA0100901071000000000000
B0508333218730S11658556EA0100001062000000000000
B0508373218786S11658572EA0098901050000000000000
B0508413218843S11658585EA0097901043000004000000
B0508453218899S11658598EA0097501040000004000000
B0508493218948S11658616EA0097801044000004000000
B0508533218997S11658637EA0097801044000004000000
B0508573219050S11658652EA0097301035000004000000
B0509013219104S11658669EA0097001038000004000000
B0509053219154S11658690EA0097501041000004000000
B0509093219199S11658719EA0097701043000004000000
B0509133219246S11658749EA0097701041000004000000
B0509173219296S11658778EA0097301037000004000000
B0509213219345S11658811EA0096901034000004000000
B0509253219392S11658846EA0097101035000000000000
B0509293219441S11658880EA0096801032000004000000
B0509333219493S11658910EA0096701030000004000000
B0509373219545S11658941EA0096501030000004000000
B0509413219595S11658983EA0096301024000004000000
B0509453219639S11659029EA0096201026000004000000
B0509493219680S11659077EA0095801018000004000000
B0509533219726S11659127EA0094701004000000000000
B0509573219777S11659168EA0093901000000000000000
B0510013219831S11659194EA0093600996000000000000
B0510053219888S11659214EA0092800986000000000000
B0510093219949S11659232EA0092000980000000000000
B0510133220014S11659241EA0091100971000000000000
B0510173220078S11659249EA0090400966000000000000
B0510213220143S11659256EA0089900962000000000000
B0510253220206S11659266EA0089400958000004000000
B0510293220264S11659288EA0089400960000000000000
B0510333220317S11659317EA0089900965000000000000
B0510373220371S11659347EA0089700960000000000000
B0510413220427S11659382EA0089100951000000000000
B0510453220482S11659419EA0088100939000000000000
B0510493220541S11659461EA0086800928000000000000
B0510533220599S11659501EA0086000922000000000000
B0510573220658S11659539EA0085400917000000000000
B0511013220715S11659574EA0084900913000000000000
B0511053220770S11659612EA0084900914000000000000
B0511093220819S11659653EA0084600908000000000000
B0511133220865S11659703EA0084000900000000000000
B0511173220913S11659748EA0083300893000000000000
B0511213220961S11659796EA0082500883000000000000
B0511253221004S11659851EA0081500873000000000000
B0511293221049S11659906EA0080800868000000000000
B0511333221097S11659954EA0080300864000000000000
B0511373221149S11659993EA0079900857000000000000
B0511413221205S11700025EA0078800848000004000000
B0511453221264S11700055EA0078000839000004000000
B0511493221324S11700088EA0076900829000004000000
B0511533221382S11700128EA0076100819000004000000
B0511573221435S11700173EA0075200812000004000000
B0512013221491S11700218EA0074400804000004000000
B0512053221547S11700259EA0073500795000004000000
B0512093221606S11700297EA0072700787000000000000
B0512133221660S11700338EA0072200783000000000000
B0512173221708S11700389EA0071500774000004000000
B0512213221756S11700441EA0070200757000004000000
B0512253221807S11700491EA0068900747000004000000
B0512293221860S11700531EA0068600748000004000000
B0512333221916S11700561EA0068400747000000000000
B0512373221971S11700589EA0068500750000000000000
B0512413222019S11700626EA0068500747000000000000
B0512453222071S11700656EA0068000743000004000000
B0512493222128S11700669EA0068500751000000000000
B0512533222145S11700611EA0070300772000000000000
B0512573222084S11700591EA0071500775000000000000
B0513013222049S11700653EA0071400775000000000000
B0513053222076S11700705EA0072200787000000000000
B0513093222119S11700689EA0073400798000004000000
B0513133222120S11700628EA0074400807000000000000
B0513173222061S11700597EA0075000810000000000000
B0513213222010S11700639EA0075800821000004000000
B0513253222014S11700701EA0076200822000004000000
B0513293222058S11700715EA0076900830000004000000
B0513333222078S11700662EA0077900842000004000000
B0513373222040S11700608EA0078900853000000000000
B0513413221979S11700617EA0080100863000000000000
B0513453221949S11700671EA0080500864000000000000
B0513493221979S11700715EA0081000876000000000000
B0513533222011S11700684EA0082000882000000000000
B0513573221980S11700624EA0082900895000000015000
B0514013221919S11700631EA0084400909000000000000
B0514053221896S11700691EA0084800908000000000000
B0514093221925S11700738EA0084900913000000000000
B0514133221970S11700714EA0085800921000004000000
B0514173221951S11700648EA0086800932000000015000
B0514213221885S11700641EA0088000943000000000000
B0514253221857S11700700EA0089600961000000000000
B0514293221884S11700740EA0090400964000000000000
B0514333221922S11700712EA0090400966000004000000
B0514373221909S11700643EA0091100979000004000000
B0514413221847S11700621EA0092600990000000000000
B0514453221806S11700671EA0093500998000004000000
B0514493221828S11700721EA0094301001000004000000
B0514533221870S11700696EA0094200999000004000000
B0514573221855S11700626EA0094401007000000000000
B0515013221790S11700604EA0095601021000000000000
B0515053221746S11700650EA0096301025000000000000
B0515093221763S11700706EA0096801031000000000000
B0515133221806S11700702EA0097201035000004000000
B0515173221821S11700641EA0097401036000000000000
B0515213221779S11700583EA0098201048000000000000
B0515253221715S11700593EA0098901049000000000000
B0515293221695S11700656EA0098901053000000000000
B0515333221732S11700692EA0099501059000000000000
B0515373221776S11700674EA0100101065000000000000
B0515413221797S11700609EA0100601072000000000000
B0515453221742S11700565EA0102001087000000000000
B0515493221695S11700606EA0103101094000004000000
B0515533221719S11700654EA0103601098000004000000
B0515573221767S11700631EA0103701097000000000000
B0516013221753S11700556EA0104801112000004000000
B0516053221682S11700548EA0105901122000004000000
B0516093221652S11700606EA0107001133000000000000
B0516133221682S11700649EA0107601137000000000000
B0516173221729S11700623EA0108101146000004000000
B0516213221729S11700553EA0109001155000004000000
B0516253221675S11700507EA0109901160000004000000
B0516293221611S11700536EA0110001161000004000000
B0516333221594S11700600EA0110601170000004000000
B0516373221621S11700648EA0111301174000000000000
B0516413221668S11700640EA0111901183000000000000
B0516453221668S11700574EA0112801188000000000000
B0516493221603S11700537EA0112301182000000000000
B0516533221546S11700579EA0113101197000000000000
B0516573221547S11700640EA0114401205000000000000
B0517013221584S11700676EA0114601205000000000000
B0517053221633S11700662EA0114701209000000000000
B0517093221642S11700593EA0115301216000000000000
B0517133221590S11700537EA0115801218000000000000
B0517173221519S11700541EA0116001222000000000000
B0517213221465S11700588EA0116301224000000000000
B0517253221443S11700657EA0116501229000004000000
B0517293221461S11700719EA0117601241000004000000
B0517333221508S11700704EA0119101257000004000000
B0517373221491S11700632EA0120001258000004015000
B0517413221421S11700605EA0120201264000004000000
B0517453221361S11700641EA0120801275000004000000
B0517493221355S11700706EA0122001285000004000000
B0517533221398S11700740EA0122601290000004000000
B0517573221438S11700700EA0123601306000000015000
B0518013221430S11700628EA0124801308000000015000
B0518053221369S11700588EA0125301315000000015000
B0518093221309S11700617EA0125801319000000000000
B0518133221311S11700676EA0126401327000004000000
B0518173221355S11700661EA0127801344000004015000
B0518213221335S11700595EA0129601359000004015000
B0518253221270S11700591EA0130201362000000015000
B0518293221240S11700648EA0130601368000000015000
B0518333221266S11700693EA0131101374000000015000
B0518373221311S11700669EA0132201382000004015000
B0518413221274S11700606EA0133601396000000015000
B0518453221214S11700634EA0134301406000000015000
B0518493221218S11700696EA0135401419000000000000
B0518533221264S11700712EA0136101421000000000000
B0518573221294S11700661EA0136801431000000015000
B0519013221265S11700597EA0137401430000000015000
B0519053221197S11700575EA0137301431000000000000
B0519093221127S11700600EA0137401436000000000000
B0519133221101S11700665EA0138601449000004000000
B0519173221136S11700701EA0139001445000004000000
B0519213221179S11700660EA0138401445000000000000
B0519253221177S11700589EA0140101466000004015000
B0519293221117S11700556EA0141301472000000015000
B0519333221058S11700589EA0141601475000000015000
B0519373221044S11700652EA0142401492000000000000
B0519413221077S11700687EA0143101485000000000000
B0519453221130S11700687EA0142001477000004000000
B0519493221188S11700695EA0141701474000000000000
B0519533221249S11700710EA0140901461000000000000
B0519573221317S11700727EA0139101445000004000000
B0520013221389S11700743EA0137701430000000000000
B0520053221457S11700760EA0136901432000004000000
B0520093221524S11700779EA0136501423000000000000
B0520133221590S11700805EA0135501414000004000000
B0520173221656S11700827EA0134501405000004000000
B0520213221717S11700848EA0135401422000000000000
B0520253221775S11700868EA0136501427000004000000
B0520293221834S11700883EA0137201434000000000000
B0520333221892S11700908EA0136901429000004000000
B0520373221950S11700936EA0136501428000004000000
B0520413222010S11700965EA0137001437000000000000
B0520453222066S11700992EA0137801441000000000000
B0520493222123S11701021EA0137301433000000000000
B0520533222183S11701051EA0137201437000000000000
B0520573222237S11701081EA0136801427000000000000
B0521013222296S11701112EA0135301412000000000000
B0521053222357S11701142EA0133901398000004000000
B0521093222416S11701178EA0133601401000004000000
B0521133222470S11701215EA0134001404000004000000
B0521173222527S11701247EA0133901401000000000000
B0521213222586S11701278EA0133901402000004000000
B0521253222642S11701313EA0133901402000004000000
B0521293222698S11701343EA0133901400000004000000
B0521333222754S11701376EA0134001405000004000000
B0521373222806S11701410EA0134001402000000000000
B0521413222863S11701429EA0134301408000000000000
B0521453222924S11701442EA0133801396000000000000
B0521493222986S11701454EA0132301382000004000000
B0521533223050S11701473EA0130901367000004000000
B0521573223116S11701492EA0129601356000000000000
B0522013223185S11701501EA0129101352000000000000
B0522053223255S11701507EA0128401344000000000000
B0522093223327S11701514EA0127801340000000000000
B0522133223394S11701523EA0127601340000000000000
B0522173223459S11701537EA0127601340000004000000
B0522213223522S11701547EA0127401338000004000000
B0522253223584S11701557EA0127001334000004000000
B0522293223648S11701564EA0127001336000004000000
B0522333223710S11701567EA0126601328000000000000
B0522373223774S11701572EA0125701320000000000000
B0522413223836S11701584EA0125201312000004000000
B0522453223898S11701589EA0124101302000000000000
B0522493223957S11701592EA0123101292000000000000
B0522533224017S11701599EA0121801278000000000000
B0522573224077S11701616EA0120501267000000000000
B0523013224138S11701635EA0121301282000000000000
B0523053224193S11701633EA0124001308000000000000
B0523093224195S11701572EA0125301312000000000000
B0523133224130S11701550EA0125001309000000000000
B0523173224078S11701601EA0125701326000000000000
B0523213224081S11701664EA0127601351000000000000
B0523253224125S11701676EA0129501357000000000000
B0523293224139S11701614EA0129901360000000000000
B0523333224089S11701559EA0130301366000000015000
B0523373224020S11701571EA0130901376000000000000
B0523413223986S11701631EA0132901400000000000000
B0523453224000S11701687EA0134601412000000000000
B0523493224044S11701689EA0135601418000000000000
B0523533224046S11701625EA0136501428000000015000
B0523573223983S11701593EA0136801427000000000000
B0524013223918S11701627EA0137501441000004000000
B0524053223909S11701689EA0138901451000000000000
B0524093223953S11701692EA0139701458000000000000
B0524133223946S11701629EA0141101476000000015000
B0524173223886S11701609EA0142101484000000000000
B0524213223843S11701657EA0142401482000000000000
B0524253223862S11701714EA0141901485000000000000
B0524293223909S11701739EA0143201499000000000000
B0524333223937S11701700EA0145201511000000015000
B0524373223895S11701653EA0146001513000000015000
B0524413223829S11701666EA0146301526000000000000
B0524453223794S11701718EA0148501552000000000000
B0524493223803S11701766EA0150001558000004000000
B0524533223840S11701772EA0150301568000004000000
B0524573223862S11701728EA0151501578000004000000
B0525013223836S11701671EA0152101584000004015000
B0525053223773S11701659EA0152701586000004015000
B0525093223723S11701709EA0153601603000004000000
B0525133223718S11701770EA0155501619000004000000
B0525173223747S11701804EA0156301626000004000000
B0525213223786S11701788EA0156501628000004000000
B0525253223796S11701731EA0156901631000000015000
B0525293223753S11701676EA0156801627000000015000
B0525333223680S11701663EA0157001635000000000000
B0525373223623S11701706EA0158201646000000000000
B0525413223618S11701775EA0159401657000000000000
B0525453223658S11701800EA0160201664000000000000
B0525493223687S11701753EA0160801668000004015000
B0525533223660S11701690EA0161301673000000015000
B0525573223588S11701675EA0161201668000004015000
B0526013223531S11701728EA0162001686000000000000
B0526053223528S11701791EA0163701699000000000000
B0526093223567S11701805EA0164401701000004000000
B0526133223592S11701753EA0164701703000004015000
B0526173223566S11701684EA0164801704000004015000
B0526213223496S11701661EA0164901709000004000000
B0526253223433S11701702EA0166001723000004000000
B0526293223420S11701767EA0167401736000004000000
B0526333223450S11701800EA0168501746000000000000
B0526373223484S11701776EA0169201750000000000000
B0526413223489S11701716EA0169201749000004015000
B0526453223440S11701671EA0169301749000000015000
B0526493223368S11701680EA0169501756000000000000
B0526533223311S11701727EA0170301765000000000000
B0526573223301S11701787EA0171401775000004000000
B0527013223335S11701797EA0172101779000004000000
B0527053223346S11701740EA0172101777000004015000
B0527093223298S11701680EA0172401784000004015000
B0527133223225S11701674EA0173101789000004015000
B0527173223171S11701720EA0173301788000004015000
B0527213223164S11701785EA0173301792000004000000
B0527253223197S11701820EA0173501790000004000000
B0527293223246S11701826EA0172401777000000000000
B0527333223307S11701822EA0171301764000000000000
B0527373223375S11701818EA0170401760000004000000
B0527413223441S11701815EA0170701764000004000000
B0527453223508S11701814EA0171201771000004000000
B0527493223573S11701810EA0171701777000004000000
B0527533223639S11701813EA0172201782000004000000
B0527573223708S11701827EA0172901790000000000000
B0528013223778S11701845EA0173201785000004000000
B0528053223853S11701867EA0172401780000000000000
B0528093223929S11701884EA0172501782000000000000
B0528133224004S11701905EA0172401782000000000000
B0528173224078S11701922EA0172201776000004000000
B0528213224158S11701937EA0171301767000004000000
B0528253224237S11701954EA0170401757000000000000
B0528293224320S11701973EA0169801756000000000000
B0528333224401S11701991EA0169601749000000000000
B0528373224483S11702006EA0169101739000000000000
B0528413224562S11702023EA0169401746000000000000
B0528453224635S11702040EA0169901751000000000000
B0528493224707S11702057EA0168901732000000000000
B0528533224787S11702070EA0167201723000000000000
B0528573224867S11702083EA0166201712000000000000
B0529013224949S11702097EA0165101703000004000000
B0529053225030S11702112EA0164601698000000000000
B0529093225109S11702125EA0163801689000004000000
B0529133225190S11702135EA0162901682000004000000
B0529173225268S11702143EA0162301677000004000000
B0529213225346S11702149EA0161801668000004000000
B0529253225422S11702156EA0160801660000004000000
B0529293225498S11702161EA0159901649000004000000
B0529333225573S11702165EA0158901639000004000000
B0529373225646S11702169EA0157901632000004000000
B0529413225716S11702170EA0157501628000000000000
B0529453225788S11702174EA0156701617000000000000
B0529493225862S11702181EA0155501607000000000000
B0529533225937S11702190EA0155001602000000000000
B0529573226011S11702201EA0154601598000004000000
B0530013226085S11702214EA0154301597000004000000
B0530053226158S11702229EA0154301598000000000000
B0530093226230S11702240EA0154201597000000000000
B0530133226300S11702253EA0154301597000000000000
B0530173226368S11702268EA0154001595000000000000
B0530213226434S11702283EA0154201599000000000000
B0530253226495S11702309EA0154801604000000000000
B0530293226555S11702331EA0155201610000000000000
B0530333226612S11702351EA0155401604000000000000
B0530373226676S11702372EA0154401593000000000000
B0530413226742S11702394EA0153801590000004000000
B0530453226807S11702411EA0154401601000004000000
B0530493226868S11702429EA0154801598000004000000
B0530533226936S11702450EA0154701600000004000000
B0530573227006S11702473EA0155001602000004000000
B0531013227075S11702498EA0154501593000000000000
B0531053227146S11702517EA0153401580000000000000
B0531093227219S11702534EA0151901567000000000000
B0531133227293S11702554EA0150801558000000000000
B0531173227367S11702571EA0149901546000000000000
B0531213227443S11702582EA0149001537000000000000
B0531253227519S11702590EA0148401537000000000000
B0531293227593S11702594EA0148401534000000000000
B0531333227666S11702595EA0147901529000000000000
B0531373227738S11702595EA0147501528000004000000
B0531413227808S11702590EA0147201523000004000000
B0531453227881S11702585EA0146401514000004000000
B0531493227954S11702577EA0145501506000000000000
B0531533228025S11702572EA0145301507000000000000
B0531573228097S11702567EA0144801498000000000000
B0532013228168S11702563EA0143801489000000000000
B0532053228241S11702556EA0143001479000000000000
B0532093228315S11702551EA0141501463000000000000
B0532133228394S11702545EA0140101448000000000000
B0532173228475S11702537EA0138701435000000000000
B0532213228558S11702529EA0137701428000004000000
B0532253228640S11702524EA0137001421000004000000
B0532293228721S11702517EA0136601417000004000000
B0532333228801S11702513EA0135801410000000000000
B0532373228882S11702509EA0135601409000000000000
B0532413228958S11702506EA0135401408000004000000
B0532453229035S11702503EA0134801397000000000000
B0532493229111S11702498EA0133801386000004000000
B0532533229185S11702494EA0132801383000004000000
B0532573229254S11702489EA0132601380000004000000
B0533013229317S11702482EA0132101374000004000000
B0533053229380S11702480EA0131401366000004000000
B0533093229443S11702477EA0130201352000004000000
B0533133229508S11702474EA0129001343000004000000
B0533173229572S11702472EA0128401335000000000000
B0533213229638S11702465EA0127201323000000000000
B0533253229707S11702460EA0126001310000000000000
B0533293229777S11702456EA0124501293000000000000
B0533333229849S11702450EA0122901278000000000000
B0533373229920S11702441EA0121501265000000000000
B0533413229995S11702434EA0120101248000004000000
B0533453230070S11702434EA0118201231000004000000
B0533493230147S11702426EA0116901218000000000000
B0533533230223S11702415EA0115501202000000000000
B0533573230299S11702396EA0114001190000000000000
B0534013230374S11702394EA0113101184000000000000
B0534053230444S11702402EA0112301176000000000000
B0534093230512S11702407EA0112301182000000000000
B0534133230573S11702409EA0112901185000000000000
B0534173230635S11702413EA0112501177000000000000
B0534213230698S11702407EA0111901175000004000000
B0534253230756S11702394EA0111901176000000000000
B0534293230812S11702385EA0111501170000000000000
B0534333230869S11702396EA0111201168000000000000
B0534373230927S11702395EA0112301181000004000000
B0534413230936S11702333EA0113701198000004015000
B0534453230886S11702304EA0114901205000000015000
B0534493230850S11702348EA0115101208000000015000
B0534533230873S11702399EA0116001221000004015000
B0534573230921S11702395EA0117001230000000015000
B0535013230945S11702338EA0117601238000000015000
B0535053230911S11702283EA0118801251000000015000
B0535093230858S11702298EA0119501254000004015000
B0535133230854S11702360EA0119701259000004015000
B0535173230898S11702387EA0120901273000004015000
B0535213230947S11702364EA0121801282000004015000
B0535253230966S11702301EA0123201299000004015000
B0535293230934S11702249EA0124801311000000015000
B0535333230880S11702255EA0126001318000004015000
B0535373230853S11702307EA0126901329000004015000
B0535413230875S11702356EA0128201340000004015000
B0535453230925S11702353EA0129101343000004015000
B0535493230945S11702292EA0130301359000004015000
B0535533230908S11702246EA0131601374000004015000
B0535573230854S11702259EA0132401378000004015000
B0536013230840S11702324EA0133201388000000015000
B0536053230881S11702364EA0134601404000000015000
B0536093230929S11702338EA0135901417000000015000
B0536133230932S11702273EA0137201427000000015000
B0536173230880S11702238EA0138301439000000015000
B0536213230830S11702275EA0139501450000004015000
B0536253230833S11702340EA0140901466000004015000
B0536293230877S11702369EA0142501479000004015000
B0536333230921S11702343EA0143201487000004015000
B0536373230921S11702282EA0143901493000004015000
B0536413230873S11702253EA0145001505000004015000
B0536453230834S11702300EA0146201516000004015000
B0536493230858S11702356EA0147201525000000015000
B0536533230910S11702348EA0148201535000000015000
B0536573230927S11702285EA0149201544000000015000
B0537013230897S11702227EA0150201557000000015000
B0537053230840S11702217EA0151301572000000015000
B0537093230799S11702261EA0152801586000004015000
B0537133230803S11702324EA0154301599000000015000
B0537173230845S11702357EA0155601611000000015000
B0537213230893S11702339EA0156801622000004015000
B0537253230911S11702281EA0157701626000000015000
B0537293230876S11702221EA0157701625000004015000
B0537333230812S11702214EA0158501639000004015000
B0537373230763S11702259EA0160001652000004015000
B0537413230768S11702324EA0161001666000000015000
B0537453230820S11702329EA0162201673000004015000
B0537493230838S11702259EA0162901681000000015000
B0537533230788S11702210EA0164201698000000015000
B0537573230729S11702236EA0165701714000000015000
B0538013230715S11702301EA0167401728000000015000
B0538053230755S11702346EA0168301736000000015000
B0538093230806S11702327EA0169601751000000015000
B0538133230820S11702266EA0171201764000000015000
B0538173230781S11702213EA0171701762000000015000
B0538213230715S11702210EA0171701766000000015000
B0538253230661S11702260EA0173301785000000015000
B0538293230673S11702322EA0174701794000000015000
B0538333230728S11702330EA0175101798000000015000
B0538373230755S11702270EA0176201815000000015000
B0538413230719S11702209EA0177201820000004015000
B0538453230651S11702210EA0178101837000004015000
B0538493230617S11702270EA0179701853000000015000
B0538533230638S11702330EA0181101866000000015000
B0538573230691S11702343EA0181601869000000015000
B0539013230750S11702322EA0181601860000000015000
B0539053230819S11702291EA0179901837000000015000
B0539093230894S11702251EA0177901818000000000000
B0539133230973S11702205EA0177101815000000000000
B0539173231053S11702160EA0177301822000000000000
B0539213231132S11702114EA0178001826000000000000
B0539253231213S11702071EA0178001829000000000000
B0539293231293S11702028EA0178601834000000000000
B0539333231378S11701987EA0179101838000000000000
B0539373231461S11701948EA0179801846000000000000
B0539413231543S11701911EA0179801844000000000000
B0539453231626S11701874EA0178801828000000000000
B0539493231713S11701835EA0177101814000000000000
B0539533231804S11701800EA0176101801000004000000
B0539573231896S11701766EA0174901787000004000000
B0540013231985S11701729EA0174001786000004000000
B0540053232072S11701694EA0173901785000004000000
B0540093232156S11701658EA0173401777000004000000
B0540133232240S11701619EA0172401769000000000000
B0540173232324S11701580EA0171701763000000000000
B0540213232407S11701542EA0171201758000000000000
B0540253232491S11701507EA0170601754000000000000
B0540293232572S11701471EA0170301748000000000000
B0540333232653S11701434EA0169801746000000000000
B0540373232732S11701399EA0169001734000000000000
B0540413232813S11701368EA0167701723000000000000
B0540453232896S11701338EA0166501710000000000000
B0540493232979S11701307EA0165501702000000000000
B0540533233060S11701269EA0164601694000000000000
B0540573233141S11701228EA0163701684000004000000
B0541013233224S11701193EA0163001676000004000000
B0541053233307S11701157EA0162401670000004000000
B0541093233388S11701121EA0161601664000004000000
B0541133233469S11701085EA0161101660000000000000
B0541173233549S11701046EA0160501652000000000000
B0541213233628S11701009EA0160001650000004000000
B0541253233706S11700973EA0159501643000004000000
B0541293233783S11700930EA0158601635000000000000
B0541333233857S11700888EA0158201630000004000000
B0541373233928S11700849EA0157401621000004000000
B0541413233999S11700810EA0156401612000000000000
B0541453234067S11700774EA0155701607000004000000
B0541493234138S11700739EA0155201600000004000000
B0541533234204S11700702EA0154901600000000000000
B0541573234268S11700669EA0154801600000000000000
B0542013234329S11700632EA0154401594000000000000
B0542053234391S11700593EA0154301595000000000000
B0542093234450S11700556EA0154401596000000000000
B0542133234511S11700520EA0154701599000000000000
B0542173234569S11700489EA0154901603000000000000
B0542213234626S11700455EA0155101604000000000000
B0542253234680S11700422EA0155401609000000000000
B0542293234733S11700392EA0155401604000004000000
B0542333234789S11700370EA0154801601000000000000
B0542373234845S11700354EA0154901603000004000000
B0542413234901S11700341EA0154701596000000000000
B0542453234962S11700324EA0153601583000000000000
B0542493235024S11700307EA0152501574000000000000
B0542533235089S11700290EA0151501563000000000000
B0542573235156S11700279EA0150601556000000000000
B0543013235223S11700267EA0149801549000000000000
B0543053235289S11700254EA0149301544000004000000
B0543093235356S11700244EA0148701538000000000000
B0543133235422S11700234EA0148001533000004000000
B0543173235487S11700228EA0147401527000004000000
B0543213235553S11700220EA0146901524000004000000
B0543253235620S11700212EA0146901524000004000000
B0543293235683S11700203EA0146801522000004000000
B0543333235747S11700194EA0146501517000004000000
B0543373235815S11700189EA0145501505000004000000
B0543413235886S11700184EA0144301492000004000000
B0543453235960S11700179EA0143501488000004000000
B0543493236036S11700173EA0142801480000004000000
B0543533236111S11700167EA0142201473000004000000
B0543573236184S11700160EA0141501469000004000000
B0544013236258S11700153EA0141101464000004000000
B0544053236331S11700146EA0140501459000000000000
B0544093236402S11700138EA0140001454000004000000
B0544133236471S11700128EA0139601448000000000000
B0544173236539S11700119EA0138701439000000000000
B0544213236608S11700112EA0137801428000000000000
B0544253236675S11700110EA0136901423000000000000
B0544293236742S11700106EA0136701421000000000000
B0544333236808S11700106EA0136401421000000000000
B0544373236873S11700101EA0137201431000000000000
B0544413236935S11700089EA0138201444000000000000
B0544453236998S11700073EA0139301452000000000000
B0544493237044S11700024EA0140901472000000000000
B0544533237015S11659958EA0143101496000000000000
B0544573236957S11659976EA0144801508000000000000
B0545013236952S11700037EA0145801519000000000000
B0545053236994S11700065EA0147201535000000000000
B0545093237037S11700037EA0148801550000004015000
B0545133237026S11659967EA0150401564000004015000
B0545173236965S11659947EA0152001580000000015000
B0545213236926S11659998EA0153101589000000015000
B0545253236944S11700054EA0154001607000000015000
B0545293236992S11700069EA0155601621000000015000
B0545333237029S11700025EA0157301638000000015000
B0545373237011S11659956EA0158901652000000015000
B0545413236948S11659935EA0160401664000004015000
B0545453236900S11659978EA0161801679000004015000
B0545493236904S11700037EA0163601699000000015000
B0545533236942S11700064EA0164901707000004015000
B0545573236982S11700029EA0166001719000004015000
B0546013236963S11659960EA0167301733000000015000
B0546053236900S11659941EA0168701755000000015000
B0546093236857S11659980EA0170801769000000015000
B0546133236864S11700037EA0171601772000004015000
B0546173236912S11700055EA0172101783000004015000
B0546213236952S11700013EA0174301802000000015000
B0546253236943S11659947EA0175901816000000015000
B0546293236886S11659921EA0177401830000004015000
B0546333236844S11659967EA0178401841000000015000
B0546373236860S11700023EA0180001855000000015000
B0546413236908S11700024EA0180901869000000015000
B0546453236929S11659964EA0182201879000000015000
B0546493236894S11659900EA0183301890000000015000
B0546533236830S11659893EA0184501904000000015000
B0546573236796S11659945EA0185901916000000015000
B0547013236817S11659998EA0187001927000000015000
B0547053236869S11700000EA0187701926000000015000
B0547093236924S11659950EA0186001901000000015000
B0547133236985S11659874EA0183701877000000000000
B0547173237048S11659785EA0182001866000000000000
B0547213237107S11659687EA0181401860000000000000
B0547253237169S11659591EA0180701853000000000000
B0547293237236S11659497EA0180201850000004000000
B0547333237303S11659412EA0180201849000004000000
B0547373237373S11659334EA0179601842000004000000
B0547413237446S11659266EA0179101839000000000000
B0547453237519S11659205EA0178401831000000015000
B0547493237598S11659152EA0177601823000004015000
B0547533237679S11659102EA0176901819000004000000
B0547573237756S11659048EA0176701816000004000000
B0548013237831S11658993EA0176101810000000000000
B0548053237905S11658940EA0175801808000000000000
B0548093237977S11658892EA0175701808000000015000
B0548133238047S11658846EA0175601804000004000000
B0548173238118S11658803EA0174601791000004000000
B0548213238192S11658764EA0173201778000004000000
B0548253238266S11658729EA0172501774000004000000
B0548293238343S11658700EA0172301772000004000000
B0548333238420S11658677EA0172401776000004000000
B0548373238497S11658659EA0173201784000000000000
B0548413238572S11658641EA0174101797000004000000
B0548453238646S11658620EA0175001804000004000000
B0548493238716S11658595EA0175701810000000000000
B0548533238788S11658572EA0175901811000000000000
B0548573238861S11658544EA0175901808000004000000
B0549013238937S11658520EA0175101798000004000000
B0549053239018S11658499EA0173801784000004000000
B0549093239098S11658482EA0172401770000004000000
B0549133239179S11658469EA0171901769000004000000
B0549173239257S11658465EA0171901772000000000000
B0549213239334S11658464EA0172001772000004000000
B0549253239408S11658464EA0171901768000004000000
B0549293239483S11658461EA0171401767000004000000
B0549333239556S11658457EA0171201763000004000000
B0549373239629S11658448EA0170901761000004000000
B0549413239700S11658438EA0170401755000000000000
B0549453239773S11658430EA0169901752000004000000
B0549493239843S11658424EA0169701749000000000000
B0549533239915S11658416EA0169201744000000000000
B0549573239986S11658408EA0168801740000000000000
B0550013240058S11658401EA0168101732000004000000
B0550053240131S11658395EA0167401725000004000000
B0550093240205S11658387EA0166301714000004000000
B0550133240281S11658378EA0165501703000004000000
B0550173240359S11658368EA0164501692000004000000
B0550213240437S11658357EA0163401683000004000000
B0550253240515S11658348EA0162401673000004000000
B0550293240592S11658336EA0161401663000000000000
B0550333240669S11658320EA0160501654000000000000
B0550373240746S11658299EA0159601645000004000000
B0550413240821S11658270EA0158901638000004000000
B0550453240894S11658236EA0158301635000000000000
B0550493240965S11658203EA0157801629000004000000
B0550533241037S11658166EA0157201621000004000000
B0550573241108S11658128EA0156101611000004000000
B0551013241181S11658092EA0155701609000000000000
B0551053241253S11658057EA0154901599000000000000
B0551093241325S11658022EA0153901588000000000000
B0551133241397S11657992EA0153201583000004000000
B0551173241470S11657966EA0152301569000000000000
B0551213241544S11657940EA0150801556000000000000
B0551253241618S11657913EA0149501543000000000000
B0551293241692S11657887EA0148601539000000000000
B0551333241763S11657863EA0148001531000000000000
B0551373241835S11657844EA0147401527000000000000
B0551413241906S11657823EA0146801519000000000000
B0551453241979S11657815EA0146101516000004000000
B0551493242048S11657809EA0146601525000000000000
B0551533242113S11657797EA0147901540000004000000
B0551573242161S11657751EA0149201549000004000000
B0552013242182S11657676EA0149601549000004000000
B0552053242144S11657608EA0150801567000004000000
B0552093242083S11657615EA0151401567000000000000
B0552133242057S11657677EA0151701575000000000000
B0552173242057S11657742EA0152501580000000000000
B0552213242081S11657797EA0152801583000004000000
B0552253242126S11657829EA0152701577000000000000
B0552293242187S11657831EA0151401563000000000000
B0552333242255S11657826EA0150101550000000000000
B0552373242329S11657819EA0148701536000000000000
B0552413242404S11657813EA0147601525000000000000
B0552453242482S11657806EA0147201527000000000000
B0552493242556S11657798EA0147701529000000000000
B0552533242632S11657788EA0147201524000000000000
B0552573242706S11657780EA0146701521000000000000
B0553013242780S11657775EA0146301515000004000000
B0553053242855S11657771EA0145101501000004000000
B0553093242933S11657767EA0143701483000000000000
B0553133243014S11657763EA0142201472000004000000
B0553173243096S11657758EA0141401466000004000000
B0553213243174S11657755EA0141301470000004000000
B0553253243249S11657757EA0141201466000004000000
B0553293243326S11657761EA0140201449000004000000
B0553333243408S11657762EA0138501435000004000000
B0553373243490S11657759EA0137301424000004000000
B0553413243573S11657755EA0136501416000004000000
B0553453243656S11657753EA0135901410000000000000
B0553493243737S11657748EA0135301403000000000000
B0553533243819S11657737EA0134401393000000000000
B0553573243902S11657724EA0133201382000000000000
B0554013243985S11657711EA0132101371000000000000
B0554053244070S11657701EA0131001361000000000000
B0554093244152S11657689EA0129901350000000000000
B0554133244235S11657680EA0129301345000000000000
B0554173244314S11657670EA0129101344000004000000
B0554213244389S11657667EA0128901340000000000000
B0554253244465S11657670EA0128301337000004000000
B0554293244538S11657672EA0128101335000000000000
B0554333244609S11657671EA0128001335000000000000
B0554373244681S11657671EA0127401326000000000000
B0554413244752S11657675EA0126201313000000000000
B0554453244826S11657679EA0124801299000000000000
B0554493244900S11657685EA0124101291000000000000
B0554533244972S11657693EA0124801303000000000000
B0554573245039S11657696EA0126001314000000015000
B0555013245072S11657637EA0128001335000000015000
B0555053245026S11657594EA0130101347000000030000
B0555093244978S11657647EA0130801353000000015000
B0555133245008S11657696EA0131201357000000015000
B0555173245056S11657666EA0131401365000004015000
B0555213245067S11657598EA0132401377000000015000
B0555253245020S11657549EA0133701390000000015000
B0555293244960S11657575EA0134801402000000015000
B0555333244952S11657644EA0135601413000000015000
B0555373244991S11657670EA0136401420000000015000
B0555413245023S11657627EA0136201416000000015000
B0555453245017S11657549EA0136301419000004015000
B0555493244971S11657497EA0137701437000000030000
B0555533244919S11657537EA0138901444000004075000
B0555573244943S11657599EA0139801457000000105000
B0556013244989S11657580EA0141501474000000075000
B0556053244981S11657514EA0143101483000000045000
B0556093244925S11657488EA0144201495000000030000
B0556133244877S11657534EA0145001508000000015000
B0556173244891S11657594EA0146501525000000015000
B0556213244937S11657597EA0147801534000000015000
B0556253244948S11657534EA0149201555000000030000
B0556293244906S11657482EA0151201570000000015000
B0556333244842S11657502EA0151401562000000030000
B0556373244828S11657577EA0151901568000000135000
B0556413244870S11657619EA0153701588000004045000
B0556453244924S11657606EA0154201586000000045000
B0556493244961S11657554EA0155401585000000060000
B0556533244942S11657568EA0157501582000000060000
B0556573244924S11657631EA0159001579000004060000
B0557013244941S11657658EA0160201585000000060000
B0557053244952S11657647EA0160801589000000060000
B0557093244994S11657603EA0162001589015000060000
B0557133244958S11657532EA0164401610015000060000
B0557173244880S11657511EA0165801628015000060000
B0557213244833S11657560EA0166501636015000075000
B0557253244796S11657628EA0167601647015004075000
B0557293244776S11657690EA0169601656015004075000
B0557333244772S11657738EA0170400000015004000064
B0557373244766S11657787EA0171801672015004060000
B0557413244764S11657800EV0173200000000004000128
B0557453244795S11657651EA0174501691030000075000
B0557493244804S11657689EA0175301699030000075000
B0557533244818S11657723EA0177001705030000075000
B0557573244856S11657714EA0178501710045000075000
B0558013244864S11657722EA0179201716045000075000
B0558053244830S11657754EA0179701721045000090000
B0558093244820S11657775EA0180301726045000090000
B0558133244820S11657775EV0181900000000000000128
B0558173244820S11657775EV0183100000000000000128
B0558213244820S11657775EV0183900000000004000128
B0558253244820S11657775EV0184600000000004000128
B0558293244817S11657683EA0184901751060000105000
B0558333244882S11657631EA0184701752015000120000
B0558373244938S11657575EA0183401758015000105000
B0558413245003S11657516EA0181901755000000105000
B0558453245067S11657455EA0182301765000000090000
B0558493245134S11657386EA0180601763000000090000
B0558533245203S11657315EA0179301770000000075000
B0558573245273S11657246EA0178801791000000060000
B0559013245344S11657182EA0178001796000000045000
B0559053245415S11657121EA0177201801000000030000
B0559093245487S11657064EA0177101805000000015000
B0559133245557S11657009EA0176501800000000015000
B0559173245627S11656956EA0175601792000000015000
B0559213245699S11656905EA0174701786000004015000
B0559253245769S11656856EA0174301784000004015000
B0559293245834S11656806EA0174401790000000015000
B0559333245899S11656758EA0173801777000000015000
B0559373245962S11656710EA0173001773000000015000
B0559413246025S11656665EA0172401765000000000000
B0559453246087S11656619EA0170901750000000000000
B0559493246151S11656574EA0169701741000000000000
B0559533246212S11656528EA0169201738000000000000
B0559573246271S11656487EA0168601730000004000000
B0600013246326S11656445EA0169701744000004000000
B0600053246375S11656406EA0170801753000000000000
B0600093246423S11656363EA0171101757000004000000
B0600133246471S11656319EA0171801767000004000000
B0600173246521S11656286EA0173101781000004000000
B0600213246571S11656253EA0174301789000000015000
B0600253246570S11656186EA0175201798000000030000
B0600293246512S11656150EA0175401796000000015000
B0600333246454S11656189EA0175201799000000015000
B0600373246455S11656255EA0175301801000000015000
B0600413246506S11656271EA0175201799000004015000
B0600453246568S11656255EA0173601778000000015000
B0600493246638S11656233EA0171801771000000015000
B0600533246715S11656211EA0171301766000004015000
B0600573246796S11656194EA0170501753000000015000
B0601013246879S11656178EA0169601748000000015000
B0601053246958S11656172EA0169201741000000015000
B0601093247038S11656171EA0168001728000000015000
B0601133247118S11656168EA0167001719000000015000
B0601173247196S11656163EA0166401716000000015000
B0601213247274S11656155EA0166101711000000015000
B0601253247350S11656146EA0165701705000000000000
B0601293247426S11656138EA0165101697000004000000
B0601333247503S11656128EA0164101689000000000000
B0601373247580S11656119EA0163701685000004000000
B0601413247654S11656110EA0163201681000004000000
B0601453247725S11656098EA0163101681000000015000
B0601493247794S11656085EA0162501673000000000000
B0601533247864S11656074EA0161101655000000000000
B0601573247937S11656068EA0160101647000000000000
B0602013248009S11656061EA0159801651000004000000
B0602053248080S11656055EA0160301656000000000000
B0602093248152S11656047EA0160801658000004000000
B0602133248223S11656039EA0161501667000000000000
B0602173248295S11656030EA0162301672000000000000
B0602213248365S11656022EA0162201668000000015000
B0602253248439S11656012EA0161501658000000015000
B0602293248514S11655999EA0160201645000000015000
B0602333248591S11655983EA0159401636000000000000
B0602373248666S11655970EA0158401628000000000000
B0602413248743S11655955EA0157501619000000000000
B0602453248822S11655939EA0156401608000000000000
B0602493248903S11655921EA0155801605000000000000
B0602533248984S11655904EA0155401599000000000000
B0602573249063S11655890EA0154801596000000000000
B0603013249142S11655873EA0154101586000000000000
B0603053249223S11655853EA0153101573000000000000
B0603093249303S11655831EA0151701556000000000000
B0603133249384S11655811EA0150101546000000000000
B0603173249462S11655791EA0149501544000004000000
B0603213249537S11655775EA0149401543000004000000
B0603253249610S11655760EA0148901537000004000000
B0603293249680S11655738EA0148501536000004000000
B0603333249749S11655717EA0148101530000000000000
B0603373249820S11655696EA0147901531000000000000
B0603413249888S11655681EA0148001533000004000000
B0603453249955S11655679EA0148801544000000000000
B0603493250015S11655691EA0150101560000000000000
B0603533250070S11655707EA0152301579000000000000
B0603573250107S11655660EA0153601585000004000000
B0604013250059S11655600EA0154001599000004015000
B0604053249994S11655610EA0155101608000004015000
B0604093249974S11655668EA0156601623000004015000
B0604133250021S11655683EA0157501628000004015000
B0604173250043S11655617EA0158401643000004015000
B0604213249995S11655565EA0159901656000004015000
B0604253249935S11655582EA0161001666000004015000
B0604293249922S11655639EA0162101681000000015000
B0604333249959S11655669EA0163201693000004015000
B0604373250005S11655638EA0164201701000004015000
B0604413250009S11655565EA0165301715000004015000
B0604453249956S11655517EA0166101718000004015000
B0604493249892S11655539EA0166401722000004015000
B0604533249875S11655601EA0167501735000004015000
B0604573249907S11655647EA0168901748000004015000
B0605013249960S11655638EA0170101760000000015000
B0605053249982S11655573EA0171701777000000015000
B0605093249947S11655515EA0173201786000004015000
B0605133249885S11655517EA0173301788000004015000
B0605173249853S11655567EA0174201804000000015000
B0605213249877S11655613EA0175501814000000015000
B0605253249927S11655612EA0176701825000000015000
B0605293249959S11655556EA0177701833000000015000
B0605333249934S11655489EA0178501840000000015000
B0605373249870S11655470EA0178401837000000015000
B0605413249818S11655512EA0178801846000000015000
B0605453249813S11655575EA0179801859000000015000
B0605493249853S11655616EA0180701863000004015000
B0605533249918S11655613EA0180301854000004015000
B0605573249995S11655590EA0178901841000004015000
B0606013250078S11655561EA0178001831000004015000
B0606053250161S11655532EA0176301824000004015000
B0606093250250S11655512EA0174701813000004015000
B0606133250341S11655493EA0173301804000004015000
B0606173250437S11655474EA0172001789000004030000
B0606213250536S11655452EA0170901780000004030000
B0606253250633S11655424EA0171201782000004030000
B0606293250727S11655395EA0171801782000004030000
B0606333250815S11655365EA0171701771000004030000
B0606373250908S11655336EA0170601749000004015000
B0606413251001S11655309EA0168401739000004030000
B0606453251094S11655280EA0166701725000004015000
B0606493251186S11655254EA0165901717000004015000
B0606533251277S11655229EA0165801719000000015000
B0606573251360S11655207EA0166201721000004015000
B0607013251443S11655188EA0166501724000004030000
B0607053251524S11655166EA0167101728000004030000
B0607093251601S11655142EA0167201730000004030000
B0607133251673S11655123EA0166901725000004030000
B0607173251749S11655105EA0166701724000004030000
B0607213251823S11655089EA0166701723000004030000
B0607253251898S11655076EA0166401719000000030000
B0607293251974S11655067EA0166201715000000030000
B0607333252050S11655058EA0165501705000000030000
B0607373252130S11655046EA0164101696000000030000
B0607413252208S11655034EA0163201688000000030000
B0607453252284S11655025EA0162201681000000030000
B0607493252362S11655015EA0161101673000004030000
B0607533252442S11655003EA0160201666000004030000
B0607573252520S11654994EA0159401660000000030000
B0608013252596S11654986EA0158701654000000030000
B0608053252672S11654976EA0158201649000004045000
B0608093252743S11654966EA0157301640000000045000
B0608133252817S11654953EA0156001632000000045000
B0608173252890S11654945EA0154501620000004045000
B0608213252963S11654947EA0153501609000004045000
B0608253253034S11654956EA0153101607000004045000
B0608293253102S11654968EA0153301607000000045000
B0608333253167S11654980EA0153501608000004060000
B0608373253229S11654988EA0152801609000004060000
B0608413253292S11654995EA0152201608000004060000
B0608453253354S11655001EA0151901604000004060000
B0608493253421S11654999EA0152301603000004060000
B0608533253484S11654993EA0153101605000000060000
B0608573253547S11654994EA0153401608000004060000
B0609013253613S11655003EA0154501613000000045000
B0609053253669S11654981EA0156401628000000045000
B0609093253695S11654924EA0157801632000004060000
B0609133253621S11654899EA0158201636000000090000
B0609173253558S11654945EA0159101653000000075000
B0609213253539S11655014EA0159801653000000045000
B0609253253566S11655076EA0159901651000004030000
B0609293253619S11655114EA0158601631000004045000
B0609333253695S11655116EA0157001620000000045000
B0609373253774S11655097EA0156701619000000045000
B0609413253850S11655070EA0156701618000000030000
B0609453253931S11655036EA0155401611000000030000
B0609493254012S11655001EA0154601605000000030000
B0609533254097S11654966EA0153801599000004030000
B0609573254181S11654936EA0153201590000000030000
B0610013254266S11654908EA0152301584000000030000
B0610053254350S11654884EA0152001580000000030000
B0610093254433S11654862EA0152701581000000030000
B0610133254513S11654843EA0153201584000000030000
B0610173254589S11654826EA0153301580000000030000
B0610213254666S11654810EA0152101575000000030000
B0610253254747S11654793EA0150701561000000030000
B0610293254826S11654776EA0149601555000000030000
B0610333254901S11654759EA0148701551000000030000
B0610373254977S11654741EA0147701546000000045000
B0610413255055S11654725EA0146601539000000045000
B0610453255131S11654707EA0145501526000000030000
B0610493255208S11654690EA0144701518000000030000
B0610533255285S11654678EA0144001510000004030000
B0610573255359S11654665EA0143101499000000030000
B0611013255434S11654655EA0142101492000000030000
B0611053255510S11654647EA0141201478000000030000
B0611093255586S11654637EA0140001463000000030000
B0611133255662S11654622EA0138601455000000030000
B0611173255741S11654609EA0138101449000000030000
B0611213255819S11654596EA0137901444000000030000
B0611253255898S11654589EA0137801438000004030000
B0611293255976S11654582EA0138001434000000030000
B0611333256050S11654574EA0139001436000004030000
B0611373256122S11654563EA0140301443000004030000
B0611413256191S11654552EA0140701440000004030000
B0611453256260S11654547EA0140401437000000030000
B0611493256330S11654539EA0140001436000000030000
B0611533256404S11654534EA0139601434000000030000
B0611573256473S11654531EA0140401443000004030000
B0612013256534S11654527EA0141101448000004030000
B0612053256596S11654513EA0140301444000000030000
B0612093256667S11654478EA0139701444000000030000
B0612133256737S11654444EA0139601441000000030000
B0612173256811S11654413EA0137801414000000015000
B0612213256898S11654383EA0134601378000004015000
B0612253256997S11654357EA0132601369000004015000
B0612293257098S11654334EA0131701366000004015000
B0612333257194S11654310EA0133101367000000030000
B0612373257261S11654258EA0136501381000004045000
B0612413257249S11654214EA0140301402000004060000
B0612453257184S11654235EA0140601396000004120000
B0612493257141S11654304EA0140501411000004075000
B0612533257124S11654384EA0140901417000000060000
B0612573257153S11654444EA0141201428000004060000
B0613013257206S11654468EA0141501431000000045000
B0613053257266S11654478EA0141501434000000045000
B0613093257328S11654485EA0141401430000000045000
B0613133257396S11654477EA0142001435000004045000
B0613173257452S11654425EA0143701441000000045000
B0613213257451S11654343EA0144301441015004045000
B0613253257478S11654269EA0144801447015004060000
B0613293257535S11654253EA0146501473015004075000
B0613333257569S11654297EA0147901493015000075000
B0613373257549S11654357EA0149201506015004060000
B0613413257491S11654387EA0149901516015000060000
B0613453257425S11654366EA0150601526015000045000
B0613493257384S11654305EA0152001545015000045000
B0613533257399S11654240EA0153301550015000045000
B0613573257451S11654230EA0153701557015004045000
B0614013257488S11654275EA0154301566015004045000
B0614053257486S11654343EA0155501580015004060000
B0614093257440S11654388EA0156901591015000045000
B0614133257375S11654392EA0157801600015000045000
B0614173257318S11654344EA0158401601015000045000
B0614213257289S11654270EA0159101617015000045000
B0614253257293S11654197EA0160501628015000045000
B0614293257319S11654136EA0160901632015000045000
B0614333257382S11654113EA0160601629015000045000
B0614373257452S11654110EA0160301623015004045000
B0614413257530S11654110EA0159701621015000045000
B0614453257609S11654110EA0159401614015000045000
B0614493257691S11654114EA0158401608015000045000
B0614533257772S11654118EA0157601602015000045000
B0614573257850S11654121EA0156801597015000045000
B0615013257928S11654126EA0155701592015000045000
B0615053258003S11654124EA0154501584015004045000
B0615093258075S11654115EA0153601577015004045000
B0615133258146S11654109EA0152701571015000045000
B0615173258215S11654097EA0151401565015000045000
B0615213258288S11654080EA0150201559015004060000
B0615253258363S11654063EA0149801555015004060000
B0615293258427S11654049EA0150301560015004045000
B0615333258489S11654033EA0149701555015000045000
B0615373258565S11654020EA0149101548015004045000
B0615413258635S11653997EA0149201553000004030000
B0615453258701S11653971EA0150101558000004030000
B0615493258766S11653948EA0150301557000004030000
B0615533258831S11653927EA0150101552000000030000
B0615573258896S11653903EA0150601554000000030000
B0616013258957S11653881EA0151401562000000030000
B0616053259017S11653863EA0151801567000000030000
B0616093259081S11653846EA0152101569000000030000
B0616133259144S11653824EA0152301577000000030000
B0616173259208S11653802EA0153101581000000030000
B0616213259273S11653781EA0152601574000000030000
B0616253259338S11653759EA0152001569000004030000
B0616293259403S11653737EA0150901563000004030000
B0616333259473S11653718EA0149801556000000030000
B0616373259545S11653693EA0148901551000004030000
B0616413259615S11653666EA0148401547000000045000
B0616453259685S11653642EA0147801544000004045000
B0616493259752S11653611EA0147401538000000045000
B0616533259815S11653571EA0146701536000004060000
B0616573259879S11653521EA0146101524000004045000
B0617013259941S11653474EA0145301516000004045000
B0617053300004S11653432EA0144401509000004045000
B0617093300065S11653389EA0143801500000000030000
B0617133300122S11653343EA0143101492000000030000
B0617173300179S11653296EA0142601485000004030000
B0617213300238S11653250EA0141901476000000030000
B0617253300299S11653201EA0141001465000000015000
B0617293300360S11653159EA0140101458000004015000
B0617333300422S11653120EA0139601454000004015000
B0617373300482S11653086EA0139201450000000015000
B0617413300539S11653051EA0138401439000000015000
B0617453300602S11653013EA0136801421000000015000
B0617493300668S11652973EA0135501409000000015000
B0617533300734S11652932EA0135201408000000015000
B0617573300797S11652889EA0135301410000000015000
B0618013300858S11652852EA0135601410000000015000
B0618053300920S11652817EA0135401407000000015000
B0618093300984S11652783EA0135301407000000015000
B0618133301041S11652748EA0135501408000000015000
B0618173301097S11652711EA0135201399000000015000
B0618213301154S11652676EA0134101386000000015000
B0618253301209S11652639EA0133301386000004015000
B0618293301263S11652601EA0133401393000004015000
B0618333301317S11652563EA0134101397000004015000
B0618373301366S11652528EA0135401417000004015000
B0618413301391S11652470EA0137001427000004015000
B0618453301366S11652403EA0138401446000004015000
B0618493301302S11652397EA0139801453000004030000
B0618533301273S11652463EA0140301460000004030000
B0618573301308S11652492EA0141101468000000045000
B0619013301335S11652440EA0141701477000004075000
B0619053301300S11652375EA0143001489000004030000
B0619093301231S11652384EA0143901496000004030000
B0619133301213S11652450EA0144601501000004030000
B0619173301253S11652485EA0145001506000004030000
B0619213301291S11652445EA0145301512000004060000
B0619253301274S11652369EA0146601525000004075000
B0619293301204S11652353EA0147401532000004090000
B0619333301162S11652415EA0148001535000000060000
B0619373301191S11652468EA0148701544000000045000
B0619413301236S11652449EA0149201548000000045000
B0619453301250S11652376EA0149401552000004045000
B0619493301193S11652329EA0150901567000004045000
B0619533301130S11652367EA0151801573000004045000
B0619573301117S11652440EA0152601581000000030000
B0620013301152S11652486EA0153001583000004030000
B0620053301205S11652479EA0152901579000004030000
B0620093301241S11652423EA0152901584000000030000
B0620133301260S11652347EA0153301587000000030000
B0620173301239S11652276EA0154401601000000030000
B0620213301172S11652256EA0155101604000004045000
B0620253301118S11652303EA0155001600000000045000
B0620293301098S11652382EA0154701596000004045000
B0620333301079S11652472EA0154301592000000030000
B0620373301059S11652562EA0154201582000004030000
B0620413301036S11652658EA0152101558000004015000
B0620453301011S11652759EA0149901538000004015000
B0620493300983S11652860EA0148701534000004015000
B0620533300951S11652957EA0148101532000000015000
B0620573300920S11653051EA0147801528000000015000
B0621013300886S11653142EA0147401526000000000000
B0621053300850S11653231EA0147001521000000000000
B0621093300811S11653321EA0146801520000000000000
B0621133300775S11653411EA0147201530000000000000
B0621173300743S11653497EA0147901534000000000000
B0621213300717S11653584EA0148401543000000000000
B0621253300688S11653671EA0148501540000000000000
B0621293300656S11653763EA0147501525000004000000
B0621333300626S11653855EA0147601533000004000000
B0621373300597S11653944EA0148301542000000000000
B0621413300567S11654027EA0149101551000004000000
B0621453300537S11654109EA0150201559000004000000
B0621493300513S11654191EA0150601563000000000000
B0621533300519S11654274EA0150701564000000000000
B0621573300541S11654352EA0150801564000000000000
B0622013300567S11654425EA0151101569000000000000
B0622053300590S11654501EA0150601553000000000000
B0622093300591S11654599EA0148501535000004000000
B0622133300574S11654702EA0147401525000004000000
B0622173300546S11654804EA0146301515000004000000
B0622213300507S11654902EA0145601510000000000000
B0622253300464S11654993EA0144701501000000000000
B0622293300418S11655081EA0143301485000000000000
B0622333300370S11655171EA0142101470000004000000
B0622373300322S11655262EA0140701455000004000000
B0622413300277S11655353EA0139601450000004000000
B0622453300231S11655444EA0139201444000000000000
B0622493300188S11655532EA0138601438000004000000
B0622533300148S11655622EA0137601427000004000000
B0622573300105S11655713EA0136301413000000000000
B0623013300061S11655807EA0134501395000000000000
B0623053300015S11655904EA0133201384000004000000
B0623093259970S11656002EA0132401377000000000000
B0623133259926S11656097EA0132301378000000000000
B0623173259882S11656185EA0132201378000000000000
B0623213259841S11656273EA0131201366000004000000
B0623253259802S11656366EA0129501357000000015000
B0623293259761S11656461EA0128201350000000015000
B0623333259719S11656554EA0127701348000000015000
B0623373259681S11656643EA0127301342000000015000
B0623413259644S11656731EA0126801332000004015000
B0623453259609S11656821EA0126001325000000030000
B0623493259570S11656910EA0125501319000004030000
B0623533259527S11656996EA0124501303000000015000
B0623573259485S11657083EA0123201288000000015000
B0624013259445S11657169EA0122201280000004015000
B0624053259406S11657256EA0121201269000004015000
B0624093259372S11657345EA0121401272000000015000
B0624133259338S11657432EA0121101266000004015000
B0624173259303S11657517EA0120801264000004000000
B0624213259267S11657599EA0120601262000004000000
B0624253259232S11657680EA0120001256000004000000
B0624293259196S11657762EA0119601254000004000000
B0624333259163S11657841EA0119501251000004000000
B0624373259128S11657919EA0118901243000000000000
B0624413259094S11658001EA0117901234000004000000
B0624453259065S11658089EA0117101227000004000000
B0624493259044S11658178EA0116801225000004000000
B0624533259024S11658265EA0116301217000004000000
B0624573258991S11658353EA0115401204000004000000
B0625013258938S11658437EA0114401198000004000000
B0625053258879S11658511EA0114701209000000000000
B0625093258823S11658580EA0115601219000000000000
B0625133258778S11658650EA0116801232000004000000
B0625173258747S11658724EA0118601248000000000000
B0625213258774S11658778EA0119801254000000015000
B0625253258816S11658743EA0120001259000000015000
B0625293258804S11658668EA0120001255000004030000
B0625333258743S11658617EA0119701252000004015000
B0625373258662S11658615EA0120001263000004015000
B0625413258601S11658652EA0122101287000004015000
B0625453258611S11658707EA0123301281000004015000
B0625493258660S11658684EA0122201279000004015000
B0625533258658S11658604EA0122601285000000015000
B0625573258610S11658538EA0123701299000004015000
B0626013258544S11658561EA0124601301000004030000
B0626053258548S11658639EA0123901288000004015000
B0626093258588S11658706EA0123201291000004015000
B0626133258640S11658756EA0123801296000004015000
B0626173258697S11658799EA0123801291000004015000
B0626213258743S11658862EA0124001297000000015000
B0626253258766S11658937EA0125401318000000015000
B0626293258771S11659015EA0126701321000000015000
B0626333258734S11659085EA0127101326000000015000
B0626373258669S11659118EA0127601333000004015000
B0626413258600S11659115EA0127901336000004000000
B0626453258535S11659097EA0128601344000000000000
B0626493258470S11659087EA0129301347000000000000
B0626533258424S11659144EA0128801337000000000000
B0626573258461S11659200EA0128401339000000015000
B0627013258515S11659174EA0128601343000000015000
B0627053258527S11659102EA0129001349000004015000
B0627093258510S11659025EA0129401350000004015000
B0627133258453S11658973EA0129201346000004030000
B0627173258377S11658993EA0130101362000004030000
B0627213258353S11659057EA0131901381000004045000
B0627253258394S11659072EA0132001384000004150000
B0627293258420S11659003EA0132001388000004015000
B0627333258385S11658928EA0132101387000004225000
B0627373258309S11658928EA0132701387000000195000
B0627413258262S11658993EA0133401391000000045000
B0627453258285S11659062EA0134601409000004030000
B0627493258342S11659058EA0136001418000000030000
B0627533258362S11658990EA0136701429000000030000
B0627573258331S11658925EA0137501430000000030000
B0628013258267S11658916EA0138001440000004030000
B0628053258241S11658980EA0138701441000000045000
B0628093258288S11659016EA0138701446000000030000
B0628133258342S11658989EA0139501456000000045000
B0628173258358S11658923EA0140601467000000030000
B0628213258318S11658862EA0141201470000000030000
B0628253258250S11658873EA0141201469000000045000
B0628293258203S11658945EA0140301456000000030000
B0628333258159S11659035EA0138801437000004030000
B0628373258111S11659128EA0139101439000000015000
B0628413258123S11659213EA0142001474000000030000
B0628453258186S11659213EA0144101489000000045000
B0628493258221S11659149EA0143801495000004060000
B0628533258218S11659055EA0143401499000004060000
B0628573258151S11658992EA0143701503000000075000
B0629013258072S11658992EA0144101504000004120000
B0629053258006S11659055EA0144401502000000060000
B0629093257998S11659139EA0146501528000000075000
B0629133258055S11659128EA0148201530000000075000
B0629173258055S11659045EA0148401534000004060000
B0629213258004S11658988EA0149601549000004060000
B0629253257950S11659031EA0151501571000004030000
B0629293257984S11659076EA0153501592000004030000
B0629333258020S11659028EA0154501597000004045000
B0629373257989S11658959EA0155701609000004030000
B0629413257920S11658950EA0157001628000000030000
B0629453257876S11659009EA0158701638000000030000
B0629493257908S11659067EA0159901651000000015000
B0629533257960S11659036EA0160901664000004030000
B0629573257948S11658964EA0162501682000000060000
B0630013257885S11658942EA0164201697000000090000
B0630053257831S11658990EA0165501708000000120000
B0630093257843S11659057EA0167001721000004150000
B0630133257899S11659064EA0167801724000004135000
B0630173257925S11658997EA0168301737000004135000
B0630213257889S11658933EA0169601745000004180000
B0630253257824S11658933EA0171501756000000180000
B0630293257799S11658999EA0172601765000000225000
B0630333257850S11659031EA0173401778000004165000
B0630373257881S11658970EA0174601798000004105000
B0630413257839S11658912EA0176201814000000090000
B0630453257776S11658932EA0177501824000000090000
B0630493257764S11659001EA0179001839000004105000
B0630533257812S11659025EA0180101849000004105000
B0630573257842S11658971EA0180801860000004090000
B0631013257813S11658908EA0182201864000004090000
B0631053257747S11658912EA0183401879000000060000
B0631093257713S11658975EA0184901891000004075000
B0631133257739S11659027EA0185801903000004060000
B0631173257787S11659007EA0186401908000004045000
B0631213257787S11658937EA0186901919000004060000
B0631253257731S11658903EA0188201932000000045000
B0631293257674S11658940EA0188801933000000030000
B0631333257630S11659015EA0187701910000004030000
B0631373257587S11659107EA0186101900000000015000
B0631413257545S11659206EA0185101890000000015000
B0631453257503S11659305EA0183401871000000015000
B0631493257457S11659405EA0181801860000000015000
B0631533257409S11659499EA0181601864000000015000
B0631573257362S11659587EA0181901865000000015000
B0632013257314S11659673EA0181701862000000000000
B0632053257262S11659755EA0181701866000000000000
B0632093257213S11659837EA0181801865000000000000
B0632133257165S11659919EA0181401862000000000000
B0632173257118S11700002EA0181401862000000000000
B0632213257068S11700084EA0181301860000000015000
B0632253257018S11700164EA0180801856000000015000
B0632293256967S11700245EA0180601852000000015000
B0632333256915S11700328EA0180001846000000015000
B0632373256864S11700411EA0179401841000000015000
B0632413256816S11700493EA0179001838000000015000
B0632453256769S11700575EA0178501833000000015000
B0632493256725S11700656EA0177801827000000015000
B0632533256680S11700736EA0177101823000004015000
B0632573256635S11700818EA0176401818000004015000
B0633013256590S11700899EA0176101814000004015000
B0633053256546S11700978EA0175701811000004015000
B0633093256499S11701056EA0175101807000004030000
B0633133256450S11701135EA0174401798000004015000
B0633173256401S11701215EA0173701793000000015000
B0633213256355S11701295EA0173401789000000015000
B0633253256308S11701372EA0172801786000004015000
B0633293256261S11701447EA0172101782000000030000
B0633333256213S11701520EA0171601775000000030000
B0633373256165S11701592EA0170601765000004015000
B0633413256114S11701664EA0169801761000004015000
B0633453256062S11701737EA0169301758000004030000
B0633493256011S11701811EA0168901755000000030000
B0633533255965S11701887EA0169001753000000030000
B0633573255915S11701963EA0168601750000000030000
B0634013255865S11702038EA0168501748000000030000
B0634053255814S11702113EA0168301748000000030000
B0634093255766S11702184EA0168701753000004015000
B0634133255719S11702252EA0168601744000004015000
B0634173255673S11702324EA0167501737000004015000
B0634213255627S11702398EA0166501723000004015000
B0634253255576S11702470EA0164901712000004015000
B0634293255520S11702546EA0164401708000004015000
B0634333255464S11702621EA0163701698000000015000
B0634373255410S11702698EA0162901684000000015000
B0634413255356S11702776EA0161901677000000015000
B0634453255304S11702854EA0161201670000004015000
B0634493255252S11702932EA0160401663000000015000
B0634533255203S11703010EA0159101648000000015000
B0634573255155S11703091EA0157701638000004015000
B0635013255108S11703171EA0157301635000004015000
B0635053255064S11703250EA0157901638000000015000
B0635093255026S11703322EA0158901641000000015000
B0635133254987S11703396EA0158501634000000015000
B0635173254947S11703477EA0157601629000004015000
B0635213254904S11703560EA0156801620000004015000
B0635253254862S11703648EA0155401607000000015000
B0635293254817S11703737EA0154201599000000015000
B0635333254770S11703825EA0153101594000000015000
B0635373254722S11703913EA0152101587000000015000
B0635413254674S11703999EA0151301578000004015000
B0635453254624S11704081EA0150801577000000015000
B0635493254575S11704158EA0150501575000000015000
B0635533254526S11704235EA0149901566000000015000
B0635573254475S11704313EA0149101560000000015000
B0636013254424S11704391EA0149201556000000030000
B0636053254384S11704470EA0149801559000000030000
