ACAM4N6
HFDTE160218
HFFXA050
HFPLTPILOT:JOHN WELSH              
HFGTYGLIDERTYPE:HORNET      
HFGIDGLIDERID:VH-GMY      
HFDTM100GPSDATUM:
HFRFWFIRMWAREVERSION:F2.6
HFRHWHARDWAREVERSION:300 Series Version 2
HFFTYFRTYPE:CAMBRIDGE AERO INSTRUMENTS, 302+
HFGPS:GARMIN,LVS-25,12,18000
HFPRSPRESSALTSENSOR:INTERSEMA, MS5534-AP, 20000
I033638FXA3941ENL4247REX
LCAMSBVER:5FWVER:F26300
C150218032938150218000103
C0000000N00000000WTAKEOFF     
C3207549S11656849EBEVAIR      
C3052001S11643979EWongan Hills
C3152966S11809465EBruce Rock  
C3239599S11707465EPopanyinning
C3207549S11656849EBEVAIR      
C0000000N00000000WLANDING     
B0351353207736S11657101EA0027300195000000000000
B0351373207736S11657101EA0027400195000000000000
B0351393207736S11657101EA0027300195000000000000
B0351413207736S11657101EA0027200195000000000000
B0351433207736S11657101EA0027300195000000000000
B0351453207736S11657101EA0027300195000000000000
B0351473207736S11657101EA0027300195000000000000
B0351493207736S11657101EA0027300195000000000000
B0351513207736S11657101EA0027400195000000000000
B0351533207736S11657101EA0027400195000000000000
B0351553207736S11657101EA0027300195000000000000
B0351573207736S11657101EA0027400195000000000000
B0351593207736S11657101EA0027300195000000000000
B0352013207736S11657101EA0027300195000000000000
B0352033207735S11657100EA0027300195000000000000
B0352063207726S11657096EA0027500195000000000000
B0352103207698S11657082EA0027500194000000000000
B0352143207661S11657060EA0027700196000000000000
B0352183207612S11657030EA0028100197000000000000
B0352223207559S11656999EA0028400203000000000000
B0352263207505S11656969EA0029000214000000000000
B0352303207454S11656942EA0029800232000000000000
B0352343207401S11656921EA0031100240000000000000
B0352383207347S11656897EA0031900254000000000000
B0352423207297S11656869EA0033500270000000000000
B0352463207247S11656838EA0034800285000000000000
B0352503207199S11656809EA0036200300000000000000
B0352543207152S11656780EA0037500315000000000000
B0352583207107S11656748EA0038700327000000000000
B0353023207063S11656714EA0039700340000000000000
B0353063207024S11656667EA0040700352000000000000
B0353103207005S11656600EA0041600361000000000000
B0353143207009S11656519EA0041900363000000000000
B0353183207039S11656438EA0042200373000000000000
B0353223207099S11656373EA0043400386000000000000
B0353263207180S11656333EA0044800400000000000000
B0353303207271S11656312EA0046000413000000000000
B0353343207365S11656315EA0047500429000000000000
B0353383207456S11656346EA0048900443000000000000
B0353423207541S11656398EA0050400455000000000000
B0353463207618S11656462EA0051500469000000000000
B0353503207683S11656541EA0052500478000000000000
B0353543207744S11656627EA0053300487000000000000
B0353583207805S11656715EA0053600487000000000000
B0354023207861S11656804EA0054400500000000000000
B0354063207905S11656899EA0056000516000000000000
B0354103207934S11657000EA0057100530000000000000
B0354143207947S11657101EA0058500544000000000000
B0354183207949S11657200EA0059600555000000000000
B0354223207943S11657296EA0060500566000000000000
B0354263207928S11657390EA0061400573000000000000
B0354303207908S11657481EA0062200582000000000000
B0354343207884S11657571EA0062700590000000000000
B0354383207859S11657660EA0063400598000000000000
B0354423207833S11657750EA0064300609000000000000
B0354463207809S11657840EA0065500620000000000000
B0354503207781S11657930EA0066300630000000000000
B0354543207750S11658018EA0067300640000000000000
B0354583207722S11658109EA0068500657000000000000
B0355023207693S11658197EA0070600678000000000000
B0355063207663S11658284EA0072000692000000000000
B0355103207635S11658370EA0073900712000000000000
B0355143207602S11658452EA0075800732000000000000
B0355183207571S11658534EA0076900750000000000000
B0355223207540S11658616EA0078600768000000000000
B0355263207505S11658695EA0080000783000000000000
B0355303207458S11658756EA0082400815000000000000
B0355343207404S11658798EA0085700845000000000000
B0355383207347S11658828EA0088300875000000000000
B0355423207300S11658869EA0091000898000000000000
B0355463207315S11658946EA0092600914000000000000
B0355503207391S11658960EA0093100911000000000000
B0355543207443S11658906EA0093300917000000000000
B0355583207442S11658847EA0095000937000000000000
B0356023207404S11658851EA0096100947000000000000
B0356063207398S11658921EA0097500963000000000000
B0356103207456S11658977EA0098800978000000000000
B0356143207531S11658970EA0099300983000000000000
B0356183207571S11658910EA0100000995000000000000
B0356223207555S11658860EA0101701012000000000000
B0356263207514S11658881EA0102601019000000000000
B0356303207516S11658959EA0103701032000000000000
B0356343207577S11659018EA0105101045000000000000
B0356383207661S11659018EA0105701053000000000000
B0356423207718S11658963EA0107301072000000000000
B0356463207727S11658894EA0108501084000000000000
B0356503207684S11658866EA0110601107000000000000
B0356543207640S11658905EA0111801115000000000000
B0356583207635S11658989EA0112501124000000000000
B0357023207692S11659055EA0113701145000000000000
B0357063207765S11659042EA0115601166000000000000
B0357103207779S11658985EA0117401182000000000000
B0357143207741S11658970EA0118801196000000000000
B0357183207710S11659025EA0119801204000000000000
B0357223207731S11659109EA0120901219000000000000
B0357263207793S11659165EA0121801228000000000000
B0357303207867S11659168EA0122701239000000000000
B0357343207923S11659126EA0123801253000000000000
B0357383207937S11659064EA0125801270000000000000
B0357423207901S11659036EA0127201286000000000000
B0357463207871S11659090EA0128901306000000000000
B0357503207901S11659167EA0130301318000000000000
B0357543207974S11659185EA0131201334000000000000
B0357583208027S11659142EA0132801347000000000000
B0358023208028S11659083EA0133201349000000000000
B0358063207984S11659063EA0134601372000000000000
B0358103207956S11659122EA0136701391000000000000
B0358143207982S11659204EA0137801399000000000000
B0358183208053S11659244EA0138801412000000000000
B0358223208116S11659214EA0140101427000000000000
B0358263208117S11659154EA0140601430000000000000
B0358303208067S11659140EA0141901445000000000000
B0358343208032S11659193EA0144001468000000000000
B0358383208054S11659274EA0145201478000000000000
B0358423208123S11659311EA0145801488000000000000
B0358463208183S11659280EA0146901500000000000000
B0358503208182S11659224EA0147301500000000000000
B0358543208135S11659214EA0148001514000000000000
B0358583208101S11659274EA0149801528000000000000
B0359023208127S11659361EA0150601537000000000000
B0359063208201S11659399EA0151501547000000000000
B0359103208266S11659363EA0152401553000000000000
B0359143208281S11659302EA0153501569000000000000
B0359183208246S11659270EA0154301575000000000000
B0359223208209S11659313EA0156101599000000000000
B0359263208229S11659392EA0157501607000000000000
B0359303208300S11659430EA0157901617000000000000
B0359343208363S11659397EA0158701626000000000000
B0359383208379S11659336EA0158901624000000000000
B0359423208344S11659301EA0159501640000000000000
B0359463208303S11659343EA0161601662000000000000
B0359503208304S11659427EA0163201675000000000000
B0359543208359S11659492EA0164301688000000000000
B0359583208434S11659500EA0165201697000000000000
B0400023208486S11659460EA0165901704000000000000
B0400063208498S11659404EA0166401705000000000000
B0400103208468S11659362EA0167101718000000000000
B0400143208429S11659391EA0169301738000000000000
B0400183208446S11659471EA0170301749000000000000
B0400223208519S11659516EA0171301760000000000000
B0400263208593S11659496EA0171801762000000000000
B0400303208630S11659436EA0172001766000000000000
B0400343208615S11659383EA0172801773000000000000
B0400383208568S11659380EA0172901774000000000000
B0400423208539S11659445EA0174101795000000000000
B0400463208572S11659527EA0175801811000000000000
B0400503208649S11659565EA0176901818000000000000
B0400543208727S11659547EA0177601829000000000000
B0400583208775S11659491EA0178201833000000000000
B0401023208773S11659426EA0178001831000000000000
B0401063208730S11659388EA0177801830000000000000
B0401103208678S11659399EA0178701841000000000000
B0401143208659S11659471EA0179801852000000000000
B0401183208701S11659549EA0180901868000000000000
B0401223208776S11659570EA0182801888000000000000
B0401263208821S11659526EA0184301897000000000000
B0401303208808S11659471EA0183401886000000000000
B0401343208759S11659462EA0183401889000000000000
B0401383208712S11659510EA0184001892000000000000
B0401423208695S11659595EA0184801907000000000000
B0401463208714S11659686EA0186401926000000000000
B0401503208772S11659751EA0188001943000000000000
B0401543208850S11659766EA0188901948000000000000
B0401583208919S11659730EA0188701942000000000000
B0402023208935S11659661EA0189201953000000000000
B0402063208898S11659626EA0190201965000000000000
B0402103208850S11659653EA0191401979000000000000
B0402143208849S11659731EA0193502003000000000000
B0402183208906S11659782EA0195102016000000000000
B0402223208970S11659761EA0195702023000000000000
B0402263208985S11659703EA0196502029000000000000
B0402303208946S11659678EA0197202036000000000000
B0402343208903S11659720EA0197902047000000000000
B0402383208903S11659804EA0199102057000000000000
B0402423208959S11659873EA0200102067000000000000
B0402463209039S11659881EA0201102080000000000000
B0402503209094S11659838EA0202402090000000000000
B0402543209115S11659776EA0203102097000000000000
B0402583209098S11659725EA0203602102000000000000
B0403023209052S11659746EA0204302110000000000000
B0403063209045S11659828EA0204702112000000000000
B0403103209092S11659906EA0206102130000000000000
B0403143209162S11659898EA0207002142000000000000
B0403183209183S11659842EA0207702146000000000000
B0403223209144S11659824EA0208002148000000000000
B0403263209109S11659883EA0208102152000000000000
B0403303209124S11659974EA0209002164000000000000
B0403343209189S11700028EA0210302177000000000000
B0403383209261S11700017EA0211802191000000000000
B0403423209297S11659967EA0212102195000000000000
B0403463209280S11659919EA0212302194000000000000
B0403503209231S11659926EA0212402193000000000000
B0403543209205S11700002EA0212302195000000000000
B0403583209224S11700095EA0213402210000000000000
B0404023209282S11700159EA0215002229000000000000
B0404063209353S11700156EA0216002238000000000000
B0404103209392S11700106EA0216302238000000000000
B0404143209383S11700055EA0216402243000000000000
B0404183209339S11700047EA0216502241000000000000
B0404223209299S11700099EA0216602243000000000000
B0404263209308S11700186EA0217402252000000000000
B0404303209365S11700251EA0217902258000000000000
B0404343209445S11700267EA0218302261000000000000
B0404383209513S11700232EA0218502262000000000000
B0404423209549S11700169EA0218502261000000000000
B0404463209546S11700106EA0218602265000000000000
B0404503209514S11700060EA0218702264000000000000
B0404543209464S11700047EA0218002260000000000000
B0404583209409S11700080EA0218702267000000000000
B0405023209375S11700154EA0219102268000000000000
B0405063209375S11700247EA0219402275000000000000
B0405103209414S11700332EA0220502285000000000000
B0405143209482S11700384EA0221402296000000000000
B0405183209561S11700397EA0221402296000000000000
B0405223209631S11700368EA0221802301000000000000
B0405263209678S11700315EA0222202304000000000000
B0405303209692S11700253EA0222502306000000000000
B0405343209677S11700203EA0222702307000000000000
B0405383209639S11700179EA0222902313000000000000
B0405423209592S11700188EA0223202311000000000000
B0405463209551S11700236EA0222702307000000000000
B0405503209538S11700322EA0222002301000000000000
B0405543209565S11700415EA0221902301000000000000
B0405583209627S11700485EA0222102303000000000000
B0406023209708S11700514EA0222402307000000000000
B0406063209785S11700502EA0222902311000000000000
B0406103209846S11700463EA0223102313000000000000
B0406143209886S11700409EA0222902311000000000000
B0406183209907S11700345EA0222702307000000000000
B0406223209917S11700276EA0222402306000000000000
B0406263209924S11700205EA0222702310000000000000
B0406303209925S11700137EA0223402320000000000000
B0406343209923S11700071EA0223602317000000000000
B0406383209915S11700002EA0223302316000000000000
B0406423209907S11659932EA0223702320000000000000
B0406463209899S11659864EA0223802316000000000000
B0406503209886S11659798EA0223302311000000000000
B0406543209868S11659730EA0223802322000000000000
B0406583209850S11659662EA0224902334000000000000
B0407023209834S11659594EA0225602336000000000000
B0407063209813S11659522EA0225302332000000000000
B0407103209791S11659451EA0225602339000000000000
B0407143209769S11659380EA0225702337000000000000
B0407183209746S11659311EA0225602337000000000000
B0407223209725S11659243EA0225602339000000000000
B0407263209708S11659174EA0225702341000000000000
B0407303209692S11659109EA0225802339000000000000
B0407343209676S11659048EA0225602336000000000000
B0407383209656S11658992EA0225302332000000000000
B0407423209638S11658938EA0224602327000000000000
B0407463209618S11658885EA0224302318000000000000
B0407503209599S11658830EA0223302309000000000000
B0407543209578S11658773EA0222702304000000000000
B0407583209559S11658717EA0222302300000000000000
B0408023209539S11658663EA0221802295000000000000
B0408063209521S11658609EA0221302288000000000000
B0408103209499S11658557EA0220202277000000000000
B0408143209473S11658509EA0219102266000000000000
B0408183209445S11658461EA0218202255000000000000
B0408223209416S11658417EA0217602249000000000000
B0408263209386S11658373EA0217002241000000000000
B0408303209354S11658331EA0216402233000000000000
B0408343209322S11658291EA0215602226000000000000
B0408383209288S11658249EA0214902219000000000000
B0408423209254S11658212EA0214402214000000000000
B0408463209221S11658174EA0214202213000000000000
B0408503209188S11658138EA0214002208000000000000
B0408543209153S11658102EA0213502203000000000000
B0408583209119S11658066EA0213102198000000000000
B0409023209083S11658030EA0212202186000000000000
B0409063209045S11657987EA0211602183000000000000
B0409103209009S11657948EA0211602188000000000000
B0409143208968S11657913EA0211802189000000000000
B0409183208928S11657875EA0212002192000000000000
B0409223208886S11657837EA0211602184000000000000
B0409263208845S11657796EA0210902178000000000000
B0409303208805S11657754EA0210702176000000000000
B0409343208764S11657711EA0210402172000000000000
B0409383208727S11657666EA0210102168000000000000
B0409423208691S11657614EA0209602163000000000000
B0409463208658S11657562EA0209102157000000000000
B0409503208623S11657510EA0208702155000000000000
B0409543208586S11657460EA0208402149000000000000
B0409583208548S11657415EA0207602143000000000000
B0410023208507S11657372EA0207302140000000000000
B0410063208465S11657332EA0206902138000000000000
B0410103208421S11657298EA0206902135000000000000
B0410143208374S11657267EA0206302130000000000000
B0410183208330S11657233EA0206502134000000000000
B0410223208287S11657200EA0206802136000000000000
B0410263208249S11657163EA0206902136000000000000
B0410303208213S11657124EA0206502132000000000000
B0410343208173S11657086EA0206402129000000000000
B0410383208129S11657049EA0205702123000000000000
B0410423208082S11657016EA0205402119000000000000
B0410463208030S11656984EA0204802113000000000000
B0410503207973S11656960EA0204302107000000000000
B0410543207914S11656940EA0204302109000000000000
B0410583207857S11656925EA0204102106000000000000
B0411023207802S11656904EA0204002108000000000000
B0411063207752S11656882EA0204402110000000000000
B0411103207703S11656858EA0204902116000000000000
B0411143207658S11656839EA0205402121000000000000
B0411183207611S11656827EA0205702124000000000000
B0411223207562S11656823EA0205802122000000000000
B0411263207508S11656832EA0205902125000000000000
B0411303207458S11656861EA0206402133000000000000
B0411343207407S11656896EA0206002127000000000000
B0411383207354S11656938EA0205502121000000000000
B0411423207295S11656978EA0205002116000000000000
B0411463207234S11657012EA0204602113000000000000
B0411503207172S11657043EA0204602114000000000000
B0411543207112S11657074EA0204802114000000000000
B0411583207053S11657105EA0204502113000000000000
B0412023206995S11657137EA0204202110000000000000
B0412063206938S11657169EA0204002107000000000000
B0412103206882S11657198EA0203602101000000000000
B0412143206825S11657226EA0203302099000000000000
B0412183206767S11657254EA0203002094000000000000
B0412223206709S11657280EA0202602089000000000000
B0412263206653S11657302EA0201902083000000000000
B0412303206597S11657322EA0201002070000000000000
B0412343206539S11657348EA0200302064000000000000
B0412383206484S11657371EA0200202067000000000000
B0412423206432S11657390EA0200402066000000000000
B0412463206383S11657407EA0199902061000000000000
B0412503206332S11657426EA0199202050000000000000
B0412543206276S11657447EA0198202041000000000000
B0412583206216S11657465EA0197502036000000000000
B0413023206158S11657486EA0197202036000000000000
B0413063206101S11657507EA0197102033000000000000
B0413103206043S11657528EA0196602026000000000000
B0413143205985S11657550EA0195802017000000000000
B0413183205925S11657569EA0195102011000000000000
B0413223205865S11657584EA0195002010000000000000
B0413263205805S11657595EA0194702007000000000000
B0413303205748S11657608EA0194702006000000000000
B0413343205692S11657624EA0194702006000000000000
B0413383205636S11657645EA0194101998000000000000
B0413423205575S11657671EA0193001986000000000000
B0413463205513S11657698EA0192501987000000000000
B0413503205454S11657711EA0193301993000000000000
B0413543205402S11657705EA0193902000000000000000
B0413583205353S11657693EA0194302003000000000000
B0414023205305S11657685EA0194101998000000000000
B0414063205253S11657684EA0193301989000000000000
B0414103205197S11657688EA0192801986000000000000
B0414143205142S11657692EA0192501981000000000000
B0414183205085S11657693EA0192401978000000000000
B0414223205032S11657685EA0192501981000000000000
B0414263204979S11657677EA0192501980000000000000
B0414303204923S11657672EA0191901972000000000000
B0414343204863S11657673EA0191601969000000000000
B0414383204804S11657679EA0191501969000000000000
B0414423204746S11657690EA0191301964000000000000
B0414463204686S11657701EA0191001962000000000000
B0414503204626S11657714EA0190801960000000000000
B0414543204567S11657732EA0190601959000000000000
B0414583204505S11657750EA0190301955000000000000
B0415023204442S11657775EA0189901949000000000000
B0415063204377S11657803EA0188901942000000000000
B0415103204309S11657832EA0188301937000000000000
B0415143204243S11657853EA0188101937000000000000
B0415183204179S11657870EA0188101937000000000000
B0415223204118S11657891EA0188001937000000000000
B0415263204060S11657914EA0188001938000000000000
B0415303204005S11657940EA0187901933000000000000
B0415343203950S11657966EA0187001920000000000000
B0415383203893S11657993EA0186501919000000000000
B0415423203835S11658015EA0186401918000000000000
B0415463203776S11658034EA0186901931000000000000
B0415503203724S11658030EA0188501951000000000000
B0415543203684S11658008EA0189601954000000000000
B0415583203642S11657989EA0189401949000000000000
B0416023203598S11657974EA0189101946000000000000
B0416063203550S11657965EA0188701940000000000000
B0416103203495S11657970EA0187701924000000000000
B0416143203434S11657987EA0186301913000000000000
B0416183203372S11658006EA0185601907000000000000
B0416223203309S11658034EA0185801917000000000000
B0416263203252S11658057EA0186601925000000000000
B0416303203194S11658069EA0186701924000000000000
B0416343203138S11658056EA0186901925000000000000
B0416383203085S11658031EA0187001928000000000000
B0416423203033S11658006EA0187201927000000000000
B0416463202975S11657992EA0186801920000000000000
B0416503202913S11658000EA0185701906000000000000
B0416543202849S11658031EA0184101888000000000000
B0416583202786S11658074EA0183001880000000000000
B0417023202722S11658119EA0182001872000000000000
B0417063202659S11658166EA0181901872000000000000
B0417103202600S11658213EA0181801873000000000000
B0417143202544S11658264EA0181901874000000000000
B0417183202490S11658316EA0181801871000000000000
B0417223202436S11658366EA0181501870000000000000
B0417263202381S11658413EA0181201864000000000000
B0417303202325S11658459EA0180301854000000000000
B0417343202266S11658505EA0179601844000000000000
B0417383202206S11658555EA0178301833000000000000
B0417423202147S11658608EA0177201819000000000000
B0417463202087S11658663EA0175901807000000000000
B0417503202028S11658717EA0175001798000000000000
B0417543201968S11658769EA0174301791000000000000
B0417583201908S11658820EA0174101788000000000000
B0418023201850S11658866EA0173401777000000000000
B0418063201790S11658912EA0172401767000000000000
B0418103201731S11658958EA0171401759000000000000
B0418143201670S11659005EA0170601751000000000000
B0418183201610S11659051EA0170001746000000000000
B0418223201552S11659097EA0169601743000000000000
B0418263201492S11659144EA0169301737000000000000
B0418303201432S11659192EA0168901734000000000000
B0418343201372S11659241EA0168601729000000000000
B0418383201315S11659292EA0168201730000000000000
B0418423201262S11659343EA0168401732000000000000
B0418463201209S11659395EA0168101725000000000000
B0418503201153S11659445EA0167201713000000000000
B0418543201096S11659495EA0166201705000000000000
B0418583201040S11659544EA0165801700000000000000
B0419023200982S11659594EA0165901704000000000000
B0419063200925S11659646EA0165801699000000000000
B0419103200868S11659701EA0165101691000000000000
B0419143200810S11659759EA0163701676000000000000
B0419183200747S11659815EA0162901668000000000000
B0419223200685S11659870EA0162101659000000000000
B0419263200626S11659926EA0161901659000000000000
B0419303200566S11659984EA0161601657000000000000
B0419343200505S11700039EA0161501654000000000000
B0419383200447S11700098EA0161301655000000000000
B0419423200387S11700153EA0161401656000000000000
B0419463200325S11700205EA0161301652000000000000
B0419503200261S11700257EA0161001648000000000000
B0419543200199S11700307EA0160801647000000000000
B0419583200136S11700357EA0161001650000000000000
B0420023200079S11700409EA0161101652000000000000
B0420063200022S11700465EA0161101651000000000000
B0420103159966S11700518EA0161401653000000000000
B0420143159907S11700569EA0161301653000000000000
B0420183159850S11700619EA0161201649000000000000
B0420223159793S11700670EA0161501659000000000000
B0420263159737S11700713EA0162101663000000000000
B0420303159682S11700752EA0162201661000000000000
B0420343159625S11700797EA0162101659000000000000
B0420383159567S11700849EA0161301646000000000000
B0420423159508S11700903EA0161101651000000000000
B0420463159452S11700959EA0162001663000000000000
B0420503159413S11701034EA0163201676000000000000
B0420543159425S11701125EA0164701693000000000000
B0420583159487S11701173EA0165201689000000000000
B0421023159555S11701154EA0163701672000000000000
B0421063159576S11701095EA0162901669000000000000
B0421103159546S11701050EA0163201670000000000000
B0421143159486S11701043EA0163401677000000000000
B0421183159421S11701060EA0163601679000000000000
B0421223159360S11701096EA0164801690000000000000
B0421263159324S11701170EA0166101705000000000000
B0421303159359S11701256EA0167301717000000000000
B0421343159434S11701289EA0167401716000000000000
B0421383159489S11701251EA0167401715000000000000
B0421423159493S11701193EA0167301720000000000000
B0421463159456S11701157EA0167601722000000000000
B0421503159403S11701165EA0167901725000000000000
B0421543159352S11701208EA0167601720000000000000
B0421583159304S11701263EA0167201712000000000000
B0422023159256S11701323EA0165901699000000000000
B0422063159204S11701382EA0165001690000000000000
B0422103159151S11701442EA0164301682000000000000
B0422143159096S11701502EA0163801679000000000000
B0422183159043S11701560EA0164201691000000000000
B0422223159004S11701629EA0166301711000000000000
B0422263159029S11701710EA0167701720000000000000
B0422303159110S11701727EA0167901725000000000000
B0422343159165S11701670EA0167801718000000000000
B0422383159152S11701594EA0167601723000000000000
B0422423159112S11701541EA0168401729000000000000
B0422463159057S11701524EA0168301724000000000000
B0422503159001S11701551EA0167301716000000000000
B0422543158952S11701605EA0165501696000000000000
B0422583158897S11701666EA0164101673000000000000
B0423023158844S11701732EA0162901666000000000000
B0423063158791S11701800EA0161701648000000000000
B0423103158735S11701872EA0160301638000000000000
B0423143158679S11701940EA0159301625000000000000
B0423183158622S11702009EA0158501621000000000000
B0423223158567S11702078EA0158401620000000000000
B0423263158510S11702143EA0157801613000000000000
B0423303158449S11702207EA0157001595000000000000
B0423343158382S11702268EA0155401583000000000000
B0423383158312S11702322EA0154701580000000000000
B0423423158242S11702370EA0154301576000000000000
B0423463158176S11702421EA0154501580000000000000
B0423503158112S11702474EA0154401575000000000000
B0423543158048S11702524EA0153901574000000000000
B0423583157989S11702559EA0154601584000000000000
B0424023157934S11702587EA0155201588000000000000
B0424063157879S11702619EA0154401575000000000000
B0424103157820S11702651EA0153201557000000000000
B0424143157755S11702689EA0151201536000000000000
B0424183157687S11702728EA0149101513000000000000
B0424223157617S11702769EA0147801503000000000000
B0424263157547S11702814EA0146201484000000000000
B0424303157475S11702855EA0144801467000000000000
B0424343157404S11702894EA0143501457000000000000
B0424383157333S11702927EA0142901452000000000000
B0424423157264S11702966EA0142301446000000000000
B0424463157197S11703006EA0141401434000000000000
B0424503157129S11703046EA0141301437000000000000
B0424543157063S11703084EA0140701424000000000000
B0424583156994S11703120EA0139101409000000000000
B0425023156924S11703154EA0138401403000000000000
B0425063156858S11703188EA0138401410000000000000
B0425103156794S11703222EA0138601406000000000000
B0425143156730S11703254EA0138301404000000000000
B0425183156668S11703276EA0138801412000000000000
B0425223156624S11703249EA0140101428000000000000
B0425263156647S11703195EA0141601444000000000000
B0425303156716S11703185EA0142201441000000000000
B0425343156785S11703237EA0141901438000000000000
B0425383156820S11703322EA0142101439000000000000
B0425423156838S11703412EA0142101438000000000000
B0425463156843S11703505EA0141701436000000000000
B0425503156834S11703596EA0141601435000000000000
B0425543156800S11703665EA0141901441000000000000
B0425583156769S11703653EA0144101470000000000000
B0426023156806S11703613EA0144601465000000000000
B0426063156887S11703633EA0144501472000000000000
B0426103156942S11703709EA0145701485000000000000
B0426143156949S11703802EA0146301486000000000000
B0426183156912S11703863EA0146801500000000000000
B0426223156871S11703867EA0148501517000000000000
B0426263156851S11703828EA0149301520000000000000
B0426303156871S11703772EA0149701526000000000000
B0426343156928S11703729EA0150401535000000000000
B0426383157008S11703725EA0151901551000000000000
B0426423157086S11703764EA0153401566000000000000
B0426463157144S11703837EA0154001571000000000000
B0426503157168S11703930EA0154001572000000000000
B0426543157153S11704019EA0154401578000000000000
B0426583157110S11704063EA0155201590000000000000
B0427023157085S11704036EA0157301614000000000000
B0427063157133S11704002EA0158501621000000000000
B0427103157206S11704040EA0158901625000000000000
B0427143157232S11704131EA0159201629000000000000
B0427183157205S11704203EA0159701636000000000000
B0427223157154S11704219EA0160301640000000000000
B0427263157145S11704167EA0161601657000000000000
B0427303157203S11704133EA0163501678000000000000
B0427343157277S11704172EA0164801688000000000000
B0427383157319S11704255EA0165201695000000000000
B0427423157319S11704346EA0165501695000000000000
B0427463157283S11704418EA0165401691000000000000
B0427503157228S11704463EA0165601703000000000000
B0427543157173S11704474EA0166801713000000000000
B0427583157158S11704420EA0168501738000000000000
B0428023157224S11704392EA0171401771000000000000
B0428063157298S11704439EA0173601787000000000000
B0428103157323S11704524EA0175401806000000000000
B0428143157298S11704592EA0176801818000000000000
B0428183157253S11704615EA0177501826000000000000
B0428223157220S11704587EA0178801845000000000000
B0428263157223S11704534EA0180801862000000000000
B0428303157261S11704483EA0182201877000000000000
B0428343157328S11704459EA0183901896000000000000
B0428383157409S11704480EA0185101916000000000000
B0428423157474S11704541EA0187201937000000000000
B0428463157509S11704623EA0188801949000000000000
B0428503157510S11704709EA0189301951000000000000
B0428543157478S11704781EA0189101947000000000000
B0428583157424S11704834EA0189101948000000000000
B0429023157365S11704877EA0190001963000000000000
B0429063157301S11704916EA0190801965000000000000
B0429103157237S11704957EA0188901941000000000000
B0429143157168S11704987EA0187001925000000000000
B0429183157099S11705005EA0186001916000000000000
B0429223157034S11705021EA0185201909000000000000
B0429263156971S11705041EA0184201894000000000000
B0429303156908S11705064EA0183101883000000000000
B0429343156846S11705093EA0181801864000000000000
B0429383156782S11705130EA0179901847000000000000
B0429423156720S11705177EA0178501831000000000000
B0429463156657S11705223EA0177501821000000000000
B0429503156596S11705264EA0176101806000000000000
B0429543156536S11705310EA0174501784000000000000
B0429583156481S11705360EA0172701767000000000000
B0430023156423S11705414EA0170401745000000000000
B0430063156365S11705458EA0169801742000000000000
B0430103156313S11705498EA0169401734000000000000
B0430143156263S11705540EA0168401719000000000000
B0430183156219S11705593EA0166701701000000000000
B0430223156178S11705654EA0164701684000000000000
B0430263156124S11705705EA0163301669000000000000
B0430303156065S11705736EA0162701666000000000000
B0430343156007S11705752EA0162901667000000000000
B0430383155951S11705770EA0162201664000000000000
B0430423155897S11705795EA0162101662000000000000
B0430463155841S11705809EA0162201665000000000000
B0430503155790S11705795EA0163101678000000000000
B0430543155750S11705767EA0164601689000000000000
B0430583155703S11705782EA0165301694000000000000
B0431023155689S11705865EA0166201707000000000000
B0431063155737S11705949EA0167301721000000000000
B0431103155816S11705984EA0168501730000000000000
B0431143155886S11705964EA0168301728000000000000
B0431183155912S11705906EA0168401728000000000000
B0431223155890S11705867EA0168401728000000000000
B0431263155847S11705891EA0168501731000000000000
B0431303155823S11705965EA0168901736000000000000
B0431343155831S11706060EA0169501744000000000000
B0431383155888S11706138EA0170901760000000000000
B0431423155962S11706134EA0172401775000000000000
B0431463155992S11706084EA0172901773000000000000
B0431503155964S11706053EA0173001779000000000000
B0431543155920S11706084EA0173701788000000000000
B0431583155907S11706168EA0174801797000000000000
B0432023155959S11706250EA0176701819000000000000
B0432063156036S11706263EA0178101833000000000000
B0432103156078S11706217EA0178901845000000000000
B0432143156065S11706174EA0179601849000000000000
B0432183156020S11706186EA0180201853000000000000
B0432223155994S11706259EA0180701863000000000000
B0432263156026S11706351EA0182401885000000000000
B0432303156100S11706399EA0183801895000000000000
B0432343156178S11706394EA0184401901000000000000
B0432383156231S11706350EA0185301911000000000000
B0432423156239S11706295EA0186301923000000000000
B0432463156210S11706266EA0187101928000000000000
B0432503156166S11706285EA0187301931000000000000
B0432543156139S11706356EA0187701939000000000000
B0432583156157S11706451EA0188601949000000000000
B0433023156218S11706530EA0189701962000000000000
B0433063156292S11706538EA0191401981000000000000
B0433103156319S11706493EA0192401987000000000000
B0433143156288S11706476EA0193001992000000000000
B0433183156254S11706530EA0193802005000000000000
B0433223156275S11706621EA0195302021000000000000
B0433263156347S11706671EA0196302030000000000000
B0433303156418S11706656EA0197402040000000000000
B0433343156449S11706607EA0198002050000000000000
B0433383156434S11706572EA0199202060000000000000
B0433423156393S11706588EA0199502064000000000000
B0433463156383S11706671EA0200602076000000000000
B0433503156445S11706737EA0202102095000000000000
B0433543156512S11706719EA0203102101000000000000
B0433583156531S11706671EA0203602107000000000000
B0434023156503S11706649EA0204002112000000000000
B0434063156460S11706689EA0204702119000000000000
B0434103156452S11706783EA0205302127000000000000
B0434143156507S11706858EA0207102149000000000000
B0434183156581S11706862EA0208202160000000000000
B0434223156618S11706815EA0209002167000000000000
B0434263156603S11706773EA0209502173000000000000
B0434303156559S11706783EA0209802175000000000000
B0434343156520S11706850EA0210502186000000000000
B0434383156516S11706941EA0212002204000000000000
B0434423156566S11707019EA0213702223000000000000
B0434463156643S11707039EA0215302236000000000000
B0434503156700S11706993EA0216002244000000000000
B0434543156703S11706935EA0217102261000000000000
B0434583156663S11706918EA0218602275000000000000
B0435023156618S11706955EA0220202293000000000000
B0435063156614S11707040EA0221802311000000000000
B0435103156664S11707119EA0223602330000000000000
B0435143156742S11707149EA0225602350000000000000
B0435183156815S11707126EA0227102363000000000000
B0435223156843S11707069EA0228402377000000000000
B0435263156826S11707023EA0229502389000000000000
B0435303156778S11707024EA0231002403000000000000
B0435343156752S11707097EA0233102428000000000000
B0435383156781S11707187EA0234302446000000000000
B0435423156856S11707230EA0236402465000000000000
B0435463156925S11707205EA0237702478000000000000
B0435503156949S11707147EA0239002492000000000000
B0435543156920S11707110EA0240302506000000000000
B0435583156876S11707132EA0242202528000000000000
B0436023156863S11707217EA0243802541000000000000
B0436063156916S11707295EA0245902567000000000000
B0436103156991S11707303EA0247502582000000000000
B0436143157043S11707257EA0248502590000000000000
B0436183157043S11707200EA0249602607000000000000
B0436223157002S11707183EA0251202621000000000000
B0436263156954S11707215EA0252102629000000000000
B0436303156929S11707299EA0253702650000000000000
B0436343156972S11707381EA0256302679000000000000
B0436383157045S11707384EA0258802703000000000000
B0436423157086S11707335EA0260702723000000000000
B0436463157080S11707287EA0262402739000000000000
B0436503157038S11707278EA0263402748000000000000
B0436543156998S11707327EA0264202759000000000000
B0436583157006S11707423EA0266902792000000000000
B0437023157064S11707494EA0268902816000000000000
B0437063157140S11707505EA0271202840000000000000
B0437103157194S11707465EA0273502861000000000000
B0437143157203S11707412EA0275002877000000000000
B0437183157175S11707384EA0276402888000000000000
B0437223157132S11707405EA0277402895000000000000
B0437263157098S11707470EA0278002902000000000000
B0437303157105S11707565EA0279702926000000000000
B0437343157172S11707618EA0282702960000000000000
B0437383157235S11707596EA0285302983000000000000
B0437423157242S11707544EA0287803009000000000000
B0437463157205S11707533EA0289603023000000000000
B0437503157164S11707587EA0291003040000000000000
B0437543157171S11707681EA0292803065000000000000
B0437583157235S11707746EA0295303090000000000000
B0438023157313S11707748EA0297603115000000000000
B0438063157362S11707703EA0299603136000000000000
B0438103157368S11707644EA0302203163000000000000
B0438143157336S11707611EA0303603171000000000000
B0438183157288S11707624EA0304203180000000000000
B0438223157248S11707685EA0305003187000000000000
B0438263157255S11707774EA0307003213000000000000
B0438303157319S11707841EA0309003231000000000000
B0438343157401S11707845EA0311203254000000000000
B0438383157453S11707795EA0312803277000000000000
B0438423157461S11707734EA0314503291000000000000
B0438463157432S11707694EA0315203295000000000000
B0438503157381S11707706EA0315903299000000000000
B0438543157352S11707782EA0316503311000000000000
B0438583157388S11707872EA0318303332000000000000
B0439023157469S11707904EA0320503355000000000000
B0439063157545S11707881EA0322403372000000000000
B0439103157583S11707825EA0323903388000000000000
B0439143157578S11707774EA0324503391000000000000
B0439183157540S11707754EA0324303386000000000000
B0439223157493S11707786EA0324103384000000000000
B0439263157472S11707872EA0324203384000000000000
B0439303157500S11707973EA0324003386000000000000
B0439343157552S11708068EA0325303406000000000000
B0439383157634S11708105EA0328203437000000000000
B0439423157699S11708071EA0330603462000000000000
B0439463157714S11708018EA0332203477000000000000
B0439503157687S11707993EA0333103479000000000000
B0439543157640S11708019EA0332503472000000000000
B0439583157609S11708101EA0333003481000000000000
B0440023157619S11708205EA0333503488000000000000
B0440063157671S11708301EA0335403509000000000000
B0440103157753S11708341EA0337703543000000000000
B0440143157810S11708302EA0341203576000000000000
B0440183157810S11708249EA0343303593000000000000
B0440223157773S11708235EA0344903608000000000000
B0440263157739S11708288EA0346003616000000000000
B0440303157751S11708379EA0346603626000000000000
B0440343157813S11708448EA0348203642000000000000
B0440383157894S11708463EA0350803672000000000000
B0440423157952S11708430EA0353303699000000000000
B0440463157972S11708376EA0354503708000000000000
B0440503157951S11708332EA0355203717000000000000
B0440543157908S11708313EA0355803724000000000000
B0440583157860S11708307EA0356203723000000000000
B0441023157804S11708309EA0355603713000000000000
B0441063157743S11708314EA0354403700000000000000
B0441103157678S11708322EA0353303687000000000000
B0441143157610S11708331EA0351903677000000000000
B0441183157541S11708341EA0351403667000000000000
B0441223157470S11708353EA0350303658000000000000
B0441263157394S11708363EA0349203648000000000000
B0441303157318S11708371EA0348603638000000000000
B0441343157240S11708380EA0347103620000000000000
B0441383157162S11708392EA0345503605000000000000
B0441423157084S11708405EA0344303597000000000000
B0441463157007S11708419EA0344503604000000000000
B0441503156934S11708431EA0345703620000000000000
B0441543156865S11708443EA0347003632000000000000
B0441583156794S11708456EA0347803638000000000000
B0442023156724S11708470EA0349303654000000000000
B0442063156652S11708486EA0350503674000000000000
B0442103156581S11708505EA0352403690000000000000
B0442143156507S11708523EA0352803688000000000000
B0442183156429S11708540EA0353303689000000000000
B0442223156348S11708557EA0354403706000000000000
B0442263156274S11708574EA0356903731000000000000
B0442303156198S11708591EA0356603721000000000000
B0442343156120S11708605EA0355003708000000000000
B0442383156045S11708621EA0354703706000000000000
B0442423155970S11708635EA0354403698000000000000
B0442463155893S11708649EA0353603684000000000000
B0442503155814S11708661EA0352303672000000000000
B0442543155733S11708673EA0351203663000000000000
B0442583155654S11708686EA0350703657000000000000
B0443023155574S11708700EA0349703645000000000000
B0443063155494S11708714EA0348303633000000000000
B0443103155412S11708730EA0347503624000000000000
B0443143155330S11708744EA0346403616000000000000
B0443183155248S11708761EA0346003610000000000000
B0443223155170S11708777EA0345703608000000000000
B0443263155092S11708792EA0345303602000000000000
B0443303155015S11708807EA0344503594000000000000
B0443343154939S11708818EA0344103589000000000000
B0443383154865S11708830EA0343903589000000000000
B0443423154793S11708840EA0343903588000000000000
B0443463154724S11708852EA0343703588000000000000
B0443503154657S11708864EA0343503583000000000000
B0443543154588S11708873EA0343003578000000000000
B0443583154520S11708882EA0342403568000000000000
B0444023154449S11708891EA0341503559000000000000
B0444063154375S11708900EA0340803550000000000000
B0444103154298S11708918EA0339803542000000000000
B0444143154222S11708948EA0339303536000000000000
B0444183154148S11708990EA0338203528000000000000
B0444223154073S11709037EA0337303514000000000000
B0444263153999S11709091EA0335703500000000000000
B0444303153926S11709147EA0334803492000000000000
B0444343153853S11709204EA0333903476000000000000
B0444383153782S11709263EA0332703468000000000000
B0444423153712S11709323EA0331703455000000000000
B0444463153643S11709380EA0330803447000000000000
B0444503153572S11709435EA0329903437000000000000
B0444543153502S11709488EA0328903426000000000000
B0444583153431S11709542EA0327903418000000000000
B0445023153362S11709594EA0327103412000000000000
B0445063153293S11709646EA0326603411000000000000
B0445103153225S11709696EA0326503406000000000000
B0445143153158S11709745EA0325703398000000000000
B0445183153090S11709792EA0325103391000000000000
B0445223153023S11709840EA0324403382000000000000
B0445263152955S11709888EA0323603376000000000000
B0445303152889S11709938EA0323003368000000000000
B0445343152824S11709984EA0321903353000000000000
B0445383152755S11710033EA0319603325000000000000
B0445423152681S11710078EA0318003315000000000000
B0445463152607S11710122EA0317503311000000000000
B0445503152534S11710165EA0317203311000000000000
B0445543152466S11710209EA0317003307000000000000
B0445583152396S11710251EA0316403300000000000000
B0446023152327S11710293EA0316303301000000000000
B0446063152259S11710339EA0315603289000000000000
B0446103152191S11710391EA0314503277000000000000
B0446143152122S11710439EA0314003277000000000000
B0446183152055S11710488EA0313903273000000000000
B0446223151988S11710537EA0312703255000000000000
B0446263151916S11710585EA0310803237000000000000
B0446303151843S11710632EA0309803225000000000000
B0446343151769S11710679EA0308703219000000000000
B0446383151699S11710723EA0308003209000000000000
B0446423151629S11710766EA0306903195000000000000
B0446463151559S11710809EA0305603179000000000000
B0446503151489S11710854EA0304103164000000000000
B0446543151418S11710902EA0303203153000000000000
B0446583151348S11710950EA0301903140000000000000
B0447023151278S11710997EA0300303131000000000000
B0447063151210S11711040EA0299203123000000000000
B0447103151143S11711086EA0298003108000000000000
B0447143151076S11711128EA0297203101000000000000
B0447183151013S11711167EA0296403092000000000000
B0447223150948S11711209EA0295203075000000000000
B0447263150881S11711251EA0293803060000000000000
B0447303150814S11711290EA0292303048000000000000
B0447343150748S11711322EA0291703041000000000000
B0447383150685S11711355EA0291503040000000000000
B0447423150625S11711388EA0291603043000000000000
B0447463150569S11711426EA0291403041000000000000
B0447503150515S11711468EA0291203040000000000000
B0447543150460S11711507EA0291503043000000000000
B0447583150407S11711541EA0291503042000000000000
B0448023150354S11711573EA0291903046000000000000
B0448063150303S11711602EA0292203049000000000000
B0448103150251S11711630EA0292003049000000000000
B0448143150202S11711664EA0292403053000000000000
B0448183150157S11711712EA0293003061000000000000
B0448223150117S11711767EA0293503066000000000000
B0448263150081S11711828EA0293803070000000000000
B0448303150046S11711894EA0294203073000000000000
B0448343150008S11711963EA0294203074000000000000
B0448383149966S11712027EA0294703084000000000000
B0448423149922S11712081EA0295403089000000000000
B0448463149875S11712133EA0295303087000000000000
B0448503149825S11712178EA0295503089000000000000
B0448543149770S11712217EA0295403087000000000000
B0448583149721S11712261EA0296303099000000000000
B0449023149697S11712335EA0296803099000000000000
B0449063149728S11712421EA0296703095000000000000
B0449103149805S11712467EA0296503096000000000000
B0449143149887S11712454EA0296803100000000000000
B0449183149948S11712401EA0297403105000000000000
B0449223149979S11712334EA0297503106000000000000
B0449263149978S11712263EA0297703108000000000000
B0449303149945S11712215EA0297603106000000000000
B0449343149890S11712207EA0297403106000000000000
B0449383149830S11712232EA0297503107000000000000
B0449423149770S11712278EA0297203102000000000000
B0449463149710S11712334EA0296303092000000000000
B0449503149649S11712393EA0296103096000000000000
B0449543149588S11712456EA0296803104000000000000
B0449583149537S11712525EA0298103113000000000000
B0450023149502S11712609EA0297203101000000000000
B0450063149455S11712691EA0296103090000000000000
B0450103149401S11712764EA0295503086000000000000
B0450143149342S11712829EA0295503087000000000000
B0450183149281S11712891EA0295103081000000000000
B0450223149216S11712943EA0295603091000000000000
B0450263149159S11712989EA0297703119000000000000
B0450303149107S11713036EA0299503136000000000000
B0450343149056S11713089EA0300803146000000000000
B0450383149006S11713143EA0301303150000000000000
B0450423148960S11713205EA0301303152000000000000
B0450463148913S11713267EA0300903144000000000000
B0450503148860S11713329EA0299803130000000000000
B0450543148803S11713390EA0298703118000000000000
B0450583148742S11713446EA0298003112000000000000
B0451023148678S11713505EA0297103103000000000000
B0451063148613S11713562EA0296603104000000000000
B0451103148548S11713619EA0297003105000000000000
B0451143148487S11713679EA0297603116000000000000
B0451183148432S11713747EA0298703125000000000000
B0451223148415S11713844EA0300803152000000000000
B0451263148467S11713929EA0303503179000000000000
B0451303148549S11713964EA0305103192000000000000
B0451343148627S11713942EA0305903197000000000000
B0451383148677S11713884EA0306003195000000000000
B0451423148681S11713817EA0306103197000000000000
B0451463148645S11713775EA0306703206000000000000
B0451503148597S11713779EA0307903217000000000000
B0451543148565S11713836EA0308403219000000000000
B0451583148574S11713929EA0307903218000000000000
B0452023148625S11714016EA0308103219000000000000
B0452063148704S11714079EA0308503222000000000000
B0452103148794S11714095EA0309103226000000000000
B0452143148865S11714057EA0310003233000000000000
B0452183148896S11713996EA0310203233000000000000
B0452223148890S11713934EA0310003233000000000000
B0452263148853S11713896EA0310303237000000000000
B0452303148803S11713890EA0310403239000000000000
B0452343148747S11713912EA0310703241000000000000
B0452383148699S11713964EA0310503241000000000000
B0452423148669S11714046EA0310403238000000000000
B0452463148670S11714146EA0310603246000000000000
B0452503148709S11714243EA0312003259000000000000
B0452543148772S11714326EA0312903269000000000000
B0452583148859S11714385EA0313203266000000000000
B0453023148957S11714404EA0313903276000000000000
B0453063149042S11714380EA0314803289000000000000
B0453103149095S11714324EA0315503298000000000000
B0453143149115S11714259EA0315903297000000000000
B0453183149110S11714190EA0315303288000000000000
B0453223149084S11714130EA0315103290000000000000
B0453263149041S11714092EA0315603297000000000000
B0453303148989S11714081EA0316603306000000000000
B0453343148935S11714103EA0315903299000000000000
B0453383148878S11714142EA0315303293000000000000
B0453423148820S11714180EA0316103302000000000000
B0453463148766S11714215EA0316903314000000000000
B0453503148716S11714255EA0317103312000000000000
B0453543148660S11714302EA0317003316000000000000
B0453583148604S11714350EA0318003330000000000000
B0454023148554S11714408EA0319703349000000000000
B0454063148515S11714477EA0321303364000000000000
B0454103148479S11714545EA0322403374000000000000
B0454143148437S11714603EA0322503372000000000000
B0454183148391S11714659EA0321903365000000000000
B0454223148343S11714723EA0321403361000000000000
B0454263148294S11714792EA0321403365000000000000
B0454303148252S11714858EA0322503380000000000000
B0454343148213S11714923EA0323603388000000000000
B0454383148174S11714987EA0323603384000000000000
B0454423148127S11715051EA0322803372000000000000
B0454463148075S11715116EA0321803365000000000000
B0454503148016S11715173EA0321103358000000000000
B0454543147953S11715222EA0320603354000000000000
B0454583147886S11715272EA0320203351000000000000
B0455023147823S11715321EA0320303348000000000000
B0455063147759S11715373EA0319803344000000000000
B0455103147696S11715428EA0319103333000000000000
B0455143147633S11715481EA0318403333000000000000
B0455183147569S11715533EA0319003339000000000000
B0455223147507S11715584EA0319303341000000000000
B0455263147446S11715633EA0320003349000000000000
B0455303147384S11715685EA0322103374000000000000
B0455343147349S11715763EA0324603395000000000000
B0455383147364S11715860EA0325503405000000000000
B0455423147422S11715940EA0325903405000000000000
B0455463147505S11715967EA0325903404000000000000
B0455503147577S11715938EA0325403398000000000000
B0455543147607S11715879EA0325403401000000000000
B0455583147595S11715825EA0325503401000000000000
B0456023147552S11715797EA0326103409000000000000
B0456063147495S11715805EA0326903417000000000000
B0456103147434S11715838EA0327303422000000000000
B0456143147371S11715886EA0327503425000000000000
B0456183147306S11715941EA0328003433000000000000
B0456223147241S11715996EA0328403433000000000000
B0456263147175S11716050EA0328203434000000000000
B0456303147110S11716106EA0328203427000000000000
B0456343147043S11716162EA0326903415000000000000
B0456383146974S11716213EA0325903407000000000000
B0456423146906S11716260EA0325403398000000000000
B0456463146837S11716306EA0324703396000000000000
B0456503146770S11716354EA0324603393000000000000
B0456543146702S11716405EA0324003388000000000000
B0456583146634S11716458EA0323703383000000000000
B0457023146565S11716513EA0323203378000000000000
B0457063146499S11716566EA0323203377000000000000
B0457103146433S11716614EA0323203379000000000000
B0457143146369S11716666EA0322503370000000000000
B0457183146304S11716718EA0321703363000000000000
B0457223146239S11716772EA0320403345000000000000
B0457263146172S11716829EA0319103332000000000000
B0457303146103S11716889EA0318403329000000000000
B0457343146035S11716950EA0318203327000000000000
B0457383145969S11717006EA0318203331000000000000
B0457423145904S11717056EA0319103338000000000000
B0457463145840S11717110EA0318503330000000000000
B0457503145770S11717162EA0317803323000000000000
B0457543145698S11717211EA0317403318000000000000
B0457583145626S11717258EA0317203316000000000000
B0458023145551S11717303EA0317103315000000000000
B0458063145476S11717348EA0317003317000000000000
B0458103145398S11717392EA0316803310000000000000
B0458143145319S11717436EA0316403308000000000000
B0458183145238S11717480EA0316103303000000000000
B0458223145159S11717522EA0316103306000000000000
B0458263145082S11717565EA0317003316000000000000
B0458303145013S11717610EA0318203332000000000000
B0458343144947S11717657EA0319803354000000000000
B0458383144899S11717727EA0322603386000000000000
B0458423144908S11717823EA0326203413000000000000
B0458463144974S11717890EA0327703431000000000000
B0458503145052S11717885EA0329003443000000000000
B0458543145087S11717831EA0329603447000000000000
B0458583145061S11717791EA0329903449000000000000
B0459023145008S11717805EA0330603460000000000000
B0459063144953S11717847EA0331003460000000000000
B0459103144892S11717900EA0331003460000000000000
B0459143144831S11717955EA0331803470000000000000
B0459183144769S11718013EA0331903466000000000000
B0459223144703S11718072EA0331103463000000000000
B0459263144636S11718130EA0330903461000000000000
B0459303144566S11718187EA0330903461000000000000
B0459343144496S11718241EA0330803457000000000000
B0459383144426S11718295EA0329803448000000000000
B0459423144357S11718351EA0329003441000000000000
B0459463144288S11718412EA0328003428000000000000
B0459503144220S11718477EA0327503424000000000000
B0459543144154S11718544EA0327203422000000000000
B0459583144089S11718609EA0327003419000000000000
B0500023144023S11718668EA0326503412000000000000
B0500063143956S11718728EA0325903406000000000000
B0500103143891S11718793EA0325103395000000000000
B0500143143829S11718860EA0324203389000000000000
B0500183143767S11718923EA0323903385000000000000
B0500223143705S11718987EA0323603383000000000000
B0500263143647S11719051EA0323203376000000000000
B0500303143590S11719116EA0322303366000000000000
B0500343143530S11719178EA0321203357000000000000
B0500383143470S11719239EA0320403346000000000000
B0500423143408S11719296EA0319503336000000000000
B0500463143345S11719357EA0318203321000000000000
B0500503143284S11719425EA0317003312000000000000
B0500543143224S11719495EA0316403306000000000000
B0500583143167S11719568EA0315703296000000000000
B0501023143109S11719641EA0314003275000000000000
B0501063143045S11719712EA0312303257000000000000
B0501103142980S11719781EA0310803243000000000000
B0501143142914S11719849EA0309703236000000000000
B0501183142849S11719914EA0309303228000000000000
B0501223142785S11719980EA0308103217000000000000
B0501263142720S11720044EA0306903206000000000000
B0501303142654S11720104EA0305403191000000000000
B0501343142585S11720160EA0304803180000000000000
B0501383142519S11720215EA0303703170000000000000
B0501423142452S11720271EA0302403153000000000000
B0501463142387S11720327EA0300703134000000000000
B0501503142322S11720381EA0299003122000000000000
B0501543142260S11720435EA0298203110000000000000
B0501583142199S11720487EA0296903095000000000000
B0502023142138S11720543EA0295103076000000000000
B0502063142075S11720599EA0294103068000000000000
B0502103142015S11720654EA0293903070000000000000
B0502143141961S11720707EA0294303075000000000000
B0502183141909S11720760EA0294803082000000000000
B0502223141862S11720823EA0295703090000000000000
B0502263141820S11720890EA0296103094000000000000
B0502303141780S11720959EA0296303095000000000000
B0502343141741S11721031EA0296603100000000000000
B0502383141702S11721102EA0297203106000000000000
B0502423141662S11721172EA0297703110000000000000
B0502463141636S11721258EA0298303119000000000000
B0502503141657S11721356EA0299203126000000000000
B0502543141727S11721428EA0299403125000000000000
B0502583141815S11721443EA0299903136000000000000
B0503023141887S11721405EA0301403152000000000000
B0503063141922S11721340EA0302503166000000000000
B0503103141915S11721276EA0303203167000000000000
B0503143141875S11721242EA0302703161000000000000
B0503183141822S11721267EA0303203169000000000000
B0503223141788S11721341EA0303903176000000000000
B0503263141791S11721436EA0304503181000000000000
B0503303141835S11721527EA0304703184000000000000
B0503343141905S11721595EA0305203188000000000000
B0503383141988S11721616EA0305903195000000000000
B0503423142058S11721584EA0306803206000000000000
B0503463142088S11721518EA0308203224000000000000
B0503503142077S11721460EA0309603233000000000000
B0503543142036S11721426EA0310203238000000000000
B0503583141987S11721435EA0310803246000000000000
B0504023141950S11721492EA0311303251000000000000
B0504063141944S11721579EA0311203249000000000000
B0504103141974S11721675EA0311603252000000000000
B0504143142038S11721752EA0312103257000000000000
B0504183142121S11721787EA0312603265000000000000
B0504223142201S11721770EA0313703273000000000000
B0504263142249S11721714EA0314403283000000000000
B0504303142256S11721645EA0315203291000000000000
B0504343142225S11721597EA0316403305000000000000
B0504383142174S11721591EA0317003309000000000000
B0504423142129S11721634EA0317103312000000000000
B0504463142108S11721716EA0317403316000000000000
B0504503142129S11721811EA0317903324000000000000
B0504543142188S11721883EA0319303337000000000000
B0504583142266S11721917EA0320003340000000000000
B0505023142344S11721902EA0320503346000000000000
B0505063142394S11721848EA0321203352000000000000
B0505103142404S11721779EA0321203355000000000000
B0505143142381S11721718EA0321603359000000000000
B0505183142334S11721687EA0322203366000000000000
B0505223142281S11721703EA0322903376000000000000
B0505263142248S11721773EA0324003385000000000000
B0505303142259S11721865EA0324703394000000000000
B0505343142316S11721942EA0325603403000000000000
B0505383142396S11721977EA0326303409000000000000
B0505423142476S11721959EA0327203419000000000000
B0505463142528S11721904EA0327903425000000000000
B0505503142546S11721835EA0328103428000000000000
B0505543142529S11721769EA0328303427000000000000
B0505583142487S11721726EA0328603433000000000000
B0506023142430S11721722EA0329203441000000000000
B0506063142379S11721765EA0330103453000000000000
B0506103142357S11721846EA0331403466000000000000
B0506143142385S11721935EA0332903479000000000000
B0506183142455S11721991EA0334103489000000000000
B0506223142534S11721990EA0334803498000000000000
B0506263142590S11721942EA0335703508000000000000
B0506303142608S11721878EA0336503514000000015000
B0506343142590S11721825EA0336803518000000015000
B0506383142547S11721799EA0337103520000000015000
B0506423142496S11721817EA0337303526000000000000
B0506463142468S11721889EA0338803543000000000000
B0506503142493S11721981EA0339803551000000000000
B0506543142563S11722047EA0340803558000000000000
B0506583142650S11722055EA0341903569000000000000
B0507023142714S11722007EA0342403573000000000000
B0507063142737S11721934EA0342603577000000000000
B0507103142720S11721868EA0342803577000000000000
B0507143142673S11721842EA0343603591000000000000
B0507183142620S11721859EA0344703602000000000000
B0507223142573S11721909EA0345003605000000000000
B0507263142525S11721970EA0345003608000000000000
B0507303142473S11722032EA0345703618000000000000
B0507343142420S11722093EA0346703628000000000000
B0507383142366S11722155EA0347803638000000000000
B0507423142311S11722214EA0347803638000000000000
B0507463142253S11722272EA0348203643000000000000
B0507503142197S11722331EA0347503631000000000000
B0507543142140S11722386EA0346903625000000000000
B0507583142082S11722440EA0346103617000000000000
B0508023142023S11722493EA0345403609000000000000
B0508063141963S11722545EA0344903607000000000000
B0508103141905S11722594EA0344503600000000000000
B0508143141844S11722643EA0343903593000000000000
B0508183141787S11722693EA0344003597000000000000
B0508223141729S11722745EA0343703594000000000000
B0508263141674S11722795EA0343203588000000000000
B0508303141620S11722845EA0342703582000000000000
B0508343141567S11722899EA0341703571000000000000
B0508383141512S11722952EA0340603559000000000000
B0508423141455S11723001EA0339703548000000000000
B0508463141398S11723053EA0339103543000000000000
B0508503141343S11723107EA0339003544000000000000
B0508543141287S11723161EA0338603536000000000000
B0508583141228S11723215EA0337803531000000000000
B0509023141168S11723270EA0337603529000000000000
B0509063141109S11723325EA0337503527000000000000
B0509103141052S11723380EA0337603529000000000000
B0509143140999S11723434EA0338403543000000000000
B0509183140951S11723488EA0339503554000000000000
B0509223140905S11723542EA0340003558000000000000
B0509263140862S11723601EA0340403564000000000000
B0509303140822S11723662EA0341203574000000000000
B0509343140782S11723720EA0342003583000000000000
B0509383140741S11723772EA0342603583000000000000
B0509423140697S11723823EA0341903576000000000000
B0509463140650S11723875EA0341803576000000000000
B0509503140602S11723926EA0342103582000000000000
B0509543140553S11723966EA0342703592000000000000
B0509583140505S11724006EA0343503600000000000000
B0510023140458S11724047EA0344403606000000000000
B0510063140413S11724087EA0344803609000000000000
B0510103140364S11724128EA0344703607000000000000
B0510143140316S11724170EA0344503606000000000000
B0510183140266S11724213EA0344803609000000000000
B0510223140212S11724253EA0344303603000000000000
B0510263140159S11724294EA0343903597000000000000
B0510303140103S11724334EA0343603594000000000000
B0510343140050S11724374EA0344003603000000000000
B0510383139999S11724417EA0345003616000000000000
B0510423139952S11724463EA0346403632000000000000
B0510463139908S11724516EA0347603645000000000000
B0510503139867S11724576EA0348903660000000000000
B0510543139825S11724635EA0349803666000000000000
B0510583139785S11724695EA0350903681000000000000
B0511023139746S11724751EA0352603701000000000000
B0511063139707S11724799EA0354503715000000000000
B0511103139666S11724845EA0355403723000000000000
B0511143139625S11724889EA0355803724000000000000
B0511183139584S11724934EA0355603724000000000000
B0511223139540S11724981EA0355603720000000000000
B0511263139493S11725032EA0355203714000000000000
B0511303139445S11725084EA0355003717000000000000
B0511343139396S11725131EA0355303720000000000000
B0511383139345S11725167EA0356003730000000000000
B0511423139295S11725202EA0357203747000000000000
B0511463139246S11725237EA0358903764000000000000
B0511503139198S11725275EA0360003774000000000000
B0511543139146S11725311EA0360703780000000000000
B0511583139094S11725349EA0361003779000000000000
B0512023139038S11725392EA0360803778000000000000
B0512063138983S11725436EA0360603776000000000000
B0512103138927S11725484EA0360903781000000000000
B0512143138873S11725534EA0361403787000000000000
B0512183138817S11725579EA0362003793000000000000
B0512223138763S11725625EA0361803787000000000000
B0512263138706S11725673EA0361603787000000000000
B0512303138651S11725725EA0361803787000000000000
B0512343138613S11725798EA0362503795000000000000
B0512383138606S11725891EA0363103802000000000000
B0512423138639S11725989EA0363603806000000000000
B0512463138713S11726067EA0363803803000000000000
B0512503138814S11726112EA0362903796000000000000
B0512543138920S11726129EA0362303788000000000000
B0512583139031S11726125EA0361603783000000000000
B0513023139139S11726110EA0361003775000000000000
B0513063139246S11726091EA0360703772000000000000
B0513103139352S11726073EA0360803777000000000000
B0513143139456S11726062EA0361603789000000000000
B0513183139556S11726055EA0362803800000000000000
B0513223139656S11726051EA0363603810000000000000
B0513263139756S11726051EA0364503817000000000000
B0513303139856S11726051EA0365003824000000000000
B0513343139958S11726051EA0366003834000000000000
B0513383140058S11726049EA0366503836000000000000
B0513423140159S11726045EA0367003844000000000000
B0513463140263S11726041EA0367903852000000000000
B0513503140367S11726036EA0368503859000000000000
B0513543140470S11726028EA0369403868000000000000
B0513583140574S11726019EA0370203878000000000000
B0514023140678S11726008EA0370803884000000000000
B0514063140786S11725997EA0370903880000000000000
B0514103140900S11725985EA0370203872000000000000
B0514143141018S11725977EA0369803867000000000000
B0514183141138S11725972EA0369303861000000000000
B0514223141258S11725965EA0369003859000000000000
B0514263141377S11725961EA0368803856000000000000
B0514303141495S11725955EA0368703855000000000000
B0514343141612S11725948EA0368703856000000000000
B0514383141727S11725943EA0369103858000000000000
B0514423141840S11725941EA0369103864000000000000
B0514463141952S11725935EA0369503866000000000000
B0514503142061S11725932EA0369603870000000000000
B0514543142170S11725930EA0369803871000000000000
B0514583142278S11725929EA0369903875000000000000
B0515023142387S11725930EA0370703880000000000000
B0515063142494S11725932EA0371203887000000000000
B0515103142598S11725930EA0371903893000000000000
B0515143142701S11725925EA0372403900000000000000
B0515183142801S11725920EA0373003903000000000000
B0515223142902S11725915EA0372803901000000000000
B0515263143003S11725909EA0372603899000000000000
B0515303143104S11725903EA0372503898000000000000
B0515343143205S11725896EA0372503898000000000000
B0515383143306S11725885EA0373003908000000000000
B0515423143404S11725874EA0374903931000000000000
B0515463143501S11725867EA0376603946000000000000
B0515503143598S11725860EA0377803957000000000000
B0515543143695S11725850EA0378203961000000000000
B0515583143793S11725834EA0378503962000000000000
B0516023143894S11725817EA0378403961000000000000
B0516063143997S11725802EA0378303958000000000000
B0516103144102S11725790EA0377703946000000000000
B0516143144222S11725787EA0375603920000000000000
B0516183144350S11725794EA0373503900000000000000
B0516223144484S11725807EA0372103887000000000000
B0516263144619S11725822EA0371303882000000000000
B0516303144752S11725842EA0371003879000000000000
B0516343144881S11725863EA0370803879000000000000
B0516383145009S11725886EA0371703888000000000000
B0516423145133S11725909EA0372803903000000000000
B0516463145255S11725921EA0373403911000000000000
B0516503145375S11725926EA0374103916000000000000
B0516543145493S11725932EA0374203918000000000000
B0516583145609S11725937EA0374803928000000000000
B0517023145723S11725939EA0376203942000000000000
B0517063145835S11725938EA0377103947000000000000
B0517103145948S11725929EA0377903963000000000000
B0517143146060S11725920EA0379003970000000000000
B0517183146174S11725912EA0379903981000000000000
B0517223146290S11725908EA0381203993000000000000
B0517263146406S11725908EA0382704010000000000000
B0517303146520S11725908EA0384604032000000000000
B0517343146634S11725906EA0387004061000000000000
B0517383146746S11725899EA0389304082000000000000
B0517423146855S11725889EA0390504087000000000000
B0517463146967S11725874EA0390404082000000000000
B0517503147080S11725857EA0389904075000000000000
B0517543147195S11725835EA0389504071000000000000
B0517583147310S11725815EA0388904064000000000000
B0518023147427S11725794EA0388504061000000000000
B0518063147544S11725773EA0388204058000000000000
B0518103147661S11725752EA0387604052000000000000
B0518143147777S11725729EA0386804042000000000000
B0518183147893S11725705EA0386204040000000000000
B0518223148006S11725683EA0385804032000000000000
B0518263148118S11725662EA0385304027000000000000
B0518303148227S11725642EA0385104030000000000000
B0518343148333S11725623EA0385504033000000000000
B0518383148439S11725605EA0385104026000000000000
B0518423148543S11725583EA0384204018000000000000
B0518463148644S11725558EA0383804012000000000000
B0518503148748S11725532EA0382804006000000000000
B0518543148852S11725510EA0382604003000000000000
B0518583148957S11725491EA0382704003000000000000
B0519023149061S11725478EA0382604001000000000000
B0519063149168S11725465EA0381803989000000000000
B0519103149275S11725449EA0380503979000000000000
B0519143149384S11725430EA0379403964000000000000
B0519183149496S11725412EA0378503956000000000000
B0519223149607S11725393EA0378003953000000000000
B0519263149717S11725375EA0377903954000000000000
B0519303149826S11725357EA0378103953000000000000
B0519343149931S11725339EA0377803952000000000000
B0519383150035S11725322EA0377503949000000000000
B0519423150138S11725302EA0377403945000000000000
B0519463150238S11725282EA0376703938000000000000
B0519503150337S11725256EA0376403936000000000000
B0519543150433S11725226EA0376203935000000000000
B0519583150525S11725192EA0375703930000000000000
B0520023150616S11725158EA0375303923000000000000
B0520063150707S11725127EA0375203922000000000000
B0520103150798S11725100EA0374903922000000000000
B0520143150891S11725076EA0374603915000000000000
B0520183150984S11725054EA0373503899000000000000
B0520223151080S11725031EA0372203886000000000000
B0520263151177S11725002EA0371103876000000000000
B0520303151273S11724976EA0371203881000000000000
B0520343151370S11724958EA0371303887000000000000
B0520383151466S11724944EA0372303899000000000000
B0520423151559S11724934EA0373203905000000000000
B0520463151654S11724925EA0373703912000000000000
B0520503151749S11724914EA0374403919000000000000
B0520543151845S11724901EA0374903924000000000000
B0520583151945S11724886EA0375003923000000000000
B0521023152046S11724872EA0375503929000000000000
B0521063152150S11724860EA0376103938000000000000
B0521103152257S11724846EA0376603939000000000000
B0521143152367S11724829EA0376603938000000000000
B0521183152480S11724814EA0376603941000000000000
B0521223152594S11724795EA0376803944000000000000
B0521263152704S11724778EA0377703952000000000000
B0521303152815S11724760EA0377703951000000000000
B0521343152924S11724742EA0377603950000000000000
B0521383153032S11724721EA0377403948000000000000
B0521423153141S11724700EA0377603949000000000000
B0521463153250S11724677EA0377403947000000000000
B0521503153359S11724651EA0377303941000000000000
B0521543153468S11724617EA0376603934000000000000
B0521583153576S11724582EA0375703923000000000000
B0522023153680S11724543EA0374703912000000000000
B0522063153786S11724503EA0373903903000000000000
B0522103153890S11724464EA0373003894000000000000
B0522143153992S11724421EA0371903884000000000000
B0522183154092S11724378EA0371503880000000000000
B0522223154190S11724335EA0370903875000000000000
B0522263154287S11724296EA0370203862000000000000
B0522303154385S11724255EA0368803849000000000000
B0522343154482S11724209EA0367303833000000000000
B0522383154579S11724154EA0365803817000000000000
B0522423154672S11724096EA0364603802000000000000
B0522463154763S11724032EA0363603793000000000000
B0522503154850S11723963EA0362503780000000000000
B0522543154937S11723893EA0362003782000000000000
B0522583155023S11723822EA0361803777000000000000
B0523023155106S11723748EA0361303771000000000000
B0523063155187S11723672EA0360903767000000000000
B0523103155266S11723594EA0360403764000000000000
B0523143155340S11723515EA0360403765000000000000
B0523183155412S11723437EA0360103760000000000000
B0523223155485S11723358EA0359203750000000000000
B0523263155558S11723276EA0358103735000000000000
B0523303155633S11723194EA0357103730000000000000
B0523343155708S11723113EA0356503722000000000000
B0523383155784S11723030EA0355703712000000000000
B0523423155859S11722945EA0355303711000000000000
B0523463155937S11722861EA0354103689000000000000
B0523503156011S11722775EA0352603680000000000000
B0523543156085S11722687EA0351103663000000000000
B0523583156156S11722596EA0350303657000000000000
B0524023156227S11722506EA0349003639000000000000
B0524063156302S11722414EA0347403622000000000000
B0524103156377S11722321EA0346403614000000000000
B0524143156449S11722229EA0345203596000000000000
B0524183156521S11722137EA0344203591000000000000
B0524223156590S11722050EA0343903587000000000000
B0524263156657S11721961EA0342803575000000000000
B0524303156725S11721873EA0341203557000000000000
B0524343156793S11721783EA0340003547000000000000
B0524383156859S11721692EA0339403540000000000000
B0524423156926S11721603EA0338403525000000000000
B0524463156995S11721514EA0337303518000000000000
B0524503157064S11721428EA0337003513000000000000
B0524543157133S11721343EA0336603512000000000000
B0524583157201S11721258EA0336203506000000000000
B0525023157271S11721174EA0335703501000000000000
B0525063157341S11721085EA0335303497000000000000
B0525103157409S11721001EA0335503500000000000000
B0525143157475S11720917EA0335703502000000000000
B0525183157541S11720836EA0335203488000000000000
B0525223157610S11720752EA0334303484000000000000
B0525263157678S11720667EA0333103468000000000000
B0525303157748S11720581EA0332603466000000000000
B0525343157818S11720495EA0331603453000000000000
B0525383157888S11720407EA0330503443000000000000
B0525423157960S11720316EA0330203444000000000000
B0525463158029S11720226EA0330503445000000000000
B0525503158096S11720137EA0330203441000000000000
B0525543158159S11720052EA0330403452000000000000
B0525583158221S11719971EA0330403444000000000000
B0526023158281S11719888EA0329503435000000000000
B0526063158342S11719805EA0328903427000000000000
B0526103158403S11719725EA0328803431000000000000
B0526143158463S11719647EA0328903430000000000000
B0526183158522S11719567EA0328703426000000000000
B0526223158580S11719486EA0327703413000000000000
B0526263158637S11719402EA0326103397000000000000
B0526303158696S11719315EA0325103385000000000000
B0526343158757S11719226EA0323903376000000000000
B0526383158818S11719138EA0323703374000000000000
B0526423158878S11719049EA0323303371000000000000
B0526463158938S11718961EA0322903368000000000000
B0526503158996S11718875EA0322403361000000000000
B0526543159053S11718788EA0321503348000000000000
B0526583159112S11718704EA0320603339000000000000
B0527023159172S11718620EA0319603329000000000000
B0527063159231S11718537EA0318703319000000000000
B0527103159292S11718453EA0317903311000000000000
B0527143159351S11718369EA0317103302000000000000
B0527183159409S11718285EA0316103292000000000000
B0527223159469S11718199EA0315203280000000000000
B0527263159529S11718111EA0314003266000000000000
B0527303159588S11718018EA0312903257000000000000
B0527343159646S11717926EA0312703259000000000000
B0527383159705S11717838EA0312903261000000000000
B0527423159762S11717749EA0312703258000000000000
B0527463159816S11717661EA0312503255000000000000
B0527503159871S11717575EA0312203254000000000000
B0527543159923S11717492EA0312803260000000000000
B0527583159972S11717410EA0313103261000000000000
B0528023200020S11717328EA0312703257000000000000
B0528063200069S11717248EA0312103250000000000000
B0528103200117S11717168EA0311703243000000000000
B0528143200165S11717089EA0311203241000000000000
B0528183200214S11717010EA0310803236000000000000
B0528223200264S11716930EA0310003230000000000000
B0528263200316S11716850EA0309603224000000000000
B0528303200369S11716768EA0308803213000000000000
B0528343200425S11716685EA0308103207000000000000
B0528383200478S11716604EA0308003210000000000000
B0528423200529S11716523EA0307903205000000000000
B0528463200578S11716442EA0307303198000000000000
B0528503200630S11716361EA0306603190000000000000
B0528543200681S11716282EA0306603195000000000000
B0528583200732S11716204EA0306503192000000000000
B0529023200782S11716128EA0306903195000000000000
B0529063200834S11716057EA0306903194000000000000
B0529103200886S11715984EA0306803192000000000000
B0529143200938S11715912EA0306503191000000000000
B0529183200990S11715842EA0306203185000000000000
B0529223201041S11715769EA0304603160000000000000
B0529263201090S11715689EA0301503128000000000000
B0529303201138S11715603EA0299603112000000000000
B0529343201184S11715516EA0298303097000000000000
B0529383201229S11715430EA0296903080000000000000
B0529423201275S11715343EA0295303065000000000000
B0529463201322S11715256EA0293903052000000000000
B0529503201369S11715170EA0292803043000000000000
B0529543201415S11715086EA0292203036000000000000
B0529583201463S11715000EA0291403025000000000000
B0530023201513S11714913EA0290903022000000000000
B0530063201561S11714824EA0290103012000000000000
B0530103201609S11714733EA0289403003000000000000
B0530143201653S11714640EA0288302989000000000000
B0530183201699S11714546EA0286702972000000000000
B0530223201748S11714454EA0285202957000000000000
B0530263201798S11714362EA0284202944000000000000
B0530303201846S11714271EA0283202940000000000000
B0530343201892S11714181EA0282702936000000000000
B0530383201937S11714092EA0282402931000000000000
B0530423201982S11714007EA0281902927000000000000
B0530463202026S11713920EA0281702923000000000000
B0530503202072S11713834EA0281102918000000000000
B0530543202116S11713748EA0280802915000000000000
B0530583202159S11713662EA0280402908000000000000
B0531023202201S11713575EA0279502900000000000000
B0531063202242S11713487EA0278602890000000000000
B0531103202282S11713396EA0277602880000000000000
B0531143202324S11713305EA0276902873000000000000
B0531183202364S11713214EA0276602874000000000000
B0531223202402S11713125EA0276702874000000000000
B0531263202442S11713038EA0277202877000000000000
B0531303202483S11712951EA0277002874000000000000
B0531343202524S11712864EA0276702873000000000000
B0531383202567S11712779EA0277302880000000000000
B0531423202601S11712695EA0278102886000000000000
B0531463202619S11712610EA0278202887000000000000
B0531503202633S11712526EA0277702881000000000000
B0531543202652S11712440EA0276702869000000000000
B0531583202674S11712350EA0275302851000000000000
B0532023202700S11712257EA0273502830000000000000
B0532063202730S11712161EA0271702812000000000000
B0532103202763S11712062EA0270302799000000000000
B0532143202799S11711963EA0269302789000000000000
B0532183202834S11711867EA0268302782000000000000
B0532223202870S11711773EA0267902777000000000000
B0532263202909S11711682EA0267602774000000000000
B0532303202948S11711591EA0267002766000000000000
B0532343202987S11711500EA0266302758000000000000
B0532383203026S11711409EA0265702752000000000000
B0532423203065S11711321EA0265502752000000000000
B0532463203103S11711235EA0265302752000000000000
B0532503203139S11711151EA0265102748000000000000
B0532543203174S11711066EA0264702743000000000000
B0532583203209S11710982EA0264402741000000000000
B0533023203242S11710898EA0264102739000000000000
B0533063203274S11710816EA0264102739000000000000
B0533103203307S11710736EA0264102736000000000000
B0533143203337S11710655EA0263802733000000000000
B0533183203364S11710575EA0263602731000000000000
B0533223203390S11710493EA0263202727000000000000
B0533263203419S11710410EA0262802724000000000000
B0533303203447S11710328EA0262202716000000000000
B0533343203477S11710243EA0261602708000000000000
B0533383203508S11710160EA0261002700000000000000
B0533423203540S11710075EA0260002692000000000000
B0533463203572S11709991EA0259302686000000000000
B0533503203607S11709905EA0258902682000000000000
B0533543203641S11709819EA0258302675000000000000
B0533583203676S11709731EA0257602668000000000000
B0534023203712S11709643EA0257102663000000000000
B0534063203750S11709555EA0256702657000000000000
B0534103203789S11709467EA0255902649000000000000
B0534143203829S11709376EA0254902638000000000000
B0534183203868S11709284EA0254202630000000000000
B0534223203909S11709190EA0253502625000000000000
B0534263203949S11709098EA0253502626000000000000
B0534303203988S11709007EA0253402623000000000000
B0534343204028S11708916EA0253002622000000000000
B0534383204067S11708822EA0253402625000000000000
B0534423204108S11708730EA0253102618000000000000
B0534463204152S11708639EA0252502610000000000000
B0534503204195S11708548EA0251902608000000000000
B0534543204235S11708458EA0251102596000000000000
B0534583204274S11708367EA0250102586000000000000
B0535023204310S11708276EA0249902587000000000000
B0535063204346S11708188EA0249702580000000000000
B0535103204382S11708099EA0248702572000000000000
B0535143204421S11708011EA0248302569000000000000
B0535183204459S11707924EA0248002564000000000000
B0535223204498S11707836EA0247202557000000000000
B0535263204534S11707746EA0246502548000000000000
B0535303204570S11707656EA0245802541000000000000
B0535343204609S11707565EA0245102532000000000000
B0535383204648S11707474EA0244202524000000000000
B0535423204687S11707382EA0243602519000000000000
B0535463204728S11707291EA0243002510000000000000
B0535503204767S11707200EA0242202503000000000000
B0535543204807S11707110EA0241502496000000000000
B0535583204851S11707023EA0241002490000000000000
B0536023204895S11706939EA0240302481000000000000
B0536063204941S11706851EA0239402471000000000000
B0536103204986S11706764EA0238602460000000000000
B0536143205031S11706676EA0237702453000000000000
B0536183205074S11706588EA0237302452000000000000
B0536223205114S11706498EA0236902444000000000000
B0536263205153S11706407EA0235902432000000000000
B0536303205189S11706315EA0234902422000000000000
B0536343205226S11706221EA0234002413000000000000
B0536383205263S11706127EA0232702399000000000000
B0536423205302S11706034EA0231802388000000000000
B0536463205337S11705939EA0230902380000000000000
B0536503205373S11705845EA0229702365000000000000
B0536543205409S11705750EA0228702358000000000000
B0536583205445S11705658EA0228402353000000000000
B0537023205480S11705564EA0227402344000000000000
B0537063205514S11705473EA0227002340000000000000
B0537103205544S11705381EA0226102330000000000000
B0537143205575S11705291EA0225602324000000000000
B0537183205605S11705203EA0224902319000000000000
B0537223205635S11705119EA0224602314000000000000
B0537263205665S11705034EA0224002309000000000000
B0537303205694S11704951EA0223402301000000000000
B0537343205721S11704868EA0222602292000000000000
B0537383205750S11704786EA0222002286000000000000
B0537423205779S11704704EA0220902276000000000000
B0537463205808S11704623EA0220502270000000000000
B0537503205837S11704543EA0219902264000000000000
B0537543205864S11704461EA0219502259000000000000
B0537583205890S11704379EA0218802252000000000000
B0538023205915S11704293EA0217902244000000000000
B0538063205938S11704209EA0217102234000000000000
B0538103205961S11704127EA0216702231000000000000
B0538143205984S11704046EA0217002237000000000000
B0538183205985S11703968EA0216802230000000000000
B0538223205978S11703889EA0215702218000000000000
B0538263205971S11703807EA0214602211000000000000
B0538303205961S11703726EA0213702197000000000000
B0538343205955S11703646EA0212502187000000000000
B0538383205956S11703562EA0211502178000000000000
B0538423205961S11703479EA0210402164000000000000
B0538463205969S11703396EA0209202154000000000000
B0538503205984S11703312EA0208202143000000000000
B0538543206004S11703227EA0207602136000000000000
B0538583206030S11703143EA0206802128000000000000
B0539023206060S11703059EA0206402120000000000000
B0539063206093S11702976EA0205602113000000000000
B0539103206125S11702894EA0204902106000000000000
B0539143206156S11702814EA0204602106000000000000
B0539183206185S11702736EA0204702105000000000000
B0539223206219S11702659EA0204302102000000000000
B0539263206253S11702585EA0204802107000000000000
B0539303206284S11702513EA0204902109000000000000
B0539343206314S11702442EA0204702103000000000000
B0539383206342S11702368EA0204002097000000000000
B0539423206368S11702294EA0203802096000000000000
B0539463206392S11702223EA0203902098000000000000
B0539503206410S11702153EA0204502105000000000000
B0539543206419S11702086EA0205902119000000000000
B0539583206390S11702039EA0207602138000000000000
B0540023206340S11702038EA0207602128000000000000
B0540063206301S11702108EA0206502117000000000000
B0540103206311S11702214EA0206302119000000000000
B0540143206351S11702299EA0206202117000000000000
B0540183206415S11702356EA0205702114000000000000
B0540223206491S11702383EA0205302110000000000000
B0540263206563S11702376EA0205102115000000000000
B0540303206624S11702348EA0206202124000000000000
B0540343206609S11702316EA0208002148000000000000
B0540383206558S11702363EA0209502156000000000000
B0540423206557S11702465EA0209402158000000000000
B0540463206614S11702542EA0210102166000000000000
B0540503206686S11702558EA0210402167000000000000
B0540543206731S11702515EA0210602165000000000000
B0540583206726S11702459EA0210702172000000000000
B0541023206671S11702446EA0212502195000000000000
B0541063206618S11702504EA0214102211000000000000
B0541103206618S11702603EA0216102231000000000000
B0541143206670S11702672EA0216902239000000000000
B0541183206739S11702686EA0216802237000000000000
B0541223206780S11702649EA0217302246000000000000
B0541263206762S11702608EA0219002268000000000000
B0541303206714S11702621EA0220802282000000000000
B0541343206675S11702689EA0221402289000000000000
B0541383206684S11702784EA0222202296000000000000
B0541423206740S11702858EA0222102294000000000000
B0541463206818S11702879EA0221802289000000000000
B0541503206886S11702853EA0222202293000000000000
B0541543206905S11702799EA0223802313000000000000
B0541583206869S11702784EA0226202341000000000000
B0542023206829S11702845EA0227202347000000000000
B0542063206829S11702944EA0228202358000000000000
B0542103206877S11703027EA0228902366000000000000
B0542143206953S11703061EA0229402368000000000000
B0542183207022S11703042EA0229602373000000000000
B0542223207065S11703000EA0230502378000000000000
B0542263207073S11702946EA0230802379000000000000
B0542303207033S11702941EA0231602391000000000000
B0542343207007S11703015EA0232402401000000000000
B0542383207048S11703104EA0233802418000000000000
B0542423207126S11703149EA0234402419000000000000
B0542463207204S11703135EA0234302420000000000000
B0542503207250S11703084EA0235602433000000000000
B0542543207246S11703035EA0236302436000000000000
B0542583207208S11703013EA0235602426000000000000
B0543023207161S11703050EA0235002423000000000000
B0543063207139S11703135EA0235302434000000000000
B0543103207183S11703215EA0236602448000000000000
B0543143207261S11703250EA0237502453000000000000
B0543183207338S11703236EA0237402449000000000000
B0543223207377S11703178EA0238202464000000000000
B0543263207385S11703111EA0238202449000000000000
B0543303207360S11703059EA0236202431000000000000
B0543343207326S11703014EA0234102410000000000000
B0543383207291S11702963EA0232202391000000000000
B0543423207260S11702901EA0230502375000000000000
B0543463207235S11702827EA0229302360000000000000
B0543503207219S11702741EA0228002346000000000000
B0543543207209S11702647EA0227502346000000000000
B0543583207211S11702554EA0228002353000000000000
B0544023207217S11702465EA0228802366000000000000
B0544063207222S11702383EA0230002377000000000000
B0544103207228S11702307EA0230702383000000000000
B0544143207232S11702234EA0231202388000000000000
B0544183207233S11702165EA0231402392000000000000
B0544223207233S11702100EA0231802393000000000000
B0544263207230S11702036EA0231602390000000000000
B0544303207224S11701975EA0231402387000000000000
B0544343207217S11701915EA0231002382000000000000
B0544383207215S11701853EA0230402377000000000000
B0544423207213S11701787EA0229802369000000000000
B0544463207212S11701716EA0228702356000000000000
B0544503207211S11701642EA0227702347000000000000
B0544543207213S11701568EA0227202339000000000000
B0544583207216S11701493EA0226302330000000000000
B0545023207219S11701419EA0225302321000000000000
B0545063207219S11701349EA0225002323000000000000
B0545103207222S11701282EA0225402327000000000000
B0545143207224S11701220EA0225002319000000000000
B0545183207221S11701157EA0224502313000000000000
B0545223207217S11701094EA0224102310000000000000
B0545263207216S11701031EA0223702301000000000000
B0545303207217S11700966EA0222702291000000000000
B0545343207220S11700900EA0221502277000000000000
B0545383207221S11700830EA0220602273000000000000
B0545423207220S11700762EA0220402273000000000000
B0545463207216S11700699EA0220602272000000000000
B0545503207212S11700636EA0220202271000000000000
B0545543207206S11700574EA0220602275000000000000
B0545583207196S11700515EA0220902277000000000000
B0546023207185S11700457EA0221002279000000000000
B0546063207173S11700394EA0221002276000000000000
B0546103207163S11700329EA0220702273000000000000
B0546143207159S11700263EA0220802276000000000000
B0546183207160S11700198EA0221002278000000000000
B0546223207168S11700136EA0221302280000000000000
B0546263207174S11700076EA0221302282000000000000
B0546303207168S11700021EA0220802272000000000000
B0546343207150S11659968EA0219902262000000000000
B0546383207135S11659912EA0219402258000000000000
B0546423207120S11659856EA0218502247000000000000
B0546463207108S11659794EA0217702239000000000000
B0546503207095S11659730EA0217402238000000000000
B0546543207083S11659668EA0217302235000000000000
B0546583207074S11659608EA0217002236000000000000
B0547023207068S11659551EA0217202236000000000000
B0547063207059S11659497EA0216802229000000000000
B0547103207047S11659444EA0216202223000000000000
B0547143207038S11659392EA0215802220000000000000
B0547183207026S11659341EA0215402214000000000000
B0547223207013S11659288EA0214502203000000000000
B0547263207001S11659232EA0213502194000000000000
B0547303206991S11659174EA0212702186000000000000
B0547343206983S11659116EA0211802179000000000000
B0547383206974S11659058EA0211202169000000000000
B0547423206970S11658999EA0210302160000000000000
B0547463206973S11658937EA0209402153000000000000
B0547503206979S11658876EA0208702146000000000000
B0547543206992S11658816EA0207902136000000000000
B0547583207012S11658755EA0206702122000000000000
B0548023207034S11658691EA0205502108000000000000
B0548063207056S11658622EA0204202093000000000000
B0548103207078S11658552EA0202902082000000000000
B0548143207099S11658482EA0202502080000000000000
B0548183207112S11658417EA0202402077000000000000
B0548223207120S11658352EA0201802072000000000000
B0548263207126S11658284EA0201302065000000000000
B0548303207133S11658216EA0200602056000000000000
B0548343207143S11658145EA0199502047000000000000
B0548383207172S11658073EA0198902043000000000000
B0548423207206S11658004EA0198902043000000000000
B0548463207235S11657937EA0198502038000000000000
B0548503207260S11657870EA0197902029000000000000
B0548543207278S11657801EA0196902020000000000000
B0548583207293S11657732EA0196002010000000000000
B0549023207304S11657666EA0195702005000000000000
B0549063207315S11657603EA0194901997000000000000
B0549103207324S11657541EA0193801984000000000000
B0549143207333S11657477EA0192501970000000000000
B0549183207342S11657411EA0191201958000000000000
B0549223207347S11657346EA0190401951000000000000
B0549263207342S11657287EA0189801945000000000000
B0549303207320S11657238EA0189301940000000000000
B0549343207291S11657195EA0189101939000000000000
B0549383207263S11657152EA0188601929000000000000
B0549423207232S11657107EA0187601920000000000000
B0549463207195S11657068EA0186801912000000000000
B0549503207151S11657043EA0186101902000000000000
B0549543207092S11657047EA0184901890000000000000
B0549583207034S11657090EA0184401888000000000000
B0550023206990S11657160EA0184201885000000000000
B0550063206969S11657251EA0184001882000000000000
B0550103206988S11657348EA0183401873000000000000
B0550143207048S11657428EA0181901855000000000000
B0550183207133S11657472EA0180001834000000000000
B0550223207225S11657488EA0178301818000000000000
B0550263207313S11657494EA0177501814000000000000
B0550303207397S11657501EA0177001806000000000000
B0550343207477S11657503EA0176001798000000000000
B0550383207559S11657501EA0175001787000000000000
B0550423207642S11657501EA0174201779000000000000
B0550463207728S11657510EA0173801772000000000000
B0550503207813S11657516EA0173001765000000000000
B0550543207898S11657521EA0172301758000000000000
B0550583207982S11657514EA0171601749000000000000
B0551023208056S11657484EA0170801743000000000000
B0551063208113S11657437EA0170401739000000000000
B0551103208157S11657382EA0169801734000000000000
B0551143208188S11657321EA0169601732000000000000
B0551183208207S11657257EA0169301730000000000000
B0551223208218S11657194EA0168901721000000000000
B0551263208225S11657129EA0168001708000000000000
B0551303208227S11657064EA0166601697000000000000
B0551343208225S11657004EA0165901691000000000000
B0551383208220S11656947EA0165101680000000000000
B0551423208208S11656890EA0164101669000000000000
B0551463208188S11656836EA0162901655000000000000
B0551503208156S11656787EA0161801647000000000000
B0551543208114S11656743EA0161801647000000000000
B0551583208061S11656714EA0161801649000000000000
B0552023208002S11656701EA0162001652000000000000
B0552063207941S11656701EA0162001650000000000000
B0552103207878S11656700EA0161601643000000000000
B0552143207811S11656721EA0161101638000000000000
B0552183207752S11656780EA0159701620000000000000
B0552223207723S11656884EA0159301619000000000000
B0552263207718S11657000EA0158801613000000000000
B0552303207742S11657111EA0158301608000000000000
B0552343207791S11657202EA0157601597000000000000
B0552383207858S11657276EA0157001596000000000000
B0552423207931S11657321EA0157701607000000000000
B0552463207979S11657308EA0159301626000000000000
B0552503207966S11657278EA0160201633000000000000
B0552543207908S11657303EA0159901626000000000000
B0552583207869S11657395EA0160001631000000000000
B0553023207885S11657499EA0160801642000000000000
B0553063207943S11657569EA0160701633000000000000
B0553103208010S11657575EA0159801626000000000000
B0553143208044S11657530EA0159601624000000000000
B0553183208028S11657480EA0160001630000000000000
B0553223207975S11657467EA0160701637000000000000
B0553263207914S11657508EA0160801638000000000000
B0553303207870S11657588EA0160501632000000000000
B0553343207854S11657686EA0160001626000000000000
B0553383207880S11657781EA0160001633000000000000
B0553423207940S11657816EA0159901625000000000000
B0553463207991S11657794EA0158801618000000000000
B0553503207988S11657757EA0159601630000000000000
B0553543207937S11657777EA0160101631000000000000
B0553583207901S11657863EA0159001616000000000000
B0554023207913S11657969EA0159201622000000000000
B0554063207963S11658045EA0158801614000000000000
B0554103208031S11658078EA0157801605000000000000
B0554143208087S11658062EA0157701607000000000000
B0554183208103S11658021EA0158001609000000000000
B0554223208073S11657991EA0158401613000000000000
B0554263208014S11658008EA0157901606000000000000
B0554303207961S11658083EA0157101595000000000000
B0554343207948S11658192EA0156801596000000000000
B0554383207991S11658286EA0156701592000000000000
B0554423208058S11658322EA0156101587000000000000
B0554463208112S11658305EA0155401580000000000000
B0554503208131S11658261EA0154701571000000000000
B0554543208105S11658222EA0154501573000000000000
B0554583208047S11658227EA0154901574000000000000
B0555023207991S11658290EA0154701569000000000000
B0555063207963S11658390EA0154401567000000000000
B0555103207978S11658494EA0154101565000000000000
B0555143208026S11658572EA0153401556000000000000
B0555183208092S11658606EA0152601547000000000000
B0555223208148S11658596EA0151801538000000000000
B0555263208179S11658561EA0150501525000000000000
B0555303208188S11658511EA0150001524000000000000
B0555343208187S11658460EA0150101526000000000000
B0555383208179S11658411EA0150201526000000000000
B0555423208169S11658360EA0149701520000000000000
B0555463208158S11658309EA0149601521000000000000
B0555503208144S11658262EA0149401516000000000000
B0555543208127S11658212EA0148701509000000000000
B0555583208114S11658157EA0148401510000000000000
B0556023208103S11658104EA0148501506000000000000
B0556063208092S11658049EA0148101504000000000000
B0556103208092S11657993EA0147901502000000000000
B0556143208095S11657939EA0147801499000000000000
B0556183208095S11657887EA0147601497000000000000
B0556223208096S11657836EA0147201492000000000000
B0556263208101S11657784EA0146601484000000000000
B0556303208118S11657731EA0145901475000000000000
B0556343208139S11657679EA0145201471000000000000
B0556383208152S11657624EA0144601461000000000000
B0556423208155S11657571EA0143801453000000000000
B0556463208153S11657519EA0143401451000000000000
B0556503208148S11657468EA0143101446000000000000
B0556543208138S11657419EA0142501439000000000000
B0556583208125S11657368EA0142001430000000000000
B0557023208112S11657316EA0140801416000000000000
B0557063208116S11657260EA0139601404000000000000
B0557103208161S11657220EA0139101404000000000000
B0557143208230S11657215EA0138801400000000000000
B0557183208304S11657237EA0137901390000000000000
B0557223208383S11657270EA0136501376000000000000
B0557263208463S11657289EA0136201375000000000000
B0557303208534S11657281EA0136201376000000000000
B0557343208580S11657244EA0136701381000000000000
B0557383208584S11657195EA0137001384000000000000
B0557423208546S11657176EA0138701406000000000000
B0557463208494S11657216EA0139701406000000000000
B0557503208467S11657311EA0139001397000000000000
B0557543208496S11657412EA0138701399000000000000
B0557583208564S11657464EA0139101401000000000000
B0558023208626S11657458EA0138801397000000000000
B0558063208651S11657410EA0138501395000000000000
B0558103208625S11657372EA0140101415000000000000
B0558143208571S11657395EA0140901421000000000000
B0558183208537S11657481EA0141101424000000000000
B0558223208548S11657584EA0141301425000000000000
B0558263208600S11657667EA0141701431000000000000
B0558303208668S11657706EA0141901431000000000000
B0558343208729S11657699EA0141901432000000000000
B0558383208775S11657667EA0141601430000000000000
B0558423208794S11657620EA0142501443000000000000
B0558463208780S11657581EA0143501452000000000000
B0558503208740S11657568EA0143501448000000000000
B0558543208689S11657603EA0142801437000000000000
B0558583208658S11657689EA0141501424000000000000
B0559023208668S11657797EA0140601420000000000000
B0559063208716S11657885EA0140901427000000000000
B0559103208781S11657904EA0141501430000000000000
B0559143208810S11657865EA0141901436000000000000
B0559183208772S11657857EA0143301454000000000000
B0559223208733S11657928EA0144301458000000000000
B0559263208746S11658031EA0144801466000000000000
B0559303208801S11658104EA0145701473000000000000
B0559343208871S11658130EA0145501468000000000000
B0559383208927S11658105EA0145101472000000000000
B0559423208941S11658060EA0146301485000000000000
B0559463208916S11658031EA0147301492000000000000
B0559503208870S11658041EA0147001483000000000000
B0559543208825S11658101EA0145901469000000000000
B0559583208807S11658193EA0144901463000000000000
B0600023208828S11658294EA0144901468000000000000
B0600063208881S11658373EA0145601475000000000000
B0600103208950S11658401EA0146201480000000000000
B0600143209006S11658385EA0146701488000000000000
B0600183209014S11658351EA0147701503000000000000
B0600223208971S11658365EA0148401498000000000000
B0600263208941S11658453EA0147701497000000000000
B0600303208971S11658554EA0148301506000000000000
B0600343209041S11658604EA0149001511000000000000
B0600383209105S11658591EA0149001508000000000000
B0600423209130S11658546EA0149401518000000000000
B0600463209113S11658511EA0150701528000000000000
B0600503209067S11658504EA0150301519000000000000
B0600543209011S11658546EA0149001504000000000000
B0600583208983S11658639EA0148301501000000000000
B0601023208989S11658746EA0148501504000000000000
B0601063209027S11658843EA0149101512000000000000
B0601103209093S11658899EA0149901520000000000000
B0601143209159S11658905EA0150101522000000000000
B0601183209197S11658871EA0150601528000000000000
B0601223209193S11658830EA0151401536000000000000
B0601263209149S11658827EA0152001541000000000000
B0601303209097S11658876EA0151301530000000000000
B0601343209078S11658976EA0151301534000000000000
B0601383209104S11659077EA0152401547000000000000
B0601423209169S11659142EA0153001552000000000000
B0601463209240S11659154EA0153001555000000000000
B0601503209292S11659128EA0153401559000000000000
B0601543209310S11659083EA0154001563000000000000
B0601583209286S11659050EA0154301571000000000000
B0602023209235S11659070EA0155001573000000000000
B0602063209195S11659141EA0154201563000000000000
B0602103209201S11659248EA0153701561000000000000
B0602143209254S11659337EA0154301568000000000000
B0602183209326S11659380EA0154701572000000000000
B0602223209382S11659365EA0155101575000000000000
B0602263209384S11659323EA0155001573000000000000
B0602303209335S11659321EA0155301580000000000000
B0602343209283S11659378EA0155301573000000000000
B0602383209258S11659479EA0154801570000000000000
B0602423209282S11659588EA0155201578000000000000
B0602463209341S11659666EA0155801585000000000000
B0602503209412S11659692EA0156401591000000000000
B0602543209462S11659673EA0156801594000000000000
B0602583209478S11659635EA0157101598000000000000
B0603023209452S11659610EA0157401602000000000000
B0603063209401S11659639EA0157601600000000000000
B0603103209362S11659718EA0157401599000000000000
B0603143209360S11659822EA0157601604000000000000
B0603183209393S11659919EA0158201611000000000000
B0603223209453S11659987EA0158601613000000000000
B0603263209523S11700013EA0158601612000000000000
B0603303209583S11659998EA0158501611000000000000
B0603343209621S11659961EA0158601613000000000000
B0603383209633S11659919EA0158401608000000000000
B0603423209616S11659876EA0157701599000000000000
B0603463209587S11659837EA0156701592000000000000
B0603503209555S11659796EA0155901582000000000000
B0603543209521S11659750EA0155101577000000000000
B0603583209490S11659703EA0154701574000000000000
B0604023209457S11659659EA0154601572000000000000
B0604063209425S11659616EA0154501571000000000000
B0604103209391S11659575EA0154301568000000000000
B0604143209356S11659536EA0153701563000000000000
B0604183209319S11659495EA0152801554000000000000
B0604223209282S11659451EA0152401548000000000000
B0604263209243S11659406EA0151801545000000000000
B0604303209205S11659363EA0151501542000000000000
B0604343209174S11659319EA0151301537000000000000
B0604383209144S11659274EA0150401527000000000000
B0604423209114S11659224EA0149701522000000000000
B0604463209089S11659175EA0149801523000000000000
B0604503209065S11659126EA0149201516000000000000
B0604543209036S11659079EA0148701510000000000000
B0604583209005S11659036EA0148301504000000000000
B0605023208971S11658996EA0147601495000000000000
B0605063208937S11658957EA0146901488000000000000
B0605103208902S11658920EA0146201482000000000000
B0605143208871S11658882EA0145601474000000000000
B0605183208842S11658845EA0145301475000000000000
B0605223208810S11658811EA0145101470000000000000
B0605263208777S11658775EA0144701465000000000000
B0605303208742S11658738EA0144401467000000000000
B0605343208703S11658704EA0144601466000000000000
B0605383208667S11658667EA0145001476000000000000
B0605423208630S11658633EA0146401488000000000000
B0605463208577S11658654EA0147801505000000000000
B0605503208563S11658747EA0149601522000000000000
B0605543208613S11658832EA0149501516000000000000
B0605583208697S11658867EA0149201513000000000000
B0606023208769S11658847EA0150001525000000000000
B0606063208812S11658801EA0150401530000000000000
B0606103208819S11658746EA0150601531000000000000
B0606143208790S11658704EA0150201522000000000000
B0606183208746S11658672EA0149301513000000000000
B0606223208695S11658641EA0148001493000000000000
B0606263208638S11658609EA0146501483000000000000
B0606303208580S11658581EA0146401485000000000000
B0606343208522S11658550EA0146101476000000000000
B0606383208469S11658516EA0145001464000000000000
B0606423208417S11658482EA0144301460000000000000
B0606463208370S11658447EA0144401463000000000000
B0606503208326S11658411EA0145501475000000000000
B0606543208281S11658379EA0146501488000000000000
B0606583208226S11658404EA0148901515000000000000
B0607023208217S11658489EA0150101523000000000000
B0607063208262S11658568EA0149601517000000000000
B0607103208334S11658602EA0149201512000000000000
B0607143208395S11658586EA0149501518000000000000
B0607183208417S11658539EA0149801518000000000000
B0607223208396S11658496EA0149401512000000000000
B0607263208348S11658490EA0149001510000000000000
B0607303208296S11658531EA0148901511000000000000
B0607343208266S11658613EA0150101527000000000000
B0607383208275S11658710EA0151101534000000000000
B0607423208322S11658789EA0151501535000000000000
B0607463208391S11658834EA0151001528000000000000
B0607503208463S11658836EA0150701528000000000000
B0607543208512S11658799EA0150301523000000000000
B0607583208524S11658746EA0149601513000000000000
B0608023208512S11658690EA0148301498000000000000
B0608063208491S11658641EA0147601492000000000000
B0608103208465S11658594EA0147101491000000000000
B0608143208442S11658552EA0147501494000000000000
B0608183208417S11658515EA0147001489000000000000
B0608223208390S11658477EA0146501480000000000000
B0608263208360S11658438EA0146001478000000000000
B0608303208327S11658400EA0146301482000000000000
B0608343208292S11658361EA0146901493000000000000
B0608383208240S11658364EA0148601515000000000000
B0608423208220S11658456EA0150701536000000000000
B0608463208275S11658524EA0152901558000000000000
B0608503208326S11658515EA0154101567000000000000
B0608543208321S11658478EA0154701571000000000000
B0608583208273S11658485EA0155501582000000000000
B0609023208231S11658560EA0156501592000000000000
