ACAM4N6
HFDTE220515
HFFXA050
HFPLTPILOT:JOHN WELSH              
HFGTYGLIDERTYPE:HORNET      
HFGIDGLIDERID:VH-GMY      
HFDTM100GPSDATUM:
HFRFWFIRMWAREVERSION:F2.6
HFRHWHARDWAREVERSION:300 Series Version 2
HFFTYFRTYPE:CAMBRIDGE AERO INSTRUMENTS, 302+
HFGPS:GARMIN,LVS-25,12,18000
HFPRSPRESSALTSENSOR:INTERSEMA, MS5534-AP, 20000
I033638FXA3941ENL4247REX
LCAMSBVER:5FWVER:F26300
C050415050137050415000102
C0000000N00000000WTAKEOFF     
C3207549S11656849EBEVAIR      
C3123325S11712260EWATRCRRN    
C3212499S11757329EBILBARIN    
C3207549S11656849EBEVAIR      
C0000000N00000000WLANDING     
B0530553207739S11657100EA0017400221000000000000
B0530573207739S11657100EA0017500221000000000000
B0530593207739S11657100EA0017600221000000000000
B0531013207739S11657100EA0017500221000000000000
B0531033207739S11657100EA0017500221000000000000
B0531053207739S11657100EA0017500221000000000000
B0531073207739S11657100EA0017500221000000000000
B0531093207739S11657100EA0017600221000000000000
B0531113207739S11657100EA0017500221000000000000
B0531133207739S11657100EA0017500221000000000000
B0531153207739S11657100EA0017500221000000000000
B0531173207739S11657100EA0017500221000000000000
B0531193207739S11657100EA0017500221000000000000
B0531213207739S11657100EA0017600221000000000000
B0531233207737S11657100EA0017600221000000000000
B0531263207729S11657096EA0017600220000000000000
B0531303207705S11657086EA0017400219000000000000
B0531343207666S11657066EA0017500220000000000000
B0531383207616S11657038EA0017600219000000000000
B0531423207558S11657003EA0017700226000000000000
B0531463207497S11656965EA0018700232000000000000
B0531503207436S11656934EA0019800251000000000000
B0531543207375S11656910EA0022100272000000000000
B0531583207316S11656886EA0024000291000000000000
B0532023207259S11656862EA0026000309000000000000
B0532063207200S11656841EA0027600332000000000000
B0532103207143S11656822EA0030200353000000000000
B0532143207087S11656796EA0031900368000000000000
B0532183207039S11656749EA0033400385000000000000
B0532223207005S11656684EA0034800402000000000000
B0532263206995S11656605EA0036400416000000000000
B0532303207007S11656520EA0037700430000000000000
B0532343207042S11656441EA0039500445000000000000
B0532383207094S11656376EA0040800458000000000000
B0532423207157S11656327EA0042500474000000000000
B0532463207230S11656293EA0044100493000000000000
B0532503207307S11656280EA0046200521000000000000
B0532543207382S11656288EA0049000543000000000000
B0532583207455S11656316EA0050900561000000000000
B0533023207523S11656362EA0052400572000000000000
B0533063207577S11656427EA0053800591000000000000
B0533103207611S11656503EA0056000615000000000000
B0533143207625S11656584EA0058700641000000000000
B0533183207619S11656663EA0060900664000000000000
B0533223207599S11656737EA0063300687000000000000
B0533263207571S11656805EA0065500708000000000000
B0533303207537S11656871EA0067100726000000000000
B0533343207497S11656932EA0069000744000000000000
B0533383207450S11656990EA0070400758000000000000
B0533423207404S11657047EA0072100775000000000000
B0533463207356S11657101EA0073900791000000000000
B0533503207307S11657153EA0075400805000000000000
B0533543207255S11657204EA0076900821000000000000
B0533583207203S11657254EA0078700840000000000000
B0534023207151S11657302EA0080300857000000000000
B0534063207096S11657346EA0081700871000000000000
B0534103207042S11657390EA0083200886000000000000
B0534143206986S11657436EA0084500897000000000000
B0534183206933S11657481EA0085900913000000000000
B0534223206877S11657525EA0087500928000000000000
B0534263206821S11657567EA0089100945000000000000
B0534303206766S11657608EA0090500960000000000000
B0534343206710S11657650EA0092200975000000000000
B0534383206652S11657685EA0093400987000000000000
B0534423206589S11657711EA0094601001000000000000
B0534463206524S11657718EA0096301016000000000000
B0534503206461S11657707EA0098001031000000000000
B0534543206400S11657677EA0099401043000000000000
B0534583206342S11657631EA0100201052000000000000
B0535023206294S11657571EA0101501066000000000000
B0535063206259S11657495EA0103001082000000000000
B0535103206244S11657410EA0104001096000000000000
B0535143206246S11657320EA0105601111000000000000
B0535183206268S11657231EA0107501131000000000000
B0535223206314S11657153EA0109201145000000000000
B0535263206348S11657081EA0109501147000000000000
B0535303206337S11657010EA0109901151000000000000
B0535343206297S11656973EA0110301153000000000000
B0535383206247S11656975EA0110101148000000000000
B0535423206206S11657010EA0109701145000000000000
B0535463206184S11657065EA0109601144000000000000
B0535503206189S11657129EA0109201141000000000000
B0535543206214S11657187EA0109101140000000000000
B0535583206258S11657234EA0108501135000000000000
B0536023206314S11657267EA0108001130000000000000
B0536063206376S11657289EA0107401123000000000000
B0536103206441S11657302EA0107001119000000000000
B0536143206506S11657306EA0106601115000000000000
B0536183206570S11657303EA0106101110000000000000
B0536223206634S11657298EA0105801104000000000000
B0536263206699S11657290EA0105101099000000000000
B0536303206765S11657281EA0104801096000000000000
B0536343206830S11657270EA0104701094000000000000
B0536383206894S11657259EA0104201092000000000000
B0536423206959S11657243EA0104201090000000000000
B0536463207009S11657199EA0103901090000000000000
B0536503207027S11657134EA0103901089000000000000
B0536543207012S11657073EA0103901087000000000000
B0536583206972S11657040EA0103601080000000000000
B0537023206922S11657052EA0103001076000000000000
B0537063206891S11657103EA0102401069000000000000
B0537103206895S11657169EA0101701063000000000000
B0537143206933S11657228EA0101001058000000000000
B0537183206990S11657261EA0100801056000000000000
B0537223207056S11657268EA0100301053000000000000
B0537263207122S11657263EA0100101049000000000000
B0537303207191S11657252EA0099501044000000000000
B0537343207258S11657239EA0099301041000000000000
B0537383207323S11657225EA0098901038000000000000
B0537423207386S11657211EA0098601033000000000000
B0537463207450S11657198EA0098001027000000000000
B0537503207515S11657186EA0097501021000000000000
B0537543207577S11657173EA0097101016000000000000
B0537583207641S11657160EA0096601011000000000000
B0538023207706S11657144EA0095901005000000000000
B0538063207770S11657127EA0095701001000000000000
B0538103207835S11657111EA0095300998000000000000
B0538143207897S11657092EA0094900995000000000000
B0538183207960S11657073EA0094300988000000000000
B0538223208025S11657057EA0094100985000000000000
B0538263208090S11657043EA0093700983000000000000
B0538303208152S11657030EA0093100978000000000000
B0538343208216S11657017EA0092700971000000000000
B0538383208279S11657005EA0092300970000000000000
B0538423208342S11656988EA0092300969000000000000
B0538463208387S11656932EA0092300972000000000000
B0538503208369S11656865EA0092800976000000000000
B0538543208313S11656873EA0092700971000000000000
B0538583208304S11656939EA0092800976000000000000
B0539023208348S11656984EA0093500985000000000000
B0539063208408S11656973EA0094300989000000000000
B0539103208444S11656917EA0094200990000000000000
B0539143208433S11656857EA0094700996000000000000
B0539183208386S11656853EA0094700991000000000000
B0539223208363S11656912EA0094200986000000000000
B0539263208392S11656973EA0094400994000000000000
B0539303208452S11656990EA0094800994000000000000
B0539343208521S11656983EA0094400988000000000000
B0539383208594S11656973EA0094000985000000000000
B0539423208668S11656962EA0093600982000000000000
B0539463208745S11656953EA0093200976000000000000
B0539503208824S11656943EA0092500971000000000000
B0539543208902S11656935EA0091800966000000000000
B0539583208979S11656931EA0091500961000000000000
B0540023209054S11656927EA0091000954000000000000
B0540063209131S11656927EA0090300951000000000000
B0540103209205S11656930EA0090100949000000000000
B0540143209278S11656934EA0089800946000000000000
B0540183209349S11656942EA0089300940000000000000
B0540223209421S11656952EA0088400933000000000000
B0540263209492S11656962EA0088200929000000000000
B0540303209564S11656973EA0088000926000000000000
B0540343209635S11656984EA0087600920000000000000
B0540383209709S11656997EA0086800914000000000000
B0540423209783S11657010EA0086300909000000000000
B0540463209860S11657023EA0086300911000000000000
B0540503209934S11657035EA0086000909000000000000
B0540543210008S11657044EA0086000906000000000000
B0540583210081S11657057EA0085400899000000000000
B0541023210154S11657073EA0085100897000000000000
B0541063210222S11657087EA0085600900000000000000
B0541103210289S11657100EA0085300899000000000000
B0541143210361S11657103EA0085400901000000000000
B0541183210431S11657103EA0085100895000000000000
B0541223210500S11657091EA0085100898000000000000
B0541263210556S11657039EA0084600890000000000000
B0541303210601S11656970EA0084000888000000000000
B0541343210647S11656901EA0083100876000000000000
B0541383210701S11656839EA0082200867000000000000
B0541423210770S11656815EA0082300869000000000000
B0541463210829S11656847EA0082700872000000000000
B0541503210839S11656913EA0082300866000000000000
B0541543210800S11656968EA0082200866000000000000
B0541583210738S11656987EA0082500870000000000000
B0542023210686S11657026EA0083300881000000000000
B0542063210716S11657091EA0084600894000000000000
B0542103210782S11657074EA0085900908000000000000
B0542143210794S11657004EA0086700916000000000000
B0542183210744S11656973EA0087600925000000000000
B0542223210701S11657013EA0088100928000000000000
B0542263210726S11657075EA0089100944000000000000
B0542303210786S11657062EA0090500958000000000000
B0542343210800S11656995EA0091700968000000000000
B0542383210762S11656956EA0093100982000000000000
B0542423210719S11656978EA0093600982000000000000
B0542463210719S11657035EA0094200993000000000000
B0542503210770S11657066EA0094800998000000000000
B0542543210830S11657038EA0095501009000000000000
B0542583210847S11656969EA0096501018000000000000
B0543023210814S11656918EA0097601030000000000000
B0543063210764S11656919EA0098301030000000000000
B0543103210742S11656970EA0098301033000000000000
B0543143210784S11657009EA0098701037000000000000
B0543183210839S11656973EA0099401049000000000000
B0543223210818S11656916EA0100201051000000000000
B0543263210769S11656934EA0099601046000000000000
B0543303210777S11656997EA0100101058000000000000
B0543343210838S11657001EA0101401068000000000000
B0543383210862S11656934EA0101801071000000000000
B0543423210822S11656886EA0102301074000000000000
B0543463210773S11656900EA0102101069000000000000
B0543503210765S11656958EA0102501078000000000000
B0543543210822S11656983EA0103901092000000000000
B0543583210861S11656929EA0104601101000000000000
B0544023210838S11656870EA0105501107000000000000
B0544063210786S11656866EA0105001099000000000000
B0544103210748S11656914EA0104501089000000000000
B0544143210747S11656983EA0103101082000000000000
B0544183210801S11657026EA0103401089000000000000
B0544223210875S11657029EA0103701094000000000000
B0544263210920S11656973EA0104901108000000000000
B0544303210895S11656918EA0105901118000000000000
B0544343210851S11656936EA0106301118000000000000
B0544383210872S11656994EA0107201131000000000000
B0544423210933S11656988EA0108201140000000000000
B0544463210959S11656923EA0108601144000000000000
B0544503210929S11656869EA0109501153000000000000
B0544543210881S11656873EA0110201155000000000000
B0544583210869S11656927EA0110601163000000000000
B0545023210914S11656966EA0111301171000000000000
B0545063210974S11656945EA0112001176000000000000
B0545103210996S11656879EA0112501182000000000000
B0545143210969S11656827EA0113501191000000000000
B0545183210924S11656823EA0113801189000000000000
B0545223210894S11656867EA0113801191000000000000
B0545263210916S11656919EA0114601198000000000000
B0545303210976S11656925EA0114901202000000000000
B0545343211013S11656870EA0115001204000000000000
B0545383210998S11656806EA0115301206000000000000
B0545423210944S11656795EA0115001198000000000000
B0545463210886S11656814EA0114101188000000000000
B0545503210822S11656831EA0112701175000000000000
B0545543210756S11656848EA0112401170000000000000
B0545583210691S11656865EA0111901168000000000000
B0546023210626S11656884EA0111501161000000000000
B0546063210560S11656904EA0112001169000000000000
B0546103210496S11656925EA0112101167000000000000
B0546143210432S11656945EA0111501160000000000000
B0546183210366S11656968EA0110601152000000000000
B0546223210319S11657021EA0110801158000000000000
B0546263210328S11657094EA0111401161000000000000
B0546303210388S11657140EA0110401148000000000000
B0546343210469S11657139EA0108801137000000000000
B0546383210547S11657105EA0107701126000000000000
B0546423210627S11657056EA0106301114000000015000
B0546463210703S11657005EA0106001114000000015000
B0546503210760S11656943EA0107301134000000000000
B0546543210755S11656874EA0110401161000000000000
B0546583210705S11656858EA0111101159000000000000
B0547023210678S11656914EA0110701157000000000000
B0547063210726S11656956EA0110801159000000000000
B0547103210790S11656930EA0111201167000000000000
B0547143210800S11656865EA0112401179000000000000
B0547183210757S11656830EA0113201181000000000000
B0547223210710S11656857EA0112901176000000000000
B0547263210708S11656925EA0112901180000000000000
B0547303210757S11656961EA0113201184000000000000
B0547343210817S11656947EA0113101181000000000000
B0547383210831S11656883EA0113201184000000000000
B0547423210792S11656839EA0113801188000000000000
B0547463210743S11656851EA0114101191000000000000
B0547503210721S11656906EA0114401194000000000000
B0547543210747S11656965EA0114501195000000000000
B0547583210807S11656970EA0114801198000000000000
B0548023210847S11656923EA0114701198000000000000
B0548063210846S11656862EA0115001202000000000000
B0548103210803S11656828EA0114901201000000000000
B0548143210748S11656815EA0114601194000000000000
B0548183210684S11656810EA0114301190000000000000
B0548223210618S11656809EA0113501181000000000000
B0548263210552S11656812EA0112701176000000000000
B0548303210483S11656818EA0112101166000000000000
B0548343210413S11656828EA0111901167000000000000
B0548383210348S11656848EA0112801180000000000000
B0548423210320S11656903EA0115501210000000000000
B0548463210361S11656947EA0116501211000000000000
B0548503210423S11656925EA0115901210000000000000
B0548543210453S11656858EA0117201214000000000000
B0548583210443S11656793EA0117001219000000000000
B0549023210405S11656748EA0117401224000000000000
B0549063210357S11656747EA0117901231000000000000
B0549103210332S11656793EA0118101226000000000000
B0549143210348S11656856EA0117201220000000000000
B0549183210404S11656887EA0116901220000000000000
B0549223210470S11656871EA0117201222000000000000
B0549263210511S11656810EA0117001221000000000000
B0549303210505S11656735EA0116801218000000000000
B0549343210457S11656695EA0116601218000000000000
B0549383210406S11656721EA0116901221000000000000
B0549423210406S11656788EA0117601225000000000000
B0549463210454S11656836EA0117401226000000000000
B0549503210518S11656817EA0117801232000000000000
B0549543210549S11656747EA0117701228000000000000
B0549583210534S11656671EA0117201222000000000000
B0550023210482S11656633EA0117001222000000000000
B0550063210435S11656663EA0117401226000000000000
B0550103210440S11656732EA0117101217000000000000
B0550143210501S11656766EA0116501217000000000000
B0550183210556S11656723EA0117101227000000000000
B0550223210558S11656649EA0117801231000000000000
B0550263210519S11656598EA0117601227000000000000
B0550303210465S11656597EA0117401228000000000000
B0550343210435S11656649EA0117101216000000000000
B0550383210469S11656708EA0116101211000000000000
B0550423210537S11656698EA0115501207000000000000
B0550463210592S11656641EA0115401209000000000000
B0550503210605S11656562EA0115801211000000000000
B0550543210569S11656502EA0114901202000000000000
B0550583210513S11656506EA0114301194000000000000
B0551023210463S11656548EA0113501182000000000000
B0551063210422S11656605EA0112601178000000000000
B0551103210384S11656670EA0112501180000000000000
B0551143210376S11656740EA0113401194000000000000
B0551183210418S11656788EA0115001208000000000000
B0551223210475S11656766EA0116101218000000000000
B0551263210476S11656700EA0116801222000000000000
B0551303210424S11656687EA0116501217000000000000
B0551343210406S11656741EA0116901225000000000000
B0551383210454S11656771EA0117601233000000000000
B0551423210506S11656734EA0118001237000000000000
B0551463210514S11656661EA0118701244000000000000
B0551503210479S11656614EA0118801242000000000000
B0551543210427S11656620EA0118501238000000000000
B0551583210413S11656672EA0118801243000000000000
B0552023210456S11656709EA0119101248000000000000
B0552063210508S11656679EA0119901254000000000000
B0552103210506S11656614EA0120101255000000000000
B0552143210457S11656587EA0119701248000000000000
B0552183210426S11656627EA0119801250000000000000
B0552223210448S11656682EA0119501250000000000000
B0552263210505S11656685EA0120601264000000000000
B0552303210540S11656635EA0121001264000000000000
B0552343210518S11656576EA0120801262000000000000
B0552383210467S11656571EA0120601257000000000000
B0552423210441S11656620EA0120201252000000000000
B0552463210465S11656679EA0120001254000000000000
B0552503210515S11656714EA0120701262000000000000
B0552543210569S11656683EA0121201266000000000000
B0552583210571S11656613EA0121401266000000000000
B0553023210521S11656583EA0120501258000000000000
B0553063210483S11656627EA0120401257000000000000
B0553103210497S11656689EA0121001270000000000000
B0553143210536S11656737EA0122101278000000000000
B0553183210593S11656745EA0122601281000000000000
B0553223210639S11656697EA0122901284000000000000
B0553263210636S11656628EA0122901286000000000000
B0553303210596S11656594EA0123601292000000000000
B0553343210552S11656613EA0123201283000000000000
B0553383210535S11656670EA0123001285000000000000
B0553423210552S11656730EA0123501290000000000000
B0553463210601S11656761EA0123701291000000000000
B0553503210664S11656744EA0123301286000000000000
B0553543210705S11656682EA0123201288000000000000
B0553583210693S11656611EA0123501289000000000000
B0554023210643S11656594EA0123601288000000000000
B0554063210602S11656640EA0123001280000000000000
B0554103210606S11656709EA0122701281000000000000
B0554143210649S11656757EA0122901282000000000000
B0554183210704S11656795EA0122601279000000000000
B0554223210762S11656830EA0122501279000000000000
B0554263210827S11656854EA0122101270000000000000
B0554303210894S11656844EA0121501268000000000000
B0554343210935S11656792EA0121101263000000000000
B0554383210929S11656724EA0120201255000000000000
B0554423210883S11656689EA0119101243000000000000
B0554463210826S11656697EA0118301234000000000000
B0554503210771S11656731EA0117901231000000000000
B0554543210719S11656775EA0117601227000000000000
B0554583210670S11656828EA0117601229000000000000
B0555023210641S11656896EA0118301238000000000000
B0555063210665S11656962EA0119101241000000000000
B0555103210726S11656978EA0118601236000000000000
B0555143210773S11656931EA0118001231000000000000
B0555183210765S11656870EA0117501225000000000000
B0555223210714S11656857EA0116901220000000000000
B0555263210660S11656880EA0116701217000000000000
B0555303210604S11656914EA0116401212000000000000
B0555343210550S11656956EA0116001210000000000000
B0555383210500S11656997EA0116001206000000000000
B0555423210448S11657042EA0115301197000000000000
B0555463210391S11657079EA0114201186000000000000
B0555503210328S11657108EA0113301177000000000000
B0555543210263S11657133EA0112501171000000000000
B0555583210197S11657151EA0111901166000000000000
B0556023210128S11657160EA0111501162000000000000
B0556063210058S11657160EA0111001158000000000000
B0556103209988S11657159EA0110601154000000000000
B0556143209919S11657157EA0110401150000000000000
B0556183209848S11657151EA0109901148000000000000
B0556223209781S11657140EA0109901146000000000000
B0556263209713S11657131EA0109601142000000000000
B0556303209646S11657125EA0109001138000000000000
B0556343209578S11657120EA0108801137000000000000
B0556383209510S11657114EA0109401142000000000000
B0556423209444S11657114EA0109301139000000000000
B0556463209379S11657120EA0109001137000000000000
B0556503209315S11657130EA0108701133000000000000
B0556543209252S11657142EA0108201129000000000000
B0556583209188S11657155EA0107801125000000000000
B0557023209123S11657161EA0107301118000000000000
B0557063209054S11657157EA0106501112000000000000
B0557103208988S11657143EA0106201111000000000000
B0557143208923S11657127EA0106501113000000000000
B0557183208860S11657113EA0106501112000000000000
B0557223208798S11657100EA0106201109000000000000
B0557263208734S11657091EA0105801102000000000000
B0557303208671S11657085EA0105301098000000000000
B0557343208610S11657064EA0105001096000000000000
B0557383208555S11657033EA0104601090000000000000
B0557423208500S11656996EA0103601080000000000000
B0557463208437S11656974EA0102201066000000000000
B0557503208369S11656969EA0101401058000000000000
B0557543208303S11656983EA0100801054000000000000
B0557583208239S11657005EA0100501051000000000000
B0558023208178S11657033EA0100301048000000000000
B0558063208119S11657066EA0100001047000000000000
B0558103208057S11657087EA0100401051000000000000
B0558143207993S11657079EA0100101047000000000000
B0558183207930S11657074EA0099801043000000000000
B0558223207867S11657061EA0099601038000000000000
B0558263207804S11657043EA0099301042000000000000
B0558303207745S11657055EA0100001049000000000000
B0558343207737S11657114EA0101001055000000000000
B0558383207784S11657157EA0100901052000000000000
B0558423207849S11657146EA0100501054000000000000
B0558463207884S11657086EA0100601055000000000000
B0558503207856S11657031EA0100901055000000000000
B0558543207809S11657052EA0100701053000000000000
B0558583207815S11657112EA0101101057000000000000
B0559023207869S11657142EA0101101057000000000000
B0559063207927S11657122EA0101401063000000000000
B0559103207957S11657064EA0101901067000000000000
B0559143207948S11656997EA0101501059000000000000
B0559183207904S11656956EA0100701054000000000000
B0559223207846S11656947EA0100701054000000000000
B0559263207801S11656981EA0100701054000000000000
B0559303207785S11657040EA0100701054000000000000
B0559343207810S11657099EA0100301050000000000000
B0559383207866S11657129EA0099701044000000000000
B0559423207931S11657142EA0099701046000000000000
B0559463207989S11657113EA0100101053000000000000
B0559503207999S11657046EA0100801058000000000000
B0559543207960S11657003EA0100901058000000000000
B0559583207911S11657020EA0100801057000000000000
B0600023207904S11657078EA0100801057000000000000
B0600063207948S11657121EA0100701055000000000000
B0600103208009S11657117EA0100701058000000000000
B0600143208060S11657073EA0101001059000000000000
B0600183208070S11657004EA0101101062000000000000
B0600223208034S11656960EA0101201058000000000000
B0600263207984S11656971EA0100501051000000000000
B0600303207967S11657027EA0100501054000000000000
B0600343207999S11657077EA0100501054000000000000
B0600383208056S11657085EA0100701058000000000000
B0600423208109S11657052EA0101001060000000000000
B0600463208118S11656986EA0101201061000000000000
B0600503208082S11656947EA0101201061000000000000
B0600543208036S11656958EA0100501052000000000000
B0600583208015S11657012EA0100201051000000000000
B0601023208054S11657056EA0100201052000000000000
B0601063208119S11657056EA0100301054000000000000
B0601103208161S11657004EA0100501056000000000000
B0601143208153S11656936EA0100501057000000000000
B0601183208108S11656909EA0100501053000000000000
B0601223208065S11656939EA0100201052000000000000
B0601263208062S11656996EA0100301053000000000000
B0601303208100S11657042EA0100201051000000000000
B0601343208161S11657051EA0100201053000000000000
B0601383208214S11657017EA0100301053000000000000
B0601423208231S11656952EA0100601055000000000000
B0601463208205S11656897EA0100401053000000000000
B0601503208156S11656879EA0099701047000000000000
B0601543208113S11656914EA0099301043000000000000
B0601583208118S11656977EA0099501046000000000000
B0602023208170S11657010EA0099501046000000000000
B0602063208234S11657004EA0099501044000000000000
B0602103208277S11656948EA0099301046000000000000
B0602143208257S11656892EA0100001051000000000000
B0602183208208S11656905EA0099201038000000000000
B0602223208204S11656973EA0098701039000000000000
B0602263208252S11657020EA0098901038000000000000
B0602303208318S11657012EA0098601038000000000000
B0602343208363S11656957EA0098701038000000000000
B0602383208369S11656890EA0099201043000000000000
B0602423208347S11656832EA0099301041000000000000
B0602463208303S11656801EA0098401031000000000000
B0602503208247S11656791EA0098001028000000000000
B0602543208188S11656788EA0097601022000000000000
B0602583208127S11656792EA0096701015000000000000
B0603023208066S11656800EA0096301012000000000000
B0603063208004S11656812EA0095801006000000000000
B0603103207939S11656822EA0094900997000000000000
B0603143207872S11656836EA0094600994000000000000
B0603183207807S11656848EA0094300991000000000000
B0603223207745S11656864EA0094500993000000000000
B0603263207681S11656880EA0094800996000000000000
B0603303207620S11656897EA0095401000000000000000
B0603343207570S11656936EA0095701003000000000000
B0603383207571S11657005EA0095901005000000000000
B0603423207622S11657047EA0095701005000000000000
B0603463207684S11657031EA0095501003000000000000
B0603503207723S11656973EA0095100996000000000000
B0603543207720S11656900EA0094500992000000000000
B0603583207683S11656845EA0094700995000000000000
B0604023207632S11656813EA0094500991000000000000
B0604063207572S11656789EA0093800984000000000000
B0604103207510S11656770EA0092900974000000000000
B0604143207445S11656752EA0092200966000000000000
B0604183207378S11656737EA0091600962000000000000
B0604223207313S11656743EA0091100959000000000000
B0604263207248S11656750EA0090800952000000000000
B0604303207183S11656765EA0090400948000000000000
B0604343207122S11656792EA0089600938000000000000
B0604383207064S11656822EA0089100937000000000000
B0604423207008S11656851EA0088600926000000000000
B0604463206947S11656880EA0088000919000000000000
B0604503206882S11656896EA0088000920000000000000
B0604543206817S11656899EA0088000921000000000000
B0604583206753S11656906EA0087800919000000000000
B0605023206688S11656916EA0087700915000000000000
B0605063206623S11656930EA0086800906000000000000
B0605103206556S11656948EA0085900899000000000000
B0605143206487S11656964EA0085100895000000000000
B0605183206420S11656988EA0085200892000000000000
B0605223206355S11657016EA0084900888000000000000
B0605263206290S11657044EA0084100883000000000000
B0605303206227S11657070EA0084000886000000000000
B0605343206167S11657096EA0084200886000000000000
B0605383206106S11657124EA0083900882000000000000
B0605423206046S11657153EA0083700879000000000000
B0605463205986S11657185EA0083100873000000000000
B0605503205926S11657222EA0082300866000000000000
B0605543205868S11657261EA0081700860000000000000
B0605583205809S11657306EA0081100853000000000000
B0606023205751S11657348EA0080200845000000000000
B0606063205694S11657393EA0079700841000000000000
B0606103205639S11657442EA0079500836000000000000
B0606143205587S11657493EA0079000830000000000000
B0606183205542S11657550EA0078300825000000000000
B0606223205504S11657615EA0078100821000000000000
B0606263205486S11657688EA0077800820000000000000
B0606303205497S11657762EA0078000823000000000000
B0606343205534S11657822EA0077900822000000000000
B0606383205588S11657862EA0077400818000000000000
B0606423205649S11657887EA0077100811000000000000
B0606463205714S11657901EA0076500807000000000000
B0606503205783S11657905EA0076200808000000000000
B0606543205848S11657902EA0076300803000000000000
B0606583205913S11657894EA0075700798000000000000
B0607023205980S11657878EA0075000789000000000000
B0607063206043S11657850EA0074200782000000000000
B0607103206107S11657813EA0073400772000000000000
B0607143206176S11657781EA0072800770000000000000
B0607183206245S11657762EA0072700768000000000000
B0607223206314S11657757EA0072400766000000000000
B0607263206380S11657764EA0072000760000000000000
B0607303206442S11657788EA0071400755000000000000
B0607343206497S11657824EA0071000749000000000000
B0607383206548S11657871EA0070100741000000000000
B0607423206595S11657922EA0069600735000000000000
B0607463206639S11657970EA0069800741000000000000
B0607503206680S11658014EA0070300742000000000000
B0607543206718S11658063EA0070400743000000000000
B0607583206739S11658122EA0070700745000000000000
B0608023206713S11658174EA0070600744000000000000
B0608063206666S11658158EA0070600747000000000000
B0608103206670S11658095EA0070600743000000000000
B0608143206723S11658062EA0070000741000000000000
B0608183206782S11658080EA0070600746000000000000
B0608223206803S11658139EA0070600747000000000000
B0608263206775S11658191EA0070500744000000000000
B0608303206722S11658203EA0070100740000000000000
B0608343206669S11658180EA0069900741000000000000
B0608383206641S11658122EA0070000742000000000000
B0608423206658S11658057EA0069800739000000000000
B0608463206714S11658031EA0069900741000000000000
B0608503206769S11658047EA0070200743000000000000
B0608543206773S11658102EA0070300745000000000000
B0608583206725S11658100EA0070100742000000000000
B0609023206725S11658036EA0070000742000000000000
B0609063206777S11658015EA0070000744000000000000
B0609103206813S11658058EA0070600748000000000000
B0609143206788S11658104EA0070700750000000000000
B0609183206745S11658082EA0070900749000000000000
B0609223206754S11658017EA0070300740000000000000
B0609263206806S11657987EA0070600751000000000000
B0609303206856S11658006EA0071400754000000000000
B0609343206870S11658061EA0071500757000000000000
B0609383206832S11658091EA0071800758000000000000
B0609423206795S11658048EA0071500756000000000000
B0609463206813S11657985EA0071700760000000000000
B0609503206868S11657967EA0072100764000000000000
B0609543206910S11658005EA0072500768000000000000
B0609583206903S11658060EA0072900775000000000000
B0610023206857S11658075EA0073400775000000000000
B0610063206814S11658034EA0073000772000000000000
B0610103206818S11657963EA0072900775000000000000
B0610143206866S11657927EA0073500779000000000000
B0610183206917S11657956EA0073700782000000000000
B0610223206921S11658013EA0074100786000000000000
B0610263206874S11658028EA0074200784000000000000
B0610303206840S11657978EA0073900782000000000000
B0610343206849S11657907EA0074000785000000000000
B0610383206900S11657871EA0074400790000000000000
B0610423206951S11657894EA0075100795000000000000
B0610463206966S11657952EA0075300798000000000000
B0610503206930S11657991EA0075300796000000000000
B0610543206884S11657962EA0074800793000000000000
B0610583206879S11657892EA0075000796000000000000
B0611023206914S11657832EA0075100797000000000000
B0611063206972S11657809EA0075200796000000000000
B0611103207029S11657833EA0075300798000000000000
B0611143207035S11657889EA0075600801000000000000
B0611183206991S11657896EA0075800799000000000000
B0611223206986S11657827EA0075400799000000000000
B0611263207043S11657798EA0075800804000000000000
B0611303207082S11657845EA0076100805000000000000
B0611343207064S11657902EA0076200809000000000000
B0611383207014S11657905EA0077000820000000000000
B0611423206990S11657852EA0077800824000000000000
B0611463207017S11657789EA0078100828000000000000
B0611503207074S11657772EA0078300828000000000000
B0611543207124S11657805EA0078400830000000000000
B0611583207135S11657867EA0078300829000000000000
B0612023207103S11657915EA0078300830000000000000
B0612063207052S11657915EA0078800835000000000000
B0612103207013S11657870EA0079000836000000000000
B0612143207014S11657801EA0079000840000000000000
B0612183207060S11657757EA0079800847000000000000
B0612223207118S11657764EA0080100849000000000000
B0612263207155S11657813EA0080000848000000000000
B0612303207144S11657870EA0080400852000000000000
B0612343207099S11657878EA0080800854000000000000
B0612383207063S11657829EA0080800855000000000000
B0612423207069S11657757EA0081300860000000000000
B0612463207116S11657707EA0081800866000000000000
B0612503207177S11657707EA0082000865000000000000
B0612543207220S11657754EA0081700863000000000000
B0612583207220S11657819EA0081600863000000000000
B0613023207178S11657858EA0081700863000000000000
B0613063207125S11657849EA0081900866000000000000
B0613103207108S11657783EA0082600874000000000000
B0613143207155S11657737EA0083100879000000000000
B0613183207198S11657774EA0084100889000000000000
B0613223207173S11657818EA0084200887000000000000
B0613263207126S11657796EA0084500890000000000000
B0613303207116S11657729EA0084600891000000000000
B0613343207154S11657671EA0084800896000000000000
B0613383207213S11657663EA0085300898000000000000
B0613423207255S11657705EA0085300897000000000000
B0613463207258S11657764EA0085200898000000000000
B0613503207225S11657810EA0085500898000000000000
B0613543207177S11657820EA0086000907000000000000
B0613583207148S11657768EA0086200907000000000000
B0614023207182S11657715EA0085800901000000000000
B0614063207238S11657738EA0085800906000000000000
B0614103207230S11657792EA0086500910000000000000
B0614143207180S11657789EA0086600911000000000000
B0614183207163S11657728EA0087000915000000000000
B0614223207203S11657676EA0086900913000000000000
B0614263207265S11657670EA0087100915000000000000
B0614303207297S11657720EA0087500922000000000000
B0614343207268S11657761EA0087800920000000000000
B0614383207217S11657744EA0087800924000000000000
B0614423207198S11657681EA0088700933000000000000
B0614463207225S11657619EA0089100937000000000000
B0614503207282S11657612EA0089600941000000000000
B0614543207316S11657660EA0089800942000000000000
B0614583207307S11657718EA0089900944000000000000
B0615023207264S11657744EA0090200945000000000000
B0615063207213S11657723EA0090100945000000000000
B0615103207200S11657660EA0090500951000000000000
B0615143207241S11657611EA0090400949000000000000
B0615183207299S11657610EA0090800954000000000000
B0615223207338S11657654EA0091300957000000000000
B0615263207334S11657712EA0091100955000000000000
B0615303207285S11657735EA0090800952000000000000
B0615343207239S11657693EA0090800954000000000000
B0615383207239S11657621EA0091200960000000000000
B0615423207285S11657572EA0091600959000000000000
B0615463207350S11657580EA0091500960000000000000
B0615503207389S11657636EA0091600962000000000000
B0615543207375S11657696EA0092100965000000000000
B0615583207326S11657720EA0092500970000000000000
B0616023207278S11657688EA0092400967000000000000
B0616063207268S11657614EA0091400958000000000000
B0616103207307S11657542EA0090900956000000000000
B0616143207371S11657506EA0091800966000000000000
B0616183207433S11657512EA0093200976000000000000
B0616223207477S11657554EA0093200974000000000000
B0616263207492S11657615EA0092800969000000000000
B0616303207471S11657672EA0092600968000000000000
B0616343207433S11657719EA0092200964000000000000
B0616383207378S11657745EA0091600957000000000000
B0616423207317S11657738EA0091400960000000000000
B0616463207268S11657693EA0091900962000000000000
B0616503207242S11657627EA0091900962000000000000
B0616543207222S11657553EA0090800951000000000000
B0616583207180S11657494EA0089800939000000000000
B0617023207116S11657478EA0088900933000000000000
B0617063207059S11657506EA0088500927000000000000
B0617103207017S11657560EA0087900921000000000000
B0617143206991S11657628EA0087600919000000000000
B0617183206972S11657696EA0087700919000000000000
B0617223206961S11657768EA0087000913000000000000
B0617263206953S11657841EA0086600910000000000000
B0617303206944S11657915EA0086200907000000000000
B0617343206934S11657988EA0085700901000000000000
B0617383206925S11658060EA0085400901000000000000
B0617423206914S11658126EA0085600900000000000000
B0617463206887S11658183EA0085100892000000000000
B0617503206840S11658219EA0084100885000000000000
B0617543206782S11658225EA0083600881000000000000
B0617583206722S11658209EA0083800882000000000000
B0618023206661S11658193EA0083900882000000000000
B0618063206614S11658219EA0084600894000000000000
B0618103206634S11658275EA0085300896000000000000
B0618143206696S11658283EA0085300898000000000000
B0618183206740S11658230EA0085400899000000000000
B0618223206719S11658166EA0085500900000000000000
B0618263206665S11658157EA0084900893000000000000
B0618303206639S11658214EA0084500891000000000000
B0618343206678S11658265EA0084900897000000000000
B0618383206740S11658248EA0085400902000000000000
B0618423206762S11658182EA0086200910000000000000
B0618463206725S11658140EA0086400909000000000000
B0618503206688S11658175EA0086200908000000000000
B0618543206710S11658229EA0086400912000000000000
B0618583206766S11658236EA0087200917000000000000
B0619023206805S11658187EA0087300916000000000000
B0619063206791S11658123EA0087100918000000000000
B0619103206747S11658127EA0087600917000000000000
B0619143206743S11658184EA0086900912000000000000
B0619183206793S11658218EA0087400919000000000000
B0619223206849S11658192EA0087800923000000000000
B0619263206862S11658125EA0087800924000000000000
B0619303206822S11658086EA0087800921000000000000
B0619343206780S11658117EA0087800923000000000000
B0619383206793S11658175EA0088100927000000000000
B0619423206849S11658196EA0088400930000000000000
B0619463206907S11658165EA0089100935000000000000
B0619503206934S11658104EA0089400942000000000000
B0619543206923S11658041EA0089500940000000000000
B0619583206884S11658004EA0089400937000000000000
B0620023206840S11658004EA0089700943000000000000
B0620063206816S11658039EA0089700940000000000000
B0620103206806S11658089EA0089300937000000000000
B0620143206816S11658144EA0089400939000000000000
B0620183206845S11658191EA0089400939000000000000
B0620223206891S11658222EA0089500941000000000000
B0620263206947S11658235EA0089700941000000000000
B0620303207004S11658226EA0089500940000000000000
B0620343207035S11658175EA0089100937000000000000
B0620383207021S11658112EA0088100925000000000000
B0620423206968S11658086EA0087600927000000000000
B0620463206923S11658115EA0088300935000000000000
B0620503206920S11658173EA0088900938000000000000
B0620543206961S11658214EA0088900938000000000000
B0620583207024S11658205EA0088900937000000000000
B0621023207061S11658152EA0088800937000000000000
B0621063207055S11658087EA0088500931000000000000
B0621103207009S11658052EA0088000931000000000000
B0621143206966S11658073EA0088800937000000000000
B0621183206960S11658130EA0088700932000000000000
B0621223207005S11658178EA0088000927000000000000
B0621263207072S11658174EA0088000929000000000000
B0621303207113S11658119EA0088000927000000000000
B0621343207109S11658049EA0087800923000000000000
B0621383207070S11658002EA0087600923000000000000
B0621423207022S11658004EA0088000928000000000000
B0621463206995S11658050EA0088200927000000000000
B0621503207008S11658110EA0088100926000000000000
B0621543207064S11658140EA0088000924000000000000
B0621583207128S11658114EA0087700922000000000000
B0622023207150S11658048EA0087700921000000000000
B0622063207115S11657995EA0087200914000000000000
B0622103207059S11657979EA0087000917000000000000
B0622143207009S11657989EA0087300916000000000000
B0622183206979S11658037EA0087000914000000000000
B0622223206987S11658097EA0087000914000000000000
B0622263207029S11658140EA0086700909000000000000
B0622303207091S11658141EA0086500909000000000000
B0622343207147S11658102EA0086400909000000000000
B0622383207156S11658032EA0086500909000000000000
B0622423207113S11657992EA0086100907000000000000
B0622463207066S11658013EA0085800905000000000000
B0622503207055S11658073EA0085600902000000000000
B0622543207082S11658131EA0085500900000000000000
B0622583207139S11658160EA0085300900000000000000
B0623023207198S11658130EA0085300898000000000000
B0623063207226S11658066EA0084700892000000000000
B0623103207217S11657996EA0084300887000000000000
B0623143207180S11657941EA0084000885000000000000
B0623183207129S11657905EA0083200879000000000000
B0623223207072S11657876EA0082600871000000000000
B0623263207013S11657855EA0081700862000000000000
B0623303206949S11657840EA0080800854000000000000
B0623343206886S11657840EA0080600853000000000000
B0623383206823S11657852EA0080200847000000000000
B0623423206764S11657867EA0080300851000000000000
B0623463206702S11657879EA0080500853000000000000
B0623503206641S11657880EA0080500850000000000000
B0623543206580S11657888EA0080000845000000000000
B0623583206524S11657896EA0080000845000000000000
B0624023206470S11657904EA0079500839000000000000
B0624063206415S11657909EA0078800832000000000000
B0624103206359S11657898EA0078200825000000000000
B0624143206305S11657879EA0077600819000000000000
B0624183206254S11657852EA0077100812000000000000
B0624223206202S11657820EA0076200802000000000000
B0624263206153S11657783EA0075600799000000000000
B0624303206108S11657741EA0075200794000000000000
B0624343206065S11657696EA0075100793000000000000
B0624383206029S11657642EA0074700791000000000000
B0624423205997S11657585EA0074200783000000000000
B0624463205961S11657529EA0073500776000000000000
B0624503205926S11657472EA0072900769000000000000
B0624543205891S11657415EA0072100762000000000000
B0624583205854S11657360EA0071700758000000000000
B0625023205809S11657321EA0071800763000000000000
B0625063205761S11657326EA0072700771000000000000
B0625103205769S11657389EA0072700769000000000000
B0625143205828S11657394EA0072500769000000000000
B0625183205856S11657329EA0072200762000000000000
B0625223205831S11657265EA0071800762000000000000
B0625263205781S11657261EA0072300768000000000000
B0625303205776S11657326EA0072800769000000000000
B0625343205831S11657361EA0072700770000000000000
B0625383205890S11657329EA0072500767000000000000
B0625423205904S11657259EA0072100763000000000000
B0625463205881S11657190EA0071700760000000000000
B0625503205848S11657126EA0071400756000000000000
B0625543205803S11657075EA0071600761000000000000
B0625583205752S11657088EA0072000762000000000000
B0626023205748S11657151EA0071800758000000000000
B0626063205796S11657190EA0071500757000000000000
B0626103205854S11657166EA0071900764000000000000
B0626143205885S11657105EA0072000763000000000000
B0626183205885S11657034EA0072000765000000000000
B0626223205847S11656997EA0072200768000000000000
B0626263205812S11657030EA0072200761000000000000
B0626303205828S11657091EA0071500753000000000000
B0626343205886S11657122EA0070600747000000000000
B0626383205946S11657088EA0070500749000000000000
B0626423205939S11657020EA0071000756000000000000
B0626463205890S11657004EA0071500757000000000000
B0626503205856S11657051EA0070900748000000000000
B0626543205878S11657109EA0070500748000000000000
B0626583205939S11657118EA0070800751000000000000
B0627023205986S11657072EA0070700751000000000000
B0627063205995S11657001EA0070500749000000000000
B0627103205967S11656940EA0070400748000000000000
B0627143205917S11656916EA0070500750000000000000
B0627183205873S11656944EA0070600751000000000000
B0627223205870S11657004EA0070800750000000000000
B0627263205916S11657042EA0070800751000000000000
B0627303205972S11657023EA0070800752000000000000
B0627343206004S11656966EA0070800749000000000000
B0627383206006S11656893EA0070400746000000000000
B0627423205980S11656832EA0070600749000000000000
B0627463205932S11656815EA0071000754000000000000
B0627503205916S11656865EA0071500757000000000000
B0627543205967S11656895EA0071100749000000000000
B0627583206023S11656852EA0070200741000000000000
B0628023206023S11656774EA0070100745000000000000
B0628063205974S11656736EA0070500748000000000000
B0628103205925S11656763EA0070800751000000000000
B0628143205922S11656825EA0072200766000000000000
B0628183205969S11656861EA0073200772000000000000
B0628223206026S11656840EA0072900769000000000000
B0628263206050S11656775EA0072900767000000000000
B0628303206024S11656715EA0072500764000000000000
B0628343205972S11656693EA0072300763000000000000
B0628383205941S11656739EA0073000772000000000000
B0628423205972S11656789EA0073500774000000000000
B0628463206030S11656761EA0072800767000000000000
B0628503206012S11656697EA0073400775000000000000
B0628543205965S11656722EA0073400773000000000000
B0628583205978S11656789EA0074000781000000000000
B0629023206042S11656793EA0074800789000000000000
B0629063206065S11656726EA0074800787000000000000
B0629103206028S11656672EA0075100791000000000000
B0629143205977S11656693EA0075200791000000000000
B0629183205974S11656758EA0075800798000000000000
B0629223206026S11656793EA0076100801000000000000
B0629263206082S11656760EA0076000796000000000000
B0629303206088S11656684EA0076000799000000000000
B0629343206045S11656640EA0076300804000000000000
B0629383205993S11656653EA0076500804000000000000
B0629423205974S11656714EA0076600805000000000000
B0629463206011S11656765EA0077200812000000000000
B0629503206068S11656749EA0077600816000000000000
B0629543206089S11656685EA0077800816000000000000
B0629583206058S11656637EA0078200823000000000000
B0630023206011S11656650EA0078500824000000000000
B0630063205998S11656708EA0078600826000000000000
B0630103206038S11656748EA0078900829000000000000
B0630143206095S11656728EA0079000829000000000000
B0630183206121S11656662EA0078800831000000000000
B0630223206093S11656615EA0079800841000000000000
B0630263206054S11656641EA0079700836000000000000
B0630303206071S11656696EA0080100841000000000000
B0630343206129S11656688EA0079900839000000000000
B0630383206140S11656622EA0080000844000000000000
B0630423206094S11656593EA0080500845000000000000
B0630463206055S11656633EA0080400842000000000000
B0630503206064S11656697EA0080600848000000000000
B0630543206111S11656734EA0081000849000000000000
B0630583206173S11656726EA0081000849000000000000
B0631023206218S11656671EA0080800846000000000000
B0631063206220S11656596EA0080400844000000000000
B0631103206181S11656542EA0080600847000000000000
B0631143206130S11656557EA0081000850000000000000
B0631183206120S11656620EA0080800849000000000000
B0631223206164S11656669EA0081000851000000000000
B0631263206221S11656637EA0081500856000000000000
B0631303206234S11656566EA0081700860000000000000
B0631343206201S11656514EA0082200862000000000000
B0631383206147S11656510EA0081800858000000000000
B0631423206101S11656545EA0081700856000000000000
B0631463206080S11656605EA0081800860000000000000
B0631503206097S11656666EA0082100860000000000000
B0631543206145S11656706EA0081500854000000000000
B0631583206210S11656713EA0081200852000000000000
B0632023206270S11656682EA0081500855000000000000
B0632063206306S11656617EA0081400855000000000000
B0632103206303S11656541EA0081300852000000000000
B0632143206262S11656480EA0080700846000000000000
B0632183206198S11656459EA0080000843000000000000
B0632223206143S11656484EA0081100856000000000000
B0632263206124S11656537EA0082300867000000000000
B0632303206146S11656587EA0082700865000000000000
B0632343206201S11656601EA0082600866000000000000
B0632383206253S11656565EA0082400865000000000000
B0632423206272S11656501EA0082600869000000000000
B0632463206257S11656440EA0083000871000000000000
B0632503206219S11656403EA0083000871000000000000
B0632543206173S11656409EA0082700867000000000000
B0632583206137S11656450EA0082300863000000000000
B0633023206117S11656506EA0081700855000000000000
B0633063206120S11656574EA0080800848000000000000
B0633103206147S11656633EA0080600845000000000000
B0633143206198S11656670EA0080100840000000000000
B0633183206260S11656674EA0079800837000000000000
B0633223206318S11656643EA0079600837000000000000
B0633263206366S11656591EA0079900842000000000000
B0633303206379S11656523EA0080100841000000000000
B0633343206351S11656457EA0079500838000000000000
B0633383206302S11656441EA0080400846000000000000
B0633423206272S11656489EA0080300844000000000000
B0633463206296S11656549EA0080200844000000000000
B0633503206359S11656567EA0080300846000000000000
B0633543206418S11656536EA0080800852000000000000
B0633583206449S11656474EA0081300856000000000000
B0634023206442S11656406EA0081500860000000000000
B0634063206401S11656377EA0081600856000000000000
B0634103206351S11656390EA0080600845000000000000
B0634143206298S11656416EA0079900839000000000000
B0634183206244S11656445EA0079700835000000000000
B0634223206188S11656475EA0079300832000000000000
B0634263206132S11656502EA0078700825000000000000
B0634303206071S11656519EA0078300822000000000000
B0634343206008S11656526EA0078800821000000000000
B0634383205946S11656533EA0078300816000000000000
B0634423205882S11656540EA0077500808000000000000
B0634463205818S11656554EA0077000803000000000000
B0634503205766S11656593EA0076800800000000000000
B0634543205733S11656653EA0076400796000000000000
B0634583205713S11656721EA0076500791000000000000
B0635023205701S11656787EA0076000792000000000000
B0635063205691S11656852EA0075700788000000000000
B0635103205683S11656921EA0074800781000000000000
B0635143205679S11656991EA0074800783000000000000
B0635183205646S11657043EA0075100787000000000000
B0635223205595S11657038EA0075500791000000000000
B0635263205570S11656982EA0075300781000000000000
B0635303205591S11656912EA0074000771000000000000
B0635343205646S11656873EA0073900771000000000000
B0635383205711S11656875EA0073200764000000000000
B0635423205770S11656905EA0073000765000000000000
B0635463205790S11656962EA0073600772000000000000
B0635503205751S11656994EA0073200764000000000000
B0635543205701S11656961EA0072200753000000000000
B0635583205687S11656887EA0071900752000000000000
B0636023205709S11656817EA0072400758000000000000
B0636063205761S11656786EA0072900760000000000000
B0636103205820S11656784EA0072400751000000000000
B0636143205881S11656793EA0071000740000000000000
B0636183205947S11656802EA0070200733000000000000
B0636223206012S11656823EA0069500729000000000000
B0636263206068S11656862EA0069000726000000000000
B0636303206111S11656914EA0068700724000000000000
B0636343206143S11656975EA0068700722000000000000
B0636383206168S11657039EA0068200717000000000000
B0636423206192S11657105EA0067600711000000000000
B0636463206216S11657174EA0067300706000000000000
B0636503206233S11657247EA0066800706000000000000
B0636543206241S11657317EA0067200707000000000000
B0636583206241S11657389EA0067000705000000000000
B0637023206223S11657458EA0066600703000000000000
B0637063206179S11657503EA0066900706000000000000
B0637103206129S11657478EA0067000708000000000000
B0637143206132S11657410EA0066900699000000000000
B0637183206180S11657364EA0066000693000000000000
B0637223206244S11657358EA0065600690000000000000
B0637263206309S11657371EA0065300689000000000000
B0637303206359S11657420EA0065600695000000000000
B0637343206340S11657478EA0066300701000000000000
B0637383206301S11657450EA0066800704000000000000
B0637423206329S11657398EA0067100707000000000000
B0637463206385S11657412EA0067400713000000000000
B0637503206400S11657472EA0067700713000000000000
B0637543206362S11657507EA0067500711000000000000
B0637583206315S11657481EA0066700701000000000000
B0638023206297S11657415EA0066200697000000000000
B0638063206315S11657345EA0066100698000000000000
B0638103206364S11657295EA0066200699000000000000
B0638143206423S11657307EA0066600708000000000000
B0638183206420S11657364EA0067800715000000000000
B0638223206372S11657365EA0067700712000000000000
B0638263206366S11657308EA0068000715000000000000
B0638303206420S11657295EA0068000715000000000000
B0638343206445S11657350EA0068800727000000000000
B0638383206413S11657389EA0069600733000000000000
B0638423206367S11657371EA0069700733000000000000
B0638463206361S11657308EA0070000738000000000000
B0638503206402S11657267EA0070300739000000000000
B0638543206458S11657277EA0070300740000000000000
B0638583206485S11657332EA0070600747000000000000
B0639023206454S11657374EA0071300752000000000000
B0639063206411S11657350EA0072000759000000000000
B0639103206415S11657287EA0072200756000000000000
B0639143206468S11657261EA0072000758000000000000
B0639183206519S11657298EA0072200760000000000000
B0639223206520S11657360EA0072700766000000000000
B0639263206475S11657386EA0073100769000000000000
B0639303206431S11657348EA0073100771000000000000
B0639343206433S11657280EA0073400773000000000000
B0639383206481S11657238EA0073700777000000000000
B0639423206541S11657252EA0074100779000000000000
B0639463206567S11657311EA0074300782000000000000
B0639503206545S11657369EA0074400784000000000000
B0639543206494S11657387EA0074700785000000000000
B0639583206452S11657348EA0075000791000000000000
B0640023206462S11657283EA0075700795000000000000
B0640063206518S11657263EA0075600793000000000000
B0640103206569S11657306EA0075200793000000000000
B0640143206556S11657365EA0076200807000000000000
B0640183206509S11657368EA0077300813000000000000
B0640223206478S11657317EA0077100809000000000000
B0640263206487S11657248EA0077400814000000000000
B0640303206532S11657204EA0077600815000000000000
B0640343206593S11657205EA0077500813000000000000
B0640383206637S11657250EA0077600819000000000000
B0640423206645S11657313EA0078000820000000000000
B0640463206613S11657363EA0078200822000000000000
B0640503206562S11657367EA0078600826000000000000
B0640543206522S11657321EA0078500825000000000000
B0640583206527S11657251EA0078900831000000000000
B0641023206575S11657218EA0079900841000000000000
B0641063206621S11657246EA0080200839000000000000
B0641103206622S11657307EA0079900838000000000000
B0641143206579S11657337EA0080200844000000000000
B0641183206533S11657312EA0080800850000000000000
B0641223206517S11657251EA0081200852000000000000
B0641263206546S11657190EA0081300853000000000000
B0641303206606S11657178EA0081100852000000000000
B0641343206654S11657215EA0081100853000000000000
B0641383206670S11657277EA0081100856000000000000
B0641423206647S11657334EA0081600861000000000000
B0641463206598S11657355EA0082100864000000000000
B0641503206553S11657316EA0082000863000000000000
B0641543206565S11657251EA0083000876000000000000
B0641583206618S11657246EA0083500877000000000000
B0642023206647S11657299EA0083300876000000000000
B0642063206622S11657352EA0083400876000000000000
B0642103206571S11657342EA0083300877000000000000
B0642143206559S11657277EA0084000885000000000000
B0642183206602S11657234EA0084800890000000000000
B0642223206657S11657244EA0085100891000000000000
B0642263206684S11657298EA0084700888000000000000
B0642303206671S11657356EA0085000892000000000000
B0642343206631S11657390EA0084900889000000000000
B0642383206580S11657386EA0084700885000000000000
B0642423206541S11657337EA0084100881000000000000
B0642463206532S11657265EA0084300880000000000000
B0642503206553S11657191EA0083900879000000000000
B0642543206608S11657156EA0084300885000000000000
B0642583206653S11657190EA0085100891000000000000
B0643023206652S11657248EA0085100890000000000000
B0643063206608S11657268EA0085800898000000000000
B0643103206576S11657216EA0085900897000000000000
B0643143206606S11657155EA0086400902000000000000
B0643183206662S11657155EA0086600905000000000000
B0643223206697S11657203EA0086300899000000000000
B0643263206693S11657265EA0086000899000000000000
B0643303206653S11657308EA0086300906000000000000
B0643343206601S11657296EA0087200914000000000000
B0643383206580S11657228EA0086900907000000000000
B0643423206611S11657161EA0087200917000000000000
B0643463206667S11657138EA0088100920000000000000
B0643503206721S11657164EA0087900918000000000000
B0643543206744S11657220EA0087700917000000000000
B0643583206727S11657277EA0087900921000000000000
B0644023206679S11657303EA0088200925000000000000
B0644063206647S11657252EA0089100934000000000000
B0644103206679S11657195EA0089800941000000000000
B0644143206727S11657205EA0090600947000000000000
B0644183206736S11657263EA0090200942000000000000
B0644223206697S11657300EA0090600952000000000000
B0644263206658S11657263EA0091900959000000000000
B0644303206670S11657191EA0091800957000000000000
B0644343206725S11657165EA0092500967000000000000
B0644383206764S11657204EA0092800968000000000000
B0644423206757S11657263EA0093100972000000000000
B0644463206713S11657285EA0093900981000000000000
B0644503206678S11657241EA0094300983000000000000
B0644543206696S11657170EA0093900978000000000000
B0644583206754S11657148EA0094200983000000000000
B0645023206800S11657185EA0094600983000000000000
B0645063206805S11657250EA0094100982000000000000
B0645103206764S11657285EA0094800988000000000000
B0645143206723S11657241EA0095500995000000000000
B0645183206749S11657173EA0095400992000000000000
B0645223206810S11657165EA0096001001000000000000
B0645263206844S11657217EA0096200999000000000000
B0645303206822S11657276EA0096201001000000000000
B0645343206773S11657281EA0096901010000000000000
B0645383206741S11657226EA0097101010000000000000
B0645423206761S11657156EA0097001006000000000000
B0645463206818S11657121EA0097201013000000000000
B0645503206877S11657130EA0097901018000000000000
E064551PEV
B0645513206888S11657137EA0098001017000000000000
B0645523206900S11657147EA0098001017000000000000
B0645533206910S11657159EA0097901016000000000000
B0645543206920S11657172EA0097701015000000000000
B0645553206926S11657186EA0097601013000000000000
B0645563206930S11657202EA0097501012000000000000
B0645573206933S11657217EA0097401010000000000000
B0645583206933S11657233EA0097201009000000000000
B0645593206930S11657250EA0097101008000000000000
B0646003206926S11657264EA0097101007000000000000
B0646013206920S11657277EA0096901006000000000000
B0646023206910S11657287EA0096901007000000000000
B0646033206899S11657296EA0096801007000000000000
B0646043206888S11657304EA0096801006000000000000
B0646053206875S11657311EA0096801006000000000000
B0646063206862S11657315EA0096801006000000000000
B0646073206848S11657319EA0096801006000000000000
B0646113206790S11657324EA0096501003000000000000
B0646153206728S11657306EA0095800995000000000000
B0646193206683S11657250EA0094900990000000000000
B0646233206667S11657174EA0095200993000000000000
B0646273206686S11657103EA0095400993000000000000
B0646313206735S11657049EA0095100991000000000000
B0646353206799S11657018EA0094800988000000000000
B0646393206862S11657027EA0095200994000000000000
B0646433206890S11657085EA0095200993000000000000
B0646473206869S11657146EA0094900989000000000000
B0646513206818S11657179EA0094800990000000000000
B0646553206760S11657194EA0095100997000000000000
B0646593206718S11657150EA0096601010000000000000
B0647033206739S11657086EA0097101013000000000000
B0647073206795S11657075EA0097301012000000000000
B0647113206831S11657122EA0096801009000000000000
B0647153206812S11657174EA0097301012000000000000
B0647193206762S11657190EA0097201010000000000000
B0647233206710S11657163EA0096601004000000000000
B0647273206686S11657098EA0096201001000000000000
B0647313206705S11657025EA0096100995000000000000
B0647353206760S11656977EA0095100990000000000000
B0647393206829S11656953EA0094900986000000000000
B0647433206901S11656945EA0094500985000000000000
B0647473206974S11656940EA0094300982000000000000
B0647513207048S11656938EA0094000981000000000000
B0647553207125S11656930EA0093900979000000000000
B0647593207204S11656922EA0094100982000000000000
B0648033207282S11656910EA0094400983000000000000
B0648073207362S11656899EA0093600973000000000000
B0648113207443S11656880EA0092700962000000000000
B0648153207525S11656861EA0091900960000000000000
B0648193207602S11656840EA0092500967000000000000
B0648233207674S11656821EA0092300960000000000000
B0648273207750S11656805EA0090800945000000000000
B0648313207830S11656791EA0090000939000000000000
B0648353207908S11656775EA0089700936000000000000
B0648393207986S11656761EA0089700935000000000000
B0648433208062S11656744EA0089600933000000000000
B0648473208139S11656728EA0089300930000000000000
B0648513208216S11656715EA0089100929000000000000
B0648553208292S11656702EA0089000928000000000000
B0648593208365S11656691EA0088800926000000000000
B0649033208438S11656680EA0088500923000000000000
B0649073208512S11656667EA0087900916000000000000
B0649113208589S11656653EA0087800916000000000000
B0649153208665S11656640EA0087800917000000000000
B0649193208740S11656628EA0088300924000000000000
B0649233208808S11656602EA0088900929000000000000
B0649273208838S11656533EA0089600937000000000000
B0649313208808S11656476EA0090500943000000000000
B0649353208758S11656483EA0090200935000000000000
B0649393208730S11656540EA0089500931000000000000
B0649433208750S11656604EA0089900937000000000000
B0649473208803S11656639EA0090100937000000000000
B0649513208870S11656649EA0089900935000000000000
B0649553208940S11656646EA0089400929000000000000
B0649593209013S11656639EA0088800925000000000000
B0650033209084S11656624EA0088600923000000000000
B0650073209158S11656606EA0088000915000000000000
B0650113209236S11656591EA0087500913000000000000
B0650153209310S11656578EA0087600918000000000000
B0650193209382S11656566EA0088000918000000000000
B0650233209455S11656554EA0088000917000000000000
B0650273209527S11656542EA0087600913000000000000
B0650313209601S11656532EA0087100906000000000000
B0650353209677S11656518EA0086400900000000000000
B0650393209754S11656515EA0086100898000000000000
B0650433209826S11656527EA0086200901000000000000
B0650473209898S11656545EA0086100895000000000000
B0650513209973S11656549EA0085500890000000000000
B0650553210036S11656511EA0085600890000000000000
B0650593210049S11656440EA0085800891000000000000
B0651033210006S11656394EA0085600888000000000000
B0651073209945S11656401EA0084800882000000000000
B0651113209886S11656425EA0083800870000000000000
B0651153209829S11656462EA0082200856000000000000
B0651193209773S11656507EA0081800854000000000000
B0651233209720S11656554EA0081400850000000000000
B0651273209664S11656597EA0081000848000000000000
B0651313209601S11656623EA0080600839000000000000
B0651353209533S11656640EA0079900833000000000000
B0651393209464S11656653EA0079800833000000000000
B0651433209396S11656662EA0079800833000000000000
B0651473209330S11656665EA0079700832000000000000
B0651513209261S11656663EA0079200825000000000000
B0651553209192S11656657EA0078600820000000000000
B0651593209122S11656649EA0078500819000000000000
B0652033209053S11656657EA0078100814000000000000
B0652073208983S11656666EA0077700811000000000000
B0652113208911S11656676EA0077400810000000000000
B0652153208840S11656676EA0077600814000000000000
B0652193208773S11656682EA0078600825000000000000
B0652233208740S11656734EA0080100839000000000000
B0652273208780S11656780EA0081100846000000000000
B0652313208836S11656753EA0081300846000000000000
B0652353208840S11656682EA0081000844000000000000
B0652393208795S11656639EA0081100845000000000000
B0652433208749S11656662EA0081700851000000000000
B0652473208758S11656724EA0082400858000000000000
B0652513208814S11656747EA0082600860000000000000
B0652553208866S11656705EA0082600861000000000000
B0652593208867S11656635EA0082400860000000000000
B0653033208819S11656597EA0082200855000000000000
B0653073208758S11656607EA0081900853000000000000
B0653113208741S11656667EA0083200874000000000000
B0653153208784S11656705EA0084600881000000000000
B0653193208833S11656678EA0084800882000000000000
B0653233208834S11656613EA0084500879000000000000
B0653273208788S11656581EA0084500881000000000000
B0653313208747S11656618EA0085000886000000000000
B0653353208760S11656678EA0085500890000000000000
B0653393208819S11656692EA0085600889000000000000
B0653433208864S11656644EA0085600892000000000000
B0653473208859S11656578EA0086100896000000000000
B0653513208815S11656545EA0086200897000000000000
B0653553208764S11656563EA0086200898000000000000
B0653593208763S11656624EA0086500903000000000000
B0654033208818S11656648EA0086700903000000000000
B0654073208860S11656597EA0086600903000000000000
B0654113208846S11656531EA0086600904000000000000
B0654153208797S11656502EA0086600904000000000000
B0654193208749S11656529EA0087200912000000000000
B0654233208746S11656588EA0087800919000000000000
B0654273208786S11656626EA0088500925000000000000
B0654313208838S11656607EA0088500922000000000000
B0654353208859S11656546EA0088600928000000000000
B0654393208831S11656500EA0088900929000000000000
B0654433208781S11656500EA0088900927000000000000
B0654473208753S11656550EA0089000931000000000000
B0654513208781S11656600EA0089400933000000000000
B0654553208838S11656592EA0089400934000000000000
B0654593208863S11656531EA0089500936000000000000
B0655033208838S11656475EA0089700938000000000000
B0655073208789S11656455EA0089700935000000000000
B0655113208741S11656487EA0089300931000000000000
B0655153208736S11656553EA0089800940000000000000
B0655193208789S11656572EA0090200940000000000000
B0655233208831S11656516EA0089900940000000000000
B0655273208823S11656444EA0090000941000000000000
B0655313208777S11656398EA0090100940000000000000
B0655353208720S11656402EA0089700934000000000000
B0655393208681S11656453EA0088900927000000000000
B0655433208680S11656522EA0088000915000000000000
B0655473208720S11656579EA0087200910000000000000
B0655513208780S11656620EA0086700908000000000000
B0655553208849S11656646EA0086600908000000000000
B0655593208922S11656659EA0086900911000000000000
B0656033208987S11656632EA0087400918000000000000
B0656073209027S11656571EA0087700922000000000000
B0656113209026S11656494EA0087800921000000000000
B0656153208984S11656442EA0087800922000000000000
B0656193208928S11656444EA0088200923000000000000
B0656233208893S11656496EA0087600918000000000000
B0656273208907S11656562EA0088200924000000000000
B0656313208959S11656601EA0088300926000000000000
B0656353209016S11656575EA0088300922000000000000
B0656393209032S11656503EA0088000922000000000000
B0656433209003S11656441EA0088500928000000000000
B0656473208950S11656412EA0088600927000000000000
B0656513208901S11656441EA0088500927000000000000
B0656553208884S11656505EA0088900934000000000000
B0656593208912S11656559EA0090000941000000000000
B0657033208968S11656544EA0089900943000000000000
B0657073208990S11656479EA0089900939000000000000
B0657113208963S11656415EA0089500935000000000000
B0657153208907S11656389EA0088900932000000000000
B0657193208850S11656414EA0089200937000000000000
B0657233208827S11656477EA0089700941000000000000
B0657273208866S11656531EA0090600947000000000000
B0657313208928S11656522EA0090800952000000000000
B0657353208951S11656454EA0091100955000000000000
B0657393208920S11656396EA0091400957000000000000
B0657433208864S11656397EA0091500957000000000000
B0657473208840S11656454EA0092100968000000000000
B0657513208864S11656511EA0092900973000000000000
B0657553208919S11656537EA0093400977000000000000
B0657593208975S11656515EA0093800980000000000000
B0658033209009S11656458EA0094100985000000000000
B0658073208997S11656398EA0094600989000000000000
B0658113208950S11656376EA0094100979000000000000
B0658153208892S11656393EA0093200970000000000000
B0658193208841S11656436EA0093500977000000000000
B0658233208845S11656501EA0094700990000000000000
B0658273208898S11656526EA0095000988000000000000
B0658313208948S11656481EA0094600989000000000000
B0658353208957S11656410EA0095300995000000000000
B0658393208909S11656379EA0095700999000000000000
B0658433208876S11656427EA0096401005000000000000
B0658473208906S11656485EA0096801010000000000000
B0658513208964S11656480EA0097201014000000000000
B0658553208990S11656422EA0098301027000000000000
B0658593208963S11656372EA0098601025000000000000
B0659033208912S11656383EA0098401030000000000000
B0659073208910S11656440EA0099801042000000000000
B0659113208961S11656464EA0100301045000000000000
B0659153209005S11656427EA0100901055000000000000
B0659193208997S11656368EA0101701057000000000000
B0659233208946S11656355EA0101001049000000000000
B0659273208919S11656407EA0101801066000000000000
B0659313208954S11656449EA0102901070000000000000
B0659353209009S11656424EA0102301068000000000000
B0659393209014S11656359EA0103601080000000000000
B0659433208974S11656325EA0103801078000000000000
B0659473208924S11656349EA0103701080000000000000
B0659513208915S11656407EA0104501090000000000000
B0659553208962S11656445EA0104701089000000000000
B0659593209018S11656418EA0104801094000000000000
B0700033209018S11656351EA0105401098000000000000
B0700073208970S11656316EA0105501098000000000000
B0700113208922S11656344EA0106101106000000000000
B0700153208915S11656406EA0106501110000000000000
B0700193208958S11656450EA0105801098000000000000
B0700233209024S11656442EA0105201093000000000000
B0700273209080S11656398EA0105201096000000000000
B0700313209101S11656327EA0105401096000000000000
B0700353209074S11656260EA0105801105000000000000
B0700393209019S11656269EA0106301103000000000000
B0700433209013S11656334EA0106001102000000000000
B0700473209067S11656364EA0106001102000000000000
B0700513209133S11656349EA0105701098000000000000
B0700553209175S11656290EA0106301111000000000000
B0700593209153S11656237EA0107801122000000000000
B0701033209102S11656245EA0107701121000000000000
B0701073209087S11656305EA0107801126000000000000
B0701113209115S11656357EA0108301127000000000000
B0701153209169S11656371EA0108301129000000000000
B0701193209218S11656342EA0108701133000000000000
B0701233209232S11656282EA0109001137000000000000
B0701273209200S11656236EA0109301138000000000000
B0701313209150S11656243EA0109501140000000000000
B0701353209143S11656302EA0109801143000000000000
B0701393209191S11656336EA0109801145000000000000
B0701433209245S11656312EA0110001146000000000000
B0701473209270S11656250EA0110301150000000000000
B0701513209257S11656188EA0110901156000000000000
B0701553209217S11656154EA0110901154000000000000
B0701593209165S11656165EA0110601148000000000000
B0702033209133S11656221EA0110401152000000000000
B0702073209162S11656276EA0111201158000000000000
B0702113209221S11656272EA0111401158000000000000
B0702153209248S11656212EA0111601160000000000000
B0702193209226S11656155EA0111401160000000000000
B0702233209174S11656139EA0111301155000000000000
B0702273209118S11656155EA0110701153000000000000
B0702313209062S11656177EA0110701149000000000000
B0702353209005S11656207EA0110501148000000000000
B0702393208977S11656264EA0110601148000000000000
B0702433209019S11656318EA0110201144000000000000
B0702473209088S11656321EA0109601137000000000000
B0702513209154S11656286EA0109101136000000000000
B0702553209202S11656227EA0109201136000000000000
B0702593209224S11656146EA0109101137000000000000
B0703033209215S11656064EA0109101138000000000000
B0703073209179S11655996EA0109001134000000000000
B0703113209126S11655952EA0108701129000000000000
B0703153209061S11655933EA0107601119000000000000
B0703193208990S11655931EA0106801112000000000000
B0703233208920S11655935EA0105601099000000000000
B0703273208847S11655947EA0104601088000000000000
B0703313208776S11655959EA0104201088000000000000
B0703353208706S11655970EA0103901079000000000000
B0703393208636S11655983EA0103001070000000000000
B0703433208568S11656006EA0102801072000000000000
B0703473208503S11656032EA0102701066000000000000
B0703513208435S11656058EA0102001062000000000000
B0703553208363S11656074EA0101601059000000000000
B0703593208292S11656091EA0102301069000000000000
B0704033208223S11656110EA0102401063000000000000
B0704073208156S11656132EA0101501053000000000000
B0704113208088S11656158EA0100701046000000000000
B0704153208022S11656193EA0099501030000000000000
B0704193207950S11656224EA0098101018000000000000
B0704233207883S11656259EA0097101013000000000000
B0704273207819S11656292EA0097301016000000000000
B0704313207758S11656321EA0096901011000000000000
B0704353207696S11656353EA0096001000000000000000
B0704393207629S11656383EA0095400993000000000000
B0704433207564S11656416EA0095000990000000000000
B0704473207505S11656459EA0095100993000000000000
B0704513207445S11656496EA0095500997000000000000
B0704553207385S11656509EA0096901011000000000000
B0704593207334S11656483EA0097401009000000000000
B0705033207330S11656415EA0097701015000000000000
B0705073207369S11656368EA0097901017000000000000
B0705113207424S11656371EA0098501022000000000000
B0705153207459S11656419EA0098701029000000000000
B0705193207466S11656481EA0099001032000000000000
B0705233207432S11656519EA0099401036000000000000
B0705273207393S11656488EA0099401035000000000000
B0705313207406S11656427EA0099001030000000000000
B0705353207463S11656410EA0099201037000000000000
B0705393207505S11656455EA0100001042000000000000
B0705433207501S11656516EA0100301044000000000000
B0705473207455S11656532EA0100101042000000000000
B0705513207432S11656477EA0099901036000000000000
B0705553207480S11656437EA0099301035000000000000
B0705593207541S11656467EA0100101045000000000000
B0706033207601S11656480EA0100601047000000000000
B0706073207641S11656428EA0100301043000000000000
B0706113207625S11656362EA0100101042000000000000
B0706153207577S11656325EA0100001040000000000000
B0706193207518S11656324EA0099701038000000000000
B0706233207467S11656370EA0099701042000000000000
B0706273207482S11656436EA0101601062000000000000
B0706313207540S11656450EA0102101062000000000000
B0706353207589S11656406EA0101601058000000000000
B0706393207610S11656337EA0101501060000000000000
B0706433207603S11656268EA0102001064000000000000
B0706473207560S11656228EA0102001061000000000000
B0706513207512S11656263EA0102201065000000000000
B0706553207521S11656327EA0103001073000000000000
B0706593207573S11656358EA0103101072000000000000
B0707033207635S11656336EA0102801071000000000000
B0707073207675S11656279EA0103101073000000000000
B0707113207670S11656207EA0102801070000000000000
B0707153207625S11656160EA0102401067000000000000
B0707193207567S11656156EA0102101065000000000000
B0707233207508S11656164EA0102401067000000000000
B0707273207450S11656180EA0102301063000000000000
B0707313207393S11656207EA0101401054000000000000
B0707353207336S11656240EA0100301043000000000000
B0707393207277S11656275EA0099701038000000000000
B0707433207220S11656315EA0099401035000000000000
B0707473207160S11656353EA0098701028000000000000
B0707513207102S11656390EA0098501027000000000000
B0707553207043S11656427EA0098501026000000000000
B0707593206986S11656462EA0098201024000000000000
B0708033206929S11656496EA0097801018000000000000
B0708073206870S11656529EA0097301013000000000000
B0708113206808S11656558EA0096901009000000000000
B0708153206745S11656585EA0096801011000000000000
B0708193206683S11656611EA0097101012000000000000
B0708233206622S11656636EA0097201014000000000000
B0708273206559S11656649EA0096901008000000000000
B0708313206497S11656661EA0096301003000000000000
B0708353206432S11656675EA0095600995000000000000
B0708393206368S11656691EA0094900988000000000000
B0708433206306S11656714EA0094800990000000000000
B0708473206249S11656747EA0094700989000000000000
B0708513206193S11656784EA0094200982000000000000
B0708553206136S11656826EA0093500976000000000000
B0708593206080S11656866EA0093100973000000000000
B0709033206024S11656905EA0092900971000000000000
B0709073205971S11656947EA0092400965000000000000
B0709113205917S11656986EA0092200963000000000000
B0709153205859S11657014EA0091700957000000000000
B0709193205798S11657022EA0091200951000000000000
B0709233205737S11657014EA0090600945000000000000
B0709273205677S11656987EA0090100939000000000000
B0709313205627S11656938EA0089600933000000000000
B0709353205594S11656869EA0089400935000000000000
B0709393205586S11656793EA0090300947000000000000
B0709433205617S11656736EA0091500958000000000000
B0709473205670S11656718EA0091800957000000000000
B0709513205722S11656740EA0091700957000000000000
B0709553205743S11656791EA0091800958000000000000
B0709593205721S11656835EA0091800958000000000000
B0710033205675S11656838EA0091500953000000000000
B0710073205631S11656795EA0090500945000000000000
B0710113205610S11656726EA0090500946000000000000
B0710153205627S11656653EA0090400942000000000000
B0710193205685S11656614EA0090000940000000000000
B0710233205746S11656628EA0090400946000000000000
B0710273205786S11656672EA0091100952000000000000
B0710313205802S11656728EA0091000950000000000000
B0710353205787S11656783EA0090400944000000000000
B0710393205751S11656823EA0089900938000000000000
B0710433205699S11656841EA0089200930000000000000
B0710473205640S11656849EA0088900924000000000000
B0710513205579S11656853EA0088400917000000000000
B0710553205516S11656862EA0087600911000000000000
B0710593205452S11656877EA0087300909000000000000
B0711033205393S11656906EA0087100908000000000000
B0711073205330S11656921EA0087800918000000000000
B0711113205274S11656893EA0088800928000000000000
B0711153205252S11656831EA0089500934000000000000
B0711193205278S11656773EA0089100925000000000000
B0711233205334S11656757EA0088300913000000000000
B0711273205379S11656796EA0087600909000000000000
B0711313205379S11656857EA0087600911000000000000
B0711353205337S11656899EA0087700912000000000000
B0711393205280S11656913EA0087800914000000000000
B0711433205237S11656867EA0088100915000000000000
B0711473205245S11656800EA0087900911000000000000
B0711513205295S11656766EA0087300906000000000000
B0711553205348S11656786EA0087000903000000000000
B0711593205378S11656838EA0086800901000000000000
B0712033205384S11656901EA0086700903000000000000
B0712073205365S11656960EA0087200909000000000000
B0712113205313S11656958EA0087900915000000000000
B0712153205301S11656897EA0087600907000000000000
B0712193205343S11656851EA0087200906000000000000
B0712233205397S11656854EA0087400909000000000000
B0712273205432S11656901EA0088000917000000000000
B0712313205421S11656956EA0088400920000000000000
B0712353205373S11656969EA0088400920000000000000
B0712393205348S11656913EA0088900925000000000000
B0712433205382S11656864EA0089100926000000000000
B0712473205436S11656864EA0089100928000000000000
B0712513205483S11656905EA0089000921000000000000
B0712553205529S11656958EA0088000911000000000000
B0712593205558S11657027EA0087000907000000000000
B0713033205540S11657087EA0087800913000000000000
B0713073205487S11657091EA0087000903000000000000
B0713113205441S11657039EA0086200898000000000000
B0713153205396S11656986EA0086100898000000000000
B0713193205339S11656955EA0086600902000000000000
B0713233205298S11656991EA0087400913000000000000
B0713273205331S11657033EA0088000915000000000000
B0713313205379S11656997EA0088000914000000000000
B0713353205367S11656938EA0088400923000000000000
B0713393205319S11656940EA0088500922000000000000
B0713433205305S11656996EA0088400925000000000000
B0713473205341S11657038EA0088800928000000000000
B0713513205397S11657029EA0088900926000000000000
B0713553205419S11656968EA0088600924000000000000
B0713593205375S11656934EA0088600927000000000000
B0714033205331S11656970EA0089100931000000000000
B0714073205332S11657034EA0089600937000000000000
B0714113205374S11657073EA0090100943000000000000
B0714153205431S11657066EA0090000939000000000000
B0714193205470S11657007EA0089200929000000000000
B0714233205460S11656934EA0089000930000000000000
B0714273205415S11656892EA0089800943000000000000
B0714313205366S11656900EA0090800947000000000000
B0714353205352S11656955EA0091200951000000000000
B0714393205392S11656990EA0091300952000000000000
B0714433205440S11656961EA0091400952000000000000
B0714473205436S11656897EA0091300952000000000000
B0714513205388S11656870EA0091000948000000000000
B0714553205339S11656903EA0091000951000000000000
B0714593205327S11656964EA0091500955000000000000
B0715033205357S11657016EA0091900959000000000000
B0715073205413S11657027EA0092100959000000000000
B0715113205445S11656971EA0091400951000000000000
B0715153205431S11656899EA0090700950000000000000
B0715193205383S11656857EA0091400957000000000000
B0715233205332S11656867EA0092100961000000000000
B0715273205330S11656925EA0092100959000000000000
B0715313205378S11656957EA0091700955000000000000
B0715353205436S11656932EA0091400953000000000000
B0715393205464S11656869EA0092000962000000000000
B0715433205447S11656806EA0092400964000000000000
B0715473205402S11656766EA0092300961000000000000
B0715513205348S11656765EA0091900953000000000000
B0715553205301S11656800EA0091400951000000000000
B0715593205282S11656856EA0091600956000000000000
B0716033205298S11656914EA0091800956000000000000
B0716073205354S11656940EA0091600954000000000000
B0716113205413S11656909EA0091600955000000000000
B0716153205438S11656841EA0091800956000000000000
B0716193205425S11656769EA0091600958000000000000
B0716233205380S11656721EA0091800957000000000000
B0716273205326S11656719EA0091600954000000000000
B0716313205288S11656761EA0091300953000000000000
B0716353205295S11656821EA0091800960000000000000
B0716393205341S11656858EA0092300964000000000000
B0716433205399S11656839EA0092000959000000000000
B0716473205422S11656770EA0091200951000000000000
B0716513205396S11656700EA0090900947000000000000
B0716553205348S11656648EA0090200942000000000000
B0716593205289S11656611EA0089700936000000000000
B0717033205224S11656596EA0089000930000000000000
B0717073205159S11656606EA0088800927000000000000
B0717113205109S11656649EA0088600926000000000000
B0717153205090S11656714EA0089300934000000000000
B0717193205120S11656769EA0089500936000000000000
B0717233205180S11656788EA0089200932000000000000
B0717273205237S11656752EA0089600938000000000000
B0717313205243S11656674EA0089600939000000000000
B0717353205193S11656637EA0089600935000000000000
B0717393205148S11656675EA0088800930000000000000
B0717433205149S11656743EA0088600930000000000000
B0717473205193S11656786EA0088900935000000000000
B0717513205256S11656791EA0089200937000000000000
B0717553205314S11656756EA0089800943000000000000
B0717593205306S11656684EA0090400948000000000000
B0718033205256S11656662EA0091200958000000000000
B0718073205219S11656697EA0091400958000000000000
B0718113205222S11656754EA0091400960000000000000
B0718153205263S11656795EA0092100968000000000000
E071819PEV
B0718193205321S11656799EA0092400969000000000000
B0718203205335S11656792EA0092300969000000000000
B0718213205349S11656783EA0092300969000000000000
B0718223205360S11656770EA0092300969000000000000
B0718233205369S11656756EA0092500970000000000000
B0718243205376S11656739EA0092500970000000000000
B0718253205380S11656719EA0092600970000000000000
B0718263205383S11656701EA0092700971000000000000
B0718273205382S11656682EA0092800971000000000000
B0718283205379S11656662EA0092900972000000000000
B0718293205374S11656644EA0093000972000000000000
B0718303205366S11656627EA0093000972000000000000
B0718313205356S11656613EA0093100972000000000000
B0718323205344S11656598EA0093100972000000000000
B0718333205330S11656588EA0093100972000000000000
B0718343205315S11656580EA0093000973000000000000
B0718353205301S11656576EA0093100973000000000000
B0718393205245S11656591EA0093100972000000000000
B0718433205219S11656644EA0092700967000000000000
B0718473205241S11656702EA0092500971000000000000
B0718513205300S11656721EA0093000975000000000000
B0718553205357S11656691EA0093200976000000000000
B0718593205393S11656626EA0093600981000000000000
B0719033205396S11656549EA0094000984000000000000
B0719073205366S11656485EA0094400986000000000000
B0719113205315S11656455EA0094100979000000000000
B0719153205259S11656468EA0093200970000000000000
B0719193205227S11656518EA0092900972000000000000
B0719233205241S11656572EA0092900969000000000000
B0719273205283S11656615EA0092500966000000000000
B0719313205339S11656637EA0092800971000000000000
B0719353205379S11656584EA0093200974000000000000
B0719393205349S11656523EA0093200974000000000000
B0719433205292S11656520EA0093000972000000000000
B0719473205257S11656572EA0092800973000000000000
B0719513205265S11656636EA0093200975000000000000
B0719553205305S11656684EA0093300975000000000000
B0719593205365S11656704EA0093100972000000000000
B0720033205431S11656697EA0092800970000000000000
B0720073205497S11656671EA0092600968000000000000
B0720113205565S11656635EA0092300965000000000000
B0720153205617S11656574EA0092100963000000000000
B0720193205623S11656488EA0091700958000000000000
B0720233205586S11656414EA0091000949000000000000
B0720273205522S11656379EA0090600946000000000000
B0720313205453S11656386EA0090500945000000000000
B0720353205386S11656410EA0090100943000000000000
B0720393205322S11656442EA0089900940000000000000
B0720433205266S11656489EA0089700939000000000000
B0720473205240S11656558EA0089800938000000000000
B0720513205261S11656628EA0089200932000000000000
B0720553205318S11656672EA0089300931000000000000
B0720593205389S11656684EA0089300936000000000000
B0721033205462S11656678EA0090000942000000000000
B0721073205535S11656658EA0090100942000000000000
B0721113205609S11656630EA0090400946000000000000
B0721153205678S11656596EA0090700948000000000000
B0721193205740S11656553EA0090500944000000000000
B0721233205802S11656509EA0090200941000000000000
B0721273205864S11656461EA0089500930000000000000
B0721313205928S11656405EA0088300920000000000000
B0721353205984S11656341EA0087700911000000000000
B0721393206033S11656266EA0086900906000000000000
B0721433206076S11656188EA0087000910000000000000
B0721473206111S11656108EA0087800917000000000000
B0721513206104S11656032EA0088600924000000000000
B0721553206059S11655986EA0088800922000000000000
B0721593206003S11655996EA0088200917000000000000
B0722033205982S11656055EA0087500910000000000000
B0722073206024S11656106EA0086700901000000000000
B0722113206093S11656110EA0086000896000000000000
B0722153206163S11656084EA0085500892000000000000
B0722193206232S11656047EA0085100890000000000000
B0722233206297S11656003EA0085000893000000000000
B0722273206359S11655955EA0085900898000000000000
B0722313206414S11655902EA0085900899000000000000
B0722353206444S11655830EA0086000896000000000000
B0722393206436S11655751EA0085200888000000000000
B0722433206409S11655675EA0084500878000000000000
B0722473206376S11655597EA0083400870000000000000
B0722513206341S11655526EA0083200868000000000000
B0722553206303S11655454EA0082200856000000000000
B0722593206259S11655387EA0081300849000000000000
B0723033206214S11655319EA0080500840000000000000
B0723073206184S11655242EA0080100839000000000000
B0723113206171S11655162EA0080100838000000000000
B0723153206173S11655081EA0079900835000000000000
B0723193206193S11655006EA0079700831000000000000
B0723233206231S11654940EA0079400826000000000000
B0723273206288S11654891EA0078500820000000000000
B0723313206355S11654875EA0078200817000000000000
B0723353206422S11654889EA0077700814000000000000
B0723393206472S11654934EA0077500811000000000000
B0723433206505S11654995EA0076900803000000000000
B0723473206530S11655062EA0076000794000000000000
B0723513206556S11655129EA0075300785000000000000
B0723553206584S11655197EA0074200776000000000000
B0723593206618S11655262EA0073500770000000000000
B0724033206658S11655320EA0073100768000000000000
B0724073206708S11655371EA0073000770000000000000
B0724113206761S11655415EA0072900765000000000000
B0724153206818S11655453EA0072500761000000000000
B0724193206881S11655480EA0072100757000000000000
B0724233206946S11655501EA0071600750000000000000
B0724273207011S11655519EA0070900745000000000000
B0724313207077S11655539EA0070500741000000000000
B0724353207141S11655564EA0070300738000000000000
B0724393207198S11655595EA0070100737000000000000
B0724433207248S11655630EA0070300738000000000000
B0724473207297S11655668EA0070200738000000000000
B0724513207350S11655695EA0070300737000000000000
B0724563207407S11655639EA0069500730000000000000
B0725003207393S11655570EA0069300726000000000000
B0725043207341S11655539EA0068400721000000000000
B0725083207281S11655545EA0068300721000000000000
B0725123207242S11655588EA0069000730000000000000
B0725163207268S11655634EA0069200727000000000000
B0725203207325S11655613EA0068200719000000000000
B0725243207336S11655541EA0067900716000000000000
B0725283207289S11655497EA0067500710000000000000
B0725323207234S11655525EA0067400713000000000000
B0725363207219S11655590EA0067300707000000000000
B0725403207224S11655661EA0066200695000000000000
B0725443207232S11655735EA0065300688000000000000
B0725483207232S11655809EA0064700684000000000000
B0725523207226S11655883EA0064400681000000000000
B0725563207215S11655952EA0064300679000000000000
B0726003207200S11656017EA0064200679000000000000
B0726043207185S11656080EA0063900673000000000000
B0726083207167S11656143EA0063200668000000000000
B0726123207150S11656208EA0062900664000000000000
B0726163207134S11656273EA0062300657000000000000
B0726203207120S11656338EA0061900653000000000000
B0726243207100S11656401EA0061400648000000000000
B0726283207077S11656461EA0061100645000000000000
B0726323207053S11656522EA0061000647000000000000
B0726363207033S11656583EA0060900643000000000000
B0726403207014S11656646EA0060600640000000000000
B0726443206988S11656702EA0060500639000000000000
B0726483206951S11656748EA0060200633000000000000
B0726523206907S11656787EA0059200623000000000000
B0726563206856S11656821EA0058300614000000000000
B0727003206803S11656849EA0057600608000000000000
B0727043206749S11656873EA0057200603000000000000
B0727083206693S11656892EA0056700598000000000000
B0727123206639S11656906EA0056500596000000000000
B0727163206582S11656921EA0056000591000000000000
B0727203206526S11656939EA0055200583000000000000
B0727243206471S11656961EA0055000582000000000000
B0727283206420S11656995EA0054700578000000000000
B0727323206367S11657025EA0054600578000000000000
B0727363206310S11657034EA0054900581000000000000
B0727403206260S11657060EA0054900583000000000000
B0727443206264S11657118EA0055100580000000000000
B0727483206319S11657143EA0054800575000000000000
B0727523206376S11657109EA0054100569000000000000
B0727563206406S11657039EA0053400564000000000000
B0728003206403S11656962EA0053500566000000000000
B0728043206375S11656897EA0053700568000000000000
B0728083206328S11656852EA0053600566000000000000
B0728123206271S11656848EA0053500564000000000000
B0728163206228S11656886EA0053500565000000000000
B0728203206188S11656931EA0053000558000000000000
B0728243206145S11656977EA0052000549000000000000
B0728283206112S11657036EA0051300543000000000000
B0728323206116S11657112EA0050800541000000000000
B0728363206162S11657174EA0050300536000000000000
B0728403206228S11657218EA0049900534000000000000
B0728443206299S11657250EA0049900537000000000000
B0728483206368S11657277EA0050700542000000000000
B0728523206435S11657303EA0050800542000000000000
B0728563206497S11657333EA0051000548000000000000
B0729003206558S11657360EA0051400551000000000000
B0729043206617S11657325EA0051700553000000000000
B0729083206623S11657250EA0051500552000000000000
B0729123206582S11657200EA0051700552000000000000
B0729163206530S11657207EA0051400551000000000000
B0729203206500S11657259EA0051700551000000000000
B0729243206506S11657324EA0051900557000000000000
B0729283206561S11657346EA0052400557000000000000
B0729323206609S11657298EA0051700552000000000000
B0729363206613S11657222EA0051500551000000000000
B0729403206574S11657169EA0051600553000000000000
B0729443206522S11657166EA0052000557000000000000
B0729483206480S11657205EA0052400560000000000000
B0729523206472S11657267EA0052500560000000000000
B0729563206504S11657319EA0052500561000000000000
B0730003206559S11657333EA0052300559000000000000
B0730043206615S11657298EA0051900551000000000000
B0730083206643S11657230EA0051300549000000000000
B0730123206617S11657161EA0051000545000000000000
B0730163206565S11657133EA0051300550000000000000
B0730203206531S11657173EA0052600564000000000000
B0730243206557S11657225EA0052600558000000000000
B0730283206615S11657215EA0052200558000000000000
B0730323206639S11657151EA0052000556000000000000
B0730363206615S11657087EA0052000555000000000000
B0730403206565S11657066EA0052300562000000000000
B0730443206526S11657100EA0053200568000000000000
B0730483206528S11657157EA0053400565000000000000
B0730523206575S11657194EA0052800559000000000000
B0730563206632S11657172EA0052300558000000000000
B0731003206658S11657107EA0052400562000000000000
B0731043206626S11657060EA0053200570000000000000
B0731083206578S11657075EA0053000566000000000000
B0731123206565S11657140EA0053000567000000000000
B0731163206605S11657186EA0053500570000000000000
B0731203206663S11657176EA0053400568000000000000
B0731243206695S11657114EA0053100565000000000000
B0731283206679S11657046EA0052700562000000000000
B0731323206634S11657005EA0052900568000000000000
B0731363206583S11657026EA0053400574000000000000
B0731403206570S11657087EA0053600571000000000000
B0731443206595S11657156EA0052500559000000000000
B0731483206636S11657221EA0051600553000000000000
B0731523206673S11657293EA0051200550000000000000
B0731563206699S11657363EA0051500555000000000000
B0732003206725S11657429EA0051900557000000000000
B0732043206758S11657490EA0051600551000000000000
B0732083206801S11657550EA0051200546000000000000
B0732123206849S11657602EA0050800543000000000000
B0732163206901S11657647EA0050700542000000000000
B0732203206956S11657688EA0050400539000000000000
B0732243207012S11657725EA0050400540000000000000
B0732283207065S11657764EA0050300535000000000000
B0732323207116S11657810EA0049700530000000000000
B0732363207170S11657854EA0049300526000000000000
B0732403207226S11657893EA0049300528000000000000
B0732443207285S11657924EA0049300528000000000000
B0732483207345S11657954EA0049000523000000000000
B0732523207404S11657989EA0048300516000000000000
B0732563207466S11658021EA0047800513000000000000
B0733003207527S11658049EA0047600510000000000000
B0733043207586S11658075EA0047000500000000000000
B0733083207644S11658102EA0045500485000000000000
B0733123207701S11658130EA0044000468000000000000
B0733163207762S11658152EA0042200449000000000000
B0733203207831S11658167EA0040900440000000000000
B0733243207898S11658183EA0040800440000000000000
B0733283207962S11658192EA0040700439000000000000
B0733323208030S11658184EA0040200430000000000000
B0733363208091S11658145EA0038900416000000000000
B0733403208139S11658086EA0037500405000000000000
B0733443208182S11658022EA0036500396000000000000
B0733483208221S11657954EA0036300394000000000000
B0733523208256S11657888EA0035700386000000000000
B0733563208290S11657820EA0034700376000000000000
B0734003208321S11657749EA0033700367000000000000
B0734043208348S11657680EA0032900354000000000000
B0734083208356S11657607EA0032000342000000000000
B0734123208337S11657537EA0030200325000000000000
B0734163208296S11657484EA0028500308000000000000
B0734203208248S11657445EA0026800291000000000000
B0734243208195S11657408EA0025100274000000000000
B0734283208142S11657371EA0023600260000000000000
B0734323208088S11657333EA0022100247000000000000
B0734363208036S11657295EA0021000233000000000000
B0734403207983S11657264EA0020000221000000000000
B0734443207932S11657233EA0018700210000000000000
B0734483207884S11657204EA0017900203000000000000
B0734523207843S11657179EA0017700202000000000000
B0734563207809S11657159EA0017800202000000000000
B0735003207785S11657142EA0018000202000000000000
B0735043207771S11657129EA0018000201000000000000
B0735083207763S11657121EA0018100201000000000000
B0735123207761S11657118EA0018100201000000000000
B0735163207761S11657118EA0018100201000000000000
B0735203207761S11657118EA0018100201000000000000
B0735243207761S11657118EA0018100201000000000000
B0735283207761S11657118EA0018100201000000000000
B0735323207761S11657118EA0018100201000000000000
B0735363207761S11657118EA0018100201000000000000
G00030000003F543E630000000000000000000000000000000000000000000000
G34F3F0D30A4D163CF49220DB547C89932998926D000000004A89D97DE48D0CBB
G2D4D26C43D47225CA5B177BE0E8D113C69CF794E00000000000000002ABA372C
