ACAM4N6
HFDTE220121
HFFXA050
HFPLTPILOT:JOHN WELSH              
HFGTYGLIDERTYPE:HORNET      
HFGIDGLIDERID:VH-GMY      
HFDTM100GPSDATUM:
HFRFWFIRMWAREVERSION:F2.6
HFRHWHARDWAREVERSION:300 Series Version 2
HFFTYFRTYPE:CAMBRIDGE AERO INSTRUMENTS, 302+
HFGPS:GARMIN,LVS-25,12,18000
HFPRSPRESSALTSENSOR:INTERSEMA, MS5534-AP, 20000
I033638FXA3941ENL4247REX
LCAMSBVER:5FWVER:F26300
C220121035110220121000102
C0000000N00000000WTAKEOFF     
C3207547S11656819EBEVERLEY AF 
C3349999S11709999EKojonup     
C3306466S11827999ELake Grace  
C3207547S11656819EBEVERLEY AF 
C0000000N00000000WLANDING     
B0416063207343S11656860EA0028600210000000000000
B0416083207343S11656860EA0028600210000000000000
B0416103207343S11656861EA0028600210000000000000
B0416123207343S11656861EA0028700210000000000000
B0416143207343S11656861EA0028600210000000000000
B0416163207343S11656861EA0028600210000000000000
B0416183207343S11656861EA0028600210000000000000
B0416203207343S11656861EA0028600210000000000000
B0416223207345S11656861EA0028600210000000000000
B0416243207345S11656861EA0028600210000000000000
B0416263207345S11656861EA0028600210000000000000
B0416283207345S11656861EA0028600210000000000000
B0416303207345S11656861EA0028500210000000000000
B0416323207346S11656862EA0028600210000000000000
B0416343207349S11656865EA0028600210000000000000
B0416373207359S11656875EA0028700210000000000000
B0416413207388S11656899EA0028800210000000000000
B0416453207432S11656927EA0028900210000000000000
B0416493207489S11656961EA0029100211000000000000
B0416533207553S11657001EA0029400214000000000000
B0416573207615S11657047EA0030200227000000000000
B0417013207672S11657090EA0031800248000000000000
B0417053207728S11657126EA0033500274000000000000
B0417093207785S11657164EA0035200287000000000000
B0417133207844S11657204EA0036600303000000000000
B0417173207905S11657242EA0038300325000000000000
B0417213207967S11657274EA0040400346000000000000
B0417253208030S11657312EA0042100363000000000000
B0417293208090S11657351EA0043700379000000000000
B0417333208142S11657407EA0045000390000000000000
B0417373208170S11657482EA0046100404000000000000
B0417413208173S11657563EA0047800423000000000000
B0417453208160S11657645EA0049500438000000000000
B0417493208132S11657716EA0051500464000000000000
B0417533208100S11657779EA0053900486000000000000
B0417573208065S11657841EA0054900493000000000000
B0418013208031S11657900EA0056400514000000000000
B0418053207999S11657959EA0058200527000000000000
B0418093207962S11658028EA0058700527000000000000
B0418133207923S11658096EA0059700544000000000000
B0418173207885S11658160EA0062000567000000000000
B0418213207844S11658223EA0064200592000000000000
B0418253207798S11658286EA0065700608000000000000
B0418293207754S11658348EA0067200624000000000000
B0418333207709S11658408EA0068500635000000000000
B0418373207661S11658469EA0069300643000000000000
B0418413207612S11658531EA0070300654000000000000
B0418453207562S11658590EA0071400666000000000000
B0418493207511S11658647EA0072500677000000000000
B0418533207460S11658703EA0073700690000000000000
B0418573207412S11658758EA0075300708000000000000
B0419013207364S11658812EA0076600718000000000000
B0419053207316S11658869EA0078400741000000000000
B0419093207280S11658924EA0081200772000000000000
B0419133207299S11658976EA0082900782000000000000
B0419173207354S11658960EA0083200778000000000000
B0419213207371S11658886EA0082800781000000000000
B0419253207338S11658825EA0083100783000000000000
B0419293207286S11658807EA0083300788000000000000
B0419333207237S11658819EA0083700787000000000000
B0419373207206S11658864EA0083200781000000000000
B0419413207208S11658929EA0082800780000000000000
B0419453207246S11658976EA0082900780000000000000
B0419493207295S11658942EA0083600790000000000000
B0419533207261S11658886EA0085100808000000000000
B0419573207219S11658914EA0085900813000000000000
B0420013207226S11658971EA0086000812000000000000
B0420053207277S11658967EA0086600825000000000000
B0420093207287S11658901EA0087800835000000000000
B0420133207242S11658862EA0088900843000000000000
B0420173207198S11658892EA0089000841000000000000
B0420213207204S11658950EA0088800842000000000000
B0420253207256S11658954EA0089400851000000000000
B0420293207290S11658895EA0090500865000000000000
B0420333207260S11658837EA0092000883000000000000
B0420373207215S11658855EA0092900884000000000000
B0420413207215S11658910EA0092600881000000000000
B0420453207263S11658924EA0093000889000000000000
B0420493207303S11658875EA0093900900000000000000
B0420533207298S11658803EA0094700902000000000000
B0420573207247S11658782EA0095300910000000000000
B0421013207221S11658832EA0095300907000000000000
B0421053207254S11658876EA0095600916000000000000
B0421093207307S11658867EA0096700925000000000000
B0421133207339S11658810EA0097800935000000015000
B0421173207308S11658752EA0098100934000000015000
B0421213207261S11658778EA0098000940000000000000
B0421253207276S11658836EA0098500943000000000000
B0421293207330S11658846EA0099100956000000000000
B0421333207376S11658798EA0100100959000000000000
B0421373207377S11658724EA0099500949000000000000
B0421413207332S11658674EA0098900946000000000000
B0421453207272S11658672EA0099100949000000000000
B0421493207239S11658723EA0099400954000000000000
B0421533207261S11658780EA0099800958000000000000
B0421573207316S11658785EA0100300966000000000000
B0422013207334S11658719EA0101300975000000015000
B0422053207286S11658684EA0101600975000000000000
B0422093207251S11658726EA0101600978000000000000
B0422133207278S11658776EA0102300985000000000000
B0422173207332S11658762EA0103200993000000000000
B0422213207354S11658694EA0103200990000000015000
B0422253207317S11658634EA0102900985000000015000
B0422293207258S11658641EA0103000993000000015000
B0422333207221S11658687EA0103700999000000015000
B0422373207232S11658747EA0103900999000000015000
B0422413207284S11658758EA0104901014000000015000
B0422453207310S11658699EA0105701019000000015000
B0422493207274S11658646EA0105901021000000015000
B0422533207228S11658671EA0105901021000000015000
B0422573207224S11658732EA0105801020000000015000
B0423013207272S11658760EA0106501035000000015000
B0423053207316S11658719EA0107901045000000015000
B0423093207304S11658650EA0108201045000000015000
B0423133207252S11658632EA0108401047000000015000
B0423173207221S11658678EA0108501047000000015000
B0423213207243S11658729EA0108801056000000015000
B0423253207293S11658738EA0110101064000000015000
B0423293207334S11658691EA0110301064000000015000
B0423333207320S11658621EA0110101065000000015000
B0423373207265S11658599EA0110601072000000015000
B0423413207233S11658642EA0111301078000000015000
B0423453207254S11658693EA0111901082000000015000
B0423493207311S11658685EA0112301087000000015000
B0423533207337S11658617EA0112301084000000015000
B0423573207304S11658546EA0112101085000000015000
B0424013207247S11658538EA0113001098000000015000
B0424053207226S11658587EA0113401097000000015000
B0424093207258S11658632EA0113601102000000000000
B0424133207313S11658619EA0114401110000000015000
B0424173207339S11658552EA0114601106000000015000
B0424213207308S11658485EA0114301104000000015000
B0424253207254S11658479EA0114501111000000015000
B0424293207216S11658517EA0114701110000000015000
B0424333207225S11658574EA0114201109000000000000
B0424373207276S11658590EA0114801117000000000000
B0424413207317S11658539EA0115001116000000015000
B0424453207303S11658465EA0115101120000000015000
B0424493207250S11658457EA0115701127000000015000
B0424533207233S11658511EA0115701127000000015000
B0424573207265S11658551EA0116301133000000000000
B0425013207319S11658526EA0116601128000000000000
B0425053207334S11658448EA0116101128000000015000
B0425093207299S11658382EA0116601135000000015000
B0425133207242S11658375EA0116801134000000015000
B0425173207206S11658417EA0116701135000000015000
B0425213207209S11658473EA0116601132000000015000
B0425253207254S11658503EA0116601133000000000000
B0425293207306S11658476EA0116601130000000015000
B0425333207319S11658401EA0116401131000000015000
B0425373207284S11658338EA0116301128000000015000
B0425413207229S11658334EA0116201127000000015000
B0425453207199S11658385EA0115901123000000015000
B0425493207181S11658446EA0115401116000000000000
B0425533207202S11658509EA0114901115000000000000
B0425573207256S11658546EA0114901114000000000000
B0426013207319S11658526EA0115001118000000000000
B0426053207356S11658461EA0115201120000000000000
B0426093207371S11658381EA0115101119000000000000
B0426133207382S11658296EA0114701110000000000000
B0426173207401S11658208EA0113301093000000000000
B0426213207423S11658118EA0111901083000000000000
B0426253207446S11658030EA0111301080000000000000
B0426293207468S11657941EA0110901074000000000000
B0426333207494S11657855EA0110401070000000000000
B0426373207520S11657772EA0110301070000000000000
B0426413207549S11657693EA0109901064000000000000
B0426453207580S11657615EA0109601061000000000000
B0426493207612S11657540EA0109001053000000000000
B0426533207646S11657467EA0108401047000000000000
B0426573207683S11657394EA0107901044000000000000
B0427013207715S11657322EA0107601041000000000000
B0427053207752S11657254EA0107301036000000000000
B0427093207791S11657186EA0106501028000000000000
B0427133207831S11657118EA0106001024000000000000
B0427173207871S11657053EA0105601019000000000000
B0427213207917S11656994EA0105201012000000000000
B0427253207963S11656935EA0104601009000000000000
B0427293208005S11656871EA0104201004000000000000
B0427333208049S11656812EA0103801000000000000000
B0427373208092S11656750EA0103000991000000000000
B0427413208127S11656684EA0102100982000000000000
B0427453208142S11656606EA0101400974000000000000
B0427493208126S11656528EA0100600965000000000000
B0427533208086S11656466EA0100000958000000000000
B0427573208038S11656414EA0099600957000000000000
B0428013207991S11656366EA0099400952000000000000
B0428053207944S11656314EA0098500941000000000000
B0428093207896S11656259EA0097700937000000000000
B0428133207848S11656201EA0097600937000000000000
B0428173207797S11656143EA0097700937000000000000
B0428213207745S11656091EA0097500934000000000000
B0428253207683S11656078EA0097200931000000000000
B0428293207632S11656106EA0096900929000000000000
B0428333207597S11656158EA0096600926000000000000
B0428373207585S11656219EA0096400924000000000000
B0428413207623S11656262EA0096000915000000000000
B0428453207680S11656258EA0094700906000000000000
B0428493207722S11656206EA0094400907000000000000
B0428533207739S11656134EA0094200904000000000000
B0428573207749S11656058EA0094200903000000000000
B0429013207759S11655981EA0094200904000000000000
B0429053207765S11655904EA0094000898000000000000
B0429093207745S11655826EA0093700895000000000000
B0429133207700S11655765EA0093500891000000000000
B0429173207644S11655772EA0092700881000000000000
B0429213207601S11655814EA0091400865000000000000
B0429253207540S11655834EA0089900850000000000000
B0429293207471S11655816EA0088900843000000000000
B0429333207406S11655783EA0088700844000000000000
B0429373207338S11655768EA0089000846000000000000
B0429413207316S11655820EA0090300862000000000000
B0429453207368S11655826EA0090800864000000000000
B0429493207382S11655756EA0091700878000000015000
B0429533207334S11655717EA0092400881000000015000
B0429573207295S11655761EA0092600885000000015000
B0430013207323S11655812EA0093400894000000015000
B0430053207367S11655777EA0094500907000000015000
B0430093207343S11655714EA0095000905000000015000
B0430133207287S11655731EA0095200911000000015000
B0430173207282S11655790EA0096000919000000015000
B0430213207329S11655794EA0096700923000000015000
B0430253207347S11655727EA0097400936000000015000
B0430293207304S11655681EA0098300941000000015000
B0430333207255S11655705EA0098700942000000030000
B0430373207252S11655765EA0098800944000000030000
B0430413207298S11655777EA0099400956000000030000
B0430453207313S11655712EA0099800957000000015000
B0430493207264S11655673EA0099900959000000015000
B0430533207219S11655708EA0100300963000000015000
B0430573207233S11655765EA0100300964000000015000
B0431013207282S11655759EA0100700969000000015000
B0431053207293S11655690EA0101100975000000030000
B0431093207250S11655642EA0101500978000000030000
B0431133207198S11655657EA0101600979000000030000
B0431173207181S11655709EA0102000981000000045000
B0431213207195S11655761EA0102000982000000045000
B0431253207224S11655798EA0101800982000000045000
B0431293207258S11655805EA0100900982000000045000
B0431333207295S11655634EA0100800983000000045000
B0431373207245S11655591EA0101000983000000045000
B0431413207195S11655617EA0101200980000000060000
B0431453207176S11655675EA0100800972000000060000
B0431493207200S11655730EA0100900968000000060000
B0431533207250S11655726EA0101200969000000120000
B0431573207277S11655677EA0101500971000000210000
B0432013207261S11655617EA0101800971000000045000
B0432053207219S11655580EA0101700968000000195000
B0432093207170S11655582EA0101200966000000135000
B0432133207113S11655635EA0100800968000000195000
B0432173207077S11655697EA0099800958000000120000
B0432213207046S11655765EA0098500952000000060000
B0432253207021S11655839EA0097300938000000060000
B0432293207004S11655913EA0096600930000000060000
B0432333206996S11655989EA0095900924000000060000
B0432373206983S11656064EA0094700917000000075000
B0432413206947S11656130EA0094100912000000045000
B0432453206899S11656186EA0093900909000000045000
B0432493206853S11656240EA0094200909000000045000
B0432533206819S11656294EA0094900911000000030000
B0432573206790S11656350EA0095700917000000030000
B0433013206783S11656406EA0097400927000000015000
B0433053206838S11656401EA0098700937000000015000
B0433093206855S11656328EA0098700940000000015000
B0433133206806S11656282EA0099200947000000015000
B0433173206766S11656315EA0099800960000000015000
B0433213206788S11656358EA0100700969000000015000
B0433253206847S11656344EA0101300975000000015000
B0433293206878S11656280EA0101400976000000015000
B0433333206858S11656212EA0101500969000000015000
B0433373206799S11656194EA0100500965000000015000
B0433413206752S11656230EA0101000975000000015000
B0433453206767S11656275EA0102400986000000015000
B0433493206817S11656230EA0102500986000000015000
B0433533206799S11656154EA0103000995000000015000
B0433573206741S11656141EA0103601000000000015000
B0434013206710S11656182EA0104401008000000015000
B0434053206728S11656225EA0105301013000000015000
B0434093206782S11656221EA0105301012000000015000
B0434133206819S11656158EA0105301017000000015000
B0434173206805S11656086EA0106001025000000015000
B0434213206753S11656051EA0105701017000000015000
B0434253206702S11656071EA0105801025000000015000
B0434293206687S11656121EA0106501030000000015000
B0434333206717S11656164EA0106801032000000000000
B0434373206777S11656152EA0106901030000000000000
B0434413206809S11656080EA0106801036000000015000
B0434453206792S11656002EA0107201036000000015000
B0434493206739S11655957EA0106401025000000015000
B0434533206679S11655968EA0106201030000000015000
B0434573206632S11656002EA0107001040000000000000
B0435013206627S11656052EA0107701041000000000000
B0435053206670S11656085EA0107301034000000000000
B0435093206723S11656052EA0107301042000000015000
B0435133206725S11655974EA0107701042000000015000
B0435173206673S11655926EA0107201035000000030000
B0435213206613S11655934EA0107401040000000030000
B0435253206567S11655968EA0107701045000000045000
B0435293206557S11656012EA0107601049000000045000
B0435333206605S11656072EA0106901052000000045000
B0435373206666S11656060EA0105901055000000075000
B0435413206712S11656002EA0106401072000000150000
B0435453206709S11655918EA0107301053000000060000
B0435493206658S11655872EA0106701037000000045000
B0435533206597S11655883EA0106301036000000030000
B0435573206574S11655935EA0106901038000000015000
B0436013206597S11655989EA0106401032000000015000
B0436053206652S11655999EA0105801029000000015000
B0436093206699S11655948EA0106001034000000030000
B0436133206697S11655868EA0106401035000000030000
B0436173206647S11655818EA0106101023000000015000
B0436213206584S11655834EA0105401021000000015000
B0436253206545S11655886EA0105401020000000015000
B0436293206519S11655948EA0105001013000000015000
B0436333206498S11656019EA0103801002000000015000
B0436373206475S11656093EA0102400994000000015000
B0436413206449S11656167EA0101400988000000030000
B0436453206423S11656240EA0100600978000000015000
B0436493206397S11656312EA0100300975000000015000
B0436533206376S11656383EA0100900984000000015000
B0436573206355S11656450EA0102000991000000015000
B0437013206345S11656519EA0103200998000000015000
B0437053206390S11656554EA0104601014000000015000
B0437093206414S11656485EA0105801027000000015000
B0437133206363S11656454EA0107401045000000015000
B0437173206329S11656500EA0108801056000000015000
B0437213206355S11656553EA0109701068000000015000
B0437253206410S11656539EA0111301086000000015000
B0437293206427S11656474EA0112801101000000015000
B0437333206387S11656422EA0114001113000000015000
B0437373206333S11656436EA0114901121000000015000
B0437413206328S11656498EA0115601129000000015000
B0437453206383S11656511EA0116401133000000015000
B0437493206397S11656442EA0116801142000000015000
B0437533206348S11656415EA0117801152000000015000
B0437573206309S11656458EA0118601157000000015000
B0438013206325S11656518EA0119001164000000015000
B0438053206383S11656519EA0120001176000000015000
B0438093206409S11656457EA0120701184000000015000
B0438133206375S11656405EA0121701193000000030000
B0438173206324S11656416EA0122101194000000045000
B0438213206312S11656477EA0122401196000000030000
B0438253206357S11656511EA0123401207000000015000
B0438293206402S11656472EA0124101216000000015000
B0438333206394S11656407EA0124401216000000015000
B0438373206344S11656385EA0124501219000000015000
B0438413206299S11656419EA0124801219000000015000
B0438453206299S11656484EA0124901224000000015000
B0438493206350S11656509EA0125801237000000015000
B0438533206376S11656453EA0126801246000000015000
B0438573206342S11656406EA0127301245000000015000
B0439013206292S11656425EA0127001244000000015000
B0439053206286S11656487EA0127201246000000015000
B0439093206328S11656526EA0127401250000000015000
B0439133206379S11656505EA0128001255000000015000
B0439173206393S11656445EA0128501262000000015000
B0439213206359S11656399EA0128801261000000015000
B0439253206306S11656410EA0128301253000000015000
B0439293206279S11656468EA0128001256000000000000
B0439333206273S11656536EA0128101253000000000000
B0439373206309S11656592EA0126501230000000000000
B0439413206374S11656622EA0124201212000000000000
B0439453206446S11656643EA0122701198000000000000
B0439493206522S11656656EA0122001191000000000000
B0439533206596S11656659EA0121601189000000000000
B0439573206670S11656661EA0121401186000000000000
B0440013206744S11656659EA0121001182000000000000
B0440053206819S11656663EA0120301175000000000000
B0440093206894S11656670EA0119801171000000000000
B0440133206969S11656682EA0119501168000000000000
B0440173207043S11656698EA0119201165000000000000
B0440213207116S11656719EA0119001162000000000000
B0440253207189S11656740EA0118701159000000000000
B0440293207259S11656763EA0118301154000000000000
B0440333207329S11656789EA0117701147000000000000
B0440373207401S11656818EA0117201142000000000000
B0440413207471S11656847EA0116701137000000000000
B0440453207541S11656877EA0116101131000000000000
B0440493207611S11656905EA0115501124000000000000
B0440533207681S11656936EA0115301125000000000000
B0440573207750S11656970EA0114901119000000000000
B0441013207819S11657007EA0114301110000000000000
B0441053207888S11657040EA0113801108000000000000
B0441093207954S11657074EA0113401102000000000000
B0441133208019S11657108EA0112701096000000000000
B0441173208082S11657140EA0112501098000000000000
B0441213208140S11657173EA0113001103000000000000
B0441253208194S11657209EA0113801112000000000000
B0441293208246S11657243EA0114801122000000000000
B0441333208303S11657267EA0115701130000000000000
B0441373208352S11657225EA0116401137000000000000
B0441413208331S11657157EA0116701135000000000000
B0441453208266S11657161EA0116301131000000000000
B0441493208248S11657228EA0116801147000000000000
B0441533208286S11657265EA0118801169000000015000
B0441573208331S11657239EA0119801173000000015000
B0442013208342S11657173EA0120001176000000015000
B0442053208303S11657124EA0120401180000000015000
B0442093208249S11657131EA0120601180000000015000
B0442133208229S11657185EA0121101188000000015000
B0442173208246S11657235EA0121701192000000015000
B0442213208298S11657239EA0122201197000000015000
B0442253208334S11657189EA0122501201000000015000
B0442293208335S11657116EA0122601201000000015000
B0442333208298S11657055EA0122501200000000015000
B0442373208238S11657023EA0122301196000000015000
B0442413208178S11657044EA0122201200000000015000
B0442453208155S11657104EA0122801203000000015000
B0442493208161S11657166EA0122901204000000015000
B0442533208203S11657203EA0123501211000000015000
B0442573208257S11657186EA0123601210000000015000
B0443013208295S11657125EA0123501211000000015000
B0443053208307S11657051EA0123801213000000015000
B0443093208273S11656986EA0123601208000000015000
B0443133208213S11656949EA0123201204000000015000
B0443173208156S11656969EA0123101208000000015000
B0443213208132S11657023EA0123401208000000015000
B0443253208125S11657085EA0123301208000000000000
B0443293208147S11657138EA0123501209000000000000
B0443333208200S11657156EA0123301208000000000000
B0443373208260S11657163EA0123201206000000000000
B0443413208321S11657156EA0123201207000000000000
B0443453208383S11657133EA0123001206000000000000
B0443493208442S11657094EA0123701216000000000000
B0443533208446S11657022EA0124901224000000000000
B0443573208400S11656970EA0124501214000000000000
B0444013208340S11656974EA0123601207000000000000
B0444053208314S11657026EA0123301202000000000000
B0444093208329S11657090EA0122101189000000000000
B0444133208365S11657148EA0121601190000000000000
B0444173208418S11657191EA0121601187000000000000
B0444213208480S11657224EA0120701177000000000000
B0444253208548S11657241EA0119801163000000000000
B0444293208624S11657251EA0118801155000000000000
B0444333208699S11657259EA0118501156000000000000
B0444373208773S11657261EA0118501154000000000000
B0444413208849S11657264EA0118101152000000000000
B0444453208923S11657265EA0118001150000000000000
B0444493208994S11657268EA0118301156000000000000
B0444533209063S11657273EA0118301152000000000000
B0444573209132S11657277EA0117901148000000000000
B0445013209202S11657285EA0117801148000000000000
B0445053209269S11657306EA0118301154000000000000
B0445093209335S11657332EA0117901144000000000000
B0445133209405S11657352EA0116701134000000000000
B0445173209477S11657369EA0116201131000000000000
B0445213209548S11657387EA0115701124000000000000
B0445253209618S11657407EA0115301120000000000000
B0445293209689S11657424EA0114701116000000000000
B0445333209759S11657438EA0114201110000000000000
B0445373209828S11657455EA0113701104000000000000
B0445413209897S11657471EA0113501105000000000000
B0445453209960S11657486EA0113601105000000000000
B0445493210024S11657501EA0113101095000000000000
B0445533210089S11657512EA0112501094000000000000
B0445573210153S11657523EA0112201088000000000000
B0446013210216S11657534EA0111701085000000000000
B0446053210279S11657546EA0111601084000000000000
B0446093210339S11657556EA0111401079000000000000
B0446133210400S11657569EA0110901073000000000000
B0446173210462S11657581EA0110301065000000000000
B0446213210524S11657593EA0109501060000000000000
B0446253210586S11657603EA0109001056000000000000
B0446293210647S11657611EA0108401045000000000000
B0446333210710S11657618EA0107001031000000000000
B0446373210773S11657624EA0106901034000000000000
B0446413210833S11657637EA0107401040000000000000
B0446453210878S11657675EA0107801046000000000000
B0446493210895S11657732EA0108601052000000000000
B0446533210887S11657790EA0108701050000000000000
B0446573210875S11657850EA0108001039000000000000
B0447013210881S11657917EA0106701022000000000000
B0447053210916S11657976EA0105101011000000000000
B0447093210972S11658014EA0104001001000000000000
B0447133211037S11658024EA0103400995000000000000
B0447173211100S11658028EA0103200996000000000000
B0447213211161S11658043EA0104001007000000000000
B0447253211202S11658091EA0105401022000000000000
B0447293211200S11658148EA0106501029000000000000
B0447333211151S11658166EA0106201020000000000000
B0447373211103S11658122EA0105301011000000000000
B0447413211093S11658049EA0104501008000000000000
B0447453211100S11657974EA0105301021000000000000
B0447493211074S11657909EA0105801016000000000000
B0447533211017S11657907EA0104701001000000000000
B0447573210985S11657963EA0103000986000000000000
B0448013210973S11658030EA0102000976000000000000
B0448053210996S11658093EA0100700964000000000000
B0448093211048S11658130EA0100100959000000000000
B0448133211111S11658140EA0099400949000000000000
B0448173211176S11658140EA0098500940000000000000
B0448213211242S11658132EA0097500930000000000000
B0448253211308S11658117EA0096900926000000000000
B0448293211371S11658101EA0096300917000000000000
B0448333211436S11658083EA0095000904000000000000
B0448373211501S11658066EA0093900891000000000000
B0448413211567S11658049EA0092400876000000000000
B0448453211635S11658032EA0091500865000000000000
B0448493211700S11658026EA0091100865000000000000
B0448533211762S11658027EA0090400853000000000000
B0448573211827S11658030EA0089300845000000000000
B0449013211891S11658034EA0089000846000000000000
B0449053211952S11658045EA0089100845000000000000
B0449093212010S11658058EA0088300832000000000000
B0449133212073S11658076EA0087400824000000000000
B0449173212134S11658101EA0086900821000000000000
B0449213212194S11658125EA0086800818000000000000
B0449253212256S11658127EA0086500814000000000000
B0449293212315S11658097EA0085500801000000000000
B0449333212374S11658065EA0084900801000000000000
B0449373212433S11658028EA0085100800000000000000
B0449413212481S11657980EA0084600796000000000000
B0449453212529S11657927EA0084300791000000000000
B0449493212551S11657857EA0084500800000000000000
B0449533212513S11657809EA0085600810000000000000
B0449573212478S11657853EA0086000810000000000000
B0450013212523S11657897EA0086500819000000000000
B0450053212573S11657863EA0086900823000000015000
B0450093212569S11657796EA0087400825000000015000
B0450133212516S11657771EA0087600833000000015000
B0450173212490S11657818EA0088800846000000000000
B0450213212528S11657865EA0089700851000000015000
B0450253212582S11657841EA0089600849000000015000
B0450293212584S11657772EA0089600847000000015000
B0450333212528S11657746EA0089600851000000015000
B0450373212491S11657792EA0091100870000000015000
B0450413212536S11657829EA0092700881000000015000
B0450453212582S11657789EA0093000882000000015000
B0450493212568S11657720EA0093100885000000015000
B0450533212513S11657719EA0093800895000000015000
B0450573212510S11657783EA0094800906000000015000
B0451013212563S11657813EA0096200918000000015000
B0451053212614S11657772EA0096000912000000015000
B0451093212603S11657699EA0095900916000000015000
B0451133212547S11657680EA0096400924000000015000
B0451173212523S11657736EA0097300930000000015000
B0451213212568S11657780EA0098300947000000015000
B0451253212621S11657746EA0099400951000000015000
B0451293212628S11657675EA0099300949000000015000
B0451333212585S11657631EA0099500955000000015000
B0451373212534S11657645EA0100300964000000015000
B0451413212510S11657697EA0101300974000000000000
B0451453212538S11657750EA0102300983000000015000
B0451493212591S11657731EA0103000989000000015000
B0451533212593S11657663EA0103100990000000015000
B0451573212541S11657637EA0103500996000000015000
B0452013212504S11657686EA0104101005000000000000
B0452053212528S11657748EA0105101016000000015000
B0452093212586S11657758EA0105701017000000015000
B0452133212634S11657710EA0105701019000000015000
B0452173212627S11657641EA0105901020000000015000
B0452213212573S11657620EA0106101028000000015000
B0452253212556S11657675EA0107601042000000015000
B0452293212610S11657706EA0108101046000000015000
B0452333212649S11657654EA0108701052000000015000
B0452373212623S11657593EA0108801053000000015000
B0452413212573S11657602EA0109501062000000015000
B0452453212564S11657663EA0109901063000000015000
B0452493212608S11657710EA0110501074000000000000
B0452533212664S11657702EA0111601080000000000000
B0452573212694S11657645EA0111301075000000000000
B0453013212673S11657579EA0110801071000000015000
B0453053212620S11657571EA0110901075000000000000
B0453093212581S11657615EA0111201077000000000000
B0453133212563S11657677EA0111401080000000000000
B0453173212590S11657738EA0111701080000000000000
B0453213212651S11657746EA0111601075000000000000
B0453253212694S11657690EA0110901067000000000000
B0453293212684S11657611EA0110201065000000015000
B0453333212632S11657567EA0110401067000000015000
B0453373212577S11657582EA0110901074000000000000
B0453413212565S11657645EA0111501080000000000000
B0453453212608S11657692EA0111401073000000000000
B0453493212673S11657690EA0110901070000000000000
B0453533212738S11657675EA0110501065000000000000
B0453573212806S11657660EA0109701057000000000000
B0454013212875S11657654EA0108901050000000000000
B0454053212946S11657655EA0108401042000000000000
B0454093213017S11657660EA0108001042000000000000
B0454133213084S11657667EA0108301045000000000000
B0454173213153S11657675EA0108201043000000000000
B0454213213222S11657684EA0108101039000000000000
B0454253213293S11657697EA0107201027000000000000
B0454293213364S11657712EA0106501024000000000000
B0454333213431S11657727EA0106001015000000000000
B0454373213500S11657744EA0105501015000000000000
B0454413213566S11657759EA0105601015000000000000
B0454453213633S11657771EA0105301010000000000000
B0454493213700S11657785EA0104501003000000000000
B0454533213768S11657797EA0103900997000000000000
B0454573213836S11657807EA0103400991000000000000
B0455013213902S11657816EA0102800983000000000000
B0455053213967S11657826EA0102100975000000000000
B0455093214032S11657836EA0101500972000000000000
B0455133214093S11657848EA0101800976000000000000
B0455173214151S11657868EA0101300966000000000000
B0455213214207S11657906EA0100100957000000000000
B0455253214267S11657939EA0098900943000000000000
B0455293214331S11657962EA0098200937000000000000
B0455333214396S11657979EA0097500927000000000000
B0455373214463S11657989EA0096700919000000000000
B0455413214532S11658000EA0096100916000000000000
B0455453214599S11658010EA0096200917000000000000
B0455493214664S11658021EA0095900911000000000000
B0455533214727S11658034EA0095600909000000000000
B0455573214790S11658027EA0095400909000000000000
B0456013214851S11658017EA0095300907000000000000
B0456053214913S11658006EA0095300907000000000000
B0456093214976S11657991EA0094700897000000000000
B0456133215038S11657967EA0093800889000000000000
B0456173215103S11657956EA0093300885000000000000
B0456213215168S11657957EA0093500891000000000000
B0456253215220S11657987EA0094300900000000000000
B0456293215230S11658045EA0095000905000000000000
B0456333215194S11658082EA0095300909000000000000
B0456373215145S11658070EA0095200904000000000000
B0456413215111S11658014EA0094600899000000000000
B0456453215106S11657939EA0094400899000000000000
B0456493215123S11657861EA0094700903000000000000
B0456533215147S11657784EA0095000908000000000000
B0456573215201S11657759EA0095900915000000000000
B0457013215238S11657800EA0096100915000000000000
B0457053215225S11657855EA0096200919000000000000
B0457093215175S11657863EA0096900927000000000000
B0457133215132S11657816EA0096900920000000000000
B0457173215115S11657736EA0096700922000000000000
B0457213215130S11657659EA0097100930000000000000
B0457253215180S11657616EA0097400932000000000000
B0457293215234S11657632EA0097500930000000000000
B0457333215258S11657690EA0097200929000000000000
B0457373215242S11657749EA0097400934000000000000
B0457413215211S11657797EA0097900935000000000000
B0457453215164S11657828EA0098400943000000000000
B0457493215119S11657781EA0098800942000000000000
B0457533215124S11657702EA0098900947000000000000
B0457573215169S11657649EA0099000943000000000000
B0458013215232S11657645EA0098500942000000000000
B0458053215277S11657689EA0098300939000000000000
B0458093215286S11657754EA0098400944000000000000
B0458133215260S11657813EA0098700949000000000000
B0458173215224S11657863EA0099400954000000000000
B0458213215169S11657872EA0100100964000000000000
B0458253215136S11657818EA0101100974000000000000
B0458293215156S11657754EA0101600975000000000000
B0458333215208S11657733EA0101600975000000000000
B0458373215251S11657768EA0101400968000000000000
B0458413215256S11657832EA0100900969000000000000
B0458453215229S11657888EA0101200972000000000000
B0458493215176S11657907EA0101600979000000000000
B0458533215132S11657865EA0102800997000000000000
B0458573215128S11657798EA0104301006000000000000
B0459013215167S11657749EA0104801009000000000000
B0459053215223S11657746EA0105401016000000000000
B0459093215255S11657794EA0106001022000000000000
B0459133215234S11657849EA0106101020000000000000
B0459173215181S11657863EA0106101025000000000000
B0459213215132S11657818EA0106801033000000000000
B0459253215125S11657741EA0107501039000000000000
B0459293215162S11657675EA0107901044000000000000
B0459333215224S11657654EA0108601052000000000000
B0459373215262S11657697EA0109301059000000000000
B0459413215250S11657758EA0109401057000000000000
B0459453215202S11657796EA0109801065000000000000
B0459493215150S11657766EA0111201082000000000000
B0459533215146S11657693EA0112201088000000000000
B0459573215193S11657637EA0112401092000000000000
B0500013215251S11657646EA0113401105000000000000
B0500053215275S11657702EA0114101106000000000000
B0500093215254S11657759EA0114301110000000000000
B0500133215202S11657779EA0114701118000000000000
B0500173215150S11657745EA0115901128000000000000
B0500213215124S11657675EA0116601135000000000000
B0500253215138S11657594EA0117201139000000000000
B0500293215188S11657532EA0117401142000000000000
B0500333215255S11657512EA0117601147000000000000
B0500373215308S11657543EA0117801145000000015000
B0500413215325S11657605EA0117201135000000015000
B0500453215303S11657663EA0116901136000000000000
B0500493215264S11657710EA0116901139000000000000
B0500533215215S11657740EA0117701149000000000000
B0500573215168S11657702EA0118401153000000000000
B0501013215180S11657631EA0119101162000000000000
B0501053215237S11657605EA0119801169000000000000
B0501093215280S11657642EA0120301174000000000000
B0501133215268S11657701EA0120401174000000000000
B0501173215216S11657722EA0120901181000000000000
B0501213215162S11657690EA0120701172000000000000
B0501253215133S11657618EA0120301173000000000000
B0501293215143S11657537EA0120901185000000000000
B0501333215188S11657476EA0122101196000000000000
B0501373215251S11657458EA0123101203000000000000
B0501413215306S11657484EA0123501203000000000000
B0501453215325S11657542EA0122801196000000000000
B0501493215303S11657601EA0122701201000000000000
B0501533215255S11657638EA0123001205000000000000
B0501573215198S11657644EA0123701212000000000000
B0502013215163S11657585EA0123801208000000000000
B0502053215180S11657508EA0123901216000000000000
B0502093215234S11657478EA0124801224000000000000
B0502133215275S11657520EA0125201227000000000000
B0502173215260S11657576EA0125701233000000000000
B0502213215207S11657592EA0126201236000000000000
B0502253215159S11657550EA0125901229000000000000
B0502293215146S11657469EA0125601233000000000000
B0502333215180S11657395EA0126601246000000000000
B0502373215242S11657364EA0127401248000000000000
B0502413215299S11657393EA0127301246000000000000
B0502453215314S11657455EA0127301249000000000000
B0502493215282S11657507EA0127701254000000000000
B0502533215225S11657521EA0127801251000000000000
B0502573215169S11657480EA0127501248000000000000
B0503013215143S11657399EA0127401251000000000000
B0503053215160S11657317EA0128701265000000000000
B0503093215219S11657311EA0129801275000000000000
B0503133215236S11657363EA0130001274000000000000
B0503173215195S11657403EA0129801275000000000000
B0503213215139S11657381EA0130501286000000000000
B0503253215113S11657307EA0130901285000000000000
B0503293215139S11657229EA0131601295000000000000
B0503333215194S11657185EA0131901296000000000000
B0503373215255S11657183EA0131901295000000000000
B0503413215301S11657222EA0131601290000000000000
B0503453215315S11657283EA0131001285000000000000
B0503493215293S11657342EA0130801285000000000000
B0503533215251S11657390EA0130801283000000000000
B0503573215206S11657434EA0130501280000000000000
B0504013215149S11657452EA0130301281000000000000
B0504053215097S11657408EA0130301278000000000000
B0504093215089S11657326EA0129901274000000000000
B0504133215129S11657259EA0129701272000000000000
B0504173215193S11657239EA0129901277000000000000
B0504213215247S11657268EA0129901274000000000000
B0504253215266S11657329EA0129601271000000000000
B0504293215236S11657382EA0129201267000000000000
B0504333215178S11657395EA0129201272000000000000
B0504373215121S11657360EA0129401263000000000000
B0504413215095S11657281EA0128401258000000000000
B0504453215110S11657195EA0128401262000000000000
B0504493215158S11657133EA0128801264000000000000
B0504533215221S11657107EA0128601258000000000000
B0504573215290S11657109EA0128001252000000000000
B0505013215360S11657124EA0127301245000000000000
B0505053215432S11657140EA0126901242000000000000
B0505093215506S11657163EA0125801228000000000000
B0505133215581S11657189EA0124901219000000000000
B0505173215656S11657218EA0124201212000000000000
B0505213215730S11657247EA0123801208000000000000
B0505253215802S11657276EA0123101201000000000000
B0505293215874S11657302EA0122601197000000000000
B0505333215944S11657329EA0122201191000000000000
B0505373216013S11657361EA0121601187000000000000
B0505413216079S11657394EA0121701189000000000000
B0505453216142S11657425EA0121801191000000000000
B0505493216200S11657456EA0122101193000000000000
B0505533216259S11657484EA0122101191000000000000
B0505573216317S11657511EA0121601183000000000000
B0506013216377S11657540EA0120601173000000000000
B0506053216438S11657566EA0119601164000000000000
B0506093216499S11657592EA0118401150000000000000
B0506133216562S11657618EA0117801145000000000000
B0506173216627S11657645EA0116801133000000000000
B0506213216693S11657668EA0116101126000000000000
B0506253216758S11657690EA0115701122000000000000
B0506293216824S11657703EA0115601124000000000000
B0506333216888S11657684EA0115401120000000000000
B0506373216950S11657662EA0115301118000000000000
B0506413217014S11657644EA0114801112000000000000
B0506453217080S11657641EA0114201107000000000000
B0506493217145S11657649EA0113401096000000000000
B0506533217212S11657666EA0112601089000000000000
B0506573217278S11657685EA0112001083000000000000
B0507013217343S11657706EA0111401078000000000000
B0507053217407S11657725EA0110701069000000000000
B0507093217470S11657741EA0110401070000000000000
B0507133217531S11657755EA0110001062000000000000
B0507173217590S11657777EA0109501056000000000000
B0507213217647S11657803EA0108801048000000000000
B0507253217703S11657833EA0107901040000000000000
B0507293217759S11657867EA0107301032000000000000
B0507333217816S11657900EA0106501023000000000000
B0507373217875S11657932EA0105701013000000000000
B0507413217932S11657971EA0104901007000000000000
B0507453217985S11658015EA0104301000000000000000
B0507493218036S11658063EA0103400991000000000000
B0507533218085S11658113EA0102500981000000000000
B0507573218135S11658162EA0101700974000000000000
B0508013218184S11658212EA0101800979000000000000
B0508053218233S11658256EA0102200983000000000000
B0508093218288S11658288EA0102300981000000000000
B0508133218348S11658273EA0102200980000000000000
B0508173218384S11658210EA0101600970000000000000
B0508213218375S11658135EA0100800962000000000000
B0508253218330S11658092EA0100000954000000000000
B0508293218278S11658099EA0099500949000000000000
B0508333218233S11658132EA0098400936000000000000
B0508373218193S11658178EA0097500930000000000000
B0508413218157S11658232EA0097300930000000000000
B0508453218131S11658295EA0097500934000000000000
B0508493218122S11658360EA0098200935000000000000
B0508533218152S11658413EA0097300923000000000000
B0508573218200S11658456EA0096300916000000000000
B0509013218248S11658507EA0096400921000000000000
B0509053218266S11658570EA0097100932000000000000
B0509093218223S11658594EA0098000936000000000000
B0509133218194S11658534EA0097500928000000000000
B0509173218231S11658465EA0096900925000000000000
B0509213218293S11658453EA0097900941000000000000
B0509253218306S11658509EA0098900948000000000000
B0509293218261S11658529EA0099500957000000000000
B0509333218219S11658483EA0099800957000000000000
B0509373218222S11658405EA0100100962000000000000
B0509413218263S11658351EA0100700971000000000000
B0509453218321S11658344EA0101400976000000015000
B0509493218361S11658386EA0101400973000000015000
B0509533218367S11658451EA0101000974000000015000
B0509573218339S11658505EA0101600982000000015000
B0510013218293S11658531EA0102200985000000000000
B0510053218258S11658481EA0102500987000000000000
B0510093218279S11658408EA0102600987000000000000
B0510133218339S11658405EA0103000994000000015000
B0510173218353S11658468EA0102900992000000015000
B0510213218305S11658498EA0103401002000000015000
B0510253218263S11658455EA0104501007000000000000
B0510293218267S11658379EA0104501006000000000000
B0510333218313S11658322EA0104501007000000015000
B0510373218375S11658312EA0104801016000000015000
B0510413218423S11658348EA0105501017000000015000
B0510453218425S11658407EA0105401015000000015000
B0510493218395S11658455EA0105301015000000000000
B0510533218353S11658495EA0105201015000000000000
B0510573218306S11658538EA0105201014000000000000
B0511013218267S11658590EA0105801027000000000000
B0511053218292S11658635EA0107901049000000000000
B0511093218348S11658608EA0108001040000000000000
B0511133218366S11658526EA0108001047000000015000
B0511173218326S11658478EA0109601064000000015000
B0511213218283S11658504EA0110501071000000015000
B0511253218300S11658557EA0111301079000000015000
B0511293218357S11658548EA0112001086000000015000
B0511333218388S11658476EA0112101087000000015000
B0511373218352S11658417EA0112801101000000015000
B0511413218305S11658437EA0113601103000000015000
B0511453218309S11658494EA0114101114000000015000
B0511493218362S11658513EA0115301126000000000000
B0511533218415S11658469EA0116101127000000015000
B0511573218418S11658390EA0116201136000000015000
B0512013218371S11658368EA0117101142000000015000
B0512053218345S11658417EA0117001139000000015000
B0512093218378S11658464EA0117901159000000015000
B0512133218439S11658446EA0119501169000000015000
B0512173218462S11658374EA0120001172000000015000
B0512213218425S11658323EA0120501178000000015000
B0512253218379S11658343EA0120401174000000015000
B0512293218371S11658401EA0120701183000000015000
B0512333218418S11658433EA0122201199000000015000
B0512373218478S11658404EA0123301207000000015000
B0512413218504S11658334EA0123501208000000015000
B0512453218478S11658270EA0123801217000000015000
B0512493218432S11658261EA0124401218000000015000
B0512533218401S11658300EA0124301217000000015000
B0512573218406S11658352EA0124901226000000000000
B0513013218454S11658375EA0126301243000000000000
B0513053218503S11658336EA0127101244000000015000
B0513093218500S11658265EA0126701239000000015000
B0513133218453S11658225EA0127001245000000015000
B0513173218408S11658238EA0127401249000000015000
B0513213218392S11658286EA0127401250000000000000
B0513253218419S11658331EA0128201263000000000000
B0513293218478S11658316EA0129201271000000015000
B0513333218501S11658239EA0130201280000000015000
B0513373218461S11658184EA0130701285000000015000
B0513413218413S11658200EA0131401287000000015000
B0513453218412S11658256EA0131701294000000015000
B0513493218469S11658270EA0132601305000000015000
B0513533218510S11658204EA0133801319000000015000
B0513573218487S11658127EA0134401320000000015000
B0514013218431S11658109EA0134701326000000015000
B0514053218393S11658145EA0134901326000000015000
B0514093218406S11658197EA0135201334000000015000
B0514133218460S11658219EA0135801339000000000000
B0514173218505S11658169EA0136401347000000015000
B0514213218479S11658102EA0136901350000000015000
B0514253218428S11658108EA0137001352000000015000
B0514293218417S11658158EA0137401357000000015000
B0514333218453S11658200EA0137601358000000000000
B0514373218516S11658193EA0138101360000000015000
B0514413218565S11658130EA0138101365000000015000
B0514453218568S11658049EA0139101379000000015000
B0514493218518S11658010EA0139701376000000015000
B0514533218473S11658036EA0139401373000000015000
B0514573218478S11658093EA0139801381000000015000
B0515013218529S11658115EA0141001394000000015000
B0515053218588S11658082EA0140901388000000015000
B0515093218618S11658004EA0141001397000000015000
B0515133218587S11657941EA0142101407000000015000
B0515173218536S11657944EA0142001399000000015000
B0515213218504S11657987EA0141601396000000015000
B0515253218514S11658039EA0141801401000000000000
B0515293218562S11658067EA0142101404000000000000
B0515333218625S11658053EA0142001396000000000000
B0515373218694S11658022EA0140801389000000015000
B0515413218766S11657997EA0141001394000000000000
B0515453218838S11657971EA0141001390000000000000
B0515493218912S11657950EA0140301382000000000000
B0515533218987S11657941EA0139901378000000000000
B0515573219062S11657941EA0139401375000000000000
B0516013219136S11657945EA0139701382000000000000
B0516053219198S11657915EA0140301389000000000000
B0516093219253S11657874EA0140501386000000000000
B0516133219311S11657846EA0139401372000000000000
B0516173219375S11657833EA0138101359000000000000
B0516213219440S11657828EA0136901349000000000000
B0516253219507S11657828EA0136401343000000000000
B0516293219576S11657832EA0135801338000000000000
B0516333219648S11657837EA0135801339000000000000
B0516373219718S11657836EA0136801358000000000000
B0516413219758S11657777EA0139101379000000000000
B0516453219726S11657714EA0140401391000000000000
B0516493219670S11657716EA0141701403000000000000
B0516533219653S11657770EA0142601411000000000000
B0516573219692S11657807EA0143401420000000000000
B0517013219741S11657772EA0144601432000000015000
B0517053219736S11657699EA0145501440000000015000
B0517093219682S11657673EA0146201449000000015000
B0517133219645S11657716EA0147101456000000015000
B0517173219666S11657770EA0147401461000000015000
B0517213219721S11657772EA0148401474000000015000
B0517253219752S11657712EA0149401483000000015000
B0517293219719S11657649EA0150001489000000015000
B0517333219665S11657657EA0150701497000000015000
B0517373219654S11657710EA0151501504000000015000
B0517413219693S11657741EA0151901512000000015000
B0517453219741S11657710EA0152901519000000015000
B0517493219744S11657638EA0153301525000000015000
B0517533219701S11657588EA0154001534000000015000
B0517573219649S11657585EA0154501536000000015000
B0518013219615S11657627EA0154401531000000000000
B0518053219623S11657681EA0154001528000000000000
B0518093219660S11657716EA0154101531000000000000
B0518133219712S11657727EA0154301536000000000000
B0518173219770S11657712EA0154001522000000000000
B0518213219836S11657694EA0152401509000000000000
B0518253219907S11657688EA0151201497000000000000
B0518293219978S11657701EA0150501494000000000000
B0518333220051S11657720EA0149901485000000000000
B0518373220128S11657745EA0149001469000000000000
B0518413220207S11657774EA0147701461000000000000
B0518453220289S11657805EA0147101452000000000000
B0518493220369S11657837EA0146701452000000000000
B0518533220447S11657872EA0146601450000000000000
B0518573220527S11657907EA0145801439000000000000
B0519013220609S11657943EA0145101436000000000000
B0519053220689S11657975EA0145001434000000000000
B0519093220770S11658006EA0144701429000000000000
B0519133220849S11658036EA0144101426000000000000
B0519173220928S11658066EA0144201428000000000000
B0519213221005S11658095EA0144201426000000000000
B0519253221080S11658123EA0144001425000000000000
B0519293221153S11658149EA0144201429000000000000
B0519333221223S11658173EA0144201426000000000000
B0519373221294S11658196EA0143701420000000000000
B0519413221365S11658219EA0143001414000000000000
B0519453221437S11658240EA0142701411000000000000
B0519493221507S11658262EA0142501407000000000000
B0519533221574S11658288EA0142201404000000000000
B0519573221642S11658314EA0141601399000000000000
B0520013221708S11658342EA0141101395000000000000
B0520053221775S11658369EA0140601387000000000000
B0520093221842S11658398EA0140301386000000000000
B0520133221909S11658422EA0140301385000000000000
B0520173221974S11658446EA0140201385000000000000
B0520213222035S11658469EA0140301388000000000000
B0520253222093S11658495EA0140301388000000000000
B0520293222148S11658525EA0140401388000000000000
B0520333222189S11658576EA0140401390000000000000
B0520373222206S11658639EA0140501388000000000000
B0520413222219S11658707EA0139801379000000000000
B0520453222252S11658767EA0139001373000000000000
B0520493222302S11658807EA0138401365000000000000
B0520533222365S11658823EA0137401354000000000000
B0520573222432S11658823EA0136901350000000000000
B0521013222501S11658817EA0136901353000000000000
B0521053222568S11658815EA0137401358000000000000
B0521093222633S11658804EA0137801359000000000000
B0521133222689S11658763EA0137801360000000000000
B0521173222738S11658708EA0137501359000000000000
B0521213222789S11658658EA0138001366000000000000
B0521253222835S11658609EA0138701371000000000000
B0521293222873S11658551EA0138401366000000000000
B0521333222900S11658482EA0138201368000000000000
B0521373222887S11658404EA0138901372000000000000
B0521413222830S11658368EA0138901371000000000000
B0521453222787S11658399EA0139101372000000000000
B0521493222812S11658438EA0138901369000000000000
B0521533222861S11658421EA0138601365000000000000
B0521573222880S11658342EA0138001359000000015000
B0522013222864S11658253EA0137701358000000015000
B0522053222820S11658184EA0137001349000000015000
B0522093222761S11658175EA0136801349000000015000
B0522133222721S11658214EA0136001337000000000000
B0522173222720S11658273EA0135301328000000000000
B0522213222750S11658322EA0134701327000000000000
B0522253222796S11658360EA0135201335000000000000
B0522293222847S11658394EA0135801337000000000000
B0522333222907S11658403EA0136301349000000000000
B0522373222934S11658342EA0137901363000000000000
B0522413222891S11658290EA0138101357000000000000
B0522453222833S11658309EA0137901361000000000000
B0522493222839S11658356EA0139101378000000015000
B0522533222889S11658347EA0139801379000000015000
B0522573222906S11658279EA0140001381000000015000
B0523013222856S11658230EA0139501371000000015000
B0523053222799S11658252EA0139201376000000015000
B0523093222789S11658308EA0139401377000000015000
B0523133222822S11658353EA0139401375000000015000
B0523173222878S11658373EA0138901370000000000000
B0523213222943S11658377EA0138801370000000000000
B0523253223010S11658374EA0139201377000000000000
B0523293223071S11658351EA0139901384000000000000
B0523333223098S11658283EA0140001380000000000000
B0523373223066S11658221EA0139001371000000015000
B0523413223008S11658223EA0138601366000000000000
B0523453222981S11658279EA0138601372000000000000
B0523493222977S11658344EA0139101375000000000000
B0523533222980S11658412EA0138901368000000000000
B0523573223010S11658477EA0138301361000000000000
B0524013223063S11658525EA0137601360000000000000
B0524053223129S11658555EA0138001363000000000000
B0524093223197S11658583EA0137501356000000000000
B0524133223264S11658613EA0136601344000000000000
B0524173223337S11658637EA0135501331000000000000
B0524213223413S11658658EA0134901329000000000000
B0524253223488S11658684EA0134301320000000000000
B0524293223560S11658715EA0133901318000000000000
B0524333223625S11658756EA0133701313000000000000
B0524373223691S11658799EA0132601303000000000000
B0524413223755S11658843EA0132301302000000000000
B0524453223814S11658889EA0132101299000000000000
B0524493223874S11658932EA0131801294000000000000
B0524533223935S11658971EA0131401296000000000000
B0524573223978S11659024EA0132301306000000000000
B0525013223959S11659081EA0133401320000000000000
B0525053223905S11659083EA0134301322000000000000
B0525093223866S11659024EA0133801314000000000000
B0525133223864S11658941EA0133301312000000000000
B0525173223901S11658872EA0133401314000000000000
B0525213223953S11658825EA0132701300000000000000
B0525253224018S11658802EA0131701288000000000000
B0525293224083S11658808EA0130701279000000000000
B0525333224146S11658837EA0129901277000000000000
B0525373224208S11658869EA0130401286000000000000
B0525413224268S11658899EA0130601282000000000000
B0525453224330S11658931EA0129801272000000000000
B0525493224394S11658963EA0128701262000000000000
B0525533224459S11658996EA0127701250000000000000
B0525573224525S11659028EA0126201235000000000000
B0526013224593S11659059EA0125601231000000000000
B0526053224659S11659089EA0125301228000000000000
B0526093224722S11659122EA0125101226000000000000
B0526133224783S11659154EA0124701220000000000000
B0526173224844S11659187EA0123901211000000000000
B0526213224905S11659217EA0123301206000000000000
B0526253224966S11659243EA0123001204000000000000
B0526293225026S11659262EA0123101206000000000000
B0526333225086S11659282EA0122901202000000000000
B0526373225148S11659302EA0122401197000000000000
B0526413225211S11659323EA0122101193000000000000
B0526453225276S11659344EA0122001194000000000000
B0526493225335S11659332EA0123001207000000000000
B0526533225343S11659269EA0124401222000000000000
B0526573225294S11659246EA0125201229000000000000
B0527013225260S11659287EA0125501226000000000000
B0527053225272S11659345EA0125201224000000000000
B0527093225318S11659373EA0125301228000000000000
B0527133225369S11659354EA0126001235000000000000
B0527173225413S11659311EA0126601247000000000000
B0527213225433S11659248EA0127601253000000000000
B0527253225416S11659180EA0127901258000000000000
B0527293225370S11659144EA0129101274000000000000
B0527333225321S11659163EA0129901275000000000000
B0527373225305S11659220EA0130201281000000000000
B0527413225338S11659262EA0131001288000000000000
B0527453225390S11659250EA0131201289000000000000
B0527493225411S11659183EA0131401294000000015000
B0527533225372S11659129EA0132001301000000015000
B0527573225317S11659142EA0132801312000000015000
B0528013225304S11659200EA0133401312000000015000
B0528053225343S11659240EA0133701318000000015000
B0528093225393S11659219EA0134301326000000015000
B0528133225406S11659154EA0135201334000000015000
B0528173225369S11659102EA0135501333000000015000
B0528213225312S11659103EA0135801341000000015000
B0528253225273S11659141EA0136601347000000015000
B0528293225260S11659197EA0136101341000000000000
B0528333225279S11659256EA0135801335000000015000
B0528373225331S11659284EA0135701341000000000000
B0528413225389S11659274EA0136201344000000015000
B0528453225441S11659240EA0136501349000000000000
B0528493225430S11659172EA0137201354000000000000
B0528533225373S11659170EA0137301356000000000000
B0528573225347S11659227EA0137801360000000000000
B0529013225370S11659284EA0138001360000000000000
B0529053225426S11659305EA0137801358000000000000
B0529093225481S11659267EA0137801360000000015000
B0529133225497S11659194EA0138601371000000015000
B0529173225455S11659146EA0139801385000000015000
B0529213225412S11659187EA0140501387000000015000
B0529253225430S11659244EA0140601388000000015000
B0529293225485S11659256EA0140701388000000000000
B0529333225532S11659206EA0140601392000000015000
B0529373225533S11659132EA0141501404000000015000
B0529413225486S11659098EA0142701418000000015000
B0529453225445S11659131EA0143901428000000015000
B0529493225445S11659187EA0144301427000000015000
B0529533225484S11659220EA0144601432000000000000
B0529573225538S11659207EA0144701428000000000000
B0530013225569S11659148EA0144901438000000015000
B0530053225556S11659087EA0145601446000000015000
B0530093225511S11659062EA0146301450000000015000
B0530133225464S11659089EA0146701453000000000000
B0530173225454S11659146EA0146901454000000000000
B0530213225491S11659191EA0146901456000000000000
B0530253225552S11659192EA0146701451000000000000
B0530293225616S11659167EA0146701452000000000000
B0530333225663S11659118EA0147201456000000000000
B0530373225698S11659050EA0147201459000000000000
B0530413225737S11658985EA0147701464000000000000
B0530453225759S11658914EA0148201467000000000000
B0530493225723S11658864EA0148101467000000000000
B0530533225672S11658882EA0148001464000000000000
B0530573225640S11658936EA0148001469000000000000
B0531013225623S11658996EA0148901479000000000000
B0531053225668S11659037EA0149501478000000000000
B0531093225728S11659003EA0149101477000000000000
B0531133225745S11658931EA0149401482000000015000
B0531173225710S11658881EA0150101490000000015000
B0531213225658S11658895EA0150201488000000000000
B0531253225637S11658951EA0151101506000000000000
B0531293225675S11658993EA0152001507000000000000
B0531333225731S11658971EA0152001506000000015000
B0531373225740S11658905EA0151801505000000015000
B0531413225697S11658869EA0152001509000000015000
B0531453225651S11658895EA0152401514000000000000
B0531493225641S11658953EA0153301525000000000000
B0531533225668S11659003EA0154001531000000000000
B0531573225720S11659028EA0153801522000000000000
B0532013225785S11659033EA0152301504000000000000
B0532053225858S11659041EA0151001490000000000000
B0532093225936S11659055EA0149701477000000000000
B0532133226014S11659077EA0148901472000000000000
B0532173226088S11659100EA0149001473000000000000
B0532213226161S11659119EA0148701469000000000000
B0532253226232S11659137EA0148401467000000000000
B0532293226301S11659162EA0148101464000000000000
B0532333226368S11659191EA0147801459000000000000
B0532373226433S11659222EA0147301453000000000000
B0532413226498S11659257EA0146501447000000000000
B0532453226561S11659295EA0146501448000000000000
B0532493226625S11659332EA0146201443000000000000
B0532533226690S11659373EA0145501437000000000000
B0532573226754S11659413EA0146101449000000000000
B0533013226812S11659453EA0146601450000000000000
B0533053226871S11659493EA0146501446000000000000
B0533093226932S11659531EA0146201445000000000000
B0533133226989S11659575EA0146201446000000000000
B0533173227049S11659616EA0146001442000000000000
B0533213227111S11659655EA0145501437000000000000
B0533253227175S11659695EA0144801428000000000000
B0533293227242S11659722EA0144201424000000000000
B0533333227314S11659740EA0143901419000000000000
B0533373227387S11659764EA0143201410000000000000
B0533413227461S11659789EA0142301401000000000000
B0533453227534S11659813EA0141301391000000000000
B0533493227605S11659844EA0140301380000000000000
B0533533227675S11659876EA0139401374000000000000
B0533573227742S11659907EA0138901368000000000000
B0534013227804S11659937EA0138701367000000000000
B0534053227865S11659965EA0138401363000000000000
B0534093227925S11659999EA0138201361000000000000
B0534133227985S11700030EA0137701354000000000000
B0534173228045S11700064EA0136901346000000000000
B0534213228103S11700097EA0136501343000000000000
B0534253228160S11700128EA0135901334000000000000
B0534293228223S11700159EA0135301331000000000000
B0534333228282S11700190EA0134901327000000000000
B0534373228341S11700221EA0134601323000000000000
B0534413228399S11700255EA0134601325000000000000
B0534453228457S11700290EA0134901330000000000000
B0534493228516S11700310EA0135201332000000000000
B0534533228568S11700279EA0135601336000000000000
B0534573228585S11700214EA0135601332000000000000
B0535013228555S11700155EA0135401332000000000000
B0535053228502S11700146EA0135601333000000000000
B0535093228461S11700180EA0135201327000000000000
B0535133228424S11700229EA0134701323000000000000
B0535173228394S11700286EA0134301318000000000000
B0535213228364S11700346EA0134701329000000000000
B0535253228372S11700410EA0136101339000000000000
B0535293228428S11700403EA0136501341000000000000
B0535333228440S11700333EA0136401338000000000000
B0535373228399S11700275EA0136201341000000000000
B0535413228341S11700270EA0137001356000000015000
B0535453228325S11700324EA0138301364000000015000
B0535493228380S11700340EA0139301377000000015000
B0535533228411S11700277EA0140401385000000015000
B0535573228376S11700216EA0140801392000000015000
B0536013228321S11700227EA0141301393000000015000
B0536053228311S11700289EA0141801402000000015000
B0536093228357S11700324EA0143401420000000015000
B0536133228403S11700283EA0144401424000000015000
B0536173228386S11700207EA0144501426000000015000
B0536213228328S11700186EA0145401439000000015000
B0536253228286S11700225EA0146001447000000015000
B0536293228301S11700286EA0146901459000000015000
B0536333228354S11700303EA0148301469000000000000
B0536373228401S11700255EA0149201475000000015000
B0536413228398S11700180EA0149201480000000015000
B0536453228353S11700136EA0150201489000000015000
B0536493228298S11700145EA0150201487000000015000
B0536533228276S11700201EA0150701500000000015000
B0536573228307S11700246EA0152201513000000000000
B0537013228362S11700240EA0153401524000000000000
B0537053228389S11700180EA0154101528000000000000
B0537093228359S11700123EA0154401533000000015000
B0537133228305S11700136EA0154401527000000015000
B0537173228301S11700198EA0155001547000000015000
B0537213228349S11700215EA0156701561000000015000
B0537253228384S11700164EA0157601567000000015000
B0537293228360S11700098EA0157701567000000015000
B0537333228307S11700084EA0158301577000000015000
B0537373228277S11700130EA0159301586000000000000
B0537413228303S11700173EA0160101592000000000000
B0537453228355S11700162EA0160801602000000000000
B0537493228376S11700097EA0160901601000000015000
B0537533228344S11700034EA0161001607000000015000
B0537573228286S11700020EA0161801612000000000000
B0538013228242S11700055EA0162301617000000000000
B0538053228246S11700111EA0162601621000000000000
B0538093228294S11700133EA0163301626000000000000
B0538133228341S11700089EA0163701631000000000000
B0538173228341S11700012EA0164001635000000015000
B0538213228294S11659958EA0164401640000000015000
B0538253228232S11659956EA0164701642000000000000
B0538293228194S11700002EA0165101644000000000000
B0538333228198S11700058EA0165001644000000015000
B0538373228242S11700090EA0165001640000000000000
B0538413228302S11700085EA0164901644000000000000
B0538453228357S11700050EA0165201645000000000000
B0538493228397S11659987EA0164801640000000000000
B0538533228440S11659924EA0164001627000000000000
B0538573228500S11659873EA0162501614000000000000
B0539013228568S11659850EA0161801608000000000000
B0539053228643S11659848EA0161001598000000000000
B0539093228718S11659864EA0160201588000000000000
B0539133228796S11659885EA0159501584000000000000
B0539173228874S11659911EA0159201582000000000000
B0539213228948S11659937EA0159301585000000000000
B0539253229020S11659961EA0159401583000000000000
B0539293229088S11659985EA0158601574000000000000
B0539333229159S11700007EA0157701564000000000000
B0539373229230S11700029EA0156601554000000000000
B0539413229302S11700051EA0155701546000000000000
B0539453229374S11700076EA0155101540000000000000
B0539493229449S11700098EA0155001540000000000000
B0539533229523S11700117EA0155201544000000000000
B0539573229594S11700138EA0155501547000000000000
B0540013229667S11700162EA0155501542000000000000
B0540053229742S11700181EA0154601532000000000000
B0540093229820S11700201EA0153601522000000000000
B0540133229901S11700221EA0152601513000000000000
B0540173229979S11700249EA0152101508000000000000
B0540213230056S11700279EA0151701503000000000000
B0540253230131S11700309EA0151301500000000000000
B0540293230203S11700340EA0151101499000000000000
B0540333230274S11700370EA0150901495000000000000
B0540373230344S11700398EA0150701494000000000000
B0540413230413S11700426EA0150401490000000000000
B0540453230482S11700446EA0150001486000000000000
B0540493230550S11700466EA0149501475000000000000
B0540533230621S11700483EA0148401463000000000000
B0540573230695S11700500EA0147401455000000000000
B0541013230772S11700514EA0146801452000000000000
B0541053230847S11700527EA0147301458000000000000
B0541093230921S11700541EA0148201468000000000000
B0541133230988S11700519EA0149201481000000000000
B0541173231022S11700452EA0150601498000000000000
B0541213230993S11700392EA0152101514000000000000
B0541253230937S11700394EA0152801518000000000000
B0541293230919S11700453EA0153401527000000000000
B0541333230964S11700489EA0154201530000000000000
B0541373231014S11700449EA0154501537000000000000
B0541413231006S11700377EA0155401546000000015000
B0541453230949S11700355EA0156101552000000000000
B0541493230910S11700401EA0157001562000000015000
B0541533230934S11700457EA0157201559000000015000
B0541573230992S11700449EA0157401564000000015000
B0542013231010S11700381EA0157801569000000015000
B0542053230967S11700332EA0158601581000000015000
B0542093230914S11700348EA0159101585000000015000
B0542133230903S11700407EA0159301583000000000000
B0542173230944S11700452EA0159101582000000000000
B0542213231001S11700445EA0159201582000000000000
B0542253231051S11700402EA0159301589000000000000
B0542293231066S11700333EA0160701602000000000000
B0542333231019S11700293EA0160901605000000000000
B0542373230971S11700324EA0161201604000000000000
B0542413230964S11700388EA0161201606000000000000
B0542453230998S11700439EA0161401608000000000000
B0542493231050S11700463EA0161401607000000000000
B0542533231111S11700468EA0161201607000000000000
B0542573231176S11700467EA0161501608000000000000
B0543013231243S11700459EA0161101602000000000000
B0543053231311S11700455EA0160601599000000000000
B0543093231380S11700454EA0160301593000000000000
B0543133231451S11700458EA0159401582000000000000
B0543173231523S11700465EA0158301572000000000000
B0543213231599S11700471EA0157501563000000000000
B0543253231674S11700474EA0156801556000000000000
B0543293231751S11700474EA0155801542000000000000
B0543333231830S11700475EA0154701532000000000000
B0543373231908S11700472EA0153801522000000000000
B0543413231987S11700471EA0152901516000000000000
B0543453232064S11700470EA0152701514000000000000
B0543493232140S11700472EA0152101506000000000000
B0543533232212S11700478EA0151101497000000000000
B0543573232286S11700484EA0150301488000000000000
B0544013232359S11700491EA0149801483000000000000
B0544053232432S11700498EA0149601480000000000000
B0544093232504S11700505EA0149001473000000000000
B0544133232576S11700513EA0148301464000000000000
B0544173232649S11700520EA0147801462000000000000
B0544213232723S11700527EA0147301455000000000000
B0544253232800S11700536EA0146401443000000000000
B0544293232879S11700537EA0145401436000000000000
B0544333232956S11700520EA0144901431000000000000
B0544373233031S11700491EA0144401426000000000000
B0544413233108S11700457EA0144201423000000000000
B0544453233185S11700423EA0143701417000000000000
B0544493233261S11700389EA0143701422000000000000
B0544533233334S11700361EA0144001424000000000000
B0544573233406S11700332EA0143501413000000000000
B0545013233477S11700297EA0142101398000000000000
B0545053233551S11700255EA0140801382000000000000
B0545093233627S11700212EA0139501374000000000000
B0545133233701S11700168EA0139201369000000000000
B0545173233775S11700128EA0138401361000000000000
B0545213233852S11700098EA0137401351000000000000
B0545253233932S11700078EA0136401336000000000000
B0545293234015S11700073EA0135101325000000000000
B0545333234099S11700081EA0134401319000000000000
B0545373234178S11700098EA0134101318000000000000
B0545413234252S11700121EA0134101317000000000000
B0545453234327S11700146EA0133201306000000000000
B0545493234407S11700167EA0132401294000000000000
B0545533234486S11700192EA0131201283000000000000
B0545573234564S11700218EA0130301275000000000000
B0546013234637S11700245EA0129801270000000000000
B0546053234708S11700272EA0129201264000000000000
B0546093234777S11700303EA0128901264000000000000
B0546133234844S11700328EA0129501272000000000000
B0546173234909S11700335EA0129601269000000000000
B0546213234974S11700348EA0129101267000000000000
B0546253235040S11700368EA0128301250000000000000
B0546293235106S11700397EA0127101239000000000000
B0546333235174S11700431EA0126501238000000000000
B0546373235232S11700476EA0126701238000000000000
B0546413235278S11700537EA0126301237000000000000
B0546453235319S11700598EA0126501237000000000000
B0546493235358S11700661EA0126701238000000000000
B0546533235393S11700722EA0127101246000000000000
B0546573235452S11700727EA0127701246000000000000
B0547013235492S11700666EA0126901235000000000000
B0547053235484S11700580EA0126101230000000000000
B0547093235438S11700519EA0126201234000000000000
B0547133235375S11700507EA0126301231000000000000
B0547173235327S11700554EA0125601226000000000000
B0547213235302S11700624EA0125501225000000000000
B0547253235304S11700701EA0125401223000000000000
B0547293235318S11700778EA0125301224000000000000
B0547333235338S11700856EA0125101219000000000000
B0547373235366S11700929EA0125101223000000000000
B0547413235397S11700998EA0125001218000000000000
B0547453235442S11701060EA0124301215000000000000
B0547493235494S11701113EA0124401214000000000000
B0547533235551S11701159EA0124101209000000000000
B0547573235614S11701194EA0122801196000000000000
B0548013235682S11701225EA0121901187000000000000
B0548053235750S11701256EA0121001175000000000000
B0548093235821S11701286EA0120001163000000000000
B0548133235895S11701316EA0118901153000000000000
B0548173235972S11701345EA0117801138000000000000
B0548213236051S11701373EA0116401127000000000000
B0548253236129S11701402EA0115601117000000000000
B0548293236206S11701430EA0115201118000000000000
B0548333236267S11701482EA0116201131000000000000
B0548373236310S11701546EA0117901150000000000000
B0548413236359S11701588EA0119401170000000000000
B0548453236404S11701541EA0121201187000000000000
B0548493236383S11701476EA0122101196000000000000
B0548533236331S11701471EA0123001201000000000000
B0548573236303S11701525EA0123301208000000000000
B0549013236333S11701580EA0124301218000000000000
B0549053236391S11701570EA0125601233000000000000
B0549093236411S11701502EA0127001246000000000000
B0549133236374S11701455EA0128001255000000000000
B0549173236328S11701480EA0128301253000000000000
B0549213236331S11701544EA0128601257000000000000
B0549253236381S11701573EA0129101267000000000000
B0549293236437S11701542EA0129901270000000000000
B0549333236453S11701466EA0130101277000000000000
B0549373236414S11701412EA0131401296000000000000
B0549413236366S11701417EA0132601302000000000000
B0549453236346S11701472EA0132901303000000000000
B0549493236380S11701520EA0133201307000000000000
B0549533236437S11701494EA0133401310000000000000
B0549573236448S11701417EA0134101318000000000000
B0550013236398S11701380EA0135301333000000000000
B0550053236353S11701410EA0135701333000000000000
B0550093236350S11701476EA0135801334000000000000
B0550133236397S11701511EA0137001352000000000000
B0550173236449S11701484EA0138001362000000000000
B0550213236465S11701415EA0138301362000000000000
B0550253236423S11701367EA0138701374000000000000
B0550293236378S11701391EA0139701377000000000000
B0550333236376S11701454EA0139501374000000000000
B0550373236426S11701490EA0140001384000000000000
B0550413236482S11701462EA0140601382000000000000
B0550453236501S11701384EA0139701375000000000000
B0550493236470S11701313EA0140301387000000000000
B0550533236413S11701293EA0141301394000000000000
B0550573236363S11701321EA0141501395000000000000
B0551013236337S11701381EA0141401395000000000000
B0551053236320S11701449EA0141901402000000000000
B0551093236357S11701495EA0143001412000000000000
B0551133236414S11701467EA0143001405000000000000
B0551173236446S11701394EA0142901410000000000000
B0551213236450S11701311EA0143201414000000000000
B0551253236404S11701259EA0143901423000000000000
B0551293236349S11701274EA0144201422000000000000
B0551333236327S11701333EA0144101421000000000000
B0551373236350S11701394EA0144101425000000000000
B0551413236409S11701410EA0144801436000000000000
B0551453236459S11701367EA0146001445000000000000
B0551493236467S11701290EA0146401450000000000000
B0551533236422S11701234EA0146801454000000000000
B0551573236363S11701245EA0146801450000000000000
B0552013236341S11701307EA0146501449000000000000
B0552053236375S11701360EA0147101458000000000000
B0552093236433S11701354EA0148501473000000000000
B0552133236466S11701286EA0148901472000000000000
B0552173236441S11701208EA0149201478000000000000
B0552213236381S11701183EA0149601481000000000000
B0552253236331S11701217EA0149601475000000000000
B0552293236315S11701284EA0149201476000000000000
B0552333236329S11701352EA0149901486000000000000
B0552373236380S11701388EA0150501488000000000000
B0552413236443S11701372EA0149901481000000000000
B0552453236487S11701312EA0149701482000000000000
B0552493236482S11701232EA0149801484000000000000
B0552533236431S11701185EA0149801483000000000000
B0552573236376S11701211EA0149801484000000000000
B0553013236352S11701272EA0149801486000000000000
B0553053236339S11701339EA0150101487000000000000
B0553093236350S11701407EA0150301489000000000000
B0553133236393S11701459EA0149901483000000000000
B0553173236456S11701489EA0149201474000000000000
B0553213236528S11701502EA0148001462000000000000
B0553253236608S11701508EA0146901451000000000000
B0553293236690S11701510EA0146201441000000000000
B0553333236775S11701511EA0145201434000000000000
B0553373236860S11701512EA0144901433000000000000
B0553413236943S11701512EA0144801428000000000000
B0553453237026S11701510EA0143801416000000000000
B0553493237109S11701507EA0142601407000000000000
B0553533237194S11701506EA0141401392000000000000
B0553573237280S11701507EA0140401385000000000000
B0554013237363S11701506EA0139701377000000000000
B0554053237446S11701512EA0139101368000000000000
B0554093237531S11701525EA0138301362000000000000
B0554133237609S11701536EA0138601369000000000000
B0554173237685S11701544EA0138601364000000000000
B0554213237763S11701557EA0138401368000000000000
B0554253237837S11701579EA0139801384000000000000
B0554293237889S11701633EA0140701391000000000000
B0554333237897S11701705EA0141501400000000000000
B0554373237854S11701748EA0142101405000000000000
B0554413237801S11701718EA0141901398000000000000
B0554453237788S11701638EA0141901407000000000000
B0554493237775S11701563EA0143601429000000000000
B0554533237722S11701551EA0145001432000000000000
B0554573237685S11701605EA0144501423000000000000
B0555013237697S11701677EA0144401428000000000000
B0555053237753S11701707EA0145401440000000000000
B0555093237779S11701642EA0147101462000000000000
B0555133237731S11701609EA0148401468000000000000
B0555173237694S11701657EA0148801476000000000000
B0555213237731S11701706EA0150001490000000000000
B0555253237779S11701662EA0151301503000000000000
B0555293237744S11701609EA0152801517000000000000
B0555333237700S11701646EA0153401525000000000000
B0555373237735S11701694EA0154501536000000000000
B0555413237789S11701663EA0155701553000000000000
B0555453237785S11701594EA0157201564000000000000
B0555493237732S11701575EA0157301561000000000000
B0555533237691S11701622EA0157801572000000000000
B0555573237692S11701684EA0158601574000000000000
B0556013237752S11701705EA0158001567000000000000
B0556053237782S11701638EA0159301589000000000000
B0556093237732S11701602EA0160601599000000000000
B0556133237700S11701651EA0161301605000000000000
B0556173237739S11701702EA0161501607000000000000
B0556213237800S11701685EA0162501619000000000000
B0556253237822S11701616EA0163101629000000000000
B0556293237788S11701558EA0164401642000000000000
B0556333237730S11701563EA0164801640000000000000
B0556373237714S11701627EA0165501654000000000000
B0556413237758S11701668EA0166401662000000000000
B0556453237813S11701635EA0167201672000000000000
B0556493237809S11701563EA0168501688000000000000
B0556533237757S11701541EA0169301690000000000000
B0556573237720S11701592EA0169601692000000000000
B0557013237753S11701650EA0170101699000000000000
B0557053237811S11701636EA0170901710000000000000
B0557093237823S11701563EA0171501717000000000000
B0557133237775S11701525EA0172301725000000000000
B0557173237726S11701560EA0172801729000000000000
B0557213237732S11701625EA0173001727000000000000
B0557253237796S11701627EA0173301736000000000000
B0557293237809S11701557EA0174101744000000000000
B0557333237756S11701531EA0174801747000000000000
B0557373237715S11701577EA0175201756000000000000
B0557413237722S11701641EA0175701758000000000000
B0557453237763S11701687EA0175801757000000000000
B0557493237827S11701696EA0175201750000000000000
B0557533237891S11701664EA0174801748000000000000
B0557573237948S11701611EA0174301742000000000000
B0558013238014S11701570EA0172901724000000000000
B0558053238094S11701555EA0171901719000000000000
B0558093238173S11701564EA0173001743000000000000
B0558133238246S11701579EA0174901762000000000000
B0558173238307S11701614EA0176401774000000000000
B0558213238315S11701677EA0177201776000000000000
B0558253238270S11701705EA0176601765000000000000
B0558293238220S11701675EA0175401754000000000000
B0558333238209S11701601EA0175201757000000000000
B0558373238235S11701527EA0176301773000000000000
B0558413238276S11701462EA0177001776000000000000
B0558453238339S11701451EA0177401779000000000000
B0558493238393S11701492EA0177401767000000000000
B0558533238451S11701536EA0175501743000000000000
B0558573238524S11701566EA0173101722000000000000
B0559013238603S11701589EA0172301719000000000000
B0559053238684S11701605EA0172301719000000000000
B0559093238763S11701622EA0171701709000000000000
B0559133238844S11701644EA0170601698000000000000
B0559173238926S11701668EA0170101694000000000000
B0559213239009S11701696EA0169001681000000000000
B0559253239091S11701723EA0168601683000000000000
B0559293239169S11701753EA0168901686000000000000
B0559333239243S11701785EA0168801681000000000000
B0559373239319S11701818EA0168201673000000000000
B0559413239397S11701850EA0167401664000000000000
B0559453239477S11701882EA0166501654000000000000
B0559493239559S11701909EA0165401642000000000000
B0559533239641S11701934EA0164501636000000000000
B0559573239720S11701958EA0164101632000000000000
B0600013239799S11701978EA0163701629000000000000
B0600053239878S11701996EA0163301621000000000000
B0600093239960S11702012EA0162601618000000000000
B0600133240041S11702023EA0162501618000000000000
B0600173240120S11702035EA0162701619000000000000
B0600213240201S11702052EA0162901620000000000000
B0600253240278S11702070EA0163201627000000000000
B0600293240349S11702096EA0163301622000000000000
B0600333240421S11702127EA0162301613000000000000
B0600373240495S11702153EA0161601604000000000000
B0600413240569S11702178EA0160801594000000000000
B0600453240645S11702203EA0160101587000000000000
B0600493240721S11702230EA0159401579000000000000
B0600533240799S11702257EA0158301568000000000000
B0600573240879S11702286EA0157401563000000000000
B0601013240959S11702311EA0157601564000000000000
B0601053241035S11702335EA0157501561000000000000
B0601093241113S11702357EA0157101560000000000000
B0601133241188S11702377EA0157001556000000000000
B0601173241262S11702395EA0156101545000000000000
B0601213241338S11702413EA0154901533000000000000
B0601253241412S11702435EA0154801535000000000000
B0601293241485S11702455EA0154801534000000000000
B0601333241559S11702474EA0154201527000000000000
B0601373241636S11702495EA0153501518000000000000
B0601413241713S11702517EA0153201519000000000000
B0601453241789S11702539EA0153201513000000000000
B0601493241867S11702560EA0152001501000000000000
B0601533241947S11702584EA0151201493000000000000
B0601573242023S11702607EA0150601489000000000000
B0602013242099S11702632EA0150001481000000000000
B0602053242174S11702659EA0149501475000000000000
B0602093242250S11702688EA0149401474000000000000
B0602133242324S11702715EA0149201473000000000000
B0602173242398S11702742EA0149001472000000000000
B0602213242471S11702767EA0148701467000000000000
B0602253242543S11702795EA0148201461000000000000
B0602293242616S11702823EA0147401454000000000000
B0602333242690S11702849EA0147301457000000000000
B0602373242764S11702875EA0147301452000000000000
B0602413242839S11702901EA0146501445000000000000
B0602453242917S11702925EA0146001441000000000000
B0602493242993S11702953EA0146301448000000000000
B0602533243057S11703001EA0146501445000000000000
B0602573243122S11703055EA0146001441000000000000
B0603013243184S11703109EA0146201443000000000000
B0603053243243S11703162EA0145901436000000000000
B0603093243309S11703208EA0145101431000000000000
B0603133243379S11703245EA0144801421000000000000
B0603173243455S11703278EA0143401408000000000000
B0603213243530S11703305EA0142801406000000000000
B0603253243607S11703330EA0142101394000000000000
B0603293243686S11703353EA0141001386000000000000
B0603333243765S11703374EA0140501381000000000000
B0603373243846S11703397EA0139801370000000000000
B0603413243929S11703417EA0138501356000000000000
B0603453244012S11703434EA0137701350000000000000
B0603493244093S11703451EA0137201345000000000000
B0603533244175S11703468EA0136501338000000000000
B0603573244254S11703486EA0135901332000000000000
B0604013244334S11703503EA0135701330000000000000
B0604053244412S11703518EA0135301324000000000000
B0604093244490S11703535EA0134401313000000000000
B0604133244569S11703555EA0133501304000000000000
B0604173244646S11703575EA0132501292000000000000
B0604213244722S11703595EA0131501283000000000000
B0604253244798S11703613EA0130601272000000000000
B0604293244873S11703631EA0129401259000000000000
B0604333244948S11703648EA0128801257000000000000
B0604373245023S11703663EA0128301250000000000000
B0604413245101S11703679EA0127201234000000000000
B0604453245181S11703700EA0125901222000000000000
B0604493245262S11703720EA0125101216000000000000
B0604533245337S11703747EA0125401225000000000000
B0604573245394S11703795EA0126801243000000000000
B0605013245442S11703851EA0128101251000000000000
B0605053245505S11703856EA0128301250000000000000
B0605093245531S11703791EA0127901244000000000000
B0605133245494S11703728EA0126401229000000000000
B0605173245429S11703711EA0125901233000000000000
B0605213245364S11703725EA0126801241000000000000
B0605253245344S11703780EA0129101273000000000000
B0605293245393S11703795EA0130801281000000000000
B0605333245420S11703726EA0130701277000000000000
B0605373245368S11703691EA0130301274000000000000
B0605413245344S11703748EA0131601294000000000000
B0605453245394S11703774EA0133401311000000000000
B0605493245429S11703709EA0134001314000000015000
B0605533245398S11703640EA0134101322000000000000
B0605573245344S11703625EA0135601338000000000000
B0606013245311S11703668EA0136401337000000000000
B0606053245332S11703726EA0136801347000000000000
B0606093245390S11703725EA0138001359000000000000
B0606133245418S11703652EA0138201357000000000000
B0606173245381S11703588EA0138801370000000000000
B0606213245331S11703598EA0140101382000000000000
B0606253245320S11703648EA0141001391000000000000
B0606293245363S11703682EA0141701396000000000000
B0606333245415S11703639EA0142001400000000000000
B0606373245410S11703560EA0142301405000000000000
B0606413245357S11703540EA0143201415000000000000
B0606453245329S11703587EA0143701421000000000000
B0606493245357S11703633EA0144601435000000000000
B0606533245411S11703624EA0145701438000000000000
B0606573245448S11703559EA0145601441000000000000
B0607013245435S11703486EA0146101445000000000000
B0607053245381S11703451EA0146401447000000000000
B0607093245331S11703471EA0146301443000000000000
B0607133245312S11703526EA0146101442000000000000
B0607173245324S11703586EA0146501450000000000000
B0607213245350S11703637EA0147501460000000000000
B0607253245407S11703633EA0147501455000000000000
B0607293245445S11703568EA0147101450000000000000
B0607333245439S11703484EA0146601452000000000000
B0607373245415S11703409EA0147001455000000000000
B0607413245359S11703388EA0147001451000000000000
B0607453245323S11703431EA0146301441000000000000
B0607493245338S11703492EA0146001441000000000000
B0607533245388S11703538EA0145601437000000000000
B0607573245452S11703569EA0145201431000000000000
B0608013245524S11703591EA0144501424000000000000
B0608053245604S11703607EA0143801415000000000000
B0608093245684S11703624EA0142701400000000000000
B0608133245766S11703643EA0141201387000000000000
B0608173245851S11703663EA0140701385000000000000
B0608213245933S11703677EA0141201396000000000000
B0608253246012S11703695EA0141701395000000000000
B0608293246089S11703718EA0141101388000000000000
B0608333246165S11703739EA0140901388000000000000
B0608373246243S11703756EA0141001388000000000000
B0608413246325S11703774EA0140801379000000000000
B0608453246411S11703789EA0139001356000000000000
B0608493246501S11703806EA0137301342000000000000
B0608533246589S11703821EA0136001331000000000000
B0608573246676S11703839EA0135001318000000000000
B0609013246762S11703858EA0133501303000000000000
B0609053246845S11703874EA0132801299000000000000
B0609093246927S11703889EA0131901289000000000000
B0609133247009S11703904EA0131501284000000000000
B0609173247087S11703921EA0130901278000000000000
B0609213247164S11703939EA0130401272000000000000
B0609253247240S11703959EA0129501260000000000000
B0609293247320S11703978EA0128001244000000000000
B0609333247402S11703999EA0126701230000000000000
B0609373247485S11704021EA0125601221000000000000
B0609413247568S11704043EA0125001216000000000000
B0609453247650S11704064EA0124701215000000000000
B0609493247729S11704086EA0124101202000000000000
B0609533247811S11704107EA0122601189000000000000
B0609573247893S11704128EA0121601178000000000000
B0610013247975S11704144EA0120901174000000000000
B0610053248053S11704159EA0120901176000000000000
B0610093248130S11704175EA0121301180000000000000
B0610133248197S11704210EA0122601196000000000000
B0610173248243S11704267EA0124701220000000000000
B0610213248291S11704303EA0126301231000000000000
B0610253248339S11704253EA0126401230000000000000
B0610293248318S11704180EA0126501239000000000000
B0610333248258S11704158EA0127401249000000000000
B0610373248218S11704196EA0129201275000000000000
B0610413248239S11704240EA0131101285000000000000
B0610453248295S11704222EA0131201284000000015000
B0610493248313S11704145EA0131201289000000015000
B0610533248267S11704097EA0132601306000000015000
B0610573248218S11704118EA0133801315000000015000
B0611013248213S11704176EA0134601326000000000000
B0611053248257S11704210EA0135701333000000000000
B0611093248310S11704180EA0136201336000000015000
B0611133248317S11704103EA0136301341000000015000
B0611173248267S11704071EA0137601360000000015000
B0611213248231S11704110EA0138801366000000015000
B0611253248254S11704164EA0139501377000000015000
B0611293248312S11704162EA0141001391000000015000
B0611333248344S11704102EA0141601397000000015000
B0611373248319S11704041EA0142501408000000015000
B0611413248273S11704043EA0143601417000000015000
B0611453248262S11704098EA0144101421000000015000
B0611493248308S11704131EA0145301437000000015000
B0611533248354S11704092EA0146401440000000015000
B0611573248351S11704019EA0146401447000000015000
B0612013248306S11703982EA0147401459000000015000
B0612053248270S11704016EA0148201465000000015000
B0612093248289S11704075EA0148901471000000015000
B0612133248344S11704081EA0149901488000000015000
B0612173248382S11704030EA0150801492000000015000
B0612213248378S11703959EA0150901496000000015000
B0612253248332S11703919EA0151901510000000015000
B0612293248289S11703946EA0152801516000000000000
B0612333248300S11704003EA0153301523000000015000
B0612373248357S11704021EA0154801541000000015000
B0612413248400S11703972EA0155801545000000015000
B0612453248386S11703900EA0155901552000000015000
B0612493248335S11703876EA0157201569000000015000
B0612533248299S11703911EA0158401572000000015000
B0612573248313S11703968EA0158601579000000000000
B0613013248369S11703972EA0159401587000000015000
B0613053248392S11703907EA0160301593000000015000
B0613093248357S11703852EA0160801598000000015000
B0613133248305S11703859EA0161601610000000015000
B0613173248288S11703911EA0162401616000000015000
B0613213248325S11703952EA0163701632000000015000
B0613253248382S11703941EA0164401638000000015000
B0613293248406S11703874EA0164901643000000015000
B0613333248373S11703819EA0165701656000000015000
B0613373248325S11703822EA0166601661000000000000
B0613413248305S11703876EA0166701661000000000000
B0613453248336S11703929EA0167401674000000015000
B0613493248397S11703934EA0168901689000000015000
B0613533248432S11703876EA0169901696000000015000
B0613573248404S11703815EA0170401701000000015000
B0614013248351S11703812EA0171001710000000015000
B0614053248327S11703867EA0171301712000000015000
B0614093248349S11703926EA0172001726000000015000
B0614133248409S11703934EA0173101730000000015000
B0614173248457S11703881EA0173201729000000015000
B0614213248458S11703803EA0173301735000000015000
B0614253248416S11703751EA0174101743000000015000
B0614293248361S11703752EA0175001753000000000000
B0614333248336S11703806EA0176001762000000000000
B0614373248362S11703860EA0176501773000000000000
B0614413248421S11703865EA0177501781000000015000
B0614453248468S11703817EA0178401793000000015000
B0614493248471S11703746EA0179201796000000015000
B0614533248430S11703696EA0179401801000000015000
B0614573248379S11703709EA0180001806000000000000
B0615013248367S11703767EA0180401811000000000000
B0615053248403S11703820EA0181001817000000000000
B0615093248465S11703813EA0182101831000000015000
B0615133248483S11703744EA0183201841000000015000
B0615173248439S11703699EA0183601844000000015000
B0615213248392S11703720EA0184601857000000000000
B0615253248388S11703774EA0185601863000000000000
B0615293248436S11703813EA0185901867000000000000
B0615333248501S11703796EA0186601878000000000000
B0615373248538S11703735EA0187201877000000000000
B0615413248525S11703663EA0186801873000000000000
B0615453248473S11703637EA0187101879000000000000
B0615493248435S11703674EA0187501884000000000000
B0615533248438S11703735EA0187901889000000000000
B0615573248468S11703793EA0188601900000000000000
B0616013248516S11703834EA0189701905000000000000
B0616053248579S11703841EA0188601886000000000000
B0616093248652S11703845EA0186501865000000000000
B0616133248731S11703855EA0185101850000000000000
B0616173248815S11703872EA0184101844000000000000
B0616213248899S11703890EA0184101846000000000000
B0616253248981S11703908EA0184301842000000000000
B0616293249067S11703925EA0182701820000000000000
B0616333249158S11703946EA0181301820000000000000
B0616373249248S11703968EA0182301831000000000000
B0616413249335S11703988EA0183501845000000000000
B0616453249415S11704004EA0184601851000000000000
B0616493249496S11704023EA0183901835000000000000
B0616533249583S11704040EA0182801833000000000000
B0616573249669S11704055EA0184001850000000000000
B0617013249751S11704072EA0185501863000000000000
B0617053249823S11704058EA0186901880000000000000
B0617093249833S11703985EA0188001885000000000000
B0617133249781S11703952EA0188001884000000000000
B0617173249731S11703990EA0188101890000000000000
B0617213249727S11704063EA0189101904000000000000
B0617253249755S11704132EA0190101908000000000000
B0617293249808S11704184EA0189901901000000000000
B0617333249878S11704216EA0188401882000000000000
B0617373249960S11704235EA0186401860000000000000
B0617413250047S11704246EA0184801845000000000000
B0617453250138S11704255EA0183701837000000000000
B0617493250229S11704266EA0183401834000000000000
B0617533250320S11704277EA0182301821000000000000
B0617573250411S11704292EA0181301812000000000000
B0618013250503S11704307EA0179701794000000000000
B0618053250598S11704328EA0178601784000000000000
B0618093250693S11704350EA0177901772000000000000
B0618133250788S11704372EA0176701762000000000000
B0618173250884S11704394EA0175701753000000000000
B0618213250979S11704418EA0174601740000000000000
B0618253251074S11704439EA0174001735000000000000
B0618293251168S11704458EA0173401730000000000000
B0618333251261S11704478EA0173001727000000000000
B0618373251355S11704493EA0172801726000000000000
B0618413251447S11704509EA0172401719000000000000
B0618453251538S11704524EA0171901716000000000000
B0618493251629S11704539EA0171401707000000000000
B0618533251719S11704549EA0170601700000000000000
B0618573251809S11704560EA0170101694000000000000
B0619013251897S11704569EA0169601690000000000000
B0619053251985S11704578EA0169301686000000000000
B0619093252075S11704586EA0168701676000000000000
B0619133252165S11704595EA0167801668000000000000
B0619173252253S11704605EA0166901662000000000000
B0619213252339S11704613EA0166301654000000000000
B0619253252423S11704622EA0165501642000000000000
B0619293252509S11704630EA0164701637000000000000
B0619333252594S11704641EA0164401635000000000000
B0619373252677S11704654EA0164201633000000000000
B0619413252760S11704671EA0164201633000000000000
B0619453252841S11704690EA0164401637000000000000
B0619493252920S11704708EA0164501638000000000000
B0619533252998S11704721EA0165001644000000000000
B0619573253073S11704730EA0165601648000000000000
B0620013253148S11704736EA0165501645000000000000
B0620053253223S11704740EA0163901626000000000000
B0620093253301S11704749EA0162001607000000000000
B0620133253382S11704760EA0160501591000000000000
B0620173253465S11704771EA0159201579000000000000
B0620213253545S11704779EA0159101580000000000000
B0620253253626S11704786EA0158801576000000000000
B0620293253705S11704796EA0159101582000000000000
B0620333253777S11704817EA0159501588000000000000
B0620373253847S11704839EA0159801591000000000000
B0620413253915S11704860EA0160701600000000000000
B0620453253981S11704882EA0161801610000000000000
B0620493254045S11704877EA0162501620000000000000
B0620533254073S11704812EA0163901633000000000000
B0620573254034S11704761EA0164201633000000000000
B0621013253978S11704782EA0164301637000000000000
B0621053253956S11704839EA0164901647000000000000
B0621093253986S11704890EA0165801650000000000000
B0621133254050S11704894EA0165101642000000000000
B0621173254115S11704861EA0164801644000000000000
B0621213254177S11704826EA0164901642000000000000
B0621253254247S11704804EA0164001630000000000000
B0621293254325S11704801EA0162701615000000000000
B0621333254406S11704809EA0161001598000000000000
B0621373254490S11704822EA0159901582000000000000
B0621413254574S11704846EA0158701571000000000000
B0621453254657S11704870EA0157801563000000000000
B0621493254740S11704898EA0157301559000000000000
B0621533254819S11704924EA0157001559000000000000
B0621573254900S11704947EA0156601552000000000000
B0622013254979S11704972EA0156101546000000000000
B0622053255057S11704995EA0155201538000000000000
B0622093255135S11705018EA0154801531000000000000
B0622133255212S11705037EA0154301526000000000000
B0622173255287S11705050EA0153701519000000000000
B0622213255361S11705059EA0152701510000000000000
B0622253255436S11705067EA0151801499000000000000
B0622293255508S11705074EA0151001492000000000000
B0622333255581S11705081EA0151201500000000000000
B0622373255649S11705086EA0152801517000000000000
B0622413255710S11705093EA0153801531000000000000
B0622453255764S11705063EA0155701551000000000000
B0622493255754S11704991EA0157201565000000000000
B0622533255699S11704990EA0158401577000000000000
B0622573255689S11705050EA0159501588000000000000
B0623013255736S11705086EA0160401601000000000000
B0623053255788S11705048EA0162201624000000015000
B0623093255794S11704974EA0164001637000000015000
B0623133255753S11704922EA0165001647000000015000
B0623173255699S11704927EA0166301662000000000000
B0623213255680S11704979EA0167801674000000000000
B0623253255705S11705033EA0168801685000000000000
B0623293255758S11705038EA0170301707000000015000
B0623333255792S11704981EA0171601720000000015000
B0623373255771S11704914EA0172901734000000015000
B0623413255720S11704890EA0174201742000000015000
B0623453255668S11704911EA0174901751000000000000
B0623493255641S11704965EA0175501751000000000000
B0623533255655S11705029EA0175201751000000000000
B0623573255701S11705077EA0175501759000000000000
B0624013255754S11705109EA0177101778000000000000
B0624053255801S11705070EA0178601786000000000000
B0624093255783S11705003EA0178201781000000000000
B0624133255725S11704985EA0179601806000000000000
B0624173255680S11705009EA0181501822000000000000
B0624213255664S11705067EA0182301825000000000000
B0624253255696S11705116EA0182901836000000000000
B0624293255751S11705103EA0183601838000000015000
B0624333255788S11705039EA0183401835000000015000
B0624373255772S11704964EA0183801844000000015000
B0624413255722S11704930EA0185101860000000000000
B0624453255681S11704960EA0186301869000000000000
B0624493255692S11705022EA0186701872000000000000
B0624533255748S11705037EA0187701886000000000000
B0624573255796S11704987EA0188301890000000015000
B0625013255792S11704909EA0188501895000000015000
B0625053255742S11704864EA0189601910000000015000
B0625093255692S11704875EA0191001920000000015000
B0625133255675S11704935EA0191401919000000000000
B0625173255707S11704987EA0192201933000000015000
B0625213255764S11704964EA0192801936000000015000
B0625253255781S11704883EA0193501949000000015000
B0625293255744S11704826EA0194901961000000015000
B0625333255694S11704852EA0195601965000000000000
B0625373255697S11704917EA0195901969000000000000
B0625413255754S11704940EA0196801981000000015000
B0625453255809S11704894EA0197301984000000015000
B0625493255814S11704813EA0198202004000000015000
B0625533255772S11704762EA0199802013000000015000
B0625573255723S11704783EA0200102009000000000000
B0626013255718S11704855EA0199702009000000000000
B0626053255763S11704903EA0200702025000000015000
B0626093255826S11704885EA0201802032000000015000
B0626133255862S11704814EA0202202035000000015000
B0626173255845S11704736EA0202602041000000015000
B0626213255789S11704703EA0203202046000000000000
B0626253255744S11704735EA0203402047000000000000
B0626293255740S11704801EA0203502046000000000000
B0626333255761S11704874EA0202902045000000000000
B0626373255813S11704914EA0203902060000000000000
B0626413255870S11704882EA0204302052000000000000
B0626453255876S11704800EA0203602050000000000000
B0626493255829S11704749EA0204102060000000000000
B0626533255770S11704739EA0204302056000000000000
B0626573255703S11704739EA0203602046000000000000
B0627013255631S11704742EA0202702037000000000000
B0627053255554S11704745EA0201602027000000000000
B0627093255475S11704752EA0200702017000000000000
B0627133255394S11704758EA0199802009000000000000
B0627173255311S11704761EA0199302001000000000000
B0627213255226S11704765EA0198501994000000000000
B0627253255142S11704769EA0198001990000000000000
B0627293255056S11704771EA0197601987000000000000
B0627333254971S11704774EA0197501985000000000000
B0627373254890S11704778EA0197601988000000000000
B0627413254812S11704782EA0198001992000000000000
B0627453254736S11704787EA0198301993000000000000
B0627493254662S11704791EA0198301995000000000000
B0627533254589S11704794EA0198701998000000000000
B0627573254516S11704795EA0198701995000000000000
B0628013254444S11704794EA0198201989000000000000
B0628053254371S11704792EA0197401980000000000000
B0628093254298S11704787EA0196501968000000000000
B0628133254224S11704782EA0195301958000000000000
B0628173254150S11704779EA0194201943000000000000
B0628213254073S11704784EA0193501941000000000000
B0628253253998S11704788EA0193601947000000000000
B0628293253924S11704790EA0194701959000000000000
B0628333253852S11704790EA0196101975000000000000
B0628373253792S11704751EA0197601992000000000000
B0628413253799S11704677EA0199402009000000000000
B0628453253856S11704662EA0200702018000000000000
B0628493253892S11704719EA0201102028000000000000
B0628533253870S11704784EA0202102040000000000000
B0628573253816S11704809EA0203402050000000000000
B0629013253762S11704773EA0203602052000000000000
B0629053253749S11704700EA0204202063000000000000
B0629093253787S11704640EA0204602066000000000000
B0629133253848S11704643EA0205402073000000000000
B0629173253879S11704703EA0206202081000000000000
B0629213253857S11704765EA0206902089000000000000
B0629253253801S11704779EA0207602102000000000000
B0629293253762S11704729EA0208902110000000000000
B0629333253779S11704660EA0209302111000000000000
B0629373253842S11704640EA0209202111000000000000
B0629413253899S11704677EA0209302113000000000000
B0629453253930S11704744EA0209402115000000000000
B0629493253931S11704821EA0209202107000000000000
B0629533253885S11704879EA0207702089000000000000
B0629573253816S11704908EA0206002070000000000000
B0630013253738S11704917EA0204402055000000000000
B0630053253655S11704921EA0203202041000000000000
B0630093253570S11704924EA0201902029000000000000
B0630133253483S11704926EA0201802033000000000000
B0630173253396S11704926EA0202102036000000000000
B0630213253311S11704933EA0201802025000000000000
B0630253253226S11704939EA0200602012000000000000
B0630293253136S11704943EA0199602003000000000000
B0630333253049S11704948EA0199001999000000000000
B0630373252962S11704955EA0198201988000000000000
B0630413252873S11704960EA0197801987000000000000
B0630453252785S11704966EA0197301980000000000000
B0630493252698S11704970EA0196901975000000000000
B0630533252613S11704966EA0196601972000000000000
B0630573252529S11704948EA0196401971000000000000
B0631013252448S11704925EA0196801982000000000000
B0631053252375S11704900EA0198401999000000000000
B0631093252303S11704878EA0198801991000000000000
B0631133252225S11704857EA0198802000000000000000
B0631173252147S11704849EA0200402019000000000000
B0631213252108S11704905EA0202702043000000000000
B0631253252147S11704948EA0204602063000000000000
B0631293252196S11704914EA0206102081000000000000
B0631333252201S11704843EA0208102104000000000000
B0631373252154S11704792EA0209502113000000000000
B0631413252095S11704804EA0209802112000000000000
B0631453252084S11704864EA0210502124000000000000
B0631493252135S11704882EA0211302134000000000000
B0631533252167S11704820EA0212602154000000000000
B0631573252139S11704756EA0214302170000000015000
B0632013252079S11704739EA0214902163000000000000
B0632053252036S11704784EA0214502163000000000000
B0632093252035S11704855EA0214202160000000000000
B0632133252069S11704913EA0214702173000000000000
B0632173252119S11704898EA0216202189000000015000
B0632213252135S11704829EA0216802193000000000000
B0632253252093S11704770EA0218202210000000000000
B0632293252032S11704775EA0218902211000000000000
B0632333252014S11704839EA0218802211000000000000
B0632373252056S11704886EA0218902215000000000000
B0632413252110S11704861EA0219402222000000000000
B0632453252127S11704786EA0220102239000000000000
B0632493252097S11704718EA0221702251000000000000
B0632533252039S11704695EA0222702256000000000000
B0632573251987S11704726EA0222502248000000000000
B0633013251985S11704792EA0222302248000000000000
B0633053252039S11704823EA0222002246000000000000
B0633093252097S11704790EA0222302255000000000000
B0633133252119S11704714EA0223702272000000000000
B0633173252102S11704638EA0224602278000000000000
B0633213252050S11704584EA0224602272000000000000
B0633253251980S11704561EA0223102255000000000000
B0633293251903S11704548EA0222102246000000000000
B0633333251823S11704541EA0221002229000000000000
B0633373251738S11704535EA0219602212000000000000
