ACAM4N6
HFDTE210118
HFFXA050
HFPLTPILOT:JOHN WELSH              
HFGTYGLIDERTYPE:HORNET      
HFGIDGLIDERID:VH-GMY      
HFDTM100GPSDATUM:
HFRFWFIRMWAREVERSION:F2.6
HFRHWHARDWAREVERSION:300 Series Version 2
HFFTYFRTYPE:CAMBRIDGE AERO INSTRUMENTS, 302+
HFGPS:GARMIN,LVS-25,12,18000
HFPRSPRESSALTSENSOR:INTERSEMA, MS5534-AP, 20000
I033638FXA3941ENL4247REX
LCAMSBVER:5FWVER:F26300
C210118045320210118000103
C0000000N00000000WTAKEOFF     
C3207549S11656849EBEVAIR      
C3138766S11714465ECUNSIL      
C3256166S11710665ENARSIL      
C3255533S11704932ENARAIR      
C3207549S11656849EBEVAIR      
C0000000N00000000WLANDING     
B0500443207337S11656858EA0025100212000000000000
B0500463207337S11656858EA0025100212000000000000
B0500483207337S11656858EA0025100212000000000000
B0500503207337S11656858EA0025000212000000000000
B0500523207337S11656858EA0025000212000000000000
B0500543207337S11656858EA0025000212000000000000
B0500563207337S11656858EA0025000212000000000000
B0500583207337S11656858EA0025000212000000000000
B0501003207337S11656858EA0025000212000000000000
B0501023207337S11656858EA0025000212000000000000
B0501043207337S11656858EA0025000212000000000000
B0501063207337S11656858EA0025000212000000000000
B0501083207337S11656858EA0025000212000000000000
B0501103207338S11656860EA0025100212000000000000
B0501123207339S11656861EA0025100211000000000000
B0501153207351S11656869EA0025200211000000000000
B0501193207380S11656891EA0025100210000000000000
B0501233207423S11656921EA0025200210000000000000
B0501273207479S11656957EA0025500212000000000000
B0501313207545S11656996EA0026300217000000000000
B0501353207612S11657038EA0026900226000000000000
B0501393207677S11657087EA0027700235000000000000
B0501433207739S11657139EA0028800255000000000000
B0501473207801S11657195EA0029800265000000000000
B0501513207866S11657251EA0030500272000000000000
B0501553207932S11657303EA0031900293000000000000
B0501593208000S11657350EA0033800313000000000000
B0502033208062S11657393EA0036100339000000000000
B0502073208125S11657433EA0037700354000000000000
B0502113208186S11657476EA0039100365000000000000
B0502153208247S11657524EA0039900375000000000000
B0502193208304S11657576EA0041300392000000000000
B0502233208355S11657638EA0043100414000000000000
B0502273208400S11657709EA0044800422000000000000
B0502313208438S11657785EA0045300431000000000000
B0502353208463S11657866EA0047100457000000000000
B0502393208472S11657953EA0049400469000000000000
B0502433208472S11658047EA0049900473000000000000
B0502473208455S11658140EA0050700484000000000000
B0502513208412S11658223EA0052100499000000000000
B0502553208347S11658288EA0053800518000000000000
B0502593208268S11658333EA0055300532000000000000
B0503033208179S11658353EA0056500545000000000000
B0503073208090S11658356EA0057900559000000000000
B0503113208002S11658340EA0058900569000000000000
B0503153207924S11658300EA0059800579000000000000
B0503193207862S11658236EA0060600588000000000000
B0503233207820S11658151EA0062000606000000000000
B0503273207796S11658065EA0065600635000000030000
B0503313207783S11657976EA0066700648000000015000
B0503353207781S11657884EA0067200654000000015000
B0503393207794S11657794EA0068000665000000015000
B0503433207828S11657715EA0069500682000000015000
B0503473207872S11657642EA0070700691000000000000
B0503513207927S11657580EA0071300698000000000000
B0503553207988S11657530EA0072200708000000000000
B0503593208053S11657494EA0073600723000000000000
B0504033208119S11657460EA0074900736000000000000
B0504073208188S11657436EA0075700749000000000000
B0504113208259S11657420EA0076700762000000000000
B0504153208330S11657416EA0077900775000000000000
B0504193208404S11657413EA0078500776000000000000
B0504233208478S11657412EA0079100781000000000000
B0504273208548S11657424EA0080100796000000000000
B0504313208616S11657442EA0081800812000000000000
B0504353208686S11657467EA0083000825000000000000
B0504393208749S11657489EA0085500851000000000000
B0504433208797S11657462EA0087100868000000000000
B0504473208794S11657398EA0088100878000000000000
B0504513208738S11657372EA0088700883000000000000
B0504553208688S11657410EA0089100887000000000000
B0504593208681S11657476EA0089400889000000000000
B0505033208717S11657508EA0090200898000000000000
B0505073208754S11657471EA0090900906000000000000
B0505113208738S11657408EA0091200909000000000000
B0505153208680S11657380EA0091300913000000000000
B0505193208624S11657410EA0092100920000000000000
B0505233208604S11657469EA0092500921000000000000
B0505273208628S11657523EA0092500922000000000000
B0505313208672S11657527EA0093700938000000000000
B0505353208691S11657477EA0094600944000000000000
B0505393208662S11657417EA0094300941000000000000
B0505433208599S11657406EA0094500947000000000000
B0505473208558S11657455EA0095700957000000000000
B0505513208569S11657512EA0095900957000000000000
B0505553208613S11657523EA0096300964000000000000
B0505593208633S11657468EA0096700971000000000000
B0506033208589S11657421EA0097400974000000000000
B0506073208532S11657445EA0097600979000000000000
B0506113208516S11657506EA0098300985000000000000
B0506153208551S11657540EA0098000979000000000000
B0506193208589S11657503EA0098700987000000000000
B0506233208573S11657443EA0099000994000000000000
B0506273208517S11657413EA0099000993000000000000
B0506313208456S11657438EA0099701001000000000000
B0506353208420S11657494EA0099300991000000000000
B0506393208416S11657564EA0098800985000000000000
B0506433208431S11657629EA0099600996000000000000
B0506473208476S11657649EA0101101012000000000000
B0506513208507S11657607EA0102101017000000000000
B0506553208490S11657546EA0101901015000000000000
B0506593208433S11657514EA0102501023000000000000
B0507033208370S11657527EA0103201032000000000000
B0507073208326S11657579EA0103001029000000000000
B0507113208324S11657645EA0103701041000000000000
B0507153208365S11657672EA0104601045000000000000
B0507193208412S11657640EA0105101056000000000000
B0507233208413S11657577EA0106801073000000000000
B0507273208365S11657545EA0107801082000000000000
B0507313208308S11657573EA0108401089000000000000
B0507353208278S11657640EA0109001097000000000000
B0507393208300S11657698EA0110101110000000000000
B0507433208350S11657710EA0111001118000000000000
B0507473208390S11657670EA0111701127000000000000
B0507513208385S11657607EA0112601136000000000000
B0507553208333S11657579EA0113101144000000000000
B0507593208279S11657607EA0114101155000000000000
B0508033208259S11657670EA0115201168000000000000
B0508073208283S11657720EA0115801170000000000000
B0508113208338S11657727EA0116401174000000000000
B0508153208376S11657677EA0116701180000000000000
B0508193208364S11657615EA0117201184000000000000
B0508233208312S11657579EA0117001185000000000000
B0508273208249S11657590EA0117801194000000000000
B0508313208223S11657651EA0119001208000000000000
B0508353208262S11657694EA0119701215000000000000
B0508393208318S11657671EA0120501224000000000000
B0508433208330S11657606EA0121601237000000000000
B0508473208291S11657562EA0122001239000000000000
B0508513208229S11657579EA0122001241000000000000
B0508553208201S11657644EA0122901252000000000000
B0508593208230S11657703EA0124001262000000000000
B0509033208287S11657710EA0124201264000000000000
B0509073208325S11657658EA0124801269000000000000
B0509113208313S11657592EA0125301274000000000000
B0509153208259S11657560EA0125501278000000000000
B0509193208201S11657592EA0125501276000000000000
B0509233208175S11657658EA0125601277000000000000
B0509273208190S11657724EA0126301285000000000000
B0509313208233S11657766EA0126601286000000000000
B0509353208288S11657774EA0126301282000000000000
B0509393208340S11657742EA0126301286000000000000
B0509433208366S11657683EA0126901288000000000000
B0509473208356S11657615EA0127101291000000000000
B0509513208320S11657560EA0127101292000000000000
B0509553208262S11657545EA0127001294000000000000
B0509593208203S11657573EA0127001290000000000000
B0510033208157S11657625EA0127101294000000000000
B0510073208160S11657688EA0127501294000000000000
B0510113208212S11657714EA0127301293000000000000
B0510153208266S11657685EA0127301294000000000000
B0510193208287S11657619EA0127401296000000000000
B0510233208260S11657555EA0127901304000000000000
B0510273208204S11657527EA0128201304000000000000
B0510313208144S11657546EA0128301307000000000000
B0510353208109S11657605EA0128301305000000000000
B0510393208119S11657668EA0128301306000000000000
B0510433208155S11657722EA0128601309000000000000
B0510473208201S11657761EA0128501305000000000000
B0510513208259S11657766EA0127901302000000000000
B0510553208303S11657723EA0127801301000000000000
B0510593208325S11657659EA0128001301000000000000
B0511033208324S11657585EA0128101304000000000000
B0511073208303S11657512EA0128101305000000000000
B0511113208255S11657462EA0128101303000000000000
B0511153208190S11657455EA0127601293000000000000
B0511193208130S11657493EA0126301280000000000000
B0511233208092S11657556EA0125901278000000000000
B0511273208074S11657628EA0126101282000000000000
B0511313208067S11657701EA0126601288000000000000
B0511353208064S11657767EA0126901290000000000000
B0511393208065S11657832EA0126501284000000000000
B0511433208070S11657900EA0126201282000000000000
B0511473208079S11657965EA0126101282000000000000
B0511513208090S11658030EA0126201280000000000000
B0511553208104S11658091EA0126201281000000000000
B0511593208118S11658149EA0125701275000000000000
B0512033208130S11658210EA0125401269000000000000
B0512073208136S11658273EA0124601262000000000000
B0512113208134S11658336EA0123801254000000000000
B0512153208125S11658401EA0122901244000000000000
B0512193208109S11658468EA0121701230000000000000
B0512233208086S11658535EA0121301228000000000000
B0512273208064S11658600EA0121001221000000000000
B0512313208043S11658664EA0120001216000000000000
B0512353208022S11658726EA0119501207000000000000
B0512393208000S11658788EA0118701198000000000000
B0512433207976S11658847EA0117801190000000000000
B0512473207947S11658906EA0116901184000000000000
B0512513207913S11658966EA0116401178000000000000
B0512553207876S11659027EA0116201178000000000000
B0512593207841S11659085EA0116701184000000000000
B0513033207802S11659139EA0117401193000000000000
B0513073207755S11659184EA0117901197000000000000
B0513113207705S11659230EA0117701192000000000000
B0513153207657S11659280EA0117401190000000000000
B0513193207619S11659343EA0117301187000000000000
B0513233207594S11659412EA0116101172000000000000
B0513273207575S11659486EA0115001163000000000000
B0513313207557S11659558EA0114901162000000000000
B0513353207540S11659629EA0114701162000000000000
B0513393207525S11659701EA0114601156000000000000
B0513433207512S11659778EA0113801148000000000000
B0513473207508S11659856EA0113501145000000000000
B0513513207524S11659922EA0113801151000000000000
B0513553207551S11659978EA0113801148000000000000
B0513593207596S11700011EA0113201143000000000000
B0514033207650S11700004EA0113001142000000000000
B0514073207703S11659974EA0112601137000000000000
B0514113207750S11659938EA0112201131000000000000
B0514153207792S11659894EA0111501123000000000000
B0514193207827S11659841EA0110801117000000000000
B0514233207858S11659783EA0110101108000000000000
B0514273207888S11659724EA0109101099000000000000
B0514313207917S11659668EA0108901099000000000000
B0514353207947S11659614EA0108801097000000000000
B0514393207970S11659558EA0108201089000000000000
B0514433207988S11659496EA0107701083000000000000
B0514473207997S11659425EA0107501082000000000000
B0514513207997S11659348EA0107501087000000000000
B0514553208000S11659274EA0108601101000000000000
B0514593208043S11659240EA0109901114000000000000
B0515033208082S11659283EA0110701123000000000000
B0515073208073S11659348EA0111701134000000000000
B0515113208026S11659397EA0112101136000000000000
B0515153207958S11659406EA0112001134000000000000
B0515193207898S11659362EA0111801130000000000000
B0515233207853S11659295EA0112001135000000000000
B0515273207835S11659218EA0113101148000000000000
B0515313207875S11659179EA0114801166000000000000
B0515353207918S11659206EA0115801172000000000000
B0515393207928S11659272EA0116201180000000000000
B0515433207889S11659332EA0117401194000000000000
B0515473207826S11659358EA0118601207000000000000
B0515513207762S11659339EA0119701215000000000000
B0515553207723S11659282EA0120701226000000000000
B0515593207729S11659219EA0122201242000000000000
B0516033207770S11659181EA0122801245000000000000
B0516073207818S11659196EA0123001251000000000000
B0516113207836S11659252EA0124001263000000000000
B0516153207813S11659311EA0125001273000000000000
B0516193207755S11659343EA0125501276000000000000
B0516233207689S11659318EA0126201284000000000000
B0516273207646S11659259EA0127701300000000000000
B0516313207655S11659193EA0128901313000000000000
B0516353207701S11659175EA0129901320000000000000
B0516393207739S11659210EA0130601326000000000000
B0516433207740S11659272EA0131401340000000000000
B0516473207702S11659331EA0132401350000000000000
B0516513207636S11659358EA0133801364000000000000
B0516553207570S11659341EA0134901375000000000000
B0516593207533S11659283EA0136001388000000000000
B0517033207546S11659224EA0137301399000000000000
B0517073207589S11659196EA0137901405000000000000
B0517113207640S11659205EA0138101405000000000000
B0517153207676S11659257EA0139201423000000000000
B0517193207658S11659322EA0141801450000000000000
B0517233207605S11659356EA0143201468000000000000
B0517273207542S11659352EA0144101474000000000000
B0517313207492S11659308EA0145101488000000000000
B0517353207475S11659244EA0146201494000000000000
B0517393207494S11659184EA0146701501000000000000
B0517433207540S11659157EA0147501507000000000000
B0517473207589S11659171EA0147401507000000000000
B0517513207625S11659219EA0148301520000000000000
B0517553207633S11659284EA0149701539000000000000
B0517593207593S11659336EA0150901549000000000000
B0518033207532S11659347EA0152101561000000000000
B0518073207482S11659305EA0153701580000000000000
B0518113207475S11659241EA0154701584000000000000
B0518153207507S11659196EA0154801586000000000000
B0518193207557S11659188EA0155501594000000000000
B0518233207599S11659223EA0156801609000000000000
B0518273207611S11659287EA0157601617000000000000
B0518313207575S11659350EA0158101621000000000000
B0518353207511S11659376EA0158801631000000000000
B0518393207449S11659361EA0160101649000000000000
B0518433207420S11659301EA0161601662000000000000
B0518473207434S11659240EA0161901662000000000000
B0518513207481S11659206EA0162001662000000000000
B0518553207538S11659218EA0163001675000000000000
B0518593207583S11659265EA0164001686000000000000
B0519033207576S11659330EA0165601703000000000000
B0519073207533S11659373EA0166201705000000000000
B0519113207473S11659369EA0166501706000000000000
B0519153207428S11659321EA0167001717000000000000
B0519193207406S11659254EA0167501719000000000000
B0519233207411S11659185EA0167401717000000000000
B0519273207429S11659115EA0166601706000000000000
B0519313207456S11659046EA0165401694000000000000
B0519353207489S11658979EA0164201681000000000000
B0519393207531S11658912EA0163201669000000000000
B0519433207577S11658847EA0162101659000000000000
B0519473207622S11658778EA0161101648000000000000
B0519513207663S11658710EA0160501644000000000000
B0519553207703S11658641EA0160501645000000000000
B0519593207737S11658572EA0160201641000000000000
B0520033207767S11658500EA0159501633000000000000
B0520073207797S11658430EA0159201633000000000000
B0520113207827S11658364EA0159101634000000000000
B0520153207854S11658297EA0159001632000000000000
B0520193207878S11658232EA0159001630000000000000
B0520233207896S11658166EA0158301622000000000000
B0520273207910S11658099EA0158101623000000000000
B0520313207921S11658031EA0158001619000000000000
B0520353207930S11657962EA0157201612000000000000
B0520393207940S11657894EA0156701606000000000000
B0520433207953S11657826EA0156101600000000000000
B0520473207966S11657758EA0155701595000000000000
B0520513207980S11657690EA0154901587000000000000
B0520553208001S11657621EA0153901575000000000000
B0520593208018S11657549EA0152901563000000000000
B0521033208018S11657469EA0152201558000000000000
B0521073208009S11657393EA0151801554000000000000
B0521113207997S11657319EA0151701552000000000000
B0521153207980S11657248EA0151201548000000000000
B0521193207966S11657178EA0150801539000000000000
B0521233207945S11657108EA0149801530000000000000
B0521273207911S11657040EA0148701518000000000000
B0521313207854S11656991EA0148001510000000000000
B0521353207787S11656971EA0147601508000000000000
B0521393207716S11656965EA0147201502000000000000
B0521433207644S11656964EA0146301491000000000000
B0521473207570S11656966EA0145301484000000000000
B0521513207495S11656974EA0144901477000000000000
B0521553207421S11656988EA0144101468000000000000
B0521593207349S11657009EA0143501464000000000000
B0522033207277S11657033EA0142901457000000000000
B0522073207206S11657057EA0142001447000000000000
B0522113207133S11657087EA0141001434000000000000
B0522153207061S11657124EA0140001419000000000000
B0522193206991S11657166EA0138501403000000000000
B0522233206922S11657215EA0137101388000000000000
B0522273206852S11657257EA0136801390000000000000
B0522313206780S11657294EA0136701388000000000000
B0522353206705S11657326EA0136001379000000000000
B0522393206626S11657355EA0135201373000000000000
B0522433206549S11657382EA0135001370000000000000
B0522473206471S11657412EA0134501359000000000000
B0522513206396S11657446EA0133501347000000000000
B0522553206320S11657486EA0132101332000000000000
B0522593206246S11657532EA0130801322000000000000
B0523033206172S11657577EA0129701311000000000000
B0523073206099S11657624EA0128801303000000000000
B0523113206029S11657671EA0128201294000000000000
B0523153205959S11657718EA0127101276000000000000
B0523193205886S11657768EA0125301264000000000000
B0523233205815S11657822EA0125001263000000000000
B0523273205746S11657872EA0124901257000000000000
B0523313205682S11657930EA0124301255000000000000
B0523353205625S11657988EA0124101254000000000000
B0523393205569S11658049EA0124001252000000000000
B0523433205516S11658115EA0123401249000000000000
B0523473205462S11658184EA0123401250000000000000
B0523513205408S11658252EA0124001257000000000000
B0523553205354S11658317EA0123901251000000000000
B0523593205301S11658388EA0122901242000000000000
B0524033205249S11658464EA0122201232000000000000
B0524073205202S11658544EA0121301225000000000000
B0524113205155S11658626EA0120901222000000000000
B0524153205110S11658706EA0121001228000000000000
B0524193205064S11658786EA0121101225000000000000
B0524233205019S11658867EA0120701219000000000000
B0524273204975S11658949EA0120401220000000000000
B0524313204934S11659028EA0121201235000000000000
B0524353204897S11659098EA0123301257000000000000
B0524393204860S11659166EA0123301249000000000000
B0524433204827S11659240EA0121901236000000000000
B0524473204793S11659317EA0120901227000000000000
B0524513204758S11659395EA0119901214000000000000
B0524553204724S11659475EA0119001208000000000000
B0524593204691S11659556EA0118401197000000000000
B0525033204661S11659638EA0117301187000000000000
B0525073204632S11659718EA0116901187000000000000
B0525113204602S11659794EA0117101185000000000000
B0525153204574S11659868EA0117101186000000000000
B0525193204546S11659939EA0116301172000000000000
B0525233204517S11700012EA0114801158000000000000
B0525273204490S11700086EA0114001152000000000000
B0525313204463S11700159EA0113101142000000000000
B0525353204433S11700236EA0112001129000000000000
B0525393204399S11700315EA0111601129000000000000
B0525433204366S11700389EA0112101133000000000000
B0525473204336S11700462EA0112701141000000000000
B0525513204331S11700527EA0114301158000000000000
B0525553204374S11700540EA0115101166000000000000
B0525593204399S11700487EA0115501169000000000000
B0526033204361S11700426EA0116001178000000000000
B0526073204295S11700415EA0116701185000000000000
B0526113204240S11700457EA0117201193000000000000
B0526153204226S11700514EA0118601208000000000000
B0526193204252S11700552EA0119501211000000000000
B0526233204294S11700531EA0119501212000000000000
B0526273204301S11700466EA0120201220000000000000
B0526313204256S11700414EA0120601227000000000000
B0526353204191S11700411EA0120901229000000000000
B0526393204134S11700453EA0121501236000000000000
B0526433204099S11700507EA0122501247000000000000
B0526473204106S11700562EA0123201253000000000000
B0526513204148S11700543EA0123401250000000000000
B0526553204128S11700468EA0123801261000000000000
B0526593204062S11700448EA0125001275000000000000
B0527033204013S11700491EA0126001283000000000000
B0527073204017S11700548EA0126501286000000000000
B0527113204061S11700561EA0126801292000000000000
B0527153204093S11700513EA0128001307000000000000
B0527193204071S11700445EA0129101316000000000000
B0527233204006S11700418EA0129801324000000000000
B0527273203948S11700450EA0130601331000000000000
B0527313203939S11700511EA0130801332000000000000
B0527353203972S11700549EA0131601343000000000000
B0527393204021S11700537EA0132101347000000000000
B0527433204040S11700476EA0133301364000000000000
B0527473204005S11700413EA0134501374000000000000
B0527513203937S11700400EA0134901379000000000000
B0527553203881S11700445EA0135401381000000000000
B0527593203876S11700509EA0136101390000000000000
B0528033203913S11700543EA0137001402000000000000
B0528073203957S11700518EA0138201410000000000000
B0528113203963S11700449EA0139001419000000000000
B0528153203917S11700392EA0139601427000000000000
B0528193203848S11700385EA0140401437000000000000
B0528233203800S11700428EA0140801439000000000000
B0528273203800S11700485EA0141401447000000000000
B0528313203840S11700509EA0141901450000000000000
B0528353203883S11700474EA0142701460000000000000
B0528393203885S11700403EA0143401469000000000000
B0528433203840S11700349EA0144301477000000000000
B0528473203772S11700342EA0144801482000000000000
B0528513203722S11700380EA0145201487000000000000
B0528553203707S11700436EA0145801491000000000000
B0528593203723S11700487EA0145801490000000000000
B0529033203757S11700531EA0145601486000000000000
B0529073203798S11700572EA0145501490000000000000
B0529113203842S11700613EA0145901493000000000000
B0529153203888S11700654EA0145601487000000000000
B0529193203937S11700695EA0145001484000000000000
B0529233203985S11700734EA0145301487000000000000
B0529273204040S11700751EA0145801489000000000000
B0529313204086S11700721EA0145801490000000000000
B0529353204086S11700654EA0145701487000000000000
B0529393204032S11700604EA0144901479000000000000
B0529433203958S11700598EA0144401475000000000000
B0529473203880S11700611EA0144401478000000000000
B0529513203802S11700628EA0144701478000000000000
B0529553203723S11700639EA0143901467000000000000
B0529593203646S11700653EA0143601466000000000000
B0530033203567S11700666EA0143101462000000000000
B0530073203486S11700679EA0142401455000000000000
B0530113203404S11700704EA0142001450000000000000
B0530153203322S11700735EA0141901452000000000000
B0530193203244S11700771EA0143301468000000000000
B0530233203166S11700810EA0144001473000000000000
B0530273203085S11700855EA0144401476000000000000
B0530313203003S11700903EA0144801477000000000000
B0530353202919S11700951EA0144701477000000000000
B0530393202836S11700998EA0144701479000000000000
B0530433202754S11701043EA0144301472000000000000
B0530473202671S11701083EA0143501461000000000000
B0530513202585S11701126EA0142401455000000000000
B0530553202507S11701169EA0143101466000000000000
B0530593202432S11701209EA0143601468000000000000
B0531033202358S11701248EA0143701470000000000000
B0531073202282S11701285EA0143801467000000000000
B0531113202204S11701321EA0142901454000000000000
B0531153202125S11701360EA0141501442000000000000
B0531193202045S11701401EA0140701433000000000000
B0531233201964S11701441EA0139601419000000000000
B0531273201885S11701485EA0139101414000000000000
B0531313201807S11701532EA0138801408000000000000
B0531353201726S11701573EA0138301409000000000000
B0531393201651S11701614EA0139201420000000000000
B0531433201575S11701651EA0139701423000000000000
B0531473201500S11701694EA0140101425000000000000
B0531513201426S11701740EA0139801419000000000000
B0531553201349S11701784EA0139501421000000000000
B0531593201276S11701831EA0140401432000000000000
B0532033201205S11701876EA0140801437000000000000
B0532073201136S11701927EA0141001432000000000000
B0532113201064S11701979EA0140201421000000000000
B0532153200992S11702031EA0139401416000000000000
B0532193200923S11702083EA0139401416000000000000
B0532233200856S11702135EA0138901412000000000000
B0532273200789S11702184EA0138401404000000000000
B0532313200721S11702233EA0137801397000000000000
B0532353200654S11702279EA0136901389000000000000
B0532393200583S11702326EA0136101379000000000000
B0532433200509S11702370EA0135101365000000000000
B0532473200430S11702405EA0133901354000000000000
B0532513200353S11702435EA0133801355000000000000
B0532553200280S11702464EA0133501350000000000000
B0532593200208S11702496EA0132301337000000000000
B0533033200128S11702525EA0131201325000000000000
B0533073200044S11702545EA0130501321000000000000
B0533113159958S11702554EA0130101315000000000000
B0533153159871S11702563EA0129601312000000000000
B0533193159781S11702571EA0129601311000000000000
B0533233159692S11702572EA0130601325000000000000
B0533273159606S11702574EA0131201329000000000000
B0533313159519S11702577EA0131401332000000000000
B0533353159433S11702580EA0132301339000000000000
B0533393159350S11702582EA0132801348000000000000
B0533433159264S11702589EA0133001347000000000000
B0533473159175S11702599EA0133501354000000000000
B0533513159091S11702611EA0134601372000000000000
B0533553159010S11702625EA0136001383000000000000
B0533593158928S11702642EA0136101380000000000000
B0534033158847S11702654EA0135901379000000000000
B0534073158762S11702663EA0135201371000000000000
B0534113158676S11702669EA0134601362000000000000
B0534153158589S11702675EA0134301361000000000000
B0534193158502S11702681EA0134201361000000000000
B0534233158415S11702689EA0133601348000000000000
B0534273158321S11702694EA0132401336000000000000
B0534313158229S11702697EA0132001336000000000000
B0534353158139S11702697EA0132601344000000000000
B0534393158052S11702698EA0133301352000000000000
B0534433157966S11702702EA0133201346000000000000
B0534473157878S11702706EA0133201347000000000000
B0534513157790S11702710EA0133201353000000000000
B0534553157709S11702714EA0134301372000000000000
B0534593157635S11702717EA0135301373000000000000
B0535033157558S11702720EA0134501359000000000000
B0535073157487S11702727EA0134901370000000000000
B0535113157420S11702740EA0134801365000000000000
B0535153157352S11702758EA0133801354000000000000
B0535193157280S11702758EA0134101361000000000000
B0535233157211S11702747EA0134901373000000000000
B0535273157140S11702749EA0134501365000000000000
B0535313157069S11702772EA0133801360000000000000
B0535353156998S11702802EA0133601358000000000000
B0535393156929S11702829EA0133501357000000000000
B0535433156860S11702863EA0133401356000000000000
B0535473156798S11702914EA0133301352000000000000
B0535513156735S11702970EA0132501342000000000000
B0535553156660S11703011EA0132801350000000000000
B0535593156596S11703059EA0134301367000000000000
B0536033156594S11703130EA0135101378000000000000
B0536073156643S11703149EA0135501378000000000000
B0536113156691S11703107EA0135101374000000000000
B0536153156730S11703036EA0134801373000000000000
B0536193156752S11702954EA0135401379000000000000
B0536233156733S11702876EA0135901385000000000000
B0536273156674S11702829EA0136101384000000000000
B0536313156596S11702833EA0136201388000000000000
B0536353156514S11702851EA0136301388000000000000
B0536393156432S11702873EA0135901382000000000000
B0536433156347S11702902EA0135801384000000000000
B0536473156267S11702936EA0136601395000000000000
B0536513156240S11703000EA0138801418000000000000
B0536553156279S11703027EA0140001429000000000000
B0536593156325S11702994EA0139901428000000000000
B0537033156343S11702925EA0139801425000000000000
B0537073156312S11702853EA0139601423000000000000
B0537113156248S11702802EA0139501424000000000000
B0537153156172S11702766EA0139601423000000000000
B0537193156094S11702737EA0139901425000000000000
B0537233156011S11702717EA0139801422000000000000
B0537273155925S11702704EA0140101423000000000000
B0537313155834S11702702EA0139201411000000000000
B0537353155742S11702706EA0138401407000000000000
B0537393155654S11702717EA0137701396000000000000
B0537433155573S11702755EA0137401396000000000000
B0537473155503S11702801EA0137101392000000000000
B0537513155438S11702849EA0136301379000000000000
B0537553155370S11702894EA0134301356000000000000
B0537593155291S11702927EA0132501341000000000000
B0538033155209S11702950EA0131201325000000000000
B0538073155125S11702970EA0130301318000000000000
B0538113155044S11702984EA0130601321000000000000
B0538153154963S11703000EA0129601312000000000000
B0538193154884S11703016EA0129501312000000000000
B0538233154810S11703035EA0129801319000000000000
B0538273154742S11703054EA0130501323000000000000
B0538313154674S11703079EA0129901313000000000000
B0538353154598S11703096EA0129001303000000000000
B0538393154520S11703102EA0128301298000000000000
B0538433154442S11703102EA0128601305000000000000
B0538473154368S11703096EA0129201309000000000000
B0538513154295S11703091EA0128401299000000000000
B0538553154220S11703080EA0127301282000000000000
B0538593154139S11703078EA0126301276000000000000
B0539033154061S11703094EA0126001276000000000000
B0539073153983S11703122EA0125501265000000000000
B0539113153904S11703153EA0124801265000000000000
B0539153153829S11703184EA0125001264000000000000
B0539193153757S11703221EA0126501286000000000000
B0539233153744S11703287EA0129801325000000000000
B0539273153788S11703310EA0132001345000000000000
B0539313153823S11703271EA0133501360000000000000
B0539353153806S11703211EA0134601369000000000000
B0539393153745S11703189EA0135301379000000000000
B0539433153695S11703232EA0136501397000000000000
B0539473153695S11703301EA0138101410000000000000
B0539513153744S11703326EA0139501428000000000000
B0539553153777S11703280EA0141901455000000000000
B0539593153754S11703222EA0143701469000000000000
B0540033153693S11703204EA0144801479000000000000
B0540073153647S11703252EA0146201497000000000000
B0540113153656S11703319EA0147401509000000000000
B0540153153710S11703330EA0148901527000000000000
B0540193153739S11703276EA0151501554000000000000
B0540233153713S11703217EA0153301569000000000000
B0540273153650S11703198EA0154201578000000000000
B0540313153596S11703241EA0154901585000000000000
B0540353153593S11703313EA0155601598000000000000
B0540393153641S11703348EA0156801607000000000000
B0540433153687S11703309EA0158201627000000000000
B0540473153675S11703240EA0160001643000000000000
B0540513153615S11703206EA0161201654000000000000
B0540553153554S11703234EA0162101664000000000000
B0540593153530S11703300EA0163001671000000000000
B0541033153558S11703358EA0162901673000000000000
B0541073153617S11703383EA0163701682000000000000
B0541113153667S11703352EA0165701699000000000000
B0541153153666S11703286EA0167201716000000000000
B0541193153613S11703240EA0167701720000000000000
B0541233153544S11703250EA0167401714000000000000
B0541273153471S11703291EA0166801706000000000000
B0541313153401S11703340EA0166101700000000000000
B0541353153327S11703396EA0165901698000000000000
B0541393153254S11703452EA0166701710000000000000
B0541433153179S11703503EA0167601715000000000000
B0541473153103S11703551EA0167201710000000000000
B0541513153030S11703604EA0166301703000000000000
B0541553152961S11703657EA0165401693000000000000
B0541593152890S11703712EA0164601686000000000000
B0542033152816S11703765EA0165101697000000000000
B0542073152742S11703817EA0165701700000000000000
B0542113152668S11703867EA0165601697000000000000
B0542153152597S11703915EA0165601698000000000000
B0542193152530S11703964EA0164701683000000000000
B0542233152458S11704016EA0163501674000000000000
B0542273152387S11704066EA0163901685000000000000
B0542313152319S11704107EA0165601701000000000000
B0542353152252S11704146EA0166501707000000000000
B0542393152180S11704190EA0166301704000000000000
B0542433152105S11704238EA0166101702000000000000
B0542473152032S11704287EA0166501706000000000000
B0542513151960S11704336EA0165701689000000000000
B0542553151888S11704387EA0164401679000000000000
B0542593151814S11704436EA0163401670000000000000
B0543033151739S11704484EA0162701662000000000000
B0543073151668S11704532EA0161601650000000000000
B0543113151595S11704582EA0159801629000000000000
B0543153151521S11704634EA0158101613000000000000
B0543193151446S11704683EA0157401600000000000000
B0543233151373S11704740EA0156501597000000000000
B0543273151303S11704801EA0156501596000000000000
B0543313151231S11704860EA0156701603000000000000
B0543353151156S11704917EA0157001605000000000000
B0543393151079S11704973EA0156901602000000000000
B0543433151004S11705026EA0157201604000000000000
B0543473150931S11705078EA0158301621000000000000
B0543513150861S11705132EA0158601623000000000000
B0543553150788S11705185EA0157601609000000000000
B0543593150715S11705239EA0156901602000000000000
B0544033150645S11705293EA0156501597000000000000
B0544073150576S11705345EA0155801592000000000000
B0544113150506S11705394EA0155201583000000000000
B0544153150434S11705444EA0155001583000000000000
B0544193150361S11705497EA0154301572000000000000
B0544233150286S11705557EA0153701568000000000000
B0544273150211S11705613EA0153701571000000000000
B0544313150137S11705665EA0154101576000000000000
B0544353150066S11705715EA0154901584000000000000
B0544393149995S11705770EA0154001569000000000000
B0544433149925S11705830EA0153501566000000000000
B0544473149857S11705892EA0153201566000000000000
B0544513149789S11705954EA0152801559000000000000
B0544553149721S11706018EA0152101546000000000000
B0544593149650S11706079EA0151101544000000000000
B0545033149581S11706136EA0151101542000000000000
B0545073149515S11706188EA0150901542000000000000
B0545113149450S11706238EA0150601538000000000000
B0545153149385S11706289EA0150401538000000000000
B0545193149321S11706335EA0150501538000000000000
B0545233149260S11706380EA0150501536000000000000
B0545273149198S11706422EA0150201534000000000000
B0545313149133S11706463EA0150001529000000000000
B0545353149068S11706503EA0149101519000000000000
B0545393149002S11706547EA0148201508000000000000
B0545433148935S11706588EA0147701504000000000000
B0545473148869S11706632EA0146401486000000000000
B0545513148796S11706679EA0144901467000000000000
B0545553148721S11706727EA0143601457000000000000
B0545593148645S11706772EA0142801444000000000000
B0546033148570S11706822EA0141801439000000000000
B0546073148496S11706870EA0141701441000000000000
B0546113148424S11706918EA0141701440000000000000
B0546153148354S11706965EA0141501439000000000000
B0546193148283S11707014EA0141001428000000000000
B0546233148207S11707066EA0140001423000000000000
B0546273148132S11707115EA0140101427000000000000
B0546313148059S11707161EA0140501430000000000000
B0546353147986S11707208EA0140501432000000000000
B0546393147914S11707254EA0141201441000000000000
B0546433147838S11707300EA0141201432000000000000
B0546473147758S11707344EA0140001420000000000000
B0546513147677S11707388EA0139301418000000000000
B0546553147603S11707433EA0139301417000000000000
B0546593147526S11707478EA0138701409000000000000
B0547033147446S11707518EA0137801398000000000000
B0547073147365S11707564EA0137001393000000000000
B0547113147288S11707618EA0136401380000000000000
B0547153147208S11707677EA0135301373000000000000
B0547193147131S11707733EA0135801383000000000000
B0547233147057S11707787EA0136801393000000000000
B0547273146984S11707838EA0137201391000000000000
B0547313146910S11707890EA0135901377000000000000
B0547353146833S11707942EA0135001368000000000000
B0547393146755S11707992EA0134501363000000000000
B0547433146675S11708041EA0133401344000000000000
B0547473146591S11708093EA0131901332000000000000
B0547513146512S11708144EA0132201342000000000000
B0547553146438S11708190EA0133201351000000000000
B0547593146363S11708236EA0133301352000000000000
B0548033146286S11708280EA0132901343000000000000
B0548073146211S11708327EA0132801343000000000000
B0548113146140S11708374EA0132601343000000000000
B0548153146069S11708421EA0132401338000000000000
B0548193145995S11708467EA0132801345000000000000
B0548233145921S11708514EA0133501355000000000000
B0548273145848S11708560EA0134201361000000000000
B0548313145775S11708606EA0134701368000000000000
B0548353145705S11708660EA0135201375000000000000
B0548393145636S11708714EA0135901382000000000000
B0548433145571S11708766EA0136801392000000000000
B0548473145507S11708824EA0137501393000000000000
B0548513145444S11708879EA0137101390000000000000
B0548553145379S11708934EA0136201376000000000000
B0548593145310S11708987EA0134301351000000000000
B0549033145237S11709046EA0132401336000000000000
B0549073145164S11709102EA0131701331000000000000
B0549113145091S11709152EA0131101322000000000000
B0549153145018S11709207EA0130001312000000000000
B0549193144943S11709262EA0129101304000000000000
B0549233144870S11709315EA0129101307000000000000
B0549273144797S11709364EA0128801299000000000000
B0549313144722S11709406EA0128701301000000000000
B0549353144648S11709441EA0128701297000000000000
B0549393144571S11709477EA0128701312000000000000
B0549433144498S11709503EA0132001350000000000000
B0549473144485S11709568EA0135501386000000000000
B0549513144537S11709596EA0137101394000000000000
B0549553144584S11709546EA0138201414000000000000
B0549593144573S11709476EA0140101425000000000000
B0550033144510S11709446EA0141301444000000000000
B0550073144466S11709497EA0143901476000000000000
B0550113144493S11709555EA0146801504000000000000
B0550153144548S11709552EA0149201524000000000000
B0550193144579S11709490EA0150201536000000000000
B0550233144549S11709423EA0151801555000000000000
B0550273144491S11709414EA0154301583000000000000
B0550313144465S11709471EA0156201604000000000000
B0550353144498S11709520EA0157901624000000000000
B0550393144549S11709494EA0160201645000000000000
B0550433144552S11709420EA0160901647000000000000
B0550473144495S11709384EA0162601676000000000000
B0550513144450S11709423EA0165101698000000000000
B0550553144466S11709484EA0166001703000000000000
B0550593144527S11709496EA0167701726000000000000
B0551033144547S11709429EA0170001748000000000000
B0551073144504S11709376EA0171301762000000000000
B0551113144444S11709389EA0173101782000000000000
B0551153144432S11709455EA0174801797000000000000
B0551193144478S11709498EA0176601818000000000000
B0551233144526S11709461EA0178601840000000000000
B0551273144521S11709386EA0179701847000000000000
B0551313144462S11709355EA0181001867000000000000
B0551353144402S11709388EA0182201875000000000000
B0551393144336S11709441EA0181101850000000000000
B0551433144257S11709507EA0179001833000000000000
B0551473144172S11709576EA0178601834000000000000
B0551513144090S11709645EA0178801834000000000000
B0551553144008S11709714EA0178601833000000000000
B0551593143929S11709782EA0177901824000000000000
B0552033143847S11709851EA0176401811000000000000
B0552073143764S11709918EA0175201795000000000000
B0552113143681S11709986EA0174401782000000000000
B0552153143595S11710052EA0173001769000000000000
B0552193143509S11710118EA0171901759000000000000
B0552233143427S11710182EA0171501757000000000000
B0552273143345S11710241EA0170801747000000000000
B0552313143260S11710289EA0170401743000000000000
B0552353143174S11710333EA0169801738000000000000
B0552393143091S11710378EA0169501734000000000000
B0552433143007S11710426EA0169101731000000000000
B0552473142927S11710477EA0168901729000000000000
B0552513142849S11710530EA0169301737000000000000
B0552553142773S11710589EA0171001762000000000000
B0552593142712S11710650EA0174901807000000000000
B0553033142714S11710724EA0179401857000000000000
B0553073142764S11710753EA0182401880000000000000
B0553113142808S11710720EA0183201888000000000000
B0553153142798S11710659EA0184601903000000000000
B0553193142742S11710627EA0186101918000000000000
B0553233142673S11710644EA0188301944000000000000
B0553273142645S11710715EA0191301978000000000000
B0553313142684S11710768EA0194302006000000000000
B0553353142741S11710750EA0195802022000000000000
B0553393142763S11710688EA0197102040000000000000
B0553433142721S11710637EA0199802073000000000000
B0553473142660S11710645EA0203002104000000000000
B0553513142626S11710709EA0205102125000000000000
B0553553142652S11710777EA0207302149000000000000
B0553593142711S11710785EA0209702169000000000000
B0554033142747S11710729EA0211102183000000000000
B0554073142732S11710655EA0213402209000000000000
B0554113142677S11710610EA0215502230000000000000
B0554153142604S11710629EA0216702239000000000000
B0554193142533S11710688EA0217902255000000000000
B0554233142463S11710758EA0218302248000000000000
B0554273142389S11710842EA0217002234000000000000
B0554313142314S11710928EA0214902207000000000000
B0554353142240S11711017EA0213302196000000000000
B0554393142166S11711101EA0213202200000000000000
B0554433142093S11711183EA0213302201000000000000
B0554473142022S11711264EA0212702191000000000000
B0554513141947S11711343EA0211702183000000000000
B0554553141872S11711416EA0212302193000000000000
B0554593141800S11711483EA0211802182000000000000
B0555033141727S11711552EA0211102177000000000000
B0555073141655S11711624EA0210702174000000000000
B0555113141585S11711700EA0210202166000000000000
B0555153141515S11711784EA0209102156000000000000
B0555193141440S11711862EA0209102168000000000000
B0555233141371S11711931EA0210902183000000000000
B0555273141299S11712001EA0209702158000000000000
B0555313141224S11712077EA0209102162000000000000
B0555353141150S11712150EA0208702152000000000000
B0555393141076S11712222EA0208302150000000000000
B0555433141001S11712289EA0208002145000000000000
B0555473140929S11712353EA0207502141000000000000
B0555513140856S11712414EA0207602144000000000000
B0555553140782S11712473EA0208102148000000000000
B0555593140709S11712526EA0208102146000000000000
B0556033140635S11712578EA0207902144000000000000
B0556073140562S11712630EA0207902144000000000000
B0556113140494S11712691EA0207802143000000000000
B0556153140429S11712755EA0207702142000000000000
B0556193140366S11712822EA0207102134000000000000
B0556233140301S11712891EA0206202124000000000000
B0556273140238S11712961EA0205302117000000000000
B0556313140177S11713028EA0204402105000000000000
B0556353140115S11713093EA0202802087000000000000
B0556393140050S11713163EA0200902065000000000000
B0556433139981S11713233EA0200002055000000000000
B0556473139916S11713298EA0200002061000000000000
B0556513139852S11713363EA0199902055000000000000
B0556553139786S11713429EA0198802046000000000000
B0556593139720S11713497EA0197902038000000000000
B0557033139653S11713565EA0197102029000000000000
B0557073139591S11713635EA0196502021000000000000
B0557113139527S11713705EA0195702015000000000000
B0557153139467S11713774EA0195502014000000000000
B0557193139409S11713842EA0195802017000000000000
B0557233139356S11713908EA0195502010000000000000
B0557273139302S11713974EA0194702002000000000000
B0557313139246S11714038EA0194001999000000000000
B0557353139188S11714102EA0192401974000000000000
B0557393139126S11714173EA0190701960000000000000
B0557433139063S11714246EA0189301943000000000000
B0557473139001S11714323EA0188301934000000000000
B0557513138936S11714391EA0187701932000000000000
B0557553138888S11714468EA0188301939000000000000
B0557593138892S11714554EA0188301932000000000000
B0558033138947S11714612EA0186501913000000000000
B0558073139028S11714635EA0185301901000000000000
B0558113139115S11714637EA0183901884000000000000
B0558153139205S11714633EA0181801864000000000000
B0558193139301S11714627EA0179801839000000000000
B0558233139401S11714622EA0178901833000000000000
B0558273139497S11714611EA0178301828000000000000
B0558313139590S11714594EA0178901840000000000000
B0558353139677S11714575EA0180001852000000000000
B0558393139763S11714553EA0181101866000000000000
B0558433139839S11714519EA0184301899000000000000
B0558473139890S11714459EA0187201928000000000000
B0558513139890S11714384EA0189501953000000000000
B0558553139838S11714343EA0190501963000000000000
B0558593139791S11714385EA0190401957000000000000
B0559033139809S11714451EA0190401958000000000000
B0559073139873S11714471EA0189801947000000000000
B0559113139956S11714468EA0188601935000000000000
B0559153140043S11714462EA0188401932000000000000
B0559193140132S11714447EA0187401922000000000000
B0559233140218S11714432EA0187101921000000000000
B0559273140299S11714414EA0187101920000000000000
B0559313140372S11714388EA0187901935000000000000
B0559353140439S11714354EA0188701943000000000000
B0559393140500S11714317EA0189801955000000000000
B0559433140559S11714281EA0191001969000000000000
B0559473140617S11714239EA0192001978000000000000
B0559513140671S11714190EA0192501984000000000000
B0559553140734S11714148EA0192501976000000000000
B0559593140817S11714133EA0190601951000000000000
B0600033140914S11714137EA0189401946000000000000
B0600073141012S11714146EA0189701949000000000000
B0600113141107S11714157EA0189901953000000000000
B0600153141200S11714165EA0190601965000000000000
B0600193141290S11714172EA0191201969000000000000
B0600233141380S11714180EA0190901966000000000000
B0600273141468S11714186EA0191401976000000000000
B0600313141551S11714191EA0191101964000000000000
B0600353141641S11714198EA0189801945000000000000
B0600393141731S11714209EA0188901943000000000000
B0600433141813S11714230EA0189001944000000000000
B0600473141889S11714250EA0189101952000000000000
B0600513141963S11714264EA0188801942000000000000
B0600553142041S11714271EA0188901948000000000000
B0600593142117S11714268EA0190501967000000000000
B0601033142186S11714250EA0191801979000000000000
B0601073142253S11714229EA0192601985000000000000
B0601113142322S11714204EA0192501979000000000000
B0601153142402S11714178EA0190801950000000000000
B0601193142487S11714151EA0189301945000000000000
B0601233142573S11714121EA0189801956000000000000
B0601273142652S11714096EA0191601974000000000000
B0601313142729S11714073EA0192001968000000000000
B0601353142811S11714053EA0190201949000000000000
B0601393142896S11714031EA0188501932000000000000
B0601433142983S11714017EA0187501923000000000000
B0601473143068S11714004EA0187401924000000000000
B0601513143152S11713996EA0187101917000000000000
B0601553143234S11713990EA0187101921000000000000
B0601593143313S11713979EA0186801914000000000000
B0602033143392S11713957EA0185901904000000000000
B0602073143468S11713920EA0185501900000000000000
B0602113143539S11713871EA0185101898000000000000
B0602153143609S11713826EA0185301903000000000000
B0602193143678S11713780EA0185401901000000000000
B0602233143748S11713735EA0184701892000000000000
B0602273143825S11713695EA0183501879000000000000
B0602313143908S11713665EA0182601865000000000000
B0602353143999S11713645EA0180901847000000000000
B0602393144090S11713634EA0181101862000000000000
B0602433144173S11713622EA0182001863000000000000
B0602473144262S11713614EA0180201839000000000000
B0602513144359S11713614EA0178001817000000000000
B0602553144461S11713619EA0176201799000000000000
B0602593144562S11713630EA0174801787000000000000
B0603033144665S11713636EA0173801779000000000000
B0603073144764S11713644EA0173301775000000000000
B0603113144862S11713649EA0172501762000000000000
B0603153144963S11713652EA0172001764000000000000
B0603193145060S11713652EA0172201766000000000000
B0603233145156S11713653EA0172501767000000000000
B0603273145251S11713653EA0172001759000000000000
B0603313145349S11713657EA0171401754000000000000
B0603353145444S11713658EA0171001747000000000000
B0603393145540S11713662EA0170101736000000000000
B0603433145635S11713666EA0169501729000000000000
B0603473145728S11713669EA0168401720000000000000
B0603513145821S11713670EA0167601710000000000000
B0603553145912S11713670EA0166501700000000000000
B0603593146003S11713670EA0165501691000000000000
B0604033146092S11713667EA0164701682000000000000
B0604073146185S11713665EA0163801672000000000000
B0604113146278S11713660EA0163001667000000000000
B0604153146370S11713654EA0163401671000000000000
B0604193146456S11713647EA0163501669000000000000
B0604233146546S11713637EA0162201650000000000000
B0604273146637S11713630EA0160901643000000000000
B0604313146723S11713631EA0161501654000000000000
B0604353146803S11713644EA0162901672000000000000
B0604393146879S11713662EA0164101682000000000000
B0604433146955S11713684EA0164601694000000000000
B0604473147027S11713704EA0165401700000000000000
B0604513147096S11713725EA0165801702000000000000
B0604553147166S11713749EA0165401693000000000000
B0604593147238S11713777EA0164601686000000000000
B0605033147309S11713808EA0164101680000000000000
B0605073147381S11713844EA0163901681000000000000
B0605113147448S11713882EA0163801680000000000000
B0605153147521S11713923EA0162201659000000000000
B0605193147596S11713965EA0161001649000000000000
B0605233147674S11714005EA0160001641000000000000
B0605273147752S11714043EA0159701639000000000000
B0605313147829S11714077EA0159601641000000000000
B0605353147903S11714105EA0159901643000000000000
B0605393147977S11714131EA0160301648000000000000
B0605433148049S11714156EA0160701654000000000000
B0605473148115S11714182EA0161501661000000000000
B0605513148183S11714208EA0161501659000000000000
B0605553148252S11714232EA0161301657000000000000
B0605593148320S11714247EA0161001651000000000000
B0606033148393S11714264EA0161101664000000000000
B0606073148460S11714278EA0163501688000000000000
B0606113148526S11714290EA0164501699000000000000
B0606153148590S11714302EA0165501709000000000000
B0606193148655S11714311EA0166001711000000000000
B0606233148720S11714312EA0165801704000000000000
B0606273148792S11714317EA0164701691000000000000
B0606313148870S11714330EA0164901699000000000000
B0606353148942S11714328EA0165701705000000000000
B0606393149011S11714316EA0166101709000000000000
B0606433149080S11714315EA0165801701000000000000
B0606473149154S11714324EA0165301699000000000000
B0606513149232S11714332EA0164701690000000000000
B0606553149312S11714343EA0163701674000000000000
B0606593149397S11714354EA0162001658000000000000
B0607033149484S11714362EA0160401639000000000000
B0607073149574S11714371EA0158901625000000000000
B0607113149663S11714384EA0158301621000000000000
B0607153149749S11714397EA0158501627000000000000
B0607193149832S11714411EA0158701627000000000000
B0607233149913S11714425EA0159401643000000000000
B0607273149986S11714438EA0160301646000000000000
B0607313150064S11714451EA0158701622000000000000
B0607353150147S11714471EA0158201625000000000000
B0607393150226S11714481EA0158401623000000000000
B0607433150306S11714494EA0157401612000000000000
B0607473150380S11714508EA0157701620000000000000
B0607513150452S11714519EA0157801616000000000000
B0607553150527S11714532EA0157401615000000000000
B0607593150602S11714550EA0157101609000000000000
B0608033150675S11714567EA0157201611000000000000
B0608073150746S11714581EA0157301611000000000000
B0608113150819S11714596EA0156501600000000000000
B0608153150896S11714612EA0155901595000000000000
B0608193150974S11714632EA0155501593000000000000
B0608233151050S11714651EA0154901583000000000000
B0608273151127S11714668EA0154401588000000000000
B0608313151200S11714679EA0156901616000000000000
B0608353151257S11714640EA0159401642000000000000
B0608393151256S11714573EA0161701665000000000000
B0608433151200S11714553EA0162101662000000000000
B0608473151153S11714610EA0161801662000000000000
B0608513151151S11714693EA0162601676000000000000
B0608553151188S11714752EA0165101704000000000000
B0608593151235S11714731EA0166401711000000000000
B0609033151229S11714663EA0166001704000000000000
B0609073151167S11714650EA0165901704000000000000
B0609113151131S11714713EA0166501714000000000000
B0609153151145S11714784EA0167901732000000000000
B0609193151186S11714839EA0168301723000000000000
B0609233151258S11714863EA0165501686000000000000
B0609273151349S11714867EA0163301673000000000000
B0609313151440S11714865EA0162901670000000000000
B0609353151529S11714858EA0162001652000000000000
B0609393151620S11714853EA0160401642000000000000
B0609433151710S11714853EA0159701636000000000000
B0609473151798S11714858EA0159001627000000000000
B0609513151884S11714869EA0159901643000000000000
B0609553151962S11714880EA0161501659000000000000
B0609593152033S11714887EA0162801674000000000000
B0610033152105S11714895EA0161601651000000000000
B0610073152188S11714902EA0159801636000000000000
B0610113152271S11714909EA0159201629000000000000
B0610153152356S11714910EA0158701622000000000000
B0610193152439S11714906EA0158701627000000000000
B0610233152517S11714897EA0159001628000000000000
B0610273152594S11714887EA0159101628000000000000
B0610313152668S11714872EA0159201633000000000000
B0610353152739S11714856EA0160101642000000000000
B0610393152811S11714840EA0160401646000000000000
B0610433152883S11714820EA0159801636000000000000
B0610473152959S11714800EA0159001626000000000000
B0610513153036S11714778EA0158501618000000000000
B0610553153112S11714758EA0158401623000000000000
B0610593153189S11714737EA0157801611000000000000
B0611033153267S11714719EA0156401596000000000000
B0611073153345S11714701EA0154801577000000000000
B0611113153424S11714683EA0153701571000000000000
B0611153153502S11714667EA0153601568000000000000
B0611193153580S11714654EA0153001561000000000000
B0611233153660S11714644EA0152201548000000000000
B0611273153740S11714628EA0150601532000000000000
B0611313153825S11714611EA0149201522000000000000
B0611353153910S11714597EA0147701503000000000000
B0611393153998S11714585EA0146501492000000000000
B0611433154083S11714579EA0145101478000000000000
B0611473154165S11714571EA0144801479000000000000
B0611513154246S11714566EA0143901463000000000000
B0611553154332S11714557EA0141901443000000000000
B0611593154416S11714542EA0141201439000000000000
B0612033154501S11714529EA0140901431000000000000
B0612073154586S11714519EA0140101428000000000000
B0612113154668S11714508EA0140501433000000000000
B0612153154749S11714494EA0140801435000000000000
B0612193154827S11714479EA0140901433000000000000
B0612233154905S11714463EA0140001423000000000000
B0612273154987S11714446EA0137901396000000000000
B0612313155067S11714428EA0136901390000000000000
B0612353155145S11714417EA0137401397000000000000
B0612393155216S11714398EA0138101413000000000000
B0612433155279S11714375EA0139301420000000000000
B0612473155340S11714351EA0140001433000000000000
B0612513155399S11714325EA0141201443000000000000
B0612553155456S11714291EA0142201453000000000000
B0612593155502S11714242EA0143501470000000000000
B0613033155546S11714186EA0143901464000000000000
B0613073155607S11714141EA0142401442000000000000
B0613113155680S11714112EA0140701428000000000000
B0613153155755S11714102EA0140801434000000000000
B0613193155831S11714099EA0140001417000000000000
B0613233155907S11714105EA0139101415000000000000
B0613273155983S11714120EA0139801427000000000000
B0613313156053S11714133EA0141601449000000000000
B0613353156118S11714146EA0143001461000000000000
B0613393156183S11714161EA0143201466000000000000
B0613433156249S11714177EA0143701468000000000000
B0613473156317S11714191EA0144201478000000000000
B0613513156383S11714207EA0144101469000000000000
B0613553156456S11714221EA0142401448000000000000
B0613593156535S11714237EA0141401439000000000000
B0614033156613S11714254EA0140701436000000000000
B0614073156692S11714269EA0140201426000000000000
B0614113156772S11714281EA0139801429000000000000
B0614153156845S11714295EA0141501450000000000000
B0614193156910S11714307EA0142901463000000000000
B0614233156975S11714315EA0143101462000000000000
B0614273157042S11714323EA0143301466000000000000
B0614313157106S11714330EA0144501485000000000000
B0614353157167S11714339EA0145401486000000000000
B0614393157233S11714343EA0145501491000000000000
B0614433157297S11714355EA0147201513000000000000
B0614473157358S11714365EA0148501524000000000000
B0614513157424S11714377EA0147601507000000000000
B0614553157497S11714394EA0146801501000000000000
B0614593157573S11714411EA0146201490000000000000
B0615033157651S11714433EA0145401483000000000000
B0615073157731S11714455EA0144401472000000000000
B0615113157809S11714481EA0143501465000000000000
B0615153157887S11714510EA0142401452000000000000
B0615193157966S11714536EA0141901448000000000000
B0615233158046S11714559EA0140801438000000000000
B0615273158128S11714585EA0139501421000000000000
B0615313158212S11714612EA0138601413000000000000
B0615353158294S11714636EA0138601415000000000000
B0615393158375S11714659EA0138401414000000000000
B0615433158455S11714680EA0137601400000000000000
B0615473158540S11714698EA0135901383000000000000
B0615513158628S11714716EA0134501366000000000000
B0615553158719S11714736EA0133801364000000000000
B0615593158806S11714755EA0133501359000000000000
B0616033158893S11714776EA0133001354000000000000
B0616073158980S11714796EA0132401341000000000000
B0616113159068S11714805EA0131101326000000000000
B0616153159152S11714806EA0129901320000000000000
B0616193159230S11714802EA0130201328000000000000
B0616233159298S11714789EA0130901338000000000000
B0616273159357S11714774EA0130901333000000000000
B0616313159419S11714757EA0130201317000000000000
B0616353159485S11714739EA0128901309000000000000
B0616393159547S11714713EA0128801309000000000000
B0616433159603S11714674EA0128401302000000000000
B0616473159662S11714632EA0128001298000000000000
B0616513159727S11714605EA0127901296000000000000
B0616553159786S11714575EA0128601308000000000000
B0616593159831S11714524EA0129301309000000000000
B0617033159867S11714462EA0128101290000000000000
B0617073159928S11714415EA0125501262000000000000
B0617113200010S11714406EA0123801249000000000000
B0617153200092S11714419EA0123601251000000000000
B0617193200173S11714438EA0123401248000000000000
B0617233200249S11714459EA0123001245000000000000
B0617273200326S11714482EA0122701244000000000000
B0617313200403S11714507EA0122801247000000000000
B0617353200474S11714525EA0123801265000000000000
B0617393200542S11714541EA0124601265000000000000
B0617433200611S11714557EA0124601268000000000000
B0617473200678S11714571EA0125101275000000000000
B0617513200743S11714583EA0125101271000000000000
B0617553200813S11714597EA0124801270000000000000
B0617593200881S11714610EA0124801269000000000000
B0618033200947S11714620EA0125201273000000000000
B0618073201016S11714629EA0124601263000000000000
B0618113201089S11714633EA0124301264000000000000
B0618153201154S11714623EA0125801283000000000000
B0618193201214S11714598EA0125901278000000000000
B0618233201279S11714572EA0125101269000000000000
B0618273201348S11714545EA0124501260000000000000
B0618313201422S11714514EA0123501247000000000000
B0618353201504S11714485EA0121901227000000000000
B0618393201590S11714453EA0120401215000000000000
B0618433201674S11714419EA0120001213000000000000
B0618473201756S11714384EA0120001213000000000000
B0618513201835S11714354EA0119701208000000000000
B0618553201915S11714324EA0119101204000000000000
B0618593201990S11714297EA0119001204000000000000
B0619033202064S11714271EA0118601196000000000000
B0619073202139S11714248EA0118001193000000000000
B0619113202214S11714230EA0118001194000000000000
B0619153202286S11714212EA0117401180000000000000
B0619193202360S11714199EA0116601177000000000000
B0619233202435S11714191EA0115901168000000000000
B0619273202509S11714182EA0114701152000000000000
B0619313202587S11714169EA0113601143000000000000
B0619353202663S11714144EA0113801148000000000000
B0619393202739S11714120EA0114201156000000000000
B0619433202808S11714099EA0115301166000000000000
B0619473202873S11714081EA0115301163000000000000
B0619513202942S11714063EA0114501152000000000000
B0619553203016S11714037EA0113101138000000000000
B0619593203088S11714004EA0112501135000000000000
B0620033203159S11713968EA0111801126000000000000
B0620073203228S11713930EA0110901116000000000000
B0620113203298S11713895EA0110401108000000000000
B0620153203368S11713857EA0109101097000000000000
B0620193203429S11713821EA0109901119000000000000
B0620233203481S11713788EA0112101139000000000000
B0620273203524S11713745EA0113101143000000000000
B0620313203536S11713676EA0113501147000000000000
B0620353203536S11713601EA0114201157000000000000
B0620393203520S11713527EA0115001164000000000000
B0620433203459S11713497EA0115501167000000000000
B0620473203406S11713539EA0114801158000000000000
B0620513203400S11713614EA0114101151000000000000
B0620553203426S11713679EA0113701148000000000000
B0620593203465S11713736EA0113401144000000000000
B0621033203511S11713783EA0113501146000000000000
B0621073203566S11713813EA0113701147000000000000
B0621113203625S11713822EA0113501143000000000000
B0621153203689S11713805EA0112801135000000000000
B0621193203749S11713766EA0111701121000000000000
B0621233203813S11713715EA0110401106000000000000
B0621273203874S11713660EA0111001116000000000000
B0621313203928S11713597EA0111101117000000000000
B0621353203979S11713535EA0110801113000000000000
B0621393204035S11713475EA0110601104000000000000
B0621433204092S11713415EA0110701118000000000000
B0621473204139S11713351EA0112501135000000000000
B0621513204128S11713273EA0114301158000000000000
B0621553204065S11713268EA0116001172000000000000
B0621593204050S11713328EA0117001183000000000000
B0622033204095S11713344EA0118501201000000000000
B0622073204126S11713292EA0119301202000000000000
B0622113204105S11713216EA0119001198000000000000
B0622153204037S11713194EA0119701210000000000000
B0622193203993S11713247EA0120901225000000000000
B0622233204018S11713298EA0122601243000000000000
B0622273204067S11713283EA0124001254000000000000
B0622313204083S11713214EA0124301255000000000000
B0622353204043S11713150EA0125101265000000000000
B0622393203974S11713147EA0125601271000000000000
B0622433203920S11713197EA0126001280000000000000
B0622473203909S11713266EA0127201292000000000000
B0622513203948S11713302EA0128601309000000000000
B0622553203996S11713271EA0129101307000000000000
B0622593204018S11713193EA0129101305000000000000
B0623033203985S11713111EA0129401315000000000000
B0623073203913S11713075EA0130501325000000000000
B0623113203844S11713110EA0132001342000000000000
B0623153203828S11713177EA0133101351000000000000
B0623193203878S11713203EA0133001349000000000000
B0623233203945S11713188EA0131501327000000000000
B0623273204027S11713159EA0129901311000000000000
B0623313204114S11713124EA0128801298000000000000
B0623353204201S11713094EA0128701300000000000000
B0623393204283S11713065EA0128801305000000000000
B0623433204362S11713037EA0129001307000000000000
B0623473204440S11713010EA0128901302000000000000
B0623513204516S11712980EA0128701303000000000000
B0623553204591S11712951EA0129201309000000000000
B0623593204667S11712928EA0129201308000000000000
B0624033204741S11712906EA0129801316000000000000
B0624073204816S11712885EA0129301299000000000000
B0624113204901S11712859EA0127701290000000000000
B0624153204981S11712831EA0128301298000000000000
B0624193205059S11712807EA0128101290000000000000
B0624233205137S11712787EA0127401289000000000000
B0624273205210S11712770EA0127101281000000000000
B0624313205285S11712756EA0126001269000000000000
B0624353205360S11712742EA0124801256000000000000
B0624393205432S11712725EA0123801246000000000000
B0624433205504S11712704EA0123001238000000000000
B0624473205575S11712681EA0122701235000000000000
B0624513205648S11712656EA0122401228000000000000
B0624553205718S11712617EA0121901225000000000000
B0624593205786S11712566EA0121701223000000000000
B0625033205847S11712508EA0122101232000000000000
B0625073205900S11712452EA0123701252000000000000
B0625113205947S11712400EA0124201254000000000000
B0625153205997S11712354EA0125601278000000000000
B0625193206039S11712317EA0127101289000000000000
B0625233206082S11712278EA0127801295000000000000
B0625273206116S11712220EA0127401287000000000000
B0625313206175S11712181EA0125901269000000000000
B0625353206250S11712176EA0124501248000000000000
B0625393206331S11712196EA0123701250000000015000
B0625433206410S11712218EA0122701233000000000000
B0625473206487S11712245EA0121501229000000000000
B0625513206561S11712272EA0122201240000000000000
B0625553206631S11712289EA0122301236000000000000
B0625593206706S11712304EA0121101222000000000000
B0626033206786S11712322EA0119901210000000000000
B0626073206865S11712344EA0119001199000000000000
B0626113206942S11712370EA0118601197000000000000
B0626153207017S11712399EA0117701184000000000000
B0626193207095S11712431EA0116501168000000000000
B0626233207172S11712464EA0115801165000000000000
B0626273207250S11712493EA0114601147000000000000
B0626313207329S11712523EA0113201138000000000000
B0626353207407S11712552EA0112701134000000000000
B0626393207480S11712581EA0113401147000000000000
B0626433207542S11712625EA0114101153000000000000
B0626473207602S11712662EA0113501144000000000000
B0626513207668S11712686EA0112701134000000000000
B0626553207740S11712709EA0109901099000000000000
B0626593207820S11712735EA0107701082000000000000
B0627033207895S11712759EA0108101101000000000000
B0627073207961S11712777EA0109601110000000000000
B0627113208025S11712796EA0110001114000000000000
B0627153208093S11712808EA0109801110000000000000
B0627193208162S11712811EA0110701125000000000000
B0627233208222S11712794EA0113001147000000000000
B0627273208225S11712729EA0114101159000000000000
B0627313208161S11712691EA0114101158000000000000
B0627353208086S11712707EA0114601166000000000000
B0627393208018S11712750EA0115201171000000000000
B0627433207979S11712817EA0115801179000000000000
B0627473207997S11712886EA0116301179000000000000
B0627513208048S11712919EA0116201179000000000000
B0627553208106S11712907EA0116601184000000000000
B0627593208164S11712877EA0117901198000000000000
B0628033208213S11712835EA0119001210000000000000
B0628073208264S11712792EA0118601200000000000000
B0628113208333S11712763EA0114801149000000000000
B0628153208424S11712760EA0112901137000000000000
B0628193208511S11712772EA0113601149000000000000
B0628233208591S11712787EA0113901154000000000000
B0628273208667S11712804EA0115301169000000000000
B0628313208738S11712830EA0115701168000000000000
B0628353208807S11712864EA0116501180000000000000
B0628393208876S11712898EA0117001184000000000000
B0628433208942S11712929EA0117901200000000000000
B0628473209005S11712959EA0119001207000000000000
B0628513209068S11712987EA0119101206000000000000
B0628553209135S11713016EA0119101209000000000000
B0628593209200S11713042EA0120001223000000000000
B0629033209260S11713067EA0121301234000000000000
B0629073209318S11713091EA0122301245000000000000
B0629113209375S11713084EA0124201268000000000000
B0629153209364S11713013EA0126401296000000000000
B0629193209297S11712990EA0127601308000000000000
B0629233209253S11713041EA0128601317000000000000
B0629273209266S11713099EA0129301327000000000000
B0629313209313S11713115EA0130401332000000000000
B0629353209340S11713062EA0131501344000000000000
B0629393209309S11712995EA0131201338000000000000
B0629433209235S11712981EA0131201344000000000000
B0629473209166S11713013EA0131901350000000000000
B0629513209141S11713086EA0132301350000000000000
B0629553209167S11713155EA0132601356000000000000
B0629593209219S11713166EA0134301371000000000000
B0630033209217S11713097EA0135701388000000000000
B0630073209152S11713063EA0136601396000000000000
B0630113209097S11713106EA0137901412000000000000
B0630153209094S11713175EA0138701420000000000000
B0630193209135S11713210EA0139101424000000000000
B0630233209174S11713171EA0139801430000000000000
B0630273209153S11713098EA0140301436000000000000
B0630313209083S11713072EA0141201447000000000000
B0630353209024S11713117EA0142201457000000000000
B0630393209011S11713189EA0142901460000000000000
B0630433209049S11713241EA0142101449000000000000
B0630473209114S11713264EA0141201436000000000000
B0630513209188S11713279EA0140101424000000000000
B0630553209266S11713288EA0139201413000000000000
B0630593209348S11713289EA0138201406000000000000
B0631033209435S11713280EA0137601405000000000000
B0631073209521S11713273EA0138001403000000000000
B0631113209604S11713266EA0138801419000000000000
B0631153209683S11713258EA0139601427000000000000
B0631193209763S11713255EA0140201432000000000000
B0631233209841S11713249EA0141201447000000000000
B0631273209917S11713242EA0141501443000000000000
B0631313209997S11713237EA0140301425000000000000
B0631353210082S11713245EA0138601405000000000000
B0631393210167S11713254EA0137201393000000000000
B0631433210250S11713264EA0136201381000000000000
B0631473210331S11713267EA0135401374000000000000
B0631513210409S11713255EA0134601370000000000000
B0631553210482S11713241EA0134301367000000000000
B0631593210548S11713221EA0134301373000000000000
B0632033210608S11713194EA0134901376000000000000
B0632073210665S11713166EA0135401381000000000000
B0632113210722S11713134EA0135301376000000000000
B0632153210786S11713098EA0134001362000000000000
B0632193210853S11713064EA0132401342000000000000
B0632233210934S11713054EA0130301321000000000000
B0632273211020S11713064EA0129501313000000000000
B0632313211099S11713086EA0129701318000000000000
B0632353211177S11713110EA0129701316000000000000
B0632393211255S11713132EA0129501309000000000000
B0632433211334S11713156EA0128301296000000000000
B0632473211414S11713179EA0128301305000000000000
B0632513211486S11713198EA0128901309000000000000
B0632553211561S11713218EA0128201300000000000000
B0632593211635S11713237EA0127501293000000000000
B0633033211707S11713258EA0126601284000000000000
B0633073211783S11713280EA0125201269000000000000
B0633113211860S11713305EA0124401259000000000000
B0633153211935S11713331EA0123701251000000000000
B0633193212009S11713355EA0122901242000000000000
B0633233212084S11713383EA0121501229000000000000
B0633273212160S11713411EA0120701221000000000000
B0633313212234S11713440EA0120601224000000000000
B0633353212307S11713468EA0120301216000000000000
B0633393212381S11713494EA0119301207000000000000
B0633433212456S11713519EA0119201211000000000000
B0633473212525S11713543EA0120201220000000000000
B0633513212590S11713566EA0121301234000000000000
B0633553212653S11713588EA0121801233000000000000
B0633593212720S11713611EA0121301228000000000000
B0634033212786S11713634EA0121301230000000000000
B0634073212855S11713653EA0120901224000000000000
B0634113212924S11713670EA0120701219000000000000
B0634153212994S11713688EA0119801208000000000000
B0634193213065S11713706EA0118401191000000000000
B0634233213136S11713725EA0117101180000000000000
B0634273213209S11713741EA0116501174000000000000
B0634313213280S11713754EA0116201175000000000000
B0634353213351S11713762EA0115701165000000000000
B0634393213422S11713769EA0115201162000000000000
B0634433213492S11713773EA0114801161000000000000
B0634473213560S11713779EA0114601160000000000000
B0634513213626S11713787EA0115101168000000000000
B0634553213685S11713793EA0117501200000000000000
B0634593213738S11713799EA0119001210000000000000
B0635033213791S11713790EA0120101218000000000000
B0635073213811S11713727EA0120701229000000000000
B0635113213791S11713652EA0121501242000000000000
B0635153213735S11713596EA0122801252000000000000
B0635193213661S11713615EA0123601257000000000000
B0635233213635S11713687EA0124801272000000000000
B0635273213674S11713719EA0125701283000000000000
B0635313213709S11713675EA0126801295000000000000
B0635353213680S11713605EA0127201297000000000000
B0635393213605S11713597EA0127701305000000000000
B0635433213538S11713641EA0128501316000000000000
B0635473213530S11713709EA0130201334000000000000
B0635513213572S11713712EA0131701350000000000000
B0635553213573S11713653EA0132401348000000000000
B0635593213513S11713615EA0131601342000000000000
B0636033213443S11713635EA0131901346000000000000
B0636073213409S11713697EA0132301349000000000000
B0636113213434S11713754EA0132301348000000000000
B0636153213487S11713783EA0132701353000000000000
B0636193213548S11713796EA0133301363000000000000
B0636233213611S11713801EA0134601371000000000000
B0636273213677S11713808EA0133701354000000000000
B0636313213748S11713814EA0133101356000000000000
B0636353213823S11713814EA0133301353000000000000
B0636393213899S11713813EA0132301338000000000000
B0636433213981S11713812EA0132101344000000000000
B0636473214058S11713812EA0133901364000000000000
B0636513214131S11713810EA0134601373000000000000
B0636553214202S11713812EA0134601367000000000000
B0636593214275S11713805EA0134101365000000000000
B0637033214346S11713788EA0133601358000000000000
B0637073214417S11713765EA0132901347000000000000
B0637113214491S11713741EA0131001325000000000000
B0637153214566S11713719EA0131401337000000000000
B0637193214634S11713692EA0132601353000000000000
B0637233214697S11713660EA0133401360000000000000
B0637273214755S11713618EA0133501358000000000000
B0637313214813S11713576EA0132401348000000000000
B0637353214874S11713533EA0132601352000000000000
B0637393214939S11713491EA0132901357000000000000
B0637433215002S11713446EA0133501363000000000000
B0637473215065S11713405EA0133701362000000000000
B0637513215129S11713364EA0133501358000000000000
B0637553215193S11713327EA0133501362000000000000
B0637593215256S11713298EA0134801376000000000000
B0638033215318S11713277EA0135901386000000000000
B0638073215381S11713259EA0135701381000000000000
B0638113215446S11713246EA0135401376000000000000
B0638153215509S11713229EA0135601381000000000000
B0638193215572S11713216EA0135701380000000000000
B0638233215639S11713219EA0135901377000000000000
B0638273215705S11713224EA0135201370000000000000
B0638313215776S11713206EA0134201357000000000000
B0638353215845S11713163EA0133601357000000000000
B0638393215912S11713121EA0133801357000000000000
B0638433215978S11713075EA0131901337000000000000
B0638473216044S11713024EA0131101327000000000000
B0638513216109S11712971EA0129901313000000000000
B0638553216177S11712917EA0128601299000000000000
B0638593216244S11712868EA0128001296000000000000
B0639033216312S11712820EA0127601294000000000000
B0639073216374S11712766EA0127201294000000000000
B0639113216433S11712711EA0126801287000000000000
B0639153216491S11712655EA0126501286000000000000
B0639193216547S11712604EA0126501286000000000000
B0639233216603S11712557EA0126001278000000000000
B0639273216658S11712512EA0125301271000000000000
B0639313216718S11712466EA0124601261000000000000
B0639353216781S11712419EA0124201257000000000000
B0639393216846S11712370EA0124001253000000000000
B0639433216914S11712322EA0123701252000000000000
B0639473216982S11712270EA0124001253000000000000
B0639513217045S11712218EA0125301270000000000000
B0639553217088S11712154EA0126901290000000000000
B0639593217082S11712080EA0128301303000000000000
B0640033217035S11712028EA0128301302000000000000
B0640073216967S11712007EA0128001292000000000000
B0640113216893S11712032EA0127201285000000000000
B0640153216842S11712100EA0126901284000000000000
B0640193216845S11712180EA0127201288000000000000
B0640233216891S11712239EA0127301288000000000000
B0640273216954S11712265EA0127001284000000000000
B0640313217027S11712250EA0126201275000000000000
B0640353217102S11712209EA0125201262000000000000
B0640393217178S11712158EA0124701259000000000000
B0640433217251S11712101EA0123601247000000000000
B0640473217323S11712045EA0123001243000000000000
B0640513217394S11711989EA0122101235000000000000
B0640553217461S11711933EA0122201237000000000000
B0640593217529S11711876EA0122401242000000000000
B0641033217591S11711817EA0122901246000000000000
B0641073217652S11711762EA0122801245000000000000
B0641113217715S11711706EA0122301236000000000000
B0641153217777S11711647EA0121601227000000000000
B0641193217842S11711589EA0120501211000000000000
B0641233217912S11711531EA0119001195000000000000
B0641273217984S11711477EA0117601184000000000000
B0641313218058S11711424EA0116501174000000000000
B0641353218131S11711374EA0116201175000000000000
B0641393218198S11711325EA0116101172000000000000
B0641433218265S11711271EA0115201162000000000000
B0641473218330S11711217EA0114301144000000000000
B0641513218393S11711157EA0113101141000000000000
B0641553218454S11711100EA0113001140000000000000
B0641593218513S11711045EA0112101128000000000000
B0642033218568S11710988EA0111401124000000000000
B0642073218621S11710936EA0111801130000000000000
B0642113218672S11710885EA0111401119000000000000
B0642153218726S11710836EA0109201094000000000000
B0642193218785S11710788EA0106801071000000000000
B0642233218844S11710737EA0105201049000000000000
B0642273218899S11710679EA0103801036000000000000
B0642313218952S11710612EA0102301018000000000000
B0642353219002S11710541EA0100801008000000000000
B0642393219049S11710472EA0100701012000000000000
B0642433219095S11710407EA0100801009000000000000
B0642473219142S11710343EA0100501009000000000000
B0642513219193S11710286EA0101201015000000000000
B0642553219240S11710229EA0102101029000000000000
B0642593219281S11710166EA0102201021000000000000
B0643033219333S11710111EA0101301012000000000000
B0643073219388S11710059EA0101401019000000000000
B0643113219416S11709995EA0103401047000000000000
B0643153219368S11709957EA0105601067000000000000
B0643193219314S11709992EA0106001072000000000000
B0643233219309S11710056EA0106701080000000000000
B0643273219348S11710085EA0107501090000000000000
B0643313219392S11710056EA0108501098000000000000
B0643353219394S11709991EA0109201109000000000000
B0643393219348S11709942EA0110101114000000000000
B0643433219281S11709942EA0110601119000000000000
B0643473219240S11709996EA0111701132000000000000
B0643513219253S11710053EA0112401135000000000000
B0643553219302S11710068EA0112501139000000000000
B0643593219349S11710034EA0113501154000000000000
B0644033219358S11709970EA0114701165000000000000
B0644073219312S11709918EA0115201168000000000000
B0644113219247S11709922EA0115701175000000000000
B0644153219206S11709979EA0116401183000000000000
B0644193219212S11710047EA0117101190000000000000
B0644233219258S11710077EA0117801200000000000000
B0644273219306S11710055EA0118601207000000000000
B0644313219324S11709988EA0119501216000000000000
B0644353219288S11709925EA0120001217000000000000
B0644393219218S11709909EA0119901218000000000000
B0644433219159S11709953EA0120701224000000000000
B0644473219140S11710027EA0121201232000000000000
B0644513219164S11710087EA0122101242000000000000
B0644553219212S11710111EA0122701247000000000000
B0644593219270S11710108EA0123201257000000000000
B0645033219318S11710075EA0124101259000000000000
B0645073219323S11710003EA0124001259000000000000
B0645113219272S11709944EA0123701257000000000000
B0645153219199S11709948EA0123801261000000000000
B0645193219136S11709997EA0124201267000000000000
B0645233219081S11710059EA0124701269000000000000
B0645273219065S11710133EA0125401280000000000000
B0645313219091S11710194EA0126001284000000000000
B0645353219146S11710224EA0126301285000000000000
B0645393219208S11710204EA0126301284000000000000
B0645433219266S11710156EA0125801276000000000000
B0645473219318S11710096EA0125101269000000000000
B0645513219370S11710033EA0124001256000000000000
B0645553219433S11709979EA0122501239000000000000
B0645593219506S11709940EA0121501230000000000000
B0646033219580S11709908EA0121201229000000000000
B0646073219650S11709883EA0121301234000000000000
B0646113219719S11709861EA0121701236000000000000
B0646153219784S11709841EA0122101242000000000000
B0646193219847S11709819EA0122601246000000000000
B0646233219907S11709796EA0122901249000000000000
B0646273219965S11709767EA0123201256000000000000
B0646313220026S11709749EA0123901261000000000000
B0646353220090S11709747EA0125101275000000000000
B0646393220151S11709748EA0126901293000000000000
B0646433220202S11709719EA0128901315000000000000
B0646473220185S11709653EA0130901337000000000000
B0646513220116S11709636EA0131601343000000000000
B0646553220051S11709678EA0132401354000000000000
B0646593220031S11709750EA0133501368000000000000
B0647033220066S11709795EA0134901384000000000000
B0647073220107S11709765EA0136401395000000000000
B0647113220099S11709697EA0137101403000000000000
B0647153220034S11709662EA0138401417000000000000
B0647193219969S11709701EA0140001432000000000000
B0647233219955S11709775EA0141001443000000000000
B0647273219996S11709812EA0141901451000000000000
B0647313220033S11709769EA0143001466000000000000
B0647353220008S11709698EA0144201475000000000000
B0647393219935S11709695EA0145401496000000000000
B0647433219896S11709756EA0147001509000000000000
B0647473219916S11709814EA0147401510000000000000
B0647513219968S11709818EA0148001518000000000000
B0647553219995S11709761EA0149201534000000000000
B0647593219965S11709692EA0150901549000000000000
B0648033219896S11709669EA0151801557000000000000
B0648073219836S11709714EA0152601567000000000000
B0648113219822S11709789EA0153101568000000000000
B0648153219860S11709839EA0153401575000000000000
B0648193219914S11709854EA0153301567000000000000
B0648233219983S11709851EA0151701546000000000000
B0648273220065S11709843EA0150501540000000000000
B0648313220148S11709844EA0150701542000000000000
B0648353220230S11709849EA0151001546000000000000
B0648393220311S11709860EA0151501545000000000000
B0648433220391S11709877EA0150901541000000000000
B0648473220471S11709893EA0149901528000000000000
B0648513220551S11709913EA0148101507000000000000
B0648553220635S11709942EA0145901484000000000000
B0648593220719S11709982EA0144501473000000000000
B0649033220802S11710018EA0143301460000000000000
B0649073220885S11710049EA0143201465000000000000
B0649113220963S11710079EA0143701469000000000000
B0649153221039S11710111EA0143601467000000000000
B0649193221113S11710139EA0143101461000000000000
B0649233221190S11710169EA0142501458000000000000
B0649273221262S11710202EA0143201469000000000000
B0649313221335S11710235EA0143601466000000000000
B0649353221409S11710273EA0143201469000000000000
B0649393221485S11710312EA0141901451000000000000
B0649433221563S11710348EA0140601439000000000000
B0649473221641S11710381EA0140401435000000000000
B0649513221717S11710407EA0140101434000000000000
B0649553221794S11710434EA0139701429000000000000
B0649593221871S11710456EA0140101432000000000000
B0650033221942S11710477EA0140701441000000000000
B0650073222011S11710498EA0139501426000000000000
B0650113222084S11710519EA0139001425000000000000
B0650153222153S11710541EA0138801420000000000000
B0650193222222S11710568EA0137601406000000000000
B0650233222292S11710594EA0137201404000000000000
B0650273222361S11710619EA0136701395000000000000
B0650313222429S11710642EA0136101391000000000000
B0650353222497S11710667EA0135101376000000000000
B0650393222570S11710690EA0134601377000000000000
B0650433222642S11710718EA0134701377000000000000
B0650473222711S11710746EA0134701376000000000000
B0650513222780S11710779EA0133901366000000000000
B0650553222854S11710810EA0131901344000000000000
B0650593222930S11710842EA0130601335000000000000
B0651033223006S11710872EA0130001322000000000000
B0651073223082S11710902EA0129301320000000000000
B0651113223157S11710933EA0130001333000000000000
B0651153223223S11710962EA0132501366000000000000
B0651193223281S11710989EA0134901386000000000000
B0651233223342S11711015EA0135701391000000000000
B0651273223406S11711041EA0136201394000000000000
B0651313223472S11711067EA0136501394000000000000
B0651353223544S11711097EA0135401377000000000000
B0651393223617S11711130EA0134901381000000000000
B0651433223688S11711161EA0134901376000000000000
B0651473223760S11711193EA0134001361000000000000
B0651513223835S11711225EA0132801352000000000000
B0651553223911S11711255EA0131801341000000000000
B0651593223985S11711287EA0130601326000000000000
B0652033224059S11711322EA0129301314000000000000
B0652073224132S11711359EA0128401304000000000000
B0652113224204S11711395EA0127801299000000000000
B0652153224277S11711430EA0126901286000000000000
B0652193224351S11711463EA0125801278000000000000
B0652233224425S11711491EA0125701277000000000000
B0652273224498S11711516EA0125601279000000000000
B0652313224571S11711541EA0125201271000000000000
B0652353224646S11711564EA0123901252000000000000
B0652393224724S11711589EA0122201232000000000000
B0652433224802S11711616EA0120901227000000000000
B0652473224878S11711638EA0120901224000000000000
B0652513224949S11711656EA0120501222000000000000
B0652553225019S11711668EA0120401223000000000000
B0652593225087S11711671EA0120801232000000000000
B0653033225153S11711674EA0121001229000000000000
B0653073225217S11711682EA0122001248000000000000
B0653113225274S11711694EA0123601264000000000000
B0653153225333S11711702EA0124101266000000000000
B0653193225395S11711712EA0124001257000000000000
B0653233225461S11711724EA0123201250000000000000
B0653273225528S11711737EA0123101246000000000000
B0653313225597S11711754EA0121801227000000000000
B0653353225669S11711775EA0120201206000000000000
B0653393225747S11711795EA0118001188000000000000
B0653433225823S11711815EA0117501184000000000000
B0653473225898S11711836EA0116201166000000000000
B0653513225976S11711853EA0114501148000000000000
B0653553226056S11711866EA0112901130000000000000
B0653593226135S11711888EA0111201119000000000000
B0654033226210S11711911EA0111401130000000000000
B0654073226278S11711933EA0112401143000000000000
B0654113226342S11711953EA0113401152000000000000
B0654153226405S11711971EA0113501147000000000000
B0654193226473S11711992EA0112201126000000000000
B0654233226544S11712010EA0111701130000000000000
B0654273226615S11712028EA0112001130000000000000
B0654313226683S11712040EA0112401142000000000000
B0654353226747S11712027EA0113301148000000000000
B0654393226802S11711986EA0112701138000000000000
B0654433226855S11711933EA0111201119000000000000
B0654473226916S11711880EA0109601106000000000000
B0654513226976S11711827EA0109401104000000000000
B0654553227034S11711773EA0109101103000000000000
B0654593227088S11711717EA0108501094000000000000
B0655033227141S11711661EA0107601085000000000000
B0655073227190S11711602EA0106401066000000000000
B0655113227246S11711542EA0104501047000000000000
B0655153227305S11711482EA0103501038000000000000
B0655193227362S11711427EA0103001034000000000000
B0655233227423S11711386EA0102401025000000000000
B0655273227491S11711362EA0101401016000000000000
B0655313227558S11711372EA0101001013000000000000
B0655353227623S11711391EA0100801013000000000000
B0655393227690S11711404EA0100601008000000000000
B0655433227756S11711409EA0100501005000000000000
B0655473227821S11711396EA0099901002000000000000
B0655513227885S11711383EA0099400994000000000000
B0655553227954S11711383EA0098500980000000000000
B0655593228024S11711379EA0097700974000000000000
B0656033228091S11711362EA0097600975000000000000
B0656073228160S11711355EA0097700976000000000000
B0656113228224S11711351EA0097900981000000000000
B0656153228285S11711342EA0097600975000000000000
B0656193228350S11711329EA0096500965000000000000
B0656233228411S11711318EA0096800972000000000000
B0656273228471S11711310EA0097200971000000000000
B0656313228533S11711304EA0096500966000000000000
B0656353228596S11711296EA0095700950000000000000
B0656393228661S11711287EA0094100934000000000000
B0656433228724S11711269EA0092900922000000000000
B0656473228788S11711242EA0092000913000000000000
B0656513228853S11711213EA0091100904000000000000
B0656553228919S11711199EA0090400898000000000000
B0656593228983S11711214EA0090000895000000000000
B0657033229046S11711240EA0089500888000000000000
B0657073229112S11711262EA0088600876000000000000
B0657113229179S11711283EA0087900870000000000000
B0657153229250S11711301EA0086800855000000000000
B0657193229320S11711308EA0086700858000000000000
B0657233229387S11711307EA0086500856000000000000
B0657273229454S11711292EA0086200854000000000000
B0657313229517S11711275EA0086000849000000000000
B0657353229582S11711268EA0086400857000000000000
B0657393229641S11711278EA0087400871000000000000
B0657433229694S11711294EA0088400877000000000000
B0657473229735S11711262EA0089200890000000000000
B0657513229712S11711204EA0089900896000000000000
B0657553229644S11711188EA0089800897000000000000
B0657593229588S11711240EA0090300906000000000000
B0658033229603S11711291EA0091300915000000000000
B0658073229629S11711256EA0091600918000000000000
B0658113229594S11711199EA0091800920000000000000
B0658153229520S11711201EA0092100924000000000000
B0658193229490S11711269EA0093400938000000000000
B0658233229524S11711308EA0093900939000000000000
B0658273229560S11711271EA0094200945000000000000
B0658313229536S11711210EA0095100953000000000000
B0658353229465S11711200EA0095600958000000000000
B0658393229425S11711260EA0096800972000000000000
B0658433229449S11711308EA0097300973000000000000
B0658473229493S11711290EA0096900970000000000000
B0658513229502S11711227EA0097200976000000000000
B0658553229443S11711192EA0097600976000000000000
B0658593229376S11711227EA0097400979000000000000
B0659033229364S11711296EA0098400991000000000000
B0659073229404S11711321EA0098900992000000000000
B0659113229437S11711277EA0099000992000000000000
B0659153229399S11711216EA0099601007000000000000
B0659193229329S11711221EA0100301006000000000000
B0659233229304S11711292EA0100601011000000000000
B0659273229343S11711339EA0100801013000000000000
B0659313229382S11711307EA0101401022000000000000
B0659353229358S11711239EA0102001028000000000000
B0659393229287S11711217EA0102501033000000000000
B0659433229237S11711269EA0103101040000000000000
B0659473229246S11711338EA0103201037000000000000
B0659513229294S11711352EA0103101041000000000000
B0659553229321S11711299EA0103701044000000000000
B0659593229283S11711234EA0104101049000000000000
B0700033229209S11711232EA0104901058000000000000
B0700073229159S11711291EA0105401066000000000000
B0700113229161S11711364EA0105601060000000000000
B0700153229209S11711392EA0104801051000000000000
B0700193229268S11711378EA0104301049000000000000
B0700233229311S11711331EA0104701053000000000000
B0700273229286S11711266EA0104901056000000000000
B0700313229213S11711238EA0104501051000000000000
B0700353229131S11711247EA0104701054000000000000
B0700393229078S11711312EA0105801066000000000000
B0700433229082S11711387EA0106101070000000000000
B0700473229130S11711412EA0106101067000000000000
B0700513229163S11711366EA0106401075000000000000
B0700553229131S11711303EA0107201084000000000000
B0700593229060S11711300EA0108101096000000000000
B0701033229021S11711364EA0108401094000000000000
B0701073229043S11711425EA0108201091000000000000
B0701113229092S11711417EA0108001091000000000000
B0701153229107S11711355EA0108601100000000000000
B0701193229062S11711299EA0109401109000000000000
B0701233228992S11711314EA0109701109000000000000
B0701273228962S11711386EA0109901113000000000000
B0701313228974S11711457EA0109501105000000000000
B0701353229018S11711491EA0109001100000000000000
B0701393229075S11711482EA0107701081000000000000
B0701433229137S11711453EA0106301071000000000000
B0701473229199S11711421EA0104901052000000000000
B0701513229270S11711396EA0103301038000000000000
B0701553229337S11711370EA0103301042000000000000
B0701593229398S11711334EA0103101041000000000000
B0702033229456S11711294EA0102501031000000000000
B0702073229520S11711256EA0101301016000000000000
B0702113229586S11711227EA0101001015000000000000
B0702153229649S11711187EA0100401005000000000000
B0702193229707S11711131EA0099300992000000000000
B0702233229768S11711080EA0098200984000000000000
B0702273229827S11711036EA0099000995000000000000
B0702313229878S11710992EA0099701003000000000000
B0702353229926S11710945EA0100101006000000000000
B0702393229976S11710902EA0101001015000000000000
B0702433230009S11710846EA0103001038000000000000
B0702473229962S11710803EA0105201063000000000000
B0702513229904S11710836EA0105101061000000000000
B0702553229905S11710909EA0105801076000000000000
B0702593229952S11710918EA0106901086000000000000
B0703033229963S11710862EA0108301103000000000000
B0703073229914S11710814EA0109501112000000000000
B0703113229842S11710832EA0109801111000000000000
B0703153229816S11710910EA0110401122000000000000
B0703193229855S11710959EA0111401128000000000000
B0703233229905S11710935EA0111901133000000000000
B0703273229900S11710867EA0113001144000000000000
B0703313229833S11710854EA0114301163000000000000
B0703353229790S11710914EA0115001163000000000000
B0703393229819S11710974EA0115001165000000000000
B0703433229872S11710958EA0115001163000000000000
B0703473229888S11710885EA0115101168000000000000
B0703513229844S11710820EA0115901180000000000000
B0703553229771S11710829EA0117701205000000000000
B0703593229738S11710893EA0119201214000000000000
B0704033229775S11710933EA0119801217000000000000
B0704073229813S11710892EA0120101225000000000000
B0704113229798S11710819EA0120701229000000000000
B0704153229729S11710780EA0120901234000000000000
B0704193229663S11710820EA0122601251000000000000
B0704233229658S11710896EA0123801262000000000000
B0704273229707S11710924EA0124601268000000000000
B0704313229740S11710871EA0125801281000000000000
B0704353229692S11710811EA0126801294000000000000
B0704393229621S11710832EA0128101313000000000000
B0704433229607S11710902EA0129401326000000000000
B0704473229651S11710940EA0130101330000000000000
B0704513229693S11710902EA0131601348000000000000
B0704553229660S11710839EA0132801359000000000000
B0704593229586S11710832EA0133901371000000000000
B0705033229538S11710892EA0135101383000000000000
B0705073229546S11710963EA0136001390000000000000
B0705113229589S11711006EA0136801398000000000000
B0705153229640S11710992EA0137701405000000000000
B0705193229670S11710930EA0137801405000000000000
B0705233229654S11710855EA0138601416000000000000
B0705273229590S11710810EA0138901420000000000000
B0705313229511S11710806EA0139501432000000000000
B0705353229480S11710868EA0141601454000000000000
B0705393229520S11710904EA0142401462000000000000
B0705433229560S11710857EA0143101467000000000000
B0705473229529S11710785EA0144201483000000000000
B0705513229455S11710770EA0145701499000000000000
B0705553229397S11710820EA0147201511000000000000
B0705593229394S11710897EA0148301524000000000000
B0706033229445S11710924EA0149001531000000000000
B0706073229482S11710867EA0149501534000000000000
B0706113229442S11710793EA0150301547000000000000
B0706153229364S11710784EA0151801563000000000000
B0706193229313S11710850EA0152501570000000000000
B0706233229316S11710932EA0153301579000000000000
B0706273229360S11710984EA0154001583000000000000
B0706313229423S11710983EA0154401583000000000000
B0706353229465S11710928EA0155101597000000000000
B0706393229451S11710846EA0156001601000000000000
B0706433229389S11710796EA0157101616000000000000
B0706473229332S11710836EA0158201626000000000000
B0706513229338S11710909EA0158701630000000000000
B0706553229385S11710949EA0159401634000000000000
B0706593229438S11710918EA0159501636000000000000
B0707033229426S11710837EA0160101642000000000000
B0707073229354S11710810EA0160901651000000000000
B0707113229287S11710849EA0161701661000000000000
B0707153229277S11710923EA0162401663000000000000
B0707193229324S11710974EA0161901654000000000000
B0707233229394S11710991EA0160601639000000000000
B0707273229476S11710989EA0159901637000000000000
B0707313229559S11710978EA0159801634000000000000
B0707353229641S11710958EA0159701635000000000000
B0707393229722S11710943EA0159901640000000000000
B0707433229798S11710940EA0159901639000000000000
B0707473229874S11710940EA0159501632000000000000
B0707513229952S11710949EA0159101625000000000000
B0707553230031S11710959EA0158601618000000000000
B0707593230112S11710966EA0157701604000000000000
B0708033230195S11710972EA0156301593000000000000
B0708073230279S11710983EA0155401583000000000000
B0708113230366S11711001EA0154101566000000000000
B0708153230453S11711022EA0152801555000000000000
B0708193230542S11711043EA0152101551000000000000
B0708233230629S11711065EA0151701545000000000000
B0708273230717S11711087EA0151201539000000000000
B0708313230804S11711108EA0151101540000000000000
B0708353230889S11711126EA0151001540000000000000
B0708393230971S11711144EA0151101540000000000000
B0708433231051S11711161EA0150601533000000000000
B0708473231132S11711178EA0149901527000000000000
B0708513231211S11711203EA0150201530000000000000
B0708553231291S11711227EA0149801528000000000000
B0708593231371S11711247EA0149801525000000000000
B0709033231452S11711264EA0149301523000000000000
B0709073231534S11711275EA0148601514000000000000
B0709113231614S11711288EA0147901504000000000000
B0709153231696S11711291EA0147001496000000000000
B0709193231774S11711296EA0147001501000000000000
B0709233231850S11711308EA0147701509000000000000
B0709273231921S11711317EA0148301515000000000000
B0709313231989S11711329EA0148101512000000000000
B0709353232060S11711334EA0147801510000000000000
B0709393232130S11711340EA0148101514000000000000
B0709433232202S11711351EA0147201499000000000000
B0709473232276S11711364EA0146501495000000000000
B0709513232349S11711372EA0146801498000000000000
B0709553232423S11711377EA0146301491000000000000
B0709593232497S11711381EA0145501481000000000000
B0710033232572S11711383EA0144601473000000000000
B0710073232649S11711386EA0144101467000000000000
B0710113232726S11711385EA0143601461000000000000
B0710153232803S11711382EA0143701464000000000000
B0710193232877S11711383EA0143101456000000000000
B0710233232953S11711385EA0142101448000000000000
B0710273233029S11711382EA0142101446000000000000
B0710313233104S11711374EA0141701443000000000000
B0710353233180S11711361EA0141101438000000000000
B0710393233256S11711352EA0140601430000000000000
B0710433233336S11711347EA0139701417000000000000
B0710473233417S11711344EA0138601407000000000000
B0710513233501S11711344EA0138201405000000000000
B0710553233581S11711348EA0137601391000000000000
B0710593233666S11711346EA0135701377000000000000
B0711033233748S11711348EA0134901366000000000000
B0711073233830S11711346EA0134001362000000000000
B0711113233911S11711338EA0133301351000000000000
B0711153233993S11711330EA0132601341000000000000
B0711193234077S11711320EA0131201326000000000000
B0711233234158S11711304EA0130701323000000000000
B0711273234240S11711291EA0130201321000000000000
B0711313234318S11711278EA0130101318000000000000
B0711353234395S11711271EA0129801313000000000000
B0711393234470S11711257EA0128701298000000000000
B0711433234548S11711249EA0127501290000000000000
B0711473234621S11711236EA0127801295000000000000
B0711513234686S11711205EA0128101300000000000000
B0711553234745S11711167EA0128601306000000000000
B0711593234799S11711123EA0128401301000000000000
B0712033234850S11711074EA0127801296000000000000
B0712073234902S11711024EA0127001285000000000000
B0712113234954S11710974EA0125901274000000000000
B0712153235005S11710920EA0125401271000000000000
B0712193235050S11710866EA0125001266000000000000
B0712233235097S11710816EA0124501262000000000000
B0712273235150S11710776EA0124101257000000000000
B0712313235209S11710750EA0124201262000000000000
B0712353235266S11710745EA0125501277000000000000
B0712393235321S11710745EA0126001278000000000000
B0712433235375S11710740EA0126101279000000000000
B0712473235431S11710728EA0126501281000000000000
B0712513235488S11710711EA0125401264000000000000
B0712553235555S11710680EA0124501264000000000000
B0712593235618S11710644EA0125401277000000000000
B0713033235676S11710605EA0126301287000000000000
B0713073235728S11710556EA0126001274000000000000
B0713113235787S11710514EA0124201257000000000000
B0713153235848S11710475EA0124301263000000000000
B0713193235908S11710441EA0125001270000000000000
B0713233235965S11710410EA0125401273000000000000
B0713273236024S11710377EA0125501273000000000000
B0713313236085S11710348EA0124701258000000000000
B0713353236151S11710317EA0123101240000000000000
B0713393236220S11710290EA0121701228000000000000
B0713433236290S11710264EA0120601214000000000000
B0713473236361S11710235EA0120001212000000000000
B0713513236430S11710209EA0120001216000000000000
B0713553236498S11710189EA0120501218000000000000
B0713593236566S11710166EA0120101215000000000000
B0714033236635S11710142EA0119701211000000000000
B0714073236703S11710114EA0119101204000000000000
B0714113236771S11710083EA0118501201000000000000
B0714153236834S11710053EA0119301215000000000000
B0714193236891S11710021EA0120401225000000000000
B0714233236946S11709987EA0120701223000000000000
B0714273237004S11709951EA0119801214000000000000
B0714313237063S11709913EA0119001205000000000000
B0714353237125S11709877EA0118201197000000000000
B0714393237189S11709844EA0117101181000000000000
B0714433237256S11709814EA0115901169000000000000
B0714473237324S11709787EA0114701158000000000000
B0714513237393S11709760EA0113601147000000000000
B0714553237462S11709734EA0112701137000000000000
B0714593237531S11709713EA0112001131000000000000
B0715033237598S11709696EA0111401128000000000000
B0715073237663S11709678EA0110901118000000000000
B0715113237728S11709665EA0110001105000000000000
B0715153237793S11709656EA0109001097000000000000
B0715193237858S11709644EA0108301091000000000000
B0715233237922S11709628EA0107901086000000000000
B0715273237984S11709617EA0107501084000000000000
B0715313238044S11709604EA0107501083000000000000
B0715353238103S11709600EA0107401083000000000000
B0715393238161S11709593EA0107001078000000000000
B0715433238221S11709574EA0106601071000000000000
B0715473238282S11709549EA0106601081000000000000
B0715513238329S11709511EA0108601101000000000000
B0715553238312S11709438EA0109801113000000000000
B0715593238239S11709411EA0109801107000000000000
B0716033238172S11709444EA0109201104000000000000
B0716073238142S11709513EA0109701115000000000000
B0716113238152S11709579EA0110401119000000000000
B0716153238192S11709617EA0110101117000000000000
B0716193238246S11709614EA0110201120000000000000
B0716233238296S11709584EA0111001129000000000000
B0716273238289S11709516EA0112001141000000000000
B0716313238221S11709490EA0112101137000000000000
B0716353238164S11709537EA0112001138000000000000
B0716393238162S11709602EA0112301146000000000000
B0716433238208S11709609EA0113301156000000000000
B0716473238226S11709544EA0113701157000000000000
B0716513238179S11709483EA0113901159000000000000
B0716553238108S11709490EA0113901159000000000000
B0716593238079S11709552EA0114501167000000000000
B0717033238104S11709592EA0115401179000000000000
B0717073238147S11709585EA0116001183000000000000
B0717113238168S11709531EA0116101180000000000000
B0717153238126S11709470EA0115901180000000000000
B0717193238057S11709464EA0116401187000000000000
B0717233238004S11709509EA0116601185000000000000
B0717273237979S11709574EA0116601186000000000000
B0717313237997S11709626EA0117201197000000000000
B0717353238038S11709622EA0117801201000000000000
B0717393238060S11709567EA0117701199000000000000
B0717433238032S11709497EA0117801202000000000000
B0717473237966S11709472EA0117901202000000000000
B0717513237910S11709510EA0118401206000000000000
B0717553237904S11709570EA0119201217000000000000
B0717593237939S11709592EA0119401214000000000000
B0718033237987S11709585EA0118401203000000000000
B0718073238039S11709571EA0118001202000000000000
B0718113238092S11709561EA0117401190000000000000
