ACAM4N6
HFDTE190215
HFFXA050
HFPLTPILOT:JOHN WELSH              
HFGTYGLIDERTYPE:HORNET      
HFGIDGLIDERID:VH-GMY      
HFDTM100GPSDATUM:
HFRFWFIRMWAREVERSION:F2.6
HFRHWHARDWAREVERSION:300 Series Version 2
HFFTYFRTYPE:CAMBRIDGE AERO INSTRUMENTS, 302+
HFGPS:GARMIN,LVS-25,12,18000
HFPRSPRESSALTSENSOR:INTERSEMA, MS5534-AP, 20000
I033638FXA3941ENL4247REX
LCAMSBVER:5FWVER:F26300
C190215050202190215000101
C0000000N00000000WTAKEOFF     
C3207547S11656819EBeverley AF 
C3222566S11700865EBROOKTON    
C3207547S11656879EBeverley Air
C0000000N00000000WLANDING     
B0507353207342S11656856EA0020300202000000000000
B0507373207342S11656856EA0020400202000000000000
B0507393207342S11656856EA0020300202000000000000
B0507413207342S11656856EA0020200202000000000000
B0507433207342S11656856EA0020200202000000000000
B0507453207342S11656856EA0020300202000000000000
B0507473207342S11656856EA0020300202000000000000
B0507493207342S11656856EA0020300202000000000000
B0507513207342S11656856EA0020200202000000000000
B0507533207342S11656856EA0020200202000000000000
B0507553207342S11656856EA0020300202000000000000
B0507573207342S11656856EA0020300202000000000000
B0507593207342S11656856EA0020300202000000000000
B0508013207342S11656856EA0020200202000000000000
B0508033207343S11656857EA0020200202000000000000
B0508063207349S11656862EA0020400202000000000000
B0508103207371S11656880EA0020100201000000000000
B0508143207407S11656908EA0020200202000000000000
B0508183207459S11656939EA0020000202000000000000
B0508223207520S11656975EA0020100203000000000000
B0508263207585S11657018EA0020400208000000000000
B0508303207653S11657061EA0021500226000000000000
B0508343207718S11657101EA0023400250000000000000
B0508383207783S11657138EA0025500266000000000000
B0508423207844S11657177EA0026500285000000000000
B0508463207902S11657220EA0029500309000000000000
B0508503207957S11657270EA0030900323000000000000
B0508543208002S11657339EA0032000337000000000000
B0508583208035S11657417EA0033400361000000000000
B0509023208058S11657506EA0035300375000000000000
B0509063208071S11657595EA0036500392000000000000
B0509103208077S11657686EA0038600413000000000000
B0509143208075S11657775EA0040800439000000000000
B0509183208070S11657862EA0043800471000000000000
B0509223208064S11657952EA0045800485000000000000
B0509263208057S11658039EA0048100519000000000000
B0509303208041S11658125EA0051200548000000000000
B0509343207997S11658200EA0053400564000000000000
B0509383207923S11658247EA0055100581000000000000
B0509423207839S11658260EA0056700598000000000000
B0509463207753S11658235EA0058300612000000000000
B0509503207680S11658173EA0059200619000000000000
B0509543207637S11658086EA0060300634000000000000
B0509583207628S11657988EA0061500654000000000000
B0510023207650S11657896EA0063700674000000000000
B0510063207698S11657822EA0065000687000000000000
B0510103207765S11657776EA0066800712000000000000
B0510143207833S11657749EA0069800742000000000000
B0510183207882S11657694EA0072100758000000000000
B0510223207876S11657618EA0073100768000000000000
B0510263207815S11657585EA0073200766000000000000
B0510303207757S11657621EA0072700761000000000000
B0510343207744S11657694EA0072600763000000000000
B0510383207783S11657749EA0072900766000000000000
B0510423207843S11657754EA0073500778000000000000
B0510463207870S11657693EA0074900792000000000000
B0510503207830S11657636EA0075900798000000000000
B0510543207765S11657644EA0076200801000000000000
B0510583207735S11657705EA0076800810000000000000
B0511023207755S11657761EA0077900821000000000000
B0511063207806S11657771EA0078700829000000000000
B0511103207845S11657723EA0079300839000000000000
B0511143207826S11657654EA0080400849000000000000
B0511183207765S11657637EA0081200856000000000000
B0511223207720S11657680EA0081800861000000000000
B0511263207727S11657745EA0082100866000000000000
B0511303207775S11657771EA0083000875000000000000
B0511343207818S11657733EA0083800884000000000000
B0511383207806S11657667EA0084800895000000000000
B0511423207750S11657644EA0086000907000000000000
B0511463207706S11657683EA0086800913000000000000
B0511503207713S11657744EA0087500921000000000000
B0511543207755S11657770EA0088000923000000000000
B0511583207805S11657740EA0087800927000000000000
B0512023207813S11657668EA0088500931000000000000
B0512063207765S11657614EA0088600935000000000000
B0512103207707S11657632EA0089700947000000000000
B0512143207719S11657688EA0090500952000000000000
B0512183207770S11657685EA0091100961000000000000
B0512223207798S11657627EA0091900969000000000000
B0512263207772S11657562EA0092800977000000000000
B0512303207713S11657551EA0093200976000000000000
B0512343207674S11657603EA0093200978000000000000
B0512383207681S11657667EA0093900986000000000000
B0512423207728S11657692EA0094600994000000000000
B0512463207772S11657655EA0095501004000000000000
B0512503207761S11657585EA0096001008000000000000
B0512543207701S11657555EA0096801018000000000000
B0512583207653S11657588EA0097701025000000000000
B0513023207649S11657650EA0098101029000000000000
B0513063207690S11657689EA0098601036000000000000
B0513103207741S11657676EA0099501042000000000000
B0513143207771S11657620EA0099701046000000000000
B0513183207759S11657547EA0099701046000000000000
B0513223207707S11657493EA0099701043000000000000
B0513263207637S11657475EA0099501047000000000000
B0513303207588S11657514EA0100201050000000000000
B0513343207593S11657580EA0099901046000000000000
B0513383207644S11657601EA0100201054000000000000
B0513423207685S11657550EA0100901063000000000000
B0513463207668S11657475EA0101501065000000000000
B0513503207603S11657436EA0100901058000000000000
B0513543207536S11657451EA0101301065000000000000
B0513583207490S11657502EA0102101071000000000000
B0514023207475S11657564EA0102701080000000000000
B0514063207498S11657618EA0103001075000000000000
B0514103207550S11657627EA0102001069000000000000
B0514143207593S11657579EA0101801074000000000000
B0514183207597S11657504EA0102301075000000000000
B0514223207567S11657433EA0102401076000000000000
B0514263207521S11657374EA0102401077000000000000
B0514303207462S11657348EA0102701078000000000000
B0514343207403S11657367EA0102401074000000000000
B0514383207368S11657421EA0102001071000000000000
B0514423207367S11657485EA0102301075000000000000
B0514463207397S11657534EA0101801068000000000000
B0514503207451S11657553EA0100801058000000000000
B0514543207506S11657520EA0100301062000000000000
B0514583207533S11657447EA0100701063000000000000
B0515023207525S11657363EA0100401057000000000000
B0515063207499S11657277EA0099401045000000000000
B0515103207458S11657196EA0098301033000000000000
B0515143207408S11657120EA0097501024000000000000
B0515183207347S11657053EA0096701012000000000000
B0515223207272S11657009EA0095300996000000000000
B0515263207189S11656994EA0094100986000000000000
B0515303207109S11657007EA0093100974000000000000
B0515343207035S11657039EA0092000963000000000000
B0515383206962S11657078EA0091200954000000000000
B0515423206892S11657122EA0090200945000000000000
B0515463206823S11657168EA0089300936000000000000
B0515503206756S11657213EA0088800930000000000000
B0515543206688S11657259EA0088000918000000000000
B0515583206621S11657306EA0086900908000000000000
B0516023206557S11657358EA0085700895000000000000
B0516063206494S11657410EA0084800889000000000000
B0516103206433S11657464EA0083900876000000000000
B0516143206372S11657516EA0082800866000000000000
B0516183206310S11657564EA0082200861000000000000
B0516223206249S11657610EA0081800856000000000000
B0516263206190S11657653EA0081800856000000000000
B0516303206134S11657693EA0081700852000000000000
B0516343206077S11657733EA0081000844000000000000
B0516383206019S11657774EA0080500839000000000000
B0516423205959S11657814EA0080100840000000000000
B0516463205899S11657854EA0080400841000000000000
B0516503205854S11657917EA0081300849000000000000
B0516543205859S11657980EA0083700857000000000000
B0516583205906S11657985EA0085200865000000015000
B0517023205945S11657914EA0085900881000000015000
B0517063205909S11657854EA0086900895000000000000
B0517103205847S11657850EA0087600905000000000000
B0517143205800S11657901EA0088500913000000000000
B0517183205796S11657971EA0089300925000000000000
B0517223205839S11658008EA0090500936000000000000
B0517263205890S11657984EA0091200944000000000000
B0517303205899S11657913EA0092500961000000000000
B0517343205856S11657861EA0094300981000000000000
B0517383205799S11657863EA0095700991000000000000
B0517423205765S11657919EA0096000995000000000000
B0517463205785S11657979EA0097001004000000000000
B0517503205835S11657979EA0097701016000000000000
B0517543205848S11657914EA0098501024000000000000
B0517583205799S11657866EA0098901033000000000000
B0518023205738S11657885EA0099701040000000000000
B0518063205713S11657950EA0100501051000000000000
B0518103205737S11658005EA0102001059000000000000
B0518143205785S11658013EA0102601066000000000000
B0518183205822S11657967EA0103101075000000000000
B0518223205817S11657900EA0104101086000000000000
B0518263205764S11657865EA0105201097000000000000
B0518303205714S11657901EA0106001106000000000000
B0518343205718S11657962EA0107001114000000000000
B0518383205761S11657985EA0107701120000000000000
B0518423205804S11657948EA0108501130000000000000
B0518463205799S11657880EA0109601141000000000000
B0518503205746S11657842EA0110201145000000000000
B0518543205685S11657867EA0110601151000000000000
B0518583205660S11657932EA0111501161000000000000
B0519023205686S11657991EA0112101163000000000000
B0519063205742S11657997EA0112001165000000000000
B0519103205786S11657946EA0112901180000000000000
B0519143205785S11657872EA0114101190000000000000
B0519183205731S11657826EA0114601196000000000000
B0519223205665S11657841EA0115201202000000000000
B0519263205630S11657905EA0115701210000000000000
B0519303205643S11657974EA0116701217000000000000
B0519343205694S11658005EA0116901219000000000000
B0519383205753S11657983EA0117701230000000000000
B0519423205782S11657917EA0118001235000000000000
B0519463205755S11657845EA0118201238000000000000
B0519503205691S11657814EA0118701242000000000000
B0519543205627S11657841EA0118901245000000000000
B0519583205604S11657913EA0119501255000000000000
B0520023205633S11657971EA0120501259000000000000
B0520063205691S11657982EA0120901267000000000000
B0520103205743S11657945EA0122101281000000000000
B0520143205763S11657878EA0122601281000000000000
B0520183205740S11657807EA0121901273000000000000
B0520223205683S11657768EA0121601271000000000000
B0520263205617S11657779EA0121601276000000000000
B0520303205566S11657823EA0122301283000000000000
B0520343205548S11657888EA0123301291000000000000
B0520383205582S11657930EA0123701294000000000000
B0520423205633S11657905EA0123301291000000000000
B0520463205644S11657833EA0123501296000000000000
B0520503205600S11657777EA0124001299000000000000
B0520543205536S11657772EA0124001299000000000000
B0520583205487S11657816EA0124301302000000000000
B0521023205479S11657879EA0124801309000000000000
B0521063205506S11657928EA0124901306000000000000
B0521103205558S11657945EA0124801309000000000000
B0521143205612S11657918EA0125001312000000000000
B0521183205636S11657852EA0125101314000000000000
B0521223205614S11657781EA0125101313000000000000
B0521263205555S11657744EA0124601306000000000000
B0521303205490S11657768EA0124001303000000000000
B0521343205465S11657835EA0124401308000000000000
B0521383205492S11657892EA0124601308000000000000
B0521423205548S11657910EA0124301310000000000000
B0521463205608S11657894EA0124701314000000000000
B0521503205668S11657866EA0124801313000000000000
B0521543205724S11657826EA0124301304000000000000
B0521583205782S11657774EA0123101292000000000000
B0522023205842S11657724EA0121901284000000000000
B0522063205903S11657679EA0121101275000000000000
B0522103205964S11657637EA0120401269000000000000
B0522143206024S11657598EA0119601259000000000000
B0522183206086S11657560EA0118801247000000000000
B0522223206149S11657525EA0117801236000000000000
B0522263206214S11657495EA0117101232000000000000
B0522303206277S11657465EA0116601224000000000000
B0522343206341S11657442EA0115701214000000000000
B0522383206407S11657420EA0114901208000000000000
B0522423206472S11657395EA0114101200000000000000
B0522463206537S11657372EA0113701196000000000000
B0522503206602S11657351EA0113101189000000000000
B0522543206669S11657329EA0112401180000000000000
B0522583206732S11657307EA0112001178000000000000
B0523023206796S11657283EA0111301169000000000000
B0523063206860S11657255EA0110901168000000000000
B0523103206923S11657229EA0111201170000000000000
B0523143206988S11657231EA0111701177000000000000
B0523183207043S11657259EA0112701188000000000000
B0523223207086S11657304EA0112801185000000000000
B0523263207133S11657354EA0112301177000000000000
B0523303207183S11657402EA0111301171000000000000
B0523343207237S11657447EA0110901168000000000000
B0523383207290S11657489EA0110601160000000000000
B0523423207342S11657533EA0109201142000000000000
B0523463207395S11657579EA0107901129000000000000
B0523503207454S11657610EA0107301129000000000000
B0523543207514S11657623EA0106901123000000000000
B0523583207577S11657612EA0106201118000000000000
B0524023207636S11657577EA0105601108000000000000
B0524063207690S11657530EA0104501099000000000000
B0524103207741S11657475EA0103801093000000000000
B0524143207787S11657413EA0103601090000000000000
B0524183207835S11657355EA0102601079000000000000
B0524223207887S11657300EA0101801071000000000000
B0524263207941S11657250EA0101201064000000000000
B0524303208000S11657205EA0101401069000000000000
B0524343208048S11657153EA0103001089000000000000
B0524383208030S11657085EA0105501116000000000000
B0524423207963S11657086EA0106801133000000000000
B0524463207940S11657156EA0108401148000000000000
B0524503207976S11657199EA0109701156000000000000
B0524543208018S11657165EA0110801171000000000000
B0524583208008S11657101EA0112301187000000000000
B0525023207949S11657075EA0113701200000000000000
B0525063207902S11657129EA0115101214000000000000
B0525103207919S11657194EA0116301228000000000000
B0525143207966S11657203EA0117701242000000000000
B0525183207995S11657159EA0118601249000000000000
B0525223207975S11657096EA0119501259000000000000
B0525263207915S11657070EA0120501270000000000000
B0525303207878S11657130EA0121801284000000000000
B0525343207910S11657178EA0123101299000000015000
B0525383207958S11657155EA0124301312000000015000
B0525423207962S11657087EA0125201319000000000000
B0525463207902S11657042EA0126201331000000000000
B0525503207844S11657073EA0127701346000000000000
B0525543207835S11657147EA0128801353000000000000
B0525583207879S11657172EA0129701371000000015000
B0526023207898S11657117EA0131201389000000015000
B0526063207857S11657061EA0132501399000000000000
B0526103207789S11657069EA0133501406000000000000
B0526143207754S11657137EA0134001408000000000000
B0526183207774S11657204EA0134701423000000000000
B0526223207819S11657202EA0136501442000000000000
B0526263207826S11657142EA0137701456000000000000
B0526303207775S11657103EA0138401464000000000000
B0526343207713S11657130EA0139201469000000000000
B0526383207687S11657198EA0140001475000000000000
B0526423207713S11657254EA0140701487000000000000
B0526463207754S11657244EA0141701498000000000000
B0526503207755S11657189EA0142501505000000000000
B0526543207700S11657165EA0143301513000000000000
B0526583207642S11657205EA0143501513000000000000
B0527023207627S11657282EA0143901516000000000000
B0527063207668S11657320EA0144701523000000015000
B0527103207700S11657274EA0145001531000000015000
B0527143207672S11657213EA0145601535000000000000
B0527183207603S11657200EA0145601531000000000000
B0527223207532S11657239EA0145401530000000000000
B0527263207502S11657316EA0146001539000000000000
B0527303207537S11657351EA0147401554000000000000
B0527343207558S11657308EA0148201560000000000000
B0527383207531S11657247EA0148201557000000000000
B0527423207463S11657230EA0148001555000000000000
B0527463207402S11657280EA0148001555000000000000
B0527503207377S11657359EA0147901551000000000000
B0527543207388S11657436EA0147101543000000000000
B0527583207416S11657506EA0145601528000000000000
B0528023207459S11657567EA0144501516000000000000
B0528063207515S11657607EA0143701509000000000000
B0528103207579S11657631EA0142701498000000000000
B0528143207642S11657645EA0141601490000000000000
B0528183207707S11657650EA0141001483000000000000
B0528223207770S11657645EA0140601481000000000000
B0528263207832S11657632EA0140401479000000000000
B0528303207896S11657620EA0139801472000000000000
B0528343207961S11657610EA0138801463000000000000
B0528383208027S11657606EA0138701464000000000000
B0528423208093S11657610EA0138701463000000000000
B0528463208158S11657618EA0138901467000000000000
B0528503208223S11657624EA0139501470000000000000
B0528543208291S11657629EA0139701472000000000000
B0528583208357S11657623EA0140001478000000000000
B0529023208424S11657615EA0140201478000000000000
B0529063208491S11657603EA0139701471000000000000
B0529103208564S11657593EA0138401455000000000000
B0529143208638S11657575EA0137301446000000000000
B0529183208715S11657559EA0136301430000000000000
B0529223208792S11657542EA0135301423000000000000
B0529263208870S11657528EA0133801407000000000000
B0529303208951S11657528EA0132601395000000000000
B0529343209032S11657521EA0131501384000000000000
B0529383209109S11657494EA0130701374000000000000
B0529423209182S11657451EA0129001358000000000000
B0529463209253S11657406EA0128201353000000000000
B0529503209331S11657378EA0128001352000000000000
B0529543209410S11657368EA0128201355000000000000
B0529583209484S11657358EA0128901363000000000000
B0530023209555S11657347EA0129801374000000000000
B0530063209621S11657338EA0130601379000000000000
B0530103209685S11657329EA0130901380000000000000
B0530143209747S11657317EA0131301386000000000000
B0530183209808S11657303EA0131701389000000000000
B0530223209871S11657290EA0132001392000000000000
B0530263209936S11657283EA0131901388000000000000
B0530303210002S11657273EA0130901378000000000000
B0530343210072S11657264EA0130101371000000000000
B0530383210142S11657254EA0129601365000000000000
B0530423210211S11657235EA0129001359000000000000
B0530463210280S11657215EA0128501354000000000000
B0530503210348S11657194EA0128201350000000000000
B0530543210415S11657178EA0127501342000000000000
B0530583210483S11657163EA0127401347000000000000
B0531023210553S11657156EA0127701341000000000000
B0531063210622S11657148EA0126601333000000000000
B0531103210692S11657139EA0125801325000000000000
B0531143210760S11657131EA0125801325000000000000
B0531183210827S11657124EA0125801322000000000000
B0531223210898S11657111EA0125301318000000000000
B0531263210968S11657094EA0124701313000000000000
B0531303211037S11657074EA0124501306000000000000
B0531343211106S11657056EA0123501298000000000000
B0531383211177S11657042EA0122801289000000000000
B0531423211249S11657023EA0122101287000000000000
B0531463211314S11656992EA0123101307000000000000
B0531503211355S11656940EA0125301327000000000000
B0531543211342S11656870EA0126501335000000000000
B0531583211284S11656838EA0126801338000000000000
B0532023211229S11656874EA0127001338000000000000
B0532063211224S11656949EA0126701332000000000000
B0532103211264S11657005EA0126601335000000000000
B0532143211319S11657036EA0127401346000000000000
B0532183211368S11657023EA0128801361000000000000
B0532223211384S11656960EA0129101358000000000000
B0532263211345S11656892EA0128601355000000000000
B0532303211275S11656877EA0128801356000000000000
B0532343211215S11656922EA0128801356000000000000
B0532383211190S11657001EA0128601352000000000000
B0532423211207S11657081EA0128601356000000000000
B0532463211255S11657129EA0129601368000000000000
B0532503211311S11657134EA0130501376000000000000
B0532543211355S11657092EA0131401384000000000000
B0532583211353S11657023EA0131701386000000000000
B0533023211297S11656982EA0131901388000000000000
B0533063211232S11657000EA0132201392000000000000
B0533103211195S11657059EA0132601394000000000000
B0533143211207S11657126EA0132501391000000000000
B0533183211251S11657177EA0132101387000000000000
B0533223211306S11657216EA0132201388000000000000
B0533263211367S11657237EA0132101392000000000000
B0533303211431S11657247EA0132701398000000000000
B0533343211498S11657248EA0132801400000000000000
B0533383211567S11657243EA0132801398000000000000
B0533423211637S11657238EA0133101404000000000000
B0533463211707S11657233EA0133301406000000000000
B0533503211776S11657225EA0133501405000000000000
B0533543211847S11657215EA0133201404000000000000
B0533583211915S11657192EA0132901398000000000000
B0534023211984S11657172EA0132101390000000000000
B0534063212056S11657150EA0130601374000000000000
B0534103212129S11657126EA0129701366000000000000
B0534143212200S11657103EA0129001360000000000000
B0534183212270S11657081EA0128501351000000000000
B0534223212342S11657079EA0128001347000000000000
B0534263212409S11657104EA0127301339000000000000
B0534303212468S11657152EA0126701333000000000000
B0534343212520S11657209EA0126001326000000000000
B0534383212565S11657273EA0125301318000000000000
B0534423212607S11657339EA0124601307000000000000
B0534463212650S11657407EA0123201294000000000000
B0534503212686S11657482EA0122001284000000000000
B0534543212716S11657566EA0121401276000000000000
B0534583212744S11657651EA0120701270000000000000
B0535023212771S11657740EA0120401269000000000000
B0535063212793S11657827EA0120601274000000000000
B0535103212815S11657907EA0120701269000000000000
B0535143212824S11657992EA0120101264000000000000
B0535183212818S11658078EA0119401255000000000000
B0535223212786S11658158EA0118601248000000000000
B0535263212731S11658223EA0118001244000000000000
B0535303212659S11658268EA0118001243000000000000
B0535343212581S11658296EA0117601229000000000000
B0535383212495S11658318EA0115501208000000000000
B0535423212404S11658334EA0114401203000000000000
B0535463212317S11658339EA0113901198000000000000
B0535503212233S11658336EA0113201186000000000000
B0535543212147S11658334EA0112001175000000000000
B0535583212060S11658333EA0110901163000000000000
B0536023211974S11658334EA0109601147000000000000
B0536063211886S11658334EA0108501132000000000000
B0536103211797S11658340EA0108401145000000000000
B0536143211724S11658377EA0110401166000000000000
B0536183211667S11658430EA0112001179000000000000
B0536223211648S11658502EA0113701198000000000000
B0536263211698S11658524EA0115001210000000015000
B0536303211724S11658461EA0115701231000000015000
B0536343211685S11658403EA0118101253000000000000
B0536383211624S11658403EA0119001255000000000000
B0536423211596S11658466EA0119501260000000000000
B0536463211632S11658520EA0120101266000000000000
B0536503211687S11658500EA0121901292000000015000
B0536543211700S11658434EA0124601316000000000000
B0536583211658S11658379EA0125501322000000000000
B0537023211592S11658373EA0125701328000000000000
B0537063211541S11658421EA0126601337000000000000
B0537103211537S11658492EA0127801347000000000000
B0537143211579S11658537EA0129101362000000000000
B0537183211628S11658517EA0130201377000000000000
B0537223211641S11658455EA0131901396000000000000
B0537263211601S11658409EA0133601410000000000000
B0537303211540S11658411EA0134201413000000000000
B0537343211497S11658464EA0134701423000000000000
B0537383211503S11658530EA0136101437000000000000
B0537423211548S11658561EA0137301446000000000000
B0537463211594S11658534EA0138201461000000000000
B0537503211597S11658473EA0140101480000000000000
B0537543211553S11658433EA0141201489000000000000
B0537583211490S11658443EA0142201496000000000000
B0538023211450S11658496EA0143001506000000000000
B0538063211450S11658563EA0144201516000000000000
B0538103211490S11658603EA0144701521000000000000
B0538143211542S11658590EA0145201525000000000000
B0538183211571S11658533EA0146001542000000000000
B0538223211554S11658470EA0147701555000000000000
B0538263211501S11658437EA0148601565000000000000
B0538303211436S11658448EA0149201567000000000000
B0538343211392S11658502EA0149901578000000000000
B0538383211389S11658569EA0151101587000000000000
B0538423211425S11658606EA0152801596000000000000
B0538463211472S11658596EA0152801601000000000000
B0538503211499S11658548EA0153201610000000000000
B0538543211481S11658492EA0154201619000000000000
B0538583211427S11658478EA0154701622000000000000
B0539023211380S11658524EA0154401618000000000000
B0539063211379S11658595EA0154701626000000000000
B0539103211421S11658634EA0155301628000000000000
B0539143211477S11658626EA0155401631000000000000
B0539183211510S11658574EA0156201643000000000000
B0539223211497S11658508EA0156801647000000000000
B0539263211445S11658466EA0157001650000000000000
B0539303211379S11658477EA0157201648000000000000
B0539343211329S11658537EA0156601645000000000000
B0539383211321S11658615EA0157101653000000000000
B0539423211359S11658667EA0158001662000000000000
B0539463211418S11658672EA0158501665000000000000
B0539503211471S11658645EA0159101673000000000000
B0539543211493S11658583EA0160101685000000000000
B0539583211473S11658520EA0160801689000000000000
B0540023211420S11658483EA0160801687000000000000
B0540063211356S11658494EA0160801688000000000000
B0540103211312S11658551EA0160601686000000000000
B0540143211310S11658624EA0160701689000000000000
B0540183211343S11658680EA0160701687000000000000
B0540223211403S11658711EA0159801671000000000000
B0540263211475S11658738EA0158601675000000000000
B0540303211542S11658756EA0160701696000000000000
B0540343211603S11658751EA0162901724000000000000
B0540383211626S11658694EA0164201731000000000000
B0540423211588S11658643EA0163901730000000000000
B0540463211527S11658655EA0164001732000000000000
B0540503211490S11658721EA0164601737000000000000
B0540543211490S11658802EA0164501734000000000000
B0540583211528S11658876EA0164701741000000000000
B0541023211581S11658928EA0165601749000000000000
B0541063211637S11658910EA0165401742000000000000
B0541103211639S11658840EA0164401730000000000000
B0541143211580S11658794EA0163201723000000000000
B0541183211505S11658768EA0163501732000000000000
B0541223211433S11658749EA0164901742000000000000
B0541263211362S11658737EA0165501747000000000000
B0541303211291S11658749EA0165601743000000000000
B0541343211226S11658794EA0165201742000000000000
B0541383211172S11658855EA0166201755000000000000
B0541423211129S11658924EA0166601758000000000000
B0541463211093S11658994EA0166601754000000000000
B0541503211057S11659068EA0166701760000000000000
B0541543211028S11659139EA0168001773000000000000
B0541583211004S11659207EA0168501771000000000000
B0542023210987S11659282EA0167801759000000000000
B0542063210972S11659366EA0166001740000000000000
B0542103210939S11659451EA0164501729000000000000
B0542143210878S11659512EA0163801723000000000000
B0542183210801S11659547EA0163101709000000000000
B0542223210718S11659552EA0161901699000000000000
B0542263210634S11659534EA0161401698000000000000
B0542303210552S11659509EA0161401697000000000000
B0542343210472S11659480EA0161601703000000000000
B0542383210396S11659453EA0162101707000000000000
B0542423210322S11659427EA0162401707000000000000
B0542463210246S11659401EA0162001706000000000000
B0542503210170S11659373EA0161801701000000000000
B0542543210093S11659337EA0161501698000000000000
B0542583210021S11659293EA0161301696000000000000
B0543023209949S11659248EA0161201695000000000000
B0543063209877S11659202EA0161001693000000000000
B0543103209806S11659163EA0161401701000000000000
B0543143209738S11659129EA0161901702000000000000
B0543183209666S11659093EA0161301691000000000000
B0543223209595S11659049EA0160401683000000000000
B0543263209525S11659002EA0159601675000000000000
B0543303209451S11658958EA0158701665000000000000
B0543343209377S11658920EA0158201658000000000000
B0543383209304S11658881EA0157301649000000000000
B0543423209237S11658832EA0156401643000000000000
B0543463209178S11658784EA0156001637000000000000
B0543503209114S11658745EA0155501635000000000000
B0543543209048S11658708EA0156001641000000000000
B0543583208987S11658671EA0157301657000000000000
B0544023208925S11658646EA0159201675000000000000
B0544063208871S11658678EA0160001682000000000000
B0544103208868S11658762EA0160101682000000000000
B0544143208918S11658812EA0160201686000000000000
B0544183208983S11658810EA0160801696000000000000
B0544223209032S11658767EA0161801703000000000000
B0544263209054S11658702EA0162201709000000000000
B0544303209045S11658635EA0162901716000000000000
B0544343209014S11658585EA0163501720000000000000
B0544383208968S11658543EA0163301716000000000000
B0544423208918S11658498EA0162401700000000000000
B0544463208859S11658447EA0161301696000000000000
B0544503208798S11658399EA0161901705000000000000
B0544543208734S11658356EA0161701695000000000000
B0544583208668S11658308EA0160101677000000000000
B0545023208599S11658262EA0159201673000000000000
B0545063208529S11658225EA0159101669000000000000
B0545103208460S11658186EA0158401662000000000000
B0545143208390S11658141EA0158201659000000000000
B0545183208326S11658095EA0158201659000000000000
B0545223208261S11658044EA0157401646000000000000
B0545263208197S11657987EA0156401639000000000000
B0545303208126S11657940EA0155701631000000000000
B0545343208044S11657907EA0154901625000000000000
B0545383207966S11657866EA0154201621000000000000
B0545423207896S11657816EA0153701612000000000000
B0545463207830S11657758EA0152701602000000000000
B0545503207768S11657696EA0152001596000000000000
B0545543207709S11657632EA0151501590000000000000
B0545583207653S11657564EA0151101586000000000000
B0546023207605S11657493EA0151001585000000000000
B0546063207560S11657421EA0150801579000000000000
B0546103207510S11657351EA0149801566000000000000
B0546143207442S11657291EA0148501556000000000000
B0546183207367S11657250EA0148001551000000000000
B0546223207285S11657230EA0147401547000000000000
B0546263207204S11657231EA0147601550000000000000
B0546303207128S11657242EA0147801551000000000000
B0546343207053S11657260EA0147501542000000000000
B0546383206975S11657302EA0145001513000000000000
B0546423206895S11657355EA0143101501000000000000
B0546463206818S11657415EA0142301495000000000000
B0546503206744S11657476EA0142101494000000000000
B0546543206671S11657532EA0142101491000000000000
B0546583206597S11657584EA0141301481000000000000
B0547023206523S11657632EA0140401466000000000000
B0547063206449S11657681EA0138801451000000000000
B0547103206375S11657731EA0137601443000000000000
B0547143206305S11657777EA0137901447000000000000
B0547183206236S11657820EA0137901440000000000000
B0547223206162S11657862EA0136101420000000000000
B0547263206082S11657900EA0134501406000000000000
B0547303206002S11657939EA0133501395000000000000
B0547343205921S11657983EA0132601389000000000000
B0547383205844S11658031EA0132601389000000000000
B0547423205768S11658080EA0132301385000000000000
B0547463205692S11658132EA0131701380000000000000
B0547503205620S11658187EA0131501377000000000000
B0547543205547S11658240EA0130901370000000000000
B0547583205473S11658288EA0130601368000000000000
B0548023205399S11658334EA0130501367000000000000
B0548063205323S11658373EA0130401366000000000000
B0548103205252S11658412EA0129801359000000000000
B0548143205183S11658453EA0129601360000000000000
B0548183205119S11658495EA0129801360000000000000
B0548223205058S11658529EA0129501352000000000000
B0548263204992S11658521EA0128801347000000000000
B0548303204949S11658456EA0127901331000000000000
B0548343204931S11658366EA0126201315000000000000
B0548383204918S11658273EA0125301308000000000000
B0548423204907S11658180EA0125001308000000000000
B0548463204894S11658088EA0124801303000000000000
B0548503204882S11657996EA0124701305000000000000
B0548543204869S11657907EA0125701314000000000000
B0548583204828S11657835EA0126001317000000000000
B0549023204762S11657789EA0126201320000000000000
B0549063204695S11657742EA0127401336000000000000
B0549103204632S11657759EA0128401339000000000000
B0549143204634S11657833EA0128301342000000000000
B0549183204685S11657844EA0129201353000000000000
B0549223204723S11657792EA0130301367000000000000
B0549263204732S11657723EA0131401379000000000000
B0549303204686S11657677EA0131701378000000000000
B0549343204629S11657715EA0130901367000000000000
B0549383204626S11657793EA0130601369000000000000
B0549423204671S11657840EA0131401385000000000000
B0549463204721S11657832EA0132901399000000000000
B0549503204758S11657783EA0133601402000000000000
B0549543204763S11657709EA0133601405000000000000
B0549583204749S11657632EA0133701403000000000000
B0550023204729S11657553EA0133801406000000000000
B0550063204711S11657468EA0133901407000000000000
B0550103204695S11657381EA0134401412000000000000
B0550143204682S11657293EA0134501411000000000000
B0550183204671S11657203EA0134301409000000000000
B0550223204659S11657114EA0134201406000000000000
B0550263204651S11657020EA0132801390000000000000
B0550303204643S11656922EA0131801383000000000000
B0550343204632S11656826EA0131901384000000000000
B0550383204625S11656732EA0132101387000000000000
B0550423204620S11656640EA0132801395000000000000
B0550463204615S11656550EA0132901389000000000000
B0550503204613S11656458EA0132001385000000000000
B0550543204620S11656370EA0132201388000000000000
B0550583204628S11656285EA0132201384000000000000
B0551023204632S11656199EA0131801377000000000000
B0551063204633S11656115EA0130801368000000000000
B0551103204632S11656028EA0129701356000000000000
B0551143204628S11655942EA0129301355000000000000
B0551183204622S11655859EA0128801342000000000000
B0551223204620S11655774EA0127301328000000000000
B0551263204621S11655687EA0126201317000000000000
B0551303204621S11655601EA0125301310000000000000
B0551343204621S11655515EA0124701304000000000000
B0551383204621S11655430EA0125101313000000000000
B0551423204583S11655366EA0127101337000000000000
B0551463204521S11655371EA0128701347000000000000
B0551503204491S11655436EA0127701341000000000000
B0551543204494S11655517EA0127201335000000000000
B0551583204525S11655579EA0127201335000000000000
B0552023204580S11655579EA0127001335000000000000
B0552063204616S11655521EA0126901334000000000000
B0552103204626S11655445EA0126701332000000000000
B0552143204626S11655365EA0126501327000000000000
B0552183204629S11655280EA0125801321000000000000
B0552223204638S11655193EA0125301316000000000000
B0552263204652S11655105EA0124701308000000000000
B0552303204665S11655011EA0124701312000000000000
B0552343204677S11654919EA0125301317000000000000
B0552383204685S11654830EA0126301329000000000000
B0552423204673S11654748EA0128301359000000000000
B0552463204617S11654726EA0131501385000000000000
B0552503204595S11654791EA0132201390000000000000
B0552543204641S11654823EA0134101416000000000000
B0552583204676S11654774EA0135701428000000000000
B0553023204645S11654713EA0136901442000000000000
B0553063204583S11654741EA0138001453000000000000
B0553103204595S11654803EA0140001480000000015000
B0553143204643S11654795EA0142301499000000015000
B0553183204655S11654730EA0142901505000000000000
B0553223204611S11654673EA0144401524000000000000
B0553263204543S11654669EA0145801535000000000000
B0553303204500S11654729EA0146101539000000000000
B0553343204522S11654793EA0147601558000000000000
B0553383204573S11654791EA0149401580000000000000
B0553423204596S11654732EA0150901590000000000000
B0553463204560S11654670EA0152101605000000000000
B0553503204492S11654656EA0152901611000000000000
B0553543204437S11654696EA0153501618000000000000
B0553583204417S11654764EA0153701620000000000000
B0554023204442S11654823EA0154301629000000000000
B0554063204489S11654834EA0156201648000000000000
B0554103204509S11654784EA0157001653000000000000
B0554143204469S11654728EA0157501659000000000000
B0554183204403S11654726EA0157901662000000000000
B0554223204357S11654780EA0157901661000000000000
B0554263204355S11654851EA0158201665000000000000
B0554303204395S11654906EA0158401670000000000000
B0554343204450S11654924EA0158901675000000000000
B0554383204499S11654891EA0158701669000000000000
B0554423204528S11654819EA0157601664000000000000
B0554463204539S11654734EA0157701662000000000000
B0554503204543S11654644EA0158001666000000000000
B0554543204544S11654552EA0157701660000000000000
B0554583204547S11654455EA0156801647000000000000
B0555023204550S11654355EA0155901639000000000000
B0555063204560S11654256EA0154801631000000000000
B0555103204567S11654158EA0155101635000000000000
B0555143204570S11654067EA0155801639000000000000
B0555183204574S11653979EA0155901640000000000000
B0555223204578S11653893EA0155701635000000000000
B0555263204586S11653810EA0155801639000000000000
B0555303204598S11653732EA0156301641000000000000
B0555343204608S11653653EA0155901632000000000000
B0555383204620S11653567EA0154201616000000000000
B0555423204632S11653476EA0153001605000000000000
B0555463204651S11653387EA0153001607000000000000
B0555503204669S11653303EA0152901604000000000000
B0555543204686S11653217EA0152401597000000000000
B0555583204706S11653135EA0152201597000000000000
B0556023204724S11653060EA0152101594000000000000
B0556063204738S11652982EA0151101581000000000000
B0556103204747S11652902EA0150301575000000000000
B0556143204768S11652835EA0150301574000000000000
B0556183204817S11652809EA0149701564000000000000
B0556223204877S11652831EA0148401553000000000000
B0556263204933S11652883EA0147201543000000000000
B0556303204986S11652941EA0146801540000000000000
B0556343205042S11653000EA0146101533000000000000
B0556383205102S11653058EA0145401530000000000000
B0556423205162S11653112EA0145301526000000000000
B0556463205222S11653160EA0145001527000000000000
B0556503205282S11653200EA0145601534000000000000
B0556543205341S11653239EA0145401526000000000000
B0556583205401S11653285EA0144101516000000000000
B0557023205456S11653335EA0143701512000000000000
B0557063205512S11653387EA0142901499000000000000
B0557103205571S11653437EA0141901493000000000000
B0557143205633S11653494EA0141501494000000000000
B0557183205694S11653546EA0142101496000000000000
B0557223205757S11653595EA0141001485000000000000
B0557263205824S11653629EA0140701482000000000000
B0557303205893S11653659EA0140101471000000000000
B0557343205958S11653708EA0138701457000000000000
B0557383206015S11653771EA0137601447000000000000
B0557423206073S11653836EA0136501435000000000000
B0557463206132S11653901EA0135601427000000000000
B0557503206193S11653963EA0134501413000000000000
B0557543206253S11654028EA0133701412000000000000
B0557583206307S11654095EA0133901409000000000000
B0558023206362S11654156EA0132801395000000000000
B0558063206418S11654218EA0131801386000000000000
B0558103206475S11654277EA0131601389000000000000
B0558143206536S11654323EA0132201394000000000000
B0558183206602S11654357EA0131801387000000000000
B0558223206666S11654394EA0131401382000000000000
B0558263206727S11654435EA0130101369000000000000
B0558303206788S11654486EA0129101360000000000000
B0558343206849S11654539EA0128901361000000000000
B0558383206909S11654591EA0129701371000000000000
B0558423206977S11654630EA0130401379000000000000
B0558463207037S11654617EA0132901414000000000000
B0558503207035S11654547EA0134601424000000000000
B0558543206968S11654514EA0134101421000000000000
B0558583206892S11654537EA0134401427000000000000
B0559023206840S11654595EA0135701443000000000000
B0559063206840S11654664EA0137601460000000000000
B0559103206879S11654699EA0137901460000000000000
B0559143206930S11654680EA0137501454000000000000
B0559183206969S11654622EA0137001451000000000000
B0559223206998S11654551EA0137001452000000000000
B0559263207037S11654485EA0137101449000000000000
B0559303207100S11654455EA0137601459000000000000
B0559343207164S11654461EA0138101460000000000000
B0559383207228S11654492EA0137101447000000000000
B0559423207294S11654538EA0135501430000000000000
B0559463207362S11654591EA0134201416000000000000
B0559503207430S11654647EA0132801400000000000000
B0559543207501S11654706EA0131201385000000000000
B0559583207570S11654769EA0130301376000000000000
B0600023207637S11654829EA0129101363000000000000
B0600063207705S11654890EA0127701345000000000000
B0600103207775S11654956EA0125801328000000000000
B0600143207848S11655019EA0125301323000000000000
B0600183207919S11655080EA0124801316000000000000
B0600223207989S11655133EA0124801319000000000000
B0600263208061S11655159EA0125101319000000000000
B0600303208131S11655184EA0124501314000000000000
B0600343208200S11655210EA0124201310000000000000
B0600383208268S11655240EA0123701303000000000000
B0600423208335S11655275EA0122801294000000000000
B0600463208402S11655313EA0121801283000000000000
B0600503208472S11655348EA0121101277000000000000
B0600543208542S11655380EA0121401285000000000000
B0600583208608S11655396EA0122501290000000000000
B0601023208677S11655408EA0121301267000000000000
B0601063208750S11655428EA0119601256000000000000
B0601103208823S11655457EA0118501241000000000000
B0601143208892S11655501EA0116701225000000000000
B0601183208958S11655556EA0115401213000000000000
B0601223209015S11655622EA0114901208000000000000
B0601263209065S11655692EA0115101216000000000000
B0601303209115S11655756EA0116201226000000000000
B0601343209167S11655813EA0117201242000000000000
B0601383209218S11655859EA0119501262000000000000
B0601423209271S11655838EA0121401280000000000000
B0601463209282S11655770EA0122801292000000000000
B0601503209235S11655731EA0124101310000000000000
B0601543209180S11655755EA0124801316000000000000
B0601583209154S11655821EA0124801314000000000000
B0602023209182S11655887EA0125101321000000000000
B0602063209239S11655909EA0125201316000000000000
B0602103209297S11655877EA0124801321000000000000
B0602143209312S11655804EA0126701341000000000000
B0602183209279S11655739EA0127701350000000000000
B0602223209217S11655723EA0128301360000000000000
B0602263209161S11655764EA0129701376000000000000
B0602303209141S11655831EA0131201390000000000000
B0602343209174S11655885EA0132001396000000000000
B0602383209230S11655886EA0132201397000000000000
B0602423209266S11655833EA0132801408000000000000
B0602463209267S11655764EA0133801418000000000000
B0602503209227S11655710EA0134001416000000000000
B0602543209158S11655713EA0134101427000000000000
B0602583209113S11655769EA0135801445000000000000
B0603023209113S11655834EA0137701461000000000000
B0603063209152S11655872EA0138601464000000000000
B0603103209202S11655859EA0138101458000000000000
B0603143209236S11655800EA0137801456000000000000
B0603183209253S11655730EA0138101463000000000000
B0603223209252S11655661EA0139201473000000000000
B0603263209213S11655608EA0138101454000000000000
B0603303209140S11655604EA0136201436000000000000
B0603343209096S11655670EA0135901442000000000000
B0603383209107S11655746EA0136901456000000000000
B0603423209146S11655804EA0138201466000000000000
B0603463209197S11655848EA0138901470000000000000
B0603503209254S11655887EA0138701466000000000000
B0603543209319S11655921EA0138201459000000000000
B0603583209388S11655955EA0136701440000000000000
B0604023209458S11655995EA0135201431000000000000
B0604063209529S11656028EA0135201432000000000000
B0604103209596S11656061EA0135301432000000000000
B0604143209661S11656098EA0136001438000000000000
B0604183209728S11656137EA0136001433000000000000
B0604223209796S11656186EA0134501419000000000000
B0604263209867S11656242EA0133801417000000000000
B0604303209936S11656297EA0134401424000000000000
B0604343210003S11656350EA0133901411000000000000
B0604383210072S11656405EA0132201391000000000000
B0604423210142S11656466EA0130401377000000000000
B0604463210216S11656524EA0130001378000000000000
B0604503210288S11656574EA0131401390000000000000
B0604543210354S11656618EA0132101399000000000000
B0604583210418S11656656EA0132701402000000000000
B0605023210479S11656698EA0132301394000000000000
B0605063210537S11656748EA0131901392000000000000
B0605103210601S11656796EA0131201378000000000000
B0605143210666S11656848EA0129801366000000000000
B0605183210730S11656899EA0130101376000000000000
B0605223210791S11656949EA0130301373000000000000
B0605263210855S11657003EA0129301363000000000000
B0605303210914S11657065EA0129101366000000000000
B0605343210969S11657127EA0129301370000000000000
B0605383211028S11657182EA0130101374000000000000
B0605423211087S11657241EA0129801371000000000000
B0605463211148S11657296EA0130401383000000000000
B0605503211207S11657347EA0132301399000000000000
B0605543211263S11657389EA0133601414000000000000
B0605583211321S11657389EA0134401416000000000000
B0606023211349S11657321EA0134001414000000000000
B0606063211308S11657256EA0135401431000000000000
B0606103211238S11657251EA0136701443000000000000
B0606143211177S11657289EA0137201451000000000000
B0606183211143S11657355EA0137801456000000000000
B0606223211150S11657429EA0138001457000000000000
B0606263211189S11657486EA0137901458000000000000
B0606303211238S11657533EA0138101458000000000000
B0606343211294S11657577EA0137601452000000000000
B0606383211347S11657633EA0137001447000000000000
B0606423211397S11657697EA0136701444000000000000
B0606463211444S11657758EA0136601445000000000000
B0606503211490S11657815EA0136501441000000000000
B0606543211541S11657868EA0136201435000000000000
B0606583211598S11657918EA0135401426000000000000
B0607023211658S11657963EA0134501418000000000000
B0607063211718S11658015EA0133801410000000000000
B0607103211774S11658075EA0132801401000000000000
B0607143211831S11658136EA0131701387000000000000
B0607183211891S11658201EA0130201374000000000000
B0607223211952S11658262EA0129401369000000000000
B0607263212018S11658317EA0129301368000000000000
B0607303212083S11658368EA0129201367000000000000
B0607343212144S11658418EA0128901358000000000000
B0607383212199S11658481EA0128001351000000000000
B0607423212251S11658541EA0127501346000000000000
B0607463212307S11658587EA0126801336000000000000
B0607503212369S11658624EA0125101318000000000000
B0607543212435S11658642EA0124101311000000000000
B0607583212499S11658647EA0124501316000000000000
B0608023212536S11658595EA0124501310000000000000
B0608063212525S11658503EA0122001286000000000000
B0608103212495S11658408EA0120201271000000000000
B0608143212460S11658316EA0118601257000000000000
B0608183212426S11658225EA0117801247000000000000
B0608223212393S11658135EA0117001240000000000000
B0608263212359S11658047EA0116401231000000000000
B0608303212325S11657958EA0115501223000000000000
B0608343212290S11657872EA0115001216000000000000
B0608383212255S11657787EA0114601207000000000000
B0608423212220S11657698EA0113601200000000000000
B0608463212186S11657612EA0113201195000000000000
B0608503212152S11657527EA0111901180000000000000
B0608543212121S11657438EA0110801171000000000000
B0608583212090S11657352EA0110301164000000000000
B0609023212060S11657269EA0109601155000000000000
B0609063212032S11657182EA0108601143000000000000
B0609103212004S11657094EA0107301129000000000000
B0609143211973S11657003EA0106001117000000000000
B0609183211940S11656916EA0105101106000000000000
B0609223211912S11656830EA0103701085000000000000
B0609263211882S11656739EA0101201061000000000000
B0609303211862S11656646EA0100001050000000000000
B0609343211844S11656555EA0099701052000000000000
B0609383211822S11656474EA0101201071000000000000
B0609423211787S11656405EA0102501081000000000000
B0609463211748S11656340EA0103001088000000000000
B0609503211691S11656298EA0104301105000000000000
B0609543211628S11656333EA0105701121000000000000
B0609583211618S11656409EA0107001137000000000000
B0610023211659S11656448EA0107801139000000000000
B0610063211706S11656427EA0107901144000000000000
B0610103211720S11656372EA0108901153000000000000
B0610143211685S11656315EA0109201154000000000000
B0610183211615S11656303EA0109301161000000000000
B0610223211554S11656346EA0110701176000000000000
B0610263211546S11656416EA0111601184000000000000
B0610303211584S11656467EA0111301176000000000000
B0610343211640S11656488EA0110801175000000000000
B0610383211684S11656446EA0111001177000000000000
B0610423211691S11656377EA0112001194000000000000
B0610463211645S11656337EA0114301216000000000000
B0610503211597S11656384EA0115101220000000015000
B0610543211618S11656445EA0115801234000000015000
B0610583211659S11656429EA0117401248000000015000
B0611023211649S11656371EA0117901250000000015000
B0611063211589S11656360EA0118501262000000015000
B0611103211555S11656425EA0119301276000000015000
B0611143211571S11656493EA0120601289000000015000
B0611183211613S11656515EA0121301293000000015000
B0611223211648S11656485EA0121701301000000015000
B0611263211648S11656431EA0122701312000000015000
B0611303211606S11656392EA0123701318000000015000
B0611343211550S11656418EA0124001320000000000000
B0611383211527S11656489EA0124401325000000000000
B0611423211553S11656542EA0125701339000000000000
B0611463211596S11656533EA0126201340000000000000
B0611503211598S11656475EA0126501346000000000000
B0611543211549S11656438EA0127601358000000000000
B0611583211488S11656461EA0128401364000000000000
B0612023211447S11656526EA0129101372000000000000
B0612063211450S11656602EA0129301370000000000000
B0612103211493S11656650EA0129301371000000000000
B0612143211542S11656632EA0129301369000000000000
B0612183211561S11656570EA0129301372000000000000
B0612223211537S11656507EA0130801389000000000000
B0612263211479S11656518EA0131501390000000015000
B0612303211466S11656592EA0131301393000000015000
B0612343211509S11656622EA0132401410000000015000
B0612383211540S11656585EA0133301414000000015000
B0612423211532S11656524EA0133301414000000015000
B0612463211499S11656468EA0133801417000000000000
B0612503211463S11656414EA0133801415000000000000
B0612543211428S11656351EA0133401408000000000000
B0612583211393S11656286EA0133101409000000000000
B0613023211354S11656221EA0133801415000000000000
B0613063211316S11656152EA0134601426000000000000
B0613103211278S11656087EA0135601435000000000000
B0613143211250S11656012EA0135201424000000000000
B0613183211216S11655928EA0133101402000000000000
B0613223211177S11655834EA0132101396000000000000
B0613263211139S11655742EA0132001397000000000000
B0613303211102S11655651EA0132101392000000000000
B0613343211067S11655558EA0131601391000000000000
B0613383211031S11655467EA0131501390000000000000
B0613423210996S11655380EA0131501384000000000000
B0613463210963S11655291EA0130901381000000000000
B0613503210927S11655202EA0131101382000000000000
B0613543210895S11655112EA0130901379000000000000
B0613583210864S11655020EA0130901382000000000000
B0614023210831S11654930EA0131401388000000000000
B0614063210799S11654843EA0131801387000000000000
B0614103210769S11654754EA0130901374000000000000
B0614143210743S11654660EA0129301359000000000000
B0614183210716S11654564EA0127901344000000000000
B0614223210690S11654469EA0126601331000000000000
B0614263210658S11654375EA0125701322000000000000
B0614303210630S11654278EA0124001303000000000000
B0614343210601S11654178EA0123801309000000000000
B0614383210575S11654085EA0125401328000000000000
B0614423210548S11653998EA0126201326000000000000
B0614463210523S11653903EA0125201313000000000000
B0614503210500S11653803EA0123901303000000000000
B0614543210476S11653702EA0123101293000000000000
B0614583210450S11653599EA0121601279000000000000
B0615023210424S11653495EA0120601265000000000000
B0615063210402S11653390EA0118801245000000000000
B0615103210379S11653285EA0117601236000000000000
B0615143210357S11653182EA0117201236000000000000
B0615183210332S11653084EA0117501239000000000000
B0615223210310S11652993EA0117901242000000000000
B0615263210293S11652905EA0117801234000000000000
B0615303210275S11652815EA0116701226000000000000
B0615343210255S11652724EA0116001218000000000000
B0615383210229S11652631EA0114801206000000000000
B0615423210202S11652538EA0113701194000000000000
B0615463210179S11652444EA0112201177000000000000
B0615503210159S11652345EA0111001164000000000000
B0615543210142S11652245EA0110201156000000000000
B0615583210125S11652142EA0109901156000000000000
B0616023210110S11652039EA0110401168000000000000
B0616063210093S11651944EA0111701178000000000000
B0616103210077S11651851EA0112201182000000000000
B0616143210060S11651761EA0113001189000000000000
B0616183210042S11651671EA0112801182000000000000
B0616223210024S11651579EA0112001178000000000000
B0616263210007S11651489EA0112301183000000000000
B0616303209991S11651397EA0112301183000000000000
B0616343209975S11651307EA0113201197000000000000
B0616383209955S11651224EA0114601207000000000000
B0616423209937S11651142EA0115201213000000000000
B0616463209917S11651062EA0115201208000000000000
B0616503209895S11650980EA0114101194000000000000
B0616543209873S11650895EA0112701179000000000000
B0616583209854S11650809EA0111101160000000000000
B0617023209835S11650720EA0109401145000000000000
B0617063209817S11650629EA0108301134000000000000
B0617103209796S11650536EA0107501131000000000000
B0617143209776S11650444EA0107301130000000000000
B0617183209755S11650356EA0107701133000000000000
B0617223209730S11650271EA0107801135000000000000
B0617263209707S11650188EA0107701129000000000000
B0617303209683S11650101EA0106601115000000000000
B0617343209655S11650010EA0105101104000000000000
B0617383209625S11649920EA0104501100000000000000
B0617423209596S11649833EA0104901106000000000000
B0617463209569S11649750EA0104901102000000000000
B0617503209543S11649665EA0103801085000000000000
B0617543209518S11649576EA0102301072000000000000
B0617583209494S11649483EA0101001061000000000000
B0618023209470S11649391EA0100701061000000000000
B0618063209447S11649299EA0101001063000000000000
B0618103209417S11649217EA0103001091000000000000
B0618143209352S11649190EA0106101120000000000000
B0618183209305S11649244EA0107701137000000000000
B0618223209315S11649311EA0109301156000000000000
B0618263209357S11649339EA0110901174000000000000
B0618303209399S11649318EA0112301186000000000000
B0618343209416S11649262EA0112301184000000000000
B0618383209388S11649199EA0112901197000000000000
B0618423209327S11649173EA0114201212000000000000
B0618463209270S11649205EA0115401226000000000000
B0618503209261S11649273EA0117101243000000000000
B0618543209302S11649305EA0118501259000000000000
B0618583209344S11649275EA0119801271000000000000
B0619023209343S11649210EA0120901283000000000000
B0619063209292S11649168EA0121901296000000000000
B0619103209226S11649188EA0122701306000000000000
B0619143209195S11649256EA0124401324000000000000
B0619183209215S11649317EA0125601339000000000000
B0619223209265S11649325EA0127301356000000000000
B0619263209293S11649279EA0128601369000000000000
B0619303209271S11649221EA0129801380000000000000
B0619343209209S11649210EA0130101384000000015000
B0619383209159S11649268EA0130901396000000015000
B0619423209161S11649337EA0132901416000000015000
B0619463209202S11649374EA0133301419000000015000
B0619503209256S11649353EA0133901427000000015000
B0619543209275S11649290EA0134801439000000015000
B0619583209237S11649233EA0135701450000000015000
B0620023209171S11649236EA0136801458000000015000
B0620063209130S11649303EA0137601467000000015000
B0620103209133S11649379EA0139101483000000015000
B0620143209176S11649428EA0139401477000000000000
B0620183209237S11649416EA0139401485000000000000
B0620223209258S11649353EA0141201505000000000000
B0620263209230S11649291EA0142201512000000000000
B0620303209167S11649272EA0143301527000000000000
B0620343209105S11649304EA0143901532000000000000
B0620383209083S11649377EA0144801545000000000000
B0620423209117S11649437EA0145701547000000000000
B0620463209178S11649442EA0145701550000000000000
B0620503209217S11649390EA0146601560000000000000
B0620543209206S11649314EA0147401564000000000000
B0620583209149S11649273EA0148701583000000000000
B0621023209085S11649296EA0150601599000000000000
B0621063209059S11649366EA0151701607000000000000
B0621103209088S11649426EA0152801620000000000000
B0621143209144S11649441EA0153301628000000000000
B0621183209189S11649403EA0154101637000000000000
B0621223209200S11649335EA0154801643000000000000
B0621263209165S11649277EA0155501652000000015000
B0621303209101S11649268EA0157001670000000015000
B0621343209044S11649316EA0158701688000000015000
B0621383209032S11649395EA0160001702000000015000
B0621423209075S11649447EA0160901706000000015000
B0621463209135S11649434EA0161501715000000015000
B0621503209163S11649370EA0161901717000000015000
B0621543209145S11649301EA0162501731000000015000
B0621583209092S11649273EA0164801757000000015000
B0622023209033S11649304EA0166701769000000015000
B0622063209011S11649377EA0167801783000000015000
B0622103209048S11649426EA0168801788000000000000
B0622143209092S11649395EA0168801788000000000000
B0622183209088S11649327EA0169401801000000015000
B0622223209032S11649311EA0171701824000000015000
B0622263208985S11649369EA0172201829000000015000
B0622303208989S11649454EA0173001839000000000000
B0622343209036S11649503EA0174401852000000000000
B0622383209092S11649493EA0174901854000000000000
B0622423209128S11649441EA0174501851000000000000
B0622463209123S11649373EA0175101862000000000000
B0622503209075S11649334EA0176801883000000000000
B0622543209015S11649355EA0178401895000000000000
B0622583208981S11649424EA0179501904000000000000
B0623023208994S11649503EA0179701906000000000000
B0623063209050S11649534EA0180301913000000000000
B0623103209105S11649513EA0180501912000000000000
B0623143209136S11649461EA0180701914000000000000
B0623183209153S11649395EA0180701913000000000000
B0623223209141S11649325EA0180801913000000000000
B0623263209088S11649288EA0180601908000000000000
B0623303209020S11649313EA0179101891000000000000
B0623343208972S11649395EA0177801881000000000000
B0623383208948S11649498EA0177401881000000000000
B0623423208933S11649606EA0177801887000000000000
B0623463208922S11649711EA0178401894000000000000
B0623503208912S11649815EA0178801892000000000000
B0623543208910S11649922EA0177901879000000000000
B0623583208907S11650032EA0176901870000000000000
B0624023208902S11650144EA0176401865000000000000
B0624063208897S11650256EA0175801855000000000000
B0624103208890S11650370EA0174301836000000000000
B0624143208879S11650487EA0172801826000000000000
B0624183208864S11650600EA0173401836000000000000
B0624223208851S11650707EA0174401841000000000000
B0624263208838S11650812EA0174001834000000000000
B0624303208821S11650920EA0172701822000000000000
B0624343208802S11651030EA0172201821000000000000
B0624383208786S11651136EA0172601822000000000000
B0624423208772S11651236EA0172801824000000000000
B0624463208758S11651333EA0172901822000000000000
B0624503208750S11651431EA0172201815000000000000
B0624543208737S11651530EA0171601806000000000000
B0624583208715S11651628EA0170501795000000000000
B0625023208686S11651731EA0169201781000000000000
B0625063208655S11651836EA0168001771000000000000
B0625103208625S11651942EA0167401766000000000000
B0625143208595S11652047EA0166901761000000000000
B0625183208565S11652150EA0166501755000000000000
B0625223208535S11652251EA0166001750000000000000
B0625263208506S11652351EA0165801748000000000000
B0625303208474S11652450EA0165401744000000000000
B0625343208442S11652550EA0164601734000000000000
B0625383208411S11652649EA0163501722000000000000
B0625423208379S11652752EA0162101705000000000000
B0625463208353S11652857EA0161401704000000000000
B0625503208327S11652957EA0161601707000000000000
B0625543208299S11653051EA0161801704000000000000
B0625583208272S11653147EA0160901692000000000000
B0626023208244S11653248EA0160101689000000000000
B0626063208221S11653347EA0160401693000000000000
B0626103208195S11653442EA0160601693000000000000
B0626143208168S11653538EA0159801683000000000000
B0626183208135S11653636EA0158601671000000000000
B0626223208100S11653734EA0157901665000000000000
B0626263208062S11653833EA0157501662000000000000
B0626303208025S11653933EA0156801650000000000000
B0626343207988S11654043EA0154901630000000000000
B0626383207958S11654165EA0153001613000000000000
B0626423207930S11654290EA0152601616000000000000
B0626463207897S11654407EA0152701615000000000000
B0626503207861S11654517EA0152701614000000000000
B0626543207830S11654628EA0152201609000000000000
B0626583207804S11654738EA0151801604000000000000
B0627023207779S11654846EA0151701602000000000000
B0627063207757S11654950EA0151701606000000000000
B0627103207735S11655053EA0151301594000000000000
B0627143207709S11655161EA0149201569000000000000
B0627183207680S11655276EA0147601560000000000000
B0627223207653S11655387EA0148301567000000000000
B0627263207628S11655489EA0148301567000000000000
B0627303207603S11655588EA0148101563000000000000
B0627343207586S11655688EA0147601553000000000000
B0627383207580S11655788EA0146501545000000000000
B0627423207570S11655886EA0146101543000000000000
B0627463207555S11655982EA0145501532000000000000
B0627503207534S11656077EA0144401521000000000000
B0627543207508S11656169EA0143901516000000000000
B0627583207476S11656263EA0142601502000000000000
B0628023207446S11656360EA0142301501000000000000
B0628063207417S11656462EA0141501490000000000000
B0628103207389S11656566EA0140401484000000000000
B0628143207363S11656670EA0140801489000000000000
B0628183207342S11656771EA0140901490000000000000
B0628223207319S11656870EA0141501495000000000000
B0628263207294S11656965EA0141201491000000000000
B0628303207269S11657061EA0141401494000000000000
B0628343207247S11657156EA0141301489000000000000
B0628383207225S11657254EA0140301479000000000000
B0628423207199S11657346EA0139901479000000000000
B0628463207191S11657437EA0140001478000000000000
B0628503207213S11657519EA0139701473000000000000
B0628543207260S11657580EA0138901464000000000000
B0628583207320S11657621EA0138001454000000000000
B0629023207389S11657649EA0136701441000000000000
B0629063207460S11657670EA0135701432000000000000
B0629103207534S11657686EA0135001425000000000000
B0629143207607S11657703EA0134101416000000000000
B0629183207683S11657719EA0133401408000000000000
B0629223207758S11657736EA0133001403000000000000
B0629263207837S11657750EA0132701403000000000000
B0629303207915S11657768EA0132801403000000000000
B0629343207995S11657785EA0132501400000000000000
B0629383208074S11657807EA0131601391000000000000
B0629423208155S11657828EA0130901385000000000000
B0629463208238S11657845EA0129701372000000000000
B0629503208321S11657861EA0128901366000000000000
B0629543208402S11657875EA0128601357000000000000
B0629583208482S11657894EA0127301346000000000000
B0630023208564S11657917EA0126501338000000000000
B0630063208646S11657937EA0125501324000000000000
B0630103208729S11657954EA0124701320000000000000
B0630143208807S11657969EA0124201316000000000000
B0630183208885S11657982EA0123801310000000000000
B0630223208959S11657996EA0124201318000000000000
B0630263209028S11658013EA0124701318000000000000
B0630303209102S11658024EA0124201314000000000000
B0630343209178S11658039EA0124101314000000000000
B0630383209253S11658054EA0124401319000000000000
B0630423209326S11658048EA0124501315000000000000
B0630463209401S11658036EA0123401306000000000000
B0630503209478S11658027EA0122701296000000000000
B0630543209556S11658023EA0121301280000000000000
B0630583209638S11658026EA0119301262000000000000
B0631023209720S11658034EA0118501251000000000000
B0631063209802S11658040EA0117301237000000000000
B0631103209885S11658048EA0115901222000000000000
B0631143209968S11658053EA0114001202000000000000
B0631183210053S11658058EA0112101184000000000000
B0631223210136S11658065EA0110601166000000000000
B0631263210218S11658069EA0108801148000000000000
B0631303210297S11658057EA0107301133000000000000
B0631343210378S11658043EA0106001115000000000000
B0631383210458S11658031EA0105001111000000000000
B0631423210530S11658000EA0106501138000000000000
B0631463210573S11657944EA0110001173000000000000
B0631503210548S11657878EA0112501194000000000000
B0631543210479S11657865EA0112101181000000000000
B0631583210419S11657913EA0111001171000000000000
B0632023210397S11657987EA0110301167000000000000
B0632063210415S11658054EA0110601172000000000000
B0632103210453S11658108EA0111401180000000000000
B0632143210500S11658158EA0110801172000000000000
B0632183210556S11658196EA0110401173000000000000
B0632223210618S11658214EA0111401190000000000000
B0632263210678S11658221EA0113001199000000000000
B0632303210739S11658221EA0112701192000000000000
B0632343210801S11658216EA0112001184000000000000
B0632383210866S11658209EA0110601166000000000000
B0632423210934S11658199EA0109301155000000000000
B0632463211004S11658190EA0108201144000000000000
B0632503211077S11658187EA0106701128000000000000
B0632543211154S11658188EA0105201112000000000000
B0632583211230S11658188EA0103901098000000000000
B0633023211310S11658183EA0102501078000000000000
B0633063211389S11658182EA0100701065000000000000
B0633103211466S11658184EA0099801054000000000000
B0633143211544S11658192EA0098501039000000000000
B0633183211623S11658213EA0097301029000000000000
B0633223211698S11658249EA0096401021000000000000
B0633263211770S11658291EA0096001017000000000000
B0633303211841S11658336EA0095901016000000000000
B0633343211909S11658381EA0095701013000000000000
B0633383211975S11658422EA0095301008000000000000
B0633423212040S11658463EA0094500997000000000000
B0633463212108S11658499EA0093200982000000000000
B0633503212178S11658509EA0092700981000000000000
B0633543212244S11658505EA0093200988000000000000
B0633583212305S11658489EA0093900993000000000000
B0634023212363S11658456EA0094100994000000000000
B0634063212417S11658421EA0094701006000000000000
B0634103212468S11658385EA0095100998000000000000
B0634143212521S11658349EA0093300977000000000000
B0634183212577S11658303EA0091200958000000000000
B0634223212619S11658234EA0090100950000000000000
B0634263212632S11658147EA0089500945000000000000
B0634303212614S11658056EA0089300943000000000000
B0634343212571S11657970EA0089100944000000000000
B0634383212523S11657888EA0089600952000000000000
B0634423212469S11657810EA0090100956000000000000
B0634463212400S11657758EA0091100970000000000000
B0634503212343S11657801EA0091800970000000000000
B0634543212361S11657871EA0090400956000000000000
B0634583212424S11657866EA0090500968000000000000
B0635023212480S11657833EA0092100982000000000000
B0635063212536S11657806EA0092100976000000000000
B0635103212586S11657763EA0091600968000000000000
B0635143212581S11657689EA0092000973000000000000
B0635183212516S11657649EA0091300961000000000000
B0635223212438S11657666EA0089700947000000000000
B0635263212359S11657709EA0089500949000000000000
B0635303212282S11657753EA0090500967000000000000
B0635343212208S11657797EA0091200959000000000000
B0635383212129S11657837EA0089600945000000000000
B0635423212045S11657868EA0090100959000000000000
B0635463211996S11657930EA0091700973000000000000
B0635503212026S11657980EA0092000978000000000000
B0635543212077S11657950EA0092700994000000000000
B0635583212079S11657880EA0094901018000000000000
B0636023212042S11657819EA0096401030000000000000
B0636063211978S11657822EA0096901030000000000000
B0636103211952S11657887EA0097301039000000000000
B0636143211986S11657930EA0097701044000000000000
B0636183212038S11657915EA0098201050000000000000
B0636223212039S11657850EA0100101068000000000000
B0636263211975S11657833EA0100701073000000000000
B0636303211926S11657884EA0101401083000000000000
B0636343211930S11657949EA0102101091000000000000
B0636383211973S11657980EA0103001101000000000000
B0636423212018S11657950EA0104001109000000000000
B0636463212018S11657878EA0105001126000000000000
B0636503211966S11657826EA0107101142000000000000
B0636543211896S11657824EA0107801147000000000000
B0636583211852S11657880EA0108501156000000000000
B0637023211862S11657944EA0109001164000000000000
B0637063211908S11657971EA0110001176000000000000
B0637103211951S11657953EA0111701193000000000000
B0637143211970S11657901EA0112901208000000000000
B0637183211953S11657836EA0114201215000000000000
B0637223211905S11657789EA0114801220000000000000
B0637263211840S11657783EA0115501227000000000000
B0637303211784S11657820EA0116301235000000000000
B0637343211757S11657879EA0117501249000000000000
B0637383211774S11657928EA0118501258000000000000
B0637423211819S11657941EA0118801261000000000000
B0637463211857S11657906EA0119801275000000000000
B0637503211847S11657840EA0120801287000000000000
B0637543211787S11657807EA0121401288000000000000
B0637583211722S11657842EA0121401291000000000000
B0638023211698S11657911EA0122301305000000000000
B0638063211715S11657971EA0123301311000000000000
B0638103211757S11658008EA0123101308000000000000
B0638143211809S11658027EA0123101307000000000000
B0638183211865S11658019EA0123301310000000000000
B0638223211915S11657993EA0123801314000000000000
B0638263211957S11657948EA0123701312000000000000
B0638303211969S11657872EA0123501310000000000000
B0638343211941S11657790EA0123301309000000000000
B0638383211880S11657731EA0123601315000000000000
B0638423211805S11657705EA0125201337000000000000
B0638463211727S11657694EA0127101350000000000000
B0638503211652S11657710EA0128101361000000000000
B0638543211603S11657770EA0128901368000000000000
B0638583211618S11657833EA0129901380000000000000
B0639023211667S11657852EA0130401382000000000000
B0639063211723S11657840EA0130501383000000000000
B0639103211778S11657819EA0131301391000000000000
B0639143211831S11657792EA0131601392000000000000
B0639183211886S11657757EA0131301390000000000000
B0639223211943S11657722EA0131201387000000000000
B0639263212005S11657693EA0130601380000000000000
B0639303212071S11657660EA0129901377000000000000
B0639343212138S11657631EA0129901378000000000000
B0639383212208S11657611EA0129601371000000000000
B0639423212282S11657605EA0129001365000000000000
B0639463212354S11657615EA0129101368000000000000
B0639503212422S11657634EA0129001361000000000000
B0639543212493S11657659EA0128001347000000000000
B0639583212568S11657685EA0126001327000000000000
B0640023212645S11657712EA0124701316000000000000
B0640063212721S11657737EA0123601305000000000000
B0640103212799S11657757EA0122601297000000000000
B0640143212877S11657772EA0121801286000000000000
B0640183212954S11657789EA0120701277000000000000
B0640223213028S11657810EA0120101269000000000000
B0640263213101S11657841EA0119101258000000000000
B0640303213174S11657875EA0118101246000000000000
B0640343213243S11657909EA0117101238000000000000
B0640383213313S11657939EA0116401230000000000000
B0640423213383S11657971EA0115701219000000000000
B0640463213455S11658002EA0115701228000000000000
B0640503213520S11658028EA0117801249000000000000
B0640543213583S11658048EA0118901258000000000000
B0640583213647S11658062EA0119401262000000000000
B0641023213713S11658082EA0118801247000000000000
B0641063213786S11658096EA0117201236000000000000
B0641103213862S11658113EA0116701231000000000000
B0641143213938S11658121EA0116401233000000000000
B0641183214014S11658122EA0116401231000000000000
B0641223214089S11658122EA0115401217000000000000
B0641263214167S11658115EA0114201208000000000000
B0641303214246S11658101EA0113101198000000000000
B0641343214326S11658091EA0112801195000000000000
B0641383214402S11658083EA0112601192000000000000
B0641423214476S11658079EA0112301188000000000000
B0641463214549S11658076EA0112101189000000000000
B0641503214621S11658075EA0112101189000000000000
B0641543214691S11658075EA0111601183000000000000
B0641583214760S11658076EA0111601181000000000000
B0642023214829S11658079EA0111201175000000000000
B0642063214900S11658080EA0110501167000000000000
B0642103214973S11658086EA0109501159000000000000
B0642143215045S11658102EA0108701152000000000000
B0642183215116S11658123EA0108001140000000000000
B0642223215188S11658147EA0106701130000000000000
B0642263215258S11658170EA0105601113000000000000
B0642303215328S11658199EA0103901099000000000000
B0642343215398S11658226EA0102801089000000000000
B0642383215470S11658253EA0102001077000000000000
B0642423215541S11658282EA0100501064000000000000
B0642463215615S11658308EA0099401051000000000000
B0642503215689S11658331EA0098401035000000000000
B0642543215763S11658364EA0096801016000000000000
B0642583215834S11658405EA0095401000000000000000
B0643023215903S11658451EA0093700982000000000000
B0643063215966S11658505EA0092700981000000000000
B0643103216029S11658547EA0093100984000000000000
B0643143216098S11658570EA0093000983000000000000
B0643183216168S11658572EA0093100986000000000000
B0643223216238S11658556EA0093500990000000000000
B0643263216303S11658537EA0094201001000000000000
B0643303216363S11658507EA0095001004000000000000
B0643343216423S11658474EA0095201010000000000000
B0643383216477S11658444EA0096201015000000000000
B0643423216532S11658408EA0095701008000000000000
B0643463216584S11658364EA0094901001000000000000
B0643503216633S11658318EA0094100994000000000000
B0643543216683S11658273EA0093700990000000000000
B0643583216727S11658218EA0092700974000000000000
B0644023216779S11658166EA0091800966000000000000
B0644063216840S11658134EA0091800969000000000000
B0644103216902S11658112EA0092000969000000000000
B0644143216965S11658083EA0092000974000000000000
B0644183216978S11658014EA0094000998000000000000
B0644223216920S11657974EA0096001014000000000000
B0644263216863S11658013EA0096801022000000000000
B0644303216862S11658076EA0096401014000000000000
B0644343216907S11658109EA0095601011000000000000
B0644383216962S11658104EA0095801016000000000000
B0644423217001S11658060EA0096501023000000000000
B0644463216979S11657984EA0096701025000000000000
B0644503216914S11657941EA0097401033000000000000
B0644543216844S11657959EA0098301043000000000000
B0644583216827S11658031EA0099201055000000000000
B0645023216870S11658054EA0100001068000000000000
B0645063216900S11658011EA0101201081000000000000
B0645103216891S11657943EA0101401080000000000000
B0645143216840S11657889EA0101801087000000000000
B0645183216770S11657891EA0102601094000000000000
B0645223216729S11657950EA0103601105000000000000
B0645263216736S11658018EA0104201109000000000000
B0645303216779S11658062EA0104601118000000000000
B0645343216829S11658058EA0105701128000000000000
B0645383216857S11658002EA0106001128000000000000
B0645423216835S11657930EA0106001129000000000000
B0645463216767S11657898EA0106401137000000000000
B0645503216706S11657933EA0107501149000000000000
B0645543216703S11657998EA0108801160000000000000
B0645583216744S11658001EA0109901174000000000000
B0646023216746S11657940EA0109901171000000000000
B0646063216688S11657897EA0110601182000000000000
B0646103216623S11657920EA0111501188000000000000
B0646143216605S11657993EA0112101195000000000000
B0646183216642S11658043EA0112701204000000000000
B0646223216692S11658027EA0114001217000000000000
B0646263216712S11657967EA0115001223000000000000
B0646303216686S11657898EA0115301228000000000000
B0646343216619S11657875EA0116501243000000000000
B0646383216556S11657906EA0117601252000000000000
B0646423216527S11657975EA0118301259000000000000
B0646463216542S11658044EA0119701275000000000000
B0646503216585S11658076EA0120501286000000000000
B0646543216623S11658049EA0121601294000000000000
B0646583216614S11657987EA0121901297000000000000
B0647023216554S11657958EA0122401306000000000000
B0647063216494S11657995EA0123101309000000000000
B0647103216478S11658069EA0124101322000000000000
B0647143216515S11658115EA0125001330000000000000
B0647183216566S11658100EA0125001331000000000000
B0647223216589S11658039EA0124901331000000000000
B0647263216566S11657970EA0125301336000000000000
B0647303216503S11657933EA0125801342000000000000
B0647343216426S11657933EA0126301345000000000000
B0647383216351S11657966EA0126801349000000000000
B0647423216296S11658028EA0127301351000000000000
B0647463216273S11658112EA0127701358000000000000
B0647503216287S11658195EA0128601367000000000000
B0647543216338S11658247EA0129401380000000000000
B0647583216382S11658221EA0131501401000000000000
B0648023216356S11658167EA0132101405000000000000
B0648063216291S11658179EA0132401407000000000000
B0648103216255S11658249EA0132801416000000000000
B0648143216263S11658325EA0133301424000000000000
B0648183216303S11658368EA0134401431000000000000
B0648223216352S11658360EA0134601425000000000000
B0648263216406S11658329EA0133201408000000000000
B0648303216468S11658303EA0131701392000000000000
B0648343216540S11658294EA0129201367000000000000
B0648383216616S11658305EA0127501351000000000000
B0648423216693S11658326EA0126101338000000000000
B0648463216770S11658349EA0125001320000000000000
B0648503216850S11658373EA0123101298000000000000
B0648543216932S11658401EA0121301285000000000000
B0648583217010S11658433EA0121001284000000000000
B0649023217082S11658474EA0120701279000000000000
B0649063217152S11658520EA0120101273000000000000
B0649103217222S11658568EA0119301264000000000000
B0649143217287S11658621EA0118801258000000000000
B0649183217348S11658678EA0118401253000000000000
B0649223217411S11658737EA0118001246000000000000
B0649263217470S11658801EA0117301241000000000000
B0649303217526S11658866EA0116701232000000000000
B0649343217581S11658937EA0115401219000000000000
B0649383217633S11659011EA0114601208000000000000
B0649423217687S11659087EA0113001196000000000000
B0649463217742S11659163EA0112501193000000000000
B0649503217798S11659237EA0112101188000000000000
B0649543217854S11659309EA0111101176000000000000
B0649583217914S11659379EA0110101162000000000000
B0650023217975S11659449EA0109101154000000000000
B0650063218033S11659518EA0109001156000000000000
B0650103218089S11659582EA0109201154000000000000
B0650143218148S11659646EA0108701149000000000000
B0650183218201S11659708EA0109701163000000000000
B0650223218253S11659763EA0111301181000000000000
B0650263218311S11659787EA0112001185000000000000
B0650303218375S11659782EA0112201188000000000000
B0650343218438S11659761EA0111601179000000000000
B0650383218505S11659743EA0110401158000000000000
B0650423218578S11659734EA0108301141000000000000
B0650463218652S11659737EA0106801125000000000000
B0650503218727S11659743EA0105301108000000000000
B0650543218805S11659755EA0103401093000000000000
B0650583218881S11659768EA0102201081000000000000
B0651023218955S11659785EA0101001069000000000000
B0651063219029S11659799EA0100501066000000000000
B0651103219102S11659812EA0100701074000000000000
B0651143219167S11659817EA0102201088000000000000
B0651183219233S11659812EA0101801072000000000000
B0651223219305S11659809EA0100201059000000000000
B0651263219377S11659812EA0099701058000000000000
B0651303219446S11659804EA0099801055000000000000
B0651343219518S11659799EA0098801042000000000000
B0651383219592S11659796EA0098001034000000000000
B0651423219667S11659796EA0096701024000000000000
B0651463219744S11659803EA0095701014000000000000
B0651503219818S11659805EA0095401016000000000000
B0651543219888S11659805EA0096401027000000000000
B0651583219955S11659796EA0097001030000000000000
B0652023220017S11659783EA0097601035000000000000
B0652063220077S11659766EA0097801037000000000000
B0652103220138S11659746EA0097901036000000000000
B0652143220200S11659726EA0098001038000000000000
B0652183220260S11659701EA0097101023000000000000
B0652223220323S11659670EA0095401004000000000000
B0652263220389S11659648EA0094000987000000000000
B0652303220456S11659627EA0092600978000000000000
B0652343220518S11659596EA0092400973000000000000
B0652383220575S11659560EA0091700968000000000000
B0652423220625S11659509EA0091700973000000000000
B0652463220672S11659453EA0092000970000000000000
B0652503220715S11659391EA0090800957000000000000
B0652543220763S11659332EA0089600946000000000000
B0652583220819S11659284EA0089500946000000000000
B0653023220878S11659250EA0089800952000000000000
B0653063220937S11659222EA0090000949000000000000
B0653103221000S11659196EA0089000939000000000000
B0653143221066S11659170EA0088000928000000000000
B0653183221135S11659149EA0087000920000000000000
B0653223221207S11659136EA0086200913000000000000
B0653263221279S11659133EA0085500901000000000000
B0653303221351S11659132EA0084400892000000000000
B0653343221420S11659133EA0084000884000000000000
B0653383221489S11659135EA0082400867000000000000
B0653423221558S11659132EA0080700849000000000000
B0653463221626S11659118EA0079100831000000000000
B0653503221697S11659100EA0077300815000000000000
B0653543221767S11659081EA0076500809000000000000
B0653583221833S11659055EA0076000801000000000000
B0654023221897S11659023EA0075300797000000000000
B0654063221955S11658989EA0075700803000000000000
B0654103222009S11658951EA0075700799000000000000
B0654143222055S11658901EA0075900802000000000000
B0654183222102S11658849EA0076100804000000000000
B0654223222131S11658782EA0077600822000000000000
B0654263222080S11658734EA0079700847000000000000
B0654303222027S11658775EA0079700843000000000000
B0654343222041S11658836EA0079800848000000000000
B0654383222087S11658828EA0081000862000000000000
B0654423222096S11658765EA0081500861000000000000
B0654463222052S11658703EA0080600852000000000000
B0654503221979S11658700EA0080300850000000000000
B0654543221927S11658758EA0080100848000000000000
B0654583221932S11658830EA0080100850000000000000
B0655023221980S11658838EA0081000860000000000000
B0655063221988S11658773EA0081600865000000000000
B0655103221928S11658729EA0081700868000000000000
B0655143221870S11658769EA0082000873000000000000
B0655183221872S11658830EA0082400876000000000000
B0655223221919S11658846EA0082300871000000000000
B0655263221974S11658821EA0081700866000000000000
B0655303222023S11658777EA0081600864000000000000
B0655343222071S11658728EA0081000856000000000000
B0655383222119S11658673EA0080100836000000000000
B0655423222184S11658638EA0077900820000000000000
B0655463222252S11658622EA0077400822000000000000
B0655503222314S11658608EA0077800828000000000000
B0655543222370S11658581EA0079200847000000000000
B0655583222374S11658520EA0082000874000000000000
B0656023222308S11658520EA0082900885000000000000
B0656063222293S11658586EA0083800897000000000000
B0656103222332S11658608EA0085000910000000000000
B0656143222352S11658564EA0086700926000000000000
B0656183222315S11658507EA0087000924000000000000
B0656223222243S11658509EA0087200934000000000000
B0656263222201S11658569EA0088500946000000000000
B0656303222211S11658634EA0089300953000000000000
B0656343222256S11658665EA0090400965000000000000
B0656383222288S11658635EA0092200981000000000000
B0656423222248S11658573EA0093000991000000000000
B0656463222175S11658582EA0094301011000000000000
B0656503222162S11658655EA0095901022000000000000
B0656543222205S11658677EA0096901033000000000000
B0656583222222S11658625EA0098701054000000000000
B0657023222184S11658564EA0100101065000000000000
B0657063222113S11658567EA0100601070000000000000
B0657103222078S11658635EA0101601088000000000000
B0657143222092S11658703EA0103101097000000000000
B0657183222137S11658730EA0103801106000000000000
B0657223222162S11658686EA0105201118000000000000
B0657263222119S11658630EA0106201131000000000000
B0657303222048S11658647EA0107701149000000000000
B0657343222018S11658719EA0109201161000000000000
B0657383222041S11658777EA0109601169000000000000
B0657423222085S11658763EA0110601177000000000000
B0657463222089S11658697EA0110701177000000000000
B0657503222031S11658643EA0111001186000000000000
B0657543221955S11658658EA0112601203000000000000
B0657583221941S11658732EA0114201214000000000000
B0658023221981S11658759EA0114801219000000000000
B0658063221996S11658706EA0116201238000000000000
B0658103221951S11658652EA0117101245000000000000
B0658143221880S11658654EA0118101258000000000000
B0658183221836S11658713EA0118801262000000000000
B0658223221847S11658778EA0119201269000000000000
B0658263221893S11658790EA0119801277000000015000
B0658303221919S11658741EA0120801286000000000000
B0658343221896S11658673EA0121401294000000000000
B0658383221832S11658641EA0122001303000000000000
B0658423221773S11658684EA0122201301000000000000
B0658463221769S11658758EA0122301304000000000000
B0658503221810S11658806EA0123001313000000000000
B0658543221859S11658794EA0124201324000000000000
B0658583221876S11658730EA0124501324000000000000
B0659023221845S11658658EA0124501326000000000000
B0659063221781S11658612EA0125001332000000000000
B0659103221710S11658609EA0125701338000000000000
B0659143221668S11658671EA0125801339000000000000
B0659183221680S11658741EA0125701339000000000000
B0659223221729S11658777EA0126201346000000000000
B0659263221759S11658730EA0127201354000000000000
B0659303221724S11658663EA0127001354000000000000
B0659343221651S11658648EA0127601361000000000000
B0659383221594S11658694EA0128401365000000000000
B0659423221572S11658765EA0128601361000000000000
B0659463221590S11658837EA0128201362000000000000
B0659503221619S11658907EA0128201361000000000000
B0659543221650S11658977EA0127601351000000000000
B0659583221685S11659053EA0126401341000000000000
B0700023221721S11659132EA0125601330000000000000
B0700063221755S11659214EA0124701318000000000000
B0700103221788S11659300EA0123701311000000000000
B0700143221820S11659380EA0123601308000000000000
B0700183221853S11659462EA0122601296000000000000
B0700223221884S11659544EA0121401284000000000000
B0700263221914S11659626EA0120401271000000000000
B0700303221945S11659708EA0118901255000000000000
B0700343221977S11659789EA0117401239000000000000
B0700383222014S11659868EA0116101226000000000000
B0700423222052S11659950EA0115301216000000000000
B0700463222088S11700030EA0114701213000000000000
B0700503222122S11700108EA0115001215000000000000
B0700543222154S11700188EA0114301205000000000000
B0700583222187S11700271EA0112501185000000000000
B0701023222219S11700359EA0111001174000000000000
B0701063222253S11700445EA0110201162000000000000
B0701103222286S11700531EA0109301155000000000000
B0701143222315S11700613EA0108101143000000000000
B0701183222345S11700696EA0107001127000000000000
B0701223222377S11700779EA0105201107000000000000
B0701263222408S11700866EA0103201088000000000000
B0701303222436S11700956EA0101801075000000000000
B0701343222465S11701044EA0100501061000000000000
B0701383222490S11701134EA0099801056000000000000
B0701423222510S11701222EA0099001045000000000000
B0701463222538S11701302EA0098401041000000000000
B0701503222578S11701359EA0098101035000000000000
B0701543222629S11701398EA0097401023000000000000
B0701583222689S11701421EA0095801007000000000000
B0702023222754S11701430EA0094500997000000000000
B0702063222819S11701430EA0093400986000000000000
B0702103222886S11701424EA0092400975000000000000
B0702143222955S11701415EA0091800971000000000000
B0702183223023S11701402EA0091500968000000000000
B0702223223090S11701389EA0090700958000000000000
B0702263223157S11701375EA0089900954000000000000
B0702303223219S11701363EA0090400959000000000000
B0702343223279S11701352EA0090800965000000000000
B0702383223333S11701341EA0091300966000000000000
B0702423223387S11701319EA0090900958000000000000
B0702463223441S11701291EA0090100950000000000000
B0702503223496S11701259EA0088700936000000000000
B0702543223557S11701239EA0087800925000000000000
B0702583223622S11701230EA0087400922000000000000
B0703023223687S11701226EA0087100923000000000000
B0703063223753S11701225EA0087700932000000000000
B0703103223814S11701225EA0089100948000000000000
B0703143223860S11701185EA0090800967000000000000
B0703183223833S11701120EA0092200976000000000000
B0703223223770S11701130EA0093000988000000000000
B0703263223753S11701198EA0094201001000000000000
B0703303223792S11701233EA0095501017000000000000
B0703343223833S11701194EA0097201032000000000000
B0703383223821S11701121EA0098001039000000000000
B0703423223761S11701082EA0098201044000000000000
B0703463223703S11701115EA0099501063000000000000
B0703503223693S11701177EA0101101075000000000000
B0703543223735S11701213EA0101601079000000000000
B0703583223786S11701178EA0102601092000000000000
B0704023223784S11701105EA0104101109000000000000
B0704063223734S11701061EA0105401121000000000000
B0704103223678S11701087EA0106701134000000000000
B0704143223674S11701147EA0107801145000000000000
B0704183223718S11701173EA0108801157000000000000
B0704223223756S11701129EA0110001167000000000000
B0704263223734S11701059EA0110501173000000000000
B0704303223670S11701042EA0111201186000000000000
B0704343223627S11701089EA0112801201000000000000
B0704383223634S11701148EA0113801210000000000000
B0704423223683S11701163EA0115101229000000000000
B0704463223719S11701117EA0116701234000000000000
B0704503223708S11701042EA0116501237000000000000
B0704543223649S11701008EA0117301245000000000000
B0704583223597S11701047EA0118301258000000000000
B0705023223600S11701108EA0119301269000000000000
B0705063223645S11701128EA0120101280000000000000
B0705103223682S11701083EA0120901283000000000000
B0705143223670S11701011EA0120901284000000000000
B0705183223612S11700978EA0120901285000000000000
B0705223223554S11701014EA0121401293000000000000
B0705263223540S11701082EA0122301301000000000000
B0705303223576S11701129EA0123001311000000000000
B0705343223628S11701118EA0123801316000000000000
B0705383223654S11701060EA0123301305000000000000
B0705423223631S11700986EA0123001309000000000000
B0705463223582S11700927EA0123401312000000000000
B0705503223517S11700908EA0123901315000000000000
B0705543223453S11700948EA0123501308000000000000
B0705583223400S11701009EA0123601313000000000000
B0706023223409S11701074EA0124801326000000000000
B0706063223456S11701052EA0125701331000000000000
B0706103223440S11700979EA0125301327000000000000
B0706143223372S11700975EA0125801336000000000000
B0706183223352S11701040EA0126901352000000000000
B0706223223389S11701074EA0128301361000000000000
B0706263223435S11701048EA0128801367000000000000
B0706303223436S11700977EA0129301372000000000000
B0706343223381S11700935EA0129601376000000000000
B0706383223322S11700965EA0129601372000000000000
B0706423223318S11701033EA0129601381000000000000
B0706463223358S11701065EA0131201395000000000000
B0706503223406S11701053EA0132101401000000000000
B0706543223443S11701003EA0131701394000000000000
B0706583223443S11700923EA0130701383000000000000
B0707023223409S11700840EA0129701374000000000000
B0707063223366S11700753EA0128701363000000000000
B0707103223324S11700660EA0127701358000000000000
B0707143223287S11700562EA0127301353000000000000
B0707183223248S11700463EA0125901333000000000000
B0707223223207S11700363EA0124501317000000000000
B0707263223166S11700262EA0123501311000000000000
B0707303223127S11700164EA0123301308000000000000
B0707343223092S11700067EA0123301310000000000000
B0707383223059S11659969EA0123101306000000000000
B0707423223028S11659867EA0122501302000000000000
B0707463222995S11659766EA0123301313000000000000
B0707503222959S11659670EA0123501312000000000000
B0707543222924S11659570EA0122901308000000000000
B0707583222887S11659480EA0124801330000000000000
B0708023222848S11659400EA0125101323000000000000
B0708063222811S11659313EA0123601301000000000000
B0708103222781S11659219EA0121701289000000000000
B0708143222756S11659126EA0121001279000000000000
B0708183222738S11659029EA0119401262000000000000
B0708223222725S11658932EA0118101249000000000000
B0708263222718S11658834EA0117701245000000000000
B0708303222717S11658736EA0117601247000000000000
B0708343222699S11658647EA0120001275000000000000
B0708383222630S11658622EA0121801293000000000000
B0708423222556S11658652EA0122201295000000000000
B0708463222510S11658717EA0122501302000000000000
B0708503222516S11658788EA0123301307000000000000
B0708543222561S11658827EA0123201304000000000000
B0708583222618S11658821EA0123101304000000000000
B0709023222674S11658806EA0123001304000000000000
B0709063222731S11658788EA0122901304000000000000
B0709103222785S11658764EA0122601298000000000000
B0709143222837S11658728EA0121201284000000000000
B0709183222874S11658663EA0120401276000000000000
B0709223222898S11658581EA0119301261000000000000
B0709263222911S11658487EA0118401260000000000000
B0709303222920S11658392EA0119001269000000000000
B0709343222926S11658300EA0119401269000000000000
B0709383222942S11658210EA0119301270000000000000
B0709423222973S11658131EA0120201279000000000000
B0709463223012S11658061EA0120701285000000000000
B0709503223053S11657995EA0120901282000000000000
B0709543223094S11657931EA0120101268000000000000
B0709583223140S11657866EA0118701255000000000000
B0710023223175S11657792EA0117501243000000000000
B0710063223193S11657710EA0116201224000000000000
B0710103223206S11657620EA0114001204000000000000
B0710143223223S11657529EA0112001183000000000000
B0710183223237S11657436EA0110301169000000000000
B0710223223244S11657342EA0109401162000000000000
B0710263223248S11657251EA0109001152000000000000
B0710303223249S11657159EA0107801142000000000000
B0710343223248S11657066EA0106701127000000000000
B0710383223245S11656971EA0105401113000000000000
B0710423223242S11656875EA0104201102000000000000
B0710463223237S11656780EA0103401098000000000000
B0710503223225S11656687EA0104001103000000000000
B0710543223223S11656597EA0104801110000000000000
B0710583223257S11656531EA0105901126000000000000
B0711023223305S11656490EA0107501142000000000000
B0711063223311S11656429EA0109301162000000000000
B0711103223244S11656422EA0110201173000000000000
B0711143223205S11656501EA0111801197000000000000
B0711183223238S11656553EA0114001215000000000000
B0711223223285S11656535EA0115301228000000000000
B0711263223281S11656472EA0117001246000000000000
B0711303223223S11656437EA0117701248000000000000
B0711343223157S11656476EA0118201262000000000000
B0711383223147S11656552EA0120901289000000000000
B0711423223185S11656589EA0122701302000000000000
B0711463223228S11656567EA0123701315000000000000
B0711503223219S11656507EA0125101328000000000000
B0711543223151S11656488EA0125101328000000000000
B0711583223090S11656545EA0125701348000000000000
B0712023223089S11656623EA0128001369000000000000
B0712063223132S11656654EA0129301377000000000000
B0712103223167S11656619EA0130301390000000000000
B0712143223145S11656559EA0131801404000000000000
B0712183223080S11656539EA0132701414000000000000
B0712223223024S11656588EA0134401435000000000000
B0712263223036S11656652EA0136101447000000000000
B0712303223084S11656663EA0136301448000000000000
B0712343223101S11656611EA0137501465000000000000
B0712383223056S11656567EA0138501470000000000000
B0712423222986S11656585EA0139201480000000000000
B0712463222960S11656657EA0141101502000000000000
B0712503222986S11656714EA0141901505000000000000
B0712543223038S11656713EA0141701503000000000000
B0712583223051S11656654EA0143001524000000000000
B0713023223011S11656602EA0144401534000000000000
B0713063222939S11656602EA0144801541000000000000
B0713103222893S11656665EA0146601562000000000000
B0713143222904S11656735EA0147701567000000000000
B0713183222951S11656769EA0148101571000000000000
B0713223222995S11656749EA0148601578000000000000
B0713263222998S11656687EA0149501587000000000000
B0713303222943S11656648EA0150501598000000000000
B0713343222878S11656684EA0151701614000000000000
B0713383222863S11656758EA0152801620000000000000
B0713423222898S11656810EA0153001627000000000000
B0713463222939S11656789EA0154201638000000000000
B0713503222924S11656728EA0154901647000000000000
B0713543222858S11656714EA0155801657000000000000
B0713583222800S11656775EA0156701666000000000000
B0714023222800S11656856EA0157701675000000000000
B0714063222843S11656903EA0158601686000000000000
B0714103222891S11656899EA0159901697000000000000
B0714143222919S11656851EA0160401701000000000000
B0714183222906S11656779EA0160801705000000000000
B0714223222850S11656727EA0161401717000000000000
B0714263222772S11656741EA0162401726000000000000
B0714303222733S11656819EA0163601741000000000000
B0714343222755S11656890EA0164601747000000000000
B0714383222809S11656906EA0165101756000000000000
B0714423222851S11656866EA0166301767000000000000
B0714463222856S11656796EA0167001771000000000000
B0714503222817S11656727EA0167201775000000000000
B0714543222741S11656710EA0168201790000000000000
B0714583222682S11656770EA0170101808000000000000
B0715023222687S11656849EA0170701812000000000000
B0715063222733S11656909EA0170701813000000000000
B0715103222782S11656906EA0172401838000000000000
B0715143222786S11656851EA0174101843000000000000
B0715183222734S11656804EA0173601838000000000000
B0715223222660S11656827EA0174101853000000000000
B0715263222624S11656901EA0175401863000000000000
B0715303222633S11656979EA0175801864000000000000
B0715343222674S11657035EA0176201871000000000000
B0715383222726S11657052EA0177001874000000000000
B0715423222765S11657012EA0176001858000000000000
B0715463222781S11656929EA0173201829000000000000
B0715503222773S11656827EA0171701819000000000000
B0715543222757S11656726EA0170901813000000000000
B0715583222744S11656622EA0170501812000000000000
B0716023222735S11656516EA0170301807000000000000
B0716063222730S11656410EA0169801802000000000000
B0716103222725S11656305EA0169301798000000000000
B0716143222722S11656199EA0168901791000000000000
B0716183222718S11656093EA0168101782000000000000
B0716223222712S11655986EA0167801783000000000000
B0716263222707S11655883EA0168301787000000000000
B0716303222698S11655785EA0168501791000000000000
B0716343222689S11655690EA0168901796000000000000
B0716383222679S11655599EA0169301797000000000000
B0716423222673S11655508EA0169301794000000000000
B0716463222664S11655417EA0168801793000000000000
B0716503222652S11655326EA0168601787000000000000
B0716543222638S11655232EA0167801779000000000000
B0716583222624S11655137EA0167101773000000000000
B0717023222608S11655044EA0166701765000000000000
B0717063222594S11654949EA0166001756000000000000
B0717103222588S11654854EA0164701742000000000000
B0717143222587S11654758EA0163701732000000000000
B0717183222587S11654661EA0162501718000000000000
B0717223222587S11654563EA0161201705000000000000
B0717263222585S11654461EA0159901692000000000000
B0717303222583S11654360EA0158801684000000000000
B0717343222581S11654258EA0158401677000000000000
B0717383222579S11654156EA0157701667000000000000
B0717423222579S11654052EA0156701654000000000000
B0717463222579S11653948EA0155701647000000000000
B0717503222579S11653841EA0155001642000000000000
B0717543222578S11653740EA0155301647000000000000
B0717583222578S11653640EA0156101655000000000000
B0718023222575S11653543EA0156301659000000000000
B0718063222572S11653450EA0155401644000000000000
B0718103222569S11653354EA0154701638000000000000
B0718143222566S11653260EA0154101628000000000000
B0718183222565S11653165EA0153301620000000000000
B0718223222561S11653069EA0152501615000000000000
B0718263222557S11652971EA0152201611000000000000
B0718303222553S11652874EA0151901614000000000000
B0718343222556S11652784EA0152701617000000000000
B0718383222561S11652692EA0151401602000000000000
B0718423222562S11652593EA0149901585000000000000
B0718463222560S11652490EA0148501573000000000000
B0718503222559S11652390EA0148201568000000000000
B0718543222555S11652290EA0147701564000000000000
B0718583222553S11652191EA0147301557000000000000
B0719023222549S11652094EA0146701550000000000000
B0719063222542S11651995EA0145701543000000000000
B0719103222533S11651899EA0145601541000000000000
B0719143222522S11651804EA0145101533000000000000
B0719183222508S11651710EA0144401528000000000000
B0719223222490S11651619EA0143801519000000000000
B0719263222470S11651527EA0142801511000000000000
B0719303222449S11651435EA0142401507000000000000
B0719343222429S11651342EA0142001501000000000000
B0719383222412S11651246EA0141001491000000000000
B0719423222399S11651149EA0139901479000000000000
B0719463222388S11651050EA0139101474000000000000
B0719503222375S11650952EA0138401465000000000000
B0719543222362S11650855EA0137601456000000000000
B0719583222341S11650757EA0136901447000000000000
B0720023222321S11650660EA0135801438000000000000
B0720063222300S11650561EA0135101428000000000000
B0720103222279S11650462EA0134101420000000000000
B0720143222257S11650364EA0133301411000000000000
B0720183222235S11650265EA0132401399000000000000
B0720223222210S11650165EA0131101389000000000000
B0720263222180S11650066EA0130301379000000000000
B0720303222149S11649966EA0129301367000000000000
B0720343222120S11649863EA0128301359000000000000
B0720383222092S11649762EA0127501352000000000000
B0720423222063S11649663EA0127201349000000000000
B0720463222036S11649565EA0126701343000000000000
B0720503222013S11649470EA0125801333000000000000
B0720543221990S11649374EA0125001320000000000000
B0720583221966S11649277EA0123701310000000000000
B0721023221941S11649178EA0123101304000000000000
B0721063221916S11649080EA0122801298000000000000
B0721103221892S11648984EA0121901289000000000000
B0721143221866S11648885EA0120801278000000000000
B0721183221844S11648787EA0120001270000000000000
B0721223221821S11648688EA0119401268000000000000
B0721263221799S11648592EA0119701271000000000000
B0721303221776S11648498EA0119201263000000000000
B0721343221753S11648404EA0119101263000000000000
B0721383221730S11648310EA0118601256000000000000
B0721423221712S11648211EA0118201254000000000000
B0721463221706S11648116EA0118601260000000000000
B0721503221724S11648031EA0119601273000000000000
B0721543221756S11647964EA0121101287000000000000
B0721583221794S11647903EA0122301298000000000000
B0722023221821S11647835EA0123601313000000000000
B0722063221781S11647773EA0125201324000000000000
B0722103221712S11647796EA0125501326000000000000
B0722143221694S11647870EA0126701347000000000000
B0722183221727S11647910EA0128901367000000000000
B0722223221771S11647894EA0130301376000000000000
B0722263221782S11647829EA0130801384000000000000
B0722303221741S11647766EA0131101385000000000000
B0722343221671S11647757EA0131201392000000000000
B0722383221616S11647801EA0132601412000000000000
B0722423221600S11647864EA0134401426000000000000
B0722463221629S11647904EA0135301434000000000000
B0722503221676S11647892EA0136301449000000000000
B0722543221698S11647839EA0137901462000000000000
B0722583221682S11647773EA0138601465000000000000
B0723023221629S11647727EA0138401464000000000000
B0723063221560S11647719EA0138401469000000000000
B0723103221495S11647744EA0140001488000000000000
B0723143221468S11647803EA0141101493000000000000
B0723183221491S11647848EA0141301497000000000000
B0723223221539S11647849EA0142001505000000000000
B0723263221561S11647795EA0143701525000000000000
B0723303221520S11647740EA0144101526000000000000
B0723343221454S11647744EA0145501544000000000000
B0723383221418S11647799EA0147001555000000000000
B0723423221431S11647856EA0147401554000000000000
B0723463221478S11647878EA0147101552000000000000
B0723503221516S11647835EA0147901562000000000000
B0723543221499S11647762EA0148901568000000000000
B0723583221431S11647731EA0149001573000000000000
B0724023221361S11647757EA0150101589000000000000
B0724063221342S11647821EA0151601601000000000000
B0724103221376S11647845EA0152001607000000000000
B0724143221402S11647801EA0152801619000000000000
B0724183221376S11647735EA0154001627000000000000
B0724223221305S11647714EA0154501634000000000000
B0724263221253S11647766EA0155601649000000000000
B0724303221261S11647829EA0156101652000000000000
B0724343221304S11647849EA0156101651000000000000
B0724383221348S11647822EA0156501659000000000000
B0724423221357S11647757EA0157701672000000000000
B0724463221321S11647692EA0158001668000000000000
B0724503221249S11647674EA0157701672000000000000
B0724543221207S11647739EA0158101673000000000000
B0724583221221S11647810EA0158601684000000000000
B0725023221264S11647844EA0159801695000000000000
B0725063221313S11647832EA0160901703000000000000
