ACAM4N6
HFDTE210215
HFFXA050
HFPLTPILOT:JOHN WELSH              
HFGTYGLIDERTYPE:HORNET      
HFGIDGLIDERID:VH-GMY      
HFDTM100GPSDATUM:
HFRFWFIRMWAREVERSION:F2.6
HFRHWHARDWAREVERSION:300 Series Version 2
HFFTYFRTYPE:CAMBRIDGE AERO INSTRUMENTS, 302+
HFGPS:GARMIN,LVS-25,12,18000
HFPRSPRESSALTSENSOR:INTERSEMA, MS5534-AP, 20000
I033638FXA3941ENL4247REX
LCAMSBVER:5FWVER:F26300
C210215045730210215000103
C0000000N00000000WTAKEOFF     
C3207547S11656879EBeverley Air
C3137397S11712959ECunderdin Ai
C3256165S11710679ENarrogin Sil
C3255535S11704919ENarrogin Aer
C3207547S11656879EBeverley Air
C0000000N00000000WLANDING     
B0510343207339S11656858EA0022400200000000000000
B0510363207339S11656858EA0022300200000000000000
B0510383207339S11656858EA0022300200000000000000
B0510403207339S11656858EA0022400200000000000000
B0510423207339S11656858EA0022400200000000000000
B0510443207339S11656858EA0022300200000000000000
B0510463207339S11656858EA0022300200000000000000
B0510483207339S11656858EA0022300200000000000000
B0510503207339S11656858EA0022400200000000000000
B0510523207339S11656858EA0022300200000000000000
B0510543207339S11656858EA0022300200000000000000
B0510563207339S11656858EA0022400200000000000000
B0510583207339S11656858EA0022400200000000000000
B0511003207339S11656860EA0022300200000000000000
B0511023207342S11656861EA0022300200000000000000
B0511033207345S11656864EA0022300200000000000000
B0511073207365S11656879EA0022100200000000000000
B0511113207401S11656904EA0022200200000000000000
B0511153207450S11656935EA0022200201000000000000
B0511193207510S11656971EA0022200201000000000000
B0511233207576S11657016EA0022100202000000000000
B0511273207648S11657061EA0022500205000000000000
B0511313207716S11657113EA0023200214000000000000
B0511353207779S11657174EA0024600231000000000000
B0511393207839S11657234EA0026700254000000000000
B0511433207898S11657286EA0027800272000000000000
B0511473207953S11657342EA0029100287000000000000
B0511513208006S11657399EA0030400298000000000000
B0511553208064S11657456EA0031200302000000000000
B0511593208125S11657515EA0031400305000000000000
B0512033208186S11657576EA0031900314000000000000
B0512073208246S11657642EA0032800322000000000000
B0512113208308S11657705EA0033400332000000000000
B0512153208372S11657764EA0034800350000000000000
B0512193208437S11657820EA0037100379000000000000
B0512233208508S11657868EA0039200390000000000000
B0512273208577S11657915EA0040200403000000000000
B0512313208646S11657962EA0041400416000000000000
B0512353208704S11658024EA0042500423000000000000
B0512393208738S11658110EA0043200434000000000000
B0512433208747S11658206EA0044500443000000000000
B0512473208730S11658304EA0045000448000000000000
B0512513208685S11658391EA0045700456000000000000
B0512553208619S11658457EA0046600468000000000000
B0512593208535S11658496EA0047800481000000000000
B0513033208446S11658504EA0049000490000000000000
B0513073208356S11658483EA0049600497000000000000
B0513113208275S11658434EA0050200503000000000000
B0513153208212S11658364EA0051200512000000000000
B0513193208162S11658283EA0052300524000000000000
B0513233208127S11658193EA0053300535000000000000
B0513273208104S11658097EA0054500546000000000000
B0513313208096S11657997EA0056000572000000000000
B0513353208103S11657900EA0059000601000000000000
B0513393208144S11657823EA0061200620000000000000
B0513433208213S11657784EA0063000639000000000000
B0513473208290S11657772EA0063700642000000000000
B0513513208368S11657783EA0064300650000000000000
B0513553208443S11657794EA0066200671000000000000
B0513593208513S11657774EA0069800705000000000000
B0514033208571S11657727EA0071700717000000000000
B0514073208607S11657657EA0072500730000000000000
B0514113208626S11657573EA0073700737000000000000
B0514153208629S11657486EA0074800750000000000000
B0514193208606S11657402EA0076800770000000000000
B0514233208555S11657326EA0078300782000000000000
B0514273208486S11657268EA0079300796000000000000
B0514313208404S11657231EA0080500808000000000000
B0514353208314S11657222EA0081100812000000000000
B0514393208233S11657247EA0081400817000000000000
B0514433208171S11657302EA0081400813000000000000
B0514473208139S11657380EA0080600805000000000000
B0514513208131S11657463EA0079800796000000000000
B0514553208142S11657545EA0078600781000000000000
B0514593208158S11657625EA0077300769000000000000
B0515033208173S11657706EA0075900755000000000000
B0515073208197S11657784EA0074000739000000000000
B0515113208235S11657857EA0072200720000000000000
B0515153208277S11657930EA0071200712000000000000
B0515193208337S11657971EA0071300720000000000000
B0515233208383S11657924EA0071600736000000000000
B0515273208339S11657874EA0074200759000000000000
B0515313208288S11657917EA0075600769000000015000
B0515353208298S11657989EA0076000771000000015000
B0515393208348S11658014EA0075900772000000015000
B0515433208395S11657982EA0076200775000000000000
B0515473208399S11657917EA0076500777000000000000
B0515513208353S11657859EA0076400768000000000000
B0515553208282S11657844EA0076200771000000000000
B0515593208227S11657888EA0077500784000000000000
B0516033208230S11657962EA0078300791000000000000
B0516073208283S11657979EA0078800797000000000000
B0516113208311S11657926EA0080000814000000000000
B0516153208268S11657884EA0080900815000000000000
B0516193208205S11657915EA0080400815000000000000
B0516233208186S11657991EA0081200822000000000000
B0516273208208S11658067EA0081200814000000015000
B0516313208268S11658110EA0079600801000000015000
B0516353208337S11658096EA0079300806000000015000
B0516393208383S11658041EA0079200803000000000000
B0516433208376S11657963EA0078900795000000000000
B0516473208326S11657893EA0077800785000000000000
B0516513208274S11657822EA0077600789000000000000
B0516553208220S11657753EA0077700788000000000000
B0516593208160S11657688EA0077800788000000000000
B0517033208093S11657627EA0077100778000000000000
B0517073208014S11657611EA0077000779000000000000
B0517113207939S11657636EA0076400764000000000000
B0517153207869S11657685EA0074700747000000000000
B0517193207802S11657750EA0073200736000000000000
B0517233207740S11657822EA0072300728000000000000
B0517273207681S11657897EA0071900724000000000000
B0517313207624S11657976EA0071600723000000000000
B0517353207571S11658057EA0071900727000000000000
B0517393207523S11658139EA0072200732000000000000
B0517433207516S11658229EA0073600751000000000000
B0517473207559S11658284EA0075800774000000000000
B0517513207594S11658245EA0078200796000000000000
B0517553207564S11658197EA0079100800000000000000
B0517593207503S11658217EA0079200803000000000000
B0518033207482S11658292EA0080100813000000000000
B0518073207520S11658342EA0081800835000000000000
B0518113207560S11658318EA0083100847000000000000
B0518153207550S11658260EA0083500850000000000000
B0518193207490S11658247EA0083900853000000000000
B0518233207447S11658305EA0084600862000000000000
B0518273207467S11658369EA0086400881000000000000
B0518313207505S11658347EA0087700893000000015000
B0518353207482S11658291EA0088100896000000015000
B0518393207420S11658305EA0088800906000000000000
B0518433207402S11658381EA0089900919000000000000
B0518473207438S11658433EA0091000926000000000000
B0518513207492S11658426EA0090800925000000000000
B0518553207524S11658372EA0090900929000000000000
B0518593207506S11658299EA0090900927000000000000
B0519033207451S11658247EA0090900926000000000000
B0519073207375S11658244EA0091100932000000000000
B0519113207320S11658299EA0092200940000000000000
B0519153207339S11658368EA0093500949000000000000
B0519193207394S11658383EA0094500959000000000000
B0519233207424S11658336EA0094300961000000000000
B0519273207394S11658281EA0094700965000000000000
B0519313207329S11658261EA0095000965000000000000
B0519353207261S11658297EA0094900967000000000000
B0519393207245S11658374EA0095900978000000000000
B0519433207289S11658424EA0096100977000000015000
B0519473207345S11658465EA0096100978000000000000
B0519513207404S11658499EA0095800976000000000000
B0519553207471S11658511EA0095000966000000000000
B0519593207540S11658496EA0093900957000000000000
B0520033207610S11658470EA0092500943000000000000
B0520073207677S11658431EA0091100927000000000000
B0520113207742S11658381EA0089900913000000000000
B0520153207798S11658316EA0089000908000000000000
B0520193207846S11658243EA0089100909000000000000
B0520233207885S11658166EA0089200910000000000000
B0520273207919S11658089EA0089800917000000000000
B0520313207944S11658008EA0090000916000000000000
B0520353207963S11657919EA0089900913000000000000
B0520393207979S11657829EA0089600913000000000000
B0520433207995S11657740EA0089500907000000000000
B0520473208008S11657646EA0088300892000000000000
B0520513208018S11657547EA0086700875000000000000
B0520553208022S11657446EA0086000873000000000000
B0520593208019S11657346EA0085400864000000000000
B0521033208012S11657247EA0085000861000000000000
B0521073208000S11657150EA0084800863000000000000
B0521113207983S11657056EA0086000875000000000000
B0521153207961S11656969EA0087900890000000000000
B0521193207917S11656900EA0088900908000000000000
B0521233207853S11656934EA0091400935000000000000
B0521273207862S11656991EA0092400935000000000000
B0521313207909S11656987EA0091700933000000000000
B0521353207928S11656931EA0092100942000000000000
B0521393207928S11656866EA0093300958000000000000
B0521433207911S11656800EA0094900971000000000000
B0521473207853S11656784EA0096500989000000000000
B0521513207837S11656849EA0098001003000000000000
B0521553207883S11656877EA0098901011000000015000
B0521593207909S11656822EA0100101025000000015000
B0522033207871S11656761EA0101401043000000015000
B0522073207810S11656763EA0103201059000000015000
B0522113207779S11656823EA0104501064000000015000
B0522153207802S11656884EA0104701067000000015000
B0522193207854S11656890EA0106001085000000015000
B0522233207892S11656849EA0107501099000000000000
B0522273207892S11656784EA0108201105000000000000
B0522313207840S11656745EA0108501111000000000000
B0522353207792S11656783EA0110001130000000000000
B0522393207796S11656845EA0111701143000000000000
B0522433207841S11656875EA0112701155000000000000
B0522473207885S11656845EA0114301172000000000000
B0522513207884S11656784EA0115501179000000000000
B0522553207831S11656754EA0115301174000000000000
B0522593207776S11656788EA0115701181000000000000
B0523033207779S11656854EA0117001201000000015000
B0523073207826S11656878EA0118601217000000015000
B0523113207863S11656834EA0119601227000000015000
B0523153207845S11656766EA0120101234000000015000
B0523193207787S11656748EA0120901235000000000000
B0523233207741S11656796EA0121101241000000000000
B0523273207752S11656861EA0122601260000000015000
B0523313207797S11656884EA0124401281000000015000
B0523353207836S11656849EA0126401296000000015000
B0523393207822S11656789EA0127001298000000000000
B0523433207767S11656765EA0126901298000000000000
B0523473207716S11656800EA0127001301000000000000
B0523513207697S11656866EA0127501306000000000000
B0523553207713S11656932EA0128401322000000000000
B0523593207758S11656945EA0130101337000000000000
B0524033207785S11656893EA0130501336000000000000
B0524073207771S11656822EA0130701343000000000000
B0524113207716S11656782EA0131201342000000000000
B0524153207657S11656810EA0131101342000000000000
B0524193207646S11656879EA0131901355000000000000
B0524233207693S11656882EA0132801368000000015000
B0524273207696S11656812EA0133601376000000015000
B0524313207640S11656782EA0134201379000000000000
B0524353207592S11656831EA0134501383000000000000
B0524393207586S11656904EA0135401390000000000000
B0524433207624S11656955EA0136001398000000000000
B0524473207681S11656957EA0136601405000000000000
B0524513207727S11656910EA0137201409000000000000
B0524553207724S11656838EA0138101419000000000000
B0524593207674S11656800EA0139101426000000000000
B0525033207615S11656821EA0139101423000000000000
B0525073207586S11656891EA0138601420000000000000
B0525113207610S11656953EA0139201433000000000000
B0525153207657S11656921EA0140301448000000015000
B0525193207642S11656849EA0140801451000000015000
B0525233207580S11656819EA0141201452000000000000
B0525273207523S11656857EA0141201451000000000000
B0525313207502S11656934EA0141301451000000000000
B0525353207523S11657007EA0141601457000000000000
B0525393207577S11657027EA0142601472000000000000
B0525433207610S11656970EA0143801486000000000000
B0525473207588S11656903EA0144801493000000000000
B0525513207528S11656891EA0145801503000000000000
B0525553207488S11656943EA0146201505000000000000
B0525593207498S11657007EA0146601511000000000000
B0526033207544S11657036EA0147201517000000000000
B0526073207594S11657021EA0147501520000000000000
B0526113207636S11656970EA0147201515000000000000
B0526153207642S11656897EA0147401515000000000000
B0526193207593S11656853EA0148201528000000000000
B0526233207541S11656879EA0148601526000000000000
B0526273207527S11656951EA0148301528000000000000
B0526313207546S11657021EA0148701532000000000000
B0526353207592S11657072EA0148701531000000000000
B0526393207650S11657078EA0148801532000000000000
B0526433207707S11657053EA0148601528000000000000
B0526473207765S11657023EA0148001519000000000000
B0526513207810S11656975EA0147301513000000000000
B0526553207793S11656914EA0146901508000000000000
B0526593207733S11656901EA0145801489000000000000
B0527033207666S11656909EA0144201476000000000000
B0527073207597S11656917EA0143501472000000000000
B0527113207528S11656929EA0144001481000000000000
B0527153207458S11656942EA0144801485000000000000
B0527193207382S11656955EA0144701482000000000000
B0527233207300S11656971EA0144601480000000000000
B0527273207216S11656990EA0144101474000000000000
B0527313207128S11657012EA0143001461000000000000
B0527353207037S11657040EA0141801447000000000000
B0527393206946S11657069EA0140701437000000000000
B0527433206855S11657096EA0139601426000000000000
B0527473206764S11657125EA0138301412000000000000
B0527513206669S11657155EA0137101400000000000000
B0527553206571S11657179EA0136601397000000000000
B0527593206470S11657204EA0136501401000000000000
B0528033206376S11657228EA0139101433000000000000
B0528073206290S11657248EA0140101428000000000000
B0528113206198S11657272EA0138501412000000000000
B0528153206102S11657298EA0137801409000000000000
B0528193206011S11657330EA0138901430000000000000
B0528233205926S11657369EA0139801426000000000000
B0528273205837S11657406EA0138801417000000000000
B0528313205746S11657438EA0137901407000000000000
B0528353205653S11657472EA0136801394000000000000
B0528393205558S11657503EA0135401381000000000000
B0528433205464S11657536EA0135101384000000000000
B0528473205370S11657564EA0135501386000000000000
B0528513205276S11657592EA0134501370000000000000
B0528553205180S11657627EA0133001354000000000000
B0528593205085S11657663EA0131901347000000000000
B0529033204992S11657699EA0131101334000000000000
B0529073204897S11657737EA0129701320000000000000
B0529113204802S11657775EA0128001304000000000000
B0529153204707S11657813EA0127001296000000000000
B0529193204615S11657849EA0127301308000000000000
B0529233204538S11657892EA0131001344000000000000
B0529273204478S11657949EA0132701354000000000000
B0529313204416S11658002EA0132701353000000000000
B0529353204349S11658048EA0133301364000000000000
B0529393204300S11658112EA0134301371000000000000
B0529433204308S11658188EA0135501385000000000000
B0529473204342S11658249EA0136501389000000000000
B0529513204394S11658235EA0136701398000000000000
B0529553204385S11658165EA0136701402000000000000
B0529593204325S11658119EA0137401412000000000000
B0530033204260S11658083EA0138201419000000000000
B0530073204190S11658053EA0138401423000000000000
B0530113204119S11658031EA0139701434000000000000
B0530153204045S11658009EA0139401427000000000000
B0530193203966S11657985EA0137901408000000000000
B0530233203874S11657983EA0135201371000000000000
B0530273203776S11658014EA0132801357000000000000
B0530313203681S11658054EA0131901347000000000000
B0530353203589S11658096EA0130901339000000000000
B0530393203498S11658138EA0130301332000000000000
B0530433203403S11658180EA0129201322000000000000
B0530473203311S11658221EA0130001335000000000000
B0530513203224S11658258EA0130301327000000000000
B0530553203129S11658296EA0127401299000000000000
B0530593203033S11658331EA0126901293000000000000
B0531033202938S11658366EA0125901287000000000000
B0531073202844S11658399EA0126201291000000000000
B0531113202753S11658430EA0125801285000000000000
B0531153202665S11658464EA0126601298000000000000
B0531193202580S11658495EA0127201300000000000000
B0531233202497S11658525EA0126801293000000000000
B0531273202411S11658554EA0125601280000000000000
B0531313202324S11658586EA0124401267000000000000
B0531353202234S11658620EA0123001253000000000000
B0531393202142S11658655EA0122101244000000000000
B0531433202054S11658690EA0121701244000000000000
B0531473201969S11658724EA0122301251000000000000
B0531513201886S11658758EA0122201246000000000000
B0531553201804S11658795EA0121901243000000000000
B0531593201723S11658833EA0121401237000000000000
B0532033201642S11658871EA0120501227000000000000
B0532073201557S11658907EA0119301218000000000000
B0532113201475S11658942EA0118801211000000000000
B0532153201391S11658975EA0118001200000000000000
B0532193201307S11659006EA0117701200000000000000
B0532233201223S11659036EA0117201193000000000000
B0532273201137S11659066EA0116801191000000000000
B0532313201053S11659097EA0117401207000000000000
B0532353200975S11659127EA0119701223000000000000
B0532393200901S11659162EA0120601232000000000000
B0532433200849S11659227EA0122001247000000000000
B0532473200869S11659291EA0123701264000000000000
B0532513200915S11659267EA0124901282000000000000
B0532553200902S11659202EA0126101301000000000000
B0532593200841S11659181EA0127201305000000000000
B0533033200791S11659230EA0128101317000000000000
B0533073200798S11659298EA0129001322000000000000
B0533113200847S11659309EA0130101336000000000000
B0533153200867S11659252EA0131401346000000000000
B0533193200826S11659194EA0131701349000000000000
B0533233200755S11659201EA0131901352000000000000
B0533273200711S11659266EA0132801365000000000000
B0533313200699S11659344EA0133801373000000000000
B0533353200734S11659396EA0134601380000000000000
B0533393200782S11659376EA0135701392000000000000
B0533433200780S11659310EA0137001407000000000000
B0533473200726S11659265EA0137801411000000000000
B0533513200660S11659289EA0137901416000000000000
B0533553200643S11659363EA0138801423000000000000
B0533593200673S11659415EA0139901438000000000000
B0534033200715S11659391EA0141001449000000000000
B0534073200706S11659327EA0142301463000000000000
B0534113200643S11659308EA0143201470000000000000
B0534153200590S11659353EA0143301468000000000000
B0534193200585S11659431EA0143101465000000000000
B0534233200621S11659480EA0143701481000000000000
B0534273200667S11659460EA0145301492000000000000
B0534313200673S11659393EA0145801498000000000000
B0534353200626S11659336EA0146601506000000000000
B0534393200557S11659331EA0147401512000000000000
B0534433200505S11659387EA0147601505000000000000
B0534473200447S11659453EA0147101506000000000000
B0534513200371S11659500EA0147501515000000000000
B0534553200291S11659538EA0147001503000000000000
B0534593200200S11659578EA0143301464000000000000
B0535033200100S11659621EA0142101461000000000000
B0535073200004S11659661EA0142001458000000000000
B0535113159911S11659699EA0141301443000000000000
B0535153159815S11659738EA0139801433000000000000
B0535193159720S11659776EA0139301427000000000000
B0535233159625S11659813EA0138301421000000000000
B0535273159530S11659850EA0138001414000000000000
B0535313159438S11659885EA0137301409000000000000
B0535353159346S11659919EA0136701399000000000000
B0535393159253S11659952EA0136101394000000000000
B0535433159161S11659985EA0135801394000000000000
B0535473159070S11700017EA0135501387000000000000
B0535513158978S11700054EA0135601392000000000000
B0535553158897S11700099EA0137001405000000000000
B0535593158821S11700149EA0136501394000000000000
B0536033158739S11700197EA0135201382000000000000
B0536073158654S11700241EA0134101368000000000000
B0536113158567S11700281EA0132401352000000000000
B0536153158479S11700322EA0131001338000000000000
B0536193158392S11700362EA0130301332000000000000
B0536233158303S11700398EA0129601322000000000000
B0536273158213S11700426EA0130201335000000000000
B0536313158124S11700427EA0131201346000000000000
B0536353158037S11700431EA0132201356000000000000
B0536393157953S11700436EA0133701378000000000000
B0536433157881S11700458EA0136301400000000000000
B0536473157875S11700527EA0137501405000000000000
B0536513157935S11700526EA0138101420000000000000
B0536553157955S11700466EA0140601446000000000000
B0536593157926S11700411EA0142401460000000000000
B0537033157868S11700396EA0143401467000000000000
B0537073157825S11700444EA0143901472000000000000
B0537113157838S11700507EA0144101474000000000000
B0537153157888S11700520EA0144801486000000000000
B0537193157927S11700478EA0146001501000000000000
B0537233157924S11700407EA0146601509000000000000
B0537273157869S11700362EA0147601515000000000000
B0537313157796S11700367EA0147301507000000000000
B0537353157717S11700390EA0145301481000000000000
B0537393157626S11700429EA0143201470000000000000
B0537433157534S11700472EA0142801466000000000000
B0537473157443S11700518EA0142301461000000000000
B0537513157353S11700567EA0141601455000000000000
B0537553157263S11700618EA0141601455000000000000
B0537593157175S11700669EA0140601441000000000000
B0538033157085S11700722EA0139501426000000000000
B0538073156994S11700773EA0138401420000000000000
B0538113156904S11700825EA0138101415000000000000
B0538153156815S11700875EA0138101420000000000000
B0538193156728S11700925EA0138101414000000000000
B0538233156642S11700974EA0137501409000000000000
B0538273156557S11701024EA0137001404000000000000
B0538313156474S11701072EA0136701400000000000000
B0538353156391S11701113EA0136401392000000000000
B0538393156305S11701150EA0135501382000000000000
B0538433156222S11701198EA0134901383000000000000
B0538473156143S11701251EA0135501390000000000000
B0538513156066S11701299EA0137301412000000000000
B0538553155994S11701342EA0138701420000000000000
B0538593155923S11701388EA0138601414000000000000
B0539033155846S11701433EA0137201397000000000000
B0539073155764S11701481EA0135601383000000000000
B0539113155680S11701528EA0134601369000000000000
B0539153155593S11701575EA0133201357000000000000
B0539193155504S11701618EA0132201345000000000000
B0539233155412S11701654EA0131201342000000000000
B0539273155322S11701688EA0130901336000000000000
B0539313155235S11701726EA0130301327000000000000
B0539353155151S11701768EA0129601319000000000000
B0539393155065S11701817EA0128101305000000000000
B0539433154982S11701867EA0127401301000000000000
B0539473154900S11701917EA0127301296000000000000
B0539513154818S11701967EA0126201282000000000000
B0539553154736S11702023EA0125101272000000000000
B0539593154653S11702080EA0124601269000000000000
B0540033154573S11702135EA0124401267000000000000
B0540073154498S11702188EA0124001262000000000000
B0540113154423S11702246EA0122801247000000000000
B0540153154346S11702305EA0121501234000000000000
B0540193154277S11702377EA0120501222000000000000
B0540233154207S11702447EA0119801220000000000000
B0540273154139S11702519EA0119701219000000000000
B0540313154066S11702578EA0119401212000000000000
B0540353153991S11702638EA0118401201000000000000
B0540393153914S11702697EA0117401191000000000000
B0540433153834S11702753EA0115801175000000000000
B0540473153753S11702811EA0114901164000000000000
B0540513153674S11702873EA0113901152000000000000
B0540553153595S11702936EA0112801141000000000000
B0540593153519S11703002EA0111901131000000000000
B0541033153444S11703071EA0110701122000000000000
B0541073153364S11703131EA0110001114000000000000
B0541113153281S11703182EA0109001104000000000000
B0541153153202S11703232EA0108101094000000000000
B0541193153121S11703284EA0107201084000000000000
B0541233153050S11703340EA0107601095000000000000
B0541273152984S11703395EA0107701086000000000000
B0541313152915S11703452EA0106701077000000000000
B0541353152855S11703518EA0106201074000000000000
B0541393152809S11703595EA0106001070000000000000
B0541433152764S11703673EA0105301062000000000000
B0541473152712S11703746EA0104701057000000000000
B0541513152653S11703812EA0104101051000000000000
B0541553152594S11703877EA0103601047000000000000
B0541593152534S11703941EA0103001042000000000000
B0542033152471S11704003EA0102501035000000000000
B0542073152408S11704066EA0101201019000000000000
B0542113152337S11704128EA0100101013000000000000
B0542153152267S11704189EA0099901011000000000000
B0542193152198S11704244EA0099701013000000000000
B0542233152132S11704300EA0099901013000000000000
B0542273152072S11704361EA0100101017000000000000
B0542313152015S11704418EA0100801023000000000000
B0542353151959S11704478EA0100601019000000000000
B0542393151908S11704545EA0100301016000000000000
B0542433151888S11704627EA0100101013000000000000
B0542473151907S11704708EA0099000997000000000000
B0542513151923S11704795EA0097300980000000000000
B0542553151907S11704887EA0096000968000000000000
B0542593151849S11704952EA0095200962000000000000
B0543033151772S11704986EA0094100951000000000000
B0543073151690S11705017EA0093100942000000000000
B0543113151611S11705054EA0093300954000000000000
B0543153151557S11705111EA0095100969000000000000
B0543193151582S11705174EA0096100974000000000000
B0543233151646S11705174EA0096400980000000000000
B0543273151698S11705132EA0096800983000000000000
B0543313151730S11705064EA0096600977000000000000
B0543353151730S11704981EA0095500969000000000000
B0543393151684S11704917EA0095800973000000000000
B0543433151612S11704903EA0095300964000000000000
B0543473151533S11704911EA0095100968000000000000
B0543513151459S11704933EA0097000986000000000000
B0543553151455S11704996EA0098400999000000000000
B0543593151505S11704994EA0099701011000000000000
B0544033151521S11704931EA0100301019000000000000
B0544073151483S11704872EA0101201030000000000000
B0544113151420S11704883EA0102801048000000000000
B0544153151404S11704950EA0103301055000000000000
B0544193151447S11704986EA0104501066000000000000
B0544233151492S11704966EA0105601075000000000000
B0544273151515S11704907EA0105601073000000000000
B0544313151487S11704834EA0106001081000000000000
B0544353151425S11704842EA0107901099000000000000
B0544393151414S11704912EA0108401101000000000000
B0544433151466S11704930EA0109601120000000000000
B0544473151485S11704870EA0111801141000000015000
B0544513151437S11704825EA0112601146000000015000
B0544553151378S11704852EA0113501161000000000000
B0544593151369S11704925EA0114301166000000000000
B0545033151417S11704956EA0115401184000000000000
B0545073151457S11704916EA0117001200000000000000
B0545113151444S11704849EA0118201205000000000000
B0545153151381S11704818EA0118901218000000000000
B0545193151325S11704856EA0120201231000000000000
B0545233151313S11704929EA0121201241000000000000
B0545273151355S11704968EA0122901258000000000000
B0545313151400S11704935EA0124101271000000000000
B0545353151399S11704866EA0125001283000000000000
B0545393151346S11704822EA0126401297000000000000
B0545433151288S11704847EA0127801314000000000000
B0545473151277S11704914EA0128801317000000000000
B0545513151325S11704938EA0129601331000000000000
B0545553151356S11704879EA0130601342000000000000
B0545593151326S11704814EA0132301360000000000000
B0546033151262S11704804EA0133301366000000000000
B0546073151223S11704861EA0133501371000000000000
B0546113151251S11704917EA0134901386000000000000
B0546153151303S11704907EA0136001395000000000000
B0546193151322S11704843EA0136601401000000000000
B0546233151290S11704778EA0137901418000000000000
B0546273151229S11704774EA0139201430000000000000
B0546313151213S11704836EA0140101436000000000000
B0546353151256S11704879EA0140101436000000000000
B0546393151305S11704848EA0141201450000000000000
B0546433151295S11704778EA0142801470000000015000
B0546473151234S11704751EA0143801476000000015000
B0546513151183S11704795EA0144401486000000000000
B0546553151188S11704861EA0145401497000000000000
B0546593151236S11704882EA0146201505000000015000
B0547033151268S11704831EA0147301514000000015000
B0547073151236S11704769EA0148001520000000015000
B0547113151170S11704742EA0148101520000000000000
B0547153151093S11704738EA0147801515000000000000
B0547193151008S11704749EA0145701483000000000000
B0547233150914S11704784EA0143201465000000000000
B0547273150815S11704823EA0141701452000000000000
B0547313150718S11704864EA0140701446000000000000
B0547353150627S11704903EA0140801448000000000000
B0547393150540S11704942EA0140501438000000000000
B0547433150455S11704983EA0139001422000000000000
B0547473150371S11705025EA0137401406000000000000
B0547513150286S11705067EA0136701399000000000000
B0547553150202S11705108EA0135901391000000000000
B0547593150120S11705156EA0135401385000000000000
B0548033150036S11705200EA0135401388000000000000
B0548073149952S11705242EA0136001397000000000000
B0548113149871S11705281EA0137901411000000000000
B0548153149792S11705316EA0137901410000000000000
B0548193149713S11705349EA0139201430000000000000
B0548233149639S11705380EA0140701437000000000000
B0548273149562S11705415EA0140501432000000000000
B0548313149485S11705450EA0140501439000000000000
B0548353149411S11705488EA0141401445000000000000
B0548393149340S11705528EA0142101458000000000000
B0548433149269S11705568EA0142801458000000000000
B0548473149195S11705613EA0142401450000000000000
B0548513149115S11705661EA0141901453000000000000
B0548553149032S11705709EA0142501465000000000000
B0548593148963S11705769EA0144401477000000000000
B0549033148889S11705821EA0143301456000000000000
B0549073148800S11705863EA0140501432000000000000
B0549113148710S11705908EA0138701417000000000000
B0549153148617S11705952EA0137301394000000000000
B0549193148522S11705996EA0136101382000000000000
B0549233148430S11706043EA0136601402000000000000
B0549273148349S11706090EA0140401444000000000000
B0549313148330S11706165EA0143801470000000000000
B0549353148384S11706179EA0145601498000000000000
B0549393148408S11706118EA0147701517000000015000
B0549433148365S11706066EA0148401524000000030000
B0549473148314S11706100EA0149001536000000030000
B0549513148328S11706173EA0150001552000000015000
B0549553148383S11706181EA0152201574000000030000
B0549593148411S11706122EA0153801589000000030000
B0550033148375S11706065EA0155401605000000030000
B0550073148319S11706090EA0156201609000000015000
B0550113148315S11706165EA0156801614000000015000
B0550153148367S11706183EA0158501632000000015000
B0550193148387S11706120EA0159801645000000015000
B0550233148343S11706068EA0160901659000000015000
B0550273148287S11706092EA0161801669000000015000
B0550313148280S11706164EA0163101682000000015000
B0550353148330S11706187EA0164701700000000015000
B0550393148370S11706140EA0165801712000000015000
B0550433148358S11706071EA0166901727000000015000
B0550473148305S11706042EA0167401728000000015000
B0550513148253S11706084EA0167901734000000015000
B0550553148248S11706161EA0169101746000000000000
B0550593148296S11706182EA0170401759000000015000
B0551033148318S11706122EA0171601777000000015000
B0551073148275S11706086EA0173101789000000015000
B0551113148224S11706118EA0173601794000000015000
B0551153148223S11706183EA0174401803000000015000
B0551193148274S11706199EA0174701802000000015000
B0551233148297S11706140EA0174701810000000015000
B0551273148262S11706088EA0175801817000000015000
B0551313148196S11706088EA0175401812000000015000
B0551353148124S11706121EA0174701804000000000000
B0551393148046S11706164EA0173701792000000000000
B0551433147960S11706212EA0172701781000000000000
B0551473147871S11706265EA0171401768000000000000
B0551513147777S11706316EA0170801764000000000000
B0551553147682S11706367EA0169901750000000000000
B0551593147583S11706416EA0168401734000000000000
B0552033147486S11706468EA0168001734000000000000
B0552073147392S11706519EA0167501726000000000000
B0552113147297S11706569EA0166501714000000000000
B0552153147201S11706621EA0165301701000000000000
B0552193147105S11706675EA0164701698000000000000
B0552233147009S11706731EA0164001691000000000000
B0552273146915S11706786EA0163601683000000000000
B0552313146819S11706844EA0161901667000000000000
B0552353146724S11706903EA0161101659000000000000
B0552393146629S11706962EA0160301650000000000000
B0552433146539S11707019EA0159601645000000000000
B0552473146454S11707074EA0159801640000000000000
B0552513146367S11707124EA0158901634000000000000
B0552553146286S11707176EA0159701638000000000000
B0552593146205S11707232EA0159201635000000000000
B0553033146126S11707280EA0160301654000000000000
B0553073146047S11707327EA0161601660000000000000
B0553113145965S11707368EA0162901677000000000000
B0553153145887S11707405EA0163901683000000000000
B0553193145808S11707449EA0162701666000000000000
B0553233145723S11707498EA0160301642000000000000
B0553273145631S11707551EA0158801627000000000000
B0553313145540S11707607EA0158001624000000000000
B0553353145451S11707663EA0157801621000000000000
B0553393145363S11707719EA0157701618000000000000
B0553433145275S11707773EA0156901611000000000000
B0553473145187S11707829EA0156201603000000000000
B0553513145099S11707885EA0155501595000000000000
B0553553145011S11707940EA0154801589000000000000
B0553593144921S11707993EA0154501587000000000000
B0554033144830S11708044EA0154201582000000000000
B0554073144736S11708088EA0153701579000000000000
B0554113144644S11708132EA0153001567000000000000
B0554153144552S11708181EA0151601558000000000000
B0554193144463S11708235EA0151401553000000000000
B0554233144376S11708289EA0150301542000000000000
B0554273144288S11708343EA0149301533000000000000
B0554313144201S11708397EA0148401523000000000000
B0554353144115S11708452EA0147501514000000000000
B0554393144028S11708508EA0146801506000000000000
B0554433143942S11708561EA0146201502000000000000
B0554473143858S11708616EA0145401493000000000000
B0554513143774S11708670EA0144901490000000000000
B0554553143692S11708722EA0144801485000000000000
B0554593143611S11708772EA0144201481000000000000
B0555033143527S11708820EA0143701472000000000000
B0555073143451S11708878EA0143201472000000000000
B0555113143379S11708941EA0143101466000000000000
B0555153143301S11708994EA0142601466000000000000
B0555193143223S11709045EA0143801484000000000000
B0555233143153S11709091EA0145701501000000000000
B0555273143087S11709138EA0146601506000000000000
B0555313143020S11709181EA0146101497000000000000
B0555353142949S11709230EA0144401474000000000000
B0555393142873S11709281EA0143101467000000000000
B0555433142803S11709338EA0143501478000000000000
B0555473142740S11709393EA0145001493000000000000
B0555513142675S11709444EA0145801497000000000000
B0555553142607S11709490EA0145901496000000000000
B0555593142535S11709535EA0145301487000000000000
B0556033142463S11709580EA0144101474000000000000
B0556073142387S11709627EA0143301468000000000000
B0556113142312S11709674EA0142401461000000000000
B0556153142235S11709722EA0141801451000000000000
B0556193142155S11709773EA0140501438000000000000
B0556233142079S11709832EA0140001437000000000000
B0556273142004S11709893EA0139301427000000000000
B0556313141927S11709955EA0138501419000000000000
B0556353141850S11710016EA0137101402000000000000
B0556393141765S11710066EA0135401383000000000000
B0556433141672S11710092EA0134101373000000000000
B0556473141579S11710107EA0134101377000000000000
B0556513141492S11710129EA0134901386000000000000
B0556553141414S11710172EA0136301403000000000000
B0556593141352S11710226EA0138701427000000000000
B0557033141386S11710280EA0141001446000000000000
B0557073141434S11710241EA0142401465000000000000
B0557113141421S11710172EA0143901481000000000000
B0557153141362S11710148EA0145401495000000000000
B0557193141316S11710195EA0146201507000000000000
B0557233141349S11710248EA0147801520000000000000
B0557273141394S11710207EA0148701530000000015000
B0557313141364S11710140EA0150101547000000015000
B0557353141304S11710139EA0151701560000000015000
B0557393141289S11710202EA0152501573000000015000
B0557433141339S11710225EA0154001589000000015000
B0557473141369S11710164EA0154601599000000015000
B0557513141333S11710101EA0156201616000000015000
B0557553141272S11710105EA0157101625000000015000
B0557593141243S11710164EA0158101630000000015000
B0558033141286S11710199EA0159301653000000015000
B0558073141328S11710156EA0161001672000000015000
B0558113141315S11710091EA0163001689000000015000
B0558153141258S11710069EA0163701692000000015000
B0558193141203S11710108EA0163801691000000015000
B0558233141203S11710174EA0165301716000000015000
B0558273141250S11710168EA0167701734000000015000
B0558313141250S11710098EA0168401745000000015000
B0558353141193S11710069EA0169601756000000015000
B0558393141150S11710113EA0170501765000000015000
B0558433141164S11710173EA0171901779000000015000
B0558473141215S11710177EA0173101796000000015000
B0558513141237S11710118EA0174301805000000015000
B0558553141204S11710057EA0175001807000000015000
B0558593141142S11710046EA0174901805000000015000
B0559033141089S11710088EA0175001808000000015000
B0559073141107S11710147EA0176501825000000015000
B0559113141155S11710116EA0177401832000000015000
B0559153141144S11710044EA0178601846000000015000
B0559193141086S11710021EA0179401848000000015000
B0559233141046S11710068EA0179501855000000015000
B0559273141068S11710125EA0180301861000000015000
B0559313141125S11710117EA0181501879000000015000
B0559353141147S11710053EA0183101894000000015000
B0559393141112S11709992EA0183601895000000015000
B0559433141048S11709990EA0183001884000000015000
B0559473140982S11710030EA0180501855000000000000
B0559513140907S11710082EA0179301848000000000000
B0559553140827S11710137EA0177901829000000000000
B0559593140745S11710199EA0175801814000000000000
B0600033140661S11710264EA0174701802000000000000
B0600073140576S11710326EA0174101796000000000000
B0600113140493S11710387EA0173601791000000000000
B0600153140409S11710446EA0172901784000000000000
B0600193140323S11710503EA0171901772000000000000
B0600233140236S11710559EA0170901760000000000000
B0600273140147S11710615EA0170101754000000000000
B0600313140059S11710670EA0169801751000000000000
B0600353139972S11710722EA0169801753000000000000
B0600393139887S11710772EA0169501748000000000000
B0600433139804S11710823EA0169201745000000000000
B0600473139724S11710872EA0169801753000000000000
B0600513139648S11710919EA0170001749000000000000
B0600553139573S11710967EA0169401738000000000000
B0600593139496S11711019EA0168201727000000000000
B0601033139419S11711073EA0167401721000000000000
B0601073139345S11711127EA0166701712000000000000
B0601113139270S11711184EA0165901705000000000000
B0601153139196S11711242EA0165301699000000000000
B0601193139122S11711299EA0164401688000000000000
B0601233139046S11711357EA0163901683000000000000
B0601273138973S11711414EA0163401679000000000000
B0601313138902S11711472EA0162701668000000000000
B0601353138828S11711529EA0161701655000000000000
B0601393138752S11711585EA0160401647000000000000
B0601433138678S11711641EA0159901641000000000000
B0601473138606S11711697EA0159101631000000000000
B0601513138534S11711754EA0158201623000000000000
B0601553138463S11711811EA0158101623000000000000
B0601593138394S11711869EA0157601615000000000000
B0602033138325S11711925EA0157201611000000000000
B0602073138257S11711981EA0156601603000000000000
B0602113138187S11712036EA0155901598000000000000
B0602153138118S11712089EA0155801601000000000000
B0602193138053S11712144EA0155901596000000000000
B0602233137983S11712198EA0154701585000000000000
B0602273137911S11712254EA0153601574000000000000
B0602313137839S11712308EA0153001570000000000000
B0602353137770S11712360EA0153001568000000000000
B0602393137706S11712418EA0152101556000000000000
B0602433137640S11712478EA0150801544000000000000
B0602473137573S11712536EA0150001537000000000000
B0602513137511S11712592EA0149401529000000000000
B0602553137451S11712651EA0148901525000000000000
B0602593137394S11712711EA0148901524000000000000
B0603033137337S11712768EA0149201530000000000000
B0603073137282S11712825EA0149001524000000000000
B0603113137231S11712891EA0148401520000000000000
B0603153137186S11712961EA0148401525000000000000
B0603193137186S11713033EA0150001546000000000000
B0603233137241S11713026EA0151101548000000000000
B0603273137243S11712947EA0151001547000000000000
B0603313137181S11712911EA0150501544000000000000
B0603353137109S11712928EA0150401547000000000000
B0603393137055S11712977EA0150901552000000000000
B0603433137055S11713045EA0150801551000000000000
B0603473137103S11713089EA0150501550000000000000
B0603513137170S11713098EA0150501552000000000000
B0603553137239S11713088EA0149901547000000000000
B0603593137307S11713073EA0149301537000000000000
B0604033137374S11713054EA0148901533000000000000
B0604073137441S11713032EA0148201524000000000000
B0604113137510S11713007EA0147201516000000000000
B0604153137580S11712980EA0146501507000000000000
B0604193137650S11712955EA0146501510000000000000
B0604233137724S11712932EA0147001519000000000000
B0604273137800S11712911EA0148701537000000000000
B0604313137866S11712880EA0151601567000000000000
B0604353137876S11712809EA0154001588000000000000
B0604393137816S11712776EA0154401590000000000000
B0604433137762S11712815EA0154301590000000000000
B0604473137751S11712886EA0155001605000000000000
B0604513137779S11712943EA0156601620000000000000
B0604553137829S11712967EA0157901625000000000000
B0604593137883S11712942EA0158001626000000000000
B0605033137907S11712876EA0158101627000000000000
B0605073137887S11712804EA0157901623000000000000
B0605113137827S11712763EA0157001610000000000000
B0605153137762S11712782EA0156301610000000000000
B0605193137722S11712844EA0157001622000000000000
B0605233137702S11712916EA0159101643000000000000
B0605273137735S11712963EA0160101655000000000000
B0605313137779S11712925EA0161101662000000000000
B0605353137755S11712860EA0161501663000000000000
B0605393137689S11712873EA0161001661000000000000
B0605433137671S11712943EA0162501690000000000000
B0605473137697S11712995EA0165101711000000000000
B0605513137748S11712998EA0166401719000000000000
B0605553137787S11712950EA0166701719000000000000
B0605593137772S11712878EA0166901722000000000000
B0606033137712S11712854EA0167201723000000000000
B0606073137668S11712903EA0167601736000000000000
B0606113137676S11712965EA0168701747000000000000
B0606153137719S11713007EA0169601758000000000000
B0606193137777S11713025EA0169801757000000000000
B0606233137844S11713025EA0169301746000000000000
B0606273137913S11713023EA0167701725000000000000
B0606313137989S11713030EA0165601711000000000000
B0606353138066S11713042EA0165101702000000000000
B0606393138151S11713051EA0162601675000000000000
B0606433138242S11713060EA0161001663000000000000
B0606473138333S11713071EA0160401663000000000000
B0606513138418S11713082EA0162201681000000000000
B0606553138503S11713094EA0162601682000000000000
B0606593138590S11713106EA0161201661000000000000
B0607033138686S11713116EA0158901644000000000000
B0607073138785S11713123EA0158301636000000000000
B0607113138884S11713127EA0157701630000000000000
B0607153138980S11713128EA0157501627000000000000
B0607193139075S11713128EA0157601629000000000000
B0607233139166S11713129EA0157701630000000000000
B0607273139253S11713129EA0157901627000000000000
B0607313139340S11713129EA0157201620000000000000
B0607353139427S11713128EA0156201607000000000000
B0607393139514S11713127EA0154701591000000000000
B0607433139601S11713125EA0153701583000000000000
B0607473139690S11713130EA0153101577000000000000
B0607513139776S11713137EA0153301584000000000000
B0607553139859S11713142EA0153301579000000000000
B0607593139942S11713149EA0153601588000000000000
B0608033140023S11713156EA0154801597000000000000
B0608073140102S11713167EA0154001583000000000000
B0608113140182S11713177EA0153501583000000000000
B0608153140260S11713182EA0153801594000000000000
B0608193140333S11713184EA0155501608000000000000
B0608233140402S11713184EA0157001625000000000000
B0608273140468S11713182EA0159001640000000000000
B0608313140536S11713182EA0159501645000000000000
B0608353140602S11713181EA0160901662000000000000
B0608393140626S11713116EA0162801682000000000000
B0608433140567S11713086EA0164101704000000015000
B0608473140533S11713145EA0164701713000000015000
B0608513140559S11713201EA0165401719000000015000
B0608553140617S11713202EA0166201726000000015000
B0608593140640S11713138EA0167101734000000015000
B0609033140596S11713082EA0167301735000000015000
B0609073140527S11713089EA0167401738000000015000
B0609113140496S11713150EA0167801744000000015000
B0609153140531S11713203EA0168201747000000015000
B0609193140592S11713220EA0168901754000000015000
B0609233140658S11713224EA0168901749000000015000
B0609273140731S11713223EA0167201727000000000000
B0609313140810S11713218EA0164701701000000000000
B0609353140892S11713206EA0162401681000000000000
B0609393140974S11713195EA0162201672000000000000
B0609433141051S11713197EA0163101684000000000000
B0609473141122S11713210EA0163301687000000000000
B0609513141195S11713227EA0163701691000000000000
B0609553141265S11713241EA0164201693000000000000
B0609593141339S11713254EA0163401680000000000000
B0610033141419S11713268EA0162801677000000000000
B0610073141501S11713280EA0163201684000000000000
B0610113141581S11713296EA0162601675000000000000
B0610153141666S11713306EA0161401663000000000000
B0610193141749S11713310EA0161201662000000000000
B0610233141833S11713312EA0160601650000000000000
B0610273141919S11713315EA0159101633000000000000
B0610313142006S11713312EA0158001622000000000000
B0610353142097S11713306EA0156701610000000000000
B0610393142186S11713299EA0156001604000000000000
B0610433142272S11713289EA0155701602000000000000
B0610473142357S11713280EA0155301598000000000000
B0610513142443S11713271EA0155101596000000000000
B0610553142526S11713264EA0155201599000000000000
B0610593142607S11713259EA0155401600000000000000
B0611033142686S11713258EA0155401594000000000000
B0611073142769S11713259EA0154101583000000000000
B0611113142854S11713259EA0153201575000000000000
B0611153142937S11713260EA0152901571000000000000
B0611193143022S11713262EA0151801558000000000000
B0611233143105S11713263EA0151001551000000000000
B0611273143187S11713263EA0150301545000000000000
B0611313143269S11713264EA0149001531000000000000
B0611353143356S11713264EA0147701512000000000000
B0611393143445S11713263EA0146201501000000000000
B0611433143535S11713263EA0145301496000000000000
B0611473143622S11713263EA0145201493000000000000
B0611513143709S11713264EA0144901488000000000000
B0611553143798S11713266EA0144101481000000000000
B0611593143886S11713267EA0143601474000000000000
B0612033143975S11713268EA0142501461000000000000
B0612073144064S11713268EA0141301447000000000000
B0612113144153S11713266EA0140201437000000000000
B0612153144241S11713260EA0139301428000000000000
B0612193144331S11713255EA0138001410000000000000
B0612233144423S11713251EA0136201396000000000000
B0612273144515S11713246EA0135001386000000000000
B0612313144609S11713242EA0134401380000000000000
B0612353144700S11713237EA0133801375000000000000
B0612393144791S11713232EA0133501371000000000000
B0612433144881S11713227EA0132601359000000000000
B0612473144972S11713223EA0131501343000000000000
B0612513145063S11713219EA0130401336000000000000
B0612553145154S11713215EA0129301327000000000000
B0612593145243S11713214EA0128301314000000000000
B0613033145332S11713212EA0127501305000000000000
B0613073145419S11713211EA0126701301000000000000
B0613113145503S11713210EA0125801286000000000000
B0613153145590S11713205EA0124401273000000000000
B0613193145678S11713198EA0123201257000000000000
B0613233145766S11713192EA0121301238000000000000
B0613273145857S11713186EA0119901227000000000000
B0613313145945S11713182EA0119001218000000000000
B0613353146034S11713177EA0118601216000000000000
B0613393146117S11713175EA0118801221000000000000
B0613433146195S11713171EA0119401223000000000000
B0613473146272S11713167EA0118501209000000000000
B0613513146350S11713164EA0117001195000000000000
B0613553146428S11713162EA0116301189000000000000
B0613593146503S11713159EA0115501177000000000000
B0614033146581S11713156EA0114201165000000000000
B0614073146660S11713158EA0113201156000000000000
B0614113146741S11713163EA0112501147000000000000
B0614153146820S11713169EA0112401151000000000000
B0614193146894S11713172EA0112901155000000000000
B0614233146968S11713175EA0112901151000000000000
B0614273147044S11713175EA0112801156000000000000
B0614313147115S11713173EA0113801164000000000000
B0614353147184S11713172EA0114201167000000000000
B0614393147253S11713169EA0113701158000000000000
B0614433147326S11713177EA0113001151000000000000
B0614473147400S11713186EA0111901138000000000000
B0614513147477S11713201EA0110401121000000000000
B0614553147552S11713225EA0108701105000000000000
B0614593147629S11713244EA0107301090000000000000
B0615033147707S11713251EA0105801074000000000000
B0615073147785S11713260EA0104901065000000000000
B0615113147858S11713284EA0104101059000000000000
B0615153147928S11713316EA0103601053000000000000
B0615193148001S11713346EA0102601040000000000000
B0615233148076S11713368EA0101201027000000000000
B0615273148153S11713374EA0100401016000000000000
B0615313148229S11713359EA0098901001000000000000
B0615353148306S11713336EA0098000994000000000000
B0615393148375S11713302EA0097300983000000000000
B0615433148443S11713255EA0095900972000000000000
B0615473148512S11713211EA0095000962000000000000
B0615513148586S11713173EA0093900951000000000000
B0615553148661S11713141EA0093400949000000000000
B0615593148739S11713120EA0093100947000000000000
B0616033148814S11713103EA0093100944000000000000
B0616073148891S11713086EA0092200936000000000000
B0616113148968S11713078EA0091900937000000000000
B0616153149043S11713071EA0092100935000000000000
B0616193149117S11713062EA0091200926000000000000
B0616233149191S11713051EA0090400915000000000000
B0616273149269S11713041EA0089000899000000000000
B0616313149347S11713033EA0088000891000000000000
B0616353149423S11713037EA0087600892000000000000
B0616393149496S11713038EA0087700890000000000000
B0616433149567S11713033EA0087200881000000000000
B0616473149639S11713024EA0086400874000000000000
B0616513149708S11713007EA0085700867000000000000
B0616553149778S11712984EA0085000859000000000000
B0616593149849S11712964EA0083700843000000000000
B0617033149922S11712943EA0082600837000000000000
B0617073149994S11712921EA0081800826000000000000
B0617113150065S11712898EA0080900815000000000000
B0617153150139S11712877EA0080000808000000000000
B0617193150212S11712863EA0079500802000000000000
B0617233150283S11712848EA0078800793000000000000
B0617273150352S11712833EA0077900782000000000000
B0617313150421S11712817EA0076700771000000000000
B0617353150490S11712795EA0075600760000000000000
B0617393150558S11712768EA0074400747000000000000
B0617433150624S11712735EA0073200734000000000000
B0617473150690S11712701EA0071900720000000000000
B0617513150758S11712670EA0070600705000000000000
B0617553150827S11712649EA0069800700000000000000
B0617593150896S11712638EA0069200691000000000000
B0618033150963S11712623EA0068300682000000000000
B0618073151032S11712601EA0067400672000000000000
B0618113151100S11712562EA0066400664000000000000
B0618153151148S11712493EA0066600669000000000000
B0618193151165S11712405EA0066800667000000000000
B0618233151140S11712318EA0067100676000000000000
B0618273151071S11712293EA0067800683000000000000
B0618313151031S11712349EA0067300680000000000000
B0618353151062S11712402EA0066500672000000000000
B0618393151117S11712382EA0066500670000000000000
B0618433151141S11712311EA0065900664000000000000
B0618473151153S11712224EA0065600663000000000000
B0618513151115S11712157EA0066700667000000000000
B0618553151070S11712202EA0067000664000000015000
B0618593151109S11712239EA0067200676000000015000
B0619033151148S11712196EA0068500692000000015000
B0619073151118S11712133EA0069600697000000015000
B0619113151054S11712153EA0069800699000000015000
B0619153151053S11712217EA0069900701000000015000
B0619193151102S11712213EA0070600712000000015000
B0619233151106S11712146EA0072400735000000015000
B0619273151052S11712126EA0073500742000000015000
B0619313151022S11712179EA0073300741000000015000
B0619353151058S11712205EA0074600757000000015000
B0619393151086S11712155EA0075300761000000015000
B0619433151050S11712097EA0076200774000000015000
B0619473150987S11712109EA0077000777000000015000
B0619513150967S11712170EA0077300785000000015000
B0619553151009S11712187EA0078400797000000015000
B0619593151030S11712128EA0079200804000000015000
B0620033150985S11712079EA0079900820000000015000
B0620073150932S11712111EA0081200830000000015000
B0620113150943S11712165EA0082000843000000015000
B0620153150984S11712154EA0083400855000000015000
B0620193150989S11712090EA0084100861000000015000
B0620233150936S11712053EA0085300879000000015000
B0620273150888S11712094EA0086800891000000015000
B0620313150907S11712142EA0087900906000000015000
B0620353150948S11712126EA0089000913000000015000
B0620393150948S11712061EA0089800923000000015000
B0620433150893S11712025EA0091200937000000015000
B0620473150840S11712062EA0092300947000000015000
B0620513150837S11712124EA0093300957000000015000
B0620553150878S11712153EA0094100968000000015000
B0620593150911S11712110EA0094900975000000015000
B0621033150876S11712049EA0096100992000000015000
B0621073150813S11712062EA0097901009000000015000
B0621113150798S11712124EA0098501015000000015000
B0621153150839S11712146EA0099701031000000015000
B0621193150867S11712100EA0100501033000000015000
B0621233150835S11712036EA0100701047000000015000
B0621273150770S11712050EA0102701064000000015000
B0621313150745S11712118EA0103701069000000015000
B0621353150780S11712162EA0104201076000000015000
B0621393150826S11712128EA0104801079000000015000
B0621433150829S11712053EA0105401088000000015000
B0621473150776S11712007EA0106801099000000015000
B0621513150728S11712057EA0108301116000000015000
B0621553150744S11712111EA0109901132000000015000
B0621593150783S11712087EA0111001143000000000000
B0622033150770S11712020EA0112201153000000000000
B0622073150706S11712007EA0113201161000000000000
B0622113150675S11712067EA0114301174000000015000
B0622153150706S11712107EA0115601187000000015000
B0622193150744S11712075EA0116701196000000000000
B0622233150733S11712006EA0117401203000000000000
B0622273150672S11711973EA0118101214000000015000
B0622313150621S11712023EA0119501227000000015000
B0622353150641S11712080EA0120701241000000000000
B0622393150683S11712058EA0121801250000000000000
B0622433150666S11711990EA0122901261000000000000
B0622473150601S11711976EA0124201273000000000000
B0622513150558S11712028EA0124901282000000000000
B0622553150571S11712090EA0125801291000000000000
B0622593150618S11712093EA0126601301000000000000
B0623033150641S11712032EA0127201307000000000000
B0623073150619S11711959EA0128101317000000000000
B0623113150556S11711958EA0129601330000000000000
B0623153150547S11712028EA0129501328000000000000
B0623193150592S11712068EA0129801339000000000000
B0623233150611S11712010EA0132201367000000000000
B0623273150558S11711975EA0133001372000000000000
B0623313150499S11712025EA0132901371000000000000
B0623353150498S11712106EA0133001375000000000000
B0623393150545S11712153EA0133701383000000000000
B0623433150589S11712118EA0135101397000000000000
B0623473150577S11712044EA0135801402000000000000
B0623513150519S11711999EA0136901419000000000000
B0623553150464S11712044EA0138901433000000000000
B0623593150472S11712115EA0139001435000000000000
B0624033150523S11712127EA0139901446000000000000
B0624073150553S11712066EA0140301449000000000000
B0624113150534S11711988EA0141401461000000000000
B0624153150471S11711959EA0143301480000000000000
B0624193150416S11712005EA0144501490000000000000
B0624233150412S11712075EA0145201499000000000000
B0624273150455S11712106EA0145901504000000000000
B0624313150499S11712068EA0146001503000000000000
B0624353150482S11711992EA0146301519000000000000
B0624393150416S11711973EA0148601535000000000000
B0624433150358S11712022EA0149501539000000000000
B0624473150345S11712100EA0149801543000000000000
B0624513150378S11712158EA0150501551000000000000
B0624553150432S11712150EA0151201556000000000000
B0624593150456S11712087EA0151001554000000000000
B0625033150413S11712025EA0152101569000000000000
B0625073150345S11712027EA0153801582000000000000
B0625113150298S11712087EA0154701590000000000000
B0625153150300S11712158EA0155401597000000000000
B0625193150335S11712205EA0155701597000000000000
B0625233150386S11712232EA0154401570000000000000
B0625273150458S11712249EA0150801537000000000000
B0625313150540S11712261EA0148601521000000000000
B0625353150625S11712270EA0147201512000000000000
B0625393150710S11712275EA0146701509000000000000
B0625433150793S11712278EA0146501503000000000000
B0625473150879S11712280EA0145501493000000000000
B0625513150966S11712288EA0144501482000000000000
B0625553151054S11712300EA0143401471000000000000
B0625593151144S11712311EA0143401470000000000000
B0626033151230S11712310EA0142801465000000000000
B0626073151314S11712302EA0141801451000000000000
B0626113151401S11712291EA0140501437000000000000
B0626153151489S11712278EA0139101422000000000000
B0626193151577S11712280EA0137901412000000000000
B0626233151660S11712301EA0137401408000000000000
B0626273151738S11712323EA0136801400000000000000
B0626313151816S11712341EA0135801388000000000000
B0626353151898S11712344EA0134501377000000000000
B0626393151981S11712336EA0133701368000000000000
B0626433152067S11712324EA0132701356000000000000
B0626473152154S11712314EA0131701348000000000000
B0626513152241S11712304EA0131201341000000000000
B0626553152326S11712297EA0130001328000000000000
B0626593152413S11712288EA0128601315000000000000
B0627033152497S11712276EA0127701306000000000000
B0627073152582S11712263EA0128101315000000000000
B0627113152666S11712252EA0129001322000000000000
B0627153152751S11712237EA0128001299000000000000
B0627193152842S11712220EA0125701282000000000000
B0627233152935S11712201EA0124501271000000000000
B0627273153026S11712180EA0123701264000000000000
B0627313153116S11712158EA0123201259000000000000
B0627353153203S11712137EA0122701256000000000000
B0627393153286S11712118EA0122401252000000000000
B0627433153368S11712100EA0121501239000000000000
B0627473153450S11712083EA0120401224000000000000
B0627513153535S11712070EA0119001213000000000000
B0627553153617S11712059EA0118001203000000000000
B0627593153697S11712048EA0117201194000000000000
B0628033153778S11712031EA0117601203000000000000
B0628073153855S11712009EA0118801219000000000000
B0628113153922S11711984EA0121101240000000000000
B0628153153983S11711962EA0122301250000000000000
B0628193154044S11711941EA0122401250000000000000
B0628233154108S11711924EA0122501251000000000000
B0628273154170S11711910EA0122501246000000000000
B0628313154237S11711890EA0121401235000000000000
B0628353154310S11711879EA0120501227000000000000
B0628393154385S11711871EA0118901211000000000000
B0628433154464S11711858EA0118101204000000000000
B0628473154544S11711843EA0118101208000000000000
B0628513154622S11711829EA0117901199000000000000
B0628553154705S11711815EA0116701185000000000000
B0628593154789S11711803EA0115801183000000000000
B0629033154871S11711794EA0116001189000000000000
B0629073154947S11711790EA0117201198000000000000
B0629113155019S11711789EA0117101196000000000000
B0629153155090S11711788EA0117101193000000000000
B0629193155160S11711784EA0116301183000000000000
B0629233155231S11711777EA0115701181000000000000
B0629273155304S11711769EA0115501176000000000000
B0629313155373S11711762EA0115801185000000000000
B0629353155437S11711755EA0116201179000000000000
B0629393155507S11711747EA0115101168000000000000
B0629433155576S11711725EA0114801167000000000000
B0629473155645S11711695EA0114401169000000000000
B0629513155712S11711667EA0114801166000000000000
B0629553155782S11711642EA0113201149000000000000
B0629593155859S11711632EA0112301145000000000000
B0630033155936S11711630EA0111901139000000000000
B0630073156014S11711635EA0111201127000000000000
B0630113156096S11711648EA0109301110000000000000
B0630153156178S11711673EA0108401106000000000000
B0630193156253S11711702EA0109201119000000000000
B0630233156325S11711730EA0111001134000000000000
B0630273156395S11711749EA0111901143000000000000
B0630313156464S11711755EA0112401145000000000000
B0630353156533S11711762EA0112901153000000000000
B0630393156599S11711764EA0113601161000000000000
B0630433156665S11711760EA0113601155000000000000
B0630473156735S11711747EA0113401157000000000000
B0630513156806S11711739EA0113801162000000000000
B0630553156877S11711728EA0114101165000000000000
B0630593156950S11711715EA0113501153000000000000
B0631033157028S11711700EA0112001135000000000000
B0631073157108S11711684EA0109801116000000000000
B0631113157190S11711664EA0108301101000000000000
B0631153157271S11711643EA0107301093000000000000
B0631193157350S11711622EA0106501080000000000000
B0631233157431S11711603EA0105201067000000000000
B0631273157509S11711583EA0104801068000000000000
B0631313157583S11711560EA0105201073000000000000
B0631353157652S11711528EA0106001081000000000000
B0631393157721S11711494EA0106201077000000000000
B0631433157790S11711461EA0105901078000000000000
B0631473157857S11711438EA0106501081000000000000
B0631513157922S11711425EA0107001090000000000000
B0631553157985S11711412EA0107701096000000000000
B0631593158046S11711403EA0108101099000000000000
B0632033158106S11711421EA0108801111000000000000
B0632073158122S11711483EA0110901140000000000000
B0632113158072S11711524EA0112801151000000000000
B0632153158018S11711481EA0113401171000000000000
B0632193158041S11711438EA0115601193000000000000
B0632233158085S11711460EA0116301197000000000000
B0632273158089S11711526EA0117901219000000000000
B0632313158037S11711559EA0120601242000000000000
B0632353157982S11711528EA0121101245000000000000
B0632393157969S11711464EA0122201264000000000000
B0632433158002S11711430EA0123801275000000000000
B0632473158048S11711447EA0124301278000000000000
B0632513158069S11711512EA0125301293000000000000
B0632553158041S11711576EA0127501316000000000000
B0632593157979S11711603EA0129301330000000000000
B0633033157918S11711580EA0130601342000000000000
B0633073157885S11711520EA0131901354000000000000
B0633113157896S11711457EA0133001365000000000000
B0633153157946S11711438EA0133701373000000000000
B0633193157995S11711474EA0134601380000000000000
B0633233158017S11711544EA0135701394000000000000
B0633273157970S11711596EA0138201425000000000000
B0633313157912S11711581EA0140601446000000000000
B0633353157877S11711524EA0141701456000000000000
B0633393157887S11711460EA0142501466000000000000
B0633433157938S11711442EA0143401473000000000000
B0633473157981S11711485EA0144701490000000000000
B0633513157974S11711557EA0146101503000000000000
B0633553157917S11711606EA0147101510000000000000
B0633593157847S11711594EA0148301525000000000000
B0634033157816S11711530EA0150401546000000000000
B0634073157839S11711478EA0151801558000000000000
B0634113157888S11711486EA0152501565000000000000
B0634153157914S11711544EA0153401578000000000000
B0634193157890S11711615EA0154601590000000000000
B0634233157825S11711647EA0155401597000000000000
B0634273157765S11711615EA0156901618000000000000
B0634313157768S11711552EA0158801637000000000000
B0634353157814S11711538EA0159501638000000000000
B0634393157851S11711587EA0160501652000000000000
B0634433157835S11711651EA0162001664000000000000
B0634473157781S11711685EA0162501666000000000000
B0634513157716S11711668EA0162801670000000000000
B0634553157674S11711604EA0163001672000000000000
B0634593157677S11711529EA0163601682000000000000
B0635033157714S11711479EA0164701694000000000000
B0635073157771S11711465EA0165401693000000000000
B0635113157842S11711459EA0163501674000000000000
B0635153157922S11711453EA0162901673000000000000
B0635193158005S11711451EA0163501681000000000000
B0635233158089S11711450EA0163801680000000000000
B0635273158173S11711450EA0164401691000000000000
B0635313158254S11711452EA0165501698000000000000
B0635353158334S11711457EA0164301680000000000000
B0635393158419S11711464EA0162501665000000000000
B0635433158503S11711464EA0162101665000000000000
B0635473158585S11711463EA0163101673000000000000
B0635513158666S11711461EA0162501663000000000000
B0635553158745S11711455EA0163501682000000000000
B0635593158821S11711451EA0164501682000000000000
B0636033158899S11711448EA0163201663000000000000
B0636073158983S11711448EA0161001642000000000000
B0636113159070S11711448EA0159401629000000000000
B0636153159159S11711448EA0158401620000000000000
B0636193159247S11711453EA0157201608000000000000
B0636233159335S11711457EA0156201599000000000000
B0636273159424S11711465EA0155401587000000000000
B0636313159515S11711486EA0154401580000000000000
B0636353159604S11711499EA0154201579000000000000
B0636393159693S11711508EA0153701567000000000000
B0636433159783S11711509EA0152501560000000000000
B0636473159870S11711511EA0151901554000000000000
B0636513159954S11711511EA0151301549000000000000
B0636553200039S11711512EA0151001547000000000000
B0636593200121S11711522EA0151101548000000000000
B0637033200199S11711539EA0150901542000000000000
B0637073200283S11711548EA0149201523000000000000
B0637113200370S11711537EA0148101509000000000000
B0637153200456S11711513EA0146901503000000000000
B0637193200540S11711486EA0147001508000000000000
B0637233200621S11711464EA0148701521000000000000
B0637273200702S11711450EA0148401513000000000000
B0637313200785S11711438EA0146801498000000000000
B0637353200871S11711429EA0145701489000000000000
B0637393200958S11711420EA0145001482000000000000
B0637433201042S11711408EA0144701477000000000000
B0637473201128S11711404EA0143901470000000000000
B0637513201214S11711403EA0143201466000000000000
B0637553201296S11711399EA0144001477000000000000
B0637593201374S11711396EA0144301475000000000000
B0638033201453S11711388EA0144501483000000000000
B0638073201528S11711378EA0146101496000000000000
B0638113201604S11711366EA0146401500000000000000
B0638153201679S11711356EA0147201507000000000000
B0638193201755S11711346EA0146901501000000000000
B0638233201835S11711336EA0144601477000000000000
B0638273201918S11711325EA0143001461000000000000
B0638313202002S11711314EA0142401455000000000000
B0638353202084S11711308EA0141901446000000000000
B0638393202165S11711307EA0141001438000000000000
B0638433202249S11711308EA0140201428000000000000
B0638473202333S11711304EA0139001419000000000000
B0638513202418S11711297EA0138201410000000000000
B0638553202503S11711294EA0137501403000000000000
B0638593202588S11711292EA0136801395000000000000
B0639033202671S11711287EA0136001387000000000000
B0639073202753S11711281EA0135101377000000000000
B0639113202836S11711275EA0134101370000000000000
B0639153202918S11711286EA0133701366000000000000
B0639193202999S11711303EA0133201360000000000000
B0639233203079S11711325EA0132401352000000000000
B0639273203156S11711361EA0131701344000000000000
B0639313203235S11711390EA0130801334000000000000
B0639353203316S11711398EA0130001328000000000000
B0639393203394S11711396EA0130201327000000000000
B0639433203473S11711386EA0129601320000000000000
B0639473203550S11711357EA0129001319000000000000
B0639513203625S11711336EA0129601328000000000000
B0639553203694S11711326EA0130101328000000000000
B0639593203764S11711317EA0128801306000000000000
B0640033203841S11711308EA0126801289000000000000
B0640073203920S11711304EA0125301274000000000000
B0640113204000S11711300EA0123901262000000000000
B0640153204079S11711296EA0123001251000000000000
B0640193204160S11711291EA0121801235000000000000
B0640233204243S11711294EA0120501233000000000000
B0640273204318S11711312EA0121901247000000000000
B0640313204388S11711321EA0124001278000000000000
B0640353204430S11711277EA0126301287000000000000
B0640393204387S11711213EA0125301279000000000000
B0640433204310S11711230EA0126101294000000000000
B0640473204265S11711294EA0127301306000000000000
B0640513204271S11711365EA0128801317000000000000
B0640553204321S11711408EA0129601328000000000000
B0640593204362S11711374EA0130801343000000000000
B0641033204329S11711320EA0131601352000000000000
B0641073204268S11711344EA0132201358000000000000
B0641113204247S11711413EA0133501374000000000000
B0641153204292S11711433EA0134801384000000000000
B0641193204299S11711369EA0135201388000000000000
B0641233204236S11711335EA0135301390000000000000
B0641273204170S11711370EA0136001400000000000000
B0641313204144S11711440EA0137401414000000000000
B0641353204166S11711503EA0138101419000000000000
B0641393204222S11711524EA0137701404000000000000
B0641433204300S11711524EA0135701388000000000000
B0641473204383S11711512EA0135501394000000000000
B0641513204466S11711498EA0135701390000000000000
B0641553204552S11711482EA0134801384000000000000
B0641593204638S11711465EA0135101389000000000000
B0642033204719S11711448EA0135501387000000000000
B0642073204802S11711427EA0135301387000000000000
B0642113204882S11711407EA0134601373000000000000
B0642153204970S11711388EA0132501352000000000000
B0642193205058S11711374EA0131601347000000000000
B0642233205144S11711362EA0130901336000000000000
B0642273205231S11711355EA0130001328000000000000
B0642313205315S11711347EA0129401323000000000000
B0642353205400S11711339EA0128701314000000000000
B0642393205484S11711333EA0127501302000000000000
B0642433205570S11711325EA0126001285000000000000
B0642473205655S11711316EA0124701275000000000000
B0642513205740S11711307EA0123401262000000000000
B0642553205824S11711299EA0122601251000000000000
B0642593205907S11711292EA0121401236000000000000
B0643033205990S11711286EA0119901220000000000000
B0643073206073S11711284EA0118301202000000000000
B0643113206158S11711301EA0116201181000000000000
B0643153206242S11711330EA0114701167000000000000
B0643193206325S11711349EA0113901162000000000000
B0643233206409S11711357EA0113701158000000000000
B0643273206489S11711361EA0114401171000000000000
B0643313206565S11711361EA0115801187000000000000
B0643353206624S11711336EA0117801212000000000000
B0643393206610S11711271EA0120501236000000000000
B0643433206549S11711271EA0121301240000000000000
B0643473206523S11711331EA0121401238000000000000
B0643513206548S11711390EA0121101233000000000000
B0643553206605S11711401EA0120501229000000000000
B0643593206673S11711386EA0119801223000000000000
B0644033206743S11711366EA0119601220000000000000
B0644073206814S11711348EA0118701208000000000000
B0644113206894S11711331EA0116601189000000000000
B0644153206975S11711314EA0115901179000000000000
B0644193207061S11711299EA0114301163000000000000
B0644233207146S11711286EA0113901164000000000000
B0644273207229S11711279EA0113101149000000000000
B0644313207316S11711275EA0111801137000000000000
B0644353207403S11711274EA0110501124000000000000
B0644393207490S11711271EA0109701115000000000000
B0644433207577S11711266EA0108701107000000000000
B0644473207663S11711260EA0108101098000000000000
B0644513207749S11711252EA0107701097000000000000
B0644553207832S11711248EA0108101105000000000000
B0644593207911S11711238EA0108801111000000000000
B0645033207987S11711226EA0109601119000000000000
B0645073208058S11711210EA0110701130000000000000
B0645113208101S11711160EA0112601152000000000000
B0645153208060S11711108EA0113901158000000000000
B0645193207997S11711145EA0113901162000000000000
B0645233207982S11711217EA0115201176000000000000
B0645273208006S11711277EA0115501177000000000000
B0645313208062S11711301EA0115001169000000000000
B0645353208125S11711305EA0114001156000000000000
B0645393208191S11711301EA0112501138000000000000
B0645433208262S11711294EA0111301132000000000000
B0645473208335S11711283EA0110201119000000000000
B0645513208408S11711268EA0109801118000000000000
B0645553208480S11711253EA0109901121000000000000
B0645593208547S11711238EA0111001132000000000000
B0646033208613S11711225EA0111901140000000000000
B0646073208680S11711210EA0112301142000000000000
B0646113208749S11711193EA0112201142000000000000
B0646153208811S11711161EA0112501145000000000000
B0646193208873S11711126EA0112501143000000000000
B0646233208942S11711112EA0112501146000000000000
B0646273209013S11711101EA0112301142000000000000
B0646313209084S11711093EA0112501147000000000000
B0646353209132S11711052EA0113901165000000000000
B0646393209113S11710993EA0114801167000000000000
B0646433209053S11711001EA0113001147000000000000
B0646473209027S11711076EA0111701131000000000000
B0646513209054S11711154EA0110401123000000000000
B0646553209113S11711206EA0110301128000000000000
B0646593209183S11711238EA0109701116000000000000
B0647033209258S11711242EA0108501105000000000000
B0647073209334S11711230EA0107201096000000000000
B0647113209412S11711214EA0106501085000000000000
B0647153209490S11711200EA0105901080000000000000
B0647193209568S11711183EA0105201074000000000000
B0647233209646S11711173EA0104501064000000000000
B0647273209724S11711161EA0103401053000000000000
B0647313209803S11711156EA0102501042000000000000
B0647353209880S11711145EA0101801032000000000000
B0647393209958S11711134EA0101101028000000000000
B0647433210034S11711125EA0101601036000000000000
B0647473210110S11711110EA0100901019000000000000
B0647513210186S11711091EA0099001002000000000000
B0647553210262S11711063EA0098301000000000000000
B0647593210335S11711037EA0098701007000000000000
B0648033210405S11711017EA0099601014000000000000
B0648073210475S11711000EA0100501027000000000000
B0648113210508S11710940EA0102801051000000000000
B0648153210450S11710915EA0104101061000000000000
B0648193210419S11710984EA0105101071000000000000
B0648233210457S11711026EA0106701094000000000000
B0648273210497S11710987EA0107501098000000000000
B0648313210475S11710922EA0107701104000000000000
B0648353210417S11710935EA0109001117000000000000
B0648393210413S11711004EA0110001124000000000000
B0648433210465S11711013EA0111101139000000000000
B0648473210476S11710946EA0111401139000000000000
B0648513210418S11710917EA0111801149000000000000
B0648553210376S11710967EA0114001172000000000000
B0648593210392S11711024EA0115401184000000000000
B0649033210441S11711027EA0116201188000000000000
B0649073210459S11710965EA0116301190000000000000
B0649113210418S11710920EA0117401205000000000000
B0649153210371S11710958EA0118501212000000000000
B0649193210378S11711026EA0118801214000000000000
B0649233210433S11711037EA0118901213000000000000
B0649273210462S11710980EA0119401224000000000000
B0649313210420S11710927EA0120601235000000000000
B0649353210374S11710967EA0121501245000000000000
B0649393210396S11711024EA0122101249000000000000
B0649433210449S11711013EA0122501253000000000000
B0649473210478S11710949EA0122701257000000000000
B0649513210454S11710880EA0123101259000000000000
B0649553210392S11710872EA0123401267000000000000
B0649593210355S11710936EA0124601277000000000000
B0650033210379S11711002EA0125601287000000000000
B0650073210435S11711006EA0126601298000000000000
B0650113210463S11710950EA0127101300000000000000
B0650153210453S11710876EA0126801296000000000000
B0650193210398S11710832EA0126601299000000000000
B0650233210337S11710857EA0127701313000000000000
B0650273210340S11710928EA0129301325000000000000
B0650313210393S11710940EA0130301335000000000000
B0650353210409S11710881EA0131201346000000000000
B0650393210361S11710852EA0132001351000000000000
B0650433210316S11710901EA0132301355000000000000
B0650473210318S11710975EA0132801362000000000000
B0650513210365S11711017EA0134101375000000000000
B0650553210420S11710997EA0134601378000000000000
B0650593210444S11710928EA0134201372000000000000
B0651033210424S11710852EA0133901373000000000000
B0651073210368S11710809EA0134401382000000000000
B0651113210303S11710816EA0135301388000000000000
B0651153210255S11710867EA0135301383000000000000
B0651193210250S11710940EA0134901380000000000000
B0651233210294S11710993EA0134701377000000000000
B0651273210362S11711013EA0134101372000000000000
B0651313210436S11711015EA0133301364000000000000
B0651353210511S11711014EA0132701360000000000000
B0651393210586S11711010EA0132401354000000000000
B0651433210661S11711002EA0130901333000000000000
B0651473210740S11710997EA0129101316000000000000
B0651513210821S11710991EA0127801306000000000000
B0651553210899S11710983EA0127301302000000000000
B0651593210979S11710980EA0126301291000000000000
B0652033211059S11710991EA0125601286000000000000
B0652073211138S11711002EA0125101278000000000000
B0652113211216S11711011EA0124801277000000000000
B0652153211297S11711030EA0124001265000000000000
B0652193211377S11711057EA0123001254000000000000
B0652233211459S11711084EA0121801244000000000000
B0652273211540S11711112EA0121501243000000000000
B0652313211620S11711141EA0120801233000000000000
B0652353211701S11711173EA0119901225000000000000
B0652393211782S11711197EA0119701225000000000000
B0652433211861S11711210EA0120801238000000000000
B0652473211938S11711219EA0121101236000000000000
B0652513212016S11711230EA0120101221000000000000
B0652553212097S11711245EA0118201203000000000000
B0652593212181S11711265EA0116501189000000000000
B0653033212265S11711290EA0115201178000000000000
B0653073212347S11711317EA0114401168000000000000
B0653113212428S11711348EA0113301158000000000000
B0653153212507S11711381EA0112601150000000000000
B0653193212584S11711416EA0111801139000000000000
B0653233212662S11711451EA0110901129000000000000
B0653273212738S11711490EA0109601115000000000000
B0653313212816S11711530EA0108401108000000000000
B0653353212892S11711569EA0107701100000000000000
B0653393212968S11711608EA0107201095000000000000
B0653433213045S11711646EA0106601090000000000000
B0653473213122S11711682EA0106501089000000000000
B0653513213199S11711717EA0106301088000000000000
B0653553213275S11711749EA0106301093000000000000
B0653593213344S11711772EA0108001108000000000000
B0654033213412S11711786EA0108501107000000000000
B0654073213481S11711793EA0107601095000000000000
B0654113213552S11711801EA0106601085000000000000
B0654153213625S11711804EA0105601076000000000000
B0654193213700S11711801EA0104501062000000000000
B0654233213778S11711794EA0103501054000000000000
B0654273213858S11711788EA0103001050000000000000
B0654313213936S11711781EA0102701047000000000000
B0654353214011S11711776EA0102001036000000000000
B0654393214086S11711775EA0101301028000000000000
B0654433214162S11711781EA0100501022000000000000
B0654473214237S11711788EA0099401008000000000000
B0654513214313S11711791EA0097900995000000000000
B0654553214388S11711791EA0096900983000000000000
B0654593214463S11711791EA0095900971000000000000
B0655033214539S11711790EA0094500958000000000000
B0655073214616S11711786EA0093600951000000000000
B0655113214691S11711780EA0093200944000000000000
B0655153214764S11711772EA0092500939000000000000
B0655193214835S11711758EA0091900931000000000000
B0655233214907S11711738EA0091400923000000000000
B0655273214980S11711719EA0090400917000000000000
B0655313215051S11711691EA0090200914000000000000
B0655353215119S11711659EA0090000911000000000000
B0655393215182S11711624EA0089600907000000000000
B0655433215243S11711581EA0089200902000000000000
B0655473215302S11711539EA0089200904000000000000
B0655513215353S11711490EA0090500921000000000000
B0655553215347S11711421EA0092000936000000000000
B0655593215285S11711411EA0092800945000000000000
B0656033215253S11711472EA0093300947000000000000
B0656073215286S11711525EA0092700940000000000000
B0656113215349S11711525EA0092900945000000000000
B0656153215368S11711464EA0093700959000000000000
B0656193215310S11711440EA0095500974000000000000
B0656233215276S11711502EA0096000976000000000000
B0656273215315S11711560EA0096300983000000000000
B0656313215368S11711547EA0097100990000000000000
B0656353215368S11711479EA0097901002000000000000
B0656393215308S11711456EA0099401016000000000000
B0656433215267S11711513EA0100701029000000000000
B0656473215297S11711567EA0101501033000000000000
B0656513215345S11711547EA0101601038000000000000
B0656553215345S11711482EA0102601051000000000000
B0656593215294S11711443EA0103701065000000000000
B0657033215242S11711482EA0105201078000000000000
B0657073215254S11711546EA0105901080000000000000
B0657113215308S11711554EA0106001084000000000000
B0657153215327S11711494EA0107001100000000000000
B0657193215276S11711457EA0108501111000000000000
B0657233215220S11711503EA0109401119000000000000
B0657273215230S11711573EA0110601132000000000000
B0657313215284S11711590EA0111201135000000000000
B0657353215314S11711541EA0111801144000000000000
B0657393215285S11711483EA0112901155000000000000
B0657433215221S11711485EA0114301170000000000000
B0657473215181S11711544EA0114801173000000000000
B0657513215203S11711611EA0115401181000000000000
B0657553215256S11711620EA0116201188000000000000
B0657593215280S11711567EA0116401192000000000000
B0658033215246S11711509EA0117201200000000000000
B0658073215181S11711522EA0118101209000000000000
B0658113215164S11711593EA0118901215000000000000
B0658153215210S11711633EA0119701224000000000000
B0658193215254S11711604EA0120301229000000000000
B0658233215250S11711543EA0121201241000000000000
B0658273215197S11711517EA0121801246000000000000
B0658313215145S11711568EA0121901248000000000000
B0658353215158S11711635EA0123001262000000000000
B0658393215211S11711647EA0123601263000000000000
B0658433215236S11711596EA0124101274000000000000
B0658473215202S11711546EA0124901280000000000000
B0658513215139S11711547EA0125201283000000000000
B0658553215104S11711608EA0126201293000000000000
B0658593215126S11711668EA0127001301000000000000
B0659033215181S11711678EA0127501304000000000000
B0659073215214S11711633EA0127801307000000000000
B0659113215193S11711573EA0127701307000000000000
B0659153215133S11711544EA0127501304000000000000
B0659193215060S11711551EA0127101303000000000000
B0659233214991S11711585EA0127901311000000000000
B0659273214977S11711659EA0128301308000000000000
B0659313215024S11711703EA0127501300000000000000
B0659353215089S11711693EA0126601298000000000000
B0659393215149S11711660EA0127701313000000000000
B0659433215156S11711602EA0130001335000000000000
B0659473215103S11711585EA0130101329000000000000
B0659513215052S11711639EA0130101335000000000000
B0659553215026S11711716EA0130901344000000000000
B0659593215058S11711776EA0132101357000000000000
B0700033215104S11711767EA0133401369000000000000
B0700073215112S11711708EA0133901373000000000000
B0700113215067S11711664EA0134301380000000000000
B0700153215004S11711677EA0135001389000000000000
B0700193214968S11711739EA0136101399000000000000
B0700233214976S11711812EA0136501400000000000000
B0700273215022S11711854EA0136501403000000000000
B0700313215072S11711840EA0137601413000000000000
B0700353215095S11711785EA0137701412000000000000
B0700393215133S11711732EA0136901401000000000000
B0700433215197S11711698EA0135401385000000000000
B0700473215273S11711676EA0133701367000000000000
B0700513215357S11711656EA0132101347000000000000
B0700553215445S11711642EA0130901338000000000000
B0700593215528S11711629EA0130401332000000000000
B0701033215607S11711613EA0129901328000000000000
B0701073215683S11711591EA0128901316000000000000
B0701113215757S11711568EA0127901305000000000000
B0701153215832S11711544EA0126701293000000000000
B0701193215910S11711522EA0125101277000000000000
B0701233215992S11711499EA0123901265000000000000
B0701273216072S11711470EA0123301257000000000000
B0701313216139S11711443EA0124301279000000000000
B0701353216202S11711418EA0125601286000000000000
B0701393216264S11711400EA0125801285000000000000
B0701433216326S11711385EA0125101278000000000000
B0701473216389S11711372EA0125301280000000000000
B0701513216454S11711359EA0124601274000000000000
B0701553216517S11711364EA0125201280000000000000
B0701593216579S11711386EA0125101277000000000000
B0702033216644S11711403EA0124801273000000000000
B0702073216714S11711399EA0124301279000000000000
B0702113216745S11711335EA0127101312000000000000
B0702153216703S11711291EA0129601330000000000000
B0702193216658S11711334EA0130401338000000000000
B0702233216671S11711395EA0131801356000000000000
B0702273216719S11711409EA0133501370000000000000
B0702313216755S11711361EA0134501380000000000000
B0702353216738S11711297EA0135401390000000000000
B0702393216680S11711278EA0136001390000000000000
B0702433216627S11711318EA0136101395000000000000
B0702473216619S11711391EA0137201408000000000000
B0702513216662S11711426EA0138701423000000000000
B0702553216688S11711372EA0139701434000000000000
B0702593216642S11711322EA0140801445000000000000
B0703033216588S11711356EA0141801455000000000000
B0703073216592S11711424EA0142701468000000000000
B0703113216640S11711448EA0143501471000000000000
B0703153216690S11711414EA0143901479000000000000
B0703193216705S11711344EA0144601487000000000000
B0703233216651S11711310EA0145901498000000000000
B0703273216603S11711355EA0146501505000000000000
B0703313216611S11711422EA0147101514000000000000
B0703353216658S11711446EA0149201539000000000000
B0703393216684S11711396EA0150801549000000000000
B0703433216651S11711340EA0151201553000000000000
B0703473216588S11711340EA0151101552000000000000
B0703513216546S11711396EA0151701560000000000000
B0703553216551S11711464EA0152501569000000000000
B0703593216593S11711507EA0152701569000000000000
B0704033216654S11711509EA0153001575000000000000
B0704073216702S11711470EA0153701583000000000000
B0704113216689S11711407EA0155101595000000000000
B0704153216632S11711382EA0155001593000000000000
B0704193216571S11711408EA0155101595000000000000
B0704233216564S11711469EA0156101607000000000000
B0704273216618S11711476EA0156101608000000000000
B0704313216663S11711427EA0156701615000000000000
B0704353216651S11711361EA0157901625000000000000
B0704393216593S11711346EA0157901622000000000000
B0704433216560S11711404EA0157801623000000000000
B0704473216595S11711451EA0158101626000000000000
B0704513216654S11711455EA0157701621000000000000
B0704553216722S11711444EA0156901612000000000000
B0704593216794S11711429EA0155701598000000000000
B0705033216874S11711414EA0154101579000000000000
B0705073216956S11711396EA0152801570000000000000
B0705113217039S11711374EA0152701572000000000000
B0705153217118S11711352EA0152101562000000000000
B0705193217199S11711331EA0150701549000000000000
B0705233217278S11711313EA0150201543000000000000
B0705273217359S11711296EA0149301530000000000000
B0705313217440S11711279EA0148301525000000000000
B0705353217522S11711266EA0148101521000000000000
B0705393217602S11711253EA0147201513000000000000
B0705433217680S11711236EA0146901509000000000000
B0705473217755S11711229EA0147201514000000000000
B0705513217830S11711232EA0146801509000000000000
B0705553217907S11711238EA0146301501000000000000
B0705593217985S11711247EA0145601494000000000000
B0706033218064S11711258EA0145301492000000000000
B0706073218142S11711270EA0145201494000000000000
B0706113218215S11711282EA0146001504000000000000
B0706153218285S11711297EA0146801506000000000000
B0706193218354S11711316EA0147001510000000000000
B0706233218425S11711334EA0146401500000000000000
B0706273218500S11711351EA0144801486000000000000
B0706313218582S11711366EA0143901477000000000000
B0706353218666S11711381EA0143001464000000000000
B0706393218750S11711395EA0142001457000000000000
B0706433218833S11711408EA0141401451000000000000
B0706473218916S11711414EA0140901445000000000000
B0706513218999S11711421EA0140001437000000000000
B0706553219082S11711425EA0139201430000000000000
B0706593219166S11711429EA0138401422000000000000
B0707033219247S11711430EA0138201418000000000000
B0707073219327S11711430EA0137701412000000000000
B0707113219407S11711431EA0136901404000000000000
B0707153219487S11711431EA0136301398000000000000
B0707193219563S11711430EA0135601392000000000000
B0707233219640S11711430EA0135101387000000000000
B0707273219714S11711440EA0135001386000000000000
B0707313219788S11711456EA0134701383000000000000
B0707353219860S11711474EA0134601377000000000000
B0707393219934S11711494EA0133801369000000000000
B0707433220007S11711509EA0134101363000000000000
B0707473220076S11711520EA0133101357000000000000
B0707513220147S11711529EA0131101339000000000000
B0707553220221S11711544EA0129101318000000000000
B0707593220300S11711560EA0127601306000000000000
B0708033220381S11711563EA0126701296000000000000
B0708073220460S11711556EA0125701287000000000000
B0708113220538S11711542EA0125101281000000000000
B0708153220612S11711526EA0124201271000000000000
B0708193220687S11711508EA0123301264000000000000
B0708233220761S11711492EA0122801253000000000000
B0708273220837S11711478EA0121601241000000000000
B0708313220914S11711469EA0120801234000000000000
B0708353220992S11711466EA0120301229000000000000
B0708393221069S11711465EA0119901224000000000000
B0708433221145S11711466EA0119401220000000000000
B0708473221223S11711469EA0118701207000000000000
B0708513221304S11711473EA0117301196000000000000
B0708553221383S11711476EA0116301186000000000000
B0708593221464S11711479EA0115301175000000000000
B0709033221545S11711482EA0114001163000000000000
B0709073221623S11711481EA0113401159000000000000
B0709113221701S11711481EA0112801152000000000000
B0709153221777S11711485EA0112401150000000000000
B0709193221853S11711490EA0112101142000000000000
B0709233221928S11711499EA0111701145000000000000
B0709273222000S11711516EA0112001147000000000000
B0709313222067S11711542EA0112201147000000000000
B0709353222133S11711569EA0112301147000000000000
B0709393222198S11711599EA0111701139000000000000
B0709433222262S11711638EA0110801128000000000000
B0709473222326S11711684EA0109601115000000000000
B0709513222393S11711724EA0108501103000000000000
B0709553222464S11711759EA0107001082000000000000
B0709593222538S11711782EA0105301069000000000000
B0710033222616S11711801EA0104301062000000000000
B0710073222690S11711817EA0103601050000000000000
B0710113222765S11711834EA0102201034000000000000
B0710153222839S11711859EA0101001023000000000000
B0710193222913S11711888EA0099801007000000000000
B0710233222989S11711916EA0098000990000000000000
B0710273223064S11711946EA0096500975000000000000
B0710313223134S11711989EA0095900973000000000000
B0710353223184S11712054EA0096000971000000000000
B0710393223224S11712128EA0095300963000000000000
B0710433223270S11712196EA0094300954000000000000
B0710473223323S11712254EA0093200943000000000000
B0710513223380S11712306EA0092000931000000000000
B0710553223440S11712353EA0090800918000000000000
B0710593223508S11712379EA0089800909000000000000
B0711033223576S11712384EA0089100897000000000000
B0711073223645S11712380EA0087900883000000000000
B0711113223717S11712373EA0086500870000000000000
B0711153223788S11712360EA0085100856000000000000
B0711193223860S11712339EA0083800845000000000000
B0711233223926S11712304EA0082400828000000000000
B0711273223986S11712253EA0080900816000000000000
B0711313224031S11712185EA0079900803000000000000
B0711353224076S11712119EA0079000794000000000000
B0711393224119S11712051EA0078100783000000000000
B0711433224161S11711984EA0077100772000000000000
B0711473224200S11711918EA0076700771000000000000
B0711513224236S11711855EA0076600768000000000000
B0711553224268S11711793EA0076100762000000000000
B0711593224301S11711726EA0075400754000000000000
B0712033224330S11711656EA0074500747000000000000
B0712073224358S11711582EA0073800741000000000000
B0712113224385S11711507EA0073700742000000000000
B0712153224412S11711431EA0073600737000000000000
B0712193224457S11711372EA0073600741000000000000
B0712233224509S11711398EA0075400763000000000000
B0712273224472S11711451EA0078000784000000000000
B0712313224425S11711421EA0078700782000000000000
B0712353224442S11711372EA0078700786000000000000
B0712393224494S11711374EA0079000791000000000000
B0712433224520S11711430EA0080400804000000000000
B0712473224484S11711486EA0081400817000000000000
B0712513224429S11711482EA0082900833000000000000
B0712553224403S11711435EA0083100829000000000000
B0712593224421S11711385EA0083100832000000000000
B0713033224467S11711375EA0084000842000000000000
B0713073224509S11711408EA0084600847000000000000
B0713113224503S11711476EA0085300860000000000000
B0713153224450S11711505EA0086800875000000000000
B0713193224403S11711469EA0087600880000000000000
B0713233224405S11711407EA0088000885000000000000
B0713273224446S11711383EA0088700895000000000000
B0713313224486S11711416EA0089600904000000000000
B0713353224480S11711485EA0090800916000000000000
B0713393224423S11711520EA0092000930000000000000
B0713433224368S11711489EA0093300940000000000000
B0713473224353S11711424EA0093600947000000000000
B0713513224377S11711375EA0095000961000000000000
B0713553224420S11711379EA0095600967000000000000
B0713593224441S11711433EA0096600981000000000000
B0714033224403S11711491EA0097700992000000000000
B0714073224338S11711495EA0098801004000000000000
B0714113224298S11711450EA0099701012000000000000
B0714153224306S11711394EA0100401020000000000000
B0714193224345S11711373EA0100701022000000000000
B0714233224385S11711396EA0101301028000000000000
B0714273224412S11711450EA0102001036000000000000
B0714313224408S11711520EA0102801048000000000000
B0714353224355S11711551EA0104601065000000000000
B0714393224310S11711511EA0105401071000000000000
B0714433224312S11711446EA0105901080000000000000
B0714473224354S11711421EA0107301096000000000000
B0714513224389S11711455EA0108601108000000000000
B0714553224389S11711521EA0109801117000000000000
B0714593224349S11711576EA0110901128000000000000
B0715033224288S11711590EA0111601137000000000000
B0715073224230S11711563EA0112301144000000000000
B0715113224199S11711508EA0112801149000000000000
B0715153224203S11711450EA0113001150000000000000
B0715193224243S11711412EA0112801151000000000000
B0715233224297S11711416EA0113701160000000000000
B0715273224338S11711456EA0114601167000000000000
B0715313224363S11711518EA0115201175000000000000
B0715353224328S11711578EA0116201189000000000000
B0715393224269S11711569EA0117101195000000000000
B0715433224236S11711509EA0117101196000000000000
B0715473224239S11711438EA0117601204000000000000
B0715513224281S11711392EA0118201207000000000000
B0715553224337S11711394EA0118201203000000000000
B0715593224381S11711443EA0117501194000000000000
B0716033224418S11711512EA0116801190000000000000
B0716073224455S11711585EA0116701189000000000000
B0716113224499S11711658EA0116401185000000000000
B0716153224551S11711728EA0115801180000000000000
B0716193224603S11711801EA0115501176000000000000
B0716233224653S11711880EA0115201176000000000000
B0716273224704S11711957EA0115001173000000000000
B0716313224769S11711973EA0116601192000000000000
B0716353224795S11711912EA0117701199000000000000
B0716393224756S11711849EA0117201191000000000000
B0716433224684S11711808EA0115901179000000000000
B0716473224610S11711768EA0115501178000000000000
B0716513224541S11711724EA0115601182000000000000
B0716553224471S11711682EA0115501177000000000000
B0716593224395S11711693EA0116101187000000000000
B0717033224354S11711760EA0117001192000000000000
B0717073224366S11711834EA0117501201000000000000
B0717113224408S11711872EA0118501214000000000000
B0717153224442S11711833EA0119601217000000000000
B0717193224421S11711772EA0120001221000000000000
B0717233224364S11711759EA0120201224000000000000
B0717273224323S11711806EA0120301222000000000000
B0717313224338S11711864EA0120301226000000000000
B0717353224381S11711892EA0121001233000000000000
B0717393224433S11711908EA0121301238000000000000
B0717433224489S11711907EA0121501236000000000000
B0717473224511S11711855EA0121401237000000000000
B0717513224464S11711817EA0121501237000000000000
B0717553224412S11711862EA0121401238000000000000
B0717593224421S11711925EA0121901246000000000000
B0718033224466S11711955EA0121901237000000000000
B0718073224523S11711962EA0120501223000000000000
B0718113224585S11711955EA0119101206000000000000
B0718153224654S11711940EA0117301191000000000000
B0718193224723S11711918EA0116601186000000000000
B0718233224795S11711895EA0116101180000000000000
B0718273224866S11711873EA0115301171000000000000
B0718313224939S11711851EA0114101160000000000000
B0718353225014S11711829EA0112901147000000000000
B0718393225091S11711808EA0111901134000000000000
B0718433225169S11711789EA0111101124000000000000
B0718473225248S11711769EA0109501110000000000000
B0718513225328S11711747EA0108301099000000000000
B0718553225407S11711723EA0107101085000000000000
B0718593225486S11711698EA0105601069000000000000
B0719033225564S11711673EA0104501060000000000000
B0719073225637S11711639EA0103701053000000000000
B0719113225708S11711603EA0103101045000000000000
B0719153225780S11711570EA0102601036000000000000
B0719193225854S11711541EA0101701029000000000000
B0719233225926S11711520EA0102001030000000000000
B0719273226000S11711511EA0100701013000000000000
B0719313226074S11711491EA0099101000000000000000
B0719353226147S11711464EA0098400992000000000000
B0719393226218S11711433EA0097500985000000000000
B0719433226290S11711399EA0097000982000000000000
B0719473226358S11711364EA0096800981000000000000
B0719513226423S11711326EA0096500977000000000000
B0719553226487S11711288EA0096000969000000000000
B0719593226552S11711248EA0095000960000000000000
B0720033226620S11711214EA0094700959000000000000
B0720073226686S11711187EA0094300954000000000000
B0720113226754S11711160EA0093500945000000000000
B0720153226819S11711130EA0092900940000000000000
B0720193226882S11711099EA0092400930000000000000
B0720233226947S11711069EA0091100919000000000000
B0720273227018S11711043EA0090400915000000000000
B0720313227088S11711023EA0090600919000000000000
B0720353227149S11710992EA0092000936000000000000
B0720393227150S11710928EA0093300942000000000000
B0720433227092S11710915EA0092200926000000000000
B0720473227055S11710979EA0090600912000000000000
B0720513227079S11711047EA0089400907000000000000
B0720553227116S11711110EA0089600909000000000000
B0720593227158S11711179EA0088800901000000000000
B0721033227201S11711251EA0088200895000000000000
B0721073227240S11711326EA0087600882000000000000
B0721113227296S11711370EA0087100887000000000000
B0721153227337S11711338EA0089000906000000000000
B0721193227332S11711271EA0089600906000000000000
B0721233227267S11711243EA0089100904000000000000
B0721273227214S11711291EA0089100904000000000000
B0721313227224S11711356EA0089100907000000000000
B0721353227265S11711361EA0090000917000000000000
B0721393227279S11711314EA0090100913000000000000
B0721433227236S11711270EA0088900901000000000000
B0721473227170S11711284EA0088400896000000000000
B0721513227136S11711349EA0087800888000000000000
B0721553227148S11711421EA0086400877000000000000
B0721593227179S11711491EA0085800871000000000000
B0722033227210S11711561EA0085500867000000000000
B0722073227252S11711620EA0085100862000000000000
B0722113227304S11711603EA0085900878000000000000
B0722153227296S11711539EA0088000898000000000000
B0722193227233S11711530EA0088700903000000000000
B0722233227202S11711586EA0088700904000000000000
B0722273227235S11711622EA0088300896000000000000
B0722313227283S11711594EA0088000895000000000000
B0722353227301S11711525EA0088500900000000000000
B0722393227261S11711469EA0089700917000000000000
B0722433227203S11711503EA0090800924000000000000
B0722473227210S11711567EA0090800925000000000000
B0722513227257S11711564EA0091800933000000000000
B0722553227263S11711499EA0092000936000000000000
B0722593227209S11711460EA0092300943000000000000
B0723033227154S11711505EA0092800951000000000000
B0723073227168S11711568EA0093500954000000000000
B0723113227214S11711560EA0094200964000000000000
B0723153227213S11711496EA0094800967000000000000
B0723193227155S11711464EA0095100970000000000000
B0723233227106S11711515EA0095200971000000000000
B0723273227123S11711578EA0095300973000000000000
B0723313227171S11711582EA0096100978000000000000
B0723353227200S11711531EA0096100978000000000000
B0723393227179S11711465EA0096300983000000000000
B0723433227115S11711470EA0096800985000000000000
B0723473227092S11711542EA0096400983000000000000
B0723513227107S11711611EA0096400985000000000000
B0723553227158S11711616EA0097000985000000000000
B0723593227180S11711555EA0096100977000000000000
B0724033227176S11711479EA0096300991000000000000
B0724073227125S11711443EA0097801001000000000000
B0724113227073S11711483EA0097600991000000000000
B0724153227072S11711554EA0096900987000000000000
B0724193227111S11711598EA0097000992000000000000
B0724233227158S11711586EA0097400990000000000000
B0724273227161S11711524EA0097400992000000000000
B0724313227101S11711496EA0097700997000000000000
B0724353227062S11711555EA0098601008000000000000
B0724393227086S11711603EA0099301010000000000000
B0724433227132S11711594EA0098400997000000000000
B0724473227167S11711542EA0098101000000000000000
B0724513227144S11711479EA0099901018000000000000
B0724553227084S11711492EA0100701026000000000000
B0724593227073S11711560EA0100901030000000000000
B0725033227118S11711580EA0101601036000000000000
B0725073227157S11711541EA0101901037000000000000
B0725113227146S11711473EA0101801037000000000000
B0725153227089S11711437EA0102201043000000000000
B0725193227044S11711482EA0102901049000000000000
B0725233227076S11711529EA0103501056000000000000
B0725273227110S11711487EA0104301067000000000000
B0725313227077S11711427EA0105501078000000000000
B0725353227016S11711433EA0106301086000000000000
B0725393226988S11711492EA0106801090000000000000
B0725433227016S11711543EA0107101094000000000000
B0725473227059S11711521EA0108101107000000000000
B0725513227046S11711461EA0109301121000000000000
B0725553226989S11711452EA0109701121000000000000
B0725593226954S11711511EA0109901125000000000000
B0726033226981S11711559EA0110601135000000000000
B0726073227023S11711531EA0111601141000000000000
B0726113227010S11711468EA0112101146000000000000
B0726153226950S11711459EA0112601152000000000000
B0726193226919S11711517EA0113101156000000000000
B0726233226940S11711578EA0113601161000000000000
B0726273226990S11711581EA0114301167000000000000
B0726313227015S11711520EA0114601170000000000000
B0726353226984S11711461EA0115401182000000000000
B0726393226923S11711461EA0116001186000000000000
B0726433226886S11711520EA0116101187000000000000
B0726473226907S11711585EA0116301191000000000000
B0726513226960S11711594EA0117401203000000000000
B0726553226993S11711542EA0117601201000000000000
B0726593226989S11711466EA0117401204000000000000
B0727033226934S11711439EA0118501217000000000000
B0727073226895S11711492EA0119501228000000000000
B0727113226925S11711542EA0120601234000000000000
B0727153226977S11711522EA0120601235000000000000
B0727193226982S11711456EA0120901237000000000000
B0727233226936S11711407EA0121101238000000000000
B0727273226875S11711418EA0121701244000000000000
B0727313226852S11711478EA0122001248000000000000
B0727353226893S11711520EA0122401252000000000000
B0727393226945S11711499EA0122601254000000000000
B0727433226941S11711434EA0123601265000000000000
B0727473226886S11711408EA0123601263000000000000
B0727513226829S11711446EA0123501266000000000000
B0727553226821S11711512EA0124001269000000000000
B0727593226875S11711544EA0123601265000000000000
