ACAM4N6
HFDTE281023
HFFXA050
HFPLTPILOT:JOHN WELSH              
HFGTYGLIDERTYPE:HORNET      
HFGIDGLIDERID:VH-GMY      
HFDTM100GPSDATUM:
HFRFWFIRMWAREVERSION:F2.6
HFRHWHARDWAREVERSION:300 Series Version 2
HFFTYFRTYPE:CAMBRIDGE AERO INSTRUMENTS, 302+
HFGPS:GARMIN,LVS-25,12,18000
HFPRSPRESSALTSENSOR:INTERSEMA, MS5534-AP, 20000
I033638FXA3941ENL4247REX
LCAMSBVER:5FWVER:F26300
C281023044419281023000102
C0000000N00000000WTAKEOFF     
C3207549S11656849EBEVERLEY AF 
C3154133S11646415EYork        
C3231466S11704865EPingelly    
C3207549S11656849EBEVERLEY AF 
C0000000N00000000WLANDING     
B0457323207376S11656888EA0013700209000000000000
B0457343207376S11656888EA0013700209000000000000
B0457363207376S11656888EA0013700209000000000000
B0457383207376S11656888EA0013700209000000000000
B0457403207376S11656888EA0013800209000000000000
B0457423207376S11656888EA0013800209000000000000
B0457443207376S11656888EA0013700209000000000000
B0457463207376S11656888EA0013700209000000000000
B0457483207376S11656888EA0013700209000000000000
B0457503207376S11656888EA0013700209000000000000
B0457523207376S11656888EA0013700209000000000000
B0457543207376S11656888EA0013700209000000000000
B0457563207376S11656888EA0013700209000000000000
B0457583207376S11656888EA0013700208000000000000
B0458003207378S11656890EA0013700208000000000000
B0458053207399S11656904EA0013700208000000000000
B0458093207436S11656926EA0013800208000000000000
B0458133207485S11656957EA0014100209000000000000
B0458173207547S11656995EA0014300211000000000000
B0458213207618S11657039EA0014400213000000000000
B0458253207689S11657090EA0015300222000000000000
B0458293207763S11657138EA0015700229000000000000
B0458333207837S11657185EA0017500248000000000000
B0458373207914S11657225EA0018900260000000000000
B0458413207991S11657267EA0019800283000000000000
B0458453208065S11657303EA0021900302000000000000
B0458493208138S11657335EA0023600320000000000000
B0458533208208S11657369EA0025800339000000000000
B0458573208279S11657410EA0027300360000000000000
B0459013208343S11657464EA0029200376000000000000
B0459053208390S11657540EA0031100390000000000000
B0459093208420S11657624EA0032000401000000000000
B0459133208430S11657714EA0033300419000000000000
B0459173208421S11657802EA0035200435000000000000
B0459213208386S11657881EA0036300445000000000000
B0459253208327S11657943EA0037200452000000000000
B0459293208257S11657984EA0038200463000000000000
B0459333208179S11658006EA0039300477000000000000
B0459373208095S11657997EA0041200494000000000000
B0459413208013S11657970EA0042400503000000000000
B0459453207944S11657915EA0043300516000000000000
B0459493207887S11657848EA0044700538000000000000
B0459533207841S11657771EA0046700555000000000000
B0459573207809S11657686EA0049200587000000000000
B0500013207797S11657595EA0052300611000000000000
B0500053207809S11657507EA0054700635000000000000
B0500093207846S11657428EA0056700653000000000000
B0500133207905S11657364EA0058800677000000000000
B0500173207975S11657329EA0062300714000000000000
B0500213208051S11657320EA0065600745000000000000
B0500253208092S11657270EA0068300768000000000000
B0500293208065S11657212EA0069100771000000000000
B0500333208006S11657199EA0068500760000000000000
B0500373207954S11657243EA0067900756000000000000
B0500413207922S11657316EA0067800759000000000000
B0500453207939S11657386EA0068900781000000000000
B0500493207980S11657363EA0071300798000000000000
B0500533207954S11657312EA0072000802000000000000
B0500573207900S11657334EA0072900813000000000000
B0501013207889S11657400EA0074000823000000000000
B0501053207934S11657432EA0074900832000000000000
B0501093207957S11657386EA0076200847000000000000
B0501133207917S11657350EA0077100851000000015000
B0501173207870S11657394EA0077600860000000015000
B0501213207880S11657458EA0078600869000000000000
B0501253207931S11657471EA0079700883000000000000
B0501293207954S11657419EA0081000897000000000000
B0501333207914S11657378EA0082100903000000015000
B0501373207869S11657417EA0083000915000000015000
B0501413207880S11657477EA0084000922000000000000
B0501453207932S11657486EA0084400932000000000000
B0501493207961S11657438EA0085900951000000000000
B0501533207930S11657391EA0087600961000000000000
B0501573207876S11657406EA0088000964000000000000
B0502013207861S11657464EA0088800976000000000000
B0502053207896S11657502EA0090000986000000000000
B0502093207941S11657480EA0090700997000000000000
B0502133207947S11657425EA0092701019000000000000
B0502173207906S11657398EA0093701020000000000000
B0502213207858S11657436EA0093501020000000000000
B0502253207861S11657498EA0094301030000000000000
B0502293207906S11657523EA0094901036000000000000
B0502333207948S11657488EA0095701051000000000000
B0502373207939S11657424EA0097601068000000000000
B0502413207889S11657404EA0099101082000000000000
B0502453207852S11657446EA0100001085000000000000
B0502493207862S11657507EA0100301091000000000000
B0502533207909S11657521EA0101501104000000000000
B0502573207940S11657475EA0102501113000000000000
B0503013207915S11657419EA0103901128000000000000
B0503053207862S11657415EA0104701136000000000000
B0503093207827S11657463EA0105301139000000000000
B0503133207837S11657523EA0105701145000000000000
B0503173207884S11657546EA0106401155000000000000
B0503213207926S11657512EA0108201176000000000000
B0503253207928S11657454EA0110101193000000000000
B0503293207889S11657415EA0111301203000000000000
B0503333207839S11657429EA0112101207000000000000
B0503373207820S11657489EA0112501212000000000000
B0503413207854S11657536EA0113101223000000000000
B0503453207905S11657519EA0114201237000000000000
B0503493207921S11657463EA0116201256000000000000
B0503533207889S11657416EA0117201258000000000000
B0503573207836S11657417EA0117401263000000000000
B0504013207806S11657468EA0117901268000000000000
B0504053207823S11657527EA0118501275000000000000
B0504093207874S11657546EA0119501289000000000000
B0504133207905S11657504EA0121601311000000000000
B0504173207883S11657455EA0122601315000000000000
B0504213207830S11657458EA0122801319000000000000
B0504253207805S11657512EA0123301324000000000000
B0504293207836S11657563EA0123901330000000000000
B0504333207889S11657546EA0124901346000000000000
B0504373207889S11657484EA0126801364000000015000
B0504413207837S11657468EA0127901369000000015000
B0504453207800S11657514EA0128401376000000015000
B0504493207811S11657573EA0129401387000000015000
B0504533207865S11657579EA0130501398000000000000
B0504573207889S11657521EA0132401420000000000000
B0505013207856S11657476EA0134301435000000000000
B0505053207804S11657489EA0134601437000000000000
B0505093207785S11657542EA0135001440000000000000
B0505133207818S11657590EA0135301444000000000000
B0505173207874S11657601EA0136301459000000000000
B0505213207901S11657550EA0138101478000000000000
B0505253207870S11657501EA0138901477000000000000
B0505293207814S11657510EA0139301487000000000000
B0505333207793S11657563EA0140001492000000000000
B0505373207832S11657602EA0140701498000000000000
B0505413207879S11657567EA0141801513000000000000
B0505453207866S11657503EA0143301528000000000000
B0505493207813S11657488EA0143901530000000000000
B0505533207776S11657525EA0143801529000000000000
B0505573207784S11657581EA0143901533000000000000
B0506013207831S11657607EA0144401538000000000000
B0506053207885S11657593EA0145001548000000000000
B0506093207904S11657534EA0146301561000000000000
B0506133207863S11657497EA0147701575000000000000
B0506173207815S11657515EA0148201572000000000000
B0506213207802S11657571EA0147801571000000000000
B0506253207832S11657624EA0148201576000000000000
B0506293207884S11657647EA0148801578000000000000
B0506333207931S11657614EA0148901582000000000000
B0506373207932S11657551EA0149101579000000000000
B0506413207895S11657494EA0148901583000000000000
B0506453207852S11657438EA0149301586000000000000
B0506493207807S11657389EA0148901577000000000000
B0506533207759S11657346EA0147801565000000000000
B0506573207711S11657303EA0146801556000000000000
B0507013207671S11657252EA0146001548000000000000
B0507053207646S11657191EA0144701530000000000000
B0507093207638S11657121EA0142901514000000000000
B0507133207636S11657047EA0141301496000000000000
B0507173207605S11656982EA0139701477000000000000
B0507213207549S11656935EA0137601455000000000000
B0507253207485S11656897EA0136101449000000000000
B0507293207423S11656861EA0135501443000000000000
B0507333207360S11656825EA0134901433000000000000
B0507373207295S11656786EA0133401421000000000000
B0507413207229S11656743EA0132201407000000000000
B0507453207159S11656700EA0130901395000000000000
B0507493207089S11656653EA0130301390000000000000
B0507533207018S11656607EA0130001387000000000000
B0507573206952S11656562EA0129801384000000000000
B0508013206886S11656516EA0129401379000000000000
B0508053206821S11656472EA0128501369000000000000
B0508093206754S11656425EA0127301357000000000000
B0508133206689S11656376EA0126001344000000000000
B0508173206628S11656324EA0125201335000000000000
B0508213206566S11656273EA0124301327000000000000
B0508253206502S11656228EA0123301319000000000000
B0508293206439S11656180EA0122201305000000000000
B0508333206376S11656128EA0121401298000000000000
B0508373206312S11656077EA0120701291000000000000
B0508413206249S11656028EA0120001283000000000000
B0508453206184S11655980EA0119001272000000000000
B0508493206120S11655931EA0118301266000000000000
B0508533206058S11655882EA0117601260000000000000
B0508573205994S11655830EA0117101258000000000000
B0509013205929S11655782EA0116801253000000000000
B0509053205864S11655735EA0116901258000000000000
B0509093205802S11655691EA0117101255000000000000
B0509133205737S11655645EA0116801255000000000000
B0509173205670S11655606EA0117501267000000000000
B0509213205607S11655591EA0119001282000000000000
B0509253205547S11655596EA0120001286000000000000
B0509293205486S11655614EA0120201291000000000000
B0509333205422S11655636EA0120901299000000000000
B0509373205367S11655675EA0121901308000000000000
B0509413205367S11655736EA0123101319000000000000
B0509453205414S11655751EA0123001311000000000000
B0509493205451S11655696EA0122601316000000000000
B0509533205457S11655627EA0123701329000000000000
B0509573205425S11655574EA0125101348000000000000
B0510013205370S11655580EA0126901361000000000000
B0510053205345S11655638EA0127601367000000000000
B0510093205370S11655684EA0128301376000000000000
B0510133205415S11655679EA0129201382000000000000
B0510173205438S11655626EA0129801389000000000000
B0510213205417S11655569EA0130901406000000000000
B0510253205367S11655548EA0132801422000000000000
B0510293205326S11655582EA0134101433000000000000
B0510333205331S11655640EA0134401430000000000000
B0510373205374S11655671EA0134501437000000000000
B0510413205419S11655647EA0135401448000000000000
B0510453205432S11655587EA0136301456000000000000
B0510493205402S11655532EA0137301467000000000000
B0510533205347S11655525EA0138601482000000000000
B0510573205314S11655570EA0140101498000000000000
B0511013205326S11655625EA0141101503000000000000
B0511053205365S11655651EA0141901513000000000000
B0511093205408S11655629EA0142801522000000000000
B0511133205421S11655574EA0143601532000000000000
B0511173205388S11655527EA0144401539000000000000
B0511213205334S11655527EA0145301549000000000000
B0511253205302S11655577EA0146501562000000000000
B0511293205318S11655630EA0147501567000000000000
B0511333205365S11655642EA0148001574000000000000
B0511373205399S11655605EA0148801583000000000000
B0511413205400S11655548EA0149401587000000000000
B0511453205367S11655499EA0150001592000000000000
B0511493205313S11655488EA0150301595000000000000
B0511533205257S11655521EA0150801604000000000000
B0511573205243S11655587EA0151501609000000000000
B0512013205284S11655627EA0152001612000000000000
B0512053205332S11655610EA0152701620000000000000
B0512093205348S11655556EA0152901618000000000000
B0512133205314S11655504EA0152801620000000000000
B0512173205262S11655469EA0153301624000000000000
B0512213205204S11655445EA0153601629000000000000
B0512253205141S11655435EA0154301638000000000000
B0512293205076S11655428EA0155001644000000000000
B0512333205010S11655427EA0155701651000000000000
B0512373204970S11655476EA0156501659000000000000
B0512413204992S11655538EA0156901666000000000000
B0512453205045S11655571EA0158101674000000000000
B0512493205100S11655575EA0158601680000000000000
B0512533205137S11655534EA0158901680000000000000
B0512573205140S11655465EA0158501676000000000000
B0513013205114S11655397EA0158801680000000000000
B0513053205071S11655336EA0159201685000000000000
B0513093205020S11655281EA0159201683000000000000
B0513133204964S11655232EA0158701676000000000000
B0513173204903S11655187EA0157801664000000000000
B0513213204837S11655144EA0156201645000000000000
B0513253204767S11655102EA0154901632000000000000
B0513293204694S11655059EA0153401619000000000000
B0513333204619S11655016EA0152401610000000000000
B0513373204541S11654973EA0151401601000000000000
B0513413204463S11654930EA0150601593000000000000
B0513453204385S11654889EA0149801586000000000000
B0513493204307S11654849EA0148901577000000000000
B0513533204231S11654806EA0148301568000000000000
B0513573204157S11654761EA0147401560000000000000
B0514013204086S11654719EA0146801554000000000000
B0514053204017S11654673EA0146001547000000000000
B0514093203948S11654630EA0145601543000000000000
B0514133203879S11654590EA0144701532000000000000
B0514173203811S11654551EA0143601521000000000000
B0514213203746S11654508EA0142701513000000000000
B0514253203681S11654466EA0142101506000000000000
B0514293203616S11654426EA0141501499000000000000
B0514333203551S11654382EA0140501486000000000000
B0514373203485S11654336EA0139301478000000000000
B0514413203419S11654292EA0138801473000000000000
B0514453203356S11654248EA0138101466000000000000
B0514493203296S11654204EA0137601460000000000000
B0514533203238S11654158EA0136701451000000000000
B0514573203181S11654113EA0135801437000000000000
B0515013203122S11654067EA0134501421000000000000
B0515053203062S11654020EA0132901407000000000000
B0515093203000S11653972EA0131501393000000000000
B0515133202935S11653928EA0130601386000000000000
B0515173202869S11653888EA0129901380000000000000
B0515213202801S11653849EA0129301374000000000000
B0515253202734S11653812EA0128401364000000000000
B0515293202666S11653776EA0127301354000000000000
B0515333202597S11653740EA0126801351000000000000
B0515373202527S11653698EA0126501347000000000000
B0515413202457S11653659EA0126601354000000000000
B0515453202393S11653621EA0127901367000000000000
B0515493202329S11653589EA0128601372000000000000
B0515533202269S11653603EA0129801384000000000000
B0515573202256S11653673EA0131401406000000000000
B0516013202301S11653708EA0133201422000000000000
B0516053202346S11653681EA0133901424000000000000
B0516093202357S11653619EA0134201428000000000000
B0516133202331S11653567EA0134601430000000000000
B0516173202279S11653554EA0134801435000000000000
B0516213202225S11653563EA0135401442000000000000
B0516253202198S11653615EA0136701462000000000000
B0516293202228S11653667EA0138401472000000000000
B0516333202285S11653666EA0139201483000000000000
B0516373202316S11653617EA0140701498000000000000
B0516413202302S11653565EA0141401501000000000000
B0516453202260S11653539EA0141701505000000000000
B0516493202211S11653543EA0142401510000000000000
B0516533202164S11653569EA0142701515000000000000
B0516573202156S11653633EA0143601529000000000000
B0517013202206S11653659EA0144801535000000000000
B0517053202250S11653615EA0145201543000000000000
B0517093202242S11653554EA0146201554000000000000
B0517133202198S11653534EA0147401565000000000000
B0517173202158S11653567EA0148501574000000000000
B0517213202150S11653632EA0149301583000000000000
B0517253202181S11653688EA0150501597000000000000
B0517293202236S11653701EA0151301603000000000000
B0517333202280S11653663EA0151801608000000000000
B0517373202284S11653603EA0152401615000000000000
B0517413202250S11653560EA0153101621000000000000
B0517453202201S11653569EA0154201633000000000000
B0517493202181S11653627EA0155001639000000000000
B0517533202212S11653686EA0155701650000000000000
B0517573202267S11653703EA0156701659000000000000
B0518013202318S11653675EA0157001659000000000000
B0518053202344S11653616EA0157301663000000000000
B0518093202333S11653558EA0157801669000000000000
B0518133202294S11653528EA0158301674000000000000
B0518173202254S11653556EA0158901682000000000000
B0518213202250S11653619EA0159901694000000000000
B0518253202286S11653669EA0161001703000000000000
B0518293202342S11653680EA0161701707000000000000
B0518333202390S11653646EA0161801706000000000000
B0518373202410S11653588EA0161801707000000000000
B0518413202403S11653528EA0161701707000000000000
B0518453202373S11653480EA0161401700000000000000
B0518493202332S11653435EA0160901697000000000000
B0518533202284S11653393EA0161201705000000000000
B0518573202233S11653389EA0163001724000000000000
B0519013202216S11653437EA0164001724000000000000
B0519053202251S11653494EA0163401719000000000000
B0519093202315S11653506EA0163801729000000000000
B0519133202370S11653472EA0164801740000000000000
B0519173202399S11653415EA0165701747000000000000
B0519213202385S11653354EA0165901744000000000000
B0519253202338S11653313EA0165401741000000000000
B0519293202284S11653283EA0165001736000000000000
B0519333202221S11653256EA0163601719000000000000
B0519373202154S11653222EA0162201703000000000000
B0519413202084S11653186EA0161701705000000000000
B0519453202012S11653151EA0162301717000000000000
B0519493201942S11653113EA0163101721000000000000
B0519533201874S11653074EA0163901731000000000000
B0519573201809S11653031EA0164901742000000000000
B0520013201747S11652984EA0165501742000000000000
B0520053201682S11652935EA0164001723000000000000
B0520093201608S11652893EA0162301708000000000000
B0520133201530S11652857EA0161401702000000000000
B0520173201453S11652819EA0160501691000000000000
B0520213201375S11652783EA0159601679000000000000
B0520253201298S11652744EA0158501669000000000000
B0520293201222S11652704EA0157301657000000000000
B0520333201144S11652665EA0156101643000000000000
B0520373201064S11652627EA0154701629000000000000
B0520413200980S11652597EA0153701620000000000000
B0520453200894S11652570EA0152601610000000000000
B0520493200807S11652538EA0151201594000000000000
B0520533200722S11652498EA0150101582000000000000
B0520573200639S11652453EA0149201576000000000000
B0521013200559S11652406EA0148501567000000000000
B0521053200481S11652358EA0147701561000000000000
B0521093200405S11652312EA0146901554000000000000
B0521133200331S11652263EA0146701552000000000000
B0521173200258S11652213EA0146801555000000000000
B0521213200184S11652164EA0146401548000000000000
B0521253200108S11652112EA0146001544000000000000
B0521293200035S11652061EA0145601541000000000000
B0521333159962S11652009EA0144801530000000000000
B0521373159892S11651957EA0144301528000000000000
B0521413159823S11651909EA0143601518000000000000
B0521453159754S11651864EA0142601509000000000000
B0521493159685S11651820EA0141901501000000000000
B0521533159614S11651779EA0140701488000000000000
B0521573159538S11651739EA0139401472000000000000
B0522013159463S11651693EA0139301479000000000000
B0522053159389S11651653EA0139901483000000000000
B0522093159315S11651627EA0140201486000000000000
B0522133159240S11651621EA0140501486000000000000
B0522173159166S11651613EA0139901480000000000000
B0522213159092S11651593EA0138701470000000000000
B0522253159019S11651563EA0139501483000000000000
B0522293158949S11651531EA0140401492000000000000
B0522333158875S11651521EA0141101500000000000000
B0522373158828S11651579EA0142401512000000000000
B0522413158853S11651651EA0143201518000000000000
B0522453158918S11651666EA0143201515000000000000
B0522493158973S11651621EA0143001517000000000000
B0522533158996S11651548EA0143501524000000000000
B0522573158984S11651469EA0144801539000000000000
B0523013158944S11651409EA0146401554000000000000
B0523053158886S11651426EA0146801551000000000000
B0523093158862S11651496EA0145701539000000000000
B0523133158889S11651565EA0145401545000000000000
B0523173158948S11651578EA0146101551000000000000
B0523213158992S11651536EA0146501552000000000000
B0523253159009S11651463EA0146701558000000000000
B0523293159017S11651384EA0147501565000000000000
B0523333158997S11651313EA0148401565000000000000
B0523373158936S11651285EA0146801547000000000000
B0523413158863S11651280EA0145401540000000000000
B0523453158787S11651281EA0146001549000000000000
B0523493158711S11651279EA0145701541000000000000
B0523533158632S11651277EA0144601529000000000000
B0523573158550S11651274EA0143601519000000000000
B0524013158468S11651272EA0142901512000000000000
B0524053158388S11651279EA0141901499000000000000
B0524093158306S11651289EA0140401480000000000000
B0524133158221S11651306EA0139201471000000000000
B0524173158141S11651333EA0138201463000000000000
B0524213158056S11651350EA0137201453000000000000
B0524253157974S11651340EA0136801452000000000000
B0524293157896S11651315EA0136701451000000000000
B0524333157825S11651279EA0136301447000000000000
B0524373157756S11651233EA0136001443000000000000
B0524413157695S11651177EA0135401438000000000000
B0524453157635S11651115EA0134801428000000000000
B0524493157576S11651050EA0133801419000000000000
B0524533157518S11650982EA0133401417000000000000
B0524573157459S11650915EA0133901425000000000000
B0525013157402S11650850EA0134401429000000000000
B0525053157355S11650780EA0134701432000000000000
B0525093157322S11650703EA0134801429000000000000
B0525133157276S11650633EA0134301426000000000000
B0525173157224S11650569EA0134201424000000000000
B0525213157168S11650507EA0133801417000000000000
B0525253157108S11650447EA0132701406000000000000
B0525293157046S11650388EA0131401393000000000000
B0525333156984S11650330EA0130101381000000000000
B0525373156920S11650270EA0129001370000000000000
B0525413156855S11650213EA0128101362000000000000
B0525453156790S11650157EA0127101350000000000000
B0525493156720S11650107EA0126101337000000000000
B0525533156648S11650061EA0124801323000000000000
B0525573156577S11650015EA0123801318000000000000
B0526013156507S11649974EA0123501314000000000000
B0526053156438S11649931EA0123901318000000000000
B0526093156361S11649929EA0124601330000000000000
B0526133156296S11649967EA0125701344000000000000
B0526173156239S11650014EA0126901355000000000000
B0526213156210S11650076EA0128501374000000000000
B0526253156243S11650120EA0129701378000000000000
B0526293156297S11650094EA0128401362000000000000
B0526333156306S11650023EA0128301371000000000000
B0526373156274S11649966EA0129101381000000000000
B0526413156222S11649933EA0130101387000000000000
B0526453156165S11649940EA0130801398000000000000
B0526493156127S11649984EA0132001408000000000000
B0526533156144S11650042EA0133301423000000000000
B0526573156196S11650046EA0134301427000000000000
B0527013156219S11649987EA0134601431000000000000
B0527053156189S11649933EA0135101437000000000000
B0527093156135S11649927EA0135701443000000000000
B0527133156097S11649976EA0136201450000000000000
B0527173156111S11650041EA0137401467000000000000
B0527213156165S11650058EA0138701475000000000000
B0527253156202S11650009EA0139401481000000000000
B0527293156180S11649948EA0140401495000000000000
B0527333156131S11649932EA0141901510000000000000
B0527373156085S11649963EA0142301509000000000000
B0527413156062S11650026EA0143201530000000000000
B0527453156084S11650079EA0145401545000000000000
B0527493156135S11650093EA0146001549000000000000
B0527533156178S11650052EA0146801560000000000000
B0527573156171S11649989EA0147401563000000000000
B0528013156124S11649950EA0148001576000000000000
B0528053156070S11649961EA0149501590000000000000
B0528093156039S11650015EA0151001607000000000000
B0528133156055S11650075EA0152601622000000000000
B0528173156102S11650102EA0154001634000000000000
B0528213156150S11650081EA0155001640000000000000
B0528253156170S11650018EA0155301641000000000000
B0528293156143S11649957EA0156001654000000000000
B0528333156087S11649935EA0157201665000000000000
B0528373156032S11649967EA0158101678000000000000
B0528413156016S11650036EA0159401696000000000000
B0528453156049S11650089EA0161201711000000000000
B0528493156101S11650093EA0162501717000000000000
B0528533156135S11650044EA0163101725000000000000
B0528573156122S11649983EA0164101736000000000000
B0529013156074S11649951EA0165101744000000000000
B0529053156018S11649970EA0166201759000000000000
B0529093155985S11650026EA0167801773000000000000
B0529133155989S11650094EA0168901784000000000000
B0529173156024S11650146EA0169701796000000000000
B0529213156075S11650157EA0170801801000000000000
B0529253156117S11650123EA0171101803000000000000
B0529293156124S11650062EA0171401807000000000000
B0529333156097S11650005EA0172301818000000000000
B0529373156048S11649972EA0173701834000000000000
B0529413155994S11649983EA0175301851000000000000
B0529453155961S11650037EA0176401859000000000000
B0529493155968S11650105EA0177601871000000000000
B0529533156010S11650144EA0178001874000000000000
B0529573156062S11650132EA0178501883000000000000
B0530013156089S11650084EA0179201886000000000000
B0530053156075S11650026EA0179601891000000000000
B0530093156029S11649990EA0180301898000000000000
B0530133155972S11649994EA0181001907000000000000
B0530173155928S11650042EA0182001918000000000000
B0530213155914S11650111EA0182801920000000000000
B0530253155935S11650179EA0182801919000000000000
B0530293155981S11650213EA0183101924000000000000
B0530333156029S11650189EA0183301920000000000000
B0530373156053S11650120EA0182201905000000000000
B0530413156042S11650042EA0181501914000000000000
B0530453156005S11649984EA0183001932000000000000
B0530493155945S11649966EA0184701944000000000000
B0530533155883S11649996EA0185101946000000000000
B0530573155825S11650046EA0185701952000000000000
B0531013155795S11650119EA0186201954000000000000
B0531053155794S11650202EA0185701943000000000000
B0531093155825S11650278EA0184501930000000000000
B0531133155881S11650318EA0183501925000000000000
B0531173155932S11650302EA0183401919000000000000
B0531213155958S11650245EA0182601911000000000000
B0531253155975S11650178EA0181601901000000000000
B0531293155975S11650105EA0181701912000000000000
B0531333155967S11650033EA0183401933000000000000
B0531373155924S11649997EA0185601957000000000000
B0531413155875S11650023EA0187001960000000000000
B0531453155858S11650097EA0187601974000000000000
B0531493155883S11650161EA0189201988000000000000
B0531533155932S11650187EA0190001990000000000000
B0531573155983S11650170EA0190401997000000000000
B0532013156015S11650122EA0190902002000000000000
B0532053156019S11650063EA0191602010000000000000
B0532093155984S11650019EA0192302018000000000000
B0532133155931S11650016EA0193002027000000000000
B0532173155885S11650059EA0193802035000000000000
B0532213155873S11650130EA0194302036000000000000
B0532253155907S11650195EA0195102053000000000000
B0532293155957S11650221EA0196002053000000000000
B0532333156009S11650204EA0195702048000000000000
B0532373156041S11650154EA0195302044000000000000
B0532413156039S11650088EA0194802038000000000000
B0532453156010S11650024EA0194402036000000000000
B0532493155972S11649958EA0193902029000000000000
B0532533155932S11649888EA0193502029000000000000
B0532573155890S11649814EA0193302024000000000000
B0533013155846S11649738EA0192802015000000000000
B0533053155801S11649663EA0191602006000000000000
B0533093155751S11649590EA0191102001000000000000
B0533133155699S11649520EA0190801996000000000000
B0533173155650S11649451EA0190501994000000000000
B0533213155599S11649383EA0190401995000000000000
B0533253155547S11649320EA0190301992000000000000
B0533293155493S11649259EA0190301992000000000000
B0533333155435S11649200EA0190001991000000000000
B0533373155377S11649143EA0189901989000000000000
B0533413155316S11649090EA0189701986000000000000
B0533453155253S11649038EA0189301981000000000000
B0533493155188S11648986EA0188801978000000000000
B0533533155123S11648936EA0188701977000000000000
B0533573155057S11648891EA0188301973000000000000
B0534013154989S11648848EA0187801968000000000000
B0534053154922S11648807EA0187001959000000000000
B0534093154853S11648765EA0186101949000000000000
B0534133154785S11648720EA0185001940000000000000
B0534173154718S11648675EA0184401932000000000000
B0534213154653S11648629EA0183701922000000000000
B0534253154586S11648580EA0182701913000000000000
B0534293154523S11648529EA0181801908000000000000
B0534333154467S11648468EA0181501904000000000000
B0534373154425S11648397EA0181101900000000000000
B0534413154397S11648316EA0180601895000000000000
B0534453154378S11648229EA0179901887000000000000
B0534493154363S11648141EA0179201879000000000000
B0534533154349S11648050EA0178601871000000000000
B0534573154337S11647957EA0177701864000000000000
B0535013154324S11647866EA0177001857000000000000
B0535053154312S11647775EA0176301848000000000000
B0535093154297S11647683EA0175401840000000000000
B0535133154278S11647592EA0174601833000000000000
B0535173154256S11647504EA0174401831000000000000
B0535213154232S11647420EA0174301831000000000000
B0535253154206S11647340EA0174101827000000000000
B0535293154180S11647259EA0173501823000000000000
B0535333154157S11647179EA0173001817000000000000
B0535373154133S11647098EA0172701815000000000000
B0535413154109S11647019EA0172401811000000000000
B0535453154083S11646941EA0171801806000000000000
B0535493154056S11646864EA0171101798000000000000
B0535533154025S11646789EA0170301789000000000000
B0535573153991S11646713EA0169901787000000000000
B0536013153969S11646638EA0170101791000000000000
B0536053153960S11646562EA0170401794000000000000
B0536093153953S11646488EA0170501795000000000000
B0536133153943S11646415EA0170501793000000000000
B0536173153930S11646344EA0170201788000000000000
B0536213153907S11646274EA0169401780000000000000
B0536253153866S11646211EA0168501770000000000000
B0536293153812S11646159EA0167401760000000000000
B0536333153749S11646114EA0166401749000000000000
B0536373153683S11646071EA0165401740000000000000
B0536413153614S11646028EA0164701735000000000000
B0536453153545S11645985EA0164401731000000000000
B0536493153479S11645940EA0164201730000000000000
B0536533153414S11645895EA0163901723000000000000
B0536573153346S11645853EA0163001714000000000000
B0537013153276S11645811EA0161901703000000000000
B0537053153202S11645769EA0160901693000000000000
B0537093153129S11645726EA0160201687000000000000
B0537133153055S11645685EA0159601682000000000000
B0537173152984S11645641EA0159101675000000000000
B0537213152916S11645594EA0158401669000000000000
B0537253152850S11645543EA0157701661000000000000
B0537293152782S11645491EA0156801649000000000000
B0537333152712S11645439EA0155801640000000000000
B0537373152642S11645387EA0154901634000000000000
B0537413152571S11645331EA0154301622000000000000
B0537453152503S11645273EA0153001612000000000000
B0537493152435S11645214EA0152501609000000000000
B0537533152370S11645156EA0152401610000000000000
B0537573152305S11645101EA0152101605000000000000
B0538013152240S11645048EA0151401596000000000000
B0538053152176S11644993EA0151001593000000000000
B0538093152110S11644950EA0150701592000000000000
B0538133152042S11644913EA0150301585000000000000
B0538173151976S11644874EA0149501579000000000000
B0538213151912S11644829EA0148701568000000000000
B0538253151851S11644780EA0148101564000000000000
B0538293151793S11644727EA0148201570000000000000
B0538333151733S11644680EA0148401565000000000000
B0538373151671S11644637EA0147401551000000000000
B0538413151607S11644593EA0146401545000000000000
B0538453151547S11644543EA0146301545000000000000
B0538493151489S11644497EA0146701553000000000000
B0538533151434S11644451EA0147901568000000000000
B0538573151386S11644407EA0149101580000000000000
B0539013151339S11644359EA0150201589000000000000
B0539053151296S11644307EA0149801579000000000000
B0539093151248S11644259EA0148801570000000000000
B0539133151188S11644234EA0148201565000000000000
B0539173151123S11644235EA0147501556000000000000
B0539213151056S11644228EA0146501548000000000000
B0539253150989S11644208EA0146101542000000000000
B0539293150923S11644185EA0145201532000000000000
B0539333150853S11644161EA0144201522000000000000
B0539373150785S11644129EA0143601517000000000000
B0539413150722S11644087EA0143501515000000000000
B0539453150667S11644029EA0143701522000000000000
B0539493150618S11643966EA0144801536000000000000
B0539533150560S11643952EA0146001544000000000000
B0539573150532S11643999EA0146101540000000000000
B0540013150545S11644060EA0145101528000000000000
B0540053150597S11644094EA0144201522000000000000
B0540093150659S11644070EA0144201526000000000000
B0540133150719S11644029EA0144401527000000000000
B0540173150781S11643984EA0144301525000000000000
B0540213150826S11643919EA0144301528000000000000
B0540253150835S11643845EA0144501529000000000000
B0540293150809S11643783EA0144101519000000000000
B0540333150759S11643735EA0142501503000000000000
B0540373150703S11643687EA0141401494000000000000
B0540413150645S11643639EA0140401483000000000000
B0540453150581S11643591EA0139101469000000000000
B0540493150515S11643541EA0137301450000000000000
B0540533150442S11643497EA0135701434000000000000
B0540573150369S11643454EA0134501425000000000000
B0541013150296S11643407EA0133601410000000000000
B0541053150225S11643358EA0132201399000000000000
B0541093150152S11643311EA0130901384000000000000
B0541133150078S11643263EA0129801377000000000000
B0541173150009S11643214EA0130501391000000000000
B0541213149955S11643152EA0132601414000000000000
B0541253149895S11643133EA0135601446000000000000
B0541293149874S11643185EA0138401471000000000000
B0541333149904S11643225EA0139601476000000000000
B0541373149960S11643215EA0139401478000000000000
B0541413149990S11643155EA0140701496000000000000
B0541453149973S11643087EA0142001511000000000000
B0541493149923S11643050EA0143401524000000000000
B0541533149864S11643056EA0144701541000000000000
B0541573149813S11643093EA0146201550000000000000
B0542013149786S11643154EA0146801560000000000000
B0542053149800S11643216EA0147701564000000000000
B0542093149849S11643242EA0147701560000000000000
B0542133149904S11643216EA0147201557000000000000
B0542173149934S11643152EA0147301560000000000000
B0542213149938S11643076EA0148301572000000000000
B0542253149904S11643011EA0149401592000000000000
B0542293149845S11642994EA0151701617000000000000
B0542333149795S11643021EA0153601625000000000000
B0542373149760S11643073EA0153701625000000000000
B0542413149752S11643147EA0153901629000000000000
B0542453149783S11643210EA0154601639000000000000
B0542493149834S11643219EA0155701646000000000000
B0542533149877S11643178EA0155401634000000000000
B0542573149879S11643102EA0154801638000000000000
B0543013149839S11643043EA0156301656000000000000
B0543053149782S11643017EA0157701666000000000000
B0543093149721S11643030EA0158101674000000000000
B0543133149675S11643077EA0159401687000000000000
B0543173149670S11643147EA0160501695000000000000
B0543213149708S11643201EA0161101700000000000000
B0543253149761S11643208EA0161101698000000000000
B0543293149788S11643164EA0161101692000000000000
B0543333149757S11643115EA0160201685000000000000
B0543373149692S11643106EA0160401693000000000000
B0543413149623S11643112EA0160401691000000000000
B0543453149553S11643124EA0160701695000000000000
B0543493149480S11643130EA0160001685000000000000
B0543533149401S11643137EA0159001672000000000000
B0543573149319S11643142EA0157901662000000000000
B0544013149237S11643149EA0157001653000000000000
B0544053149155S11643158EA0155601637000000000000
B0544093149072S11643171EA0154501631000000000000
B0544133148990S11643188EA0154201628000000000000
B0544173148905S11643206EA0153901626000000000000
B0544213148821S11643225EA0153801625000000000000
B0544253148734S11643245EA0153901627000000000000
B0544293148648S11643263EA0153901625000000000000
B0544333148565S11643282EA0153601622000000000000
B0544373148482S11643299EA0153001615000000000000
B0544413148397S11643316EA0151901602000000000000
B0544453148314S11643333EA0151001595000000000000
B0544493148229S11643350EA0150201585000000000000
B0544533148146S11643367EA0149301579000000000000
B0544573148066S11643386EA0149101577000000000000
B0545013147986S11643409EA0148501571000000000000
B0545053147910S11643433EA0148001565000000000000
B0545093147833S11643455EA0147501560000000000000
B0545133147756S11643477EA0147001554000000000000
B0545173147677S11643496EA0146201544000000000000
B0545213147595S11643513EA0145201534000000000000
B0545253147513S11643526EA0144901536000000000000
B0545293147435S11643536EA0145701548000000000000
B0545333147358S11643542EA0146801554000000000000
B0545373147282S11643548EA0146601549000000000000
B0545413147202S11643550EA0145901542000000000000
B0545453147123S11643550EA0145301537000000000000
B0545493147041S11643548EA0144901532000000000000
B0545533146961S11643541EA0144001521000000000000
B0545573146877S11643535EA0142801509000000000000
B0546013146793S11643526EA0141501495000000000000
B0546053146707S11643518EA0140001481000000000000
B0546093146621S11643511EA0138801466000000000000
B0546133146536S11643503EA0137901460000000000000
B0546173146452S11643496EA0137101454000000000000
B0546213146370S11643488EA0136601448000000000000
B0546253146289S11643483EA0135701438000000000000
B0546293146208S11643479EA0135001433000000000000
B0546333146130S11643475EA0134801431000000000000
B0546373146053S11643468EA0134101423000000000000
B0546413145978S11643461EA0133501417000000000000
B0546453145901S11643453EA0133001411000000000000
B0546493145827S11643444EA0132201404000000000000
B0546533145752S11643431EA0131501396000000000000
B0546573145678S11643419EA0131101393000000000000
B0547013145602S11643405EA0131001393000000000000
B0547053145525S11643392EA0131101396000000000000
B0547093145450S11643385EA0131901406000000000000
B0547133145376S11643377EA0132701415000000000000
B0547173145307S11643393EA0133801427000000000000
B0547213145277S11643453EA0135201437000000000000
B0547253145308S11643509EA0134901423000000000000
B0547293145372S11643511EA0133501415000000000000
B0547333145431S11643475EA0133201416000000000000
B0547373145472S11643411EA0133501420000000000000
B0547413145486S11643336EA0134301431000000000000
B0547453145450S11643279EA0135301437000000000000
B0547493145389S11643267EA0135201435000000000000
B0547533145342S11643306EA0135101432000000000000
B0547573145317S11643368EA0134301425000000000000
B0548013145272S11643425EA0133801420000000000000
B0548053145212S11643471EA0133501413000000000000
B0548093145143S11643503EA0132501401000000000000
B0548133145067S11643524EA0131201389000000000000
B0548173144986S11643536EA0130301380000000000000
B0548213144904S11643541EA0129401370000000000000
B0548253144821S11643540EA0128601364000000000000
B0548293144739S11643539EA0128301361000000000000
B0548333144657S11643537EA0128201362000000000000
B0548373144582S11643529EA0128601367000000000000
B0548413144508S11643520EA0128801365000000000000
B0548453144432S11643526EA0128301362000000000000
B0548493144358S11643533EA0128101361000000000000
B0548533144284S11643548EA0127901358000000000000
B0548573144209S11643567EA0127601356000000000000
B0549013144134S11643594EA0127201349000000000000
B0549053144056S11643619EA0126301343000000000000
B0549093143975S11643636EA0126301344000000000000
B0549133143893S11643646EA0126201338000000000000
B0549173143808S11643649EA0125401329000000000000
B0549213143726S11643632EA0124701327000000000000
B0549253143644S11643609EA0123701312000000000000
B0549293143560S11643589EA0122401301000000000000
B0549333143475S11643566EA0121401288000000000000
B0549373143392S11643537EA0120101276000000000000
B0549413143309S11643506EA0118801264000000000000
B0549453143223S11643485EA0117801251000000000000
B0549493143136S11643467EA0116301238000000000000
B0549533143046S11643454EA0115301226000000000000
B0549573142957S11643435EA0114301216000000000000
B0550013142870S11643402EA0113201206000000000000
B0550053142784S11643370EA0112101194000000000000
B0550093142697S11643341EA0110801182000000000000
B0550133142612S11643311EA0110001174000000000000
B0550173142530S11643277EA0110401182000000000000
B0550213142456S11643238EA0111001189000000000000
B0550253142386S11643211EA0112001201000000000000
B0550293142331S11643238EA0113901226000000000000
B0550333142322S11643293EA0115501234000000000000
B0550373142359S11643337EA0115601231000000000000
B0550413142418S11643329EA0115701236000000000000
B0550453142447S11643267EA0116501247000000000000
B0550493142428S11643201EA0117201252000000000000
B0550533142378S11643177EA0118101262000000000000
B0550573142339S11643210EA0118501262000000000000
B0551013142344S11643266EA0118601266000000000000
B0551053142394S11643288EA0118701266000000000000
B0551093142442S11643247EA0119001273000000000000
B0551133142441S11643176EA0119601276000000000000
B0551173142392S11643139EA0120001281000000000000
B0551213142348S11643169EA0120301283000000000000
B0551253142350S11643228EA0120301283000000000000
B0551293142396S11643262EA0120701286000000000000
B0551333142452S11643234EA0120901288000000000000
B0551373142468S11643160EA0120601281000000000000
B0551413142426S11643103EA0120501288000000000000
B0551453142366S11643090EA0120701283000000000000
B0551493142301S11643091EA0120101277000000000000
B0551533142238S11643119EA0119901282000000000000
B0551573142212S11643186EA0121301297000000000000
B0552013142246S11643243EA0122501309000000000000
B0552053142298S11643204EA0123701319000000000000
B0552093142282S11643134EA0124201320000000000000
B0552133142222S11643130EA0124001320000000000000
B0552173142212S11643195EA0125001335000000000000
B0552213142266S11643228EA0126001343000000000000
B0552253142325S11643193EA0126901350000000000000
B0552293142335S11643117EA0126801346000000000000
B0552333142291S11643061EA0126601346000000000000
B0552373142227S11643056EA0126701344000000000000
B0552413142158S11643072EA0126001340000000000000
B0552453142088S11643098EA0125601335000000000000
B0552493142039S11643160EA0126301351000000000000
B0552533142079S11643206EA0129001383000000000000
B0552573142118S11643160EA0131501407000000000000
B0553013142099S11643102EA0132901413000000000000
B0553053142045S11643089EA0132701407000000000000
B0553093142004S11643139EA0132901415000000000000
B0553133142021S11643202EA0134401433000000000000
B0553173142074S11643195EA0136501455000000000000
B0553213142088S11643133EA0138401472000000000000
B0553253142052S11643082EA0139501479000000000000
B0553293141995S11643081EA0139501475000000000000
B0553333141963S11643142EA0139601485000000000000
B0553373141993S11643199EA0141101504000000000000
B0553413142048S11643199EA0143201524000000000000
B0553453142082S11643146EA0144301529000000000000
B0553493142062S11643077EA0145301544000000000000
B0553533142010S11643048EA0145801536000000000000
B0553573141954S11643090EA0145101535000000000000
B0554013141947S11643164EA0145701543000000000000
B0554053141989S11643212EA0147201561000000000000
B0554093142045S11643195EA0148401578000000000000
B0554133142060S11643130EA0150301595000000000000
B0554173142019S11643078EA0151501602000000000000
B0554213141954S11643073EA0151101587000000000000
B0554253141901S11643132EA0150301588000000000000
B0554293141891S11643215EA0151201601000000000000
B0554333141923S11643282EA0152901622000000000000
B0554373141980S11643302EA0155401647000000000000
B0554413142026S11643268EA0157101660000000000000
B0554453142032S11643199EA0158301673000000000000
B0554493141988S11643145EA0159201683000000000000
B0554533141922S11643150EA0160301694000000000000
B0554573141887S11643212EA0161501704000000000000
B0555013141910S11643277EA0162501715000000000000
B0555053141966S11643285EA0163801731000000000000
B0555093142000S11643236EA0165201743000000000000
B0555133141984S11643172EA0166301755000000000000
B0555173141928S11643145EA0167401764000000000000
B0555213141869S11643173EA0167701764000000000000
B0555253141846S11643242EA0168101772000000000000
B0555293141875S11643301EA0169301786000000000000
B0555333141928S11643308EA0170601797000000000000
B0555373141966S11643260EA0171201800000000000000
B0555413141957S11643195EA0172201816000000000000
B0555453141910S11643159EA0173501824000000000000
B0555493141848S11643169EA0173501822000000000000
B0555533141801S11643223EA0173701825000000000000
B0555573141793S11643293EA0174501833000000000000
B0556013141823S11643341EA0175101840000000000000
B0556053141871S11643337EA0175201838000000000000
B0556093141905S11643289EA0175001836000000000000
B0556133141893S11643227EA0175101842000000000000
B0556173141837S11643199EA0175701845000000000000
B0556213141779S11643230EA0175501841000000000000
B0556253141757S11643301EA0175401842000000000000
B0556293141774S11643371EA0175201836000000000000
B0556333141817S11643428EA0174601831000000000000
B0556373141875S11643476EA0173901822000000000000
B0556413141943S11643527EA0173701822000000000000
B0556453142014S11643575EA0173501819000000000000
B0556493142090S11643620EA0172901812000000000000
B0556533142168S11643665EA0172001803000000000000
B0556573142247S11643704EA0171001792000000000000
B0557013142329S11643741EA0169701783000000000000
B0557053142413S11643780EA0168501767000000000000
B0557093142499S11643821EA0167001756000000000000
B0557133142586S11643862EA0166201748000000000000
B0557173142672S11643904EA0165701746000000000000
B0557213142754S11643947EA0165701746000000000000
B0557253142837S11643988EA0165501742000000000000
B0557293142920S11644026EA0165101740000000000000
B0557333143002S11644062EA0165101737000000000000
B0557373143084S11644099EA0164101727000000000000
B0557413143169S11644137EA0163301716000000000000
B0557453143253S11644177EA0162001704000000000000
B0557493143339S11644216EA0161301699000000000000
B0557533143422S11644257EA0160701692000000000000
B0557573143501S11644300EA0160001686000000000000
B0558013143578S11644346EA0159501680000000000000
B0558053143653S11644390EA0158801671000000000000
B0558093143728S11644433EA0158301672000000000000
B0558133143802S11644473EA0158301669000000000000
B0558173143873S11644515EA0158101668000000000000
B0558213143946S11644553EA0158401674000000000000
B0558253144017S11644590EA0159001679000000000000
B0558293144093S11644612EA0160101693000000000000
B0558333144167S11644619EA0161001698000000000000
B0558373144223S11644584EA0162201720000000000000
B0558413144227S11644519EA0163601724000000000000
B0558453144180S11644473EA0163301716000000000000
B0558493144116S11644484EA0163101722000000000000
B0558533144071S11644533EA0164001733000000000000
B0558573144063S11644606EA0164801740000000000000
B0559013144105S11644651EA0165901750000000000000
B0559053144153S11644629EA0166301751000000000000
B0559093144163S11644564EA0166001748000000000000
B0559133144127S11644508EA0166301754000000000000
B0559173144064S11644498EA0167001759000000000000
B0559213144012S11644540EA0167401768000000000000
B0559253143999S11644607EA0168401777000000000000
B0559293144036S11644655EA0169101782000000000000
B0559333144082S11644631EA0169501783000000000000
B0559373144075S11644564EA0169401780000000000000
B0559413144016S11644532EA0169501790000000000000
B0559453143952S11644542EA0171201805000000000000
B0559493143915S11644598EA0172301813000000000000
B0559533143930S11644659EA0172801816000000000000
B0559573143982S11644668EA0173001814000000000000
B0600013144040S11644647EA0172501812000000000000
B0600053144103S11644636EA0172001805000000000000
B0600093144175S11644641EA0171601802000000000000
B0600133144250S11644664EA0171301799000000000000
B0600173144328S11644692EA0170701792000000000000
B0600213144406S11644729EA0170201793000000000000
B0600253144484S11644770EA0171301803000000000000
B0600293144563S11644802EA0172301814000000000000
B0600333144641S11644831EA0173201819000000000000
B0600373144722S11644857EA0172101803000000000000
B0600413144808S11644878EA0170901796000000000000
B0600453144892S11644902EA0170801798000000000000
B0600493144976S11644932EA0171001799000000000000
B0600533145056S11644963EA0170801795000000000000
B0600573145137S11644998EA0170001783000000000000
B0601013145219S11645035EA0168901776000000000000
B0601053145299S11645074EA0168501773000000000000
B0601093145379S11645114EA0168301770000000000000
B0601133145460S11645151EA0168001768000000000000
B0601173145544S11645188EA0167401761000000000000
B0601213145628S11645225EA0167401761000000000000
B0601253145714S11645261EA0166701753000000000000
B0601293145802S11645300EA0166001746000000000000
B0601333145892S11645339EA0165101733000000000000
B0601373145984S11645379EA0164101727000000000000
B0601413146075S11645414EA0163701724000000000000
B0601453146164S11645444EA0163401720000000000000
B0601493146251S11645472EA0163601724000000000000
B0601533146335S11645502EA0163701724000000000000
B0601573146421S11645531EA0163301716000000000000
B0602013146507S11645561EA0162201703000000000000
B0602053146594S11645591EA0161201697000000000000
B0602093146679S11645625EA0160701692000000000000
B0602133146764S11645663EA0160401691000000000000
B0602173146846S11645707EA0160401692000000000000
B0602213146926S11645750EA0160901698000000000000
B0602253147004S11645790EA0160601691000000000000
B0602293147080S11645834EA0159901683000000000000
B0602333147158S11645880EA0159301678000000000000
B0602373147238S11645923EA0158801672000000000000
B0602413147318S11645963EA0157601659000000000000
B0602453147401S11646002EA0156801654000000000000
B0602493147481S11646042EA0156701655000000000000
B0602533147560S11646083EA0156301650000000000000
B0602573147638S11646124EA0155901646000000000000
B0603013147717S11646165EA0155501643000000000000
B0603053147797S11646206EA0155501643000000000000
B0603093147873S11646250EA0155401641000000000000
B0603133147950S11646296EA0155501644000000000000
B0603173148027S11646339EA0155601645000000000000
B0603213148101S11646375EA0156701661000000000000
B0603253148176S11646399EA0158001668000000000000
B0603293148252S11646409EA0157301653000000000000
B0603333148332S11646426EA0155501636000000000000
B0603373148414S11646448EA0154301625000000000000
B0603413148495S11646474EA0153501620000000000000
B0603453148571S11646508EA0152901613000000000000
B0603493148649S11646539EA0152001600000000000000
B0603533148731S11646564EA0151101596000000000000
B0603573148812S11646587EA0151001595000000000000
B0604013148892S11646610EA0151001595000000000000
B0604053148973S11646633EA0150401586000000000000
B0604093149054S11646657EA0149401576000000000000
B0604133149133S11646691EA0148601568000000000000
B0604173149207S11646737EA0148001565000000000000
B0604213149273S11646785EA0147901562000000000000
B0604253149346S11646825EA0147301557000000000000
B0604293149420S11646857EA0147001554000000000000
B0604333149496S11646880EA0146701551000000000000
B0604373149574S11646891EA0146101540000000000000
B0604413149654S11646896EA0145201535000000000000
B0604453149736S11646898EA0144901532000000000000
B0604493149822S11646898EA0144501529000000000000
B0604533149909S11646896EA0144501528000000000000
B0604573149999S11646903EA0144301530000000000000
B0605013150085S11646907EA0145301539000000000000
B0605053150169S11646907EA0145401538000000000000
B0605093150255S11646900EA0145401538000000000000
B0605133150338S11646881EA0145301536000000000000
B0605173150395S11646833EA0146601561000000000000
B0605213150380S11646779EA0149001578000000000000
B0605253150326S11646778EA0149201572000000000000
B0605293150267S11646804EA0148801572000000000000
B0605333150228S11646869EA0148601569000000000000
B0605373150233S11646954EA0148401571000000000000
B0605413150267S11647033EA0148401566000000000000
B0605453150316S11647101EA0147701559000000000000
B0605493150385S11647141EA0147101553000000000000
B0605533150460S11647168EA0146501549000000000000
B0605573150537S11647182EA0147301556000000000000
B0606013150579S11647130EA0148601581000000000000
B0606053150540S11647091EA0150601588000000000000
B0606093150485S11647125EA0150201582000000000000
B0606133150477S11647195EA0149901580000000000000
B0606173150528S11647234EA0149501575000000000000
B0606213150594S11647234EA0149401579000000000000
B0606253150633S11647182EA0151201608000000000000
B0606293150610S11647129EA0152701608000000000000
B0606333150553S11647133EA0152601610000000000000
B0606373150529S11647202EA0152401603000000000000
B0606413150563S11647271EA0151801605000000000000
B0606453150618S11647255EA0152801616000000000000
B0606493150618S11647185EA0153301621000000000000
B0606533150568S11647147EA0153901625000000000000
B0606573150523S11647201EA0153701617000000000000
B0607013150549S11647276EA0153001617000000000000
B0607053150608S11647285EA0154001627000000000000
B0607093150644S11647233EA0154401627000000000000
B0607133150632S11647166EA0154501630000000000000
B0607173150584S11647119EA0154501629000000000000
B0607213150525S11647130EA0154601633000000000000
B0607253150507S11647199EA0154501623000000000000
B0607293150549S11647258EA0153401619000000000000
B0607333150611S11647292EA0153401621000000000000
B0607373150680S11647312EA0153101613000000000000
B0607413150754S11647322EA0152301602000000000000
B0607453150835S11647329EA0151001590000000000000
B0607493150919S11647341EA0149401573000000000000
B0607533151002S11647354EA0148301564000000000000
B0607573151088S11647364EA0147601560000000000000
B0608013151171S11647375EA0147501558000000000000
B0608053151253S11647385EA0147001551000000000000
B0608093151335S11647397EA0146001538000000000000
B0608133151417S11647410EA0145001532000000000000
B0608173151502S11647426EA0144401524000000000000
B0608213151583S11647445EA0144401531000000000000
B0608253151663S11647462EA0144901532000000000000
B0608293151746S11647472EA0143801516000000000000
B0608333151832S11647474EA0142001498000000000000
B0608373151920S11647472EA0140401484000000000000
B0608413152011S11647478EA0139801478000000000000
B0608453152101S11647487EA0139301471000000000000
B0608493152191S11647501EA0138101456000000000000
B0608533152282S11647527EA0136401441000000000000
B0608573152370S11647561EA0135401438000000000000
B0609013152456S11647597EA0135401434000000000000
B0609053152539S11647641EA0134601428000000000000
B0609093152621S11647689EA0134101422000000000000
B0609133152700S11647741EA0133501416000000000000
B0609173152774S11647795EA0133001407000000000000
B0609213152847S11647851EA0131801394000000000000
B0609253152916S11647910EA0130601384000000000000
B0609293152985S11647972EA0129601372000000000000
B0609333153056S11648031EA0128701364000000000000
B0609373153132S11648078EA0128301362000000000000
B0609413153211S11648107EA0127801357000000000000
B0609453153293S11648133EA0127001351000000000000
B0609493153376S11648157EA0126701347000000000000
B0609533153459S11648176EA0127301359000000000000
B0609573153540S11648177EA0128101362000000000000
B0610013153622S11648167EA0127801357000000000000
B0610053153700S11648148EA0127401352000000000000
B0610093153777S11648125EA0126601342000000000000
B0610133153856S11648118EA0125701335000000000000
B0610173153934S11648130EA0124801327000000000000
B0610213154009S11648156EA0124201321000000000000
B0610253154082S11648191EA0124001320000000000000
B0610293154154S11648228EA0123901320000000000000
B0610333154226S11648264EA0124001321000000000000
B0610373154299S11648294EA0123801316000000000000
B0610413154375S11648328EA0122801305000000000000
B0610453154449S11648368EA0122201301000000000000
B0610493154520S11648412EA0121301289000000000000
B0610533154590S11648459EA0120401279000000000000
B0610573154661S11648507EA0119201270000000000000
B0611013154732S11648558EA0118101254000000000000
B0611053154806S11648609EA0116901245000000000000
B0611093154879S11648658EA0116401241000000000000
B0611133154950S11648707EA0116101238000000000000
B0611173155021S11648761EA0115401230000000000000
B0611213155091S11648815EA0114601223000000000000
B0611253155162S11648872EA0113801215000000000000
B0611293155234S11648926EA0112801204000000000000
B0611333155305S11648978EA0111901195000000000000
B0611373155378S11649023EA0111601193000000000000
B0611413155448S11649065EA0111601193000000000000
B0611453155517S11649104EA0111301190000000000000
B0611493155584S11649140EA0111401191000000000000
B0611533155651S11649169EA0110301176000000000000
B0611573155720S11649201EA0109001162000000000000
B0612013155782S11649244EA0107701148000000000000
B0612053155841S11649298EA0106401139000000000000
B0612093155897S11649353EA0105401126000000000000
B0612133155951S11649413EA0104001113000000000000
B0612173156009S11649469EA0103401108000000000000
B0612213156071S11649517EA0103901118000000000000
B0612253156136S11649539EA0105401130000000000000
B0612293156170S11649490EA0106701145000000000000
B0612333156127S11649446EA0107301148000000000000
B0612373156072S11649481EA0108001160000000000000
B0612413156058S11649554EA0108601166000000000000
B0612453156097S11649604EA0109501173000000000000
B0612493156141S11649586EA0110101174000000000000
B0612533156136S11649528EA0109801172000000000000
B0612573156085S11649498EA0110001178000000000000
B0613013156026S11649498EA0110801185000000000000
B0613053155983S11649554EA0111101184000000000000
B0613093155977S11649628EA0111201187000000000000
B0613133156024S11649671EA0111401187000000000000
B0613173156084S11649664EA0111101184000000000000
B0613213156088S11649603EA0111001181000000000000
B0613253156031S11649582EA0110801183000000000000
B0613293155975S11649624EA0111001186000000000000
B0613333155927S11649682EA0111201189000000000000
B0613373155910S11649755EA0111701194000000000000
B0613413155937S11649820EA0111701189000000000000
B0613453155981S11649875EA0110701174000000000000
B0613493156033S11649928EA0108701153000000000000
B0613533156091S11649983EA0106901135000000000000
B0613573156152S11650039EA0104901118000000000000
B0614013156213S11650092EA0104301116000000000000
B0614053156271S11650139EA0105601133000000000000
B0614093156334S11650167EA0106401144000000000000
B0614133156390S11650141EA0107701156000000000000
B0614173156383S11650083EA0108601162000000000000
B0614213156336S11650067EA0109201170000000000000
B0614253156300S11650115EA0109901176000000000000
B0614293156301S11650180EA0111001189000000000000
B0614333156338S11650232EA0111601192000000000000
B0614373156397S11650243EA0111601189000000000000
B0614413156447S11650195EA0111101185000000000000
B0614453156435S11650133EA0112101203000000000000
B0614493156390S11650137EA0112901205000000000000
B0614533156373S11650198EA0112901210000000000000
B0614573156410S11650253EA0113701220000000000000
B0615013156470S11650247EA0114301218000000000000
B0615053156501S11650189EA0114401223000000000000
B0615093156483S11650135EA0115401236000000000000
B0615133156439S11650123EA0116001235000000000000
B0615173156401S11650165EA0115701234000000000000
B0615213156403S11650232EA0116101242000000000000
B0615253156445S11650278EA0117101248000000000000
B0615293156504S11650270EA0117201248000000000000
B0615333156544S11650219EA0117101247000000000000
B0615373156531S11650161EA0117201254000000000000
B0615413156483S11650162EA0117801255000000000000
B0615453156453S11650219EA0117701260000000000000
B0615493156462S11650287EA0119001274000000000000
B0615533156513S11650318EA0119601268000000000000
B0615573156570S11650287EA0118901267000000000000
B0616013156583S11650228EA0119401271000000000000
B0616053156548S11650192EA0119301268000000000000
B0616093156496S11650209EA0118801266000000000000
B0616133156443S11650240EA0119101271000000000000
B0616173156421S11650304EA0119901279000000000000
B0616213156456S11650360EA0120201272000000000000
B0616253156513S11650401EA0118201247000000000000
B0616293156579S11650444EA0116101228000000000000
B0616333156651S11650487EA0114401214000000000000
B0616373156728S11650530EA0113501205000000000000
B0616413156804S11650556EA0114801236000000000000
B0616453156829S11650497EA0118701270000000000000
B0616493156770S11650473EA0120601285000000000000
B0616533156728S11650526EA0121601295000000000000
B0616573156751S11650588EA0123201316000000000000
B0617013156799S11650595EA0125201330000000000000
B0617053156826S11650546EA0125801334000000000000
B0617093156803S11650484EA0126501349000000000000
B0617133156744S11650466EA0127801361000000000000
B0617173156692S11650500EA0129101372000000000000
B0617213156677S11650566EA0129901375000000000000
B0617253156703S11650629EA0129901368000000000000
B0617293156760S11650647EA0129901379000000000000
B0617333156806S11650609EA0130801385000000000000
B0617373156809S11650538EA0131401393000000000000
B0617413156760S11650492EA0133101414000000000000
B0617453156698S11650500EA0134701428000000000000
B0617493156660S11650552EA0135501433000000000000
B0617533156664S11650621EA0135501431000000000000
B0617573156703S11650661EA0136101446000000000000
B0618013156747S11650650EA0137501451000000000000
B0618053156774S11650596EA0137201450000000000000
B0618093156759S11650529EA0137901466000000000000
B0618133156707S11650496EA0140101484000000000000
B0618173156648S11650516EA0140701485000000000000
B0618213156614S11650577EA0140701482000000000000
B0618253156627S11650648EA0140301473000000000000
B0618293156676S11650689EA0139501474000000000000
B0618333156734S11650702EA0140001480000000000000
B0618373156796S11650700EA0140101478000000000000
B0618413156863S11650686EA0140301484000000000000
B0618453156925S11650659EA0141301493000000000000
B0618493156943S11650590EA0142501511000000000000
B0618533156903S11650549EA0144001518000000000000
B0618573156845S11650559EA0143201506000000000000
B0619013156794S11650611EA0143101511000000000000
B0619053156767S11650681EA0144401526000000000000
B0619093156790S11650737EA0145801537000000000000
B0619133156841S11650759EA0145701530000000000000
B0619173156900S11650783EA0144601516000000000000
B0619213156969S11650815EA0143201505000000000000
B0619253157041S11650850EA0143701521000000000000
B0619293157110S11650841EA0146201552000000000000
B0619333157129S11650782EA0149001572000000000000
B0619373157092S11650741EA0149401567000000000000
B0619413157036S11650763EA0148901566000000000000
B0619453157010S11650828EA0149801582000000000000
B0619493157056S11650872EA0151801606000000000000
B0619533157107S11650833EA0153601619000000000000
B0619573157092S11650767EA0154301622000000000000
B0620013157036S11650751EA0154501627000000000000
B0620053156988S11650786EA0154701625000000000000
B0620093156977S11650855EA0154701633000000000000
B0620133157011S11650916EA0155501642000000000000
B0620173157069S11650951EA0156801661000000000000
B0620213157128S11650939EA0158801675000000000000
B0620253157149S11650880EA0159901686000000000000
B0620293157112S11650829EA0160801691000000000000
B0620333157055S11650832EA0161101693000000000000
B0620373157014S11650885EA0161901706000000000000
B0620413157037S11650947EA0164101732000000000000
B0620453157097S11650956EA0165901747000000000000
B0620493157140S11650910EA0167301759000000000000
B0620533157134S11650846EA0168101769000000000000
B0620573157089S11650808EA0168701770000000000000
B0621013157037S11650821EA0168801772000000000000
B0621053157010S11650876EA0169301778000000000000
B0621093157024S11650941EA0170101788000000000000
B0621133157073S11650985EA0171301801000000000000
B0621173157133S11650973EA0172601814000000000000
B0621213157154S11650911EA0173301814000000000000
B0621253157124S11650850EA0173101814000000000000
B0621293157069S11650817EA0173401817000000000000
B0621333157016S11650838EA0174001822000000000000
B0621373156989S11650895EA0173601815000000000000
B0621413157011S11650963EA0173501822000000000000
B0621453157063S11651014EA0174201828000000000000
B0621493157127S11651050EA0174901834000000000000
B0621533157196S11651079EA0174701829000000000000
B0621573157270S11651107EA0173701815000000000000
B0622013157349S11651138EA0172301800000000000000
B0622053157430S11651171EA0171501789000000000000
B0622093157510S11651206EA0170401779000000000000
B0622133157592S11651242EA0169801773000000000000
B0622173157675S11651280EA0168601759000000000000
B0622213157758S11651320EA0167601751000000000000
B0622253157843S11651359EA0166901741000000000000
B0622293157925S11651400EA0166201735000000000000
B0622333158007S11651439EA0165601728000000000000
B0622373158089S11651475EA0164701719000000000000
B0622413158169S11651517EA0163701710000000000000
B0622453158250S11651560EA0163301709000000000000
B0622493158327S11651605EA0163301708000000000000
B0622533158401S11651649EA0163001705000000000000
B0622573158473S11651697EA0162401695000000000000
B0623013158546S11651748EA0161601690000000000000
B0623053158618S11651797EA0161101684000000000000
B0623093158688S11651849EA0160801683000000000000
B0623133158758S11651899EA0160801682000000000000
B0623173158828S11651947EA0160001670000000000000
B0623213158901S11651992EA0158501654000000000000
B0623253158975S11652037EA0157401649000000000000
B0623293159043S11652085EA0157501651000000000000
B0623333159105S11652132EA0157301644000000000000
B0623373159173S11652177EA0155901626000000000000
B0623413159244S11652223EA0154401614000000000000
B0623453159317S11652267EA0153401604000000000000
B0623493159393S11652310EA0152701599000000000000
B0623533159467S11652353EA0151801586000000000000
B0623573159542S11652397EA0150801578000000000000
B0624013159615S11652444EA0150101570000000000000
B0624053159685S11652489EA0149401565000000000000
B0624093159755S11652535EA0148801559000000000000
B0624133159824S11652583EA0147901548000000000000
B0624173159896S11652629EA0147101543000000000000
B0624213159965S11652676EA0146701538000000000000
B0624253200032S11652724EA0146001534000000000000
B0624293200100S11652772EA0145601527000000000000
B0624333200166S11652819EA0145001523000000000000
B0624373200230S11652867EA0144401515000000000000
B0624413200295S11652914EA0143101502000000000000
B0624453200362S11652961EA0142401495000000000000
B0624493200430S11653005EA0141501485000000000000
B0624533200499S11653048EA0140601476000000000000
B0624573200566S11653091EA0139601466000000000000
B0625013200633S11653134EA0138601456000000000000
B0625053200700S11653177EA0137401444000000000000
B0625093200769S11653216EA0136201431000000000000
B0625133200841S11653255EA0134601413000000000000
B0625173200915S11653294EA0133401399000000000000
B0625213200990S11653339EA0131901383000000000000
B0625253201063S11653387EA0130201370000000000000
B0625293201137S11653435EA0129101354000000000000
B0625333201213S11653482EA0128001351000000000000
B0625373201285S11653523EA0128301356000000000000
B0625413201359S11653558EA0128801363000000000000
B0625453201435S11653571EA0129901374000000000000
B0625493201508S11653565EA0130901387000000000000
B0625533201577S11653545EA0132201401000000000000
B0625573201622S11653491EA0133501419000000000000
B0626013201595S11653429EA0135901452000000000000
B0626053201540S11653442EA0138301472000000000000
B0626093201523S11653506EA0140101483000000000000
B0626133201554S11653560EA0141301496000000000000
B0626173201608S11653565EA0142601506000000000000
B0626213201632S11653511EA0143901526000000000000
B0626253201605S11653458EA0146501553000000000000
B0626293201551S11653455EA0148201563000000000000
B0626333201510S11653508EA0148801570000000000000
B0626373201519S11653580EA0150101586000000000000
B0626413201569S11653611EA0151401601000000000000
B0626453201616S11653580EA0152501611000000000000
B0626493201612S11653516EA0154201636000000000000
B0626533201566S11653482EA0156601657000000000000
B0626573201513S11653508EA0158101667000000000000
B0627013201497S11653575EA0159301681000000000000
B0627053201535S11653620EA0160601694000000000000
B0627093201591S11653610EA0161801706000000000000
B0627133201609S11653554EA0164001731000000000000
B0627173201575S11653512EA0165801748000000000000
B0627213201522S11653526EA0166801752000000000000
B0627253201492S11653590EA0167101763000000000000
B0627293201514S11653655EA0168601779000000000000
B0627333201569S11653671EA0170201791000000000000
B0627373201606S11653624EA0171501807000000000000
B0627413201588S11653568EA0173401828000000000000
B0627453201538S11653554EA0175101840000000000000
B0627493201493S11653593EA0175801845000000000000
B0627533201479S11653663EA0176601860000000000000
B0627573201505S11653721EA0178301873000000000000
B0628013201558S11653738EA0179201884000000000000
B0628053201601S11653702EA0180101896000000000000
B0628093201601S11653643EA0181601911000000000000
B0628133201552S11653620EA0182901921000000000000
B0628173201504S11653659EA0183901930000000000000
B0628213201504S11653728EA0184801940000000000000
B0628253201547S11653772EA0185701948000000000000
B0628293201600S11653760EA0186601958000000000000
B0628333201623S11653707EA0187601967000000000000
B0628373201604S11653650EA0188401974000000000000
B0628413201551S11653630EA0188601973000000000000
B0628453201487S11653653EA0188401972000000000000
B0628493201449S11653714EA0189101985000000000000
B0628533201458S11653783EA0190301997000000000000
B0628573201502S11653822EA0191001999000000000000
B0629013201560S11653818EA0191302002000000000000
B0629053201606S11653775EA0191502006000000000000
B0629093201622S11653714EA0192902023000000000000
B0629133201605S11653658EA0193302020000000000000
B0629173201561S11653614EA0192702011000000000000
B0629213201502S11653588EA0192302006000000000000
B0629253201437S11653590EA0192102007000000000000
B0629293201384S11653638EA0191902002000000000000
B0629333201356S11653714EA0191302000000000000000
B0629373201346S11653794EA0191602004000000000000
B0629413201366S11653866EA0192202010000000000000
B0629453201408S11653920EA0192402013000000000000
B0629493201463S11653957EA0192902021000000000000
B0629533201522S11653987EA0193502026000000000000
B0629573201584S11654014EA0194102032000000000000
B0630013201649S11654043EA0194702037000000000000
B0630053201714S11654075EA0195302044000000000000
B0630093201781S11654106EA0195802047000000000000
B0630133201850S11654140EA0195802043000000000000
B0630173201920S11654179EA0195002034000000000000
B0630213201993S11654219EA0193502018000000000000
B0630253202068S11654262EA0192202006000000000000
B0630293202145S11654308EA0191401998000000000000
B0630333202224S11654353EA0190601993000000000000
B0630373202303S11654400EA0189901984000000000000
B0630413202385S11654449EA0188801971000000000000
B0630453202471S11654496EA0188201966000000000000
B0630493202561S11654540EA0187301949000000000000
B0630533202654S11654579EA0185301932000000000000
B0630573202747S11654618EA0184601927000000000000
B0631013202835S11654664EA0183901924000000000000
B0631053202917S11654713EA0184101927000000000000
B0631093202994S11654767EA0184401931000000000000
B0631133203069S11654819EA0184401930000000000000
B0631173203146S11654867EA0184501930000000000000
B0631213203224S11654914EA0184101925000000000000
B0631253203302S11654959EA0183901924000000000000
B0631293203378S11655005EA0183401913000000000000
B0631333203458S11655054EA0182301901000000000000
B0631373203541S11655106EA0181101890000000000000
B0631413203627S11655161EA0179901879000000000000
B0631453203714S11655216EA0179201873000000000000
B0631493203801S11655270EA0178801870000000000000
B0631533203887S11655323EA0178401865000000000000
B0631573203972S11655375EA0178001860000000000000
B0632013204056S11655430EA0177601856000000000000
B0632053204138S11655480EA0177401859000000000000
B0632093204217S11655523EA0177701858000000000000
B0632133204296S11655565EA0176801849000000000000
B0632173204378S11655605EA0176101842000000000000
B0632213204459S11655647EA0175201830000000000000
B0632253204542S11655688EA0173801818000000000000
B0632293204625S11655729EA0173101814000000000000
B0632333204707S11655768EA0173001810000000000000
B0632373204786S11655807EA0172701808000000000000
B0632413204866S11655848EA0172501807000000000000
B0632453204942S11655891EA0172401804000000000000
B0632493205020S11655934EA0171701797000000000000
B0632533205097S11655976EA0171101792000000000000
B0632573205175S11656020EA0170601789000000000000
B0633013205252S11656061EA0170501787000000000000
B0633053205327S11656103EA0170401787000000000000
B0633093205401S11656143EA0170201784000000000000
B0633133205471S11656180EA0170501792000000000000
B0633173205535S11656212EA0171501796000000000000
B0633213205597S11656246EA0171501793000000000000
B0633253205664S11656286EA0170901788000000000000
B0633293205731S11656327EA0170801788000000000000
B0633333205802S11656370EA0170801788000000000000
B0633373205870S11656411EA0171201794000000000000
B0633413205934S11656453EA0171601797000000000000
B0633453205998S11656492EA0171301789000000000000
B0633493206065S11656531EA0170601784000000000000
B0633533206137S11656568EA0170001774000000000000
B0633573206211S11656607EA0169501775000000000000
B0634013206285S11656646EA0169601773000000000000
B0634053206361S11656684EA0169201768000000000000
B0634093206435S11656723EA0168701761000000000000
B0634133206511S11656762EA0168201759000000000000
B0634173206588S11656800EA0168201759000000000000
B0634213206666S11656836EA0168001755000000000000
B0634253206744S11656874EA0167501751000000000000
B0634293206821S11656912EA0167001746000000000000
B0634333206900S11656948EA0166701741000000000000
B0634373206981S11656984EA0165901730000000000000
B0634413207066S11657020EA0165101725000000000000
B0634453207148S11657052EA0165301730000000000000
B0634493207230S11657085EA0164801719000000000000
B0634533207313S11657117EA0163401704000000000000
B0634573207397S11657148EA0162101692000000000000
B0635013207481S11657185EA0161301686000000000000
B0635053207564S11657224EA0160701676000000000000
B0635093207648S11657265EA0159301663000000000000
B0635133207732S11657308EA0158301652000000000000
B0635173207815S11657350EA0157301647000000000000
B0635213207896S11657382EA0157501650000000000000
B0635253207978S11657411EA0157101641000000000000
B0635293208060S11657442EA0156101635000000000000
B0635333208139S11657472EA0156001634000000000000
B0635373208221S11657501EA0155301624000000000000
B0635413208305S11657530EA0154701620000000000000
B0635453208390S11657556EA0154001612000000000000
B0635493208476S11657582EA0153201605000000000000
B0635533208560S11657615EA0152501598000000000000
B0635573208647S11657645EA0152901610000000000000
B0636013208725S11657628EA0154901635000000000000
B0636053208797S11657590EA0156201642000000000000
B0636093208829S11657519EA0157801666000000000000
B0636133208792S11657460EA0159301680000000000000
B0636173208733S11657471EA0160701694000000000000
B0636213208711S11657534EA0162201708000000000000
B0636253208745S11657588EA0163401721000000000000
B0636293208799S11657585EA0164401732000000000000
B0636333208831S11657528EA0165101735000000000000
B0636373208819S11657459EA0165301739000000000000
B0636413208771S11657417EA0165601742000000000000
B0636453208712S11657430EA0166201749000000000000
B0636493208675S11657488EA0166201745000000000000
B0636533208668S11657563EA0166301752000000000000
B0636573208697S11657628EA0167801767000000000000
B0637013208753S11657616EA0168701774000000000000
B0637053208759S11657547EA0169101775000000000000
B0637093208714S11657495EA0169001776000000000000
B0637133208651S11657497EA0169501782000000000000
B0637173208598S11657532EA0169701779000000000000
B0637213208573S11657595EA0169501783000000000000
B0637253208571S11657670EA0170301792000000000000
B0637293208611S11657720EA0171401808000000000000
B0637333208655S11657693EA0173101821000000000000
B0637373208650S11657627EA0173501821000000000000
B0637413208598S11657589EA0174401835000000000000
B0637453208550S11657620EA0175901849000000000000
B0637493208551S11657685EA0176401851000000000000
B0637533208600S11657715EA0177101861000000000000
B0637573208646S11657680EA0177901869000000000000
B0638013208651S11657612EA0178701875000000000000
B0638053208616S11657555EA0179201880000000000000
B0638093208558S11657543EA0179701885000000000000
B0638133208503S11657563EA0179801873000000000000
B0638173208472S11657624EA0177401848000000000000
B0638213208495S11657690EA0175701843000000000000
B0638253208547S11657728EA0176701858000000000000
B0638293208604S11657733EA0178301872000000000000
B0638333208650S11657697EA0179201879000000000000
B0638373208691S11657650EA0179701888000000000000
B0638413208701S11657585EA0180401891000000000000
B0638453208660S11657537EA0180101883000000000000
B0638493208600S11657534EA0179501879000000000000
B0638533208559S11657582EA0179001876000000000000
B0638573208564S11657650EA0179201881000000000000
B0639013208602S11657699EA0179901888000000000000
B0639053208655S11657718EA0180501893000000000000
B0639093208714S11657727EA0180301890000000000000
B0639133208776S11657738EA0180301891000000000000
B0639173208841S11657748EA0180601895000000000000
B0639213208910S11657758EA0181201902000000000000
B0639253208979S11657770EA0181701905000000000000
B0639293209049S11657784EA0181901906000000000000
B0639333209118S11657802EA0182001905000000000000
B0639373209189S11657816EA0181301896000000000000
B0639413209263S11657835EA0180501888000000000000
B0639453209336S11657854EA0180301888000000000000
B0639493209408S11657875EA0180001880000000000000
B0639533209483S11657896EA0178601865000000000000
B0639573209564S11657920EA0177101850000000000000
B0640013209646S11657946EA0175701836000000000000
B0640053209730S11657980EA0174601826000000000000
B0640093209816S11658017EA0173601819000000000000
B0640133209903S11658048EA0173501819000000000000
B0640173209988S11658078EA0174101819000000000000
B0640213210069S11658108EA0173801813000000000000
B0640253210153S11658136EA0172901802000000000000
B0640293210236S11658170EA0172001794000000000000
B0640333210319S11658201EA0171601791000000000000
B0640373210401S11658230EA0170901786000000000000
B0640413210482S11658256EA0170701784000000000000
B0640453210565S11658277EA0170001771000000000000
B0640493210647S11658297EA0169101768000000000000
B0640533210730S11658322EA0168701761000000000000
B0640573210810S11658355EA0168001755000000000000
B0641013210894S11658390EA0167001742000000000000
B0641053210978S11658421EA0165601729000000000000
B0641093211063S11658450EA0165401732000000000000
B0641133211145S11658485EA0166001740000000000000
B0641173211224S11658518EA0167401756000000000000
B0641213211299S11658530EA0169001770000000000000
B0641253211346S11658482EA0169601774000000000000
B0641293211333S11658412EA0169701780000000000000
B0641333211278S11658378EA0170501793000000000000
B0641373211219S11658394EA0171801806000000000000
B0641413211174S11658444EA0173101816000000000000
B0641453211181S11658522EA0174201829000000000000
B0641493211230S11658567EA0175201836000000000000
B0641533211281S11658552EA0176201845000000000000
B0641573211303S11658505EA0176201844000000000000
B0642013211285S11658452EA0176401847000000000000
B0642053211232S11658437EA0176801855000000000000
B0642093211174S11658446EA0177601868000000000000
B0642133211128S11658483EA0179201882000000000000
B0642173211125S11658551EA0180101886000000000000
B0642213211171S11658595EA0180601892000000000000
B0642253211220S11658581EA0181501902000000015000
B0642293211232S11658528EA0182001907000000015000
B0642333211203S11658482EA0182701915000000015000
B0642373211148S11658476EA0183601925000000015000
B0642413211099S11658512EA0184301930000000015000
B0642453211070S11658574EA0184901938000000000000
B0642493211067S11658646EA0185301936000000000000
B0642533211099S11658707EA0184801936000000000000
B0642573211154S11658730EA0185501944000000000000
B0643013211207S11658724EA0186301953000000000000
B0643053211245S11658685EA0186901956000000000000
B0643093211247S11658625EA0187001957000000000000
B0643133211215S11658572EA0187101958000000000000
B0643173211159S11658554EA0187501965000000000000
B0643213211106S11658591EA0188301972000000000000
B0643253211090S11658664EA0188601968000000015000
B0643293211120S11658736EA0188201968000000015000
B0643333211173S11658788EA0188301971000000000000
B0643373211237S11658824EA0189201982000000000000
B0643413211301S11658836EA0189801977000000000000
B0643453211371S11658840EA0187601945000000000000
B0643493211457S11658845EA0184701919000000000000
B0643533211553S11658855EA0182601898000000000000
B0643573211652S11658875EA0181501894000000000000
B0644013211748S11658898EA0181601896000000000000
B0644053211840S11658921EA0181801899000000000000
B0644093211928S11658941EA0182201904000000000000
B0644133212014S11658959EA0182401902000000000000
B0644173212099S11658980EA0181501895000000000000
B0644213212183S11659003EA0181501901000000000000
B0644253212266S11659027EA0181801902000000000000
B0644293212346S11659049EA0182001905000000000000
B0644333212422S11659077EA0182701913000000000000
B0644373212499S11659107EA0183201915000000000000
B0644413212577S11659133EA0182801909000000000000
B0644453212658S11659158EA0182401904000000000000
B0644493212740S11659181EA0181901901000000000000
B0644533212822S11659206EA0181501896000000000000
B0644573212905S11659232EA0181501897000000000000
B0645013212987S11659262EA0180801886000000000000
B0645053213072S11659292EA0179901879000000000000
B0645093213157S11659318EA0179601877000000000000
B0645133213241S11659345EA0179201872000000000000
B0645173213326S11659373EA0178401863000000000000
B0645213213412S11659400EA0177601854000000000000
B0645253213500S11659428EA0176801845000000000000
B0645293213587S11659461EA0176201837000000000000
B0645333213674S11659495EA0174901824000000000000
B0645373213765S11659527EA0173801815000000000000
B0645413213855S11659556EA0173301810000000000000
B0645453213946S11659583EA0172601804000000000000
B0645493214038S11659607EA0172101799000000000000
B0645533214131S11659626EA0171501794000000000000
B0645573214223S11659644EA0170901786000000000000
B0646013214317S11659662EA0170401783000000000000
B0646053214408S11659681EA0170301783000000000000
B0646093214496S11659700EA0170301783000000000000
B0646133214580S11659721EA0169801777000000000000
B0646173214665S11659743EA0169001767000000000000
B0646213214749S11659772EA0168301762000000000000
B0646253214833S11659803EA0167901758000000000000
B0646293214915S11659837EA0167301748000000000000
B0646333214995S11659873EA0166301737000000000000
B0646373215076S11659911EA0164901724000000000000
B0646413215156S11659950EA0163701710000000000000
B0646453215238S11659989EA0162901707000000000000
B0646493215318S11700023EA0163101710000000000000
B0646533215396S11700055EA0163001708000000000000
B0646573215474S11700081EA0162701705000000000000
B0647013215550S11700107EA0162201695000000000000
B0647053215631S11700134EA0160701682000000000000
B0647093215714S11700156EA0159901673000000000000
B0647133215799S11700173EA0159001665000000000000
B0647173215883S11700186EA0158201655000000000000
B0647213215969S11700202EA0156801638000000000000
B0647253216057S11700216EA0155201624000000000000
B0647293216144S11700231EA0154401621000000000000
B0647333216229S11700244EA0154201619000000000000
B0647373216309S11700258EA0153701611000000000000
B0647413216393S11700273EA0152701599000000000000
B0647453216476S11700290EA0151601589000000000000
B0647493216559S11700307EA0150801583000000000000
B0647533216640S11700323EA0150501583000000000000
B0647573216715S11700337EA0150901588000000000000
B0648013216789S11700351EA0150501577000000000000
B0648053216866S11700371EA0149001558000000000000
B0648093216944S11700393EA0147501547000000000000
B0648133217023S11700415EA0146401536000000000000
B0648173217104S11700435EA0145301524000000000000
B0648213217184S11700453EA0144301518000000000000
B0648253217265S11700472EA0143601510000000000000
B0648293217346S11700493EA0143001507000000000000
B0648333217425S11700513EA0142801503000000000000
B0648373217503S11700532EA0142301497000000000000
B0648413217582S11700549EA0141601490000000000000
B0648453217661S11700563EA0141001482000000000000
B0648493217741S11700580EA0139901471000000000000
B0648533217820S11700600EA0138601458000000000000
B0648573217897S11700622EA0137701452000000000000
B0649013217972S11700649EA0137301448000000000000
B0649053218046S11700680EA0136401436000000000000
B0649093218122S11700714EA0135201425000000000000
B0649133218198S11700748EA0134501420000000000000
B0649173218275S11700780EA0134201417000000000000
B0649213218352S11700812EA0133701411000000000000
B0649253218431S11700843EA0133201404000000000000
B0649293218510S11700873EA0132301394000000000000
B0649333218590S11700901EA0131401383000000000000
B0649373218670S11700927EA0130201372000000000000
B0649413218752S11700952EA0129201364000000000000
B0649453218833S11700977EA0128501357000000000000
B0649493218912S11701000EA0127701348000000000000
B0649533218990S11701021EA0126901341000000000000
B0649573219068S11701043EA0126201331000000000000
B0650013219146S11701065EA0125201321000000000000
B0650053219225S11701087EA0124001311000000000000
B0650093219305S11701105EA0123301303000000000000
B0650133219384S11701121EA0122701297000000000000
B0650173219461S11701122EA0122301297000000000000
B0650213219532S11701111EA0122501297000000000000
B0650253219604S11701092EA0122101290000000000000
B0650293219670S11701057EA0122001293000000000000
B0650333219727S11701007EA0122301297000000000000
B0650373219782S11700952EA0121801288000000000000
B0650413219834S11700891EA0121201284000000000000
B0650453219871S11700817EA0120901281000000000000
B0650493219900S11700736EA0120501276000000000000
B0650533219873S11700667EA0122501306000000000000
B0650573219817S11700686EA0124101314000000000000
B0651013219796S11700757EA0123001297000000000000
B0651053219827S11700827EA0122301297000000015000
B0651093219888S11700844EA0122501299000000015000
B0651133219936S11700803EA0122301296000000015000
B0651173219934S11700732EA0122201296000000015000
B0651213219883S11700684EA0122001293000000015000
B0651253219813S11700682EA0121901290000000015000
B0651293219743S11700706EA0120901280000000015000
B0651333219692S11700769EA0119901270000000015000
B0651373219650S11700847EA0119001265000000015000
B0651413219615S11700930EA0118101253000000015000
B0651453219601S11701021EA0117401243000000015000
B0651493219617S11701108EA0116401233000000015000
B0651533219656S11701185EA0115401223000000015000
B0651573219710S11701248EA0114501216000000000000
B0652013219774S11701307EA0113801210000000000000
B0652053219845S11701355EA0113401204000000000000
B0652093219923S11701390EA0112401195000000000000
B0652133220003S11701411EA0111701186000000000000
B0652173220083S11701420EA0110601176000000000000
B0652213220164S11701428EA0109701164000000000000
B0652253220246S11701434EA0108601152000000000000
B0652293220328S11701442EA0107601143000000000000
B0652333220410S11701443EA0107101139000000000000
B0652373220490S11701437EA0106501134000000000000
B0652413220570S11701430EA0105801127000000000000
B0652453220650S11701419EA0105501125000000000000
B0652493220731S11701407EA0106201137000000000000
B0652533220801S11701372EA0107601153000000000000
B0652573220797S11701307EA0109901181000000000000
B0653013220749S11701311EA0111501187000000000000
B0653053220726S11701372EA0111001176000000015000
B0653093220755S11701440EA0110101174000000015000
B0653133220814S11701433EA0111101191000000015000
B0653173220822S11701376EA0112201198000000015000
B0653213220775S11701352EA0112401196000000015000
B0653253220732S11701402EA0112001194000000015000
B0653293220741S11701473EA0112001194000000015000
B0653333220797S11701506EA0112801203000000015000
B0653373220831S11701455EA0113701212000000030000
B0653413220801S11701408EA0113801213000000030000
B0653453220746S11701427EA0113901212000000015000
B0653493220724S11701492EA0113801211000000015000
B0653533220746S11701563EA0113901215000000015000
B0653573220801S11701583EA0114801229000000015000
B0654013220809S11701521EA0115601230000000030000
B0654053220758S11701502EA0116001241000000030000
B0654093220722S11701554EA0117001251000000015000
B0654133220739S11701624EA0117801255000000015000
B0654173220796S11701649EA0118601263000000015000
B0654213220844S11701610EA0119001261000000030000
B0654253220848S11701541EA0118601259000000030000
B0654293220801S11701506EA0118801266000000030000
B0654333220746S11701531EA0119701272000000030000
B0654373220720S11701599EA0120101277000000015000
B0654413220761S11701653EA0121601295000000030000
B0654453220800S11701616EA0122501300000000030000
B0654493220776S11701563EA0122601299000000030000
B0654533220716S11701579EA0123201311000000030000
B0654573220705S11701653EA0124001317000000015000
B0655013220758S11701694EA0124701327000000015000
B0655053220806S11701659EA0125701333000000030000
B0655093220807S11701596EA0126001335000000030000
B0655133220758S11701568EA0126501343000000030000
B0655173220709S11701614EA0126801340000000030000
B0655213220718S11701696EA0126501340000000015000
B0655253220780S11701716EA0127901363000000015000
B0655293220815S11701672EA0129301371000000030000
B0655333220797S11701616EA0129501374000000015000
B0655373220741S11701615EA0130001378000000015000
B0655413220705S11701675EA0130101377000000015000
B0655453220716S11701752EA0130301386000000015000
B0655493220770S11701794EA0131201389000000015000
B0655533220827S11701772EA0131201385000000015000
B0655573220853S11701707EA0130601381000000015000
B0656013220827S11701648EA0131101388000000030000
B0656053220767S11701636EA0131701392000000015000
B0656093220709S11701670EA0131401387000000015000
B0656133220667S11701736EA0130901383000000015000
B0656173220667S11701820EA0130901390000000015000
B0656213220688S11701902EA0131701395000000015000
B0656253220741S11701943EA0132601402000000015000
B0656293220788S11701901EA0132701398000000015000
B0656333220787S11701826EA0132201394000000015000
B0656373220731S11701794EA0132901413000000015000
B0656413220689S11701848EA0134301420000000015000
B0656453220714S11701921EA0134401421000000015000
B0656493220776S11701941EA0134801423000000015000
B0656533220830S11701906EA0134701417000000015000
B0656573220854S11701839EA0133901409000000015000
B0657013220817S11701788EA0134301423000000030000
B0657053220758S11701805EA0134901420000000015000
B0657093220716S11701875EA0134001411000000030000
B0657133220690S11701963EA0133901417000000015000
B0657173220729S11702021EA0135501437000000015000
B0657213220780S11701996EA0135601431000000030000
B0657253220785S11701928EA0135001423000000030000
B0657293220729S11701900EA0135001428000000030000
B0657333220681S11701956EA0135701440000000015000
B0657373220688S11702031EA0136601447000000015000
B0657413220737S11702073EA0136801444000000015000
B0657453220798S11702064EA0136101433000000015000
B0657493220848S11702015EA0135001421000000015000
B0657533220895S11701958EA0134401420000000015000
B0657573220952S11701911EA0134201413000000015000
B0658013221022S11701879EA0133001402000000015000
B0658053221095S11701852EA0132401398000000015000
B0658093221169S11701826EA0131901390000000015000
B0658133221244S11701800EA0131501390000000000000
B0658173221316S11701771EA0132401405000000000000
B0658213221374S11701735EA0133801416000000000000
B0658253221426S11701692EA0134101414000000000000
B0658293221477S11701644EA0133501407000000000000
B0658333221528S11701593EA0133201408000000000000
B0658373221572S11701541EA0133601410000000000000
B0658413221613S11701484EA0133101405000000000000
B0658453221642S11701417EA0132401396000000000000
B0658493221646S11701341EA0131901395000000000000
B0658533221645S11701263EA0131701389000000000000
B0658573221626S11701185EA0131401389000000000000
B0659013221580S11701126EA0131901397000000000000
B0659053221526S11701073EA0132201398000000000000
B0659093221493S11701001EA0132501401000000015000
B0659133221485S11700923EA0132801401000000015000
B0659173221465S11700853EA0133301406000000015000
B0659213221408S11700843EA0134201415000000015000
B0659253221369S11700907EA0133601404000000015000
B0659293221387S11700988EA0132801396000000015000
B0659333221441S11701050EA0132301392000000015000
B0659373221507S11701066EA0132301394000000015000
B0659413221565S11701035EA0132101390000000015000
B0659453221619S11700988EA0131601384000000015000
B0659493221652S11700920EA0130501373000000015000
B0659533221650S11700840EA0129301360000000015000
B0659573221612S11700769EA0128501358000000015000
B0700013221552S11700725EA0128801363000000015000
B0700053221483S11700699EA0128301355000000015000
B0700093221407S11700683EA0127501343000000015000
B0700133221326S11700675EA0126701335000000015000
B0700173221242S11700673EA0126501339000000000000
B0700213221158S11700673EA0126201332000000000000
B0700253221071S11700674EA0124901318000000000000
B0700293220987S11700676EA0124601321000000000000
B0700333220906S11700682EA0124501316000000000000
B0700373220826S11700689EA0123901310000000000000
B0700413220746S11700695EA0123701308000000000000
B0700453220668S11700700EA0123401304000000000000
B0700493220593S11700700EA0122601295000000000000
B0700533220518S11700701EA0121401281000000000000
B0700573220441S11700701EA0119901265000000000000
B0701013220364S11700704EA0118401251000000000000
B0701053220287S11700706EA0117001239000000000000
B0701093220209S11700708EA0116001227000000000000
B0701133220133S11700708EA0115201222000000000000
B0701173220056S11700708EA0114801216000000000000
B0701213219979S11700704EA0114601218000000000000
B0701253219936S11700656EA0115301234000000000000
B0701293219962S11700614EA0117501263000000000000
B0701333220013S11700624EA0118901261000000015000
B0701373220052S11700689EA0118501262000000015000
B0701413220040S11700769EA0118701263000000015000
B0701453219987S11700806EA0118801267000000030000
B0701493219938S11700793EA0118701264000000030000
B0701533219918S11700741EA0118101260000000015000
B0701573219926S11700678EA0117901256000000015000
B0702013219914S11700615EA0118701267000000015000
B0702053219856S11700621EA0120201281000000015000
B0702093219845S11700699EA0121101287000000015000
B0702133219901S11700735EA0121301287000000015000
B0702173219943S11700697EA0121401295000000030000
B0702213219926S11700641EA0122401297000000015000
B0702253219865S11700631EA0122601296000000015000
B0702293219806S11700687EA0122601300000000015000
B0702333219817S11700771EA0123801319000000015000
B0702373219875S11700797EA0125001325000000015000
B0702413219917S11700758EA0125201327000000030000
B0702453219896S11700704EA0125801334000000030000
B0702493219838S11700699EA0126301336000000015000
B0702533219786S11700756EA0126501338000000015000
B0702573219795S11700842EA0127501355000000015000
B0703013219845S11700888EA0128701365000000015000
B0703053219900S11700878EA0129001364000000015000
B0703093219918S11700823EA0128901363000000015000
B0703133219888S11700770EA0129301371000000015000
B0703173219826S11700761EA0129901376000000015000
B0703213219762S11700803EA0130301380000000015000
B0703253219728S11700882EA0130901388000000015000
B0703293219736S11700970EA0131901401000000015000
B0703333219780S11701035EA0132801404000000015000
B0703373219843S11701055EA0132701402000000015000
B0703413219897S11701024EA0132401399000000015000
B0703453219916S11700959EA0132401400000000015000
B0703493219886S11700903EA0132801409000000015000
B0703533219825S11700881EA0133601413000000015000
B0703573219753S11700905EA0133801416000000015000
B0704013219704S11700975EA0134501426000000015000
B0704053219697S11701069EA0135601439000000015000
B0704093219732S11701147EA0136501444000000015000
B0704133219797S11701181EA0136301438000000015000
B0704173219860S11701160EA0136201439000000015000
B0704213219899S11701109EA0136401443000000015000
B0704253219895S11701044EA0136601444000000000000
B0704293219843S11701009EA0136601447000000015000
B0704333219774S11701029EA0137101449000000015000
B0704373219730S11701105EA0137401452000000015000
B0704413219740S11701199EA0137901461000000015000
B0704453219792S11701263EA0138401463000000015000
B0704493219858S11701272EA0138501464000000015000
B0704533219904S11701226EA0138301460000000015000
B0704573219910S11701159EA0138001457000000015000
B0705013219883S11701096EA0137901457000000015000
B0705053219830S11701052EA0137901455000000000000
B0705093219764S11701022EA0137701452000000000000
B0705133219688S11701013EA0138401467000000000000
B0705173219639S11701073EA0140101480000000000000
B0705213219673S11701143EA0141001489000000000000
B0705253219734S11701143EA0141501492000000015000
B0705293219762S11701087EA0142001502000000015000
B0705333219739S11701029EA0143701522000000015000
B0705373219683S11701012EA0145301536000000015000
B0705413219628S11701050EA0146601550000000015000
B0705453219605S11701121EA0147901560000000015000
B0705493219619S11701196EA0148401565000000015000
B0705533219669S11701245EA0148501564000000015000
B0705573219730S11701246EA0148401565000000015000
B0706013219783S11701213EA0148801569000000015000
B0706053219793S11701154EA0149601581000000015000
B0706093219754S11701116EA0150801589000000015000
B0706133219697S11701134EA0151801597000000015000
B0706173219669S11701204EA0152701606000000015000
B0706213219689S11701280EA0153101606000000015000
B0706253219749S11701315EA0153001609000000015000
B0706293219806S11701300EA0153601615000000015000
B0706333219838S11701254EA0153801615000000015000
B0706373219823S11701194EA0153401613000000015000
B0706413219777S11701154EA0153001605000000015000
B0706453219712S11701130EA0152301599000000000000
B0706493219640S11701113EA0152201604000000000000
B0706533219565S11701103EA0152801609000000000000
B0706573219487S11701091EA0153401619000000000000
B0707013219407S11701083EA0154501629000000000000
B0707053219327S11701074EA0155101631000000000000
B0707093219244S11701066EA0154501619000000000000
B0707133219156S11701055EA0153301606000000000000
B0707173219069S11701040EA0152501604000000000000
B0707213218982S11701029EA0151801592000000000000
B0707253218895S11701018EA0150901586000000000000
B0707293218812S11701007EA0150501582000000000000
B0707333218731S11700995EA0150201577000000000000
B0707373218653S11700983EA0149801574000000000000
B0707413218577S11700972EA0149501573000000000000
B0707453218504S11700960EA0149301570000000000000
B0707493218435S11700946EA0149001567000000000000
B0707533218367S11700931EA0148401559000000000000
B0707573218298S11700916EA0147401547000000000000
B0708013218228S11700897EA0146101534000000000000
B0708053218157S11700882EA0145501531000000000000
B0708093218085S11700864EA0145401531000000000000
B0708133218016S11700842EA0145401531000000000000
B0708173217950S11700819EA0145301528000000000000
B0708213217885S11700796EA0144701522000000000000
B0708253217816S11700775EA0143801510000000000000
B0708293217745S11700754EA0142801502000000000000
B0708333217672S11700734EA0141801491000000000000
B0708373217599S11700710EA0140501477000000000000
B0708413217525S11700687EA0139301466000000000000
B0708453217451S11700666EA0138601462000000000000
B0708493217379S11700645EA0137901452000000000000
B0708533217307S11700624EA0137101446000000000000
B0708573217235S11700601EA0136701442000000000000
B0709013217164S11700579EA0136101434000000000000
B0709053217091S11700557EA0135401427000000000000
B0709093217018S11700536EA0134801422000000000000
B0709133216948S11700514EA0134301418000000000000
B0709173216881S11700491EA0133701411000000000000
B0709213216816S11700468EA0132801403000000000000
B0709253216754S11700448EA0132701400000000000000
B0709293216693S11700427EA0132401398000000000000
B0709333216633S11700400EA0132601402000000000000
B0709373216576S11700372EA0132101392000000000000
B0709413216517S11700344EA0130501375000000000000
B0709453216456S11700312EA0129801371000000000000
B0709493216393S11700280EA0129701372000000000000
B0709533216326S11700251EA0129801376000000000000
B0709573216260S11700227EA0130601385000000000000
B0710013216192S11700208EA0131701394000000000000
B0710053216125S11700237EA0132701408000000000000
B0710093216095S11700312EA0134401435000000000000
B0710133216107S11700387EA0136801452000000000000
B0710173216156S11700423EA0137601455000000000000
B0710213216209S11700411EA0137901459000000000000
B0710253216242S11700363EA0138301462000000000000
B0710293216244S11700299EA0139301473000000000000
B0710333216213S11700251EA0140801488000000000000
B0710373216157S11700238EA0141501491000000000000
B0710413216095S11700270EA0141801494000000000000
B0710453216057S11700344EA0142401511000000000000
B0710493216064S11700426EA0144301529000000000000
B0710533216108S11700481EA0145801541000000000000
B0710573216166S11700488EA0146801552000000000000
B0711013216204S11700450EA0148101565000000000000
B0711053216216S11700396EA0149301574000000000000
B0711093216194S11700342EA0149901579000000000000
B0711133216138S11700320EA0150401587000000000000
B0711173216075S11700354EA0151301594000000000000
B0711213216055S11700433EA0152101610000000000000
B0711253216090S11700501EA0153801626000000000000
B0711293216148S11700507EA0155101635000000000000
B0711333216182S11700457EA0156001643000000000000
B0711373216174S11700394EA0156801650000000000000
B0711413216135S11700345EA0158201666000000000000
B0711453216078S11700325EA0159201675000000000000
B0711493216018S11700359EA0160701691000000000000
B0711533215988S11700428EA0162101704000000000000
B0711573216000S11700500EA0163301718000000000000
B0712013216042S11700554EA0163701717000000000000
B0712053216100S11700570EA0164001722000000000000
B0712093216151S11700537EA0164701730000000000000
B0712133216174S11700480EA0165601740000000000000
B0712173216156S11700418EA0166501748000000000000
B0712213216105S11700377EA0166701749000000000000
B0712253216036S11700385EA0167101754000000000000
B0712293215981S11700439EA0167601757000000000000
B0712333215960S11700524EA0168001764000000000000
B0712373215983S11700604EA0169301778000000000000
B0712413216035S11700653EA0169601779000000000000
B0712453216096S11700665EA0170001786000000000000
B0712493216146S11700640EA0170801797000000000000
B0712533216165S11700588EA0171501803000000000000
B0712573216143S11700531EA0172401812000000000000
B0713013216091S11700502EA0173301819000000000000
B0713053216031S11700522EA0173901823000000000000
B0713093215997S11700587EA0174001821000000000000
B0713133216010S11700665EA0174101825000000000000
B0713173216052S11700725EA0174401827000000000000
B0713213216109S11700754EA0174401827000000000000
B0713253216170S11700757EA0174901838000000000000
B0713293216221S11700727EA0175901842000000000000
B0713333216252S11700673EA0176601853000000000000
B0713373216254S11700609EA0177701865000000000000
B0713413216212S11700566EA0178601873000000000000
B0713453216153S11700552EA0178501865000000000000
B0713493216087S11700543EA0178301865000000000000
B0713533216017S11700532EA0178201864000000000000
B0713573215942S11700522EA0178301864000000000000
B0714013215866S11700506EA0178101860000000000000
B0714053215793S11700481EA0177901854000000000000
B0714093215718S11700452EA0176601837000000000000
B0714133215637S11700422EA0174601819000000000000
B0714173215555S11700393EA0173201805000000000000
B0714213215474S11700368EA0171701797000000000000
B0714253215394S11700344EA0171101795000000000000
B0714293215316S11700323EA0171301797000000000000
B0714333215238S11700306EA0171501799000000000000
B0714373215162S11700290EA0172001808000000000000
B0714413215086S11700281EA0172501807000000000000
B0714453215009S11700267EA0171901798000000000000
B0714493214930S11700246EA0171001789000000000000
B0714533214850S11700224EA0170101781000000000000
B0714573214770S11700203EA0169801781000000000000
B0715013214695S11700180EA0169401776000000000000
B0715053214619S11700155EA0168601767000000000000
