ACAM4N6
HFDTE060915
HFFXA050
HFPLTPILOT:JOHN WELSH              
HFGTYGLIDERTYPE:HORNET      
HFGIDGLIDERID:VH-GMY      
HFDTM100GPSDATUM:
HFRFWFIRMWAREVERSION:F2.6
HFRHWHARDWAREVERSION:300 Series Version 2
HFFTYFRTYPE:CAMBRIDGE AERO INSTRUMENTS, 302+
HFGPS:GARMIN,LVS-25,12,18000
HFPRSPRESSALTSENSOR:INTERSEMA, MS5534-AP, 20000
I033638FXA3941ENL4247REX
LCAMSBVER:5FWVER:F26300
C050415050137050415000102
C0000000N00000000WTAKEOFF     
C3207549S11656849EBEVAIR      
C3123325S11712260EWATRCRRN    
C3212499S11757329EBILBARIN    
C3207549S11656849EBEVAIR      
C0000000N00000000WLANDING     
B0347123207339S11656858EA0009200215000000000000
B0347143207339S11656858EA0009200215000000000000
B0347163207339S11656858EA0009200215000000000000
B0347183207339S11656858EA0009300215000000000000
B0347203207339S11656858EA0009300215000000000000
B0347223207339S11656858EA0009300215000000000000
B0347243207339S11656858EA0009300215000000000000
B0347263207339S11656858EA0009300215000000000000
B0347283207339S11656858EA0009300215000000000000
B0347303207339S11656858EA0009200215000000000000
B0347323207339S11656858EA0009200215000000000000
B0347343207339S11656858EA0009200215000000000000
B0347363207339S11656858EA0009200215000000000000
B0347383207339S11656858EA0009100215000000000000
B0347403207341S11656860EA0009200215000000000000
B0347453207355S11656873EA0009200214000000000000
B0347493207385S11656896EA0009100215000000000000
B0347533207432S11656925EA0009200214000000000000
B0347573207490S11656962EA0009000214000000000000
B0348013207557S11657004EA0009300217000000000000
B0348053207627S11657047EA0009900224000000000000
B0348093207693S11657088EA0011700245000000000000
B0348133207759S11657131EA0013300262000000000000
B0348173207820S11657178EA0014900278000000000000
B0348213207880S11657225EA0016700298000000000000
B0348253207939S11657274EA0018500313000000000000
B0348293207995S11657328EA0020500335000000000000
B0348333208049S11657380EA0022600358000000000000
B0348373208105S11657434EA0024600374000000000000
B0348413208157S11657493EA0026200387000000000000
B0348453208205S11657556EA0027300399000000000000
B0348493208248S11657627EA0028700416000000000000
B0348533208285S11657701EA0030700434000000000000
B0348573208313S11657779EA0032400455000000000000
B0349013208334S11657861EA0034700476000000000000
B0349053208351S11657945EA0037100501000000000000
B0349093208363S11658032EA0039500523000000000000
B0349133208372S11658119EA0042300552000000000000
B0349173208378S11658205EA0045000576000000000000
B0349213208381S11658290EA0047300599000000000000
B0349253208379S11658375EA0049300612000000000000
B0349293208372S11658460EA0050500627000000000000
B0349333208357S11658547EA0051600636000000000000
B0349373208339S11658630EA0053100650000000000000
B0349413208320S11658712EA0053900661000000000000
B0349453208298S11658793EA0055100673000000000000
B0349493208275S11658875EA0056500688000000000000
B0349533208256S11658958EA0058600711000000000000
B0349573208234S11659041EA0060400725000000000000
B0350013208213S11659126EA0062100742000000000000
B0350053208192S11659209EA0063700756000000000000
B0350093208171S11659288EA0065500775000000000000
B0350133208153S11659365EA0067200790000000000000
B0350173208135S11659439EA0069000809000000000000
B0350213208139S11659509EA0069600809000000000000
B0350253208164S11659575EA0069100808000000000000
B0350293208188S11659635EA0069400807000000000000
B0350333208210S11659695EA0068900799000000000000
B0350373208233S11659757EA0068100792000000000000
B0350413208257S11659820EA0067300785000000000000
B0350453208281S11659882EA0066800778000000000000
B0350493208307S11659946EA0065800770000000000000
B0350533208334S11700008EA0065300765000000000000
B0350573208365S11700069EA0064900760000000000000
B0351013208396S11700130EA0064200753000000000000
B0351053208431S11700189EA0063500747000000000000
B0351093208465S11700247EA0063000745000000000000
B0351133208499S11700306EA0062900742000000000000
B0351173208535S11700364EA0062400737000000000000
B0351213208574S11700422EA0061900733000000000000
B0351253208613S11700478EA0061400728000000000000
B0351293208649S11700540EA0060700720000000000000
B0351333208676S11700611EA0060100715000000000000
B0351373208703S11700683EA0060300719000000000000
B0351413208749S11700739EA0060700720000000000000
B0351453208810S11700748EA0060700720000000000000
B0351493208862S11700709EA0060300716000000000000
B0351533208877S11700631EA0060100713000000000000
B0351573208844S11700565EA0059800714000000000000
B0352013208790S11700528EA0060000712000000000000
B0352053208736S11700548EA0060400718000000000000
B0352093208746S11700605EA0060900723000000000000
B0352133208799S11700598EA0060700718000000000000
B0352173208814S11700530EA0060600721000000000000
B0352213208773S11700483EA0060800721000000000000
B0352253208727S11700509EA0060700723000000000000
B0352293208740S11700570EA0061200725000000000000
B0352333208795S11700576EA0061100725000000000000
B0352373208825S11700517EA0061200726000000000000
B0352413208792S11700465EA0061400730000000000000
B0352453208749S11700497EA0062000731000000000000
B0352493208772S11700556EA0061800732000000000000
B0352533208828S11700544EA0062300738000000000000
B0352573208838S11700478EA0062400738000000000000
B0353013208792S11700457EA0062800741000000000000
B0353053208784S11700511EA0062600737000000000000
B0353093208834S11700533EA0062600741000000000000
B0353133208879S11700496EA0063200745000000000000
B0353173208880S11700432EA0062700738000000000000
B0353213208834S11700392EA0062800741000000000000
B0353253208803S11700435EA0063000740000000000000
B0353293208847S11700475EA0062700741000000000000
B0353333208894S11700433EA0063600748000000000000
B0353373208868S11700376EA0063200744000000000000
B0353413208818S11700402EA0063500750000000000000
B0353453208834S11700459EA0064500758000000000000
B0353493208892S11700454EA0064600759000000000000
B0353533208918S11700390EA0064900761000000000000
B0353573208888S11700333EA0065200767000000000000
B0354013208837S11700348EA0065500765000000000000
B0354053208836S11700413EA0065500769000000000000
B0354093208888S11700429EA0066400775000000000000
B0354133208928S11700372EA0065600766000000000000
B0354173208906S11700298EA0065300768000000000000
B0354213208846S11700267EA0065700770000000000000
B0354253208790S11700296EA0066100776000000000000
B0354293208779S11700366EA0066800781000000000000
B0354333208824S11700403EA0067500795000000000000
B0354373208864S11700363EA0068900802000000000000
B0354413208855S11700297EA0068400800000000000000
B0354453208801S11700290EA0068600802000000000000
B0354493208788S11700353EA0068900804000000000000
B0354533208840S11700380EA0069300810000000000000
B0354573208877S11700327EA0070300818000000000000
B0355013208851S11700267EA0070700822000000000000
B0355053208799S11700275EA0071300831000000000000
B0355093208793S11700333EA0072200837000000000000
B0355133208838S11700363EA0072300840000000000000
B0355173208881S11700323EA0072900843000000000000
B0355213208871S11700255EA0072900845000000000000
B0355253208819S11700234EA0073400850000000000000
B0355293208788S11700281EA0073700854000000000000
B0355333208814S11700336EA0073900857000000000000
B0355373208867S11700327EA0074900867000000000000
B0355413208881S11700264EA0075300869000000000000
B0355453208842S11700220EA0075500872000000000000
B0355493208797S11700242EA0075500874000000000000
B0355533208805S11700301EA0075900875000000000000
B0355573208859S11700310EA0076300881000000000000
B0356013208889S11700257EA0077300888000000000000
B0356053208868S11700195EA0077100884000000000000
B0356093208815S11700181EA0076800882000000000000
B0356133208780S11700228EA0076900885000000000000
B0356173208785S11700296EA0077200888000000000000
B0356213208836S11700329EA0077100884000000000000
B0356253208886S11700293EA0077400894000000000000
B0356293208866S11700231EA0077800893000000000000
B0356333208811S11700244EA0077800896000000000000
B0356373208812S11700310EA0078100898000000000000
B0356413208866S11700338EA0078600903000000000000
B0356453208915S11700298EA0078900906000000000000
B0356493208907S11700228EA0078900903000000000000
B0356533208854S11700194EA0078400900000000000000
B0356573208799S11700212EA0078900910000000000000
B0357013208781S11700272EA0079500913000000000000
B0357053208814S11700324EA0079700915000000000000
B0357093208870S11700310EA0080200922000000000000
B0357133208877S11700244EA0080800927000000000000
B0357173208825S11700212EA0080800924000000000000
B0357213208790S11700260EA0081300929000000000000
B0357253208816S11700324EA0081100928000000000000
B0357293208873S11700319EA0082300940000000000000
B0357333208894S11700253EA0082500943000000000000
B0357373208854S11700205EA0083200947000000000000
B0357413208803S11700220EA0083600953000000000000
B0357453208785S11700280EA0083800952000000000000
B0357493208818S11700336EA0084200959000000000000
B0357533208870S11700320EA0085000966000000000000
B0357573208879S11700255EA0084800963000000000000
B0358013208834S11700216EA0084800966000000000000
B0358053208793S11700249EA0085100965000000000000
B0358093208797S11700314EA0085000966000000000000
B0358133208841S11700358EA0085700974000000000000
B0358173208897S11700345EA0086200977000000000000
B0358213208922S11700281EA0085700971000000000000
B0358253208907S11700206EA0084700963000000000000
B0358293208877S11700129EA0083800954000000000000
B0358333208842S11700051EA0083300949000000000000
B0358373208802S11659974EA0082900945000000000000
B0358413208759S11659900EA0082600943000000000000
B0358453208715S11659829EA0082500942000000000000
B0358493208667S11659759EA0082200939000000000000
B0358533208602S11659738EA0083500955000000000000
B0358573208576S11659800EA0084500960000000000000
B0359013208616S11659846EA0085100967000000000000
B0359053208664S11659824EA0085400967000000000000
B0359093208676S11659760EA0085300966000000000000
B0359133208655S11659694EA0085100965000000000000
B0359173208608S11659657EA0085500971000000000000
B0359213208559S11659681EA0085900969000000000000
B0359253208554S11659747EA0085200964000000000000
B0359293208598S11659779EA0085200969000000000000
B0359333208641S11659746EA0085600970000000000000
B0359373208645S11659682EA0085500969000000000000
B0359413208621S11659620EA0085000963000000000000
B0359453208587S11659557EA0084500957000000000000
B0359493208550S11659493EA0083800950000000000000
B0359533208500S11659435EA0083300949000000000000
B0359573208446S11659380EA0083300948000000000000
B0400013208391S11659330EA0083500949000000000000
B0400053208335S11659282EA0083000941000000000000
B0400093208274S11659235EA0082100935000000000000
B0400133208210S11659193EA0081600930000000000000
B0400173208147S11659155EA0081000926000000000000
B0400213208084S11659124EA0080800921000000000000
B0400253208019S11659094EA0079900911000000000000
B0400293207956S11659061EA0078600899000000000000
B0400333207889S11659028EA0077800892000000000000
B0400373207824S11658992EA0077100881000000000000
B0400413207761S11658954EA0076000871000000000000
B0400453207696S11658914EA0074600858000000000000
B0400493207631S11658869EA0073500850000000000000
B0400533207570S11658820EA0072800843000000000000
B0400573207514S11658769EA0072000833000000000000
B0401013207454S11658719EA0070700818000000000000
B0401053207393S11658669EA0069300810000000000000
B0401093207333S11658621EA0069100809000000000000
B0401133207274S11658576EA0069200808000000000000
B0401173207215S11658535EA0069000804000000000000
B0401213207152S11658495EA0068600803000000000000
B0401253207095S11658452EA0069300808000000000000
B0401293207038S11658416EA0069800813000000000000
B0401333206982S11658435EA0070200817000000000000
B0401373206981S11658499EA0070200814000000000000
B0401413207031S11658522EA0069700808000000000000
B0401453207072S11658476EA0069300808000000000000
B0401493207079S11658403EA0069100805000000000000
B0401533207064S11658330EA0068800805000000000000
B0401573207013S11658304EA0069500811000000000000
B0402013206994S11658361EA0069500808000000000000
B0402053207039S11658394EA0069300807000000000000
B0402093207083S11658357EA0069500810000000000000
B0402133207092S11658291EA0069400806000000000000
B0402173207066S11658227EA0069700813000000000000
B0402213207013S11658223EA0070300816000000000000
B0402253206996S11658286EA0070700822000000000000
B0402293207038S11658325EA0070900824000000000000
B0402333207086S11658294EA0071000827000000000000
B0402373207086S11658227EA0071500834000000000000
B0402413207042S11658193EA0072400840000000000000
B0402453206999S11658227EA0072700842000000000000
B0402493206998S11658291EA0073300850000000000000
B0402533207038S11658327EA0073700851000000000000
B0402573207086S11658307EA0073700852000000000000
B0403013207100S11658245EA0073700852000000000000
B0403053207073S11658186EA0073900854000000000000
B0403093207021S11658186EA0074700861000000000000
B0403133207004S11658245EA0075400870000000000000
B0403173207042S11658290EA0075800872000000000000
B0403213207091S11658268EA0076000874000000000000
B0403253207098S11658201EA0076400880000000000000
B0403293207051S11658169EA0076900887000000000000
B0403333207012S11658206EA0077400890000000000000
B0403373207029S11658269EA0077700893000000000000
B0403413207085S11658277EA0077900897000000000000
B0403453207107S11658214EA0078200899000000000000
B0403493207063S11658170EA0078500906000000000000
B0403533207017S11658206EA0079300914000000000000
B0403573207033S11658270EA0080000919000000000000
B0404013207086S11658279EA0080400924000000000000
B0404053207118S11658225EA0080700927000000000000
B0404093207096S11658161EA0081500936000000000000
B0404133207043S11658149EA0082500944000000000000
B0404173207013S11658199EA0083200948000000000000
B0404213207037S11658255EA0083400950000000000000
B0404253207091S11658242EA0083300949000000000000
B0404293207095S11658173EA0083900957000000000000
B0404333207040S11658151EA0084700967000000000000
B0404373207012S11658206EA0085900981000000000000
B0404413207051S11658245EA0086800985000000000000
B0404453207098S11658200EA0086300980000000000000
B0404493207086S11658126EA0086600986000000000000
B0404533207030S11658109EA0088101003000000000000
B0404573207001S11658161EA0089601021000000000000
B0405013207029S11658210EA0090901028000000000000
B0405053207081S11658208EA0091201027000000000000
B0405093207108S11658149EA0091201032000000000000
B0405133207079S11658091EA0092101038000000000000
B0405173207026S11658087EA0092701047000000000000
B0405213207004S11658145EA0093901058000000000000
B0405253207042S11658190EA0094801064000000000000
B0405293207091S11658162EA0095201069000000000000
B0405333207089S11658093EA0095201071000000000000
B0405373207037S11658063EA0095901079000000000000
B0405413206999S11658108EA0097201094000000000000
B0405453207017S11658167EA0098501105000000000000
B0405493207068S11658170EA0099301110000000000000
B0405533207092S11658112EA0099401110000000000000
B0405573207059S11658057EA0099501112000000000000
B0406013207005S11658073EA0100101121000000000000
B0406053207011S11658138EA0100701126000000000000
B0406093207064S11658147EA0101601134000000000000
B0406133207098S11658095EA0102001140000000000000
B0406173207076S11658035EA0102701143000000000000
B0406213207021S11658030EA0102801143000000000000
B0406253206988S11658086EA0102901145000000000000
B0406293207016S11658140EA0104101157000000000000
B0406333207068S11658127EA0104501159000000000000
B0406373207085S11658060EA0104101154000000000000
B0406413207050S11657998EA0104201159000000000000
B0406453206991S11657983EA0104901163000000000000
B0406493206939S11658013EA0105101164000000000000
B0406533206925S11658079EA0105401167000000000000
B0406573206960S11658132EA0105901173000000000000
B0407013207011S11658115EA0106801183000000000000
B0407053207012S11658052EA0106901184000000000000
B0407093206962S11658018EA0107701191000000000000
B0407133206909S11658041EA0107901191000000000000
B0407173206899S11658109EA0107601186000000000000
B0407213206943S11658157EA0107801190000000000000
B0407253207003S11658151EA0108501197000000000000
B0407293207039S11658095EA0108601199000000000000
B0407333207040S11658023EA0109001204000000000000
B0407373207004S11657969EA0110101216000000000000
B0407413206952S11657983EA0111201219000000000000
B0407453206947S11658049EA0110601213000000000000
B0407493206994S11658092EA0110901219000000000000
B0407533207050S11658082EA0111401223000000000000
B0407573207085S11658027EA0111801226000000000000
B0408013207078S11657956EA0111801226000000000000
B0408053207031S11657906EA0112101230000000000000
B0408093206969S11657905EA0112501235000000000000
B0408133206935S11657959EA0112701234000000000000
B0408173206962S11658019EA0112601231000000000000
B0408213207024S11658018EA0112701236000000000000
B0408253207051S11657958EA0114001252000000000000
B0408293207024S11657901EA0114401254000000000000
B0408333206966S11657887EA0114601254000000000000
B0408373206920S11657926EA0114801256000000000000
B0408413206923S11657992EA0114601252000000000000
B0408453206972S11658030EA0114901256000000000000
B0408493207027S11658011EA0115101259000000000000
B0408533207055S11657949EA0115301263000000000000
B0408573207043S11657878EA0115501264000000000000
B0409013206995S11657833EA0115801268000000000000
B0409053206938S11657849EA0116401271000000000000
B0409093206910S11657911EA0116201267000000000000
B0409133206939S11657975EA0115501262000000000000
B0409173207000S11657993EA0115001257000000000000
B0409213207063S11657961EA0115101260000000000000
B0409253207104S11657894EA0115301262000000000000
B0409293207120S11657813EA0115401263000000000000
B0409333207115S11657727EA0115101255000000000000
B0409373207103S11657638EA0113501238000000000000
B0409413207099S11657541EA0111901224000000000000
B0409453207104S11657441EA0111301219000000000000
B0409493207113S11657347EA0111301221000000000000
B0409533207128S11657259EA0111201217000000000000
B0409573207151S11657174EA0110601209000000000000
B0410013207190S11657098EA0109901205000000000000
B0410053207239S11657034EA0110001208000000000000
B0410093207295S11656983EA0110101206000000000000
B0410133207358S11656943EA0109701200000000000000
B0410173207427S11656918EA0108801196000000000000
B0410213207497S11656909EA0109001197000000000000
B0410253207566S11656914EA0108901195000000000000
B0410293207635S11656930EA0108601192000000000000
B0410333207702S11656945EA0108601190000000000000
B0410373207771S11656958EA0108301188000000000000
B0410413207839S11656968EA0108101186000000000000
B0410453207904S11656953EA0108401189000000000000
B0410493207947S11656904EA0109201196000000000000
B0410533207963S11656838EA0109401194000000000000
B0410573207943S11656776EA0109001191000000000000
B0411013207891S11656749EA0108801191000000000000
B0411053207831S11656757EA0108501190000000000000
B0411093207770S11656776EA0108401189000000000000
B0411133207710S11656801EA0108501191000000000000
B0411173207653S11656821EA0108401193000000000000
B0411213207594S11656835EA0108401189000000000000
B0411253207533S11656848EA0107401176000000000000
B0411293207469S11656860EA0106701172000000000000
B0411333207406S11656871EA0106401167000000000000
B0411373207345S11656897EA0105801160000000000000
B0411413207295S11656947EA0104801153000000000000
B0411453207259S11657010EA0104901156000000000000
B0411493207235S11657079EA0104901153000000000000
B0411533207217S11657151EA0104201144000000000000
B0411573207196S11657224EA0103401138000000000000
B0412013207174S11657295EA0103001133000000000000
B0412053207151S11657369EA0102201126000000000000
B0412093207129S11657445EA0101401121000000000000
B0412133207107S11657517EA0101301117000000000000
B0412173207083S11657589EA0100501109000000000000
B0412213207059S11657662EA0099801100000000000000
B0412253207034S11657738EA0098901092000000000000
B0412293207009S11657816EA0098501092000000000000
B0412333206987S11657892EA0098801098000000000000
B0412373206969S11657961EA0100101111000000000000
B0412413206956S11658027EA0101301119000000000000
B0412453206975S11658088EA0101901124000000000000
B0412493207030S11658102EA0102001125000000000000
B0412533207069S11658052EA0101701123000000000000
B0412573207052S11657984EA0101601126000000000000
B0413013206999S11657958EA0101801126000000000000
B0413053206938S11657976EA0101301118000000000000
B0413093206874S11658014EA0100101107000000000000
B0413133206809S11658057EA0099701108000000000000
B0413173206744S11658097EA0101001123000000000000
B0413213206692S11658149EA0102401132000000000000
B0413253206702S11658219EA0103501140000000000000
B0413293206765S11658218EA0104201152000000000000
B0413333206787S11658157EA0105301166000000000000
B0413373206748S11658109EA0105501168000000000000
B0413413206693S11658100EA0106201177000000000000
B0413453206652S11658131EA0107501189000000000000
B0413493206652S11658187EA0108101188000000000000
B0413533206705S11658206EA0108201194000000000000
B0413573206744S11658162EA0109201201000000000000
B0414013206730S11658097EA0109001198000000000000
B0414053206676S11658065EA0109401206000000000000
B0414093206619S11658073EA0110701216000000000000
B0414133206587S11658117EA0111901229000000000000
B0414173206608S11658166EA0112101226000000000000
B0414213206663S11658171EA0111901229000000000000
B0414253206701S11658125EA0113001242000000000000
B0414293206692S11658060EA0113701246000000000000
B0414333206644S11658024EA0114101249000000000000
B0414373206596S11658041EA0114701255000000000000
B0414413206595S11658097EA0114701248000000000000
B0414453206648S11658117EA0114601252000000000000
B0414493206689S11658070EA0115401261000000000000
B0414533206679S11658001EA0115901266000000000000
B0414573206628S11657965EA0115801263000000000000
B0415013206576S11657985EA0115501258000000000000
B0415053206541S11658041EA0115101261000000000000
B0415093206498S11658084EA0115701270000000000000
B0415133206450S11658112EA0116001267000000000000
B0415173206396S11658139EA0115201258000000000000
B0415213206337S11658167EA0114501255000000000000
B0415253206283S11658197EA0114601253000000000000
B0415293206225S11658234EA0113601244000000000000
B0415333206162S11658273EA0112701235000000000000
B0415373206091S11658310EA0112701237000000000000
B0415413206025S11658349EA0113101241000000000000
B0415453205977S11658407EA0113201233000000000000
B0415493205981S11658481EA0112701230000000000000
B0415533206034S11658502EA0112801231000000000000
B0415573206080S11658452EA0111601217000000000000
B0416013206121S11658372EA0109501201000000000000
B0416053206166S11658291EA0109601208000000000000
B0416093206208S11658217EA0110801217000000000000
B0416133206229S11658136EA0111801226000000000000
B0416173206215S11658052EA0112301230000000000000
B0416213206168S11657988EA0112401232000000000000
B0416253206108S11657970EA0113101243000000000000
B0416293206064S11658005EA0113401237000000000000
B0416333206047S11658074EA0112001225000000000000
B0416373206037S11658152EA0111701229000000000000
B0416413206029S11658226EA0112401231000000000000
B0416453206033S11658300EA0112201229000000000000
B0416493206067S11658349EA0113001238000000000000
B0416533206117S11658340EA0113201238000000000000
B0416573206146S11658279EA0112801235000000000000
B0417013206133S11658199EA0112101228000000000000
B0417053206093S11658117EA0110501210000000000000
B0417093206030S11658043EA0109401204000000000000
B0417133205955S11658001EA0110801219000000000000
B0417173205881S11657995EA0112101229000000000000
B0417213205850S11658050EA0112201220000000000000
B0417253205886S11658101EA0109501199000000000000
B0417293205947S11658089EA0108701193000000000000
B0417333206012S11658062EA0106901176000000000000
B0417373206084S11658032EA0106701178000000000000
B0417413206155S11658005EA0106901177000000000000
B0417453206224S11657976EA0106901181000000000000
B0417493206270S11657918EA0108101190000000000000
B0417533206257S11657841EA0108401186000000000000
B0417573206199S11657813EA0107701181000000000000
B0418013206150S11657844EA0106801173000000000000
B0418053206140S11657909EA0106101166000000000000
B0418093206176S11657961EA0105401160000000000000
B0418133206238S11657979EA0104701154000000000000
B0418173206309S11657979EA0104101151000000000000
B0418213206377S11657975EA0103901152000000000000
B0418253206444S11657969EA0104101149000000000000
B0418293206513S11657954EA0103601145000000000000
B0418333206582S11657933EA0103701148000000000000
B0418373206631S11657880EA0104901161000000000000
B0418413206618S11657806EA0105901165000000000000
B0418453206557S11657780EA0105201158000000000000
B0418493206496S11657816EA0104601151000000000000
B0418533206439S11657863EA0104201152000000000000
B0418573206380S11657911EA0104001148000000000000
B0419013206323S11657963EA0103401139000000000000
B0419053206262S11658018EA0102601138000000000000
B0419093206199S11658063EA0103701151000000000000
B0419133206136S11658097EA0104901160000000000000
B0419173206075S11658130EA0105101161000000000000
B0419213206011S11658162EA0104501151000000000000
B0419253205960S11658214EA0104901157000000000000
B0419293205978S11658281EA0106001169000000000000
B0419333206038S11658287EA0106301167000000000000
B0419373206076S11658223EA0105601162000000000000
B0419413206072S11658136EA0105501160000000000000
B0419453206032S11658066EA0105301158000000000000
B0419493205967S11658040EA0104501145000000000000
B0419533205896S11658062EA0102701129000000000000
B0419573205833S11658112EA0100901113000000000000
B0420013205770S11658171EA0100001108000000000000
B0420053205711S11658230EA0100401113000000000000
B0420093205648S11658284EA0101001122000000000000
B0420133205603S11658344EA0102701136000000000000
B0420173205627S11658403EA0104101147000000000000
B0420213205682S11658392EA0103801138000000000000
B0420253205696S11658321EA0102501130000000000000
B0420293205659S11658253EA0102701135000000000000
B0420333205600S11658219EA0103201139000000000000
B0420373205542S11658236EA0103001133000000000000
B0420413205484S11658275EA0101101113000000000000
B0420453205422S11658321EA0099501097000000000000
B0420493205358S11658370EA0097901081000000000000
B0420533205292S11658424EA0096201066000000000000
B0420573205224S11658477EA0095401059000000000000
B0421013205159S11658526EA0095201060000000000000
B0421053205097S11658572EA0095201059000000000000
B0421093205036S11658617EA0094901054000000000000
B0421133204971S11658660EA0094701053000000000000
B0421173204906S11658698EA0095001054000000000000
B0421213204843S11658741EA0095101055000000000000
B0421253204788S11658790EA0095001060000000000000
B0421293204733S11658838EA0096201065000000000000
B0421333204733S11658902EA0096501068000000000000
B0421373204793S11658912EA0096001056000000000000
B0421413204825S11658849EA0095501061000000000000
B0421453204802S11658788EA0096501075000000000000
B0421493204749S11658768EA0097501081000000000000
B0421533204706S11658804EA0097801079000000000000
B0421573204711S11658867EA0097301073000000000000
B0422013204760S11658890EA0096401063000000000000
B0422053204812S11658859EA0095601058000000000000
B0422093204834S11658794EA0095601059000000000000
B0422133204830S11658724EA0095201054000000000000
B0422173204790S11658672EA0095101057000000000000
B0422213204730S11658661EA0095701059000000000000
B0422253204678S11658703EA0095501061000000000000
B0422293204682S11658765EA0095901063000000000000
B0422333204737S11658780EA0095101050000000000000
B0422373204803S11658755EA0093401038000000000000
B0422413204868S11658721EA0093301040000000000000
B0422453204931S11658686EA0093301039000000000000
B0422493204993S11658650EA0092801036000000000000
B0422533205055S11658609EA0092701034000000000000
B0422573205116S11658569EA0092301029000000000000
B0423013205179S11658528EA0092101026000000000000
B0423053205239S11658486EA0091401019000000000000
B0423093205298S11658447EA0090801010000000000000
B0423133205360S11658407EA0089500997000000000000
B0423173205422S11658364EA0088600990000000000000
B0423213205487S11658322EA0088600991000000000000
B0423253205552S11658284EA0088700993000000000000
B0423293205613S11658245EA0089501005000000000000
B0423333205655S11658195EA0091901031000000000000
B0423373205630S11658136EA0093601033000000000000
B0423413205571S11658144EA0092401022000000000000
B0423453205544S11658206EA0091901024000000000000
B0423493205565S11658270EA0092601033000000000000
B0423533205610S11658309EA0093201038000000000000
B0423573205664S11658297EA0093501042000000000000
B0424013205686S11658236EA0093301038000000000000
B0424053205659S11658170EA0092801032000000000000
B0424093205601S11658140EA0093201036000000000000
B0424133205542S11658156EA0092801030000000000000
B0424173205512S11658214EA0092501034000000000000
B0424213205535S11658273EA0092901035000000000000
B0424253205590S11658299EA0092001027000000000000
B0424293205652S11658292EA0091301020000000000000
B0424333205714S11658275EA0091401024000000000000
B0424373205776S11658258EA0091601022000000000000
B0424413205834S11658236EA0091501026000000000000
B0424453205891S11658210EA0091801025000000000000
B0424493205947S11658177EA0091401022000000000000
B0424533206003S11658135EA0091001016000000000000
B0424573206059S11658089EA0090401012000000000000
B0425013206115S11658045EA0091001024000000000000
B0425053206151S11657992EA0092701035000000000000
B0425093206124S11657933EA0093101032000000000000
B0425133206067S11657943EA0092601030000000000000
B0425173206063S11658002EA0093401040000000000000
B0425213206114S11658009EA0094101046000000000000
B0425253206136S11657948EA0094601050000000000000
B0425293206097S11657897EA0094301044000000000000
B0425333206039S11657907EA0094001045000000000000
B0425373206025S11657970EA0094001047000000000000
B0425413206071S11658009EA0094301050000000000000
B0425453206123S11657979EA0094801057000000000000
B0425493206132S11657910EA0095301061000000000000
B0425533206089S11657859EA0095501061000000000000
B0425573206029S11657863EA0095301059000000000000
B0426013205995S11657920EA0095301059000000000000
B0426053206023S11657979EA0095801064000000000000
B0426093206082S11657979EA0095101060000000000000
B0426133206134S11657927EA0095401068000000000000
B0426173206123S11657859EA0096701075000000000000
B0426213206063S11657853EA0096501075000000000000
B0426253206032S11657909EA0096901082000000000000
B0426293206056S11657967EA0097501084000000000000
B0426333206114S11657982EA0097501085000000000000
B0426373206162S11657935EA0098401096000000000000
B0426413206159S11657865EA0099101101000000000000
B0426453206112S11657818EA0099201102000000000000
B0426493206050S11657820EA0099201099000000000000
B0426533206010S11657875EA0099101100000000000000
B0426573206023S11657940EA0099701107000000000000
B0427013206075S11657967EA0099901106000000000000
B0427053206133S11657940EA0100001112000000000000
B0427093206156S11657876EA0101201122000000000000
B0427133206112S11657839EA0101601123000000000000
B0427173206071S11657878EA0101701128000000000000
B0427213206088S11657937EA0102601137000000000000
B0427253206143S11657944EA0103201144000000000000
B0427293206173S11657887EA0103401146000000000000
B0427333206141S11657831EA0103401146000000000000
B0427373206085S11657839EA0103901152000000000000
B0427413206058S11657894EA0104501158000000000000
B0427453206080S11657954EA0105401166000000000000
B0427493206132S11657979EA0106001172000000000000
B0427533206179S11657944EA0106201170000000000000
B0427573206181S11657872EA0105701167000000000000
B0428013206140S11657822EA0106201173000000000000
B0428053206085S11657806EA0106901179000000000000
B0428093206030S11657824EA0107201181000000000000
B0428133206004S11657883EA0107701189000000000000
B0428173206039S11657931EA0107901183000000000000
B0428213206099S11657915EA0107301184000000000000
B0428253206129S11657853EA0108301194000000000000
B0428293206123S11657784EA0108801197000000000000
B0428333206077S11657736EA0108901198000000000000
B0428373206020S11657732EA0109001197000000000000
B0428413205978S11657772EA0109301203000000000000
B0428453205971S11657833EA0110101209000000000000
B0428493205999S11657884EA0110101209000000000000
B0428533206052S11657893EA0110101206000000000000
B0428573206101S11657853EA0109701207000000000000
B0429013206117S11657783EA0110201210000000000000
B0429053206099S11657710EA0110401214000000000000
B0429093206051S11657666EA0111001219000000000000
B0429133205998S11657660EA0111001217000000000000
B0429173205954S11657690EA0111001219000000000000
B0429213205935S11657744EA0111701227000000000000
B0429253205946S11657796EA0111901225000000000000
B0429293205986S11657832EA0111101218000000000000
B0429333206041S11657840EA0110701216000000000000
B0429373206097S11657818EA0110101214000000000000
B0429413206149S11657776EA0110601219000000000000
B0429453206193S11657720EA0110701215000000000000
B0429493206224S11657645EA0109001198000000000000
B0429533206223S11657558EA0108001191000000000000
B0429573206189S11657481EA0107301183000000000000
B0430013206128S11657434EA0106801178000000000000
B0430053206060S11657430EA0106901178000000000000
B0430093206006S11657468EA0106601173000000000000
B0430133205973S11657532EA0105301159000000000000
B0430173205954S11657601EA0104601159000000000000
B0430213205928S11657667EA0105101162000000000000
B0430253205902S11657733EA0105101161000000000000
B0430293205874S11657800EA0104901159000000000000
B0430333205855S11657865EA0105001159000000000000
B0430373205844S11657935EA0104501154000000000000
B0430413205852S11658008EA0104201152000000000000
B0430453205882S11658076EA0103901147000000000000
B0430493205937S11658114EA0103801146000000000000
B0430533206000S11658104EA0103201141000000000000
B0430573206056S11658058EA0102501136000000000000
B0431013206102S11657998EA0102501137000000000000
B0431053206143S11657936EA0102401134000000000000
B0431093206185S11657871EA0101901126000000000000
B0431133206227S11657805EA0101101118000000000000
B0431173206268S11657736EA0100701116000000000000
B0431213206306S11657668EA0100401110000000000000
B0431253206337S11657597EA0099601102000000000000
B0431293206362S11657519EA0098301087000000000000
B0431333206387S11657437EA0096901076000000000000
B0431373206418S11657360EA0096401071000000000000
B0431413206452S11657290EA0096301071000000000000
B0431453206485S11657222EA0096301070000000000000
B0431493206519S11657155EA0096401070000000000000
B0431533206554S11657085EA0096201070000000000000
B0431573206585S11657014EA0096401073000000000000
B0432013206604S11656939EA0096901080000000000000
B0432053206585S11656869EA0097501083000000000000
B0432093206531S11656819EA0097001076000000000000
B0432133206462S11656814EA0097501080000000000000
B0432173206405S11656854EA0097301078000000000000
B0432213206368S11656919EA0096901074000000000000
B0432253206342S11656992EA0096501070000000000000
B0432293206315S11657062EA0096701077000000000000
B0432333206286S11657129EA0097401077000000000000
B0432373206255S11657203EA0096301066000000000000
B0432413206221S11657281EA0096001064000000000000
B0432453206186S11657361EA0095101055000000000000
B0432493206151S11657443EA0094701051000000000000
B0432533206116S11657520EA0094201046000000000000
B0432573206086S11657597EA0093901044000000000000
B0433013206059S11657671EA0094501053000000000000
B0433053206039S11657745EA0095001058000000000000
B0433093206025S11657819EA0095401057000000000000
B0433133206020S11657894EA0094901050000000000000
B0433173206038S11657969EA0094201041000000000000
B0433213206077S11658031EA0093201035000000000000
B0433253206127S11658082EA0092801031000000000000
B0433293206181S11658122EA0092501029000000000000
B0433333206240S11658156EA0091801020000000000000
B0433373206299S11658188EA0091301016000000000000
B0433413206359S11658217EA0090601008000000000000
B0433453206420S11658244EA0090201007000000000000
B0433493206480S11658269EA0090201006000000000000
B0433533206543S11658294EA0089701001000000000000
B0433573206606S11658316EA0089100992000000000000
B0434013206673S11658338EA0088000980000000000000
B0434053206741S11658352EA0087300973000000000000
B0434093206812S11658364EA0086900971000000000000
B0434133206879S11658373EA0086400966000000000000
B0434173206949S11658373EA0085500953000000000000
B0434213207025S11658370EA0084200941000000000000
B0434253207102S11658370EA0083700939000000000000
B0434293207176S11658373EA0083800938000000000000
B0434333207247S11658365EA0083100932000000000000
B0434373207315S11658349EA0082700927000000000000
B0434413207378S11658321EA0082000920000000000000
B0434453207440S11658288EA0081800921000000000000
B0434493207499S11658253EA0082000926000000000000
B0434533207534S11658193EA0083700943000000000000
B0434573207508S11658136EA0085000953000000000000
B0435013207449S11658139EA0084400946000000000000
B0435053207410S11658197EA0084800957000000000000
B0435093207415S11658260EA0086500972000000000000
B0435133207451S11658299EA0086400964000000000000
B0435173207508S11658291EA0085600963000000000000
B0435213207544S11658239EA0086700975000000000000
B0435253207538S11658171EA0086700972000000000000
B0435293207486S11658127EA0086500971000000000000
B0435333207424S11658149EA0086900978000000000000
B0435373207401S11658217EA0087900987000000000000
B0435413207427S11658281EA0088200987000000000000
B0435453207486S11658297EA0087700983000000000000
B0435493207537S11658253EA0088200993000000000000
B0435533207545S11658184EA0089101001000000000000
B0435573207502S11658134EA0089201001000000000000
B0436013207446S11658149EA0090101011000000000000
B0436053207432S11658209EA0091001019000000000000
B0436093207479S11658239EA0091201019000000000000
B0436133207519S11658196EA0091401028000000000000
B0436173207499S11658132EA0092301032000000000000
B0436213207441S11658121EA0092501034000000000000
B0436253207407S11658174EA0093201043000000000000
B0436293207429S11658231EA0093901047000000000000
B0436333207484S11658240EA0094101048000000000000
B0436373207523S11658195EA0094601055000000000000
B0436413207512S11658130EA0094401051000000000000
B0436453207453S11658108EA0094201049000000000000
B0436493207401S11658153EA0094901059000000000000
B0436533207402S11658221EA0096001071000000000000
B0436573207449S11658247EA0096801074000000000000
B0437013207489S11658204EA0096801077000000000000
B0437053207477S11658139EA0097201082000000000000
B0437093207425S11658109EA0097701086000000000000
B0437133207367S11658119EA0098301092000000000000
B0437173207337S11658169EA0099001099000000000000
B0437213207359S11658221EA0098601093000000000000
B0437253207412S11658227EA0098401093000000000000
B0437293207467S11658205EA0098301091000000000000
B0437333207508S11658161EA0098701097000000000000
B0437373207502S11658096EA0098901095000000000000
B0437413207451S11658056EA0098701095000000000000
B0437453207385S11658053EA0099301102000000000000
B0437493207326S11658080EA0100401116000000000000
B0437533207307S11658135EA0101601122000000000000
B0437573207337S11658182EA0100801113000000000000
B0438013207391S11658173EA0100501114000000000000
B0438053207419S11658113EA0101201124000000000000
B0438093207397S11658050EA0101901127000000000000
B0438133207339S11658040EA0102401133000000000000
B0438173207313S11658096EA0103001137000000000000
B0438213207343S11658145EA0103101135000000000000
B0438253207397S11658136EA0103101139000000000000
B0438293207419S11658076EA0104101148000000000000
B0438333207385S11658024EA0104101145000000000000
B0438373207324S11658032EA0103901146000000000000
B0438413207295S11658091EA0104601156000000000000
B0438453207315S11658145EA0105201155000000000000
B0438493207367S11658154EA0104401149000000000000
B0438533207414S11658110EA0104701155000000000000
B0438573207429S11658044EA0105301159000000000000
B0439013207395S11657982EA0105401159000000000000
B0439053207332S11657959EA0104901155000000000000
B0439093207259S11657970EA0103701140000000000000
B0439133207181S11657998EA0102501131000000000000
B0439173207103S11658035EA0102201130000000000000
B0439213207025S11658073EA0101901125000000000000
B0439253206948S11658109EA0101401122000000000000
B0439293206875S11658147EA0101001118000000000000
B0439333206801S11658179EA0100901115000000000000
B0439373206727S11658209EA0100701116000000000000
B0439413206658S11658238EA0101401124000000000000
B0439453206593S11658261EA0101901127000000000000
B0439493206524S11658283EA0101101115000000000000
B0439533206453S11658308EA0099901102000000000000
B0439573206381S11658336EA0099101092000000000000
B0440013206310S11658368EA0098401087000000000000
B0440053206241S11658401EA0097701081000000000000
B0440093206176S11658435EA0097301077000000000000
B0440133206112S11658465EA0097001074000000000000
B0440173206046S11658491EA0097301083000000000000
B0440213205981S11658513EA0098501092000000000000
B0440253205921S11658534EA0100001107000000000000
B0440293205860S11658551EA0100901115000000000000
B0440333205804S11658521EA0101501123000000000000
B0440373205794S11658451EA0102101125000000000000
B0440413205837S11658404EA0102001124000000000000
B0440453205894S11658408EA0102601132000000000000
B0440493205937S11658452EA0103601141000000000000
B0440533205952S11658517EA0104301148000000000000
B0440573205932S11658582EA0105001159000000000000
B0441013205878S11658617EA0106201170000000000000
B0441053205820S11658590EA0106801178000000000000
B0441093205792S11658520EA0107501181000000000000
B0441133205813S11658451EA0108101188000000000000
B0441173205864S11658426EA0109001198000000000000
B0441213205911S11658453EA0109501201000000000000
B0441253205928S11658518EA0109701205000000000000
B0441293205900S11658583EA0110701219000000000000
B0441333205843S11658612EA0112201234000000000000
B0441373205789S11658586EA0113101240000000000000
B0441413205765S11658521EA0113001237000000000000
B0441453205792S11658460EA0113101240000000000000
B0441493205848S11658448EA0113901249000000000000
B0441533205895S11658482EA0114401253000000000000
B0441573205907S11658550EA0115101265000000000000
B0442013205872S11658606EA0116401277000000000000
B0442053205813S11658607EA0117001283000000000000
B0442093205778S11658550EA0117301281000000000000
B0442133205787S11658478EA0117201283000000000000
B0442173205833S11658434EA0118001292000000000000
B0442213205887S11658439EA0118801295000000000000
B0442253205921S11658492EA0118901295000000000000
B0442293205900S11658556EA0119201304000000000000
B0442333205841S11658564EA0120301311000000000000
B0442373205800S11658511EA0120901315000000000000
B0442413205800S11658437EA0120901313000000000000
B0442453205841S11658362EA0118001280000000000000
B0442493205917S11658309EA0115401259000000000000
B0442533206010S11658274EA0114701252000000000000
B0442573206108S11658248EA0113801242000000000000
B0443013206205S11658222EA0112801238000000000000
B0443053206294S11658199EA0113101242000000000000
B0443093206377S11658179EA0113901246000000000000
B0443133206458S11658166EA0113601241000000000000
B0443173206535S11658156EA0114201253000000000000
B0443213206604S11658148EA0114801247000000000000
B0443253206674S11658140EA0113601236000000000000
B0443293206748S11658134EA0112801230000000000000
B0443333206823S11658126EA0111801219000000000000
B0443373206900S11658115EA0111201215000000000000
B0443413206975S11658105EA0110801209000000000000
B0443453207052S11658099EA0110101200000000000000
B0443493207130S11658095EA0109001190000000000000
B0443533207211S11658095EA0108101181000000000000
B0443573207291S11658097EA0107701178000000000000
B0444013207372S11658104EA0107401177000000000000
B0444053207453S11658117EA0107701182000000000000
B0444093207529S11658143EA0108101187000000000000
B0444133207588S11658199EA0109501201000000000000
B0444173207618S11658271EA0110101202000000000000
B0444213207611S11658357EA0109601194000000000000
B0444253207576S11658439EA0108801187000000000000
B0444293207531S11658517EA0107901176000000000000
B0444333207480S11658596EA0107001172000000000000
B0444373207430S11658674EA0106701170000000000000
B0444413207389S11658756EA0106901176000000000000
B0444453207355S11658836EA0107801181000000000000
B0444493207328S11658919EA0107101173000000000000
B0444533207303S11659005EA0106401165000000000000
B0444573207286S11659093EA0105801164000000000000
B0445013207271S11659179EA0105801164000000000000
B0445053207252S11659263EA0105101151000000000000
B0445093207229S11659349EA0103601138000000000000
B0445133207203S11659438EA0102801134000000000000
B0445173207180S11659523EA0103101137000000000000
B0445213207159S11659608EA0103501141000000000000
B0445253207144S11659690EA0103901144000000000000
B0445293207138S11659773EA0104501155000000000000
B0445333207131S11659856EA0105501162000000000000
B0445373207165S11659911EA0107001178000000000000
B0445413207217S11659891EA0107601176000000000000
B0445453207233S11659820EA0106501168000000000000
B0445493207195S11659757EA0106501171000000000000
B0445533207130S11659742EA0106801174000000000000
B0445573207072S11659779EA0107801188000000000000
B0446013207078S11659843EA0108901194000000000000
B0446053207130S11659859EA0108301182000000000000
B0446093207174S11659808EA0107401179000000000000
B0446133207180S11659730EA0107601182000000000000
B0446173207141S11659664EA0108201190000000000000
B0446213207079S11659655EA0108901200000000000000
B0446253207042S11659709EA0109701203000000000000
B0446293207050S11659778EA0109901207000000000000
B0446333207095S11659821EA0109901206000000000000
B0446373207152S11659809EA0109701204000000000000
B0446413207176S11659747EA0110101210000000000000
B0446453207139S11659690EA0110801219000000000000
B0446493207079S11659686EA0111601223000000000000
B0446533207035S11659730EA0111601226000000000000
B0446573207027S11659796EA0111701225000000000000
B0447013207051S11659860EA0111101216000000000000
B0447053207087S11659921EA0110001204000000000000
B0447093207137S11659974EA0109001194000000000000
B0447133207198S11700017EA0108701193000000000000
B0447173207261S11700051EA0109501204000000000000
B0447213207325S11700043EA0110601212000000000000
B0447253207371S11659990EA0109601200000000000000
B0447293207385S11659907EA0108601194000000000000
B0447333207386S11659820EA0108301188000000000000
B0447373207382S11659727EA0108101189000000000000
B0447413207375S11659635EA0108601193000000000000
B0447453207363S11659545EA0109201198000000000000
B0447493207349S11659454EA0108801190000000000000
B0447533207336S11659358EA0107701182000000000000
B0447573207320S11659269EA0108801201000000000000
B0448013207306S11659185EA0108801185000000000000
B0448053207291S11659096EA0106601164000000000000
B0448093207278S11659003EA0105401157000000000000
B0448133207271S11658911EA0104901154000000000000
B0448173207265S11658821EA0104501149000000000000
B0448213207256S11658730EA0104101147000000000000
B0448253207248S11658641EA0104201148000000000000
B0448293207239S11658554EA0103601142000000000000
B0448333207228S11658464EA0103101136000000000000
B0448373207217S11658374EA0103001137000000000000
B0448413207204S11658290EA0103601144000000000000
B0448453207185S11658208EA0103401136000000000000
B0448493207174S11658121EA0102401130000000000000
B0448533207177S11658035EA0103001140000000000000
B0448573207181S11657954EA0104301149000000000000
B0449013207147S11657893EA0104901155000000000000
B0449053207085S11657883EA0104701151000000000000
B0449093207016S11657902EA0103501142000000000000
B0449133206944S11657923EA0102901135000000000000
B0449173206871S11657945EA0102201127000000000000
B0449213206800S11657970EA0101101114000000000000
B0449253206725S11657997EA0099701104000000000000
B0449293206648S11658024EA0098901095000000000000
B0449333206572S11658050EA0098301092000000000000
B0449373206500S11658078EA0098901101000000000000
B0449413206431S11658100EA0100201111000000000000
B0449453206377S11658139EA0100901119000000000000
B0449493206376S11658201EA0101401116000000000000
B0449533206431S11658227EA0100401108000000000000
B0449573206480S11658183EA0099901107000000000000
B0450013206485S11658110EA0100201109000000000000
B0450053206452S11658043EA0100201108000000000000
B0450093206396S11658004EA0100401113000000000000
B0450133206332S11657987EA0101201117000000000000
B0450173206266S11657983EA0101101116000000000000
B0450213206197S11657992EA0100701108000000000000
B0450253206124S11658008EA0100001106000000000000
B0450293206052S11658026EA0100201108000000000000
B0450333205981S11658049EA0100501110000000000000
B0450373205911S11658076EA0100001106000000000000
B0450413205842S11658112EA0099301098000000000000
B0450453205772S11658149EA0098601095000000000000
B0450493205700S11658179EA0099301101000000000000
B0450533205634S11658212EA0099901105000000000000
B0450573205600S11658271EA0100801120000000000000
B0451013205625S11658322EA0102201127000000000000
B0451053205677S11658317EA0101801123000000000000
B0451093205717S11658262EA0101601123000000000000
B0451133205727S11658192EA0102101128000000000000
B0451173205705S11658131EA0102701134000000000000
B0451213205652S11658131EA0103101136000000000000
B0451253205635S11658192EA0102601129000000000000
B0451293205677S11658240EA0102201129000000000000
B0451333205733S11658230EA0102501130000000000000
B0451373205770S11658177EA0102001124000000000000
B0451413205778S11658105EA0101801122000000000000
B0451453205738S11658047EA0101201115000000000000
B0451493205672S11658026EA0100801115000000000000
B0451533205607S11658044EA0101701129000000000000
B0451573205553S11658082EA0102601133000000000000
B0452013205526S11658141EA0102401129000000000000
B0452053205534S11658208EA0101701123000000000000
B0452093205574S11658256EA0101001116000000000000
B0452133205635S11658274EA0100701111000000000000
B0452173205699S11658260EA0100401112000000000000
B0452213205751S11658218EA0100601113000000000000
B0452253205782S11658154EA0100601111000000000000
B0452293205783S11658080EA0100301110000000000000
B0452333205756S11658014EA0100501112000000000000
B0452373205708S11657965EA0099901103000000000000
B0452413205643S11657943EA0099901108000000000000
B0452453205590S11657976EA0101301124000000000000
B0452493205578S11658040EA0102301130000000000000
B0452533205620S11658073EA0102501130000000000000
B0452573205662S11658032EA0102101127000000000000
B0453013205662S11657963EA0102001127000000000000
B0453053205620S11657917EA0102201129000000000000
B0453093205560S11657894EA0102001125000000000000
B0453133205496S11657888EA0102301130000000000000
B0453173205449S11657926EA0103301142000000000000
B0453213205464S11657979EA0103501139000000000000
B0453253205519S11657982EA0102501128000000000000
B0453293205582S11657957EA0102001127000000000000
B0453333205644S11657931EA0102801135000000000000
B0453373205704S11657909EA0103201136000000000000
B0453413205765S11657887EA0102701130000000000000
B0453453205825S11657870EA0103101140000000000000
B0453493205882S11657861EA0103601138000000000000
B0453533205942S11657852EA0103101133000000000000
B0453573206003S11657842EA0103001133000000000000
B0454013206064S11657829EA0103101135000000000000
B0454053206124S11657813EA0103101134000000000000
B0454093206185S11657793EA0103201132000000000000
B0454133206249S11657783EA0103101137000000000000
B0454173206309S11657788EA0104101148000000000000
B0454213206359S11657820EA0105201156000000000000
B0454253206407S11657855EA0105601157000000000000
B0454293206459S11657884EA0105801162000000000000
B0454333206487S11657937EA0106501164000000000000
B0454373206453S11657991EA0105801158000000000000
B0454413206390S11657987EA0105301152000000000000
B0454453206331S11657949EA0104401144000000000000
B0454493206270S11657907EA0104401147000000000000
B0454533206211S11657870EA0105001153000000000000
B0454573206155S11657833EA0106001165000000000000
B0455013206121S11657779EA0107001173000000000000
B0455053206129S11657714EA0107001171000000000000
B0455093206175S11657671EA0106601165000000000000
B0455133206236S11657667EA0105701157000000000000
B0455173206292S11657697EA0105301155000000000000
B0455213206327S11657751EA0106101165000000000000
B0455253206329S11657818EA0106801174000000000000
B0455293206297S11657874EA0107301178000000000000
B0455333206238S11657898EA0107401178000000000000
B0455373206179S11657871EA0107201176000000000000
B0455413206149S11657805EA0107601183000000000000
B0455453206158S11657733EA0108801195000000000000
B0455493206197S11657685EA0109001194000000000000
B0455533206255S11657673EA0108301184000000000000
B0455573206315S11657685EA0108201186000000000000
B0456013206372S11657707EA0108601189000000000000
B0456053206431S11657731EA0108601188000000000000
B0456093206491S11657759EA0108501189000000000000
B0456133206548S11657792EA0108701188000000000000
B0456173206604S11657826EA0108301184000000000000
B0456213206656S11657865EA0107801179000000000000
B0456253206706S11657907EA0107001169000000000000
B0456293206753S11657958EA0106001158000000000000
B0456333206799S11658013EA0104801150000000000000
B0456373206842S11658069EA0104601146000000000000
B0456413206887S11658121EA0104001141000000000000
B0456453206930S11658171EA0103601136000000000000
B0456493206973S11658223EA0103601139000000000000
B0456533207013S11658278EA0103501137000000000000
B0456573207044S11658342EA0103601135000000000000
B0457013207065S11658412EA0103701139000000000000
B0457053207082S11658482EA0103601138000000000000
B0457093207095S11658551EA0103701139000000000000
B0457133207103S11658620EA0103701140000000000000
B0457173207116S11658685EA0104401146000000000000
B0457213207156S11658721EA0104701148000000000000
B0457253207207S11658699EA0104501143000000000000
B0457293207225S11658630EA0104001141000000000000
B0457333207193S11658564EA0104001140000000000000
B0457373207134S11658543EA0103901140000000000000
B0457413207072S11658570EA0103301134000000000000
B0457453207009S11658612EA0102801130000000000000
B0457493206947S11658654EA0102801130000000000000
B0457533206887S11658695EA0102701129000000000000
B0457573206826S11658736EA0102701129000000000000
B0458013206766S11658771EA0102401127000000000000
B0458053206708S11658799EA0102201123000000000000
B0458093206648S11658824EA0101701120000000000000
B0458133206587S11658849EA0101801123000000000000
B0458173206528S11658873EA0102401130000000000000
B0458213206475S11658902EA0102901133000000000000
B0458253206446S11658955EA0103101134000000000000
B0458293206467S11659010EA0103001131000000000000
B0458333206522S11659015EA0102701128000000000000
B0458373206566S11658967EA0102201125000000000000
B0458413206580S11658894EA0102301125000000000000
B0458453206549S11658827EA0102601133000000000000
B0458493206489S11658819EA0103301135000000000000
B0458533206459S11658876EA0103101130000000000000
B0458573206471S11658949EA0102001119000000000000
B0459013206497S11659023EA0101201114000000000000
B0459053206528S11659094EA0101001112000000000000
B0459093206562S11659167EA0100701111000000000000
B0459133206595S11659239EA0101801124000000000000
B0459173206639S11659287EA0104001145000000000000
B0459213206680S11659252EA0104701147000000000000
B0459253206657S11659185EA0104701150000000000000
B0459293206597S11659170EA0105701160000000000000
B0459333206549S11659210EA0106701171000000000000
B0459373206546S11659276EA0107701182000000000000
B0459413206592S11659310EA0108301189000000000000
B0459453206639S11659279EA0108901194000000000000
B0459493206644S11659211EA0109601201000000000000
B0459533206598S11659166EA0110401207000000000000
B0459573206540S11659180EA0111301219000000000000
B0500013206509S11659237EA0112101226000000000000
B0500053206515S11659306EA0112501228000000000000
B0500093206559S11659352EA0112701234000000000000
B0500133206615S11659349EA0113501241000000000000
B0500173206647S11659297EA0114101247000000000000
B0500213206628S11659235EA0113901242000000000000
B0500253206570S11659209EA0114001246000000000000
B0500293206514S11659236EA0115301261000000000000
B0500333206488S11659295EA0116401268000000000000
B0500373206506S11659356EA0116501269000000000000
B0500413206556S11659383EA0116501269000000000000
B0500453206610S11659369EA0116801274000000000000
B0500493206647S11659323EA0117301279000000000000
B0500533206647S11659259EA0117101270000000000000
B0500573206610S11659206EA0116501269000000000000
B0501013206553S11659189EA0116601272000000000000
B0501053206494S11659211EA0117401282000000000000
B0501093206454S11659259EA0118301289000000000000
B0501133206436S11659323EA0118401287000000000000
B0501173206455S11659387EA0118001283000000000000
B0501213206501S11659431EA0117801281000000000000
B0501253206557S11659453EA0117501277000000000000
B0501293206619S11659451EA0116701264000000000000
B0501333206686S11659427EA0115101252000000000000
B0501373206751S11659392EA0113801240000000000000
B0501413206818S11659353EA0112801230000000000000
B0501453206886S11659318EA0111901224000000000000
B0501493206955S11659284EA0111701220000000000000
B0501533207018S11659252EA0111301217000000000000
B0501573207079S11659217EA0110901213000000000000
B0502013207141S11659180EA0110301206000000000000
B0502053207203S11659144EA0109801199000000000000
B0502093207267S11659110EA0109201196000000000000
B0502133207330S11659079EA0109101194000000000000
B0502173207393S11659048EA0108601191000000000000
B0502213207455S11659016EA0108301186000000000000
B0502253207519S11658984EA0107501179000000000000
B0502293207581S11658944EA0106901175000000000000
B0502333207645S11658907EA0106601170000000000000
B0502373207709S11658873EA0106201166000000000000
B0502413207771S11658841EA0106001165000000000000
B0502453207832S11658810EA0105701161000000000000
B0502493207891S11658775EA0105401158000000000000
B0502533207950S11658743EA0105001154000000000000
B0502573208012S11658712EA0104401149000000000000
B0503013208075S11658682EA0104201146000000000000
B0503053208139S11658651EA0104401147000000000000
B0503093208199S11658620EA0104201144000000000000
B0503133208259S11658587EA0104501152000000000000
B0503173208316S11658554EA0104501146000000000000
B0503213208373S11658516EA0103501137000000000000
B0503253208434S11658486EA0103801145000000000000
B0503293208494S11658461EA0104901157000000000000
B0503333208520S11658407EA0105601159000000000000
B0503373208480S11658356EA0105001152000000000000
B0503413208417S11658373EA0105001153000000000000
B0503453208390S11658435EA0105701161000000000000
B0503493208405S11658503EA0106101167000000000000
B0503533208451S11658544EA0106901175000000000000
B0503573208507S11658542EA0107701181000000000000
B0504013208541S11658490EA0108001184000000000000
B0504053208530S11658426EA0107901181000000000000
B0504093208482S11658388EA0107701180000000000000
B0504133208425S11658399EA0107901181000000000000
B0504173208390S11658451EA0108201188000000000000
B0504213208396S11658518EA0108401190000000000000
B0504253208443S11658564EA0108801194000000000000
B0504293208496S11658544EA0109601202000000000000
B0504333208502S11658482EA0109801201000000000000
B0504373208456S11658444EA0109701201000000000000
B0504413208402S11658464EA0110001205000000000000
B0504453208368S11658525EA0109901206000000000000
B0504493208347S11658602EA0109001194000000000000
B0504533208325S11658685EA0108201187000000000000
B0504573208299S11658771EA0107301178000000000000
B0505013208270S11658855EA0107001178000000000000
B0505053208248S11658937EA0107301181000000000000
B0505093208226S11659016EA0106901176000000000000
B0505133208199S11659094EA0106601173000000000000
B0505173208168S11659172EA0106701171000000000000
B0505213208132S11659249EA0106601173000000000000
B0505253208100S11659327EA0106601172000000000000
B0505293208066S11659401EA0106701172000000000000
B0505333208027S11659469EA0107001178000000000000
B0505373207988S11659532EA0106901165000000000000
B0505413207944S11659600EA0105001149000000000000
B0505453207897S11659668EA0103901141000000000000
B0505493207852S11659735EA0103601138000000000000
B0505533207805S11659803EA0103201135000000000000
B0505573207758S11659868EA0102901131000000000000
B0506013207713S11659933EA0102001122000000000000
B0506053207667S11700002EA0101201112000000000000
B0506093207623S11700073EA0100301104000000000000
B0506133207584S11700146EA0099801102000000000000
B0506173207551S11700220EA0099901102000000000000
B0506213207521S11700294EA0099501097000000000000
B0506253207490S11700372EA0098901091000000000000
B0506293207454S11700446EA0099101100000000000000
B0506333207421S11700511EA0100701116000000000000
B0506373207393S11700575EA0101301116000000000000
B0506413207389S11700647EA0100701111000000000000
B0506453207380S11700725EA0100201109000000000000
B0506493207351S11700797EA0100701115000000000000
B0506533207313S11700864EA0100601110000000000000
B0506573207267S11700925EA0099701100000000000000
B0507013207216S11700986EA0098701090000000000000
B0507053207168S11701047EA0097701081000000000000
B0507093207117S11701105EA0096701072000000000000
B0507133207066S11701159EA0096201069000000000000
B0507173207018S11701216EA0095801062000000000000
B0507213206974S11701276EA0095401061000000000000
B0507253206931S11701336EA0095201057000000000000
B0507293206886S11701395EA0094501050000000000000
B0507333206843S11701459EA0094901059000000000000
B0507373206816S11701525EA0096601076000000000000
B0507413206848S11701576EA0097901087000000000000
B0507453206901S11701542EA0098801094000000000000
B0507493206892S11701472EA0098901094000000000000
B0507533206839S11701443EA0098901098000000000000
B0507573206786S11701464EA0099701106000000000000
B0508013206766S11701516EA0100501116000000000000
B0508053206810S11701549EA0100301108000000000000
B0508093206862S11701507EA0100501115000000000000
B0508133206860S11701436EA0100701114000000000000
B0508173206808S11701395EA0101001119000000000000
B0508213206757S11701417EA0102101132000000000000
B0508253206748S11701475EA0103201140000000000000
B0508293206786S11701514EA0103801142000000000000
B0508333206840S11701488EA0104101145000000000000
B0508373206856S11701420EA0104701151000000000000
B0508413206825S11701359EA0104601152000000000000
B0508453206770S11701351EA0105201160000000000000
B0508493206741S11701401EA0105601160000000000000
B0508533206770S11701458EA0105801168000000000000
B0508573206827S11701466EA0107301182000000000000
B0509013206869S11701420EA0108201185000000000000
B0509053206865S11701350EA0107701179000000000000
B0509093206816S11701304EA0107401179000000000000
B0509133206756S11701304EA0108001185000000000000
B0509173206713S11701346EA0108301187000000000000
B0509213206689S11701412EA0107801184000000000000
B0509253206674S11701486EA0108301193000000000000
B0509293206691S11701551EA0110401215000000000000
B0509333206745S11701551EA0111801222000000000000
B0509373206770S11701486EA0111601224000000000000
B0509413206740S11701425EA0112801236000000000000
B0509453206683S11701417EA0113601245000000000000
B0509493206640S11701463EA0114501253000000000000
B0509533206640S11701528EA0115201261000000000000
B0509573206675S11701576EA0116101268000000000000
B0510013206731S11701568EA0116401269000000000000
B0510053206751S11701501EA0116401270000000000000
B0510093206701S11701459EA0116801283000000000000
B0510133206656S11701502EA0117601287000000000000
B0510173206669S11701571EA0118201292000000000000
B0510213206725S11701602EA0119101302000000000000
B0510253206782S11701583EA0119901308000000000000
B0510293206809S11701519EA0119801302000000000000
B0510333206791S11701451EA0119701306000000000000
B0510373206744S11701423EA0121301322000000000000
B0510413206706S11701463EA0121701322000000000000
B0510453206722S11701528EA0121901328000000000000
B0510493206780S11701534EA0123101339000000000000
B0510533206804S11701472EA0123701342000000000000
B0510573206765S11701423EA0123601345000000000000
B0511013206708S11701437EA0124201352000000000000
B0511053206687S11701499EA0124901358000000000000
B0511093206721S11701557EA0125401361000000000000
B0511133206783S11701553EA0125401362000000000000
B0511173206817S11701489EA0125701364000000000000
B0511213206792S11701425EA0126201372000000000000
B0511253206738S11701408EA0126601373000000000000
B0511293206688S11701441EA0126901380000000000000
B0511333206667S11701498EA0128201391000000000000
B0511373206691S11701557EA0127901384000000000000
B0511413206748S11701583EA0128001387000000000000
B0511453206806S11701559EA0128301389000000000000
B0511493206830S11701492EA0127701381000000000000
B0511533206812S11701416EA0127101376000000000000
B0511573206762S11701360EA0126501372000000000000
B0512013206699S11701336EA0126901380000000000000
B0512053206647S11701363EA0128601393000000000000
B0512093206653S11701424EA0128701392000000000000
B0512133206710S11701438EA0129101404000000000000
B0512173206751S11701388EA0130601413000000000000
B0512213206736S11701326EA0130601411000000000000
B0512253206680S11701315EA0129601406000000000000
B0512293206635S11701358EA0129701406000000000000
B0512333206631S11701427EA0130501416000000000000
B0512373206673S11701469EA0131801429000000000000
B0512413206728S11701453EA0132801437000000000000
B0512453206752S11701390EA0132701433000000000000
B0512493206725S11701332EA0132401434000000000000
B0512533206670S11701317EA0132101426000000000000
B0512573206619S11701358EA0131401420000000000000
B0513013206611S11701433EA0131901432000000000000
B0513053206661S11701467EA0133701448000000000000
B0513093206706S11701420EA0134301447000000000000
B0513133206697S11701346EA0134101448000000000000
B0513173206647S11701303EA0134801454000000000000
B0513213206588S11701321EA0134501448000000000000
B0513253206559S11701388EA0133701437000000000000
B0513293206559S11701471EA0132801438000000000000
B0513333206566S11701551EA0133901448000000000000
B0513373206572S11701631EA0134401449000000000000
B0513413206579S11701713EA0134301448000000000000
B0513453206588S11701794EA0134201446000000000000
B0513493206600S11701879EA0133801437000000000000
B0513533206601S11701967EA0132501426000000000000
B0513573206591S11702054EA0132101429000000000000
B0514013206580S11702129EA0133401440000000000000
B0514053206571S11702196EA0133701437000000000000
B0514093206561S11702268EA0132801426000000000000
B0514133206554S11702342EA0132201425000000000000
B0514173206548S11702415EA0132201421000000000000
B0514213206533S11702489EA0131101411000000000000
B0514253206510S11702559EA0130601408000000000000
B0514293206475S11702617EA0130401403000000000000
B0514333206422S11702652EA0129901398000000000000
B0514373206362S11702678EA0129301393000000000000
B0514413206301S11702707EA0128701387000000000000
B0514453206241S11702743EA0127801376000000000000
B0514493206179S11702784EA0126601366000000000000
B0514533206116S11702821EA0126701370000000000000
B0514573206060S11702855EA0127401375000000000000
B0515013206010S11702897EA0127501376000000000000
B0515053205985S11702967EA0127101370000000000000
B0515093206020S11703035EA0126801366000000000000
B0515133206089S11703029EA0126301364000000000000
B0515173206133S11702958EA0126801373000000000000
B0515213206160S11702877EA0127101372000000000000
B0515253206185S11702795EA0126501365000000000000
B0515293206195S11702707EA0125701355000000000000
B0515333206194S11702616EA0124501340000000000000
B0515373206205S11702525EA0123701344000000000000
B0515413206245S11702454EA0124501350000000000000
B0515453206310S11702415EA0124701348000000000000
B0515493206379S11702402EA0125201357000000000000
B0515533206429S11702364EA0125901356000000000000
B0515573206449S11702294EA0124501340000000000000
B0516013206483S11702223EA0123101333000000000000
B0516053206536S11702186EA0124001343000000000000
B0516093206596S11702170EA0123601337000000000000
B0516133206660S11702177EA0123301328000000000000
B0516173206726S11702195EA0121801312000000000000
B0516213206797S11702218EA0120001294000000000000
B0516253206875S11702247EA0117701271000000000000
B0516293206957S11702282EA0116201260000000000000
B0516333207039S11702316EA0115701259000000000000
B0516373207120S11702348EA0115501257000000000000
B0516413207198S11702379EA0115301256000000000000
B0516453207276S11702407EA0115001251000000000000
B0516493207350S11702428EA0115001255000000000000
B0516533207420S11702446EA0114701248000000000000
B0516573207490S11702464EA0114001243000000000000
B0517013207557S11702478EA0113901241000000000000
B0517053207622S11702491EA0113801242000000000000
B0517093207683S11702507EA0113201232000000000000
B0517133207748S11702529EA0112501230000000000000
B0517173207811S11702552EA0113101235000000000000
B0517213207875S11702580EA0112201224000000000000
B0517253207943S11702615EA0111801226000000000000
B0517293208009S11702649EA0112601234000000000000
B0517333208070S11702681EA0113801245000000000000
B0517373208131S11702680EA0115201256000000000000
B0517413208144S11702615EA0115701256000000000000
B0517453208088S11702572EA0115701262000000000000
B0517493208032S11702608EA0117301280000000000000
B0517533208031S11702675EA0117801282000000000000
B0517573208084S11702707EA0117801279000000000000
B0518013208136S11702672EA0117801279000000000000
B0518053208147S11702598EA0117701280000000000000
B0518093208106S11702537EA0118101289000000000000
B0518133208045S11702534EA0119301298000000000000
B0518173208001S11702587EA0119201294000000000000
B0518213208006S11702663EA0119201296000000000000
B0518253208060S11702699EA0119501298000000000000
B0518293208116S11702676EA0119701302000000000000
B0518333208145S11702616EA0119801304000000000000
B0518373208140S11702541EA0119601299000000000000
B0518413208099S11702480EA0119801307000000000000
B0518453208038S11702486EA0120901313000000000000
B0518493208010S11702552EA0120601309000000000000
B0518533208031S11702625EA0119801301000000000000
B0518573208086S11702673EA0119101299000000000000
B0519013208152S11702681EA0119701304000000000000
B0519053208210S11702651EA0119901304000000000000
B0519093208264S11702607EA0119201296000000000000
B0519133208317S11702558EA0118701294000000000000
B0519173208368S11702509EA0118801293000000000000
B0519213208424S11702469EA0118401288000000000000
B0519253208485S11702439EA0118201287000000000000
B0519293208547S11702426EA0118301287000000000000
B0519333208610S11702431EA0117601277000000000000
B0519373208671S11702459EA0117001271000000000000
B0519413208725S11702500EA0116601268000000000000
B0519453208775S11702555EA0116401265000000000000
B0519493208821S11702619EA0116201263000000000000
B0519533208867S11702685EA0115801258000000000000
B0519573208909S11702756EA0115301254000000000000
B0520013208951S11702827EA0115201255000000000000
B0520053208998S11702894EA0115001250000000000000
B0520093209054S11702953EA0114901251000000000000
B0520133209117S11702998EA0114901249000000000000
B0520173209188S11703024EA0114101241000000000000
B0520213209261S11703028EA0113601236000000000000
B0520253209335S11703023EA0113001231000000000000
B0520293209406S11703015EA0112601227000000000000
B0520333209475S11703005EA0112201222000000000000
B0520373209544S11702989EA0111401215000000000000
B0520413209614S11702974EA0110901211000000000000
B0520453209686S11702962EA0110601209000000000000
B0520493209756S11702953EA0111101215000000000000
B0520533209825S11702950EA0112401230000000000000
B0520573209893S11702945EA0113601241000000000000
B0521013209941S11702906EA0114901252000000000000
B0521053209928S11702840EA0115001245000000000000
B0521093209863S11702833EA0113701233000000000000
B0521133209832S11702903EA0114301250000000000000
B0521173209855S11702971EA0115901264000000000000
B0521213209912S11703000EA0116201262000000000000
B0521253209968S11702972EA0116401267000000000000
B0521293209976S11702901EA0116201263000000000000
B0521333209925S11702851EA0115201254000000000000
B0521373209854S11702840EA0114701247000000000000
B0521413209794S11702880EA0115001260000000000000
B0521453209798S11702949EA0116701277000000000000
B0521493209850S11702979EA0118001287000000000000
B0521533209900S11702950EA0118401290000000000000
B0521573209911S11702888EA0119001294000000000000
B0522013209867S11702845EA0118401284000000000000
B0522053209807S11702864EA0118101287000000000000
B0522093209789S11702932EA0119001299000000000000
B0522133209828S11702983EA0119901305000000000000
B0522173209887S11702974EA0119801301000000000000
B0522213209920S11702910EA0119001294000000000000
B0522253209928S11702827EA0118201283000000000000
B0522293209928S11702737EA0117001265000000000000
B0522333209920S11702637EA0115301250000000000000
B0522373209908S11702535EA0114301243000000000000
B0522413209899S11702433EA0113601236000000000000
B0522453209894S11702329EA0112501224000000000000
B0522493209894S11702226EA0111701215000000000000
B0522533209894S11702122EA0110601207000000000000
B0522573209895S11702015EA0109101188000000000000
B0523013209894S11701908EA0108801189000000000000
B0523053209887S11701806EA0108801191000000000000
B0523093209878S11701711EA0108901190000000000000
B0523133209871S11701620EA0108701187000000000000
B0523173209855S11701532EA0108201184000000000000
B0523213209830S11701449EA0108801192000000000000
B0523253209802S11701376EA0110701212000000000000
B0523293209765S11701324EA0112801227000000000000
B0523333209711S11701315EA0112601222000000000000
B0523373209666S11701367EA0112101217000000000000
B0523413209670S11701442EA0112101218000000000000
B0523453209717S11701494EA0112001216000000000000
B0523493209781S11701498EA0111401214000000000000
B0523533209834S11701455EA0111501217000000000000
B0523573209861S11701386EA0111801221000000000000
B0524013209869S11701308EA0112001222000000000000
B0524053209860S11701228EA0112101226000000000000
B0524093209843S11701147EA0112201226000000000000
B0524133209819S11701066EA0111601216000000000000
B0524173209787S11700983EA0111501218000000000000
B0524213209744S11700909EA0112401227000000000000
B0524253209681S11700882EA0113401234000000000000
B0524293209630S11700925EA0113701233000000000000
B0524333209637S11700999EA0113101230000000000000
B0524373209691S11701038EA0113401238000000000000
B0524413209752S11701026EA0114501250000000000000
B0524453209791S11700969EA0116101265000000000000
B0524493209783S11700904EA0117101275000000000000
B0524533209733S11700887EA0117201269000000000000
B0524573209689S11700930EA0116201262000000000000
B0525013209678S11700999EA0116401269000000000000
B0525053209700S11701063EA0117201277000000000000
B0525093209754S11701083EA0118201289000000000000
B0525133209802S11701046EA0118501289000000000000
B0525173209804S11700977EA0119301300000000000000
B0525213209754S11700944EA0119801301000000000000
B0525253209703S11700987EA0119701300000000000000
B0525293209703S11701060EA0119801304000000000000
B0525333209754S11701098EA0120701314000000000000
B0525373209817S11701085EA0120901308000000000000
B0525413209878S11701038EA0119301292000000000000
B0525453209943S11700981EA0118401284000000000000
B0525493210008S11700920EA0117501272000000000000
B0525533210073S11700853EA0115601258000000000000
B0525573210137S11700786EA0114801251000000000000
B0526013210197S11700722EA0114601249000000000000
B0526053210257S11700662EA0114401244000000000000
B0526093210314S11700606EA0114601254000000000000
B0526133210368S11700557EA0116201270000000000000
B0526173210389S11700494EA0118401290000000000000
B0526213210349S11700454EA0119301293000000000000
B0526253210298S11700483EA0119001288000000000000
B0526293210296S11700552EA0118801287000000000000
B0526333210339S11700600EA0118501287000000000000
B0526373210398S11700605EA0119101292000000000000
B0526413210443S11700565EA0120001303000000000000
B0526453210452S11700501EA0120301303000000000000
B0526493210420S11700441EA0120301304000000000000
B0526533210361S11700441EA0120201304000000000000
B0526573210335S11700504EA0120201302000000000000
B0527013210368S11700565EA0119701300000000000000
B0527053210431S11700583EA0119701302000000000000
B0527093210498S11700570EA0119601297000000000000
B0527133210561S11700536EA0120001302000000000000
B0527173210597S11700474EA0120201304000000000000
B0527213210593S11700398EA0120401309000000000000
B0527253210561S11700331EA0120701309000000000000
B0527293210515S11700270EA0120301302000000000000
B0527333210465S11700208EA0119601293000000000000
B0527373210411S11700143EA0118801283000000000000
B0527413210358S11700073EA0118601283000000000000
B0527453210309S11700007EA0118901281000000000000
B0527493210258S11659937EA0117601265000000000000
B0527533210203S11659864EA0115601248000000000000
B0527573210147S11659790EA0114901242000000000000
B0528013210093S11659713EA0114201234000000000000
B0528053210037S11659639EA0113401226000000000000
B0528093209982S11659565EA0112501216000000000000
B0528133209926S11659490EA0111601209000000000000
B0528173209872S11659414EA0111001204000000000000
B0528213209820S11659340EA0110501199000000000000
B0528253209768S11659270EA0110301197000000000000
B0528293209717S11659198EA0109701188000000000000
B0528333209664S11659128EA0108701179000000000000
B0528373209609S11659055EA0107501167000000000000
B0528413209549S11658983EA0106601157000000000000
B0528453209490S11658915EA0106101155000000000000
B0528493209430S11658850EA0105901152000000000000
B0528533209370S11658788EA0105201146000000000000
B0528573209312S11658726EA0104701141000000000000
B0529013209253S11658669EA0104701143000000000000
B0529053209196S11658615EA0105101148000000000000
B0529093209139S11658561EA0105901157000000000000
B0529133209075S11658539EA0107701176000000000000
B0529173209031S11658583EA0108301177000000000000
B0529213209053S11658642EA0108101177000000000000
B0529253209106S11658628EA0108501184000000000000
B0529293209122S11658561EA0109701198000000000000
B0529333209089S11658502EA0110401201000000000000
B0529373209026S11658487EA0109901195000000000000
B0529413208972S11658537EA0110201198000000000000
B0529453208972S11658608EA0110201198000000000000
B0529493209022S11658645EA0110501205000000000000
B0529533209078S11658628EA0111201214000000000000
B0529573209098S11658568EA0112501228000000000000
B0530013209054S11658524EA0113401233000000000000
B0530053208998S11658552EA0113101227000000000000
B0530093208990S11658619EA0113101229000000000000
B0530133209035S11658654EA0113101232000000000000
B0530173209091S11658651EA0114001242000000000000
B0530213209131S11658606EA0114401247000000000000
B0530253209128S11658539EA0115301256000000000000
B0530293209078S11658503EA0115701256000000000000
B0530333209023S11658533EA0116001257000000000000
B0530373209010S11658602EA0115901255000000000000
B0530413209049S11658651EA0116201265000000000000
B0530453209102S11658652EA0117301275000000000000
B0530493209141S11658606EA0117601278000000000000
B0530533209153S11658537EA0118601290000000000000
B0530573209143S11658469EA0119201295000000000000
B0531013209113S11658407EA0119201294000000000000
B0531053209079S11658344EA0118801287000000000000
B0531093209040S11658278EA0118201276000000000000
B0531133208996S11658206EA0116601259000000000000
B0531173208949S11658135EA0115201248000000000000
B0531213208920S11658049EA0114701242000000000000
B0531253208914S11657961EA0114201239000000000000
B0531293208916S11657875EA0113901235000000000000
B0531333208924S11657794EA0113601232000000000000
B0531373208927S11657715EA0113301228000000000000
B0531413208925S11657636EA0112901221000000000000
B0531453208914S11657555EA0111801212000000000000
B0531493208890S11657473EA0111201207000000000000
B0531533208864S11657394EA0111201209000000000000
B0531573208836S11657317EA0111101208000000000000
B0532013208806S11657242EA0111301209000000000000
B0532053208773S11657169EA0111201208000000000000
B0532093208737S11657099EA0111001205000000000000
B0532133208691S11657038EA0110901203000000000000
B0532173208641S11656983EA0110701197000000000000
B0532213208582S11656939EA0110101193000000000000
B0532253208515S11656916EA0109301186000000000000
B0532293208442S11656910EA0108901185000000000000
B0532333208385S11656944EA0110201199000000000000
B0532373208376S11657009EA0111001205000000000000
B0532413208411S11657060EA0110701198000000000000
B0532453208469S11657087EA0109301189000000000000
B0532493208532S11657104EA0108801186000000000000
B0532533208593S11657116EA0108501179000000000000
B0532573208658S11657126EA0107301167000000000000
B0533013208728S11657133EA0106301159000000000000
B0533053208799S11657137EA0106201159000000000000
B0533093208867S11657138EA0106201160000000000000
B0533133208935S11657139EA0106501164000000000000
B0533173209001S11657135EA0107201173000000000000
B0533213209050S11657099EA0108401187000000000000
B0533253209037S11657035EA0108801185000000000000
B0533293208979S11657018EA0108301180000000000000
B0533333208933S11657065EA0108201180000000000000
B0533373208933S11657138EA0108101184000000000000
B0533413208974S11657192EA0108901192000000000000
B0533453209033S11657213EA0110101204000000000000
B0533493209085S11657186EA0111401217000000000000
B0533533209100S11657117EA0111401215000000000000
B0533573209065S11657056EA0110901209000000000000
B0534013209000S11657044EA0110301202000000000000
B0534053208945S11657090EA0110601215000000000000
B0534093208929S11657156EA0112301228000000000000
B0534133208955S11657213EA0112801233000000000000
B0534173209013S11657222EA0113401240000000000000
B0534213209050S11657174EA0114501251000000000000
B0534253209037S11657113EA0115301258000000000000
B0534293208984S11657092EA0115501258000000000000
B0534333208933S11657129EA0116001262000000000000
B0534373208919S11657194EA0116701270000000000000
B0534413208944S11657251EA0117601283000000000000
B0534453208994S11657260EA0118101284000000000000
B0534493209028S11657204EA0117601281000000000000
B0534533209014S11657137EA0118601297000000000000
B0534573208962S11657109EA0119601303000000000000
B0535013208907S11657133EA0119701300000000000000
B0535053208879S11657196EA0119701301000000000000
B0535093208899S11657265EA0120401309000000000000
B0535133208957S11657296EA0121001316000000000000
B0535173209015S11657267EA0121601324000000000000
B0535213209036S11657198EA0122401330000000000000
B0535253209010S11657131EA0122901334000000000000
B0535293208957S11657105EA0123801346000000000000
B0535333208906S11657126EA0124701349000000000000
B0535373208880S11657182EA0124401347000000000000
B0535413208901S11657247EA0124401350000000000000
B0535453208951S11657273EA0125701363000000000000
B0535493208997S11657248EA0126001362000000000000
B0535533209005S11657183EA0125201356000000000000
B0535573208967S11657130EA0125501365000000000000
B0536013208912S11657107EA0126301367000000000000
B0536053208858S11657081EA0126501362000000000000
B0536093208803S11657047EA0125701352000000000000
B0536133208742S11657016EA0124701338000000000000
B0536173208673S11656986EA0123101321000000000000
B0536213208598S11656957EA0121601306000000000000
B0536253208520S11656926EA0120501296000000000000
B0536293208438S11656905EA0119801287000000000000
B0536333208353S11656892EA0119001282000000000000
B0536373208274S11656883EA0119601294000000000000
B0536413208199S11656878EA0120701302000000000000
B0536453208132S11656852EA0121201307000000000000
B0536493208104S11656784EA0121401307000000000000
B0536533208130S11656708EA0120701301000000000000
B0536573208188S11656661EA0120501302000000000000
B0537013208256S11656649EA0120001293000000000000
B0537053208322S11656676EA0118801283000000000000
B0537093208381S11656727EA0118401288000000000000
B0537133208434S11656783EA0118101280000000000000
B0537173208485S11656844EA0117401273000000000000
B0537213208533S11656906EA0116401261000000000000
B0537253208584S11656971EA0115101246000000000000
B0537293208633S11657042EA0113901238000000000000
B0537333208680S11657116EA0113201231000000000000
B0537373208723S11657191EA0112801228000000000000
B0537413208771S11657264EA0113101233000000000000
B0537453208819S11657329EA0114101244000000000000
B0537493208873S11657380EA0113801235000000000000
B0537533208935S11657434EA0112601225000000000000
B0537573208994S11657494EA0112301225000000000000
B0538013209052S11657550EA0112601228000000000000
B0538053209104S11657608EA0112301222000000000000
B0538093209152S11657670EA0111101209000000000000
B0538133209197S11657735EA0110601205000000000000
B0538173209239S11657797EA0110101201000000000000
B0538213209280S11657862EA0109701196000000000000
B0538253209322S11657926EA0110001202000000000000
B0538293209362S11657987EA0111301217000000000000
B0538333209412S11658017EA0112901231000000000000
B0538373209444S11657969EA0113001230000000000000
B0538413209418S11657910EA0113401234000000000000
B0538453209361S11657909EA0113401232000000000000
B0538493209323S11657963EA0113601235000000000000
B0538533209340S11658032EA0113401233000000000000
B0538573209400S11658043EA0114001243000000000000
B0539013209412S11657984EA0114401246000000000000
B0539053209366S11657935EA0114001241000000000000
B0539093209297S11657914EA0113301235000000000000
B0539133209224S11657887EA0113101230000000000000
B0539173209150S11657854EA0111901216000000000000
B0539213209075S11657822EA0110901207000000000000
B0539253209001S11657785EA0109901198000000000000
B0539293208929S11657740EA0109201191000000000000
B0539333208868S11657679EA0108601185000000000000
B0539373208825S11657597EA0107901177000000000000
B0539413208797S11657507EA0107401175000000000000
B0539453208766S11657419EA0107301175000000000000
B0539493208728S11657337EA0107001171000000000000
B0539533208676S11657265EA0106901175000000000000
B0539573208611S11657213EA0107301174000000000000
B0540013208542S11657168EA0107001172000000000000
B0540053208476S11657129EA0108201186000000000000
B0540093208411S11657094EA0109101192000000000000
B0540133208346S11657062EA0110001201000000000000
B0540173208283S11657034EA0110401198000000000000
B0540213208216S11657004EA0108801182000000000000
B0540253208144S11656975EA0108301187000000000000
B0540293208075S11656949EA0109201189000000000000
B0540333208005S11656918EA0109201191000000000000
B0540373207932S11656888EA0108901183000000000000
B0540413207856S11656871EA0108001178000000000000
B0540453207776S11656857EA0107501172000000000000
B0540493207698S11656841EA0106701165000000000000
B0540533207619S11656825EA0106301158000000000000
B0540573207538S11656809EA0105301149000000000000
B0541013207455S11656795EA0104701147000000000000
B0541053207376S11656786EA0105101151000000000000
B0541093207299S11656776EA0105501155000000000000
B0541133207228S11656766EA0106201162000000000000
B0541173207159S11656753EA0106401162000000000000
B0541213207089S11656741EA0106401164000000000000
B0541253207017S11656728EA0106501165000000000000
B0541293206946S11656713EA0106901170000000000000
B0541333206877S11656695EA0107701175000000000000
B0541373206812S11656708EA0108401184000000000000
B0541413206787S11656769EA0109701197000000000000
B0541453206822S11656817EA0109701194000000000000
B0541493206884S11656805EA0109501199000000000000
B0541533206918S11656747EA0110901210000000000000
B0541573206912S11656676EA0110901210000000000000
B0542013206866S11656619EA0109901198000000000000
B0542053206796S11656598EA0109201193000000000000
B0542093206726S11656620EA0109201196000000000000
B0542133206666S11656662EA0110101206000000000000
B0542173206622S11656719EA0111001214000000000000
B0542213206617S11656789EA0111301216000000000000
B0542253206657S11656838EA0111301216000000000000
B0542293206717S11656838EA0111001212000000000000
B0542333206764S11656788EA0110901212000000000000
B0542373206784S11656714EA0110901212000000000000
B0542413206782S11656631EA0110801211000000000000
B0542453206752S11656557EA0111301217000000000000
B0542493206691S11656526EA0111301215000000000000
B0542533206621S11656548EA0110701206000000000000
B0542573206559S11656604EA0109701198000000000000
B0543013206515S11656676EA0110401208000000000000
B0543053206502S11656757EA0111101213000000000000
B0543093206518S11656831EA0111201214000000000000
B0543133206557S11656895EA0110801211000000000000
B0543173206606S11656948EA0110401204000000000000
B0543213206662S11656997EA0109701199000000000000
B0543253206721S11657040EA0109501195000000000000
B0543293206784S11657079EA0109101190000000000000
B0543333206855S11657105EA0107901178000000000000
B0543373206933S11657112EA0106701167000000000000
B0543413207004S11657082EA0106401164000000000000
B0543453207059S11657026EA0105801155000000000000
B0543493207128S11656986EA0103601132000000000000
B0543533207207S11656988EA0103401137000000000000
B0543573207278S11657004EA0104001144000000000000
B0544013207346S11657016EA0104601149000000000000
B0544053207416S11657022EA0104501144000000000000
B0544093207485S11657029EA0103801140000000000000
B0544133207550S11657034EA0104601151000000000000
B0544173207612S11657033EA0105301157000000000000
B0544213207674S11657031EA0105601157000000000000
B0544253207736S11657029EA0105501159000000000000
B0544293207798S11657027EA0105201153000000000000
B0544333207862S11657031EA0104801151000000000000
B0544373207927S11657033EA0105001151000000000000
B0544413207995S11657030EA0104801149000000000000
B0544453208062S11657026EA0105001155000000000000
B0544493208129S11657010EA0106301165000000000000
B0544533208162S11656951EA0107901184000000000000
B0544573208140S11656886EA0108501183000000000000
B0545013208084S11656857EA0107901180000000000000
B0545053208025S11656880EA0107901175000000000000
B0545093207982S11656942EA0107801178000000000000
B0545133207970S11657016EA0108501187000000000000
B0545173207980S11657087EA0108901190000000000000
B0545213208015S11657148EA0109201193000000000000
B0545253208077S11657170EA0109001187000000000000
B0545293208139S11657135EA0108301183000000000000
B0545333208183S11657070EA0108501190000000000000
B0545373208209S11656995EA0109101195000000000000
B0545413208199S11656914EA0108801191000000000000
B0545453208151S11656851EA0108601190000000000000
B0545493208078S11656832EA0108501190000000000000
B0545533208009S11656864EA0108901195000000000000
B0545573207958S11656926EA0109701200000000000000
B0546013207913S11656996EA0109401195000000000000
B0546053207867S11657072EA0108001184000000000000
B0546093207801S11657122EA0107901185000000000000
B0546133207727S11657124EA0108301189000000000000
B0546173207666S11657073EA0108001183000000000000
B0546213207644S11656988EA0107201175000000000000
B0546253207671S11656908EA0106701168000000000000
B0546293207736S11656862EA0105701158000000000000
B0546333207815S11656856EA0104501142000000000000
B0546373207897S11656880EA0102601123000000000000
B0546413207973S11656930EA0102601136000000000000
B0546453208032S11656983EA0105401164000000000000
B0546493208090S11657018EA0107001173000000000000
B0546533208145S11656994EA0106801164000000000000
B0546573208148S11656913EA0105601153000000000000
B0547013208092S11656848EA0104201140000000000000
B0547053208010S11656834EA0104101142000000000000
B0547093207943S11656879EA0105101158000000000000
B0547133207913S11656952EA0107101179000000000000
B0547173207927S11657020EA0108401189000000000000
B0547213207978S11657055EA0108701183000000000000
B0547253208044S11657069EA0107901183000000000000
B0547293208109S11657077EA0108201185000000000000
B0547333208173S11657095EA0108001177000000000000
B0547373208238S11657137EA0105701144000000000000
B0547413208308S11657204EA0102101112000000000000
B0547453208382S11657283EA0100501102000000000000
B0547493208451S11657363EA0099701096000000000000
B0547533208515S11657441EA0099701096000000000000
B0547573208573S11657520EA0099501097000000000000
B0548013208632S11657597EA0100101102000000000000
B0548053208689S11657660EA0100001100000000000000
B0548093208751S11657723EA0099401093000000000000
B0548133208811S11657790EA0099101089000000000000
B0548173208872S11657858EA0098501084000000000000
B0548213208935S11657924EA0097801082000000000000
B0548253208990S11657983EA0099401100000000000000
B0548293209045S11658037EA0099601094000000000000
B0548333209104S11658087EA0098501083000000000000
B0548373209169S11658131EA0097601076000000000000
B0548413209234S11658171EA0097201071000000000000
B0548453209306S11658177EA0095601050000000000000
B0548493209356S11658102EA0093601024000000000000
B0548533209344S11657998EA0091601012000000000000
B0548573209289S11657911EA0091001007000000000000
B0549013209209S11657857EA0090100996000000000000
B0549053209115S11657831EA0088400977000000000000
B0549093209014S11657818EA0086900966000000000000
B0549133208918S11657805EA0087100967000000000000
B0549173208825S11657788EA0087800975000000000000
B0549213208738S11657762EA0088300977000000000000
B0549253208658S11657755EA0089200994000000000000
B0549293208582S11657764EA0089600990000000000000
B0549333208503S11657770EA0088500978000000000000
B0549373208417S11657764EA0087300970000000000000
B0549413208333S11657742EA0086700963000000000000
B0549453208249S11657718EA0086000955000000000000
B0549493208165S11657702EA0084600944000000000000
B0549533208080S11657686EA0083500936000000000000
B0549573207999S11657660EA0083000927000000000000
B0550013207919S11657623EA0082400920000000000000
B0550053207850S11657567EA0081800914000000000000
B0550093207797S11657491EA0081300907000000000000
B0550133207749S11657406EA0079600886000000000000
B0550173207694S11657312EA0077000861000000000000
B0550213207644S11657209EA0075700856000000000000
B0550253207610S11657107EA0077200882000000000000
B0550293207571S11657044EA0081700926000000000000
B0550333207516S11657055EA0081000896000000000000
B0550373207476S11657146EA0076400862000000000000
B0550413207429S11657204EA0080100915000000000000
B0550453207398S11657173EA0079600891000000000000
B0550493207428S11657074EA0072300826000000015000
B0550533207477S11656969EA0072100842000000015000
B0550573207502S11656888EA0078300908000000000000
B0551013207469S11656847EA0081300909000000000000
B0551053207423S11656917EA0076400852000000000000
B0551093207388S11657021EA0077800878000000000000
B0551133207410S11657085EA0082800932000000000000
B0551173207442S11657064EA0081600901000000000000
B0551213207386S11656977EA0076500883000000015000
B0551253207386S11656913EA0080900949000000015000
B0551293207433S11656942EA0080200905000000015000
B0551333207447S11657051EA0077600896000000000000
B0551373207473S11657113EA0081900954000000000000
B0551413207516S11657088EA0081200917000000000000
B0551453207532S11656986EA0078700914000000000000
B0551493207589S11656952EA0080900933000000000000
B0551533207601S11657027EA0081100926000000000000
B0551573207529S11657029EA0081000936000000000000
B0552013207534S11656952EA0082200942000000000000
B0552053207589S11656962EA0083700962000000000000
B0552093207577S11657021EA0084600955000000000000
B0552133207511S11657007EA0083500947000000000000
B0552173207508S11656931EA0084000961000000000000
B0552213207562S11656930EA0085900974000000000000
B0552253207563S11656996EA0086600980000000000000
B0552293207510S11657023EA0087600986000000000000
B0552333207463S11656977EA0087700983000000000000
B0552373207476S11656909EA0088200992000000000000
B0552413207528S11656906EA0089601002000000000000
B0552453207541S11656968EA0090201007000000000000
B0552493207492S11657000EA0091201017000000000000
B0552533207447S11656952EA0091701021000000000000
B0552573207468S11656893EA0092701031000000000000
B0553013207518S11656908EA0093001032000000000000
B0553053207518S11656973EA0093801045000000000000
B0553093207464S11656992EA0094901053000000000000
B0553133207420S11656947EA0095501059000000000000
B0553173207428S11656883EA0096201069000000000000
B0553213207477S11656866EA0096901071000000000000
B0553253207511S11656918EA0097101071000000000000
B0553293207462S11656962EA0096601076000000015000
B0553333207421S11656905EA0097601085000000015000
B0553373207456S11656857EA0098701097000000000000
B0553413207503S11656877EA0100201110000000000000
B0553453207512S11656936EA0101001114000000000000
B0553493207471S11656984EA0101301118000000000000
B0553533207412S11656971EA0102201126000000000000
B0553573207390S11656910EA0103001133000000000000
B0554013207425S11656864EA0103201135000000000000
B0554053207476S11656879EA0104101149000000000000
B0554093207492S11656936EA0105501159000000000000
B0554133207455S11656991EA0106101162000000000000
B0554173207395S11656990EA0106801171000000000000
B0554213207358S11656938EA0107401173000000000000
B0554253207369S11656873EA0107501178000000000000
B0554293207421S11656860EA0108601189000000000000
B0554333207453S11656909EA0109601200000000000000
B0554373207430S11656970EA0110401204000000000000
B0554413207375S11656983EA0110701208000000000000
B0554453207330S11656939EA0111201211000000000000
B0554493207320S11656867EA0111301215000000000000
B0554533207346S11656804EA0112001225000000000000
B0554573207397S11656780EA0113701242000000000000
B0555013207445S11656812EA0114801250000000000000
B0555053207449S11656880EA0115501257000000000000
B0555093207408S11656938EA0116101262000000000000
B0555133207349S11656944EA0116701266000000000000
B0555173207298S11656899EA0116501263000000000000
B0555213207285S11656819EA0116001261000000000000
B0555253207316S11656747EA0116001264000000000000
B0555293207377S11656711EA0117401282000000000000
B0555333207440S11656721EA0118901293000000000000
B0555373207481S11656770EA0119601301000000000000
B0555413207480S11656845EA0120101302000000000000
B0555453207442S11656912EA0120001301000000000000
B0555493207381S11656955EA0119901299000000000000
B0555533207315S11656943EA0120401310000000000000
B0555573207274S11656887EA0121201314000000000000
B0556013207274S11656813EA0121201311000000000000
B0556053207298S11656735EA0120801311000000000000
B0556093207338S11656666EA0122101330000000000000
B0556133207393S11656659EA0124501353000000000000
B0556173207416S11656711EA0125101350000000000000
B0556213207384S11656771EA0124701351000000000000
B0556253207320S11656774EA0124901347000000000000
B0556293207280S11656708EA0124801349000000000000
B0556333207287S11656626EA0125101356000000000000
B0556373207334S11656578EA0126101367000000000000
B0556413207397S11656580EA0125801352000000000000
B0556453207447S11656632EA0124001337000000000000
B0556493207475S11656710EA0123201329000000000000
B0556533207492S11656797EA0121901315000000000000
B0556573207507S11656893EA0120001297000000000000
B0557013207519S11656996EA0118601285000000000000
B0557053207527S11657101EA0118201281000000000000
B0557093207531S11657204EA0117601274000000000000
B0557133207529S11657306EA0116801268000000000000
B0557173207524S11657404EA0116501266000000000000
B0557213207519S11657501EA0116001263000000000000
B0557253207518S11657595EA0115601257000000000000
B0557293207515S11657689EA0114901248000000000000
B0557333207512S11657781EA0114201244000000000000
B0557373207503S11657874EA0114101241000000000000
B0557413207464S11657941EA0115101256000000000000
B0557453207417S11657906EA0115401247000000000000
B0557493207453S11657827EA0110601200000000000000
B0557533207542S11657793EA0107901171000000000000
B0557573207641S11657798EA0105201144000000000000
B0558013207737S11657849EA0103201127000000000000
B0558053207804S11657940EA0102501126000000000000
B0558093207831S11658053EA0102101119000000000000
B0558133207831S11658174EA0100701105000000000000
B0558173207810S11658294EA0099501093000000000000
B0558213207780S11658411EA0098601084000000000000
B0558253207748S11658526EA0097301070000000000000
B0558293207710S11658643EA0096101060000000000000
B0558333207677S11658751EA0097901084000000000000
B0558373207649S11658846EA0099901103000000000000
B0558413207620S11658932EA0101201114000000000000
B0558453207599S11659011EA0102001124000000000000
B0558493207575S11659089EA0102501122000000000000
B0558533207566S11659167EA0103001131000000000000
B0558573207616S11659194EA0103801137000000000000
B0559013207649S11659136EA0104101135000000000000
B0559053207611S11659071EA0103701134000000000000
B0559093207540S11659045EA0103301128000000000000
B0559133207463S11659066EA0103001127000000000000
B0559173207403S11659122EA0103301126000000000000
B0559213207359S11659198EA0101501104000000000000
B0559253207317S11659291EA0098001074000000000000
B0559293207276S11659393EA0095901060000000000000
B0559333207232S11659491EA0095501057000000000000
B0559373207186S11659579EA0095801061000000000000
B0559413207126S11659644EA0096001061000000000000
B0559453207051S11659675EA0095301048000000000000
B0559493206966S11659678EA0093701026000000000000
B0559533206878S11659665EA0091401006000000000000
B0559573206788S11659644EA0089900994000000000000
B0600013206701S11659617EA0089300986000000000000
B0600053206614S11659583EA0087600968000000000000
B0600093206530S11659548EA0087100969000000000000
B0600133206450S11659522EA0087200973000000000000
B0600173206375S11659501EA0088000982000000000000
B0600213206306S11659473EA0089300994000000000000
B0600253206240S11659453EA0090401003000000000000
B0600293206182S11659478EA0092001022000000000000
B0600333206159S11659538EA0092201019000000000000
B0600373206184S11659594EA0092001017000000000000
B0600413206236S11659610EA0091601011000000000000
B0600453206289S11659587EA0090901005000000000000
B0600493206333S11659535EA0090001001000000000000
B0600533206374S11659477EA0090401008000000000000
B0600573206415S11659418EA0090801010000000000000
B0601013206433S11659349EA0091701018000000000000
B0601053206380S11659309EA0092101023000000000000
B0601093206323S11659347EA0093401038000000000000
B0601133206327S11659413EA0094801050000000000000
B0601173206377S11659436EA0095201052000000000000
B0601213206420S11659388EA0095301053000000000000
B0601253206414S11659310EA0095801057000000000000
B0601293206361S11659262EA0096401072000000000000
B0601333206298S11659274EA0098501090000000000000
B0601373206263S11659331EA0099701097000000000000
B0601413206270S11659399EA0099901099000000000000
B0601453206318S11659428EA0100001101000000000000
B0601493206363S11659387EA0100101100000000000000
B0601533206361S11659311EA0100601108000000000000
B0601573206309S11659275EA0101701121000000000000
B0602013206264S11659326EA0102401124000000000000
B0602053206288S11659388EA0103001131000000000000
B0602093206342S11659389EA0103401136000000000000
B0602133206359S11659326EA0103701138000000000000
B0602173206307S11659291EA0104401147000000000000
B0602213206268S11659347EA0104801151000000000000
B0602253206299S11659402EA0105401158000000000000
B0602293206355S11659393EA0106201165000000000000
B0602333206385S11659331EA0106601166000000000000
B0602373206359S11659266EA0107201176000000000000
B0602413206299S11659259EA0108101184000000000000
B0602453206262S11659318EA0108401186000000000000
B0602493206284S11659383EA0108401185000000000000
B0602533206345S11659388EA0108901194000000000000
B0602573206385S11659332EA0109201195000000000000
B0603013206374S11659256EA0109301200000000000000
B0603053206327S11659201EA0109701204000000000000
B0603093206258S11659197EA0109601200000000000000
B0603133206203S11659248EA0110101209000000000000
B0603173206202S11659318EA0111301219000000000000
B0603213206257S11659336EA0111601220000000000000
B0603253206289S11659282EA0112401232000000000000
B0603293206260S11659219EA0113001238000000000000
B0603333206198S11659201EA0113001236000000000000
B0603373206142S11659243EA0113401245000000000000
B0603413206128S11659311EA0114601253000000000000
B0603453206154S11659375EA0114901256000000000000
B0603493206206S11659406EA0115701262000000000000
B0603533206260S11659388EA0115801261000000000000
B0603573206306S11659330EA0114201238000000000000
B0604013206350S11659253EA0112601232000000000000
B0604053206390S11659168EA0112201226000000000000
B0604093206433S11659085EA0110701211000000000000
B0604133206483S11659003EA0109601199000000000000
B0604173206530S11658920EA0108401192000000000000
B0604213206574S11658838EA0108401192000000000000
B0604253206617S11658760EA0108801199000000000000
B0604293206647S11658685EA0110901222000000000000
B0604333206628S11658616EA0113201241000000000000
B0604373206567S11658595EA0113901241000000000000
B0604413206513S11658639EA0113901242000000000000
B0604453206510S11658708EA0113901243000000000000
