ACAM4N6
HFDTE121221
HFFXA050
HFPLTPILOT:John.Welsh              
HFGTYGLIDERTYPE:HORNET      
HFGIDGLIDERID:VH-GMY      
HFDTM100GPSDATUM:
HFRFWFIRMWAREVERSION:F2.6
HFRHWHARDWAREVERSION:300 Series Version 2
HFFTYFRTYPE:CAMBRIDGE AERO INSTRUMENTS, 302+
HFGPS:GARMIN,LVS-25,12,18000
HFPRSPRESSALTSENSOR:INTERSEMA, MS5534-AP, 20000
I033638FXA3941ENL4247REX
LCAMSBVER:5FWVER:F26300
C121221031414121221000102
C0000000N00000000WTAKEOFF     
C3207550S11656850EBeverley Air
C3301433S11652383EWilliams    
C3220282S11752284ECorrigin    
C3207550S11656850EBeverley Air
C0000000N00000000WLANDING     
B0402203207339S11656858EA0018400208000000000000
B0402223207339S11656858EA0018300208000000000000
B0402243207339S11656858EA0018400208000000000000
B0402263207339S11656858EA0018400207000004000000
B0402283207339S11656858EA0018300207000000000000
B0402303207339S11656858EA0018400207000000000000
B0402323207339S11656858EA0018300207000004000000
B0402343207339S11656858EA0018400207000000000000
B0402363207339S11656858EA0018400207000000000000
B0402383207339S11656858EA0018400207000000000000
B0402403207339S11656858EA0018400207000000000000
B0402423207341S11656858EA0018400207000000000000
B0402443207341S11656858EA0018500207000000000000
B0402463207341S11656858EA0018400207000000000000
B0402483207342S11656860EA0018400207000000000000
B0402513207347S11656865EA0018400207000000000000
B0402553207369S11656884EA0018500207000000000000
B0402593207407S11656912EA0018600207000004000000
B0403033207459S11656945EA0018800207000000000000
B0403073207523S11656986EA0019000208000000000000
B0403113207590S11657031EA0019400215000000000000
B0403153207661S11657081EA0020200223000000000000
B0403193207728S11657125EA0021500240000004000000
B0403233207794S11657164EA0023000260000000000000
B0403273207859S11657190EA0025700285000000000000
B0403313207923S11657209EA0027300302000000000000
B0403353207987S11657225EA0028500324000000000000
B0403393208049S11657238EA0031300341000000000000
B0403433208112S11657250EA0032600355000004000000
B0403473208178S11657257EA0033100360000000000000
B0403513208246S11657270EA0034100370000000000000
B0403553208314S11657280EA0035900390000000000000
B0403593208382S11657285EA0037100406000000000000
B0404033208451S11657290EA0038300417000000000000
B0404073208520S11657302EA0039700434000000000000
B0404113208586S11657319EA0041400449000000000000
B0404153208656S11657332EA0042400454000000000000
B0404193208727S11657348EA0043200467000000000000
B0404233208795S11657372EA0045000488000004000000
B0404273208863S11657391EA0047300511000000000000
B0404313208929S11657415EA0049300526000004000000
B0404353208996S11657439EA0050300541000004000000
B0404393209058S11657462EA0052900565000004000000
B0404433209126S11657484EA0054200574000000000000
B0404473209192S11657510EA0055700591000004000000
B0404513209258S11657533EA0057700611000004000000
B0404553209322S11657558EA0060200641000000000000
B0404593209386S11657581EA0062200664000000000000
B0405033209436S11657568EA0064500683000000000000
B0405073209440S11657508EA0065900692000004000000
B0405113209386S11657468EA0066100687000004015000
B0405153209312S11657501EA0065800691000000015000
B0405193209297S11657573EA0066700706000004015000
B0405233209339S11657601EA0067700708000004015000
B0405273209366S11657556EA0067800712000004015000
B0405313209339S11657501EA0068400716000000015000
B0405353209273S11657484EA0068500718000000015000
B0405393209209S11657520EA0068900723000000015000
B0405433209193S11657589EA0069300721000004015000
B0405473209227S11657642EA0068400710000000015000
B0405513209282S11657644EA0068400716000000015000
B0405553209323S11657611EA0069400723000000015000
B0405593209304S11657553EA0070600736000004015000
B0406033209241S11657554EA0071000738000004015000
B0406073209215S11657618EA0071100741000004015000
B0406113209248S11657664EA0071300742000004015000
B0406153209292S11657646EA0071700746000004015000
B0406193209280S11657586EA0072200755000000015000
B0406233209219S11657567EA0072700757000004015000
B0406273209163S11657610EA0072900759000000015000
B0406313209157S11657680EA0073500765000000015000
B0406353209195S11657727EA0073500765000004015000
B0406393209245S11657718EA0074100773000004015000
B0406433209252S11657659EA0075600791000004015000
B0406473209197S11657645EA0077100801000004015000
B0406513209150S11657690EA0077700808000004015000
B0406553209150S11657758EA0077900808000004015000
B0406593209200S11657785EA0078000812000004015000
B0407033209240S11657742EA0078400814000004015000
B0407073209224S11657675EA0078600815000004015000
B0407113209165S11657694EA0079700832000004015000
B0407153209176S11657762EA0080800843000004015000
B0407193209231S11657763EA0081800853000004015000
B0407233209256S11657698EA0082200851000000015000
B0407273209217S11657645EA0082800862000000015000
B0407313209158S11657672EA0083700869000000015000
B0407353209167S11657741EA0084800884000004015000
B0407393209221S11657740EA0086600903000004015000
B0407433209243S11657679EA0087200904000004030000
B0407473209208S11657615EA0087500911000004030000
B0407513209146S11657629EA0088600921000004015000
B0407553209139S11657697EA0090000939000004015000
B0407593209188S11657715EA0091500953000000015000
B0408033209221S11657658EA0092100960000000015000
B0408073209196S11657589EA0092800968000000015000
B0408113209133S11657571EA0093800975000000015000
B0408153209078S11657619EA0094600988000000015000
B0408193209075S11657693EA0096001002000004015000
B0408233209123S11657729EA0097101012000004015000
B0408273209174S11657698EA0098301025000004015000
B0408313209180S11657625EA0099501036000000015000
B0408353209133S11657575EA0101001049000004015000
B0408393209078S11657602EA0101701052000004015000
B0408433209076S11657673EA0102701068000000015000
B0408473209131S11657676EA0104701090000004015000
B0408513209149S11657605EA0106001103000000015000
B0408553209100S11657554EA0107401118000000015000
B0408593209042S11657580EA0108801125000000015000
B0409033209026S11657655EA0109401136000000015000
B0409073209074S11657680EA0111601164000004015000
B0409113209092S11657616EA0113401181000004015000
B0409153209041S11657585EA0115601204000004015000
B0409193209003S11657637EA0116701208000000015000
B0409233209028S11657701EA0118301230000000015000
B0409273209080S11657698EA0120001244000000015000
B0409313209094S11657628EA0121401261000000015000
B0409353209045S11657582EA0123001277000004015000
B0409393208994S11657615EA0124701295000004015000
B0409433208996S11657680EA0126401309000004015000
B0409473209042S11657699EA0127701321000004015000
B0409513209070S11657640EA0128901334000004015000
B0409553209039S11657575EA0130401350000004015000
B0409593208977S11657584EA0131701364000004015000
B0410033208964S11657647EA0133101379000004015000
B0410073209011S11657670EA0134601394000004015000
B0410113209036S11657610EA0136001409000004015000
B0410153209000S11657547EA0137301422000004015000
B0410193208941S11657556EA0138601432000004015000
B0410233208918S11657619EA0139101434000004015000
B0410273208941S11657684EA0140001448000004015000
B0410313208993S11657685EA0141501464000000015000
B0410353209000S11657616EA0142901475000000015000
B0410393208945S11657576EA0143901488000000015000
B0410433208892S11657614EA0145701506000004015000
B0410473208894S11657683EA0147101518000000015000
B0410513208941S11657715EA0148801534000004015000
B0410553208976S11657671EA0150001545000000015000
B0410593208951S11657608EA0150901555000000015000
B0411033208893S11657608EA0151801570000004015000
B0411073208873S11657671EA0153101576000004015000
B0411113208914S11657719EA0153701587000000015000
B0411153208963S11657693EA0155001600000000015000
B0411193208970S11657625EA0155901606000000015000
B0411233208927S11657568EA0156501612000004015000
B0411273208860S11657571EA0157601628000004015000
B0411313208841S11657638EA0159501646000004015000
B0411353208879S11657685EA0160401646000004015000
B0411393208938S11657679EA0160601653000004015000
B0411433208970S11657620EA0161301659000004015000
B0411473208940S11657553EA0161501659000000015000
B0411513208876S11657507EA0161801665000000015000
B0411553208806S11657471EA0163001677000004000000
B0411593208732S11657436EA0163701685000004000000
B0412033208656S11657400EA0165001705000004000000
B0412073208581S11657368EA0166701716000000000000
B0412113208504S11657333EA0166901715000000000000
B0412153208426S11657298EA0166901716000000000000
B0412193208347S11657260EA0166901714000000000000
B0412233208265S11657222EA0167201720000000000000
B0412273208183S11657183EA0167301715000004000000
B0412313208096S11657138EA0165701694000004000000
B0412353208006S11657090EA0164601686000000000000
B0412393207919S11657043EA0163701678000000000000
B0412433207833S11656997EA0162501665000000000000
B0412473207746S11656955EA0161201651000004000000
B0412513207658S11656912EA0160101644000000000000
B0412553207572S11656871EA0159401633000000000000
B0412593207488S11656828EA0158301624000000000000
B0413033207408S11656780EA0158001621000000000000
B0413073207360S11656708EA0157901624000000000000
B0413113207358S11656628EA0158001625000000000000
B0413153207393S11656572EA0157701619000000000000
B0413193207450S11656561EA0156701605000000000000
B0413233207510S11656581EA0155401594000000000000
B0413273207571S11656610EA0154001579000000000000
B0413313207637S11656637EA0152901565000000000000
B0413353207707S11656662EA0151501552000000000000
B0413393207776S11656687EA0150901550000000000000
B0413433207843S11656713EA0150701546000000000000
B0413473207909S11656743EA0150101541000000000000
B0413513207975S11656774EA0149701536000004000000
B0413553208043S11656802EA0149401536000000000000
B0413593208110S11656827EA0149701539000004000000
B0414033208181S11656851EA0149601536000004000000
B0414073208252S11656877EA0149501539000004000000
B0414113208322S11656905EA0150701560000000000000
B0414153208387S11656930EA0152901577000000000000
B0414193208452S11656952EA0153301577000004000000
B0414233208521S11656975EA0152801571000000000000
B0414273208593S11656997EA0152301565000000000000
B0414313208669S11657018EA0151001550000004000000
B0414353208746S11657040EA0150501547000004000000
B0414393208823S11657062EA0150101538000004000000
B0414433208899S11657086EA0148801525000004000000
B0414473208971S11657108EA0148501528000004000000
B0414513209041S11657131EA0148101520000004000000
B0414553209111S11657155EA0147701518000000000000
B0414593209182S11657181EA0147701519000000000000
B0415033209250S11657204EA0147601513000004000000
B0415073209321S11657228EA0146601504000000000000
B0415113209395S11657247EA0145501491000000000000
B0415153209469S11657269EA0144301482000004000000
B0415193209543S11657296EA0143701473000004000000
B0415233209620S11657322EA0142701464000000000000
B0415273209692S11657354EA0141801454000000000000
B0415313209765S11657387EA0140701441000000000000
B0415353209838S11657420EA0139201424000000000000
B0415393209915S11657449EA0137101405000000000000
B0415433209994S11657475EA0135401389000004000000
B0415473210076S11657498EA0133801372000004000000
B0415513210158S11657514EA0133001370000004000000
B0415553210236S11657525EA0132801363000004000000
B0415593210314S11657536EA0132201361000000000000
B0416033210388S11657549EA0132101361000004000000
B0416073210458S11657564EA0133101379000004000000
B0416113210522S11657577EA0135501404000000000000
B0416153210583S11657589EA0137401422000000000000
B0416193210644S11657601EA0138701429000004000000
B0416233210704S11657615EA0139901444000000000000
B0416273210764S11657616EA0142101467000000000000
B0416313210775S11657559EA0145101496000004000000
B0416353210729S11657515EA0145401486000000000000
B0416393210664S11657545EA0145101495000000000000
B0416433210644S11657615EA0146701512000004000000
B0416473210679S11657671EA0147901527000004015000
B0416513210730S11657645EA0150201553000000015000
B0416553210717S11657575EA0152501570000000015000
B0416593210654S11657550EA0153601579000004015000
B0417033210604S11657594EA0154701600000004015000
B0417073210600S11657662EA0156701613000000000000
B0417113210639S11657711EA0158001628000000000000
B0417153210695S11657699EA0160001649000000015000
B0417193210693S11657628EA0162301673000000015000
B0417233210634S11657593EA0164101688000000015000
B0417273210582S11657634EA0165701707000004000000
B0417313210580S11657705EA0167501725000000000000
B0417353210625S11657742EA0169001745000000000000
B0417393210670S11657711EA0171401771000004015000
B0417433210661S11657642EA0173801793000004015000
B0417473210604S11657607EA0175301800000004015000
B0417513210552S11657647EA0176501818000000000000
B0417553210557S11657715EA0177801826000000000000
B0417593210606S11657755EA0178601838000000000000
B0418033210666S11657781EA0179801844000000000000
B0418073210734S11657803EA0179801842000000000000
B0418113210803S11657823EA0180001847000004000000
B0418153210874S11657842EA0180401848000004000000
B0418193210944S11657863EA0180201847000004000000
B0418233211015S11657885EA0178701822000004000000
B0418273211091S11657907EA0176501808000004000000
B0418313211168S11657928EA0176001804000004000000
B0418353211239S11657952EA0175601797000004000000
B0418393211315S11657975EA0174001774000004000000
B0418433211397S11657998EA0171701752000004000000
B0418473211483S11658011EA0170501745000004000000
B0418513211568S11658018EA0169601737000004000000
B0418553211653S11658021EA0169101732000000000000
B0418593211735S11658024EA0168301726000000000000
B0419033211815S11658026EA0167701719000000000000
B0419073211893S11658027EA0167001713000000000000
B0419113211971S11658031EA0166901713000000000000
B0419153212044S11658039EA0166901712000000000000
B0419193212117S11658045EA0166201700000004000000
B0419233212191S11658054EA0164901688000004000000
B0419273212268S11658062EA0163901680000004000000
B0419313212346S11658067EA0163101671000004000000
B0419353212422S11658076EA0162701669000004000000
B0419393212497S11658074EA0163101677000004000000
B0419433212569S11658067EA0163401675000004000000
B0419473212645S11658052EA0162801671000004000000
B0419513212721S11658035EA0162201662000004000000
B0419553212801S11658019EA0161601657000004000000
B0419593212883S11658005EA0161401658000004000000
B0420033212965S11657993EA0161101653000004000000
B0420073213048S11657991EA0160401644000004000000
B0420113213134S11657993EA0159201633000004000000
B0420153213222S11658001EA0157701619000004000000
B0420193213310S11658013EA0157001610000000000000
B0420233213396S11658027EA0156401605000004000000
B0420273213478S11658040EA0155701598000004000000
B0420313213560S11658050EA0154601585000004000000
B0420353213642S11658061EA0153201572000004000000
B0420393213724S11658066EA0152701569000000000000
B0420433213800S11658063EA0152301564000004000000
B0420473213877S11658063EA0151501555000004000000
B0420513213955S11658063EA0150501545000000000000
B0420553214031S11658060EA0151301564000000000000
B0420593214098S11658045EA0153101577000000000000
B0421033214164S11658028EA0152801568000000000000
B0421073214232S11658011EA0152401569000000000000
B0421113214297S11657996EA0152901572000000000000
B0421153214365S11657982EA0152201562000000000000
B0421193214437S11657961EA0151501558000004000000
B0421233214512S11657936EA0151201555000004000000
B0421273214587S11657911EA0151201560000000000000
B0421313214660S11657888EA0150801544000004000000
B0421353214739S11657863EA0149201533000000000000
B0421393214818S11657839EA0148601527000000000000
B0421433214899S11657815EA0147501514000004000000
B0421473214980S11657796EA0146301502000004000000
B0421513215061S11657780EA0145101489000000000000
B0421553215145S11657763EA0143701478000004000000
B0421593215229S11657748EA0142801469000000000000
B0422033215312S11657731EA0141701455000000000000
B0422073215397S11657715EA0140701449000000000000
B0422113215479S11657696EA0140401446000004000000
B0422153215558S11657671EA0139601438000004000000
B0422193215637S11657645EA0138701427000004000000
B0422233215719S11657619EA0137501417000004000000
B0422273215800S11657593EA0136301403000004000000
B0422313215878S11657567EA0135001389000004000000
B0422353215956S11657541EA0134001380000004000000
B0422393216031S11657514EA0133101371000004000000
B0422433216105S11657482EA0132101359000000000000
B0422473216177S11657447EA0130901349000004000000
B0422513216248S11657412EA0130501349000004000000
B0422553216320S11657376EA0130501347000004000000
B0422593216389S11657335EA0130301346000004000000
B0423033216456S11657296EA0130301348000004000000
B0423073216521S11657263EA0130401347000004000000
B0423113216586S11657233EA0130001342000004000000
B0423153216653S11657208EA0128601323000004000000
B0423193216725S11657199EA0127201313000004000000
B0423233216798S11657199EA0127301318000000000000
B0423273216866S11657207EA0127801324000000000000
B0423313216930S11657225EA0128101326000000000000
B0423353216993S11657247EA0128201325000000000000
B0423393217057S11657270EA0127701317000004000000
B0423433217123S11657289EA0127201315000004000000
B0423473217188S11657303EA0127701325000000000000
B0423513217249S11657322EA0128701336000004000000
B0423553217304S11657346EA0130301354000004000000
B0423593217357S11657363EA0132001368000004000000
B0424033217395S11657313EA0133401382000000000000
B0424073217360S11657251EA0134901402000004000000
B0424113217294S11657265EA0136501408000004000000
B0424153217268S11657337EA0136601412000004000000
B0424193217299S11657389EA0137801430000000000000
B0424233217348S11657377EA0139501441000000000000
B0424273217362S11657308EA0140301448000000015000
B0424313217314S11657254EA0141701464000000015000
B0424353217245S11657270EA0142301468000000000000
B0424393217213S11657339EA0142701474000000000000
B0424433217248S11657378EA0144101495000000000000
B0424473217283S11657337EA0145901504000000015000
B0424513217256S11657272EA0146601519000000015000
B0424553217190S11657268EA0148001529000000000000
B0424593217153S11657328EA0148401532000004000000
B0425033217166S11657385EA0149601546000000000000
B0425073217213S11657386EA0150201546000000015000
B0425113217244S11657330EA0150501551000000015000
B0425153217210S11657269EA0151701564000000015000
B0425193217143S11657286EA0152401570000004000000
B0425233217110S11657354EA0153001578000000000000
B0425273217128S11657420EA0153301578000000000000
B0425313217173S11657469EA0153801585000000000000
B0425353217230S11657478EA0154601593000004000000
B0425393217288S11657455EA0154301580000000000000
B0425433217352S11657430EA0153101574000000000000
B0425473217420S11657403EA0152501565000004000000
B0425513217491S11657374EA0151701560000000000000
B0425553217564S11657342EA0152001567000000000000
B0425593217635S11657304EA0153001577000004000000
B0426033217703S11657267EA0154501594000004000000
B0426073217771S11657242EA0155901608000004000000
B0426113217841S11657221EA0156701615000004000000
B0426153217912S11657196EA0156901614000004000000
B0426193217984S11657169EA0156101600000004000000
B0426233218061S11657146EA0153701574000000000000
B0426273218141S11657125EA0152101567000000000000
B0426313218220S11657109EA0152501572000000000000
B0426353218300S11657095EA0153001582000000000000
B0426393218375S11657078EA0154401592000000000000
B0426433218449S11657061EA0155401605000000000000
B0426473218523S11657046EA0156101609000000000000
B0426513218596S11657030EA0155701600000000000000
B0426553218673S11657016EA0154501588000000000000
B0426593218751S11657003EA0153501579000000000000
B0427033218830S11656994EA0152901576000004000000
B0427073218908S11656986EA0152401567000004000000
B0427113218989S11656977EA0151201555000004000000
B0427153219071S11656969EA0149801541000000000000
B0427193219151S11656962EA0149001534000004000000
B0427233219229S11656958EA0148801530000000000000
B0427273219306S11656957EA0148201524000000000000
B0427313219384S11656961EA0147601518000000000000
B0427353219462S11656966EA0146701507000000000000
B0427393219541S11656973EA0145801499000000000000
B0427433219619S11656983EA0145101497000000000000
B0427473219695S11657001EA0144901491000000000000
B0427513219770S11657023EA0144301487000004000000
B0427553219843S11657044EA0144101485000000000000
B0427593219913S11657056EA0144501494000000000000
B0428033219978S11657068EA0145601506000000000000
B0428073220039S11657083EA0146801512000000000000
B0428113220103S11657091EA0146501507000000000000
B0428153220167S11657094EA0145701498000000000000
B0428193220229S11657113EA0145301497000000000000
B0428233220289S11657130EA0145001493000000000000
B0428273220352S11657142EA0144901494000000000000
B0428313220415S11657150EA0145801508000004000000
B0428353220475S11657159EA0147001516000004000000
B0428393220534S11657160EA0147001508000004000000
B0428433220599S11657150EA0145201492000004000000
B0428473220667S11657150EA0144401487000004000000
B0428513220732S11657161EA0144401487000000000000
B0428553220792S11657182EA0145001497000000000000
B0428593220848S11657204EA0146001503000000000000
B0429033220906S11657217EA0145801501000000000000
B0429073220965S11657234EA0145901505000000000000
B0429113221018S11657265EA0147301526000000000000
B0429153221065S11657293EA0149201540000000000000
B0429193221099S11657248EA0150001543000000000000
B0429233221077S11657181EA0150101544000004000000
B0429273221014S11657159EA0149901538000004000000
B0429313220957S11657202EA0150201551000004000000
B0429353220927S11657265EA0151801568000000000000
B0429393220954S11657312EA0153301577000004000000
B0429433220991S11657276EA0153501577000004000000
B0429473220966S11657212EA0153901586000004000000
B0429513220902S11657191EA0154701593000004000000
B0429553220861S11657238EA0155801605000000000000
B0429593220898S11657276EA0156701614000000000000
B0430033220930S11657226EA0158001629000000015000
B0430073220889S11657170EA0158701634000000015000
B0430113220827S11657187EA0159901648000000000000
B0430153220824S11657250EA0160401647000004000000
B0430193220884S11657264EA0160001644000004000000
B0430233220909S11657198EA0161301670000000000000
B0430273220863S11657147EA0163201681000000000000
B0430313220804S11657163EA0163901689000000000000
B0430353220794S11657225EA0165201702000004000000
B0430393220840S11657260EA0166201707000000000000
B0430433220892S11657233EA0166601709000000015000
B0430473220902S11657160EA0166401707000004015000
B0430513220858S11657094EA0165901698000000015000
B0430553220781S11657085EA0165101696000004000000
B0430593220722S11657139EA0165501698000004000000
B0431033220694S11657221EA0165501703000004000000
B0431073220697S11657307EA0166001704000000000000
B0431113220748S11657371EA0165501695000000000000
B0431153220824S11657407EA0164301687000000000000
B0431193220906S11657442EA0163801676000000000000
B0431233220993S11657477EA0161801655000000000000
B0431273221082S11657511EA0160101643000000000000
B0431313221170S11657541EA0158901632000000000000
B0431353221260S11657569EA0157901619000000000000
B0431393221350S11657601EA0156801612000000000000
B0431433221437S11657632EA0156101605000000000000
B0431473221524S11657662EA0155301596000000000000
B0431513221610S11657690EA0154701588000000000000
B0431553221694S11657720EA0153701575000004000000
B0431593221780S11657754EA0152301564000000000000
B0432033221860S11657798EA0151801561000000000000
B0432073221935S11657852EA0151301556000000000000
B0432113222006S11657907EA0150501547000000000000
B0432153222075S11657966EA0149801539000000000000
B0432193222141S11658024EA0148901530000004000000
B0432233222208S11658083EA0148301523000004000000
B0432273222271S11658141EA0147601514000000000000
B0432313222334S11658199EA0146801508000000000000
B0432353222396S11658256EA0145801496000000000000
B0432393222457S11658313EA0145301496000000000000
B0432433222516S11658372EA0145301495000000000000
B0432473222575S11658425EA0146101506000000000000
B0432513222634S11658473EA0146901513000004000000
B0432553222691S11658520EA0147001510000004000000
B0432593222748S11658568EA0146801512000000000000
B0433033222800S11658622EA0147001511000000000000
B0433073222850S11658678EA0147301518000000000000
B0433113222899S11658734EA0148201528000000000000
B0433153222949S11658785EA0149701544000000000000
B0433193222999S11658834EA0150701551000004000000
B0433233223051S11658884EA0151801565000004000000
B0433273223110S11658924EA0152501568000000000000
B0433313223177S11658950EA0153001573000000000000
B0433353223255S11658976EA0151501539000004000000
B0433393223342S11659001EA0148801525000000000000
B0433433223431S11659024EA0148201519000000000000
B0433473223517S11659046EA0147201505000000000000
B0433513223604S11659068EA0145901497000000000000
B0433553223686S11659092EA0145201491000000000000
B0433593223768S11659113EA0144301481000000000000
B0434033223846S11659132EA0143601475000000000000
B0434073223922S11659153EA0143301473000004000000
B0434113223996S11659174EA0142701466000000000000
B0434153224069S11659196EA0143001475000000000000
B0434193224142S11659220EA0143201473000000000000
B0434233224215S11659241EA0142901464000000000000
B0434273224290S11659261EA0141901461000000000000
B0434313224362S11659279EA0142601471000000000000
B0434353224432S11659296EA0143701484000000000000
B0434393224497S11659311EA0144501490000004000000
B0434433224559S11659326EA0145601504000000000000
B0434473224618S11659345EA0146201502000000000000
B0434513224675S11659367EA0145701497000000000000
B0434553224737S11659384EA0144801486000000000000
B0434593224802S11659396EA0144001480000000000000
B0435033224867S11659409EA0144001483000000000000
B0435073224934S11659419EA0143801481000004000000
B0435113225001S11659428EA0144201485000000000000
B0435153225069S11659436EA0144201483000000000000
B0435193225139S11659441EA0144101485000000000000
B0435233225209S11659449EA0143701477000000000000
B0435273225283S11659461EA0143101471000000000000
B0435313225359S11659474EA0142701467000000000000
B0435353225435S11659487EA0142401466000000000000
B0435393225512S11659501EA0142301463000000000000
B0435433225590S11659510EA0142301466000000000000
B0435473225668S11659521EA0141901459000000000000
B0435513225749S11659531EA0141301454000000000000
B0435553225829S11659542EA0140601444000000000000
B0435593225913S11659552EA0139301430000000000000
B0436033225993S11659564EA0138501425000000000000
B0436073226074S11659575EA0137401413000000000000
B0436113226154S11659590EA0136201399000000000000
B0436153226235S11659603EA0135101390000000000000
B0436193226312S11659616EA0135001392000004000000
B0436233226386S11659625EA0135701403000000000000
B0436273226456S11659633EA0136801414000000000000
B0436313226522S11659640EA0137801422000004000000
B0436353226590S11659646EA0137501414000004000000
B0436393226660S11659648EA0136701406000004000000
B0436433226732S11659652EA0135901398000004000000
B0436473226803S11659655EA0135701399000004000000
B0436513226872S11659659EA0136301407000000000000
B0436553226937S11659659EA0137001413000004000000
B0436593226999S11659656EA0137601421000004000000
B0437033227055S11659642EA0138701432000000000000
B0437073227103S11659600EA0139001433000000000000
B0437113227149S11659548EA0139001433000000000000
B0437153227197S11659493EA0137801413000000000000
B0437193227248S11659434EA0136701408000004000000
B0437233227294S11659366EA0136501406000004000000
B0437273227339S11659296EA0136801414000004000000
B0437313227380S11659224EA0137001411000004000000
B0437353227418S11659150EA0137001415000000000000
B0437393227454S11659076EA0136801406000000000000
B0437433227488S11658998EA0135001385000000000000
B0437473227526S11658919EA0133301370000000000000
B0437513227571S11658845EA0132101356000000000000
B0437553227626S11658786EA0130601350000004000000
B0437593227686S11658746EA0131401359000000000000
B0438033227743S11658713EA0132301366000000000000
B0438073227791S11658667EA0132501368000000000000
B0438113227816S11658591EA0132701372000000000000
B0438153227804S11658517EA0133401377000000000000
B0438193227742S11658505EA0133801373000004000000
B0438233227723S11658569EA0132301356000004000000
B0438273227769S11658609EA0131701358000000000000
B0438313227827S11658602EA0131601357000000000000
B0438353227883S11658577EA0131301354000000000000
B0438393227942S11658547EA0130401341000000000000
B0438433228003S11658515EA0129801337000000000000
B0438473228061S11658481EA0129401336000000000000
B0438513228123S11658457EA0129701337000000000000
B0438553228186S11658439EA0128901319000000000000
B0438593228253S11658413EA0127001303000000000000
B0439033228321S11658396EA0126001297000004000000
B0439073228388S11658378EA0125001284000000000000
B0439113228459S11658364EA0124101278000000000000
B0439153228532S11658357EA0123501270000000000000
B0439193228605S11658338EA0123101270000000000000
B0439233228670S11658305EA0123301273000004000000
B0439273228730S11658261EA0122901265000004000000
B0439313228789S11658212EA0122101255000000000000
B0439353228856S11658179EA0121401252000004000000
B0439393228922S11658158EA0121001246000004000000
B0439433228988S11658147EA0119801234000004000000
B0439473229055S11658147EA0119201226000000000000
B0439513229116S11658127EA0119101231000000000000
B0439553229169S11658086EA0119001228000000000000
B0439593229222S11658041EA0119001230000000000000
B0440033229273S11657992EA0118701225000000000000
B0440073229317S11657930EA0117901211000000000000
B0440113229369S11657875EA0117101208000004000000
B0440153229426S11657835EA0117301211000000000000
B0440193229485S11657813EA0117601215000000000000
B0440233229543S11657793EA0118101220000000000000
B0440273229592S11657758EA0119201234000004000000
B0440313229575S11657692EA0121001253000004000000
B0440353229510S11657689EA0121901261000004000000
B0440393229485S11657745EA0122401262000000000000
B0440433229511S11657783EA0122001258000000000000
B0440473229558S11657780EA0121801255000000000000
B0440513229594S11657732EA0121701255000004000000
B0440553229584S11657658EA0122501271000000000000
B0440593229517S11657655EA0124601295000004000000
B0441033229502S11657714EA0125901301000000000000
B0441073229540S11657740EA0126301300000000000000
B0441113229576S11657694EA0126501309000000015000
B0441153229555S11657624EA0128101327000004015000
B0441193229489S11657621EA0129901344000004000000
B0441233229455S11657679EA0131201355000004000000
B0441273229480S11657728EA0131401352000004000000
B0441313229530S11657719EA0131601357000004000000
B0441353229562S11657660EA0132701368000000015000
B0441393229541S11657588EA0133901390000004015000
B0441433229481S11657573EA0136601416000000015000
B0441473229452S11657627EA0138201425000000000000
B0441513229484S11657666EA0139301439000000000000
B0441553229523S11657631EA0140701451000000015000
B0441593229503S11657562EA0141801464000000015000
B0442033229441S11657542EA0143601485000004000000
B0442073229390S11657580EA0145501503000000000000
B0442113229385S11657642EA0146801512000000000000
B0442153229424S11657675EA0148101525000000000000
B0442193229465S11657647EA0149701540000004000000
B0442233229468S11657581EA0150901553000004000000
B0442273229416S11657543EA0152501568000004000000
B0442313229360S11657579EA0153301583000004000000
B0442353229363S11657636EA0155301601000000000000
B0442393229406S11657628EA0156701613000000000000
B0442433229411S11657563EA0157901626000000000000
B0442473229354S11657530EA0158901634000004000000
B0442513229302S11657576EA0160201652000000000000
B0442553229302S11657637EA0162101667000000000000
B0442593229341S11657654EA0163501680000004000000
B0443033229371S11657607EA0164301686000004000000
B0443073229351S11657543EA0165501703000004000000
B0443113229291S11657508EA0166501707000004000000
B0443153229226S11657534EA0167601724000000000000
B0443193229196S11657597EA0168601733000000000000
B0443233229213S11657657EA0169001736000000000000
B0443273229260S11657666EA0169401741000004000000
B0443313229309S11657637EA0169701743000004000000
B0443353229364S11657606EA0170201753000004000000
B0443393229424S11657576EA0171201761000004000000
B0443433229488S11657547EA0171901765000004000000
B0443473229554S11657520EA0171501759000004000000
B0443513229627S11657489EA0171001752000000000000
B0443553229702S11657456EA0170301744000000000000
B0443593229780S11657424EA0169201733000000000000
B0444033229861S11657389EA0168301720000000000000
B0444073229943S11657354EA0167301712000000000000
B0444113230024S11657321EA0166101696000000000000
B0444153230109S11657290EA0164101678000000000000
B0444193230193S11657263EA0163301675000000000000
B0444233230277S11657238EA0162901667000000000000
B0444273230360S11657207EA0161501651000000000000
B0444313230443S11657170EA0160801651000000000000
B0444353230524S11657138EA0160801650000000000000
B0444393230606S11657108EA0160201639000000000000
B0444433230686S11657078EA0159801642000000000000
B0444473230763S11657044EA0160301647000000000000
B0444513230841S11657009EA0160701646000000000000
B0444553230921S11656971EA0160601645000004000000
B0444593230996S11656919EA0160301643000004000000
B0445033231068S11656867EA0160101646000004000000
B0445073231140S11656817EA0160301646000000000000
B0445113231211S11656771EA0160001641000000000000
B0445153231287S11656731EA0158601626000000000000
B0445193231365S11656693EA0157901621000000000000
B0445233231439S11656657EA0157901621000004000000
B0445273231510S11656628EA0158001624000000000000
B0445313231578S11656600EA0158201625000000000000
B0445353231647S11656572EA0158201624000004000000
B0445393231716S11656537EA0157001608000000000000
B0445433231794S11656501EA0154701583000000000000
B0445473231876S11656464EA0153201573000000000000
B0445513231956S11656428EA0152501564000000000000
B0445553232037S11656393EA0151401550000000000000
B0445593232117S11656364EA0150101540000000000000
B0446033232195S11656340EA0149501538000000000000
B0446073232267S11656315EA0149601539000000000000
B0446113232336S11656290EA0149201532000000000000
B0446153232406S11656263EA0149101536000000000000
B0446193232472S11656227EA0149101534000000000000
B0446233232540S11656191EA0148701527000000000000
B0446273232610S11656158EA0147901516000000000000
B0446313232680S11656128EA0147201515000000000000
B0446353232749S11656106EA0147001514000000000000
B0446393232814S11656085EA0147501520000004000000
B0446433232879S11656064EA0146801507000004000000
B0446473232947S11656041EA0145601499000004000000
B0446513233016S11656019EA0145501497000000000000
B0446553233087S11655998EA0144601485000000000000
B0446593233160S11655976EA0144201485000004000000
B0447033233234S11655954EA0144401489000000000000
B0447073233304S11655931EA0145301500000000000000
B0447113233372S11655911EA0145701499000000000000
B0447153233441S11655887EA0145401495000000000000
B0447193233512S11655859EA0144701484000000000000
B0447233233589S11655829EA0143701477000000000000
B0447273233666S11655798EA0143801489000000000000
B0447313233733S11655773EA0145901514000000000000
B0447353233794S11655753EA0148201531000000000000
B0447393233853S11655729EA0149301539000000000000
B0447433233878S11655666EA0150501555000000000000
B0447473233835S11655613EA0151801563000000000000
B0447513233771S11655634EA0152501576000000000000
B0447553233733S11655690EA0153601580000000000000
B0447593233741S11655753EA0153601579000000000000
B0448033233787S11655785EA0154101589000000000000
B0448073233837S11655782EA0155001597000004000000
B0448113233883S11655748EA0155801605000004000000
B0448153233883S11655677EA0157001617000000000000
B0448193233818S11655645EA0157601621000000000000
B0448233233763S11655690EA0158001627000004000000
B0448273233762S11655760EA0158601634000000000000
B0448313233800S11655808EA0159501647000004000000
B0448353233854S11655809EA0160601654000000000000
B0448393233893S11655757EA0162001672000004000000
B0448433233879S11655688EA0163301679000000015000
B0448473233814S11655657EA0163201675000000015000
B0448513233746S11655688EA0163601683000000015000
B0448553233703S11655752EA0164201687000004015000
B0448593233706S11655830EA0164801693000004015000
B0449033233755S11655879EA0165001691000000000000
B0449073233827S11655885EA0164601692000004000000
B0449113233901S11655864EA0164901694000004000000
B0449153233978S11655831EA0164701690000004000000
B0449193234056S11655791EA0164601693000004000000
B0449233234122S11655731EA0166601713000000000000
B0449273234123S11655649EA0169001736000000000000
B0449313234060S11655631EA0170201742000004000000
B0449353234012S11655690EA0170001745000004000000
B0449393233997S11655766EA0171201756000000000000
B0449433234039S11655822EA0172301765000000000000
B0449473234108S11655846EA0171901751000004000000
B0449513234191S11655848EA0169801735000000000000
B0449553234278S11655839EA0168801724000004000000
B0449593234368S11655826EA0167601711000004000000
B0450033234456S11655817EA0166001701000000000000
B0450073234541S11655807EA0165801703000000000000
B0450113234624S11655791EA0165801702000000000000
B0450153234706S11655775EA0165701699000000000000
B0450193234790S11655760EA0165201695000000000000
B0450233234875S11655749EA0164901694000000000000
B0450273234954S11655743EA0166301713000000000000
B0450313235026S11655739EA0168101729000004000000
B0450353235094S11655731EA0169401749000004000000
B0450393235161S11655720EA0171201764000004000000
B0450433235228S11655708EA0172001772000000000000
B0450473235297S11655696EA0172801774000004000000
B0450513235374S11655686EA0171801762000004000000
B0450553235458S11655674EA0171301760000000000000
B0450593235544S11655665EA0171601763000000000000
B0451033235629S11655656EA0171101755000000000000
B0451073235715S11655647EA0170901757000000000000
B0451113235796S11655636EA0171201758000004000000
B0451153235880S11655625EA0171101752000000000000
B0451193235964S11655614EA0169701737000000000000
B0451233236050S11655595EA0168901732000004000000
B0451273236136S11655574EA0167901721000004000000
B0451313236220S11655554EA0166701709000004000000
B0451353236303S11655532EA0166101705000004000000
B0451393236389S11655513EA0164201678000004000000
B0451433236482S11655497EA0162401667000004000000
B0451473236573S11655487EA0162201666000004000000
B0451513236661S11655476EA0162201669000000000000
B0451553236747S11655462EA0162801675000000000000
B0451593236833S11655450EA0163201680000000000000
B0452033236914S11655439EA0164401694000000000000
B0452073236990S11655430EA0165101695000004000000
B0452113237067S11655423EA0164401687000004000000
B0452153237145S11655415EA0163201674000004000000
B0452193237228S11655408EA0161801660000004000000
B0452233237315S11655401EA0160901650000000000000
B0452273237401S11655398EA0159901643000004000000
B0452313237484S11655398EA0159601642000004000000
B0452353237566S11655402EA0159101636000004000000
B0452393237648S11655405EA0158601632000004000000
B0452433237726S11655409EA0158701633000004000000
B0452473237805S11655411EA0158501628000004000000
B0452513237884S11655414EA0157901623000004000000
B0452553237960S11655415EA0157901625000004000000
B0452593238034S11655413EA0157501612000004000000
B0453033238110S11655409EA0156101603000004000000
B0453073238186S11655406EA0155401597000000000000
B0453113238257S11655401EA0155001593000000000000
B0453153238330S11655393EA0154701591000000000000
B0453193238403S11655385EA0154301584000000000000
B0453233238477S11655372EA0153701583000000000000
B0453273238546S11655362EA0153901581000000000000
B0453313238614S11655353EA0153301576000000000000
B0453353238680S11655341EA0152401563000000000000
B0453393238750S11655330EA0150901547000000000000
B0453433238822S11655324EA0149901541000000000000
B0453473238896S11655320EA0149001529000000000000
B0453513238971S11655322EA0148301527000004000000
B0453553239044S11655326EA0148401529000000000000
B0453593239115S11655318EA0149101540000004000000
B0454033239183S11655302EA0150201548000004000000
B0454073239251S11655285EA0149501535000004000000
B0454113239322S11655267EA0148601525000004000000
B0454153239395S11655249EA0147401512000004000000
B0454193239469S11655228EA0146201501000004000000
B0454233239542S11655210EA0145301492000004000000
B0454273239616S11655196EA0144301482000000000000
B0454313239690S11655181EA0143401475000004000000
B0454353239763S11655170EA0142901471000004000000
B0454393239834S11655158EA0142701469000004000000
B0454433239906S11655148EA0142001460000004000000
B0454473239979S11655137EA0141001449000004000000
B0454513240051S11655129EA0139901440000004000000
B0454553240124S11655124EA0139401435000004000000
B0454593240200S11655122EA0138601424000004000000
B0455033240276S11655119EA0137701416000004000000
B0455073240353S11655111EA0137001410000004000000
B0455113240428S11655102EA0136501406000004000000
B0455153240501S11655093EA0136601407000004000000
B0455193240571S11655081EA0136101399000004000000
B0455233240639S11655076EA0136001406000004000000
B0455273240695S11655080EA0137601423000004000000
B0455313240743S11655096EA0138501427000000000000
B0455353240790S11655111EA0137901415000000000000
B0455393240840S11655132EA0136701405000000000000
B0455433240895S11655148EA0136401408000000000000
B0455473240951S11655146EA0137201415000004000000
B0455513240972S11655083EA0137901422000004000000
B0455553240915S11655045EA0138701436000004000000
B0455593240864S11655084EA0139801442000000000000
B0456033240876S11655148EA0140301450000004000000
B0456073240925S11655155EA0141601461000000000000
B0456113240931S11655092EA0142101463000000000000
B0456153240873S11655053EA0142401471000004000000
B0456193240826S11655094EA0143701481000000000000
B0456233240844S11655153EA0144301488000000000000
B0456273240892S11655145EA0145401496000000015000
B0456313240890S11655073EA0145701498000000000000
B0456353240831S11655040EA0146601512000000015000
B0456393240782S11655076EA0147701520000000015000
B0456433240794S11655137EA0147901522000000015000
B0456473240839S11655155EA0148501530000000015000
B0456513240865S11655101EA0149301535000000000000
B0456553240830S11655034EA0149501537000000000000
B0456593240764S11655036EA0150101549000000015000
B0457033240734S11655090EA0151101555000000015000
B0457073240753S11655146EA0151101552000004015000
B0457113240798S11655185EA0150501542000000015000
B0457153240844S11655232EA0149201530000004000000
B0457193240891S11655288EA0148101520000004000000
B0457233240939S11655344EA0146901506000004000000
B0457273240989S11655398EA0145701496000004000000
B0457313241041S11655452EA0146301508000004000000
B0457353241090S11655497EA0147401520000000000000
B0457393241136S11655545EA0148201525000000000000
B0457433241177S11655597EA0148601529000000000000
B0457473241221S11655645EA0148901532000004000000
B0457513241275S11655677EA0149301533000000000000
B0457553241332S11655670EA0148501518000000000000
B0457593241390S11655631EA0146501502000000000000
B0458033241451S11655593EA0145201486000000000000
B0458073241515S11655553EA0143701474000004000000
B0458113241578S11655505EA0143001470000004000000
B0458153241637S11655449EA0142701465000000000000
B0458193241697S11655392EA0142501468000000000000
B0458233241753S11655335EA0143101474000000000000
B0458273241806S11655278EA0143501478000004000000
B0458313241858S11655219EA0143101470000004000000
B0458353241912S11655159EA0142101459000004000000
B0458393241969S11655103EA0141001449000004000000
B0458433242029S11655053EA0140201440000004000000
B0458473242088S11655002EA0139701432000004000000
B0458513242150S11654951EA0138501418000004000000
B0458553242212S11654904EA0137001404000004000000
B0458593242277S11654863EA0136201400000004000000
B0459033242341S11654825EA0136001397000004000000
B0459073242402S11654782EA0135301390000004000000
B0459113242463S11654739EA0134501381000004000000
B0459153242527S11654696EA0133901376000004000000
B0459193242592S11654656EA0133401371000004000000
B0459233242653S11654613EA0132701362000004000000
B0459273242712S11654564EA0132301363000004000000
B0459313242768S11654517EA0132501366000000000000
B0459353242827S11654478EA0132501362000000000000
B0459393242888S11654442EA0131601352000000000000
B0459433242954S11654410EA0131401354000004000000
B0459473243022S11654405EA0132201364000004000000
B0459513243071S11654449EA0134201387000004000000
B0459553243058S11654511EA0136001411000004000000
B0459593243009S11654526EA0137701419000004000000
B0500033242962S11654488EA0138101421000004000000
B0500073242957S11654422EA0138401429000000000000
B0500113242998S11654378EA0139101433000000000000
B0500153243052S11654390EA0139701444000000000000
B0500193243078S11654443EA0140601452000000000000
B0500233243057S11654501EA0141501460000000000000
B0500273243006S11654526EA0142401472000000000000
B0500313242949S11654505EA0143301479000004000000
B0500353242917S11654448EA0144101488000000000000
B0500393242928S11654382EA0144801495000000000000
B0500433242967S11654334EA0145301498000000000000
B0500473243022S11654321EA0145601500000000000000
B0500513243083S11654317EA0145801501000000000000
B0500553243147S11654305EA0145801503000000000000
B0500593243183S11654248EA0147101521000000000000
B0501033243139S11654206EA0148801535000000000000
B0501073243101S11654252EA0149601541000000000000
B0501113243136S11654296EA0150301548000000000000
B0501153243182S11654265EA0151001556000000000000
B0501193243165S11654200EA0151801562000000000000
B0501233243100S11654187EA0152101567000000000000
B0501273243067S11654244EA0153101581000000015000
B0501313243095S11654296EA0154301593000000015000
B0501353243145S11654296EA0155301600000004015000
B0501393243174S11654239EA0155901608000000015000
B0501433243143S11654175EA0157401628000000015000
B0501473243080S11654160EA0158701635000004015000
B0501513243036S11654204EA0159201641000000015000
B0501553243047S11654266EA0160001648000000015000
B0501593243097S11654293EA0160101645000000015000
B0502033243165S11654301EA0159601641000000000000
B0502073243239S11654301EA0160301650000004000000
B0502113243320S11654301EA0159501638000004000000
B0502153243405S11654300EA0159201635000000000000
B0502193243494S11654295EA0157701607000000000000
B0502233243586S11654288EA0155801598000000000000
B0502273243672S11654282EA0155501599000000000000
B0502313243752S11654275EA0156001607000000000000
B0502353243829S11654266EA0156901619000000000000
B0502393243905S11654256EA0157901625000000000000
B0502433243979S11654244EA0159001638000000000000
B0502473244048S11654232EA0161101661000004000000
B0502513244110S11654214EA0162801675000004000000
B0502553244167S11654191EA0165401702000004000000
B0502593244179S11654124EA0167401726000004000000
B0503033244124S11654085EA0168701731000004000000
B0503073244070S11654121EA0169101735000004000000
B0503113244061S11654188EA0170001750000004000000
B0503153244106S11654208EA0171801766000004015000
B0503193244124S11654145EA0173201783000004015000
B0503233244076S11654096EA0174701795000004015000
B0503273244012S11654114EA0175701808000004015000
B0503313243992S11654174EA0177101823000004015000
B0503353244022S11654219EA0178301827000004015000
B0503393244071S11654209EA0179001833000000015000
B0503433244085S11654143EA0180101840000000015000
B0503473244033S11654087EA0180701848000000015000
B0503513243970S11654109EA0181601865000000015000
B0503553243966S11654171EA0183201879000000015000
B0503593244015S11654193EA0183901884000000015000
B0504033244057S11654150EA0185001899000000015000
B0504073244051S11654079EA0186501910000000015000
B0504113243996S11654033EA0186701912000000015000
B0504153243931S11654045EA0187301923000000015000
B0504193243910S11654101EA0188601933000000015000
B0504233243944S11654140EA0188701932000000015000
B0504273243994S11654123EA0189301942000000015000
B0504313243997S11654054EA0190201949000000015000
B0504353243938S11654015EA0190401948000004015000
B0504393243881S11654052EA0190601951000000015000
B0504433243884S11654115EA0191101956000000015000
B0504473243934S11654140EA0190501942000000015000
B0504513244006S11654139EA0189001932000000015000
B0504553244084S11654135EA0188901935000000000000
B0504593244165S11654131EA0188701933000000000000
B0505033244249S11654123EA0188601933000000000000
B0505073244334S11654117EA0189401945000000000000
B0505113244417S11654109EA0190401950000000000000
B0505153244500S11654104EA0189401933000000000000
B0505193244586S11654098EA0188101923000000000000
B0505233244664S11654101EA0188701938000000000000
B0505273244737S11654104EA0190001953000000000000
B0505313244807S11654105EA0190701946000004000000
B0505353244886S11654106EA0189401931000004000000
B0505393244972S11654108EA0187601913000004000000
B0505433245062S11654111EA0186001898000004000000
B0505473245150S11654113EA0185301894000000000000
B0505513245236S11654114EA0185001894000004000000
B0505553245319S11654114EA0185501902000004000000
B0505593245396S11654115EA0186901913000000000000
B0506033245470S11654114EA0187301915000000000000
B0506073245546S11654111EA0187301916000000000000
B0506113245624S11654105EA0187501918000000000000
B0506153245704S11654095EA0187401916000000000000
B0506193245784S11654084EA0187101908000000000000
B0506233245869S11654072EA0185901900000004000000
B0506273245952S11654061EA0185401893000004000000
B0506313246035S11654048EA0184501883000004000000
B0506353246120S11654036EA0183301872000004000000
B0506393246204S11654024EA0182501867000004000000
B0506433246287S11654014EA0182401865000000000000
B0506473246369S11654006EA0181501848000000000000
B0506513246456S11653996EA0179301831000000000000
B0506553246544S11653987EA0178801831000000000000
B0506593246627S11653980EA0178701828000000000000
B0507033246709S11653971EA0178201823000000000000
B0507073246787S11653962EA0177801818000000000000
B0507113246865S11653955EA0177301811000000000000
B0507153246944S11653950EA0176601805000000000000
B0507193247023S11653945EA0175701794000000000000
B0507233247104S11653941EA0174301781000000000000
B0507273247186S11653940EA0173201770000000000000
B0507313247268S11653935EA0172301761000000000000
B0507353247348S11653931EA0171301750000000000000
B0507393247429S11653924EA0171001750000000000000
B0507433247507S11653919EA0170801747000000000000
B0507473247582S11653914EA0170501744000000000000
B0507513247654S11653910EA0170301742000000000000
B0507553247721S11653907EA0169701733000000000000
B0507593247790S11653903EA0168901726000000000000
B0508033247860S11653901EA0168301723000000000000
B0508073247929S11653897EA0169301739000000000000
B0508113247990S11653892EA0170301745000000000000
B0508153248053S11653884EA0169801736000004000000
B0508193248120S11653874EA0168801727000004000000
B0508233248192S11653861EA0168201722000004000000
B0508273248267S11653851EA0168001721000004000000
B0508313248343S11653842EA0167601715000004000000
B0508353248417S11653836EA0167101709000004000000
B0508393248490S11653835EA0166701706000004000000
B0508433248559S11653833EA0166401706000004000000
B0508473248625S11653831EA0166101699000004000000
B0508513248692S11653833EA0165501694000000000000
B0508553248760S11653835EA0165201693000004000000
B0508593248826S11653841EA0164801685000000000000
B0509033248895S11653851EA0163901677000000000000
B0509073248964S11653864EA0163101668000000000000
B0509113249033S11653881EA0162001656000000000000
B0509153249102S11653898EA0161201649000000000000
B0509193249173S11653913EA0160301640000000000000
B0509233249244S11653926EA0159601634000000000000
B0509273249316S11653937EA0158501619000000000000
B0509313249389S11653948EA0157401612000000000000
B0509353249462S11653957EA0156601604000000000000
B0509393249530S11653968EA0156301603000000000000
B0509433249600S11653976EA0155401585000000000000
B0509473249677S11653988EA0153401566000000000000
B0509513249757S11654004EA0152001557000000000000
B0509553249831S11654019EA0151601554000000000000
B0509593249899S11654040EA0151401556000000000000
B0510033249960S11654063EA0152701574000004000000
B0510073250015S11654085EA0154701598000000000000
B0510113250061S11654084EA0157401624000000000000
B0510153250078S11654028EA0159001633000000000000
B0510193250041S11653975EA0159701639000000000000
B0510233249977S11653992EA0160401652000000000000
B0510273249950S11654057EA0161501659000000000000
B0510313249972S11654111EA0161701657000000015000
B0510353250026S11654119EA0162301670000004015000
B0510393250055S11654065EA0164001685000004000000
B0510433250021S11654006EA0165101695000004015000
B0510473249957S11654006EA0165701698000004015000
B0510513249917S11654063EA0166101706000004015000
B0510553249927S11654127EA0166601712000004015000
B0510593249969S11654157EA0167601723000004015000
B0511033250012S11654136EA0169101738000004000000
B0511073250009S11654078EA0170501749000004015000
B0511113249952S11654053EA0170801749000004015000
B0511153249904S11654101EA0171401760000004015000
B0511193249904S11654170EA0172301766000004015000
B0511233249940S11654210EA0173101774000000015000
B0511273249985S11654192EA0173701781000004015000
B0511313249992S11654130EA0174901796000004015000
B0511353249940S11654097EA0176001806000004015000
B0511393249882S11654128EA0176601811000004015000
B0511433249865S11654199EA0177001816000000015000
B0511473249891S11654254EA0177401813000004015000
B0511513249943S11654288EA0176401801000000015000
B0511553250004S11654317EA0175401790000000000000
B0511593250072S11654344EA0174501785000000000000
B0512033250142S11654368EA0174701788000000000000
B0512073250211S11654390EA0174601784000000000000
B0512113250284S11654407EA0173101763000000000000
B0512153250356S11654423EA0170901744000004000000
B0512193250432S11654436EA0169601734000000000000
B0512233250505S11654448EA0168601720000004000000
B0512273250580S11654457EA0166801702000000000000
B0512313250657S11654468EA0165901693000004000000
B0512353250733S11654478EA0165101683000004000000
B0512393250811S11654488EA0164001677000004000000
B0512433250889S11654499EA0164001680000000000000
B0512473250966S11654505EA0164501686000004000000
B0512513251043S11654509EA0164801690000004000000
B0512553251121S11654514EA0165101693000004000000
B0512593251196S11654518EA0165401695000004000000
B0513033251266S11654520EA0166401710000000000000
B0513073251334S11654520EA0166501699000004000000
B0513113251403S11654524EA0164601678000000000000
B0513153251480S11654525EA0162701666000000000000
B0513193251556S11654525EA0162201662000000000000
B0513233251636S11654527EA0161601655000000000000
B0513273251718S11654531EA0161101653000000000000
B0513313251796S11654540EA0162201667000000000000
B0513353251871S11654553EA0162201662000000000000
B0513393251949S11654570EA0161101650000000000000
B0513433252031S11654589EA0159801630000000000000
B0513473252118S11654605EA0157901615000000000000
B0513513252200S11654620EA0157901624000000000000
B0513553252275S11654633EA0157901612000000000000
B0513593252356S11654646EA0156101595000000000000
B0514033252438S11654660EA0155101589000000000000
B0514073252518S11654673EA0154501584000000000000
B0514113252600S11654685EA0153001564000000000000
B0514153252681S11654691EA0151901559000000000000
B0514193252760S11654694EA0151801557000000000000
B0514233252836S11654691EA0151501554000000000000
B0514273252910S11654686EA0151101550000000000000
B0514313252982S11654683EA0151201561000000000000
B0514353253050S11654681EA0152901578000000000000
B0514393253107S11654673EA0155401611000004000000
B0514433253148S11654648EA0157901625000000000000
B0514473253140S11654590EA0158301627000000000000
B0514513253081S11654573EA0158601632000000000000
B0514553253037S11654618EA0159201637000000000000
B0514593253041S11654685EA0159101637000000015000
B0515033253081S11654726EA0159801645000000015000
B0515073253118S11654682EA0160401653000000015000
B0515113253080S11654635EA0161801664000000015000
B0515153253024S11654670EA0162001668000000015000
B0515193253023S11654738EA0162801675000004015000
B0515233253075S11654764EA0162901681000000015000
B0515273253127S11654728EA0163801685000000030000
B0515313253145S11654655EA0163701682000000015000
B0515353253106S11654586EA0164201692000000015000
B0515393253038S11654552EA0164901697000004015000
B0515433252971S11654578EA0165801707000004015000
B0515473252933S11654646EA0166701716000004015000
B0515513252938S11654721EA0167201717000000015000
B0515553252984S11654771EA0167401724000000030000
B0515593253045S11654778EA0168001726000000030000
B0516033253107S11654771EA0167501712000000015000
B0516073253181S11654756EA0165801703000000015000
B0516113253261S11654739EA0165901706000000015000
B0516153253341S11654717EA0166301713000000015000
B0516193253421S11654699EA0166901718000000015000
B0516233253501S11654685EA0166301706000000000000
B0516273253584S11654673EA0165501700000004000000
B0516313253666S11654652EA0165301698000000000000
B0516353253743S11654617EA0165301697000000000000
B0516393253817S11654573EA0165101699000000000000
B0516433253885S11654525EA0165901708000000000000
B0516473253948S11654477EA0165901703000000000000
B0516513254011S11654422EA0165501697000000000000
B0516553254081S11654374EA0164601692000000000000
B0516593254154S11654335EA0165801708000000000000
B0517033254221S11654295EA0167101720000000000000
B0517073254293S11654267EA0167201718000000000000
B0517113254366S11654251EA0167501721000000000000
B0517153254441S11654241EA0167801726000004000000
B0517193254516S11654238EA0167701721000004000000
B0517233254592S11654238EA0167101716000004000000
B0517273254667S11654243EA0166101704000000000000
B0517313254744S11654256EA0164401684000000000000
B0517353254826S11654271EA0162201662000000000000
B0517393254910S11654283EA0160501647000000000000
B0517433254994S11654271EA0160201650000000000000
B0517473255068S11654239EA0160301649000000000000
B0517513255138S11654199EA0159601636000000000000
B0517553255211S11654153EA0157701616000000000000
B0517593255285S11654105EA0156801612000000000000
B0518033255356S11654056EA0156101603000000000000
B0518073255429S11654004EA0154901591000000000000
B0518113255504S11653948EA0154101586000000000000
B0518153255576S11653892EA0153901583000000000000
B0518193255649S11653840EA0153301574000000000000
B0518233255722S11653788EA0152001559000000000000
B0518273255798S11653737EA0150401544000004000000
B0518313255876S11653690EA0149201535000004000000
B0518353255953S11653646EA0148501529000004000000
B0518393256027S11653604EA0148301528000000000000
B0518433256099S11653563EA0147501517000000000000
B0518473256169S11653524EA0146801506000000000000
B0518513256242S11653487EA0145601497000000000000
B0518553256313S11653450EA0144401483000000000000
B0518593256385S11653411EA0143701481000000000000
B0519033256455S11653378EA0143301479000000000000
B0519073256518S11653351EA0144901500000000000000
B0519113256570S11653324EA0147201520000000000000
B0519153256572S11653266EA0149301542000000000000
B0519193256509S11653263EA0150501554000000000000
B0519233256486S11653331EA0151901564000000015000
B0519273256521S11653383EA0151601557000004015000
B0519313256573S11653368EA0151301558000004015000
B0519353256594S11653308EA0152001570000004015000
B0519393256576S11653243EA0153901590000004015000
B0519433256516S11653246EA0156301614000004015000
B0519473256494S11653313EA0158101629000000015000
B0519513256533S11653360EA0159101632000000030000
B0519553256570S11653326EA0159801646000000030000
B0519593256534S11653269EA0161201664000000030000
B0520033256470S11653287EA0163901700000000030000
B0520073256450S11653351EA0166401709000004030000
B0520113256472S11653415EA0166001700000000030000
B0520153256521S11653430EA0164901688000000030000
B0520193256554S11653374EA0163101668000000030000
B0520233256554S11653292EA0162701672000004030000
B0520273256503S11653243EA0164201696000004030000
B0520313256453S11653296EA0166501715000004015000
B0520353256479S11653361EA0167701719000004030000
B0520393256537S11653347EA0168301730000004030000
B0520433256539S11653270EA0168901737000004030000
B0520473256478S11653224EA0170201758000004030000
B0520513256439S11653285EA0172601782000004030000
B0520553256483S11653322EA0174601800000004030000
B0520593256518S11653277EA0175801806000000030000
B0521033256503S11653201EA0176401816000004030000
B0521073256434S11653187EA0178101839000000015000
B0521113256407S11653253EA0181001867000000015000
B0521153256444S11653292EA0183101886000004030000
B0521193256478S11653263EA0184501890000000030000
B0521233256461S11653198EA0185101900000000030000
B0521273256396S11653179EA0186701921000000015000
B0521313256342S11653225EA0188401931000000015000
B0521353256348S11653299EA0189201939000004015000
B0521393256403S11653322EA0189901945000000030000
B0521433256439S11653268EA0190001948000000030000
B0521473256439S11653188EA0190401955000004015000
B0521513256404S11653118EA0191801970000004015000
B0521553256342S11653123EA0194401993000004015000
B0521593256318S11653187EA0194401972000004015000
B0522033256365S11653237EA0192101959000004015000
B0522073256437S11653242EA0191801961000004015000
B0522113256511S11653230EA0191801959000004015000
B0522153256590S11653209EA0190301942000004015000
B0522193256676S11653182EA0188401925000004015000
B0522233256765S11653156EA0187401917000004015000
B0522273256855S11653136EA0186601910000004015000
B0522313256945S11653120EA0185601900000004000000
B0522353257031S11653103EA0185401901000004000000
B0522393257115S11653090EA0185201897000004000000
B0522433257196S11653081EA0185201898000004000000
B0522473257271S11653075EA0185801907000004000000
B0522513257347S11653071EA0185001887000004000000
B0522553257428S11653073EA0184001888000004000000
B0522593257509S11653075EA0184801891000004000000
B0523033257588S11653070EA0185401900000000000000
B0523073257668S11653058EA0184701883000000000000
B0523113257752S11653048EA0183101870000000000000
B0523153257835S11653040EA0182301864000004000000
B0523193257922S11653036EA0181501855000004000000
B0523233258010S11653030EA0180701849000004000000
B0523273258098S11653022EA0180301846000004000000
B0523313258182S11653008EA0179801840000004000000
B0523353258267S11652988EA0178701829000004000000
B0523393258350S11652966EA0178201825000004000000
B0523433258433S11652951EA0177401817000004000000
B0523473258517S11652935EA0177301819000000000000
B0523513258597S11652921EA0176901810000000000000
B0523553258678S11652906EA0176001802000000000000
B0523593258757S11652896EA0175201795000000000000
B0524033258836S11652891EA0174401787000000000000
B0524073258917S11652886EA0172801768000004000000
B0524113259005S11652882EA0171301753000000000000
B0524153259095S11652875EA0170601749000000000000
B0524193259183S11652866EA0170301746000000000000
B0524233259272S11652856EA0169501735000000000000
B0524273259360S11652848EA0168301725000000000000
B0524313259449S11652836EA0167801721000000000000
B0524353259534S11652818EA0167301718000000000000
B0524393259619S11652797EA0166501707000004000000
B0524433259705S11652775EA0165601700000000000000
B0524473259789S11652753EA0165301700000000000000
B0524513259871S11652732EA0165501700000000000000
B0524553259953S11652714EA0164701688000000000000
B0524593300035S11652694EA0163601678000000000000
B0525033300117S11652678EA0162301664000000000000
B0525073300199S11652662EA0161201654000000000000
B0525113300281S11652645EA0160501649000000000000
B0525153300364S11652629EA0160201647000000000000
B0525193300446S11652610EA0160501654000000000000
B0525233300525S11652590EA0160601651000000000000
B0525273300608S11652571EA0159601637000000000000
B0525313300688S11652553EA0159501641000000000000
B0525353300762S11652536EA0159301635000004000000
B0525393300834S11652522EA0158001622000000000000
B0525433300910S11652509EA0156901608000000000000
B0525473300987S11652496EA0155701598000000000000
B0525513301063S11652485EA0154901592000000000000
B0525553301137S11652475EA0155201597000004000000
B0525593301206S11652455EA0155601600000004000000
B0526033301274S11652432EA0156001606000004000000
B0526073301341S11652406EA0156101603000004000000
B0526113301409S11652377EA0155801601000004000000
B0526153301477S11652353EA0155501599000000000000
B0526193301544S11652329EA0155601599000000000000
B0526233301611S11652332EA0155501597000000000000
B0526273301664S11652380EA0155101589000000000000
B0526313301694S11652460EA0153601575000000000000
B0526353301691S11652562EA0152701569000000000000
B0526393301661S11652663EA0152101560000000000000
B0526433301617S11652765EA0150301542000000000000
B0526473301568S11652866EA0149001533000000000000
B0526513301516S11652962EA0148301525000000000000
B0526553301466S11653056EA0147401516000000000000
B0526593301418S11653149EA0146501507000000000000
B0527033301370S11653239EA0146001501000000000000
B0527073301322S11653328EA0145201493000000000000
B0527113301270S11653413EA0144101480000004000000
B0527153301217S11653498EA0142801469000004000000
B0527193301158S11653577EA0142101464000000000000
B0527233301098S11653650EA0141601459000004000000
B0527273301039S11653720EA0141101452000004000000
B0527313300976S11653788EA0140901451000004000000
B0527353300919S11653861EA0140801452000000000000
B0527393300866S11653937EA0141201457000000000000
B0527433300814S11654014EA0141801467000000000000
B0527473300766S11654088EA0143201480000004000000
B0527513300749S11654163EA0143901486000004000000
B0527553300756S11654234EA0144701495000004000000
B0527593300785S11654283EA0146201511000000000000
B0528033300815S11654248EA0147501518000000015000
B0528073300777S11654184EA0147201512000000015000
B0528113300704S11654187EA0147401521000000015000
B0528153300665S11654248EA0148201530000000015000
B0528193300678S11654306EA0149001538000000015000
B0528233300720S11654321EA0149701540000000015000
B0528273300754S11654280EA0150101547000000015000
B0528313300740S11654210EA0150801551000000015000
B0528353300677S11654173EA0151101554000000015000
B0528393300610S11654196EA0151501558000000015000
B0528433300574S11654260EA0151701564000000015000
B0528473300559S11654330EA0152201565000000030000
B0528513300551S11654405EA0151501555000000015000
B0528553300535S11654490EA0150001538000004015000
B0528593300502S11654579EA0148401521000004015000
B0529033300454S11654667EA0146801501000000015000
B0529073300398S11654752EA0145101490000000015000
B0529113300342S11654837EA0144001480000004000000
B0529153300283S11654921EA0143101470000004000000
B0529193300223S11655006EA0142401466000000000000
B0529233300164S11655092EA0141001449000000000000
B0529273300104S11655176EA0140101443000000000000
B0529313300047S11655259EA0139001431000000000000
B0529353259988S11655343EA0137901420000000000000
B0529393259928S11655423EA0137101410000000000000
B0529433259869S11655505EA0136101399000000000000
B0529473259807S11655586EA0135301394000000000000
B0529513259748S11655665EA0134401383000000000000
B0529553259685S11655746EA0133101370000000000000
B0529593259624S11655826EA0131801357000000000000
B0530033259563S11655907EA0130801349000000000000
B0530073259505S11655986EA0130001341000000000000
B0530113259447S11656067EA0130801355000000000000
B0530153259403S11656141EA0132801376000004000000
B0530193259398S11656212EA0134301382000004000000
B0530233259433S11656267EA0133901380000004015000
B0530273259472S11656319EA0133801376000004015000
B0530313259510S11656379EA0133401378000004000000
B0530353259549S11656436EA0134301392000004000000
B0530393259597S11656472EA0136201408000004000000
B0530433259644S11656441EA0137101415000004015000
B0530473259636S11656371EA0137401420000004015000
B0530513259581S11656334EA0138601431000004015000
B0530553259523S11656355EA0139101433000000015000
B0530593259498S11656422EA0139401439000000015000
B0531033259524S11656481EA0140201450000000030000
B0531073259579S11656490EA0141101455000000030000
B0531113259623S11656444EA0141301457000004030000
B0531153259614S11656368EA0141501459000004030000
B0531193259555S11656323EA0141901464000000015000
B0531233259489S11656341EA0142701470000004015000
B0531273259459S11656410EA0143001475000004015000
B0531313259486S11656468EA0144101486000004030000
B0531353259537S11656461EA0144601491000004030000
B0531393259558S11656398EA0145401496000004030000
B0531433259541S11656328EA0145401491000004015000
B0531473259481S11656279EA0144901492000000015000
B0531513259414S11656273EA0145301493000000015000
B0531553259354S11656316EA0145001488000000015000
B0531593259310S11656386EA0143901478000004015000
B0532033259271S11656468EA0143501478000004015000
B0532073259237S11656550EA0144001485000000015000
B0532113259203S11656635EA0144101482000004015000
B0532153259170S11656721EA0144001488000004015000
B0532193259143S11656806EA0144601487000000015000
B0532233259111S11656893EA0143701474000000000000
B0532273259070S11656979EA0142401462000004000000
B0532313259022S11657062EA0141501455000004000000
B0532353258973S11657143EA0141901466000004000000
B0532393258926S11657224EA0142801475000004000000
B0532433258877S11657303EA0144101487000004000000
B0532473258849S11657385EA0145801503000004000000
B0532513258890S11657412EA0148001524000000015000
B0532553258903S11657354EA0149101535000004015000
B0532593258860S11657300EA0150201549000004015000
B0533033258792S11657294EA0150801549000004015000
B0533073258740S11657348EA0150501538000004015000
B0533113258695S11657424EA0148701517000000015000
B0533153258644S11657514EA0145801481000000015000
B0533193258595S11657620EA0142501457000004015000
B0533233258548S11657727EA0141501459000000015000
B0533273258504S11657828EA0141701456000004015000
B0533313258458S11657927EA0141101452000004000000
B0533353258414S11658024EA0140901449000004000000
B0533393258368S11658118EA0140601447000004000000
B0533433258324S11658208EA0140401446000004000000
B0533473258281S11658294EA0140101441000004000000
B0533513258237S11658377EA0139901441000004000000
B0533553258195S11658455EA0140101444000004000000
B0533593258156S11658531EA0139901438000004000000
B0534033258117S11658612EA0139101429000004000000
B0534073258077S11658695EA0138601426000000000000
B0534113258037S11658778EA0137901417000004000000
B0534153257998S11658862EA0137301413000004000000
B0534193257959S11658946EA0136701406000004000000
B0534233257917S11659032EA0136401402000004000000
B0534273257873S11659119EA0136001400000004000000
B0534313257828S11659206EA0136101402000004000000
B0534353257787S11659293EA0137501430000004000000
B0534393257787S11659363EA0140401451000004015000
B0534433257834S11659369EA0141101451000004015000
B0534473257851S11659310EA0141501459000000015000
B0534513257817S11659250EA0142101463000000015000
B0534553257753S11659231EA0142901473000000015000
B0534593257718S11659289EA0144101486000000015000
B0535033257756S11659319EA0145001491000000030000
B0535073257785S11659269EA0144901486000000030000
B0535113257747S11659202EA0144901496000000030000
B0535153257681S11659171EA0146201505000000030000
B0535193257616S11659204EA0147001512000000030000
B0535233257595S11659272EA0147201508000000030000
B0535273257587S11659357EA0145601485000000015000
B0535313257558S11659451EA0143301467000004015000
B0535353257522S11659547EA0141801451000000015000
B0535393257480S11659646EA0139701432000000015000
B0535433257432S11659743EA0138101417000000015000
B0535473257373S11659831EA0137301409000000015000
B0535513257305S11659912EA0136201402000000015000
B0535553257233S11659986EA0135801400000000000000
B0535593257163S11700056EA0135401394000000000000
B0536033257092S11700121EA0134701386000000000000
B0536073257020S11700185EA0133901378000004000000
B0536113256950S11700249EA0133001370000004000000
B0536153256880S11700314EA0132601367000000000000
B0536193256811S11700375EA0132301365000000000000
B0536233256743S11700435EA0132001364000000000000
B0536273256676S11700489EA0132201363000004000000
B0536313256611S11700539EA0131701359000004000000
B0536353256548S11700585EA0131401356000004000000
B0536393256489S11700628EA0131301352000000000000
B0536433256426S11700669EA0129901332000000000000
B0536473256362S11700719EA0127801312000000000000
B0536513256305S11700779EA0126501303000000000000
B0536553256252S11700842EA0125201285000000000000
B0536593256204S11700914EA0123301267000000000000
B0537033256162S11700995EA0121901255000004000000
B0537073256128S11701078EA0121701256000000000000
B0537113256104S11701163EA0121701256000000000000
B0537153256083S11701245EA0121901258000000000000
B0537193256062S11701324EA0121601253000000000000
B0537233256040S11701397EA0121701261000000000000
B0537273256014S11701462EA0122801271000000000000
B0537313255988S11701525EA0123701281000000000000
B0537353255963S11701588EA0125001292000000000000
B0537393255935S11701655EA0126001305000000000000
B0537433255883S11701709EA0127801323000000000000
B0537473255815S11701698EA0129101342000000000000
B0537513255780S11701640EA0131301360000000000000
B0537553255783S11701575EA0132401369000000000000
B0537593255819S11701532EA0133901391000000000000
B0538033255854S11701533EA0136401402000000015000
B0538073255872S11701581EA0138201403000000015000
B0538113255853S11701659EA0138601418000000015000
B0538153255798S11701718EA0140801438000000015000
B0538193255725S11701724EA0142301454000000015000
B0538233255670S11701675EA0143601470000000015000
B0538273255654S11701602EA0144901483000004015000
B0538313255676S11701529EA0145301486000000015000
B0538353255724S11701476EA0146201497000000015000
B0538393255781S11701467EA0148101521000000015000
B0538433255803S11701519EA0150201550000000015000
B0538473255766S11701577EA0152001558000000015000
B0538513255696S11701585EA0153001578000004030000
B0538553255649S11701532EA0154501590000004030000
B0538593255660S11701468EA0156101605000004015000
B0539033255703S11701468EA0156901613000004015000
B0539073255718S11701523EA0157701618000004030000
B0539113255686S11701590EA0158301624000004030000
B0539153255618S11701610EA0159701647000004030000
B0539193255560S11701568EA0161501663000004030000
B0539233255549S11701498EA0162001663000004030000
B0539273255582S11701442EA0162101667000004015000
B0539313255636S11701443EA0162701674000004015000
B0539353255655S11701503EA0163701687000004030000
B0539393255614S11701564EA0165301703000004030000
B0539433255542S11701585EA0166601711000000030000
B0539473255475S11701546EA0167401721000000030000
B0539513255434S11701475EA0167501713000000030000
B0539553255437S11701393EA0167401723000004030000
B0539593255465S11701319EA0168201727000004015000
B0540033255514S11701260EA0168501729000004015000
B0540073255579S11701229EA0169201736000004015000
B0540113255642S11701230EA0170501751000000015000
B0540153255673S11701285EA0171901774000004015000
B0540193255640S11701338EA0174401798000000030000
B0540233255584S11701324EA0176301813000000015000
B0540273255566S11701255EA0177501823000000015000
B0540313255601S11701196EA0178301826000004015000
B0540353255659S11701189EA0178601833000004015000
B0540393255697S11701238EA0179801848000000030000
B0540433255688S11701307EA0181001854000000030000
B0540473255631S11701341EA0182201874000000030000
B0540513255580S11701299EA0184301897000000030000
B0540553255577S11701229EA0185901908000000030000
B0540593255620S11701178EA0186701918000000015000
B0541033255677S11701186EA0188101934000000015000
B0541073255706S11701238EA0189501941000000030000
B0541113255689S11701297EA0189701939000004030000
B0541153255634S11701324EA0189201934000004030000
B0541193255573S11701294EA0189501946000004030000
B0541233255524S11701235EA0190301951000000015000
B0541273255514S11701150EA0190801955000004015000
B0541313255556S11701082EA0191101958000004015000
B0541353255624S11701068EA0191401961000004015000
B0541393255681S11701111EA0191601958000004015000
B0541433255706S11701187EA0191101952000004015000
B0541473255696S11701271EA0190601947000000030000
B0541513255667S11701349EA0189801936000004015000
B0541553255632S11701427EA0188701926000000015000
B0541593255597S11701505EA0188801933000000015000
B0542033255560S11701580EA0189601941000000015000
B0542073255525S11701654EA0189601937000004015000
B0542113255488S11701732EA0188401925000000015000
B0542153255443S11701815EA0187801919000000015000
B0542193255395S11701898EA0187401914000004000000
B0542233255348S11701983EA0186901911000000000000
B0542273255299S11702069EA0186301904000004000000
B0542313255248S11702156EA0185201892000000000000
B0542353255194S11702242EA0184201884000004000000
B0542393255140S11702327EA0183701878000004000000
B0542433255091S11702413EA0183401873000004000000
B0542473255043S11702496EA0182901867000004000000
B0542513254997S11702581EA0182201861000000000000
B0542553254956S11702665EA0182101862000000000000
B0542593254914S11702747EA0181701857000000000000
B0543033254873S11702829EA0181201852000000000000
B0543073254832S11702911EA0180701848000000000000
B0543113254793S11702993EA0180301843000000000000
B0543153254752S11703075EA0179701836000000000000
B0543193254711S11703157EA0179101830000000000000
B0543233254670S11703240EA0178301820000000000000
B0543273254624S11703326EA0177201811000000000000
B0543313254576S11703409EA0176501806000000000000
B0543353254527S11703490EA0176001801000004000000
B0543393254475S11703569EA0175201792000004000000
B0543433254422S11703647EA0174401784000004000000
B0543473254368S11703728EA0173801778000004000000
B0543513254316S11703806EA0173601778000004000000
B0543553254266S11703882EA0173701779000004000000
B0543593254214S11703956EA0173401776000004000000
B0544033254162S11704029EA0173401776000004000000
B0544073254108S11704097EA0173401775000004000000
B0544113254055S11704164EA0172901769000004000000
B0544153254003S11704235EA0172301761000004000000
B0544193253948S11704305EA0171301750000004000000
B0544233253894S11704375EA0170101738000000000000
B0544273253838S11704445EA0168901726000000000000
B0544313253782S11704518EA0168301723000000000000
B0544353253725S11704589EA0168601729000000000000
B0544393253668S11704662EA0168701728000000000000
B0544433253614S11704735EA0169901744000000000000
B0544473253579S11704812EA0171201760000000000000
B0544513253599S11704875EA0172901778000000000000
B0544553253645S11704896EA0174201785000000015000
B0544593253690S11704866EA0174601787000000015000
B0545033253690S11704799EA0174601787000004015000
B0545073253638S11704749EA0174401785000004015000
B0545113253569S11704727EA0174601793000004015000
B0545153253499S11704722EA0175401798000000000000
B0545193253430S11704757EA0174701786000000000000
B0545233253371S11704822EA0173901780000000000000
B0545273253319S11704899EA0173001769000000000000
B0545313253267S11704982EA0172001756000000000000
B0545353253215S11705070EA0171101753000000000000
B0545393253166S11705160EA0171101749000000000000
B0545433253119S11705254EA0170301742000000000000
B0545473253072S11705349EA0169201730000000000000
B0545513253024S11705442EA0168001718000000000000
B0545553252972S11705533EA0166901708000000000000
B0545593252919S11705623EA0166101703000000000000
B0546033252869S11705711EA0166201704000000000000
B0546073252820S11705797EA0166201703000000000000
B0546113252773S11705882EA0166201705000000000000
B0546153252726S11705961EA0166401705000000000000
B0546193252681S11706036EA0166201702000000000000
B0546233252638S11706113EA0165201692000004000000
B0546273252592S11706188EA0164701686000004000000
B0546313252547S11706264EA0163901679000004000000
B0546353252501S11706343EA0163801679000000000000
B0546393252461S11706420EA0164901698000000000000
B0546433252457S11706493EA0166801717000004000000
B0546473252503S11706513EA0168501727000004000000
B0546513252535S11706458EA0168701726000004000000
B0546553252514S11706381EA0169101735000004015000
B0546593252457S11706343EA0170101744000004015000
B0547033252401S11706378EA0170501744000004015000
B0547073252368S11706446EA0170201743000004015000
B0547113252338S11706516EA0170501746000004000000
B0547153252306S11706589EA0170101739000004000000
B0547193252274S11706667EA0169101728000004000000
B0547233252240S11706751EA0168201718000004000000
B0547273252201S11706838EA0167001705000004000000
B0547313252157S11706927EA0165601691000000000000
B0547353252109S11707015EA0164401682000000000000
B0547393252059S11707101EA0163901679000000000000
B0547433252007S11707182EA0163201669000000000000
B0547473251957S11707266EA0161801656000000000000
B0547513251905S11707352EA0160901647000000000000
B0547553251851S11707434EA0160801650000000000000
B0547593251798S11707512EA0160501642000000000000
B0548033251745S11707590EA0159801636000000000000
B0548073251692S11707670EA0158401616000000000000
B0548113251637S11707756EA0156901605000000000000
B0548153251584S11707843EA0156201599000004000000
B0548193251534S11707927EA0156101601000000000000
B0548233251487S11708008EA0155901597000004000000
B0548273251441S11708088EA0155001586000004000000
B0548313251395S11708168EA0154201575000000000000
B0548353251346S11708249EA0153001565000000000000
B0548393251298S11708328EA0152701565000004000000
B0548433251252S11708406EA0152401560000000000000
B0548473251208S11708486EA0151501551000000000000
B0548513251162S11708562EA0150701543000000000000
B0548553251121S11708639EA0150501545000004000000
B0548593251081S11708713EA0150801548000004000000
B0549033251042S11708786EA0150201540000004000000
B0549073251004S11708865EA0149101523000000000000
B0549113250964S11708951EA0147701511000000000000
B0549153250925S11709034EA0147101507000000000000
B0549193250884S11709115EA0146501500000000000000
B0549233250843S11709193EA0145901496000004000000
B0549273250802S11709269EA0145101487000000000000
B0549313250762S11709344EA0144501483000000000000
B0549353250720S11709416EA0143501471000004000000
B0549393250681S11709490EA0142501457000004000000
B0549433250642S11709566EA0141201446000000000000
B0549473250603S11709643EA0140701446000000000000
B0549513250572S11709715EA0141401456000000000000
B0549553250544S11709786EA0141701450000000000000
B0549593250512S11709858EA0139901430000000000000
B0550033250479S11709935EA0138501416000004000000
B0550073250445S11710014EA0137601411000004000000
B0550113250412S11710094EA0136701400000000000000
B0550153250381S11710176EA0136001392000004000000
B0550193250353S11710261EA0135201387000000000000
B0550233250328S11710348EA0134601379000004000000
B0550273250304S11710439EA0133801371000004000000
B0550313250285S11710528EA0133101365000004000000
B0550353250272S11710611EA0132701362000004000000
B0550393250259S11710686EA0132001350000004000000
B0550433250246S11710767EA0130001324000004000000
B0550473250230S11710854EA0127701305000004000000
B0550513250211S11710940EA0126301296000004000000
B0550553250187S11711026EA0125801291000004000000
B0550593250163S11711108EA0125301284000004000000
B0551033250135S11711190EA0124601275000004000000
B0551073250098S11711266EA0123801272000004000000
B0551113250055S11711338EA0123301265000004000000
B0551153250000S11711398EA0123001264000004000000
B0551193249950S11711459EA0123101265000000000000
B0551233249907S11711522EA0123101267000000000000
B0551273249868S11711589EA0123801279000000000000
B0551313249829S11711650EA0125201289000000000000
B0551353249799S11711717EA0125101283000004000000
B0551393249783S11711793EA0125301291000004000000
B0551433249820S11711832EA0126801308000004000000
B0551473249853S11711790EA0127801313000000000000
B0551513249823S11711730EA0128001312000004015000
B0551553249755S11711724EA0127601309000000015000
B0551593249691S11711773EA0127901313000000015000
B0552033249683S11711842EA0129501335000000015000
B0552073249732S11711828EA0131201346000004015000
B0552113249714S11711755EA0132201358000004015000
B0552153249641S11711751EA0133101368000004015000
B0552193249613S11711817EA0134301383000004015000
B0552233249660S11711840EA0135501395000004015000
B0552273249679S11711775EA0136901408000004015000
B0552313249622S11711724EA0137801417000004015000
B0552353249556S11711750EA0139101434000004015000
B0552393249560S11711814EA0140801446000004015000
B0552433249608S11711817EA0142101462000004015000
B0552473249609S11711750EA0142801464000000015000
B0552513249544S11711713EA0143201475000000015000
B0552553249488S11711750EA0144701491000000015000
B0552593249500S11711810EA0146201504000000015000
B0553033249547S11711802EA0147701519000000015000
B0553073249550S11711737EA0148601523000000015000
B0553113249498S11711694EA0149401532000000015000
B0553153249449S11711733EA0150501544000000015000
B0553193249465S11711789EA0151501555000000015000
B0553233249508S11711773EA0152701568000000015000
B0553273249496S11711711EA0153901580000004015000
B0553313249437S11711689EA0154201578000004015000
B0553353249388S11711739EA0154701587000004015000
B0553393249398S11711798EA0156201602000000015000
B0553433249444S11711795EA0156901607000004015000
B0553473249456S11711732EA0158401625000000015000
B0553513249414S11711677EA0158701620000004015000
B0553553249342S11711677EA0158401624000004015000
B0553593249289S11711730EA0159101635000004015000
B0554033249283S11711799EA0160401648000004015000
B0554073249320S11711836EA0161601657000000015000
B0554113249365S11711811EA0162901664000000015000
B0554153249367S11711742EA0164301676000000015000
B0554193249318S11711694EA0165101681000000015000
B0554233249251S11711719EA0165101682000004015000
B0554273249232S11711790EA0165501693000004015000
B0554313249270S11711829EA0166601711000004015000
B0554353249305S11711790EA0168001720000004015000
B0554393249279S11711717EA0168401725000000015000
B0554433249207S11711693EA0168701725000000015000
B0554473249145S11711737EA0169001732000000015000
B0554513249128S11711810EA0169601737000000015000
B0554553249147S11711871EA0169901737000000015000
B0554593249193S11711879EA0170201743000004015000
B0555033249219S11711824EA0170601748000000000000
B0555073249194S11711750EA0171101752000000000000
B0555113249144S11711691EA0171501757000000000000
B0555153249073S11711685EA0171801756000000000000
B0555193249020S11711737EA0171601757000000000000
B0555233248978S11711801EA0171201752000004000000
B0555273248934S11711868EA0170501744000000000000
B0555313248887S11711937EA0169901741000004000000
B0555353248837S11712005EA0169401735000000000000
B0555393248783S11712071EA0169201735000004000000
B0555433248729S11712137EA0169601738000000000000
B0555473248674S11712207EA0169801743000000000000
B0555513248629S11712279EA0170601751000004000000
B0555553248579S11712350EA0169901733000000000000
B0555593248526S11712427EA0168301720000004000000
B0556033248468S11712505EA0167201709000000000000
B0556073248408S11712583EA0166101700000004000000
B0556113248349S11712661EA0165401693000000000000
B0556153248292S11712740EA0165101692000000000000
B0556193248235S11712817EA0164401683000004000000
B0556233248179S11712895EA0163801676000004000000
B0556273248120S11712973EA0162601661000004000000
B0556313248062S11713054EA0161701658000000000000
B0556353248009S11713132EA0162401665000000000000
B0556393247955S11713207EA0162001654000000000000
B0556433247898S11713285EA0160401637000004000000
B0556473247840S11713367EA0159501633000004000000
B0556513247784S11713445EA0159301629000004000000
B0556553247729S11713522EA0158501622000000000000
B0556593247678S11713598EA0157901614000004000000
B0557033247625S11713674EA0157001604000004000000
B0557073247572S11713751EA0156101595000004000000
B0557113247517S11713827EA0155101583000000000000
B0557153247464S11713903EA0154101579000000000000
B0557193247413S11713977EA0153601573000000000000
B0557233247365S11714052EA0152501557000004000000
B0557273247317S11714130EA0150501540000000000000
B0557313247270S11714209EA0149701531000000000000
B0557353247226S11714291EA0149001526000000000000
B0557393247184S11714375EA0149201544000000000000
B0557433247153S11714446EA0153001582000000000000
B0557473247177S11714495EA0155501595000000000000
B0557513247217S11714464EA0156301605000000000000
B0557553247208S11714397EA0157201614000000000000
B0557593247147S11714369EA0157901623000000000000
B0558033247109S11714423EA0159301641000000000000
B0558073247135S11714459EA0161401662000000000000
B0558113247171S11714430EA0162501668000000000000
B0558153247173S11714365EA0163301674000004000000
B0558193247121S11714326EA0164301688000004000000
B0558233247067S11714354EA0166101708000004000000
B0558273247061S11714411EA0167401720000004015000
B0558313247103S11714419EA0169001735000000015000
B0558353247121S11714360EA0170101745000004000000
B0558393247077S11714312EA0171201758000004015000
B0558433247021S11714333EA0172401770000004015000
B0558473247017S11714393EA0173401778000000015000
B0558513247061S11714407EA0174501793000004015000
B0558553247084S11714350EA0176001804000004015000
B0558593247045S11714289EA0176301805000004015000
B0559033246979S11714293EA0177101817000004015000
B0559073246950S11714350EA0178101825000004015000
B0559113246980S11714397EA0179201837000004015000
B0559153247028S11714389EA0180801851000000000000
B0559193247052S11714328EA0182201859000000000000
B0559233247023S11714260EA0182801862000004000000
B0559273246961S11714248EA0183101869000000015000
B0559313246918S11714294EA0183601876000004015000
B0559353246913S11714359EA0183901881000004015000
B0559393246949S11714399EA0184801890000004015000
B0559433247000S11714377EA0185801899000000015000
B0559473247017S11714306EA0186601904000000015000
B0559513246983S11714233EA0186601904000004000000
B0559553246918S11714204EA0186701910000004000000
B0559593246857S11714229EA0186901907000004000000
B0600033246811S11714284EA0186101897000004000000
B0600073246766S11714351EA0184501880000004000000
B0600113246719S11714425EA0183701881000004000000
B0600153246676S11714503EA0184501887000004000000
B0600193246627S11714581EA0184001881000004000000
B0600233246571S11714661EA0183601879000004000000
B0600273246512S11714741EA0182901866000004000000
B0600313246451S11714824EA0182001857000004000000
B0600353246389S11714906EA0180901840000004000000
B0600393246325S11714989EA0179801837000004000000
B0600433246264S11715071EA0179401831000004000000
B0600473246204S11715151EA0178701825000004000000
B0600513246144S11715230EA0178201820000004000000
B0600553246086S11715308EA0177201810000004000000
B0600593246030S11715387EA0176801810000004000000
B0601033245978S11715467EA0177301816000004000000
B0601073245930S11715542EA0177801825000000000000
B0601113245884S11715619EA0179201841000000000000
B0601153245861S11715691EA0181401865000000000000
B0601193245892S11715738EA0183501881000000000000
B0601233245940S11715733EA0184001878000004000000
B0601273245966S11715675EA0183101871000004000000
B0601313245935S11715607EA0182301866000004000000
B0601353245869S11715584EA0181801857000004000000
B0601393245799S11715620EA0181301861000004000000
B0601433245741S11715676EA0182501873000004000000
B0601473245693S11715742EA0182301865000004000000
B0601513245645S11715819EA0180401844000000000000
B0601553245593S11715905EA0179201835000000000000
B0601593245541S11715993EA0179101836000004000000
B0602033245491S11716081EA0179001833000004000000
B0602073245442S11716171EA0178401822000004000000
B0602113245396S11716263EA0177301813000000000000
B0602153245353S11716361EA0176301806000004000000
B0602193245309S11716457EA0176301809000004000000
B0602233245260S11716548EA0175801799000004000000
B0602273245210S11716639EA0174901791000004000000
B0602313245158S11716728EA0174501785000004000000
B0602353245104S11716816EA0173601776000004000000
B0602393245051S11716904EA0172701767000000000000
B0602433244998S11716993EA0171901760000000000000
B0602473244942S11717080EA0171501756000000000000
B0602513244885S11717166EA0170401741000004000000
B0602553244828S11717253EA0169101730000000000000
B0602593244768S11717339EA0169201735000000000000
B0603033244707S11717420EA0169601739000000000000
B0603073244644S11717500EA0169101729000000000000
B0603113244581S11717579EA0168401722000004000000
B0603153244516S11717658EA0167201708000004000000
B0603193244451S11717739EA0165801697000004000000
B0603233244389S11717817EA0165601697000004000000
B0603273244330S11717891EA0165101689000004000000
B0603313244272S11717966EA0164001679000004000000
B0603353244215S11718039EA0163301672000004000000
B0603393244159S11718113EA0162601666000000000000
B0603433244107S11718187EA0161901656000004000000
B0603473244059S11718264EA0161201652000004000000
B0603513244012S11718340EA0160901648000004000000
B0603553243968S11718415EA0160201641000000000000
B0603593243925S11718490EA0159301631000000000000
B0604033243880S11718564EA0158401623000000000000
B0604073243833S11718637EA0157701617000004000000
B0604113243785S11718709EA0157101607000000000000
B0604153243734S11718776EA0156301600000004000000
B0604193243680S11718840EA0155701592000000000000
B0604233243624S11718904EA0155201591000000000000
B0604273243569S11718965EA0155401593000000000000
B0604313243517S11719025EA0155301592000000000000
B0604353243468S11719084EA0154601581000000000000
B0604393243418S11719147EA0153301570000000000000
B0604433243369S11719213EA0152701561000000000000
B0604473243320S11719283EA0151401546000000000000
B0604513243271S11719355EA0150301542000000000000
B0604553243227S11719426EA0150501543000004000000
B0604593243183S11719498EA0150901552000000000000
B0605033243143S11719567EA0151601554000000000000
B0605073243102S11719634EA0151601553000000000000
B0605113243065S11719706EA0150701540000000000000
B0605153243028S11719784EA0149201526000000000000
B0605193242985S11719863EA0147901513000000000000
B0605233242941S11719946EA0146701502000000000000
B0605273242894S11720030EA0145301485000000000000
B0605313242845S11720113EA0143801472000000000000
B0605353242792S11720195EA0142301454000000000000
B0605393242725S11720265EA0140901443000000000000
B0605433242647S11720319EA0139801431000000000000
B0605473242568S11720370EA0138701420000000000000
B0605513242489S11720422EA0137801410000000000000
B0605553242413S11720474EA0137201406000000000000
B0605593242341S11720529EA0136401397000000000000
B0606033242269S11720587EA0135401388000000000000
B0606073242199S11720648EA0134601380000000000000
B0606113242129S11720709EA0134101376000000000000
B0606153242060S11720772EA0133701372000000000000
B0606193241991S11720834EA0133401369000000000000
B0606233241923S11720898EA0132601360000000000000
B0606273241858S11720964EA0132001355000004000000
B0606313241795S11721032EA0131301347000004000000
B0606353241737S11721103EA0131101347000004000000
B0606393241687S11721175EA0131401350000000000000
B0606433241630S11721232EA0131301347000000000000
B0606473241559S11721254EA0131101347000004000000
B0606513241488S11721235EA0131101346000004000000
B0606553241428S11721184EA0130801342000004000000
B0606593241380S11721116EA0130601342000004000000
B0607033241329S11721054EA0132201363000004000000
B0607073241266S11721062EA0134001376000004000000
B0607113241251S11721125EA0134301377000004000000
B0607153241289S11721145EA0135001388000004000000
B0607193241319S11721105EA0136401400000004000000
B0607233241302S11721042EA0137501417000004000000
B0607273241241S11721024EA0138401415000004000000
B0607313241185S11721070EA0138401422000004000000
B0607353241173S11721140EA0138801421000000015000
B0607393241203S11721197EA0138601418000000015000
B0607433241246S11721240EA0138501419000000000000
B0607473241297S11721227EA0138501418000000000000
B0607513241310S11721159EA0138101416000000000000
B0607553241260S11721101EA0137601407000000000000
B0607593241188S11721066EA0137301414000004000000
B0608033241117S11721031EA0138101422000004000000
B0608073241048S11720999EA0138801427000000000000
B0608113240981S11721028EA0139701436000000000000
B0608153240955S11721096EA0140401440000000000000
B0608193240982S11721145EA0140701443000000000000
B0608233241024S11721132EA0141001444000000000000
B0608273241042S11721075EA0140501440000004000000
B0608313241056S11721010EA0140201438000000000000
B0608353241068S11720938EA0140401443000000000000
B0608393241084S11720865EA0140801447000004000000
B0608433241098S11720791EA0140601443000004000000
B0608473241126S11720724EA0140301434000004000000
B0608513241186S11720716EA0139301425000000000000
B0608553241236S11720768EA0138801426000004000000
B0608593241280S11720832EA0139101433000000000000
B0609033241325S11720893EA0140101444000004000000
B0609073241380S11720917EA0141601456000004000000
B0609113241396S11720851EA0142301462000000000000
B0609153241338S11720816EA0142101459000000000000
B0609193241285S11720851EA0142201466000000000000
B0609233241262S11720915EA0143101473000000000000
B0609273241264S11720982EA0143601476000000000000
B0609313241295S11721036EA0143601470000004000000
B0609353241320S11721102EA0141901449000004000000
B0609393241318S11721185EA0139701428000000000000
B0609433241294S11721271EA0138101414000000000000
B0609473241253S11721353EA0137001404000000000000
B0609513241206S11721431EA0136001395000000000000
B0609553241155S11721505EA0135301389000000000000
B0609593241106S11721578EA0134901387000000000000
B0610033241058S11721647EA0134901383000004000000
B0610073241009S11721716EA0134101372000004000000
B0610113240964S11721786EA0132901360000004000000
B0610153240918S11721855EA0131901352000004000000
B0610193240873S11721921EA0131601352000004000000
B0610233240829S11721986EA0131201345000004000000
B0610273240783S11722055EA0130101331000004000000
B0610313240736S11722126EA0128301313000004000000
B0610353240690S11722199EA0128001314000004000000
B0610393240648S11722275EA0127601306000004000000
B0610433240606S11722351EA0126301291000004000000
B0610473240564S11722431EA0125001278000000000000
B0610513240518S11722511EA0123901270000004000000
B0610553240471S11722591EA0123101263000004000000
B0610593240423S11722671EA0122501257000004000000
B0611033240378S11722752EA0122701260000004000000
B0611073240343S11722831EA0123801275000004000000
B0611113240326S11722906EA0125201293000004000000
B0611153240358S11722935EA0127501319000004000000
B0611193240385S11722896EA0128801319000004000000
B0611233240359S11722828EA0128301312000000000000
B0611273240288S11722812EA0128401319000000000000
B0611313240232S11722864EA0129001325000000000000
B0611353240244S11722927EA0130001338000000000000
B0611393240291S11722913EA0131201350000000015000
B0611433240296S11722843EA0132101358000000015000
B0611473240240S11722793EA0133301372000000015000
B0611513240170S11722808EA0134101377000000015000
B0611553240135S11722873EA0134701383000000000000
B0611593240162S11722927EA0135601393000000000000
B0612033240210S11722919EA0135901395000000000000
B0612073240232S11722857EA0136501405000000000000
B0612113240206S11722786EA0137401411000000000000
B0612153240136S11722780EA0137901417000000000000
B0612193240107S11722847EA0138501424000000015000
B0612233240150S11722874EA0139301433000004015000
B0612273240172S11722812EA0140101441000004015000
B0612313240125S11722752EA0141101450000004015000
B0612353240050S11722756EA0141501454000004015000
B0612393240007S11722818EA0142201461000004015000
B0612433240028S11722873EA0143201474000000015000
B0612473240073S11722861EA0144101479000000015000
B0612513240090S11722795EA0144301484000000015000
B0612553240047S11722734EA0145101493000000015000
B0612593239975S11722724EA0145701496000004015000
B0613033239916S11722771EA0146401505000000015000
B0613073239916S11722834EA0147601518000004015000
B0613113239963S11722835EA0148301520000000015000
B0613153239977S11722770EA0148801530000000015000
B0613193239941S11722702EA0149901540000000015000
B0613233239873S11722674EA0150801547000004015000
B0613273239808S11722706EA0151301554000000015000
B0613313239798S11722769EA0152601566000000015000
B0613353239837S11722797EA0152901566000000000000
B0613393239878S11722762EA0153201573000000000000
B0613433239867S11722687EA0154201584000004000000
B0613473239807S11722637EA0155001591000004000000
B0613513239734S11722643EA0155701598000000015000
B0613553239693S11722700EA0156401601000000015000
B0613593239693S11722763EA0156101592000000015000
B0614033239729S11722813EA0154301573000000015000
B0614073239761S11722875EA0152501557000000000000
B0614113239761S11722960EA0151201548000004000000
B0614153239732S11723046EA0150501541000004000000
B0614193239686S11723127EA0149701531000004000000
B0614233239634S11723211EA0148601522000004000000
B0614273239579S11723296EA0147501507000000000000
B0614313239524S11723385EA0145901492000000000000
B0614353239466S11723471EA0144801485000004000000
B0614393239412S11723553EA0144601482000000000000
B0614433239358S11723632EA0143701472000004000000
B0614473239310S11723714EA0143201468000004000000
B0614513239265S11723794EA0142801461000004000000
B0614553239219S11723875EA0142001456000004000000
B0614593239174S11723954EA0141901455000004000000
B0615033239131S11724035EA0141201444000004000000
B0615073239089S11724118EA0140601441000004000000
B0615113239049S11724203EA0140501440000004000000
B0615153239007S11724288EA0141101450000004000000
B0615193238970S11724366EA0143301476000000000000
B0615233238962S11724438EA0145601493000000000000
B0615273239004S11724442EA0147001507000000000000
B0615313239006S11724374EA0147901516000000000000
B0615353238949S11724329EA0148501529000000015000
B0615393238883S11724359EA0149901540000004015000
B0615433238872S11724430EA0150901550000004015000
B0615473238916S11724447EA0152101564000004015000
B0615513238941S11724391EA0153101571000000015000
B0615553238907S11724320EA0153701577000000015000
B0615593238838S11724290EA0154901592000000015000
B0616033238797S11724344EA0156201605000000015000
B0616073238825S11724387EA0157201611000000015000
B0616113238867S11724361EA0157801616000000015000
B0616153238859S11724288EA0158301620000000015000
B0616193238793S11724256EA0159701642000004015000
B0616233238734S11724300EA0161501658000004015000
B0616273238746S11724359EA0162801667000004015000
B0616313238788S11724343EA0163801681000004015000
B0616353238784S11724277EA0164501683000000015000
B0616393238721S11724232EA0165201699000000015000
B0616433238655S11724265EA0167201720000004015000
B0616473238645S11724329EA0168601728000000015000
B0616513238685S11724359EA0169201730000000015000
B0616553238719S11724316EA0169901741000000015000
B0616593238701S11724242EA0170401746000000015000
B0617033238647S11724183EA0171601758000000015000
B0617073238575S11724200EA0172001759000000015000
B0617113238524S11724262EA0172301764000004015000
B0617153238532S11724334EA0172301763000004015000
B0617193238567S11724391EA0172601768000004015000
B0617233238606S11724442EA0173301774000004000000
B0617273238654S11724438EA0173501775000004000000
B0617313238669S11724369EA0173301769000004000000
B0617353238642S11724284EA0173201773000000000000
B0617393238591S11724222EA0174401788000004000000
B0617433238528S11724253EA0175701800000004000000
B0617473238532S11724321EA0176101801000000000000
B0617513238582S11724331EA0176601814000004000000
B0617553238607S11724274EA0177901828000000015000
B0617593238572S11724205EA0178701833000000000000
B0618033238499S11724192EA0179901846000000015000
B0618073238456S11724248EA0181201857000000015000
B0618113238474S11724305EA0181701861000000015000
B0618153238520S11724307EA0182701870000004015000
B0618193238536S11724249EA0183601874000000015000
B0618233238493S11724187EA0183701879000000015000
B0618273238422S11724179EA0184701893000004015000
B0618313238365S11724221EA0185601899000004015000
B0618353238359S11724287EA0186301902000004015000
B0618393238399S11724313EA0186201900000000015000
B0618433238433S11724269EA0186001904000000015000
B0618473238415S11724197EA0186801913000000015000
B0618513238351S11724165EA0187801923000000015000
B0618553238279S11724180EA0188301923000000015000
B0618593238220S11724227EA0188201921000004000000
B0619033238169S11724291EA0187201909000004000000
B0619073238123S11724368EA0185901896000004000000
B0619113238077S11724453EA0184301880000000000000
B0619153238029S11724543EA0183001868000000000000
B0619193237978S11724632EA0182101864000004000000
B0619233237928S11724719EA0182201865000004000000
B0619273237874S11724801EA0182501869000004000000
B0619313237819S11724877EA0182901874000004000000
B0619353237769S11724953EA0183601889000004000000
B0619393237728S11725031EA0184901893000000000000
B0619433237683S11725105EA0184801892000000000000
B0619473237636S11725183EA0184801889000000000000
B0619513237587S11725265EA0182901863000000000000
