ACAM4N6
HFDTE070123
HFFXA050
HFPLTPILOT:JOHN WELSH              
HFGTYGLIDERTYPE:HORNET      
HFGIDGLIDERID:VH-GMY      
HFDTM100GPSDATUM:
HFRFWFIRMWAREVERSION:F2.6
HFRHWHARDWAREVERSION:300 Series Version 2
HFFTYFRTYPE:CAMBRIDGE AERO INSTRUMENTS, 302+
HFGPS:GARMIN,LVS-25,12,18000
HFPRSPRESSALTSENSOR:INTERSEMA, MS5534-AP, 20000
I033638FXA3941ENL4247REX
LCAMSBVER:5FWVER:F26300
C171222031956171222000103
C0000000N00000000WTAKEOFF     
C3207549S11656849EBeverley Air
C3053283S11642765EWongan Hills
C3110883S11723215EWyalkatchem 
C3256166S11710665ENarrogin Sil
C3207549S11656849EBeverley Air
C0000000N00000000WLANDING     
B0553393207330S11656861EA0024100215000000000000
B0553413207330S11656861EA0024100215000000000000
B0553433207332S11656861EA0024300216000000000000
B0553453207332S11656861EA0024200216000000000000
B0553473207332S11656861EA0024200217000000000000
B0553493207332S11656861EA0024200217000000000000
B0553513207330S11656861EA0024300217000000000000
B0553533207330S11656861EA0024200217000000000000
B0553553207330S11656861EA0024300217000000000000
B0553573207330S11656861EA0024200217000000000000
B0553593207330S11656861EA0024100217000000000000
B0554013207330S11656861EA0024200218000000000000
B0554033207330S11656861EA0024200218000000000000
B0554053207332S11656861EA0024100218000000000000
B0554073207333S11656862EA0024200218000000000000
B0554123207352S11656875EA0024300218000000000000
B0554163207388S11656897EA0024500218000000000000
B0554203207436S11656927EA0024700218000000000000
B0554243207494S11656964EA0024700220000000000000
B0554283207559S11657003EA0024700226000000000000
B0554323207625S11657044EA0025800238000000000000
B0554363207689S11657085EA0026600247000000000000
B0554403207752S11657117EA0028100275000000000000
B0554443207810S11657142EA0030800297000000000000
B0554483207872S11657166EA0032100308000000000000
B0554523207935S11657190EA0033200319000000000000
B0554563207999S11657216EA0034600332000000000000
B0555003208060S11657243EA0036100347000000000000
B0555043208118S11657269EA0037200364000000000000
B0555083208177S11657294EA0038800378000000000000
B0555123208236S11657325EA0039700385000000000000
B0555163208290S11657368EA0041100397000000000000
B0555203208331S11657428EA0041900411000000000000
B0555243208355S11657498EA0043400424000000000000
B0555283208365S11657579EA0044000425000000000000
B0555323208365S11657664EA0044200428000000000000
B0555363208360S11657754EA0044300428000000000000
B0555403208352S11657846EA0045100442000000000000
B0555443208343S11657939EA0046700462000000000000
B0555483208333S11658031EA0048700480000000000000
B0555523208322S11658121EA0050500502000000000000
B0555563208308S11658208EA0052700520000000000000
B0556003208295S11658296EA0053800530000000000000
B0556043208282S11658386EA0054900541000000000000
B0556083208272S11658478EA0056100557000000000000
B0556123208261S11658570EA0058200577000000000000
B0556163208242S11658659EA0060500603000000000000
B0556203208204S11658732EA0063300634000000000000
B0556243208139S11658780EA0065700660000000000000
B0556283208054S11658786EA0067500674000000000000
B0556323207971S11658751EA0069000687000000000000
B0556363207905S11658681EA0070900712000000000000
B0556403207871S11658590EA0073600738000000000000
B0556443207874S11658500EA0076500764000000015000
B0556483207872S11658414EA0078500776000000015000
B0556523207818S11658357EA0079500782000000015000
B0556563207753S11658378EA0079000768000000015000
B0557003207733S11658447EA0078000767000000015000
B0557043207749S11658513EA0078700774000000015000
B0557083207800S11658534EA0079200775000000015000
B0557123207823S11658464EA0079900786000000015000
B0557163207758S11658420EA0081200802000000015000
B0557203207713S11658464EA0083200823000000015000
B0557243207731S11658511EA0083600820000000015000
B0557283207779S11658494EA0083500818000000015000
B0557323207781S11658420EA0084600834000000015000
B0557363207719S11658378EA0085800844000000015000
B0557403207657S11658403EA0086600854000000015000
B0557443207645S11658464EA0087200855000000015000
B0557483207684S11658495EA0087600866000000015000
B0557523207727S11658463EA0088900882000000015000
B0557563207731S11658394EA0090100889000000015000
B0558003207684S11658334EA0090100887000000015000
B0558043207614S11658323EA0090400892000000015000
B0558083207557S11658365EA0090200889000000015000
B0558123207537S11658437EA0090500890000000015000
B0558163207570S11658487EA0090900903000000015000
B0558203207609S11658447EA0092800924000000015000
B0558243207571S11658386EA0094700940000000015000
B0558283207512S11658400EA0095600947000000015000
B0558323207503S11658459EA0096400956000000015000
B0558363207545S11658482EA0097500967000000015000
B0558403207586S11658447EA0098900981000000015000
B0558443207589S11658377EA0100000996000000015000
B0558483207550S11658316EA0100800996000000015000
B0558523207482S11658303EA0100901004000000015000
B0558563207434S11658343EA0102001011000000015000
B0559003207434S11658407EA0102401015000000015000
B0559043207477S11658442EA0103001024000000015000
B0559083207529S11658426EA0104501044000000015000
B0559123207560S11658373EA0106001052000000015000
B0559163207558S11658300EA0106101048000000015000
B0559203207511S11658239EA0105801048000000015000
B0559243207440S11658227EA0105801049000000015000
B0559283207384S11658270EA0106201055000000015000
B0559323207376S11658335EA0107301066000000015000
B0559363207416S11658373EA0108101072000000015000
B0559403207466S11658347EA0109001084000000015000
B0559443207479S11658278EA0109701084000000015000
B0559483207442S11658212EA0109201081000000015000
B0559523207376S11658184EA0109001079000000015000
B0559563207311S11658213EA0109001081000000015000
B0600003207285S11658281EA0109601089000000015000
B0600043207300S11658347EA0110201093000000015000
B0600083207337S11658404EA0111301108000000015000
B0600123207385S11658382EA0112901124000000015000
B0600163207386S11658313EA0113901133000000015000
B0600203207339S11658258EA0114001130000000015000
B0600243207271S11658252EA0114101136000000015000
B0600283207212S11658294EA0114801143000000015000
B0600323207198S11658355EA0116501163000000015000
B0600363207239S11658370EA0118201178000000015000
B0600403207260S11658313EA0119301188000000015000
B0600443207217S11658257EA0119901189000000015000
B0600483207147S11658264EA0120001195000000015000
B0600523207124S11658323EA0121501215000000015000
B0600563207160S11658349EA0124201244000000015000
B0601003207194S11658313EA0125601255000000015000
B0601043207183S11658248EA0126401261000000015000
B0601083207131S11658203EA0126501260000000015000
B0601123207064S11658213EA0127101274000000015000
B0601163207029S11658265EA0128801292000000015000
B0601203207040S11658314EA0130801313000000015000
B0601243207081S11658314EA0132901334000000015000
B0601283207098S11658261EA0134401344000000015000
B0601323207068S11658201EA0134601343000000015000
B0601363207003S11658180EA0135301356000000015000
B0601403206953S11658218EA0136601367000000015000
B0601443206960S11658273EA0137401380000000015000
B0601483207003S11658279EA0139201401000000015000
B0601523207029S11658230EA0140801411000000015000
B0601563207009S11658165EA0141401414000000015000
B0602003206951S11658127EA0141801422000000015000
B0602043206886S11658139EA0143101440000000015000
B0602083206851S11658186EA0144601449000000015000
B0602123206870S11658236EA0145201454000000015000
B0602163206922S11658231EA0146701475000000015000
B0602203206929S11658169EA0149301504000000015000
B0602243206881S11658122EA0150801511000000015000
B0602283206813S11658131EA0151101515000000015000
B0602323206780S11658191EA0151601525000000015000
B0602363206804S11658247EA0153001543000000015000
B0602403206855S11658251EA0155101564000000015000
B0602443206881S11658193EA0157001581000000015000
B0602483206851S11658131EA0159001603000000015000
B0602523206790S11658109EA0160401613000000015000
B0602563206739S11658145EA0161301619000000015000
B0603003206734S11658209EA0162201635000000015000
B0603043206773S11658240EA0164101655000000015000
B0603083206814S11658205EA0166001671000000015000
B0603123206801S11658140EA0167101686000000015000
B0603163206743S11658122EA0168401699000000015000
B0603203206699S11658166EA0169901713000000015000
B0603243206706S11658226EA0171201726000000015000
B0603283206756S11658231EA0172401734000000015000
B0603323206787S11658171EA0173001742000000015000
B0603363206757S11658110EA0174301755000000015000
B0603403206695S11658104EA0175301766000000015000
B0603443206650S11658154EA0176501779000000015000
B0603483206662S11658214EA0178001795000000015000
B0603523206713S11658212EA0179201803000000015000
B0603563206736S11658148EA0179501807000000015000
B0604003206701S11658089EA0180101814000000015000
B0604043206637S11658086EA0180701824000000015000
B0604083206600S11658135EA0181901835000000015000
B0604123206623S11658184EA0182701841000000015000
B0604163206670S11658154EA0183301847000000015000
B0604203206663S11658083EA0184701867000000015000
B0604243206610S11658054EA0186001872000000015000
B0604283206559S11658092EA0185701866000000015000
B0604323206554S11658160EA0185901878000000015000
B0604363206596S11658197EA0187301891000000015000
B0604403206645S11658175EA0188301897000000015000
B0604443206663S11658108EA0188401897000000015000
B0604483206657S11658027EA0188201894000000000000
B0604523206602S11657983EA0188101893000000000000
B0604563206543S11658015EA0187601888000000015000
B0605003206527S11658088EA0186901883000000015000
B0605043206558S11658154EA0187001887000000015000
B0605083206610S11658203EA0187301888000000015000
B0605123206670S11658244EA0187001879000000000000
B0605163206738S11658277EA0185301860000000000000
B0605203206813S11658307EA0183801844000000000000
B0605243206891S11658329EA0183201843000000000000
B0605283206969S11658342EA0182901839000000000000
B0605323207046S11658343EA0182801834000000000000
B0605363207122S11658325EA0182201828000000000000
B0605403207193S11658287EA0181501823000000000000
B0605443207258S11658240EA0181001820000000000000
B0605483207316S11658184EA0180701816000000000000
B0605523207371S11658125EA0180101806000000000000
B0605563207423S11658056EA0178801793000000000000
B0606003207471S11657979EA0177801783000000000000
B0606043207512S11657898EA0176601773000000000000
B0606083207549S11657813EA0175701765000000000000
B0606123207580S11657724EA0175401761000000000000
B0606163207610S11657634EA0174801754000000000000
B0606203207637S11657542EA0174401750000000000000
B0606243207661S11657449EA0174201748000000000000
B0606283207672S11657352EA0174101746000000000000
B0606323207674S11657254EA0173701743000000000000
B0606363207671S11657155EA0173101738000000000000
B0606403207663S11657056EA0172501731000000000000
B0606443207657S11656955EA0171901727000000000000
B0606483207653S11656856EA0171601725000000000000
B0606523207648S11656758EA0171601723000000000000
B0606563207609S11656667EA0171601723000000000000
B0607003207534S11656609EA0171101717000000000000
B0607043207447S11656581EA0170301708000000000000
B0607083207356S11656574EA0169501700000000000000
B0607123207265S11656572EA0168401689000000000000
B0607163207176S11656575EA0167401679000000000000
B0607203207086S11656578EA0166601665000000000000
B0607243206994S11656583EA0165001653000000000000
B0607283206901S11656589EA0164101643000000000000
B0607323206810S11656601EA0162901632000000000000
B0607363206719S11656615EA0161701621000000000000
B0607403206628S11656628EA0160801612000000000000
B0607443206540S11656643EA0160201607000000000000
B0607483206452S11656656EA0159901606000000000000
B0607523206366S11656669EA0159901608000000000000
B0607563206280S11656680EA0159801604000000000000
B0608003206194S11656693EA0159201596000000000000
B0608043206106S11656710EA0158501586000000000000
B0608083206017S11656730EA0157401577000000000000
B0608123205929S11656747EA0156801572000000000000
B0608163205839S11656757EA0156301568000000000000
B0608203205751S11656765EA0156001564000000000000
B0608243205664S11656773EA0155601563000000000000
B0608283205574S11656782EA0155501559000000000000
B0608323205484S11656789EA0154901554000000000000
B0608363205393S11656799EA0154401549000000000000
B0608403205302S11656808EA0153501538000000000000
B0608443205211S11656819EA0152601531000000000000
B0608483205119S11656832EA0151801522000000000000
B0608523205025S11656847EA0151001509000000000000
B0608563204932S11656860EA0149901502000000000000
B0609003204837S11656871EA0149001489000000000000
B0609043204738S11656882EA0147401472000000000000
B0609083204638S11656892EA0145901455000000000000
B0609123204535S11656900EA0144201442000000000000
B0609163204431S11656909EA0143201433000000000000
B0609203204326S11656921EA0142701430000000000000
B0609243204219S11656934EA0143001434000000000000
B0609283204121S11656965EA0143401438000000000000
B0609323204032S11657013EA0145001458000000000000
B0609363204002S11657096EA0147501494000000000000
B0609403204031S11657155EA0150101512000000000000
B0609443204076S11657134EA0151601532000000000000
B0609483204074S11657069EA0153701552000000015000
B0609523204024S11657021EA0154701555000000015000
B0609563203958S11657031EA0155301563000000015000
B0610003203927S11657095EA0156401576000000015000
B0610043203946S11657152EA0157201579000000015000
B0610083203996S11657146EA0158101593000000015000
B0610123204018S11657088EA0159201604000000015000
B0610163203991S11657021EA0160101613000000015000
B0610203203928S11656991EA0160601616000000015000
B0610243203866S11657022EA0161301628000000015000
B0610283203863S11657085EA0163201648000000015000
B0610323203907S11657101EA0163801647000000015000
B0610363203943S11657053EA0164701662000000015000
B0610403203933S11656981EA0165701667000000015000
B0610443203888S11656922EA0166001665000000015000
B0610483203816S11656899EA0165001655000000015000
B0610523203736S11656904EA0164301649000000000000
B0610563203657S11656936EA0163701640000000000000
B0611003203573S11656974EA0163201635000000000000
B0611043203486S11657012EA0162001619000000000000
B0611083203395S11657049EA0160301605000000000000
B0611123203300S11657083EA0159501596000000000000
B0611163203204S11657108EA0158701590000000000000
B0611203203108S11657130EA0158301584000000000000
B0611243203012S11657147EA0158001584000000000000
B0611283202917S11657163EA0158001586000000000000
B0611323202827S11657179EA0157701579000000000000
B0611363202736S11657198EA0156501561000000000000
B0611403202644S11657213EA0154901548000000000000
B0611443202550S11657221EA0153801538000000000000
B0611483202455S11657229EA0152801531000000000000
B0611523202360S11657235EA0151801517000000000000
B0611563202263S11657242EA0150501507000000000000
B0612003202164S11657247EA0149701500000000000000
B0612043202065S11657248EA0148701487000000000000
B0612083201964S11657252EA0147401471000000000000
B0612123201864S11657255EA0146901470000000000000
B0612163201766S11657255EA0146601465000000000000
B0612203201669S11657256EA0145601457000000000000
B0612243201573S11657261EA0145001450000000000000
B0612283201476S11657268EA0144701446000000000000
B0612323201382S11657272EA0144301443000000000000
B0612363201288S11657273EA0143801439000000000000
B0612403201193S11657274EA0143701435000000000000
B0612443201099S11657277EA0142801427000000000000
B0612483201005S11657282EA0142001416000000000000
B0612523200908S11657285EA0141101409000000000000
B0612563200811S11657283EA0140501403000000000000
B0613003200715S11657285EA0139601393000000000000
B0613043200618S11657289EA0138401382000000000000
B0613083200525S11657296EA0137601373000000000000
B0613123200431S11657306EA0136501362000000000000
B0613163200339S11657309EA0135701351000000000000
B0613203200247S11657313EA0134401337000000000000
B0613243200152S11657319EA0133501330000000000000
B0613283200056S11657326EA0132701324000000000000
B0613323159961S11657333EA0132601324000000000000
B0613363159866S11657337EA0131901314000000000000
B0613403159770S11657343EA0130401299000000000000
B0613443159669S11657358EA0129201287000000000000
B0613483159571S11657374EA0128601282000000000000
B0613523159471S11657386EA0128501286000000000000
B0613563159370S11657395EA0128701287000000000000
B0614003159272S11657403EA0129201291000000000000
B0614043159173S11657408EA0129101289000000000000
B0614083159082S11657433EA0129801300000000000000
B0614123159027S11657508EA0130801308000000000000
B0614163159025S11657595EA0131801323000000000000
B0614203159065S11657650EA0133901352000000000000
B0614243159100S11657610EA0137001379000000000000
B0614283159077S11657538EA0138101380000000000000
B0614323159009S11657507EA0138101379000000000000
B0614363158949S11657543EA0138501390000000000000
B0614403158947S11657611EA0139701401000000000000
B0614443158992S11657627EA0141201420000000000000
B0614483159010S11657568EA0143001436000000000000
B0614523158970S11657503EA0143601435000000000000
B0614563158897S11657494EA0143601439000000000000
B0615003158856S11657553EA0144401452000000000000
B0615043158875S11657605EA0146301477000000000000
B0615083158912S11657590EA0148501494000000000000
B0615123158912S11657525EA0149401496000000000000
B0615163158861S11657471EA0149601500000000000000
B0615203158789S11657480EA0150101507000000000000
B0615243158758S11657545EA0151101516000000000000
B0615283158783S11657595EA0152501535000000000000
B0615323158823S11657579EA0154301554000000000000
B0615363158832S11657515EA0155401562000000000000
B0615403158797S11657449EA0156401572000000000000
B0615443158730S11657432EA0157301582000000000000
B0615483158681S11657480EA0158201590000000000000
B0615523158689S11657540EA0158101585000000000000
B0615563158737S11657543EA0158301593000000000000
B0616003158770S11657490EA0159401602000000000000
B0616043158767S11657411EA0159901606000000000000
B0616083158710S11657354EA0160501614000000000000
B0616123158641S11657372EA0161201621000000000000
B0616163158624S11657438EA0162001628000000000000
B0616203158653S11657495EA0162001626000000000000
B0616243158701S11657504EA0162901640000000000000
B0616283158715S11657437EA0163801648000000000000
B0616323158667S11657372EA0164401654000000000000
B0616363158593S11657363EA0164901657000000000000
B0616403158535S11657410EA0165601665000000000000
B0616443158525S11657480EA0165901663000000000000
B0616483158563S11657512EA0166101669000000000000
B0616523158598S11657475EA0166701675000000000000
B0616563158593S11657398EA0166601671000000000000
B0617003158545S11657330EA0167101680000000000000
B0617043158476S11657295EA0167801686000000000000
B0617083158402S11657270EA0167801684000000000000
B0617123158320S11657255EA0166601659000000000000
B0617163158225S11657242EA0163801635000000000000
B0617203158124S11657228EA0162301624000000000000
B0617243158021S11657209EA0161801625000000000000
B0617283157920S11657191EA0161601614000000000000
B0617323157817S11657176EA0160301607000000000000
B0617363157714S11657160EA0160201607000000000000
B0617403157615S11657150EA0160001603000000000000
B0617443157515S11657138EA0159401598000000000000
B0617483157417S11657125EA0158901592000000000000
B0617523157318S11657111EA0158201580000000000000
B0617563157219S11657101EA0157801583000000000000
B0618003157121S11657091EA0158301593000000000000
B0618043157033S11657065EA0159901609000000000000
B0618083156949S11657043EA0160701617000000000000
B0618123156863S11657027EA0161001615000000000000
B0618163156777S11657004EA0159801599000000000000
B0618203156687S11656984EA0158501588000000000000
B0618243156595S11656961EA0158201588000000000000
B0618283156503S11656935EA0158601591000000000000
B0618323156418S11656947EA0159601610000000000000
B0618363156384S11657010EA0161201621000000000000
B0618403156412S11657065EA0161201613000000000000
B0618443156465S11657056EA0161001623000000000000
B0618483156499S11656997EA0162901649000000000000
B0618523156468S11656934EA0164901661000000000000
B0618563156400S11656943EA0165701665000000000000
B0619003156383S11657003EA0166501672000000015000
B0619043156419S11657039EA0166401671000000015000
B0619083156464S11657013EA0167701694000000015000
B0619123156456S11656947EA0169601708000000015000
B0619163156399S11656913EA0170101710000000000000
B0619203156339S11656944EA0170101710000000000000
B0619243156335S11657008EA0171101727000000015000
B0619283156371S11657034EA0172401739000000000000
B0619323156401S11657000EA0173901751000000000000
B0619363156393S11656939EA0174301750000000000000
B0619403156341S11656888EA0174201752000000000000
B0619443156271S11656887EA0174301751000000000000
B0619483156217S11656930EA0174201748000000000000
B0619523156161S11656981EA0172901730000000000000
B0619563156087S11657018EA0171601718000000000000
B0620003155997S11657043EA0169801695000000000000
B0620043155901S11657057EA0168201685000000000000
B0620083155803S11657059EA0167901683000000000000
B0620123155707S11657052EA0167601678000000000000
B0620163155608S11657044EA0166401662000000000000
B0620203155508S11657035EA0165001652000000000000
B0620243155408S11657025EA0164301646000000000000
B0620283155307S11657013EA0163401635000000000000
B0620323155204S11657001EA0162301625000000000000
B0620363155100S11656990EA0161301615000000000000
B0620403154996S11656978EA0160401609000000000000
B0620443154892S11656965EA0160201607000000000000
B0620483154789S11656951EA0160101604000000000000
B0620523154688S11656938EA0159401595000000000000
B0620563154584S11656923EA0158401586000000000000
B0621003154482S11656909EA0158001581000000000000
B0621043154382S11656891EA0157301576000000000000
B0621083154286S11656870EA0157301579000000000000
B0621123154193S11656848EA0157501580000000000000
B0621163154100S11656825EA0156701570000000000000
B0621203154005S11656801EA0156101566000000000000
B0621243153909S11656778EA0155701558000000000000
B0621283153812S11656758EA0155001550000000000000
B0621323153713S11656743EA0154101543000000000000
B0621363153613S11656727EA0153201532000000000000
B0621403153513S11656710EA0151901520000000000000
B0621443153413S11656688EA0150901510000000000000
B0621483153314S11656663EA0150201506000000000000
B0621523153219S11656633EA0149801501000000000000
B0621563153124S11656601EA0149301494000000000000
B0622003153032S11656567EA0148801492000000000000
B0622043152943S11656536EA0148601487000000000000
B0622083152855S11656505EA0147901481000000000000
B0622123152768S11656472EA0147401478000000000000
B0622163152681S11656441EA0147401474000000000000
B0622203152596S11656407EA0147301477000000000000
B0622243152513S11656376EA0147601480000000000000
B0622283152431S11656345EA0147301471000000000000
B0622323152347S11656312EA0146001458000000000000
B0622363152257S11656279EA0145001448000000000000
B0622403152167S11656242EA0144601449000000000000
B0622443152079S11656224EA0145401454000000000000
B0622483152018S11656277EA0146301463000000000000
B0622523152020S11656349EA0146401459000000000000
B0622563152075S11656366EA0145501454000000000000
B0623003152120S11656315EA0145401455000000000000
B0623043152132S11656233EA0145701460000000000000
B0623083152094S11656155EA0146101464000000000000
B0623123152027S11656103EA0145901456000000000000
B0623163151953S11656052EA0144801444000000000000
B0623203151877S11656003EA0143801432000000000000
B0623243151794S11655973EA0142901426000000000000
B0623283151710S11655981EA0142601424000000000000
B0623323151633S11656013EA0142301419000000000000
B0623363151556S11656060EA0142601425000000000000
B0623403151535S11656133EA0143701436000000000000
B0623443151585S11656165EA0143201426000000000000
B0623483151630S11656119EA0143401438000000000000
B0623523151616S11656050EA0145501459000000000000
B0623563151561S11656003EA0145901455000000000000
B0624003151489S11656002EA0146001467000000000000
B0624043151443S11656054EA0147301479000000000000
B0624083151453S11656110EA0147901480000000015000
B0624123151499S11656107EA0147301469000000015000
B0624163151513S11656042EA0146801478000000000000
B0624203151464S11655998EA0148701496000000000000
B0624243151407S11656030EA0149401496000000000000
B0624283151417S11656087EA0149301494000000015000
B0624323151465S11656078EA0148601485000000015000
B0624363151476S11656008EA0149101500000000000000
B0624403151435S11655948EA0150001502000000000000
B0624443151364S11655931EA0149601499000000000000
B0624483151300S11655974EA0149901504000000000000
B0624523151271S11656039EA0150801514000000015000
B0624563151294S11656091EA0150801506000000015000
B0625003151329S11656139EA0149001486000000000000
B0625043151369S11656193EA0148101479000000000000
B0625083151421S11656232EA0147401469000000000000
B0625123151485S11656259EA0146001453000000000000
B0625163151551S11656289EA0145101452000000000000
B0625203151615S11656328EA0145801461000000000000
B0625243151674S11656377EA0146501470000000000000
B0625283151736S11656418EA0147401478000000000000
B0625323151798S11656451EA0147601478000000000000
B0625363151862S11656476EA0147601477000000000000
B0625403151928S11656498EA0147701483000000000000
B0625443151994S11656522EA0148501491000000000000
B0625483152059S11656546EA0149401494000000000000
B0625523152122S11656575EA0148601484000000000000
B0625563152185S11656606EA0148001473000000000000
B0626003152253S11656635EA0146201452000000000000
B0626043152323S11656663EA0144901444000000000000
B0626083152391S11656704EA0143701429000000000000
B0626123152452S11656761EA0141901409000000000000
B0626163152509S11656830EA0140101392000000000000
B0626203152561S11656910EA0138801379000000000000
B0626243152605S11656999EA0137601367000000000000
B0626283152647S11657091EA0136601360000000000000
B0626323152686S11657185EA0136001351000000000000
B0626363152727S11657280EA0135001342000000000000
B0626403152772S11657368EA0135201350000000000000
B0626443152830S11657433EA0135801354000000000000
B0626483152898S11657477EA0135301345000000000000
B0626523152971S11657514EA0133701326000000000000
B0626563153045S11657556EA0131901313000000000000
B0627003153119S11657601EA0130801303000000000000
B0627043153190S11657647EA0129801292000000000000
B0627083153260S11657703EA0128901280000000000000
B0627123153331S11657755EA0128201276000000000000
B0627163153397S11657814EA0127901272000000000000
B0627203153454S11657880EA0127801271000000000000
B0627243153505S11657950EA0127501269000000000000
B0627283153552S11658019EA0126901262000000000000
B0627323153595S11658087EA0126601260000000000000
B0627363153637S11658154EA0126301256000000000000
B0627403153686S11658210EA0126401261000000000000
B0627443153743S11658247EA0126701263000000000000
B0627483153800S11658278EA0126901266000000000000
B0627523153860S11658300EA0127001263000000000000
B0627563153925S11658309EA0126501258000000000000
B0628003153991S11658308EA0125901252000000000000
B0628043154059S11658312EA0124801239000000000000
B0628083154129S11658320EA0123601226000000000000
B0628123154202S11658330EA0122801220000000000000
B0628163154268S11658349EA0122701221000000000000
B0628203154332S11658368EA0122301213000000000000
B0628243154394S11658386EA0121101199000000000000
B0628283154459S11658407EA0119501180000000000000
B0628323154521S11658444EA0117501160000000000000
B0628363154580S11658499EA0115901143000000000000
B0628403154629S11658567EA0114301128000000000000
B0628443154672S11658643EA0112901117000000000000
B0628483154714S11658716EA0112901120000000000000
B0628523154765S11658775EA0112401111000000000000
B0628563154815S11658833EA0111201100000000000000
B0629003154862S11658897EA0110201090000000000000
B0629043154905S11658966EA0109301080000000000000
B0629083154944S11659035EA0108801080000000000000
B0629123154986S11659098EA0108401067000000000000
B0629163155026S11659170EA0106601048000000000000
B0629203155060S11659249EA0105301039000000000000
B0629243155086S11659331EA0105201038000000000000
B0629283155110S11659415EA0104101025000000000000
B0629323155144S11659495EA0103501021000000000000
B0629363155194S11659556EA0103301019000000000000
B0629403155253S11659601EA0102901014000000000000
B0629443155317S11659636EA0102801019000000000000
B0629483155381S11659666EA0103701030000000000000
B0629523155430S11659631EA0105901053000000000000
B0629563155383S11659571EA0107801077000000000000
B0630003155326S11659607EA0109801094000000000000
B0630043155331S11659666EA0111201105000000000000
B0630083155372S11659665EA0112801127000000000000
B0630123155369S11659596EA0114201139000000000000
B0630163155311S11659568EA0115901157000000000000
B0630203155264S11659612EA0117101167000000000000
B0630243155269S11659672EA0117601172000000000000
B0630283155314S11659674EA0119301194000000000000
B0630323155314S11659607EA0121201213000000000000
B0630363155253S11659577EA0123101232000000000000
B0630403155201S11659617EA0124201235000000000000
B0630443155208S11659682EA0124601243000000000000
B0630483155255S11659686EA0126701270000000015000
B0630523155269S11659627EA0128101281000000015000
B0630563155218S11659575EA0128801290000000000000
B0631003155151S11659588EA0130301306000000000000
B0631043155125S11659649EA0131401314000000000000
B0631083155155S11659692EA0132601328000000015000
B0631123155200S11659670EA0133501333000000015000
B0631163155203S11659604EA0134601353000000015000
B0631203155152S11659557EA0136301364000000000000
B0631243155087S11659578EA0137501377000000015000
B0631283155070S11659642EA0138201384000000015000
B0631323155109S11659674EA0139101391000000015000
B0631363155149S11659630EA0139701398000000015000
B0631403155119S11659562EA0141201417000000015000
B0631443155049S11659557EA0143001435000000000000
B0631483155009S11659616EA0143901447000000000000
B0631523155031S11659672EA0145001451000000000000
B0631563155080S11659652EA0145301456000000015000
B0632003155087S11659577EA0146401470000000000000
B0632043155032S11659526EA0147601486000000000000
B0632083154983S11659571EA0149501506000000000000
B0632123155002S11659621EA0150701508000000000000
B0632163155047S11659590EA0151201522000000015000
B0632203155025S11659518EA0152901534000000000000
B0632243154956S11659516EA0153801543000000000000
B0632283154927S11659583EA0154401549000000015000
B0632323154967S11659621EA0155201557000000015000
B0632363154991S11659564EA0156901579000000015000
B0632403154936S11659519EA0158501590000000015000
B0632443154883S11659562EA0158701587000000015000
B0632483154901S11659623EA0158301588000000015000
B0632523154945S11659608EA0159701607000000015000
B0632563154930S11659543EA0161401626000000015000
B0633003154866S11659532EA0162401629000000015000
B0633043154831S11659587EA0162301627000000015000
B0633083154853S11659639EA0162001625000000015000
B0633123154900S11659639EA0162901634000000015000
B0633163154910S11659571EA0163601639000000015000
B0633203154854S11659525EA0164401655000000015000
B0633243154805S11659569EA0165701663000000015000
B0633283154822S11659634EA0165201644000000015000
B0633323154875S11659691EA0163601641000000015000
B0633363154932S11659738EA0163901645000000015000
B0633403154996S11659783EA0163301637000000000000
B0633443155066S11659820EA0163101634000000000000
B0633483155121S11659885EA0162001622000000000000
B0633523155095S11659978EA0160701604000000015000
B0633563155000S11700000EA0160001606000000015000
B0634003154917S11659950EA0160401611000000015000
B0634043154865S11659870EA0160201599000000015000
B0634083154841S11659765EA0157301554000000015000
B0634123154866S11659649EA0154801553000000015000
B0634163154923S11659561EA0155001553000000015000
B0634203155006S11659510EA0154901558000000015000
B0634243155093S11659486EA0155901563000000015000
B0634283155181S11659488EA0155301550000000015000
B0634323155261S11659530EA0154601546000000015000
B0634363155325S11659596EA0154001542000000000000
B0634403155374S11659679EA0153101528000000000000
B0634443155412S11659773EA0151401512000000000000
B0634483155442S11659876EA0150101500000000000000
B0634523155469S11659981EA0149501496000000000000
B0634563155491S11700088EA0149501497000000000000
B0635003155515S11700188EA0149701499000000000000
B0635043155539S11700286EA0149001491000000000000
B0635083155564S11700387EA0148401487000000000000
B0635123155586S11700487EA0148301486000000000000
B0635163155611S11700585EA0148001481000000000000
B0635203155636S11700684EA0147801480000000000000
B0635243155660S11700779EA0147201468000000000000
B0635283155686S11700874EA0145801454000000000000
B0635323155716S11700966EA0144401438000000000000
B0635363155749S11701056EA0143201432000000000000
B0635403155779S11701142EA0143101429000000000000
B0635443155806S11701228EA0142401420000000000000
B0635483155833S11701315EA0141101409000000000000
B0635523155860S11701399EA0140301400000000000000
B0635563155889S11701488EA0138801383000000000000
B0636003155918S11701579EA0138001376000000000000
B0636043155948S11701670EA0137601374000000000000
B0636083155976S11701758EA0137201371000000000000
B0636123156007S11701843EA0137201371000000000000
B0636163156054S11701905EA0137401372000000000000
B0636203156110S11701949EA0137301371000000000000
B0636243156169S11701986EA0137001368000000000000
B0636283156226S11702021EA0137101371000000000000
B0636323156282S11702052EA0137401373000000000000
B0636363156339S11702075EA0137101368000000000000
B0636403156397S11702096EA0136601361000000000000
B0636443156455S11702123EA0135801353000000000000
B0636483156507S11702164EA0134701339000000000000
B0636523156552S11702220EA0133201326000000000000
B0636563156592S11702283EA0132101315000000000000
B0637003156631S11702348EA0131201307000000000000
B0637043156669S11702415EA0130301298000000000000
B0637083156717S11702465EA0130301299000000000000
B0637123156776S11702496EA0130001295000000000000
B0637163156839S11702512EA0129601288000000000000
B0637203156906S11702521EA0128201272000000000000
B0637243156972S11702551EA0126701258000000000000
B0637283157029S11702602EA0125701249000000000000
B0637323157076S11702664EA0124701242000000000000
B0637363157115S11702734EA0124001233000000000000
B0637403157147S11702808EA0123101223000000000000
B0637443157177S11702886EA0122001211000000000000
B0637483157207S11702967EA0120701197000000000000
B0637523157236S11703052EA0119801189000000000000
B0637563157262S11703137EA0119201184000000000000
B0638003157284S11703223EA0118301176000000000000
B0638043157305S11703312EA0116801156000000000000
B0638083157329S11703404EA0115301143000000000000
B0638123157354S11703495EA0114701135000000000000
B0638163157380S11703583EA0114401138000000000000
B0638203157420S11703653EA0115601154000000000000
B0638243157470S11703707EA0116101156000000000000
B0638283157523S11703756EA0116401162000000000000
B0638323157580S11703756EA0117601171000000000000
B0638363157552S11703674EA0118201178000000000000
B0638403157470S11703677EA0119201192000000000000
B0638443157426S11703743EA0120701207000000000000
B0638483157439S11703806EA0121601215000000000000
B0638523157479S11703790EA0122701227000000000000
B0638563157475S11703718EA0123501230000000000000
B0639003157411S11703683EA0124301242000000000000
B0639043157352S11703726EA0125201245000000000000
B0639083157350S11703795EA0125001243000000000000
B0639123157397S11703808EA0125501253000000000000
B0639163157427S11703755EA0126101258000000000000
B0639203157409S11703679EA0126401263000000000000
B0639243157344S11703644EA0127401276000000000000
B0639283157283S11703681EA0128501287000000000000
B0639323157272S11703744EA0129001287000000000000
B0639363157311S11703770EA0128801283000000000000
B0639403157353S11703729EA0128601284000000015000
B0639443157350S11703655EA0129401293000000000000
B0639483157314S11703583EA0129401291000000000000
B0639523157254S11703534EA0130301299000000000000
B0639563157183S11703547EA0130801308000000000000
B0640003157172S11703608EA0131901316000000000000
B0640043157219S11703601EA0131901315000000015000
B0640083157227S11703533EA0133001337000000015000
B0640123157183S11703477EA0134301339000000015000
B0640163157115S11703468EA0134701346000000015000
B0640203157056S11703504EA0134901347000000015000
B0640243157025S11703570EA0135101349000000015000
B0640283157029S11703638EA0134801342000000015000
B0640323157056S11703703EA0133701329000000000000
B0640363157090S11703770EA0132801323000000000000
B0640403157131S11703837EA0132901324000000000000
B0640443157179S11703893EA0132701321000000000000
B0640483157236S11703937EA0132401318000000000000
B0640523157301S11703967EA0131901316000000000000
B0640563157370S11703989EA0132501325000000000000
B0641003157436S11704002EA0132901324000000000000
B0641043157505S11704006EA0132201315000000000000
B0641083157578S11704002EA0130801301000000000000
B0641123157653S11703993EA0129901295000000000000
B0641163157727S11703986EA0130201301000000000000
B0641203157800S11703995EA0130601305000000000000
B0641243157869S11704014EA0130701305000000000000
B0641283157935S11704037EA0130601303000000000000
B0641323158003S11704060EA0130101297000000000000
B0641363158072S11704086EA0129901297000000000000
B0641403158141S11704115EA0130101300000000000000
B0641443158210S11704145EA0130601305000000000000
B0641483158276S11704125EA0132001316000000000000
B0641523158265S11704041EA0133601337000000000000
B0641563158195S11704021EA0135201353000000000000
B0642003158141S11704067EA0135501352000000000000
B0642043158130S11704138EA0135501355000000000000
B0642083158172S11704171EA0136501370000000015000
B0642123158204S11704123EA0137301372000000015000
B0642163158184S11704046EA0137101368000000015000
B0642203158117S11704014EA0137601380000000015000
B0642243158060S11704049EA0138601384000000015000
B0642283158054S11704116EA0138401380000000015000
B0642323158104S11704151EA0138101380000000015000
B0642363158145S11704101EA0139001394000000015000
B0642403158113S11704032EA0140101402000000015000
B0642443158046S11704028EA0140401404000000015000
B0642483158003S11704080EA0141001412000000015000
B0642523158000S11704147EA0141201411000000015000
B0642563158026S11704212EA0140701404000000000000
B0643003158081S11704255EA0140601403000000000000
B0643043158145S11704279EA0140401403000000000000
B0643083158211S11704296EA0140201396000000000000
B0643123158278S11704314EA0139301387000000000000
B0643163158346S11704342EA0138101375000000000000
B0643203158403S11704393EA0137201367000000000000
B0643243158449S11704459EA0136601360000000000000
B0643283158485S11704535EA0135601349000000000000
B0643323158518S11704615EA0134701339000000000000
B0643363158548S11704700EA0133901331000000000000
B0643403158576S11704784EA0133101324000000000000
B0643443158603S11704868EA0132401317000000000000
B0643483158627S11704952EA0131601310000000000000
B0643523158646S11705037EA0130801301000000000000
B0643563158666S11705122EA0129801291000000000000
B0644003158689S11705210EA0128901284000000000000
B0644043158711S11705294EA0128601277000000000000
B0644083158733S11705380EA0127801269000000000000
B0644123158750S11705470EA0126901259000000000000
B0644163158767S11705559EA0125801248000000000000
B0644203158783S11705648EA0125201244000000000000
B0644243158797S11705733EA0124901241000000000000
B0644283158811S11705815EA0124601238000000000000
B0644323158827S11705897EA0123701228000000000000
B0644363158845S11705982EA0123401227000000000000
B0644403158871S11706060EA0124601244000000000000
B0644443158926S11706081EA0127001277000000000000
B0644483158935S11706019EA0129601298000000000000
B0644523158875S11705992EA0130601301000000000000
B0644563158823S11706040EA0130701302000000000000
B0645003158840S11706101EA0131801321000000000000
B0645043158882S11706084EA0133801345000000000000
B0645083158867S11706022EA0135701362000000000000
B0645123158808S11705995EA0137101376000000000000
B0645163158746S11706019EA0138501389000000000000
B0645203158733S11706081EA0139901406000000000000
B0645243158772S11706100EA0141001413000000015000
B0645283158792S11706044EA0141601424000000015000
B0645323158753S11705990EA0143101440000000015000
B0645363158691S11705996EA0144301450000000015000
B0645403158665S11706057EA0145201459000000000000
B0645443158693S11706104EA0146101470000000000000
B0645483158736S11706086EA0147001482000000015000
B0645523158740S11706022EA0148501499000000015000
B0645563158691S11705978EA0150101511000000015000
B0646003158633S11705997EA0151101520000000015000
B0646043158624S11706058EA0151801525000000000000
B0646083158665S11706090EA0152701537000000000000
B0646123158701S11706057EA0154601558000000015000
B0646163158701S11705997EA0155901566000000015000
B0646203158658S11705943EA0156601571000000000000
B0646243158592S11705939EA0156901575000000000000
B0646283158545S11705990EA0157401580000000000000
B0646323158537S11706058EA0158001587000000000000
B0646363158574S11706104EA0158401591000000000000
B0646403158613S11706065EA0159201604000000015000
B0646443158580S11706001EA0160201614000000015000
B0646483158512S11706008EA0161201626000000015000
B0646523158480S11706066EA0162201634000000015000
B0646563158499S11706121EA0162601636000000015000
B0647003158548S11706125EA0163001643000000015000
B0647043158576S11706074EA0163501646000000015000
B0647083158558S11706008EA0164101655000000015000
B0647123158496S11705980EA0164801659000000015000
B0647163158442S11706021EA0165501671000000015000
B0647203158445S11706084EA0166201673000000015000
B0647243158490S11706097EA0166401676000000015000
B0647283158514S11706043EA0166801679000000015000
B0647323158476S11705980EA0167101683000000015000
B0647363158408S11705965EA0167701690000000015000
B0647403158350S11706000EA0168501698000000015000
B0647443158327S11706066EA0168401691000000015000
B0647483158330S11706140EA0167901686000000000000
B0647523158343S11706220EA0167601682000000000000
B0647563158366S11706300EA0167001677000000000000
B0648003158392S11706382EA0166301668000000000000
B0648043158420S11706468EA0165501659000000000000
B0648083158449S11706555EA0164301645000000000000
B0648123158477S11706645EA0163301639000000000000
B0648163158501S11706733EA0163101639000000000000
B0648203158524S11706819EA0162901634000000000000
B0648243158550S11706898EA0163101640000000000000
B0648283158574S11706974EA0163501644000000000000
B0648323158594S11707048EA0163301638000000000000
B0648363158614S11707122EA0162901637000000000000
B0648403158627S11707192EA0163101640000000000000
B0648443158637S11707258EA0163101640000000000000
B0648483158648S11707326EA0163301641000000000000
B0648523158658S11707391EA0163101637000000000000
B0648563158671S11707457EA0162401630000000000000
B0649003158683S11707524EA0162701638000000000000
B0649043158694S11707590EA0163001638000000000000
B0649083158705S11707654EA0163101639000000000000
B0649123158717S11707720EA0163001635000000000000
B0649163158731S11707789EA0162501631000000000000
B0649203158759S11707851EA0162601632000000000000
B0649243158808S11707873EA0163001639000000000000
B0649283158844S11707832EA0163301637000000000000
B0649323158827S11707760EA0162401628000000000000
B0649363158759S11707720EA0162401630000000000000
B0649403158691S11707745EA0162301627000000000000
B0649443158640S11707799EA0162001624000000000000
B0649483158615S11707871EA0161101605000000000000
B0649523158616S11707951EA0159101586000000000000
B0649563158633S11708033EA0157201566000000000000
B0650003158659S11708116EA0155401551000000000000
B0650043158689S11708201EA0154101541000000000000
B0650083158724S11708283EA0153701538000000000000
B0650123158761S11708363EA0152901529000000000000
B0650163158792S11708447EA0152701531000000000000
B0650203158826S11708525EA0152501523000000000000
B0650243158862S11708603EA0150901502000000000000
B0650283158905S11708678EA0149501497000000000000
B0650323158949S11708748EA0149601499000000000000
B0650363158996S11708809EA0150101503000000000000
B0650403159045S11708864EA0149801499000000000000
B0650443159096S11708916EA0149401495000000000000
B0650483159147S11708968EA0149501499000000000000
B0650523159199S11709017EA0150801516000000000000
B0650563159243S11709060EA0152001525000000000000
B0651003159289S11709104EA0151801518000000000000
B0651043159337S11709150EA0150801511000000000000
B0651083159387S11709188EA0151201521000000000000
B0651123159434S11709221EA0152701538000000000000
B0651163159481S11709232EA0154301547000000000000
B0651203159499S11709168EA0154301540000000000000
B0651243159438S11709116EA0153801539000000000000
B0651283159367S11709134EA0154801554000000000000
B0651323159321S11709185EA0155901565000000000000
B0651363159322S11709241EA0156501569000000000000
B0651403159360S11709243EA0156701569000000000000
B0651443159365S11709173EA0156401564000000015000
B0651483159305S11709126EA0156301568000000015000
B0651523159237S11709152EA0156601571000000000000
B0651563159196S11709211EA0157001576000000000000
B0652003159192S11709276EA0157001572000000000000
B0652043159211S11709338EA0156201563000000000000
B0652083159242S11709398EA0155201554000000000000
B0652123159287S11709445EA0155501560000000000000
B0652163159338S11709483EA0156201569000000000000
B0652203159393S11709510EA0156901578000000000000
B0652243159439S11709548EA0158001591000000000000
B0652283159474S11709598EA0159201598000000000000
B0652323159511S11709646EA0159801607000000000000
B0652363159547S11709693EA0160301608000000000000
B0652403159588S11709741EA0160001606000000000000
B0652443159627S11709793EA0159901603000000000000
B0652483159667S11709844EA0159501598000000000000
B0652523159707S11709895EA0158901589000000000000
B0652563159754S11709940EA0157301572000000000000
B0653003159812S11709966EA0155801554000000000000
B0653043159879S11709964EA0154201536000000000000
B0653083159946S11709940EA0152301518000000000000
B0653123200010S11709895EA0150901509000000000000
B0653163200069S11709839EA0150501503000000000000
B0653203200123S11709779EA0149601497000000000000
B0653243200176S11709715EA0149101493000000000000
B0653283200222S11709653EA0149901507000000000000
B0653323200266S11709594EA0150701512000000000000
B0653363200323S11709568EA0151001518000000000000
B0653403200378S11709567EA0151701525000000000000
B0653443200430S11709576EA0152101523000000000000
B0653483200485S11709585EA0151601519000000000000
B0653523200540S11709591EA0151201515000000000000
B0653563200598S11709596EA0150501505000000000000
B0654003200659S11709598EA0149701499000000000000
B0654043200720S11709600EA0150401512000000000000
B0654083200773S11709576EA0152201527000000000000
B0654123200773S11709503EA0152901532000000000000
B0654163200712S11709472EA0152301518000000000000
B0654203200652S11709520EA0151201516000000000000
B0654243200628S11709596EA0152101535000000000000
B0654283200657S11709636EA0154701562000000000000
B0654323200691S11709601EA0155701555000000000000
B0654363200678S11709527EA0155201556000000000000
B0654403200617S11709493EA0155901570000000000000
B0654443200568S11709535EA0157201580000000000000
B0654483200572S11709594EA0158301594000000000000
B0654523200612S11709615EA0159201598000000000000
B0654563200644S11709567EA0159101594000000000000
B0655003200618S11709496EA0158701588000000000000
B0655043200547S11709464EA0158401592000000000000
B0655083200474S11709483EA0159201601000000000000
B0655123200433S11709542EA0159801605000000000000
B0655163200435S11709611EA0159401598000000000000
B0655203200469S11709659EA0159101596000000000000
B0655243200518S11709679EA0158901592000000000000
B0655283200576S11709650EA0158201589000000000000
B0655323200620S11709589EA0158001585000000000000
B0655363200661S11709522EA0157501581000000000000
B0655403200702S11709451EA0157001577000000000000
B0655443200739S11709379EA0156201560000000000000
B0655483200778S11709302EA0154501547000000000000
B0655523200817S11709228EA0153601540000000000000
B0655563200855S11709151EA0153101536000000000000
B0656003200893S11709074EA0152501532000000000000
B0656043200930S11709000EA0152501532000000000000
B0656083200968S11708928EA0152101525000000000000
B0656123201006S11708851EA0151001514000000000000
B0656163201042S11708772EA0149601498000000000000
B0656203201081S11708691EA0148301487000000000000
B0656243201122S11708606EA0147601477000000000000
B0656283201162S11708522EA0146701468000000000000
B0656323201202S11708435EA0145601459000000000000
B0656363201240S11708352EA0145201454000000000000
B0656403201278S11708270EA0144001440000000000000
B0656443201315S11708189EA0143001432000000000000
B0656483201354S11708112EA0142201423000000000000
B0656523201393S11708034EA0141501417000000000000
B0656563201434S11707956EA0140401405000000000000
B0657003201476S11707881EA0139701396000000000000
B0657043201523S11707808EA0138801388000000000000
B0657083201570S11707737EA0138001381000000000000
B0657123201617S11707663EA0137601377000000000000
B0657163201664S11707589EA0136801369000000000000
B0657203201713S11707517EA0136301368000000000000
B0657243201769S11707455EA0136701367000000000000
B0657283201834S11707430EA0137201380000000000000
B0657323201895S11707429EA0138501395000000000000
B0657363201952S11707434EA0139101393000000000000
B0657403202009S11707444EA0139601404000000000000
B0657443202061S11707425EA0141201420000000000000
B0657483202041S11707362EA0142401424000000000000
B0657523201976S11707368EA0142001419000000000000
B0657563201934S11707427EA0142101428000000000000
B0658003201934S11707496EA0143101439000000000000
B0658043201970S11707543EA0144001447000000000000
B0658083202020S11707553EA0144601451000000000000
B0658123202063S11707517EA0145101461000000000000
B0658163202072S11707448EA0145801461000000000000
B0658203202029S11707382EA0145501458000000000000
B0658243201957S11707366EA0145601465000000000000
B0658283201896S11707399EA0146501474000000000000
B0658323201860S11707460EA0147601484000000000000
B0658363201857S11707526EA0148201487000000000000
B0658403201887S11707576EA0148101485000000000000
B0658443201939S11707577EA0147801479000000000000
B0658483201973S11707516EA0147601484000000000000
B0658523201954S11707434EA0148301495000000000000
B0658563201903S11707373EA0149101497000000000000
B0659003201831S11707335EA0149201499000000000000
B0659043201755S11707336EA0150401518000000000000
B0659083201712S11707386EA0152301536000000000000
B0659123201721S11707443EA0152601530000000000000
B0659163201768S11707469EA0152201529000000000000
B0659203201818S11707447EA0152801538000000000000
B0659243201851S11707394EA0153301543000000000000
B0659283201882S11707332EA0153301536000000000000
B0659323201920S11707265EA0151701516000000000000
B0659363201964S11707187EA0150101504000000000000
B0659403202011S11707106EA0150201511000000000000
B0659443202058S11707030EA0151401523000000000000
B0659483202104S11706958EA0151701522000000000000
B0659523202150S11706885EA0150301503000000000000
B0659563202197S11706807EA0148201483000000000000
B0700003202242S11706724EA0147901477000000000000
B0700043202285S11706640EA0147401470000000000000
B0700083202331S11706554EA0147001467000000000000
B0700123202377S11706468EA0146701463000000000000
B0700163202427S11706381EA0147101471000000000000
B0700203202472S11706295EA0147201471000000000000
B0700243202518S11706207EA0146601461000000000000
B0700283202567S11706114EA0145801467000000000000
B0700323202617S11706026EA0146901484000000000000
B0700363202678S11705965EA0148301490000000000000
B0700403202747S11705940EA0148701493000000000000
B0700443202813S11705915EA0148201479000000000000
B0700483202879S11705870EA0146201458000000000000
B0700523202944S11705809EA0144401443000000000000
B0700563203005S11705740EA0143601436000000000000
B0701003203060S11705663EA0143001431000000000000
B0701043203111S11705581EA0142601428000000000000
B0701083203160S11705498EA0142501426000000000000
B0701123203208S11705419EA0142301422000000000000
B0701163203256S11705340EA0141801419000000000000
B0701203203304S11705263EA0141801416000000000000
B0701243203354S11705184EA0141501416000000000000
B0701283203402S11705104EA0141401414000000000000
B0701323203450S11705025EA0140301400000000000000
B0701363203501S11704944EA0139401394000000000000
B0701403203550S11704868EA0139101391000000000000
B0701443203599S11704792EA0138701385000000000000
B0701483203645S11704717EA0137401368000000000000
B0701523203692S11704638EA0136401360000000000000
B0701563203732S11704557EA0136001360000000000000
B0702003203772S11704478EA0136101363000000000000
B0702043203811S11704397EA0135801357000000000000
B0702083203850S11704314EA0135901362000000000000
B0702123203896S11704246EA0137501385000000000000
B0702163203945S11704249EA0139701405000000000000
B0702203203948S11704309EA0140401406000000000000
B0702243203896S11704357EA0140401407000000000000
B0702283203823S11704349EA0141001418000000000000
B0702323203767S11704298EA0142301432000000015000
B0702363203771S11704231EA0143401435000000015000
B0702403203818S11704214EA0143401436000000015000
B0702443203842S11704262EA0143501439000000015000
B0702483203811S11704318EA0143701440000000015000
B0702523203742S11704329EA0144401450000000015000
B0702563203679S11704306EA0145701465000000015000
B0703003203628S11704257EA0146501470000000000000
B0703043203625S11704186EA0146601465000000000000
B0703083203672S11704153EA0146401466000000015000
B0703123203722S11704166EA0146401464000000000000
B0703163203772S11704190EA0146001459000000000000
B0703203203823S11704223EA0145801458000000000000
B0703243203870S11704270EA0146101460000000000000
B0703283203917S11704316EA0145601454000000000000
B0703323203971S11704344EA0146001465000000000000
B0703363204027S11704345EA0147301480000000000000
B0703403204083S11704339EA0147701482000000000000
B0703443204139S11704345EA0148401498000000000000
B0703483204191S11704342EA0150201512000000000000
B0703523204200S11704281EA0151501522000000000000
B0703563204130S11704261EA0152001529000000000000
B0704003204076S11704316EA0153301550000000000000
B0704043204067S11704389EA0155301565000000000000
B0704083204095S11704443EA0156501574000000000000
B0704123204141S11704449EA0156801571000000000000
B0704163204179S11704409EA0156401567000000000000
B0704203204191S11704340EA0156401571000000000000
B0704243204164S11704264EA0156501566000000000000
B0704283204088S11704233EA0156701576000000000000
B0704323204011S11704264EA0157401587000000000000
B0704363203959S11704335EA0158401598000000000000
B0704403203943S11704417EA0159801611000000000000
B0704443203953S11704492EA0160401615000000000000
B0704483203982S11704556EA0160701611000000000000
B0704523204034S11704583EA0159101586000000000000
B0704563204095S11704556EA0156601562000000000000
B0705003204141S11704492EA0154801551000000000000
B0705043204174S11704410EA0153701538000000000000
B0705083204200S11704316EA0152901533000000000000
B0705123204225S11704219EA0152801529000000000000
B0705163204251S11704118EA0152201525000000000000
B0705203204278S11704020EA0152501532000000000000
B0705243204310S11703925EA0152901531000000000000
B0705283204338S11703832EA0152601532000000000000
B0705323204364S11703743EA0152501528000000000000
B0705363204391S11703660EA0151901522000000000000
B0705403204418S11703578EA0150701508000000000000
B0705443204450S11703494EA0149501497000000000000
B0705483204482S11703409EA0148801492000000000000
B0705523204515S11703323EA0148101482000000000000
B0705563204552S11703239EA0147401476000000000000
B0706003204590S11703158EA0147101474000000000000
B0706043204629S11703079EA0147001475000000000000
B0706083204665S11703002EA0146901473000000000000
B0706123204699S11702923EA0146701472000000000000
B0706163204729S11702842EA0146801475000000000000
B0706203204758S11702763EA0147601484000000000000
B0706243204785S11702686EA0148501495000000000000
B0706283204815S11702612EA0149901508000000000000
B0706323204825S11702529EA0150801517000000000000
B0706363204778S11702460EA0151601527000000000000
B0706403204707S11702454EA0151901522000000000000
B0706443204650S11702496EA0151401520000000000000
B0706483204634S11702565EA0151001514000000000000
B0706523204655S11702633EA0150201506000000000000
B0706563204698S11702688EA0150201512000000000000
B0707003204751S11702698EA0151901531000000000000
B0707043204751S11702626EA0153301542000000000000
B0707083204687S11702587EA0154001548000000000000
B0707123204617S11702607EA0154501555000000000000
B0707163204561S11702652EA0155401564000000000000
B0707203204533S11702715EA0156001564000000000000
B0707243204539S11702784EA0155701561000000000000
B0707283204569S11702842EA0155601563000000000000
B0707323204619S11702854EA0156101568000000000000
B0707363204667S11702819EA0156701575000000000000
B0707403204681S11702750EA0157701586000000000000
B0707443204645S11702678EA0158401594000000000000
B0707483204574S11702647EA0159201601000000000000
B0707523204508S11702680EA0159601611000000000000
B0707563204490S11702743EA0161001625000000000000
B0708003204518S11702782EA0161901629000000000000
B0708043204564S11702767EA0162801644000000000000
B0708083204578S11702702EA0164301657000000000000
B0708123204544S11702632EA0165201667000000000000
B0708163204478S11702602EA0166301675000000000000
B0708203204418S11702637EA0167101682000000000000
B0708243204411S11702699EA0167601685000000000000
B0708283204450S11702732EA0167801690000000000000
B0708323204500S11702725EA0168801709000000000000
B0708363204539S11702690EA0170301717000000000000
B0708403204563S11702626EA0170001705000000000000
B0708443204591S11702555EA0168901694000000000000
B0708483204625S11702476EA0168201691000000000000
B0708523204660S11702390EA0167201677000000000000
B0708563204697S11702300EA0165601661000000000000
B0709003204730S11702207EA0164401655000000000000
B0709043204762S11702118EA0164601659000000000000
B0709083204793S11702031EA0164501654000000000000
B0709123204821S11701943EA0163801644000000000000
B0709163204854S11701850EA0162601632000000000000
B0709203204893S11701761EA0161901627000000000000
B0709243204932S11701677EA0162401637000000000000
B0709283204972S11701603EA0162701634000000000000
B0709323205015S11701531EA0161801623000000000000
B0709363205059S11701454EA0160501609000000000000
B0709403205107S11701376EA0159301597000000000000
B0709443205153S11701302EA0158601590000000000000
B0709483205193S11701224EA0157901583000000000000
B0709523205231S11701144EA0157001572000000000000
B0709563205271S11701065EA0156201567000000000000
B0710003205311S11700985EA0155601560000000000000
B0710043205350S11700903EA0155001556000000000000
B0710083205393S11700821EA0154601551000000000000
B0710123205436S11700738EA0154901558000000000000
B0710163205478S11700658EA0155501562000000000000
B0710203205521S11700579EA0155301557000000000000
B0710243205566S11700498EA0154801557000000000000
B0710283205609S11700420EA0155401561000000000000
B0710323205648S11700340EA0155101557000000000000
B0710363205688S11700258EA0154901555000000000000
B0710403205735S11700179EA0154801556000000000000
B0710443205782S11700095EA0154701554000000000000
B0710483205828S11700013EA0154901558000000000000
B0710523205874S11659932EA0154801553000000000000
B0710563205924S11659847EA0155001564000000000000
B0711003205973S11659766EA0156301575000000000000
B0711043206021S11659683EA0157501588000000000000
B0711083206067S11659599EA0158601597000000000000
B0711123206116S11659516EA0158301585000000000000
B0711163206171S11659427EA0157101577000000000000
B0711203206228S11659339EA0156401569000000000000
B0711243206286S11659249EA0155301558000000000000
B0711283206341S11659161EA0154701551000000000000
B0711323206393S11659070EA0153601538000000000000
B0711363206444S11658979EA0152601531000000000000
B0711403206494S11658892EA0152101529000000000000
B0711443206545S11658812EA0152701539000000000000
B0711483206591S11658736EA0154001550000000000000
B0711523206631S11658658EA0154301552000000000000
B0711563206669S11658574EA0154401551000000000000
B0712003206710S11658494EA0155001560000000000000
B0712043206751S11658417EA0156101569000000000000
B0712083206770S11658330EA0157101579000000000000
B0712123206782S11658242EA0157201577000000000000
B0712163206812S11658161EA0157201577000000000000
B0712203206852S11658091EA0156801569000000000000
B0712243206900S11658022EA0155701559000000000000
B0712283206951S11657954EA0155001551000000000000
B0712323207004S11657885EA0154201543000000000000
B0712363207056S11657815EA0153201532000000000000
B0712403207108S11657745EA0152401523000000000000
B0712443207155S11657667EA0151001510000000000000
B0712483207198S11657585EA0150301509000000000000
B0712523207243S11657514EA0150601511000000000000
B0712563207289S11657445EA0150101501000000000000
B0713003207336S11657374EA0149101490000000000000
B0713043207381S11657302EA0147901479000000000000
B0713083207423S11657224EA0146901470000000000000
B0713123207460S11657146EA0146401463000000000000
B0713163207503S11657074EA0145601451000000000000
B0713203207550S11657003EA0144501438000000000000
B0713243207605S11656936EA0143601427000000000000
B0713283207663S11656874EA0142901425000000000000
B0713323207720S11656809EA0143201429000000000000
B0713363207775S11656741EA0143701439000000000000
B0713403207827S11656678EA0145101455000000000000
B0713443207861S11656604EA0146501470000000000000
B0713483207844S11656516EA0147401481000000000000
B0713523207791S11656455EA0148601493000000000000
B0713563207720S11656455EA0149401493000000000000
B0714003207671S11656513EA0148401483000000000000
B0714043207661S11656592EA0147701480000000000000
B0714083207675S11656665EA0147901480000000000000
B0714123207703S11656728EA0147901483000000000000
B0714163207742S11656788EA0148101486000000000000
B0714203207785S11656844EA0148401486000000000000
B0714243207830S11656895EA0148401487000000000000
B0714283207876S11656931EA0148001478000000000000
B0714323207937S11656934EA0146401458000000000000
B0714363208002S11656892EA0145201457000000000000
B0714403208060S11656836EA0146101471000000000000
B0714443208125S11656806EA0147201482000000000000
B0714483208170S11656848EA0149101505000000000000
B0714523208123S11656897EA0150801512000000015000
B0714563208061S11656848EA0150601511000000015000
B0715003208067S11656766EA0151301523000000015000
B0715043208122S11656744EA0152701537000000015000
B0715083208160S11656791EA0153601547000000015000
B0715123208131S11656854EA0154901559000000015000
B0715163208060S11656844EA0155801565000000015000
B0715203208031S11656770EA0156701577000000015000
B0715243208066S11656713EA0157601587000000015000
B0715283208121S11656709EA0158901602000000015000
B0715323208156S11656749EA0160301613000000015000
B0715363208152S11656805EA0161101618000000015000
B0715403208108S11656843EA0160701605000000015000
B0715443208038S11656827EA0159701601000000015000
B0715483207969S11656784EA0160001611000000015000
B0715523207922S11656722EA0161301632000000015000
B0715563207944S11656672EA0163601650000000015000
B0716003207984S11656696EA0164101638000000015000
B0716043207965S11656766EA0163801652000000015000
B0716083207898S11656775EA0165201663000000015000
B0716123207862S11656709EA0166201674000000015000
B0716163207883S11656646EA0167401686000000015000
B0716203207932S11656631EA0168101693000000015000
B0716243207971S11656672EA0169001704000000015000
B0716283207958S11656740EA0170101712000000015000
B0716323207896S11656769EA0170801720000000015000
B0716363207833S11656732EA0171501731000000015000
B0716403207813S11656661EA0173101748000000015000
B0716443207835S11656601EA0174301761000000015000
B0716483207884S11656581EA0174901758000000015000
B0716523207940S11656604EA0174801759000000015000
B0716563207970S11656662EA0176001777000000015000
B0717003207941S11656721EA0176901779000000015000
B0717043207876S11656730EA0177001780000000015000
B0717083207818S11656683EA0177201786000000015000
B0717123207793S11656611EA0178401798000000015000
B0717163207815S11656548EA0179101807000000015000
B0717203207865S11656518EA0179401805000000015000
B0717243207918S11656533EA0179501809000000015000
B0717283207965S11656579EA0179701805000000015000
B0717323208002S11656640EA0178701789000000015000
B0717363208044S11656700EA0177101778000000000000
B0717403208095S11656748EA0176701777000000000000
B0717443208142S11656797EA0176901779000000000000
B0717483208186S11656844EA0177001779000000000000
B0717523208231S11656893EA0176501772000000000000
B0717563208278S11656943EA0176001767000000000000
B0718003208322S11656995EA0175401759000000000000
B0718043208366S11657049EA0174501750000000000000
B0718083208416S11657103EA0173701741000000000000
B0718123208468S11657161EA0172701730000000000000
B0718163208521S11657221EA0172501735000000000000
B0718203208572S11657278EA0172901739000000000000
B0718243208621S11657333EA0173301744000000000000
B0718283208671S11657386EA0173701747000000000000
B0718323208720S11657442EA0173601745000000000000
B0718363208773S11657498EA0173401742000000000000
B0718403208827S11657554EA0173801752000000000000
B0718443208875S11657608EA0175201765000000000000
B0718483208923S11657654EA0175601765000000000000
B0718523208979S11657692EA0174801754000000000000
B0718563209037S11657736EA0174101747000000000000
B0719003209089S11657794EA0173501740000000000000
B0719043209137S11657857EA0173001737000000000000
B0719083209185S11657918EA0172801732000000000000
B0719123209243S11657969EA0171601721000000000000
B0719163209300S11658013EA0171601726000000000000
B0719203209349S11658057EA0172201731000000000000
B0719243209395S11658102EA0171601717000000000000
B0719283209444S11658156EA0170201705000000000000
B0719323209488S11658216EA0169901706000000000000
B0719363209526S11658278EA0170501713000000000000
B0719403209559S11658334EA0171101719000000000000
B0719443209588S11658388EA0170901712000000000000
B0719483209622S11658443EA0170201707000000000000
B0719523209655S11658498EA0170001705000000000000
B0719563209689S11658550EA0169901704000000000000
B0720003209724S11658598EA0169801704000000000000
B0720043209759S11658647EA0169601699000000000000
B0720083209795S11658700EA0169201694000000000000
B0720123209838S11658756EA0168801693000000000000
B0720163209885S11658814EA0169301701000000000000
B0720203209928S11658872EA0170401714000000000000
B0720243209968S11658929EA0171101719000000000000
B0720283210014S11658986EA0171101715000000000000
B0720323210055S11659048EA0170801713000000000000
B0720363210094S11659111EA0170601711000000000000
B0720403210137S11659174EA0170401710000000000000
B0720443210184S11659235EA0170001703000000000000
B0720483210232S11659295EA0169101691000000000000
B0720523210284S11659354EA0167801679000000000000
B0720563210337S11659414EA0166901670000000000000
B0721003210394S11659470EA0166501667000000000000
B0721043210452S11659523EA0166101662000000000000
B0721083210506S11659579EA0165501657000000000000
B0721123210558S11659640EA0165101650000000000000
B0721163210614S11659701EA0164201641000000000000
B0721203210675S11659753EA0163801644000000000000
B0721243210732S11659804EA0164901656000000000000
B0721283210787S11659850EA0165201655000000000000
B0721323210848S11659889EA0164301641000000000000
B0721363210911S11659929EA0163401635000000000000
B0721403210969S11659974EA0163801644000000000000
B0721443211020S11700019EA0164701653000000000000
B0721483211065S11700062EA0165101652000000000000
B0721523211111S11700107EA0164101639000000000000
B0721563211161S11700158EA0162901627000000000000
B0722003211212S11700207EA0162501628000000000000
B0722043211263S11700246EA0162901634000000000000
B0722083211311S11700276EA0163201633000000000000
B0722123211363S11700303EA0162501623000000000000
B0722163211423S11700323EA0161001606000000000000
B0722203211492S11700328EA0159701595000000000000
B0722243211557S11700318EA0159501599000000000000
B0722283211611S11700289EA0159801597000000000000
B0722323211654S11700233EA0158701580000000000000
B0722363211681S11700151EA0156601560000000000000
B0722403211681S11700051EA0155001548000000000000
B0722443211644S11659956EA0154701548000000000000
B0722483211570S11659889EA0154701548000000000000
B0722523211479S11659850EA0154301538000000000000
B0722563211384S11659813EA0153601537000000000000
B0723003211298S11659776EA0154301548000000000000
B0723043211221S11659735EA0155001552000000000000
B0723083211150S11659688EA0154501540000000000000
B0723123211077S11659631EA0152801523000000000000
B0723163211011S11659558EA0151801516000000000000
B0723203210961S11659475EA0152101522000000000000
B0723243210937S11659389EA0152701529000000000000
B0723283210937S11659305EA0152701521000000000000
B0723323210950S11659217EA0151201506000000000000
B0723363210946S11659122EA0150101496000000000000
B0723403210913S11659025EA0149001483000000000000
B0723443210861S11658934EA0147601473000000000000
B0723483210799S11658853EA0147201469000000000000
B0723523210734S11658773EA0146501455000000000000
B0723563210666S11658697EA0145101446000000000000
B0724003210596S11658626EA0145401456000000000000
B0724043210518S11658574EA0146501468000000000000
B0724083210439S11658543EA0147601478000000000000
B0724123210354S11658538EA0148101480000000000000
B0724163210277S11658565EA0149001493000000000000
B0724203210224S11658625EA0150301505000000000000
B0724243210203S11658702EA0150401505000000000000
B0724283210223S11658769EA0151001511000000000000
B0724323210266S11658806EA0151001508000000000000
B0724363210316S11658798EA0150301498000000000000
B0724403210358S11658751EA0149301488000000000000
B0724443210370S11658673EA0148901491000000000000
B0724483210348S11658591EA0149201494000000000000
B0724523210301S11658517EA0149101489000000000000
B0724563210240S11658452EA0149001492000000000000
B0725003210170S11658396EA0149301494000000000000
B0725043210097S11658340EA0149301495000000000000
B0725083210025S11658286EA0149301494000000000000
B0725123209954S11658236EA0148301481000000000000
B0725163209880S11658184EA0147401469000000000000
B0725203209804S11658135EA0146301460000000000000
B0725243209726S11658089EA0145901458000000000000
B0725283209647S11658047EA0145301450000000000000
B0725323209568S11657998EA0144401441000000000000
B0725363209492S11657944EA0143501431000000000000
B0725403209421S11657884EA0142901428000000000000
B0725443209353S11657827EA0143101431000000000000
B0725483209284S11657776EA0143301433000000000000
B0725523209213S11657725EA0143401433000000000000
B0725563209143S11657672EA0143601436000000000000
B0726003209072S11657619EA0144001440000000000000
B0726043209002S11657563EA0144301441000000000000
B0726083208929S11657502EA0144501446000000000000
B0726123208851S11657447EA0145301454000000000000
B0726163208769S11657438EA0147001477000000000000
B0726203208719S11657490EA0148901493000000000000
B0726243208724S11657556EA0149701497000000000000
B0726283208767S11657586EA0149601496000000000000
B0726323208818S11657569EA0149701499000000000000
B0726363208855S11657512EA0149901499000000000000
B0726403208863S11657426EA0149901501000000000000
B0726443208831S11657338EA0150201502000000000000
B0726483208768S11657270EA0150501505000000000000
B0726523208686S11657250EA0151101517000000000000
B0726563208641S11657300EA0152801533000000000000
B0727003208659S11657352EA0153301529000000000000
B0727043208712S11657354EA0153101532000000000000
B0727083208750S11657300EA0154101545000000000000
B0727123208746S11657224EA0154801547000000000000
B0727163208702S11657152EA0154501544000000000000
B0727203208643S11657087EA0154501545000000000000
B0727243208577S11657029EA0154401542000000000000
B0727283208506S11656974EA0153701534000000000000
B0727323208431S11656923EA0153201532000000000000
B0727363208359S11656870EA0153101529000000000000
B0727403208283S11656821EA0152501523000000000000
B0727443208210S11656767EA0151501512000000000000
B0727483208136S11656715EA0150301501000000000000
B0727523208061S11656662EA0149301488000000000000
B0727563207988S11656605EA0148301480000000000000
B0728003207917S11656550EA0148201483000000000000
B0728043207841S11656509EA0147801474000000000000
B0728083207757S11656489EA0146501460000000000000
B0728123207663S11656490EA0145001442000000000000
B0728163207564S11656500EA0143601430000000000000
B0728203207463S11656496EA0143301429000000000000
B0728243207377S11656520EA0144201444000000000000
B0728283207341S11656584EA0145601457000000000000
B0728323207354S11656640EA0145401444000000000000
B0728363207397S11656674EA0143901428000000000000
B0728403207447S11656698EA0142801420000000000000
B0728443207501S11656723EA0142101413000000000000
B0728483207555S11656748EA0141501407000000000000
B0728523207611S11656765EA0140801404000000000000
B0728563207666S11656774EA0140901403000000000000
B0729003207720S11656780EA0140101393000000000000
B0729043207776S11656780EA0139301385000000000000
B0729083207830S11656752EA0138501378000000000000
B0729123207866S11656692EA0137601363000000000000
B0729163207870S11656607EA0136001351000000000000
B0729203207840S11656526EA0135301348000000000000
B0729243207792S11656461EA0135201346000000000000
B0729283207722S11656429EA0134901340000000000000
B0729323207645S11656431EA0134101331000000000000
B0729363207588S11656477EA0133801328000000000000
B0729403207577S11656545EA0132901319000000000000
B0729443207607S11656596EA0131401303000000000000
B0729483207654S11656631EA0130101291000000000000
B0729523207713S11656643EA0128501271000000000000
B0729563207775S11656628EA0127001258000000000000
B0730003207833S11656594EA0126401250000000000000
B0730043207889S11656552EA0125201238000000000000
B0730083207945S11656509EA0124501235000000000000
B0730123207997S11656467EA0124801239000000000000
B0730163208052S11656427EA0124201230000000000000
B0730203208114S11656399EA0123101219000000000000
B0730243208182S11656388EA0122601216000000000000
B0730283208249S11656389EA0122001210000000000000
B0730323208316S11656396EA0121601202000000000000
B0730363208383S11656403EA0120901202000000000000
B0730403208448S11656409EA0121901215000000000000
B0730443208500S11656375EA0123601237000000000000
B0730483208499S11656303EA0125601252000000000000
B0730523208444S11656250EA0125901245000000000000
B0730563208370S11656254EA0124801235000000000000
B0731003208330S11656323EA0124301233000000000000
B0731043208338S11656397EA0124501238000000000000
B0731083208376S11656454EA0124701238000000000000
B0731123208428S11656498EA0124401234000000000000
B0731163208487S11656540EA0123301222000000000000
B0731203208558S11656578EA0121901201000000000000
B0731243208638S11656602EA0120301189000000000000
B0731283208723S11656611EA0120201193000000000000
B0731323208803S11656627EA0120101193000000000000
B0731363208883S11656640EA0119601182000000000000
B0731403208967S11656639EA0118301172000000000000
B0731443209049S11656632EA0118401177000000000000
B0731483209122S11656631EA0119101185000000000000
B0731523209187S11656631EA0119601188000000000000
B0731563209250S11656633EA0119001178000000000000
B0732003209321S11656631EA0117601157000000000000
B0732043209400S11656619EA0116001147000000000000
B0732083209481S11656600EA0115601144000000000000
B0732123209561S11656570EA0115701148000000000000
B0732163209633S11656522EA0116901163000000000000
B0732203209682S11656444EA0118601188000000000000
B0732243209720S11656360EA0121001213000000000000
B0732283209774S11656334EA0123701241000000000000
B0732323209829S11656336EA0126001263000000000000
B0732363209872S11656310EA0128401287000000000000
B0732403209882S11656251EA0129701298000000000000
B0732443209841S11656190EA0130201302000000000000
B0732483209780S11656182EA0131801323000000000000
B0732523209742S11656223EA0133101325000000015000
B0732563209741S11656280EA0133101325000000000000
B0733003209781S11656303EA0134101343000000000000
B0733043209806S11656253EA0135701355000000015000
B0733083209765S11656199EA0136601360000000015000
B0733123209709S11656220EA0137701369000000030000
B0733163209707S11656277EA0138001374000000015000
B0733203209751S11656316EA0138201377000000015000
B0733243209806S11656347EA0138101370000000015000
B0733283209867S11656376EA0136901359000000015000
B0733323209930S11656405EA0135001336000000015000
B0733363209994S11656445EA0132701315000000015000
B0733403210049S11656503EA0131701311000000000000
B0733443210102S11656559EA0131401307000000000000
B0733483210159S11656607EA0130801299000000000000
B0733523210218S11656654EA0130001290000000000000
B0733563210280S11656693EA0129301286000000000000
B0734003210345S11656727EA0128801283000000000000
B0734043210407S11656763EA0128501279000000000000
B0734083210470S11656801EA0127901269000000000000
B0734123210532S11656841EA0126701261000000015000
B0734163210587S11656896EA0125301253000000015000
B0734203210627S11656978EA0124601246000000015000
B0734243210665S11657059EA0123701233000000015000
B0734283210708S11657135EA0122801228000000015000
B0734323210744S11657211EA0123001232000000015000
B0734363210783S11657280EA0122101233000000015000
B0734403210827S11657347EA0121501232000000030000
B0734443210877S11657410EA0120801229000000030000
B0734483210934S11657468EA0120601225000000030000
B0734523210995S11657514EA0120901227000000030000
B0734563211057S11657554EA0120901220000000030000
B0735003211122S11657595EA0120301209000000015000
B0735043211193S11657633EA0119401195000000015000
B0735083211265S11657671EA0118001177000000015000
B0735123211337S11657714EA0116901165000000015000
B0735163211411S11657750EA0116201157000000000000
B0735203211488S11657771EA0116001155000000000000
B0735243211562S11657788EA0115901157000000015000
B0735283211633S11657803EA0115601159000000015000
B0735323211706S11657814EA0114901159000000030000
B0735363211778S11657822EA0114401159000000030000
B0735403211848S11657840EA0114201159000000030000
B0735443211914S11657865EA0114101159000000045000
B0735483211979S11657883EA0113001158000000045000
B0735523212048S11657898EA0111901156000000060000
B0735563212123S11657943EA0110801153000000060000
B0736003212170S11658008EA0110501152000000060000
B0736043212201S11658065EA0109901150015000060000
B0736083212205S11658126EA0109001149015000075000
B0736123212172S11658200EA0108801148015000075000
B0736163212169S11658229EV0108700000000000000128
B0736203211938S11658482EA0108901145015000075000
B0736243211961S11658555EA0108601122000000045000
B0736283211992S11658622EA0107901106000000045000
B0736323212012S11658697EA0106701097000000045000
B0736363212016S11658775EA0105001090000000045000
B0736403211965S11658888EA0103101065000000045000
B0736443211917S11658979EA0101401040000000030000
B0736483211861S11659061EA0100601025000000030000
B0736523211795S11659132EA0100101013000000015000
B0736563211724S11659197EA0099600998000000015000
B0737003211653S11659259EA0098700986000000015000
B0737043211583S11659322EA0098300976000000015000
B0737083211509S11659383EA0097500965000000000000
B0737123211436S11659447EA0096400954000000000000
B0737163211366S11659512EA0095500946000000000000
B0737203211293S11659574EA0094800939000000015000
B0737243211217S11659630EA0093700931000000015000
B0737283211137S11659679EA0092600923000000015000
B0737323211055S11659729EA0092800922000000015000
B0737363211013S11659808EA0094200937000000015000
B0737403211042S11659864EA0096400960000000015000
B0737443211091S11659850EA0098000969000000015000
B0737483211109S11659786EA0098900975000000015000
B0737523211074S11659718EA0099200974000000015000
B0737563211004S11659698EA0099000971000000015000
B0738003210935S11659731EA0098700970000000015000
B0738043210901S11659802EA0099400980000000000000
B0738083210904S11659878EA0100400989000000000000
B0738123210947S11659921EA0101601003000000000000
B0738163210976S11659872EA0103301021000000000000
B0738203210939S11659809EA0103701022000000000000
B0738243210874S11659808EA0105001040000000000000
B0738283210849S11659869EA0105701038000000000000
B0738323210894S11659920EA0105101036000000000000
B0738363210947S11659887EA0105701050000000000000
B0738403210946S11659809EA0107001063000000000000
B0738443210888S11659760EA0108301079000000000000
B0738483210826S11659778EA0109701093000000000000
B0738523210803S11659841EA0110901105000000000000
B0738563210836S11659873EA0111901111000000015000
B0739003210862S11659818EA0112401117000000015000
B0739043210823S11659756EA0113001124000000015000
B0739083210758S11659763EA0114001137000000015000
B0739123210736S11659826EA0115501154000000015000
B0739163210773S11659860EA0116901163000000000000
B0739203210805S11659812EA0117201167000000015000
B0739243210788S11659735EA0117401166000000015000
B0739283210721S11659694EA0117901182000000015000
B0739323210657S11659726EA0119401198000000015000
B0739363210648S11659792EA0120801210000000000000
B0739403210692S11659821EA0121801217000000000000
B0739443210729S11659774EA0122201220000000000000
B0739483210705S11659698EA0122401222000000000000
B0739523210632S11659668EA0123301237000000000000
B0739563210569S11659709EA0124501242000000000000
B0740003210557S11659787EA0124701245000000000000
B0740043210605S11659813EA0126301265000000000000
B0740083210621S11659748EA0126701255000000015000
B0740123210557S11659688EA0126201258000000015000
B0740163210475S11659677EA0126801265000000030000
B0740203210406S11659735EA0126801263000000045000
B0740243210353S11659820EA0126901262000000030000
B0740283210313S11659911EA0127301271000000015000
B0740323210315S11659998EA0128701288000000015000
B0740363210362S11700034EA0129701291000000015000
B0740403210404S11659995EA0129701290000000015000
B0740443210396S11659916EA0129101281000000015000
B0740483210345S11659841EA0128501281000000015000
B0740523210279S11659781EA0129301294000000015000
B0740563210209S11659813EA0131001313000000015000
B0741003210206S11659887EA0131501314000000015000
B0741043210254S11659908EA0132601325000000015000
B0741083210288S11659865EA0132801325000000015000
B0741123210272S11659792EA0132901326000000015000
B0741163210231S11659720EA0132601320000000015000
B0741203210181S11659644EA0132201315000000015000
B0741243210116S11659575EA0132101315000000015000
B0741283210036S11659522EA0131801309000000015000
B0741323209947S11659477EA0131101307000000015000
B0741363209859S11659434EA0131701314000000015000
B0741403209768S11659400EA0131901312000000015000
B0741443209676S11659366EA0131701311000000015000
B0741483209583S11659332EA0131101304000000015000
B0741523209491S11659300EA0131201308000000015000
B0741563209400S11659266EA0131001301000000015000
B0742003209312S11659222EA0130501295000000015000
B0742043209221S11659180EA0129901291000000015000
B0742083209124S11659142EA0129701292000000015000
B0742123209032S11659103EA0129801294000000015000
B0742163208941S11659063EA0129901293000000015000
B0742203208850S11659028EA0129601290000000000000
B0742243208759S11658989EA0128901283000000000000
B0742283208669S11658949EA0128801283000000000000
B0742323208580S11658914EA0128801283000000000000
B0742363208489S11658879EA0129101288000000000000
B0742403208396S11658849EA0130001297000000000000
B0742443208320S11658881EA0131401309000000000000
B0742483208329S11658949EA0132001317000000000000
B0742523208381S11658959EA0131701310000000000000
B0742563208430S11658911EA0131501310000000000000
B0743003208437S11658825EA0132501326000000000000
B0743043208386S11658759EA0134501346000000000000
B0743083208317S11658772EA0135901359000000015000
B0743123208296S11658837EA0135801355000000030000
B0743163208334S11658880EA0135801363000000060000
B0743203208379S11658847EA0136501372000000075000
B0743243208366S11658768EA0137301384000000060000
B0743283208295S11658737EA0138301393000000045000
B0743323208240S11658784EA0138701390000000030000
B0743363208253S11658849EA0138701395000000045000
B0743403208307S11658828EA0139101400000000045000
B0743443208326S11658746EA0139801409000000045000
B0743483208281S11658677EA0140901418000000045000
B0743523208225S11658704EA0141601422000000060000
B0743563208231S11658786EA0141601416000000060000
B0744003208282S11658791EA0141801420000000120000
B0744043208313S11658741EA0142901435000000060000
B0744083208309S11658672EA0143601442000000030000
B0744123208270S11658606EA0144101443000000015000
B0744163208208S11658559EA0144101444000000015000
B0744203208135S11658526EA0144201443000000015000
B0744243208056S11658496EA0143901436000000015000
B0744283207974S11658468EA0143401432000000015000
B0744323207891S11658433EA0142901426000000015000
B0744363207810S11658391EA0142201420000000015000
B0744403207729S11658348EA0142401425000000015000
B0744443207654S11658312EA0142701433000000015000
B0744483207576S11658278EA0142101436000000015000
B0744523207499S11658232EA0141001422000000015000
B0744563207427S11658184EA0140301414000000015000
B0745003207350S11658148EA0140101410000000015000
B0745043207271S11658115EA0139701406000000015000
B0745083207191S11658083EA0139501403000000015000
B0745123207113S11658045EA0139001396000000015000
B0745163207034S11658008EA0138401392000000015000
B0745203206953S11657978EA0138001385000000015000
B0745243206871S11657965EA0137701377000000015000
B0745283206790S11657985EA0137201373000000015000
B0745323206727S11658045EA0136601369000000015000
B0745363206702S11658125EA0136401365000000000000
B0745403206719S11658193EA0135901358000000000000
B0745443206767S11658227EA0134701342000000000000
B0745483206827S11658213EA0133501332000000015000
B0745523206858S11658153EA0133101328000000075000
B0745563206844S11658063EA0132001317000000165000
B0746003206793S11657987EA0131301308000000195000
B0746043206721S11657926EA0130301298000000105000
B0746083206648S11657867EA0129701289000000105000
B0746123206567S11657810EA0128501281000000105000
B0746163206493S11657742EA0127801272000000105000
B0746203206427S11657666EA0127001264000000105000
B0746243206370S11657577EA0125801256000000105000
B0746283206324S11657482EA0124201248000000105000
B0746323206302S11657384EA0122901240015000105000
B0746363206283S11657287EA0122101233015000090000
B0746403206260S11657190EA0120801224015000105000
B0746443206246S11657094EA0119701217015000105000
B0746483206240S11656996EA0118801209015000105000
B0746523206238S11656896EA0117501201015000105000
B0746563206237S11656795EA0116901193015000090000
B0747003206237S11656692EA0116501186015000090000
B0747043206237S11656592EA0116401180015000090000
B0747083206254S11656506EA0116901173000000060000
B0747123206260S11656423EA0117001163000000030000
B0747163206268S11656337EA0116001154000000030000
B0747203206275S11656247EA0115201147000000030000
B0747243206286S11656154EA0115301139000000045000
B0747283206309S11656061EA0115401133000000045000
B0747323206341S11655982EA0116101129000000045000
B0747363206381S11655915EA0116801125000000060000
B0747403206472S11655957EA0118301133000000060000
B0747443206491S11656009EA0121001165000000060000
B0747483206468S11656072EA0122301194000000030000
B0747523206414S11656111EA0123301209000000030000
B0747563206345S11656100EA0123501215000000015000
B0748003206299S11656042EA0123401213000000015000
B0748043206306S11655968EA0123101213000000015000
B0748083206344S11655916EA0123201216000000015000
B0748123206398S11655896EA0124301231000000015000
B0748163206454S11655894EA0125801246000000015000
B0748203206474S11655951EA0127401258000000015000
B0748243206423S11655996EA0128401270000000030000
B0748283206371S11655957EA0129301281000000015000
B0748323206390S11655895EA0129801288000000030000
B0748363206445S11655898EA0130901301000000030000
B0748403206462S11655963EA0132601318000000030000
B0748443206420S11656017EA0133701331000000030000
B0748483206357S11656004EA0135301346000000030000
B0748523206341S11655938EA0136501356000000060000
B0748563206380S11655894EA0137801377000000045000
B0749003206428S11655907EA0139501390000000045000
B0749043206453S11655963EA0140401396000000030000
B0749083206433S11656028EA0141001399000000060000
B0749123206379S11656064EA0140901401000000045000
B0749163206311S11656063EA0141401409000000045000
B0749203206253S11656021EA0142401421000000015000
B0749243206255S11655956EA0143601435000000015000
B0749283206301S11655939EA0144801449000000015000
B0749323206335S11655977EA0146201459000000015000
B0749363206331S11656043EA0146501461000000015000
B0749403206277S11656087EA0147201476000000015000
B0749443206214S11656078EA0148401486000000015000
B0749483206184S11656019EA0148701482000000015000
B0749523206205S11655954EA0149101498000000015000
B0749563206250S11655933EA0150501518000000015000
B0750003206290S11655967EA0152001522000000015000
B0750043206294S11656034EA0151901522000000015000
B0750083206250S11656089EA0152401526000000015000
B0750123206182S11656094EA0152701527000000015000
B0750163206123S11656055EA0152801530000000015000
B0750203206112S11655981EA0153201537000000000000
B0750243206145S11655925EA0154701554000000000000
B0750283206197S11655916EA0155901562000000000000
B0750323206249S11655938EA0156101561000000015000
B0750363206299S11655973EA0155701556000000015000
B0750403206354S11656009EA0154701549000000015000
B0750443206413S11656046EA0153001542000000015000
B0750483206474S11656085EA0151801534000000030000
B0750523206536S11656125EA0151001526000000030000
B0750563206600S11656163EA0150301518000000030000
B0751003206661S11656207EA0149601511000000045000
B0751043206722S11656253EA0149001501000000030000
B0751083206784S11656294EA0148601494000000015000
B0751123206848S11656334EA0148101488000000015000
B0751163206910S11656376EA0147501480000000015000
B0751203206972S11656416EA0146801473000000015000
B0751243207037S11656455EA0145901461000000000000
B0751283207100S11656494EA0145101459000000000000
B0751323207156S11656531EA0145501462000000000000
B0751363207207S11656567EA0144701449000000000000
B0751403207261S11656604EA0143601435000000000000
B0751443207320S11656639EA0142501426000000000000
B0751483207378S11656669EA0142301428000000000000
B0751523207438S11656691EA0142701433000000000000
B0751563207502S11656701EA0142501436000000000000
B0752003207571S11656693EA0140901431000000015000
B0752043207644S11656688EA0139601424000000015000
B0752083207718S11656697EA0139101418000000015000
B0752123207785S11656726EA0139501419000000030000
B0752163207848S11656760EA0139501411000000030000
B0752203207911S11656791EA0138401389000000015000
B0752243207982S11656814EA0137101380000000015000
B0752283208051S11656828EA0136501373000000030000
B0752323208121S11656838EA0135401364000000030000
B0752363208191S11656848EA0134601356000000015000
B0752403208257S11656870EA0135101364000000015000
B0752443208314S11656905EA0135501359000000015000
B0752483208376S11656940EA0134601342000000015000
B0752523208438S11656981EA0133601336000000000000
B0752563208498S11657022EA0133101331000000000000
B0753003208561S11657057EA0132401326000000000000
B0753043208623S11657087EA0132401328000000000000
B0753083208682S11657124EA0132301324000000000000
B0753123208736S11657174EA0131701315000000000000
B0753163208790S11657226EA0131001311000000000000
B0753203208842S11657274EA0130901309000000000000
B0753243208896S11657321EA0130301298000000000000
B0753283208951S11657365EA0129301287000000000000
B0753323209011S11657406EA0128301277000000000000
B0753363209076S11657442EA0127001265000000000000
B0753403209145S11657475EA0125801249000000000000
B0753433209202S11657491EA0124601241000000000000
B0753483209299S11657515EA0123601232000000000000
B0753523209374S11657541EA0122901227000000000000
B0753563209445S11657572EA0122901226000000000000
B0754003209496S11657629EA0123101229000000000000
B0754043209530S11657698EA0122801224000000000000
B0754083209546S11657774EA0122701223000000000000
B0754123209551S11657850EA0122501221000000000000
B0754163209552S11657927EA0121801209000000000000
B0754203209556S11658010EA0120401194000000000000
B0754243209560S11658097EA0119701190000000000000
B0754283209572S11658182EA0119801191000000000000
B0754323209599S11658256EA0119501189000000000000
B0754363209639S11658313EA0119001184000000000000
B0754403209695S11658353EA0118701179000000000000
B0754443209754S11658396EA0118101169000000000000
B0754483209816S11658435EA0117101161000000000000
B0754523209884S11658460EA0116901165000000000000
B0754563209951S11658478EA0117001165000000000000
B0755003210017S11658492EA0116801164000000000000
B0755043210081S11658512EA0115901163000000015000
B0755083210146S11658544EA0114701161000000015000
B0755123210175S11658647EA0113101136000000015000
B0755163210168S11658746EA0112101124000000015000
B0755203210145S11658842EA0111501118000000015000
B0755243210118S11658933EA0111201112000000015000
B0755283210088S11659022EA0110601105000000015000
B0755323210058S11659106EA0110201104000000015000
B0755363210029S11659187EA0109501092000000015000
B0755403209999S11659272EA0107901073000000015000
B0755443209963S11659361EA0106301057000000015000
B0755483209924S11659451EA0105401049000000015000
B0755523209878S11659532EA0104801036000000015000
B0755563209829S11659608EA0103601025000000015000
B0756003209777S11659679EA0102501013000000000000
B0756043209718S11659748EA0101701005000000000000
B0756083209647S11659798EA0101401003000000000000
B0756123209562S11659817EA0101300998000000000000
B0756163209475S11659800EA0100900996000000000000
B0756203209405S11659748EA0100900996000000000000
B0756243209362S11659672EA0100300983000000000000
B0756283209347S11659583EA0098600964000000000000
B0756323209351S11659492EA0096500941000000000000
B0756363209366S11659397EA0094400922000000000000
B0756403209382S11659305EA0093400916000000000000
B0756443209395S11659215EA0092900911000000000000
B0756483209408S11659129EA0092200903000000000000
B0756523209423S11659044EA0091000889000000000000
B0756563209447S11658957EA0090200884000000000000
B0757003209479S11658882EA0090500892000000000000
B0757043209530S11658833EA0090400882000000000000
B0757083209595S11658829EA0089500879000000000000
B0757123209657S11658837EA0089500880000000000000
B0757163209713S11658843EA0089600883000000000000
B0757203209767S11658851EA0089300876000000000000
B0757243209820S11658855EA0088500868000000000000
B0757283209871S11658854EA0087700856000000000000
B0757323209921S11658832EA0086900852000000000000
B0757363209959S11658784EA0087200861000000000000
B0757403209965S11658713EA0088100869000000000000
B0757443209936S11658646EA0088900877000000000000
B0757483209872S11658620EA0089600881000000000000
B0757523209802S11658633EA0089100872000000000000
B0757563209735S11658596EA0088200865000000000000
B0758003209733S11658518EA0087700860000000000000
B0758043209768S11658459EA0087000849000000000000
B0758083209817S11658417EA0086000839000000000000
B0758123209876S11658400EA0085400838000000000000
B0758163209936S11658413EA0085500840000000000000
B0758203209990S11658437EA0085300834000000000000
B0758243210045S11658460EA0084300823000000000000
B0758283210102S11658483EA0083900824000000000000
B0758323210154S11658502EA0084200827000000000000
B0758363210202S11658524EA0083700820000000000000
B0758403210238S11658567EA0083400820000000000000
B0758443210251S11658628EA0083700821000000000000
B0758483210235S11658697EA0083200811000000000000
B0758523210189S11658758EA0082400802000000000000
B0758563210129S11658803EA0081800797000000000000
B0759003210062S11658829EA0081500794000000000000
B0759043209990S11658834EA0081600796000000000000
B0759083209917S11658827EA0081900798000000000000
B0759123209846S11658804EA0082400810000000000000
B0759163209808S11658743EA0083900821000000000000
B0759203209817S11658676EA0083900819000000000000
B0759243209856S11658641EA0083600818000000000000
B0759283209907S11658645EA0083200814000000000000
B0759323209950S11658681EA0083100817000000000000
B0759363209975S11658738EA0083300820000000000000
B0759403209968S11658807EA0083600820000000000000
B0759443209926S11658866EA0083800825000000015000
B0759483209861S11658894EA0084400833000000015000
B0759523209794S11658873EA0085500841000000015000
B0759563209756S11658810EA0085800845000000000000
B0800003209769S11658743EA0086600854000000000000
B0800043209815S11658717EA0087100860000000000000
B0800083209855S11658750EA0087600863000000015000
B0800123209858S11658814EA0087600864000000015000
B0800163209835S11658880EA0087600858000000015000
B0800203209808S11658950EA0087200857000000000000
B0800243209787S11659025EA0087400860000000000000
B0800283209770S11659102EA0087100855000000000000
B0800323209748S11659175EA0086400850000000000000
B0800363209713S11659243EA0086100846000000000000
B0800403209668S11659304EA0085600837000000000000
B0800443209605S11659349EA0084600826000000000000
B0800483209530S11659367EA0084000822000000000000
B0800523209455S11659354EA0083600816000000000000
B0800563209383S11659317EA0082600802000000000000
B0801003209314S11659271EA0081400790000000000000
B0801043209249S11659231EA0080200778000000000000
B0801083209184S11659189EA0078700762000000000000
B0801123209119S11659145EA0077400745000000000000
B0801163209057S11659100EA0075600725000000000000
B0801203208996S11659050EA0073500703000000000000
B0801243208935S11659001EA0071900690000000000000
B0801283208872S11658954EA0070500673000000000000
B0801323208808S11658907EA0068500653000000000000
B0801363208742S11658859EA0067300642000000000000
B0801403208676S11658811EA0066200633000000000000
B0801443208612S11658763EA0065000612000000000000
B0801483208547S11658715EA0062900591000000000000
B0801523208482S11658665EA0060800571000000000000
B0801563208420S11658617EA0059300559000000000000
B0802003208356S11658569EA0058500555000000000000
B0802043208291S11658521EA0058200551000000000000
B0802083208225S11658472EA0057600543000000000000
B0802123208160S11658421EA0056500529000000000000
B0802163208092S11658372EA0055000508000000000000
B0802203208026S11658326EA0053400493000000000000
B0802243207963S11658279EA0051700478000000000000
B0802283207900S11658230EA0050400463000000000000
B0802323207830S11658182EA0048800449000000000000
B0802363207754S11658141EA0048200446000000000000
B0802403207679S11658106EA0047900442000000000000
B0802443207607S11658066EA0047200432000000000000
B0802483207542S11658013EA0046300423000000000000
B0802523207482S11657959EA0046100427000000000000
B0802563207427S11657907EA0046600431000000000000
B0803003207372S11657854EA0046600427000000000000
B0803043207315S11657796EA0045900419000000000000
B0803083207258S11657735EA0045300414000000000000
B0803123207203S11657675EA0045000409000000000000
B0803163207142S11657616EA0044800410000000000000
B0803203207073S11657571EA0044800409000000000000
B0803243207001S11657532EA0044500405000000000000
B0803283206927S11657495EA0044000402000000000000
B0803323206856S11657462EA0043700398000000000000
B0803363206791S11657421EA0043200391000000000000
B0803403206738S11657365EA0042200380000000000000
B0803443206701S11657293EA0041100369000000000000
B0803483206680S11657215EA0040600365000000000000
B0803523206667S11657135EA0040100360000000000000
B0803563206654S11657057EA0039800358000000000000
B0804003206639S11656979EA0039600353000000000000
B0804043206624S11656899EA0038900345000000000000
B0804083206608S11656817EA0038500346000000000000
B0804123206592S11656736EA0038300342000000000000
B0804163206583S11656656EA0038500346000000000000
B0804203206598S11656585EA0038700345000000000000
B0804243206647S11656550EA0038200343000000000000
B0804283206699S11656549EA0037600333000000000000
B0804323206748S11656563EA0036200318000000000000
B0804363206793S11656585EA0034900305000000000000
B0804403206838S11656606EA0034100293000000000000
B0804443206882S11656630EA0032400273000000000000
B0804483206934S11656652EA0030400255000000000000
B0804523206986S11656680EA0029100245000000000000
B0804563207035S11656710EA0028000234000000000000
B0805003207083S11656739EA0027000224000000000000
B0805043207131S11656767EA0025800214000000000000
B0805083207178S11656793EA0025100207000000000000
B0805123207217S11656815EA0024800207000000000000
B0805163207248S11656834EA0025000204000000000000
B0805203207274S11656848EA0024800203000000000000
B0805243207290S11656857EA0024900202000000000000
B0805283207299S11656862EA0024900202000000000000
B0805323207303S11656865EA0024900202000000000000
B0805363207303S11656865EA0024900202000000000000
B0805403207302S11656865EA0024900202000000000000
B0805443207302S11656865EA0024900202000000000000
B0805483207302S11656864EA0024900203000000000000
B0805523207302S11656864EA0024900203000000000000
G00030000000986E4F20000000000000000000000000000000000000000000000
G92B7C06FBAEA725F5E230E89E938C483EC641E2E0000000043A8EFFE10E74A7D
G01E3CB7E4713AF1AA52ECA050098873BAFF904BD00000000000000007297AC12
