ACAM4N6
HFDTE060821
HFFXA050
HFPLTPILOT:JOHN WELSH              
HFGTYGLIDERTYPE:HORNET      
HFGIDGLIDERID:VH-GMY      
HFDTM100GPSDATUM:
HFRFWFIRMWAREVERSION:F2.6
HFRHWHARDWAREVERSION:300 Series Version 2
HFFTYFRTYPE:CAMBRIDGE AERO INSTRUMENTS, 302+
HFGPS:GARMIN,LVS-25,12,18000
HFPRSPRESSALTSENSOR:INTERSEMA, MS5534-AP, 20000
I033638FXA3941ENL4247REX
LCAMSBVER:5FWVER:F26300
C020521044002020521000101
C0000000N00000000WTAKEOFF     
C3207549S11656849EBEVAIR      
C3255649S11704983ENARRAIR     
C3207549S11656849EBEVAIR      
C0000000N00000000WLANDING     
B0601523207736S11657095EA0013400215000000000000
B0601543207736S11657095EA0013400215000000000000
B0601563207736S11657095EA0013400215000000000000
B0601583207736S11657094EA0013400216000000000000
B0602003207736S11657094EA0013400216000000000000
B0602023207736S11657094EA0013400216000000000000
B0602043207735S11657094EA0013400216000000000000
B0602063207735S11657094EA0013400216000000000000
B0602083207735S11657094EA0013400216000000000000
B0602103207735S11657094EA0013400216000000000000
B0602123207735S11657094EA0013400216000000000000
B0602143207735S11657094EA0013400216000000000000
B0602163207735S11657094EA0013400215000000000000
B0602183207735S11657094EA0013400215000000000000
B0602203207732S11657092EA0013400215000000000000
B0602243207714S11657087EA0013400216000000000000
B0602283207681S11657073EA0013500216000000000000
B0602323207636S11657046EA0013700216000000000000
B0602363207579S11657012EA0013700218000000000000
B0602403207516S11656974EA0014100225000000000000
B0602443207454S11656939EA0015400238000000000000
B0602483207394S11656904EA0016400251000000000000
B0602523207337S11656880EA0018500272000000000000
B0602563207278S11656858EA0020100286000000000000
B0603003207224S11656828EA0021300301000000000000
B0603043207168S11656796EA0022800317000000000000
B0603083207113S11656767EA0024400333000000000000
B0603123207057S11656739EA0025600343000000000000
B0603163207003S11656705EA0026600353000000000000
B0603203206951S11656663EA0027900368000000000000
B0603243206909S11656601EA0029200381000000000000
B0603283206883S11656522EA0030100394000000000000
B0603323206870S11656438EA0031800411000000000000
B0603363206857S11656357EA0033700429000000000000
B0603403206843S11656275EA0035200443000000000000
B0603443206832S11656190EA0036800460000000000000
B0603483206822S11656106EA0038700477000000000000
B0603523206812S11656021EA0040600494000000000000
B0603563206804S11655937EA0043200521000000000000
B0604003206814S11655848EA0045100539000000000000
B0604043206860S11655774EA0046900556000000000000
B0604083206930S11655721EA0048100566000000000000
B0604123207013S11655692EA0049800588000000000000
B0604163207102S11655697EA0051500600000000000000
B0604203207180S11655739EA0053000612000000000000
B0604243207242S11655804EA0053900623000000000000
B0604283207281S11655886EA0055200640000000000000
B0604323207295S11655973EA0057200663000000000000
B0604363207281S11656060EA0059100677000000000000
B0604403207252S11656145EA0060300686000000000000
B0604443207250S11656240EA0061100698000000000000
B0604483207267S11656334EA0062500714000000000000
B0604523207300S11656424EA0064000727000000000000
B0604563207346S11656511EA0065100740000000000000
B0605003207377S11656600EA0066900762000000000000
B0605043207382S11656692EA0069000779000000000000
B0605083207365S11656782EA0070000785000000000000
B0605123207333S11656861EA0071200798000000000000
B0605163207291S11656929EA0073000815000000000000
B0605203207246S11656991EA0074900833000000000000
B0605243207202S11657049EA0076700851000000000000
B0605283207148S11657094EA0078200870000000000000
B0605323207090S11657116EA0079900882000000000000
B0605363207030S11657126EA0081100894000000000000
B0605403206969S11657139EA0082400909000000000000
B0605443206910S11657148EA0083900925000000000000
B0605483206852S11657156EA0085800943000000000000
B0605523206795S11657161EA0087600960000000000000
B0605563206738S11657168EA0089100974000000000000
B0606003206682S11657173EA0090400988000000000000
B0606043206624S11657176EA0091801000000000000000
B0606083206566S11657176EA0092901010000000000000
B0606123206507S11657174EA0093601020000000000000
B0606163206448S11657176EA0094701033000000000000
B0606203206389S11657176EA0095901045000000000000
B0606243206331S11657170EA0097201057000000000000
B0606283206275S11657161EA0098601071000000000000
B0606323206216S11657153EA0099801082000000000000
B0606363206159S11657144EA0101001094000000000000
B0606403206101S11657133EA0102301105000000000000
B0606443206041S11657121EA0103301115000000000000
B0606483205984S11657117EA0103801119000000000000
B0606523205930S11657126EA0103901121000000000000
B0606563205880S11657142EA0104001121000000000000
B0607003205833S11657163EA0104001121000000000000
B0607043205786S11657178EA0103701115000000000000
B0607083205739S11657183EA0103401116000000000000
B0607123205696S11657178EA0103301113000000000000
B0607163205653S11657172EA0102801108000000000000
B0607203205610S11657164EA0102401104000000000000
B0607243205568S11657152EA0102001099000000000000
B0607283205525S11657139EA0101401092000000000000
B0607323205483S11657121EA0100801086000000000000
B0607363205447S11657091EA0100301081000000000000
B0607403205415S11657052EA0099801076000000000000
B0607443205393S11657003EA0099201071000000000000
B0607483205382S11656945EA0099101069000000000000
B0607523205378S11656886EA0098901066000000000000
B0607563205376S11656825EA0098401060000000000000
B0608003205378S11656762EA0097801053000000000000
B0608043205378S11656696EA0097101049000000000000
B0608083205380S11656631EA0096501042000000000000
B0608123205383S11656563EA0095901035000000000000
B0608163205386S11656494EA0095401028000000000000
B0608203205388S11656427EA0094701023000000000000
B0608243205396S11656358EA0094401021000000000000
B0608283205402S11656288EA0094301020000000000000
B0608323205406S11656217EA0094101019000000000000
B0608363205409S11656152EA0094501025000000000000
B0608403205410S11656093EA0094801028000000000000
B0608443205409S11656034EA0094801028000000000000
B0608483205408S11655980EA0095001028000000000000
B0608523205409S11655925EA0094901028000000000000
B0608563205412S11655870EA0094801026000000000000
B0609003205413S11655817EA0094501024000000000000
B0609043205414S11655764EA0094301022000000000000
B0609083205415S11655709EA0094201021000000000000
B0609123205418S11655657EA0094001018000000000000
B0609163205417S11655605EA0093601014000000000000
B0609203205413S11655553EA0093201009000000000000
B0609243205406S11655501EA0092701004000000000000
B0609283205395S11655450EA0092300998000000000000
B0609323205382S11655398EA0091800994000000000000
B0609363205376S11655343EA0091400990000000000000
B0609403205384S11655285EA0091300989000000000000
B0609443205393S11655228EA0091100987000000000000
B0609483205400S11655171EA0090800983000000000000
B0609523205402S11655115EA0090400980000000000000
B0609563205404S11655059EA0090000976000000000000
B0610003205406S11655005EA0089300969000000000000
B0610043205417S11654947EA0088800964000000000000
B0610083205438S11654891EA0088500960000000000000
B0610123205466S11654836EA0088100956000000000000
B0610163205499S11654782EA0087800953000000000000
B0610203205536S11654729EA0087600952000000000000
B0610243205582S11654680EA0087600952000000000000
B0610283205630S11654629EA0087400950000000000000
B0610323205661S11654568EA0086900944000000000000
B0610363205661S11654504EA0086500942000000000000
B0610403205636S11654457EA0086200938000000000000
B0610443205596S11654443EA0086200938000000000000
B0610483205562S11654477EA0086300940000000000000
B0610523205560S11654542EA0086100935000000000000
B0610563205581S11654615EA0085500929000000000000
B0611003205633S11654676EA0085000924000000000000
B0611043205698S11654719EA0084600921000000000000
B0611083205770S11654748EA0084500920000000000000
B0611123205843S11654754EA0084600923000000000000
B0611163205889S11654706EA0085100926000000000000
B0611203205877S11654656EA0084600919000000000000
B0611243205837S11654665EA0084400922000000000000
B0611283205816S11654717EA0084500920000000000000
B0611323205828S11654785EA0084200918000000015000
B0611363205886S11654825EA0084100918000000015000
B0611403205946S11654799EA0084100915000000015000
B0611443205965S11654738EA0083700910000000015000
B0611483205945S11654683EA0083400909000000015000
B0611523205903S11654672EA0083600915000000015000
B0611563205894S11654729EA0083900911000000015000
B0612003205950S11654778EA0083100903000000015000
B0612043206015S11654754EA0083100908000000015000
B0612083206023S11654689EA0083500910000000015000
B0612123205980S11654672EA0083700913000000015000
B0612163205961S11654728EA0083600910000000015000
B0612203205999S11654790EA0083100903000000015000
B0612243206069S11654808EA0082900902000000015000
B0612283206128S11654773EA0083300905000000015000
B0612323206137S11654709EA0083000901000000015000
B0612363206098S11654678EA0082900903000000015000
B0612403206059S11654709EA0083100903000000015000
B0612443206058S11654777EA0082700896000000015000
B0612483206102S11654836EA0082100890000000015000
B0612523206169S11654873EA0081500886000000015000
B0612563206240S11654891EA0081500887000000000000
B0613003206286S11654849EA0081400886000000000000
B0613043206283S11654790EA0080600876000000000000
B0613083206244S11654747EA0079900870000000000000
B0613123206198S11654708EA0079600869000000000000
B0613163206151S11654672EA0079600867000000000000
B0613203206106S11654687EA0079900876000000000000
B0613243206104S11654751EA0080400873000000015000
B0613283206159S11654795EA0079600860000000015000
B0613323206228S11654780EA0078700857000000015000
B0613363206283S11654729EA0078000849000000015000
B0613403206327S11654664EA0077400846000000015000
B0613443206368S11654595EA0077400847000000000000
B0613483206409S11654525EA0077200847000000000000
B0613523206446S11654452EA0076800841000000000000
B0613563206481S11654377EA0076300836000000000000
B0614003206513S11654301EA0075900833000000000000
B0614043206543S11654225EA0075600829000000000000
B0614083206569S11654148EA0075300829000000000000
B0614123206592S11654074EA0075400829000000000000
B0614163206615S11654002EA0075300828000000000000
B0614203206636S11653931EA0075100825000000000000
B0614243206639S11653863EA0074800823000000000000
B0614283206623S11653803EA0074500817000000000000
B0614323206585S11653772EA0074200817000000000000
B0614363206545S11653783EA0074100813000000000000
B0614403206511S11653824EA0073500810000000000000
B0614443206489S11653881EA0073300805000000000000
B0614483206476S11653949EA0072700799000000000000
B0614523206468S11654020EA0072200796000000000000
B0614563206457S11654092EA0071800791000000000000
B0615003206449S11654165EA0071300786000000000000
B0615043206445S11654240EA0071200787000000000000
B0615083206444S11654316EA0071100787000000000000
B0615123206444S11654387EA0070700780000000000000
B0615163206446S11654461EA0070200777000000000000
B0615203206446S11654534EA0069900773000000000000
B0615243206427S11654599EA0069600767000000000000
B0615283206401S11654657EA0069200766000000000000
B0615323206372S11654713EA0069100766000000000000
B0615363206336S11654758EA0069000765000000000000
B0615403206290S11654781EA0068800762000000000000
B0615443206242S11654797EA0068300757000000000000
B0615483206194S11654819EA0067900753000000000000
B0615523206154S11654862EA0067500748000000000000
B0615563206127S11654923EA0067300746000000000000
B0616003206110S11654992EA0067000742000000000000
B0616043206104S11655066EA0066500738000000000000
B0616083206110S11655142EA0066300737000000000000
B0616123206123S11655218EA0065800731000000000000
B0616163206142S11655294EA0065600727000000000000
B0616203206176S11655366EA0065300726000000000000
B0616243206231S11655421EA0065000720000000000000
B0616283206298S11655461EA0063900709000000000000
B0616323206370S11655497EA0063300707000000000000
B0616363206441S11655530EA0063400706000000000000
B0616403206515S11655557EA0063200704000000000000
B0616443206591S11655586EA0062800700000000000000
B0616483206653S11655631EA0063000704000000000000
B0616523206679S11655697EA0063200704000000000000
B0616563206660S11655746EA0063000701000000000000
B0617003206626S11655739EA0062800702000000000000
B0617043206623S11655684EA0063000702000000015000
B0617083206673S11655634EA0062700701000000015000
B0617123206744S11655635EA0062800702000000015000
B0617163206796S11655684EA0062700700000000015000
B0617203206805S11655748EA0062500697000000015000
B0617243206777S11655785EA0062300695000000015000
B0617283206739S11655788EA0062000693000000015000
B0617323206714S11655752EA0061800691000000015000
B0617363206741S11655692EA0061500690000000015000
B0617403206809S11655673EA0061500689000000015000
B0617443206870S11655710EA0061400686000000015000
B0617483206897S11655773EA0061300686000000015000
B0617523206886S11655827EA0060900682000000015000
B0617563206853S11655847EA0060700680000000015000
B0618003206823S11655821EA0060200675000000015000
B0618043206817S11655762EA0059700671000000015000
B0618083206843S11655700EA0059600669000000015000
B0618123206897S11655649EA0059400666000000015000
B0618163206964S11655616EA0059200668000000000000
B0618203207033S11655627EA0059500671000000000000
B0618243207082S11655677EA0059400664000000015000
B0618283207102S11655744EA0058700656000000015000
B0618323207103S11655812EA0058000653000000000000
B0618363207095S11655873EA0058000654000000000000
B0618403207085S11655925EA0057800653000000000000
B0618443207070S11655973EA0057300646000000000000
B0618483207055S11656024EA0056800639000000000000
B0618523207037S11656076EA0056000631000000000000
B0618563207020S11656130EA0055100621000000000000
B0619003207001S11656190EA0054600620000000000000
B0619043206972S11656237EA0054700620000000000000
B0619083206925S11656240EA0054800623000000000000
B0619123206905S11656189EA0055700631000000000000
B0619163206940S11656137EA0056000634000000000000
B0619203207000S11656142EA0056300636000000000000
B0619243207031S11656197EA0056300636000000015000
B0619283207016S11656250EA0056300635000000015000
B0619323206973S11656259EA0056200635000000015000
B0619363206942S11656219EA0056300639000000015000
B0619403206949S11656156EA0056800644000000015000
B0619443206998S11656112EA0057300647000000015000
B0619483207060S11656117EA0057300647000000015000
B0619523207104S11656169EA0057300645000000015000
B0619563207105S11656234EA0057200647000000015000
B0620003207065S11656260EA0057200645000000015000
B0620043207025S11656230EA0057100645000000015000
B0620083207021S11656165EA0057300651000000015000
B0620123207059S11656110EA0058000658000000015000
B0620163207120S11656106EA0058500661000000015000
B0620203207161S11656158EA0058600661000000015000
B0620243207156S11656221EA0058300656000000015000
B0620283207113S11656246EA0058200657000000015000
B0620323207069S11656225EA0058100656000000015000
B0620363207047S11656165EA0058000657000000015000
B0620403207069S11656102EA0058900671000000015000
B0620443207122S11656081EA0059900676000000015000
B0620483207176S11656112EA0059900672000000015000
B0620523207194S11656178EA0059400667000000015000
B0620563207167S11656232EA0059300668000000015000
B0621003207122S11656255EA0059500667000000015000
B0621043207079S11656232EA0059200666000000015000
B0621083207072S11656169EA0059000665000000015000
B0621123207105S11656112EA0059200670000000015000
B0621163207167S11656093EA0059700676000000015000
B0621203207230S11656110EA0059800673000000015000
B0621243207277S11656165EA0059600671000000015000
B0621283207284S11656238EA0059600671000000015000
B0621323207254S11656290EA0059600672000000015000
B0621363207208S11656293EA0060000677000000015000
B0621403207181S11656250EA0060200673000000015000
B0621443207195S11656184EA0059500666000000015000
B0621483207252S11656146EA0059400670000000015000
B0621523207320S11656146EA0059900674000000015000
B0621563207377S11656117EA0060600681000000015000
B0622003207380S11656060EA0061000679000000015000
B0622043207337S11656058EA0061000683000000015000
B0622083207329S11656113EA0061300685000000015000
B0622123207378S11656159EA0061500688000000015000
B0622163207442S11656143EA0061600689000000015000
B0622203207475S11656081EA0061800690000000015000
B0622243207458S11656024EA0061800690000000015000
B0622283207412S11656017EA0061800691000000015000
B0622323207384S11656064EA0061800691000000015000
B0622363207395S11656132EA0061900693000000015000
B0622403207443S11656181EA0062400701000000015000
B0622443207505S11656164EA0062800701000000015000
B0622483207529S11656098EA0062700699000000015000
B0622523207494S11656059EA0062900701000000015000
B0622563207463S11656102EA0063300709000000015000
B0623003207482S11656167EA0063800712000000015000
B0623043207544S11656190EA0064200714000000015000
B0623083207597S11656149EA0064100713000000015000
B0623123207601S11656080EA0063600707000000015000
B0623163207566S11656029EA0063200704000000015000
B0623203207512S11656019EA0063200705000000015000
B0623243207476S11656058EA0064000722000000015000
B0623283207506S11656113EA0064800719000000015000
B0623323207568S11656137EA0064500719000000015000
B0623363207614S11656091EA0064800722000000015000
B0623403207602S11656035EA0064600717000000015000
B0623443207555S11656015EA0064200715000000015000
B0623483207533S11656063EA0064900725000000015000
B0623523207568S11656116EA0065100723000000015000
B0623563207629S11656113EA0065100724000000015000
B0624003207654S11656054EA0065000719000000015000
B0624043207624S11656002EA0064700717000000015000
B0624083207577S11656004EA0064800720000000015000
B0624123207563S11656056EA0065500726000000015000
B0624163207597S11656113EA0065900724000000015000
B0624203207662S11656126EA0065600722000000015000
B0624243207702S11656072EA0065500725000000015000
B0624283207684S11656017EA0065900733000000015000
B0624323207641S11656024EA0066400737000000015000
B0624363207631S11656081EA0066800741000000015000
B0624403207675S11656133EA0066500735000000015000
B0624443207742S11656117EA0066000733000000015000
B0624483207772S11656054EA0066100736000000015000
B0624523207759S11655989EA0066400739000000015000
B0624563207716S11655970EA0067200748000000015000
B0625003207697S11656015EA0067700751000000015000
B0625043207732S11656071EA0066800743000000015000
B0625083207800S11656074EA0066800747000000015000
B0625123207845S11656022EA0067000748000000015000
B0625163207837S11655961EA0067500754000000015000
B0625203207793S11655948EA0067700755000000015000
B0625243207761S11655990EA0068000757000000015000
B0625283207770S11656056EA0068100757000000015000
B0625323207819S11656104EA0068200759000000015000
B0625363207885S11656108EA0068100758000000015000
B0625403207935S11656060EA0068000757000000015000
B0625443207950S11655994EA0068300760000000015000
B0625483207909S11655969EA0068100756000000015000
B0625523207883S11656021EA0068600763000000015000
B0625563207921S11656076EA0069100765000000015000
B0626003207984S11656065EA0069000764000000015000
B0626043208009S11656006EA0069100768000000015000
B0626083207992S11655947EA0069100765000000015000
B0626123207957S11655898EA0068700759000000015000
B0626163207905S11655890EA0068800767000000015000
B0626203207891S11655952EA0069500770000000015000
B0626243207939S11656006EA0069600772000000015000
B0626283207996S11655974EA0069900777000000015000
B0626323207995S11655912EA0070000775000000015000
B0626363207953S11655877EA0069800772000000015000
B0626403207900S11655878EA0069500769000000015000
B0626443207852S11655916EA0069300766000000015000
B0626483207836S11655985EA0069400768000000015000
B0626523207874S11656043EA0069600767000000015000
B0626563207941S11656056EA0069000760000000015000
B0627003208010S11656047EA0068400760000000015000
B0627043208077S11656025EA0068600760000000000000
B0627083208123S11655972EA0068400759000000015000
B0627123208136S11655903EA0068400759000000015000
B0627163208096S11655889EA0068600759000000015000
B0627203208103S11655952EA0068800762000000015000
B0627243208166S11655972EA0069000763000000015000
B0627283208208S11655920EA0069100768000000015000
B0627323208196S11655863EA0069400767000000015000
B0627363208155S11655846EA0069300768000000015000
B0627403208132S11655895EA0069300764000000015000
B0627443208182S11655946EA0069000765000000015000
B0627483208243S11655918EA0069300770000000015000
B0627523208255S11655853EA0069300766000000015000
B0627563208216S11655818EA0069200768000000015000
B0628003208170S11655827EA0069400765000000015000
B0628043208117S11655838EA0068400757000000015000
B0628083208058S11655835EA0068200756000000015000
B0628123208000S11655834EA0067700749000000015000
B0628163207937S11655829EA0067300747000000000000
B0628203207875S11655821EA0067200746000000000000
B0628243207813S11655813EA0067300746000000000000
B0628283207752S11655805EA0066900744000000000000
B0628323207690S11655796EA0067300749000000000000
B0628363207629S11655788EA0067600749000000000000
B0628403207570S11655795EA0068100756000000000000
B0628443207559S11655859EA0069500770000000000000
B0628483207610S11655902EA0069900768000000015000
B0628523207671S11655878EA0069300762000000015000
B0628563207692S11655811EA0068700758000000015000
B0629003207674S11655743EA0068500757000000015000
B0629043207625S11655713EA0068900765000000015000
B0629083207598S11655756EA0069600767000000015000
B0629123207636S11655807EA0069300763000000015000
B0629163207700S11655787EA0068800759000000015000
B0629203207728S11655717EA0068500753000000015000
B0629243207720S11655642EA0067700746000000015000
B0629283207676S11655601EA0067100741000000015000
B0629323207620S11655604EA0066100727000000015000
B0629363207559S11655627EA0064600719000000015000
B0629403207499S11655653EA0064800728000000015000
B0629443207442S11655669EA0066000739000000015000
B0629483207394S11655694EA0067800757000000000000
B0629523207403S11655753EA0069000765000000015000
B0629563207467S11655772EA0068800761000000015000
B0630003207524S11655730EA0069000767000000015000
B0630043207532S11655665EA0070000776000000015000
B0630083207492S11655658EA0070200772000000015000
B0630123207501S11655725EA0070300780000000015000
B0630163207568S11655742EA0071100786000000015000
B0630203207612S11655683EA0071400786000000015000
B0630243207586S11655627EA0071800794000000015000
B0630283207541S11655642EA0072500799000000015000
B0630323207542S11655707EA0073400812000000015000
B0630363207597S11655746EA0074500821000000015000
B0630403207655S11655717EA0075000824000000015000
B0630443207663S11655651EA0075100824000000015000
B0630483207622S11655625EA0075600828000000015000
B0630523207590S11655673EA0075700828000000015000
B0630563207603S11655746EA0076400839000000015000
B0631003207666S11655768EA0077100844000000015000
B0631043207714S11655714EA0077200847000000015000
B0631083207697S11655655EA0077400846000000015000
B0631123207651S11655677EA0077300845000000015000
B0631163207661S11655748EA0077600849000000015000
B0631203207726S11655781EA0077900855000000015000
B0631243207781S11655740EA0078500858000000015000
B0631283207784S11655671EA0078500855000000015000
B0631323207740S11655636EA0078100852000000015000
B0631363207688S11655653EA0078500861000000015000
B0631403207655S11655707EA0078900860000000015000
B0631443207668S11655777EA0078700860000000015000
B0631483207724S11655811EA0078600858000000015000
B0631523207789S11655786EA0077500849000000015000
B0631563207841S11655734EA0077500854000000015000
B0632003207883S11655671EA0077900855000000015000
B0632043207878S11655605EA0078200861000000015000
B0632083207832S11655578EA0078400861000000015000
B0632123207778S11655573EA0078300861000000015000
B0632163207742S11655616EA0078900863000000015000
B0632203207779S11655673EA0078100847000000015000
B0632243207850S11655666EA0076600835000000015000
B0632283207913S11655617EA0076200839000000015000
B0632323207962S11655553EA0076800843000000015000
B0632363207965S11655479EA0077000842000000015000
B0632403207924S11655439EA0076400833000000015000
B0632443207871S11655444EA0075200822000000015000
B0632483207815S11655456EA0074100814000000015000
B0632523207758S11655456EA0074100818000000015000
B0632563207703S11655450EA0074200817000000015000
B0633003207648S11655443EA0073900813000000000000
B0633043207590S11655436EA0073500807000000000000
B0633083207531S11655431EA0073000802000000000000
B0633123207469S11655428EA0072500798000000000000
B0633163207408S11655422EA0072200795000000000000
B0633203207349S11655413EA0071900792000000000000
B0633243207290S11655408EA0071800792000000000000
B0633283207233S11655402EA0071800794000000000000
B0633323207177S11655395EA0071600788000000000000
B0633363207121S11655391EA0071100783000000000000
B0633403207069S11655410EA0070800781000000000000
B0633443207030S11655457EA0071100785000000000000
B0633483207012S11655521EA0071300787000000000000
B0633523207003S11655590EA0070800780000000000000
B0633563206974S11655644EA0070300777000000000000
B0634003206930S11655668EA0069900771000000000000
B0634043206882S11655660EA0069200766000000000000
B0634083206834S11655636EA0068400758000000000000
B0634123206787S11655610EA0068000751000000000000
B0634163206738S11655588EA0067300743000000000000
B0634203206686S11655569EA0066700738000000000000
B0634243206632S11655570EA0066300734000000000000
B0634283206583S11655595EA0065800728000000000000
B0634323206543S11655638EA0065600728000000000000
B0634363206517S11655695EA0065500728000000000000
B0634403206506S11655761EA0065200725000000000000
B0634443206520S11655830EA0065100725000000000000
B0634483206571S11655882EA0065100724000000000000
B0634523206641S11655905EA0064600721000000000000
B0634563206715S11655916EA0064700723000000000000
B0635003206773S11655881EA0065400728000000000000
B0635043206766S11655822EA0065500727000000015000
B0635083206726S11655818EA0065500729000000015000
B0635123206714S11655873EA0065600729000000015000
B0635163206757S11655930EA0065300725000000015000
B0635203206826S11655928EA0065200728000000015000
B0635243206855S11655870EA0065300727000000015000
B0635283206830S11655821EA0065000723000000015000
B0635323206784S11655803EA0064600722000000015000
B0635363206748S11655837EA0064700723000000015000
B0635403206752S11655902EA0064700723000000015000
B0635443206797S11655955EA0064700724000000015000
B0635483206865S11655963EA0064700723000000015000
B0635523206908S11655913EA0064700723000000015000
B0635563206879S11655878EA0064600720000000015000
B0636003206852S11655920EA0064600720000000015000
B0636043206882S11655981EA0064600723000000015000
B0636083206948S11655996EA0064700720000000015000
B0636123206994S11655946EA0064200714000000015000
B0636163206978S11655890EA0063700711000000015000
B0636203206938S11655856EA0063300705000000015000
B0636243206888S11655831EA0062500695000000015000
B0636283206836S11655813EA0062100691000000015000
B0636323206786S11655822EA0062200693000000015000
B0636363206749S11655865EA0062200693000000015000
B0636403206727S11655929EA0062000692000000000000
B0636443206727S11656002EA0062400702000000000000
B0636483206780S11656038EA0063500707000000000000
B0636523206838S11656006EA0063000696000000015000
B0636563206847S11655937EA0062100692000000015000
B0637003206818S11655881EA0061700687000000015000
B0637043206775S11655839EA0061600686000000015000
B0637083206725S11655833EA0061800694000000015000
B0637123206684S11655863EA0062700699000000015000
B0637163206675S11655922EA0062900699000000015000
B0637203206712S11655978EA0062700699000000015000
B0637243206778S11655991EA0062700699000000015000
B0637283206842S11655961EA0062700702000000015000
B0637323206860S11655898EA0063000703000000015000
B0637363206822S11655873EA0063000704000000015000
B0637403206808S11655926EA0063200705000000015000
B0637443206861S11655968EA0063300708000000015000
B0637483206917S11655929EA0063600713000000015000
B0637523206913S11655868EA0064000712000000015000
B0637563206870S11655868EA0064000716000000015000
B0638003206861S11655925EA0064600723000000015000
B0638043206910S11655969EA0064700720000000015000
B0638083206975S11655952EA0064700721000000015000
B0638123207003S11655890EA0065000725000000015000
B0638163206974S11655846EA0065300726000000015000
B0638203206934S11655861EA0065400728000000015000
B0638243206927S11655922EA0065500731000000015000
B0638283206968S11655976EA0065900734000000015000
B0638323207033S11655985EA0066000735000000015000
B0638363207083S11655942EA0066000735000000015000
B0638403207083S11655878EA0066100735000000015000
B0638443207042S11655857EA0066100734000000015000
B0638483207011S11655902EA0066300737000000015000
B0638523207034S11655967EA0066700741000000015000
B0638563207098S11655986EA0066700741000000015000
B0639003207151S11655942EA0066600742000000015000
B0639043207155S11655877EA0067000742000000015000
B0639083207112S11655860EA0066700742000000015000
B0639123207086S11655911EA0067000748000000015000
B0639163207111S11655974EA0067400750000000015000
B0639203207174S11655998EA0067500752000000015000
B0639243207225S11655955EA0067500748000000015000
B0639283207215S11655896EA0067300749000000015000
B0639323207172S11655872EA0067600753000000015000
B0639363207134S11655905EA0068000753000000015000
B0639403207139S11655972EA0068000754000000015000
B0639443207195S11656012EA0068200757000000015000
B0639483207259S11655987EA0068200756000000015000
B0639523207264S11655925EA0068100752000000015000
B0639563207220S11655911EA0068400758000000015000
B0640003207206S11655969EA0068700760000000015000
B0640043207254S11656025EA0068600759000000015000
B0640083207321S11656016EA0068800763000000015000
B0640123207354S11655957EA0069000762000000015000
B0640163207336S11655902EA0069000766000000015000
B0640203207293S11655894EA0069800773000000015000
B0640243207267S11655937EA0070000772000000015000
B0640283207281S11656003EA0069700768000000015000
B0640323207342S11656038EA0069300766000000015000
B0640363207408S11656013EA0069000764000000015000
B0640403207438S11655950EA0068800764000000015000
B0640443207423S11655891EA0069100768000000030000
B0640483207380S11655865EA0069300766000000015000
B0640523207330S11655883EA0068800761000000015000
B0640563207311S11655941EA0069000768000000015000
B0641003207343S11656002EA0069300768000000015000
B0641043207404S11656043EA0068800764000000015000
B0641083207471S11656072EA0068900765000000015000
B0641123207541S11656065EA0068800763000000015000
B0641163207593S11656016EA0068400760000000015000
B0641203207611S11655948EA0068200757000000015000
B0641243207602S11655879EA0068000755000000015000
B0641283207566S11655837EA0068100759000000015000
B0641323207516S11655825EA0068000755000000015000
B0641363207462S11655821EA0067300743000000015000
B0641403207404S11655822EA0066500736000000015000
B0641443207349S11655835EA0066500737000000015000
B0641483207294S11655866EA0066400740000000000000
B0641523207238S11655876EA0067200749000000000000
B0641563207211S11655820EA0068000758000000015000
B0642003207260S11655773EA0068600759000000015000
B0642043207324S11655792EA0068300755000000015000
B0642083207359S11655855EA0068100753000000015000
B0642123207358S11655922EA0068200758000000015000
B0642163207317S11655937EA0068900766000000015000
B0642203207295S11655890EA0069200758000000015000
B0642243207333S11655834EA0068600761000000015000
B0642283207391S11655840EA0069100765000000015000
B0642323207417S11655896EA0069100765000000015000
B0642363207391S11655941EA0069300770000000015000
B0642403207352S11655925EA0069600771000000015000
B0642443207351S11655866EA0069500768000000015000
B0642483207401S11655824EA0069300766000000015000
B0642523207466S11655833EA0069300770000000015000
B0642563207499S11655887EA0069800773000000015000
B0643003207489S11655943EA0070200778000000015000
B0643043207447S11655942EA0070300778000000015000
B0643083207437S11655883EA0070100777000000015000
B0643123207479S11655827EA0070500785000000015000
B0643163207544S11655821EA0070900783000000015000
B0643203207596S11655869EA0070700781000000015000
B0643243207605S11655941EA0070800786000000015000
B0643283207572S11655987EA0071300791000000015000
B0643323207527S11655980EA0071600794000000015000
B0643363207507S11655925EA0071500788000000015000
B0643403207537S11655861EA0071600797000000015000
B0643443207599S11655837EA0072700803000000015000
B0643483207655S11655872EA0072900806000000015000
B0643523207657S11655935EA0073300809000000015000
B0643563207615S11655956EA0073600812000000015000
B0644003207590S11655911EA0074000819000000015000
B0644043207627S11655857EA0074300819000000015000
B0644083207689S11655877EA0074700827000000015000
B0644123207709S11655941EA0075500830000000015000
B0644163207679S11655987EA0075600834000000015000
B0644203207638S11655972EA0075800833000000015000
B0644243207631S11655913EA0075400829000000015000
B0644283207670S11655857EA0075800837000000015000
B0644323207731S11655830EA0076100838000000015000
B0644363207796S11655853EA0076100837000000015000
B0644403207832S11655918EA0076100838000000015000
B0644443207823S11655987EA0076400843000000015000
B0644483207781S11656019EA0076500843000000015000
B0644523207739S11655989EA0076400836000000015000
B0644563207735S11655917EA0075800836000000015000
B0645003207767S11655848EA0076500846000000015000
B0645043207817S11655800EA0077300853000000015000
B0645083207883S11655798EA0077400851000000015000
B0645123207932S11655848EA0077100846000000015000
B0645163207937S11655920EA0077000849000000015000
B0645203207898S11655955EA0077100848000000015000
B0645243207845S11655951EA0077000842000000015000
B0645283207788S11655939EA0076500841000000015000
B0645323207742S11655974EA0077100846000000015000
B0645363207780S11656033EA0077400849000000015000
B0645403207848S11656019EA0077100845000000015000
B0645443207898S11655963EA0076500840000000015000
B0645483207926S11655887EA0076300838000000015000
B0645523207918S11655814EA0076500843000000015000
B0645563207872S11655777EA0076500836000000015000
B0646003207817S11655761EA0075600828000000015000
B0646043207758S11655752EA0074800819000000015000
B0646083207697S11655742EA0074600817000000015000
B0646123207635S11655738EA0074800820000000015000
B0646163207583S11655768EA0075800835000000015000
B0646203207594S11655838EA0076900836000000015000
B0646243207662S11655856EA0076700839000000015000
B0646283207713S11655807EA0076800841000000015000
B0646323207719S11655733EA0076600836000000030000
B0646363207680S11655684EA0076400842000000030000
B0646403207651S11655726EA0077600853000000030000
B0646443207700S11655770EA0077400844000000030000
B0646483207763S11655740EA0077200848000000030000
B0646523207789S11655674EA0077700852000000030000
B0646563207770S11655616EA0077700849000000030000
B0647003207726S11655596EA0077800852000000030000
B0647043207690S11655636EA0077700850000000030000
B0647083207698S11655704EA0077500848000000015000
B0647123207753S11655756EA0077300851000000015000
B0647163207817S11655731EA0077800857000000015000
B0647203207822S11655664EA0078200859000000030000
B0647243207780S11655627EA0078300859000000030000
B0647283207739S11655655EA0078600861000000030000
B0647323207742S11655721EA0078500861000000015000
B0647363207801S11655761EA0078500861000000015000
B0647403207858S11655723EA0078800865000000030000
B0647443207854S11655656EA0078700862000000030000
B0647483207809S11655618EA0078500860000000030000
B0647523207753S11655616EA0078500861000000030000
B0647563207709S11655656EA0078800863000000015000
B0648003207687S11655721EA0078600859000000015000
B0648043207698S11655798EA0078400860000000015000
B0648083207740S11655860EA0077900854000000015000
B0648123207801S11655904EA0077100849000000015000
B0648163207869S11655898EA0077000847000000015000
B0648203207905S11655839EA0076400841000000015000
B0648243207906S11655768EA0075900838000000030000
B0648283207891S11655697EA0075900838000000015000
B0648323207848S11655661EA0076200841000000015000
B0648363207797S11655668EA0076900852000000015000
B0648403207802S11655726EA0077900856000000015000
B0648443207866S11655739EA0077300847000000015000
B0648483207909S11655686EA0077200852000000030000
B0648523207901S11655626EA0077900855000000030000
B0648563207861S11655600EA0078100857000000030000
B0649003207820S11655627EA0077900854000000030000
B0649043207827S11655692EA0077800854000000015000
B0649083207879S11655731EA0077400850000000015000
B0649123207937S11655708EA0076600841000000015000
B0649163207969S11655644EA0076000836000000030000
B0649203207971S11655575EA0076100836000000045000
B0649243207934S11655526EA0076000837000000045000
B0649283207879S11655504EA0075600830000000030000
B0649323207823S11655510EA0075800831000000030000
B0649363207823S11655575EA0075800826000000030000
B0649403207891S11655584EA0074600813000000030000
B0649443207940S11655525EA0074100815000000030000
B0649483207974S11655453EA0074600821000000030000
B0649523207963S11655383EA0074900819000000030000
B0649563207919S11655341EA0074000810000000030000
B0650003207865S11655323EA0073700809000000030000
B0650043207813S11655315EA0073300804000000015000
B0650083207759S11655319EA0072800799000000015000
B0650123207705S11655320EA0072700799000000015000
B0650163207650S11655330EA0072400796000000015000
B0650203207596S11655340EA0072000795000000015000
B0650243207542S11655346EA0072100797000000000000
B0650283207490S11655352EA0072300798000000000000
B0650323207437S11655356EA0072100796000000000000
B0650363207385S11655363EA0072200798000000000000
B0650403207336S11655376EA0071800796000000000000
B0650443207286S11655387EA0071800795000000000000
B0650483207237S11655393EA0071500792000000000000
B0650523207186S11655397EA0071300790000000000000
B0650563207135S11655397EA0071100787000000000000
B0651003207083S11655387EA0070600781000000000000
B0651043207031S11655376EA0070200777000000000000
B0651083206977S11655367EA0069800772000000000000
B0651123206922S11655357EA0069300767000000000000
B0651163206868S11655354EA0069100765000000000000
B0651203206817S11655370EA0068900764000000000000
B0651243206773S11655402EA0068800763000000000000
B0651283206739S11655449EA0068600761000000000000
B0651323206715S11655506EA0068400761000000000000
B0651363206693S11655565EA0068500759000000000000
B0651403206654S11655605EA0068200760000000000000
B0651443206608S11655618EA0068600764000000000000
B0651483206563S11655605EA0068700761000000000000
B0651523206519S11655588EA0067900751000000000000
B0651563206470S11655586EA0066900742000000000000
B0652003206422S11655604EA0066700742000000000000
B0652043206400S11655655EA0067000750000000000000
B0652083206415S11655714EA0067100743000000000000
B0652123206459S11655772EA0066200732000000000000
B0652163206520S11655817EA0065300723000000000000
B0652203206596S11655839EA0064300715000000000000
B0652243206675S11655843EA0063800713000000000000
B0652283206754S11655837EA0063900716000000000000
B0652323206831S11655824EA0064000715000000000000
B0652363206907S11655812EA0064000713000000000000
B0652403206981S11655804EA0063800712000000000000
B0652443207053S11655790EA0063400709000000000000
B0652483207126S11655774EA0063000705000000000000
B0652523207198S11655755EA0062800704000000000000
B0652563207268S11655731EA0062700701000000000000
B0653003207336S11655707EA0062300699000000000000
B0653043207404S11655705EA0062400702000000000000
B0653083207460S11655738EA0062500700000000000000
B0653123207494S11655795EA0062100696000000000000
B0653163207497S11655859EA0061800693000000000000
B0653203207482S11655916EA0061400687000000000000
B0653243207463S11655972EA0060800683000000000000
B0653283207437S11656022EA0060300678000000000000
B0653323207406S11656069EA0059900673000000000000
B0653363207368S11656112EA0059300666000000000000
B0653403207329S11656154EA0059000665000000000000
B0653443207291S11656191EA0058900664000000000000
B0653483207248S11656216EA0058600659000000000000
B0653523207200S11656227EA0057900652000000000000
B0653563207150S11656227EA0057400648000000000000
B0654003207100S11656221EA0057200643000000000000
B0654043207050S11656215EA0056300636000000000000
B0654083206998S11656208EA0055700631000000000000
B0654123206947S11656207EA0054900625000000000000
B0654163206896S11656210EA0054500619000000000000
B0654203206844S11656214EA0054100614000000000000
B0654243206792S11656211EA0053400606000000000000
B0654283206738S11656208EA0052800601000000000000
B0654323206686S11656206EA0052600600000000000000
B0654363206635S11656206EA0052300598000000000000
B0654403206585S11656215EA0052200595000000000000
B0654443206539S11656234EA0051600593000000000000
B0654483206494S11656259EA0051300589000000000000
B0654523206452S11656285EA0051100585000000000000
B0654563206410S11656315EA0050600578000000000000
B0655003206372S11656350EA0050000572000000015000
B0655043206337S11656386EA0049700569000000015000
B0655083206305S11656425EA0049300567000000000000
B0655123206275S11656466EA0049600570000000000000
B0655163206251S11656509EA0049600569000000000000
B0655203206233S11656555EA0049200565000000000000
B0655243206216S11656606EA0049000562000000000000
B0655283206205S11656658EA0048700559000000000000
B0655323206201S11656715EA0048100551000000000000
B0655363206207S11656779EA0047400545000000000000
B0655403206219S11656844EA0046600539000000000000
B0655443206223S11656908EA0046400537000000000000
B0655483206214S11656966EA0046100535000000000000
B0655523206188S11657010EA0045900531000000000000
B0655563206151S11657040EA0045400528000000000000
B0656003206107S11657042EA0045100525000000000000
B0656043206063S11657020EA0044900523000000000000
B0656083206021S11656986EA0044600519000000000000
B0656123205980S11656949EA0044200515000000000000
B0656163205938S11656909EA0044100514000000000000
B0656203205921S11656843EA0043900514000000000000
B0656243205943S11656769EA0044100516000000000000
B0656283205995S11656719EA0044200516000000015000
B0656323206059S11656701EA0043800511000000015000
B0656363206123S11656710EA0043400506000000030000
B0656403206167S11656754EA0042900502000000030000
B0656443206185S11656814EA0042500499000000015000
B0656483206202S11656873EA0042400499000000015000
B0656523206221S11656930EA0042100495000000015000
B0656563206251S11656986EA0041800493000000015000
B0657003206280S11657044EA0041500491000000015000
B0657043206292S11657104EA0041300487000000000000
B0657083206281S11657159EA0040900481000000000000
B0657123206247S11657187EA0040600481000000000000
B0657163206207S11657173EA0040500477000000000000
B0657203206175S11657126EA0039700468000000000000
B0657243206169S11657056EA0039500471000000000000
B0657283206193S11656986EA0039800474000000015000
B0657323206242S11656930EA0039900475000000015000
B0657363206294S11656878EA0039700471000000015000
B0657403206348S11656828EA0039600471000000015000
B0657443206411S11656813EA0039600471000000015000
B0657483206471S11656834EA0039300465000000015000
B0657523206522S11656878EA0038400453000000015000
B0657563206567S11656932EA0037500447000000015000
B0658003206611S11656991EA0037200446000000015000
B0658043206657S11657048EA0036700440000000000000
B0658083206706S11657104EA0035700427000000000000
B0658123206761S11657156EA0035000422000000000000
B0658163206819S11657203EA0034700420000000015000
B0658203206878S11657246EA0034300414000000015000
B0658243206935S11657289EA0033600410000000015000
B0658283206988S11657330EA0033500406000000000000
B0658323207046S11657373EA0032700397000000000000
B0658363207104S11657419EA0031700387000000000000
B0658403207167S11657464EA0031200386000000015000
B0658443207224S11657507EA0031300385000000015000
B0658483207281S11657550EA0030900380000000015000
B0658523207338S11657592EA0030400376000000015000
B0658563207394S11657632EA0030300378000000015000
B0659003207449S11657673EA0030400377000000015000
B0659043207502S11657716EA0030000371000000015000
B0659083207558S11657761EA0029600369000000015000
B0659123207619S11657801EA0029200363000000015000
B0659163207687S11657827EA0028700360000000015000
B0659203207758S11657839EA0028400356000000015000
B0659243207831S11657839EA0027700350000000015000
B0659283207904S11657824EA0027200342000000015000
B0659323207978S11657807EA0026500335000000015000
B0659363208052S11657785EA0026200331000000015000
B0659403208114S11657738EA0025900330000000015000
B0659443208156S11657675EA0025600330000000015000
B0659483208184S11657603EA0025300326000000030000
B0659523208213S11657529EA0025100322000000030000
B0659563208220S11657455EA0024600318000000030000
B0700003208195S11657394EA0024200313000000030000
B0700043208156S11657359EA0023000297000000030000
B0700083208114S11657337EA0021800287000000030000
B0700123208071S11657317EA0020000275000000030000
B0700163208026S11657294EA0018200268000000030000
B0700203207983S11657268EA0016800258000000030000
B0700243207939S11657241EA0015500249000000030000
B0700283207896S11657215EA0014400240000000045000
B0700323207858S11657191EA0013800229000000030000
B0700363207828S11657172EA0013700223000000030000
B0700403207806S11657157EA0013700220000000030000
B0700443207791S11657144EA0013800217000000030000
B0700483207780S11657137EA0013800216000000030000
B0700523207774S11657129EA0013800214000000015000
B0700563207771S11657125EA0013800213000000015000
B0701003207771S11657125EA0013900212000000015000
B0701043207771S11657125EA0013900211000000015000
B0701083207771S11657125EA0013900210000000015000
B0701123207771S11657125EA0013800209000000000000
B0701163207771S11657125EA0013900209000000000000
G00030000004518ED450000000000000000000000000000000000000000000000
GAF56169DA6A3DE7EFE458B94655DB602C577BA9A00000000B6C2E0039032EF07
GA5B1AA743E25C319E59B34910E31E82B0A9CAB920000000000000000010DA5C4
