ACAM4N6
HFDTE020815
HFFXA050
HFPLTPILOT:JOHN WELSH              
HFGTYGLIDERTYPE:HORNET      
HFGIDGLIDERID:VH-GMY      
HFDTM100GPSDATUM:
HFRFWFIRMWAREVERSION:F2.6
HFRHWHARDWAREVERSION:300 Series Version 2
HFFTYFRTYPE:CAMBRIDGE AERO INSTRUMENTS, 302+
HFGPS:GARMIN,LVS-25,12,18000
HFPRSPRESSALTSENSOR:INTERSEMA, MS5534-AP, 20000
I033638FXA3941ENL4247REX
LCAMSBVER:5FWVER:F26300
C050415050137050415000102
C0000000N00000000WTAKEOFF     
C3207549S11656849EBEVAIR      
C3123325S11712260EWATRCRRN    
C3212499S11757329EBILBARIN    
C3207549S11656849EBEVAIR      
C0000000N00000000WLANDING     
B0456543207336S11656854EA0005400217000000000000
B0456563207336S11656854EA0005400217000000000000
B0456583207336S11656854EA0005500217000000000000
B0457003207336S11656854EA0005500217000000000000
B0457023207336S11656854EA0005400217000000000000
B0457043207336S11656854EA0005500217000000000000
B0457063207336S11656854EA0005300217000000000000
B0457083207336S11656854EA0005400217000000000000
B0457103207336S11656854EA0005300217000000000000
B0457123207336S11656854EA0005400217000000000000
B0457143207336S11656854EA0005400217000000000000
B0457163207336S11656854EA0005300217000000000000
B0457183207336S11656854EA0005400217000000000000
B0457203207337S11656856EA0005400217000000000000
B0457223207339S11656857EA0005400217000000000000
B0457273207354S11656870EA0005300216000000000000
B0457313207378S11656892EA0005200216000000000000
B0457353207420S11656921EA0005300216000000000000
B0457393207475S11656955EA0005500217000000000000
B0457433207534S11656992EA0005900223000000000000
B0457473207590S11657039EA0006600234000000000000
B0457513207640S11657090EA0008100250000000000000
B0457553207685S11657138EA0010200275000000000000
B0457593207728S11657189EA0012400295000000000000
B0458033207772S11657235EA0014700320000000000000
B0458073207815S11657283EA0016600343000000000000
B0458113207862S11657332EA0018500359000000000000
B0458153207914S11657376EA0020300371000000000000
B0458193207963S11657419EA0022000390000000000000
B0458233208010S11657462EA0024100413000000000000
B0458273208057S11657503EA0026500435000000000000
B0458313208104S11657547EA0028900459000000000000
B0458353208149S11657597EA0030900476000000000000
B0458393208184S11657655EA0032100495000000000000
B0458433208208S11657720EA0035500523000000000000
B0458473208221S11657792EA0037200543000000000000
B0458513208217S11657867EA0039000561000000000000
B0458553208205S11657936EA0041300585000000000000
B0458593208188S11658004EA0043400603000000000000
B0459033208170S11658070EA0045100620000000000000
B0459073208147S11658136EA0046600632000000000000
B0459113208122S11658205EA0047900647000000000000
B0459153208099S11658275EA0049300659000000000000
B0459193208073S11658344EA0050700673000000000000
B0459233208038S11658408EA0052600692000000000000
B0459273207999S11658470EA0053900710000000000000
B0459313207961S11658531EA0055700727000000000000
B0459353207924S11658594EA0057300739000000000000
B0459393207892S11658658EA0058400749000000000000
B0459433207863S11658721EA0059900766000000000000
B0459473207833S11658782EA0061700783000000000000
B0459513207801S11658845EA0063300798000000000000
B0459553207771S11658908EA0065000812000000000000
B0459593207744S11658975EA0066600829000000000000
B0500033207720S11659040EA0068800851000000000000
B0500073207723S11659096EA0070000865000000000000
B0500113207768S11659105EA0071100871000000000000
B0500153207800S11659041EA0070900868000000000000
B0500193207771S11658970EA0071300876000000000000
B0500233207715S11658958EA0072200881000000000000
B0500273207692S11659001EA0072100878000000000000
B0500313207728S11659025EA0072200883000000000000
B0500353207762S11658971EA0072500885000000000000
B0500393207735S11658902EA0072800888000000000000
B0500433207680S11658898EA0073300893000000000000
B0500473207662S11658944EA0073500895000000000000
B0500513207693S11658970EA0074500905000000000000
B0500553207736S11658942EA0074700904000000000000
B0500593207753S11658875EA0074500903000000000000
B0501033207723S11658814EA0075000907000000000000
B0501073207671S11658806EA0075100910000000000000
B0501113207642S11658845EA0075000908000000000000
B0501153207666S11658886EA0074900909000000000000
B0501193207714S11658879EA0075200912000000000000
B0501233207746S11658817EA0074900909000000000000
B0501273207735S11658742EA0074900907000000000000
B0501313207684S11658694EA0074900906000000000000
B0501353207623S11658695EA0074900907000000000000
B0501393207590S11658739EA0075300913000000000000
B0501433207620S11658777EA0075700913000000000000
B0501473207671S11658755EA0075400912000000000000
B0501513207692S11658686EA0075700915000000000000
B0501553207674S11658616EA0075900914000000000000
B0501593207623S11658580EA0075700909000000000000
B0502033207558S11658563EA0074100892000000000000
B0502073207484S11658546EA0072900880000000000000
B0502113207408S11658535EA0072800881000000000000
B0502153207333S11658531EA0073100885000000000000
B0502193207259S11658530EA0073300884000000000000
B0502233207183S11658530EA0072800877000000000000
B0502273207109S11658515EA0072800880000000000000
B0502313207035S11658489EA0073000880000000000000
B0502353206978S11658434EA0073100884000000000000
B0502393206953S11658359EA0073500885000000000000
B0502433206935S11658278EA0072400868000000000000
B0502473206910S11658192EA0070600855000000000000
B0502513206883S11658102EA0069900850000000000000
B0502553206857S11658014EA0069700845000000000000
B0502593206829S11657927EA0069100839000000000000
B0503033206800S11657841EA0068500833000000000000
B0503073206773S11657758EA0067800825000000000000
B0503113206748S11657676EA0066900816000000000000
B0503153206723S11657595EA0066300808000000000000
B0503193206691S11657524EA0066900820000000000000
B0503233206654S11657460EA0067700827000000000000
B0503273206631S11657387EA0067900829000000000000
B0503313206648S11657319EA0068800841000000000000
B0503353206693S11657309EA0070000850000000000000
B0503393206718S11657354EA0070600854000000000000
B0503433206695S11657397EA0071300862000000000000
B0503473206652S11657398EA0071500860000000000000
B0503513206610S11657354EA0070500852000000000000
B0503553206579S11657293EA0070300850000000000000
B0503593206592S11657220EA0070500852000000000000
B0504033206632S11657155EA0070600857000000000000
B0504073206639S11657077EA0071300865000000000000
B0504113206588S11657033EA0072000869000000000000
B0504153206535S11657053EA0072000867000000000000
B0504193206518S11657111EA0072000866000000000000
B0504233206553S11657155EA0072500874000000000000
B0504273206604S11657137EA0073600886000000000000
B0504313206595S11657068EA0074300892000000000000
B0504353206541S11657057EA0074900897000000000000
B0504393206522S11657109EA0075300903000000000000
B0504433206554S11657147EA0076300913000000000000
B0504473206600S11657130EA0077600925000000000000
B0504513206622S11657070EA0078100928000000000000
B0504553206610S11657000EA0078200929000000000000
B0504593206565S11656948EA0077900927000000000000
B0505033206505S11656939EA0077800926000000000000
B0505073206454S11656971EA0078200933000000000000
B0505113206433S11657026EA0078700938000000000000
B0505153206457S11657077EA0079200942000000000000
B0505193206513S11657085EA0079400943000000000000
B0505233206557S11657035EA0079600950000000000000
B0505273206557S11656953EA0079900953000000000000
B0505313206511S11656895EA0080300955000000000000
B0505353206450S11656895EA0081100964000000000000
B0505393206420S11656942EA0082100971000000000000
B0505433206440S11656991EA0082300973000000000000
B0505473206496S11656991EA0082600977000000000000
B0505513206520S11656927EA0083600986000000000000
B0505553206488S11656865EA0083900989000000000000
B0505593206433S11656864EA0084800998000000000000
B0506033206413S11656909EA0085801005000000000000
B0506073206448S11656936EA0086101009000000000000
B0506113206485S11656893EA0086101012000000000000
B0506153206478S11656825EA0086801018000000000000
B0506193206432S11656783EA0087501025000000000000
B0506233206381S11656791EA0088101027000000000000
B0506273206355S11656836EA0088201032000000000000
B0506313206380S11656871EA0088801037000000000000
B0506353206428S11656851EA0088601035000000000000
B0506393206439S11656783EA0089101042000000000000
B0506433206397S11656737EA0089601043000000000000
B0506473206348S11656758EA0089601046000000000000
B0506513206342S11656809EA0090101052000000000000
B0506553206381S11656827EA0090801056000000000000
B0506593206424S11656787EA0090301049000000000000
B0507033206431S11656715EA0090501058000000000000
B0507073206398S11656657EA0091201061000000000000
B0507113206344S11656640EA0091301065000000000000
B0507153206301S11656666EA0092001071000000000000
B0507193206289S11656714EA0091801066000000000000
B0507233206312S11656766EA0090501057000000000000
B0507273206351S11656821EA0089401045000000000000
B0507313206400S11656875EA0088201039000000000000
B0507353206450S11656927EA0088001034000000000000
B0507393206498S11656978EA0087801034000000000000
B0507433206548S11657033EA0087001022000000000000
B0507473206598S11657091EA0085801013000000000000
B0507513206649S11657148EA0085001009000000000000
B0507553206699S11657204EA0084601003000000000000
B0507593206749S11657260EA0084001000000000000000
B0508033206796S11657313EA0083700995000000000000
B0508073206843S11657367EA0083000988000000000000
B0508113206888S11657421EA0082800988000000000000
B0508153206933S11657471EA0083000988000000000000
B0508193206975S11657521EA0082800984000000000000
B0508233207016S11657575EA0082300978000000000000
B0508273207057S11657629EA0081900975000000000000
B0508313207095S11657685EA0081800976000000000000
B0508353207131S11657741EA0082400981000000000000
B0508393207161S11657801EA0082500980000000000000
B0508433207186S11657863EA0082400979000000000000
B0508473207208S11657927EA0082300980000000000000
B0508513207224S11657988EA0083100989000000000000
B0508553207242S11658045EA0083700993000000000000
B0508593207286S11658071EA0084300996000000000000
B0509033207328S11658024EA0084800999000000000000
B0509073207330S11657943EA0084200991000000000000
B0509113207304S11657859EA0083900988000000000000
B0509153207271S11657784EA0083900989000000000000
B0509193207232S11657712EA0084100991000000000000
B0509233207190S11657644EA0083900989000000000000
B0509273207139S11657582EA0083900989000000000000
B0509313207079S11657575EA0084200995000000000000
B0509353207046S11657621EA0084500995000000000000
B0509393207057S11657679EA0084600995000000000000
B0509433207099S11657714EA0084600993000000000000
B0509473207159S11657718EA0082900977000000000000
B0509513207228S11657701EA0081700968000000000000
B0509553207297S11657676EA0081800968000000000000
B0509593207364S11657645EA0081600968000000000000
B0510033207428S11657610EA0081500962000000000000
B0510073207488S11657573EA0080500953000000000000
B0510113207546S11657534EA0079900948000000000000
B0510153207602S11657494EA0079700947000000000000
B0510193207658S11657455EA0079300942000000000000
B0510233207715S11657423EA0078800937000000000000
B0510273207776S11657394EA0078300931000000000000
B0510313207837S11657368EA0077800928000000000000
B0510353207898S11657343EA0077400923000000000000
B0510393207960S11657319EA0076900920000000000000
B0510433208019S11657291EA0076500913000000000000
B0510473208080S11657264EA0075700906000000000000
B0510513208140S11657234EA0075400903000000000000
B0510553208197S11657204EA0075500903000000000000
B0510593208252S11657173EA0075100899000000000000
B0511033208308S11657144EA0074400891000000000000
B0511073208368S11657120EA0073900886000000000000
B0511113208428S11657101EA0073400883000000000000
B0511153208487S11657086EA0073100879000000000000
B0511193208547S11657072EA0072700876000000000000
B0511233208608S11657059EA0072600877000000000000
B0511273208665S11657049EA0072400874000000000000
B0511313208724S11657042EA0071800871000000000000
B0511353208782S11657035EA0071600868000000000000
B0511393208844S11657033EA0071100860000000000000
B0511433208909S11657034EA0070000854000000000000
B0511473208971S11657038EA0069800853000000000000
B0511513209032S11657049EA0069500848000000000000
B0511553209089S11657065EA0069000843000000000000
B0511593209148S11657085EA0068400838000000000000
B0512033209205S11657105EA0068200834000000000000
B0512073209262S11657124EA0067800832000000000000
B0512113209318S11657143EA0067900836000000000000
B0512153209370S11657172EA0068200836000000000000
B0512193209417S11657212EA0067800833000000000000
B0512233209458S11657263EA0067600830000000000000
B0512273209488S11657322EA0067600832000000000000
B0512313209517S11657382EA0068400837000000000000
B0512353209566S11657393EA0069200848000000000000
B0512393209573S11657320EA0070000855000000000000
B0512433209520S11657269EA0069500848000000000000
B0512473209464S11657293EA0069400850000000000000
B0512513209438S11657350EA0069500850000000000000
B0512553209465S11657385EA0069400844000000000000
B0512593209509S11657355EA0068500835000000000000
B0513033209539S11657287EA0067600832000000000000
B0513073209538S11657205EA0067600832000000000000
B0513113209512S11657130EA0067900833000000000000
B0513153209471S11657059EA0067500829000000000000
B0513193209419S11657000EA0067300828000000000000
B0513233209358S11657001EA0067600831000000000000
B0513273209328S11657053EA0066600814000000000000
B0513313209343S11657126EA0064300794000000000000
B0513353209369S11657200EA0063800792000000000000
B0513393209396S11657272EA0063800792000000000000
B0513433209422S11657339EA0063100779000000000000
B0513473209445S11657410EA0062000767000000000000
B0513513209470S11657478EA0061300761000000000000
B0513553209495S11657549EA0060600755000000000000
B0513593209513S11657621EA0059900747000000000000
B0514033209520S11657696EA0059500746000000000000
B0514073209526S11657766EA0060100753000000000000
B0514113209531S11657831EA0060200753000000000000
B0514153209530S11657896EA0061100763000000000000
B0514193209526S11657957EA0061600764000000000000
B0514233209556S11657995EA0061300762000000000000
B0514273209591S11657948EA0061700766000000000000
B0514313209569S11657876EA0061900768000000000000
B0514353209513S11657842EA0062400771000000000000
B0514393209468S11657870EA0062000767000000000000
B0514433209475S11657915EA0061500761000000000000
B0514473209522S11657913EA0061100756000000000000
B0514513209566S11657868EA0060200750000000000000
B0514553209611S11657813EA0059600746000000000000
B0514593209637S11657738EA0059800751000000000000
B0515033209608S11657666EA0060300756000000000000
B0515073209556S11657663EA0061100763000000000000
B0515113209557S11657709EA0061200763000000000000
B0515153209604S11657697EA0062000774000000000000
B0515193209613S11657627EA0062000772000000000000
B0515233209564S11657577EA0061800773000000000000
B0515273209518S11657601EA0062600782000000000000
B0515313209521S11657649EA0063100782000000000000
B0515353209568S11657657EA0063500788000000000000
B0515393209600S11657599EA0063600789000000000000
B0515433209582S11657524EA0063500788000000000000
B0515473209529S11657488EA0064000795000000000000
B0515513209490S11657519EA0064400798000000000000
B0515553209497S11657567EA0064700800000000000000
B0515593209546S11657571EA0065100805000000000000
B0516033209579S11657519EA0065500808000000000000
B0516073209561S11657442EA0065300804000000000000
B0516113209505S11657410EA0065400811000000000000
B0516153209460S11657434EA0066300818000000000000
B0516193209460S11657480EA0066600820000000000000
B0516233209504S11657488EA0066700821000000000000
B0516273209544S11657439EA0067000825000000000000
B0516313209542S11657361EA0067100825000000000000
B0516353209504S11657298EA0067200829000000000000
B0516393209447S11657287EA0067400828000000000000
B0516433209408S11657328EA0066900823000000000000
B0516473209419S11657374EA0066900825000000000000
B0516513209464S11657338EA0067600832000000000000
B0516553209455S11657261EA0068000834000000000000
B0516593209400S11657220EA0068000835000000000000
B0517033209349S11657243EA0068100835000000000000
B0517073209345S11657295EA0068000832000000000000
B0517113209387S11657326EA0067800831000000000000
B0517153209440S11657306EA0068400842000000000000
B0517193209449S11657229EA0069200845000000000000
B0517233209400S11657173EA0068900844000000000000
B0517273209345S11657194EA0069000844000000000000
B0517313209352S11657244EA0069400848000000000000
B0517353209404S11657235EA0069800851000000000000
B0517393209425S11657157EA0069800851000000000000
B0517433209387S11657085EA0069900856000000000000
B0517473209325S11657070EA0070300859000000000000
B0517513209286S11657112EA0070400857000000000000
B0517553209292S11657165EA0069600850000000000000
B0517593209336S11657198EA0069700852000000000000
B0518033209390S11657185EA0070800865000000000000
B0518073209408S11657117EA0071200865000000000000
B0518113209384S11657034EA0070400856000000000000
B0518153209351S11656951EA0069900852000000000000
B0518193209315S11656866EA0069500847000000000000
B0518233209282S11656776EA0068700838000000000000
B0518273209248S11656687EA0067600830000000000000
B0518313209210S11656598EA0067200825000000000000
B0518353209178S11656513EA0067100827000000000000
B0518393209158S11656425EA0067500831000000000000
B0518433209152S11656340EA0067500829000000000000
B0518473209146S11656251EA0068000836000000000000
B0518513209166S11656175EA0068800843000000000000
B0518553209213S11656164EA0070000857000000000000
B0518593209223S11656210EA0070500858000000000000
B0519033209185S11656242EA0071400869000000000000
B0519073209133S11656219EA0071900869000000000000
B0519113209111S11656146EA0071800871000000000000
B0519153209133S11656085EA0072500879000000000000
B0519193209176S11656073EA0073000882000000000000
B0519233209197S11656111EA0073200885000000000000
B0519273209174S11656152EA0074000895000000000000
B0519313209124S11656159EA0074900900000000000000
B0519353209072S11656123EA0074900899000000000000
B0519393209044S11656054EA0075300907000000000000
B0519433209054S11655987EA0076000911000000000000
B0519473209096S11655955EA0075800909000000000000
B0519513209132S11655978EA0076000912000000000000
B0519553209126S11656024EA0076500919000000000000
B0519593209076S11656038EA0077200926000000000000
B0520033209028S11655993EA0077600927000000000000
B0520073209020S11655920EA0077700930000000000000
B0520113209054S11655866EA0078100933000000000000
B0520153209101S11655866EA0078000932000000000000
B0520193209118S11655912EA0078300937000000000000
B0520233209088S11655952EA0079000944000000000000
B0520273209035S11655951EA0080200955000000000000
B0520313208992S11655903EA0080700956000000000000
B0520353208984S11655830EA0080600955000000000000
B0520393209014S11655772EA0080600959000000000000
B0520433209059S11655752EA0081100961000000000000
B0520473209098S11655774EA0081000962000000000000
B0520513209098S11655822EA0081500968000000000000
B0520553209058S11655855EA0082200973000000000000
B0520593209002S11655844EA0082800979000000000000
B0521033208957S11655790EA0083300983000000000000
B0521073208945S11655717EA0083500984000000000000
B0521113208968S11655651EA0083300985000000000000
B0521153209016S11655629EA0084100992000000000000
B0521193209052S11655657EA0084300994000000000000
B0521233209040S11655708EA0084400994000000000000
B0521273208985S11655727EA0084400996000000000000
B0521313208931S11655688EA0085201003000000000000
B0521353208906S11655616EA0085201001000000000000
B0521393208922S11655541EA0085201002000000000000
B0521433208968S11655501EA0085401006000000000000
B0521473209018S11655510EA0085901013000000000000
B0521513209039S11655562EA0086301012000000000000
B0521553209011S11655613EA0086501019000000000000
B0521593208955S11655616EA0087601028000000000000
B0522033208911S11655566EA0088401032000000000000
B0522073208899S11655492EA0088201031000000000000
B0522113208922S11655427EA0088401036000000000000
B0522153208966S11655389EA0089301043000000000000
B0522193209013S11655389EA0089501045000000000000
B0522233209045S11655426EA0090001052000000000000
B0522273209041S11655479EA0090701060000000000000
B0522313208997S11655512EA0091001061000000000000
B0522353208938S11655495EA0091001057000000000000
B0522393208898S11655428EA0090801057000000000000
B0522433208894S11655345EA0091101060000000000000
B0522473208925S11655278EA0091501065000000000000
B0522513208977S11655249EA0092101071000000000000
B0522553209026S11655262EA0092701077000000000000
B0522593209057S11655307EA0092901080000000000000
B0523033209046S11655363EA0093601089000000000000
B0523073208990S11655382EA0094501096000000000000
B0523113208940S11655345EA0095001097000000000000
B0523153208920S11655271EA0094601094000000000000
B0523193208944S11655201EA0094701096000000000000
B0523233208993S11655164EA0095301104000000000000
B0523273209046S11655172EA0095701105000000000000
B0523313209070S11655224EA0095701106000000000000
B0523353209057S11655287EA0095701104000000000000
B0523393209039S11655354EA0095901110000000000000
B0523433209022S11655426EA0096401114000000000000
B0523473209010S11655497EA0096701110000000000000
B0523513208997S11655570EA0096401107000000000000
B0523553208990S11655645EA0096001105000000000000
B0523593208988S11655718EA0096201107000000000000
B0524033208985S11655791EA0096301111000000000000
B0524073208981S11655864EA0096601112000000000000
B0524113208980S11655935EA0096401110000000000000
B0524153208977S11656008EA0096701113000000000000
B0524193208971S11656077EA0096301105000000000000
B0524233208966S11656149EA0095701104000000000000
B0524273208968S11656215EA0096101107000000000000
B0524313208975S11656279EA0096201105000000000000
B0524353208981S11656342EA0096301110000000000000
B0524393208988S11656407EA0096401110000000000000
B0524433208998S11656474EA0096501114000000000000
B0524473209005S11656537EA0097101120000000000000
B0524513209015S11656604EA0096501110000000000000
B0524553209024S11656672EA0095901108000000000000
B0524593209033S11656739EA0096901120000000000000
B0525033209041S11656800EA0097201118000000000000
B0525073209054S11656860EA0096801118000000000000
B0525113209071S11656919EA0097101119000000000000
B0525153209092S11656977EA0097901125000000000000
B0525193209135S11656999EA0098401128000000000000
B0525233209174S11656947EA0098401124000000000000
B0525273209156S11656865EA0097901123000000000000
B0525313209098S11656806EA0097601121000000000000
B0525353209024S11656779EA0097101116000000000000
B0525393208946S11656778EA0097101114000000000000
B0525433208873S11656804EA0096901113000000000000
B0525473208814S11656854EA0096601112000000000000
B0525513208768S11656918EA0096001100000000000000
B0525553208730S11656991EA0094901093000000000000
B0525593208699S11657069EA0093701081000000000000
B0526033208668S11657150EA0092501069000000000000
B0526073208637S11657228EA0092201070000000000000
B0526113208604S11657299EA0092601072000000000000
B0526153208571S11657365EA0092701073000000000000
B0526193208537S11657426EA0092901076000000000000
B0526233208502S11657485EA0093601084000000000000
B0526273208480S11657545EA0094801090000000000000
B0526313208515S11657576EA0095401100000000000000
B0526353208555S11657533EA0096001107000000000000
B0526393208546S11657455EA0096201112000000000000
B0526433208496S11657408EA0097101123000000000000
B0526473208442S11657402EA0098101133000000000000
B0526513208398S11657426EA0099101141000000000000
B0526553208378S11657469EA0099301140000000000000
B0526593208391S11657514EA0099201136000000000000
B0527033208434S11657527EA0099101141000000000000
B0527073208473S11657493EA0099601142000000000000
B0527113208487S11657426EA0099601143000000000000
B0527153208459S11657358EA0099301141000000000000
B0527193208400S11657316EA0099401143000000000000
B0527233208337S11657316EA0099901147000000000000
B0527273208294S11657356EA0100201149000000000000
B0527313208281S11657411EA0100101147000000000000
B0527353208304S11657456EA0099201135000000000000
B0527393208351S11657482EA0098201124000000000000
B0527433208408S11657464EA0097801124000000000000
B0527473208448S11657406EA0097901126000000000000
B0527513208451S11657328EA0098101129000000000000
B0527553208411S11657265EA0098201128000000000000
B0527593208346S11657233EA0097701122000000000000
B0528033208278S11657234EA0097701125000000000000
B0528073208222S11657265EA0098301132000000000000
B0528113208187S11657316EA0098101125000000000000
B0528153208165S11657378EA0096301107000000000000
B0528193208147S11657449EA0095601098000000000000
B0528233208131S11657519EA0095401095000000000000
B0528273208119S11657588EA0094601092000000000000
B0528313208105S11657657EA0094401091000000000000
B0528353208088S11657719EA0094201089000000000000
B0528393208070S11657779EA0093801080000000000000
B0528433208052S11657842EA0092901073000000000000
B0528473208034S11657906EA0092901073000000000000
B0528513208018S11657971EA0092501070000000000000
B0528553208004S11658036EA0092101066000000000000
B0528593207987S11658102EA0091901064000000000000
B0529033207969S11658167EA0091501061000000000000
B0529073207947S11658232EA0091701062000000000000
B0529113207927S11658299EA0091801063000000000000
B0529153207904S11658368EA0091401059000000000000
B0529193207878S11658435EA0091401057000000000000
B0529233207850S11658504EA0090801052000000000000
B0529273207823S11658577EA0090601051000000000000
B0529313207797S11658650EA0090701054000000000000
B0529353207789S11658720EA0091001055000000000000
B0529393207797S11658790EA0090201040000000000000
B0529433207794S11658866EA0088901031000000000000
B0529473207787S11658941EA0088101025000000000000
B0529513207776S11659018EA0087401017000000000000
B0529553207763S11659090EA0087401020000000000000
B0529593207748S11659161EA0087201015000000000000
B0530033207731S11659235EA0086801013000000000000
B0530073207714S11659308EA0087201017000000000000
B0530113207700S11659380EA0087501020000000000000
B0530153207700S11659449EA0088001023000000000000
B0530193207713S11659517EA0087601017000000000000
B0530233207731S11659587EA0087101014000000000000
B0530273207752S11659657EA0086601007000000000000
B0530313207776S11659729EA0085400997000000000000
B0530353207800S11659802EA0084300987000000000000
B0530393207823S11659873EA0083700981000000000000
B0530433207846S11659945EA0083100974000000000000
B0530473207866S11700017EA0082600972000000000000
B0530513207884S11700088EA0083000978000000000000
B0530553207898S11700156EA0083000974000000000000
B0530593207909S11700227EA0082600972000000000000
B0531033207913S11700302EA0082300970000000000000
B0531073207914S11700376EA0083000976000000000000
B0531113207932S11700441EA0083300974000000000000
B0531153207960S11700509EA0082300967000000000000
B0531193207984S11700578EA0083100977000000000000
B0531233208036S11700575EA0085200998000000000000
B0531273208032S11700494EA0086001004000000000000
B0531313207974S11700458EA0085801004000000000000
B0531353207922S11700484EA0086101007000000000000
B0531393207913S11700541EA0086101003000000000000
B0531433207957S11700579EA0085601000000000000000
B0531473208014S11700558EA0086201007000000000000
B0531513208053S11700496EA0086801012000000000000
B0531553208048S11700414EA0087101019000000000000
B0531593207993S11700379EA0087501019000000000000
B0532033207952S11700416EA0087601022000000000000
B0532073207975S11700459EA0088401030000000000000
B0532113208025S11700435EA0089001037000000000000
B0532153208032S11700361EA0089801043000000000000
B0532193207984S11700320EA0089901044000000000000
B0532233207943S11700351EA0090101048000000000000
B0532273207957S11700393EA0091201059000000000000
B0532313208004S11700381EA0091501059000000000000
B0532353208021S11700307EA0091401060000000000000
B0532393207983S11700249EA0092201070000000000000
B0532433207932S11700251EA0092501068000000000000
B0532473207923S11700303EA0092401068000000000000
B0532513207969S11700314EA0093101076000000000000
B0532553208001S11700254EA0093601079000000000000
B0532593207979S11700181EA0093801081000000000000
B0533033207924S11700155EA0093501076000000000000
B0533073207887S11700195EA0093601080000000000000
B0533113207893S11700250EA0093801080000000000000
B0533153207944S11700271EA0094201084000000000000
B0533193207996S11700232EA0094501090000000000000
B0533233207993S11700153EA0094901091000000000000
B0533273207939S11700106EA0094501085000000000000
B0533313207884S11700125EA0094801095000000000000
B0533353207869S11700180EA0095101090000000000000
B0533393207893S11700241EA0093901079000000000000
B0533433207930S11700306EA0092501064000000000000
B0533473207967S11700379EA0091401056000000000000
B0533513208005S11700452EA0090801049000000000000
B0533553208032S11700533EA0090101043000000000000
B0533593208054S11700615EA0090201044000000000000
B0534033208075S11700695EA0090201045000000000000
B0534073208092S11700769EA0090201042000000000000
B0534113208109S11700840EA0089301035000000000000
B0534153208126S11700912EA0088601026000000000000
B0534193208138S11700983EA0088001023000000000000
B0534233208151S11701052EA0088001024000000000000
B0534273208169S11701117EA0087401018000000000000
B0534313208182S11701181EA0086901009000000000000
B0534353208182S11701248EA0086101002000000000000
B0534393208175S11701317EA0085600997000000000000
B0534433208169S11701386EA0085000997000000000000
B0534473208165S11701454EA0085300999000000000000
B0534513208164S11701523EA0085300999000000000000
B0534553208166S11701588EA0085801006000000000000
B0534593208178S11701649EA0086601009000000000000
B0535033208233S11701649EA0087401022000000000000
B0535073208240S11701575EA0088901036000000000000
B0535113208186S11701534EA0089201037000000000000
B0535153208136S11701566EA0089001035000000000000
B0535193208134S11701619EA0089701045000000000000
B0535233208175S11701633EA0091001057000000000000
B0535273208216S11701589EA0091401056000000000000
B0535313208208S11701515EA0091601063000000000000
B0535353208153S11701481EA0091801060000000000000
B0535393208101S11701505EA0091601059000000000000
B0535433208097S11701558EA0092101066000000000000
B0535473208136S11701581EA0093401080000000000000
B0535513208179S11701545EA0094201087000000000000
B0535553208188S11701469EA0094301086000000000000
B0535593208148S11701403EA0094401087000000000000
B0536033208084S11701394EA0093901081000000000000
B0536073208048S11701440EA0094101086000000000000
B0536113208065S11701489EA0095101100000000000000
B0536153208114S11701493EA0096201108000000000000
B0536193208155S11701437EA0096601111000000000000
B0536233208151S11701354EA0096701113000000000000
B0536273208100S11701298EA0096601111000000000000
B0536313208036S11701302EA0096301108000000000000
B0536353208008S11701356EA0096301110000000000000
B0536393208036S11701407EA0096901118000000000000
B0536433208093S11701403EA0098101130000000000000
B0536473208136S11701345EA0099101136000000000000
B0536513208134S11701260EA0098601130000000000000
B0536553208080S11701198EA0098001125000000000000
B0536593208010S11701195EA0097601119000000000000
B0537033207969S11701250EA0097201116000000000000
B0537073207973S11701320EA0097101116000000000000
B0537113208012S11701376EA0097601122000000000000
B0537153208075S11701373EA0098301127000000000000
B0537193208103S11701293EA0098301127000000000000
B0537233208064S11701211EA0097901123000000000000
B0537273207992S11701187EA0098101126000000000000
B0537313207936S11701220EA0098601131000000000000
B0537353207918S11701281EA0099001134000000000000
B0537393207952S11701326EA0100001148000000000000
B0537433208001S11701311EA0101101156000000000000
B0537473208028S11701242EA0099901137000000000000
B0537513208010S11701148EA0098301126000000000000
B0537553207970S11701060EA0097901124000000000000
B0537593207921S11700975EA0097501113000000000000
B0538033207871S11700886EA0096101100000000000000
B0538073207826S11700788EA0094801087000000000000
B0538113207781S11700683EA0093601074000000000000
B0538153207739S11700578EA0093301076000000000000
B0538193207701S11700472EA0093101073000000000000
B0538233207667S11700366EA0092001060000000000000
B0538273207638S11700253EA0091401055000000000000
B0538313207611S11700150EA0092001063000000000000
B0538353207577S11700058EA0092301063000000000000
B0538393207529S11659984EA0092601067000000000000
B0538433207468S11659933EA0092701066000000000000
B0538473207407S11659878EA0092301062000000000000
B0538513207389S11659794EA0093001071000000000000
B0538553207411S11659717EA0093301074000000000000
B0538593207429S11659642EA0094001078000000000000
B0539033207403S11659570EA0094101083000000000000
B0539073207345S11659561EA0094501088000000000000
B0539113207313S11659605EA0094201075000000000000
B0539153207336S11659653EA0091801045000000000000
B0539193207390S11659646EA0089801034000000000000
B0539233207420S11659588EA0089501032000000000000
B0539273207414S11659516EA0088801025000000000000
B0539313207360S11659462EA0088301022000000000000
B0539353207297S11659467EA0088701028000000000000
B0539393207261S11659519EA0089101031000000000000
B0539433207280S11659573EA0089501038000000000000
B0539473207328S11659579EA0089501037000000000000
B0539513207365S11659526EA0089201033000000000000
B0539553207356S11659447EA0089201033000000000000
B0539593207311S11659383EA0089201033000000000000
B0540033207251S11659386EA0089801038000000000000
B0540073207245S11659445EA0089901039000000000000
B0540113207287S11659487EA0089701037000000000000
B0540153207341S11659462EA0090401046000000000000
B0540193207352S11659387EA0091101050000000000000
B0540233207330S11659309EA0090901047000000000000
B0540273207276S11659262EA0091101051000000000000
B0540313207219S11659274EA0091401055000000000000
B0540353207208S11659330EA0091301050000000000000
B0540393207239S11659384EA0091101055000000000000
B0540433207290S11659402EA0091801057000000000000
B0540473207333S11659350EA0091501052000000000000
B0540513207325S11659263EA0091101051000000000000
B0540553207287S11659179EA0090501044000000000000
B0540593207243S11659092EA0089401034000000000000
B0541033207191S11658999EA0087701018000000000000
B0541073207135S11658905EA0087701020000000000000
B0541113207065S11658873EA0090401027000000000000
B0541153207047S11658940EA0092301037000000015000
B0541193207098S11658970EA0092401038000000015000
B0541233207144S11658914EA0093301049000000015000
B0541273207126S11658840EA0094501064000000000000
B0541313207077S11658842EA0095501068000000000000
B0541353207073S11658897EA0095001068000000000000
B0541393207122S11658908EA0095701080000000000000
B0541433207155S11658845EA0095901077000000000000
B0541473207128S11658775EA0096101087000000000000
B0541513207079S11658791EA0097301096000000000000
B0541553207094S11658842EA0097501099000000000000
B0541593207148S11658832EA0097801101000000000000
B0542033207163S11658755EA0097301097000000000000
B0542073207126S11658676EA0097201098000000000000
B0542113207077S11658598EA0096301090000000000000
B0542153207024S11658521EA0095001077000000000000
B0542193206968S11658438EA0093701072000000000000
B0542233206912S11658359EA0094401083000000000000
B0542273206860S11658279EA0095101090000000000000
B0542313206808S11658197EA0094401075000000000000
B0542353206754S11658112EA0094001078000000000000
B0542393206701S11658026EA0094201077000000000000
B0542433206652S11657939EA0093601071000000000000
B0542473206602S11657850EA0093001068000000000000
B0542513206552S11657768EA0093401071000000000000
B0542553206505S11657686EA0093501071000000000000
B0542593206458S11657606EA0093101069000000000000
B0543033206407S11657533EA0093201067000000000000
B0543073206341S11657482EA0093301072000000000000
B0543113206268S11657463EA0093501074000000000000
B0543153206198S11657471EA0093901078000000000000
B0543193206155S11657515EA0094501083000000000000
B0543233206172S11657566EA0093801074000000000000
B0543273206229S11657559EA0092401060000000000000
B0543313206271S11657493EA0091501054000000000000
B0543353206293S11657407EA0091001049000000000000
B0543393206309S11657317EA0090601047000000000000
B0543433206322S11657225EA0090701049000000000000
B0543473206337S11657133EA0090301045000000000000
B0543513206368S11657049EA0090201046000000000000
B0543553206422S11656994EA0090601050000000000000
B0543593206480S11656988EA0091201057000000000000
B0544033206524S11657021EA0091601061000000000000
B0544073206552S11657073EA0091401054000000000000
B0544113206571S11657137EA0090501049000000000000
B0544153206585S11657205EA0090601052000000000000
B0544193206597S11657276EA0091101056000000000000
B0544233206634S11657315EA0092001066000000000000
B0544273206673S11657276EA0092401066000000000000
B0544313206658S11657202EA0092601069000000000000
B0544353206604S11657159EA0092801070000000000000
B0544393206549S11657179EA0093201074000000000000
B0544433206543S11657239EA0092601064000000000000
B0544473206563S11657303EA0091101052000000000000
B0544513206584S11657376EA0089501035000000000000
B0544553206602S11657454EA0088401029000000000000
B0544593206615S11657534EA0088301028000000000000
B0545033206619S11657616EA0088401035000000000000
B0545073206622S11657694EA0088901033000000000000
B0545113206623S11657771EA0088501030000000000000
B0545153206623S11657850EA0088601033000000000000
B0545193206622S11657927EA0088901035000000000000
B0545233206639S11657992EA0089701044000000000000
B0545273206688S11658005EA0090701049000000000000
B0545313206722S11657946EA0090301042000000000000
B0545353206693S11657870EA0089701041000000000000
B0545393206630S11657832EA0089701041000000000000
B0545433206565S11657840EA0089701040000000000000
B0545473206528S11657888EA0089601040000000000000
B0545513206530S11657950EA0089201031000000000000
B0545553206546S11658017EA0088001024000000000000
B0545593206566S11658083EA0087901025000000000000
B0546033206583S11658152EA0087701026000000000000
B0546073206600S11658221EA0088101029000000000000
B0546113206621S11658288EA0088301027000000000000
B0546153206649S11658355EA0087601021000000000000
B0546193206679S11658424EA0088101030000000000000
B0546233206734S11658435EA0090601056000000000000
B0546273206751S11658369EA0092201068000000000000
B0546313206700S11658343EA0092601072000000000000
B0546353206673S11658390EA0093301078000000000000
B0546393206702S11658427EA0094201087000000000000
B0546433206752S11658401EA0095001096000000000000
B0546473206758S11658330EA0095801104000000000000
B0546513206714S11658284EA0096301107000000000000
B0546553206665S11658304EA0096501110000000000000
B0546593206665S11658355EA0097501121000000000000
B0547033206708S11658372EA0098301129000000000000
B0547073206753S11658334EA0098901131000000000000
B0547113206756S11658264EA0099401137000000000000
B0547153206710S11658216EA0099001131000000000000
B0547193206648S11658219EA0098801131000000000000
B0547233206611S11658268EA0099601146000000000000
B0547273206624S11658318EA0100701152000000000000
B0547313206676S11658335EA0100901150000000000000
B0547353206732S11658297EA0101101155000000000000
B0547393206752S11658222EA0101801160000000000000
B0547433206722S11658149EA0101501158000000000000
B0547473206663S11658118EA0101501158000000000000
B0547513206610S11658144EA0101601159000000000000
B0547553206591S11658206EA0101401157000000000000
B0547593206609S11658268EA0102101164000000000000
B0548033206662S11658252EA0103201177000000000000
B0548073206653S11658182EA0103801180000000000000
B0548113206596S11658173EA0103501176000000000000
B0548153206574S11658234EA0101201146000000000000
B0548193206608S11658322EA0097901119000000000000
B0548233206656S11658409EA0098101129000000000000
B0548273206704S11658489EA0097901108000000000000
B0548313206756S11658573EA0095901103000000000000
B0548353206800S11658648EA0096801113000000000000
B0548393206844S11658720EA0096601105000000000000
B0548433206890S11658793EA0095601097000000000000
B0548473206923S11658869EA0095501097000000000000
B0548513206952S11658945EA0095501098000000000000
B0548553206978S11659019EA0095101092000000000000
B0548593207005S11659093EA0094201082000000000000
B0549033207034S11659170EA0093601076000000000000
B0549073207070S11659239EA0093301072000000000000
B0549113207109S11659302EA0093201072000000000000
B0549153207155S11659361EA0092301063000000000000
B0549193207208S11659414EA0092001062000000000000
B0549233207259S11659464EA0092101066000000000000
B0549273207308S11659508EA0092601068000000000000
B0549313207355S11659551EA0092301064000000000000
B0549353207401S11659596EA0091501055000000000000
B0549393207446S11659646EA0091101050000000000000
B0549433207489S11659699EA0091201053000000000000
B0549473207529S11659752EA0091101049000000000000
B0549513207570S11659808EA0090201038000000000000
B0549553207606S11659870EA0089001027000000000000
B0549593207640S11659934EA0088401026000000000000
B0550033207675S11659999EA0088601026000000000000
B0550073207711S11700060EA0089101032000000000000
B0550113207746S11700119EA0089301032000000000000
B0550153207800S11700146EA0089301031000000000000
B0550193207861S11700111EA0088901027000000000000
B0550233207879S11700023EA0088601027000000000000
B0550273207839S11659947EA0088701026000000000000
B0550313207770S11659930EA0088401024000000000000
B0550353207726S11659976EA0088401024000000000000
B0550393207723S11700041EA0088001019000000000000
B0550433207749S11700104EA0086801007000000000000
B0550473207783S11700171EA0086601008000000000000
B0550513207815S11700228EA0087401020000000000000
B0550553207862S11700259EA0088501031000000000000
B0550593207892S11700203EA0089801043000000000000
B0551033207857S11700142EA0090201044000000000000
B0551073207797S11700133EA0090001042000000000000
B0551113207750S11700171EA0089801042000000000000
B0551153207745S11700227EA0090101043000000000000
B0551193207783S11700255EA0089701036000000000000
B0551233207835S11700228EA0089301035000000000000
B0551273207857S11700151EA0089901043000000000000
B0551313207826S11700076EA0090101044000000000000
B0551353207763S11700049EA0090501046000000000000
B0551393207710S11700081EA0090301044000000000000
B0551433207698S11700140EA0090101045000000000000
B0551473207731S11700176EA0090401044000000000000
B0551513207781S11700173EA0090201044000000000000
B0551553207833S11700150EA0091201056000000000000
B0551593207862S11700088EA0092001063000000000000
B0552033207846S11700013EA0092101063000000000000
B0552073207793S11659973EA0091601058000000000000
B0552113207732S11659984EA0091601057000000000000
B0552153207694S11700032EA0091401057000000000000
B0552193207705S11700086EA0091501060000000000000
B0552233207750S11700099EA0092101063000000000000
B0552273207789S11700045EA0091801062000000000000
B0552313207770S11659963EA0092201069000000000000
B0552353207711S11659919EA0093201076000000000000
B0552393207650S11659932EA0093301073000000000000
B0552433207624S11659987EA0093001072000000000000
B0552473207649S11700029EA0093001072000000000000
B0552513207698S11700023EA0093201072000000000000
B0552553207741S11659973EA0092801067000000000000
B0552593207750S11659890EA0092701071000000000000
B0553033207723S11659804EA0092701069000000000000
B0553073207667S11659748EA0092701071000000000000
B0553113207596S11659744EA0092501067000000000000
B0553153207538S11659778EA0092801072000000000000
B0553193207529S11659835EA0093101074000000000000
B0553233207553S11659883EA0093101073000000000000
B0553273207575S11659932EA0092601067000000000000
B0553313207602S11659982EA0091801058000000000000
B0553353207627S11700042EA0091001051000000000000
B0553393207654S11700104EA0091001055000000000000
B0553433207676S11700169EA0090901052000000000000
B0553473207697S11700238EA0091001054000000000000
B0553513207719S11700303EA0090801050000000000000
B0553553207741S11700371EA0090501045000000000000
B0553593207767S11700440EA0090301046000000000000
B0554033207792S11700504EA0091001053000000000000
B0554073207814S11700561EA0091201050000000000000
B0554113207837S11700621EA0090101034000000000000
B0554153207858S11700689EA0089001032000000000000
B0554193207875S11700758EA0088901026000000000000
B0554233207891S11700830EA0088001016000000000000
B0554273207908S11700901EA0087401013000000000000
B0554313207921S11700973EA0087201010000000000000
B0554353207932S11701046EA0086401004000000000000
B0554393207947S11701120EA0086101000000000000000
B0554433207961S11701194EA0085900998000000000000
B0554473207979S11701265EA0085800998000000000000
B0554513207999S11701336EA0085600996000000000000
B0554553208019S11701404EA0085200991000000000000
B0554593208036S11701476EA0084200979000000000000
B0555033208049S11701550EA0083200971000000000000
B0555073208060S11701625EA0082900969000000000000
B0555113208064S11701701EA0082500962000000000000
B0555153208065S11701783EA0081500951000000000000
B0555193208062S11701866EA0080600947000000000000
B0555233208057S11701949EA0080200943000000000000
B0555273208052S11702031EA0080100940000000000000
B0555313208045S11702112EA0079500935000000000000
B0555353208041S11702192EA0078600927000000000000
B0555393208040S11702270EA0078300925000000000000
B0555433208039S11702347EA0078000921000000000000
B0555473208044S11702424EA0077900921000000000000
B0555513208051S11702496EA0078100924000000000000
B0555553208088S11702538EA0078800929000000000000
B0555593208136S11702507EA0079000930000000000000
B0556033208142S11702424EA0078200921000000000000
B0556073208127S11702330EA0076900910000000000000
B0556113208113S11702233EA0075900901000000000000
B0556153208105S11702132EA0075500895000000000000
B0556193208129S11702036EA0074200883000000000000
B0556233208177S11701957EA0073300879000000000000
B0556273208235S11701893EA0073400881000000000000
B0556313208296S11701843EA0073600883000000000000
B0556353208360S11701798EA0073900885000000000000
B0556393208425S11701763EA0073800880000000000000
B0556433208489S11701728EA0073700882000000000000
B0556473208546S11701684EA0074800896000000000000
B0556513208533S11701612EA0076500912000000000000
B0556553208482S11701619EA0076900910000000000000
B0556593208490S11701671EA0076300904000000000000
B0557033208545S11701684EA0076500909000000000000
B0557073208576S11701625EA0077000912000000000000
B0557113208535S11701571EA0077800919000000000000
B0557153208487S11701602EA0078100921000000000000
B0557193208507S11701653EA0078700933000000000000
B0557233208558S11701645EA0079700940000000000000
B0557273208577S11701579EA0079800942000000000000
B0557313208538S11701518EA0079700941000000000000
B0557353208483S11701528EA0080100950000000000000
B0557393208480S11701581EA0081200957000000000000
B0557433208528S11701592EA0081800961000000000000
B0557473208561S11701536EA0082100965000000000000
B0557513208547S11701463EA0082200965000000000000
B0557553208493S11701419EA0081900962000000000000
B0557593208437S11701437EA0082000962000000000000
B0558033208428S11701498EA0081400958000000000000
B0558073208461S11701550EA0081500962000000000000
B0558113208517S11701542EA0082400971000000000000
B0558153208555S11701481EA0083200976000000000000
B0558193208539S11701403EA0083300977000000000000
B0558233208477S11701373EA0083400980000000000000
B0558273208438S11701416EA0083900985000000000000
B0558313208470S11701454EA0084400991000000000000
B0558353208509S11701404EA0085300997000000000000
B0558393208480S11701337EA0085300997000000000000
B0558433208422S11701338EA0085400998000000000000
B0558473208412S11701394EA0085300997000000000000
B0558513208459S11701419EA0085801002000000000000
B0558553208513S11701382EA0085801001000000000000
B0558593208532S11701304EA0085901005000000000000
B0559033208498S11701230EA0085901001000000000000
B0559073208430S11701216EA0085500997000000000000
B0559113208398S11701269EA0086001007000000000000
B0559153208411S11701326EA0086101004000000000000
B0559193208463S11701351EA0086001003000000000000
B0559233208519S11701316EA0086001002000000000000
B0559273208534S11701234EA0085801000000000000000
B0559313208504S11701150EA0085400999000000000000
B0559353208459S11701068EA0085400996000000000000
B0559393208408S11700986EA0084300988000000000000
B0559433208353S11700905EA0084500991000000000000
B0559473208301S11700825EA0084800995000000000000
B0559513208252S11700744EA0085000994000000000000
B0559553208205S11700662EA0084800990000000000000
B0559593208158S11700582EA0084100979000000000000
B0600033208112S11700497EA0083100972000000000000
B0600073208061S11700414EA0082500968000000000000
B0600113208013S11700331EA0082300966000000000000
B0600153207967S11700246EA0081900957000000000000
B0600193207926S11700158EA0081000953000000000000
B0600233207883S11700072EA0081200954000000000000
B0600273207835S11659991EA0080700946000000000000
B0600313207789S11659907EA0079900936000000000000
B0600353207740S11659826EA0079100929000000000000
B0600393207689S11659748EA0078300920000000000000
B0600433207640S11659668EA0077100908000000000000
B0600473207585S11659591EA0076100901000000000000
B0600513207528S11659519EA0075600896000000000000
B0600553207475S11659448EA0075600897000000000000
B0600593207423S11659375EA0076000899000000000000
B0601033207376S11659295EA0075300892000000000000
B0601073207339S11659210EA0076000897000000000000
B0601113207303S11659129EA0076000902000000000000
B0601153207245S11659098EA0077000911000000000000
B0601193207217S11659149EA0077100908000000000000
B0601233207259S11659184EA0077000909000000000000
B0601273207308S11659155EA0077300913000000000000
B0601313207317S11659084EA0077300908000000000000
B0601353207284S11659014EA0076900907000000000000
B0601393207234S11658957EA0076200900000000000000
B0601433207173S11658911EA0075500895000000000000
B0601473207107S11658872EA0075300892000000000000
B0601513207034S11658845EA0075000892000000000000
B0601553206960S11658827EA0075300897000000000000
B0601593206909S11658860EA0076200905000000000000
B0602033206922S11658916EA0076700905000000000000
B0602073206978S11658923EA0076200904000000000000
B0602113207016S11658862EA0077100916000000000000
B0602153207001S11658784EA0077900924000000000000
B0602193206943S11658742EA0077900921000000000000
B0602233206879S11658752EA0077900922000000000000
B0602273206839S11658797EA0078100924000000000000
B0602313206830S11658855EA0078300927000000000000
B0602353206853S11658901EA0078600929000000000000
B0602393206901S11658918EA0078600927000000000000
B0602433206953S11658894EA0078700931000000000000
B0602473206988S11658828EA0078800931000000000000
B0602513206983S11658745EA0078700933000000000000
B0602553206933S11658684EA0079000935000000000000
B0602593206865S11658672EA0078900932000000000000
B0603033206809S11658710EA0078500931000000000000
B0603073206792S11658776EA0078700932000000000000
B0603113206814S11658834EA0078600930000000000000
B0603153206868S11658864EA0078300926000000000000
B0603193206930S11658843EA0078400930000000000000
B0603233206972S11658777EA0078500929000000000000
B0603273206965S11658691EA0078600934000000000000
B0603313206913S11658633EA0078900932000000000000
B0603353206845S11658633EA0078300926000000000000
B0603393206803S11658686EA0077400918000000000000
B0603433206808S11658755EA0077300919000000000000
B0603473206855S11658791EA0077700923000000000000
B0603513206916S11658776EA0077900926000000000000
B0603553206960S11658716EA0077900924000000000000
B0603593206969S11658626EA0077300917000000000000
B0604033206931S11658542EA0077200918000000000000
B0604073206861S11658494EA0077200916000000000000
B0604113206790S11658507EA0076900916000000000000
B0604153206751S11658569EA0076700913000000000000
B0604193206761S11658641EA0076700912000000000000
B0604233206812S11658680EA0076700911000000000000
B0604273206877S11658667EA0076700912000000000000
B0604313206917S11658594EA0076700910000000000000
B0604353206907S11658500EA0075900904000000000000
B0604393206870S11658411EA0076100910000000000000
B0604433206838S11658325EA0077000920000000000000
B0604473206804S11658244EA0077400919000000000000
B0604513206766S11658161EA0076700912000000000000
B0604553206704S11658099EA0076300911000000000000
B0604593206635S11658087EA0076900922000000000000
B0605033206593S11658127EA0078300928000000000000
B0605073206609S11658178EA0077600919000000000000
B0605113206662S11658180EA0077000915000000000000
B0605153206710S11658134EA0076300911000000000000
B0605193206748S11658069EA0076200908000000000000
B0605233206783S11657996EA0075800905000000000000
B0605273206817S11657917EA0075200898000000000000
B0605313206842S11657837EA0076800917000000000000
B0605353206836S11657759EA0077700923000000000000
B0605393206778S11657718EA0077600921000000000000
B0605433206730S11657750EA0078300932000000000000
B0605473206751S11657794EA0079300939000000000000
B0605513206800S11657767EA0079600942000000000000
B0605553206788S11657696EA0080200950000000000000
B0605593206730S11657684EA0080900954000000000000
B0606033206714S11657733EA0081300960000000000000
B0606073206758S11657749EA0082000964000000000000
B0606113206792S11657692EA0082300967000000000000
B0606153206754S11657629EA0082500971000000000000
B0606193206704S11657640EA0083700984000000000000
B0606233206708S11657685EA0084200986000000000000
B0606273206758S11657683EA0083700980000000000000
B0606313206784S11657614EA0084300989000000000000
B0606353206752S11657547EA0084900993000000000000
B0606393206693S11657528EA0085300996000000000000
B0606433206643S11657551EA0085501001000000000000
B0606473206619S11657601EA0086101007000000000000
B0606513206636S11657647EA0086201005000000000000
B0606553206687S11657659EA0086301005000000000000
B0606593206735S11657615EA0086001005000000000000
B0607033206749S11657536EA0086201007000000000000
B0607073206727S11657454EA0086301008000000000000
B0607113206678S11657397EA0086701013000000000000
B0607153206614S11657376EA0086901017000000000000
B0607193206570S11657408EA0087401022000000000000
B0607233206579S11657459EA0087601022000000000000
B0607273206630S11657468EA0087401022000000000000
B0607313206675S11657417EA0087601024000000000000
B0607353206667S11657339EA0088101030000000000000
B0607393206615S11657307EA0089001037000000000000
B0607433206579S11657342EA0089001034000000000000
B0607473206602S11657386EA0089101038000000000000
B0607513206652S11657369EA0089501041000000000000
B0607553206671S11657299EA0089601042000000000000
B0607593206639S11657230EA0089601044000000000000
B0608033206584S11657200EA0090201046000000000000
B0608073206531S11657213EA0090201044000000000000
B0608113206504S11657260EA0089901043000000000000
B0608153206510S11657315EA0089801044000000000000
B0608193206526S11657369EA0089501039000000000000
B0608233206548S11657424EA0089601043000000000000
B0608273206574S11657478EA0089401037000000000000
B0608313206602S11657533EA0089101038000000000000
B0608353206624S11657592EA0089401040000000000000
B0608393206641S11657650EA0089601040000000000000
B0608433206660S11657709EA0089301037000000000000
B0608473206679S11657768EA0089201036000000000000
B0608513206700S11657826EA0089301040000000000000
B0608553206718S11657883EA0089301037000000000000
B0608593206739S11657940EA0089401041000000000000
B0609033206760S11657995EA0090201049000000000000
B0609073206780S11658047EA0090901056000000000000
B0609113206801S11658092EA0091401061000000000000
B0609153206823S11658139EA0091101054000000000000
B0609193206847S11658191EA0090601047000000000000
B0609233206871S11658247EA0089301034000000000000
B0609273206897S11658303EA0088401029000000000000
B0609313206922S11658360EA0088201025000000000000
B0609353206942S11658417EA0088001023000000000000
B0609393206959S11658477EA0087001009000000000000
B0609433206981S11658539EA0085900998000000000000
B0609473207008S11658602EA0084800993000000000000
B0609513207031S11658661EA0084800992000000000000
B0609553207055S11658720EA0084300986000000000000
B0609593207079S11658777EA0083500976000000000000
B0610033207099S11658841EA0082600970000000000000
B0610073207115S11658905EA0082500970000000000000
B0610113207131S11658967EA0082200966000000000000
B0610153207147S11659028EA0082100966000000000000
B0610193207164S11659088EA0082000964000000000000
B0610233207183S11659145EA0081700962000000000000
B0610273207206S11659198EA0081800964000000000000
B0610313207226S11659253EA0082000964000000000000
B0610353207246S11659310EA0081800961000000000000
B0610393207272S11659365EA0081700963000000000000
B0610433207299S11659419EA0081600959000000000000
B0610473207330S11659473EA0081300956000000000000
B0610513207360S11659529EA0081100956000000000000
B0610553207389S11659587EA0081400961000000000000
B0610593207419S11659643EA0081600960000000000000
B0611033207449S11659696EA0081400959000000000000
B0611073207473S11659747EA0081400956000000000000
B0611113207494S11659802EA0081300956000000000000
B0611153207520S11659854EA0081200956000000000000
B0611193207549S11659904EA0082000964000000000000
B0611233207589S11659926EA0082900975000000000000
B0611273207624S11659878EA0082900967000000000000
B0611313207599S11659802EA0082000960000000000000
B0611353207531S11659766EA0081900964000000000000
B0611393207480S11659795EA0082600968000000000000
B0611433207464S11659851EA0083100972000000000000
B0611473207482S11659903EA0083200969000000000000
B0611513207529S11659920EA0083600977000000000000
B0611553207564S11659869EA0084100979000000000000
B0611593207544S11659794EA0083600973000000000000
B0612033207481S11659759EA0083700977000000000000
B0612073207421S11659774EA0083900981000000000000
B0612113207394S11659824EA0084900993000000000000
B0612153207414S11659869EA0085100987000000000000
B0612193207466S11659867EA0084800989000000000000
B0612233207494S11659802EA0085000990000000000000
B0612273207467S11659722EA0084600985000000000000
B0612313207403S11659690EA0084600988000000000000
B0612353207345S11659711EA0085701000000000000000
B0612393207325S11659766EA0085800998000000000000
B0612433207362S11659803EA0085901001000000000000
B0612473207406S11659763EA0085901005000000000000
B0612513207402S11659683EA0085901005000000000000
B0612553207360S11659613EA0085801005000000000000
B0612593207302S11659571EA0086601015000000000000
B0613033207273S11659610EA0087201020000000000000
B0613073207310S11659636EA0087401016000000000000
B0613113207351S11659590EA0087001019000000000000
B0613153207346S11659513EA0087901027000000000000
B0613193207300S11659461EA0088201024000000000000
B0613233207241S11659418EA0086801007000000000000
B0613273207182S11659354EA0084900987000000000000
B0613313207129S11659276EA0083200973000000000000
B0613353207081S11659191EA0082300966000000000000
B0613393207038S11659103EA0082100964000000000000
B0613433206996S11659018EA0081800962000000000000
B0613473206956S11658932EA0081300957000000000000
B0613513206931S11658840EA0081700968000000000000
B0613553206969S11658778EA0083900991000000000000
B0613593207012S11658794EA0084900991000000000000
B0614033207016S11658850EA0083900981000000000000
B0614073206974S11658889EA0084200988000000000000
B0614113206914S11658871EA0084700991000000000000
B0614153206873S11658804EA0085100996000000000000
B0614193206883S11658730EA0086301010000000000000
B0614233206929S11658710EA0087201013000000000000
B0614273206962S11658745EA0086401003000000000000
B0614313206959S11658801EA0085900999000000000000
B0614353206913S11658841EA0085701002000000000000
B0614393206849S11658845EA0085901005000000000000
B0614433206790S11658806EA0086501014000000000000
B0614473206751S11658743EA0087901022000000000000
B0614513206736S11658668EA0087901022000000000000
B0614553206761S11658603EA0087401018000000000000
B0614593206812S11658574EA0087001016000000000000
B0615033206860S11658590EA0086701014000000000000
B0615073206878S11658642EA0086601013000000000000
B0615113206853S11658693EA0086901019000000000000
B0615153206805S11658723EA0086901018000000000000
B0615193206745S11658708EA0087401026000000000000
B0615233206701S11658652EA0088101029000000000000
B0615273206689S11658574EA0088201029000000000000
B0615313206687S11658491EA0087501018000000000000
B0615353206689S11658398EA0086401009000000000000
B0615393206692S11658307EA0086501015000000000000
B0615433206699S11658221EA0086801013000000000000
B0615473206683S11658131EA0086201010000000000000
B0615513206641S11658056EA0086201008000000000000
B0615553206591S11657991EA0085701003000000000000
B0615593206532S11657933EA0085100997000000000000
B0616033206472S11657876EA0084800993000000000000
B0616073206414S11657819EA0084500992000000000000
B0616113206358S11657761EA0084800994000000000000
B0616153206303S11657699EA0084500990000000000000
B0616193206250S11657640EA0084700992000000000000
B0616233206199S11657584EA0085200997000000000000
B0616273206143S11657543EA0086301008000000000000
B0616313206098S11657562EA0086401004000000000000
B0616353206103S11657614EA0085300994000000000000
B0616393206151S11657618EA0085500998000000000000
B0616433206179S11657558EA0085901001000000000000
B0616473206167S11657484EA0086201004000000000000
B0616513206114S11657450EA0086501007000000000000
B0616553206078S11657488EA0086301002000000000000
B0616593206094S11657540EA0085500994000000000000
B0617033206128S11657590EA0084300982000000000000
B0617073206166S11657644EA0083900979000000000000
B0617113206205S11657699EA0083700979000000000000
B0617153206240S11657754EA0084400985000000000000
B0617193206279S11657797EA0085300998000000000000
B0617233206322S11657761EA0086701011000000000000
B0617273206303S11657686EA0086801010000000000000
B0617313206244S11657663EA0086801016000000000000
B0617353206199S11657697EA0087301016000000000000
B0617393206194S11657754EA0087401016000000000000
B0617433206229S11657792EA0087201016000000000000
B0617473206284S11657787EA0087701019000000000000
B0617513206324S11657728EA0088001021000000000000
B0617553206323S11657644EA0087801020000000000000
B0617593206277S11657577EA0087901022000000000000
B0618033206216S11657564EA0088501029000000000000
B0618073206175S11657599EA0089101033000000000000
B0618113206177S11657651EA0089601038000000000000
B0618153206219S11657668EA0089701038000000000000
B0618193206268S11657628EA0089301033000000000000
B0618233206267S11657546EA0088901031000000000000
B0618273206211S11657495EA0089301035000000000000
B0618313206151S11657501EA0089501040000000000000
B0618353206120S11657553EA0089901043000000000000
B0618393206130S11657608EA0090001041000000000000
B0618433206162S11657658EA0089901039000000000000
B0618473206199S11657707EA0089601038000000000000
B0618513206233S11657762EA0089601037000000000000
B0618553206263S11657819EA0089401035000000000000
B0618593206294S11657879EA0089701041000000000000
B0619033206332S11657930EA0091001054000000000000
B0619073206384S11657928EA0092401069000000000000
B0619113206413S11657867EA0092801067000000000000
B0619153206385S11657789EA0092101058000000000000
B0619193206320S11657750EA0091601058000000000000
B0619233206259S11657761EA0092501065000000000000
B0619273206221S11657807EA0092901070000000000000
B0619313206212S11657866EA0093201073000000000000
B0619353206250S11657889EA0093601077000000000000
B0619393206296S11657846EA0093201071000000000000
B0619433206299S11657764EA0093401079000000000000
B0619473206258S11657692EA0093601078000000000000
B0619513206190S11657659EA0094101086000000000000
B0619553206130S11657676EA0094701088000000000000
B0619593206099S11657725EA0094601088000000000000
B0620033206102S11657784EA0094301084000000000000
B0620073206127S11657833EA0094101082000000000000
B0620113206159S11657878EA0094101083000000000000
B0620153206194S11657923EA0094101082000000000000
B0620193206232S11657970EA0093901079000000000000
B0620233206272S11658011EA0093701074000000000000
B0620273206318S11658049EA0092801063000000000000
B0620313206366S11658084EA0092001059000000000000
B0620353206414S11658121EA0091401050000000000000
B0620393206465S11658162EA0090201042000000000000
B0620433206513S11658205EA0090301047000000000000
B0620473206556S11658251EA0090801050000000000000
B0620513206596S11658291EA0091901064000000000000
B0620553206634S11658325EA0093001070000000000000
B0620593206680S11658330EA0093401075000000000000
B0621033206709S11658264EA0093401082000000000000
B0621073206669S11658200EA0093901086000000000000
B0621113206606S11658197EA0094101087000000000000
B0621153206571S11658247EA0094301087000000000000
B0621193206582S11658308EA0094101085000000000000
B0621233206624S11658343EA0094301087000000000000
B0621273206683S11658333EA0094501090000000000000
B0621313206731S11658278EA0094501087000000000000
B0621353206732S11658199EA0094801096000000000000
B0621393206695S11658127EA0094401085000000000000
B0621433206644S11658058EA0094101086000000000000
B0621473206582S11658022EA0094701097000000000000
B0621513206530S11658041EA0096001107000000000000
B0621553206530S11658095EA0096501110000000000000
B0621593206576S11658112EA0096801112000000000000
B0622033206618S11658058EA0096901115000000000000
B0622073206608S11657982EA0097601121000000000000
B0622113206556S11657937EA0097901125000000000000
B0622153206500S11657941EA0098401129000000000000
B0622193206474S11657984EA0098701132000000000000
B0622233206494S11658026EA0099001132000000000000
B0622273206544S11658019EA0098901131000000000000
B0622313206580S11657958EA0098501130000000000000
B0622353206565S11657881EA0098601128000000000000
B0622393206502S11657859EA0098301128000000000000
B0622433206461S11657904EA0098301130000000000000
B0622473206472S11657957EA0099401142000000000000
B0622513206517S11657975EA0100101146000000000000
B0622553206566S11657940EA0099801144000000000000
B0622593206583S11657866EA0099901146000000000000
B0623033206550S11657798EA0100101144000000000000
B0623073206488S11657780EA0099801144000000000000
B0623113206442S11657815EA0100501148000000000000
B0623153206433S11657872EA0100501151000000000000
B0623193206462S11657915EA0101201158000000000000
B0623233206513S11657905EA0101401159000000000000
B0623273206535S11657835EA0101201156000000000000
B0623313206502S11657763EA0100901153000000000000
B0623353206437S11657737EA0100501151000000000000
B0623393206384S11657767EA0101101163000000000000
B0623433206362S11657815EA0102401167000000000000
B0623473206376S11657868EA0102001161000000000000
B0623513206414S11657911EA0101501159000000000000
B0623553206465S11657930EA0102201166000000000000
B0623593206517S11657904EA0102201161000000000000
B0624033206565S11657844EA0101001148000000000000
B0624073206617S11657784EA0099901141000000000000
B0624113206667S11657722EA0099401138000000000000
B0624153206702S11657645EA0099301133000000000000
B0624193206708S11657555EA0098901131000000000000
B0624233206676S11657471EA0098901129000000000000
B0624273206619S11657407EA0098601127000000000000
B0624313206549S11657376EA0098601130000000000000
B0624353206479S11657371EA0098701131000000000000
B0624393206413S11657377EA0098601128000000000000
B0624433206348S11657389EA0098501128000000000000
B0624473206285S11657403EA0098901127000000000000
B0624513206221S11657421EA0098301119000000000000
B0624553206156S11657445EA0097901121000000000000
B0624593206090S11657468EA0098101122000000000000
B0625033206030S11657503EA0098401126000000000000
B0625073206017S11657562EA0099501135000000000000
B0625113206052S11657594EA0099301129000000000000
B0625153206106S11657572EA0098501121000000000000
B0625193206129S11657502EA0098301123000000000000
B0625233206111S11657423EA0098101121000000000000
B0625273206068S11657354EA0098101122000000000000
B0625313206013S11657294EA0097901118000000000000
B0625353205955S11657238EA0097601116000000000000
B0625393205894S11657182EA0097401117000000000000
B0625433205831S11657131EA0098101126000000000000
B0625473205764S11657103EA0098801125000000000000
B0625513205704S11657140EA0097701113000000000000
B0625553205696S11657215EA0096801108000000000000
B0625593205730S11657273EA0096501106000000000000
B0626033205778S11657308EA0096601108000000000000
B0626073205833S11657328EA0096401104000000000000
B0626113205895S11657330EA0095701094000000000000
B0626153205963S11657324EA0094501085000000000000
B0626193206030S11657320EA0094201087000000000000
B0626233206095S11657317EA0094601091000000000000
B0626273206158S11657320EA0095001091000000000000
B0626313206223S11657317EA0094801092000000000000
B0626353206289S11657312EA0095201094000000000000
B0626393206353S11657287EA0095501095000000000000
B0626433206390S11657218EA0095301097000000000000
B0626473206414S11657138EA0095101090000000000000
B0626513206437S11657053EA0094701089000000000000
B0626553206454S11656966EA0094701089000000000000
B0626593206461S11656874EA0094501084000000000000
B0627033206440S11656786EA0094201085000000000000
B0627073206389S11656727EA0094601089000000000000
B0627113206324S11656710EA0093901078000000000000
B0627153206259S11656730EA0092901069000000000000
B0627193206205S11656776EA0092401063000000000000
B0627233206160S11656834EA0091601057000000000000
B0627273206119S11656900EA0090901051000000000000
B0627313206080S11656965EA0091201057000000000000
B0627353206050S11657034EA0091801059000000000000
B0627393206046S11657108EA0092001059000000000000
B0627433206058S11657181EA0091501056000000000000
B0627473206073S11657250EA0091401056000000000000
B0627513206094S11657315EA0090801048000000000000
B0627553206121S11657378EA0090501047000000000000
B0627593206151S11657441EA0090301037000000000000
B0628033206185S11657510EA0089501039000000000000
B0628073206220S11657569EA0090301044000000000000
B0628113206257S11657631EA0090001041000000000000
B0628153206293S11657694EA0089101029000000000000
B0628193206328S11657764EA0087801017000000000000
B0628233206351S11657840EA0087401018000000000000
B0628273206368S11657913EA0087801019000000000000
B0628313206384S11657982EA0087601018000000000000
B0628353206400S11658048EA0087401015000000000000
B0628393206419S11658115EA0086701006000000000000
B0628433206440S11658183EA0085500996000000000000
B0628473206463S11658255EA0084600989000000000000
B0628513206487S11658323EA0084000984000000000000
B0628553206511S11658388EA0083600980000000000000
B0628593206540S11658455EA0083100972000000000000
B0629033206567S11658524EA0082500965000000000000
B0629073206591S11658593EA0082200967000000000000
B0629113206610S11658661EA0082000965000000000000
B0629153206631S11658728EA0081700966000000000000
B0629193206653S11658790EA0081900967000000000000
B0629233206674S11658853EA0082000967000000000000
B0629273206695S11658912EA0082000966000000000000
B0629313206715S11658971EA0081400965000000000000
B0629353206739S11659029EA0081600963000000000000
B0629393206760S11659089EA0081300960000000000000
B0629433206779S11659149EA0081200958000000000000
B0629473206799S11659209EA0080900957000000000000
B0629513206822S11659267EA0080800957000000000000
B0629553206853S11659319EA0081200962000000000000
B0629593206890S11659365EA0082400974000000000000
B0630033206939S11659356EA0083600985000000000000
B0630073206949S11659285EA0083800983000000000000
B0630113206896S11659236EA0083700987000000000000
B0630153206843S11659253EA0084200995000000000000
B0630193206834S11659306EA0085301005000000000000
B0630233206875S11659326EA0086101011000000000000
B0630273206910S11659279EA0086501015000000000000
B0630313206891S11659210EA0086501014000000000000
B0630353206832S11659193EA0086401014000000000000
B0630393206793S11659235EA0087101024000000000000
B0630433206796S11659288EA0088001030000000000000
B0630473206835S11659318EA0088701039000000000000
B0630513206884S11659304EA0089501047000000000000
B0630553206917S11659248EA0089901047000000000000
B0630593206907S11659171EA0089901047000000000000
B0631033206855S11659127EA0090201052000000000000
B0631073206804S11659145EA0090901059000000000000
B0631113206788S11659196EA0091501064000000000000
B0631153206813S11659240EA0092101070000000000000
B0631193206860S11659250EA0092901077000000000000
B0631233206903S11659218EA0093401081000000000000
B0631273206917S11659154EA0093301079000000000000
B0631313206888S11659087EA0093101074000000000000
B0631353206829S11659057EA0093001076000000000000
B0631393206777S11659077EA0093201078000000000000
B0631433206766S11659135EA0093701085000000000000
B0631473206799S11659172EA0094501092000000000000
B0631513206848S11659158EA0095001097000000000000
B0631553206870S11659096EA0095101096000000000000
B0631593206832S11659033EA0094201086000000000000
B0632033206767S11659023EA0094001089000000000000
B0632073206728S11659067EA0094801099000000000000
B0632113206748S11659115EA0095501102000000000000
B0632153206801S11659106EA0095701104000000000000
B0632193206822S11659037EA0096401110000000000000
B0632233206791S11658967EA0096101101000000000000
B0632273206725S11658940EA0095301097000000000000
B0632313206665S11658967EA0095901106000000000000
B0632353206637S11659023EA0097101117000000000000
B0632393206656S11659076EA0097401116000000000000
B0632433206697S11659124EA0095801097000000000000
B0632473206756S11659172EA0094101082000000000000
B0632513206818S11659218EA0093001068000000000000
B0632553206886S11659259EA0092001060000000000000
B0632593206948S11659296EA0092001063000000000000
B0633033207007S11659332EA0092101059000000000000
B0633073207066S11659370EA0091201051000000000000
B0633113207128S11659409EA0090601046000000000000
B0633153207189S11659444EA0090301045000000000000
B0633193207251S11659475EA0090201042000000000000
B0633233207312S11659503EA0089801039000000000000
B0633273207371S11659530EA0089401034000000000000
B0633313207429S11659553EA0088901032000000000000
B0633353207486S11659578EA0088801027000000000000
B0633393207540S11659610EA0088201021000000000000
B0633433207590S11659644EA0088601029000000000000
B0633473207636S11659677EA0088901030000000000000
B0633513207683S11659707EA0089301037000000000000
B0633553207733S11659712EA0090701048000000000000
B0633593207772S11659666EA0091301053000000000000
B0634033207748S11659594EA0091001049000000000000
B0634073207681S11659573EA0090801048000000000000
B0634113207627S11659603EA0090701048000000000000
B0634153207596S11659657EA0091101053000000000000
B0634193207592S11659717EA0091101052000000000000
B0634233207596S11659779EA0090901045000000000000
B0634273207601S11659844EA0089701039000000000000
B0634313207605S11659912EA0089501036000000000000
B0634353207611S11659981EA0089601038000000000000
B0634393207623S11700045EA0090001044000000000000
B0634433207632S11700110EA0090401047000000000000
B0634473207641S11700175EA0090601047000000000000
B0634513207645S11700241EA0090401048000000000000
B0634553207649S11700306EA0090801048000000000000
B0634593207653S11700376EA0089801037000000000000
B0635033207662S11700448EA0089101033000000000000
B0635073207670S11700515EA0089001032000000000000
B0635113207675S11700582EA0088701030000000000000
B0635153207675S11700648EA0088401024000000000000
B0635193207674S11700714EA0087601015000000000000
B0635233207675S11700784EA0086901009000000000000
B0635273207676S11700851EA0087001012000000000000
B0635313207676S11700912EA0087401016000000000000
B0635353207677S11700973EA0086801005000000000000
B0635393207680S11701038EA0085900998000000000000
B0635433207685S11701103EA0085600998000000000000
B0635473207688S11701167EA0085800999000000000000
B0635513207693S11701233EA0085400995000000000000
B0635553207700S11701299EA0085200993000000000000
B0635593207707S11701367EA0085000989000000000000
B0636033207720S11701433EA0084800987000000000000
B0636073207739S11701498EA0084500988000000000000
B0636113207761S11701559EA0084900991000000000000
B0636153207783S11701622EA0085000992000000000000
B0636193207805S11701680EA0085500998000000000000
B0636233207824S11701736EA0085901002000000000000
B0636273207845S11701788EA0086501010000000000000
B0636313207863S11701837EA0087101012000000000000
B0636353207901S11701866EA0087001007000000000000
B0636393207945S11701828EA0086101000000000000000
B0636433207943S11701744EA0085700994000000000000
B0636473207910S11701659EA0084600981000000000000
B0636513207875S11701572EA0083500975000000000000
B0636553207831S11701489EA0083000967000000000000
B0636593207791S11701401EA0082500968000000000000
B0637033207761S11701312EA0083100975000000000000
B0637073207735S11701226EA0084400987000000000000
B0637113207687S11701168EA0085701000000000000000
B0637153207642S11701193EA0086201002000000000000
B0637193207655S11701243EA0085800998000000000000
B0637233207702S11701247EA0086101008000000000000
B0637273207745S11701204EA0087201017000000000000
B0637313207746S11701130EA0087901022000000000000
B0637353207694S11701085EA0088301024000000000000
B0637393207641S11701108EA0088501028000000000000
B0637433207631S11701161EA0088801029000000000000
B0637473207664S11701200EA0088701031000000000000
B0637513207715S11701187EA0089401041000000000000
B0637553207748S11701125EA0090301047000000000000
B0637593207732S11701047EA0090601048000000000000
B0638033207674S11701004EA0091001051000000000000
B0638073207610S11701017EA0091301055000000000000
B0638113207581S11701070EA0091701059000000000000
B0638153207602S11701121EA0092001062000000000000
B0638193207653S11701130EA0092501066000000000000
B0638233207698S11701081EA0092801069000000000000
B0638273207702S11700999EA0092801070000000000000
B0638313207663S11700927EA0093101076000000000000
B0638353207611S11700948EA0093901079000000000000
B0638393207633S11700999EA0093601080000000000000
B0638433207688S11700982EA0094501092000000000000
B0638473207709S11700905EA0095301094000000000000
B0638513207674S11700829EA0095101093000000000000
B0638553207610S11700797EA0095101092000000000000
B0638593207557S11700826EA0095101091000000000000
B0639033207544S11700888EA0094801090000000000000
B0639073207580S11700929EA0095401098000000000000
B0639113207631S11700895EA0096001103000000000000
B0639153207638S11700810EA0096501106000000000000
B0639193207588S11700752EA0096801113000000000000
B0639233207536S11700770EA0097701122000000000000
B0639273207529S11700823EA0098101123000000000000
B0639313207575S11700839EA0098101123000000000000
B0639353207605S11700774EA0098401125000000000000
B0639393207557S11700714EA0098301125000000000000
B0639433207497S11700736EA0098301126000000000000
B0639473207471S11700797EA0098701130000000000000
B0639513207481S11700856EA0099701142000000000000
B0639553207518S11700892EA0100401147000000000000
B0639593207568S11700892EA0100201142000000000000
B0640033207602S11700832EA0098601124000000000000
B0640073207592S11700735EA0096801104000000000000
B0640113207577S11700630EA0096201102000000000000
B0640153207560S11700522EA0095801095000000000000
B0640193207545S11700419EA0095901100000000000000
B0640233207531S11700323EA0096201102000000000000
B0640273207516S11700228EA0096401099000000000000
B0640313207506S11700132EA0095501089000000000000
B0640353207494S11700032EA0094801082000000000000
B0640393207484S11659929EA0094201076000000000000
B0640433207471S11659828EA0093501070000000000000
B0640473207460S11659722EA0092501060000000000000
B0640513207453S11659614EA0091701050000000000000
B0640553207445S11659506EA0090601046000000000000
B0640593207436S11659405EA0091401056000000000000
B0641033207429S11659309EA0091901055000000000000
B0641073207416S11659210EA0090901044000000000000
B0641113207399S11659111EA0091601056000000000000
B0641153207378S11659020EA0092901066000000000000
B0641193207354S11658933EA0094101079000000000000
B0641233207298S11658902EA0095601096000000000000
B0641273207269S11658946EA0095901097000000000000
B0641313207291S11658996EA0095701095000000000000
B0641353207345S11659003EA0095901104000000000000
B0641393207397S11658973EA0097201112000000000000
B0641433207429S11658905EA0096801102000000000000
B0641473207415S11658808EA0095101088000000000000
B0641513207384S11658711EA0094601082000000000000
B0641553207355S11658611EA0093701077000000000000
B0641593207325S11658512EA0093501076000000000000
B0642033207293S11658418EA0094201085000000000000
B0642073207261S11658325EA0094201080000000000000
B0642113207228S11658230EA0093701076000000000000
B0642153207190S11658136EA0092901069000000000000
B0642193207152S11658043EA0092801065000000000000
B0642233207103S11657954EA0092701064000000000000
B0642273207044S11657876EA0092701069000000000000
B0642313206983S11657806EA0093201071000000000000
B0642353206921S11657741EA0093201071000000000000
B0642393206857S11657680EA0092701063000000000000
B0642433206792S11657621EA0092001057000000000000
B0642473206722S11657573EA0091301051000000000000
B0642513206647S11657543EA0090501044000000000000
B0642553206569S11657529EA0089901036000000000000
B0642593206491S11657520EA0089001028000000000000
B0643033206413S11657516EA0088501024000000000000
B0643073206336S11657515EA0088401026000000000000
B0643113206264S11657510EA0088501023000000000000
B0643153206189S11657502EA0087001006000000000000
B0643193206108S11657488EA0085400991000000000000
B0643233206025S11657471EA0084400982000000000000
B0643273205945S11657455EA0083800975000000000000
B0643313205867S11657445EA0084000983000000000000
B0643353205790S11657433EA0084600986000000000000
B0643393205716S11657423EA0085200996000000000000
B0643433205656S11657445EA0086301003000000000000
B0643473205655S11657494EA0087001008000000000000
B0643513205699S11657503EA0086601002000000000000
B0643553205739S11657454EA0086201002000000000000
B0643593205739S11657376EA0086601007000000000000
B0644033205707S11657304EA0087201013000000000000
B0644073205647S11657285EA0087501018000000000000
B0644113205617S11657334EA0087301013000000000000
B0644153205647S11657374EA0087201018000000000000
B0644193205698S11657352EA0087601022000000000000
B0644233205720S11657277EA0087801025000000000000
B0644273205696S11657194EA0088401033000000000000
B0644313205636S11657142EA0089101037000000000000
B0644353205569S11657144EA0089601039000000000000
B0644393205522S11657194EA0089601044000000000000
B0644433205518S11657254EA0090301049000000000000
B0644473205555S11657285EA0090501048000000000000
B0644513205605S11657263EA0090601050000000000000
B0644553205627S11657189EA0090601054000000000000
B0644593205607S11657105EA0091101058000000000000
B0645033205547S11657055EA0091501061000000000000
B0645073205483S11657070EA0091901065000000000000
B0645113205458S11657129EA0091901065000000000000
B0645153205479S11657181EA0091901063000000000000
B0645193205526S11657196EA0091801062000000000000
B0645233205582S11657205EA0091001053000000000000
B0645273205642S11657225EA0090101043000000000000
B0645313205700S11657248EA0089101035000000000000
B0645353205759S11657272EA0088401023000000000000
B0645393205820S11657298EA0086701003000000000000
B0645433205883S11657334EA0085300992000000000000
B0645473205946S11657369EA0084600987000000000000
B0645513206007S11657406EA0084100983000000000000
B0645553206063S11657441EA0084100984000000000000
B0645593206114S11657476EA0084100980000000000000
B0646033206166S11657512EA0083300972000000000000
B0646073206216S11657553EA0082400962000000000000
B0646113206270S11657589EA0082100964000000000000
B0646153206320S11657628EA0081800957000000000000
B0646193206370S11657670EA0081000952000000000000
B0646233206416S11657711EA0080700951000000000000
B0646273206461S11657751EA0081000952000000000000
B0646313206506S11657794EA0080500945000000000000
B0646353206552S11657839EA0080100942000000000000
B0646393206584S11657896EA0080000938000000000000
B0646433206606S11657959EA0079400932000000000000
B0646473206627S11658024EA0078800928000000000000
B0646513206645S11658092EA0078300924000000000000
B0646553206654S11658164EA0078300925000000000000
B0646593206657S11658236EA0078700931000000000000
B0647033206662S11658304EA0079800939000000000000
B0647073206666S11658370EA0079500933000000000000
B0647113206670S11658440EA0078600922000000000000
B0647153206676S11658513EA0077400912000000000000
B0647193206684S11658585EA0076500905000000000000
B0647233206691S11658656EA0075800898000000000000
B0647273206699S11658728EA0074700887000000000000
B0647313206712S11658795EA0074700890000000000000
B0647353206723S11658859EA0074500887000000000000
B0647393206739S11658923EA0074000881000000000000
B0647433206754S11658989EA0073300875000000000000
B0647473206765S11659059EA0073000872000000000000
B0647513206774S11659129EA0072700870000000000000
B0647553206787S11659200EA0072800872000000000000
B0647593206793S11659267EA0073600882000000000000
B0648033206792S11659332EA0074300887000000000000
B0648073206787S11659397EA0074300886000000000000
B0648113206779S11659465EA0074300884000000000000
B0648153206780S11659534EA0074700889000000000000
B0648193206819S11659571EA0076000903000000000000
B0648233206871S11659544EA0076900914000000000000
B0648273206890S11659467EA0077500919000000000000
B0648313206848S11659402EA0078200924000000000000
B0648353206790S11659414EA0078900934000000000000
B0648393206787S11659467EA0079900946000000000000
B0648433206829S11659477EA0081600962000000000000
B0648473206857S11659421EA0082100963000000000000
B0648513206831S11659352EA0082400970000000000000
B0648553206774S11659336EA0083100973000000000000
B0648593206743S11659382EA0083300977000000000000
B0649033206771S11659419EA0084300989000000000000
B0649073206817S11659395EA0085501000000000000000
B0649113206819S11659322EA0086001003000000000000
B0649153206765S11659287EA0086401009000000000000
B0649193206726S11659322EA0087001017000000000000
B0649233206745S11659363EA0088301027000000000000
B0649273206792S11659344EA0089001035000000000000
B0649313206797S11659275EA0090001042000000000000
B0649353206745S11659237EA0090101042000000000000
B0649393206705S11659272EA0090601049000000000000
B0649433206728S11659317EA0091301054000000000000
B0649473206778S11659302EA0092001063000000000000
B0649513206803S11659236EA0092801072000000000000
B0649553206777S11659162EA0092901071000000000000
B0649593206715S11659144EA0093901082000000000000
B0650033206684S11659188EA0094901088000000000000
B0650073206710S11659224EA0095501100000000000000
B0650113206754S11659200EA0096401107000000000000
B0650153206769S11659131EA0096701111000000000000
B0650193206731S11659068EA0097101113000000000000
B0650233206673S11659066EA0097501118000000000000
B0650273206649S11659116EA0098101125000000000000
B0650313206676S11659154EA0098901134000000000000
B0650353206727S11659139EA0099401139000000000000
B0650393206754S11659072EA0100001146000000000000
B0650433206721S11659006EA0100201147000000000000
B0650473206663S11659006EA0100901152000000000000
B0650513206643S11659059EA0101201155000000000000
B0650553206671S11659102EA0101801163000000000000
B0650593206721S11659098EA0102901173000000000000
B0651033206756S11659046EA0103101173000000000000
B0651073206749S11658967EA0102801170000000000000
B0651113206700S11658915EA0102901171000000000000
B0651153206639S11658914EA0103701179000000000000
B0651193206611S11658963EA0104401184000000000000
B0651233206641S11658999EA0104901192000000000000
B0651273206695S11658980EA0105101192000000000000
B0651313206725S11658910EA0105201194000000000000
B0651353206713S11658827EA0105301193000000000000
B0651393206661S11658767EA0105301194000000000000
B0651433206593S11658747EA0105501196000000000000
B0651473206528S11658764EA0105601198000000000000
B0651513206487S11658812EA0106101202000000000000
B0651553206481S11658873EA0106001200000000000000
B0651593206517S11658918EA0105801198000000000000
B0652033206572S11658927EA0105701198000000000000
B0652073206632S11658899EA0105801201000000000000
B0652113206678S11658841EA0105901200000000000000
B0652153206700S11658756EA0105101192000000000000
B0652193206697S11658660EA0104501186000000000000
B0652233206687S11658561EA0103801176000000000000
B0652273206673S11658460EA0102501165000000000000
B0652313206660S11658357EA0102001163000000000000
B0652353206649S11658257EA0102101162000000000000
B0652393206632S11658156EA0101401151000000000000
B0652433206610S11658049EA0100401143000000000000
B0652473206589S11657943EA0100501144000000000000
B0652513206563S11657839EA0100301141000000000000
B0652553206532S11657737EA0100101142000000000000
B0652593206505S11657641EA0100401144000000000000
B0653033206480S11657546EA0100501142000000000000
B0653073206452S11657454EA0099801134000000000000
B0653113206416S11657361EA0098801124000000000000
B0653153206379S11657270EA0097701114000000000000
B0653193206338S11657181EA0097001108000000000000
B0653233206297S11657094EA0097101111000000000000
B0653273206250S11657013EA0097301110000000000000
B0653313206202S11656934EA0096901109000000000000
B0653353206156S11656854EA0096901111000000000000
B0653393206119S11656773EA0097201112000000000000
B0653433206101S11656687EA0097201112000000000000
B0653473206098S11656601EA0097201110000000000000
B0653513206116S11656518EA0096901108000000000000
B0653553206151S11656449EA0097001109000000000000
B0653593206194S11656389EA0097001106000000000000
B0654033206236S11656323EA0096101098000000000000
B0654073206276S11656254EA0095701096000000000000
B0654113206316S11656188EA0095601094000000000000
B0654153206358S11656123EA0095501093000000000000
B0654193206400S11656059EA0095701095000000000000
B0654233206429S11655987EA0095701092000000000000
B0654273206428S11655900EA0095301087000000000000
B0654313206396S11655817EA0094601081000000000000
B0654353206361S11655733EA0094101076000000000000
B0654393206325S11655647EA0093901078000000000000
B0654433206275S11655584EA0094901088000000000000
B0654473206218S11655586EA0096001098000000000000
B0654513206201S11655635EA0095601088000000000000
B0654553206233S11655677EA0094501080000000000000
B0654593206275S11655714EA0094001078000000000000
B0655033206311S11655755EA0094001081000000000000
B0655073206346S11655795EA0093901078000000000000
B0655113206376S11655842EA0093501074000000000000
B0655153206401S11655892EA0093401072000000000000
B0655193206422S11655946EA0093401076000000000000
B0655233206440S11655999EA0093901080000000000000
B0655273206458S11656054EA0094101081000000000000
B0655313206492S11656091EA0094901092000000000000
B0655353206539S11656069EA0095501095000000000000
B0655393206552S11655993EA0095301094000000000000
B0655433206518S11655925EA0095801101000000000000
B0655473206463S11655907EA0096001106000000000000
B0655513206424S11655941EA0096001104000000000000
B0655553206423S11655990EA0096401109000000000000
B0655593206461S11656016EA0096501108000000000000
B0656033206507S11655989EA0096501110000000000000
B0656073206522S11655917EA0096801113000000000000
B0656113206488S11655853EA0096901115000000000000
B0656153206433S11655835EA0097401118000000000000
B0656193206396S11655865EA0097401117000000000000
B0656233206401S11655916EA0096901112000000000000
B0656273206441S11655939EA0097101114000000000000
B0656313206491S11655911EA0097301115000000000000
B0656353206507S11655835EA0096901110000000000000
B0656393206467S11655761EA0096201102000000000000
B0656433206406S11655710EA0096001101000000000000
B0656473206337S11655678EA0095701097000000000000
B0656513206263S11655675EA0095301093000000000000
B0656553206197S11655700EA0095701098000000000000
B0656593206154S11655749EA0095801101000000000000
B0657033206137S11655811EA0095501095000000000000
B0657073206137S11655878EA0095501096000000000000
B0657113206142S11655943EA0095401095000000000000
B0657153206150S11656008EA0095401092000000000000
B0657193206163S11656073EA0095201090000000000000
B0657233206179S11656139EA0095201091000000000000
B0657273206195S11656203EA0095201093000000000000
B0657313206212S11656264EA0095601094000000000000
B0657353206231S11656325EA0095701095000000000000
B0657393206250S11656386EA0095401091000000000000
B0657433206271S11656449EA0094301077000000000000
B0657473206293S11656510EA0093501071000000000000
B0657513206319S11656568EA0093201067000000000000
B0657553206345S11656624EA0092601064000000000000
B0657593206368S11656683EA0092301061000000000000
B0658033206387S11656743EA0092001057000000000000
B0658073206396S11656806EA0091401052000000000000
B0658113206389S11656875EA0090601037000000000000
B0658153206371S11656949EA0088701021000000000000
B0658193206341S11657026EA0087701016000000000000
B0658233206310S11657098EA0088101019000000000000
B0658273206288S11657166EA0088401025000000000000
B0658313206277S11657239EA0088701026000000000000
B0658353206273S11657312EA0088801031000000000000
B0658393206285S11657384EA0089401035000000000000
B0658433206309S11657451EA0089801043000000000000
B0658473206338S11657512EA0090501045000000000000
B0658513206380S11657558EA0091301056000000000000
B0658553206428S11657532EA0092501064000000000000
B0658593206424S11657458EA0091901054000000000000
B0659033206372S11657400EA0091201048000000000000
B0659073206303S11657374EA0090601045000000000000
B0659113206231S11657374EA0090701046000000000000
B0659153206167S11657400EA0091201054000000000000
B0659193206141S11657462EA0091801056000000000000
B0659233206162S11657529EA0091001047000000000000
B0659273206197S11657598EA0090401045000000000000
B0659313206240S11657666EA0090601044000000000000
B0659353206277S11657738EA0089701035000000000000
B0659393206316S11657809EA0088901027000000000000
B0659433206358S11657876EA0088001016000000000000
B0659473206400S11657948EA0087401017000000000000
B0659513206439S11658013EA0088401029000000000000
B0659553206471S11658071EA0089601036000000000000
B0659593206505S11658128EA0089001027000000000000
B0700033206536S11658190EA0087801018000000000000
B0700073206567S11658252EA0087501015000000000000
B0700113206597S11658318EA0086901003000000000000
B0700153206624S11658388EA0085600993000000000000
B0700193206653S11658455EA0085300991000000000000
B0700233206683S11658517EA0085000986000000000000
B0700273206710S11658581EA0084200978000000000000
B0700313206738S11658647EA0083200968000000000000
B0700353206767S11658711EA0082700966000000000000
B0700393206795S11658776EA0082900966000000000000
B0700433206826S11658836EA0083100974000000000000
B0700473206856S11658890EA0083900977000000000000
B0700513206882S11658946EA0083500974000000000000
B0700553206907S11659002EA0084100983000000000000
B0700593206923S11659059EA0084600984000000000000
B0701033206939S11659118EA0084200979000000000000
B0701073206956S11659175EA0084100979000000000000
B0701113206975S11659232EA0083800977000000000000
B0701153206991S11659291EA0083500971000000000000
B0701193207007S11659349EA0083000964000000000000
B0701233207025S11659410EA0081900953000000000000
B0701273207047S11659475EA0080600940000000000000
B0701313207070S11659542EA0079500932000000000000
B0701353207099S11659605EA0078800926000000000000
B0701393207126S11659668EA0078100918000000000000
B0701433207152S11659733EA0077100910000000000000
B0701473207172S11659800EA0076700906000000000000
B0701513207195S11659865EA0076600907000000000000
B0701553207225S11659924EA0076400904000000000000
B0701593207252S11659985EA0076200899000000000000
B0702033207276S11700051EA0075300893000000000000
B0702073207302S11700110EA0076000902000000000000
B0702113207325S11700163EA0076400904000000000000
B0702153207347S11700218EA0076400901000000000000
B0702193207369S11700272EA0075900896000000000000
B0702233207388S11700335EA0075400889000000000000
B0702273207407S11700397EA0075000890000000000000
B0702313207429S11700458EA0074700885000000000000
B0702353207453S11700523EA0073800874000000000000
B0702393207477S11700589EA0073100870000000000000
B0702433207501S11700653EA0072900866000000000000
B0702473207527S11700717EA0072100858000000000000
B0702513207570S11700767EA0071800857000000000000
B0702553207631S11700792EA0071600856000000000000
B0702593207700S11700779EA0071700860000000000000
B0703033207753S11700730EA0073100874000000000000
B0703073207778S11700656EA0073700877000000000000
B0703113207776S11700569EA0072800866000000000000
B0703153207763S11700476EA0072300862000000000000
B0703193207740S11700384EA0072200867000000000000
B0703233207710S11700294EA0072600870000000000000
B0703273207679S11700208EA0073300877000000000000
B0703313207624S11700173EA0074700893000000000000
B0703353207601S11700219EA0076400903000000000000
B0703393207635S11700253EA0076700907000000000000
B0703433207683S11700232EA0077500916000000000000
B0703473207697S11700167EA0077400913000000000000
B0703513207662S11700108EA0077400912000000000000
B0703553207605S11700102EA0077500914000000000000
B0703593207559S11700141EA0077600919000000000000
B0704033207546S11700199EA0077800921000000000000
B0704073207577S11700237EA0078300928000000000000
B0704113207625S11700207EA0079000930000000000000
B0704153207637S11700132EA0078800927000000000000
B0704193207586S11700078EA0078300928000000000000
B0704233207523S11700082EA0078600929000000000000
B0704273207486S11700132EA0078700935000000000000
B0704313207484S11700189EA0079300935000000000000
B0704353207505S11700245EA0078100922000000000000
B0704393207538S11700303EA0076900913000000000000
B0704433207571S11700363EA0077300918000000000000
B0704473207610S11700413EA0077100916000000000000
B0704513207667S11700426EA0077500924000000000000
B0704553207720S11700396EA0078100925000000000000
B0704593207745S11700319EA0077100910000000000000
B0705033207731S11700223EA0075000887000000000000
B0705073207692S11700125EA0073500882000000000000
B0705113207650S11700030EA0074500893000000000000
B0705153207611S11659939EA0075900902000000000000
B0705193207551S11659920EA0077800924000000000000
B0705233207542S11659969EA0079000932000000000000
B0705273207588S11659978EA0079300936000000000000
B0705313207614S11659915EA0079900943000000000000
B0705353207579S11659857EA0080200943000000000000
B0705393207527S11659874EA0080200944000000000000
B0705433207528S11659925EA0081500958000000000000
B0705473207571S11659929EA0082100962000000000000
B0705513207610S11659874EA0082500967000000000000
B0705553207607S11659798EA0082600967000000000000
B0705593207563S11659742EA0082600968000000000000
B0706033207506S11659737EA0082800968000000000000
B0706073207473S11659785EA0082800973000000000000
B0706113207498S11659830EA0083600984000000000000
B0706153207550S11659820EA0084500990000000000000
B0706193207581S11659756EA0085100996000000000000
B0706233207570S11659681EA0085100994000000000000
B0706273207518S11659631EA0084400986000000000000
B0706313207453S11659626EA0084500989000000000000
B0706353207398S11659657EA0085000997000000000000
B0706393207373S11659711EA0085400996000000000000
B0706433207380S11659770EA0085000992000000000000
B0706473207415S11659815EA0084600989000000000000
B0706513207471S11659833EA0085000994000000000000
B0706553207529S11659815EA0085801003000000000000
B0706593207553S11659743EA0086701011000000000000
B0707033207511S11659678EA0087001011000000000000
B0707073207450S11659682EA0087401020000000000000
B0707113207429S11659733EA0088601030000000000000
B0707153207456S11659774EA0088801031000000000000
B0707193207511S11659774EA0089001035000000000000
B0707233207557S11659729EA0089901042000000000000
B0707273207572S11659653EA0090101041000000000000
B0707313207541S11659574EA0089701036000000000000
B0707353207477S11659535EA0089701043000000000000
B0707393207420S11659552EA0091201059000000000000
B0707433207391S11659599EA0091801064000000000000
B0707473207395S11659652EA0092401068000000000000
B0707513207432S11659687EA0092101065000000000000
B0707553207488S11659679EA0092301069000000000000
B0707593207531S11659622EA0092701073000000000000
B0708033207529S11659540EA0092901073000000000000
B0708073207476S11659479EA0092901071000000000000
B0708113207407S11659461EA0093001075000000000000
B0708153207347S11659490EA0093501079000000000000
B0708193207320S11659549EA0093501079000000000000
B0708233207339S11659610EA0093101075000000000000
B0708273207394S11659636EA0093401077000000000000
B0708313207454S11659626EA0093701079000000000000
B0708353207505S11659578EA0093601076000000000000
B0708393207532S11659497EA0092701065000000000000
B0708433207532S11659401EA0091601054000000000000
B0708473207512S11659300EA0090001038000000000000
B0708513207482S11659194EA0089001027000000000000
B0708553207445S11659092EA0088601027000000000000
B0708593207406S11658993EA0088601024000000000000
B0709033207364S11658894EA0088901028000000000000
B0709073207323S11658802EA0089701038000000000000
B0709113207278S11658717EA0090601047000000000000
B0709153207233S11658639EA0090801045000000000000
B0709193207189S11658555EA0090401037000000000000
B0709233207147S11658461EA0089601030000000000000
B0709273207102S11658369EA0089401032000000000000
B0709313207053S11658281EA0089601035000000000000
B0709353207009S11658196EA0090001035000000000000
B0709393206968S11658109EA0088401016000000000000
B0709433206933S11658009EA0087401014000000000000
B0709473206917S11657906EA0088801030000000000000
B0709513206921S11657811EA0089801040000000000000
B0709553206942S11657724EA0090501040000000000000
B0709593206970S11657638EA0090001034000000000000
B0710033207001S11657551EA0089101025000000000000
B0710073207033S11657462EA0088201016000000000000
B0710113207061S11657372EA0087401009000000000000
B0710153207090S11657281EA0086801001000000000000
B0710193207115S11657187EA0086200998000000000000
B0710233207134S11657094EA0086401002000000000000
B0710273207152S11657003EA0086801010000000000000
B0710313207167S11656913EA0087801016000000000000
B0710353207142S11656831EA0089001030000000000000
B0710393207083S11656815EA0090801041000000000000
B0710433207065S11656866EA0091001041000000000000
B0710473207105S11656891EA0091001046000000000000
B0710513207133S11656836EA0091701054000000000000
B0710553207092S11656774EA0091901056000000015000
B0710593207035S11656784EA0092501062000000000000
B0711033207020S11656836EA0092901068000000000000
B0711073207056S11656866EA0092601067000000000000
B0711113207104S11656838EA0092901071000000000000
B0711153207120S11656767EA0093401075000000000000
B0711193207090S11656698EA0093901078000000000000
B0711233207031S11656679EA0094201084000000000000
B0711273206996S11656718EA0094801091000000000000
B0711313207008S11656770EA0094801082000000000000
B0711353207030S11656831EA0093101066000000000000
B0711393207052S11656905EA0092001059000000000000
B0711433207076S11656983EA0091101047000000000000
B0711473207102S11657066EA0090001042000000000000
B0711513207124S11657146EA0091101053000000000000
B0711553207148S11657224EA0090601039000000000000
B0711593207180S11657300EA0089201030000000000000
B0712033207212S11657372EA0088701023000000000000
B0712073207238S11657447EA0087801016000000000000
B0712113207261S11657521EA0087201011000000000000
B0712153207293S11657584EA0087401011000000000000
B0712193207346S11657608EA0087501012000000000000
B0712233207401S11657572EA0087301006000000000000
B0712273207420S11657490EA0086600997000000000000
B0712313207407S11657394EA0084600971000000000000
B0712353207382S11657283EA0082000950000000000000
B0712393207355S11657173EA0081200944000000000000
B0712433207328S11657062EA0079900930000000000000
B0712473207300S11656951EA0078900925000000000000
B0712513207272S11656844EA0078900928000000000000
B0712553207250S11656741EA0079500931000000000000
B0712593207221S11656643EA0080300943000000000000
B0713033207198S11656548EA0080400938000000000000
B0713073207180S11656451EA0080000939000000000000
B0713113207165S11656357EA0080400939000000000000
B0713153207156S11656263EA0080300938000000000000
B0713193207144S11656167EA0080000934000000000000
B0713233207134S11656068EA0079400931000000000000
B0713273207130S11655968EA0079300929000000000000
B0713313207129S11655866EA0079000926000000000000
B0713353207129S11655762EA0078500921000000000000
B0713393207141S11655662EA0078100918000000000000
B0713433207160S11655570EA0077900916000000000000
B0713473207185S11655483EA0077600912000000000000
B0713513207213S11655397EA0077200910000000000000
B0713553207251S11655323EA0078200924000000000000
B0713593207245S11655249EA0080400944000000000000
B0714033207186S11655250EA0081300946000000000000
B0714073207181S11655307EA0081500948000000000000
B0714113207230S11655311EA0082700962000000000000
B0714153207260S11655249EA0083600972000000000000
B0714193207228S11655188EA0085400990000000000000
B0714233207178S11655203EA0086400995000000000000
B0714273207178S11655252EA0086701002000000000000
