ACAM4N6
HFDTE220122
HFFXA050
HFPLTPILOT:JOHN WELSH              
HFGTYGLIDERTYPE:HORNET      
HFGIDGLIDERID:VH-GMY      
HFDTM100GPSDATUM:
HFRFWFIRMWAREVERSION:F2.6
HFRHWHARDWAREVERSION:300 Series Version 2
HFFTYFRTYPE:CAMBRIDGE AERO INSTRUMENTS, 302+
HFGPS:GARMIN,LVS-25,12,18000
HFPRSPRESSALTSENSOR:INTERSEMA, MS5534-AP, 20000
I033638FXA3941ENL4247REX
LCAMSBVER:5FWVER:F26300
C220122041741220122000101
C0000000N00000000WTAKEOFF     
C3207529S11656999EBeverley Gld
C3349999S11709999EKojonup     
C3207529S11656999EBeverley Gld
C0000000N00000000WLANDING     
B0420563207342S11656860EA0021500209000000000000
B0420583207342S11656860EA0021500209000000000000
B0421003207342S11656860EA0021500209000000000000
B0421023207342S11656860EA0021500209000000000000
B0421043207342S11656860EA0021500209000000000000
B0421063207342S11656860EA0021500209000000000000
B0421083207342S11656860EA0021400209000000000000
B0421103207342S11656860EA0021500209000000000000
B0421123207342S11656860EA0021500209000000000000
B0421143207342S11656860EA0021500209000000000000
B0421163207342S11656860EA0021500209000000000000
B0421183207342S11656860EA0021500209000000000000
B0421203207342S11656860EA0021500209000000000000
B0421223207342S11656860EA0021500209000000000000
B0421243207346S11656862EA0021600209000000000000
B0421273207356S11656871EA0021500209000000000000
B0421313207385S11656895EA0021500209000000000000
B0421353207428S11656923EA0021700210000000000000
B0421393207482S11656956EA0021600210000000000000
B0421433207542S11656995EA0022000216000000000000
B0421473207605S11657039EA0022500223000000000000
B0421513207671S11657081EA0023000230000000000000
B0421553207733S11657122EA0024100251000000000000
B0421593207793S11657165EA0026000266000000000000
B0422033207852S11657212EA0027200276000000000000
B0422073207910S11657261EA0028100283000000000000
B0422113207970S11657313EA0028700291000000000000
B0422153208030S11657368EA0029400303000000000000
B0422193208083S11657429EA0031500332000000000000
B0422233208129S11657498EA0033900354000000000000
B0422273208162S11657573EA0035800373000000000000
B0422313208187S11657650EA0037200385000000000000
B0422353208210S11657727EA0038400397000000000000
B0422393208230S11657803EA0039700412000000000000
B0422433208242S11657880EA0041100424000000000000
B0422473208244S11657954EA0042200439000000000000
B0422513208247S11658024EA0044400467000000000000
B0422553208257S11658100EA0046400483000000000000
B0422593208283S11658175EA0047300487000000000000
B0423033208329S11658243EA0047600493000000000000
B0423073208382S11658301EA0049000510000000000000
B0423113208448S11658339EA0050800532000000000000
B0423153208524S11658352EA0052600550000000000000
B0423193208602S11658330EA0054000563000000000000
B0423233208671S11658274EA0054800572000000000000
B0423273208716S11658192EA0056100589000000000000
B0423313208737S11658095EA0057600601000000000000
B0423353208740S11657993EA0058800615000000000000
B0423393208717S11657894EA0060900638000000000000
B0423433208669S11657813EA0062300656000000000000
B0423473208604S11657755EA0064000673000000000000
B0423513208534S11657714EA0065800690000000000000
B0423553208463S11657676EA0067100704000000000000
B0423593208391S11657642EA0068400715000000000000
B0424033208317S11657633EA0069400727000000000000
B0424073208251S11657659EA0070500736000000000000
B0424113208199S11657711EA0071800749000000000000
B0424153208158S11657777EA0072800758000000000000
B0424193208129S11657846EA0073700770000000000000
B0424233208106S11657918EA0074700782000000000000
B0424273208096S11657995EA0075700790000000000000
B0424313208096S11658075EA0076300798000000000000
B0424353208123S11658151EA0077800820000000000000
B0424393208175S11658205EA0080100838000000000000
B0424433208233S11658182EA0082100854000000000000
B0424473208238S11658109EA0082300851000000015000
B0424513208194S11658063EA0082100846000000015000
B0424553208139S11658079EA0081000837000000015000
B0424593208101S11658130EA0080500836000000015000
B0425033208114S11658195EA0081200853000000015000
B0425073208165S11658210EA0083100866000000015000
B0425113208201S11658161EA0083500870000000015000
B0425153208184S11658095EA0083400867000000015000
B0425193208129S11658061EA0083300868000000015000
B0425233208077S11658089EA0083800874000000015000
B0425273208091S11658143EA0085000887000000015000
B0425313208144S11658121EA0085700894000000015000
B0425353208145S11658049EA0086200899000000015000
B0425393208092S11658021EA0086300900000000015000
B0425433208049S11658058EA0086300901000000015000
B0425473208064S11658118EA0087000913000000015000
B0425513208118S11658123EA0088000922000000015000
B0425553208153S11658066EA0088700928000000015000
B0425593208129S11658000EA0089300936000000015000
B0426033208073S11657988EA0089900939000000015000
B0426073208036S11658030EA0090300946000000015000
B0426113208054S11658082EA0091400954000000015000
B0426153208108S11658073EA0092200966000000015000
B0426193208135S11658011EA0092700968000000015000
B0426233208114S11657946EA0092900976000000015000
B0426273208064S11657924EA0093900981000000015000
B0426313208027S11657963EA0094200988000000015000
B0426353208047S11658009EA0095400997000000015000
B0426393208099S11658005EA0096201002000000015000
B0426433208135S11657946EA0096601007000000015000
B0426473208116S11657879EA0097201016000000015000
B0426513208060S11657862EA0097701020000000015000
B0426553208019S11657901EA0098101026000000015000
B0426593208038S11657950EA0099401042000000015000
B0427033208088S11657949EA0100701051000000015000
B0427073208118S11657888EA0100801051000000015000
B0427113208092S11657826EA0101201064000000015000
B0427153208043S11657829EA0102201070000000015000
B0427193208035S11657884EA0102801075000000015000
B0427233208078S11657919EA0103501083000000015000
B0427273208135S11657893EA0103901086000000015000
B0427313208160S11657824EA0104501095000000015000
B0427353208134S11657762EA0105001098000000015000
B0427393208078S11657753EA0104901097000000015000
B0427433208043S11657800EA0106001115000000015000
B0427473208065S11657852EA0107401122000000015000
B0427513208119S11657846EA0108101123000000015000
B0427553208143S11657783EA0108201130000000015000
B0427593208105S11657733EA0109101137000000015000
B0428033208057S11657754EA0109601145000000015000
B0428073208086S11657801EA0110201149000000015000
B0428113208136S11657766EA0110701158000000015000
B0428153208125S11657696EA0111101161000000015000
B0428193208070S11657681EA0111601174000000015000
B0428233208045S11657731EA0112901183000000015000
B0428273208083S11657770EA0114201194000000015000
B0428313208132S11657735EA0114701197000000015000
B0428353208123S11657664EA0115001202000000015000
B0428393208066S11657645EA0115101207000000015000
B0428433208030S11657690EA0116501223000000015000
B0428473208060S11657737EA0117601233000000015000
B0428513208114S11657711EA0117701231000000015000
B0428553208116S11657634EA0117701239000000015000
B0428593208060S11657605EA0118601251000000015000
B0429033208022S11657653EA0119701260000000015000
B0429073208054S11657701EA0120901272000000015000
B0429113208108S11657676EA0121901280000000015000
B0429153208121S11657602EA0122001279000000015000
B0429193208082S11657537EA0122301286000000015000
B0429233208026S11657551EA0123401298000000015000
B0429273208041S11657607EA0124601311000000015000
B0429313208097S11657590EA0126001327000000015000
B0429353208106S11657519EA0127101338000000015000
B0429393208060S11657476EA0128001345000000015000
B0429433208013S11657504EA0128601350000000015000
B0429473208028S11657560EA0129501364000000015000
B0429513208083S11657559EA0130901377000000015000
B0429553208114S11657495EA0131401381000000015000
B0429593208087S11657428EA0131801392000000015000
B0430033208032S11657406EA0133101403000000015000
B0430073207991S11657438EA0133901406000000015000
B0430113208000S11657494EA0133901405000000015000
B0430153208054S11657512EA0134801420000000015000
B0430193208106S11657481EA0135901429000000015000
B0430233208121S11657406EA0136101428000000015000
B0430273208077S11657350EA0136401434000000015000
B0430313208022S11657367EA0137101441000000015000
B0430353208014S11657426EA0138101449000000015000
B0430393208064S11657451EA0138801456000000015000
B0430433208112S11657398EA0139401460000000015000
B0430473208099S11657320EA0140101474000000015000
B0430513208044S11657283EA0140901479000000015000
B0430553207992S11657307EA0141701489000000015000
B0430593207979S11657361EA0142401492000000015000
B0431033208018S11657402EA0143001505000000015000
B0431073208077S11657395EA0144001509000000015000
B0431113208118S11657335EA0144101512000000015000
B0431153208103S11657256EA0144201511000000015000
B0431193208040S11657221EA0144101512000000015000
B0431233207978S11657239EA0144601519000000015000
B0431273207944S11657296EA0145101521000000015000
B0431313207962S11657356EA0145801532000000015000
B0431353208018S11657341EA0146601540000000015000
B0431393208027S11657261EA0147001546000000015000
B0431433207974S11657205EA0147401549000000015000
B0431473207910S11657218EA0148101555000000015000
B0431513207896S11657278EA0148401555000000015000
B0431553207939S11657320EA0148401559000000015000
B0431593208000S11657304EA0148901566000000015000
B0432033208032S11657235EA0148901566000000015000
B0432073208006S11657157EA0149401575000000015000
B0432113207945S11657120EA0150301585000000015000
B0432153207889S11657146EA0151101586000000015000
B0432193207885S11657205EA0151101587000000015000
B0432233207932S11657235EA0151701595000000015000
B0432273207986S11657205EA0152701606000000015000
B0432313208006S11657134EA0152901606000000015000
B0432353207965S11657072EA0152701609000000015000
B0432393207900S11657077EA0153001606000000015000
B0432433207872S11657139EA0153001611000000015000
B0432473207905S11657189EA0153801617000000015000
B0432513207963S11657172EA0154601627000000015000
B0432553207995S11657103EA0154701625000000015000
B0432593207962S11657030EA0154801632000000015000
B0433033207896S11657016EA0155101631000000015000
B0433073207849S11657064EA0155301635000000015000
B0433113207861S11657124EA0156001641000000015000
B0433153207914S11657135EA0156501646000000015000
B0433193207963S11657088EA0156701646000000015000
B0433233207967S11657008EA0156501650000000015000
B0433273207935S11656934EA0157101655000000015000
B0433313207871S11656904EA0157701658000000015000
B0433353207817S11656942EA0157101643000000015000
B0433393207815S11657010EA0156601649000000015000
B0433433207858S11657040EA0157801662000000015000
B0433473207911S11657025EA0158001661000000015000
B0433513207943S11656958EA0157701659000000015000
B0433553207918S11656882EA0157701663000000015000
B0433593207856S11656844EA0158101666000000015000
B0434033207806S11656883EA0158401663000000015000
B0434073207827S11656938EA0158001661000000015000
B0434113207883S11656925EA0158201665000000015000
B0434153207901S11656854EA0158501667000000015000
B0434193207859S11656791EA0158701669000000015000
B0434233207794S11656749EA0158401665000000015000
B0434273207724S11656714EA0157701653000000015000
B0434313207650S11656685EA0156701641000000000000
B0434353207576S11656666EA0156001634000000000000
B0434393207503S11656663EA0155301625000000000000
B0434433207433S11656678EA0154401615000000000000
B0434473207376S11656722EA0153401607000000000000
B0434513207354S11656787EA0152501598000000000000
B0434553207371S11656851EA0151401585000000000000
B0434593207417S11656892EA0150001572000000000000
B0435033207476S11656917EA0148401555000000000000
B0435073207542S11656932EA0147101540000000000000
B0435113207612S11656943EA0146101530000000000000
B0435153207685S11656953EA0145401526000000000000
B0435193207758S11656961EA0144901520000000000000
B0435233207831S11656964EA0144201515000000000000
B0435273207905S11656964EA0144001512000000000000
B0435313207979S11656964EA0143801512000000000000
B0435353208052S11656961EA0144101517000000000000
B0435393208122S11656956EA0144401522000000000000
B0435433208190S11656953EA0144901525000000000000
B0435473208257S11656957EA0144901518000000000000
B0435513208327S11656969EA0143201502000000000000
B0435553208398S11656982EA0142601498000000000000
B0435593208465S11656995EA0142301498000000000000
B0436033208530S11657007EA0142001490000000000000
B0436073208598S11657018EA0140601475000000000000
B0436113208668S11657031EA0139501466000000000000
B0436153208741S11657044EA0138801454000000000000
B0436193208814S11657059EA0137501440000000000000
B0436233208892S11657072EA0136201427000000000000
B0436273208970S11657082EA0135301422000000000000
B0436313209046S11657094EA0134801417000000000000
B0436353209123S11657108EA0134301411000000000000
B0436393209201S11657120EA0134301415000000000000
B0436433209279S11657131EA0134601417000000000000
B0436473209356S11657143EA0134701419000000000000
B0436513209434S11657144EA0135101425000000000000
B0436553209508S11657138EA0135301420000000000000
B0436593209581S11657142EA0134601416000000000000
B0437033209650S11657146EA0134601416000000000000
B0437073209716S11657138EA0134201410000000000000
B0437113209782S11657133EA0133501402000000000000
B0437153209850S11657138EA0132601391000000000000
B0437193209917S11657150EA0131901383000000000000
B0437233209985S11657164EA0130901372000000000000
B0437273210054S11657178EA0129801359000000000000
B0437313210124S11657192EA0128501346000000000000
B0437353210196S11657209EA0127501337000000000000
B0437393210266S11657228EA0126701328000000000000
B0437433210337S11657242EA0126201325000000000000
B0437473210409S11657259EA0125801320000000000000
B0437513210482S11657276EA0125101312000000000000
B0437553210554S11657294EA0124101296000000000000
B0437593210631S11657311EA0123001289000000000000
B0438033210706S11657334EA0122601287000000000000
B0438073210779S11657356EA0122101279000000000000
B0438113210852S11657378EA0120701261000000000000
B0438153210927S11657400EA0119301247000000000000
B0438193211004S11657423EA0119101251000000000000
B0438233211076S11657439EA0119701258000000000000
B0438273211147S11657452EA0119601256000000000000
B0438313211216S11657465EA0119901258000000000000
B0438353211285S11657475EA0119901257000000000000
B0438393211353S11657460EA0119901258000000000000
B0438433211410S11657420EA0119901257000000000000
B0438473211464S11657373EA0120001257000000000000
B0438513211529S11657356EA0120301268000000000000
B0438553211558S11657410EA0122001291000000000000
B0438593211511S11657443EA0123701305000000000000
B0439033211460S11657411EA0124801316000000000000
B0439073211450S11657341EA0125801325000000000000
B0439113211486S11657283EA0126601333000000000000
B0439153211545S11657282EA0127801351000000015000
B0439193211572S11657332EA0129301364000000015000
B0439233211545S11657380EA0130301371000000015000
B0439273211489S11657386EA0130901376000000000000
B0439313211444S11657343EA0131701388000000000000
B0439353211440S11657274EA0133001401000000015000
B0439393211481S11657225EA0134501420000000015000
B0439433211531S11657241EA0135701431000000015000
B0439473211536S11657296EA0136601444000000015000
B0439513211498S11657333EA0137901451000000015000
B0439553211444S11657329EA0138301453000000000000
B0439593211403S11657277EA0138301450000000000000
B0440033211395S11657200EA0138701462000000000000
B0440073211437S11657155EA0140601487000000015000
B0440113211477S11657186EA0142401501000000015000
B0440153211458S11657238EA0143501509000000015000
B0440193211403S11657234EA0144601524000000015000
B0440233211372S11657174EA0145701531000000015000
B0440273211392S11657104EA0146901556000000015000
B0440313211445S11657083EA0149401574000000015000
B0440353211475S11657126EA0150201581000000015000
B0440393211444S11657172EA0151501593000000015000
B0440433211388S11657140EA0152501604000000015000
B0440473211386S11657064EA0153801629000000015000
B0440513211432S11657023EA0156101643000000015000
B0440553211476S11657047EA0156701650000000015000
B0440593211475S11657101EA0157201656000000015000
B0441033211431S11657133EA0158301664000000015000
B0441073211372S11657118EA0159201676000000000000
B0441113211337S11657053EA0160601692000000000000
B0441153211358S11656981EA0162301713000000015000
B0441193211411S11656956EA0163601719000000015000
B0441233211451S11656992EA0163701719000000015000
B0441273211449S11657051EA0164001728000000015000
B0441313211411S11657096EA0164801734000000015000
B0441353211353S11657124EA0165201737000000000000
B0441393211286S11657114EA0165601745000000000000
B0441433211238S11657061EA0166901761000000000000
B0441473211229S11656986EA0168001769000000000000
B0441513211265S11656934EA0168901781000000000000
B0441553211321S11656930EA0170301796000000000000
B0441593211355S11656973EA0171201806000000000000
B0442033211353S11657033EA0171701810000000015000
B0442073211316S11657086EA0171801810000000000000
B0442113211256S11657124EA0171801806000000000000
B0442153211187S11657120EA0171201797000000000000
B0442193211150S11657055EA0170301784000000000000
B0442233211193S11656997EA0168701771000000000000
B0442273211259S11656991EA0169001783000000015000
B0442313211323S11657003EA0170101795000000000000
B0442353211389S11657017EA0169801787000000000000
B0442393211459S11657039EA0168401771000000000000
B0442433211529S11657079EA0167701764000000000000
B0442473211592S11657134EA0166801752000000000000
B0442513211658S11657194EA0165101729000000000000
B0442553211736S11657248EA0162801711000000000000
B0442593211819S11657294EA0162001705000000000000
B0443033211905S11657332EA0161101696000000000000
B0443073211991S11657364EA0160501690000000000000
B0443113212075S11657395EA0160201688000000000000
B0443153212160S11657424EA0159701680000000000000
B0443193212244S11657451EA0158801672000000000000
B0443233212330S11657477EA0158401664000000000000
B0443273212417S11657501EA0157501657000000000000
B0443313212503S11657519EA0157401660000000000000
B0443353212586S11657537EA0158001670000000000000
B0443393212660S11657562EA0159501686000000000000
B0443433212725S11657598EA0160501694000000000000
B0443473212788S11657637EA0160501690000000000000
B0443513212855S11657671EA0159701680000000000000
B0443553212935S11657689EA0158601670000000000000
B0443593213017S11657699EA0158701677000000000000
B0444033213089S11657719EA0160001692000000000000
B0444073213150S11657751EA0161501710000000000000
B0444113213205S11657784EA0162701718000000000000
B0444153213260S11657816EA0162901719000000000000
B0444193213314S11657852EA0163001720000000000000
B0444233213368S11657887EA0163301724000000000000
B0444273213421S11657920EA0163301723000000000000
B0444313213479S11657957EA0162601711000000000000
B0444353213544S11658000EA0161501700000000000000
B0444393213609S11658049EA0160601693000000000000
B0444433213676S11658101EA0160201685000000000000
B0444473213758S11658127EA0158601667000000000000
B0444513213846S11658134EA0156901652000000000000
B0444553213936S11658135EA0155801638000000000000
B0444593214023S11658139EA0154601627000000000000
B0445033214103S11658143EA0154101620000000000000
B0445073214181S11658148EA0153401612000000000000
B0445113214261S11658153EA0152401599000000000000
B0445153214341S11658160EA0151001584000000000000
B0445193214423S11658170EA0149501571000000000000
B0445233214505S11658178EA0148401560000000000000
B0445273214588S11658186EA0147101545000000000000
B0445313214675S11658196EA0145801531000000000000
B0445353214764S11658208EA0144401515000000000000
B0445393214855S11658221EA0143501508000000000000
B0445433214946S11658231EA0143301508000000000000
B0445473215035S11658238EA0143001503000000000000
B0445513215125S11658249EA0142801502000000000000
B0445553215203S11658283EA0143201509000000000000
B0445593215273S11658331EA0143401509000000000000
B0446033215341S11658378EA0143201505000000000000
B0446073215409S11658422EA0142601500000000000000
B0446113215475S11658465EA0142101494000000000000
B0446153215540S11658511EA0141801490000000000000
B0446193215598S11658567EA0141401487000000000000
B0446233215658S11658620EA0141101487000000000000
B0446273215715S11658673EA0141001486000000000000
B0446313215774S11658726EA0140801479000000000000
B0446353215836S11658775EA0140101473000000000000
B0446393215901S11658821EA0139401465000000000000
B0446433215969S11658863EA0139001461000000000000
B0446473216039S11658898EA0138401457000000000000
B0446513216111S11658927EA0138101450000000000000
B0446553216185S11658950EA0137301444000000000000
B0446593216260S11658970EA0137101445000000000000
B0447033216338S11658980EA0137201447000000000000
B0447073216416S11658989EA0137101443000000000000
B0447113216495S11659003EA0135901420000000000000
B0447153216575S11659023EA0134101408000000000000
B0447193216655S11659040EA0133901409000000000000
B0447233216736S11659054EA0134001413000000000000
B0447273216816S11659066EA0134701418000000000000
B0447313216896S11659068EA0134801421000000000000
B0447353216974S11659063EA0135101424000000000000
B0447393217047S11659077EA0136001439000000000000
B0447433217109S11659106EA0136701435000000000000
B0447473217171S11659136EA0136901444000000000000
B0447513217226S11659163EA0138301461000000000000
B0447553217283S11659145EA0139301467000000000000
B0447593217297S11659064EA0140001473000000000000
B0448033217245S11659001EA0139801466000000000000
B0448073217178S11659007EA0139801471000000000000
B0448113217147S11659063EA0140301473000000000000
B0448153217165S11659123EA0140301476000000000000
B0448193217210S11659163EA0141001487000000000000
B0448233217264S11659142EA0142601504000000015000
B0448273217265S11659066EA0143501505000000015000
B0448313217203S11659032EA0143901514000000015000
B0448353217154S11659067EA0144401517000000015000
B0448393217154S11659127EA0144701519000000015000
B0448433217192S11659170EA0145401531000000015000
B0448473217251S11659175EA0146101539000000015000
B0448513217304S11659126EA0146701544000000015000
B0448553217310S11659044EA0147101547000000015000
B0448593217258S11658993EA0147001542000000015000
B0449033217196S11659016EA0146601540000000015000
B0449073217178S11659083EA0146901550000000015000
B0449113217191S11659146EA0148501564000000000000
B0449153217243S11659163EA0149901577000000015000
B0449193217296S11659120EA0150201578000000015000
B0449233217314S11659045EA0150501581000000015000
B0449273217282S11658977EA0150201572000000015000
B0449313217218S11658958EA0149201567000000015000
B0449353217164S11658996EA0149401574000000015000
B0449393217144S11659058EA0150701592000000015000
B0449433217184S11659084EA0152101600000000015000
B0449473217226S11659029EA0152101600000000015000
B0449513217205S11658954EA0152701613000000015000
B0449553217147S11658942EA0153801620000000015000
B0449593217123S11658992EA0154701628000000015000
B0450033217157S11659029EA0155401634000000015000
B0450073217212S11659014EA0155401632000000015000
B0450113217269S11658972EA0155301632000000000000
B0450153217330S11658937EA0155301629000000000000
B0450193217398S11658915EA0154101617000000000000
B0450233217470S11658906EA0153501613000000000000
B0450273217548S11658902EA0153501616000000000000
B0450313217630S11658899EA0153401614000000000000
B0450353217711S11658903EA0153701621000000000000
B0450393217791S11658911EA0154101624000000000000
B0450433217872S11658919EA0153401616000000000000
B0450473217951S11658929EA0153101614000000000000
B0450513218028S11658942EA0153001614000000000000
B0450553218105S11658957EA0152501607000000000000
B0450593218180S11658972EA0152001600000000000000
B0451033218257S11658986EA0151401595000000000000
B0451073218334S11659001EA0150701586000000000000
B0451113218412S11659015EA0149901579000000000000
B0451153218490S11659028EA0149601576000000000000
B0451193218568S11659040EA0149201574000000000000
B0451233218646S11659050EA0149001571000000000000
B0451273218725S11659062EA0148701566000000000000
B0451313218803S11659072EA0148101557000000000000
B0451353218881S11659083EA0147401551000000000000
B0451393218960S11659094EA0146401539000000000000
B0451433219038S11659107EA0145501533000000000000
B0451473219115S11659122EA0145101528000000000000
B0451513219190S11659139EA0144901524000000000000
B0451553219262S11659163EA0145601540000000000000
B0451593219315S11659206EA0147301556000000000000
B0452033219335S11659270EA0148301564000000000000
B0452073219350S11659337EA0148101558000000000000
B0452113219394S11659383EA0147801560000000000000
B0452153219452S11659362EA0148301561000000000000
B0452193219476S11659292EA0148001554000000000000
B0452233219440S11659218EA0147101543000000000000
B0452273219379S11659159EA0146401539000000000000
B0452313219311S11659113EA0146701544000000000000
B0452353219241S11659118EA0147201549000000000000
B0452393219220S11659183EA0148201560000000000000
B0452433219276S11659213EA0148001553000000000000
B0452473219348S11659215EA0147301553000000000000
B0452513219419S11659214EA0148101559000000000000
B0452553219465S11659161EA0149001568000000000000
B0452593219424S11659097EA0149201564000000000000
B0453033219362S11659123EA0148701561000000000000
B0453073219357S11659189EA0148901566000000000000
B0453113219384S11659250EA0148901564000000000000
B0453153219432S11659293EA0148001554000000000000
B0453193219492S11659319EA0147301547000000000000
B0453233219557S11659343EA0146501535000000000000
B0453273219626S11659363EA0145001516000000000000
B0453313219699S11659386EA0144001514000000000000
B0453353219769S11659406EA0144301517000000000000
B0453393219839S11659427EA0143801510000000000000
B0453433219905S11659447EA0143701511000000000000
B0453473219970S11659465EA0143201504000000000000
B0453513220038S11659482EA0142601494000000000000
B0453553220108S11659499EA0141601487000000000000
B0453593220178S11659516EA0140901478000000000000
B0454033220248S11659536EA0139601462000000000000
B0454073220320S11659557EA0138201449000000000000
B0454113220389S11659578EA0137301443000000000000
B0454153220456S11659597EA0136301429000000000000
B0454193220525S11659616EA0134801414000000000000
B0454233220596S11659635EA0133601400000000000000
B0454273220667S11659652EA0132801391000000000000
B0454313220740S11659664EA0131901383000000000000
B0454353220815S11659668EA0131301378000000000000
B0454393220889S11659664EA0131301380000000000000
B0454433220954S11659633EA0131901385000000000000
B0454473221001S11659574EA0131601377000000000000
B0454513221052S11659512EA0130101359000000000000
B0454553221119S11659469EA0128601343000000000000
B0454593221195S11659454EA0126801325000000000000
B0455033221273S11659465EA0125701315000000000000
B0455073221347S11659491EA0125201311000000000000
B0455113221420S11659521EA0124601306000000000000
B0455153221490S11659545EA0124801312000000000000
B0455193221559S11659570EA0125301316000000000000
B0455233221628S11659590EA0125601318000000000000
B0455273221695S11659573EA0125701320000000000000
B0455313221714S11659501EA0126301322000000000000
B0455353221662S11659469EA0125301305000000000000
B0455393221630S11659525EA0124501302000000000000
B0455433221645S11659592EA0124101293000000000000
B0455473221675S11659657EA0122801279000000000000
B0455513221711S11659726EA0121901274000000000000
B0455553221758S11659786EA0121701277000000000000
B0455593221810S11659841EA0122301284000000000000
B0456033221858S11659893EA0123301295000000000000
B0456073221915S11659878EA0124601306000000000000
B0456113221914S11659800EA0124501300000000000000
B0456153221847S11659774EA0123601295000000000000
B0456193221801S11659820EA0123701300000000000000
B0456233221799S11659885EA0124201301000000000000
B0456273221815S11659951EA0123601297000000000000
B0456313221841S11700015EA0123701300000000000000
B0456353221875S11700076EA0123401295000000000000
B0456393221919S11700129EA0122301282000000000000
B0456433221976S11700171EA0121501273000000000000
B0456473222037S11700207EA0121301273000000000000
B0456513222097S11700245EA0121601278000000000000
B0456553222145S11700292EA0122301287000000000000
B0456593222179S11700348EA0122801290000000000000
B0457033222215S11700405EA0122401283000000000000
B0457073222248S11700470EA0121901280000000000000
B0457113222279S11700533EA0121901278000000000000
B0457153222312S11700595EA0121301270000000000000
B0457193222364S11700635EA0121101269000000000000
B0457233222427S11700650EA0120401260000000000000
B0457273222494S11700647EA0119501252000000000000
B0457313222561S11700639EA0118801245000000000000
B0457353222631S11700631EA0117701233000000000000
B0457393222703S11700624EA0116601216000000000000
B0457433222778S11700619EA0114901199000000000000
B0457473222855S11700615EA0113501184000000000000
B0457513222930S11700613EA0112501175000000000000
B0457553223006S11700610EA0111301163000000000000
B0457593223082S11700608EA0110101150000000000000
B0458033223160S11700606EA0109201143000000000000
B0458073223237S11700605EA0108801140000000000000
B0458113223314S11700609EA0108201132000000000000
B0458153223389S11700618EA0107801129000000000000
B0458193223465S11700621EA0107501126000000000000
B0458233223535S11700613EA0107901132000000000000
B0458273223599S11700584EA0108001134000000000000
B0458313223648S11700524EA0108101132000000000000
B0458353223661S11700441EA0108501141000000000000
B0458393223618S11700377EA0108901138000000000000
B0458433223556S11700387EA0108401131000000000000
B0458473223534S11700449EA0108101129000000000000
B0458513223554S11700514EA0107901128000000000000
B0458553223584S11700575EA0107501121000000000000
B0458593223618S11700635EA0107301120000000000000
B0459033223651S11700696EA0106801114000000000000
B0459073223684S11700756EA0106701116000000000000
B0459113223721S11700814EA0107001120000000000000
B0459153223762S11700866EA0107701128000000000000
B0459193223820S11700864EA0109001141000000000000
B0459233223844S11700795EA0109801148000000000000
B0459273223800S11700735EA0110401152000000015000
B0459313223738S11700753EA0110401151000000000000
B0459353223725S11700823EA0110201151000000015000
B0459393223773S11700861EA0110901162000000015000
B0459433223825S11700825EA0112101176000000015000
B0459473223826S11700747EA0113301185000000015000
B0459513223764S11700710EA0113801190000000015000
B0459553223717S11700756EA0114301192000000015000
B0459593223736S11700817EA0114801201000000015000
B0500033223792S11700812EA0115701210000000015000
B0500073223816S11700741EA0116301220000000015000
B0500113223771S11700683EA0117201232000000015000
B0500153223718S11700709EA0118701245000000015000
B0500193223725S11700767EA0119501248000000015000
B0500233223778S11700778EA0119801253000000015000
B0500273223810S11700717EA0120301258000000015000
B0500313223783S11700641EA0120801264000000015000
B0500353223718S11700626EA0121601273000000015000
B0500393223699S11700682EA0122401279000000015000
B0500433223745S11700712EA0122501283000000015000
B0500473223800S11700680EA0123301291000000015000
B0500513223825S11700611EA0123801295000000015000
B0500553223807S11700533EA0123901296000000015000
B0500593223748S11700496EA0123901295000000015000
B0501033223693S11700532EA0123801296000000015000
B0501073223690S11700602EA0124201299000000015000
B0501113223742S11700631EA0125001313000000015000
B0501153223787S11700580EA0126001321000000015000
B0501193223779S11700498EA0126501323000000015000
B0501233223722S11700452EA0126601325000000015000
B0501273223660S11700474EA0126501323000000015000
B0501313223638S11700541EA0127101334000000015000
B0501353223667S11700600EA0128301344000000015000
B0501393223721S11700585EA0129301358000000015000
B0501433223732S11700515EA0130101359000000015000
B0501473223684S11700458EA0129901359000000015000
B0501513223619S11700470EA0130201364000000015000
B0501553223610S11700536EA0130901373000000015000
B0501593223654S11700571EA0132101388000000015000
B0502033223705S11700543EA0133001392000000015000
B0502073223722S11700470EA0132701388000000015000
B0502113223687S11700397EA0133001397000000015000
B0502153223625S11700372EA0134001406000000015000
B0502193223574S11700407EA0134501411000000015000
B0502233223562S11700471EA0134801413000000015000
B0502273223591S11700524EA0135201419000000015000
B0502313223645S11700515EA0136301431000000015000
B0502353223653S11700445EA0136901432000000015000
B0502393223599S11700402EA0136801435000000015000
B0502433223544S11700433EA0137201438000000015000
B0502473223535S11700502EA0137101437000000015000
B0502513223571S11700557EA0137601445000000015000
B0502553223630S11700563EA0137801442000000015000
B0502593223678S11700515EA0137301438000000015000
B0503033223690S11700437EA0137101437000000015000
B0503073223684S11700357EA0137001436000000000000
B0503113223647S11700285EA0136901438000000000000
B0503153223582S11700257EA0137101442000000000000
B0503193223530S11700299EA0137901448000000000000
B0503233223556S11700354EA0138901461000000015000
B0503273223605S11700320EA0139501464000000015000
B0503313223606S11700246EA0139401460000000015000
B0503353223552S11700198EA0138901453000000015000
B0503393223484S11700212EA0138401451000000015000
B0503433223445S11700276EA0138601450000000015000
B0503473223461S11700348EA0138201447000000015000
B0503513223510S11700398EA0137901444000000000000
B0503553223574S11700431EA0137401437000000000000
B0503593223645S11700446EA0136201420000000000000
B0504033223723S11700459EA0134801408000000000000
B0504073223803S11700474EA0134001401000000000000
B0504113223883S11700491EA0133101391000000000000
B0504153223963S11700511EA0132401386000000000000
B0504193224042S11700535EA0131401373000000000000
B0504233224121S11700561EA0130401363000000000000
B0504273224202S11700589EA0129201351000000000000
B0504313224281S11700617EA0129101352000000000000
B0504353224358S11700640EA0128901350000000000000
B0504393224437S11700662EA0128401343000000000000
B0504433224518S11700683EA0127801337000000000000
B0504473224600S11700705EA0127101329000000000000
B0504513224675S11700734EA0127001326000000000000
B0504553224735S11700787EA0126401322000000000000
B0504593224795S11700839EA0125401311000000000000
B0505033224858S11700884EA0124601304000000000000
B0505073224927S11700916EA0124201299000000000000
B0505113224995S11700943EA0123901298000000000000
B0505153225060S11700973EA0124201303000000000000
B0505193225114S11701016EA0124901310000000000000
B0505233225162S11701063EA0125501319000000000000
B0505273225207S11701112EA0126301323000000000000
B0505313225248S11701167EA0126301322000000000000
B0505353225285S11701229EA0126201322000000000000
B0505393225318S11701295EA0126501328000000000000
B0505433225355S11701355EA0127801340000000000000
B0505473225411S11701341EA0128201345000000000000
B0505513225413S11701263EA0127901337000000000000
B0505553225357S11701211EA0128001343000000000000
B0505593225290S11701219EA0128201344000000015000
B0506033225246S11701273EA0128501351000000015000
B0506073225247S11701339EA0129801366000000015000
B0506113225302S11701328EA0131201380000000015000
B0506153225312S11701251EA0131401373000000030000
B0506193225252S11701202EA0131201377000000015000
B0506233225198S11701242EA0132101389000000015000
B0506273225208S11701307EA0133201396000000015000
B0506313225263S11701308EA0134201413000000015000
B0506353225278S11701238EA0135101416000000015000
B0506393225229S11701186EA0135001418000000015000
B0506433225174S11701217EA0135901429000000015000
B0506473225173S11701276EA0136801432000000015000
B0506513225220S11701302EA0136701434000000015000
B0506553225259S11701246EA0137201437000000015000
B0506593225231S11701172EA0137501444000000015000
B0507033225173S11701172EA0138501455000000015000
B0507073225170S11701232EA0139301458000000015000
B0507113225224S11701241EA0139301459000000015000
B0507153225242S11701167EA0139501468000000015000
B0507193225190S11701120EA0140801482000000015000
B0507233225139S11701152EA0141401481000000015000
B0507273225152S11701213EA0141201481000000015000
B0507313225207S11701225EA0141501488000000015000
B0507353225246S11701170EA0142301494000000015000
B0507393225237S11701091EA0142401496000000015000
B0507433225191S11701035EA0143601509000000015000
B0507473225138S11701057EA0144501514000000015000
B0507513225151S11701113EA0144801517000000015000
B0507553225205S11701115EA0145101523000000015000
B0507593225239S11701052EA0145801532000000030000
B0508033225213S11700982EA0146401539000000030000
B0508073225155S11700972EA0147401552000000015000
B0508113225129S11701018EA0148601558000000015000
B0508153225151S11701072EA0148201554000000015000
B0508193225205S11701091EA0148301564000000015000
B0508233225255S11701055EA0149301572000000015000
B0508273225276S11700983EA0149501567000000015000
B0508313225259S11700905EA0148901565000000015000
B0508353225220S11700840EA0149701575000000015000
B0508393225162S11700848EA0150301581000000015000
B0508433225151S11700908EA0150901588000000015000
B0508473225192S11700949EA0151701596000000015000
B0508513225251S11700933EA0152101600000000015000
B0508553225279S11700862EA0152501600000000015000
B0508593225257S11700786EA0152701607000000030000
B0509033225201S11700762EA0153601610000000015000
B0509073225166S11700810EA0153701610000000015000
B0509113225191S11700869EA0154101617000000015000
B0509153225248S11700862EA0155301631000000015000
B0509193225261S11700788EA0155901635000000015000
B0509233225213S11700740EA0156201639000000015000
B0509273225161S11700761EA0156501643000000015000
B0509313225156S11700825EA0156701642000000015000
B0509353225187S11700888EA0156601644000000015000
B0509393225225S11700951EA0156701646000000015000
B0509433225265S11701017EA0156101630000000000000
B0509473225299S11701094EA0154401611000000000000
B0509513225343S11701169EA0153001601000000000000
B0509553225403S11701229EA0152001590000000000000
B0509593225472S11701276EA0150801577000000000000
B0510033225549S11701310EA0149301561000000000000
B0510073225629S11701338EA0148801559000000000000
B0510113225707S11701365EA0148601557000000000000
B0510153225786S11701391EA0148201555000000000000
B0510193225864S11701415EA0148601560000000000000
B0510233225941S11701434EA0148601559000000000000
B0510273226014S11701456EA0148301555000000000000
B0510313226084S11701488EA0147301539000000000000
B0510353226160S11701514EA0145701523000000000000
B0510393226239S11701540EA0144601513000000000000
B0510433226319S11701564EA0144601515000000000000
B0510473226401S11701588EA0144301508000000000000
B0510513226486S11701606EA0143001496000000000000
B0510553226570S11701622EA0141901483000000000000
B0510593226654S11701644EA0141001478000000000000
B0511033226734S11701666EA0141101481000000000000
B0511073226811S11701688EA0141001478000000000000
B0511113226889S11701711EA0141001480000000000000
B0511153226959S11701748EA0141701493000000000000
B0511193227002S11701811EA0142901503000000000000
B0511233227015S11701888EA0144201521000000000000
B0511273227007S11701963EA0145501528000000000000
B0511313227031S11702026EA0145801530000000000000
B0511353227086S11702006EA0146001529000000000000
B0511393227093S11701931EA0145601523000000000000
B0511433227062S11701854EA0145601531000000000000
B0511473227028S11701779EA0146701544000000000000
B0511513226969S11701748EA0147701551000000000000
B0511553226934S11701792EA0148801562000000000000
B0511593226966S11701835EA0148901560000000000000
B0512033227023S11701820EA0149401570000000015000
B0512073227041S11701750EA0150301578000000015000
B0512113227006S11701689EA0150601572000000015000
B0512153226946S11701690EA0149701562000000015000
B0512193226914S11701749EA0149101563000000015000
B0512233226904S11701815EA0149701573000000015000
B0512273226927S11701875EA0150901585000000000000
B0512313226962S11701926EA0151401589000000000000
B0512353226999S11701979EA0150801577000000000000
B0512393227042S11702034EA0149401562000000000000
B0512433227099S11702075EA0148201551000000000000
B0512473227168S11702096EA0147601546000000000000
B0512513227241S11702106EA0146801538000000000000
B0512553227315S11702114EA0146801538000000000000
B0512593227391S11702123EA0146401533000000000000
B0513033227471S11702134EA0146201536000000000000
B0513073227549S11702152EA0147401554000000000000
B0513113227584S11702207EA0150301588000000000000
B0513153227551S11702252EA0151701581000000000000
B0513193227487S11702223EA0150701581000000000000
B0513233227447S11702152EA0151701596000000000000
B0513273227398S11702095EA0153101608000000000000
B0513313227346S11702122EA0154601624000000000000
B0513353227354S11702178EA0155401629000000000000
B0513393227404S11702186EA0156101639000000015000
B0513433227437S11702125EA0157401650000000015000
B0513473227409S11702053EA0158601664000000015000
B0513513227353S11702060EA0159901676000000015000
B0513553227339S11702116EA0159901674000000015000
B0513593227385S11702148EA0159801676000000015000
B0514033227443S11702116EA0160701697000000015000
B0514073227430S11702039EA0162701713000000015000
B0514113227370S11702032EA0164301731000000015000
B0514153227339S11702084EA0165701739000000015000
B0514193227358S11702144EA0165901744000000015000
B0514233227414S11702166EA0166801759000000015000
B0514273227465S11702126EA0168401774000000015000
B0514313227471S11702047EA0168801771000000015000
B0514353227421S11701983EA0169201783000000015000
B0514393227367S11702013EA0171001803000000015000
B0514433227383S11702070EA0172701822000000015000
B0514473227432S11702057EA0174401838000000015000
B0514513227447S11701984EA0175301844000000015000
B0514553227405S11701926EA0176601862000000015000
B0514593227353S11701947EA0177901870000000015000
B0515033227353S11702009EA0178101871000000015000
B0515073227410S11702025EA0178701884000000015000
B0515113227458S11701970EA0179701890000000015000
B0515153227458S11701888EA0179901895000000015000
B0515193227414S11701824EA0181001910000000015000
B0515233227352S11701817EA0181901910000000015000
B0515273227313S11701869EA0181201902000000015000
B0515313227322S11701937EA0181501913000000015000
B0515353227370S11701966EA0182901928000000015000
B0515393227410S11701910EA0184201938000000015000
B0515433227379S11701837EA0184501941000000015000
B0515473227317S11701841EA0185901957000000015000
B0515513227307S11701898EA0186801962000000015000
B0515553227359S11701918EA0187401974000000015000
B0515593227401S11701869EA0188601987000000015000
B0516033227397S11701796EA0189101989000000015000
B0516073227345S11701754EA0189701996000000015000
B0516113227292S11701776EA0190101999000000015000
B0516153227291S11701830EA0191002011000000015000
B0516193227337S11701843EA0191602014000000015000
B0516233227372S11701789EA0192602025000000015000
B0516273227344S11701716EA0193302029000000015000
B0516313227280S11701718EA0193702034000000015000
B0516353227263S11701778EA0194202047000000015000
B0516393227294S11701818EA0195402055000000015000
B0516433227350S11701802EA0196102064000000015000
B0516473227388S11701745EA0196702066000000015000
B0516513227382S11701671EA0196502066000000015000
B0516553227335S11701616EA0197002074000000015000
B0516593227278S11701624EA0197302074000000015000
B0517033227263S11701681EA0197502074000000015000
B0517073227305S11701723EA0197202071000000015000
B0517113227371S11701739EA0196202060000000015000
B0517153227448S11701752EA0194402038000000000000
B0517193227530S11701763EA0192602023000000000000
B0517233227614S11701775EA0191402008000000000000
B0517273227699S11701787EA0190402001000000000000
B0517313227782S11701793EA0191402021000000000000
B0517353227861S11701796EA0192202027000000000000
B0517393227939S11701798EA0192202022000000000000
B0517433228017S11701813EA0192102024000000000000
B0517473228081S11701846EA0193102038000000000000
B0517513228124S11701900EA0194202048000000000000
B0517553228146S11701963EA0195602066000000000000
B0517593228169S11702023EA0197102076000000000000
B0518033228225S11702034EA0197802086000000000000
B0518073228253S11701969EA0198902099000000000000
B0518113228215S11701901EA0199302098000000015000
B0518153228150S11701900EA0199802107000000015000
B0518193228113S11701953EA0201002121000000015000
B0518233228119S11702014EA0202202131000000015000
B0518273228172S11702022EA0203002137000000015000
B0518313228195S11701953EA0203602146000000015000
B0518353228147S11701895EA0204202150000000015000
B0518393228082S11701909EA0205302166000000015000
B0518433228052S11701967EA0206602177000000015000
B0518473228072S11702023EA0207702191000000015000
B0518513228124S11702032EA0209102204000000015000
B0518553228165S11701986EA0210202216000000015000
B0518593228160S11701911EA0211102224000000015000
B0519033228103S11701866EA0211502231000000015000
B0519073228043S11701892EA0212202239000000015000
B0519113228041S11701956EA0213402257000000015000
B0519153228087S11701979EA0214702268000000015000
B0519193228130S11701935EA0215802277000000015000
B0519233228120S11701857EA0216502282000000015000
B0519273228054S11701818EA0216702286000000015000
B0519313227995S11701854EA0217902299000000015000
B0519353227993S11701919EA0219202311000000015000
B0519393228039S11701950EA0219902321000000015000
B0519433228082S11701908EA0221302338000000015000
B0519473228068S11701837EA0222502345000000015000
B0519513228004S11701806EA0222402338000000015000
B0519553227947S11701848EA0222502350000000015000
B0519593227939S11701915EA0223602357000000015000
B0520033227982S11701954EA0224202368000000015000
B0520073228028S11701918EA0225402378000000015000
B0520113228019S11701843EA0226002383000000015000
B0520153227959S11701800EA0226702388000000015000
B0520193227891S11701815EA0227202393000000015000
B0520233227855S11701876EA0227902404000000015000
B0520273227876S11701932EA0228702410000000015000
B0520313227931S11701931EA0229502421000000015000
B0520353227947S11701859EA0230702433000000015000
B0520393227898S11701805EA0231602445000000015000
B0520433227827S11701822EA0232202444000000015000
B0520473227811S11701892EA0232602452000000015000
B0520513227855S11701930EA0233402459000000015000
B0520553227905S11701897EA0234102471000000015000
B0520593227920S11701826EA0235102479000000015000
B0521033227886S11701755EA0235502481000000015000
B0521073227817S11701723EA0236102487000000015000
B0521113227746S11701729EA0236502494000000015000
B0521153227707S11701779EA0237802507000000015000
B0521193227716S11701837EA0238102503000000015000
B0521233227768S11701858EA0237302503000000015000
B0521273227826S11701854EA0237602509000000000000
B0521313227883S11701835EA0238102512000000000000
B0521353227942S11701814EA0237902507000000000000
B0521393228006S11701802EA0236902494000000000000
B0521433228073S11701802EA0235702482000000000000
B0521473228143S11701809EA0234602472000000000000
B0521513228216S11701818EA0233502459000000000000
B0521553228293S11701827EA0232202445000000000000
B0521593228372S11701839EA0231502439000000000000
B0522033228453S11701848EA0231102437000000000000
B0522073228528S11701856EA0231902452000000000000
B0522113228589S11701857EA0233802472000000000000
B0522153228648S11701854EA0234202465000000000000
B0522193228713S11701854EA0233102448000000000000
B0522233228787S11701856EA0231602439000000000000
B0522273228861S11701854EA0231402440000000000000
B0522313228934S11701850EA0231202438000000000000
B0522353229005S11701850EA0230402427000000000000
B0522393229081S11701861EA0228902410000000000000
B0522433229159S11701879EA0228102400000000000000
B0522473229239S11701900EA0227002389000000000000
B0522513229321S11701923EA0225802376000000000000
B0522553229404S11701947EA0225202375000000000000
B0522593229485S11701969EA0225002372000000000000
B0523033229566S11701989EA0224902374000000000000
B0523073229645S11702008EA0224702371000000000000
B0523113229720S11702028EA0224802370000000000000
B0523153229794S11702052EA0224202364000000000000
B0523193229868S11702075EA0223702355000000000000
B0523233229943S11702099EA0223002350000000000000
B0523273230014S11702121EA0222902351000000000000
B0523313230083S11702136EA0222902353000000000000
B0523353230147S11702149EA0223802363000000000000
B0523393230210S11702162EA0223802356000000000000
B0523433230275S11702175EA0222902349000000000000
B0523473230338S11702195EA0222402343000000000000
B0523513230401S11702218EA0221202330000000000000
B0523553230470S11702231EA0220402325000000000000
B0523593230538S11702238EA0220402324000000000000
B0524033230607S11702248EA0219602309000000000000
B0524073230680S11702257EA0218102294000000000000
B0524113230756S11702268EA0216602281000000000000
B0524153230834S11702278EA0215802272000000000000
B0524193230914S11702290EA0214602259000000000000
B0524233230994S11702303EA0214402263000000000000
B0524273231072S11702311EA0214802266000000000000
B0524313231148S11702314EA0214702266000000000000
B0524353231218S11702330EA0214902265000000000000
B0524393231269S11702377EA0214902265000000000000
B0524433231309S11702438EA0214302254000000000000
B0524473231361S11702489EA0212902238000000000000
B0524513231427S11702512EA0211902230000000000000
B0524553231497S11702516EA0211602229000000000000
B0524593231564S11702513EA0211302224000000000000
B0525033231633S11702512EA0210502215000000000000
B0525073231704S11702509EA0209202199000000000000
B0525113231779S11702507EA0207602186000000000000
B0525153231856S11702502EA0206902174000000000000
B0525193231933S11702494EA0205702162000000000000
B0525233232006S11702485EA0206102179000000000000
B0525273232072S11702477EA0206602171000000000000
B0525313232141S11702470EA0205302156000000000000
B0525353232218S11702465EA0203502136000000000000
B0525393232299S11702465EA0202002123000000000000
B0525433232385S11702465EA0200802114000000000000
B0525473232467S11702467EA0202202138000000000000
B0525513232544S11702469EA0203102140000000000000
B0525553232622S11702473EA0202302127000000000000
B0525593232702S11702478EA0200902109000000000000
B0526033232788S11702478EA0199502096000000000000
B0526073232877S11702474EA0198402088000000000000
B0526113232966S11702470EA0198502092000000000000
B0526153233051S11702467EA0199502107000000000000
B0526193233118S11702422EA0201402129000000000000
B0526233233152S11702343EA0203002140000000000000
B0526273233129S11702259EA0203502144000000000000
B0526313233064S11702217EA0203902152000000015000
B0526353233016S11702259EA0204802158000000015000
B0526393233035S11702320EA0205302163000000015000
B0526433233094S11702325EA0205702170000000015000
B0526473233142S11702275EA0206302172000000015000
B0526513233154S11702195EA0206202171000000015000
B0526553233130S11702112EA0206102172000000015000
B0526593233095S11702030EA0206802186000000015000
B0527033233039S11701979EA0207902192000000000000
B0527073232992S11702022EA0207902191000000015000
B0527113233014S11702083EA0208402202000000015000
B0527153233066S11702121EA0209802215000000015000
B0527193233126S11702119EA0211102223000000000000
B0527233233164S11702053EA0211602229000000015000
B0527273233134S11701984EA0212402244000000015000
B0527313233077S11701983EA0213602257000000015000
B0527353233064S11702038EA0215002272000000015000
B0527393233111S11702067EA0215802275000000015000
B0527433233169S11702031EA0215902278000000015000
B0527473233189S11701950EA0216402284000000015000
B0527513233159S11701878EA0217102291000000015000
B0527553233105S11701836EA0217402288000000015000
B0527593233044S11701852EA0216802285000000015000
B0528033233009S11701906EA0217502295000000015000
B0528073233008S11701967EA0218902315000000000000
B0528113233063S11701965EA0220102326000000015000
B0528153233073S11701885EA0221302337000000015000
B0528193233016S11701845EA0222102345000000015000
B0528233232975S11701889EA0223702366000000015000
B0528273232996S11701940EA0225602378000000015000
B0528313233052S11701941EA0226302382000000015000
B0528353233096S11701880EA0226802393000000015000
B0528393233086S11701801EA0228102406000000015000
B0528433233034S11701753EA0228602407000000015000
B0528473232974S11701766EA0229702423000000015000
B0528513232961S11701820EA0231102437000000015000
B0528553233005S11701848EA0232302447000000015000
B0528593233055S11701804EA0232902456000000015000
B0529033233056S11701719EA0233502459000000015000
B0529073233005S11701657EA0233802462000000015000
B0529113232938S11701654EA0234502474000000015000
B0529153232890S11701696EA0235802486000000015000
B0529193232905S11701753EA0237002501000000015000
B0529233232962S11701739EA0237902508000000015000
B0529273232983S11701661EA0238602516000000015000
B0529313232949S11701583EA0239302521000000015000
B0529353232883S11701562EA0240102532000000015000
B0529393232839S11701606EA0240702535000000015000
B0529433232840S11701670EA0241202544000000015000
B0529473232881S11701711EA0242102553000000015000
B0529513232940S11701697EA0242502558000000015000
B0529553232973S11701629EA0243002565000000015000
B0529593232961S11701547EA0243302565000000015000
B0530033232904S11701494EA0242902561000000015000
B0530073232838S11701506EA0243002566000000015000
B0530113232800S11701558EA0243902574000000015000
B0530153232793S11701620EA0244302578000000015000
B0530193232803S11701684EA0244902586000000000000
B0530233232840S11701733EA0245402589000000000000
B0530273232904S11701716EA0245702593000000000000
B0530313232921S11701636EA0246102599000000015000
B0530353232892S11701555EA0246202592000000015000
B0530393232845S11701481EA0245702588000000000000
B0530433232774S11701480EA0244702573000000000000
B0530473232747S11701555EA0243702567000000015000
B0530513232788S11701622EA0243302566000000015000
B0530553232857S11701662EA0243202564000000000000
B0530593232938S11701681EA0242602555000000000000
B0531033233024S11701687EA0242002550000000000000
B0531073233108S11701689EA0241302541000000000000
B0531113233191S11701696EA0240402532000000000000
B0531153233273S11701700EA0239302520000000000000
B0531193233359S11701701EA0238302508000000000000
B0531233233443S11701697EA0237902507000000000000
B0531273233527S11701690EA0237502500000000000000
B0531313233611S11701687EA0236702493000000000000
B0531353233693S11701685EA0236202489000000000000
B0531393233776S11701687EA0235302479000000000000
B0531433233858S11701690EA0234802471000000000000
B0531473233940S11701700EA0233802461000000000000
B0531513234022S11701710EA0232902454000000000000
B0531553234103S11701722EA0232302447000000000000
B0531593234184S11701735EA0231602438000000000000
B0532033234265S11701748EA0230502428000000000000
B0532073234346S11701763EA0229702418000000000000
B0532113234424S11701780EA0229202413000000000000
B0532153234500S11701797EA0228402401000000000000
B0532193234582S11701809EA0227002387000000000000
B0532233234665S11701820EA0226202382000000000000
B0532273234747S11701828EA0225902380000000000000
B0532313234829S11701830EA0225302373000000000000
B0532353234912S11701830EA0224402363000000000000
B0532393234996S11701832EA0223602357000000000000
B0532433235078S11701836EA0223002351000000000000
B0532473235157S11701841EA0222402344000000000000
B0532513235235S11701845EA0221702335000000000000
B0532553235310S11701853EA0221102330000000000000
B0532593235383S11701865EA0220802330000000000000
B0533033235456S11701878EA0220302317000000000000
B0533073235530S11701892EA0220002324000000000000
B0533113235595S11701900EA0220602323000000000000
B0533153235660S11701911EA0219102301000000000000
B0533193235731S11701924EA0216402269000000000000
B0533233235812S11701937EA0213802243000000000000
B0533273235895S11701954EA0212002225000000000000
B0533313235981S11701973EA0211602229000000000000
B0533353236060S11701993EA0212902248000000000000
B0533393236133S11702013EA0214002255000000000000
B0533433236205S11702027EA0214402257000000000000
B0533473236277S11702039EA0214402259000000000000
B0533513236352S11702048EA0214702262000000000000
B0533553236424S11702061EA0214702261000000000000
B0533593236498S11702071EA0214502258000000000000
B0534033236573S11702084EA0213802250000000000000
B0534073236647S11702100EA0213402246000000000000
B0534113236719S11702121EA0213202242000000000000
B0534153236787S11702151EA0212702239000000000000
B0534193236855S11702182EA0212902240000000000000
B0534233236924S11702207EA0212802242000000000000
B0534273236991S11702230EA0213302248000000000000
B0534313237056S11702255EA0213302244000000000000
B0534353237124S11702274EA0212802238000000000000
B0534393237194S11702290EA0212002231000000000000
B0534433237264S11702303EA0211502228000000000000
B0534473237338S11702318EA0211002219000000000000
B0534513237414S11702337EA0210602219000000000000
B0534553237485S11702363EA0211202233000000000000
B0534593237538S11702413EA0213202259000000000000
B0535033237564S11702481EA0215102276000000000000
B0535073237551S11702554EA0215902279000000000000
B0535113237488S11702584EA0215602266000000000000
B0535153237425S11702532EA0214202254000000000000
B0535193237397S11702447EA0213502249000000000000
B0535233237379S11702356EA0213202248000000000000
B0535273237360S11702259EA0213702256000000000000
B0535313237311S11702186EA0215302273000000000000
B0535353237237S11702174EA0216202281000000000000
B0535393237182S11702220EA0216402281000000000000
B0535433237167S11702294EA0215902275000000000000
B0535473237186S11702361EA0215802274000000000000
B0535513237236S11702404EA0215402274000000000000
B0535553237291S11702434EA0215802275000000000000
B0535593237354S11702459EA0214902258000000000000
B0536033237424S11702485EA0213302244000000000000
B0536073237498S11702507EA0212302236000000000000
B0536113237576S11702524EA0212102237000000000000
B0536153237652S11702539EA0211502227000000000000
B0536193237728S11702556EA0210602218000000000000
B0536233237802S11702574EA0209802206000000000000
B0536273237879S11702589EA0208502191000000000000
B0536313237954S11702602EA0207402182000000000000
B0536353238032S11702616EA0206502174000000000000
B0536393238110S11702628EA0206402175000000000000
B0536433238188S11702637EA0206302174000000000000
B0536473238264S11702643EA0206102174000000000000
B0536513238338S11702651EA0205702165000000000000
B0536553238415S11702668EA0204602154000000000000
B0536593238491S11702686EA0204102149000000000000
B0537033238569S11702706EA0203602141000000000000
B0537073238649S11702724EA0202302127000000000000
B0537113238727S11702747EA0201302122000000000000
B0537153238793S11702785EA0201602128000000000000
B0537193238840S11702838EA0202502136000000000000
B0537233238875S11702898EA0202102126000000000000
B0537273238920S11702955EA0200402104000000000000
B0537313238981S11703002EA0198802091000000000000
B0537353239052S11703035EA0197202075000000000000
B0537393239127S11703057EA0196502064000000000000
B0537433239205S11703074EA0195402057000000000000
B0537473239283S11703085EA0194702050000000000000
B0537513239361S11703094EA0194102042000000000000
B0537553239436S11703102EA0193402035000000000000
B0537593239512S11703111EA0192502026000000000000
B0538033239586S11703122EA0191502014000000000000
B0538073239660S11703131EA0190402005000000000000
B0538113239732S11703141EA0190002000000000000000
B0538153239804S11703153EA0189401989000000000000
B0538193239880S11703165EA0188101977000000000000
B0538233239956S11703178EA0187301970000000000000
B0538273240033S11703192EA0186401962000000000000
B0538313240111S11703206EA0185601953000000000000
B0538353240189S11703223EA0184701942000000000000
B0538393240268S11703241EA0183801934000000000000
B0538433240348S11703257EA0183101922000000000000
B0538473240428S11703271EA0181701907000000000000
B0538513240512S11703286EA0180701898000000000000
B0538553240595S11703301EA0180001893000000000000
B0538593240677S11703314EA0179701892000000000000
B0539033240748S11703343EA0179701893000000000000
B0539073240813S11703382EA0180001898000000000000
B0539113240870S11703417EA0180701903000000000000
B0539153240928S11703449EA0180401898000000000000
B0539193240986S11703479EA0179601885000000000000
B0539233241051S11703505EA0178101871000000000000
B0539273241119S11703525EA0177001861000000000000
B0539313241188S11703538EA0176301855000000000000
B0539353241256S11703544EA0175801849000000000000
B0539393241327S11703546EA0175001842000000000000
B0539433241396S11703546EA0174201834000000000000
B0539473241466S11703547EA0173701825000000000000
B0539513241537S11703548EA0172101806000000000000
B0539553241614S11703552EA0170101789000000000000
B0539593241691S11703557EA0169301783000000000000
B0540033241766S11703564EA0169001777000000000000
B0540073241839S11703572EA0168401769000000000000
B0540113241912S11703577EA0167701762000000000000
B0540153241987S11703581EA0166601751000000000000
B0540193242062S11703583EA0165601740000000000000
B0540233242140S11703583EA0164401726000000000000
B0540273242218S11703585EA0162801707000000000000
B0540313242300S11703590EA0160201680000000000000
B0540353242384S11703596EA0157801655000000000000
B0540393242471S11703603EA0156501638000000000000
B0540433242560S11703608EA0154401614000000000000
B0540473242653S11703612EA0152901604000000000000
B0540513242741S11703617EA0152401601000000000000
B0540553242827S11703621EA0153001618000000000000
B0540593242901S11703653EA0155501644000000000000
B0541033242937S11703726EA0158001665000000000000
B0541073242893S11703793EA0159301671000000000000
B0541113242819S11703769EA0159101667000000000000
B0541153242767S11703707EA0159401679000000015000
B0541193242701S11703666EA0160601693000000000000
B0541233242637S11703716EA0162001706000000015000
B0541273242637S11703791EA0162901715000000015000
B0541313242683S11703822EA0163001712000000015000
B0541353242735S11703795EA0162001703000000015000
B0541393242751S11703725EA0162201709000000015000
B0541433242745S11703647EA0162701716000000000000
B0541473242714S11703573EA0163601726000000000000
B0541513242640S11703565EA0164901745000000000000
B0541553242605S11703630EA0166401755000000015000
B0541593242629S11703687EA0166901758000000015000
B0542033242677S11703691EA0167201761000000000000
B0542073242698S11703626EA0167101760000000015000
B0542113242667S11703544EA0167201764000000015000
B0542153242597S11703508EA0168901790000000015000
B0542193242553S11703569EA0171401811000000015000
B0542233242572S11703629EA0172501817000000015000
B0542273242620S11703629EA0172901821000000015000
B0542313242642S11703565EA0172901822000000015000
B0542353242601S11703494EA0173501837000000015000
B0542393242528S11703487EA0175401858000000015000
B0542433242472S11703536EA0176901868000000015000
B0542473242463S11703608EA0177301867000000015000
B0542513242502S11703653EA0177401870000000015000
B0542553242551S11703639EA0178001879000000015000
B0542593242577S11703581EA0178701881000000015000
B0543033242567S11703500EA0178901887000000015000
B0543073242516S11703447EA0180701911000000015000
B0543113242451S11703469EA0182701928000000015000
B0543153242430S11703540EA0183301925000000015000
B0543193242467S11703599EA0183401934000000015000
B0543233242517S11703583EA0184601948000000015000
B0543273242537S11703513EA0185301954000000015000
B0543313242501S11703443EA0185901968000000015000
B0543353242429S11703426EA0187601981000000015000
B0543393242367S11703465EA0188201984000000015000
B0543433242338S11703538EA0188801985000000015000
B0543473242347S11703614EA0188701991000000015000
B0543513242387S11703664EA0189802001000000015000
B0543553242442S11703651EA0190402002000000015000
B0543593242464S11703579EA0190502006000000015000
B0544033242416S11703516EA0191002016000000015000
B0544073242346S11703522EA0192202024000000015000
B0544113242309S11703590EA0192602026000000015000
B0544153242322S11703656EA0193102042000000015000
B0544193242361S11703691EA0194102046000000015000
B0544233242415S11703689EA0193502033000000000000
B0544273242478S11703679EA0191702021000000000000
B0544313242546S11703676EA0191102015000000000000
B0544353242619S11703672EA0190402006000000000000
B0544393242698S11703665EA0189401994000000000000
B0544433242784S11703661EA0187801982000000000000
B0544473242871S11703656EA0187301975000000000000
B0544513242961S11703653EA0186601969000000000000
B0544553243050S11703650EA0186101960000000000000
B0544593243143S11703646EA0185901966000000000000
B0545033243235S11703642EA0186201967000000000000
B0545073243325S11703642EA0186801976000000000000
B0545113243412S11703643EA0186601966000000000000
B0545153243499S11703646EA0185301953000000000000
B0545193243586S11703650EA0184301938000000000000
B0545233243674S11703659EA0182901930000000000000
B0545273243760S11703665EA0182601929000000000000
B0545313243847S11703673EA0182301922000000000000
B0545353243934S11703679EA0181601915000000000000
B0545393244022S11703690EA0181001904000000000000
B0545433244110S11703702EA0179701892000000000000
B0545473244200S11703715EA0179101889000000000000
B0545513244291S11703728EA0178901888000000000000
B0545553244382S11703742EA0178701888000000000000
B0545593244473S11703756EA0179501898000000000000
B0546033244558S11703770EA0180601913000000000000
B0546073244640S11703785EA0182501930000000000000
B0546113244720S11703796EA0183701941000000000000
B0546153244796S11703806EA0184201945000000000000
B0546193244872S11703816EA0183901937000000000000
B0546233244948S11703825EA0183001925000000000000
B0546273245028S11703833EA0181301904000000000000
B0546313245110S11703841EA0179001883000000000000
B0546353245197S11703850EA0177301868000000000000
B0546393245283S11703856EA0176201860000000000000
B0546433245368S11703861EA0175401848000000000000
B0546473245455S11703871EA0174401838000000000000
B0546513245541S11703884EA0173601830000000000000
B0546553245626S11703900EA0173501832000000000000
B0546593245709S11703917EA0173701836000000000000
B0547033245790S11703934EA0174501849000000000000
B0547073245862S11703949EA0176601873000000000000
B0547113245926S11703964EA0177901880000000000000
B0547153245991S11703967EA0179201895000000000000
B0547193246029S11703903EA0181301918000000000000
B0547233245981S11703841EA0183901948000000015000
B0547273245917S11703860EA0185701963000000015000
B0547313245907S11703925EA0187101973000000015000
B0547353245952S11703954EA0187601983000000015000
B0547393245995S11703902EA0189002004000000015000
B0547433245975S11703825EA0191102028000000015000
B0547473245910S11703798EA0192702033000000030000
B0547513245857S11703845EA0193502053000000030000
B0547553245856S11703911EA0195702070000000015000
B0547593245897S11703949EA0196702079000000015000
B0548033245948S11703915EA0198002096000000015000
B0548073245935S11703835EA0199702115000000015000
B0548113245868S11703820EA0201502133000000030000
B0548153245825S11703876EA0203102149000000030000
B0548193245842S11703938EA0204402167000000015000
B0548233245894S11703946EA0205802177000000015000
B0548273245922S11703880EA0207002197000000015000
B0548313245882S11703811EA0209002216000000015000
B0548353245814S11703822EA0210502228000000030000
B0548393245787S11703890EA0212102251000000015000
B0548433245809S11703949EA0214402266000000015000
B0548473245865S11703950EA0215102272000000015000
B0548513245892S11703880EA0216302293000000015000
B0548553245849S11703817EA0218502316000000015000
B0548593245784S11703835EA0220102328000000030000
B0549033245766S11703908EA0221302342000000015000
B0549073245797S11703967EA0222702360000000015000
B0549113245853S11703980EA0223702365000000015000
B0549153245904S11703938EA0224302375000000015000
B0549193245923S11703865EA0225402384000000015000
B0549233245900S11703787EA0226402391000000015000
B0549273245838S11703741EA0227102398000000015000
B0549313245764S11703746EA0227602404000000030000
B0549353245715S11703808EA0228702416000000030000
B0549393245712S11703887EA0230102432000000015000
B0549433245739S11703954EA0231602448000000015000
B0549473245796S11703955EA0232302455000000015000
B0549513245823S11703890EA0233202468000000015000
B0549553245786S11703824EA0234102475000000030000
B0549593245712S11703835EA0234102465000000030000
B0550033245684S11703913EA0234502481000000030000
B0550073245708S11703988EA0235202481000000015000
B0550113245767S11704027EA0234502475000000015000
B0550153245835S11704019EA0234702485000000015000
B0550193245888S11703969EA0235902498000000015000
B0550233245912S11703897EA0237302512000000015000
B0550273245899S11703819EA0238102516000000015000
B0550313245857S11703747EA0238002515000000015000
B0550353245796S11703689EA0238102516000000015000
B0550393245717S11703690EA0238802528000000015000
B0550433245680S11703761EA0239502527000000015000
B0550473245710S11703834EA0238702521000000015000
B0550513245765S11703882EA0238402519000000015000
B0550553245829S11703908EA0238602522000000015000
B0550593245896S11703930EA0239202528000000015000
B0551033245966S11703949EA0240302535000000000000
B0551073246037S11703964EA0242002554000000000000
B0551113246096S11703933EA0243902582000000000000
B0551153246094S11703854EA0246302608000000015000
B0551193246034S11703815EA0248002623000000030000
B0551233245975S11703851EA0249302631000000030000
B0551273245957S11703924EA0250202640000000015000
B0551313245988S11703982EA0251502654000000015000
B0551353246044S11703988EA0252702668000000015000
B0551393246085S11703936EA0254502688000000015000
B0551433246073S11703863EA0255702698000000015000
B0551473246012S11703820EA0256202709000000030000
B0551513245947S11703838EA0257502724000000030000
B0551553245916S11703899EA0258402734000000030000
B0551593245933S11703963EA0259102745000000015000
B0552033245983S11703976EA0260402755000000015000
B0552073246012S11703916EA0261402766000000015000
B0552113245982S11703843EA0262102769000000015000
B0552153245912S11703820EA0262602780000000030000
B0552193245851S11703859EA0263902790000000030000
B0552233245831S11703932EA0265102800000000015000
B0552273245860S11703990EA0265902809000000015000
B0552313245916S11703989EA0266802815000000015000
B0552353245946S11703923EA0266902818000000015000
B0552393245931S11703845EA0267802834000000030000
B0552433245877S11703795EA0268802839000000030000
B0552473245804S11703795EA0269302847000000030000
B0552513245747S11703843EA0270302855000000015000
B0552553245717S11703915EA0271202864000000015000
B0552593245734S11703981EA0272102877000000015000
B0553033245786S11703997EA0273302894000000015000
B0553073245825S11703951EA0274702903000000015000
B0553113245806S11703881EA0275702915000000015000
B0553153245743S11703851EA0276802925000000030000
B0553193245679S11703882EA0277302932000000030000
B0553233245653S11703951EA0278102940000000015000
B0553273245673S11704014EA0278502945000000015000
B0553313245722S11704036EA0279102954000000015000
B0553353245769S11704003EA0279602957000000015000
B0553393245783S11703937EA0279902963000000015000
B0553433245761S11703867EA0280602967000000015000
B0553473245697S11703828EA0281102970000000015000
B0553513245624S11703852EA0281602977000000030000
B0553553245578S11703920EA0282402987000000015000
B0553593245582S11703991EA0283502999000000015000
B0554033245628S11704016EA0284403005000000015000
B0554073245671S11703972EA0284703006000000015000
B0554113245661S11703893EA0284703009000000015000
B0554153245593S11703846EA0285003017000000015000
B0554193245513S11703852EA0286203028000000015000
B0554233245458S11703912EA0286903034000000015000
B0554273245455S11703990EA0287903047000000015000
B0554313245489S11704051EA0288303047000000015000
B0554353245543S11704084EA0288203045000000015000
B0554393245605S11704092EA0287803041000000000000
B0554433245670S11704097EA0287203029000000000000
B0554473245741S11704105EA0285603012000000000000
B0554513245818S11704115EA0283802990000000000000
B0554553245900S11704125EA0281302968000000000000
B0554593245985S11704136EA0280002959000000000000
B0555033246070S11704146EA0279802960000000000000
B0555073246154S11704154EA0279702955000000000000
B0555113246239S11704162EA0279102947000000000000
B0555153246325S11704170EA0278202933000000000000
B0555193246414S11704173EA0276602917000000000000
B0555233246501S11704175EA0275402906000000000000
B0555273246590S11704173EA0274102891000000000000
B0555313246680S11704175EA0273502889000000000000
B0555353246770S11704179EA0272902878000000000000
B0555393246859S11704179EA0272002875000000000000
B0555433246949S11704177EA0271502865000000000000
B0555473247038S11704176EA0271302868000000000000
B0555513247126S11704173EA0271202860000000000000
B0555553247216S11704168EA0270202849000000000000
B0555593247305S11704163EA0269302844000000000000
B0556033247395S11704158EA0268902841000000000000
B0556073247483S11704154EA0268702839000000000000
B0556113247572S11704151EA0268202832000000000000
B0556153247660S11704151EA0267402824000000000000
B0556193247749S11704153EA0266402814000000000000
B0556233247834S11704155EA0265602804000000000000
B0556273247922S11704159EA0264502787000000000000
B0556313248009S11704164EA0263502782000000000000
B0556353248096S11704170EA0262502769000000000000
B0556393248183S11704173EA0261502758000000000000
B0556433248269S11704177EA0260602750000000000000
B0556473248353S11704180EA0259702742000000000000
B0556513248435S11704186EA0258702732000000000000
B0556553248518S11704193EA0257702720000000000000
B0556593248600S11704201EA0256902709000000000000
B0557033248683S11704207EA0255802699000000000000
B0557073248768S11704212EA0254802686000000000000
B0557113248855S11704218EA0253702677000000000000
B0557153248943S11704220EA0252702669000000000000
B0557193249033S11704224EA0251802657000000000000
B0557233249123S11704231EA0250502644000000000000
B0557273249211S11704237EA0249602637000000000000
B0557313249298S11704245EA0248102616000000000000
B0557353249388S11704254EA0246202597000000000000
B0557393249480S11704262EA0244702576000000000000
B0557433249574S11704271EA0242902561000000000000
B0557473249667S11704280EA0241502546000000000000
B0557513249762S11704293EA0239802527000000000000
B0557553249857S11704305EA0238302514000000000000
B0557593249952S11704315EA0236902499000000000000
B0558033250044S11704328EA0235802489000000000000
B0558073250137S11704341EA0234902481000000000000
B0558113250229S11704353EA0234402477000000000000
B0558153250320S11704363EA0234102470000000000000
B0558193250411S11704375EA0233602468000000000000
B0558233250499S11704392EA0233102459000000000000
B0558273250590S11704409EA0232002443000000000000
B0558313250684S11704418EA0230202427000000000000
B0558353250778S11704433EA0229002417000000000000
B0558393250869S11704463EA0228502415000000000000
B0558433250958S11704491EA0228702417000000000000
B0558473251048S11704513EA0229902437000000000000
B0558513251121S11704472EA0233402475000000000000
B0558553251134S11704385EA0236002496000000000000
B0558593251084S11704318EA0236702495000000015000
B0559033251005S11704318EA0235902486000000015000
B0559073250954S11704387EA0235302488000000015000
B0559113250930S11704470EA0236602507000000015000
B0559153250947S11704543EA0238502526000000000000
B0559193251001S11704569EA0239702533000000000000
B0559233251055S11704527EA0240302542000000015000
B0559273251061S11704445EA0241002554000000015000
B0559313251029S11704363EA0242002561000000015000
B0559353250980S11704290EA0242502565000000015000
B0559393250913S11704259EA0242902565000000015000
B0559433250863S11704311EA0242302557000000015000
B0559473250883S11704389EA0242202565000000015000
B0559513250926S11704456EA0243102572000000015000
B0559553250982S11704513EA0243402575000000000000
B0559593251047S11704558EA0243702576000000000000
B0600033251114S11704596EA0244502586000000000000
B0600073251187S11704630EA0244602583000000000000
B0600113251269S11704654EA0244402583000000000000
B0600153251351S11704677EA0244902588000000000000
B0600193251434S11704691EA0244202567000000000000
B0600233251519S11704706EA0242002546000000000000
B0600273251607S11704725EA0240402533000000000000
B0600313251695S11704742EA0239002515000000000000
B0600353251784S11704756EA0238602520000000000000
B0600393251871S11704764EA0238802519000000000000
B0600433251962S11704774EA0237702506000000000000
B0600473252056S11704782EA0236702498000000000000
B0600513252147S11704797EA0237302510000000000000
B0600553252228S11704820EA0238802525000000000000
B0600593252308S11704849EA0239002520000000000000
B0601033252392S11704872EA0237802502000000000000
B0601073252482S11704882EA0236902500000000000000
B0601113252570S11704886EA0236902504000000000000
B0601153252656S11704887EA0236702497000000000000
B0601193252742S11704894EA0235902489000000000000
B0601233252828S11704905EA0234602471000000000000
B0601273252920S11704912EA0232302445000000000000
B0601313253015S11704913EA0230202426000000000000
B0601353253110S11704911EA0229102412000000000000
B0601393253203S11704911EA0227702398000000000000
B0601433253296S11704912EA0226602391000000000000
B0601473253387S11704914EA0225802378000000000000
B0601513253478S11704903EA0225002372000000000000
B0601553253564S11704865EA0224502369000000000000
B0601593253638S11704807EA0224202364000000000000
B0602033253704S11704736EA0223702359000000000000
B0602073253764S11704661EA0223202353000000000000
B0602113253821S11704580EA0222402345000000000000
B0602153253876S11704501EA0221502335000000000000
B0602193253931S11704427EA0220802332000000000000
B0602233253989S11704362EA0221302339000000000000
B0602273254042S11704297EA0221602338000000000000
B0602313254086S11704224EA0221802346000000000000
B0602353254134S11704162EA0223302360000000000000
B0602393254193S11704170EA0224802380000000000000
B0602433254194S11704232EA0227402408000000015000
B0602473254132S11704259EA0228902419000000015000
B0602513254068S11704216EA0229702434000000015000
B0602553254047S11704140EA0230802442000000030000
B0602593254081S11704085EA0232102461000000030000
B0603033254128S11704094EA0233702468000000030000
B0603073254149S11704149EA0235202476000000030000
B0603113254130S11704210EA0236602491000000030000
B0603153254080S11704251EA0238202513000000015000
B0603193254009S11704251EA0239202522000000015000
B0603233253948S11704205EA0239702529000000015000
B0603273253920S11704123EA0239702529000000030000
B0603313253937S11704045EA0240202541000000030000
B0603353253985S11704016EA0242002566000000030000
B0603393254026S11704047EA0243702573000000030000
B0603433254020S11704115EA0244802585000000030000
B0603473253964S11704159EA0245702595000000015000
B0603513253891S11704140EA0246402604000000015000
B0603553253847S11704069EA0246902609000000030000
B0603593253846S11703986EA0247302613000000030000
B0604033253885S11703929EA0248202632000000030000
B0604073253941S11703913EA0249802645000000030000
B0604113253982S11703954EA0251202658000000030000
B0604153253970S11704027EA0252402677000000030000
B0604193253909S11704072EA0254002690000000015000
B0604233253838S11704054EA0254902697000000015000
B0604273253798S11703980EA0255802708000000030000
B0604313253804S11703900EA0257302727000000030000
B0604353253852S11703859EA0258802737000000030000
B0604393253905S11703880EA0259302750000000030000
B0604433253916S11703947EA0261002768000000030000
B0604473253866S11704002EA0262502781000000015000
B0604513253795S11703993EA0263802793000000015000
B0604553253755S11703924EA0264802803000000030000
B0604593253790S11703868EA0265902811000000030000
B0605033253846S11703884EA0266502819000000030000
B0605073253864S11703950EA0267702835000000030000
B0605113253827S11704015EA0269402852000000030000
B0605153253756S11704027EA0270302857000000015000
B0605193253688S11703978EA0270602860000000015000
B0605233253660S11703898EA0271502875000000030000
B0605273253696S11703839EA0272902885000000030000
B0605313253752S11703850EA0273502895000000030000
B0605353253766S11703917EA0275102914000000030000
B0605393253734S11703982EA0276602927000000030000
B0605433253669S11704012EA0277602935000000015000
B0605473253593S11703994EA0277902932000000015000
B0605513253527S11703933EA0277402926000000015000
B0605553253506S11703842EA0277002927000000030000
B0605593253527S11703759EA0277602934000000030000
B0606033253577S11703704EA0278602944000000030000
B0606073253629S11703718EA0280002963000000030000
B0606113253631S11703783EA0281502975000000030000
B0606153253575S11703832EA0281802979000000015000
B0606193253502S11703812EA0282302989000000015000
B0606233253462S11703741EA0283603003000000030000
B0606273253475S11703672EA0284903012000000030000
B0606313253519S11703651EA0285303014000000030000
B0606353253566S11703676EA0284903009000000030000
B0606393253623S11703705EA0283802996000000015000
B0606433253691S11703726EA0282702982000000015000
B0606473253768S11703744EA0280902965000000015000
B0606513253850S11703759EA0279902955000000015000
B0606553253933S11703776EA0279502948000000015000
B0606593254019S11703796EA0278502935000000015000
B0607033254106S11703820EA0277102919000000015000
B0607073254194S11703846EA0275702903000000000000
B0607113254285S11703872EA0274102885000000000000
B0607153254381S11703895EA0272302867000000000000
B0607193254480S11703913EA0270802853000000000000
B0607233254580S11703930EA0269902846000000000000
B0607273254679S11703947EA0269402842000000000000
B0607313254775S11703964EA0269302838000000000000
B0607353254869S11703984EA0268702833000000000000
B0607393254961S11703998EA0268002823000000000000
B0607433255053S11704007EA0267502822000000000000
B0607473255143S11704014EA0267002815000000000000
B0607513255235S11704019EA0265702798000000000000
B0607553255329S11704025EA0264102783000000000000
B0607593255423S11704034EA0263702782000000000000
B0608033255514S11704042EA0263702782000000000000
B0608073255605S11704050EA0263402776000000000000
B0608113255693S11704055EA0262802769000000000000
B0608153255781S11704062EA0261402752000000000000
B0608193255867S11704068EA0260502748000000000000
B0608233255952S11704079EA0259902739000000000000
B0608273256035S11704089EA0259502738000000000000
B0608313256119S11704101EA0259002729000000000000
B0608353256204S11704110EA0257502712000000000000
B0608393256291S11704118EA0255902697000000000000
B0608433256379S11704123EA0254502683000000000000
B0608473256468S11704127EA0254102679000000000000
B0608513256555S11704132EA0253602673000000000000
B0608553256642S11704138EA0252702663000000000000
B0608593256732S11704142EA0251502649000000000000
B0609033256824S11704147EA0249902631000000000000
B0609073256919S11704151EA0248302617000000000000
B0609113257014S11704158EA0246802600000000000000
B0609153257110S11704168EA0245702590000000000000
B0609193257206S11704180EA0245802593000000000000
B0609233257298S11704197EA0246002597000000000000
B0609273257387S11704223EA0246102596000000000000
B0609313257477S11704240EA0245502586000000000000
B0609353257568S11704240EA0245002588000000000000
B0609393257656S11704236EA0245302590000000000000
B0609433257743S11704231EA0244602579000000000000
B0609473257834S11704228EA0243302564000000000000
B0609513257926S11704228EA0241902550000000000000
B0609553258019S11704227EA0241002541000000000000
B0609593258111S11704229EA0239802524000000000000
B0610033258205S11704229EA0238502513000000000000
B0610073258298S11704228EA0237402502000000000000
B0610113258393S11704228EA0236002487000000000000
B0610153258488S11704236EA0235002479000000000000
B0610193258578S11704245EA0235002483000000000000
B0610233258666S11704255EA0234602471000000000000
B0610273258757S11704266EA0233402458000000000000
B0610313258852S11704275EA0232002447000000000000
B0610353258947S11704285EA0231402441000000000000
B0610393259043S11704298EA0230702432000000000000
B0610433259141S11704305EA0230102422000000000000
B0610473259238S11704298EA0229302420000000000000
B0610513259332S11704294EA0229202416000000000000
B0610553259425S11704289EA0228002398000000000000
B0610593259520S11704279EA0226302381000000000000
B0611033259618S11704267EA0225402375000000000000
B0611073259710S11704233EA0225402378000000000000
B0611113259794S11704181EA0225202375000000000000
B0611153259879S11704129EA0224502369000000000000
B0611193259962S11704090EA0224502372000000000000
B0611233300045S11704059EA0224402367000000000000
B0611273300130S11704040EA0223602357000000000000
B0611313300217S11704025EA0222702345000000000000
B0611353300305S11704016EA0221302330000000000000
B0611393300395S11704008EA0220202320000000000000
B0611433300485S11704011EA0219002303000000000000
B0611473300577S11704017EA0217402284000000000000
B0611513300672S11704024EA0215702269000000000000
B0611553300766S11704030EA0214502259000000000000
B0611593300860S11704032EA0213302244000000000000
B0612033300958S11704034EA0212002230000000000000
B0612073301055S11704038EA0210802220000000000000
B0612113301153S11704043EA0210602223000000000000
B0612153301247S11704054EA0210502216000000000000
B0612193301338S11704069EA0209702212000000000000
B0612233301425S11704094EA0209602204000000000000
B0612273301517S11704106EA0207702181000000000000
B0612313301613S11704112EA0205102152000000000000
B0612353301712S11704123EA0203202136000000000000
B0612393301807S11704141EA0202002125000000000000
B0612433301902S11704163EA0200702110000000000000
B0612473301998S11704172EA0199602101000000000000
B0612513302094S11704170EA0198602089000000000000
B0612553302190S11704167EA0197702082000000000000
B0612593302287S11704163EA0197002076000000000000
B0613033302383S11704158EA0196102060000000000000
B0613073302483S11704150EA0194302041000000000000
B0613113302583S11704136EA0193102034000000000000
B0613153302680S11704125EA0192602029000000000000
B0613193302778S11704119EA0191802020000000000000
B0613233302875S11704123EA0191102013000000000000
B0613273302969S11704144EA0190602007000000000000
B0613313303064S11704167EA0190002000000000000000
B0613353303159S11704188EA0189101992000000000000
B0613393303250S11704206EA0188801987000000000000
B0613433303341S11704215EA0187901976000000000000
B0613473303428S11704220EA0186801968000000000000
B0613513303514S11704224EA0186101957000000000000
B0613553303600S11704222EA0185001947000000000000
B0613593303684S11704223EA0184401941000000000000
B0614033303766S11704233EA0183901935000000000000
B0614073303847S11704246EA0184001946000000000000
B0614113303922S11704264EA0185101953000000000000
B0614153303997S11704289EA0185801958000000000000
B0614193304075S11704311EA0185701954000000000000
B0614233304155S11704329EA0185901961000000000000
B0614273304226S11704298EA0186601963000000000000
B0614313304243S11704209EA0186401961000000000000
B0614353304196S11704133EA0186501965000000000000
B0614393304123S11704118EA0186501967000000000000
B0614433304057S11704144EA0186501966000000000000
B0614473304008S11704196EA0186501966000000000000
B0614513303969S11704259EA0186601967000000000000
B0614553303951S11704333EA0186401964000000000000
B0614593303961S11704409EA0186201964000000000000
B0615033304001S11704465EA0186501970000000000000
B0615073304053S11704502EA0187001972000000000000
B0615113304110S11704535EA0186501964000000000000
B0615153304174S11704566EA0185701953000000000000
B0615193304243S11704589EA0185001949000000000000
B0615233304315S11704604EA0184801948000000000000
B0615273304389S11704613EA0184701947000000000000
B0615313304464S11704619EA0184201939000000000000
B0615353304542S11704622EA0183201929000000000000
B0615393304623S11704626EA0182201916000000000000
B0615433304707S11704630EA0181001907000000000000
B0615473304792S11704635EA0180301899000000000000
B0615513304880S11704644EA0178801879000000000000
B0615553304972S11704653EA0176901858000000000000
B0615593305067S11704661EA0174801839000000000000
B0616033305161S11704671EA0174301838000000000000
B0616073305252S11704679EA0173801827000000000000
B0616113305343S11704684EA0172601816000000000000
B0616153305433S11704693EA0172001813000000000000
B0616193305522S11704700EA0171501802000000000000
B0616233305609S11704701EA0171301808000000000000
B0616273305694S11704701EA0171701813000000000000
B0616313305777S11704704EA0171501807000000000000
B0616353305860S11704704EA0171201804000000000000
B0616393305942S11704703EA0171001802000000000000
B0616433306021S11704710EA0171601813000000000000
B0616473306096S11704730EA0172401822000000000000
B0616513306168S11704751EA0173101826000000000000
B0616553306239S11704747EA0174101839000000000000
B0616593306258S11704673EA0175701857000000000000
B0617033306203S11704626EA0177101871000000000000
B0617073306136S11704641EA0177301865000000000000
B0617113306094S11704708EA0176701860000000015000
B0617153306101S11704795EA0176601862000000015000
B0617193306141S11704865EA0177001866000000015000
B0617233306209S11704903EA0177201869000000000000
B0617273306274S11704886EA0178401884000000000000
B0617313306265S11704816EA0179701897000000000000
B0617353306203S11704791EA0179701891000000000000
B0617393306145S11704836EA0179701905000000015000
B0617433306127S11704909EA0181401918000000015000
B0617473306157S11704968EA0182401928000000015000
B0617513306211S11704969EA0182901927000000015000
B0617553306240S11704911EA0182601924000000015000
B0617593306220S11704842EA0182101917000000015000
B0618033306159S11704805EA0181901919000000015000
B0618073306090S11704812EA0182701933000000015000
B0618113306046S11704868EA0184001943000000015000
B0618153306059S11704943EA0184001940000000015000
B0618193306122S11704951EA0184501950000000015000
B0618233306141S11704879EA0185201953000000015000
B0618273306106S11704809EA0185401956000000015000
B0618313306038S11704786EA0186101970000000015000
B0618353305980S11704823EA0187601981000000015000
B0618393305966S11704896EA0188101986000000015000
B0618433306005S11704952EA0188401987000000015000
B0618473306066S11704943EA0188601989000000015000
B0618513306107S11704888EA0188901991000000015000
B0618553306111S11704810EA0189001992000000000000
B0618593306066S11704751EA0189001991000000000000
B0619033305993S11704751EA0189402004000000015000
B0619073305937S11704797EA0190702017000000015000
B0619113305932S11704869EA0191802025000000015000
B0619153305973S11704917EA0192402029000000015000
B0619193306032S11704937EA0191902020000000015000
B0619233306099S11704946EA0190702006000000000000
B0619273306175S11704955EA0189101987000000000000
B0619313306255S11704970EA0187501974000000000000
B0619353306340S11704986EA0187201975000000000000
B0619393306427S11704999EA0188001985000000000000
B0619433306513S11705008EA0188901996000000000000
B0619473306600S11705003EA0190402018000000000000
B0619513306638S11704921EA0193502055000000000000
B0619553306584S11704866EA0197002092000000000000
B0619593306532S11704901EA0199902116000000015000
B0620033306532S11704969EA0201202125000000015000
B0620073306588S11705003EA0202502143000000015000
B0620113306644S11704959EA0204702167000000015000
B0620153306643S11704872EA0206802190000000015000
B0620193306587S11704820EA0208902213000000015000
B0620233306527S11704843EA0211502239000000015000
B0620273306514S11704909EA0213102252000000015000
B0620313306562S11704952EA0214902276000000015000
B0620353306616S11704918EA0217402302000000015000
B0620393306614S11704840EA0219302326000000015000
B0620433306561S11704796EA0221302345000000015000
B0620473306512S11704834EA0223202366000000015000
B0620513306519S11704899EA0225002385000000015000
B0620553306575S11704918EA0227002407000000015000
B0620593306618S11704865EA0229102428000000015000
B0621033306604S11704788EA0231102447000000015000
B0621073306541S11704757EA0232902464000000015000
B0621113306496S11704803EA0235202490000000015000
B0621153306506S11704865EA0236702511000000015000
B0621193306562S11704887EA0238402527000000015000
B0621233306610S11704836EA0240202544000000015000
B0621273306600S11704756EA0241602555000000015000
B0621313306538S11704714EA0243002575000000015000
B0621353306486S11704751EA0245302598000000015000
B0621393306488S11704820EA0247202616000000015000
B0621433306539S11704855EA0249002635000000015000
B0621473306588S11704813EA0250202643000000015000
B0621513306590S11704727EA0250702651000000015000
B0621553306544S11704653EA0251702666000000015000
B0621593306475S11704651EA0254002694000000015000
B0622033306456S11704716EA0256502717000000015000
B0622073306504S11704757EA0258202731000000015000
B0622113306560S11704726EA0259902752000000015000
B0622153306578S11704651EA0261302763000000015000
B0622193306549S11704575EA0262202773000000015000
B0622233306487S11704561EA0263802791000000015000
B0622273306449S11704614EA0265302807000000015000
B0622313306474S11704670EA0267102826000000015000
B0622353306532S11704660EA0268302834000000015000
B0622393306562S11704587EA0269202843000000015000
B0622433306536S11704509EA0269902854000000015000
B0622473306471S11704482EA0270902864000000015000
B0622513306413S11704514EA0271802871000000015000
B0622553306398S11704587EA0272602885000000015000
B0622593306449S11704625EA0274302900000000015000
B0623033306497S11704565EA0275502913000000015000
B0623073306480S11704485EA0276902929000000015000
B0623113306422S11704454EA0278002937000000015000
B0623153306363S11704484EA0278702941000000015000
B0623193306349S11704557EA0279502956000000015000
B0623233306384S11704615EA0281102970000000015000
B0623273306447S11704617EA0282102982000000015000
B0623313306484S11704547EA0282702981000000015000
B0623353306463S11704463EA0282802988000000015000
B0623393306401S11704430EA0283402992000000015000
B0623433306339S11704461EA0283903003000000015000
B0623473306313S11704527EA0285303016000000015000
B0623513306339S11704593EA0285803015000000015000
B0623553306398S11704631EA0286103020000000015000
B0623593306466S11704654EA0285203004000000000000
B0624033306547S11704662EA0282502972000000000000
B0624073306638S11704660EA0279702946000000000000
B0624113306733S11704652EA0278202930000000000000
B0624153306829S11704641EA0277302923000000000000
B0624193306922S11704631EA0276902920000000000000
B0624233307012S11704617EA0276802918000000000000
B0624273307097S11704595EA0276602915000000000000
B0624313307178S11704570EA0275802907000000000000
B0624353307259S11704547EA0275602906000000000000
B0624393307333S11704531EA0275702908000000000000
B0624433307403S11704514EA0275402903000000000000
B0624473307475S11704496EA0275202902000000000000
B0624513307548S11704485EA0274702894000000000000
B0624553307622S11704482EA0273402879000000000000
B0624593307696S11704482EA0272102863000000000000
B0625033307771S11704487EA0270402847000000000000
B0625073307848S11704489EA0269002831000000000000
B0625113307926S11704496EA0267602819000000000000
B0625153308005S11704501EA0266902815000000000000
B0625193308083S11704509EA0266802814000000000000
B0625233308160S11704518EA0266502807000000000000
B0625273308239S11704528EA0265402793000000000000
B0625313308322S11704544EA0263502772000000000000
B0625353308411S11704560EA0261702758000000000000
B0625393308497S11704574EA0261202757000000000000
B0625433308573S11704591EA0261802765000000000000
B0625473308644S11704606EA0261802764000000000000
B0625513308714S11704622EA0261302756000000000000
B0625553308783S11704634EA0260502746000000000000
B0625593308854S11704648EA0259502734000000000000
B0626033308926S11704666EA0258502721000000000000
B0626073309000S11704684EA0257102709000000000000
B0626113309074S11704704EA0256002694000000000000
B0626153309152S11704719EA0254902689000000000000
B0626193309229S11704731EA0255102693000000000000
B0626233309305S11704742EA0254802688000000000000
B0626273309385S11704756EA0254302681000000000000
B0626313309468S11704773EA0254302684000000000000
B0626353309550S11704792EA0254802694000000000000
B0626393309628S11704814EA0255802700000000000000
B0626433309702S11704838EA0255602692000000000000
B0626473309776S11704866EA0254802684000000000000
B0626513309851S11704895EA0253902676000000000000
B0626553309927S11704925EA0253302670000000000000
B0626593310001S11704956EA0252902667000000000000
B0627033310074S11704986EA0252702665000000000000
B0627073310144S11705016EA0252602663000000000000
B0627113310214S11705046EA0252302658000000000000
B0627153310285S11705074EA0251502650000000000000
B0627193310358S11705106EA0250802642000000000000
B0627233310431S11705142EA0250102636000000000000
B0627273310503S11705178EA0249902634000000000000
B0627313310573S11705208EA0249802633000000000000
B0627353310643S11705230EA0249402626000000000000
B0627393310720S11705249EA0248302610000000000000
B0627433310800S11705263EA0246602592000000000000
B0627473310885S11705272EA0245202581000000000000
B0627513310972S11705280EA0244102567000000000000
B0627553311062S11705286EA0242302548000000000000
B0627593311151S11705290EA0240902534000000000000
B0628033311244S11705291EA0239502520000000000000
B0628073311336S11705294EA0238002505000000000000
B0628113311431S11705297EA0236802493000000000000
B0628153311526S11705302EA0235802483000000000000
B0628193311621S11705304EA0235102479000000000000
B0628233311714S11705310EA0235002478000000000000
B0628273311808S11705315EA0234602470000000000000
B0628313311903S11705320EA0233302456000000000000
B0628353311996S11705329EA0232902459000000000000
B0628393312083S11705350EA0233202460000000000000
B0628433312169S11705373EA0232602451000000000000
B0628473312256S11705393EA0231202429000000000000
B0628513312350S11705399EA0229002410000000000000
B0628553312446S11705402EA0227502398000000000000
B0628593312541S11705406EA0226502384000000000000
B0629033312637S11705411EA0225002367000000000000
B0629073312733S11705415EA0224102364000000000000
B0629113312827S11705418EA0223802361000000000000
B0629153312922S11705421EA0223302354000000000000
B0629193313018S11705421EA0223202359000000000000
B0629233313108S11705433EA0223802364000000000000
B0629273313188S11705463EA0224402371000000000000
B0629313313257S11705509EA0224902373000000000000
B0629353313324S11705557EA0224802372000000000000
B0629393313392S11705602EA0224502365000000000000
B0629433313463S11705650EA0223202351000000000000
B0629473313534S11705697EA0221902332000000000000
B0629513313616S11705732EA0219902310000000000000
B0629553313706S11705756EA0218202295000000000000
B0629593313799S11705775EA0217202287000000000000
B0630033313892S11705795EA0216502276000000000000
B0630073313989S11705806EA0214902258000000000000
B0630113314089S11705806EA0213602245000000000000
B0630153314191S11705798EA0212802243000000000000
B0630193314288S11705789EA0212502241000000000000
B0630233314386S11705780EA0211902230000000000000
B0630273314484S11705771EA0210502210000000000000
B0630313314585S11705763EA0209002203000000000000
B0630353314682S11705759EA0209102205000000000000
B0630393314778S11705758EA0208902205000000000000
B0630433314868S11705758EA0209602213000000000000
B0630473314955S11705766EA0209502203000000000000
B0630513315045S11705769EA0207902189000000000000
B0630553315134S11705769EA0207402188000000000000
B0630593315223S11705770EA0207302182000000000000
B0631033315313S11705774EA0206302170000000000000
B0631073315404S11705776EA0205002157000000000000
B0631113315495S11705780EA0204202150000000000000
B0631153315586S11705783EA0203102135000000000000
B0631193315679S11705784EA0201402118000000000000
B0631233315773S11705785EA0200402110000000000000
B0631273315862S11705785EA0199902104000000000000
B0631313315953S11705785EA0199002095000000000000
B0631353316043S11705783EA0198102085000000000000
B0631393316134S11705787EA0197302077000000000000
B0631433316224S11705796EA0196402065000000000000
B0631473316315S11705808EA0195902065000000000000
B0631513316403S11705819EA0195802062000000000000
B0631553316493S11705830EA0195002049000000000000
B0631593316585S11705837EA0193802038000000000000
B0632033316679S11705841EA0193002035000000000000
B0632073316770S11705843EA0192302023000000000000
B0632113316863S11705845EA0191002007000000000000
B0632153316956S11705845EA0189701995000000000000
B0632193317045S11705845EA0189401996000000000000
B0632233317130S11705840EA0189902002000000000000
B0632273317212S11705832EA0189802000000000000000
B0632313317291S11705827EA0189802002000000000000
B0632353317368S11705828EA0189902000000000000000
B0632393317445S11705832EA0190102006000000000000
B0632433317516S11705852EA0190402007000000000000
B0632473317584S11705883EA0191002020000000000000
B0632513317649S11705918EA0192402035000000000000
B0632553317715S11705930EA0194202054000000000000
B0632593317763S11705870EA0195702062000000000000
B0633033317749S11705784EA0196002070000000000000
B0633073317692S11705730EA0197102080000000000000
B0633113317621S11705724EA0197402076000000000000
B0633153317560S11705763EA0197502082000000000000
B0633193317537S11705827EA0198802096000000015000
B0633233317588S11705854EA0199702106000000015000
B0633273317628S11705796EA0201502130000000015000
B0633313317603S11705724EA0203302141000000015000
B0633353317542S11705707EA0203602147000000015000
B0633393317504S11705752EA0204202152000000015000
B0633433317523S11705813EA0204502158000000015000
B0633473317576S11705811EA0205802181000000015000
B0633513317588S11705743EA0208202201000000015000
B0633553317546S11705687EA0209102203000000015000
B0633593317482S11705684EA0209102206000000015000
B0634033317441S11705731EA0210102219000000015000
B0634073317448S11705792EA0211202232000000015000
B0634113317489S11705830EA0212302238000000015000
B0634153317542S11705797EA0212802247000000015000
B0634193317543S11705715EA0214002264000000015000
B0634233317489S11705671EA0216102291000000015000
B0634273317438S11705697EA0217802301000000015000
B0634313317437S11705757EA0218602308000000015000
B0634353317484S11705787EA0219602316000000015000
B0634393317533S11705746EA0220602329000000015000
B0634433317526S11705665EA0221802342000000015000
B0634473317465S11705623EA0222902354000000015000
B0634513317407S11705657EA0224102368000000015000
B0634553317398S11705724EA0224902379000000015000
B0634593317438S11705772EA0225802387000000015000
B0635033317498S11705748EA0227002405000000015000
B0635073317517S11705670EA0228702424000000015000
B0635113317480S11705598EA0230502439000000015000
B0635153317415S11705581EA0231902450000000015000
B0635193317369S11705629EA0232602456000000015000
B0635233317378S11705698EA0233302466000000015000
B0635273317429S11705726EA0234502479000000015000
B0635313317482S11705680EA0235402489000000015000
B0635353317484S11705594EA0236402501000000015000
B0635393317424S11705542EA0237602511000000015000
B0635433317360S11705570EA0238302521000000015000
B0635473317347S11705640EA0239502533000000015000
B0635513317386S11705691EA0240202537000000015000
B0635553317451S11705675EA0240602540000000015000
B0635593317481S11705593EA0241202549000000015000
B0636033317446S11705507EA0242402560000000015000
B0636073317383S11705446EA0243002564000000015000
B0636113317308S11705438EA0243202568000000015000
B0636153317261S11705498EA0243802576000000015000
B0636193317256S11705576EA0244502581000000015000
B0636233317300S11705635EA0245202591000000015000
B0636273317363S11705616EA0246402609000000015000
B0636313317363S11705537EA0248402626000000015000
B0636353317303S11705493EA0249702641000000015000
B0636393317243S11705525EA0250702646000000015000
B0636433317246S11705594EA0251402657000000015000
B0636473317299S11705615EA0252502669000000015000
B0636513317343S11705563EA0253602680000000015000
B0636553317333S11705484EA0254502693000000015000
B0636593317274S11705437EA0255802706000000015000
B0637033317207S11705445EA0256402703000000015000
B0637073317166S11705510EA0256402709000000015000
B0637113317170S11705584EA0257302719000000015000
B0637153317209S11705637EA0258002728000000015000
B0637193317264S11705661EA0258502728000000015000
B0637233317329S11705658EA0257702716000000015000
B0637273317403S11705649EA0256502703000000000000
B0637313317484S11705636EA0255802697000000000000
B0637353317565S11705623EA0255802701000000000000
B0637393317646S11705606EA0255902698000000000000
B0637433317733S11705589EA0255002684000000000000
B0637473317828S11705581EA0253102660000000000000
B0637513317927S11705583EA0250702636000000000000
B0637553318027S11705588EA0249202625000000000000
B0637593318126S11705596EA0248402617000000000000
B0638033318222S11705603EA0247502608000000000000
B0638073318317S11705611EA0246802605000000000000
B0638113318410S11705615EA0246302596000000000000
B0638153318501S11705616EA0245502589000000000000
B0638193318592S11705619EA0245002579000000000000
B0638233318686S11705620EA0243602564000000000000
B0638273318778S11705618EA0242902561000000000000
