ACAM4N6
HFDTE130218
HFFXA050
HFPLTPILOT:JOHN WELSH              
HFGTYGLIDERTYPE:HORNET      
HFGIDGLIDERID:VH-GMY      
HFDTM100GPSDATUM:
HFRFWFIRMWAREVERSION:F2.6
HFRHWHARDWAREVERSION:300 Series Version 2
HFFTYFRTYPE:CAMBRIDGE AERO INSTRUMENTS, 302+
HFGPS:GARMIN,LVS-25,12,18000
HFPRSPRESSALTSENSOR:INTERSEMA, MS5534-AP, 20000
I033638FXA3941ENL4247REX
LCAMSBVER:5FWVER:F26300
C130218040546130218000103
C0000000N00000000WTAKEOFF     
C3207549S11656849EBEVAIR      
C3138316S11646899EGrass Valley
C3155866S11750649ESHACKLTN    
C3231466S11704865EPingelly    
C3207549S11656849EBEVAIR      
C0000000N00000000WLANDING     
B0413203207337S11656858EA0020900209000000000000
B0413223207337S11656858EA0021000209000000000000
B0413243207337S11656858EA0021000209000000000000
B0413263207337S11656858EA0021000209000000000000
B0413283207337S11656858EA0021100209000000000000
B0413303207337S11656858EA0021100209000000000000
B0413323207337S11656858EA0021100209000000000000
B0413343207337S11656858EA0021000209000000000000
B0413363207337S11656858EA0021000209000000000000
B0413383207337S11656858EA0021000209000000000000
B0413373207337S11656858EA0021100209000000000000
B0413393207337S11656858EA0021100208000000000000
B0413413207337S11656858EA0021100208000000000000
B0413433207338S11656860EA0021000208000000000000
B0413453207341S11656861EA0021100208000000000000
B0413463207342S11656862EA0021100208000000000000
B0413503207363S11656879EA0021100207000000000000
B0413543207397S11656904EA0021100206000000000000
B0413583207445S11656935EA0021100206000000000000
B0414023207501S11656971EA0021600211000000000000
B0414063207560S11657016EA0021700211000000000000
B0414103207622S11657064EA0022300220000000000000
B0414143207681S11657118EA0023200235000000000000
B0414183207740S11657173EA0025000254000000000000
B0414223207794S11657228EA0027200278000000000000
B0414263207848S11657277EA0028900301000000000000
B0414303207902S11657322EA0031500327000000000000
B0414343207954S11657376EA0034000354000000000000
B0414383208006S11657428EA0036400370000000000000
B0414423208058S11657477EA0037400387000000000000
B0414463208113S11657523EA0039700406000000000000
B0414503208168S11657564EA0041100427000000000000
B0414543208223S11657602EA0043400449000000000000
B0414583208274S11657646EA0046700480000000000000
B0415023208314S11657709EA0048800505000000000000
B0415063208343S11657785EA0051100526000000000000
B0415103208364S11657870EA0053100549000000000000
B0415143208379S11657959EA0054800563000000000000
B0415183208392S11658049EA0056400580000000000000
B0415223208405S11658138EA0058500603000000000000
B0415263208420S11658221EA0060300619000000000000
B0415303208438S11658305EA0061600628000000000000
B0415343208455S11658388EA0062600639000000000000
B0415383208473S11658474EA0063500648000000000000
B0415423208491S11658564EA0064300657000000000000
B0415463208515S11658651EA0065100667000000000000
B0415503208532S11658738EA0066600685000000000000
B0415543208530S11658827EA0068400702000000000000
B0415583208509S11658912EA0070000720000000000000
B0416023208464S11658992EA0070900723000000000000
B0416063208398S11659059EA0071600733000000000000
B0416103208312S11659105EA0072700742000000000000
B0416143208217S11659118EA0074100761000000000000
B0416183208131S11659103EA0076900791000000000000
B0416223208053S11659118EA0077700799000000000000
B0416263208021S11659183EA0078700808000000000000
B0416303208045S11659241EA0079100811000000000000
B0416343208103S11659254EA0079500818000000000000
B0416383208138S11659209EA0080600828000000000000
B0416423208117S11659142EA0080700825000000000000
B0416463208053S11659124EA0081100830000000000000
B0416503207999S11659168EA0080700825000000000000
B0416543208006S11659235EA0081300833000000000000
B0416583208060S11659240EA0082400845000000000000
B0417023208078S11659183EA0083100850000000000000
B0417063208041S11659126EA0083200851000000000000
B0417103207980S11659127EA0083500853000000000000
B0417143207943S11659179EA0083500852000000000000
B0417183207954S11659240EA0084000861000000000000
B0417223208000S11659241EA0085000866000000000000
B0417263208006S11659178EA0085000866000000000000
B0417303207958S11659131EA0084800866000000000000
B0417343207897S11659145EA0085100865000000000000
B0417383207867S11659206EA0084900867000000000000
B0417423207875S11659269EA0085900881000000000000
B0417463207917S11659284EA0086800886000000000000
B0417503207939S11659230EA0086900886000000000000
B0417543207902S11659170EA0087500896000000000000
B0417583207841S11659162EA0088000899000000000000
B0418023207792S11659206EA0088200898000000000000
B0418063207779S11659275EA0088100902000000000000
B0418103207805S11659331EA0088900912000000000000
B0418143207856S11659339EA0089800921000000000000
B0418183207888S11659292EA0091300936000000000000
B0418223207880S11659228EA0092200946000000000000
B0418263207835S11659184EA0092900950000000000000
B0418303207771S11659191EA0092900952000000000000
B0418343207736S11659248EA0093600960000000000000
B0418383207748S11659310EA0094000964000000000000
B0418423207794S11659328EA0095100975000000000000
B0418463207819S11659280EA0096100984000000000000
B0418503207780S11659224EA0096200984000000000000
B0418543207713S11659219EA0096300987000000000000
B0418583207670S11659272EA0097200998000000000000
B0419023207675S11659339EA0097600998000000000000
B0419063207723S11659371EA0098101007000000000000
B0419103207770S11659341EA0099101016000000000000
B0419143207775S11659272EA0099201015000000000000
B0419183207727S11659215EA0099101014000000000000
B0419223207653S11659213EA0099101013000000000000
B0419263207602S11659266EA0099701022000000000000
B0419303207606S11659337EA0100401028000000000000
B0419343207655S11659366EA0100901035000000000000
B0419383207693S11659319EA0102101050000000000000
B0419423207683S11659249EA0102601048000000000000
B0419463207629S11659202EA0102601051000000000000
B0419503207562S11659211EA0102901053000000000000
B0419543207524S11659272EA0103201059000000000000
B0419583207544S11659339EA0103801061000000000000
B0420023207596S11659340EA0104401072000000000000
B0420063207616S11659283EA0105801084000000000000
B0420103207584S11659223EA0105701082000000000000
B0420143207520S11659213EA0106001085000000000000
B0420183207469S11659257EA0106201090000000000000
B0420223207467S11659327EA0107001100000000000000
B0420263207510S11659360EA0107801106000000000000
B0420303207549S11659322EA0108201107000000000000
B0420343207544S11659250EA0107901103000000000000
B0420383207489S11659201EA0107801102000000000000
B0420423207423S11659214EA0107901104000000000000
B0420463207394S11659284EA0108601114000000000000
B0420503207417S11659349EA0109801124000000000000
B0420543207468S11659366EA0110001126000000000000
B0420583207506S11659321EA0110101128000000000000
B0421023207499S11659246EA0109901120000000000000
B0421063207442S11659201EA0109301119000000000000
B0421103207372S11659207EA0109501120000000000000
B0421143207313S11659253EA0110401133000000000000
B0421183207294S11659322EA0111901150000000000000
B0421223207326S11659360EA0113001158000000000000
B0421263207367S11659331EA0113201161000000000000
B0421303207359S11659266EA0113401162000000000000
B0421343207308S11659231EA0114101173000000000000
B0421383207251S11659254EA0114801174000000000000
B0421423207234S11659321EA0114801178000000000000
B0421463207273S11659358EA0115201182000000000000
B0421503207317S11659327EA0115801191000000000000
B0421543207319S11659263EA0117001201000000000000
B0421583207273S11659222EA0117901210000000000000
B0422023207213S11659237EA0118201211000000000000
B0422063207185S11659304EA0117801207000000000000
B0422103207208S11659361EA0118601215000000000000
B0422143207260S11659365EA0119201221000000000000
B0422183207286S11659311EA0119501224000000000000
B0422223207255S11659256EA0119801232000000000000
B0422263207195S11659245EA0120701240000000000000
B0422303207143S11659284EA0120701235000000000000
B0422343207128S11659352EA0120901242000000000000
B0422383207147S11659405EA0121201237000000000000
B0422423207195S11659417EA0119701222000000000000
B0422463207239S11659374EA0119501222000000000000
B0422503207251S11659302EA0119101219000000000000
B0422543207219S11659235EA0119201220000000000000
B0422583207156S11659218EA0120601238000000000000
B0423023207125S11659269EA0122001251000000000000
B0423063207146S11659324EA0121901248000000000000
B0423103207200S11659336EA0122101252000000000000
B0423143207238S11659285EA0122301248000000000000
B0423183207230S11659219EA0121201236000000000000
B0423223207178S11659176EA0119501220000000000000
B0423263207113S11659176EA0119201221000000000000
B0423303207056S11659217EA0119501228000000000000
B0423343207013S11659276EA0118901216000000000000
B0423383207007S11659356EA0118801223000000000000
B0423423207043S11659412EA0120201234000000000000
B0423463207091S11659395EA0120901243000000000000
B0423503207092S11659327EA0121001242000000000000
B0423543207040S11659288EA0121401246000000000000
B0423583206982S11659313EA0121301246000000000000
B0424023206956S11659380EA0121601254000000000000
B0424063206978S11659441EA0122101254000000000000
B0424103207030S11659447EA0122201257000000000000
B0424143207065S11659396EA0122301255000000000000
B0424183207056S11659323EA0121601245000000000000
B0424223207004S11659274EA0121801252000000000000
B0424263206943S11659284EA0121901250000000000000
B0424303206904S11659344EA0121501251000000000000
B0424343206909S11659414EA0122001254000000000000
B0424383206957S11659441EA0122101254000000000000
B0424423207001S11659402EA0121401246000000000000
B0424463207021S11659328EA0120701237000000000000
B0424503207059S11659265EA0120301233000000000000
B0424543207116S11659232EA0119901228000000000000
B0424583207174S11659227EA0119501225000000000000
B0425023207230S11659218EA0119801228000000000000
B0425063207284S11659201EA0119501221000000000000
B0425103207338S11659180EA0118101207000000000000
B0425143207395S11659159EA0117101196000000000000
B0425183207455S11659159EA0116001185000000000000
B0425223207511S11659181EA0115301177000000000000
B0425263207567S11659204EA0115001171000000000000
B0425303207623S11659206EA0114401169000000000000
B0425343207675S11659198EA0114201169000000000000
B0425383207720S11659181EA0114001164000000000000
B0425423207763S11659150EA0112801150000000000000
B0425463207802S11659103EA0111801141000000000000
B0425503207836S11659050EA0110901133000000000000
B0425543207866S11658993EA0110401128000000000000
B0425583207891S11658933EA0110301127000000000000
B0426023207909S11658871EA0110001122000000000000
B0426063207922S11658806EA0109001116000000000000
B0426103207941S11658746EA0108801111000000000000
B0426143207973S11658690EA0108301106000000000000
B0426183207997S11658629EA0108601114000000000000
B0426223208034S11658585EA0110101127000000000000
B0426263208080S11658600EA0111001137000000000000
B0426303208082S11658668EA0112301150000000000000
B0426343208027S11658716EA0113001157000000000000
B0426383207960S11658712EA0113501161000000000000
B0426423207909S11658665EA0114001166000000000000
B0426463207893S11658600EA0114801178000000000000
B0426503207914S11658547EA0116201188000000000000
B0426543207961S11658531EA0116801196000000000000
B0426583208004S11658567EA0117101196000000000000
B0427023208006S11658637EA0117801205000000000000
B0427063207965S11658704EA0118301208000000000000
B0427103207893S11658732EA0118301208000000000000
B0427143207826S11658702EA0118501210000000000000
B0427183207804S11658632EA0118701209000000000000
B0427223207835S11658580EA0119301223000000000000
B0427263207885S11658578EA0120401232000000000000
B0427303207924S11658621EA0120801234000000000000
B0427343207931S11658693EA0121301240000000000000
B0427383207893S11658765EA0121601243000000000000
B0427423207824S11658804EA0121601243000000000000
B0427463207752S11658795EA0121801246000000000000
B0427503207700S11658745EA0121901248000000000000
B0427543207679S11658677EA0122401250000000000000
B0427583207687S11658615EA0122901256000000000000
B0428023207732S11658589EA0122901253000000000000
B0428063207787S11658594EA0122901256000000000000
B0428103207845S11658602EA0122601253000000000000
B0428143207902S11658603EA0121801246000000000000
B0428183207965S11658606EA0120801238000000000000
B0428223208031S11658613EA0120901239000000000000
B0428263208096S11658616EA0121001241000000000000
B0428303208162S11658611EA0121101241000000000000
B0428343208227S11658604EA0120801241000000000000
B0428383208285S11658599EA0121201246000000000000
B0428423208340S11658595EA0121201241000000000000
B0428463208396S11658589EA0120401233000000000000
B0428503208451S11658574EA0119601225000000000000
B0428543208506S11658560EA0119001220000000000000
B0428583208560S11658555EA0118701216000000000000
B0429023208612S11658556EA0118601214000000000000
B0429063208663S11658564EA0118001210000000000000
B0429103208714S11658570EA0117901208000000000000
B0429143208764S11658578EA0118201215000000000000
B0429183208816S11658583EA0118001206000000000000
B0429223208872S11658580EA0116901199000000000000
B0429263208927S11658580EA0116701199000000000000
B0429303208980S11658572EA0116401193000000000000
B0429343209032S11658560EA0115401180000000000000
B0429383209087S11658542EA0114301167000000000000
B0429423209143S11658522EA0112901153000000000000
B0429463209196S11658485EA0111801143000000000000
B0429503209240S11658429EA0111301134000000000000
B0429543209270S11658364EA0110801135000000000000
B0429583209291S11658294EA0111001137000000000000
B0430023209306S11658226EA0111201135000000000000
B0430063209321S11658156EA0110201125000000000000
B0430103209334S11658082EA0110001127000000000000
B0430143209312S11658008EA0111301144000000000000
B0430183209248S11657982EA0113001160000000000000
B0430223209195S11658032EA0112901156000000000000
B0430263209205S11658097EA0113501164000000000000
B0430303209248S11658102EA0113901167000000000000
B0430343209273S11658053EA0114301175000000000000
B0430383209256S11657991EA0115501188000000000000
B0430423209200S11657965EA0116301192000000000000
B0430463209143S11658002EA0116101188000000000000
B0430503209139S11658066EA0116101190000000000000
B0430543209180S11658087EA0115701186000000000000
B0430583209219S11658048EA0116101193000000000000
B0431023209215S11657979EA0117301205000000000000
B0431063209165S11657931EA0118101213000000000000
B0431103209097S11657941EA0118201214000000000000
B0431143209061S11658006EA0118101210000000000000
B0431183209078S11658066EA0118101213000000000000
B0431223209123S11658080EA0118101212000000000000
B0431263209167S11658049EA0118401218000000000000
B0431303209166S11657987EA0119701230000000000000
B0431343209114S11657944EA0119801228000000000000
B0431383209046S11657959EA0119801229000000000000
B0431423209003S11658014EA0120301232000000000000
B0431463209003S11658079EA0120001230000000000000
B0431503209041S11658115EA0119901229000000000000
B0431543209089S11658102EA0120201236000000000000
B0431583209115S11658052EA0121401249000000000000
B0432023209102S11657987EA0122301255000000000000
B0432063209054S11657935EA0122301255000000000000
B0432103208985S11657937EA0122901263000000000000
B0432143208937S11657988EA0123401267000000000000
B0432183208928S11658053EA0123401265000000000000
B0432223208954S11658102EA0123001261000000000000
B0432263209002S11658112EA0122801262000000000000
B0432303209037S11658066EA0123101266000000000000
B0432343209027S11657998EA0123601270000000000000
B0432383208968S11657956EA0123801270000000000000
B0432423208898S11657972EA0123401268000000000000
B0432463208859S11658035EA0123401268000000000000
B0432503208863S11658102EA0123301268000000000000
B0432543208894S11658157EA0123501268000000000000
B0432583208942S11658170EA0124101275000000000000
B0433023208974S11658130EA0124401278000000000000
B0433063208954S11658067EA0124201274000000000000
B0433103208892S11658040EA0124301278000000000000
B0433143208827S11658060EA0124601278000000000000
B0433183208789S11658118EA0124801283000000000000
B0433223208798S11658179EA0124901284000000000000
B0433263208842S11658206EA0125401288000000000000
B0433303208888S11658190EA0125701292000000000000
B0433343208906S11658132EA0126601302000000000000
B0433383208880S11658071EA0126501297000000000000
B0433423208815S11658054EA0126001293000000000000
B0433463208753S11658095EA0126001293000000000000
B0433503208734S11658165EA0126101299000000000000
B0433543208759S11658219EA0126501300000000000000
B0433583208805S11658230EA0126901304000000000000
B0434023208840S11658192EA0127201306000000000000
B0434063208844S11658126EA0127601312000000000000
B0434103208812S11658069EA0127501306000000000000
B0434143208750S11658050EA0126701297000000000000
B0434183208695S11658091EA0126301298000000000000
B0434223208678S11658157EA0126301296000000000000
B0434263208707S11658206EA0126201296000000000000
B0434303208754S11658208EA0126201299000000000000
B0434343208782S11658161EA0127001305000000000000
B0434383208766S11658096EA0126501296000000000000
B0434423208707S11658061EA0125201283000000000000
B0434463208639S11658080EA0124801282000000000000
B0434503208594S11658140EA0124701282000000000000
B0434543208584S11658213EA0124601280000000000000
B0434583208610S11658273EA0124601283000000000000
B0435023208654S11658307EA0125201287000000000000
B0435063208702S11658294EA0125701290000000000000
B0435103208723S11658238EA0125701292000000000000
B0435143208707S11658173EA0125501286000000000000
B0435183208659S11658121EA0124301271000000000000
B0435223208591S11658109EA0123501265000000000000
B0435263208532S11658147EA0123401263000000000000
B0435303208509S11658213EA0123401264000000000000
B0435343208533S11658268EA0123501267000000000000
B0435383208578S11658282EA0123701266000000000000
B0435423208620S11658253EA0123101261000000000000
B0435463208638S11658195EA0122801257000000000000
B0435503208630S11658125EA0121601242000000000000
B0435543208604S11658053EA0120601235000000000000
B0435583208568S11657984EA0120201232000000000000
B0436023208524S11657919EA0119601226000000000000
B0436063208473S11657858EA0119501225000000000000
B0436103208422S11657797EA0119301220000000000000
B0436143208369S11657736EA0118901217000000000000
B0436183208313S11657677EA0118401214000000000000
B0436223208253S11657621EA0118301213000000000000
B0436263208194S11657567EA0118101213000000000000
B0436303208136S11657510EA0118401213000000000000
B0436343208083S11657452EA0118301215000000000000
B0436383208027S11657398EA0118201211000000000000
B0436423207969S11657345EA0117901209000000000000
B0436463207914S11657291EA0117901209000000000000
B0436503207857S11657238EA0117801208000000000000
B0436543207800S11657182EA0117601206000000000000
B0436583207741S11657126EA0117001200000000000000
B0437023207679S11657073EA0116301192000000000000
B0437063207612S11657022EA0115601184000000000000
B0437103207545S11656971EA0115001177000000000000
B0437143207473S11656922EA0114101167000000000000
B0437183207394S11656886EA0113501159000000000000
B0437223207310S11656866EA0112901156000000000000
B0437263207224S11656857EA0112301146000000000000
B0437303207135S11656854EA0111601143000000000000
B0437343207047S11656851EA0112101151000000000000
B0437383206961S11656851EA0113201160000000000000
B0437423206881S11656858EA0113301164000000000000
B0437463206805S11656870EA0113801168000000000000
B0437503206731S11656886EA0113501163000000000000
B0437543206654S11656904EA0113001155000000000000
B0437583206574S11656917EA0112001141000000000000
B0438023206489S11656930EA0110501127000000000000
B0438063206406S11656949EA0110301131000000000000
B0438103206328S11656975EA0110601135000000000000
B0438143206251S11657004EA0110401131000000000000
B0438183206177S11657038EA0110201129000000000000
B0438223206103S11657070EA0109801121000000000000
B0438263206024S11657088EA0109001112000000000000
B0438303205941S11657092EA0108401109000000000000
B0438343205859S11657091EA0107801101000000000000
B0438383205774S11657095EA0106901092000000000000
B0438423205692S11657098EA0106601092000000000000
B0438463205612S11657098EA0106401087000000000000
B0438503205534S11657092EA0106001084000000000000
B0438543205454S11657081EA0105801082000000000000
B0438583205378S11657064EA0105301078000000000000
B0439023205301S11657047EA0105101074000000000000
B0439063205223S11657044EA0105001078000000000000
B0439103205148S11657068EA0106401093000000000000
B0439143205115S11657130EA0107301101000000000000
B0439183205142S11657177EA0106801093000000000000
B0439223205188S11657163EA0106101085000000000000
B0439263205205S11657104EA0105401076000000000000
B0439303205179S11657034EA0105101078000000000000
B0439343205132S11656977EA0106001088000000000000
B0439383205067S11656945EA0105701080000000000000
B0439423204996S11656926EA0104701068000000000000
B0439463204919S11656912EA0103201046000000000000
B0439503204833S11656903EA0101301030000000000000
B0439543204749S11656878EA0100301021000000000000
B0439583204667S11656847EA0099901018000000000000
B0440023204590S11656810EA0099501012000000000000
B0440063204515S11656766EA0098401003000000000000
B0440103204439S11656722EA0098000998000000000000
B0440143204362S11656680EA0097400993000000000000
B0440183204284S11656643EA0096500983000000000000
B0440223204205S11656607EA0095600969000000000000
B0440263204127S11656568EA0094300958000000000000
B0440303204054S11656516EA0093100945000000000000
B0440343203980S11656462EA0091700930000000000000
B0440383203898S11656420EA0091000925000000000000
B0440423203815S11656386EA0090600922000000000000
B0440463203732S11656358EA0090000916000000000000
B0440503203649S11656324EA0089500913000000000000
B0440543203567S11656293EA0089500914000000000000
B0440583203482S11656275EA0089300907000000000000
B0441023203398S11656258EA0088600902000000000000
B0441063203312S11656242EA0088200893000000000000
B0441103203225S11656230EA0087000878000000000000
B0441143203134S11656221EA0085200863000000000000
B0441183203044S11656210EA0084500857000000000000
B0441223202957S11656197EA0084200857000000000000
B0441263202874S11656178EA0084300855000000000000
B0441303202791S11656168EA0083900853000000000000
B0441343202709S11656163EA0084400863000000000000
B0441383202630S11656162EA0084900864000000000000
B0441423202552S11656168EA0084800864000000000000
B0441463202474S11656180EA0084500860000000000000
B0441503202397S11656194EA0083500849000000000000
B0441543202318S11656202EA0082800841000000000000
B0441583202237S11656195EA0081700828000000000000
B0442023202164S11656164EA0082000835000000000000
B0442063202141S11656097EA0083600852000000000000
B0442103202181S11656071EA0084800863000000000000
B0442143202217S11656113EA0084500854000000000000
B0442183202215S11656186EA0083500844000000000000
B0442223202167S11656250EA0083100846000000000000
B0442263202098S11656281EA0083800851000000000000
B0442303202025S11656277EA0084100857000000000000
B0442343202004S11656215EA0085600875000000000000
B0442383202047S11656206EA0086800881000000000000
B0442423202060S11656271EA0086600878000000000000
B0442463202015S11656331EA0086800885000000000000
B0442503201950S11656323EA0087800895000000000000
B0442543201930S11656258EA0088500901000000000000
B0442583201973S11656229EA0089300908000000000000
B0443023202013S11656273EA0089800912000000000000
B0443063201993S11656345EA0090200913000000000000
B0443103201928S11656360EA0090400918000000000000
B0443143201895S11656302EA0090600924000000000000
B0443183201921S11656250EA0091600934000000000000
B0443223201969S11656262EA0092400941000000000000
B0443263201986S11656324EA0093400950000000000000
B0443303201957S11656393EA0093500951000000000000
B0443343201895S11656425EA0093800956000000000000
B0443383201831S11656409EA0094100956000000000000
B0443423201808S11656346EA0094200959000000000000
B0443463201847S11656318EA0095400971000000000000
B0443503201868S11656375EA0096300978000000000000
B0443543201821S11656427EA0096600986000000000000
B0443583201762S11656410EA0097200987000000000000
B0444023201747S11656345EA0097000986000000000000
B0444063201788S11656321EA0097700994000000000000
B0444103201809S11656383EA0098301002000000000000
B0444143201756S11656431EA0099001011000000000000
B0444183201699S11656402EA0100001019000000000000
B0444223201697S11656340EA0100101020000000000000
B0444263201742S11656332EA0100801029000000000000
B0444303201755S11656393EA0101601036000000000000
B0444343201708S11656445EA0102401044000000000000
B0444383201645S11656435EA0103301053000000000000
B0444423201616S11656375EA0103401052000000000000
B0444463201640S11656325EA0103501058000000000000
B0444503201684S11656336EA0104501070000000000000
B0444543201697S11656394EA0105601077000000000000
B0444583201655S11656451EA0105701076000000000000
B0445023201588S11656450EA0106101082000000000000
B0445063201557S11656386EA0106501085000000000000
B0445103201584S11656337EA0107401095000000000000
B0445143201627S11656357EA0108501105000000000000
B0445183201621S11656424EA0109001109000000000000
B0445223201561S11656463EA0109201113000000000000
B0445263201500S11656438EA0110101125000000000000
B0445303201476S11656379EA0110501126000000000000
B0445343201499S11656327EA0110401126000000000000
B0445383201541S11656342EA0111301138000000000000
B0445423201543S11656406EA0112201144000000000000
B0445463201493S11656458EA0112701152000000000000
B0445503201426S11656453EA0113301156000000000000
B0445543201383S11656397EA0113301155000000000000
B0445583201391S11656328EA0113501159000000000000
B0446023201434S11656305EA0114001163000000000000
B0446063201463S11656350EA0114801173000000000000
B0446103201435S11656415EA0115701182000000000000
B0446143201366S11656423EA0116301187000000000000
B0446183201324S11656366EA0116601190000000000000
B0446223201339S11656302EA0117101195000000000000
B0446263201387S11656288EA0117201196000000000000
B0446303201414S11656342EA0117901206000000000000
B0446343201387S11656407EA0118701212000000000000
B0446383201319S11656419EA0118901217000000000000
B0446423201265S11656363EA0119701223000000000000
B0446463201261S11656289EA0120801234000000000000
B0446503201301S11656255EA0121201234000000000000
B0446543201348S11656279EA0120701231000000000000
B0446583201362S11656345EA0120201223000000000000
B0447023201317S11656403EA0119901228000000000000
B0447063201246S11656411EA0120801231000000000000
B0447103201172S11656389EA0120901235000000000000
B0447143201094S11656367EA0121501244000000000000
B0447183201012S11656345EA0121301235000000000000
B0447223200924S11656324EA0120201226000000000000
B0447263200834S11656303EA0119401217000000000000
B0447303200745S11656280EA0118501210000000000000
B0447343200655S11656258EA0118001204000000000000
B0447383200568S11656236EA0117501200000000000000
B0447423200478S11656216EA0116901190000000000000
B0447463200390S11656201EA0116201183000000000000
B0447503200301S11656178EA0115401177000000000000
B0447543200215S11656158EA0114801171000000000000
B0447583200130S11656130EA0114101165000000000000
B0448023200045S11656102EA0113601159000000000000
B0448063159959S11656060EA0112301146000000000000
B0448103159884S11656002EA0111501137000000000000
B0448143159816S11655935EA0111401136000000000000
B0448183159757S11655866EA0111001130000000000000
B0448223159701S11655795EA0110101124000000000000
B0448263159645S11655725EA0109701118000000000000
B0448303159591S11655656EA0109201117000000000000
B0448343159539S11655591EA0109001114000000000000
B0448383159487S11655528EA0108201105000000000000
B0448423159439S11655463EA0107601097000000000000
B0448463159400S11655395EA0107101093000000000000
B0448503159363S11655326EA0106701087000000000000
B0448543159324S11655258EA0106201085000000000000
B0448583159285S11655192EA0106501092000000000000
B0449023159248S11655131EA0107001092000000000000
B0449063159216S11655067EA0106901095000000000000
B0449103159186S11655005EA0107401097000000000000
B0449143159156S11654942EA0107001094000000000000
B0449183159129S11654878EA0106301085000000000000
B0449223159104S11654810EA0105501071000000000000
B0449263159056S11654752EA0104501062000000000000
B0449303158986S11654735EA0103801059000000000000
B0449343158913S11654737EA0103801060000000000000
B0449383158841S11654725EA0104201064000000000000
B0449423158774S11654695EA0103901061000000000000
B0449463158701S11654673EA0103501054000000000000
B0449503158627S11654651EA0102801048000000000000
B0449543158550S11654634EA0102601045000000000000
B0449583158477S11654600EA0101801036000000000000
B0450023158399S11654573EA0100901026000000000000
B0450063158319S11654557EA0099901016000000000000
B0450103158236S11654548EA0099201009000000000000
B0450143158152S11654542EA0098601002000000000000
B0450183158070S11654537EA0097900996000000000000
B0450223157987S11654531EA0097100989000000000000
B0450263157905S11654525EA0097100989000000000000
B0450303157825S11654516EA0096700983000000000000
B0450343157743S11654507EA0095900974000000000000
B0450383157660S11654505EA0095200968000000000000
B0450423157578S11654513EA0094700960000000000000
B0450463157495S11654524EA0093500949000000000000
B0450503157410S11654538EA0092700939000000000000
B0450543157328S11654559EA0091600929000000000000
B0450583157248S11654583EA0090500919000000000000
B0451023157167S11654608EA0089700915000000000000
B0451063157090S11654634EA0089200906000000000000
B0451103157016S11654669EA0088400896000000000000
B0451143156945S11654712EA0087300887000000000000
B0451183156872S11654754EA0086700887000000000000
B0451223156794S11654760EA0087300893000000000000
B0451263156716S11654747EA0087400892000000000000
B0451303156640S11654743EA0087500895000000000000
B0451343156579S11654786EA0087600892000000000000
B0451383156582S11654851EA0087300891000000000000
B0451423156625S11654860EA0087200890000000000000
B0451463156657S11654821EA0086500882000000000000
B0451503156664S11654758EA0085900871000000000000
B0451543156622S11654693EA0085400872000000000000
B0451583156555S11654700EA0086400881000000000000
B0452023156538S11654765EA0086400880000000000000
B0452063156581S11654778EA0086000878000000000000
B0452103156598S11654728EA0086400884000000000000
B0452143156562S11654672EA0086800886000000000000
B0452183156495S11654664EA0087000887000000000000
B0452223156452S11654717EA0086900886000000000000
B0452263156468S11654765EA0086400878000000000000
B0452303156513S11654755EA0085500872000000000000
B0452343156538S11654702EA0085700875000000000000
B0452383156510S11654637EA0085900876000000000000
B0452423156458S11654583EA0086200878000000000000
B0452463156399S11654534EA0086100878000000000000
B0452503156327S11654508EA0086100878000000000000
B0452543156253S11654525EA0086200881000000000000
B0452583156228S11654592EA0086800885000000000000
B0453023156273S11654609EA0087400896000000000000
B0453063156289S11654548EA0088100899000000000000
B0453103156240S11654488EA0088200899000000000000
B0453143156166S11654494EA0088100898000000000000
B0453183156114S11654560EA0087500889000000000000
B0453223156130S11654637EA0087000887000000000000
B0453263156187S11654652EA0087900901000000000000
B0453303156227S11654608EA0089300915000000000000
B0453343156210S11654539EA0089900920000000000000
B0453383156144S11654503EA0089700915000000000000
B0453423156079S11654539EA0089900920000000000000
B0453463156057S11654613EA0090000921000000000000
B0453503156085S11654670EA0089900919000000000000
B0453543156136S11654693EA0090000921000000000000
B0453583156165S11654646EA0090900933000000000000
B0454023156122S11654591EA0091400935000000000000
B0454063156053S11654600EA0091500936000000000000
B0454103156013S11654665EA0091200933000000000000
B0454143156052S11654700EA0091100930000000000000
B0454183156074S11654639EA0091800940000000000000
B0454223156027S11654582EA0091800940000000000000
B0454263155955S11654600EA0091900938000000000000
B0454303155935S11654673EA0092100943000000000000
B0454343155974S11654709EA0092400948000000000000
B0454383156011S11654673EA0092800951000000000000
B0454423155992S11654604EA0093300955000000000000
B0454463155923S11654582EA0093100951000000000000
B0454503155867S11654633EA0092900948000000000000
B0454543155866S11654703EA0093300954000000000000
B0454583155910S11654735EA0093100950000000000000
B0455023155954S11654707EA0093400956000000000000
B0455063155961S11654642EA0093600957000000000000
B0455103155918S11654582EA0093400953000000000000
B0455143155845S11654582EA0092900947000000000000
B0455183155795S11654642EA0092900948000000000000
B0455223155799S11654712EA0092800950000000000000
B0455263155837S11654763EA0092800946000000000000
B0455303155886S11654798EA0092000940000000000000
B0455343155933S11654791EA0092900952000000000000
B0455383155909S11654725EA0094100968000000015000
B0455423155838S11654721EA0095500978000000015000
B0455463155794S11654785EA0095300979000000000000
B0455503155811S11654852EA0095600982000000000000
B0455543155851S11654846EA0097101000000000000000
B0455583155849S11654787EA0097801005000000000000
B0456023155794S11654742EA0098201009000000000000
B0456063155729S11654769EA0099101019000000000000
B0456103155715S11654837EA0099201018000000000000
B0456143155755S11654858EA0100001027000000000000
B0456183155780S11654815EA0100601030000000000000
B0456223155753S11654748EA0101001037000000000000
B0456263155685S11654745EA0101501042000000000000
B0456303155662S11654813EA0101801042000000000000
B0456343155701S11654845EA0102001047000000000000
B0456383155724S11654798EA0102901059000000000000
B0456423155694S11654734EA0103501061000000000000
B0456463155626S11654712EA0103701063000000000000
B0456503155571S11654759EA0103901064000000000000
B0456543155568S11654832EA0103801065000000000000
B0456583155610S11654869EA0104101069000000000000
B0457023155636S11654829EA0105401084000000000000
B0457063155598S11654768EA0105601081000000000000
B0457103155525S11654758EA0106001087000000000000
B0457143155472S11654807EA0106701092000000000000
B0457183155473S11654875EA0106901094000000000000
B0457223155507S11654919EA0107001096000000000000
B0457263155548S11654911EA0107001096000000000000
B0457303155551S11654852EA0107101096000000000000
B0457343155504S11654798EA0106901095000000000000
B0457383155435S11654778EA0107501104000000000000
B0457423155382S11654823EA0108001106000000000000
B0457463155386S11654888EA0108001108000000000000
B0457503155428S11654902EA0108701114000000000000
B0457543155452S11654860EA0109101117000000000000
B0457583155434S11654794EA0108801115000000000000
B0458023155374S11654748EA0109201121000000000000
B0458063155301S11654738EA0109501121000000000000
B0458103155226S11654743EA0109301120000000000000
B0458143155152S11654755EA0109301120000000000000
B0458183155079S11654772EA0108501106000000000000
B0458223155000S11654784EA0107201095000000000000
B0458263154918S11654795EA0107501105000000000000
B0458303154882S11654860EA0109401127000000000000
B0458343154921S11654893EA0110701138000000000000
B0458383154954S11654852EA0111201142000000000000
B0458423154941S11654787EA0112101148000000000000
B0458463154879S11654742EA0111901147000000000000
B0458503154811S11654772EA0113001162000000000000
B0458543154809S11654842EA0114201174000000000000
B0458583154850S11654875EA0114601177000000000000
B0459023154885S11654834EA0115401184000000000000
B0459063154870S11654765EA0115301179000000000000
B0459103154809S11654713EA0115001177000000000000
B0459143154731S11654702EA0115601190000000000000
B0459183154690S11654759EA0117301208000000000000
B0459223154718S11654800EA0117601203000000000000
B0459263154766S11654780EA0117201205000000000000
B0459303154787S11654719EA0118601220000000000000
B0459343154753S11654648EA0118401210000000000000
B0459383154677S11654624EA0118301216000000000000
B0459423154606S11654655EA0119101222000000000000
B0459463154583S11654722EA0119501229000000000000
B0459503154614S11654763EA0119501224000000000000
B0459543154658S11654738EA0119401226000000000000
B0459583154675S11654670EA0120001232000000000000
B0500023154658S11654596EA0120101232000000000000
B0500063154605S11654543EA0120101233000000000000
B0500103154531S11654526EA0120201237000000000000
B0500143154464S11654560EA0120701242000000000000
B0500183154451S11654622EA0121701252000000000000
B0500223154490S11654641EA0121901249000000000000
B0500263154524S11654594EA0121901254000000000000
B0500303154511S11654521EA0123301267000000000000
B0500343154453S11654479EA0124101275000000000000
B0500383154382S11654491EA0124801279000000000000
B0500423154341S11654546EA0124701277000000000000
B0500463154354S11654596EA0124901285000000000000
B0500503154393S11654600EA0125801289000000000000
B0500543154419S11654551EA0125501281000000000000
B0500583154397S11654478EA0125601287000000000000
B0501023154338S11654433EA0126101292000000000000
B0501063154264S11654423EA0125501282000000000000
B0501103154182S11654423EA0124401270000000000000
B0501143154096S11654420EA0123301260000000000000
B0501183154008S11654408EA0123301263000000000000
B0501223153921S11654397EA0123101259000000000000
B0501263153831S11654384EA0122601253000000000000
B0501303153740S11654370EA0121901245000000000000
B0501343153645S11654355EA0120901234000000000000
B0501383153550S11654338EA0119801225000000000000
B0501423153455S11654317EA0119401222000000000000
B0501463153364S11654292EA0119101221000000000000
B0501503153279S11654262EA0119101219000000000000
B0501543153194S11654232EA0118801214000000000000
B0501583153111S11654204EA0118301211000000000000
B0502023153029S11654178EA0117601200000000000000
B0502063152946S11654152EA0117401198000000000000
B0502103152865S11654134EA0117401195000000000000
B0502143152785S11654110EA0116601187000000000000
B0502183152704S11654093EA0116001178000000000000
B0502223152622S11654075EA0115101170000000000000
B0502263152543S11654049EA0114801171000000000000
B0502303152469S11654014EA0114601164000000000000
B0502343152392S11653980EA0113701156000000000000
B0502383152315S11653949EA0114601171000000000000
B0502423152241S11653922EA0115301177000000000000
B0502463152162S11653898EA0114601165000000000000
B0502503152079S11653874EA0113501155000000000000
B0502543151997S11653851EA0112601150000000000000
B0502583151918S11653828EA0112201145000000000000
B0503023151837S11653802EA0111601139000000000000
B0503063151759S11653773EA0111301139000000000000
B0503103151684S11653742EA0111001134000000000000
B0503143151609S11653707EA0109901122000000000000
B0503183151533S11653671EA0109101113000000000000
B0503223151456S11653633EA0108501113000000000000
B0503263151395S11653578EA0109801132000000000000
B0503303151391S11653510EA0111501150000000000000
B0503343151431S11653493EA0112501154000000000000
B0503383151452S11653541EA0112101149000000000000
B0503423151418S11653601EA0111601138000000000000
B0503463151347S11653629EA0111201141000000000000
B0503503151283S11653595EA0112401156000000000000
B0503543151291S11653534EA0113701166000000000000
B0503583151330S11653555EA0114801179000000000000
B0504023151317S11653616EA0115701184000000000000
B0504063151256S11653641EA0115901191000000000000
B0504103151204S11653595EA0117101203000000000000
B0504143151209S11653532EA0117701208000000000000
B0504183151255S11653528EA0118101209000000000000
B0504223151264S11653591EA0118101210000000000000
B0504263151210S11653638EA0118601216000000000000
B0504303151143S11653616EA0119101224000000000000
B0504343151113S11653549EA0120101233000000000000
B0504383151131S11653489EA0120601235000000000000
B0504423151175S11653484EA0120901239000000000000
B0504463151193S11653534EA0121001239000000000000
B0504503151158S11653593EA0120601231000000000000
B0504543151086S11653607EA0121001244000000000000
B0504583151048S11653545EA0122501255000000000000
B0505023151083S11653506EA0122901258000000000000
B0505063151122S11653534EA0122801258000000000000
B0505103151117S11653597EA0122901255000000000000
B0505143151057S11653633EA0122801259000000000000
B0505183150983S11653617EA0122801259000000000000
B0505223150909S11653582EA0123601268000000000000
B0505263150833S11653551EA0123901267000000000000
B0505303150755S11653516EA0123601265000000000000
B0505343150677S11653480EA0123101258000000000000
B0505383150599S11653438EA0122601250000000000000
B0505423150521S11653389EA0121501243000000000000
B0505463150445S11653341EA0121901251000000000000
B0505503150368S11653298EA0122601257000000000000
B0505543150293S11653255EA0122601255000000000000
B0505583150217S11653208EA0122101247000000000000
B0506023150144S11653160EA0121801246000000000000
B0506063150074S11653116EA0121301240000000000000
B0506103149999S11653078EA0120601234000000000000
B0506143149923S11653039EA0119801222000000000000
B0506183149847S11652990EA0118901216000000000000
B0506223149771S11652947EA0118401208000000000000
B0506263149695S11652902EA0118001206000000000000
B0506303149619S11652861EA0117701201000000000000
B0506343149544S11652819EA0117201198000000000000
B0506383149470S11652780EA0116601193000000000000
B0506423149394S11652740EA0116001185000000000000
B0506463149320S11652698EA0115501181000000000000
B0506503149249S11652655EA0115001177000000000000
B0506543149177S11652610EA0114601170000000000000
B0506583149107S11652566EA0113901166000000000000
B0507023149038S11652523EA0113601162000000000000
B0507063148972S11652477EA0113201158000000000000
B0507103148904S11652433EA0112801156000000000000
B0507143148840S11652389EA0112601153000000000000
B0507183148777S11652341EA0112101147000000000000
B0507223148713S11652297EA0111801148000000000000
B0507263148648S11652258EA0112201147000000000000
B0507303148586S11652223EA0111501139000000000000
B0507343148523S11652186EA0110701131000000000000
B0507383148457S11652152EA0109901122000000000000
B0507423148391S11652115EA0109201117000000000000
B0507463148322S11652082EA0108601110000000000000
B0507503148253S11652047EA0107901103000000000000
B0507543148184S11652009EA0107101093000000000000
B0507583148110S11651981EA0105701079000000000000
B0508023148037S11651948EA0104601067000000000000
B0508063147968S11651905EA0104301069000000000000
B0508103147906S11651861EA0104601073000000000000
B0508143147846S11651816EA0104701073000000000000
B0508183147789S11651771EA0104501069000000000000
B0508223147725S11651739EA0104301069000000000000
B0508263147657S11651716EA0104501070000000000000
B0508303147594S11651738EA0105801083000000000000
B0508343147586S11651803EA0106001087000000000000
B0508383147628S11651831EA0106001083000000000000
B0508423147660S11651792EA0106101086000000000000
B0508463147643S11651730EA0106201086000000000000
B0508503147587S11651686EA0105801079000000000000
B0508543147516S11651666EA0105301078000000000000
B0508583147442S11651667EA0105801081000000000000
B0509023147400S11651729EA0105801082000000000000
B0509063147431S11651770EA0105801082000000000000
B0509103147468S11651732EA0106101086000000000000
B0509143147452S11651669EA0106901096000000000000
B0509183147399S11651625EA0106901091000000000000
B0509223147325S11651612EA0105801082000000000000
B0509263147243S11651609EA0105601078000000000000
B0509303147161S11651621EA0105401072000000000000
B0509343147078S11651636EA0104001055000000000000
B0509383146991S11651638EA0102601045000000000000
B0509423146905S11651619EA0102301047000000000000
B0509463146825S11651593EA0102101042000000000000
B0509503146751S11651552EA0101201033000000000000
B0509543146686S11651498EA0100301022000000000000
B0509583146624S11651436EA0098701007000000000000
B0510023146560S11651367EA0097300992000000000000
B0510063146499S11651293EA0096800989000000000000
B0510103146442S11651219EA0096500987000000000000
B0510143146385S11651150EA0096500987000000000000
B0510183146324S11651093EA0096800992000000000000
B0510223146253S11651056EA0097000994000000000000
B0510263146185S11651017EA0096700988000000000000
B0510303146114S11650972EA0097000997000000000000
B0510343146044S11650986EA0098401010000000000000
B0510383146035S11651055EA0098301004000000000000
B0510423146083S11651081EA0098701011000000000000
B0510463146121S11651045EA0100001027000000000000
B0510503146110S11650981EA0100001026000000000000
B0510543146048S11650942EA0100001028000000000000
B0510583145980S11650978EA0100701036000000000000
B0511023145974S11651043EA0101001038000000000000
B0511063146013S11651051EA0101701049000000000000
B0511103146032S11651002EA0102101051000000000000
B0511143146005S11650941EA0102101048000000000000
B0511183145936S11650924EA0102301054000000000000
B0511223145906S11650988EA0103301065000000000000
B0511263145938S11651028EA0103601063000000000000
B0511303145970S11650989EA0103401063000000000000
B0511343145945S11650921EA0103501064000000015000
B0511383145878S11650904EA0104501080000000015000
B0511423145840S11650967EA0105601086000000015000
B0511463145870S11651014EA0106001090000000015000
B0511503145913S11650994EA0106401091000000015000
B0511543145922S11650933EA0106401091000000015000
B0511583145886S11650871EA0106201090000000000000
B0512023145822S11650834EA0106301088000000000000
B0512063145761S11650874EA0106401089000000000000
B0512103145746S11650949EA0106501093000000000000
B0512143145775S11650995EA0107501107000000000000
B0512183145801S11650955EA0108801112000000000000
B0512223145757S11650903EA0108801115000000000000
B0512263145694S11650939EA0109701127000000000000
B0512303145696S11651006EA0110501135000000000000
B0512343145735S11651007EA0111601144000000000000
B0512383145741S11650951EA0111801147000000000000
B0512423145689S11650908EA0112601157000000000000
B0512463145629S11650936EA0113701169000000000000
B0512503145623S11650998EA0113701162000000000000
B0512543145662S11651016EA0114501177000000000000
B0512583145687S11650975EA0115101177000000000000
B0513023145658S11650912EA0115601186000000000000
B0513063145598S11650899EA0116901195000000000000
B0513103145554S11650949EA0116401191000000000000
B0513143145559S11651015EA0116201191000000000000
B0513183145602S11651033EA0116801197000000000000
B0513223145635S11650995EA0117401199000000000000
B0513263145616S11650932EA0117401201000000000000
B0513303145559S11650894EA0118101211000000000000
B0513343145498S11650915EA0117901206000000000000
B0513383145464S11650982EA0117701201000000000000
B0513423145479S11651047EA0118001210000000000000
B0513463145520S11651066EA0119101220000000000000
B0513503145536S11651016EA0119001211000000000000
B0513543145486S11650968EA0119101216000000000000
B0513583145424S11650994EA0119701224000000000000
B0514023145407S11651064EA0120301230000000000000
B0514063145440S11651112EA0120701230000000000000
B0514103145488S11651103EA0119901220000000000000
B0514143145505S11651042EA0119201218000000000000
B0514183145473S11650978EA0119201219000000000000
B0514223145406S11650963EA0120101230000000000000
B0514263145354S11651008EA0121401245000000000000
B0514303145353S11651073EA0121901250000000000000
B0514343145394S11651103EA0122401255000000000000
B0514383145433S11651079EA0122701253000000000000
B0514423145437S11651017EA0122001244000000000000
B0514463145395S11650960EA0121801247000000000000
B0514503145337S11650916EA0121901245000000000000
B0514543145269S11650878EA0121301240000000000000
B0514583145200S11650839EA0120601235000000000000
B0515023145126S11650803EA0119701222000000000000
B0515063145048S11650765EA0118201204000000000000
B0515103144969S11650729EA0117101194000000000000
B0515143144888S11650692EA0117201203000000000000
B0515183144812S11650653EA0118101214000000000000
B0515223144736S11650609EA0118701220000000000000
B0515263144662S11650564EA0118601214000000000000
B0515303144586S11650518EA0118001209000000000000
B0515343144506S11650471EA0117101199000000000000
B0515383144427S11650425EA0116901200000000000000
B0515423144350S11650379EA0116701198000000000000
B0515463144275S11650332EA0116301190000000000000
B0515503144197S11650286EA0115501182000000000000
B0515543144121S11650237EA0114701171000000000000
B0515583144045S11650188EA0113601162000000000000
B0516023143971S11650137EA0113501165000000000000
B0516063143903S11650084EA0114401176000000000000
B0516103143835S11650032EA0113901165000000000000
B0516143143764S11649976EA0112301148000000000000
B0516183143691S11649920EA0111301137000000000000
B0516223143616S11649871EA0110201127000000000000
B0516263143542S11649821EA0109001113000000000000
B0516303143471S11649766EA0107901104000000000000
B0516343143399S11649716EA0107101094000000000000
B0516383143321S11649685EA0106901097000000000000
B0516423143247S11649654EA0107801107000000000000
B0516463143182S11649615EA0108601113000000000000
B0516503143159S11649547EA0109401121000000000000
B0516543143208S11649530EA0110101125000000000000
B0516583143226S11649591EA0109901121000000000000
B0517023143180S11649651EA0110101127000000000000
B0517063143107S11649665EA0110301125000000000000
B0517103143037S11649634EA0110601135000000000000
B0517143143010S11649573EA0111801149000000000000
B0517183143044S11649550EA0113301161000000000000
B0517223143072S11649595EA0113301155000000000000
B0517263143045S11649658EA0113401158000000000000
B0517303142980S11649659EA0113601164000000000000
B0517343142951S11649600EA0114001166000000000000
B0517383142985S11649561EA0114401171000000000000
B0517423143032S11649586EA0114601173000000000000
B0517463143045S11649652EA0114801173000000000000
B0517503142993S11649706EA0114901171000000000000
B0517543142920S11649691EA0114501169000000000000
B0517583142876S11649630EA0115001179000000000000
B0518023142889S11649573EA0116101190000000000000
B0518063142937S11649567EA0116401188000000000000
B0518103142974S11649616EA0116201188000000000000
B0518143142967S11649689EA0116401188000000000000
B0518183142919S11649743EA0116401185000000000000
B0518223142850S11649758EA0115901181000000000000
B0518263142779S11649742EA0115901185000000000000
B0518303142708S11649717EA0116301186000000000000
B0518343142634S11649688EA0116301189000000000000
B0518383142560S11649659EA0116901199000000000000
B0518423142485S11649656EA0118401217000000000000
B0518463142454S11649719EA0120101234000000000000
B0518503142486S11649760EA0121101242000000000000
B0518543142521S11649729EA0122101254000000000000
B0518583142512S11649659EA0123301263000000000000
B0519023142460S11649610EA0124401278000000000000
B0519063142395S11649617EA0125601288000000000000
B0519103142348S11649673EA0126101290000000000000
B0519143142346S11649742EA0126701299000000000000
B0519183142378S11649777EA0128101315000000000000
B0519223142407S11649743EA0129201322000000000000
B0519263142377S11649685EA0129701326000000000000
B0519303142311S11649680EA0130501337000000000000
B0519343142265S11649736EA0130901341000000000000
B0519383142275S11649798EA0131701350000000000000
B0519423142314S11649815EA0132401357000000000000
B0519463142346S11649782EA0133501367000000000000
B0519503142344S11649721EA0134501379000000000000
B0519543142300S11649668EA0135101384000000000000
B0519583142235S11649660EA0135801392000000000000
B0520023142179S11649703EA0135701387000000000000
B0520063142164S11649771EA0135401386000000000000
B0520103142184S11649825EA0135901393000000000000
B0520143142229S11649836EA0136501401000000000000
B0520183142252S11649792EA0137601414000000000000
B0520223142233S11649728EA0138501421000000000000
B0520263142173S11649698EA0139301427000000000000
B0520303142110S11649728EA0139501428000000000000
B0520343142077S11649794EA0139301426000000000000
B0520383142087S11649855EA0139501432000000000000
B0520423142126S11649855EA0140101435000000000000
B0520463142129S11649797EA0141001444000000000000
B0520503142079S11649749EA0141401445000000000000
B0520543142012S11649768EA0141401443000000000000
B0520583141986S11649838EA0141201445000000000000
B0521023142009S11649886EA0141401447000000000000
B0521063142052S11649885EA0141701449000000000000
B0521103142079S11649837EA0141901449000000000000
B0521143142069S11649767EA0141901450000000000000
B0521183142026S11649703EA0141701450000000000000
B0521223141969S11649646EA0141701450000000000000
B0521263141904S11649593EA0141001438000000000000
B0521303141832S11649542EA0139801423000000000000
B0521343141759S11649490EA0138901417000000000000
B0521383141685S11649441EA0138201413000000000000
B0521423141612S11649390EA0138101411000000000000
B0521463141540S11649339EA0137601407000000000000
B0521503141469S11649286EA0137401405000000000000
B0521543141401S11649233EA0137101405000000000000
B0521583141332S11649181EA0136801400000000000000
B0522023141261S11649129EA0136201394000000000000
B0522063141191S11649073EA0135801391000000000000
B0522103141124S11649017EA0135501387000000000000
B0522143141055S11648960EA0135001381000000000000
B0522183140988S11648901EA0134401375000000000000
B0522223140921S11648841EA0134101373000000000000
B0522263140856S11648784EA0133801370000000000000
B0522303140790S11648726EA0133401367000000000000
B0522343140725S11648667EA0133101365000000000000
B0522383140661S11648607EA0132601358000000000000
B0522423140596S11648549EA0132201351000000000000
B0522463140531S11648492EA0131201344000000000000
B0522503140465S11648434EA0130501333000000000000
B0522543140398S11648375EA0129601327000000000000
B0522583140332S11648316EA0129201322000000000000
B0523023140267S11648259EA0128001310000000000000
B0523063140199S11648200EA0126801296000000000000
B0523103140129S11648143EA0126001289000000000000
B0523143140060S11648089EA0125701285000000000000
B0523183139991S11648039EA0125001276000000000000
B0523223139922S11647990EA0123901267000000000000
B0523263139854S11647938EA0123501265000000000000
B0523303139786S11647886EA0123001258000000000000
B0523343139720S11647830EA0122101248000000000000
B0523383139653S11647773EA0121201241000000000000
B0523423139587S11647719EA0120901239000000000000
B0523463139525S11647669EA0120701239000000000000
B0523503139462S11647619EA0120501236000000000000
B0523543139399S11647570EA0120301233000000000000
B0523583139337S11647518EA0120001231000000000000
B0524023139282S11647462EA0119201220000000000000
B0524063139223S11647405EA0118601214000000000000
B0524103139158S11647358EA0118201210000000000000
B0524143139093S11647310EA0117801206000000000000
B0524183139028S11647262EA0117501207000000000000
B0524223138968S11647215EA0118101212000000000000
B0524263138902S11647211EA0118901221000000000000
B0524303138853S11647259EA0119001222000000000000
B0524343138836S11647324EA0119701230000000000000
B0524383138881S11647357EA0120001230000000000000
B0524423138921S11647323EA0121301247000000000000
B0524463138915S11647260EA0122401254000000000000
B0524503138864S11647219EA0122801258000000000000
B0524543138804S11647240EA0122001249000000000000
B0524583138772S11647305EA0121801250000000000000
B0525023138776S11647376EA0122401254000000000000
B0525063138806S11647436EA0122601260000000000000
B0525103138858S11647452EA0123901272000000000000
B0525143138859S11647393EA0124601277000000015000
B0525183138795S11647375EA0124501278000000015000
B0525223138762S11647437EA0126101299000000000000
B0525263138794S11647491EA0127501305000000000000
B0525303138842S11647476EA0128401316000000000000
B0525343138843S11647420EA0129501325000000000000
B0525383138791S11647379EA0129601324000000000000
B0525423138728S11647406EA0130601341000000000000
B0525463138720S11647474EA0132301358000000000000
B0525503138758S11647519EA0133001362000000000000
B0525543138802S11647504EA0134101376000000000000
B0525583138797S11647448EA0134901385000000000000
B0526023138741S11647418EA0135201387000000000000
B0526063138687S11647459EA0135301390000000000000
B0526103138694S11647527EA0136001405000000000000
B0526143138737S11647535EA0137201413000000000000
B0526183138743S11647485EA0137301408000000000000
B0526223138685S11647452EA0136601403000000000000
B0526263138633S11647494EA0138001422000000000000
B0526303138635S11647554EA0139001431000000000000
B0526343138678S11647569EA0139501435000000000000
B0526383138695S11647523EA0140101439000000000000
B0526423138663S11647471EA0140201439000000000000
B0526463138598S11647463EA0140101437000000000000
B0526503138552S11647514EA0140601447000000000000
B0526543138556S11647580EA0142201463000000000000
B0526583138598S11647585EA0142901470000000000000
B0527023138600S11647530EA0143201476000000000000
B0527063138546S11647507EA0143901481000000000000
B0527103138499S11647557EA0144101482000000000000
B0527143138509S11647624EA0145401500000000000000
B0527183138550S11647645EA0146501507000000000000
B0527223138589S11647618EA0146901514000000000000
B0527263138593S11647563EA0148001527000000000000
B0527303138542S11647536EA0148201521000000000000
B0527343138494S11647591EA0147201517000000000000
B0527383138498S11647667EA0148801537000000000000
B0527423138538S11647712EA0150301551000000000000
B0527463138587S11647715EA0150401548000000000000
B0527503138625S11647674EA0149901544000000000000
B0527543138637S11647611EA0149501536000000000000
B0527583138629S11647545EA0147801516000000000000
B0528023138599S11647478EA0145801494000000000000
B0528063138561S11647405EA0144201480000000000000
B0528103138528S11647328EA0143301473000000000000
B0528143138491S11647251EA0142701469000000000000
B0528183138450S11647177EA0142301462000000000000
B0528223138400S11647106EA0140901450000000000000
B0528263138344S11647034EA0139701436000000000000
B0528303138287S11646961EA0138801428000000000000
B0528343138232S11646889EA0138201423000000000000
B0528383138188S11646812EA0137901421000000000000
B0528423138139S11646743EA0137901421000000000000
B0528463138065S11646718EA0138801432000000000000
B0528503138000S11646759EA0139701439000000000000
B0528543137966S11646831EA0140101440000000000000
B0528583137962S11646909EA0139501432000000000000
B0529023137971S11646991EA0138901426000000000000
B0529063137982S11647077EA0138401419000000000000
B0529103137993S11647163EA0137601409000000000000
B0529143138010S11647247EA0137001402000000000000
B0529183138031S11647332EA0136101393000000000000
B0529223138052S11647416EA0135401387000000000000
B0529263138073S11647502EA0134401378000000000000
B0529303138099S11647583EA0135801396000000000000
B0529343138136S11647649EA0136901405000000000000
B0529383138177S11647709EA0138001419000000000000
B0529423138221S11647761EA0138501427000000000000
B0529463138266S11647808EA0139101428000000000000
B0529503138312S11647857EA0139001426000000000000
B0529543138356S11647922EA0137501404000000000000
B0529583138396S11647998EA0136601399000000000000
B0530023138440S11648070EA0136201392000000000000
B0530063138487S11648146EA0134101369000000000000
B0530103138530S11648232EA0132801359000000000000
B0530143138564S11648321EA0131901349000000000000
B0530183138593S11648412EA0130901341000000000000
B0530223138616S11648506EA0130901341000000000000
B0530263138637S11648597EA0130301332000000000000
B0530303138658S11648692EA0129101319000000000000
B0530343138677S11648789EA0127601304000000000000
B0530383138693S11648888EA0126701298000000000000
B0530423138706S11648986EA0126501297000000000000
B0530463138717S11649080EA0126601298000000000000
B0530503138728S11649171EA0125901292000000000000
B0530543138739S11649261EA0125401287000000000000
B0530583138752S11649350EA0125401286000000000000
B0531023138767S11649433EA0125401287000000000000
B0531063138780S11649519EA0125401285000000000000
B0531103138793S11649607EA0124901279000000000000
B0531143138804S11649691EA0125401289000000000000
B0531183138830S11649764EA0127001307000000000000
B0531223138869S11649814EA0128601323000000000000
B0531263138911S11649855EA0129101325000000000000
B0531303138954S11649893EA0128401319000000000000
B0531343139001S11649931EA0127801314000000000000
B0531383139049S11649967EA0127001305000000000000
B0531423139093S11650019EA0125901283000000000000
B0531463139124S11650101EA0124201272000000000000
B0531503139146S11650188EA0123801269000000000000
B0531543139159S11650278EA0123501263000000000000
B0531583139167S11650371EA0122001248000000000000
B0532023139175S11650466EA0120901237000000000000
B0532063139183S11650560EA0120301233000000000000
B0532103139192S11650650EA0119701224000000000000
B0532143139204S11650741EA0119001218000000000000
B0532183139215S11650830EA0118001209000000000000
B0532223139226S11650923EA0117301201000000000000
B0532263139235S11651014EA0116801194000000000000
B0532303139244S11651105EA0115901186000000000000
B0532343139254S11651196EA0115101175000000000000
B0532383139262S11651287EA0114101165000000000000
B0532423139269S11651375EA0113601163000000000000
B0532463139276S11651461EA0112701151000000000000
B0532503139285S11651549EA0111601142000000000000
B0532543139293S11651639EA0110701131000000000000
B0532583139302S11651731EA0109601116000000000000
B0533023139313S11651823EA0108301103000000000000
B0533063139322S11651917EA0106901090000000000000
B0533103139332S11652011EA0105401072000000000000
B0533143139341S11652108EA0104101064000000000000
B0533183139350S11652206EA0103201052000000000000
B0533223139360S11652303EA0102401048000000000000
B0533263139370S11652397EA0102101045000000000000
B0533303139379S11652490EA0101801040000000000000
B0533343139386S11652583EA0101501035000000000000
B0533383139392S11652674EA0100601028000000000000
B0533423139399S11652766EA0100201022000000000000
B0533463139410S11652854EA0099901021000000000000
B0533503139426S11652938EA0099901019000000000000
B0533543139445S11653017EA0099501015000000000000
B0533583139478S11653079EA0098501002000000000000
B0534023139506S11653151EA0096600981000000000000
B0534063139526S11653231EA0095400969000000000000
B0534103139539S11653315EA0094100953000000000000
B0534143139551S11653399EA0092400936000000000000
B0534183139561S11653485EA0091400928000000000000
B0534223139574S11653567EA0091500934000000000000
B0534263139609S11653620EA0092700950000000000000
B0534303139653S11653653EA0093200954000000000000
B0534343139701S11653677EA0093000953000000000000
B0534383139750S11653694EA0093200957000000000000
B0534423139800S11653701EA0093500957000000000000
B0534463139844S11653675EA0094400970000000000000
B0534503139825S11653616EA0095100974000000000000
B0534543139760S11653615EA0095500982000000000000
B0534583139717S11653669EA0095800983000000000000
B0535023139725S11653734EA0095700985000000000000
B0535063139766S11653768EA0095900985000000000000
B0535103139816S11653775EA0095900984000000000000
B0535143139842S11653732EA0096100986000000000000
B0535183139825S11653669EA0095800982000000000000
B0535223139774S11653616EA0095600977000000000000
B0535263139709S11653591EA0095900984000000000000
B0535303139640S11653599EA0095900982000000000000
B0535343139583S11653642EA0095500979000000000000
B0535383139552S11653708EA0095400979000000000000
B0535423139534S11653781EA0095300977000000000000
B0535463139525S11653858EA0095500983000000000000
B0535503139543S11653922EA0096500996000000000000
B0535543139581S11653918EA0097701004000000000000
B0535583139573S11653862EA0097300995000000000000
B0536023139512S11653831EA0097701006000000000000
B0536063139454S11653863EA0098901018000000000000
B0536103139440S11653928EA0099501018000000000000
B0536143139474S11653965EA0099701023000000000000
B0536183139513S11653948EA0099701018000000000000
B0536223139521S11653892EA0099301017000000000000
B0536263139480S11653836EA0099001012000000000000
B0536303139418S11653796EA0099501017000000000000
B0536343139371S11653840EA0100501028000000000000
B0536383139396S11653892EA0100601028000000000000
B0536423139434S11653866EA0101301038000000000000
B0536463139414S11653810EA0102001045000000000000
B0536503139353S11653807EA0102501054000000000000
B0536543139335S11653876EA0103201062000000000000
B0536583139373S11653909EA0104301068000000000000
B0537023139397S11653864EA0104701071000000000000
B0537063139369S11653805EA0104501068000000000000
B0537103139304S11653785EA0104901078000000000000
B0537143139256S11653835EA0105901086000000000000
B0537183139271S11653896EA0106701092000000000000
B0537223139315S11653894EA0107301099000000000000
B0537263139328S11653841EA0107401101000000000000
B0537303139292S11653789EA0107101098000000000000
B0537343139228S11653805EA0107601104000000000000
B0537383139204S11653872EA0108301112000000000000
B0537423139237S11653922EA0109201120000000000000
B0537463139275S11653896EA0109901127000000000000
B0537503139259S11653837EA0109801125000000000000
B0537543139198S11653814EA0109701127000000000000
B0537583139136S11653851EA0110001131000000000000
B0538023139115S11653923EA0111201147000000000000
B0538063139140S11653972EA0112901164000000000000
B0538103139175S11653963EA0113601170000000000000
B0538143139166S11653903EA0112501161000000000000
B0538183139107S11653864EA0113001171000000000000
B0538223139038S11653866EA0113701176000000000000
B0538263138976S11653894EA0114501182000000000000
B0538303138959S11653959EA0114401179000000000000
B0538343138984S11654018EA0113701173000000000000
B0538383139019S11654076EA0113901174000000000000
B0538423139055S11654130EA0114001174000000000000
B0538463139096S11654178EA0114101180000000000000
B0538503139137S11654213EA0114601181000000000000
B0538543139184S11654243EA0114401182000000000000
B0538583139228S11654277EA0114901190000000000000
B0539023139270S11654314EA0115801197000000000000
B0539063139309S11654360EA0116401205000000000000
B0539103139352S11654355EA0118101218000000000000
B0539143139327S11654291EA0118901226000000000000
B0539183139253S11654284EA0118701222000000000000
B0539223139191S11654339EA0119001232000000000000
B0539263139165S11654417EA0119801240000000000000
B0539303139179S11654482EA0121401256000000000000
B0539343139220S11654470EA0122301262000000000000
B0539383139205S11654407EA0122601265000000000000
B0539423139139S11654386EA0122901266000000000000
B0539463139081S11654431EA0122901268000000000000
B0539503139070S11654508EA0123201271000000000000
B0539543139103S11654569EA0123801274000000000000
B0539583139153S11654620EA0123301271000000000000
B0540023139207S11654669EA0123101268000000000000
B0540063139263S11654722EA0122901269000000000000
B0540103139317S11654776EA0124101285000000000000
B0540143139366S11654825EA0125801300000000000000
B0540183139417S11654858EA0128001322000000000000
B0540223139449S11654817EA0130201346000000000000
B0540263139418S11654761EA0130901350000000000000
B0540303139353S11654764EA0131601358000000000000
B0540343139321S11654828EA0132101365000000000000
B0540383139347S11654881EA0133501382000000000000
B0540423139392S11654871EA0134401387000000000000
B0540463139405S11654804EA0134401386000000000000
B0540503139356S11654754EA0135101397000000000000
B0540543139288S11654768EA0136101407000000000000
B0540583139257S11654832EA0137001414000000000000
B0541023139283S11654885EA0137801424000000000000
B0541063139318S11654855EA0138701433000000000000
B0541103139282S11654799EA0139001431000000000000
B0541143139226S11654833EA0140101444000000000000
B0541183139236S11654895EA0141201453000000000000
B0541223139282S11654898EA0142201465000000000000
B0541263139304S11654846EA0143001471000000000000
B0541303139269S11654793EA0143501477000000000000
B0541343139211S11654812EA0144201489000000000000
B0541383139196S11654875EA0144401488000000000000
B0541423139231S11654915EA0145001497000000000000
B0541463139265S11654878EA0145701501000000000000
B0541503139240S11654819EA0145601498000000000000
B0541543139180S11654823EA0146001507000000000000
B0541583139150S11654882EA0146501511000000000000
B0542023139172S11654940EA0147101520000000000000
B0542063139214S11654934EA0148001526000000000000
B0542103139214S11654876EA0147201514000000000000
B0542143139158S11654834EA0146601514000000000000
B0542183139098S11654856EA0147501524000000000000
B0542223139098S11654920EA0147501524000000000000
B0542263139137S11654971EA0147401522000000000000
B0542303139188S11655018EA0146501511000000000000
B0542343139245S11655064EA0144901493000000000000
B0542383139305S11655124EA0143801481000000000000
B0542423139354S11655193EA0143701482000000000000
B0542463139397S11655267EA0143601479000000000000
B0542503139439S11655345EA0143501477000000000000
B0542543139480S11655422EA0143401475000000000000
B0542583139525S11655500EA0142601466000000000000
B0543023139565S11655575EA0142601467000000000000
B0543063139605S11655645EA0142701466000000000000
B0543103139648S11655714EA0141801457000000000000
B0543143139696S11655779EA0140801446000000000000
B0543183139746S11655848EA0141001460000000000000
B0543223139792S11655908EA0142901477000000000000
B0543263139844S11655957EA0144101487000000000000
B0543303139895S11655999EA0145101497000000000000
B0543343139951S11656037EA0145201498000000000000
B0543383140008S11656065EA0145501501000000000000
B0543423140063S11656095EA0145901503000000000000
B0543463140117S11656125EA0145501497000000000000
B0543503140173S11656155EA0144801490000000000000
B0543543140231S11656186EA0144001478000000000000
B0543583140290S11656224EA0142401458000000000000
B0544023140351S11656280EA0140301437000000000000
B0544063140406S11656349EA0139501436000000000000
B0544103140457S11656423EA0139301429000000000000
B0544143140504S11656503EA0138301419000000000000
B0544183140548S11656587EA0137601413000000000000
B0544223140591S11656675EA0136901405000000000000
B0544263140631S11656765EA0136101399000000000000
B0544303140667S11656857EA0135601393000000000000
B0544343140701S11656945EA0135501396000000000000
B0544383140732S11657030EA0135701393000000000000
B0544423140761S11657114EA0134901384000000000000
B0544463140790S11657199EA0133801373000000000000
B0544503140819S11657283EA0133001366000000000000
B0544543140843S11657371EA0132601360000000000000
B0544583140868S11657455EA0132101356000000000000
B0545023140891S11657540EA0131501350000000000000
B0545063140914S11657624EA0131201348000000000000
B0545103140935S11657707EA0131401351000000000000
B0545143140960S11657787EA0131801351000000000000
B0545183140996S11657852EA0132601368000000000000
B0545223141035S11657905EA0133801378000000000000
B0545263141083S11657950EA0133501375000000000000
B0545303141137S11657985EA0133001370000000000000
B0545343141191S11658028EA0132601366000000000000
B0545383141241S11658082EA0131701355000000000000
B0545423141286S11658145EA0129601333000000000000
B0545463141323S11658223EA0128501324000000000000
B0545503141349S11658307EA0127901318000000000000
B0545543141373S11658391EA0127401310000000000000
B0545583141397S11658478EA0126701304000000000000
B0546023141416S11658563EA0126801308000000000000
B0546063141436S11658643EA0126701303000000000000
B0546103141458S11658726EA0125701289000000000000
B0546143141482S11658814EA0124601279000000000000
B0546183141508S11658899EA0124301278000000000000
B0546223141537S11658983EA0124101277000000000000
B0546263141572S11659054EA0123901272000000000000
B0546303141611S11659123EA0122901263000000000000
B0546343141648S11659197EA0122401255000000000000
B0546383141679S11659274EA0122001250000000000000
B0546423141703S11659353EA0121001241000000000000
B0546463141722S11659434EA0120601238000000000000
B0546503141737S11659513EA0120201235000000000000
B0546543141746S11659594EA0119401224000000000000
B0546583141746S11659677EA0118401215000000000000
B0547023141744S11659763EA0117401203000000000000
B0547063141739S11659852EA0117501210000000000000
B0547103141758S11659924EA0118901224000000000000
B0547143141801S11659959EA0119401226000000000000
B0547183141848S11659963EA0119201221000000000000
B0547223141893S11659938EA0118201208000000000000
B0547263141943S11659915EA0117201202000000000000
B0547303141996S11659913EA0116201189000000000000
B0547343142040S11659963EA0115401182000000000000
B0547383142056S11700042EA0115501183000000000000
B0547423142058S11700127EA0114801176000000000000
B0547463142054S11700214EA0113901167000000000000
B0547503142052S11700305EA0113001157000000000000
B0547543142051S11700397EA0112401148000000000000
B0547583142048S11700491EA0111201136000000000000
B0548023142045S11700584EA0110401131000000000000
B0548063142041S11700675EA0110001126000000000000
B0548103142038S11700765EA0109101116000000000000
B0548143142032S11700857EA0108201107000000000000
B0548183142028S11700948EA0107201095000000000000
B0548223142021S11701040EA0106201087000000000000
B0548263142014S11701133EA0106001085000000000000
B0548303142010S11701224EA0105401078000000000000
B0548343142009S11701313EA0105601084000000000000
B0548383142018S11701390EA0106801098000000000000
B0548423142049S11701437EA0108101110000000000000
B0548463142092S11701449EA0108401112000000000000
B0548503142138S11701436EA0108701116000000000000
B0548543142136S11701373EA0109301126000000000000
B0548583142066S11701343EA0109601128000000000000
B0549023142005S11701388EA0109401129000000000000
B0549063141995S11701459EA0109701129000000000000
B0549103142028S11701505EA0109601128000000000000
B0549143142065S11701473EA0109801134000000000000
B0549183142044S11701411EA0110501142000000000000
B0549223141983S11701377EA0111001148000000000000
B0549263141923S11701411EA0111301145000000000000
B0549303141911S11701479EA0111201143000000000000
B0549343141940S11701529EA0111101141000000000000
B0549383141991S11701546EA0110801137000000000000
B0549423142047S11701533EA0110401137000000000000
B0549463142086S11701493EA0111901156000000000000
B0549503142048S11701438EA0112901162000000000000
B0549543141973S11701451EA0113201165000000000000
B0549583141945S11701519EA0114601181000000000000
B0550023141976S11701558EA0115001180000000000000
B0550063142009S11701523EA0115201187000000000000
B0550103141986S11701459EA0115301189000000000000
B0550143141915S11701436EA0115701194000000000000
B0550183141852S11701475EA0116301200000000000000
B0550223141837S11701547EA0116701202000000000000
B0550263141872S11701596EA0116801203000000000000
B0550303141921S11701590EA0117201208000000000000
B0550343141941S11701537EA0118301222000000000000
B0550383141914S11701480EA0118901229000000000000
B0550423141846S11701456EA0119301231000000000000
B0550463141778S11701484EA0119701234000000000000
B0550503141737S11701547EA0119901237000000000000
B0550543141746S11701614EA0120201240000000000000
B0550583141791S11701633EA0120401240000000000000
B0551023141819S11701588EA0120401242000000000000
B0551063141794S11701524EA0121301254000000000000
B0551103141729S11701497EA0121901255000000000000
B0551143141663S11701529EA0122201258000000000000
B0551183141636S11701597EA0122301261000000000000
B0551223141658S11701655EA0122501261000000000000
B0551263141705S11701676EA0122101257000000000000
B0551303141758S11701671EA0121701251000000000000
B0551343141809S11701646EA0122101264000000000000
B0551383141823S11701590EA0123801279000000000000
B0551423141768S11701554EA0125101289000000000000
B0551463141703S11701585EA0125301288000000000000
B0551503141683S11701663EA0125301291000000000000
B0551543141716S11701715EA0125701295000000000000
B0551583141759S11701700EA0126701310000000000000
B0552023141745S11701642EA0128201324000000000000
B0552063141683S11701629EA0128601328000000000000
B0552103141633S11701687EA0129701339000000000000
B0552143141641S11701748EA0130501347000000000000
B0552183141680S11701744EA0131201353000000000000
B0552223141683S11701689EA0131701363000000000000
B0552263141632S11701653EA0132701367000000000000
B0552303141567S11701681EA0132701370000000000000
B0552343141545S11701752EA0133501379000000000000
B0552383141570S11701796EA0134201383000000000000
B0552423141606S11701779EA0134601390000000000000
B0552463141605S11701724EA0135401399000000000000
B0552503141557S11701680EA0136001406000000000000
B0552543141488S11701689EA0136901414000000000000
B0552583141440S11701744EA0137401415000000000000
B0553023141430S11701811EA0137401414000000000000
B0553063141459S11701846EA0137801421000000000000
B0553103141490S11701826EA0138101423000000000000
B0553143141493S11701768EA0138301426000000000000
B0553183141438S11701737EA0139001433000000000000
B0553223141381S11701784EA0139301439000000000000
B0553263141382S11701849EA0139501438000000000000
B0553303141419S11701883EA0139501438000000000000
B0553343141466S11701913EA0138701430000000000000
B0553383141512S11701969EA0138601431000000000000
B0553423141562S11702019EA0139601445000000000000
B0553463141615S11702056EA0140701456000000000000
B0553503141668S11702086EA0142001468000000000000
B0553543141722S11702116EA0141301455000000000000
B0553583141780S11702156EA0140201441000000000000
B0554023141828S11702213EA0139801444000000000000
B0554063141862S11702282EA0139801439000000000000
B0554103141885S11702359EA0138901428000000000000
B0554143141901S11702444EA0138101420000000000000
B0554183141909S11702533EA0137201412000000000000
B0554223141914S11702624EA0136201400000000000000
B0554263141918S11702717EA0135001389000000000000
B0554303141922S11702815EA0134101379000000000000
B0554343141923S11702914EA0133701374000000000000
B0554383141926S11703011EA0133301372000000000000
B0554423141924S11703107EA0133101370000000000000
B0554463141924S11703201EA0133101369000000000000
B0554503141927S11703295EA0132901363000000000000
B0554543141937S11703386EA0132401358000000000000
B0554583141950S11703475EA0131901357000000000000
B0555023141965S11703564EA0131901357000000000000
B0555063141975S11703650EA0131701354000000000000
B0555103141988S11703734EA0131401349000000000000
B0555143142000S11703819EA0131201348000000000000
B0555183142014S11703900EA0131201348000000000000
B0555223142028S11703981EA0130801342000000000000
B0555263142040S11704063EA0130101334000000000000
B0555303142048S11704145EA0129301326000000000000
B0555343142057S11704228EA0128501318000000000000
B0555383142064S11704310EA0128601321000000000000
B0555423142077S11704384EA0129201328000000000000
B0555463142108S11704432EA0130201338000000000000
B0555503142149S11704457EA0130601341000000000000
B0555543142196S11704463EA0130901347000000000000
B0555583142244S11704466EA0131101350000000000000
B0556023142294S11704458EA0131801358000000000000
B0556063142321S11704415EA0133001372000000000000
B0556103142295S11704358EA0133701375000000000000
B0556143142227S11704333EA0133601375000000000000
B0556183142160S11704362EA0133701375000000000000
B0556223142119S11704430EA0133801377000000000000
B0556263142122S11704502EA0134301380000000000000
B0556303142161S11704539EA0134801390000000000000
B0556343142201S11704518EA0135901399000000000000
B0556383142200S11704456EA0136301404000000000000
B0556423142148S11704409EA0136501406000000000000
B0556463142073S11704405EA0136701407000000000000
B0556503142004S11704439EA0137001413000000000000
B0556543141987S11704506EA0137701418000000000000
B0556583142019S11704543EA0137901420000000000000
B0557023142067S11704540EA0138001419000000000000
B0557063142108S11704508EA0138401428000000000000
B0557103142093S11704444EA0138901434000000000000
B0557143142027S11704409EA0138701426000000000000
B0557183141949S11704432EA0138501428000000000000
B0557223141902S11704493EA0139401439000000000000
B0557263141922S11704547EA0140001442000000000000
B0557303141962S11704549EA0140601451000000000000
B0557343141971S11704491EA0140501449000000000000
B0557383141918S11704436EA0140201444000000000000
B0557423141844S11704452EA0140301448000000000000
B0557463141801S11704515EA0140401448000000000000
B0557503141796S11704592EA0139801443000000000000
B0557543141806S11704669EA0139201436000000000000
B0557583141828S11704744EA0139301445000000000000
B0558023141858S11704810EA0141401467000000000000
B0558063141901S11704813EA0143101477000000000000
B0558103141898S11704744EA0142501476000000000000
B0558143141844S11704692EA0143301488000000000000
B0558183141780S11704726EA0145301507000000000000
B0558223141770S11704796EA0146301516000000000000
B0558263141807S11704829EA0147301523000000000000
B0558303141845S11704801EA0147501526000000000000
B0558343141841S11704739EA0148001530000000000000
B0558383141783S11704705EA0148901538000000000000
B0558423141723S11704744EA0149101544000000000000
B0558463141719S11704812EA0150201555000000000000
B0558503141759S11704833EA0150701556000000000000
B0558543141787S11704788EA0150901563000000000000
B0558583141754S11704735EA0152201575000000000000
B0559023141687S11704735EA0152501575000000000000
B0559063141638S11704791EA0153401589000000000000
B0559103141642S11704852EA0154501594000000000000
B0559143141681S11704885EA0154501595000000000000
B0559183141720S11704862EA0154701597000000000000
B0559223141709S11704808EA0155501609000000000000
B0559263141648S11704788EA0155501603000000000000
B0559303141593S11704840EA0155001600000000000000
B0559343141589S11704921EA0154601593000000000000
B0559383141606S11705005EA0153701586000000000000
B0559423141627S11705087EA0153801588000000000000
B0559463141646S11705171EA0153201576000000000000
B0559503141666S11705260EA0152201567000000000000
B0559543141685S11705351EA0152201571000000000000
B0559583141698S11705438EA0152801576000000000000
B0600023141703S11705528EA0151701556000000000000
B0600063141714S11705624EA0149701538000000000000
B0600103141726S11705722EA0149601539000000000000
B0600143141740S11705815EA0149701540000000000000
B0600183141754S11705906EA0149501536000000000000
B0600223141770S11706003EA0148701526000000000000
B0600263141787S11706101EA0147901521000000000000
B0600303141802S11706199EA0147501517000000000000
B0600343141817S11706296EA0147201515000000000000
B0600383141830S11706389EA0147001515000000000000
B0600423141843S11706476EA0146801510000000000000
B0600463141852S11706563EA0146601509000000000000
B0600503141857S11706649EA0146201504000000000000
B0600543141861S11706734EA0146101507000000000000
B0600583141867S11706820EA0146501509000000000000
B0601023141874S11706907EA0146201503000000000000
B0601063141879S11706994EA0146501507000000000000
B0601103141897S11707070EA0146201502000000000000
B0601143141921S11707148EA0145401496000000000000
B0601183141941S11707230EA0144801489000000000000
B0601223141961S11707314EA0144401484000000000000
B0601263141978S11707401EA0143701473000000000000
B0601303141997S11707488EA0143201475000000000000
B0601343142023S11707565EA0143501476000000000000
B0601383142049S11707638EA0143101473000000000000
B0601423142074S11707712EA0142701471000000000000
B0601463142097S11707782EA0142701467000000000000
B0601503142121S11707855EA0142201462000000000000
B0601543142142S11707930EA0141501455000000000000
B0601583142160S11708011EA0140701446000000000000
B0602023142177S11708094EA0140101442000000000000
B0602063142191S11708177EA0139801434000000000000
B0602103142207S11708261EA0138901427000000000000
B0602143142222S11708345EA0138401421000000000000
B0602183142236S11708428EA0137901417000000000000
B0602223142249S11708512EA0137401413000000000000
B0602263142260S11708596EA0137001408000000000000
B0602303142269S11708679EA0136701406000000000000
B0602343142277S11708764EA0136401401000000000000
B0602383142286S11708848EA0136001394000000000000
B0602423142295S11708937EA0135001384000000000000
B0602463142305S11709028EA0134101377000000000000
B0602503142314S11709115EA0133901376000000000000
B0602543142326S11709202EA0133501370000000000000
B0602583142339S11709290EA0132901361000000000000
B0603023142355S11709377EA0131901353000000000000
B0603063142370S11709463EA0132301362000000000000
B0603103142392S11709540EA0133801380000000000000
B0603143142431S11709587EA0135801403000000000000
B0603183142474S11709584EA0137901422000000000000
B0603223142482S11709533EA0138001420000000000000
B0603263142441S11709483EA0137101410000000000000
B0603303142372S11709485EA0136501404000000000000
B0603343142317S11709546EA0136601409000000000000
B0603383142281S11709619EA0137901424000000000000
B0603423142294S11709682EA0139301437000000000000
B0603463142326S11709662EA0140201447000000000000
B0603503142292S11709609EA0141401463000000000000
B0603543142230S11709622EA0142701474000000000000
B0603583142209S11709688EA0143001477000000000000
B0604023142244S11709721EA0143901489000000000000
B0604063142266S11709678EA0145001500000000000000
B0604103142223S11709630EA0145901510000000000000
B0604143142158S11709644EA0147401525000000000000
B0604183142121S11709702EA0148001528000000000000
B0604223142132S11709763EA0148201527000000000000
B0604263142175S11709784EA0148801531000000000000
B0604303142201S11709745EA0149701544000000000000
B0604343142160S11709696EA0150301546000000000000
B0604383142099S11709728EA0150101542000000000000
B0604423142117S11709792EA0150201547000000000000
B0604463142157S11709775EA0150901559000000000000
B0604503142135S11709714EA0151501568000000000000
B0604543142070S11709700EA0152901582000000000000
B0604583142019S11709747EA0153701583000000000000
B0605023142021S11709819EA0152501573000000000000
B0605063142044S11709892EA0152201569000000000000
B0605103142071S11709973EA0151601559000000000000
B0605143142100S11710060EA0150501548000000000000
B0605183142132S11710148EA0149801544000000000000
B0605223142165S11710233EA0149801545000000000000
B0605263142194S11710316EA0150601553000000000000
B0605303142220S11710398EA0151001556000000000000
B0605343142244S11710478EA0150601550000000000000
B0605383142268S11710563EA0149601539000000000000
B0605423142290S11710647EA0148301517000000000000
B0605463142316S11710736EA0146001495000000000000
B0605503142338S11710827EA0144601483000000000000
B0605543142359S11710915EA0144301487000000000000
B0605583142373S11710996EA0145001494000000000000
B0606023142387S11711073EA0144601485000000000000
B0606063142404S11711153EA0143601475000000000000
B0606103142420S11711238EA0142401461000000000000
B0606143142434S11711327EA0141101446000000000000
B0606183142446S11711424EA0139501435000000000000
B0606223142459S11711518EA0139001433000000000000
B0606263142473S11711612EA0138901431000000000000
B0606303142485S11711703EA0139001431000000000000
B0606343142495S11711794EA0138401420000000000000
B0606383142508S11711888EA0137301407000000000000
B0606423142517S11711988EA0135701392000000000000
B0606463142526S11712088EA0134401379000000000000
B0606503142537S11712189EA0133601371000000000000
B0606543142551S11712285EA0132801363000000000000
B0606583142569S11712378EA0132301360000000000000
B0607023142591S11712464EA0132201359000000000000
B0607063142613S11712547EA0131301347000000000000
B0607103142641S11712633EA0129701332000000000000
B0607143142672S11712720EA0129001324000000000000
B0607183142703S11712802EA0128701321000000000000
B0607223142734S11712881EA0128101314000000000000
B0607263142780S11712942EA0127701315000000000000
B0607303142824S11713000EA0126801298000000000000
B0607343142866S11713071EA0125501288000000000000
B0607383142899S11713149EA0124501282000000000000
B0607423142927S11713228EA0125101291000000000000
B0607463142953S11713306EA0125801295000000000000
B0607503142988S11713371EA0126101300000000000000
B0607543143037S11713411EA0126101294000000000000
B0607583143089S11713439EA0124101272000000000000
B0608023143140S11713485EA0121701249000000000000
B0608063143179S11713556EA0119701229000000000000
B0608103143210S11713636EA0118301216000000000000
B0608143143239S11713718EA0118201217000000000000
B0608183143270S11713793EA0118801224000000000000
B0608223143319S11713835EA0119401230000000000000
B0608263143370S11713830EA0120001237000000000000
B0608303143413S11713795EA0120401245000000000000
B0608343143448S11713752EA0121701260000000000000
B0608383143439S11713691EA0122601268000000000000
B0608423143375S11713671EA0122901269000000000000
B0608463143327S11713725EA0123001271000000000000
B0608503143343S11713783EA0124001285000000000000
B0608543143383S11713775EA0125301295000000000000
B0608583143387S11713713EA0125701297000000000000
B0609023143334S11713670EA0126301303000000000000
B0609063143273S11713699EA0126501302000000000000
B0609103143262S11713761EA0127001311000000000000
B0609143143301S11713790EA0127701318000000000000
B0609183143340S11713760EA0128301329000000000000
B0609223143326S11713695EA0128301326000000000000
B0609263143261S11713675EA0128801336000000000000
B0609303143201S11713710EA0129301338000000000000
B0609343143162S11713767EA0129601340000000000000
B0609383143182S11713819EA0130001343000000000000
B0609423143230S11713819EA0130001342000000000000
B0609463143263S11713778EA0130901356000000000000
B0609503143223S11713727EA0131401358000000000000
B0609543143154S11713738EA0132001365000000000000
B0609583143136S11713799EA0132701371000000000000
B0610023143175S11713821EA0133201376000000000000
B0610063143200S11713773EA0133901383000000000000
B0610103143170S11713709EA0134101382000000000000
B0610143143101S11713695EA0134601389000000000000
B0610183143053S11713745EA0135001396000000000000
B0610223143053S11713812EA0135501398000000000000
B0610263143079S11713870EA0135101393000000000000
B0610303143109S11713938EA0134701391000000000000
B0610343143140S11714005EA0135201399000000000000
B0610383143187S11714047EA0136701415000000000000
B0610423143240S11714046EA0137801425000000000000
B0610463143289S11714026EA0138601435000000000000
B0610503143336S11714000EA0139401439000000000000
B0610543143386S11713968EA0139801443000000000000
B0610583143422S11713917EA0140901461000000000000
B0611023143392S11713857EA0142201468000000000000
B0611063143330S11713866EA0142701475000000000000
B0611103143300S11713931EA0142901476000000000000
B0611143143318S11713992EA0143701486000000000000
B0611183143366S11714004EA0144901499000000000000
B0611223143384S11713952EA0145501499000000000000
B0611263143341S11713897EA0145701502000000000000
B0611303143275S11713903EA0146501512000000000000
B0611343143235S11713956EA0146901513000000000000
B0611383143257S11714027EA0146401504000000000000
B0611423143288S11714105EA0145001491000000000000
B0611463143318S11714193EA0143901480000000000000
B0611503143345S11714286EA0143001465000000000000
B0611543143369S11714385EA0141501453000000000000
B0611583143387S11714485EA0141401456000000000000
B0612023143405S11714576EA0142401470000000000000
B0612063143425S11714668EA0142601466000000000000
B0612103143447S11714765EA0142201458000000000000
B0612143143470S11714859EA0143001477000000000000
B0612183143516S11714911EA0146001507000000000000
B0612223143565S11714949EA0145701492000000000000
B0612263143601S11715025EA0143201464000000000000
B0612303143625S11715119EA0142601464000000000000
B0612343143647S11715217EA0143901481000000000000
B0612383143668S11715309EA0143901479000000000000
B0612423143691S11715402EA0142801466000000000000
B0612463143722S11715491EA0142001454000000000000
B0612503143757S11715578EA0140901444000000000000
B0612543143793S11715665EA0139501430000000000000
B0612583143829S11715758EA0138301419000000000000
B0613023143861S11715847EA0138201422000000000000
B0613063143893S11715935EA0138001420000000000000
B0613103143924S11716019EA0138101420000000000000
B0613143143959S11716102EA0137601414000000000000
B0613183143994S11716182EA0137201411000000000000
B0613223144029S11716262EA0136701402000000000000
B0613263144066S11716344EA0135601389000000000000
B0613303144105S11716429EA0134201378000000000000
B0613343144142S11716513EA0133801374000000000000
B0613383144179S11716596EA0133501374000000000000
B0613423144211S11716681EA0133201368000000000000
B0613463144241S11716769EA0132201356000000000000
B0613503144271S11716858EA0131001343000000000000
B0613543144298S11716947EA0130801347000000000000
B0613583144326S11717030EA0131601354000000000000
B0614023144348S11717115EA0131601352000000000000
B0614063144371S11717199EA0131901356000000000000
B0614103144405S11717271EA0131601349000000000000
B0614143144443S11717344EA0131001347000000000000
B0614183144479S11717417EA0130801341000000000000
B0614223144518S11717492EA0130201335000000000000
B0614263144554S11717569EA0129201325000000000000
B0614303144588S11717653EA0128101314000000000000
B0614343144619S11717739EA0127801310000000000000
B0614383144649S11717827EA0127201302000000000000
B0614423144680S11717916EA0126501298000000000000
B0614463144712S11718005EA0125701287000000000000
B0614503144742S11718099EA0124601278000000000000
B0614543144771S11718193EA0124101273000000000000
B0614583144797S11718286EA0123701269000000000000
B0615023144820S11718380EA0123501267000000000000
B0615063144838S11718471EA0122701257000000000000
B0615103144853S11718566EA0121901252000000000000
B0615143144868S11718657EA0121501245000000000000
B0615183144885S11718748EA0120701236000000000000
B0615223144904S11718835EA0120101227000000000000
B0615263144925S11718921EA0118901215000000000000
B0615303144948S11719008EA0117901208000000000000
B0615343144974S11719091EA0117701204000000000000
B0615383145003S11719168EA0117201201000000000000
B0615423145031S11719240EA0116801194000000000000
B0615463145061S11719315EA0115701182000000000000
B0615503145091S11719387EA0114401165000000000000
B0615543145125S11719463EA0113201158000000000000
B0615583145163S11719534EA0113101160000000000000
B0616023145198S11719601EA0114201177000000000000
B0616063145237S11719655EA0115801193000000000000
B0616103145280S11719663EA0118201222000000000000
B0616143145293S11719617EA0120001237000000000000
B0616183145251S11719562EA0120501241000000000000
B0616223145184S11719549EA0120301237000000000000
B0616263145124S11719593EA0120301240000000000000
B0616303145102S11719660EA0121101247000000000000
B0616343145122S11719711EA0122101260000000000000
B0616383145165S11719714EA0123301270000000000000
B0616423145178S11719656EA0124001278000000000000
B0616463145120S11719620EA0124901287000000000000
B0616503145069S11719668EA0125301291000000000000
B0616543145081S11719724EA0126201304000000000000
B0616583145124S11719712EA0127001306000000000000
B0617023145130S11719646EA0127401315000000000000
B0617063145074S11719601EA0128401320000000000000
B0617103145008S11719625EA0128401324000000000000
B0617143144986S11719686EA0129401336000000000000
B0617183145009S11719729EA0130501342000000000000
B0617223145055S11719741EA0130501344000000000000
B0617263145093S11719707EA0131901361000000000000
B0617303145063S11719647EA0132501365000000000000
B0617343144996S11719647EA0132501365000000000000
B0617383144970S11719707EA0132801370000000000000
B0617423144994S11719759EA0133901382000000000000
B0617463145038S11719763EA0135001396000000000000
B0617503145050S11719706EA0136101402000000000000
B0617543145005S11719649EA0136001400000000000000
B0617583144934S11719643EA0135601397000000000000
B0618023144860S11719659EA0135601399000000000000
B0618063144790S11719685EA0136301406000000000000
B0618103144732S11719733EA0136901410000000000000
B0618143144723S11719802EA0136501403000000000000
B0618183144742S11719871EA0136001401000000000000
B0618223144765S11719939EA0135401390000000000000
B0618263144788S11720013EA0134401375000000000000
B0618303144814S11720095EA0132601361000000000000
B0618343144839S11720179EA0132201361000000000000
B0618383144861S11720262EA0132201361000000000000
B0618423144882S11720343EA0131401348000000000000
B0618463144905S11720426EA0130001333000000000000
B0618503144930S11720511EA0129101327000000000000
B0618543144955S11720595EA0128901327000000000000
B0618583144978S11720676EA0129101329000000000000
B0619023144998S11720759EA0128501312000000000000
B0619063145018S11720845EA0127701312000000000000
B0619103145037S11720928EA0127501312000000000000
B0619143145054S11721012EA0127501308000000000000
B0619183145072S11721094EA0127001305000000000000
B0619223145091S11721176EA0126601297000000000000
B0619263145109S11721259EA0125701289000000000000
B0619303145129S11721345EA0124601277000000000000
B0619343145151S11721431EA0123601265000000000000
B0619383145174S11721518EA0122601254000000000000
B0619423145198S11721608EA0121601247000000000000
B0619463145224S11721692EA0121301246000000000000
B0619503145251S11721774EA0120701238000000000000
B0619543145276S11721855EA0120401236000000000000
B0619583145299S11721935EA0120201231000000000000
B0620023145325S11722011EA0120201234000000000000
B0620063145364S11722068EA0120101232000000000000
B0620103145410S11722117EA0119201218000000000000
B0620143145457S11722175EA0118001206000000000000
B0620183145502S11722232EA0117701209000000000000
B0620223145550S11722263EA0119001225000000000000
B0620263145601S11722266EA0119501225000000000000
B0620303145653S11722258EA0119501227000000000000
B0620343145706S11722247EA0119701227000000000000
B0620383145762S11722229EA0118901218000000000000
B0620423145821S11722210EA0118501218000000000000
B0620463145878S11722202EA0118501214000000000000
B0620503145939S11722224EA0116701192000000000000
B0620543145992S11722286EA0115801186000000000000
B0620583146034S11722364EA0115601183000000000000
B0621023146068S11722446EA0114701172000000000000
B0621063146097S11722528EA0113801163000000000000
B0621103146127S11722609EA0112701154000000000000
B0621143146153S11722689EA0112301149000000000000
B0621183146182S11722767EA0111601143000000000000
B0621223146216S11722841EA0110801132000000000000
B0621263146252S11722912EA0110101123000000000000
B0621303146291S11722977EA0109801124000000000000
B0621343146341S11723009EA0110601137000000000000
B0621383146389S11723003EA0111201138000000000000
B0621423146438S11722986EA0110001120000000000000
B0621463146495S11722994EA0107901097000000000000
B0621503146545S11723044EA0105801080000000000000
B0621543146572S11723125EA0105001074000000000000
B0621583146589S11723208EA0105401083000000000000
B0622023146611S11723281EA0106501090000000000000
B0622063146653S11723326EA0106701092000000000000
B0622103146703S11723350EA0106001082000000000000
B0622143146757S11723363EA0105001069000000000000
B0622183146812S11723384EA0103501055000000000000
B0622223146866S11723423EA0103401059000000000000
B0622263146919S11723451EA0104001067000000000000
B0622303146974S11723463EA0105401083000000000000
B0622343146984S11723406EA0107401106000000000000
B0622383146920S11723368EA0107101101000000000000
B0622423146864S11723415EA0107801114000000000000
B0622463146876S11723473EA0109101126000000000000
B0622503146913S11723462EA0110601142000000000000
B0622543146911S11723403EA0111101143000000000000
B0622583146855S11723355EA0110801139000000000000
B0623023146797S11723387EA0111301148000000000000
B0623063146796S11723452EA0111601150000000000000
B0623103146836S11723477EA0112301160000000000000
B0623143146837S11723419EA0113301164000000000000
B0623183146767S11723404EA0113201167000000000000
B0623223146741S11723469EA0114201178000000000000
B0623263146779S11723503EA0115101189000000000000
B0623303146807S11723462EA0116701201000000000000
B0623343146789S11723393EA0116001185000000000000
B0623383146719S11723372EA0115501189000000000000
B0623423146684S11723429EA0116701200000000000000
B0623463146711S11723482EA0116901205000000000000
B0623503146751S11723458EA0118301216000000000000
B0623543146741S11723390EA0117701206000000000000
B0623583146677S11723358EA0117301203000000000000
B0624023146611S11723389EA0117001200000000000000
B0624063146564S11723447EA0117201203000000000000
B0624103146573S11723511EA0117601209000000000000
B0624143146620S11723527EA0118101213000000000000
B0624183146671S11723514EA0117801198000000000000
B0624223146725S11723490EA0116601190000000000000
B0624263146783S11723460EA0115501175000000000000
B0624303146848S11723473EA0113801163000000000000
B0624343146880S11723545EA0114101173000000000000
B0624383146885S11723620EA0115301183000000000000
B0624423146889S11723694EA0115101174000000000000
B0624463146887S11723779EA0113601160000000000000
B0624503146883S11723862EA0114801179000000000000
B0624543146922S11723892EA0116401194000000000000
B0624583146944S11723840EA0116901199000000000000
B0625023146900S11723781EA0118001212000000000000
B0625063146829S11723796EA0118701217000000000000
B0625103146796S11723858EA0119101224000000000000
B0625143146815S11723904EA0119901230000000000000
B0625183146857S11723898EA0119801227000000000000
B0625223146885S11723846EA0119601230000000000000
B0625263146855S11723784EA0120401241000000000000
B0625303146788S11723794EA0120901244000000000000
B0625343146764S11723855EA0121701250000000000000
B0625383146798S11723880EA0121601251000000000000
B0625423146825S11723832EA0121701252000000000000
B0625463146786S11723774EA0122201260000000000000
B0625503146716S11723776EA0122601262000000000000
B0625543146679S11723835EA0123101267000000000000
B0625583146682S11723900EA0122801258000000000000
B0626023146686S11723978EA0121201241000000000000
B0626063146689S11724065EA0120201233000000000000
B0626103146692S11724153EA0119201222000000000000
B0626143146695S11724244EA0118201213000000000000
B0626183146705S11724335EA0117701205000000000000
B0626223146712S11724427EA0117201202000000000000
B0626263146720S11724520EA0117001199000000000000
B0626303146727S11724607EA0116801198000000000000
B0626343146732S11724694EA0116301192000000000000
B0626383146737S11724784EA0115201179000000000000
B0626423146745S11724877EA0114201165000000000000
B0626463146760S11724972EA0112701151000000000000
B0626503146780S11725064EA0111801142000000000000
B0626543146802S11725153EA0111301140000000000000
B0626583146824S11725237EA0111301140000000000000
B0627023146844S11725318EA0111901150000000000000
B0627063146866S11725393EA0112901156000000000000
B0627103146911S11725421EA0114601179000000000000
B0627143146944S11725378EA0115101177000000000000
B0627183146902S11725315EA0114301174000000000000
B0627223146828S11725304EA0114801177000000000000
B0627263146755S11725315EA0114701177000000000000
B0627303146699S11725366EA0114801177000000000000
B0627343146690S11725430EA0115001179000000000000
B0627383146729S11725422EA0114801174000000000000
B0627423146718S11725347EA0114901183000000000000
B0627463146647S11725326EA0115601183000000000000
B0627503146607S11725388EA0115401183000000000000
B0627543146629S11725431EA0116301195000000000000
B0627583146658S11725397EA0116401192000000000000
B0628023146632S11725323EA0115801188000000000000
B0628063146558S11725292EA0115701189000000000000
B0628103146478S11725313EA0115501186000000000000
B0628143146408S11725356EA0115001178000000000000
B0628183146372S11725427EA0114601174000000000000
B0628223146382S11725490EA0114601180000000000000
B0628263146421S11725508EA0115001184000000000000
B0628303146464S11725512EA0115401188000000000000
B0628343146510S11725510EA0116201195000000000000
B0628383146543S11725475EA0117001203000000000000
B0628423146494S11725423EA0117301204000000000000
B0628463146430S11725464EA0118301218000000000000
B0628503146434S11725525EA0119601229000000000000
B0628543146474S11725523EA0119901234000000000000
B0628583146481S11725461EA0120501240000000000000
B0629023146416S11725421EA0121501256000000000000
B0629063146359S11725462EA0122401264000000000000
B0629103146367S11725518EA0123101270000000000000
B0629143146407S11725517EA0123601275000000000000
B0629183146430S11725465EA0124001281000000000000
B0629223146408S11725396EA0124601285000000000000
B0629263146335S11725366EA0125301293000000000000
B0629303146264S11725393EA0126001300000000000000
B0629343146248S11725456EA0126501303000000000000
B0629383146281S11725487EA0126501305000000000000
B0629423146326S11725499EA0126901308000000000000
B0629463146368S11725474EA0127701317000000000000
B0629503146351S11725408EA0128301321000000000000
B0629543146278S11725393EA0128201322000000000000
B0629583146231S11725445EA0129301338000000000000
B0630023146247S11725493EA0130201342000000000000
B0630063146286S11725477EA0130301340000000000000
B0630103146283S11725405EA0130401346000000000000
B0630143146225S11725350EA0131001349000000000000
B0630183146148S11725366EA0131201352000000000000
B0630223146129S11725428EA0132401366000000000000
B0630263146166S11725449EA0132801366000000000000
B0630303146187S11725397EA0133201378000000000000
B0630343146135S11725343EA0134401385000000000000
B0630383146062S11725357EA0134301383000000000000
B0630423146040S11725421EA0135101392000000000000
