ACAM4N6
HFDTE160115
HFFXA050
HFPLTPILOT:JOHN WELSH              
HFGTYGLIDERTYPE:HORNET      
HFGIDGLIDERID:VH-GMY      
HFDTM100GPSDATUM:
HFRFWFIRMWAREVERSION:F2.6
HFRHWHARDWAREVERSION:300 Series Version 2
HFFTYFRTYPE:CAMBRIDGE AERO INSTRUMENTS, 302+
HFGPS:GARMIN,LVS-25,12,18000
HFPRSPRESSALTSENSOR:INTERSEMA, MS5534-AP, 20000
I033638FXA3941ENL4247REX
LCAMSBVER:5FWVER:F26300
C160115035457160115000103
C0000000N00000000WTAKEOFF     
C3207549S11656849EBEVAIR      
C3137833S11659799EMECKERNG    
C3200816S11723682EQUAIRDNG    
C3222566S11700865EBROOKTON    
C3207549S11656849EBEVAIR      
C0000000N00000000WLANDING     
B0358273207338S11656858EA0018000198000000000000
B0358293207338S11656858EA0018000198000000000000
B0358313207338S11656858EA0018000198000000000000
B0358333207338S11656858EA0017900198000000000000
B0358353207338S11656858EA0017900198000000000000
B0358373207338S11656858EA0017900198000000000000
B0358393207338S11656858EA0018000198000000000000
B0358413207338S11656858EA0018100198000000000000
B0358433207338S11656858EA0018000198000000000000
B0358453207338S11656858EA0017800198000000000000
B0358473207338S11656858EA0017900198000000000000
B0358493207338S11656858EA0018000198000000000000
B0358513207338S11656858EA0018000198000000000000
B0358533207338S11656858EA0018000198000000000000
B0358553207341S11656861EA0018000198000000000000
B0358583207350S11656869EA0017900198000000000000
B0359023207376S11656892EA0017900198000000000000
B0359063207419S11656919EA0017900198000000000000
B0359103207473S11656953EA0017900200000000000000
B0359143207536S11656991EA0017900202000000000000
B0359183207602S11657031EA0018000206000000000000
B0359223207664S11657074EA0018800225000000000000
B0359263207722S11657120EA0021000247000000000000
B0359303207775S11657163EA0023600270000000000000
B0359343207827S11657209EA0025400287000000000000
B0359383207875S11657256EA0027100304000000000000
B0359423207923S11657304EA0027700310000000000000
B0359463207966S11657361EA0028600326000000000000
B0359503207995S11657434EA0029800335000000000000
B0359543208005S11657512EA0030800355000000000000
B0359583208002S11657593EA0033200375000000000000
B0400023207993S11657672EA0034700388000000000000
B0400063207989S11657751EA0036100406000000000000
B0400103207987S11657835EA0037600419000000000000
B0400143207978S11657920EA0038900436000000000000
B0400183207973S11658005EA0041300463000000000000
B0400223207974S11658089EA0043700486000000000000
B0400263207987S11658173EA0045700506000000000000
B0400303208010S11658251EA0047500523000000000000
B0400343208043S11658325EA0049700546000000000000
B0400383208079S11658398EA0052000570000000000000
B0400423208118S11658468EA0053600583000000000000
B0400463208157S11658535EA0054700594000000000000
B0400503208192S11658604EA0055400600000000000000
B0400543208227S11658673EA0056100607000000000000
B0400583208260S11658741EA0057100621000000000000
B0401023208290S11658810EA0058200628000000000000
B0401063208321S11658876EA0059700651000000000000
B0401103208353S11658940EA0061800674000000000000
B0401143208389S11659005EA0063900693000000000000
B0401183208424S11659068EA0064800697000000000000
B0401223208456S11659135EA0065400705000000000000
B0401263208490S11659194EA0066500720000000000000
B0401303208524S11659254EA0067500725000000000000
B0401343208556S11659317EA0068100729000000000000
B0401383208587S11659380EA0068300733000000000000
B0401423208621S11659444EA0069000738000000000000
B0401463208656S11659508EA0069500744000000000000
B0401503208688S11659575EA0069900750000000000000
B0401543208714S11659643EA0071300765000000000000
B0401583208737S11659714EA0072800781000000000000
B0402023208749S11659790EA0074100795000000000000
B0402063208751S11659868EA0075100807000000000000
B0402103208755S11659946EA0076400824000000000000
B0402143208780S11700007EA0077900839000000000000
B0402183208834S11700000EA0079600859000000000000
B0402223208849S11659921EA0080900870000000000000
B0402263208799S11659864EA0081100873000000000000
B0402303208742S11659882EA0080400870000000000000
B0402343208720S11659942EA0080300870000000000000
B0402383208755S11659982EA0080800874000000000000
B0402423208814S11659965EA0080700870000000000000
B0402463208846S11659886EA0081100881000000000000
B0402503208807S11659817EA0082900903000000000000
B0402543208754S11659821EA0084300907000000000000
B0402583208743S11659868EA0084000905000000000000
B0403023208792S11659880EA0083700900000000000000
B0403063208821S11659811EA0084000905000000000000
B0403103208766S11659765EA0085000922000000000000
B0403143208733S11659805EA0085700927000000000000
B0403183208772S11659829EA0085800925000000000000
B0403223208815S11659776EA0086100932000000000000
B0403263208801S11659692EA0087700947000000000000
B0403303208746S11659657EA0088400953000000000000
B0403343208698S11659685EA0088400951000000000000
B0403383208697S11659739EA0088300950000000000000
B0403423208751S11659755EA0087800945000000000000
B0403463208790S11659694EA0088300953000000000000
B0403503208754S11659612EA0088900961000000000000
B0403543208690S11659608EA0089600977000000015000
B0403583208681S11659659EA0090600984000000000000
B0404023208728S11659673EA0090800981000000000000
B0404063208771S11659618EA0090700981000000000000
B0404103208755S11659534EA0091300987000000000000
B0404143208694S11659508EA0091500989000000000000
B0404183208658S11659553EA0091700994000000000000
B0404223208682S11659600EA0092000993000000000000
B0404263208741S11659596EA0091400986000000000000
B0404303208779S11659525EA0092100997000000000000
B0404343208769S11659438EA0092700997000000000000
B0404383208712S11659393EA0092200995000000000000
B0404423208659S11659419EA0092300994000000000000
B0404463208668S11659471EA0092600999000000000000
B0404503208720S11659480EA0092801000000000000000
B0404543208766S11659426EA0092901004000000000000
B0404583208756S11659345EA0093501006000000000000
B0405023208699S11659313EA0093301002000000000000
B0405063208654S11659344EA0093301004000000000000
B0405103208641S11659400EA0092600997000000000000
B0405143208642S11659464EA0091500986000000000000
B0405183208667S11659522EA0090400974000000000000
B0405223208727S11659547EA0089900968000000000000
B0405263208794S11659514EA0089300963000000000000
B0405303208837S11659436EA0089300965000000000000
B0405343208829S11659341EA0090300976000000000000
B0405383208767S11659301EA0091300986000000015000
B0405423208756S11659347EA0092400995000000015000
B0405463208807S11659344EA0091900988000000000000
B0405503208842S11659274EA0091800988000000000000
B0405543208818S11659188EA0091900989000000000000
B0405583208755S11659166EA0092801000000000000000
B0406023208749S11659213EA0093701007000000000000
B0406063208797S11659201EA0093901007000000000000
B0406103208818S11659123EA0093901006000000000000
B0406143208776S11659049EA0093901006000000000000
B0406183208715S11659046EA0094501011000000000000
B0406223208697S11659094EA0094601009000000000000
B0406263208742S11659115EA0094301009000000000000
B0406303208792S11659063EA0094001006000000000000
B0406343208784S11658972EA0094401010000000000000
B0406383208729S11658912EA0094401008000000000000
B0406423208664S11658915EA0094201006000000000000
B0406463208636S11658964EA0094101003000000000000
B0406503208659S11659011EA0094401009000000000000
B0406543208711S11659025EA0094501009000000000000
B0406583208758S11658979EA0094901014000000000000
B0407023208737S11658898EA0095101016000000000000
B0407063208676S11658877EA0095201021000000000000
B0407103208646S11658921EA0095301026000000000000
B0407143208680S11658959EA0096001031000000000000
B0407183208733S11658929EA0096201035000000000000
B0407223208736S11658847EA0097301048000000000000
B0407263208684S11658819EA0097901055000000015000
B0407303208650S11658855EA0097601049000000000000
B0407343208680S11658892EA0097401046000000000000
B0407383208734S11658864EA0097101043000000000000
B0407423208769S11658786EA0097301044000000000000
B0407463208750S11658698EA0097401044000000000000
B0407503208685S11658664EA0096601036000000000000
B0407543208630S11658699EA0096201034000000000000
B0407583208608S11658760EA0096001032000000000000
B0408023208621S11658820EA0096101035000000000000
B0408063208671S11658849EA0096601038000000000000
B0408103208724S11658808EA0096901041000000000000
B0408143208698S11658732EA0097901055000000000000
B0408183208639S11658741EA0098901063000000015000
B0408223208638S11658791EA0099201064000000000000
B0408263208689S11658801EA0098901058000000000000
B0408303208727S11658737EA0099201063000000000000
B0408343208707S11658652EA0099301058000000000000
B0408383208645S11658606EA0098501052000000000000
B0408423208589S11658634EA0098901061000000000000
B0408463208586S11658689EA0100001071000000000000
B0408503208630S11658713EA0100401073000000000000
B0408543208681S11658677EA0100501075000000000000
B0408583208691S11658595EA0101001079000000000000
B0409023208649S11658526EA0100701073000000000000
B0409063208580S11658515EA0100301069000000000000
B0409103208534S11658559EA0100301072000000000000
B0409143208545S11658611EA0101401085000000000000
B0409183208597S11658617EA0101701082000000000000
B0409223208639S11658560EA0101401083000000000000
B0409263208621S11658482EA0102501097000000000000
B0409303208564S11658465EA0103201103000000000000
B0409343208537S11658507EA0103001102000000000000
B0409383208569S11658537EA0103001100000000000000
B0409423208617S11658509EA0103001098000000000000
B0409463208637S11658435EA0103001097000000000000
B0409503208606S11658356EA0102601092000000000000
B0409543208539S11658325EA0102001090000000000000
B0409583208489S11658362EA0102501097000000000000
B0410023208494S11658416EA0103101102000000000000
B0410063208541S11658437EA0102801094000000000000
B0410103208594S11658400EA0102501096000000000000
B0410143208598S11658320EA0103101102000000000000
B0410183208547S11658261EA0103401102000000000000
B0410223208481S11658260EA0103001097000000000000
B0410263208467S11658313EA0103101100000000000000
B0410303208512S11658336EA0102801096000000000000
B0410343208564S11658292EA0102701098000000000000
B0410383208581S11658209EA0103001101000000000000
B0410423208554S11658126EA0103101097000000000000
B0410463208491S11658074EA0102801095000000000000
B0410503208429S11658088EA0102801097000000000000
B0410543208418S11658141EA0103501105000000000000
B0410583208457S11658164EA0103901107000000000000
B0411023208507S11658128EA0103901108000000000000
B0411063208516S11658049EA0104601114000000000000
B0411103208472S11657982EA0104301109000000000000
B0411143208408S11657976EA0103801103000000000000
B0411183208379S11658028EA0103601103000000000000
B0411223208396S11658079EA0104001107000000000000
B0411263208446S11658087EA0104301111000000000000
B0411303208482S11658030EA0104701113000000000000
B0411343208460S11657950EA0104501110000000000000
B0411383208396S11657915EA0103801103000000000000
B0411423208342S11657944EA0103501104000000000000
B0411463208337S11658000EA0104301109000000000000
B0411503208373S11658041EA0104301108000000000000
B0411543208430S11658031EA0104101107000000000000
B0411583208468S11657966EA0104001106000000000000
B0412023208461S11657879EA0103801101000000000000
B0412063208407S11657814EA0103101097000000000000
B0412103208335S11657802EA0102801091000000000000
B0412143208285S11657845EA0102501092000000000000
B0412183208259S11657911EA0102001087000000000000
B0412223208253S11657983EA0101901085000000000000
B0412263208257S11658054EA0101001075000000000000
B0412303208272S11658126EA0099801063000000000000
B0412343208298S11658193EA0099101057000000000000
B0412383208339S11658249EA0098901056000000000000
B0412423208373S11658310EA0099201057000000000000
B0412463208396S11658373EA0099501063000000000000
B0412503208416S11658435EA0100301068000000000000
B0412543208437S11658496EA0100301066000000000000
B0412583208460S11658560EA0099601060000000000000
B0413023208499S11658609EA0099201055000000000000
B0413063208552S11658589EA0099201058000000000000
B0413103208564S11658513EA0099701063000000000000
B0413143208535S11658427EA0100101066000000000000
B0413183208486S11658355EA0100301066000000000000
B0413223208418S11658361EA0100101068000000000000
B0413263208396S11658429EA0100301066000000000000
B0413303208428S11658486EA0099901064000000000000
B0413343208480S11658481EA0100801076000000000000
B0413383208507S11658416EA0101401075000000000000
B0413423208478S11658339EA0101101075000000000000
B0413463208411S11658316EA0101001075000000000000
B0413503208372S11658365EA0101201082000000000000
B0413543208395S11658412EA0101001074000000000000
B0413583208448S11658401EA0100701072000000000000
B0414023208474S11658336EA0101001078000000000000
B0414063208468S11658257EA0101601083000000000000
B0414103208424S11658203EA0101501077000000000000
B0414143208370S11658227EA0101001073000000000000
B0414183208357S11658291EA0100201066000000000000
B0414223208366S11658360EA0099101056000000000000
B0414263208408S11658399EA0099301061000000000000
B0414303208455S11658373EA0100101066000000000000
B0414343208480S11658300EA0100101069000000000000
B0414383208437S11658238EA0101501086000000000000
B0414423208392S11658275EA0103201104000000000000
B0414463208407S11658327EA0103801108000000000000
B0414503208454S11658308EA0104001113000000000000
B0414543208444S11658236EA0105301128000000000000
B0414583208383S11658217EA0106601139000000000000
B0415023208348S11658268EA0107401146000000000000
B0415063208373S11658316EA0107701147000000000000
B0415103208421S11658295EA0107901155000000000000
B0415143208438S11658223EA0108801159000000000000
B0415183208404S11658154EA0109601173000000000000
B0415223208342S11658156EA0111201187000000000000
B0415263208322S11658210EA0111801190000000000000
B0415303208361S11658240EA0111901191000000000000
B0415343208404S11658199EA0112401197000000000000
B0415383208400S11658117EA0112601199000000000000
B0415423208342S11658086EA0113601220000000000000
B0415463208305S11658128EA0115201226000000000000
B0415503208325S11658177EA0115201227000000000000
B0415543208369S11658154EA0115901233000000000000
B0415583208382S11658079EA0115901229000000000000
B0416023208339S11658014EA0116401240000000000000
B0416063208277S11658023EA0117501244000000000000
B0416103208252S11658084EA0117201243000000000000
B0416143208283S11658127EA0117801249000000000000
B0416183208334S11658114EA0118001251000000000000
B0416223208363S11658049EA0118501256000000000000
B0416263208340S11657972EA0119001264000000000000
B0416303208278S11657948EA0119701272000000000000
B0416343208227S11657987EA0120101276000000000000
B0416383208225S11658044EA0120101276000000000000
B0416423208264S11658071EA0120001273000000000000
B0416463208312S11658040EA0120001273000000000000
B0416503208321S11657963EA0120201280000000000000
B0416543208272S11657907EA0121001288000000000000
B0416583208210S11657931EA0120401281000000000000
B0417023208194S11657998EA0120101281000000000000
B0417063208223S11658049EA0120301280000000000000
B0417103208273S11658054EA0120201277000000000000
B0417143208317S11657996EA0120201282000000000000
B0417183208326S11657911EA0120801292000000000000
B0417223208274S11657859EA0122301305000000000000
B0417263208214S11657876EA0122401301000000000000
B0417303208203S11657933EA0121701296000000000000
B0417343208242S11657962EA0121501294000000000000
B0417383208291S11657928EA0122001300000000000000
B0417423208317S11657859EA0122501306000000000000
B0417463208278S11657793EA0122801309000000000000
B0417503208225S11657815EA0123401324000000000000
B0417543208233S11657861EA0124701333000000000000
B0417583208278S11657866EA0125001332000000000000
B0418023208303S11657810EA0125301340000000000000
B0418063208259S11657753EA0126101342000000000000
B0418103208197S11657771EA0125701337000000000000
B0418143208194S11657829EA0126001344000000000000
B0418183208231S11657862EA0126801349000000000000
B0418223208281S11657837EA0126501345000000000000
B0418263208295S11657761EA0126401341000000000000
B0418303208255S11657686EA0125801336000000000000
B0418343208184S11657666EA0126001340000000000000
B0418383208131S11657702EA0125901336000000000000
B0418423208118S11657761EA0125701333000000000000
B0418463208122S11657824EA0125201328000000000000
B0418503208134S11657888EA0125101330000000000000
B0418543208149S11657953EA0125201328000000000000
B0418583208175S11658014EA0124401318000000000000
B0419023208207S11658074EA0123501312000000000000
B0419063208235S11658136EA0122901304000000000000
B0419103208256S11658205EA0122401300000000000000
B0419143208273S11658275EA0122301294000000000000
B0419183208292S11658347EA0121401285000000000000
B0419223208317S11658417EA0120801282000000000000
B0419263208342S11658489EA0120201272000000000000
B0419303208361S11658564EA0119401265000000000000
B0419343208374S11658639EA0119101264000000000000
B0419383208385S11658716EA0118801260000000000000
B0419423208402S11658788EA0118801261000000000000
B0419463208413S11658858EA0118601254000000000000
B0419503208438S11658921EA0118101251000000000000
B0419543208460S11658988EA0117701248000000000000
B0419583208429S11659048EA0117801249000000000000
B0420023208359S11659062EA0117301240000000000000
B0420063208282S11659035EA0116601232000000000000
B0420103208204S11658997EA0115501223000000000000
B0420143208126S11658957EA0114601214000000000000
B0420183208045S11658916EA0114101211000000000000
B0420223207969S11658897EA0114001210000000000000
B0420263207911S11658933EA0114801217000000000000
B0420303207872S11658993EA0113801199000000000000
B0420343207835S11659059EA0112401191000000000000
B0420383207809S11659135EA0112301190000000000000
B0420423207807S11659217EA0112201192000000000000
B0420463207822S11659295EA0113901211000000000000
B0420503207882S11659295EA0116001229000000000000
B0420543207895S11659211EA0116601230000000000000
B0420583207846S11659155EA0116201227000000000000
B0421023207788S11659176EA0115601227000000000000
B0421063207762S11659235EA0116601242000000000000
B0421103207810S11659241EA0118401261000000000000
B0421143207827S11659167EA0119301260000000000000
B0421183207780S11659123EA0120101280000000000000
B0421223207742S11659152EA0121701292000000000000
B0421263207759S11659200EA0122401295000000000000
B0421303207814S11659189EA0122901303000000000000
B0421343207840S11659120EA0123501308000000000000
B0421383207814S11659050EA0123801312000000000000
B0421423207759S11659027EA0124201317000000000000
B0421463207716S11659059EA0124701322000000000000
B0421503207724S11659111EA0125801336000000000000
B0421543207775S11659115EA0126901346000000000000
B0421583207814S11659055EA0127601350000000000000
B0422023207796S11658984EA0128401361000000000000
B0422063207746S11658972EA0128601366000000000000
B0422103207733S11659018EA0129001368000000000000
B0422143207779S11659035EA0129401371000000000000
B0422183207827S11658985EA0129601372000000000000
B0422223207836S11658905EA0129601374000000000000
B0422263207797S11658846EA0129401365000000000000
B0422303207745S11658856EA0128201354000000000000
B0422343207723S11658912EA0127201346000000000000
B0422383207741S11658972EA0127101345000000000000
B0422423207797S11658983EA0127701357000000000000
B0422463207828S11658914EA0128001356000000000000
B0422503207794S11658845EA0127201351000000000000
B0422543207736S11658843EA0127401353000000000000
B0422583207706S11658890EA0127301351000000000000
B0423023207733S11658937EA0127501356000000000000
B0423063207791S11658914EA0127901359000000000000
B0423103207819S11658837EA0128201358000000000000
B0423143207792S11658760EA0127701360000000000000
B0423183207736S11658713EA0127301351000000000000
B0423223207672S11658668EA0125601334000000000000
B0423263207606S11658617EA0124101321000000000000
B0423303207540S11658561EA0123501314000000000000
B0423343207475S11658500EA0123001310000000000000
B0423383207408S11658442EA0122601298000000000000
B0423423207337S11658383EA0121401288000000000000
B0423463207263S11658326EA0120401281000000000000
B0423503207190S11658269EA0120101278000000000000
B0423543207120S11658212EA0119801274000000000000
B0423583207050S11658158EA0119401271000000000000
B0424023206981S11658106EA0119201268000000000000
B0424063206914S11658056EA0119001264000000000000
B0424103206849S11658005EA0118501259000000000000
B0424143206784S11657952EA0117901249000000000000
B0424183206722S11657893EA0117201246000000000000
B0424223206662S11657835EA0116701239000000000000
B0424263206598S11657775EA0115901233000000000000
B0424303206535S11657715EA0115501227000000000000
B0424343206471S11657657EA0115101224000000000000
B0424383206407S11657601EA0115101223000000000000
B0424423206346S11657546EA0114901219000000000000
B0424463206280S11657502EA0114801224000000000000
B0424503206212S11657473EA0115201222000000000000
B0424543206150S11657482EA0115001217000000000000
B0424583206088S11657502EA0113401197000000000000
B0425023206015S11657516EA0111901185000000000000
B0425063205938S11657523EA0111301180000000000000
B0425103205860S11657525EA0110001167000000000000
B0425143205781S11657529EA0109301161000000000000
B0425183205704S11657533EA0108801151000000000000
B0425223205625S11657536EA0107801144000000000000
B0425263205545S11657537EA0107801147000000000000
B0425303205480S11657567EA0108201146000000000000
B0425343205451S11657629EA0108301144000000000000
B0425383205447S11657703EA0106701127000000000000
B0425423205448S11657783EA0105201117000000000000
B0425463205447S11657863EA0104901114000000000000
B0425503205458S11657940EA0104901110000000000000
B0425543205475S11658015EA0103901100000000000000
B0425583205499S11658091EA0103101091000000000000
B0426023205532S11658161EA0102201079000000000000
B0426063205571S11658232EA0101001072000000000000
B0426103205616S11658296EA0100901067000000000000
B0426143205670S11658351EA0100001062000000000000
B0426183205727S11658404EA0099301050000000000000
B0426223205791S11658455EA0098301045000000000000
B0426263205854S11658504EA0098901050000000000000
B0426303205895S11658569EA0099401057000000000000
B0426343205921S11658637EA0100701068000000000000
B0426383205978S11658639EA0102201087000000000000
B0426423205982S11658552EA0103501090000000000000
B0426463205922S11658507EA0103501093000000000000
B0426503205868S11658521EA0103201089000000000000
B0426543205841S11658576EA0102401082000000000000
B0426583205826S11658642EA0102301085000000000000
B0427023205843S11658700EA0103601101000000000000
B0427063205891S11658673EA0104001099000000000000
B0427103205861S11658596EA0104301107000000000000
B0427143205803S11658607EA0106101128000000000000
B0427183205796S11658660EA0107601137000000000000
B0427223205844S11658672EA0107801139000000000000
B0427263205877S11658611EA0108501147000000000000
B0427303205848S11658543EA0109801157000000000000
B0427343205791S11658533EA0110501167000000000000
B0427383205752S11658578EA0111101174000000000000
B0427423205757S11658638EA0111501179000000000000
B0427463205800S11658676EA0112101184000000000000
B0427503205859S11658668EA0112401188000000000000
B0427543205903S11658621EA0112701190000000000000
B0427583205909S11658544EA0112701191000000000000
B0428023205874S11658479EA0113501201000000000000
B0428063205812S11658461EA0114201207000000000000
B0428103205770S11658499EA0115601225000000000000
B0428143205783S11658554EA0116301231000000000000
B0428183205835S11658568EA0116701234000000000000
B0428223205878S11658524EA0117201240000000000000
B0428263205874S11658452EA0117801248000000000000
B0428303205830S11658409EA0118501255000000000000
B0428343205777S11658418EA0119101262000000000000
B0428383205752S11658466EA0120001272000000000000
B0428423205778S11658505EA0121101282000000000000
B0428463205826S11658491EA0121501281000000000000
B0428503205851S11658431EA0120901274000000000000
B0428543205828S11658364EA0121501285000000000000
B0428583205776S11658340EA0122201292000000000000
B0429023205730S11658366EA0122801301000000000000
B0429063205722S11658420EA0123701309000000000000
B0429103205753S11658459EA0124101310000000000000
B0429143205803S11658456EA0123901305000000000000
B0429183205846S11658408EA0123101299000000000000
B0429223205854S11658336EA0122901298000000000000
B0429263205826S11658273EA0123301303000000000000
B0429303205776S11658235EA0123501308000000000000
B0429343205718S11658247EA0123701312000000000000
B0429383205718S11658301EA0125001329000000000000
B0429423205768S11658309EA0126201337000000000000
B0429463205802S11658255EA0126901338000000000000
B0429503205787S11658186EA0126601338000000000000
B0429543205733S11658160EA0127201346000000000000
B0429583205692S11658195EA0128501362000000000000
B0430023205699S11658247EA0130401380000000000000
B0430063205740S11658268EA0130801382000000000000
B0430103205786S11658231EA0130701378000000000000
B0430143205802S11658161EA0130501375000000000000
B0430183205790S11658088EA0130001370000000000000
B0430223205748S11658036EA0130001376000000000000
B0430263205698S11658043EA0131001389000000000000
B0430303205666S11658083EA0131901393000000000000
B0430343205678S11658134EA0132201396000000000000
B0430383205729S11658140EA0131901391000000000000
B0430423205779S11658095EA0131101382000000000000
B0430463205802S11658018EA0130001371000000000000
B0430503205786S11657939EA0129901371000000000000
B0430543205738S11657891EA0130001376000000000000
B0430583205682S11657893EA0130401383000000000000
B0431023205657S11657937EA0131101389000000000000
B0431063205683S11657975EA0131701396000000000000
B0431103205731S11657956EA0132101398000000000000
B0431143205761S11657889EA0131701389000000000000
B0431183205743S11657810EA0130801385000000000000
B0431223205688S11657777EA0130801386000000000000
B0431263205640S11657794EA0130601384000000000000
B0431303205608S11657840EA0130601381000000000000
B0431343205595S11657896EA0130501383000000000000
B0431383205613S11657945EA0131001388000000000000
B0431423205657S11657940EA0131501388000000000000
B0431463205677S11657867EA0130901386000000000000
B0431503205648S11657792EA0131701400000000000000
B0431543205592S11657766EA0132201400000000000000
B0431583205543S11657790EA0131901397000000000000
B0432023205535S11657841EA0132001399000000000000
B0432063205573S11657867EA0132301399000000000000
B0432103205617S11657827EA0132201400000000000000
B0432143205616S11657748EA0132701408000000000000
B0432183205565S11657694EA0133001409000000000000
B0432223205501S11657692EA0132601401000000000000
B0432263205462S11657736EA0131801395000000000000
B0432303205467S11657793EA0131601395000000000000
B0432343205506S11657829EA0131601392000000000000
B0432383205557S11657818EA0131701392000000000000
B0432423205591S11657761EA0131701393000000000000
B0432463205582S11657683EA0131601391000000000000
B0432503205522S11657632EA0131401390000000000000
B0432543205460S11657638EA0131601392000000000000
B0432583205418S11657680EA0131501389000000000000
B0433023205396S11657737EA0130701378000000000000
B0433063205383S11657803EA0129601367000000000000
B0433103205379S11657872EA0128901360000000000000
B0433143205379S11657941EA0128201352000000000000
B0433183205383S11658013EA0127201341000000000000
B0433223205392S11658083EA0126501333000000000000
B0433263205406S11658156EA0126101330000000000000
B0433303205422S11658225EA0125901329000000000000
B0433343205441S11658291EA0125801328000000000000
B0433383205461S11658357EA0125601321000000000000
B0433423205480S11658422EA0125101316000000000000
B0433463205503S11658486EA0124601315000000000000
B0433503205529S11658542EA0124201309000000000000
B0433543205556S11658595EA0123701302000000000000
B0433583205584S11658648EA0123101288000000000000
B0434023205618S11658699EA0122601289000000000000
B0434063205661S11658741EA0123001292000000000000
B0434103205720S11658743EA0123101290000000000000
B0434143205765S11658684EA0123901299000000000000
B0434183205753S11658599EA0123801298000000015000
B0434223205694S11658552EA0122401286000000000000
B0434263205627S11658552EA0121001272000000000000
B0434303205586S11658594EA0120601275000000000000
B0434343205569S11658648EA0121001275000000000000
B0434383205558S11658708EA0120501269000000000000
B0434423205553S11658772EA0120101265000000000000
B0434463205555S11658837EA0119701264000000000000
B0434503205561S11658901EA0120201267000000000000
B0434543205568S11658968EA0119801257000000000000
B0434583205570S11659044EA0118101241000000000000
B0435023205574S11659123EA0117001232000000000000
B0435063205575S11659204EA0116201225000000000000
B0435103205591S11659282EA0115501216000000000000
B0435143205627S11659348EA0114601203000000000000
B0435183205682S11659399EA0113801199000000000000
B0435223205743S11659430EA0113801197000000000000
B0435263205808S11659448EA0113601196000000000000
B0435303205874S11659460EA0113001188000000000000
B0435343205943S11659470EA0112001177000000000000
B0435383206016S11659475EA0111501173000000000000
B0435423206088S11659479EA0111001161000000000000
B0435463206162S11659482EA0109901154000000000000
B0435503206232S11659482EA0109601151000000000000
B0435543206303S11659483EA0109201145000000000000
B0435583206374S11659486EA0108901143000000000000
B0436023206444S11659492EA0109301144000000000000
B0436063206498S11659535EA0110001155000000000000
B0436103206549S11659571EA0110801160000000000000
B0436143206592S11659523EA0111301160000000015000
B0436183206569S11659444EA0110501154000000015000
B0436223206502S11659409EA0109901150000000015000
B0436263206435S11659426EA0109701157000000015000
B0436303206403S11659486EA0110301163000000015000
B0436343206432S11659538EA0111701187000000015000
B0436383206475S11659495EA0113801201000000015000
B0436423206452S11659425EA0113501196000000015000
B0436463206387S11659409EA0113301203000000015000
B0436503206337S11659449EA0113801207000000015000
B0436543206338S11659509EA0114501214000000015000
B0436583206392S11659509EA0115001217000000015000
B0437023206413S11659434EA0115701225000000015000
B0437063206361S11659395EA0116701236000000015000
B0437103206324S11659435EA0117601244000000015000
B0437143206353S11659477EA0117601243000000015000
B0437183206407S11659449EA0118001247000000015000
B0437223206432S11659374EA0118101250000000015000
B0437263206397S11659305EA0118001252000000015000
B0437303206335S11659300EA0118001254000000015000
B0437343206305S11659349EA0119001266000000000000
B0437383206336S11659389EA0119701269000000000000
B0437423206393S11659365EA0119701266000000000000
B0437463206411S11659285EA0119401271000000015000
B0437503206363S11659230EA0119501275000000015000
B0437543206303S11659233EA0119801279000000000000
B0437583206260S11659278EA0119701274000000000000
B0438023206259S11659341EA0119401270000000000000
B0438063206302S11659383EA0119301269000000000000
B0438103206362S11659371EA0119201267000000000000
B0438143206406S11659304EA0118701260000000000000
B0438183206420S11659215EA0118501257000000000000
B0438223206394S11659131EA0118301257000000000000
B0438263206333S11659092EA0118801264000000000000
B0438303206276S11659110EA0118901265000000000000
B0438343206233S11659158EA0118501255000000000000
B0438383206214S11659227EA0117901252000000000000
B0438423206207S11659305EA0117101242000000000000
B0438463206208S11659388EA0116201235000000000000
B0438503206223S11659467EA0116401237000000000000
B0438543206258S11659535EA0116401233000000000000
B0438583206310S11659595EA0115601220000000000000
B0439023206380S11659630EA0114001203000000000000
B0439063206461S11659635EA0112601191000000000000
B0439103206543S11659625EA0111801185000000000000
B0439143206622S11659607EA0111201179000000000000
B0439183206701S11659586EA0110601169000000000000
B0439223206779S11659560EA0109401155000000000000
B0439263206857S11659531EA0108801152000000000000
B0439303206933S11659501EA0109401161000000000000
B0439343207003S11659466EA0110401171000000000000
B0439383207069S11659428EA0110701165000000000000
B0439423207134S11659389EA0110301163000000000000
B0439463207185S11659331EA0110301162000000000000
B0439503207228S11659261EA0109201144000000000000
B0439543207290S11659213EA0107901140000000000000
B0439583207358S11659191EA0107701136000000000000
B0440023207425S11659201EA0107001129000000000000
B0440063207485S11659239EA0106401121000000000000
B0440103207537S11659291EA0105501109000000000000
B0440143207583S11659356EA0104901104000000000000
B0440183207612S11659430EA0104601101000000000000
B0440223207623S11659505EA0104701106000000000000
B0440263207624S11659579EA0105001103000000000000
B0440303207624S11659655EA0104601101000000000000
B0440343207631S11659729EA0103901093000000000000
B0440383207651S11659802EA0102801080000000000000
B0440423207663S11659883EA0101101066000000000000
B0440463207653S11659969EA0100301060000000000000
B0440503207641S11700052EA0100001059000000000000
B0440543207645S11700130EA0100201057000000000000
B0440583207672S11700195EA0099501049000000000000
B0441023207729S11700220EA0098601039000000000000
B0441063207794S11700215EA0097701031000000000000
B0441103207859S11700189EA0096901023000000000000
B0441143207926S11700150EA0096101016000000000000
B0441183207993S11700110EA0095801017000000000000
B0441223208053S11700063EA0097001031000000000000
B0441263208058S11659985EA0098201047000000000000
B0441303207997S11659956EA0098101049000000000000
B0441343207945S11659997EA0097601043000000000000
B0441383207927S11700064EA0096901036000000000000
B0441423207911S11700140EA0096101029000000000000
B0441463207904S11700218EA0095601023000000000000
B0441503207918S11700292EA0095901032000000000000
B0441543207967S11700288EA0097901046000000015000
B0441583207954S11700215EA0100001071000000060000
B0442023207896S11700211EA0100301074000000045000
B0442063207880S11700264EA0100301074000000030000
B0442103207924S11700275EA0101501080000000030000
B0442143207950S11700214EA0102201087000000030000
B0442183207904S11700160EA0103001100000000030000
B0442223207853S11700182EA0103801109000000015000
B0442263207857S11700228EA0104301113000000015000
B0442303207901S11700231EA0104501111000000015000
B0442343207941S11700176EA0104501112000000015000
B0442383207923S11700102EA0106201136000000015000
B0442423207862S11700101EA0107701150000000015000
B0442463207848S11700150EA0108401156000000015000
B0442503207889S11700164EA0108601156000000015000
B0442543207918S11700107EA0109701168000000015000
B0442583207875S11700049EA0110101177000000015000
B0443023207817S11700064EA0111001184000000015000
B0443063207802S11700119EA0111401182000000015000
B0443103207837S11700155EA0111001178000000015000
B0443143207892S11700140EA0111601187000000000000
B0443183207931S11700082EA0112901200000000015000
B0443223207927S11700004EA0112901196000000015000
B0443263207874S11659946EA0112901198000000015000
B0443303207802S11659935EA0113101206000000015000
B0443343207771S11659978EA0114101216000000000000
B0443383207806S11700008EA0114101208000000000000
B0443423207856S11659973EA0114401216000000000000
B0443463207831S11659903EA0115801236000000015000
B0443503207766S11659899EA0116001237000000015000
B0443543207740S11659958EA0115801231000000000000
B0443583207781S11659989EA0115701235000000000000
B0444023207806S11659922EA0117101250000000000000
B0444063207757S11659865EA0118801266000000000000
B0444103207698S11659878EA0119701271000000000000
B0444143207679S11659932EA0119501264000000000000
B0444183207710S11659974EA0118901260000000000000
B0444223207761S11659980EA0119201262000000000000
B0444263207792S11659919EA0119401264000000015000
B0444303207765S11659846EA0120001268000000015000
B0444343207700S11659808EA0119201261000000015000
B0444383207627S11659820EA0118801256000000015000
B0444423207564S11659855EA0118401253000000000000
B0444463207538S11659916EA0117901238000000000000
B0444503207546S11659982EA0115401212000000000000
B0444543207562S11700052EA0113701194000000000000
B0444583207607S11700097EA0113101190000000000000
B0445023207667S11700103EA0112401183000000000000
B0445063207729S11700091EA0111901179000000000000
B0445103207792S11700076EA0112101183000000000000
B0445143207857S11700059EA0113101195000000000000
B0445183207908S11700015EA0114401213000000000000
B0445223207880S11659945EA0114901216000000015000
B0445263207823S11659964EA0115301233000000015000
B0445303207831S11700019EA0116301243000000015000
B0445343207880S11659998EA0118901265000000015000
B0445383207879S11659928EA0119901273000000015000
B0445423207822S11659896EA0119101270000000015000
B0445463207798S11659942EA0120001284000000015000
B0445503207841S11659954EA0121401294000000015000
B0445543207866S11659889EA0122201297000000015000
B0445583207824S11659833EA0122201298000000015000
B0446023207770S11659848EA0122201299000000000000
B0446063207741S11659902EA0122401300000000000000
B0446103207761S11659958EA0122701304000000000000
B0446143207813S11659935EA0123401313000000000000
B0446183207807S11659855EA0124601325000000000000
B0446223207746S11659842EA0126001337000000000000
B0446263207741S11659894EA0127101346000000000000
B0446303207791S11659895EA0127801352000000000000
B0446343207823S11659828EA0128501362000000015000
B0446383207792S11659760EA0129501377000000015000
B0446423207732S11659761EA0130301382000000015000
B0446463207715S11659817EA0130501384000000015000
B0446503207752S11659863EA0130701388000000015000
B0446543207809S11659834EA0131501396000000015000
B0446583207818S11659753EA0132501416000000015000
B0447023207765S11659725EA0133901422000000015000
B0447063207732S11659773EA0133501416000000015000
B0447103207750S11659829EA0133801423000000015000
B0447143207805S11659820EA0135401438000000015000
B0447183207820S11659743EA0135801433000000015000
B0447223207766S11659699EA0136001442000000015000
B0447263207723S11659738EA0136701446000000000000
B0447303207741S11659795EA0136901450000000000000
B0447343207798S11659803EA0138401468000000000000
B0447383207840S11659746EA0139501472000000000000
B0447423207820S11659666EA0138701463000000000000
B0447463207754S11659640EA0139401475000000000000
B0447503207710S11659681EA0140001479000000000000
B0447543207735S11659730EA0140501485000000000000
B0447583207793S11659708EA0141201494000000000000
B0448023207814S11659631EA0141501493000000000000
B0448063207774S11659562EA0140701488000000015000
B0448103207705S11659553EA0140301481000000000000
B0448143207650S11659600EA0139801479000000000000
B0448183207625S11659669EA0140001484000000000000
B0448223207666S11659705EA0141801504000000000000
B0448263207705S11659652EA0143201516000000015000
B0448303207684S11659583EA0143801523000000015000
B0448343207631S11659571EA0143701518000000015000
B0448383207605S11659620EA0143101514000000000000
B0448423207637S11659660EA0143801524000000000000
B0448463207689S11659644EA0143801515000000000000
B0448503207718S11659578EA0142401499000000000000
B0448543207687S11659503EA0141801505000000015000
B0448583207628S11659477EA0142601509000000015000
B0449023207577S11659504EA0142401507000000000000
B0449063207575S11659560EA0142301510000000000000
B0449103207622S11659581EA0142801511000000000000
B0449143207672S11659535EA0141901497000000000000
B0449183207677S11659447EA0141301496000000000000
B0449223207633S11659378EA0141701503000000000000
B0449263207575S11659375EA0142101503000000000000
B0449303207541S11659421EA0141601494000000000000
B0449343207533S11659484EA0140801489000000000000
B0449383207557S11659544EA0140301481000000000000
B0449423207619S11659556EA0139401474000000000000
B0449463207675S11659504EA0139001471000000000000
B0449503207693S11659415EA0138801464000000000000
B0449543207684S11659319EA0137701457000000000000
B0449583207657S11659226EA0137301451000000000000
B0450023207625S11659131EA0136301441000000000000
B0450063207605S11659029EA0136001439000000000000
B0450103207594S11658924EA0135401429000000000000
B0450143207585S11658816EA0134501424000000000000
B0450183207563S11658719EA0134701426000000000000
B0450223207506S11658651EA0135401432000000000000
B0450263207436S11658600EA0135001423000000000000
B0450303207360S11658551EA0134101417000000000000
B0450343207282S11658507EA0134001416000000000000
B0450383207206S11658465EA0133701412000000000000
B0450423207125S11658425EA0133301408000000000000
B0450463207044S11658385EA0133001405000000000000
B0450503206962S11658346EA0132601401000000000000
B0450543206882S11658338EA0132801408000000000000
B0450583206821S11658378EA0133801416000000000000
B0451023206791S11658443EA0134101415000000000000
B0451063206779S11658516EA0133501408000000000000
B0451103206773S11658591EA0133101405000000000000
B0451143206767S11658668EA0132701400000000000000
B0451183206761S11658745EA0132301394000000000000
B0451223206761S11658823EA0131501386000000000000
B0451263206764S11658903EA0130801377000000000000
B0451303206771S11658984EA0130001371000000000000
B0451343206791S11659062EA0129401366000000000000
B0451383206826S11659131EA0129101363000000000000
B0451423206871S11659188EA0129101362000000000000
B0451463206927S11659231EA0128901359000000000000
B0451503206988S11659265EA0128401351000000000000
B0451543207052S11659293EA0127801345000000000000
B0451583207117S11659314EA0127101337000000000000
B0452023207182S11659330EA0126201325000000000000
B0452063207251S11659340EA0125201320000000000000
B0452103207317S11659348EA0124701313000000000000
B0452143207386S11659354EA0124401312000000000000
B0452183207454S11659360EA0124401310000000000000
B0452223207521S11659367EA0124801317000000000000
B0452263207579S11659399EA0125701324000000000000
B0452303207610S11659458EA0125501312000000000000
B0452343207623S11659531EA0123901297000000000000
B0452383207644S11659605EA0122501283000000000000
B0452423207684S11659668EA0121601276000000000000
B0452463207737S11659713EA0120901270000000000000
B0452503207793S11659751EA0120501264000000000000
B0452543207852S11659786EA0119901259000000000000
B0452583207911S11659816EA0119801257000000000000
B0453023207976S11659835EA0119401251000000000000
B0453063208045S11659842EA0118801246000000000000
B0453103208116S11659829EA0118201237000000000000
B0453143208190S11659812EA0116701225000000000000
B0453183208264S11659792EA0116401224000000000000
B0453223208335S11659770EA0116101219000000000000
B0453263208405S11659735EA0115401213000000000000
B0453303208476S11659696EA0115301213000000000000
B0453343208542S11659652EA0115301214000000000000
B0453383208599S11659594EA0115301214000000000000
B0453423208651S11659525EA0115001208000000000000
B0453463208703S11659456EA0114301205000000000000
B0453503208755S11659391EA0114201203000000000000
B0453543208802S11659321EA0113801195000000000000
B0453583208832S11659235EA0112801187000000000000
B0454023208837S11659136EA0111901177000000000000
B0454063208819S11659036EA0110901166000000000000
B0454103208790S11658938EA0109901156000000000000
B0454143208756S11658843EA0108901143000000000000
B0454183208716S11658749EA0107301131000000000000
B0454223208672S11658659EA0106701126000000000000
B0454263208623S11658577EA0106501124000000000000
B0454303208572S11658498EA0106001120000000000000
B0454343208521S11658420EA0105101109000000000000
B0454383208467S11658342EA0104001099000000000000
B0454423208409S11658268EA0103401092000000000000
B0454463208351S11658195EA0102601083000000000000
B0454503208295S11658118EA0101401073000000000000
B0454543208244S11658037EA0100801066000000000000
B0454583208192S11657957EA0100001054000000000000
B0455023208138S11657878EA0099001046000000000000
B0455063208074S11657814EA0098401043000000000000
B0455103208002S11657771EA0097901034000000000000
B0455143207926S11657744EA0096901023000000000000
B0455183207848S11657728EA0096001016000000000000
B0455223207770S11657722EA0095501012000000000000
B0455263207694S11657722EA0095001005000000000000
B0455303207619S11657722EA0094100996000000000000
B0455343207544S11657720EA0093500990000000000000
B0455383207468S11657720EA0092700981000000000000
B0455423207394S11657723EA0092400979000000000000
B0455463207326S11657745EA0092600982000000000000
B0455503207294S11657803EA0093500991000000000000
B0455543207287S11657870EA0093700994000000000000
B0455583207307S11657930EA0094801010000000000000
B0456023207351S11657885EA0096501009000000000000
B0456063207320S11657813EA0096601014000000000000
B0456103207261S11657832EA0098301038000000000000
B0456143207272S11657880EA0100601065000000000000
B0456183207320S11657855EA0101801068000000000000
B0456223207319S11657772EA0101501066000000000000
B0456263207259S11657728EA0102401083000000000000
B0456303207206S11657754EA0103301093000000000000
B0456343207221S11657803EA0104701109000000000000
B0456383207272S11657777EA0105801119000000000000
B0456423207272S11657699EA0107101133000000015000
B0456463207217S11657672EA0107901144000000015000
B0456503207190S11657718EA0108701153000000015000
B0456543207228S11657749EA0109901166000000000000
B0456583207268S11657701EA0110601169000000015000
B0457023207245S11657625EA0110601166000000015000
B0457063207181S11657627EA0111001179000000000000
B0457103207183S11657680EA0112201186000000000000
B0457143207239S11657689EA0112801192000000000000
B0457183207290S11657638EA0113101200000000000000
B0457223207268S11657566EA0114301211000000015000
B0457263207206S11657559EA0114501212000000000000
B0457303207174S11657612EA0114601214000000000000
B0457343207190S11657672EA0115301222000000000000
B0457383207243S11657677EA0115301215000000000000
B0457423207273S11657607EA0114601211000000000000
B0457463207241S11657532EA0114801217000000015000
B0457503207178S11657481EA0114501215000000015000
B0457543207112S11657491EA0115401225000000000000
B0457583207078S11657543EA0116801236000000000000
B0458023207089S11657598EA0116701234000000000000
B0458063207142S11657593EA0116101228000000000000
B0458103207169S11657515EA0115801226000000000000
B0458143207155S11657424EA0115801228000000000000
B0458183207099S11657368EA0116301235000000000000
B0458223207050S11657403EA0117501249000000000000
B0458263207077S11657441EA0118801259000000000000
B0458303207124S11657402EA0119201261000000000000
B0458343207108S11657326EA0119801269000000000000
B0458383207051S11657315EA0120401277000000000000
B0458423207025S11657361EA0121301286000000000000
B0458463207055S11657394EA0122001290000000000000
B0458503207102S11657364EA0122501295000000000000
B0458543207108S11657291EA0122901298000000000000
B0458583207065S11657239EA0123401305000000000000
B0459023207012S11657251EA0124101314000000000000
B0459063206999S11657303EA0124701318000000000000
B0459103207033S11657334EA0125101323000000000000
B0459143207079S11657303EA0126001329000000000000
B0459183207090S11657231EA0126101329000000000000
B0459223207048S11657173EA0126301333000000000000
B0459263206988S11657163EA0127001342000000000000
B0459303206953S11657207EA0128301356000000000000
B0459343206974S11657250EA0129101361000000000000
B0459383207024S11657233EA0129001357000000000000
B0459423207040S11657161EA0128801360000000000000
B0459463207007S11657092EA0128701363000000000000
B0459503206947S11657060EA0129301373000000000000
B0459543206897S11657091EA0129501369000000000000
B0459583206879S11657153EA0129501372000000000000
B0500023206910S11657192EA0130401376000000000000
B0500063206957S11657160EA0129701366000000000000
B0500103206952S11657085EA0129301370000000015000
B0500143206897S11657042EA0130001378000000015000
B0500183206842S11657057EA0130901386000000000000
B0500223206805S11657104EA0130901381000000000000
B0500263206826S11657155EA0130201375000000000000
B0500303206877S11657130EA0129801373000000000000
B0500343206870S11657055EA0130001381000000015000
B0500383206812S11657022EA0129501375000000015000
B0500423206744S11657021EA0128901368000000000000
B0500463206693S11657057EA0128601362000000000000
B0500503206700S11657112EA0127901350000000000000
B0500543206754S11657118EA0126301335000000000000
B0500583206817S11657094EA0124901318000000000000
B0501023206882S11657060EA0123201299000000000000
B0501063206951S11657025EA0121901290000000000000
B0501103207018S11656990EA0121201278000000000000
B0501143207087S11656956EA0120501274000000000000
B0501183207157S11656923EA0120401272000000000000
B0501223207225S11656893EA0120101266000000000000
B0501263207291S11656864EA0119201258000000000000
B0501303207358S11656832EA0118601254000000000000
B0501343207423S11656801EA0118301249000000000000
B0501383207486S11656767EA0117701242000000000000
B0501423207551S11656734EA0117101238000000000000
B0501463207618S11656704EA0116601232000000000000
B0501503207683S11656678EA0116101227000000000000
B0501543207750S11656652EA0115401216000000000000
B0501583207820S11656624EA0114401209000000000000
B0502023207891S11656598EA0114001206000000000000
B0502063207960S11656575EA0113801204000000000000
B0502103208028S11656550EA0113201198000000000000
B0502143208097S11656526EA0112601192000000000000
B0502183208165S11656497EA0112101187000000000000
B0502223208229S11656466EA0112001184000000000000
B0502263208291S11656428EA0111401176000000000000
B0502303208351S11656385EA0110501166000000000000
B0502343208408S11656340EA0109901162000000000000
B0502383208464S11656293EA0109601157000000000000
B0502423208522S11656249EA0108601146000000000000
B0502463208582S11656204EA0108001144000000000000
B0502503208641S11656159EA0108201145000000000000
B0502543208701S11656116EA0108001139000000000000
B0502583208771S11656086EA0107001128000000000000
B0503023208845S11656068EA0106201120000000000000
B0503063208922S11656060EA0105101110000000000000
B0503103208996S11656059EA0104901110000000000000
B0503143209070S11656064EA0104401103000000000000
B0503183209143S11656071EA0103701095000000000000
B0503223209214S11656078EA0102801084000000000000
B0503263209288S11656085EA0101001067000000000000
B0503303209362S11656093EA0099701056000000000000
B0503343209436S11656103EA0098901045000000000000
B0503383209508S11656116EA0098201041000000000000
B0503423209578S11656128EA0098201038000000000000
B0503463209648S11656139EA0097401031000000000000
B0503503209717S11656154EA0096901025000000000000
B0503543209785S11656172EA0096501019000000000000
B0503583209852S11656193EA0095901014000000000000
B0504023209919S11656211EA0095301008000000000000
B0504063209988S11656229EA0094300995000000000000
B0504103210058S11656247EA0093000980000000000000
B0504143210129S11656267EA0091800972000000000000
B0504183210199S11656285EA0091300965000000000000
B0504223210270S11656301EA0090400955000000000000
B0504263210340S11656316EA0089900950000000000000
B0504303210402S11656355EA0089700951000000000000
B0504343210445S11656414EA0090200958000000000000
B0504383210475S11656483EA0090500957000000000000
B0504423210487S11656557EA0090200950000000000000
B0504463210497S11656635EA0089000938000000000000
B0504503210496S11656718EA0088000930000000000000
B0504543210489S11656800EA0087100919000000000000
B0504583210484S11656880EA0086400911000000000000
B0505023210484S11656958EA0085500899000000000000
B0505063210476S11657040EA0084300892000000000000
B0505103210454S11657120EA0084100891000000000000
B0505143210436S11657196EA0084000893000000000000
B0505183210418S11657269EA0084100888000000000000
B0505223210402S11657342EA0083200876000000000000
B0505263210389S11657417EA0082200871000000000000
B0505303210381S11657491EA0082700876000000000000
B0505343210420S11657530EA0083900895000000000000
B0505383210459S11657467EA0085500903000000000000
B0505423210437S11657390EA0085100896000000000000
B0505463210375S11657368EA0084600891000000000000
B0505503210324S11657410EA0083800886000000000000
B0505543210293S11657472EA0082800875000000000000
B0505583210281S11657549EA0081900867000000000000
B0506023210279S11657624EA0082100869000000000000
B0506063210281S11657699EA0082100869000000000000
B0506103210290S11657775EA0081900864000000000000
B0506143210306S11657853EA0081800863000000000000
B0506183210309S11657931EA0082300868000000000000
B0506223210326S11657996EA0083200881000000000000
B0506263210375S11657966EA0084800893000000000000
B0506303210358S11657893EA0085100898000000000000
B0506343210297S11657852EA0085000895000000000000
B0506383210232S11657859EA0085200904000000000000
B0506423210238S11657914EA0086100911000000000000
B0506463210294S11657901EA0086800920000000000000
B0506503210290S11657827EA0088200932000000000000
B0506543210232S11657803EA0088100928000000000000
B0506583210207S11657862EA0088300932000000000000
B0507023210253S11657893EA0089200944000000000000
B0507063210292S11657842EA0090000950000000000000
B0507103210257S11657776EA0090300953000000000000
B0507143210196S11657784EA0090700958000000000000
B0507183210167S11657844EA0091000962000000000000
B0507223210197S11657897EA0091600970000000000000
B0507263210251S11657879EA0093200983000000000000
B0507303210250S11657807EA0093800986000000000000
B0507343210197S11657763EA0093300985000000000000
B0507383210140S11657787EA0093500990000000000000
B0507423210116S11657852EA0093700994000000000000
B0507463210149S11657897EA0095001011000000000000
B0507503210192S11657857EA0096201015000000000000
B0507543210167S11657790EA0096501021000000000000
B0507583210108S11657798EA0097401034000000000000
B0508023210107S11657855EA0098501040000000000000
B0508063210162S11657862EA0098501039000000000000
B0508103210188S11657797EA0099101050000000000000
B0508143210147S11657745EA0100401065000000000000
B0508183210092S11657758EA0101301071000000000000
B0508223210086S11657815EA0101401073000000000000
B0508263210138S11657826EA0101601075000000000000
B0508303210188S11657777EA0101601075000000000000
B0508343210197S11657699EA0102101079000000000000
B0508383210150S11657644EA0102801087000000000000
B0508423210090S11657647EA0103201093000000000000
B0508463210059S11657706EA0103401092000000000000
B0508503210053S11657781EA0103201094000000000000
B0508543210092S11657832EA0104301106000000000000
B0508583210147S11657819EA0104801106000000000000
B0509023210185S11657755EA0104501103000000000000
B0509063210209S11657681EA0104501106000000000000
B0509103210218S11657602EA0104501105000000000000
B0509143210193S11657525EA0104301104000000000000
B0509183210131S11657489EA0104301104000000000000
B0509223210086S11657532EA0105301117000000000000
B0509263210124S11657568EA0106001121000000000000
B0509303210166S11657521EA0106601129000000000000
B0509343210134S11657458EA0106601128000000000000
B0509383210077S11657471EA0107201135000000000000
B0509423210071S11657530EA0107601142000000000000
B0509463210116S11657550EA0108501148000000000000
B0509503210159S11657504EA0108701151000000000000
B0509543210150S11657436EA0109201156000000000000
B0509583210095S11657411EA0109001151000000000000
B0510023210054S11657454EA0109201157000000000000
B0510063210060S11657511EA0110001167000000000000
B0510103210108S11657524EA0111001172000000000000
B0510143210144S11657471EA0111001175000000000000
B0510183210115S11657412EA0111401180000000000000
B0510223210058S11657407EA0111801184000000000000
B0510263210033S11657459EA0112101188000000000000
B0510303210072S11657501EA0112201187000000000000
B0510343210116S11657459EA0113201197000000000000
B0510383210089S11657398EA0113501199000000000000
B0510423210036S11657406EA0113601198000000000000
B0510463210017S11657468EA0113101195000000000000
B0510503210025S11657542EA0112601184000000000000
B0510543210036S11657623EA0111501177000000000000
B0510583210043S11657703EA0111001168000000000000
B0511023210047S11657785EA0110101158000000000000
B0511063210051S11657868EA0108701140000000000000
B0511103210046S11657957EA0106901124000000000000
B0511143210028S11658045EA0106001120000000000000
B0511183210016S11658128EA0107501136000000000000
B0511223210010S11658209EA0108601146000000000000
B0511263210002S11658287EA0108901145000000000000
B0511303209989S11658365EA0108901150000000000000
B0511343209978S11658437EA0110101159000000000000
B0511383209971S11658511EA0110101155000000000000
B0511423209965S11658589EA0109901158000000000000
B0511463209963S11658667EA0109701152000000000000
B0511503209967S11658746EA0108801137000000000000
B0511543209971S11658830EA0107101122000000000000
B0511583209980S11658919EA0105401108000000000000
B0512023209993S11659006EA0104601097000000000000
B0512063209998S11659096EA0103601084000000000000
B0512103209975S11659185EA0102901079000000000000
B0512143209929S11659262EA0102101071000000000000
B0512183209867S11659324EA0101201060000000000000
B0512223209794S11659375EA0100201049000000000000
B0512263209717S11659417EA0099301041000000000000
B0512303209639S11659454EA0098701035000000000000
B0512343209561S11659487EA0097401024000000000000
B0512383209481S11659514EA0098001032000000000000
B0512423209418S11659557EA0100101058000000000000
B0512463209439S11659604EA0103701095000000000000
B0512503209484S11659568EA0105501109000000000000
B0512543209482S11659488EA0105401111000000015000
B0512583209432S11659458EA0105901122000000000000
B0513023209416S11659505EA0106501122000000000000
B0513063209464S11659522EA0107401136000000000000
B0513103209495S11659458EA0108501142000000000000
B0513143209464S11659392EA0108401143000000000000
B0513183209421S11659415EA0108801150000000000000
B0513223209444S11659460EA0109601165000000000000
B0513263209492S11659425EA0111201172000000000000
B0513303209482S11659347EA0110201157000000000000
B0513343209422S11659319EA0110001162000000000000
B0513383209375S11659356EA0110601171000000000000
B0513423209382S11659413EA0111501179000000000000
B0513463209432S11659393EA0112601189000000000000
B0513503209425S11659315EA0112601187000000000000
B0513543209366S11659302EA0112901197000000000000
B0513583209353S11659350EA0114501211000000000000
B0514023209399S11659360EA0115401217000000000000
B0514063209429S11659300EA0115501215000000000000
B0514103209401S11659228EA0115301215000000000000
B0514143209343S11659206EA0115701221000000000000
B0514183209296S11659240EA0116501227000000000000
B0514223209323S11659276EA0117401237000000000000
B0514263209365S11659223EA0118101244000000000000
B0514303209341S11659148EA0118301248000000000000
B0514343209282S11659136EA0119001258000000000000
B0514383209265S11659189EA0119501262000000000000
B0514423209313S11659197EA0120401274000000000000
B0514463209335S11659123EA0121301279000000000000
B0514503209293S11659058EA0121601288000000000000
B0514543209236S11659068EA0122301290000000000000
B0514583209217S11659128EA0121901289000000000000
B0515023209250S11659168EA0122901304000000000000
B0515063209293S11659124EA0124401314000000000000
B0515103209271S11659051EA0124701312000000000000
B0515143209217S11659049EA0125201319000000000000
B0515183209197S11659102EA0124901316000000000000
B0515223209230S11659142EA0125201322000000000000
B0515263209280S11659126EA0126001328000000000000
B0515303209313S11659055EA0126001328000000000000
B0515343209299S11658972EA0126001326000000000000
B0515383209241S11658931EA0126101331000000000000
B0515423209185S11658945EA0126001320000000000000
B0515463209157S11659007EA0124501307000000000000
B0515503209141S11659085EA0123701301000000000000
B0515543209132S11659163EA0124101310000000000000
B0515583209132S11659237EA0124601307000000000000
B0516023209178S11659267EA0125301319000000000000
B0516063209219S11659213EA0125801322000000000000
B0516103209200S11659124EA0125601323000000000000
B0516143209137S11659077EA0126401333000000000000
B0516183209092S11659113EA0127001333000000000000
B0516223209119S11659150EA0127001334000000000000
B0516263209166S11659119EA0127401338000000000000
B0516303209170S11659038EA0127201338000000000000
B0516343209130S11658963EA0127301340000000000000
B0516383209067S11658957EA0127801345000000000000
B0516423209058S11659010EA0128101349000000000000
B0516463209105S11659015EA0128301351000000000000
B0516503209132S11658947EA0128601353000000000000
B0516543209113S11658864EA0128701354000000000000
B0516583209054S11658816EA0128401350000000000000
B0517023209005S11658849EA0128701358000000000000
B0517063209023S11658894EA0129101358000000000000
B0517103209075S11658875EA0129001357000000000000
B0517143209106S11658804EA0128501353000000000000
B0517183209096S11658721EA0128501354000000000000
B0517223209053S11658652EA0128101348000000000000
B0517263208990S11658604EA0127101336000000000000
B0517303208916S11658565EA0126201322000000000000
B0517343208836S11658530EA0125101320000000000000
B0517383208753S11658500EA0125601326000000000000
B0517423208671S11658489EA0126901339000000000000
B0517463208617S11658534EA0128401355000000000000
B0517503208641S11658576EA0129701365000000000000
B0517543208685S11658546EA0129601362000000000000
B0517583208703S11658473EA0129301362000000000000
B0518023208651S11658422EA0129301366000000000000
B0518063208606S11658466EA0129701368000000000000
B0518103208623S11658522EA0129701369000000000000
B0518143208671S11658524EA0130001372000000000000
B0518183208691S11658457EA0130201374000000000000
B0518223208685S11658372EA0129801370000000000000
B0518263208639S11658301EA0130401380000000000000
B0518303208574S11658310EA0131301383000000000000
B0518343208572S11658369EA0130601378000000000000
B0518383208623S11658391EA0130401376000000000000
B0518423208671S11658352EA0130301372000000000000
B0518463208678S11658270EA0130201378000000000000
B0518503208649S11658195EA0131601394000000000000
B0518543208593S11658210EA0133101406000000000000
B0518583208606S11658260EA0134101418000000000000
B0519023208652S11658240EA0135301427000000000000
B0519063208659S11658170EA0135801433000000000000
B0519103208610S11658128EA0137001446000000000000
B0519143208565S11658165EA0137401447000000000000
B0519183208581S11658214EA0137701454000000000000
B0519223208628S11658196EA0138101453000000000000
B0519263208642S11658119EA0137801453000000000000
B0519303208598S11658057EA0138601463000000000000
B0519343208548S11658086EA0140101474000000000000
B0519383208568S11658134EA0139801468000000000000
B0519423208619S11658109EA0139801470000000000000
B0519463208634S11658034EA0140401480000000000000
B0519503208607S11657962EA0141201489000000000000
B0519543208548S11657956EA0141501488000000000000
B0519583208538S11658013EA0141901496000000000000
B0520023208580S11658030EA0142801503000000000000
B0520063208615S11657975EA0142701500000000000000
B0520103208617S11657896EA0142801504000000000000
B0520143208572S11657840EA0142901504000000000000
B0520183208522S11657863EA0142801503000000000000
B0520223208533S11657915EA0142801505000000000000
B0520263208584S11657907EA0143401510000000000000
B0520303208606S11657841EA0143901514000000000000
B0520343208586S11657766EA0143701511000000000000
B0520383208532S11657728EA0142901503000000000000
B0520423208489S11657762EA0142501500000000000000
B0520463208508S11657809EA0142501499000000000000
B0520503208564S11657810EA0142301498000000000000
B0520543208613S11657763EA0142801502000000000000
B0520583208619S11657681EA0142701500000000000000
B0521023208581S11657605EA0141301479000000000000
B0521063208528S11657528EA0139301459000000000000
B0521103208465S11657449EA0137101436000000000000
B0521143208398S11657371EA0135401420000000000000
B0521183208326S11657296EA0134701414000000000000
B0521223208252S11657228EA0133901403000000000000
B0521263208177S11657161EA0133001394000000000000
B0521303208099S11657098EA0131901381000000000000
B0521343208018S11657038EA0131001375000000000000
B0521383207936S11656988EA0130301369000000000000
B0521423207850S11656944EA0130001365000000000000
B0521463207766S11656903EA0129301359000000000000
B0521503207683S11656861EA0128901355000000000000
B0521543207597S11656821EA0128501351000000000000
B0521583207512S11656784EA0128001344000000000000
B0522023207425S11656756EA0127501339000000000000
B0522063207339S11656731EA0126701329000000000000
B0522103207254S11656710EA0125801321000000000000
B0522143207169S11656688EA0125101313000000000000
B0522183207085S11656667EA0124301304000000000000
B0522223207000S11656657EA0123501296000000000000
B0522263206917S11656659EA0122301285000000000000
B0522303206832S11656666EA0121801278000000000000
B0522343206748S11656672EA0121301274000000000000
B0522383206661S11656676EA0121001275000000000000
B0522423206575S11656678EA0121901287000000000000
B0522463206500S11656697EA0123901310000000000000
B0522503206448S11656747EA0125701321000000000000
B0522543206410S11656802EA0126101324000000000000
B0522583206375S11656864EA0125601315000000000000
B0523023206322S11656922EA0122901284000000000000
B0523063206245S11656968EA0120501264000000000000
B0523103206158S11657000EA0119501253000000000000
B0523143206071S11657022EA0119301253000000000000
B0523183205986S11657043EA0119001249000000000000
B0523223205900S11657062EA0117901237000000000000
B0523263205812S11657083EA0116701226000000000000
B0523303205721S11657103EA0115901218000000000000
B0523343205631S11657124EA0115301212000000000000
B0523383205543S11657143EA0115001205000000000000
B0523423205454S11657163EA0114501203000000000000
B0523463205369S11657178EA0113901196000000000000
B0523503205280S11657192EA0113201189000000000000
B0523543205192S11657204EA0112801185000000000000
B0523583205105S11657215EA0112301180000000000000
B0524023205018S11657225EA0112001177000000000000
B0524063204931S11657235EA0111501166000000000000
B0524103204841S11657247EA0110501159000000000000
B0524143204751S11657259EA0109701151000000000000
B0524183204663S11657272EA0108801141000000000000
B0524223204573S11657281EA0108101135000000000000
B0524263204487S11657290EA0107501129000000000000
B0524303204404S11657300EA0106801122000000000000
B0524343204321S11657312EA0106601121000000000000
B0524383204240S11657324EA0106501119000000000000
B0524423204160S11657334EA0106201112000000000000
B0524463204076S11657346EA0105101099000000000000
B0524503203992S11657358EA0103701086000000000000
B0524543203906S11657372EA0102701076000000000000
B0524583203819S11657385EA0101701069000000000000
B0525023203733S11657394EA0101401070000000000000
B0525063203651S11657402EA0101601067000000000000
B0525103203572S11657412EA0101201062000000000000
B0525143203499S11657445EA0101401067000000000000
B0525183203454S11657507EA0102201073000000000000
B0525223203434S11657584EA0101601063000000000000
B0525263203421S11657668EA0100101045000000000000
B0525303203416S11657755EA0099701050000000000000
B0525343203420S11657837EA0099601047000000000000
B0525383203423S11657917EA0099801047000000000000
B0525423203438S11657991EA0100201053000000000000
B0525463203475S11658056EA0100201045000000000000
B0525503203506S11658130EA0098501021000000000000
B0525543203504S11658219EA0096401003000000000000
B0525583203464S11658300EA0095200993000000000000
B0526023203400S11658362EA0094300984000000000000
B0526063203324S11658409EA0093100973000000000000
B0526103203243S11658447EA0092200964000000000000
B0526143203160S11658477EA0092000965000000000000
B0526183203078S11658502EA0092000963000000000000
B0526223202999S11658529EA0091200955000000000000
B0526263202919S11658559EA0090100943000000000000
B0526303202840S11658590EA0089400939000000000000
B0526343202763S11658619EA0089100936000000000000
B0526383202688S11658650EA0088800934000000000000
B0526423202630S11658702EA0089800944000000000000
B0526463202600S11658771EA0090100943000000000000
B0526503202585S11658846EA0089500940000000000000
B0526543202602S11658919EA0089300937000000000000
B0526583202659S11658916EA0090000949000000000000
B0527023202659S11658836EA0090500948000000000000
B0527063202593S11658804EA0090600952000000000000
B0527103202545S11658849EA0090800950000000000000
B0527143202535S11658920EA0089200931000000000000
B0527183202536S11659003EA0087900922000000000000
B0527223202550S11659088EA0087200914000000000000
B0527263202601S11659136EA0087900928000000000000
B0527303202633S11659075EA0090700957000000000000
B0527343202581S11659031EA0092400962000000000000
B0527383202533S11659072EA0092000960000000000000
B0527423202546S11659131EA0092200963000000000000
B0527463202596S11659119EA0093100974000000000000
B0527503202584S11659046EA0094400988000000000000
B0527543202523S11659033EA0095500999000000000000
B0527583202511S11659087EA0095701001000000000000
B0528023202558S11659101EA0096301009000000000000
B0528063202593S11659048EA0096901015000000000000
B0528103202575S11658972EA0097701021000000000000
B0528143202510S11658940EA0097601022000000000000
B0528183202463S11658984EA0098001029000000000000
B0528223202497S11659023EA0098801042000000000000
B0528263202542S11658993EA0100001050000000000000
B0528303202555S11658918EA0100301052000000000000
B0528343202510S11658850EA0100001050000000000000
B0528383202444S11658856EA0100901064000000000000
B0528423202445S11658912EA0102201074000000000000
B0528463202494S11658914EA0102101071000000000000
B0528503202524S11658846EA0102201075000000000000
B0528543202492S11658773EA0102601076000000000000
B0528583202424S11658776EA0102501074000000000000
B0529023202383S11658838EA0101701064000000000000
B0529063202355S11658918EA0100601056000000000000
B0529103202351S11659002EA0101701073000000000000
B0529143202399S11658994EA0105401107000000000000
B0529183202396S11658923EA0106301114000000000000
B0529223202331S11658907EA0106301113000000000000
B0529263202311S11658960EA0107301126000000000000
B0529303202358S11658960EA0108001132000000000000
B0529343202379S11658888EA0109001145000000000000
B0529383202334S11658827EA0109501151000000000000
B0529423202276S11658845EA0110101158000000000000
B0529463202279S11658898EA0111201171000000000000
B0529503202324S11658893EA0112101180000000000000
B0529543202342S11658819EA0112801187000000000000
B0529583202301S11658755EA0113601195000000000000
B0530023202237S11658752EA0113901197000000000000
B0530063202197S11658802EA0114101198000000000000
B0530103202195S11658862EA0114101197000000000000
B0530143202240S11658851EA0114601206000000000000
B0530183202262S11658771EA0115001207000000000000
B0530223202230S11658690EA0115501213000000000000
B0530263202164S11658690EA0116501222000000000000
B0530303202163S11658745EA0117101232000000000000
B0530343202208S11658733EA0118801249000000000000
B0530383202204S11658656EA0119501255000000000000
B0530423202145S11658611EA0119401252000000000000
B0530463202086S11658634EA0119101251000000000000
B0530503202084S11658695EA0118801248000000000000
B0530543202132S11658706EA0120001263000000000000
B0530583202173S11658648EA0121001271000000000000
B0531023202178S11658564EA0121501275000000000000
B0531063202128S11658509EA0121801279000000000000
B0531103202069S11658539EA0121401273000000000000
B0531143202035S11658606EA0120501265000000000000
B0531183202009S11658680EA0121101276000000000000
B0531223202029S11658729EA0123401300000000000000
B0531263202063S11658677EA0125101318000000000000
B0531303202026S11658604EA0125901325000000000000
B0531343201963S11658619EA0126701335000000000000
B0531383201967S11658671EA0127501344000000000000
B0531423202013S11658651EA0128401357000000000000
B0531463202015S11658573EA0130201373000000000000
B0531503201957S11658525EA0131001378000000000000
B0531543201907S11658559EA0131701387000000000000
B0531583201925S11658599EA0132601396000000000000
B0532023201967S11658572EA0133501405000000000000
B0532063201973S11658495EA0134301412000000000000
B0532103201921S11658439EA0135401422000000000000
B0532143201861S11658455EA0136201429000000000000
B0532183201848S11658504EA0136301430000000000000
B0532223201892S11658504EA0136801435000000000000
B0532263201917S11658434EA0137701444000000000000
B0532303201878S11658364EA0138001444000000000000
B0532343201811S11658373EA0137601447000000000000
B0532383201794S11658433EA0137801449000000000000
B0532423201822S11658481EA0138001450000000000000
B0532463201877S11658473EA0138301456000000000000
B0532503201922S11658420EA0139101466000000000000
B0532543201909S11658340EA0140401478000000000000
B0532583201847S11658312EA0141301482000000000000
B0533023201803S11658353EA0141001480000000000000
B0533063201813S11658405EA0141501486000000000000
B0533103201864S11658378EA0141901489000000000000
B0533143201870S11658299EA0142701501000000000000
B0533183201818S11658243EA0143501499000000000000
B0533223201742S11658239EA0141101472000000000000
B0533263201651S11658260EA0139201456000000000000
B0533303201552S11658286EA0137501436000000000000
B0533343201453S11658313EA0136601432000000000000
B0533383201357S11658342EA0136101427000000000000
B0533423201263S11658370EA0136001427000000000000
B0533463201172S11658396EA0135601422000000000000
B0533503201085S11658418EA0135501420000000000000
B0533543201002S11658442EA0134901412000000000000
B0533583200917S11658466EA0134001399000000000000
B0534023200828S11658494EA0132501389000000000000
B0534063200739S11658524EA0133501407000000000000
B0534103200674S11658580EA0135801432000000000000
B0534143200639S11658650EA0137701448000000000000
B0534183200617S11658725EA0137601437000000000000
B0534223200576S11658804EA0135101409000000000000
B0534263200505S11658875EA0132701389000000000000
B0534303200421S11658933EA0131101374000000000000
B0534343200330S11658979EA0130201366000000000000
B0534383200235S11659015EA0129101355000000000000
B0534423200139S11659049EA0128601349000000000000
B0534463200043S11659083EA0127801334000000000000
B0534503159944S11659116EA0126401321000000000000
B0534543159845S11659152EA0125501315000000000000
B0534583159747S11659185EA0124901309000000000000
B0535023159651S11659218EA0124101302000000000000
B0535063159555S11659252EA0123201292000000000000
B0535103159463S11659284EA0123101296000000000000
B0535143159372S11659314EA0122901293000000000000
B0535183159282S11659343EA0122701288000000000000
B0535223159194S11659369EA0122601289000000000000
B0535263159108S11659393EA0122101276000000000000
B0535303159021S11659418EA0120901265000000000000
B0535343158936S11659441EA0120301260000000000000
B0535383158854S11659461EA0119701253000000000000
B0535423158775S11659479EA0119301247000000000000
B0535463158696S11659496EA0118601244000000000000
B0535503158616S11659513EA0118901242000000000000
B0535543158538S11659531EA0118701243000000000000
B0535583158459S11659552EA0118501239000000000000
B0536023158382S11659579EA0118601245000000000000
B0536063158333S11659634EA0119901253000000000000
B0536103158307S11659701EA0119001241000000000000
B0536143158286S11659776EA0118401238000000000000
B0536183158263S11659852EA0117601230000000000000
B0536223158245S11659933EA0116501219000000000000
B0536263158228S11700013EA0116001212000000000000
B0536303158195S11700091EA0114701196000000000000
B0536343158142S11700160EA0113201179000000000000
B0536383158069S11700208EA0111901168000000000000
B0536423157992S11700253EA0110801161000000000000
B0536463157917S11700296EA0110001153000000000000
B0536503157842S11700338EA0109001141000000000000
B0536543157765S11700379EA0107501126000000000000
B0536583157686S11700415EA0106701118000000000000
B0537023157606S11700450EA0105901107000000000000
B0537063157527S11700485EA0104801094000000000000
B0537103157449S11700522EA0103701087000000000000
B0537143157387S11700572EA0104001096000000000000
B0537183157354S11700637EA0105101107000000000000
B0537223157335S11700705EA0105401105000000000000
B0537263157322S11700778EA0104701094000000000000
B0537303157310S11700860EA0103501087000000000000
B0537343157297S11700943EA0102901077000000000000
B0537383157276S11701026EA0102201070000000000000
B0537423157235S11701107EA0101901068000000000000
B0537463157189S11701185EA0103001084000000000000
B0537503157220S11701238EA0106101114000000000000
B0537543157267S11701191EA0106101109000000000000
B0537583157255S11701105EA0106001113000000000000
B0538023157193S11701070EA0107001122000000000000
B0538063157172S11701122EA0107701125000000000000
B0538103157229S11701129EA0108101135000000000000
B0538143157251S11701061EA0109601149000000000000
B0538183157203S11701005EA0110401157000000000000
B0538223157151S11701038EA0111301166000000000000
B0538263157179S11701082EA0112101173000000000000
B0538303157229S11701044EA0112701184000000000000
B0538343157218S11700968EA0114201202000000000000
B0538383157157S11700930EA0115001206000000000000
B0538423157097S11700965EA0115001206000000000000
B0538463157086S11701039EA0115301211000000000000
B0538503157132S11701089EA0116401223000000000000
B0538543157196S11701079EA0116401217000000000000
B0538583157235S11701009EA0116201220000000000000
B0539023157212S11700922EA0116401222000000000000
B0539063157144S11700874EA0117201233000000000000
B0539103157080S11700899EA0119001251000000000000
B0539143157075S11700961EA0120101263000000000000
B0539183157123S11700957EA0122001284000000000000
B0539223157132S11700892EA0122901289000000000000
B0539263157079S11700849EA0123001290000000000000
B0539303157020S11700875EA0123601295000000000000
B0539343157016S11700934EA0124901311000000000000
B0539383157063S11700939EA0125501312000000000000
B0539423157085S11700870EA0126201325000000000000
B0539463157043S11700814EA0127601336000000000000
B0539503156988S11700834EA0127501333000000000000
B0539543156989S11700894EA0128401347000000000000
B0539583157040S11700899EA0129301352000000000000
B0540023157073S11700840EA0130501366000000000000
B0540063157047S11700777EA0131801378000000000000
B0540103156986S11700764EA0131601374000000000000
B0540143156950S11700816EA0131801379000000000000
B0540183156968S11700871EA0132601389000000000000
B0540223157019S11700860EA0133001389000000000000
B0540263157024S11700790EA0133501402000000000000
B0540303156969S11700756EA0135201415000000000000
B0540343156923S11700797EA0135901420000000000000
B0540383156936S11700855EA0136701428000000000000
B0540423156986S11700856EA0137001430000000000000
B0540463157006S11700793EA0137201436000000000000
B0540503156971S11700730EA0138201446000000000000
B0540543156910S11700725EA0139101455000000000000
B0540583156881S11700783EA0139501460000000000000
B0541023156915S11700826EA0140101463000000000000
B0541063156962S11700790EA0139901463000000000000
B0541103156971S11700713EA0140201468000000000000
B0541143156933S11700643EA0140901476000000000000
B0541183156865S11700623EA0141901487000000000000
B0541223156806S11700658EA0142301490000000000000
B0541263156786S11700727EA0142801494000000000000
B0541303156825S11700767EA0143201497000000000000
B0541343156872S11700731EA0142401486000000000000
B0541383156856S11700652EA0142501490000000000000
B0541423156793S11700621EA0143201502000000000000
B0541463156730S11700649EA0143801502000000000000
B0541503156685S11700713EA0142901490000000000000
B0541543156643S11700791EA0141001463000000000000
B0541583156591S11700878EA0137201423000000000000
B0542023156518S11700960EA0134601404000000000000
B0542063156434S11701025EA0134101406000000000000
B0542103156349S11701077EA0134701407000000000000
B0542143156265S11701124EA0134801403000000000000
B0542183156175S11701165EA0134401400000000000000
B0542223156084S11701202EA0134101398000000000000
B0542263155993S11701238EA0133401382000000000000
B0542303155901S11701277EA0131701366000000000000
B0542343155810S11701317EA0130501357000000000000
B0542383155721S11701356EA0130101357000000000000
B0542423155636S11701393EA0130101356000000000000
B0542463155552S11701428EA0129501352000000000000
B0542503155472S11701463EA0129301349000000000000
B0542543155392S11701499EA0128401337000000000000
B0542583155312S11701533EA0127001329000000000000
B0543023155233S11701567EA0126501322000000000000
B0543063155153S11701599EA0126001316000000000000
B0543103155077S11701635EA0125301307000000000000
B0543143154999S11701670EA0124601307000000000000
B0543183154918S11701702EA0125001309000000000000
B0543223154841S11701737EA0125601317000000000000
B0543263154783S11701791EA0126901328000000000000
B0543303154744S11701856EA0126801326000000000000
B0543343154711S11701924EA0126001308000000000000
B0543383154667S11701995EA0123901292000000000000
B0543423154620S11702065EA0123301291000000000000
B0543463154579S11702135EA0123101287000000000000
B0543503154534S11702207EA0122801287000000000000
B0543543154492S11702275EA0123401297000000000000
B0543583154454S11702343EA0123701294000000000000
B0544023154415S11702412EA0122401278000000000000
B0544063154373S11702487EA0120601258000000000000
B0544103154320S11702563EA0118801233000000000000
B0544143154250S11702628EA0117201222000000000000
B0544183154173S11702681EA0116201218000000000000
B0544223154092S11702724EA0115701211000000000000
B0544263154009S11702759EA0114901202000000000000
B0544303153926S11702792EA0113901191000000000000
B0544343153842S11702825EA0112901181000000000000
B0544383153762S11702862EA0113701192000000000000
B0544423153701S11702918EA0114101195000000000000
B0544463153660S11702987EA0114301198000000000000
B0544503153632S11703061EA0113601183000000000000
B0544543153598S11703143EA0111401155000000000000
B0544583153543S11703218EA0109501144000000000000
B0545023153476S11703283EA0109001138000000000000
B0545063153402S11703339EA0108501137000000000000
B0545103153342S11703406EA0107901130000000000000
B0545143153298S11703484EA0106701114000000000000
B0545183153246S11703562EA0104701098000000000000
B0545223153198S11703643EA0103601083000000000000
B0545263153159S11703731EA0101801062000000000000
B0545303153085S11703791EA0101801070000000000000
B0545343153021S11703852EA0103501090000000000000
B0545383152985S11703929EA0105501111000000000000
B0545423153024S11703968EA0107601129000000000000
B0545463153067S11703916EA0108601137000000000000
B0545503153028S11703847EA0107801123000000000000
B0545543152956S11703828EA0106901121000000000000
B0545583152934S11703881EA0107601128000000000000
B0546023152984S11703897EA0108601140000000000000
B0546063153030S11703841EA0108701135000000000000
B0546103153013S11703754EA0107701122000000000000
B0546143152939S11703741EA0106901124000000000000
B0546183152874S11703782EA0107801131000000000000
B0546223152863S11703845EA0109501147000000000000
B0546263152913S11703817EA0109801146000000000000
B0546303152894S11703738EA0110701162000000000000
B0546343152830S11703707EA0111401163000000000000
B0546383152803S11703755EA0111601161000000000000
B0546423152851S11703764EA0111701163000000000000
B0546463152883S11703695EA0112301174000000000000
B0546503152847S11703627EA0113501185000000000000
B0546543152803S11703661EA0113501184000000000000
B0546583152843S11703686EA0114201195000000000000
B0547023152874S11703622EA0115601208000000000000
B0547063152826S11703566EA0117301226000000000000
B0547103152778S11703592EA0118101230000000000000
B0547143152795S11703637EA0118401233000000000000
B0547183152847S11703614EA0118401235000000000000
B0547223152867S11703535EA0119501249000000000000
B0547263152813S11703495EA0120401259000000000000
B0547303152781S11703542EA0121201267000000000000
B0547343152818S11703570EA0122601284000000000000
B0547383152861S11703523EA0123401288000000000000
B0547423152843S11703447EA0123801299000000000000
B0547463152783S11703432EA0124801306000000000000
B0547503152765S11703490EA0124901307000000000000
B0547543152813S11703514EA0126401328000000000000
B0547583152852S11703464EA0128001337000000000000
B0548023152831S11703388EA0127701334000000000000
B0548063152769S11703358EA0128401345000000000000
B0548103152727S11703396EA0129401352000000000000
B0548143152748S11703452EA0129301349000000000000
B0548183152808S11703429EA0130401366000000000000
B0548223152802S11703349EA0131801377000000000000
B0548263152743S11703313EA0132701388000000000000
B0548303152703S11703349EA0133401394000000000000
B0548343152730S11703396EA0133701397000000000000
B0548383152779S11703354EA0134801410000000000000
B0548423152760S11703279EA0135401417000000000000
B0548463152701S11703273EA0135601414000000000000
B0548503152705S11703330EA0135901421000000000000
B0548543152764S11703323EA0136601428000000000000
B0548583152782S11703244EA0137301437000000000000
B0549023152735S11703187EA0138401445000000000000
B0549063152679S11703204EA0138501444000000000000
B0549103152646S11703263EA0138001439000000000000
B0549143152662S11703328EA0138201444000000000000
B0549183152721S11703361EA0138501450000000000000
B0549223152782S11703334EA0138901449000000000000
B0549263152805S11703254EA0137301428000000000000
B0549303152764S11703175EA0134701402000000000000
B0549343152683S11703184EA0133501398000000000000
B0549383152631S11703247EA0134301406000000000000
B0549423152597S11703322EA0134501406000000000000
B0549463152573S11703406EA0133201389000000000000
B0549503152543S11703499EA0130701362000000000000
B0549543152500S11703591EA0129601357000000000000
B0549583152449S11703681EA0128301337000000000000
B0550023152382S11703763EA0126701325000000000000
B0550063152304S11703834EA0125901319000000000000
B0550103152222S11703897EA0124801308000000000000
B0550143152137S11703951EA0124501306000000000000
B0550183152055S11704003EA0124301302000000000000
B0550223151977S11704056EA0124001299000000000000
B0550263151910S11704116EA0124001301000000000000
B0550303151851S11704184EA0124001297000000000000
B0550343151795S11704255EA0122201276000000000000
B0550383151733S11704327EA0120801262000000000000
B0550423151660S11704387EA0120001257000000000000
B0550463151583S11704437EA0120101259000000000000
B0550503151507S11704485EA0119601251000000000000
B0550543151426S11704532EA0118601236000000000000
B0550583151342S11704575EA0117501232000000000000
B0551023151262S11704615EA0118401244000000000000
B0551063151209S11704674EA0120401269000000000000
B0551103151173S11704738EA0121401272000000000000
B0551143151143S11704805EA0121801278000000000000
B0551183151123S11704877EA0121101268000000000000
B0551223151110S11704952EA0119801252000000000000
B0551263151100S11705037EA0117901233000000000000
B0551303151076S11705124EA0116301207000000000000
B0551343151022S11705204EA0113801186000000000000
B0551383150950S11705269EA0112601180000000000000
B0551423150874S11705324EA0112501177000000000000
B0551463150794S11705372EA0111601169000000000000
B0551503150714S11705414EA0111201164000000000000
B0551543150632S11705453EA0110801161000000000000
B0551583150551S11705490EA0110001148000000000000
B0552023150471S11705528EA0108601131000000000000
B0552063150390S11705562EA0108001127000000000000
B0552103150312S11705593EA0107201125000000000000
B0552143150239S11705626EA0107801130000000000000
B0552183150192S11705680EA0108101133000000000000
B0552223150169S11705748EA0108301136000000000000
B0552263150151S11705817EA0109201145000000000000
B0552303150140S11705887EA0109401143000000000000
B0552343150133S11705962EA0108401132000000000000
B0552383150122S11706039EA0107601122000000000000
B0552423150109S11706116EA0106301106000000000000
B0552463150099S11706192EA0104701091000000000000
B0552503150078S11706269EA0103701081000000000000
B0552543150044S11706344EA0102501068000000000000
B0552583149990S11706408EA0101501062000000000000
B0553023149923S11706458EA0101201057000000000000
B0553063149849S11706497EA0100201047000000000000
B0553103149771S11706526EA0099001033000000000000
B0553143149691S11706551EA0097501018000000000000
B0553183149607S11706572EA0096401005000000000000
B0553223149524S11706595EA0095600995000000000000
B0553263149441S11706621EA0094800990000000000000
B0553303149360S11706654EA0094900997000000000000
B0553343149288S11706692EA0095901005000000000000
B0553383149237S11706750EA0096001005000000000000
B0553423149193S11706816EA0096401015000000000000
B0553463149178S11706881EA0097601024000000000000
B0553503149228S11706881EA0097601016000000000000
B0553543149236S11706790EA0096501012000000000000
B0553583149184S11706721EA0097301027000000000000
B0554023149138S11706753EA0098901034000000000000
B0554063149155S11706801EA0098501027000000000000
B0554103149208S11706785EA0098101026000000000000
B0554143149253S11706721EA0098001028000000000000
B0554183149250S11706640EA0098901037000000000000
B0554223149186S11706640EA0099301040000000000000
B0554263149184S11706694EA0100201052000000000000
B0554303149230S11706686EA0101601067000000000000
B0554343149238S11706615EA0102201069000000000000
B0554383149184S11706575EA0102201071000000000000
B0554423149137S11706610EA0102401075000000000000
B0554463149151S11706659EA0103701087000000000000
B0554503149201S11706663EA0104601098000000000000
B0554543149224S11706602EA0105901110000000000000
B0554583149191S11706538EA0106701116000000000000
B0555023149133S11706519EA0106801116000000000000
B0555063149089S11706554EA0106901118000000000000
B0555103149098S11706603EA0107901131000000000000
B0555143149142S11706602EA0108801138000000000000
B0555183149162S11706537EA0109201147000000000000
B0555223149123S11706477EA0110301155000000000000
B0555263149064S11706481EA0110601156000000000000
B0555303149039S11706530EA0110801162000000000000
B0555343149073S11706560EA0111301164000000000000
B0555383149124S11706530EA0111301167000000000000
B0555423149137S11706458EA0112001176000000000000
B0555463149080S11706422EA0113001185000000000000
B0555503149051S11706471EA0113601192000000000000
B0555543149090S11706494EA0114701204000000000000
B0555583149123S11706441EA0115601214000000000000
B0556023149097S11706367EA0116101217000000000000
B0556063149033S11706339EA0116601221000000000000
B0556103148977S11706370EA0116901222000000000000
B0556143148969S11706429EA0117201226000000000000
B0556183149015S11706455EA0117201225000000000000
B0556223149061S11706408EA0117801235000000000000
B0556263149068S11706326EA0118401243000000000000
B0556303149012S11706277EA0119401251000000000000
B0556343148972S11706317EA0119701255000000000000
B0556383149007S11706354EA0120101257000000000000
B0556423149054S11706312EA0120901271000000000000
B0556463149056S11706235EA0122201281000000000000
B0556503149013S11706168EA0122301278000000000000
B0556543148944S11706143EA0122101275000000000000
B0556583148878S11706164EA0121501269000000000000
B0557023148829S11706220EA0120701262000000000000
B0557063148787S11706287EA0119901248000000000000
B0557103148744S11706363EA0118501237000000000000
B0557143148700S11706443EA0116601213000000000000
B0557183148642S11706523EA0114801197000000000000
B0557223148566S11706589EA0113601184000000000000
B0557263148482S11706643EA0112801180000000000000
B0557303148398S11706694EA0112201174000000000000
B0557343148317S11706740EA0111701171000000000000
B0557383148239S11706783EA0111701172000000000000
B0557423148166S11706824EA0111401164000000000000
B0557463148092S11706863EA0110601151000000000000
B0557503148016S11706900EA0109201138000000000000
B0557543147940S11706935EA0108001126000000000000
B0557583147863S11706968EA0107001117000000000000
B0558023147786S11707002EA0106401112000000000000
B0558063147712S11707035EA0105701104000000000000
B0558103147639S11707070EA0104501090000000000000
B0558143147563S11707108EA0103301073000000000000
B0558183147483S11707150EA0101801060000000000000
B0558223147404S11707197EA0100901058000000000000
B0558263147329S11707244EA0100501049000000000000
B0558303147258S11707299EA0099401034000000000000
B0558343147187S11707351EA0097501017000000000000
B0558383147111S11707400EA0096501008000000000000
B0558423147035S11707447EA0096101006000000000000
B0558463146959S11707492EA0096301006000000000000
B0558503146884S11707539EA0096000999000000000000
B0558543146806S11707590EA0094800989000000000000
B0558583146727S11707641EA0094300985000000000000
B0559023146649S11707693EA0093900980000000000000
B0559063146573S11707746EA0094200990000000000000
B0559103146504S11707795EA0095801004000000000000
B0559143146446S11707846EA0097401021000000000000
B0559183146454S11707898EA0099501038000000000000
B0559223146506S11707867EA0098701028000000000000
B0559263146498S11707771EA0098201024000000000000
B0559303146437S11707699EA0098901033000000000000
B0559343146365S11707699EA0099601044000000000000
B0559383146370S11707750EA0100701051000000000000
B0559423146419S11707720EA0101501058000000000000
B0559463146419S11707631EA0101101055000000000000
B0559503146354S11707587EA0101601067000000000000
B0559543146296S11707622EA0102601071000000000000
B0559583146257S11707683EA0102201066000000000000
B0600023146221S11707756EA0102001063000000000000
B0600063146179S11707836EA0101501056000000000000
B0600103146131S11707919EA0100701047000000000000
B0600143146078S11708002EA0098601024000000000000
B0600183146021S11708084EA0098301028000000000000
B0600223145971S11708159EA0099501040000000000000
B0600263145926S11708229EA0100201048000000000000
B0600303145887S11708297EA0101101059000000000000
B0600343145856S11708365EA0102001070000000000000
B0600383145891S11708398EA0104601101000000000000
B0600423145919S11708328EA0106201103000000000000
B0600463145869S11708266EA0105101099000000000000
B0600503145808S11708287EA0105901108000000000000
B0600543145776S11708343EA0106501114000000000000
B0600583145791S11708402EA0107301122000000000000
B0601023145848S11708421EA0107901128000000000000
B0601063145882S11708356EA0108801139000000015000
B0601103145815S11708317EA0108101123000000015000
B0601143145774S11708379EA0108501130000000015000
B0601183145805S11708440EA0109501144000000000000
B0601223145862S11708400EA0111401162000000000000
B0601263145854S11708313EA0111501156000000000000
B0601303145785S11708276EA0110901155000000000000
B0601343145728S11708314EA0111501168000000000000
B0601383145756S11708365EA0113301187000000000000
B0601423145804S11708322EA0114701196000000000000
B0601463145791S11708241EA0114401197000000000000
B0601503145726S11708213EA0115201204000000000000
B0601543145674S11708244EA0115501207000000000000
B0601583145702S11708293EA0115801213000000000000
B0602023145752S11708249EA0117701231000000000000
B0602063145748S11708170EA0118701241000000000000
B0602103145692S11708138EA0119301245000000000000
B0602143145678S11708188EA0119601247000000000000
B0602183145732S11708197EA0120101252000000000000
B0602223145780S11708128EA0119801249000000000000
B0602263145758S11708041EA0120801266000000000000
B0602303145696S11708031EA0122401280000000000000
B0602343145676S11708081EA0122801282000000000000
B0602383145718S11708115EA0123001285000000000000
B0602423145762S11708064EA0123401290000000000000
B0602463145765S11707979EA0123601293000000000000
B0602503145719S11707912EA0123701293000000000000
B0602543145648S11707908EA0121701267000000000000
B0602583145563S11707937EA0119401244000000000000
B0603023145472S11707971EA0119701254000000000000
B0603063145385S11708002EA0119401247000000000000
B0603103145297S11708034EA0119001242000000000000
B0603143145211S11708066EA0118201234000000000000
B0603183145125S11708096EA0117301225000000000000
B0603223145039S11708123EA0116801221000000000000
B0603263144951S11708150EA0116701222000000000000
B0603303144865S11708175EA0117101228000000000000
B0603343144782S11708202EA0117501225000000000000
B0603383144701S11708232EA0116501216000000000000
B0603423144622S11708265EA0115701205000000000000
B0603463144545S11708298EA0114401191000000000000
B0603503144465S11708332EA0112501169000000000000
B0603543144378S11708366EA0110201146000000000000
B0603583144289S11708400EA0108201130000000000000
B0604023144201S11708434EA0107301117000000000000
B0604063144114S11708470EA0106401111000000000000
B0604103144027S11708509EA0105901105000000000000
B0604143143942S11708548EA0105501103000000000000
B0604183143860S11708587EA0106501119000000000000
B0604223143781S11708623EA0106701110000000000000
B0604263143696S11708661EA0104501088000000000000
B0604303143608S11708701EA0102701068000000000000
B0604343143517S11708736EA0101201056000000000000
B0604383143430S11708772EA0101701069000000000000
B0604423143370S11708826EA0103001077000000000000
B0604463143352S11708902EA0102901075000000000000
B0604503143352S11708983EA0102001060000000000000
B0604543143365S11709068EA0101801068000000000000
B0604583143382S11709145EA0102901085000000000000
B0605023143404S11709207EA0105601110000000000000
B0605063143456S11709206EA0106901117000000000000
B0605103143474S11709125EA0106601113000000000000
B0605143143435S11709048EA0106501112000000000000
B0605183143371S11709015EA0106701114000000000000
B0605223143310S11709026EA0106601114000000000000
B0605263143274S11709074EA0106101106000000000000
B0605303143252S11709141EA0105901110000000000000
B0605343143240S11709208EA0106701117000000000000
B0605383143249S11709268EA0107701132000000000000
B0605423143296S11709262EA0109001138000000000000
B0605463143293S11709182EA0108401126000000000000
B0605503143226S11709149EA0107401124000000000000
B0605543143167S11709177EA0108201129000000000000
B0605583143140S11709232EA0108501139000000000000
B0606023143175S11709249EA0110501157000000000000
B0606063143184S11709173EA0112101175000000000000
B0606103143127S11709141EA0113801192000000000000
B0606143143109S11709182EA0115001203000000000000
B0606183143152S11709178EA0115501208000000000000
B0606223143154S11709093EA0116501224000000000000
B0606263143091S11709055EA0118301237000000000000
B0606303143052S11709095EA0119201248000000000000
B0606343143085S11709117EA0121001267000000000000
B0606383143111S11709054EA0121201266000000000000
B0606423143066S11708982EA0122601288000000000000
B0606463143011S11709000EA0123601293000000000000
B0606503143020S11709043EA0124901311000000000000
B0606543143065S11709015EA0125701313000000000000
B0606583143059S11708928EA0126501324000000000000
B0607023142997S11708883EA0127501334000000000000
B0607063142951S11708918EA0128301340000000000000
B0607103142977S11708952EA0129301353000000000000
B0607143143022S11708915EA0129901359000000000000
B0607183143009S11708831EA0130801369000000000000
B0607223142942S11708799EA0131601374000000000000
B0607263142898S11708833EA0132401384000000000000
B0607303142916S11708870EA0133301392000000000000
B0607343142961S11708838EA0134101399000000000000
B0607383142946S11708756EA0134701406000000000000
B0607423142880S11708722EA0135201411000000000000
B0607463142846S11708762EA0136401426000000000000
B0607503142873S11708788EA0137401434000000000000
B0607543142911S11708744EA0138101439000000000000
B0607583142901S11708661EA0138001440000000000000
B0608023142841S11708603EA0138401445000000000000
B0608063142784S11708622EA0139101450000000000000
B0608103142802S11708661EA0139601462000000000000
B0608143142845S11708627EA0141301479000000000000
B0608183142845S11708545EA0141901483000000000000
B0608223142793S11708480EA0142001485000000000000
B0608263142728S11708482EA0142401492000000000000
B0608303142701S11708527EA0143101496000000000000
B0608343142729S11708556EA0143601502000000000000
B0608383142776S11708525EA0144401513000000000000
B0608423142797S11708448EA0145301521000000000000
B0608463142768S11708363EA0145601523000000000000
B0608503142703S11708313EA0145601521000000000000
B0608543142630S11708307EA0144801511000000000000
B0608583142554S11708326EA0142401482000000000000
B0609023142468S11708358EA0139901456000000000000
B0609063142374S11708398EA0138001435000000000000
B0609103142281S11708444EA0136001420000000000000
B0609143142191S11708489EA0135701418000000000000
B0609183142104S11708536EA0134901409000000000000
B0609223142021S11708583EA0134701408000000000000
B0609263141941S11708631EA0134301405000000000000
B0609303141863S11708682EA0133901397000000000000
B0609343141785S11708735EA0133301391000000000000
B0609383141710S11708794EA0132901387000000000000
B0609423141637S11708853EA0132601384000000000000
B0609463141564S11708913EA0132301380000000000000
B0609503141493S11708972EA0131901377000000000000
B0609543141425S11709030EA0131601371000000000000
B0609583141360S11709086EA0131401373000000000000
B0610023141299S11709137EA0131901374000000000000
B0610063141239S11709188EA0131101362000000000000
B0610103141176S11709240EA0129601342000000000000
B0610143141115S11709294EA0127901329000000000000
B0610183141055S11709350EA0127001319000000000000
B0610223141005S11709411EA0126001310000000000000
B0610263141001S11709480EA0125201302000000000000
B0610303141042S11709532EA0123901288000000000000
B0610343141103S11709566EA0122401274000000000000
B0610383141173S11709596EA0121601267000000000000
B0610423141245S11709632EA0121101267000000000000
B0610463141316S11709669EA0121601273000000000000
B0610503141386S11709705EA0121101263000000000000
B0610543141458S11709736EA0120401257000000000000
B0610583141527S11709773EA0119501246000000000000
B0611023141596S11709810EA0118101231000000000000
B0611063141666S11709849EA0116901220000000000000
B0611103141736S11709893EA0116701224000000000000
B0611143141805S11709932EA0118401244000000000000
B0611183141872S11709943EA0121301272000000000000
B0611223141900S11709873EA0124201301000000000000
B0611263141846S11709818EA0125001307000000000000
B0611303141796S11709847EA0125301307000000000000
B0611343141804S11709899EA0126001321000000000000
B0611383141854S11709891EA0127501331000000000000
B0611423141859S11709806EA0127801336000000000000
B0611463141801S11709763EA0129201353000000000000
B0611503141755S11709793EA0130401362000000000000
B0611543141770S11709841EA0130901367000000000000
B0611583141822S11709839EA0131901382000000000000
B0612023141846S11709771EA0133401393000000000000
B0612063141804S11709705EA0134001397000000000000
B0612103141745S11709711EA0134801409000000000000
B0612143141727S11709762EA0135701414000000000000
B0612183141762S11709792EA0136601427000000000000
B0612223141802S11709749EA0137701440000000000000
B0612263141785S11709674EA0138701451000000000000
B0612303141728S11709648EA0139701458000000000000
B0612343141689S11709687EA0140101462000000000000
B0612383141709S11709730EA0140701471000000000000
B0612423141752S11709696EA0141601479000000000000
B0612463141735S11709618EA0142601491000000000000
B0612503141674S11709594EA0144001505000000000000
B0612543141637S11709639EA0144701510000000000000
B0612583141662S11709679EA0145201515000000000000
B0613023141706S11709641EA0146001525000000000000
B0613063141690S11709562EA0146901534000000000000
B0613103141625S11709540EA0146901534000000000000
B0613143141593S11709592EA0147301540000000000000
B0613183141622S11709630EA0148201551000000000000
B0613223141668S11709607EA0149001554000000000000
B0613263141693S11709531EA0149001561000000000000
B0613303141666S11709453EA0150801579000000000000
B0613343141605S11709440EA0151701585000000000000
B0613383141576S11709489EA0151701583000000000000
B0613423141610S11709527EA0152001587000000000000
B0613463141666S11709503EA0153101602000000000000
B0613503141683S11709429EA0154001618000000000000
B0613543141629S11709379EA0155001629000000000000
B0613583141588S11709415EA0155501632000000000000
B0614023141618S11709455EA0156201643000000000000
B0614063141661S11709412EA0157701659000000000000
B0614103141633S11709333EA0158601664000000000000
B0614143141570S11709324EA0159101668000000000000
B0614183141544S11709377EA0159501672000000000000
B0614223141575S11709416EA0160701689000000000000
B0614263141615S11709376EA0162501705000000000000
B0614303141584S11709303EA0163001706000000000000
B0614343141516S11709298EA0163601714000000000000
B0614383141477S11709347EA0164401718000000000000
B0614423141489S11709403EA0163901711000000000000
B0614463141542S11709424EA0163401710000000000000
B0614503141601S11709399EA0164001712000000000000
B0614543141601S11709316EA0163701710000000000000
B0614583141538S11709256EA0164301717000000000000
B0615023141460S11709245EA0164401719000000000000
B0615063141402S11709290EA0164801723000000000000
B0615103141399S11709360EA0164101710000000000000
B0615143141446S11709414EA0163301707000000000000
B0615183141506S11709458EA0162301689000000000000
B0615223141575S11709502EA0160101670000000000000
B0615263141650S11709544EA0158401649000000000000
B0615303141729S11709592EA0156101628000000000000
B0615343141797S11709658EA0155601632000000000000
B0615383141856S11709728EA0155901631000000000000
B0615423141911S11709802EA0154901618000000000000
B0615463141971S11709877EA0153701610000000000000
B0615503142030S11709947EA0153401606000000000000
B0615543142087S11710017EA0153201603000000000000
