ACAM4N6
HFDTE200221
HFFXA050
HFPLTPILOT:JOHN WELSH              
HFGTYGLIDERTYPE:HORNET      
HFGIDGLIDERID:VH-GMY      
HFDTM100GPSDATUM:
HFRFWFIRMWAREVERSION:F2.6
HFRHWHARDWAREVERSION:300 Series Version 2
HFFTYFRTYPE:CAMBRIDGE AERO INSTRUMENTS, 302+
HFGPS:GARMIN,LVS-25,12,18000
HFPRSPRESSALTSENSOR:INTERSEMA, MS5534-AP, 20000
I033638FXA3941ENL4247REX
LCAMSBVER:5FWVER:F26300
C200221040410200221000103
C0000000N00000000WTAKEOFF     
C3207549S11656849EBEVAIR      
C3255649S11704983ENARRAIR     
C3256166S11710666ENARSILO     
C3137399S11712982ECUNAIR      
C3207549S11656849EBEVAIR      
C0000000N00000000WLANDING     
B0405353207337S11656858EA0019800203000000000000
B0405373207337S11656858EA0019700203000000000000
B0405393207337S11656858EA0019800203000000000000
B0405413207337S11656858EA0019700203000000000000
B0405433207337S11656858EA0019700203000000000000
B0405453207337S11656858EA0019700203000000000000
B0405473207337S11656858EA0019700203000000000000
B0405493207337S11656858EA0019700203000000000000
B0405513207337S11656858EA0019800203000000000000
B0405533207337S11656858EA0019800203000000000000
B0405553207337S11656858EA0019800203000000000000
B0405573207337S11656858EA0019800202000000000000
B0405593207337S11656858EA0019700202000000000000
B0406013207338S11656860EA0019800202000000000000
B0406033207339S11656861EA0019800202000000000000
B0406063207351S11656870EA0019800202000000000000
B0406103207378S11656892EA0019700202000000000000
B0406143207424S11656921EA0019800202000000000000
B0406183207482S11656955EA0019900205000000000000
B0406223207542S11656992EA0020600216000000000000
B0406263207605S11657033EA0021900230000000000000
B0406303207666S11657078EA0023400248000000000000
B0406343207724S11657125EA0025100272000000000000
B0406383207783S11657174EA0027200293000000000000
B0406423207841S11657226EA0029700314000000000000
B0406463207902S11657274EA0031400338000000000000
B0406503207962S11657315EA0033800364000000000000
B0406543208023S11657355EA0035800381000000000000
B0406583208083S11657395EA0037600405000000000000
B0407023208142S11657437EA0041100433000000000000
B0407063208199S11657475EA0043300467000000000000
B0407103208256S11657510EA0045800486000000000000
B0407143208316S11657546EA0047600506000000000000
B0407183208373S11657586EA0050200538000000000000
B0407223208434S11657616EA0053100569000000000000
B0407263208502S11657621EA0055400585000000000000
B0407303208568S11657594EA0056800605000000000000
B0407343208617S11657536EA0058800621000000000000
B0407383208649S11657458EA0060300637000000000000
B0407423208650S11657369EA0062300658000000000000
B0407463208625S11657285EA0064100676000000000000
B0407503208573S11657217EA0065800694000000000000
B0407543208503S11657186EA0067800712000000000000
B0407583208429S11657190EA0069200726000000000000
B0408023208360S11657220EA0071000746000000000000
B0408063208308S11657276EA0073000767000000000000
B0408103208283S11657350EA0075300791000000000000
B0408143208272S11657429EA0077600817000000000000
B0408183208283S11657507EA0079300838000000000000
B0408223208329S11657543EA0081100848000000000000
B0408263208376S11657507EA0080900835000000000000
B0408303208377S11657432EA0079900824000000000000
B0408343208333S11657368EA0078700813000000000000
B0408383208264S11657337EA0078000811000000000000
B0408423208207S11657372EA0079000824000000000000
B0408463208220S11657429EA0079900829000000000000
B0408503208268S11657403EA0080500833000000000000
B0408543208251S11657330EA0080000825000000000000
B0408583208182S11657324EA0080200833000000000000
B0409023208158S11657385EA0080400834000000000000
B0409063208203S11657415EA0080600838000000000000
B0409103208242S11657365EA0081400848000000000000
B0409143208226S11657295EA0081400844000000000000
B0409183208168S11657256EA0081900852000000000000
B0409223208119S11657291EA0082800861000000000000
B0409263208131S11657346EA0082800857000000000000
B0409303208182S11657343EA0083200865000000000000
B0409343208201S11657278EA0083800867000000015000
B0409383208160S11657221EA0084100876000000000000
B0409423208103S11657235EA0084900880000000000000
B0409463208099S11657295EA0084900876000000000000
B0409503208151S11657303EA0085000884000000000000
B0409543208178S11657239EA0085400885000000000000
B0409583208140S11657174EA0085700893000000000000
B0410023208088S11657195EA0086900904000000000000
B0410063208110S11657243EA0086800893000000000000
B0410103208157S11657205EA0086300896000000000000
B0410143208147S11657130EA0087000908000000000000
B0410183208092S11657116EA0088400918000000000000
B0410223208071S11657170EA0088600917000000000000
B0410263208112S11657205EA0088900925000000000000
B0410303208148S11657159EA0089700930000000000000
B0410343208134S11657087EA0090100935000000000000
B0410383208075S11657086EA0090300932000000000000
B0410423208067S11657152EA0090200936000000000000
B0410463208118S11657159EA0091400949000000000000
B0410503208126S11657091EA0092000953000000015000
B0410543208069S11657070EA0092500958000000000000
B0410583208030S11657118EA0093200968000000000000
B0411023208051S11657169EA0094000974000000000000
B0411063208099S11657155EA0094200978000000015000
B0411103208113S11657086EA0094600980000000015000
B0411143208064S11657043EA0095100987000000015000
B0411183208015S11657081EA0095600991000000015000
B0411223208031S11657138EA0096000996000000015000
B0411263208079S11657131EA0096501004000000015000
B0411303208092S11657064EA0096901005000000015000
B0411343208045S11657020EA0097401013000000015000
B0411383207995S11657043EA0097901015000000000000
B0411423207992S11657100EA0097901015000000000000
B0411463208038S11657120EA0098201020000000000000
B0411503208078S11657073EA0098801023000000015000
B0411543208061S11657003EA0098901023000000015000
B0411583208000S11656992EA0098901024000000000000
B0412023207978S11657049EA0099201029000000000000
B0412063208021S11657082EA0099501033000000000000
B0412103208069S11657042EA0099801037000000015000
B0412143208051S11656973EA0100501044000000015000
B0412183207993S11656987EA0100601040000000015000
B0412223207995S11657048EA0100601045000000015000
B0412263208047S11657068EA0101201049000000015000
B0412303208086S11657012EA0101901059000000015000
B0412343208060S11656942EA0102401061000000015000
B0412383207997S11656934EA0102701065000000015000
B0412423207962S11656986EA0102701067000000015000
B0412463207971S11657051EA0103001072000000015000
B0412503208023S11657072EA0103901081000000015000
B0412543208054S11657009EA0104501088000000015000
B0412583208012S11656951EA0105201096000000015000
B0413023207953S11656969EA0105701098000000015000
B0413063207953S11657031EA0106501109000000015000
B0413103208006S11657042EA0107501116000000015000
B0413143208028S11656973EA0107801123000000015000
B0413183207988S11656914EA0108901134000000015000
B0413223207930S11656913EA0109301134000000000000
B0413263207896S11656965EA0109501142000000000000
B0413303207915S11657020EA0110601152000000000000
B0413343207971S11657022EA0110901152000000000000
B0413383208006S11656957EA0111001154000000015000
B0413423207980S11656883EA0111601165000000015000
B0413463207917S11656869EA0112201167000000015000
B0413503207884S11656921EA0112801175000000000000
B0413543207919S11656964EA0113801185000000000000
B0413583207971S11656931EA0114501189000000015000
B0414023207973S11656856EA0115101195000000015000
B0414063207921S11656812EA0115501198000000015000
B0414103207865S11656831EA0115501198000000000000
B0414143207844S11656891EA0115901202000000000000
B0414183207887S11656931EA0116101208000000015000
B0414223207934S11656888EA0116801215000000015000
B0414263207917S11656817EA0117501223000000015000
B0414303207856S11656800EA0117801220000000015000
B0414343207813S11656851EA0117801226000000015000
B0414383207831S11656912EA0118801236000000015000
B0414423207885S11656912EA0119501245000000015000
B0414463207909S11656851EA0120501253000000015000
B0414503207876S11656791EA0120901256000000015000
B0414543207817S11656791EA0121301261000000015000
B0414583207794S11656845EA0122501274000000015000
B0415023207837S11656869EA0123101277000000000000
B0415063207878S11656819EA0123801288000000015000
B0415103207863S11656756EA0124601295000000015000
B0415143207806S11656734EA0124301288000000015000
B0415183207762S11656774EA0124801304000000000000
B0415223207787S11656818EA0126301313000000015000
B0415263207833S11656784EA0126701316000000015000
B0415303207818S11656710EA0127201323000000015000
B0415343207757S11656700EA0127401323000000015000
B0415383207735S11656756EA0128201336000000015000
B0415423207775S11656788EA0129301345000000015000
B0415463207823S11656745EA0129701346000000015000
B0415503207807S11656663EA0130001350000000015000
B0415543207744S11656646EA0130501355000000015000
B0415583207713S11656702EA0130801359000000000000
B0416023207737S11656757EA0131901374000000015000
B0416063207789S11656736EA0133001383000000015000
B0416103207788S11656659EA0133501388000000015000
B0416143207729S11656626EA0133801389000000015000
B0416183207681S11656665EA0133901390000000000000
B0416223207689S11656727EA0134301398000000000000
B0416263207741S11656740EA0135201409000000015000
B0416303207762S11656674EA0136101415000000015000
B0416343207709S11656630EA0136501417000000015000
B0416383207663S11656667EA0136601417000000000000
B0416423207676S11656726EA0137001425000000000000
B0416463207728S11656744EA0137901435000000000000
B0416503207774S11656696EA0139001446000000000000
B0416543207765S11656622EA0139901456000000015000
B0416583207705S11656597EA0140101451000000000000
B0417023207663S11656643EA0139901450000000000000
B0417063207683S11656700EA0140201458000000000000
B0417103207740S11656702EA0141001467000000000000
B0417143207776S11656641EA0142001478000000000000
B0417183207755S11656570EA0142801483000000015000
B0417223207697S11656546EA0143301488000000000000
B0417263207653S11656578EA0143401486000000000000
B0417303207651S11656635EA0143201487000000000000
B0417343207698S11656663EA0143301491000000000000
B0417383207752S11656631EA0144001500000000015000
B0417423207740S11656558EA0145201512000000015000
B0417463207685S11656542EA0145901514000000015000
B0417503207657S11656591EA0146201519000000000000
B0417543207681S11656641EA0146301517000000000000
B0417583207739S11656635EA0146501525000000000000
B0418023207763S11656568EA0148101542000000015000
B0418063207731S11656506EA0148901543000000000000
B0418103207675S11656507EA0148801542000000000000
B0418143207646S11656562EA0148401539000000000000
B0418183207654S11656626EA0148301539000000000000
B0418223207703S11656649EA0148901551000000000000
B0418263207744S11656604EA0149901559000000015000
B0418303207750S11656531EA0150301559000000015000
B0418343207715S11656462EA0150201557000000015000
B0418383207653S11656444EA0150401563000000015000
B0418423207601S11656472EA0150501561000000000000
B0418463207560S11656526EA0150201555000000000000
B0418503207531S11656593EA0149501547000000000000
B0418543207503S11656676EA0147501517000000000000
B0418583207485S11656778EA0146301527000000000000
B0419023207508S11656865EA0148901561000000000000
B0419063207567S11656891EA0151801585000000000000
B0419103207603S11656840EA0153001586000000015000
B0419143207573S11656776EA0152701586000000015000
B0419183207511S11656754EA0153101592000000000000
B0419223207446S11656783EA0154001600000000000000
B0419263207412S11656848EA0155201617000000000000
B0419303207432S11656910EA0156901630000000000000
B0419343207488S11656923EA0157201631000000000000
B0419383207532S11656873EA0157001627000000015000
B0419423207538S11656800EA0157401639000000000000
B0419463207501S11656752EA0158801651000000000000
B0419503207446S11656765EA0159501658000000000000
B0419543207423S11656825EA0159801658000000000000
B0419583207450S11656882EA0160201664000000000000
B0420023207503S11656883EA0160901669000000015000
B0420063207534S11656827EA0160801667000000015000
B0420103207523S11656757EA0160801668000000015000
B0420143207481S11656697EA0160801672000000000000
B0420183207427S11656644EA0160901672000000000000
B0420223207369S11656581EA0161201676000000000000
B0420263207315S11656513EA0161301675000000000000
B0420303207259S11656438EA0160601662000000000000
B0420343207206S11656359EA0159501655000000000000
B0420383207156S11656272EA0158801647000000000000
B0420423207120S11656176EA0157901639000000000000
B0420463207100S11656073EA0157301633000000000000
B0420503207098S11655969EA0156701627000000000000
B0420543207105S11655861EA0156201620000000000000
B0420583207120S11655755EA0155701615000000000000
B0421023207137S11655648EA0155301613000000000000
B0421063207156S11655544EA0155001609000000000000
B0421103207177S11655443EA0154701605000000000000
B0421143207202S11655341EA0154201600000000000000
B0421183207230S11655242EA0153701594000000000000
B0421223207260S11655144EA0152801585000000000000
B0421263207290S11655045EA0152001579000000000000
B0421303207321S11654947EA0151701573000000000000
B0421343207355S11654852EA0150901565000000000000
B0421383207382S11654755EA0150101560000000000000
B0421423207408S11654656EA0149701554000000000000
B0421463207434S11654556EA0149101550000000000000
B0421503207459S11654461EA0149101552000000000000
B0421543207482S11654369EA0149201551000000000000
B0421583207506S11654277EA0149101553000000000000
B0422023207524S11654186EA0149701558000000000000
B0422063207538S11654091EA0149401553000000000000
B0422103207549S11653994EA0149201550000000000000
B0422143207558S11653898EA0148801545000000000000
B0422183207568S11653802EA0148301542000000000000
B0422223207577S11653707EA0148001540000000000000
B0422263207586S11653616EA0147401532000000000000
B0422303207594S11653525EA0146801527000000000000
B0422343207598S11653435EA0147601537000000000000
B0422383207557S11653368EA0149001556000000000000
B0422423207497S11653396EA0151101580000000000000
B0422463207492S11653458EA0152301578000000000000
B0422503207532S11653502EA0151801576000000000000
B0422543207588S11653500EA0151901580000000000000
B0422583207612S11653442EA0152301580000000000000
B0423023207567S11653385EA0152101579000000000000
B0423063207497S11653387EA0152901593000000000000
B0423103207458S11653446EA0154001598000000000000
B0423143207469S11653515EA0154001596000000000000
B0423183207515S11653555EA0153301588000000000000
B0423223207572S11653537EA0152601582000000000000
B0423263207611S11653480EA0152101575000000000000
B0423303207636S11653404EA0151401571000000000000
B0423343207650S11653321EA0151401571000000000000
B0423383207663S11653234EA0151001568000000000000
B0423423207679S11653146EA0150601564000000000000
B0423463207696S11653056EA0150301561000000000000
B0423503207714S11652966EA0149501553000000000000
B0423543207736S11652876EA0149401556000000000000
B0423583207759S11652791EA0149501553000000000000
B0424023207783S11652701EA0148901545000000000000
B0424063207804S11652610EA0147801530000000000000
B0424103207828S11652514EA0146001513000000000000
B0424143207856S11652418EA0144701499000000000000
B0424183207888S11652324EA0143401490000000000000
B0424223207922S11652230EA0143201490000000000000
B0424263207956S11652137EA0143101490000000015000
B0424303207989S11652043EA0143501494000000015000
B0424343208023S11651952EA0143801497000000015000
B0424383208054S11651861EA0143601492000000015000
B0424423208084S11651768EA0143201489000000015000
B0424463208113S11651677EA0143001486000000015000
B0424503208143S11651584EA0142301480000000030000
B0424543208170S11651493EA0141701475000000015000
B0424583208196S11651401EA0141301471000000030000
B0425023208222S11651310EA0140701467000000030000
B0425063208252S11651220EA0140301462000000030000
B0425103208285S11651132EA0139801456000000030000
B0425143208317S11651045EA0139201451000000030000
B0425183208350S11650959EA0138901448000000030000
B0425223208385S11650874EA0138201445000000030000
B0425263208417S11650789EA0137201437000000030000
B0425303208457S11650703EA0135801426000000030000
B0425343208500S11650616EA0134701418000000045000
B0425383208541S11650534EA0134401410000000030000
B0425423208578S11650445EA0134401406000000030000
B0425463208613S11650361EA0135001415000000015000
B0425503208620S11650274EA0136501429000000015000
B0425543208568S11650221EA0138101444000000015000
B0425583208511S11650241EA0139501450000000015000
B0426023208496S11650302EA0139001440000000015000
B0426063208533S11650356EA0138301436000000015000
B0426103208591S11650357EA0138301440000000000000
B0426143208639S11650310EA0139501455000000015000
B0426183208632S11650240EA0141001467000000015000
B0426223208574S11650235EA0141801472000000015000
B0426263208560S11650297EA0142201478000000015000
B0426303208606S11650330EA0142801484000000015000
B0426343208652S11650295EA0143301492000000015000
B0426383208646S11650227EA0144101500000000015000
B0426423208594S11650206EA0145101511000000015000
B0426463208556S11650253EA0145601512000000060000
B0426503208561S11650318EA0145901518000000030000
B0426543208616S11650328EA0146201518000000015000
B0426583208652S11650271EA0146101515000000015000
B0427023208629S11650202EA0146401526000000015000
B0427063208571S11650205EA0147501532000000015000
B0427103208559S11650270EA0147901532000000015000
B0427143208611S11650297EA0148101535000000015000
B0427183208652S11650245EA0148301538000000015000
B0427223208636S11650174EA0148401541000000015000
B0427263208578S11650131EA0148401535000000015000
B0427303208517S11650169EA0148401535000000030000
B0427343208533S11650244EA0148401534000000015000
B0427383208598S11650247EA0148801546000000030000
B0427423208632S11650184EA0149901557000000030000
B0427463208604S11650123EA0150801562000000045000
B0427503208542S11650115EA0150901563000000045000
B0427543208503S11650171EA0151101569000000045000
B0427583208520S11650234EA0151801573000000075000
B0428023208578S11650247EA0151701569000000060000
B0428063208629S11650201EA0151501569000000090000
B0428103208668S11650135EA0151101569000000060000
B0428143208706S11650059EA0149701565000000060000
B0428183208741S11649974EA0149301559000000045000
B0428223208773S11649880EA0149301557000000045000
B0428263208799S11649790EA0150601565000000030000
B0428303208819S11649697EA0151501572000000030000
B0428343208779S11649619EA0152301573000000030000
B0428383208707S11649608EA0151101555000000015000
B0428423208680S11649675EA0150001550000000015000
B0428463208723S11649728EA0149101541000000015000
B0428503208793S11649719EA0147901529000000015000
B0428543208853S11649656EA0147101526000000015000
B0428583208902S11649574EA0146201520000000015000
B0429023208946S11649482EA0144801511000000015000
B0429063208984S11649385EA0143701507000000015000
B0429103209016S11649282EA0143201503000000015000
B0429143209046S11649183EA0143101501000000015000
B0429183209074S11649083EA0142701493000000015000
B0429223209096S11648980EA0142601488000000015000
B0429263209115S11648879EA0142001483000000015000
B0429303209128S11648775EA0141001471000000015000
B0429343209144S11648671EA0140201462000000015000
B0429383209152S11648564EA0139701457000000015000
B0429423209141S11648462EA0139601455000000000000
B0429463209101S11648376EA0139801456000000015000
B0429503209035S11648343EA0140701465000000015000
B0429543208983S11648375EA0141401473000000015000
B0429583208988S11648440EA0141001462000000015000
B0430023209040S11648480EA0139801453000000015000
B0430063209107S11648497EA0138701446000000015000
B0430103209178S11648507EA0138001439000000030000
B0430143209252S11648502EA0137301430000000015000
B0430183209325S11648486EA0136501421000000015000
B0430223209400S11648494EA0135801411000000015000
B0430263209473S11648528EA0134701396000000015000
B0430303209540S11648580EA0133501390000000000000
B0430343209611S11648615EA0133801395000000015000
B0430383209687S11648607EA0134101399000000015000
B0430423209765S11648599EA0134301399000000015000
B0430463209835S11648625EA0134201400000000015000
B0430503209884S11648688EA0134101402000000015000
B0430543209906S11648768EA0133501399000000015000
B0430583209903S11648858EA0132901391000000015000
B0431023209894S11648949EA0132301386000000015000
B0431063209885S11649041EA0131701376000000015000
B0431103209876S11649136EA0130701365000000015000
B0431143209865S11649231EA0130001358000000015000
B0431183209851S11649325EA0129701351000000015000
B0431223209833S11649418EA0128701342000000015000
B0431263209815S11649512EA0127301333000000015000
B0431303209800S11649603EA0127101328000000000000
B0431343209794S11649693EA0126501318000000000000
B0431383209773S11649781EA0125401308000000015000
B0431423209739S11649868EA0123701287000000000000
B0431463209705S11649958EA0122801281000000000000
B0431503209669S11650045EA0122101270000000000000
B0431543209633S11650130EA0121401263000000000000
B0431583209595S11650214EA0120601252000000000000
B0432023209557S11650300EA0119701240000000000000
B0432063209522S11650388EA0118901233000000000000
B0432103209486S11650477EA0118101223000000000000
B0432143209449S11650564EA0117101213000000000000
B0432183209413S11650652EA0116001203000000000000
B0432223209378S11650739EA0115101192000000000000
B0432263209345S11650829EA0113701178000000000000
B0432303209314S11650920EA0112301164000000000000
B0432343209282S11651012EA0111301151000000000000
B0432383209249S11651101EA0110601147000000000000
B0432423209219S11651190EA0110301144000000000000
B0432463209195S11651281EA0109701137000000000000
B0432503209170S11651371EA0108801130000000000000
B0432543209146S11651462EA0108401126000000000000
B0432583209135S11651553EA0108801131000000000000
B0433023209143S11651644EA0109401139000000000000
B0433063209163S11651731EA0109501136000000000000
B0433103209195S11651817EA0109401139000000000000
B0433143209228S11651900EA0110401150000000000000
B0433183209283S11651950EA0112101172000000000000
B0433223209327S11651907EA0114401191000000000000
B0433263209306S11651839EA0115401199000000015000
B0433303209241S11651835EA0116201206000000015000
B0433343209214S11651899EA0116801215000000015000
B0433383209250S11651948EA0118101233000000030000
B0433423209301S11651931EA0119001238000000030000
B0433463209313S11651861EA0119201242000000015000
B0433503209257S11651827EA0120801259000000015000
B0433543209218S11651881EA0121501263000000015000
B0433583209256S11651926EA0122001268000000015000
B0434023209296S11651874EA0122901278000000030000
B0434063209266S11651812EA0124101291000000030000
B0434103209204S11651825EA0124801295000000030000
B0434143209188S11651895EA0125501302000000030000
B0434183209237S11651926EA0126201311000000015000
B0434223209275S11651875EA0127201318000000015000
B0434263209243S11651810EA0127501323000000015000
B0434303209176S11651825EA0128401337000000015000
B0434343209153S11651896EA0129401341000000000000
B0434383209198S11651933EA0130001350000000000000
B0434423209231S11651879EA0130801357000000000000
B0434463209201S11651814EA0131501366000000000000
B0434503209135S11651830EA0132201372000000000000
B0434543209120S11651907EA0132701376000000000000
B0434583209171S11651940EA0133301383000000000000
B0435023209222S11651905EA0133301381000000000000
B0435063209236S11651833EA0133701386000000000000
B0435103209213S11651761EA0134101397000000015000
B0435143209146S11651745EA0135201407000000015000
B0435183209123S11651813EA0135901411000000015000
B0435223209178S11651844EA0136301417000000015000
B0435263209219S11651791EA0137501434000000015000
B0435303209188S11651727EA0138901448000000015000
B0435343209126S11651735EA0140101459000000015000
B0435383209091S11651794EA0141001461000000000000
B0435423209105S11651862EA0141401469000000000000
B0435463209159S11651882EA0142201474000000000000
B0435503209192S11651834EA0142901486000000000000
B0435543209167S11651775EA0143601492000000015000
B0435583209107S11651758EA0144401500000000015000
B0436023209061S11651805EA0145301506000000000000
B0436063209075S11651874EA0145801519000000000000
B0436103209130S11651886EA0146801524000000000000
B0436143209163S11651834EA0146701521000000015000
B0436183209133S11651770EA0146901528000000015000
B0436223209068S11651758EA0147401534000000015000
B0436263209022S11651816EA0147901534000000015000
B0436303209026S11651898EA0147701535000000015000
B0436343209078S11651940EA0148201539000000015000
B0436383209127S11651903EA0148001534000000000000
B0436423209122S11651830EA0147401529000000000000
B0436463209087S11651762EA0147401534000000000000
B0436503209027S11651722EA0148001542000000000000
B0436543208971S11651765EA0149001544000000000000
B0436583209002S11651825EA0148801545000000000000
B0437023209058S11651807EA0148701540000000000000
B0437063209059S11651732EA0148901552000000000000
B0437103209007S11651683EA0149701555000000000000
B0437143208936S11651682EA0150001557000000000000
B0437183208877S11651730EA0150501564000000000000
B0437223208860S11651805EA0150801563000000000000
B0437263208888S11651868EA0151201574000000000000
B0437303208938S11651887EA0151701575000000000000
B0437343208977S11651853EA0151801577000000000000
B0437383208974S11651794EA0151801576000000000000
B0437423208928S11651760EA0152001579000000000000
B0437463208875S11651784EA0151801573000000000000
B0437503208841S11651846EA0151201566000000000000
B0437543208815S11651920EA0150401558000000000000
B0437583208794S11652002EA0149701552000000000000
B0438023208775S11652086EA0148901544000000000000
B0438063208753S11652173EA0147901532000000000000
B0438103208737S11652263EA0146701516000000000000
B0438143208721S11652353EA0145301505000000000000
B0438183208706S11652442EA0144501500000000000000
B0438223208689S11652531EA0144101495000000000000
B0438263208671S11652616EA0143701492000000000000
B0438303208647S11652701EA0143501490000000000000
B0438343208623S11652783EA0143001485000000000000
B0438383208597S11652863EA0142701480000000000000
B0438423208571S11652945EA0142201474000000000000
B0438463208546S11653026EA0141701470000000000000
B0438503208522S11653105EA0141201464000000000000
B0438543208500S11653187EA0140501454000000000000
B0438583208478S11653269EA0139501448000000000000
B0439023208455S11653351EA0139001441000000000000
B0439063208429S11653432EA0138401436000000000000
B0439103208400S11653512EA0138001431000000000000
B0439143208369S11653593EA0137701429000000000000
B0439183208343S11653675EA0137601428000000000000
B0439223208325S11653758EA0137601427000000000000
B0439263208321S11653841EA0137301423000000000000
B0439303208320S11653927EA0136401411000000000000
B0439343208313S11654015EA0135101401000000000000
B0439383208304S11654104EA0134801399000000000000
B0439423208294S11654189EA0133901387000000000000
B0439463208283S11654274EA0133301382000000000000
B0439503208272S11654356EA0133101382000000000000
B0439543208259S11654434EA0132701373000000000000
B0439583208242S11654511EA0131901367000000000000
B0440023208220S11654585EA0131101356000000000000
B0440063208194S11654661EA0129801341000000000000
B0440103208165S11654739EA0128801335000000000000
B0440143208134S11654816EA0127901325000000000000
B0440183208105S11654893EA0127301321000000000000
B0440223208077S11654968EA0127601325000000000000
B0440263208056S11655045EA0127501324000000000000
B0440303208035S11655120EA0126901314000000000000
B0440343208010S11655194EA0126101308000000000000
B0440383207986S11655270EA0125701304000000000000
B0440423207966S11655348EA0125801306000000000000
B0440463207950S11655428EA0126001310000000000000
B0440503207947S11655509EA0126901319000000000000
B0440543207991S11655548EA0127201317000000000000
B0440583208032S11655502EA0126401306000000000000
B0441023208021S11655427EA0125501300000000000000
B0441063207978S11655362EA0125501306000000000000
B0441103207926S11655307EA0126101310000000000000
B0441143207857S11655296EA0126501315000000000000
B0441183207809S11655345EA0126901314000000000000
B0441223207805S11655418EA0125801301000000000000
B0441263207814S11655495EA0124601290000000000000
B0441303207830S11655574EA0123401277000000000000
B0441343207839S11655661EA0122601269000000000000
B0441383207850S11655749EA0122101264000000000000
B0441423207866S11655835EA0121401257000000000000
B0441463207882S11655921EA0120801251000000000000
B0441503207896S11656006EA0120301247000000000000
B0441543207909S11656090EA0119301235000000000000
B0441583207922S11656176EA0118101223000000000000
B0442023207921S11656263EA0117101213000000000000
B0442063207909S11656349EA0116401208000000000000
B0442103207888S11656432EA0116201204000000000000
B0442143207867S11656516EA0115401194000000000000
B0442183207854S11656605EA0114801189000000000000
B0442223207850S11656693EA0114301184000000000000
B0442263207854S11656780EA0113501177000000000000
B0442303207862S11656864EA0113201175000000000000
B0442343207872S11656943EA0113101174000000000000
B0442383207888S11657018EA0113401178000000000000
B0442423207909S11657088EA0113701182000000000000
B0442463207930S11657160EA0113901185000000000000
B0442503207953S11657226EA0114401189000000000000
B0442543207979S11657289EA0114701192000000000000
B0442583208010S11657351EA0114901193000000000000
B0443023208038S11657417EA0114901194000000000000
B0443063208065S11657484EA0115201197000000000000
B0443103208119S11657510EA0116001210000000000000
B0443143208168S11657465EA0117801226000000000000
B0443183208155S11657390EA0118301231000000000000
B0443223208092S11657372EA0118701231000000000000
B0443263208060S11657420EA0119301240000000000000
B0443303208093S11657459EA0120001248000000000000
B0443343208144S11657425EA0120801255000000000000
B0443383208142S11657347EA0121301260000000015000
B0443423208083S11657302EA0121401257000000015000
B0443463208025S11657329EA0121601263000000015000
B0443503208008S11657391EA0121901260000000015000
B0443543208030S11657452EA0121601259000000000000
B0443583208079S11657493EA0121201255000000000000
B0444023208139S11657508EA0121601262000000000000
B0444063208178S11657454EA0122801277000000000000
B0444103208165S11657377EA0123201277000000000000
B0444143208119S11657313EA0123001277000000000000
B0444183208049S11657290EA0122601272000000015000
B0444223207984S11657316EA0122701277000000015000
B0444263207996S11657372EA0123201277000000015000
B0444303208052S11657358EA0122901276000000015000
B0444343208070S11657277EA0122901275000000015000
B0444383208061S11657185EA0122701272000000000000
B0444423208043S11657095EA0123001278000000000000
B0444463208005S11657016EA0123301279000000000000
B0444503207940S11656978EA0123001276000000000000
B0444543207866S11656978EA0122601268000000000000
B0444583207796S11656997EA0122301267000000000000
B0445023207731S11657038EA0121901262000000000000
B0445063207670S11657090EA0121901266000000000000
B0445103207616S11657147EA0122401271000000000000
B0445143207568S11657212EA0122701272000000000000
B0445183207529S11657285EA0122501271000000000000
B0445223207494S11657364EA0123001278000000000000
B0445263207467S11657443EA0123801287000000000000
B0445303207466S11657521EA0124001288000000000000
B0445343207512S11657563EA0124001285000000000000
B0445383207559S11657523EA0123101270000000000000
B0445423207549S11657441EA0122101266000000015000
B0445463207494S11657377EA0122101269000000015000
B0445503207421S11657345EA0122601274000000015000
B0445543207352S11657384EA0123101277000000015000
B0445583207351S11657458EA0123701285000000015000
B0446023207404S11657478EA0123401276000000015000
B0446063207434S11657420EA0122801278000000015000
B0446103207404S11657355EA0123301281000000015000
B0446143207336S11657338EA0123101280000000015000
B0446183207263S11657355EA0123001276000000015000
B0446223207189S11657380EA0122401263000000015000
B0446263207111S11657408EA0120401243000000000000
B0446303207033S11657441EA0118801228000000000000
B0446343206957S11657478EA0117901221000000000000
B0446383206887S11657525EA0117501216000000000000
B0446423206825S11657588EA0116801208000000000000
B0446463206774S11657660EA0115901199000000000000
B0446503206726S11657737EA0114801186000000000000
B0446543206665S11657803EA0114201184000000000000
B0446583206598S11657862EA0114601190000000000000
B0447023206533S11657917EA0114701190000000000000
B0447063206471S11657971EA0114501186000000000000
B0447103206413S11658030EA0113801177000000000000
B0447143206354S11658093EA0113101171000000000000
B0447183206296S11658157EA0112501166000000000000
B0447223206242S11658226EA0113201175000000000000
B0447263206193S11658299EA0113701176000000000000
B0447303206169S11658383EA0113901183000000000000
B0447343206184S11658465EA0114301184000000000000
B0447383206211S11658541EA0114601189000000000000
B0447423206245S11658613EA0115201196000000000000
B0447463206303S11658641EA0116201208000000000000
B0447503206337S11658578EA0117001217000000000000
B0447543206305S11658517EA0118101228000000015000
B0447583206245S11658507EA0118901230000000015000
B0448023206210S11658561EA0118901233000000030000
B0448063206246S11658608EA0119901245000000015000
B0448103206296S11658576EA0120401249000000015000
B0448143206286S11658503EA0120701255000000015000
B0448183206228S11658482EA0121201258000000015000
B0448223206198S11658539EA0121701264000000030000
B0448263206237S11658590EA0122401273000000015000
B0448303206294S11658565EA0123001280000000015000
B0448343206301S11658492EA0123501287000000015000
B0448383206246S11658463EA0124101293000000015000
B0448423206206S11658512EA0124501295000000030000
B0448463206212S11658582EA0125001302000000015000
B0448503206268S11658602EA0125901313000000015000
B0448543206307S11658546EA0126501316000000015000
B0448583206270S11658491EA0127001320000000015000
B0449023206212S11658517EA0127301324000000030000
B0449063206216S11658585EA0128201335000000045000
B0449103206275S11658595EA0129301347000000030000
B0449143206312S11658535EA0130101353000000015000
B0449183206294S11658466EA0130501358000000030000
B0449223206236S11658453EA0130801357000000030000
B0449263206208S11658512EA0131001366000000030000
B0449303206250S11658555EA0132101378000000015000
B0449343206301S11658516EA0132901383000000015000
B0449383206288S11658446EA0133201383000000015000
B0449423206228S11658444EA0133201386000000015000
B0449463206210S11658511EA0133501389000000015000
B0449503206260S11658548EA0134101396000000015000
B0449543206305S11658495EA0134901403000000015000
B0449583206277S11658430EA0135201405000000015000
B0450023206218S11658431EA0135601406000000015000
B0450063206186S11658494EA0135701410000000015000
B0450103206220S11658557EA0136201415000000015000
B0450143206288S11658565EA0136401415000000015000
B0450183206344S11658513EA0136101410000000015000
B0450223206358S11658426EA0135601408000000015000
B0450263206342S11658339EA0135501407000000015000
B0450303206301S11658268EA0135501409000000015000
B0450343206232S11658264EA0135701410000000015000
B0450383206188S11658326EA0135401405000000015000
B0450423206184S11658412EA0135101403000000015000
B0450463206195S11658498EA0135901415000000015000
B0450503206215S11658578EA0136701422000000000000
B0450543206263S11658639EA0136801419000000000000
B0450583206332S11658630EA0136501420000000000000
B0451023206362S11658557EA0136201410000000000000
B0451063206335S11658481EA0134701394000000015000
B0451103206292S11658405EA0133501384000000000000
B0451143206244S11658331EA0133601391000000000000
B0451183206188S11658269EA0133801389000000000000
B0451223206132S11658204EA0133501386000000000000
B0451263206076S11658139EA0133501388000000000000
B0451303206021S11658074EA0133301381000000000000
B0451343205977S11657993EA0132701384000000000000
B0451383205963S11657900EA0133701399000000000000
B0451423205991S11657826EA0136001427000000000000
B0451463206046S11657803EA0137701435000000000000
B0451503206099S11657831EA0137801429000000000000
B0451543206146S11657879EA0137001419000000000000
B0451583206201S11657909EA0136001412000000000000
B0452023206250S11657871EA0135301399000000000000
B0452063206233S11657800EA0133601384000000000000
B0452103206169S11657762EA0132101368000000015000
B0452143206098S11657731EA0130801347000000000000
B0452183206025S11657692EA0128901332000000000000
B0452223205951S11657650EA0127601320000000000000
B0452263205869S11657640EA0127301326000000000000
B0452303205803S11657685EA0128801344000000000000
B0452343205774S11657758EA0130601363000000015000
B0452383205818S11657802EA0131901369000000015000
B0452423205855S11657751EA0132701382000000015000
B0452463205813S11657706EA0133401386000000015000
B0452503205765S11657748EA0133801389000000015000
B0452543205790S11657811EA0134001390000000015000
B0452583205848S11657792EA0134401398000000015000
B0453023205852S11657719EA0135201404000000015000
B0453063205798S11657688EA0135701408000000015000
B0453103205750S11657735EA0136401417000000015000
B0453143205755S11657806EA0136801417000000015000
B0453183205809S11657837EA0137001425000000015000
B0453223205851S11657783EA0138201437000000015000
B0453263205830S11657714EA0138901443000000030000
B0453303205773S11657709EA0139501448000000030000
B0453343205740S11657768EA0139901451000000030000
B0453383205755S11657840EA0140101453000000015000
B0453423205811S11657865EA0141001470000000015000
B0453463205844S11657807EA0142201476000000015000
B0453503205804S11657757EA0142701482000000030000
B0453543205753S11657787EA0142701481000000030000
B0453583205756S11657857EA0143001487000000030000
B0454023205807S11657892EA0143501490000000015000
B0454063205861S11657854EA0143701495000000015000
B0454103205844S11657783EA0144201498000000015000
B0454143205785S11657776EA0144401503000000030000
B0454183205757S11657835EA0144701502000000015000
B0454223205787S11657897EA0144501505000000015000
B0454263205846S11657906EA0145801519000000015000
B0454303205883S11657850EA0146101512000000015000
B0454343205864S11657777EA0145801514000000015000
B0454383205805S11657763EA0146101516000000015000
B0454423205774S11657818EA0146401522000000015000
B0454463205796S11657881EA0146701523000000015000
B0454503205857S11657881EA0146901524000000015000
B0454543205877S11657805EA0146701521000000015000
B0454583205826S11657750EA0146401520000000015000
B0455023205763S11657763EA0146901528000000015000
B0455063205726S11657819EA0147501530000000015000
B0455103205733S11657892EA0147601533000000015000
B0455143205778S11657945EA0148301542000000015000
B0455183205837S11657911EA0148701539000000015000
B0455223205834S11657829EA0148201538000000015000
B0455263205778S11657788EA0148301539000000015000
B0455303205712S11657796EA0147801531000000015000
B0455343205665S11657850EA0147701534000000015000
B0455383205678S11657924EA0148001536000000015000
B0455423205735S11657967EA0148501540000000015000
B0455463205805S11657976EA0148801542000000015000
B0455503205876S11657949EA0148001531000000015000
B0455543205942S11657900EA0146601517000000015000
B0455583206012S11657848EA0144801497000000015000
B0456023206089S11657797EA0143101481000000000000
B0456063206169S11657744EA0142001470000000000000
B0456103206249S11657690EA0141301462000000000000
B0456143206327S11657633EA0140501456000000000000
B0456183206405S11657577EA0139901449000000000000
B0456223206480S11657521EA0139001439000000000000
B0456263206557S11657469EA0138401435000000000000
B0456303206631S11657421EA0137901429000000000000
B0456343206704S11657376EA0137201423000000000000
B0456383206775S11657332EA0136401413000000000000
B0456423206848S11657286EA0135601403000000000000
B0456463206923S11657250EA0135101405000000000000
B0456503206996S11657220EA0135401402000000000000
B0456543207072S11657190EA0134901400000000000000
B0456583207144S11657161EA0134801397000000000000
B0457023207216S11657127EA0134601398000000000000
B0457063207282S11657083EA0135001401000000000000
B0457103207333S11657020EA0135601409000000000000
B0457143207356S11656936EA0135801408000000000000
B0457183207372S11656848EA0135501405000000000000
B0457223207385S11656758EA0135101399000000000000
B0457263207389S11656667EA0134101388000000000000
B0457303207388S11656574EA0132801372000000000000
B0457343207378S11656477EA0131701365000000000000
B0457383207389S11656383EA0130501352000000000000
B0457423207432S11656305EA0129801349000000000000
B0457463207492S11656255EA0130101352000000000000
B0457503207560S11656237EA0130001346000000000000
B0457543207631S11656238EA0129101336000000000000
B0457583207703S11656251EA0128401332000000000000
B0458023207775S11656269EA0128001328000000000000
B0458063207843S11656298EA0127601323000000000000
B0458103207906S11656333EA0126601312000000000000
B0458143207974S11656368EA0125401298000000000000
B0458183208044S11656394EA0124801294000000000000
B0458223208117S11656399EA0124301287000000000000
B0458263208191S11656380EA0123801283000000000000
B0458303208265S11656353EA0123701286000000000000
B0458343208339S11656324EA0124301288000000000000
B0458383208412S11656290EA0123801283000000000000
B0458423208472S11656234EA0124101288000000000000
B0458463208502S11656151EA0124701294000000000000
B0458503208486S11656058EA0125201303000000000000
B0458543208446S11655981EA0126501312000000015000
B0458583208378S11655986EA0126801307000000015000
B0459023208352S11656059EA0126101304000000015000
B0459063208381S11656119EA0126801314000000015000
B0459103208441S11656095EA0127301319000000015000
B0459143208469S11656013EA0127701327000000030000
B0459183208455S11655930EA0128701339000000030000
B0459223208391S11655898EA0129301337000000030000
B0459263208337S11655946EA0129301341000000045000
B0459303208361S11656009EA0129601342000000030000
B0459343208418S11655989EA0129601339000000030000
B0459383208426S11655907EA0129201338000000030000
B0459423208387S11655831EA0129001338000000030000
B0459463208318S11655787EA0129801345000000030000
B0459503208266S11655835EA0130901352000000030000
B0459543208308S11655879EA0131401358000000030000
B0459583208356S11655843EA0131701359000000030000
B0500023208347S11655769EA0132201369000000030000
B0500063208278S11655760EA0132401368000000045000
B0500103208251S11655833EA0132701377000000030000
B0500143208286S11655891EA0133301383000000030000
B0500183208346S11655885EA0133301386000000015000
B0500223208370S11655817EA0133801394000000030000
B0500263208326S11655757EA0134601400000000030000
B0500303208261S11655775EA0135301405000000030000
B0500343208261S11655838EA0135601409000000030000
B0500383208311S11655843EA0135301404000000030000
B0500423208326S11655778EA0135601411000000045000
B0500463208286S11655718EA0136101416000000030000
B0500503208221S11655707EA0136401417000000030000
B0500543208190S11655761EA0136501421000000030000
B0500583208229S11655790EA0136801422000000030000
B0501023208259S11655736EA0136801426000000030000
B0501063208225S11655669EA0136901426000000030000
B0501103208156S11655657EA0137101430000000030000
B0501143208116S11655710EA0138001439000000030000
B0501183208135S11655766EA0138201438000000015000
B0501223208186S11655766EA0138101434000000015000
B0501263208216S11655705EA0137701434000000015000
B0501303208186S11655632EA0137901435000000030000
B0501343208118S11655605EA0138101438000000030000
B0501383208054S11655625EA0138401437000000030000
B0501423208004S11655673EA0138101435000000015000
B0501463207975S11655739EA0137601429000000015000
B0501503207975S11655813EA0136601418000000015000
B0501543207997S11655886EA0135501406000000015000
B0501583208034S11655959EA0133701389000000015000
B0502023208075S11656037EA0132701381000000000000
B0502063208110S11656120EA0132501383000000000000
B0502103208145S11656197EA0133001389000000000000
B0502143208182S11656268EA0133101387000000000000
B0502183208222S11656340EA0132201375000000000000
B0502223208266S11656409EA0132001378000000000000
B0502263208330S11656436EA0133301395000000000000
B0502303208374S11656384EA0134201398000000015000
B0502343208360S11656308EA0133501388000000015000
B0502383208295S11656277EA0133701400000000030000
B0502423208247S11656323EA0135301417000000030000
B0502463208274S11656377EA0136801428000000015000
B0502503208322S11656347EA0136701418000000015000
B0502543208317S11656272EA0136001421000000030000
B0502583208264S11656224EA0137201434000000030000
B0503023208201S11656237EA0138001442000000030000
B0503063208187S11656307EA0138601444000000030000
B0503103208236S11656340EA0138901447000000015000
B0503143208269S11656281EA0139601456000000030000
B0503183208229S11656223EA0140401464000000030000
B0503223208178S11656264EA0141201471000000030000
B0503263208207S11656327EA0141901481000000030000
B0503303208262S11656303EA0142801487000000030000
B0503343208257S11656225EA0142701486000000030000
B0503383208195S11656182EA0143001491000000030000
B0503423208123S11656193EA0143201488000000030000
B0503463208083S11656256EA0142401477000000030000
B0503503208096S11656329EA0141801477000000030000
B0503543208132S11656393EA0141501472000000030000
B0503583208186S11656438EA0141901476000000030000
B0504023208244S11656416EA0142101470000000015000
B0504063208261S11656337EA0141101458000000030000
B0504103208227S11656254EA0139701443000000030000
B0504143208174S11656181EA0138701434000000015000
B0504183208114S11656121EA0140101445000000015000
B0504223208048S11656136EA0141301451000000030000
B0504263208038S11656203EA0141201450000000015000
B0504303208088S11656236EA0139801437000000015000
B0504343208147S11656199EA0138901437000000015000
B0504383208179S11656129EA0139201440000000015000
B0504423208171S11656046EA0139501444000000030000
B0504463208123S11655976EA0139901451000000015000
B0504503208054S11655954EA0141301465000000030000
B0504543208039S11656016EA0141901470000000030000
B0504583208093S11656024EA0141901467000000030000
B0505023208112S11655954EA0141901475000000030000
B0505063208080S11655878EA0142201481000000030000
B0505103208018S11655844EA0142901488000000030000
B0505143207975S11655886EA0143701498000000030000
B0505183208008S11655928EA0144101500000000015000
B0505223208048S11655882EA0144401506000000015000
B0505263208023S11655808EA0145101510000000030000
B0505303207958S11655788EA0145201510000000030000
B0505343207924S11655844EA0145901520000000030000
B0505383207970S11655873EA0146401523000000045000
B0505423207997S11655808EA0147501539000000045000
B0505463207960S11655743EA0148101536000000045000
B0505503207893S11655744EA0147801540000000045000
B0505543207859S11655800EA0148301542000000030000
B0505583207885S11655860EA0147701532000000030000
B0506023207947S11655873EA0147301539000000015000
B0506063207976S11655809EA0148401550000000030000
B0506103207919S11655775EA0149101555000000030000
B0506143207889S11655831EA0149901563000000030000
B0506183207934S11655861EA0150201561000000015000
B0506223207973S11655805EA0150201566000000030000
B0506263207935S11655742EA0150901572000000015000
B0506303207874S11655757EA0151401575000000015000
B0506343207875S11655822EA0151901581000000015000
B0506383207927S11655834EA0152501587000000015000
B0506423207956S11655774EA0153001590000000015000
B0506463207919S11655708EA0153101588000000015000
B0506503207854S11655710EA0153401596000000015000
B0506543207828S11655768EA0154201603000000015000
B0506583207862S11655814EA0154201598000000015000
B0507023207913S11655786EA0154401603000000015000
B0507063207915S11655709EA0154601605000000015000
B0507103207867S11655653EA0154701606000000015000
B0507143207800S11655655EA0155001610000000015000
B0507183207761S11655712EA0155101609000000030000
B0507223207774S11655775EA0154901604000000060000
B0507263207831S11655786EA0154601605000000090000
B0507303207863S11655727EA0155201615000000090000
B0507343207845S11655652EA0155101607000000045000
B0507383207794S11655597EA0155201609000000045000
B0507423207729S11655603EA0155901616000000045000
B0507463207690S11655655EA0155801612000000090000
B0507503207696S11655727EA0155001607000000060000
B0507543207731S11655786EA0154901609000000060000
B0507583207784S11655773EA0155401616000000075000
B0508023207793S11655705EA0155601614000000135000
B0508063207750S11655649EA0155701616000000135000
B0508103207692S11655647EA0155501616000000105000
B0508143207642S11655695EA0154701608000000105000
B0508183207602S11655760EA0154101603000000090000
B0508223207570S11655838EA0153001593000000045000
B0508263207538S11655921EA0151701577000000030000
B0508303207510S11656006EA0150801569000000015000
B0508343207488S11656093EA0150101562000000015000
B0508383207471S11656180EA0149601558000000015000
B0508423207454S11656268EA0149101553000000030000
B0508463207446S11656359EA0148401546000000015000
B0508503207437S11656442EA0148201543000000015000
B0508543207429S11656524EA0147901538000000015000
B0508583207425S11656605EA0147501531000000015000
B0509023207425S11656684EA0147001529000000000000
B0509063207425S11656760EA0146901526000000000000
B0509103207428S11656835EA0146401521000000015000
B0509143207458S11656904EA0145601513000000015000
B0509183207514S11656953EA0144701506000000015000
B0509223207581S11656978EA0143701499000000015000
B0509263207651S11656982EA0143401496000000015000
B0509303207723S11656973EA0142901489000000015000
B0509343207798S11656969EA0142001477000000015000
B0509383207875S11656978EA0141101469000000015000
B0509423207953S11656991EA0140201460000000015000
B0509463208028S11657005EA0140201460000000015000
B0509503208104S11657013EA0140001457000000015000
B0509543208177S11657023EA0139601452000000015000
B0509583208252S11657039EA0138701446000000015000
B0510023208327S11657057EA0137501431000000015000
B0510063208403S11657079EA0135901421000000015000
B0510103208482S11657103EA0134201414000000015000
B0510143208559S11657127EA0132601403000000015000
B0510183208634S11657150EA0132501400000000015000
B0510223208710S11657168EA0132801403000000015000
B0510263208785S11657183EA0133401405000000015000
B0510303208860S11657198EA0133501397000000015000
B0510343208938S11657215EA0131901372000000015000
B0510383209018S11657231EA0130601367000000015000
B0510423209096S11657250EA0130201359000000015000
B0510463209175S11657267EA0129501353000000015000
B0510503209252S11657282EA0129801354000000015000
B0510543209331S11657298EA0129201345000000015000
B0510583209413S11657312EA0128501339000000015000
B0511023209494S11657325EA0128501337000000015000
B0511063209572S11657343EA0128301337000000015000
B0511103209655S11657361EA0126901332000000015000
B0511143209739S11657378EA0126001323000000015000
B0511183209821S11657395EA0125401318000000015000
B0511223209899S11657410EA0125201311000000015000
B0511263209975S11657425EA0124301299000000015000
B0511303210051S11657441EA0123501289000000015000
B0511343210125S11657460EA0123001283000000015000
B0511383210198S11657482EA0122901283000000015000
B0511423210270S11657504EA0122901281000000000000
B0511463210342S11657525EA0122601274000000000000
B0511503210417S11657545EA0122301272000000000000
B0511543210492S11657560EA0122701278000000000000
B0511583210563S11657559EA0122801274000000000000
B0512023210634S11657560EA0122601268000000000000
B0512063210703S11657572EA0122601269000000015000
B0512103210773S11657589EA0121601263000000015000
B0512143210847S11657607EA0120701253000000015000
B0512183210925S11657623EA0119201235000000015000
B0512223211004S11657641EA0117601219000000015000
B0512263211083S11657657EA0116501208000000015000
B0512303211164S11657671EA0115301193000000000000
B0512343211247S11657685EA0113601182000000000000
B0512383211330S11657701EA0112901173000000000000
B0512423211415S11657716EA0112101165000000000000
B0512463211497S11657731EA0111701162000000000000
B0512503211576S11657748EA0111401156000000000000
B0512543211657S11657767EA0110601144000000000000
B0512583211737S11657790EA0109801137000000000000
B0513023211817S11657807EA0110201149000000000000
B0513063211882S11657842EA0111801172000000000000
B0513103211889S11657917EA0114401195000000000000
B0513143211837S11657944EA0115601197000000015000
B0513183211797S11657893EA0114901183000000000000
B0513223211811S11657814EA0114201187000000015000
B0513263211836S11657736EA0115001195000000015000
B0513303211892S11657720EA0116801219000000015000
B0513343211928S11657762EA0118701228000000015000
B0513383211915S11657822EA0120201244000000015000
B0513423211863S11657836EA0121101250000000015000
B0513463211819S11657783EA0121501260000000015000
B0513503211810S11657716EA0123001268000000030000
B0513543211845S11657670EA0123501272000000030000
B0513583211900S11657686EA0123001266000000030000
B0514023211917S11657757EA0123301286000000015000
B0514063211874S11657798EA0125801305000000030000
B0514103211824S11657767EA0127401313000000030000
B0514143211815S11657701EA0127601322000000030000
B0514183211853S11657662EA0128401327000000030000
B0514223211904S11657675EA0128101325000000030000
B0514263211935S11657731EA0129101337000000030000
B0514303211943S11657802EA0130501352000000015000
B0514343211896S11657844EA0131401359000000015000
B0514383211844S11657809EA0131401354000000015000
B0514423211830S11657738EA0130501344000000015000
B0514463211866S11657676EA0130101350000000015000
B0514503211925S11657646EA0131101362000000015000
B0514543211979S11657677EA0132601379000000015000
B0514583211969S11657740EA0134801406000000015000
B0515023211914S11657751EA0136001410000000015000
B0515063211876S11657697EA0136401419000000015000
B0515103211895S11657634EA0137601434000000015000
B0515143211948S11657620EA0138501441000000015000
B0515183211993S11657662EA0139101443000000015000
B0515223211995S11657731EA0139801457000000015000
B0515263211956S11657785EA0140801463000000015000
B0515303211892S11657801EA0140501456000000015000
B0515343211832S11657763EA0140501464000000000000
B0515383211805S11657697EA0141601473000000015000
B0515423211802S11657628EA0142501478000000015000
B0515463211853S11657601EA0143301485000000015000
B0515503211892S11657647EA0144001494000000015000
B0515543211874S11657715EA0145701515000000030000
B0515583211815S11657732EA0147001525000000045000
B0516023211774S11657681EA0147501531000000060000
B0516063211789S11657618EA0148101540000000045000
B0516103211844S11657597EA0148701545000000030000
B0516143211892S11657637EA0149501556000000030000
B0516183211896S11657706EA0150901573000000030000
B0516223211847S11657748EA0152501587000000045000
B0516263211791S11657722EA0153401593000000030000
B0516303211775S11657657EA0153901596000000030000
B0516343211814S11657611EA0154001602000000015000
B0516383211867S11657625EA0154701609000000015000
B0516423211893S11657683EA0155401622000000030000
B0516463211878S11657750EA0156501629000000030000
B0516503211823S11657790EA0156801626000000015000
B0516543211756S11657771EA0156101622000000015000
B0516583211715S11657703EA0156301628000000015000
B0517023211701S11657629EA0156401627000000015000
B0517063211737S11657564EA0155801616000000030000
B0517103211810S11657534EA0154801608000000015000
B0517143211892S11657529EA0154501602000000015000
B0517183211974S11657534EA0153901595000000015000
B0517223212057S11657538EA0153101588000000015000
B0517263212143S11657538EA0152301581000000015000
B0517303212229S11657549EA0151501577000000015000
B0517343212313S11657562EA0151101574000000015000
B0517383212400S11657572EA0149701569000000030000
B0517423212494S11657579EA0148701560000000030000
B0517463212585S11657586EA0148101554000000030000
B0517503212672S11657594EA0147401545000000030000
B0517543212760S11657603EA0146901538000000030000
B0517583212845S11657619EA0146301530000000030000
B0518023212932S11657634EA0144801522000000030000
B0518063213019S11657649EA0143901514000000045000
B0518103213108S11657660EA0142801506000000030000
B0518143213196S11657670EA0141801494000000030000
B0518183213283S11657680EA0140801488000000030000
B0518223213369S11657686EA0140801485000000030000
B0518263213449S11657689EA0141401485000000030000
B0518303213522S11657699EA0141701486000000030000
B0518343213594S11657715EA0140901487000000045000
B0518383213676S11657725EA0139801483000000045000
B0518423213756S11657724EA0139101480000000045000
B0518463213838S11657720EA0138501477000000045000
B0518503213921S11657718EA0138101472000000060000
B0518543214003S11657716EA0137601470000000060000
B0518583214088S11657719EA0136901464000000060000
B0519023214171S11657722EA0136001457000000060000
B0519063214253S11657715EA0134901452000000045000
B0519103214336S11657705EA0134101440000000045000
B0519143214421S11657705EA0133001432000000060000
B0519183214504S11657712EA0131901422000000045000
B0519223214588S11657723EA0130801416000000060000
B0519263214675S11657738EA0129301408000000060000
B0519303214762S11657755EA0128201399000000060000
B0519343214848S11657777EA0127601392000000060000
B0519383214935S11657803EA0127001385015000060000
B0519423215020S11657823EA0126201380015000075000
B0519463215104S11657841EA0125201375015000075000
B0519503215188S11657862EA0123801369015000075000
B0519543215275S11657879EA0122901362015000075000
B0519583215368S11657871EA0122101344015000075000
B0520023215455S11657868EA0122101340015000075000
B0520063215540S11657867EA0122201338015000075000
B0520103215623S11657862EA0122601328000000060000
B0520143215700S11657865EA0123801330000000060000
B0520183215775S11657876EA0123801332000000060000
B0520223215848S11657881EA0123501318000000045000
B0520263215923S11657889EA0123201312000000045000
B0520303215996S11657896EA0123701308000000030000
B0520343216069S11657904EA0123201295000000030000
B0520383216143S11657905EA0123701295000000030000
B0520423216211S11657893EA0124301298000000030000
B0520463216273S11657855EA0123101272000000015000
B0520503216350S11657848EA0121201254000000060000
B0520543216428S11657858EA0121201264000000030000
B0520583216504S11657865EA0121201263000000030000
B0521023216581S11657867EA0120101261000000030000
B0521063216662S11657865EA0118501252000000030000
B0521103216745S11657858EA0117301242000000030000
B0521143216831S11657863EA0116301231000000030000
B0521183216915S11657871EA0115201219000000030000
B0521223217002S11657881EA0113901207000000030000
B0521263217088S11657897EA0113101199000000030000
B0521303217171S11657920EA0113201192000000030000
B0521343217253S11657941EA0113001184000000015000
B0521383217336S11657949EA0112201166000000015000
B0521423217424S11657956EA0110701152000000015000
B0521463217508S11657971EA0110101151000000015000
B0521503217589S11657988EA0109801142000000015000
B0521543217669S11658005EA0109001135000000015000
B0521583217749S11658019EA0108601127000000000000
B0522023217827S11658035EA0107601116000000000000
B0522063217906S11658056EA0106701104000000000000
B0522103217988S11658070EA0105701095000000000000
B0522143218071S11658073EA0105001087000000000000
B0522183218152S11658070EA0104401078000000000000
B0522223218232S11658063EA0103201064000000000000
B0522263218314S11658057EA0101701048000000000000
B0522303218396S11658056EA0100101031000000000000
B0522343218478S11658060EA0098501013000000000000
B0522383218557S11658048EA0097301000000000000000
B0522423218638S11658030EA0095900988000000000000
B0522463218716S11658023EA0095100983000000000000
B0522503218791S11658027EA0095300989000000000000
B0522543218864S11658030EA0095600990000000000000
B0522583218937S11658027EA0095500984000000000000
B0523023219011S11658019EA0095000982000000000000
B0523063219085S11658019EA0095100987000000000000
B0523103219159S11658027EA0096000994000000000000
B0523143219205S11657974EA0096200991000000000000
B0523183219173S11657910EA0095600977000000000000
B0523223219115S11657928EA0093900956000000015000
B0523263219099S11658001EA0092400948000000015000
B0523303219121S11658075EA0092600955000000015000
B0523343219169S11658131EA0092900957000000015000
B0523383219234S11658157EA0092200947000000015000
B0523423219306S11658166EA0092000949000000015000
B0523463219375S11658170EA0092900961000000015000
B0523503219422S11658135EA0094400976000000015000
B0523543219394S11658069EA0094100966000000015000
B0523583219327S11658089EA0094100980000000015000
B0524023219316S11658162EA0095600992000000015000
B0524063219358S11658205EA0096000991000000015000
B0524103219416S11658190EA0095900987000000015000
B0524143219436S11658117EA0095500984000000015000
B0524183219398S11658050EA0095300985000000015000
B0524223219327S11658045EA0095800991000000015000
B0524263219270S11658091EA0096400998000000015000
B0524303219302S11658143EA0097101005000000015000
B0524343219320S11658080EA0098101012000000015000
B0524383219258S11658061EA0098101012000000030000
B0524423219231S11658127EA0098301013000000045000
B0524463219275S11658177EA0098301015000000045000
B0524503219325S11658144EA0098801022000000045000
B0524543219316S11658070EA0099101022000000060000
B0524583219254S11658026EA0098901021000000045000
B0525023219197S11658058EA0099201025000000045000
B0525063219189S11658131EA0099001022000000030000
B0525103219228S11658188EA0098801022000000015000
B0525143219289S11658219EA0098301017000000015000
B0525183219357S11658236EA0098001014000000015000
B0525223219422S11658219EA0098401019000000015000
B0525263219459S11658156EA0098201012000000015000
B0525303219436S11658082EA0097601006000000015000
B0525343219364S11658066EA0096800995000000015000
B0525383219294S11658095EA0095700987000000015000
B0525423219254S11658167EA0095100981000000015000
B0525463219236S11658255EA0094200973000000015000
B0525503219225S11658344EA0093600966000000000000
B0525543219231S11658435EA0093800973000000000000
B0525583219281S11658482EA0094700987000000000000
B0526023219328S11658439EA0096200998000000015000
B0526063219311S11658365EA0096300996000000015000
B0526103219246S11658353EA0096501000000000015000
B0526143219202S11658405EA0096701000000000015000
B0526183219186S11658481EA0095700982000000015000
B0526223219182S11658563EA0094300974000000015000
B0526263219182S11658646EA0093700967000000015000
B0526303219188S11658732EA0093000963000000015000
B0526343219198S11658815EA0093100963000000015000
B0526383219238S11658859EA0095200985000000015000
B0526423219276S11658810EA0096800995000000030000
B0526463219234S11658746EA0097301002000000045000
B0526503219171S11658760EA0097901010000000015000
B0526543219156S11658824EA0098201020000000015000
B0526583219190S11658871EA0099101028000000030000
B0527023219241S11658850EA0099701034000000045000
B0527063219245S11658777EA0100001035000000030000
B0527103219193S11658730EA0100801045000000045000
B0527143219134S11658755EA0101301048000000060000
B0527183219132S11658817EA0102201059000000030000
B0527223219180S11658834EA0102801071000000030000
B0527263219210S11658780EA0103501072000000015000
B0527303219180S11658710EA0104101084000000015000
B0527343219117S11658702EA0105401094000000015000
B0527383219089S11658755EA0106001101000000015000
B0527423219123S11658795EA0106501105000000015000
B0527463219172S11658769EA0106701101000000015000
B0527503219180S11658687EA0106801108000000030000
B0527543219134S11658617EA0108101123000000015000
B0527583219064S11658612EA0109101132000000015000
B0528023219026S11658668EA0109101128000000015000
B0528063219050S11658728EA0109001131000000015000
B0528103219102S11658754EA0109201129000000015000
B0528143219149S11658693EA0108501122000000015000
B0528183219136S11658596EA0109101141000000015000
B0528223219068S11658594EA0111301157000000015000
B0528263219047S11658660EA0111701159000000015000
B0528303219098S11658691EA0112201165000000015000
B0528343219151S11658647EA0112601173000000015000
B0528383219128S11658569EA0114401193000000015000
B0528423219063S11658580EA0115701203000000015000
B0528463219050S11658645EA0116401208000000015000
B0528503219090S11658694EA0116101200000000015000
B0528543219155S11658690EA0116101207000000015000
B0528583219198S11658624EA0117001219000000015000
B0529023219180S11658541EA0118601236000000015000
B0529063219115S11658509EA0120301252000000015000
B0529103219073S11658559EA0121301261000000015000
B0529143219102S11658615EA0121901270000000015000
B0529183219150S11658577EA0123201286000000015000
B0529223219119S11658504EA0124501293000000015000
B0529263219051S11658516EA0125001305000000015000
B0529303219043S11658582EA0126401317000000015000
B0529343219095S11658596EA0127601331000000015000
B0529383219114S11658530EA0129201348000000015000
B0529423219067S11658478EA0130401352000000015000
B0529463219004S11658503EA0130801363000000015000
B0529503218999S11658565EA0132201376000000015000
B0529543219047S11658583EA0132501375000000015000
B0529583219082S11658524EA0133501395000000015000
B0530023219049S11658460EA0135401405000000015000
B0530063218986S11658476EA0135801412000000015000
B0530103218972S11658539EA0136701423000000015000
B0530143219010S11658580EA0137501428000000015000
B0530183219058S11658552EA0138101439000000015000
B0530223219050S11658481EA0139501455000000015000
B0530263218990S11658452EA0140701459000000015000
B0530303218942S11658500EA0140901466000000015000
B0530343218959S11658557EA0141801475000000015000
B0530383219011S11658563EA0142301480000000015000
B0530423219034S11658503EA0143301495000000015000
B0530463218998S11658442EA0144501503000000015000
B0530503218930S11658426EA0145401511000000015000
B0530543218878S11658468EA0146001517000000015000
B0530583218877S11658534EA0146101517000000015000
B0531023218922S11658570EA0145801515000000015000
B0531063218977S11658550EA0146001519000000015000
B0531103218991S11658476EA0146601524000000015000
B0531143218950S11658399EA0146801529000000015000
B0531183218877S11658392EA0148101544000000015000
B0531223218834S11658455EA0148901545000000015000
B0531263218848S11658525EA0148901547000000015000
B0531303218902S11658557EA0148601539000000015000
B0531343218958S11658526EA0148001539000000015000
B0531383218965S11658438EA0148201542000000015000
B0531423218935S11658353EA0149501555000000015000
B0531463218864S11658344EA0150301559000000015000
B0531503218830S11658416EA0149701554000000015000
B0531543218857S11658487EA0149801559000000015000
B0531583218915S11658498EA0150701568000000015000
B0532023218912S11658426EA0151901575000000030000
B0532063218841S11658418EA0152201582000000045000
B0532103218803S11658485EA0152401582000000030000
B0532143218825S11658548EA0152201578000000015000
B0532183218881S11658576EA0150901562000000015000
B0532223218951S11658590EA0148801543000000015000
B0532263219026S11658594EA0148201544000000015000
B0532303219103S11658595EA0148201541000000015000
B0532343219182S11658600EA0148401545000000000000
B0532383219260S11658608EA0149301556000000000000
B0532423219337S11658622EA0149601552000000000000
B0532463219416S11658639EA0148901542000000000000
B0532503219498S11658655EA0147801534000000000000
B0532543219580S11658674EA0146801522000000000000
B0532583219663S11658699EA0145801512000000000000
B0533023219747S11658725EA0144701500000000000000
B0533063219830S11658751EA0143301487000000000000
B0533103219914S11658776EA0142101471000000000000
B0533143219998S11658804EA0141301461000000000000
B0533183220083S11658832EA0140101449000000000000
B0533223220170S11658851EA0139101443000000000000
B0533263220256S11658866EA0138601437000000000000
B0533303220339S11658880EA0137501423000000000000
B0533343220424S11658902EA0136101408000000000000
B0533383220511S11658906EA0135101403000000000000
B0533423220597S11658897EA0134701398000000000000
B0533463220681S11658892EA0134701399000000000000
B0533503220762S11658899EA0135501411000000000000
B0533543220835S11658921EA0136101417000000000000
B0533583220901S11658947EA0136801424000000000000
B0534023220967S11658981EA0137201427000000000000
B0534063221036S11659011EA0137501429000000000000
B0534103221106S11659036EA0137501429000000000000
B0534143221178S11659058EA0137101422000000000000
B0534183221252S11659083EA0136301414000000000000
B0534223221326S11659109EA0135701409000000000000
B0534263221398S11659141EA0135201403000000000000
B0534303221472S11659174EA0134401389000000000000
B0534343221548S11659206EA0133001376000000000000
B0534383221628S11659239EA0131601360000000000000
B0534423221706S11659283EA0130801357000000000000
B0534463221780S11659335EA0131101364000000000000
B0534503221850S11659380EA0132201377000000000000
B0534543221920S11659423EA0133301388000000000000
B0534583221993S11659462EA0134001390000000000000
B0535023222068S11659492EA0134301399000000000000
B0535063222136S11659469EA0136401431000000000000
B0535103222120S11659401EA0139201450000000000000
B0535143222067S11659423EA0140001448000000000000
B0535183222071S11659500EA0139401447000000015000
B0535223222132S11659522EA0140301463000000015000
B0535263222159S11659457EA0141801478000000015000
B0535303222110S11659427EA0143101490000000015000
B0535343222079S11659482EA0143801495000000015000
B0535383222118S11659534EA0144301501000000015000
B0535423222169S11659496EA0145301512000000015000
B0535463222139S11659435EA0146001516000000015000
B0535503222083S11659462EA0146701527000000015000
B0535543222092S11659530EA0147501535000000015000
B0535583222150S11659544EA0148101543000000015000
B0536023222187S11659486EA0149201552000000015000
B0536063222161S11659421EA0150001560000000015000
B0536103222102S11659423EA0151001573000000015000
B0536143222080S11659482EA0151901579000000015000
B0536183222118S11659532EA0152301583000000015000
B0536223222175S11659518EA0152901591000000015000
B0536263222192S11659448EA0153601597000000015000
B0536303222145S11659401EA0154001599000000015000
B0536343222093S11659434EA0154601608000000015000
B0536383222098S11659500EA0155401616000000015000
B0536423222150S11659531EA0156001619000000015000
B0536463222200S11659486EA0156201621000000015000
B0536503222172S11659422EA0157101633000000015000
B0536543222119S11659449EA0157801638000000015000
B0536583222131S11659519EA0158001638000000015000
B0537023222193S11659531EA0158301647000000015000
B0537063222227S11659474EA0159501658000000015000
B0537103222197S11659419EA0160201664000000015000
B0537143222143S11659422EA0160701670000000015000
B0537183222113S11659482EA0161001672000000015000
B0537223222124S11659552EA0161201671000000015000
B0537263222178S11659596EA0160401659000000015000
B0537303222247S11659620EA0158601637000000000000
B0537343222325S11659638EA0156201610000000000000
B0537383222406S11659656EA0153801589000000000000
B0537423222492S11659673EA0152401580000000000000
B0537463222577S11659690EA0151901575000000000000
B0537503222663S11659709EA0150801563000000000000
B0537543222747S11659733EA0149701553000000000000
B0537583222832S11659757EA0148901546000000000000
B0538023222917S11659782EA0148101536000000000000
B0538063223002S11659805EA0147301529000000000000
B0538103223085S11659833EA0146401520000000000000
B0538143223166S11659864EA0145801514000000000000
B0538183223244S11659895EA0145201509000000000000
B0538223223319S11659928EA0144801503000000000000
B0538263223394S11659958EA0144301499000000000000
B0538303223470S11659986EA0144001498000000000000
B0538343223543S11700015EA0144001497000000000000
B0538383223615S11700041EA0143501488000000000000
B0538423223688S11700067EA0142601477000000000000
B0538463223761S11700094EA0141201462000000000000
B0538503223836S11700120EA0140001451000000000000
B0538543223913S11700145EA0139001442000000000000
B0538583223989S11700177EA0138101432000000000000
B0539023224064S11700208EA0137101422000000000000
B0539063224142S11700232EA0136201412000000000000
B0539103224221S11700249EA0135701405000000000000
B0539143224301S11700266EA0135001400000000000000
B0539183224379S11700275EA0134501395000000000000
B0539223224457S11700283EA0133901389000000000000
B0539263224533S11700297EA0132701376000000000000
B0539303224611S11700311EA0131201360000000000000
B0539343224691S11700325EA0129901346000000000000
B0539383224772S11700336EA0128801339000000000000
B0539423224856S11700354EA0127701321000000000000
B0539463224943S11700362EA0126401313000000000000
B0539503225026S11700348EA0125501301000000000000
B0539543225110S11700329EA0124301289000000000000
B0539583225196S11700307EA0123401280000000000000
B0540023225279S11700280EA0122301266000000000000
B0540063225365S11700260EA0121101256000000000000
B0540103225452S11700262EA0120401247000000000000
B0540143225533S11700275EA0120801260000000000000
B0540183225606S11700283EA0121601265000000000000
B0540223225679S11700288EA0121201255000000000000
B0540263225754S11700292EA0120401248000000000000
B0540303225831S11700289EA0119701243000000000000
B0540343225907S11700283EA0119001234000000000000
B0540383225985S11700273EA0118501231000000000000
B0540423226061S11700259EA0118801240000000000000
B0540463226128S11700242EA0119501242000000000000
B0540503226196S11700223EA0119101235000000000000
B0540543226266S11700198EA0117601220000000000000
B0540583226339S11700172EA0116601204000000000000
B0541023226414S11700147EA0114801188000000000000
B0541063226494S11700119EA0113701174000000000000
B0541103226573S11700090EA0112601165000000000000
B0541143226652S11700058EA0111801156000000000000
B0541183226732S11700024EA0110901146000000000000
B0541223226810S11659985EA0110601150000000000000
B0541263226886S11659954EA0111501160000000000000
B0541303226960S11659943EA0112101166000000000000
B0541343227033S11659935EA0112001159000000000000
B0541383227109S11659925EA0111501158000000000000
B0541423227181S11659928EA0112301171000000000000
B0541463227250S11659935EA0113201177000000000000
B0541503227319S11659943EA0113501180000000000000
B0541543227387S11659954EA0113701180000000000000
B0541583227449S11659929EA0113701183000000000000
B0542023227483S11659860EA0113701179000000000000
B0542063227476S11659776EA0113301173000000000000
B0542103227419S11659718EA0112501167000000000000
B0542143227341S11659701EA0112301168000000000000
B0542183227263S11659687EA0112601175000000000000
B0542223227190S11659657EA0113901186000000000000
B0542263227122S11659661EA0114801192000000000000
B0542303227124S11659734EA0115301201000000000000
B0542343227181S11659755EA0115701206000000000000
B0542383227228S11659704EA0116001206000000015000
B0542423227214S11659630EA0116901218000000015000
B0542463227155S11659631EA0118301234000000015000
B0542503227135S11659692EA0118801233000000015000
B0542543227168S11659748EA0118601230000000015000
B0542583227229S11659766EA0118301228000000015000
B0543023227287S11659727EA0118501231000000015000
B0543063227319S11659657EA0118701232000000015000
B0543103227309S11659571EA0119201240000000015000
B0543143227253S11659519EA0120001248000000015000
B0543183227177S11659505EA0120301249000000015000
B0543223227111S11659538EA0120901261000000015000
B0543263227097S11659609EA0121901270000000015000
B0543303227145S11659652EA0121901262000000015000
B0543343227215S11659659EA0121101255000000015000
B0543383227292S11659657EA0120901255000000000000
B0543423227345S11659607EA0121801270000000000000
B0543463227319S11659536EA0123301281000000015000
B0543503227250S11659531EA0123801286000000015000
B0543543227207S11659590EA0124401295000000015000
B0543583227222S11659664EA0125001300000000015000
B0544023227280S11659688EA0125301301000000015000
B0544063227322S11659636EA0125701309000000015000
B0544103227281S11659578EA0126101307000000015000
B0544143227220S11659610EA0126401318000000015000
B0544183227219S11659688EA0127001323000000015000
B0544223227262S11659747EA0127401326000000015000
B0544263227319S11659733EA0127801326000000015000
B0544303227330S11659657EA0127001316000000015000
B0544343227276S11659600EA0126801321000000015000
B0544383227207S11659608EA0127901333000000015000
B0544423227163S11659669EA0128501335000000015000
B0544463227161S11659751EA0128801342000000015000
B0544503227198S11659816EA0129101341000000015000
B0544543227261S11659831EA0128801337000000015000
B0544583227306S11659779EA0129001342000000015000
B0545023227311S11659698EA0128801334000000015000
B0545063227278S11659618EA0128201331000000015000
B0545103227209S11659599EA0129001347000000015000
B0545143227158S11659648EA0129701347000000015000
B0545183227161S11659726EA0129501345000000015000
B0545223227202S11659790EA0128801336000000015000
B0545263227266S11659822EA0128201332000000015000
B0545303227336S11659842EA0128401337000000015000
B0545343227408S11659852EA0129501349000000015000
B0545383227476S11659839EA0130001352000000015000
B0545423227512S11659773EA0130201350000000015000
B0545463227486S11659705EA0130001347000000015000
B0545503227424S11659677EA0129001333000000015000
B0545543227352S11659675EA0127001309000000015000
B0545583227272S11659678EA0125601300000000000000
B0546023227198S11659717EA0125301297000000000000
B0546063227172S11659798EA0124701295000000000000
B0546103227207S11659867EA0124901302000000015000
B0546143227268S11659900EA0125901310000000015000
B0546183227319S11659869EA0127401327000000015000
B0546223227275S11659808EA0128501334000000015000
B0546263227216S11659844EA0130001356000000015000
B0546303227228S11659908EA0131501370000000015000
B0546343227280S11659902EA0132701378000000015000
B0546383227288S11659833EA0133501389000000015000
B0546423227233S11659787EA0134501398000000015000
B0546463227179S11659828EA0135701414000000015000
B0546503227189S11659893EA0136801424000000015000
B0546543227242S11659898EA0137901433000000015000
B0546583227266S11659834EA0138701444000000015000
B0547023227224S11659779EA0139901453000000015000
B0547063227162S11659796EA0140701466000000015000
B0547103227149S11659863EA0141801476000000015000
B0547143227194S11659893EA0142401484000000015000
B0547183227229S11659843EA0143101488000000015000
B0547223227200S11659777EA0143601496000000015000
B0547263227137S11659787EA0144701509000000015000
B0547303227132S11659855EA0146001521000000015000
B0547343227179S11659883EA0146701526000000015000
B0547383227220S11659841EA0147101530000000015000
B0547423227211S11659768EA0147801538000000015000
B0547463227157S11659726EA0148301543000000015000
B0547503227101S11659755EA0149401556000000015000
B0547543227089S11659822EA0150201563000000015000
B0547583227125S11659872EA0150701572000000015000
B0548023227176S11659861EA0151501577000000015000
B0548063227192S11659796EA0152001579000000015000
B0548103227153S11659735EA0152101584000000015000
B0548143227089S11659738EA0152901593000000015000
B0548183227057S11659803EA0153101592000000015000
B0548223227085S11659872EA0153301596000000015000
B0548263227146S11659886EA0153701598000000015000
B0548303227189S11659831EA0154301605000000015000
B0548343227181S11659755EA0154401602000000015000
B0548383227124S11659709EA0154001599000000015000
B0548423227053S11659716EA0154101605000000015000
B0548463227010S11659772EA0154901614000000015000
B0548503227033S11659830EA0155601619000000015000
B0548543227090S11659842EA0155701618000000015000
B0548583227118S11659776EA0155701618000000015000
B0549023227068S11659721EA0156001622000000015000
B0549063227005S11659750EA0156301625000000015000
B0549103226986S11659824EA0156601628000000015000
B0549143227024S11659887EA0156701629000000015000
B0549183227088S11659915EA0156401616000000015000
B0549223227163S11659928EA0155101608000000015000
B0549263227242S11659934EA0154001589000000015000
B0549303227330S11659945EA0152001574000000000000
B0549343227419S11659960EA0151101571000000000000
B0549383227506S11659977EA0150801563000000000000
B0549423227595S11659997EA0150001557000000000000
B0549463227683S11700016EA0149301550000000000000
B0549503227772S11700037EA0148501544000000000000
B0549543227859S11700055EA0148601547000000000000
B0549583227946S11700077EA0148301543000000000000
B0550023228032S11700097EA0148001540000000000000
B0550063228116S11700117EA0147401533000000000000
B0550103228199S11700138EA0146801526000000000000
B0550143228282S11700164EA0146401522000000000000
B0550183228366S11700188EA0146101519000000000000
B0550223228448S11700212EA0145701516000000000000
B0550263228529S11700234EA0144701505000000000000
B0550303228611S11700257EA0143901496000000000000
B0550343228693S11700279EA0143401492000000000000
B0550383228773S11700303EA0143001488000000000000
B0550423228851S11700327EA0142701487000000000000
B0550463228927S11700346EA0142401482000000000000
B0550503229003S11700371EA0141601470000000000000
B0550543229078S11700398EA0140601461000000000000
B0550583229155S11700424EA0139901456000000000000
B0551023229230S11700453EA0139501450000000000000
B0551063229306S11700489EA0138701443000000000000
B0551103229378S11700530EA0138401440000000000000
B0551143229450S11700571EA0138101435000000000000
B0551183229521S11700613EA0137501428000000000000
B0551223229593S11700654EA0136901423000000000000
B0551263229664S11700697EA0136501420000000000000
B0551303229736S11700744EA0136001412000000000000
B0551343229809S11700792EA0135001402000000000000
B0551383229883S11700844EA0134101393000000000000
B0551423229959S11700896EA0133501386000000000000
B0551463230037S11700949EA0133201383000000000000
B0551503230113S11701001EA0132801379000000000000
B0551543230191S11701051EA0132201374000000000000
B0551583230269S11701099EA0132201374000000000000
B0552023230348S11701147EA0131601365000000000000
B0552063230430S11701195EA0130301350000000000000
B0552103230515S11701243EA0129401343000000000000
B0552143230598S11701290EA0129001338000000000000
B0552183230680S11701341EA0128001324000000000000
B0552223230760S11701395EA0126901317000000000000
B0552263230836S11701456EA0126101310000000000000
B0552303230911S11701516EA0125801307000000000000
B0552343230985S11701576EA0125201300000000000000
B0552383231061S11701635EA0124901299000000000000
B0552423231133S11701696EA0125201302000000000000
B0552463231202S11701755EA0125601310000000000000
B0552503231271S11701814EA0125201311000000000000
B0552543231340S11701870EA0124601309000000000000
B0552583231412S11701927EA0124001298000000015000
B0553023231483S11701987EA0122801291000000015000
B0553063231558S11702049EA0121401273000000015000
B0553103231634S11702114EA0120201258000000015000
B0553143231712S11702175EA0119301254000000015000
B0553183231789S11702230EA0120101263000000015000
B0553223231865S11702281EA0120601262000000000000
B0553263231938S11702329EA0120601262000000000000
B0553303232007S11702378EA0120601261000000000000
B0553343232071S11702430EA0121301272000000000000
B0553383232133S11702481EA0121701270000000000000
B0553423232198S11702526EA0121601271000000000000
B0553463232262S11702568EA0122601288000000000000
B0553503232322S11702607EA0124301304000000000000
B0553543232385S11702607EA0126001324000000000000
B0553583232385S11702537EA0128101340000000000000
B0554023232322S11702529EA0128801343000000000000
B0554063232305S11702597EA0129701358000000015000
B0554103232353S11702630EA0131001370000000015000
B0554143232402S11702591EA0132401382000000015000
B0554183232398S11702516EA0133201387000000015000
B0554223232340S11702486EA0134001395000000015000
B0554263232303S11702545EA0134501399000000015000
B0554303232345S11702595EA0135101405000000015000
B0554343232405S11702568EA0135801414000000015000
B0554383232416S11702490EA0136601420000000015000
B0554423232364S11702433EA0137101429000000015000
B0554463232296S11702441EA0137801439000000015000
B0554503232266S11702504EA0139101457000000015000
B0554543232292S11702563EA0140701468000000015000
B0554583232350S11702563EA0141501475000000015000
B0555023232374S11702494EA0142001476000000015000
B0555063232319S11702451EA0142401485000000015000
B0555103232268S11702495EA0143301494000000015000
B0555143232263S11702571EA0144001501000000015000
B0555183232307S11702615EA0145201516000000015000
B0555223232341S11702564EA0146301523000000015000
B0555263232297S11702513EA0146401524000000015000
B0555303232233S11702532EA0146801532000000015000
B0555343232198S11702597EA0147601545000000015000
B0555383232229S11702646EA0150101576000000015000
B0555423232271S11702607EA0152201586000000015000
B0555463232238S11702547EA0153201597000000015000
B0555503232179S11702569EA0154101608000000015000
B0555543232169S11702638EA0155801630000000015000
B0555583232218S11702668EA0157501644000000015000
B0556023232267S11702626EA0159001659000000015000
B0556063232257S11702556EA0160401674000000015000
B0556103232197S11702541EA0161701683000000015000
B0556143232158S11702602EA0162501695000000015000
B0556183232193S11702662EA0164401719000000015000
B0556223232253S11702650EA0166201731000000015000
B0556263232271S11702578EA0167901751000000015000
B0556303232229S11702528EA0169001759000000015000
B0556343232166S11702541EA0169301756000000015000
B0556383232127S11702611EA0169301766000000015000
B0556423232156S11702673EA0171201790000000015000
B0556463232208S11702643EA0172601796000000015000
B0556503232182S11702572EA0173301809000000015000
B0556543232117S11702576EA0174801822000000015000
B0556583232086S11702639EA0175901836000000015000
B0557023232114S11702702EA0176901843000000015000
B0557063232175S11702703EA0177401845000000015000
B0557103232202S11702636EA0177901854000000015000
B0557143232163S11702577EA0179101865000000015000
B0557183232102S11702582EA0179901876000000015000
B0557223232072S11702642EA0180901885000000015000
B0557263232094S11702707EA0181401885000000015000
B0557303232158S11702721EA0181101882000000015000
B0557343232199S11702663EA0181501889000000015000
B0557383232173S11702595EA0182101894000000015000
B0557423232112S11702606EA0182201892000000015000
B0557463232091S11702678EA0182201898000000030000
B0557503232117S11702750EA0182501897000000030000
B0557543232177S11702797EA0181501880000000015000
B0557583232258S11702825EA0179001856000000015000
B0558023232351S11702846EA0177401841000000015000
B0558063232452S11702864EA0175501823000000015000
B0558103232554S11702877EA0174201808000000015000
B0558143232654S11702889EA0174001812000000015000
B0558183232751S11702899EA0174201814000000000000
B0558223232842S11702910EA0174501818000000000000
B0558263232929S11702923EA0174501816000000000000
B0558303233018S11702935EA0174201814000000000000
B0558343233107S11702948EA0174101812000000000000
B0558383233194S11702962EA0173701805000000000000
B0558423233284S11702976EA0172801796000000000000
B0558463233372S11702988EA0172501796000000000000
B0558503233459S11702997EA0172701801000000000000
B0558543233545S11703007EA0173201803000000000000
B0558583233631S11703019EA0173101804000000000000
B0559023233715S11703028EA0173501805000000000000
B0559063233800S11703033EA0172201785000000000000
B0559103233888S11703039EA0170901778000000000000
B0559143233975S11703045EA0170401773000000000000
B0559183234064S11703053EA0169601766000000000000
B0559223234153S11703062EA0168901754000000000000
B0559263234244S11703070EA0167801743000000000000
B0559303234338S11703078EA0166801734000000000000
B0559343234430S11703087EA0166201727000000000000
B0559383234521S11703094EA0166001731000000000000
B0559423234608S11703101EA0166301733000000000000
B0559463234694S11703109EA0165901726000000000000
B0559503234780S11703119EA0165101717000000000000
B0559543234867S11703132EA0164101706000000000000
B0559583234953S11703148EA0163401697000000000000
B0600023235041S11703165EA0162201684000000000000
B0600063235130S11703180EA0161301678000000000000
B0600103235219S11703193EA0160601670000000000000
B0600143235309S11703208EA0160101666000000000000
B0600183235400S11703223EA0159701662000000000000
B0600223235491S11703240EA0159601664000000000000
B0600263235581S11703253EA0160001669000000000000
B0600303235672S11703269EA0160501670000000000000
B0600343235761S11703286EA0160801679000000000000
B0600383235851S11703300EA0161401682000000000000
B0600423235939S11703317EA0161001672000000000000
B0600463236030S11703330EA0160101666000000000000
B0600503236119S11703341EA0159701667000000000000
B0600543236206S11703356EA0159301655000000000000
B0600583236296S11703367EA0158301649000000000000
B0601023236383S11703383EA0158101644000000000000
B0601063236470S11703403EA0157001630000000000000
B0601103236557S11703421EA0156001623000000000000
B0601143236647S11703435EA0155401613000000000000
B0601183236736S11703447EA0154301601000000000000
B0601223236827S11703460EA0153001588000000000000
B0601263236920S11703475EA0151801577000000000000
B0601303237011S11703494EA0151001570000000000000
B0601343237100S11703512EA0150501566000000000000
B0601383237189S11703531EA0150201566000000000000
B0601423237276S11703548EA0150101562000000000000
B0601463237363S11703564EA0149801559000000000000
B0601503237450S11703578EA0149401556000000000000
B0601543237535S11703591EA0149601562000000000000
B0601583237614S11703605EA0151201582000000000000
B0602023237688S11703617EA0151701575000000000000
B0602063237766S11703626EA0150701563000000000000
B0602103237848S11703635EA0149401547000000000000
B0602143237931S11703647EA0147801533000000000000
B0602183238017S11703663EA0146501520000000000000
B0602223238105S11703681EA0145101505000000000000
B0602263238194S11703703EA0143701490000000000000
B0602303238283S11703730EA0142101471000000000000
B0602343238376S11703757EA0140401456000000000000
B0602383238465S11703789EA0139201444000000000000
B0602423238555S11703822EA0138501437000000000000
B0602463238647S11703851EA0137101422000000000000
B0602503238742S11703869EA0135901411000000000000
B0602543238836S11703880EA0135101403000000000000
B0602583238928S11703878EA0134301397000000000000
B0603023239018S11703873EA0134101392000000000000
B0603063239108S11703863EA0132901380000000000000
B0603103239196S11703856EA0131901370000000000000
B0603143239284S11703854EA0131401367000000000000
B0603183239370S11703868EA0131801372000000000000
B0603223239453S11703887EA0131201365000000000000
B0603263239533S11703903EA0130701358000000000000
B0603303239613S11703919EA0129601348000000000000
B0603343239693S11703934EA0129201347000000000000
B0603383239768S11703950EA0128901340000000000000
B0603423239843S11703960EA0127901328000000000000
B0603463239923S11703965EA0126901321000000000000
B0603503240001S11703972EA0126001309000000000000
B0603543240080S11703989EA0125101300000000000000
B0603583240157S11704020EA0124101292000000000000
B0604023240231S11704054EA0124001292000000000000
B0604063240302S11704094EA0123701285000000000000
B0604103240375S11704140EA0122801275000000000000
B0604143240454S11704172EA0122201268000000000000
B0604183240536S11704175EA0122101270000000000000
B0604223240613S11704145EA0122201269000000000000
B0604263240683S11704098EA0121901269000000000000
B0604303240749S11704050EA0122101271000000000000
B0604343240818S11704006EA0121401260000000000000
B0604383240896S11703989EA0120501250000000000000
B0604423240978S11704004EA0120001253000000000000
B0604463241048S11704047EA0121101259000000000000
B0604503241113S11704102EA0120901258000000000000
B0604543241175S11704160EA0120901257000000000000
B0604583241236S11704219EA0120501249000000000000
B0605023241294S11704285EA0119801245000000000000
B0605063241350S11704354EA0118901234000000000000
B0605103241412S11704420EA0117801223000000000000
B0605143241487S11704467EA0117101222000000000000
B0605183241562S11704508EA0117201223000000000000
B0605223241636S11704549EA0116801215000000000000
B0605263241709S11704595EA0116001202000000000000
B0605303241774S11704660EA0115501204000000000000
B0605343241836S11704729EA0115901211000000000000
B0605383241899S11704795EA0116801217000000000000
B0605423241966S11704822EA0118101235000000000000
B0605463241984S11704765EA0120401259000000000000
B0605503241931S11704734EA0121401261000000015000
B0605543241880S11704787EA0121601267000000015000
B0605583241900S11704855EA0121901268000000015000
B0606023241951S11704847EA0121901268000000015000
B0606063241964S11704783EA0121901268000000015000
B0606103241929S11704721EA0122101273000000015000
B0606143241861S11704708EA0122501279000000015000
B0606183241819S11704769EA0123201282000000015000
B0606223241856S11704830EA0123301280000000015000
B0606263241918S11704822EA0123101280000000015000
B0606303241947S11704757EA0123601287000000015000
B0606343241929S11704687EA0124101293000000015000
B0606383241864S11704670EA0125001303000000015000
B0606423241819S11704723EA0126001312000000015000
B0606463241812S11704799EA0125701305000000015000
B0606503241848S11704864EA0125201300000000015000
B0606543241909S11704868EA0125301304000000015000
B0606583241926S11704805EA0125701311000000015000
B0607023241887S11704743EA0125701306000000015000
B0607063241818S11704723EA0125901317000000015000
B0607103241767S11704774EA0127101324000000015000
B0607143241776S11704851EA0127301324000000015000
B0607183241836S11704885EA0127301324000000015000
B0607223241882S11704844EA0127801332000000015000
B0607263241844S11704787EA0128201330000000015000
B0607303241770S11704795EA0127601324000000015000
B0607343241737S11704869EA0128701343000000015000
B0607383241782S11704913EA0130201355000000015000
B0607423241823S11704874EA0130101350000000015000
B0607463241797S11704812EA0130101350000000015000
B0607503241732S11704812EA0129901352000000015000
B0607543241692S11704875EA0130501360000000015000
B0607583241689S11704959EA0130501353000000015000
B0608023241728S11705028EA0129601339000000015000
B0608063241799S11705061EA0127401316000000015000
B0608103241880S11705076EA0125601300000000015000
B0608143241966S11705080EA0124501290000000015000
B0608183242051S11705077EA0123601280000000000000
B0608223242134S11705070EA0122501270000000000000
B0608263242218S11705063EA0121401259000000000000
B0608303242300S11705052EA0120401245000000000000
B0608343242381S11705044EA0119101233000000000000
B0608383242463S11705042EA0117601219000000000000
B0608423242543S11705047EA0116801213000000000000
B0608463242621S11705059EA0116101203000000000000
B0608503242699S11705074EA0114801191000000000000
B0608543242775S11705093EA0114601192000000000000
B0608583242846S11705104EA0114501187000000000000
B0609023242917S11705098EA0113901181000000000000
B0609063242983S11705080EA0114101188000000000000
B0609103243045S11705052EA0114701194000000000000
B0609143243106S11705021EA0114801191000000000000
B0609183243169S11704979EA0114901202000000000000
B0609223243206S11704917EA0117001224000000000000
B0609263243154S11704872EA0118801240000000000000
B0609303243110S11704918EA0120001249000000000000
B0609343243132S11704978EA0120801258000000015000
B0609383243188S11704969EA0122001274000000015000
B0609423243210S11704903EA0123301283000000015000
B0609463243169S11704849EA0124401299000000015000
B0609503243117S11704877EA0125801314000000015000
B0609543243113S11704938EA0127301331000000015000
B0609583243160S11704963EA0128501339000000015000
B0610023243201S11704909EA0129001340000000015000
B0610063243173S11704840EA0129801358000000015000
B0610103243114S11704839EA0131301369000000015000
B0610143243099S11704900EA0132201382000000015000
B0610183243147S11704912EA0133201386000000015000
B0610223243169S11704840EA0133301389000000015000
B0610263243132S11704775EA0134301406000000015000
B0610303243075S11704795EA0135801417000000015000
B0610343243091S11704856EA0136701426000000015000
B0610383243139S11704830EA0137301430000000015000
B0610423243119S11704758EA0138201443000000015000
B0610463243062S11704740EA0139401450000000015000
B0610503243030S11704790EA0139001444000000015000
B0610543243057S11704848EA0139201453000000015000
B0610583243114S11704859EA0140101460000000015000
B0611023243171S11704829EA0140401461000000015000
B0611063243180S11704751EA0140601465000000015000
B0611103243126S11704710EA0141201469000000015000
B0611143243074S11704745EA0141201467000000015000
B0611183243045S11704814EA0140701465000000015000
B0611223243024S11704892EA0141201473000000015000
B0611263243061S11704946EA0141901483000000015000
B0611303243105S11704904EA0142701483000000015000
B0611343243121S11704825EA0141701475000000015000
B0611383243141S11704743EA0142101482000000015000
B0611423243128S11704661EA0143001482000000015000
B0611463243066S11704654EA0143401490000000015000
B0611503243049S11704721EA0142801479000000015000
B0611543243096S11704775EA0141401465000000015000
B0611583243170S11704788EA0141201468000000015000
B0612023243247S11704786EA0141001465000000015000
B0612063243330S11704779EA0139801451000000015000
B0612103243417S11704770EA0138101439000000015000
B0612143243505S11704764EA0137101432000000015000
B0612183243593S11704755EA0136601427000000015000
B0612223243681S11704748EA0135101411000000015000
B0612263243771S11704739EA0134001399000000015000
B0612303243858S11704732EA0133401394000000015000
B0612343243944S11704723EA0133701397000000015000
B0612383244029S11704716EA0133101387000000015000
B0612423244116S11704706EA0132801385000000015000
B0612463244201S11704703EA0132101380000000015000
B0612503244288S11704699EA0131001376000000015000
B0612543244373S11704696EA0130101368000000015000
B0612583244460S11704696EA0129101362000000015000
B0613023244544S11704699EA0128201351000000015000
B0613063244630S11704703EA0127301343000000015000
B0613103244717S11704706EA0126601337000000015000
B0613143244802S11704708EA0126101332000000015000
B0613183244886S11704709EA0125601329000000015000
B0613223244965S11704730EA0126401338000000015000
B0613263245032S11704771EA0127301345000000015000
B0613303245094S11704812EA0128201350000000015000
B0613343245153S11704856EA0128501348000000015000
B0613383245210S11704907EA0128201342000000015000
B0613423245260S11704965EA0127901339000000015000
B0613463245292S11705037EA0128401346000000000000
B0613503245306S11705111EA0128401342000000000000
B0613543245325S11705185EA0127701334000000000000
B0613583245359S11705255EA0127201330000000000000
B0614023245406S11705316EA0127201336000000000000
B0614063245453S11705379EA0128001344000000000000
B0614103245498S11705445EA0128901354000000000000
B0614143245557S11705471EA0131301382000000000000
B0614183245574S11705408EA0133501399000000015000
B0614223245518S11705385EA0134101400000000015000
B0614263245480S11705442EA0134601411000000015000
B0614303245509S11705496EA0136201429000000015000
B0614343245558S11705473EA0137901442000000030000
B0614383245550S11705406EA0139001454000000030000
B0614423245494S11705392EA0139801459000000030000
B0614463245461S11705451EA0140101464000000030000
B0614503245493S11705507EA0141101480000000030000
B0614543245544S11705480EA0142901500000000030000
B0614583245530S11705415EA0144801516000000030000
B0615023245472S11705412EA0145901524000000030000
B0615063245446S11705471EA0146901541000000030000
B0615103245471S11705525EA0148101545000000030000
B0615143245526S11705536EA0148501552000000030000
B0615183245561S11705483EA0149501564000000030000
B0615223245530S11705423EA0151301584000000030000
B0615263245478S11705444EA0152701595000000030000
B0615303245484S11705510EA0153401603000000030000
B0615343245539S11705524EA0154501613000000030000
B0615383245572S11705466EA0155701631000000030000
B0615423245544S11705403EA0157701650000000030000
B0615463245487S11705411EA0159101664000000030000
B0615503245476S11705473EA0159801669000000030000
B0615543245523S11705506EA0160901682000000030000
B0615583245571S11705468EA0162101693000000030000
B0616023245561S11705397EA0163301711000000030000
B0616063245505S11705373EA0165001724000000030000
B0616103245462S11705420EA0166001731000000030000
B0616143245476S11705486EA0166701744000000030000
B0616183245531S11705503EA0167901752000000030000
B0616223245566S11705446EA0168801761000000030000
B0616263245531S11705390EA0170301778000000030000
B0616303245480S11705420EA0171201786000000030000
B0616343245494S11705486EA0171901793000000030000
B0616383245554S11705493EA0172901807000000030000
B0616423245589S11705434EA0174201817000000030000
B0616463245567S11705367EA0174901829000000030000
B0616503245510S11705349EA0176201843000000030000
B0616543245470S11705394EA0177301850000000030000
B0616583245484S11705459EA0177901858000000030000
B0617023245536S11705473EA0179001869000000030000
B0617063245574S11705418EA0179601873000000030000
B0617103245548S11705349EA0180101878000000030000
B0617143245488S11705349EA0181301896000000030000
B0617183245478S11705408EA0182301900000000030000
B0617223245528S11705441EA0182601901000000030000
B0617263245576S11705392EA0182901907000000030000
B0617303245561S11705316EA0183901918000000030000
B0617343245498S11705295EA0184601930000000030000
B0617383245454S11705343EA0185601936000000030000
B0617423245470S11705406EA0186501948000000030000
B0617463245526S11705423EA0187501953000000030000
B0617503245570S11705371EA0187601953000000030000
B0617543245550S11705298EA0188101963000000030000
B0617583245491S11705273EA0189201974000000030000
B0618023245444S11705312EA0190101982000000030000
B0618063245444S11705376EA0190701988000000030000
B0618103245484S11705418EA0191101992000000030000
B0618143245543S11705399EA0191401989000000030000
B0618183245550S11705319EA0190701981000000030000
B0618223245491S11705269EA0191001996000000030000
B0618263245429S11705295EA0192402010000000030000
B0618303245416S11705362EA0193302014000000030000
B0618343245466S11705406EA0192502000000000030000
B0618383245544S11705407EA0191501995000000030000
B0618423245630S11705395EA0190401981000000015000
B0618463245722S11705376EA0189101966000000015000
B0618503245818S11705351EA0187601949000000015000
B0618543245916S11705328EA0185501930000000015000
B0618583246016S11705304EA0183901915000000000000
B0619023246118S11705286EA0183301910000000000000
B0619063246217S11705268EA0183101910000000000000
B0619103246316S11705251EA0183101910000000000000
B0619143246411S11705238EA0183301912000000000000
B0619183246503S11705225EA0183201912000000000000
B0619223246592S11705213EA0183101911000000000000
B0619263246679S11705206EA0183301913000000000000
B0619303246763S11705202EA0183201910000000000000
B0619343246849S11705198EA0182201900000000000000
B0619383246935S11705198EA0181801898000000000000
B0619423247018S11705197EA0182001899000000000000
B0619463247100S11705194EA0181401887000000000000
B0619503247182S11705187EA0180601880000000000000
B0619543247265S11705180EA0179701871000000000000
B0619583247350S11705173EA0179201865000000000000
B0620023247434S11705167EA0178701860000000000000
B0620063247520S11705158EA0178101854000000000000
B0620103247604S11705146EA0177801850000000000000
B0620143247688S11705138EA0177401845000000000000
B0620183247771S11705129EA0176801842000000000000
B0620223247851S11705121EA0176201831000000000000
B0620263247931S11705109EA0175801822000000000000
B0620303248009S11705094EA0175501822000000000000
B0620343248084S11705086EA0175001818000000000000
B0620383248161S11705081EA0174201811000000000000
B0620423248241S11705078EA0173401803000000000000
B0620463248323S11705080EA0173001799000000000000
B0620503248405S11705080EA0172301789000000000000
B0620543248491S11705080EA0171201776000000000000
B0620583248578S11705080EA0170201769000000000000
B0621023248665S11705077EA0169501762000000000000
B0621063248752S11705073EA0169001758000000000000
B0621103248839S11705070EA0168201748000000000000
B0621143248925S11705067EA0167601741000000000000
B0621183249008S11705059EA0167201737000000000000
B0621223249092S11705052EA0166901734000000000000
B0621263249176S11705046EA0166401726000000000000
B0621303249263S11705037EA0166201733000000000000
B0621343249349S11705034EA0167201744000000000000
B0621383249431S11705034EA0167801745000000000000
B0621423249514S11705035EA0167901753000000000000
B0621463249592S11705038EA0169201763000000000000
B0621503249673S11705039EA0169001757000000000000
B0621543249753S11705038EA0169201762000000000000
B0621583249833S11705034EA0168601753000000000000
B0622023249918S11705028EA0167501742000000000000
B0622063250005S11705020EA0166801729000000000000
B0622103250095S11705015EA0165501716000000000000
B0622143250187S11705009EA0164501707000000000000
B0622183250278S11705005EA0163701699000000000000
B0622223250371S11705002EA0162501683000000000000
B0622263250464S11704999EA0161101670000000000000
B0622303250557S11704996EA0160001659000000000000
B0622343250649S11704991EA0159001650000000000000
B0622383250741S11704985EA0158201643000000000000
B0622423250832S11704981EA0157401633000000000000
B0622463250922S11704979EA0156601624000000000000
B0622503251013S11704977EA0155401610000000000000
B0622543251101S11704972EA0154501602000000000000
B0622583251188S11704966EA0154101601000000000000
B0623023251273S11704959EA0153701594000000000000
