ACAM4N6
HFDTE280614
HFFXA050
HFPLTPILOT:JOHN WELSH              
HFGTYGLIDERTYPE:HORNET      
HFGIDGLIDERID:VH-GMY      
HFDTM100GPSDATUM:
HFRFWFIRMWAREVERSION:F2.6
HFRHWHARDWAREVERSION:300 Series Version 2
HFFTYFRTYPE:CAMBRIDGE AERO INSTRUMENTS, 302+
HFGPS:GARMIN,LVS-25,12,18000
HFPRSPRESSALTSENSOR:INTERSEMA, MS5534-AP, 20000
I033638FXA3941ENL4247REX
LCAMSBVER:5FWVER:F26300
C150314043206150314000103
C0000000N00000000WTAKEOFF     
C3207547S11656879EBeverley Air
C3137397S11712959ECunderdin Ai
C3256165S11710679ENarrogin Sil
C3255535S11704919ENarrogin Aer
C3207547S11656879EBeverley Air
C0000000N00000000WLANDING     
B0426483207339S11656856EA0007900204000004000000
B0426503207339S11656856EA0007900204000004000000
B0426523207339S11656856EA0007800204000004000000
B0426543207339S11656856EA0007800204000004000000
B0426563207339S11656856EA0007900204000004000000
B0426583207339S11656856EA0008000204000004000000
B0427003207339S11656856EA0007900204000004000000
B0427023207339S11656856EA0007900204000004000000
B0427043207339S11656856EA0007900204000004000000
B0427063207339S11656856EA0007800204000004000000
B0427083207339S11656856EA0008000204000004000000
B0427103207339S11656856EA0007900204000004000000
B0427123207339S11656856EA0007800204000004000000
B0427143207339S11656856EA0007800204000004000000
B0427163207339S11656857EA0007900204000004000000
B0427213207354S11656873EA0007900205000004000000
B0427253207384S11656896EA0007500204000004000000
B0427293207430S11656926EA0007500205000004000000
B0427333207489S11656961EA0007600206000004000000
B0427373207550S11657005EA0008000212000004000000
B0427413207606S11657052EA0009400237000004000000
B0427453207659S11657099EA0011700262000004000000
B0427493207707S11657148EA0014300284000004000000
B0427533207755S11657195EA0016300305000004000000
B0427573207805S11657237EA0018500326000004000000
B0428013207856S11657281EA0020300343000004000000
B0428053207908S11657326EA0021700353000004000000
B0428093207961S11657372EA0022800368000004000000
B0428133208014S11657416EA0024500385000004000000
B0428173208065S11657462EA0026200403000004000000
B0428213208105S11657520EA0027800418000004000000
B0428253208122S11657594EA0029300437000004000000
B0428293208106S11657673EA0031200453000004000000
B0428333208066S11657741EA0033100472000004000000
B0428373208008S11657793EA0035000488000004000000
B0428403207940S11657833EA0036600507000004000000
B0428443207870S11657875EA0038300523000004000000
B0428483207805S11657922EA0040400548000004000000
B0428523207744S11657967EA0043200573000004000000
B0428563207690S11658022EA0045200592000004000000
B0429003207659S11658092EA0047300608000004000000
B0429043207650S11658170EA0049000625000004000000
B0429083207658S11658247EA0051000645000004000000
B0429123207687S11658318EA0053200669000004000000
B0429163207731S11658377EA0055900694000004000000
B0429203207788S11658424EA0058900721000004000000
B0429243207848S11658464EA0060900740000004000000
B0429283207909S11658500EA0062500757000004000000
B0429323207971S11658538EA0064000775000004000000
B0429363208032S11658570EA0066100794000004000000
B0429403208095S11658596EA0067900809000004000000
B0429443208160S11658593EA0067700802000004000000
B0429483208208S11658541EA0067700805000004000000
B0429523208222S11658465EA0068000805000004000000
B0429563208204S11658388EA0067300798000004000000
B0430003208157S11658334EA0066600791000004000000
B0430043208097S11658301EA0065800784000004000000
B0430083208041S11658274EA0065900784000004000000
B0430123207986S11658247EA0064900770000004000000
B0430163207927S11658216EA0063800760000004000000
B0430203207866S11658184EA0063200754000004000000
B0430243207804S11658152EA0062500749000004000000
B0430283207742S11658127EA0063200756000004000000
B0430323207684S11658138EA0064100764000004000000
B0430363207667S11658190EA0065500778000004000000
B0430403207705S11658213EA0066300789000004000000
B0430443207749S11658175EA0067000795000004000000
B0430483207761S11658102EA0067200798000004000000
B0430523207726S11658035EA0067500807000004000000
B0430563207666S11658018EA0068600818000004000000
B0431003207619S11658048EA0069700826000004000000
B0431043207603S11658106EA0070100827000004000000
B0431083207635S11658152EA0070600834000004000000
B0431123207685S11658147EA0071600844000004000000
B0431163207716S11658086EA0072400850000004000000
B0431203207703S11658017EA0073700863000004000000
B0431243207657S11657980EA0074900874000004000000
B0431283207609S11657996EA0075300878000004000000
B0431323207592S11658044EA0076100888000004000000
B0431363207619S11658080EA0076900891000004000000
B0431403207667S11658071EA0077000895000004000000
B0431443207693S11658015EA0077600902000004000000
B0431483207676S11657950EA0078200906000004000000
B0431523207627S11657915EA0078700913000004000000
B0431563207577S11657930EA0079500920000004000000
B0432003207557S11657976EA0080200924000004000000
B0432043207579S11658023EA0080300929000004000000
B0432083207625S11658032EA0080800934000004000000
B0432123207670S11657996EA0081200939000004000000
B0432163207690S11657931EA0081800944000004000000
B0432203207672S11657863EA0082400948000004000000
B0432243207619S11657829EA0082500950000004000000
B0432283207567S11657853EA0083100960000004000000
B0432323207550S11657907EA0084200967000004000000
B0432363207570S11657958EA0084600971000004000000
B0432403207619S11657978EA0084800974000004000000
B0432443207676S11657961EA0085000975000004000000
B0432483207720S11657907EA0085300976000004000000
B0432523207735S11657832EA0084500968000004000000
B0432563207727S11657748EA0083500962000004000000
B0433003207707S11657664EA0083500961000004000000
B0433043207683S11657581EA0083400963000004000000
B0433083207654S11657499EA0083700965000004000000
B0433123207628S11657417EA0083400960000004000000
B0433163207607S11657325EA0082400951000004000000
B0433203207585S11657229EA0081700946000004000000
B0433243207564S11657131EA0081900950000004000000
B0433283207545S11657038EA0083000964000004000000
B0433323207527S11656952EA0084400976000004000000
B0433363207479S11656906EA0086601001000004000000
B0433403207438S11656936EA0088301006000004000000
B0433443207449S11656990EA0088301007000004000000
B0433483207495S11657007EA0088901013000004000000
B0433523207538S11656969EA0089101014000004000000
B0433563207557S11656900EA0089101015000004000000
B0434003207542S11656827EA0090001027000004000000
B0434043207497S11656788EA0091501038000004000000
B0434083207443S11656797EA0091401036000004000000
B0434123207421S11656845EA0091601041000004000000
B0434163207446S11656888EA0092101046000004000000
B0434203207494S11656886EA0092901051000004000000
B0434243207521S11656827EA0093501057000004000000
B0434283207497S11656762EA0094201065000004000000
B0434323207441S11656748EA0094801067000004000000
B0434363207402S11656788EA0095101070000004000000
B0434403207407S11656843EA0095701075000004000000
B0434443207450S11656865EA0096201080000004000000
B0434483207495S11656834EA0096701085000004000000
B0434523207510S11656766EA0097101091000004000000
B0434563207481S11656702EA0097401095000004000000
B0435003207425S11656685EA0097901099000004000000
B0435043207388S11656723EA0098401102000004000000
B0435083207394S11656776EA0098901106000004000000
B0435123207436S11656799EA0099301110000004000000
B0435163207480S11656767EA0099601116000004000000
B0435203207493S11656702EA0100101118000004000000
B0435243207466S11656639EA0100301122000004000000
B0435283207411S11656619EA0100701125000004000000
B0435323207367S11656650EA0100801123000004000000
B0435363207367S11656709EA0100601125000004000000
B0435403207408S11656734EA0101701135000004000000
B0435443207446S11656695EA0102001135000004000000
B0435483207434S11656624EA0101301130000004000000
B0435523207378S11656574EA0101301130000004000000
B0435563207306S11656562EA0100801127000004000000
B0436003207230S11656576EA0100801126000004000000
B0436043207156S11656602EA0100401113000004000000
B0436083207078S11656637EA0098201094000004000000
B0436123207004S11656679EA0097401090000004000000
B0436163206934S11656721EA0097201088000004000000
B0436203206864S11656762EA0096801082000004000000
B0436243206796S11656804EA0096701084000004000000
B0436283206734S11656844EA0097301086000004000000
B0436323206675S11656883EA0097201085000004000000
B0436363206619S11656925EA0097101079000004000000
B0436403206567S11656968EA0096101074000004000000
B0436443206519S11657013EA0096101073000004000000
B0436483206471S11657061EA0095901073000004000000
B0436523206420S11657104EA0096301077000004000000
B0436563206366S11657135EA0096801083000004000000
B0437003206309S11657151EA0097401085000004000000
B0437043206247S11657160EA0096701079000004000000
B0437083206184S11657164EA0095801069000004000000
B0437123206117S11657161EA0095401065000004000000
B0437163206049S11657153EA0095201063000004000000
B0437203205978S11657146EA0095101059000004000000
B0437243205908S11657139EA0094301053000004000000
B0437283205838S11657133EA0094301052000004000000
B0437323205769S11657118EA0094301054000004000000
B0437363205703S11657091EA0094501058000004000000
B0437403205639S11657053EA0095401066000004000000
B0437443205581S11657008EA0095201062000004000000
B0437483205521S11656957EA0094601052000004000000
B0437523205462S11656899EA0093501042000004000000
B0437563205401S11656836EA0092201031000004000000
B0438003205339S11656771EA0091501029000004000000
B0438043205279S11656708EA0091701031000004000000
B0438083205222S11656645EA0091901033000004000000
B0438123205168S11656584EA0092701043000004000000
B0438163205116S11656523EA0093101046000004000000
B0438203205063S11656461EA0093301049000004000000
B0438243205012S11656399EA0093401047000004000000
B0438283204957S11656341EA0092701036000004000000
B0438323204890S11656293EA0091401027000004000000
B0438363204821S11656254EA0091001023000004000000
B0438403204751S11656223EA0090701019000004000000
B0438443204681S11656199EA0090201014000004000000
B0438483204612S11656180EA0089301005000004000000
B0438523204539S11656171EA0088700994000004000000
B0438563204465S11656173EA0087400986000004000000
B0439003204394S11656184EA0087100982000004000000
B0439043204321S11656198EA0086600976000004000000
B0439083204249S11656216EA0085900971000004000000
B0439123204178S11656236EA0085600968000004000000
B0439163204105S11656251EA0085300965000004000000
B0439203204031S11656263EA0085500967000004000000
B0439243203961S11656277EA0086200970000004000000
B0439283203902S11656318EA0086400976000004000000
B0439323203875S11656380EA0087900996000004000000
B0439363203904S11656422EA0090001014000004000000
B0439403203954S11656415EA0090001010000004000000
B0439443203988S11656357EA0090001016000004000000
B0439483203972S11656290EA0090401021000004000000
B0439523203922S11656260EA0090301021000004000000
B0439563203872S11656289EA0090701024000004000000
B0440003203866S11656350EA0091101025000004000000
B0440043203902S11656399EA0090801024000004000000
B0440083203962S11656407EA0091001027000004000000
B0440123204008S11656360EA0091201029000004000000
B0440163204013S11656282EA0090801024000004000000
B0440203203992S11656202EA0090301022000004000000
B0440243203958S11656123EA0089801016000004000000
B0440283203920S11656042EA0090301022000004000000
B0440323203917S11655956EA0090901022000004000000
B0440363203919S11655869EA0090401019000004000000
B0440403203900S11655783EA0090401021000004000000
B0440443203857S11655710EA0090001020000004000000
B0440483203801S11655648EA0089701015000004000000
B0440523203742S11655588EA0089601016000004000000
B0440563203685S11655528EA0089601012000004000000
B0441003203627S11655469EA0089001006000004000000
B0441043203564S11655411EA0088200995000004000000
B0441083203491S11655374EA0087600994000004000000
B0441123203416S11655358EA0088901009000004000000
B0441163203364S11655391EA0091401035000004000000
B0441203203359S11655449EA0092601040000004000000
B0441243203397S11655495EA0091901031000004000000
B0441283203452S11655488EA0091401032000004000000
B0441323203494S11655437EA0091701037000004000000
B0441363203506S11655363EA0091801038000004000000
B0441403203490S11655291EA0092401046000004000000
B0441443203447S11655236EA0092701050000004000000
B0441483203391S11655207EA0093501055000004000000
B0441523203335S11655209EA0093801058000004000000
B0441563203283S11655237EA0094301059000004000000
B0442003203252S11655293EA0094001059000004000000
B0442043203254S11655357EA0093701053000004000000
B0442083203287S11655408EA0092701044000004000000
B0442123203342S11655437EA0090901025000004000000
B0442163203412S11655445EA0088601004000004000000
B0442203203488S11655447EA0087901000000004000000
B0442243203564S11655447EA0088001004000004000000
B0442283203642S11655439EA0088301007000004000000
B0442323203722S11655423EA0087800998000004000000
B0442363203801S11655406EA0088000999000004000000
B0442403203876S11655389EA0088200999000004000000
B0442443203953S11655374EA0087800995000004000000
B0442483204028S11655358EA0087500994000004000000
B0442523204102S11655345EA0087400990000004000000
B0442563204174S11655327EA0087500987000004000000
B0443003204234S11655278EA0087400986000004000000
B0443043204266S11655201EA0087300986000004000000
B0443083204264S11655114EA0086800978000004000000
B0443123204221S11655034EA0085300971000004000000
B0443163204158S11654982EA0085200969000004000000
B0443203204088S11654956EA0084800966000004000000
B0443243204015S11654950EA0084600962000004000000
B0443283203944S11654969EA0084700960000004000000
B0443323203880S11655014EA0083900950000004000000
B0443363203829S11655075EA0082900945000004000000
B0443403203793S11655145EA0082800943000004000000
B0443443203767S11655218EA0082500944000004000000
B0443483203746S11655292EA0082200938000004000000
B0443523203732S11655371EA0081200927000004000000
B0443563203722S11655454EA0081000926000004000000
B0444003203720S11655536EA0081200929000004000000
B0444043203737S11655614EA0081900938000004000000
B0444083203754S11655684EA0083400958000004000000
B0444123203789S11655729EA0086000979000004000000
B0444163203835S11655701EA0087400989000004000000
B0444203203828S11655631EA0087900994000004000000
B0444243203777S11655610EA0088901006000004000000
B0444283203746S11655653EA0089901014000004000000
B0444323203767S11655700EA0091001024000004000000
B0444363203815S11655684EA0091601030000004000000
B0444403203828S11655616EA0092101036000004000000
B0444443203793S11655561EA0093201047000004000000
B0444483203742S11655556EA0093901053000004000000
B0444523203706S11655597EA0094201055000004000000
B0444563203712S11655652EA0094801064000004000000
B0445003203759S11655673EA0095601070000004000000
B0445043203807S11655635EA0095701074000004000000
B0445083203820S11655565EA0097101089000004000000
B0445123203789S11655510EA0098201098000004000000
B0445163203737S11655506EA0098601101000004000000
B0445203203703S11655551EA0099101106000004000000
B0445243203719S11655600EA0099801112000004000000
B0445283203770S11655606EA0099801111000004000000
B0445323203809S11655553EA0100001117000004000000
B0445363203801S11655480EA0101201132000004000000
B0445403203755S11655440EA0102301141000004000000
B0445443203707S11655460EA0102901144000004000000
B0445483203703S11655515EA0103001148000004000000
B0445523203746S11655544EA0103701154000004000000
B0445563203794S11655512EA0104001156000004000000
B0446003203809S11655437EA0104701165000004000000
B0446043203775S11655380EA0105701175000004000000
B0446083203723S11655380EA0106101177000004000000
B0446123203698S11655427EA0106201177000004000000
B0446163203724S11655473EA0106701184000004000000
B0446203203776S11655466EA0107501188000004000000
B0446243203807S11655408EA0107601193000004000000
B0446283203794S11655335EA0108301201000004000000
B0446323203748S11655297EA0108801205000004000000
B0446363203699S11655314EA0108501200000004000000
B0446403203683S11655372EA0108101193000004000000
B0446443203685S11655443EA0107501189000004000000
B0446483203712S11655502EA0107601192000004000000
B0446523203767S11655522EA0108201197000004000000
B0446563203822S11655489EA0108301197000004000000
B0447003203852S11655417EA0107601194000004000000
B0447043203842S11655332EA0108101203000004000000
B0447083203802S11655272EA0109501216000004000000
B0447123203748S11655274EA0110301221000004000000
B0447163203723S11655324EA0110601222000004000000
B0447203203741S11655374EA0110601221000004000000
B0447243203793S11655391EA0110001215000004000000
B0447283203849S11655357EA0109801212000004000000
B0447323203881S11655285EA0109601216000004000000
B0447363203879S11655206EA0110201220000004000000
B0447403203842S11655141EA0109801215000004000000
B0447443203784S11655099EA0109301211000004000000
B0447483203720S11655071EA0108601204000004000000
B0447523203654S11655058EA0108501202000004000000
B0447563203588S11655050EA0108501203000004000000
B0448003203521S11655047EA0108801205000004000000
B0448043203456S11655051EA0108601196000004000000
B0448083203390S11655063EA0108401195000004000000
B0448123203339S11655101EA0108901201000004000000
B0448163203319S11655159EA0109001198000004000000
B0448203203282S11655220EA0107801188000004000000
B0448243203226S11655271EA0106201169000004000000
B0448283203152S11655306EA0104401157000004000000
B0448323203070S11655323EA0103701152000004000000
B0448363202988S11655330EA0103501151000004000000
B0448403202906S11655331EA0103501150000004000000
B0448443202826S11655331EA0103001138000004000000
B0448483202741S11655327EA0101501127000004000000
B0448523202659S11655326EA0101201125000004000000
B0448563202578S11655323EA0100501116000004000000
B0449003202496S11655322EA0100001115000004000000
B0449043202418S11655320EA0100201118000004000000
B0449083202345S11655320EA0100501119000004000000
B0449123202272S11655322EA0099801111000004000000
B0449163202197S11655327EA0099401104000004000000
B0449203202121S11655332EA0098901102000004000000
B0449243202047S11655340EA0098501099000004000000
B0449283201974S11655350EA0098301091000004000000
B0449323201900S11655359EA0096901082000004000000
B0449363201824S11655357EA0096701080000004000000
B0449403201749S11655348EA0096901080000004000000
B0449443201679S11655358EA0096301076000004000000
B0449483201614S11655385EA0095901070000004000000
B0449523201545S11655401EA0095501069000004000000
B0449563201478S11655417EA0095401064000004000000
B0450003201411S11655443EA0094901059000004000000
B0450043201350S11655478EA0094101050000004000000
B0450083201287S11655512EA0093101041000004000000
B0450123201219S11655540EA0092001032000004000000
B0450163201148S11655562EA0091101023000004000000
B0450203201073S11655580EA0090801020000004000000
B0450243201002S11655593EA0090301015000004000000
B0450283200930S11655603EA0089901009000004000000
B0450323200859S11655609EA0089401001000004000000
B0450363200786S11655614EA0088200992000004000000
B0450403200711S11655623EA0087300983000004000000
B0450443200637S11655639EA0086300975000004000000
B0450483200564S11655656EA0085800973000004000000
B0450523200494S11655671EA0085900971000004000000
B0450563200426S11655687EA0085700965000004000000
B0451003200357S11655703EA0084400955000004000000
B0451043200284S11655716EA0083100941000004000000
B0451083200213S11655727EA0082100931000004000000
B0451123200141S11655736EA0081100921000004000000
B0451163200070S11655744EA0080700919000004000000
B0451203200000S11655757EA0080900921000004000000
B0451243159946S11655795EA0081400927000004000000
B0451283159906S11655848EA0081200925000004000000
B0451323159866S11655903EA0081100923000004000000
B0451363159823S11655957EA0080800919000004000000
B0451403159781S11656011EA0081500932000004000000
B0451443159757S11656069EA0083200946000004000000
B0451483159786S11656115EA0085100967000004000000
B0451523159833S11656093EA0086600979000004000000
B0451563159840S11656024EA0086700982000004000000
B0452003159796S11655980EA0088000998000004000000
B0452043159750S11655989EA0088901002000004000000
B0452083159733S11656038EA0089101005000004000000
B0452123159759S11656080EA0090001016000004000000
B0452163159807S11656078EA0090201012000004000000
B0452203159846S11656024EA0090001013000004000000
B0452243159835S11655950EA0091001027000004000000
B0452283159785S11655917EA0092301040000004000000
B0452323159745S11655943EA0093201044000004000000
B0452363159753S11655995EA0093501047000004000000
B0452403159802S11656003EA0094701060000004000000
B0452443159837S11655951EA0094901061000004000000
B0452483159816S11655881EA0095501072000004000000
B0452523159763S11655863EA0096701086000004000000
B0452563159732S11655903EA0097701088000004000000
B0453003159759S11655947EA0097701090000004000000
B0453043159812S11655930EA0098101093000004000000
B0453083159825S11655859EA0098501101000004000000
B0453123159788S11655804EA0099501109000004000000
B0453163159736S11655807EA0100101114000004000000
B0453203159720S11655857EA0100701119000004000000
B0453243159755S11655892EA0101501125000004000000
B0453283159805S11655872EA0102001131000004000000
B0453323159818S11655807EA0102301136000004000000
B0453363159785S11655751EA0102901141000004000000
B0453403159733S11655749EA0102901141000004000000
B0453443159710S11655799EA0103301145000004000000
B0453483159736S11655847EA0104201152000004000000
B0453523159786S11655851EA0104701158000004000000
B0453563159819S11655795EA0104401153000004000000
B0454003159805S11655718EA0103601147000004000000
B0454043159757S11655652EA0103001144000004000000
B0454083159698S11655599EA0103301152000004000000
B0454123159637S11655554EA0103801151000004000000
B0454163159569S11655518EA0103401143000004000000
B0454203159494S11655491EA0102601136000004000000
B0454243159413S11655475EA0101801129000004000000
B0454283159333S11655474EA0101301121000004000000
B0454323159252S11655483EA0100001106000004000000
B0454363159172S11655505EA0098901096000004000000
B0454403159097S11655534EA0098301092000004000000
B0454443159027S11655569EA0098101090000004000000
B0454483158958S11655605EA0097801082000004000000
B0454523158889S11655644EA0096701074000004000000
B0454563158822S11655686EA0096301070000004000000
B0455003158757S11655729EA0095701063000004000000
B0455043158693S11655775EA0095201060000004000000
B0455083158627S11655821EA0094601055000004000000
B0455123158561S11655866EA0094101051000004000000
B0455163158497S11655912EA0093901049000004000000
B0455203158433S11655956EA0093401039000004000000
B0455243158373S11656002EA0092901042000004000000
B0455283158320S11656046EA0093001037000004000000
B0455323158263S11656094EA0092201033000004000000
B0455363158207S11656142EA0092301034000004000000
B0455403158158S11656193EA0093201050000004000000
B0455443158115S11656237EA0094401058000004000000
B0455483158072S11656280EA0095301064000004000000
B0455523158031S11656325EA0095901068000004000000
B0455563158004S11656385EA0095801066000004000000
B0456003157996S11656457EA0095501066000004000000
B0456043157994S11656528EA0095801071000004000000
B0456083158000S11656597EA0096301074000004000000
B0456123158004S11656663EA0095901071000004000000
B0456163158005S11656730EA0095301062000004000000
B0456203158005S11656799EA0094101051000004000000
B0456243158002S11656870EA0093001043000004000000
B0456283157998S11656939EA0092901045000004000000
B0456323157996S11657007EA0093201047000004000000
B0456363157999S11657074EA0093601052000004000000
B0456403158011S11657138EA0093801052000004000000
B0456443158017S11657205EA0093801052000004000000
B0456483158050S11657254EA0095801076000004000000
B0456523158096S11657225EA0096701082000004000000
B0456563158102S11657151EA0096101077000004000000
B0457003158059S11657085EA0096301081000004000000
B0457043158002S11657078EA0096801084000004000000
B0457083157961S11657124EA0096701082000004000000
B0457123157969S11657185EA0098101101000004000000
B0457163158020S11657190EA0100001115000004000000
B0457203158044S11657127EA0100101112000004000000
B0457243158012S11657066EA0100201117000004000000
B0457283157960S11657069EA0100501119000004000000
B0457323157933S11657117EA0101201128000004000000
B0457363157956S11657161EA0102001134000004000000
B0457403158009S11657143EA0102001134000004000000
B0457443158024S11657069EA0102101137000004000000
B0457483157986S11657020EA0103001147000004000000
B0457523157938S11657034EA0103301149000004000000
B0457563157935S11657086EA0104101154000004000000
B0458003157982S11657105EA0104201154000004000000
B0458043158030S11657064EA0104501158000004000000
B0458083158035S11656990EA0104701161000004000000
B0458123157995S11656944EA0104701160000004000000
B0458163157940S11656957EA0103301142000004000000
B0458203157883S11657000EA0102401137000004000000
B0458243157829S11657046EA0102601143000004000000
B0458283157773S11657091EA0102801138000004000000
B0458323157714S11657140EA0101801126000004000000
B0458363157653S11657196EA0100601116000004000000
B0458403157592S11657251EA0100201108000004000000
B0458443157530S11657308EA0099001100000004000000
B0458483157469S11657360EA0099301104000004000000
B0458523157413S11657408EA0100001111000004000000
B0458563157358S11657455EA0100401117000004000000
B0459003157307S11657501EA0101801134000004000000
B0459043157263S11657543EA0103101138000004000000
B0459083157254S11657605EA0102901136000004000000
B0459123157297S11657629EA0102101126000004000000
B0459163157332S11657579EA0100801117000004000000
B0459203157314S11657504EA0100401117000004000000
B0459243157261S11657460EA0101201127000004000000
B0459283157202S11657471EA0101601129000004000000
B0459323157151S11657512EA0100401113000004000000
B0459363157105S11657567EA0098801099000004000000
B0459403157056S11657621EA0098201092000004000000
B0459443157006S11657672EA0097301080000004000000
B0459483156949S11657722EA0096101069000004000000
B0459523156890S11657772EA0095001057000004000000
B0459563156835S11657828EA0094301055000004000000
B0500003156781S11657884EA0094001050000004000000
B0500043156726S11657937EA0093601045000004000000
B0500083156670S11657991EA0093201044000004000000
B0500123156640S11658056EA0094201053000004000000
B0500163156660S11658114EA0094901057000004000000
B0500203156720S11658115EA0094301046000004000000
B0500243156777S11658058EA0092301031000004000000
B0500283156828S11657984EA0091301025000004000000
B0500323156877S11657909EA0090801021000004000000
B0500363156928S11657832EA0090201014000004000000
B0500403156980S11657757EA0089301005000004000000
B0500443157033S11657681EA0088500998000004000000
B0500483157085S11657607EA0087800990000004000000
B0500523157141S11657533EA0086800981000004000000
B0500563157197S11657462EA0086200973000004000000
B0501003157253S11657391EA0085300966000004000000
B0501043157305S11657321EA0085400970000004000000
B0501083157354S11657250EA0085900975000004000000
B0501123157384S11657177EA0087900994000004000000
B0501163157359S11657108EA0089301005000004000000
B0501203157301S11657091EA0089701009000004000000
B0501243157262S11657133EA0090601016000004000000
B0501283157270S11657185EA0090801018000004000000
B0501323157318S11657200EA0090901018000004000000
B0501363157358S11657164EA0091301026000004000000
B0501403157353S11657099EA0091401021000004000000
B0501443157301S11657049EA0090701018000004000000
B0501483157240S11657046EA0091201025000004000000
B0501523157210S11657094EA0091701028000004000000
B0501563157233S11657143EA0091501027000004000000
B0502003157285S11657134EA0091601025000004000000
B0502043157335S11657091EA0090501017000004000000
B0502083157385S11657042EA0090601024000004000000
B0502123157431S11656992EA0090801020000004000000
B0502163157479S11656940EA0089301003000004000000
B0502203157532S11656882EA0088200989000004000000
B0502243157586S11656819EA0087300987000004000000
B0502283157638S11656757EA0087600992000004000000
B0502323157666S11656683EA0089301011000004000000
B0502363157643S11656614EA0091201025000004000000
B0502403157587S11656585EA0091201021000004000000
B0502443157536S11656614EA0091701032000004000000
B0502483157531S11656662EA0092901041000004000000
B0502523157569S11656688EA0092901041000004000000
B0502563157614S11656659EA0093401047000004000000
B0503003157622S11656593EA0094001052000004000000
B0503043157587S11656535EA0094201052000004000000
B0503083157530S11656515EA0094201054000004000000
B0503123157485S11656545EA0094901063000004000000
B0503163157480S11656596EA0095401065000004000000
B0503203157509S11656639EA0095101060000004000000
B0503243157561S11656652EA0094901061000004000000
B0503283157609S11656620EA0095501070000004000000
B0503323157634S11656557EA0096101074000004000000
B0503363157618S11656483EA0096101076000004000000
B0503403157567S11656440EA0096801081000004000000
B0503443157518S11656464EA0096801080000004000000
B0503483157513S11656519EA0097301087000004000000
B0503523157553S11656548EA0097901089000004000000
B0503563157596S11656511EA0098701099000004000000
B0504003157589S11656440EA0099101103000004000000
B0504043157539S11656409EA0099701110000004000000
B0504083157493S11656436EA0100201114000004000000
B0504123157488S11656488EA0100701118000004000000
B0504163157521S11656524EA0100701118000004000000
B0504203157570S11656515EA0101001122000004000000
B0504243157602S11656462EA0101401126000004000000
B0504283157599S11656389EA0101401127000004000000
B0504323157552S11656344EA0101601129000004000000
B0504363157500S11656362EA0101901129000004000000
B0504403157495S11656420EA0101701128000004000000
B0504443157545S11656441EA0102001132000004000000
B0504483157588S11656392EA0103001145000004000000
B0504523157586S11656316EA0103501148000004000000
B0504563157537S11656273EA0103701151000004000000
B0505003157485S11656288EA0104001152000004000000
B0505043157467S11656338EA0104401160000004000000
B0505083157496S11656376EA0105401166000004000000
B0505123157547S11656371EA0105601165000004000000
B0505163157599S11656341EA0105501162000004000000
B0505203157653S11656305EA0104401151000004000000
B0505243157712S11656263EA0103801149000004000000
B0505283157770S11656217EA0103301145000004000000
B0505323157830S11656171EA0102801140000004000000
B0505363157892S11656126EA0102401135000004000000
B0505403157956S11656086EA0101601126000004000000
B0505443158025S11656048EA0100801121000004000000
B0505483158095S11656016EA0100501119000004000000
B0505523158163S11655985EA0100401117000004000000
B0505563158232S11655957EA0099901113000004000000
B0506003158301S11655934EA0099401109000004000000
B0506043158368S11655913EA0099201105000004000000
B0506083158436S11655894EA0099101108000004000000
B0506123158497S11655876EA0099601110000004000000
B0506163158559S11655857EA0099401105000004000000
B0506203158620S11655843EA0099001104000004000000
B0506243158681S11655830EA0098701100000004000000
B0506283158743S11655814EA0098401099000004000000
B0506323158804S11655798EA0098101093000004000000
B0506363158867S11655778EA0097301087000004000000
B0506403158931S11655760EA0096901084000004000000
B0506443158995S11655740EA0096801081000004000000
B0506483159058S11655721EA0096801083000004000000
B0506523159121S11655705EA0096701081000004000000
B0506563159185S11655690EA0096401079000004000000
B0507003159248S11655674EA0096201078000004000000
B0507043159309S11655662EA0096901081000004000000
B0507083159368S11655651EA0096501077000004000000
B0507123159429S11655638EA0095501067000004000000
B0507163159493S11655626EA0094901064000004000000
B0507203159555S11655613EA0095101066000004000000
B0507243159615S11655601EA0095001063000004000000
B0507283159675S11655592EA0094701060000004000000
B0507323159734S11655584EA0094201057000004000000
B0507363159792S11655579EA0094101055000004000000
B0507403159849S11655575EA0093301046000004000000
B0507443159907S11655579EA0092101033000004000000
B0507483159968S11655584EA0091501027000004000000
B0507523200032S11655592EA0090901021000004000000
B0507563200097S11655600EA0091001030000004000000
B0508003200156S11655599EA0092701044000004000000
B0508043200196S11655553EA0094201057000004000000
B0508083200187S11655486EA0095301070000004000000
B0508123200139S11655461EA0096401077000004000000
B0508163200093S11655484EA0096701081000004000000
B0508203200087S11655531EA0097701088000004000000
B0508243200123S11655561EA0098101090000004000000
B0508283200174S11655549EA0098201091000004000000
B0508323200214S11655500EA0099201105000004000000
B0508363200218S11655431EA0099701111000004000000
B0508403200180S11655382EA0100001111000004000000
B0508443200127S11655388EA0099901112000004000000
B0508483200102S11655435EA0101001123000004000000
B0508523200127S11655475EA0102001132000004000000
B0508563200175S11655476EA0102501134000004000000
B0509003200219S11655427EA0102401137000004000000
B0509043200215S11655357EA0103101145000004000000
B0509083200167S11655319EA0102901143000004000000
B0509123200115S11655339EA0102901145000004000000
B0509163200097S11655388EA0104301159000004000000
B0509203200122S11655427EA0105201166000004000000
B0509243200173S11655423EA0105201164000004000000
B0509283200208S11655366EA0105501168000004000000
B0509323200192S11655296EA0105601169000004000000
B0509363200143S11655262EA0105401170000004000000
B0509403200095S11655283EA0105801173000004000000
B0509443200088S11655335EA0106401177000004000000
B0509483200127S11655363EA0106801182000004000000
B0509523200175S11655335EA0107001183000004000000
B0509563200182S11655267EA0107001183000004000000
B0510003200143S11655218EA0106901185000004000000
B0510043200088S11655213EA0106901184000004000000
B0510083200052S11655252EA0107401191000004000000
B0510123200059S11655298EA0108001195000004000000
B0510163200100S11655324EA0107701190000004000000
B0510203200156S11655345EA0107201183000004000000
B0510243200218S11655356EA0108201193000004000000
B0510283200280S11655354EA0109101200000004000000
B0510323200322S11655302EA0108901193000004000000
B0510363200301S11655229EA0107701184000004000000
B0510403200243S11655202EA0107301185000004000000
B0510443200188S11655226EA0108101189000004000000
B0510483200157S11655276EA0108201193000004000000
B0510523200187S11655319EA0108501194000004000000
B0510563200230S11655283EA0109301201000004000000
B0511003200209S11655223EA0109501206000004000000
B0511043200161S11655226EA0110101208000004000000
B0511083200149S11655279EA0108801194000004000000
B0511123200204S11655297EA0109001199000004000000
B0511163200232S11655244EA0110001209000004000000
B0511203200196S11655197EA0109301202000004000000
B0511243200149S11655229EA0109901205000004000000
B0511283200139S11655292EA0109601204000004000000
B0511323200156S11655356EA0109901211000004000000
B0511363200193S11655405EA0109901198000004000000
B0511403200256S11655444EA0107201177000004000000
B0511443200327S11655475EA0106301167000004000000
B0511483200401S11655504EA0105001155000004000000
B0511523200478S11655527EA0103701147000004000000
B0511563200553S11655548EA0103601146000004000000
B0512003200628S11655567EA0103401145000004000000
B0512043200700S11655584EA0103001141000004000000
B0512083200773S11655604EA0102401134000004000000
B0512123200846S11655625EA0101601128000004000000
B0512163200917S11655651EA0101101123000004000000
B0512203200985S11655678EA0100901121000004000000
B0512243201051S11655705EA0100801120000004000000
B0512283201116S11655733EA0100101111000004000000
B0512323201183S11655760EA0100101115000004000000
B0512363201248S11655781EA0100501119000004000000
B0512403201311S11655799EA0101301129000004000000
B0512443201375S11655812EA0102001132000004000000
B0512483201439S11655826EA0102001131000004000000
B0512523201504S11655842EA0102001131000004000000
B0512563201569S11655857EA0101501124000004000000
B0513003201638S11655873EA0100801119000004000000
B0513043201704S11655892EA0100201110000004000000
B0513083201773S11655912EA0099501105000004000000
B0513123201839S11655934EA0099301106000004000000
B0513163201902S11655955EA0099501104000004000000
B0513203201967S11655978EA0098301089000004000000
B0513243202039S11656003EA0096601077000004000000
B0513283202111S11656028EA0096501075000004000000
B0513323202181S11656056EA0096101071000004000000
B0513363202251S11656085EA0095301065000004000000
B0513403202321S11656111EA0095101063000004000000
B0513443202392S11656134EA0094901062000004000000
B0513483202459S11656154EA0094701059000004000000
B0513523202528S11656168EA0094101054000004000000
B0513563202598S11656181EA0093701048000004000000
B0514003202666S11656194EA0093401047000004000000
B0514043202734S11656207EA0093201045000004000000
B0514083202801S11656215EA0092701040000004000000
B0514123202870S11656220EA0092001033000004000000
B0514163202939S11656220EA0091701031000004000000
B0514203203007S11656219EA0091401027000004000000
B0514243203073S11656219EA0091201023000004000000
B0514283203139S11656221EA0090601020000004000000
B0514323203204S11656229EA0090201018000004000000
B0514363203270S11656241EA0090601021000004000000
B0514403203330S11656255EA0091601032000004000000
B0514443203387S11656273EA0092301037000004000000
B0514483203439S11656305EA0092501039000004000000
B0514523203493S11656325EA0093301052000004000000
B0514563203536S11656285EA0094501058000004000000
B0515003203542S11656211EA0093901049000004000000
B0515043203506S11656145EA0093501046000004000000
B0515083203447S11656121EA0093201042000004000000
B0515123203387S11656139EA0092701036000004000000
B0515163203339S11656186EA0092001031000004000000
B0515203203317S11656255EA0092101032000004000000
B0515243203321S11656327EA0091901030000004000000
B0515283203345S11656394EA0091401027000004000000
B0515323203376S11656458EA0091301025000004000000
B0515363203412S11656520EA0091101024000004000000
B0515403203445S11656581EA0090601019000004000000
B0515443203478S11656645EA0090001009000004000000
B0515483203514S11656708EA0089101006000004000000
B0515523203545S11656766EA0089101006000004000000
B0515563203572S11656822EA0089101006000004000000
B0516003203599S11656875EA0089101005000004000000
B0516043203625S11656930EA0089301010000004000000
B0516083203650S11656981EA0090301020000004000000
B0516123203671S11657029EA0091101024000004000000
B0516163203693S11657075EA0091401023000004000000
B0516203203733S11657107EA0091101020000004000000
B0516243203783S11657125EA0090701019000004000000
B0516283203833S11657143EA0090601018000004000000
B0516323203885S11657163EA0090601019000004000000
B0516363203936S11657181EA0090201012000004000000
B0516403203989S11657203EA0089601007000004000000
B0516443204044S11657226EA0088600996000004000000
B0516483204102S11657251EA0087400983000004000000
B0516523204165S11657276EA0086500975000004000000
B0516563204225S11657303EA0085800969000004000000
B0517003204283S11657335EA0085100962000004000000
B0517043204342S11657369EA0084600955000004000000
B0517083204400S11657407EA0083500945000004000000
B0517123204457S11657449EA0082500938000004000000
B0517163204516S11657488EA0082300938000004000000
B0517203204572S11657524EA0082300938000004000000
B0517243204630S11657559EA0082000931000004000000
B0517283204693S11657592EA0081500928000004000000
B0517323204755S11657618EA0082500941000004000000
B0517363204817S11657627EA0083300947000004000000
B0517403204866S11657586EA0085100968000004000000
B0517443204860S11657516EA0086000972000004000000
B0517483204808S11657477EA0085800967000004000000
B0517523204756S11657499EA0086400977000004000000
B0517563204741S11657554EA0086700979000004000000
B0518003204771S11657603EA0087200984000004000000
B0518043204825S11657599EA0087800991000004000000
B0518083204850S11657541EA0088601003000004000000
B0518123204823S11657481EA0089501008000004000000
B0518163204768S11657473EA0089501007000004000000
B0518203204739S11657523EA0089701011000004000000
B0518243204764S11657572EA0090701020000004000000
B0518283204815S11657573EA0091101022000004000000
B0518323204842S11657516EA0091401028000004000000
B0518363204808S11657460EA0091801030000004000000
B0518403204755S11657473EA0092101035000004000000
B0518443204738S11657530EA0092801043000004000000
B0518483204769S11657573EA0093401046000004000000
B0518523204824S11657571EA0093401046000004000000
B0518563204853S11657512EA0093601051000004000000
B0519003204825S11657449EA0094101055000004000000
B0519043204769S11657445EA0095001065000004000000
B0519083204739S11657494EA0095901071000004000000
B0519123204759S11657547EA0095801071000004000000
B0519163204810S11657560EA0095701068000004000000
B0519203204853S11657515EA0095501071000004000000
B0519243204860S11657443EA0096001076000004000000
B0519283204827S11657386EA0096101076000004000000
B0519323204769S11657358EA0095701071000004000000
B0519363204706S11657352EA0095801073000004000000
B0519403204656S11657390EA0096301077000004000000
B0519443204641S11657452EA0096701081000004000000
B0519483204668S11657510EA0096701080000004000000
B0519523204723S11657543EA0096201076000004000000
B0519563204790S11657555EA0095901076000004000000
B0520003204860S11657558EA0095501066000004000000
B0520043204934S11657555EA0094401056000004000000
B0520083205010S11657553EA0093901056000004000000
B0520123205080S11657553EA0094901067000004000000
B0520163205144S11657549EA0095801074000004000000
B0520203205205S11657549EA0095501064000004000000
B0520243205269S11657550EA0094101052000004000000
B0520283205335S11657545EA0093601045000004000000
B0520323205401S11657540EA0093001042000004000000
B0520363205465S11657533EA0092901040000004000000
B0520403205529S11657528EA0092801040000004000000
B0520443205591S11657517EA0093501048000004000000
B0520483205649S11657498EA0094701059000004000000
B0520523205694S11657454EA0095301060000004000000
B0520563205703S11657381EA0094901055000004000000
B0521003205670S11657317EA0094501053000004000000
B0521043205616S11657296EA0094201046000004000000
B0521083205560S11657316EA0093401039000004000000
B0521123205517S11657360EA0092801034000004000000
B0521163205493S11657420EA0092001027000004000000
B0521203205499S11657488EA0091601026000004000000
B0521243205530S11657543EA0092001033000004000000
B0521283205571S11657584EA0092501037000004000000
B0521323205623S11657610EA0092501035000004000000
B0521363205682S11657616EA0092101032000004000000
B0521403205743S11657607EA0091601027000004000000
B0521443205805S11657589EA0091001021000004000000
B0521483205868S11657567EA0090501018000004000000
B0521523205929S11657542EA0090201013000004000000
B0521563205991S11657514EA0089601007000004000000
B0522003206055S11657480EA0089000997000004000000
B0522043206123S11657449EA0087700987000004000000
B0522083206193S11657421EA0087100985000004000000
B0522123206260S11657399EA0087000983000004000000
B0522163206328S11657380EA0086700977000004000000
B0522203206397S11657363EA0086200972000004000000
B0522243206465S11657346EA0085400965000004000000
B0522283206532S11657330EA0084400954000004000000
B0522323206598S11657313EA0083800950000004000000
B0522363206663S11657300EA0084300957000004000000
B0522403206725S11657296EA0084700959000004000000
B0522443206787S11657290EA0084700960000004000000
B0522483206848S11657273EA0085700968000004000000
B0522523206894S11657228EA0086700981000004000000
B0522563206899S11657159EA0087700993000004000000
B0523003206855S11657125EA0089101004000004000000
B0523043206816S11657159EA0089401006000004000000
B0523083206825S11657213EA0089901013000004000000
B0523123206874S11657217EA0090801020000004000000
B0523163206910S11657164EA0091001021000004000000
B0523203206899S11657092EA0091601030000004000000
B0523243206849S11657062EA0092401036000004000000
B0523283206804S11657094EA0092401035000004000000
B0523323206809S11657153EA0092801043000004000000
B0523363206858S11657172EA0093701052000004000000
B0523403206901S11657125EA0094201056000004000000
B0523443206903S11657049EA0094601065000004000000
B0523483206864S11657000EA0095801071000004000000
B0523523206809S11656999EA0095601068000004000000
B0523563206774S11657044EA0095801072000004000000
B0524003206791S11657099EA0096201075000004000000
B0524043206847S11657109EA0096101076000004000000
B0524083206888S11657056EA0096801085000004000000
B0524123206877S11656986EA0097801093000004000000
B0524163206826S11656956EA0098001091000004000000
B0524203206773S11656984EA0097501086000004000000
B0524243206753S11657047EA0097801093000004000000
B0524283206774S11657104EA0098801101000004000000
B0524323206823S11657127EA0098301094000004000000
B0524363206883S11657107EA0098301095000004000000
B0524403206922S11657052EA0099001106000004000000
B0524443206921S11656981EA0099701111000004000000
B0524483206886S11656917EA0099701107000004000000
B0524523206829S11656899EA0100001115000004000000
B0524563206784S11656932EA0100501112000004000000
B0525003206780S11656995EA0100101114000004000000
B0525043206818S11657039EA0100601120000004000000
B0525083206871S11657033EA0101001125000004000000
B0525123206907S11656979EA0101601128000004000000
B0525153206912S11656922EA0101301126000004000000
B0525203206868S11656841EA0101401128000004000000
B0525243206809S11656821EA0101901130000004000000
B0525283206756S11656843EA0101501127000004000000
B0525323206718S11656893EA0101201122000004000000
B0525363206691S11656960EA0101201122000004000000
B0525403206687S11657030EA0101201125000004000000
B0525443206725S11657082EA0101401126000004000000
B0525483206782S11657109EA0100101109000004000000
B0525523206849S11657125EA0098801097000004000000
B0525563206921S11657134EA0098501098000004000000
B0526003206986S11657142EA0098901100000004000000
B0526043207051S11657147EA0098601094000004000000
B0526083207120S11657152EA0097901084000004000000
B0526123207189S11657161EA0096901075000004000000
B0526163207258S11657178EA0096201067000004000000
B0526203207328S11657195EA0095301064000004000000
B0526243207397S11657212EA0095201063000004000000
B0526283207463S11657230EA0094601057000004000000
B0526323207532S11657248EA0093701048000004000000
B0526363207601S11657265EA0093601047000004000000
B0526403207667S11657281EA0093501044000004000000
B0526443207733S11657298EA0092701037000004000000
B0526483207798S11657309EA0092401037000004000000
B0526523207862S11657322EA0092601039000004000000
B0526563207927S11657337EA0092701036000004000000
B0527003207993S11657354EA0091901030000004000000
B0527043208057S11657374EA0091801031000004000000
B0527083208117S11657398EA0091601029000004000000
B0527123208178S11657416EA0091701028000004000000
B0527163208238S11657432EA0091801031000004000000
B0527203208296S11657446EA0092201035000004000000
B0527243208357S11657455EA0092101034000004000000
B0527283208420S11657456EA0092301035000004000000
B0527323208481S11657443EA0092501037000004000000
B0527363208538S11657407EA0092301034000004000000
B0527403208595S11657360EA0091801028000004000000
B0527443208659S11657335EA0092001032000004000000
B0527483208716S11657354EA0092601036000004000000
B0527523208737S11657408EA0092801037000004000000
B0527563208703S11657463EA0092501032000004000000
B0528003208642S11657495EA0092101024000004000000
B0528043208574S11657521EA0091101021000004000000
B0528083208506S11657547EA0090801015000004000000
B0528123208435S11657575EA0090001009000004000000
B0528163208363S11657599EA0089701009000004000000
B0528203208292S11657621EA0089901011000004000000
B0528243208225S11657641EA0090201013000004000000
B0528283208157S11657662EA0090201010000004000000
B0528323208093S11657693EA0089901005000004000000
B0528363208053S11657751EA0089801005000004000000
B0528403208053S11657823EA0089200997000004000000
B0528443208083S11657889EA0087800985000004000000
B0528483208121S11657953EA0086700975000004000000
B0528523208160S11658015EA0086000970000004000000
B0528563208199S11658076EA0085900969000004000000
B0529003208239S11658138EA0085900970000004000000
B0529043208274S11658201EA0085800971000004000000
B0529083208304S11658265EA0086100974000004000000
B0529123208330S11658326EA0086500976000004000000
B0529163208357S11658390EA0086800982000004000000
B0529203208389S11658444EA0087700985000004000000
B0529243208439S11658468EA0087700988000004000000
B0529283208489S11658439EA0088200994000004000000
B0529323208506S11658375EA0088700998000004000000
B0529363208478S11658317EA0089000998000004000000
B0529403208429S11658303EA0088900998000004000000
B0529443208390S11658336EA0088600993000004000000
B0529483208365S11658391EA0087500983000004000000
B0529523208340S11658451EA0087000978000004000000
B0529563208316S11658512EA0086500975000004000000
B0530003208290S11658570EA0086500976000004000000
B0530043208269S11658628EA0086400974000004000000
B0530083208246S11658685EA0085700965000004000000
B0530123208216S11658745EA0084400954000004000000
B0530163208183S11658807EA0084400955000004000000
B0530203208149S11658867EA0084200951000004000000
B0530243208113S11658929EA0083700945000004000000
B0530283208074S11658990EA0083300943000004000000
B0530323208036S11659053EA0083100942000004000000
B0530363208004S11659115EA0082900940000004000000
B0530403207976S11659179EA0082900940000004000000
B0530443207953S11659244EA0082700936000004000000
B0530483207930S11659308EA0081900927000004000000
B0530523207905S11659370EA0081300922000004000000
B0530563207872S11659427EA0080700916000004000000
B0531003207832S11659479EA0080400911000004000000
B0531043207792S11659532EA0079500902000004000000
B0531083207754S11659591EA0079000898000004000000
B0531123207713S11659651EA0078600893000004000000
B0531163207666S11659705EA0078400894000004000000
B0531203207632S11659764EA0079700906000004000000
B0531243207648S11659813EA0081000917000004000000
B0531283207698S11659805EA0080900914000004000000
B0531323207723S11659738EA0080600912000004000000
B0531363207696S11659670EA0080500915000004000000
B0531403207641S11659657EA0080700917000004000000
B0531443207596S11659688EA0080800916000004000000
B0531483207563S11659739EA0080400912000004000000
B0531523207551S11659802EA0080000908000004000000
B0531563207563S11659864EA0079400901000004000000
B0532003207594S11659920EA0078900898000004000000
B0532043207641S11659961EA0079300906000004000000
B0532083207692S11659990EA0080200915000004000000
B0532123207737S11659972EA0081600931000004000000
B0532163207727S11659907EA0081700924000004000000
B0532203207670S11659893EA0081600930000004000000
B0532243207625S11659926EA0083000943000004000000
B0532283207631S11659977EA0083700946000004000000
B0532323207676S11659977EA0083700945000004000000
B0532363207693S11659911EA0083700945000004000000
B0532403207655S11659851EA0083900947000004000000
B0532443207599S11659851EA0084700960000004000000
B0532483207598S11659902EA0084800956000004000000
B0532523207645S11659917EA0085400963000004000000
B0532563207683S11659877EA0085900969000004000000
B0533003207688S11659808EA0086000967000004000000
B0533043207653S11659744EA0085400964000004000000
B0533083207599S11659714EA0086500980000004000000
B0533123207555S11659726EA0087800982000004000000
B0533163207532S11659770EA0087200975000004000000
B0533203207538S11659821EA0087100974000004000000
B0533243207579S11659855EA0087000978000004000000
B0533283207627S11659851EA0088200991000004000000
B0533323207646S11659798EA0088600991000004000000
B0533363207616S11659734EA0087700982000004000000
B0533403207558S11659717EA0088200991000004000000
B0533443207512S11659748EA0089000997000004000000
B0533483207507S11659802EA0089100998000004000000
B0533523207545S11659839EA0089401004000004000000
B0533563207596S11659831EA0090101011000004000000
B0534003207610S11659772EA0090801015000004000000
B0534043207572S11659720EA0090201009000004000000
B0534083207511S11659717EA0090001009000004000000
B0534123207492S11659766EA0091001019000004000000
B0534163207534S11659790EA0091101019000004000000
B0534203207580S11659753EA0091401023000004000000
B0534243207580S11659685EA0092101028000004000000
B0534283207537S11659640EA0092001025000004000000
B0534323207484S11659660EA0092001028000004000000
B0534363207473S11659713EA0092401032000004000000
B0534403207512S11659747EA0092401030000004000000
B0534443207567S11659733EA0092601034000004000000
B0534483207615S11659685EA0091901020000004000000
B0534523207663S11659609EA0089901006000004000000
B0534563207707S11659519EA0089501005000004000000
B0535003207748S11659427EA0089901010000004000000
B0535043207780S11659339EA0091201022000004000000
B0535083207811S11659254EA0091501021000004000000
B0535123207843S11659167EA0090601006000004000000
B0535163207878S11659076EA0089100994000004000000
B0535203207918S11658990EA0089201001000004000000
B0535243207958S11658914EA0089601004000004000000
B0535283207995S11658838EA0089701000000004000000
B0535323208034S11658767EA0089000996000004000000
B0535363208070S11658694EA0088900995000004000000
B0535403208097S11658617EA0088900994000004000000
B0535443208109S11658535EA0088900996000004000000
B0535483208110S11658455EA0089400997000004000000
B0535523208100S11658374EA0089100993000004000000
B0535563208088S11658291EA0088700988000004000000
B0536003208079S11658205EA0088000984000004000000
B0536043208065S11658119EA0088100986000004000000
B0536083208047S11658037EA0088100983000004000000
B0536123208023S11657958EA0087500977000004000000
B0536163208000S11657875EA0086600967000004000000
B0536203207983S11657787EA0086200966000004000000
B0536243207973S11657698EA0086000966000004000000
B0536283207973S11657611EA0086200969000004000000
B0536323207975S11657525EA0086700973000004000000
B0536363207965S11657443EA0087400977000004000000
B0536403207947S11657365EA0086500967000004000000
B0536443207948S11657276EA0085300953000004000000
B0536483207962S11657181EA0083600939000004000000
B0536523207978S11657088EA0083700944000004000000
B0536563207992S11657000EA0084100948000004000000
B0537003208005S11656916EA0084000943000004000000
B0537043208012S11656834EA0083600938000004000000
B0537083208023S11656754EA0082800929000004000000
B0537123208035S11656675EA0082600930000004000000
B0537163208031S11656596EA0083000935000004000000
B0537203207996S11656537EA0084400952000004000000
B0537243207948S11656549EA0086000963000004000000
B0537283207943S11656602EA0085700957000004000000
B0537323207987S11656622EA0085100952000004000000
B0537363208018S11656572EA0085100953000004000000
B0537403208008S11656497EA0085500960000004000000
B0537443207967S11656444EA0086400969000004000000
B0537483207915S11656462EA0087300975000004000000
B0537523207915S11656515EA0087600979000004000000
B0537563207958S11656533EA0087900984000004000000
B0538003207996S11656492EA0088300986000004000000
B0538043207982S11656420EA0088900994000004000000
B0538083207927S11656389EA0089701001000004000000
B0538123207880S11656423EA0090101005000004000000
B0538163207887S11656477EA0090501009000004000000
B0538203207930S11656497EA0090801012000004000000
B0538243207973S11656462EA0090701013000004000000
B0538283207974S11656390EA0091601023000004000000
B0538323207926S11656347EA0092101025000004000000
B0538363207872S11656367EA0092501030000004000000
B0538403207859S11656423EA0092801034000004000000
B0538443207895S11656453EA0093201035000004000000
B0538483207939S11656422EA0093201037000004000000
B0538523207935S11656353EA0094101049000004000000
B0538563207884S11656319EA0094901051000004000000
B0539003207837S11656354EA0094801054000004000000
B0539043207832S11656409EA0095501060000004000000
B0539083207867S11656441EA0095401057000004000000
B0539123207915S11656420EA0095301057000004000000
B0539163207940S11656358EA0095601064000004000000
B0539203207911S11656295EA0096501073000004000000
B0539243207850S11656286EA0097501079000004000000
B0539283207807S11656327EA0097801083000004000000
B0539323207802S11656386EA0097601080000004000000
B0539363207839S11656427EA0097301074000004000000
B0539403207895S11656422EA0096501068000004000000
B0539443207947S11656379EA0095801066000004000000
B0539483207996S11656325EA0096001071000004000000
B0539523208043S11656268EA0095901066000004000000
B0539563208093S11656206EA0095101058000004000000
B0540003208148S11656145EA0094101049000004000000
B0540043208205S11656089EA0093801049000004000000
B0540083208260S11656037EA0094401056000004000000
B0540123208314S11655991EA0094501049000004000000
B0540163208373S11655943EA0093401039000004000000
B0540203208435S11655899EA0093301042000004000000
B0540243208500S11655879EA0093701046000004000000
B0540283208560S11655903EA0095301060000004000000
B0540323208607S11655948EA0095501057000004000000
B0540363208654S11655993EA0095001052000004000000
B0540403208710S11656029EA0094301044000004000000
B0540443208773S11656043EA0093601036000004000000
B0540483208840S11656035EA0092701031000004000000
B0540523208903S11656019EA0092201028000004000000
B0540563208964S11655998EA0092001026000004000000
B0541003209026S11655974EA0091901025000004000000
B0541043209085S11655950EA0091401022000004000000
B0541083209145S11655921EA0091001018000004000000
B0541123209206S11655894EA0090301011000004000000
B0541163209269S11655869EA0089801007000004000000
B0541203209331S11655846EA0089601005000004000000
B0541243209392S11655821EA0089301000000004000000
B0541283209455S11655794EA0088600995000004000000
B0541323209517S11655768EA0088000988000004000000
B0541363209581S11655740EA0087600982000004000000
B0541403209642S11655708EA0087600983000004000000
B0541443209699S11655675EA0087000976000004000000
B0541483209757S11655640EA0086500970000004000000
B0541523209815S11655604EA0086100968000004000000
B0541563209868S11655565EA0086300971000004000000
B0542003209921S11655528EA0086400966000004000000
B0542043209975S11655489EA0085400958000004000000
B0542083210033S11655450EA0084400946000004000000
B0542123210094S11655413EA0083200937000004000000
B0542163210151S11655363EA0083300940000004000000
B0542203210193S11655300EA0083900949000004000000
B0542243210225S11655232EA0085300958000004000000
B0542283210219S11655162EA0086400970000004000000
B0542323210170S11655141EA0086400963000004000000
B0542363210138S11655189EA0085400958000004000000
B0542403210160S11655242EA0085200960000004000000
B0542443210215S11655250EA0085400962000004000000
B0542483210266S11655206EA0085300962000004000000
B0542523210306S11655142EA0085500963000004000000
B0542563210307S11655070EA0086300971000004000000
B0543003210258S11655041EA0086800974000004000000
B0543043210227S11655084EA0087400983000004000000
B0543083210261S11655122EA0088000985000004000000
B0543123210306S11655093EA0088500992000004000000
B0543163210311S11655023EA0088100985000004000000
B0543203210267S11654971EA0088000988000004000000
B0543243210216S11654977EA0088901001000004000000
B0543283210197S11655027EA0089701001000004000000
B0543323210225S11655073EA0089501000000004000000
B0543363210280S11655076EA0089901008000004000000
B0543403210318S11655025EA0090501011000004000000
B0543443210314S11654950EA0090301006000004000000
B0543483210270S11654893EA0089801004000004000000
B0543523210209S11654890EA0090301010000004000000
B0543563210167S11654932EA0091001017000004000000
B0544003210160S11654992EA0090701013000004000000
B0544043210170S11655058EA0090501018000004000000
B0544083210189S11655116EA0091701027000004000000
B0544123210237S11655131EA0092601033000004000000
B0544163210277S11655085EA0092701032000004000000
B0544203210279S11655010EA0092201027000004000000
B0544243210241S11654942EA0091601019000004000000
B0544283210186S11654897EA0092101027000004000000
B0544323210134S11654916EA0093601040000004000000
B0544363210120S11654969EA0093901044000004000000
B0544403210147S11655019EA0094301047000004000000
B0544443210197S11655006EA0095301059000004000000
B0544483210205S11654936EA0094801053000004000000
B0544523210158S11654886EA0094901057000004000000
B0544563210103S11654903EA0095601062000004000000
B0545003210082S11654962EA0096101066000004000000
B0545043210108S11655014EA0097001073000004000000
B0545083210160S11655027EA0096801069000004000000
B0545123210210S11654986EA0096201065000004000000
B0545163210229S11654912EA0096101065000004000000
B0545203210212S11654834EA0095601062000004000000
B0545243210179S11654760EA0095301059000004000000
B0545283210134S11654687EA0095301060000004000000
B0545323210082S11654624EA0095001051000004000000
B0545363210019S11654573EA0094201046000004000000
B0545403209947S11654560EA0094701050000004000000
B0545443209884S11654586EA0093901042000004000000
B0545483209829S11654631EA0092701031000004000000
B0545523209777S11654685EA0091801024000004000000
B0545563209728S11654737EA0091501022000004000000
B0546003209681S11654787EA0091901027000004000000
B0546043209634S11654832EA0092101028000004000000
B0546083209588S11654875EA0092501033000004000000
B0546123209546S11654915EA0093401039000004000000
B0546163209507S11654960EA0093301034000004000000
B0546203209469S11655012EA0092301025000004000000
B0546243209429S11655070EA0091201015000004000000
B0546283209384S11655125EA0090601013000004000000
B0546323209339S11655177EA0090401010000004000000
B0546363209292S11655228EA0089901003000004000000
B0546403209243S11655278EA0089300997000004000000
B0546443209193S11655330EA0088800992000004000000
B0546483209141S11655379EA0088100984000004000000
B0546523209088S11655428EA0087600982000004000000
B0546563209035S11655475EA0087600982000004000000
B0547003208985S11655521EA0087500982000004000000
B0547043208940S11655570EA0086900975000004000000
B0547083208894S11655622EA0086400967000004000000
B0547123208846S11655677EA0085600961000004000000
B0547163208799S11655734EA0085200957000004000000
B0547203208750S11655790EA0084700953000004000000
B0547243208699S11655843EA0084500951000004000000
B0547283208646S11655891EA0083900943000004000000
B0547323208586S11655930EA0083200936000004000000
B0547363208525S11655965EA0082500932000004000000
B0547403208464S11655999EA0082300927000004000000
B0547443208399S11656028EA0081100916000004000000
B0547483208331S11656056EA0080600913000004000000
B0547523208268S11656085EA0080500914000004000000
B0547563208207S11656113EA0080700914000004000000
B0548003208147S11656143EA0080100906000004000000
B0548043208087S11656176EA0079500901000004000000
B0548083208027S11656210EA0078900897000004000000
B0548123207969S11656242EA0078400888000004000000
B0548163207909S11656275EA0078000887000004000000
B0548203207849S11656308EA0077400880000004000000
B0548243207788S11656341EA0077100875000004000000
B0548283207724S11656370EA0076700877000004000000
B0548323207667S11656397EA0077600887000004000000
B0548363207618S11656425EA0078000886000004000000
B0548403207573S11656464EA0077700882000004000000
B0548443207547S11656519EA0077500881000004000000
B0548483207533S11656580EA0076900875000004000000
B0548523207519S11656648EA0076200865000004000000
B0548563207497S11656715EA0075200859000004000000
B0549003207472S11656784EA0075300862000004000000
B0549043207455S11656852EA0075800866000004000000
B0549083207441S11656918EA0075900868000004000000
B0549123207428S11656984EA0076300871000004000000
B0549163207412S11657052EA0076400872000004000000
B0549203207399S11657120EA0077400884000004000000
B0549243207401S11657178EA0078400889000004000000
B0549283207442S11657208EA0077900879000004000000
B0549323207498S11657181EA0076500861000004000000
B0549363207533S11657104EA0074800847000004000000
B0549403207531S11657012EA0073200836000004000000
B0549443207501S11656922EA0073000841000004000000
B0549483207454S11656851EA0074200855000004000000
B0549523207395S11656840EA0076900881000004000000
B0549563207358S11656875EA0078200889000004000000
B0550003207360S11656925EA0078600891000004000000
B0550043207401S11656947EA0078500891000004000000
B0550083207441S11656909EA0078500892000004000000
B0550123207433S11656841EA0078900896000004000000
B0550163207384S11656808EA0079500903000004000000
B0550203207338S11656839EA0080400910000004000000
B0550243207341S11656897EA0080000906000004000000
B0550283207388S11656929EA0080100910000004000000
B0550323207437S11656903EA0081500923000004000000
B0550363207442S11656834EA0081600921000004000000
B0550403207391S11656793EA0082100930000004000000
B0550443207350S11656828EA0083200938000004000000
B0550483207372S11656878EA0082800933000004000000
B0550523207427S11656871EA0083300943000004000000
B0550563207450S11656810EA0084200949000004000000
B0551003207419S11656747EA0084300948000004000000
B0551043207362S11656734EA0084700957000004000000
B0551083207324S11656775EA0085900965000004000000
B0551123207337S11656830EA0086000963000004000000
B0551163207389S11656845EA0086100967000004000000
B0551203207436S11656804EA0086700973000004000000
B0551243207441S11656732EA0087200977000004000000
B0551283207403S11656676EA0087300977000004000000
B0551323207341S11656663EA0087100975000004000000
B0551363207281S11656693EA0087200978000004000000
B0551403207259S11656754EA0087800986000004000000
B0551443207297S11656800EA0087500977000004000000
B0551483207359S11656791EA0087200979000004000000
B0551523207395S11656731EA0088700997000004000000
B0551563207384S11656663EA0089801005000004000000
B0552003207334S11656627EA0090401008000004000000
B0552043207281S11656644EA0090601012000004000000
B0552083207269S11656697EA0090801013000004000000
B0552123207307S11656735EA0090301004000004000000
B0552163207365S11656718EA0089801008000004000000
B0552203207393S11656652EA0090901019000004000000
B0552243207376S11656579EA0091201015000004000000
B0552283207328S11656526EA0091101016000004000000
B0552323207267S11656507EA0091501021000004000000
B0552363207206S11656527EA0091501021000004000000
B0552403207157S11656575EA0091601021000004000000
B0552443207128S11656645EA0091201017000004000000
B0552483207109S11656723EA0090601006000004000000
B0552523207096S11656805EA0089100995000004000000
B0552563207083S11656888EA0088300990000004000000
B0553003207069S11656966EA0088000986000004000000
B0553043207055S11657040EA0088200988000004000000
B0553083207040S11657108EA0088300992000004000000
B0553123207027S11657173EA0089000994000004000000
B0553163207016S11657241EA0088500989000004000000
B0553203207004S11657313EA0088400993000004000000
B0553243206986S11657385EA0088700994000004000000
B0553283206964S11657455EA0088400990000004000000
B0553323206938S11657525EA0087900982000004000000
B0553363206909S11657594EA0087200976000004000000
B0553403206879S11657664EA0086600971000004000000
B0553443206852S11657735EA0086400972000004000000
B0553483206829S11657803EA0086300968000004000000
B0553523206813S11657875EA0085900962000004000000
B0553563206803S11657946EA0085400960000004000000
B0554003206788S11658017EA0085500960000004000000
B0554043206766S11658086EA0085100952000004000000
B0554083206754S11658156EA0084600954000004000000
B0554123206751S11658226EA0084800953000004000000
B0554163206744S11658294EA0084400946000004000000
B0554203206734S11658364EA0083600941000004000000
B0554243206721S11658437EA0083600944000004000000
B0554283206706S11658508EA0084200949000004000000
B0554323206695S11658580EA0084800956000004000000
B0554363206701S11658648EA0085900967000004000000
B0554403206748S11658673EA0087800989000004000000
B0554443206784S11658632EA0089000991000004000000
B0554483206770S11658565EA0088600987000004000000
B0554523206718S11658544EA0088600990000004000000
B0554563206678S11658582EA0089100996000004000000
B0555003206669S11658642EA0089501001000004000000
B0555043206709S11658678EA0090301007000004000000
B0555083206751S11658638EA0091001011000004000000
B0555123206739S11658568EA0090701008000004000000
B0555163206684S11658543EA0090601009000004000000
B0555203206653S11658593EA0091601021000004000000
B0555243206684S11658638EA0092201025000004000000
B0555283206736S11658622EA0092801031000004000000
B0555323206751S11658559EA0092901028000004000000
B0555363206708S11658518EA0092201022000004000000
B0555403206653S11658546EA0091501018000004000000
B0555443206605S11658596EA0091901024000004000000
B0555483206570S11658663EA0091701019000004000000
B0555523206541S11658734EA0090601003000004000000
B0555563206520S11658812EA0089300997000004000000
B0556003206500S11658885EA0089301000000004000000
B0556043206476S11658953EA0089701004000004000000
B0556083206452S11659019EA0089901002000004000000
B0556123206432S11659089EA0090001008000004000000
B0556163206409S11659155EA0090901015000004000000
B0556203206384S11659214EA0092501030000004000000
B0556243206366S11659269EA0092501028000004000000
B0556283206346S11659328EA0091801015000004000000
B0556323206316S11659392EA0090401003000004000000
B0556363206281S11659456EA0089500994000004000000
B0556403206247S11659518EA0088700989000004000000
B0556443206214S11659578EA0088600989000004000000
B0556483206186S11659638EA0088900993000004000000
B0556523206154S11659694EA0088400986000004000000
B0556563206104S11659743EA0087200976000004000000
B0557003206039S11659773EA0086600966000004000000
B0557043205964S11659786EA0085900959000004000000
B0557083205889S11659790EA0085500961000004000000
B0557123205817S11659799EA0085700964000004000000
B0557163205747S11659811EA0086200968000004000000
B0557203205679S11659822EA0086500970000004000000
B0557243205610S11659839EA0086200967000004000000
B0557283205544S11659860EA0085700958000004000000
B0557323205474S11659883EA0084200943000004000000
B0557363205404S11659917EA0083200936000004000000
B0557403205341S11659947EA0083900945000004000000
B0557443205283S11659972EA0084400946000004000000
B0557483205220S11659990EA0084000939000004000000
B0557523205153S11700002EA0083100932000004000000
B0557563205084S11700015EA0082700928000004000000
B0558003205014S11700029EA0082800933000004000000
B0558043204945S11700042EA0084000940000004000000
B0558083204888S11700081EA0084500944000004000000
B0558123204869S11700149EA0085100949000004000000
B0558163204898S11700206EA0085000950000004000000
B0558203204955S11700219EA0084800945000004000000
B0558243205006S11700172EA0084100938000004000000
B0558283205020S11700088EA0083300932000004000000
B0558323204993S11700000EA0082500926000004000000
B0558363204940S11659925EA0082300926000004000000
B0558403204876S11659868EA0083400935000004000000
B0558443204811S11659881EA0084700947000004000000
B0558483204799S11659942EA0085500958000004000000
B0558523204838S11659969EA0086300965000004000000
B0558563204882S11659935EA0086100958000004000000
B0559003204888S11659861EA0085600956000004000000
B0559043204855S11659789EA0085300954000004000000
B0559083204794S11659752EA0085700956000004000000
B0559123204737S11659777EA0085800960000004000000
B0559163204710S11659837EA0085800956000004000000
B0559203204719S11659904EA0085300953000004000000
B0559243204746S11659967EA0085000950000004000000
B0559283204786S11700021EA0084500947000004000000
B0559323204836S11700069EA0084400945000004000000
B0559363204886S11700112EA0084200943000004000000
B0559403204940S11700149EA0083700942000004000000
B0559443204993S11700181EA0083900946000004000000
B0559483205044S11700212EA0084400952000004000000
B0559523205093S11700245EA0084900952000004000000
B0559563205144S11700241EA0085700964000004000000
B0600003205163S11700182EA0085700961000004000000
B0600043205132S11700119EA0084800954000004000000
B0600083205075S11700097EA0084900954000004000000
B0600123205020S11700117EA0084600951000004000000
B0600163204989S11700171EA0084800952000004000000
B0600203204988S11700234EA0084800957000004000000
B0600243205019S11700284EA0085100957000004000000
B0600283205071S11700299EA0085000957000004000000
B0600323205123S11700271EA0085000958000004000000
B0600363205153S11700206EA0085100958000004000000
B0600403205144S11700129EA0084900953000004000000
B0600443205098S11700071EA0084100944000004000000
B0600483205031S11700058EA0083300937000004000000
B0600523204968S11700093EA0082600932000004000000
B0600563204914S11700149EA0082300929000004000000
B0601003204855S11700206EA0081900928000004000000
B0601043204798S11700257EA0082600935000004000000
B0601083204742S11700303EA0082700930000004000000
B0601123204681S11700345EA0081800921000004000000
B0601163204622S11700389EA0082000926000004000000
B0601203204563S11700429EA0082300928000004000000
B0601243204500S11700466EA0081900922000004000000
B0601283204433S11700496EA0081700922000004000000
B0601323204364S11700519EA0082400930000004000000
B0601363204307S11700554EA0083800939000004000000
B0601403204295S11700613EA0084600946000004000000
B0601443204335S11700649EA0084300942000004000000
B0601483204388S11700626EA0084400946000004000000
B0601523204401S11700558EA0084700945000004000000
B0601563204368S11700493EA0084200941000004000000
B0602003204309S11700453EA0083900938000004000000
B0602043204240S11700440EA0083500934000004000000
B0602083204171S11700446EA0083000931000004000000
B0602123204104S11700461EA0082900929000004000000
B0602163204037S11700481EA0083000930000004000000
B0602203203978S11700517EA0083000930000004000000
B0602243203932S11700569EA0082400922000004000000
B0602283203915S11700634EA0082200922000004000000
B0602323203940S11700688EA0082300920000004000000
B0602363203991S11700713EA0081300912000004000000
B0602403204053S11700714EA0080300901000004000000
B0602443204117S11700702EA0079400892000004000000
B0602483204175S11700662EA0078600886000004000000
B0602523204222S11700600EA0078100882000004000000
B0602563204264S11700532EA0078000883000004000000
B0603003204301S11700466EA0078900893000004000000
B0603043204334S11700405EA0079800898000004000000
B0603083204366S11700345EA0079700895000004000000
B0603123204401S11700285EA0079300890000004000000
B0603163204435S11700220EA0079100887000004000000
B0603203204457S11700143EA0078600882000004000000
B0603243204470S11700059EA0078000877000004000000
B0603283204481S11659972EA0077200867000004000000
B0603323204499S11659882EA0076000855000004000000
B0603363204533S11659799EA0075300853000004000000
B0603403204585S11659737EA0075300852000004000000
B0603443204647S11659698EA0074900848000004000000
B0603483204712S11659674EA0075300854000004000000
B0603523204775S11659655EA0075700860000004000000
B0603563204834S11659633EA0076200861000004000000
B0604003204895S11659610EA0075500849000004000000
B0604043204958S11659584EA0074400844000004000000
B0604083205020S11659558EA0073900837000004000000
B0604123205083S11659535EA0073100831000004000000
B0604163205145S11659514EA0072700827000004000000
B0604203205205S11659499EA0071900818000004000000
B0604243205265S11659483EA0071500814000004000000
B0604283205323S11659469EA0070900805000004000000
B0604323205384S11659457EA0070100794000004000000
B0604363205439S11659418EA0069800803000004000000
B0604403205478S11659370EA0071500817000004000000
B0604443205503S11659314EA0072300822000004000000
B0604483205482S11659249EA0072300821000004000000
B0604523205423S11659248EA0072900827000004000000
B0604563205408S11659304EA0073100828000004000000
B0605003205447S11659332EA0073000827000004000000
B0605043205488S11659292EA0072900827000004000000
B0605083205488S11659217EA0072700827000004000000
B0605123205439S11659175EA0073500837000004000000
B0605163205401S11659218EA0073800836000004000000
B0605203205423S11659272EA0073400834000004000000
B0605243205477S11659284EA0073700841000004000000
B0605283205523S11659245EA0074300844000004000000
B0605323205534S11659167EA0074300841000004000000
B0605363205514S11659079EA0073200830000004000000
B0605403205493S11658983EA0072200824000004000000
B0605443205461S11658890EA0073100838000004000000
B0605483205404S11658849EA0075400855000004000000
B0605523205349S11658873EA0075400849000004000000
B0605563205330S11658934EA0075200849000004000000
B0606003205339S11658998EA0074500847000004000000
B0606043205361S11659057EA0074400846000004000000
B0606083205383S11659119EA0074500850000004000000
B0606123205400S11659179EA0075200859000004000000
B0606163205419S11659232EA0076200870000004000000
B0606203205465S11659237EA0077300878000004000000
B0606243205491S11659178EA0078000887000004000000
B0606283205464S11659114EA0078500890000004000000
B0606323205410S11659106EA0078600895000004000000
B0606363205387S11659153EA0079300898000004000000
B0606403205413S11659194EA0079500899000004000000
B0606443205464S11659187EA0080000906000004000000
B0606483205492S11659129EA0080700911000004000000
B0606523205469S11659064EA0081000914000004000000
B0606563205414S11659049EA0081100915000004000000
B0607003205378S11659088EA0081700922000004000000
B0607043205380S11659139EA0082300926000004000000
B0607083205409S11659179EA0082600927000004000000
B0607123205457S11659176EA0082900933000004000000
B0607163205474S11659111EA0083300933000004000000
B0607203205435S11659055EA0083600938000004000000
B0607243205384S11659074EA0084000942000004000000
B0607283205382S11659128EA0084600947000004000000
B0607323205423S11659154EA0085000954000004000000
B0607363205466S11659107EA0085500957000004000000
B0607403205452S11659029EA0085700959000004000000
B0607443205392S11658999EA0085800962000004000000
B0607483205343S11659037EA0086300965000004000000
B0607523205336S11659102EA0086000960000004000000
B0607563205374S11659150EA0086300968000004000000
B0608003205428S11659166EA0087900982000004000000
B0608043205480S11659132EA0088600987000004000000
B0608083205496S11659054EA0088100980000004000000
B0608123205457S11658979EA0087200974000004000000
B0608163205395S11658957EA0087800984000004000000
B0608203205332S11658977EA0088300985000004000000
B0608243205274S11659011EA0088800989000004000000
B0608283205228S11659061EA0089100993000004000000
B0608323205230S11659122EA0089300995000004000000
B0608363205269S11659137EA0090301004000004000000
B0608403205301S11659084EA0089600995000004000000
B0608443205295S11658997EA0089000994000004000000
B0608483205270S11658907EA0088900994000004000000
B0608523205230S11658819EA0088400987000004000000
B0608563205183S11658732EA0087700983000004000000
B0609003205133S11658650EA0088000987000004000000
B0609043205088S11658569EA0088400988000004000000
B0609083205045S11658486EA0088400988000004000000
B0609123205007S11658405EA0088800996000004000000
B0609163204971S11658336EA0091601020000004000000
B0609203204924S11658304EA0092901030000004000000
B0609243204875S11658321EA0092901027000004000000
B0609283204863S11658372EA0092201020000004000000
B0609323204899S11658401EA0091801015000004000000
B0609363204946S11658375EA0091801017000004000000
B0609403204977S11658318EA0091901019000004000000
B0609443204998S11658247EA0092001023000004000000
B0609483205020S11658174EA0092501029000004000000
B0609523205044S11658100EA0092701029000004000000
B0609563205074S11658030EA0092501025000004000000
B0610003205107S11657961EA0091801016000004000000
B0610043205141S11657891EA0090801006000004000000
B0610083205179S11657818EA0090001000000004000000
B0610123205223S11657750EA0089801000000004000000
B0610163205269S11657685EA0089700995000004000000
B0610203205315S11657618EA0088900989000004000000
B0610243205362S11657553EA0088600984000004000000
B0610283205408S11657486EA0088200982000004000000
B0610323205452S11657421EA0088100980000004000000
B0610363205492S11657354EA0088200981000004000000
B0610403205529S11657283EA0088300981000004000000
B0610443205542S11657204EA0088500983000004000000
B0610483205519S11657125EA0088400979000004000000
B0610523205482S11657048EA0087800975000004000000
B0610563205426S11657004EA0088200979000004000000
B0611003205363S11657010EA0087700969000004000000
B0611043205301S11657047EA0085800955000004000000
B0611083205241S11657091EA0085500957000004000000
B0611123205185S11657131EA0085100948000004000000
B0611163205126S11657170EA0084100937000004000000
B0611203205075S11657225EA0083700936000004000000
B0611243205041S11657287EA0084200946000004000000
B0611283205019S11657350EA0084600947000004000000
B0611323205006S11657416EA0084300947000004000000
B0611363204990S11657481EA0084800952000004000000
B0611403204973S11657543EA0085200953000004000000
B0611443204959S11657608EA0084400944000004000000
B0611483204941S11657672EA0083900942000004000000
B0611523204921S11657736EA0083400935000004000000
B0611563204899S11657800EA0082500927000004000000
B0612003204875S11657867EA0082500930000004000000
B0612043204854S11657923EA0084600953000004000000
B0612083204880S11657957EA0086300963000004000000
B0612123204923S11657922EA0086600964000004000000
B0612163204918S11657846EA0086500966000004000000
B0612203204863S11657813EA0087100975000004000000
B0612243204819S11657841EA0088000981000004000000
B0612283204828S11657889EA0088300984000004000000
B0612323204876S11657881EA0088900990000004000000
B0612363204893S11657814EA0089400993000004000000
B0612403204855S11657753EA0089600997000004000000
B0612443204798S11657750EA0090401003000004000000
B0612483204764S11657798EA0090501003000004000000
B0612523204780S11657850EA0091101015000004000000
B0612563204825S11657848EA0092101025000004000000
B0613003204853S11657788EA0092501025000004000000
B0613043204817S11657725EA0092701030000004000000
B0613083204764S11657731EA0093301036000004000000
B0613123204758S11657783EA0093601035000004000000
B0613163204801S11657796EA0094401045000004000000
B0613203204830S11657746EA0095001052000004000000
B0613243204812S11657679EA0094901049000004000000
B0613283204758S11657654EA0095201053000004000000
B0613323204707S11657683EA0094801045000004000000
B0613363204659S11657733EA0093201029000004000000
B0613403204611S11657796EA0092001015000004000000
B0613443204561S11657862EA0090601004000004000000
B0613483204512S11657931EA0089701001000004000000
B0613523204466S11657995EA0089801003000004000000
B0613563204425S11658057EA0089500997000004000000
B0614003204382S11658117EA0089000992000004000000
B0614043204338S11658177EA0088400985000004000000
B0614083204288S11658238EA0087500978000004000000
B0614123204240S11658299EA0087600982000004000000
B0614163204195S11658360EA0087600979000004000000
B0614203204147S11658418EA0087700983000004000000
B0614243204099S11658472EA0088600989000004000000
B0614283204056S11658530EA0088400985000004000000
B0614323204015S11658593EA0088200989000004000000
B0614363203980S11658648EA0089100995000004000000
B0614403203949S11658702EA0089000991000004000000
B0614443203924S11658763EA0087800977000004000000
B0614483203920S11658833EA0087600981000004000000
B0614523203936S11658898EA0088000983000004000000
B0614563203958S11658959EA0088000982000004000000
B0615003203983S11659016EA0087800983000004000000
B0615043204009S11659075EA0088000978000004000000
B0615083204043S11659129EA0087300971000004000000
B0615123204088S11659166EA0086900970000004000000
B0615163204144S11659159EA0086600965000004000000
B0615203204200S11659124EA0085200953000004000000
B0615243204256S11659083EA0084900950000004000000
B0615283204309S11659035EA0084300937000004000000
B0615323204364S11658979EA0083000927000004000000
B0615363204418S11658923EA0082000915000004000000
B0615403204474S11658876EA0082000920000004000000
B0615443204529S11658836EA0082300923000004000000
B0615483204583S11658794EA0082100921000004000000
B0615523204638S11658752EA0081900919000004000000
B0615563204698S11658713EA0081500913000004000000
B0616003204755S11658669EA0081100914000004000000
B0616043204807S11658626EA0081400914000004000000
B0616083204859S11658586EA0080800904000004000000
B0616123204915S11658547EA0079500892000004000000
B0616163204971S11658504EA0079000890000004000000
B0616203205025S11658459EA0078300883000004000000
B0616243205081S11658411EA0077800879000004000000
B0616283205137S11658362EA0077600875000004000000
B0616323205189S11658308EA0077600876000004000000
B0616363205222S11658235EA0078000885000004000000
B0616403205252S11658160EA0078500886000004000000
B0616443205262S11658079EA0079700899000004000000
B0616483205222S11658028EA0081000906000004000000
B0616523205171S11658039EA0080600902000004000000
B0616563205148S11658089EA0080300902000004000000
B0617003205158S11658145EA0080600908000004000000
B0617043205206S11658148EA0081600916000004000000
B0617083205218S11658078EA0081700918000004000000
B0617123205166S11658047EA0082100923000004000000
B0617163205137S11658092EA0082500925000004000000
B0617203205166S11658135EA0083100932000004000000
B0617243205217S11658115EA0083800940000004000000
B0617283205232S11658044EA0083800940000004000000
B0617323205189S11657984EA0084100943000004000000
B0617363205132S11657988EA0084000942000004000000
B0617403205106S11658036EA0084400952000004000000
B0617443205119S11658084EA0085700961000004000000
B0617483205166S11658093EA0086100964000004000000
B0617523205201S11658039EA0086000957000004000000
B0617563205180S11657957EA0085300954000004000000
B0618003205119S11657922EA0086000962000004000000
B0618043205057S11657936EA0086200965000004000000
B0618083205038S11657989EA0087100977000004000000
B0618123205083S11658008EA0087400976000004000000
B0618163205133S11657952EA0086400961000004000000
B0618203205136S11657853EA0085300961000004000000
B0618243205096S11657766EA0085800963000004000000
B0618283205028S11657715EA0086000969000004000000
B0618323204958S11657710EA0087200981000004000000
B0618363204902S11657736EA0088300988000004000000
B0618403204863S11657779EA0088900995000004000000
B0618443204846S11657831EA0089200995000004000000
B0618483204853S11657887EA0088800990000004000000
B0618523204881S11657933EA0088900993000004000000
B0618563204923S11657952EA0089300994000004000000
B0619003204976S11657930EA0088600986000004000000
B0619043205018S11657865EA0088200988000004000000
B0619083205018S11657780EA0088900996000004000000
B0619123204983S11657711EA0090001004000004000000
B0619163204924S11657673EA0090001003000004000000
B0619203204859S11657672EA0089801003000004000000
B0619243204806S11657705EA0090001004000004000000
B0619283204778S11657759EA0090001004000004000000
B0619323204788S11657816EA0089701001000004000000
B0619363204829S11657850EA0089701003000004000000
B0619403204881S11657846EA0090201009000004000000
B0619443204928S11657807EA0090901015000004000000
B0619483204953S11657740EA0091401019000004000000
B0619523204945S11657663EA0091601021000004000000
B0619563204905S11657601EA0091701019000004000000
B0620003204845S11657577EA0091201014000004000000
B0620043204786S11657599EA0090301003000004000000
B0620083204745S11657654EA0089600999000004000000
B0620123204741S11657720EA0089400998000004000000
B0620163204775S11657767EA0089701002000004000000
B0620203204827S11657777EA0090601011000004000000
B0620243204868S11657741EA0091501021000004000000
B0620283204868S11657668EA0091901022000004000000
B0620323204817S11657618EA0091301013000004000000
B0620363204751S11657623EA0090301004000004000000
B0620403204702S11657673EA0089400997000004000000
B0620443204677S11657742EA0089200998000004000000
B0620483204681S11657807EA0089601000000004000000
B0620523204713S11657852EA0089600998000004000000
B0620563204763S11657845EA0088800989000004000000
B0621003204794S11657783EA0087800980000004000000
B0621043204789S11657698EA0086800974000004000000
B0621083204767S11657614EA0086800976000004000000
B0621123204736S11657530EA0086400971000004000000
B0621163204697S11657450EA0085900965000004000000
B0621203204651S11657371EA0085400958000004000000
B0621243204603S11657293EA0084500948000004000000
B0621283204561S11657205EA0083600942000004000000
B0621323204522S11657121EA0083500940000004000000
B0621363204474S11657046EA0083700944000004000000
B0621403204421S11656981EA0084400949000004000000
B0621443204357S11656934EA0084800951000004000000
B0621483204291S11656927EA0085600968000004000000
B0621523204253S11656964EA0087000976000004000000
B0621563204256S11657016EA0087100974000004000000
B0622003204294S11657052EA0086900972000004000000
B0622043204346S11657059EA0087000974000004000000
B0622083204396S11657031EA0087400981000004000000
B0622123204414S11656971EA0087900985000004000000
B0622163204395S11656905EA0087800982000004000000
B0622203204347S11656862EA0088100986000004000000
B0622243204295S11656870EA0088800992000004000000
B0622283204269S11656913EA0089100993000004000000
B0622323204287S11656957EA0088900992000004000000
B0622363204335S11656961EA0088700992000004000000
B0622403204383S11656930EA0089100996000004000000
B0622443204408S11656870EA0089200997000004000000
B0622483204412S11656797EA0089200994000004000000
B0622523204411S11656719EA0088500989000004000000
B0622563204407S11656640EA0088000984000004000000
B0623003204401S11656557EA0087100974000004000000
B0623043204392S11656472EA0086600968000004000000
B0623083204383S11656390EA0086300967000004000000
B0623123204378S11656310EA0086100963000004000000
B0623163204378S11656228EA0085600960000004000000
B0623203204378S11656147EA0085500953000004000000
B0623243204387S11656067EA0084600947000004000000
B0623283204403S11655986EA0084500946000004000000
B0623323204418S11655913EA0085400956000004000000
B0623363204434S11655844EA0085800956000004000000
B0623403204452S11655774EA0085300954000004000000
B0623443204472S11655701EA0085300954000004000000
B0623483204487S11655627EA0085500956000004000000
B0623523204496S11655552EA0085600955000004000000
B0623563204502S11655473EA0085900957000004000000
B0624003204486S11655401EA0086900970000004000000
B0624043204438S11655367EA0087400973000004000000
B0624083204390S11655393EA0087400973000004000000
B0624123204387S11655444EA0087700975000004000000
B0624163204429S11655462EA0087400971000004000000
B0624203204474S11655430EA0087400973000004000000
B0624243204502S11655370EA0087600974000004000000
B0624283204515S11655294EA0087200969000004000000
B0624323204526S11655216EA0087100971000004000000
B0624363204530S11655136EA0086900968000004000000
B0624403204547S11655058EA0086800969000004000000
B0624443204570S11654985EA0087000970000004000000
B0624483204596S11654912EA0086300959000004000000
B0624523204629S11654841EA0085500952000004000000
B0624563204676S11654785EA0084900947000004000000
B0625003204733S11654751EA0084700947000004000000
B0625043204791S11654730EA0085100955000004000000
B0625083204845S11654715EA0086400966000004000000
B0625123204886S11654670EA0087300977000004000000
B0625163204886S11654594EA0087400975000004000000
B0625203204847S11654525EA0086700970000004000000
B0625243204781S11654496EA0086900976000004000000
B0625283204726S11654522EA0088100986000004000000
B0625323204719S11654577EA0088400986000004000000
B0625363204749S11654622EA0088100983000004000000
B0625403204790S11654651EA0088400984000004000000
B0625443204843S11654639EA0088400987000004000000
B0625483204876S11654579EA0089100997000004000000
B0625523204855S11654511EA0090101005000004000000
B0625563204799S11654486EA0090201004000004000000
B0626003204750S11654518EA0089801000000004000000
B0626043204737S11654578EA0089801003000004000000
B0626083204767S11654622EA0090201005000004000000
B0626123204821S11654618EA0090601011000004000000
B0626163204858S11654563EA0091501021000004000000
B0626203204850S11654487EA0092301029000004000000
B0626243204803S11654444EA0093101035000004000000
B0626283204754S11654466EA0093001033000004000000
B0626323204745S11654525EA0093201034000004000000
B0626363204781S11654557EA0093601041000004000000
B0626403204829S11654535EA0094101046000004000000
B0626443204845S11654470EA0094801054000004000000
B0626483204808S11654416EA0095401060000004000000
B0626523204756S11654425EA0095501057000004000000
B0626563204741S11654482EA0095201056000004000000
B0627003204773S11654525EA0095801064000004000000
B0627043204824S11654517EA0096901076000004000000
B0627083204849S11654459EA0097501079000004000000
B0627123204820S11654392EA0097401083000004000000
B0627163204764S11654387EA0098101087000004000000
B0627203204734S11654434EA0098401088000004000000
B0627243204750S11654487EA0098301088000004000000
B0627283204801S11654501EA0098901093000004000000
B0627323204842S11654451EA0098801093000004000000
B0627363204829S11654370EA0098801096000004000000
B0627403204773S11654330EA0099901108000004000000
B0627443204724S11654348EA0100701114000004000000
B0627483204710S11654403EA0100901114000004000000
B0627523204734S11654449EA0100901116000004000000
B0627563204782S11654448EA0101501122000004000000
B0628003204819S11654397EA0102201127000004000000
B0628043204816S11654319EA0102201126000004000000
B0628083204775S11654257EA0102101127000004000000
B0628123204713S11654249EA0102101128000004000000
B0628163204673S11654290EA0102801134000004000000
B0628203204669S11654344EA0103301136000004000000
B0628243204703S11654379EA0102801134000004000000
B0628283204754S11654373EA0102901135000004000000
B0628323204793S11654325EA0103401142000004000000
B0628363204801S11654252EA0104001144000004000000
B0628403204768S11654182EA0103701140000004000000
B0628443204707S11654150EA0103301137000004000000
B0628483204648S11654174EA0103301139000004000000
B0628523204621S11654232EA0103601140000004000000
B0628563204635S11654288EA0103701143000004000000
B0629003204677S11654319EA0103901144000004000000
B0629043204728S11654326EA0104201144000004000000
B0629083204777S11654303EA0104501151000004000000
B0629123204808S11654247EA0105201155000004000000
B0629163204816S11654169EA0105101152000004000000
B0629203204797S11654088EA0104301148000004000000
B0629243204750S11654030EA0104701152000004000000
B0629283204691S11654014EA0104701150000004000000
B0629323204642S11654044EA0104401148000004000000
B0629363204612S11654098EA0103901145000004000000
B0629403204609S11654163EA0103801143000004000000
B0629443204637S11654214EA0104001145000004000000
B0629483204687S11654231EA0104301147000004000000
B0629523204739S11654210EA0104501151000004000000
B0629563204777S11654153EA0104501148000004000000
B0630003204784S11654076EA0104301148000004000000
B0630043204759S11654004EA0104401150000004000000
B0630083204708S11653952EA0104201147000004000000
B0630123204646S11653941EA0104001145000004000000
B0630163204595S11653974EA0104001148000004000000
B0630203204569S11654031EA0104301149000004000000
B0630243204576S11654092EA0104101143000004000000
B0630283204613S11654137EA0103601140000004000000
B0630323204668S11654143EA0103701144000004000000
B0630363204716S11654104EA0103801140000004000000
B0630403204741S11654028EA0102501128000004000000
B0630443204728S11653946EA0102301129000004000000
B0630483204690S11653883EA0102201128000004000000
B0630523204635S11653845EA0101901122000004000000
B0630563204574S11653841EA0101601118000004000000
B0631003204521S11653872EA0101301118000004000000
B0631043204483S11653924EA0101301120000004000000
B0631083204457S11653981EA0101801125000004000000
B0631123204431S11654037EA0101301115000004000000
B0631163204405S11654097EA0100401107000004000000
B0631203204379S11654156EA0099901105000004000000
B0631243204357S11654214EA0099801103000004000000
B0631283204335S11654271EA0099601097000004000000
B0631323204313S11654330EA0098601088000004000000
B0631363204286S11654394EA0098001084000004000000
B0631403204255S11654453EA0098001086000004000000
B0631443204225S11654511EA0097901085000004000000
B0631483204192S11654566EA0097301076000004000000
B0631523204154S11654625EA0096601074000004000000
B0631563204113S11654678EA0097101079000004000000
B0632003204070S11654726EA0097901087000004000000
B0632043204028S11654773EA0098101086000004000000
B0632083203983S11654824EA0097501076000004000000
B0632123203937S11654882EA0096201065000004000000
B0632163203894S11654945EA0095501062000004000000
B0632203203853S11655006EA0095501061000004000000
B0632243203814S11655066EA0095401060000004000000
B0632283203776S11655127EA0094701052000004000000
B0632323203737S11655189EA0094001044000004000000
B0632363203699S11655254EA0093601039000004000000
B0632403203658S11655318EA0093101035000004000000
B0632443203606S11655371EA0092601031000004000000
B0632483203543S11655409EA0092101021000004000000
B0632523203476S11655445EA0090601008000004000000
B0632563203411S11655495EA0089801004000004000000
B0633003203360S11655556EA0090401013000004000000
B0633043203319S11655619EA0091301020000004000000
B0633083203285S11655687EA0090701012000004000000
B0633123203252S11655759EA0089901004000004000000
B0633163203216S11655833EA0089400998000004000000
B0633203203169S11655902EA0088801000000004000000
B0633243203116S11655959EA0089901010000004000000
B0633283203060S11656004EA0090301009000004000000
B0633323202999S11656046EA0089500997000004000000
B0633363202932S11656090EA0088100986000004000000
B0633403202864S11656133EA0087200980000004000000
B0633443202792S11656171EA0086700973000004000000
B0633483202721S11656203EA0086000966000004000000
B0633523202648S11656236EA0085500965000004000000
B0633563202579S11656266EA0085900969000004000000
B0634003202514S11656292EA0086000965000004000000
B0634043202448S11656316EA0085000955000004000000
B0634083202377S11656340EA0084600952000004000000
B0634123202310S11656360EA0084900957000004000000
B0634163202242S11656377EA0085100956000004000000
B0634203202175S11656396EA0085300958000004000000
B0634243202104S11656402EA0085600963000004000000
B0634283202045S11656363EA0086600974000004000000
B0634323202028S11656289EA0087600986000004000000
B0634363202058S11656228EA0088700989000004000000
B0634403202111S11656208EA0088500987000004000000
B0634443202156S11656233EA0088800991000004000000
B0634483202177S11656280EA0089400996000004000000
B0634523202173S11656336EA0089800999000004000000
B0634563202147S11656385EA0090001003000004000000
B0635003202099S11656412EA0090001006000004000000
B0635043202045S11656397EA0090601010000004000000
B0635083202013S11656334EA0090601006000004000000
B0635123202026S11656260EA0090501008000004000000
B0635163202077S11656224EA0090901012000004000000
B0635203202129S11656234EA0091601017000004000000
B0635243202158S11656280EA0092001022000004000000
B0635283202151S11656338EA0092101020000004000000
B0635323202112S11656386EA0092101022000004000000
B0635363202063S11656425EA0091901023000004000000
B0635403202004S11656442EA0091901022000004000000
B0635443201944S11656418EA0091701021000004000000
B0635483201903S11656355EA0091401018000004000000
B0635523201894S11656273EA0090901014000004000000
B0635563201917S11656199EA0090901013000004000000
B0636003201969S11656154EA0090801012000004000000
B0636043202030S11656152EA0091201017000004000000
B0636083202084S11656178EA0092001025000004000000
B0636123202123S11656217EA0092701031000004000000
B0636163202132S11656273EA0092901034000004000000
B0636203202103S11656324EA0093201038000004000000
B0636243202046S11656337EA0093601039000004000000
B0636283201989S11656299EA0093001033000004000000
B0636323201952S11656227EA0092301030000004000000
B0636363201955S11656142EA0092401032000004000000
B0636403201990S11656072EA0093101040000004000000
B0636443202043S11656037EA0094201047000004000000
B0636483202098S11656045EA0094601048000004000000
B0636523202133S11656087EA0094601052000004000000
B0636563202133S11656149EA0094601043000004000000
B0637003202087S11656199EA0093501040000004000000
B0637043202020S11656207EA0094101050000004000000
B0637083201957S11656178EA0095001056000004000000
B0637123201913S11656113EA0094701051000004000000
B0637163201907S11656029EA0094701055000004000000
B0637203201942S11655963EA0095501059000004000000
B0637243201999S11655939EA0095701061000004000000
B0637283202050S11655965EA0095901060000004000000
B0637323202080S11656020EA0095901059000004000000
B0637363202102S11656080EA0095701064000004000000
B0637403202120S11656139EA0096601072000004000000
B0637443202147S11656193EA0097501080000004000000
B0637483202193S11656219EA0098601093000004000000
B0637523202238S11656186EA0099601100000004000000
B0637563202247S11656115EA0099801102000004000000
B0638003202217S11656046EA0099501097000004000000
B0638043202160S11656020EA0099101094000004000000
B0638083202107S11656046EA0098501090000004000000
B0638123202074S11656104EA0098401092000004000000
B0638163202069S11656171EA0098801097000004000000
B0638203202093S11656228EA0099601104000004000000
B0638243202139S11656262EA0100001105000004000000
B0638283202197S11656259EA0100401109000004000000
B0638323202246S11656215EA0099601099000004000000
B0638363202295S11656158EA0098301081000004000000
B0638403202355S11656104EA0096601069000004000000
B0638443202424S11656063EA0095901065000004000000
B0638483202497S11656035EA0095201056000004000000
B0638523202572S11656012EA0094401049000004000000
B0638563202644S11655981EA0094201051000004000000
B0639003202710S11655942EA0094201049000004000000
B0639043202770S11655894EA0093601042000004000000
B0639083202827S11655844EA0093601042000004000000
B0639123202890S11655809EA0093401040000004000000
B0639163202955S11655803EA0093701048000004000000
B0639203203007S11655831EA0095201068000004000000
B0639243203025S11655883EA0097001082000004000000
B0639283203000S11655930EA0097701084000004000000
B0639323202944S11655938EA0097601085000004000000
B0639363202900S11655890EA0097701082000004000000
B0639403202892S11655820EA0097201077000004000000
B0639443202925S11655765EA0097201079000004000000
B0639483202975S11655746EA0097601085000004000000
B0639523203025S11655757EA0098301091000004000000
B0639563203070S11655782EA0098801096000004000000
B0640003203105S11655821EA0099101099000004000000
B0640043203113S11655878EA0099601104000004000000
B0640083203087S11655930EA0100001108000004000000
B0640123203033S11655950EA0100201108000004000000
B0640163202973S11655925EA0100101109000004000000
B0640203202934S11655860EA0100401116000004000000
B0640243202929S11655787EA0101201120000004000000
B0640283202955S11655723EA0101301116000004000000
B0640323203001S11655681EA0101101118000004000000
B0640363203057S11655661EA0101801121000004000000
B0640403203113S11655666EA0101801122000004000000
B0640443203161S11655697EA0101501118000004000000
B0640483203190S11655748EA0101101118000004000000
B0640523203196S11655809EA0101401122000004000000
B0640563203185S11655872EA0101201115000004000000
B0641003203151S11655930EA0100501113000004000000
B0641043203100S11655969EA0100701115000004000000
B0641083203042S11655983EA0100701115000004000000
B0641123202977S11655985EA0100001106000004000000
B0641163202906S11655976EA0098701094000004000000
B0641203202835S11655948EA0097801088000004000000
B0641243202774S11655896EA0097201082000004000000
B0641283202731S11655827EA0096901079000004000000
B0641323202710S11655746EA0096701077000004000000
B0641363202705S11655664EA0096501073000004000000
B0641403202713S11655584EA0096201071000004000000
B0641443202726S11655505EA0096401071000004000000
B0641483202737S11655427EA0096301072000004000000
B0641523202745S11655348EA0096401069000004000000
B0641563202749S11655265EA0095901065000004000000
B0642003202754S11655183EA0095601061000004000000
B0642043202760S11655102EA0094801052000004000000
B0642083202754S11655021EA0094401049000004000000
B0642123202743S11654940EA0094101043000004000000
B0642163202732S11654852EA0094201047000004000000
B0642203202696S11654780EA0094701055000004000000
B0642243202626S11654755EA0094201042000004000000
B0642283202562S11654794EA0093701045000004000000
B0642323202537S11654862EA0094501054000004000000
B0642363202549S11654923EA0094401049000004000000
B0642403202584S11654971EA0093701038000004000000
B0642443202626S11655015EA0092501027000004000000
B0642483202663S11655067EA0091201012000004000000
B0642523202697S11655127EA0089601000000004000000
B0642563202732S11655188EA0088700995000004000000
B0643003202771S11655249EA0088400993000004000000
B0643043202808S11655310EA0088400996000004000000
B0643083202838S11655371EA0089301004000004000000
B0643123202864S11655427EA0090601022000004000000
B0643163202893S11655461EA0092801039000004000000
B0643203202935S11655445EA0093501043000004000000
B0643243202953S11655387EA0093401042000004000000
B0643283202927S11655323EA0093401043000004000000
B0643323202873S11655300EA0093501046000004000000
B0643363202828S11655331EA0094101055000004000000
B0643403202830S11655380EA0094901058000004000000
B0643443202870S11655397EA0094901059000004000000
B0643483202912S11655363EA0095501066000004000000
B0643523202930S11655304EA0095501066000004000000
B0643563202910S11655235EA0095401064000004000000
B0644003202858S11655190EA0095501069000004000000
B0644043202805S11655198EA0096801081000004000000
B0644083202784S11655248EA0097201079000004000000
B0644123202810S11655293EA0096901076000004000000
B0644163202860S11655283EA0096901079000004000000
