ACAM4N6
HFDTE130614
HFFXA050
HFPLTPILOT:JOHN WELSH              
HFGTYGLIDERTYPE:HORNET      
HFGIDGLIDERID:VH-GMY      
HFDTM100GPSDATUM:
HFRFWFIRMWAREVERSION:F2.6
HFRHWHARDWAREVERSION:300 Series Version 2
HFFTYFRTYPE:CAMBRIDGE AERO INSTRUMENTS, 302+
HFGPS:GARMIN,LVS-25,12,18000
HFPRSPRESSALTSENSOR:INTERSEMA, MS5534-AP, 20000
I033638FXA3941ENL4247REX
LCAMSBVER:5FWVER:F26300
C150314043206150314000103
C0000000N00000000WTAKEOFF     
C3207547S11656879EBeverley Air
C3137397S11712959ECunderdin Ai
C3256165S11710679ENarrogin Sil
C3255535S11704919ENarrogin Aer
C3207547S11656879EBeverley Air
C0000000N00000000WLANDING     
B0452373207336S11656860EA0006800217000004000000
B0452393207336S11656860EA0006800217000004000000
B0452413207336S11656860EA0006700217000004000000
B0452433207336S11656860EA0006800217000004000000
B0452453207336S11656860EA0006900217000004000000
B0452473207336S11656860EA0006900217000004000000
B0452493207336S11656860EA0006800217000004000000
B0452513207336S11656860EA0006900217000004000000
B0452533207336S11656860EA0006800217000004000000
B0452553207336S11656860EA0006800217000004000000
B0452573207336S11656860EA0006800217000004000000
B0452593207336S11656860EA0006800217000004000000
B0453013207336S11656860EA0006800217000004000000
B0453033207336S11656860EA0006600217000004000000
B0453053207337S11656860EA0006700217000004000000
B0453083207346S11656867EA0006900216000004000000
B0453123207372S11656890EA0006500215000004000000
B0453163207416S11656921EA0006500214000004000000
B0453203207476S11656956EA0006300214000004000000
B0453243207545S11657000EA0006400214000004000000
B0453283207618S11657049EA0007000217000004000000
B0453323207690S11657103EA0008300231000004000000
B0453363207758S11657159EA0010200253000004000000
B0453403207820S11657216EA0013000280000004000000
B0453443207882S11657276EA0015200301000004000000
B0453483207944S11657337EA0017100320000004000000
B0453523208009S11657395EA0019000339000004000000
B0453563208069S11657451EA0021700367000004000000
B0454003208125S11657508EA0024100389000004000000
B0454043208181S11657568EA0026000411000004000000
B0454083208234S11657628EA0028800439000004000000
B0454123208290S11657688EA0030500456000004000000
B0454163208346S11657745EA0032500474000004000000
B0454203208405S11657801EA0033900489000004000000
B0454243208468S11657858EA0035000498000004000000
B0454283208530S11657922EA0035900508000004000000
B0454323208573S11658002EA0037600526000004000000
B0454363208590S11658093EA0040000549000004000000
B0454403208587S11658187EA0041500570000004000000
B0454443208569S11658278EA0043700589000004000000
B0454483208539S11658370EA0045200604000004000000
B0454523208493S11658457EA0046800619000004000000
B0454563208434S11658535EA0048900641000004000000
B0455003208370S11658602EA0051700669000004000000
B0455043208301S11658659EA0054500695000004000000
B0455083208229S11658704EA0056300711000004000000
B0455123208148S11658733EA0058400731000004000000
B0455163208065S11658742EA0060100749000004000000
B0455203207979S11658728EA0061300764000004000000
B0455243207897S11658685EA0062800776000004000000
B0455283207826S11658620EA0063900787000004000000
B0455323207765S11658544EA0065500807000004000000
B0455363207726S11658457EA0067900831000004000000
B0455403207716S11658361EA0070400856000004000000
B0455443207733S11658262EA0072500873000004000000
B0455483207776S11658173EA0074100891000004000000
B0455523207841S11658108EA0076200911000004000000
B0455563207918S11658074EA0078700935000004000000
B0456003207999S11658065EA0080300953000004000000
B0456043208078S11658082EA0081700968000004000000
B0456083208144S11658130EA0083900987000004000000
B0456123208191S11658206EA0085401000000004000000
B0456163208214S11658301EA0086201009000004000000
B0456203208209S11658395EA0088401035000004000000
B0456243208187S11658487EA0090001046000004000000
B0456283208144S11658568EA0091701065000004000000
B0456323208082S11658633EA0093301080000004000000
B0456363208014S11658689EA0093801085000004000000
B0456403207948S11658750EA0092001069000004000000
B0456443207884S11658811EA0092201075000004000000
B0456483207831S11658859EA0094401091000004000000
B0456523207780S11658898EA0094801088000004000000
B0456563207727S11658942EA0093601075000004000000
B0457003207672S11658990EA0092801072000004000000
B0457043207618S11659037EA0092701071000004000000
B0457083207560S11659080EA0092401068000004000000
B0457123207502S11659119EA0092101063000004000000
B0457163207443S11659159EA0091701058000004000000
B0457203207384S11659197EA0091601056000004000000
B0457243207329S11659246EA0091401057000004000000
B0457283207313S11659315EA0092401068000004000000
B0457323207343S11659369EA0093101074000004000000
B0457363207394S11659374EA0093501076000004000000
B0457403207430S11659332EA0093501075000004000000
B0457443207432S11659272EA0093501074000004000000
B0457483207399S11659223EA0093301070000004000000
B0457523207347S11659200EA0092901067000004000000
B0457563207289S11659196EA0092601065000004000000
B0458003207230S11659214EA0092901067000004000000
B0458043207203S11659272EA0093401079000004000000
B0458083207237S11659317EA0095001094000004000000
B0458123207280S11659282EA0095601095000004000000
B0458163207267S11659211EA0095301094000004000000
B0458203207211S11659178EA0095801105000004000000
B0458243207159S11659204EA0097501119000004000000
B0458283207135S11659262EA0097601115000004000000
B0458323207154S11659317EA0097701121000004000000
B0458363207206S11659314EA0098701128000004000000
B0458403207232S11659256EA0099001135000004000000
B0458443207206S11659192EA0099501140000004000000
B0458483207146S11659172EA0100301148000004000000
B0458523207094S11659206EA0100201144000004000000
B0458563207077S11659270EA0100101142000004000000
B0459003207109S11659318EA0100201141000004000000
B0459043207161S11659311EA0100701147000004000000
B0459083207187S11659257EA0101701159000004000000
B0459123207167S11659196EA0102701169000004000000
B0459163207111S11659179EA0103001168000004000000
B0459203207061S11659218EA0102601162000004000000
B0459243207059S11659282EA0102701164000004000000
B0459283207098S11659322EA0102701162000004000000
B0459323207155S11659323EA0102201157000004000000
B0459363207207S11659285EA0102101160000004000000
B0459403207224S11659215EA0102701164000004000000
B0459443207187S11659152EA0102501165000004000000
B0459483207128S11659148EA0104201180000004000000
B0459523207098S11659201EA0104401177000004000000
B0459563207112S11659265EA0103301166000004000000
B0500003207160S11659308EA0103201171000004000000
B0500043207216S11659293EA0104001176000004000000
B0500083207246S11659235EA0103901174000004000000
B0500123207230S11659161EA0103601171000004000000
B0500163207174S11659115EA0103301170000004000000
B0500203207109S11659132EA0103801173000004000000
B0500243207076S11659198EA0103701168000004000000
B0500283207094S11659271EA0103301165000004000000
B0500323207151S11659302EA0103301167000004000000
B0500363207215S11659304EA0103801173000004000000
B0500403207268S11659265EA0104301177000004000000
B0500443207298S11659197EA0103301169000004000000
B0500483207306S11659114EA0102201160000004000000
B0500523207286S11659027EA0101601151000004000000
B0500563207248S11658944EA0101201149000004000000
B0501003207203S11658866EA0101201147000004000000
B0501043207154S11658788EA0100201136000004000000
B0501083207098S11658707EA0099001127000004000000
B0501123207038S11658625EA0098501124000004000000
B0501163206977S11658548EA0098201113000004000000
B0501203206904S11658490EA0098501124000004000000
B0501243206827S11658447EA0099701135000004000000
B0501283206751S11658420EA0101001146000004000000
B0501323206705S11658469EA0103701177000004000000
B0501363206723S11658528EA0105501185000004000000
B0501403206777S11658547EA0104901180000004000000
B0501443206836S11658529EA0104401170000004000000
B0501483206878S11658463EA0102701156000004000000
B0501523206884S11658362EA0101201146000004000000
B0501563206871S11658256EA0101401147000004000000
B0502003206884S11658158EA0102701171000004000000
B0502043206931S11658105EA0106001199000004000000
B0502083206987S11658092EA0106601195000004000000
B0502123207052S11658100EA0104501172000004000000
B0502163207125S11658095EA0101401144000004000000
B0502203207204S11658083EA0100301138000004000000
B0502243207280S11658065EA0100701142000004000000
B0502283207355S11658048EA0101201150000004000000
B0502323207429S11658031EA0101801151000004000000
B0502363207503S11658004EA0101601148000004000000
B0502403207558S11657943EA0101501146000004000000
B0502443207568S11657855EA0102201154000004000000
B0502483207531S11657789EA0103101164000004000000
B0502523207469S11657777EA0103701167000004000000
B0502563207428S11657827EA0103301160000004000000
B0503003207434S11657901EA0102201148000004000000
B0503043207476S11657966EA0101201141000004000000
B0503083207528S11658026EA0100701137000004000000
B0503123207580S11658083EA0100101133000004000000
B0503163207631S11658139EA0099701131000004000000
B0503203207684S11658192EA0099601129000004000000
B0503243207741S11658239EA0098901119000004000000
B0503283207800S11658291EA0097401106000004000000
B0503323207854S11658349EA0096501099000004000000
B0503363207904S11658411EA0096101096000004000000
B0503403207948S11658476EA0095901092000004000000
B0503443207987S11658544EA0095101082000004000000
B0503483208025S11658617EA0094501079000004000000
B0503523208062S11658689EA0094101074000004000000
B0503563208101S11658758EA0093401068000004000000
B0504003208139S11658825EA0093001065000004000000
B0504043208178S11658893EA0092601060000004000000
B0504083208217S11658959EA0092101055000004000000
B0504123208256S11659027EA0091301045000004000000
B0504163208298S11659096EA0090901043000004000000
B0504203208340S11659161EA0090701038000004000000
B0504243208383S11659227EA0090201036000004000000
B0504283208425S11659293EA0090201035000004000000
B0504323208464S11659362EA0090101035000004000000
B0504363208500S11659431EA0090001033000004000000
B0504403208538S11659497EA0089801031000004000000
B0504443208574S11659558EA0090901044000004000000
B0504483208610S11659613EA0091701049000004000000
B0504523208655S11659656EA0091701050000004000000
B0504563208708S11659673EA0092601060000004000000
B0505003208734S11659620EA0093801074000004000000
B0505043208694S11659575EA0094501078000004000000
B0505083208637S11659596EA0094701079000004000000
B0505123208624S11659656EA0095101081000004000000
B0505163208663S11659690EA0095401087000004000000
B0505203208704S11659666EA0096001093000004000000
B0505243208706S11659601EA0096801100000004000000
B0505283208656S11659569EA0097201104000004000000
B0505323208606S11659603EA0097501106000004000000
B0505363208603S11659662EA0097801108000004000000
B0505403208646S11659692EA0097501104000004000000
B0505443208701S11659670EA0097301105000004000000
B0505483208727S11659607EA0098201115000004000000
B0505523208685S11659565EA0099601128000004000000
B0505563208636S11659599EA0099701128000004000000
B0506003208637S11659665EA0100001131000004000000
B0506043208681S11659695EA0101301144000004000000
B0506083208727S11659666EA0101801150000004000000
B0506123208732S11659601EA0102301155000004000000
B0506163208686S11659557EA0102401156000004000000
B0506203208626S11659565EA0102801161000004000000
B0506243208593S11659622EA0103201163000004000000
B0506283208610S11659682EA0103701169000004000000
B0506323208659S11659698EA0104101173000004000000
B0506363208693S11659647EA0105001181000004000000
B0506403208665S11659588EA0105201183000004000000
B0506443208606S11659582EA0105101182000004000000
B0506483208568S11659635EA0105401186000004000000
B0506523208577S11659696EA0106001193000004000000
B0506563208623S11659725EA0106401195000004000000
B0507003208669S11659695EA0106801201000004000000
B0507043208665S11659626EA0107601207000004000000
B0507083208615S11659596EA0108101213000004000000
B0507123208567S11659631EA0108201215000004000000
B0507163208573S11659691EA0108201217000004000000
B0507203208623S11659703EA0109001223000004000000
B0507243208652S11659652EA0109701231000004000000
B0507283208628S11659591EA0109901232000004000000
B0507323208571S11659577EA0110101233000004000000
B0507363208529S11659622EA0110201234000004000000
B0507403208537S11659681EA0110201234000004000000
B0507443208586S11659694EA0110101232000004000000
B0507483208630S11659648EA0110601236000004000000
B0507523208628S11659577EA0110701238000004000000
B0507563208573S11659543EA0110701237000004000000
B0508003208520S11659582EA0110301232000004000000
B0508043208509S11659656EA0110101231000004000000
B0508083208522S11659731EA0109701228000004000000
B0508123208545S11659805EA0109101224000004000000
B0508163208576S11659878EA0108801222000004000000
B0508203208613S11659952EA0107601209000004000000
B0508243208649S11700037EA0106401202000004000000
B0508283208684S11700125EA0106701205000004000000
B0508323208719S11700210EA0108001220000004000000
B0508363208780S11700250EA0109701233000004000000
B0508403208837S11700224EA0110201233000004000000
B0508443208853S11700156EA0109401226000004000000
B0508483208824S11700088EA0108401217000004000000
B0508523208760S11700043EA0107101205000004000000
B0508563208685S11700038EA0107301211000004000000
B0509003208615S11700068EA0108501224000004000000
B0509043208564S11700120EA0109901236000004000000
B0509083208572S11700185EA0111501250000004000000
B0509123208625S11700202EA0111701251000004000000
B0509163208673S11700163EA0111601248000004000000
B0509203208678S11700094EA0111701252000004000000
B0509243208639S11700045EA0112401258000004000000
B0509283208580S11700046EA0112801264000004000000
B0509323208545S11700103EA0113401268000004000000
B0509363208571S11700160EA0114001276000004000000
B0509403208626S11700164EA0114201275000004000000
B0509443208658S11700108EA0114101276000004000000
B0509483208626S11700058EA0114801286000004000000
B0509523208572S11700073EA0115601287000004000000
B0509563208558S11700140EA0115301286000004000000
B0510003208600S11700186EA0115901293000004000000
B0510043208654S11700168EA0116201293000004000000
B0510083208659S11700106EA0116101293000004000000
B0510123208613S11700076EA0116701300000004000000
B0510163208569S11700116EA0116301292000004000000
B0510203208568S11700193EA0115401283000004000000
B0510243208597S11700266EA0115201282000004000000
B0510283208649S11700322EA0114601276000004000000
B0510323208711S11700362EA0114201269000004000000
B0510363208782S11700393EA0112701254000004000000
B0510403208858S11700426EA0111201240000004000000
B0510443208929S11700474EA0109901230000004000000
B0510483209001S11700526EA0109501227000004000000
B0510523209070S11700572EA0109301226000004000000
B0510563209137S11700618EA0109001221000004000000
B0511003209202S11700663EA0108101213000004000000
B0511043209270S11700709EA0107401209000004000000
B0511083209338S11700754EA0107301203000004000000
B0511123209405S11700797EA0106501197000004000000
B0511163209471S11700839EA0106201191000004000000
B0511203209539S11700879EA0105501184000004000000
B0511243209609S11700913EA0104701176000004000000
B0511283209681S11700939EA0104101172000004000000
B0511323209752S11700960EA0103601168000004000000
B0511363209822S11700977EA0103201164000004000000
B0511403209893S11700992EA0103001159000004000000
B0511443209962S11701007EA0102301156000004000000
B0511483210032S11701020EA0102001151000004000000
B0511523210101S11701034EA0101801149000004000000
B0511563210168S11701050EA0101501147000004000000
B0512003210235S11701064EA0101501146000004000000
B0512043210301S11701066EA0101301142000004000000
B0512083210371S11701066EA0100201133000004000000
B0512123210441S11701066EA0100401136000004000000
B0512163210510S11701055EA0100901136000004000000
B0512203210566S11701003EA0100701139000004000000
B0512243210591S11700923EA0101401148000004000000
B0512283210573S11700847EA0102001151000004000000
B0512323210521S11700797EA0101601142000004000000
B0512363210456S11700793EA0100901136000004000000
B0512403210398S11700826EA0100001130000004000000
B0512443210355S11700882EA0099201120000004000000
B0512483210335S11700953EA0098401115000004000000
B0512523210328S11701026EA0098601115000004000000
B0512563210331S11701098EA0098301113000004000000
B0513003210345S11701169EA0097601107000004000000
B0513043210375S11701234EA0097301109000004000000
B0513083210419S11701284EA0097401107000004000000
B0513123210479S11701311EA0097501109000004000000
B0513163210541S11701332EA0097901113000004000000
B0513203210601S11701332EA0099101125000004000000
B0513243210612S11701272EA0101001146000004000000
B0513283210567S11701239EA0101301145000004000000
B0513323210528S11701274EA0100701141000004000000
B0513363210545S11701333EA0100701141000004000000
B0513403210601S11701345EA0101201151000004000000
B0513443210643S11701300EA0102601166000004000000
B0513483210632S11701235EA0103901174000004000000
B0513523210579S11701207EA0104401175000004000000
B0513563210532S11701241EA0104001173000004000000
B0514003210543S11701303EA0104001171000004000000
B0514043210596S11701334EA0104201176000004000000
B0514083210652S11701315EA0105301189000004000000
B0514123210662S11701254EA0106901204000004000000
B0514163210619S11701219EA0107601210000004000000
B0514203210571S11701238EA0107901212000004000000
B0514243210557S11701294EA0107801211000004000000
B0514283210595S11701338EA0107501211000004000000
B0514323210648S11701328EA0108501222000004000000
B0514363210671S11701272EA0109201229000004000000
B0514403210641S11701220EA0109801234000004000000
B0514443210587S11701225EA0110301238000004000000
B0514483210563S11701278EA0111101246000004000000
B0514523210592S11701328EA0111501253000004000000
B0514563210647S11701326EA0112301261000004000000
B0515003210677S11701274EA0112901264000004000000
B0515043210660S11701213EA0113101268000004000000
B0515083210608S11701196EA0113601271000004000000
B0515123210569S11701239EA0113901275000004000000
B0515163210578S11701300EA0114601283000004000000
B0515203210627S11701329EA0114701282000004000000
B0515243210680S11701294EA0114901287000004000000
B0515283210690S11701228EA0115501294000004000000
B0515323210648S11701183EA0116001298000004000000
B0515363210596S11701202EA0116001297000004000000
B0515403210583S11701265EA0116201303000004000000
B0515433210608S11701306EA0117401314000004000000
B0515483210675S11701312EA0118101320000004000000
B0515523210709S11701260EA0118301319000004000000
B0515563210695S11701196EA0118401321000004000000
B0516003210643S11701174EA0118801323000004000000
B0516043210602S11701215EA0118901326000004000000
B0516083210614S11701276EA0119501334000004000000
B0516123210666S11701291EA0120401342000004000000
B0516163210705S11701246EA0120801344000004000000
B0516203210695S11701181EA0121401352000004000000
B0516243210648S11701156EA0121601350000004000000
B0516283210605S11701195EA0121401348000004000000
B0516323210601S11701259EA0122301359000004000000
B0516363210634S11701302EA0123201368000004000000
B0516403210686S11701298EA0123101359000004000000
B0516443210714S11701242EA0122701363000004000000
B0516483210684S11701190EA0123401369000004000000
B0516523210630S11701198EA0123701374000004000000
B0516563210606S11701254EA0124901390000004000000
B0517003210628S11701304EA0126001394000004000000
B0517043210678S11701320EA0125301385000004000000
B0517083210731S11701324EA0124801380000004000000
B0517123210787S11701330EA0123201365000004000000
B0517163210851S11701336EA0123001365000004000000
B0517203210907S11701341EA0123601372000004000000
B0517243210960S11701354EA0123601364000004000000
B0517283211021S11701376EA0121201336000004000000
B0517323211090S11701408EA0119201323000004000000
B0517363211155S11701441EA0119601329000004000000
B0517403211217S11701469EA0119901328000004000000
B0517443211278S11701497EA0119201319000004000000
B0517483211343S11701525EA0118101309000004000000
B0517523211408S11701557EA0117401303000004000000
B0517563211472S11701592EA0116601294000004000000
B0518003211535S11701631EA0116001290000004000000
B0518043211594S11701671EA0115701289000004000000
B0518083211652S11701713EA0116001291000004000000
B0518123211707S11701754EA0116001290000004000000
B0518163211762S11701796EA0115501285000004000000
B0518203211817S11701840EA0115101280000004000000
B0518243211873S11701884EA0114401273000004000000
B0518283211928S11701932EA0113901270000004000000
B0518323211983S11701980EA0113501267000004000000
B0518363212038S11702030EA0113401266000004000000
B0518403212090S11702079EA0113101261000004000000
B0518443212143S11702129EA0112601257000004000000
B0518483212192S11702178EA0112501257000004000000
B0518523212240S11702227EA0112201255000004000000
B0518563212283S11702278EA0112101251000004000000
B0519003212326S11702330EA0111501247000004000000
B0519043212364S11702382EA0111301244000004000000
B0519083212398S11702441EA0110701237000004000000
B0519123212429S11702504EA0110101234000004000000
B0519163212459S11702568EA0110101234000004000000
B0519203212487S11702630EA0109801233000004000000
B0519243212516S11702691EA0109901236000004000000
B0519283212546S11702750EA0110401240000004000000
B0519323212573S11702807EA0110401239000004000000
B0519363212594S11702870EA0110101235000004000000
B0519403212619S11702933EA0109701230000004000000
B0519443212646S11702997EA0109201226000004000000
B0519483212681S11703054EA0109501232000004000000
B0519523212731S11703085EA0110201242000004000000
B0519563212777S11703057EA0111601253000004000000
B0520003212788S11702990EA0112101258000004000000
B0520043212749S11702938EA0112401259000004000000
B0520083212692S11702937EA0111901253000004000000
B0520123212654S11702984EA0112001256000004000000
B0520163212649S11703045EA0112301260000004000000
B0520203212672S11703098EA0112801265000004000000
B0520243212723S11703109EA0113401271000004000000
B0520283212764S11703063EA0114001279000004000000
B0520323212758S11702994EA0114801283000004000000
B0520363212712S11702948EA0115301286000004000000
B0520403212655S11702948EA0115901294000004000000
B0520443212617S11702990EA0116701301000004000000
B0520483212623S11703045EA0116901300000004000000
B0520523212667S11703074EA0117101306000004000000
B0520563212718S11703061EA0118301317000004000000
B0521003212738S11703003EA0119001322000004000000
B0521043212710S11702942EA0119001322000004000000
B0521083212651S11702927EA0119201327000004000000
B0521123212608S11702967EA0120001332000004000000
B0521163212614S11703024EA0120201334000004000000
B0521203212662S11703041EA0120601337000004000000
B0521243212698S11702993EA0121401344000004000000
B0521283212679S11702929EA0120801338000004000000
B0521323212620S11702909EA0120901346000004000000
B0521363212578S11702949EA0121901353000004000000
B0521403212588S11703006EA0122401356000004000000
B0521443212637S11703027EA0122901362000004000000
B0521483212677S11702987EA0123101362000004000000
B0521523212668S11702916EA0122701358000004000000
B0521563212619S11702868EA0122801361000004000000
B0522003212559S11702867EA0123601370000004000000
B0522043212513S11702903EA0123901371000004000000
B0522083212502S11702961EA0124101370000004000000
B0522123212524S11703013EA0123801369000004000000
B0522163212571S11703032EA0124301379000004000000
B0522203212611S11702996EA0125101385000004000000
B0522243212611S11702929EA0125101380000004000000
B0522283212567S11702881EA0124401377000004000000
B0522323212506S11702873EA0125001386000004000000
B0522363212451S11702890EA0125601385000004000000
B0522403212409S11702932EA0125301384000004000000
B0522443212390S11702989EA0125101378000004000000
B0522483212393S11703052EA0124201367000004000000
B0522523212400S11703115EA0123101361000004000000
B0522563212411S11703182EA0122801358000004000000
B0523003212430S11703243EA0122501359000004000000
B0523043212451S11703301EA0122601358000004000000
B0523083212474S11703358EA0122301354000004000000
B0523123212499S11703419EA0121401347000004000000
B0523163212526S11703482EA0120801339000004000000
B0523203212556S11703544EA0119701327000004000000
B0523243212589S11703605EA0119201327000004000000
B0523283212623S11703664EA0119501330000004000000
B0523323212659S11703722EA0119501328000004000000
B0523363212702S11703778EA0119201327000004000000
B0523403212747S11703833EA0119201326000004000000
B0523443212796S11703887EA0119601331000004000000
B0523483212845S11703937EA0120101337000004000000
B0523523212896S11703982EA0120701340000004000000
B0523563212944S11704029EA0120801340000004000000
B0524003212991S11704077EA0120601335000004000000
B0524043213041S11704125EA0119901328000004000000
B0524083213097S11704170EA0119201322000004000000
B0524123213154S11704215EA0118501316000004000000
B0524163213210S11704259EA0118001310000004000000
B0524203213270S11704305EA0117301305000004000000
B0524243213326S11704350EA0117401306000004000000
B0524283213364S11704411EA0117601306000004000000
B0524323213374S11704483EA0117701307000004000000
B0524363213362S11704554EA0117601306000004000000
B0524403213342S11704623EA0117301303000004000000
B0524443213321S11704690EA0117001299000004000000
B0524483213304S11704758EA0116401292000004000000
B0524523213293S11704830EA0115701285000004000000
B0524563213293S11704903EA0114801278000004000000
B0525003213305S11704976EA0114501275000004000000
B0525043213323S11705047EA0114101269000004000000
B0525083213345S11705117EA0113601266000004000000
B0525123213368S11705185EA0113201263000004000000
B0525163213390S11705250EA0112501257000004000000
B0525203213407S11705315EA0112801262000004000000
B0525243213420S11705379EA0113601269000004000000
B0525283213435S11705441EA0114401278000004000000
B0525323213470S11705484EA0115201285000004000000
B0525363213524S11705467EA0114701278000004000000
B0525403213544S11705397EA0114601276000004000000
B0525443213513S11705337EA0114001270000004000000
B0525483213457S11705327EA0113601269000004000000
B0525523213420S11705369EA0113701268000004000000
B0525563213412S11705436EA0113501269000004000000
B0526003213416S11705503EA0113801273000004000000
B0526043213422S11705568EA0113801273000004000000
B0526083213430S11705635EA0113801271000004000000
B0526123213442S11705704EA0113601269000004000000
B0526163213444S11705778EA0112801262000004000000
B0526203213430S11705853EA0112501258000004000000
B0526243213408S11705926EA0111901255000004000000
B0526283213384S11705997EA0111301248000004000000
B0526323213364S11706069EA0110701242000004000000
B0526363213339S11706139EA0110401239000004000000
B0526403213306S11706203EA0111001247000004000000
B0526443213270S11706259EA0111501252000004000000
B0526483213238S11706316EA0111601252000004000000
B0526523213209S11706374EA0111601250000004000000
B0526563213197S11706442EA0111401246000004000000
B0527003213199S11706512EA0110701238000004000000
B0527043213212S11706581EA0109701228000004000000
B0527083213240S11706645EA0108501219000004000000
B0527123213277S11706705EA0107501212000004000000
B0527163213314S11706764EA0107001207000004000000
B0527203213349S11706825EA0106701201000004000000
B0527243213392S11706880EA0106101196000004000000
B0527283213440S11706926EA0105901196000004000000
B0527323213494S11706961EA0106101195000004000000
B0527363213548S11706996EA0105601191000004000000
B0527403213603S11707031EA0105301191000004000000
B0527443213657S11707067EA0105201188000004000000
B0527483213709S11707110EA0104901188000004000000
B0527523213758S11707158EA0105101189000004000000
B0527563213799S11707212EA0104601182000004000000
B0528003213830S11707275EA0104601184000004000000
B0528043213863S11707336EA0105001193000004000000
B0528083213902S11707386EA0106401202000004000000
B0528123213954S11707397EA0107401213000004000000
B0528163213980S11707344EA0107601210000004000000
B0528203213949S11707287EA0106401201000004000000
B0528243213888S11707286EA0106901207000004000000
B0528283213846S11707330EA0107401211000004000000
B0528323213834S11707392EA0107801215000004000000
B0528363213851S11707452EA0108101216000004000000
B0528403213901S11707472EA0108201218000004000000
B0528443213945S11707427EA0108301216000004000000
B0528483213942S11707358EA0107801214000004000000
B0528523213889S11707321EA0107501211000004000000
B0528563213836S11707356EA0107901219000004000000
B0529003213833S11707421EA0109001226000004000000
B0529043213877S11707451EA0109501229000004000000
B0529083213923S11707418EA0109401226000004000000
B0529123213915S11707351EA0109501231000004000000
B0529163213862S11707327EA0109801231000004000000
B0529203213820S11707371EA0110101237000004000000
B0529243213841S11707423EA0110701240000004000000
B0529283213893S11707413EA0110601238000004000000
B0529323213921S11707353EA0111001243000004000000
B0529363213899S11707288EA0111101243000004000000
B0529403213845S11707262EA0110801240000004000000
B0529443213795S11707299EA0110901241000004000000
B0529483213793S11707366EA0111601251000004000000
B0529523213834S11707404EA0112201255000004000000
B0529563213886S11707387EA0112401258000004000000
B0530003213908S11707325EA0112601259000004000000
B0530043213875S11707270EA0112701259000004000000
B0530083213817S11707275EA0112801261000004000000
B0530123213798S11707335EA0113101263000004000000
B0530163213828S11707387EA0113201265000004000000
B0530203213882S11707390EA0113401267000004000000
B0530243213924S11707344EA0113601269000004000000
B0530283213930S11707275EA0113401265000004000000
B0530323213899S11707210EA0112701261000004000000
B0530363213842S11707187EA0112901262000004000000
B0530403213791S11707222EA0112601258000004000000
B0530443213772S11707291EA0112101256000004000000
B0530483213782S11707361EA0112701261000004000000
B0530523213830S11707399EA0112801261000004000000
B0530563213889S11707373EA0112901263000004000000
B0531003213908S11707305EA0113401270000004000000
B0531043213869S11707254EA0113801273000004000000
B0531083213813S11707266EA0114101274000004000000
B0531123213787S11707325EA0113301265000004000000
B0531163213812S11707391EA0112501257000004000000
B0531203213873S11707414EA0112401258000004000000
B0531243213934S11707382EA0112501260000004000000
B0531283213966S11707310EA0112801264000004000000
B0531323213946S11707239EA0113301267000004000000
B0531363213893S11707206EA0113101264000004000000
B0531403213838S11707231EA0112901263000004000000
B0531443213813S11707295EA0112701259000004000000
B0531483213819S11707369EA0111701249000004000000
B0531523213838S11707446EA0111401249000004000000
B0531563213865S11707520EA0111501251000004000000
B0532003213912S11707573EA0112401260000004000000
B0532043213973S11707579EA0113201266000004000000
B0532083214033S11707553EA0111601248000004000000
B0532123214098S11707516EA0109401230000004000000
B0532163214166S11707474EA0108101218000004000000
B0532203214229S11707433EA0107701214000004000000
B0532243214293S11707388EA0107001205000004000000
B0532283214361S11707345EA0106001197000004000000
B0532323214430S11707305EA0106001198000004000000
B0532363214486S11707256EA0107401212000004000000
B0532403214512S11707189EA0108601223000004000000
B0532443214521S11707119EA0108501220000004000000
B0532483214527S11707050EA0108101214000004000000
B0532523214530S11706978EA0107301205000004000000
B0532563214528S11706900EA0106601197000004000000
B0533003214548S11706824EA0105901193000004000000
B0533043214583S11706757EA0105501189000004000000
B0533083214631S11706703EA0105101182000004000000
B0533123214692S11706666EA0103901171000004000000
B0533163214761S11706645EA0103501168000004000000
B0533203214827S11706636EA0103401167000004000000
B0533243214892S11706630EA0103201165000004000000
B0533283214956S11706630EA0102201149000004000000
B0533323215020S11706641EA0100301133000004000000
B0533363215084S11706653EA0099401129000004000000
B0533403215146S11706663EA0099201126000004000000
B0533443215207S11706672EA0099501131000004000000
B0533483215263S11706679EA0100401137000004000000
B0533523215316S11706667EA0100901140000004000000
B0533563215331S11706606EA0100901144000004000000
B0534003215288S11706563EA0101001146000004000000
B0534043215230S11706580EA0101401151000004000000
B0534083215204S11706636EA0101801151000004000000
B0534123215220S11706695EA0101501148000004000000
B0534163215271S11706718EA0101001144000004000000
B0534203215328S11706710EA0100501142000004000000
B0534243215388S11706692EA0100101138000004000000
B0534283215445S11706664EA0100201139000004000000
B0534323215488S11706612EA0101001149000004000000
B0534363215485S11706546EA0102201164000004000000
B0534403215432S11706537EA0103501175000004000000
B0534443215409S11706589EA0104101177000004000000
B0534483215442S11706629EA0104501183000004000000
B0534523215485S11706601EA0105301187000004000000
B0534563215481S11706538EA0106001197000004000000
B0535003215433S11706510EA0107101209000004000000
B0535043215390S11706543EA0108001215000004000000
B0535083215393S11706603EA0107901213000004000000
B0535123215437S11706629EA0108501220000004000000
B0535163215475S11706594EA0109001227000004000000
B0535203215463S11706533EA0109601234000004000000
B0535243215410S11706515EA0110401243000004000000
B0535283215371S11706558EA0111301248000004000000
B0535323215381S11706615EA0111501248000004000000
B0535363215428S11706634EA0111601252000004000000
B0535403215466S11706599EA0112101256000004000000
B0535443215467S11706537EA0112801262000004000000
B0535483215423S11706500EA0113201269000004000000
B0535523215368S11706520EA0113701272000004000000
B0535563215360S11706581EA0114101273000004000000
B0536003215406S11706611EA0114001273000004000000
B0536043215448S11706577EA0114501281000004000000
B0536083215448S11706515EA0115201286000004000000
B0536123215402S11706478EA0115601289000004000000
B0536163215349S11706507EA0115701291000004000000
B0536203215344S11706568EA0116501295000004000000
B0536243215384S11706602EA0116401294000004000000
B0536283215429S11706582EA0116801301000004000000
B0536323215444S11706526EA0117101303000004000000
B0536363215422S11706465EA0117201304000004000000
B0536403215366S11706445EA0117501307000004000000
B0536443215318S11706480EA0118101314000004000000
B0536483215318S11706534EA0118801317000004000000
B0536523215360S11706563EA0118001308000004000000
B0536563215423S11706562EA0116801297000004000000
B0537003215493S11706556EA0115801291000004000000
B0537043215570S11706547EA0116001297000004000000
B0537083215636S11706536EA0118101314000004000000
B0537123215701S11706521EA0118201313000004000000
B0537163215767S11706526EA0117801308000004000000
B0537203215825S11706568EA0117001300000004000000
B0537243215869S11706629EA0115701289000004000000
B0537283215883S11706711EA0115001281000004000000
B0537323215883S11706797EA0114401278000004000000
B0537363215888S11706875EA0114901282000004000000
B0537403215888S11706952EA0114501275000004000000
B0537443215867S11707027EA0113801267000004000000
B0537483215827S11707096EA0112801256000004000000
B0537523215773S11707152EA0112001252000004000000
B0537563215714S11707200EA0112101251000004000000
B0538003215656S11707243EA0112201251000004000000
B0538043215604S11707291EA0112201250000004000000
B0538083215544S11707330EA0111501243000004000000
B0538123215470S11707340EA0110801236000004000000
B0538163215393S11707318EA0110601234000004000000
B0538203215324S11707279EA0110101231000004000000
B0538243215258S11707235EA0109501224000004000000
B0538283215188S11707197EA0109501224000004000000
B0538323215116S11707174EA0109401224000004000000
B0538363215046S11707152EA0108901217000004000000
B0538403214973S11707137EA0108501216000004000000
B0538443214900S11707132EA0108701218000004000000
B0538483214829S11707139EA0108101212000004000000
B0538523214759S11707148EA0107801206000004000000
B0538563214686S11707157EA0107301201000004000000
B0539003214613S11707166EA0106801196000004000000
B0539043214541S11707176EA0106301194000004000000
B0539083214471S11707186EA0106401192000004000000
B0539123214401S11707193EA0106201189000004000000
B0539163214331S11707202EA0106001188000004000000
B0539203214262S11707210EA0106001188000004000000
B0539243214192S11707215EA0105601181000004000000
B0539283214118S11707218EA0104901174000004000000
B0539323214044S11707218EA0104401171000004000000
B0539363213971S11707225EA0104401174000004000000
B0539403213902S11707235EA0104301170000004000000
B0539443213837S11707247EA0103901171000004000000
B0539483213776S11707260EA0105201182000004000000
B0539523213722S11707291EA0106301191000004000000
B0539563213719S11707351EA0107801207000004000000
B0540003213768S11707365EA0108901218000004000000
B0540043213799S11707314EA0109901227000004000000
B0540083213781S11707254EA0110501236000004000000
B0540123213730S11707243EA0111501243000004000000
B0540163213691S11707286EA0111701244000004000000
B0540203213700S11707347EA0112501256000004000000
B0540243213745S11707374EA0113601267000004000000
B0540283213791S11707347EA0114001270000004000000
B0540323213800S11707279EA0114301273000004000000
B0540363213769S11707221EA0115001282000004000000
B0540403213717S11707204EA0115801290000004000000
B0540443213669S11707227EA0116101291000004000000
B0540483213634S11707275EA0116301290000004000000
B0540523213617S11707338EA0116701293000004000000
B0540563213631S11707397EA0116801297000004000000
B0541003213677S11707427EA0116801298000004000000
B0541043213722S11707405EA0118101310000004000000
B0541083213741S11707353EA0118901317000004000000
B0541123213721S11707295EA0119201321000004000000
B0541163213669S11707275EA0119901330000004000000
B0541203213622S11707308EA0120401334000004000000
B0541243213608S11707366EA0120701335000004000000
B0541283213634S11707420EA0120301330000004000000
B0541323213685S11707430EA0120201335000004000000
B0541363213722S11707388EA0120701339000004000000
B0541403213728S11707325EA0121001341000004000000
B0541443213704S11707252EA0120001329000004000000
B0541483213657S11707176EA0118901323000004000000
B0541523213598S11707105EA0118701319000004000000
B0541563213529S11707045EA0118601316000004000000
B0542003213451S11706998EA0118001307000004000000
B0542043213366S11706965EA0117601303000004000000
B0542083213280S11706953EA0117101298000004000000
B0542123213196S11706966EA0117201300000004000000
B0542163213121S11707000EA0117101294000004000000
B0542203213050S11707048EA0116201288000004000000
B0542243212987S11707104EA0115701282000004000000
B0542283212928S11707166EA0115301278000004000000
B0542323212870S11707228EA0114601271000004000000
B0542363212812S11707292EA0113901263000004000000
B0542403212755S11707358EA0113601258000004000000
B0542443212702S11707427EA0113001253000004000000
B0542483212650S11707500EA0112301247000004000000
B0542523212602S11707574EA0111601242000004000000
B0542563212555S11707648EA0111301240000004000000
B0543003212506S11707716EA0111001237000004000000
B0543043212456S11707782EA0110801235000004000000
B0543083212406S11707845EA0110801234000004000000
B0543123212355S11707904EA0110501232000004000000
B0543163212305S11707962EA0110301230000004000000
B0543203212255S11708019EA0110001227000004000000
B0543243212203S11708072EA0110301231000004000000
B0543283212153S11708125EA0110701232000004000000
B0543323212112S11708187EA0110701231000004000000
B0543363212088S11708259EA0110801236000004000000
B0543403212088S11708332EA0112101246000004000000
B0543443212118S11708393EA0112501248000004000000
B0543483212174S11708427EA0112601253000004000000
B0543523212235S11708421EA0113201258000004000000
B0543563212274S11708369EA0112801251000004000000
B0544003212272S11708294EA0111701246000004000000
B0544043212246S11708224EA0111601244000004000000
B0544083212208S11708158EA0111501242000004000000
B0544123212159S11708102EA0111401243000004000000
B0544163212096S11708072EA0111501246000004000000
B0544203212032S11708071EA0111601247000004000000
B0544243211967S11708084EA0111701241000004000000
B0544283211912S11708120EA0111001235000004000000
B0544323211887S11708188EA0111101234000004000000
B0544363211896S11708262EA0110301228000004000000
B0544403211918S11708335EA0110001228000004000000
B0544443211947S11708405EA0110401235000004000000
B0544483211979S11708474EA0111301245000004000000
B0544523212029S11708510EA0112901260000004000000
B0544563212073S11708470EA0113901267000004000000
B0545003212064S11708404EA0114101271000004000000
B0545043212013S11708372EA0114501274000004000000
B0545083211961S11708393EA0114601274000004000000
B0545123211943S11708453EA0114601275000004000000
B0545163211970S11708512EA0115301282000004000000
B0545203212027S11708526EA0116201291000004000000
B0545243212077S11708487EA0116701296000004000000
B0545283212094S11708418EA0117401302000004000000
B0545323212065S11708358EA0117801306000004000000
B0545363212009S11708341EA0117501299000004000000
B0545403211962S11708379EA0117501301000004000000
B0545443211953S11708445EA0117601302000004000000
B0545483211964S11708517EA0117701306000004000000
B0545523211996S11708574EA0118501313000004000000
B0545563212049S11708567EA0119201317000004000000
B0546003212071S11708506EA0118201307000004000000
B0546043212045S11708439EA0118101310000004000000
B0546083211990S11708413EA0119001321000004000000
B0546123211941S11708443EA0119501324000004000000
B0546163211921S11708509EA0119601323000004000000
B0546203211928S11708583EA0119401316000004000000
B0546243211975S11708642EA0118801315000004000000
B0546283212039S11708675EA0119501327000004000000
B0546323212104S11708697EA0120501331000004000000
B0546363212173S11708710EA0119501319000004000000
B0546403212244S11708700EA0118701314000004000000
B0546443212295S11708651EA0118901315000004000000
B0546483212299S11708579EA0118301310000004000000
B0546523212255S11708530EA0117301301000004000000
B0546563212192S11708531EA0116301288000004000000
B0547003212144S11708582EA0115101280000004000000
B0547043212126S11708657EA0114901278000004000000
B0547083212127S11708739EA0114101267000004000000
B0547123212147S11708818EA0113401267000004000000
B0547163212169S11708896EA0112901256000004000000
B0547203212191S11708978EA0111401238000004000000
B0547243212211S11709067EA0109701223000004000000
B0547283212231S11709156EA0108801219000004000000
B0547323212252S11709243EA0108801217000004000000
B0547363212278S11709328EA0108501211000004000000
B0547403212303S11709412EA0107901210000004000000
B0547443212325S11709494EA0108201212000004000000
B0547483212352S11709574EA0108301210000004000000
B0547523212389S11709645EA0108301211000004000000
B0547563212426S11709717EA0108301208000004000000
B0548003212460S11709797EA0106701192000004000000
B0548043212490S11709882EA0106901201000004000000
B0548083212520S11709958EA0108801218000004000000
B0548123212551S11710029EA0108901214000004000000
B0548163212588S11710098EA0108501212000004000000
B0548203212636S11710160EA0107901203000004000000
B0548243212688S11710222EA0106701189000004000000
B0548283212742S11710289EA0105701181000004000000
B0548323212802S11710346EA0105401179000004000000
B0548363212866S11710395EA0104501169000004000000
B0548403212919S11710460EA0103601165000004000000
B0548443212954S11710537EA0103701164000004000000
B0548483212970S11710621EA0103301156000004000000
B0548523212979S11710707EA0102801152000004000000
B0548563212983S11710794EA0102001144000004000000
B0549003212984S11710884EA0101101132000004000000
B0549043212983S11710976EA0100101126000004000000
B0549083212978S11711069EA0099501123000004000000
B0549123212972S11711160EA0099101118000004000000
B0549163212966S11711249EA0098801116000004000000
B0549203212962S11711338EA0098501113000004000000
B0549243212957S11711425EA0098101102000004000000
B0549283212955S11711516EA0096801094000004000000
B0549323212958S11711607EA0096001087000004000000
B0549363212963S11711693EA0095901089000004000000
B0549403212971S11711772EA0095901088000004000000
B0549443212979S11711850EA0095801086000004000000
B0549483212984S11711931EA0095701087000004000000
B0549523212997S11712002EA0097301103000004000000
B0549563213040S11712042EA0098101108000004000000
B0550003213095S11712025EA0097701102000004000000
B0550043213148S11711977EA0096201088000004000000
B0550083213199S11711924EA0095601086000004000000
B0550123213221S11711853EA0096201095000004000000
B0550163213202S11711786EA0097201102000004000000
B0550203213153S11711754EA0096901097000004000000
B0550243213102S11711777EA0096801097000004000000
B0550283213087S11711834EA0096901099000004000000
B0550323213113S11711879EA0097301102000004000000
B0550363213163S11711880EA0096901094000004000000
B0550403213208S11711836EA0096301092000004000000
B0550443213226S11711767EA0096501092000004000000
B0550483213214S11711697EA0096501094000004000000
B0550523213176S11711635EA0095501081000004000000
B0550563213132S11711573EA0094201068000004000000
B0551003213084S11711503EA0092901057000004000000
B0551043213039S11711429EA0092001047000004000000
B0551083212994S11711352EA0091301037000004000000
B0551123212950S11711275EA0090301032000004000000
B0551163212906S11711201EA0090001029000004000000
B0551203212863S11711126EA0089401019000004000000
B0551243212818S11711052EA0088701016000004000000
B0551283212776S11710978EA0088601012000004000000
B0551323212733S11710906EA0088001006000004000000
B0551363212689S11710836EA0087701004000004000000
B0551403212643S11710770EA0087401000000004000000
B0551443212601S11710702EA0086500991000004000000
B0551483212563S11710625EA0085700984000004000000
B0551523212528S11710546EA0086200989000004000000
B0551563212481S11710485EA0087200998000004000000
B0552003212419S11710475EA0087401002000004000000
B0552043212361S11710491EA0088001006000004000000
B0552083212329S11710538EA0088401009000004000000
B0552123212343S11710592EA0088301007000004000000
B0552163212390S11710606EA0088201005000004000000
B0552203212432S11710563EA0087801003000004000000
B0552243212442S11710490EA0087701004000004000000
B0552283212434S11710411EA0086900997000004000000
B0552323212419S11710330EA0086200992000004000000
B0552363212402S11710248EA0085700982000004000000
B0552403212382S11710164EA0084200968000004000000
B0552443212360S11710079EA0083300960000004000000
B0552483212338S11709995EA0082300949000004000000
B0552523212312S11709909EA0081200940000004000000
B0552563212285S11709823EA0080400931000004000000
B0553003212260S11709734EA0079700924000004000000
B0553043212230S11709645EA0079500925000004000000
B0553083212198S11709559EA0079100919000004000000
B0553123212164S11709477EA0079500930000004000000
B0553163212130S11709403EA0080600937000004000000
B0553203212094S11709331EA0080600935000004000000
B0553243212056S11709255EA0080600935000004000000
B0553283212016S11709182EA0080200929000004000000
B0553323211975S11709106EA0079600924000004000000
B0553363211939S11709028EA0079700927000004000000
B0553403211906S11708951EA0079900926000004000000
B0553443211874S11708873EA0079600923000004000000
B0553483211841S11708795EA0079200917000004000000
B0553523211814S11708717EA0079600925000004000000
B0553563211785S11708643EA0079900926000004000000
B0554003211748S11708577EA0080800934000004000000
B0554043211693S11708567EA0081900947000004000000
B0554083211676S11708623EA0081900942000004000000
B0554123211719S11708658EA0081500941000004000000
B0554163211772S11708638EA0082100947000004000000
B0554203211804S11708583EA0082600952000004000000
B0554243211805S11708517EA0082500950000004000000
B0554283211763S11708471EA0081800946000004000000
B0554323211704S11708460EA0081500943000004000000
B0554363211654S11708492EA0081900950000004000000
B0554403211648S11708556EA0082700956000004000000
B0554443211687S11708587EA0083100959000004000000
B0554483211727S11708545EA0082400949000004000000
B0554523211722S11708474EA0082400954000004000000
B0554563211678S11708436EA0083400966000004000000
B0555003211635S11708469EA0084200972000004000000
B0555043211652S11708523EA0084900978000004000000
B0555083211701S11708526EA0085700984000004000000
B0555123211726S11708476EA0085700985000004000000
B0555163211704S11708421EA0085900989000004000000
B0555203211653S11708413EA0086400994000004000000
B0555243211629S11708463EA0087101004000004000000
B0555283211659S11708506EA0088401015000004000000
B0555323211709S11708496EA0088901018000004000000
B0555363211730S11708441EA0089301020000004000000
B0555403211704S11708389EA0089601024000004000000
B0555443211650S11708384EA0089401022000004000000
B0555483211607S11708422EA0089701028000004000000
B0555523211623S11708474EA0090901041000004000000
B0555563211670S11708470EA0092201051000004000000
B0556003211689S11708413EA0092601054000004000000
B0556043211654S11708367EA0093401063000004000000
B0556083211609S11708391EA0094201070000004000000
B0556123211610S11708448EA0094001069000004000000
B0556163211662S11708469EA0095001081000004000000
B0556203211697S11708423EA0095901087000004000000
B0556243211676S11708366EA0096301093000004015000
B0556283211626S11708367EA0097101099000004015000
B0556323211603S11708421EA0097501104000004015000
B0556363211631S11708470EA0097901109000004015000
B0556403211681S11708462EA0098201111000004015000
B0556443211702S11708404EA0098401114000004015000
B0556483211668S11708359EA0099201126000004015000
B0556523211624S11708379EA0099701124000004015000
B0556563211620S11708439EA0100001131000004015000
B0557003211667S11708469EA0100801137000004015000
B0557043211714S11708436EA0100901139000004000000
B0557083211730S11708366EA0099801127000004000000
B0557123211731S11708280EA0098501115000004000000
B0557163211724S11708188EA0097901109000004000000
B0557203211711S11708092EA0097001101000004000000
B0557243211702S11707995EA0097101103000004000000
B0557283211689S11707901EA0097301101000004000000
B0557323211671S11707810EA0097801113000004000000
B0557363211642S11707732EA0099301123000004000000
B0557403211610S11707659EA0099801125000004000000
B0557443211571S11707586EA0100301130000004000000
B0557483211511S11707555EA0101901146000004000000
B0557523211473S11707596EA0103501155000004000000
B0557563211496S11707647EA0103301152000004000000
B0558003211545S11707630EA0103201154000004000000
B0558043211563S11707563EA0103801162000004000000
B0558083211546S11707490EA0103701160000004000000
B0558123211507S11707417EA0102001140000004000000
B0558163211459S11707336EA0100201125000004000000
B0558203211405S11707253EA0099001110000004000000
B0558243211346S11707170EA0097501100000004000000
B0558283211286S11707088EA0097101097000004000000
B0558323211228S11707009EA0096401087000004000000
B0558363211174S11706927EA0095201077000004000000
B0558403211122S11706844EA0095401084000004000000
B0558443211073S11706768EA0095401079000004000000
B0558483211022S11706690EA0095001080000004000000
B0558523210983S11706606EA0095901088000004000000
B0558563210965S11706520EA0096401088000004000000
B0559003210947S11706437EA0095801075000004000000
B0559043210907S11706359EA0094301062000004000000
B0559083210852S11706291EA0093601060000004000000
B0559123210790S11706237EA0093401060000004000000
B0559163210725S11706195EA0093801064000004000000
B0559203210657S11706165EA0093701061000004000000
B0559243210589S11706138EA0093401059000004000000
B0559283210531S11706090EA0093201055000004000000
B0559323210483S11706030EA0092901052000004000000
B0559363210444S11705957EA0092601052000004000000
B0559403210419S11705878EA0093001059000004000000
B0559443210410S11705797EA0093901067000004000000
B0559483210417S11705722EA0094301068000004000000
B0559523210428S11705646EA0093601058000004000000
B0559563210441S11705562EA0092401050000004000000
B0600003210465S11705483EA0092501053000004000000
B0600043210489S11705405EA0092801053000004000000
B0600083210519S11705325EA0092501047000004000000
B0600123210557S11705247EA0092401050000004000000
B0600163210599S11705178EA0093501060000004000000
B0600203210657S11705182EA0094201073000004000000
B0600243210654S11705241EA0095501080000004000000
B0600283210600S11705262EA0095601079000004000000
B0600323210541S11705228EA0096101086000004000000
B0600363210510S11705159EA0096701093000004000000
B0600403210534S11705100EA0097701103000004000000
B0600443210575S11705108EA0098001102000004000000
B0600483210587S11705161EA0097501095000004000000
B0600523210547S11705203EA0097401094000004000000
B0600563210482S11705194EA0097501096000004000000
B0601003210431S11705143EA0097501100000004000000
B0601043210423S11705068EA0097801101000004000000
B0601083210446S11704998EA0097301096000004000000
B0601123210483S11704931EA0096601085000004000000
B0601163210519S11704859EA0095501076000004000000
B0601203210554S11704784EA0094901072000004000000
B0601243210591S11704710EA0094501066000004000000
B0601283210627S11704638EA0093701059000004000000
B0601323210661S11704563EA0093201052000004000000
B0601363210684S11704483EA0092301045000004000000
B0601403210705S11704398EA0091801043000004000000
B0601443210734S11704318EA0092501050000004000000
B0601483210736S11704241EA0094201069000004000000
B0601523210687S11704222EA0095801084000004000000
B0601563210657S11704268EA0096201083000004000000
B0602003210680S11704320EA0096201086000004000000
B0602043210732S11704328EA0096601091000004000000
B0602083210774S11704290EA0097401098000004000000
B0602123210781S11704225EA0097301097000004000000
B0602163210742S11704173EA0097501102000004000000
B0602203210686S11704176EA0098301107000004000000
B0602243210656S11704228EA0098101105000004000000
B0602283210670S11704287EA0098401108000004000000
B0602323210719S11704310EA0098601111000004000000
B0602363210770S11704288EA0099301117000004000000
B0602403210794S11704231EA0099501118000004000000
B0602443210777S11704164EA0099201116000004000000
B0602483210726S11704133EA0099601125000004000000
B0602523210678S11704160EA0100601133000004000000
B0602563210675S11704218EA0100701131000004000000
B0603003210718S11704248EA0100701131000004000000
B0603043210765S11704220EA0100201127000004000000
B0603083210799S11704162EA0098901114000004000000
B0603123210829S11704088EA0098101105000004000000
B0603163210859S11704007EA0097301099000004000000
B0603203210887S11703921EA0096701093000004000000
B0603243210917S11703834EA0096601095000004000000
B0603283210943S11703743EA0096701097000004000000
B0603323210965S11703653EA0096901096000004000000
B0603363210989S11703560EA0095501078000004000000
B0603403211005S11703456EA0094001065000004000000
B0603443211007S11703352EA0093701064000004000000
B0603483210999S11703249EA0093601061000004000000
B0603523210989S11703148EA0093001053000004000000
B0603563210977S11703048EA0092001041000004000000
B0604003210963S11702951EA0091001036000004000000
B0604043210948S11702855EA0090701029000004000000
B0604083210933S11702758EA0089301016000004000000
B0604123210911S11702662EA0088701013000004000000
B0604163210886S11702567EA0088201007000004000000
B0604203210856S11702474EA0087601003000004000000
B0604243210823S11702386EA0087400999000004000000
B0604283210791S11702299EA0086600990000004000000
B0604323210758S11702212EA0085300977000004000000
B0604363210729S11702125EA0084700973000004000000
B0604403210697S11702040EA0084700975000004000000
B0604443210669S11701957EA0084800976000004000000
B0604483210641S11701874EA0085200980000004000000
B0604523210608S11701798EA0086600990000004000000
B0604563210552S11701757EA0087200999000004000000
B0605003210497S11701772EA0088001004000004000000
B0605043210475S11701830EA0087801000000004000000
B0605083210496S11701887EA0087701001000004000000
B0605123210543S11701909EA0087801001000004000000
B0605163210591S11701891EA0087400998000004000000
B0605203210621S11701835EA0086900995000004000000
B0605243210639S11701763EA0087201000000004000000
B0605283210649S11701692EA0087400999000004000000
B0605323210623S11701628EA0088001008000004000000
B0605363210574S11701623EA0088501013000004000000
B0605403210554S11701679EA0087701004000004000000
B0605443210586S11701728EA0088701017000004000000
B0605483210634S11701728EA0089701025000004000000
B0605523210666S11701681EA0089701022000004000000
B0605563210662S11701616EA0089801025000004000000
B0606003210626S11701572EA0089901028000004000000
B0606043210571S11701563EA0090001026000004000000
B0606083210514S11701575EA0090001025000004000000
B0606123210482S11701623EA0089901025000004000000
B0606163210501S11701677EA0089901027000004000000
B0606203210552S11701702EA0090301029000004000000
B0606243210604S11701680EA0090601033000004000000
B0606283210632S11701616EA0090201030000004000000
B0606323210634S11701538EA0089901027000004000000
B0606363210619S11701458EA0089701028000004000000
B0606403210595S11701380EA0089801025000004000000
B0606443210562S11701302EA0089101020000004000000
B0606483210527S11701226EA0088601015000004000000
B0606523210488S11701152EA0087701006000004000000
B0606563210449S11701076EA0087201001000004000000
B0607003210414S11700998EA0086600992000004000000
B0607043210379S11700920EA0086200989000004000000
B0607083210344S11700847EA0085900988000004000000
B0607123210305S11700779EA0085400980000004000000
B0607163210261S11700713EA0084100964000004000000
B0607203210210S11700647EA0082400950000004000000
B0607243210158S11700583EA0081900948000004000000
B0607283210111S11700518EA0082200951000004000000
B0607323210069S11700450EA0081600937000004000000
B0607363210028S11700375EA0080400927000004000000
B0607403209990S11700296EA0080000925000004000000
B0607443209951S11700220EA0079400921000004000000
B0607483209911S11700146EA0079100919000004000000
B0607523209869S11700076EA0078900916000004000000
B0607563209829S11700004EA0078300907000004000000
B0608003209786S11659930EA0077100897000004000000
B0608043209742S11659855EA0076500892000004000000
B0608083209695S11659782EA0076000883000004000000
B0608123209647S11659708EA0074700873000004000000
B0608163209599S11659635EA0074000865000004000000
B0608203209549S11659564EA0073400861000004000000
B0608243209500S11659496EA0073100859000004000000
B0608283209451S11659432EA0072700855000004000000
B0608323209403S11659371EA0072300850000004000000
B0608363209354S11659306EA0071700842000004000000
B0608403209306S11659243EA0070800835000004000000
B0608443209258S11659180EA0070500836000004000000
B0608483209211S11659119EA0071000838000004000000
B0608523209167S11659058EA0071000838000004000000
B0608563209122S11658998EA0071800847000004000000
B0609003209062S11658976EA0073500865000004000000
B0609043209026S11659019EA0075800888000004000000
B0609083209039S11659071EA0076700894000004000000
B0609123209089S11659081EA0076700896000004000000
B0609163209128S11659037EA0077200901000004000000
B0609203209118S11658971EA0077600906000004000000
B0609243209068S11658940EA0078700921000004000000
B0609283209020S11658966EA0079900930000004000000
B0609323209007S11659027EA0080300932000004000000
B0609363209037S11659083EA0080900939000004000000
B0609403209092S11659096EA0081300941000004000000
B0609443209139S11659057EA0081900946000004000000
B0609483209148S11658992EA0082600957000004000000
B0609523209117S11658941EA0083000960000004000000
B0609563209058S11658933EA0083100963000004000000
B0610003209007S11658970EA0084100974000004000000
B0610043208994S11659032EA0085200984000004000000
B0610083209028S11659077EA0086400993000004000000
B0610123209078S11659068EA0087101000000004000000
B0610163209100S11659015EA0087201002000004000000
B0610203209076S11658957EA0087501005000004000000
B0610243209019S11658941EA0088601016000004000000
B0610283208980S11658984EA0089801028000004000000
B0610323208993S11659044EA0090301033000004000000
B0610363209040S11659059EA0091601044000004000000
B0610403209074S11659023EA0091801045000004000000
B0610443209063S11658960EA0091801047000004000000
B0610483209013S11658933EA0092701057000004000000
B0610523208966S11658967EA0093701067000004000000
B0610563208966S11659027EA0094501076000004000000
B0611003209009S11659054EA0095301083000004000000
B0611043209052S11659029EA0095801086000004000000
B0611083209054S11658968EA0095801088000004000000
B0611123209011S11658928EA0096301096000004000000
B0611163208959S11658954EA0097301107000004000000
B0611203208950S11659016EA0098001111000004000000
B0611243208989S11659061EA0098801121000004000000
B0611283209041S11659055EA0099901129000004000000
B0611323209063S11659002EA0100301133000004000000
B0611363209036S11658949EA0100101132000004000000
B0611403208980S11658945EA0100101133000004000000
B0611443208948S11658999EA0100701139000004000000
B0611483208972S11659054EA0101801151000004000000
B0611523209023S11659067EA0102801158000004000000
B0611563209063S11659028EA0102801158000004000000
B0612003209050S11658964EA0102701157000004000000
B0612043208997S11658947EA0103401165000004000000
B0612083208963S11658996EA0104001169000004000000
B0612123208990S11659048EA0104901179000004000000
B0612163209042S11659045EA0105401180000004000000
B0612203209071S11658993EA0105301182000004000000
B0612243209050S11658934EA0105401183000004000000
B0612283208996S11658911EA0105801187000004000000
B0612323208957S11658955EA0106601194000004000000
B0612363208983S11659009EA0107001197000004000000
B0612403209037S11659011EA0107801206000004000000
B0612443209075S11658967EA0107601202000004000000
B0612483209083S11658897EA0106801193000004000000
B0612523209065S11658815EA0105401180000004000000
B0612563209037S11658728EA0104501172000004000000
B0613003209015S11658635EA0103401157000004000000
B0613043209007S11658537EA0102001149000004000000
B0613083209019S11658442EA0101901154000004000000
B0613123209049S11658353EA0102501156000004000000
B0613163209098S11658278EA0102101148000004000000
B0613203209170S11658231EA0101401146000004000000
B0613243209249S11658226EA0101701148000004000000
B0613283209314S11658262EA0101801146000004000000
B0613323209357S11658334EA0100701136000004000000
B0613363209361S11658424EA0100301127000004000000
B0613403209327S11658509EA0099201117000004000000
B0613443209273S11658582EA0098301111000004000000
B0613483209209S11658646EA0097901105000004000000
B0613523209139S11658707EA0096801094000004000000
B0613563209065S11658768EA0096101089000004000000
B0614003208987S11658814EA0096701099000004000000
B0614043208916S11658797EA0098401115000004000000
B0614083208876S11658728EA0098301111000004000000
B0614123208847S11658643EA0098201112000004000000
B0614163208815S11658564EA0099201121000004000000
B0614203208758S11658522EA0100501132000004000000
B0614243208704S11658555EA0101201134000004000000
B0614283208671S11658620EA0100401129000004000000
B0614323208639S11658691EA0100601131000004000000
B0614363208612S11658767EA0099901123000004000000
B0614403208585S11658853EA0099001118000004000000
B0614443208563S11658940EA0099201123000004000000
B0614483208550S11659024EA0099801127000004000000
B0614523208534S11659107EA0099601123000004000000
B0614563208511S11659196EA0099301119000004000000
B0615003208486S11659283EA0099301124000004000000
B0615043208469S11659366EA0100001132000004000000
B0615083208461S11659445EA0100701135000004000000
B0615123208447S11659529EA0100301133000004000000
B0615163208435S11659609EA0100401133000004000000
B0615203208416S11659691EA0099701127000004000000
B0615243208389S11659773EA0099901129000004000000
B0615283208363S11659860EA0098901117000004000000
B0615323208338S11659951EA0098601117000004000000
B0615363208317S11700037EA0099201123000004000000
B0615403208296S11700125EA0099101125000004000000
B0615443208279S11700212EA0099201119000004000000
B0615483208260S11700302EA0097501104000004000000
B0615523208248S11700393EA0097301105000004000000
B0615563208235S11700481EA0097201103000004000000
B0616003208217S11700567EA0097501107000004000000
B0616043208203S11700644EA0099401129000004000000
B0616083208187S11700712EA0100801139000004000000
B0616123208171S11700778EA0100901136000004000000
B0616163208152S11700851EA0100501133000004000000
B0616203208135S11700926EA0100401133000004000000
B0616243208126S11701005EA0100901138000004000000
B0616283208119S11701083EA0101201139000004000000
B0616323208106S11701161EA0100301126000004000000
B0616363208079S11701241EA0099001116000004000000
B0616403208038S11701311EA0099501125000004000000
B0616443207999S11701380EA0100201133000004000000
B0616483207958S11701449EA0100301128000004000000
B0616523207911S11701520EA0100001128000004000000
B0616563207865S11701589EA0100501133000004000000
B0617003207818S11701658EA0100801134000004000000
B0617043207768S11701729EA0100301123000004000000
B0617083207715S11701811EA0098201098000004000000
B0617123207662S11701906EA0096301093000004000000
B0617163207615S11701995EA0097201109000004000000
B0617203207576S11702073EA0098901122000004000000
B0617243207518S11702129EA0099301125000004000000
B0617283207441S11702134EA0100201134000004000000
B0617323207365S11702121EA0100701135000004000000
B0617363207294S11702084EA0100101130000004000000
B0617403207252S11702010EA0100301130000004000000
B0617443207245S11701923EA0099601121000004000000
B0617483207264S11701835EA0097701101000004000000
B0617523207304S11701748EA0095701083000004000000
B0617563207355S11701663EA0094501074000004000000
B0618003207414S11701580EA0093201059000004000000
B0618043207473S11701501EA0092301053000004000000
B0618083207532S11701424EA0091901048000004000000
B0618123207590S11701346EA0090801035000004000000
B0618163207645S11701265EA0091001040000004000000
B0618203207694S11701186EA0090801033000004000000
B0618243207745S11701104EA0090201028000004000000
B0618283207794S11701024EA0090201032000004000000
B0618323207840S11700946EA0091501043000004000000
B0618363207844S11700868EA0094301075000004000000
B0618403207801S11700839EA0096901098000004000000
B0618443207759S11700877EA0097101095000004000000
B0618483207772S11700942EA0097001099000004000000
B0618523207819S11700956EA0098201110000004000000
B0618563207850S11700914EA0098501111000004000000
B0619003207835S11700855EA0098901116000004000000
B0619043207785S11700839EA0099501122000004000000
B0619083207744S11700883EA0099801124000004000000
B0619123207752S11700947EA0100101129000004000000
B0619163207798S11700960EA0100801135000004000000
B0619203207830S11700917EA0101101139000004000000
B0619243207819S11700858EA0101801146000004000000
B0619283207772S11700839EA0102001148000004000000
B0619323207731S11700878EA0102001148000004000000
B0619363207737S11700940EA0102201151000004000000
B0619403207781S11700975EA0102601155000004000000
B0619443207831S11700962EA0102801157000004000000
B0619483207856S11700909EA0103101160000004000000
B0619523207831S11700852EA0103401162000004000000
B0619563207774S11700845EA0103801166000004000000
B0620003207735S11700897EA0104101171000004000000
B0620043207739S11700965EA0104601173000004000000
B0620083207781S11701009EA0104501171000004000000
B0620123207837S11701007EA0104401173000004000000
B0620163207872S11700960EA0105101179000004000000
B0620203207882S11700894EA0104801175000004000000
B0620243207876S11700818EA0104401175000004000000
B0620283207867S11700740EA0105101179000004000000
B0620323207854S11700662EA0105401178000004000000
B0620363207820S11700598EA0105901186000004000000
B0620403207763S11700592EA0106701193000004000000
B0620443207727S11700640EA0106801189000004000000
B0620483207727S11700713EA0105801183000004000000
B0620523207739S11700790EA0106001186000004000000
B0620563207759S11700862EA0106701192000004000000
B0621003207811S11700891EA0107901205000004000000
B0621043207858S11700868EA0108401206000004000000
B0621083207883S11700806EA0107901204000004000000
B0621123207887S11700732EA0107701206000004000000
B0621163207885S11700654EA0107801206000004000000
B0621203207880S11700576EA0107801204000004000000
B0621243207863S11700496EA0107101196000004000000
B0621283207836S11700416EA0106901196000004000000
B0621323207800S11700336EA0106901196000004000000
B0621363207755S11700258EA0106801192000004000000
B0621403207703S11700179EA0106101186000004000000
B0621443207649S11700101EA0105901180000004000000
B0621483207592S11700024EA0105001171000004000000
B0621523207533S11659947EA0104001165000004000000
B0621563207472S11659872EA0103701160000004000000
B0622003207411S11659798EA0102801151000004000000
B0622043207346S11659722EA0101301133000004000000
B0622083207274S11659640EA0098401104000004000000
B0622123207198S11659556EA0097001097000004000000
B0622163207122S11659470EA0096401090000004000000
B0622203207048S11659388EA0095701084000004000000
B0622243206974S11659305EA0095001078000004000000
B0622283206900S11659224EA0094801072000004000000
B0622323206825S11659145EA0094001063000004000000
B0622363206748S11659068EA0093301057000004000000
B0622403206671S11658993EA0092501049000004000000
B0622443206595S11658919EA0091501041000004000000
B0622483206518S11658846EA0090901037000004000000
B0622523206444S11658776EA0090701035000004000000
B0622563206371S11658712EA0090801038000004000000
B0623003206301S11658654EA0091101039000004000000
B0623043206232S11658596EA0091001039000004000000
B0623083206164S11658543EA0091101039000004000000
B0623123206097S11658491EA0091101039000004000000
B0623163206029S11658444EA0091101040000004000000
B0623203205961S11658401EA0091801048000004000000
B0623243205896S11658362EA0092201048000004000000
B0623283205829S11658327EA0091701043000004000000
B0623323205757S11658296EA0091301037000004000000
B0623363205683S11658269EA0090701030000004000000
B0623403205608S11658256EA0090401029000004000000
B0623443205539S11658281EA0090801027000004000000
B0623483205484S11658338EA0090401030000004000000
B0623523205448S11658409EA0091201041000004000000
B0623563205436S11658485EA0092201046000004000000
B0624003205477S11658537EA0092101044000004000000
B0624043205534S11658531EA0090901032000004000000
B0624083205582S11658489EA0089501013000004000000
B0624123205620S11658424EA0087800998000004000000
B0624163205644S11658343EA0086100986000004000000
B0624203205655S11658256EA0085100974000004000000
B0624243205659S11658167EA0084100965000004000000
B0624283205674S11658080EA0083700964000004000000
B0624323205703S11657997EA0083700963000004000000
B0624363205742S11657922EA0083700965000004000000
B0624403205787S11657855EA0083800966000004000000
B0624443205831S11657797EA0084400972000004000000
B0624483205876S11657738EA0084300966000004000000
B0624523205924S11657679EA0083100955000004000000
B0624563205978S11657623EA0082100943000004000000
B0625003206045S11657592EA0080600927000004000000
B0625043206121S11657593EA0079300916000004000000
B0625083206198S11657612EA0078400911000004000000
B0625123206270S11657641EA0078500914000004000000
B0625163206332S11657679EA0079200921000004000000
B0625203206388S11657723EA0079700923000004000000
B0625243206445S11657767EA0079300919000004000000
B0625283206506S11657806EA0079400920000004000000
B0625323206569S11657818EA0080800935000004000000
B0625363206601S11657761EA0082100946000004000000
B0625403206597S11657686EA0082100945000004000000
B0625443206613S11657619EA0082200948000004000000
B0625483206665S11657593EA0082200950000004000000
B0625523206706S11657632EA0083200957000004000000
B0625563206719S11657698EA0083300958000004000000
B0626003206715S11657770EA0083200957000004000000
B0626043206684S11657831EA0083500969000004000000
B0626083206632S11657846EA0085100983000004000000
B0626123206585S11657810EA0085900984000004000000
B0626163206571S11657745EA0086100988000004000000
B0626203206593S11657690EA0086400991000004000000
B0626243206639S11657667EA0086100985000004000000
B0626283206691S11657681EA0085400980000004000000
B0626323206740S11657715EA0084700974000004000000
B0626363206779S11657771EA0084100969000004000000
B0626403206788S11657840EA0084400976000004000000
B0626443206784S11657906EA0085100974000004000000
B0626483206779S11657976EA0084100965000004000000
B0626523206769S11658050EA0083300955000004000000
B0626563206779S11658125EA0082900950000004000000
B0627003206816S11658186EA0082000944000004000000
B0627043206868S11658229EA0081300938000004000000
B0627083206927S11658255EA0080400928000004000000
B0627123206991S11658274EA0079700922000004000000
B0627163207056S11658294EA0079500922000004000000
B0627203207121S11658310EA0078700911000004000000
B0627243207187S11658329EA0077600903000004000000
B0627283207252S11658349EA0077000897000004000000
B0627323207316S11658372EA0076400892000004000000
B0627363207376S11658398EA0076500895000004000000
B0627403207437S11658425EA0077100899000004000000
B0627443207498S11658451EA0077900910000004000000
B0627483207553S11658439EA0079500923000004000000
B0627523207563S11658381EA0080800935000004000000
B0627563207524S11658339EA0081400942000004000000
B0628003207471S11658349EA0082400952000004000000
B0628043207446S11658405EA0083100960000004000000
B0628083207469S11658460EA0084100970000004000000
B0628123207519S11658468EA0084300970000004000000
B0628163207546S11658416EA0084400972000004000000
B0628203207524S11658355EA0084900977000004000000
B0628243207468S11658344EA0085400983000004000000
B0628283207420S11658387EA0086000988000004000000
B0628323207407S11658456EA0086500996000004000000
B0628363207441S11658507EA0087201001000004000000
B0628403207490S11658504EA0087200998000004000000
B0628443207518S11658452EA0086600994000004000000
B0628483207510S11658385EA0086600997000004000000
B0628523207459S11658356EA0087401004000004000000
B0628563207421S11658400EA0088201012000004000000
B0629003207451S11658453EA0088601016000004000000
B0629043207497S11658438EA0089701027000004000000
B0629083207497S11658379EA0089901027000004000000
B0629123207450S11658347EA0090201031000004000000
B0629163207395S11658375EA0090301030000004000000
B0629203207376S11658442EA0090801040000004000000
B0629243207407S11658494EA0091801045000004000000
B0629283207459S11658491EA0091701043000004000000
B0629323207486S11658437EA0091901045000004000000
B0629363207458S11658381EA0092201050000004000000
B0629403207397S11658375EA0092201049000004000000
B0629443207347S11658426EA0092501053000004000000
B0629483207334S11658503EA0092501052000004000000
B0629523207356S11658577EA0092101040000004000000
B0629563207412S11658617EA0090801031000004000000
B0630003207479S11658619EA0089701016000004000000
B0630043207549S11658595EA0088001003000004000000
B0630083207618S11658561EA0087501000000004000000
B0630123207683S11658520EA0086800993000004000000
B0630163207728S11658455EA0087401001000004000000
B0630203207749S11658375EA0087400999000004000000
B0630243207767S11658292EA0087000995000004000000
B0630283207775S11658204EA0086800992000004000000
B0630323207765S11658117EA0086400989000004000000
B0630363207740S11658032EA0085900980000004000000
B0630403207706S11657949EA0084900973000004000000
B0630443207668S11657868EA0084500969000004000000
B0630483207628S11657790EA0084200966000004000000
B0630523207585S11657715EA0083800962000004000000
B0630563207542S11657641EA0083000954000004000000
B0631003207497S11657567EA0082200943000004000000
B0631043207449S11657494EA0081100935000004000000
B0631083207402S11657423EA0080600930000004000000
B0631123207354S11657355EA0080200924000004000000
B0631163207304S11657289EA0079500919000004000000
B0631203207256S11657220EA0078700912000004000000
B0631243207209S11657150EA0078500911000004000000
B0631283207165S11657082EA0078200907000004000000
B0631323207122S11657013EA0077900904000004000000
B0631363207081S11656945EA0077700901000004000000
B0631403207039S11656875EA0077000893000004000000
B0631443206999S11656801EA0076300885000004000000
B0631483206959S11656730EA0076000887000004000000
B0631523206918S11656661EA0075900881000004000000
B0631563206878S11656589EA0074800873000004000000
B0632003206838S11656516EA0074500869000004000000
B0632043206796S11656446EA0074300868000004000000
B0632083206754S11656375EA0074400870000004000000
B0632123206710S11656306EA0074600871000004000000
B0632163206662S11656242EA0074700871000004000000
B0632203206606S11656189EA0075000873000004000000
B0632243206540S11656165EA0074700869000004000000
B0632283206474S11656134EA0073700859000004000000
B0632323206413S11656086EA0072800853000004000000
B0632363206361S11656029EA0072500848000004000000
B0632403206310S11655967EA0071800839000004000000
B0632443206260S11655903EA0071000834000004000000
B0632483206214S11655834EA0070900835000004000000
B0632523206173S11655761EA0071200836000004000000
B0632563206140S11655686EA0071000835000004000000
B0633003206097S11655616EA0071400836000004000000
B0633043206036S11655586EA0072000843000004000000
B0633083205976S11655605EA0072200844000004000000
B0633123205945S11655662EA0072300845000004000000
B0633163205955S11655722EA0072300844000004000000
B0633203205995S11655761EA0071700837000004000000
B0633243206050S11655773EA0070900830000004000000
B0633283206107S11655782EA0070100828000004000000
B0633323206166S11655787EA0070200829000004000000
B0633363206224S11655790EA0070400831000004000000
B0633403206281S11655787EA0070600832000004000000
B0633443206335S11655766EA0070100826000004000000
B0633483206385S11655735EA0069300819000004000000
B0633523206444S11655717EA0069200821000004000000
B0633563206502S11655721EA0069700825000004000000
B0634003206556S11655747EA0070100829000004000000
B0634043206579S11655803EA0070200825000004000000
B0634083206571S11655870EA0069500817000004000000
B0634123206546S11655941EA0068800809000004000000
B0634163206536S11656011EA0068400808000004000000
B0634203206553S11656074EA0067900803000004000000
B0634243206593S11656124EA0067300797000004000000
B0634283206644S11656159EA0067200796000004000000
B0634323206700S11656178EA0066900795000004000000
B0634363206757S11656190EA0067000795000004000000
B0634403206816S11656197EA0067000798000004000000
B0634443206875S11656194EA0067800803000004000000
B0634483206920S11656158EA0068700813000004000000
B0634523206909S11656098EA0069400819000004000000
B0634563206857S11656086EA0069700822000004000000
B0635003206822S11656134EA0069800825000004000000
B0635043206834S11656193EA0070300828000004000000
B0635083206882S11656211EA0070500829000004000000
B0635123206917S11656168EA0070800833000004000000
B0635163206899S11656111EA0071000837000004000000
B0635203206847S11656102EA0071500841000004000000
B0635243206808S11656149EA0071600840000004000000
B0635283206810S11656211EA0071800845000004000000
B0635323206856S11656241EA0072500850000004000000
B0635363206899S11656210EA0072600851000004000000
B0635403206903S11656146EA0072700854000004000000
B0635443206858S11656111EA0073300860000004000000
B0635483206806S11656128EA0073400860000004000000
B0635523206775S11656185EA0073500862000004000000
B0635563206784S11656245EA0074400871000004000000
B0636003206829S11656260EA0074600871000004000000
B0636043206864S11656217EA0074700871000004000000
B0636083206852S11656158EA0074900876000004000000
B0636123206804S11656133EA0075400882000004000000
B0636163206757S11656162EA0075800882000004000000
B0636203206747S11656224EA0075700885000004000000
B0636243206786S11656255EA0076300890000004000000
B0636283206829S11656225EA0076300887000004000000
B0636323206831S11656163EA0076400891000004000000
B0636363206791S11656120EA0077100896000004000000
B0636403206736S11656119EA0077300897000004000000
B0636443206693S11656159EA0077500899000004000000
B0636483206682S11656219EA0077900904000004000000
B0636523206706S11656264EA0078100904000004000000
B0636563206754S11656271EA0077600900000004000000
B0637003206797S11656230EA0077000895000004000000
B0637043206826S11656168EA0076900895000004000000
B0637083206817S11656103EA0077900905000004000000
B0637123206770S11656073EA0078300906000004000000
B0637163206717S11656100EA0077800902000004000000
B0637203206699S11656168EA0077900906000004000000
B0637243206722S11656228EA0078200908000004000000
B0637283206773S11656249EA0078600911000004000000
B0637323206819S11656221EA0078400910000004000000
B0637363206838S11656159EA0078500910000004000000
B0637403206806S11656104EA0078900916000004000000
B0637443206754S11656085EA0079500918000004000000
B0637483206701S11656107EA0079200915000004000000
B0637523206663S11656164EA0079000917000004000000
B0637563206645S11656228EA0079800922000004000000
B0638003206665S11656281EA0080100926000004000000
B0638043206715S11656294EA0079900922000004000000
B0638083206758S11656256EA0079400918000004000000
B0638123206766S11656190EA0079300918000004000000
B0638163206740S11656130EA0079400920000004000000
B0638203206691S11656090EA0079600919000004000000
B0638243206630S11656084EA0079500918000004000000
B0638283206572S11656115EA0079300917000004000000
B0638323206526S11656168EA0079000914000004000000
B0638363206483S11656230EA0078600910000004000000
B0638403206444S11656295EA0078100903000004000000
B0638443206402S11656366EA0077200898000004000000
B0638483206363S11656436EA0077100899000004000000
B0638523206324S11656503EA0077100899000004000000
B0638563206281S11656570EA0076800894000004000000
B0639003206233S11656635EA0076600893000004000000
B0639043206185S11656698EA0076700892000004000000
B0639083206136S11656761EA0076300885000004000000
B0639123206084S11656822EA0075600880000004000000
B0639163206034S11656884EA0075600882000004000000
B0639203205989S11656945EA0075900886000004000000
B0639243205956S11657008EA0077000903000004000000
B0639283205929S11657069EA0077700903000004000000
B0639323205900S11657127EA0077600902000004000000
B0639363205876S11657191EA0077600899000004000000
B0639403205859S11657259EA0077000897000004000000
B0639443205850S11657329EA0077300899000004000000
B0639483205867S11657390EA0078100908000004000000
B0639523205916S11657394EA0079000916000004000000
B0639563205941S11657338EA0079400916000004000000
B0640003205911S11657276EA0079500921000004000000
B0640043205856S11657260EA0080100924000004000000
B0640083205809S11657294EA0080400928000004000000
B0640123205794S11657351EA0080900933000004000000
B0640163205821S11657394EA0081400937000004000000
B0640203205867S11657380EA0082000942000004000000
B0640243205880S11657320EA0082200946000004000000
B0640283205843S11657267EA0082400949000004000000
B0640323205789S11657263EA0082700951000004000000
B0640363205744S11657302EA0082700951000004000000
B0640403205735S11657361EA0082900955000004000000
B0640443205765S11657404EA0083400960000004000000
B0640483205815S11657403EA0083700964000004000000
B0640523205857S11657364EA0083900964000004000000
B0640563205869S11657294EA0084000964000004000000
B0641003205834S11657231EA0084100966000004000000
B0641043205774S11657207EA0084400970000004000000
B0641083205716S11657225EA0085000976000004000000
B0641123205683S11657278EA0085400983000004000000
B0641163205692S11657337EA0085500980000004000000
B0641203205739S11657373EA0085000975000004000000
B0641243205794S11657352EA0085600984000004000000
B0641283205816S11657291EA0086500995000004000000
B0641323205798S11657226EA0087100997000004000000
B0641363205746S11657189EA0087000996000004000000
B0641403205686S11657195EA0087501003000004000000
B0641443205649S11657241EA0088401011000004000000
B0641483205662S11657291EA0088601011000004000000
B0641523205708S11657302EA0088901015000004000000
B0641563205740S11657260EA0089301018000004000000
B0642003205729S11657196EA0089401021000004000000
B0642043205679S11657163EA0090101026000004000000
B0642083205630S11657187EA0090101028000004000000
B0642123205621S11657242EA0090401031000004000000
B0642163205656S11657276EA0090501032000004000000
B0642203205700S11657248EA0090701032000004000000
B0642243205704S11657182EA0090901037000004000000
B0642283205666S11657133EA0092001045000004000000
B0642323205610S11657134EA0092301049000004000000
B0642363205577S11657182EA0092401049000004000000
B0642403205588S11657235EA0092601053000004000000
B0642443205631S11657252EA0093001056000004000000
B0642483205668S11657215EA0092901056000004000000
B0642523205669S11657147EA0093201061000004000000
B0642563205630S11657096EA0093801062000004000000
B0643003205570S11657096EA0093801062000004000000
B0643043205529S11657142EA0093801062000004000000
B0643083205513S11657204EA0093801062000004000000
B0643123205505S11657268EA0093701061000004000000
B0643163205503S11657334EA0093401056000004000000
B0643203205521S11657403EA0092901050000004000000
B0643243205562S11657455EA0092501052000004000000
B0643283205616S11657491EA0092601054000004000000
B0643323205670S11657521EA0092901059000004000000
B0643363205725S11657547EA0093101057000004000000
B0643403205785S11657571EA0092501049000004000000
B0643443205846S11657598EA0092101047000004000000
B0643483205906S11657623EA0092301052000004000000
B0643523205964S11657646EA0092101046000004000000
B0643563206024S11657671EA0091501038000004000000
B0644003206084S11657703EA0090801030000004000000
B0644043206143S11657742EA0089801022000004000000
B0644083206202S11657781EA0089201019000004000000
B0644123206259S11657826EA0088901015000004000000
B0644163206316S11657868EA0088801015000004000000
B0644203206372S11657911EA0089001016000004000000
B0644243206431S11657950EA0088901014000004000000
B0644283206491S11657988EA0088501010000004000000
B0644323206550S11658022EA0088401010000004000000
B0644363206609S11658057EA0088701017000004000000
B0644403206665S11658093EA0089201020000004000000
B0644443206718S11658130EA0089301022000004000000
B0644483206769S11658169EA0089601024000004000000
B0644523206818S11658210EA0089501021000004000000
B0644563206866S11658256EA0089301019000004000000
B0645003206914S11658303EA0089201019000004000000
B0645043206961S11658349EA0089301019000004000000
B0645083207001S11658407EA0088901016000004000000
B0645123207031S11658476EA0089001017000004000000
B0645163207051S11658548EA0089601022000004000000
B0645203207082S11658612EA0090801032000004000000
B0645243207130S11658629EA0091601040000004000000
B0645283207164S11658589EA0091401036000004000000
B0645323207156S11658520EA0090901031000004000000
B0645363207111S11658468EA0090901031000004000000
B0645403207051S11658453EA0090901035000004000000
B0645443206996S11658489EA0091401038000004000000
B0645483206964S11658554EA0091401040000004000000
B0645523206961S11658622EA0091901046000004000000
B0645563207001S11658652EA0092501046000004000000
B0646003207039S11658616EA0091501035000004000000
B0646043207035S11658550EA0091301037000004000000
B0646083206987S11658509EA0091901044000004000000
B0646123206930S11658517EA0092701051000004000000
B0646163206896S11658573EA0092901051000004000000
B0646203206894S11658645EA0092101040000004000000
B0646243206903S11658725EA0090201020000004000000
B0646283206917S11658812EA0088701011000004000000
B0646323206930S11658898EA0087701005000004000000
B0646363206943S11658979EA0088001009000004000000
B0646403206953S11659058EA0088001006000004000000
B0646443206960S11659137EA0087000996000004000000
B0646483206961S11659218EA0086500991000004000000
B0646523206960S11659298EA0086000984000004000000
B0646563206957S11659383EA0085200979000004000000
B0647003206957S11659465EA0085100979000004000000
B0647043206961S11659545EA0084800975000004000000
B0647083206965S11659626EA0084300968000004000000
B0647123206973S11659704EA0083900966000004000000
B0647163206982S11659778EA0084100968000004000000
B0647203206991S11659850EA0083900967000004000000
B0647243206999S11659922EA0083600964000004000000
B0647283207007S11659994EA0083800967000004000000
B0647323207009S11700064EA0084300971000004000000
B0647363207016S11700136EA0084500975000004000000
B0647403207043S11700189EA0086200993000004000000
B0647443207089S11700180EA0087601006000004000000
B0647483207096S11700115EA0088401009000004000000
B0647523207052S11700068EA0088901014000004000000
B0647563206995S11700077EA0089401019000004000000
B0648003206972S11700134EA0090201027000004000000
B0648043206999S11700186EA0090201028000004000000
B0648083207051S11700192EA0090701034000004000000
B0648123207078S11700134EA0091801045000004000000
B0648163207055S11700068EA0092801052000004000000
B0648203206999S11700046EA0093301059000004000000
B0648243206952S11700086EA0093801065000004000000
B0648283206953S11700149EA0094301070000004000000
B0648323206999S11700182EA0094501070000004000000
B0648363207052S11700158EA0094801077000004000000
B0648403207069S11700091EA0095701087000004000000
B0648443207039S11700028EA0096301091000004000000
B0648483206979S11659995EA0096201088000004000000
B0648523206914S11700010EA0096401095000004000000
B0648563206868S11700056EA0097301103000004000000
B0649003206853S11700119EA0097701104000004000000
B0649043206870S11700176EA0097301098000004000000
B0649083206914S11700212EA0096901097000004000000
B0649123206972S11700215EA0097401104000004000000
B0649163207020S11700181EA0098101109000004000000
B0649203207040S11700115EA0098101110000004000000
B0649243207024S11700046EA0099401126000004000000
B0649283206979S11700006EA0100701133000004000000
B0649323206916S11700003EA0100201128000004000000
B0649363206857S11700037EA0100901141000004000000
B0649403206827S11700090EA0102101149000004000000
B0649443206829S11700149EA0101801140000004000000
B0649483206860S11700202EA0100801132000004000000
B0649523206910S11700228EA0101301146000004000000
B0649563206960S11700223EA0103101158000004000000
B0650003207007S11700194EA0102901155000004000000
B0650043207044S11700140EA0102801156000004000000
B0650083207060S11700067EA0103201161000004000000
B0650123207047S11659991EA0103601165000004000000
B0650163207013S11659929EA0104901177000004000000
B0650203206968S11659894EA0106001186000004000000
B0650243206916S11659877EA0105901181000004000000
B0650283206855S11659880EA0105501181000004000000
B0650323206803S11659907EA0106101190000004000000
B0650363206767S11659956EA0106201185000004000000
B0650403206751S11700024EA0105001172000004000000
B0650443206758S11700097EA0104001164000004000000
B0650483206792S11700158EA0103701162000004000000
B0650523206845S11700194EA0103701164000004000000
B0650563206908S11700189EA0104501173000004000000
B0651003206955S11700138EA0104701176000004000000
B0651043206966S11700059EA0104701176000004000000
B0651083206939S11659982EA0105001179000004000000
B0651123206879S11659939EA0105301182000004000000
B0651163206810S11659947EA0105901188000004000000
B0651203206756S11659994EA0106001188000004000000
B0651243206725S11700059EA0105801183000004000000
B0651283206714S11700137EA0104201166000004000000
B0651323206712S11700225EA0102601154000004000000
B0651363206712S11700318EA0102101150000004000000
B0651403206705S11700411EA0101901148000004000000
B0651443206696S11700504EA0102301153000004000000
B0651483206717S11700583EA0103801164000004000000
B0651523206771S11700622EA0103801162000004000000
B0651563206832S11700600EA0103401160000004000000
B0652003206873S11700536EA0102501149000004000000
B0652043206895S11700453EA0102201147000004000000
B0652083206888S11700367EA0102101146000004000000
B0652123206844S11700298EA0102101147000004000000
B0652163206778S11700262EA0102701156000004000000
B0652203206705S11700260EA0103301161000004000000
B0652243206636S11700292EA0103301155000004000000
B0652283206578S11700353EA0102101148000004000000
B0652323206532S11700429EA0101801146000004000000
B0652363206500S11700517EA0101701143000004000000
B0652403206475S11700608EA0101401140000004000000
B0652443206453S11700697EA0101101138000004000000
B0652483206435S11700786EA0101101136000004000000
B0652523206418S11700879EA0100101124000004000000
B0652563206402S11700973EA0099501123000004000000
B0653003206388S11701064EA0099101118000004000000
B0653043206374S11701156EA0098701114000004000000
B0653083206359S11701248EA0097701104000004000000
B0653123206340S11701337EA0098301115000004000000
B0653163206319S11701417EA0100201128000004000000
B0653203206322S11701492EA0101201137000004000000
B0653243206340S11701563EA0100701128000004000000
B0653283206331S11701644EA0099701120000004000000
B0653323206296S11701719EA0098701110000004000000
B0653363206244S11701785EA0097701100000004000000
B0653403206184S11701846EA0096701088000004000000
B0653443206123S11701913EA0095101074000004000000
B0653483206072S11701986EA0094901074000004000000
B0653523206042S11702069EA0094501068000004000000
B0653563206034S11702158EA0093801064000004000000
B0654003206041S11702243EA0095601081000004000000
B0654043206089S11702268EA0097301102000004000000
B0654083206133S11702226EA0097501096000004000000
B0654123206136S11702147EA0096901091000004000000
B0654163206095S11702080EA0096401086000004000000
B0654203206032S11702052EA0096101086000004000000
B0654243205965S11702054EA0095801084000004000000
B0654283205904S11702082EA0095701081000004000000
B0654323205856S11702132EA0095701083000004000000
B0654363205828S11702200EA0095701081000004000000
B0654403205821S11702274EA0095401082000004000000
B0654443205824S11702351EA0095601085000004000000
B0654483205830S11702426EA0095701083000004000000
B0654523205839S11702503EA0095501082000004000000
B0654563205857S11702576EA0095201077000004000000
B0655003205873S11702654EA0094401069000004000000
B0655043205880S11702733EA0094101069000004000000
B0655083205881S11702814EA0093901065000004000000
B0655123205876S11702897EA0093301060000004000000
B0655163205869S11702980EA0093501066000004000000
B0655203205863S11703061EA0094201072000004000000
B0655243205860S11703139EA0095101079000004000000
B0655283205887S11703204EA0095701083000004000000
B0655323205945S11703223EA0096201085000004000000
B0655363206000S11703189EA0095801081000004000000
B0655403206016S11703115EA0096101088000004000000
B0655443205984S11703052EA0096501090000004000000
B0655483205925S11703032EA0096301089000004000000
B0655523205864S11703052EA0096101087000004000000
B0655563205812S11703094EA0096401092000004000000
B0656003205770S11703150EA0096601092000004000000
B0656043205734S11703210EA0096301087000004000000
B0656083205698S11703274EA0095701079000004000000
B0656123205661S11703338EA0094901072000004000000
B0656163205622S11703400EA0094001063000004000000
B0656203205574S11703455EA0093401057000004000000
B0656243205519S11703504EA0092501048000004000000
B0656283205464S11703555EA0091801045000004000000
B0656323205409S11703603EA0092101047000004000000
B0656363205358S11703646EA0092701059000004000000
B0656403205311S11703681EA0093401058000004000000
B0656443205259S11703716EA0092501047000004000000
B0656483205201S11703747EA0091601042000004000000
B0656523205145S11703786EA0091401039000004000000
B0656563205110S11703847EA0092401050000004000000
B0657003205119S11703907EA0093601061000004000000
B0657043205163S11703932EA0093701060000004000000
B0657083205211S11703904EA0093501058000004000000
B0657123205214S11703839EA0093801061000004000000
B0657163205172S11703790EA0093601057000004000000
B0657203205111S11703780EA0093101059000004000000
B0657243205053S11703803EA0093601060000004000000
B0657283205014S11703855EA0093701066000004000000
B0657323205009S11703920EA0094201070000004000000
B0657363205036S11703975EA0094801074000004000000
B0657403205088S11703989EA0094801073000004000000
B0657443205131S11703952EA0094901074000004000000
B0657483205135S11703886EA0094501065000004000000
B0657523205096S11703824EA0093601060000004000000
B0657563205035S11703798EA0094001068000004000000
B0658003204980S11703824EA0094701073000004000000
B0658043204959S11703887EA0094801074000004000000
B0658083204977S11703951EA0095001075000004000000
B0658123205024S11703991EA0094801075000004000000
B0658163205081S11703993EA0095301079000004000000
B0658203205131S11703958EA0094701071000004000000
B0658243205159S11703889EA0094101065000004000000
B0658283205150S11703807EA0093501059000004000000
B0658323205101S11703742EA0093001055000004000000
B0658363205032S11703726EA0093301058000004000000
B0658403204971S11703763EA0093501059000004000000
B0658443204944S11703834EA0093601063000004000000
B0658483204958S11703900EA0094301071000004000000
B0658523204999S11703941EA0095001077000004000000
B0658563205053S11703949EA0094701072000004000000
B0659003205107S11703920EA0093901062000004000000
B0659043205152S11703860EA0092901054000004000000
B0659083205191S11703787EA0092101041000004000000
B0659123205220S11703702EA0091301040000004000000
B0659163205248S11703614EA0091101036000004000000
B0659203205272S11703526EA0090201027000004000000
B0659243205300S11703439EA0089601022000004000000
B0659283205328S11703352EA0088901016000004000000
B0659323205356S11703267EA0088601014000004000000
B0659363205382S11703183EA0088601013000004000000
B0659403205408S11703102EA0088401007000004000000
B0659443205434S11703019EA0087300995000004000000
B0659483205458S11702933EA0086400989000004000000
B0659523205483S11702847EA0085900987000004000000
B0659563205508S11702763EA0085900984000004000000
B0700003205531S11702676EA0085300980000004000000
B0700043205551S11702586EA0084700973000004000000
B0700083205570S11702494EA0083900965000004000000
B0700123205588S11702405EA0083800963000004000000
B0700163205605S11702314EA0083200952000004000000
B0700203205625S11702222EA0082400949000004000000
B0700243205644S11702130EA0082200946000004000000
B0700283205669S11702038EA0082300947000004000000
B0700323205694S11701947EA0082400952000004000000
B0700363205716S11701857EA0083100958000004000000
B0700403205726S11701767EA0083700962000004000000
B0700443205688S11701706EA0085700982000004000000
B0700483205635S11701709EA0085900981000004000000
B0700523205600S11701758EA0085400973000004000000
B0700563205597S11701824EA0084800972000004000000
B0701003205620S11701882EA0085500983000004000000
B0701043205668S11701888EA0086500991000004000000
B0701083205695S11701832EA0086700988000004000000
B0701123205668S11701767EA0086500988000004000000
B0701163205612S11701748EA0086500989000004000000
B0701203205564S11701781EA0086500989000004000000
B0701243205553S11701844EA0086600991000004000000
B0701283205590S11701889EA0087200997000004000000
B0701323205643S11701882EA0087601001000004000000
B0701363205675S11701827EA0088001004000004000000
B0701403205673S11701758EA0088101006000004000000
B0701443205634S11701709EA0088201006000004000000
B0701483205579S11701705EA0088201004000004000000
B0701523205538S11701745EA0088001004000004000000
B0701563205534S11701801EA0088701013000004000000
B0702003205571S11701832EA0088901013000004000000
B0702043205621S11701810EA0088701010000004000000
B0702083205638S11701744EA0088901012000004000000
B0702123205612S11701676EA0089101011000004000000
B0702163205557S11701648EA0089001013000004000000
B0702203205509S11701671EA0089001013000004000000
B0702243205497S11701727EA0088701011000004000000
B0702283205530S11701771EA0089101017000004000000
B0702323205581S11701761EA0089301019000004000000
B0702363205607S11701701EA0089301018000004000000
B0702403205583S11701632EA0089101014000004000000
B0702443205530S11701602EA0089301016000004000000
B0702483205480S11701624EA0089201015000004000000
B0702523205466S11701681EA0088901013000004000000
B0702563205492S11701732EA0089101019000004000000
B0703003205540S11701746EA0089801023000004000000
B0703043205588S11701716EA0089701020000004000000
B0703083205620S11701653EA0089101014000004000000
B0703123205640S11701575EA0088201002000004000000
B0703163205657S11701488EA0086600989000004000000
B0703203205673S11701399EA0085500978000004000000
B0703243205686S11701308EA0084900976000004000000
B0703283205694S11701220EA0084900976000004000000
B0703323205694S11701130EA0084600969000004000000
B0703363205698S11701038EA0083300959000004000000
B0703403205709S11700947EA0083600965000004000000
B0703443205724S11700862EA0084500971000004000000
B0703483205744S11700783EA0084800975000004000000
B0703523205768S11700708EA0085400981000004000000
B0703563205757S11700631EA0086100989000004000000
B0704003205707S11700596EA0087000996000004000000
B0704043205655S11700623EA0086800989000004000000
B0704083205639S11700688EA0086200986000004000000
B0704123205664S11700744EA0086400989000004000000
B0704163205709S11700773EA0086500991000004000000
B0704203205763S11700767EA0086600991000004000000
B0704243205811S11700730EA0086700992000004000000
B0704283205846S11700674EA0086900992000004000000
B0704323205839S11700608EA0087400999000004000000
B0704363205792S11700582EA0087400997000004000000
B0704403205746S11700611EA0087100993000004000000
B0704443205731S11700674EA0086500988000004000000
B0704483205760S11700728EA0086400989000004000000
B0704523205813S11700748EA0086400990000004000000
B0704563205868S11700723EA0086700993000004000000
B0705003205908S11700666EA0086300987000004000000
B0705043205934S11700589EA0086100986000004000000
B0705083205939S11700506EA0086600989000004000000
B0705123205893S11700463EA0087100992000004000000
B0705163205841S11700492EA0086400981000004000000
B0705203205839S11700566EA0085300976000004000000
B0705243205882S11700618EA0085000975000004000000
B0705283205943S11700618EA0085500985000004000000
B0705323205984S11700561EA0086000988000004000000
B0705363206000S11700484EA0085300978000004000000
B0705403206012S11700400EA0083900963000004000000
B0705443206015S11700310EA0083100960000004000000
B0705483206004S11700223EA0083100958000004000000
B0705523205999S11700133EA0082600950000004000000
B0705563206002S11700042EA0082300952000004000000
B0706003206013S11659955EA0082200949000004000000
B0706043206030S11659870EA0082000948000004000000
B0706083206050S11659787EA0081900945000004000000
B0706123206064S11659699EA0081300939000004000000
B0706163206075S11659610EA0081300940000004000000
B0706203206081S11659521EA0081200936000004000000
B0706243206080S11659432EA0080500927000004000000
B0706283206086S11659344EA0079700921000004000000
B0706323206095S11659258EA0079400917000004000000
B0706363206117S11659175EA0078300907000004000000
B0706403206154S11659100EA0077700902000004000000
B0706443206198S11659029EA0077100894000004000000
B0706483206247S11658962EA0076200887000004000000
B0706523206296S11658889EA0075500882000004000000
B0706563206342S11658812EA0075400881000004000000
B0707003206389S11658736EA0075100875000004000000
B0707043206439S11658661EA0074400869000004000000
B0707083206489S11658589EA0073700862000004000000
B0707123206540S11658521EA0073000854000004000000
B0707163206592S11658455EA0072200848000004000000
B0707203206640S11658392EA0072000846000004000000
B0707243206684S11658329EA0071600845000004000000
B0707283206725S11658264EA0071600842000004000000
B0707323206762S11658195EA0071300841000004000000
B0707363206803S11658128EA0071200840000004000000
B0707403206843S11658063EA0071300840000004000000
B0707443206879S11658000EA0071400838000004000000
B0707483206916S11657937EA0070600830000004000000
B0707523206955S11657876EA0070100825000004000000
B0707563206992S11657815EA0069400817000004000000
B0708003207030S11657750EA0068600811000004000000
B0708043207064S11657683EA0068300808000004000000
B0708083207098S11657614EA0068000806000004000000
B0708123207130S11657542EA0067800807000004000000
B0708163207159S11657471EA0068000806000004000000
B0708203207187S11657399EA0067400799000004000000
B0708243207219S11657329EA0066700792000004000000
B0708283207250S11657257EA0066100785000004000000
B0708323207280S11657186EA0065200778000004000000
B0708363207311S11657116EA0064500770000004000000
B0708403207343S11657046EA0064200768000004000000
B0708443207376S11656977EA0064000767000004000000
B0708483207408S11656909EA0063800766000004000000
B0708523207441S11656845EA0064000765000004000000
B0708563207482S11656788EA0063700763000004000000
B0709003207529S11656736EA0063700764000004000000
B0709043207575S11656682EA0064400771000004000000
B0709083207589S11656613EA0065500781000004000000
B0709123207558S11656559EA0065600777000004000000
B0709163207499S11656548EA0064500767000004000000
B0709203207449S11656583EA0064200767000004000000
B0709243207432S11656643EA0064300769000004000000
B0709283207441S11656704EA0064200771000004000000
B0709323207467S11656760EA0064200769000004000000
B0709363207507S11656806EA0064000769000004000000
B0709403207560S11656832EA0064300769000004000000
B0709443207607S11656801EA0064800775000004000000
B0709483207615S11656735EA0064800774000004000000
B0709523207577S11656683EA0064300770000004000000
B0709563207520S11656685EA0064200768000004000000
B0710003207480S11656735EA0064200771000004000000
B0710043207468S11656802EA0064600776000004000000
