ACAM4N6
HFDTE180221
HFFXA050
HFPLTPILOT:JOHN WELSH              
HFGTYGLIDERTYPE:HORNET      
HFGIDGLIDERID:VH-GMY      
HFDTM100GPSDATUM:
HFRFWFIRMWAREVERSION:F2.6
HFRHWHARDWAREVERSION:300 Series Version 2
HFFTYFRTYPE:CAMBRIDGE AERO INSTRUMENTS, 302+
HFGPS:GARMIN,LVS-25,12,18000
HFPRSPRESSALTSENSOR:INTERSEMA, MS5534-AP, 20000
I033638FXA3941ENL4247REX
LCAMSBVER:5FWVER:F26300
C180221032628180221000102
C0000000N00000000WTAKEOFF     
C3207549S11656849EBEVAIR      
C3220282S11752282ECorrigin    
C3301432S11652383EWilliams    
C3207549S11656849EBEVAIR      
C0000000N00000000WLANDING     
B0339333207337S11656860EA0021700207000000000000
B0339353207337S11656860EA0021700207000000000000
B0339373207337S11656860EA0021700207000000000000
B0339393207337S11656860EA0021600207000000000000
B0339413207337S11656860EA0021700207000000000000
B0339433207337S11656860EA0021700207000000000000
B0339453207337S11656860EA0021700207000000000000
B0339473207337S11656860EA0021800207000000000000
B0339493207337S11656860EA0021700207000000000000
B0339513207337S11656860EA0021600207000000000000
B0339533207337S11656860EA0021600207000000000000
B0339553207337S11656860EA0021600207000000000000
B0339573207337S11656860EA0021700207000000000000
B0339593207337S11656860EA0021700207000000000000
B0340013207338S11656861EA0021700207000000000000
B0340043207349S11656867EA0021700207000000000000
B0340083207375S11656887EA0021600206000000000000
B0340123207416S11656914EA0021900207000000000000
B0340163207469S11656948EA0022100207000000000000
B0340203207534S11656990EA0022000208000000000000
B0340243207603S11657040EA0022300212000000000000
B0340283207672S11657098EA0023000220000000000000
B0340323207737S11657160EA0024300234000000000000
B0340363207798S11657217EA0026300258000000000000
B0340403207854S11657274EA0027900278000000000000
B0340443207908S11657330EA0029900297000000000000
B0340483207962S11657384EA0031300311000000000000
B0340523208015S11657437EA0032400320000000000000
B0340563208069S11657489EA0033400335000000000000
B0341003208123S11657540EA0034800344000000000000
B0341043208179S11657592EA0035800358000000000000
B0341083208236S11657641EA0037400371000000000000
B0341123208295S11657693EA0038100376000000000000
B0341163208352S11657748EA0038800385000000000000
B0341203208408S11657803EA0039800396000000000000
B0341243208467S11657857EA0041100412000000000000
B0341283208522S11657914EA0043400438000000000000
B0341323208578S11657974EA0045900462000000000000
B0341363208636S11658035EA0047500471000000000000
B0341403208693S11658099EA0048200479000000000000
B0341443208746S11658165EA0049700497000000000000
B0341483208795S11658243EA0050500501000000000000
B0341523208824S11658344EA0050800508000000000000
B0341563208816S11658457EA0052000521000000000000
B0342003208775S11658563EA0052900528000000000000
B0342043208707S11658645EA0053800532000000000000
B0342083208625S11658704EA0054300540000000000000
B0342123208538S11658739EA0055500554000000000000
B0342163208451S11658745EA0057300575000000000000
B0342203208370S11658733EA0059600599000000000000
B0342243208292S11658713EA0061900623000000000000
B0342283208217S11658697EA0064500647000000000000
B0342323208156S11658743EA0066400663000000000000
B0342363208161S11658821EA0066700657000000000000
B0342403208209S11658841EA0065900650000000000000
B0342443208240S11658807EA0065500649000000000000
B0342483208238S11658754EA0065800655000000000000
B0342523208173S11658755EA0066900669000000000000
B0342563208148S11658834EA0068100675000000000000
B0343003208184S11658886EA0067800670000000000000
B0343043208217S11658866EA0068000676000000000000
B0343083208174S11658837EA0068700686000000000000
B0343123208119S11658893EA0069600693000000000000
B0343163208135S11658967EA0070300697000000000000
B0343203208174S11658967EA0070500701000000000000
B0343243208155S11658932EA0071200706000000015000
B0343283208087S11658955EA0071300708000000000000
B0343323208064S11659036EA0072500723000000000000
B0343363208100S11659083EA0072500714000000000000
B0343403208134S11659062EA0072400721000000000000
B0343443208112S11659024EA0073500734000000015000
B0343483208049S11659046EA0074700746000000015000
B0343523208022S11659124EA0075400747000000000000
B0343563208052S11659188EA0075200746000000000000
B0344003208087S11659180EA0075700757000000000000
B0344043208067S11659146EA0076700768000000015000
B0344083208008S11659157EA0077500772000000015000
B0344123207970S11659233EA0077700772000000000000
B0344163207995S11659302EA0077900774000000000000
B0344203208036S11659304EA0078100778000000000000
B0344243208047S11659263EA0078600782000000000000
B0344283208000S11659241EA0079200791000000015000
B0344323207943S11659289EA0080400803000000000000
B0344363207927S11659370EA0081300808000000000000
B0344403207958S11659432EA0081200807000000000000
B0344443207997S11659431EA0081600812000000000000
B0344483207982S11659396EA0082500822000000015000
B0344523207921S11659418EA0083000827000000015000
B0344563207892S11659500EA0083300828000000000000
B0345003207926S11659565EA0083700833000000000000
B0345043207962S11659555EA0084100838000000015000
B0345083207940S11659523EA0084600846000000015000
B0345123207876S11659555EA0084900846000000015000
B0345163207846S11659642EA0085300851000000000000
B0345203207866S11659720EA0086000858000000015000
B0345243207909S11659731EA0085500846000000015000
B0345283207915S11659690EA0085100847000000000000
B0345323207872S11659656EA0085500854000000000000
B0345363207804S11659695EA0086400862000000015000
B0345403207787S11659787EA0087000870000000000000
B0345443207830S11659835EA0087600875000000015000
B0345483207853S11659807EA0088100876000000015000
B0345523207805S11659782EA0089000892000000015000
B0345563207742S11659824EA0090300904000000015000
B0346003207723S11659909EA0091300914000000015000
B0346043207753S11659965EA0092000917000000015000
B0346083207784S11659955EA0091500907000000015000
B0346123207754S11659921EA0091700917000000015000
B0346163207688S11659952EA0092900928000000015000
B0346203207658S11700034EA0094100940000000015000
B0346243207679S11700103EA0094700940000000015000
B0346283207714S11700111EA0093700928000000015000
B0346323207726S11700072EA0092900924000000000000
B0346363207718S11700023EA0093000929000000000000
B0346403207659S11700004EA0093200924000000000000
B0346443207599S11700062EA0092900923000000000000
B0346483207581S11700153EA0092500919000000000000
B0346523207588S11700247EA0092500923000000000000
B0346563207629S11700290EA0093200931000000000000
B0347003207642S11700260EA0093700935000000000000
B0347043207593S11700236EA0094400946000000000000
B0347083207531S11700281EA0095300953000000000000
B0347123207515S11700371EA0095700954000000000000
B0347163207550S11700428EA0095900956000000000000
B0347203207584S11700423EA0095800957000000000000
B0347243207588S11700380EA0095600954000000000000
B0347283207588S11700329EA0095600954000000000000
B0347323207588S11700276EA0094700936000000000000
B0347363207611S11700225EA0092300914000000000000
B0347403207662S11700198EA0090700905000000000000
B0347443207720S11700195EA0089700894000000000000
B0347483207783S11700210EA0089000886000000000000
B0347523207846S11700232EA0087900876000000000000
B0347563207909S11700263EA0086600862000000000000
B0348003207971S11700297EA0085200847000000000000
B0348043208030S11700332EA0084200840000000000000
B0348083208088S11700371EA0083600829000000000000
B0348123208151S11700414EA0082100812000000000000
B0348163208214S11700462EA0080900803000000000000
B0348203208278S11700510EA0080400801000000000000
B0348243208339S11700554EA0081000808000000000000
B0348283208394S11700562EA0081400809000000000000
B0348323208439S11700541EA0081000802000000000000
B0348363208474S11700505EA0080400796000000000000
B0348403208503S11700462EA0079800792000000000000
B0348443208524S11700413EA0079400786000000000000
B0348483208539S11700359EA0078400776000000000000
B0348523208560S11700305EA0077000757000000000000
B0348563208595S11700255EA0075800752000000000000
B0349003208621S11700202EA0075700752000000000000
B0349043208641S11700146EA0076200761000000000000
B0349083208660S11700093EA0077500772000000000000
B0349123208649S11700046EA0078800789000000000000
B0349163208587S11700063EA0079800791000000000000
B0349203208554S11700147EA0079300787000000000000
B0349243208578S11700224EA0080100799000000000000
B0349283208611S11700206EA0080800802000000000000
B0349323208568S11700181EA0081200814000000000000
B0349363208512S11700227EA0082600827000000000000
B0349403208503S11700310EA0083300832000000000000
B0349443208545S11700349EA0083800833000000000000
B0349483208565S11700318EA0083800836000000015000
B0349523208528S11700292EA0084400845000000015000
B0349563208468S11700318EA0085600856000000000000
B0350003208424S11700387EA0086200858000000000000
B0350043208435S11700463EA0086700866000000000000
B0350083208469S11700461EA0087300870000000015000
B0350123208439S11700429EA0087400870000000015000
B0350163208373S11700474EA0088000882000000015000
B0350203208356S11700561EA0089300891000000015000
B0350243208392S11700605EA0090200900000000015000
B0350283208404S11700574EA0091000909000000015000
B0350323208344S11700566EA0090700906000000000000
B0350363208281S11700627EA0091300919000000000000
B0350403208275S11700713EA0092400922000000000000
B0350443208313S11700760EA0092300919000000000000
B0350483208353S11700751EA0092000918000000000000
B0350523208365S11700709EA0092500926000000000000
B0350563208303S11700709EA0093300935000000000000
B0351003208261S11700788EA0094600950000000000000
B0351043208281S11700857EA0095400952000000000000
B0351083208314S11700848EA0095600957000000000000
B0351123208294S11700810EA0096000962000000000000
B0351163208229S11700819EA0096800967000000000000
B0351203208184S11700901EA0097100969000000000000
B0351243208204S11700979EA0097700977000000000000
B0351283208240S11700977EA0098200982000000000000
B0351323208218S11700936EA0099100991000000000000
B0351363208155S11700959EA0099900998000000000000
B0351403208122S11701043EA0100001000000000000000
B0351443208144S11701115EA0100501004000000000000
B0351483208183S11701116EA0101001009000000015000
B0351523208168S11701074EA0101601019000000015000
B0351563208104S11701090EA0102701029000000000000
B0352003208069S11701173EA0103501037000000000000
B0352043208092S11701242EA0104201041000000000000
B0352083208129S11701239EA0104301043000000000000
B0352123208131S11701198EA0104901049000000000000
B0352163208069S11701202EA0105201047000000000000
B0352203208036S11701286EA0105701062000000000000
B0352243208067S11701349EA0106501062000000000000
B0352283208100S11701326EA0106901070000000000000
B0352323208061S11701294EA0108201088000000000000
B0352363208001S11701333EA0109501097000000000000
B0352403207986S11701417EA0110201102000000000000
B0352443208023S11701469EA0110501105000000000000
B0352483208060S11701453EA0110901114000000000000
B0352523208039S11701411EA0111901127000000000000
B0352563207975S11701425EA0113001133000000000000
B0353003207937S11701505EA0113701141000000000000
B0353043207958S11701580EA0114601148000000000000
B0353083208001S11701593EA0115401157000000000000
B0353123208002S11701551EA0115901163000000000000
B0353163207952S11701533EA0117201178000000000000
B0353203207895S11701584EA0118201184000000000000
B0353243207888S11701667EA0119001192000000000000
B0353283207932S11701709EA0119301195000000000000
B0353323207957S11701674EA0119801201000000015000
B0353363207917S11701642EA0121101217000000015000
B0353403207856S11701675EA0122101226000000000000
B0353443207828S11701755EA0123101235000000000000
B0353483207856S11701823EA0123501236000000015000
B0353523207898S11701824EA0123801239000000015000
B0353563207921S11701781EA0123601233000000000000
B0354003207935S11701726EA0122901225000000000000
B0354043207945S11701661EA0121701217000000000000
B0354083207956S11701593EA0120901209000000000000
B0354123207962S11701524EA0120201205000000000000
B0354163207969S11701456EA0119501195000000000000
B0354203207976S11701389EA0118301182000000000000
B0354243207983S11701323EA0117301170000000000000
B0354283207991S11701259EA0115701148000000000000
B0354323207999S11701194EA0113501127000000000000
B0354363208009S11701130EA0111401106000000000000
B0354403208022S11701068EA0109701097000000000000
B0354443208035S11701012EA0109501097000000000000
B0354483208044S11700959EA0109801100000000000000
B0354523208052S11700907EA0110401109000000000000
B0354563208064S11700860EA0111201119000000000000
B0355003208083S11700816EA0111901123000000000000
B0355043208112S11700777EA0112901136000000000000
B0355083208140S11700739EA0114701154000000000000
B0355123208105S11700710EA0116801176000000000000
B0355163208058S11700780EA0118301189000000000000
B0355203208088S11700861EA0119601204000000000000
B0355243208139S11700871EA0121301223000000000000
B0355283208132S11700836EA0123501246000000000000
B0355323208075S11700844EA0125201258000000000000
B0355363208035S11700923EA0127301281000000030000
B0355403208060S11701003EA0128801291000000015000
B0355443208110S11701018EA0129801311000000015000
B0355483208130S11700988EA0131901331000000015000
B0355523208090S11700966EA0133601343000000015000
B0355563208032S11701017EA0135001354000000030000
B0356003208038S11701107EA0136801381000000015000
B0356043208083S11701130EA0138701396000000015000
B0356083208100S11701103EA0140101403000000030000
B0356123208065S11701070EA0141201411000000030000
B0356163208005S11701091EA0143301429000000075000
B0356203207974S11701172EA0145301453000000030000
B0356243208001S11701245EA0146201464000000030000
B0356283208048S11701256EA0147401475000000075000
B0356323208056S11701213EA0148501485000000045000
B0356363208006S11701191EA0150201505000000045000
B0356403207954S11701251EA0152401528000000045000
B0356443207958S11701334EA0154501546000000090000
B0356483208004S11701369EA0155901560000000165000
B0356523208035S11701345EA0156901568000000120000
B0356563208009S11701303EA0157701582000000060000
B0357003207948S11701330EA0159601610000000030000
B0357043207928S11701412EA0161601625000000015000
B0357083207965S11701466EA0163301644000000015000
B0357123207999S11701456EA0164501650000000015000
B0357163207982S11701417EA0164901657000000015000
B0357203207919S11701441EA0166201670000000015000
B0357243207898S11701528EA0167901690000000015000
B0357283207934S11701585EA0169601710000000015000
B0357323207970S11701572EA0170101706000000015000
B0357363207952S11701532EA0169901705000000015000
B0357403207888S11701521EA0170401716000000015000
B0357443207836S11701589EA0172301738000000015000
B0357483207853S11701664EA0173901747000000015000
B0357523207900S11701677EA0174601753000000015000
B0357563207908S11701641EA0175001758000000000000
B0358003207852S11701631EA0175701763000000000000
B0358043207797S11701697EA0176201771000000000000
B0358083207807S11701781EA0177601788000000000000
B0358123207850S11701817EA0178701794000000000000
B0358163207889S11701793EA0177301780000000015000
B0358203207910S11701733EA0174901758000000015000
B0358243207931S11701661EA0172601733000000000000
B0358283207957S11701579EA0171301721000000000000
B0358323207983S11701493EA0170601711000000000000
B0358363208009S11701404EA0169301693000000000000
B0358403208034S11701316EA0168201686000000000000
B0358443208061S11701229EA0167401677000000000000
B0358483208088S11701144EA0166901674000000000000
B0358523208116S11701063EA0166901674000000000000
B0358563208144S11700985EA0166401666000000000000
B0359003208175S11700907EA0165801662000000000000
B0359043208208S11700831EA0165401658000000000000
B0359083208238S11700756EA0164901651000000000000
B0359123208270S11700680EA0164101643000000000000
B0359163208304S11700606EA0163601642000000000000
B0359203208334S11700532EA0162901629000000000000
B0359243208350S11700448EA0161501618000000000000
B0359283208363S11700363EA0161501618000000000000
B0359323208385S11700285EA0161301620000000000000
B0359363208412S11700215EA0162001627000000000000
B0359403208443S11700146EA0162001625000000000000
B0359443208476S11700082EA0162201625000000000000
B0359483208512S11700021EA0162401630000000000000
B0359523208548S11659958EA0162601632000000000000
B0359563208586S11659896EA0163601646000000000000
B0400003208621S11659835EA0164201647000000000000
B0400043208659S11659773EA0163101635000000000000
B0400083208699S11659709EA0162401630000000000000
B0400123208736S11659644EA0162201628000000000000
B0400163208771S11659579EA0162201631000000000000
B0400203208806S11659516EA0163001643000000000000
B0400243208838S11659457EA0163601643000000000000
B0400283208875S11659396EA0162001620000000000000
B0400323208914S11659334EA0160001602000000000000
B0400363208958S11659278EA0159001598000000000000
B0400403209001S11659227EA0159001598000000000000
B0400443209042S11659178EA0159001597000000000000
B0400483209083S11659129EA0158901595000000000000
B0400523209123S11659079EA0158801595000000000000
B0400563209161S11659024EA0159201598000000000000
B0401003209197S11658967EA0159001593000000000000
B0401043209231S11658899EA0158601593000000000000
B0401083209262S11658834EA0160601628000000000000
B0401123209282S11658776EA0164801663000000000000
B0401163209226S11658756EA0168101699000000000000
B0401203209180S11658825EA0171001726000000000000
B0401243209196S11658893EA0172701733000000000000
B0401283209235S11658885EA0173101741000000000000
B0401323209224S11658842EA0174901765000000000000
B0401363209162S11658859EA0177401787000000000000
B0401403209136S11658945EA0179201804000000000000
B0401443209169S11659001EA0180701824000000000000
B0401483209202S11658990EA0181801826000000000000
B0401523209211S11658942EA0182001840000000000000
B0401563209214S11658889EA0183701851000000000000
B0402003209221S11658832EA0183801848000000000000
B0402043209218S11658768EA0183001836000000000000
B0402083209193S11658695EA0181501818000000000000
B0402123209154S11658621EA0179901805000000000000
B0402163209110S11658543EA0179801811000000000000
B0402203209062S11658468EA0180901821000000000000
B0402243209011S11658403EA0182901851000000000000
B0402283208963S11658348EA0185001867000000000000
B0402323208915S11658296EA0184901860000000000000
B0402363208864S11658243EA0184001846000000000000
B0402403208815S11658184EA0182601835000000000000
B0402443208767S11658126EA0181501818000000000000
B0402483208715S11658062EA0180001808000000000000
B0402523208664S11658000EA0179001796000000000000
B0402563208613S11657936EA0178001791000000000000
B0403003208565S11657878EA0179101810000000000000
B0403043208522S11657823EA0181501833000000000000
B0403083208485S11657766EA0182101833000000000000
B0403123208446S11657707EA0181501826000000000000
B0403163208403S11657647EA0181001820000000000000
B0403203208361S11657582EA0180101811000000000000
B0403243208318S11657515EA0179701805000000000000
B0403283208275S11657446EA0178901798000000000000
B0403323208231S11657376EA0178001790000000000000
B0403363208186S11657307EA0177001778000000000000
B0403403208142S11657238EA0176601779000000000000
B0403443208100S11657174EA0176601778000000000000
B0403483208062S11657108EA0176001768000000000000
B0403523208023S11657038EA0175201759000000000000
B0403563207965S11656981EA0174801758000000000000
B0404003207887S11656956EA0175101763000000000000
B0404043207804S11656970EA0176001772000000000000
B0404083207728S11657020EA0176701778000000000000
B0404123207649S11657053EA0176601777000000000000
B0404163207576S11657042EA0177001785000000000000
B0404203207531S11657001EA0177601788000000000000
B0404243207507S11656948EA0177901790000000000000
B0404283207490S11656888EA0178301796000000000000
B0404323207485S11656826EA0179101803000000000000
B0404363207485S11656765EA0180001818000000000000
B0404403207493S11656706EA0181301827000000000000
B0404443207502S11656648EA0181601821000000000000
B0404483207464S11656602EA0181001820000000000000
B0404523207398S11656632EA0180201798000000000000
B0404563207369S11656723EA0177801781000000000000
B0405003207360S11656822EA0176501772000000000000
B0405043207354S11656926EA0176201770000000000000
B0405083207347S11657035EA0176301773000000000000
B0405123207338S11657150EA0176701782000000000000
B0405163207326S11657263EA0177701783000000000000
B0405203207313S11657378EA0177801785000000000000
B0405243207303S11657494EA0177901786000000000000
B0405283207293S11657610EA0177401780000000000000
B0405323207282S11657728EA0176401765000000000000
B0405363207273S11657850EA0174701747000000000000
B0405403207261S11657974EA0173301739000000000000
B0405443207246S11658099EA0173101741000000000000
B0405483207232S11658222EA0173001740000000000000
B0405523207221S11658348EA0173101743000000000000
B0405563207212S11658470EA0173801751000000000000
B0406003207202S11658593EA0174801762000000000000
B0406043207190S11658712EA0175801769000000000000
B0406083207176S11658833EA0176201776000000000000
B0406123207160S11658951EA0176901783000000000000
B0406163207143S11659067EA0177601788000000000000
B0406203207124S11659185EA0177801785000000000000
B0406243207107S11659308EA0177201776000000000000
B0406283207087S11659434EA0176201767000000000000
B0406323207069S11659558EA0175401758000000000000
B0406363207051S11659685EA0174501750000000000000
B0406403207034S11659809EA0173801744000000000000
B0406443207020S11659934EA0172801732000000000000
B0406483207003S11700063EA0170901711000000000000
B0406523206992S11700194EA0169701696000000000000
B0406563207001S11700325EA0168201679000000000000
B0407003207025S11700454EA0166501665000000000000
B0407043207051S11700583EA0165401656000000000000
B0407083207078S11700706EA0164601651000000000000
B0407123207103S11700829EA0163801642000000000000
B0407163207130S11700948EA0162501627000000000000
B0407203207159S11701064EA0161101617000000000000
B0407243207189S11701178EA0160001604000000000000
B0407283207225S11701289EA0159301597000000000000
B0407323207259S11701397EA0159801615000000000000
B0407363207287S11701503EA0162301641000000000000
B0407403207312S11701606EA0163701645000000000000
B0407443207338S11701706EA0163501642000000000000
B0407483207363S11701805EA0163101636000000000000
B0407523207386S11701905EA0162701634000000000000
B0407563207415S11702001EA0162301629000000000000
B0408003207447S11702103EA0161501620000000000000
B0408043207477S11702207EA0161201621000000000000
B0408083207501S11702312EA0162101633000000000000
B0408123207523S11702418EA0162601631000000000000
B0408163207544S11702524EA0161501615000000000000
B0408203207568S11702630EA0159801600000000000000
B0408243207590S11702742EA0158801589000000000000
B0408283207619S11702853EA0157501571000000000000
B0408323207649S11702966EA0155401553000000000000
B0408363207676S11703080EA0153901540000000000000
B0408403207701S11703196EA0152701527000000000000
B0408443207724S11703310EA0151501518000000000000
B0408483207746S11703425EA0150801514000000000000
B0408523207767S11703538EA0150701513000000000000
B0408563207785S11703651EA0151001519000000000000
B0409003207806S11703761EA0151201519000000000000
B0409043207824S11703871EA0151201518000000000000
B0409083207840S11703982EA0150501508000000000000
B0409123207856S11704093EA0149501497000000000000
B0409163207870S11704202EA0148501489000000000000
B0409203207885S11704310EA0147901485000000000000
B0409243207901S11704417EA0147201476000000000000
B0409283207915S11704526EA0146201464000000000000
B0409323207922S11704638EA0145601460000000000000
B0409363207924S11704743EA0145501462000000000000
B0409403207921S11704846EA0145301457000000000000
B0409443207911S11704948EA0144501447000000000000
B0409483207906S11705047EA0143701441000000000000
B0409523207904S11705143EA0143001432000000000000
B0409563207902S11705242EA0141901420000000000000
B0410003207923S11705338EA0141001412000000000000
B0410043207950S11705433EA0140701413000000000000
B0410083207973S11705532EA0140801411000000000000
B0410123207984S11705637EA0140701413000000000000
B0410163207992S11705743EA0141501423000000000000
B0410203207997S11705848EA0142701438000000000000
B0410243208034S11705913EA0145001463000000000000
B0410283208060S11705884EA0146601470000000000000
B0410323208012S11705841EA0147001480000000000000
B0410363207940S11705874EA0149001504000000000000
B0410403207924S11705957EA0150801515000000000000
B0410443207967S11705991EA0151201514000000000000
B0410483207984S11705948EA0151501522000000000000
B0410523207927S11705913EA0152801540000000000000
B0410563207857S11705957EA0155001559000000000000
B0411003207826S11706047EA0155801559000000000000
B0411043207856S11706121EA0156001566000000000000
B0411083207902S11706116EA0156201564000000000000
B0411123207924S11706066EA0156401568000000000000
B0411163207905S11706003EA0157701586000000000000
B0411203207845S11705967EA0159501610000000000000
B0411243207783S11706029EA0161101618000000000000
B0411283207793S11706118EA0161401617000000000000
B0411323207845S11706160EA0162001632000000000000
B0411363207885S11706135EA0163601647000000000000
B0411403207858S11706084EA0165701673000000000000
B0411443207792S11706121EA0167901687000000000000
B0411483207785S11706213EA0168401689000000000000
B0411523207831S11706246EA0169801707000000000000
B0411563207845S11706203EA0171201722000000000000
B0412003207797S11706168EA0173301746000000000000
B0412043207731S11706200EA0174901755000000000000
B0412083207694S11706287EA0175301757000000000000
B0412123207722S11706361EA0176101768000000000000
B0412163207767S11706361EA0176901779000000000000
B0412203207770S11706312EA0178301792000000000000
B0412243207715S11706285EA0179901813000000000000
B0412283207649S11706309EA0181001807000000000000
B0412323207611S11706403EA0178901774000000000000
B0412363207615S11706524EA0176801770000000000000
B0412403207624S11706649EA0176001750000000000000
B0412443207640S11706780EA0174101747000000000000
B0412483207657S11706905EA0174301744000000000000
B0412523207680S11707030EA0174301746000000000000
B0412563207703S11707152EA0173801744000000000000
B0413003207724S11707273EA0173901743000000000000
B0413043207736S11707400EA0173401738000000000000
B0413083207748S11707529EA0173401741000000000000
B0413123207758S11707656EA0172601727000000000000
B0413163207765S11707789EA0171601722000000000000
B0413203207771S11707919EA0171501717000000000000
B0413243207776S11708047EA0170501699000000000000
B0413283207775S11708177EA0168801685000000000000
B0413323207774S11708309EA0167601680000000000000
B0413363207775S11708437EA0167301675000000000000
B0413403207780S11708564EA0166401666000000000000
B0413443207788S11708690EA0165401654000000000000
B0413483207794S11708817EA0164601648000000000000
B0413523207801S11708942EA0164001643000000000000
B0413563207805S11709068EA0162801632000000000000
B0414003207809S11709191EA0162401628000000000000
B0414043207815S11709311EA0162001624000000000000
B0414083207824S11709431EA0161601619000000000000
B0414123207833S11709549EA0160801610000000000000
B0414163207845S11709669EA0159801600000000000000
B0414203207857S11709786EA0159001592000000000000
B0414243207867S11709904EA0157701579000000000000
B0414283207879S11710023EA0156901566000000000000
B0414323207891S11710143EA0156101557000000000000
B0414363207901S11710267EA0155001542000000000000
B0414403207914S11710387EA0154401543000000000000
B0414443207926S11710508EA0153701534000000000000
B0414483207936S11710627EA0152801524000000000000
B0414523207945S11710746EA0151601510000000000000
B0414563207954S11710867EA0150601504000000000000
B0415003207962S11710989EA0149801495000000000000
B0415043207970S11711112EA0149401492000000000000
B0415083207975S11711227EA0151901531000000000000
B0415123207979S11711326EA0154501559000000000000
B0415163208021S11711385EA0156401564000000000000
B0415203208056S11711344EA0156501564000000000000
B0415243208045S11711278EA0157001576000000000000
B0415283208002S11711227EA0158101582000000000000
B0415323207927S11711226EA0158301588000000000000
B0415363207858S11711281EA0159601598000000000000
B0415403207818S11711364EA0160301597000000000000
B0415443207811S11711460EA0158901583000000000000
B0415483207814S11711564EA0157401565000000000000
B0415523207822S11711674EA0156001553000000000000
B0415563207841S11711788EA0155401549000000000000
B0416003207865S11711897EA0155601558000000000000
B0416043207893S11712005EA0156701570000000000000
B0416083207915S11712111EA0159101602000000000000
B0416123207954S11712174EA0162401629000000000000
B0416163207982S11712142EA0163201630000000000000
B0416203207956S11712090EA0164001648000000000000
B0416243207897S11712092EA0166201669000000000000
B0416283207870S11712166EA0167401685000000000000
B0416323207910S11712209EA0169001694000000000000
B0416363207927S11712174EA0169801704000000000000
B0416403207880S11712142EA0170501710000000000000
B0416443207810S11712159EA0171301718000000000000
B0416483207757S11712231EA0172201725000000000000
B0416523207744S11712322EA0172601733000000000000
B0416563207749S11712414EA0172701724000000000000
B0417003207763S11712513EA0172301724000000000000
B0417043207785S11712609EA0172801736000000000000
B0417083207820S11712694EA0173801747000000000000
B0417123207865S11712764EA0176001769000000000000
B0417163207898S11712744EA0177501776000000000000
B0417203207846S11712711EA0177901786000000000000
B0417243207770S11712729EA0180001812000000000000
B0417283207727S11712809EA0182401835000000000000
B0417323207753S11712882EA0184401851000000000000
B0417363207793S11712870EA0185301856000000000000
B0417403207759S11712825EA0185701861000000000000
B0417443207683S11712864EA0186901878000000000000
B0417483207655S11712959EA0188701896000000000000
B0417523207688S11713032EA0190601912000000000000
B0417563207733S11713030EA0191001910000000000000
B0418003207727S11712977EA0191001919000000000000
B0418043207663S11712961EA0192101929000000000000
B0418083207596S11713017EA0193101939000000000000
B0418123207576S11713115EA0194401953000000000000
B0418163207601S11713207EA0194901950000000000000
B0418203207641S11713296EA0193801931000000000000
B0418243207693S11713394EA0191201906000000000000
B0418283207752S11713497EA0189501897000000000000
B0418323207810S11713598EA0189301895000000000000
B0418363207869S11713700EA0189201894000000000000
B0418403207926S11713797EA0189401899000000000000
B0418443207980S11713888EA0189801901000000000000
B0418483208032S11713979EA0189201891000000000000
B0418523208084S11714076EA0188201884000000000000
B0418563208132S11714174EA0187601878000000000000
B0419003208178S11714276EA0187001868000000000000
B0419043208223S11714377EA0186601860000000000000
B0419083208272S11714476EA0185601853000000000000
B0419123208317S11714572EA0185401851000000000000
B0419163208361S11714667EA0185101843000000000000
B0419203208408S11714763EA0183901831000000000000
B0419243208457S11714859EA0182601817000000000000
B0419283208504S11714954EA0181901813000000000000
B0419323208551S11715051EA0181001803000000000000
B0419363208597S11715147EA0180101795000000000000
B0419403208643S11715243EA0179601792000000000000
B0419443208691S11715337EA0179501793000000000000
B0419483208737S11715422EA0179501787000000000000
B0419523208785S11715511EA0178301772000000000000
B0419563208834S11715598EA0177301766000000000000
B0420003208884S11715686EA0176501758000000000000
B0420043208933S11715773EA0175901756000000000000
B0420083208984S11715858EA0176501766000000000000
B0420123209035S11715941EA0177201771000000000000
B0420163209084S11716027EA0177401776000000000000
B0420203209133S11716109EA0178301785000000000000
B0420243209184S11716195EA0178301778000000000000
B0420283209236S11716287EA0178101783000000000000
B0420323209284S11716374EA0179301801000000000000
B0420363209335S11716458EA0180201799000000000000
B0420403209388S11716547EA0178801778000000000000
B0420443209447S11716639EA0176701759000000000000
B0420483209507S11716738EA0175101745000000000000
B0420523209559S11716838EA0174601746000000000000
B0420563209605S11716937EA0174301740000000000000
B0421003209652S11717036EA0172801720000000000000
B0421043209698S11717136EA0171901716000000000000
B0421083209743S11717231EA0172801731000000000000
B0421123209781S11717319EA0173901737000000000000
B0421163209822S11717402EA0174201740000000000000
B0421203209868S11717482EA0174501748000000000000
B0421243209907S11717560EA0175201753000000000000
B0421283209946S11717640EA0175301755000000000000
B0421323209977S11717723EA0176501769000000000000
B0421363210006S11717803EA0176901769000000000000
B0421403210040S11717887EA0176901769000000000000
B0421443210075S11717976EA0177001772000000000000
B0421483210105S11718065EA0177901781000000000000
B0421523210137S11718151EA0178701793000000000000
B0421563210172S11718232EA0179501797000000000000
B0422003210207S11718315EA0179801798000000000000
B0422043210245S11718402EA0179301787000000000000
B0422083210285S11718497EA0177801767000000000000
B0422123210326S11718600EA0175901749000000000000
B0422163210368S11718705EA0174301737000000000000
B0422203210414S11718810EA0173501727000000000000
B0422243210457S11718918EA0172801723000000000000
B0422283210498S11719026EA0172201714000000000000
B0422323210536S11719136EA0171401708000000000000
B0422363210571S11719247EA0170401695000000000000
B0422403210606S11719360EA0169201683000000000000
B0422443210644S11719472EA0168501681000000000000
B0422483210678S11719582EA0168601683000000000000
B0422523210708S11719689EA0169001696000000000000
B0422563210739S11719786EA0170501707000000000000
B0423003210775S11719880EA0170201696000000000000
B0423043210807S11719978EA0169301686000000000000
B0423083210834S11720079EA0169001690000000000000
B0423123210861S11720176EA0170101705000000000000
B0423163210887S11720270EA0171101709000000000000
B0423203210908S11720369EA0170301697000000000000
B0423243210929S11720472EA0169201686000000000000
B0423283210947S11720578EA0168301681000000000000
B0423323210966S11720682EA0168001676000000000000
B0423363210990S11720785EA0168101680000000000000
B0423403211018S11720882EA0168801691000000000000
B0423443211050S11720971EA0169301693000000000000
B0423483211078S11721062EA0169201691000000000000
B0423523211103S11721158EA0168901688000000000000
B0423563211126S11721258EA0168901685000000000000
B0424003211151S11721365EA0168301682000000000000
B0424043211168S11721475EA0168701692000000000000
B0424083211184S11721580EA0169601694000000000000
B0424123211200S11721688EA0168901680000000000000
B0424163211216S11721801EA0167801675000000000000
B0424203211228S11721916EA0167901680000000000000
B0424243211242S11722029EA0168201683000000000000
B0424283211255S11722145EA0168101675000000000000
B0424323211265S11722266EA0167401671000000000000
B0424363211276S11722388EA0166801665000000000000
B0424403211286S11722509EA0166201657000000000000
B0424443211299S11722628EA0165001644000000000000
B0424483211315S11722749EA0163601629000000000000
B0424523211329S11722869EA0162801623000000000000
B0424563211340S11722990EA0162001613000000000000
B0425003211356S11723108EA0160501597000000000000
B0425043211377S11723228EA0159201586000000000000
B0425083211397S11723345EA0158501580000000000000
B0425123211415S11723463EA0157401566000000000000
B0425163211433S11723580EA0156201555000000000000
B0425203211450S11723699EA0155101545000000000000
B0425243211462S11723818EA0154501544000000000000
B0425283211473S11723931EA0154401541000000000000
B0425323211486S11724047EA0153301523000000000000
B0425363211505S11724169EA0151501507000000000000
B0425403211519S11724292EA0150501498000000000000
B0425443211529S11724416EA0150101497000000000000
B0425483211544S11724535EA0149601491000000000000
B0425523211558S11724655EA0149501497000000000000
B0425563211572S11724775EA0150101502000000000000
B0426003211584S11724892EA0150301507000000000000
B0426043211594S11725003EA0151601527000000000000
B0426083211616S11725101EA0152801532000000000000
B0426123211640S11725193EA0154101556000000000000
B0426163211670S11725263EA0157101584000000000000
B0426203211710S11725257EA0158701590000000000000
B0426243211688S11725211EA0159201591000000000000
B0426283211618S11725231EA0158901591000000000000
B0426323211575S11725311EA0159801607000000000000
B0426363211559S11725401EA0161801627000000000000
B0426403211597S11725445EA0164001648000000000000
B0426443211610S11725406EA0165401659000000015000
B0426483211551S11725388EA0166201665000000015000
B0426523211501S11725452EA0167101679000000000000
B0426563211505S11725535EA0168701694000000015000
B0427003211549S11725568EA0170101708000000015000
B0427043211559S11725522EA0171001714000000015000
B0427083211501S11725495EA0172601733000000015000
B0427123211441S11725543EA0173901744000000015000
B0427163211433S11725630EA0174901757000000015000
B0427203211476S11725668EA0176101768000000015000
B0427243211492S11725629EA0177201777000000015000
B0427283211437S11725600EA0178201792000000015000
B0427323211373S11725651EA0180001805000000015000
B0427363211375S11725737EA0181301820000000000000
B0427403211420S11725764EA0182801833000000015000
B0427443211423S11725721EA0183301832000000015000
B0427483211356S11725701EA0183801850000000015000
B0427523211285S11725733EA0185401858000000000000
B0427563211259S11725820EA0184901838000000000000
B0428003211289S11725924EA0181801806000000000000
B0428043211337S11726037EA0181701821000000000000
B0428083211385S11726145EA0182401821000000000000
B0428123211436S11726255EA0181301813000000000000
B0428163211486S11726367EA0180901809000000000000
B0428203211536S11726475EA0181101812000000000000
B0428243211585S11726580EA0181501821000000000000
B0428283211635S11726680EA0182301827000000000000
B0428323211683S11726783EA0182601829000000000000
B0428363211732S11726886EA0183101835000000000000
B0428403211779S11726992EA0183101831000000000000
B0428443211828S11727102EA0182701827000000000000
B0428483211875S11727212EA0182601826000000000000
B0428523211921S11727324EA0181701812000000000000
B0428563211967S11727436EA0180401800000000000000
B0429003212016S11727542EA0179501795000000000000
B0429043212066S11727648EA0178701784000000000000
B0429083212120S11727749EA0177601772000000000000
B0429123212173S11727852EA0175901751000000000000
B0429163212229S11727950EA0174501740000000000000
B0429203212289S11728044EA0173201727000000000000
B0429243212348S11728136EA0172001717000000000000
B0429283212406S11728227EA0172101725000000000000
B0429323212452S11728317EA0174001751000000000000
B0429363212485S11728409EA0176201770000000000000
B0429403212506S11728504EA0178201796000000000000
B0429443212520S11728599EA0180501815000000000000
B0429483212530S11728695EA0182201831000000000000
B0429523212530S11728795EA0183801844000000000000
B0429563212529S11728897EA0184601851000000000000
B0430003212530S11729000EA0184601849000000000000
B0430043212533S11729107EA0183501834000000000000
B0430083212537S11729226EA0182201822000000000000
B0430123212542S11729348EA0181201810000000000000
B0430163212550S11729470EA0180501807000000000000
B0430203212559S11729592EA0179501790000000000000
B0430243212569S11729716EA0177601772000000000000
B0430283212578S11729839EA0175901756000000000000
B0430323212588S11729964EA0174701746000000000000
B0430363212598S11730090EA0172801724000000000000
B0430403212607S11730218EA0171701719000000000000
B0430443212615S11730341EA0171601719000000000000
B0430483212620S11730466EA0171101708000000000000
B0430523212628S11730593EA0169801696000000000000
B0430563212637S11730719EA0169101693000000000000
B0431003212646S11730847EA0168701688000000000000
B0431043212653S11730972EA0169101696000000000000
B0431083212658S11731090EA0170201712000000000000
B0431123212659S11731203EA0171501722000000000000
B0431163212664S11731312EA0172401728000000000000
B0431203212671S11731421EA0171801720000000000000
B0431243212679S11731535EA0171201711000000000000
B0431283212690S11731652EA0170101700000000000000
B0431323212703S11731770EA0169001687000000000000
B0431363212719S11731891EA0167701674000000000000
B0431403212736S11732013EA0166601665000000000000
B0431443212751S11732136EA0165701655000000000000
B0431483212766S11732257EA0165601663000000000000
B0431523212771S11732368EA0167101681000000000000
B0431563212775S11732472EA0167701673000000000000
B0432003212775S11732580EA0166501670000000000000
B0432043212773S11732686EA0166801672000000000000
B0432083212770S11732793EA0167601690000000000000
B0432123212766S11732894EA0169601713000000000000
B0432163212760S11732989EA0171901733000000000000
B0432203212757S11733080EA0173001735000000000000
B0432243212757S11733178EA0172001717000000000000
B0432283212780S11733284EA0169801693000000000000
B0432323212822S11733392EA0168601693000000000000
B0432363212867S11733495EA0169501707000000000000
B0432403212916S11733595EA0170301706000000000000
B0432443212970S11733695EA0170501707000000000000
B0432483213024S11733794EA0170401707000000000000
B0432523213079S11733893EA0170201702000000000000
B0432563213136S11733990EA0170101707000000000000
B0433003213193S11734085EA0170001698000000000000
B0433043213249S11734181EA0170301716000000000000
B0433083213291S11734275EA0172601736000000000000
B0433123213336S11734361EA0173301735000000000000
B0433163213387S11734447EA0172601725000000000000
B0433203213443S11734539EA0171301710000000000000
B0433243213503S11734638EA0169801696000000000000
B0433283213564S11734742EA0168601686000000000000
B0433323213624S11734850EA0168001681000000000000
B0433363213683S11734956EA0167401672000000000000
B0433403213742S11735063EA0166301662000000000000
B0433443213799S11735168EA0165901661000000000000
B0433483213858S11735271EA0165601656000000000000
B0433523213915S11735375EA0165101653000000000000
B0433563213969S11735477EA0164901650000000000000
B0434003214024S11735578EA0164501645000000000000
B0434043214077S11735676EA0164101643000000000000
B0434083214131S11735774EA0163501633000000000000
B0434123214187S11735867EA0162401620000000000000
B0434163214245S11735961EA0160801603000000000000
B0434203214306S11736051EA0159401595000000000000
B0434243214366S11736131EA0159401599000000000000
B0434283214427S11736203EA0159401597000000000000
B0434323214488S11736274EA0159101590000000000000
B0434363214548S11736345EA0158701591000000000000
B0434403214603S11736403EA0160501615000000000000
B0434443214649S11736456EA0162101625000000000000
B0434483214697S11736507EA0163101640000000000000
B0434523214747S11736527EA0165501665000000000000
B0434563214752S11736480EA0167101673000000000000
B0435003214683S11736471EA0167301675000000000000
B0435043214630S11736545EA0168501696000000000000
B0435083214635S11736628EA0170601713000000000000
B0435123214679S11736640EA0172201730000000015000
B0435163214671S11736589EA0174201748000000015000
B0435203214601S11736584EA0174901750000000015000
B0435243214551S11736662EA0176201769000000015000
B0435283214573S11736735EA0177401784000000015000
B0435323214610S11736724EA0179101806000000015000
B0435363214586S11736671EA0181101821000000015000
B0435403214512S11736681EA0182301828000000015000
B0435443214486S11736768EA0183601847000000015000
B0435483214525S11736810EA0185301864000000015000
B0435523214544S11736772EA0187401888000000015000
B0435563214499S11736728EA0189201897000000015000
B0436003214423S11736750EA0190301911000000015000
B0436043214382S11736828EA0191401921000000015000
B0436083214393S11736913EA0191601916000000015000
B0436123214417S11737004EA0191101913000000000000
B0436163214440S11737102EA0192301935000000000000
B0436203214460S11737203EA0194501954000000000000
B0436243214480S11737300EA0195701969000000000000
B0436283214500S11737407EA0196201965000000000000
B0436323214521S11737524EA0195501956000000000000
B0436363214547S11737650EA0194201940000000000000
B0436403214578S11737780EA0192601931000000000000
B0436443214610S11737908EA0193001935000000000000
B0436483214642S11738038EA0192401922000000000000
B0436523214678S11738171EA0190501902000000000000
B0436563214717S11738305EA0189301896000000000000
B0437003214755S11738438EA0188301886000000000000
B0437043214792S11738569EA0187901880000000000000
B0437083214831S11738698EA0187301876000000000000
B0437123214868S11738824EA0187401878000000000000
B0437163214905S11738946EA0187401875000000000000
B0437203214943S11739067EA0187501882000000000000
B0437243214980S11739179EA0188201884000000000000
B0437283215017S11739289EA0187701874000000000000
B0437323215055S11739403EA0186801870000000000000
B0437363215090S11739520EA0186901871000000000000
B0437403215128S11739635EA0187101873000000000000
B0437443215162S11739751EA0186501862000000000000
B0437483215191S11739870EA0185701858000000000000
B0437523215221S11739987EA0185401856000000000000
B0437563215247S11740104EA0185201851000000000000
B0438003215272S11740222EA0184101838000000000000
B0438043215294S11740342EA0182901826000000000000
B0438083215319S11740458EA0181201811000000000000
B0438123215345S11740571EA0180601808000000000000
B0438163215364S11740684EA0179901800000000000000
B0438203215381S11740794EA0179901802000000000000
B0438243215401S11740898EA0180401811000000000000
B0438283215424S11740995EA0181101812000000000000
B0438323215449S11741092EA0180301802000000000000
B0438363215477S11741190EA0179301793000000000000
B0438403215510S11741285EA0179001792000000000000
B0438443215541S11741381EA0178201783000000000000
B0438483215567S11741480EA0178201785000000000000
B0438523215591S11741581EA0178301781000000000000
B0438563215611S11741686EA0176801761000000000000
B0439003215627S11741798EA0175201748000000000000
B0439043215641S11741909EA0174301744000000000000
B0439083215656S11742019EA0173601735000000000000
B0439123215674S11742130EA0172401723000000000000
B0439163215691S11742244EA0171201711000000000000
B0439203215708S11742361EA0170101701000000000000
B0439243215721S11742479EA0169601695000000000000
B0439283215734S11742598EA0169001688000000000000
B0439323215752S11742716EA0167801673000000000000
B0439363215771S11742834EA0166401658000000000000
B0439403215784S11742956EA0165001645000000000000
B0439443215795S11743079EA0163901635000000000000
B0439483215813S11743198EA0162701622000000000000
B0439523215838S11743314EA0161401608000000000000
B0439563215875S11743422EA0160101595000000000000
B0440003215927S11743521EA0158401581000000000000
B0440043215978S11743617EA0157501573000000000000
B0440083216020S11743722EA0156901568000000000000
B0440123216043S11743835EA0156601565000000000000
B0440163216060S11743947EA0156401563000000000000
B0440203216074S11744061EA0155301545000000000000
B0440243216081S11744176EA0155501567000000000000
B0440283216103S11744268EA0157901587000000000000
B0440323216157S11744325EA0159301599000000000000
B0440363216216S11744368EA0160601612000000000000
B0440403216276S11744381EA0161701621000000000000
B0440443216320S11744350EA0163001637000000000000
B0440483216291S11744306EA0164901658000000000000
B0440523216239S11744356EA0166901672000000000000
B0440563216264S11744436EA0167801683000000000000
B0441003216319S11744441EA0169301697000000000000
B0441043216320S11744392EA0170701713000000015000
B0441083216256S11744393EA0173001737000000015000
B0441123216224S11744472EA0174901751000000000000
B0441163216269S11744532EA0176001761000000000000
B0441203216312S11744507EA0177601781000000000000
B0441243216290S11744459EA0179201796000000015000
B0441283216222S11744483EA0180101811000000000000
B0441323216209S11744572EA0182401838000000000000
B0441363216256S11744626EA0184201849000000000000
B0441403216295S11744601EA0185501865000000000000
B0441443216273S11744557EA0186801872000000015000
B0441483216207S11744561EA0187501880000000015000
B0441523216157S11744636EA0188901897000000000000
B0441563216177S11744720EA0190701914000000015000
B0442003216225S11744722EA0192401932000000015000
B0442043216208S11744680EA0193801942000000015000
B0442083216140S11744706EA0194401951000000015000
B0442123216109S11744795EA0196201971000000015000
B0442163216135S11744879EA0197801984000000015000
B0442203216191S11744912EA0199101996000000000000
B0442243216221S11744882EA0200302008000000015000
B0442283216189S11744839EA0200502005000000015000
B0442323216116S11744844EA0200602012000000015000
B0442363216047S11744899EA0202202032000000015000
B0442403216026S11744996EA0203302031000000015000
B0442443216048S11745097EA0203302041000000015000
B0442483216077S11745195EA0204402047000000000000
B0442523216113S11745302EA0203602030000000000000
B0442563216152S11745419EA0201402005000000000000
B0443003216194S11745543EA0199001985000000000000
B0443043216231S11745671EA0197901980000000000000
B0443083216265S11745796EA0197401975000000000000
B0443123216295S11745922EA0196801969000000000000
B0443163216326S11746045EA0196201964000000000000
B0443203216356S11746166EA0196101962000000000000
B0443243216387S11746286EA0195701958000000000000
B0443283216417S11746407EA0194601946000000000000
B0443323216447S11746527EA0193501934000000000000
B0443363216480S11746650EA0191901919000000000000
B0443403216515S11746769EA0191101913000000000000
B0443443216547S11746884EA0190801910000000000000
B0443483216579S11746999EA0190301905000000000000
B0443523216605S11747118EA0189801901000000000000
B0443563216632S11747229EA0189701901000000000000
B0444003216659S11747337EA0189201895000000000000
B0444043216688S11747441EA0189201897000000000000
B0444083216715S11747541EA0189301899000000000000
B0444123216741S11747639EA0190001906000000000000
B0444163216770S11747738EA0190401908000000000000
B0444203216798S11747835EA0191701929000000000000
B0444243216824S11747929EA0194501957000000000000
B0444283216876S11747981EA0196601969000000000000
B0444323216915S11747942EA0197601994000000000000
B0444363216876S11747912EA0199101996000000000000
B0444403216822S11747960EA0198801997000000000000
B0444443216809S11748055EA0199602010000000000000
B0444483216854S11748124EA0201302027000000000000
B0444523216900S11748094EA0203202049000000015000
B0444563216862S11748056EA0204902064000000015000
B0445003216810S11748106EA0206302075000000015000
B0445043216826S11748194EA0207302087000000015000
B0445083216891S11748221EA0209002106000000015000
B0445123216919S11748173EA0210502116000000015000
B0445163216871S11748138EA0210602113000000015000
B0445203216811S11748190EA0211402128000000000000
B0445243216805S11748280EA0212802142000000000000
B0445283216840S11748364EA0213602148000000000000
B0445323216893S11748441EA0214402159000000000000
B0445363216949S11748523EA0214102152000000000000
B0445403217011S11748611EA0213502142000000000000
B0445443217080S11748698EA0212902139000000000000
B0445483217148S11748791EA0212102124000000000000
B0445523217213S11748887EA0210702117000000000000
B0445563217270S11748987EA0211002124000000000000
B0446003217321S11749087EA0211302122000000000000
B0446043217369S11749187EA0210902120000000000000
B0446083217417S11749287EA0210402114000000000000
B0446123217464S11749390EA0209802108000000000000
B0446163217509S11749497EA0209302102000000000000
B0446203217555S11749602EA0208602094000000000000
B0446243217599S11749707EA0208002086000000000000
B0446283217642S11749813EA0206702072000000000000
B0446323217687S11749920EA0205302060000000000000
B0446363217734S11750026EA0204202051000000000000
B0446403217780S11750132EA0203602045000000000000
B0446443217819S11750239EA0203202041000000000000
B0446483217855S11750344EA0203002039000000000000
B0446523217886S11750446EA0202702033000000000000
B0446563217919S11750544EA0202402038000000000000
B0447003217949S11750635EA0203602051000000000000
B0447043217983S11750719EA0205302062000000000000
B0447083218023S11750797EA0206202069000000000000
B0447123218072S11750860EA0206502070000000000000
B0447163218126S11750924EA0205802062000000000000
B0447203218183S11750993EA0204302039000000000000
B0447243218244S11751067EA0203402034000000000000
B0447283218304S11751142EA0202502020000000000000
B0447323218367S11751219EA0200902004000000000000
B0447363218431S11751296EA0200101999000000000000
B0447403218493S11751369EA0199201990000000000000
B0447443218557S11751439EA0198401986000000000000
B0447483218622S11751505EA0197801979000000000000
B0447523218692S11751558EA0196701966000000000000
B0447563218768S11751605EA0195001947000000000000
B0448003218844S11751652EA0194101939000000000000
B0448043218921S11751698EA0193401931000000000000
B0448083218997S11751747EA0192801929000000000000
B0448123219068S11751795EA0193201935000000000000
B0448163219137S11751844EA0193401935000000000000
B0448203219206S11751898EA0192801927000000000000
B0448243219279S11751947EA0191901918000000000000
B0448283219353S11751990EA0191601916000000000000
B0448323219426S11752026EA0191301912000000000000
B0448363219498S11752056EA0190401901000000000000
B0448403219571S11752082EA0189601895000000000000
B0448443219641S11752103EA0189601897000000000000
B0448483219709S11752125EA0189301892000000000000
B0448523219771S11752151EA0188701888000000000000
B0448563219830S11752181EA0187901876000000000000
B0449003219888S11752210EA0186501862000000000000
B0449043219948S11752242EA0185401853000000000000
B0449083220009S11752280EA0184701843000000000000
B0449123220072S11752312EA0184001838000000000000
B0449163220133S11752338EA0183701839000000000000
B0449203220190S11752366EA0183801841000000000000
B0449243220248S11752398EA0183401831000000000000
B0449283220308S11752436EA0182601824000000000000
B0449323220369S11752472EA0181901814000000000000
B0449363220434S11752498EA0180801807000000000000
B0449403220498S11752497EA0180201793000000000000
B0449443220555S11752459EA0178601780000000000000
B0449483220607S11752403EA0177701777000000000000
B0449523220658S11752341EA0178201787000000000000
B0449563220706S11752276EA0179301793000000000000
B0450003220753S11752214EA0180101808000000000000
B0450043220787S11752150EA0183601845000000000000
B0450083220758S11752097EA0186601870000000000000
B0450123220696S11752111EA0187101869000000000000
B0450163220668S11752198EA0187101870000000000000
B0450203220702S11752280EA0187701886000000000000
B0450243220759S11752315EA0189501908000000000000
B0450283220811S11752309EA0191401920000000000000
B0450323220852S11752272EA0191401906000000000000
B0450363220891S11752216EA0188101861000000000000
B0450403220937S11752147EA0184601833000000000000
B0450443220986S11752071EA0182901823000000000000
B0450483221034S11751993EA0181501809000000000000
B0450523221084S11751916EA0180401798000000000000
B0450563221135S11751839EA0179001786000000000000
B0451003221186S11751763EA0178401779000000000000
B0451043221235S11751688EA0177401769000000000000
B0451083221287S11751616EA0176501761000000000000
B0451123221339S11751543EA0175401754000000000000
B0451163221389S11751473EA0175601759000000000000
B0451203221438S11751404EA0174901748000000000000
B0451243221489S11751332EA0174201745000000000000
B0451283221541S11751266EA0174101740000000000000
B0451323221589S11751197EA0172901727000000000000
B0451363221637S11751127EA0172101719000000000000
B0451403221686S11751061EA0171201711000000000000
B0451443221738S11750999EA0170501706000000000000
B0451483221788S11750942EA0170201703000000000000
B0451523221833S11750885EA0169501695000000000000
B0451563221877S11750827EA0168501683000000000000
B0452003221923S11750767EA0167501674000000000000
B0452043221968S11750710EA0166901670000000000000
B0452083222015S11750654EA0166501666000000000000
B0452123222061S11750598EA0166601670000000000000
B0452163222101S11750543EA0167201677000000000000
B0452203222140S11750491EA0167301673000000000000
B0452243222182S11750439EA0166501665000000000000
B0452283222221S11750391EA0167201680000000000000
B0452323222256S11750351EA0168901696000000000000
B0452363222287S11750309EA0169601700000000000000
B0452403222306S11750252EA0169401696000000000000
B0452443222312S11750182EA0168901691000000000000
B0452483222317S11750106EA0168601688000000000000
B0452523222319S11750028EA0167901678000000000000
B0452563222317S11749945EA0167801681000000000000
B0453003222313S11749862EA0168101687000000000000
B0453043222306S11749779EA0168101676000000000000
B0453083222319S11749689EA0165901655000000000000
B0453123222349S11749603EA0165501658000000000000
B0453163222377S11749521EA0165001648000000000000
B0453203222409S11749439EA0165101655000000000000
B0453243222425S11749351EA0165601661000000000000
B0453283222431S11749264EA0166301666000000000000
B0453323222431S11749178EA0166301661000000000000
B0453363222423S11749088EA0165501656000000000000
B0453403222417S11749000EA0165601661000000000000
B0453443222408S11748913EA0166501669000000000000
B0453483222397S11748828EA0166801667000000000000
B0453523222386S11748743EA0166201661000000000000
B0453563222371S11748656EA0165401650000000000000
B0454003222354S11748563EA0164201635000000000000
B0454043222338S11748471EA0163501636000000000000
B0454083222325S11748386EA0163701634000000000000
B0454123222309S11748302EA0163701637000000000000
B0454163222288S11748223EA0163601634000000000000
B0454203222270S11748146EA0162701620000000000000
B0454243222297S11748067EA0160501599000000000000
B0454283222349S11748003EA0160101604000000000000
B0454323222404S11747946EA0160501610000000000000
B0454363222455S11747890EA0160001598000000000000
B0454403222513S11747837EA0158501584000000000000
B0454443222575S11747788EA0157901576000000000000
B0454483222635S11747736EA0157101566000000000000
B0454523222690S11747674EA0155501550000000000000
B0454563222739S11747606EA0154801547000000000000
B0455003222785S11747540EA0156301569000000000000
B0455043222817S11747473EA0158401593000000000000
B0455083222834S11747402EA0160601613000000000000
B0455123222790S11747352EA0162701628000000000000
B0455163222716S11747397EA0162801628000000000000
B0455203222690S11747492EA0163301634000000015000
B0455243222725S11747562EA0163101628000000015000
B0455283222781S11747560EA0163501643000000015000
B0455323222825S11747532EA0164301643000000015000
B0455363222852S11747479EA0164501656000000015000
B0455403222869S11747419EA0166301673000000000000
B0455443222843S11747366EA0167301673000000000000
B0455483222778S11747393EA0167501679000000015000
B0455523222776S11747482EA0167101666000000015000
B0455563222835S11747509EA0166001661000000015000
B0456003222885S11747462EA0165501654000000015000
B0456043222923S11747393EA0163601628000000015000
B0456083222962S11747311EA0161101605000000000000
B0456123223002S11747222EA0159101584000000000000
B0456163223043S11747129EA0157701568000000000000
B0456203223079S11747034EA0156101554000000000000
B0456243223115S11746941EA0155401555000000000000
B0456283223146S11746850EA0155401551000000000000
B0456323223181S11746759EA0154201539000000000000
B0456363223220S11746672EA0153701534000000000000
B0456403223264S11746591EA0153801541000000000000
B0456443223307S11746517EA0153901539000000000000
B0456483223345S11746440EA0152601522000000000000
B0456523223372S11746357EA0151701514000000000000
B0456563223397S11746274EA0150601502000000000000
B0457003223415S11746188EA0149501490000000000000
B0457043223413S11746101EA0149101494000000000000
B0457083223401S11746019EA0149301492000000000000
B0457123223392S11745933EA0148301481000000000000
B0457163223400S11745848EA0147601479000000000000
B0457203223413S11745767EA0149201498000000000000
B0457243223407S11745694EA0150901515000000000000
B0457283223375S11745634EA0152101527000000000000
B0457323223327S11745584EA0153501545000000000000
B0457363223275S11745546EA0155301567000000000000
B0457403223216S11745582EA0156901571000000000000
B0457443223222S11745664EA0156401562000000000000
B0457483223281S11745692EA0156601575000000000000
B0457523223307S11745643EA0158601600000000015000
B0457563223255S11745617EA0161001617000000030000
B0458003223209S11745686EA0161701617000000030000
B0458043223241S11745753EA0162401629000000015000
B0458083223285S11745729EA0163901647000000015000
B0458123223259S11745679EA0165701665000000030000
B0458163223196S11745697EA0167701682000000030000
B0458203223164S11745772EA0168601685000000030000
B0458243223197S11745833EA0169201697000000015000
B0458283223245S11745823EA0170401708000000015000
B0458323223248S11745767EA0171401717000000015000
B0458363223192S11745741EA0173001733000000015000
B0458403223133S11745794EA0173901735000000030000
B0458443223132S11745883EA0173901740000000015000
B0458483223184S11745918EA0174801756000000015000
B0458523223225S11745890EA0176101766000000015000
B0458563223212S11745838EA0177301772000000015000
B0459003223145S11745832EA0177301766000000015000
B0459043223085S11745898EA0177901779000000015000
B0459083223079S11745991EA0178701784000000015000
B0459123223124S11746048EA0179301794000000015000
B0459163223180S11746037EA0179401793000000015000
B0459203223232S11745992EA0178201775000000015000
B0459243223287S11745933EA0176301757000000000000
B0459283223346S11745870EA0175101744000000000000
B0459323223404S11745803EA0174001736000000000000
B0459363223461S11745734EA0173701737000000000000
B0459403223515S11745667EA0173201730000000000000
B0459443223571S11745606EA0172801729000000000000
B0459483223627S11745551EA0172801729000000000000
B0459523223683S11745503EA0171801717000000000000
B0459563223739S11745455EA0171201715000000000000
B0500003223792S11745407EA0170901706000000000000
B0500043223844S11745351EA0169501683000000000000
B0500083223903S11745292EA0167701673000000000000
B0500123223963S11745235EA0166901664000000000000
B0500163224022S11745177EA0166101659000000000000
B0500203224081S11745120EA0165501651000000000000
B0500243224137S11745064EA0164501644000000000000
B0500283224191S11745012EA0163901638000000000000
B0500323224246S11744965EA0163501635000000000000
B0500363224299S11744925EA0163401634000000000000
B0500403224353S11744886EA0163301632000000000000
B0500443224406S11744847EA0163201633000000000000
B0500483224457S11744804EA0163201632000000000000
B0500523224510S11744758EA0163001631000000000000
B0500563224563S11744713EA0163101632000000000000
B0501003224619S11744668EA0163001633000000000000
B0501043224671S11744623EA0163901640000000000000
B0501083224720S11744575EA0163701635000000000000
B0501123224776S11744531EA0162901624000000000000
B0501163224835S11744485EA0162401626000000000000
B0501203224893S11744438EA0162101621000000000000
B0501243224954S11744394EA0162201622000000000000
B0501283225016S11744351EA0163401634000000000000
B0501323225064S11744303EA0164001632000000000000
B0501363225110S11744250EA0163901638000000000000
B0501403225151S11744194EA0165201653000000000000
B0501443225188S11744138EA0166301662000000000000
B0501483225222S11744078EA0165901648000000000000
B0501523225257S11744013EA0163301615000000000000
B0501563225298S11743937EA0161101609000000000000
B0502003225331S11743860EA0161501617000000000000
B0502043225360S11743787EA0162301626000000000000
B0502083225383S11743717EA0163501641000000000000
B0502123225408S11743653EA0165401665000000000000
B0502163225426S11743597EA0168301691000000000000
B0502203225398S11743543EA0170101707000000000000
B0502243225326S11743557EA0171401720000000000000
B0502283225294S11743639EA0172701731000000015000
B0502323225324S11743708EA0173701744000000015000
B0502363225374S11743716EA0174901759000000015000
B0502403225391S11743670EA0176801775000000015000
B0502443225346S11743635EA0178701790000000030000
B0502483225282S11743674EA0179701796000000030000
B0502523225273S11743760EA0180601812000000015000
B0502563225320S11743804EA0182001824000000015000
B0503003225356S11743768EA0183201842000000015000
B0503043225322S11743721EA0185101858000000030000
B0503083225253S11743753EA0185701857000000030000
B0503123225234S11743848EA0185701864000000030000
B0503163225277S11743916EA0187201886000000015000
B0503203225333S11743921EA0189501910000000015000
B0503243225355S11743872EA0191501925000000015000
B0503283225313S11743823EA0192401933000000030000
B0503323225242S11743836EA0192501928000000030000
B0503363225188S11743918EA0191801924000000030000
B0503403225191S11744021EA0192301939000000015000
B0503443225229S11744099EA0194501966000000015000
B0503483225283S11744135EA0196401974000000015000
B0503523225343S11744122EA0196301962000000015000
B0503563225411S11744091EA0194901951000000015000
B0504003225485S11744048EA0193801936000000015000
B0504043225563S11743999EA0192201923000000015000
B0504083225642S11743950EA0191701925000000000000
B0504123225715S11743905EA0192301930000000000000
B0504163225788S11743864EA0191701921000000000000
B0504203225862S11743823EA0191001915000000000000
B0504243225936S11743786EA0190601912000000000000
B0504283226010S11743747EA0190301907000000000000
B0504323226083S11743708EA0190201907000000000000
B0504363226153S11743671EA0189401896000000000000
B0504403226223S11743640EA0188801891000000000000
B0504443226291S11743609EA0188801893000000000000
B0504483226357S11743579EA0188001877000000000000
B0504523226429S11743544EA0185901854000000000000
B0504563226504S11743506EA0184501846000000000000
B0505003226572S11743472EA0185801862000000000000
B0505043226630S11743446EA0186901873000000000000
B0505083226686S11743417EA0186901867000000000000
B0505123226742S11743374EA0186001858000000000000
B0505163226795S11743319EA0185401854000000000000
B0505203226849S11743259EA0184901853000000000000
B0505243226901S11743198EA0185901867000000000000
B0505283226945S11743137EA0187301882000000000000
B0505323226985S11743076EA0188801898000000000000
B0505363227020S11743017EA0190701918000000000000
B0505403227050S11742959EA0192401940000000000000
B0505443227079S11742902EA0193801951000000000000
B0505483227109S11742848EA0194601958000000000000
B0505523227141S11742791EA0194801959000000000000
B0505563227171S11742728EA0194601952000000000000
B0506003227207S11742657EA0193801945000000000000
B0506043227249S11742590EA0193901950000000000000
B0506083227287S11742526EA0194501954000000000000
B0506123227326S11742461EA0194901961000000000000
B0506163227366S11742399EA0195301962000000000000
B0506203227405S11742335EA0194801954000000000000
B0506243227448S11742270EA0193701939000000000000
B0506283227492S11742204EA0193301946000000000000
B0506323227535S11742137EA0194101949000000000000
B0506363227578S11742071EA0194301953000000000000
B0506403227621S11742001EA0193801941000000000000
B0506443227669S11741927EA0193001935000000000000
B0506483227716S11741857EA0193701947000000000000
B0506523227762S11741789EA0193301919000000000000
B0506563227812S11741708EA0189301879000000000000
B0507003227859S11741624EA0187401878000000000000
B0507043227899S11741541EA0188101895000000000000
B0507083227938S11741467EA0190901930000000000000
B0507123227974S11741402EA0193301936000000000000
B0507163228008S11741335EA0193301937000000015000
B0507203228041S11741268EA0192701934000000015000
B0507243228069S11741201EA0189401929000000015000
B0507283228115S11741101EA0187201920000000015000
B0507323228154S11741027EA0186401914000000030000
B0507363228202S11740953EA0185801905000000030000
B0507403228242S11740892EA0186701900000000030000
B0507443228282S11740832EA0186701895000000030000
B0507483228318S11740762EA0185401874000000030000
B0507523228359S11740692EA0183801864000000030000
B0507563228399S11740618EA0182601845000000030000
B0508003228446S11740541EA0181601842000000030000
B0508043228496S11740472EA0181901840000000015000
B0508083228548S11740404EA0181301830000000015000
B0508123228598S11740337EA0180601819000000015000
B0508163228652S11740271EA0179601811000000015000
B0508203228705S11740208EA0179401809000000015000
B0508243228756S11740150EA0179101802000000000000
B0508283228808S11740094EA0178201791000000000000
B0508323228864S11740042EA0177201780000000000000
B0508363228923S11739992EA0175901769000000000000
B0508403228981S11739943EA0174901759000000000000
B0508443229038S11739894EA0174301754000000000000
B0508483229091S11739845EA0174001750000000000000
B0508523229143S11739801EA0173401743000000000000
B0508563229198S11739758EA0172501731000000000000
B0509003229255S11739714EA0171401718000000000000
B0509043229309S11739667EA0170201707000000000000
B0509083229360S11739611EA0169001694000000000000
B0509123229400S11739546EA0167501677000000000000
B0509163229430S11739472EA0165801660000000000000
B0509203229458S11739394EA0164001642000000000000
B0509243229485S11739314EA0162201623000000000000
B0509283229515S11739233EA0160501607000000000000
B0509323229546S11739153EA0159101595000000000000
B0509363229575S11739069EA0158001583000000000000
B0509403229606S11738986EA0157101575000000000000
B0509443229636S11738904EA0156301568000000000000
B0509483229662S11738822EA0155001552000000000000
B0509523229684S11738742EA0154401550000000000000
B0509563229703S11738665EA0154101546000000000000
B0510003229718S11738590EA0153801545000000000000
B0510043229728S11738519EA0154001547000000000000
B0510083229745S11738449EA0153001529000000000000
B0510123229780S11738380EA0151101512000000000000
B0510163229833S11738322EA0150101507000000000000
B0510203229894S11738275EA0150201510000000000000
B0510243229956S11738237EA0150301510000000000000
B0510283230018S11738206EA0150101507000000000000
B0510323230083S11738184EA0149501500000000000000
B0510363230151S11738167EA0149001495000000000000
B0510403230222S11738158EA0148401490000000000000
B0510443230299S11738162EA0148201483000000000000
B0510483230377S11738171EA0147401477000000000000
B0510523230450S11738179EA0146901472000000000000
B0510563230521S11738189EA0146501467000000000000
B0511003230591S11738200EA0145901468000000000000
B0511043230658S11738207EA0146701479000000000000
B0511083230720S11738209EA0148001492000000000000
B0511123230776S11738201EA0149501506000000000000
B0511163230824S11738175EA0149701504000000000000
B0511203230877S11738152EA0149101497000000000000
B0511243230940S11738133EA0147901477000000000000
B0511283231009S11738127EA0146201463000000000000
B0511323231076S11738127EA0145301455000000000000
B0511363231145S11738135EA0144101439000000000000
B0511403231214S11738150EA0143001433000000000000
B0511443231280S11738171EA0143201440000000000000
B0511483231347S11738191EA0143601437000000000000
B0511523231413S11738201EA0144601445000000000000
B0511563231466S11738194EA0147701471000000000000
B0512003231456S11738155EA0150201489000000015000
B0512043231391S11738170EA0151501505000000015000
B0512083231366S11738252EA0152801521000000015000
B0512123231405S11738305EA0153601533000000015000
B0512163231435S11738275EA0154901556000000015000
B0512203231397S11738245EA0156601562000000015000
B0512243231335S11738282EA0157801579000000030000
B0512283231322S11738365EA0159401594000000015000
B0512323231366S11738419EA0160001603000000015000
B0512363231406S11738399EA0162101636000000015000
B0512403231389S11738358EA0164201644000000030000
B0512443231326S11738361EA0164901657000000030000
B0512483231282S11738432EA0166601676000000030000
B0512523231287S11738522EA0168001689000000015000
B0512563231337S11738551EA0170201720000000015000
B0513003231349S11738512EA0173201744000000030000
B0513043231300S11738496EA0175201754000000030000
B0513083231249S11738549EA0176501767000000030000
B0513123231250S11738635EA0177701779000000015000
B0513163231302S11738679EA0178701803000000015000
B0513203231339S11738649EA0181201831000000015000
B0513243231314S11738609EA0183501847000000030000
B0513283231252S11738627EA0184101853000000030000
B0513323231218S11738708EA0185301874000000015000
B0513363231248S11738777EA0187601892000000015000
B0513403231293S11738763EA0189001909000000015000
B0513443231275S11738714EA0190801922000000030000
B0513483231210S11738722EA0191301924000000030000
B0513523231159S11738798EA0191801932000000030000
B0513563231157S11738896EA0193801959000000015000
B0514003231194S11738971EA0195601970000000015000
B0514043231253S11738987EA0196001970000000015000
B0514083231296S11738947EA0196601978000000015000
B0514123231296S11738885EA0198701999000000030000
B0514163231237S11738867EA0199902008000000030000
B0514203231179S11738924EA0199901997000000030000
B0514243231181S11739032EA0199602014000000015000
B0514283231222S11739120EA0201802036000000015000
B0514323231283S11739158EA0203602046000000015000
B0514363231344S11739136EA0203102029000000015000
B0514403231391S11739072EA0201902028000000015000
B0514443231435S11739006EA0201602017000000015000
B0514483231482S11738937EA0199701993000000000000
B0514523231531S11738860EA0197101970000000000000
B0514563231583S11738778EA0196101965000000000000
B0515003231635S11738698EA0195401957000000000000
B0515043231687S11738618EA0194601950000000000000
B0515083231738S11738540EA0194201946000000000000
B0515123231787S11738461EA0193001930000000000000
B0515163231835S11738382EA0192801924000000000000
B0515203231886S11738298EA0191901912000000000000
B0515243231937S11738213EA0190701900000000000000
B0515283231989S11738129EA0189901893000000000000
B0515323232037S11738049EA0188801882000000000000
B0515363232086S11737968EA0187701870000000000000
B0515403232138S11737890EA0187101867000000000000
B0515443232190S11737817EA0187101869000000000000
B0515483232242S11737751EA0187001871000000000000
B0515523232294S11737689EA0186701865000000000000
B0515563232350S11737628EA0185901857000000000000
B0516003232409S11737567EA0185101848000000000000
B0516043232467S11737505EA0185001851000000000000
B0516083232524S11737444EA0185401853000000000000
B0516123232580S11737386EA0186101863000000000000
B0516163232635S11737323EA0185901855000000000000
B0516203232688S11737258EA0185701857000000000000
B0516243232741S11737199EA0185601853000000000000
B0516283232797S11737138EA0184601840000000000000
B0516323232855S11737076EA0183401831000000000000
B0516363232913S11737018EA0182801826000000000000
B0516403232972S11736961EA0182101820000000000000
B0516443233029S11736905EA0181901819000000000000
B0516483233086S11736852EA0181901818000000000000
B0516523233141S11736800EA0181501809000000000000
B0516563233195S11736749EA0180101796000000000000
B0517003233251S11736698EA0179001785000000000000
B0517043233300S11736641EA0177901774000000000000
B0517083233351S11736584EA0176501760000000000000
B0517123233406S11736528EA0174901743000000000000
B0517163233462S11736472EA0173601732000000000000
B0517203233514S11736415EA0173501736000000000000
B0517243233564S11736358EA0174201745000000000000
B0517283233611S11736304EA0174901752000000000000
B0517323233658S11736252EA0175101750000000000000
B0517363233709S11736198EA0173701729000000000000
B0517403233768S11736137EA0172101716000000000000
B0517443233830S11736074EA0171601715000000000000
B0517483233893S11736014EA0172401726000000000000
B0517523233948S11735960EA0174801756000000000000
B0517563233996S11735913EA0176401774000000000000
B0518003234041S11735860EA0177701779000000000000
B0518043234084S11735801EA0179801802000000000000
B0518083234073S11735740EA0181801818000000000000
B0518123234001S11735747EA0182101820000000000000
B0518163233961S11735832EA0181701819000000000000
B0518203233986S11735925EA0182101840000000000000
B0518243234030S11735986EA0185001873000000000000
B0518283234078S11736018EA0187601890000000000000
B0518323234126S11736018EA0189001900000000000000
B0518363234171S11735997EA0189301890000000000000
B0518403234221S11735965EA0186701852000000000000
B0518443234277S11735921EA0182901821000000000000
B0518483234335S11735874EA0180701803000000000000
B0518523234387S11735819EA0180401809000000000000
B0518563234434S11735763EA0181401824000000000000
B0519003234477S11735713EA0183201844000000000000
B0519043234515S11735665EA0184801856000000000000
B0519083234555S11735620EA0185201860000000000000
B0519123234598S11735576EA0185701867000000000000
B0519163234638S11735527EA0185501853000000000000
B0519203234684S11735471EA0183301824000000000000
B0519243234729S11735406EA0181601819000000000000
B0519283234773S11735344EA0182501833000000000000
B0519323234818S11735286EA0183401841000000000000
B0519363234863S11735236EA0184501853000000000000
B0519403234909S11735188EA0184601849000000000000
B0519443234957S11735130EA0182601827000000000000
B0519483235009S11735071EA0181101807000000000000
B0519523235062S11735011EA0179401795000000000000
B0519563235115S11734955EA0178401785000000000000
B0520003235171S11734903EA0177201771000000000000
B0520043235231S11734856EA0175901762000000000000
B0520083235291S11734812EA0175301756000000000000
B0520123235344S11734768EA0175501764000000000000
B0520163235393S11734725EA0175801763000000000000
B0520203235442S11734679EA0175201752000000000000
B0520243235488S11734627EA0174101743000000000000
B0520283235529S11734566EA0173701744000000000000
B0520323235556S11734501EA0174201751000000000000
B0520363235577S11734431EA0174401748000000000000
B0520403235595S11734358EA0173901742000000000000
B0520443235617S11734284EA0173401740000000000000
B0520483235644S11734213EA0173301739000000000000
B0520523235673S11734141EA0173501744000000000000
B0520563235695S11734068EA0174301755000000000000
B0521003235711S11733995EA0175901773000000000000
B0521043235694S11733928EA0178401796000000000000
B0521083235629S11733898EA0179401801000000000000
B0521123235557S11733932EA0179701803000000000000
B0521163235522S11734019EA0179701807000000000000
B0521203235514S11734114EA0180501814000000000000
B0521243235521S11734203EA0181201822000000000000
B0521283235555S11734283EA0181401822000000000000
B0521323235612S11734333EA0181301821000000000000
B0521363235679S11734357EA0181501825000000000000
B0521403235751S11734361EA0181101817000000000000
B0521443235826S11734352EA0180001800000000000000
B0521483235902S11734326EA0178401787000000000000
B0521523235971S11734285EA0178101790000000000000
B0521563236033S11734239EA0178101789000000000000
B0522003236090S11734184EA0178801803000000000000
B0522043236134S11734128EA0180901823000000000000
B0522083236170S11734073EA0183001844000000000000
B0522123236201S11734016EA0183801848000000000000
B0522163236232S11733958EA0184801860000000000000
B0522203236207S11733904EA0187101884000000000000
B0522243236145S11733945EA0188001885000000000000
B0522283236140S11734040EA0187501883000000000000
B0522323236176S11734118EA0187901889000000000000
B0522363236232S11734164EA0187801888000000000000
B0522403236296S11734187EA0187701884000000000000
B0522443236361S11734197EA0187301878000000000000
B0522483236428S11734196EA0185901861000000000000
B0522523236492S11734181EA0185701878000000000000
B0522563236544S11734164EA0187801895000000000000
B0523003236584S11734137EA0189301909000000000000
B0523043236619S11734097EA0190401916000000000000
B0523083236617S11734041EA0191901929000000000000
B0523123236541S11734046EA0192101927000000000000
B0523163236501S11734128EA0192401937000000000000
B0523203236478S11734215EA0193401947000000000000
B0523243236482S11734294EA0194301958000000000000
B0523283236519S11734310EA0195501967000000000000
B0523323236514S11734254EA0196501974000000000000
B0523363236443S11734242EA0197301988000000000000
B0523403236393S11734309EA0198301992000000000000
B0523443236392S11734388EA0198701997000000000000
B0523483236427S11734431EA0199302005000000000000
B0523523236469S11734417EA0200102012000000015000
B0523563236462S11734354EA0201202026000000015000
B0524003236400S11734317EA0202502036000000000000
B0524043236328S11734356EA0203402046000000015000
B0524083236305S11734439EA0203402038000000015000
B0524123236327S11734521EA0202702039000000015000
B0524163236375S11734565EA0203902049000000015000
B0524203236420S11734538EA0204002051000000015000
B0524243236449S11734478EA0204002046000000000000
B0524283236470S11734404EA0203002031000000000000
B0524323236488S11734318EA0201302012000000000000
B0524363236510S11734223EA0199201990000000000000
B0524403236543S11734129EA0197601983000000000000
B0524443236578S11734042EA0197401981000000000000
B0524483236609S11733958EA0197001979000000000000
B0524523236641S11733876EA0197201980000000000000
B0524563236677S11733798EA0196601972000000000000
B0525003236713S11733725EA0196001967000000000000
B0525043236753S11733655EA0195201957000000000000
B0525083236797S11733590EA0194801956000000000000
B0525123236844S11733530EA0194401949000000000000
B0525163236894S11733472EA0193101935000000000000
B0525203236946S11733417EA0192501934000000000000
B0525243236998S11733366EA0192101926000000000000
B0525283237051S11733314EA0191201919000000000000
B0525323237103S11733261EA0190701913000000000000
B0525363237154S11733208EA0190301910000000000000
B0525403237206S11733156EA0190001909000000000000
B0525443237256S11733105EA0190401913000000000000
B0525483237307S11733057EA0190201909000000000000
B0525523237359S11733007EA0190001907000000000000
B0525563237411S11732959EA0189801906000000000000
B0526003237462S11732913EA0190101911000000000000
B0526043237511S11732867EA0190901919000000000000
B0526083237558S11732822EA0191301921000000000000
B0526123237602S11732773EA0191301923000000000000
B0526163237649S11732727EA0190801909000000000000
B0526203237700S11732680EA0189501898000000000000
B0526243237750S11732625EA0188101885000000000000
B0526283237804S11732569EA0186901874000000000000
B0526323237856S11732515EA0186301871000000000000
B0526363237904S11732460EA0186101868000000000000
B0526403237954S11732407EA0185701861000000000000
B0526443238001S11732351EA0185301858000000000000
B0526483238045S11732291EA0184401849000000000000
B0526523238090S11732234EA0184501856000000000000
B0526563238135S11732179EA0184901854000000000000
B0527003238178S11732123EA0185201864000000000000
B0527043238221S11732070EA0186101870000000000000
B0527083238264S11732008EA0185501858000000000000
B0527123238305S11731943EA0185201860000000000000
B0527163238348S11731879EA0184701850000000000000
B0527203238393S11731814EA0183601839000000000000
B0527243238432S11731746EA0182701835000000000000
B0527283238467S11731678EA0182301830000000000000
B0527323238502S11731614EA0182001830000000000000
B0527363238538S11731558EA0182401834000000000000
B0527403238575S11731505EA0182201830000000000000
B0527443238612S11731453EA0181501822000000000000
B0527483238654S11731405EA0180301808000000000000
B0527523238690S11731350EA0179401796000000000000
B0527563238731S11731295EA0178601794000000000000
B0528003238776S11731254EA0179201802000000000000
B0528043238819S11731215EA0179401800000000000000
B0528083238859S11731169EA0179101798000000000000
B0528123238897S11731124EA0179001796000000000000
B0528163238937S11731078EA0178301784000000000000
B0528203238975S11731028EA0177201778000000000000
B0528243239013S11730979EA0177401784000000000000
B0528283239049S11730933EA0177401778000000000000
B0528323239088S11730885EA0176801776000000000000
B0528363239130S11730839EA0176501769000000000000
B0528403239179S11730796EA0175401756000000000000
B0528443239239S11730761EA0174101746000000000000
B0528483239300S11730730EA0173801747000000000000
B0528523239362S11730699EA0173201732000000000000
B0528563239429S11730667EA0172001730000000000000
B0529003239492S11730639EA0173001744000000000000
B0529043239556S11730617EA0173601747000000000000
B0529083239622S11730599EA0173801745000000000000
B0529123239686S11730576EA0174701761000000000000
B0529163239715S11730527EA0176801777000000000000
B0529203239737S11730470EA0176601758000000000000
B0529243239795S11730433EA0174601742000000000000
B0529283239863S11730396EA0174001751000000000000
B0529323239929S11730357EA0174601751000000000000
B0529363239992S11730315EA0174901761000000000000
B0529403240051S11730277EA0176101762000000000000
B0529443240111S11730233EA0174301739000000000000
B0529483240172S11730184EA0172701728000000000000
B0529523240235S11730137EA0171301715000000000000
B0529563240293S11730092EA0171301720000000000000
B0530003240349S11730045EA0170701708000000000000
B0530043240409S11730004EA0171201723000000000000
B0530083240465S11729969EA0173201744000000000000
B0530123240517S11729928EA0174901762000000000000
B0530163240530S11729871EA0178401802000000000000
B0530203240458S11729861EA0181501825000000000000
B0530243240413S11729939EA0183201844000000000000
B0530283240434S11730010EA0185201866000000000000
B0530323240478S11730014EA0187001879000000000000
B0530363240480S11729964EA0189001903000000015000
B0530403240434S11729926EA0190501903000000015000
B0530443240357S11729945EA0190201903000000015000
B0530483240301S11730027EA0190601911000000015000
B0530523240284S11730119EA0191301918000000000000
B0530563240318S11730189EA0191901928000000000000
B0531003240372S11730203EA0192701935000000015000
B0531043240418S11730177EA0193401939000000000000
B0531083240400S11730123EA0195001958000000015000
B0531123240323S11730138EA0197101977000000015000
B0531163240291S11730228EA0198201988000000015000
B0531203240331S11730284EA0199401999000000015000
B0531243240372S11730266EA0199401996000000015000
B0531283240405S11730218EA0199502002000000015000
B0531323240444S11730163EA0199602001000000000000
B0531363240491S11730105EA0197701975000000000000
B0531403240544S11730045EA0195501960000000000000
B0531443240601S11729988EA0194601948000000000000
B0531483240661S11729932EA0193501940000000000000
B0531523240721S11729877EA0192901935000000000000
B0531563240778S11729826EA0192701932000000000000
B0532003240835S11729778EA0192401932000000000000
B0532043240891S11729730EA0192301931000000000000
B0532083240947S11729685EA0192701939000000000000
B0532123241003S11729637EA0192801937000000000000
B0532163241060S11729582EA0192201928000000000000
B0532203241123S11729526EA0191501920000000000000
B0532243241184S11729468EA0190701908000000000000
B0532283241246S11729406EA0189001890000000000000
B0532323241311S11729343EA0187501881000000000000
B0532363241375S11729280EA0187701885000000000000
B0532403241433S11729217EA0187201875000000000000
B0532443241492S11729153EA0186001865000000000000
B0532483241552S11729094EA0185101859000000000000
B0532523241607S11729037EA0184601855000000000000
B0532563241659S11728977EA0184501851000000000000
B0533003241711S11728922EA0184001845000000000000
B0533043241763S11728871EA0182901828000000000000
B0533083241817S11728819EA0181401821000000000000
B0533123241870S11728768EA0180901813000000000000
B0533163241927S11728719EA0179401794000000000000
B0533203241983S11728669EA0178601793000000000000
B0533243242039S11728624EA0178301789000000000000
B0533283242096S11728581EA0177601779000000000000
B0533323242153S11728535EA0176101765000000000000
B0533363242212S11728489EA0174901747000000000000
B0533403242272S11728434EA0172801727000000000000
B0533443242334S11728376EA0171001710000000000000
B0533483242398S11728314EA0169801704000000000000
B0533523242460S11728255EA0169301696000000000000
B0533563242524S11728192EA0168801691000000000000
B0534003242586S11728131EA0168101685000000000000
B0534043242649S11728069EA0167101672000000000000
B0534083242712S11728006EA0166101663000000000000
B0534123242776S11727941EA0165701660000000000000
B0534163242837S11727871EA0165601659000000000000
B0534203242897S11727802EA0166801690000000000000
B0534243242953S11727739EA0169901722000000000000
B0534283243005S11727680EA0172501740000000000000
B0534323243056S11727628EA0174001756000000000000
B0534363243102S11727580EA0176701789000000000000
B0534403243144S11727533EA0178901804000000000000
B0534443243187S11727485EA0180201812000000000000
B0534483243238S11727437EA0179401804000000000000
B0534523243296S11727390EA0179201802000000000000
B0534563243355S11727339EA0179901812000000000000
B0535003243413S11727285EA0179601802000000000000
B0535043243476S11727230EA0179701816000000000000
B0535083243535S11727178EA0182101845000000000000
B0535123243589S11727126EA0184101855000000000000
B0535163243642S11727069EA0184501860000000000000
B0535203243690S11727014EA0185801874000000000000
B0535243243739S11726965EA0185901873000000000000
B0535283243788S11726918EA0186901889000000000000
B0535323243832S11726871EA0187501881000000000000
B0535363243888S11726821EA0186401876000000000000
B0535403243949S11726771EA0186001862000000000000
B0535443244012S11726718EA0184401855000000000000
B0535483244072S11726673EA0184401851000000000000
B0535523244132S11726624EA0183001832000000000000
B0535563244197S11726575EA0182201835000000000000
B0536003244258S11726526EA0182901840000000000000
B0536043244315S11726468EA0183401849000000000000
B0536083244371S11726418EA0185001874000000000000
B0536123244423S11726374EA0186201866000000000000
B0536163244480S11726327EA0184201840000000000000
B0536203244542S11726272EA0182101823000000000000
B0536243244604S11726216EA0181901828000000000000
B0536283244665S11726163EA0181801815000000000000
B0536323244727S11726108EA0180601815000000000000
B0536363244787S11726062EA0181901837000000000000
B0536403244844S11726029EA0183701844000000000000
B0536443244900S11725995EA0183401835000000000000
B0536483244959S11725952EA0181901818000000000000
B0536523245016S11725896EA0179801798000000000000
B0536563245073S11725843EA0178901797000000000000
B0537003245130S11725790EA0178901795000000000000
B0537043245182S11725731EA0178301787000000000000
B0537083245236S11725673EA0177001768000000000000
B0537123245296S11725614EA0174801747000000000000
B0537163245359S11725565EA0173301734000000000000
B0537203245426S11725522EA0172301726000000000000
B0537243245491S11725482EA0171601719000000000000
B0537283245550S11725428EA0171001715000000000000
B0537323245600S11725365EA0171201723000000000000
B0537363245639S11725301EA0172401737000000000000
B0537403245676S11725244EA0173301742000000000000
B0537443245714S11725188EA0173101735000000000000
B0537483245752S11725131EA0172701731000000000000
B0537523245795S11725075EA0171301713000000000000
B0537563245844S11725018EA0170001704000000000000
B0538003245891S11724959EA0169701707000000000000
B0538043245939S11724898EA0169301691000000000000
B0538083245992S11724837EA0168101686000000000000
B0538123246048S11724776EA0168401692000000000000
B0538163246100S11724719EA0168801693000000000000
B0538203246154S11724668EA0169001700000000000000
B0538243246202S11724619EA0170001708000000000000
B0538283246250S11724569EA0169301692000000000000
B0538323246303S11724516EA0168601699000000000000
B0538363246356S11724461EA0169401706000000000000
B0538403246407S11724409EA0170801729000000000000
B0538443246428S11724347EA0174401763000000000000
B0538483246365S11724318EA0177101785000000000000
B0538523246316S11724386EA0178101788000000000000
B0538563246341S11724456EA0178801804000000000000
B0539003246388S11724473EA0180601820000000000000
B0539043246415S11724434EA0182501832000000015000
B0539083246386S11724379EA0183701836000000015000
B0539123246311S11724377EA0183201830000000015000
B0539163246248S11724448EA0183701847000000015000
B0539203246232S11724535EA0186001873000000015000
B0539243246259S11724594EA0187701882000000015000
B0539283246313S11724595EA0187201875000000015000
B0539323246371S11724565EA0187001874000000000000
B0539363246427S11724518EA0185701849000000000000
B0539403246484S11724455EA0183401837000000000000
B0539443246542S11724386EA0182901835000000000000
B0539483246598S11724314EA0183901853000000000000
B0539523246653S11724243EA0184301848000000000000
B0539563246709S11724165EA0183401839000000000000
B0540003246762S11724092EA0184701867000000000000
B0540043246810S11724024EA0185701862000000000000
B0540083246862S11723954EA0184101843000000000000
B0540123246915S11723878EA0182301823000000000000
B0540163246974S11723800EA0180901808000000000000
B0540203247030S11723723EA0179701800000000000000
B0540243247084S11723646EA0178701786000000000000
B0540283247139S11723571EA0177301776000000000000
B0540323247195S11723502EA0176501769000000000000
B0540363247252S11723438EA0175901764000000000000
B0540403247308S11723376EA0175101758000000000000
B0540443247361S11723312EA0174401750000000000000
B0540483247413S11723250EA0173701744000000000000
B0540523247464S11723185EA0173101737000000000000
B0540563247516S11723121EA0172501728000000000000
B0541003247569S11723057EA0171401719000000000000
B0541043247624S11722992EA0170101704000000000000
B0541083247681S11722925EA0168801693000000000000
B0541123247737S11722858EA0167801682000000000000
B0541163247793S11722792EA0166901674000000000000
B0541203247847S11722724EA0166101666000000000000
B0541243247901S11722659EA0165501661000000000000
B0541283247955S11722596EA0165101657000000000000
B0541323248010S11722533EA0164201644000000000000
B0541363248070S11722475EA0162801629000000000000
B0541403248130S11722414EA0161101613000000000000
B0541443248192S11722350EA0159501600000000000000
B0541483248254S11722288EA0158801593000000000000
B0541523248315S11722224EA0158101588000000000000
B0541563248374S11722162EA0158701595000000000000
B0542003248422S11722102EA0160501606000000000000
B0542043248468S11722045EA0161001613000000000000
B0542083248507S11721982EA0161201612000000000000
B0542123248543S11721915EA0160901611000000000000
B0542163248582S11721851EA0161501622000000000000
B0542203248618S11721787EA0162901638000000000000
B0542243248626S11721718EA0165501664000000000000
B0542283248561S11721696EA0167601682000000000000
B0542323248520S11721773EA0168801696000000000000
B0542363248555S11721826EA0170701719000000000000
B0542403248592S11721812EA0172001727000000015000
B0542443248575S11721760EA0172701731000000015000
B0542483248508S11721738EA0173701745000000015000
B0542523248445S11721790EA0174101749000000015000
B0542563248445S11721876EA0175201767000000015000
B0543003248483S11721930EA0177001783000000015000
B0543043248526S11721917EA0177601782000000015000
B0543083248522S11721855EA0177601782000000015000
B0543123248475S11721792EA0178201792000000015000
B0543163248399S11721811EA0178701787000000015000
B0543203248392S11721903EA0177901791000000015000
B0543243248442S11721960EA0179001804000000015000
B0543283248501S11721977EA0180001816000000015000
B0543323248559S11721957EA0180801821000000015000
B0543363248605S11721913EA0181001820000000000000
B0543403248637S11721840EA0180501814000000000000
B0543443248659S11721757EA0179801808000000000000
B0543483248674S11721673EA0180601827000000000000
B0543523248683S11721588EA0182301841000000000000
B0543563248690S11721505EA0183701854000000000000
B0544003248695S11721423EA0184701862000000000000
B0544043248708S11721337EA0183501837000000000000
B0544083248726S11721242EA0180801809000000000000
B0544123248746S11721144EA0178901797000000000000
B0544163248765S11721047EA0179001801000000000000
B0544203248780S11720953EA0179101798000000000000
B0544243248791S11720858EA0179001797000000000000
B0544283248802S11720765EA0178301785000000000000
B0544323248813S11720670EA0176301761000000000000
B0544363248829S11720574EA0174301749000000000000
B0544403248847S11720481EA0174101749000000000000
B0544443248868S11720391EA0173201736000000000000
B0544483248891S11720303EA0172001724000000000000
B0544523248908S11720213EA0170901717000000000000
B0544563248925S11720123EA0169701698000000000000
B0545003248942S11720035EA0168201686000000000000
B0545043248960S11719949EA0167401678000000000000
B0545083248982S11719866EA0166301667000000000000
B0545123249006S11719784EA0165001653000000000000
B0545163249027S11719699EA0163401637000000000000
B0545203249049S11719616EA0162301628000000000000
B0545243249075S11719532EA0160801612000000000000
B0545283249099S11719447EA0159801601000000000000
B0545323249125S11719363EA0158701592000000000000
B0545363249150S11719279EA0158101585000000000000
B0545403249177S11719198EA0157201577000000000000
B0545443249209S11719116EA0156401568000000000000
B0545483249235S11719031EA0155501560000000000000
B0545523249261S11718947EA0154501548000000000000
B0545563249283S11718862EA0153701544000000000000
B0546003249302S11718776EA0153001534000000000000
B0546043249320S11718689EA0152001522000000000000
B0546083249333S11718602EA0151801524000000000000
B0546123249341S11718514EA0151301518000000000000
B0546163249350S11718427EA0151401521000000000000
B0546203249365S11718342EA0151101516000000000000
B0546243249381S11718259EA0150601510000000000000
B0546283249398S11718181EA0150701516000000000000
B0546323249417S11718106EA0150901513000000000000
B0546363249435S11718030EA0150401510000000000000
B0546403249458S11717957EA0150101507000000000000
B0546443249483S11717885EA0150001505000000000000
B0546483249502S11717808EA0149601499000000000000
B0546523249522S11717730EA0149101499000000000000
B0546563249540S11717652EA0149001496000000000000
B0547003249556S11717574EA0149301504000000000000
B0547043249570S11717504EA0150801522000000000000
B0547083249586S11717439EA0152401539000000000000
B0547123249601S11717378EA0153701551000000000000
B0547163249619S11717316EA0154801560000000000000
B0547203249639S11717251EA0154601552000000000000
B0547243249661S11717177EA0153901545000000000000
B0547283249687S11717099EA0153001534000000000000
B0547323249713S11717017EA0151801521000000000000
B0547363249742S11716934EA0150601508000000000000
B0547403249774S11716848EA0149401498000000000000
B0547443249810S11716767EA0148301484000000000000
B0547483249848S11716686EA0147001474000000000000
B0547523249885S11716605EA0146001461000000000000
B0547563249921S11716529EA0144901452000000000000
B0548003249953S11716455EA0144101444000000000000
B0548043249986S11716379EA0143201433000000000000
B0548083250017S11716304EA0141901421000000000000
B0548123250048S11716230EA0141101415000000000000
B0548163250085S11716161EA0140701411000000000000
B0548203250119S11716094EA0141001419000000000000
B0548243250151S11716036EA0141101415000000000000
B0548283250185S11715974EA0140401409000000000000
B0548323250212S11715910EA0139901405000000000000
B0548363250236S11715844EA0139601402000000000000
B0548403250264S11715785EA0139701405000000000000
B0548443250297S11715732EA0139601402000000000000
B0548483250336S11715686EA0139501402000000000000
B0548523250380S11715649EA0140001408000000000000
B0548563250423S11715617EA0140501412000000000000
B0549003250464S11715581EA0140201406000000000000
B0549043250505S11715539EA0139901406000000000000
B0549083250545S11715495EA0140001405000000000000
B0549123250584S11715448EA0140501413000000000000
B0549163250618S11715396EA0140701411000000000000
B0549203250646S11715339EA0140801414000000000000
B0549243250658S11715273EA0140801411000000000000
B0549283250675S11715201EA0140201408000000000000
B0549323250702S11715135EA0141301428000000000000
B0549363250714S11715069EA0143501442000000000000
B0549403250653S11715039EA0143901443000000000000
B0549443250589S11715095EA0143601437000000000000
B0549483250567S11715192EA0143701451000000000000
B0549523250598S11715264EA0145801472000000000000
B0549563250649S11715246EA0147201482000000000000
B0550003250624S11715195EA0148501486000000015000
B0550043250554S11715221EA0148701498000000015000
B0550083250553S11715303EA0150401515000000015000
B0550123250609S11715338EA0150701516000000015000
B0550163250658S11715304EA0151501524000000015000
B0550203250659S11715240EA0151501516000000015000
B0550243250600S11715197EA0150701514000000015000
B0550283250527S11715234EA0150801511000000015000
B0550323250473S11715317EA0150201510000000015000
B0550363250441S11715411EA0151901533000000000000
B0550403250484S11715472EA0154201553000000015000
B0550443250519S11715430EA0154601551000000015000
B0550483250480S11715383EA0155301563000000015000
B0550523250416S11715413EA0156201573000000015000
B0550563250401S11715495EA0157401592000000015000
B0551003250438S11715556EA0158701596000000015000
B0551043250490S11715559EA0159301603000000015000
B0551083250490S11715511EA0159601598000000015000
B0551123250425S11715513EA0158701586000000015000
B0551163250360S11715577EA0158401600000000015000
B0551203250342S11715667EA0160201621000000015000
B0551243250382S11715714EA0161801629000000015000
B0551283250425S11715680EA0161201608000000015000
B0551323250462S11715616EA0158501583000000015000
B0551363250502S11715538EA0156901573000000000000
B0551403250538S11715456EA0155801563000000000000
B0551443250575S11715377EA0154501549000000000000
B0551483250614S11715296EA0152901530000000000000
B0551523250654S11715214EA0150701509000000000000
B0551563250696S11715132EA0149401499000000000000
B0552003250736S11715054EA0149001497000000000000
B0552043250772S11714976EA0148201483000000000000
B0552083250811S11714895EA0146601467000000000000
B0552123250852S11714810EA0145001452000000000000
B0552163250893S11714726EA0143901439000000000000
B0552203250938S11714642EA0142901432000000000000
B0552243250978S11714560EA0142101423000000000000
B0552283251019S11714479EA0141701421000000000000
B0552323251064S11714404EA0141601421000000000000
B0552363251110S11714347EA0143101450000000000000
B0552403251148S11714298EA0145301460000000000000
B0552443251174S11714239EA0145901465000000000000
B0552483251196S11714174EA0146301470000000000000
B0552523251217S11714109EA0146801473000000000000
B0552563251239S11714040EA0146001463000000000000
B0553003251259S11713966EA0144701449000000000000
B0553043251279S11713890EA0144001443000000000000
B0553083251300S11713812EA0143401436000000000000
B0553123251321S11713730EA0142701432000000000000
B0553163251334S11713648EA0143101440000000000000
B0553203251343S11713569EA0144001450000000000000
B0553243251357S11713494EA0145001460000000000000
B0553283251377S11713422EA0144701448000000000000
B0553323251403S11713348EA0144201450000000000000
B0553363251433S11713279EA0144401453000000000000
B0553403251467S11713212EA0144501454000000000000
B0553443251495S11713149EA0144501450000000000000
B0553483251525S11713082EA0143601440000000000000
B0553523251559S11713017EA0143201438000000000000
B0553563251595S11712955EA0143401441000000000000
B0554003251625S11712894EA0143901449000000000000
B0554043251650S11712829EA0144301451000000000000
B0554083251671S11712761EA0145201464000000000000
B0554123251672S11712700EA0147701487000000000000
B0554163251610S11712698EA0148901493000000000000
B0554203251572S11712777EA0150101512000000000000
B0554243251594S11712850EA0151001519000000000000
B0554283251646S11712867EA0151501523000000015000
B0554323251663S11712828EA0152201532000000015000
B0554363251612S11712807EA0153101538000000015000
B0554403251552S11712859EA0153801548000000015000
B0554443251539S11712948EA0154801560000000015000
B0554483251582S11712995EA0155701569000000015000
B0554523251610S11712961EA0156301572000000015000
B0554563251578S11712913EA0157401587000000015000
B0555003251515S11712932EA0159401606000000015000
B0555043251491S11713015EA0160601617000000015000
B0555083251528S11713080EA0161501625000000015000
B0555123251575S11713075EA0162001632000000015000
B0555163251572S11713028EA0163101644000000015000
B0555203251517S11713012EA0164201652000000015000
B0555243251463S11713073EA0165201663000000015000
B0555283251460S11713163EA0166301673000000015000
B0555323251504S11713212EA0166701674000000015000
B0555363251546S11713186EA0166701674000000015000
B0555403251568S11713130EA0166201665000000000000
B0555443251589S11713060EA0165101656000000000000
B0555483251608S11712984EA0164001639000000000000
B0555523251628S11712898EA0162601625000000000000
B0555563251646S11712811EA0161601610000000000000
B0556003251664S11712721EA0160701609000000000000
B0556043251680S11712631EA0160301600000000000000
B0556083251697S11712542EA0158801584000000000000
B0556123251715S11712449EA0157601578000000000000
B0556163251734S11712362EA0158001584000000000000
B0556203251750S11712275EA0157901583000000000000
B0556243251767S11712185EA0157601579000000000000
B0556283251780S11712097EA0158201591000000000000
B0556323251783S11712009EA0158101580000000000000
B0556363251784S11711915EA0156001549000000000000
B0556403251794S11711816EA0154001538000000000000
B0556443251806S11711721EA0154001545000000000000
B0556483251812S11711630EA0155501564000000000000
B0556523251816S11711543EA0156801575000000000000
B0556563251818S11711457EA0157901586000000000000
B0557003251820S11711372EA0157601575000000000000
B0557043251827S11711281EA0157801583000000000000
