ACAM4N6
HFDTE150222
HFFXA050
HFPLTPILOT:JOHN WELSH              
HFGTYGLIDERTYPE:HORNET      
HFGIDGLIDERID:VH-GMY      
HFDTM100GPSDATUM:
HFRFWFIRMWAREVERSION:F2.6
HFRHWHARDWAREVERSION:300 Series Version 2
HFFTYFRTYPE:CAMBRIDGE AERO INSTRUMENTS, 302+
HFGPS:GARMIN,LVS-25,12,18000
HFPRSPRESSALTSENSOR:INTERSEMA, MS5534-AP, 20000
I033638FXA3941ENL4247REX
LCAMSBVER:5FWVER:F26300
C150222033404150222000102
C0000000N00000000WTAKEOFF     
C3207549S11656849EBEVAIR      
C3136216S11753732EDoodlakine  
C3306466S11827999ELake Grace  
C3207549S11656849EBEVAIR      
C0000000N00000000WLANDING     
B0340423207363S11656874EA0015300206000000000000
B0340443207363S11656874EA0015200206000000000000
B0340463207363S11656874EA0015200206000000000000
B0340483207363S11656874EA0015300206000000000000
B0340503207363S11656874EA0015300206000000000000
B0340523207363S11656874EA0015300206000000000000
B0340543207363S11656874EA0015300206000000000000
B0340563207363S11656874EA0015300206000000000000
B0340583207363S11656874EA0015300206000000000000
B0341003207363S11656874EA0015300206000000000000
B0341023207363S11656874EA0015300206000000000000
B0341043207363S11656874EA0015300206000000000000
B0341063207363S11656874EA0015300206000000000000
B0341083207364S11656875EA0015400206000000000000
B0341103207367S11656878EA0015300206000000000000
B0341133207378S11656888EA0015300206000000000000
B0341173207408S11656909EA0015300205000000000000
B0341213207451S11656938EA0015500206000000000000
B0341253207506S11656973EA0015600207000000000000
B0341293207570S11657014EA0015900210000000000000
B0341333207635S11657057EA0017000223000000000000
B0341373207700S11657100EA0017600232000000000000
B0341413207765S11657142EA0018100248000000000000
B0341453207824S11657185EA0020000265000000000000
B0341493207885S11657224EA0021900283000000000000
B0341533207944S11657261EA0023600300000000000000
B0341573208004S11657299EA0024800316000000000000
B0342013208062S11657338EA0025800323000000000000
B0342053208123S11657376EA0026700332000000000000
B0342093208183S11657413EA0027900352000000000000
B0342133208244S11657452EA0029900371000000000000
B0342173208307S11657491EA0031500381000000000000
B0342213208370S11657536EA0032200388000000000000
B0342253208429S11657581EA0033700408000000000000
B0342293208483S11657636EA0035200427000000000000
B0342333208535S11657689EA0036800443000000000000
B0342373208594S11657740EA0037900452000000000000
B0342413208650S11657792EA0038900463000000000000
B0342453208708S11657842EA0039900472000000000000
B0342493208767S11657896EA0041400485000000000000
B0342533208823S11657952EA0042400500000000000000
B0342573208876S11658009EA0043700516000000000000
B0343013208923S11658073EA0045400527000000000000
B0343053208966S11658138EA0046000536000000000000
B0343093209007S11658205EA0047000547000000000000
B0343133209049S11658271EA0048300560000000000000
B0343173209089S11658340EA0049700583000000000000
B0343213209127S11658413EA0052000605000000000000
B0343253209165S11658490EA0053700621000000000000
B0343293209197S11658567EA0055400644000000000000
B0343333209210S11658650EA0057500663000000000000
B0343373209200S11658733EA0058900673000000000000
B0343413209175S11658816EA0059600679000000000000
B0343453209137S11658893EA0060500689000000000000
B0343493209088S11658962EA0061200698000000000000
B0343533209029S11659015EA0063200723000000000000
B0343573208962S11659050EA0065800750000000000000
B0344013208893S11659079EA0068200774000000000000
B0344053208818S11659094EA0070600798000000000000
B0344093208734S11659084EA0071800804000000000000
B0344133208652S11659061EA0072700821000000000000
B0344173208571S11659037EA0073700826000000000000
B0344213208489S11659014EA0074200829000000000000
B0344253208409S11658983EA0074600834000000000000
B0344293208335S11658962EA0074700833000000000000
B0344333208265S11658940EA0074100825000000000000
B0344373208197S11658906EA0073200815000000000000
B0344413208132S11658866EA0072400808000000000000
B0344453208069S11658821EA0071400795000000000000
B0344493208004S11658775EA0070300784000000000000
B0344533207939S11658726EA0069700777000000000000
B0344573207874S11658676EA0069300773000000000000
B0345013207809S11658624EA0068800769000000000000
B0345053207740S11658581EA0069100773000000000000
B0345093207681S11658611EA0069600782000000000000
B0345133207690S11658663EA0070600790000000000000
B0345173207742S11658669EA0070500783000000000000
B0345213207788S11658616EA0069600776000000000000
B0345253207810S11658537EA0069100772000000000000
B0345293207806S11658448EA0069200775000000000000
B0345333207759S11658390EA0069900785000000000000
B0345373207714S11658425EA0070500789000000000000
B0345413207733S11658474EA0070500786000000000000
B0345453207791S11658466EA0070300786000000015000
B0345493207833S11658407EA0070600792000000015000
B0345533207835S11658333EA0071000793000000015000
B0345573207788S11658284EA0071000794000000015000
B0346013207733S11658299EA0070800788000000015000
B0346053207714S11658357EA0070700792000000015000
B0346093207755S11658388EA0071000793000000015000
B0346133207796S11658340EA0071200796000000015000
B0346173207766S11658278EA0071500800000000015000
B0346213207718S11658290EA0072000802000000015000
B0346253207720S11658340EA0072000800000000015000
B0346293207771S11658340EA0071600798000000015000
B0346333207798S11658275EA0071600800000000015000
B0346373207767S11658212EA0071800801000000015000
B0346413207716S11658227EA0072100805000000015000
B0346453207735S11658277EA0072100803000000015000
B0346493207791S11658260EA0072200808000000015000
B0346533207809S11658187EA0072400809000000015000
B0346573207774S11658123EA0072500812000000015000
B0347013207716S11658109EA0072700811000000015000
B0347053207679S11658152EA0073100820000000015000
B0347093207700S11658203EA0073700820000000015000
B0347133207757S11658196EA0073300817000000015000
B0347173207788S11658130EA0073800829000000015000
B0347213207766S11658063EA0074700835000000015000
B0347253207713S11658039EA0074800833000000015000
B0347293207674S11658076EA0075100841000000015000
B0347333207690S11658128EA0075700844000000015000
B0347373207744S11658122EA0076100844000000015000
B0347413207768S11658056EA0076200850000000015000
B0347453207739S11657997EA0076700854000000015000
B0347493207685S11657996EA0076900856000000015000
B0347533207689S11658047EA0078000865000000015000
B0347573207744S11658047EA0078100865000000015000
B0348013207776S11657980EA0078000868000000015000
B0348053207752S11657911EA0078800875000000015000
B0348093207698S11657904EA0079000877000000015000
B0348133207688S11657957EA0079700888000000015000
B0348173207740S11657976EA0080300894000000015000
B0348213207780S11657919EA0081000904000000015000
B0348253207761S11657850EA0081500906000000015000
B0348293207707S11657832EA0081600907000000015000
B0348333207672S11657876EA0082100909000000015000
B0348373207689S11657935EA0082200913000000015000
B0348413207745S11657958EA0083000921000000015000
B0348453207794S11657915EA0083800931000000015000
B0348493207787S11657848EA0084800943000000015000
B0348533207741S11657819EA0085200943000000015000
B0348573207706S11657853EA0085700946000000015000
B0349013207728S11657905EA0086200956000000015000
B0349053207785S11657902EA0087200963000000015000
B0349093207819S11657844EA0087800971000000015000
B0349133207804S11657774EA0088400975000000015000
B0349173207750S11657749EA0088400974000000015000
B0349213207720S11657793EA0088700980000000015000
B0349253207741S11657845EA0089400984000000015000
B0349293207797S11657859EA0089600984000000015000
B0349333207850S11657811EA0090000997000000015000
B0349373207845S11657738EA0091301010000000015000
B0349413207797S11657707EA0091801011000000015000
B0349453207755S11657738EA0091801012000000015000
B0349493207762S11657792EA0092501017000000015000
B0349533207817S11657805EA0092601016000000015000
B0349573207862S11657751EA0093301030000000015000
B0350013207850S11657679EA0093901033000000015000
B0350053207798S11657650EA0094101033000000015000
B0350093207752S11657677EA0094301035000000015000
B0350133207740S11657732EA0094901043000000015000
B0350173207778S11657774EA0095001041000000015000
B0350213207837S11657758EA0095101048000000015000
B0350253207859S11657688EA0096201060000000015000
B0350293207824S11657628EA0096501060000000015000
B0350333207765S11657629EA0096301057000000015000
B0350373207737S11657688EA0096701064000000015000
B0350413207766S11657746EA0096901063000000015000
B0350453207828S11657761EA0096701065000000015000
B0350493207895S11657746EA0096901065000000000000
B0350533207935S11657685EA0097201069000000015000
B0350573207930S11657607EA0097201069000000015000
B0351013207885S11657546EA0096701063000000015000
B0351053207819S11657519EA0096601062000000015000
B0351093207754S11657520EA0097001070000000015000
B0351133207706S11657563EA0097901078000000015000
B0351173207719S11657620EA0099201090000000015000
B0351213207778S11657606EA0099901091000000015000
B0351253207802S11657532EA0099301090000000015000
B0351293207767S11657462EA0100001099000000015000
B0351333207705S11657447EA0100701105000000015000
B0351373207676S11657502EA0101901121000000015000
B0351413207715S11657540EA0103401136000000015000
B0351453207761S11657495EA0104101145000000015000
B0351493207750S11657424EA0105501159000000015000
B0351533207697S11657400EA0105801157000000015000
B0351573207668S11657449EA0107001175000000015000
B0352013207710S11657480EA0108301190000000015000
B0352053207762S11657441EA0109001196000000015000
B0352093207749S11657367EA0110101207000000015000
B0352133207693S11657359EA0110501204000000015000
B0352173207666S11657416EA0111101222000000015000
B0352213207710S11657455EA0113101240000000015000
B0352253207759S11657415EA0114101249000000015000
B0352293207754S11657338EA0115301264000000015000
B0352333207705S11657298EA0115701257000000015000
B0352373207653S11657325EA0115501264000000015000
B0352413207649S11657387EA0117801293000000015000
B0352453207703S11657387EA0119801306000000015000
B0352493207714S11657309EA0120901325000000015000
B0352533207661S11657273EA0122701342000000015000
B0352573207618S11657309EA0123801359000000015000
B0353013207642S11657369EA0126301381000000015000
B0353053207702S11657356EA0127901399000000015000
B0353093207710S11657281EA0129201411000000015000
B0353133207655S11657244EA0130301425000000015000
B0353173207614S11657290EA0131801440000000015000
B0353213207638S11657352EA0133801459000000015000
B0353253207702S11657348EA0135301473000000015000
B0353293207731S11657278EA0136201486000000015000
B0353333207693S11657215EA0137901502000000015000
B0353373207635S11657224EA0139001511000000015000
B0353413207616S11657287EA0140601533000000015000
B0353453207659S11657329EA0142901554000000015000
B0353493207713S11657299EA0144201565000000015000
B0353533207718S11657228EA0145101583000000015000
B0353573207670S11657189EA0147001600000000015000
B0354013207620S11657216EA0148601613000000015000
B0354053207624S11657278EA0149801629000000015000
B0354093207679S11657295EA0151401644000000015000
B0354133207723S11657244EA0152101646000000015000
B0354173207706S11657176EA0153101665000000015000
B0354213207651S11657161EA0154801679000000015000
B0354253207616S11657211EA0155801688000000015000
B0354293207648S11657263EA0156501697000000015000
B0354333207707S11657247EA0157401706000000015000
B0354373207733S11657179EA0157901709000000015000
B0354413207697S11657125EA0158501720000000015000
B0354453207637S11657129EA0159401731000000015000
B0354493207607S11657183EA0160401735000000015000
B0354533207640S11657238EA0160501734000000015000
B0354573207702S11657231EA0160701739000000015000
B0355013207731S11657172EA0161301747000000015000
B0355053207700S11657114EA0161901751000000015000
B0355093207648S11657131EA0162701760000000015000
B0355133207662S11657187EA0163401764000000015000
B0355173207722S11657189EA0162501750000000015000
B0355213207767S11657129EA0162501762000000015000
B0355253207781S11657052EA0163901774000000015000
B0355293207770S11656977EA0164401772000000000000
B0355333207719S11656956EA0164201769000000000000
B0355373207690S11657010EA0163901772000000015000
B0355413207710S11657077EA0164501784000000015000
B0355453207762S11657117EA0165601792000000000000
B0355493207824S11657094EA0166101793000000000000
B0355533207859S11657023EA0165501782000000000000
B0355573207844S11656945EA0164601776000000015000
B0356013207797S11656893EA0163501758000000000000
B0356053207735S11656912EA0161801750000000000000
B0356093207697S11656978EA0162301757000000000000
B0356133207681S11657053EA0162501758000000000000
B0356173207713S11657121EA0162601758000000000000
B0356213207778S11657150EA0162201748000000000000
B0356253207846S11657120EA0160901736000000000000
B0356293207893S11657049EA0160101731000000000000
B0356333207928S11656970EA0159001713000000000000
B0356373207915S11656886EA0157901709000000000000
B0356413207863S11656834EA0157301699000000000000
B0356453207796S11656832EA0155801687000000000000
B0356493207733S11656880EA0156201700000000000000
B0356533207696S11656944EA0157601709000000000000
B0356573207728S11657009EA0157401700000000000000
B0357013207800S11657027EA0156101687000000000000
B0357053207874S11656996EA0155701685000000000000
B0357093207919S11656926EA0155901687000000000000
B0357133207941S11656843EA0155501676000000000000
B0357173207940S11656754EA0153801659000000000000
B0357213207901S11656678EA0152201651000000000000
B0357253207846S11656618EA0152701662000000000000
B0357293207792S11656563EA0153001660000000000000
B0357333207731S11656536EA0153301664000000000000
B0357373207677S11656561EA0154101674000000000000
B0357413207633S11656604EA0154701674000000000000
B0357453207592S11656656EA0153801659000000000000
B0357493207550S11656713EA0152901650000000000000
B0357533207512S11656778EA0151801635000000000000
B0357573207494S11656854EA0150201622000000000000
B0358013207485S11656936EA0149001610000000000000
B0358053207488S11657020EA0148401607000000000000
B0358093207501S11657103EA0148101606000000000000
B0358133207516S11657182EA0148101605000000000000
B0358173207529S11657259EA0147501598000000000000
B0358213207551S11657334EA0146801588000000000000
B0358253207586S11657406EA0146001583000000000000
B0358293207609S11657482EA0145801584000000000000
B0358333207619S11657560EA0146101587000000000000
B0358373207606S11657634EA0146501593000000000000
B0358413207575S11657702EA0146601591000000000000
B0358453207533S11657763EA0146401590000000000000
B0358493207490S11657823EA0146801597000000000000
B0358533207445S11657876EA0146901592000000000000
B0358573207401S11657935EA0146001582000000000000
B0359013207355S11657991EA0145701583000000000000
B0359053207306S11658040EA0145601580000000000000
B0359093207254S11658088EA0145001572000000000000
B0359133207208S11658143EA0144501568000000000000
B0359173207176S11658205EA0144301566000000000000
B0359213207172S11658278EA0143301553000000000000
B0359253207200S11658348EA0142201544000000000000
B0359293207248S11658407EA0142301548000000000000
B0359333207303S11658455EA0142801553000000000000
B0359373207365S11658487EA0143301560000000000000
B0359413207429S11658470EA0143801560000000000000
B0359453207463S11658396EA0143501556000000000000
B0359493207489S11658312EA0143101557000000000000
B0359533207519S11658231EA0143501559000000000000
B0359573207545S11658145EA0143301559000000000000
B0400013207572S11658060EA0143001552000000000000
B0400053207607S11657972EA0142101543000000000000
B0400093207648S11657888EA0141701543000000000000
B0400133207689S11657806EA0141901545000000000000
B0400173207736S11657733EA0142001543000000000000
B0400213207781S11657657EA0141701539000000000000
B0400253207822S11657576EA0141201533000000000000
B0400293207862S11657494EA0140401523000000000000
B0400333207908S11657417EA0139301514000000000000
B0400373207960S11657343EA0138301499000000000000
B0400413208010S11657264EA0137301490000000000000
B0400453208057S11657185EA0136701486000000000000
B0400493208108S11657109EA0136401482000000000000
B0400533208165S11657046EA0135701474000000000000
B0400573208233S11656999EA0135101465000000000000
B0401013208307S11656968EA0133901454000000000000
B0401053208382S11656949EA0132801443000000000000
B0401093208459S11656942EA0131801433000000000000
B0401133208535S11656948EA0131101429000000000000
B0401173208612S11656957EA0131401433000000000000
B0401213208686S11656966EA0131401430000000000000
B0401253208762S11656971EA0131401430000000000000
B0401293208836S11656958EA0131401430000000000000
B0401333208902S11656918EA0131701434000000000000
B0401373208955S11656856EA0131901437000000000000
B0401413208987S11656780EA0132301439000000000000
B0401453208954S11656717EA0132101435000000000000
B0401493208909S11656661EA0130901420000000000000
B0401533208883S11656581EA0129401406000000000000
B0401573208881S11656493EA0128301394000000000000
B0402013208899S11656403EA0128001397000000000000
B0402053208922S11656316EA0128401399000000000000
B0402093208936S11656230EA0128301397000000000000
B0402133208959S11656149EA0127901394000000000000
B0402173208987S11656068EA0127501388000000000000
B0402213209014S11655983EA0126701379000000000000
B0402253209042S11655898EA0126201379000000000000
B0402293209044S11655814EA0127901399000000000000
B0402333208990S11655800EA0129301408000000000000
B0402373208966S11655853EA0129201405000000000000
B0402413208989S11655909EA0129501411000000000000
B0402453209040S11655900EA0129801411000000000000
B0402493209044S11655831EA0129601412000000015000
B0402533208990S11655799EA0129801415000000015000
B0402573208948S11655840EA0130301415000000015000
B0403013208966S11655899EA0130001411000000015000
B0403053209022S11655898EA0129501406000000015000
B0403093209041S11655829EA0129201408000000015000
B0403133208996S11655775EA0130001414000000015000
B0403173208942S11655796EA0130401416000000015000
B0403213208949S11655855EA0130401413000000015000
B0403253209002S11655864EA0129501404000000015000
B0403293209054S11655817EA0129301408000000015000
B0403333209079S11655749EA0130401420000000015000
B0403373209033S11655713EA0131601426000000015000
B0403413209002S11655762EA0132101430000000015000
B0403453209045S11655799EA0132001432000000015000
B0403493209085S11655748EA0132901451000000015000
B0403533209058S11655694EA0134601464000000015000
B0403573209006S11655705EA0135501471000000015000
B0404013209000S11655764EA0135701470000000015000
B0404053209050S11655786EA0135501473000000015000
B0404093209097S11655744EA0136301482000000015000
B0404133209100S11655678EA0137001487000000015000
B0404173209044S11655655EA0137501494000000015000
B0404213209027S11655713EA0138601507000000015000
B0404253209080S11655730EA0139401514000000015000
B0404293209093S11655666EA0139801521000000015000
B0404333209041S11655638EA0140801529000000015000
B0404373209005S11655684EA0141601537000000015000
B0404413209036S11655736EA0141501530000000015000
B0404453209094S11655722EA0141201535000000015000
B0404493209114S11655660EA0141801543000000015000
B0404533209079S11655610EA0142501547000000015000
B0404573209028S11655630EA0142801548000000015000
B0405013209039S11655695EA0142901549000000015000
B0405053209096S11655699EA0142801548000000015000
B0405093209118S11655635EA0142601546000000015000
B0405133209093S11655566EA0142601550000000015000
B0405173209036S11655556EA0143001549000000015000
B0405213209016S11655621EA0143101552000000015000
B0405253209063S11655666EA0143001546000000015000
B0405293209124S11655635EA0142601549000000015000
B0405333209143S11655564EA0143401559000000015000
B0405373209100S11655514EA0143901561000000015000
B0405413209053S11655545EA0144401567000000030000
B0405453209076S11655605EA0144701565000000015000
B0405493209133S11655587EA0145001574000000015000
B0405533209130S11655521EA0145101571000000015000
B0405573209075S11655493EA0144501567000000015000
B0406013209013S11655491EA0144001562000000015000
B0406053208941S11655493EA0142801547000000015000
B0406093208864S11655496EA0141701534000000015000
B0406133208785S11655488EA0140501525000000000000
B0406173208707S11655474EA0140101524000000000000
B0406213208630S11655458EA0139901524000000000000
B0406253208555S11655444EA0140101523000000000000
B0406293208478S11655430EA0139601517000000000000
B0406333208400S11655414EA0139401516000000000000
B0406373208324S11655401EA0139501519000000000000
B0406413208294S11655448EA0141001542000000000000
B0406453208335S11655486EA0142101533000000000000
B0406493208394S11655448EA0140701529000000000000
B0406533208433S11655379EA0141001533000000015000
B0406573208426S11655297EA0141101530000000015000
B0407013208372S11655248EA0140601526000000015000
B0407053208308S11655241EA0140501528000000015000
B0407093208256S11655270EA0140301521000000015000
B0407133208217S11655322EA0139101508000000015000
B0407173208181S11655380EA0137901496000000000000
B0407213208147S11655441EA0137101492000000000000
B0407253208103S11655492EA0137001490000000000000
B0407293208051S11655538EA0136901490000000000000
B0407333207999S11655583EA0137201493000000000000
B0407373207945S11655625EA0137601499000000000000
B0407413207893S11655665EA0138701511000000000000
B0407453207900S11655720EA0140001523000000000000
B0407493207957S11655720EA0139301508000000000000
B0407533207993S11655653EA0138701516000000000000
B0407573207989S11655575EA0139901525000000015000
B0408013207940S11655545EA0140701531000000015000
B0408053207926S11655597EA0141801545000000015000
B0408093207980S11655614EA0143101558000000015000
B0408133208021S11655560EA0143301555000000015000
B0408173208000S11655486EA0143501565000000015000
B0408213207948S11655473EA0144701576000000030000
B0408253207928S11655522EA0145901582000000015000
B0408293207973S11655558EA0146801593000000015000
B0408333208032S11655532EA0147001592000000015000
B0408373208047S11655457EA0147301602000000015000
B0408413208012S11655398EA0148001605000000015000
B0408453207961S11655411EA0148401610000000030000
B0408493207969S11655470EA0149201621000000015000
B0408533208030S11655475EA0150101631000000015000
B0408573208069S11655414EA0151101644000000015000
B0409013208053S11655344EA0152001651000000015000
B0409053208004S11655327EA0152401656000000030000
B0409093207976S11655370EA0152801658000000015000
B0409133208001S11655423EA0153501664000000015000
B0409173208062S11655426EA0154001669000000015000
B0409213208097S11655363EA0154801678000000015000
B0409253208069S11655302EA0155201679000000015000
B0409293208021S11655314EA0155401683000000015000
B0409333208013S11655369EA0156101686000000015000
B0409373208056S11655411EA0156301687000000015000
B0409413208123S11655396EA0156001687000000015000
B0409453208157S11655327EA0157001700000000015000
B0409493208144S11655255EA0157801708000000015000
B0409533208097S11655224EA0157601702000000015000
B0409573208058S11655259EA0157601704000000015000
B0410013208074S11655315EA0158201709000000015000
B0410053208136S11655328EA0158501714000000015000
B0410093208186S11655279EA0159101722000000015000
B0410133208178S11655210EA0159301717000000015000
B0410173208127S11655185EA0158401708000000015000
B0410213208092S11655224EA0158301712000000015000
B0410253208095S11655284EA0159001716000000015000
B0410293208143S11655324EA0159301718000000015000
B0410333208209S11655306EA0158901715000000015000
B0410373208253S11655241EA0158901719000000015000
B0410413208260S11655167EA0159101717000000015000
B0410453208221S11655118EA0158401707000000015000
B0410493208168S11655127EA0157201697000000015000
B0410533208126S11655167EA0156701697000000015000
B0410573208090S11655219EA0157001700000000015000
B0411013208064S11655280EA0157201699000000015000
B0411053208088S11655348EA0156401690000000000000
B0411093208155S11655369EA0156101691000000000000
B0411133208223S11655348EA0155501679000000000000
B0411173208298S11655328EA0154501668000000000000
B0411213208374S11655326EA0153401658000000000000
B0411253208452S11655336EA0152501649000000000000
B0411293208529S11655358EA0151501638000000000000
B0411333208603S11655391EA0150801633000000000000
B0411373208672S11655431EA0150701634000000000000
B0411413208742S11655460EA0150901637000000000000
B0411453208808S11655480EA0151201641000000000000
B0411493208872S11655497EA0151401638000000000000
B0411533208937S11655486EA0151401645000000000000
B0411573208987S11655431EA0152501658000000000000
B0412013208976S11655353EA0153901666000000000000
B0412053208922S11655339EA0154501674000000015000
B0412093208911S11655389EA0155601687000000015000
B0412133208959S11655409EA0156701698000000015000
B0412173209005S11655356EA0157301702000000015000
B0412213208988S11655274EA0157501704000000015000
B0412253208933S11655257EA0158201713000000030000
B0412293208918S11655306EA0158701717000000015000
B0412333208964S11655328EA0159501729000000015000
B0412373209006S11655274EA0160801743000000015000
B0412413208997S11655197EA0161801748000000015000
B0412453208949S11655161EA0161801748000000015000
B0412493208915S11655196EA0161401745000000030000
B0412533208942S11655246EA0161501752000000015000
B0412573209000S11655242EA0162801770000000015000
B0413013209016S11655171EA0163901773000000015000
B0413053208970S11655127EA0163901771000000015000
B0413093208936S11655166EA0164001772000000015000
B0413133208964S11655218EA0164101776000000015000
B0413173209023S11655190EA0164901790000000015000
B0413213209028S11655114EA0166201796000000015000
B0413253208977S11655079EA0166301797000000015000
B0413293208938S11655114EA0166201795000000015000
B0413333208961S11655167EA0166201799000000015000
B0413373209019S11655157EA0167401813000000015000
B0413413209050S11655089EA0168301820000000015000
B0413453209015S11655028EA0168401819000000015000
B0413493208963S11655037EA0168201816000000030000
B0413533208958S11655093EA0168001815000000015000
B0413573209019S11655103EA0167401812000000015000
B0414013209080S11655055EA0168001820000000015000
B0414053209105S11654971EA0168401817000000015000
B0414093209070S11654898EA0167801809000000015000
B0414133209010S11654886EA0166701799000000030000
B0414173208971S11654936EA0165601787000000015000
B0414213208948S11655005EA0164501782000000015000
B0414253208931S11655077EA0164601793000000015000
B0414293208922S11655149EA0166101800000000000000
B0414333208948S11655209EA0166001795000000000000
B0414373209007S11655223EA0164901780000000000000
B0414413209068S11655184EA0164001776000000000000
B0414453209120S11655123EA0164101782000000000000
B0414493209157S11655046EA0164401783000000000000
B0414533209180S11654962EA0165301795000000000000
B0414573209182S11654878EA0165901795000000000000
B0415013209131S11654841EA0165401790000000015000
B0415053209080S11654862EA0164901785000000015000
B0415093209062S11654919EA0164301780000000015000
B0415133209071S11654989EA0164001785000000015000
B0415173209091S11655054EA0165101795000000000000
B0415213209115S11655116EA0165501797000000000000
B0415253209127S11655185EA0165101788000000000000
B0415293209122S11655258EA0164201781000000000000
B0415333209098S11655323EA0163901777000000000000
B0415373209058S11655378EA0163601773000000000000
B0415413209013S11655427EA0163301771000000000000
B0415453208967S11655478EA0163001768000000000000
B0415493208923S11655530EA0162701764000000000000
B0415533208880S11655583EA0162301759000000000000
B0415573208836S11655635EA0161901756000000000000
B0416013208790S11655687EA0161701751000000000000
B0416053208741S11655733EA0161501750000000000000
B0416093208691S11655778EA0161301748000000000000
B0416133208637S11655816EA0161201747000000000000
B0416173208586S11655856EA0160901741000000000000
B0416213208538S11655905EA0159601728000000000000
B0416253208485S11655950EA0158901723000000000000
B0416293208426S11655980EA0159201725000000000000
B0416333208368S11656007EA0159101723000000000000
B0416373208313S11656042EA0158901719000000000000
B0416413208272S11656093EA0158201715000000000000
B0416453208243S11656152EA0158401719000000000000
B0416493208223S11656215EA0158601720000000000000
B0416533208210S11656281EA0158601720000000000000
B0416573208204S11656351EA0158101712000000000000
B0417013208216S11656422EA0157501710000000000000
B0417053208234S11656490EA0157501708000000000000
B0417093208240S11656562EA0157501710000000000000
B0417133208230S11656631EA0157401706000000000000
B0417173208204S11656696EA0156801700000000000000
B0417213208175S11656762EA0156401696000000000000
B0417253208144S11656828EA0156201695000000000000
B0417293208114S11656893EA0155701688000000000000
B0417333208083S11656960EA0155101682000000000000
B0417373208052S11657026EA0154901682000000000000
B0417413208017S11657087EA0154901682000000000000
B0417453207978S11657143EA0154701677000000000000
B0417493207939S11657203EA0154201673000000000000
B0417533207904S11657264EA0153601665000000000000
B0417573207883S11657334EA0153001660000000000000
B0418013207880S11657411EA0152301654000000000000
B0418053207897S11657486EA0151901648000000000000
B0418093207931S11657559EA0151301643000000000000
B0418133207982S11657621EA0150801638000000000000
B0418173208044S11657673EA0150701638000000000000
B0418213208108S11657716EA0150801638000000000000
B0418253208174S11657754EA0150701636000000000000
B0418293208240S11657790EA0150201630000000000000
B0418333208305S11657823EA0150001629000000000000
B0418373208368S11657855EA0149301619000000000000
B0418413208431S11657889EA0148501611000000000000
B0418453208495S11657922EA0148201610000000000000
B0418493208558S11657956EA0148101609000000000000
B0418533208619S11657985EA0147701603000000000000
B0418573208686S11657996EA0147301599000000000000
B0419013208756S11657995EA0146601589000000000000
B0419053208825S11658010EA0146001588000000000000
B0419093208888S11658039EA0146001585000000000000
B0419133208946S11658074EA0145701584000000000000
B0419173209006S11658112EA0145601582000000000000
B0419213209065S11658152EA0145601585000000000000
B0419253209127S11658186EA0146501596000000000000
B0419293209182S11658145EA0147601604000000000000
B0419333209161S11658075EA0147801602000000000000
B0419373209101S11658069EA0147501602000000015000
B0419413209067S11658125EA0148101617000000015000
B0419453209104S11658178EA0149901632000000015000
B0419493209163S11658151EA0150401632000000015000
B0419533209175S11658078EA0150701637000000015000
B0419573209128S11658035EA0150601631000000015000
B0420013209076S11658062EA0150701639000000015000
B0420053209071S11658126EA0151501644000000015000
B0420093209130S11658135EA0152301655000000015000
B0420133209146S11658062EA0152201651000000015000
B0420173209094S11658024EA0152101650000000015000
B0420213209052S11658066EA0152601664000000015000
B0420253209061S11658128EA0153701669000000015000
B0420293209119S11658145EA0154501680000000015000
B0420333209162S11658091EA0155001680000000015000
B0420373209145S11658022EA0154901676000000015000
B0420413209091S11658004EA0154801682000000015000
B0420453209055S11658045EA0155601687000000015000
B0420493209075S11658109EA0155601686000000015000
B0420533209137S11658112EA0156101696000000015000
B0420573209167S11658043EA0156301693000000015000
B0421013209135S11657982EA0156201695000000015000
B0421053209078S11657983EA0156501701000000015000
B0421093209045S11658030EA0157301706000000015000
B0421133209074S11658086EA0157901710000000015000
B0421173209137S11658089EA0158201712000000015000
B0421213209184S11658032EA0158201711000000015000
B0421253209198S11657952EA0157601705000000015000
B0421293209200S11657865EA0156501693000000000000
B0421333209198S11657770EA0155601683000000000000
B0421373209202S11657671EA0154901677000000000000
B0421413209205S11657572EA0153901662000000000000
B0421453209204S11657471EA0152801652000000000000
B0421493209208S11657371EA0152201650000000000000
B0421533209206S11657273EA0152101650000000000000
B0421573209184S11657190EA0153001664000000000000
B0422013209132S11657169EA0154301671000000000000
B0422053209105S11657215EA0154201672000000000000
B0422093209139S11657255EA0154001667000000000000
B0422133209197S11657224EA0153401663000000000000
B0422173209210S11657144EA0153101661000000015000
B0422213209178S11657070EA0153001662000000015000
B0422253209127S11657020EA0152601657000000015000
B0422293209071S11657030EA0152601658000000015000
B0422333209055S11657086EA0152701660000000015000
B0422373209063S11657151EA0152601657000000000000
B0422413209063S11657218EA0152601657000000000000
B0422453209092S11657274EA0152601656000000000000
B0422493209154S11657254EA0152601656000000000000
B0422533209175S11657172EA0152101650000000015000
B0422573209146S11657096EA0152101654000000015000
B0423013209092S11657051EA0152401655000000015000
B0423053209028S11657057EA0152001650000000015000
B0423093208970S11657096EA0151801648000000015000
B0423133208919S11657151EA0151701644000000015000
B0423173208877S11657217EA0151201639000000015000
B0423213208842S11657286EA0151001641000000000000
B0423253208810S11657355EA0151001638000000000000
B0423293208768S11657415EA0150701637000000000000
B0423333208723S11657471EA0150501631000000000000
B0423373208665S11657515EA0149301616000000000000
B0423413208590S11657530EA0147701603000000000000
B0423453208512S11657521EA0146801595000000000000
B0423493208439S11657494EA0146801598000000000000
B0423533208370S11657460EA0146801595000000000000
B0423573208304S11657417EA0146201588000000000000
B0424013208239S11657371EA0145901587000000000000
B0424053208178S11657320EA0145601583000000000000
B0424093208118S11657269EA0145101576000000000000
B0424133208058S11657218EA0144501571000000000000
B0424173207997S11657168EA0144101567000000000000
B0424213207939S11657112EA0143601562000000000000
B0424253207878S11657057EA0143401557000000000000
B0424293207813S11657013EA0142601548000000000000
B0424333207753S11656965EA0142401552000000000000
B0424373207700S11656913EA0142501548000000000000
B0424413207649S11656856EA0141701537000000000000
B0424453207596S11656793EA0140401526000000000000
B0424493207542S11656727EA0139801521000000000000
B0424533207489S11656661EA0139601518000000000000
B0424573207425S11656619EA0139701518000000000000
B0425013207363S11656620EA0139601518000000000000
B0425053207306S11656650EA0139301514000000000000
B0425093207252S11656687EA0139101514000000000000
B0425133207198S11656723EA0138601506000000000000
B0425173207142S11656760EA0138401506000000000000
B0425213207086S11656797EA0138301505000000000000
B0425253207025S11656830EA0137901499000000000000
B0425293206962S11656866EA0137201489000000000000
B0425333206901S11656910EA0136401485000000000000
B0425373206844S11656955EA0137201498000000000000
B0425413206804S11657009EA0138301507000000000000
B0425453206844S11657051EA0139101509000000000000
B0425493206890S11656991EA0138201500000000015000
B0425533206868S11656906EA0137801500000000015000
B0425573206806S11656877EA0138701517000000030000
B0426013206769S11656918EA0140101529000000030000
B0426053206795S11656969EA0140601530000000015000
B0426093206853S11656947EA0140801534000000015000
B0426133206868S11656869EA0140701532000000030000
B0426173206816S11656841EA0141501543000000030000
B0426213206799S11656895EA0142101546000000030000
B0426253206847S11656923EA0142401553000000015000
B0426293206896S11656879EA0142801554000000030000
B0426333206894S11656804EA0142701553000000030000
B0426373206842S11656773EA0143001560000000030000
B0426413206801S11656806EA0143401560000000030000
B0426453206817S11656866EA0143201562000000015000
B0426493206875S11656862EA0143701569000000015000
B0426533206904S11656795EA0144101569000000030000
B0426573206869S11656732EA0144301573000000030000
B0427013206813S11656723EA0144601574000000030000
B0427053206766S11656760EA0144201568000000030000
B0427093206725S11656810EA0144101572000000015000
B0427133206682S11656864EA0144301573000000015000
B0427173206639S11656916EA0144401570000000015000
B0427213206597S11656970EA0143901564000000015000
B0427253206554S11657025EA0143901568000000015000
B0427293206526S11657082EA0144501573000000015000
B0427333206566S11657120EA0145201579000000015000
B0427373206615S11657073EA0144801572000000015000
B0427413206617S11656991EA0144401575000000015000
B0427453206576S11656931EA0145001580000000015000
B0427493206524S11656942EA0145901590000000030000
B0427533206537S11656996EA0145901584000000015000
B0427573206604S11656996EA0144801572000000015000
B0428013206656S11656932EA0144101571000000015000
B0428053206697S11656857EA0144001565000000015000
B0428093206740S11656779EA0143001553000000015000
B0428133206790S11656709EA0142501551000000015000
B0428173206856S11656665EA0142501552000000015000
B0428213206927S11656648EA0142801554000000000000
B0428253207001S11656652EA0142701552000000000000
B0428293207073S11656670EA0142101545000000000000
B0428333207142S11656697EA0141201534000000000000
B0428373207212S11656732EA0140101523000000000000
B0428413207274S11656776EA0139601519000000000000
B0428453207332S11656830EA0139301515000000000000
B0428493207382S11656886EA0139501521000000000000
B0428533207429S11656942EA0140001525000000000000
B0428573207481S11656990EA0140801535000000000000
B0429013207536S11656964EA0142001545000000000000
B0429053207516S11656895EA0142501551000000000000
B0429093207463S11656896EA0143201557000000015000
B0429133207450S11656953EA0143101554000000015000
B0429173207497S11656984EA0143301560000000015000
B0429213207536S11656929EA0144001568000000015000
B0429253207506S11656864EA0144401569000000015000
B0429293207450S11656862EA0145001577000000015000
B0429333207438S11656919EA0145101574000000015000
B0429373207489S11656939EA0145601587000000015000
B0429413207527S11656875EA0146101587000000015000
B0429453207495S11656802EA0146201589000000015000
B0429493207437S11656808EA0147101601000000015000
B0429533207442S11656866EA0147901604000000015000
B0429573207499S11656864EA0148301613000000015000
B0430013207527S11656792EA0148801616000000015000
B0430053207492S11656734EA0149301623000000015000
B0430093207438S11656743EA0149901627000000015000
B0430133207436S11656801EA0150201628000000015000
B0430173207493S11656800EA0150301631000000015000
B0430213207518S11656723EA0150501631000000015000
B0430253207476S11656658EA0150601635000000015000
B0430293207414S11656658EA0151101639000000015000
B0430333207377S11656714EA0151301640000000015000
B0430373207372S11656787EA0151301639000000015000
B0430413207415S11656836EA0151601645000000015000
B0430453207476S11656819EA0151701642000000015000
B0430493207514S11656745EA0151701643000000015000
B0430533207508S11656657EA0151801645000000015000
B0430573207460S11656594EA0152101653000000015000
B0431013207397S11656588EA0152801658000000015000
B0431053207354S11656636EA0152901657000000015000
B0431093207359S11656706EA0152901658000000015000
B0431133207403S11656756EA0152901659000000015000
B0431173207466S11656750EA0152701654000000015000
B0431213207510S11656685EA0152501656000000015000
B0431253207512S11656597EA0152501655000000015000
B0431293207477S11656518EA0152401654000000015000
B0431333207425S11656448EA0152701658000000000000
B0431373207367S11656386EA0151901645000000000000
B0431413207304S11656325EA0150601632000000000000
B0431453207241S11656263EA0150001629000000000000
B0431493207180S11656203EA0150001629000000000000
B0431533207121S11656143EA0149901627000000000000
B0431573207061S11656085EA0149701623000000000000
B0432013206998S11656029EA0149201619000000000000
B0432053206927S11655986EA0148701610000000000000
B0432093206855S11655976EA0148301609000000000000
B0432133206786S11655985EA0147801603000000000000
B0432173206714S11656000EA0146501590000000000000
B0432213206637S11656011EA0145701582000000000000
B0432253206559S11656019EA0146301591000000000000
B0432293206505S11656063EA0147601611000000000000
B0432333206523S11656123EA0149401626000000000000
B0432373206579S11656111EA0150101627000000000000
B0432413206592S11656037EA0149901627000000015000
B0432453206546S11655987EA0150201630000000015000
B0432493206488S11655998EA0150301628000000015000
B0432533206450S11656046EA0150201631000000015000
B0432573206465S11656107EA0150001625000000015000
B0433013206522S11656125EA0149201619000000015000
B0433053206574S11656074EA0149001621000000015000
B0433093206597S11655993EA0149301625000000015000
B0433133206585S11655911EA0150201635000000015000
B0433173206531S11655902EA0151101639000000015000
B0433213206523S11655965EA0150101619000000015000
B0433253206588S11655995EA0149901638000000015000
B0433293206650S11655955EA0151801654000000015000
B0433333206632S11655881EA0153001664000000015000
B0433373206578S11655886EA0153701669000000015000
B0433413206591S11655944EA0154501683000000015000
B0433453206654S11655947EA0156001696000000015000
B0433493206687S11655877EA0156801704000000015000
B0433533206653S11655811EA0157601711000000015000
B0433573206597S11655811EA0157901712000000015000
B0434013206582S11655866EA0158501721000000015000
B0434053206630S11655899EA0159601734000000015000
B0434093206682S11655850EA0160501741000000015000
B0434133206669S11655772EA0161201750000000015000
B0434173206613S11655752EA0161701752000000015000
B0434213206583S11655803EA0162001757000000015000
B0434253206622S11655844EA0162601764000000015000
B0434293206676S11655805EA0163301774000000015000
B0434333206679S11655726EA0164301779000000015000
B0434373206627S11655690EA0164301777000000015000
B0434413206588S11655730EA0164501779000000015000
B0434453206610S11655783EA0164701785000000015000
B0434493206669S11655772EA0165501793000000015000
B0434533206695S11655700EA0166201800000000015000
B0434573206663S11655632EA0166101793000000000000
B0435013206608S11655623EA0166301804000000015000
B0435053206574S11655662EA0167201809000000015000
B0435093206582S11655721EA0166901809000000015000
B0435133206632S11655742EA0167801818000000015000
B0435173206686S11655704EA0168301820000000015000
B0435213206687S11655626EA0168801824000000015000
B0435253206634S11655584EA0168601821000000015000
B0435293206569S11655579EA0167801811000000000000
B0435333206489S11655574EA0165801784000000000000
B0435373206397S11655570EA0162501751000000000000
B0435413206297S11655566EA0160401735000000000000
B0435453206195S11655561EA0159801731000000000000
B0435493206097S11655556EA0160101735000000000000
B0435533206003S11655547EA0159801729000000000000
B0435573205911S11655536EA0159201721000000000000
B0436013205822S11655522EA0158201712000000000000
B0436053205735S11655502EA0157701707000000000000
B0436093205652S11655480EA0157001700000000000000
B0436133205569S11655460EA0156801701000000000000
B0436173205490S11655441EA0157101704000000000000
B0436213205413S11655430EA0157701712000000000000
B0436253205337S11655419EA0158201719000000000000
B0436293205266S11655408EA0159201729000000000000
B0436333205196S11655397EA0159501729000000000000
B0436373205124S11655391EA0159201723000000000000
B0436413205064S11655422EA0160001740000000000000
B0436453205077S11655487EA0161301750000000000000
B0436493205137S11655487EA0162401763000000000000
B0436533205163S11655413EA0162901767000000015000
B0436573205122S11655356EA0163601772000000015000
B0437013205068S11655374EA0163701772000000015000
B0437053205061S11655437EA0163701772000000015000
B0437093205111S11655471EA0164201780000000015000
B0437133205170S11655423EA0164401779000000015000
B0437173205174S11655332EA0164301776000000015000
B0437213205118S11655276EA0164601787000000015000
B0437253205063S11655300EA0166301803000000015000
B0437293205068S11655359EA0166601798000000015000
B0437333205129S11655374EA0166101799000000015000
B0437373205200S11655339EA0166501804000000000000
B0437413205236S11655267EA0167301810000000000000
B0437453205200S11655196EA0166601795000000000000
B0437493205132S11655185EA0165501793000000000000
B0437533205070S11655218EA0166001798000000000000
B0437573205042S11655279EA0166401801000000000000
B0438013205081S11655330EA0166401801000000000000
B0438053205149S11655310EA0166701811000000015000
B0438093205211S11655259EA0167901823000000000000
B0438133205228S11655184EA0169201834000000000000
B0438173205180S11655157EA0169901839000000000000
B0438213205161S11655206EA0170101839000000015000
B0438253205213S11655236EA0170101842000000015000
B0438293205252S11655172EA0170601846000000015000
B0438333205218S11655107EA0170701847000000015000
B0438373205159S11655103EA0171301849000000015000
B0438413205128S11655155EA0171101847000000015000
B0438453205152S11655216EA0171201852000000015000
B0438493205215S11655223EA0172001863000000015000
B0438533205250S11655157EA0172301861000000015000
B0438573205219S11655083EA0171901857000000015000
B0439013205155S11655059EA0172101864000000015000
B0439053205098S11655075EA0172801862000000015000
B0439093205079S11655132EA0172001854000000015000
B0439133205116S11655183EA0171701857000000015000
B0439173205178S11655167EA0172401869000000015000
B0439213205209S11655092EA0172901870000000015000
B0439253205178S11655015EA0173601877000000015000
B0439293205122S11655021EA0174301884000000015000
B0439333205110S11655081EA0173701872000000015000
B0439373205155S11655123EA0173501877000000015000
B0439413205210S11655086EA0174101882000000015000
B0439453205215S11655002EA0173901878000000015000
B0439493205171S11654928EA0173901883000000015000
B0439533205110S11654914EA0174501880000000015000
B0439573205077S11654963EA0173601872000000015000
B0440013205105S11655016EA0172801865000000015000
B0440053205167S11655018EA0172501864000000015000
B0440093205197S11654942EA0172501866000000015000
B0440133205155S11654872EA0172501865000000015000
B0440173205089S11654855EA0172001855000000015000
B0440213205031S11654881EA0171101846000000015000
B0440253205007S11654940EA0170401841000000015000
B0440293205024S11654998EA0169901833000000015000
B0440333205077S11655031EA0168401819000000015000
B0440373205142S11655006EA0167801820000000015000
B0440413205174S11654928EA0167801816000000015000
B0440453205157S11654839EA0167501813000000015000
B0440493205114S11654771EA0167101806000000000000
B0440533205050S11654751EA0166701801000000000000
B0440573204986S11654756EA0165501787000000000000
B0441013204942S11654803EA0164401776000000000000
B0441053204941S11654873EA0163401768000000000000
B0441093204947S11654945EA0163301772000000000000
B0441133204953S11655015EA0163301766000000000000
B0441173204971S11655083EA0162401755000000000000
B0441213205007S11655140EA0161101741000000000000
B0441253205061S11655183EA0160001730000000000000
B0441293205122S11655210EA0158901717000000000000
B0441333205184S11655237EA0158701726000000000000
B0441373205249S11655250EA0160601738000000000000
B0441413205287S11655190EA0162501761000000000000
B0441453205248S11655137EA0163601770000000000000
B0441493205205S11655176EA0165101791000000015000
B0441533205233S11655229EA0166501800000000015000
B0441573205292S11655206EA0167001808000000015000
B0442013205292S11655128EA0168301823000000015000
B0442053205237S11655099EA0169401839000000015000
B0442093205207S11655145EA0171201856000000015000
B0442133205244S11655188EA0172001862000000015000
B0442173205291S11655148EA0172701874000000015000
B0442213205267S11655083EA0173901882000000015000
B0442253205215S11655099EA0174801895000000015000
B0442293205230S11655155EA0175901905000000015000
B0442333205285S11655151EA0176401908000000015000
B0442373205313S11655086EA0176901915000000015000
B0442413205279S11655027EA0177701926000000015000
B0442453205226S11655037EA0178801935000000015000
B0442493205230S11655094EA0179601943000000015000
B0442533205280S11655120EA0180201950000000015000
B0442573205332S11655089EA0181001957000000015000
B0443013205335S11655019EA0181801966000000015000
B0443053205282S11654997EA0182601973000000015000
B0443093205253S11655049EA0183301978000000015000
B0443133205291S11655102EA0183601984000000015000
B0443173205350S11655084EA0184401992000000015000
B0443213205360S11655014EA0185202002000000015000
B0443253205310S11654980EA0185802004000000015000
B0443293205267S11655024EA0186402014000000015000
B0443333205293S11655080EA0187002020000000015000
B0443373205354S11655073EA0187402022000000015000
B0443413205371S11655006EA0187702027000000015000
B0443453205327S11654962EA0188402034000000015000
B0443493205282S11654992EA0189102039000000015000
B0443533205296S11655054EA0189102038000000015000
B0443573205357S11655059EA0189002036000000015000
B0444013205386S11654994EA0189202040000000015000
B0444053205352S11654936EA0189702047000000015000
B0444093205296S11654934EA0190102050000000015000
B0444133205282S11654995EA0190102049000000015000
B0444173205332S11655041EA0189102025000000015000
B0444213205412S11655067EA0186802011000000015000
B0444253205495S11655092EA0185501995000000015000
B0444293205581S11655123EA0184401989000000000000
B0444333205668S11655151EA0183801979000000000000
B0444373205753S11655177EA0182901970000000000000
B0444413205841S11655203EA0182001961000000000000
B0444453205926S11655228EA0181301957000000000000
B0444493206011S11655257EA0180801950000000000000
B0444533206094S11655297EA0179501933000000000000
B0444573206169S11655359EA0177801919000000000000
B0445013206215S11655449EA0177301912000000000000
B0445053206227S11655548EA0176901908000000000000
B0445093206212S11655644EA0176401907000000000000
B0445133206184S11655729EA0176501907000000000000
B0445173206143S11655805EA0175701896000000000000
B0445213206095S11655877EA0174801887000000000000
B0445253206047S11655947EA0173901878000000000000
B0445293205997S11656017EA0172501863000000000000
B0445333205943S11656089EA0171101848000000000000
B0445373205889S11656165EA0170001835000000000000
B0445413205829S11656243EA0168701820000000000000
B0445453205766S11656321EA0168301822000000000000
B0445493205704S11656396EA0168201823000000000000
B0445533205643S11656471EA0168101814000000000000
B0445573205577S11656552EA0166101789000000000000
B0446013205509S11656633EA0164801790000000000000
B0446053205449S11656706EA0166201806000000000000
B0446093205395S11656773EA0166901807000000000000
B0446133205344S11656840EA0166501802000000000000
B0446173205292S11656905EA0165601792000000000000
B0446213205239S11656968EA0165501793000000000000
B0446253205185S11657029EA0165401789000000000000
B0446293205126S11657087EA0165501798000000000000
B0446333205063S11657134EA0166901808000000000000
B0446373205002S11657179EA0167501815000000000000
B0446413204951S11657233EA0168901836000000000000
B0446453204953S11657293EA0171901871000000000000
B0446493205005S11657296EA0173401870000000000000
B0446533205032S11657222EA0172601864000000000000
B0446573204994S11657157EA0172801872000000000000
B0447013204936S11657148EA0173901882000000000000
B0447053204881S11657178EA0173301869000000000000
B0447093204821S11657226EA0171301846000000000000
B0447133204756S11657286EA0169901838000000000000
B0447173204690S11657354EA0168501817000000000000
B0447213204617S11657423EA0166701799000000000000
B0447253204542S11657491EA0164901782000000000000
B0447293204468S11657563EA0164201779000000000000
B0447333204395S11657633EA0163301767000000000000
B0447373204322S11657706EA0162101751000000000000
B0447413204247S11657777EA0160801741000000000000
B0447453204171S11657848EA0160201738000000000000
B0447493204095S11657915EA0159701723000000000000
B0447533204019S11657985EA0158401716000000000000
B0447573203946S11658054EA0157701707000000000000
B0448013203875S11658125EA0157001699000000000000
B0448053203802S11658195EA0156201696000000000000
B0448093203733S11658264EA0156101688000000000000
B0448133203664S11658334EA0154701680000000000000
B0448173203595S11658401EA0153801665000000000000
B0448213203525S11658473EA0152601654000000000000
B0448253203458S11658544EA0152401652000000000000
B0448293203393S11658617EA0151601642000000000000
B0448333203328S11658693EA0150901634000000000000
B0448373203260S11658768EA0149401617000000000000
B0448413203192S11658846EA0148201607000000000000
B0448453203125S11658918EA0148101610000000000000
B0448493203055S11658986EA0147501597000000000000
B0448533202984S11659055EA0147501607000000000000
B0448573202916S11659119EA0147501592000000000000
B0449013202843S11659187EA0145901578000000000000
B0449053202765S11659252EA0144001556000000000000
B0449093202684S11659309EA0143301557000000000000
B0449133202604S11659361EA0142101535000000000000
B0449173202520S11659412EA0140201518000000000000
B0449213202438S11659461EA0139501516000000000000
B0449253202355S11659506EA0138701502000000000000
B0449293202268S11659553EA0136701481000000000000
B0449333202180S11659604EA0136101479000000000000
B0449373202099S11659649EA0138901521000000000000
B0449413202024S11659687EA0141001539000000000000
B0449453201951S11659724EA0141401523000000000000
B0449493201876S11659768EA0139601510000000000000
B0449533201798S11659813EA0139201513000000000000
B0449573201723S11659855EA0139301512000000000000
B0450013201652S11659894EA0139601519000000000000
B0450053201583S11659929EA0140601527000000000000
B0450093201538S11659989EA0141501539000000000000
B0450133201513S11700063EA0142101548000000000000
B0450173201522S11700128EA0144401575000000000000
B0450213201587S11700132EA0145601579000000015000
B0450253201608S11700058EA0145801580000000015000
B0450293201557S11700017EA0145301567000000015000
B0450333201508S11700059EA0144401567000000015000
B0450373201488S11700132EA0145001577000000015000
B0450413201540S11700172EA0146101583000000015000
B0450453201582S11700110EA0146601589000000015000
B0450493201544S11700056EA0146901598000000015000
B0450533201487S11700055EA0147701602000000015000
B0450573201443S11700104EA0147001582000000015000
B0451013201401S11700184EA0143701556000000015000
B0451053201357S11700275EA0142401541000000000000
B0451093201311S11700367EA0141601540000000000000
B0451133201267S11700455EA0141401534000000000000
B0451173201220S11700544EA0140701530000000000000
B0451213201172S11700631EA0140401525000000000000
B0451253201125S11700717EA0139801520000000000000
B0451293201077S11700799EA0140101528000000000000
B0451333201029S11700879EA0140701536000000000000
B0451373200982S11700955EA0142401555000000000000
B0451413200941S11701031EA0142801544000000000000
B0451453200897S11701117EA0140801519000000000000
B0451493200847S11701207EA0138201492000000000000
B0451533200794S11701294EA0136901488000000000000
B0451573200739S11701378EA0135601468000000000000
B0452013200686S11701467EA0134101456000000000000
B0452053200634S11701554EA0133701450000000000000
B0452093200587S11701641EA0133201451000000000000
B0452133200542S11701727EA0132701438000000000000
B0452173200498S11701817EA0131401427000000000000
B0452213200452S11701905EA0130501418000000000000
B0452253200409S11701993EA0129201405000000000000
B0452293200364S11702083EA0128301394000000000000
B0452333200317S11702171EA0127601390000000000000
B0452373200273S11702253EA0127601387000000000000
B0452413200227S11702333EA0126701379000000000000
B0452453200182S11702411EA0126601381000000000000
B0452493200144S11702485EA0127001387000000000000
B0452533200106S11702554EA0127001384000000000000
B0452573200066S11702616EA0126901384000000000000
B0453013200020S11702667EA0127601393000000000000
B0453053159971S11702708EA0128301399000000000000
B0453093159918S11702743EA0128601402000000000000
B0453133159859S11702768EA0129001407000000000000
B0453173159799S11702792EA0129001406000000000000
B0453213159734S11702808EA0128901405000000000000
B0453253159668S11702825EA0128601396000000000000
B0453293159599S11702846EA0127001376000000000000
B0453333159529S11702883EA0125501367000000000000
B0453373159458S11702919EA0125501368000000000000
B0453413159389S11702961EA0124601352000000000000
B0453453159316S11703005EA0122501332000000000000
B0453493159243S11703053EA0120901316000000000000
B0453533159170S11703102EA0119501301000000000000
B0453573159095S11703152EA0118301285000000000000
B0454013159021S11703201EA0117101275000000000000
B0454053158948S11703247EA0116401270000000000000
B0454093158874S11703291EA0115501260000000000000
B0454133158802S11703335EA0114901253000000000000
B0454173158731S11703378EA0113901242000000000000
B0454213158657S11703413EA0112901231000000000000
B0454253158583S11703442EA0112601230000000000000
B0454293158511S11703473EA0112001225000000000000
B0454333158441S11703499EA0112101232000000000000
B0454373158373S11703517EA0113201237000000000000
B0454413158308S11703544EA0112801232000000000000
B0454453158250S11703583EA0112701233000000000000
B0454493158204S11703639EA0113201242000000000000
B0454533158159S11703690EA0114801262000000000000
B0454573158165S11703752EA0116301270000000000000
B0455013158229S11703737EA0116301265000000015000
B0455053158246S11703652EA0115701267000000015000
B0455093158200S11703592EA0117201288000000015000
B0455133158167S11703640EA0119301311000000015000
B0455173158212S11703676EA0120501315000000015000
B0455213158255S11703618EA0120801320000000015000
B0455253158228S11703551EA0121901341000000015000
B0455293158173S11703547EA0123501350000000015000
B0455333158169S11703609EA0123701350000000015000
B0455373158230S11703637EA0124001356000000015000
B0455413158285S11703591EA0125001366000000015000
B0455453158265S11703517EA0125801379000000015000
B0455493158211S11703531EA0127701395000000015000
B0455533158221S11703592EA0128601405000000015000
B0455573158280S11703583EA0129301412000000015000
B0456013158285S11703504EA0129801417000000015000
B0456053158229S11703464EA0130501430000000015000
B0456093158187S11703505EA0131701441000000015000
B0456133158207S11703568EA0132401442000000015000
B0456173158269S11703591EA0132401444000000015000
B0456213158324S11703540EA0132601446000000015000
B0456253158321S11703452EA0133201458000000015000
B0456293158265S11703426EA0134601470000000015000
B0456333158268S11703483EA0135901481000000015000
B0456373158325S11703471EA0136701490000000015000
B0456413158329S11703395EA0137501497000000015000
B0456453158277S11703362EA0137801498000000015000
B0456493158238S11703408EA0138001503000000015000
B0456533158269S11703466EA0138901511000000015000
B0456573158330S11703458EA0139401518000000015000
B0457013158342S11703387EA0140701532000000015000
B0457053158294S11703347EA0141001528000000015000
B0457093158236S11703378EA0139801517000000015000
B0457133158180S11703432EA0138101497000000000000
B0457173158116S11703499EA0136101479000000000000
B0457213158050S11703569EA0134401456000000000000
B0457253157977S11703644EA0132201427000000000000
B0457293157903S11703722EA0130601422000000000000
B0457333157830S11703799EA0129801408000000000000
B0457373157756S11703873EA0128501395000000000000
B0457413157684S11703943EA0127501389000000000000
B0457453157612S11704014EA0126401375000000000000
B0457493157540S11704081EA0125301366000000000000
B0457533157469S11704147EA0124701358000000000000
B0457573157401S11704214EA0123801354000000000000
B0458013157333S11704276EA0123501345000000000000
B0458053157268S11704339EA0122301332000000000000
B0458093157199S11704401EA0120901313000000000000
B0458133157127S11704461EA0119801309000000000000
B0458173157059S11704514EA0121101331000000000000
B0458213156999S11704561EA0122601341000000000000
B0458253156936S11704602EA0122501336000000000000
B0458293156869S11704640EA0122601340000000000000
B0458333156809S11704673EA0124001359000000000000
B0458373156756S11704706EA0126001377000000000000
B0458413156767S11704761EA0127301389000000000000
B0458453156821S11704722EA0127601392000000015000
B0458493156791S11704651EA0128801404000000015000
B0458533156735S11704665EA0129701420000000015000
B0458573156739S11704726EA0131001434000000015000
B0459013156796S11704730EA0132601455000000015000
B0459053156817S11704662EA0134401473000000015000
B0459093156782S11704606EA0135601479000000015000
B0459133156730S11704618EA0136301488000000015000
B0459173156725S11704679EA0137101499000000015000
B0459213156777S11704708EA0138501516000000015000
B0459253156824S11704660EA0140001525000000015000
B0459293156817S11704584EA0141001543000000015000
B0459333156767S11704550EA0142601555000000015000
B0459373156728S11704584EA0143901569000000015000
B0459413156750S11704638EA0145101585000000015000
B0459453156803S11704614EA0146901600000000015000
B0459493156808S11704541EA0148201613000000015000
B0459533156759S11704508EA0149201627000000015000
B0459573156729S11704552EA0150401640000000015000
B0500013156765S11704593EA0152001655000000015000
B0500053156816S11704554EA0153201668000000015000
B0500093156813S11704480EA0154601680000000015000
B0500133156760S11704453EA0155701692000000015000
B0500173156718S11704491EA0156401693000000015000
B0500213156735S11704553EA0156701704000000015000
B0500253156793S11704554EA0158801732000000015000
B0500293156828S11704498EA0160801742000000015000
B0500333156807S11704430EA0161201746000000015000
B0500373156751S11704423EA0161901753000000015000
B0500413156724S11704480EA0162901765000000015000
B0500453156763S11704528EA0164001777000000015000
B0500493156815S11704484EA0165201792000000015000
B0500533156799S11704414EA0167301815000000015000
B0500573156744S11704410EA0168901829000000015000
B0501013156724S11704465EA0169901838000000015000
B0501053156764S11704511EA0170301848000000015000
B0501093156825S11704479EA0171801866000000015000
B0501133156826S11704405EA0173701883000000015000
B0501173156772S11704385EA0175001896000000015000
B0501213156746S11704439EA0176301906000000015000
B0501253156783S11704491EA0177401924000000015000
B0501293156841S11704454EA0179201941000000015000
B0501333156838S11704380EA0180601956000000015000
B0501373156783S11704366EA0181701963000000015000
B0501413156748S11704420EA0182401971000000015000
B0501453156776S11704479EA0183901988000000015000
B0501493156839S11704453EA0185101996000000015000
B0501533156847S11704371EA0185702005000000015000
B0501573156790S11704348EA0186702023000000015000
B0502013156759S11704397EA0188202032000000015000
B0502053156793S11704449EA0189202047000000015000
B0502093156854S11704432EA0190402054000000015000
B0502133156881S11704354EA0190502053000000015000
B0502173156850S11704285EA0191402069000000015000
B0502213156798S11704303EA0192802081000000015000
B0502253156804S11704367EA0193602089000000015000
B0502293156864S11704388EA0194802102000000015000
B0502333156919S11704340EA0195202103000000015000
B0502373156928S11704255EA0195802114000000015000
B0502413156884S11704209EA0196902121000000015000
B0502453156851S11704251EA0197902133000000015000
B0502493156899S11704288EA0198202130000000015000
B0502533156959S11704238EA0198402138000000015000
B0502573156949S11704159EA0199202145000000015000
B0503013156889S11704137EA0199002135000000015000
B0503053156825S11704185EA0196302104000000000000
B0503093156761S11704263EA0194602088000000000000
B0503133156696S11704352EA0193502089000000000000
B0503173156630S11704440EA0193702084000000000000
B0503213156568S11704522EA0194202101000000000000
B0503253156509S11704597EA0195702111000000000000
B0503293156453S11704667EA0196502122000000000000
B0503333156396S11704736EA0196502113000000000000
B0503373156335S11704812EA0195002099000000000000
B0503413156271S11704885EA0194402096000000000000
B0503453156209S11704952EA0194002084000000000000
B0503493156144S11705028EA0192602075000000000000
B0503533156076S11705102EA0192102069000000000000
B0503573156006S11705181EA0191502073000000000000
B0504013155940S11705259EA0192102071000000000000
B0504053155873S11705337EA0190502049000000000000
B0504093155805S11705418EA0189202038000000000000
B0504133155737S11705502EA0187802022000000000000
B0504173155667S11705585EA0186702012000000000000
B0504213155595S11705667EA0186202010000000000000
B0504253155528S11705745EA0186502012000000000000
B0504293155460S11705822EA0185902000000000000000
B0504333155392S11705900EA0185001995000000000000
B0504373155327S11705978EA0184501991000000000000
B0504413155265S11706055EA0183501977000000000000
B0504453155203S11706131EA0182601971000000000000
B0504493155143S11706204EA0181901962000000000000
B0504533155084S11706282EA0180001940000000000000
B0504573155031S11706369EA0179301936000000000000
B0505013154980S11706456EA0178701927000000000000
B0505053154930S11706546EA0177701915000000000000
B0505093154882S11706641EA0176201901000000000000
B0505133154832S11706734EA0175801900000000000000
B0505173154781S11706828EA0174901889000000000000
B0505213154729S11706922EA0174101882000000000000
B0505253154680S11707014EA0173401876000000000000
B0505293154633S11707106EA0172901867000000000000
B0505333154585S11707200EA0172101858000000000000
B0505373154538S11707288EA0171701857000000000000
B0505413154495S11707373EA0170701840000000000000
B0505453154450S11707461EA0169201829000000000000
B0505493154408S11707550EA0168601819000000000000
B0505533154364S11707638EA0167401810000000000000
B0505573154320S11707725EA0167001805000000000000
B0506013154277S11707810EA0165901788000000000000
B0506053154230S11707897EA0164001765000000000000
B0506093154186S11707986EA0162801769000000000000
B0506133154147S11708071EA0163401769000000000000
B0506173154111S11708155EA0164001782000000000000
B0506213154074S11708231EA0165301789000000000000
B0506253154035S11708307EA0164401774000000000000
B0506293153999S11708392EA0163001761000000000000
B0506333153957S11708482EA0161101740000000000000
B0506373153910S11708573EA0160801748000000000000
B0506413153861S11708664EA0161501753000000000000
B0506453153810S11708753EA0161701746000000000000
B0506493153753S11708844EA0161201747000000000000
B0506533153702S11708931EA0161901758000000000000
B0506573153656S11709016EA0162001750000000000000
B0507013153608S11709104EA0160501728000000000000
B0507053153558S11709195EA0159001723000000000000
B0507093153511S11709279EA0159401730000000000000
B0507133153465S11709357EA0159201712000000000000
B0507173153418S11709445EA0156401682000000000000
B0507213153370S11709539EA0154401664000000000000
B0507253153320S11709635EA0152901648000000000000
B0507293153264S11709726EA0151901646000000000000
B0507333153206S11709809EA0151701645000000000000
B0507373153150S11709886EA0152001643000000000000
B0507413153090S11709964EA0150401614000000000000
B0507453153026S11710043EA0148501609000000000000
B0507493152968S11710122EA0148601613000000000000
B0507533152911S11710200EA0147801598000000000000
B0507573152852S11710282EA0146001577000000000000
B0508013152791S11710365EA0144401562000000000000
B0508053152734S11710447EA0143701559000000000000
B0508093152678S11710528EA0142701537000000000000
B0508133152623S11710616EA0140701520000000000000
B0508173152568S11710705EA0139301508000000000000
B0508213152508S11710792EA0138001493000000000000
B0508253152449S11710879EA0136901484000000000000
B0508293152395S11710969EA0136101487000000000000
B0508333152345S11711050EA0137001493000000000000
B0508373152300S11711128EA0137101491000000000000
B0508413152256S11711205EA0136701488000000000000
B0508453152213S11711281EA0136101479000000000000
B0508493152167S11711356EA0135201469000000000000
B0508533152123S11711434EA0134001451000000000000
B0508573152077S11711512EA0133001452000000000000
B0509013152033S11711586EA0132501438000000000000
B0509053151990S11711663EA0131101422000000000000
B0509093151942S11711738EA0131301437000000000000
B0509133151894S11711806EA0132601446000000000000
B0509173151846S11711869EA0133001450000000000000
B0509213151802S11711933EA0133201448000000000000
B0509253151754S11711993EA0133101450000000000000
B0509293151707S11712057EA0133001447000000000000
B0509333151660S11712122EA0133001449000000000000
B0509373151615S11712187EA0132901439000000000000
B0509413151568S11712257EA0131401424000000000000
B0509453151522S11712323EA0132201445000000000000
B0509493151482S11712383EA0133601454000000000000
B0509533151443S11712441EA0134701472000000000000
B0509573151407S11712495EA0136401485000000000000
B0510013151405S11712555EA0136901490000000000000
B0510053151461S11712566EA0137501495000000000000
B0510093151509S11712499EA0137301488000000000000
B0510133151500S11712409EA0137001491000000000000
B0510173151447S11712345EA0137501497000000000000
B0510213151385S11712321EA0138801514000000000000
B0510253151379S11712370EA0140701529000000015000
B0510293151433S11712367EA0141101536000000015000
B0510333151456S11712295EA0141501536000000015000
B0510373151424S11712228EA0141801541000000015000
B0510413151366S11712209EA0142701559000000015000
B0510453151348S11712256EA0144401570000000015000
B0510493151403S11712266EA0145201580000000015000
B0510533151439S11712198EA0145401574000000015000
B0510573151420S11712111EA0145201584000000015000
B0511013151368S11712107EA0147401610000000015000
B0511053151383S11712155EA0149301627000000015000
B0511093151440S11712123EA0150701639000000015000
B0511133151450S11712038EA0151601649000000015000
B0511173151401S11711994EA0153101662000000015000
B0511213151364S11712029EA0153901670000000015000
B0511253151399S11712079EA0154801680000000015000
B0511293151461S11712041EA0156101694000000015000
B0511333151469S11711953EA0157201710000000015000
B0511373151420S11711906EA0158801723000000015000
B0511413151372S11711925EA0159301725000000015000
B0511453151372S11711988EA0159601730000000015000
B0511493151431S11711999EA0161101752000000015000
B0511533151461S11711925EA0162801766000000015000
B0511573151424S11711867EA0163501771000000015000
B0512013151377S11711890EA0163801769000000015000
B0512053151383S11711958EA0163701772000000015000
B0512093151447S11711968EA0165201797000000015000
B0512133151468S11711889EA0166901811000000015000
B0512173151421S11711843EA0167901816000000015000
B0512213151382S11711879EA0167901814000000015000
B0512253151398S11711944EA0168301825000000015000
B0512293151459S11711962EA0169801840000000015000
B0512333151504S11711901EA0171001846000000015000
B0512373151499S11711812EA0171401854000000015000
B0512413151461S11711742EA0172401862000000015000
B0512453151405S11711742EA0173101867000000015000
B0512493151390S11711801EA0173001867000000015000
B0512533151439S11711836EA0174301887000000015000
B0512573151486S11711772EA0175701899000000015000
B0513013151466S11711693EA0176401910000000015000
B0513053151411S11711685EA0177001912000000015000
B0513093151372S11711733EA0176801907000000015000
B0513133151347S11711807EA0176001900000000015000
B0513173151321S11711889EA0176501914000000015000
B0513213151295S11711972EA0176901909000000000000
B0513253151265S11712053EA0176901921000000000000
B0513293151235S11712127EA0177601918000000000000
B0513333151203S11712209EA0176201899000000015000
B0513373151166S11712298EA0174201878000000000000
B0513413151126S11712393EA0172501861000000000000
B0513453151079S11712490EA0171301850000000000000
B0513493151024S11712579EA0171201852000000000000
B0513533150959S11712655EA0171101848000000000000
B0513573150885S11712721EA0170301839000000000000
B0514013150809S11712785EA0169101826000000000000
B0514053150731S11712848EA0168201819000000000000
B0514093150651S11712912EA0167601813000000000000
B0514133150575S11712976EA0167401809000000000000
B0514173150495S11713038EA0166901802000000000000
B0514213150416S11713098EA0166201795000000000000
B0514253150339S11713159EA0165201781000000000000
B0514293150265S11713223EA0164301777000000000000
B0514333150194S11713289EA0163301761000000000000
B0514373150124S11713362EA0161201739000000000000
B0514413150049S11713432EA0159701725000000000000
B0514453149971S11713498EA0158401718000000000000
B0514493149893S11713559EA0158201715000000000000
B0514533149815S11713619EA0157601711000000000000
B0514573149740S11713675EA0157401702000000000000
B0515013149663S11713728EA0156701692000000000000
B0515053149584S11713779EA0155101675000000000000
B0515093149507S11713834EA0154001663000000000000
B0515133149427S11713888EA0153001660000000000000
B0515173149350S11713942EA0153901681000000000000
B0515213149281S11713986EA0156201698000000000000
B0515253149214S11714027EA0155901682000000000000
B0515293149142S11714078EA0153501656000000000000
B0515333149064S11714133EA0152001642000000000000
B0515373148983S11714186EA0150601632000000000000
B0515413148904S11714234EA0151101640000000000000
B0515453148829S11714282EA0151001627000000000000
B0515493148752S11714334EA0149601622000000000000
B0515533148683S11714386EA0150401637000000000000
B0515573148617S11714433EA0151201639000000000000
B0516013148551S11714482EA0151701648000000000000
B0516053148489S11714528EA0153601670000000000000
B0516093148439S11714576EA0156201695000000000000
B0516133148469S11714633EA0158201719000000000000
B0516173148518S11714588EA0160801748000000015000
B0516213148493S11714523EA0162401763000000015000
B0516253148440S11714527EA0164301782000000015000
B0516293148435S11714585EA0165501791000000015000
B0516333148493S11714599EA0167001813000000015000
B0516373148517S11714529EA0168801832000000015000
B0516413148470S11714489EA0170401853000000015000
B0516453148421S11714514EA0172001862000000015000
B0516493148417S11714579EA0172801873000000015000
B0516533148467S11714610EA0174401896000000015000
B0516573148512S11714554EA0176601914000000015000
B0517013148489S11714481EA0177601923000000015000
B0517053148427S11714489EA0178801938000000015000
B0517093148400S11714553EA0180401953000000015000
B0517133148434S11714607EA0182101974000000015000
B0517173148492S11714589EA0184301995000000015000
B0517213148508S11714511EA0185902006000000015000
B0517253148460S11714463EA0186802014000000015000
B0517293148419S11714506EA0188202032000000015000
B0517333148448S11714555EA0189602046000000015000
B0517373148506S11714524EA0190602061000000015000
B0517413148515S11714449EA0192502084000000015000
B0517453148473S11714404EA0193602083000000015000
B0517493148419S11714436EA0193802093000000015000
B0517533148421S11714498EA0195502114000000015000
B0517573148473S11714506EA0197702131000000015000
B0518013148508S11714443EA0198702138000000015000
B0518053148483S11714375EA0199602153000000015000
B0518093148427S11714364EA0201102165000000015000
B0518133148400S11714414EA0201802171000000015000
B0518173148435S11714459EA0202802183000000015000
B0518213148493S11714445EA0204002193000000015000
B0518253148505S11714371EA0204702199000000015000
B0518293148452S11714333EA0205102204000000015000
B0518333148401S11714367EA0205502208000000015000
B0518373148383S11714438EA0205402201000000015000
B0518413148376S11714528EA0203702179000000015000
B0518453148370S11714636EA0201602156000000000000
B0518493148363S11714749EA0199502134000000000000
B0518533148356S11714863EA0197902128000000000000
B0518573148345S11714976EA0198102134000000000000
B0519013148337S11715083EA0198402135000000000000
B0519053148330S11715186EA0198102128000000000000
B0519093148318S11715286EA0197402124000000000000
B0519133148298S11715376EA0198102132000000000000
B0519173148285S11715459EA0198702139000000000000
B0519213148276S11715542EA0199002139000000000000
B0519253148267S11715628EA0198202126000000000000
B0519293148257S11715716EA0197002114000000000000
B0519333148249S11715807EA0195802104000000000000
B0519373148245S11715899EA0195402105000000000000
B0519413148246S11715988EA0195802111000000000000
B0519453148249S11716072EA0196102109000000000000
B0519493148250S11716158EA0195602104000000000000
B0519533148250S11716244EA0195302100000000000000
B0519573148253S11716328EA0194702093000000000000
B0520013148257S11716417EA0193702082000000000000
B0520053148258S11716507EA0193002075000000000000
B0520093148259S11716596EA0192502071000000000000
B0520133148262S11716683EA0191902064000000000000
B0520173148266S11716768EA0191702065000000000000
B0520213148270S11716848EA0192202070000000000000
B0520253148274S11716925EA0191902065000000000000
B0520293148279S11717003EA0192302075000000000000
B0520333148283S11717084EA0193002077000000000000
B0520373148284S11717164EA0192302064000000000000
B0520413148287S11717250EA0191402063000000000000
B0520453148292S11717335EA0191402056000000000000
B0520493148294S11717422EA0190502049000000000000
B0520533148297S11717506EA0190902057000000000000
B0520573148301S11717586EA0191402061000000000000
B0521013148300S11717661EA0191102052000000000000
B0521053148301S11717743EA0189602041000000000000
B0521093148302S11717825EA0190402053000000000000
B0521133148297S11717895EA0192102071000000000000
B0521173148289S11717957EA0192702073000000000000
B0521213148276S11718022EA0192002055000000000000
B0521253148257S11718100EA0189302024000000000000
B0521293148235S11718189EA0186702002000000000000
B0521333148211S11718284EA0185101991000000000000
B0521373148187S11718379EA0184701989000000000000
B0521413148162S11718470EA0184501988000000000000
B0521453148136S11718554EA0184301986000000000000
B0521493148114S11718637EA0183501975000000000000
B0521533148093S11718720EA0182701969000000000000
B0521573148075S11718798EA0182601969000000000000
B0522013148059S11718873EA0181401949000000000000
B0522053148045S11718957EA0179801932000000000000
B0522093148027S11719045EA0178701923000000000000
B0522133148007S11719135EA0178101922000000000000
B0522173147986S11719225EA0177701907000000000000
B0522213147964S11719320EA0176001891000000000000
B0522253147940S11719415EA0174901879000000000000
B0522293147916S11719510EA0173701871000000000000
B0522333147891S11719598EA0173101862000000000000
B0522373147868S11719685EA0172901870000000000000
B0522413147845S11719775EA0173201867000000000000
B0522453147825S11719862EA0175001906000000000000
B0522493147807S11719942EA0177501917000000000000
B0522533147789S11720026EA0177201906000000000000
B0522573147767S11720118EA0176001890000000000000
B0523013147741S11720217EA0174201872000000000000
B0523053147713S11720321EA0172501852000000000000
B0523093147686S11720426EA0171301855000000000000
B0523133147661S11720524EA0172401864000000000000
B0523173147642S11720615EA0172901867000000000000
B0523213147620S11720706EA0172001847000000000000
B0523253147595S11720804EA0170501851000000000000
B0523293147572S11720894EA0172301864000000000000
B0523333147546S11720984EA0171901853000000000000
B0523373147516S11721072EA0171301845000000000000
B0523413147482S11721166EA0169401819000000000000
B0523453147447S11721266EA0167501807000000000000
B0523493147414S11721363EA0166901792000000000000
B0523533147386S11721466EA0164501774000000000000
B0523573147356S11721567EA0164501787000000000000
B0524013147330S11721657EA0166401812000000000000
B0524053147306S11721742EA0167701812000000000000
B0524093147283S11721833EA0166701803000000000000
B0524133147262S11721924EA0167001814000000000000
B0524173147244S11722006EA0169101839000000000000
B0524213147217S11722077EA0171201850000000000000
B0524253147188S11722149EA0170701835000000000000
B0524293147161S11722223EA0170201840000000000000
B0524333147137S11722295EA0171301857000000000000
B0524373147104S11722359EA0172901874000000000000
B0524413147069S11722418EA0173901879000000000000
B0524453147037S11722483EA0173801880000000000000
B0524493146998S11722545EA0174601894000000000000
B0524533146948S11722592EA0176401911000000000000
B0524573146901S11722639EA0177601918000000000000
B0525013146879S11722708EA0176701896000000000000
B0525053146858S11722793EA0173901861000000000000
B0525093146835S11722891EA0171001839000000000000
B0525133146811S11722988EA0169501826000000000000
B0525173146784S11723085EA0169001828000000000000
B0525213146755S11723176EA0169701834000000000000
B0525253146721S11723268EA0169901837000000000000
B0525293146686S11723352EA0171801867000000000000
B0525333146654S11723420EA0174401890000000000000
B0525373146624S11723489EA0174101867000000000000
B0525413146588S11723572EA0171301838000000000000
B0525453146546S11723666EA0168901817000000000000
B0525493146506S11723766EA0167601808000000000000
B0525533146467S11723863EA0166701797000000000000
B0525573146430S11723962EA0165601784000000000000
B0526013146391S11724060EA0164301774000000000000
B0526053146354S11724154EA0163701770000000000000
B0526093146317S11724248EA0162701758000000000000
B0526133146282S11724340EA0162201753000000000000
B0526173146251S11724434EA0161601748000000000000
B0526213146221S11724528EA0160701736000000000000
B0526253146191S11724622EA0159501723000000000000
B0526293146161S11724719EA0158601716000000000000
B0526333146134S11724812EA0158201713000000000000
B0526373146107S11724901EA0157901708000000000000
B0526413146079S11724985EA0156801693000000000000
B0526453146052S11725072EA0155501679000000000000
B0526493146022S11725161EA0154401671000000000000
B0526533145995S11725248EA0154501675000000000000
B0526573145971S11725337EA0153901665000000000000
B0527013145948S11725426EA0153201658000000000000
B0527053145927S11725510EA0152601651000000000000
B0527093145904S11725596EA0151401639000000000000
B0527133145879S11725686EA0150201622000000000000
B0527173145849S11725777EA0149101617000000000000
B0527213145818S11725863EA0149701628000000000000
B0527253145788S11725945EA0149601619000000000000
B0527293145762S11726036EA0148601610000000000000
B0527333145741S11726128EA0149201626000000000000
B0527373145723S11726214EA0151101647000000000000
B0527413145744S11726279EA0153901677000000000000
B0527453145793S11726238EA0156801704000000000000
B0527493145769S11726169EA0157701709000000000000
B0527533145706S11726160EA0158401716000000000000
B0527573145670S11726201EA0159401727000000015000
B0528013145676S11726250EA0160901732000000015000
B0528053145718S11726281EA0161401733000000015000
B0528093145772S11726246EA0161901743000000015000
B0528133145778S11726171EA0163301762000000015000
B0528173145722S11726142EA0163201752000000015000
B0528213145672S11726189EA0162401752000000015000
B0528253145641S11726259EA0162501750000000015000
B0528293145615S11726341EA0161101733000000015000
B0528333145593S11726436EA0158801707000000015000
B0528373145575S11726536EA0157401699000000000000
B0528413145555S11726635EA0157001695000000000000
B0528453145537S11726732EA0156201684000000000000
B0528493145516S11726829EA0154701670000000000000
B0528533145498S11726920EA0155001682000000000000
B0528573145479S11727005EA0155701683000000000000
B0529013145457S11727089EA0155401680000000000000
B0529053145433S11727168EA0155701690000000000000
B0529093145408S11727241EA0156901700000000000000
B0529133145382S11727310EA0157501702000000000000
B0529173145364S11727381EA0157301704000000000000
B0529213145346S11727449EA0157901710000000000000
B0529253145325S11727514EA0158101707000000000000
B0529293145312S11727584EA0157301700000000000000
B0529333145299S11727661EA0157001699000000000000
B0529373145286S11727735EA0156701689000000000000
B0529413145269S11727819EA0154301660000000000000
B0529453145250S11727915EA0153201665000000000000
B0529493145228S11728005EA0154901683000000000000
B0529533145206S11728091EA0155501676000000000000
B0529573145185S11728182EA0154401667000000000000
B0530013145167S11728277EA0152901646000000000000
B0530053145141S11728373EA0151501636000000000000
B0530093145111S11728469EA0150101621000000000000
B0530133145078S11728568EA0148101597000000000000
B0530173145044S11728668EA0146401583000000000000
B0530213145011S11728768EA0145401568000000000000
B0530253144976S11728868EA0144101555000000000000
B0530293144939S11728967EA0142801542000000000000
B0530333144904S11729068EA0141301528000000000000
B0530373144869S11729169EA0140201515000000000000
B0530413144836S11729269EA0139501513000000000000
B0530453144808S11729366EA0139001509000000000000
B0530493144782S11729461EA0139201511000000000000
B0530533144760S11729552EA0139201510000000000000
B0530573144739S11729644EA0138501498000000000000
B0531013144717S11729741EA0137301486000000000000
B0531053144695S11729835EA0136401480000000000000
B0531093144674S11729928EA0136201477000000000000
B0531133144652S11730017EA0135401471000000000000
B0531173144632S11730101EA0135801478000000000000
B0531213144614S11730179EA0135701468000000000000
B0531253144593S11730259EA0135101467000000000000
B0531293144575S11730336EA0135501474000000000000
B0531333144557S11730409EA0135901473000000000000
B0531373144536S11730484EA0135601473000000000000
B0531413144518S11730556EA0136501490000000000000
B0531453144502S11730623EA0137801500000000000000
B0531493144485S11730688EA0138501507000000000000
B0531533144466S11730751EA0139401516000000000000
B0531573144441S11730809EA0140401532000000000000
B0532013144418S11730865EA0142201548000000000000
B0532053144449S11730901EA0143701562000000000000
B0532093144484S11730844EA0144801572000000000000
B0532133144458S11730768EA0145201573000000000000
B0532173144396S11730739EA0145801587000000000000
B0532213144374S11730787EA0147001602000000015000
B0532253144415S11730808EA0148801623000000015000
B0532293144440S11730743EA0150201633000000030000
B0532333144393S11730683EA0150701639000000015000
B0532373144342S11730708EA0151601647000000015000
B0532413144348S11730764EA0151601643000000015000
B0532453144401S11730784EA0152201657000000015000
B0532493144443S11730732EA0154101675000000030000
B0532533144428S11730657EA0154701677000000030000
B0532573144367S11730621EA0155301687000000015000
B0533013144316S11730640EA0156401694000000015000
B0533053144306S11730692EA0156401691000000015000
B0533093144345S11730730EA0156201691000000015000
B0533133144404S11730717EA0156501702000000015000
B0533173144437S11730656EA0157901714000000015000
B0533213144410S11730583EA0158001710000000015000
B0533253144345S11730562EA0158001713000000015000
B0533293144301S11730597EA0158901725000000015000
B0533333144296S11730653EA0159401726000000015000
B0533373144319S11730710EA0158901719000000015000
B0533413144354S11730774EA0157401701000000015000
B0533453144394S11730847EA0155901687000000000000
B0533493144437S11730921EA0155601686000000000000
B0533533144479S11730998EA0155301682000000000000
B0533573144515S11731077EA0155101682000000000000
B0534013144549S11731159EA0154401673000000000000
B0534053144582S11731242EA0154201670000000000000
B0534093144615S11731324EA0153301658000000000000
B0534133144651S11731410EA0151501638000000000000
B0534173144687S11731498EA0149901623000000000000
B0534213144725S11731589EA0148401606000000000000
B0534253144762S11731683EA0146601589000000000000
B0534293144800S11731780EA0145401571000000000000
B0534333144839S11731880EA0143601552000000000000
B0534373144879S11731982EA0142401546000000000000
B0534413144918S11732079EA0141701536000000000000
B0534453144957S11732175EA0141101536000000000000
B0534493144992S11732265EA0141801544000000000000
B0534533145024S11732350EA0141801541000000000000
B0534573145051S11732428EA0142501555000000000000
B0535013145076S11732494EA0144401575000000000000
B0535053145099S11732552EA0145601585000000000000
B0535093145121S11732612EA0145901587000000000000
B0535133145142S11732673EA0146301592000000000000
B0535173145172S11732729EA0146901599000000000000
B0535213145228S11732716EA0148001611000000000000
B0535253145232S11732637EA0148801617000000000000
B0535293145176S11732595EA0149001618000000000000
B0535333145119S11732614EA0149301620000000000000
B0535373145086S11732669EA0149401622000000000000
B0535413145093S11732733EA0149901631000000015000
B0535453145147S11732749EA0151401644000000015000
B0535493145184S11732682EA0152501660000000015000
B0535533145150S11732617EA0153701668000000015000
B0535573145091S11732620EA0154101670000000015000
B0536013145073S11732673EA0154301671000000015000
B0536053145124S11732701EA0154601678000000030000
B0536093145167S11732640EA0155501685000000030000
B0536133145141S11732562EA0156101687000000030000
B0536173145078S11732567EA0156501692000000015000
B0536213145060S11732625EA0156901695000000015000
B0536253145111S11732654EA0157601709000000030000
B0536293145152S11732601EA0159001720000000030000
B0536333145120S11732529EA0158901717000000030000
B0536373145057S11732537EA0159301728000000030000
B0536413145043S11732591EA0160501737000000030000
B0536453145089S11732612EA0161601746000000030000
B0536493145122S11732549EA0162001750000000030000
B0536533145087S11732487EA0162701761000000030000
B0536573145038S11732506EA0163201765000000030000
B0537013145037S11732564EA0163401768000000030000
B0537053145081S11732598EA0164401778000000030000
B0537093145133S11732565EA0165401789000000030000
B0537133145133S11732491EA0165801788000000030000
B0537173145077S11732459EA0165901795000000030000
B0537213145026S11732485EA0166401798000000030000
B0537253145003S11732549EA0165801790000000015000
B0537293144983S11732627EA0165201785000000015000
B0537333144969S11732710EA0165501789000000015000
B0537373144955S11732799EA0164701774000000015000
B0537413144938S11732900EA0163201760000000015000
B0537453144917S11733001EA0162101750000000015000
B0537493144898S11733100EA0161501748000000000000
B0537533144878S11733195EA0161301746000000000000
B0537573144857S11733287EA0160901741000000000000
B0538013144835S11733381EA0159901727000000000000
B0538053144816S11733477EA0158201709000000000000
B0538093144790S11733574EA0157301701000000000000
B0538133144760S11733670EA0156501693000000000000
B0538173144729S11733767EA0155901687000000000000
B0538213144697S11733860EA0155301679000000000000
B0538253144665S11733954EA0154601673000000000000
B0538293144631S11734047EA0154101668000000000000
B0538333144597S11734141EA0153601664000000000000
B0538373144563S11734232EA0153301660000000000000
B0538413144530S11734322EA0152501652000000000000
B0538453144497S11734414EA0151701640000000000000
B0538493144467S11734505EA0151601647000000000000
B0538533144445S11734591EA0152801663000000000000
B0538573144441S11734673EA0154401678000000000000
B0539013144448S11734747EA0155201681000000000000
B0539053144461S11734821EA0154601671000000000000
B0539093144471S11734904EA0152401643000000000000
B0539133144470S11735000EA0149401613000000000000
B0539173144456S11735103EA0147701600000000000000
B0539213144433S11735204EA0147101594000000000000
B0539253144409S11735302EA0146501589000000000000
B0539293144381S11735397EA0146301586000000000000
B0539333144352S11735490EA0145601577000000000000
B0539373144320S11735583EA0144601565000000000000
B0539413144290S11735678EA0143501554000000000000
B0539453144259S11735771EA0143301557000000000000
B0539493144231S11735862EA0143001550000000000000
B0539533144202S11735953EA0142101541000000000000
B0539573144173S11736046EA0141401530000000000000
B0540013144144S11736135EA0140601526000000000000
B0540053144115S11736225EA0140201521000000000000
B0540093144086S11736313EA0139901519000000000000
B0540133144058S11736400EA0139801517000000000000
B0540173144028S11736488EA0139501515000000000000
B0540213143998S11736572EA0139201510000000000000
B0540253143967S11736657EA0138201499000000000000
B0540293143936S11736744EA0137301488000000000000
B0540333143904S11736832EA0136801486000000000000
B0540373143876S11736923EA0137001489000000000000
B0540413143861S11737011EA0137801499000000000000
B0540453143861S11737095EA0138201497000000000000
B0540493143867S11737178EA0137001483000000000000
B0540533143876S11737260EA0136101473000000000000
B0540573143880S11737344EA0134401455000000000000
B0541013143872S11737434EA0132601436000000000000
B0541053143850S11737525EA0131501426000000000000
B0541093143821S11737611EA0131301433000000000000
B0541133143786S11737687EA0131601432000000000000
B0541173143750S11737763EA0131101423000000000000
B0541213143716S11737841EA0129801409000000000000
B0541253143683S11737920EA0128901405000000000000
B0541293143652S11737998EA0128801402000000000000
B0541333143621S11738076EA0128301395000000000000
B0541373143590S11738155EA0127501389000000000000
B0541413143564S11738235EA0128001399000000000000
B0541453143546S11738310EA0129001408000000000000
B0541493143527S11738383EA0129301409000000000000
B0541533143512S11738457EA0128501396000000000000
B0541573143499S11738530EA0127801393000000000000
B0542013143486S11738599EA0127301382000000000000
B0542053143473S11738670EA0125701359000000000000
B0542093143447S11738748EA0124401355000000000000
B0542133143419S11738825EA0125201370000000000000
B0542173143399S11738894EA0126801387000000000000
B0542213143378S11738956EA0127901395000000000000
B0542253143367S11739016EA0128701403000000000000
B0542293143413S11739034EA0129601413000000000000
B0542333143440S11738967EA0129901410000000015000
B0542373143391S11738907EA0129401407000000015000
B0542413143328S11738917EA0129101406000000015000
B0542453143299S11738972EA0129001403000000015000
B0542493143288S11739037EA0128001389000000015000
B0542533143269S11739111EA0126201370000000015000
B0542573143236S11739192EA0124601354000000000000
B0543013143198S11739273EA0123801349000000000000
B0543053143158S11739353EA0124001353000000000000
B0543093143126S11739431EA0124601361000000000000
B0543133143096S11739507EA0124901360000000000000
B0543173143071S11739580EA0125401368000000000000
B0543213143057S11739652EA0125601368000000000000
B0543253143062S11739723EA0125401365000000000000
B0543293143078S11739792EA0125501369000000000000
B0543333143094S11739857EA0125901373000000000000
B0543373143110S11739921EA0126201378000000000000
B0543413143126S11739983EA0126401377000000000000
B0543453143145S11740046EA0126101373000000000000
B0543493143171S11740105EA0125501361000000000000
B0543533143185S11740177EA0123501340000000000000
B0543573143178S11740258EA0122001325000000000000
B0544013143153S11740337EA0120501308000000000000
B0544053143117S11740419EA0118401288000000000000
B0544093143079S11740503EA0117201276000000000000
B0544133143042S11740592EA0115501257000000000000
B0544173143005S11740683EA0114101243000000000000
B0544213142966S11740774EA0113301235000000000000
B0544253142929S11740862EA0113001234000000000000
B0544293142893S11740948EA0112201225000000000000
B0544333142858S11741030EA0111801224000000000000
B0544373142823S11741108EA0111501217000000000000
B0544413142789S11741187EA0110601210000000000000
B0544453142754S11741262EA0110001201000000000000
B0544493142716S11741337EA0109201194000000000000
B0544533142680S11741409EA0108601184000000000000
B0544573142641S11741481EA0107401170000000000000
B0545013142606S11741558EA0106101157000000000000
B0545053142581S11741639EA0104701143000000000000
B0545093142569S11741725EA0103601128000000000000
B0545133142580S11741811EA0102301120000000000000
B0545173142598S11741892EA0101801115000000000000
B0545213142613S11741971EA0101001105000000000000
B0545253142607S11742057EA0100001092000000000000
B0545293142584S11742141EA0099501092000000000000
B0545333142554S11742223EA0099501093000000000000
B0545373142520S11742300EA0099901100000000000000
B0545413142502S11742374EA0100701107000000000000
B0545453142496S11742445EA0100601103000000000000
B0545493142490S11742521EA0100001097000000000000
B0545533142478S11742595EA0100301101000000000000
B0545573142480S11742669EA0100601104000000000000
B0546013142530S11742692EA0102001120000000000000
B0546053142552S11742625EA0102701125000000015000
B0546093142507S11742573EA0102201117000000015000
B0546133142446S11742585EA0102001121000000015000
B0546173142408S11742635EA0102601125000000015000
B0546213142417S11742698EA0102801127000000030000
B0546253142469S11742681EA0103801135000000030000
B0546293142456S11742605EA0103601125000000030000
B0546333142389S11742599EA0102301118000000030000
B0546373142342S11742652EA0102301121000000030000
B0546413142324S11742720EA0102401121000000015000
B0546453142335S11742790EA0102401123000000015000
B0546493142383S11742822EA0103801136000000015000
B0546533142402S11742750EA0104301138000000015000
B0546573142340S11742705EA0103901133000000015000
B0547013142274S11742721EA0104101141000000015000
B0547053142255S11742781EA0105101153000000030000
B0547093142287S11742825EA0106701169000000030000
B0547133142325S11742772EA0106901166000000045000
B0547173142282S11742711EA0106501161000000030000
B0547213142220S11742725EA0107101182000000030000
B0547253142197S11742776EA0109301201000000030000
B0547293142238S11742796EA0110601207000000045000
B0547333142268S11742733EA0110501207000000045000
B0547373142229S11742669EA0111201219000000030000
B0547413142175S11742683EA0112601232000000015000
B0547453142187S11742733EA0113801241000000015000
B0547493142238S11742709EA0114501250000000015000
B0547533142235S11742637EA0115501264000000015000
B0547573142184S11742604EA0116801273000000015000
B0548013142151S11742643EA0117601278000000015000
B0548053142184S11742686EA0117801279000000015000
B0548093142233S11742646EA0118801295000000015000
B0548133142217S11742573EA0120001303000000015000
B0548173142160S11742557EA0121101316000000015000
B0548213142140S11742608EA0122001320000000015000
B0548253142183S11742637EA0122601328000000015000
B0548293142226S11742587EA0123401339000000015000
B0548333142217S11742510EA0124401352000000015000
B0548373142166S11742474EA0125401367000000015000
B0548413142134S11742512EA0126201370000000015000
B0548453142171S11742548EA0126801383000000015000
B0548493142216S11742512EA0128201393000000015000
B0548533142201S11742436EA0128701399000000015000
B0548573142143S11742423EA0129401407000000015000
B0549013142122S11742473EA0130301419000000015000
B0549053142166S11742494EA0131501427000000015000
B0549093142201S11742430EA0131901437000000015000
B0549133142169S11742367EA0133201448000000015000
B0549173142113S11742379EA0133901453000000015000
B0549213142113S11742431EA0134601465000000015000
B0549253142162S11742436EA0136001476000000015000
B0549293142191S11742371EA0136501481000000015000
B0549333142160S11742301EA0137301495000000015000
B0549373142104S11742287EA0138601504000000015000
B0549413142074S11742328EA0139001506000000015000
B0549453142101S11742373EA0139101511000000015000
B0549493142156S11742354EA0140301524000000015000
B0549533142174S11742286EA0141301533000000015000
B0549573142135S11742227EA0141901539000000015000
B0550013142078S11742228EA0142601546000000015000
B0550053142056S11742276EA0143401551000000015000
B0550093142086S11742321EA0143801554000000015000
B0550133142140S11742309EA0144501564000000015000
B0550173142160S11742243EA0145301569000000015000
B0550213142127S11742176EA0145401574000000015000
B0550253142069S11742158EA0146001580000000015000
B0550293142027S11742195EA0146401585000000015000
B0550333142040S11742247EA0147101589000000015000
B0550373142092S11742261EA0147701593000000015000
B0550413142138S11742217EA0148301600000000015000
B0550453142143S11742139EA0148501602000000015000
B0550493142105S11742075EA0149201615000000015000
B0550533142048S11742070EA0150101620000000015000
B0550573142017S11742117EA0150501624000000015000
B0551013141999S11742178EA0150401622000000015000
B0551053141978S11742250EA0148901602000000000000
B0551093141952S11742336EA0147101586000000000000
B0551133141921S11742429EA0145501568000000000000
B0551173141879S11742521EA0144301557000000000000
B0551213141832S11742604EA0144801573000000000000
B0551253141785S11742681EA0145301569000000000000
B0551293141739S11742760EA0144101555000000000000
B0551333141688S11742841EA0142601538000000000000
B0551373141633S11742923EA0141001522000000000000
B0551413141579S11743007EA0139701510000000000000
B0551453141524S11743092EA0138401496000000000000
B0551493141469S11743177EA0137301485000000000000
B0551533141415S11743262EA0136301470000000000000
B0551573141363S11743346EA0135301468000000000000
B0552013141316S11743419EA0136701491000000000000
B0552053141272S11743484EA0138601504000000000000
B0552093141229S11743548EA0138201485000000000000
B0552133141181S11743619EA0135501455000000000000
B0552173141130S11743697EA0133301437000000000000
B0552213141078S11743777EA0131801423000000000000
B0552253141027S11743856EA0131101417000000000000
B0552293140978S11743933EA0130301411000000000000
B0552333140927S11744008EA0129601398000000000000
B0552373140879S11744089EA0128201387000000000000
B0552413140832S11744168EA0128001392000000000000
B0552453140787S11744245EA0128201390000000000000
B0552493140743S11744319EA0127801386000000000000
B0552533140699S11744393EA0126901373000000000000
B0552573140654S11744468EA0125801364000000000000
B0553013140613S11744544EA0125101357000000000000
B0553053140572S11744616EA0124901354000000000000
B0553093140532S11744692EA0124101344000000000000
B0553133140493S11744766EA0123501340000000000000
B0553173140448S11744839EA0122901332000000000000
B0553213140401S11744910EA0122501329000000000000
B0553253140358S11744982EA0122801337000000000000
B0553293140315S11745051EA0124001351000000000000
B0553333140280S11745117EA0125301364000000000000
B0553373140253S11745185EA0125301359000000000000
B0553413140227S11745257EA0124401342000000000000
B0553453140193S11745329EA0123601346000000000000
B0553493140159S11745396EA0124101347000000000000
B0553533140123S11745465EA0123401338000000000000
B0553573140088S11745536EA0123601348000000000000
B0554013140052S11745602EA0124201352000000000000
B0554053140019S11745668EA0125001363000000000000
B0554093140021S11745729EA0127201384000000000000
B0554133140072S11745703EA0127901381000000000000
B0554173140056S11745611EA0127501385000000000000
B0554213139984S11745576EA0128101392000000000000
B0554253139930S11745619EA0128601400000000015000
B0554293139951S11745666EA0130201425000000015000
B0554333139993S11745625EA0131701424000000030000
B0554373139965S11745543EA0130901422000000030000
B0554413139898S11745524EA0131901440000000015000
B0554453139856S11745563EA0133201445000000015000
B0554493139883S11745603EA0134101461000000015000
B0554533139917S11745554EA0136001474000000015000
B0554573139880S11745484EA0136001471000000015000
B0555013139813S11745493EA0136401484000000015000
B0555053139799S11745545EA0138501503000000015000
B0555093139846S11745538EA0139501509000000015000
B0555133139848S11745458EA0140201523000000015000
B0555173139795S11745411EA0142001542000000015000
B0555213139746S11745439EA0142801545000000015000
B0555253139761S11745487EA0143901560000000015000
B0555293139807S11745460EA0145501579000000015000
B0555333139805S11745386EA0147101593000000015000
B0555373139752S11745338EA0147701601000000015000
B0555413139696S11745361EA0148601611000000015000
B0555453139698S11745413EA0149701622000000015000
B0555493139746S11745406EA0150701634000000015000
B0555533139753S11745335EA0152201647000000015000
B0555573139692S11745300EA0152701654000000015000
B0556013139647S11745341EA0154001669000000015000
B0556053139655S11745394EA0155401677000000015000
B0556093139704S11745396EA0156401689000000015000
B0556133139727S11745333EA0157501699000000015000
B0556173139694S11745265EA0158301709000000015000
B0556213139630S11745257EA0159301723000000015000
B0556253139592S11745302EA0160301735000000015000
B0556293139605S11745352EA0161201737000000015000
B0556333139653S11745360EA0161801743000000015000
B0556373139691S11745316EA0162801748000000015000
B0556413139687S11745244EA0163501760000000015000
B0556453139636S11745201EA0164601769000000015000
B0556493139577S11745214EA0165101777000000015000
B0556533139556S11745269EA0166301793000000015000
B0556573139581S11745312EA0167101797000000015000
B0557013139630S11745305EA0167301797000000015000
B0557053139657S11745242EA0167301802000000015000
B0557093139623S11745182EA0168001815000000015000
B0557133139566S11745194EA0168901821000000015000
B0557173139561S11745251EA0169601827000000015000
B0557213139608S11745263EA0169901827000000015000
B0557253139642S11745209EA0169901830000000015000
B0557293139613S11745143EA0170101834000000015000
B0557333139548S11745133EA0170201832000000015000
B0557373139495S11745187EA0169601826000000015000
B0557413139454S11745266EA0167901806000000015000
B0557453139422S11745363EA0165701774000000015000
B0557493139391S11745471EA0162501752000000015000
B0557533139358S11745578EA0161501745000000015000
B0557573139327S11745681EA0161701750000000000000
B0558013139293S11745783EA0161801752000000000000
B0558053139261S11745880EA0162101752000000000000
B0558093139230S11745979EA0161801747000000000000
B0558133139201S11746078EA0161001739000000000000
