ACAM4N6
HFDTE030115
HFFXA050
HFPLTPILOT:JOHN WELSH              
HFGTYGLIDERTYPE:HORNET      
HFGIDGLIDERID:VH-GMY      
HFDTM100GPSDATUM:
HFRFWFIRMWAREVERSION:F2.6
HFRHWHARDWAREVERSION:300 Series Version 2
HFFTYFRTYPE:CAMBRIDGE AERO INSTRUMENTS, 302+
HFGPS:GARMIN,LVS-25,12,18000
HFPRSPRESSALTSENSOR:INTERSEMA, MS5534-AP, 20000
I033638FXA3941ENL4247REX
LCAMSBVER:5FWVER:F26300
C030115041513030115000103
C0000000N00000000WTAKEOFF     
C3207549S11656849EBEVAIR      
C3138316S11646899EGRSSVLLY    
C3155866S11750649ESHACKLTN    
C3231466S11704865EPINGELLY    
C3207549S11656849EBEVAIR      
C0000000N00000000WLANDING     
B0424103207339S11656861EA0020200206000004000000
B0424123207339S11656861EA0020200206000004000000
B0424143207339S11656861EA0020200206000004000000
B0424163207339S11656861EA0020200206000004000000
B0424183207339S11656861EA0020200206000004000000
B0424203207339S11656861EA0020300206000004000000
B0424223207339S11656861EA0020300206000004000000
B0424243207339S11656861EA0020300206000004000000
B0424263207339S11656861EA0020300206000004000000
B0424283207339S11656861EA0020200206000004000000
B0424303207339S11656861EA0020200206000004000000
B0424323207339S11656861EA0020400206000004000000
B0424343207339S11656861EA0020300206000004000000
B0424363207339S11656861EA0020200205000004000000
B0424383207341S11656862EA0020300205000004000000
B0424413207346S11656867EA0020300204000004000000
B0424453207368S11656884EA0020000204000004000000
B0424493207406S11656910EA0020000203000004000000
B0424533207455S11656943EA0020000205000004000000
B0424573207514S11656981EA0020200205000004000000
B0425013207573S11657026EA0020500209000004000000
B0425053207632S11657074EA0021300220000004000000
B0425093207692S11657120EA0022600237000004000000
B0425133207744S11657164EA0025400266000004000000
B0425173207791S11657212EA0027300290000004000000
B0425213207833S11657260EA0029700313000004000000
B0425253207878S11657309EA0031000321000004000000
B0425293207924S11657356EA0031900334000004000000
B0425333207971S11657407EA0032800338000004000000
B0425373208015S11657458EA0034100353000004000000
B0425413208062S11657512EA0034800356000004000000
B0425453208110S11657567EA0035400362000004000000
B0425493208157S11657623EA0036300372000004000000
B0425533208201S11657680EA0037700392000004000000
B0425573208229S11657746EA0039600411000004000000
B0426013208231S11657820EA0041700440000004000000
B0426053208214S11657891EA0044900473000004000000
B0426093208170S11657953EA0047700500000004000000
B0426133208096S11657971EA0050100525000004000000
B0426173208019S11657936EA0051500534000004000000
B0426213207966S11657848EA0052300543000004000000
B0426253207947S11657737EA0054200567000004000000
B0426293207962S11657627EA0056000583000004000000
B0426333208005S11657537EA0057600602000004000000
B0426373208065S11657478EA0060000625000004000000
B0426413208132S11657454EA0061700641000004000000
B0426453208201S11657462EA0063000652000004000000
B0426493208259S11657499EA0064300667000004000000
B0426533208288S11657562EA0065500686000004000000
B0426573208296S11657633EA0067400702000004000000
B0427013208296S11657706EA0069200724000004000000
B0427053208296S11657783EA0070700729000004000000
B0427093208296S11657859EA0071400742000004000000
B0427133208291S11657939EA0072600752000004000000
B0427173208286S11658015EA0073600764000004000000
B0427213208278S11658093EA0074500770000004000000
B0427253208270S11658173EA0074900777000004000000
B0427293208255S11658253EA0075900787000004000000
B0427333208234S11658331EA0077400807000004000000
B0427373208207S11658408EA0079400824000004000000
B0427413208216S11658473EA0080600834000004000000
B0427453208265S11658482EA0081100832000004000000
B0427493208300S11658418EA0080400826000004000000
B0427533208283S11658330EA0079700820000004000000
B0427573208229S11658275EA0080200835000004000000
B0428013208181S11658300EA0081900842000004000000
B0428053208190S11658349EA0080800828000004000000
B0428093208238S11658351EA0080300828000004000000
B0428133208270S11658295EA0079800820000004000000
B0428173208256S11658213EA0079200817000004000000
B0428213208207S11658147EA0079500823000004000000
B0428253208155S11658162EA0080500832000004000000
B0428293208166S11658212EA0080700834000004000000
B0428333208214S11658197EA0081200843000004000000
B0428373208220S11658125EA0082000854000004000000
B0428413208173S11658086EA0082700860000004000000
B0428453208136S11658118EA0082800856000004000000
B0428493208155S11658165EA0082500859000004000000
B0428533208199S11658156EA0083800872000004000000
B0428573208216S11658095EA0084300872000004000000
B0429013208186S11658028EA0084600879000004000000
B0429053208134S11658011EA0085400886000004000000
B0429093208097S11658044EA0085200880000004000000
B0429133208101S11658097EA0084700878000004000000
B0429173208147S11658114EA0085100882000004000000
B0429213208183S11658067EA0085600888000004000000
B0429253208169S11657992EA0085300889000004000000
B0429293208121S11657940EA0085700895000004000000
B0429333208064S11657939EA0086100893000004000000
B0429373208027S11657983EA0085800888000004000000
B0429413208031S11658040EA0085500889000004000000
B0429453208060S11658093EA0085600888000004000000
B0429493208092S11658145EA0085000879000004000000
B0429533208130S11658193EA0084800882000004000000
B0429573208169S11658236EA0084600875000004000000
B0430013208214S11658273EA0084300874000004000000
B0430053208261S11658307EA0084600873000004000000
B0430093208313S11658333EA0085300884000004000000
B0430133208359S11658304EA0086400897000004000000
B0430173208348S11658230EA0087500908000004000000
B0430213208290S11658197EA0088600925000004000000
B0430253208243S11658230EA0089500935000004000000
B0430293208252S11658274EA0090700945000004000000
B0430333208295S11658265EA0091000947000004000000
B0430373208313S11658200EA0092000957000004000000
B0430413208283S11658136EA0093200971000004000000
B0430453208226S11658114EA0093700975000004000000
B0430493208188S11658153EA0094100978000004000000
B0430533208208S11658193EA0094600984000004000000
B0430573208249S11658175EA0095200992000004000000
B0431013208253S11658105EA0095700997000004000000
B0431053208203S11658057EA0096701007000004000000
B0431093208148S11658075EA0097101012000004000000
B0431133208148S11658123EA0097401016000004000000
B0431173208186S11658132EA0098101021000004000000
B0431213208214S11658079EA0098501028000004000000
B0431253208190S11658010EA0099301039000004000000
B0431293208132S11657996EA0100401051000004000000
B0431333208103S11658036EA0100501048000004000000
B0431373208123S11658075EA0100501052000004000000
B0431413208164S11658056EA0101101057000004000000
B0431453208171S11657987EA0101901065000004000000
B0431493208127S11657936EA0102701071000004000000
B0431533208074S11657957EA0102401066000004000000
B0431573208075S11658009EA0102401068000004000000
B0432013208118S11658011EA0103001072000004000000
B0432053208143S11657952EA0103601080000004000000
B0432093208112S11657887EA0104301088000004000000
B0432133208056S11657879EA0105101095000004000000
B0432173208023S11657917EA0105201093000004000000
B0432213208038S11657959EA0105001094000004000000
B0432253208079S11657957EA0105401090000004000000
B0432293208106S11657893EA0104801089000004000000
B0432333208073S11657823EA0105601097000004000000
B0432373208010S11657826EA0106001103000004000000
B0432413207991S11657879EA0106601109000004000000
B0432453208025S11657907EA0107201114000004000000
B0432493208066S11657874EA0107701121000004000000
B0432533208065S11657802EA0108601129000004000000
B0432573208013S11657755EA0108701128000004000000
B0433013207960S11657776EA0109301135000004000000
B0433053207957S11657826EA0109401134000004000000
B0433093207999S11657839EA0109701138000004000000
B0433133208040S11657800EA0110101141000004000000
B0433173208048S11657723EA0111001153000004000000
B0433213208009S11657659EA0111501156000004000000
B0433253207948S11657649EA0111401156000004000000
B0433293207906S11657692EA0111601158000004000000
B0433333207909S11657745EA0111901159000004000000
B0433373207940S11657789EA0111601158000004000000
B0433413207988S11657809EA0111901157000004000000
B0433453208039S11657771EA0111501158000004000000
B0433493208060S11657690EA0112001164000004000000
B0433533208034S11657612EA0113101177000004000000
B0433573207973S11657582EA0113101171000004000000
B0434013207921S11657615EA0112201167000004000000
B0434053207910S11657668EA0112501172000004000000
B0434093207939S11657705EA0113201176000004000000
B0434133207987S11657699EA0113301177000004000000
B0434173208021S11657640EA0113301182000004000000
B0434213208005S11657556EA0113901188000004000000
B0434253207949S11657503EA0114201188000004000000
B0434293207882S11657512EA0113501180000004000000
B0434333207852S11657568EA0113401181000004000000
B0434373207869S11657620EA0114101183000004000000
B0434413207915S11657632EA0114001185000004000000
B0434453207954S11657581EA0114801195000004000000
B0434493207936S11657504EA0115301199000004000000
B0434533207871S11657484EA0115701204000004000000
B0434573207830S11657519EA0116101204000004000000
B0435013207833S11657567EA0116001200000004000000
B0435053207876S11657585EA0115401195000004000000
B0435093207923S11657549EA0115301195000004000000
B0435133207934S11657472EA0115601202000004000000
B0435173207895S11657402EA0116201209000004000000
B0435213207826S11657378EA0116701212000004000000
B0435253207770S11657410EA0116501209000004000000
B0435293207757S11657465EA0116601208000004000000
B0435333207787S11657499EA0116401206000004000000
B0435373207837S11657493EA0115901201000004000000
B0435413207880S11657445EA0115901204000004000000
B0435453207895S11657373EA0116901219000004000000
B0435493207856S11657312EA0118001224000004000000
B0435533207791S11657316EA0118101229000004000000
B0435573207762S11657367EA0118901236000004000000
B0436013207788S11657399EA0119501241000004000000
B0436053207830S11657373EA0119201235000004000000
B0436093207845S11657300EA0119301242000004000000
B0436133207810S11657234EA0120401258000004000000
B0436173207750S11657229EA0121601268000004000000
B0436213207716S11657273EA0121901265000004000000
B0436253207735S11657321EA0121601266000004000000
B0436293207780S11657308EA0122001271000004000000
B0436333207802S11657250EA0122901278000004000000
B0436373207778S11657179EA0123601285000004000000
B0436413207714S11657163EA0124101292000004000000
B0436453207674S11657208EA0124601294000004000000
B0436493207685S11657257EA0124701295000004000000
B0436533207729S11657261EA0124801296000004000000
B0436573207762S11657209EA0125201299000004000000
B0437013207742S11657135EA0125601307000004000000
B0437053207680S11657109EA0126701319000004000000
B0437093207633S11657146EA0127601326000004000000
B0437133207631S11657196EA0128201330000004000000
B0437173207663S11657216EA0128401330000004000000
B0437213207702S11657182EA0127801325000004000000
B0437253207705S11657113EA0128601338000004000000
B0437293207659S11657062EA0129601346000004000000
B0437333207596S11657072EA0129301346000004000000
B0437373207570S11657126EA0129801352000004000000
B0437413207597S11657165EA0130201351000004000000
B0437453207641S11657146EA0129901345000004000000
B0437493207657S11657078EA0129101337000004000000
B0437533207615S11657014EA0128801338000004000000
B0437573207544S11657025EA0129301347000004000000
B0438013207505S11657075EA0130101351000004000000
B0438053207521S11657122EA0130601354000004000000
B0438093207562S11657125EA0130001343000004000000
B0438133207598S11657078EA0128901331000004000000
B0438173207601S11657000EA0127701324000004000000
B0438213207560S11656935EA0127501323000004000000
B0438253207495S11656910EA0127801329000004000000
B0438293207440S11656931EA0128401335000004000000
B0438333207420S11656982EA0128701335000004000000
B0438373207443S11657021EA0128701334000004000000
B0438413207484S11657014EA0127801322000004000000
B0438453207512S11656957EA0126801309000004000000
B0438493207495S11656879EA0125801304000004000000
B0438533207434S11656832EA0125501305000004000000
B0438573207371S11656847EA0126101312000004000000
B0439013207341S11656896EA0126401314000004000000
B0439053207350S11656945EA0126401309000004000000
B0439093207378S11656984EA0125101291000004000000
B0439133207420S11657014EA0123301273000004000000
B0439173207466S11657047EA0121701257000004000000
B0439213207512S11657077EA0120901252000004000000
B0439253207562S11657098EA0120101243000004000000
B0439293207619S11657111EA0119101231000004000000
B0439333207670S11657146EA0117601216000004000000
B0439373207707S11657196EA0116701207000004000000
B0439413207744S11657252EA0115801202000004000000
B0439453207783S11657303EA0115801202000004000000
B0439493207818S11657356EA0116101204000004000000
B0439533207849S11657410EA0116401207000004000000
B0439573207887S11657460EA0117101218000004000000
B0440013207924S11657507EA0118501231000004000000
B0440053207975S11657536EA0119901244000004000000
B0440093208018S11657494EA0121001250000004000000
B0440133208005S11657420EA0120801248000004000000
B0440173207948S11657399EA0121901269000004000000
B0440213207911S11657439EA0123401280000004000000
B0440253207937S11657485EA0123801277000004000000
B0440293207987S11657450EA0123901286000004000000
B0440333207975S11657381EA0124901295000004000000
B0440373207921S11657372EA0125401305000004000000
B0440413207900S11657423EA0126401315000004000000
B0440453207931S11657464EA0126901319000004000000
B0440493207980S11657441EA0127301321000004000000
B0440533207991S11657372EA0127101316000004000000
B0440573207948S11657324EA0127101319000004000000
B0441013207892S11657333EA0127101318000004000000
B0441053207866S11657384EA0127301319000004000000
B0441093207883S11657443EA0127101318000004000000
B0441133207919S11657499EA0126901312000004000000
B0441173207963S11657558EA0125501300000004000000
B0441213208010S11657615EA0124801289000004000000
B0441253208060S11657675EA0123301276000004000000
B0441293208114S11657732EA0123001276000004000000
B0441333208173S11657783EA0122601268000004000000
B0441373208233S11657832EA0121901264000004000000
B0441413208288S11657881EA0121501258000004000000
B0441453208340S11657933EA0120901250000004000000
B0441493208392S11657984EA0120501244000004000000
B0441533208434S11658044EA0119601235000004000000
B0441573208476S11658102EA0118801232000004000000
B0442013208525S11658149EA0119001233000004000000
B0442053208578S11658183EA0119301237000004000000
B0442093208624S11658218EA0120101243000004000000
B0442133208669S11658253EA0120901251000004000000
B0442173208708S11658291EA0122401268000004000000
B0442213208758S11658299EA0123401274000004000000
B0442253208790S11658234EA0123201267000004000000
B0442293208763S11658149EA0122701270000004000000
B0442333208697S11658113EA0123501279000004000000
B0442373208624S11658113EA0123801282000004000000
B0442413208578S11658157EA0124901296000004000000
B0442453208602S11658196EA0125801305000004000000
B0442493208643S11658167EA0127001315000004000000
B0442533208646S11658095EA0128001324000004000000
B0442573208598S11658039EA0128501333000004000000
B0443013208533S11658043EA0129101336000004000000
B0443053208493S11658092EA0129601341000004000000
B0443093208506S11658144EA0130001348000004000000
B0443133208548S11658153EA0130701356000004000000
B0443173208584S11658106EA0130901355000004000000
B0443213208577S11658026EA0131101360000004000000
B0443253208525S11657974EA0132401377000004000000
B0443293208465S11657982EA0133501385000004000000
B0443333208438S11658030EA0133801384000004000000
B0443373208460S11658076EA0133401383000004000000
B0443413208507S11658076EA0133601383000004000000
B0443453208530S11658010EA0133601385000004000000
B0443493208496S11657935EA0133601391000004000000
B0443533208431S11657914EA0134801405000004000000
B0443573208379S11657941EA0135901412000004000000
B0444013208376S11657995EA0135501402000004000000
B0444053208421S11658023EA0134901399000004000000
B0444093208468S11657988EA0135601406000004000000
B0444133208478S11657913EA0135701405000004000000
B0444173208437S11657844EA0135301405000004000000
B0444213208368S11657836EA0135701410000004000000
B0444253208325S11657878EA0136201421000004000000
B0444293208325S11657931EA0136901420000004000000
B0444333208363S11657970EA0136001410000004000000
B0444373208418S11657976EA0135401407000004000000
B0444413208470S11657931EA0135201404000004000000
B0444453208490S11657853EA0134701397000004000000
B0444493208456S11657776EA0133801389000004000000
B0444533208387S11657741EA0133501386000004000000
B0444573208326S11657764EA0133301384000004000000
B0445013208305S11657822EA0133201384000004000000
B0445053208320S11657878EA0133001380000004000000
B0445093208351S11657928EA0131801365000004000000
B0445133208394S11657978EA0130401354000004000000
B0445173208443S11658023EA0129301340000004000000
B0445213208498S11658061EA0128201333000004000000
B0445253208552S11658093EA0127801328000004000000
B0445293208610S11658123EA0127201322000004000000
B0445333208664S11658153EA0127301324000004000000
B0445373208715S11658184EA0127101318000004000000
B0445413208768S11658210EA0126501310000004000000
B0445453208816S11658248EA0125901304000004000000
B0445493208867S11658290EA0125401301000004000000
B0445533208915S11658329EA0126501314000004000000
B0445573208966S11658365EA0126401309000004000000
B0446013209019S11658399EA0126801316000004000000
B0446053209076S11658373EA0128001327000004000000
B0446093209085S11658294EA0129101332000004000000
B0446133209042S11658231EA0128401326000004000000
B0446173208980S11658230EA0128801333000004000000
B0446213208948S11658279EA0128801330000004000000
B0446253208970S11658335EA0128301327000004000000
B0446293209028S11658336EA0128901336000004000000
B0446333209068S11658277EA0129601342000004000000
B0446373209059S11658193EA0129901341000004000000
B0446413209009S11658139EA0129601343000004000000
B0446453208950S11658143EA0130401351000004000000
B0446493208925S11658193EA0130201344000004000000
B0446533208942S11658252EA0129401341000004000000
B0446573208977S11658303EA0130001347000004000000
B0447013209016S11658349EA0129801344000004000000
B0447053209061S11658399EA0128801331000004000000
B0447093209107S11658451EA0127901319000004000000
B0447133209161S11658504EA0126001300000004000000
B0447173209221S11658548EA0125201300000004000000
B0447213209278S11658587EA0125301302000004000000
B0447253209330S11658629EA0125701303000004000000
B0447293209383S11658667EA0125601300000004000000
B0447333209435S11658706EA0125501297000004000000
B0447373209486S11658743EA0125201297000004000000
B0447413209538S11658776EA0125101293000004000000
B0447453209590S11658804EA0124801294000004000000
B0447493209638S11658837EA0125201293000004000000
B0447533209690S11658856EA0125501303000004000000
B0447573209729S11658806EA0127401321000004000000
B0448013209722S11658725EA0127801315000004000000
B0448053209665S11658673EA0127101315000004000000
B0448093209605S11658694EA0126501310000004000000
B0448133209587S11658755EA0125901307000004000000
B0448173209609S11658810EA0126001307000004000000
B0448213209644S11658854EA0125801304000004000000
B0448253209687S11658895EA0124901294000004000000
B0448293209735S11658934EA0123901286000004000000
B0448333209785S11658975EA0123301274000004000000
B0448373209833S11659024EA0122001256000004000000
B0448413209881S11659077EA0120901253000004000000
B0448453209924S11659132EA0120801252000004000000
B0448493209963S11659188EA0120301241000004000000
B0448533210006S11659245EA0118701227000004000000
B0448573210050S11659304EA0117701217000004000000
B0449013210082S11659370EA0117301216000004000000
B0449053210115S11659431EA0117401215000004000000
B0449093210155S11659487EA0117201212000004000000
B0449133210196S11659547EA0116201199000004000000
B0449173210235S11659608EA0116201213000004000000
B0449213210267S11659660EA0118301231000004000000
B0449253210300S11659705EA0119001229000004000000
B0449293210333S11659752EA0118301220000004000000
B0449333210375S11659798EA0118001220000004000000
B0449373210415S11659841EA0117901218000004000000
B0449413210456S11659883EA0117301210000004000000
B0449453210496S11659928EA0116001198000004000000
B0449493210544S11659965EA0114901187000004000000
B0449533210596S11659997EA0114401177000004000000
B0449573210649S11700026EA0113301166000004000000
B0450013210704S11700055EA0112401159000004000000
B0450053210757S11700085EA0111701150000004000000
B0450093210807S11700121EA0110701143000004000000
B0450133210855S11700159EA0110201133000004000000
B0450173210878S11700225EA0108301118000004000000
B0450213210879S11700303EA0107401111000004000000
B0450253210872S11700383EA0107001108000004000000
B0450293210873S11700459EA0107401117000004000000
B0450333210898S11700522EA0108701128000004000000
B0450373210930S11700578EA0108801127000004000000
B0450413210972S11700628EA0109001125000004000000
B0450453211017S11700675EA0109101131000004000000
B0450493211060S11700721EA0110401146000004000000
B0450533211111S11700704EA0112801168000004000000
B0450573211117S11700631EA0113201168000004000000
B0451013211069S11700574EA0112801163000004000000
B0451053211007S11700578EA0112601165000004000000
B0451093210981S11700634EA0113401174000004000000
B0451133211009S11700679EA0114601186000004000000
B0451173211063S11700660EA0115901201000004000000
B0451213211089S11700589EA0116701214000004000000
B0451253211068S11700515EA0118101223000004000000
B0451293211013S11700471EA0118301228000004000000
B0451333210963S11700488EA0119201236000004000000
B0451373210952S11700540EA0119301234000004000000
B0451413210990S11700579EA0119701242000004000000
B0451453211039S11700546EA0121101257000004000000
B0451493211047S11700471EA0122301271000004000000
B0451533211004S11700415EA0123301281000004000000
B0451573210950S11700418EA0123501280000004000000
B0452013210931S11700470EA0123301279000004000000
B0452053210963S11700518EA0123601289000004000000
B0452093211015S11700513EA0125201302000004000000
B0452133211044S11700450EA0126301312000004000000
B0452173211020S11700377EA0126801318000004000000
B0452213210963S11700351EA0127501323000004000000
B0452253210912S11700377EA0128201332000004000000
B0452293210888S11700433EA0128601336000004000000
B0452333210905S11700489EA0129101343000004000000
B0452373210959S11700493EA0129801352000004000000
B0452413211000S11700435EA0130601361000004000000
B0452453210994S11700359EA0132301380000004000000
B0452493210947S11700320EA0133201387000004000000
B0452533210896S11700341EA0133501393000004000000
B0452573210898S11700389EA0134201397000004000000
B0453013210944S11700396EA0134501399000004000000
B0453053210983S11700342EA0134601400000004000000
B0453093210974S11700263EA0134901405000004000000
B0453133210926S11700214EA0136001417000004000000
B0453173210872S11700221EA0136901423000004000000
B0453213210847S11700272EA0137001425000004000000
B0453253210872S11700316EA0137201427000004000000
B0453293210924S11700322EA0137701432000004000000
B0453333210969S11700275EA0137801428000004000000
B0453373210976S11700194EA0137401428000004000000
B0453413210947S11700125EA0137301423000004000000
B0453453210891S11700098EA0136101411000004000000
B0453493210839S11700129EA0136201416000004000000
B0453533210826S11700186EA0136801423000004000000
B0453573210861S11700224EA0137201426000004000000
B0454013210917S11700211EA0137501429000004000000
B0454053210951S11700145EA0137201425000004000000
B0454093210946S11700064EA0136501413000004000000
B0454133210901S11700002EA0135201401000004000000
B0454173210839S11659989EA0134601401000004000000
B0454213210792S11700026EA0135201407000004000000
B0454253210783S11700085EA0135701412000004000000
B0454293210805S11700133EA0136401419000004000000
B0454333210857S11700120EA0137001425000004000000
B0454373210886S11700052EA0137001423000004000000
B0454413210868S11659976EA0136501419000004000000
B0454453210817S11659932EA0136201414000004000000
B0454493210757S11659945EA0135801408000004000000
B0454533210735S11700003EA0135501410000004000000
B0454573210748S11700063EA0135701412000004000000
B0455013210788S11700103EA0135801408000004000000
B0455053210849S11700108EA0135001403000004000000
B0455093210909S11700075EA0134501395000004000000
B0455133210942S11700002EA0133501386000004000000
B0455173210934S11659915EA0133001377000004000000
B0455213210882S11659847EA0131801366000004000000
B0455253210808S11659820EA0130501352000004000000
B0455293210736S11659844EA0129401343000004000000
B0455333210699S11659912EA0129301350000004000000
B0455373210700S11659986EA0129901351000004000000
B0455413210740S11700041EA0129901352000004000000
B0455453210803S11700049EA0130301357000004000000
B0455493210860S11700010EA0130001349000004000000
B0455533210895S11659935EA0128701337000004000000
B0455573210895S11659847EA0128001329000004000000
B0456013210855S11659773EA0127701325000004000000
B0456053210788S11659746EA0127101317000004000000
B0456093210727S11659770EA0126001302000004000000
B0456133210695S11659837EA0125101303000004000000
B0456173210690S11659907EA0125601309000004000000
B0456213210704S11659969EA0126201315000004000000
B0456253210744S11700007EA0127001318000004000000
B0456293210796S11659993EA0126501309000004000000
B0456333210823S11659925EA0125001297000004000000
B0456373210800S11659850EA0124101288000004000000
B0456413210743S11659815EA0122801273000004000000
B0456453210682S11659831EA0121801264000004000000
B0456493210648S11659885EA0121601263000004000000
B0456533210638S11659947EA0120901258000004000000
B0456573210654S11700002EA0120901258000004000000
B0457013210683S11700052EA0120301249000004000000
B0457053210722S11700098EA0119501242000004000000
B0457093210773S11700125EA0119001237000004000000
B0457133210830S11700124EA0118601233000004000000
B0457173210883S11700095EA0118101227000004000000
B0457213210926S11700037EA0117301216000004000000
B0457253210957S11659958EA0115901202000004000000
B0457293210979S11659870EA0115101197000004000000
B0457333211000S11659785EA0114601191000004000000
B0457373211017S11659696EA0113901183000004000000
B0457413211029S11659607EA0113201175000004000000
B0457453211035S11659516EA0112501169000004000000
B0457493211034S11659425EA0111901161000004000000
B0457533211025S11659332EA0111301152000004000000
B0457573211009S11659237EA0110101140000004000000
B0458013210991S11659144EA0109501135000004000000
B0458053210960S11659055EA0108701127000004000000
B0458093210921S11658970EA0107601117000004000000
B0458133210878S11658885EA0106801110000004000000
B0458173210833S11658801EA0105701097000004000000
B0458213210786S11658716EA0104601086000004000000
B0458253210736S11658635EA0103701076000004000000
B0458293210686S11658555EA0102601063000004000000
B0458333210632S11658476EA0101601052000004000000
B0458373210580S11658396EA0100801046000004000000
B0458413210532S11658313EA0099701034000004000000
B0458453210488S11658225EA0098701026000004000000
B0458493210448S11658138EA0098001015000004000000
B0458533210417S11658045EA0097001006000004000000
B0458573210389S11657952EA0096301000000004000000
B0459013210362S11657859EA0095800994000004000000
B0459053210335S11657768EA0095100982000004000000
B0459093210305S11657676EA0094100974000004000000
B0459133210280S11657585EA0093000965000004000000
B0459173210259S11657490EA0092100954000004000000
B0459213210241S11657394EA0091000942000004000000
B0459253210227S11657293EA0089600930000004000000
B0459293210215S11657190EA0089600933000004000000
B0459333210228S11657095EA0090800943000004000000
B0459373210281S11657038EA0091100943000004000000
B0459413210350S11657035EA0091100942000004000000
B0459453210418S11657017EA0091700958000004000000
B0459493210450S11656945EA0094300982000004000000
B0459533210417S11656875EA0095400986000004000000
B0459573210354S11656873EA0095100991000004000000
B0500013210320S11656921EA0096401008000004000000
B0500053210326S11656973EA0097101010000004000000
B0500093210368S11657003EA0097601020000004000000
B0500133210424S11656986EA0098801032000004000000
B0500173210461S11656926EA0099401040000004000000
B0500213210444S11656848EA0100101042000004000000
B0500253210385S11656802EA0100001039000004000000
B0500293210324S11656819EA0100001043000004000000
B0500333210303S11656875EA0100801049000004000000
B0500373210333S11656922EA0101401059000004000000
B0500413210387S11656925EA0102501071000004000000
B0500453210426S11656874EA0104301088000004000000
B0500493210431S11656796EA0104701092000004000000
B0500533210392S11656727EA0104801092000004000000
B0500573210328S11656700EA0104701092000004000000
B0501013210283S11656734EA0105301099000004000000
B0501053210290S11656786EA0105501099000004000000
B0501093210336S11656813EA0105901108000004000000
B0501133210387S11656788EA0107601124000004000000
B0501173210404S11656717EA0108301129000004000000
B0501213210367S11656644EA0108001125000004000000
B0501253210302S11656626EA0108101128000004000000
B0501293210261S11656663EA0109301138000004000000
B0501333210259S11656717EA0109601140000004000000
B0501373210297S11656750EA0109601139000004000000
B0501413210353S11656731EA0109301137000004000000
B0501453210387S11656657EA0109801148000004000000
B0501493210372S11656574EA0111401163000004000000
B0501533210315S11656536EA0111901163000004000000
B0501573210262S11656565EA0111201157000004000000
B0502013210259S11656620EA0111801166000004000000
B0502053210298S11656653EA0112301172000004000000
B0502093210354S11656632EA0112601173000004000000
B0502133210388S11656559EA0112901183000004000000
B0502173210372S11656477EA0114001191000004000000
B0502213210318S11656428EA0114101187000004000000
B0502253210254S11656438EA0113601180000004000000
B0502293210231S11656497EA0113501186000004000000
B0502333210253S11656548EA0115201205000004000000
B0502373210298S11656559EA0117101223000004000000
B0502413210339S11656513EA0118001227000004000000
B0502453210335S11656433EA0118001227000004000000
B0502493210284S11656388EA0117801228000004000000
B0502533210229S11656406EA0118101233000004000000
B0502573210216S11656457EA0118801243000004000000
B0503013210249S11656487EA0120001252000004000000
B0503053210297S11656466EA0120301249000004000000
B0503093210322S11656396EA0120001251000004000000
B0503133210297S11656319EA0120201251000004000000
B0503173210240S11656285EA0120401254000004000000
B0503213210189S11656308EA0120701256000004000000
B0503253210181S11656360EA0121001261000004000000
B0503293210219S11656392EA0121601267000004000000
B0503333210270S11656373EA0122001269000004000000
B0503373210305S11656308EA0121701268000004000000
B0503413210303S11656224EA0121801266000004000000
B0503453210261S11656156EA0121101257000004000000
B0503493210194S11656134EA0120301249000004000000
B0503533210124S11656129EA0120001247000004000000
B0503573210050S11656130EA0119601241000004000000
B0504013209976S11656146EA0118701233000004000000
B0504053209917S11656190EA0119101241000004000000
B0504093209894S11656251EA0120001249000004000000
B0504133209912S11656308EA0120401248000004000000
B0504173209963S11656342EA0119501233000004000000
B0504213210024S11656372EA0118401227000004000000
B0504253210088S11656403EA0117501217000004000000
B0504293210145S11656451EA0116401205000004000000
B0504333210179S11656526EA0115301194000004000000
B0504373210183S11656615EA0114501189000004000000
B0504413210167S11656702EA0113701180000004000000
B0504453210144S11656787EA0112701168000004000000
B0504493210112S11656870EA0111401157000004000000
B0504533210079S11656948EA0110801151000004000000
B0504573210047S11657029EA0109901136000004000000
B0505013210017S11657109EA0109101133000004000000
B0505053209988S11657187EA0109001129000004000000
B0505093209960S11657267EA0108101121000004000000
B0505133209932S11657345EA0107301114000004000000
B0505173209903S11657421EA0107101114000004000000
B0505213209874S11657494EA0106701107000004000000
B0505253209848S11657567EA0106301104000004000000
B0505293209822S11657637EA0105901097000004000000
B0505333209795S11657705EA0105301090000004000000
B0505373209773S11657776EA0104101074000004000000
B0505413209747S11657850EA0102501062000004000000
B0505453209721S11657923EA0101901059000004000000
B0505493209696S11657995EA0102201059000004000000
B0505533209673S11658066EA0102501064000004000000
B0505573209653S11658139EA0103701076000004000000
B0506013209673S11658196EA0106001102000004000000
B0506053209718S11658193EA0107701116000004000000
B0506093209738S11658134EA0108101123000004000000
B0506133209715S11658066EA0108301126000004000000
B0506173209660S11658026EA0108601127000004000000
B0506213209600S11658031EA0109501140000004000000
B0506253209575S11658080EA0110501149000004000000
B0506293209607S11658121EA0111201156000004000000
B0506333209656S11658101EA0111901163000004000000
B0506373209674S11658036EA0113001176000004000000
B0506413209655S11657966EA0113701180000004000000
B0506453209603S11657918EA0113901188000004000000
B0506493209544S11657923EA0115401203000004000000
B0506533209522S11657970EA0116401216000004000000
B0506573209559S11657997EA0118501236000004000000
B0507013209603S11657958EA0119501242000004000000
B0507053209598S11657883EA0120201252000004000000
B0507093209549S11657841EA0121501265000004000000
B0507133209501S11657862EA0122101268000004000000
B0507173209501S11657913EA0123201285000004000000
B0507213209542S11657937EA0125301303000004000000
B0507253209583S11657904EA0126501315000004000000
B0507293209585S11657832EA0126701315000004000000
B0507333209536S11657788EA0127201324000004000000
B0507373209491S11657814EA0128501338000004000000
B0507413209495S11657863EA0129701352000004000000
B0507453209544S11657872EA0131001360000004000000
B0507493209581S11657814EA0131801375000004000000
B0507533209566S11657741EA0132901379000004000000
B0507573209514S11657714EA0133201385000004000000
B0508013209474S11657753EA0134001395000004000000
B0508053209486S11657806EA0135001406000004000000
B0508093209542S11657827EA0135801410000004000000
B0508133209601S11657793EA0136201417000004000000
B0508173209633S11657719EA0136501413000004000000
B0508213209620S11657636EA0135501393000004000000
B0508253209565S11657580EA0133901386000004000000
B0508293209504S11657573EA0134001387000004000000
B0508333209461S11657614EA0134101393000004000000
B0508373209447S11657676EA0134601399000004000000
B0508413209477S11657728EA0135701412000004000000
B0508453209538S11657723EA0137001423000004000000
B0508493209578S11657660EA0137901432000004000000
B0508533209564S11657586EA0138201433000004000000
B0508573209510S11657558EA0138701441000004000000
B0509013209475S11657592EA0139801451000004000000
B0509053209491S11657640EA0140401457000004000000
B0509093209548S11657649EA0140501456000004000000
B0509133209598S11657602EA0140601456000004000000
B0509173209591S11657529EA0140101449000004000000
B0509213209543S11657489EA0139201441000004000000
B0509253209486S11657493EA0138901441000004000000
B0509293209455S11657540EA0139301446000004000000
B0509333209486S11657586EA0140101453000004000000
B0509373209544S11657580EA0140601456000004000000
B0509413209588S11657525EA0140001448000004000000
B0509453209594S11657451EA0139501443000004000000
B0509493209565S11657386EA0138901432000004000000
B0509533209512S11657342EA0137301416000004000000
B0509573209449S11657304EA0135901405000004000000
B0510013209380S11657273EA0135701411000004000000
B0510053209314S11657247EA0136701420000004000000
B0510093209267S11657272EA0137701431000004000000
B0510133209283S11657324EA0138801445000004000000
B0510173209340S11657307EA0140801467000004000000
B0510213209370S11657235EA0141901468000004000000
B0510253209345S11657160EA0141101460000004000000
B0510293209289S11657138EA0140901459000004000000
B0510333209236S11657157EA0140701452000004000000
B0510373209204S11657212EA0140301452000004000000
B0510413209222S11657274EA0141501468000004000000
B0510453209279S11657270EA0144101496000004000000
B0510493209297S11657195EA0145901512000004000000
B0510533209256S11657137EA0146201515000004000000
B0510573209202S11657156EA0146501518000004000000
B0511013209202S11657218EA0147201533000004000000
B0511053209250S11657250EA0149201550000004000000
B0511093209310S11657225EA0149701548000004000000
B0511133209338S11657147EA0149701550000004000000
B0511173209308S11657069EA0149701552000004000000
B0511213209248S11657043EA0150201556000004000000
B0511253209200S11657077EA0150601561000004000000
B0511293209214S11657126EA0152001577000004000000
B0511333209267S11657099EA0152701581000004000000
B0511373209271S11657014EA0153101585000004000000
B0511413209218S11656968EA0153001584000004000000
B0511453209172S11657001EA0152801583000004000000
B0511493209191S11657055EA0153901594000004000000
B0511533209249S11657048EA0154701601000004000000
B0511573209275S11656974EA0155301601000004000000
B0512013209243S11656903EA0154601593000004000000
B0512053209179S11656864EA0153001577000004000000
B0512093209104S11656839EA0150601548000004000000
B0512133209011S11656821EA0147501522000004000000
B0512173208910S11656812EA0145701503000004000000
B0512213208803S11656809EA0144201494000004000000
B0512253208697S11656810EA0144501503000004000000
B0512293208597S11656814EA0144701497000004000000
B0512333208498S11656819EA0144401495000004000000
B0512373208400S11656825EA0144101492000004000000
B0512413208305S11656828EA0143701488000004000000
B0512453208212S11656831EA0143501488000004000000
B0512493208121S11656832EA0143301487000004000000
B0512533208030S11656834EA0143001484000004000000
B0512573207940S11656834EA0142401476000004000000
B0513013207850S11656832EA0142101472000004000000
B0513053207763S11656823EA0141901470000004000000
B0513093207677S11656815EA0141501466000004000000
B0513133207593S11656812EA0141301461000004000000
B0513173207508S11656799EA0140601456000004000000
B0513213207425S11656776EA0140401451000004000000
B0513253207345S11656745EA0139401441000004000000
B0513293207265S11656715EA0139201439000004000000
B0513333207186S11656682EA0138201427000004000000
B0513373207105S11656654EA0137901423000004000000
B0513413207024S11656637EA0137201419000004000000
B0513453206940S11656626EA0137101419000004000000
B0513493206857S11656607EA0137201419000004000000
B0513533206775S11656589EA0136801414000004000000
B0513573206697S11656576EA0136501414000004000000
B0514013206618S11656559EA0136201407000004000000
B0514053206535S11656539EA0134801392000004000000
B0514093206449S11656513EA0133601382000004000000
B0514133206363S11656483EA0132701375000004000000
B0514173206279S11656448EA0132401372000004000000
B0514213206197S11656406EA0132701372000004000000
B0514253206115S11656371EA0132801374000004000000
B0514293206036S11656340EA0133101374000004000000
B0514333205958S11656308EA0132601367000004000000
B0514373205876S11656275EA0131501357000004000000
B0514413205794S11656241EA0130901351000004000000
B0514453205711S11656204EA0129901338000004000000
B0514493205627S11656164EA0128801329000004000000
B0514533205544S11656121EA0127801315000004000000
B0514573205464S11656068EA0126601306000004000000
B0515013205384S11656013EA0125801297000004000000
B0515053205301S11655964EA0125001287000004000000
B0515093205217S11655920EA0124601284000004000000
B0515133205133S11655874EA0123701274000004000000
B0515173205050S11655824EA0122901268000004000000
B0515213204970S11655772EA0122601265000004000000
B0515253204890S11655721EA0122101256000004000000
B0515293204807S11655688EA0120601236000004000000
B0515333204719S11655651EA0118501216000004000000
B0515373204646S11655575EA0116801199000004000000
B0515413204581S11655482EA0114901179000004000000
B0515453204512S11655389EA0113201169000004000000
B0515493204440S11655302EA0112301159000004000000
B0515533204365S11655224EA0111701159000004000000
B0515573204294S11655157EA0112701170000004000000
B0516013204219S11655099EA0112501162000004000000
B0516053204143S11655044EA0111901154000004000000
B0516093204065S11654992EA0111001144000004000000
B0516133203987S11654937EA0110001135000004000000
B0516173203910S11654885EA0109401129000004000000
B0516213203832S11654833EA0108801121000004000000
B0516253203754S11654785EA0107801108000004000000
B0516293203673S11654742EA0106801105000004000000
B0516333203594S11654702EA0106601100000004000000
B0516373203517S11654659EA0106001093000004000000
B0516413203441S11654621EA0105201088000004000000
B0516453203364S11654589EA0104901085000004000000
B0516493203289S11654560EA0104301072000004000000
B0516533203212S11654539EA0103601072000004000000
B0516573203150S11654560EA0105101086000004000000
B0517013203139S11654617EA0106101094000004000000
B0517053203189S11654642EA0106401099000004000000
B0517093203244S11654604EA0106801097000004000000
B0517133203263S11654522EA0105801088000004000000
B0517173203229S11654440EA0105401086000004000000
B0517213203178S11654369EA0105501093000004000000
B0517253203117S11654323EA0106901105000004000000
B0517293203078S11654362EA0107701113000004000000
B0517333203117S11654391EA0109501134000004000000
B0517373203161S11654351EA0111101144000004000000
B0517413203166S11654270EA0110501140000004000000
B0517453203118S11654210EA0110901147000004000000
B0517493203057S11654206EA0111301149000004000000
B0517533203017S11654248EA0111501155000004000000
B0517573203021S11654303EA0112801169000004000000
B0518013203069S11654322EA0114201183000004000000
B0518053203122S11654282EA0115501194000004000000
B0518093203146S11654202EA0115801192000004000000
B0518133203125S11654118EA0115501192000004000000
B0518173203066S11654072EA0115601192000004000000
B0518213203008S11654089EA0115001187000004000000
B0518253202984S11654152EA0115101191000004000000
B0518293203014S11654201EA0117201214000004000000
B0518333203069S11654187EA0119501235000004000000
B0518373203103S11654119EA0119901238000004000000
B0518413203091S11654035EA0120101239000004000000
B0518453203040S11653981EA0119701236000004000000
B0518493202979S11653991EA0119401229000004000000
B0518533202956S11654046EA0119101234000004000000
B0518573202969S11654104EA0120401249000004000000
B0519013203018S11654117EA0122301268000004000000
B0519053203066S11654063EA0122401263000004000000
B0519093203086S11653974EA0122301266000004000000
B0519133203065S11653892EA0122801270000004000000
B0519173203012S11653854EA0122401265000004000000
B0519213202958S11653866EA0121201250000004000000
B0519253202947S11653920EA0120101239000004000000
B0519293202974S11653978EA0119801244000004000000
B0519333203009S11654026EA0120801254000004000000
B0519373203049S11654067EA0121601257000004000000
B0519413203108S11654065EA0121601256000004000000
B0519453203138S11653998EA0121601253000004000000
B0519493203112S11653918EA0120701242000004000000
B0519533203053S11653854EA0119501230000004000000
B0519573202987S11653797EA0118401223000004000000
B0520013202918S11653742EA0117801218000004000000
B0520053202845S11653690EA0116301199000004000000
B0520093202770S11653641EA0115501196000004000000
B0520133202698S11653589EA0115901199000004000000
B0520173202627S11653537EA0116101202000004000000
B0520213202558S11653489EA0116801209000004000000
B0520253202492S11653442EA0116801204000004000000
B0520293202422S11653394EA0115501184000004000000
B0520333202344S11653347EA0113701169000004000000
B0520373202266S11653298EA0113401170000004000000
B0520413202189S11653251EA0114101181000004000000
B0520453202115S11653234EA0116701208000004000000
B0520493202082S11653289EA0118701230000004000000
B0520533202108S11653333EA0119901238000004000000
B0520573202159S11653317EA0120001238000004000000
B0521013202185S11653253EA0120401244000004000000
B0521053202172S11653177EA0120701247000004000000
B0521093202116S11653138EA0121501258000004000000
B0521133202089S11653187EA0123401277000004000000
B0521173202129S11653217EA0124101281000004000000
B0521213202172S11653170EA0124801287000004000000
B0521253202155S11653096EA0125701298000004000000
B0521293202094S11653068EA0126301306000004000000
B0521333202045S11653107EA0127701321000004000000
B0521373202047S11653170EA0129201332000004000000
B0521413202091S11653198EA0129801338000004000000
B0521453202139S11653166EA0130101338000004000000
B0521493202154S11653090EA0130201342000004000000
B0521533202113S11653027EA0130901354000004000000
B0521573202052S11653034EA0132101370000004000000
B0522013202042S11653092EA0133801383000004000000
B0522053202087S11653116EA0134301386000004000000
B0522093202121S11653062EA0134901394000004000000
B0522133202087S11652997EA0135501402000004000000
B0522173202026S11652996EA0136501418000004000000
B0522213202013S11653052EA0137901428000004000000
B0522253202056S11653077EA0138501433000004000000
B0522293202097S11653036EA0139201440000004000000
B0522333202091S11652967EA0139901448000004000000
B0522373202045S11652918EA0140101451000004000000
B0522413201982S11652912EA0141101463000004000000
B0522453201946S11652958EA0142301473000004000000
B0522493201959S11653016EA0142601477000004000000
B0522533202011S11653029EA0143001482000004000000
B0522573202048S11652980EA0143901495000004000000
B0523013202032S11652914EA0144901500000004000000
B0523053201974S11652884EA0144901501000004000000
B0523093201922S11652913EA0145501507000004000000
B0523133201917S11652973EA0146101513000004000000
B0523173201955S11653012EA0146701518000004000000
B0523213202003S11652997EA0147601527000004000000
B0523253202022S11652940EA0147701525000004000000
B0523293201994S11652875EA0146801516000004000000
B0523333201924S11652854EA0146001510000004000000
B0523373201843S11652853EA0145101498000004000000
B0523413201756S11652858EA0144101492000004000000
B0523453201666S11652866EA0143401480000004000000
B0523493201571S11652870EA0141901469000004000000
B0523533201475S11652867EA0141301466000004000000
B0523573201378S11652865EA0140701456000004000000
B0524013201279S11652865EA0139701450000004000000
B0524053201179S11652866EA0139601450000004000000
B0524093201081S11652870EA0139601450000004000000
B0524133200985S11652874EA0139501449000004000000
B0524173200894S11652878EA0139301444000004000000
B0524213200803S11652882EA0138801436000004000000
B0524253200712S11652882EA0137901426000004000000
B0524293200620S11652874EA0136801415000004000000
B0524333200526S11652858EA0136001408000004000000
B0524373200434S11652844EA0135301401000004000000
B0524413200340S11652828EA0134501392000004000000
B0524453200245S11652813EA0134001390000004000000
B0524493200154S11652792EA0134101394000004000000
B0524533200065S11652771EA0134001386000004000000
B0524573159975S11652754EA0133201379000004000000
B0525013159887S11652739EA0132301365000004000000
B0525053159797S11652723EA0131401362000004000000
B0525093159708S11652707EA0130901350000004000000
B0525133159620S11652693EA0130701353000004000000
B0525173159534S11652683EA0130701348000004000000
B0525213159447S11652670EA0129401337000004000000
B0525253159359S11652655EA0129001332000004000000
B0525293159269S11652642EA0128301323000004000000
B0525333159179S11652631EA0127401314000004000000
B0525373159091S11652615EA0126501306000004000000
B0525413159005S11652593EA0126101300000004000000
B0525453158923S11652562EA0125501292000004000000
B0525493158840S11652542EA0124801283000004000000
B0525533158753S11652536EA0122901265000004000000
B0525573158661S11652524EA0121401254000004000000
B0526013158568S11652501EA0121301251000004000000
B0526053158484S11652466EA0121101250000004000000
B0526093158399S11652431EA0121101249000004000000
B0526133158317S11652397EA0120601243000004000000
B0526173158234S11652362EA0119801231000004000000
B0526213158151S11652319EA0119101229000004000000
B0526253158069S11652277EA0118201214000004000000
B0526293157985S11652232EA0116601201000004000000
B0526333157903S11652187EA0117101210000004000000
B0526373157826S11652156EA0118001214000004000000
B0526413157751S11652161EA0117601206000004000000
B0526453157675S11652161EA0116901197000004000000
B0526493157600S11652132EA0115501184000004000000
B0526533157528S11652086EA0114401176000004000000
B0526573157454S11652037EA0113601166000004000000
B0527013157378S11651987EA0112401153000004000000
B0527053157297S11651934EA0110801135000004000000
B0527093157216S11651879EA0110101134000004000000
B0527133157137S11651827EA0109901133000004000000
B0527173157056S11651775EA0109301123000004000000
B0527213156975S11651721EA0108901127000004000000
B0527253156898S11651662EA0109101125000004000000
B0527293156822S11651601EA0108501120000004000000
B0527333156747S11651544EA0108201115000004000000
B0527373156670S11651485EA0107901110000004000000
B0527413156592S11651431EA0107001097000004000000
B0527453156507S11651394EA0105701084000004000000
B0527493156419S11651365EA0104401072000004000000
B0527533156332S11651339EA0103601067000004000000
B0527573156248S11651328EA0103701072000004000000
B0528013156169S11651327EA0103601066000004000000
B0528053156091S11651329EA0102901059000004000000
B0528093156010S11651329EA0102501053000004000000
B0528133155927S11651318EA0101601045000004000000
B0528173155844S11651298EA0101301043000004000000
B0528213155760S11651276EA0101201043000004000000
B0528253155678S11651251EA0101801049000004000000
B0528293155600S11651246EA0102001050000004000000
B0528333155551S11651292EA0103001060000004000000
B0528373155558S11651352EA0103701066000004000000
B0528413155607S11651374EA0104001067000004000000
B0528453155659S11651329EA0103501063000004000000
B0528493155672S11651245EA0103601066000004000000
B0528533155643S11651167EA0103201059000004000000
B0528573155582S11651110EA0102301053000004000000
B0529013155517S11651055EA0102101050000004000000
B0529053155443S11651011EA0102201053000004000000
B0529093155365S11651008EA0102201052000004000000
B0529133155304S11651046EA0102101051000004000000
B0529173155278S11651110EA0102101049000004000000
B0529213155279S11651177EA0101401041000004000000
B0529253155308S11651237EA0100301031000004000000
B0529293155353S11651281EA0099601023000004000000
B0529333155409S11651248EA0099501020000004000000
B0529373155411S11651157EA0098901016000004000000
B0529413155360S11651075EA0098001007000004000000
B0529453155290S11651006EA0096800993000004000000
B0529493155216S11650938EA0095800991000004000000
B0529533155145S11650873EA0095900990000004000000
B0529573155074S11650809EA0095200980000004000000
B0530013155002S11650743EA0094300971000004000000
B0530053154931S11650677EA0093300961000004000000
B0530093154859S11650614EA0093100962000004000000
B0530133154788S11650553EA0093100959000004000000
B0530173154711S11650505EA0092600955000004000000
B0530213154640S11650448EA0092900965000004000000
B0530253154583S11650375EA0094300977000004000000
B0530293154518S11650335EA0095600988000004000000
B0530333154484S11650380EA0096000986000004000000
B0530373154519S11650418EA0096400999000004000000
B0530413154564S11650391EA0098301017000004000000
B0530453154575S11650321EA0099601026000004000000
B0530493154540S11650256EA0100301031000004000000
B0530533154481S11650241EA0100401031000004000000
B0530573154434S11650275EA0099201016000004000000
B0531013154430S11650335EA0098201013000004000000
B0531053154453S11650392EA0098501014000004000000
B0531093154502S11650395EA0099301027000004000000
B0531133154529S11650328EA0100601038000004000000
B0531173154505S11650248EA0101201044000004000000
B0531213154443S11650218EA0102101057000004000000
B0531253154406S11650256EA0103201064000004000000
B0531293154427S11650295EA0103501066000004000000
B0531333154475S11650280EA0104101074000004000000
B0531373154494S11650214EA0105301085000004000000
B0531413154469S11650140EA0106301095000004000000
B0531453154412S11650097EA0106701097000004000000
B0531493154350S11650100EA0106401093000004000000
B0531533154320S11650149EA0105501086000004000000
B0531573154326S11650210EA0105201084000004000000
B0532013154342S11650270EA0105401084000004000000
B0532053154367S11650323EA0105001083000004000000
B0532093154415S11650330EA0105801089000004000000
B0532133154450S11650273EA0106001083000004000000
B0532173154433S11650189EA0105101075000004000000
B0532213154380S11650117EA0104301069000004000000
B0532253154317S11650041EA0104301075000004000000
B0532293154252S11649968EA0104401076000004000000
B0532333154186S11649902EA0104501076000004000000
B0532373154112S11649851EA0104101072000004000000
B0532413154040S11649806EA0103601069000004000000
B0532453153970S11649756EA0103801070000004000000
B0532493153904S11649702EA0103501066000004000000
B0532533153842S11649637EA0102701056000004000000
B0532573153780S11649564EA0102001048000004000000
B0533013153723S11649486EA0100701036000004000000
B0533053153666S11649408EA0100201033000004000000
B0533093153609S11649334EA0100101034000004000000
B0533133153552S11649264EA0100201030000004000000
B0533173153492S11649194EA0099501021000004000000
B0533213153432S11649121EA0098701015000004000000
B0533253153374S11649048EA0098201010000004000000
B0533293153318S11648976EA0098201012000004000000
B0533333153262S11648909EA0098201008000004000000
B0533373153205S11648841EA0096900993000004000000
B0533413153145S11648768EA0095300977000004000000
B0533453153085S11648693EA0094200966000004000000
B0533493153029S11648611EA0093100956000004000000
B0533533152977S11648528EA0092000940000004000000
B0533573152928S11648442EA0090400926000004000000
B0534013152881S11648352EA0089200917000004000000
B0534053152839S11648261EA0088800912000004000000
B0534093152800S11648169EA0088700914000000000000
B0534133152761S11648077EA0089500920000004000000
B0534173152720S11647985EA0089800930000000000000
B0534213152675S11647894EA0091800953000004000000
B0534253152691S11647819EA0094700987000004000000
B0534293152729S11647848EA0097201006000004000000
B0534333152685S11647894EA0099001027000004000000
B0534373152629S11647848EA0100801041000004000000
B0534413152633S11647774EA0101901050000004015000
B0534453152681S11647753EA0102801061000004015000
B0534493152708S11647797EA0104701081000004015000
B0534533152668S11647840EA0106501095000004015000
B0534573152600S11647806EA0108201116000004015000
B0535013152594S11647736EA0110701139000004015000
B0535053152634S11647709EA0111301143000004015000
B0535093152668S11647747EA0112201153000004015000
B0535133152640S11647803EA0114001173000004015000
B0535173152574S11647804EA0116001198000004015000
B0535213152540S11647738EA0117601209000004015000
B0535253152570S11647679EA0118601224000004015000
B0535293152616S11647679EA0120601241000004015000
B0535333152634S11647725EA0121901252000004015000
B0535373152597S11647775EA0122901263000004015000
B0535413152532S11647775EA0124401283000004015000
B0535453152487S11647715EA0126101297000004000000
B0535493152500S11647643EA0126901310000004000000
B0535533152549S11647630EA0128801328000004000000
B0535573152574S11647674EA0130201342000004000000
B0536013152549S11647731EA0131201355000004000000
B0536053152490S11647748EA0132701369000004000000
B0536093152434S11647708EA0134301387000004000000
B0536133152422S11647623EA0135501397000004000000
B0536173152464S11647576EA0137001420000004000000
B0536213152499S11647606EA0139001433000004000000
B0536253152482S11647666EA0139801442000004000000
B0536293152426S11647696EA0141201461000004000000
B0536333152362S11647673EA0144001488000004000000
B0536373152317S11647611EA0145501500000004000000
B0536413152308S11647530EA0146501510000004000000
B0536453152335S11647467EA0148001527000004000000
B0536493152383S11647463EA0148901534000004000000
B0536533152402S11647513EA0149301537000004000000
B0536573152366S11647565EA0149801542000004000000
B0537013152296S11647556EA0150201548000004000000
B0537053152253S11647481EA0151301561000004000000
B0537093152269S11647403EA0152401574000004000000
B0537133152315S11647381EA0153301583000004000000
B0537173152347S11647419EA0153901583000004000000
B0537213152322S11647476EA0154101588000004000000
B0537253152257S11647484EA0154201588000004000000
B0537293152201S11647427EA0155201602000004000000
B0537333152189S11647344EA0155901608000004000000
B0537373152227S11647284EA0156501613000004000000
B0537413152278S11647286EA0156701611000004000000
B0537453152293S11647340EA0156201604000004000000
B0537493152254S11647394EA0155901608000004000000
B0537533152185S11647401EA0156701614000004000000
B0537573152123S11647350EA0157701627000004000000
B0538013152100S11647266EA0158101629000004000000
B0538053152131S11647194EA0158001628000004000000
B0538093152185S11647186EA0158401631000004000000
B0538133152213S11647231EA0158201630000004000000
B0538173152187S11647280EA0158201629000004000000
B0538213152120S11647276EA0158001622000004000000
B0538253152059S11647214EA0157201615000004000000
B0538293152003S11647128EA0156601612000004000000
B0538333151947S11647041EA0156101608000004000000
B0538373151886S11646956EA0155001596000004000000
B0538413151821S11646872EA0153601582000004000000
B0538453151755S11646786EA0152701575000004000000
B0538493151689S11646700EA0152001561000004000000
B0538533151620S11646609EA0150701552000004000000
B0538573151551S11646521EA0150201552000004000000
B0539013151482S11646438EA0150201546000004000000
B0539053151409S11646356EA0149001536000004000000
B0539093151334S11646279EA0148401531000004000000
B0539133151256S11646207EA0147801525000004000000
B0539173151177S11646135EA0147001515000004000000
B0539213151097S11646062EA0146201506000004000000
B0539253151017S11645990EA0145401500000004000000
B0539293150936S11645925EA0145201496000004000000
B0539333150855S11645864EA0144601490000004000000
B0539373150772S11645810EA0144301487000004000000
B0539413150689S11645760EA0143901485000004000000
B0539453150606S11645715EA0143801481000004000000
B0539493150524S11645672EA0143401478000004000000
B0539533150442S11645628EA0143401477000004000000
B0539573150359S11645589EA0142901470000004000000
B0540013150274S11645551EA0142101463000004000000
B0540053150191S11645515EA0141501458000004000000
B0540093150108S11645477EA0141401458000004000000
B0540133150029S11645439EA0141001451000004000000
B0540173149952S11645403EA0141301455000004000000
B0540213149875S11645366EA0141601458000004000000
B0540253149801S11645331EA0141501455000004000000
B0540293149726S11645296EA0141001445000004000000
B0540333149646S11645266EA0139801438000004000000
B0540373149566S11645240EA0139301431000004000000
B0540413149483S11645217EA0138901425000004000000
B0540453149401S11645196EA0138401422000004000000
B0540493149319S11645183EA0138101418000004000000
B0540533149236S11645171EA0137301409000004000000
B0540573149154S11645160EA0136801407000004000000
B0541013149073S11645151EA0136901406000004000000
B0541053148995S11645139EA0136501400000004000000
B0541093148916S11645123EA0135901394000004000000
B0541133148835S11645114EA0135201388000004000000
B0541173148753S11645110EA0134801383000004000000
B0541213148671S11645109EA0134001375000004000000
B0541253148591S11645109EA0133501371000004000000
B0541293148509S11645110EA0132401360000004000000
B0541333148427S11645114EA0132201358000004000000
B0541373148348S11645117EA0131601348000004000000
B0541413148267S11645121EA0130901344000004000000
B0541453148190S11645122EA0130601338000004000000
B0541493148112S11645119EA0130101335000004000000
B0541533148034S11645114EA0129601332000004000000
B0541573147959S11645114EA0129701331000004000000
B0542013147882S11645118EA0129301327000004000000
B0542053147803S11645117EA0129301327000004000000
B0542093147724S11645101EA0129201327000004000000
B0542133147647S11645088EA0129801335000004000000
B0542173147573S11645074EA0131101353000004000000
B0542213147514S11645101EA0132701366000004000000
B0542253147517S11645164EA0133101367000004000000
B0542293147568S11645177EA0133901379000004000000
B0542333147605S11645122EA0135101389000004000000
B0542373147599S11645047EA0135401388000004000000
B0542413147542S11645005EA0135801396000004000000
B0542453147482S11645022EA0136801407000004000000
B0542493147466S11645080EA0137601412000004000000
B0542533147507S11645113EA0138001418000004000000
B0542573147550S11645070EA0138301420000004000000
B0543013147547S11644991EA0138201418000004000000
B0543053147499S11644926EA0138601429000004000000
B0543093147435S11644915EA0140201442000004000000
B0543133147407S11644962EA0140401442000004000000
B0543173147433S11645006EA0140601450000004000000
B0543213147483S11645001EA0141501454000004000000
B0543253147517S11644943EA0141201450000004000000
B0543293147503S11644863EA0141201456000004000000
B0543333147449S11644805EA0142001461000004000000
B0543373147379S11644784EA0141701459000004000000
B0543413147303S11644790EA0141201455000004000000
B0543453147222S11644802EA0141401459000004000000
B0543493147140S11644819EA0141701463000004000000
B0543533147057S11644837EA0142101464000004000000
B0543573146974S11644859EA0141801457000004000000
B0544013146885S11644880EA0141001451000004000000
B0544053146797S11644900EA0139901442000004000000
B0544093146708S11644920EA0139301438000004000000
B0544133146620S11644940EA0138601432000004000000
B0544173146534S11644959EA0138701431000004000000
B0544213146448S11644976EA0138201425000004000000
B0544253146363S11644991EA0137701417000004000000
B0544293146278S11645005EA0137101413000004000000
B0544333146195S11645017EA0136701406000004000000
B0544373146114S11645032EA0136301402000004000000
B0544413146038S11645043EA0135701394000004000000
B0544453145962S11645054EA0135301392000004000000
B0544493145886S11645070EA0135501395000004000000
B0544533145809S11645073EA0136201402000004000000
B0544573145730S11645063EA0137101414000004000000
B0545013145654S11645060EA0138201424000004000000
B0545053145597S11645087EA0138901428000004000000
B0545093145598S11645143EA0139001431000004000000
B0545133145646S11645152EA0139201433000004000000
B0545173145688S11645095EA0139601439000004000000
B0545213145689S11645005EA0140401443000004000000
B0545253145649S11644928EA0140401438000004000000
B0545293145581S11644876EA0139901438000004000000
B0545333145512S11644833EA0140601448000004000000
B0545373145440S11644803EA0140601443000004000000
B0545413145360S11644797EA0139901436000004000000
B0545453145278S11644803EA0138701420000004000000
B0545493145190S11644816EA0136901406000004000000
B0545533145099S11644836EA0135701397000004000000
B0545573145009S11644857EA0135401392000004000000
B0546013144920S11644881EA0135001389000004000000
B0546053144834S11644913EA0134001376000004000000
B0546093144745S11644948EA0132501364000004000000
B0546133144657S11644983EA0131601354000004000000
B0546173144571S11645018EA0130901343000004000000
B0546213144483S11645057EA0129401330000004000000
B0546253144396S11645096EA0128301323000004000000
B0546293144311S11645128EA0128301324000004000000
B0546333144228S11645160EA0128501324000004000000
B0546373144147S11645190EA0128401322000004000000
B0546413144066S11645221EA0127701314000004000000
B0546453143982S11645249EA0126201295000004000000
B0546493143897S11645277EA0124701279000004000000
B0546533143812S11645301EA0123601270000004000000
B0546573143729S11645326EA0123601276000004000000
B0547013143652S11645348EA0124101273000004000000
B0547053143575S11645375EA0122901253000004000000
B0547093143495S11645400EA0122401263000004000000
B0547133143418S11645422EA0124301284000004000000
B0547173143348S11645443EA0125501286000004000000
B0547213143282S11645470EA0125001281000004000000
B0547253143230S11645517EA0124501277000004000000
B0547293143195S11645580EA0123601265000004000000
B0547333143145S11645641EA0122601257000004000000
B0547373143084S11645693EA0122101253000004000000
B0547413143015S11645737EA0121101240000004000000
B0547453142936S11645775EA0119501223000004000000
B0547493142853S11645808EA0118301214000004000000
B0547533142768S11645842EA0117701208000004000000
B0547573142686S11645875EA0117401202000004000000
B0548013142604S11645907EA0116801195000004000000
B0548053142520S11645940EA0115601184000004000000
B0548093142434S11645972EA0114501175000004000000
B0548133142347S11645999EA0113401166000004000000
B0548173142259S11646025EA0113401165000004000000
B0548213142170S11646049EA0113101163000004000000
B0548253142080S11646068EA0113101165000004000000
B0548293141992S11646088EA0113301166000004000000
B0548333141905S11646110EA0112901158000004000000
B0548373141823S11646135EA0112901169000004000000
B0548413141776S11646189EA0114801187000004000000
B0548453141800S11646235EA0116801201000004000000
B0548493141848S11646220EA0117301202000004000000
B0548533141882S11646155EA0116501187000004000000
B0548573141866S11646070EA0115001175000004000000
B0549013141805S11646011EA0113701161000004000000
B0549053141728S11645981EA0113801166000004000000
B0549093141650S11645960EA0113401159000004000000
B0549133141568S11645954EA0113001161000004000000
B0549173141488S11645957EA0113901171000004000000
B0549213141410S11645968EA0114901179000004000000
B0549253141378S11646019EA0116201193000004000000
B0549293141423S11646031EA0117301202000004000000
B0549333141458S11645976EA0117201198000004000000
B0549373141445S11645897EA0117101202000004000000
B0549413141395S11645840EA0117801206000004000000
B0549453141330S11645821EA0118201214000004000000
B0549493141286S11645850EA0119001220000004000000
B0549533141284S11645898EA0118901220000004000000
B0549573141325S11645925EA0118801219000004000000
B0550013141377S11645897EA0119301223000004000000
B0550053141398S11645825EA0119501222000004000000
B0550093141365S11645758EA0119701225000004000000
B0550133141300S11645738EA0119501221000004000000
B0550173141232S11645746EA0118501214000004000000
B0550213141161S11645762EA0118301213000004000000
B0550253141090S11645778EA0118201216000004000000
B0550293141021S11645798EA0118901220000004000000
B0550333140951S11645828EA0117701205000004000000
B0550373140873S11645855EA0116401192000004000000
B0550413140791S11645881EA0115101181000004000000
B0550453140709S11645906EA0114801179000004000000
B0550493140631S11645936EA0114301168000004000000
B0550533140548S11645963EA0112801153000004000000
B0550573140459S11645985EA0111001136000004000000
B0551013140368S11646003EA0109801128000004000000
B0551053140283S11646024EA0109201119000004000000
B0551093140195S11646048EA0107401099000004000000
B0551133140106S11646075EA0105601081000004000000
B0551173140019S11646103EA0104701073000004000000
B0551213139935S11646131EA0103701061000004000000
B0551253139851S11646157EA0102801049000004000000
B0551293139769S11646184EA0101601034000004000000
B0551333139686S11646209EA0100301020000004000000
B0551373139603S11646233EA0099201016000004000000
B0551413139523S11646261EA0099501019000004000000
B0551453139447S11646298EA0099701023000004000000
B0551493139375S11646339EA0100501029000004000000
B0551533139322S11646393EA0101001036000004000000
B0551573139308S11646458EA0102101045000004000000
B0552013139311S11646518EA0102401046000004000000
B0552053139326S11646577EA0101701030000004000000
B0552093139358S11646630EA0100701027000004000000
B0552133139400S11646673EA0100101019000004000000
B0552173139430S11646731EA0099501012000004000000
B0552213139422S11646802EA0098100996000004000000
B0552253139373S11646859EA0097200989000004000000
B0552293139302S11646885EA0096500980000004000000
B0552333139219S11646883EA0095600967000004000000
B0552373139131S11646868EA0094100951000004000000
B0552413139038S11646846EA0093100950000004000000
B0552453138945S11646825EA0093600953000004000000
B0552493138856S11646807EA0093200951000004000000
B0552533138771S11646789EA0093000947000004000000
B0552573138684S11646773EA0091900936000004000000
B0553013138600S11646753EA0091600934000004000000
B0553053138521S11646735EA0091200929000004000000
B0553093138443S11646720EA0091000924000004000000
B0553133138364S11646707EA0090000912000004000000
B0553173138283S11646708EA0088900902000004000000
B0553213138217S11646742EA0088200898000004000000
B0553253138182S11646803EA0087700893000004000000
B0553293138171S11646872EA0087000881000004000000
B0553333138175S11646946EA0086300880000004000000
B0553373138199S11647012EA0087200887000004000000
B0553413138234S11647065EA0088000895000004000000
B0553453138287S11647052EA0088500896000004000000
B0553493138317S11646977EA0087700884000004000000
B0553533138295S11646891EA0087300881000004000000
B0553573138235S11646842EA0086900876000004000000
B0554013138167S11646848EA0086800879000004000000
B0554053138132S11646898EA0087400885000004000000
B0554093138157S11646941EA0087600889000004000000
B0554133138210S11646925EA0087900890000004000000
B0554173138245S11646857EA0087500885000004000000
B0554213138230S11646773EA0087800886000004000000
B0554253138173S11646730EA0088000888000004000000
B0554293138117S11646748EA0087800889000004000000
B0554333138089S11646802EA0087800892000004000000
B0554373138092S11646864EA0087500886000004000000
B0554413138121S11646919EA0086900884000004000000
B0554453138165S11646968EA0085800869000004000000
B0554493138213S11647021EA0084400860000004000000
B0554533138257S11647076EA0084200856000004000000
B0554573138301S11647132EA0083400847000004000000
B0555013138342S11647193EA0083100846000004000000
B0555053138382S11647249EA0083100846000004000000
B0555093138425S11647298EA0083000844000004000000
B0555133138470S11647346EA0082200834000004000000
B0555173138511S11647403EA0081100824000004000000
B0555213138538S11647470EA0080300816000004000000
B0555253138556S11647543EA0079200806000004000000
B0555293138567S11647617EA0078500797000004000000
B0555333138573S11647692EA0077900795000004000000
B0555373138590S11647758EA0077900792000004000000
B0555413138616S11647818EA0077100779000004000000
B0555453138628S11647890EA0076500776000004000000
B0555493138633S11647965EA0075400764000004000000
B0555533138635S11648040EA0075000765000004000000
B0555573138637S11648115EA0074800760000004000000
B0556013138639S11648189EA0074400755000004000000
B0556053138639S11648264EA0074000751000004000000
B0556093138638S11648339EA0073900750000004000000
B0556133138638S11648414EA0073900752000004000000
B0556173138665S11648471EA0075300769000004000000
B0556213138715S11648447EA0077000789000004000000
B0556253138720S11648369EA0077800788000004000000
B0556293138669S11648323EA0077900791000004000000
B0556333138613S11648339EA0077600788000004000000
B0556373138598S11648394EA0077500791000004000000
B0556413138637S11648421EA0078600805000004000000
B0556453138673S11648368EA0079400810000004000000
B0556493138646S11648289EA0078800803000004000000
B0556533138578S11648269EA0078800803000004000000
B0556573138529S11648312EA0078600802000004000000
B0557013138529S11648376EA0079000809000004000000
B0557053138574S11648394EA0080300822000004000000
B0557093138602S11648329EA0081500834000004000000
B0557133138565S11648260EA0081400830000004000000
B0557173138499S11648255EA0081200831000004000000
B0557213138469S11648308EA0081800840000004000000
B0557253138487S11648360EA0082100842000004000000
B0557293138538S11648354EA0083000852000004000000
B0557333138561S11648284EA0083500856000004000000
B0557373138533S11648204EA0083300852000004000000
B0557413138468S11648182EA0083500857000004000000
B0557453138414S11648213EA0083900861000004000000
B0557493138394S11648276EA0083500854000004000000
B0557533138413S11648338EA0083300854000004000000
B0557573138460S11648324EA0084300863000004000000
B0558013138452S11648246EA0084300860000004000000
B0558053138391S11648200EA0084500871000004000000
B0558093138340S11648230EA0085700877000004000000
B0558133138347S11648280EA0086100879000004000000
B0558173138395S11648265EA0086100879000004000000
B0558213138413S11648193EA0086400884000004000000
B0558253138377S11648128EA0087900901000004000000
B0558293138318S11648117EA0089300913000004000000
B0558333138275S11648155EA0088800904000004000000
B0558373138279S11648208EA0088800908000004000000
B0558413138323S11648220EA0089300910000004000000
B0558453138362S11648170EA0089200908000004000000
B0558493138352S11648094EA0089400914000004000000
B0558533138309S11648026EA0090000923000004000000
B0558573138248S11648029EA0091200936000004000000
B0559013138231S11648082EA0091100929000004000000
B0559053138266S11648113EA0091200935000004000000
B0559093138314S11648087EA0091600938000004000000
B0559133138338S11648016EA0092200945000004000000
B0559173138300S11647943EA0093000959000004000000
B0559213138245S11647957EA0094800979000004000000
B0559253138245S11648008EA0095400976000004000000
B0559293138290S11648005EA0095600981000004000000
B0559333138303S11647933EA0096700997000004000000
B0559373138258S11647878EA0098501017000004000000
B0559413138206S11647891EA0099501022000004000000
B0559453138195S11647944EA0099201018000004000000
B0559493138234S11647965EA0099001017000004000000
B0559533138269S11647908EA0100101032000004000000
B0559573138251S11647834EA0101001040000004000000
B0600013138193S11647806EA0102201053000004000000
B0600053138151S11647840EA0102901054000004000000
B0600093138162S11647887EA0102601051000004000000
B0600133138209S11647877EA0102401050000004000000
B0600173138249S11647816EA0102701052000004000000
B0600213138245S11647731EA0103001053000004000000
B0600253138188S11647683EA0103301060000004000000
B0600293138132S11647701EA0104501073000004000000
B0600333138114S11647754EA0105201078000004000000
B0600373138148S11647784EA0105701083000004000000
B0600413138191S11647743EA0106801094000004000000
B0600453138184S11647663EA0107501099000004000000
B0600493138127S11647622EA0107601104000004000000
B0600533138083S11647658EA0108601115000004000000
B0600573138108S11647701EA0109201124000004000000
B0601013138153S11647669EA0110601137000004000000
B0601053138149S11647589EA0111201139000004000000
B0601093138093S11647539EA0111401146000004000000
B0601133138030S11647544EA0111801143000004000000
B0601173137991S11647592EA0110501127000004000000
B0601213138002S11647650EA0109201116000004000000
B0601253138054S11647673EA0109201119000004000000
B0601293138117S11647673EA0109701123000004000000
B0601333138179S11647636EA0109101116000004000000
B0601373138190S11647554EA0109301118000004000000
B0601413138140S11647484EA0107801097000004000000
B0601453138063S11647480EA0106701091000004000000
B0601493138021S11647533EA0107901106000004000000
B0601533138017S11647601EA0108801118000004000000
B0601573138034S11647666EA0109201111000004000000
B0602013138062S11647734EA0107201088000004000000
B0602053138097S11647806EA0105401076000004000000
B0602093138136S11647875EA0105701084000004000000
B0602133138175S11647934EA0107601106000004000000
B0602173138225S11647930EA0110101124000004000000
B0602213138235S11647849EA0110501129000004000000
B0602253138186S11647771EA0111101135000004000000
B0602293138110S11647752EA0111901143000004000000
B0602333138050S11647786EA0112801153000004000000
B0602373138031S11647842EA0113601162000004000000
B0602413138065S11647860EA0114501169000004000000
B0602453138099S11647801EA0114201165000004000000
B0602493138078S11647717EA0114001165000004000000
B0602533138010S11647653EA0114201172000004000000
B0602573137945S11647663EA0116001193000004000000
B0603013137939S11647713EA0117501202000004000000
B0603053137976S11647722EA0117701206000004000000
B0603093138000S11647662EA0118601217000004000000
B0603133137963S11647593EA0119201221000004000000
B0603173137893S11647574EA0119501227000004000000
B0603213137842S11647611EA0119901225000004000000
B0603253137832S11647675EA0118301208000004000000
B0603293137839S11647749EA0117601205000004000000
B0603333137848S11647823EA0118701219000004000000
B0603373137863S11647890EA0119501225000004000000
B0603413137883S11647956EA0119601225000004000000
B0603453137906S11648021EA0119801227000004000000
B0603493137932S11648086EA0120001229000004000000
B0603533137961S11648152EA0120301228000004000000
B0603573137992S11648220EA0119501220000004000000
B0604013138031S11648289EA0118701208000004000000
B0604053138073S11648363EA0116501191000004000000
B0604093138112S11648438EA0115301180000004000000
B0604133138149S11648514EA0115101176000004000000
B0604173138186S11648586EA0114601167000004000000
B0604213138221S11648661EA0113301154000004000000
B0604253138255S11648736EA0113001151000004000000
B0604293138284S11648811EA0111901139000004000000
B0604333138320S11648882EA0111701139000004000000
B0604373138359S11648945EA0111301133000004000000
B0604413138396S11649010EA0110001117000004000000
B0604453138424S11649087EA0108801105000004000000
B0604493138444S11649168EA0108101102000004000000
B0604533138469S11649240EA0108201105000004000000
B0604573138496S11649313EA0108701108000004000000
B0605013138525S11649385EA0110401136000004000000
B0605053138576S11649391EA0113301158000004000000
B0605093138583S11649321EA0113701158000004000000
B0605133138521S11649279EA0114701177000004000000
B0605173138469S11649314EA0117501204000004000000
B0605213138485S11649360EA0119501218000004000000
B0605253138530S11649350EA0119401214000004000000
B0605293138546S11649283EA0119301215000004000000
B0605333138502S11649222EA0120001226000004000000
B0605373138440S11649235EA0122201250000004000000
B0605413138443S11649288EA0123501264000004000000
B0605453138490S11649285EA0124201268000004000000
B0605493138505S11649217EA0124401272000004000000
B0605533138463S11649155EA0125101286000004000000
B0605573138394S11649136EA0126901302000004000000
B0606013138339S11649173EA0128001314000004000000
B0606053138323S11649238EA0129201329000004000000
B0606083138343S11649277EA0130201334000004000000
B0606133138405S11649292EA0129701326000004000000
B0606173138455S11649246EA0128601313000004000000
B0606213138485S11649169EA0128301314000004000000
B0606253138469S11649083EA0128801320000004000000
B0606293138420S11649015EA0130501339000004000000
B0606333138356S11649013EA0131901359000004000000
B0606373138333S11649065EA0133801375000004000000
B0606413138361S11649100EA0135201387000004000000
B0606453138407S11649087EA0135601387000004000000
B0606493138433S11649026EA0135401390000004000000
B0606533138416S11648950EA0136501403000004000000
B0606573138361S11648905EA0137501410000004000000
B0607013138300S11648911EA0138201417000004000000
B0607053138265S11648961EA0139001429000004000000
B0607093138284S11649006EA0140301440000004000000
B0607133138330S11648997EA0140601440000004000000
B0607173138356S11648934EA0140101440000004000000
B0607213138331S11648862EA0141001452000004000000
B0607253138270S11648835EA0142101458000004000000
B0607293138214S11648859EA0142701467000004000000
B0607333138208S11648913EA0143501476000004000000
B0607373138251S11648934EA0144201482000004000000
B0607413138297S11648896EA0143501470000004000000
B0607453138301S11648815EA0143201473000004000000
B0607493138253S11648753EA0144801489000004000000
B0607533138190S11648732EA0145801497000004000000
B0607573138134S11648758EA0146801501000004000000
B0608013138108S11648811EA0147301511000004000000
B0608053138121S11648862EA0148101516000004000000
B0608093138166S11648884EA0147001502000004000000
B0608133138219S11648845EA0145301487000004000000
B0608173138229S11648766EA0145001485000004000000
B0608213138190S11648693EA0144901489000004000000
B0608253138130S11648661EA0146101507000004000000
B0608293138078S11648683EA0147401513000004000000
B0608333138069S11648733EA0147301514000004000000
B0608373138115S11648733EA0147101507000004000000
B0608413138144S11648659EA0147101513000004000000
B0608453138113S11648586EA0148401526000004000000
B0608493138053S11648577EA0148701527000004000000
B0608533138028S11648627EA0148301523000004000000
B0608573138044S11648681EA0148001524000004000000
B0609013138075S11648733EA0147101505000004000000
B0609053138112S11648794EA0144501478000004000000
B0609093138149S11648870EA0141801455000004000000
B0609133138183S11648952EA0140601446000004000000
B0609173138221S11649034EA0139501432000004000000
B0609213138258S11649122EA0137601413000004000000
B0609253138291S11649217EA0136401403000004000000
B0609293138320S11649312EA0136301403000004000000
B0609333138344S11649411EA0135201387000004000000
B0609373138365S11649511EA0134601381000004000000
B0609413138383S11649607EA0134201379000004000000
B0609453138398S11649699EA0134501384000004000000
B0609493138414S11649789EA0134301378000004000000
B0609533138430S11649881EA0133401366000004000000
B0609573138455S11649970EA0133001367000004000000
B0610013138479S11650055EA0133301369000004000000
B0610053138499S11650140EA0133701372000004000000
B0610093138513S11650223EA0133301369000004000000
B0610133138530S11650310EA0132801359000004000000
B0610173138547S11650396EA0132001351000004000000
B0610213138557S11650486EA0131201346000004000000
B0610253138567S11650577EA0130501338000004000000
B0610293138576S11650665EA0129601328000004000000
B0610333138582S11650755EA0128401316000004000000
B0610373138586S11650846EA0127401306000004000000
B0610413138589S11650936EA0126401294000004000000
B0610453138607S11651024EA0125301278000004000000
B0610493138638S11651111EA0123201257000004000000
B0610533138660S11651210EA0121201239000004000000
B0610573138671S11651313EA0120001228000004000000
B0611013138680S11651411EA0119501226000004000000
B0611053138686S11651508EA0119101220000004000000
B0611093138691S11651602EA0119201221000004000000
B0611133138712S11651690EA0119201218000004000000
B0611173138743S11651769EA0119501226000004000000
B0611213138775S11651843EA0119901226000004000000
B0611253138810S11651917EA0119401221000004000000
B0611293138845S11651992EA0118801213000004000000
B0611333138881S11652065EA0118701219000004000000
B0611373138914S11652135EA0120501241000004000000
B0611413138940S11652198EA0122401255000004000000
B0611453138963S11652260EA0122701258000004000000
B0611493138990S11652325EA0122701253000004000000
B0611533139023S11652392EA0121601240000004000000
B0611573139067S11652458EA0120701226000004000000
B0612013139119S11652524EA0118301199000004000000
B0612053139165S11652603EA0116401185000004000000
B0612093139198S11652688EA0115701184000004000000
B0612133139228S11652770EA0115401178000004000000
B0612173139261S11652849EA0114401165000004000000
B0612213139293S11652927EA0113801166000004000000
B0612253139328S11653001EA0114301171000004000000
B0612293139365S11653069EA0114701172000004000000
B0612333139406S11653135EA0114601170000004000000
B0612373139435S11653208EA0115001177000004000000
B0612413139464S11653278EA0115701186000004000000
B0612453139492S11653344EA0116001184000004000000
B0612493139521S11653417EA0115401175000004000000
B0612533139560S11653487EA0114901175000004000000
B0612573139600S11653552EA0115101177000004000000
B0613013139636S11653616EA0114901168000004000000
B0613053139677S11653685EA0112901150000004000000
B0613093139721S11653757EA0111501136000004000000
B0613133139755S11653835EA0110701131000004000000
B0613173139790S11653903EA0111401142000004000000
B0613213139826S11653966EA0111501136000004000000
B0613253139865S11654028EA0110001117000004000000
B0613293139906S11654095EA0108801108000004000000
B0613333139952S11654154EA0107701097000004000000
B0613373139991S11654226EA0106101075000004000000
B0613413140023S11654309EA0104201063000004000000
B0613453140062S11654384EA0103701060000004000000
B0613493140106S11654452EA0103001051000004000000
B0613533140150S11654522EA0101601031000004000000
B0613573140184S11654604EA0100101019000004000000
B0614013140208S11654691EA0100101017000004000000
B0614053140219S11654786EA0098900997000004000000
B0614093140219S11654885EA0099001010000004000000
B0614133140242S11654968EA0099601012000004000000
B0614173140280S11655040EA0098701000000004000000
B0614213140327S11655107EA0098000998000004000000
B0614253140372S11655166EA0098101000000004000000
B0614293140416S11655223EA0097600992000004000000
B0614333140454S11655291EA0096500978000004000000
B0614373140481S11655369EA0095600970000004000000
B0614413140497S11655452EA0095100964000004000000
B0614453140489S11655536EA0094100951000004000000
B0614493140463S11655617EA0092700939000004000000
B0614533140433S11655696EA0091600928000004000000
B0614573140403S11655773EA0090600917000004000000
B0615013140377S11655850EA0089600909000004000000
B0615053140350S11655925EA0088900898000004000000
B0615093140324S11655999EA0087900884000004000000
B0615133140297S11656074EA0086100867000004000000
B0615173140270S11656155EA0085100859000004000000
B0615213140270S11656230EA0085800874000004000000
B0615253140316S11656249EA0087400884000004000000
B0615293140358S11656197EA0087100875000004000000
B0615333140413S11656159EA0086100869000004000000
B0615373140467S11656182EA0086100872000004000000
B0615413140513S11656223EA0085200860000004000000
B0615453140566S11656259EA0084100850000004000000
B0615493140622S11656294EA0084100854000004000000
B0615533140675S11656325EA0084600860000004000000
B0615573140727S11656359EA0084800859000004000000
B0616013140786S11656359EA0085000865000004000000
B0616053140805S11656288EA0085900871000004000000
B0616093140757S11656221EA0086100869000004000000
B0616133140687S11656199EA0084900853000004000000
B0616173140624S11656230EA0083300840000004000000
B0616213140582S11656289EA0082600839000004000000
B0616253140561S11656355EA0083500851000004000000
B0616293140593S11656393EA0085000863000004000000
B0616333140626S11656345EA0085800872000004000000
B0616373140584S11656277EA0085400868000004000000
B0616413140523S11656285EA0086300877000004000000
B0616453140514S11656334EA0086600879000004000000
B0616493140558S11656338EA0086400877000004000000
B0616533140591S11656277EA0086400880000004000000
B0616573140550S11656210EA0086600880000004000000
B0617013140487S11656216EA0086700883000004000000
B0617053140474S11656273EA0087000885000004000000
B0617093140520S11656290EA0086900884000004000000
B0617133140562S11656232EA0087600896000004000000
B0617173140543S11656152EA0088500903000004000000
B0617213140479S11656130EA0088900903000004000000
B0617253140435S11656175EA0088600902000004000000
B0617293140441S11656234EA0088300898000004000000
B0617333140487S11656272EA0088300902000004000000
B0617373140544S11656249EA0088700906000004000000
B0617413140578S11656172EA0088700906000004000000
B0617453140537S11656107EA0089600916000004000000
B0617493140476S11656129EA0089800916000004015000
B0617533140479S11656185EA0090100921000004015000
B0617573140536S11656180EA0090600927000004000000
B0618013140571S11656113EA0091200933000004000000
B0618053140552S11656035EA0091600935000004000000
B0618093140484S11656009EA0091200925000004000000
B0618133140431S11656058EA0090400924000004000000
B0618173140418S11656129EA0090800928000004000000
B0618213140465S11656155EA0092300942000004000000
B0618253140511S11656100EA0092300941000004000000
B0618293140498S11656019EA0092700948000004000000
B0618333140436S11655974EA0093100946000004000000
B0618373140374S11655996EA0092800948000004000000
B0618413140357S11656056EA0093700960000004000000
B0618453140376S11656113EA0094200960000004000000
B0618493140424S11656156EA0093000947000004000000
B0618533140487S11656185EA0093000953000004000000
B0618573140550S11656181EA0094600974000004000000
B0619013140569S11656103EA0096500986000004015000
B0619053140515S11656048EA0097000991000004015000
B0619093140454S11656065EA0097700998000004015000
B0619133140429S11656125EA0097400993000004015000
B0619173140466S11656175EA0097701003000004000000
B0619213140523S11656156EA0099001012000004000000
B0619253140556S11656077EA0099701017000004000000
B0619293140524S11655994EA0099901019000004000000
B0619333140458S11655982EA0101001033000004000000
B0619373140414S11656022EA0102101040000004000000
B0619413140410S11656081EA0102501047000004000000
B0619453140453S11656106EA0103001051000004000000
B0619493140502S11656056EA0103001051000004000000
B0619533140500S11655967EA0103601058000004000000
B0619573140442S11655921EA0104601071000004000000
B0620013140390S11655946EA0105601080000004000000
B0620053140374S11656000EA0106001083000004000000
B0620093140406S11656039EA0106401087000004000000
B0620133140459S11656022EA0106101078000004000000
B0620173140483S11655943EA0105201072000004000000
B0620213140446S11655856EA0104901069000004000000
B0620253140388S11655782EA0104801073000004000000
B0620293140319S11655742EA0106001088000004000000
B0620333140275S11655781EA0107501101000004000000
B0620373140296S11655835EA0107501098000004000000
B0620413140354S11655820EA0107301101000004000000
B0620453140377S11655739EA0108501113000004000000
B0620493140357S11655658EA0109601122000004000000
B0620533140305S11655608EA0110001122000004000000
B0620573140244S11655619EA0109501117000004000000
B0621013140207S11655681EA0108901114000004000000
B0621053140198S11655756EA0108801110000004000000
B0621093140197S11655838EA0107501095000004000000
B0621133140212S11655926EA0107001100000004000000
B0621173140234S11656008EA0106701084000004000000
B0621213140260S11656095EA0104301057000004000000
B0621253140277S11656191EA0101901038000004000000
B0621293140285S11656289EA0101901048000004000000
B0621333140301S11656380EA0103001055000004000000
B0621373140320S11656467EA0102701044000004000000
B0621413140336S11656562EA0101601035000004000000
B0621453140345S11656659EA0101001030000004000000
B0621493140366S11656753EA0101401034000004000000
B0621533140393S11656841EA0101601039000004000000
B0621573140422S11656922EA0103401064000004000000
B0622013140463S11656965EA0106601093000004000000
B0622053140487S11656901EA0108601110000004000000
B0622093140427S11656852EA0109601126000004000000
B0622133140364S11656883EA0110901135000004000000
B0622173140361S11656945EA0112101147000004000000
B0622213140400S11656961EA0112901151000004000000
B0622253140435S11656914EA0112401143000004000000
B0622293140422S11656827EA0112201150000004000000
B0622333140363S11656773EA0113601165000004000000
B0622373140297S11656792EA0115001175000004000000
B0622413140276S11656853EA0115601183000004000000
B0622453140309S11656896EA0116001186000004000000
B0622493140362S11656887EA0116301183000004000000
B0622533140389S11656814EA0115601182000004000000
B0622573140357S11656731EA0116401194000004000000
B0623013140289S11656698EA0118101209000004000000
B0623053140228S11656728EA0119201219000004000000
B0623093140214S11656791EA0119301217000004000000
B0623133140253S11656821EA0119201216000004000000
B0623173140299S11656789EA0118801209000004000000
B0623213140299S11656706EA0118201210000004000000
B0623253140273S11656619EA0118601213000004000000
B0623293140210S11656572EA0119401222000004000000
B0623333140147S11656605EA0119901229000004000000
B0623373140124S11656671EA0120101224000004000000
B0623413140134S11656745EA0118801211000004000000
B0623453140158S11656822EA0118101205000004000000
B0623493140189S11656900EA0116501184000004000000
B0623533140214S11656988EA0114601171000004000000
B0623573140228S11657083EA0113501158000004000000
B0624013140233S11657181EA0112101142000004000000
B0624053140232S11657280EA0110601128000004000000
B0624093140228S11657378EA0110101124000004000000
B0624133140220S11657475EA0110301129000004000000
B0624173140212S11657563EA0110801131000004000000
B0624213140203S11657650EA0110401123000004000000
B0624253140195S11657740EA0109101112000004000000
B0624293140190S11657826EA0108901113000004000000
B0624333140186S11657907EA0109001112000004000000
B0624373140181S11657987EA0108301101000004000000
B0624413140172S11658069EA0106801079000004000000
B0624453140159S11658153EA0104901065000004000000
B0624493140150S11658236EA0104301059000004000000
B0624533140142S11658317EA0103301049000004000000
B0624573140138S11658400EA0101801031000004000000
B0625013140137S11658489EA0100401019000004000000
B0625053140133S11658573EA0100301020000004000000
B0625093140127S11658658EA0099601010000004000000
B0625133140123S11658742EA0098701001000004000000
B0625173140142S11658816EA0098300995000004000000
B0625213140166S11658890EA0096800973000004000000
B0625253140169S11658975EA0094700953000004000000
B0625293140160S11659063EA0092900935000004000000
B0625333140142S11659152EA0091800930000004000000
B0625373140120S11659235EA0091700929000004000000
B0625413140098S11659315EA0091100920000004000000
B0625453140071S11659396EA0089900908000004000000
B0625493140038S11659475EA0088600894000004000000
B0625533140003S11659553EA0087700883000004000000
B0625573139967S11659629EA0086300867000004000000
B0626013139937S11659705EA0085800867000004000000
B0626053139930S11659782EA0086100872000004000000
B0626093139946S11659847EA0086400870000004000000
B0626133139965S11659913EA0085200853000004000000
B0626173139972S11659989EA0083300837000004000000
B0626213139964S11700065EA0081900824000004000000
B0626253139946S11700141EA0081300814000004000000
B0626293139950S11700215EA0080500811000004000000
B0626333139976S11700279EA0079800801000004000000
B0626373140002S11700342EA0079000793000004000000
B0626413140020S11700410EA0078100785000004000000
B0626453140020S11700484EA0077200774000004000000
B0626493139994S11700559EA0076000759000004000000
B0626533139947S11700630EA0074700748000004000000
B0626573139890S11700691EA0074500750000004000000
B0627013139834S11700748EA0074900751000004000000
B0627053139779S11700808EA0073800740000004000000
B0627093139726S11700869EA0073700740000004000000
B0627133139685S11700931EA0074100744000004000000
B0627173139666S11701000EA0073700738000004000000
B0627213139660S11701073EA0073300736000004000000
B0627253139672S11701144EA0073500739000004000000
B0627293139692S11701209EA0073500740000004000000
B0627333139725S11701267EA0073700742000004000000
B0627373139770S11701254EA0074400749000004000000
B0627413139747S11701178EA0074900754000004000000
B0627453139677S11701161EA0074900754000004000000
B0627493139623S11701200EA0074900752000004000000
B0627533139617S11701264EA0073900740000004000000
B0627573139643S11701325EA0072400726000004000000
B0628013139677S11701386EA0071500720000004000000
B0628053139696S11701458EA0071000715000004000000
B0628093139678S11701536EA0070900712000004000000
B0628133139623S11701594EA0070900715000004000000
B0628173139552S11701602EA0071200712000004000000
B0628213139480S11701572EA0070300699000004000000
B0628253139418S11701516EA0068500678000004000000
B0628293139362S11701447EA0066500660000004000000
B0628333139314S11701373EA0064900644000004000000
B0628373139275S11701293EA0063700631000004000000
B0628413139232S11701215EA0062700622000004000000
B0628453139185S11701142EA0061500609000004000000
B0628493139126S11701078EA0060200593000004000000
B0628533139064S11701011EA0058900585000004000000
B0628573139005S11700949EA0058500577000004000000
B0629013138938S11700894EA0057400571000004000000
B0629053138866S11700868EA0058400584000004000000
B0629093138816S11700901EA0059700595000004000000
B0629133138850S11700931EA0060300602000004000000
B0629173138882S11700875EA0061300613000004000000
B0629213138851S11700812EA0062600624000004000000
B0629253138791S11700809EA0062900625000004000000
B0629293138772S11700860EA0062500620000004000000
B0629333138804S11700900EA0061800616000004000000
B0629373138850S11700865EA0062700620000004000000
B0629413138812S11700796EA0063500626000004015000
B0629453138751S11700809EA0064100629000004015000
B0629493138737S11700866EA0064100626000004015000
B0629533138781S11700901EA0062900624000004000000
B0629573138823S11700849EA0063900635000004015000
B0630013138793S11700773EA0065000638000004015000
B0630053138726S11700769EA0065400647000004015000
B0630093138704S11700822EA0066000650000004000000
B0630133138736S11700865EA0065300643000004000000
B0630173138790S11700861EA0065500658000004000000
B0630213138799S11700787EA0067400672000004000000
B0630253138747S11700732EA0067200667000004000000
B0630293138685S11700751EA0067100669000004000000
B0630333138685S11700809EA0066700661000004000000
B0630373138732S11700851EA0066200665000004000000
B0630413138790S11700834EA0067100673000004000000
B0630453138782S11700756EA0067200671000004000000
B0630493138719S11700734EA0066800668000004000000
B0630533138674S11700784EA0066800670000004000000
B0630573138708S11700825EA0068000683000004000000
B0631013138749S11700775EA0068700690000004000000
B0631053138726S11700701EA0068300678000004000000
B0631093138661S11700689EA0067500674000004000000
B0631133138639S11700747EA0067400676000004000000
B0631173138694S11700760EA0067900680000004000000
B0631213138724S11700691EA0067800678000004000000
B0631253138677S11700623EA0066300652000004000000
B0631293138599S11700567EA0065000650000004015000
B0631333138518S11700549EA0065400655000004015000
B0631373138482S11700602EA0065000647000004000000
B0631413138516S11700660EA0063200626000004000000
B0631453138567S11700710EA0061600612000004000000
B0631493138621S11700760EA0060900607000004000000
B0631533138674S11700810EA0060900611000004000000
B0631573138723S11700858EA0060700610000004000000
B0632013138775S11700901EA0059900594000004000000
B0632053138828S11700877EA0059600597000004000000
B0632093138806S11700792EA0058900583000004000000
B0632133138736S11700736EA0056800565000004000000
B0632173138656S11700688EA0055400554000004000000
B0632213138580S11700647EA0055000546000004000000
B0632253138502S11700604EA0054300542000004000000
B0632293138427S11700556EA0054400542000004000000
B0632333138357S11700510EA0054000533000004000000
B0632373138287S11700462EA0053600527000004000000
B0632413138221S11700407EA0053000522000004000000
B0632453138148S11700362EA0053100529000004000000
B0632493138089S11700380EA0054600550000004000000
B0632533138118S11700419EA0056500561000004000000
B0632573138161S11700374EA0056300557000004000000
B0633013138145S11700298EA0055600550000004000000
B0633053138092S11700257EA0055900558000004000000
B0633093138075S11700305EA0056800567000004000000
B0633133138130S11700302EA0056900566000004000000
B0633173138148S11700228EA0057500578000004000000
B0633213138100S11700175EA0059100591000004000000
B0633253138057S11700206EA0060200603000004000000
B0633293138084S11700246EA0060800607000004000000
B0633333138138S11700218EA0061100611000004000000
B0633373138147S11700138EA0061600623000004000000
B0633413138093S11700098EA0062700632000004000000
B0633453138071S11700142EA0063800647000004000000
B0633493138118S11700150EA0064800658000004000000
B0633533138134S11700081EA0066000673000004015000
B0633573138089S11700025EA0066900675000004015000
B0634013138031S11700037EA0067100680000004015000
B0634053138027S11700085EA0068100688000004000000
B0634093138078S11700058EA0069000702000004000000
B0634133138060S11659984EA0070500713000004015000
B0634173138004S11659980EA0071400712000004015000
B0634213138002S11700033EA0071900724000004015000
B0634253138052S11700032EA0073100737000004015000
B0634293138063S11659960EA0074600753000004030000
B0634333138011S11659920EA0075600762000004015000
B0634373137975S11659954EA0076400770000004015000
B0634413137997S11659998EA0077200776000004000000
B0634453138049S11659974EA0077900787000004000000
B0634493138056S11659902EA0079500805000004000000
B0634533138008S11659856EA0080600816000004000000
B0634573137961S11659876EA0081400820000004000000
B0635013137963S11659924EA0081900828000004000000
B0635053138011S11659928EA0082800836000004000000
B0635093138047S11659868EA0083800845000004000000
B0635133138024S11659795EA0084400848000004000000
B0635173137962S11659778EA0084800858000004000000
B0635213137952S11659826EA0086200871000004000000
B0635253137997S11659833EA0087000881000004000000
B0635293138018S11659768EA0087500885000004000000
B0635333137976S11659703EA0087500885000004000000
B0635373137917S11659703EA0088000896000004000000
B0635413137907S11659750EA0089000899000004000000
B0635453137949S11659787EA0088100890000004000000
B0635493138008S11659782EA0088600903000004000000
B0635533138028S11659708EA0090000915000004000000
B0635573138002S11659626EA0089700910000004000000
B0636013137940S11659595EA0090100916000004000000
B0636053137901S11659638EA0090600920000004000000
B0636093137923S11659687EA0090700922000004000000
B0636133137974S11659716EA0091100928000004000000
B0636173138011S11659659EA0092000937000004000000
B0636213137971S11659586EA0092800943000004000000
B0636253137907S11659578EA0092900943000004000000
B0636293137879S11659630EA0092900945000004000000
B0636333137915S11659673EA0093800955000004000000
B0636373137970S11659642EA0095100970000004000000
B0636413137982S11659561EA0095700976000004000000
B0636453137933S11659503EA0096000979000004000000
B0636493137876S11659517EA0096100976000004000000
B0636533137862S11659571EA0096700987000004000000
B0636573137904S11659586EA0097900997000004000000
B0637013137941S11659527EA0098601002000004000000
B0637053137940S11659441EA0098701005000004000000
B0637093137891S11659392EA0099401009000004000000
B0637133137835S11659415EA0099001003000004000000
B0637173137829S11659477EA0098601003000004000000
B0637213137857S11659538EA0099101009000004000000
B0637253137907S11659562EA0100101026000004000000
B0637293137937S11659496EA0102001040000004000000
B0637333137904S11659427EA0101901030000004000000
B0637373137832S11659417EA0100801027000004000000
B0637413137787S11659457EA0102401052000004000000
B0637453137810S11659495EA0104601068000004000000
B0637493137850S11659453EA0105501076000004000000
B0637533137820S11659383EA0106201085000004000000
B0637573137758S11659375EA0107701098000004000000
B0638013137732S11659425EA0108801109000004000000
B0638053137770S11659453EA0110001121000004000000
B0638093137816S11659409EA0110701127000004000000
B0638133137809S11659330EA0111801141000004000000
B0638173137758S11659284EA0113201157000004000000
B0638213137705S11659295EA0114001161000004000000
B0638253137689S11659350EA0113801163000004000000
B0638293137731S11659386EA0114901183000004000000
B0638333137781S11659361EA0117101200000004000000
B0638373137790S11659291EA0118301210000004000000
B0638413137741S11659236EA0118801216000004000000
B0638453137683S11659249EA0119901229000004000000
B0638493137666S11659304EA0120701236000004000000
B0638533137703S11659334EA0122601259000004000000
B0638573137745S11659298EA0124001269000004000000
B0639013137740S11659223EA0124701276000004000000
B0639053137688S11659183EA0126101292000004000000
B0639093137644S11659209EA0127001300000004000000
B0639133137649S11659262EA0127401309000004000000
B0639173137696S11659270EA0128701324000004000000
B0639213137725S11659210EA0130201337000004000000
B0639253137698S11659144EA0131401350000004000000
B0639293137642S11659132EA0132801363000004000000
B0639333137612S11659171EA0133901373000004000000
B0639373137632S11659214EA0134601382000004000000
B0639413137681S11659211EA0135601392000004000000
B0639453137718S11659158EA0136501400000004000000
B0639493137703S11659088EA0137401411000004000000
B0639533137649S11659055EA0138401421000004000000
B0639573137603S11659080EA0139501432000004000000
B0640013137605S11659129EA0140101438000004000000
B0640053137649S11659148EA0141401449000004000000
B0640093137690S11659110EA0142101456000004000000
B0640133137688S11659038EA0142901467000004000000
B0640173137636S11658999EA0144101476000004000000
B0640213137586S11659022EA0145201489000004000000
B0640253137582S11659074EA0146201502000004000000
B0640293137623S11659094EA0147201512000004000000
B0640333137664S11659061EA0148201521000004000000
B0640373137667S11658994EA0149201530000004000000
B0640413137615S11658950EA0149801538000004000000
B0640453137563S11658973EA0151201553000004000000
B0640493137562S11659027EA0152301565000004000000
B0640533137607S11659036EA0153401576000004000000
B0640573137638S11658986EA0154401586000004000000
B0641013137615S11658921EA0155401594000004000000
B0641053137554S11658915EA0155901603000004000000
B0641093137517S11658959EA0157601622000004000000
B0641133137529S11659010EA0158901632000004000000
B0641173137576S11659015EA0159401636000004000000
B0641213137608S11658963EA0159801640000004000000
B0641253137597S11658897EA0161101656000004000000
B0641293137543S11658869EA0161501655000004000000
B0641333137494S11658902EA0162001667000004000000
B0641373137495S11658957EA0163701681000004000000
