ACAM4N6
HFDTE020421
HFFXA050
HFPLTPILOT:JOHN WELSH              
HFGTYGLIDERTYPE:HORNET      
HFGIDGLIDERID:VH-GMY      
HFDTM100GPSDATUM:
HFRFWFIRMWAREVERSION:F2.6
HFRHWHARDWAREVERSION:300 Series Version 2
HFFTYFRTYPE:CAMBRIDGE AERO INSTRUMENTS, 302+
HFGPS:GARMIN,LVS-25,12,18000
HFPRSPRESSALTSENSOR:INTERSEMA, MS5534-AP, 20000
I033638FXA3941ENL4247REX
LCAMSBVER:5FWVER:F26300
C020421051037020421000102
C0000000N00000000WTAKEOFF     
C3207549S11656849EBEVAIR      
C3122566S11730266EYorkrakine  
C3203749S11824249ENarembeen   
C3207549S11656849EBEVAIR      
C0000000N00000000WLANDING     
B0525493207732S11657099EA0023800200000000000000
B0525513207732S11657099EA0023900200000000000000
B0525533207732S11657099EA0023900200000000000000
B0525553207732S11657099EA0023800200000000000000
B0525573207732S11657099EA0023800200000000000000
B0525593207732S11657099EA0023800201000000000000
B0526013207732S11657099EA0023800201000000000000
B0526033207732S11657099EA0023800201000000000000
B0526053207732S11657099EA0023800201000000000000
B0526073207732S11657099EA0023800201000000000000
B0526093207732S11657099EA0023800201000000000000
B0526113207732S11657099EA0023800200000000000000
B0526133207732S11657099EA0023800200000000000000
B0526153207731S11657098EA0023800201000000000000
B0526173207728S11657098EA0023900201000000000000
B0526183207724S11657096EA0023900201000000000000
B0526223207701S11657087EA0023800201000000000000
B0526263207662S11657069EA0023800201000000000000
B0526303207611S11657042EA0024000203000000000000
B0526343207550S11657004EA0024200205000000000000
B0526383207480S11656971EA0024700210000000000000
B0526423207408S11656938EA0025600221000000000000
B0526463207339S11656908EA0027000237000000000000
B0526503207277S11656880EA0028700263000000000000
B0526543207220S11656847EA0030500282000000000000
B0526583207163S11656810EA0031600294000000000000
B0527023207105S11656773EA0032700303000000000000
B0527063207039S11656745EA0033400315000000000000
B0527103206969S11656728EA0034800328000000000000
B0527143206897S11656715EA0035900337000000000000
B0527183206823S11656702EA0037100344000000000000
B0527223206748S11656689EA0038700354000000000000
B0527263206670S11656680EA0040800373000000000000
B0527303206593S11656667EA0042600392000000015000
B0527343206515S11656649EA0044300410000000015000
B0527383206436S11656632EA0045700424000000015000
B0527423206358S11656618EA0047200436000000015000
B0527463206288S11656607EA0048900447000000015000
B0527503206215S11656598EA0050700459000000015000
B0527543206141S11656587EA0052200472000000015000
B0527583206065S11656574EA0053300482000000015000
B0528023205989S11656555EA0054000497000000015000
B0528063205912S11656540EA0055600525000000015000
B0528103205835S11656526EA0057800555000000015000
B0528143205760S11656509EA0060500586000000015000
B0528183205683S11656492EA0063000612000000000000
B0528223205605S11656479EA0064600622000000000000
B0528263205530S11656511EA0065600639000000015000
B0528303205478S11656581EA0066900651000000000000
B0528343205451S11656667EA0068000665000000000000
B0528383205458S11656760EA0069000678000000000000
B0528423205505S11656839EA0069800686000000000000
B0528463205584S11656870EA0070700697000000000000
B0528503205664S11656841EA0071500705000000015000
B0528543205707S11656766EA0072200717000000015000
B0528583205698S11656682EA0073900733000000015000
B0529023205664S11656609EA0075800759000000015000
B0529063205623S11656540EA0078200784000000015000
B0529103205579S11656474EA0079800797000000015000
B0529143205509S11656462EA0080400801000000015000
B0529183205462S11656528EA0081300812000000015000
B0529223205467S11656607EA0082200821000000015000
B0529263205513S11656653EA0082000813000000015000
B0529303205570S11656643EA0081100809000000015000
B0529343205617S11656601EA0081200814000000015000
B0529383205643S11656544EA0081700816000000015000
B0529423205617S11656483EA0082200830000000015000
B0529463205556S11656497EA0083800848000000015000
B0529503205542S11656570EA0085100857000000015000
B0529543205579S11656617EA0085600860000000015000
B0529583205626S11656597EA0085500857000000015000
B0530023205629S11656540EA0085900865000000015000
B0530063205575S11656513EA0087200879000000015000
B0530103205518S11656557EA0088200885000000015000
B0530143205517S11656637EA0088900892000000015000
B0530183205562S11656680EA0089800898000000015000
B0530223205608S11656657EA0089500893000000015000
B0530263205595S11656596EA0089800904000000015000
B0530303205531S11656585EA0090800915000000015000
B0530343205483S11656646EA0091600921000000015000
B0530383205497S11656722EA0092400933000000015000
B0530423205548S11656734EA0092900930000000015000
B0530463205578S11656684EA0092500930000000015000
B0530503205552S11656631EA0093500946000000015000
B0530543205491S11656648EA0095000959000000015000
B0530583205466S11656722EA0095300957000000015000
B0531023205501S11656789EA0095500964000000015000
B0531063205556S11656796EA0095800969000000015000
B0531103205581S11656750EA0096700975000000015000
B0531143205557S11656697EA0097600984000000015000
B0531183205496S11656705EA0098100990000000015000
B0531223205475S11656782EA0098300993000000015000
B0531263205517S11656838EA0098701002000000015000
B0531303205562S11656814EA0099501010000000015000
B0531343205552S11656756EA0100101015000000015000
B0531383205493S11656744EA0101001025000000015000
B0531423205445S11656796EA0101601022000000015000
B0531463205443S11656880EA0101301022000000015000
B0531503205488S11656931EA0102001035000000015000
B0531543205529S11656905EA0103501048000000015000
B0531583205500S11656864EA0104101050000000015000
B0532023205445S11656908EA0104101051000000015000
B0532063205444S11656992EA0104501057000000015000
B0532103205491S11657048EA0104901059000000015000
B0532143205545S11657033EA0105201067000000015000
B0532183205549S11656973EA0106501085000000015000
B0532223205503S11656953EA0108201103000000015000
B0532263205471S11657013EA0109401105000000015000
B0532303205512S11657066EA0109201109000000015000
B0532343205555S11657043EA0110001119000000015000
B0532383205549S11656992EA0110901126000000015000
B0532423205497S11656983EA0111701130000000015000
B0532463205457S11657044EA0111801128000000015000
B0532503205477S11657122EA0112201139000000015000
B0532543205530S11657134EA0113201151000000015000
B0532583205562S11657092EA0113701152000000015000
B0533023205543S11657040EA0114001157000000015000
B0533063205490S11657036EA0114301159000000015000
B0533103205451S11657099EA0113901154000000015000
B0533143205469S11657178EA0113701156000000015000
B0533183205525S11657216EA0114001162000000015000
B0533223205584S11657216EA0114301162000000015000
B0533263205612S11657169EA0114401161000000015000
B0533303205575S11657129EA0114201160000000015000
B0533343205513S11657135EA0113501152000000015000
B0533383205447S11657155EA0112101136000000015000
B0533423205373S11657178EA0111001125000000000000
B0533463205296S11657202EA0110201113000000000000
B0533503205214S11657226EA0109201108000000015000
B0533543205132S11657254EA0109101106000000000000
B0533583205050S11657285EA0108801103000000000000
B0534023204964S11657321EA0109001110000000000000
B0534063204884S11657352EA0110601131000000000000
B0534103204815S11657387EA0112301144000000000000
B0534143204769S11657456EA0113101149000000000000
B0534183204795S11657530EA0113401154000000000000
B0534223204850S11657538EA0113301151000000015000
B0534263204879S11657490EA0112801146000000015000
B0534303204854S11657433EA0112301144000000015000
B0534343204793S11657408EA0112501148000000015000
B0534383204721S11657413EA0112501146000000015000
B0534423204647S11657437EA0112201144000000015000
B0534463204573S11657467EA0111701136000000000000
B0534503204499S11657499EA0110601121000000000000
B0534543204424S11657537EA0109401111000000000000
B0534583204349S11657577EA0108801107000000000000
B0535023204277S11657619EA0108201098000000000000
B0535063204201S11657662EA0107501090000000000000
B0535103204127S11657703EA0107401091000000000000
B0535143204057S11657745EA0108001100000000000000
B0535183204017S11657823EA0108801103000000000000
B0535223204034S11657914EA0109301108000000000000
B0535263204092S11657972EA0109401108000000015000
B0535303204160S11657974EA0109201103000000015000
B0535343204195S11657920EA0108001091000000015000
B0535383204173S11657866EA0107401089000000015000
B0535423204113S11657857EA0107201090000000015000
B0535463204048S11657872EA0106701084000000015000
B0535503203980S11657897EA0106601082000000015000
B0535543203911S11657928EA0106301079000000000000
B0535583203841S11657965EA0106701093000000000000
B0536023203787S11658011EA0109101114000000000000
B0536063203801S11658092EA0109901116000000000000
B0536103203867S11658108EA0109701115000000015000
B0536143203906S11658062EA0109201110000000015000
B0536183203891S11658008EA0109301113000000015000
B0536223203848S11657972EA0110201122000000015000
B0536263203794S11658002EA0111401129000000015000
B0536303203802S11658080EA0112101136000000015000
B0536343203865S11658082EA0112201133000000015000
B0536383203866S11658026EA0112601149000000015000
B0536423203810S11658034EA0113901159000000015000
B0536463203797S11658114EA0114601166000000015000
B0536503203849S11658160EA0115601176000000015000
B0536543203896S11658131EA0116201181000000015000
B0536583203878S11658088EA0117101191000000015000
B0537023203827S11658121EA0117901195000000015000
B0537063203828S11658203EA0118501203000000015000
B0537103203883S11658242EA0119801218000000015000
B0537143203926S11658212EA0120201220000000015000
B0537183203907S11658167EA0120901234000000015000
B0537223203859S11658199EA0122101242000000015000
B0537263203865S11658279EA0121801237000000015000
B0537303203924S11658318EA0122101249000000015000
B0537343203976S11658295EA0122901258000000015000
B0537383203975S11658244EA0123701263000000015000
B0537423203923S11658249EA0124301267000000015000
B0537463203885S11658323EA0124101267000000015000
B0537503203907S11658412EA0124701285000000015000
B0537543203966S11658446EA0126501300000000015000
B0537583204009S11658418EA0127901309000000015000
B0538023204002S11658374EA0128701314000000015000
B0538063203954S11658370EA0128901313000000015000
B0538103203907S11658426EA0128601315000000015000
B0538143203893S11658509EA0129401325000000015000
B0538183203948S11658560EA0131001341000000015000
B0538223203988S11658531EA0131801349000000015000
B0538263203966S11658498EA0132701356000000015000
B0538303203918S11658525EA0133001356000000015000
B0538343203905S11658608EA0133001361000000015000
B0538383203950S11658672EA0134301378000000015000
B0538423204005S11658671EA0135301382000000015000
B0538463204004S11658630EA0135401383000000015000
B0538503203952S11658641EA0135801393000000015000
B0538543203915S11658708EA0136701405000000015000
B0538583203932S11658790EA0138201424000000015000
B0539023203984S11658836EA0139101422000000015000
B0539063204041S11658824EA0138301414000000015000
B0539103204056S11658775EA0138401420000000015000
B0539143204028S11658736EA0139601430000000015000
B0539183203975S11658749EA0140001430000000015000
B0539223203940S11658825EA0139701428000000015000
B0539263203967S11658915EA0140401441000000015000
B0539303204034S11658960EA0141101444000000015000
B0539343204091S11658938EA0141501455000000015000
B0539383204070S11658902EA0143101470000000015000
B0539423204017S11658944EA0143601470000000015000
B0539463204021S11659035EA0144401484000000015000
B0539503204078S11659088EA0144901484000000015000
B0539543204140S11659076EA0144601479000000015000
B0539583204144S11659028EA0145201493000000015000
B0540023204095S11659022EA0145601494000000015000
B0540063204044S11659085EA0145401494000000015000
B0540103204032S11659178EA0146501506000000015000
B0540143204078S11659250EA0146801502000000015000
B0540183204148S11659270EA0145501489000000015000
B0540223204225S11659267EA0144101467000000015000
B0540263204310S11659259EA0142501460000000015000
B0540303204395S11659246EA0142301459000000000000
B0540343204477S11659227EA0142601463000000000000
B0540383204559S11659205EA0142601463000000000000
B0540423204643S11659185EA0142601460000000000000
B0540463204728S11659166EA0142401462000000000000
B0540503204808S11659154EA0143301472000000000000
B0540543204880S11659135EA0143801473000000000000
B0540583204947S11659102EA0143001463000000000000
B0541023205016S11659070EA0142701458000000000000
B0541063205085S11659037EA0141601447000000000000
B0541103205153S11658999EA0141001444000000000000
B0541143205219S11658962EA0140801446000000000000
B0541183205283S11658927EA0141501454000000000000
B0541223205348S11658894EA0142201458000000000000
B0541263205412S11658860EA0142801465000000000000
B0541303205474S11658825EA0143001467000000000000
B0541343205535S11658788EA0143001466000000000000
B0541383205596S11658745EA0142701461000000000000
B0541423205659S11658699EA0142601463000000000000
B0541463205722S11658652EA0142601459000000000000
B0541503205789S11658607EA0142301458000000000000
B0541543205856S11658561EA0142201461000000000000
B0541583205919S11658516EA0143401474000000000000
B0542023205926S11658457EA0144801487000000000000
B0542063205876S11658459EA0144801481000000000000
B0542103205852S11658544EA0144101478000000000000
B0542143205887S11658637EA0144101481000000000000
B0542183205947S11658704EA0144601484000000000000
B0542223206023S11658738EA0144501480000000015000
B0542263206101S11658732EA0143801473000000015000
B0542303206176S11658707EA0143501473000000000000
B0542343206246S11658669EA0143201464000000000000
B0542383206315S11658621EA0142501460000000000000
B0542423206381S11658569EA0142001456000000000000
B0542463206445S11658516EA0141801455000000000000
B0542503206507S11658464EA0141601453000000000000
B0542543206569S11658417EA0141501452000000000000
B0542583206630S11658373EA0141101448000000000000
B0543023206688S11658329EA0140801445000000000000
B0543063206745S11658283EA0140501440000000000000
B0543103206805S11658239EA0140001433000000000000
B0543143206865S11658195EA0139301427000000000000
B0543183206921S11658151EA0139001424000000000000
B0543223206977S11658108EA0138401417000000000000
B0543263207033S11658062EA0137901411000000000000
B0543303207089S11658015EA0137301406000000000000
B0543343207142S11657967EA0137001402000000000000
B0543383207193S11657920EA0137001405000000000000
B0543423207242S11657876EA0137101405000000000000
B0543463207290S11657831EA0137001402000000000000
B0543503207341S11657784EA0136301390000000000000
B0543543207391S11657736EA0135201383000000000000
B0543583207440S11657686EA0134301371000000000000
B0544023207484S11657636EA0133701365000000000000
B0544063207527S11657586EA0133001360000000000000
B0544103207571S11657536EA0132401354000000000000
B0544143207611S11657484EA0132401358000000000000
B0544183207646S11657433EA0133201364000000000000
B0544223207674S11657378EA0133201363000000000000
B0544263207694S11657322EA0133001358000000000000
B0544303207687S11657267EA0131801340000000000000
B0544343207664S11657215EA0129801319000000000000
B0544383207637S11657161EA0128101305000000000000
B0544423207618S11657104EA0127501301000000000000
B0544463207598S11657047EA0126601288000000000000
B0544503207557S11657003EA0125501272000000000000
B0544543207490S11657000EA0124001260000000000000
B0544583207420S11657029EA0122901254000000000000
B0545023207354S11657077EA0122401251000000000000
B0545063207294S11657142EA0121901245000000000000
B0545103207235S11657212EA0120801231000000000000
B0545143207174S11657289EA0119301212000000000000
B0545183207112S11657367EA0117901202000000000000
B0545223207050S11657442EA0117701203000000000000
B0545263206987S11657512EA0117801196000000000000
B0545303206921S11657582EA0116601185000000000000
B0545343206856S11657657EA0115701180000000000000
B0545383206791S11657728EA0115701179000000000000
B0545423206727S11657800EA0114901168000000000000
B0545463206662S11657874EA0113901158000000000000
B0545503206597S11657949EA0113201155000000000000
B0545543206535S11658023EA0113001152000000000000
B0545583206472S11658097EA0112701145000000000000
B0546023206410S11658171EA0111801135000000000000
B0546063206345S11658245EA0111401134000000000000
B0546103206281S11658317EA0110901123000000000000
B0546143206214S11658388EA0109501109000000000000
B0546183206147S11658459EA0108801104000000000000
B0546223206080S11658521EA0109201115000000000000
B0546263206015S11658582EA0110001121000000000000
B0546303205950S11658641EA0110301124000000000000
B0546343205886S11658702EA0110501125000000000000
B0546383205824S11658763EA0110201118000000000000
B0546423205757S11658827EA0109301108000000000000
B0546463205691S11658890EA0108401098000000000000
B0546503205625S11658951EA0108001097000000000000
B0546543205561S11659014EA0108101099000000000000
B0546583205500S11659077EA0108101095000000000000
B0547023205438S11659139EA0107301087000000000000
B0547063205375S11659200EA0107301090000000000000
B0547103205314S11659261EA0107001084000000000000
B0547143205254S11659318EA0107001087000000000000
B0547183205194S11659374EA0106701079000000000000
B0547223205132S11659431EA0105501067000000000000
B0547263205068S11659492EA0104201054000000000000
B0547303205005S11659558EA0103601045000000000000
B0547343204941S11659626EA0102701037000000000000
B0547383204877S11659692EA0102101032000000000000
B0547423204816S11659761EA0101501024000000000000
B0547463204755S11659834EA0100501014000000000000
B0547503204691S11659902EA0099501005000000000000
B0547543204624S11659968EA0098500993000000000000
B0547583204556S11700036EA0097700984000000000000
B0548023204487S11700099EA0097000975000000000000
B0548063204418S11700159EA0095800963000000000000
B0548103204348S11700219EA0094900951000000000000
B0548143204275S11700281EA0093500934000000000000
B0548183204199S11700345EA0092200931000000000000
B0548223204121S11700392EA0092800936000000000000
B0548263204039S11700427EA0092000916000000000000
B0548303203976S11700496EA0091900937000000000000
B0548343204004S11700570EA0094200955000000000000
B0548383204065S11700570EA0094300945000000000000
B0548423204096S11700515EA0093200931000000015000
B0548463204073S11700450EA0091700918000000015000
B0548503204005S11700423EA0090600909000000015000
B0548543203926S11700431EA0089700904000000015000
B0548583203846S11700455EA0089100894000000000000
B0549023203766S11700484EA0088900899000000000000
B0549063203688S11700502EA0089800909000000000000
B0549103203631S11700549EA0091800931000000000000
B0549143203668S11700617EA0093300939000000000000
B0549183203712S11700588EA0093600942000000015000
B0549223203688S11700548EA0093700943000000015000
B0549263203633S11700565EA0093700945000000015000
B0549303203605S11700641EA0093900948000000015000
B0549343203645S11700710EA0094400958000000015000
B0549383203692S11700686EA0095200965000000015000
B0549423203672S11700640EA0095400964000000015000
B0549463203615S11700660EA0095600969000000015000
B0549503203588S11700738EA0096000973000000000000
B0549543203612S11700818EA0096500981000000015000
B0549583203672S11700848EA0097100981000000015000
B0550023203720S11700814EA0096900979000000015000
B0550063203711S11700758EA0096900979000000015000
B0550103203662S11700730EA0097100983000000015000
B0550143203598S11700738EA0097600988000000000000
B0550183203555S11700801EA0098300993000000000000
B0550223203580S11700878EA0098500998000000000000
B0550263203638S11700896EA0098801000000000000000
B0550303203675S11700855EA0098701000000000000000
B0550343203657S11700804EA0098901004000000000000
B0550383203598S11700788EA0098901003000000000000
B0550423203534S11700822EA0098901001000000000000
B0550463203468S11700874EA0098400996000000000000
B0550503203402S11700933EA0098200994000000000000
B0550543203365S11701016EA0099201012000000000000
B0550583203403S11701081EA0100701025000000015000
B0551023203460S11701070EA0101501027000000015000
B0551063203473S11701013EA0101501026000000015000
B0551103203429S11700975EA0101401025000000015000
B0551143203364S11700995EA0101301027000000015000
B0551183203328S11701068EA0101801037000000000000
B0551223203347S11701144EA0102801042000000000000
B0551263203406S11701172EA0103101046000000000000
B0551303203443S11701137EA0104101059000000000000
B0551343203432S11701090EA0104901063000000000000
B0551383203382S11701082EA0104901064000000000000
B0551423203334S11701131EA0104601061000000000000
B0551463203334S11701216EA0104901068000000000000
B0551503203382S11701259EA0105701079000000000000
B0551543203417S11701229EA0106901085000000000000
B0551583203393S11701182EA0106901083000000000000
B0552023203334S11701194EA0107001087000000000000
B0552063203298S11701267EA0106901086000000000000
B0552103203313S11701351EA0107401093000000000000
B0552143203371S11701389EA0107701094000000015000
B0552183203408S11701349EA0108301107000000015000
B0552223203393S11701294EA0109401112000000015000
B0552263203335S11701281EA0109401111000000015000
B0552303203274S11701328EA0109101109000000000000
B0552343203254S11701415EA0109801122000000000000
B0552383203302S11701475EA0110601129000000000000
B0552423203351S11701455EA0111401137000000000000
B0552463203348S11701402EA0112301146000000000000
B0552503203302S11701373EA0112801150000000000000
B0552543203239S11701399EA0112901150000000000000
B0552583203213S11701481EA0113701166000000000000
B0553023203251S11701550EA0115001172000000000000
B0553063203309S11701549EA0115601181000000000000
B0553103203326S11701499EA0116301187000000000000
B0553143203290S11701455EA0116601188000000000000
B0553183203226S11701456EA0116501188000000000000
B0553223203176S11701520EA0116901197000000000000
B0553263203164S11701612EA0117601203000000000000
B0553303203207S11701685EA0118101205000000000000
B0553343203264S11701684EA0118501213000000000000
B0553383203274S11701631EA0119101215000000000000
B0553423203229S11701592EA0118801209000000000000
B0553463203153S11701598EA0118201203000000000000
B0553503203073S11701632EA0117401192000000000000
B0553543202988S11701677EA0115801176000000000000
B0553583202904S11701732EA0115701185000000000000
B0554023202826S11701794EA0116501188000000000000
B0554063202749S11701866EA0116401188000000000000
B0554103202672S11701937EA0115801178000000000000
B0554143202598S11702012EA0114901168000000000000
B0554183202528S11702090EA0114001160000000000000
B0554223202455S11702169EA0112901146000000000000
B0554263202379S11702239EA0112701150000000000000
B0554303202303S11702304EA0113101155000000000000
B0554343202229S11702370EA0112801149000000000000
B0554383202154S11702438EA0111901139000000000000
B0554423202077S11702502EA0111601136000000000000
B0554463201999S11702561EA0111301132000000000000
B0554503201921S11702619EA0111101132000000000000
B0554543201842S11702676EA0111301136000000000000
B0554583201768S11702732EA0112001142000000000000
B0555023201692S11702789EA0111501132000000000000
B0555063201613S11702849EA0110101117000000000000
B0555103201530S11702910EA0109301110000000000000
B0555143201448S11702971EA0109101109000000000000
B0555183201366S11703027EA0109401118000000000000
B0555223201288S11703075EA0110601131000000000000
B0555263201224S11703132EA0112001144000000000000
B0555303201223S11703226EA0112801146000000000000
B0555343201284S11703269EA0112201133000000000000
B0555383201335S11703232EA0111301131000000000000
B0555423201371S11703179EA0110901127000000000000
B0555463201389S11703113EA0111201131000000000000
B0555503201365S11703049EA0112101140000000000000
B0555543201317S11703002EA0112501144000000000000
B0555583201252S11702964EA0112301139000000000000
B0556023201180S11702931EA0112001137000000000000
B0556063201105S11702901EA0111301130000000000000
B0556103201027S11702872EA0111101130000000000000
B0556143200950S11702844EA0111801144000000000000
B0556183200881S11702815EA0114201170000000000000
B0556223200817S11702851EA0116301184000000000000
B0556263200829S11702941EA0116101178000000000000
B0556303200895S11702971EA0116101184000000000000
B0556343200954S11702951EA0118001208000000000000
B0556383200958S11702906EA0120101226000000000000
B0556423200904S11702919EA0120601229000000000000
B0556463200889S11703006EA0120901237000000030000
B0556503200933S11703066EA0122101251000000015000
B0556543200977S11703053EA0123601266000000015000
B0556583200969S11703013EA0124701273000000015000
B0557023200914S11703016EA0124901275000000000000
B0557063200878S11703094EA0125301281000000000000
B0557103200903S11703183EA0125601287000000000000
B0557143200959S11703196EA0127201307000000000000
B0557183200971S11703150EA0128501320000000000000
B0557223200924S11703137EA0129701331000000000000
B0557263200878S11703205EA0129601323000000000000
B0557303200893S11703302EA0129301324000000000000
B0557343200953S11703331EA0130401340000000000000
B0557383200977S11703287EA0131401345000000000000
B0557423200938S11703244EA0131901351000000000000
B0557463200868S11703257EA0131701347000000000000
B0557503200797S11703315EA0130801336000000000000
B0557543200725S11703390EA0128901314000000000000
B0557583200651S11703478EA0127901305000000000000
B0558023200577S11703570EA0127101298000000000000
B0558063200503S11703665EA0126401290000000000000
B0558103200429S11703759EA0125401275000000000000
B0558143200352S11703854EA0123901266000000000000
B0558183200279S11703949EA0123601262000000000000
B0558223200206S11704041EA0123801268000000000000
B0558263200136S11704132EA0123401255000000000000
B0558303200065S11704225EA0122001241000000000000
B0558343159996S11704319EA0121701252000000000000
B0558383159935S11704406EA0124101286000000000000
B0558423159885S11704485EA0127401317000000000000
B0558463159838S11704556EA0129901341000000000000
B0558503159824S11704645EA0132101359000000000000
B0558543159877S11704704EA0133701371000000000000
B0558583159922S11704687EA0134601380000000000000
B0559023159918S11704645EA0134801381000000000000
B0559063159863S11704647EA0135701400000000000000
B0559103159811S11704697EA0138001423000000000000
B0559143159798S11704786EA0140101443000000000000
B0559183159840S11704853EA0141101450000000000000
B0559223159898S11704855EA0141201448000000000000
B0559263159909S11704809EA0141601456000000000000
B0559303159863S11704792EA0142801473000000000000
B0559343159828S11704864EA0144601496000000000000
B0559383159868S11704934EA0146701510000000000000
B0559423159920S11704929EA0147001505000000000000
B0559463159909S11704885EA0147201515000000000000
B0559503159851S11704898EA0148501532000000000000
B0559543159822S11704983EA0149801544000000000000
B0559583159859S11705064EA0151401558000000000000
B0600023159918S11705069EA0152201563000000000000
B0600063159924S11705021EA0152001560000000000000
B0600103159872S11705007EA0153001577000000000000
B0600143159820S11705060EA0154401595000000000000
B0600183159815S11705151EA0155801605000000000000
B0600223159859S11705223EA0156001606000000000000
B0600263159923S11705241EA0155901598000000015000
B0600303159966S11705203EA0155001589000000015000
B0600343159944S11705156EA0155201602000000015000
B0600383159883S11705161EA0156501618000000000000
B0600423159822S11705207EA0157701629000000000000
B0600463159815S11705294EA0159301645000000000000
B0600503159874S11705342EA0159401635000000000000
B0600543159923S11705311EA0158501630000000015000
B0600583159916S11705256EA0159001643000000015000
B0601023159866S11705230EA0160001653000000000000
B0601063159801S11705259EA0161601675000000000000
B0601103159768S11705341EA0163301698000000000000
B0601143159792S11705428EA0164701700000000000000
B0601183159854S11705467EA0164601696000000000000
B0601223159913S11705446EA0164001687000000000000
B0601263159914S11705390EA0163801693000000000000
B0601303159864S11705371EA0164701703000000000000
B0601343159802S11705416EA0165501707000000000000
B0601383159746S11705499EA0164901698000000000000
B0601423159692S11705593EA0164701702000000000000
B0601463159638S11705696EA0164301692000000000000
B0601503159578S11705805EA0163101682000000000000
B0601543159521S11705912EA0163701697000000000000
B0601583159463S11706017EA0163401682000000000000
B0602023159403S11706122EA0162001665000000000000
B0602063159339S11706227EA0160301652000000000000
B0602103159272S11706328EA0159801648000000000000
B0602143159205S11706422EA0160101654000000000000
B0602183159139S11706512EA0159801642000000000000
B0602223159070S11706606EA0157801622000000000000
B0602263159003S11706705EA0156201607000000000000
B0602303158938S11706805EA0155001596000000000000
B0602343158876S11706906EA0154901602000000000000
B0602383158824S11707001EA0156701624000000000000
B0602423158775S11707095EA0157501619000000000000
B0602463158726S11707188EA0157301623000000000000
B0602503158675S11707283EA0156901614000000000000
B0602543158624S11707383EA0157301618000000000000
B0602583158619S11707485EA0158701629000000000000
B0603023158684S11707531EA0158401615000000000000
B0603063158740S11707492EA0156301594000000000000
B0603103158717S11707433EA0155801604000000000000
B0603143158653S11707414EA0156901615000000000000
B0603183158579S11707416EA0157001614000000000000
B0603223158510S11707468EA0157301624000000000000
B0603263158460S11707550EA0157001609000000000000
B0603303158416S11707648EA0154401582000000000000
B0603343158376S11707763EA0151901558000000000000
B0603383158338S11707882EA0151501556000000000000
B0603423158299S11708003EA0150901545000000000000
B0603463158259S11708122EA0150001543000000000000
B0603503158220S11708237EA0149701540000000000000
B0603543158185S11708352EA0149201534000000000000
B0603583158148S11708466EA0148201521000000000000
B0604023158109S11708579EA0146701505000000000000
B0604063158065S11708690EA0145901499000000000000
B0604103158024S11708795EA0145701500000000000000
B0604143157987S11708895EA0146201507000000000000
B0604183157953S11708994EA0146801513000000000000
B0604223157921S11709091EA0147101510000000000000
B0604263157886S11709190EA0146001499000000000000
B0604303157849S11709286EA0145901507000000000000
B0604343157814S11709373EA0146601509000000000000
B0604383157775S11709462EA0146801511000000000000
B0604423157739S11709549EA0147101514000000000000
B0604453157712S11709614EA0147301516000000000000
B0604503157667S11709727EA0147301512000000000000
B0604543157632S11709822EA0146201493000000000000
B0604583157596S11709922EA0144901488000000000000
B0605023157570S11710027EA0145201497000000000000
B0605063157552S11710130EA0146301507000000000000
B0605103157539S11710231EA0147701524000000000000
B0605143157548S11710326EA0149601543000000000000
B0605183157606S11710361EA0151201555000000000000
B0605223157645S11710320EA0151801561000000000000
B0605263157628S11710268EA0152501572000000000000
B0605303157575S11710246EA0153201582000000000000
B0605343157518S11710278EA0154201593000000000000
B0605383157508S11710356EA0155301604000000000000
B0605423157554S11710413EA0156101608000000000000
B0605463157618S11710421EA0156401616000000000000
B0605503157658S11710382EA0157601626000000000000
B0605543157647S11710329EA0158201632000000000000
B0605583157601S11710302EA0158901642000000000000
B0606023157549S11710338EA0159901649000000000000
B0606063157540S11710424EA0160101649000000000000
B0606103157588S11710490EA0160801667000000000000
B0606143157647S11710489EA0162601682000000000000
B0606183157660S11710441EA0164001697000000000000
B0606223157618S11710423EA0165201707000000000000
B0606263157579S11710475EA0165901712000000000000
B0606303157586S11710558EA0166301719000000000000
B0606343157632S11710616EA0167401730000000000000
B0606383157687S11710607EA0168401738000000000000
B0606423157688S11710559EA0168901743000000000000
B0606463157636S11710568EA0169301745000000000000
B0606503157630S11710654EA0169901756000000000000
B0606543157686S11710697EA0171001763000000000000
B0606583157727S11710662EA0171601770000000000000
B0607023157703S11710619EA0172001775000000000000
B0607063157648S11710645EA0172301780000000000000
B0607103157635S11710729EA0173201790000000000000
B0607143157679S11710796EA0173801796000000000000
B0607183157738S11710794EA0174701808000000000000
B0607223157755S11710746EA0175701817000000000000
B0607263157718S11710718EA0176601822000000000000
B0607303157671S11710764EA0176201817000000000000
B0607343157645S11710852EA0175501810000000000000
B0607383157628S11710954EA0174901806000000000000
B0607423157622S11711062EA0175101809000000000000
B0607463157618S11711173EA0175301808000000000000
B0607503157617S11711282EA0175901816000000000000
B0607543157615S11711394EA0174601795000000000000
B0607583157584S11711508EA0173301786000000000000
B0608023157536S11711613EA0174201805000000000000
B0608063157492S11711719EA0175101811000000000000
B0608103157446S11711825EA0174501798000000000000
B0608143157387S11711927EA0173501791000000000000
B0608183157324S11712018EA0173901808000000000000
B0608223157264S11712101EA0175701826000000000000
B0608263157206S11712180EA0176701828000000000000
B0608303157145S11712262EA0176401823000000000000
B0608343157079S11712343EA0175901820000000000000
B0608383157012S11712425EA0176101822000000000000
B0608423156947S11712506EA0175701814000000000000
B0608463156881S11712588EA0174701798000000000000
B0608503156808S11712662EA0172201769000000000000
B0608543156730S11712729EA0170301757000000000000
B0608583156653S11712791EA0169701753000000000000
B0609023156581S11712850EA0169601752000000000000
B0609063156509S11712907EA0169401750000000000000
B0609103156438S11712963EA0168801742000000000000
B0609143156364S11713016EA0168001733000000000000
B0609183156288S11713072EA0167301723000000000000
B0609223156213S11713130EA0166201711000000000000
B0609263156137S11713192EA0165001697000000000000
B0609303156061S11713254EA0163801686000000000000
B0609343155984S11713314EA0163301682000000000000
B0609383155906S11713368EA0163001680000000000000
B0609423155829S11713422EA0162601678000000000000
B0609463155754S11713475EA0162901682000000000000
B0609503155680S11713526EA0163001677000000000000
B0609543155600S11713582EA0161601661000000000000
B0609583155517S11713640EA0160701658000000000000
B0610023155439S11713701EA0162101683000000000000
B0610063155387S11713786EA0164701704000000000000
B0610103155376S11713887EA0166801726000000000000
B0610143155422S11713959EA0168001729000000000000
B0610183155485S11713944EA0167801728000000000000
B0610223155496S11713886EA0167601729000000015000
B0610263155460S11713838EA0167601731000000015000
B0610303155404S11713806EA0167801726000000000000
B0610343155331S11713800EA0165001692000000000000
B0610383155247S11713840EA0163101675000000000000
B0610423155165S11713897EA0162201677000000000000
B0610463155090S11713962EA0162701678000000000000
B0610503155013S11714030EA0162501677000000000000
B0610543154939S11714098EA0163101682000000000000
B0610583154867S11714168EA0162501669000000000000
B0611023154791S11714242EA0160801651000000000000
B0611063154711S11714313EA0159501640000000000000
B0611103154632S11714381EA0158701628000000000000
B0611143154555S11714445EA0158001625000000000000
B0611183154480S11714510EA0156801611000000000000
B0611223154404S11714577EA0155701596000000000000
B0611263154326S11714646EA0154701588000000000000
B0611303154252S11714718EA0154501592000000000000
B0611343154183S11714793EA0155501609000000000000
B0611383154118S11714867EA0157101625000000000000
B0611423154059S11714943EA0157801625000000000000
B0611463154000S11715022EA0157301620000000000000
B0611503153933S11715093EA0156301608000000000000
B0611543153856S11715153EA0155901606000000000000
B0611583153778S11715208EA0155901605000000000000
B0612023153697S11715249EA0155201594000000000000
B0612063153614S11715278EA0154301586000000000000
B0612103153531S11715296EA0153601581000000000000
B0612143153450S11715307EA0154201595000000000000
B0612183153379S11715307EA0155601606000000000000
B0612223153309S11715309EA0156201611000000000000
B0612263153238S11715340EA0157401625000000000000
B0612303153203S11715430EA0158601636000000000000
B0612343153251S11715512EA0159301640000000000000
B0612383153312S11715513EA0159301636000000015000
B0612423153338S11715468EA0158701627000000015000
B0612463153315S11715416EA0157701618000000015000
B0612503153253S11715392EA0157501624000000000000
B0612543153185S11715385EA0157701624000000000000
B0612583153115S11715381EA0158301633000000000000
B0613023153042S11715379EA0158001622000000000000
B0613063152967S11715383EA0157301619000000000000
B0613103152887S11715403EA0156501606000000000000
B0613143152805S11715456EA0155201598000000000000
B0613183152724S11715519EA0154501583000000000000
B0613223152640S11715581EA0153701578000000000000
B0613263152561S11715641EA0153501581000000000000
B0613303152486S11715706EA0153801585000000000000
B0613343152415S11715768EA0154601600000000000000
B0613383152348S11715825EA0156201618000000000000
B0613423152283S11715876EA0157601629000000000000
B0613463152222S11715935EA0158501637000000000000
B0613503152163S11715997EA0159901651000000000000
B0613543152145S11716089EA0161601671000000000000
B0613583152197S11716153EA0163401695000000000000
B0614023152254S11716140EA0164801700000000000000
B0614063152253S11716094EA0165801716000000000000
B0614103152201S11716102EA0166901724000000000000
B0614143152179S11716187EA0167901738000000000000
B0614183152230S11716253EA0169501756000000000000
B0614223152283S11716236EA0171201773000000000000
B0614263152270S11716198EA0172501781000000000000
B0614303152217S11716226EA0173001792000000000000
B0614343152205S11716313EA0174401809000000000000
B0614383152261S11716366EA0175701816000000000000
B0614423152311S11716339EA0176601828000000000000
B0614463152288S11716301EA0177601836000000000000
B0614503152236S11716343EA0178601850000000000000
B0614543152240S11716432EA0180101868000000000000
B0614583152295S11716488EA0181501879000000000000
B0615023152354S11716474EA0181901882000000015000
B0615063152353S11716427EA0182901895000000015000
B0615103152301S11716443EA0183901904000000000000
B0615143152293S11716533EA0185201921000000000000
B0615183152350S11716587EA0186501929000000015000
B0615223152402S11716561EA0186601930000000015000
B0615263152388S11716516EA0187301945000000015000
B0615303152335S11716527EA0188301947000000000000
B0615343152306S11716614EA0188401951000000000000
B0615383152343S11716700EA0189401964000000000000
B0615423152414S11716720EA0190101967000000015000
B0615463152449S11716676EA0190601975000000015000
B0615503152427S11716630EA0191401982000000000000
B0615543152370S11716622EA0191401974000000000000
B0615583152292S11716651EA0189801958000000000000
B0616023152206S11716695EA0188701954000000000000
B0616063152118S11716747EA0188201946000000000000
B0616103152029S11716803EA0186801930000000000000
B0616143151940S11716861EA0185601920000000000000
B0616183151851S11716921EA0185001914000000000000
B0616223151765S11716984EA0184101904000000000000
B0616263151681S11717049EA0183501901000000000000
B0616303151599S11717111EA0182901892000000000000
B0616343151518S11717172EA0182501891000000000000
B0616383151439S11717231EA0181701879000000000000
B0616423151357S11717285EA0180301864000000000000
B0616463151277S11717337EA0179601860000000000000
B0616503151196S11717388EA0178901848000000000000
B0616543151115S11717443EA0177701835000000000000
B0616583151034S11717500EA0176501824000000000000
B0617023150953S11717554EA0176101822000000000000
B0617063150874S11717605EA0175501816000000000000
B0617103150796S11717652EA0174801808000000000000
B0617143150716S11717695EA0174001797000000000000
B0617183150636S11717738EA0173201791000000000000
B0617223150556S11717783EA0172201780000000000000
B0617263150475S11717830EA0171401768000000000000
B0617303150394S11717879EA0171101771000000000000
B0617343150316S11717930EA0172001784000000000000
B0617383150239S11717978EA0172801789000000000000
B0617423150163S11718029EA0173101790000000000000
B0617463150087S11718082EA0173401796000000000000
B0617503150012S11718135EA0173801800000000000000
B0617543149936S11718191EA0173401793000000000000
B0617583149854S11718249EA0172001777000000000000
B0618023149769S11718306EA0171101764000000000000
B0618063149680S11718362EA0169501746000000000000
B0618103149594S11718416EA0168201734000000000000
B0618143149511S11718471EA0167001723000000000000
B0618183149428S11718525EA0166901715000000000000
B0618223149345S11718580EA0165901703000000000000
B0618263149260S11718636EA0164701692000000000000
B0618303149177S11718689EA0164101686000000000000
B0618343149093S11718741EA0163201670000000000000
B0618383149006S11718793EA0161601657000000000000
B0618423148920S11718849EA0160501647000000000000
B0618463148837S11718905EA0159401635000000000000
B0618503148755S11718960EA0158401627000000000000
B0618543148674S11719012EA0157901623000000000000
B0618583148593S11719062EA0157601615000000000000
B0619023148514S11719112EA0158101624000000000000
B0619063148441S11719162EA0158401622000000000000
B0619103148367S11719217EA0156601600000000000000
B0619143148293S11719273EA0155901594000000000000
B0619183148218S11719331EA0155001583000000000000
B0619223148142S11719390EA0154801587000000000000
B0619263148068S11719448EA0154801590000000000000
B0619303147994S11719508EA0155501601000000000000
B0619343147924S11719565EA0157401627000000000000
B0619383147888S11719654EA0159701644000000000000
B0619423147932S11719741EA0160601648000000000000
B0619463147995S11719731EA0160301642000000015000
B0619503147989S11719682EA0159801639000000015000
B0619543147932S11719684EA0159401639000000000000
B0619583147871S11719729EA0159201645000000000000
B0620023147810S11719781EA0158501626000000000000
B0620063147742S11719840EA0156501603000000000000
B0620103147669S11719896EA0155901606000000000000
B0620143147594S11719955EA0156301616000000000000
B0620183147520S11720011EA0158301637000000000000
B0620223147474S11720095EA0160901667000000000000
B0620263147516S11720169EA0163301688000000000000
B0620303147570S11720145EA0164701701000000000000
B0620343147557S11720098EA0166301718000000000000
B0620383147503S11720122EA0167801736000000000000
B0620423147477S11720206EA0169101746000000000000
B0620463147520S11720282EA0169901754000000000000
B0620503147581S11720270EA0170801769000000000000
B0620543147578S11720222EA0172601787000000000000
B0620583147525S11720240EA0174101800000000000000
B0621023147505S11720330EA0174901809000000000000
B0621063147552S11720401EA0176201826000000000000
B0621103147609S11720392EA0177801841000000000000
B0621143147608S11720345EA0179201856000000000000
B0621183147557S11720355EA0180101863000000000000
B0621223147527S11720442EA0180401867000000000000
B0621263147551S11720534EA0181601887000000000000
B0621303147618S11720565EA0183401902000000000000
B0621343147652S11720520EA0185001919000000000000
B0621383147612S11720492EA0186801939000000000000
B0621423147564S11720543EA0188301953000000000000
B0621463147561S11720637EA0189201960000000000000
B0621503147617S11720704EA0190301974000000000000
B0621543147672S11720683EA0192601999000000000000
B0621583147657S11720639EA0194402014000000000000
B0622023147605S11720693EA0195402018000000000000
B0622063147648S11720780EA0196502036000000000000
B0622103147713S11720768EA0198102063000000000000
B0622143147707S11720719EA0200402081000000000000
B0622183147650S11720726EA0202002100000000000000
B0622223147630S11720815EA0203802113000000000000
B0622263147668S11720911EA0204502123000000000000
B0622303147735S11720949EA0206502153000000000000
B0622343147761S11720904EA0209202174000000000000
B0622383147717S11720888EA0210902194000000000000
B0622423147674S11720958EA0212802211000000000000
B0622463147696S11721058EA0214002223000000000000
B0622503147765S11721093EA0216302253000000000000
B0622543147800S11721055EA0218602269000000000000
B0622583147765S11721018EA0219702280000000000000
B0623023147706S11721063EA0221102295000000000000
B0623063147700S11721168EA0222602310000000000000
B0623103147769S11721223EA0223902321000000000000
B0623143147810S11721174EA0225102339000000000000
B0623183147776S11721131EA0227402366000000000000
B0623223147716S11721157EA0229602388000000000000
B0623263147687S11721249EA0231002398000000000000
B0623303147722S11721348EA0231502409000000000000
B0623343147794S11721385EA0233302431000000000000
B0623383147850S11721369EA0234802437000000000000
B0623423147862S11721317EA0235502451000000000000
B0623463147828S11721284EA0237502476000000000000
B0623503147781S11721336EA0239302491000000000000
B0623543147798S11721436EA0240402500000000000000
B0623583147869S11721484EA0241602515000000000000
B0624023147915S11721457EA0243702536000000000000
B0624063147891S11721426EA0245202549000000000000
B0624103147838S11721469EA0246502565000000000000
B0624143147834S11721571EA0247802577000000000000
B0624183147891S11721660EA0248902583000000000000
B0624223147967S11721668EA0249902596000000000000
B0624263147985S11721610EA0250902606000000000000
B0624303147938S11721578EA0252202623000000000000
B0624343147871S11721616EA0253402643000000000000
B0624383147838S11721713EA0255502664000000000000
B0624423147859S11721826EA0256702667000000000000
B0624463147927S11721913EA0256902674000000000000
B0624503148011S11721941EA0258102686000000000000
B0624543148067S11721907EA0259302697000000000000
B0624583148055S11721852EA0260502711000000000000
B0625023148001S11721846EA0261802725000000000000
B0625063147955S11721920EA0262902733000000000000
B0625103147968S11722034EA0263102734000000000000
B0625143148041S11722108EA0263602743000000000000
B0625183148115S11722089EA0264402747000000000000
B0625223148111S11722029EA0264702747000000000000
B0625263148046S11722024EA0264002723000000000000
B0625303147963S11722093EA0260202687000000000000
B0625343147871S11722182EA0257602668000000000000
B0625383147773S11722276EA0256002657000000000000
B0625423147672S11722373EA0254502638000000000000
B0625463147569S11722471EA0254102622000000000000
B0625503147465S11722570EA0253402622000000000000
B0625543147362S11722666EA0253602629000000000000
B0625583147261S11722760EA0252602611000000000000
B0626023147160S11722851EA0252002608000000000000
B0626063147063S11722945EA0251402604000000000000
B0626103146968S11723038EA0251102601000000000000
B0626143146870S11723121EA0250902597000000000000
B0626183146771S11723202EA0250602597000000000000
B0626223146672S11723278EA0250202585000000000000
B0626263146573S11723356EA0249002577000000000000
B0626303146476S11723434EA0248502573000000000000
B0626343146378S11723510EA0247702561000000000000
B0626383146281S11723579EA0246102545000000000000
B0626423146182S11723642EA0245402542000000000000
B0626463146084S11723699EA0244602527000000000000
B0626503145988S11723762EA0243302517000000000000
B0626543145892S11723824EA0242702513000000000000
B0626583145800S11723884EA0242302507000000000000
B0627023145709S11723949EA0241202498000000000000
B0627063145615S11724017EA0240202492000000000000
B0627103145524S11724082EA0239702482000000000000
B0627143145434S11724144EA0239402482000000000000
B0627183145353S11724205EA0239502484000000000000
B0627223145273S11724264EA0239002476000000000000
B0627263145193S11724317EA0238402470000000015000
B0627303145113S11724373EA0237102457000000015000
B0627343145035S11724431EA0236102454000000015000
B0627383144959S11724477EA0235102445000000015000
B0627423144882S11724522EA0234602441000000015000
B0627463144808S11724569EA0233802435000000015000
B0627503144730S11724608EA0232702426000000015000
B0627543144651S11724647EA0232202418000000015000
B0627583144563S11724690EA0230902404000000015000
B0628023144474S11724729EA0229902390000000015000
B0628063144384S11724769EA0229802392000000015000
B0628103144301S11724803EA0231202402000000015000
B0628143144224S11724830EA0232302412000000015000
B0628183144146S11724863EA0232302412000000000000
B0628223144066S11724902EA0231902410000000000000
B0628263143985S11724938EA0233002420000000000000
B0628303143908S11724976EA0233502421000000015000
B0628343143828S11725011EA0233302423000000015000
B0628383143746S11725048EA0232802420000000015000
B0628423143657S11725085EA0231402403000000000000
B0628463143569S11725127EA0230302400000000000000
B0628503143483S11725170EA0230402400000000000000
B0628543143399S11725211EA0229602386000000000000
B0628583143310S11725256EA0228002377000000000000
B0629023143226S11725296EA0227802374000000000000
B0629063143140S11725330EA0227302363000000000000
B0629103143054S11725366EA0225902349000000000000
B0629143142967S11725408EA0225002339000000000000
B0629183142883S11725452EA0224602341000000000000
B0629223142803S11725492EA0225302358000000000000
B0629263142733S11725530EA0226702359000000000000
B0629303142662S11725570EA0225502338000000000000
B0629343142584S11725613EA0224102325000000000000
B0629383142507S11725657EA0224202322000000000000
B0629423142434S11725696EA0223702316000000000000
B0629463142360S11725735EA0222902304000000000000
B0629503142286S11725776EA0221802293000000000000
B0629543142210S11725818EA0220902285000000000000
B0629583142136S11725860EA0220302280000000000000
B0630023142061S11725900EA0219402267000000000000
B0630063141982S11725938EA0218302256000000000000
B0630103141900S11725978EA0217202244000000000000
B0630143141819S11726021EA0216202236000000000000
B0630183141740S11726064EA0216002233000000000000
B0630223141658S11726104EA0215702230000000000000
B0630263141575S11726141EA0215802235000000000000
B0630303141492S11726179EA0216102237000000000000
B0630343141407S11726219EA0216402244000000000000
B0630383141323S11726259EA0217002251000000000000
B0630423141239S11726299EA0217302251000000000000
B0630463141155S11726344EA0217302253000000000000
B0630503141069S11726390EA0216902246000000000000
B0630543140981S11726436EA0216402237000000000000
B0630583140891S11726480EA0215902234000000000000
B0631023140801S11726528EA0215102223000000000000
B0631063140710S11726575EA0213602202000000000000
B0631103140615S11726621EA0212002186000000000000
B0631143140520S11726662EA0210502171000000000000
B0631183140426S11726704EA0209602162000000000000
B0631223140331S11726745EA0208402148000000000000
B0631263140237S11726792EA0207202136000000000000
B0631303140143S11726840EA0206402128000000000000
B0631343140046S11726888EA0204802109000000000000
B0631383139943S11726935EA0203002088000000000000
B0631423139838S11726982EA0201402072000000000000
B0631463139734S11727027EA0200302062000000000000
B0631503139631S11727072EA0199202054000000000000
B0631543139531S11727118EA0198202041000000000000
B0631583139432S11727167EA0197102034000000000000
B0632023139337S11727212EA0196802033000000000000
B0632063139245S11727252EA0196402031000000000000
B0632103139153S11727291EA0195902023000000000000
B0632143139061S11727334EA0194902011000000000000
B0632183138967S11727380EA0193401999000000000000
B0632223138872S11727425EA0192401989000000015000
B0632263138781S11727469EA0191601981000000015000
B0632303138690S11727514EA0191201978000000000000
B0632343138604S11727558EA0192201984000000015000
B0632383138516S11727597EA0192101982000000015000
B0632423138426S11727638EA0191701976000000015000
B0632463138338S11727684EA0191401974000000015000
B0632503138248S11727726EA0191201972000000015000
B0632543138161S11727766EA0191401966000000015000
B0632583138074S11727805EA0191201971000000015000
B0633023137988S11727846EA0191401970000000015000
B0633063137902S11727888EA0190801959000000015000
B0633103137816S11727928EA0190701957000000015000
B0633143137732S11727967EA0190801955000000015000
B0633183137645S11728000EA0190001951000000000000
B0633223137555S11728035EA0189101938000000000000
B0633263137462S11728073EA0187401922000000000000
B0633303137365S11728112EA0186001908000000000000
B0633343137268S11728148EA0184901896000000000000
B0633383137170S11728181EA0184401899000000000000
B0633423137074S11728214EA0184701903000000000000
B0633463136981S11728244EA0183701902000000015000
B0633503136880S11728283EA0182401900000000015000
B0633543136782S11728322EA0181901892000000015000
B0633583136684S11728363EA0181201880000000015000
B0634023136589S11728411EA0180601871000000015000
B0634063136501S11728459EA0180901865000000015000
B0634103136410S11728506EA0179901853000000000000
B0634143136320S11728556EA0179201848000000000000
B0634183136233S11728615EA0179901853000000000000
B0634223136149S11728673EA0179701844000000000000
B0634263136065S11728730EA0180601872000000000000
B0634303136002S11728793EA0184201910000000000000
B0634343135994S11728894EA0186101930000000000000
B0634383136056S11728955EA0187601943000000000000
B0634423136111S11728937EA0187901941000000015000
B0634463136119S11728888EA0187701943000000015000
B0634503136080S11728863EA0188601959000000000000
B0634543136026S11728906EA0190201975000000000000
B0634583136012S11729002EA0191201982000000000000
B0635023136055S11729093EA0191701987000000000000
B0635063136130S11729120EA0192001992000000000000
B0635103136180S11729087EA0192501999000000015000
B0635143136180S11729039EA0193402008000000000000
B0635183136143S11729007EA0194302014000000000000
B0635223136082S11729027EA0194702019000000000000
B0635263136033S11729106EA0195102025000000000000
B0635303136016S11729213EA0196202038000000000000
B0635343136054S11729306EA0197502050000000000000
B0635383136123S11729347EA0197402045000000000000
B0635423136173S11729314EA0197302047000000015000
B0635463136178S11729263EA0197902059000000015000
B0635503136138S11729237EA0199002067000000000000
B0635543136074S11729249EA0199102064000000000000
B0635583136003S11729280EA0198202051000000000000
B0636023135926S11729318EA0196402029000000000000
B0636063135846S11729360EA0194902017000000000000
B0636103135768S11729403EA0194302013000000000000
B0636143135688S11729447EA0192901995000000000000
B0636183135606S11729492EA0191501983000000000000
B0636223135525S11729540EA0190901974000000000000
B0636263135441S11729588EA0190101971000000000000
B0636303135363S11729635EA0190501978000000000000
B0636343135291S11729679EA0190501972000000000000
B0636383135218S11729725EA0189301961000000000000
B0636423135146S11729770EA0189301965000000000000
B0636463135079S11729817EA0189401964000000000000
B0636503135007S11729860EA0188701957000000000000
B0636543134930S11729902EA0188001948000000000000
B0636583134851S11729942EA0186801941000000000000
B0637023134771S11729981EA0186701943000000000000
B0637063134689S11730019EA0187101948000000000000
B0637103134609S11730049EA0187301946000000000000
B0637143134530S11730067EA0187901954000000000000
B0637183134456S11730086EA0188201953000000000000
B0637223134381S11730105EA0186901933000000000000
B0637263134299S11730125EA0184801919000000000000
B0637303134214S11730144EA0183801913000000015000
B0637343134131S11730159EA0183601912000000015000
B0637383134049S11730176EA0183201901000000015000
B0637413133987S11730185EA0182101888000000015000
B0637463133880S11730194EA0180901872000000015000
B0637503133796S11730202EA0180101866000000015000
B0637543133712S11730209EA0179601859000000015000
B0637583133629S11730214EA0178601851000000030000
B0638023133546S11730218EA0178101847000000030000
B0638063133464S11730219EA0177501841000000030000
B0638103133382S11730218EA0177201838000000015000
B0638143133303S11730212EA0177101838000000015000
B0638183133224S11730205EA0176501836000000015000
B0638223133146S11730186EA0176601835000000015000
B0638263133068S11730171EA0176301829000000015000
B0638303132987S11730160EA0175201813000000015000
B0638343132900S11730151EA0174401801000000015000
B0638383132809S11730145EA0173901805000000015000
B0638423132719S11730138EA0174201811000000015000
B0638463132627S11730131EA0173701808000000015000
B0638503132533S11730123EA0173601803000000015000
B0638543132440S11730115EA0173701805000000015000
B0638583132349S11730108EA0175601814000000015000
B0639023132271S11730107EA0178301836000000015000
B0639063132190S11730127EA0178001825000000015000
B0639103132103S11730144EA0175401801000000000000
B0639143132012S11730151EA0173701782000000000000
B0639183131918S11730154EA0171901765000000000000
B0639223131825S11730154EA0170101747000000000000
B0639263131730S11730147EA0168501735000000000000
B0639303131636S11730140EA0167301721000000000000
B0639343131544S11730132EA0166301717000000000000
B0639383131456S11730128EA0166601721000000000000
B0639423131368S11730124EA0166301716000000000000
B0639463131280S11730121EA0165001699000000000000
B0639503131189S11730120EA0163201680000000000000
B0639543131097S11730120EA0162401674000000000000
B0639583131008S11730118EA0162401673000000000000
B0640023130920S11730118EA0162401680000000000000
B0640063130833S11730120EA0162901685000000000000
B0640103130748S11730120EA0163001685000000000000
B0640143130661S11730119EA0162801684000000015000
B0640183130574S11730119EA0162101670000000015000
B0640223130482S11730118EA0160201645000000015000
B0640263130386S11730115EA0158401634000000015000
B0640303130291S11730114EA0157601625000000015000
B0640343130198S11730108EA0156601614000000015000
B0640383130106S11730102EA0155601608000000015000
B0640423130013S11730101EA0155201604000000015000
B0640463129919S11730101EA0154501601000000015000
B0640503129825S11730101EA0155001606000000015000
B0640543129737S11730099EA0155901613000000015000
B0640583129652S11730099EA0156201615000000000000
B0641023129569S11730103EA0156701621000000000000
B0641063129487S11730115EA0156601617000000000000
B0641103129404S11730127EA0156001615000000000000
B0641143129321S11730134EA0156301625000000000000
B0641183129242S11730145EA0157401630000000000000
B0641223129160S11730151EA0157001624000000015000
B0641263129077S11730159EA0156301619000000015000
B0641303128992S11730168EA0156101615000000015000
B0641343128908S11730176EA0155801609000000015000
B0641383128823S11730184EA0155501605000000015000
B0641423128737S11730190EA0155201603000000015000
B0641463128651S11730194EA0154101596000000015000
B0641503128566S11730201EA0153201589000000015000
B0641543128484S11730205EA0153301592000000015000
B0641583128402S11730207EA0153201589000000015000
B0642023128317S11730209EA0152101576000000015000
B0642063128230S11730212EA0150901558000000015000
B0642103128141S11730216EA0149601548000000015000
B0642143128052S11730220EA0148901536000000015000
B0642183127965S11730224EA0147801525000000000000
B0642223127879S11730227EA0147401522000000000000
B0642263127793S11730229EA0146801514000000000000
B0642303127708S11730235EA0146001508000000015000
B0642343127621S11730241EA0144801489000000015000
B0642383127533S11730249EA0143401475000000015000
B0642423127444S11730259EA0142401467000000015000
B0642463127357S11730268EA0141401460000000015000
B0642503127271S11730281EA0141501456000000015000
B0642543127188S11730292EA0141101450000000015000
B0642583127102S11730300EA0140201443000000015000
B0643023127019S11730305EA0139201432000000015000
B0643063126934S11730310EA0138101418000000015000
B0643103126850S11730315EA0137101409000000000000
B0643143126768S11730320EA0136501403000000000000
B0643183126690S11730324EA0136101400000000015000
B0643223126610S11730329EA0135001396000000015000
B0643263126527S11730331EA0133401385000000015000
B0643303126444S11730335EA0132301378000000015000
B0643343126356S11730339EA0131201370000000030000
B0643383126270S11730342EA0130001365000000030000
B0643423126188S11730346EA0129801358000000030000
B0643463126105S11730353EA0129301357000000030000
B0643503126020S11730354EA0128101347000000030000
B0643543125936S11730357EA0127201321000000015000
B0643583125850S11730362EA0126101308000000015000
B0644023125767S11730370EA0125901303000000015000
B0644063125687S11730378EA0125401293000000015000
B0644103125611S11730388EA0124701282000000000000
B0644143125538S11730398EA0123701268000000000000
B0644183125465S11730409EA0122301251000000000000
B0644223125392S11730419EA0120701230000000000000
B0644263125317S11730426EA0119001215000000000000
B0644303125243S11730430EA0118301208000000000000
B0644343125170S11730433EA0117101189000000000000
B0644383125093S11730436EA0115201168000000000000
B0644423125014S11730436EA0113401154000000000000
B0644463124932S11730435EA0112001139000000000000
B0644503124850S11730432EA0111101134000000000000
B0644543124771S11730431EA0110701130000000000000
B0644583124692S11730427EA0109801119000000000000
B0645023124614S11730423EA0108701103000000000000
B0645063124533S11730418EA0107001084000000000000
B0645103124451S11730411EA0105501070000000000000
B0645143124367S11730404EA0103801052000000000000
B0645183124283S11730394EA0102701040000000000000
B0645223124198S11730387EA0101501030000000000000
B0645263124114S11730381EA0100701017000000000000
B0645303124031S11730379EA0099501008000000000000
B0645343123951S11730380EA0098901004000000000000
B0645383123873S11730383EA0098500997000000000000
B0645423123792S11730384EA0097800991000000000000
B0645463123713S11730385EA0097200984000000000000
B0645503123632S11730387EA0096700982000000000000
B0645543123553S11730387EA0097300989000000000000
B0645583123475S11730383EA0097400988000000000000
B0646023123397S11730376EA0097200984000000000000
B0646063123318S11730368EA0096500975000000000000
B0646103123238S11730357EA0095500964000000000000
B0646143123159S11730342EA0094400953000000000000
B0646183123081S11730326EA0093400943000000000000
B0646223123003S11730307EA0092900936000000000000
B0646263122929S11730288EA0092100930000000000000
B0646303122859S11730268EA0092300934000000000000
B0646343122790S11730254EA0092500935000000000000
B0646383122722S11730238EA0092400932000000000000
B0646423122656S11730216EA0091900925000000000000
B0646463122597S11730188EA0092100926000000000000
B0646503122539S11730163EA0091800915000000000000
B0646543122473S11730158EA0090900909000000000000
B0646583122411S11730197EA0090500903000000000000
B0647023122383S11730283EA0089700891000000000000
B0647063122398S11730376EA0088400879000000015000
B0647103122450S11730443EA0086900867000000015000
B0647143122515S11730491EA0085500853000000015000
B0647183122586S11730528EA0084700842000000015000
B0647223122660S11730563EA0084000836000000000000
B0647263122733S11730604EA0083500836000000000000
B0647303122800S11730658EA0083600837000000015000
B0647343122866S11730718EA0083400832000000015000
B0647383122937S11730777EA0083200829000000015000
B0647423123009S11730836EA0082200818000000015000
B0647463123082S11730895EA0080900803000000015000
B0647503123156S11730953EA0079700791000000000000
B0647543123234S11731003EA0078600774000000000000
B0647583123318S11731039EA0077100760000000000000
B0648023123401S11731068EA0075500742000000000000
B0648063123487S11731091EA0074300733000000000000
B0648103123574S11731111EA0073600729000000015000
B0648143123662S11731129EA0073500727000000015000
B0648183123749S11731142EA0073500726000000015000
B0648223123830S11731128EA0073500725000000015000
B0648263123892S11731081EA0073200719000000015000
B0648303123921S11731012EA0073000723000000015000
B0648343123931S11730937EA0072700718000000015000
B0648383123936S11730860EA0072300714000000015000
B0648423123932S11730781EA0071900713000000015000
B0648463123929S11730697EA0071400707000000015000
B0648503123893S11730632EA0072600727000000015000
B0648543123847S11730680EA0074400739000000015000
B0648583123877S11730757EA0073700726000000030000
B0649023123947S11730778EA0073500729000000030000
B0649063123992S11730738EA0074400737000000030000
B0649103123962S11730696EA0074400733000000015000
B0649143123904S11730727EA0073500720000000015000
B0649183123892S11730818EA0072400709000000015000
B0649223123929S11730911EA0071600709000000015000
B0649263123994S11730937EA0072400716000000015000
B0649303123996S11730879EA0072600719000000015000
B0649343123936S11730898EA0073300730000000015000
B0649383123918S11730981EA0074000737000000015000
B0649423123956S11731051EA0074400739000000015000
B0649463124016S11731051EA0074500739000000015000
B0649503124034S11730998EA0074700743000000015000
B0649543123995S11730961EA0075200748000000015000
B0649583123938S11730989EA0075400749000000015000
B0650023123913S11731072EA0075300749000000015000
B0650063123943S11731155EA0075400754000000015000
B0650103124004S11731172EA0076300762000000015000
B0650143124014S11731117EA0076500757000000015000
B0650183123960S11731104EA0076700765000000015000
B0650223123914S11731167EA0076900768000000015000
B0650263123921S11731256EA0077400771000000030000
B0650303123979S11731310EA0077700775000000030000
B0650343124020S11731272EA0078500781000000015000
B0650383123979S11731236EA0079300795000000015000
B0650423123926S11731273EA0080200802000000015000
B0650463123913S11731359EA0080300801000000015000
B0650503123957S11731429EA0080900809000000015000
B0650543124017S11731425EA0081500815000000015000
B0650583124033S11731372EA0081700819000000015000
B0651023123982S11731343EA0081900821000000015000
B0651063123926S11731395EA0082400832000000015000
B0651103123917S11731485EA0083300835000000015000
B0651143123961S11731564EA0083300834000000015000
B0651183124025S11731567EA0084000846000000015000
B0651223124021S11731512EA0084400843000000015000
B0651263123958S11731509EA0084400847000000015000
B0651303123917S11731585EA0085100857000000015000
B0651343123940S11731679EA0085900863000000015000
B0651383124003S11731728EA0086200866000000015000
B0651423124062S11731710EA0086700871000000015000
B0651463124073S11731653EA0086700870000000015000
B0651503124025S11731618EA0087000877000000015000
B0651543123962S11731652EA0087600888000000015000
B0651583123939S11731739EA0088700896000000015000
B0652023123977S11731822EA0089100897000000015000
B0652063124044S11731845EA0089000895000000015000
B0652103124088S11731802EA0089300900000000015000
B0652143124068S11731748EA0089600902000000015000
B0652183124004S11731752EA0090400916000000015000
B0652223123965S11731824EA0091800930000000015000
B0652263123984S11731913EA0092100929000000015000
B0652303124052S11731945EA0091800925000000015000
B0652343124104S11731909EA0092000928000000015000
B0652383124088S11731854EA0092200939000000015000
B0652423124031S11731888EA0093900957000000015000
B0652463124027S11731973EA0095000963000000045000
B0652503124086S11732022EA0095300965000000030000
B0652543124140S11731996EA0095300959000000030000
B0652583124134S11731934EA0094900961000000015000
B0653023124073S11731915EA0095800974000000015000
B0653063124012S11731964EA0097000983000000015000
B0653103123981S11732051EA0097200982000000015000
B0653143123996S11732151EA0097200982000000015000
B0653183124053S11732224EA0097400984000000015000
B0653223124124S11732255EA0097400986000000030000
B0653263124186S11732237EA0097700988000000045000
B0653303124212S11732183EA0097700984000000090000
B0653343124218S11732121EA0097400978000000090000
B0653383124196S11732060EA0097900990000000045000
B0653423124139S11732091EA0099501010000000030000
B0653463124142S11732181EA0100101013000000045000
B0653503124202S11732226EA0100401016000000045000
B0653543124251S11732195EA0100601018000000045000
B0653583124244S11732138EA0101501032000000030000
B0654023124195S11732122EA0102601045000000015000
B0654063124146S11732173EA0103401051000000015000
B0654103124135S11732263EA0103501053000000015000
B0654143124179S11732338EA0104101058000000030000
B0654183124242S11732350EA0104801069000000030000
B0654223124260S11732307EA0106401088000000030000
B0654263124221S11732291EA0107501097000000015000
B0654303124181S11732348EA0107901097000000015000
B0654343124196S11732434EA0108101105000000030000
B0654383124256S11732464EA0109201114000000030000
B0654423124293S11732430EA0109901119000000030000
B0654463124274S11732389EA0110801130000000015000
B0654503124224S11732400EA0111301133000000015000
B0654543124192S11732474EA0111301135000000015000
B0654583124204S11732563EA0111601139000000030000
B0655023124261S11732595EA0112101143000000030000
B0655063124282S11732554EA0112801153000000030000
B0655103124242S11732537EA0114101169000000015000
B0655143124198S11732586EA0114601166000000015000
B0655183124196S11732676EA0114301165000000015000
B0655223124251S11732734EA0114301165000000015000
B0655263124312S11732728EA0114701171000000015000
B0655303124335S11732679EA0115101175000000030000
B0655343124295S11732651EA0116301190000000015000
B0655383124243S11732692EA0117001195000000015000
B0655423124212S11732777EA0117101193000000015000
B0655463124229S11732871EA0117501203000000015000
B0655503124289S11732901EA0118401210000000030000
B0655543124329S11732864EA0118501212000000030000
B0655583124315S11732818EA0119001219000000015000
B0656023124256S11732822EA0119801227000000015000
B0656063124207S11732892EA0120401234000000015000
B0656103124212S11732988EA0120901241000000015000
B0656143124268S11733033EA0122101251000000015000
B0656183124313S11733011EA0122501252000000015000
B0656223124299S11732968EA0123001262000000015000
B0656263124244S11732980EA0124301277000000015000
B0656303124208S11733056EA0125101280000000015000
B0656343124229S11733140EA0125701289000000015000
B0656383124286S11733160EA0125801283000000015000
B0656423124315S11733118EA0125601291000000015000
B0656463124289S11733076EA0126301300000000015000
B0656503124229S11733087EA0127301310000000015000
B0656543124182S11733154EA0127801311000000015000
B0656583124189S11733252EA0127801315000000015000
B0657023124231S11733336EA0128101314000000015000
B0657063124298S11733391EA0127601306000000015000
B0657103124373S11733452EA0125201272000000015000
B0657143124449S11733539EA0123001256000000015000
B0657183124516S11733637EA0122501254000000015000
B0657223124577S11733737EA0122301251000000015000
B0657263124632S11733841EA0121501239000000015000
B0657303124684S11733943EA0120501234000000000000
B0657343124733S11734042EA0119901224000000000000
B0657383124784S11734142EA0119001216000000000000
B0657423124835S11734236EA0118401210000000000000
B0657463124887S11734328EA0117401197000000000000
B0657503124940S11734422EA0115701182000000000000
B0657543124995S11734513EA0115101175000000000000
B0657583125047S11734600EA0114401166000000000000
B0658023125100S11734688EA0113501157000000000000
B0658063125151S11734777EA0112501148000000000000
B0658103125203S11734866EA0111401135000000000000
B0658143125257S11734956EA0110501128000000000000
B0658183125312S11735047EA0109701118000000000000
B0658223125366S11735142EA0108501104000000000000
B0658263125422S11735237EA0107701098000000000000
B0658303125479S11735328EA0107001087000000000000
B0658343125537S11735419EA0106001076000000000000
B0658383125594S11735509EA0104901067000000000000
B0658423125650S11735600EA0104001056000000000000
B0658463125710S11735688EA0103401054000000000000
B0658503125775S11735766EA0104501069000000000000
B0658543125840S11735836EA0105301075000000000000
B0658583125910S11735853EA0106901093000000000000
B0659023125931S11735805EA0108401106000000015000
B0659063125886S11735792EA0109001114000000015000
B0659103125849S11735856EA0109001107000000015000
B0659143125860S11735951EA0108401105000000015000
B0659183125908S11736025EA0109001123000000015000
B0659223125962S11736014EA0110901137000000015000
B0659263125946S11735970EA0111701144000000015000
B0659303125893S11735991EA0112301152000000015000
B0659343125867S11736073EA0112601151000000015000
B0659383125899S11736157EA0112801159000000015000
B0659423125962S11736178EA0114301175000000015000
B0659463125993S11736137EA0115201180000000015000
B0659503125960S11736100EA0115701189000000015000
B0659543125906S11736131EA0116801199000000015000
B0659583125884S11736216EA0116901199000000015000
B0700023125907S11736307EA0117401208000000015000
B0700063125967S11736350EA0118401219000000015000
B0700103126002S11736313EA0119401223000000015000
B0700143125960S11736289EA0119801230000000015000
B0700183125907S11736337EA0120901247000000015000
B0700223125888S11736425EA0122101257000000015000
B0700263125916S11736514EA0122501258000000015000
B0700303125983S11736556EA0122701261000000015000
B0700343126036S11736525EA0124001277000000015000
B0700383126031S11736475EA0125101287000000015000
B0700423125977S11736476EA0126201300000000015000
B0700463125941S11736549EA0127201310000000015000
B0700503125959S11736641EA0128101322000000015000
B0700543126022S11736689EA0129001326000000015000
B0700583126077S11736664EA0129801338000000015000
B0701023126079S11736608EA0130301343000000015000
B0701063126028S11736584EA0130901348000000015000
B0701103125964S11736623EA0131401355000000015000
B0701143125946S11736718EA0133101377000000015000
B0701183125988S11736802EA0134701386000000015000
B0701223126058S11736827EA0135201391000000015000
B0701263126100S11736785EA0135701397000000015000
B0701303126080S11736737EA0136401407000000015000
B0701343126024S11736746EA0137301420000000015000
B0701383125980S11736816EA0138201426000000015000
B0701423125990S11736914EA0139301444000000015000
B0701463126049S11736961EA0141201458000000015000
B0701503126097S11736935EA0141101449000000030000
B0701543126089S11736883EA0141001458000000015000
B0701583126033S11736878EA0142101472000000015000
B0702023125984S11736940EA0143401484000000015000
B0702063125983S11737035EA0145001501000000030000
B0702103126031S11737102EA0146601514000000030000
B0702143126092S11737115EA0146601508000000030000
B0702183126122S11737073EA0146301508000000030000
B0702223126098S11737026EA0146601519000000015000
B0702263126042S11737031EA0147801533000000015000
B0702303126006S11737108EA0149001547000000015000
B0702343126037S11737192EA0150601564000000015000
B0702383126100S11737197EA0151701561000000030000
B0702423126113S11737143EA0151601570000000015000
B0702463126066S11737119EA0152701583000000015000
B0702503126010S11737167EA0153801594000000015000
B0702543125997S11737266EA0154801602000000015000
B0702583126048S11737346EA0155801616000000015000
B0703023126111S11737347EA0157701635000000015000
B0703063126127S11737305EA0158801641000000015000
B0703103126085S11737282EA0159101646000000015000
B0703143126028S11737320EA0159801656000000015000
B0703183125999S11737409EA0160701666000000015000
B0703223126022S11737504EA0161501675000000030000
B0703263126083S11737565EA0162001675000000030000
B0703303126148S11737567EA0162001677000000030000
B0703343126166S11737520EA0163001688000000030000
B0703383126128S11737490EA0163401690000000015000
B0703423126062S11737512EA0163501692000000015000
B0703463126007S11737583EA0164301704000000015000
B0703503125986S11737682EA0164701695000000015000
B0703543126015S11737788EA0162701670000000015000
B0703583126083S11737876EA0160101646000000015000
B0704023126158S11737963EA0158701640000000015000
B0704063126236S11738045EA0158201635000000015000
B0704103126317S11738124EA0157301621000000000000
B0704143126399S11738209EA0156101610000000000000
B0704183126483S11738292EA0155001599000000000000
B0704223126570S11738375EA0153901587000000000000
B0704263126657S11738456EA0153301583000000000000
B0704303126746S11738531EA0153101581000000000000
B0704343126831S11738603EA0153301588000000000000
B0704383126912S11738669EA0153801591000000000000
B0704423126991S11738735EA0153501583000000000000
B0704463127073S11738804EA0152801577000000000000
B0704503127154S11738876EA0152301572000000000000
B0704543127232S11738950EA0151901568000000000000
B0704583127309S11739023EA0151601566000000000000
B0705023127383S11739091EA0151301560000000000000
B0705063127457S11739162EA0150201544000000000000
B0705103127533S11739233EA0148701530000000000000
B0705143127608S11739306EA0148101528000000000000
B0705183127683S11739374EA0147401516000000000000
B0705223127760S11739439EA0146401507000000000000
B0705263127839S11739501EA0145101494000000000000
B0705303127918S11739562EA0144401487000000000000
B0705343127998S11739621EA0143801480000000000000
B0705383128079S11739678EA0143501483000000000000
B0705423128159S11739732EA0143701481000000000000
B0705463128238S11739783EA0143401477000000000000
B0705503128319S11739834EA0142401464000000000000
B0705543128397S11739890EA0141501456000000015000
B0705583128476S11739946EA0140901451000000015000
B0706023128554S11740003EA0140401443000000015000
B0706063128632S11740063EA0139601433000000015000
B0706103128713S11740118EA0138901434000000015000
B0706143128787S11740168EA0140001447000000015000
B0706183128861S11740209EA0141001454000000015000
B0706223128931S11740209EA0141801460000000015000
B0706263128950S11740165EA0142601469000000015000
B0706303128909S11740144EA0142401461000000015000
B0706343128853S11740196EA0141201447000000015000
B0706383128836S11740299EA0139801434000000015000
B0706423128871S11740403EA0139801443000000015000
B0706463128915S11740497EA0140501449000000015000
B0706503128969S11740585EA0140601447000000015000
B0706543129027S11740670EA0139801438000000015000
B0706583129091S11740749EA0139301432000000000000
B0707023129157S11740828EA0138201419000000000000
B0707063129225S11740909EA0137201410000000000000
B0707103129295S11740986EA0136101396000000000000
B0707143129364S11741062EA0135201391000000000000
B0707183129435S11741130EA0134801388000000000000
B0707223129508S11741195EA0133901375000000000000
B0707263129584S11741261EA0132901362000000000000
B0707303129663S11741314EA0132301360000000000000
B0707343129745S11741359EA0131701349000000000000
B0707383129828S11741400EA0130401338000000000000
B0707423129911S11741443EA0130001333000000000000
B0707463129996S11741477EA0129801333000000000000
B0707503130078S11741499EA0130001337000000000000
B0707543130159S11741513EA0129501328000000000000
B0707583130240S11741526EA0129301326000000000000
B0708023130321S11741541EA0129101324000000000000
B0708063130401S11741574EA0128801323000000000000
B0708103130478S11741630EA0128901322000000000000
B0708143130547S11741698EA0128901321000000000000
B0708183130613S11741771EA0128201308000000000000
B0708223130690S11741836EA0126901299000000015000
B0708263130776S11741872EA0126701300000000015000
B0708303130843S11741849EA0127601314000000015000
B0708343130833S11741793EA0128901324000000015000
B0708383130781S11741798EA0129101322000000030000
B0708423130747S11741872EA0128601314000000030000
B0708463130757S11741968EA0127601307000000060000
B0708503130796S11742059EA0126801299000000030000
B0708543130842S11742145EA0126601301000000030000
B0708583130891S11742230EA0126201293000000030000
B0709023130950S11742312EA0124801277000000030000
B0709063131015S11742390EA0124001271000000030000
B0709103131088S11742452EA0123801273000000015000
B0709143131168S11742490EA0124501279000000015000
B0709183131229S11742469EA0125601292000000015000
B0709223131197S11742434EA0126801308000000015000
B0709263131146S11742481EA0128001324000000015000
B0709303131147S11742570EA0129501336000000015000
B0709343131205S11742618EA0130201343000000015000
B0709383131249S11742591EA0131101349000000015000
B0709423131222S11742555EA0131601358000000015000
B0709463131170S11742586EA0132901374000000015000
B0709503131151S11742669EA0133801377000000015000
B0709543131186S11742756EA0133901380000000015000
B0709583131253S11742793EA0134801392000000015000
B0710023131307S11742773EA0135601398000000015000
B0710063131319S11742725EA0136101402000000015000
B0710103131290S11742686EA0136401409000000015000
B0710143131236S11742686EA0136901416000000015000
B0710183131181S11742733EA0137701424000000015000
B0710223131153S11742819EA0138501432000000015000
B0710263131173S11742910EA0139001432000000015000
B0710303131232S11742972EA0139001437000000015000
B0710343131301S11742984EA0139601442000000015000
B0710383131337S11742945EA0140101453000000015000
B0710423131307S11742915EA0141501467000000015000
B0710463131254S11742947EA0141901464000000015000
B0710503131232S11743037EA0141901469000000015000
B0710543131258S11743131EA0142701476000000015000
B0710583131326S11743177EA0143401486000000015000
B0711023131372S11743154EA0144401494000000015000
B0711063131346S11743128EA0145501509000000015000
B0711103131297S11743172EA0146401516000000015000
B0711143131292S11743262EA0147401528000000015000
B0711183131340S11743326EA0148501539000000015000
B0711223131396S11743324EA0148901539000000015000
B0711263131410S11743281EA0148901540000000015000
B0711303131371S11743258EA0149101544000000015000
B0711343131315S11743300EA0149501551000000015000
B0711383131303S11743391EA0150501562000000015000
B0711423131348S11743466EA0151601574000000015000
B0711463131409S11743484EA0152601580000000015000
B0711503131448S11743450EA0152701581000000015000
B0711543131440S11743405EA0153201587000000015000
B0711583131394S11743391EA0153701590000000015000
B0712023131339S11743427EA0153701591000000015000
B0712063131315S11743514EA0154101595000000015000
B0712103131344S11743609EA0154101594000000015000
B0712143131407S11743679EA0154301600000000015000
B0712183131482S11743708EA0154701602000000015000
B0712223131557S11743708EA0154401593000000015000
B0712263131636S11743697EA0153901590000000015000
B0712303131716S11743679EA0152901578000000000000
B0712343131795S11743652EA0151701568000000000000
B0712383131869S11743614EA0150901560000000000000
B0712423131940S11743569EA0149701547000000000000
B0712463132007S11743510EA0148801537000000000000
B0712503132067S11743444EA0148001531000000000000
B0712543132122S11743375EA0147601525000000000000
B0712583132176S11743306EA0147401528000000000000
B0713023132229S11743238EA0147201523000000000000
B0713063132284S11743171EA0146501516000000000000
B0713103132336S11743102EA0145501505000000000000
B0713143132390S11743033EA0144801499000000000000
B0713183132445S11742964EA0144401492000000000000
B0713223132499S11742894EA0143401482000000000000
B0713263132555S11742821EA0142701475000000000000
B0713303132610S11742751EA0142301472000000000000
B0713343132663S11742681EA0141801468000000000000
B0713383132717S11742612EA0141401464000000000000
B0713423132770S11742543EA0140701456000000000000
B0713463132821S11742474EA0140101448000000000000
B0713503132873S11742406EA0139101433000000000000
B0713543132925S11742336EA0138001424000000000000
B0713583132975S11742266EA0137001411000000000000
B0714023133023S11742193EA0136201403000000000000
B0714063133069S11742119EA0135801402000000000000
B0714103133114S11742046EA0135601399000000000000
B0714143133157S11741972EA0135701400000000000000
B0714183133185S11741893EA0135401395000000000000
B0714223133200S11741812EA0134901390000000000000
B0714263133213S11741734EA0135001392000000000000
B0714303133222S11741656EA0134601384000000000000
B0714343133229S11741577EA0133601375000000000000
B0714383133233S11741496EA0132601365000000000000
B0714423133243S11741413EA0131701353000000000000
B0714463133266S11741329EA0130701346000000000000
B0714503133299S11741248EA0130501345000000000000
B0714543133338S11741171EA0130601348000000000000
B0714583133377S11741096EA0131201353000000000000
B0715023133394S11741021EA0131901360000000000000
B0715063133398S11740947EA0132001358000000000000
B0715103133393S11740874EA0132001359000000000000
B0715143133385S11740805EA0131601349000000000000
B0715183133380S11740729EA0130701344000000000000
B0715223133372S11740655EA0130901346000000000000
B0715263133360S11740583EA0130401339000000000000
B0715303133347S11740511EA0130301339000000000000
B0715343133329S11740443EA0130801350000000000000
B0715383133307S11740381EA0131601353000000000000
B0715423133278S11740323EA0131401350000000000000
B0715463133246S11740264EA0130201334000000000000
B0715503133221S11740196EA0128601316000000000000
B0715543133216S11740120EA0127701309000000000000
B0715583133235S11740046EA0127001300000000000000
B0716023133273S11739981EA0126401295000000000000
B0716063133321S11739921EA0125701284000000000000
B0716103133380S11739866EA0123901264000000000000
B0716143133445S11739816EA0122801258000000000000
B0716183133515S11739774EA0122301254000000000000
B0716223133589S11739741EA0121201238000000000000
B0716263133667S11739713EA0120101230000000000000
B0716303133744S11739688EA0120101231000000000000
B0716343133818S11739663EA0119601221000000000000
B0716383133888S11739632EA0118801220000000000000
B0716423133957S11739600EA0119401227000000000000
B0716463134020S11739562EA0119801229000000000000
B0716503134031S11739507EA0120801247000000000000
B0716543133980S11739513EA0122201255000000000000
B0716583133954S11739600EA0121601239000000000000
B0717023134002S11739688EA0120901239000000000000
B0717063134074S11739740EA0120801238000000000000
B0717103134150S11739784EA0120301232000000000000
B0717143134235S11739810EA0119801224000000000000
B0717183134314S11739804EA0120101236000000000000
B0717223134345S11739754EA0121601250000000000000
B0717263134351S11739704EA0122201253000000000000
B0717303134325S11739670EA0122601256000000000000
B0717343134271S11739692EA0122301246000000000000
B0717383134240S11739778EA0121201235000000000000
B0717423134261S11739879EA0120401230000000000000
B0717463134314S11739962EA0120001226000000000000
B0717503134390S11740013EA0119501220000000000000
B0717543134473S11740025EA0119001217000000000000
B0717583134531S11739990EA0119501224000000015000
B0718023134521S11739939EA0119601224000000015000
B0718063134465S11739953EA0119501221000000000000
B0718103134442S11740044EA0119001213000000015000
B0718143134462S11740148EA0118101205000000015000
B0718183134496S11740254EA0117301198000000000000
B0718223134546S11740351EA0116701191000000000000
B0718263134626S11740399EA0116501192000000000000
B0718303134708S11740406EA0116501191000000000000
B0718343134787S11740397EA0115801180000000015000
B0718383134865S11740375EA0114101164000000015000
B0718423134945S11740346EA0112701149000000000000
B0718463135023S11740315EA0111901142000000000000
B0718503135099S11740281EA0111101133000000000000
B0718543135174S11740245EA0110101126000000000000
B0718583135246S11740207EA0109301116000000000000
B0719023135318S11740169EA0108401107000000000000
B0719063135388S11740129EA0107301095000000000000
B0719103135457S11740090EA0106601087000000000000
B0719143135527S11740051EA0105701072000000000000
B0719183135596S11740009EA0104301063000000000000
B0719223135664S11739968EA0103601053000000000000
B0719263135729S11739921EA0102401040000000000000
B0719303135792S11739871EA0101601034000000000000
B0719343135839S11739816EA0102701049000000000000
B0719383135859S11739753EA0104001065000000000000
B0719423135850S11739699EA0105901085000000000000
B0719463135801S11739706EA0106801085000000000000
B0719503135778S11739787EA0105101059000000000000
B0719543135820S11739874EA0103201043000000000000
B0719583135889S11739936EA0102601044000000000000
B0720023135961S11739949EA0103601059000000000000
B0720063135983S11739907EA0105001068000000000000
B0720103135942S11739891EA0105401074000000000000
B0720143135902S11739953EA0106301084000000000000
B0720183135918S11740044EA0106501081000000000000
B0720223135986S11740090EA0106501082000000000000
B0720263136045S11740065EA0106401082000000015000
B0720303136052S11740009EA0106301080000000015000
B0720343136012S11739972EA0106301082000000015000
B0720383135954S11739990EA0107101097000000015000
B0720423135950S11740079EA0108001100000000000000
B0720463136012S11740139EA0108101102000000000000
B0720503136077S11740130EA0108501107000000015000
B0720543136100S11740079EA0108701108000000015000
B0720583136068S11740042EA0109201119000000015000
B0721023136015S11740066EA0110201130000000015000
B0721063135985S11740143EA0110701127000000000000
B0721103136004S11740237EA0110001118000000015000
B0721143136071S11740295EA0109401118000000015000
B0721183136143S11740299EA0110401131000000015000
B0721223136186S11740259EA0110801132000000015000
B0721263136176S11740206EA0111101136000000015000
B0721303136124S11740193EA0111901146000000000000
B0721343136077S11740252EA0112801153000000000000
B0721383136073S11740347EA0113001155000000000000
B0721423136117S11740432EA0112901153000000000000
B0721463136191S11740462EA0113401164000000000000
B0721503136241S11740429EA0114201168000000000000
B0721543136224S11740381EA0114601173000000015000
B0721583136169S11740397EA0115601186000000000000
B0722023136155S11740480EA0116901197000000000000
B0722063136201S11740555EA0117601204000000000000
B0722103136268S11740573EA0118201209000000015000
B0722143136310S11740532EA0118301209000000015000
B0722183136289S11740482EA0118601216000000015000
B0722223136236S11740502EA0119801234000000015000
B0722263136221S11740588EA0121201247000000015000
B0722303136271S11740655EA0122201255000000015000
B0722343136334S11740651EA0122701258000000015000
B0722383136359S11740599EA0122901261000000015000
B0722423136331S11740559EA0123301269000000015000
B0722463136279S11740589EA0124601284000000000000
B0722503136262S11740674EA0125701292000000000000
B0722543136299S11740757EA0126401300000000000000
B0722583136368S11740788EA0127201311000000015000
B0723023136420S11740755EA0127501309000000015000
B0723063136425S11740697EA0127801316000000015000
B0723103136388S11740668EA0128901333000000000000
B0723143136340S11740700EA0130201342000000000000
B0723183136315S11740776EA0130801353000000000000
B0723223136321S11740862EA0132001359000000000000
B0723263136370S11740935EA0132101357000000000000
B0723303136438S11740947EA0132701368000000000000
B0723343136470S11740902EA0133801377000000015000
B0723383136448S11740861EA0134401385000000015000
B0723423136398S11740865EA0135601400000000000000
B0723463136360S11740922EA0136701407000000000000
B0723503136366S11741004EA0136601402000000000000
B0723543136422S11741070EA0135701397000000000000
B0723583136494S11741090EA0136201405000000015000
B0724023136554S11741061EA0136501406000000015000
B0724063136574S11741002EA0136801412000000015000
B0724103136535S11740984EA0138301434000000015000
B0724143136500S11741044EA0139701445000000000000
B0724183136522S11741130EA0140701452000000000000
B0724223136585S11741168EA0141401459000000000000
B0724263136635S11741140EA0141901462000000000000
B0724303136643S11741091EA0142101467000000000000
B0724343136609S11741065EA0143001479000000000000
B0724383136561S11741097EA0143401479000000000000
B0724423136550S11741187EA0143901491000000000000
B0724463136591S11741272EA0144901501000000000000
B0724503136657S11741307EA0145901508000000000000
B0724543136710S11741278EA0146201507000000000000
B0724583136713S11741223EA0146401514000000000000
B0725023136671S11741204EA0147401525000000000000
B0725063136627S11741249EA0148401536000000000000
B0725103136627S11741340EA0149401545000000000000
B0725143136676S11741413EA0150101554000000000000
B0725183136743S11741429EA0151001563000000000000
B0725223136784S11741392EA0151501567000000000000
B0725263136776S11741350EA0152401576000000000000
B0725303136732S11741342EA0152901577000000000000
B0725343136688S11741395EA0153401591000000000000
B0725383136682S11741481EA0155001604000000000000
B0725423136719S11741559EA0155601609000000000000
B0725463136780S11741590EA0156101612000000000000
B0725503136832S11741563EA0155701603000000000000
B0725543136852S11741500EA0154501589000000000000
B0725583136858S11741424EA0153101575000000000000
B0726023136856S11741337EA0152401571000000000000
B0726063136852S11741246EA0152001568000000000000
B0726103136849S11741152EA0151701565000000000000
B0726143136845S11741060EA0151501564000000000000
B0726183136839S11740967EA0150701549000000000000
B0726223136832S11740879EA0149501543000000000000
B0726263136825S11740794EA0148401527000000000000
B0726303136815S11740707EA0146801512000000000000
B0726343136802S11740624EA0146001506000000000000
B0726383136789S11740541EA0145101493000000000000
B0726423136775S11740455EA0144001484000000000000
B0726463136762S11740371EA0143401479000000000000
B0726503136747S11740287EA0142201463000000000000
B0726543136732S11740204EA0141301453000000000000
B0726583136721S11740120EA0139901435000000000000
B0727023136713S11740034EA0138401422000000000000
B0727063136706S11739947EA0137201409000000000000
B0727103136700S11739861EA0136401404000000000000
B0727143136697S11739775EA0135801396000000000000
B0727183136697S11739689EA0134501382000000000000
B0727223136698S11739602EA0133701374000000000000
B0727263136698S11739518EA0133101366000000000000
B0727303136700S11739433EA0132001353000000000000
B0727343136700S11739353EA0130801344000000000000
B0727383136700S11739273EA0130201341000000000000
B0727423136695S11739197EA0130201339000000000000
B0727463136685S11739120EA0130301342000000000000
B0727503136666S11739049EA0131001351000000000000
B0727543136636S11738984EA0131801357000000000000
B0727583136604S11738919EA0131801355000000000000
B0728023136559S11738857EA0131201346000000000000
B0728063136507S11738802EA0130901351000000000000
B0728103136455S11738751EA0131601355000000000000
B0728143136407S11738699EA0131301352000000000000
B0728183136357S11738647EA0130101335000000000000
B0728223136305S11738587EA0128001311000000000000
B0728263136260S11738516EA0126001290000000000000
B0728303136230S11738438EA0124701274000000000000
B0728343136216S11738356EA0123401264000000000000
B0728383136214S11738275EA0122801256000000000000
B0728423136217S11738197EA0121501242000000000000
B0728463136225S11738119EA0120401234000000000000
B0728503136238S11738044EA0119701226000000000000
B0728543136253S11737968EA0118601211000000000000
B0728583136268S11737893EA0117301200000000000000
B0729023136286S11737817EA0116401191000000000000
B0729063136307S11737742EA0115801181000000000000
B0729103136327S11737665EA0114601168000000000000
B0729143136350S11737589EA0113701161000000000000
B0729183136372S11737513EA0113901168000000000000
B0729223136388S11737443EA0114301168000000000000
B0729263136392S11737369EA0113601159000000000000
B0729303136390S11737291EA0112701151000000000000
B0729343136389S11737213EA0113101159000000000000
B0729383136380S11737138EA0113601162000000000000
B0729423136362S11737063EA0113401160000000000000
B0729463136337S11736991EA0113901168000000000000
B0729503136306S11736924EA0114701178000000000000
B0729543136273S11736861EA0115601190000000000000
B0729583136232S11736809EA0117701218000000000000
B0730023136175S11736833EA0120301240000000000000
B0730063136165S11736915EA0121301240000000000000
B0730103136216S11736969EA0121401242000000000000
B0730143136264S11736945EA0121801254000000000000
B0730183136259S11736891EA0123701275000000000000
B0730223136212S11736871EA0125201286000000000000
B0730263136169S11736927EA0125801291000000000000
B0730303136181S11737013EA0125901293000000000000
B0730343136234S11737057EA0126701305000000000000
B0730383136251S11737014EA0128001322000000015000
B0730423136203S11736997EA0129401336000000015000
B0730463136163S11737058EA0130901351000000000000
B0730503136177S11737136EA0131801357000000000000
B0730543136232S11737161EA0132401362000000000000
B0730583136254S11737114EA0133101370000000015000
B0731023136216S11737074EA0133701379000000015000
B0731063136160S11737096EA0134401388000000015000
B0731103136132S11737169EA0135101392000000015000
B0731143136155S11737252EA0135101393000000000000
B0731183136215S11737296EA0135501397000000000000
B0731223136249S11737253EA0136001403000000015000
B0731263136211S11737203EA0136601410000000015000
B0731303136145S11737212EA0137601422000000015000
B0731343136119S11737295EA0138201421000000000000
B0731383136164S11737368EA0138001424000000000000
B0731423136233S11737386EA0138701429000000015000
B0731463136286S11737355EA0139001435000000015000
B0731503136295S11737295EA0139101429000000015000
B0731543136253S11737257EA0138501425000000015000
B0731583136194S11737284EA0138501424000000015000
B0732023136175S11737368EA0137801411000000015000
B0732063136216S11737455EA0137001415000000015000
B0732103136276S11737524EA0138301435000000000000
B0732143136338S11737546EA0140201450000000000000
B0732183136366S11737507EA0141001453000000000000
B0732223136337S11737474EA0140701447000000000000
B0732263136279S11737485EA0139601434000000000000
B0732303136234S11737559EA0138701430000000000000
B0732343136237S11737654EA0139001439000000015000
B0732383136271S11737738EA0139301436000000000000
B0732423136332S11737791EA0138901430000000015000
B0732463136399S11737786EA0138001419000000015000
B0732503136463S11737747EA0137001407000000015000
B0732543136524S11737695EA0135301386000000000000
B0732583136585S11737638EA0133901380000000000000
B0733023136641S11737580EA0133501373000000000000
B0733063136696S11737521EA0132501361000000000000
B0733103136749S11737465EA0131401351000000000000
B0733143136805S11737416EA0130801346000000000000
B0733183136861S11737369EA0129901337000000000000
B0733223136919S11737323EA0129201331000000000000
B0733263136977S11737278EA0129101330000000000000
B0733303137033S11737234EA0128301321000000000000
B0733343137092S11737190EA0127301303000000000000
B0733383137156S11737147EA0125801290000000000000
B0733423137220S11737110EA0125601294000000000000
B0733463137281S11737079EA0126601307000000000000
B0733503137337S11737047EA0127201302000000000000
B0733543137380S11736995EA0125201280000000000000
B0733583137433S11736944EA0123101259000000000000
B0734023137499S11736902EA0121901251000000000000
B0734063137566S11736872EA0121701253000000000000
B0734103137634S11736848EA0121501249000000000000
B0734143137705S11736829EA0121101246000000000000
B0734183137774S11736811EA0120701240000000000000
B0734223137844S11736797EA0120201237000000000000
B0734263137914S11736784EA0120001236000000000000
B0734303137982S11736768EA0119901235000000000000
B0734343138048S11736751EA0119501228000000000000
B0734383138117S11736731EA0118301213000000000000
B0734423138188S11736709EA0117001199000000000000
B0734463138260S11736692EA0116601201000000000000
B0734503138330S11736681EA0116901199000000000000
B0734543138400S11736676EA0115801186000000000000
B0734583138474S11736675EA0114601174000000000000
B0735023138548S11736673EA0114001169000000000000
B0735063138621S11736679EA0113501162000000000000
B0735103138693S11736676EA0113501166000000000000
B0735143138750S11736650EA0114001170000000000000
B0735183138768S11736590EA0114401178000000000000
B0735223138730S11736554EA0115601194000000000000
B0735263138686S11736616EA0117301209000000000000
B0735303138713S11736701EA0117701203000000000000
B0735343138775S11736703EA0117301201000000000000
B0735383138788S11736646EA0117101202000000000000
B0735423138743S11736606EA0117701210000000000000
B0735463138678S11736616EA0118801225000000000000
B0735503138638S11736694EA0120601248000000000000
B0735543138659S11736781EA0121901252000000000000
B0735583138721S11736820EA0121701248000000000000
B0736023138772S11736796EA0121301244000000015000
B0736063138772S11736740EA0121701250000000015000
B0736103138721S11736707EA0122501260000000015000
B0736143138658S11736748EA0124401287000000000000
B0736183138635S11736832EA0126101308000000000000
B0736223138665S11736909EA0127201308000000000000
B0736263138726S11736931EA0126801305000000015000
B0736303138763S11736893EA0127101312000000015000
B0736343138749S11736845EA0128001324000000015000
B0736383138690S11736849EA0129601341000000015000
B0736423138647S11736924EA0131401359000000000000
B0736463138664S11737015EA0132701372000000000000
B0736503138724S11737060EA0134101386000000000000
B0736543138776S11737041EA0134901396000000015000
B0736583138781S11736992EA0136001412000000015000
B0737023138730S11736972EA0137401425000000015000
B0737063138673S11737028EA0139001442000000000000
B0737103138664S11737122EA0140501455000000000000
B0737143138712S11737186EA0141701471000000000000
B0737183138771S11737183EA0143001481000000000000
B0737223138791S11737132EA0143901494000000000000
B0737263138755S11737091EA0145601514000000015000
B0737303138693S11737118EA0147501530000000015000
B0737343138665S11737208EA0148601542000000000000
B0737383138695S11737287EA0149801561000000000000
B0737423138751S11737310EA0151101566000000000000
B0737463138789S11737274EA0151901579000000000000
B0737503138775S11737226EA0153501599000000015000
B0737543138720S11737222EA0155601618000000015000
B0737583138672S11737279EA0157001627000000000000
B0738023138665S11737369EA0157401628000000000000
B0738063138710S11737437EA0158001641000000000000
B0738103138764S11737450EA0159401656000000015000
B0738143138794S11737414EA0160501666000000015000
B0738183138778S11737369EA0161501682000000015000
B0738223138726S11737359EA0162901697000000015000
B0738263138673S11737405EA0163801696000000000000
B0738303138663S11737499EA0163501697000000000000
B0738343138700S11737582EA0164101709000000000000
B0738383138756S11737598EA0165601722000000015000
B0738423138760S11737556EA0166901736000000015000
B0738463138707S11737552EA0168601753000000015000
B0738503138660S11737615EA0169501755000000000000
B0738543138663S11737710EA0169601759000000015000
B0738583138721S11737764EA0170501771000000015000
B0739023138781S11737747EA0171301779000000015000
B0739063138795S11737693EA0172301795000000015000
B0739103138762S11737643EA0173301802000000015000
B0739143138694S11737635EA0173801802000000015000
B0739183138620S11737672EA0173501799000000015000
B0739223138564S11737751EA0173801803000000000000
B0739263138531S11737846EA0174201811000000000000
B0739303138543S11737944EA0174501811000000000000
B0739343138582S11738029EA0174501812000000000000
B0739383138641S11738090EA0174401810000000000000
B0739423138706S11738097EA0174401810000000000000
B0739463138752S11738061EA0174501819000000000000
B0739503138782S11738011EA0175601829000000000000
B0739543138747S11737976EA0177201848000000000000
B0739583138693S11738027EA0178801863000000000000
B0740023138695S11738119EA0179901873000000000000
B0740063138749S11738165EA0181501892000000015000
B0740103138799S11738149EA0182101890000000015000
B0740143138816S11738094EA0181901893000000015000
B0740183138781S11738049EA0182901905000000015000
B0740223138721S11738066EA0184601921000000015000
B0740263138685S11738144EA0184901917000000000000
B0740303138695S11738241EA0184301913000000000000
B0740343138752S11738291EA0185501934000000000000
B0740383138785S11738254EA0187101941000000015000
B0740423138745S11738222EA0187701951000000015000
B0740463138684S11738257EA0188601957000000015000
B0740503138660S11738347EA0188301953000000015000
B0740543138690S11738431EA0188601965000000000000
B0740583138746S11738474EA0190201984000000015000
B0741023138797S11738462EA0191501991000000015000
B0741063138816S11738410EA0191701991000000000000
B0741103138789S11738358EA0192202002000000015000
B0741143138729S11738361EA0193402009000000015000
B0741183138682S11738427EA0192501991000000000000
B0741223138691S11738522EA0191301981000000000000
B0741263138750S11738570EA0191301989000000000000
B0741303138807S11738556EA0192302000000000015000
B0741343138836S11738509EA0192802007000000000000
B0741383138814S11738461EA0193402012000000015000
B0741423138754S11738467EA0193802010000000015000
B0741463138710S11738536EA0192901995000000000000
B0741503138719S11738627EA0191701985000000000000
B0741543138776S11738672EA0191001979000000000000
B0741583138837S11738653EA0191001988000000015000
B0742023138885S11738613EA0192101998000000015000
B0742063138893S11738555EA0193002008000000015000
B0742103138842S11738529EA0193402006000000015000
B0742143138789S11738583EA0192801994000000015000
B0742183138799S11738677EA0191401980000000015000
B0742223138855S11738742EA0190801982000000015000
B0742263138925S11738759EA0191301990000000015000
B0742303138986S11738734EA0191501992000000015000
B0742343139040S11738688EA0191301986000000015000
B0742383139093S11738630EA0190401976000000000000
B0742423139148S11738561EA0189801972000000000000
B0742463139201S11738491EA0189501971000000000000
B0742503139252S11738418EA0189601971000000000000
B0742543139297S11738344EA0189201962000000000000
B0742583139340S11738267EA0188301952000000000000
B0743023139383S11738189EA0186701933000000000000
B0743063139430S11738114EA0185501927000000000000
B0743103139478S11738042EA0184701916000000000000
B0743143139531S11737975EA0183701907000000000000
B0743183139586S11737911EA0182801898000000000000
