ACAM4N6
HFDTE120115
HFFXA050
HFPLTPILOT:JOHN WELSH              
HFGTYGLIDERTYPE:HORNET      
HFGIDGLIDERID:VH-GMY      
HFDTM100GPSDATUM:
HFRFWFIRMWAREVERSION:F2.6
HFRHWHARDWAREVERSION:300 Series Version 2
HFFTYFRTYPE:CAMBRIDGE AERO INSTRUMENTS, 302+
HFGPS:GARMIN,LVS-25,12,18000
HFPRSPRESSALTSENSOR:INTERSEMA, MS5534-AP, 20000
I033638FXA3941ENL4247REX
LCAMSBVER:5FWVER:F26300
C120115021846120115000103
C0000000N00000000WTAKEOFF     
C3207547S11656879EBeverley Air
C3006797S11637559EWubin       
C3123133S11829099EBURRCPPN    
C3256165S11710679ENarrogin Sil
C3207547S11656879EBeverley Air
C0000000N00000000WLANDING     
B0236103207739S11657094EA0024500207000000000000
B0236123207739S11657094EA0024600207000000000000
B0236143207739S11657094EA0024700207000000000000
B0236163207739S11657094EA0024600208000000000000
B0236183207739S11657094EA0024600208000000000000
B0236203207739S11657094EA0024600208000000000000
B0236223207739S11657094EA0024500208000000000000
B0236243207739S11657094EA0024600208000000000000
B0236263207739S11657094EA0024700208000000000000
B0236283207739S11657094EA0024600208000000000000
B0236303207737S11657094EA0024500208000000000000
B0236323207737S11657094EA0024500208000000000000
B0236343207736S11657094EA0024600208000000000000
B0236363207736S11657092EA0024600207000000000000
B0236383207735S11657092EA0024500207000000000000
B0236393207732S11657091EA0024600207000000000000
B0236433207711S11657085EA0024400208000000000000
B0236473207675S11657066EA0024500207000000000000
B0236513207627S11657038EA0024500208000000000000
B0236553207568S11657003EA0024400207000000000000
B0236593207499S11656962EA0024500211000000000000
B0237033207432S11656926EA0025600221000000000000
B0237073207368S11656891EA0026800243000000000000
B0237113207307S11656856EA0028500257000000000000
B0237153207245S11656823EA0029900267000000000000
B0237193207180S11656789EA0030200272000000000000
B0237233207111S11656756EA0030500278000000000000
B0237273207038S11656730EA0031400284000000000000
B0237313206962S11656718EA0031800287000000000000
B0237353206888S11656731EA0032400292000000000000
B0237393206822S11656763EA0033200303000000000000
B0237433206764S11656813EA0034100309000000000000
B0237473206714S11656880EA0034400313000000000000
B0237513206679S11656957EA0035100327000000000000
B0237553206648S11657038EA0036600341000000000000
B0237593206621S11657118EA0038100357000000000000
B0238033206598S11657203EA0038900366000000000000
B0238073206587S11657294EA0039900374000000000000
B0238113206592S11657387EA0040900387000000000000
B0238153206617S11657476EA0042800405000000000000
B0238193206661S11657556EA0043600416000000000000
B0238233206717S11657627EA0044600432000000000000
B0238273206780S11657679EA0047100463000000000000
B0238313206853S11657720EA0049600487000000000000
B0238353206930S11657758EA0051500504000000000000
B0238393207008S11657783EA0053600533000000000000
B0238433207086S11657802EA0056200550000000000000
B0238473207168S11657822EA0057100561000000000000
B0238513207247S11657837EA0059000584000000000000
B0238553207326S11657857EA0060500597000000000000
B0238593207407S11657876EA0061200598000000000000
B0239033207489S11657896EA0061500604000000000000
B0239073207570S11657915EA0062300609000000000000
B0239113207651S11657933EA0062800614000000000000
B0239153207735S11657952EA0063100617000000000000
B0239193207819S11657972EA0063600623000000000000
B0239233207901S11657984EA0065100643000000000000
B0239273207983S11657975EA0066800658000000000000
B0239313208061S11657957EA0069400688000000000000
B0239353208118S11657909EA0070800707000000000000
B0239393208097S11657846EA0072900730000000000000
B0239433208053S11657865EA0074500739000000015000
B0239473208062S11657920EA0074900747000000015000
B0239513208114S11657939EA0075400745000000015000
B0239553208165S11657892EA0075000743000000015000
B0239593208144S11657833EA0075800757000000015000
B0240033208099S11657854EA0077300776000000030000
B0240073208110S11657911EA0078200781000000030000
B0240113208169S11657920EA0078600781000000015000
B0240153208207S11657865EA0079000788000000015000
B0240193208187S11657803EA0080300802000000015000
B0240233208136S11657805EA0081200808000000015000
B0240273208129S11657867EA0081600812000000015000
B0240313208182S11657901EA0082400819000000015000
B0240353208236S11657863EA0082800822000000015000
B0240393208240S11657790EA0083200834000000015000
B0240433208192S11657759EA0084700853000000015000
B0240473208168S11657810EA0086200871000000015000
B0240513208213S11657850EA0087400875000000015000
B0240553208275S11657823EA0087500875000000015000
B0240593208286S11657749EA0088600896000000015000
B0241033208243S11657703EA0090400910000000015000
B0241073208192S11657733EA0091100920000000015000
B0241113208205S11657798EA0092700938000000015000
B0241153208265S11657802EA0094500949000000015000
B0241193208290S11657741EA0095600964000000015000
B0241233208255S11657689EA0097100979000000015000
B0241273208204S11657705EA0098200987000000015000
B0241313208204S11657766EA0099801007000000015000
B0241353208259S11657783EA0100401009000000015000
B0241393208295S11657727EA0101201019000000015000
B0241433208265S11657672EA0102201034000000015000
B0241473208214S11657685EA0103401046000000015000
B0241513208221S11657744EA0105001063000000015000
B0241553208277S11657750EA0105901065000000000000
B0241593208308S11657693EA0106701079000000015000
B0242033208272S11657650EA0107801090000000015000
B0242073208230S11657683EA0108401096000000015000
B0242113208261S11657736EA0109701109000000015000
B0242153208321S11657722EA0111001120000000015000
B0242193208335S11657659EA0112201130000000015000
B0242233208287S11657625EA0113001142000000015000
B0242273208252S11657667EA0114101154000000015000
B0242313208287S11657715EA0115501166000000015000
B0242353208342S11657692EA0117001179000000015000
B0242393208346S11657631EA0117801187000000015000
B0242433208296S11657610EA0118001193000000015000
B0242473208252S11657651EA0118601202000000015000
B0242513208282S11657705EA0119901215000000015000
B0242553208337S11657676EA0120801220000000015000
B0242593208330S11657611EA0121601231000000015000
B0243033208274S11657602EA0122101237000000015000
B0243073208244S11657662EA0123101249000000015000
B0243113208274S11657727EA0124401257000000015000
B0243153208334S11657738EA0124401258000000015000
B0243193208370S11657683EA0125601271000000015000
B0243233208347S11657621EA0126201279000000015000
B0243273208292S11657612EA0126601281000000015000
B0243313208270S11657677EA0127001284000000015000
B0243353208312S11657737EA0127501291000000015000
B0243393208368S11657723EA0128401303000000015000
B0243433208372S11657658EA0128901311000000015000
B0243473208326S11657620EA0130101322000000030000
B0243513208287S11657662EA0130501321000000030000
B0243553208314S11657729EA0130301324000000030000
B0243593208377S11657741EA0130701324000000015000
B0244033208411S11657681EA0131101329000000015000
B0244073208378S11657621EA0132001342000000015000
B0244113208318S11657633EA0133201352000000015000
B0244153208304S11657701EA0133601352000000015000
B0244193208352S11657744EA0133501350000000015000
B0244233208398S11657705EA0133601353000000015000
B0244273208378S11657637EA0133701358000000015000
B0244313208331S11657582EA0133801357000000015000
B0244353208278S11657529EA0133801359000000015000
B0244393208221S11657481EA0133901357000000015000
B0244433208162S11657434EA0134601372000000015000
B0244473208108S11657452EA0136401386000000015000
B0244513208134S11657516EA0137201394000000015000
B0244553208190S11657493EA0138101400000000015000
B0244593208186S11657428EA0138401408000000015000
B0245033208148S11657377EA0138501401000000015000
B0245073208097S11657328EA0138301404000000015000
B0245113208044S11657278EA0138801405000000015000
B0245153207988S11657224EA0137701393000000000000
B0245193207928S11657165EA0136601383000000000000
B0245233207867S11657105EA0135701377000000000000
B0245273207805S11657048EA0136301386000000000000
B0245313207740S11657003EA0137301395000000000000
B0245353207671S11656969EA0137701396000000000000
B0245393207599S11656939EA0138001400000000000000
B0245433207527S11656912EA0137501393000000000000
B0245473207453S11656884EA0136701387000000000000
B0245513207376S11656860EA0136501384000000000000
B0245553207298S11656840EA0135901375000000000000
B0245593207216S11656823EA0135201367000000000000
B0246033207131S11656809EA0135101372000000000000
B0246073207051S11656802EA0135801376000000000000
B0246113206972S11656796EA0136601387000000000000
B0246153206894S11656788EA0138101405000000000000
B0246193206838S11656822EA0141701445000000000000
B0246233206865S11656871EA0144601466000000000000
B0246273206920S11656841EA0144901466000000000000
B0246313206923S11656767EA0145801478000000000000
B0246353206878S11656727EA0147201494000000000000
B0246393206839S11656766EA0148701509000000000000
B0246433206869S11656822EA0149701518000000000000
B0246473206929S11656801EA0150901535000000000000
B0246513206942S11656730EA0152301549000000015000
B0246553206899S11656692EA0153701566000000015000
B0246593206864S11656732EA0155201576000000015000
B0247033206888S11656789EA0155801581000000015000
B0247073206951S11656793EA0156701594000000000000
B0247113206979S11656732EA0157501600000000015000
B0247153206942S11656678EA0158201610000000015000
B0247193206896S11656705EA0160101630000000015000
B0247233206916S11656760EA0161201634000000015000
B0247273206974S11656765EA0161801644000000015000
B0247313207005S11656705EA0162801653000000015000
B0247353206974S11656646EA0163701663000000015000
B0247393206927S11656662EA0165101677000000015000
B0247433206922S11656719EA0166201684000000015000
B0247473206972S11656750EA0166501690000000015000
B0247513207024S11656714EA0167301700000000015000
B0247553207031S11656646EA0168101711000000015000
B0247593206995S11656598EA0169201720000000015000
B0248033206946S11656604EA0169901729000000015000
B0248073206934S11656663EA0170501733000000015000
B0248113206978S11656704EA0171301744000000015000
B0248153207029S11656670EA0171401743000000015000
B0248193207027S11656598EA0171801751000000015000
B0248233206985S11656554EA0172701756000000015000
B0248273206929S11656539EA0172401747000000015000
B0248313206864S11656536EA0171501742000000015000
B0248353206791S11656546EA0170801738000000000000
B0248393206715S11656565EA0171101738000000000000
B0248433206636S11656585EA0171101743000000000000
B0248473206557S11656610EA0171701751000000000000
B0248513206478S11656636EA0172201750000000000000
B0248553206397S11656669EA0170801735000000000000
B0248593206316S11656705EA0169401720000000000000
B0249033206232S11656739EA0167501700000000000000
B0249073206143S11656762EA0166201686000000000000
B0249113206054S11656776EA0165401682000000000000
B0249153205963S11656782EA0164901677000000000000
B0249193205873S11656787EA0164301674000000000000
B0249233205789S11656796EA0164201671000000000000
B0249273205704S11656808EA0163601663000000000000
B0249313205620S11656821EA0163001650000000000000
B0249353205531S11656828EA0161301637000000000000
B0249393205440S11656827EA0160301631000000000000
B0249433205350S11656819EA0159401619000000000000
B0249473205262S11656806EA0158101605000000000000
B0249513205172S11656788EA0156301589000000000000
B0249553205084S11656776EA0155101578000000000000
B0249593204994S11656769EA0154701573000000000000
B0250033204907S11656771EA0153901563000000000000
B0250073204824S11656789EA0153401560000000000000
B0250113204739S11656814EA0153301558000000000000
B0250153204664S11656852EA0154601573000000000000
B0250193204594S11656887EA0155701580000000000000
B0250233204530S11656925EA0155701576000000000000
B0250273204469S11656968EA0155301577000000000000
B0250313204408S11657009EA0155401575000000000000
B0250353204348S11657052EA0154701559000000000000
B0250393204277S11657081EA0152501535000000000000
B0250433204192S11657088EA0150301515000000000000
B0250473204104S11657078EA0148301499000000000000
B0250513204015S11657056EA0146901484000000000000
B0250553203927S11657029EA0145301468000000000000
B0250593203837S11656999EA0143201448000000000000
B0251033203748S11656968EA0141301429000000000000
B0251073203659S11656939EA0140401422000000000000
B0251113203571S11656913EA0139801413000000000000
B0251153203482S11656890EA0139001405000000000000
B0251193203397S11656864EA0138101394000000000000
B0251233203311S11656831EA0136501377000000000000
B0251273203224S11656795EA0134701361000000000000
B0251313203135S11656762EA0133601350000000000000
B0251353203048S11656734EA0133201350000000000000
B0251393202968S11656727EA0134101358000000000000
B0251433202888S11656739EA0133301345000000000000
B0251473202805S11656749EA0132201329000000000000
B0251513202719S11656747EA0131001317000000000000
B0251553202633S11656731EA0130301312000000000000
B0251593202550S11656710EA0129601301000000000000
B0252033202466S11656680EA0128001294000000000000
B0252073202383S11656650EA0128001292000000000000
B0252113202301S11656622EA0127501289000000000000
B0252153202221S11656594EA0127201284000000000000
B0252193202143S11656568EA0126501279000000000000
B0252233202067S11656544EA0126501280000000000000
B0252273201991S11656520EA0126101276000000000000
B0252313201913S11656496EA0125701270000000000000
B0252353201834S11656476EA0125201266000000000000
B0252393201755S11656463EA0124601257000000000000
B0252433201673S11656455EA0124301257000000000000
B0252473201592S11656453EA0124301253000000000000
B0252513201513S11656462EA0124401255000000000000
B0252553201440S11656487EA0123901244000000000000
B0252593201362S11656511EA0122801238000000000000
B0253033201285S11656540EA0122801243000000000000
B0253073201228S11656587EA0125401271000000000000
B0253113201267S11656630EA0128601310000000000000
B0253153201322S11656588EA0130501322000000000000
B0253193201315S11656511EA0131201333000000000000
B0253233201262S11656496EA0131901333000000015000
B0253273201250S11656550EA0132401349000000000000
B0253313201302S11656574EA0134901370000000000000
B0253353201353S11656522EA0135901377000000000000
B0253393201339S11656449EA0136701388000000015000
B0253433201288S11656442EA0137701395000000015000
B0253473201283S11656496EA0138701410000000015000
B0253513201337S11656507EA0141201436000000000000
B0253553201379S11656454EA0142701448000000000000
B0253593201365S11656383EA0143001451000000015000
B0254033201311S11656360EA0143501458000000015000
B0254073201278S11656402EA0144501466000000015000
B0254113201301S11656458EA0145401484000000015000
B0254153201363S11656451EA0147501504000000015000
B0254193201385S11656376EA0148801516000000015000
B0254233201339S11656328EA0149001516000000015000
B0254273201281S11656350EA0149401521000000015000
B0254313201276S11656411EA0151001542000000015000
B0254353201333S11656418EA0153801570000000015000
B0254393201357S11656351EA0155901587000000015000
B0254433201315S11656303EA0156201593000000015000
B0254473201281S11656340EA0157501607000000015000
B0254513201315S11656388EA0159201625000000015000
B0254553201374S11656364EA0161501646000000015000
B0254593201388S11656289EA0162401655000000015000
B0255033201343S11656243EA0163701668000000015000
B0255073201301S11656273EA0164701675000000015000
B0255113201317S11656332EA0165301686000000000000
B0255153201376S11656336EA0166901711000000000000
B0255193201398S11656272EA0169401739000000015000
B0255233201359S11656224EA0170201739000000015000
B0255273201315S11656250EA0170501741000000015000
B0255313201324S11656315EA0170801747000000015000
B0255353201382S11656331EA0172801769000000015000
B0255393201401S11656262EA0174901788000000015000
B0255433201354S11656216EA0175901798000000015000
B0255473201311S11656251EA0177001808000000015000
B0255513201337S11656307EA0178301825000000015000
B0255553201397S11656286EA0180301846000000015000
B0255593201398S11656212EA0182301863000000015000
B0256033201345S11656177EA0182801865000000015000
B0256073201311S11656229EA0183201873000000015000
B0256113201345S11656282EA0184901893000000015000
B0256153201405S11656264EA0187301916000000000000
B0256193201419S11656189EA0188901931000000015000
B0256233201372S11656130EA0189501936000000015000
B0256273201319S11656155EA0190901953000000015000
B0256313201327S11656214EA0192401964000000015000
B0256353201384S11656228EA0192801971000000000000
B0256393201432S11656171EA0193701986000000000000
B0256433201423S11656087EA0195301996000000015000
B0256473201367S11656051EA0195702003000000015000
B0256513201324S11656093EA0196502009000000015000
B0256553201337S11656155EA0197102014000000015000
B0256593201398S11656160EA0198102026000000000000
B0257033201444S11656097EA0199202038000000000000
B0257073201435S11656012EA0200002043000000015000
B0257113201376S11655970EA0200802052000000015000
B0257153201324S11655999EA0200702044000000015000
B0257193201319S11656061EA0200202043000000000000
B0257233201371S11656097EA0200202042000000000000
B0257273201443S11656080EA0200302051000000000000
B0257313201495S11656019EA0201402060000000000000
B0257353201482S11655937EA0201202055000000015000
B0257393201414S11655885EA0199902042000000015000
B0257433201333S11655844EA0197902017000000000000
B0257473201241S11655812EA0195201986000000000000
B0257513201142S11655785EA0192101957000000000000
B0257553201038S11655761EA0190401946000000000000
B0257593200936S11655740EA0189801938000000000000
B0258033200833S11655726EA0188801927000000000000
B0258073200730S11655716EA0187801915000000000000
B0258113200626S11655704EA0186701906000000000000
B0258153200524S11655690EA0186001901000000000000
B0258193200423S11655673EA0185301895000000000000
B0258233200327S11655655EA0185401900000000000000
B0258273200235S11655638EA0186101905000000000000
B0258313200145S11655622EA0186901912000000000000
B0258353200059S11655609EA0187901924000000000000
B0258393159972S11655603EA0188301933000000000000
B0258433159888S11655601EA0189801949000000000000
B0258473159805S11655595EA0191301962000000000000
B0258513159723S11655586EA0191801962000000000000
B0258553159637S11655583EA0191801963000000000000
B0258593159549S11655586EA0192801974000000000000
B0259033159460S11655584EA0194301992000000000000
B0259073159374S11655584EA0196202006000000000000
B0259113159290S11655582EA0196102003000000000000
B0259153159205S11655574EA0195201989000000000000
B0259193159117S11655564EA0193301971000000000000
B0259233159027S11655548EA0192101957000000000000
B0259273158934S11655532EA0190501945000000000000
B0259313158841S11655515EA0189501935000000000000
B0259353158749S11655496EA0188901929000000000000
B0259393158657S11655478EA0187701918000000000000
B0259433158564S11655460EA0187001910000000000000
B0259473158473S11655440EA0186401897000000000000
B0259513158380S11655418EA0184901885000000000000
B0259553158286S11655396EA0183701872000000000000
B0259593158189S11655375EA0181801853000000000000
B0300033158091S11655358EA0181201847000000000000
B0300073157994S11655337EA0180301839000000000000
B0300113157899S11655317EA0179901838000000000000
B0300153157807S11655298EA0180601847000000000000
B0300193157717S11655285EA0180401838000000000000
B0300233157627S11655276EA0179601832000000000000
B0300273157536S11655268EA0178901818000000000000
B0300313157444S11655253EA0177201798000000000000
B0300353157346S11655233EA0175301781000000000000
B0300393157249S11655213EA0173701768000000000000
B0300433157150S11655193EA0172801759000000000000
B0300473157053S11655172EA0171601748000000000000
B0300513156958S11655154EA0170601740000000000000
B0300553156864S11655138EA0169401725000000000000
B0300593156772S11655123EA0169201727000000000000
B0301033156685S11655109EA0169701729000000000000
B0301073156601S11655092EA0168901720000000000000
B0301113156516S11655076EA0168401711000000000000
B0301153156429S11655055EA0167501708000000000000
B0301193156344S11655033EA0167601709000000000000
B0301233156261S11655014EA0167301702000000000000
B0301273156178S11654997EA0167201706000000000000
B0301313156098S11654995EA0168401727000000000000
B0301353156040S11655042EA0170501743000000000000
B0301393155993S11655099EA0171101737000000000000
B0301433155924S11655127EA0170501729000000000000
B0301473155844S11655125EA0168701707000000000000
B0301513155758S11655102EA0166801695000000000000
B0301553155672S11655070EA0165301678000000000000
B0301593155582S11655033EA0163201655000000000000
B0302033155489S11654997EA0160901635000000000000
B0302073155392S11654964EA0159701624000000000000
B0302113155298S11654936EA0158201610000000000000
B0302153155200S11654910EA0157601605000000000000
B0302193155105S11654888EA0157201600000000000000
B0302233155009S11654868EA0156501588000000000000
B0302273154914S11654849EA0155401579000000000000
B0302313154819S11654830EA0154401565000000000000
B0302353154724S11654812EA0153001550000000000000
B0302393154632S11654790EA0151601533000000000000
B0302433154537S11654764EA0149101507000000000000
B0302473154441S11654734EA0146801488000000000000
B0302513154346S11654704EA0145301470000000000000
B0302553154251S11654681EA0144801473000000000000
B0302593154163S11654681EA0146001489000000000000
B0303033154079S11654695EA0147301498000000000000
B0303073154001S11654724EA0147801501000000000000
B0303113153922S11654752EA0146201474000000000000
B0303153153835S11654772EA0143901451000000000000
B0303193153743S11654782EA0141901431000000000000
B0303233153649S11654782EA0140201413000000000000
B0303273153553S11654773EA0138601402000000000000
B0303313153458S11654763EA0137601389000000000000
B0303353153362S11654750EA0136001372000000000000
B0303393153266S11654734EA0135001364000000000000
B0303433153173S11654717EA0133801350000000000000
B0303473153078S11654699EA0132501338000000000000
B0303513152987S11654681EA0131701331000000000000
B0303553152896S11654667EA0130701320000000000000
B0303593152807S11654652EA0129701306000000000000
B0304033152716S11654633EA0128101291000000000000
B0304073152626S11654608EA0126501276000000000000
B0304113152535S11654582EA0125101266000000000000
B0304153152444S11654559EA0124201254000000000000
B0304193152350S11654542EA0123101237000000000000
B0304233152257S11654526EA0121801224000000000000
B0304273152166S11654512EA0120701216000000000000
B0304313152077S11654498EA0120201208000000000000
B0304353151990S11654486EA0119001196000000000000
B0304393151903S11654475EA0117901187000000000000
B0304433151817S11654468EA0117101178000000000000
B0304473151732S11654460EA0116401172000000000000
B0304513151648S11654452EA0116201173000000000000
B0304553151568S11654447EA0116201172000000000000
B0304593151495S11654466EA0116601177000000000000
B0305033151431S11654504EA0116601174000000000000
B0305073151372S11654546EA0117301184000000000000
B0305113151325S11654600EA0118901200000000000000
B0305153151284S11654661EA0120601219000000000000
B0305193151303S11654728EA0122701239000000000000
B0305233151370S11654739EA0122801240000000000000
B0305273151414S11654677EA0122801244000000000000
B0305313151390S11654608EA0122801245000000015000
B0305353151331S11654572EA0123101254000000015000
B0305393151270S11654583EA0124401268000000000000
B0305433151218S11654625EA0126001285000000000000
B0305473151240S11654685EA0128101303000000000000
B0305513151292S11654652EA0128401300000000000000
B0305553151279S11654578EA0128401305000000000000
B0305593151225S11654565EA0130501330000000000000
B0306033151232S11654625EA0132201345000000000000
B0306073151287S11654613EA0133901362000000000000
B0306113151283S11654544EA0133801358000000000000
B0306153151226S11654516EA0134501372000000000000
B0306193151184S11654566EA0135901387000000000000
B0306233151219S11654616EA0138001405000000000000
B0306273151269S11654578EA0139001411000000000000
B0306313151257S11654500EA0139201415000000000000
B0306353151200S11654504EA0140701439000000000000
B0306393151200S11654564EA0142901455000000000000
B0306433151257S11654569EA0143701461000000000000
B0306473151277S11654496EA0143901465000000000000
B0306513151226S11654442EA0144601478000000015000
B0306553151161S11654459EA0145901488000000015000
B0306593151171S11654522EA0147201502000000015000
B0307033151232S11654517EA0147901506000000015000
B0307073151252S11654438EA0148401511000000015000
B0307113151204S11654374EA0149101527000000015000
B0307153151145S11654392EA0150801540000000015000
B0307193151162S11654449EA0152001549000000015000
B0307233151223S11654442EA0151801544000000015000
B0307273151261S11654373EA0152501557000000015000
B0307313151249S11654297EA0154601578000000015000
B0307353151196S11654267EA0155301582000000000000
B0307393151154S11654313EA0155201582000000000000
B0307433151186S11654370EA0156001590000000000000
B0307473151253S11654378EA0156001587000000000000
B0307513151299S11654313EA0156401599000000000000
B0307553151295S11654227EA0157701610000000000000
B0307593151244S11654174EA0158701623000000000000
B0308033151179S11654189EA0159001621000000000000
B0308073151119S11654239EA0158001610000000000000
B0308113151062S11654297EA0158201615000000000000
B0308153151009S11654356EA0158801622000000000000
B0308193150961S11654414EA0158801618000000000000
B0308233150901S11654469EA0157001579000000000000
B0308273150810S11654499EA0152701538000000000000
B0308313150706S11654499EA0149901519000000000000
B0308353150603S11654482EA0148601509000000000000
B0308393150504S11654461EA0147901502000000000000
B0308433150407S11654442EA0147401494000000000000
B0308473150313S11654421EA0146001477000000000000
B0308513150218S11654400EA0143901457000000000000
B0308553150125S11654379EA0142301439000000000000
B0308593150030S11654361EA0140201419000000000000
B0309033149935S11654345EA0139001409000000000000
B0309073149844S11654329EA0138301403000000000000
B0309113149756S11654313EA0137801391000000000000
B0309153149667S11654295EA0136101374000000000000
B0309193149580S11654275EA0135101371000000000000
B0309233149494S11654254EA0135101369000000000000
B0309273149409S11654235EA0135301373000000000000
B0309313149328S11654239EA0136501387000000000000
B0309353149259S11654269EA0138001400000000000000
B0309393149198S11654310EA0138001394000000000000
B0309433149132S11654355EA0136801375000000000000
B0309473149054S11654388EA0133801340000000000000
B0309513148961S11654399EA0131301323000000000000
B0309553148866S11654396EA0130301312000000000000
B0309593148772S11654379EA0129001297000000000000
B0310033148678S11654355EA0127601289000000000000
B0310073148590S11654325EA0127301289000000000000
B0310113148502S11654300EA0127801290000000000000
B0310153148419S11654274EA0128201301000000000000
B0310193148339S11654261EA0129201313000000000000
B0310233148266S11654278EA0129901311000000000000
B0310273148192S11654303EA0129001297000000000000
B0310313148119S11654335EA0127901292000000000000
B0310353148046S11654375EA0127501282000000000000
B0310393147968S11654404EA0126801280000000000000
B0310433147888S11654421EA0126501271000000000000
B0310473147798S11654422EA0124201257000000000000
B0310513147711S11654423EA0124601264000000000000
B0310553147634S11654438EA0125001269000000000000
B0310593147560S11654452EA0124601257000000000000
B0311033147481S11654447EA0123301243000000000000
B0311073147400S11654434EA0122001229000000000000
B0311113147319S11654422EA0121101223000000000000
B0311153147243S11654410EA0120601216000000000000
B0311193147165S11654405EA0119001196000000000000
B0311233147087S11654407EA0118501196000000000000
B0311273147017S11654418EA0119001201000000000000
B0311313146949S11654442EA0118301194000000000000
B0311353146885S11654470EA0118301192000000000000
B0311393146828S11654503EA0118501201000000000000
B0311433146777S11654533EA0120101208000000000000
B0311473146732S11654572EA0120401213000000000000
B0311513146688S11654613EA0120201203000000000000
B0311553146645S11654665EA0118901195000000000000
B0311593146607S11654722EA0118001180000000000000
B0312033146555S11654773EA0115801155000000000000
B0312073146490S11654807EA0114801156000000000000
B0312113146424S11654833EA0115801169000000000000
B0312153146363S11654860EA0116301170000000000000
B0312193146303S11654888EA0116401170000000000000
B0312233146244S11654916EA0115901160000000000000
B0312273146179S11654936EA0114401143000000000000
B0312313146108S11654950EA0112901132000000000000
B0312353146036S11654966EA0111801117000000000000
B0312393145960S11654973EA0109701092000000000000
B0312433145878S11654968EA0107801073000000000000
B0312473145798S11654954EA0106901073000000000000
B0312513145722S11654949EA0106301062000000000000
B0312553145646S11654945EA0105101049000000000000
B0312593145571S11654938EA0103701028000000000000
B0313033145494S11654925EA0101801007000000000000
B0313073145419S11654910EA0099800992000000000000
B0313113145343S11654894EA0099100987000000000000
B0313153145269S11654881EA0098300978000000000000
B0313193145195S11654872EA0097000963000000000000
B0313233145121S11654862EA0095500944000000000000
B0313273145046S11654846EA0094100934000000000000
B0313313144970S11654832EA0094500943000000000000
B0313353144903S11654838EA0094800943000000000000
B0313393144843S11654869EA0094900942000000000000
B0313433144782S11654903EA0094400937000000000000
B0313473144760S11654968EA0095200956000000000000
B0313513144817S11654979EA0097900982000000000000
B0313553144833S11654911EA0098700988000000000000
B0313593144788S11654867EA0098600989000000015000
B0314033144731S11654880EA0098600989000000000000
B0314073144725S11654938EA0099501003000000015000
B0314113144784S11654946EA0100501008000000015000
B0314153144812S11654877EA0101601025000000015000
B0314193144771S11654846EA0102601030000000000000
B0314233144751S11654894EA0102601028000000000000
B0314273144797S11654925EA0102901032000000000000
B0314313144846S11654873EA0103001035000000000000
B0314353144833S11654797EA0103501041000000000000
B0314393144777S11654791EA0104301047000000015000
B0314433144764S11654854EA0104801052000000000000
B0314473144818S11654888EA0105901062000000000000
B0314513144874S11654845EA0106401070000000000000
B0314553144885S11654767EA0107601083000000015000
B0314593144836S11654735EA0108101087000000015000
B0315033144807S11654785EA0108401093000000015000
B0315073144851S11654829EA0109201103000000015000
B0315113144913S11654802EA0109601110000000015000
B0315153144927S11654728EA0110501118000000015000
B0315193144875S11654698EA0110801119000000015000
B0315233144840S11654746EA0111001122000000015000
B0315273144873S11654798EA0112001133000000015000
B0315313144935S11654789EA0112601134000000015000
B0315353144994S11654739EA0112501135000000015000
B0315393144987S11654664EA0112501134000000015000
B0315433144931S11654651EA0112101128000000015000
B0315473144878S11654693EA0111001120000000015000
B0315513144834S11654755EA0110901123000000000000
B0315553144794S11654815EA0112101134000000000000
B0315593144760S11654877EA0112601134000000000000
B0316033144800S11654928EA0113701150000000000000
B0316073144859S11654882EA0114201149000000000000
B0316113144894S11654797EA0113301143000000000000
B0316153144901S11654703EA0113501149000000000000
B0316193144855S11654644EA0113901155000000000000
B0316233144805S11654668EA0114801164000000000000
B0316273144813S11654726EA0115601166000000000000
B0316313144875S11654730EA0116101174000000000000
B0316353144909S11654659EA0116401177000000000000
B0316393144885S11654589EA0116701183000000000000
B0316433144829S11654566EA0117301186000000000000
B0316473144769S11654578EA0116101168000000000000
B0316513144697S11654583EA0114701156000000000000
B0316553144619S11654579EA0113701142000000000000
B0316593144539S11654569EA0112801133000000000000
B0317033144458S11654555EA0111601122000000000000
B0317073144376S11654535EA0110901118000000000000
B0317113144298S11654520EA0111701128000000000000
B0317153144223S11654529EA0111601122000000000000
B0317193144146S11654546EA0109901098000000000000
B0317233144064S11654551EA0108001080000000000000
B0317273143981S11654546EA0106901069000000000000
B0317313143898S11654537EA0105701051000000000000
B0317353143813S11654527EA0103901035000000000000
B0317393143730S11654520EA0102401024000000000000
B0317433143647S11654518EA0101301011000000000000
B0317473143565S11654520EA0100000997000000000000
B0317513143484S11654524EA0099100988000000000000
B0317553143405S11654530EA0098600980000000000000
B0317593143326S11654537EA0097100965000000000000
B0318033143248S11654537EA0096200952000000000000
B0318073143167S11654540EA0094900941000000000000
B0318113143091S11654555EA0095000948000000000000
B0318153143023S11654589EA0094700939000000000000
B0318193142957S11654626EA0094300935000000000000
B0318233142889S11654664EA0093200917000000000000
B0318273142821S11654706EA0091500905000000000000
B0318313142755S11654750EA0090800897000000000000
B0318353142688S11654787EA0090000889000000000000
B0318393142616S11654819EA0088900873000000000000
B0318433142539S11654845EA0087600854000000000000
B0318473142457S11654868EA0086000841000000000000
B0318513142374S11654889EA0084600830000000000000
B0318553142291S11654910EA0084200829000000000000
B0318593142213S11654933EA0085100845000000000000
B0319033142164S11654984EA0087600870000000000000
B0319073142203S11655031EA0089300887000000000000
B0319113142259S11654989EA0090100893000000000000
B0319153142242S11654911EA0091000907000000000000
B0319193142182S11654899EA0092000915000000000000
B0319233142170S11654955EA0091800914000000000000
B0319273142227S11654982EA0092500921000000000000
B0319313142279S11654930EA0092900928000000000000
B0319353142270S11654846EA0094100942000000000000
B0319393142213S11654806EA0095200956000000000000
B0319433142171S11654842EA0096700969000000000000
B0319473142196S11654890EA0097000970000000000000
B0319513142256S11654871EA0097100974000000000000
B0319553142275S11654789EA0098200987000000000000
B0319593142233S11654721EA0099301001000000000000
B0320033142171S11654720EA0101201021000000000000
B0320073142149S11654772EA0102401026000000000000
B0320113142191S11654812EA0102601031000000000000
B0320153142249S11654778EA0103001038000000000000
B0320193142255S11654694EA0104801055000000000000
B0320233142208S11654639EA0105901074000000000000
B0320273142157S11654657EA0107501089000000000000
B0320313142166S11654708EA0109001099000000000000
B0320353142220S11654713EA0109501102000000000000
B0320393142251S11654641EA0109801112000000000000
B0320433142212S11654578EA0111701135000000000000
B0320473142166S11654595EA0113701153000000000000
B0320513142171S11654644EA0114501155000000000000
B0320553142223S11654659EA0114901160000000000000
B0320593142268S11654599EA0115701172000000000000
B0321033142248S11654522EA0117101185000000000000
B0321073142194S11654518EA0118501201000000000000
B0321113142186S11654569EA0119601209000000000000
B0321153142236S11654586EA0120301216000000000000
B0321193142274S11654524EA0121501232000000000000
B0321233142246S11654457EA0122801245000000000000
B0321273142199S11654468EA0123801258000000000000
B0321313142207S11654521EA0124301259000000000000
B0321353142266S11654524EA0124901271000000000000
B0321393142299S11654456EA0126701287000000000000
B0321433142275S11654384EA0127501295000000000000
B0321473142225S11654378EA0128801308000000000000
B0321513142217S11654429EA0129601314000000000000
B0321553142257S11654474EA0130401324000000000000
B0321593142314S11654461EA0131901342000000000000
B0322033142339S11654388EA0132701343000000000000
B0322073142305S11654319EA0132401342000000000000
B0322113142246S11654312EA0132901352000000000000
B0322153142205S11654351EA0134601369000000000000
B0322193142233S11654407EA0136001383000000000000
B0322233142294S11654390EA0137701399000000000000
B0322273142309S11654313EA0138401404000000000000
B0322313142262S11654258EA0138701413000000000000
B0322353142213S11654277EA0140301433000000000000
B0322393142240S11654335EA0141701447000000000000
B0322433142304S11654323EA0143601467000000000000
B0322473142334S11654253EA0145001475000000000000
B0322513142304S11654184EA0145201479000000000000
B0322553142249S11654187EA0146701499000000000000
B0322593142234S11654244EA0148401510000000000000
B0323033142277S11654297EA0148601515000000000000
B0323073142343S11654284EA0150301537000000000000
B0323113142348S11654208EA0152301555000000000000
B0323153142300S11654184EA0153501568000000000000
B0323193142288S11654236EA0155101584000000000000
B0323233142335S11654269EA0156501599000000000000
B0323273142385S11654223EA0157901613000000000000
B0323313142381S11654148EA0158701619000000000000
B0323353142335S11654110EA0159601634000000000000
B0323393142305S11654144EA0161601654000000000000
B0323433142331S11654193EA0161801649000000000000
B0323473142398S11654191EA0162601664000000000000
B0323513142430S11654127EA0164201676000000000000
B0323553142407S11654058EA0164201678000000000000
B0323593142352S11654037EA0165101692000000000000
B0324033142324S11654083EA0166201698000000000000
B0324073142359S11654139EA0166101694000000000000
B0324113142431S11654132EA0166301704000000000000
B0324153142490S11654072EA0167801715000000000000
B0324193142508S11653985EA0168401722000000000000
B0324233142478S11653910EA0168801726000000000000
B0324273142422S11653890EA0169801739000000000000
B0324313142391S11653936EA0171401754000000000000
B0324353142426S11653993EA0171901759000000000000
B0324393142498S11653993EA0172501768000000000000
B0324433142548S11653927EA0173601780000000000000
B0324473142547S11653838EA0174201782000000000000
B0324513142502S11653780EA0174501786000000000000
B0324553142441S11653772EA0174801789000000000000
B0324593142379S11653801EA0174701786000000000000
B0325033142325S11653850EA0174801790000000000000
B0325073142294S11653920EA0175501795000000000000
B0325113142329S11653981EA0177001812000000000000
B0325153142389S11653954EA0177401807000000000000
B0325193142376S11653881EA0175601792000000000000
B0325233142313S11653841EA0174901785000000000000
B0325273142240S11653811EA0172901762000000000000
B0325313142155S11653783EA0171701750000000000000
B0325353142066S11653758EA0172201767000000000000
B0325393141980S11653737EA0174801789000000000000
B0325433141931S11653781EA0177701834000000000000
B0325473141975S11653824EA0181301859000000000000
B0325513142031S11653790EA0182601873000000000000
B0325553142027S11653712EA0184201891000000000000
B0325593141973S11653679EA0185401900000000000000
B0326033141927S11653724EA0185801903000000000000
B0326073141952S11653789EA0187201921000000000000
B0326113142017S11653794EA0188801936000000000000
B0326153142056S11653732EA0190301952000000000000
B0326193142028S11653658EA0191901968000000000000
B0326233141963S11653642EA0193301980000000000000
B0326273141934S11653698EA0195001999000000000000
B0326313141967S11653749EA0196302012000000000000
B0326353142027S11653738EA0197402026000000000000
B0326393142045S11653669EA0199502048000000000000
B0326433142002S11653612EA0200902061000000000000
B0326473141941S11653620EA0201702068000000000000
B0326513141928S11653682EA0202902078000000000000
B0326553141980S11653716EA0203002078000000000000
B0326593142036S11653677EA0204002095000000000000
B0327033142017S11653611EA0206302119000000000000
B0327073141962S11653617EA0207102125000000000000
B0327113141956S11653680EA0207702129000000000000
B0327153142008S11653712EA0208302133000000000000
B0327193142066S11653679EA0208602143000000000000
B0327233142083S11653603EA0210602165000000000000
B0327273142030S11653571EA0212402181000000000000
B0327313141993S11653625EA0212702183000000000000
B0327353142038S11653675EA0213602192000000000000
B0327393142099S11653647EA0215102214000000000000
B0327433142109S11653576EA0217002236000000000000
B0327473142057S11653530EA0219002251000000000000
B0327513142002S11653559EA0220202261000000000000
B0327553142004S11653628EA0221002267000000000000
B0327593142061S11653646EA0221802279000000000000
B0328033142097S11653589EA0222802291000000000000
B0328073142066S11653524EA0223602298000000000000
B0328113142000S11653503EA0223202293000000000000
B0328153141926S11653493EA0222202277000000000000
B0328193141840S11653473EA0219902251000000000000
B0328233141744S11653450EA0216902219000000000000
B0328273141638S11653424EA0214602184000000000000
B0328313141531S11653398EA0212602179000000000000
B0328353141429S11653374EA0212602177000000000000
B0328393141328S11653352EA0212402172000000000000
B0328433141225S11653329EA0212102174000000000000
B0328473141129S11653307EA0212702182000000000000
B0328513141037S11653287EA0213402185000000000000
B0328553140947S11653269EA0213502180000000000000
B0328593140858S11653253EA0212502171000000000000
B0329033140771S11653237EA0212102166000000000000
B0329073140687S11653216EA0211102157000000000000
B0329113140601S11653192EA0210202147000000000000
B0329153140517S11653168EA0209702137000000000000
B0329193140432S11653139EA0208402121000000000000
B0329233140344S11653110EA0206502102000000000000
B0329273140255S11653082EA0204902087000000000000
B0329313140166S11653055EA0203602075000000000000
B0329353140076S11653030EA0202402062000000000000
B0329393139987S11653006EA0201902057000000000000
B0329433139899S11652986EA0201202050000000000000
B0329473139815S11652969EA0201502053000000000000
B0329513139729S11652949EA0201502054000000000000
B0329553139646S11652925EA0202102062000000000000
B0329593139562S11652900EA0202002053000000000000
B0330033139475S11652875EA0200702041000000000000
B0330073139391S11652849EA0200302043000000000000
B0330113139308S11652822EA0199802031000000000000
B0330153139223S11652792EA0198102011000000000000
B0330193139135S11652758EA0196702000000000000000
B0330233139046S11652728EA0196201994000000000000
B0330273138957S11652696EA0195201981000000000000
B0330313138868S11652659EA0194101971000000000000
B0330353138778S11652619EA0192901963000000000000
B0330393138690S11652580EA0192101954000000000000
B0330433138600S11652540EA0191001941000000000000
B0330473138508S11652501EA0189201923000000000000
B0330513138413S11652464EA0187901910000000000000
B0330553138316S11652428EA0186601899000000000000
B0330593138218S11652394EA0185301885000000000000
B0331033138123S11652360EA0184601875000000000000
B0331073138031S11652329EA0184301872000000000000
B0331113137939S11652298EA0183101854000000000000
B0331153137848S11652267EA0181501841000000000000
B0331193137755S11652236EA0180101826000000000000
B0331233137664S11652206EA0179201819000000000000
B0331273137575S11652174EA0178201808000000000000
B0331313137486S11652142EA0176801795000000000000
B0331353137398S11652111EA0176301788000000000000
B0331393137312S11652081EA0175801785000000000000
B0331433137228S11652052EA0175401776000000000000
B0331473137143S11652020EA0174601771000000000000
B0331513137061S11651986EA0174301768000000000000
B0331553136978S11651952EA0173601760000000000000
B0331593136895S11651921EA0173101755000000000000
B0332033136813S11651894EA0172801749000000000000
B0332073136730S11651870EA0172101743000000000000
B0332113136648S11651848EA0172401752000000000000
B0332153136568S11651827EA0173401763000000000000
B0332193136493S11651814EA0174601778000000000000
B0332233136425S11651823EA0176401796000000000000
B0332273136406S11651885EA0178101808000000000000
B0332313136464S11651904EA0178801810000000000000
B0332353136503S11651835EA0177701797000000000000
B0332393136472S11651757EA0178001812000000000000
B0332433136418S11651716EA0180301836000000000000
B0332473136372S11651738EA0181801845000000000000
B0332513136383S11651794EA0182201845000000000000
B0332553136442S11651807EA0181601839000000000000
B0332593136481S11651736EA0181001834000000000000
B0333033136449S11651666EA0182101852000000000000
B0333073136390S11651638EA0183001857000000000000
B0333113136329S11651638EA0182201847000000000000
B0333153136263S11651653EA0180401826000000000000
B0333193136185S11651665EA0178301799000000000000
B0333233136099S11651675EA0176101778000000000000
B0333273136011S11651688EA0174801773000000000000
B0333313135922S11651696EA0174301768000000000000
B0333353135835S11651703EA0173801760000000000000
B0333393135747S11651708EA0172801748000000000000
B0333433135660S11651710EA0171601737000000000000
B0333473135573S11651710EA0170701727000000000000
B0333513135487S11651709EA0169801718000000000000
B0333553135401S11651705EA0169401712000000000000
B0333593135318S11651703EA0168401699000000000000
B0334033135232S11651699EA0166601681000000000000
B0334073135145S11651696EA0165501675000000000000
B0334113135059S11651693EA0165001670000000000000
B0334153134972S11651695EA0164301658000000000000
B0334193134886S11651695EA0163001647000000000000
B0334233134800S11651692EA0162501643000000000000
B0334273134719S11651688EA0162201638000000000000
B0334313134637S11651688EA0161401627000000000000
B0334353134552S11651696EA0159801614000000000000
B0334393134466S11651703EA0159101606000000000000
B0334433134381S11651708EA0158501603000000000000
B0334473134296S11651719EA0158501599000000000000
B0334513134210S11651729EA0158101596000000000000
B0334553134131S11651747EA0159601618000000000000
B0334593134067S11651779EA0161201630000000000000
B0335033134014S11651826EA0161701633000000000000
B0335073133968S11651875EA0162201640000000000000
B0335113133922S11651922EA0162701643000000000000
B0335153133879S11651973EA0162301637000000000000
B0335193133837S11652029EA0161701631000000000000
B0335233133792S11652081EA0161401629000000000000
B0335273133745S11652137EA0160801619000000000000
B0335313133699S11652200EA0159301602000000000000
B0335353133651S11652264EA0158401596000000000000
B0335393133595S11652315EA0157301584000000000000
B0335433133526S11652347EA0156401573000000000000
B0335473133450S11652364EA0155501566000000000000
B0335513133372S11652368EA0155501567000000000000
B0335553133296S11652376EA0154901561000000000000
B0335593133224S11652392EA0155101566000000000000
B0336033133157S11652414EA0156101577000000000000
B0336073133096S11652437EA0156201571000000000000
B0336113133025S11652455EA0153801545000000000000
B0336153132944S11652462EA0152501530000000000000
B0336193132860S11652458EA0151501522000000000000
B0336233132772S11652446EA0150501511000000000000
B0336273132687S11652427EA0149301502000000000000
B0336313132601S11652405EA0148501494000000000000
B0336353132516S11652381EA0147501484000000000000
B0336393132432S11652356EA0146401473000000000000
B0336433132347S11652334EA0145201460000000000000
B0336473132263S11652311EA0144701451000000000000
B0336513132177S11652285EA0143501444000000000000
B0336553132093S11652256EA0142401430000000000000
B0336593132007S11652229EA0140801417000000000000
B0337033131921S11652204EA0139601404000000000000
B0337073131838S11652181EA0138701392000000000000
B0337113131755S11652155EA0137501380000000000000
B0337153131673S11652132EA0137001376000000000000
B0337193131595S11652108EA0136701373000000000000
B0337233131519S11652086EA0136301367000000000000
B0337273131443S11652063EA0135701360000000000000
B0337313131366S11652038EA0134601349000000000000
B0337353131289S11652012EA0133401334000000000000
B0337393131211S11651986EA0132201324000000000000
B0337433131134S11651963EA0131701321000000000000
B0337473131062S11651940EA0131901326000000000000
B0337513130991S11651924EA0132201324000000000000
B0337553130919S11651913EA0131601318000000000000
B0337593130847S11651917EA0131201314000000000000
B0338033130781S11651929EA0130801305000000000000
B0338073130713S11651946EA0129201287000000000000
B0338113130644S11651957EA0127801274000000000000
B0338153130572S11651966EA0126401261000000000000
B0338193130496S11651972EA0125201243000000000000
B0338233130417S11651970EA0123401225000000000000
B0338273130336S11651968EA0122001215000000000000
B0338313130258S11651974EA0122501226000000000000
B0338353130191S11652000EA0123501235000000000000
B0338393130136S11652050EA0123801235000000000000
B0338433130089S11652104EA0124801245000000000000
B0338473130044S11652152EA0125701257000000000000
B0338513130000S11652200EA0126001255000000000000
B0338553129966S11652263EA0126201257000000000000
B0338593129994S11652323EA0125601254000000000000
B0339033130057S11652294EA0125901268000000000000
B0339073130078S11652220EA0126301274000000000000
B0339113130052S11652151EA0126101271000000000000
B0339153129998S11652109EA0125801266000000000000
B0339193129933S11652102EA0124301249000000000000
B0339233129862S11652096EA0122801233000000000000
B0339273129788S11652081EA0122101226000000000000
B0339313129712S11652087EA0122701235000000000000
B0339353129690S11652151EA0124601255000000000000
B0339393129753S11652138EA0125701280000000000000
B0339433129756S11652061EA0126601289000000000000
B0339473129701S11652029EA0127201288000000000000
B0339513129651S11652069EA0127101289000000000000
B0339553129676S11652126EA0128301302000000000000
B0339593129738S11652104EA0128401302000000000000
B0340033129773S11652030EA0128001302000000000000
B0340073129754S11651952EA0128601306000000000000
B0340113129707S11651978EA0128401299000000000000
B0340153129720S11652054EA0128501302000000000000
B0340193129773S11652098EA0129101308000000000000
B0340233129844S11652089EA0129501309000000000000
B0340273129907S11652035EA0129101305000000000000
B0340313129909S11651956EA0129501312000000000000
B0340353129849S11651920EA0129101299000000000000
B0340393129772S11651891EA0126701276000000000000
B0340433129689S11651861EA0125301264000000000000
B0340473129603S11651829EA0124501247000000000000
B0340513129519S11651797EA0123701241000000000000
B0340553129433S11651773EA0123501247000000000000
B0340593129357S11651787EA0126301279000000000000
B0341033129333S11651847EA0129201306000000000000
B0341073129377S11651890EA0130701322000000000000
B0341113129437S11651869EA0131801332000000000000
B0341153129459S11651797EA0131801330000000000000
B0341193129418S11651745EA0132101336000000000000
B0341233129386S11651787EA0133801355000000000000
B0341273129421S11651829EA0135101366000000000000
B0341313129478S11651808EA0135701371000000000000
B0341353129503S11651742EA0136201378000000000000
B0341393129468S11651696EA0136601383000000000000
B0341433129430S11651729EA0137301391000000000000
B0341473129452S11651782EA0138601408000000000000
B0341513129508S11651790EA0139901415000000000000
B0341553129548S11651736EA0140101417000000000000
B0341593129533S11651673EA0140601424000000000000
B0342033129482S11651660EA0140701423000000000000
B0342073129437S11651704EA0140701425000000000000
B0342113129450S11651765EA0142401449000000000000
B0342153129511S11651748EA0143801460000000000000
B0342193129526S11651669EA0143601459000000000000
B0342233129476S11651625EA0144801475000000000000
B0342273129433S11651665EA0146601493000000000000
B0342313129454S11651723EA0148101505000000000000
B0342353129513S11651729EA0149201512000000000000
B0342393129555S11651670EA0149201510000000000000
B0342433129535S11651593EA0149201515000000000000
B0342473129480S11651560EA0149901526000000000000
B0342513129451S11651609EA0151201540000000000000
B0342553129499S11651649EA0152501552000000000000
B0342593129558S11651618EA0153401560000000000000
B0343033129576S11651543EA0153901567000000000000
B0343073129539S11651485EA0154901575000000000000
B0343113129490S11651497EA0155301577000000000000
B0343153129491S11651560EA0156101587000000000000
B0343193129545S11651586EA0157301599000000000000
B0343233129593S11651539EA0157601599000000000000
B0343273129584S11651463EA0158001611000000000000
B0343313129535S11651430EA0159001618000000000000
B0343353129498S11651465EA0159401622000000000000
B0343393129513S11651523EA0160101630000000000000
B0343433129571S11651548EA0160701633000000000000
B0343473129630S11651511EA0161101638000000000000
B0343513129668S11651441EA0161301641000000000000
B0343553129694S11651361EA0161401637000000000000
B0343593129673S11651281EA0160101623000000000000
B0344033129613S11651228EA0157301591000000000000
B0344073129537S11651189EA0154601564000000000000
B0344113129452S11651153EA0152601548000000000000
B0344153129364S11651123EA0151101534000000000000
B0344193129277S11651097EA0151201539000000000000
B0344233129191S11651071EA0151401540000000000000
B0344273129106S11651046EA0151501539000000000000
B0344313129025S11651023EA0150901524000000000000
B0344353128937S11650997EA0149201509000000000000
B0344393128852S11650976EA0148701502000000000000
B0344433128765S11650956EA0147801491000000000000
B0344473128676S11650937EA0146801481000000000000
B0344513128588S11650920EA0145801469000000000000
B0344553128501S11650904EA0145101468000000000000
B0344593128415S11650890EA0145401469000000000000
B0345033128333S11650878EA0144901459000000000000
B0345073128250S11650867EA0144701455000000000000
B0345113128168S11650850EA0144101450000000000000
B0345153128085S11650830EA0142501432000000000000
B0345193128000S11650811EA0140801415000000000000
B0345233127914S11650794EA0139901403000000000000
B0345273127829S11650772EA0138501388000000000000
B0345313127745S11650746EA0137301382000000000000
B0345353127665S11650716EA0136701374000000000000
B0345393127584S11650685EA0135501361000000000000
B0345433127505S11650656EA0134801354000000000000
B0345473127424S11650627EA0133801345000000000000
B0345513127344S11650600EA0133201339000000000000
B0345553127266S11650574EA0132601330000000000000
B0345593127186S11650555EA0131801320000000000000
B0346033127104S11650542EA0130701311000000000000
B0346073127021S11650538EA0129801302000000000000
B0346113126938S11650536EA0128601291000000000000
B0346153126854S11650534EA0127601282000000000000
B0346193126770S11650531EA0127001277000000000000
B0346233126690S11650530EA0126401270000000000000
B0346273126610S11650527EA0125601259000000000000
B0346313126534S11650527EA0124401240000000000000
B0346353126454S11650529EA0122601221000000000000
B0346393126375S11650530EA0120901208000000000000
B0346433126297S11650531EA0120101199000000000000
B0346473126219S11650531EA0118901185000000000000
B0346513126139S11650529EA0117401171000000000000
B0346553126058S11650533EA0116301160000000000000
B0346593125977S11650538EA0115601150000000000000
B0347033125895S11650548EA0114801148000000000000
B0347073125817S11650561EA0115801165000000000000
B0347113125746S11650578EA0117701183000000000000
B0347153125682S11650608EA0119101194000000000000
B0347193125671S11650673EA0119801201000000000000
B0347233125730S11650681EA0120601213000000000000
B0347273125765S11650618EA0121701225000000000000
B0347313125751S11650542EA0122801238000000000000
B0347353125700S11650503EA0124301252000000000000
B0347393125658S11650535EA0124401254000000000000
B0347433125676S11650590EA0123901249000000000000
B0347473125734S11650579EA0124201260000000000000
B0347513125759S11650509EA0125601272000000000000
B0347553125738S11650431EA0126701282000000000000
B0347593125682S11650400EA0126801282000000000000
B0348033125646S11650438EA0126801278000000000000
B0348073125671S11650488EA0126301271000000000000
B0348113125733S11650488EA0126001275000000000000
B0348153125784S11650442EA0127501294000000000000
B0348193125762S11650375EA0129601311000000000000
B0348233125711S11650379EA0129201309000000000000
B0348273125708S11650434EA0129301317000000000000
B0348313125762S11650457EA0130301324000000000000
B0348353125811S11650421EA0131901343000000000000
B0348393125803S11650349EA0133001349000000000000
B0348433125747S11650336EA0132901350000000000000
B0348473125720S11650383EA0133301358000000000000
B0348513125756S11650417EA0134601368000000000000
B0348553125806S11650388EA0135601382000000000000
B0348593125815S11650317EA0136801390000000000000
B0349033125767S11650270EA0137101389000000000000
B0349073125713S11650288EA0136701390000000000000
B0349113125712S11650344EA0137901403000000000000
B0349153125763S11650362EA0138701411000000000000
B0349193125812S11650317EA0140101427000000000000
B0349233125810S11650241EA0141401435000000000000
B0349273125752S11650204EA0141301434000000000000
B0349313125707S11650234EA0141401439000000000000
B0349353125719S11650287EA0142501449000000000000
B0349393125771S11650306EA0143401464000000000000
B0349433125819S11650267EA0145301482000000000000
B0349473125807S11650197EA0146201485000000000000
B0349513125747S11650170EA0146101482000000000000
B0349553125707S11650210EA0145901484000000000000
B0349593125724S11650270EA0147001501000000000000
B0350033125777S11650262EA0149401524000000000000
B0350073125795S11650192EA0150801536000000000000
B0350113125752S11650137EA0151501541000000000000
B0350153125694S11650140EA0151501544000000000000
B0350193125660S11650188EA0152901559000000000000
B0350233125687S11650232EA0154001569000000000000
B0350273125741S11650210EA0154801585000000000000
B0350313125752S11650136EA0156701602000000000000
B0350353125706S11650087EA0157801609000000000000
B0350393125648S11650107EA0158301619000000000000
B0350433125648S11650169EA0159201629000000000000
B0350473125699S11650184EA0160101640000000000000
B0350513125741S11650124EA0161301653000000000000
B0350553125708S11650059EA0162601668000000000000
B0350593125655S11650079EA0163701680000000000000
B0351033125647S11650140EA0164301681000000000000
B0351073125698S11650174EA0164401681000000000000
B0351113125759S11650143EA0165701698000000000000
B0351153125754S11650067EA0167401711000000000000
B0351193125694S11650039EA0167901715000000000000
B0351233125655S11650087EA0168801726000000000000
B0351273125674S11650140EA0170101739000000000000
B0351313125732S11650136EA0170901750000000000000
B0351353125755S11650067EA0172501768000000000000
B0351393125715S11650010EA0173501774000000000000
B0351433125660S11650020EA0173801779000000000000
B0351473125652S11650078EA0174501783000000000000
B0351513125699S11650110EA0175101793000000000000
B0351553125751S11650070EA0176301805000000000000
B0351593125750S11649992EA0177301814000000000000
B0352033125697S11649950EA0177901821000000000000
B0352073125637S11649966EA0178201824000000000000
B0352113125629S11650024EA0178501827000000000000
B0352153125682S11650042EA0178901835000000000000
B0352193125734S11649996EA0179801842000000000000
B0352233125760S11649916EA0180701853000000000000
B0352273125730S11649847EA0182301869000000000000
B0352313125674S11649857EA0183001877000000000000
B0352353125665S11649915EA0183001876000000000000
B0352393125716S11649942EA0183501881000000000000
B0352433125775S11649915EA0184301887000000000000
B0352473125811S11649846EA0184401888000000000000
B0352513125804S11649764EA0184301885000000000000
B0352553125746S11649716EA0182901869000000000000
B0352593125669S11649707EA0181401848000000000000
B0353033125583S11649715EA0179001819000000000000
B0353073125489S11649729EA0176201791000000000000
B0353113125390S11649749EA0173801771000000000000
B0353153125288S11649771EA0172701765000000000000
B0353193125188S11649795EA0172301762000000000000
B0353233125091S11649821EA0172201757000000000000
B0353273124995S11649846EA0171501749000000000000
B0353313124898S11649868EA0170501740000000000000
B0353353124803S11649890EA0169901736000000000000
B0353393124710S11649912EA0169301725000000000000
B0353433124616S11649936EA0168201716000000000000
B0353473124527S11649961EA0167901708000000000000
B0353513124437S11649987EA0167201706000000000000
B0353553124350S11650011EA0167001698000000000000
B0353593124264S11650037EA0166201695000000000000
B0354033124181S11650061EA0165901690000000000000
B0354073124098S11650085EA0165401685000000000000
B0354113124017S11650111EA0164901679000000000000
B0354153123935S11650137EA0163801665000000000000
B0354193123852S11650163EA0163101663000000000000
B0354233123774S11650195EA0163301662000000000000
B0354273123697S11650234EA0162401651000000000000
B0354313123623S11650276EA0162401660000000000000
B0354353123558S11650322EA0163101659000000000000
B0354393123488S11650367EA0161201635000000000000
B0354433123407S11650409EA0159301616000000000000
B0354473123321S11650443EA0157801602000000000000
B0354513123233S11650471EA0156301586000000000000
B0354553123145S11650491EA0155501583000000000000
B0354593123056S11650507EA0155101576000000000000
B0355033122968S11650518EA0154501568000000000000
B0355073122881S11650531EA0153501557000000000000
B0355113122792S11650542EA0152401546000000000000
B0355153122705S11650551EA0151301535000000000000
B0355193122618S11650556EA0150001521000000000000
B0355233122532S11650559EA0148801506000000000000
B0355273122447S11650562EA0146801484000000000000
B0355313122361S11650566EA0144601463000000000000
B0355353122274S11650570EA0143101450000000000000
B0355393122192S11650574EA0144101473000000000000
B0355433122122S11650586EA0145801479000000000000
B0355473122057S11650612EA0145901480000000000000
B0355513121995S11650648EA0146001481000000000000
B0355553121938S11650691EA0145401474000000000000
B0355593121884S11650742EA0144801468000000000000
B0356033121837S11650798EA0145401479000000000000
B0356073121795S11650851EA0146101483000000000000
B0356113121759S11650912EA0146101482000000000000
B0356153121724S11650975EA0146101483000000000000
B0356193121689S11651036EA0146501488000000000000
B0356233121657S11651098EA0147001493000000000000
B0356273121629S11651162EA0147301495000000000000
B0356313121609S11651232EA0147601493000000000000
B0356353121582S11651301EA0147301491000000000000
B0356393121543S11651363EA0146801485000000000000
B0356433121498S11651423EA0146801490000000000000
B0356473121468S11651488EA0147901503000000000000
B0356513121499S11651544EA0148801508000000000000
B0356553121563S11651502EA0149101514000000000000
B0356593121568S11651417EA0149701519000000000000
B0357033121524S11651354EA0149201514000000000000
B0357073121459S11651323EA0149001517000000000000
B0357113121391S11651320EA0149901529000000000000
B0357153121353S11651366EA0151901552000000000000
B0357193121394S11651409EA0153401560000000000000
B0357233121459S11651378EA0153901567000000000000
B0357273121481S11651297EA0154701577000000000000
B0357313121449S11651225EA0156101590000000000000
B0357353121391S11651206EA0157101597000000000000
B0357393121347S11651248EA0157401601000000000000
B0357433121355S11651313EA0157601610000000000000
B0357473121416S11651335EA0159301624000000000000
B0357513121472S11651289EA0159501625000000000000
B0357553121474S11651206EA0160201636000000000000
B0357593121430S11651150EA0161501649000000000000
B0358033121377S11651155EA0162501660000000000000
B0358073121362S11651207EA0163001660000000000000
B0358113121409S11651248EA0162901662000000000000
B0358153121478S11651223EA0163301667000000000000
B0358193121511S11651147EA0164701684000000000000
B0358233121488S11651080EA0165601696000000000000
B0358273121436S11651075EA0166001696000000000000
B0358313121433S11651132EA0165901695000000000000
B0358353121496S11651140EA0165901697000000000000
B0358393121543S11651072EA0166201702000000000000
B0358433121559S11650986EA0167001711000000000000
B0358473121524S11650923EA0167401710000000000000
B0358513121456S11650903EA0166301698000000000000
B0358553121381S11650894EA0165101687000000000000
B0358593121300S11650890EA0164401681000000000000
B0359033121219S11650889EA0164501683000000000000
B0359073121137S11650887EA0164801687000000000000
B0359113121056S11650887EA0163101659000000000000
B0359153120968S11650886EA0161201640000000000000
B0359193120880S11650889EA0160101630000000000000
B0359233120790S11650894EA0159001614000000000000
B0359273120699S11650897EA0157001590000000000000
B0359313120610S11650898EA0156101590000000000000
B0359353120525S11650895EA0156901598000000000000
B0359393120446S11650893EA0157201597000000000000
B0359433120368S11650890EA0156401589000000000000
B0359473120290S11650885EA0155401578000000000000
B0359513120209S11650881EA0154801573000000000000
B0359553120130S11650874EA0154401565000000000000
B0359593120049S11650868EA0153101550000000000000
B0400033119966S11650863EA0151601535000000000000
B0400073119880S11650859EA0150601529000000000000
B0400113119797S11650854EA0151001536000000000000
B0400153119715S11650846EA0151001535000000000000
B0400193119636S11650839EA0150401527000000000000
B0400233119555S11650833EA0149801518000000000000
B0400273119473S11650824EA0149201519000000000000
B0400313119395S11650816EA0150101524000000000000
B0400353119315S11650811EA0149601519000000000000
B0400393119234S11650806EA0149201514000000000000
B0400433119154S11650803EA0147801497000000000000
B0400473119070S11650806EA0146301485000000000000
B0400513118990S11650809EA0145601477000000000000
B0400553118911S11650817EA0145901485000000000000
B0400593118838S11650829EA0146501478000000000000
B0401033118761S11650845EA0144801460000000000000
B0401073118680S11650864EA0144401465000000000000
B0401113118613S11650902EA0146001486000000000000
B0401153118565S11650954EA0148101505000000000000
B0401193118535S11651020EA0149601518000000000000
B0401233118549S11651084EA0151501542000000000000
B0401273118606S11651063EA0153201554000000000000
B0401313118601S11650985EA0153301552000000000000
B0401353118534S11650964EA0154301571000000000000
B0401393118500S11651020EA0156801597000000000000
B0401433118547S11651055EA0159401625000000000000
B0401473118593S11651011EA0160901635000000000000
B0401513118578S11650939EA0162201652000000000000
B0401553118524S11650925EA0164701678000000000000
B0401593118495S11650969EA0165901686000000000000
B0402033118526S11651019EA0166801698000000000000
B0402073118582S11650990EA0168401714000000000000
B0402113118578S11650917EA0169601734000000000000
B0402153118527S11650898EA0171301750000000000000
B0402193118492S11650942EA0172301756000000000000
B0402233118517S11650998EA0173701778000000000000
B0402273118571S11650984EA0175301788000000000000
B0402313118574S11650908EA0176101800000000000000
B0402353118522S11650880EA0178201823000000000000
B0402393118485S11650926EA0179401836000000000000
B0402433118517S11650977EA0181101853000000000000
B0402473118569S11650946EA0182401864000000000000
B0402513118562S11650872EA0183401879000000000000
B0402553118506S11650851EA0185701903000000000000
B0402593118463S11650893EA0186801910000000000000
B0403033118492S11650949EA0188701931000000000000
B0403073118543S11650926EA0190601952000000000000
B0403113118552S11650854EA0191501954000000000000
B0403153118496S11650803EA0192001963000000000000
B0403193118436S11650824EA0192701971000000000000
B0403233118435S11650887EA0194201996000000000000
B0403273118485S11650898EA0197102020000000000000
B0403313118513S11650837EA0198602035000000000000
B0403353118475S11650778EA0200202046000000000000
B0403393118418S11650787EA0200302047000000000000
B0403433118415S11650850EA0200802058000000000000
B0403473118469S11650861EA0203002084000000000000
B0403513118491S11650799EA0205202103000000000000
B0403553118454S11650739EA0206202106000000000000
B0403593118394S11650746EA0205902100000000000000
B0404033118355S11650807EA0205702108000000000000
B0404073118370S11650872EA0207702128000000000000
B0404113118428S11650874EA0209302145000000000000
B0404153118454S11650812EA0210702164000000000000
B0404193118414S11650755EA0212102169000000000000
B0404233118355S11650772EA0211602167000000000000
B0404273118359S11650841EA0212302180000000000000
B0404313118417S11650863EA0214002197000000000000
B0404353118465S11650820EA0215502210000000000000
B0404393118466S11650744EA0216802223000000000000
B0404433118420S11650689EA0217102222000000000000
B0404473118353S11650670EA0215802203000000000000
B0404513118268S11650659EA0213202178000000000000
B0404553118172S11650643EA0211002158000000000000
B0404593118069S11650624EA0210302154000000000000
B0405033117965S11650605EA0208702135000000000000
B0405073117859S11650586EA0207302117000000000000
B0405113117754S11650566EA0206002106000000000000
B0405153117650S11650549EA0205702108000000000000
B0405193117549S11650533EA0205602102000000000000
B0405233117448S11650517EA0204202085000000000000
B0405273117341S11650500EA0202402067000000000000
B0405313117232S11650487EA0201202054000000000000
B0405353117122S11650471EA0199502037000000000000
B0405393117014S11650457EA0198202026000000000000
B0405433116907S11650439EA0197402019000000000000
B0405473116806S11650421EA0196902015000000000000
B0405513116706S11650403EA0196602011000000000000
B0405553116608S11650383EA0195802002000000000000
B0405593116513S11650366EA0195602004000000000000
B0406033116425S11650349EA0195902005000000000000
B0406073116340S11650331EA0196402011000000000000
B0406113116257S11650315EA0196002003000000000000
B0406153116173S11650304EA0196102009000000000000
B0406193116090S11650293EA0196502011000000000000
B0406233116009S11650283EA0196602017000000000000
B0406273115934S11650276EA0196902011000000000000
B0406313115852S11650267EA0195401993000000000000
B0406353115766S11650260EA0194101985000000000000
B0406393115676S11650252EA0193301977000000000000
B0406433115586S11650243EA0192901975000000000000
B0406473115498S11650234EA0193401984000000000000
B0406513115411S11650230EA0194401992000000000000
B0406553115326S11650224EA0194301989000000000000
B0406593115242S11650223EA0194201986000000000000
B0407033115156S11650223EA0193301974000000000000
B0407073115070S11650226EA0192401969000000000000
B0407113114985S11650228EA0192301964000000000000
B0407153114897S11650232EA0190601945000000000000
B0407193114804S11650230EA0189101931000000000000
B0407233114710S11650226EA0187901918000000000000
B0407273114615S11650218EA0186801909000000000000
B0407313114520S11650208EA0186401904000000000000
B0407353114427S11650193EA0185901898000000000000
B0407393114336S11650175EA0184801891000000000000
B0407433114244S11650156EA0184401885000000000000
B0407473114155S11650139EA0183701879000000000000
B0407513114067S11650120EA0183301876000000000000
B0407553113977S11650101EA0182801868000000000000
B0407593113887S11650087EA0181301850000000000000
B0408033113795S11650075EA0180001837000000000000
B0408073113703S11650065EA0179401834000000000000
B0408113113616S11650067EA0180101842000000000000
B0408153113543S11650096EA0181001846000000000000
B0408193113475S11650135EA0180001826000000000000
B0408233113392S11650156EA0177501801000000000000
B0408273113301S11650158EA0175201782000000000000
B0408313113209S11650146EA0173801772000000000000
B0408353113118S11650132EA0172901759000000000000
B0408393113028S11650119EA0171601744000000000000
B0408433112938S11650102EA0170401734000000000000
B0408473112849S11650085EA0169301724000000000000
B0408513112762S11650074EA0169101725000000000000
B0408553112678S11650062EA0169101725000000000000
B0408593112598S11650050EA0168701714000000000000
B0409033112513S11650032EA0166701691000000000000
B0409073112421S11650014EA0164301671000000000000
B0409113112329S11649993EA0164201681000000000000
B0409153112243S11649966EA0165201689000000000000
B0409193112160S11649940EA0165501689000000000000
B0409233112075S11649912EA0165701692000000000000
B0409273111992S11649885EA0166201699000000000000
B0409313111913S11649860EA0167401712000000000000
B0409353111837S11649862EA0168801729000000000000
B0409393111796S11649914EA0171101756000000000000
B0409433111807S11649980EA0173001766000000000000
B0409473111867S11650013EA0172501755000000000000
B0409513111917S11649964EA0172101753000000000000
B0409553111901S11649892EA0171601751000000000000
B0409593111858S11649836EA0171601755000000000000
B0410033111805S11649792EA0172001759000000000000
B0410073111746S11649775EA0172601763000000000000
B0410113111694S11649799EA0172901765000000000000
B0410153111649S11649847EA0172601761000000000000
B0410193111606S11649905EA0172501759000000000000
B0410233111572S11649970EA0171801751000000000000
B0410273111538S11650041EA0171801752000000000000
B0410313111504S11650114EA0172501769000000000000
B0410353111515S11650182EA0174901794000000000000
B0410393111571S11650176EA0176001794000000000000
B0410433111588S11650102EA0175301789000000000000
B0410473111537S11650055EA0176101805000000000000
B0410513111478S11650071EA0178001823000000000000
B0410553111472S11650133EA0179101832000000000000
B0410593111530S11650137EA0179401832000000000000
B0411033111558S11650068EA0179601835000000000000
B0411073111519S11650007EA0180501849000000000000
B0411113111458S11649994EA0182301867000000000000
B0411153111407S11650035EA0183101872000000000000
B0411193111367S11650098EA0184001883000000000000
B0411233111358S11650174EA0184901893000000000000
B0411273111420S11650200EA0185401897000000000000
B0411313111468S11650135EA0185501901000000000000
B0411353111469S11650050EA0186601912000000000000
B0411393111437S11649975EA0186901917000000000000
B0411433111381S11649924EA0188101930000000000000
B0411473111316S11649922EA0189401946000000000000
B0411513111276S11649970EA0191901971000000000000
B0411553111282S11650032EA0193201978000000000000
B0411593111335S11650066EA0194001989000000000000
B0412033111390S11650036EA0195302001000000000000
B0412073111400S11649964EA0195802009000000000000
B0412113111346S11649928EA0196702025000000000000
B0412153111303S11649971EA0198602048000000000000
B0412193111320S11650031EA0200902063000000000000
B0412233111374S11650052EA0201802074000000000000
B0412273111429S11650016EA0202002069000000000000
B0412313111439S11649944EA0202002074000000000000
B0412353111398S11649888EA0202802083000000000000
B0412393111334S11649880EA0204302099000000000000
B0412433111303S11649931EA0206302120000000000000
B0412473111337S11649981EA0207302125000000000000
B0412513111398S11649962EA0207602132000000000000
B0412553111407S11649889EA0209002152000000000000
B0412593111360S11649841EA0210302165000000000000
B0413033111306S11649859EA0211602177000000000000
B0413073111294S11649923EA0212502176000000000000
B0413113111346S11649953EA0211602166000000000000
B0413153111398S11649894EA0211202173000000000000
B0413193111433S11649815EA0212102181000000000000
B0413233111438S11649730EA0213202190000000000000
B0413273111394S11649663EA0212202173000000000000
B0413313111316S11649630EA0209602147000000000000
B0413353111225S11649621EA0208402141000000000000
B0413393111138S11649617EA0208802142000000000000
B0413433111052S11649613EA0208302131000000000000
B0413473110962S11649600EA0206802116000000000000
B0413513110870S11649581EA0205402108000000000000
B0413553110779S11649556EA0204802100000000000000
B0413593110689S11649530EA0203702088000000000000
B0414033110598S11649500EA0202502076000000000000
B0414073110506S11649470EA0201602068000000000000
B0414113110416S11649438EA0200602057000000000000
B0414153110323S11649409EA0198902041000000000000
B0414193110228S11649385EA0197702022000000000000
B0414233110134S11649364EA0196302013000000000000
B0414273110043S11649346EA0196102012000000000000
B0414313109955S11649327EA0195802008000000000000
B0414353109866S11649311EA0195202000000000000000
B0414393109779S11649295EA0194601995000000000000
B0414433109694S11649279EA0194501996000000000000
B0414473109609S11649262EA0194301991000000000000
B0414513109527S11649248EA0193201978000000000000
B0414553109443S11649234EA0192001959000000000000
B0414593109356S11649216EA0190301944000000000000
B0415033109270S11649194EA0190601937000000000000
B0415073109184S11649169EA0190001938000000000000
B0415113109099S11649145EA0189501935000000000000
B0415153109015S11649122EA0188901932000000000000
B0415193108930S11649099EA0188301925000000000000
B0415233108846S11649073EA0188201926000000000000
B0415273108764S11649049EA0188201924000000000000
B0415313108682S11649026EA0187701913000000000000
B0415353108598S11649004EA0185901890000000000000
B0415393108507S11648974EA0183901875000000000000
B0415433108416S11648943EA0185201904000000000000
B0415473108343S11648952EA0188701939000000000000
B0415513108330S11649008EA0191401960000000000000
B0415553108386S11649027EA0191701960000000000000
B0415593108438S11648975EA0192201969000000000000
B0416033108434S11648895EA0193101979000000000000
B0416073108386S11648845EA0193501983000000000000
B0416113108325S11648849EA0193901987000000000000
B0416153108312S11648902EA0194101988000000000000
B0416193108371S11648908EA0194001988000000000000
B0416233108420S11648840EA0194101993000000000000
B0416273108457S11648757EA0194601993000000000000
B0416313108455S11648667EA0194601993000000000000
B0416353108397S11648609EA0193201968000000000000
B0416393108314S11648585EA0189501934000000000000
B0416433108219S11648571EA0186701909000000000000
B0416473108121S11648560EA0184601893000000000000
B0416513108020S11648551EA0183801881000000000000
B0416553107920S11648546EA0182501868000000000000
B0416593107822S11648547EA0182201867000000000000
B0417033107727S11648554EA0182001867000000000000
B0417073107636S11648567EA0182201869000000000000
B0417113107546S11648592EA0182001860000000000000
B0417153107456S11648615EA0181201854000000000000
B0417193107367S11648635EA0180201841000000000000
B0417233107273S11648646EA0179201835000000000000
B0417273107185S11648654EA0179601840000000000000
B0417313107100S11648657EA0179701836000000000000
B0417353107017S11648658EA0179301834000000000000
B0417393106936S11648655EA0178901829000000000000
B0417433106856S11648649EA0178501824000000000000
B0417473106775S11648641EA0178201819000000000000
B0417513106694S11648632EA0177001805000000000000
B0417553106611S11648623EA0175901798000000000000
B0417593106527S11648612EA0174901785000000000000
B0418033106445S11648598EA0174401782000000000000
B0418073106363S11648583EA0174101779000000000000
B0418113106282S11648567EA0173501773000000000000
B0418153106202S11648555EA0173201769000000000000
B0418193106120S11648545EA0172501760000000000000
B0418233106037S11648536EA0171601754000000000000
B0418273105952S11648528EA0171301752000000000000
B0418313105869S11648523EA0170501740000000000000
B0418353105782S11648518EA0169701732000000000000
B0418393105695S11648514EA0168901723000000000000
B0418433105606S11648506EA0168001716000000000000
B0418473105517S11648497EA0166801705000000000000
B0418513105430S11648489EA0166401701000000000000
B0418553105346S11648486EA0166501701000000000000
B0418593105267S11648495EA0166401703000000000000
B0419033105190S11648507EA0167601711000000000000
B0419073105118S11648531EA0168401719000000000000
B0419113105062S11648581EA0169001724000000000000
B0419153105016S11648641EA0168901720000000000000
B0419193104978S11648709EA0168001707000000000000
B0419233104938S11648779EA0166401689000000000000
B0419273104872S11648827EA0164901675000000000000
B0419313104789S11648845EA0164201670000000000000
B0419353104702S11648843EA0163801662000000000000
B0419393104616S11648827EA0162501650000000000000
B0419433104530S11648805EA0160801632000000000000
B0419473104443S11648779EA0159501623000000000000
B0419513104357S11648752EA0158401611000000000000
B0419553104271S11648720EA0157801606000000000000
B0419593104188S11648690EA0156801592000000000000
B0420033104102S11648658EA0155001574000000000000
B0420073104015S11648623EA0153901558000000000000
B0420113103927S11648588EA0152001540000000000000
B0420153103836S11648555EA0150001523000000000000
B0420193103743S11648532EA0149101515000000000000
B0420233103652S11648511EA0148001505000000000000
B0420273103563S11648498EA0147601500000000000000
B0420313103473S11648485EA0146601489000000000000
B0420353103383S11648477EA0145601479000000000000
B0420393103294S11648469EA0144801466000000000000
B0420433103204S11648459EA0143701456000000000000
B0420473103116S11648445EA0143001449000000000000
B0420513103028S11648430EA0142001439000000000000
B0420553102940S11648416EA0140601426000000000000
B0420593102849S11648399EA0139701419000000000000
B0421033102762S11648384EA0139701422000000000000
B0421073102677S11648368EA0139701417000000000000
B0421113102594S11648360EA0139301414000000000000
B0421153102514S11648359EA0139001412000000000000
B0421193102438S11648360EA0138901406000000000000
B0421233102362S11648354EA0137801390000000000000
B0421273102282S11648330EA0137201389000000000000
B0421313102206S11648297EA0137201389000000000000
B0421353102134S11648259EA0137801400000000000000
B0421393102064S11648238EA0138801414000000000000
B0421433102029S11648289EA0141101441000000000000
B0421473102081S11648338EA0143101459000000000000
B0421513102148S11648308EA0144501474000000000000
B0421553102159S11648239EA0146101484000000000000
B0421593102120S11648222EA0146501490000000000000
B0422033102099S11648272EA0147001496000000000000
B0422073102139S11648323EA0148201511000000000000
B0422113102199S11648310EA0149601523000000000000
B0422153102229S11648243EA0150001526000000000000
B0422193102211S11648181EA0150901538000000000000
B0422233102169S11648186EA0151401541000000000000
B0422273102161S11648248EA0151701543000000000000
B0422313102212S11648298EA0152301557000000000000
B0422353102278S11648277EA0153801571000000000000
B0422393102307S11648206EA0154401574000000000000
B0422433102286S11648135EA0154501578000000000000
B0422473102237S11648117EA0155201586000000000000
B0422513102202S11648157EA0155901589000000000000
B0422553102204S11648229EA0156301593000000000000
B0422593102225S11648302EA0157001602000000000000
B0423033102295S11648308EA0158001613000000000000
B0423073102319S11648233EA0158801621000000000000
B0423113102285S11648170EA0159601628000000000000
B0423153102232S11648167EA0160301637000000000000
B0423193102224S11648235EA0161301647000000000000
B0423233102286S11648278EA0161501651000000000000
B0423273102347S11648225EA0162501665000000000000
B0423313102338S11648151EA0164001679000000000000
B0423353102293S11648131EA0165401695000000000000
B0423393102274S11648183EA0166901707000000000000
B0423433102325S11648226EA0167001707000000000000
B0423473102389S11648187EA0167401713000000000000
B0423513102415S11648111EA0168601724000000000000
B0423553102388S11648059EA0169801739000000000000
B0423593102352S11648082EA0170401746000000000000
B0424033102380S11648141EA0171301756000000000000
B0424073102450S11648133EA0171901759000000000000
B0424113102479S11648059EA0172201764000000000000
B0424153102447S11647999EA0173001773000000000000
B0424193102399S11648004EA0173801780000000000000
B0424233102390S11648066EA0174301783000000000000
B0424273102442S11648115EA0174801787000000000000
B0424313102514S11648096EA0175201795000000000000
B0424353102546S11648026EA0176301805000000000000
B0424393102527S11647962EA0176901809000000000000
B0424433102479S11647944EA0177101809000000000000
B0424473102438S11647982EA0177001810000000000000
B0424513102434S11648053EA0176701801000000000000
B0424553102436S11648139EA0174701769000000000000
B0424593102389S11648228EA0171801749000000000000
B0425033102312S11648290EA0171201747000000000000
B0425073102225S11648323EA0171301750000000000000
B0425113102134S11648332EA0171501752000000000000
B0425153102044S11648325EA0171601756000000000000
B0425193101955S11648308EA0171901757000000000000
B0425233101866S11648293EA0172601768000000000000
B0425273101780S11648277EA0173001768000000000000
B0425313101693S11648267EA0172601762000000000000
B0425353101610S11648274EA0172401759000000000000
B0425393101531S11648306EA0172001758000000000000
B0425433101449S11648329EA0172601769000000000000
B0425473101372S11648359EA0173701773000000000000
B0425513101297S11648394EA0172801755000000000000
B0425553101214S11648424EA0170501731000000000000
B0425593101125S11648438EA0168601715000000000000
B0426033101036S11648440EA0167601707000000000000
B0426073100947S11648432EA0166901697000000000000
B0426113100860S11648412EA0166001688000000000000
B0426153100773S11648389EA0165201682000000000000
B0426193100687S11648367EA0165101680000000000000
B0426233100603S11648347EA0164301671000000000000
B0426273100518S11648323EA0163201661000000000000
B0426313100431S11648297EA0161801647000000000000
B0426353100343S11648268EA0160501633000000000000
B0426393100254S11648242EA0159601624000000000000
B0426433100166S11648217EA0159001616000000000000
B0426473100079S11648196EA0158301613000000000000
B0426513059994S11648176EA0158101611000000000000
B0426553059910S11648156EA0157901609000000000000
B0426593059829S11648137EA0157801606000000000000
B0427033059749S11648118EA0157301599000000000000
B0427073059668S11648096EA0156201588000000000000
B0427113059586S11648074EA0155301576000000000000
B0427153059502S11648052EA0154201564000000000000
B0427193059416S11648030EA0153301561000000000000
B0427233059330S11648030EA0153701562000000000000
B0427273059247S11648047EA0153101554000000000000
B0427313059162S11648066EA0153301562000000000000
B0427353059115S11648121EA0155501585000000000000
B0427393059152S11648167EA0156501587000000000000
B0427433059205S11648107EA0155001574000000000000
B0427473059238S11648017EA0154601572000000000000
B0427513059264S11647922EA0154901576000000000000
B0427553059284S11647827EA0155301580000000000000
B0427593059286S11647731EA0155501580000000000000
B0428033059243S11647652EA0155301582000000000000
B0428073059177S11647611EA0156701597000000000000
B0428113059106S11647609EA0157001598000000000000
B0428153059047S11647639EA0157001595000000000000
B0428193059006S11647695EA0156401588000000000000
B0428233058983S11647761EA0155501581000000000000
B0428273058969S11647834EA0154601569000000000000
B0428313058931S11647904EA0151901534000000000000
B0428353058854S11647944EA0149201511000000000000
B0428393058766S11647955EA0148101499000000000000
B0428433058677S11647949EA0147001491000000000000
B0428473058592S11647934EA0146601489000000000000
B0428513058508S11647914EA0145701474000000000000
B0428553058426S11647894EA0144301460000000000000
B0428593058343S11647869EA0142401438000000000000
B0429033058261S11647843EA0141001430000000000000
B0429073058182S11647817EA0140501422000000000000
B0429113058105S11647796EA0140401428000000000000
B0429153058031S11647786EA0141501438000000000000
B0429193057964S11647800EA0143101455000000000000
B0429233057913S11647845EA0144201471000000000000
B0429273057900S11647912EA0146801499000000000000
B0429313057957S11647935EA0148901515000000000000
B0429353057992S11647871EA0149801525000000000000
B0429393057958S11647821EA0151001544000000000000
B0429433057914S11647843EA0152701563000000000000
B0429473057922S11647903EA0154201578000000000000
B0429513057982S11647917EA0155301586000000000000
B0429553058022S11647857EA0155901599000000000000
B0429593057997S11647797EA0157201612000000000000
B0430033057948S11647813EA0158501627000000000000
B0430073057949S11647875EA0160501649000000000000
B0430113058003S11647896EA0162201661000000000000
B0430153058051S11647847EA0162401666000000000000
B0430193058040S11647777EA0163101680000000000000
B0430233057994S11647761EA0164701691000000000000
B0430273057961S11647812EA0165501701000000000000
B0430313057987S11647869EA0167201721000000000000
B0430353058047S11647866EA0168901731000000000000
B0430393058082S11647805EA0169501733000000000000
B0430433058066S11647735EA0169701743000000000000
B0430473058014S11647708EA0170901754000000000000
B0430513057977S11647753EA0172301767000000000000
B0430553058003S11647814EA0174001785000000000000
B0430593058066S11647825EA0175301796000000000000
B0431033058118S11647774EA0175601798000000000000
B0431073058121S11647695EA0176001806000000000000
B0431113058072S11647661EA0177501824000000000000
B0431153058033S11647705EA0178901837000000000000
B0431193058069S11647760EA0180601856000000000000
B0431233058129S11647735EA0182501870000000000000
B0431273058139S11647662EA0183401880000000000000
B0431313058098S11647622EA0184601894000000000000
B0431353058047S11647643EA0185501905000000000000
B0431393058044S11647706EA0187101920000000000000
B0431433058098S11647743EA0188401931000000000000
B0431473058159S11647710EA0189101939000000000000
B0431513058169S11647639EA0189901953000000000000
B0431553058130S11647592EA0190601962000000000000
B0431593058079S11647602EA0191601971000000000000
B0432033058068S11647663EA0193001986000000000000
B0432073058117S11647701EA0193801990000000000000
B0432113058174S11647662EA0194402000000000000000
B0432153058183S11647589EA0194802005000000000000
B0432193058139S11647540EA0195002006000000000000
B0432233058079S11647535EA0195702015000000000000
B0432273058062S11647593EA0197402035000000000000
B0432313058116S11647619EA0198502046000000000000
B0432353058169S11647575EA0199202055000000000000
B0432393058163S11647507EA0200702064000000000000
B0432433058112S11647483EA0200802065000000000000
B0432473058065S11647517EA0201302072000000000000
B0432513058068S11647579EA0202802087000000000000
B0432553058127S11647602EA0203302088000000000000
B0432593058182S11647552EA0203802097000000000000
B0433033058182S11647478EA0205502113000000000000
B0433073058140S11647436EA0206202117000000000000
B0433113058079S11647437EA0205402104000000000000
B0433153058005S11647440EA0204602101000000000000
B0433193057927S11647440EA0204902110000000000000
B0433233057848S11647444EA0205302106000000000000
B0433273057762S11647446EA0204002085000000000000
B0433313057672S11647448EA0201802064000000000000
B0433353057581S11647446EA0200002046000000000000
B0433393057490S11647444EA0198202028000000000000
B0433433057399S11647441EA0196602010000000000000
B0433473057307S11647439EA0195001993000000000000
B0433513057214S11647435EA0193301974000000000000
B0433553057116S11647423EA0191401954000000000000
B0433593057019S11647410EA0190701948000000000000
B0434033056921S11647397EA0189701940000000000000
B0434073056824S11647383EA0188801931000000000000
B0434113056726S11647367EA0188201930000000000000
B0434153056631S11647354EA0188701936000000000000
B0434193056538S11647342EA0188901936000000000000
B0434233056447S11647332EA0188701933000000000000
B0434273056357S11647323EA0188701936000000000000
B0434313056268S11647314EA0189001936000000000000
B0434353056180S11647309EA0188601926000000000000
B0434393056090S11647302EA0187301910000000000000
B0434433055998S11647290EA0185801896000000000000
B0434473055907S11647279EA0184901891000000000000
B0434513055816S11647270EA0184201883000000000000
B0434553055725S11647259EA0183301871000000000000
B0434593055634S11647249EA0182001858000000000000
B0435033055542S11647240EA0180601844000000000000
B0435073055449S11647232EA0180201841000000000000
B0435113055358S11647223EA0179901837000000000000
B0435153055269S11647215EA0179601834000000000000
B0435193055176S11647210EA0178701824000000000000
B0435233055083S11647202EA0177901816000000000000
B0435273054989S11647193EA0177101809000000000000
B0435313054897S11647184EA0177601817000000000000
B0435353054807S11647172EA0179101834000000000000
B0435393054719S11647160EA0180301843000000000000
B0435433054629S11647151EA0180801850000000000000
B0435473054537S11647141EA0180601843000000000000
B0435513054441S11647132EA0179401830000000000000
B0435553054343S11647128EA0178101816000000000000
B0435593054244S11647123EA0176801806000000000000
B0436033054144S11647117EA0175501790000000000000
B0436073054044S11647112EA0173601771000000000000
B0436113053943S11647111EA0171601752000000000000
B0436153053840S11647111EA0170101737000000000000
B0436193053739S11647115EA0169401729000000000000
B0436233053639S11647123EA0168801723000000000000
B0436273053541S11647132EA0168101716000000000000
B0436313053447S11647142EA0167501710000000000000
B0436353053356S11647154EA0167301709000000000000
B0436393053267S11647164EA0166801701000000000000
B0436433053176S11647173EA0165901691000000000000
B0436473053086S11647179EA0165201681000000000000
B0436513052994S11647184EA0163401660000000000000
B0436553052899S11647185EA0162201651000000000000
B0436593052805S11647182EA0161501646000000000000
B0437033052713S11647181EA0161401645000000000000
B0437073052622S11647177EA0161501645000000000000
B0437113052530S11647171EA0160101624000000000000
B0437153052435S11647167EA0158301610000000000000
B0437193052342S11647166EA0157101598000000000000
B0437233052249S11647163EA0156001586000000000000
B0437273052157S11647162EA0155301579000000000000
B0437313052063S11647162EA0154501567000000000000
B0437353051965S11647163EA0152801549000000000000
B0437393051871S11647163EA0152601556000000000000
B0437433051781S11647164EA0153001557000000000000
B0437473051694S11647167EA0153301557000000000000
B0437513051608S11647173EA0152501541000000000000
B0437553051517S11647185EA0149601506000000000000
B0437593051418S11647205EA0146501484000000000000
B0438033051318S11647227EA0145401477000000000000
B0438073051231S11647272EA0145801481000000000000
B0438113051158S11647331EA0145801486000000000000
B0438153051091S11647388EA0146801490000000000000
B0438193051031S11647449EA0146301481000000000000
B0438233050963S11647506EA0144701454000000000000
B0438273050881S11647549EA0142201432000000000000
B0438313050793S11647576EA0140801418000000000000
B0438353050703S11647595EA0139301408000000000000
B0438393050613S11647617EA0138401393000000000000
B0438433050524S11647634EA0137401382000000000000
B0438473050433S11647643EA0136101363000000000000
B0438513050342S11647644EA0134101348000000000000
B0438553050251S11647641EA0132801334000000000000
B0438593050160S11647635EA0131201317000000000000
B0439033050067S11647626EA0129501301000000000000
B0439073049978S11647611EA0129001301000000000000
B0439113049893S11647608EA0129401305000000000000
B0439153049822S11647636EA0130401318000000000000
B0439193049771S11647688EA0131601332000000000000
B0439233049741S11647758EA0132701340000000000000
B0439273049720S11647834EA0133301345000000000000
B0439313049694S11647910EA0133701349000000000000
B0439353049668S11647988EA0133401345000000000000
B0439393049648S11648070EA0133301346000000000000
B0439433049635S11648154EA0134101360000000000000
B0439473049690S11648181EA0136401373000000000000
B0439513049696S11648120EA0139201386000000000000
B0439553049641S11648102EA0140601403000000000000
B0439593049614S11648151EA0141301413000000000000
B0440033049655S11648191EA0143201437000000000000
B0440073049710S11648157EA0144901448000000000000
B0440113049709S11648082EA0146201470000000000000
B0440153049658S11648043EA0148001486000000000000
B0440193049612S11648076EA0148801494000000000000
B0440233049632S11648133EA0150201513000000000000
B0440273049688S11648147EA0152201536000000000000
B0440313049735S11648107EA0153701552000000000000
B0440353049718S11648040EA0154601562000000000000
B0440393049661S11648039EA0155301571000000000000
B0440433049654S11648100EA0156101581000000000000
B0440473049710S11648116EA0157301595000000000000
B0440513049755S11648069EA0158401610000000000000
B0440553049752S11648003EA0159701620000000000000
B0440593049701S11647970EA0159701619000000000000
B0441033049633S11647973EA0159401615000000000000
B0441073049580S11648020EA0159301618000000000000
B0441113049568S11648099EA0160401636000000000000
B0441153049615S11648135EA0162701662000000000000
B0441193049649S11648079EA0164701681000000000000
B0441233049606S11648031EA0166501701000000015000
B0441273049557S11648064EA0168401725000000015000
B0441313049567S11648122EA0170901748000000000000
B0441353049622S11648131EA0172201761000000000000
B0441393049653S11648079EA0173701777000000015000
B0441433049623S11648022EA0175001789000000000000
B0441473049563S11648025EA0176101802000000000000
B0441513049549S11648089EA0178001824000000000000
B0441553049601S11648115EA0179401836000000000000
B0441593049642S11648061EA0180301852000000015000
B0442033049623S11647995EA0182401871000000015000
B0442073049563S11647986EA0183501885000000015000
B0442113049519S11648035EA0184801898000000015000
B0442153049532S11648098EA0186501921000000015000
B0442193049589S11648090EA0188601937000000000000
B0442233049607S11648022EA0190001953000000000000
B0442273049559S11647975EA0191601969000000000000
B0442313049497S11648000EA0192301975000000000000
B0442353049494S11648068EA0194402002000000000000
B0442393049546S11648078EA0197002024000000000000
B0442433049579S11648024EA0198202036000000000000
B0442473049550S11647957EA0199102045000000000000
B0442513049485S11647946EA0200502060000000000000
B0442553049442S11647996EA0201702075000000000000
B0442593049463S11648056EA0203202089000000000000
B0443033049518S11648043EA0204702108000000000000
B0443073049521S11647974EA0206302120000000000000
B0443113049463S11647935EA0206902129000000000000
B0443153049399S11647968EA0208002140000000000000
B0443193049393S11648037EA0209802163000000000000
B0443233049443S11648053EA0211802180000000000000
B0443273049472S11647999EA0213402198000000000000
B0443313049438S11647940EA0214302201000000000000
B0443353049369S11647939EA0214702209000000000000
B0443393049316S11647992EA0216002221000000000000
B0443433049332S11648056EA0217702241000000000000
B0443473049382S11648037EA0219702262000000000000
B0443513049380S11647966EA0221602280000000000000
B0443553049321S11647933EA0222702296000000000000
B0443593049265S11647977EA0224002306000000000000
B0444033049272S11648048EA0224602314000000000000
B0444073049328S11648070EA0225502323000000000000
B0444113049376S11648025EA0226902340000000000000
B0444153049376S11647947EA0228602353000000000000
B0444193049323S11647894EA0229302362000000000000
B0444233049250S11647903EA0230202368000000000000
B0444273049198S11647966EA0229702362000000000000
B0444313049200S11648043EA0230602373000000000000
B0444353049252S11648063EA0231602381000000000000
B0444393049295S11648020EA0232102389000000000000
B0444433049310S11647947EA0233002399000000000000
B0444473049264S11647886EA0233802410000000000000
B0444513049196S11647910EA0234702418000000000000
B0444553049187S11647985EA0235102421000000000000
B0444593049234S11648031EA0235102420000000000000
B0445033049297S11648024EA0235802430000000000000
B0445073049317S11647962EA0237102445000000000000
B0445113049267S11647917EA0238302451000000000000
B0445153049203S11647952EA0238202447000000000000
B0445193049194S11648035EA0238202448000000000000
B0445233049242S11648082EA0239202463000000000000
B0445273049299S11648065EA0240402474000000000000
B0445313049326S11648004EA0240902477000000000000
B0445353049307S11647931EA0241402482000000000000
B0445393049243S11647888EA0241202480000000000000
B0445433049160S11647873EA0240802478000000000000
B0445473049070S11647865EA0239702466000000000000
B0445513048975S11647862EA0238802457000000000000
B0445553048879S11647861EA0237502446000000000000
B0445593048783S11647860EA0237002440000000000000
B0446033048692S11647860EA0236602440000000000000
B0446073048605S11647868EA0237202443000000000000
B0446113048519S11647875EA0236402429000000000000
B0446153048431S11647878EA0234702411000000000000
B0446193048337S11647873EA0232602390000000000000
B0446233048244S11647866EA0231902388000000000000
B0446273048151S11647861EA0231402381000000000000
B0446313048058S11647855EA0230502372000000000000
B0446353047963S11647848EA0229402359000000000000
B0446393047865S11647836EA0228502350000000000000
B0446433047768S11647814EA0227702339000000000000
B0446473047673S11647786EA0226302324000000000000
B0446513047577S11647756EA0225202321000000000000
B0446553047483S11647726EA0225302322000000000000
B0446593047395S11647696EA0225402322000000000000
B0447033047308S11647669EA0225102316000000000000
B0447073047220S11647643EA0224202304000000000000
B0447113047135S11647618EA0222802287000000000000
B0447153047048S11647591EA0220702267000000000000
B0447193046959S11647565EA0219902263000000000000
B0447233046873S11647539EA0220302269000000000000
B0447273046786S11647513EA0220902275000000000000
B0447313046699S11647487EA0221002269000000000000
B0447353046608S11647458EA0220502269000000000000
B0447393046520S11647429EA0220902269000000000000
B0447433046430S11647401EA0219302248000000000000
B0447473046336S11647377EA0218002234000000000000
B0447513046242S11647353EA0217302232000000000000
B0447553046148S11647327EA0216902227000000000000
B0447593046056S11647302EA0216402218000000000000
B0448033045963S11647277EA0215802215000000000000
B0448073045874S11647257EA0215902215000000000000
B0448113045784S11647237EA0215202207000000000000
B0448153045696S11647220EA0214602200000000000000
B0448193045606S11647203EA0213802194000000000000
B0448233045517S11647185EA0213102185000000000000
B0448273045428S11647166EA0212002172000000000000
B0448313045335S11647147EA0210802160000000000000
B0448353045242S11647127EA0209702145000000000000
B0448393045148S11647103EA0208602135000000000000
B0448433045053S11647081EA0207702127000000000000
B0448473044957S11647062EA0207002120000000000000
B0448513044864S11647039EA0207102122000000000000
B0448553044774S11647017EA0207202122000000000000
B0448593044684S11646998EA0206402110000000000000
B0449033044593S11646978EA0205502105000000000000
B0449073044506S11646959EA0205602107000000000000
B0449113044422S11646942EA0205602106000000000000
B0449153044337S11646924EA0205202098000000000000
B0449193044251S11646908EA0204302088000000000000
B0449233044163S11646895EA0203302075000000000000
B0449273044073S11646883EA0201802064000000000000
B0449313043985S11646868EA0200902053000000000000
B0449353043894S11646848EA0199802043000000000000
B0449393043804S11646826EA0199202033000000000000
B0449433043713S11646805EA0197702021000000000000
B0449473043625S11646785EA0197102013000000000000
B0449513043534S11646764EA0196402006000000000000
B0449553043443S11646743EA0195601995000000000000
B0449593043348S11646721EA0193901978000000000000
B0450033043250S11646700EA0192401962000000000000
B0450073043150S11646682EA0191301954000000000000
B0450113043050S11646664EA0190201939000000000000
B0450153042946S11646644EA0189101933000000000000
B0450193042845S11646626EA0189201935000000000000
B0450233042747S11646609EA0189501944000000000000
B0450273042656S11646594EA0190001940000000000000
B0450313042565S11646578EA0189101929000000000000
B0450353042474S11646562EA0188201923000000000000
B0450393042386S11646544EA0188101922000000000000
B0450433042300S11646527EA0187501912000000000000
B0450473042213S11646509EA0186201902000000000000
B0450513042126S11646491EA0185901902000000000000
B0450553042044S11646475EA0186201902000000000000
B0450593041963S11646457EA0185801897000000000000
B0451033041879S11646439EA0185001889000000000000
B0451073041793S11646421EA0184701890000000000000
B0451113041711S11646399EA0184701891000000000000
B0451153041630S11646379EA0185001895000000000000
B0451193041551S11646361EA0184801886000000000000
B0451233041469S11646344EA0183301868000000000000
B0451273041382S11646326EA0181401852000000000000
B0451313041295S11646309EA0180501843000000000000
B0451353041204S11646291EA0178801820000000000000
B0451393041110S11646272EA0178101824000000000000
B0451433041022S11646253EA0178401822000000000000
B0451473040931S11646232EA0177101809000000000000
B0451513040837S11646213EA0177201816000000000000
B0451553040749S11646206EA0177601818000000000000
B0451593040678S11646240EA0178401825000000000000
B0452033040609S11646283EA0177701809000000000000
B0452073040529S11646319EA0176201790000000000000
B0452113040440S11646343EA0174101771000000000000
B0452153040341S11646354EA0172001751000000000000
B0452193040239S11646357EA0170401741000000000000
B0452233040137S11646353EA0169701737000000000000
B0452273040037S11646347EA0169501734000000000000
B0452313039938S11646336EA0169001721000000000000
B0452353039839S11646321EA0166901698000000000000
B0452393039739S11646305EA0165501686000000000000
B0452433039639S11646289EA0164101669000000000000
B0452473039537S11646269EA0162301651000000000000
B0452513039436S11646248EA0161501647000000000000
B0452553039339S11646228EA0162501665000000000000
B0452593039250S11646223EA0164801687000000000000
B0453033039198S11646274EA0167501718000000000000
B0453073039237S11646323EA0170201739000000000000
B0453113039290S11646284EA0171601752000000000000
B0453153039280S11646214EA0173201767000000000000
B0453193039228S11646188EA0173901771000000000000
B0453233039193S11646227EA0174601780000000000000
B0453273039222S11646279EA0175501786000000000000
B0453313039285S11646272EA0176001796000000000000
B0453353039307S11646207EA0178001817000000000000
