ACAM4N6
HFDTE010121
HFFXA050
HFPLTPILOT:JOHN WELSH              
HFGTYGLIDERTYPE:HORNET      
HFGIDGLIDERID:VH-GMY      
HFDTM100GPSDATUM:
HFRFWFIRMWAREVERSION:F2.6
HFRHWHARDWAREVERSION:300 Series Version 2
HFFTYFRTYPE:CAMBRIDGE AERO INSTRUMENTS, 302+
HFGPS:GARMIN,LVS-25,12,18000
HFPRSPRESSALTSENSOR:INTERSEMA, MS5534-AP, 20000
I033638FXA3941ENL4247REX
LCAMSBVER:5FWVER:F26300
C010121052340010121000102
C0000000N00000000WTAKEOFF     
C3207549S11656849EBEVERLEY AF 
C3301433S11652382EWilliams    
C3220283S11752282ECorrigin    
C3207549S11656849EBEVERLEY AF 
C0000000N00000000WLANDING     
B0526223207339S11656860EA0023600210000000000000
B0526243207339S11656860EA0023600210000000000000
B0526263207339S11656860EA0023500210000000000000
B0526283207339S11656860EA0023500210000000000000
B0526303207339S11656860EA0023500210000000000000
B0526323207339S11656860EA0023500211000000000000
B0526343207339S11656860EA0023500211000000000000
B0526363207339S11656860EA0023600211000000000000
B0526383207339S11656860EA0023500211000000000000
B0526403207339S11656860EA0023600211000000000000
B0526423207339S11656860EA0023500211000000000000
B0526443207339S11656860EA0023600211000000000000
B0526463207339S11656860EA0023500211000000000000
B0526483207341S11656861EA0023500211000000000000
B0526503207343S11656862EA0023500212000000000000
B0526533207354S11656871EA0023500212000000000000
B0526573207381S11656892EA0023600212000000000000
B0527013207423S11656919EA0023700212000000000000
B0527053207476S11656953EA0023900214000000000000
B0527093207529S11656991EA0024400221000000000000
B0527133207583S11657030EA0025300236000000000000
B0527173207633S11657070EA0026400252000000000000
B0527213207681S11657112EA0028200273000000000000
B0527253207729S11657155EA0029700288000000000000
B0527293207779S11657200EA0031000302000000000000
B0527333207827S11657243EA0032400317000000000000
B0527373207878S11657286EA0033900335000000000000
B0527413207930S11657329EA0035800354000000000000
B0527453207980S11657372EA0038000383000000000000
B0527493208034S11657408EA0040500403000000000000
B0527533208088S11657437EA0042600426000000000000
B0527573208144S11657463EA0044600451000000000000
B0528013208200S11657488EA0046900473000000000000
B0528053208256S11657507EA0048900493000000000000
B0528093208313S11657525EA0050500506000000000000
B0528133208370S11657543EA0051700522000000000000
B0528173208431S11657555EA0053200536000000000000
B0528213208493S11657563EA0054700553000000000000
B0528253208554S11657567EA0056000565000000000000
B0528293208617S11657576EA0057100574000000000000
B0528333208681S11657588EA0058200586000000000000
B0528373208747S11657594EA0059300600000000000000
B0528413208812S11657597EA0061600630000000000000
B0528453208875S11657603EA0064500664000000000000
B0528493208931S11657612EA0067800696000000000000
B0528533208981S11657595EA0070300720000000000000
B0528573208994S11657529EA0072300737000000000000
B0529013208941S11657477EA0073400744000000000000
B0529053208883S11657508EA0074400756000000000000
B0529093208893S11657556EA0075300763000000000000
B0529133208936S11657530EA0076100774000000000000
B0529173208923S11657455EA0077400788000000000000
B0529213208858S11657425EA0078700800000000000000
B0529253208806S11657468EA0079900810000000000000
B0529293208816S11657520EA0080800816000000015000
B0529333208858S11657497EA0081100821000000015000
B0529373208841S11657420EA0081500827000000015000
B0529413208772S11657394EA0082800840000000015000
B0529453208751S11657450EA0083700849000000015000
B0529493208793S11657465EA0084500859000000015000
B0529533208823S11657408EA0085300864000000015000
B0529573208793S11657332EA0085700875000000015000
B0530013208721S11657313EA0087000886000000015000
B0530053208672S11657363EA0087600891000000015000
B0530093208690S11657413EA0088500904000000015000
B0530133208733S11657385EA0089200903000000015000
B0530173208727S11657302EA0089400913000000015000
B0530213208665S11657248EA0090900929000000015000
B0530253208595S11657264EA0092200940000000015000
B0530293208574S11657324EA0092700941000000015000
B0530333208612S11657350EA0093300951000000015000
B0530373208650S11657313EA0093700953000000015000
B0530413208643S11657234EA0094300962000000015000
B0530453208582S11657182EA0095700977000000015000
B0530493208512S11657192EA0096700985000000015000
B0530533208483S11657248EA0097100989000000015000
B0530573208507S11657293EA0097400992000000015000
B0531013208554S11657298EA0097100986000000015000
B0531053208603S11657263EA0096900988000000015000
B0531093208613S11657186EA0098101009000000015000
B0531133208555S11657137EA0099901018000000015000
B0531173208493S11657165EA0100101016000000015000
B0531213208485S11657231EA0100101020000000015000
B0531253208528S11657251EA0100801030000000015000
B0531293208550S11657186EA0101801042000000015000
B0531333208503S11657122EA0103101054000000015000
B0531373208434S11657116EA0103401049000000015000
B0531413208398S11657173EA0102701049000000015000
B0531453208418S11657222EA0103601058000000015000
B0531493208460S11657239EA0103501054000000015000
B0531533208509S11657234EA0103101046000000015000
B0531573208561S11657222EA0103101055000000000000
B0532013208603S11657187EA0104301066000000000000
B0532053208587S11657111EA0104901071000000000000
B0532093208517S11657070EA0105101076000000000000
B0532133208444S11657086EA0106001084000000000000
B0532173208425S11657148EA0106701089000000015000
B0532213208459S11657178EA0107201093000000015000
B0532253208496S11657135EA0107501094000000015000
B0532293208478S11657053EA0107601099000000015000
B0532333208409S11657031EA0109901129000000015000
B0532373208376S11657079EA0110701126000000015000
B0532413208403S11657112EA0110301128000000015000
B0532453208438S11657073EA0110901131000000015000
B0532493208420S11656999EA0111501139000000015000
B0532533208357S11656966EA0112401156000000015000
B0532573208316S11657007EA0113901163000000015000
B0533013208339S11657040EA0113901164000000015000
B0533053208370S11657000EA0114501170000000015000
B0533093208344S11656925EA0114301166000000015000
B0533133208274S11656897EA0114701175000000015000
B0533173208246S11656947EA0115701181000000015000
B0533213208287S11656956EA0116001187000000015000
B0533253208308S11656891EA0117101201000000015000
B0533293208265S11656827EA0118201212000000015000
B0533333208200S11656831EA0119201219000000015000
B0533373208186S11656887EA0119701225000000015000
B0533413208227S11656903EA0120501235000000015000
B0533453208253S11656840EA0121101242000000015000
B0533493208208S11656773EA0122301255000000015000
B0533533208136S11656775EA0122701256000000015000
B0533573208106S11656836EA0123101265000000015000
B0534013208130S11656884EA0124101275000000015000
B0534053208178S11656875EA0124701273000000015000
B0534093208201S11656804EA0124101271000000015000
B0534133208173S11656723EA0124901287000000015000
B0534173208113S11656671EA0126201299000000015000
B0534213208039S11656657EA0126601297000000015000
B0534253207970S11656678EA0126801300000000000000
B0534293207924S11656734EA0127201305000000000000
B0534333207927S11656791EA0128201316000000015000
B0534373207963S11656771EA0128401313000000015000
B0534413207949S11656695EA0128501319000000015000
B0534453207882S11656649EA0129101323000000015000
B0534493207809S11656674EA0129601333000000015000
B0534533207772S11656732EA0130601338000000015000
B0534573207779S11656791EA0130101332000000015000
B0535013207815S11656838EA0128201324000000015000
B0535053207859S11656882EA0126001298000000000000
B0535093207909S11656923EA0125501300000000000000
B0535133207961S11656957EA0125301297000000000000
B0535173208014S11656982EA0125701302000000000000
B0535213208069S11657001EA0126501311000000000000
B0535253208121S11657000EA0128001325000000000000
B0535293208131S11656930EA0128901331000000000000
B0535333208069S11656879EA0129301333000000000000
B0535373208006S11656914EA0129301330000000000000
B0535413208002S11656983EA0129601336000000015000
B0535453208036S11657025EA0130401347000000015000
B0535493208083S11657007EA0131101352000000015000
B0535533208099S11656932EA0131901364000000015000
B0535573208067S11656856EA0132701363000000015000
B0536013207996S11656814EA0132501361000000015000
B0536053207923S11656836EA0132501360000000000000
B0536093207889S11656904EA0132801365000000000000
B0536133207909S11656958EA0133301370000000000000
B0536173207958S11656979EA0133401370000000000000
B0536213208014S11656981EA0134501386000000000000
B0536253208069S11656968EA0136101407000000000000
B0536293208083S11656901EA0138401430000000000000
B0536333208041S11656838EA0139201426000000000000
B0536373207962S11656823EA0139201430000000000000
B0536413207900S11656864EA0139801437000000000000
B0536453207888S11656929EA0140701449000000000000
B0536493207930S11656951EA0142001461000000000000
B0536533207934S11656880EA0143501478000000000000
B0536573207861S11656853EA0144801488000000000000
B0537013207813S11656916EA0145301495000000000000
B0537053207839S11656970EA0146801511000000000000
B0537093207893S11656957EA0147501512000000000000
B0537133207922S11656877EA0147501518000000000000
B0537173207880S11656789EA0149701545000000000000
B0537213207796S11656747EA0150801548000000000000
B0537253207701S11656736EA0150801549000000000000
B0537293207607S11656740EA0151101553000000000000
B0537333207518S11656756EA0151201553000000000000
B0537373207433S11656787EA0151101551000000000000
B0537413207378S11656851EA0151601558000000000000
B0537453207341S11656919EA0151901557000000000000
B0537493207349S11656981EA0151201545000000000000
B0537533207399S11657003EA0149201533000000000000
B0537573207458S11657005EA0147401512000000000000
B0538013207524S11657004EA0144501478000000000000
B0538053207601S11657005EA0142101448000000000000
B0538093207680S11657007EA0140101441000000000000
B0538133207755S11657009EA0140101444000000000000
B0538173207830S11657012EA0140201444000000000000
B0538213207902S11657009EA0140101440000000000000
B0538253207978S11657005EA0140301448000000000000
B0538293208053S11656999EA0141601463000000000000
B0538333208125S11656991EA0143101477000000000000
B0538373208194S11656982EA0143501478000000000000
B0538413208261S11656975EA0143001468000000000000
B0538453208326S11656974EA0142301463000000000000
B0538493208389S11656981EA0141401451000000000000
B0538533208454S11656986EA0140801449000000000000
B0538573208519S11656990EA0140601447000000000000
B0539013208587S11656995EA0139001421000000000000
B0539053208663S11657001EA0136701398000000000000
B0539093208738S11657010EA0135501391000000000000
B0539133208810S11657023EA0135401390000000000000
B0539173208879S11657035EA0135001389000000000000
B0539213208946S11657046EA0135601398000000000000
B0539253209007S11657047EA0136301403000000000000
B0539293209070S11657051EA0136301399000000000000
B0539333209136S11657057EA0135401386000000000000
B0539373209209S11657068EA0134501379000000000000
B0539413209279S11657079EA0135001396000000000000
B0539453209341S11657087EA0137301416000000000000
B0539493209401S11657090EA0138601426000000000000
B0539533209464S11657092EA0138601422000000000000
B0539573209534S11657095EA0137701413000000000000
B0540013209604S11657094EA0138101424000000000000
B0540053209672S11657091EA0138601421000000000000
B0540093209744S11657088EA0137201402000000000000
B0540133209822S11657090EA0135401386000000000000
B0540173209903S11657092EA0134101372000000000000
B0540213209984S11657095EA0133001363000000000000
B0540253210066S11657100EA0132301356000000000000
B0540293210145S11657104EA0131501349000000000000
B0540333210225S11657107EA0131101343000000000000
B0540373210307S11657108EA0130001326000000000000
B0540413210392S11657109EA0128201309000000000000
B0540453210476S11657109EA0127001299000000000000
B0540493210560S11657108EA0125701284000000000000
B0540533210641S11657108EA0124501274000000000000
B0540573210722S11657111EA0123301260000000000000
B0541013210803S11657113EA0121601243000000000000
B0541053210881S11657113EA0120101228000000000000
B0541093210960S11657113EA0119001216000000000000
B0541133211037S11657116EA0118201207000000000000
B0541173211116S11657118EA0117601202000000000000
B0541213211195S11657122EA0117101197000000000000
B0541253211277S11657126EA0115801183000000000000
B0541293211360S11657129EA0115201176000000000000
B0541333211444S11657131EA0115501194000000000000
B0541373211522S11657134EA0117901218000000000000
B0541413211594S11657135EA0119201214000000000000
B0541453211672S11657131EA0118101208000000000000
B0541493211749S11657127EA0118301206000000000000
B0541533211827S11657126EA0117101188000000000000
B0541573211906S11657124EA0116101187000000000000
B0542013211979S11657120EA0115501181000000000000
B0542053212052S11657116EA0114801167000000000000
B0542093212126S11657111EA0113501157000000000000
B0542133212201S11657104EA0112801149000000000000
B0542173212277S11657098EA0111501133000000000000
B0542213212355S11657092EA0110201124000000000000
B0542253212430S11657091EA0109401115000000000000
B0542293212504S11657090EA0108601108000000000000
B0542333212578S11657087EA0108101104000000000000
B0542373212649S11657083EA0108001105000000000000
B0542413212715S11657077EA0108501113000000000000
B0542453212779S11657065EA0109001114000000000000
B0542493212844S11657049EA0108501104000000000000
B0542533212914S11657033EA0107601097000000000000
B0542573212987S11657017EA0107601097000000000000
B0543013213062S11656994EA0107101093000000000000
B0543053213130S11656969EA0108501126000000000000
B0543093213189S11656943EA0111501154000000000000
B0543133213227S11656879EA0114301184000000000000
B0543173213191S11656797EA0116201186000000000000
B0543213213114S11656786EA0115101163000000000000
B0543253213079S11656843EA0114401183000000000000
B0543293213084S11656900EA0116701206000000000000
B0543333213131S11656900EA0119301236000000000000
B0543373213139S11656815EA0121101243000000015000
B0543413213074S11656769EA0121701251000000000000
B0543453213037S11656815EA0122801265000000000000
B0543493213080S11656843EA0124501286000000000000
B0543533213118S11656771EA0126701303000000000000
B0543573213075S11656680EA0126901300000000000000
B0544013213001S11656679EA0128001324000000000000
B0544053212983S11656736EA0130001337000000000000
B0544093213027S11656762EA0131001348000000000000
B0544133213080S11656710EA0132801372000000000000
B0544173213067S11656613EA0134801386000000000000
B0544213212996S11656585EA0136201402000000000000
B0544253212975S11656633EA0137801418000000000000
B0544293213020S11656646EA0139601442000000000000
B0544333213058S11656579EA0141601459000000000000
B0544373213035S11656485EA0142501466000000000000
B0544413212963S11656446EA0143701481000000000000
B0544453212918S11656481EA0145001494000000000000
B0544493212944S11656519EA0145601496000000000000
B0544533213000S11656481EA0146901522000000015000
B0544573213004S11656388EA0149001537000000015000
B0545013212937S11656338EA0150401551000000000000
B0545053212900S11656376EA0151701563000000000000
B0545093212927S11656412EA0152701574000000000000
B0545133212975S11656359EA0154201588000000015000
B0545173212953S11656262EA0155201600000000000000
B0545213212883S11656240EA0156701617000000000000
B0545253212859S11656282EA0157801624000000000000
B0545293212900S11656302EA0158701634000000000000
B0545333212954S11656263EA0159201636000000015000
B0545373212957S11656165EA0160101650000000015000
B0545413212888S11656116EA0161201658000000015000
B0545453212848S11656152EA0162401676000000015000
B0545493212880S11656178EA0163001678000000000000
B0545533212927S11656124EA0163301682000000015000
B0545573212931S11656022EA0163501683000000000000
B0546013212884S11655934EA0163801687000000000000
B0546053212814S11655873EA0164201694000000000000
B0546093212742S11655874EA0164701693000000000000
B0546133212714S11655925EA0164801698000000000000
B0546173212732S11655970EA0165501701000000000000
B0546213212771S11656003EA0165301698000000000000
B0546253212823S11656026EA0164501685000000000000
B0546293212887S11656034EA0163701680000000000000
B0546333212958S11656004EA0162901667000000000000
B0546373213033S11655960EA0161301652000000000000
B0546413213111S11655916EA0159901639000000000000
B0546453213192S11655876EA0157801615000000000000
B0546493213278S11655838EA0155201588000000000000
B0546533213366S11655800EA0153801574000000000000
B0546573213451S11655762EA0152601565000000000000
B0547013213534S11655725EA0151601547000000000000
B0547053213621S11655687EA0148901518000000000000
B0547093213712S11655651EA0146501497000000000000
B0547133213804S11655619EA0145501490000000000000
B0547173213893S11655595EA0144901485000000000000
B0547213213975S11655573EA0145001490000000000000
B0547253214054S11655552EA0144901487000000000000
B0547293214132S11655530EA0144401481000000000000
B0547333214209S11655509EA0143701472000000000000
B0547373214287S11655486EA0142601461000000000000
B0547413214361S11655465EA0143001474000000000000
B0547453214432S11655452EA0143701478000000000000
B0547493214506S11655445EA0143701478000000000000
B0547533214582S11655435EA0144601491000000000000
B0547573214653S11655417EA0144801488000000000000
B0548013214723S11655389EA0144701489000000000000
B0548053214790S11655348EA0145201496000000000000
B0548093214853S11655307EA0145501498000000000000
B0548133214917S11655265EA0146301512000000000000
B0548173214977S11655227EA0148401529000000000000
B0548213215035S11655193EA0148601524000000000000
B0548253215098S11655157EA0148601526000000000000
B0548293215162S11655119EA0149001532000000000000
B0548333215227S11655081EA0149901544000000000000
B0548373215290S11655051EA0150801551000000000000
B0548413215357S11655020EA0150701544000000000000
B0548453215428S11654989EA0150001540000000000000
B0548493215501S11654958EA0149601536000000000000
B0548533215576S11654927EA0148901526000000000000
B0548573215652S11654894EA0147701511000000000000
B0549013215730S11654863EA0145801492000000000000
B0549053215810S11654836EA0144301477000000000000
B0549093215890S11654816EA0143301469000000000000
B0549133215966S11654803EA0142701465000000000000
B0549173216043S11654798EA0142201456000000000000
B0549213216120S11654793EA0141101446000000000000
B0549253216196S11654795EA0140701446000000000000
B0549293216273S11654798EA0140601445000000000000
B0549333216350S11654803EA0140101437000000000000
B0549373216429S11654810EA0140101442000000000000
B0549413216507S11654815EA0140601445000000000000
B0549453216582S11654820EA0141001451000000000000
B0549493216655S11654824EA0140801443000000000000
B0549533216729S11654825EA0139701431000000000000
B0549573216805S11654828EA0138401414000000000000
B0550013216881S11654830EA0136701396000000000000
B0550053216956S11654828EA0135801391000000000000
B0550093217030S11654821EA0135301384000000000000
B0550133217106S11654811EA0133501360000000000000
B0550173217186S11654803EA0132201354000000000000
B0550213217261S11654791EA0132801373000000000000
B0550253217331S11654780EA0133801375000000000000
B0550293217403S11654769EA0133401365000000000000
B0550333217476S11654761EA0132201351000000000000
B0550373217550S11654756EA0130801336000000000000
B0550413217625S11654755EA0129401324000000000000
B0550453217703S11654756EA0127801305000000000000
B0550493217782S11654761EA0126101288000000000000
B0550533217860S11654767EA0125201280000000000000
B0550573217938S11654765EA0124301271000000000000
B0551013218018S11654755EA0123801271000000000000
B0551053218093S11654743EA0124301277000000000000
B0551093218168S11654728EA0123901265000000000000
B0551133218245S11654716EA0122601253000000000000
B0551173218315S11654713EA0122501254000000000000
B0551213218383S11654712EA0122101248000000000000
B0551253218452S11654712EA0121101236000000000000
B0551293218525S11654706EA0119701223000000000000
B0551333218600S11654696EA0119701233000000000000
B0551373218669S11654691EA0121001245000000000000
B0551413218733S11654690EA0121501246000000000000
B0551453218795S11654699EA0121801255000000000000
B0551493218856S11654711EA0122601260000000000000
B0551533218913S11654726EA0123401268000000000000
B0551573218972S11654742EA0123601267000000000000
B0552013219034S11654756EA0123101256000000000000
B0552053219102S11654769EA0122401256000000000000
B0552093219163S11654776EA0123201267000000000000
B0552133219224S11654778EA0123401263000000000000
B0552173219289S11654768EA0123201263000000000000
B0552213219355S11654758EA0124101282000000000000
B0552253219410S11654741EA0126801306000000000000
B0552293219422S11654665EA0128501317000000000000
B0552333219353S11654634EA0129001320000000000000
B0552373219307S11654687EA0129101320000000000000
B0552413219322S11654756EA0129101326000000000000
B0552453219375S11654761EA0131201354000000000000
B0552493219384S11654678EA0133401380000000000000
B0552533219328S11654630EA0135501394000000000000
B0552573219272S11654660EA0135901396000000000000
B0553013219276S11654719EA0137001408000000000000
B0553053219327S11654717EA0138001417000000000000
B0553093219349S11654638EA0138801426000000000000
B0553133219303S11654557EA0139801442000000000000
B0553173219245S11654579EA0141201454000000000000
B0553213219264S11654631EA0142101464000000000000
B0553253219307S11654582EA0143601481000000015000
B0553293219270S11654505EA0145001494000000015000
B0553333219201S11654520EA0145201489000000000000
B0553373219201S11654590EA0145701503000000000000
B0553413219257S11654590EA0147301520000000015000
B0553453219292S11654514EA0147801518000000015000
B0553493219276S11654410EA0147901530000000000000
B0553533219215S11654347EA0150401558000000000000
B0553573219154S11654369EA0152501570000000000000
B0554013219166S11654420EA0153101575000000000000
B0554053219218S11654390EA0153501581000000000000
B0554093219215S11654299EA0154501597000000000000
B0554133219146S11654260EA0156301608000000000000
B0554173219091S11654308EA0156101598000000000000
B0554213219106S11654378EA0155601602000000000000
B0554253219169S11654388EA0157001620000000000000
B0554293219211S11654319EA0158901645000000015000
B0554333219205S11654226EA0160201653000000015000
B0554373219143S11654162EA0161201661000000015000
B0554413219085S11654195EA0162501676000000000000
B0554453219104S11654243EA0163601686000000000000
B0554493219159S11654223EA0164701698000000015000
B0554533219171S11654137EA0165401709000000015000
B0554573219114S11654069EA0165901710000000015000
B0555013219034S11654062EA0166501719000000000000
B0555053218999S11654115EA0167901735000000000000
B0555093219038S11654140EA0168901741000000015000
B0555133219072S11654070EA0168901737000000015000
B0555173219032S11653979EA0169401751000000015000
B0555213218952S11653952EA0170801764000000000000
B0555253218893S11653985EA0172201777000000000000
B0555293218876S11654044EA0173101786000000000000
B0555333218906S11654080EA0174301800000000000000
B0555373218946S11654032EA0175401806000000000000
B0555413218906S11653954EA0175501806000000000000
B0555453218828S11653957EA0175301806000000000000
B0555493218785S11654018EA0175601813000000000000
B0555533218799S11654080EA0176601824000000000000
B0555573218846S11654110EA0177601835000000000000
B0556013218899S11654087EA0178301837000000000000
B0556053218956S11654043EA0177701827000000000000
B0556093219024S11654005EA0176601815000000000000
B0556133219098S11653972EA0176401821000000000000
B0556173219172S11653946EA0176601819000000000000
B0556213219254S11653929EA0174401789000000000000
B0556253219342S11653919EA0172501775000000000000
B0556293219433S11653916EA0171801765000000000000
B0556333219523S11653916EA0171101765000000000000
B0556373219610S11653913EA0170801759000000000000
B0556413219695S11653902EA0170701758000000000000
B0556453219779S11653892EA0170401758000000000000
B0556493219862S11653887EA0170501756000000000000
B0556533219943S11653884EA0170801764000000000000
B0556573220021S11653876EA0172001777000000000000
B0557013220096S11653868EA0173301790000000000000
B0557053220169S11653868EA0175101812000000000000
B0557093220237S11653867EA0176801830000000000000
B0557133220303S11653871EA0177401822000000000000
B0557173220372S11653883EA0175601800000000000000
B0557213220443S11653905EA0174301794000000000000
B0557253220511S11653933EA0173801789000000000000
B0557293220579S11653963EA0172801775000000000000
B0557333220649S11653994EA0172401780000000000000
B0557373220716S11654030EA0172901784000000000000
B0557413220783S11654072EA0172301773000000000000
B0557453220853S11654111EA0172201779000000000000
B0557493220921S11654150EA0172801783000000000000
B0557533220988S11654192EA0172501775000000000000
B0557573221057S11654231EA0171901773000000000000
B0558013221123S11654269EA0171301764000000000000
B0558053221192S11654305EA0170601760000000000000
B0558093221262S11654340EA0170401757000000000000
B0558133221334S11654371EA0170801764000000000000
B0558173221402S11654399EA0171201765000000000000
B0558213221470S11654427EA0170301748000000000000
B0558253221541S11654455EA0168901738000000000000
B0558293221613S11654483EA0167901727000000000000
B0558333221685S11654516EA0166901716000000000000
B0558373221759S11654544EA0165601704000000000000
B0558413221834S11654570EA0164601693000000000000
B0558453221911S11654595EA0163901693000000000000
B0558493221987S11654612EA0164901703000000000000
B0558533222065S11654629EA0165401710000000000000
B0558573222139S11654650EA0166201719000000000000
B0559013222206S11654677EA0167501733000000000000
B0559053222270S11654708EA0168301732000000000000
B0559093222339S11654737EA0166801713000000000000
B0559133222410S11654769EA0165801708000000000000
B0559173222474S11654800EA0166701721000000000000
B0559213222534S11654830EA0166801719000000000000
B0559253222598S11654862EA0166101713000000000000
B0559293222659S11654895EA0167401733000000000000
B0559333222713S11654921EA0169401763000000000000
B0559373222765S11654940EA0171701785000000000000
B0559413222817S11654947EA0174001798000000000000
B0559453222868S11654928EA0175201816000000000000
B0559493222865S11654849EA0176801828000000000000
B0559533222793S11654819EA0177901840000000000000
B0559573222741S11654868EA0179001853000000000000
B0600013222752S11654923EA0180401863000000000000
B0600053222802S11654899EA0180701859000000000000
B0600093222787S11654811EA0181401880000000000000
B0600133222708S11654778EA0183101891000000000000
B0600173222652S11654830EA0184501910000000000000
B0600213222656S11654890EA0186601928000000000000
B0600253222698S11654908EA0187701935000000000000
B0600293222737S11654851EA0188101938000000000000
B0600333222695S11654772EA0189101955000000000000
B0600373222620S11654782EA0190201961000000000000
B0600413222601S11654851EA0190501968000000000000
B0600453222643S11654881EA0192001989000000000000
B0600493222691S11654837EA0193602004000000000000
B0600533222687S11654751EA0195402022000000000000
B0600573222621S11654704EA0197102038000000000000
B0601013222556S11654733EA0198102044000000000000
B0601053222543S11654797EA0198802053000000000000
B0601093222583S11654826EA0200102069000000000000
B0601133222630S11654773EA0201202074000000000000
B0601173222594S11654693EA0202602098000000000000
B0601213222525S11654704EA0204802112000000000000
B0601253222522S11654764EA0205202116000000000000
B0601293222574S11654769EA0206302131000000000000
B0601333222594S11654690EA0207602142000000000000
B0601373222535S11654624EA0208302150000000000000
B0601413222461S11654642EA0209302163000000000000
B0601453222445S11654706EA0210402177000000000000
B0601493222471S11654764EA0211302173000000000000
B0601533222520S11654806EA0210402164000000000000
B0601573222579S11654846EA0209002146000000000000
B0602013222647S11654889EA0207302134000000000000
B0602053222717S11654933EA0206502127000000000000
B0602093222791S11654980EA0206302128000000000000
B0602133222868S11655027EA0205902117000000000000
B0602173222943S11655077EA0204002098000000000000
B0602213223015S11655132EA0203002091000000000000
B0602253223085S11655188EA0202002078000000000000
B0602293223155S11655242EA0201402078000000000000
B0602333223224S11655292EA0201502078000000000000
B0602373223290S11655350EA0200802067000000000000
B0602413223354S11655415EA0200002062000000000000
B0602453223415S11655478EA0199702059000000000000
B0602493223480S11655535EA0198802047000000000000
B0602533223550S11655591EA0197402032000000000000
B0602573223622S11655643EA0196902031000000000000
B0603013223696S11655690EA0197102033000000000000
B0603053223768S11655734EA0196902026000000000000
B0603093223842S11655783EA0196002015000000000000
B0603133223914S11655826EA0196202027000000000000
B0603173223985S11655868EA0196602026000000000000
B0603213224057S11655905EA0196502028000000000000
B0603253224129S11655944EA0196602025000000000000
B0603293224204S11655982EA0196402024000000000000
B0603333224275S11656016EA0197302050000000000000
B0603373224332S11656043EA0200202069000000000000
B0603413224393S11656071EA0199402043000000000000
B0603453224466S11656102EA0196502013000000000000
B0603493224545S11656136EA0194902005000000000000
B0603533224623S11656169EA0194902008000000000000
B0603573224696S11656211EA0195602017000000000000
B0604013224770S11656251EA0195902016000000000000
B0604053224841S11656295EA0196802031000000000000
B0604093224910S11656340EA0196402013000000000000
B0604133224979S11656393EA0194101987000000000000
B0604173225052S11656446EA0192901990000000000000
B0604213225125S11656496EA0193601996000000000000
B0604253225196S11656544EA0193401990000000000000
B0604293225263S11656598EA0193101989000000000000
B0604333225328S11656650EA0192501981000000000000
B0604373225399S11656692EA0191901974000000000000
B0604413225474S11656726EA0191501975000000000000
B0604453225551S11656757EA0192501987000000000000
B0604493225625S11656784EA0193401999000000000000
B0604533225697S11656812EA0194402008000000000000
B0604573225767S11656841EA0195302020000000000000
B0605013225835S11656865EA0197602048000000000000
B0605053225900S11656887EA0198402038000000000000
B0605093225970S11656913EA0196602014000000000000
B0605133226048S11656939EA0195502014000000000000
B0605173226123S11656962EA0195802011000000000000
B0605213226201S11656988EA0194101987000000000000
B0605253226282S11657018EA0193101985000000000000
B0605293226358S11657052EA0192201971000000000000
B0605333226436S11657094EA0190301950000000000000
B0605373226516S11657142EA0189001942000000000000
B0605413226595S11657187EA0188901943000000000000
B0605453226669S11657237EA0188901942000000000000
B0605493226739S11657281EA0189301950000000000000
B0605533226804S11657326EA0189401944000000000000
B0605573226869S11657369EA0189201948000000000000
B0606013226930S11657406EA0189801956000000000000
B0606053226986S11657438EA0189901951000000000000
B0606093227044S11657471EA0188301929000000000000
B0606133227106S11657504EA0187301926000000000000
B0606173227168S11657540EA0186501912000000000000
B0606213227233S11657576EA0185701908000000000000
B0606253227301S11657611EA0184801899000000000000
B0606293227367S11657647EA0184401897000000000000
B0606333227436S11657681EA0183601887000000000000
B0606373227508S11657711EA0182401873000000000000
B0606413227586S11657733EA0180901853000000000000
B0606453227671S11657729EA0180301863000000000000
B0606493227753S11657718EA0181901878000000000000
B0606533227831S11657694EA0183001893000000000000
B0606573227904S11657666EA0183701891000000000000
B0607013227981S11657638EA0182001868000000000000
B0607053228064S11657614EA0180201854000000000000
B0607093228147S11657590EA0179501848000000000000
B0607133228228S11657572EA0179001841000000000000
B0607173228308S11657559EA0177801823000000000000
B0607213228389S11657549EA0176101809000000000000
B0607253228471S11657538EA0175001796000000000000
B0607293228555S11657528EA0173601780000000000000
B0607333228640S11657517EA0172101767000000000000
B0607373228726S11657507EA0170901757000000000000
B0607413228810S11657495EA0170101748000000000000
B0607453228895S11657481EA0169101736000000000000
B0607493228978S11657464EA0167801725000000000000
B0607533229062S11657446EA0167001717000000000000
B0607573229147S11657429EA0166501710000000000000
B0608013229231S11657411EA0165601700000000000000
B0608053229317S11657391EA0164801693000000000000
B0608093229399S11657365EA0164301692000000000000
B0608133229480S11657339EA0163601678000000000000
B0608173229562S11657315EA0162101661000000000000
B0608213229645S11657287EA0160001637000000000000
B0608253229728S11657259EA0158501630000000000000
B0608293229809S11657226EA0158201627000000000000
B0608333229885S11657191EA0157901624000000000000
B0608373229961S11657156EA0157001611000000000000
B0608413230036S11657121EA0155901601000000000000
B0608453230110S11657088EA0154601586000000000000
B0608493230188S11657056EA0152901568000000000000
B0608533230269S11657021EA0151501551000000000000
B0608573230349S11656988EA0150701551000000000000
B0609013230427S11656960EA0150201540000000000000
B0609053230508S11656934EA0149101532000000000000
B0609093230583S11656904EA0150001550000000000000
B0609133230656S11656871EA0150501547000000000000
B0609173230730S11656838EA0150501549000000000000
B0609213230807S11656802EA0149901538000000000000
B0609253230888S11656770EA0148301519000000000000
B0609293230971S11656739EA0146801507000000000000
B0609333231050S11656709EA0146701508000000000000
B0609373231128S11656679EA0145801496000000000000
B0609413231206S11656646EA0144601478000000000000
B0609453231284S11656618EA0143101465000000000000
B0609493231361S11656589EA0142001454000000000000
B0609533231438S11656565EA0140801441000000000000
B0609573231509S11656539EA0140701451000000000000
B0610013231575S11656513EA0141801457000000000000
B0610053231640S11656481EA0141601450000000000000
B0610093231707S11656451EA0141401454000000000000
B0610133231774S11656419EA0142301470000000000000
B0610173231839S11656393EA0143901484000000000000
B0610213231902S11656371EA0145301499000000000000
B0610253231964S11656355EA0146601512000000000000
B0610293232024S11656331EA0148101529000000000000
B0610333232049S11656259EA0150601557000000000000
B0610373232002S11656193EA0152601570000000000000
B0610413231942S11656199EA0152801564000000000000
B0610453231930S11656253EA0153101580000000000000
B0610493231959S11656289EA0154801592000000000000
B0610533232004S11656279EA0156101603000000000000
B0610573232007S11656198EA0156501610000000015000
B0611013231938S11656169EA0158501633000000015000
B0611053231920S11656221EA0160401658000000000000
B0611093231959S11656228EA0162301668000000015000
B0611133231977S11656156EA0163201683000000015000
B0611173231919S11656100EA0164601696000000015000
B0611213231861S11656128EA0166201716000000000000
B0611253231878S11656173EA0167801730000000000000
B0611293231928S11656151EA0168601735000000015000
B0611333231941S11656068EA0169301743000000015000
B0611373231872S11656009EA0170101749000000015000
B0611413231808S11656045EA0171601774000000000000
B0611453231825S11656093EA0173801801000000000000
B0611493231873S11656059EA0175301807000000015000
B0611533231874S11655972EA0176201826000000015000
B0611573231817S11655915EA0178201841000000015000
B0612013231752S11655928EA0179901860000000000000
B0612053231735S11655980EA0181801878000000000000
B0612093231772S11656004EA0183301890000000000000
B0612133231820S11655964EA0183801892000000000000
B0612173231816S11655877EA0185101914000000015000
B0612213231750S11655850EA0187001927000000000000
B0612253231720S11655904EA0188401943000000000000
B0612293231761S11655931EA0190101963000000015000
B0612333231803S11655882EA0191901979000000015000
B0612373231781S11655804EA0193802001000000015000
B0612413231716S11655782EA0194902012000000015000
B0612453231675S11655834EA0196302031000000000000
B0612493231705S11655874EA0198202047000000000000
B0612533231757S11655833EA0199202050000000015000
B0612573231752S11655739EA0199902065000000015000
B0613013231679S11655699EA0202002088000000015000
B0613053231617S11655735EA0203802108000000000000
B0613093231612S11655796EA0206302134000000000000
B0613133231659S11655811EA0207902141000000000000
B0613173231695S11655746EA0209002157000000000000
B0613213231657S11655674EA0210702178000000015000
B0613253231594S11655684EA0213002200000000000000
B0613293231581S11655746EA0214202206000000000000
B0613333231631S11655773EA0214602209000000000000
B0613373231685S11655717EA0214802212000000000000
B0613413231670S11655622EA0215802232000000015000
B0613453231601S11655590EA0218002257000000015000
B0613493231551S11655632EA0220302276000000000000
B0613533231564S11655694EA0222002289000000000000
B0613573231623S11655716EA0221502267000000000000
B0614013231708S11655718EA0218402231000000000000
B0614053231809S11655717EA0215202204000000000000
B0614093231921S11655712EA0214102198000000000000
B0614133232033S11655704EA0213102189000000000000
B0614173232143S11655697EA0212602188000000000000
B0614213232247S11655692EA0211902178000000000000
B0614253232353S11655688EA0210602166000000000000
B0614293232454S11655679EA0210102161000000000000
B0614333232557S11655671EA0209502156000000000000
B0614373232656S11655668EA0209302152000000000000
B0614413232756S11655661EA0208602143000000000000
B0614453232853S11655652EA0207702137000000000000
B0614493232953S11655644EA0205902113000000000000
B0614533233053S11655643EA0204202101000000000000
B0614573233152S11655644EA0204002100000000000000
B0615013233246S11655647EA0204602113000000000000
B0615053233334S11655645EA0204602099000000000000
B0615093233427S11655644EA0203102085000000000000
B0615133233521S11655644EA0201702068000000000000
B0615173233616S11655645EA0200202055000000000000
B0615213233714S11655645EA0199702053000000000000
B0615253233810S11655647EA0198302033000000000000
B0615293233909S11655645EA0196702023000000000000
B0615333234004S11655645EA0196002017000000000000
B0615373234099S11655648EA0195102007000000000000
B0615413234192S11655658EA0194401999000000000000
B0615453234285S11655670EA0193801994000000000000
B0615493234374S11655683EA0193101986000000000000
B0615533234464S11655700EA0192101971000000000000
B0615573234558S11655718EA0190101955000000000000
B0616013234649S11655731EA0189901954000000000000
B0616053234740S11655747EA0189201945000000000000
B0616093234828S11655765EA0189901960000000000000
B0616133234910S11655782EA0190901969000000000000
B0616173234988S11655803EA0191701981000000000000
B0616213235067S11655820EA0193001996000000000000
B0616253235141S11655833EA0195202027000000000000
B0616293235211S11655838EA0197402041000000000000
B0616333235284S11655842EA0198402047000000000000
B0616373235357S11655847EA0197702033000000000000
B0616413235434S11655852EA0197602038000000000000
B0616453235514S11655847EA0197702037000000000000
B0616493235596S11655837EA0198002042000000000000
B0616533235681S11655818EA0198002038000000000000
B0616573235765S11655795EA0198402041000000000000
B0617013235854S11655770EA0196902019000000000000
B0617053235946S11655747EA0195902016000000000000
B0617093236036S11655723EA0196502023000000000000
B0617133236124S11655707EA0197002035000000000000
B0617173236211S11655692EA0197602033000000000000
B0617213236298S11655682EA0197402030000000000000
B0617253236384S11655671EA0197202032000000000000
B0617293236470S11655661EA0196702018000000000000
B0617333236560S11655644EA0195202005000000000000
B0617373236649S11655627EA0195702017000000000000
B0617413236734S11655605EA0196602030000000000000
B0617453236816S11655583EA0197002027000000000000
B0617493236900S11655561EA0196002013000000000000
B0617533236986S11655536EA0195302008000000000000
B0617573237070S11655508EA0194502000000000000000
B0618013237155S11655482EA0193901995000000000000
B0618053237241S11655461EA0193501989000000000000
B0618093237327S11655449EA0192701980000000000000
B0618133237411S11655437EA0192201979000000000000
B0618173237489S11655431EA0192701988000000000000
B0618213237566S11655423EA0193001986000000000000
B0618253237641S11655418EA0193101989000000000000
B0618293237715S11655417EA0192801978000000000000
B0618333237795S11655411EA0191101960000000000000
B0618373237879S11655400EA0190401958000000000000
B0618413237966S11655383EA0190301956000000000000
B0618453238053S11655362EA0190001953000000000000
B0618493238142S11655339EA0188801936000000000000
B0618533238233S11655315EA0187001920000000000000
B0618573238324S11655288EA0185801909000000000000
B0619013238415S11655261EA0185201906000000000000
B0619053238502S11655232EA0184701899000000000000
B0619093238588S11655201EA0184201893000000000000
B0619133238671S11655164EA0183401885000000000000
B0619173238755S11655127EA0182501874000000000000
B0619213238840S11655088EA0181701866000000000000
B0619253238926S11655049EA0180301851000000000000
B0619293239015S11655011EA0179101840000000000000
B0619333239104S11654976EA0178401835000000000000
B0619373239193S11654942EA0177801824000000000000
B0619413239283S11654911EA0176801816000000000000
B0619453239373S11654881EA0175701803000000000000
B0619493239462S11654850EA0174601793000000000000
B0619533239551S11654817EA0173901786000000000000
B0619573239639S11654782EA0173001777000000000000
B0620013239726S11654748EA0172701774000000000000
B0620053239815S11654712EA0172101768000000000000
B0620093239902S11654672EA0171201756000000000000
B0620133239989S11654629EA0169901743000000000000
B0620173240073S11654582EA0169501743000000000000
B0620213240155S11654537EA0168901732000000000000
B0620253240239S11654491EA0167401716000000000000
B0620293240327S11654449EA0165901701000000000000
B0620333240417S11654412EA0164701690000000000000
B0620373240505S11654371EA0163901681000000000000
B0620413240593S11654325EA0162201661000000000000
B0620453240682S11654273EA0160801650000000000000
B0620493240768S11654221EA0159801639000000000000
B0620533240852S11654171EA0159001633000000000000
B0620573240934S11654123EA0158401622000000000000
B0621013241015S11654074EA0157101610000000000000
B0621053241093S11654020EA0156001598000000000000
B0621093241169S11653968EA0155001591000000000000
B0621133241246S11653919EA0154101578000000000000
B0621173241325S11653875EA0153101573000000000000
B0621213241401S11653829EA0153201575000000000000
B0621253241477S11653792EA0152601565000000000000
B0621293241558S11653763EA0151501554000000000000
B0621333241640S11653745EA0150801546000000000000
B0621373241721S11653734EA0150701549000000000000
B0621413241800S11653725EA0150401543000000000000
B0621453241882S11653719EA0150001541000000000000
B0621493241962S11653712EA0149401535000000000000
B0621533242043S11653706EA0149101532000000000000
B0621573242122S11653697EA0148901528000000000000
B0622013242204S11653689EA0147701512000000000000
B0622053242287S11653682EA0146501501000000000000
B0622093242372S11653675EA0145901496000000000000
B0622133242452S11653666EA0146101503000000000000
B0622173242529S11653653EA0146501504000000000000
B0622213242606S11653640EA0146501506000000000000
B0622253242680S11653632EA0146301498000000000000
B0622293242758S11653624EA0145201490000000000000
B0622333242835S11653619EA0145101491000000000000
B0622373242911S11653616EA0144401478000000000000
B0622413242988S11653614EA0143301468000000000000
B0622453243065S11653610EA0142501460000000000000
B0622493243141S11653608EA0141701449000000000000
B0622533243221S11653603EA0140801442000000000000
B0622573243300S11653597EA0140301438000000000000
B0623013243382S11653590EA0139801428000000000000
B0623053243466S11653588EA0138801422000000000000
B0623093243550S11653586EA0139001423000000000000
B0623133243630S11653588EA0138101409000000000000
B0623173243710S11653590EA0136401391000000000000
B0623213243785S11653597EA0135901392000000000000
B0623253243856S11653607EA0135601386000000000000
B0623293243924S11653619EA0135101382000000000000
B0623333243990S11653629EA0134301371000000000000
B0623373244062S11653642EA0132701357000000000000
B0623413244135S11653660EA0132201353000000000000
B0623453244205S11653680EA0132301358000000000000
B0623493244274S11653694EA0132801364000000000000
B0623533244340S11653714EA0133501374000000000000
B0623573244400S11653737EA0134901384000000000000
B0624013244464S11653737EA0136201402000000000000
B0624053244523S11653708EA0138501429000000000000
B0624093244521S11653627EA0140801444000000000000
B0624133244456S11653590EA0140701433000000000000
B0624173244402S11653630EA0140401441000000000000
B0624213244397S11653690EA0142201463000000000000
B0624253244440S11653701EA0144601487000000000000
B0624293244449S11653627EA0146001498000000000000
B0624333244389S11653581EA0147301516000000000000
B0624373244345S11653614EA0149201534000000000000
B0624413244366S11653655EA0150801551000000000000
B0624453244412S11653636EA0151801563000000015000
B0624493244430S11653562EA0152801570000000015000
B0624533244391S11653482EA0153501581000000015000
B0624573244327S11653476EA0154801591000000000000
B0625013244313S11653529EA0155801605000000000000
B0625053244357S11653539EA0157401620000000000000
B0625093244369S11653469EA0159001637000000015000
B0625133244314S11653416EA0159901645000000015000
B0625173244259S11653439EA0161001656000000000000
B0625213244269S11653493EA0162101670000000000000
B0625253244315S11653485EA0163301679000000000000
B0625293244328S11653402EA0163801684000000015000
B0625333244270S11653342EA0165301706000000000000
B0625373244210S11653365EA0166601713000000000000
B0625413244220S11653421EA0167701726000000000000
B0625453244274S11653409EA0168701734000000000000
B0625493244285S11653325EA0169701746000000015000
B0625533244230S11653256EA0170501756000000015000
B0625573244159S11653269EA0171801772000000000000
B0626013244154S11653329EA0173201786000000000000
B0626053244202S11653347EA0174801799000000000000
B0626093244252S11653299EA0175301796000000000000
B0626133244271S11653205EA0174401781000000000000
B0626173244237S11653108EA0173601785000000000000
B0626213244158S11653077EA0174601797000000000000
B0626253244090S11653114EA0175301801000000000000
B0626293244046S11653179EA0176201816000000000000
B0626333244064S11653235EA0178301841000000000000
B0626373244115S11653260EA0179301839000000000000
B0626413244179S11653257EA0178101823000000000000
B0626453244250S11653251EA0175701794000000000000
B0626493244332S11653246EA0173601767000000000000
B0626533244423S11653239EA0171401750000000000000
B0626573244516S11653233EA0170201740000000000000
B0627013244609S11653229EA0168701725000000000000
B0627053244704S11653226EA0167801717000000000000
B0627093244800S11653225EA0167001710000000000000
B0627133244896S11653218EA0166501705000000000000
B0627173244995S11653209EA0165601695000000000000
B0627213245093S11653199EA0165801703000000000000
B0627253245184S11653185EA0165901702000000000000
B0627293245273S11653168EA0165601697000000000000
B0627333245361S11653148EA0165101693000000000000
B0627373245446S11653127EA0164401685000000000000
B0627413245533S11653113EA0163601677000000000000
B0627453245617S11653100EA0163401677000000000000
B0627493245699S11653090EA0163001672000000000000
B0627533245779S11653079EA0162201663000000000000
B0627573245862S11653066EA0161701657000000000000
B0628013245946S11653051EA0161201649000000000000
B0628053246030S11653039EA0160201637000000000000
B0628093246115S11653038EA0159501641000000000000
B0628133246189S11653042EA0160201643000000000000
B0628173246263S11653049EA0159601635000000000000
B0628213246339S11653061EA0158201618000000000000
B0628253246420S11653078EA0156401602000000000000
B0628293246501S11653097EA0155601596000000000000
B0628333246580S11653118EA0155001590000000000000
B0628373246658S11653143EA0153801577000000000000
B0628413246739S11653169EA0152801562000000000000
B0628453246819S11653190EA0151601553000000000000
B0628493246898S11653212EA0150901545000000000000
B0628533246978S11653237EA0149601529000000000000
B0628573247057S11653261EA0147801508000000000000
B0629013247139S11653290EA0146201497000000000000
B0629053247220S11653316EA0146101498000000000000
B0629093247301S11653343EA0146101497000000000000
B0629133247383S11653368EA0146201501000000000000
B0629173247464S11653387EA0146501502000000000000
B0629213247542S11653407EA0146701509000000000000
B0629253247613S11653429EA0148101525000000000000
B0629293247684S11653428EA0149801546000000000000
B0629333247733S11653369EA0152701579000000000000
B0629373247703S11653289EA0155101594000000000000
B0629413247633S11653277EA0155401594000000000000
B0629453247594S11653329EA0155901601000000000000
B0629493247602S11653389EA0156801612000000000000
B0629533247642S11653422EA0158601629000000000000
B0629573247689S11653365EA0159701636000000000000
B0630013247663S11653270EA0160601648000000000000
B0630053247590S11653230EA0161001649000000000000
B0630093247534S11653269EA0161701664000000000000
B0630133247534S11653326EA0163101679000000000000
B0630173247576S11653357EA0164701694000000000000
B0630213247637S11653324EA0165501699000000000000
B0630253247655S11653227EA0166201709000000015000
B0630293247604S11653148EA0167201718000000015000
B0630333247532S11653140EA0168001727000000000000
B0630373247495S11653188EA0168901737000000000000
B0630413247512S11653237EA0170001753000000000000
B0630453247565S11653242EA0171101759000000000000
B0630493247615S11653179EA0171801766000000000000
B0630533247610S11653081EA0172401769000000015000
B0630573247545S11653021EA0172301766000000000000
B0631013247473S11653040EA0171701762000000000000
B0631053247447S11653104EA0172301773000000000000
B0631093247464S11653162EA0173601784000000000000
B0631133247515S11653195EA0173401775000000000000
B0631173247586S11653201EA0172001752000000000000
B0631213247672S11653194EA0169201722000000000000
B0631253247769S11653178EA0167101705000000000000
B0631293247871S11653159EA0165601694000000000000
B0631333247972S11653142EA0165001687000000000000
B0631373248074S11653131EA0164101679000000000000
B0631413248172S11653120EA0163601675000000000000
B0631453248270S11653108EA0162901667000000000000
B0631493248366S11653096EA0162401664000000000000
B0631533248462S11653083EA0162201663000000000000
B0631573248555S11653071EA0162501666000000000000
B0632013248647S11653058EA0162401662000000000000
B0632053248739S11653045EA0162001659000000000000
B0632093248830S11653031EA0161801659000000000000
B0632133248923S11653016EA0161401650000000000000
B0632173249015S11653001EA0161001651000000000000
B0632213249102S11652987EA0161101652000000000000
B0632253249186S11652974EA0161101653000000000000
B0632293249270S11652961EA0161701658000000000000
B0632333249349S11652951EA0163001675000000000000
B0632373249424S11652936EA0164301686000000000000
B0632413249501S11652925EA0164201680000000000000
B0632453249582S11652914EA0163401670000000000000
B0632493249666S11652908EA0161801643000000000000
B0632533249757S11652897EA0159101621000000000000
B0632573249851S11652884EA0157301605000000000000
B0633013249943S11652874EA0156001594000000000000
B0633053250034S11652862EA0155101589000000000000
B0633093250122S11652850EA0154401578000000000000
B0633133250213S11652836EA0153001564000000000000
B0633173250306S11652826EA0151901549000000000000
B0633213250397S11652818EA0150901543000000000000
B0633253250488S11652814EA0149901526000000000000
B0633293250579S11652810EA0148301514000000000000
B0633333250670S11652806EA0147101501000000000000
B0633373250758S11652805EA0146101493000000000000
B0633413250845S11652804EA0144501473000000000000
B0633453250934S11652802EA0142701459000000000000
B0633493251022S11652800EA0141901451000000000000
B0633533251109S11652793EA0141901452000000000000
B0633573251196S11652784EA0141401447000000000000
B0634013251282S11652775EA0141001442000000000000
B0634053251369S11652766EA0140101429000000000000
B0634093251458S11652753EA0139001421000000000000
B0634133251547S11652741EA0137801408000000000000
B0634173251640S11652730EA0136801397000000000000
B0634213251732S11652719EA0135101380000000000000
B0634253251823S11652707EA0134601379000000000000
B0634293251911S11652696EA0134001368000000000000
B0634333251998S11652685EA0133001359000000000000
B0634373252084S11652676EA0133401372000000000000
B0634413252165S11652659EA0134801386000000000000
B0634453252238S11652646EA0136701406000000000000
B0634493252305S11652640EA0137601403000000000000
B0634533252379S11652624EA0136301390000000000000
B0634573252452S11652610EA0135801390000000000000
B0635013252525S11652593EA0135601384000000000000
B0635053252598S11652562EA0134601376000000000000
B0635093252667S11652525EA0134801388000000000000
B0635133252732S11652503EA0136201402000000000000
B0635173252793S11652488EA0136601399000000000000
B0635213252856S11652473EA0136001392000000000000
B0635253252919S11652436EA0136001394000000000000
B0635293252960S11652356EA0136501406000000000000
B0635333252981S11652260EA0137501413000000000000
B0635373252979S11652160EA0138001414000000000000
B0635413252928S11652070EA0137801413000000000000
B0635453252860S11652000EA0137901414000000000000
B0635493252786S11651950EA0138601423000000000000
B0635533252711S11651960EA0139801436000000000000
B0635573252674S11652008EA0140801451000000000000
B0636013252703S11652043EA0141301439000000000000
B0636053252765S11652055EA0139001409000000000000
B0636093252843S11652052EA0137201408000000000000
B0636133252923S11652047EA0137501404000000000000
B0636173253008S11652037EA0136101389000000000000
B0636213253096S11652021EA0135201380000000000000
B0636253253184S11652003EA0133901367000000000000
B0636293253271S11651985EA0132501351000000000000
B0636333253359S11651968EA0130901335000000000000
B0636373253447S11651953EA0129901325000000000000
B0636413253534S11651940EA0128701313000000000000
B0636453253619S11651925EA0128601315000000000000
B0636493253701S11651903EA0128301309000000000000
B0636533253782S11651878EA0127401300000000000000
B0636573253865S11651861EA0126601297000000000000
B0637013253946S11651849EA0127001299000000000000
B0637053254021S11651836EA0127501315000000000000
B0637093254085S11651823EA0129801337000000000000
B0637133254142S11651803EA0130501340000000000000
B0637173254194S11651757EA0130301336000000000000
B0637213254250S11651708EA0129301318000000000000
B0637253254319S11651673EA0127101293000000000000
B0637293254397S11651657EA0124901275000000000000
B0637333254476S11651658EA0124001269000000000000
B0637373254555S11651669EA0123301261000000000000
B0637413254633S11651687EA0122201248000000000000
B0637453254711S11651709EA0121201240000000000000
B0637493254787S11651734EA0120801236000000000000
B0637533254862S11651758EA0119901227000000000000
B0637573254938S11651784EA0119301224000000000000
B0638013255010S11651809EA0119201220000000000000
B0638053255083S11651834EA0118401212000000000000
B0638093255157S11651855EA0117901208000000000000
B0638133255228S11651875EA0117501201000000000000
B0638173255296S11651899EA0116401188000000000000
B0638213255368S11651925EA0115101177000000000000
B0638253255438S11651953EA0114001165000000000000
B0638293255507S11651982EA0113001156000000000000
B0638333255576S11652009EA0112401148000000000000
B0638373255644S11652038EA0111401135000000000000
B0638413255709S11652067EA0111001140000000000000
B0638453255774S11652083EA0111401137000000000000
B0638493255837S11652102EA0110701133000000000000
B0638533255894S11652125EA0111401144000000000000
B0638573255944S11652151EA0113001161000000000000
B0639013255995S11652146EA0114801178000000000000
B0639053256015S11652061EA0115501180000000000000
B0639093255957S11651982EA0116201191000000000000
B0639133255880S11651965EA0116901198000000000000
B0639173255845S11652013EA0117201197000000000000
B0639213255866S11652068EA0116401185000000000000
B0639253255905S11652121EA0116201194000000000000
B0639293255952S11652163EA0117201200000000000000
B0639333256009S11652147EA0119501221000000015000
B0639373255984S11652051EA0121301232000000015000
B0639413255909S11652056EA0121601239000000015000
B0639453255883S11652120EA0122301251000000015000
B0639493255917S11652161EA0123701269000000015000
B0639533255957S11652094EA0125401284000000015000
B0639573255902S11652020EA0126801301000000015000
B0640013255839S11652035EA0127901315000000015000
B0640053255841S11652085EA0129201326000000015000
B0640093255892S11652076EA0130601343000000015000
B0640133255920S11651994EA0131701348000000015000
B0640173255880S11651903EA0131901357000000015000
B0640213255806S11651883EA0133001373000000015000
B0640253255772S11651934EA0134201380000000015000
B0640293255818S11651948EA0135401392000000015000
B0640333255823S11651855EA0136801412000000015000
B0640373255755S11651808EA0138101420000000015000
B0640413255698S11651843EA0138901434000000015000
B0640453255698S11651895EA0140501445000000015000
B0640493255745S11651907EA0141001446000000000000
B0640533255792S11651843EA0141501455000000015000
B0640573255775S11651747EA0142701469000000015000
B0641013255699S11651716EA0143401473000000015000
B0641053255655S11651770EA0144001484000000015000
B0641093255681S11651817EA0145601501000000015000
B0641133255738S11651787EA0146501512000000015000
B0641173255763S11651699EA0147601519000000015000
B0641213255737S11651597EA0147601518000000015000
B0641253255664S11651532EA0148001526000000015000
B0641293255582S11651526EA0149301545000000015000
B0641333255577S11651578EA0151501567000000015000
B0641373255627S11651557EA0152801573000000015000
B0641413255627S11651463EA0153701585000000015000
B0641453255558S11651404EA0154501594000000015000
B0641493255490S11651431EA0155901608000000015000
B0641533255485S11651489EA0157101620000000015000
B0641573255532S11651510EA0158201630000000015000
B0642013255584S11651462EA0159401642000000015000
B0642053255585S11651363EA0160301650000000015000
B0642093255517S11651293EA0160901655000000015000
B0642133255442S11651300EA0162501680000000015000
B0642173255437S11651350EA0164201689000000015000
B0642213255494S11651344EA0164401688000000015000
B0642253255529S11651261EA0165001700000000015000
B0642293255493S11651166EA0165901711000000015000
B0642333255423S11651149EA0167801737000000015000
B0642373255395S11651196EA0169301743000000015000
B0642413255428S11651229EA0169801748000000015000
B0642453255478S11651180EA0170601760000000015000
B0642493255447S11651093EA0172201773000000015000
B0642533255376S11651092EA0172801780000000015000
B0642573255355S11651147EA0174301799000000015000
B0643013255391S11651179EA0175301800000000015000
B0643053255449S11651137EA0175201802000000015000
B0643093255454S11651036EA0176801826000000015000
B0643133255393S11650964EA0178101835000000015000
B0643173255321S11650976EA0178901846000000015000
B0643213255306S11651037EA0180101858000000015000
B0643253255345S11651077EA0180801861000000015000
B0643293255406S11651055EA0181801879000000015000
B0643333255430S11650973EA0183901907000000015000
B0643373255397S11650894EA0185901920000000015000
B0643413255330S11650871EA0186101914000000015000
B0643453255291S11650919EA0186301924000000015000
B0643493255316S11650973EA0186901922000000015000
B0643533255380S11651004EA0186101910000000000000
B0643573255459S11651029EA0185301905000000000000
B0644013255543S11651054EA0185101902000000000000
B0644053255631S11651082EA0184301890000000000000
B0644093255718S11651114EA0183401884000000000000
B0644133255803S11651141EA0182901881000000000000
B0644173255885S11651168EA0183101886000000000000
B0644213255965S11651193EA0182801877000000000000
B0644253256047S11651224EA0181201856000000000000
B0644293256131S11651259EA0179401840000000000000
B0644333256218S11651292EA0177601824000000000000
B0644373256305S11651323EA0176501812000000000000
B0644413256392S11651352EA0176001807000000000000
B0644453256478S11651379EA0175501801000000000000
B0644493256563S11651406EA0174801796000000000000
B0644533256647S11651435EA0174201789000000000000
B0644573256730S11651462EA0173501782000000000000
B0645013256816S11651493EA0172201767000000000000
B0645053256902S11651524EA0171801769000000000000
B0645093256981S11651556EA0172701779000000000000
B0645133257057S11651589EA0172601770000000000000
B0645173257133S11651626EA0171401759000000000000
B0645213257210S11651664EA0170801755000000000000
B0645253257279S11651710EA0170601754000000000000
B0645293257350S11651751EA0170501752000000000000
B0645333257426S11651787EA0169801744000000000000
B0645373257506S11651820EA0169201739000000000000
B0645413257584S11651853EA0168501732000000000000
B0645453257662S11651888EA0167601720000000000000
B0645493257742S11651922EA0166301704000000000000
B0645533257822S11651955EA0165201693000000000000
B0645573257906S11651986EA0164201683000000000000
B0646013257990S11652017EA0163201676000000000000
B0646053258076S11652047EA0162501668000000000000
B0646093258162S11652077EA0161301655000000000000
B0646133258250S11652103EA0160601649000000000000
B0646173258337S11652130EA0159901642000000000000
B0646213258424S11652155EA0159201635000000000000
B0646253258511S11652181EA0158701631000000000000
B0646293258593S11652211EA0158001623000000000000
B0646333258674S11652245EA0157301617000000000000
B0646373258752S11652280EA0156001600000000000000
B0646413258832S11652316EA0154601588000000000000
B0646453258905S11652346EA0155401603000000000000
B0646493258975S11652376EA0154601582000000000000
B0646533259048S11652411EA0152401555000000000000
B0646573259126S11652445EA0151701563000000000000
B0647013259198S11652475EA0153001583000000000000
B0647053259269S11652501EA0154501593000000000000
B0647093259342S11652523EA0155201592000000000000
B0647133259415S11652546EA0153801572000000000000
B0647173259494S11652564EA0152001556000000000000
B0647213259573S11652580EA0151001551000000000000
B0647253259649S11652592EA0150701547000000000000
B0647293259723S11652602EA0150001535000000000000
B0647333259798S11652609EA0149001526000000000000
B0647373259874S11652611EA0149101538000000000000
B0647413259945S11652616EA0150501550000000000000
B0647453300013S11652626EA0150701543000000000000
B0647493300088S11652633EA0149601532000000000000
B0647533300169S11652640EA0148801526000000000000
B0647573300251S11652644EA0148901534000000000000
B0648013300326S11652644EA0150301546000000000000
B0648053300403S11652646EA0150301539000000000000
B0648093300482S11652650EA0150001542000000000000
B0648133300556S11652653EA0150201541000000000000
B0648173300629S11652653EA0149101525000000000000
B0648213300708S11652653EA0146901499000000000000
B0648253300793S11652650EA0144501476000000000000
B0648293300879S11652653EA0143001465000000000000
B0648333300962S11652654EA0142601462000000000000
B0648373301044S11652650EA0141801451000000000000
B0648413301126S11652642EA0141501458000000000000
B0648453301204S11652632EA0142801474000000000000
B0648493301275S11652616EA0144301487000000000000
B0648533301344S11652593EA0145001495000000000000
B0648573301412S11652561EA0146201511000000000000
B0649013301474S11652525EA0147201517000000000000
B0649053301535S11652483EA0147401517000000000000
B0649093301596S11652442EA0147201515000000000000
B0649133301657S11652403EA0147101512000000000000
B0649173301718S11652368EA0146901511000000000000
B0649213301780S11652375EA0146501502000000000000
B0649253301813S11652431EA0145301490000000000000
B0649293301807S11652509EA0143801476000000000000
B0649333301774S11652590EA0143001470000000000000
B0649373301726S11652668EA0142901469000000000000
B0649413301669S11652743EA0142901470000000000000
B0649453301604S11652814EA0143001472000000000000
B0649493301533S11652875EA0143201475000000000000
B0649533301455S11652928EA0143501476000000000000
B0649573301374S11652975EA0142801466000000000000
B0650013301287S11653017EA0140801442000000000000
B0650053301185S11653044EA0139201425000000000000
B0650093301078S11653057EA0137801406000000000000
B0650133300970S11653086EA0135901388000000000000
B0650173300868S11653127EA0135001384000000000000
B0650213300766S11653159EA0133901370000000000000
B0650253300658S11653170EA0133001362000000000000
B0650293300550S11653178EA0132501357000000000000
B0650333300452S11653208EA0132401354000000000000
B0650373300368S11653259EA0131401344000000000000
B0650413300291S11653321EA0130801337000000000000
B0650453300221S11653387EA0130001327000000000000
B0650493300160S11653464EA0128901318000000000000
B0650533300108S11653543EA0128501317000000000000
B0650573300065S11653623EA0128601321000000000000
B0651013300026S11653698EA0129101323000000000000
B0651053259996S11653776EA0128801320000000000000
B0651093259970S11653850EA0129301329000000000000
B0651133259953S11653920EA0129301321000000000000
B0651173259943S11653991EA0128501315000000000000
B0651213259931S11654062EA0128201312000000000000
B0651253259922S11654136EA0128501321000000000000
B0651293259915S11654205EA0129401329000000000000
B0651333259921S11654267EA0129301324000000000000
B0651373259926S11654335EA0128301313000000000000
B0651413259921S11654412EA0127701307000000000000
B0651453259904S11654496EA0127201299000000000000
B0651493259895S11654586EA0125301280000000000000
B0651533259885S11654678EA0124201266000000000000
B0651573259863S11654773EA0122501251000000000000
B0652013259832S11654868EA0122801262000000000000
B0652053259796S11654956EA0123101256000000000000
B0652093259762S11655045EA0122101249000000000000
B0652133259723S11655131EA0121001235000000000000
B0652173259680S11655216EA0119201218000000000000
B0652213259635S11655305EA0117501198000000000000
B0652253259586S11655391EA0116001184000000000000
B0652293259536S11655475EA0115201179000000000000
B0652333259492S11655556EA0115001173000000000000
B0652373259447S11655640EA0113601157000000000000
B0652413259406S11655725EA0112501148000000000000
B0652453259371S11655813EA0111101131000000000000
B0652493259342S11655903EA0110901138000000000000
B0652533259324S11655981EA0113401163000000000000
B0652573259350S11656030EA0115101181000000000000
B0653013259401S11655994EA0116401192000000000000
B0653053259399S11655894EA0117101198000000000000
B0653093259339S11655809EA0117601210000000000000
B0653133259259S11655786EA0118901219000000000000
B0653173259195S11655818EA0119301221000000000000
B0653213259202S11655859EA0119701220000000000000
B0653253259250S11655809EA0118801217000000015000
B0653293259284S11655720EA0119201227000000015000
B0653333259246S11655627EA0120801240000000015000
B0653373259163S11655614EA0120901235000000015000
B0653413259113S11655664EA0121001243000000000000
B0653453259102S11655718EA0121801248000000015000
B0653493259117S11655768EA0121601244000000015000
B0653533259141S11655813EA0122101256000000015000
B0653573259168S11655857EA0123401270000000000000
B0654013259209S11655878EA0124401278000000000000
B0654053259254S11655820EA0124801277000000000000
B0654093259219S11655727EA0124601277000000015000
B0654133259150S11655657EA0124501277000000000000
B0654173259066S11655608EA0124601279000000000000
B0654213258983S11655600EA0125501291000000000000
B0654253258964S11655647EA0127501308000000015000
B0654293259009S11655609EA0128801320000000015000
B0654333258983S11655519EA0129901333000000015000
B0654373258908S11655501EA0130301333000000015000
B0654413258869S11655548EA0130901344000000015000
B0654453258900S11655574EA0132801364000000015000
B0654493258942S11655521EA0133901371000000015000
B0654533258918S11655426EA0134901387000000015000
B0654573258851S11655382EA0135901394000000015000
B0655013258792S11655405EA0136001395000000015000
B0655053258770S11655460EA0136301403000000015000
B0655093258795S11655496EA0137501413000000015000
B0655133258832S11655428EA0138101418000000015000
B0655173258796S11655337EA0138801429000000015000
B0655213258722S11655311EA0139801437000000015000
B0655253258671S11655354EA0140401442000000015000
B0655293258692S11655397EA0141701458000000015000
B0655333258735S11655343EA0143301473000000015000
B0655373258704S11655255EA0144101483000000015000
B0655413258630S11655233EA0144901493000000015000
B0655453258584S11655279EA0145601499000000015000
B0655493258608S11655322EA0146801513000000015000
B0655533258665S11655297EA0147801524000000015000
B0655573258682S11655207EA0149301539000000015000
B0656013258634S11655124EA0149701540000000015000
B0656053258553S11655086EA0150401549000000015000
B0656093258496S11655119EA0151401561000000015000
B0656133258535S11655131EA0152801573000000015000
B0656173258553S11655040EA0153801590000000015000
B0656213258497S11654967EA0155301600000000015000
B0656253258420S11654966EA0155701602000000015000
B0656293258367S11655020EA0154601584000000015000
B0656333258333S11655101EA0152701561000000000000
B0656373258311S11655194EA0151401556000000000000
B0656413258294S11655287EA0151701560000000000000
B0656453258281S11655378EA0152001565000000000000
B0656493258271S11655471EA0152001560000000000000
B0656533258259S11655566EA0150701541000000000000
B0656573258245S11655661EA0148901526000000000000
B0657013258229S11655757EA0147301507000000000000
B0657053258212S11655853EA0145801495000000000000
B0657093258194S11655950EA0144201478000000000000
B0657133258171S11656047EA0143501473000000000000
B0657173258147S11656138EA0143501473000000000000
B0657213258123S11656228EA0142701458000000000000
B0657253258102S11656321EA0140701441000000000000
B0657293258082S11656418EA0139601433000000000000
B0657333258060S11656511EA0139501438000000000000
B0657373258039S11656600EA0139701436000000000000
B0657413258016S11656689EA0139101428000000000000
B0657453257991S11656779EA0137901415000000000000
B0657493257964S11656873EA0136601399000000000000
B0657533257939S11656968EA0135601387000000000000
B0657573257912S11657061EA0134501374000000000000
B0658013257886S11657155EA0133301366000000000000
B0658053257861S11657246EA0133501374000000000000
B0658093257841S11657332EA0134101377000000000000
B0658133257825S11657412EA0133801370000000000000
B0658173257817S11657493EA0133001363000000000000
B0658213257813S11657572EA0132401359000000000000
B2359443207339S11656860EV0132400000000000000128
B2359483207339S11656860EV0133800000000000000128
B2359523207339S11656860EV0134400000000000000128
B0658403257847S11657909EA0134801394015000135000
B0658443257828S11657974EA0135301394000000075000
B0658483257783S11658036EA0134601380000000045000
B0658523257725S11658099EA0132401366000000030000
B0658563257657S11658161EA0130801350000000015000
B0659003257587S11658217EA0130101347000000015000
B0659043257514S11658268EA0129401333000000015000
B0659083257441S11658321EA0127901317000000000000
B0659123257369S11658375EA0126101297000000000000
B0659163257292S11658429EA0124701285000000000000
B0659203257210S11658477EA0123901276000000000000
B0659243257126S11658522EA0122901258000000000000
B0659283257038S11658572EA0121401250000000000000
B0659323256958S11658621EA0120801242000000000000
B0659363256877S11658672EA0119501227000000000000
B0659403256799S11658726EA0118101212000000000000
B0659443256720S11658784EA0116301195000000000000
B0659483256645S11658847EA0115201185000000000000
B0659523256567S11658908EA0115201189000000000000
B0659563256494S11658967EA0115801195000000000000
B0700003256424S11659023EA0116501207000000000000
B0700043256351S11659066EA0118501231000000000000
B0700083256308S11659120EA0120801245000000000000
B0700123256347S11659139EA0122401260000000015000
B0700163256372S11659063EA0122801256000000015000
B0700203256321S11658984EA0122301254000000015000
B0700243256235S11658968EA0122501259000000015000
B0700283256178S11659015EA0123501273000000015000
B0700323256187S11659071EA0124601278000000015000
B0700363256238S11659084EA0123801271000000015000
B0700403256303S11659064EA0123101268000000015000
B0700443256368S11659037EA0123501271000000000000
B0700483256400S11658966EA0125101291000000015000
B0700523256329S11658916EA0126801308000000015000
B0700563256273S11658955EA0127801314000000015000
B0701003256266S11659014EA0127901306000000015000
B0701043256268S11659077EA0126801297000000000000
B0701083256244S11659148EA0125901287000000000000
B0701123256203S11659217EA0124301264000000000000
B0701163256145S11659287EA0122101244000000000000
B0701203256087S11659360EA0120901237000000000000
B0701243256028S11659427EA0120901238000000000000
B0701283255971S11659495EA0120401228000000000000
B0701323255918S11659560EA0120301233000000000000
B0701363255865S11659620EA0119801226000000000000
B0701403255814S11659690EA0119101220000000000000
B0701443255766S11659764EA0118801214000000000000
B0701483255716S11659838EA0117701199000000000000
B0701523255660S11659915EA0117001199000000000000
B0701563255607S11659987EA0118001212000000000000
B0702003255586S11700060EA0119301219000000000000
B0702043255577S11700136EA0118001198000000000000
B0702083255558S11700218EA0116701192000000000000
B0702123255530S11700299EA0116301189000000000000
B0702163255495S11700377EA0116101188000000000000
B0702203255456S11700455EA0115801183000000000000
B0702243255417S11700531EA0115701183000000000000
B0702283255376S11700604EA0114601162000000000000
B0702323255337S11700678EA0113101155000000000000
B0702363255304S11700747EA0113701169000000000000
B0702403255273S11700808EA0115201184000000000000
B0702443255247S11700866EA0116501196000000000000
B0702483255269S11700903EA0118001211000000000000
B0702523255308S11700849EA0119101219000000000000
B0702563255291S11700751EA0119301219000000000000
B0703003255222S11700682EA0119601227000000000000
B0703043255147S11700676EA0120801238000000000000
B0703083255103S11700715EA0121101240000000000000
B0703123255112S11700761EA0121001234000000000000
B0703163255166S11700748EA0120401227000000015000
B0703203255198S11700658EA0120201232000000015000
B0703243255166S11700554EA0121201246000000015000
B0703283255104S11700476EA0122601260000000015000
B0703323255027S11700442EA0123501266000000000000
B0703363254948S11700431EA0123601265000000000000
B0703403254871S11700440EA0123901266000000000000
B0703443254806S11700474EA0123701266000000000000
B0703483254762S11700532EA0123901270000000000000
B0703523254734S11700597EA0124101273000000000000
B0703563254711S11700669EA0124101272000000000000
B0704003254692S11700743EA0124001271000000000000
B0704043254671S11700822EA0123301259000000000000
B0704083254652S11700905EA0121901247000000000000
B0704123254632S11700992EA0121001239000000000000
B0704163254619S11701078EA0120301232000000000000
B0704203254617S11701161EA0119501223000000000000
B0704243254617S11701245EA0118901218000000000000
B0704283254622S11701324EA0118501215000000000000
B0704323254632S11701402EA0117801206000000000000
B0704363254643S11701481EA0117101197000000000000
B0704403254646S11701564EA0116101188000000000000
B0704443254636S11701648EA0115401180000000000000
B0704483254613S11701728EA0115001178000000000000
B0704523254587S11701805EA0114601171000000000000
B0704563254559S11701878EA0113901165000000000000
B0705003254520S11701947EA0113301159000000000000
B0705043254474S11702005EA0113301162000000000000
B0705083254422S11702054EA0113901167000000000000
B0705123254370S11702103EA0113601164000000000000
B0705163254320S11702155EA0113301159000000000000
B0705203254269S11702209EA0113201160000000000000
B0705243254234S11702270EA0113601163000000000000
B0705283254230S11702329EA0113701163000000000000
B0705323254254S11702377EA0113601163000000000000
B0705363254289S11702412EA0113301158000000000000
B0705403254336S11702438EA0112001143000000000000
B0705443254379S11702474EA0111501142000000000000
B0705483254407S11702520EA0112301152000000000000
B0705523254446S11702550EA0112301150000000000000
B0705563254492S11702568EA0111901145000000000000
B0706003254528S11702598EA0111201139000000000000
B0706043254553S11702643EA0110001121000000000000
B0706083254576S11702701EA0108001102000000000000
B0706123254600S11702764EA0106501087000000000000
B0706163254624S11702832EA0105901082000000000000
B0706203254656S11702897EA0104701068000000000000
B0706243254691S11702962EA0103601054000000000000
B0706283254728S11703029EA0102201043000000000000
B0706323254767S11703094EA0101501036000000000000
B0706363254808S11703159EA0101201035000000000000
B0706403254848S11703219EA0101901043000000000000
B0706443254896S11703266EA0102001044000000000000
B0706483254947S11703305EA0102401049000000000000
B0706523255001S11703336EA0102101043000000000000
B0706563255059S11703367EA0100701028000000000000
B0707003255117S11703395EA0100101023000000000000
B0707043255177S11703413EA0099801020000000000000
B0707083255234S11703430EA0099501017000000000000
B0707123255290S11703445EA0098301000000000000000
B0707163255345S11703473EA0096500983000000000000
B0707203255397S11703510EA0094900966000000000000
B0707243255443S11703556EA0093500953000000000000
B0707283255485S11703607EA0093000951000000000000
B0707323255523S11703663EA0092900949000000000000
B0707363255560S11703717EA0093200952000000000000
B0707403255599S11703763EA0092800942000000000000
B0707443255642S11703807EA0091600929000000000000
B0707483255685S11703852EA0090000912000000000000
B0707523255724S11703904EA0089000902000000000000
B0707563255757S11703962EA0087900893000000000000
B0708003255783S11704023EA0086900884000000000000
B0708043255802S11704081EA0086500880000000000000
B0708083255822S11704137EA0086100873000000000000
B0708123255842S11704194EA0085200868000000000000
B0708163255862S11704248EA0085500871000000000000
B0708203255881S11704300EA0085400867000000000000
B0708243255907S11704346EA0084900862000000000000
B0708283255944S11704381EA0084500858000000000000
B0708323255983S11704415EA0083600849000000000000
B0708363256019S11704457EA0082100832000000000000
B0708403256048S11704511EA0080600816000000000000
B0708443256070S11704571EA0079500805000000000000
B0708483256089S11704628EA0078900802000000000000
B0708523256114S11704680EA0078600796000000000000
B0708563256140S11704732EA0077800786000000000000
B0709003256173S11704777EA0077600788000000000000
B0709043256219S11704801EA0077200781000000000000
B0709083256273S11704804EA0076900781000000000000
B0709123256327S11704790EA0077600786000000000000
B0709163256385S11704770EA0077200779000000000000
B0709203256443S11704748EA0076500775000000000000
B0709243256502S11704717EA0076000771000000000000
B0709283256561S11704686EA0075700769000000000000
B0709323256620S11704657EA0075200761000000000000
B0709363256678S11704638EA0074300750000000000000
B0709403256733S11704643EA0073600747000000000000
B0709443256771S11704674EA0073200739000000000000
B0709483256789S11704729EA0072100726000000000000
B0709523256786S11704795EA0071000716000000000000
B0709563256771S11704865EA0070300711000000000000
B0710003256747S11704937EA0069800706000000000000
B0710043256721S11705009EA0068800697000000000000
B0710083256697S11705081EA0068400693000000000000
B0710123256678S11705151EA0068100688000000000000
B0710163256668S11705221EA0067700686000000000000
B0710203256678S11705282EA0067500682000000000000
B0710243256716S11705321EA0067000675000000000000
B0710283256768S11705329EA0066500672000000000000
B0710323256814S11705272EA0066800676000000000000
B0710363256819S11705177EA0066300669000000000000
B0710403256780S11705083EA0065600661000000000000
B0710443256711S11705022EA0065000648000000000000
B0710483256634S11704968EA0063600637000000000000
B0710523256554S11704916EA0063000631000000000000
B0710563256469S11704864EA0062200623000000000000
B0711003256387S11704807EA0061300613000000000000
B0711043256309S11704743EA0060900610000000000000
B0711083256234S11704677EA0060300603000000000000
B0711123256162S11704602EA0059400596000000000000
B0711163256092S11704530EA0059100591000000000000
B0711203256021S11704459EA0058700586000000000000
B0711243255949S11704391EA0058500586000000000000
B0711283255876S11704329EA0058900591000000000000
B0711323255807S11704335EA0059000589000000000000
B0711363255789S11704387EA0058500582000000000000
B0711403255819S11704413EA0058200577000000000000
B0711443255868S11704402EA0057100565000000000000
B0711483255920S11704362EA0056200557000000000000
B0711523255950S11704283EA0055800555000000000000
B0711563255943S11704185EA0055800557000000000000
B0712003255889S11704106EA0055800554000000000000
B0712043255814S11704066EA0055500550000000000000
B0712083255737S11704063EA0054700539000000000000
B0712123255672S11704092EA0054000536000000000000
B0712163255621S11704138EA0053400531000000000000
B0712203255572S11704188EA0053600533000000000000
B0712243255566S11704237EA0053600529000000000000
B0712283255607S11704231EA0052900523000000015000
B0712323255631S11704157EA0052600522000000000000
B0712363255599S11704067EA0051900510000000000000
B0712403255521S11704038EA0050600496000000015000
B0712443255458S11704071EA0049800483000000015000
B0712483255423S11704129EA0048100460000000000000
B0712523255415S11704199EA0045800441000000000000
B0712563255417S11704270EA0044700436000000000000
B0713003255425S11704337EA0044100433000000000000
B0713043255436S11704405EA0044100431000000000000
B0713083255442S11704474EA0043700431000000000000
B0713123255449S11704541EA0043500426000000000000
B0713163255452S11704610EA0042600417000000000000
B0713203255456S11704682EA0042400417000000000000
B0713243255452S11704755EA0042100409000000000000
B0713283255451S11704826EA0041300404000000000000
B0713323255463S11704886EA0040100387000000000000
B0713363255493S11704930EA0038600369000000000000
B0713403255540S11704956EA0037000355000000000000
B0713443255589S11704974EA0036000345000000000000
B0713483255641S11704985EA0034900333000000000000
B0713523255693S11704990EA0034000325000000000000
B0713563255737S11704992EA0033700325000000000000
B0714003255771S11704994EA0033700325000000000000
B0714043255796S11704994EA0033700326000000000000
B0714083255810S11704992EA0033800328000000000000
B0714123255818S11704989EA0034000328000000000000
B0714163255819S11704987EA0034000329000000000000
B0714203255819S11704987EA0033900328000000000000
B0714243255819S11704987EA0033900329000000000000
B0714283255818S11704989EA0033900328000000000000
B0714323255818S11704987EA0034000329000000000000
B0714363255818S11704987EA0034000329000000000000
G00030000005B4249E50000000000000000000000000000000000000000000000
G04EDA45B44EB6CF894100CE74E4E9FD7582160A400000000E07EE6F2C5D819CE
GB1C1777014FD2422D1A96B7410CFAD699326C79A0000000000000000CD897A03
