ACAM4N6
HFDTE180223
HFFXA050
HFPLTPILOT:JOHN WELSH              
HFGTYGLIDERTYPE:HORNET      
HFGIDGLIDERID:VH-GMY      
HFDTM100GPSDATUM:
HFRFWFIRMWAREVERSION:F2.6
HFRHWHARDWAREVERSION:300 Series Version 2
HFFTYFRTYPE:CAMBRIDGE AERO INSTRUMENTS, 302+
HFGPS:GARMIN,LVS-25,12,18000
HFPRSPRESSALTSENSOR:INTERSEMA, MS5534-AP, 20000
I033638FXA3941ENL4247REX
LCAMSBVER:5FWVER:F26300
C180223051851180223000103
C0000000N00000000WTAKEOFF     
C3207549S11656849EBEVERLEY AF 
C3255649S11704982ENarrogin AF 
C3256166S11710665ENarroginSilo
C3137399S11712982ECunderdnrdrm
C3207549S11656849EBEVERLEY AF 
C0000000N00000000WLANDING     
B0538433207337S11656869EA0022800210000000000000
B0538453207337S11656869EA0022800210000000000000
B0538473207337S11656869EA0022700210000000000000
B0538493207337S11656869EA0022800210000000000000
B0538513207337S11656869EA0022800210000000000000
B0538533207337S11656869EA0022900210000000000000
B0538553207337S11656869EA0022800210000000000000
B0538573207337S11656869EA0022800210000000000000
B0538593207338S11656869EA0022800210000000000000
B0539013207338S11656869EA0022800210000000000000
B0539033207338S11656869EA0022800210000000000000
B0539053207338S11656869EA0022800210000000000000
B0539073207338S11656869EA0022800210000000000000
B0539093207338S11656869EA0022800210000000000000
B0539113207339S11656869EA0022800210000000000000
B0539143207347S11656874EA0022800210000000000000
B0539183207371S11656890EA0022800209000000000000
B0539223207408S11656912EA0022800210000000000000
B0539263207458S11656942EA0022900210000000000000
B0539303207518S11656977EA0023100213000000000000
B0539343207581S11657016EA0024200223000000000000
B0539383207644S11657060EA0024600229000000000000
B0539423207702S11657107EA0025400247000000000000
B0539463207761S11657152EA0027100266000000000000
B0539503207823S11657196EA0028500278000000000000
B0539543207887S11657241EA0029600287000000000000
B0539583207952S11657287EA0030800299000000000000
B0540023208018S11657332EA0032500319000000000000
B0540063208087S11657372EA0033900340000000000000
B0540103208155S11657408EA0036900368000000000000
B0540143208218S11657442EA0038700395000000000000
B0540183208283S11657467EA0041100417000000000000
B0540223208352S11657486EA0042600427000000000000
B0540263208420S11657514EA0043300438000000000000
B0540303208485S11657553EA0044500450000000000000
B0540343208538S11657607EA0045600463000000000000
B0540383208577S11657672EA0047500486000000000000
B0540423208604S11657745EA0049900511000000000000
B0540463208620S11657820EA0051900531000000000000
B0540503208615S11657900EA0053500545000000000000
B0540543208580S11657972EA0054700555000000000000
B0540583208524S11658031EA0055400561000000000000
B0541023208455S11658073EA0056100570000000000000
B0541063208377S11658089EA0057200581000000000000
B0541103208295S11658082EA0058300588000000000000
B0541143208216S11658058EA0059900613000000000000
B0541183208142S11658017EA0061900631000000000000
B0541223208073S11657958EA0063200645000000000000
B0541263208012S11657888EA0064700662000000000000
B0541303207967S11657806EA0067300693000000000000
B0541343207937S11657719EA0069600715000000000000
B0541383207937S11657625EA0071000734000000000000
B0541423207969S11657542EA0073000748000000000000
B0541463208015S11657467EA0073900760000000000000
B0541503208073S11657404EA0075200776000000000000
B0541543208139S11657359EA0076800790000000000000
B0541583208210S11657337EA0078100806000000000000
B0542023208281S11657334EA0079500821000000000000
B0542063208351S11657345EA0081000834000000000000
B0542103208417S11657372EA0082300848000000000000
B0542143208477S11657412EA0082700845000000000000
B0542183208535S11657421EA0082900849000000000000
B0542223208582S11657378EA0082700843000000000000
B0542263208587S11657300EA0081800827000000000000
B0542303208542S11657241EA0080400815000000000000
B0542343208477S11657220EA0078800798000000000000
B0542383208408S11657218EA0077200783000000000000
B0542423208337S11657229EA0075900775000000000000
B0542463208268S11657243EA0075600770000000000000
B0542503208200S11657265EA0074900761000000000000
B0542543208135S11657299EA0073800750000000000000
B0542583208079S11657350EA0072900741000000000000
B0543023208036S11657408EA0072500740000000000000
B0543063207999S11657468EA0072300735000000000000
B0543103207965S11657530EA0071800730000000000000
B0543143207934S11657595EA0071600728000000000000
B0543183207908S11657660EA0071800733000000000000
B0543223207935S11657703EA0072500741000000000000
B0543263207976S11657664EA0072900741000000000000
B0543303207965S11657588EA0073100747000000000000
B0543343207911S11657550EA0074200760000000000000
B0543383207875S11657594EA0074400755000000000000
B0543423207905S11657638EA0074100757000000000000
B0543463207952S11657606EA0074200754000000000000
B0543503207961S11657525EA0074200757000000000000
B0543543207906S11657490EA0074800763000000000000
B0543583207871S11657543EA0074200751000000000000
B0544023207897S11657602EA0074000758000000000000
B0544063207943S11657573EA0074900763000000000000
B0544103207922S11657501EA0075000766000000000000
B0544143207865S11657490EA0075400767000000000000
B0544183207836S11657545EA0075000762000000000000
B0544223207863S11657597EA0074700761000000000000
B0544263207914S11657615EA0075300773000000000000
B0544303207957S11657569EA0076000775000000000000
B0544343207945S11657498EA0076000773000000000000
B0544383207892S11657468EA0075800772000000000000
B0544423207853S11657508EA0075400768000000000000
B0544463207875S11657562EA0075300772000000000000
B0544503207928S11657568EA0076100779000000000000
B0544543207962S11657514EA0076500779000000000000
B0544583207943S11657446EA0076400778000000000000
B0545023207889S11657424EA0076100776000000000000
B0545063207841S11657451EA0075500765000000000000
B0545103207785S11657478EA0075100764000000000000
B0545143207722S11657499EA0074400756000000000000
B0545183207651S11657511EA0073300744000000000000
B0545223207580S11657521EA0072900741000000000000
B0545263207508S11657534EA0072800738000000000000
B0545303207438S11657550EA0072500737000000000000
B0545343207368S11657567EA0072500741000000000000
B0545383207300S11657581EA0073400749000000000000
B0545423207233S11657589EA0072900739000000000000
B0545463207163S11657603EA0072200734000000000000
B0545503207103S11657642EA0072300739000000000000
B0545543207072S11657706EA0073800755000000000000
B0545583207112S11657731EA0075100763000000000000
B0546023207122S11657664EA0075100765000000000000
B0546063207060S11657640EA0075900774000000000000
B0546103207030S11657701EA0076900787000000000000
B0546143207076S11657740EA0078000795000000000000
B0546183207112S11657690EA0079000807000000000000
B0546223207085S11657625EA0080000816000000000000
B0546263207020S11657625EA0080600830000000000000
B0546303207005S11657688EA0082000841000000000000
B0546343207055S11657714EA0082500844000000000000
B0546383207078S11657657EA0083700864000000000000
B0546423207033S11657610EA0085000873000000000000
B0546463206983S11657642EA0085700880000000000000
B0546503207003S11657701EA0086200883000000000000
B0546543207052S11657679EA0087200901000000000000
B0546583207046S11657616EA0089000917000000000000
B0547023206991S11657597EA0089800918000000000000
B0547063206956S11657647EA0090000925000000000000
B0547103206986S11657697EA0090500927000000000000
B0547143207027S11657662EA0090900936000000000000
B0547183206995S11657603EA0092400953000000000000
B0547223206938S11657612EA0093400958000000000000
B0547263206922S11657676EA0093800965000000000000
B0547303206964S11657710EA0094600972000000000000
B0547343207007S11657672EA0094800972000000000000
B0547383206994S11657599EA0095700990000000000000
B0547423206936S11657576EA0097201004000000000000
B0547463206892S11657621EA0098001012000000000000
B0547503206907S11657681EA0099001024000000000000
B0547543206960S11657684EA0099501020000000000000
B0547583206975S11657615EA0099601029000000000000
B0548023206926S11657562EA0100701046000000000000
B0548063206866S11657577EA0102601060000000000000
B0548103206857S11657640EA0103501070000000000000
B0548143206905S11657659EA0104601080000000000000
B0548183206936S11657610EA0105301089000000000000
B0548223206899S11657554EA0105801091000000000000
B0548263206836S11657568EA0106701106000000000000
B0548303206825S11657631EA0107901116000000000000
B0548343206871S11657660EA0109001125000000000000
B0548383206912S11657620EA0109901138000000000000
B0548423206894S11657560EA0111001147000000000000
B0548463206831S11657547EA0111201148000000000000
B0548503206790S11657601EA0111601155000000000000
B0548543206817S11657657EA0112501165000000000000
B0548583206874S11657657EA0113601176000000000000
B0549023206901S11657601EA0114201183000000000000
B0549063206864S11657551EA0115401197000000000000
B0549103206808S11657571EA0116101201000000000000
B0549143206797S11657634EA0116601208000000000000
B0549183206843S11657668EA0117201213000000000000
B0549223206890S11657632EA0117601217000000000000
B0549263206882S11657564EA0118001221000000000000
B0549303206829S11657533EA0119001233000000000000
B0549343206787S11657581EA0119601238000000000000
B0549383206808S11657642EA0120201242000000000000
B0549423206862S11657633EA0120601248000000000000
B0549463206901S11657579EA0121101251000000000000
B0549503206908S11657503EA0121401256000000000000
B0549543206856S11657452EA0121201250000000000000
B0549583206786S11657475EA0120901250000000000000
B0550023206739S11657541EA0121101256000000000000
B0550063206727S11657618EA0122501276000000000000
B0550103206778S11657638EA0124201287000000000000
B0550143206810S11657584EA0124601286000000000000
B0550183206771S11657523EA0125101298000000000000
B0550223206709S11657517EA0126101306000000000000
B0550263206682S11657579EA0127101321000000000000
B0550303206722S11657620EA0128301330000000000000
B0550343206774S11657592EA0128601330000000000000
B0550383206778S11657523EA0129301341000000000000
B0550423206723S11657494EA0130101349000000000000
B0550463206675S11657536EA0130701357000000000000
B0550503206676S11657602EA0132001369000000000000
B0550543206725S11657631EA0132301367000000000000
B0550583206780S11657601EA0132201371000000000000
B0551023206793S11657533EA0133201384000000000000
B0551063206749S11657488EA0134001391000000000000
B0551103206692S11657507EA0134701401000000000000
B0551143206679S11657572EA0135501406000000000000
B0551183206717S11657621EA0135701406000000000000
B0551223206774S11657614EA0136101412000000000000
B0551263206795S11657553EA0137001422000000000000
B0551303206754S11657503EA0137201422000000000000
B0551343206689S11657514EA0137301424000000000000
B0551383206647S11657571EA0137601427000000000000
B0551423206654S11657645EA0137801432000000000000
B0551463206706S11657683EA0137901427000000000000
B0551503206766S11657657EA0137301423000000000000
B0551543206810S11657593EA0137201424000000000000
B0551583206825S11657515EA0138001435000000000000
B0552023206779S11657462EA0139101446000000000000
B0552063206717S11657471EA0139601453000000000000
B0552103206712S11657536EA0140401459000000000000
B0552143206769S11657555EA0140601460000000000000
B0552183206809S11657499EA0140701465000000000000
B0552223206809S11657425EA0140801458000000000000
B0552263206761S11657372EA0140101455000000000000
B0552303206693S11657368EA0139801452000000000000
B0552343206635S11657411EA0139801458000000000000
B0552383206600S11657478EA0141001465000000000000
B0552423206621S11657541EA0141401469000000000000
B0552463206675S11657554EA0141401470000000000000
B0552503206725S11657520EA0141601474000000000000
B0552543206762S11657468EA0141701474000000000000
B0552583206787S11657402EA0141501469000000000000
B0553023206778S11657329EA0141401466000000000000
B0553063206735S11657272EA0140901464000000000000
B0553103206669S11657259EA0140801467000000000000
B0553143206606S11657283EA0140801463000000000000
B0553183206562S11657337EA0141201467000000000000
B0553223206558S11657410EA0141701473000000000000
B0553263206582S11657473EA0141901475000000000000
B0553303206635S11657499EA0141901470000000000000
B0553343206696S11657481EA0140801460000000000000
B0553383206758S11657441EA0140201456000000000000
B0553423206822S11657397EA0139601447000000000000
B0553463206881S11657341EA0138701438000000000000
B0553503206934S11657278EA0138101434000000000000
B0553543206983S11657213EA0137701429000000000000
B0553583207034S11657151EA0137001420000000000000
B0554023207090S11657094EA0136201409000000000000
B0554063207151S11657039EA0135301402000000000000
B0554103207213S11656988EA0135101403000000000000
B0554143207274S11656938EA0135001402000000000000
B0554183207332S11656886EA0135001401000000000000
B0554223207390S11656834EA0134401392000000000000
B0554263207459S11656791EA0133101378000000000000
B0554303207534S11656770EA0132701378000000000000
B0554343207610S11656767EA0132401374000000000000
B0554383207688S11656776EA0131701362000000000000
B0554423207767S11656793EA0130701351000000000000
B0554463207848S11656817EA0129601340000000000000
B0554503207926S11656849EA0128901333000000000000
B0554543208008S11656875EA0128001322000000000000
B0554583208093S11656896EA0127701326000000000000
B0555023208179S11656914EA0127501320000000000000
B0555063208268S11656929EA0126701313000000000000
B0555103208352S11656951EA0126701315000000000000
B0555143208428S11656982EA0126801316000000000000
B0555183208500S11657017EA0126301309000000000000
B0555223208577S11657048EA0125901303000000000000
B0555263208659S11657073EA0124601294000000000000
B0555303208740S11657095EA0125301306000000000000
B0555343208812S11657129EA0125901306000000000000
B0555383208884S11657163EA0125701304000000000000
B0555423208955S11657195EA0125101296000000000000
B0555463209033S11657215EA0124701297000000000000
B0555503209113S11657228EA0125101298000000000000
B0555543209192S11657239EA0125401307000000000000
B0555583209263S11657259EA0126601321000000000000
B0556023209330S11657282EA0127501324000000000000
B0556063209400S11657303EA0127301319000000000000
B0556103209471S11657321EA0126501307000000000000
B0556143209551S11657335EA0124801289000000000000
B0556183209635S11657345EA0123001273000000000000
B0556223209722S11657351EA0122101267000000000000
B0556263209803S11657356EA0122301263000000000000
B0556303209882S11657358EA0121901263000000000000
B0556343209958S11657361EA0122201267000000000000
B0556383210032S11657364EA0122301268000000000000
B0556423210103S11657371EA0122801277000000000000
B0556463210171S11657391EA0123201276000000000000
B0556503210235S11657420EA0123501283000000000000
B0556543210283S11657469EA0124501295000000000000
B0556583210319S11657527EA0124701290000000000000
B0557023210371S11657572EA0122801265000000000000
B0557063210449S11657586EA0120701250000000000000
B0557103210527S11657593EA0120401247000000000000
B0557143210606S11657598EA0120101245000000000000
B0557183210678S11657619EA0121301267000000000000
B0557223210727S11657663EA0123001277000000000000
B0557263210779S11657707EA0122101251000000000000
B0557303210848S11657731EA0120601250000000000000
B0557343210918S11657742EA0120501248000000000000
B0557383210990S11657754EA0119701239000000000000
B0557423211065S11657759EA0118801226000000000000
B0557463211146S11657761EA0117401211000000000000
B0557503211229S11657762EA0116401203000000000000
B0557543211311S11657763EA0115701197000000000000
B0557583211392S11657764EA0115601197000000000000
B0558023211470S11657766EA0115101187000000000000
B0558063211548S11657766EA0114301182000000000000
B0558103211627S11657767EA0114501191000000000000
B0558143211701S11657772EA0115901207000000000000
B0558183211766S11657784EA0117401221000000000000
B0558223211818S11657824EA0118701232000000000000
B0558263211827S11657887EA0119401242000000000000
B0558303211776S11657907EA0120001244000000000000
B0558343211740S11657852EA0120101246000000000000
B0558383211743S11657776EA0120801255000000000000
B0558423211728S11657706EA0121901265000000000000
B0558463211675S11657693EA0122601269000000000000
B0558503211645S11657748EA0122501265000000000000
B0558543211653S11657815EA0122001260000000000000
B0558583211679S11657878EA0121701260000000000000
B0559023211718S11657933EA0122101266000000000000
B0559063211771S11657966EA0122501272000000000000
B0559103211834S11657948EA0123101277000000000000
B0559143211862S11657879EA0123501278000000000000
B0559183211839S11657803EA0123301272000000000000
B0559223211792S11657738EA0122601266000000000000
B0559263211732S11657696EA0123301278000000000000
B0559303211687S11657736EA0124801292000000000000
B0559343211713S11657789EA0125701300000000000000
B0559383211763S11657774EA0126601310000000000000
B0559423211772S11657707EA0126501307000000000000
B0559463211726S11657667EA0126801314000000000000
B0559503211676S11657697EA0127201318000000000000
B0559543211670S11657763EA0127201317000000000000
B0559583211715S11657806EA0127301322000000000000
B0600023211771S11657783EA0128001329000000000000
B0600063211788S11657711EA0128501328000000000000
B0600103211748S11657651EA0128401331000000000000
B0600143211688S11657660EA0129001338000000000000
B0600183211662S11657720EA0129601342000000000000
B0600223211691S11657780EA0129201332000000000000
B0600263211756S11657811EA0128601330000000000000
B0600303211827S11657835EA0128101326000000000000
B0600343211904S11657861EA0127001312000000000000
B0600383211983S11657883EA0126401306000000000000
B0600423212062S11657905EA0126201307000000000000
B0600463212142S11657923EA0125901301000000000000
B0600503212221S11657939EA0125501302000000000000
B0600543212298S11657952EA0126001306000000000000
B0600583212377S11657962EA0125801302000000000000
B0601023212456S11657971EA0125901306000000000000
B0601063212537S11657976EA0125401297000000000000
B0601103212620S11657983EA0124601289000000000000
B0601143212703S11657989EA0124101281000000000000
B0601183212785S11657998EA0123301276000000000000
B0601223212867S11658006EA0123201278000000000000
B0601263212945S11658015EA0123301277000000000000
B0601303213023S11658024EA0122801270000000000000
B0601343213100S11658032EA0121901258000000000000
B0601383213179S11658043EA0120401242000000000000
B0601423213258S11658057EA0119101229000000000000
B0601463213339S11658073EA0118301221000000000000
B0601503213421S11658089EA0117601211000000000000
B0601543213504S11658108EA0116501201000000000000
B0601583213589S11658127EA0115701194000000000000
B0602023213672S11658145EA0115001186000000000000
B0602063213755S11658164EA0114601188000000000000
B0602103213830S11658182EA0115101191000000000000
B0602143213898S11658213EA0114701183000000000000
B0602183213968S11658242EA0114001178000000000000
B0602223214032S11658281EA0114401185000000000000
B0602263214080S11658335EA0115501199000000000000
B0602303214129S11658377EA0116801209000000000000
B0602343214181S11658342EA0117301209000000000000
B0602383214172S11658268EA0117401215000000000000
B0602423214112S11658236EA0117901219000000000000
B0602463214050S11658260EA0118101217000000000000
B0602503214010S11658322EA0117801215000000000000
B0602543213988S11658396EA0117601213000000000000
B0602583213980S11658474EA0117101202000000000000
B0603023214014S11658546EA0115701186000000000000
B0603063214076S11658591EA0114401181000000000000
B0603103214148S11658615EA0114801190000000000000
B0603143214220S11658630EA0116201205000000000000
B0603183214271S11658583EA0118101221000000000000
B0603223214228S11658531EA0119201236000000000000
B0603263214179S11658570EA0120201245000000000000
B0603303214203S11658626EA0121201257000000000000
B0603343214259S11658603EA0122501270000000000000
B0603383214254S11658530EA0123201274000000000000
B0603423214194S11658518EA0124201288000000000000
B0603463214168S11658574EA0125301297000000000000
B0603503214206S11658621EA0126501310000000000000
B0603543214258S11658589EA0127401318000000000000
B0603583214252S11658516EA0127901327000000000000
B0604023214193S11658504EA0129001340000000000000
B0604063214171S11658560EA0129901346000000000000
B0604103214215S11658596EA0130601355000000000000
B0604143214263S11658557EA0131601368000000000000
B0604183214257S11658490EA0132601378000000000000
B0604223214203S11658478EA0134001392000000000000
B0604263214177S11658528EA0134901398000000000000
B0604303214214S11658570EA0135401402000000000000
B0604343214261S11658531EA0135501402000000000000
B0604383214245S11658461EA0136001409000000000000
B0604423214187S11658450EA0136901419000000000000
B0604463214164S11658507EA0137701429000000000000
B0604503214203S11658547EA0138201432000000000000
B0604543214259S11658522EA0138501436000000000000
B0604583214271S11658453EA0138901436000000000000
B0605023214239S11658386EA0138901443000000000000
B0605063214184S11658365EA0140101457000000000000
B0605103214145S11658411EA0141301466000000000000
B0605143214176S11658460EA0142401479000000000000
B0605183214224S11658429EA0143101482000000000000
B0605223214216S11658360EA0143301491000000000000
B0605263214162S11658348EA0144501501000000000000
B0605303214136S11658407EA0144901503000000000000
B0605343214174S11658457EA0145901516000000000000
B0605383214227S11658433EA0146701524000000000000
B0605423214229S11658365EA0147001525000000000000
B0605463214177S11658334EA0147301532000000000000
B0605503214129S11658370EA0148201539000000000000
B0605543214125S11658439EA0148701544000000000000
B0605583214176S11658469EA0149801560000000000000
B0606023214222S11658424EA0150801567000000000000
B0606063214214S11658353EA0151401573000000000000
B0606103214162S11658326EA0151801578000000000000
B0606143214111S11658361EA0152301583000000000000
B0606183214116S11658425EA0153001591000000000000
B0606223214170S11658427EA0154301606000000000000
B0606263214187S11658361EA0154901609000000000000
B0606303214144S11658318EA0155301618000000000000
B0606343214092S11658343EA0155801620000000000000
B0606383214094S11658407EA0155901616000000000000
B0606423214157S11658437EA0154901606000000000000
B0606463214236S11658448EA0154201596000000000000
B0606503214323S11658455EA0152801579000000000000
B0606543214415S11658459EA0151301566000000000000
B0606583214512S11658465EA0150401555000000000000
B0607023214606S11658473EA0149201546000000000000
B0607063214703S11658479EA0148801540000000000000
B0607103214796S11658486EA0148101536000000000000
B0607143214887S11658496EA0147901531000000000000
B0607183214977S11658508EA0147401527000000000000
B0607223215067S11658517EA0147201524000000000000
B0607263215156S11658525EA0146001508000000000000
B0607303215250S11658537EA0144901500000000000000
B0607343215341S11658551EA0144401496000000000000
B0607383215432S11658568EA0143901491000000000000
B0607423215520S11658583EA0143901492000000000000
B0607463215609S11658602EA0143901491000000000000
B0607503215695S11658616EA0143901491000000000000
B0607543215778S11658632EA0143801489000000000000
B0607583215864S11658648EA0143401485000000000000
B0608023215947S11658664EA0143401489000000000000
B0608063216027S11658680EA0143501486000000000000
B0608103216109S11658694EA0143001483000000000000
B0608143216190S11658710EA0142601477000000000000
B0608183216270S11658729EA0141801468000000000000
B0608223216350S11658749EA0141001459000000000000
B0608263216429S11658768EA0140101449000000000000
B0608303216510S11658786EA0139301441000000000000
B0608343216590S11658806EA0138701437000000000000
B0608383216671S11658824EA0138101427000000000000
B0608423216750S11658841EA0137201421000000000000
B0608463216829S11658856EA0136201409000000000000
B0608503216910S11658873EA0135301402000000000000
B0608543216989S11658885EA0136401417000000000000
B0608583217065S11658889EA0136901424000000000000
B0609023217136S11658902EA0138301443000000000000
B0609063217203S11658914EA0140001458000000000000
B0609103217256S11658871EA0140501452000000000000
B0609143217231S11658793EA0139801448000000000000
B0609183217164S11658755EA0139301445000000000000
B0609223217089S11658728EA0139601451000000000000
B0609263217019S11658725EA0140701463000000000000
B0609303216974S11658780EA0141001462000000000000
B0609343216975S11658854EA0141101465000000000000
B0609383217021S11658906EA0141201466000000000000
B0609423217082S11658940EA0141501470000000000000
B0609463217148S11658967EA0142001473000000000000
B0609503217214S11658996EA0142601483000000000000
B0609543217281S11659020EA0143501489000000000000
B0609583217352S11659037EA0143701491000000000000
B0610023217422S11659058EA0144401500000000000000
B0610063217489S11659057EA0144701495000000000000
B0610103217556S11659022EA0143701489000000000000
B0610143217625S11659037EA0143901495000000000000
B0610183217682S11659080EA0144001490000000000000
B0610223217742S11659128EA0143001480000000000000
B0610263217806S11659175EA0142401474000000000000
B0610303217872S11659217EA0141401461000000000000
B0610343217944S11659253EA0140201446000000000000
B0610383218023S11659280EA0138201425000000000000
B0610423218109S11659300EA0136301408000000000000
B0610463218196S11659313EA0135001395000000000000
B0610503218285S11659323EA0134001383000000000000
B0610543218374S11659330EA0133401382000000000000
B0610583218461S11659332EA0133101376000000000000
B0611023218547S11659331EA0132701374000000000000
B0611063218633S11659330EA0133001380000000000000
B0611103218709S11659327EA0134101393000000000000
B0611143218779S11659328EA0134701398000000000000
B0611183218848S11659332EA0135401404000000000000
B0611223218911S11659360EA0135601406000000000000
B0611263218960S11659406EA0135501404000000000000
B0611303219011S11659456EA0134501386000000000000
B0611343219071S11659501EA0133201380000000000000
B0611383219132S11659543EA0132901373000000000000
B0611423219201S11659578EA0131801361000000000000
B0611463219271S11659612EA0130901354000000000000
B0611503219342S11659642EA0130701350000000000000
B0611543219418S11659662EA0130301351000000000000
B0611583219494S11659674EA0130401352000000000000
B0612023219571S11659682EA0130101344000000000000
B0612063219652S11659691EA0129001332000000000000
B0612103219735S11659701EA0128101321000000000000
B0612143219818S11659716EA0126901309000000000000
B0612183219901S11659733EA0125801297000000000000
B0612223219983S11659751EA0124601284000000000000
B0612263220065S11659768EA0123501274000000000000
B0612303220147S11659783EA0122501264000000000000
B0612343220230S11659796EA0121501253000000000000
B0612383220315S11659811EA0120801245000000000000
B0612423220397S11659830EA0120301243000000000000
B0612463220477S11659852EA0120301244000000000000
B0612503220558S11659870EA0120701250000000000000
B0612543220632S11659883EA0121901264000000000000
B0612583220702S11659896EA0122201264000000000000
B0613023220771S11659911EA0121801258000000000000
B0613063220841S11659924EA0121401254000000000000
B0613103220911S11659935EA0121001250000000000000
B0613143220983S11659948EA0120301243000000000000
B0613183221056S11659961EA0119801233000000000000
B0613223221131S11659974EA0119001225000000000000
B0613263221205S11659989EA0118101215000000000000
B0613303221278S11700008EA0117201205000000000000
B0613343221351S11700030EA0116501204000000000000
B0613383221422S11700052EA0116401201000000000000
B0613423221494S11700072EA0115701189000000000000
B0613463221568S11700090EA0114601178000000000000
B0613503221643S11700104EA0113701166000000000000
B0613543221721S11700117EA0112501156000000000000
B0613583221801S11700130EA0111501144000000000000
B0614023221883S11700141EA0110601133000000000000
B0614063221961S11700160EA0109901130000000000000
B0614103222037S11700181EA0109401121000000000000
B0614143222117S11700188EA0108401110000000000000
B0614183222196S11700184EA0107101096000000000000
B0614223222276S11700180EA0106201088000000000000
B0614263222357S11700180EA0105801087000000000000
B0614303222434S11700184EA0106101093000000000000
B0614343222508S11700184EA0107001102000000000000
B0614383222565S11700137EA0108501126000000000000
B0614423222556S11700060EA0110401143000000000000
B0614463222495S11700049EA0112301166000000000000
B0614503222474S11700108EA0114101180000000000000
B0614543222522S11700146EA0115101187000000000000
B0614583222568S11700095EA0115901199000000000000
B0615023222538S11700026EA0117701224000000000000
B0615063222481S11700034EA0120301248000000000000
B0615103222464S11700095EA0121501255000000000000
B0615143222510S11700133EA0122001259000000000000
B0615183222560S11700091EA0123101274000000000000
B0615223222546S11700019EA0124601289000000000000
B0615263222484S11700003EA0125901309000000000000
B0615303222453S11700058EA0127401321000000000000
B0615343222499S11700094EA0128201322000000000000
B0615383222538S11700033EA0128801337000000000000
B0615423222499S11659968EA0130301359000000000000
B0615463222436S11659977EA0132401377000000015000
B0615503222425S11700041EA0133801386000000000000
B0615543222477S11700067EA0134101387000000000000
B0615583222509S11700002EA0134901407000000000000
B0616023222464S11659950EA0137001429000000000000
B0616063222410S11659974EA0138601436000000015000
B0616103222416S11700041EA0138901439000000000000
B0616143222474S11700058EA0139501451000000000000
B0616183222522S11700012EA0141301470000000000000
B0616223222501S11659948EA0143101486000000015000
B0616263222453S11659978EA0144601503000000015000
B0616303222477S11700034EA0145301505000000000000
B0616343222530S11700006EA0146001519000000000000
B0616383222526S11659932EA0147701538000000000000
B0616423222471S11659899EA0149001553000000015000
B0616463222425S11659941EA0150301566000000015000
B0616503222443S11700004EA0151301573000000000000
B0616543222497S11700002EA0152301587000000000000
B0616583222504S11659934EA0153401597000000000000
B0617023222448S11659899EA0154601612000000000000
B0617063222403S11659943EA0155801620000000000000
B0617103222413S11700010EA0156101621000000000000
B0617143222468S11700041EA0156501628000000000000
B0617183222522S11700011EA0157501639000000000000
B0617223222516S11659943EA0158701651000000000000
B0617263222456S11659928EA0159401659000000000000
B0617303222423S11659984EA0160001664000000000000
B0617343222456S11700042EA0160501670000000000000
B0617383222514S11700034EA0161001671000000000000
B0617423222527S11659960EA0160701668000000000000
B0617463222495S11659882EA0160701672000000000000
B0617503222431S11659869EA0161801683000000000000
B0617543222419S11659938EA0163001696000000000000
B0617583222473S11659981EA0163301694000000000000
B0618023222527S11659945EA0163801706000000000000
B0618063222530S11659865EA0164401710000000000000
B0618103222490S11659795EA0164501709000000000000
B0618143222425S11659799EA0165401720000000000000
B0618183222443S11659870EA0166401733000000000000
B0618223222509S11659851EA0167901744000000000000
B0618263222496S11659772EA0168801758000000000000
B0618303222434S11659760EA0170101771000000000000
B0618343222392S11659812EA0171601788000000000000
B0618383222412S11659877EA0172501794000000000000
B0618423222475S11659882EA0172501790000000000000
B0618463222500S11659808EA0172701800000000000000
B0618503222481S11659727EA0173301803000000000000
B0618543222421S11659683EA0173601808000000000000
B0618583222367S11659725EA0175201836000000000000
B0619023222399S11659785EA0177801856000000000000
B0619063222456S11659756EA0178301848000000000000
B0619103222457S11659672EA0178201858000000000000
B0619143222403S11659630EA0179601875000000015000
B0619183222362S11659683EA0181501895000000015000
B0619223222390S11659747EA0182901910000000000000
B0619263222448S11659752EA0183901913000000000000
B0619303222483S11659690EA0184101915000000000000
B0619343222469S11659610EA0184301918000000000000
B0619383222422S11659561EA0185501934000000000000
B0619423222371S11659590EA0186601942000000015000
B0619463222382S11659659EA0186801944000000015000
B0619503222442S11659681EA0187201955000000000000
B0619543222487S11659633EA0188401963000000000000
B0619583222460S11659573EA0188601963000000015000
B0620023222400S11659575EA0189101974000000015000
B0620063222365S11659633EA0189901975000000015000
B0620103222370S11659714EA0189401971000000015000
B0620143222388S11659798EA0189601976000000000000
B0620183222416S11659877EA0189801970000000000000
B0620223222470S11659942EA0187901947000000000000
B0620263222548S11659987EA0186701941000000000000
B0620303222631S11700024EA0185901929000000000000
B0620343222720S11700052EA0185501929000000000000
B0620383222808S11700082EA0184901916000000000000
B0620423222898S11700111EA0183401900000000000000
B0620463222989S11700141EA0182101887000000000000
B0620503223081S11700169EA0180701875000000000000
B0620543223171S11700199EA0180001870000000000000
B0620583223259S11700227EA0178701849000000000000
B0621023223352S11700257EA0176501830000000000000
B0621063223446S11700285EA0174901814000000000000
B0621103223543S11700315EA0173701799000000000000
B0621143223640S11700349EA0172601791000000000000
B0621183223735S11700383EA0172101787000000000000
B0621223223830S11700415EA0171701784000000000000
B0621263223925S11700448EA0171601783000000000000
B0621303224018S11700479EA0171401780000000000000
B0621343224113S11700510EA0171101776000000000000
B0621383224208S11700543EA0170901773000000000000
B0621423224303S11700580EA0170601769000000000000
B0621463224395S11700617EA0170101759000000000000
B0621503224492S11700652EA0168901748000000000000
B0621543224590S11700687EA0168001740000000000000
B0621583224687S11700722EA0167501736000000000000
B0622023224782S11700758EA0166801728000000000000
B0622063224875S11700797EA0166001718000000000000
B0622103224970S11700836EA0165101709000000000000
B0622143225068S11700874EA0164301702000000000000
B0622183225164S11700910EA0163701693000000000000
B0622223225259S11700946EA0163101687000000000000
B0622263225354S11700983EA0161901673000000000000
B0622303225446S11701029EA0160901665000000000000
B0622343225539S11701072EA0159901650000000000000
B0622383225633S11701112EA0158701641000000000000
B0622423225724S11701152EA0158401645000000000000
B0622463225812S11701190EA0159501659000000000000
B0622503225896S11701224EA0160901669000000000000
B0622543225978S11701255EA0160901667000000000000
B0622583226061S11701284EA0160501660000000000000
B0623023226147S11701311EA0159601654000000000000
B0623063226232S11701334EA0160001662000000000000
B0623103226317S11701354EA0160401663000000000000
B0623143226404S11701373EA0159701650000000000000
B0623183226496S11701393EA0159401653000000000000
B0623223226586S11701408EA0159801655000000000000
B0623263226676S11701421EA0159201648000000000000
B0623303226765S11701437EA0158401638000000000000
B0623343226858S11701450EA0157601631000000000000
B0623383226951S11701463EA0157201623000000000000
B0623423227046S11701473EA0155801603000000000000
B0623463227146S11701480EA0153701585000000000000
B0623503227245S11701489EA0152701579000000000000
B0623543227341S11701499EA0152201577000000000000
B0623583227437S11701512EA0152101573000000000000
B0624023227531S11701528EA0151401565000000000000
B0624063227622S11701542EA0151201566000000000000
B0624103227710S11701553EA0150601553000000000000
B0624143227801S11701566EA0149001535000000000000
B0624183227895S11701572EA0147401525000000000000
B0624223227986S11701573EA0147801530000000000000
B0624263228074S11701579EA0147401522000000000000
B0624303228164S11701585EA0146601513000000000000
B0624343228251S11701594EA0146301512000000000000
B0624383228337S11701605EA0145701502000000000000
B0624423228428S11701614EA0143901480000000000000
B0624463228524S11701622EA0142601472000000000000
B0624503228618S11701632EA0142201464000000000000
B0624543228711S11701649EA0140801451000000000000
B0624583228804S11701666EA0139901443000000000000
B0625023228888S11701677EA0140701465000000000000
B0625063228964S11701684EA0142301479000000000000
B0625103229033S11701690EA0143601491000000000000
B0625143229088S11701733EA0144701504000000000000
B0625183229120S11701800EA0145601507000000000000
B0625223229140S11701872EA0145901513000000000000
B0625263229148S11701947EA0146801524000000000000
B0625303229155S11702018EA0148101537000000000000
B0625343229199S11702062EA0148901543000000000000
B0625383229251S11702015EA0149501554000000000000
B0625423229229S11701947EA0151201572000000000000
B0625463229173S11701943EA0152201576000000000000
B0625503229150S11701997EA0152401584000000000000
B0625543229186S11702041EA0153301594000000000000
B0625583229239S11702017EA0154101601000000000000
B0626023229241S11701944EA0154901607000000000000
B0626063229185S11701918EA0155001608000000000000
B0626103229144S11701963EA0155701616000000000000
B0626143229161S11702026EA0156301620000000000000
B0626183229216S11702040EA0157001632000000000000
B0626223229242S11701980EA0158201645000000000000
B0626263229200S11701931EA0158801650000000000000
B0626303229148S11701949EA0159601658000000015000
B0626343229143S11702010EA0159701653000000000000
B0626383229163S11702077EA0159301655000000000000
B0626423229207S11702119EA0159901664000000000000
B0626463229268S11702131EA0160301665000000000000
B0626503229335S11702139EA0159501648000000000000
B0626543229415S11702147EA0158101638000000000000
B0626583229501S11702153EA0156801620000000000000
B0627023229590S11702160EA0155301606000000000000
B0627063229681S11702169EA0154401602000000000000
B0627103229771S11702179EA0154101593000000000000
B0627143229865S11702191EA0153701601000000000000
B0627183229950S11702213EA0155301620000000000000
B0627223230027S11702239EA0157201635000000000000
B0627263230101S11702260EA0157001620000000000000
B0627303230187S11702270EA0155001600000000000000
B0627343230279S11702277EA0153401579000000000000
B0627383230374S11702282EA0151501564000000000000
B0627423230466S11702285EA0150901562000000000000
B0627463230556S11702286EA0150801563000000000000
B0627503230645S11702287EA0150701560000000000000
B0627543230730S11702288EA0150101553000000000000
B0627583230815S11702292EA0149801552000000000000
B0628023230899S11702295EA0149501547000000000000
B0628063230984S11702300EA0149401547000000000000
B0628103231066S11702305EA0148801536000000000000
B0628143231150S11702312EA0147501522000000000000
B0628183231237S11702322EA0146101503000000000000
B0628223231326S11702348EA0144001484000000000000
B0628263231412S11702389EA0143001474000000000000
B0628303231492S11702438EA0141601460000000000000
B0628343231566S11702498EA0140201443000000000000
B0628383231636S11702565EA0138401424000000000000
B0628423231711S11702632EA0137001412000000000000
B0628463231785S11702694EA0136801411000000000000
B0628503231859S11702754EA0136701412000000000000
B0628543231932S11702815EA0137801428000000000000
B0628583232011S11702829EA0139801448000000000000
B0629023232059S11702759EA0141701469000000000000
B0629063232045S11702669EA0142701472000000000000
B0629103232010S11702586EA0142501472000000000000
B0629143231942S11702539EA0142801475000000000000
B0629183231867S11702535EA0143801491000000000000
B0629223231829S11702591EA0146001513000000000000
B0629263231860S11702645EA0147101522000000000000
B0629303231916S11702625EA0147201520000000000000
B0629343231928S11702554EA0147101520000000000000
B0629383231894S11702483EA0147301529000000000000
B0629423231841S11702451EA0149001548000000000000
B0629463231800S11702495EA0150201552000000000000
B0629503231817S11702564EA0150201555000000000000
B0629543231874S11702593EA0150801561000000000000
B0629583231926S11702552EA0151001561000000000000
B0630023231939S11702477EA0151301569000000000000
B0630063231933S11702399EA0152101576000000000000
B0630103231890S11702351EA0153201593000000000000
B0630143231850S11702389EA0154301594000000000000
B0630183231890S11702443EA0153801592000000000000
B0630223231956S11702429EA0154401608000000000000
B0630263231973S11702360EA0156301622000000000000
B0630303231928S11702317EA0157101633000000000000
B0630343231885S11702352EA0158101640000000000000
B0630383231898S11702415EA0158501646000000000000
B0630423231952S11702438EA0159101653000000000000
B0630463232003S11702399EA0160001660000000000000
B0630503232000S11702326EA0160501665000000000000
B0630543231943S11702295EA0161401676000000000000
B0630583231900S11702333EA0162401685000000000000
B0631023231912S11702398EA0162601687000000000000
B0631063231965S11702430EA0163201697000000000000
B0631103232019S11702395EA0164001703000000000000
B0631143232021S11702322EA0165101720000000000000
B0631183231971S11702287EA0166301730000000000000
B0631223231924S11702314EA0167401741000000000000
B0631263231920S11702376EA0168101747000000000000
B0631303231963S11702417EA0168701754000000000000
B0631343232019S11702395EA0169001756000000000000
B0631383232042S11702325EA0169901769000000000000
B0631423232015S11702262EA0171101786000000000000
B0631463231961S11702255EA0172201792000000000000
B0631503231926S11702300EA0172501795000000000000
B0631543231942S11702366EA0172601796000000000000
B0631583231991S11702408EA0173501808000000000000
B0632023232050S11702391EA0174601818000000000000
B0632063232076S11702329EA0175301822000000000000
B0632103232047S11702266EA0175701827000000000000
B0632143231990S11702268EA0176801841000000000000
B0632183231976S11702330EA0178001852000000000000
B0632223232020S11702372EA0178601857000000000000
B0632263232075S11702342EA0179101865000000000000
B0632303232088S11702274EA0179901870000000000000
B0632343232046S11702225EA0180501882000000000000
B0632383231991S11702235EA0181601893000000015000
B0632423231967S11702290EA0182501902000000015000
B0632463231987S11702351EA0183201907000000000000
B0632503232042S11702379EA0183701913000000000000
B0632543232099S11702356EA0184201917000000000000
B0632583232128S11702294EA0184101911000000000000
B0633023232117S11702218EA0183701912000000000000
B0633063232090S11702148EA0184101918000000000000
B0633103232036S11702131EA0184701923000000000000
B0633143232006S11702184EA0185001918000000000000
B0633183232052S11702247EA0183601901000000000000
B0633223232129S11702281EA0182701896000000000000
B0633263232212S11702307EA0181501875000000000000
B0633303232305S11702327EA0180301867000000000000
B0633343232400S11702340EA0179901867000000000000
B0633383232491S11702350EA0181301889000000000000
B0633423232570S11702377EA0182901898000000000000
B0633463232648S11702407EA0182201879000000000000
B0633503232735S11702426EA0180101857000000000000
B0633543232830S11702439EA0178301838000000000000
B0633583232927S11702447EA0176601826000000000000
B0634023233026S11702452EA0175701820000000000000
B0634063233124S11702460EA0174801808000000000000
B0634103233220S11702470EA0173601794000000000000
B0634143233315S11702482EA0172801788000000000000
B0634183233406S11702493EA0173201802000000000000
B0634223233493S11702499EA0173701801000000000000
B0634263233581S11702507EA0173601800000000000000
B0634303233670S11702513EA0173101795000000000000
B0634343233755S11702524EA0173201799000000000000
B0634383233841S11702537EA0173201794000000000000
B0634423233937S11702542EA0173301799000000000000
B0634463234022S11702556EA0174201800000000000000
B0634503234110S11702571EA0173301792000000000000
B0634543234201S11702585EA0172301781000000000000
B0634583234292S11702600EA0171501774000000000000
B0635023234386S11702619EA0170501765000000000000
B0635063234482S11702636EA0169701758000000000000
B0635103234576S11702654EA0169201755000000000000
B0635143234671S11702671EA0168801752000000000000
B0635183234767S11702686EA0168501747000000000000
B0635223234864S11702702EA0167501736000000000000
B0635263234962S11702716EA0166401722000000000000
B0635303235062S11702730EA0165501719000000000000
B0635343235161S11702743EA0165201714000000000000
B0635383235258S11702755EA0164901713000000000000
B0635423235356S11702767EA0164401702000000000000
B0635463235455S11702781EA0163401693000000000000
B0635503235552S11702797EA0163001691000000000000
B0635543235651S11702810EA0162201681000000000000
B0635583235750S11702824EA0161301673000000000000
B0636023235850S11702837EA0160501666000000000000
B0636063235947S11702850EA0160301666000000000000
B0636103236041S11702863EA0160301664000000000000
B0636143236133S11702876EA0159701660000000000000
B0636183236223S11702889EA0159701658000000000000
B0636223236313S11702902EA0159101652000000000000
B0636263236397S11702916EA0159501662000000000000
B0636303236479S11702932EA0160701679000000000000
B0636343236556S11702948EA0162501693000000000000
B0636383236628S11702950EA0164201713000000000000
B0636423236658S11702885EA0166201734000000000000
B0636463236621S11702836EA0168001754000000000000
B0636503236569S11702859EA0168901753000000000000
B0636543236562S11702933EA0168901758000000000000
B0636583236604S11702994EA0169701769000000000000
B0637023236665S11702993EA0170801779000000000000
B0637063236690S11702931EA0171701788000000000000
B0637103236662S11702864EA0172501795000000000000
B0637143236609S11702840EA0173401812000000000000
B0637183236575S11702892EA0174701822000000000000
B0637223236602S11702954EA0175601830000000000000
B0637263236661S11702955EA0176501841000000000000
B0637303236684S11702892EA0177401848000000000000
B0637343236649S11702836EA0178601862000000000000
B0637383236593S11702841EA0179801870000000000000
B0637423236576S11702906EA0180801884000000000000
B0637463236618S11702955EA0181801892000000000000
B0637503236671S11702929EA0182401904000000000000
B0637543236674S11702862EA0183401912000000000000
B0637583236623S11702833EA0184301924000000000000
B0638023236586S11702881EA0185401936000000000000
B0638063236605S11702948EA0186401943000000000000
B0638103236666S11702961EA0187101951000000000000
B0638143236692S11702901EA0188301964000000000000
B0638183236652S11702858EA0189101972000000000000
B0638223236604S11702892EA0190401987000000000000
B0638263236608S11702962EA0191301994000000000000
B0638303236662S11702998EA0191701997000000000000
B0638343236718S11702970EA0192102000000000000000
B0638383236732S11702901EA0192302003000000000000
B0638423236710S11702834EA0192902015000000000000
B0638463236661S11702805EA0194102027000000000000
B0638503236618S11702850EA0194902042000000000000
B0638543236634S11702919EA0196502054000000000000
B0638583236691S11702948EA0197302056000000000000
B0639023236743S11702911EA0197602062000000000000
B0639063236745S11702846EA0198602072000000000000
B0639103236700S11702820EA0199602083000000000000
B0639143236657S11702859EA0200702095000000000000
B0639183236667S11702928EA0201302100000000000000
B0639223236727S11702961EA0201302099000000000000
B0639263236781S11702922EA0202102107000000000000
B0639303236778S11702858EA0202802115000000000000
B0639343236731S11702829EA0203602121000000000000
B0639383236691S11702873EA0204502135000000000000
B0639423236708S11702942EA0205802149000000000000
B0639463236768S11702958EA0206202146000000000000
B0639503236808S11702906EA0206102148000000000000
B0639543236804S11702836EA0206302153000000000000
B0639583236765S11702789EA0207102160000000000000
B0640023236712S11702812EA0207602167000000000000
B0640063236704S11702888EA0208602181000000000000
B0640103236751S11702945EA0209902193000000000000
B0640143236813S11702933EA0210902198000000000000
B0640183236831S11702868EA0211202200000000000000
B0640223236788S11702827EA0211602209000000000000
B0640263236735S11702851EA0212302212000000000000
B0640303236722S11702929EA0212702222000000000000
B0640343236765S11703000EA0213802231000000000000
B0640383236836S11703023EA0214402236000000000000
B0640423236900S11702997EA0214702236000000000000
B0640463236914S11702927EA0214702233000000000000
B0640503236886S11702860EA0214202230000000000000
B0640543236833S11702823EA0214702237000000000000
B0640583236777S11702853EA0215702252000000000000
B0641023236788S11702929EA0216802260000000000000
B0641063236855S11702971EA0216002239000000000000
B0641103236944S11703003EA0213602211000000000000
B0641143237043S11703029EA0212102202000000000000
B0641183237146S11703048EA0211202190000000000000
B0641223237252S11703061EA0210002181000000000000
B0641263237358S11703072EA0209002169000000000000
B0641303237463S11703088EA0208002164000000000000
B0641343237564S11703102EA0208202170000000000000
B0641383237662S11703119EA0208402170000000000000
B0641423237758S11703136EA0208102164000000000000
B0641463237856S11703152EA0207302157000000000000
B0641503237952S11703169EA0206802151000000000000
B0641543238047S11703185EA0206102141000000000000
B0641583238144S11703202EA0204702123000000000000
B0642023238240S11703218EA0203502116000000000000
B0642063238337S11703232EA0202602104000000000000
B0642103238432S11703243EA0201302093000000000000
B0642143238523S11703250EA0201302097000000000000
B0642183238608S11703257EA0202102107000000000000
B0642223238692S11703261EA0203602124000000000000
B0642263238770S11703262EA0204902142000000000000
B0642303238844S11703250EA0206702151000000000000
B0642343238897S11703193EA0206302135000000000000
B0642383238963S11703149EA0204302119000000000000
B0642423239048S11703141EA0202602097000000000000
B0642463239140S11703152EA0200802080000000000000
B0642503239234S11703165EA0200002078000000000000
B0642543239325S11703180EA0199502071000000000000
B0642583239417S11703198EA0198902067000000000000
B0643023239504S11703217EA0199402076000000000000
B0643063239592S11703234EA0199802076000000000000
B0643103239682S11703252EA0199402074000000000000
B0643143239773S11703269EA0199502073000000000000
B0643183239868S11703283EA0198802067000000000000
B0643223239958S11703297EA0199402075000000000000
B0643263240049S11703312EA0198802064000000000000
B0643303240142S11703330EA0197702053000000000000
B0643343240237S11703351EA0196302039000000000000
B0643383240335S11703375EA0195302030000000000000
B0643423240432S11703399EA0194802025000000000000
B0643463240527S11703422EA0194502017000000000000
B0643503240625S11703447EA0193502008000000000000
B0643543240722S11703469EA0192501997000000000000
B0643583240821S11703490EA0191301985000000000000
B0644023240920S11703508EA0190501977000000000000
B0644063241015S11703525EA0189801970000000000000
B0644103241110S11703542EA0188701959000000000000
B0644143241199S11703557EA0188301957000000000000
B0644183241288S11703572EA0187401946000000000000
B0644223241375S11703586EA0186901937000000000000
B0644263241464S11703603EA0185801927000000000000
B0644303241554S11703622EA0185201925000000000000
B0644343241645S11703639EA0185501935000000000000
B0644383241728S11703653EA0186801945000000000000
B0644423241814S11703666EA0187101948000000000000
B0644463241896S11703679EA0187701954000000000000
B0644503241979S11703694EA0187001936000000000000
B0644543242070S11703707EA0184701915000000000000
B0644583242166S11703718EA0183201899000000000000
B0645023242264S11703729EA0181901889000000000000
B0645063242361S11703738EA0181701886000000000000
B0645103242459S11703748EA0181101877000000000000
B0645143242558S11703760EA0180101863000000000000
B0645183242655S11703774EA0178701852000000000000
B0645223242751S11703790EA0177801846000000000000
B0645263242841S11703803EA0178401857000000000000
B0645303242927S11703816EA0178101845000000000000
B0645343243017S11703829EA0176401830000000000000
B0645383243108S11703845EA0175801827000000000000
B0645423243199S11703858EA0175201819000000000000
B0645463243287S11703872EA0175701831000000000000
B0645503243372S11703891EA0176401828000000000000
B0645543243459S11703911EA0175401817000000000000
B0645583243547S11703925EA0174001798000000000000
B0646023243642S11703930EA0172101783000000000000
B0646063243737S11703934EA0171301774000000000000
B0646103243830S11703936EA0170901779000000000000
B0646143243916S11703936EA0171601784000000000000
B0646183244001S11703933EA0171701781000000000000
B0646223244087S11703932EA0170901771000000000000
B0646263244176S11703933EA0170001756000000000000
B0646303244270S11703938EA0168101738000000000000
B0646343244366S11703943EA0166901727000000000000
B0646383244462S11703949EA0166001718000000000000
B0646423244560S11703958EA0164901709000000000000
B0646463244656S11703967EA0164501701000000000000
B0646503244756S11703978EA0163601693000000000000
B0646543244856S11703990EA0162701682000000000000
B0646583244958S11704002EA0161501668000000000000
B0647023245060S11704015EA0160401656000000000000
B0647063245162S11704030EA0159201644000000000000
B0647103245267S11704043EA0157701626000000000000
B0647143245374S11704058EA0156401617000000000000
B0647183245480S11704075EA0155201601000000000000
B0647223245589S11704094EA0153401581000000000000
B0647263245697S11704112EA0152701582000000000000
B0647303245799S11704131EA0152801579000000000000
B0647343245900S11704150EA0151801568000000000000
B0647383246004S11704164EA0151201562000000000000
B0647423246105S11704177EA0151201569000000000000
B0647463246202S11704188EA0151901574000000000000
B0647503246299S11704198EA0151201563000000000000
B0647543246401S11704206EA0150801560000000000000
B0647583246497S11704215EA0151101568000000000000
B0648023246589S11704229EA0151301563000000000000
B0648063246685S11704240EA0149701543000000000000
B0648103246783S11704248EA0148501534000000000000
B0648143246875S11704254EA0148401538000000000000
B0648183246963S11704259EA0148301532000000000000
B0648223247052S11704262EA0147101517000000000000
B0648263247142S11704266EA0145801503000000000000
B0648303247233S11704267EA0144201487000000000000
B0648343247321S11704271EA0143801487000000000000
B0648383247409S11704274EA0144601503000000000000
B0648423247483S11704242EA0147201534000000000000
B0648463247495S11704162EA0150201568000000000000
B0648503247446S11704114EA0152401587000000000000
B0648543247389S11704137EA0154101604000000000000
B0648583247385S11704197EA0155501615000000000000
B0649023247433S11704224EA0156101621000000000000
B0649063247477S11704185EA0157401635000000000000
B0649103247481S11704114EA0158401644000000000000
B0649143247438S11704056EA0159601658000000000000
B0649183247379S11704060EA0160901680000000000000
B0649223247355S11704106EA0162901692000000000000
B0649263247382S11704153EA0162801679000000000000
B0649303247442S11704170EA0162001687000000000000
B0649343247489S11704134EA0164101711000000000000
B0649383247487S11704066EA0165601718000000000000
B0649423247443S11704007EA0166101727000000000000
B0649463247386S11704003EA0167401745000000000000
B0649503247369S11704055EA0168901756000000000000
B0649543247403S11704097EA0168901751000000000000
B0649583247460S11704090EA0168901759000000000000
B0650023247502S11704036EA0170301770000000000000
B0650063247500S11703963EA0170701772000000000000
B0650103247454S11703906EA0170601772000000000000
B0650143247396S11703865EA0171301787000000000000
B0650183247351S11703897EA0172701797000000000000
B0650223247368S11703955EA0172801796000000000000
B0650263247429S11703986EA0172001784000000000000
B0650303247502S11704011EA0171601790000000000000
B0650343247574S11704016EA0172501792000000000000
B0650383247655S11704015EA0171201765000000000000
B0650423247745S11704019EA0168701746000000000000
B0650463247841S11704025EA0167401732000000000000
B0650503247936S11704030EA0166801732000000000000
B0650543248028S11704036EA0166701728000000000000
B0650583248122S11704042EA0166401728000000000000
B0651023248211S11704051EA0167901750000000000000
B0651063248289S11704075EA0170701782000000000000
B0651103248356S11704063EA0173301800000000000000
B0651143248365S11703988EA0174201810000000000000
B0651183248312S11703950EA0175101818000000000000
B0651223248265S11703995EA0175301820000000000000
B0651263248267S11704069EA0175701829000000000000
B0651303248299S11704127EA0176901846000000000000
B0651343248347S11704095EA0178401858000000000000
B0651383248334S11704023EA0179201866000000000000
B0651423248273S11704012EA0180501882000000000000
B0651463248240S11704071EA0181501888000000000000
B0651503248267S11704128EA0182501899000000000000
B0651543248317S11704120EA0183401907000000000000
B0651583248340S11704055EA0184201916000000000000
B0652023248312S11703993EA0185201928000000000000
B0652063248253S11703995EA0186001939000000000000
B0652103248224S11704056EA0186901949000000000000
B0652143248252S11704110EA0187901957000000000000
B0652183248308S11704119EA0188101953000000000000
B0652223248374S11704118EA0188201961000000000000
B0652263248421S11704064EA0189801978000000000000
B0652303248395S11703993EA0190601975000000000000
B0652343248325S11703977EA0189901973000000000000
B0652383248258S11704008EA0190101977000000000000
B0652423248217S11704069EA0190701981000000000000
B0652463248227S11704145EA0190801986000000000000
B0652503248257S11704212EA0190901980000000000000
B0652543248306S11704272EA0189301958000000000000
B0652583248378S11704311EA0186801924000000000000
B0653023248468S11704324EA0184401911000000000000
B0653063248561S11704326EA0183001894000000000000
B0653103248656S11704323EA0181601883000000000000
B0653143248748S11704319EA0180901878000000000000
B0653183248841S11704313EA0180301872000000000000
B0653223248932S11704303EA0179301861000000000000
B0653263249027S11704296EA0178101846000000000000
B0653303249125S11704290EA0176601831000000000000
B0653343249227S11704285EA0176101829000000000000
B0653383249326S11704285EA0175601817000000000000
B0653423249424S11704289EA0174501806000000000000
B0653463249523S11704290EA0173301794000000000000
B0653503249622S11704293EA0172001782000000000000
B0653543249722S11704293EA0171001771000000000000
B0653583249821S11704293EA0170301764000000000000
B0654023249917S11704292EA0169001750000000000000
B0654063250012S11704293EA0168201745000000000000
B0654103250102S11704296EA0168301748000000000000
B0654143250190S11704298EA0168401744000000000000
B0654183250278S11704302EA0168001742000000000000
B0654223250366S11704305EA0168401751000000000000
B0654263250453S11704306EA0168501740000000000000
B0654303250546S11704310EA0167601735000000000000
B0654343250639S11704313EA0168101745000000000000
B0654383250730S11704316EA0168501748000000000000
B0654423250819S11704322EA0168901752000000000000
B0654463250908S11704327EA0168801748000000000000
B0654503250997S11704332EA0168401744000000000000
B0654543251086S11704335EA0168001741000000000000
B0654583251177S11704335EA0167601733000000000000
B0655023251266S11704337EA0167301737000000000000
B0655063251357S11704341EA0166901721000000000000
B0655103251455S11704342EA0166401728000000000000
B0655143251551S11704345EA0167101735000000000000
B0655183251643S11704345EA0167401733000000000000
B0655223251742S11704344EA0165601714000000000000
B0655263251845S11704342EA0164801708000000000000
B0655303251945S11704345EA0164401701000000000000
B0655343252046S11704348EA0164201705000000000000
B0655383252143S11704350EA0164201694000000000000
B0655423252244S11704353EA0162501684000000000000
B0655463252344S11704355EA0162601687000000000000
B0655503252442S11704359EA0163201701000000000000
B0655543252530S11704372EA0165601725000000000000
B0655583252615S11704388EA0165801708000000000000
B0656023252708S11704401EA0163501688000000000000
B0656063252806S11704413EA0162401676000000000000
B0656103252904S11704424EA0161801673000000000000
B0656143253005S11704432EA0160601657000000000000
B0656183253107S11704436EA0159701651000000000000
B0656223253207S11704444EA0159601650000000000000
B0656263253307S11704448EA0158901643000000000000
B0656303253406S11704452EA0158801639000000000000
B0656343253504S11704454EA0158401640000000000000
B0656383253597S11704462EA0158701641000000000000
B0656423253691S11704470EA0157701625000000000000
B0656463253783S11704483EA0156701620000000000000
B0656503253874S11704497EA0155901606000000000000
B0656543253965S11704511EA0154301591000000000000
B0656583254058S11704527EA0153201580000000000000
B0657023254147S11704547EA0152601582000000000000
B0657063254234S11704569EA0153401594000000000000
B0657103254316S11704592EA0154401602000000000000
B0657143254396S11704615EA0154501597000000000000
B0657183254476S11704647EA0154601606000000000000
B0657223254554S11704677EA0155501616000000000000
B0657263254631S11704710EA0156501629000000000000
B0657303254702S11704742EA0158901659000000000000
B0657343254758S11704700EA0162301694000000000000
B0657383254731S11704627EA0164601713000000000000
B0657423254667S11704623EA0165601720000000000000
B0657463254637S11704680EA0166701737000000000000
B0657503254671S11704719EA0168401756000000000000
B0657543254715S11704682EA0170101771000000000000
B0657583254706S11704606EA0170901778000000000000
B0658023254649S11704567EA0171601786000000000000
B0658063254589S11704593EA0172301796000000000000
B0658103254578S11704658EA0174301822000000000000
B0658143254622S11704683EA0176401843000000000000
B0658183254658S11704632EA0178101858000000000000
B0658223254632S11704561EA0178701862000000000000
B0658263254567S11704548EA0179201873000000000000
B0658303254531S11704600EA0180901893000000000000
B0658343254561S11704649EA0182401905000000000000
B0658383254610S11704626EA0184101927000000000000
B0658423254615S11704556EA0185701935000000000000
B0658463254562S11704513EA0186101939000000000000
B0658503254502S11704534EA0187001955000000000000
B0658543254505S11704591EA0188301961000000000000
B0658583254558S11704600EA0188901976000000000000
B0659023254594S11704545EA0190601985000000000000
B0659063254570S11704474EA0191001991000000000000
B0659103254509S11704437EA0191601996000000000000
B0659143254450S11704456EA0192502008000000000000
B0659183254457S11704521EA0192902010000000000000
B0659223254515S11704544EA0193402018000000000000
B0659263254584S11704547EA0193102000000000000000
B0659303254666S11704547EA0191401987000000000000
B0659343254753S11704557EA0191401991000000000000
B0659383254840S11704574EA0192302006000000000000
B0659423254921S11704602EA0194002022000000000000
B0659463254995S11704639EA0194702027000000000000
B0659503255066S11704675EA0195502036000000000000
B0659543255133S11704713EA0196302044000000000000
B0659583255200S11704747EA0197002052000000000000
B0700023255270S11704778EA0197002050000000000000
B0700063255345S11704807EA0196702045000000000000
B0700103255421S11704840EA0196402043000000000000
B0700143255501S11704873EA0195802035000000000000
B0700183255581S11704905EA0194802024000000000000
B0700223255666S11704935EA0193702013000000000000
B0700263255750S11704968EA0192602003000000000000
B0700303255836S11705005EA0191801997000000000000
B0700343255911S11705064EA0190901985000000000000
B0700383255975S11705145EA0189901974000000000000
B0700423256024S11705237EA0189601975000000000000
B0700463256062S11705336EA0189401974000000000000
B0700503256087S11705436EA0189701977000000000000
B0700543256104S11705532EA0189301969000000000000
B0700583256117S11705629EA0188301958000000000000
B0701023256127S11705727EA0187501951000000000000
B0701063256136S11705827EA0187101947000000000000
B0701103256144S11705928EA0187201953000000000000
B0701143256149S11706027EA0188301967000000000000
B0701183256156S11706126EA0189001968000000000000
B0701223256162S11706226EA0188701962000000000000
B0701263256167S11706331EA0188301960000000000000
B0701303256167S11706439EA0188501963000000000000
B0701343256164S11706546EA0188401959000000000000
B0701383256157S11706653EA0188001957000000000000
B0701423256151S11706757EA0188201959000000000000
B0701463256144S11706862EA0188201959000000000000
B0701503256135S11706963EA0188201956000000000000
B0701543256128S11707067EA0187201943000000000000
B0701583256119S11707174EA0185701925000000000000
B0702023256113S11707282EA0184801921000000000000
B0702063256108S11707390EA0184001911000000000000
B0702103256101S11707500EA0182901897000000000000
B0702143256095S11707611EA0182001889000000000000
B0702183256089S11707721EA0181101882000000000000
B0702223256083S11707832EA0180401867000000000000
B0702263256075S11707943EA0178801854000000000000
B0702303256067S11708054EA0177901842000000000000
B0702343256062S11708163EA0176401827000000000000
B0702383256052S11708272EA0176001832000000000000
B0702423256037S11708375EA0176101830000000000000
B0702463256023S11708478EA0176001828000000000000
B0702503256011S11708578EA0177001845000000000000
B0702543255997S11708675EA0177701850000000000000
B0702583255984S11708772EA0177901853000000000000
B0703023255969S11708868EA0177901847000000000000
B0703063255953S11708968EA0177601847000000000000
B0703103255937S11709065EA0177901851000000000000
B0703143255920S11709164EA0177301837000000000000
B0703183255904S11709269EA0175901825000000000000
B0703223255880S11709377EA0175201819000000000000
B0703263255863S11709487EA0175101820000000000000
B0703303255850S11709593EA0174901817000000000000
B0703343255839S11709697EA0174901818000000000000
B0703383255848S11709799EA0175501820000000000000
B0703423255883S11709891EA0175201814000000000000
B0703463255930S11709977EA0174001800000000000000
B0703503255976S11710061EA0172601782000000000000
B0703543256021S11710150EA0170901767000000000000
B0703583256058S11710238EA0170901776000000000000
B0704023256086S11710328EA0171601782000000000000
B0704063256105S11710413EA0171601779000000000000
B0704103256123S11710498EA0170901769000000000000
B0704143256141S11710584EA0170101764000000000000
B0704183256162S11710666EA0170201765000000000000
B0704223256184S11710745EA0170001765000000000000
B0704263256210S11710819EA0170801777000000000000
B0704303256221S11710896EA0171901789000000000000
B0704343256175S11710959EA0172801805000000000000
B0704383256112S11710952EA0175101830000000000000
B0704423256082S11710887EA0176801837000000000000
B0704463256100S11710815EA0177001839000000000000
B0704503256152S11710776EA0177301844000000000000
B0704543256212S11710768EA0177901853000000000000
B0704583256262S11710790EA0179301870000000000000
B0705023256244S11710844EA0181201885000000000000
B0705063256178S11710837EA0180201860000000000000
B0705103256095S11710815EA0178901857000000000000
B0705143256008S11710813EA0178801857000000000000
B0705183255918S11710818EA0178101848000000000000
B0705223255824S11710828EA0176901827000000000000
B0705263255729S11710844EA0175001811000000000000
B0705303255634S11710861EA0173601794000000000000
B0705343255540S11710881EA0172601789000000000000
B0705383255445S11710901EA0172001778000000000000
B0705423255347S11710920EA0171201774000000000000
B0705463255254S11710943EA0171101771000000000000
B0705503255161S11710967EA0170701766000000000000
B0705543255069S11710991EA0170001759000000000000
B0705583254974S11711009EA0169401752000000000000
B0706023254879S11711018EA0168601741000000000000
B0706063254782S11711023EA0167301726000000000000
B0706103254682S11711031EA0167001737000000000000
B0706143254594S11711043EA0169701769000000000000
B0706183254552S11711101EA0171401775000000000000
B0706223254592S11711161EA0171101767000000000000
B0706263254669S11711165EA0170701769000000000000
B0706303254744S11711135EA0170901772000000000000
B0706343254800S11711060EA0171101776000000000000
B0706383254801S11710966EA0172601792000000000000
B0706423254740S11710913EA0173101791000000000000
B0706463254658S11710902EA0171201766000000000000
B0706503254563S11710910EA0169601759000000000000
B0706543254467S11710923EA0169101751000000000000
B0706583254370S11710939EA0167901738000000000000
B0707023254272S11710956EA0167401735000000000000
B0707063254176S11710969EA0167401736000000000000
B0707103254080S11710980EA0167501737000000000000
B0707143253987S11710993EA0168101749000000000000
B0707183253899S11711002EA0168801744000000000000
B0707223253808S11711013EA0167701731000000000000
B0707263253714S11711023EA0166701724000000000000
B0707303253621S11711034EA0167001735000000000000
B0707343253539S11711050EA0170001769000000000000
B0707383253502S11711119EA0172301787000000000000
B0707423253554S11711162EA0173001788000000000000
B0707463253606S11711108EA0172701792000000000000
B0707503253619S11711021EA0173401801000000000000
B0707543253596S11710936EA0174601815000000000000
B0707583253540S11710880EA0176001837000000000000
B0708023253480S11710896EA0177301837000000000000
B0708063253474S11710967EA0176901836000000000000
B0708103253530S11711005EA0176901832000000000000
B0708143253580S11710948EA0176601837000000000000
B0708183253590S11710857EA0178001861000000000000
B0708223253554S11710788EA0180201879000000000000
B0708263253509S11710823EA0181501887000000000000
B0708303253541S11710875EA0181501881000000000000
B0708343253605S11710842EA0181501890000000000000
B0708383253631S11710763EA0183701917000000000000
B0708423253608S11710689EA0185601932000000000000
B0708463253552S11710685EA0186401937000000000000
B0708503253543S11710749EA0186801937000000000000
B0708543253605S11710764EA0187201947000000000000
B0708583253642S11710696EA0189101971000000000000
B0709023253619S11710620EA0190501982000000000000
B0709063253560S11710605EA0191401990000000000000
B0709103253525S11710655EA0191901991000000000000
B0709143253547S11710720EA0191901990000000000000
B0709183253604S11710761EA0192402003000000000000
B0709223253662S11710731EA0194002024000000000000
B0709263253655S11710651EA0195702033000000000000
B0709303253596S11710625EA0195802038000000000000
B0709343253554S11710667EA0196502046000000000000
B0709383253577S11710724EA0197502055000000000000
B0709423253638S11710724EA0197902058000000000000
B0709463253673S11710655EA0198902073000000000000
B0709503253647S11710579EA0199502074000000000000
B0709543253587S11710525EA0199102069000000000000
B0709583253513S11710501EA0198902065000000000000
B0710023253435S11710504EA0198602062000000000000
B0710063253356S11710517EA0197302042000000000000
B0710103253267S11710534EA0195502014000000000000
B0710143253172S11710555EA0192801989000000000000
B0710183253076S11710579EA0191101978000000000000
B0710223252981S11710603EA0190301970000000000000
B0710263252886S11710632EA0189301958000000000000
B0710303252793S11710663EA0188501952000000000000
B0710343252700S11710693EA0188101946000000000000
B0710383252612S11710722EA0187601943000000000000
B0710423252522S11710750EA0187401943000000000000
B0710463252435S11710777EA0187401942000000000000
B0710503252351S11710805EA0187401944000000000000
B0710543252269S11710829EA0187001933000000000000
B0710583252186S11710855EA0185501923000000000000
B0711023252104S11710867EA0186701951000000000000
B0711063252028S11710874EA0188901974000000000000
B0711103251957S11710871EA0190301985000000000000
B0711143251888S11710865EA0191301994000000000000
B0711183251820S11710862EA0191101987000000000000
B0711223251750S11710876EA0191101989000000000000
B0711263251690S11710927EA0190801980000000000000
B0711303251625S11710978EA0189701968000000000000
B0711343251550S11711015EA0188801958000000000000
B0711383251465S11711047EA0187401940000000000000
B0711423251374S11711075EA0185601920000000000000
B0711463251279S11711104EA0184101906000000000000
B0711503251185S11711128EA0183101897000000000000
B0711543251088S11711151EA0182101887000000000000
B0711583250992S11711171EA0181401882000000000000
B0712023250897S11711191EA0180701871000000000000
B0712063250801S11711210EA0179701861000000000000
B0712103250705S11711229EA0179101860000000000000
B0712143250611S11711245EA0179301857000000000000
B0712183250516S11711265EA0178901860000000000000
B0712223250427S11711286EA0179901871000000000000
B0712263250340S11711307EA0179901864000000000000
B0712303250250S11711329EA0179101858000000000000
B0712343250164S11711340EA0180401881000000000000
B0712383250083S11711344EA0181901890000000000000
B0712423250004S11711349EA0181201877000000000000
B0712463249918S11711366EA0179501864000000000000
B0712503249834S11711382EA0179701868000000000000
B0712543249753S11711396EA0179501860000000000000
B0712583249671S11711407EA0179001859000000000000
B0713023249589S11711421EA0179101860000000000000
B0713063249509S11711438EA0178901858000000000000
B0713103249428S11711455EA0178501852000000000000
B0713143249344S11711472EA0178301849000000000000
B0713183249258S11711490EA0178601856000000000000
B0713223249173S11711505EA0178701858000000000000
B0713263249090S11711520EA0178501852000000000000
B0713303249004S11711534EA0177501842000000000000
B0713343248917S11711550EA0176701830000000000000
B0713383248830S11711565EA0175601818000000000000
B0713423248744S11711582EA0174301803000000000000
B0713463248656S11711598EA0172701782000000000000
B0713503248566S11711613EA0171001766000000000000
B0713543248478S11711628EA0170201765000000000000
B0713583248392S11711641EA0170201766000000000000
B0714023248306S11711648EA0170701776000000000000
B0714063248223S11711658EA0172001791000000000000
B0714103248150S11711686EA0173701810000000000000
B0714143248115S11711760EA0174901822000000000000
B0714183248131S11711842EA0176601845000000000000
B0714223248192S11711862EA0179401876000000000000
B0714263248235S11711803EA0181501889000000000000
B0714303248223S11711724EA0182201893000000000000
B0714343248166S11711686EA0182401896000000000000
B0714383248107S11711715EA0183001904000000000000
B0714423248104S11711788EA0184201918000000000000
B0714463248154S11711829EA0186101940000000000000
B0714503248210S11711793EA0187901951000000000000
B0714543248214S11711707EA0188201958000000000000
B0714583248159S11711664EA0189101972000000000000
B0715023248117S11711703EA0190601989000000000000
B0715063248139S11711760EA0191902000000000000000
B0715103248197S11711738EA0193102010000000000000
B0715143248198S11711654EA0193902021000000000000
B0715183248141S11711619EA0195102034000000000000
B0715223248100S11711665EA0196202041000000000000
B0715263248126S11711728EA0197302059000000000000
B0715303248184S11711721EA0199202077000000000000
B0715343248213S11711648EA0200202085000000000000
B0715383248179S11711581EA0201202095000000000000
B0715423248120S11711580EA0202002103000000000000
B0715463248089S11711641EA0202902115000000000000
B0715503248115S11711699EA0204602135000000000000
B0715543248175S11711693EA0205902143000000000000
B0715583248189S11711617EA0206602153000000000000
B0716023248144S11711572EA0207502162000000000000
B0716063248088S11711596EA0208202168000000000000
B0716103248080S11711663EA0209402186000000000000
B0716143248127S11711699EA0210502192000000000000
B0716183248185S11711668EA0211502204000000000000
B0716223248205S11711596EA0212302214000000000000
B0716263248171S11711538EA0213102219000000000000
B0716303248111S11711541EA0213502224000000000000
B0716343248091S11711603EA0214202236000000000000
B0716383248131S11711651EA0215502246000000000000
B0716423248191S11711632EA0215702246000000000000
B0716463248213S11711556EA0216002253000000000000
B0716503248174S11711498EA0217002261000000000000
B0716543248115S11711503EA0217402263000000000000
B0716583248097S11711569EA0217602269000000000000
B0717023248131S11711634EA0218102275000000000000
B0717063248196S11711659EA0218802283000000000000
B0717103248245S11711606EA0219902292000000000000
B0717143248213S11711546EA0220702301000000000000
B0717183248159S11711573EA0220902299000000000000
B0717223248163S11711648EA0220902304000000000000
B0717263248222S11711686EA0222002317000000000000
B0717303248284S11711656EA0223202326000000000000
B0717343248287S11711578EA0223402325000000000000
B0717383248226S11711546EA0222602316000000000000
B0717423248148S11711556EA0221102296000000000000
B0717463248059S11711576EA0219502277000000000000
B0717503247962S11711599EA0218302267000000000000
B0717543247860S11711616EA0217402259000000000000
B0717583247760S11711630EA0217402262000000000000
B0718023247663S11711643EA0217402260000000000000
B0718063247565S11711656EA0217002256000000000000
B0718103247469S11711669EA0216202249000000000000
B0718143247374S11711686EA0216102251000000000000
B0718183247285S11711707EA0216102249000000000000
B0718223247194S11711728EA0215302239000000000000
B0718263247104S11711749EA0215002236000000000000
B0718303247017S11711767EA0214502231000000000000
B0718343246931S11711785EA0214002223000000000000
B0718383246845S11711801EA0213202214000000000000
B0718423246761S11711814EA0212102203000000000000
B0718463246675S11711825EA0211202193000000000000
B0718503246590S11711837EA0210002178000000000000
B0718543246502S11711850EA0208202160000000000000
B0718583246411S11711862EA0207102149000000000000
B0719023246320S11711868EA0206102139000000000000
B0719063246230S11711867EA0205402135000000000000
B0719103246141S11711862EA0204902129000000000000
B0719143246053S11711858EA0204402124000000000000
B0719183245966S11711855EA0204102121000000000000
B0719223245881S11711854EA0203602114000000000000
B0719263245792S11711855EA0202502100000000000000
B0719303245701S11711859EA0201202088000000000000
B0719343245608S11711864EA0200302078000000000000
B0719383245513S11711872EA0199402069000000000000
B0719423245418S11711877EA0198502059000000000000
B0719463245322S11711877EA0197802051000000000000
B0719503245225S11711879EA0197602052000000000000
B0719543245130S11711880EA0197702052000000000000
B0719583245039S11711882EA0198002059000000000000
B0720023244954S11711889EA0197902054000000000000
B0720063244867S11711897EA0196302033000000000000
B0720103244776S11711905EA0195402029000000000000
B0720143244685S11711907EA0194702020000000000000
B0720183244591S11711912EA0193201997000000000000
B0720223244493S11711916EA0191201976000000000000
B0720263244399S11711919EA0190301972000000000000
B0720303244306S11711918EA0189701964000000000000
B0720343244215S11711918EA0188601951000000000000
B0720383244118S11711916EA0186301925000000000000
B0720423244016S11711914EA0185501925000000000000
B0720463243916S11711911EA0184601912000000000000
B0720503243816S11711907EA0183401901000000000000
B0720543243715S11711901EA0182701894000000000000
B0720583243613S11711894EA0182601898000000000000
B0721023243518S11711889EA0183901912000000000000
B0721063243426S11711885EA0183801901000000000000
B0721103243326S11711882EA0182701896000000000000
B0721143243225S11711873EA0182501890000000000000
B0721183243122S11711863EA0181901893000000000000
B0721223243026S11711855EA0182701898000000000000
B0721263242932S11711850EA0183201903000000000000
B0721303242841S11711845EA0182501886000000000000
B0721343242744S11711838EA0180301862000000000000
B0721383242644S11711837EA0179001857000000000000
B0721423242547S11711836EA0180301882000000000000
B0721463242455S11711836EA0182401903000000000000
B0721503242365S11711834EA0183801910000000000000
B0721543242273S11711833EA0183301898000000000000
B0721583242178S11711829EA0182201889000000000000
B0722023242082S11711829EA0181101873000000000000
B0722063241982S11711833EA0179401854000000000000
B0722103241879S11711836EA0178401851000000000000
B0722143241778S11711840EA0177701835000000000000
B0722183241671S11711851EA0175901814000000000000
B0722223241563S11711867EA0174301802000000000000
B0722263241453S11711879EA0173301793000000000000
B0722303241345S11711881EA0173501803000000000000
B0722343241241S11711881EA0174101807000000000000
B0722383241142S11711881EA0175301831000000000000
B0722423241052S11711884EA0177501851000000000000
B0722463240968S11711885EA0180001884000000000000
B0722503240891S11711881EA0183301914000000000000
B0722543240817S11711872EA0184001910000000000000
B0722583240747S11711871EA0184801930000000000000
B0723023240688S11711895EA0186501937000000000000
B0723063240652S11711960EA0186301931000000000000
B0723103240666S11712042EA0185401923000000000000
B0723143240726S11712092EA0184901919000000000000
B0723183240798S11712119EA0184601916000000000000
B0723223240874S11712122EA0184701921000000000000
B0723263240948S11712100EA0186201940000000000000
B0723303240983S11712036EA0188301960000000000000
B0723343240934S11711999EA0190101980000000000000
B0723383240903S11712058EA0192002003000000000000
B0723423240938S11712110EA0193702016000000000000
B0723463240994S11712093EA0194602026000000000000
B0723503241012S11712029EA0195702039000000000000
B0723543240978S11711977EA0196902051000000000000
B0723583240924S11711988EA0198202068000000000000
B0724023240912S11712050EA0200102087000000000000
B0724063240959S11712087EA0201402097000000000000
B0724103241008S11712053EA0202302106000000000000
B0724143241007S11711984EA0203402120000000000000
B0724183240961S11711945EA0204802135000000000000
B0724223240908S11711968EA0205902146000000000000
B0724263240896S11712035EA0206802156000000000000
B0724303240942S11712079EA0208202171000000000000
B0724343240998S11712057EA0209302184000000000000
B0724383241012S11711990EA0210702194000000000000
B0724423240970S11711940EA0211702207000000000000
B0724463240912S11711954EA0213202221000000000000
B0724503240889S11712018EA0213902227000000000000
B0724543240920S11712080EA0214602239000000000000
B0724583240978S11712088EA0216202254000000000000
B0725023241006S11712027EA0217002266000000000000
B0725063240969S11711975EA0217902275000000000000
B0725103240911S11711992EA0219302286000000000000
B0725143240891S11712059EA0219902288000000000000
B0725183240928S11712128EA0220102295000000000000
B0725223240994S11712150EA0221402307000000000000
B0725263241046S11712106EA0222102312000000000000
B0725303241042S11712029EA0222202315000000000000
B0725343240991S11711980EA0223202326000000000000
B0725383240926S11711993EA0224202343000000000000
B0725423240899S11712063EA0225202343000000000000
B0725463240950S11712122EA0224802340000000000000
B0725503241016S11712093EA0225102346000000000000
B0725543241022S11712012EA0226202358000000000000
B0725583240972S11711959EA0226802364000000000000
B0726023240899S11711944EA0227202366000000000000
B0726063240820S11711938EA0225602336000000000000
B0726103240729S11711938EA0222902308000000000000
B0726143240630S11711942EA0220602287000000000000
B0726183240528S11711946EA0219702282000000000000
B0726223240427S11711949EA0219002276000000000000
B0726263240327S11711949EA0218902279000000000000
B0726303240228S11711946EA0219002280000000000000
B0726343240133S11711945EA0219202280000000000000
B0726383240041S11711946EA0219202286000000000000
B0726423239954S11711950EA0219502285000000000000
B0726463239867S11711953EA0218502270000000000000
B0726503239778S11711953EA0217202259000000000000
B0726543239693S11711951EA0216702255000000000000
B0726583239611S11711949EA0216302250000000000000
B0727023239526S11711944EA0215202237000000000000
B0727063239442S11711937EA0214302230000000000000
B0727103239356S11711928EA0213002213000000000000
B0727143239267S11711918EA0211302195000000000000
B0727183239182S11711906EA0210202183000000000000
B0727223239098S11711898EA0208802166000000000000
B0727263239013S11711892EA0207402150000000000000
B0727303238924S11711885EA0205702133000000000000
B0727343238831S11711875EA0204502125000000000000
B0727383238734S11711864EA0203402106000000000000
B0727423238636S11711854EA0201102085000000000000
B0727463238537S11711846EA0199702072000000000000
B0727503238441S11711838EA0199302073000000000000
B0727543238347S11711830EA0199302070000000000000
B0727583238255S11711824EA0198702061000000000000
B0728023238161S11711817EA0197502050000000000000
B0728063238066S11711810EA0196602041000000000000
B0728103237971S11711802EA0195902035000000000000
B0728143237878S11711791EA0194702019000000000000
B0728183237783S11711780EA0193402006000000000000
B0728223237689S11711769EA0192502000000000000000
B0728263237596S11711758EA0191601986000000000000
B0728303237499S11711745EA0190901980000000000000
B0728343237403S11711732EA0189901970000000000000
B0728383237310S11711715EA0189601968000000000000
B0728423237219S11711703EA0188501953000000000000
B0728463237124S11711693EA0186901937000000000000
B0728503237029S11711681EA0186101933000000000000
B0728543236934S11711671EA0185601926000000000000
B0728583236839S11711659EA0184601915000000000000
B0729023236743S11711651EA0183401903000000000000
B0729063236644S11711643EA0182601892000000000000
B0729103236545S11711633EA0181601883000000000000
B0729143236448S11711613EA0181301878000000000000
B0729183236348S11711593EA0180201866000000000000
B0729223236249S11711576EA0179601862000000000000
B0729263236149S11711560EA0179201860000000000000
B0729303236054S11711542EA0179501864000000000000
B0729343235962S11711526EA0179101858000000000000
B0729383235876S11711513EA0180001875000000000000
B0729423235794S11711500EA0180701874000000000000
B0729463235709S11711487EA0179701861000000000000
B0729503235621S11711470EA0178501846000000000000
B0729543235531S11711456EA0178001851000000000000
B0729583235442S11711442EA0178301848000000000000
B0730023235345S11711430EA0177401837000000000000
B0730063235249S11711418EA0177001837000000000000
B0730103235157S11711404EA0177901851000000000000
B0730143235067S11711391EA0178301853000000000000
B0730183234977S11711379EA0178601858000000000000
B0730223234890S11711361EA0179501867000000000000
B0730263234806S11711343EA0179701866000000000000
B0730303234719S11711329EA0179501862000000000000
B0730343234629S11711317EA0179501865000000000000
B0730383234542S11711296EA0180001874000000000000
B0730423234460S11711268EA0181001882000000000000
B0730463234381S11711236EA0181301884000000000000
B0730503234300S11711201EA0181901894000000000000
B0730543234222S11711167EA0182901901000000000000
B0730583234145S11711134EA0182101880000000000000
B0731023234060S11711092EA0179201844000000000000
B0731063233962S11711049EA0176001810000000000000
B0731103233854S11711006EA0173801799000000000000
B0731143233748S11710969EA0173901800000000000000
B0731183233638S11710937EA0173401795000000000000
B0731223233533S11710913EA0174101808000000000000
B0731263233429S11710893EA0174101799000000000000
B0731303233321S11710881EA0173501804000000000000
B0731343233219S11710876EA0174901819000000000000
B0731383233117S11710876EA0174301799000000000000
B0731423233009S11710881EA0171901770000000000000
B0731463232897S11710884EA0170701769000000000000
B0731503232792S11710884EA0171201777000000000000
B0731543232692S11710888EA0172201791000000000000
B0731583232593S11710893EA0172601787000000000000
B0732023232497S11710901EA0172601793000000000000
B0732063232407S11710905EA0173501804000000000000
B0732103232320S11710909EA0173601800000000000000
B0732143232233S11710913EA0173001791000000000000
B0732183232140S11710914EA0171501770000000000000
B0732223232039S11710910EA0169501752000000000000
B0732263231937S11710907EA0168301740000000000000
B0732303231835S11710905EA0167801738000000000000
B0732343231737S11710900EA0167601732000000000000
B0732383231638S11710888EA0166501719000000000000
B0732423231538S11710871EA0165801716000000000000
B0732463231439S11710857EA0165401712000000000000
B0732503231341S11710839EA0164501700000000000000
B0732543231246S11710816EA0164301702000000000000
B0732583231155S11710797EA0163801693000000000000
B0733023231063S11710779EA0162601680000000000000
B0733063230972S11710761EA0161701672000000000000
B0733103230881S11710745EA0161001664000000000000
B0733143230788S11710728EA0159401642000000000000
B0733183230690S11710710EA0158301634000000000000
B0733223230593S11710686EA0157601625000000000000
B0733263230495S11710660EA0156401611000000000000
B0733303230396S11710631EA0155201600000000000000
B0733343230297S11710597EA0154001589000000000000
B0733383230199S11710560EA0153001578000000000000
B0733423230101S11710529EA0152601576000000000000
B0733463230005S11710502EA0151601562000000000000
B0733503229907S11710485EA0150501552000000000000
B0733543229810S11710486EA0149101536000000000000
B0733583229711S11710495EA0147701520000000000000
B0734023229610S11710506EA0146501508000000000000
B0734063229508S11710515EA0145601499000000000000
B0734103229407S11710521EA0144901493000000000000
B0734143229307S11710530EA0145201505000000000000
B0734183229215S11710541EA0147001526000000000000
B0734223229127S11710554EA0148401537000000000000
B0734263229043S11710563EA0149501550000000000000
B0734303228962S11710569EA0150301556000000000000
B0734343228886S11710594EA0150701559000000000000
B0734383228814S11710638EA0151201568000000000000
B0734423228749S11710686EA0151801570000000000000
B0734463228678S11710732EA0151001556000000000000
B0734503228589S11710764EA0148801526000000000000
B0734543228488S11710774EA0147101520000000000000
B0734583228390S11710776EA0147301526000000000000
B0735023228298S11710776EA0148001534000000000000
B0735063228214S11710777EA0148701539000000000000
B0735103228132S11710772EA0148301530000000000000
B0735143228047S11710762EA0146901513000000000000
B0735183227961S11710748EA0145601498000000000000
B0735223227872S11710723EA0143401469000000000000
B0735263227777S11710690EA0141001448000000000000
B0735303227683S11710658EA0139801440000000000000
B0735343227591S11710624EA0139301432000000000000
B0735383227499S11710590EA0138301419000000000000
B0735423227402S11710560EA0136901406000000000000
B0735463227307S11710537EA0136701406000000000000
B0735503227220S11710499EA0136801408000000000000
B0735543227144S11710449EA0136201401000000000000
B0735583227067S11710399EA0135401386000000000000
B0736023226982S11710365EA0133601367000000000000
B0736063226895S11710338EA0132301355000000000000
B0736103226808S11710317EA0131201343000000000000
B0736143226716S11710306EA0129101315000000000000
B0736183226620S11710296EA0126901298000000000000
B0736223226526S11710287EA0125701283000000000000
B0736263226431S11710282EA0124301268000000000000
B0736303226335S11710280EA0123101258000000000000
B0736343226239S11710277EA0122301252000000000000
B0736383226144S11710282EA0122101250000000000000
B0736423226049S11710298EA0122401258000000000000
B0736463225959S11710307EA0123801281000000000000
B0736503225887S11710332EA0127301313000000000000
B0736543225885S11710400EA0129201330000000000000
B0736583225944S11710411EA0130501345000000000000
B0737023225985S11710354EA0130901343000000000000
B0737063225979S11710272EA0131401354000000000000
B0737103225918S11710256EA0132501364000000000000
B0737143225907S11710320EA0133301372000000000000
B0737183225966S11710334EA0134401386000000000000
B0737223226006S11710273EA0135401398000000000000
B0737263225975S11710205EA0136801410000000000000
B0737303225920S11710230EA0138101425000000000000
B0737343225940S11710285EA0139401439000000000000
B0737383225996S11710267EA0140401449000000000000
B0737423226006S11710191EA0141701465000000000000
B0737463225963S11710140EA0142801471000000000000
B0737503225910S11710164EA0143201475000000000000
B0737543225909S11710230EA0144001486000000000000
B0737583225952S11710276EA0144801501000000000000
B0738023226007S11710267EA0146201510000000000000
B0738063226014S11710191EA0147201522000000000000
B0738103225959S11710155EA0148001526000000000000
B0738143225910S11710191EA0148201531000000000000
B0738183225915S11710256EA0149001542000000000000
B0738223225962S11710299EA0150001550000000000000
B0738263226020S11710278EA0150501556000000000000
B0738303226028S11710203EA0151901572000000000000
B0738343225971S11710177EA0153301588000000000000
B0738383225940S11710228EA0154201594000000000000
B0738423225976S11710269EA0155401611000000000000
B0738463226023S11710231EA0156201615000000000000
B0738503226004S11710159EA0156901621000000000000
B0738543225940S11710155EA0157701632000000000000
B0738583225918S11710222EA0158401640000000000000
B0739023225962S11710270EA0159401654000000000000
B0739063226020S11710247EA0160401665000000000000
B0739103226033S11710170EA0161601681000000000000
B0739143225980S11710124EA0163301695000000000000
B0739183225928S11710164EA0164201704000000000000
B0739223225942S11710230EA0165101717000000000000
B0739263226001S11710242EA0166401728000000000000
B0739303226041S11710185EA0167401739000000000000
B0739343226020S11710111EA0168801753000000000000
B0739383225961S11710107EA0169701766000000000000
B0739423225941S11710172EA0170201765000000000000
B0739463225988S11710212EA0171001785000000000000
B0739503226039S11710178EA0172701799000000000000
B0739543226045S11710104EA0174201812000000000000
B0739583226000S11710055EA0174901820000000000000
B0740023225942S11710066EA0175701829000000000000
B0740063225916S11710126EA0176201834000000000000
B0740103225936S11710191EA0177001844000000000000
B0740143225989S11710215EA0178101855000000000000
B0740183226035S11710168EA0179001864000000000000
B0740223226011S11710098EA0180001875000000000000
B0740263225950S11710100EA0181001886000000000000
B0740303225941S11710165EA0182301901000000000000
B0740343225992S11710185EA0183701916000000000000
B0740383226033S11710135EA0184901926000000000000
B0740423226019S11710062EA0185601935000000000000
B0740463225962S11710033EA0186301940000000000000
B0740503225918S11710081EA0186901949000000000000
B0740543225940S11710143EA0188201963000000000000
B0740583226000S11710152EA0189201970000000000000
B0741023226040S11710092EA0190301988000000000000
B0741063226020S11710022EA0191801998000000000000
B0741103225962S11710004EA0191901993000000000000
B0741143225927S11710064EA0192002005000000000000
B0741183225955S11710122EA0193802025000000000000
B0741223226015S11710118EA0195302039000000000000
B0741263226044S11710051EA0196502050000000000000
B0741303226011S11709984EA0196902049000000000000
B0741343225949S11709978EA0196602047000000000000
B0741383225903S11710034EA0197002055000000000000
B0741423225890S11710111EA0198002071000000000000
B0741463225920S11710172EA0199702088000000000000
B0741503225979S11710168EA0200502089000000000000
B0741543226009S11710101EA0200902095000000000000
B0741583225987S11710029EA0201802106000000000000
B0742023225929S11710005EA0202702111000000000000
B0742063225892S11710062EA0202602111000000000000
B0742103225929S11710116EA0203702126000000000000
B0742143225988S11710088EA0205202141000000000000
B0742183225993S11710010EA0205702143000000000000
B0742223225940S11709961EA0206302148000000000000
B0742263225870S11709968EA0206002142000000000000
B0742303225790S11709970EA0205102136000000000000
B0742343225701S11709961EA0204302123000000000000
B0742383225607S11709942EA0203202110000000000000
B0742423225508S11709925EA0202202101000000000000
B0742463225403S11709913EA0201802102000000000000
B0742503225296S11709905EA0202202106000000000000
B0742543225188S11709899EA0201702096000000000000
B0742583225078S11709897EA0200602085000000000000
B0743023224965S11709893EA0199502073000000000000
B0743063224852S11709890EA0198502062000000000000
B0743103224737S11709886EA0197302047000000000000
B0743143224622S11709884EA0195702027000000000000
B0743183224509S11709884EA0194202014000000000000
B0743223224397S11709891EA0193102006000000000000
B0743263224289S11709899EA0192902010000000000000
B0743303224189S11709906EA0193802019000000000000
B0743343224096S11709918EA0194502024000000000000
B0743383224004S11709929EA0193502007000000000000
B0743423223908S11709936EA0192001994000000000000
B0743463223810S11709940EA0191401988000000000000
B0743503223717S11709944EA0191101984000000000000
B0743543223625S11709948EA0190101969000000000000
B0743583223531S11709947EA0188301955000000000000
B0744023223439S11709942EA0187101943000000000000
B0744063223345S11709935EA0186101932000000000000
B0744103223253S11709925EA0185801933000000000000
B0744143223162S11709918EA0185901932000000000000
B0744183223072S11709914EA0185101920000000000000
B0744223222981S11709910EA0184001907000000000000
B0744263222887S11709905EA0182901897000000000000
B0744303222794S11709899EA0181901888000000000000
B0744343222703S11709893EA0181601888000000000000
B0744383222612S11709887EA0181201881000000000000
B0744423222525S11709882EA0181401890000000000000
B0744463222442S11709871EA0182101892000000000000
B0744503222360S11709857EA0182001891000000000000
B0744543222279S11709847EA0181601888000000000000
B0744583222201S11709836EA0182101896000000000000
B0745023222126S11709826EA0182301894000000000000
B0745063222050S11709814EA0182201895000000000000
B0745103221979S11709789EA0182301894000000000000
B0745143221905S11709767EA0182001892000000000000
B0745183221828S11709750EA0182101892000000000000
B0745223221750S11709737EA0181401884000000000000
B0745263221669S11709727EA0181301884000000000000
B0745303221587S11709718EA0181401889000000000000
B0745343221509S11709711EA0181801887000000000000
B0745383221429S11709709EA0180701874000000000000
B0745423221344S11709705EA0179601860000000000000
B0745463221256S11709701EA0178201847000000000000
B0745503221166S11709701EA0176901833000000000000
B0745543221082S11709705EA0176901839000000000000
B0745583221002S11709714EA0176601831000000000000
B0746023220921S11709724EA0175401815000000000000
B0746063220837S11709735EA0174301806000000000000
B0746103220753S11709741EA0173301795000000000000
B0746143220667S11709745EA0172301782000000000000
B0746183220577S11709745EA0170701766000000000000
B0746223220484S11709743EA0169601753000000000000
B0746263220390S11709740EA0168601747000000000000
B0746303220297S11709741EA0168401748000000000000
B0746343220206S11709743EA0168501745000000000000
B0746383220115S11709747EA0167601736000000000000
B0746423220022S11709749EA0166901727000000000000
B0746463219930S11709752EA0165801715000000000000
B0746503219836S11709754EA0164801707000000000000
B0746543219740S11709757EA0164101695000000000000
B0746583219643S11709757EA0163501692000000000000
B0747023219545S11709756EA0162801685000000000000
B0747063219450S11709756EA0162501683000000000000
B0747103219354S11709753EA0161501670000000000000
B0747143219257S11709749EA0160701665000000000000
B0747183219159S11709745EA0161101674000000000000
B0747223219069S11709744EA0162901695000000000000
B0747263218998S11709771EA0164301701000000000000
B0747303218935S11709819EA0163001679000000000000
B0747343218857S11709856EA0161101662000000000000
B0747383218774S11709878EA0159801649000000000000
B0747423218686S11709888EA0158701639000000000000
B0747463218599S11709888EA0157901632000000000000
B0747503218510S11709880EA0157101620000000000000
B0747543218421S11709867EA0156101613000000000000
B0747583218331S11709854EA0156001611000000000000
B0748023218244S11709845EA0155701611000000000000
B0748063218157S11709835EA0155301600000000000000
B0748103218067S11709825EA0153801588000000000000
B0748143217979S11709815EA0153301583000000000000
B0748183217892S11709810EA0153301589000000000000
B0748223217810S11709805EA0153501587000000000000
B0748263217726S11709802EA0152301569000000000000
B0748303217638S11709802EA0150601553000000000000
B0748343217546S11709804EA0149201539000000000000
B0748383217455S11709810EA0148401530000000000000
B0748423217362S11709815EA0146901511000000000000
B0748463217270S11709822EA0145201492000000000000
B0748503217173S11709828EA0143601479000000000000
B0748543217075S11709836EA0142601465000000000000
B0748583216974S11709840EA0140501437000000000000
B0749023216867S11709843EA0138301419000000000000
B0749063216759S11709845EA0137101406000000000000
B0749103216653S11709849EA0135701390000000000000
B0749143216543S11709858EA0134201376000000000000
B0749183216434S11709869EA0133501372000000000000
B0749223216330S11709879EA0132901362000000000000
B0749263216226S11709886EA0132901373000000000000
B0749303216129S11709890EA0134301387000000000000
B0749343216036S11709899EA0135701402000000000000
B0749383215947S11709906EA0136701413000000000000
B0749423215858S11709918EA0137301414000000000000
B0749463215770S11709932EA0137301413000000000000
B0749503215683S11709951EA0137601423000000000000
B0749543215596S11709971EA0137801419000000000000
B0749583215505S11709994EA0137501415000000000000
B0750023215409S11709979EA0137401421000000000000
B0750063215375S11709895EA0139501453000000000000
B0750103215432S11709847EA0141501463000000000000
B0750143215494S11709884EA0142201470000000000000
B0750183215527S11709958EA0143001480000000015000
B0750223215507S11710040EA0144001490000000015000
B0750263215455S11710105EA0144401490000000015000
B0750303215381S11710134EA0144501493000000015000
B0750343215303S11710139EA0144301487000000000000
B0750383215219S11710143EA0143201468000000000000
B0750423215126S11710146EA0141201448000000000000
B0750463215032S11710147EA0139601432000000000000
B0750503214934S11710150EA0138401420000000000000
B0750543214834S11710153EA0137501415000000000000
B0750583214734S11710159EA0137601417000000000000
B0751023214638S11710164EA0137701422000000000000
B0751063214544S11710169EA0137901420000000000000
B0751103214450S11710172EA0137001410000000000000
B0751143214356S11710169EA0136001395000000000000
B0751183214259S11710166EA0134601377000000000000
B0751223214161S11710163EA0133001363000000000000
B0751263214062S11710157EA0131801352000000000000
B0751303213963S11710151EA0130301336000000000000
B0751343213864S11710144EA0129301328000000000000
B0751383213767S11710139EA0128801323000000000000
B0751423213670S11710135EA0128601321000000000000
B0751463213577S11710133EA0128401317000000000000
B0751503213483S11710129EA0127501305000000000000
B0751543213390S11710126EA0126301293000000000000
B0751583213293S11710125EA0125001278000000000000
B0752023213199S11710120EA0123801270000000000000
B0752063213105S11710116EA0123601267000000000000
B0752103213014S11710116EA0122401251000000000000
B0752143212923S11710116EA0121601246000000000000
B0752183212835S11710114EA0121601250000000000000
B0752223212750S11710113EA0121701250000000000000
B0752263212668S11710113EA0121601246000000000000
B0752303212585S11710112EA0121101241000000000000
B0752343212503S11710111EA0121001243000000000000
B0752383212424S11710118EA0122101257000000000000
B0752423212369S11710172EA0123301268000000000000
B0752463212383S11710243EA0124701282000000000000
B0752503212439S11710254EA0125601292000000000000
B0752543212469S11710194EA0125601288000000000000
B0752583212443S11710117EA0126201302000000000000
B0753023212385S11710069EA0127301310000000000000
B0753063212315S11710081EA0127901319000000000000
B0753103212282S11710144EA0128701325000000000000
B0753143212289S11710217EA0128501322000000000000
B0753183212315S11710285EA0129201332000000000000
B0753223212369S11710299EA0130301343000000000000
B0753263212391S11710242EA0131201351000000000000
B0753303212348S11710190EA0131401352000000000000
B0753343212282S11710213EA0131501355000000000000
B0753383212231S11710277EA0131801360000000000000
B0753423212209S11710354EA0132601364000000000000
B0753463212252S11710398EA0132701363000000000000
B0753503212299S11710358EA0132401361000000000000
B0753543212298S11710281EA0132701367000000015000
B0753583212263S11710209EA0132901369000000000000
B0754023212214S11710142EA0133401373000000000000
B0754063212143S11710116EA0133601372000000000000
B0754103212070S11710144EA0132901365000000000000
B0754143211997S11710190EA0131301344000000000000
B0754183211910S11710215EA0130201334000000000000
B0754223211821S11710220EA0129701332000000000000
B0754263211732S11710228EA0129701332000000000000
B0754303211642S11710244EA0129101326000000000000
B0754343211553S11710263EA0129001327000000000000
B0754383211468S11710295EA0129601332000000000000
B0754423211389S11710339EA0130301343000000000000
B0754463211343S11710408EA0132201364000000000000
B0754503211381S11710458EA0133101366000000000000
B0754543211429S11710408EA0132801364000000000000
B0754583211419S11710317EA0133901381000000000000
B0755023211366S11710250EA0135101395000000000000
B0755063211301S11710268EA0136301404000000000000
B0755103211298S11710333EA0136401401000000000000
B0755143211353S11710338EA0136701416000000015000
B0755183211394S11710282EA0138301431000000015000
B0755223211394S11710202EA0139601441000000015000
B0755263211329S11710176EA0140101441000000015000
B0755303211301S11710237EA0140301444000000015000
B0755343211341S11710276EA0140501450000000015000
B0755383211398S11710248EA0141401462000000015000
B0755423211411S11710170EA0142901474000000015000
B0755463211355S11710114EA0143401477000000015000
B0755503211297S11710153EA0143401478000000015000
B0755543211320S11710217EA0143401479000000015000
B0755583211376S11710195EA0144701501000000015000
B0756023211386S11710116EA0145801509000000015000
B0756063211341S11710051EA0146301508000000015000
B0756103211273S11710051EA0146101502000000015000
