ACAM4N6
HFDTE281213
HFFXA050
HFPLTPILOT:JOHN WELSH              
HFGTYGLIDERTYPE:HORNET      
HFGIDGLIDERID:VH-GMY      
HFDTM100GPSDATUM:
HFRFWFIRMWAREVERSION:F2.6
HFRHWHARDWAREVERSION:300 Series Version 2
HFFTYFRTYPE:CAMBRIDGE AERO INSTRUMENTS, 302+
HFGPS:GARMIN,LVS-25,12,18000
HFPRSPRESSALTSENSOR:INTERSEMA, MS5534-AP, 20000
I033638FXA3941ENL4247REX
LCAMSBVER:5FWVER:F26300
C281213040216281213000103
C0000000N00000000WTAKEOFF     
C3207549S11656849EBEVAIR      
C3137833S11659799EMECKERNG    
C3137399S11712982ECunderdin AF
C3229866S11744599EBULLARNG    
C3207549S11656849EBEVAIR      
C0000000N00000000WLANDING     
B0407103207341S11656860EA0020200210000000000000
B0407123207341S11656860EA0020200210000000000000
B0407143207341S11656860EA0020300210000000000000
B0407163207341S11656860EA0020200210000000000000
B0407183207341S11656860EA0020300210000000000000
B0407203207341S11656860EA0020200210000000000000
B0407223207341S11656860EA0020200210000000000000
B0407243207341S11656860EA0020300210000000000000
B0407263207341S11656860EA0020300210000000000000
B0407283207341S11656860EA0020300210000000000000
B0407303207341S11656860EA0020200210000000000000
B0407323207341S11656860EA0020200210000000000000
B0407343207341S11656860EA0020300210000000000000
B0407363207341S11656860EA0020200210000000000000
B0407383207341S11656860EA0020300210000000000000
B0407413207347S11656865EA0020200210000000000000
B0407453207371S11656883EA0020000209000000000000
B0407493207410S11656909EA0020000209000000000000
B0407533207463S11656943EA0019900209000000000000
B0407573207523S11656982EA0019600211000000000000
B0408013207585S11657025EA0020100220000000000000
B0408053207645S11657068EA0021500238000000000000
B0408093207705S11657107EA0023600261000000000000
B0408133207766S11657147EA0025100274000000000000
B0408173207824S11657189EA0026700296000000000000
B0408213207880S11657234EA0029100319000000000000
B0408253207939S11657278EA0031000341000000000000
B0408293207996S11657326EA0032800350000000000000
B0408333208056S11657376EA0033400359000000000000
B0408373208113S11657421EA0035100382000000000000
B0408413208169S11657468EA0036800398000000000000
B0408453208218S11657512EA0038700424000000000000
B0408493208272S11657559EA0041000445000000000000
B0408533208329S11657602EA0043100466000000000000
B0408573208385S11657646EA0045400493000000000000
B0409013208442S11657690EA0047400510000000000000
B0409053208495S11657738EA0049000526000000000000
B0409093208532S11657801EA0051200553000000000000
B0409133208546S11657872EA0053900580000000000000
B0409173208542S11657949EA0056000598000000000000
B0409213208519S11658022EA0057500614000000000000
B0409253208473S11658080EA0059700636000000000000
B0409293208416S11658118EA0061500651000000000000
B0409333208398S11658174EA0061700645000000000000
B0409373208447S11658208EA0060700639000000000000
B0409413208508S11658171EA0060400641000000000000
B0409453208538S11658097EA0060300638000000000000
B0409493208530S11658017EA0059000623000000000000
B0409533208494S11657944EA0057800612000000000000
B0409573208438S11657887EA0058100615000000000000
B0410013208376S11657840EA0058500616000000000000
B0410053208311S11657829EA0059000622000000000000
B0410093208305S11657884EA0059600633000000000000
B0410133208357S11657878EA0060900652000000000000
B0410173208369S11657810EA0062400661000000000000
B0410213208324S11657766EA0062600662000000000000
B0410253208278S11657793EA0062700664000000000000
B0410293208279S11657850EA0062800661000000000000
B0410333208321S11657884EA0062400655000000000000
B0410373208382S11657866EA0061700649000000000000
B0410413208426S11657801EA0061200646000000000000
B0410453208434S11657715EA0060800643000000000000
B0410493208386S11657658EA0061800655000000000000
B0410533208346S11657696EA0063100667000000000000
B0410573208376S11657733EA0063600671000000000000
B0411013208425S11657703EA0063800671000000000000
B0411053208434S11657631EA0063900677000000000000
B0411093208392S11657576EA0064500682000000000000
B0411133208338S11657590EA0064800686000000000000
B0411173208333S11657644EA0065600692000000000000
B0411213208374S11657664EA0065800695000000000000
B0411253208420S11657624EA0065700695000000000000
B0411293208421S11657549EA0066300706000000000000
B0411333208373S11657508EA0067100710000000000000
B0411373208334S11657547EA0067700713000000000000
B0411413208357S11657592EA0068200717000000000000
B0411453208409S11657577EA0068200720000000000000
B0411493208424S11657507EA0068700727000000000000
B0411533208374S11657469EA0069800742000000000000
B0411573208331S11657501EA0071500753000000000000
B0412013208342S11657553EA0071800752000000000000
B0412053208390S11657567EA0071800752000000000000
B0412093208433S11657520EA0071500748000000000000
B0412133208415S11657449EA0071300749000000000000
B0412173208355S11657419EA0071700754000000000000
B0412213208309S11657456EA0072900767000000000000
B0412253208340S11657494EA0073700767000000000000
B0412293208386S11657451EA0072000752000000000000
B0412333208382S11657371EA0072400759000000000000
B0412373208333S11657316EA0073900777000000000000
B0412413208287S11657346EA0075600794000000000000
B0412453208311S11657387EA0076200797000000000000
B0412493208366S11657369EA0075800798000000000000
B0412533208398S11657302EA0076400809000000000000
B0412573208386S11657225EA0077800818000000000000
B0413013208337S11657174EA0078100817000000000000
B0413053208278S11657187EA0078700827000000000000
B0413093208262S11657239EA0080300839000000000000
B0413133208299S11657272EA0080800842000000000000
B0413173208352S11657243EA0080600840000000000000
B0413213208373S11657168EA0081700856000000000000
B0413253208350S11657091EA0082000855000000000000
B0413293208290S11657059EA0082000859000000000000
B0413333208229S11657079EA0082400855000000000000
B0413373208213S11657137EA0083100865000000000000
B0413413208248S11657178EA0083800868000000000000
B0413453208304S11657177EA0084000872000000000000
B0413493208338S11657114EA0084900887000000000000
B0413533208299S11657056EA0086200895000000000000
B0413573208248S11657083EA0086800903000000000000
B0414013208253S11657140EA0087700914000000000000
B0414053208307S11657156EA0088200920000000000000
B0414093208361S11657116EA0088900932000000000000
B0414133208376S11657042EA0089900941000000000000
B0414173208344S11656978EA0089600934000000000000
B0414213208288S11656960EA0089400933000000000000
B0414253208231S11656983EA0089300931000000000000
B0414293208183S11657029EA0089600933000000000000
B0414333208148S11657090EA0089100924000000000000
B0414373208117S11657159EA0088000912000000000000
B0414413208090S11657234EA0087200906000000000000
B0414453208064S11657311EA0086400895000000000000
B0414493208041S11657387EA0085700888000000000000
B0414533208021S11657465EA0085000880000000000000
B0414573208002S11657545EA0084800879000000000000
B0415013207987S11657625EA0084700880000000000000
B0415053207991S11657701EA0086500902000000000000
B0415093208039S11657705EA0088700932000000000000
B0415133208056S11657633EA0089300925000000000000
B0415173208012S11657569EA0088500927000000000000
B0415213207949S11657556EA0089100930000000000000
B0415253207895S11657584EA0089400932000000000000
B0415293207882S11657644EA0089500933000000000000
B0415333207887S11657710EA0089400932000000000000
B0415373207892S11657775EA0090100939000000000000
B0415413207900S11657836EA0090100935000000000000
B0415453207913S11657900EA0088700920000000000000
B0415493207906S11657970EA0087600907000000000000
B0415533207874S11658035EA0086800900000000000000
B0415573207820S11658084EA0085900892000000000000
B0416013207758S11658130EA0085300888000000000000
B0416053207706S11658184EA0085500893000000000000
B0416093207661S11658245EA0085800889000000000000
B0416133207628S11658317EA0085100883000000000000
B0416173207607S11658395EA0084400880000000000000
B0416213207593S11658473EA0084500880000000000000
B0416253207585S11658550EA0084000870000000000000
B0416293207575S11658630EA0082900856000000000000
B0416333207533S11658698EA0081700846000000000000
B0416373207467S11658741EA0080800841000000000000
B0416413207395S11658777EA0080400839000000000000
B0416453207329S11658817EA0080100834000000000000
B0416493207269S11658864EA0079500823000000000000
B0416533207195S11658892EA0078700823000000000000
B0416573207122S11658920EA0079400833000000000000
B0417013207104S11658980EA0081900858000000000000
B0417053207154S11658980EA0082800858000000000000
B0417093207169S11658899EA0083200866000000000000
B0417133207121S11658853EA0084300880000000000000
B0417173207072S11658876EA0084800880000000000000
B0417213207078S11658929EA0085200884000000000000
B0417253207130S11658937EA0085200886000000000000
B0417293207157S11658866EA0085300891000000000000
B0417333207120S11658807EA0086100896000000000000
B0417373207078S11658843EA0086900907000000000000
B0417413207105S11658886EA0088100917000000000000
B0417453207155S11658849EA0087900914000000000000
B0417493207148S11658767EA0088300925000000000000
B0417533207095S11658732EA0089600934000000000000
B0417573207051S11658769EA0090000935000000000000
B0418013207061S11658825EA0090200939000000000000
B0418053207116S11658827EA0090400938000000000000
B0418093207150S11658762EA0090600944000000000000
B0418133207126S11658685EA0090900948000000000000
B0418173207064S11658667EA0091500951000000000000
B0418213207026S11658716EA0091400948000000000000
B0418253207059S11658760EA0092000954000000000000
B0418293207115S11658743EA0091200945000000000000
B0418333207141S11658663EA0091100949000000000000
B0418373207117S11658581EA0091600956000000000000
B0418413207055S11658551EA0092100958000000000000
B0418453207000S11658589EA0092000957000000000000
B0418493206994S11658656EA0092000956000000000000
B0418533207039S11658690EA0092500959000000000000
B0418573207092S11658654EA0091700951000000000000
B0419013207115S11658565EA0091200954000000000000
B0419053207086S11658489EA0092700967000000000000
B0419093207029S11658500EA0093100973000000015000
B0419133207022S11658563EA0093100971000000015000
B0419173207072S11658593EA0092900969000000015000
B0419213207128S11658548EA0092900973000000015000
B0419253207137S11658463EA0093800983000000015000
B0419293207090S11658405EA0094400986000000000000
B0419333207024S11658400EA0094000981000000000000
B0419373206983S11658450EA0094100983000000000000
B0419413207003S11658509EA0093400972000000000000
B0419453207064S11658515EA0093200971000000000000
B0419493207118S11658452EA0093000970000000000000
B0419533207160S11658369EA0093000972000000000000
B0419573207126S11658290EA0093000974000000000000
B0420013207063S11658281EA0093900983000000000000
B0420053207021S11658323EA0094200981000000015000
B0420093206995S11658387EA0093400972000000000000
B0420133206981S11658459EA0092800965000000000000
B0420173206975S11658534EA0091500948000000000000
B0420213206942S11658600EA0090100936000000000000
B0420253206879S11658630EA0089000925000000000000
B0420293206805S11658625EA0087500910000000000000
B0420333206734S11658594EA0085900897000000000000
B0420373206667S11658546EA0084900887000000000000
B0420413206606S11658486EA0084100877000000000000
B0420453206550S11658418EA0083400869000000000000
B0420493206498S11658346EA0082300858000000000000
B0420533206445S11658275EA0081300846000000000000
B0420573206387S11658205EA0079700829000000000000
B0421013206325S11658136EA0078700822000000000000
B0421053206262S11658071EA0078000814000000000000
B0421093206198S11658006EA0077200805000000000000
B0421133206132S11657944EA0075800790000000000000
B0421173206064S11657881EA0074900783000000000000
B0421213205998S11657824EA0074300776000000000000
B0421253205929S11657770EA0073600763000000000000
B0421293205865S11657705EA0072400753000000000000
B0421333205817S11657618EA0072000749000000000000
B0421373205794S11657519EA0071700747000000000000
B0421413205791S11657419EA0071000740000000000000
B0421453205808S11657320EA0070600733000000000000
B0421493205837S11657226EA0070300724000000000000
B0421533205876S11657139EA0069100713000000000000
B0421573205922S11657059EA0068100704000000000000
B0422013205974S11656983EA0067300699000000000000
B0422053206026S11656910EA0066600692000000000000
B0422093206080S11656843EA0066100684000000000000
B0422133206134S11656782EA0065300678000000000000
B0422173206192S11656724EA0064100665000000000000
B0422213206251S11656667EA0063200653000000000000
B0422253206312S11656613EA0062000643000000000000
B0422293206375S11656559EA0061600642000000000000
B0422333206437S11656511EA0062000643000000000000
B0422373206487S11656442EA0061800650000000000000
B0422413206459S11656372EA0063000660000000000000
B0422453206406S11656394EA0062900647000000015000
B0422493206407S11656461EA0063800659000000015000
B0422533206462S11656479EA0065400673000000015000
B0422573206501S11656418EA0065600677000000015000
B0423013206466S11656350EA0065800682000000000000
B0423053206409S11656353EA0066300688000000000000
B0423093206387S11656409EA0067300698000000015000
B0423133206440S11656423EA0067500698000000015000
B0423173206452S11656346EA0067400699000000015000
B0423213206389S11656328EA0067500708000000015000
B0423253206344S11656372EA0068500717000000015000
B0423293206349S11656438EA0069000720000000015000
B0423333206409S11656440EA0068500716000000015000
B0423373206440S11656364EA0068600716000000015000
B0423413206418S11656279EA0068300716000000015000
B0423453206364S11656232EA0069500717000000015000
B0423493206341S11656282EA0071100727000000015000
B0423533206390S11656298EA0071600730000000015000
B0423573206416S11656230EA0072400747000000015000
B0424013206374S11656181EA0073500754000000015000
B0424053206322S11656207EA0073600755000000015000
B0424093206322S11656269EA0074000762000000015000
B0424133206375S11656285EA0074900772000000015000
B0424173206416S11656227EA0074800769000000015000
B0424213206394S11656150EA0075200778000000015000
B0424253206342S11656155EA0077400803000000015000
B0424293206350S11656203EA0078000802000000015000
B0424333206406S11656204EA0077500799000000015000
B0424373206429S11656129EA0077700808000000015000
B0424413206385S11656080EA0079100830000000015000
B0424453206349S11656115EA0080800846000000015000
B0424493206374S11656160EA0081600849000000015000
B0424533206428S11656137EA0081700852000000015000
B0424573206436S11656060EA0082200858000000015000
B0425013206381S11656016EA0083000870000000015000
B0425053206337S11656052EA0084100878000000015000
B0425093206357S11656107EA0084800883000000015000
B0425133206411S11656112EA0085500892000000015000
B0425173206449S11656060EA0086200900000000015000
B0425213206431S11655987EA0086400901000000015000
B0425253206371S11655972EA0087000910000000015000
B0425293206353S11656022EA0087800917000000015000
B0425333206398S11656043EA0088000917000000015000
B0425373206431S11655985EA0088400923000000015000
B0425413206394S11655920EA0089000929000000015000
B0425453206333S11655916EA0089300935000000015000
B0425493206320S11655969EA0090000940000000015000
B0425533206359S11656003EA0089900937000000015000
B0425573206410S11655970EA0089600936000000015000
B0426013206420S11655890EA0090100946000000015000
B0426053206393S11655816EA0091100955000000000000
B0426093206338S11655799EA0091400952000000015000
B0426133206307S11655850EA0090300942000000015000
B0426173206331S11655907EA0090400945000000015000
B0426213206384S11655921EA0091000950000000015000
B0426253206441S11655887EA0091000950000000015000
B0426293206463S11655813EA0091600959000000015000
B0426333206427S11655749EA0091900958000000000000
B0426373206364S11655747EA0091900961000000000000
B0426413206342S11655799EA0092300963000000000000
B0426453206388S11655816EA0092700968000000000000
B0426493206432S11655762EA0093500976000000000000
B0426533206428S11655686EA0094100979000000000000
B0426573206379S11655640EA0094100986000000000000
B0427013206333S11655660EA0095400995000000000000
B0427053206325S11655709EA0095500993000000000000
B0427093206357S11655748EA0095100993000000000000
B0427133206413S11655739EA0095900998000000000000
B0427173206457S11655681EA0096101002000000000000
B0427213206461S11655601EA0096701009000000000000
B0427253206418S11655552EA0097101011000000000000
B0427293206368S11655569EA0097501016000000000000
B0427333206363S11655621EA0097601015000000000000
B0427373206407S11655649EA0098001019000000000000
B0427413206466S11655622EA0098401024000000000000
B0427453206474S11655545EA0098601026000000000000
B0427493206422S11655504EA0098601025000000000000
B0427533206363S11655515EA0098501022000000000000
B0427573206336S11655573EA0098301023000000000000
B0428013206357S11655636EA0098701027000000000000
B0428053206414S11655626EA0099801043000000015000
B0428093206439S11655547EA0100701048000000015000
B0428133206402S11655482EA0101701057000000015000
B0428173206348S11655488EA0102201060000000015000
B0428213206325S11655543EA0102101063000000015000
B0428253206354S11655592EA0102901068000000015000
B0428293206410S11655592EA0103001067000000015000
B0428333206453S11655527EA0102801069000000015000
B0428373206454S11655444EA0103501076000000015000
B0428413206410S11655391EA0103901077000000015000
B0428453206349S11655397EA0103201071000000015000
B0428493206302S11655444EA0103001071000000015000
B0428533206284S11655509EA0103701079000000015000
B0428573206301S11655573EA0103601074000000015000
B0429013206346S11655619EA0102901069000000015000
B0429053206407S11655640EA0103001068000000000000
B0429093206475S11655655EA0102201064000000000000
B0429133206541S11655671EA0102901076000000000000
B0429173206600S11655684EA0104601090000000000000
B0429213206649S11655643EA0105501099000000000000
B0429253206653S11655558EA0104401083000000000000
B0429293206606S11655486EA0103801083000000000000
B0429333206537S11655465EA0103701083000000000000
B0429373206479S11655496EA0104401091000000000000
B0429413206450S11655561EA0104701090000000000000
B0429453206463S11655635EA0104501089000000000000
B0429493206511S11655681EA0104801092000000000000
B0429533206574S11655671EA0104901093000000000000
B0429573206622S11655610EA0105101097000000000000
B0430013206637S11655523EA0105101096000000000000
B0430053206613S11655440EA0104701093000000000000
B0430093206554S11655383EA0104601093000000015000
B0430133206487S11655379EA0105301106000000015000
B0430173206446S11655426EA0106801119000000015000
B0430213206484S11655465EA0108101130000000015000
B0430253206532S11655424EA0108301126000000015000
B0430293206527S11655348EA0107601125000000015000
B0430333206467S11655323EA0108401138000000015000
B0430373206420S11655362EA0109801146000000015000
B0430413206423S11655424EA0109901145000000015000
B0430453206475S11655443EA0110601152000000015000
B0430493206519S11655391EA0110701150000000015000
B0430533206504S11655317EA0110801157000000015000
B0430573206448S11655280EA0111801168000000015000
B0431013206409S11655320EA0112101165000000015000
B0431053206433S11655376EA0111801165000000015000
B0431093206491S11655371EA0112801174000000015000
B0431133206531S11655317EA0113501178000000015000
B0431173206527S11655241EA0113601182000000015000
B0431213206478S11655202EA0114601192000000015000
B0431253206429S11655231EA0115301196000000015000
B0431293206427S11655291EA0115401197000000015000
B0431333206475S11655320EA0115401199000000015000
B0431373206523S11655280EA0115801205000000015000
B0431413206522S11655207EA0116801213000000015000
B0431453206475S11655162EA0117301219000000015000
B0431493206419S11655171EA0117801221000000015000
B0431533206393S11655227EA0118001226000000000000
B0431573206420S11655279EA0118401227000000000000
B0432013206476S11655266EA0118801232000000000000
B0432053206500S11655196EA0119001234000000000000
B0432093206474S11655123EA0119001235000000000000
B0432133206415S11655093EA0119501239000000015000
B0432173206361S11655123EA0119701242000000000000
B0432213206354S11655187EA0120201244000000015000
B0432253206393S11655239EA0119701238000000000000
B0432293206455S11655252EA0119401235000000000000
B0432333206519S11655229EA0119301237000000000000
B0432373206552S11655162EA0119501240000000000000
B0432413206545S11655081EA0119401240000000000000
B0432453206511S11655010EA0120001245000000015000
B0432493206453S11654979EA0120601252000000015000
B0432533206423S11655028EA0121101257000000015000
B0432573206461S11655075EA0121101257000000015000
B0433013206517S11655054EA0121401259000000015000
B0433053206530S11654981EA0121601262000000015000
B0433093206483S11654929EA0121601264000000015000
B0433133206426S11654942EA0122301273000000015000
B0433173206403S11654999EA0123201286000000015000
B0433213206436S11655045EA0123401284000000015000
B0433253206494S11655036EA0123101282000000015000
B0433293206523S11654971EA0123301287000000015000
B0433333206496S11654903EA0123601289000000015000
B0433373206439S11654889EA0123501287000000015000
B0433413206397S11654930EA0124101298000000030000
B0433453206390S11654992EA0124301294000000015000
B0433493206403S11655058EA0123201280000000015000
B0433533206428S11655128EA0122001269000000015000
B0433573206457S11655200EA0121501267000000015000
B0434013206478S11655270EA0121401266000000015000
B0434053206501S11655337EA0120801252000000015000
B0434093206544S11655397EA0119001233000000015000
B0434133206606S11655437EA0117601224000000000000
B0434173206675S11655463EA0116901217000000000000
B0434213206745S11655484EA0116701213000000000000
B0434253206816S11655502EA0116101207000000000000
B0434293206887S11655525EA0115401200000000000000
B0434333206960S11655544EA0114901195000000000000
B0434373207033S11655561EA0114601190000000000000
B0434413207104S11655578EA0113901182000000000000
B0434453207176S11655593EA0113701183000000000000
B0434493207243S11655608EA0114001189000000000000
B0434533207308S11655618EA0115001200000000000000
B0434573207369S11655604EA0116701217000000000000
B0435013207406S11655545EA0117501223000000000000
B0435053207395S11655470EA0116901212000000000000
B0435093207341S11655428EA0116101207000000000000
B0435133207287S11655450EA0116001205000000000000
B0435173207273S11655506EA0115401198000000000000
B0435213207291S11655565EA0114701196000000000000
B0435253207320S11655621EA0115401204000000000000
B0435293207354S11655673EA0115601205000000000000
B0435333207394S11655721EA0115301198000000000000
B0435373207443S11655769EA0114101189000000000000
B0435413207497S11655813EA0114401191000000000000
B0435453207551S11655856EA0114101188000000000000
B0435493207606S11655900EA0113801184000000000000
B0435533207661S11655948EA0113301178000000000000
B0435573207714S11655999EA0112501170000000000000
B0436013207771S11656046EA0111901166000000000000
B0436053207828S11656090EA0111301158000000000000
B0436093207887S11656134EA0110401148000000000000
B0436133207948S11656180EA0109001131000000000000
B0436173208008S11656223EA0109001137000000000000
B0436213208061S11656260EA0109501139000000000000
B0436253208109S11656299EA0109601137000000000000
B0436293208161S11656337EA0109301135000000000000
B0436333208218S11656367EA0108601127000000000000
B0436373208278S11656362EA0108701133000000000000
B0436413208333S11656327EA0108901132000000000000
B0436453208381S11656275EA0108601129000000000000
B0436493208429S11656217EA0107701120000000000000
B0436533208476S11656154EA0106401108000000000000
B0436573208521S11656086EA0105701102000000000000
B0437013208565S11656017EA0105301097000000000000
B0437053208607S11655950EA0104701088000000000000
B0437093208651S11655882EA0104201090000000000000
B0437133208694S11655821EA0104501089000000000000
B0437173208737S11655761EA0104101084000000000000
B0437213208764S11655691EA0103801082000000000000
B0437253208743S11655616EA0103401080000000000000
B0437293208689S11655567EA0103101075000000000000
B0437333208626S11655562EA0103001077000000000000
B0437373208598S11655617EA0104001090000000000000
B0437413208628S11655665EA0105101099000000000000
B0437453208682S11655648EA0105901105000000000000
B0437493208701S11655579EA0106001104000000000000
B0437533208663S11655526EA0106201108000000000000
B0437573208611S11655531EA0106501113000000000000
B0438013208598S11655582EA0107001118000000000000
B0438053208642S11655613EA0107301120000000000000
B0438093208701S11655586EA0107601123000000000000
B0438133208727S11655517EA0107801126000000000000
B0438173208699S11655452EA0107901123000000000000
B0438213208645S11655440EA0107701122000000000000
B0438253208613S11655489EA0107701123000000000000
B0438293208632S11655548EA0108201128000000000000
B0438333208690S11655551EA0109001138000000000000
B0438373208727S11655493EA0109701143000000000000
B0438413208715S11655426EA0109901142000000000000
B0438453208664S11655395EA0109301135000000000000
B0438493208616S11655419EA0109701143000000000000
B0438533208607S11655473EA0110201148000000000000
B0438573208637S11655522EA0110101141000000000000
B0439013208675S11655580EA0109301137000000000000
B0439053208711S11655639EA0109001132000000000000
B0439093208772S11655630EA0108901137000000000000
B0439133208799S11655556EA0109201133000000000000
B0439173208776S11655478EA0108001125000000000000
B0439213208725S11655418EA0108201131000000000000
B0439253208672S11655436EA0109001143000000015000
B0439293208673S11655499EA0109401145000000015000
B0439333208725S11655509EA0110201152000000015000
B0439373208760S11655449EA0109801143000000000000
B0439413208754S11655371EA0109901150000000000000
B0439453208706S11655337EA0110501165000000015000
B0439493208659S11655366EA0110801169000000015000
B0439533208643S11655428EA0110701162000000015000
B0439573208654S11655500EA0109601150000000015000
B0440013208665S11655575EA0108301135000000015000
B0440053208676S11655652EA0107201122000000015000
B0440093208684S11655730EA0106301115000000000000
B0440133208691S11655805EA0105701107000000000000
B0440173208701S11655883EA0104401089000000000000
B0440213208711S11655961EA0103301078000000000000
B0440253208721S11656043EA0102601071000000000000
B0440293208728S11656124EA0102401073000000000000
B0440333208730S11656203EA0102901076000000000000
B0440373208733S11656285EA0102801081000000000000
B0440413208772S11656338EA0104701106000000000000
B0440453208819S11656294EA0107301124000000000000
B0440493208798S11656223EA0108401131000000000000
B0440533208736S11656212EA0108401132000000015000
B0440573208689S11656253EA0107901125000000015000
B0441013208690S11656312EA0108201128000000015000
B0441053208743S11656331EA0108701133000000000000
B0441093208807S11656312EA0108601127000000000000
B0441133208867S11656259EA0108401126000000000000
B0441173208875S11656169EA0109101138000000000000
B0441213208838S11656090EA0110101149000000015000
B0441253208772S11656072EA0111301161000000015000
B0441293208723S11656112EA0111401160000000015000
B0441333208740S11656168EA0111601165000000015000
B0441373208805S11656158EA0111901167000000015000
B0441413208862S11656100EA0112801180000000015000
B0441453208836S11656028EA0114401196000000015000
B0441493208795S11656063EA0114401195000000015000
B0441533208840S11656091EA0115701212000000015000
B0441573208881S11656038EA0117601227000000015000
B0442013208857S11655969EA0118101232000000015000
B0442053208802S11655981EA0118401237000000015000
B0442093208810S11656030EA0119601250000000015000
B0442133208864S11656016EA0120101252000000015000
B0442173208898S11655938EA0120301257000000015000
B0442213208881S11655850EA0120901262000000015000
B0442253208823S11655800EA0121401270000000015000
B0442293208763S11655822EA0121801271000000015000
B0442333208743S11655885EA0121501268000000015000
B0442373208779S11655938EA0121601268000000015000
B0442413208841S11655957EA0122101278000000000000
B0442453208897S11655902EA0123501290000000000000
B0442493208907S11655816EA0124301300000000000000
B0442533208876S11655742EA0125401309000000015000
B0442573208818S11655725EA0125401306000000015000
B0443013208785S11655777EA0125001299000000015000
B0443053208788S11655850EA0123701290000000000000
B0443093208803S11655928EA0123701293000000000000
B0443133208840S11655987EA0125101314000000000000
B0443173208902S11655968EA0127201329000000000000
B0443213208938S11655889EA0127501332000000000000
B0443253208927S11655804EA0128601343000000000000
B0443293208870S11655791EA0129001349000000015000
B0443333208862S11655846EA0129601353000000015000
B0443373208922S11655840EA0130401364000000015000
B0443413208928S11655759EA0131501375000000015000
B0443453208875S11655735EA0132401382000000015000
B0443493208844S11655781EA0132601383000000015000
B0443533208880S11655818EA0133801398000000015000
B0443573208936S11655783EA0134701402000000015000
B0444013208942S11655701EA0135101409000000015000
B0444053208894S11655664EA0136001418000000015000
B0444093208853S11655690EA0136201417000000015000
B0444133208862S11655742EA0136401420000000015000
B0444173208918S11655757EA0137001427000000015000
B0444213208966S11655696EA0137301430000000015000
B0444253208958S11655617EA0138301441000000015000
B0444293208907S11655586EA0138901445000000015000
B0444333208866S11655616EA0138601435000000015000
B0444373208859S11655683EA0137401429000000015000
B0444413208873S11655753EA0137401435000000015000
B0444453208902S11655817EA0138001440000000000000
B0444493208964S11655844EA0138301442000000000000
B0444533209027S11655800EA0138301438000000000000
B0444573209052S11655712EA0137601431000000000000
B0445013209053S11655616EA0137401434000000000000
B0445053209037S11655525EA0137801437000000000000
B0445093208989S11655476EA0138801451000000000000
B0445133208940S11655487EA0139301450000000000000
B0445173208916S11655535EA0139101447000000015000
B0445213208916S11655599EA0138601441000000000000
B0445253208927S11655670EA0138001440000000000000
B0445293208970S11655725EA0138301449000000000000
B0445333209031S11655699EA0139601457000000000000
B0445373209046S11655625EA0139001443000000000000
B0445413209002S11655567EA0137701440000000000000
B0445453208945S11655569EA0138201444000000015000
B0445493208909S11655614EA0138201446000000015000
B0445533208903S11655678EA0138201443000000000000
B0445573208915S11655748EA0137301431000000000000
B0446013208927S11655825EA0135401413000000000000
B0446053208940S11655905EA0134801407000000000000
B0446093208929S11655985EA0134901416000000000000
B0446133208914S11656059EA0135701426000000000000
B0446173208905S11656132EA0136401427000000000000
B0446213208907S11656207EA0135901419000000000000
B0446253208922S11656284EA0135001411000000000000
B0446293208957S11656354EA0134201404000000000000
B0446333208992S11656425EA0134301403000000000000
B0446373208976S11656493EA0135201420000000000000
B0446413208918S11656514EA0136501421000000000000
B0446453208855S11656481EA0135701408000000000000
B0446493208798S11656419EA0134301400000000000000
B0446533208725S11656394EA0133901404000000000000
B0446573208665S11656435EA0135501421000000000000
B0447013208651S11656501EA0136501431000000000000
B0447053208690S11656550EA0136701429000000000000
B0447093208750S11656531EA0136501426000000000000
B0447133208766S11656453EA0136201427000000000000
B0447173208715S11656402EA0137101437000000000000
B0447213208652S11656411EA0137901442000000000000
B0447253208611S11656462EA0137901441000000000000
B0447293208602S11656533EA0137201432000000000000
B0447333208612S11656610EA0136001416000000000000
B0447373208628S11656693EA0134401400000000000000
B0447413208650S11656784EA0132601382000000000000
B0447453208673S11656879EA0131701378000000000000
B0447493208694S11656971EA0131101368000000000000
B0447533208715S11657066EA0129801356000000000000
B0447573208730S11657161EA0129301353000000000000
B0448013208742S11657251EA0129501355000000000000
B0448053208750S11657338EA0129901357000000000000
B0448093208756S11657425EA0129501351000000000000
B0448133208762S11657515EA0128501341000000000000
B0448173208767S11657605EA0127501328000000000000
B0448213208779S11657697EA0126301319000000000000
B0448253208786S11657785EA0126101320000000000000
B0448293208795S11657868EA0126801327000000000000
B0448333208815S11657945EA0127501332000000000000
B0448373208845S11658014EA0127601335000000000000
B0448413208873S11658079EA0127401329000000000000
B0448453208905S11658147EA0126901321000000000000
B0448493208941S11658214EA0126401317000000000000
B0448533208984S11658279EA0125601308000000000000
B0448573209027S11658344EA0125001302000000000000
B0449013209074S11658405EA0124801305000000000000
B0449053209124S11658457EA0125301309000000000000
B0449093209188S11658491EA0125101303000000000000
B0449133209241S11658541EA0124301297000000000000
B0449173209271S11658608EA0124001292000000000000
B0449213209296S11658680EA0123601291000000000000
B0449253209323S11658751EA0123501289000000000000
B0449293209343S11658824EA0123501287000000000000
B0449333209335S11658897EA0123501286000000000000
B0449373209300S11658955EA0123401284000000000000
B0449413209252S11659012EA0122601276000000000000
B0449453209209S11659077EA0122601280000000000000
B0449493209215S11659146EA0123701292000000000000
B0449533209273S11659149EA0124901301000000000000
B0449573209297S11659081EA0124601297000000000000
B0450013209271S11659006EA0123901291000000000000
B0450053209214S11658970EA0123801289000000000000
B0450093209150S11658976EA0123201279000000000000
B0450133209101S11659019EA0122101269000000000000
B0450173209067S11659087EA0120701252000000000000
B0450213209050S11659171EA0118701235000000000000
B0450253209048S11659262EA0117601227000000000000
B0450293209057S11659354EA0117301225000000000000
B0450333209071S11659444EA0117301221000000000000
B0450373209088S11659535EA0116401212000000000000
B0450413209113S11659626EA0115301205000000000000
B0450453209145S11659708EA0115601211000000000000
B0450493209178S11659786EA0115801209000000000000
B0450533209217S11659863EA0115001200000000000000
B0450573209263S11659935EA0114401198000000000000
B0451013209309S11700006EA0114101192000000000000
B0451053209358S11700071EA0113701189000000000000
B0451093209410S11700133EA0112701174000000000000
B0451133209445S11700214EA0111201162000000000000
B0451173209451S11700302EA0111101165000000000000
B0451213209436S11700377EA0112001175000000000000
B0451253209418S11700446EA0112501173000000000000
B0451293209388S11700513EA0111801163000000000000
B0451333209341S11700567EA0110901155000000000000
B0451373209282S11700608EA0110101148000000000000
B0451413209217S11700640EA0109601145000000000000
B0451453209153S11700669EA0109101136000000000000
B0451493209087S11700693EA0108301128000000000000
B0451533209018S11700714EA0107901118000000000000
B0451573208942S11700726EA0106601112000000000000
B0452013208868S11700738EA0106401110000000000000
B0452053208802S11700753EA0106701113000000000000
B0452093208742S11700777EA0107001111000000000000
B0452133208684S11700809EA0106801110000000000000
B0452173208650S11700868EA0107701122000000000000
B0452213208662S11700929EA0109101138000000000000
B0452253208720S11700912EA0110201145000000000000
B0452293208738S11700831EA0110001145000000000000
B0452333208701S11700767EA0111201161000000000000
B0452373208659S11700786EA0112301168000000000000
B0452413208681S11700839EA0112601174000000000000
B0452453208740S11700831EA0113301180000000000000
B0452493208772S11700760EA0113501181000000000000
B0452533208747S11700683EA0113901188000000000000
B0452573208694S11700666EA0114701197000000000000
B0453013208660S11700706EA0115701202000000015000
B0453053208680S11700760EA0115901205000000000000
B0453093208738S11700758EA0116701216000000000000
B0453133208775S11700696EA0116801213000000000000
B0453173208756S11700618EA0116301208000000015000
B0453213208701S11700587EA0116501212000000015000
B0453253208647S11700606EA0116501208000000015000
B0453293208625S11700663EA0116201204000000000000
B0453333208632S11700734EA0115901209000000000000
B0453373208682S11700761EA0117701240000000000000
B0453413208715S11700696EA0119601256000000015000
B0453453208682S11700637EA0120501266000000015000
B0453493208637S11700656EA0121101265000000015000
B0453533208649S11700713EA0121601276000000015000
B0453573208706S11700712EA0123301294000000015000
B0454013208733S11700640EA0124301300000000015000
B0454053208695S11700582EA0124801310000000015000
B0454093208650S11700600EA0126301318000000015000
B0454133208656S11700654EA0126701325000000015000
B0454173208711S11700662EA0128601347000000000000
B0454213208751S11700606EA0129801354000000000000
B0454253208740S11700533EA0129901356000000000000
B0454293208686S11700522EA0130301362000000000000
B0454333208663S11700572EA0131201369000000000000
B0454373208706S11700604EA0131701371000000000000
B0454413208749S11700541EA0132601385000000000000
B0454453208715S11700483EA0133801396000000000000
B0454493208663S11700493EA0134301398000000000000
B0454533208649S11700549EA0134601402000000000000
B0454573208691S11700592EA0135701418000000000000
B0455013208749S11700566EA0137101431000000000000
B0455053208764S11700492EA0137601435000000000000
B0455093208727S11700431EA0138001441000000000000
B0455133208673S11700431EA0138901449000000000000
B0455173208642S11700479EA0139501452000000000000
B0455213208660S11700539EA0139801458000000000000
B0455253208719S11700552EA0141001473000000000000
B0455293208768S11700505EA0142101483000000000000
B0455333208773S11700429EA0142701488000000000000
B0455373208734S11700370EA0143001488000000000000
B0455413208676S11700359EA0143401497000000000000
B0455453208636S11700394EA0144601505000000000000
B0455493208636S11700455EA0144501501000000000000
B0455533208672S11700507EA0144101500000000000000
B0455573208732S11700536EA0144601507000000000000
B0456013208792S11700515EA0145501518000000000000
B0456053208807S11700444EA0145901521000000000000
B0456093208776S11700374EA0145901521000000000000
B0456133208715S11700342EA0145601518000000000000
B0456173208654S11700358EA0146201525000000000000
B0456213208611S11700410EA0145701518000000000000
B0456253208598S11700485EA0145501519000000000000
B0456293208623S11700563EA0144801508000000000000
B0456333208682S11700613EA0145001515000000000000
B0456373208756S11700606EA0145401518000000000000
B0456413208816S11700549EA0145401516000000000000
B0456453208847S11700463EA0145201515000000000000
B0456493208845S11700371EA0145901524000000000000
B0456533208806S11700292EA0146301528000000000000
B0456573208740S11700244EA0146001522000000000000
B0457013208665S11700244EA0145901525000000000000
B0457053208608S11700297EA0145601517000000000000
B0457093208589S11700380EA0145501521000000000000
B0457133208599S11700465EA0146401534000000000000
B0457173208641S11700531EA0147101534000000000000
B0457213208712S11700559EA0145901520000000000000
B0457253208792S11700533EA0144801513000000000000
B0457293208842S11700455EA0144801513000000000000
B0457333208846S11700351EA0143501497000000000000
B0457373208799S11700253EA0142801498000000000000
B0457413208729S11700201EA0144401521000000000000
B0457453208660S11700199EA0146001524000000000000
B0457493208607S11700246EA0145401514000000000000
B0457533208589S11700327EA0144601509000000000000
B0457573208610S11700411EA0145201523000000000000
B0458013208660S11700472EA0146801534000000000000
B0458053208725S11700493EA0147101532000000000000
B0458093208786S11700462EA0146901530000000000000
B0458133208802S11700388EA0146301526000000000000
B0458173208773S11700310EA0145201516000000000000
B0458213208724S11700240EA0144201504000000000000
B0458253208669S11700168EA0143501504000000000000
B0458293208606S11700124EA0144201514000000000000
B0458333208552S11700164EA0145301526000000000000
B0458373208535S11700233EA0146801535000000000000
B0458413208541S11700307EA0146901531000000000000
B0458453208590S11700353EA0146801535000000000000
B0458493208645S11700327EA0148101549000000000000
B0458533208642S11700262EA0148301553000000000000
B0458573208586S11700232EA0148101553000000000000
B0459013208532S11700266EA0148501556000000000000
B0459053208519S11700337EA0148701558000000000000
B0459093208558S11700390EA0149201564000000000000
B0459133208616S11700377EA0149901567000000000000
B0459173208642S11700312EA0149901565000000000000
B0459213208617S11700244EA0149601563000000000000
B0459253208554S11700225EA0149401563000000000000
B0459293208500S11700267EA0149901566000000000000
B0459333208481S11700337EA0149901564000000000000
B0459373208486S11700416EA0148901548000000000000
B0459413208496S11700502EA0147401539000000000000
B0459453208506S11700588EA0146601528000000000000
B0459493208522S11700676EA0145601517000000000000
B0459533208550S11700765EA0144701509000000000000
B0459573208581S11700856EA0143701498000000000000
B0500013208603S11700952EA0142301484000000000000
B0500053208613S11701052EA0141401478000000000000
B0500093208619S11701148EA0141401479000000000000
B0500133208628S11701241EA0141401476000000000000
B0500173208630S11701334EA0140301464000000000000
B0500213208626S11701428EA0140101462000000000000
B0500253208615S11701518EA0139901462000000000000
B0500293208598S11701605EA0139901458000000000000
B0500333208578S11701692EA0138901451000000000000
B0500373208567S11701781EA0138701449000000000000
B0500413208572S11701871EA0138301445000000000000
B0500453208582S11701956EA0138901453000000000000
B0500493208595S11702032EA0139401457000000000000
B0500533208615S11702105EA0139901459000000000000
B0500573208634S11702177EA0139701456000000000000
B0501013208662S11702249EA0139301453000000000000
B0501053208689S11702322EA0138901446000000000000
B0501093208717S11702398EA0138201439000000000000
B0501133208750S11702472EA0137601431000000000000
B0501173208797S11702537EA0137101429000000000000
B0501213208847S11702600EA0136801422000000000000
B0501253208892S11702671EA0136001417000000000000
B0501293208936S11702742EA0135601409000000000000
B0501333208968S11702824EA0134501397000000000000
B0501373208974S11702916EA0133401388000000000000
B0501413208946S11703002EA0132801385000000000000
B0501453208901S11703075EA0132801385000000000000
B0501493208846S11703140EA0132701382000000000000
B0501533208790S11703202EA0132101376000000000000
B0501573208734S11703266EA0131201367000000000000
B0502013208680S11703330EA0130201357000000000000
B0502053208626S11703395EA0129601350000000000000
B0502093208572S11703460EA0128801338000000000000
B0502133208515S11703521EA0127601331000000000000
B0502173208460S11703579EA0127701333000000000000
B0502213208407S11703634EA0128101336000000000000
B0502253208359S11703691EA0128701343000000000000
B0502293208333S11703757EA0130101358000000000000
B0502333208366S11703803EA0130901363000000000000
B0502373208422S11703770EA0130601355000000000000
B0502413208430S11703685EA0129301346000000000000
B0502453208385S11703620EA0129001347000000000000
B0502493208325S11703609EA0130001353000000000000
B0502533208275S11703639EA0129601345000000000000
B0502573208249S11703702EA0128401332000000000000
B0503013208235S11703773EA0127401322000000000000
B0503053208229S11703850EA0125901308000000000000
B0503093208226S11703929EA0125501313000000000000
B0503133208229S11704004EA0125901311000000000000
B0503173208226S11704082EA0125101302000000000000
B0503213208190S11704150EA0124901303000000000000
B0503253208130S11704192EA0124801300000000000000
B0503293208056S11704206EA0124001290000000000000
B0503333207974S11704197EA0122701269000000000000
B0503373207889S11704168EA0120601254000000000000
B0503413207807S11704129EA0119701244000000000000
B0503453207727S11704088EA0118501230000000000000
B0503493207646S11704045EA0117001217000000000000
B0503533207563S11704006EA0116601219000000000000
B0503573207488S11704008EA0117901230000000000000
B0504013207417S11704025EA0117401217000000000000
B0504053207342S11704023EA0116401209000000000000
B0504093207265S11703999EA0116001202000000000000
B0504133207191S11703963EA0115501202000000000000
B0504173207117S11703928EA0115101197000000000000
B0504213207043S11703897EA0114201185000000000000
B0504253206972S11703855EA0113501181000000000000
B0504293206901S11703806EA0112901174000000000000
B0504333206832S11703751EA0112201167000000000000
B0504373206766S11703694EA0111801163000000000000
B0504413206701S11703634EA0111501154000000000000
B0504453206637S11703568EA0110001138000000000000
B0504493206576S11703491EA0108801131000000000000
B0504533206519S11703416EA0109001137000000000000
B0504573206450S11703375EA0109901144000000000000
B0505013206383S11703379EA0110201146000000000000
B0505053206342S11703434EA0111101155000000000000
B0505093206368S11703496EA0111501158000000000000
B0505133206435S11703482EA0111201152000000000000
B0505173206479S11703403EA0109901138000000000000
B0505213206489S11703301EA0108801127000000000000
B0505253206493S11703196EA0107801120000000000000
B0505293206491S11703092EA0107301115000000000000
B0505333206479S11702988EA0106401103000000000000
B0505373206459S11702883EA0104601085000000000000
B0505413206446S11702775EA0104001080000000000000
B0505453206440S11702669EA0103501077000000000000
B0505493206439S11702565EA0103001069000000000000
B0505533206439S11702461EA0102401062000000000000
B0505573206433S11702357EA0101001047000000000000
B0506013206418S11702253EA0099901037000000000000
B0506053206400S11702151EA0099201032000000000000
B0506093206380S11702051EA0098901028000000000000
B0506133206354S11701953EA0098201020000000000000
B0506173206324S11701856EA0097001006000000000000
B0506213206305S11701749EA0095700991000000000000
B0506253206301S11701638EA0094800987000000000000
B0506293206306S11701532EA0094600981000000000000
B0506333206327S11701429EA0093900973000000000000
B0506373206355S11701332EA0093700974000000000000
B0506413206380S11701238EA0093800974000000000000
B0506453206392S11701144EA0093800971000000000000
B0506493206394S11701051EA0093400965000000000000
B0506533206388S11700957EA0092900959000000000000
B0506573206359S11700870EA0092400956000000000000
B0507013206297S11700826EA0092500958000000000000
B0507053206224S11700834EA0092500958000000000000
B0507093206169S11700888EA0092800959000000000000
B0507133206158S11700960EA0093500979000000000000
B0507173206208S11700977EA0096401005000000000000
B0507213206246S11700922EA0097301009000000000000
B0507253206227S11700849EA0098101018000000000000
B0507293206172S11700835EA0098601020000000000000
B0507333206138S11700884EA0098501020000000000000
B0507373206162S11700938EA0099301034000000000000
B0507413206219S11700923EA0100101034000000000000
B0507453206246S11700852EA0100201043000000000000
B0507493206216S11700788EA0101401056000000000000
B0507533206158S11700779EA0102001058000000000000
B0507573206127S11700829EA0101801058000000000000
B0508013206159S11700875EA0102801069000000000000
B0508053206219S11700868EA0103001070000000000000
B0508093206259S11700805EA0103301074000000000000
B0508133206251S11700727EA0103901084000000000000
B0508173206197S11700706EA0105401100000000000000
B0508213206164S11700752EA0106001102000000000000
B0508253206185S11700806EA0106201108000000000000
B0508293206240S11700797EA0106701109000000000000
B0508333206254S11700723EA0106701115000000015000
B0508373206207S11700674EA0108101131000000015000
B0508413206155S11700697EA0108601128000000000000
B0508453206149S11700764EA0107901123000000000000
B0508493206198S11700800EA0108701135000000000000
B0508533206259S11700775EA0108801134000000000000
B0508573206305S11700710EA0108601131000000000000
B0509013206335S11700631EA0108501131000000000000
B0509053206323S11700550EA0109101142000000000000
B0509093206267S11700539EA0110601154000000000000
B0509133206241S11700592EA0110501148000000000000
B0509173206273S11700645EA0111001160000000000000
B0509213206324S11700621EA0113001178000000000000
B0509253206335S11700550EA0113001173000000000000
B0509293206293S11700497EA0113201181000000000000
B0509333206241S11700514EA0113601179000000000000
B0509373206220S11700576EA0113101176000000000000
B0509413206253S11700635EA0113701184000000000000
B0509453206314S11700634EA0114201187000000000000
B0509493206346S11700569EA0114301185000000000000
B0509533206318S11700497EA0113301183000000000000
B0509573206255S11700484EA0114301196000000000000
B0510013206216S11700526EA0116001215000000000000
B0510053206242S11700572EA0117201219000000000000
B0510093206294S11700545EA0117101220000000000000
B0510133206279S11700478EA0117801230000000000000
B0510173206224S11700467EA0118601236000000000000
B0510213206198S11700517EA0119301246000000000000
B0510253206229S11700562EA0120101250000000000000
B0510293206285S11700563EA0120101248000000000000
B0510333206322S11700511EA0120101248000000000000
B0510373206309S11700440EA0120101252000000000000
B0510413206260S11700394EA0120501256000000000000
B0510453206206S11700402EA0120601255000000000000
B0510493206175S11700457EA0120801258000000000000
B0510533206160S11700522EA0120501251000000000000
B0510573206164S11700595EA0119801243000000000000
B0511013206190S11700666EA0118701233000000000000
B0511053206220S11700734EA0118201230000000000000
B0511093206262S11700788EA0117501222000000000000
B0511133206325S11700816EA0116301210000000000000
B0511173206401S11700810EA0115201194000000000000
B0511213206479S11700786EA0113701181000000000000
B0511253206556S11700752EA0112401167000000000000
B0511293206632S11700715EA0111701161000000000000
B0511333206708S11700679EA0110901153000000000000
B0511373206783S11700644EA0110001146000000000000
B0511413206857S11700611EA0109401136000000000000
B0511453206931S11700582EA0108401127000000000000
B0511493207004S11700553EA0108101126000000000000
B0511533207072S11700530EA0108401129000000000000
B0511573207138S11700511EA0108101120000000000000
B0512013207206S11700497EA0106901105000000000000
B0512053207277S11700484EA0105801098000000000000
B0512093207347S11700472EA0105501095000000000000
B0512133207416S11700462EA0104801086000000000000
B0512173207486S11700453EA0103901076000000000000
B0512213207558S11700445EA0103401069000000000000
B0512253207629S11700442EA0102201056000000000000
B0512293207703S11700439EA0100901044000000000000
B0512333207776S11700431EA0100001033000000000000
B0512373207849S11700423EA0099101024000000000000
B0512413207922S11700415EA0098301014000000000000
B0512453207997S11700407EA0097001004000000000000
B0512493208074S11700398EA0096801002000000000000
B0512533208145S11700384EA0097301013000000000000
B0512573208210S11700363EA0099101032000000000000
B0513013208273S11700341EA0100501041000000000000
B0513053208316S11700290EA0101101050000000000000
B0513093208291S11700227EA0101201055000000000000
B0513133208242S11700236EA0102401070000000000000
B0513173208233S11700290EA0103001068000000000000
B0513213208261S11700348EA0102701069000000000000
B0513253208314S11700377EA0104501092000000000000
B0513293208369S11700357EA0106401108000000000000
B0513333208383S11700286EA0107001113000000000000
B0513373208339S11700238EA0107901127000000000000
B0513413208298S11700263EA0109001136000000000000
B0513453208308S11700318EA0110001145000000000000
B0513493208364S11700344EA0110501152000000000000
B0513533208422S11700311EA0111701170000000000000
B0513573208435S11700240EA0113501185000000000000
B0514013208399S11700190EA0114401195000000000000
B0514053208353S11700202EA0115101200000000000000
B0514093208346S11700259EA0116201211000000000000
B0514133208387S11700299EA0117401224000000000000
B0514173208446S11700277EA0118601237000000000000
B0514213208460S11700208EA0119701247000000000000
B0514253208420S11700155EA0119901249000000000000
B0514293208373S11700173EA0121101265000000000000
B0514333208366S11700232EA0122601278000000000000
B0514373208403S11700273EA0124401303000000000000
B0514413208456S11700255EA0125801309000000000000
B0514453208470S11700184EA0125901316000000000000
B0514493208437S11700136EA0127301325000000000000
B0514533208389S11700149EA0127601333000000000000
B0514573208382S11700205EA0129301354000000000000
B0515013208428S11700231EA0131101369000000000000
B0515053208485S11700197EA0131801375000000000000
B0515093208502S11700121EA0132901389000000000000
B0515133208464S11700077EA0134101397000000000000
B0515173208421S11700102EA0134501403000000000000
B0515213208435S11700159EA0135601416000000000000
B0515253208494S11700166EA0137401432000000000000
B0515293208541S11700110EA0138301443000000000000
B0515333208522S11700043EA0139301457000000000000
B0515373208472S11700047EA0140201464000000000000
B0515413208470S11700104EA0141101470000000000000
B0515453208525S11700137EA0141801479000000000000
B0515493208577S11700091EA0143201497000000000000
B0515533208565S11700024EA0144701506000000000000
B0515573208511S11700017EA0144601507000000000000
B0516013208502S11700082EA0145101513000000000000
B0516053208552S11700128EA0146301529000000000000
B0516093208617S11700107EA0147901540000000000000
B0516133208637S11700032EA0149001555000000000000
B0516173208602S11659977EA0150401568000000000000
B0516213208551S11659984EA0151101572000000000000
B0516253208524S11700039EA0151101573000000000000
B0516293208543S11700108EA0151601579000000000000
B0516333208602S11700136EA0152601588000000000000
B0516373208660S11700097EA0152701586000000000000
B0516413208680S11700017EA0152501590000000000000
B0516453208654S11659946EA0153701607000000000000
B0516493208604S11659929EA0155501621000000000000
B0516533208565S11659967EA0156101618000000000000
B0516573208573S11700036EA0154801612000000000000
B0517013208632S11700073EA0155501617000000000000
B0517053208701S11700062EA0155501617000000000000
B0517093208746S11700000EA0155801617000000000000
B0517133208742S11659915EA0155101612000000000000
B0517173208719S11659825EA0155001613000000000000
B0517213208690S11659733EA0155101616000000000000
B0517253208638S11659690EA0157001646000000000000
B0517293208607S11659722EA0159001651000000000000
B0517333208624S11659787EA0157501624000000000000
B0517373208677S11659854EA0154901609000000000000
B0517413208760S11659864EA0155201622000000000000
B0517453208831S11659808EA0156301628000000000000
B0517493208846S11659721EA0157301637000000000000
B0517533208828S11659631EA0156401623000000000000
B0517573208802S11659538EA0155301616000000000000
B0518013208773S11659438EA0154001604000000000000
B0518053208742S11659331EA0152701593000000000000
B0518093208710S11659228EA0152101583000000000000
B0518133208677S11659127EA0151601582000000000000
B0518173208637S11659035EA0151701581000000000000
B0518213208597S11658949EA0152401590000000000000
B0518253208560S11658868EA0153501600000000000000
B0518293208528S11658789EA0154101599000000000000
B0518333208490S11658708EA0152901586000000000000
B0518373208448S11658620EA0151501573000000000000
B0518413208402S11658538EA0152001585000000000000
B0518453208340S11658509EA0154001607000000000000
B0518493208301S11658550EA0155401612000000000000
B0518533208311S11658616EA0154501602000000000000
B0518573208361S11658668EA0153301591000000000000
B0519013208433S11658698EA0152701585000000000000
B0519053208511S11658706EA0151501575000000000000
B0519093208591S11658678EA0151601579000000000000
B0519133208659S11658619EA0152701588000000000000
B0519173208690S11658528EA0152301585000000000000
B0519213208675S11658433EA0152501588000000000000
B0519253208639S11658348EA0152701592000000000000
B0519293208599S11658268EA0153101596000000000000
B0519333208559S11658187EA0152901592000000000000
B0519373208516S11658108EA0152201585000000000000
B0519413208470S11658028EA0151301573000000000000
B0519453208422S11657952EA0150201563000000000000
B0519493208376S11657874EA0149201553000000000000
B0519533208327S11657796EA0148901546000000000000
B0519573208279S11657714EA0147801534000000000000
B0520013208229S11657633EA0146601522000000000000
B0520053208179S11657551EA0145401507000000000000
B0520093208130S11657468EA0143501488000000000000
B0520133208080S11657384EA0142401482000000000000
B0520173208031S11657303EA0142101478000000000000
B0520213207983S11657224EA0141201464000000000000
B0520253207935S11657142EA0140401458000000000000
B0520293207883S11657061EA0139301447000000000000
B0520333207826S11656987EA0138401437000000000000
B0520373207763S11656921EA0137901435000000000000
B0520413207700S11656865EA0138401444000000000000
B0520453207638S11656818EA0138901443000000000000
B0520493207577S11656771EA0138601439000000000000
B0520533207512S11656730EA0137801430000000000000
B0520573207442S11656696EA0136501418000000000000
B0521013207369S11656676EA0135901407000000000000
B0521053207295S11656672EA0135101402000000000000
B0521093207224S11656676EA0134601396000000000000
B0521133207154S11656683EA0133801386000000000000
B0521173207081S11656695EA0132401370000000000000
B0521213207007S11656710EA0130901355000000000000
B0521253206933S11656727EA0129801347000000000000
B0521293206858S11656748EA0128901339000000000000
B0521333206786S11656770EA0128501333000000000000
B0521373206714S11656789EA0127901327000000000000
B0521413206645S11656810EA0127301320000000000000
B0521453206578S11656830EA0126701312000000000000
B0521493206510S11656849EA0125601300000000000000
B0521533206442S11656865EA0124101281000000000000
B0521573206370S11656882EA0122501269000000000000
B0522013206294S11656895EA0122301272000000000000
B0522053206220S11656906EA0124001290000000000000
B0522093206156S11656934EA0124601298000000000000
B0522133206101S11656968EA0125401301000000000000
B0522173206041S11656999EA0125001291000000000000
B0522213205978S11657033EA0125601309000000000000
B0522253205967S11657091EA0128601344000000000000
B0522293206017S11657100EA0130301352000000000000
B0522333206051S11657035EA0129801345000000000000
B0522373206013S11656970EA0129701354000000000000
B0522413205956S11656971EA0131201371000000000000
B0522453205919S11657014EA0132301374000000000000
B0522493205921S11657081EA0131901363000000000000
B0522533205903S11657153EA0128801332000000000000
B0522573205839S11657216EA0126001304000000000000
B0523013205757S11657264EA0124401298000000000000
B0523053205672S11657302EA0124901302000000000000
B0523093205584S11657334EA0124201294000000000000
B0523133205496S11657364EA0123201273000000000000
B0523173205408S11657390EA0121001256000000000000
B0523213205323S11657417EA0120701256000000000000
B0523253205240S11657446EA0120101244000000000000
B0523293205157S11657473EA0118901233000000000000
B0523333205074S11657499EA0117801223000000000000
B0523373204992S11657525EA0117401219000000000000
B0523413204910S11657549EA0116801213000000000000
B0523453204824S11657571EA0115701200000000000000
B0523493204738S11657592EA0115101193000000000000
B0523533204654S11657610EA0114101180000000000000
B0523573204567S11657627EA0112401162000000000000
B0524013204479S11657641EA0111401158000000000000
B0524053204395S11657654EA0110601146000000000000
B0524093204309S11657668EA0109001130000000000000
B0524133204225S11657685EA0107901123000000000000
B0524173204143S11657706EA0107401115000000000000
B0524213204061S11657727EA0106401103000000000000
B0524253203980S11657746EA0106101098000000000000
B0524293203901S11657766EA0105601099000000000000
B0524333203827S11657792EA0106401108000000000000
B0524373203774S11657836EA0107701122000000000000
B0524413203741S11657891EA0108601126000000000000
B0524453203716S11657953EA0108101120000000000000
B0524493203696S11658019EA0107901117000000000000
B0524533203671S11658088EA0107301110000000000000
B0524573203640S11658157EA0106401106000000000000
B0525013203606S11658227EA0105501083000000000000
B0525053203549S11658290EA0102501055000000000000
B0525093203475S11658336EA0101001044000000000000
B0525133203395S11658370EA0100001037000000000000
B0525173203316S11658395EA0099501030000000000000
B0525213203237S11658420EA0098101013000000000000
B0525253203157S11658447EA0096901004000000000000
B0525293203083S11658485EA0096801004000000000000
B0525333203014S11658525EA0097101008000000000000
B0525373202955S11658570EA0097401010000000000000
B0525413202909S11658632EA0097201001000000000000
B0525453202874S11658702EA0098101023000000000000
B0525493202879S11658768EA0100501047000000000000
B0525533202936S11658755EA0102901071000000000000
B0525573202939S11658674EA0102801067000000000000
B0526013202880S11658651EA0104001093000000000000
B0526053202877S11658707EA0106301113000000000000
B0526093202932S11658715EA0107701124000000000000
B0526133202968S11658647EA0108301130000000000000
B0526173202936S11658576EA0108601135000000000000
B0526213202884S11658580EA0110301156000000000000
B0526253202899S11658634EA0111101155000000000000
B0526293202964S11658621EA0111901171000000000000
B0526333202988S11658548EA0113901188000000000000
B0526373202958S11658483EA0114701196000000000000
B0526413202904S11658477EA0115701207000000000000
B0526453202895S11658533EA0116301214000000000000
B0526493202943S11658561EA0117801229000000000000
B0526533202990S11658511EA0118701236000000000000
B0526573202977S11658431EA0119301245000000000000
B0527013202925S11658411EA0120201257000000000000
B0527053202900S11658457EA0120701259000000000000
B0527093202929S11658511EA0121601271000000000000
B0527133202991S11658498EA0122701278000000000000
B0527173203026S11658425EA0123601290000000000000
B0527213203003S11658353EA0125401303000000000000
B0527253202947S11658327EA0125801307000000000000
B0527293202901S11658357EA0126201314000000000000
B0527333202891S11658417EA0127201324000000000000
B0527373202925S11658461EA0128301332000000000000
B0527413202986S11658448EA0128501335000000000000
B0527453203038S11658388EA0128801337000000000000
B0527493203047S11658303EA0129201346000000000000
B0527533203003S11658249EA0130501360000000000000
B0527573202955S11658262EA0131501368000000000000
B0528013202940S11658316EA0132301374000000000000
B0528053202986S11658352EA0132401374000000000000
B0528093203046S11658316EA0133101381000000000000
B0528133203072S11658235EA0133501382000000000000
B0528173203047S11658154EA0133701389000000000000
B0528213202990S11658130EA0134301393000000000000
B0528253202939S11658162EA0134301392000000000000
B0528293202904S11658225EA0134201395000000000000
B0528333202873S11658294EA0134601395000000000000
B0528373202836S11658366EA0133001366000000000000
B0528413202765S11658434EA0129301337000000000000
B0528453202679S11658487EA0128101333000000000000
B0528493202593S11658531EA0127701327000000000000
B0528533202505S11658567EA0126801320000000000000
B0528573202414S11658599EA0125801305000000000000
B0529013202320S11658629EA0124401292000000000000
B0529053202228S11658658EA0124501294000000000000
B0529093202142S11658680EA0125001298000000000000
B0529133202059S11658702EA0125001294000000000000
B0529173201978S11658726EA0124501289000000000000
B0529213201898S11658749EA0123501278000000000000
B0529253201811S11658765EA0122101265000000000000
B0529293201721S11658780EA0121101254000000000000
B0529333201631S11658795EA0120301246000000000000
B0529373201541S11658816EA0119301234000000000000
B0529413201452S11658838EA0118401225000000000000
B0529453201359S11658859EA0117701217000000000000
B0529493201270S11658880EA0117801217000000000000
B0529533201181S11658899EA0117201216000000000000
B0529573201097S11658921EA0117701220000000000000
B0530013201015S11658944EA0117301212000000000000
B0530053200937S11658968EA0116701204000000000000
B0530093200858S11658993EA0115501190000000000000
B0530133200778S11659018EA0113901173000000000000
B0530173200695S11659045EA0112101158000000000000
B0530213200612S11659080EA0111101146000000000000
B0530253200534S11659122EA0109701132000000000000
B0530293200460S11659163EA0109401133000000000000
B0530333200390S11659204EA0109401125000000000000
B0530373200322S11659245EA0108801123000000000000
B0530413200266S11659298EA0109001128000000000000
B0530453200225S11659362EA0109201127000000000000
B0530493200193S11659430EA0109001128000000000000
B0530533200170S11659493EA0110001139000000000000
B0530573200153S11659555EA0110301138000000000000
B0531013200139S11659621EA0109601127000000000000
B0531053200134S11659691EA0108501115000000000000
B0531093200130S11659764EA0106401091000000000000
B0531133200096S11659834EA0104401073000000000000
B0531173200040S11659896EA0102801057000000000000
B0531213159996S11659971EA0102401057000000000000
B0531253159968S11700054EA0100201026000000000000
B0531293159914S11700133EA0097501004000000000000
B0531333159844S11700195EA0097201007000000000000
B0531373159776S11700246EA0097701013000000000000
B0531413159714S11700293EA0097801008000000000000
B0531453159650S11700340EA0097200998000000000000
B0531493159585S11700379EA0095900986000000000000
B0531533159520S11700418EA0095100980000000000000
B0531573159459S11700461EA0095100981000000000000
B0532013159404S11700509EA0095700988000000000000
B0532053159370S11700575EA0096200992000000000000
B0532093159350S11700649EA0096500998000000000000
B0532133159334S11700721EA0097501012000000000000
B0532173159344S11700784EA0099101032000000000000
B0532213159399S11700758EA0101501053000000000000
B0532253159390S11700683EA0102501064000000000000
B0532293159341S11700669EA0103701078000000000000
B0532333159316S11700722EA0104301083000000000000
B0532373159351S11700770EA0105901100000000000000
B0532413159408S11700748EA0107301111000000000000
B0532453159415S11700673EA0108101123000000000000
B0532493159369S11700640EA0109501136000000000000
B0532533159341S11700687EA0110001141000000000000
B0532573159370S11700741EA0111601161000000000000
B0533013159426S11700747EA0113001168000000000000
B0533053159472S11700693EA0113301171000000000000
B0533093159468S11700614EA0113501175000000000000
B0533133159420S11700580EA0114601189000000000000
B0533173159394S11700621EA0115201195000000000000
B0533213159421S11700673EA0115801198000000000000
B0533253159480S11700662EA0116301206000000000000
B0533293159516S11700595EA0117101209000000000000
B0533333159507S11700517EA0116901211000000000000
B0533373159455S11700502EA0117601224000000000000
B0533413159452S11700553EA0119101235000000000000
B0533453159511S11700561EA0119701243000000000000
B0533493159549S11700493EA0120201246000000000000
B0533533159521S11700427EA0120801256000000000000
B0533573159478S11700446EA0122001269000000000000
B0534013159487S11700504EA0122701275000000000000
B0534053159546S11700514EA0123801288000000000000
B0534093159582S11700448EA0124601292000000000000
B0534133159552S11700390EA0125401304000000000000
B0534173159513S11700414EA0126801316000000000000
B0534213159533S11700466EA0127501323000000000000
B0534253159594S11700457EA0128401332000000000000
B0534293159624S11700384EA0128601334000000000000
B0534333159598S11700322EA0129601348000000000000
B0534373159550S11700314EA0130501357000000000000
B0534413159519S11700355EA0130901357000000000000
B0534453159547S11700410EA0131101370000000000000
B0534493159608S11700401EA0133201385000000000000
B0534533159646S11700336EA0133401383000000000000
B0534573159628S11700266EA0133401390000000000000
B0535013159577S11700255EA0134301398000000000000
B0535053159554S11700305EA0134701401000000000000
B0535093159588S11700354EA0135901413000000000000
B0535133159650S11700344EA0136501417000000000000
B0535173159681S11700272EA0136301415000000000000
B0535213159653S11700212EA0136901424000000000000
B0535253159602S11700212EA0137101424000000000000
B0535293159569S11700262EA0136701422000000000000
B0535333159565S11700331EA0136501419000000000000
B0535373159621S11700366EA0137101428000000000000
B0535413159681S11700316EA0138001434000000000000
B0535453159710S11700232EA0137501426000000000000
B0535493159715S11700134EA0136801424000000000000
B0535533159711S11700038EA0136501416000000000000
B0535573159672S11659960EA0134301392000000000000
B0536013159599S11659922EA0132101372000000000000
B0536053159513S11659904EA0130601361000000000000
B0536093159426S11659893EA0130301360000000000000
B0536133159339S11659885EA0130201360000000000000
B0536173159251S11659881EA0130701364000000000000
B0536213159164S11659877EA0131501374000000000000
B0536253159083S11659877EA0132301372000000000000
B0536293158997S11659878EA0129801346000000000000
B0536333158904S11659878EA0128301326000000000000
B0536373158809S11659880EA0126501309000000000000
B0536413158715S11659880EA0126001314000000000000
B0536453158632S11659877EA0126801318000000000000
B0536493158550S11659874EA0126501313000000000000
B0536533158470S11659872EA0126001307000000000000
B0536573158390S11659870EA0125801306000000000000
B0537013158310S11659869EA0125301298000000000000
B0537053158228S11659868EA0124601292000000000000
B0537093158145S11659867EA0124201290000000000000
B0537133158064S11659865EA0123701287000000000000
B0537173157985S11659867EA0123801289000000000000
B0537213157908S11659868EA0123901285000000000000
B0537253157830S11659869EA0123201278000000000000
B0537293157753S11659870EA0122401269000000000000
B0537333157674S11659869EA0121501261000000000000
B0537373157595S11659867EA0121101256000000000000
B0537413157515S11659860EA0120401247000000000000
B0537453157436S11659852EA0119501237000000000000
B0537493157357S11659847EA0118501226000000000000
B0537533157276S11659843EA0117401215000000000000
B0537573157196S11659839EA0116501207000000000000
B0538013157118S11659835EA0116201202000000000000
B0538053157040S11659830EA0115401194000000000000
B0538093156962S11659824EA0114601185000000000000
B0538133156882S11659817EA0113701177000000000000
B0538173156804S11659812EA0113201172000000000000
B0538213156722S11659805EA0112501168000000000000
B0538253156642S11659802EA0112701170000000000000
B0538293156564S11659800EA0113601182000000000000
B0538333156503S11659833EA0116201211000000000000
B0538373156516S11659887EA0119001233000000000000
B0538413156587S11659885EA0118701219000000000000
B0538453156621S11659812EA0117601214000000000000
B0538493156616S11659722EA0117201211000000000000
B0538533156573S11659652EA0117301219000000000000
B0538573156508S11659634EA0117901226000000000000
B0539013156452S11659666EA0118501226000000000000
B0539053156413S11659726EA0118001226000000000000
B0539093156390S11659798EA0116701207000000000000
B0539133156364S11659877EA0114701185000000000000
B0539173156313S11659950EA0112301164000000000000
B0539213156245S11700013EA0111401161000000000000
B0539253156179S11700072EA0111401155000000000000
B0539293156102S11700116EA0109901134000000000000
B0539333156011S11700134EA0108101122000000000000
B0539373155919S11700134EA0107701121000000000000
B0539413155832S11700127EA0108201127000000000000
B0539453155747S11700116EA0108101123000000000000
B0539493155663S11700110EA0107901124000000000000
B0539533155585S11700119EA0109301142000000000000
B0539573155541S11700175EA0111101154000000000000
B0540013155516S11700245EA0110501145000000000000
B0540053155495S11700322EA0109201133000000000000
B0540093155469S11700394EA0108601126000000000000
B0540133155433S11700461EA0107901116000000000000
B0540173155376S11700509EA0106901105000000000000
B0540213155304S11700531EA0105801096000000000000
B0540253155226S11700530EA0104701085000000000000
B0540293155144S11700514EA0103601075000000000000
B0540333155064S11700494EA0102901067000000000000
B0540373154982S11700471EA0102301067000000000000
B0540413154904S11700450EA0102801067000000000000
B0540453154824S11700433EA0102101061000000000000
B0540493154746S11700415EA0101601054000000000000
B0540533154668S11700397EA0101101051000000000000
B0540573154592S11700379EA0100301040000000000000
B0541013154516S11700362EA0100001041000000000000
B0541053154442S11700351EA0100801047000000000000
B0541093154377S11700368EA0100501042000000000000
B0541133154313S11700392EA0099901034000000000000
B0541173154250S11700415EA0099301029000000000000
B0541213154185S11700440EA0098301011000000000000
B0541253154108S11700441EA0096100989000000000000
B0541293154025S11700424EA0094700983000000000000
B0541333153949S11700435EA0095100991000000000000
B0541373153897S11700489EA0095700992000000000000
B0541413153861S11700558EA0095500988000000000000
B0541453153810S11700604EA0096701003000000000000
B0541493153777S11700553EA0098601026000000000000
B0541533153826S11700507EA0099201029000000000000
B0541573153873S11700541EA0099101027000000000000
B0542013153869S11700602EA0099301026000000000000
B0542053153822S11700639EA0098701024000000000000
B0542093153780S11700592EA0100201050000000000000
B0542133153792S11700528EA0101601054000000000000
B0542173153849S11700500EA0100801046000000000000
B0542213153905S11700532EA0100901052000000000000
B0542253153925S11700595EA0101701055000000000000
B0542293153908S11700658EA0101101049000000000000
B0542333153860S11700701EA0101001046000000000000
B0542373153803S11700686EA0100701047000000000000
B0542413153778S11700619EA0101601056000000000000
B0542453153791S11700548EA0101201049000000000000
B0542493153822S11700474EA0099901033000000000000
B0542533153832S11700387EA0098701023000000000000
B0542573153808S11700302EA0098301024000000000000
B0543013153766S11700229EA0098101017000000000000
B0543053153709S11700171EA0096400999000000000000
B0543093153644S11700114EA0094900983000000000000
B0543133153576S11700060EA0093700974000000000000
B0543173153509S11700008EA0093300975000000000000
B0543213153446S11659964EA0094200980000000000000
B0543253153384S11659922EA0093800972000000000000
B0543293153318S11659886EA0093200965000000000000
B0543333153246S11659881EA0092500959000000000000
B0543373153173S11659883EA0092600965000000000000
B0543413153103S11659887EA0093800974000000000000
B0543453153055S11659929EA0095400991000000000000
B0543493153098S11659960EA0096400996000000000000
B0543533153142S11659906EA0095900993000000000000
B0543573153124S11659828EA0097301014000000000000
B0544013153069S11659818EA0098901028000000000000
B0544053153051S11659869EA0099301026000000000000
B0544093153095S11659904EA0098801021000000000000
B0544133153146S11659863EA0098601026000000000000
B0544173153146S11659785EA0099701041000000000000
B0544213153089S11659770EA0101101055000000000000
B0544253153071S11659826EA0102001062000000000000
B0544293153114S11659863EA0102001058000000000000
B0544333153166S11659821EA0101901065000000000000
B0544373153169S11659746EA0103501080000000000000
B0544413153116S11659721EA0104701093000000000000
B0544453153093S11659773EA0105501097000000000000
B0544493153138S11659807EA0105801102000000000000
B0544533153179S11659757EA0106901114000000000000
B0544573153153S11659690EA0107601123000000000000
B0545013153091S11659685EA0109101142000000000000
B0545053153068S11659735EA0110101142000000000000
B0545093153107S11659778EA0109501137000000000000
B0545133153159S11659746EA0109901147000000000000
B0545173153147S11659678EA0111001155000000000000
B0545213153089S11659682EA0111501162000000000000
B0545253153089S11659742EA0112101165000000000000
B0545293153140S11659761EA0112001162000000000000
B0545333153188S11659712EA0111801161000000000000
B0545373153197S11659636EA0112401173000000000000
B0545413153143S11659608EA0113001175000000000000
B0545453153120S11659666EA0113701188000000000000
B0545493153168S11659692EA0115201200000000000000
B0545533153211S11659647EA0115001198000000000000
B0545573153199S11659573EA0115401203000000000000
B0546013153145S11659540EA0115201198000000000000
B0546053153090S11659570EA0115201198000000000000
B0546093153047S11659631EA0114201186000000000000
B0546133153060S11659695EA0113901182000000000000
B0546173153115S11659661EA0112301175000000000000
B0546213153149S11659578EA0111601172000000000000
B0546253153169S11659490EA0112501183000000000000
B0546293153136S11659426EA0113101187000000000000
B0546333153080S11659448EA0112601176000000000000
B0546373153038S11659516EA0111101160000000000000
B0546413153012S11659590EA0111401165000000000000
B0546453153041S11659647EA0111601164000000000000
B0546493153093S11659616EA0111001157000000000000
B0546533153076S11659536EA0109401150000000000000
B0546573153013S11659492EA0109201146000000000000
B0547013152938S11659487EA0108101125000000000000
B0547053152856S11659500EA0105701103000000000000
B0547093152773S11659514EA0104501095000000000000
B0547133152692S11659529EA0104601094000000000000
B0547173152614S11659543EA0104601096000000000000
B0547213152549S11659581EA0104801093000000000000
B0547253152490S11659627EA0103901079000000000000
B0547293152421S11659662EA0102901065000000000000
B0547333152347S11659683EA0101301043000000000000
B0547373152267S11659694EA0099801031000000000000
B0547413152193S11659701EA0100101038000000000000
B0547453152123S11659708EA0100101033000000000000
B0547493152050S11659713EA0099201022000000000000
B0547533151979S11659718EA0098201009000000000000
B0547573151907S11659722EA0097000997000000000000
B0548013151836S11659727EA0096100983000000000000
B0548053151762S11659731EA0094700970000000000000
B0548093151686S11659735EA0093600959000000000000
B0548133151608S11659738EA0092400944000000000000
B0548173151526S11659740EA0091300938000000000000
B0548213151450S11659752EA0091400943000000000000
B0548253151390S11659791EA0091600943000000000000
B0548293151347S11659850EA0091200934000000000000
B0548333151318S11659921EA0090200924000000000000
B0548373151290S11659990EA0090000923000000000000
B0548413151247S11700050EA0088500899000000000000
B0548453151180S11700089EA0086400884000000000000
B0548493151108S11700114EA0085700881000000000000
B0548533151036S11700132EA0085300874000000000000
B0548573150965S11700145EA0084400863000000000000
B0549013150891S11700155EA0083200851000000000000
B0549053150814S11700155EA0081900835000000000000
B0549093150736S11700132EA0079900819000000000000
B0549133150663S11700099EA0079500815000000000000
B0549173150590S11700072EA0078700801000000000000
B0549213150516S11700049EA0077200789000000000000
B0549253150442S11700032EA0076400782000000000000
B0549293150371S11700028EA0075600774000000000000
B0549333150298S11700026EA0075200770000000000000
B0549373150226S11700029EA0074500762000000000000
B0549413150155S11700042EA0074500766000000000000
B0549453150104S11700089EA0074900769000000000000
B0549493150100S11700154EA0074900768000000000000
B0549533150157S11700155EA0075500776000000000000
B0549573150182S11700086EA0075100770000000000000
B0550013150146S11700021EA0074600768000000000000
B0550053150078S11700003EA0074000759000000000000
B0550093150022S11700038EA0073500758000000000000
B0550133150034S11700099EA0073900764000000000000
B0550173150092S11700091EA0074100763000000000000
B0550213150124S11700024EA0073400753000000000000
B0550253150137S11659937EA0072300744000000000000
B0550293150147S11659846EA0072800754000000000000
B0550333150109S11659782EA0074000766000000000000
B0550373150064S11659813EA0073300754000000000000
B0550413150094S11659863EA0073100753000000000000
B0550453150155S11659851EA0073300760000000000000
B0550493150183S11659789EA0074500774000000000000
B0550533150148S11659731EA0075300778000000000000
B0550573150099S11659756EA0075200774000000000000
B0551013150116S11659808EA0075300779000000000000
B0551053150169S11659809EA0075600782000000000000
B0551093150202S11659752EA0075600781000000000000
B0551133150163S11659692EA0075600781000000000000
B0551173150104S11659703EA0076200789000000000000
B0551213150098S11659757EA0076800792000000000000
B0551253150147S11659772EA0076600792000000000000
B0551293150177S11659717EA0077000794000000000000
B0551333150152S11659643EA0076200789000000000000
B0551373150094S11659607EA0077100798000000000000
B0551413150055S11659648EA0077200797000000000000
B0551453150074S11659703EA0077100796000000000000
B0551493150129S11659709EA0077000796000000000000
B0551533150172S11659655EA0077000799000000000000
B0551573150191S11659579EA0077500802000000000000
B0552013150153S11659522EA0078000810000000000000
B0552053150117S11659558EA0078500814000000000000
B0552093150153S11659592EA0079000821000000000000
B0552133150185S11659534EA0080100837000000000000
B0552173150152S11659470EA0080800839000000000000
B0552213150095S11659477EA0081100842000000000000
B0552253150088S11659534EA0080900839000000000000
B0552293150134S11659556EA0082200854000000000000
B0552333150166S11659501EA0083100861000000000000
B0552373150142S11659431EA0082900862000000000000
B0552413150087S11659434EA0083900870000000000000
B0552453150082S11659490EA0084400874000000000000
B0552493150131S11659510EA0084600880000000000000
B0552533150164S11659451EA0085300885000000000000
B0552573150139S11659380EA0085800890000000000000
B0553013150083S11659366EA0086500899000000000000
B0553053150062S11659412EA0087400905000000000000
B0553093150103S11659443EA0087600906000000000000
B0553133150152S11659406EA0088500919000000000000
B0553173150148S11659335EA0089300925000000000000
B0553213150094S11659309EA0090000932000000000000
B0553253150070S11659352EA0091000942000000000000
B0553293150107S11659386EA0091600949000000000000
B0553333150151S11659348EA0092600959000000000000
B0553373150142S11659279EA0093000962000000000000
B0553413150088S11659250EA0093300965000000000000
B0553453150053S11659285EA0093600966000000000000
B0553493150072S11659337EA0093800975000000000000
B0553533150124S11659341EA0094900984000000000000
B0553573150160S11659285EA0095400987000000000000
B0554013150137S11659214EA0095400988000000000000
B0554053150079S11659197EA0096200997000000000000
B0554093150035S11659228EA0096500996000000000000
B0554133150034S11659293EA0096100993000000000000
B0554173150062S11659352EA0096500998000000000000
B0554213150117S11659344EA0097301006000000000000
B0554253150143S11659270EA0096300994000000000000
B0554293150144S11659175EA0095500986000000000000
B0554333150130S11659079EA0095100984000000000000
B0554373150085S11659010EA0094900987000000000000
B0554413150027S11659024EA0095000978000000000000
B0554453149995S11659088EA0093500962000000000000
B0554493149960S11659155EA0093700972000000000000
B0554533149945S11659222EA0095300988000000000000
B0554573150000S11659222EA0096901003000000000000
B0555013150016S11659142EA0096701001000000000000
B0555053149966S11659084EA0097201010000000000000
B0555093149908S11659085EA0098701027000000000000
B0555133149890S11659136EA0100201040000000000000
B0555173149934S11659161EA0101301052000000000000
B0555213149974S11659107EA0101601051000000000000
B0555253149953S11659032EA0101601057000000000000
B0555293149893S11659012EA0102701072000000000000
B0555333149861S11659055EA0104701091000000000000
B0555373149891S11659092EA0106301105000000000000
B0555413149942S11659062EA0107301114000000000000
B0555453149948S11658986EA0108201125000000000000
B0555493149904S11658944EA0109601139000000000000
B0555533149864S11658972EA0110901155000000000000
B0555573149880S11659019EA0112401169000000000000
B0556013149932S11659007EA0113801184000000000000
B0556053149953S11658940EA0115101194000000000000
B0556093149922S11658879EA0116201209000000000000
B0556133149870S11658879EA0117401219000000000000
B0556173149848S11658929EA0117901220000000000000
B0556213149882S11658973EA0118401229000000000000
B0556253149934S11658941EA0120301254000000000000
B0556293149934S11658866EA0121201262000000000000
B0556333149882S11658836EA0122401277000000000000
B0556373149852S11658880EA0124001288000000000000
B0556413149879S11658923EA0125301300000000000000
B0556453149939S11658903EA0125501304000000000000
B0556493149961S11658828EA0126801319000000000000
B0556533149923S11658771EA0128401338000000000000
B0556573149874S11658780EA0130001351000000000000
B0557013149860S11658830EA0130601353000000000000
B0557053149901S11658869EA0131201364000000000000
B0557093149958S11658837EA0133201383000000000000
B0557133149971S11658764EA0134401393000000000000
B0557173149932S11658715EA0135001407000000000000
B0557213149887S11658730EA0136201412000000000000
B0557253149879S11658782EA0136401415000000000000
B0557293149926S11658808EA0137501431000000000000
B0557333149968S11658754EA0138401438000000000000
B0557373149944S11658681EA0139501452000000000000
B0557413149891S11658671EA0140301455000000000000
B0557453149861S11658717EA0139401446000000000000
B0557493149878S11658780EA0139801457000000000000
B0557533149930S11658789EA0141601473000000000000
B0557573149961S11658719EA0141601471000000000000
B0558013149934S11658643EA0142301489000000000000
B0558053149878S11658625EA0143601490000000000000
B0558093149821S11658651EA0142101464000000000000
B0558133149744S11658677EA0139201441000000000000
B0558173149661S11658700EA0137901432000000000000
B0558213149576S11658719EA0136701415000000000000
B0558253149485S11658737EA0135101401000000000000
B0558293149397S11658751EA0135401405000000000000
B0558333149310S11658763EA0134901397000000000000
B0558373149220S11658776EA0133501381000000000000
B0558413149129S11658790EA0132601376000000000000
B0558453149041S11658803EA0132001370000000000000
B0558493148954S11658816EA0131501368000000000000
B0558533148870S11658830EA0131601367000000000000
B0558573148788S11658845EA0131001358000000000000
B0559013148707S11658862EA0130501352000000000000
B0559053148626S11658877EA0129601344000000000000
B0559093148544S11658893EA0128801332000000000000
B0559133148463S11658908EA0127601322000000000000
B0559173148384S11658924EA0127001316000000000000
B0559213148305S11658941EA0126001305000000000000
B0559253148224S11658959EA0125301295000000000000
B0559293148144S11658973EA0124601291000000000000
B0559333148063S11658985EA0124401289000000000000
B0559373147984S11658993EA0123801281000000000000
B0559413147903S11658999EA0123201279000000000000
B0559453147825S11659005EA0123201275000000000000
B0559493147747S11659007EA0122101260000000000000
B0559533147668S11659009EA0121101254000000000000
B0559573147589S11659012EA0120701249000000000000
B0600013147509S11659014EA0120401249000000000000
B0600053147430S11659009EA0120301248000000000000
B0600093147356S11659024EA0121001263000000000000
B0600133147304S11659077EA0122301264000000000000
B0600173147262S11659150EA0121701264000000000000
B0600213147223S11659223EA0122701274000000000000
B0600253147187S11659296EA0122801268000000000000
B0600293147149S11659366EA0122901278000000000000
B0600333147114S11659427EA0124001281000000000000
B0600373147076S11659487EA0122701267000000000000
B0600413147023S11659544EA0122101264000000000000
B0600453146968S11659597EA0121501260000000000000
B0600493146909S11659652EA0121001250000000000000
B0600533146842S11659704EA0119701237000000000000
B0600573146775S11659750EA0119801234000000000000
B0601013146705S11659781EA0120001232000000000000
B0601053146630S11659796EA0118701225000000000000
B0601093146552S11659804EA0117401211000000000000
B0601133146469S11659808EA0116701204000000000000
B0601173146383S11659811EA0116601204000000000000
B0601213146296S11659811EA0116001197000000000000
B0601253146208S11659812EA0115701197000000000000
B0601293146122S11659824EA0115501193000000000000
B0601333146038S11659830EA0115801198000000000000
B0601373145956S11659835EA0116301198000000000000
B0601413145873S11659837EA0115501188000000000000
B0601453145788S11659837EA0114501181000000000000
B0601493145710S11659854EA0115301195000000000000
B0601533145642S11659887EA0115601188000000000000
B0601573145567S11659915EA0113201167000000000000
B0602013145484S11659932EA0112101154000000000000
B0602053145398S11659935EA0111101146000000000000
B0602093145315S11659934EA0110801141000000000000
B0602133145232S11659928EA0109901133000000000000
B0602173145148S11659921EA0109301125000000000000
B0602213145064S11659911EA0108301117000000000000
B0602253144981S11659896EA0107701111000000000000
B0602293144899S11659880EA0107201105000000000000
B0602333144814S11659860EA0106601099000000000000
B0602373144732S11659839EA0106001092000000000000
B0602413144649S11659816EA0105401088000000000000
B0602453144567S11659792EA0105101086000000000000
B0602493144484S11659769EA0104701080000000000000
B0602533144401S11659747EA0104901086000000000000
B0602573144322S11659724EA0105701092000000000000
B0603013144242S11659707EA0106001097000000000000
B0603053144167S11659714EA0106701103000000000000
B0603093144106S11659753EA0107201107000000000000
B0603133144058S11659811EA0107601112000000000000
B0603173144016S11659873EA0108501123000000000000
B0603213144019S11659933EA0109701133000000000000
B0603253144076S11659902EA0110701145000000000000
B0603293144068S11659828EA0112001161000000000000
B0603333144012S11659794EA0113101167000000000000
B0603373143951S11659813EA0113201169000000000000
B0603413143913S11659869EA0113601174000000000000
B0603453143946S11659912EA0114801187000000000000
B0603493143990S11659867EA0115401190000000000000
B0603533143977S11659786EA0115501193000000000000
B0603573143919S11659760EA0117001213000000000000
B0604013143886S11659809EA0117301212000000000000
B0604053143924S11659848EA0118501231000000000000
B0604093143963S11659799EA0119801244000000000000
B0604133143942S11659729EA0120401252000000000000
B0604173143881S11659717EA0121201257000000000000
B0604213143839S11659765EA0121201261000000000000
B0604253143861S11659811EA0123501284000000000000
B0604293143910S11659786EA0124501292000000000000
B0604333143915S11659712EA0125001299000000000000
B0604373143863S11659669EA0125501304000000000000
B0604413143803S11659692EA0126301311000000000000
B0604453143806S11659750EA0127001322000000000000
B0604493143858S11659739EA0128201331000000000000
B0604533143867S11659665EA0129301347000000000000
B0604573143824S11659613EA0131101362000000000000
B0605013143765S11659617EA0132401373000000000000
B0605053143746S11659669EA0132701376000000000000
B0605093143787S11659694EA0133501387000000000000
B0605133143833S11659655EA0134101396000000000000
B0605173143830S11659581EA0135301407000000000000
B0605213143776S11659539EA0136101414000000000000
B0605253143721S11659568EA0136901425000000000000
B0605293143726S11659621EA0137801432000000000000
B0605333143778S11659623EA0138601440000000000000
B0605373143808S11659565EA0139401452000000000000
B0605413143785S11659496EA0140401459000000000000
B0605453143725S11659467EA0140901467000000000000
B0605493143681S11659508EA0141401470000000000000
B0605533143692S11659564EA0141701475000000000000
B0605573143741S11659588EA0142301478000000000000
B0606013143787S11659544EA0142301483000000000000
B0606053143790S11659464EA0143501494000000000000
B0606093143747S11659397EA0143801496000000000000
B0606133143677S11659386EA0143801494000000000000
B0606173143600S11659396EA0142801485000000000000
B0606213143517S11659410EA0141501469000000000000
B0606253143429S11659426EA0139601450000000000000
B0606293143338S11659435EA0138901441000000000000
B0606333143245S11659436EA0138601444000000000000
B0606373143157S11659431EA0138501435000000000000
B0606413143066S11659422EA0137301426000000000000
B0606453142974S11659412EA0136201414000000000000
B0606493142881S11659399EA0135001404000000000000
B0606533142790S11659389EA0134301396000000000000
B0606573142699S11659382EA0133401386000000000000
B0607013142608S11659376EA0132301377000000000000
B0607053142517S11659371EA0131801371000000000000
B0607093142428S11659369EA0131201363000000000000
B0607133142339S11659365EA0130801357000000000000
B0607173142255S11659360EA0130001349000000000000
B0607213142169S11659352EA0129101340000000000000
B0607253142086S11659347EA0128501333000000000000
B0607293142004S11659341EA0128101330000000000000
B0607333141922S11659336EA0127901325000000000000
B0607373141841S11659336EA0127601322000000000000
B0607413141762S11659337EA0126901315000000000000
B0607453141683S11659344EA0126001302000000000000
B0607493141605S11659352EA0124701288000000000000
B0607533141524S11659362EA0123101274000000000000
B0607573141443S11659375EA0122101264000000000000
B0608013141362S11659389EA0121201259000000000000
B0608053141280S11659401EA0121401261000000000000
B0608093141200S11659417EA0121601259000000000000
B0608133141118S11659435EA0120901251000000000000
B0608173141037S11659454EA0120401249000000000000
B0608213140957S11659475EA0120601251000000000000
B0608253140883S11659508EA0119601237000000000000
B0608293140808S11659547EA0118401222000000000000
B0608333140728S11659581EA0117301213000000000000
B0608373140648S11659610EA0116101203000000000000
B0608413140570S11659640EA0116201206000000000000
B0608453140500S11659670EA0118101227000000000000
B0608493140440S11659713EA0119401242000000000000
B0608533140435S11659774EA0121901264000000000000
B0608573140489S11659765EA0124001285000000000000
B0609013140496S11659690EA0125101296000000000000
B0609053140442S11659660EA0125901307000000000000
B0609093140405S11659703EA0126501312000000000000
B0609133140418S11659765EA0127201321000000000000
B0609173140472S11659764EA0128801342000000000000
B0609213140481S11659691EA0130201349000000000000
B0609253140429S11659649EA0130401355000000000000
B0609293140390S11659695EA0131701369000000000000
B0609333140419S11659743EA0133601393000000000000
B0609373140468S11659717EA0134901399000000000000
B0609413140467S11659639EA0135401407000000000000
B0609453140413S11659609EA0136801426000000000000
B0609493140379S11659656EA0138001436000000000000
B0609533140413S11659699EA0139401454000000000000
B0609573140461S11659670EA0141001467000000000000
B0610013140467S11659596EA0141301471000000000000
B0610053140424S11659543EA0142201486000000000000
B0610093140374S11659558EA0143101486000000000000
B0610133140357S11659620EA0143401497000000000000
B0610173140393S11659655EA0145501516000000000000
B0610213140440S11659620EA0146801526000000000000
B0610253140439S11659545EA0147501534000000000000
B0610293140385S11659513EA0148701551000000000000
B0610333140342S11659549EA0149901557000000000000
B0610373140357S11659605EA0150901569000000000000
B0610413140407S11659597EA0152201584000000000000
B0610453140431S11659531EA0152901592000000000000
B0610493140398S11659470EA0154001605000000000000
B0610533140341S11659469EA0154901612000000000000
B0610573140315S11659523EA0155701618000000000000
B0611013140346S11659565EA0156401628000000000000
B0611053140396S11659538EA0156901629000000000000
B0611093140410S11659464EA0157101636000000000000
B0611133140372S11659406EA0158301646000000000000
B0611173140319S11659421EA0159001652000000000000
B0611213140319S11659482EA0158901652000000000000
B0611253140370S11659492EA0159801660000000000000
B0611293140407S11659441EA0160101663000000000000
B0611333140406S11659367EA0160201665000000000000
B0611373140359S11659319EA0160901674000000000000
B0611413140310S11659339EA0161701680000000000000
B0611453140286S11659400EA0161801677000000000000
B0611493140315S11659448EA0161701680000000000000
B0611533140359S11659408EA0161601676000000000000
B0611573140335S11659335EA0161401681000000000000
B0612013140275S11659301EA0162101683000000000000
B0612053140205S11659288EA0161301670000000000000
B0612093140124S11659279EA0160001666000000000000
B0612133140039S11659272EA0160401669000000000000
B0612173139954S11659266EA0159501653000000000000
B0612213139863S11659261EA0157801641000000000000
B0612253139774S11659256EA0157401641000000000000
B0612293139688S11659254EA0157501639000000000000
B0612333139605S11659256EA0157101633000000000000
B0612373139522S11659259EA0156001618000000000000
B0612413139439S11659262EA0155501616000000000000
B0612453139358S11659262EA0155901617000000000000
B0612493139275S11659262EA0154901603000000000000
B0612533139191S11659266EA0153701593000000000000
B0612573139105S11659269EA0153001594000000000000
B0613013139023S11659271EA0153501595000000000000
B0613053138944S11659278EA0153101589000000000000
B0613093138863S11659284EA0152001576000000000000
B0613133138781S11659292EA0151001566000000000000
B0613173138702S11659308EA0150501562000000000000
B0613213138628S11659328EA0150301560000000000000
B0613253138554S11659347EA0150001553000000000000
B0613293138477S11659361EA0149301547000000000000
B0613333138404S11659379EA0149201546000000000000
B0613373138331S11659396EA0149301548000000000000
B0613413138260S11659415EA0149601551000000000000
B0613453138192S11659438EA0150201558000000000000
B0613493138128S11659458EA0150301558000000000000
B0613533138063S11659478EA0149901550000000000000
B0613573137995S11659500EA0148701536000000000000
B0614013137923S11659523EA0147701529000000000000
B0614053137858S11659561EA0147001523000000000000
B0614093137809S11659617EA0146801519000000000000
B0614133137774S11659682EA0146201514000000000000
B0614173137749S11659753EA0145601506000000000000
B0614213137733S11659831EA0144501496000000000000
B0614253137724S11659915EA0143001481000000000000
B0614293137727S11700003EA0142101471000000000000
B0614333137731S11700091EA0141601465000000000000
B0614373137733S11700181EA0140401452000000000000
B0614413137742S11700276EA0138901437000000000000
B0614453137750S11700377EA0137701428000000000000
B0614493137751S11700476EA0136901418000000000000
B0614533137750S11700576EA0136501413000000000000
B0614573137742S11700674EA0135201403000000000000
B0615013137742S11700775EA0134001388000000000000
B0615053137745S11700878EA0133301383000000000000
B0615093137740S11700979EA0132301370000000000000
B0615133137733S11701081EA0131701369000000000000
B0615173137729S11701182EA0131201359000000000000
B0615213137725S11701286EA0129701345000000000000
B0615253137722S11701393EA0128201330000000000000
B0615293137719S11701499EA0127501326000000000000
B0615333137715S11701601EA0127301325000000000000
B0615373137714S11701694EA0127901328000000000000
B0615413137728S11701785EA0127301317000000000000
B0615453137751S11701876EA0125501298000000000000
B0615493137775S11701969EA0124201292000000000000
B0615533137794S11702060EA0123801283000000000000
B0615573137816S11702151EA0122901275000000000000
B0616013137846S11702233EA0123601284000000000000
B0616053137881S11702304EA0124601293000000000000
B0616093137922S11702370EA0124501285000000000000
B0616133137954S11702448EA0123101265000000000000
B0616173137970S11702541EA0121501258000000000000
B0616213137967S11702632EA0121401254000000000000
B0616253137963S11702723EA0120001243000000000000
B0616293137962S11702811EA0120001245000000000000
B0616333137963S11702897EA0119801238000000000000
B0616373137970S11702983EA0119201235000000000000
B0616413137976S11703067EA0118601227000000000000
B0616453137980S11703154EA0118001221000000000000
B0616493137978S11703240EA0118001221000000000000
B0616533137971S11703325EA0117801215000000000000
B0616573137967S11703409EA0116901206000000000000
B0617013137965S11703495EA0116001201000000000000
B0617053137963S11703578EA0115901198000000000000
B0617093137969S11703660EA0115601197000000000000
B0617133137978S11703738EA0115601192000000000000
B0617173137985S11703813EA0114801185000000000000
B0617213137996S11703890EA0113501172000000000000
B0617253138015S11703971EA0112501161000000000000
B0617293138044S11704049EA0111801154000000000000
B0617333138080S11704127EA0110601139000000000000
B0617373138118S11704203EA0110001137000000000000
B0617413138153S11704275EA0109901133000000000000
B0617453138182S11704352EA0109701131000000000000
B0617493138210S11704426EA0109401129000000000000
B0617533138239S11704498EA0109001124000000000000
B0617573138270S11704573EA0107701106000000000000
B0618013138300S11704651EA0106501099000000000000
B0618053138323S11704731EA0106401101000000000000
B0618093138340S11704809EA0106301094000000000000
B0618133138349S11704887EA0105201080000000000000
B0618173138355S11704969EA0104101074000000000000
B0618213138364S11705048EA0104901088000000000000
B0618253138374S11705121EA0106301098000000000000
B0618293138424S11705145EA0107901113000000000000
B0618333138447S11705080EA0108101110000000000000
B0618373138403S11705024EA0107501110000000000000
B0618413138346S11705033EA0108401117000000000000
B0618453138342S11705086EA0109001124000000000000
B0618493138392S11705095EA0109101121000000000000
B0618533138433S11705041EA0108701120000000000000
B0618573138417S11704964EA0108501120000000000000
B0619013138360S11704924EA0108801122000000000000
B0619053138300S11704939EA0108901127000000000000
B0619093138286S11704992EA0110601142000000000000
B0619133138329S11705030EA0110901144000000000000
B0619173138383S11704987EA0110601140000000000000
B0619213138370S11704909EA0110601140000000000000
B0619253138314S11704887EA0110301143000000000000
B0619293138284S11704935EA0110901149000000000000
B0619333138287S11705004EA0110201138000000000000
B0619373138305S11705081EA0108901130000000000000
B0619413138326S11705160EA0107701114000000000000
B0619453138347S11705239EA0107001111000000000000
B0619493138366S11705314EA0107401116000000000000
B0619533138391S11705382EA0107301112000000000000
B0619573138413S11705454EA0106301099000000000000
B0620013138433S11705529EA0105501087000000000000
B0620053138448S11705605EA0104301075000000000000
B0620093138461S11705684EA0103001060000000000000
B0620133138466S11705767EA0102101054000000000000
B0620173138472S11705848EA0102101051000000000000
B0620213138469S11705932EA0101301044000000000000
B0620253138466S11706018EA0100701040000000000000
B0620293138460S11706100EA0101501052000000000000
B0620333138477S11706161EA0103601071000000000000
B0620373138518S11706122EA0104601078000000000000
B0620413138487S11706048EA0103901071000000000000
B0620453138422S11706025EA0104001074000000000000
B0620493138369S11706061EA0104401072000000000000
B0620533138349S11706125EA0103401066000000000000
B0620573138349S11706198EA0102901061000000000000
B0621013138351S11706272EA0102501058000000000000
B0621053138356S11706348EA0102701063000000000000
B0621093138366S11706422EA0103101070000000000000
B0621133138374S11706493EA0104301077000000000000
B0621173138392S11706558EA0105001086000000000000
B0621213138444S11706563EA0106701100000000000000
B0621253138472S11706498EA0106201089000000000000
B0621293138434S11706425EA0104101076000000000000
B0621333138368S11706415EA0103901080000000000000
B0621373138317S11706451EA0104201077000000000000
B0621413138288S11706511EA0103601071000000000000
B0621453138278S11706584EA0102301055000000000000
B0621493138282S11706664EA0100201034000000000000
B0621533138297S11706746EA0099101022000000000000
B0621573138317S11706827EA0098401018000000000000
B0622013138334S11706905EA0098301020000000000000
B0622053138351S11706979EA0098501019000000000000
B0622093138368S11707056EA0098501019000000000000
B0622133138377S11707131EA0098801022000000000000
B0622173138388S11707206EA0098101008000000000000
B0622213138401S11707286EA0096400994000000000000
B0622253138411S11707366EA0095100980000000000000
B0622293138420S11707446EA0094400976000000000000
B0622333138431S11707520EA0094000968000000000000
B0622373138443S11707596EA0092800956000000000000
B0622413138451S11707673EA0092700960000000000000
B0622453138456S11707748EA0093100960000000000000
B0622493138461S11707821EA0093400965000000000000
B0622533138469S11707893EA0093000957000000000000
B0622573138485S11707964EA0092600955000000000000
B0623013138500S11708032EA0092400951000000000000
B0623053138524S11708101EA0091100937000000000000
B0623093138542S11708175EA0090500934000000000000
B0623133138554S11708250EA0090500929000000000000
B0623173138568S11708326EA0089800922000000000000
B0623213138585S11708404EA0088700908000000000000
B0623253138600S11708489EA0086500891000000000000
B0623293138613S11708575EA0085700880000000000000
B0623333138620S11708664EA0085000879000000000000
B0623373138625S11708744EA0085900887000000000000
B0623413138639S11708820EA0086100889000000000000
B0623453138663S11708891EA0085600877000000000000
B0623493138686S11708964EA0085000878000000000000
B0623533138713S11709035EA0085100875000000000000
B0623573138751S11709097EA0085000879000000000000
B0624013138807S11709084EA0086500893000000000000
B0624053138802S11709009EA0086300881000000000000
B0624093138742S11709000EA0084300866000000000000
B0624133138699S11709052EA0082300845000000000000
B0624173138678S11709126EA0079900823000000000000
B0624213138668S11709208EA0078300809000000000000
B0624253138664S11709294EA0077100797000000000000
B0624293138664S11709383EA0075700780000000000000
B0624333138659S11709474EA0074800772000000000000
B0624373138654S11709562EA0074500773000000000000
