ACAM4N6
HFDTE211213
HFFXA050
HFPLTPILOT:JOHN WELSH              
HFGTYGLIDERTYPE:HORNET      
HFGIDGLIDERID:VH-GMY      
HFDTM100GPSDATUM:
HFRFWFIRMWAREVERSION:F2.6
HFRHWHARDWAREVERSION:300 Series Version 2
HFFTYFRTYPE:CAMBRIDGE AERO INSTRUMENTS, 302+
HFGPS:GARMIN,LVS-25,12,18000
HFPRSPRESSALTSENSOR:INTERSEMA, MS5534-AP, 20000
I033638FXA3941ENL4247REX
LCAMSBVER:5FWVER:F26300
C211213041204211213000103
C0000000N00000000WTAKEOFF     
C3207549S11656849EBeverley Air
C3137399S11712982ECunderdin Ai
C3256166S11710665ENarrogin Sil
C3255533S11704932ENarrogin Aer
C3207549S11656849EBeverley Air
C0000000N00000000WLANDING     
B0422293207339S11656858EA0015700216000000000000
B0422313207339S11656858EA0015700216000000000000
B0422333207339S11656858EA0015800216000000000000
B0422353207339S11656858EA0015800216000000000000
B0422373207339S11656858EA0015600216000000000000
B0422393207339S11656858EA0015600216000000000000
B0422413207339S11656858EA0015700216000000000000
B0422433207339S11656858EA0015700216000000000000
B0422453207339S11656858EA0015700216000000000000
B0422473207339S11656858EA0015700216000000000000
B0422493207339S11656858EA0015700216000000000000
B0422513207339S11656858EA0015600216000000000000
B0422533207339S11656858EA0015600216000000000000
B0422553207342S11656861EA0015500216000000000000
B0422573207345S11656864EA0015600215000000000000
B0422583207347S11656866EA0015600215000000000000
B0423023207365S11656880EA0015500214000000000000
B0423063207398S11656904EA0015300214000000000000
B0423103207446S11656932EA0015400213000000000000
B0423143207503S11656966EA0015200213000000000000
B0423183207567S11657004EA0015600217000000000000
B0423223207628S11657043EA0016700230000000000000
B0423263207688S11657086EA0018100248000000000000
B0423303207744S11657135EA0019800264000000000000
B0423343207792S11657191EA0021400287000000000000
B0423383207839S11657248EA0023700310000000000000
B0423423207878S11657307EA0026300342000000000000
B0423463207914S11657361EA0029300373000000000000
B0423503207950S11657416EA0032600406000000000000
B0423543207986S11657475EA0035700435000000000000
B0423583208018S11657536EA0038500460000000000000
B0424023208044S11657602EA0040500481000000000000
B0424063208071S11657668EA0042300495000000000000
B0424103208095S11657736EA0043200505000000000000
B0424143208116S11657802EA0044300517000000000000
B0424183208134S11657866EA0046000535000000000000
B0424223208152S11657935EA0047200542000000000000
B0424263208170S11658004EA0047800552000000000000
B0424303208186S11658073EA0048900562000000000000
B0424343208201S11658139EA0051100588000000000000
B0424383208220S11658206EA0052600597000000000000
B0424423208234S11658275EA0053500609000000000000
B0424463208246S11658343EA0054800622000000000000
B0424503208257S11658411EA0056200635000000000000
B0424543208269S11658479EA0057600649000000000000
B0424583208279S11658550EA0059000664000000000000
B0425023208290S11658619EA0061300687000000000000
B0425063208303S11658691EA0062900703000000000000
B0425103208313S11658764EA0064300718000000000000
B0425143208325S11658837EA0066500737000000000000
B0425183208338S11658911EA0067500753000000000000
B0425223208347S11658985EA0069600772000000000000
B0425263208356S11659063EA0071300788000000000000
B0425303208365S11659142EA0072900804000000000000
B0425343208373S11659220EA0074700821000000000000
B0425383208382S11659292EA0076200843000000000000
B0425423208399S11659348EA0078600870000000000000
B0425463208443S11659353EA0081000885000000000000
B0425503208482S11659295EA0081800894000000000000
B0425543208477S11659201EA0082100895000000000000
B0425583208426S11659124EA0082300897000000000000
B0426023208356S11659090EA0082600897000000000000
B0426063208292S11659101EA0082300892000000000000
B0426103208247S11659141EA0081500885000000000000
B0426143208222S11659196EA0081900891000000000000
B0426183208217S11659249EA0084000913000000000000
B0426223208253S11659266EA0087000941000000000000
B0426263208300S11659214EA0087900953000000000000
B0426303208295S11659123EA0089200968000000000000
B0426343208236S11659058EA0089200958000000000000
B0426383208168S11659058EA0088600960000000000000
B0426423208129S11659101EA0089700973000000000000
B0426463208119S11659152EA0091900998000000000000
B0426503208156S11659163EA0094501020000000000000
B0426543208195S11659098EA0095301024000000000000
B0426583208186S11658996EA0096501045000000000000
B0427023208131S11658923EA0098501058000000000000
B0427063208064S11658903EA0099301067000000000000
B0427103208022S11658937EA0100601077000000000000
B0427143208032S11658977EA0101801093000000000000
B0427183208075S11658942EA0103701110000000000000
B0427223208071S11658854EA0105701131000000000000
B0427263208012S11658794EA0106101132000000000000
B0427303207943S11658804EA0107001145000000000000
B0427343207917S11658858EA0108301162000000000000
B0427383207945S11658892EA0109601173000000000000
B0427423207996S11658851EA0111501199000000000000
B0427463208002S11658764EA0114501230000000000000
B0427503207953S11658695EA0116701243000000000000
B0427543207883S11658686EA0117101249000000000000
B0427583207840S11658730EA0118401264000000000000
B0428023207850S11658778EA0120001275000000000000
B0428063207898S11658769EA0121101287000000000000
B0428103207904S11658686EA0123701318000000000000
B0428143207848S11658630EA0126401342000000000000
B0428183207787S11658647EA0127601354000000000000
B0428223207771S11658700EA0128801359000000000000
B0428263207806S11658732EA0129601370000000000000
B0428303207854S11658686EA0130501378000000000000
B0428343207844S11658596EA0131701404000000000000
B0428383207783S11658550EA0134701431000000000000
B0428423207724S11658568EA0136401444000000000000
B0428463207705S11658620EA0137501453000000000000
B0428503207736S11658656EA0138401460000000000000
B0428543207788S11658630EA0139301468000000000000
B0428583207810S11658547EA0139901476000000000000
B0429023207767S11658476EA0141201492000000000000
B0429063207706S11658479EA0142501501000000000000
B0429103207684S11658533EA0143401511000000000000
B0429143207713S11658576EA0144701523000000000000
B0429183207767S11658557EA0145601536000000000000
B0429223207796S11658481EA0146701545000000000000
B0429263207770S11658394EA0147201552000000000000
B0429303207709S11658362EA0148401565000000000000
B0429343207664S11658395EA0149201569000000000000
B0429383207672S11658444EA0149601573000000000000
B0429423207726S11658443EA0150801587000000000000
B0429463207755S11658368EA0151701595000000000000
B0429503207728S11658281EA0152101599000000000000
B0429543207662S11658253EA0151801597000000000000
B0429583207605S11658284EA0151701595000000000000
B0430023207568S11658344EA0151901604000000000000
B0430063207575S11658403EA0153201617000000000000
B0430103207619S11658430EA0154501625000000000000
B0430143207676S11658403EA0155001630000000000000
B0430183207702S11658321EA0155601633000000000000
B0430223207714S11658223EA0155301636000000000000
B0430263207728S11658127EA0156801654000000000000
B0430303207733S11658030EA0158701668000000000000
B0430343207692S11657943EA0160201685000000000000
B0430383207631S11657931EA0161401691000000000000
B0430423207603S11657983EA0161201693000000000000
B0430463207629S11658023EA0162201707000000000000
B0430503207681S11658021EA0163101709000000000000
B0430543207741S11657976EA0163701722000000000000
B0430583207784S11657902EA0165601746000000000000
B0431023207771S11657811EA0168801772000000000000
B0431063207722S11657757EA0169301768000000000000
B0431103207661S11657764EA0167801752000000000000
B0431143207629S11657818EA0167601759000000000000
B0431183207648S11657865EA0169901783000000000000
B0431223207698S11657865EA0171001790000000000000
B0431263207749S11657806EA0171801800000000000000
B0431303207749S11657709EA0173801823000000000000
B0431343207703S11657631EA0175301830000000000000
B0431383207637S11657602EA0174701826000000000000
B0431423207583S11657633EA0174901827000000000000
B0431463207588S11657679EA0176201845000000000000
B0431503207638S11657667EA0176801843000000000000
B0431543207677S11657581EA0176101843000000000000
B0431583207650S11657478EA0177801864000000000000
B0432023207586S11657445EA0179501873000000000000
B0432063207546S11657484EA0178801861000000000000
B0432103207566S11657534EA0178901872000000000000
B0432143207622S11657530EA0180001880000000000000
B0432183207663S11657460EA0180801890000000000000
B0432223207651S11657367EA0181501894000000000000
B0432263207593S11657302EA0180701886000000000000
B0432303207521S11657256EA0180301884000000000000
B0432343207450S11657220EA0180401888000000000000
B0432383207380S11657198EA0181201890000000000000
B0432423207320S11657216EA0180901886000000000000
B0432463207315S11657265EA0180701885000000000000
B0432503207356S11657295EA0180001877000000000000
B0432543207421S11657289EA0180001883000000000000
B0432583207484S11657270EA0181401898000000000000
B0433023207549S11657244EA0181601893000000000000
B0433063207615S11657208EA0181201896000000000000
B0433103207675S11657144EA0181101892000000000000
B0433143207719S11657056EA0179801877000000000000
B0433183207723S11656952EA0179701878000000000000
B0433223207679S11656870EA0179801877000000000000
B0433263207605S11656854EA0179301870000000000000
B0433303207532S11656870EA0178501860000000000000
B0433343207460S11656888EA0177801852000000000000
B0433383207384S11656903EA0176801842000000000000
B0433423207302S11656910EA0176201843000000000000
B0433463207220S11656913EA0176501843000000000000
B0433503207141S11656925EA0175901838000000000000
B0433543207060S11656944EA0175001827000000000000
B0433583206979S11656969EA0174401823000000000000
B0434023206897S11656997EA0174201822000000000000
B0434063206813S11657027EA0172901806000000000000
B0434103206723S11657059EA0171701793000000000000
B0434143206637S11657098EA0170501782000000000000
B0434183206552S11657144EA0169601775000000000000
B0434223206466S11657191EA0168801763000000000000
B0434263206377S11657241EA0167501747000000000000
B0434303206289S11657296EA0165501733000000000000
B0434343206207S11657358EA0165001733000000000000
B0434383206130S11657413EA0165701740000000000000
B0434423206054S11657464EA0165901737000000000000
B0434463205976S11657511EA0165101727000000000000
B0434503205893S11657555EA0163801714000000000000
B0434543205809S11657597EA0162601702000000000000
B0434583205726S11657644EA0161301691000000000000
B0435023205649S11657696EA0160401684000000000000
B0435063205577S11657745EA0161501699000000000000
B0435103205510S11657788EA0162101698000000000000
B0435143205441S11657831EA0161001683000000000000
B0435183205370S11657874EA0159901676000000000000
B0435223205300S11657915EA0159701677000000000000
B0435263205231S11657953EA0159801678000000000000
B0435303205165S11657988EA0160701690000000000000
B0435343205118S11658034EA0162901713000000000000
B0435383205105S11658082EA0165101731000000000000
B0435423205118S11658128EA0166101738000000000000
B0435463205141S11658171EA0167701754000000000000
B0435503205189S11658171EA0168901765000000000000
B0435543205215S11658084EA0170501785000000000000
B0435583205176S11658004EA0171401797000000000000
B0436023205122S11658000EA0172301806000000000000
B0436063205114S11658045EA0172901810000000000000
B0436103205162S11658045EA0174401832000000000000
B0436143205194S11657966EA0175801846000000000000
B0436183205167S11657875EA0176301846000000000000
B0436223205102S11657846EA0176201843000000000000
B0436263205038S11657865EA0174001809000000000000
B0436303204968S11657911EA0170901788000000000000
B0436343204897S11657975EA0170401787000000000000
B0436383204828S11658044EA0170601788000000000000
B0436423204758S11658108EA0172001804000000000000
B0436463204691S11658167EA0173201806000000000000
B0436503204622S11658227EA0174501827000000000000
B0436543204560S11658278EA0176401833000000000000
B0436583204495S11658334EA0174001806000000000000
B0437023204425S11658403EA0171401779000000000000
B0437063204353S11658478EA0169701768000000000000
B0437103204283S11658554EA0169101765000000000000
B0437143204214S11658624EA0169201764000000000000
B0437183204144S11658693EA0168901761000000000000
B0437223204073S11658760EA0168001750000000000000
B0437263204000S11658827EA0167701754000000000000
B0437303203927S11658886EA0168801765000000000000
B0437343203862S11658937EA0171401784000000000000
B0437383203797S11658985EA0169601758000000000000
B0437423203722S11659041EA0166801734000000000000
B0437463203641S11659101EA0165301723000000000000
B0437503203563S11659161EA0165001722000000000000
B0437543203486S11659220EA0164801718000000000000
B0437583203410S11659280EA0163601703000000000000
B0438023203330S11659340EA0162101692000000000000
B0438063203250S11659396EA0161401687000000000000
B0438103203169S11659449EA0161101683000000000000
B0438143203088S11659500EA0160801683000000000000
B0438183203013S11659548EA0161001679000000000000
B0438223202935S11659596EA0159601664000000000000
B0438263202854S11659646EA0158701655000000000000
B0438303202770S11659695EA0157801654000000000000
B0438343202689S11659739EA0158801664000000000000
B0438383202610S11659785EA0158201650000000000000
B0438423202527S11659831EA0157601648000000000000
B0438463202442S11659876EA0156901638000000000000
B0438503202351S11659922EA0156401641000000000000
B0438543202280S11659973EA0159501671000000000000
B0438583202225S11700036EA0158401648000000000000
B0439023202149S11700094EA0155601620000000000000
B0439063202071S11700155EA0155401618000000000000
B0439103201990S11700218EA0153601596000000000000
B0439143201907S11700281EA0151601580000000000000
B0439183201824S11700342EA0151001578000000000000
B0439223201742S11700403EA0149801567000000000000
B0439263201656S11700459EA0149001558000000000000
B0439303201567S11700517EA0147401545000000000000
B0439343201476S11700570EA0146501535000000000000
B0439383201384S11700621EA0145001522000000000000
B0439423201293S11700670EA0144101514000000000000
B0439463201205S11700715EA0144001510000000000000
B0439503201116S11700758EA0143601508000000000000
B0439543201028S11700803EA0143601507000000000000
B0439583200943S11700843EA0144801529000000000000
B0440023200864S11700881EA0144901505000000000000
B0440063200777S11700926EA0141601476000000000000
B0440103200686S11700975EA0139801464000000000000
B0440143200594S11701027EA0139101457000000000000
B0440183200504S11701076EA0139001458000000000000
B0440223200416S11701121EA0138001449000000000000
B0440263200332S11701164EA0138401456000000000000
B0440303200249S11701206EA0138401450000000000000
B0440343200167S11701248EA0137901447000000000000
B0440383200087S11701290EA0137801448000000000000
B0440423200010S11701326EA0138201451000000000000
B0440463159939S11701365EA0138101441000000000000
B0440503159862S11701408EA0135701417000000000000
B0440543159781S11701451EA0133701402000000000000
B0440583159698S11701493EA0132001385000000000000
B0441023159612S11701533EA0130701366000000000000
B0441063159524S11701575EA0128301347000000000000
B0441103159435S11701614EA0128601357000000000000
B0441143159354S11701650EA0130401374000000000000
B0441183159279S11701685EA0131701391000000000000
B0441223159231S11701736EA0134001404000000000000
B0441263159227S11701792EA0135101419000000000000
B0441303159244S11701840EA0135701424000000000000
B0441343159269S11701884EA0135901421000000000000
B0441383159302S11701926EA0135401418000000000000
B0441423159337S11701967EA0135201418000000000000
B0441463159382S11701992EA0136601433000000000000
B0441503159435S11701958EA0137601448000000000000
B0441543159443S11701871EA0138601461000000000000
B0441583159386S11701819EA0140401481000000000000
B0442023159341S11701845EA0142801502000000000000
B0442063159356S11701879EA0144201515000000000000
B0442103159403S11701854EA0144101513000000000000
B0442143159415S11701767EA0144701524000000000000
B0442183159360S11701703EA0146101543000000000000
B0442223159298S11701710EA0148001558000000000000
B0442263159279S11701757EA0149501574000000000000
B0442303159318S11701767EA0150801586000000000000
B0442343159361S11701713EA0151401595000000000000
B0442383159351S11701625EA0152501610000000000000
B0442423159290S11701579EA0154101620000000000000
B0442463159233S11701605EA0155301632000000000000
B0442503159224S11701655EA0156701645000000000000
B0442543159266S11701662EA0158101657000000000000
B0442583159299S11701594EA0158201655000000000000
B0443023159270S11701503EA0159301673000000000000
B0443063159201S11701459EA0160401683000000000000
B0443103159143S11701485EA0161601693000000000000
B0443143159156S11701531EA0162501702000000000000
B0443183159209S11701503EA0163201708000000000000
B0443223159211S11701416EA0164301728000000000000
B0443263159148S11701369EA0165601736000000000000
B0443303159095S11701398EA0166601742000000000000
B0443343159099S11701449EA0167301750000000000000
B0443383159146S11701443EA0167201746000000000000
B0443423159182S11701368EA0167301753000000000000
B0443463159164S11701282EA0168801773000000000000
B0443503159101S11701267EA0170401781000000000000
B0443543159066S11701311EA0170301777000000000000
B0443583159079S11701369EA0169901776000000000000
B0444023159112S11701419EA0170001781000000000000
B0444063159155S11701456EA0171101786000000000000
B0444103159173S11701521EA0169801771000000000000
B0444143159133S11701602EA0168601763000000000000
B0444183159069S11701675EA0167601753000000000000
B0444223158990S11701740EA0166601744000000000000
B0444263158908S11701798EA0166301741000000000000
B0444303158824S11701856EA0165501730000000000000
B0444343158737S11701909EA0164301716000000000000
B0444383158648S11701960EA0163001706000000000000
B0444423158557S11702008EA0162101700000000000000
B0444463158466S11702051EA0161201686000000000000
B0444503158369S11702091EA0159601671000000000000
B0444543158273S11702129EA0158901666000000000000
B0444583158181S11702168EA0158601659000000000000
B0445023158090S11702208EA0157601648000000000000
B0445063157995S11702249EA0156101634000000000000
B0445103157901S11702292EA0155401630000000000000
B0445143157812S11702338EA0155201625000000000000
B0445183157723S11702385EA0154101613000000000000
B0445223157636S11702434EA0152901601000000000000
B0445263157549S11702483EA0152201594000000000000
B0445303157463S11702530EA0151801590000000000000
B0445343157379S11702576EA0151101580000000000000
B0445383157293S11702621EA0149701565000000000000
B0445423157203S11702667EA0148001552000000000000
B0445463157116S11702716EA0147201541000000000000
B0445503157029S11702762EA0146001531000000000000
B0445543156941S11702806EA0145301525000000000000
B0445583156855S11702849EA0144901521000000000000
B0446023156772S11702889EA0145901532000000000000
B0446063156707S11702937EA0149001563000000000000
B0446103156678S11702998EA0151101578000000000000
B0446143156690S11703057EA0152001592000000000000
B0446183156708S11703110EA0152901595000000000000
B0446223156711S11703172EA0151301568000000000000
B0446263156669S11703244EA0147901533000000000000
B0446303156596S11703308EA0144301505000000000000
B0446343156513S11703364EA0142301491000000000000
B0446383156426S11703413EA0141301482000000000000
B0446423156338S11703458EA0140501474000000000000
B0446463156250S11703500EA0139801465000000000000
B0446503156162S11703539EA0138401453000000000000
B0446543156076S11703579EA0137901447000000000000
B0446583155992S11703620EA0137201436000000000000
B0447023155907S11703661EA0136101427000000000000
B0447063155824S11703702EA0135501422000000000000
B0447103155741S11703741EA0135401420000000000000
B0447143155660S11703778EA0134901414000000000000
B0447183155581S11703817EA0134401410000000000000
B0447223155499S11703856EA0133301397000000000000
B0447263155420S11703902EA0131901383000000000000
B0447303155340S11703949EA0130801369000000000000
B0447343155261S11703998EA0129001352000000000000
B0447383155181S11704047EA0128801348000000000000
B0447423155101S11704095EA0128401352000000000000
B0447463155043S11704151EA0129901368000000000000
B0447503155038S11704207EA0132601393000000000000
B0447543155069S11704236EA0134901414000000000000
B0447583155110S11704183EA0136801431000000000000
B0448023155099S11704088EA0136901426000000000000
B0448063155032S11704038EA0136101422000000000000
B0448103154989S11704063EA0135701417000000015000
B0448143155010S11704098EA0134601409000000015000
B0448183155049S11704128EA0135201419000000015000
B0448223155088S11704155EA0135601421000000000000
B0448263155121S11704189EA0135901427000000000000
B0448303155151S11704222EA0136701435000000000000
B0448343155188S11704250EA0137301444000000000000
B0448383155221S11704284EA0137801441000000000000
B0448423155255S11704318EA0138401450000000000000
B0448463155300S11704284EA0138201445000000000000
B0448503155265S11704196EA0135201419000000015000
B0448543155190S11704175EA0134801417000000030000
B0448583155135S11704218EA0134301415000000015000
B0449023155130S11704276EA0135001423000000015000
B0449063155156S11704327EA0135101417000000015000
B0449103155192S11704375EA0134301410000000015000
B0449143155213S11704443EA0132101378000000015000
B0449183155197S11704534EA0129001354000000015000
B0449223155155S11704623EA0128801353000000000000
B0449263155097S11704705EA0128101344000000000000
B0449303155027S11704779EA0126301326000000000000
B0449343154948S11704844EA0125101318000000000000
B0449383154865S11704900EA0124801309000000000000
B0449423154776S11704950EA0123101300000000000000
B0449463154687S11704994EA0122301289000000000000
B0449503154598S11705042EA0120901276000000000000
B0449543154511S11705087EA0120401275000000000000
B0449583154429S11705128EA0120701278000000000000
B0450023154352S11705164EA0120801277000000000000
B0450063154280S11705199EA0120401271000000000000
B0450103154207S11705236EA0119501260000000000000
B0450143154129S11705271EA0118301244000000000000
B0450183154051S11705308EA0116401227000000000000
B0450223153969S11705349EA0113701196000000000000
B0450263153881S11705393EA0111101176000000000000
B0450303153787S11705432EA0109101158000000000000
B0450343153689S11705463EA0107701144000000000000
B0450383153597S11705498EA0106701138000000000000
B0450423153510S11705536EA0106101129000000000000
B0450463153427S11705571EA0105701127000000000000
B0450503153346S11705606EA0105101115000000000000
B0450543153267S11705641EA0104401107000000000000
B0450583153189S11705678EA0103401096000000000000
B0451023153117S11705724EA0102601092000000000000
B0451063153054S11705778EA0101801079000000000000
B0451103152990S11705835EA0100301063000000000000
B0451143152929S11705897EA0099601058000000000000
B0451183152873S11705962EA0099401059000000000000
B0451223152864S11706030EA0101001078000000000000
B0451263152911S11706052EA0102001076000000000000
B0451303152963S11705995EA0101601076000000000000
B0451343152977S11705899EA0102001082000000000000
B0451383152958S11705798EA0102401088000000000000
B0451423152924S11705705EA0103001092000000000000
B0451463152877S11705622EA0103001088000000000000
B0451503152802S11705590EA0102801086000000000000
B0451543152755S11705629EA0102201075000000000000
B0451583152777S11705676EA0101001061000000015000
B0452023152829S11705702EA0099801049000000000000
B0452063152891S11705701EA0099701048000000000000
B0452103152933S11705628EA0100101056000000000000
B0452143152920S11705525EA0100301058000000000000
B0452183152872S11705432EA0100001054000000000000
B0452223152812S11705345EA0099001040000000000000
B0452263152742S11705264EA0097401024000000000000
B0452303152669S11705181EA0095401009000000000000
B0452343152583S11705116EA0094701002000000000000
B0452383152492S11705095EA0094000993000000000000
B0452423152405S11705107EA0092600970000000000000
B0452463152318S11705137EA0090200950000000000000
B0452503152233S11705171EA0089300943000000000000
B0452543152153S11705210EA0088400935000000000000
B0452583152074S11705251EA0087700932000000000000
B0453023152001S11705298EA0087800935000000000000
B0453063151968S11705363EA0089500952000000000000
B0453103151968S11705429EA0090300958000000000000
B0453143151976S11705489EA0091500971000000000000
B0453183151986S11705544EA0091900973000000000000
B0453223152003S11705596EA0091400966000000000000
B0453263152024S11705648EA0091300970000000000000
B0453303152051S11705694EA0091300970000000000000
B0453343152079S11705737EA0091600970000000000000
B0453383152103S11705784EA0091000967000000000000
B0453423152132S11705831EA0090700963000000000000
B0453463152161S11705875EA0090600964000000000000
B0453503152189S11705917EA0090400960000000000000
B0453543152219S11705958EA0090200960000000000000
B0453583152248S11705996EA0090900965000000000000
B0454023152272S11706038EA0091400972000000000000
B0454063152291S11706083EA0092000977000000000000
B0454103152309S11706130EA0091900972000000000000
B0454143152331S11706177EA0091400967000000000000
B0454183152358S11706226EA0090600959000000000000
B0454223152389S11706276EA0089600953000000000000
B0454263152423S11706324EA0089100943000000000000
B0454303152445S11706383EA0087000920000000000000
B0454343152430S11706458EA0085300903000000000000
B0454383152376S11706523EA0083500887000000000000
B0454423152305S11706571EA0081900870000000000000
B0454463152227S11706608EA0080200851000000000000
B0454503152149S11706647EA0078500842000000000000
B0454543152083S11706698EA0078000833000000000000
B0454583152020S11706753EA0076700822000000000000
B0455023151957S11706805EA0075400808000000000000
B0455063151892S11706851EA0074500801000000000000
B0455103151828S11706897EA0074100797000000000000
B0455143151772S11706949EA0074600803000000000000
B0455183151769S11707006EA0077100829000000000000
B0455223151816S11706989EA0078200838000000000000
B0455263151825S11706911EA0077600831000000000000
B0455303151772S11706854EA0076700820000000000000
B0455343151704S11706864EA0075500816000000000000
B0455383151676S11706923EA0076000827000000015000
B0455423151702S11706971EA0076700831000000015000
B0455463151736S11706905EA0076900826000000015000
B0455503151678S11706837EA0077100836000000015000
B0455543151611S11706853EA0078500848000000015000
B0455583151604S11706903EA0079700861000000015000
B0456023151651S11706903EA0080800868000000015000
B0456063151682S11706835EA0081200873000000015000
B0456103151645S11706767EA0082300887000000015000
B0456143151581S11706759EA0082800892000000015000
B0456183151547S11706801EA0083100894000000015000
B0456223151570S11706836EA0083700900000000015000
B0456263151622S11706814EA0083400894000000015000
B0456303151650S11706733EA0083800902000000015000
B0456343151613S11706655EA0084700911000000015000
B0456383151548S11706650EA0085800925000000015000
B0456423151530S11706702EA0086400922000000015000
B0456463151573S11706721EA0086400925000000015000
B0456503151624S11706669EA0086200922000000015000
B0456543151615S11706585EA0087300941000000015000
B0456583151552S11706550EA0088700948000000015000
B0457023151516S11706589EA0089100952000000015000
B0457063151555S11706612EA0089400951000000015000
B0457103151593S11706552EA0089400955000000015000
B0457143151563S11706474EA0090600966000000015000
B0457183151495S11706456EA0091400977000000015000
B0457223151473S11706500EA0092500982000000015000
B0457263151513S11706524EA0092300979000000015000
B0457303151560S11706481EA0092100979000000015000
B0457343151556S11706395EA0092700988000000015000
B0457383151502S11706325EA0093400999000000015000
B0457423151439S11706329EA0095201017000000015000
B0457463151439S11706370EA0096501028000000015000
B0457503151485S11706359EA0096701025000000015000
B0457543151505S11706285EA0096701027000000015000
B0457583151474S11706205EA0097701043000000015000
B0458023151417S11706160EA0099201056000000015000
B0458063151362S11706179EA0099901061000000015000
B0458103151368S11706226EA0100601069000000015000
B0458143151416S11706209EA0101001069000000015000
B0458183151431S11706129EA0101101075000000015000
B0458223151388S11706055EA0102201086000000015000
B0458263151322S11706040EA0102501087000000015000
B0458303151281S11706081EA0103101093000000015000
B0458343151281S11706136EA0103001091000000015000
B0458383151321S11706164EA0103201092000000015000
B0458423151373S11706121EA0103001091000000015000
B0458463151374S11706029EA0103501099000000015000
B0458503151331S11705947EA0104801116000000015000
B0458543151265S11705909EA0105501116000000015000
B0458583151212S11705938EA0105801119000000015000
B0459023151218S11705992EA0106101120000000015000
B0459063151268S11705993EA0106501122000000015000
B0459103151288S11705913EA0105901116000000015000
B0459143151239S11705830EA0106101123000000015000
B0459183151178S11705759EA0106201122000000015000
B0459223151109S11705697EA0105101107000000015000
B0459263151023S11705672EA0103001079000000015000
B0459303150933S11705684EA0100401057000000015000
B0459343150846S11705723EA0099001044000000015000
B0459383150761S11705771EA0097501031000000015000
B0459423150675S11705822EA0096001017000000015000
B0459463150586S11705873EA0094300995000000000000
B0459503150498S11705922EA0092600985000000000000
B0459543150408S11705967EA0091600976000000000000
B0459583150319S11706010EA0091000970000000000000
B0500023150234S11706051EA0090200962000000000000
B0500063150148S11706091EA0089000944000000000000
B0500103150061S11706130EA0087000924000000000000
B0500143149973S11706168EA0085400912000000000000
B0500183149886S11706205EA0084400902000000000000
B0500223149801S11706242EA0084200902000000000000
B0500263149719S11706273EA0083900897000000000000
B0500303149636S11706303EA0083100887000000000000
B0500343149552S11706330EA0082200877000000000000
B0500383149466S11706355EA0081500868000000000000
B0500423149380S11706381EA0080600860000000000000
B0500463149295S11706408EA0079800849000000000000
B0500503149214S11706439EA0079400851000000000000
B0500543149139S11706472EA0079700850000000000000
B0500583149067S11706507EA0079700853000000000000
B0501023149000S11706538EA0080700860000000000000
B0501063148947S11706580EA0081300865000000000000
B0501103148931S11706634EA0081900872000000000000
B0501143148948S11706680EA0082600878000000000000
B0501183148987S11706699EA0083500891000000000000
B0501223149016S11706634EA0084600903000000000000
B0501263148982S11706547EA0085400915000000000000
B0501303148915S11706520EA0086100919000000000000
B0501343148879S11706556EA0086800925000000000000
B0501383148912S11706569EA0087400928000000000000
B0501423148941S11706503EA0088400941000000015000
B0501463148907S11706420EA0089200952000000015000
B0501503148838S11706387EA0089300952000000015000
B0501543148786S11706412EA0089700959000000015000
B0501583148782S11706454EA0090400962000000015000
B0502023148812S11706485EA0090000957000000015000
B0502063148859S11706490EA0089900955000000015000
B0502103148902S11706428EA0089900952000000015000
B0502143148879S11706337EA0089600949000000015000
B0502183148800S11706295EA0089000950000000015000
B0502223148718S11706283EA0089900961000000015000
B0502263148678S11706321EA0091300972000000015000
B0502303148700S11706357EA0091100966000000015000
B0502343148751S11706326EA0091500970000000015000
B0502383148748S11706234EA0092000976000000015000
B0502423148691S11706164EA0092900986000000015000
B0502463148621S11706147EA0093600991000000015000
B0502503148586S11706186EA0093400989000000015000
B0502543148603S11706230EA0093100987000000015000
B0502583148636S11706261EA0093200986000000015000
B0503023148678S11706282EA0093200986000000015000
B0503063148727S11706290EA0093500988000000015000
B0503103148782S11706291EA0093900986000000000000
B0503143148833S11706311EA0092400967000000000000
B0503183148850S11706365EA0090400950000000000000
B0503223148822S11706428EA0088900933000000000000
B0503263148766S11706481EA0086700913000000000000
B0503303148697S11706529EA0084500894000000000000
B0503343148621S11706573EA0083300883000000000000
B0503383148545S11706614EA0083600886000000000000
B0503423148470S11706647EA0082800876000000000000
B0503463148396S11706681EA0082400872000000000000
B0503503148324S11706723EA0081300860000000000000
B0503543148257S11706771EA0082200871000000000000
B0503583148224S11706833EA0083800899000000000000
B0504023148245S11706868EA0088100933000000000000
B0504063148279S11706818EA0089600942000000000000
B0504103148252S11706738EA0089900952000000000000
B0504143148184S11706731EA0091600982000000015000
B0504183148167S11706776EA0093100992000000015000
B0504223148209S11706783EA0093901001000000015000
B0504263148240S11706723EA0094901007000000015000
B0504303148220S11706634EA0095101012000000015000
B0504343148158S11706580EA0096601031000000015000
B0504383148105S11706594EA0098201046000000015000
B0504423148115S11706630EA0098701042000000015000
B0504463148161S11706607EA0099301054000000015000
B0504503148170S11706525EA0100501064000000015000
B0504543148116S11706460EA0101501078000000015000
B0504583148054S11706459EA0102401086000000015000
B0505023148028S11706506EA0102301085000000000000
B0505063148055S11706542EA0102601091000000000000
B0505103148099S11706508EA0103301096000000000000
B0505143148105S11706424EA0103901101000000000000
B0505183148064S11706338EA0104101105000000000000
B0505223147997S11706296EA0105001113000000015000
B0505263147949S11706328EA0105401115000000015000
B0505303147958S11706377EA0104501104000000015000
B0505343148007S11706411EA0103801101000000015000
B0505383148063S11706407EA0104301107000000000000
B0505423148081S11706324EA0104901110000000000000
B0505463148046S11706227EA0104701114000000015000
B0505503147977S11706190EA0107001147000000015000
B0505543147947S11706229EA0109001163000000015000
B0505583147979S11706252EA0109301163000000015000
B0506023148019S11706194EA0109001160000000015000
B0506063147997S11706105EA0109901173000000015000
B0506103147932S11706070EA0111001180000000015000
B0506143147885S11706097EA0111601188000000015000
B0506183147890S11706147EA0111701186000000015000
B0506223147936S11706155EA0111901194000000000000
B0506263147968S11706094EA0112901198000000000000
B0506303147947S11706004EA0112501197000000000000
B0506343147894S11705932EA0113601212000000015000
B0506383147832S11705931EA0114501220000000015000
B0506423147821S11705975EA0114501217000000015000
B0506463147851S11706017EA0113701215000000015000
B0506503147891S11706051EA0113801217000000000000
B0506543147936S11706075EA0115001227000000000000
B0506583147988S11706064EA0116501239000000000000
B0507023148002S11705982EA0117801250000000000000
B0507063147951S11705913EA0118201256000000000000
B0507103147886S11705908EA0119001262000000000000
B0507143147863S11705957EA0119201266000000000000
B0507183147897S11705979EA0120401278000000000000
B0507223147943S11705943EA0121101282000000000000
B0507263147945S11705853EA0121201280000000000000
B0507303147894S11705772EA0120801282000000000000
B0507343147832S11705704EA0121301289000000000000
B0507383147768S11705701EA0123401313000000000000
B0507423147773S11705743EA0124801315000000000000
B0507463147823S11705713EA0124801317000000015000
B0507503147833S11705628EA0125601329000000015000
B0507543147782S11705566EA0126401333000000015000
B0507583147719S11705558EA0125801322000000015000
B0508023147657S11705589EA0125501332000000015000
B0508063147607S11705628EA0126201336000000015000
B0508103147576S11705684EA0124401309000000015000
B0508143147527S11705750EA0121001277000000000000
B0508183147460S11705813EA0118301257000000000000
B0508223147383S11705869EA0116601240000000000000
B0508263147301S11705921EA0115701231000000000000
B0508303147219S11705969EA0114801217000000000000
B0508343147139S11706017EA0113501206000000000000
B0508383147057S11706062EA0112501195000000000000
B0508423146976S11706110EA0111901190000000000000
B0508463146900S11706159EA0111701193000000000000
B0508503146827S11706203EA0112401199000000000000
B0508543146772S11706257EA0113701210000000000000
B0508583146728S11706318EA0112501195000000000000
B0509023146671S11706381EA0110901173000000000000
B0509063146603S11706442EA0109201158000000000000
B0509103146530S11706500EA0107801149000000000000
B0509143146456S11706551EA0108001156000000000000
B0509183146386S11706601EA0108901162000000000000
B0509223146333S11706660EA0109601168000000000000
B0509263146289S11706725EA0108101146000000000000
B0509303146227S11706786EA0106101128000000000000
B0509343146157S11706838EA0104701115000000000000
B0509383146083S11706887EA0104101107000000000000
B0509423146010S11706937EA0102901098000000000000
B0509463145938S11706985EA0103001100000000000000
B0509503145865S11707031EA0102701094000000000000
B0509543145789S11707078EA0102101088000000000000
B0509583145713S11707122EA0101601084000000000000
B0510023145633S11707166EA0100801077000000000000
B0510063145557S11707210EA0100501076000000000000
B0510103145483S11707251EA0100201072000000000000
B0510143145411S11707290EA0099501064000000000000
B0510183145337S11707327EA0098701054000000000000
B0510223145264S11707365EA0097701040000000000000
B0510263145189S11707399EA0096401027000000000000
B0510303145112S11707434EA0095201017000000000000
B0510343145034S11707469EA0093901003000000000000
B0510383144955S11707503EA0092500990000000000000
B0510423144875S11707535EA0091500980000000000000
B0510463144799S11707569EA0090500969000000000000
B0510503144725S11707599EA0090000961000000000000
B0510543144649S11707631EA0088700947000000000000
B0510583144574S11707664EA0087700940000000000000
B0511023144501S11707699EA0087000932000000000000
B0511063144427S11707734EA0085500916000000000000
B0511103144353S11707773EA0085200917000000000000
B0511143144284S11707808EA0085900925000000000000
B0511183144232S11707852EA0087700942000000000000
B0511223144245S11707895EA0089100948000000000000
B0511263144292S11707860EA0087300925000000000000
B0511303144276S11707764EA0085100908000000015000
B0511343144233S11707673EA0084500905000000000000
B0511383144171S11707607EA0084200904000000000000
B0511423144098S11707565EA0084200908000000000000
B0511463144024S11707535EA0084900910000000000000
B0511503143951S11707516EA0084700906000000000000
B0511543143874S11707505EA0084300902000000000000
B0511583143795S11707508EA0083300893000000000000
B0512023143717S11707518EA0081700870000000000000
B0512063143638S11707544EA0079200848000000000000
B0512103143560S11707579EA0077700831000000000000
B0512143143484S11707618EA0076500822000000000000
B0512183143412S11707656EA0076300822000000000000
B0512223143343S11707694EA0075800814000000000000
B0512263143274S11707735EA0075100810000000000000
B0512303143224S11707787EA0076300828000000000000
B0512343143262S11707807EA0078900846000000000000
B0512383143289S11707739EA0078800843000000000000
B0512423143245S11707668EA0078600844000000000000
B0512463143184S11707672EA0078800844000000000000
B0512503143192S11707715EA0078800844000000000000
B0512543143248S11707690EA0078900846000000000000
B0512583143245S11707607EA0079900858000000000000
B0513023143182S11707565EA0079900855000000000000
B0513063143143S11707599EA0079900855000000000000
B0513103143180S11707618EA0080200861000000000000
B0513143143219S11707557EA0080600867000000000000
B0513183143189S11707479EA0081500877000000000000
B0513223143122S11707464EA0081500870000000000000
B0513263143097S11707512EA0081000868000000000000
B0513303143131S11707552EA0081000864000000000000
B0513343143180S11707585EA0080900868000000000000
B0513383143235S11707613EA0081200871000000000000
B0513423143284S11707576EA0082200884000000000000
B0513463143257S11707498EA0082900885000000000000
B0513503143187S11707472EA0082200874000000000000
B0513543143130S11707514EA0081100865000000000000
B0513583143100S11707581EA0081200872000000000000
B0514023143132S11707618EA0082800882000000000000
B0514063143176S11707583EA0082500877000000000000
B0514103143162S11707501EA0081600871000000000000
B0514143143101S11707439EA0081200869000000000000
B0514183143036S11707435EA0081900879000000000000
B0514223143029S11707482EA0082800881000000000000
B0514263143067S11707514EA0082000875000000000000
B0514303143114S11707535EA0082200876000000000000
B0514343143163S11707551EA0081700869000000000000
B0514383143221S11707550EA0081200865000000000000
B0514423143278S11707530EA0081300870000000000000
B0514463143314S11707474EA0082400886000000000000
B0514503143287S11707408EA0083700896000000000000
B0514543143226S11707403EA0084000895000000000000
B0514583143209S11707455EA0083800896000000000000
B0515023143247S11707469EA0084100897000000000000
B0515063143282S11707407EA0083800898000000000000
B0515103143257S11707327EA0084700912000000015000
B0515143143198S11707335EA0085600916000000015000
B0515183143208S11707386EA0085300917000000015000
B0515223143256S11707357EA0085900924000000000000
B0515263143254S11707277EA0086800934000000015000
B0515303143195S11707235EA0088000946000000015000
B0515343143145S11707267EA0088800954000000015000
B0515383143156S11707313EA0089700961000000015000
B0515423143200S11707293EA0090400970000000000000
B0515463143213S11707222EA0091200976000000015000
B0515503143169S11707160EA0092000989000000015000
B0515543143107S11707162EA0092800994000000015000
B0515583143091S11707212EA0093300998000000015000
B0516023143131S11707226EA0093601003000000015000
B0516063143159S11707162EA0094801015000000015000
B0516103143122S11707089EA0095201019000000015000
B0516143143057S11707080EA0096301031000000015000
B0516183143027S11707126EA0096901034000000015000
B0516223143055S11707163EA0097101036000000000000
B0516263143100S11707128EA0098201050000000000000
B0516303143093S11707046EA0099101058000000015000
B0516343143032S11707001EA0099601063000000015000
B0516383142976S11707026EA0100201069000000015000
B0516423142975S11707076EA0100501070000000000000
B0516463143022S11707092EA0100001066000000000000
B0516503143079S11707095EA0100201066000000000000
B0516543143089S11707141EA0101601086000000000000
B0516583143039S11707165EA0102701089000000000000
B0517023142968S11707132EA0101401075000000000000
B0517063142898S11707076EA0100601071000000000000
B0517103142824S11707030EA0100101063000000000000
B0517143142742S11707026EA0098001041000000000000
B0517183142664S11707066EA0095101009000000000000
B0517223142590S11707126EA0092600984000000000000
B0517263142519S11707195EA0090500970000000000000
B0517303142450S11707261EA0089600964000000000000
B0517343142381S11707323EA0088900953000000000000
B0517383142316S11707386EA0087700943000000000000
B0517423142255S11707448EA0086600933000000000000
B0517463142195S11707508EA0086200930000000000000
B0517503142139S11707565EA0086200928000000000000
B0517543142088S11707621EA0086200930000000000000
B0517583142040S11707673EA0086100928000000000000
B0518023141993S11707725EA0086100930000000000000
B0518063141950S11707778EA0086900941000000000000
B0518103141949S11707830EA0088700960000000000000
B0518143142004S11707810EA0090100969000000000000
B0518183142001S11707720EA0091200985000000000000
B0518223141939S11707678EA0092200993000000000000
B0518263141897S11707704EA0093501004000000000000
B0518303141926S11707733EA0094101010000000000000
B0518343141976S11707693EA0095101024000000000000
B0518383141974S11707609EA0096801039000000000000
B0518423141918S11707561EA0097301041000000000000
B0518463141874S11707585EA0097901048000000000000
B0518503141897S11707621EA0098401052000000000000
B0518543141952S11707592EA0099801071000000000000
B0518583141960S11707509EA0101901090000000000000
B0519023141910S11707448EA0102201090000000000000
B0519063141852S11707449EA0103001100000000000000
B0519103141843S11707487EA0104301110000000000000
B0519143141887S11707500EA0104201110000000000000
B0519183141923S11707442EA0105501131000000000000
B0519223141898S11707369EA0107001141000000000000
B0519263141839S11707349EA0107301146000000000000
B0519303141815S11707381EA0108201157000000000000
B0519343141843S11707404EA0108401149000000000000
B0519383141896S11707374EA0108401157000000000000
B0519423141928S11707303EA0109601169000000000000
B0519463141908S11707223EA0110401169000000000000
B0519503141845S11707163EA0109701167000000000000
B0519543141783S11707145EA0111001179000000000000
B0519583141761S11707184EA0111501179000000000000
B0520023141796S11707217EA0111401181000000000000
B0520063141837S11707163EA0112201193000000000000
B0520103141798S11707091EA0113801205000000000000
B0520143141745S11707093EA0114401211000000000000
B0520183141735S11707136EA0115301222000000000000
B0520223141770S11707161EA0116101227000000000000
B0520263141815S11707118EA0116601233000000000000
B0520303141811S11707036EA0117501241000000000000
B0520343141757S11706984EA0116601231000000015000
B0520383141697S11707006EA0117101239000000015000
B0520423141684S11707054EA0118201257000000000000
B0520463141726S11707071EA0119201262000000000000
B0520503141759S11707010EA0119101256000000000000
B0520543141719S11706935EA0119401263000000015000
B0520583141658S11706929EA0119801269000000015000
B0521023141620S11706968EA0121001281000000015000
B0521063141648S11707004EA0121501279000000000000
B0521103141693S11706961EA0121901291000000000000
B0521143141679S11706881EA0122901292000000000000
B0521183141616S11706861EA0122301288000000000000
B0521223141571S11706906EA0122401295000000000000
B0521263141547S11706962EA0123801315000000000000
B0521303141571S11706993EA0126001333000000000000
B0521343141612S11706953EA0126801339000000000000
B0521383141602S11706874EA0127401349000000000000
B0521423141540S11706844EA0127801349000000000000
B0521463141489S11706876EA0128401361000000000000
B0521503141484S11706920EA0130901385000000000000
B0521543141528S11706914EA0131701386000000000000
B0521583141547S11706840EA0132901405000000000000
B0522023141506S11706779EA0134201414000000000000
B0522063141442S11706776EA0134401420000000000000
B0522103141419S11706818EA0136101444000000000000
B0522143141450S11706842EA0137901454000000000000
B0522183141495S11706799EA0138401459000000000000
B0522223141486S11706720EA0139301472000000000000
B0522263141428S11706684EA0141001487000000000000
B0522303141381S11706712EA0141801499000000000000
B0522343141394S11706755EA0143301522000000000000
B0522383141438S11706742EA0145001533000000000000
B0522423141453S11706669EA0145201533000000000000
B0522463141408S11706607EA0146001546000000000000
B0522503141349S11706614EA0147301558000000000000
B0522543141324S11706656EA0148801575000000000000
B0522583141351S11706685EA0150001586000000000000
B0523023141399S11706659EA0150401590000000000000
B0523063141410S11706588EA0151601601000000000000
B0523103141367S11706528EA0152301606000000000000
B0523143141304S11706523EA0152701609000000000000
B0523183141274S11706569EA0153301617000000000000
B0523223141289S11706620EA0154601630000000000000
B0523263141336S11706611EA0155401633000000000000
B0523303141347S11706537EA0155201634000000000000
B0523343141298S11706477EA0156001642000000000000
B0523383141238S11706489EA0156401643000000000000
B0523423141195S11706542EA0155701635000000000000
B0523463141160S11706614EA0155101632000000000000
B0523503141128S11706693EA0153601605000000000000
B0523543141094S11706783EA0150201574000000000000
B0523583141057S11706877EA0147701557000000000000
B0524023141022S11706970EA0145801535000000000000
B0524063140990S11707059EA0145101538000000000000
B0524103140959S11707144EA0146001550000000000000
B0524143140930S11707221EA0147901565000000000000
B0524183140903S11707293EA0148601572000000000000
B0524223140877S11707361EA0150001588000000000000
B0524263140853S11707423EA0150401583000000000000
B0524303140829S11707494EA0148601565000000000000
B0524343140803S11707570EA0148601573000000000000
B0524383140787S11707642EA0150301591000000000000
B0524423140814S11707686EA0153101621000000000000
B0524463140860S11707652EA0155101628000000000000
B0524503140870S11707561EA0154501625000000000000
B0524543140825S11707475EA0154501631000000000000
B0524583140757S11707407EA0155401643000000000000
B0525023140686S11707370EA0157001654000000000000
B0525063140636S11707404EA0157301653000000000000
B0525103140648S11707452EA0156601646000000000000
B0525143140699S11707469EA0156201644000000000000
B0525183140754S11707479EA0156301644000000000000
B0525223140800S11707520EA0152701601000000000000
B0525263140806S11707611EA0149001575000000000000
B0525303140795S11707711EA0148101570000000000000
B0525343140769S11707813EA0147801562000000000000
B0525383140734S11707915EA0146701554000000000000
B0525423140693S11708016EA0145801545000000000000
B0525463140648S11708118EA0144701530000000000000
B0525503140596S11708216EA0143701529000000000000
B0525543140546S11708305EA0144401535000000000000
B0525583140492S11708384EA0143901520000000000000
B0526023140433S11708457EA0143101515000000000000
B0526063140376S11708523EA0142401499000000000000
B0526103140319S11708600EA0139701475000000000000
B0526143140262S11708681EA0138301465000000000000
B0526183140202S11708759EA0138101466000000000000
B0526223140145S11708830EA0138201472000000000000
B0526263140097S11708895EA0139501481000000000000
B0526303140050S11708956EA0139501470000000000000
B0526343139998S11709020EA0137901456000000000000
B0526383139946S11709089EA0137301455000000000000
B0526423139895S11709158EA0137001451000000000000
B0526463139843S11709223EA0136301441000000000000
B0526503139789S11709288EA0135101430000000000000
B0526543139733S11709353EA0134301422000000000000
B0526583139675S11709420EA0134101426000000000000
B0527023139620S11709485EA0135301441000000000000
B0527063139600S11709544EA0138801473000000000000
B0527103139620S11709591EA0139901468000000000000
B0527143139621S11709657EA0137801446000000000000
B0527183139592S11709735EA0136701453000000000000
B0527223139574S11709799EA0139701487000000000000
B0527263139610S11709812EA0142801505000000000000
B0527303139642S11709752EA0142301493000000000000
B0527343139622S11709653EA0141201493000000000000
B0527383139555S11709594EA0143001505000000000000
B0527423139484S11709589EA0144601523000000000000
B0527463139438S11709617EA0144901530000000000000
B0527503139428S11709657EA0145101528000000000000
B0527543139461S11709670EA0144701521000000000000
B0527583139493S11709614EA0143701511000000000000
B0528023139456S11709529EA0141801495000000000000
B0528063139376S11709519EA0141201493000000000000
B0528103139313S11709555EA0140501488000000000000
B0528143139254S11709602EA0140401484000000000000
B0528183139201S11709654EA0140401491000000000000
B0528223139152S11709702EA0141901502000000000000
B0528263139113S11709749EA0143001514000000000000
B0528303139085S11709796EA0144101519000000000000
B0528343139068S11709847EA0144001519000000000000
B0528383139054S11709904EA0144001518000000000000
B0528423139044S11709961EA0144101519000000000000
B0528463139035S11710021EA0143101504000000000000
B0528503139025S11710090EA0140601476000000000000
B0528543139006S11710169EA0137901455000000000000
B0528583138972S11710251EA0136501442000000000000
B0529023138927S11710333EA0135401427000000000000
B0529063138871S11710413EA0133501412000000000000
B0529103138811S11710493EA0132801404000000000000
B0529143138754S11710572EA0132001396000000000000
B0529183138698S11710650EA0131401391000000000000
B0529223138643S11710723EA0130701385000000000000
B0529263138587S11710792EA0130601385000000000000
B0529303138542S11710858EA0131201391000000000000
B0529343138504S11710926EA0130301369000000000000
B0529383138459S11710996EA0127601355000000000000
B0529423138411S11711065EA0126301334000000000000
B0529463138356S11711138EA0124001311000000000000
B0529503138299S11711214EA0121801292000000000000
B0529543138240S11711290EA0120401280000000000000
B0529583138184S11711366EA0119801278000000000000
B0530023138130S11711439EA0120001277000000000000
B0530063138075S11711513EA0118501259000000000000
B0530103138019S11711593EA0117701257000000000000
B0530143137965S11711668EA0117701251000000000000
B0530183137910S11711742EA0117501257000000000000
B0530223137859S11711812EA0117601252000000000000
B0530263137809S11711882EA0116401237000000000000
B0530303137761S11711957EA0114801221000000000000
B0530343137709S11712032EA0113401207000000000000
B0530383137655S11712106EA0112101197000000000000
B0530423137602S11712180EA0111601192000000000000
B0530463137551S11712253EA0111401187000000000000
B0530503137502S11712327EA0110901184000000000000
B0530543137456S11712399EA0112101208000000000000
B0530583137419S11712456EA0115301233000000000000
B0531023137384S11712509EA0117001247000000000000
B0531063137347S11712560EA0119101270000000000000
B0531103137312S11712608EA0120801277000000000000
B0531143137277S11712664EA0120601279000000000000
B0531183137246S11712725EA0120401275000000000000
B0531223137220S11712791EA0119701268000000000000
B0531263137191S11712860EA0119001263000000000000
B0531303137166S11712930EA0118501254000000000000
B0531343137164S11712999EA0118601264000000000000
B0531383137191S11713041EA0120101275000000000000
B0531423137238S11713047EA0120301271000000000000
B0531463137291S11713019EA0119701263000000000000
B0531503137334S11712947EA0118601253000000000000
B0531543137355S11712851EA0117601248000000000000
B0531583137368S11712747EA0116801239000000000000
B0532023137381S11712639EA0115501226000000000000
B0532063137395S11712530EA0114601218000000000000
B0532103137412S11712419EA0113901212000000000000
B0532143137421S11712314EA0115301223000000000000
B0532183137423S11712213EA0115301220000000000000
B0532223137417S11712107EA0114901216000000000000
B0532263137442S11712012EA0115301220000000000000
B0532303137494S11711967EA0116201229000000000000
B0532343137549S11711963EA0115201207000000000000
B0532383137607S11711984EA0112101175000000000000
B0532423137671S11712020EA0109501158000000000000
B0532463137735S11712057EA0108701149000000000000
B0532503137800S11712094EA0108001143000000000000
B0532543137867S11712131EA0106601126000000000000
B0532583137937S11712172EA0105001115000000000000
B0533023138006S11712214EA0104401109000000000000
B0533063138076S11712256EA0103801101000000000000
B0533103138147S11712296EA0103001094000000000000
B0533143138216S11712335EA0102401087000000000000
B0533183138283S11712375EA0101201076000000000000
B0533223138340S11712409EA0103401110000000000000
B0533263138379S11712439EA0106401131000000000000
B0533303138412S11712470EA0106901125000000000000
B0533343138448S11712505EA0105601115000000000000
B0533383138479S11712549EA0105401116000000000000
B0533423138512S11712594EA0104601104000000000000
B0533463138548S11712636EA0104301101000000000000
B0533503138593S11712674EA0103401093000000000000
B0533543138639S11712711EA0103001089000000000000
B0533583138691S11712737EA0102601088000000000000
B0534023138743S11712765EA0102401084000000000000
B0534063138798S11712794EA0102401085000000000000
B0534103138853S11712817EA0103301099000000000000
B0534143138903S11712837EA0104901113000000000000
B0534183138957S11712825EA0106401128000000000000
B0534223138958S11712742EA0108201150000000000000
B0534263138895S11712700EA0109301166000000000000
B0534303138859S11712733EA0111001182000000000000
B0534343138881S11712764EA0112301191000000000000
B0534383138931S11712738EA0112901200000000000000
B0534423138941S11712659EA0115001225000000000000
B0534463138890S11712597EA0117101243000000000000
B0534503138836S11712608EA0118301253000000000000
B0534543138833S11712652EA0119201263000000000000
B0534583138877S11712653EA0120001271000000000000
B0535023138907S11712583EA0121401289000000000000
B0535063138873S11712508EA0123701311000000000000
B0535103138815S11712504EA0125001322000000000000
B0535143138799S11712549EA0125501327000000000000
B0535183138834S11712573EA0126801342000000000000
B0535223138875S11712529EA0128401357000000000000
B0535263138854S11712449EA0129701374000000000000
B0535303138791S11712426EA0130901388000000000000
B0535343138751S11712458EA0132401400000000000000
B0535383138763S11712496EA0133201408000000000000
B0535423138808S11712486EA0134001418000000000000
B0535463138833S11712414EA0135501437000000000000
B0535503138790S11712347EA0137401451000000000000
B0535543138730S11712347EA0138801466000000000000
B0535583138712S11712386EA0140101476000000000000
B0536023138742S11712408EA0140601481000000000000
B0536063138785S11712375EA0141601492000000000000
B0536103138782S11712292EA0142401503000000000000
B0536143138728S11712240EA0143401514000000000000
B0536183138673S11712254EA0144201519000000000000
B0536223138665S11712300EA0144501523000000000000
B0536263138697S11712331EA0145101530000000000000
B0536303138745S11712324EA0146601549000000000000
B0536343138769S11712261EA0148201560000000000000
B0536383138739S11712184EA0148601566000000000000
B0536423138681S11712161EA0150601587000000000000
B0536463138643S11712189EA0151601593000000000000
B0536503138647S11712235EA0152401605000000000000
B0536543138686S11712244EA0153901625000000000000
B0536583138720S11712194EA0155101627000000000000
B0537023138707S11712110EA0154501630000000000000
B0537063138647S11712058EA0155701649000000000000
B0537103138587S11712062EA0158001665000000000000
B0537143138555S11712101EA0158901674000000000000
B0537183138565S11712144EA0159801683000000000000
B0537223138606S11712142EA0161201698000000000000
B0537263138628S11712081EA0162101704000000000000
B0537303138598S11712002EA0162401715000000000000
B0537343138534S11711970EA0164501735000000000000
B0537383138482S11711988EA0165701746000000000000
B0537423138463S11712031EA0166301748000000000000
B0537463138487S11712059EA0166601752000000000000
B0537503138533S11712038EA0167201756000000000000
B0537543138561S11711973EA0167401762000000000000
B0537583138538S11711897EA0168901778000000000000
B0538023138473S11711866EA0169601784000000000000
B0538063138414S11711892EA0170401792000000000000
B0538103138407S11711944EA0171201798000000000000
B0538143138444S11711957EA0172801811000000000000
B0538183138482S11711912EA0172501806000000000000
B0538223138485S11711830EA0172701814000000000000
B0538263138435S11711773EA0174101826000000000000
B0538303138372S11711776EA0174901832000000000000
B0538343138342S11711821EA0175501839000000000000
B0538383138364S11711858EA0176001844000000000000
B0538423138407S11711837EA0176501847000000000000
B0538463138425S11711762EA0176101842000000000000
B0538503138392S11711682EA0176401854000000000000
B0538543138327S11711659EA0177801866000000000000
B0538583138275S11711687EA0178501871000000000000
B0539023138270S11711734EA0179001874000000000000
B0539063138310S11711746EA0179201873000000000000
B0539103138342S11711684EA0179301876000000000000
B0539143138305S11711607EA0179601881000000000000
B0539183138234S11711599EA0179901884000000000000
B0539223138191S11711646EA0180201888000000000000
B0539263138203S11711699EA0180301889000000000000
B0539303138249S11711733EA0178701867000000000000
B0539343138321S11711750EA0175801833000000000000
B0539383138408S11711758EA0173101815000000000000
B0539423138500S11711764EA0171601804000000000000
B0539463138594S11711772EA0170201786000000000000
B0539503138690S11711776EA0168201769000000000000
B0539543138785S11711776EA0166901757000000000000
B0539583138879S11711776EA0166101752000000000000
B0540023138964S11711776EA0167001760000000000000
B0540063139044S11711773EA0167801766000000000000
B0540103139116S11711775EA0167801761000000000000
B0540143139192S11711773EA0166401743000000000000
B0540183139270S11711771EA0165301733000000000000
B0540223139348S11711767EA0164301720000000000000
B0540263139425S11711765EA0163701717000000000000
B0540303139499S11711760EA0164101722000000000000
B0540343139571S11711758EA0163601713000000000000
B0540383139648S11711758EA0162901707000000000000
B0540423139726S11711755EA0161701693000000000000
B0540463139805S11711752EA0161201688000000000000
B0540503139882S11711745EA0160301681000000000000
B0540543139959S11711733EA0159701668000000000000
B0540583140038S11711725EA0158301659000000000000
B0541023140117S11711716EA0157601645000000000000
B0541063140199S11711710EA0156101634000000000000
B0541103140279S11711710EA0154901627000000000000
B0541143140358S11711710EA0154401623000000000000
B0541183140435S11711710EA0154501623000000000000
B0541223140506S11711711EA0155701635000000000000
B0541263140574S11711715EA0155701630000000000000
B0541303140648S11711719EA0154701617000000000000
B0541343140726S11711726EA0153601612000000000000
B0541383140804S11711737EA0152801597000000000000
B0541423140884S11711755EA0150901582000000000000
B0541463140965S11711777EA0149901579000000000000
B0541503141042S11711797EA0150301581000000000000
B0541543141115S11711811EA0150801587000000000000
B0541583141187S11711825EA0150401577000000000000
B0542023141261S11711836EA0149301568000000000000
B0542063141337S11711843EA0148901564000000000000
B0542103141411S11711850EA0148501553000000000000
B0542143141486S11711862EA0146901539000000000000
B0542183141566S11711876EA0145301524000000000000
B0542223141646S11711893EA0144101513000000000000
B0542263141724S11711916EA0143201507000000000000
B0542303141793S11711951EA0142801503000000000000
B0542343141861S11711985EA0141501486000000000000
B0542383141931S11712019EA0140101473000000000000
B0542423142002S11712050EA0139501466000000000000
B0542463142071S11712080EA0138401458000000000000
B0542503142139S11712110EA0138001451000000000000
B0542543142208S11712139EA0137101442000000000000
B0542583142281S11712157EA0136001432000000000000
B0543023142357S11712168EA0135401427000000000000
B0543063142437S11712175EA0134301413000000000000
B0543103142519S11712184EA0133401409000000000000
B0543143142597S11712200EA0132801398000000000000
B0543183142677S11712217EA0131401385000000000000
B0543223142759S11712235EA0129501368000000000000
B0543263142841S11712250EA0129001370000000000000
B0543303142918S11712259EA0129801372000000000000
B0543343142990S11712262EA0129901369000000000000
B0543383143066S11712263EA0128401346000000000000
B0543423143144S11712263EA0126601338000000000000
B0543463143218S11712262EA0127801357000000000000
B0543503143280S11712258EA0129601365000000000000
B0543543143335S11712270EA0130201369000000000000
B0543583143373S11712302EA0130801375000000000000
B0544023143397S11712345EA0131101372000000000000
B0544063143422S11712392EA0129801359000000000000
B0544103143448S11712443EA0128901354000000000000
B0544143143475S11712491EA0128001344000000000000
B0544183143508S11712540EA0126301322000000000000
B0544223143540S11712596EA0124301307000000000000
B0544263143587S11712642EA0122601289000000000000
B0544303143647S11712678EA0120601270000000000000
B0544343143717S11712707EA0119201259000000000000
B0544383143791S11712724EA0119101263000000000000
B0544423143863S11712747EA0119301260000000000000
B0544463143929S11712781EA0118301249000000000000
B0544503143998S11712815EA0117201239000000000000
B0544543144067S11712847EA0116201226000000000000
B0544583144141S11712880EA0114501209000000000000
B0545023144212S11712908EA0114401217000000000000
B0545063144276S11712942EA0115101220000000000000
B0545103144329S11712986EA0114801217000000000000
B0545143144384S11713029EA0115101220000000000000
B0545183144432S11713080EA0115401225000000000000
B0545223144472S11713130EA0116601233000000000000
B0545263144510S11713181EA0117001235000000000000
B0545303144545S11713232EA0116901231000000000000
B0545343144580S11713284EA0116201226000000000000
B0545383144625S11713322EA0117101241000000000000
B0545423144669S11713272EA0119001256000000000000
B0545463144647S11713188EA0119001254000000000000
B0545503144579S11713154EA0118901254000000000000
B0545543144534S11713181EA0118701250000000000000
B0545583144531S11713237EA0118101245000000000000
B0546023144540S11713297EA0118501255000000000000
B0546063144554S11713353EA0120201271000000000000
B0546103144600S11713338EA0122401291000000000000
B0546143144604S11713246EA0122701295000000000000
B0546183144550S11713184EA0123601309000000000000
B0546223144489S11713182EA0124601316000000000000
B0546263144459S11713224EA0125001320000000000000
B0546303144482S11713258EA0125801329000000000000
B0546343144527S11713228EA0126901337000000000000
B0546383144539S11713142EA0127401342000000000000
B0546423144500S11713063EA0128201354000000000000
B0546463144439S11713046EA0129401363000000000000
B0546503144401S11713084EA0129301362000000000000
B0546543144407S11713130EA0129701366000000000000
B0546583144452S11713128EA0131101381000000000000
B0547023144487S11713064EA0131901386000000000000
B0547063144495S11712976EA0132401394000000000000
B0547103144456S11712899EA0133101404000000000000
B0547143144396S11712877EA0133901407000000000000
B0547183144363S11712912EA0133801408000000000000
B0547223144368S11712959EA0134101410000000000000
B0547263144385S11713004EA0134401414000000000000
B0547303144409S11713050EA0134701419000000000000
B0547343144433S11713095EA0134301411000000000000
B0547383144462S11713146EA0133001397000000000000
B0547423144496S11713201EA0130801373000000000000
B0547463144544S11713255EA0128301346000000000000
B0547503144604S11713303EA0126101328000000000000
B0547543144671S11713338EA0124601312000000000000
B0547583144747S11713364EA0123401305000000000000
B0548023144821S11713381EA0123301305000000000000
B0548063144895S11713394EA0122601294000000000000
B0548103144972S11713403EA0121701288000000000000
B0548143145048S11713409EA0121501285000000000000
B0548183145126S11713410EA0120901278000000000000
B0548223145204S11713411EA0120201267000000000000
B0548263145285S11713407EA0118901255000000000000
B0548303145367S11713401EA0117801243000000000000
B0548343145449S11713393EA0116501229000000000000
B0548383145535S11713381EA0115401220000000000000
B0548423145619S11713371EA0114901217000000000000
B0548463145693S11713381EA0114601208000000000000
B0548503145762S11713407EA0112801190000000000000
B0548543145836S11713428EA0111301169000000000000
B0548583145917S11713440EA0110101167000000000000
B0549023145987S11713467EA0110401167000000000000
B0549063146049S11713507EA0109901161000000000000
B0549103146105S11713548EA0109701167000000000000
B0549143146156S11713580EA0111001176000000000000
B0549183146200S11713615EA0111001174000000000000
B0549223146234S11713658EA0111001172000000000000
B0549263146263S11713708EA0110501170000000000000
B0549303146291S11713756EA0110501167000000000000
B0549343146318S11713809EA0109301153000000000000
B0549383146343S11713865EA0108601152000000000000
B0549423146374S11713917EA0108501148000000000000
B0549463146411S11713961EA0108601151000000000000
B0549503146448S11714004EA0109401160000000000000
B0549543146499S11713995EA0110901179000000000000
B0549583146513S11713914EA0113401201000000000000
B0550023146465S11713839EA0114201210000000000000
B0550063146399S11713830EA0115001218000000000000
B0550103146373S11713875EA0115201219000000000000
B0550143146404S11713908EA0116101230000000000000
B0550183146454S11713870EA0117401245000000000000
B0550223146454S11713783EA0118901259000000000000
B0550263146393S11713726EA0119901271000000000000
B0550303146334S11713741EA0120601277000000000000
B0550343146335S11713790EA0121401288000000000000
B0550383146378S11713790EA0122801304000000000000
B0550423146404S11713722EA0124301316000000000000
B0550463146372S11713641EA0125301326000000000000
B0550503146307S11713608EA0125901331000000000000
B0550543146257S11713639EA0126301339000000000000
B0550583146253S11713684EA0127601353000000000000
B0551023146290S11713682EA0129101366000000000000
B0551063146321S11713617EA0129501369000000000000
B0551103146300S11713536EA0130401379000000000000
B0551143146233S11713498EA0130701379000000000000
B0551183146175S11713530EA0130401379000000000000
B0551223146173S11713575EA0131901395000000000000
B0551263146216S11713562EA0132801400000000000000
B0551303146231S11713479EA0133301411000000000000
B0551343146177S11713416EA0134801428000000000000
B0551383146121S11713432EA0135301425000000000000
B0551423146116S11713479EA0135301431000000000000
B0551463146157S11713480EA0136601443000000000000
B0551503146188S11713414EA0138101456000000000000
B0551543146164S11713329EA0138701463000000000000
B0551583146097S11713294EA0139401470000000000000
B0552023146047S11713322EA0139801473000000000000
B0552063146051S11713359EA0140401479000000000000
B0552103146096S11713351EA0140901485000000000000
B0552143146118S11713279EA0142301500000000000000
B0552183146075S11713203EA0142601503000000000000
B0552223146006S11713193EA0143201509000000000000
B0552263145967S11713228EA0143501510000000000000
B0552303145974S11713271EA0143601514000000000000
B0552343146009S11713296EA0144101519000000000000
B0552383146052S11713268EA0145401535000000000000
B0552423146053S11713185EA0146801551000000000000
B0552463145996S11713127EA0148201562000000000000
B0552503145927S11713129EA0148101559000000000000
B0552543145893S11713179EA0148201562000000000000
B0552583145912S11713218EA0148601565000000000000
B0553023145958S11713206EA0149601581000000000000
B0553063145971S11713133EA0151801600000000000000
B0553103145923S11713063EA0153201612000000000000
B0553143145854S11713058EA0153701616000000000000
B0553183145824S11713102EA0153801617000000000000
B0553223145844S11713138EA0154001620000000000000
B0553263145891S11713140EA0154701631000000000000
B0553303145927S11713086EA0156501651000000000000
B0553343145892S11713008EA0157901665000000000000
B0553383145822S11712997EA0158901672000000000000
B0553423145793S11713041EA0159701680000000000000
B0553463145821S11713067EA0161001694000000000000
B0553503145861S11713033EA0162901717000000000000
B0553543145862S11712960EA0165201737000000000000
B0553583145818S11712895EA0165501735000000000000
B0554023145746S11712883EA0164901729000000000000
B0554063145700S11712928EA0165401741000000000000
B0554103145697S11712978EA0167001754000000000000
B0554143145732S11712991EA0168601770000000000000
B0554183145758S11712929EA0169501777000000000000
B0554223145717S11712850EA0170001788000000000000
B0554263145645S11712831EA0171401802000000000000
B0554303145602S11712870EA0172201805000000000000
B0554343145611S11712915EA0172601811000000000000
B0554383145654S11712915EA0173801824000000000000
B0554423145688S11712861EA0175201837000000000000
B0554463145674S11712779EA0176601851000000000000
B0554503145609S11712734EA0177001854000000000000
B0554543145540S11712751EA0177401862000000000000
B0554583145509S11712800EA0178801871000000000000
B0555023145519S11712844EA0179501880000000000000
B0555063145558S11712854EA0179901879000000000000
B0555103145602S11712815EA0179701875000000000000
B0555143145654S11712776EA0177801849000000000000
B0555183145726S11712757EA0175501830000000000000
B0555223145802S11712755EA0173301811000000000000
B0555263145883S11712765EA0171901798000000000000
B0555303145965S11712778EA0170401784000000000000
B0555343146047S11712794EA0169001772000000000000
B0555383146130S11712811EA0168201768000000000000
B0555423146209S11712826EA0168201764000000000000
B0555463146289S11712839EA0167401752000000000000
B0555503146365S11712852EA0166601746000000000000
B0555543146442S11712863EA0165701737000000000000
B0555583146517S11712873EA0164801727000000000000
B0556023146593S11712886EA0163901714000000000000
B0556063146669S11712900EA0162201699000000000000
B0556103146747S11712909EA0160801684000000000000
B0556143146827S11712913EA0159501672000000000000
B0556183146906S11712915EA0158301658000000000000
B0556223146987S11712915EA0157101648000000000000
B0556263147066S11712911EA0156601644000000000000
B0556303147145S11712904EA0156501643000000000000
B0556343147223S11712898EA0156801652000000000000
B0556383147288S11712903EA0158301655000000000000
B0556423147345S11712929EA0158401663000000000000
B0556463147390S11712965EA0159801678000000000000
B0556503147422S11713012EA0161101680000000000000
B0556543147464S11713059EA0159201667000000000000
B0556583147504S11713102EA0159301667000000000000
B0557023147547S11713143EA0158501659000000000000
B0557063147590S11713190EA0157401645000000000000
B0557103147631S11713245EA0155701625000000000000
B0557143147665S11713311EA0154401618000000000000
B0557183147702S11713376EA0153701604000000000000
B0557223147759S11713426EA0151601581000000000000
B0557263147832S11713461EA0149101562000000000000
B0557303147910S11713489EA0147801549000000000000
B0557343147988S11713513EA0146801541000000000000
B0557383148064S11713528EA0146601542000000000000
B0557423148140S11713537EA0146501539000000000000
B0557463148215S11713546EA0145601528000000000000
B0557503148291S11713558EA0144401517000000000000
B0557543148366S11713569EA0143401503000000000000
B0557583148443S11713578EA0142201494000000000000
B0558023148518S11713588EA0141801491000000000000
B0558063148590S11713596EA0141201483000000000000
B0558103148662S11713606EA0140501476000000000000
B0558143148733S11713614EA0140101474000000000000
B0558183148800S11713622EA0139901471000000000000
B0558223148866S11713631EA0139401464000000000000
B0558263148930S11713641EA0138701455000000000000
B0558303148996S11713652EA0137601445000000000000
B0558343149065S11713662EA0136701439000000000000
B0558383149134S11713673EA0136301434000000000000
B0558423149203S11713680EA0135501424000000000000
B0558463149272S11713688EA0134201412000000000000
B0558503149342S11713696EA0133001399000000000000
B0558543149414S11713702EA0132001385000000000000
B0558583149484S11713714EA0130601373000000000000
B0559023149554S11713727EA0129101358000000000000
B0559063149626S11713741EA0127501341000000000000
B0559103149695S11713756EA0126101327000000000000
B0559143149762S11713773EA0124201306000000000000
B0559183149832S11713792EA0121901285000000000000
B0559223149903S11713813EA0121901294000000000000
B0559263149965S11713829EA0123701310000000000000
B0559303150014S11713865EA0124701320000000000000
B0559343150040S11713923EA0126001333000000000000
B0559383150053S11713986EA0127001339000000000000
B0559423150066S11714050EA0125901317000000000000
B0559463150079S11714124EA0123101292000000000000
B0559503150116S11714194EA0120701274000000000000
B0559543150170S11714250EA0120101276000000000000
B0559583150220S11714307EA0121001287000000000000
B0600023150251S11714368EA0123301309000000000000
B0600063150269S11714429EA0125301326000000000000
B0600103150281S11714486EA0127001344000000000000
B0600143150313S11714514EA0128901370000000000000
B0600183150350S11714462EA0131401387000000000000
B0600223150330S11714380EA0132301398000000000000
B0600263150265S11714347EA0132801405000000000000
B0600303150213S11714375EA0133301411000000000000
B0600343150205S11714428EA0134801427000000000000
B0600383150243S11714447EA0136601445000000000000
B0600423150285S11714407EA0138101458000000000000
B0600463150286S11714328EA0139001466000000000000
B0600503150237S11714261EA0139801479000000000000
B0600543150170S11714250EA0141201491000000000000
B0600583150126S11714290EA0141701500000000000000
B0601023150133S11714336EA0143501520000000000000
B0601063150176S11714333EA0145001531000000000000
B0601103150204S11714271EA0145601536000000000000
B0601143150183S11714189EA0146301544000000000000
B0601183150122S11714147EA0146701547000000000000
B0601223150066S11714177EA0147101555000000000000
B0601263150055S11714230EA0148801571000000000000
B0601303150082S11714261EA0150601587000000000000
B0601343150125S11714239EA0151401589000000000000
B0601383150140S11714170EA0150801585000000000000
B0601423150104S11714094EA0151001590000000000000
B0601463150036S11714064EA0151801600000000000000
B0601503149992S11714102EA0152701608000000000000
B0601543150005S11714144EA0153801619000000000000
B0601583150049S11714144EA0154301618000000000000
B0602023150082S11714090EA0154001618000000000000
B0602063150073S11714008EA0155201631000000000000
B0602103150017S11713956EA0156101638000000000000
B0602143149951S11713966EA0156201640000000000000
B0602183149908S11714013EA0156701647000000000000
B0602223149903S11714072EA0156801644000000000000
B0602263149923S11714130EA0155701628000000000000
B0602303149962S11714187EA0153501607000000000000
B0602343150020S11714230EA0151101589000000000000
B0602383150088S11714263EA0149601573000000000000
B0602423150163S11714287EA0148901576000000000000
B0602463150229S11714320EA0150201590000000000000
B0602503150274S11714365EA0152801615000000000000
B0602543150283S11714424EA0154701627000000000000
B0602583150287S11714480EA0155001630000000000000
B0603023150299S11714537EA0154501619000000000000
B0603063150315S11714601EA0153001601000000000000
B0603103150351S11714663EA0150401573000000000000
B0603143150413S11714710EA0147901552000000000000
B0603183150490S11714737EA0146001538000000000000
B0603223150572S11714754EA0144801524000000000000
B0603263150657S11714768EA0143101509000000000000
B0603303150741S11714779EA0141601493000000000000
B0603343150827S11714787EA0140401481000000000000
B0603383150910S11714796EA0139701476000000000000
B0603423150988S11714801EA0139401473000000000000
B0603463151062S11714804EA0139201468000000000000
B0603503151135S11714806EA0138701465000000000000
B0603543151206S11714805EA0138801466000000000000
B0603583151275S11714806EA0138801463000000000000
B0604023151347S11714809EA0139001467000000000000
B0604063151417S11714813EA0138901465000000000000
B0604103151485S11714815EA0139001465000000000000
B0604143151551S11714820EA0138101452000000000000
B0604183151621S11714827EA0136201431000000000000
B0604223151694S11714830EA0134801423000000000000
B0604263151768S11714831EA0133001403000000000000
B0604303151845S11714835EA0131801391000000000000
B0604343151921S11714837EA0130801384000000000000
B0604383151997S11714837EA0130301381000000000000
B0604423152072S11714837EA0130001372000000000000
B0604463152146S11714845EA0129701374000000000000
B0604503152204S11714880EA0131101393000000000000
B0604543152226S11714937EA0133801422000000000000
B0604583152237S11714992EA0136301445000000000000
B0605023152276S11714971EA0138101451000000000000
B0605063152240S11714884EA0138501472000000000000
B0605103152174S11714905EA0142201509000000000000
B0605143152181S11714954EA0145101533000000000000
B0605183152222S11714924EA0146001533000000000000
B0605223152206S11714836EA0146901554000000000000
B0605263152137S11714805EA0149701578000000000000
B0605303152085S11714840EA0150501577000000000000
B0605343152098S11714893EA0151001588000000000000
B0605383152141S11714876EA0152101597000000000000
B0605423152163S11714805EA0152901608000000000000
B0605463152137S11714724EA0154201619000000000000
B0605503152062S11714723EA0154801627000000000000
B0605543152045S11714784EA0156101641000000000000
B0605583152088S11714807EA0156401643000000000000
B0606023152132S11714762EA0157401654000000000000
B0606063152096S11714684EA0158901672000000000000
B0606103152027S11714697EA0160901691000000000000
B0606143152014S11714753EA0161801695000000000000
B0606183152057S11714781EA0161701699000000000000
B0606223152092S11714727EA0163401718000000000000
B0606263152050S11714648EA0164701728000000000000
B0606303151973S11714649EA0165101734000000000000
B0606343151957S11714716EA0165801740000000000000
B0606383152005S11714742EA0166201747000000000000
B0606423152054S11714694EA0166801752000000000000
B0606463152040S11714599EA0168101773000000000000
B0606503151960S11714563EA0169901785000000000000
B0606543151914S11714614EA0170901798000000000000
B0606583151937S11714654EA0172301814000000000000
B0607023151970S11714606EA0173501822000000000000
B0607063151950S11714518EA0174301831000000000000
B0607103151882S11714464EA0175001838000000000000
B0607143151824S11714502EA0175601843000000000000
B0607183151836S11714560EA0175901846000000000000
B0607223151888S11714586EA0174801833000000000000
B0607263151959S11714586EA0172601813000000000000
B0607303152040S11714588EA0169101779000000000000
B0607343152128S11714588EA0167501765000000000000
B0607383152213S11714584EA0167301765000000000000
B0607423152297S11714581EA0167101768000000000000
B0607463152375S11714584EA0167201757000000000000
B0607503152457S11714584EA0165201738000000000000
B0607543152542S11714581EA0165501753000000000000
B0607583152623S11714580EA0167201766000000000000
B0608023152699S11714592EA0167901770000000000000
B0608063152763S11714624EA0168901780000000000000
B0608103152817S11714662EA0169001776000000000000
B0608143152878S11714694EA0167301756000000000000
B0608183152948S11714723EA0165401734000000000000
B0608223153026S11714746EA0162901709000000000000
B0608263153110S11714768EA0161001697000000000000
B0608303153194S11714785EA0160101691000000000000
B0608343153280S11714793EA0160101695000000000000
B0608383153366S11714801EA0160501697000000000000
B0608423153450S11714807EA0159801686000000000000
B0608463153537S11714813EA0158601677000000000000
B0608503153621S11714813EA0158601675000000000000
B0608543153701S11714810EA0158401671000000000000
B0608583153782S11714806EA0158301669000000000000
B0609023153862S11714798EA0157801665000000000000
B0609063153942S11714791EA0157501661000000000000
B0609103154020S11714783EA0156401646000000000000
B0609143154096S11714776EA0155101634000000000000
B0609183154174S11714771EA0153701621000000000000
B0609223154250S11714770EA0152401610000000000000
B0609263154325S11714768EA0152201606000000000000
B0609303154401S11714774EA0151301593000000000000
B0609343154481S11714776EA0150101587000000000000
B0609383154563S11714770EA0149801583000000000000
B0609423154648S11714754EA0149201576000000000000
B0609463154735S11714740EA0149801588000000000000
B0609503154809S11714750EA0152001605000000000000
B0609543154843S11714793EA0154001622000000000000
B0609583154854S11714844EA0154201619000000000000
B0610023154867S11714897EA0152701594000000000000
B0610063154900S11714956EA0149601564000000000000
B0610103154961S11715002EA0146701543000000000000
B0610143155039S11715028EA0144601524000000000000
B0610183155127S11715022EA0142701508000000000000
B0610223155216S11714991EA0141501500000000000000
B0610263155303S11714952EA0141001492000000000000
B0610303155389S11714914EA0140601488000000000000
B0610343155473S11714876EA0139601480000000000000
B0610383155556S11714839EA0138301465000000000000
B0610423155641S11714804EA0137501454000000000000
B0610463155724S11714770EA0136401439000000000000
B0610503155808S11714740EA0135201437000000000000
B0610543155888S11714713EA0135301431000000000000
B0610583155967S11714692EA0134001421000000000000
B0611023156045S11714672EA0133601419000000000000
B0611063156122S11714654EA0132901406000000000000
B0611103156198S11714641EA0131401393000000000000
B0611143156275S11714632EA0130901390000000000000
B0611183156353S11714623EA0131801402000000000000
B0611223156421S11714624EA0134101426000000000000
B0611263156455S11714667EA0135801441000000000000
B0611303156421S11714705EA0137601460000000000000
B0611343156365S11714653EA0139401471000000000000
B0611383156366S11714567EA0139901480000000000000
B0611423156414S11714523EA0140601490000000000000
B0611463156442S11714550EA0141401493000000000000
B0611503156405S11714594EA0140801487000000000000
B0611543156336S11714605EA0141401494000000000000
B0611583156273S11714563EA0143301515000000000000
B0612023156261S11714481EA0145001529000000000000
B0612063156302S11714429EA0146001540000000000000
B0612103156348S11714440EA0147201551000000000000
B0612143156354S11714481EA0147701559000000000000
B0612183156314S11714511EA0148701566000000000000
B0612223156250S11714499EA0148801568000000000000
B0612263156205S11714433EA0149401574000000000000
B0612303156201S11714343EA0150901590000000000000
B0612343156247S11714299EA0152001602000000000000
B0612383156270S11714338EA0152901609000000000000
B0612423156224S11714372EA0153701617000000000000
B0612463156162S11714338EA0154701628000000000000
B0612503156136S11714251EA0155801638000000000000
B0612543156163S11714177EA0157401657000000000000
B0612583156214S11714148EA0158301662000000000000
B0613023156250S11714172EA0159101670000000000000
B0613063156243S11714217EA0159401674000000000000
B0613103156200S11714258EA0159901678000000000000
B0613143156141S11714277EA0159801674000000000000
B0613183156072S11714242EA0160201685000000000000
B0613223156010S11714186EA0161601696000000000000
B0613263155962S11714111EA0162501706000000000000
B0613303155979S11714034EA0163801721000000000000
B0613343156024S11714017EA0164201724000000000000
B0613383156035S11714060EA0164901734000000000000
B0613423155990S11714091EA0166201747000000000000
B0613463155928S11714065EA0167601760000000000000
B0613503155893S11713991EA0168001757000000000000
B0613543155898S11713905EA0167101746000000000000
B0613583155931S11713830EA0166601747000000000000
B0614023155979S11713773EA0166601744000000000000
B0614063156039S11713749EA0166301743000000000000
B0614103156100S11713734EA0166301740000000000000
B0614143156166S11713715EA0164901724000000000000
B0614183156239S11713693EA0163401715000000000000
B0614223156312S11713673EA0162201698000000000000
B0614263156386S11713650EA0160801688000000000000
B0614303156461S11713627EA0160101679000000000000
B0614343156535S11713604EA0159301671000000000000
B0614383156609S11713580EA0158701667000000000000
B0614423156682S11713559EA0158801667000000000000
B0614463156752S11713540EA0158501663000000000000
B0614503156825S11713522EA0158001658000000000000
B0614543156898S11713500EA0157901656000000000000
B0614583156967S11713478EA0157701653000000000000
B0615023157034S11713461EA0157601652000000000000
B0615063157098S11713448EA0158001661000000000000
B0615103157157S11713432EA0160301687000000000000
B0615143157207S11713420EA0162901705000000000000
B0615183157223S11713459EA0164501723000000000000
B0615223157172S11713492EA0165501732000000000000
B0615263157115S11713432EA0166301744000000000000
B0615303157132S11713353EA0167701761000000000000
B0615343157179S11713345EA0169701780000000000000
B0615383157194S11713390EA0170401784000000000000
B0615423157154S11713442EA0170601793000000000000
B0615463157081S11713416EA0172601811000000000000
B0615503157063S11713327EA0174101825000000000000
B0615543157103S11713271EA0174901832000000000000
B0615583157149S11713290EA0176001845000000000000
B0616023157131S11713351EA0176301846000000000000
B0616063157056S11713353EA0177201861000000000000
B0616103157003S11713275EA0178401873000000000000
B0616143157007S11713179EA0179601886000000000000
B0616183157055S11713130EA0181001901000000000000
B0616223157099S11713155EA0183301923000000000000
B0616263157086S11713216EA0184001926000000000000
B0616303157016S11713233EA0184601930000000000000
B0616343156959S11713162EA0185201938000000000000
B0616383156965S11713071EA0186201949000000000000
B0616423157011S11713019EA0187401962000000000000
B0616463157055S11713033EA0188901973000000000000
B0616503157050S11713086EA0189601982000000000000
B0616543156989S11713116EA0190101990000000000000
B0616583156921S11713078EA0190801996000000000000
B0617023156882S11712997EA0192002008000000000000
B0617063156881S11712908EA0192602012000000000000
B0617103156920S11712844EA0193102016000000000000
B0617143156973S11712828EA0193402020000000000000
B0617183157021S11712854EA0192101999000000000000
B0617223157084S11712885EA0190701994000000000000
B0617263157160S11712898EA0190901999000000000000
B0617303157242S11712899EA0190201990000000000000
B0617343157323S11712890EA0189901987000000000000
B0617383157397S11712880EA0190501991000000000000
B0617423157463S11712872EA0190801990000000000000
B0617463157530S11712865EA0190301983000000000000
B0617503157600S11712861EA0189001965000000000000
B0617543157677S11712861EA0186701949000000000000
B0617583157757S11712852EA0185601943000000000000
B0618023157834S11712837EA0186301953000000000000
B0618063157905S11712818EA0187201955000000000000
B0618103157976S11712800EA0186901952000000000000
B0618143158050S11712779EA0186101942000000000000
B0618183158126S11712756EA0185201937000000000000
B0618223158199S11712730EA0185201936000000000000
B0618263158272S11712701EA0184701928000000000000
B0618303158346S11712674EA0183901918000000000000
B0618343158421S11712647EA0183101909000000000000
B0618383158497S11712621EA0182301903000000000000
B0618423158572S11712596EA0181401894000000000000
B0618463158650S11712571EA0180801889000000000000
B0618503158727S11712547EA0180501886000000000000
B0618543158805S11712523EA0179201873000000000000
B0618583158886S11712504EA0178601867000000000000
B0619023158964S11712486EA0178501866000000000000
B0619063159040S11712467EA0177601852000000000000
B0619103159120S11712449EA0176301843000000000000
B0619143159198S11712434EA0175401835000000000000
B0619183159277S11712417EA0174601826000000000000
B0619223159356S11712399EA0173801818000000000000
B0619263159437S11712382EA0172501804000000000000
B0619303159516S11712361EA0171801802000000000000
B0619343159593S11712335EA0172501808000000000000
B0619383159668S11712302EA0173101812000000000000
B0619423159741S11712269EA0173301812000000000000
B0619463159815S11712241EA0172701803000000000000
B0619503159889S11712219EA0171601790000000000000
B0619543159963S11712198EA0170301778000000000000
B0619583200039S11712178EA0169301769000000000000
B0620023200114S11712155EA0168701758000000000000
B0620063200193S11712133EA0166901742000000000000
B0620103200274S11712111EA0165601730000000000000
B0620143200357S11712088EA0164401719000000000000
B0620183200439S11712066EA0163701716000000000000
B0620223200521S11712044EA0163301711000000000000
B0620263200602S11712018EA0162801705000000000000
B0620303200683S11711992EA0161701695000000000000
B0620343200764S11711966EA0161501694000000000000
B0620383200842S11711938EA0161501692000000000000
B0620423200919S11711908EA0160701679000000000000
B0620463200998S11711879EA0159301667000000000000
B0620503201080S11711850EA0158301658000000000000
B0620543201162S11711824EA0157501650000000000000
B0620583201241S11711797EA0156501638000000000000
B0621023201320S11711771EA0156101638000000000000
B0621063201396S11711749EA0156201635000000000000
B0621103201471S11711726EA0155401626000000000000
B0621143201548S11711704EA0154601621000000000000
B0621183201623S11711681EA0154001617000000000000
B0621223201695S11711654EA0154501626000000000000
B0621263201761S11711625EA0155601629000000000000
B0621303201825S11711599EA0155201623000000000000
B0621343201887S11711595EA0154601615000000000000
B0621383201951S11711607EA0153201601000000000000
B0621423202019S11711619EA0152001591000000000000
B0621463202089S11711629EA0151001583000000000000
B0621503202160S11711634EA0150101575000000000000
B0621543202232S11711637EA0149101563000000000000
B0621583202305S11711637EA0147701548000000000000
B0622023202380S11711633EA0146101529000000000000
B0622063202458S11711622EA0144801519000000000000
B0622103202537S11711607EA0143401507000000000000
B0622143202617S11711589EA0143001510000000000000
B0622183202684S11711599EA0145401538000000000000
B0622223202717S11711647EA0148101559000000000000
B0622263202735S11711700EA0149201567000000000000
B0622303202753S11711752EA0149401559000000000000
B0622343202774S11711810EA0148201556000000000000
B0622383202791S11711866EA0148601557000000000000
B0622423202819S11711918EA0147901548000000000000
B0622463202853S11711973EA0146501534000000000000
B0622503202893S11712028EA0146901544000000000000
B0622543202947S11712037EA0148501559000000000000
B0622583202968S11711968EA0148501554000000000000
B0623023202918S11711908EA0147001540000000000000
B0623063202858S11711936EA0146301535000000000000
B0623103202838S11712002EA0146601542000000000000
B0623143202834S11712072EA0146501535000000000000
B0623183202834S11712144EA0145801526000000000000
B0623223202840S11712215EA0144401510000000000000
B0623263202851S11712291EA0142801500000000000000
B0623303202874S11712361EA0142201496000000000000
B0623343202918S11712417EA0141601490000000000000
B0623383202984S11712443EA0140901481000000000000
B0623423203065S11712436EA0139001462000000000000
B0623463203150S11712408EA0137601451000000000000
B0623503203234S11712371EA0136901443000000000000
B0623543203315S11712326EA0136501439000000000000
B0623583203391S11712282EA0137401455000000000000
B0624023203460S11712253EA0138101454000000000000
B0624063203532S11712230EA0137301442000000000000
B0624103203605S11712201EA0136201430000000000000
B0624143203677S11712161EA0135701430000000000000
B0624183203750S11712118EA0135601426000000000000
B0624223203824S11712072EA0134701418000000000000
B0624263203897S11712025EA0135001431000000000000
B0624303203965S11711984EA0136601438000000000000
B0624343204031S11711945EA0136401428000000000000
B0624383204100S11711916EA0135001413000000000000
B0624423204174S11711908EA0133501401000000000000
B0624463204255S11711890EA0131701386000000000000
B0624503204338S11711864EA0130701380000000000000
B0624543204417S11711833EA0131601389000000000000
B0624583204487S11711842EA0133501409000000000000
B0625023204531S11711884EA0135101428000000000000
B0625063204559S11711933EA0136601438000000000000
B0625103204583S11711988EA0136801435000000000000
B0625143204613S11712040EA0136701441000000000000
B0625183204661S11712053EA0138801465000000000000
B0625223204686S11711976EA0140301470000000000000
B0625263204650S11711892EA0139601462000000000000
B0625303204578S11711860EA0139301462000000000000
B0625343204524S11711895EA0139301462000000000000
B0625383204490S11711953EA0139001460000000000000
B0625423204485S11712020EA0138701457000000000000
B0625463204494S11712089EA0139201471000000000000
B0625503204531S11712115EA0141901499000000000000
B0625543204564S11712051EA0143601507000000000000
B0625583204528S11711970EA0143701511000000000000
B0626023204461S11711960EA0144001513000000000000
B0626063204426S11712010EA0144001513000000000000
B0626103204433S11712074EA0144501521000000000000
B0626143204486S11712076EA0145901535000000000000
B0626183204524S11712001EA0147001549000000000000
B0626223204495S11711915EA0148401558000000000000
B0626263204433S11711888EA0149101566000000000000
B0626303204392S11711921EA0149101561000000000000
B0626343204405S11711979EA0147401545000000000000
B0626383204439S11712041EA0147601555000000000000
B0626423204498S11712028EA0151601590000000000000
B0626463204512S11711942EA0153301600000000015000
B0626503204460S11711871EA0153101603000000015000
B0626543204394S11711871EA0154301619000000015000
B0626583204373S11711923EA0154901624000000000000
B0627023204417S11711941EA0155901640000000000000
B0627063204446S11711863EA0158101659000000015000
B0627103204400S11711798EA0159101671000000015000
B0627143204349S11711815EA0159901675000000015000
B0627183204344S11711867EA0159901677000000000000
B0627223204390S11711892EA0161001694000000000000
B0627263204431S11711827EA0163201715000000000000
B0627303204404S11711743EA0164401724000000000000
B0627343204340S11711721EA0164601727000000000000
B0627383204309S11711763EA0165401736000000000000
B0627423204340S11711801EA0166301745000000000000
B0627463204396S11711768EA0167901762000000000000
B0627503204391S11711676EA0168701766000000000000
B0627543204329S11711630EA0169101779000000000000
B0627583204286S11711661EA0170301786000000000000
B0628023204297S11711711EA0170601792000000000000
B0628063204352S11711720EA0171401800000000000000
B0628103204387S11711654EA0173001817000000000000
B0628143204357S11711569EA0173301813000000000000
B0628183204288S11711535EA0173101820000000000000
B0628223204240S11711564EA0174701833000000000000
B0628263204242S11711616EA0174601828000000000000
B0628303204284S11711656EA0174801834000000000000
B0628343204346S11711639EA0176801850000000000000
B0628383204373S11711559EA0176901851000000000000
B0628423204331S11711487EA0177101853000000000000
B0628463204274S11711494EA0175901840000000000000
B0628503204297S11711547EA0174101827000000000000
B0628543204382S11711551EA0171901806000000000000
B0628583204477S11711529EA0170401790000000000000
B0629023204573S11711499EA0168901772000000000000
B0629063204668S11711465EA0167401763000000000000
B0629103204759S11711430EA0166801754000000000000
B0629143204847S11711396EA0166301753000000000000
B0629183204931S11711365EA0166101741000000000000
B0629223205016S11711338EA0164701727000000000000
B0629263205105S11711312EA0163801723000000000000
B0629303205193S11711286EA0163601719000000000000
B0629343205280S11711261EA0162501705000000000000
B0629383205369S11711242EA0161601695000000000000
B0629423205456S11711222EA0160801687000000000000
B0629463205540S11711199EA0160101682000000000000
B0629503205623S11711177EA0159101670000000000000
B0629543205707S11711156EA0158301664000000000000
B0629583205789S11711138EA0157701656000000000000
B0630023205867S11711121EA0157601652000000000000
B0630063205943S11711104EA0156401643000000000000
B0630103206019S11711089EA0155901634000000000000
B0630143206093S11711082EA0154801622000000000000
B0630183206167S11711074EA0153501610000000000000
B0630223206244S11711066EA0152401603000000000000
B0630263206316S11711066EA0152701609000000000000
B0630303206385S11711078EA0152701604000000000000
B0630343206457S11711084EA0151801593000000000000
B0630383206530S11711087EA0150801585000000000000
B0630423206602S11711083EA0150001577000000000000
B0630463206678S11711073EA0149201569000000000000
B0630503206752S11711060EA0149101572000000000000
B0630543206825S11711041EA0149101570000000000000
B0630583206891S11711021EA0150201584000000000000
B0631023206949S11710998EA0151201589000000000000
B0631063207005S11710997EA0151001584000000000000
B0631103207038S11711039EA0151501594000000000000
B0631143207039S11711096EA0153201610000000000000
B0631183207037S11711153EA0153601612000000000000
B0631223207035S11711218EA0151601587000000000000
B0631263207052S11711283EA0149601572000000000000
B0631303207092S11711334EA0149201571000000000000
B0631343207113S11711399EA0150401589000000000000
B0631383207118S11711463EA0152701612000000000000
B0631423207148S11711492EA0154401620000000000000
B0631463207186S11711439EA0154101618000000000000
B0631503207161S11711348EA0154401626000000000000
B0631543207090S11711310EA0156001645000000000000
B0631583207046S11711352EA0157201651000000000000
B0632023207076S11711378EA0157601652000000000000
B0632063207113S11711316EA0157301653000000000000
B0632103207089S11711234EA0159301678000000000000
B0632143207024S11711217EA0160501687000000000000
B0632183206990S11711270EA0160001683000000000000
B0632223207027S11711303EA0160501693000000000000
B0632263207074S11711260EA0161601703000000000000
B0632303207074S11711177EA0163101715000000000000
B0632343207017S11711132EA0164201730000000000000
B0632383206973S11711173EA0165001737000000000000
B0632423206998S11711212EA0165301739000000000000
B0632463207038S11711161EA0165701742000000000000
B0632503207013S11711076EA0166401752000000000000
B0632543206943S11711048EA0167701767000000000000
B0632583206883S11711082EA0169301784000000000000
B0633023206873S11711134EA0170601794000000000000
B0633063206914S11711144EA0171301798000000000000
B0633103206951S11711091EA0171501801000000000000
B0633143206939S11711002EA0171701805000000000000
B0633183206883S11710933EA0172401819000000000000
B0633223206814S11710932EA0174901843000000000000
B0633263206795S11710980EA0176701854000000000000
B0633303206831S11711000EA0176601850000000000000
B0633343206877S11710961EA0177001859000000000000
B0633383206903S11710888EA0177501862000000000000
B0633423206913S11710802EA0178701873000000000000
B0633463206858S11710745EA0179901889000000000000
B0633503206803S11710777EA0180001883000000000000
B0633543206823S11710835EA0180201894000000000000
B0633583206878S11710833EA0182401913000000000000
B0634023206917S11710780EA0183401923000000000000
B0634063206894S11710698EA0184401934000000000000
B0634103206822S11710673EA0185701954000000000000
B0634143206773S11710710EA0187501968000000000000
B0634183206784S11710758EA0188301971000000000000
B0634223206835S11710745EA0188401973000000000000
B0634263206869S11710673EA0188701974000000000000
B0634303206887S11710582EA0188701977000000000000
B0634343206890S11710484EA0188701968000000000000
B0634383206920S11710382EA0184801927000000000000
B0634423206999S11710326EA0182201912000000000000
B0634463207086S11710298EA0181501908000000000000
B0634503207174S11710282EA0181501905000000000000
B0634543207264S11710273EA0181701909000000000000
B0634583207346S11710263EA0183601929000000000000
B0635023207425S11710251EA0183201919000000000000
B0635063207507S11710242EA0181701899000000000000
B0635103207593S11710234EA0180101888000000000000
B0635143207677S11710221EA0181101904000000000000
B0635183207755S11710207EA0183301927000000000000
B0635223207827S11710202EA0185401944000000000000
B0635263207889S11710213EA0186501953000000000000
B0635303207937S11710244EA0188101967000000000000
B0635343207966S11710291EA0189401978000000000000
B0635383207991S11710339EA0190301986000000000000
B0635423208025S11710377EA0190401981000000000000
B0635463208087S11710382EA0187201938000000000000
B0635503208178S11710376EA0181801897000000000000
B0635543208275S11710368EA0179801887000000000000
B0635583208374S11710364EA0178401871000000000000
B0636023208470S11710363EA0177501863000000000000
B0636063208564S11710365EA0177001862000000000000
B0636103208649S11710368EA0178401883000000000000
B0636143208716S11710391EA0180301894000000000000
B0636183208781S11710423EA0179401878000000000000
B0636223208853S11710443EA0178001862000000000000
B0636263208927S11710460EA0176801856000000000000
B0636303208998S11710475EA0177201858000000000000
B0636343209071S11710488EA0176401846000000000000
B0636383209145S11710498EA0175201833000000000000
B0636423209219S11710510EA0173901824000000000000
B0636463209293S11710521EA0173401821000000000000
B0636503209366S11710534EA0173501822000000000000
B0636543209438S11710549EA0173401820000000000000
B0636583209510S11710564EA0173101814000000000000
B0637023209582S11710577EA0172301805000000000000
B0637063209653S11710592EA0171401798000000000000
B0637103209726S11710606EA0170801792000000000000
B0637143209799S11710616EA0170001784000000000000
B0637183209871S11710627EA0169501781000000000000
B0637223209942S11710641EA0169101777000000000000
B0637263210011S11710653EA0169301778000000000000
B0637303210080S11710663EA0168701770000000000000
B0637343210149S11710676EA0167901762000000000000
B0637383210216S11710688EA0167301751000000000000
B0637423210288S11710701EA0166001739000000000000
B0637463210358S11710711EA0165401739000000000000
B0637503210428S11710720EA0164701726000000000000
B0637543210501S11710731EA0163401715000000000000
B0637583210574S11710742EA0162201701000000000000
B0638023210651S11710754EA0160701682000000000000
B0638063210727S11710763EA0158801663000000000000
B0638103210805S11710772EA0156901643000000000000
B0638143210886S11710779EA0154901626000000000000
B0638183210964S11710784EA0153801618000000000000
B0638223211039S11710792EA0153001605000000000000
B0638263211117S11710802EA0151201590000000000000
B0638303211197S11710811EA0150101581000000000000
B0638343211277S11710823EA0148901570000000000000
B0638383211356S11710839EA0148401563000000000000
B0638423211436S11710853EA0147501554000000000000
B0638463211514S11710871EA0146701547000000000000
B0638503211589S11710891EA0146201540000000000000
B0638543211668S11710906EA0145201528000000000000
B0638583211746S11710922EA0144401522000000000000
B0639023211826S11710939EA0143301511000000000000
B0639063211905S11710954EA0142401502000000000000
B0639103211983S11710969EA0141901499000000000000
B0639143212058S11710984EA0141301489000000000000
B0639183212134S11711000EA0140201478000000000000
B0639223212211S11711018EA0139001462000000000000
B0639263212287S11711035EA0137401450000000000000
B0639303212364S11711050EA0136401441000000000000
B0639343212439S11711070EA0135701431000000000000
B0639383212512S11711087EA0134901423000000000000
B0639423212585S11711104EA0134201415000000000000
B0639463212654S11711118EA0133601409000000000000
B0639503212724S11711130EA0132501396000000000000
B0639543212796S11711143EA0131301387000000000000
