ACAM4N6
HFDTE221213
HFFXA050
HFPLTPILOT:JOHN WELSH              
HFGTYGLIDERTYPE:HORNET      
HFGIDGLIDERID:VH-GMY      
HFDTM100GPSDATUM:
HFRFWFIRMWAREVERSION:F2.6
HFRHWHARDWAREVERSION:300 Series Version 2
HFFTYFRTYPE:CAMBRIDGE AERO INSTRUMENTS, 302+
HFGPS:GARMIN,LVS-25,12,18000
HFPRSPRESSALTSENSOR:INTERSEMA, MS5534-AP, 20000
I033638FXA3941ENL4247REX
LCAMSBVER:5FWVER:F26300
C221213042827221213000102
C0000000N00000000WTAKEOFF     
C3207549S11656849EBEVAIR      
C3320516S11644815EDARKAN      
C3256999S11752999EHarrismithAF
C3207549S11656849EBEVAIR      
C0000000N00000000WLANDING     
B0428473207339S11656858EA0017700208000000000000
B0428493207339S11656858EA0017700208000000000000
B0428513207339S11656858EA0017600208000000000000
B0428533207339S11656858EA0017700208000000000000
B0428553207339S11656858EA0017700208000000000000
B0428573207339S11656858EA0017600208000000000000
B0428593207339S11656858EA0017600208000000000000
B0429013207339S11656858EA0017600208000000000000
B0429033207339S11656858EA0017700208000000000000
B0429053207339S11656858EA0017700208000000000000
B0429073207339S11656857EA0017700208000000000000
B0429093207339S11656858EA0017700208000000000000
B0429113207339S11656857EA0017600208000000000000
B0429133207341S11656858EA0017600209000000000000
B0429153207343S11656860EA0017600209000000000000
B0429163207346S11656862EA0017600209000000000000
B0429203207367S11656879EA0017500208000000000000
B0429243207403S11656905EA0017500209000000000000
B0429283207458S11656939EA0017200209000000000000
B0429323207516S11656979EA0017600210000000000000
B0429363207575S11657027EA0018100224000000000000
B0429403207635S11657074EA0019700249000000000000
B0429443207698S11657120EA0021800269000000000000
B0429483207761S11657169EA0023500290000000000000
B0429523207818S11657217EA0026100316000000000000
B0429563207876S11657264EA0028200339000000000000
B0430003207935S11657309EA0030100357000000000000
B0430043207988S11657359EA0032500382000000000000
B0430083208041S11657411EA0034300397000000000000
B0430123208096S11657455EA0035700413000000000000
B0430163208148S11657502EA0037100428000000000000
B0430203208196S11657554EA0038600448000000000000
B0430243208223S11657619EA0041700478000000000000
B0430283208236S11657693EA0044100500000000000000
B0430323208248S11657768EA0045900516000000000000
B0430363208261S11657844EA0047700535000000000000
B0430403208278S11657922EA0049500551000000000000
B0430443208295S11658004EA0050000555000000000000
B0430483208318S11658082EA0050800566000000000000
B0430523208363S11658143EA0052200583000000000000
B0430563208416S11658186EA0054700603000000000000
B0431003208469S11658242EA0055800613000000000000
B0431043208504S11658314EA0056900628000000000000
B0431083208515S11658398EA0058600645000000000000
B0431123208494S11658479EA0060500667000000000000
B0431163208456S11658552EA0062400683000000000000
B0431203208405S11658613EA0063900698000000000000
B0431243208338S11658660EA0065300708000000000000
B0431283208268S11658704EA0065300712000000000000
B0431323208192S11658736EA0066400720000000000000
B0431363208105S11658724EA0066800726000000000000
B0431403208022S11658672EA0067300728000000000000
B0431443207950S11658599EA0068000737000000000000
B0431483207898S11658507EA0069200757000000000000
B0431523207883S11658404EA0072300787000000000000
B0431563207891S11658307EA0074200807000000000000
B0432003207887S11658218EA0075700813000000000000
B0432043207835S11658164EA0075700813000000000000
B0432083207776S11658180EA0075100806000000000000
B0432123207762S11658238EA0074600796000000000000
B0432163207798S11658277EA0072900782000000000000
B0432203207861S11658274EA0071600770000000000000
B0432243207926S11658240EA0070600759000000000000
B0432283207987S11658196EA0070100759000000000000
B0432323208049S11658200EA0071500773000000000000
B0432363208071S11658257EA0072700780000000000000
B0432403208031S11658300EA0072800780000000000000
B0432443207976S11658269EA0072600775000000000000
B0432483207948S11658201EA0071600765000000000000
B0432523207928S11658122EA0070800760000000000000
B0432563207923S11658037EA0070500757000000000000
B0433003207961S11657979EA0071500771000000000000
B0433043207999S11658014EA0072300779000000000000
B0433083207962S11658053EA0073900795000000000000
B0433123207914S11658011EA0073900790000000000000
B0433163207924S11657939EA0073900794000000000000
B0433203207975S11657926EA0074800801000000000000
B0433243207982S11657975EA0075100803000000000000
B0433283207926S11657993EA0076500820000000000000
B0433323207882S11657944EA0076900820000000000000
B0433363207888S11657866EA0076700817000000000000
B0433403207940S11657823EA0077200827000000000000
B0433443207987S11657837EA0078300836000000000000
B0433483207996S11657888EA0078800839000000000000
B0433523207962S11657936EA0079500848000000000000
B0433563207901S11657932EA0081200867000000000000
B0434003207870S11657866EA0082600878000000000000
B0434043207902S11657805EA0083100881000000000000
B0434083207954S11657803EA0083300883000000000000
B0434123207970S11657855EA0083900891000000000000
B0434163207941S11657905EA0083900885000000000000
B0434203207876S11657919EA0083500891000000000000
B0434243207811S11657891EA0084700899000000000000
B0434283207791S11657819EA0085600914000000000000
B0434323207826S11657768EA0086900926000000000000
B0434363207875S11657768EA0087900935000000000000
B0434403207893S11657814EA0088900945000000000000
B0434443207861S11657857EA0089600952000000000000
B0434483207805S11657833EA0090600961000000000000
B0434523207787S11657759EA0090800961000000000000
B0434563207826S11657701EA0091600970000000000000
B0435003207876S11657698EA0092600979000000000000
B0435043207909S11657740EA0092300971000000000000
B0435083207902S11657803EA0091000956000000000000
B0435123207849S11657848EA0090000948000000000000
B0435163207780S11657867EA0088700935000000000000
B0435203207713S11657829EA0088600937000000000000
B0435243207679S11657749EA0088800936000000000000
B0435283207666S11657659EA0089600950000000000000
B0435323207610S11657615EA0091200963000000000000
B0435363207564S11657653EA0091800965000000000000
B0435403207581S11657698EA0091400960000000000000
B0435443207633S11657685EA0091000958000000000000
B0435483207671S11657619EA0091600968000000000000
B0435523207641S11657550EA0092300975000000000000
B0435563207580S11657560EA0092300969000000000000
B0436003207564S11657615EA0092800977000000000000
B0436043207598S11657649EA0093200981000000000000
B0436083207654S11657631EA0093200980000000000000
B0436123207690S11657560EA0092900980000000000000
B0436163207661S11657488EA0094100994000000000000
B0436203207603S11657502EA0094700995000000000000
B0436243207594S11657567EA0094300991000000000000
B0436283207637S11657601EA0095101004000000000000
B0436323207679S11657558EA0096901022000000000000
B0436363207662S11657485EA0097401028000000000000
B0436403207605S11657458EA0098101036000000000000
B0436443207559S11657498EA0098301032000000000000
B0436483207564S11657556EA0098401041000000000000
B0436523207611S11657564EA0099501052000000000000
B0436563207646S11657510EA0100201058000000000000
B0437003207633S11657433EA0100501065000000000000
B0437043207579S11657399EA0101401073000000000000
B0437083207525S11657420EA0101601068000000000000
B0437123207503S11657476EA0101501069000000000000
B0437163207528S11657520EA0101901074000000000000
B0437203207577S11657523EA0101201064000000000000
B0437243207627S11657471EA0100701065000000000000
B0437283207644S11657393EA0101901077000000000000
B0437323207603S11657329EA0102201077000000000000
B0437363207544S11657335EA0102501080000000000000
B0437403207514S11657394EA0102001069000000000000
B0437443207528S11657463EA0101001065000000000000
B0437483207583S11657480EA0101701073000000000000
B0437523207637S11657438EA0102001074000000000000
B0437563207681S11657372EA0102001075000000000000
B0438003207679S11657291EA0102401082000000000000
B0438043207632S11657239EA0103001083000000000000
B0438083207567S11657235EA0102301075000000000000
B0438123207516S11657278EA0101801069000000000000
B0438163207484S11657343EA0101401062000000000000
B0438203207469S11657416EA0100901063000000000000
B0438243207480S11657485EA0101301065000000000000
B0438283207510S11657546EA0101201063000000000000
B0438323207551S11657605EA0100601056000000000000
B0438363207601S11657663EA0099301041000000000000
B0438403207661S11657716EA0098001029000000000000
B0438443207732S11657750EA0096301014000000000000
B0438483207810S11657758EA0094600994000000000000
B0438523207891S11657736EA0092700979000000000000
B0438563207966S11657692EA0092000972000000000000
B0439003208035S11657636EA0091200963000000000000
B0439043208097S11657571EA0090300954000000000000
B0439083208148S11657497EA0089500946000000000000
B0439123208191S11657416EA0088600935000000000000
B0439163208221S11657330EA0087200923000000000000
B0439203208242S11657243EA0086400914000000000000
B0439243208251S11657153EA0085400905000000000000
B0439283208253S11657065EA0084500893000000000000
B0439323208253S11656975EA0083400879000000000000
B0439363208249S11656884EA0081800862000000000000
B0439403208244S11656788EA0080200847000000000000
B0439443208236S11656688EA0078600829000000000000
B0439483208216S11656591EA0077400820000000000000
B0439523208171S11656505EA0076900817000000000000
B0439563208109S11656441EA0076800813000000000000
B0440003208039S11656389EA0076000805000000000000
B0440043207970S11656341EA0075800804000000000000
B0440083207902S11656295EA0076000803000000000000
B0440123207833S11656258EA0075200792000000000000
B0440163207758S11656253EA0074600788000000000000
B0440203207690S11656284EA0074800793000000000000
B0440243207649S11656342EA0076700815000000000000
B0440283207661S11656399EA0079200837000000000000
B0440323207709S11656396EA0080400847000000000000
B0440363207727S11656332EA0081400860000000000000
B0440403207689S11656277EA0081800864000000000000
B0440443207632S11656282EA0082600876000000000000
B0440483207611S11656336EA0084100895000000000000
B0440523207644S11656379EA0085900914000000000000
B0440563207693S11656360EA0087500929000000000000
B0441003207711S11656298EA0088800941000000000000
B0441043207689S11656234EA0088800937000000000000
B0441083207631S11656210EA0088600938000000000000
B0441123207573S11656236EA0089800956000000000000
B0441163207573S11656293EA0092400980000000000000
B0441203207620S11656308EA0094200999000000000000
B0441243207649S11656254EA0096201021000000000000
B0441283207623S11656195EA0097101027000000000000
B0441323207566S11656186EA0098101040000000000000
B0441363207532S11656234EA0099501059000000000000
B0441403207545S11656293EA0101401074000000000000
B0441443207596S11656315EA0102701090000000000000
B0441483207641S11656276EA0104801114000000000000
B0441523207637S11656210EA0106601127000000000000
B0441563207590S11656176EA0107501139000000000000
B0442003207549S11656206EA0109501158000000000000
B0442043207554S11656266EA0111101172000000000000
B0442083207605S11656290EA0112101183000000000000
B0442123207651S11656251EA0114401206000000000000
B0442163207650S11656186EA0115301215000000000000
B0442203207603S11656146EA0115601221000000000000
B0442243207554S11656165EA0117501242000000000000
B0442283207553S11656224EA0119501260000000000000
B0442323207599S11656256EA0121001276000000000000
B0442363207655S11656233EA0122601294000000000000
B0442403207675S11656168EA0123601301000000000000
B0442443207644S11656108EA0123201296000000000000
B0442483207586S11656104EA0124201308000000000000
B0442523207571S11656159EA0126101325000000000000
B0442563207618S11656202EA0127001341000000000000
B0443003207677S11656180EA0129101363000000000000
B0443043207696S11656112EA0130101369000000000000
B0443083207662S11656052EA0130101367000000000000
B0443123207602S11656026EA0129901367000000000000
B0443163207542S11656045EA0131301386000000000000
B0443203207528S11656103EA0134601417000000000000
B0443243207568S11656145EA0136201430000000000000
B0443283207629S11656138EA0136501433000000000000
B0443323207672S11656078EA0137701446000000000000
B0443363207670S11656007EA0138901455000000000000
B0443403207631S11655959EA0138901455000000000000
B0443443207580S11655967EA0139301462000000000000
B0443483207563S11656022EA0140401482000000000000
B0443523207605S11656059EA0142801502000000000000
B0443563207667S11656043EA0143801508000000000000
B0444003207705S11655981EA0144701517000000000000
B0444043207692S11655915EA0144401508000000000000
B0444083207641S11655890EA0143401498000000000000
B0444123207586S11655915EA0143401503000000000000
B0444163207567S11655974EA0144801526000000015000
B0444203207614S11656008EA0146701541000000015000
B0444243207663S11655963EA0147401548000000015000
B0444283207653S11655892EA0147701551000000015000
B0444323207598S11655873EA0147901555000000015000
B0444363207562S11655921EA0148701564000000015000
B0444403207580S11655985EA0149801576000000015000
B0444443207638S11655995EA0151501591000000015000
B0444483207672S11655934EA0152501599000000015000
B0444523207648S11655872EA0152701602000000000000
B0444563207596S11655863EA0153301609000000000000
B0445003207571S11655909EA0154501621000000000000
B0445043207598S11655960EA0154901622000000000000
B0445083207661S11655969EA0155201629000000000000
B0445123207715S11655924EA0155901636000000000000
B0445163207735S11655853EA0156201639000000000000
B0445203207716S11655787EA0155901630000000000000
B0445243207668S11655756EA0155401630000000000000
B0445283207622S11655772EA0155301627000000000000
B0445323207603S11655827EA0154901626000000000000
B0445363207619S11655899EA0154401625000000000000
B0445403207645S11655972EA0154801627000000000000
B0445443207697S11656020EA0155301632000000000000
B0445483207765S11656019EA0155301629000000000000
B0445523207826S11655978EA0154401616000000000000
B0445563207857S11655907EA0153501608000000000000
B0446003207841S11655835EA0151701590000000000000
B0446043207793S11655778EA0148001549000000000000
B0446083207718S11655725EA0144301522000000000000
B0446123207632S11655675EA0143401509000000000000
B0446163207547S11655631EA0143401515000000000000
B0446203207463S11655592EA0144001518000000000000
B0446243207377S11655566EA0143501510000000000000
B0446283207297S11655565EA0142101489000000000000
B0446323207226S11655610EA0140301476000000000000
B0446363207172S11655678EA0138601456000000000000
B0446403207134S11655759EA0136901439000000000000
B0446443207115S11655847EA0135501422000000000000
B0446483207104S11655935EA0134301408000000000000
B0446523207104S11656026EA0132001377000000000000
B0446563207115S11656119EA0128901349000000000000
B0447003207131S11656210EA0126101318000000000000
B0447043207151S11656297EA0122501274000000000000
B0447083207177S11656386EA0117501228000000000000
B0447123207203S11656471EA0115101209000000000000
B0447163207229S11656549EA0113901197000000000000
B0447203207265S11656623EA0112101176000000000000
B0447243207316S11656692EA0110001150000000000000
B0447283207375S11656760EA0107001124000000000000
B0447323207443S11656821EA0105001107000000000000
B0447363207516S11656869EA0104301103000000000000
B0447403207593S11656899EA0104001097000000000000
B0447443207671S11656917EA0102901085000000000000
B0447483207752S11656925EA0101601074000000000000
B0447523207832S11656932EA0100301061000000000000
B0447563207913S11656936EA0099701051000000000000
B0448003207993S11656942EA0098201039000000000000
B0448043208074S11656942EA0098501050000000000000
B0448083208148S11656930EA0100301072000000000000
B0448123208213S11656909EA0102801095000000000000
B0448163208238S11656851EA0105501119000000000000
B0448203208201S11656801EA0106001113000000000000
B0448243208136S11656812EA0105201113000000000000
B0448283208096S11656873EA0106401125000000000000
B0448323208095S11656943EA0107801140000000000000
B0448363208136S11656974EA0109701157000000000000
B0448403208181S11656938EA0110601166000000000000
B0448443208178S11656873EA0112401187000000000000
B0448483208131S11656845EA0113801195000000000000
B0448523208077S11656878EA0112701183000000000000
B0448563208056S11656949EA0113301201000000000000
B0449003208079S11657009EA0115301213000000000000
B0449043208127S11657034EA0115201204000000000000
B0449083208181S11657007EA0114301199000000000000
B0449123208230S11656958EA0114601211000000000000
B0449163208255S11656893EA0115901222000000000000
B0449203208214S11656852EA0117001233000000000000
B0449243208162S11656875EA0117101232000000000000
B0449283208140S11656944EA0117301236000000000000
B0449323208170S11657005EA0119201255000000000000
B0449363208225S11657004EA0120301264000000000000
B0449403208259S11656951EA0120701269000000000000
B0449443208248S11656883EA0121201275000000000000
B0449483208201S11656847EA0121401275000000000000
B0449523208138S11656854EA0120801271000000000000
B0449563208073S11656887EA0120801273000000000000
B0450003208017S11656938EA0122201294000000000000
B0450043208025S11657003EA0124101310000000015000
B0450083208079S11657017EA0123901301000000015000
B0450123208130S11656971EA0123001295000000015000
B0450163208148S11656892EA0123901306000000015000
B0450203208116S11656832EA0126001328000000015000
B0450243208056S11656839EA0127101338000000015000
B0450283208025S11656900EA0127501342000000015000
B0450323208051S11656958EA0128601353000000015000
B0450363208105S11656962EA0129401359000000015000
B0450403208142S11656913EA0130001365000000000000
B0450443208119S11656852EA0130401372000000000000
B0450483208061S11656854EA0131401385000000015000
B0450523208036S11656916EA0132501393000000015000
B0450563208067S11656966EA0133201396000000015000
B0451003208122S11656970EA0133101398000000015000
B0451043208170S11656932EA0133401404000000015000
B0451083208186S11656866EA0133801407000000000000
B0451123208161S11656801EA0133301398000000000000
B0451163208099S11656766EA0133001403000000000000
B0451203208028S11656779EA0133601413000000000000
B0451243207980S11656832EA0135601438000000015000
B0451283207982S11656899EA0136801442000000015000
B0451323208026S11656942EA0135901427000000015000
B0451363208088S11656979EA0133901406000000015000
B0451403208162S11657007EA0132301392000000015000
B0451443208242S11657031EA0130301369000000000000
B0451483208326S11657049EA0128501351000000000000
B0451523208415S11657066EA0126501331000000000000
B0451563208503S11657086EA0125301322000000000000
B0452003208590S11657101EA0124601311000000000000
B0452043208680S11657114EA0123101295000000000000
B0452083208772S11657121EA0122201287000000000000
B0452123208863S11657130EA0121901286000000000000
B0452163208949S11657148EA0121701282000000000000
B0452203209035S11657170EA0121101272000000000000
B0452243209117S11657200EA0119801258000000000000
B0452283209198S11657235EA0118801250000000000000
B0452323209279S11657270EA0118101238000000000000
B0452363209360S11657303EA0116501223000000000000
B0452403209443S11657329EA0115301211000000000000
B0452443209529S11657350EA0114401200000000000000
B0452483209616S11657367EA0113401185000000000000
B0452523209705S11657381EA0112701183000000000000
B0452563209795S11657378EA0114001204000000000000
B0453003209872S11657348EA0117301232000000000000
B0453043209895S11657269EA0118301232000000000000
B0453083209846S11657215EA0117301225000000000000
B0453123209787S11657246EA0117501231000000000000
B0453163209755S11657315EA0118101241000000000000
B0453203209731S11657389EA0120501264000000000000
B0453243209752S11657451EA0122201277000000000000
B0453283209815S11657436EA0121401263000000000000
B0453323209832S11657359EA0120501252000000000000
B0453363209783S11657296EA0119601253000000000000
B0453403209720S11657282EA0121101279000000000000
B0453443209690S11657330EA0124001304000000000000
B0453483209726S11657376EA0125301312000000000000
B0453523209785S11657358EA0125801314000000000000
B0453563209812S11657289EA0125901317000000000000
B0454003209778S11657230EA0126801330000000000000
B0454043209718S11657218EA0127201332000000000000
B0454083209674S11657263EA0127501336000000000000
B0454123209687S11657332EA0128101343000000000000
B0454163209724S11657398EA0128201345000000000000
B0454203209768S11657463EA0127901337000000000000
B0454243209816S11657536EA0126201318000000000000
B0454283209869S11657608EA0125301319000000000000
B0454323209923S11657673EA0125301314000000000000
B0454363209986S11657724EA0124401303000000000000
B0454403210060S11657755EA0123401293000000000000
B0454443210141S11657774EA0122201280000000000000
B0454483210225S11657783EA0120601264000000000000
B0454523210311S11657785EA0119801256000000000000
B0454563210396S11657784EA0119501255000000000000
B0455003210476S11657777EA0120401266000000000000
B0455043210556S11657776EA0121101271000000000000
B0455083210631S11657775EA0121201270000000000000
B0455123210708S11657771EA0120501259000000000000
B0455163210786S11657772EA0120001258000000000000
B0455203210864S11657781EA0119301245000000000000
B0455243210946S11657788EA0118001235000000000000
B0455283211028S11657797EA0117101227000000000000
B0455323211108S11657807EA0116301218000000000000
B0455363211187S11657820EA0115401204000000000000
B0455403211268S11657832EA0114301194000000000000
B0455443211345S11657846EA0114301199000000000000
B0455483211410S11657881EA0115401208000000000000
B0455523211446S11657949EA0116701223000000000000
B0455563211453S11658028EA0118201236000000000000
B0456003211457S11658109EA0118501237000000000000
B0456043211464S11658191EA0118501238000000000000
B0456083211470S11658279EA0117501219000000000000
B0456123211484S11658372EA0115201204000000000000
B0456163211542S11658424EA0115301210000000000000
B0456203211616S11658421EA0114501203000000000000
B0456243211694S11658390EA0113101185000000000000
B0456283211776S11658351EA0111601178000000000000
B0456323211856S11658307EA0111301174000000000000
B0456363211935S11658262EA0111301178000000000000
B0456403212003S11658221EA0114601221000000000000
B0456443212029S11658158EA0117801245000000000000
B0456483211980S11658121EA0119201257000000015000
B0456523211934S11658164EA0119301258000000015000
B0456563211947S11658226EA0120101266000000015000
B0457003212000S11658216EA0121201278000000015000
B0457043212003S11658152EA0122401288000000015000
B0457083211951S11658117EA0123101291000000015000
B0457123211893S11658145EA0123101292000000015000
B0457163211874S11658213EA0123201294000000015000
B0457203211910S11658261EA0123501299000000015000
B0457243211964S11658240EA0124601316000000015000
B0457283211974S11658178EA0126701332000000015000
B0457323211932S11658127EA0127201333000000015000
B0457363211871S11658131EA0127801339000000015000
B0457403211836S11658184EA0128001341000000015000
B0457443211853S11658248EA0127801337000000015000
B0457483211905S11658268EA0128001341000000015000
B0457523211962S11658251EA0129101351000000015000
B0457563211992S11658190EA0130201362000000015000
B0458003211948S11658144EA0131001371000000015000
B0458043211892S11658170EA0131201374000000015000
B0458083211882S11658234EA0132001383000000015000
B0458123211922S11658269EA0132701390000000015000
B0458163211973S11658242EA0133601396000000015000
B0458203211978S11658171EA0134001401000000015000
B0458243211927S11658128EA0134501405000000015000
B0458283211867S11658151EA0134901413000000030000
B0458323211837S11658210EA0135001418000000030000
B0458363211849S11658273EA0135201418000000015000
B0458403211897S11658303EA0135301420000000015000
B0458443211956S11658294EA0136001431000000015000
B0458483211987S11658235EA0137501446000000015000
B0458523211954S11658179EA0138901454000000015000
B0458563211896S11658187EA0139301460000000015000
B0459003211867S11658244EA0140201469000000015000
B0459043211883S11658304EA0140701473000000015000
B0459083211930S11658330EA0141601483000000015000
B0459123211973S11658299EA0142701493000000015000
B0459163211975S11658229EA0142601489000000015000
B0459203211925S11658170EA0142201491000000015000
B0459243211861S11658173EA0143801510000000015000
B0459283211836S11658230EA0144901516000000015000
B0459323211867S11658271EA0145601523000000015000
B0459363211910S11658240EA0146201527000000000000
B0459403211910S11658167EA0146201529000000000000
B0459443211857S11658126EA0147501543000000000000
B0459483211798S11658144EA0148301548000000000000
B0459523211770S11658201EA0148301545000000000000
B0459563211787S11658258EA0147801540000000000000
B0500003211841S11658279EA0146901533000000000000
B0500043211905S11658282EA0146201523000000000000
B0500083211975S11658277EA0145201519000000000000
B0500123212051S11658266EA0145001518000000000000
B0500163212131S11658253EA0144701522000000000000
B0500203212212S11658236EA0144401517000000000000
B0500243212292S11658219EA0143601513000000000000
B0500283212376S11658201EA0141901492000000000000
B0500323212460S11658183EA0140901484000000000000
B0500363212543S11658166EA0140001475000000000000
B0500403212629S11658152EA0138901461000000000000
B0500443212716S11658139EA0137801453000000000000
B0500483212805S11658126EA0137001443000000000000
B0500523212892S11658115EA0136201436000000000000
B0500563212978S11658106EA0135601429000000000000
B0501003213061S11658099EA0134801419000000000000
B0501043213143S11658089EA0134701419000000000000
B0501083213222S11658082EA0134301411000000000000
B0501123213304S11658074EA0133701407000000000000
B0501163213390S11658070EA0133601411000000000000
B0501203213464S11658096EA0135401431000000000000
B0501243213490S11658157EA0138401460000000000000
B0501283213451S11658191EA0141201484000000000000
B0501323213403S11658156EA0142201487000000000000
B0501363213397S11658076EA0142701493000000000000
B0501403213443S11658026EA0143401505000000000000
B0501443213492S11658045EA0144401512000000000000
B0501483213500S11658099EA0144601515000000000000
B0501523213457S11658134EA0144701514000000000000
B0501563213392S11658114EA0144701516000000000000
B0502003213348S11658047EA0146001533000000000000
B0502043213344S11657963EA0147701550000000000000
B0502083213371S11657887EA0148601559000000000000
B0502123213422S11657835EA0149101557000000000000
B0502163213485S11657819EA0148901557000000000000
B0502203213547S11657829EA0148701550000000000000
B0502243213609S11657852EA0147701538000000000000
B0502283213674S11657874EA0146501527000000000000
B0502323213751S11657875EA0145001514000000000000
B0502363213828S11657866EA0144101508000000000000
B0502403213906S11657852EA0142201487000000000000
B0502443213990S11657831EA0140001467000000000000
B0502483214077S11657810EA0138901454000000000000
B0502523214164S11657789EA0137601443000000000000
B0502563214252S11657768EA0137001437000000000000
B0503003214339S11657753EA0136401434000000000000
B0503043214424S11657742EA0135901424000000000000
B0503083214513S11657735EA0135101416000000000000
B0503123214597S11657727EA0134701415000000000000
B0503163214678S11657723EA0134801416000000000000
B0503203214757S11657716EA0134901415000000000000
B0503243214837S11657712EA0134701411000000000000
B0503283214915S11657711EA0134301408000000000000
B0503323214994S11657711EA0134001405000000000000
B0503363215073S11657712EA0133301396000000000000
B0503403215154S11657715EA0132501388000000000000
B0503443215233S11657720EA0131901384000000000000
B0503483215311S11657724EA0131701380000000000000
B0503523215386S11657731EA0130901371000000000000
B0503563215463S11657740EA0129601361000000000000
B0504003215540S11657754EA0128901351000000000000
B0504043215615S11657766EA0128101343000000000000
B0504083215691S11657779EA0127501335000000000000
B0504123215766S11657796EA0127301335000000000000
B0504163215841S11657814EA0127301338000000000000
B0504203215913S11657828EA0127301332000000000000
B0504243215986S11657844EA0125901319000000000000
B0504283216060S11657861EA0124601308000000000000
B0504323216135S11657879EA0123301293000000000000
B0504363216213S11657897EA0121601277000000000000
B0504403216291S11657914EA0120901270000000000000
B0504443216369S11657930EA0119901261000000000000
B0504483216446S11657944EA0119701262000000000000
B0504523216520S11657954EA0119801256000000000000
B0504563216597S11657965EA0118801247000000000000
B0505003216676S11657975EA0117601233000000000000
B0505043216757S11657989EA0116901229000000000000
B0505083216833S11658005EA0116501225000000000000
B0505123216910S11658021EA0115501213000000000000
B0505163216989S11658034EA0114601206000000000000
B0505203217065S11658041EA0115201215000000000000
B0505243217136S11658048EA0115501209000000000000
B0505283217209S11658058EA0114501199000000000000
B0505323217284S11658070EA0113401190000000000000
B0505363217362S11658078EA0112401177000000000000
B0505403217440S11658086EA0111501170000000000000
B0505443217520S11658093EA0110501161000000000000
B0505483217599S11658102EA0109501148000000000000
B0505523217680S11658115EA0108201135000000000000
B0505563217760S11658132EA0107101125000000000000
B0506003217842S11658151EA0106301118000000000000
B0506043217921S11658170EA0105801113000000000000
B0506083218001S11658193EA0104701099000000000000
B0506123218079S11658218EA0103501092000000000000
B0506163218150S11658238EA0103801093000000000000
B0506203218222S11658257EA0103201083000000000000
B0506243218296S11658275EA0102001072000000000000
B0506283218373S11658292EA0101201067000000000000
B0506323218449S11658310EA0101301070000000000000
B0506363218522S11658305EA0102601084000000000000
B0506403218579S11658257EA0103201086000000000000
B0506443218618S11658188EA0102301076000000000000
B0506483218672S11658134EA0101401068000000000000
B0506523218737S11658100EA0100501059000000000000
B0506563218805S11658084EA0100101056000000000000
B0507003218877S11658078EA0099901057000000000000
B0507043218945S11658096EA0101001072000000000000
B0507083218981S11658151EA0103001091000000000000
B0507123218963S11658209EA0104701104000000000000
B0507163218907S11658227EA0105201109000000000000
B0507203218852S11658183EA0105601114000000000000
B0507243218837S11658102EA0106001119000000000000
B0507283218868S11658037EA0107201131000000000000
B0507323218920S11658035EA0108701145000000000000
B0507363218934S11658089EA0109101150000000000000
B0507403218885S11658115EA0110401166000000000000
B0507443218842S11658066EA0111501176000000000000
B0507483218851S11657992EA0111901182000000000000
B0507523218899S11657958EA0112801192000000000000
B0507563218945S11657980EA0113701200000000000000
B0508003218951S11658039EA0114701211000000000000
B0508043218904S11658063EA0116301229000000000000
B0508083218859S11658015EA0117001237000000000000
B0508123218859S11657937EA0117501241000000000000
B0508163218904S11657896EA0118101249000000000000
B0508203218960S11657906EA0119501261000000000000
B0508243218994S11657956EA0120401273000000000000
B0508283218980S11658009EA0122301291000000000000
B0508323218932S11658023EA0123301297000000000000
B0508363218883S11657978EA0123301301000000000000
B0508403218880S11657898EA0123901307000000000000
B0508443218924S11657841EA0124901319000000000000
B0508483218976S11657858EA0126801338000000000000
B0508523218967S11657910EA0127801349000000000000
B0508563218912S11657902EA0128901358000000000000
B0509003218890S11657829EA0129501364000000000000
B0509043218929S11657767EA0130501380000000000000
B0509083218985S11657772EA0132401392000000000000
B0509123219002S11657828EA0132701395000000000000
B0509163218964S11657861EA0134301417000000000000
B0509203218920S11657827EA0135901424000000000000
B0509243218924S11657745EA0134701413000000000000
B0509283218984S11657703EA0136201437000000000000
B0509323219034S11657733EA0137801448000000000000
B0509363219037S11657793EA0138301454000000000000
B0509403218991S11657820EA0138901467000000000000
B0509443218941S11657785EA0140701484000000000000
B0509483218928S11657711EA0141801488000000000000
B0509523218960S11657641EA0142501502000000000000
B0509563219015S11657620EA0143601507000000000000
B0510003219060S11657651EA0143201500000000000000
B0510043219086S11657709EA0142701496000000000000
B0510083219102S11657775EA0142401491000000000000
B0510123219084S11657844EA0141901484000000000000
B0510163219025S11657870EA0142001486000000000000
B0510203218972S11657818EA0142101489000000000000
B0510243218946S11657733EA0142701502000000000000
B0510283218946S11657647EA0144201516000000000000
B0510323219002S11657620EA0146101535000000000000
B0510363219034S11657667EA0147101542000000000000
B0510403219007S11657718EA0147401546000000000000
B0510443218948S11657712EA0148101553000000000000
B0510483218911S11657649EA0148801564000000000000
B0510523218921S11657572EA0149901573000000000000
B0510563218973S11657528EA0151001582000000000000
B0511003219033S11657534EA0151101581000000000000
B0511043219073S11657584EA0150901577000000000000
B0511083219078S11657653EA0150501571000000000000
B0511123219030S11657693EA0150201574000000000000
B0511163218967S11657676EA0151301587000000000000
B0511203218917S11657624EA0153001607000000000000
B0511243218917S11657549EA0155001624000000000000
B0511283218960S11657497EA0155601629000000000000
B0511323219021S11657499EA0155701628000000000000
B0511363219059S11657550EA0155601624000000000000
B0511403219065S11657620EA0154901613000000000000
B0511443219077S11657702EA0153901611000000000000
B0511483219091S11657785EA0154601615000000000000
B0511523219124S11657858EA0154201606000000000000
B0511563219186S11657900EA0152701593000000000000
B0512003219260S11657922EA0151501580000000000000
B0512043219338S11657935EA0150201571000000000000
B0512083219416S11657948EA0149601567000000000000
B0512123219493S11657961EA0149101561000000000000
B0512163219572S11657972EA0148001548000000000000
B0512203219653S11657983EA0146701540000000000000
B0512243219732S11657993EA0146301531000000000000
B0512283219813S11658004EA0144901516000000000000
B0512323219896S11658015EA0143401505000000000000
B0512363219979S11658027EA0143101504000000000000
B0512403220061S11658039EA0143401507000000000000
B0512443220139S11658049EA0144501524000000000000
B0512483220213S11658061EA0145101519000000000000
B0512523220293S11658071EA0143501503000000000000
B0512563220377S11658080EA0142001491000000000000
B0513003220464S11658089EA0141401487000000000000
B0513043220549S11658100EA0141201483000000000000
B0513083220632S11658112EA0140601475000000000000
B0513123220715S11658121EA0139701467000000000000
B0513163220800S11658128EA0138901461000000000000
B0513203220883S11658135EA0138601457000000000000
B0513243220966S11658141EA0137801449000000000000
B0513283221045S11658154EA0137101442000000000000
B0513323221123S11658170EA0137201444000000000000
B0513363221200S11658187EA0137201443000000000000
B0513403221279S11658203EA0136901438000000000000
B0513443221360S11658217EA0136701443000000000000
B0513483221433S11658230EA0139001466000000000000
B0513523221498S11658238EA0141401489000000000000
B0513563221543S11658195EA0143801511000000000000
B0514003221519S11658130EA0145701526000000000000
B0514043221457S11658128EA0146601533000000000000
B0514083221418S11658177EA0147601545000000000000
B0514123221421S11658236EA0149101559000000000000
B0514163221464S11658258EA0150601575000000000000
B0514203221499S11658212EA0151601582000000000000
B0514243221476S11658141EA0152201597000000000000
B0514283221416S11658118EA0153701612000000000000
B0514323221372S11658157EA0155501626000000000000
B0514363221377S11658216EA0156401632000000000000
B0514403221426S11658227EA0157401649000000000000
B0514443221457S11658175EA0159001662000000000000
B0514483221430S11658109EA0159401668000000000000
B0514523221366S11658093EA0160801687000000000000
B0514563221325S11658135EA0162801700000000000000
B0515003221330S11658190EA0163101703000000000000
B0515043221374S11658209EA0163301708000000000000
B0515083221424S11658179EA0164301721000000000000
B0515123221429S11658110EA0165501729000000000000
B0515163221376S11658065EA0165901738000000000000
B0515203221320S11658086EA0167101749000000000000
B0515243221307S11658144EA0167801754000000000000
B0515283221340S11658183EA0168201762000000000000
B0515323221390S11658171EA0169801776000000000000
B0515363221416S11658110EA0170501782000000000000
B0515403221398S11658036EA0170901787000000000000
B0515443221339S11658009EA0171301790000000000000
B0515483221288S11658045EA0171901800000000000000
B0515523221287S11658101EA0172701806000000000000
B0515563221329S11658123EA0173201813000000000000
B0516003221366S11658080EA0174101818000000000000
B0516043221356S11658004EA0173901816000000000000
B0516083221300S11657963EA0174501825000000000000
B0516123221247S11657984EA0175001827000000000000
B0516163221221S11658041EA0174601821000000000000
B0516203221236S11658099EA0174201820000000000000
B0516243221283S11658127EA0173701814000000000000
B0516283221340S11658138EA0173501818000000000000
B0516323221400S11658139EA0174501825000000000000
B0516363221460S11658152EA0175101831000000000000
B0516403221499S11658200EA0176201841000000000000
B0516443221522S11658261EA0176401838000000000000
B0516483221569S11658310EA0175001825000000000000
B0516523221638S11658334EA0173701813000000000000
B0516563221717S11658348EA0171801794000000000000
B0517003221803S11658360EA0170501788000000000000
B0517043221889S11658370EA0170901789000000000000
B0517083221975S11658378EA0170701785000000000000
B0517123222062S11658388EA0169601771000000000000
B0517163222153S11658400EA0167901757000000000000
B0517203222247S11658411EA0167201753000000000000
B0517243222339S11658422EA0167101758000000000000
B0517283222426S11658435EA0168401768000000000000
B0517323222513S11658444EA0168501767000000000000
B0517363222599S11658451EA0168501766000000000000
B0517403222682S11658457EA0168001759000000000000
B0517443222767S11658466EA0166801738000000000000
B0517483222856S11658477EA0164801726000000000000
B0517523222943S11658486EA0164801731000000000000
B0517563223025S11658492EA0165101734000000000000
B0518003223106S11658494EA0165101729000000000000
B0518043223186S11658492EA0164501723000000000000
B0518083223268S11658491EA0163701714000000000000
B0518123223352S11658491EA0162901709000000000000
B0518163223433S11658489EA0162701705000000000000
B0518203223515S11658490EA0162401701000000000000
B0518243223597S11658494EA0162001696000000000000
B0518283223677S11658498EA0161501693000000000000
B0518323223756S11658505EA0161001687000000000000
B0518363223835S11658509EA0160101677000000000000
B0518403223914S11658511EA0159501674000000000000
B0518443223992S11658502EA0159301667000000000000
B0518483224069S11658482EA0158501662000000000000
B0518523224145S11658455EA0158101655000000000000
B0518563224220S11658426EA0157401649000000000000
B0519003224295S11658395EA0156701642000000000000
B0519043224369S11658365EA0156201639000000000000
B0519083224445S11658338EA0155601633000000000000
B0519123224519S11658313EA0154901625000000000000
B0519163224593S11658286EA0154301621000000000000
B0519203224665S11658260EA0154501622000000000000
B0519243224736S11658234EA0153901609000000000000
B0519283224809S11658206EA0152401593000000000000
B0519323224883S11658179EA0151501589000000000000
B0519363224958S11658154EA0150301573000000000000
B0519403225036S11658132EA0148801557000000000000
B0519443225117S11658117EA0147401546000000000000
B0519483225199S11658106EA0146501539000000000000
B0519523225279S11658096EA0146101533000000000000
B0519563225360S11658088EA0145401524000000000000
B0520003225441S11658079EA0145001524000000000000
B0520043225520S11658070EA0144401516000000000000
B0520083225601S11658061EA0143801507000000000000
B0520123225682S11658050EA0142701496000000000000
B0520163225762S11658043EA0143001505000000000000
B0520203225838S11658060EA0143601510000000000000
B0520243225909S11658093EA0145001523000000000000
B0520283225945S11658158EA0146801542000000000000
B0520323225914S11658214EA0149101557000000000000
B0520363225855S11658205EA0148001536000000000000
B0520403225827S11658131EA0147201542000000000000
B0520443225842S11658056EA0148401556000000000000
B0520483225864S11657985EA0149001560000000000000
B0520523225885S11657910EA0148401548000000000000
B0520563225928S11657837EA0146201529000000000000
B0521003225991S11657781EA0144001511000000000000
B0521043226066S11657744EA0143201501000000000000
B0521083226144S11657718EA0142001491000000000000
B0521123226223S11657696EA0141101483000000000000
B0521163226303S11657676EA0140301474000000000000
B0521203226383S11657657EA0139401465000000000000
B0521243226462S11657638EA0138301453000000000000
B0521283226543S11657624EA0137301444000000000000
B0521323226625S11657611EA0136201433000000000000
B0521363226706S11657599EA0135301421000000000000
B0521403226784S11657589EA0134501418000000000000
B0521443226860S11657581EA0134301413000000000000
B0521483226936S11657575EA0133601404000000000000
B0521523227012S11657572EA0133001399000000000000
B0521563227089S11657576EA0132401393000000000000
B0522003227168S11657580EA0131801387000000000000
B0522043227249S11657592EA0131601388000000000000
B0522083227324S11657612EA0133001405000000000000
B0522123227369S11657671EA0134601420000000000000
B0522163227339S11657732EA0135601432000000000000
B0522203227283S11657709EA0136701439000000000000
B0522243227259S11657637EA0137201441000000000000
B0522283227229S11657568EA0137001436000000000000
B0522323227164S11657567EA0136701437000000000000
B0522363227133S11657633EA0136601434000000000000
B0522403227167S11657698EA0137001440000000000000
B0522443227227S11657699EA0138401454000000000000
B0522483227261S11657641EA0138501454000000000000
B0522523227250S11657568EA0138401455000000000000
B0522563227205S11657516EA0138601457000000000000
B0523003227144S11657508EA0139001463000000000000
B0523043227097S11657542EA0139501467000000000000
B0523083227096S11657603EA0139801466000000000000
B0523123227144S11657632EA0139801468000000000000
B0523163227194S11657598EA0140701480000000000000
B0523203227219S11657533EA0140501476000000000000
B0523243227228S11657455EA0140301476000000000000
B0523283227226S11657371EA0140301477000000000000
B0523323227220S11657286EA0140201472000000000000
B0523363227223S11657198EA0139301460000000000000
B0523403227265S11657125EA0138401450000000000000
B0523443227332S11657088EA0136801433000000000000
B0523483227410S11657083EA0135601424000000000000
B0523523227488S11657091EA0134401411000000000000
B0523563227565S11657105EA0133201398000000000000
B0524003227643S11657124EA0131901386000000000000
B0524043227721S11657138EA0130901376000000000000
B0524083227801S11657151EA0130201372000000000000
B0524123227882S11657161EA0130101370000000000000
B0524163227964S11657166EA0129801367000000000000
B0524203228043S11657164EA0129901367000000000000
B0524243228120S11657161EA0129001356000000000000
B0524283228198S11657161EA0127901348000000000000
B0524323228273S11657161EA0127201340000000000000
B0524363228350S11657161EA0126301329000000000000
B0524403228425S11657168EA0125201317000000000000
B0524443228501S11657176EA0124001305000000000000
B0524483228579S11657182EA0122701291000000000000
B0524523228658S11657186EA0121501279000000000000
B0524563228739S11657185EA0120601272000000000000
B0525003228818S11657179EA0119701259000000000000
B0525043228897S11657174EA0119301261000000000000
B0525083228970S11657152EA0120801276000000000000
B0525123229033S11657107EA0121001273000000000000
B0525163229092S11657051EA0120001262000000000000
B0525203229159S11656999EA0119201256000000000000
B0525243229231S11656981EA0119601264000000000000
B0525283229298S11656997EA0120701276000000000000
B0525323229335S11657053EA0121901288000000000000
B0525363229326S11657125EA0122801294000000000000
B0525403229276S11657164EA0123401296000000000000
B0525443229215S11657144EA0122701285000000000000
B0525483229183S11657077EA0122001283000000000000
B0525523229170S11657001EA0121601279000000000000
B0525563229164S11656922EA0121101272000000000000
B0526003229187S11656847EA0120801272000000000000
B0526043229234S11656791EA0120401266000000000000
B0526083229295S11656757EA0119801258000000000000
B0526123229365S11656749EA0118701246000000000000
B0526163229436S11656765EA0118101250000000000000
B0526203229493S11656802EA0120101273000000000000
B0526243229502S11656864EA0123101305000000000000
B0526283229450S11656882EA0125201318000000000000
B0526323229415S11656814EA0124201310000000000000
B0526363229442S11656750EA0125801331000000000000
B0526403229490S11656750EA0127301343000000000000
B0526443229491S11656810EA0129001356000000000000
B0526483229428S11656826EA0129901371000000000000
B0526523229382S11656765EA0131201382000000000000
B0526563229395S11656688EA0131701388000000000000
B0527003229451S11656666EA0133101402000000000000
B0527043229489S11656711EA0134101411000000000000
B0527083229478S11656783EA0135101429000000000000
B0527123229421S11656813EA0137501451000000000000
B0527163229361S11656776EA0138701463000000000000
B0527203229341S11656701EA0139801473000000000000
B0527243229372S11656640EA0140301473000000000000
B0527283229429S11656628EA0140901486000000000000
B0527323229462S11656678EA0142501500000000000000
B0527363229445S11656744EA0143301509000000000000
B0527403229381S11656758EA0145001527000000000000
B0527443229335S11656701EA0146601543000000000000
B0527483229338S11656622EA0147301547000000000000
B0527523229387S11656574EA0147401552000000000000
B0527563229449S11656583EA0148301562000000000000
B0528003229477S11656641EA0149301572000000000000
B0528043229433S11656693EA0150501583000000000000
B0528083229368S11656667EA0151601589000000000000
B0528123229341S11656588EA0152201601000000000000
B0528163229356S11656506EA0153201611000000000000
B0528203229410S11656459EA0153601611000000000000
B0528243229471S11656484EA0153701614000000000000
B0528283229494S11656553EA0155301634000000000000
B0528323229464S11656617EA0157001651000000000000
B0528363229400S11656633EA0158701671000000000000
B0528403229347S11656583EA0160401681000000000000
B0528443229347S11656505EA0161201695000000000000
B0528483229393S11656455EA0162101700000000000000
B0528523229449S11656463EA0162501706000000000000
B0528563229473S11656518EA0163701718000000000000
B0529003229443S11656576EA0164801731000000000000
B0529043229382S11656587EA0166201742000000000000
B0529083229332S11656533EA0165901739000000000000
B0529123229326S11656448EA0166501748000000000000
B0529163229359S11656373EA0166801749000000000000
B0529203229420S11656341EA0166901750000000000000
B0529243229481S11656355EA0167301757000000000000
B0529283229521S11656405EA0168301766000000000000
B0529323229524S11656472EA0168501764000000000000
B0529363229477S11656528EA0168001756000000000000
B0529403229403S11656540EA0168101762000000000000
B0529443229333S11656515EA0169901783000000000000
B0529483229294S11656451EA0171401796000000000000
B0529523229298S11656380EA0172501804000000000000
B0529563229337S11656325EA0171801791000000000000
B0530003229398S11656293EA0170701782000000000000
B0530043229467S11656271EA0169701774000000000000
B0530083229541S11656249EA0168901766000000000000
B0530123229619S11656229EA0168201760000000000000
B0530163229697S11656208EA0167501753000000000000
B0530203229776S11656190EA0166201737000000000000
B0530243229859S11656175EA0164601720000000000000
B0530283229944S11656159EA0163401716000000000000
B0530323230023S11656143EA0163601714000000000000
B0530363230101S11656132EA0163401712000000000000
B0530403230175S11656119EA0163301710000000000000
B0530443230247S11656104EA0163001702000000000000
B0530483230321S11656089EA0162201692000000000000
B0530523230396S11656076EA0160701677000000000000
B0530563230477S11656061EA0159201664000000000000
B0531003230557S11656048EA0158201654000000000000
B0531043230637S11656033EA0157701651000000000000
B0531083230711S11656017EA0157901653000000000000
B0531123230785S11656002EA0157401645000000000000
B0531163230862S11655987EA0156701638000000000000
B0531203230938S11655973EA0155801631000000000000
B0531243231015S11655959EA0155401626000000000000
B0531283231088S11655946EA0155401626000000000000
B0531323231159S11655933EA0155401620000000000000
B0531363231227S11655920EA0154801618000000000000
B0531403231293S11655905EA0153701607000000000000
B0531443231361S11655892EA0153001601000000000000
B0531483231428S11655877EA0152501597000000000000
B0531523231496S11655865EA0152001587000000000000
B0531563231562S11655855EA0151101573000000000000
B0532003231633S11655846EA0150301568000000000000
B0532043231703S11655837EA0150501577000000000000
B0532083231772S11655829EA0151701586000000000000
B0532123231838S11655825EA0152101591000000000000
B0532163231904S11655821EA0152501595000000000000
B0532203231973S11655816EA0152401591000000000000
B0532243232043S11655808EA0152701597000000000000
B0532283232110S11655786EA0154201617000000000000
B0532323232130S11655716EA0157001647000000000000
B0532363232090S11655661EA0158401657000000000000
B0532403232029S11655675EA0159401667000000000000
B0532443232003S11655735EA0160301677000000000000
B0532483232023S11655800EA0161501689000000000000
B0532523232073S11655834EA0162601701000000000000
B0532563232129S11655813EA0164201718000000000000
B0533003232149S11655749EA0165601729000000000000
B0533043232115S11655690EA0165401728000000000000
B0533083232052S11655686EA0165601737000000000000
B0533123232010S11655736EA0167701760000000000000
B0533163232000S11655803EA0169601778000000000000
B0533203232032S11655856EA0170301779000000000000
B0533243232091S11655856EA0170801791000000000000
B0533283232129S11655805EA0172801808000000000000
B0533323232119S11655736EA0173301812000000000000
B0533363232067S11655699EA0173201812000000000000
B0533403232003S11655716EA0173701822000000000000
B0533443231971S11655774EA0175601841000000000000
B0533483231989S11655838EA0176501846000000000000
B0533523232045S11655850EA0176001838000000000000
B0533563232093S11655798EA0176501852000000000000
B0534003232091S11655725EA0178001865000000000000
B0534043232045S11655684EA0178801873000000000000
B0534083231987S11655705EA0179201880000000000000
B0534123231980S11655769EA0180701894000000000000
B0534163232026S11655804EA0180901891000000000000
B0534203232085S11655781EA0181101897000000000000
B0534243232121S11655722EA0181801901000000000000
B0534283232099S11655655EA0181801901000000000000
B0534323232036S11655640EA0181401894000000000000
B0534363231990S11655694EA0180901896000000000000
B0534403232004S11655760EA0182301913000000000000
B0534443232050S11655801EA0183001911000000000000
B0534483232116S11655807EA0182101904000000000000
B0534523232186S11655795EA0181301894000000000000
B0534563232263S11655774EA0180101882000000000000
B0535003232345S11655755EA0178101861000000000000
B0535043232431S11655731EA0176701850000000000000
B0535083232517S11655705EA0176201844000000000000
B0535123232605S11655679EA0175301836000000000000
B0535163232695S11655652EA0174401825000000000000
B0535203232787S11655623EA0172501807000000000000
B0535243232881S11655596EA0171501796000000000000
B0535283232974S11655571EA0170901798000000000000
B0535323233061S11655548EA0171201798000000000000
B0535363233143S11655526EA0171901807000000000000
B0535403233221S11655504EA0172601808000000000000
B0535443233299S11655483EA0171601793000000000000
B0535483233381S11655465EA0170301784000000000000
B0535523233462S11655445EA0169901781000000000000
B0535563233541S11655424EA0170401785000000000000
B0536003233620S11655404EA0170501786000000000000
B0536043233697S11655380EA0171201800000000000000
B0536083233759S11655337EA0173301816000000000000
B0536123233814S11655285EA0174501830000000000000
B0536163233872S11655249EA0175701836000000000000
B0536203233931S11655266EA0176401837000000000000
B0536243233993S11655291EA0174201810000000000000
B0536283234070S11655296EA0172301802000000000000
B0536323234149S11655288EA0172501802000000000000
B0536363234230S11655274EA0172701808000000000000
B0536403234309S11655255EA0171801793000000000000
B0536443234394S11655235EA0169901778000000000000
B0536483234477S11655210EA0169101771000000000000
B0536523234560S11655189EA0168801769000000000000
B0536563234636S11655170EA0170001783000000000000
B0537003234711S11655151EA0169901775000000000000
B0537043234785S11655133EA0170601788000000000000
B0537083234857S11655114EA0172001800000000000000
B0537123234923S11655088EA0173501812000000000000
B0537163234962S11655029EA0174801827000000000000
B0537203234936S11654968EA0175901837000000000000
B0537243234877S11654968EA0176201837000000000000
B0537283234842S11655025EA0176401842000000000000
B0537323234851S11655093EA0176901848000000000000
B0537363234890S11655142EA0177501854000000000000
B0537403234945S11655154EA0177501850000000000000
B0537443235009S11655140EA0175601828000000000000
B0537483235083S11655120EA0173301806000000000000
B0537523235166S11655097EA0171601794000000000000
B0537563235252S11655073EA0170901788000000000000
B0538003235338S11655051EA0169701780000000000000
B0538043235421S11655033EA0169801778000000000000
B0538083235505S11655015EA0169401769000000000000
B0538123235591S11654997EA0168101762000000000000
B0538163235677S11654977EA0167801761000000000000
B0538203235761S11654962EA0167401753000000000000
B0538243235845S11654946EA0166701742000000000000
B0538283235929S11654930EA0165601738000000000000
B0538323236011S11654916EA0166201742000000000000
B0538363236092S11654898EA0166301742000000000000
B0538403236175S11654881EA0165401730000000000000
B0538443236258S11654864EA0165201731000000000000
B0538483236337S11654847EA0165901739000000000000
B0538523236415S11654830EA0166201741000000000000
B0538563236491S11654815EA0167101751000000000000
B0539003236563S11654802EA0167401751000000000000
B0539043236636S11654787EA0166801740000000000000
B0539083236716S11654772EA0165001720000000000000
B0539123236800S11654754EA0162601699000000000000
B0539163236887S11654734EA0161701696000000000000
B0539203236970S11654715EA0161501690000000000000
B0539243237052S11654696EA0161101687000000000000
B0539283237133S11654677EA0160801679000000000000
B0539323237215S11654659EA0160001675000000000000
B0539363237294S11654642EA0159601668000000000000
B0539403237375S11654625EA0158401658000000000000
B0539443237455S11654611EA0157601650000000000000
B0539483237535S11654602EA0156701638000000000000
B0539523237615S11654594EA0155401628000000000000
B0539563237694S11654583EA0155401634000000000000
B0540003237771S11654572EA0156701645000000000000
B0540043237835S11654537EA0158501667000000000000
B0540083237873S11654473EA0160201678000000000000
B0540123237905S11654408EA0160301674000000000000
B0540163237943S11654344EA0158701653000000000000
B0540203237999S11654293EA0156801636000000000000
B0540243238066S11654258EA0154901617000000000000
B0540283238140S11654234EA0153101603000000000000
B0540323238217S11654213EA0151601588000000000000
B0540363238296S11654197EA0150201572000000000000
B0540403238377S11654184EA0150001573000000000000
B0540443238458S11654175EA0149001557000000000000
B0540483238541S11654171EA0147301544000000000000
B0540523238625S11654166EA0146201535000000000000
B0540563238708S11654162EA0145501528000000000000
B0541003238790S11654158EA0145301525000000000000
B0541043238870S11654156EA0144401515000000000000
B0541083238949S11654153EA0143701506000000000000
B0541123239030S11654150EA0142801496000000000000
B0541163239110S11654148EA0142001490000000000000
B0541203239188S11654147EA0141901491000000000000
B0541243239264S11654149EA0141501482000000000000
B0541283239340S11654150EA0140401473000000000000
B0541323239417S11654149EA0139401464000000000000
B0541363239495S11654144EA0139301464000000000000
B0541403239572S11654137EA0139801472000000000000
B0541443239646S11654140EA0140301472000000000000
B0541483239717S11654152EA0139901467000000000000
B0541523239790S11654154EA0139001457000000000000
B0541563239867S11654152EA0137901445000000000000
B0542003239943S11654149EA0136901438000000000000
B0542043240021S11654144EA0136501434000000000000
B0542083240098S11654139EA0136601437000000000000
B0542123240151S11654097EA0139201465000000000000
B0542163240136S11654026EA0140701476000000000000
B0542203240071S11653994EA0141101481000000000000
B0542243240011S11654031EA0142101495000000000000
B0542283239990S11654098EA0143301504000000000000
B0542323240011S11654161EA0143501504000000000000
B0542363240059S11654196EA0143501507000000000000
B0542403240107S11654178EA0144201514000000000000
B0542443240124S11654118EA0144201509000000000000
B0542483240122S11654043EA0143101502000000000000
B0542523240120S11653962EA0142901500000000000000
B0542563240110S11653877EA0142701498000000000000
B0543003240096S11653790EA0142401498000000000000
B0543043240076S11653705EA0142901503000000000000
B0543083240045S11653623EA0143101508000000000000
B0543123239982S11653588EA0144801524000000000000
B0543163239929S11653620EA0145901535000000000000
B0543203239936S11653682EA0146801540000000000000
B0543243239989S11653712EA0145901528000000000000
B0543283240059S11653723EA0144601518000000000000
B0543323240128S11653746EA0145201528000000000000
B0543363240155S11653805EA0147701556000000000000
B0543403240107S11653835EA0149301563000000000000
B0543443240064S11653776EA0148701561000000000000
B0543483240089S11653710EA0149201571000000000000
B0543523240145S11653705EA0149801571000000000000
B0543563240185S11653753EA0149901576000000000000
B0544003240158S11653810EA0151101589000000000000
B0544043240097S11653784EA0152201599000000000000
B0544083240079S11653711EA0152901606000000000000
B0544123240114S11653654EA0153201606000000000000
B0544163240174S11653627EA0152501595000000000000
B0544203240244S11653614EA0151701590000000000000
B0544243240319S11653606EA0151001586000000000000
B0544283240396S11653599EA0150901587000000000000
B0544323240474S11653593EA0151101587000000000000
B0544363240556S11653585EA0150101569000000000000
B0544403240643S11653576EA0147701542000000000000
B0544443240738S11653571EA0145401527000000000000
B0544483240831S11653567EA0144401520000000000000
B0544523240922S11653564EA0144201522000000000000
B0544563241008S11653562EA0145201528000000000000
B0545003241091S11653560EA0144701517000000000000
B0545043241176S11653562EA0143001502000000000000
B0545083241260S11653564EA0142001492000000000000
B0545123241346S11653565EA0141201480000000000000
B0545163241431S11653572EA0140001467000000000000
B0545203241515S11653585EA0138901457000000000000
B0545243241600S11653602EA0137601444000000000000
B0545283241684S11653620EA0136701438000000000000
B0545323241765S11653633EA0136501436000000000000
B0545363241847S11653642EA0135501426000000000000
B0545403241927S11653649EA0134401412000000000000
B0545443242007S11653654EA0133801409000000000000
B0545483242085S11653659EA0133301398000000000000
B0545523242164S11653664EA0132201388000000000000
B0545563242243S11653669EA0131001376000000000000
B0546003242325S11653672EA0129901364000000000000
B0546043242406S11653680EA0128801356000000000000
B0546083242482S11653694EA0128001346000000000000
B0546123242559S11653706EA0126801334000000000000
B0546163242636S11653716EA0125601322000000000000
B0546203242712S11653721EA0125101314000000000000
B0546243242789S11653718EA0124001303000000000000
B0546283242866S11653712EA0122701289000000000000
B0546323242941S11653705EA0121601279000000000000
B0546363243014S11653695EA0120901269000000000000
B0546403243089S11653688EA0119601254000000000000
B0546443243169S11653679EA0117401235000000000000
B0546483243249S11653669EA0115701220000000000000
B0546523243331S11653656EA0114801208000000000000
B0546563243409S11653641EA0114501210000000000000
B0547003243487S11653623EA0114401203000000000000
B0547043243567S11653603EA0114001205000000000000
B0547083243646S11653586EA0114701214000000000000
B0547123243721S11653593EA0115701217000000000000
B0547163243786S11653627EA0114701202000000000000
B0547203243858S11653651EA0112301180000000000000
B0547243243933S11653649EA0110601158000000000000
B0547283244012S11653636EA0108801139000000000000
B0547323244094S11653623EA0107001125000000000000
B0547363244175S11653601EA0105001107000000000000
B0547403244256S11653575EA0104201099000000000000
B0547443244335S11653552EA0103201086000000000000
B0547483244415S11653541EA0102701084000000000000
B0547523244493S11653538EA0102101073000000000000
B0547563244573S11653529EA0100701054000000000000
B0548003244634S11653472EA0098801040000000000000
B0548043244639S11653376EA0097401024000000000000
B0548083244613S11653277EA0094900997000000000000
B0548123244584S11653181EA0093100983000000000000
B0548163244555S11653083EA0091400966000000000000
B0548203244526S11652988EA0089600948000000000000
B0548243244499S11652889EA0088400934000000000000
B0548283244473S11652793EA0087700925000000000000
B0548323244434S11652702EA0086100909000000000000
B0548363244391S11652607EA0084400894000000000000
B0548403244356S11652507EA0082700877000000000000
B0548443244332S11652401EA0081800869000000000000
B0548483244318S11652297EA0081600864000000000000
B0548523244317S11652191EA0081700869000000000000
B0548563244326S11652094EA0082700884000000000000
B0549003244319S11652004EA0084500905000000000000
B0549043244258S11651987EA0087700939000000000000
B0549083244239S11652054EA0089800954000000000000
B0549123244282S11652093EA0091400971000000000000
B0549163244330S11652060EA0092600983000000000000
B0549203244317S11651991EA0094401003000000000000
B0549243244257S11651981EA0095801015000000000000
B0549283244223S11652038EA0097401033000000000000
B0549323244249S11652090EA0099101050000000000000
B0549363244304S11652087EA0100201058000000000000
B0549403244334S11652028EA0101201072000000000000
B0549443244308S11651961EA0102701093000000000000
B0549483244246S11651956EA0104401110000000000000
B0549523244213S11652016EA0105601124000000000000
B0549563244237S11652074EA0107501141000000000000
B0550003244291S11652082EA0109001154000000000000
B0550043244323S11652030EA0110401171000000000000
B0550083244298S11651970EA0112601196000000000000
B0550123244241S11651965EA0114301210000000000000
B0550163244202S11652020EA0115701227000000000000
B0550203244213S11652080EA0117401246000000000000
B0550243244258S11652111EA0118601254000000000000
B0550283244309S11652086EA0119601266000000000000
B0550323244322S11652024EA0121101280000000000000
B0550363244282S11651973EA0122701296000000000000
B0550403244220S11651983EA0124301318000000000000
B0550443244189S11652044EA0126001334000000000000
B0550483244215S11652100EA0127501346000000000000
B0550523244269S11652100EA0128401355000000000000
B0550563244291S11652043EA0129601368000000000000
B0551003244258S11651981EA0130601381000000000000
B0551043244197S11651973EA0132401409000000000000
B0551083244163S11652030EA0134901427000000000000
B0551123244183S11652090EA0136001436000000000000
B0551163244236S11652100EA0136801445000000000000
B0551203244270S11652051EA0138001457000000000000
B0551243244252S11651983EA0139001469000000000000
B0551283244191S11651963EA0140701490000000000000
B0551323244145S11652011EA0142601505000000000000
B0551363244148S11652081EA0143701514000000000000
B0551403244194S11652122EA0144101518000000000000
B0551443244246S11652103EA0145101531000000000000
B0551483244263S11652039EA0146301547000000000000
B0551523244227S11651982EA0147801561000000000000
B0551563244165S11651979EA0149201577000000000000
B0552003244127S11652038EA0150601589000000000000
B0552043244142S11652104EA0151601595000000000000
B0552083244196S11652128EA0152201603000000000000
B0552123244240S11652093EA0153401612000000000000
B0552163244237S11652025EA0153601614000000000000
B0552203244189S11651970EA0154501627000000000000
B0552243244124S11651982EA0156401654000000000000
B0552283244096S11652048EA0158201667000000000000
B0552323244115S11652116EA0158801672000000000000
B0552363244167S11652141EA0160201686000000000000
B0552403244213S11652113EA0160801688000000000000
B0552443244224S11652048EA0160901692000000000000
B0552483244187S11651994EA0162401706000000000000
B0552523244127S11651994EA0163301716000000000000
B0552563244083S11652048EA0164101728000000000000
B0553003244084S11652119EA0165501741000000000000
B0553043244124S11652156EA0166301747000000000000
B0553083244170S11652139EA0166601750000000000000
B0553123244192S11652083EA0167001754000000000000
B0553163244176S11652018EA0167601760000000000000
B0553203244127S11651968EA0167701762000000000000
B0553243244058S11651973EA0169701790000000000000
B0553283244031S11652035EA0172101809000000000000
B0553323244055S11652096EA0172701811000000000000
B0553363244110S11652113EA0173001819000000000000
B0553403244148S11652074EA0174401833000000000000
B0553443244145S11652012EA0174701831000000000000
B0553483244097S11651963EA0174701835000000000000
B0553523244029S11651963EA0176201856000000000000
B0553563243976S11652004EA0178301869000000000000
B0554003243955S11652077EA0178401871000000000000
B0554043243972S11652155EA0179001880000000000000
B0554083244015S11652203EA0180201890000000000000
B0554123244066S11652195EA0180801895000000000000
B0554163244105S11652148EA0180201889000000000000
B0554203244136S11652085EA0179901886000000000000
B0554243244146S11652008EA0179601883000000000000
B0554283244167S11651930EA0178701869000000000000
B0554323244224S11651875EA0177801861000000000000
B0554363244300S11651852EA0176901853000000000000
B0554403244383S11651848EA0175301833000000000000
B0554443244473S11651855EA0172601809000000000000
B0554483244568S11651868EA0171101798000000000000
B0554523244662S11651881EA0170501794000000000000
B0554563244757S11651894EA0170001786000000000000
B0555003244855S11651905EA0168001770000000000000
B0555043244948S11651914EA0167801766000000000000
B0555083245041S11651924EA0167001751000000000000
B0555123245134S11651930EA0165701740000000000000
B0555163245224S11651935EA0164901734000000000000
B0555203245314S11651939EA0164201729000000000000
B0555243245401S11651943EA0164501730000000000000
B0555283245485S11651948EA0164101726000000000000
B0555323245570S11651955EA0163901726000000000000
B0555363245653S11651963EA0163901722000000000000
B0555403245736S11651973EA0163801722000000000000
B0555443245814S11651986EA0164501728000000000000
B0555483245891S11651999EA0164601727000000000000
B0555523245968S11652013EA0163901715000000000000
B0555563246052S11652026EA0161701697000000000000
B0556003246138S11652037EA0160901692000000000000
B0556043246222S11652047EA0160101681000000000000
B0556083246308S11652061EA0158301662000000000000
B0556123246391S11652080EA0157001644000000000000
B0556163246479S11652098EA0155401629000000000000
B0556203246567S11652117EA0154501629000000000000
B0556243246654S11652137EA0154001617000000000000
B0556283246742S11652154EA0152901608000000000000
B0556323246830S11652165EA0152401604000000000000
B0556363246917S11652176EA0152401603000000000000
B0556403247004S11652184EA0152701611000000000000
B0556443247086S11652191EA0154501628000000000000
B0556483247162S11652194EA0155301629000000000000
B0556523247242S11652199EA0154801621000000000000
B0556563247324S11652206EA0154501626000000000000
B0557003247402S11652223EA0155301629000000000000
B0557043247477S11652243EA0154401613000000000000
B0557083247559S11652259EA0151801590000000000000
B0557123247642S11652273EA0150501580000000000000
B0557163247727S11652285EA0149701574000000000000
B0557203247810S11652295EA0149101569000000000000
B0557243247894S11652306EA0148801564000000000000
B0557283247979S11652317EA0147801550000000000000
B0557323248063S11652327EA0146901552000000000000
B0557363248140S11652336EA0148201561000000000000
B0557403248213S11652342EA0148301556000000000000
B0557443248287S11652350EA0147101543000000000000
B0557483248362S11652354EA0146301538000000000000
B0557523248435S11652358EA0145801534000000000000
B0557563248507S11652363EA0145201526000000000000
B0558003248579S11652368EA0144401517000000000000
B0558043248652S11652375EA0143601510000000000000
B0558083248724S11652381EA0142901501000000000000
B0558123248794S11652388EA0142101494000000000000
B0558163248865S11652394EA0141501486000000000000
B0558203248937S11652402EA0140901482000000000000
B0558243249006S11652410EA0140801480000000000000
B0558283249073S11652416EA0140401474000000000000
B0558323249144S11652427EA0139301461000000000000
B0558363249216S11652438EA0137601445000000000000
B0558403249292S11652451EA0136201434000000000000
B0558443249367S11652468EA0135301426000000000000
B0558483249440S11652485EA0134601417000000000000
B0558523249513S11652503EA0133701407000000000000
B0558563249586S11652525EA0133601409000000000000
B0559003249654S11652550EA0134201418000000000000
B0559043249717S11652585EA0135501434000000000000
B0559083249742S11652658EA0137901458000000000000
B0559123249706S11652722EA0139101458000000000000
B0559163249639S11652711EA0137901445000000000000
B0559203249610S11652640EA0137901454000000000000
B0559243249628S11652575EA0139401472000000000000
B0559283249674S11652550EA0141201491000000000000
B0559323249716S11652588EA0142401501000000000000
B0559363249721S11652662EA0142901503000000000000
B0559403249679S11652724EA0142401497000000000000
B0559443249614S11652718EA0141901493000000000000
B0559483249589S11652653EA0141701498000000000000
B0559523249597S11652585EA0142401506000000000000
B0559563249621S11652523EA0143301519000000000000
B0600003249669S11652519EA0144401525000000000000
B0600043249686S11652583EA0144101520000000000000
B0600083249654S11652659EA0143701512000000000000
B0600123249630S11652745EA0143301510000000000000
B0600163249644S11652830EA0142201500000000000000
B0600203249695S11652893EA0141201489000000000000
B0600243249761S11652941EA0139401471000000000000
B0600283249839S11652982EA0138201455000000000000
B0600323249920S11653019EA0137801462000000000000
B0600363249996S11653057EA0139201477000000000000
B0600403250068S11653061EA0141401507000000000000
B0600443250078S11652993EA0145101543000000000000
B0600483250026S11652965EA0146701554000000000000
B0600523249973S11653001EA0147101554000000000000
B0600563249966S11653074EA0147401559000000000000
B0601003250009S11653121EA0148101566000000000000
B0601043250063S11653101EA0148701571000000000000
B0601083250074S11653031EA0149501577000000000000
B0601123250026S11652984EA0149701579000000000000
B0601163249959S11652996EA0150301586000000000000
B0601203249911S11653045EA0151501602000000000000
B0601243249914S11653110EA0152301604000000000000
B0601283249959S11653152EA0152701607000000000000
B0601323250015S11653142EA0153001612000000000000
B0601363250047S11653092EA0154001623000000000000
B0601403250015S11653038EA0154301619000000000000
B0601443249948S11653043EA0153001609000000000000
B0601483249887S11653094EA0152901610000000000000
B0601523249831S11653155EA0153301616000000000000
B0601563249795S11653226EA0154401624000000000000
B0602003249807S11653303EA0154801626000000000000
B0602043249856S11653356EA0154101618000000000000
B0602083249922S11653381EA0153401610000000000000
B0602123249996S11653393EA0152201596000000000000
B0602163250077S11653403EA0150401581000000000000
B0602203250161S11653415EA0148901564000000000000
B0602243250249S11653424EA0147301551000000000000
B0602283250333S11653434EA0146701544000000000000
B0602323250418S11653450EA0145801534000000000000
B0602363250502S11653469EA0145001527000000000000
B0602403250587S11653487EA0143701515000000000000
B0602443250674S11653507EA0142601498000000000000
B0602483250762S11653528EA0141201486000000000000
B0602523250852S11653547EA0140401481000000000000
B0602563250939S11653565EA0139701472000000000000
B0603003251025S11653584EA0138901462000000000000
B0603043251109S11653602EA0137401446000000000000
B0603083251195S11653619EA0135901429000000000000
B0603123251279S11653636EA0134301414000000000000
B0603163251364S11653651EA0133801407000000000000
B0603203251448S11653660EA0132401392000000000000
B0603243251533S11653664EA0131301382000000000000
B0603283251617S11653667EA0130301370000000000000
B0603323251702S11653667EA0128901356000000000000
B0603363251788S11653664EA0127901346000000000000
B0603403251874S11653662EA0126501334000000000000
B0603443251959S11653658EA0125201320000000000000
B0603483252045S11653655EA0124401311000000000000
B0603523252131S11653654EA0123701302000000000000
B0603563252215S11653653EA0122901295000000000000
B0604003252299S11653651EA0122401289000000000000
B0604043252379S11653650EA0122101287000000000000
B0604083252457S11653649EA0121501282000000000000
B0604123252535S11653649EA0121001275000000000000
B0604163252613S11653646EA0119801262000000000000
B0604203252693S11653643EA0119401259000000000000
B0604243252772S11653643EA0118501248000000000000
B0604283252852S11653643EA0117301234000000000000
B0604323252933S11653645EA0115701218000000000000
B0604363253015S11653649EA0113501194000000000000
B0604403253098S11653656EA0111801178000000000000
B0604443253183S11653662EA0109801161000000000000
B0604483253266S11653666EA0108801151000000000000
B0604523253344S11653669EA0109301158000000000000
B0604563253413S11653654EA0111401179000000000000
B0605003253470S11653625EA0112801196000000000000
B0605043253521S11653593EA0114001206000000000000
B0605083253547S11653538EA0115001214000000000000
B0605123253517S11653484EA0115501214000000000000
B0605163253450S11653480EA0114701209000000000000
B0605203253415S11653545EA0114201203000000000000
B0605243253437S11653612EA0114101206000000000000
B0605283253487S11653650EA0115501224000000000000
B0605323253535S11653640EA0117301240000000000000
B0605363253535S11653577EA0117901247000000000000
B0605403253479S11653543EA0119201267000000000000
B0605443253424S11653578EA0120301275000000000000
B0605483253417S11653647EA0120701278000000000000
B0605523253462S11653677EA0121601290000000000000
B0605563253502S11653637EA0122401298000000000000
B0606003253489S11653569EA0123101307000000000000
B0606043253430S11653541EA0124601323000000000000
B0606083253369S11653565EA0125301326000000000000
B0606123253340S11653634EA0125601332000000000000
B0606163253366S11653693EA0126101336000000000000
B0606203253419S11653699EA0126401338000000000000
B0606243253457S11653646EA0126601342000000000000
B0606283253475S11653571EA0127401354000000000000
B0606323253431S11653520EA0129201376000000000000
B0606363253379S11653558EA0131001387000000000000
B0606403253378S11653630EA0131701399000000000000
B0606443253423S11653660EA0133301414000000000000
B0606483253463S11653620EA0133901418000000000000
B0606523253449S11653549EA0134501431000000000000
B0606563253385S11653542EA0136601448000000000000
B0607003253349S11653606EA0137601458000000000000
B0607043253370S11653668EA0138801470000000000000
B0607083253423S11653671EA0139301474000000000000
B0607123253456S11653608EA0139301474000000000000
B0607163253432S11653530EA0139901488000000000000
B0607203253369S11653511EA0142301515000000000000
B0607243253320S11653556EA0143801524000000000000
B0607283253320S11653623EA0144601530000000000000
B0607323253369S11653654EA0144801531000000000000
B0607363253417S11653620EA0145601542000000000000
B0607403253418S11653549EA0146201548000000000000
B0607443253363S11653508EA0147501565000000000000
B0607483253313S11653550EA0149001581000000000000
B0607523253320S11653611EA0150401590000000000000
B0607563253374S11653621EA0150501590000000000000
B0608003253408S11653568EA0151101599000000000000
B0608043253385S11653502EA0152101612000000000000
B0608083253324S11653494EA0153701629000000000000
B0608123253281S11653546EA0154901638000000000000
B0608163253292S11653614EA0155301639000000000000
B0608203253343S11653646EA0155401638000000000000
B0608243253393S11653615EA0155801641000000000000
B0608283253423S11653545EA0155601640000000000000
B0608323253406S11653471EA0156901662000000000000
B0608363253350S11653471EA0159301682000000000000
B0608403253339S11653534EA0160301693000000000000
B0608443253382S11653565EA0161401701000000000000
B0608483253428S11653532EA0161701704000000000000
B0608523253430S11653459EA0162501717000000000000
B0608563253380S11653424EA0164701739000000000000
B0609003253331S11653458EA0166201750000000000000
B0609043253323S11653525EA0166801755000000000000
B0609083253363S11653568EA0167001756000000000000
B0609123253423S11653568EA0166901753000000000000
B0609163253492S11653550EA0165501736000000000000
B0609203253571S11653528EA0163901721000000000000
B0609243253657S11653508EA0162601707000000000000
B0609283253744S11653487EA0161801699000000000000
B0609323253833S11653465EA0160801685000000000000
B0609363253924S11653443EA0159001668000000000000
B0609403254016S11653428EA0157501652000000000000
B0609443254113S11653422EA0155401631000000000000
B0609483254215S11653422EA0153801617000000000000
B0609523254316S11653422EA0152501605000000000000
B0609563254416S11653422EA0151101591000000000000
B0610003254518S11653422EA0150201576000000000000
B0610043254617S11653422EA0148701564000000000000
B0610083254714S11653421EA0147701552000000000000
B0610123254810S11653420EA0146401538000000000000
B0610163254906S11653416EA0145201528000000000000
B0610203254999S11653412EA0144501520000000000000
B0610243255091S11653408EA0143601506000000000000
B0610283255182S11653402EA0141901491000000000000
B0610323255274S11653394EA0140901479000000000000
B0610363255365S11653386EA0140001470000000000000
B0610403255456S11653380EA0138901460000000000000
B0610443255546S11653374EA0137601445000000000000
B0610483255634S11653370EA0136301433000000000000
B0610523255723S11653367EA0135701429000000000000
B0610563255809S11653367EA0135501428000000000000
B0611003255891S11653369EA0135201423000000000000
B0611043255972S11653369EA0135001419000000000000
B0611083256054S11653368EA0134001408000000000000
B0611123256138S11653367EA0133601401000000000000
B0611163256222S11653364EA0132501392000000000000
B0611203256308S11653360EA0131701384000000000000
B0611243256396S11653356EA0130901378000000000000
B0611283256481S11653354EA0130901377000000000000
B0611323256565S11653354EA0130101369000000000000
B0611363256648S11653352EA0129601367000000000000
B0611403256730S11653354EA0129601360000000000000
B0611443256814S11653352EA0128301354000000000000
B0611483256897S11653347EA0128701355000000000000
B0611523256980S11653341EA0128001348000000000000
B0611563257062S11653329EA0128301351000000000000
B0612003257141S11653322EA0127901345000000000000
B0612043257222S11653316EA0127301340000000000000
B0612083257302S11653312EA0127001335000000000000
B0612123257383S11653307EA0126801336000000000000
B0612163257458S11653304EA0127301342000000000000
B0612203257534S11653300EA0127101339000000000000
B0612243257608S11653296EA0127301341000000000000
B0612283257681S11653286EA0128801360000000000000
B0612323257727S11653237EA0132001392000000000000
B0612363257700S11653172EA0134001410000000000000
B0612403257631S11653185EA0134801420000000000000
B0612443257612S11653260EA0136401446000000000000
B0612483257649S11653296EA0139301468000000000000
B0612523257686S11653259EA0140201475000000000000
B0612563257669S11653190EA0141201491000000000000
B0613003257610S11653161EA0142601503000000000000
B0613043257564S11653211EA0143801517000000000000
B0613083257583S11653266EA0145701538000000000000
B0613123257630S11653260EA0147001548000000000000
B0613163257639S11653196EA0148101559000000000000
B0613203257597S11653140EA0149001566000000000000
B0613243257534S11653140EA0150101581000000000000
B0613283257509S11653204EA0151401596000000000000
B0613323257544S11653244EA0153501616000000000000
B0613363257586S11653220EA0154801628000000000000
B0613403257582S11653152EA0155701636000000000000
B0613443257526S11653123EA0156201643000000000000
B0613483257474S11653160EA0157101656000000000000
B0613523257473S11653225EA0158801671000000000000
B0613563257514S11653252EA0160201687000000000000
B0614003257552S11653216EA0161701698000000000000
B0614043257549S11653149EA0162101700000000000000
B0614083257501S11653101EA0162101702000000000000
B0614123257434S11653104EA0162801709000000000000
B0614163257375S11653147EA0163801726000000000000
B0614203257356S11653214EA0165101731000000000000
B0614243257386S11653268EA0165001731000000000000
B0614283257439S11653277EA0166201752000000000000
B0614323257465S11653224EA0168101769000000000000
B0614363257428S11653160EA0168501772000000000000
B0614403257361S11653153EA0169501788000000000000
B0614443257314S11653205EA0170801793000000000000
B0614483257313S11653277EA0170401787000000000000
B0614523257361S11653324EA0170201788000000000000
B0614563257422S11653307EA0170801796000000000000
B0615003257454S11653239EA0172901821000000000000
B0615043257439S11653165EA0174401831000000000000
B0615083257384S11653117EA0174701835000000000000
B0615123257318S11653130EA0175601847000000000000
B0615163257284S11653194EA0176601856000000000000
B0615203257296S11653263EA0177401860000000000000
B0615243257345S11653296EA0178401876000000000000
B0615283257392S11653268EA0180001889000000000000
B0615323257405S11653196EA0180601892000000000000
B0615363257370S11653130EA0180601895000000000000
B0615403257305S11653122EA0181901909000000000000
B0615443257259S11653172EA0182601913000000000000
B0615483257257S11653243EA0183301924000000000000
B0615523257293S11653294EA0184001931000000000000
B0615563257348S11653283EA0185301946000000000000
B0616003257374S11653220EA0187001955000000000000
B0616043257353S11653147EA0186601949000000000000
B0616083257298S11653096EA0186101952000000000000
B0616123257232S11653099EA0187101958000000000000
B0616163257198S11653164EA0187101959000000000000
B0616203257219S11653233EA0188001971000000000000
B0616243257262S11653286EA0189201984000000000000
B0616283257315S11653273EA0191202003000000000000
B0616323257319S11653204EA0192202010000000000000
B0616363257271S11653157EA0191702000000000000000
B0616403257206S11653182EA0190501993000000000000
B0616443257193S11653261EA0190802002000000000000
B0616483257215S11653337EA0192202014000000000000
B0616523257266S11653368EA0193702029000000000000
B0616563257301S11653320EA0194902038000000000000
B0617003257270S11653255EA0195102038000000000000
B0617043257207S11653252EA0195602045000000000000
B0617083257179S11653318EA0195702045000000000000
B0617123257205S11653385EA0195202043000000000000
B0617163257266S11653416EA0194902037000000000000
B0617203257340S11653415EA0193302013000000000000
B0617243257423S11653404EA0190601989000000000000
B0617283257513S11653389EA0188401970000000000000
B0617323257608S11653368EA0186201948000000000000
B0617363257705S11653347EA0184701937000000000000
B0617403257803S11653325EA0183301924000000000000
B0617443257898S11653298EA0182601917000000000000
B0617483257991S11653269EA0182201910000000000000
B0617523258082S11653238EA0181901906000000000000
B0617563258175S11653209EA0180901894000000000000
B0618003258268S11653179EA0179901878000000000000
B0618043258362S11653148EA0178501872000000000000
B0618083258454S11653116EA0177901866000000000000
B0618123258546S11653083EA0177601865000000000000
B0618163258637S11653056EA0177601862000000000000
B0618203258728S11653039EA0177001851000000000000
B0618243258819S11653026EA0176401848000000000000
B0618283258909S11653013EA0175401835000000000000
B0618323258998S11653003EA0175001833000000000000
B0618363259082S11652996EA0175801848000000000000
B0618403259160S11652991EA0177701865000000000000
B0618443259238S11652984EA0178401862000000000000
B0618483259319S11652980EA0177701849000000000000
B0618523259403S11652980EA0175401828000000000000
B0618563259490S11652980EA0174001821000000000000
B0619003259575S11652977EA0173701817000000000000
B0619043259657S11652970EA0173001811000000000000
B0619083259739S11652957EA0172101803000000000000
B0619123259817S11652940EA0171901800000000000000
B0619163259892S11652921EA0171601796000000000000
B0619203259967S11652897EA0170701785000000000000
B0619243300044S11652876EA0169601773000000000000
B0619283300122S11652850EA0168601767000000000000
B0619323300201S11652828EA0168201763000000000000
B0619363300281S11652822EA0168201762000000000000
B0619403300359S11652822EA0167401752000000000000
B0619443300439S11652815EA0167001745000000000000
B0619483300521S11652800EA0165901735000000000000
B0619523300603S11652774EA0165101731000000000000
B0619563300681S11652749EA0165401736000000000000
B0620003300753S11652726EA0165701737000000000000
B0620043300820S11652702EA0165601733000000000000
B0620083300886S11652678EA0165101728000000000000
B0620123300953S11652653EA0164701724000000000000
B0620163301020S11652626EA0164401722000000000000
B0620203301087S11652593EA0164601726000000000000
B0620243301149S11652562EA0165401738000000000000
B0620283301208S11652532EA0167101754000000000000
B0620323301263S11652501EA0167801759000000000000
B0620363301314S11652463EA0168801768000000000000
B0620403301339S11652408EA0170101782000000000000
B0620443301313S11652367EA0170501783000000000000
B0620483301274S11652429EA0166701749000000000000
B0620523301297S11652523EA0166501758000000000000
B0620563301351S11652588EA0167301761000000000000
B0621003301419S11652620EA0166501749000000000000
B0621043301494S11652615EA0165401741000000000000
B0621083301557S11652570EA0165701743000000000000
B0621123301616S11652514EA0165301735000000000000
B0621163301660S11652437EA0164001723000000000000
B0621203301679S11652345EA0163201718000000000000
B0621243301695S11652255EA0163001711000000000000
B0621283301705S11652164EA0161901697000000000000
B0621323301709S11652070EA0161001690000000000000
B0621363301752S11652005EA0159901678000000000000
B0621403301820S11652020EA0158701667000000000000
B0621443301855S11652109EA0157301653000000000000
B0621483301847S11652224EA0156201641000000000000
B0621523301820S11652336EA0155301632000000000000
B0621563301786S11652445EA0153801616000000000000
B0622003301750S11652554EA0152601605000000000000
B0622043301720S11652666EA0151401591000000000000
B0622083301690S11652776EA0149701577000000000000
B0622123301663S11652884EA0148601561000000000000
B0622163301638S11652991EA0147301548000000000000
B0622203301614S11653100EA0145601532000000000000
B0622243301594S11653211EA0144201519000000000000
B0622283301573S11653321EA0143601512000000000000
B0622323301553S11653426EA0143201510000000000000
B0622363301535S11653528EA0142901505000000000000
B0622403301517S11653627EA0142401500000000000000
B0622443301499S11653723EA0142301500000000000000
B0622483301483S11653816EA0142101496000000000000
B0622523301466S11653909EA0141701491000000000000
B0622563301448S11654000EA0140601478000000000000
B0623003301429S11654092EA0139001464000000000000
B0623043301408S11654183EA0138601464000000000000
B0623083301386S11654270EA0139601471000000000000
B0623123301365S11654356EA0139801471000000000000
B0623163301344S11654447EA0140001472000000000000
B0623203301325S11654540EA0139801467000000000000
B0623243301302S11654637EA0138801458000000000000
B0623283301279S11654732EA0137301442000000000000
B0623323301254S11654826EA0136101431000000000000
B0623363301230S11654919EA0134801418000000000000
B0623403301206S11655014EA0133901411000000000000
B0623443301184S11655110EA0133801411000000000000
B0623483301162S11655203EA0133701411000000000000
B0623523301140S11655297EA0133701411000000000000
B0623563301120S11655388EA0133801410000000000000
B0624003301101S11655483EA0133101400000000000000
B0624043301081S11655583EA0131901388000000000000
B0624083301063S11655686EA0131001382000000000000
B0624123301048S11655788EA0130601374000000000000
B0624163301032S11655892EA0129401361000000000000
B0624203301018S11655995EA0128001349000000000000
B0624243301002S11656095EA0127301341000000000000
B0624283300987S11656194EA0126101329000000000000
B0624323300970S11656294EA0125101320000000000000
B0624363300954S11656393EA0124401313000000000000
B0624403300938S11656489EA0123801305000000000000
B0624443300924S11656585EA0122601292000000000000
B0624483300909S11656682EA0121401279000000000000
B0624523300896S11656780EA0119801265000000000000
B0624563300880S11656879EA0118801258000000000000
B0625003300864S11656978EA0118101251000000000000
B0625043300847S11657075EA0117601247000000000000
B0625083300832S11657174EA0116901236000000000000
B0625123300815S11657277EA0115401223000000000000
B0625163300799S11657381EA0113901207000000000000
B0625203300785S11657484EA0113001199000000000000
B0625243300771S11657582EA0112801195000000000000
B0625283300758S11657679EA0112501191000000000000
B0625323300745S11657772EA0111501182000000000000
B0625363300730S11657863EA0110701173000000000000
B0625403300717S11657953EA0110001162000000000000
B0625443300701S11658043EA0108801150000000000000
B0625483300682S11658134EA0107701138000000000000
B0625523300664S11658226EA0106401127000000000000
B0625563300647S11658318EA0105501117000000000000
B0626003300629S11658412EA0104701107000000000000
B0626043300613S11658505EA0103501097000000000000
B0626083300597S11658599EA0102801091000000000000
B0626123300578S11658691EA0102201084000000000000
B0626163300560S11658781EA0101601077000000000000
B0626203300542S11658871EA0100601065000000000000
B0626243300524S11658960EA0099201048000000000000
B0626283300503S11659054EA0097701037000000000000
B0626323300485S11659146EA0097101036000000000000
B0626363300476S11659239EA0097901045000000000000
B0626403300494S11659322EA0098901054000000000000
B0626443300552S11659324EA0101201083000000000000
B0626483300559S11659259EA0103701106000000000000
B0626523300507S11659227EA0104601114000000015000
B0626563300459S11659266EA0105601126000000000000
B0627003300456S11659335EA0106201127000000000000
B0627043300503S11659379EA0106401132000000000000
B0627083300560S11659365EA0107001138000000000000
B0627123300580S11659301EA0107801145000000000000
B0627163300543S11659249EA0108801157000000000000
B0627203300485S11659241EA0109701164000000000000
B0627243300444S11659287EA0110501171000000000000
B0627283300455S11659353EA0110301170000000000000
B0627323300502S11659388EA0110601174000000000000
B0627363300560S11659382EA0110801172000000000000
B0627403300595S11659330EA0110601172000000000000
B0627443300586S11659263EA0110601170000000000000
B0627483300532S11659231EA0110301169000000000000
B0627523300464S11659236EA0110301169000000000000
B0627563300405S11659270EA0111101179000000000000
B0628003300374S11659339EA0111301178000000000000
B0628043300373S11659417EA0111701182000000000000
B0628083300417S11659461EA0112301188000000000000
B0628123300469S11659444EA0112101186000000000000
B0628163300519S11659408EA0111901183000000000000
B0628203300569S11659362EA0111101175000000000000
B0628243300606S11659298EA0110501171000000000000
B0628283300598S11659222EA0110601171000000000000
B0628323300537S11659204EA0110601172000000000000
B0628363300478S11659246EA0110701176000000000000
B0628403300477S11659322EA0111001177000000000000
B0628443300533S11659318EA0111801181000000000000
B0628483300525S11659246EA0111601180000000000000
B0628523300463S11659223EA0111901186000000000000
B0628563300412S11659267EA0113001195000000000000
B0629003300416S11659337EA0113801202000000000000
B0629043300470S11659371EA0113201197000000000000
B0629083300524S11659341EA0113801209000000000000
B0629123300521S11659272EA0114301207000000000000
B0629163300473S11659218EA0113901206000000000000
B0629203300416S11659171EA0113601200000000000000
B0629243300346S11659165EA0113001196000000000000
B0629283300290S11659220EA0112601195000000000000
B0629323300257S11659297EA0112901198000000000000
B0629363300243S11659382EA0112901200000000000000
B0629403300244S11659462EA0114101213000000000000
B0629443300286S11659510EA0115201219000000000000
B0629483300329S11659478EA0114701215000000000000
B0629523300296S11659427EA0114801214000000000000
B0629563300243S11659458EA0114001210000000000000
B0630003300223S11659532EA0113601206000000000000
B0630043300220S11659613EA0112701193000000000000
B0630083300221S11659701EA0111401180000000000000
B0630123300226S11659794EA0109801164000000000000
B0630163300229S11659890EA0107901143000000000000
B0630203300227S11659990EA0105901125000000000000
B0630243300223S11700089EA0104701112000000000000
B0630283300221S11700188EA0104501116000000000000
B0630323300229S11700279EA0106001131000000000000
B0630363300259S11700359EA0107401145000000000000
B0630403300295S11700437EA0108501154000000000000
B0630443300351S11700468EA0110001175000000000000
B0630483300373S11700418EA0111901188000000000000
B0630523300331S11700380EA0111901182000000000000
B0630563300279S11700418EA0111901189000000000000
B0631003300261S11700493EA0112301191000000000000
B0631043300281S11700569EA0112801199000000000000
B0631083300327S11700615EA0113701207000000000000
B0631123300379S11700619EA0114201208000000000000
B0631163300402S11700574EA0113701200000000000000
B0631203300366S11700522EA0111901183000000000000
B0631243300299S11700530EA0111501182000000000000
B0631283300249S11700592EA0112101187000000000000
B0631323300225S11700673EA0111901184000000000000
B0631363300214S11700760EA0111701184000000000000
B0631403300222S11700844EA0111701185000000000000
B0631443300261S11700899EA0112801195000000000000
B0631483300309S11700895EA0112801192000000000000
B0631523300321S11700839EA0112001182000000000000
B0631563300273S11700799EA0111001175000000000000
B0632003300203S11700819EA0110701171000000000000
B0632043300153S11700890EA0110401172000000000000
B0632083300129S11700970EA0109701159000000000000
B0632123300103S11701060EA0106901131000000000000
B0632163300075S11701159EA0105201120000000000000
B0632203300052S11701256EA0105101119000000000000
B0632243300030S11701351EA0104701109000000000000
B0632283300009S11701446EA0103501095000000000000
B0632323259986S11701541EA0102001083000000000000
B0632363259961S11701635EA0101401075000000000000
B0632403259935S11701727EA0100301064000000000000
B0632443259904S11701819EA0099401055000000000000
B0632483259871S11701911EA0098401044000000000000
B0632523259839S11702004EA0097701040000000000000
B0632563259806S11702093EA0097501032000000000000
B0633003259768S11702181EA0096601020000000000000
B0633043259723S11702266EA0095101005000000000000
B0633083259674S11702350EA0094301001000000000000
B0633123259623S11702428EA0094701010000000000000
B0633163259572S11702503EA0095901023000000000000
B0633203259557S11702582EA0097701040000000000000
B0633243259596S11702633EA0098501045000000000000
B0633283259653S11702608EA0098501044000000000000
B0633323259667S11702529EA0098901053000000000000
B0633363259641S11702452EA0100101064000000000000
B0633403259581S11702418EA0101001080000000000000
B0633443259528S11702456EA0102401090000000000000
B0633483259527S11702520EA0103001094000000000000
B0633523259571S11702550EA0103001095000000000000
B0633563259618S11702515EA0103501104000000000000
B0634003259615S11702444EA0104701115000000000000
B0634043259562S11702403EA0105501122000000000000
B0634083259498S11702417EA0105901127000000000000
B0634123259463S11702474EA0106701135000000000000
B0634163259476S11702537EA0107201137000000000000
B0634203259528S11702560EA0107001137000000000000
B0634243259575S11702521EA0107401144000000000000
B0634283259564S11702452EA0108801156000000000000
B0634323259510S11702421EA0109401160000000000000
B0634363259454S11702454EA0109901169000000000000
B0634403259447S11702516EA0111301180000000000000
B0634443259488S11702551EA0111101177000000000000
B0634483259545S11702543EA0111101179000000000000
B0634523259571S11702486EA0111801186000000000000
B0634563259547S11702424EA0111701180000000000000
B0635003259484S11702404EA0110901170000000000000
B0635043259414S11702425EA0110201173000000000000
B0635083259349S11702456EA0111701188000000000000
B0635123259339S11702517EA0113201202000000000000
B0635163259390S11702522EA0113701208000000000000
B0635203259420S11702465EA0114301212000000000000
B0635243259404S11702391EA0114301213000000000000
B0635283259349S11702356EA0115301227000000000000
B0635323259299S11702394EA0116601231000000000000
B0635363259304S11702463EA0116701237000000000000
B0635403259355S11702472EA0117801249000000000000
B0635443259382S11702413EA0118201252000000000000
B0635483259359S11702343EA0118801259000000000000
B0635523259302S11702325EA0119601268000000000000
B0635563259252S11702369EA0119001259000000000000
B0636003259232S11702443EA0118601261000000000000
B0636043259264S11702493EA0119701276000000000000
B0636083259310S11702454EA0121001284000000000000
B0636123259306S11702379EA0121301284000000000000
B0636163259254S11702342EA0121701293000000000000
B0636203259194S11702365EA0122201293000000000000
B0636243259157S11702428EA0122101293000000000000
B0636283259167S11702495EA0122501301000000000000
B0636323259219S11702502EA0123701310000000000000
B0636363259247S11702444EA0124001314000000000000
B0636403259222S11702376EA0124101313000000000000
B0636443259159S11702361EA0124601320000000000000
B0636483259104S11702405EA0124701320000000000000
B0636523259063S11702470EA0124801321000000000000
B0636563259029S11702541EA0125301331000000000000
B0637003259039S11702608EA0125501326000000000000
B0637043259092S11702611EA0125301323000000000000
B0637083259143S11702568EA0124201311000000000000
B0637123259195S11702513EA0123401304000000000000
B0637163259232S11702437EA0122701300000000000000
B0637203259261S11702353EA0122701300000000000000
B0637243259260S11702272EA0123401307000000000000
B0637283259211S11702223EA0123901307000000000000
B0637323259143S11702234EA0122301287000000000000
B0637363259077S11702290EA0120201273000000000000
B0637403259017S11702364EA0119001261000000000000
B0637443258966S11702447EA0118801264000000000000
B0637483258920S11702532EA0119701277000000000000
B0637523258878S11702611EA0121001287000000000000
B0637563258840S11702685EA0121501284000000000000
B0638003258803S11702764EA0120801276000000000000
B0638043258766S11702851EA0120001269000000000000
B0638083258731S11702940EA0119801270000000000000
B0638123258700S11703029EA0119401260000000000000
B0638163258667S11703120EA0118201248000000000000
B0638203258640S11703215EA0118001251000000000000
B0638243258618S11703302EA0118901263000000000000
B0638283258598S11703386EA0119901266000000000000
B0638323258588S11703475EA0119701272000000000000
B0638363258565S11703557EA0121301287000000000000
B0638403258507S11703587EA0122601295000000000000
B0638443258467S11703536EA0122301292000000000000
B0638483258485S11703475EA0122901299000000000000
B0638523258530S11703436EA0123401302000000000000
B0638563258588S11703439EA0123801306000000000000
B0639003258631S11703496EA0124401315000000000000
B0639043258640S11703574EA0125101324000000000000
B0639083258597S11703630EA0126101329000000000000
B0639123258532S11703651EA0125101315000000000000
B0639163258467S11703695EA0123901305000000000000
B0639203258428S11703776EA0123101297000000000000
B0639243258419S11703867EA0123201309000000000000
B0639283258441S11703941EA0126201346000000000000
B0639323258489S11703939EA0129101366000000000000
B0639363258491S11703880EA0130301379000000000000
B0639403258440S11703841EA0131301386000000000000
B0639443258376S11703864EA0131901392000000000000
B0639483258353S11703933EA0133101412000000000000
B0639523258388S11703973EA0135001428000000000000
B0639563258435S11703949EA0135401430000000000000
B0640003258445S11703880EA0136501446000000000000
B0640043258400S11703828EA0137901458000000000000
B0640083258333S11703830EA0138701466000000000000
B0640123258289S11703891EA0139801480000000000000
B0640163258301S11703959EA0141901503000000000000
B0640203258349S11703980EA0143101515000000000000
B0640243258388S11703938EA0144501530000000000000
B0640283258374S11703871EA0145701541000000000000
B0640323258312S11703837EA0146601549000000000000
B0640363258244S11703868EA0147301557000000000000
B0640403258214S11703945EA0148701577000000000000
B0640443258234S11704010EA0150901596000000000000
B0640483258285S11704028EA0152601610000000000000
B0640523258329S11703993EA0153401614000000000000
B0640563258328S11703923EA0154201626000000000000
B0641003258277S11703877EA0155701641000000000000
B0641043258214S11703899EA0156301646000000000000
B0641083258188S11703969EA0157201660000000000000
B0641123258220S11704020EA0158501670000000000000
B0641163258273S11704006EA0159501679000000000000
B0641203258305S11703946EA0159601678000000000000
B0641243258283S11703872EA0160401693000000000000
B0641283258216S11703865EA0161701703000000000000
B0641323258186S11703933EA0162601714000000000000
B0641363258219S11703988EA0164101729000000000000
B0641403258271S11703973EA0165301739000000000000
B0641443258286S11703907EA0166101749000000000000
B0641483258241S11703856EA0167501769000000000000
B0641523258177S11703867EA0168801777000000000000
B0641563258142S11703929EA0169801787000000000000
B0642003258162S11703995EA0170901802000000000000
B0642043258212S11704012EA0172501818000000000000
B0642083258255S11703971EA0173801823000000000000
B0642123258262S11703900EA0173801825000000000000
B0642163258216S11703847EA0174501834000000000000
B0642203258147S11703843EA0175301843000000000000
B0642243258097S11703894EA0176601856000000000000
B0642283258095S11703963EA0178201872000000000000
B0642323258142S11703990EA0178801876000000000000
B0642363258189S11703947EA0179401888000000000000
B0642403258166S11703884EA0181101907000000000000
B0642443258106S11703902EA0182601925000000000000
B0642483258098S11703972EA0183901936000000000000
B0642523258143S11704015EA0184801942000000000000
B0642563258202S11703993EA0186001958000000000000
B0643003258227S11703928EA0186901962000000000000
B0643043258199S11703864EA0187501967000000000000
B0643083258137S11703838EA0186901959000000000000
B0643123258073S11703874EA0187401970000000000000
B0643163258054S11703945EA0188901990000000000000
B0643203258085S11703999EA0190501999000000000000
B0643243258145S11704003EA0191102012000000000000
B0643283258180S11703951EA0193302031000000000000
B0643323258162S11703891EA0194102032000000000000
B0643363258101S11703872EA0193102021000000000000
B0643403258047S11703924EA0193702037000000000000
B0643443258049S11703993EA0195902053000000000000
B0643483258101S11704021EA0196502060000000000000
B0643523258140S11703971EA0197402071000000000000
B0643563258099S11703913EA0198602084000000000000
B0644003258034S11703925EA0199902099000000000000
B0644043258003S11703991EA0201102108000000000000
B0644083258033S11704055EA0201302109000000000000
B0644123258093S11704059EA0201602109000000000000
B0644163258141S11704004EA0201502110000000000000
B0644203258143S11703926EA0202002122000000000000
B0644243258095S11703882EA0203102126000000000000
B0644283258030S11703902EA0202702123000000000000
B0644323257997S11703976EA0203802141000000000000
B0644363258013S11704045EA0205402152000000000000
B0644403258069S11704058EA0205502146000000000000
B0644443258106S11703997EA0205202149000000000000
B0644483258068S11703937EA0206502164000000000000
B0644523258003S11703945EA0207802177000000000000
B0644563257956S11703997EA0208902188000000000000
B0645003257952S11704068EA0209102186000000000000
B0645043257964S11704149EA0207302159000000000000
B0645083257977S11704244EA0204102135000000000000
B0645123257994S11704348EA0202602124000000000000
B0645163258010S11704454EA0202102118000000000000
B0645203258012S11704565EA0201902119000000000000
B0645243258006S11704673EA0201502108000000000000
B0645283257990S11704782EA0200702112000000000000
B0645323257972S11704883EA0201202108000000000000
B0645363257946S11704983EA0200202099000000000000
B0645403257916S11705081EA0199802094000000000000
B0645443257887S11705181EA0199102085000000000000
B0645483257857S11705282EA0197902074000000000000
B0645523257831S11705389EA0196702059000000000000
B0645563257812S11705497EA0196002054000000000000
B0646003257798S11705603EA0195502051000000000000
B0646043257789S11705707EA0195502049000000000000
B0646083257779S11705810EA0195002042000000000000
B0646123257769S11705914EA0194102033000000000000
B0646163257759S11706019EA0193202025000000000000
