ACAM4N6
HFDTE100921
HFFXA050
HFPLTPILOT:JOHN WELSH              
HFGTYGLIDERTYPE:HORNET      
HFGIDGLIDERID:VH-GMY      
HFDTM100GPSDATUM:
HFRFWFIRMWAREVERSION:F2.6
HFRHWHARDWAREVERSION:300 Series Version 2
HFFTYFRTYPE:CAMBRIDGE AERO INSTRUMENTS, 302+
HFGPS:GARMIN,LVS-25,12,18000
HFPRSPRESSALTSENSOR:INTERSEMA, MS5534-AP, 20000
I033638FXA3941ENL4247REX
LCAMSBVER:5FWVER:F26300
C020521044002020521000101
C0000000N00000000WTAKEOFF     
C3207549S11656849EBEVAIR      
C3255649S11704983ENARRAIR     
C3207549S11656849EBEVAIR      
C0000000N00000000WLANDING     
B0441313207342S11656860EA0014900197000004030000
B0441333207342S11656860EA0014900197000004030000
B0441353207342S11656860EA0014800197000004030000
B0441373207342S11656860EA0014800197000000030000
B0441393207342S11656860EA0014700197000004030000
B0441413207342S11656860EA0014800197000004030000
B0441433207343S11656860EA0014700197000004030000
B0441453207343S11656860EA0014700197000004030000
B0441473207343S11656860EA0014700197000004030000
B0441493207343S11656860EA0014800197000000030000
B0441513207343S11656860EA0014700197000000030000
B0441533207343S11656860EA0014700197000000030000
B0441553207342S11656860EA0014800198000000030000
B0441573207343S11656861EA0014800199000000030000
B0441593207346S11656862EA0014700199000000030000
B0442003207349S11656864EA0014800200000000030000
B0442043207367S11656880EA0014800201000000030000
B0442083207402S11656905EA0014900201000000030000
B0442123207450S11656936EA0015200204000000030000
B0442163207508S11656975EA0015500208000000030000
B0442203207576S11657017EA0015700211000000015000
B0442243207649S11657060EA0016300218000004015000
B0442283207722S11657105EA0017100228000004015000
B0442323207792S11657150EA0018900248000004015000
B0442363207858S11657191EA0020700275000004015000
B0442403207921S11657233EA0022900295000004015000
B0442443207982S11657276EA0024900317000000015000
B0442483208039S11657322EA0026900334000000015000
B0442523208095S11657376EA0028400348000000015000
B0442563208145S11657441EA0030000360000000015000
B0443003208183S11657519EA0031200376000004000000
B0443043208205S11657610EA0032600386000004000000
B0443083208212S11657707EA0033700400000004000000
B0443123208201S11657803EA0035300419000004000000
B0443163208170S11657892EA0037200439000004000000
B0443203208123S11657970EA0039000451000004000000
B0443243208067S11658039EA0040000464000004000000
B0443283208001S11658087EA0041800482000004000000
B0443323207927S11658117EA0043400497000004000000
B0443363207852S11658126EA0045000512000000000000
B0443403207778S11658115EA0046700529000004000000
B0443443207707S11658087EA0048400546000004000000
B0443483207646S11658049EA0050500567000004000000
B0443523207590S11658006EA0052500586000000000000
B0443563207544S11657952EA0054000601000004000000
B0444003207508S11657885EA0055100611000000000000
B0444043207484S11657810EA0056000620000004000000
B0444083207468S11657732EA0057300638000004000000
B0444123207467S11657654EA0059000654000000000000
B0444163207485S11657577EA0060900668000000000000
B0444203207512S11657502EA0062400680000004000000
B0444243207551S11657430EA0063800693000000015000
B0444283207602S11657371EA0065500707000000015000
B0444323207657S11657322EA0067500714000000030000
B0444363207723S11657291EA0069500738000000030000
B0444403207796S11657280EA0071700760000000030000
B0444443207872S11657281EA0073400775000000030000
B0444483207953S11657303EA0075100790000000030000
B0444523208030S11657342EA0076600809000000030000
B0444563208103S11657395EA0078100828000000015000
B0445003208168S11657460EA0079800844000004015000
B0445043208223S11657540EA0081200858000000015000
B0445083208264S11657633EA0082800875000000015000
B0445123208291S11657736EA0084500891000000015000
B0445163208312S11657842EA0085800907000000015000
B0445203208320S11657949EA0087100926000004015000
B0445243208313S11658057EA0088900943000004000000
B0445283208298S11658162EA0090500960000000000000
B0445323208270S11658264EA0092100977000000000000
B0445363208231S11658357EA0093500990000000000000
B0445403208181S11658443EA0094701003000000000000
B0445443208118S11658513EA0096501021000000000000
B0445483208048S11658568EA0098201035000004000000
B0445523207971S11658617EA0099301047000004000000
B0445563207889S11658652EA0100501057000000000000
B0446003207807S11658672EA0101801073000000000000
B0446043207727S11658678EA0103201087000004000000
B0446083207650S11658672EA0104701104000004000000
B0446123207579S11658658EA0105601111000000000000
B0446163207511S11658647EA0105701110000000000000
B0446203207445S11658637EA0105801111000000000000
B0446243207377S11658642EA0105801111000004000000
B0446283207312S11658678EA0105901113000000000000
B0446323207255S11658733EA0105601109000000000000
B0446363207194S11658780EA0105201105000004000000
B0446403207130S11658815EA0104801100000000000000
B0446443207064S11658836EA0104301097000000000000
B0446483206999S11658845EA0103901092000000000000
B0446523206936S11658847EA0103501086000004000000
B0446563206875S11658838EA0102801080000000000000
B0447003206819S11658823EA0102501077000000000000
B0447043206767S11658798EA0102101072000000000000
B0447083206721S11658767EA0101601067000000000000
B0447123206678S11658728EA0101101062000000000000
B0447163206637S11658687EA0100801061000000000000
B0447203206600S11658648EA0100701059000000000000
B0447243206562S11658608EA0100501057000000000000
B0447283206524S11658569EA0100101053000000000000
B0447323206487S11658533EA0099901053000004000000
B0447363206450S11658496EA0099701050000004000000
B0447403206413S11658460EA0099201044000000000000
B0447443206371S11658424EA0098501037000000000000
B0447483206327S11658387EA0098101033000000000000
B0447523206281S11658352EA0097701031000004000000
B0447563206234S11658318EA0097501026000004000000
B0448003206186S11658282EA0096601017000004000000
B0448043206141S11658243EA0096001013000004000000
B0448083206095S11658203EA0095501008000004000000
B0448123206050S11658162EA0094901002000000000000
B0448163206006S11658117EA0094300996000004000000
B0448203205964S11658069EA0093600988000000000000
B0448243205922S11658017EA0093000983000004000000
B0448283205886S11657959EA0092700979000000000000
B0448323205856S11657898EA0092500978000000000000
B0448363205834S11657835EA0092300976000004000000
B0448403205820S11657770EA0092000973000000000000
B0448443205816S11657706EA0091900973000004000000
B0448483205817S11657644EA0091600968000004000000
B0448523205825S11657581EA0091000963000004000000
B0448563205841S11657521EA0090700961000004000000
B0449003205863S11657463EA0090500957000004000000
B0449043205885S11657406EA0090200952000000000000
B0449083205899S11657343EA0089900949000000000000
B0449123205881S11657285EA0089600949000000000000
B0449163205830S11657261EA0090000956000004000000
B0449203205779S11657296EA0090300957000000000000
B0449243205763S11657369EA0090200954000000000000
B0449283205791S11657434EA0089600950000000015000
B0449323205843S11657465EA0089200945000000015000
B0449363205896S11657469EA0088800940000004015000
B0449403205942S11657446EA0088400935000000015000
B0449443205974S11657404EA0087800931000000015000
B0449483206000S11657359EA0087500929000000000000
B0449523206020S11657308EA0087200925000000000000
B0449563206034S11657254EA0086700920000000000000
B0450003206043S11657196EA0086200915000004000000
B0450043206038S11657138EA0085900913000000000000
B0450083206017S11657082EA0085700907000000000000
B0450123205965S11657049EA0085400906000000000000
B0450163205907S11657074EA0085300904000000000000
B0450203205881S11657150EA0084800898000000000000
B0450243205904S11657225EA0084000893000000015000
B0450283205956S11657264EA0083500888000004015000
B0450323206013S11657264EA0082800880000004015000
B0450363206059S11657228EA0082200875000004015000
B0450403206089S11657174EA0081500869000004015000
B0450443206110S11657114EA0081200864000000015000
B0450483206124S11657053EA0080700858000000015000
B0450523206136S11656990EA0080100851000000015000
B0450563206138S11656925EA0079400843000000015000
B0451003206136S11656856EA0078800837000000000000
B0451043206150S11656791EA0078300835000000000000
B0451083206179S11656735EA0078200833000004000000
B0451123206215S11656688EA0078000830000000000000
B0451163206250S11656641EA0077600826000000000000
B0451203206283S11656591EA0077100822000000000000
B0451243206311S11656540EA0077000819000000000000
B0451283206336S11656487EA0076700816000000000000
B0451323206357S11656433EA0076400813000000000000
B0451363206370S11656375EA0076000808000000000000
B0451403206380S11656315EA0075500803000000000000
B0451443206400S11656258EA0075100800000000000000
B0451483206429S11656208EA0074900798000004000000
B0451523206467S11656168EA0074800796000004000000
B0451563206511S11656137EA0074400790000004000000
B0452003206561S11656113EA0073800787000004000000
B0452043206611S11656098EA0073500783000004000000
B0452083206665S11656085EA0073000779000000000000
B0452123206719S11656076EA0072500775000004000000
B0452163206775S11656072EA0071800770000004000000
B0452203206831S11656071EA0071400765000000000000
B0452243206888S11656069EA0071000761000004000000
B0452283206946S11656072EA0070600758000000000000
B0452323207001S11656084EA0070500756000000000000
B0452363207057S11656102EA0069900750000000000000
B0452403207113S11656120EA0069400745000000000000
B0452443207170S11656136EA0068600739000000000000
B0452483207226S11656152EA0068300735000004000000
B0452523207282S11656172EA0067700730000004000000
B0452563207337S11656194EA0067400725000004000000
B0453003207390S11656221EA0066900721000004000000
B0453043207443S11656251EA0066500717000004000000
B0453083207497S11656282EA0066100713000000000000
B0453123207549S11656314EA0065800711000000000000
B0453163207599S11656344EA0065600708000004000000
B0453203207651S11656377EA0065100704000000000000
B0453243207701S11656412EA0064800702000000000000
B0453283207752S11656451EA0064600700000000000000
B0453323207802S11656488EA0064400698000000000000
B0453363207853S11656518EA0064300696000000000000
B0453403207906S11656524EA0064100692000000000000
B0453443207936S11656484EA0063700689000004000000
B0453483207918S11656436EA0063500685000000000000
B0453523207867S11656427EA0063200682000004015000
B0453563207819S11656474EA0062800678000000015000
B0454003207800S11656548EA0062400676000000015000
B0454043207801S11656626EA0062400674000000000000
B0454083207832S11656695EA0061800667000004000000
B0454123207885S11656737EA0061300664000004000000
B0454163207941S11656743EA0061300662000000015000
B0454203207958S11656697EA0061200665000000015000
B0454243207917S11656675EA0061300666000004015000
B0454283207870S11656718EA0061300663000004015000
B0454323207867S11656796EA0061000663000004015000
B0454363207908S11656845EA0060700659000004015000
B0454403207958S11656841EA0060200655000004015000
B0454443207988S11656800EA0059700648000000015000
B0454483207979S11656747EA0059100644000000015000
B0454523207934S11656714EA0058800641000004015000
B0454563207879S11656747EA0058800641000004015000
B0455003207865S11656822EA0058700639000000015000
B0455043207906S11656878EA0058500636000004015000
B0455083207957S11656873EA0057800628000004015000
B0455123207976S11656822EA0057200623000004015000
B0455163207948S11656774EA0056800619000004015000
B0455203207891S11656766EA0056500613000004015000
B0455243207841S11656817EA0056300612000004015000
B0455283207831S11656896EA0056200612000004000000
B0455323207879S11656945EA0056000609000004000000
B0455363207931S11656922EA0055400599000004015000
B0455403207954S11656858EA0054100587000004015000
B0455443207940S11656792EA0053700590000004015000
B0455483207887S11656752EA0054200593000004015000
B0455523207837S11656801EA0055000600000004015000
B0455563207863S11656878EA0054500591000000000000
B0456003207928S11656871EA0054400592000000000000
B0456043207932S11656805EA0054300591000000015000
B0456083207869S11656800EA0054700596000004015000
B0456123207835S11656878EA0054900594000000015000
B0456163207875S11656949EA0054400592000000000000
B0456203207937S11656931EA0054600596000000015000
B0456243207940S11656864EA0055100604000000015000
B0456283207882S11656844EA0055900607000004015000
B0456323207841S11656916EA0055600599000000015000
B0456363207879S11656994EA0054700594000000015000
B0456403207952S11657005EA0055000601000000015000
B0456443207997S11656953EA0055100594000000015000
B0456483207970S11656890EA0054700594000000015000
B0456523207906S11656891EA0054800597000004015000
B0456563207887S11656968EA0054700595000004015000
B0457003207937S11657021EA0054600597000000000000
B0457043208004S11657007EA0054600592000004000000
B0457083208023S11656944EA0054100587000004015000
B0457123207971S11656903EA0053300577000004015000
B0457163207908S11656939EA0052700575000004015000
B0457203207917S11657023EA0053000587000000015000
B0457243207978S11657046EA0054000592000000015000
B0457283208022S11656997EA0053600580000000015000
B0457323208001S11656932EA0052600573000000015000
B0457363207939S11656913EA0052200569000000015000
B0457403207879S11656957EA0051700568000000015000
B0457443207835S11657027EA0051700569000004015000
B0457483207815S11657108EA0052100574000004000000
B0457523207857S11657164EA0052200572000004000000
B0457563207911S11657143EA0051700566000004015000
B0458003207950S11657081EA0051400564000004015000
B0458043207949S11657010EA0051900572000000015000
B0458083207892S11657012EA0052500573000000015000
B0458123207888S11657088EA0052500573000000015000
B0458163207949S11657095EA0052900579000000015000
B0458203207960S11657029EA0053300580000000015000
B0458243207906S11657014EA0053400582000000015000
B0458283207889S11657088EA0053300581000000015000
B0458323207940S11657142EA0053500588000000015000
B0458363207999S11657118EA0054300592000000015000
B0458403207996S11657056EA0054500592000000030000
B0458443207943S11657049EA0053900584000000030000
B0458483207909S11657117EA0053000576000004015000
B0458523207931S11657196EA0052700580000000015000
B0458563207991S11657182EA0053600588000004015000
B0459003207978S11657125EA0054300589000004030000
B0459043207923S11657147EA0053900589000004045000
B0459083207926S11657224EA0054300594000000030000
B0459123207989S11657230EA0054600591000000015000
B0459163207989S11657166EA0054800597000004030000
B0459203207935S11657170EA0054800595000004030000
B0459243207930S11657250EA0054900599000004015000
B0459283207992S11657261EA0055400603000000015000
B0459323208002S11657198EA0055200595000004015000
B0459363207945S11657189EA0054800594000000030000
B0459403207914S11657261EA0054700592000000015000
B0459443207963S11657313EA0054700590000004015000
B0459483207997S11657256EA0054600591000004015000
B0459523207944S11657234EA0054400586000004015000
B0459563207909S11657306EA0054100589000004015000
B0500003207952S11657364EA0054600594000004015000
B0500043208005S11657332EA0054600589000004015000
B0500083207983S11657273EA0053900582000000030000
B0500123207923S11657291EA0053500585000000030000
B0500163207895S11657367EA0053700585000000015000
B0500203207924S11657433EA0054200593000000030000
B0500243207969S11657408EA0054400593000000030000
B0500283207945S11657348EA0054100590000004060000
B0500323207889S11657374EA0053500586000000105000
B0500363207880S11657454EA0053200581000000045000
B0500403207935S11657486EA0053200580000000045000
B0500443207974S11657436EA0053400581000000045000
B0500483207924S11657397EA0053600582000000060000
B0500523207869S11657439EA0053700582000004090000
B0500563207883S11657515EA0054000585000000045000
B0501003207945S11657524EA0053900581000000030000
B0501043207969S11657460EA0053600582000000045000
B0501083207913S11657437EA0054100589000000060000
B0501123207866S11657493EA0054300591000004045000
B0501163207880S11657569EA0054300593000004045000
B0501203207936S11657576EA0055000600000000060000
B0501243207924S11657516EA0055600609000000150000
B0501283207869S11657540EA0055500603000000060000
B0501323207876S11657615EA0055400602000000045000
B0501363207935S11657627EA0055400603000000030000
B0501403207939S11657562EA0055600606000000045000
B0501443207875S11657559EA0056000606000000030000
B0501483207857S11657634EA0056200614000000030000
B0501523207901S11657686EA0056500609000004030000
B0501563207949S11657655EA0056700613000004045000
B0502003207910S11657608EA0057100616000000060000
B0502043207861S11657651EA0057500618000000105000
B0502083207878S11657725EA0057900620000004060000
B0502123207936S11657740EA0057900619000004060000
B0502163207937S11657699EA0057800616000004135000
B0502203207878S11657716EA0057600615000004015000
B0502243207871S11657779EA0057900620000004000000
B0502283207919S11657757EA0058200621000004225000
B0502323207879S11657698EA0058100625000000090000
B0502363207820S11657733EA0058700630000000030000
B0502403207831S11657813EA0058400621000000195000
B0502443207897S11657820EA0057800616000000165000
B0502483207921S11657755EA0057500615000000225000
B0502523207859S11657729EA0057600613000000210000
B0502563207815S11657805EA0057600617000000090000
B0503003207841S11657879EA0057600619015000225000
B0503043207913S11657866EA0057900627015004000000
B0503083207926S11657810EA0058500631015000195000
B0503123207871S11657785EA0059100637015000030000
B0503163207831S11657846EA0059000635015000210000
B0503203207866S11657905EA0058600627015000120000
B0503243207909S11657858EA0058000628000000135000
B0503283207865S11657807EA0058100630000000225000
B0503323207796S11657827EA0058400626000000165000
B0503363207800S11657879EA0058500624015000075000
B0503403207845S11657857EA0058100616015000135000
B0503443207843S11657826EA0057400612015004180000
B0503483207780S11657844EA0057600615015000015000
B0503523207753S11657926EA0057800618015004135000
B0503563207797S11657980EA0057700618015004015000
B0504003207836S11657937EA0056800607015000060000
B0504043207791S11657898EA0056400612015000165000
B0504083207744S11657952EA0056600609015000060000
B0504123207761S11658037EA0056100598015000105000
B0504163207819S11658086EA0055500593015000225000
B0504203207866S11658045EA0055200589015000135000
B0504243207880S11657961EA0054300582015000225000
B0504283207891S11657872EA0053700583000004105000
B0504323207904S11657787EA0053400581000000075000
B0504363207913S11657702EA0054700582000004075000
B0504403207911S11657619EA0056000582000004060000
B0504443207909S11657542EA0056100581000004060000
B0504483207922S11657452EA0056800581015004045000
B0504523207921S11657373EA0057200582015000045000
B0504563207921S11657373EV0057100000000000000128
B0505003207921S11657373EV0057100000000004000128
B0505043207921S11657373EV0058000000000000000128
B0505083207921S11657373EV0058100000000004000128
B0505123207921S11657373EV0057300000000000000128
B0505163207900S11657770EA0057100583075000045000
B0505203207889S11657842EA0057000582075000045000
B0505243207906S11657924EA0057100583075000045000
B0505283207936S11657902EA0057200584060004045000
B0505323207909S11657855EA0056800585045004060000
B0505363207853S11657892EA0056300586030004060000
B0505403207843S11657969EA0056300585030004150000
B0505443207888S11658032EA0055800581015000150000
B0505483207947S11658023EA0055900580015000225000
B0505523207935S11657966EA0056300581015000060000
B0505563207876S11657974EA0055800582015000015000
B0506003207859S11658048EA0056000586015000075000
B0506043207906S11658089EA0056500595015000075000
B0506083207945S11658054EA0056400593015000150000
B0506123207921S11657997EA0055700592015000015000
B0506163207858S11658023EA0055700595015004165000
B0506203207852S11658097EA0056000598015004165000
B0506243207906S11658131EA0055300590015004225000
B0506283207953S11658092EA0055200596015000195000
B0506323207956S11658034EA0055000596000004075000
B0506363207958S11657974EA0054000584000004045000
B0506403207967S11657910EA0053100576000004030000
B0506443207966S11657840EA0053000576000004030000
B0506483207947S11657777EA0053000575000004030000
B0506523207927S11657715EA0052200572000004030000
B0506563207922S11657646EA0051400568000000030000
B0507003207949S11657582EA0051200562000004030000
B0507043207971S11657527EA0050600557000004015000
B0507083207989S11657468EA0049900552000004015000
B0507123208027S11657424EA0049400546000004015000
B0507163208082S11657395EA0048600540000004015000
B0507203208145S11657387EA0048000535000004015000
B0507243208207S11657400EA0047800531000004015000
B0507283208256S11657455EA0047800530000004015000
B0507323208311S11657489EA0047400527000004015000
B0507363208365S11657508EA0047200524000000030000
B0507403208421S11657519EA0047500521000004030000
B0507443208472S11657529EA0047300518000004030000
B0507483208517S11657542EA0047300515015000030000
B0507523208517S11657542EV0046600000000000000128
B0507563208517S11657542EV0046000000000000000128
B0508003208517S11657542EV0045400000000000000128
B0508043208517S11657542EV0045600000000004000128
B0508083208517S11657542EV0044900000000000000128
B0508123208178S11657653EA0044100499060000060000
B0508163208147S11657732EA0043300492000000045000
B0508203208103S11657807EA0042900487000000045000
B0508243208044S11657861EA0043000483015000045000
B0508283207973S11657879EA0043300481000000030000
B0508323207904S11657883EA0042100464000000060000
B0508363207835S11657867EA0040800451000004165000
B0508403207767S11657826EA0040400457000004060000
B0508443207701S11657790EA0039800451000000045000
B0508483207633S11657758EA0038600437000000030000
B0508523207564S11657727EA0038000432000000030000
B0508563207497S11657698EA0037600427000000030000
B0509003207434S11657672EA0038000430000000030000
B0509043207372S11657650EA0038100431000004030000
B0509083207313S11657621EA0038500435000000030000
B0509123207256S11657590EA0038200430000000030000
B0509163207198S11657560EA0037600423000004015000
B0509203207138S11657534EA0037300420000004030000
B0509243207078S11657515EA0037000418000004015000
B0509283207017S11657498EA0036700413000000015000
B0509323206956S11657478EA0036100412000000015000
B0509363206897S11657455EA0035800410000000015000
B0509403206838S11657428EA0034900398000000015000
B0509443206780S11657398EA0034200393000000015000
B0509483206722S11657371EA0033700387000000015000
B0509523206665S11657339EA0033100381000000015000
B0509563206618S11657287EA0032900381000004015000
B0510003206583S11657224EA0032600381000004015000
B0510043206557S11657157EA0032200380000004015000
B0510083206536S11657087EA0031300380000000030000
B0510123206528S11657013EA0030500371000000030000
B0510163206518S11656940EA0029800365000004030000
B0510203206519S11656865EA0029200358000004030000
B0510243206522S11656791EA0028900350000004015000
B0510283206526S11656714EA0028500346000004015000
B0510323206540S11656639EA0028000339000000015000
B0510363206574S11656571EA0027600334000000015000
B0510403206627S11656523EA0027300333000000030000
B0510443206683S11656496EA0026300330000000030000
B0510483206741S11656492EA0024100326000004030000
B0510523206805S11656509EA0022400322000004045000
B0510563206886S11656578EA0021000317000004030000
B0511003206957S11656631EA0019500312000004045000
B0511043207022S11656675EA0018100307000000045000
B0511083207085S11656718EA0016500301015004060000
B0511123207139S11656754EA0015800296015004060000
B0511163207182S11656788EA0015300289015004060000
B0511203207224S11656809EA0015300283000000060000
B0511243207258S11656825EA0015200269000000045000
B0511283207282S11656835EA0015200252000000030000
B0511323207298S11656843EA0015200241000000030000
B0511363207308S11656847EA0015200231000000015000
B0511403207312S11656849EA0015200225000000015000
B0511443207313S11656849EA0015200222000000015000
B0511483207313S11656849EA0015200220000004015000
B0511523207313S11656849EA0015200217000004000000
B0511563207313S11656849EA0015200215000000000000
B0512003207313S11656849EA0015200214000004000000
G00030000003725B9760000000000000000000000000000000000000000000000
G52A45DC82B79DB4742A226946697E74CD690FC3C000000008668CC7A62D0A9E4
G0B7D49425AAB4832793471984C610AF86FDB09F10000000000000000F2FD3758
