ACAM4N6
HFDTE121016
HFFXA050
HFPLTPILOT:JOHN WELSH              
HFGTYGLIDERTYPE:HORNET      
HFGIDGLIDERID:VH GMY      
HFDTM100GPSDATUM:
HFRFWFIRMWAREVERSION:F2.6
HFRHWHARDWAREVERSION:300 Series Version 2
HFFTYFRTYPE:CAMBRIDGE AERO INSTRUMENTS, 302+
HFGPS:GARMIN,LVS-25,12,18000
HFPRSPRESSALTSENSOR:INTERSEMA, MS5534-AP, 20000
I033638FXA3941ENL4247REX
LCAMSBVER:5FWVER:F26300
C121016042725121016000103
C0000000N00000000WTAKEOFF     
C3207549S11656849EBEVAIR      
C3157887S11735628EYOTING      
C3137789S11744052EKLLRBRRN    
C3137399S11712982ECunderdin AF
C3207549S11656849EBEVAIR      
C0000000N00000000WLANDING     
B0439183207735S11657098EA0019600202000000000000
B0439203207735S11657098EA0019600202000000000000
B0439223207735S11657098EA0019600202000000000000
B0439243207735S11657098EA0019500202000000000000
B0439263207735S11657098EA0019500203000000000000
B0439283207735S11657098EA0019400203000000000000
B0439303207735S11657098EA0019500203000000000000
B0439323207735S11657098EA0019500203000000000000
B0439343207735S11657098EA0019400203000000000000
B0439363207735S11657098EA0019500203000000000000
B0439383207735S11657098EA0019500203000000000000
B0439403207735S11657098EA0019300203000000000000
B0439423207735S11657098EA0019400203000000000000
B0439443207735S11657098EA0019400203000000000000
B0439463207732S11657096EA0019500203000000000000
B0439513207713S11657087EA0019400203000000000000
B0439553207679S11657072EA0019200204000000000000
B0439593207633S11657044EA0019400205000000000000
B0440033207576S11657010EA0019000205000000000000
B0440073207514S11656974EA0019000207000000000000
B0440113207450S11656940EA0020300227000000000000
B0440153207389S11656906EA0022400249000000000000
B0440193207330S11656869EA0024100268000000000000
B0440233207276S11656822EA0026100289000000000000
B0440273207233S11656765EA0028300317000000000000
B0440313207199S11656706EA0031200345000000000000
B0440353207170S11656643EA0032900355000000000000
B0440393207144S11656576EA0033900370000000000000
B0440433207120S11656509EA0035600387000000000000
B0440473207098S11656440EA0036800396000000000000
B0440513207070S11656372EA0037600406000000000000
B0440553207043S11656306EA0038800418000000000000
B0440593207012S11656241EA0039900426000000000000
B0441033206969S11656188EA0040600436000000000000
B0441073206913S11656152EA0041100441000000000000
B0441113206853S11656142EA0042100454000000000000
B0441153206796S11656159EA0043500467000000000000
B0441193206747S11656195EA0044900480000000000000
B0441233206704S11656242EA0046100492000000000000
B0441273206667S11656301EA0047100502000000000000
B0441313206636S11656366EA0047500506000000000000
B0441353206610S11656436EA0048000515000000000000
B0441393206597S11656507EA0049400537000000000000
B0441433206601S11656583EA0051200554000000000000
B0441473206624S11656659EA0052500564000000000000
B0441513206669S11656732EA0053500575000000000000
B0441553206734S11656791EA0054500587000000000000
B0441593206814S11656823EA0055800601000000000000
B0442033206903S11656821EA0057500617000000000000
B0442073206987S11656796EA0059200637000000000000
B0442113207060S11656747EA0061500659000000000000
B0442153207113S11656674EA0063100678000000000000
B0442193207109S11656598EA0063500677000000000000
B0442233207063S11656580EA0062400665000000000000
B0442273207030S11656628EA0061200652000000000000
B0442313207047S11656695EA0060500650000000000000
B0442353207104S11656734EA0060600649000000000000
B0442393207176S11656743EA0060600648000000000000
B0442433207247S11656732EA0061000652000000000000
B0442473207291S11656680EA0061000648000000000000
B0442513207273S11656626EA0059700630000000000000
B0442553207230S11656635EA0058500619000000000000
B0442593207207S11656692EA0057400616000000000000
B0443033207213S11656762EA0057900619000000000000
B0443073207251S11656823EA0058000621000000000000
B0443113207313S11656862EA0057900620000000000000
B0443153207386S11656871EA0058300626000000000000
B0443193207419S11656812EA0059300633000000000000
B0443233207376S11656780EA0059200637000000000000
B0443273207349S11656831EA0059100641000000000000
B0443313207385S11656887EA0059800645000000000000
B0443353207451S11656878EA0060300650000000000000
B0443393207477S11656810EA0060900659000000000000
B0443433207443S11656763EA0061600662000000000000
B0443473207402S11656789EA0061800666000000000000
B0443513207415S11656849EA0062500672000000000000
B0443553207479S11656871EA0062600674000000000000
B0443593207523S11656822EA0063600686000000000000
B0444033207494S11656774EA0064400690000000000000
B0444073207460S11656804EA0065100700000000000000
B0444113207482S11656858EA0065700700000000000000
B0444153207547S11656869EA0065500703000000000000
B0444193207590S11656814EA0066700713000000000000
B0444233207571S11656756EA0067800724000000000000
B0444273207533S11656780EA0068400730000000000000
B0444313207555S11656836EA0069600745000000000000
B0444353207612S11656845EA0070700751000000000000
B0444393207658S11656793EA0070700752000000000000
B0444433207637S11656736EA0072100768000000000000
B0444473207599S11656758EA0072800776000000000000
B0444513207629S11656813EA0073400782000000000000
B0444553207694S11656804EA0074100794000000000000
B0444593207720S11656740EA0075100799000000000000
B0445033207685S11656695EA0075200805000000000000
B0445073207657S11656736EA0075900811000000000000
B0445113207698S11656783EA0076700813000000000000
B0445153207755S11656749EA0077300824000000000000
B0445193207753S11656680EA0078100829000000000000
B0445233207705S11656669EA0078300834000000000000
B0445273207684S11656722EA0078700839000000000000
B0445313207711S11656779EA0079900854000000000000
B0445353207774S11656779EA0080800857000000000000
B0445393207800S11656713EA0081100861000000000000
B0445433207759S11656684EA0081900875000000000000
B0445473207750S11656734EA0083200891000000000000
B0445513207805S11656756EA0083700890000000000000
B0445553207850S11656698EA0083700897000000000000
B0445593207831S11656637EA0084600902000000000000
B0446033207783S11656639EA0084500900000000000000
B0446073207771S11656700EA0084700909000000000000
B0446113207819S11656748EA0086000919000000000000
B0446153207888S11656731EA0086700924000000000000
B0446193207905S11656661EA0087200928000000000000
B0446233207859S11656632EA0087400934000000000000
B0446273207839S11656680EA0088700949000000000000
B0446313207879S11656723EA0090200956000000000000
B0446353207944S11656702EA0089900959000000000000
B0446393207953S11656636EA0090600964000000000000
B0446433207908S11656620EA0091000969000000000000
B0446473207885S11656667EA0092100984000000000000
B0446513207923S11656711EA0093600996000000000000
B0446553207986S11656698EA0094000997000000000000
B0446593208017S11656635EA0094601006000000000000
B0447033207993S11656584EA0095301007000000000000
B0447073207949S11656589EA0094901010000000000000
B0447113207943S11656644EA0095501017000000000000
B0447153207988S11656692EA0096401023000000000000
B0447193208053S11656676EA0097001031000000000000
B0447233208061S11656607EA0097501033000000000000
B0447273208018S11656594EA0098101044000000000000
B0447313208021S11656649EA0099501057000000000000
B0447353208079S11656671EA0100101062000000000000
B0447393208130S11656627EA0100901069000000000000
B0447433208129S11656562EA0101401073000000000000
B0447473208090S11656544EA0101801078000000000000
B0447513208067S11656585EA0102701091000000000000
B0447553208097S11656632EA0103701098000000000000
B0447593208162S11656631EA0103701096000000000000
B0448033208201S11656568EA0104101103000000000000
B0448073208181S11656514EA0104801109000000000000
B0448113208142S11656524EA0105101116000000000000
B0448153208151S11656580EA0105801123000000000000
B0448193208213S11656598EA0106201127000000000000
B0448233208269S11656549EA0106901134000000000000
B0448273208270S11656483EA0107801142000000000000
B0448313208233S11656463EA0108001141000000000000
B0448353208203S11656503EA0107801142000000000000
B0448393208223S11656566EA0108201148000000000000
B0448433208292S11656581EA0108601152000000000000
B0448473208339S11656526EA0109701166000000000000
B0448513208312S11656477EA0110401165000000000000
B0448553208278S11656507EA0111201176000000000000
B0448593208304S11656559EA0111801182000000000000
B0449033208370S11656563EA0111901183000000000000
B0449073208409S11656500EA0112301189000000000000
B0449113208386S11656442EA0112901194000000000000
B0449153208350S11656458EA0113701204000000000000
B0449193208366S11656514EA0114101202000000000000
B0449233208435S11656524EA0113701204000000000000
B0449273208473S11656459EA0114601216000000000000
B0449313208446S11656406EA0115101214000000000000
B0449353208407S11656423EA0115501225000000000000
B0449393208420S11656476EA0116901236000000000000
B0449433208482S11656500EA0116901234000000000000
B0449473208541S11656459EA0117601242000000000000
B0449513208546S11656390EA0117901244000000000000
B0449553208507S11656359EA0118101245000000000000
B0449593208482S11656392EA0118901257000000000000
B0450033208509S11656442EA0119201254000000000000
B0450073208580S11656445EA0118501253000000000000
B0450113208617S11656377EA0119201258000000000000
B0450153208593S11656314EA0119101256000000000000
B0450193208543S11656310EA0119001260000000000000
B0450233208521S11656360EA0119601265000000000000
B0450273208546S11656423EA0120001269000000000000
B0450313208610S11656449EA0120801276000000000000
B0450353208672S11656409EA0120801273000000000000
B0450393208689S11656332EA0120801276000000000000
B0450433208662S11656275EA0121101280000000000000
B0450473208617S11656260EA0121301280000000000000
B0450513208569S11656268EA0120901273000000000000
B0450553208521S11656286EA0120101264000000000000
B0450593208470S11656316EA0118801250000000000000
B0451033208413S11656342EA0117501234000000000000
B0451073208351S11656360EA0116501226000000000000
B0451113208288S11656366EA0115901216000000000000
B0451153208225S11656363EA0114801202000000000000
B0451193208160S11656359EA0113101183000000000000
B0451233208093S11656355EA0111501169000000000000
B0451273208027S11656353EA0110201154000000000000
B0451313207960S11656370EA0108801145000000000000
B0451353207892S11656388EA0108101137000000000000
B0451393207826S11656405EA0107601134000000000000
B0451433207759S11656420EA0107101120000000000000
B0451473207689S11656412EA0105501102000000000000
B0451513207619S11656377EA0103501084000000000000
B0451553207554S11656328EA0102001069000000000000
B0451593207494S11656269EA0100701057000000000000
B0452033207437S11656208EA0099501043000000000000
B0452073207381S11656150EA0098701036000000000000
B0452113207326S11656093EA0098501038000000000000
B0452153207277S11656039EA0099101045000000000000
B0452193207230S11655989EA0099801054000000000000
B0452233207183S11655942EA0100701063000000000000
B0452273207134S11655905EA0101001059000000000000
B0452313207079S11655881EA0100301052000000000000
B0452353207022S11655872EA0100101052000000000000
B0452393206965S11655873EA0100401056000000000000
B0452433206909S11655883EA0100301054000000000000
B0452473206857S11655907EA0101101064000000000000
B0452513206809S11655934EA0102001074000000000000
B0452553206778S11655983EA0102801082000000000000
B0452593206813S11656039EA0103101083000000000000
B0453033206874S11656007EA0103001083000000000000
B0453073206881S11655930EA0103301086000000000000
B0453113206845S11655870EA0103601090000000000000
B0453153206796S11655831EA0103101084000000000000
B0453193206734S11655821EA0102301076000000000000
B0453233206673S11655818EA0102601082000000000000
B0453273206614S11655826EA0102901079000000000000
B0453313206557S11655837EA0102901079000000000000
B0453353206501S11655848EA0103201083000000000000
B0453393206448S11655864EA0103801091000000000000
B0453433206402S11655883EA0104901103000000000000
B0453473206359S11655904EA0105901109000000000000
B0453513206316S11655926EA0106101110000000000000
B0453553206279S11655959EA0106701119000000000000
B0453593206298S11656019EA0108201134000000000000
B0454033206366S11656025EA0108701140000000000000
B0454073206409S11655967EA0109101145000000000000
B0454113206384S11655917EA0109101145000000000000
B0454153206346S11655938EA0110101157000000000000
B0454193206362S11655998EA0111201166000000000000
B0454233206429S11655998EA0111001165000000000000
B0454273206442S11655926EA0111001168000000000000
B0454313206400S11655917EA0112101182000000000000
B0454353206409S11655977EA0113601199000000000000
B0454393206475S11655989EA0114901211000000000000
B0454433206511S11655933EA0115501214000000000000
B0454473206488S11655882EA0115501217000000000000
B0454513206452S11655903EA0116401235000000000000
B0454553206468S11655963EA0117601245000000000000
B0454593206535S11655974EA0118401251000000000000
B0455033206578S11655920EA0119301258000000000000
B0455073206566S11655859EA0119301258000000000000
B0455113206523S11655851EA0119701269000000000000
B0455153206519S11655912EA0121001284000000000000
B0455193206574S11655955EA0121901291000000000000
B0455233206634S11655918EA0122701297000000000000
B0455273206635S11655850EA0123101300000000000000
B0455313206592S11655830EA0123401305000000000000
B0455353206589S11655892EA0124701321000000000000
B0455393206652S11655925EA0125901331000000000000
B0455433206705S11655881EA0126501336000000000000
B0455473206699S11655817EA0126301331000000000000
B0455513206653S11655800EA0126401338000000000000
B0455553206615S11655839EA0127001343000000000000
B0455593206628S11655909EA0127601347000000000000
B0456033206693S11655939EA0128101356000000000000
B0456073206754S11655898EA0129101364000000000000
B0456113206771S11655827EA0129301363000000000000
B0456153206740S11655794EA0129601370000000000000
B0456193206721S11655844EA0130101374000000000000
B0456233206771S11655889EA0131201383000000000000
B0456273206836S11655863EA0131501386000000000000
B0456313206861S11655794EA0131501385000000000000
B0456353206843S11655731EA0131501384000000000000
B0456393206793S11655713EA0131201386000000000000
B0456433206773S11655770EA0131901399000000000000
B0456473206814S11655831EA0132501400000000000000
B0456513206887S11655829EA0133001405000000000000
B0456553206931S11655768EA0133201405000000000000
B0456593206930S11655691EA0132901401000000000000
B0457033206907S11655618EA0132401396000000000000
B0457073206861S11655567EA0132101394000000000000
B0457113206803S11655565EA0132601402000000000000
B0457153206760S11655604EA0133901418000000000000
B0457193206792S11655664EA0135701436000000000000
B0457233206862S11655671EA0136201433000000000000
B0457273206931S11655623EA0135301427000000000000
B0457313206974S11655543EA0135001427000000000000
B0457353206990S11655452EA0135201429000000000000
B0457393206970S11655371EA0135701432000000000000
B0457433206922S11655323EA0136101439000000000000
B0457473206870S11655336EA0137001444000000000000
B0457513206855S11655405EA0137101440000000000000
B0457553206873S11655489EA0136201438000000000000
B0457593206901S11655574EA0137001448000000000000
B0458033206972S11655603EA0138301467000000000000
B0458073207024S11655543EA0139501468000000000000
B0458113207025S11655463EA0139301466000000000000
B0458153206981S11655419EA0139501475000000000000
B0458193206935S11655440EA0141001490000000000000
B0458233206923S11655501EA0141901495000000000000
B0458273206957S11655565EA0141901493000000000000
B0458313207029S11655588EA0141901495000000000000
B0458353207102S11655556EA0142101497000000000000
B0458393207139S11655483EA0142201497000000000000
B0458433207146S11655404EA0143001505000000000000
B0458473207105S11655388EA0144001515000000000000
B0458513207098S11655449EA0144501521000000000000
B0458553207151S11655502EA0144801526000000000000
B0458593207225S11655495EA0145201527000000000000
B0459033207267S11655426EA0145501534000000000000
B0459073207252S11655359EA0146401541000000000000
B0459113207208S11655337EA0146601542000000000000
B0459153207172S11655380EA0146501542000000000000
B0459193207159S11655457EA0145701536000000000000
B0459233207155S11655541EA0145601537000000000000
B0459273207159S11655626EA0145801541000000000000
B0459313207169S11655712EA0146001541000000000000
B0459353207185S11655798EA0146001542000000000000
B0459393207202S11655885EA0145901540000000000000
B0459433207219S11655972EA0146401550000000000000
B0459473207225S11656054EA0147601562000000000000
B0459513207226S11656134EA0148701568000000000000
B0459553207226S11656212EA0149201569000000000000
B0459593207219S11656290EA0149001572000000000000
B0500033207212S11656370EA0149401573000000000000
B0500073207206S11656450EA0149201566000000000000
B0500113207198S11656535EA0148001551000000000000
B0500153207193S11656624EA0146501538000000000000
B0500193207186S11656717EA0145401527000000000000
B0500233207181S11656810EA0144401517000000000000
B0500273207174S11656903EA0144101516000000000000
B0500313207167S11656994EA0143601510000000000000
B0500353207156S11657086EA0143001502000000000000
B0500393207146S11657178EA0142701502000000000000
B0500433207139S11657268EA0143001505000000000000
B0500473207137S11657356EA0142701499000000000000
B0500513207135S11657446EA0142201494000000000000
B0500553207124S11657529EA0142601497000000000000
B0500593207107S11657606EA0143101503000000000000
B0501033207095S11657685EA0142901493000000000000
B0501073207086S11657770EA0141701479000000000000
B0501113207074S11657859EA0140201464000000000000
B0501153207063S11657950EA0139201460000000000000
B0501193207052S11658040EA0139201458000000000000
B0501233207043S11658128EA0138801454000000000000
B0501273207033S11658218EA0139301459000000000000
B0501313207020S11658307EA0140401475000000000000
B0501353206995S11658385EA0141701483000000000000
B0501393206960S11658453EA0141501479000000000000
B0501433206935S11658541EA0139201448000000000000
B0501473206916S11658639EA0137101438000000000000
B0501513206897S11658736EA0136901437000000000000
B0501553206884S11658830EA0136701433000000000000
B0501593206874S11658925EA0136001423000000000000
B0502033206864S11659020EA0135101417000000000000
B0502073206855S11659113EA0134701413000000000000
B0502113206845S11659204EA0134101406000000000000
B0502153206836S11659296EA0133601397000000000000
B0502193206826S11659388EA0132501385000000000000
B0502233206814S11659482EA0131701378000000000000
B0502273206803S11659575EA0131101374000000000000
B0502313206793S11659670EA0129801360000000000000
B0502353206783S11659769EA0129101355000000000000
B0502393206777S11659864EA0129001351000000000000
B0502433206766S11659959EA0128001344000000000000
B0502473206754S11700051EA0127801342000000000000
B0502513206744S11700142EA0127501337000000000000
B0502553206735S11700232EA0127301338000000000000
B0502593206726S11700316EA0127501338000000000000
B0503033206715S11700398EA0127601338000000000000
B0503073206691S11700476EA0126701327000000000000
B0503113206658S11700553EA0126701331000000000000
B0503153206615S11700618EA0126901336000000000000
B0503193206582S11700688EA0127501336000000000000
B0503233206558S11700773EA0127001334000000000000
B0503273206541S11700861EA0126801330000000000000
B0503313206526S11700951EA0126901334000000000000
B0503353206514S11701040EA0126901330000000000000
B0503393206504S11701131EA0126701332000000000000
B0503433206491S11701219EA0127601344000000000000
B0503473206479S11701299EA0128801352000000000000
B0503513206472S11701381EA0128901350000000000000
B0503553206466S11701464EA0128801352000000000000
B0503593206465S11701547EA0129101352000000000000
B0504033206462S11701631EA0128601343000000000000
B0504073206457S11701720EA0127501334000000000000
B0504113206453S11701810EA0127101330000000000000
B0504153206448S11701901EA0126101321000000000000
B0504193206442S11701989EA0125801320000000000000
B0504233206436S11702073EA0126401327000000000000
B0504273206428S11702152EA0126701330000000000000
B0504313206416S11702229EA0127201338000000000000
B0504353206389S11702295EA0128101343000000000000
B0504393206354S11702350EA0127901334000000000000
B0504433206324S11702420EA0126501317000000000000
B0504473206309S11702502EA0125301306000000000000
B0504513206292S11702589EA0123801284000000000000
B0504553206279S11702681EA0122601280000000000000
B0504593206272S11702768EA0122801280000000000000
B0505033206266S11702857EA0122301270000000000000
B0505073206260S11702945EA0121301264000000000000
B0505113206258S11703031EA0120901257000000000000
B0505153206255S11703115EA0120501250000000000000
B0505193206251S11703197EA0119701243000000000000
B0505233206244S11703280EA0119001235000000000000
B0505273206234S11703364EA0118301228000000000000
B0505313206223S11703445EA0117501219000000000000
B0505353206212S11703529EA0116601207000000000000
B0505393206201S11703613EA0115801199000000000000
B0505433206188S11703696EA0115101194000000000000
B0505473206173S11703780EA0114501187000000000000
B0505513206160S11703865EA0113201171000000000000
B0505553206146S11703956EA0111501158000000000000
B0505593206132S11704049EA0110801151000000000000
B0506033206119S11704136EA0110301147000000000000
B0506073206101S11704220EA0109501134000000000000
B0506113206073S11704303EA0107801117000000000000
B0506153206037S11704383EA0107401123000000000000
B0506193206002S11704457EA0107701123000000000000
B0506233205961S11704528EA0107201115000000000000
B0506273205911S11704586EA0106801116000000000000
B0506313205855S11704622EA0107901133000000000000
B0506353205802S11704640EA0109901149000000000000
B0506393205752S11704652EA0110501152000000000000
B0506433205703S11704664EA0110501149000000000000
B0506473205653S11704683EA0110401150000000000000
B0506513205609S11704722EA0110201150000000000000
B0506553205573S11704771EA0110601154000000000000
B0506593205544S11704833EA0111301162000000000000
B0507033205543S11704903EA0111901167000000000000
B0507073205603S11704925EA0111601156000000000000
B0507113205623S11704849EA0110501159000000000000
B0507153205584S11704792EA0110701160000000000000
B0507193205535S11704748EA0111301159000000000000
B0507233205482S11704721EA0110501151000000000000
B0507273205426S11704732EA0109801142000000000000
B0507313205391S11704804EA0109001136000000000000
B0507353205378S11704896EA0107701123000000000000
B0507393205371S11704999EA0105201100000000000000
B0507433205367S11705103EA0103901090000000000000
B0507473205363S11705204EA0103601083000000000000
B0507513205360S11705302EA0103001079000000000000
B0507553205353S11705394EA0102301069000000000000
B0507593205341S11705481EA0101801065000000000000
B0508033205328S11705563EA0101401060000000000000
B0508073205315S11705644EA0101401064000000000000
B0508113205292S11705713EA0102701073000000000000
B0508153205246S11705752EA0103601082000000000000
B0508193205193S11705762EA0105001096000000000000
B0508233205145S11705782EA0105701105000000000000
B0508273205139S11705843EA0106101104000000000000
B0508313205205S11705866EA0105601102000000000000
B0508353205263S11705809EA0106101109000000000000
B0508393205276S11705730EA0107101121000000000000
B0508433205236S11705696EA0108101129000000000000
B0508473205226S11705744EA0108401133000000000000
B0508513205283S11705780EA0107801129000000000000
B0508553205350S11705748EA0108701143000000000000
B0508593205370S11705676EA0109801152000000000000
B0509033205330S11705646EA0110001154000000000000
B0509073205314S11705693EA0110101158000000000000
B0509113205367S11705740EA0109701161000000000000
B0509153205441S11705754EA0110301167000000000000
B0509193205503S11705706EA0111001169000000000000
B0509233205503S11705635EA0111201169000000000000
B0509273205453S11705606EA0110401165000000000000
B0509313205396S11705600EA0110101164000000000000
B0509353205336S11705609EA0109901157000000000000
B0509393205283S11705644EA0108801148000000000000
B0509433205239S11705700EA0108101139000000000000
B0509473205193S11705761EA0106701126000000000000
B0509513205157S11705832EA0106301126000000000000
B0509553205126S11705910EA0105901120000000000000
B0509593205096S11705993EA0104701107000000000000
B0510033205074S11706082EA0103101094000000000000
B0510073205058S11706178EA0101001073000000000000
B0510113205050S11706277EA0100401066000000000000
B0510153205045S11706374EA0099701055000000000000
B0510193205040S11706472EA0098301039000000000000
B0510233205038S11706571EA0096801022000000000000
B0510273205032S11706669EA0095501009000000000000
B0510313205018S11706764EA0094701002000000000000
B0510353204997S11706854EA0094100997000000000000
B0510393204976S11706944EA0093600992000000000000
B0510433204958S11707032EA0093400990000000000000
B0510473204941S11707118EA0093400990000000000000
B0510513204927S11707204EA0093200986000000000000
B0510553204915S11707290EA0092600981000000000000
B0510593204905S11707374EA0092800981000000000000
B0511033204897S11707457EA0092600980000000000000
B0511073204886S11707539EA0092400978000000000000
B0511113204879S11707621EA0092000970000000000000
B0511153204871S11707703EA0090900961000000000000
B0511193204863S11707785EA0090400955000000000000
B0511233204853S11707860EA0089900948000000000000
B0511273204833S11707936EA0088600934000000000000
B0511313204814S11708010EA0087400924000000000000
B0511353204793S11708083EA0086200911000000000000
B0511393204773S11708157EA0084800897000000000000
B0511433204754S11708232EA0083700885000000000000
B0511473204733S11708304EA0083100882000000000000
B0511513204715S11708374EA0083300887000000000000
B0511553204694S11708441EA0083900890000000000000
B0511593204661S11708501EA0084500898000000000000
B0512033204619S11708549EA0085100902000000000000
B0512073204570S11708591EA0085100899000000000000
B0512113204524S11708644EA0084000893000000000000
B0512153204476S11708690EA0084500899000000000000
B0512193204440S11708644EA0086300920000000000000
B0512233204495S11708610EA0088500946000000000000
B0512273204539S11708653EA0088800948000000000000
B0512313204544S11708716EA0089100949000000000000
B0512353204525S11708775EA0088500940000000000000
B0512393204491S11708837EA0087700932000000000000
B0512433204452S11708899EA0087100930000000000000
B0512473204417S11708961EA0088100942000000000000
B0512513204387S11709022EA0089400955000000000000
B0512553204359S11709085EA0090100960000000000000
B0512593204314S11709108EA0090500963000000000000
B0513033204310S11709047EA0091800978000000000000
B0513073204378S11709019EA0092700988000000000000
B0513113204446S11709050EA0093300997000000000000
B0513153204478S11709120EA0093800995000000000000
B0513193204460S11709176EA0093801004000000000000
B0513233204425S11709165EA0095601020000000000000
B0513273204425S11709106EA0095901016000000000000
B0513313204478S11709051EA0095801018000000000000
B0513353204554S11709048EA0096501026000000000000
B0513393204615S11709100EA0097201032000000000000
B0513433204638S11709173EA0097701040000000000000
B0513473204613S11709219EA0098501044000000000000
B0513513204573S11709203EA0098701047000000000000
B0513553204578S11709134EA0099401056000000000000
B0513593204643S11709089EA0099801058000000000000
B0514033204725S11709103EA0100001061000000000000
B0514073204769S11709169EA0100401066000000000000
B0514113204756S11709233EA0100601066000000000000
B0514153204711S11709266EA0099901051000000000000
B0514193204650S11709280EA0098301035000000000000
B0514233204585S11709285EA0097201029000000000000
B0514273204524S11709266EA0096801023000000000000
B0514313204513S11709191EA0097301033000000000000
B0514353204557S11709124EA0098101035000000000000
B0514393204630S11709095EA0098101037000000000000
B0514433204708S11709104EA0098601040000000000000
B0514473204789S11709119EA0098301040000000000000
B0514513204873S11709124EA0098901046000000000000
B0514553204946S11709087EA0099701054000000000000
B0514593204944S11709021EA0099901055000000000000
B0515033204903S11709041EA0101101069000000000000
B0515073204921S11709111EA0101601075000000000000
B0515113204997S11709133EA0101901079000000000000
B0515153205064S11709084EA0101901077000000000000
B0515193205063S11709016EA0101801075000000000000
B0515233205023S11709002EA0102101079000000000000
B0515273204994S11709047EA0102601085000000000000
B0515313205019S11709112EA0103001093000000000000
B0515353205087S11709137EA0103701096000000000000
B0515393205154S11709103EA0102901085000000000000
B0515433205166S11709032EA0102701084000000000000
B0515473205129S11709006EA0102001075000000000000
B0515513205092S11709051EA0100601062000000000000
B0515553205063S11709123EA0100101063000000000000
B0515593205042S11709204EA0099901059000000000000
B0516033205025S11709289EA0098501040000000000000
B0516073205011S11709383EA0097301036000000000000
B0516113204996S11709471EA0097201031000000000000
B0516153204980S11709563EA0096201019000000000000
B0516193204970S11709658EA0094801001000000000000
B0516233204966S11709761EA0093200989000000000000
B0516273204962S11709864EA0091900974000000000000
B0516313204959S11709965EA0091400969000000000000
B0516353204960S11710066EA0090300953000000000000
B0516393204962S11710168EA0089400947000000000000
B0516433204966S11710268EA0089400950000000000000
B0516473204975S11710365EA0089500949000000000000
B0516513204984S11710460EA0089800953000000000000
B0516553204963S11710538EA0091600975000000000000
B0516593204914S11710541EA0093900997000000000000
B0517033204905S11710481EA0094500996000000000000
B0517073204959S11710428EA0094600997000000000000
B0517113205035S11710416EA0094500995000000000000
B0517153205101S11710455EA0094400997000000000000
B0517193205124S11710529EA0094801006000000000000
B0517233205106S11710590EA0095201007000000000000
B0517273205066S11710618EA0094600993000000000000
B0517313205032S11710577EA0093300985000000000000
B0517353205061S11710511EA0093400985000000000000
B0517393205133S11710482EA0093400984000000000000
B0517433205214S11710473EA0093700987000000000000
B0517473205288S11710443EA0094100994000000000000
B0517513205305S11710376EA0094901002000000000000
B0517553205265S11710356EA0094900999000000000000
B0517593205240S11710412EA0094700998000000000000
B0518033205275S11710477EA0094800999000000000000
B0518073205347S11710504EA0094601002000000000000
B0518113205414S11710489EA0095301009000000000000
B0518153205428S11710425EA0095901016000000000000
B0518193205386S11710412EA0096501019000000000000
B0518233205358S11710467EA0095801010000000000000
B0518273205386S11710538EA0095501009000000000000
B0518313205460S11710563EA0095301006000000000000
B0518353205531S11710525EA0095101005000000000000
B0518393205562S11710454EA0095701015000000000000
B0518433205540S11710402EA0097501033000000000000
B0518473205503S11710442EA0098601044000000000000
B0518513205521S11710515EA0098301038000000000000
B0518553205596S11710541EA0097701038000000000000
B0518593205662S11710498EA0098101046000000000000
B0519033205672S11710429EA0099601060000000000000
B0519073205631S11710402EA0100901073000000000000
B0519113205590S11710439EA0102101083000000000000
B0519153205595S11710514EA0102201082000000000000
B0519193205657S11710559EA0102001081000000000000
B0519233205726S11710532EA0102701090000000000000
B0519273205746S11710465EA0103801100000000000000
B0519313205712S11710437EA0104501108000000000000
B0519353205692S11710499EA0105401120000000000000
B0519393205740S11710553EA0106101123000000000000
B0519433205805S11710521EA0105901128000000000000
B0519473205817S11710458EA0107501144000000000000
B0519513205779S11710436EA0108601152000000000000
B0519553205747S11710484EA0109101157000000000000
B0519593205768S11710556EA0109801163000000000000
B0520033205835S11710581EA0109301157000000000000
B0520073205900S11710545EA0109801163000000000000
B0520113205928S11710484EA0111601183000000000000
B0520153205906S11710441EA0113001192000000000000
B0520193205861S11710458EA0113001197000000000000
B0520233205859S11710529EA0114301209000000000000
B0520273205917S11710567EA0115501220000000000000
B0520313205972S11710528EA0116201228000000000000
B0520353205968S11710465EA0117101243000000000000
B0520393205924S11710447EA0118301253000000000000
B0520433205890S11710499EA0119001264000000000000
B0520473205917S11710572EA0119701264000000000000
B0520513205991S11710588EA0119301262000000000000
B0520553206046S11710537EA0120401272000000000000
B0520593206045S11710475EA0121501287000000000000
B0521033206002S11710480EA0122401299000000000000
B0521073206007S11710555EA0122901305000000000000
B0521113206075S11710584EA0124201318000000000000
B0521153206119S11710530EA0124901327000000000000
B0521193206094S11710478EA0126001334000000000000
B0521233206046S11710491EA0126401341000000000000
B0521273206032S11710560EA0127401351000000000000
B0521313206078S11710619EA0127601347000000000000
B0521353206154S11710614EA0126901340000000000000
B0521393206202S11710553EA0127401351000000000000
B0521433206176S11710503EA0129101367000000000000
B0521473206141S11710541EA0130301373000000000000
B0521513206182S11710605EA0130301373000000000000
B0521553206249S11710586EA0131101386000000000000
B0521593206267S11710524EA0132101391000000000000
B0522033206233S11710485EA0132701402000000000000
B0522073206193S11710521EA0133501409000000000000
B0522113206210S11710597EA0134401418000000000000
B0522153206277S11710615EA0134701420000000000000
B0522193206315S11710556EA0134601425000000000000
B0522233206299S11710495EA0134901430000000000000
B0522273206253S11710485EA0135901440000000000000
B0522313206220S11710540EA0136101436000000000000
B0522353206246S11710615EA0135701435000000000000
B0522393206323S11710633EA0135701433000000000000
B0522433206398S11710601EA0135601431000000000000
B0522473206461S11710547EA0136101440000000000000
B0522513206461S11710481EA0138101460000000000000
B0522553206416S11710482EA0139001465000000000000
B0522593206418S11710554EA0138901461000000000000
B0523033206492S11710569EA0139001468000000000000
B0523073206524S11710510EA0140401479000000000000
B0523113206492S11710469EA0140601483000000000000
B0523153206452S11710506EA0141501492000000000000
B0523193206471S11710577EA0142101499000000000000
B0523233206539S11710592EA0142501500000000000000
B0523273206575S11710533EA0142801505000000000000
B0523313206556S11710482EA0143401510000000000000
B0523353206504S11710488EA0142901500000000000000
B0523393206445S11710528EA0141901495000000000000
B0523433206384S11710576EA0140201473000000000000
B0523473206322S11710641EA0138701461000000000000
B0523513206260S11710711EA0137001445000000000000
B0523553206202S11710789EA0135501430000000000000
B0523593206146S11710868EA0135201427000000000000
B0524033206094S11710946EA0135001421000000000000
B0524073206041S11711027EA0134501417000000000000
B0524113205986S11711106EA0134001407000000000000
B0524153205935S11711192EA0132701397000000000000
B0524193205887S11711278EA0132001392000000000000
B0524233205842S11711362EA0131801392000000000000
B0524273205799S11711440EA0132401400000000000000
B0524313205760S11711515EA0132701399000000000000
B0524353205725S11711590EA0132901399000000000000
B0524393205687S11711663EA0133501406000000000000
B0524433205648S11711730EA0134201416000000000000
B0524473205609S11711794EA0134801420000000000000
B0524513205569S11711858EA0135001423000000000000
B0524553205531S11711919EA0135301423000000000000
B0524593205493S11711981EA0135101420000000000000
B0525033205454S11712048EA0134001407000000000000
B0525073205417S11712119EA0134201401000000000000
B0525113205387S11712198EA0132601399000000000000
B0525153205358S11712275EA0132001385000000000000
B0525193205326S11712350EA0131001374000000000000
B0525233205284S11712418EA0130301377000000000000
B0525273205239S11712477EA0132701406000000000000
B0525313205189S11712458EA0135701434000000000000
B0525353205213S11712395EA0138101455000000000000
B0525393205280S11712399EA0138401457000000000000
B0525433205305S11712461EA0139101466000000000000
B0525473205263S11712487EA0139901476000000000000
B0525513205253S11712422EA0141101491000000000000
B0525553205318S11712389EA0142701506000000000000
B0525593205380S11712423EA0143401512000000000000
B0526033205391S11712490EA0144601529000000000000
B0526073205347S11712509EA0146501545000000000000
B0526113205330S11712454EA0148001562000000000000
B0526153205371S11712400EA0149501573000000000000
B0526193205443S11712400EA0149801575000000000000
B0526233205486S11712460EA0150101584000000000000
B0526273205452S11712505EA0151901602000000000000
B0526313205421S11712461EA0153601622000000000000
B0526353205461S11712400EA0155001637000000000000
B0526393205535S11712402EA0156301645000000000000
B0526433205571S11712465EA0157101659000000000000
B0526473205536S11712503EA0158901679000000000000
B0526513205501S11712461EA0160501691000000000000
B0526553205527S11712388EA0161601701000000000000
B0526593205603S11712366EA0162601710000000000000
B0527033205659S11712419EA0163601723000000000000
B0527073205636S11712473EA0164801736000000000000
B0527113205605S11712422EA0166201750000000000000
B0527153205655S11712361EA0168101772000000000000
B0527193205729S11712380EA0168901777000000000000
B0527233205747S11712454EA0170101792000000000000
B0527273205705S11712490EA0171801808000000000000
B0527313205669S11712444EA0173201822000000000000
B0527353205701S11712374EA0175501845000000000000
B0527393205776S11712360EA0176501853000000000000
B0527433205825S11712419EA0176701860000000000000
B0527473205800S11712479EA0178201875000000000000
B0527513205753S11712458EA0179401888000000000000
B0527553205770S11712384EA0181001907000000000000
B0527593205844S11712370EA0182901927000000000000
B0528033205886S11712430EA0184501940000000000000
B0528073205856S11712477EA0185401947000000000000
B0528113205813S11712441EA0186101958000000000000
B0528153205826S11712365EA0188101978000000000000
B0528193205894S11712319EA0189201985000000000000
B0528233205967S11712343EA0190101997000000000000
B0528273205993S11712408EA0191502009000000000000
B0528313205955S11712440EA0192202016000000000000
B0528353205924S11712393EA0193402032000000000000
B0528393205951S11712322EA0194802045000000000000
B0528433206024S11712295EA0195502048000000000000
B0528473206090S11712339EA0195602051000000000000
B0528513206104S11712412EA0196602066000000000000
B0528553206067S11712444EA0197702072000000000000
B0528593206028S11712405EA0198402083000000000000
B0529033206039S11712332EA0200202097000000000000
B0529073206103S11712285EA0200402098000000000000
B0529113206180S11712298EA0200702101000000000000
B0529153206227S11712361EA0201202106000000000000
B0529193206219S11712427EA0201702110000000000000
B0529233206182S11712477EA0201802109000000000000
B0529273206134S11712527EA0200902098000000000000
B0529313206078S11712586EA0200202095000000000000
B0529353206021S11712647EA0200002095000000000000
B0529393205961S11712707EA0199502087000000000000
B0529433205902S11712769EA0198302073000000000000
B0529473205839S11712835EA0197002062000000000000
B0529513205781S11712904EA0196602061000000000000
B0529553205726S11712973EA0196502058000000000000
B0529593205674S11713046EA0196102054000000000000
B0530033205625S11713119EA0196302057000000000000
B0530073205574S11713190EA0196302056000000000000
B0530113205526S11713262EA0195802047000000000000
B0530153205475S11713337EA0194602037000000000000
B0530193205425S11713416EA0194002030000000000000
B0530233205373S11713496EA0192902019000000000000
B0530273205323S11713578EA0192402017000000000000
B0530313205279S11713662EA0192502017000000000000
B0530353205239S11713748EA0192202012000000000000
B0530393205201S11713836EA0191402001000000000000
B0530433205166S11713926EA0190802000000000000000
B0530473205137S11714016EA0191402007000000000000
B0530513205111S11714096EA0192402015000000000000
B0530553205085S11714173EA0192402013000000000000
B0530593205057S11714251EA0191402002000000000000
B0531033205023S11714330EA0190501993000000000000
B0531073204989S11714410EA0189701987000000000000
B0531113204955S11714489EA0189601985000000000000
B0531153204921S11714570EA0189201979000000000000
B0531193204888S11714653EA0188401976000000000000
B0531233204856S11714733EA0188901983000000000000
B0531273204825S11714813EA0188501970000000000000
B0531313204791S11714892EA0187601964000000000000
B0531353204760S11714971EA0187701965000000000000
B0531393204730S11715047EA0187601962000000000000
B0531433204699S11715123EA0186901952000000000000
B0531473204668S11715203EA0185901947000000000000
B0531513204635S11715283EA0185801946000000000000
B0531553204602S11715363EA0185401941000000000000
B0531593204565S11715441EA0185201937000000000000
B0532033204530S11715520EA0184901940000000000000
B0532073204494S11715599EA0185201943000000000000
B0532113204453S11715673EA0186301955000000000000
B0532153204405S11715729EA0188201975000000000000
B0532193204359S11715771EA0190001988000000000000
B0532233204309S11715814EA0190501994000000000000
B0532273204275S11715875EA0191402003000000000000
B0532313204257S11715951EA0190401986000000000000
B0532353204216S11716019EA0189001974000000000000
B0532393204167S11716089EA0188401971000000000000
B0532433204121S11716161EA0188401970000000000000
B0532473204071S11716232EA0187701958000000000000
B0532513204021S11716308EA0186001943000000000000
B0532553203972S11716391EA0184401929000000000000
B0532593203928S11716475EA0183601926000000000000
B0533033203887S11716560EA0183301924000000000000
B0533073203849S11716646EA0183301921000000000000
B0533113203811S11716731EA0182701919000000000000
B0533153203776S11716819EA0182501917000000000000
B0533193203740S11716903EA0182501913000000000000
B0533233203705S11716989EA0181801906000000000000
B0533273203668S11717075EA0181401901000000000000
B0533313203632S11717160EA0180701895000000000000
B0533353203593S11717244EA0180101889000000000000
B0533393203550S11717319EA0179901887000000000000
B0533433203510S11717393EA0179701884000000000000
B0533473203473S11717474EA0179401881000000000000
B0533513203438S11717554EA0179101881000000000000
B0533553203403S11717634EA0179601882000000000000
B0533593203368S11717709EA0179601884000000000000
B0534033203328S11717775EA0179901887000000000000
B0534073203283S11717835EA0180201889000000000000
B0534113203241S11717900EA0179901884000000000000
B0534153203195S11717963EA0179301877000000000000
B0534193203151S11718026EA0178701871000000000000
B0534233203108S11718091EA0178701872000000000000
B0534273203068S11718161EA0178201868000000000000
B0534313203030S11718233EA0178401870000000000000
B0534353202986S11718295EA0178101865000000000000
B0534393202942S11718359EA0177701858000000000000
B0534433202905S11718432EA0177001853000000000000
B0534473202875S11718510EA0176301845000000000000
B0534513202848S11718590EA0175501838000000000000
B0534553202822S11718675EA0175001830000000000000
B0534593202795S11718761EA0173801819000000000000
B0535033202767S11718848EA0172901809000000000000
B0535073202739S11718936EA0171901799000000000000
B0535113202709S11719025EA0170901789000000000000
B0535153202676S11719112EA0170101783000000000000
B0535193202645S11719201EA0169101772000000000000
B0535233202613S11719292EA0167601755000000000000
B0535273202580S11719387EA0166301741000000000000
B0535313202548S11719482EA0164901729000000000000
B0535353202519S11719576EA0164401719000000000000
B0535393202490S11719669EA0163101710000000000000
B0535433202462S11719764EA0162201700000000000000
B0535473202435S11719862EA0160901687000000000000
B0535513202409S11719962EA0159801676000000000000
B0535553202385S11720065EA0158801668000000000000
B0535593202363S11720165EA0158201659000000000000
B0536033202342S11720266EA0157001648000000000000
B0536073202321S11720369EA0156001635000000000000
B0536113202303S11720474EA0154901628000000000000
B0536153202285S11720578EA0154701626000000000000
B0536193202268S11720681EA0154701625000000000000
B0536233202251S11720782EA0154001618000000000000
B0536273202240S11720886EA0153001606000000000000
B0536313202229S11720993EA0152001597000000000000
B0536353202221S11721098EA0151501592000000000000
B0536393202215S11721203EA0151201588000000000000
B0536433202212S11721307EA0150801582000000000000
B0536473202210S11721411EA0150201576000000000000
B0536513202204S11721512EA0150101579000000000000
B0536553202199S11721605EA0150001572000000000000
B0536593202193S11721699EA0149501565000000000000
B0537033202189S11721792EA0148001548000000000000
B0537073202189S11721887EA0147501552000000000000
B0537113202193S11721977EA0147801550000000000000
B0537153202198S11722068EA0147601550000000000000
B0537193202207S11722158EA0147401543000000000000
B0537233202219S11722249EA0146601538000000000000
B0537273202233S11722334EA0148501563000000000000
B0537313202249S11722409EA0150501581000000000000
B0537353202234S11722467EA0151401584000000000000
B0537393202193S11722468EA0150901577000000000000
B0537433202176S11722402EA0150401572000000000000
B0537473202189S11722315EA0149201561000000000000
B0537513202247S11722249EA0149201564000000000000
B0537553202327S11722266EA0149901568000000000000
B0537593202380S11722332EA0150201574000000000000
B0538033202425S11722401EA0150701581000000000000
B0538073202457S11722476EA0151101585000000000000
B0538113202457S11722554EA0151101580000000000000
B0538153202429S11722622EA0149801566000000000000
B0538193202393S11722689EA0148301553000000000000
B0538233202353S11722753EA0147501547000000000000
B0538273202301S11722796EA0148001554000000000000
B0538313202249S11722825EA0148401555000000000000
B0538353202195S11722861EA0148001548000000000000
B0538393202142S11722912EA0146801531000000000000
B0538433202090S11722975EA0145301521000000000000
B0538473202038S11723040EA0144701517000000000000
B0538513201989S11723104EA0144501514000000000000
B0538553201938S11723166EA0143501502000000000000
B0538593201882S11723225EA0142101487000000000000
B0539033201822S11723281EA0140801475000000000000
B0539073201766S11723341EA0140501474000000000000
B0539113201712S11723402EA0139801459000000000000
B0539153201651S11723463EA0137601436000000000000
B0539193201580S11723519EA0136501433000000000000
B0539233201509S11723562EA0136201429000000000000
B0539273201437S11723601EA0134701406000000000000
B0539313201357S11723649EA0132401396000000000000
B0539353201305S11723716EA0135701440000000000000
B0539393201337S11723783EA0140101472000000000000
B0539433201404S11723770EA0141401481000000000000
B0539473201423S11723697EA0142301490000000000000
B0539513201385S11723660EA0143701506000000000000
B0539553201359S11723699EA0144301511000000000000
B0539593201404S11723749EA0144401511000000000000
B0540033201471S11723724EA0144801516000000000000
B0540073201480S11723650EA0145301524000000000000
B0540113201434S11723633EA0146701541000000000000
B0540153201418S11723683EA0148001553000000000000
B0540193201460S11723735EA0148201550000000000000
B0540233201531S11723735EA0148601559000000000000
B0540273201578S11723679EA0149801567000000000000
B0540313201560S11723618EA0150501576000000000000
B0540353201515S11723620EA0151501585000000000000
B0540393201505S11723680EA0152001592000000000000
B0540433201547S11723731EA0152801600000000000000
B0540473201613S11723736EA0153701607000000000000
B0540513201662S11723684EA0154201615000000000000
B0540553201658S11723618EA0155201624000000000000
B0540593201619S11723598EA0155701634000000000000
B0541033201592S11723638EA0156201636000000000000
B0541073201617S11723696EA0156401642000000000000
B0541113201677S11723725EA0157101648000000000000
B0541153201740S11723706EA0157901654000000000000
B0541193201752S11723637EA0158201655000000000000
B0541233201710S11723608EA0158001658000000000000
B0541273201662S11723629EA0158101661000000000000
B0541313201631S11723683EA0158301665000000000000
B0541353201625S11723759EA0158001650000000000000
B0541393201609S11723853EA0155201624000000000000
B0541433201583S11723949EA0153601615000000000000
B0541473201554S11724044EA0153201613000000000000
B0541513201528S11724135EA0153601617000000000000
B0541553201505S11724221EA0154401624000000000000
B0541593201484S11724305EA0155201631000000000000
B0542033201462S11724386EA0155801638000000000000
B0542073201435S11724457EA0156101639000000000000
B0542113201401S11724522EA0156401638000000000000
B0542153201361S11724585EA0156001634000000000000
B0542193201318S11724648EA0155501629000000000000
B0542233201276S11724720EA0154701619000000000000
B0542273201236S11724793EA0153401610000000000000
B0542313201197S11724868EA0152401597000000000000
B0542353201157S11724944EA0150801580000000000000
B0542393201116S11725022EA0149001564000000000000
B0542433201077S11725101EA0147601551000000000000
B0542473201040S11725178EA0147201546000000000000
B0542513201003S11725257EA0147101542000000000000
B0542553200963S11725332EA0146201531000000000000
B0542593200924S11725409EA0145501527000000000000
B0543033200886S11725487EA0145001522000000000000
B0543073200852S11725564EA0144401513000000000000
B0543113200817S11725640EA0143401502000000000000
B0543153200784S11725716EA0142301491000000000000
B0543193200750S11725791EA0141501480000000000000
B0543233200717S11725867EA0140401472000000000000
B0543273200689S11725942EA0140101469000000000000
B0543313200661S11726019EA0139801462000000000000
B0543353200631S11726095EA0138601451000000000000
B0543393200599S11726168EA0137401442000000000000
B0543433200568S11726240EA0137101438000000000000
B0543473200540S11726311EA0136001424000000000000
B0543513200509S11726387EA0134801412000000000000
B0543553200479S11726463EA0133701401000000000000
B0543593200449S11726543EA0132901393000000000000
B0544033200418S11726621EA0132301391000000000000
B0544073200384S11726699EA0132201389000000000000
B0544113200343S11726769EA0132201391000000000000
B0544153200297S11726829EA0133301403000000000000
B0544193200241S11726868EA0134101409000000000000
B0544233200187S11726900EA0134201405000000000000
B0544273200124S11726921EA0133901404000000000000
B0544313200062S11726923EA0134701416000000000000
B0544353200004S11726929EA0135501419000000000000
B0544393159946S11726936EA0135701423000000000000
B0544433159888S11726943EA0136001424000000000000
B0544473159831S11726949EA0136001426000000000000
B0544513159773S11726955EA0136401431000000000000
B0544553159718S11726969EA0137201439000000000000
B0544593159697S11727026EA0138401454000000000000
B0545033159746S11727066EA0138601447000000000000
B0545073159805S11727011EA0138101449000000000000
B0545113159819S11726930EA0138401452000000000000
B0545153159783S11726879EA0138901458000000000000
B0545193159728S11726877EA0138501452000000000000
B0545233159671S11726894EA0138901463000000000000
B0545273159636S11726944EA0140601480000000000000
B0545313159684S11726994EA0140301465000000000000
B0545353159740S11726946EA0141301476000000000000
B0545393159738S11726877EA0142301484000000000000
B0545433159697S11726883EA0143101494000000000000
B0545473159714S11726956EA0143501497000000000000
B0545513159784S11726956EA0143901503000000000000
B0545553159806S11726886EA0144701512000000000000
B0545593159771S11726845EA0145901528000000000000
B0546033159733S11726877EA0146901537000000000000
B0546073159744S11726946EA0147201537000000000000
B0546113159803S11726991EA0146501533000000000000
B0546153159875S11726983EA0146901542000000000000
B0546193159901S11726912EA0146901539000000000000
B0546233159867S11726853EA0147201551000000000000
B0546273159818S11726831EA0148501566000000000000
B0546313159797S11726892EA0149701570000000000000
B0546353159841S11726951EA0148801559000000000000
B0546393159909S11726930EA0148601562000000000000
B0546433159936S11726860EA0149701574000000000000
B0546473159927S11726790EA0150801584000000000000
B0546513159880S11726783EA0151601590000000000000
B0546553159867S11726853EA0151601587000000000000
B0546593159916S11726910EA0151101583000000000000
B0547033159976S11726879EA0151501590000000000000
B0547073159976S11726808EA0152001593000000000000
B0547113159942S11726749EA0152201596000000000000
B0547153159889S11726734EA0151301577000000000000
B0547193159835S11726775EA0147701543000000000000
B0547233159788S11726851EA0144901517000000000000
B0547273159749S11726931EA0143001498000000000000
B0547313159715S11727020EA0141501487000000000000
B0547353159686S11727112EA0140601474000000000000
B0547393159660S11727207EA0139401464000000000000
B0547433159638S11727302EA0139001460000000000000
B0547473159621S11727398EA0138501452000000000000
B0547513159603S11727493EA0137801443000000000000
B0547553159586S11727589EA0136701429000000000000
B0547593159568S11727687EA0135501417000000000000
B0548033159550S11727781EA0134301406000000000000
B0548073159534S11727878EA0133401395000000000000
B0548113159519S11727971EA0132701392000000000000
B0548153159503S11728062EA0132901392000000000000
B0548193159489S11728149EA0132901392000000000000
B0548233159474S11728236EA0132401384000000000000
B0548273159458S11728322EA0131801378000000000000
B0548313159443S11728407EA0131401375000000000000
B0548353159426S11728490EA0130901370000000000000
B0548393159409S11728573EA0130301362000000000000
B0548433159395S11728658EA0129301352000000000000
B0548473159381S11728741EA0129401358000000000000
B0548513159357S11728812EA0131101373000000000000
B0548553159317S11728860EA0132101383000000000000
B0548593159266S11728886EA0132401381000000000000
B0549033159214S11728911EA0131601370000000000000
B0549073159164S11728950EA0130201359000000000000
B0549113159120S11729007EA0129301353000000000000
B0549153159078S11729066EA0129301357000000000000
B0549193159034S11729119EA0129101353000000000000
B0549233158992S11729174EA0129801361000000000000
B0549273158956S11729221EA0130801369000000000000
B0549313158921S11729269EA0131301372000000000000
B0549353158889S11729323EA0130801366000000000000
B0549393158863S11729386EA0130301365000000000000
B0549433158839S11729451EA0130401365000000000000
B0549473158814S11729518EA0129401351000000000000
B0549513158791S11729588EA0128001340000000000000
B0549553158771S11729660EA0127101327000000000000
B0549593158757S11729737EA0125301307000000000000
B0550033158754S11729821EA0124701310000000000000
B0550073158752S11729902EA0125501317000000000000
B0550113158726S11729971EA0126301327000000000000
B0550153158685S11730020EA0128101349000000000000
B0550193158670S11730079EA0130301371000000000000
B0550233158727S11730110EA0131201372000000000000
B0550273158778S11730051EA0131001376000000000000
B0550313158765S11729988EA0133101398000000000000
B0550353158724S11729988EA0134301410000000000000
B0550393158719S11730046EA0135401418000000000000
B0550433158776S11730084EA0135701421000000000000
B0550473158841S11730050EA0136001424000000000000
B0550513158860S11729981EA0137401439000000000000
B0550553158824S11729946EA0138501449000000000000
B0550593158800S11729991EA0139501465000000000000
B0551033158841S11730040EA0141001480000000000000
B0551073158908S11730027EA0141901487000000000000
B0551113158934S11729959EA0142501497000000000000
B0551153158906S11729915EA0144301518000000000000
B0551193158867S11729928EA0145601529000000000000
B0551233158865S11729986EA0146601541000000000000
B0551273158910S11730029EA0147401545000000000000
B0551313158978S11730024EA0147801550000000000000
B0551353159027S11729972EA0149101567000000000000
B0551393159029S11729911EA0149901573000000000000
B0551433158988S11729890EA0150801586000000000000
B0551473158962S11729933EA0152201601000000000000
B0551513158996S11729986EA0153601613000000000000
B0551553159064S11729993EA0154001614000000000000
B0551593159123S11729949EA0154801630000000000000
B0552033159146S11729882EA0156301641000000000000
B0552073159120S11729835EA0157401652000000000000
B0552113159079S11729851EA0158201663000000000000
B0552153159077S11729911EA0159501675000000000000
B0552193159125S11729956EA0160501686000000000000
B0552233159194S11729945EA0161801697000000000000
B0552273159237S11729885EA0162501707000000000000
B0552313159227S11729824EA0163301716000000000000
B0552353159187S11729807EA0164301726000000000000
B0552393159160S11729847EA0164901734000000000000
B0552433159173S11729912EA0165801744000000000000
B0552473159230S11729946EA0166901753000000000000
B0552513159296S11729919EA0167201756000000000000
B0552553159324S11729851EA0168801772000000000000
B0552593159298S11729811EA0169601779000000000000
B0553033159261S11729838EA0170001782000000000000
B0553073159278S11729900EA0171101795000000000000
B0553113159343S11729923EA0171701802000000000000
B0553153159408S11729891EA0172801814000000000000
B0553193159430S11729828EA0173801821000000000000
B0553233159402S11729787EA0173601818000000000000
B0553273159364S11729812EA0173901827000000000000
B0553313159363S11729874EA0174601832000000000000
B0553353159408S11729930EA0175201837000000000000
B0553393159481S11729917EA0175401838000000000000
B0553433159519S11729848EA0176201849000000000000
B0553473159495S11729800EA0177001855000000000000
B0553513159454S11729812EA0177001854000000000000
B0553553159446S11729878EA0177001857000000000000
B0553593159499S11729932EA0177801861000000000000
B0554033159577S11729923EA0177801863000000000000
B0554073159636S11729868EA0178401869000000000000
B0554113159643S11729796EA0179001877000000000000
B0554153159615S11729754EA0179001877000000000000
B0554193159569S11729754EA0178801871000000000000
B0554233159529S11729799EA0177101851000000000000
B0554273159507S11729878EA0176101848000000000000
B0554313159500S11729963EA0177001863000000000000
B0554353159504S11730045EA0179201883000000000000
B0554393159538S11730121EA0180901899000000000000
B0554433159610S11730153EA0182701914000000000000
B0554473159677S11730108EA0183401921000000000000
B0554513159680S11730041EA0184901938000000000000
B0554553159637S11730032EA0185801946000000000000
B0554593159615S11730094EA0187101960000000000000
B0555033159660S11730160EA0188601974000000000000
B0555073159737S11730155EA0189901989000000000000
B0555113159770S11730092EA0191402004000000000000
B0555153159738S11730053EA0192502013000000000000
B0555193159698S11730085EA0193202022000000000000
B0555233159706S11730162EA0194102035000000000000
B0555273159771S11730212EA0195202047000000000000
B0555313159845S11730197EA0196302056000000000000
B0555353159872S11730132EA0197102064000000000000
B0555393159841S11730088EA0198202080000000000000
B0555433159801S11730119EA0199602091000000000000
B0555473159815S11730194EA0200502098000000000000
B0555513159885S11730224EA0201702112000000000000
B0555553159935S11730179EA0202502116000000000000
B0555593159918S11730121EA0202302115000000000000
B0556033159866S11730116EA0202202116000000000000
B0556073159818S11730164EA0202802124000000000000
B0556113159802S11730245EA0203202128000000000000
B0556153159824S11730337EA0203802129000000000000
B0556193159868S11730414EA0204802148000000000000
B0556233159941S11730406EA0206502157000000000000
B0556273159953S11730340EA0206402153000000000000
B0556313159907S11730335EA0205602144000000000000
B0556353159875S11730401EA0205002143000000000000
B0556393159861S11730485EA0205302143000000000000
B0556433159851S11730575EA0203702122000000000000
B0556473159842S11730669EA0202002108000000000000
B0556513159833S11730766EA0201002099000000000000
B0556553159825S11730864EA0200702094000000000000
B0556593159820S11730960EA0199902085000000000000
B0557033159814S11731059EA0199102077000000000000
B0557073159803S11731154EA0198102070000000000000
B0557113159789S11731247EA0197302062000000000000
B0557153159776S11731337EA0196902060000000000000
B0557193159764S11731423EA0196802055000000000000
B0557233159754S11731507EA0195902045000000000000
B0557273159742S11731593EA0195102032000000000000
B0557313159731S11731680EA0193802021000000000000
B0557353159720S11731767EA0194102030000000000000
B0557393159715S11731849EA0195102039000000000000
B0557433159708S11731927EA0195502041000000000000
B0557473159699S11732006EA0195602041000000000000
B0557513159693S11732087EA0195802041000000000000
B0557553159684S11732170EA0194202023000000000000
B0557593159669S11732255EA0192902012000000000000
B0558033159655S11732342EA0191901996000000000000
B0558073159637S11732432EA0190401984000000000000
B0558113159617S11732521EA0189601982000000000000
B0558153159601S11732603EA0189801986000000000000
B0558193159581S11732679EA0189601978000000000000
B0558233159562S11732754EA0188401965000000000000
B0558273159539S11732832EA0187701962000000000000
B0558313159516S11732907EA0188001965000000000000
B0558353159486S11732978EA0187801964000000000000
B0558393159458S11733050EA0187601963000000000000
B0558433159429S11733124EA0187501959000000000000
B0558473159396S11733197EA0187301957000000000000
B0558513159359S11733269EA0187201961000000000000
B0558553159322S11733335EA0188101967000000000000
B0558593159286S11733400EA0187901960000000000000
B0559033159250S11733472EA0186301944000000000000
B0559073159214S11733548EA0185001934000000000000
B0559113159181S11733631EA0183601923000000000000
B0559153159147S11733713EA0183501923000000000000
B0559193159117S11733795EA0183301916000000000000
B0559233159086S11733876EA0182001899000000000000
B0559273159051S11733955EA0180501885000000000000
B0559313159019S11734036EA0179601879000000000000
B0559353158988S11734118EA0178601871000000000000
B0559393158961S11734202EA0177901863000000000000
B0559433158932S11734289EA0177001854000000000000
B0559473158905S11734375EA0176701849000000000000
B0559513158882S11734462EA0176501846000000000000
B0559553158858S11734551EA0175701838000000000000
B0559593158831S11734639EA0174901829000000000000
B0600033158802S11734727EA0174001820000000000000
B0600073158771S11734813EA0173701820000000000000
B0600113158739S11734894EA0173901822000000000000
B0600153158701S11734965EA0173801819000000000000
B0600193158655S11735029EA0173601818000000000000
B0600233158605S11735082EA0173301812000000000000
B0600273158551S11735128EA0172501804000000000000
B0600313158493S11735167EA0171701795000000000000
B0600353158432S11735198EA0170501781000000000000
B0600393158368S11735236EA0169001768000000000000
B0600433158303S11735267EA0167901757000000000000
B0600473158233S11735284EA0166601743000000000000
B0600513158161S11735286EA0165401729000000000000
B0600553158089S11735290EA0165101727000000000000
B0600593158016S11735294EA0164701723000000000000
B0601033157946S11735305EA0164201713000000000000
B0601073157883S11735341EA0163701716000000000000
B0601113157838S11735398EA0164301718000000000000
B0601153157795S11735458EA0164301716000000000000
B0601193157744S11735511EA0163501709000000000000
B0601233157684S11735544EA0163801714000000000000
B0601273157625S11735567EA0163701712000000000000
B0601313157563S11735587EA0163301702000000000000
B0601353157497S11735601EA0163301707000000000000
B0601393157433S11735623EA0163401709000000000000
B0601433157368S11735643EA0163201705000000000000
B0601473157305S11735661EA0162301696000000000000
B0601513157240S11735678EA0161301686000000000000
B0601553157173S11735688EA0160401677000000000000
B0601593157110S11735715EA0159401664000000000000
B0602033157046S11735754EA0158201646000000000000
B0602073156995S11735821EA0157501640000000000000
B0602113156958S11735904EA0156401626000000000000
B0602153156919S11735990EA0155201616000000000000
B0602193156878S11736072EA0154501609000000000000
B0602233156832S11736148EA0153401596000000000000
B0602273156785S11736228EA0152201587000000000000
B0602313156738S11736311EA0151301580000000000000
B0602353156692S11736395EA0150401570000000000000
B0602393156647S11736482EA0149601559000000000000
B0602433156603S11736568EA0148501550000000000000
B0602473156552S11736640EA0148101547000000000000
B0602513156500S11736702EA0147401536000000000000
B0602553156449S11736766EA0146601528000000000000
B0602593156409S11736836EA0146301524000000000000
B0603033156374S11736909EA0145701517000000000000
B0603073156344S11736985EA0144801508000000000000
B0603113156317S11737065EA0144001499000000000000
B0603153156287S11737144EA0143601496000000000000
B0603193156252S11737219EA0144001500000000000000
B0603233156204S11737279EA0144301508000000000000
B0603273156145S11737312EA0145601521000000000000
B0603313156088S11737327EA0146301524000000000000
B0603353156031S11737346EA0146001524000000000000
B0603393155972S11737364EA0146701532000000000000
B0603433155915S11737378EA0147601543000000000000
B0603473155857S11737388EA0148301549000000000000
B0603513155798S11737400EA0148401552000000000000
B0603553155741S11737413EA0148801554000000000000
B0603593155681S11737424EA0148601549000000000000
B0604033155619S11737430EA0148801556000000000000
B0604073155556S11737438EA0149101557000000000000
B0604113155494S11737456EA0148601549000000000000
B0604153155430S11737477EA0147601539000000000000
B0604193155365S11737503EA0146601528000000000000
B0604233155298S11737522EA0144801505000000000000
B0604273155222S11737512EA0142801489000000000000
B0604313155147S11737502EA0142301487000000000000
B0604353155074S11737515EA0142301488000000000000
B0604393155009S11737543EA0142401486000000000000
B0604433154944S11737577EA0141701476000000000000
B0604473154878S11737599EA0140801468000000000000
B0604513154810S11737609EA0140201461000000000000
B0604553154742S11737607EA0139101450000000000000
B0604593154676S11737593EA0138301442000000000000
B0605033154611S11737567EA0136801426000000000000
B0605073154544S11737534EA0135001409000000000000
B0605113154476S11737503EA0133601395000000000000
B0605153154408S11737466EA0132201378000000000000
B0605193154342S11737427EA0131401377000000000000
B0605233154277S11737407EA0131601376000000000000
B0605273154208S11737394EA0130801368000000000000
B0605313154138S11737381EA0129901356000000000000
B0605353154066S11737356EA0128701346000000000000
B0605393153996S11737307EA0128301343000000000000
B0605433153927S11737255EA0127801336000000000000
B0605473153856S11737213EA0127201333000000000000
B0605513153784S11737200EA0127401330000000000000
B0605553153715S11737196EA0126201314000000000000
B0605593153649S11737200EA0124601295000000000000
B0606033153579S11737182EA0122501274000000000000
B0606073153504S11737151EA0119801244000000000000
B0606113153426S11737109EA0118001234000000000000
B0606153153348S11737091EA0118401240000000000000
B0606193153277S11737092EA0118801243000000000000
B0606233153215S11737105EA0119401246000000000000
B0606273153154S11737123EA0119201241000000000000
B0606313153091S11737139EA0118701236000000000000
B0606353153032S11737153EA0118501236000000000000
B0606393152972S11737167EA0118001230000000000000
B0606433152915S11737196EA0117201218000000000000
B0606473152855S11737225EA0115901205000000000000
B0606513152792S11737253EA0114201190000000000000
B0606553152730S11737294EA0113101176000000000000
B0606593152662S11737317EA0111801157000000000000
B0607033152586S11737312EA0109301140000000000000
B0607073152512S11737292EA0108401130000000000000
B0607113152441S11737268EA0107401123000000000000
B0607153152374S11737243EA0107101119000000000000
B0607193152310S11737217EA0106801113000000000000
B0607233152248S11737177EA0106201108000000000000
B0607273152192S11737126EA0106101109000000000000
B0607313152137S11737074EA0106101111000000000000
B0607353152085S11737024EA0105801106000000000000
B0607393152032S11736978EA0105201098000000000000
B0607433151972S11736946EA0105301102000000000000
B0607473151911S11736939EA0106801120000000000000
B0607513151866S11736962EA0109801153000000000000
B0607553151886S11737017EA0111601162000000000000
B0607593151955S11737008EA0111001155000000000000
B0608033151988S11736930EA0111601171000000000000
B0608073151970S11736855EA0114001178000000000000
B0608113151927S11736797EA0114501185000000000000
B0608153151875S11736754EA0115201189000000000000
B0608193151829S11736731EA0116101207000000000000
B0608233151788S11736725EA0117001209000000000000
B0608273151745S11736742EA0116801204000000000000
B0608313151712S11736793EA0116701203000000000000
B0608353151721S11736863EA0116801203000000000000
B0608393151777S11736910EA0116701203000000000000
B0608433151847S11736905EA0116601200000000000000
B0608473151914S11736865EA0116301195000000000000
B0608513151967S11736803EA0115901190000000000000
B0608553151999S11736731EA0115701192000000000000
B0608593151996S11736660EA0115901193000000000000
B0609033151962S11736615EA0115501190000000000000
B0609073151915S11736598EA0115401189000000000000
B0609113151869S11736606EA0115501190000000000000
B0609153151837S11736642EA0115401188000000000000
B0609193151816S11736694EA0114701180000000000000
B0609233151823S11736759EA0114301175000000000000
B0609273151867S11736813EA0113801172000000000000
B0609313151934S11736822EA0113401166000000000000
B0609353152003S11736793EA0113101167000000000000
B0609393152064S11736749EA0113201169000000000000
B0609433152123S11736699EA0113201167000000000000
B0609473152178S11736644EA0113201170000000000000
B0609513152219S11736580EA0113401170000000000000
B0609553152233S11736510EA0112901166000000000000
B0609593152211S11736459EA0113701177000000000000
B0610033152178S11736475EA0114701184000000000000
B0610073152181S11736534EA0113701165000000000000
B0610113152240S11736579EA0112201152000000000000
B0610153152319S11736571EA0112401162000000000000
B0610193152384S11736527EA0112701161000000000000
B0610233152405S11736455EA0112701162000000000000
B0610273152376S11736415EA0113201169000000000000
B0610313152337S11736426EA0114101179000000000000
B0610353152327S11736485EA0114601181000000000000
B0610393152370S11736545EA0114201172000000000000
B0610433152444S11736543EA0114901186000000000000
B0610473152496S11736493EA0115401189000000000000
B0610513152509S11736424EA0115001179000000000000
B0610553152477S11736380EA0114801182000000000000
B0610593152443S11736411EA0116001198000000000000
B0611033152456S11736480EA0116501197000000000000
B0611073152519S11736528EA0115801189000000000000
B0611113152603S11736524EA0116001196000000000000
B0611153152668S11736469EA0116801205000000000000
B0611193152683S11736395EA0117101207000000000000
B0611233152653S11736352EA0117401212000000000000
B0611273152613S11736363EA0117801215000000000000
B0611313152600S11736421EA0118701227000000000000
B0611353152643S11736485EA0119401230000000000000
B0611393152717S11736484EA0120001240000000000000
B0611433152755S11736417EA0120401239000000000000
B0611473152729S11736363EA0119801230000000000000
B0611513152683S11736378EA0120301244000000000000
B0611553152668S11736438EA0121401253000000000000
B0611593152704S11736506EA0121001244000000000000
B0612033152779S11736530EA0121101251000000000000
B0612073152852S11736499EA0121601257000000000000
B0612113152903S11736430EA0121801253000000000000
B0612153152908S11736347EA0121201247000000000000
B0612193152867S11736300EA0121001246000000000000
B0612233152815S11736307EA0121201250000000000000
B0612273152790S11736365EA0122001264000000000000
B0612313152813S11736437EA0122201253000000000000
B0612353152885S11736476EA0121101244000000000000
B0612393152968S11736455EA0121101248000000000000
B0612433153042S11736404EA0121201247000000000000
B0612473153110S11736339EA0121101246000000000000
B0612513153166S11736269EA0121201246000000000000
B0612553153203S11736189EA0120501238000000000000
B0612593153244S11736109EA0119901234000000000000
B0613033153293S11736035EA0118801218000000000000
B0613073153353S11735966EA0118001205000000000000
B0613113153419S11735901EA0117001193000000000000
B0613153153489S11735840EA0116801198000000000000
B0613193153557S11735780EA0117601208000000000000
B0613233153621S11735718EA0118401222000000000000
B0613273153667S11735643EA0120501244000000000000
B0613313153643S11735585EA0122901267000000000000
B0613353153601S11735601EA0123201263000000000000
B0613393153601S11735675EA0122001258000000000000
B0613433153649S11735735EA0122301264000000000000
B0613473153719S11735744EA0123501278000000000000
B0613513153780S11735708EA0124301283000000000000
B0613553153805S11735636EA0124601289000000000000
B0613583153787S11735591EA0125601303000000000000
B0614033153735S11735605EA0127201319000000000000
B0614073153734S11735671EA0128201323000000000000
B0614113153779S11735732EA0128901337000000000000
B0614153153848S11735748EA0129801343000000000000
B0614193153909S11735714EA0130201344000000000000
B0614233153933S11735644EA0130201349000000000000
B0614273153907S11735584EA0131301359000000000000
B0614313153855S11735580EA0132701376000000000000
B0614353153829S11735635EA0134101390000000000000
B0614393153857S11735705EA0134501391000000000000
B0614433153929S11735735EA0135601404000000000000
B0614473153996S11735706EA0136101410000000000000
B0614513154024S11735637EA0136701415000000000000
B0614553153998S11735575EA0137301425000000000000
B0614593153946S11735572EA0138301435000000000000
B0615033153925S11735635EA0139601450000000000000
B0615073153956S11735702EA0140601458000000000000
B0615113154024S11735734EA0141201464000000000000
B0615153154095S11735711EA0141401465000000000000
B0615193154129S11735644EA0142201474000000000000
B0615233154111S11735576EA0143001483000000000000
B0615273154061S11735558EA0143801493000000000000
B0615313154025S11735601EA0145001507000000000000
B0615353154037S11735670EA0145801512000000000000
B0615393154090S11735719EA0146301518000000000000
B0615433154163S11735718EA0146601518000000000000
B0615473154217S11735662EA0147101527000000000000
B0615513154233S11735581EA0148001534000000000000
B0615553154203S11735520EA0148401540000000000000
B0615593154150S11735516EA0149301549000000000000
B0616033154116S11735568EA0150401560000000000000
B0616073154128S11735641EA0151101565000000000000
B0616113154186S11735692EA0151301567000000000000
B0616153154264S11735696EA0151401566000000000000
B0616193154338S11735650EA0151401567000000000000
B0616233154381S11735571EA0151901572000000000000
B0616273154368S11735493EA0152001573000000000000
B0616313154316S11735449EA0151701570000000000000
B0616353154258S11735464EA0152701584000000000000
B0616393154239S11735527EA0154701606000000000000
B0616433154276S11735585EA0155801613000000000000
B0616473154346S11735604EA0155801615000000000000
B0616513154420S11735575EA0155701612000000000000
B0616553154482S11735514EA0155401604000000000000
B0616593154537S11735437EA0154301595000000000000
B0617033154592S11735362EA0154001593000000000000
B0617073154645S11735281EA0152301570000000000000
B0617113154697S11735195EA0151201566000000000000
B0617153154748S11735115EA0150701559000000000000
B0617193154798S11735035EA0150401559000000000000
B0617233154849S11734960EA0150601562000000000000
B0617273154898S11734886EA0150201557000000000000
B0617313154947S11734809EA0149801552000000000000
B0617353154992S11734733EA0149101545000000000000
B0617393155040S11734658EA0149001549000000000000
B0617433155088S11734584EA0149101547000000000000
B0617473155134S11734508EA0148801545000000000000
B0617513155178S11734427EA0148901548000000000000
B0617553155220S11734345EA0148901546000000000000
B0617593155262S11734263EA0148601541000000000000
B0618033155308S11734179EA0148101535000000000000
B0618073155353S11734092EA0147601530000000000000
B0618113155400S11734006EA0146701518000000000000
B0618153155447S11733923EA0145901515000000000000
B0618193155494S11733845EA0145501509000000000000
B0618233155542S11733764EA0144601496000000000000
B0618273155591S11733683EA0143401483000000000000
B0618313155642S11733600EA0142101470000000000000
B0618353155694S11733516EA0141101462000000000000
B0618393155745S11733433EA0141001463000000000000
B0618433155795S11733355EA0141401466000000000000
B0618473155846S11733278EA0141301467000000000000
B0618513155896S11733204EA0141801473000000000000
B0618553155945S11733130EA0142301480000000000000
B0618593155994S11733057EA0142601481000000000000
B0619033156045S11732987EA0143001485000000000000
B0619073156094S11732915EA0142901484000000000000
B0619113156144S11732844EA0142701483000000000000
B0619153156193S11732768EA0142501481000000000000
B0619193156244S11732693EA0142001469000000000000
B0619233156293S11732615EA0141001462000000000000
B0619273156341S11732536EA0140501459000000000000
B0619313156391S11732456EA0140001452000000000000
B0619353156440S11732373EA0139101443000000000000
B0619393156490S11732289EA0138501440000000000000
B0619433156539S11732205EA0138201435000000000000
B0619473156588S11732122EA0137701428000000000000
B0619513156639S11732038EA0137001422000000000000
B0619553156689S11731954EA0136501418000000000000
B0619593156737S11731871EA0135901409000000000000
B0620033156785S11731787EA0134801398000000000000
B0620073156834S11731705EA0134001392000000000000
B0620113156882S11731624EA0133501387000000000000
B0620153156930S11731546EA0133201386000000000000
B0620193156977S11731468EA0132701379000000000000
B0620233157025S11731394EA0132301373000000000000
B0620273157075S11731324EA0131401363000000000000
B0620313157127S11731254EA0130401348000000000000
B0620353157180S11731184EA0129101335000000000000
B0620393157232S11731109EA0127801324000000000000
B0620433157281S11731035EA0126701315000000000000
B0620473157331S11730963EA0125801303000000000000
B0620513157378S11730888EA0125001298000000000000
B0620553157424S11730817EA0124401292000000000000
B0620593157471S11730745EA0123801285000000000000
B0621033157518S11730677EA0123201277000000000000
B0621073157565S11730609EA0122301265000000000000
B0621113157612S11730541EA0120901252000000000000
B0621153157657S11730472EA0120001244000000000000
B0621193157703S11730405EA0119601240000000000000
B0621233157747S11730337EA0119001232000000000000
B0621273157790S11730270EA0118101223000000000000
B0621313157833S11730202EA0117101211000000000000
B0621353157878S11730132EA0116501210000000000000
B0621393157924S11730062EA0116301207000000000000
B0621433157970S11729990EA0115601196000000000000
B0621473158017S11729917EA0114701189000000000000
B0621513158063S11729842EA0114201185000000000000
B0621553158107S11729765EA0114101181000000000000
B0621593158155S11729691EA0113801180000000000000
B0622033158204S11729618EA0113501176000000000000
B0622073158255S11729546EA0113301173000000000000
B0622113158307S11729473EA0113101173000000000000
B0622153158358S11729401EA0113301176000000000000
B0622193158408S11729331EA0113401177000000000000
B0622233158459S11729260EA0113401176000000000000
B0622273158506S11729187EA0113501179000000000000
B0622313158549S11729113EA0113601180000000000000
B0622353158590S11729036EA0113901185000000000000
B0622393158632S11728959EA0114801196000000000000
B0622433158675S11728883EA0115001196000000000000
B0622473158720S11728803EA0115301198000000000000
B0622513158762S11728721EA0115701200000000000000
B0622553158802S11728636EA0115701198000000000000
B0622593158839S11728548EA0115301192000000000000
B0623033158873S11728461EA0114801188000000000000
B0623073158906S11728374EA0114601185000000000000
B0623113158943S11728287EA0114401183000000000000
B0623153158980S11728204EA0114701188000000000000
B0623193159017S11728125EA0115101195000000000000
B0623233159055S11728048EA0115701199000000000000
B0623273159092S11727969EA0116001205000000000000
B0623313159130S11727889EA0116601209000000000000
B0623353159166S11727810EA0117001211000000000000
B0623393159203S11727731EA0116901210000000000000
B0623433159240S11727653EA0116901207000000000000
B0623473159278S11727576EA0116401202000000000000
B0623513159315S11727502EA0116101197000000000000
B0623553159352S11727429EA0115601190000000000000
B0623593159390S11727359EA0114801183000000000000
B0624033159430S11727289EA0114101171000000000000
B0624073159468S11727217EA0112601156000000000000
B0624113159504S11727143EA0111601147000000000000
B0624153159539S11727069EA0111001144000000000000
B0624193159572S11726994EA0111301150000000000000
B0624233159602S11726916EA0112301163000000000000
B0624273159632S11726839EA0113301170000000000000
B0624313159663S11726760EA0113701173000000000000
B0624353159692S11726678EA0114401183000000000000
B0624393159719S11726595EA0115601194000000000000
B0624433159749S11726507EA0116601205000000000000
B0624473159779S11726419EA0117401209000000000000
B0624513159807S11726328EA0117501210000000000000
B0624553159836S11726233EA0118601220000000000000
B0624593159862S11726138EA0119001226000000000000
B0625033159889S11726045EA0119801237000000000000
B0625073159924S11725956EA0120401241000000000000
B0625113159978S11725876EA0120701242000000000000
B0625153200035S11725799EA0121101248000000000000
B0625193200069S11725708EA0121601256000000000000
B0625233200083S11725616EA0122501266000000000000
B0625273200089S11725523EA0123201268000000000000
B0625313200089S11725428EA0123101268000000000000
B0625353200093S11725328EA0122301257000000000000
B0625393200101S11725230EA0122301261000000000000
B0625433200132S11725141EA0122401262000000000000
B0625473200212S11725114EA0122401258000000000000
B0625513200274S11725168EA0121601249000000000000
B0625553200275S11725248EA0121001243000000000000
B0625593200227S11725282EA0120701238000000000000
B0626033200171S11725244EA0120201236000000000000
B0626073200134S11725174EA0120101234000000000000
B0626113200105S11725093EA0120301239000000000000
B0626153200083S11725010EA0120201236000000000000
B0626193200082S11724918EA0120101234000000000000
B0626233200124S11724834EA0120301239000000000000
B0626273200205S11724797EA0120601240000000000000
B0626313200287S11724836EA0120301234000000000000
B0626353200327S11724921EA0120401239000000000000
B0626393200330S11725009EA0121501255000000000000
B0626433200310S11725075EA0122401259000000000000
B0626473200266S11725119EA0122001253000000000000
B0626513200208S11725131EA0121501247000000000000
B0626553200148S11725107EA0120701239000000000000
B0626593200092S11725072EA0119601225000000000000
B0627033200032S11725044EA0117701205000000000000
B0627073159970S11725015EA0116201186000000000000
B0627113159916S11724971EA0114401168000000000000
B0627153159880S11724910EA0112201143000000000000
B0627193159867S11724834EA0109401114000000000000
B0627233159867S11724755EA0106201080000000000000
B0627273159876S11724672EA0102901045000000000000
B0627313159887S11724585EA0099601014000000000000
B0627353159893S11724494EA0097100989000000000000
B0627393159894S11724403EA0094800958000000000000
B0627433159898S11724318EA0092000930000000000000
B0627473159910S11724239EA0089200903000000000000
B0627513159935S11724164EA0086700877000000000000
B0627553159978S11724096EA0084400855000000000000
B0627593200033S11724034EA0082300833000000000000
B0628033200088S11723969EA0079900807000000000000
B0628073200140S11723905EA0076600772000000000000
B0628113200196S11723842EA0072800732000000000000
B0628153200256S11723785EA0070100698000000000000
B0628193200323S11723738EA0067200669000000000000
B0628233200399S11723706EA0063800629000000000000
B0628273200481S11723699EA0059800590000000000000
B0628313200557S11723728EA0055900549000000000000
B0628353200621S11723780EA0052100512000000000000
B0628393200678S11723839EA0049200484000000000000
B0628433200728S11723904EA0046400456000000000000
B0628473200765S11723974EA0043500426000000000000
B0628513200789S11724050EA0040800399000000000000
B0628553200798S11724128EA0039300375000000000000
B0628593200791S11724209EA0037500361000000000000
B0629033200774S11724284EA0035700340000000000000
B0629073200743S11724353EA0033900322000000000000
B0629113200706S11724420EA0032200306000000000000
B0629153200665S11724483EA0030700290000000000000
B0629193200624S11724547EA0029300278000000000000
B0629233200585S11724604EA0027700262000000000000
B0629273200548S11724658EA0026500250000000000000
B0629313200514S11724708EA0025400241000000000000
B0629353200486S11724752EA0024900238000000000000
B0629393200462S11724786EA0024800238000000000000
B0629433200444S11724814EA0024600238000000000000
B0629473200430S11724836EA0024400238000000000000
B0629513200414S11724850EA0024300237000000000000
B0629553200403S11724860EA0024300237000000000000
B0629593200397S11724864EA0024100237000000000000
B0630033200397S11724866EA0024100237000000000000
B0630073200397S11724866EA0024100237000000000000
B0630113200397S11724866EA0024100237000000000000
B0630153200397S11724866EA0024100237000000000000
B0630193200397S11724866EA0024300237000000000000
B0630233200397S11724866EA0024300237000000000000
G000300000020556D6A0000000000000000000000000000000000000000000000
G760EB4961883B5CCA671892234195E74916867E6000000006924C6C17EE47FDC
G63AC2674DD3DB65DDF7F30E0F33B2D28DEC70E820000000000000000DD8976E9
