ACAM4N6
HFDTE191117
HFFXA050
HFPLTPILOT:JOHN WELSH              
HFGTYGLIDERTYPE:HORNET      
HFGIDGLIDERID:VH-GMY      
HFDTM100GPSDATUM:
HFRFWFIRMWAREVERSION:F2.6
HFRHWHARDWAREVERSION:300 Series Version 2
HFFTYFRTYPE:CAMBRIDGE AERO INSTRUMENTS, 302+
HFGPS:GARMIN,LVS-25,12,18000
HFPRSPRESSALTSENSOR:INTERSEMA, MS5534-AP, 20000
I033638FXA3941ENL4247REX
LCAMSBVER:5FWVER:F26300
C191117032318191117000102
C0000000N00000000WTAKEOFF     
C3207549S11656849EBEVAIR      
C3110883S11723215EWYLKTCHM    
C3152966S11809465EBRUCERCK    
C3207549S11656849EBEVAIR      
C0000000N00000000WLANDING     
B0324203207737S11657098EA0022000213000000000000
B0324223207737S11657098EA0022100213000000000000
B0324243207737S11657098EA0022000213000000000000
B0324263207737S11657098EA0022000213000000000000
B0324283207737S11657098EA0022000213000000000000
B0324303207737S11657098EA0022100213000000000000
B0324323207737S11657098EA0022100213000000000000
B0324343207737S11657098EA0022100213000000000000
B0324363207737S11657098EA0022200213000000000000
B0324383207737S11657098EA0022100213000000000000
B0324403207737S11657098EA0022000213000000000000
B0324423207737S11657098EA0022000213000000000000
B0324443207737S11657098EA0022100213000000000000
B0324463207736S11657096EA0022100213000000000000
B0324483207735S11657096EA0022100214000000000000
B0324533207719S11657090EA0022100214000000000000
B0324573207694S11657078EA0022000214000000000000
B0325013207663S11657061EA0022000215000000000000
B0325053207623S11657038EA0022100215000000000000
B0325093207575S11657009EA0022100216000000000000
B0325133207520S11656977EA0022300216000000000000
B0325173207462S11656942EA0022300218000000000000
B0325213207402S11656900EA0022700223000000000000
B0325253207339S11656865EA0023400231000000000000
B0325293207276S11656828EA0024000233000000000000
B0325333207211S11656792EA0024100234000000000000
B0325373207144S11656753EA0024400241000000000000
B0325413207079S11656714EA0025200249000000000000
B0325453207014S11656666EA0025800252000000000000
B0325493206968S11656591EA0026100260000000000000
B0325533206942S11656501EA0026600274000000000000
B0325573206931S11656410EA0028000290000000000000
B0326013206930S11656323EA0029600305000000000000
B0326053206923S11656242EA0030700315000000000000
B0326093206922S11656162EA0031600323000000000000
B0326133206938S11656085EA0032800337000000000000
B0326173206974S11656016EA0034500354000000000000
B0326213207029S11655960EA0035800366000000000000
B0326253207094S11655928EA0036800381000000000000
B0326293207165S11655907EA0037900386000000000000
B0326333207237S11655894EA0037900388000000000000
B0326373207312S11655908EA0037900387000000000000
B0326413207386S11655946EA0038100389000000000000
B0326453207453S11656003EA0038300392000000000000
B0326493207508S11656077EA0039200402000000000000
B0326533207549S11656163EA0040600414000000000000
B0326573207573S11656254EA0040900419000000000000
B0327013207577S11656345EA0041500423000000000000
B0327053207564S11656432EA0042000429000000000000
B0327093207537S11656514EA0042400431000000000000
B0327133207495S11656585EA0042500433000000000000
B0327173207442S11656645EA0042700436000000000000
B0327213207385S11656696EA0044100457000000000000
B0327253207334S11656745EA0045900473000000000000
B0327293207342S11656810EA0047300482000000000000
B0327333207403S11656823EA0047000474000000000000
B0327373207441S11656762EA0047100480000000000000
B0327413207393S11656747EA0048500492000000015000
B0327453207381S11656801EA0049400503000000015000
B0327493207432S11656827EA0049500500000000015000
B0327533207475S11656776EA0049300502000000015000
B0327573207442S11656730EA0050200517000000015000
B0328013207412S11656769EA0050800519000000015000
B0328053207450S11656813EA0051000520000000015000
B0328093207505S11656786EA0051300523000000015000
B0328133207499S11656724EA0051100521000000015000
B0328173207451S11656731EA0051600528000000015000
B0328213207459S11656792EA0052600540000000015000
B0328253207514S11656809EA0053400546000000015000
B0328293207550S11656760EA0053500546000000015000
B0328333207527S11656711EA0053500543000000015000
B0328373207485S11656739EA0053500548000000015000
B0328383207499S11656799EA0054400553000000015000
B0328423207560S11656801EA0054500553000000000000
B0328463207581S11656744EA0054700552000000000000
B0328503207541S11656710EA0054400548000000000000
B0328543207499S11656752EA0054700556000000000000
B0328583207524S11656813EA0055700564000000000000
B0329023207581S11656805EA0055800561000000000000
B0329063207599S11656741EA0055200555000000000000
B0329103207562S11656698EA0054900553000000000000
B0329143207512S11656730EA0054800551000000000000
B0329183207514S11656801EA0055900564000000000000
B0329223207571S11656814EA0056900572000000000000
B0329263207597S11656760EA0057700583000000000000
B0329303207557S11656740EA0058500589000000000000
B0329343207531S11656791EA0058700590000000000000
B0329383207566S11656840EA0059200595000000000000
B0329423207620S11656826EA0059800600000000000000
B0329463207642S11656766EA0059500594000000000000
B0329503207605S11656731EA0059800601000000000000
B0329543207572S11656775EA0060700613000000000000
B0329583207603S11656828EA0061600619000000000000
B0330023207661S11656813EA0062300627000000000000
B0330063207681S11656750EA0062700626000000000000
B0330103207648S11656705EA0063300636000000000000
B0330143207605S11656730EA0064500648000000000000
B0330183207615S11656793EA0065800658000000000000
B0330223207672S11656814EA0066500666000000000000
B0330263207720S11656775EA0066900672000000000000
B0330303207718S11656717EA0067500677000000000000
B0330343207674S11656711EA0068200684000000000000
B0330383207654S11656771EA0069200697000000000000
B0330423207692S11656826EA0070600714000000000000
B0330463207750S11656817EA0072000720000000000000
B0330503207774S11656758EA0072300724000000000000
B0330543207746S11656715EA0073200734000000000000
B0330583207705S11656735EA0073800741000000000000
B0331023207707S11656802EA0074800753000000000000
B0331063207758S11656835EA0076700773000000000000
B0331103207810S11656809EA0077300775000000000000
B0331143207815S11656750EA0077700779000000000000
B0331183207772S11656736EA0077900782000000000000
B0331223207740S11656791EA0078300791000000000000
B0331263207770S11656858EA0079900808000000000000
B0331303207832S11656862EA0080800812000000000000
B0331343207863S11656805EA0081400821000000000000
B0331383207840S11656757EA0082400830000000000000
B0331423207793S11656770EA0083100835000000000000
B0331463207779S11656839EA0083900851000000000000
B0331503207826S11656880EA0085900868000000000000
B0331543207878S11656856EA0086400870000000000000
B0331583207884S11656799EA0087200885000000000000
B0332023207849S11656770EA0088800899000000000000
B0332063207804S11656797EA0089400901000000000000
B0332103207802S11656866EA0090300919000000000000
B0332143207850S11656906EA0092000930000000000000
B0332183207901S11656875EA0092400933000000000000
B0332223207908S11656817EA0093200945000000000000
B0332263207867S11656796EA0094500956000000000000
B0332303207828S11656836EA0095200964000000000000
B0332343207849S11656899EA0096800981000000000000
B0332383207910S11656904EA0097800988000000000000
B0332423207949S11656852EA0098200993000000000000
B0332463207930S11656795EA0099301005000000000000
B0332503207878S11656795EA0100701018000000000000
B0332543207850S11656854EA0101901029000000000000
B0332583207888S11656913EA0103301047000000000000
B0333023207949S11656896EA0104501062000000000000
B0333063207967S11656839EA0106101077000000000000
B0333103207931S11656808EA0107301086000000000000
B0333143207884S11656838EA0107701087000000000000
B0333183207874S11656913EA0108301098000000000000
B0333223207921S11656971EA0110101118000000000000
B0333263207980S11656961EA0111501127000000000000
B0333303208000S11656901EA0112301137000000000000
B0333343207967S11656864EA0113501153000000000000
B0333383207921S11656882EA0114601161000000000000
B0333423207909S11656948EA0115701176000000000000
B0333463207949S11657005EA0117101191000000000000
B0333503208010S11657012EA0117701189000000000000
B0333543208054S11656958EA0117601195000000000000
B0333583208041S11656899EA0118801213000000000000
B0334023207993S11656897EA0120101220000000000000
B0334063207967S11656960EA0120901231000000000000
B0334103208000S11657021EA0122801251000000000000
B0334143208060S11657022EA0123201247000000000000
B0334183208092S11656961EA0123101253000000000000
B0334223208066S11656906EA0124801273000000000000
B0334263208019S11656909EA0126401287000000000000
B0334303207997S11656968EA0127601298000000000000
B0334343208031S11657025EA0129301317000000000000
B0334383208090S11657034EA0129401311000000000000
B0334423208136S11656987EA0129801321000000000000
B0334463208138S11656923EA0130701329000000000000
B0334503208097S11656888EA0131501343000000000000
B0334543208060S11656926EA0133501361000000000000
B0334583208082S11656990EA0134301364000000000000
B0335023208145S11656991EA0134701368000000000000
B0335063208184S11656930EA0135001375000000000000
B0335103208168S11656867EA0136301389000000000000
B0335143208114S11656857EA0137301399000000000000
B0335183208056S11656875EA0137601398000000000000
B0335223207989S11656896EA0137001392000000000000
B0335263207917S11656917EA0136601388000000000000
B0335303207839S11656936EA0136301382000000000000
B0335343207757S11656958EA0136401389000000000000
B0335383207679S11656978EA0137001395000000000000
B0335423207599S11656995EA0137101395000000000000
B0335463207521S11657014EA0137001393000000000000
B0335503207443S11657031EA0136401384000000000000
B0335543207364S11657046EA0135001369000000000000
B0335583207282S11657059EA0133801357000000000000
B0336023207203S11657069EA0134101369000000000000
B0336063207130S11657077EA0135501384000000000000
B0336103207060S11657086EA0136701394000000000000
B0336143206988S11657098EA0137601403000000000000
B0336183206920S11657108EA0138201407000000000000
B0336223206849S11657121EA0138401410000000000000
B0336263206778S11657135EA0137301389000000000000
B0336303206700S11657150EA0135101371000000000000
B0336343206621S11657163EA0134101364000000000000
B0336383206540S11657170EA0133601359000000000000
B0336423206462S11657176EA0132701347000000000000
B0336463206381S11657182EA0131201333000000000000
B0336503206299S11657186EA0130601329000000000000
B0336543206219S11657189EA0130301327000000000000
B0336583206142S11657189EA0130001322000000000000
B0337023206064S11657187EA0129101311000000000000
B0337063205990S11657187EA0128601310000000000000
B0337103205916S11657187EA0128301307000000000000
B0337143205843S11657189EA0127601295000000000000
B0337183205768S11657192EA0126701286000000000000
B0337223205690S11657200EA0125901278000000000000
B0337263205612S11657212EA0125101270000000000000
B0337303205536S11657225EA0124601265000000000000
B0337343205464S11657241EA0124501269000000000000
B0337383205400S11657255EA0125401279000000000000
B0337423205339S11657270EA0125601278000000000000
B0337463205276S11657285EA0125101269000000000000
B0337503205210S11657295EA0124601266000000000000
B0337543205146S11657304EA0125101276000000000000
B0337583205088S11657315EA0125701279000000000000
B0338023205028S11657329EA0126601292000000000000
B0338063204998S11657385EA0127901305000000000000
B0338103205037S11657437EA0128401307000000000000
B0338143205097S11657421EA0128601311000000000000
B0338183205120S11657359EA0129601325000000000000
B0338223205100S11657303EA0130501332000000000000
B0338263205046S11657290EA0130901334000000000000
B0338303205007S11657337EA0132201348000000000000
B0338343205028S11657402EA0132601350000000000000
B0338383205088S11657408EA0132901352000000000000
B0338423205124S11657348EA0133201358000000000000
B0338463205107S11657278EA0133901366000000000000
B0338503205051S11657244EA0134501367000000000000
B0338543204981S11657230EA0133401353000000000000
B0338583204906S11657226EA0132401345000000000000
B0339023204827S11657224EA0131901342000000000000
B0339063204750S11657226EA0131501335000000000000
B0339103204671S11657230EA0129701318000000000000
B0339143204594S11657231EA0128701311000000000000
B0339183204520S11657234EA0127801301000000000000
B0339223204444S11657237EA0126401284000000000000
B0339263204368S11657231EA0125301277000000000000
B0339303204295S11657224EA0124801270000000000000
B0339343204217S11657213EA0122801250000000000000
B0339383204134S11657207EA0121201228000000000000
B0339423204047S11657202EA0119201210000000000000
B0339463203958S11657194EA0118301204000000000000
B0339503203874S11657190EA0117701200000000000000
B0339543203792S11657189EA0117701200000000000000
B0339583203714S11657194EA0117801199000000000000
B0340023203638S11657194EA0117201192000000000000
B0340063203567S11657172EA0117001192000000000000
B0340103203504S11657143EA0116801192000000000000
B0340143203445S11657112EA0116001180000000000000
B0340183203391S11657073EA0115701179000000000000
B0340223203345S11657035EA0115601175000000000000
B0340263203299S11657003EA0115401173000000000000
B0340303203252S11656977EA0115101169000000000000
B0340343203205S11656951EA0114901166000000000000
B0340383203156S11656929EA0114701162000000000000
B0340423203105S11656910EA0114601163000000000000
B0340463203053S11656903EA0114601165000000000000
B0340503202999S11656906EA0114801165000000000000
B0340543202943S11656919EA0114901168000000000000
B0340583202887S11656947EA0115001167000000000000
B0341023202832S11656981EA0115101168000000000000
B0341063202774S11657000EA0115501171000000000000
B0341103202714S11657017EA0114601156000000000000
B0341143202650S11657031EA0113501149000000000000
B0341183202584S11657039EA0113001145000000000000
B0341223202519S11657044EA0112801143000000000000
B0341263202455S11657047EA0112101135000000000000
B0341303202389S11657048EA0111101128000000000000
B0341343202320S11657049EA0111601134000000000000
B0341383202256S11657057EA0112801151000000000000
B0341423202197S11657072EA0114701169000000000000
B0341463202164S11657121EA0116901194000000000000
B0341503202207S11657170EA0118901212000000000000
B0341543202259S11657131EA0120001222000000000000
B0341583202242S11657073EA0122001248000000000000
B0342023202198S11657074EA0123901264000000000000
B0342063202185S11657131EA0125501280000000000000
B0342103202228S11657182EA0127301297000000000000
B0342143202290S11657172EA0128701310000000000000
B0342183202295S11657105EA0131301342000000000000
B0342223202254S11657088EA0133601360000000000000
B0342263202232S11657134EA0135001375000000000000
B0342303202273S11657183EA0136401385000000000000
B0342343202333S11657153EA0137501400000000000000
B0342383202323S11657088EA0140501435000000000000
B0342423202280S11657078EA0142701453000000000000
B0342463202256S11657126EA0144101464000000000000
B0342503202294S11657178EA0146101484000000000000
B0342543202357S11657172EA0147101493000000000000
B0342583202381S11657101EA0148101514000000000000
B0343023202350S11657053EA0150201536000000000000
B0343063202307S11657070EA0151401544000000000000
B0343103202302S11657133EA0152701559000000000000
B0343143202359S11657163EA0154401573000000000000
B0343183202407S11657113EA0155301582000000000000
B0343223202385S11657052EA0156701598000000000000
B0343263202334S11657057EA0157901610000000000000
B0343303202321S11657120EA0159701625000000000000
B0343343202370S11657164EA0161401645000000000000
B0343383202429S11657139EA0162501652000000000000
B0343423202437S11657070EA0163401664000000000000
B0343463202390S11657035EA0163401662000000000000
B0343503202320S11657044EA0162901653000000000000
B0343543202246S11657070EA0163101662000000000000
B0343583202176S11657101EA0163801659000000015000
B0344023202100S11657133EA0163101649000000000000
B0344063202024S11657163EA0163401664000000000000
B0344103201947S11657191EA0163701659000000000000
B0344143201868S11657221EA0163401657000000000000
B0344183201787S11657247EA0163101652000000000000
B0344223201701S11657273EA0162001635000000000000
B0344263201617S11657302EA0161301629000000000000
B0344303201531S11657329EA0160701621000000000000
B0344343201445S11657356EA0160001610000000000000
B0344383201358S11657386EA0158901603000000000000
B0344423201274S11657417EA0157801593000000000000
B0344463201189S11657447EA0157101584000000000000
B0344503201105S11657476EA0155601568000000000000
B0344543201016S11657503EA0153901547000000000000
B0344583200924S11657520EA0152601538000000000000
B0345023200833S11657532EA0151601528000000000000
B0345063200743S11657542EA0151101528000000000000
B0345103200657S11657550EA0150801524000000000000
B0345143200573S11657558EA0149901513000000000000
B0345183200495S11657567EA0150201528000000000000
B0345223200426S11657575EA0150901533000000000000
B0345263200351S11657585EA0149801517000000000000
B0345303200275S11657590EA0149901528000000000000
B0345343200201S11657593EA0149301513000000000000
B0345383200123S11657593EA0148501510000000000000
B0345423200049S11657592EA0148001505000000000000
B0345463159972S11657589EA0147101491000000000000
B0345503159897S11657585EA0146601494000000000000
B0345543159823S11657582EA0146201492000000000000
B0345583159747S11657579EA0146001482000000000000
B0346023159673S11657575EA0144901474000000000000
B0346063159595S11657572EA0143901460000000000000
B0346103159515S11657567EA0142901450000000000000
B0346143159437S11657563EA0141701439000000000000
B0346183159356S11657559EA0141201439000000000000
B0346223159282S11657556EA0142101447000000000000
B0346263159212S11657554EA0143301463000000000000
B0346303159140S11657555EA0143101456000000000000
B0346343159064S11657559EA0143001458000000000000
B0346383158987S11657558EA0142501447000000000000
B0346423158905S11657556EA0141001432000000000000
B0346463158823S11657555EA0139601417000000000000
B0346503158740S11657554EA0138601409000000000000
B0346543158659S11657554EA0138301405000000000000
B0346583158579S11657553EA0137701400000000000000
B0347023158501S11657559EA0137001392000000000000
B0347063158425S11657575EA0136001381000000000000
B0347103158351S11657593EA0135101374000000000000
B0347143158281S11657611EA0135301380000000000000
B0347183158215S11657629EA0135601378000000000000
B0347223158150S11657649EA0134901372000000000000
B0347263158087S11657673EA0134301366000000000000
B0347303158029S11657707EA0134201366000000000000
B0347343157972S11657748EA0134101360000000000000
B0347383157912S11657787EA0133001344000000000000
B0347423157844S11657815EA0132001339000000000000
B0347463157775S11657831EA0132201342000000000000
B0347503157712S11657849EA0133601362000000000000
B0347543157675S11657904EA0135501378000000000000
B0347583157677S11657984EA0135901378000000000000
B0348023157673S11658066EA0136901398000000000000
B0348063157647S11658138EA0138501415000000000000
B0348103157595S11658165EA0140201433000000000000
B0348143157554S11658128EA0141401443000000000000
B0348183157573S11658066EA0141901451000000000000
B0348223157635S11658045EA0142601452000000000000
B0348263157697S11658086EA0142301449000000000000
B0348303157730S11658160EA0143401465000000000000
B0348343157716S11658230EA0145301485000000000000
B0348383157664S11658253EA0146301493000000000000
B0348423157604S11658244EA0147401507000000000000
B0348463157543S11658229EA0147101491000000000000
B0348503157467S11658208EA0145601483000000000000
B0348543157391S11658187EA0144701471000000000000
B0348583157314S11658166EA0143901464000000000000
B0349023157237S11658145EA0142801453000000000000
B0349063157160S11658126EA0141601441000000000000
B0349103157086S11658108EA0140601437000000000000
B0349143157015S11658087EA0140001428000000000000
B0349183156943S11658066EA0139801429000000000000
B0349223156873S11658047EA0140001431000000000000
B0349263156803S11658026EA0140101430000000000000
B0349303156730S11658004EA0139601425000000000000
B0349343156656S11657983EA0139101419000000000000
B0349383156581S11657961EA0138501411000000000000
B0349423156504S11657939EA0137601407000000000000
B0349463156429S11657917EA0137001400000000000000
B0349503156356S11657894EA0136801395000000000000
B0349543156286S11657870EA0136701398000000000000
B0349583156218S11657849EA0137101400000000000000
B0350023156150S11657827EA0136801397000000000000
B0350063156080S11657807EA0136301392000000000000
B0350103156009S11657790EA0136001386000000000000
B0350143155936S11657774EA0135101377000000000000
B0350183155862S11657755EA0133701365000000000000
B0350223155788S11657737EA0132701353000000000000
B0350263155716S11657718EA0132101351000000000000
B0350303155649S11657698EA0131901348000000000000
B0350343155578S11657683EA0131501342000000000000
B0350383155509S11657668EA0131601348000000000000
B0350423155446S11657657EA0132001348000000000000
B0350463155381S11657649EA0131901349000000000000
B0350503155317S11657642EA0132001346000000000000
B0350543155253S11657634EA0131501343000000000000
B0350583155190S11657628EA0131701348000000000000
B0351023155130S11657627EA0132301353000000000000
B0351063155070S11657627EA0132401354000000000000
B0351103155010S11657631EA0132201350000000000000
B0351143154947S11657637EA0131801348000000000000
B0351183154882S11657645EA0132101352000000000000
B0351223154818S11657655EA0132501356000000000000
B0351263154758S11657667EA0132901362000000000000
B0351303154702S11657684EA0133901368000000000000
B0351343154648S11657701EA0133901367000000000000
B0351383154594S11657727EA0134501365000000000000
B0351423154537S11657748EA0133701355000000000000
B0351463154476S11657762EA0132201337000000000000
B0351503154410S11657766EA0131101324000000000000
B0351543154341S11657759EA0129701311000000000000
B0351583154272S11657745EA0128401300000000000000
B0352023154203S11657727EA0128201299000000000000
B0352063154133S11657710EA0127001287000000000000
B0352103154060S11657694EA0125601269000000000000
B0352143153987S11657679EA0124201258000000000000
B0352183153918S11657660EA0123301246000000000000
B0352223153848S11657640EA0122001232000000000000
B0352263153779S11657620EA0122101243000000000000
B0352303153714S11657605EA0123201256000000000000
B0352343153653S11657593EA0124201261000000000000
B0352383153585S11657582EA0123601250000000000000
B0352423153513S11657572EA0122101232000000000000
B0352463153439S11657559EA0120501219000000000000
B0352503153364S11657543EA0119601212000000000000
B0352543153292S11657524EA0118801201000000000000
B0352583153219S11657502EA0117101183000000000000
B0353023153147S11657475EA0115801174000000000000
B0353063153080S11657447EA0115201166000000000000
B0353103153012S11657419EA0114501158000000000000
B0353143152946S11657393EA0113901154000000000000
B0353183152880S11657368EA0113101141000000000000
B0353223152812S11657346EA0111601129000000000000
B0353263152743S11657324EA0110401116000000000000
B0353303152675S11657303EA0109701114000000000000
B0353343152610S11657283EA0109601110000000000000
B0353383152549S11657260EA0109601110000000000000
B0353423152491S11657238EA0109401106000000000000
B0353463152431S11657221EA0109501110000000000000
B0353503152374S11657205EA0109901108000000000000
B0353543152318S11657202EA0110501122000000000000
B0353583152267S11657217EA0111601131000000000000
B0354023152245S11657278EA0112601139000000000000
B0354063152283S11657334EA0113901154000000000000
B0354103152344S11657320EA0113801149000000000000
B0354143152366S11657255EA0113701150000000000000
B0354183152341S11657199EA0113901152000000000000
B0354223152288S11657190EA0114301155000000000000
B0354263152249S11657243EA0114801166000000000000
B0354303152263S11657316EA0116601186000000000000
B0354343152322S11657352EA0118101195000000000000
B0354383152378S11657317EA0118501199000000000000
B0354423152383S11657248EA0119101206000000000000
B0354463152344S11657213EA0120101218000000000000
B0354503152302S11657241EA0121301230000000000000
B0354543152297S11657303EA0122601245000000000000
B0354583152344S11657342EA0123701252000000000000
B0355023152404S11657319EA0123701253000000000000
B0355063152417S11657254EA0124301263000000000000
B0355103152379S11657224EA0125701277000000000000
B0355143152345S11657263EA0126701288000000000000
B0355183152360S11657328EA0127901300000000000000
B0355223152417S11657355EA0129001308000000000000
B0355263152469S11657322EA0129701314000000000000
B0355303152471S11657263EA0130301323000000000000
B0355343152431S11657235EA0131201333000000000000
B0355383152392S11657269EA0132301343000000000000
B0355423152400S11657335EA0133401358000000000000
B0355463152454S11657369EA0134701371000000000000
B0355503152510S11657343EA0135401372000000000000
B0355543152522S11657282EA0136101384000000000000
B0355583152486S11657251EA0137301397000000000000
B0356023152448S11657282EA0138701409000000000000
B0356063152452S11657346EA0140001422000000000000
B0356103152504S11657381EA0141201434000000000000
B0356143152557S11657351EA0141701437000000000000
B0356183152555S11657293EA0142501447000000000000
B0356223152510S11657285EA0143701462000000000000
B0356263152492S11657338EA0144801474000000000000
B0356303152527S11657393EA0146001487000000000000
B0356343152590S11657393EA0146901492000000000000
B0356383152620S11657339EA0147601502000000000000
B0356423152597S11657291EA0148701515000000000000
B0356463152553S11657294EA0150001528000000000000
B0356503152531S11657348EA0151101537000000000000
B0356543152561S11657408EA0152401549000000000000
B0356583152621S11657429EA0153001558000000000000
B0357023152672S11657397EA0153701563000000000000
B0357063152672S11657338EA0154201569000000000000
B0357103152627S11657315EA0155101583000000000000
B0357143152586S11657346EA0156801598000000000000
B0357183152579S11657410EA0157701605000000000000
B0357223152618S11657465EA0158401612000000000000
B0357263152678S11657471EA0159101619000000000000
B0357303152711S11657419EA0159101616000000000000
B0357343152682S11657371EA0159301620000000000000
B0357383152631S11657377EA0159701621000000000000
B0357423152579S11657416EA0158801611000000000000
B0357463152522S11657465EA0158301611000000000000
B0357503152465S11657514EA0158201604000000000000
B0357543152404S11657564EA0157101595000000000000
B0357583152341S11657615EA0156601592000000000000
B0358023152279S11657663EA0156101584000000000000
B0358063152214S11657707EA0155601581000000000000
B0358103152150S11657751EA0154401568000000000000
B0358143152084S11657798EA0153101556000000000000
B0358183152020S11657846EA0152701555000000000000
B0358223151959S11657894EA0152501552000000000000
B0358263151898S11657941EA0152401554000000000000
B0358303151842S11657983EA0153301563000000000000
B0358343151788S11658030EA0153201556000000000000
B0358383151732S11658079EA0153501564000000000000
B0358423151676S11658127EA0154701578000000000000
B0358463151624S11658174EA0155701587000000000000
B0358503151570S11658225EA0156101589000000000000
B0358543151517S11658274EA0156801603000000000000
B0358583151466S11658322EA0158001612000000000000
B0359023151413S11658377EA0157501604000000000000
B0359063151356S11658433EA0156801595000000000000
B0359103151297S11658490EA0155801584000000000000
B0359143151236S11658547EA0154301568000000000000
B0359183151174S11658600EA0153401563000000000000
B0359223151112S11658648EA0153501565000000000000
B0359263151049S11658693EA0152901553000000000000
B0359303150985S11658738EA0151901546000000000000
B0359343150924S11658785EA0151401542000000000000
B0359383150863S11658833EA0150801534000000000000
B0359423150801S11658880EA0150001527000000000000
B0359463150737S11658924EA0149701524000000000000
B0359503150676S11658964EA0149401520000000000000
B0359543150618S11659003EA0148901515000000000000
B0359583150559S11659046EA0148001504000000000000
B0400023150498S11659090EA0146401487000000000000
B0400063150433S11659133EA0145401474000000000000
B0400103150367S11659172EA0144401467000000000000
B0400143150303S11659209EA0144101465000000000000
B0400183150239S11659240EA0143901461000000000000
B0400223150176S11659265EA0143601457000000000000
B0400263150111S11659285EA0143101450000000000000
B0400303150043S11659304EA0143001449000000000000
B0400343149981S11659323EA0144001462000000000000
B0400383149919S11659339EA0144501472000000000000
B0400423149860S11659334EA0145501482000000000000
B0400463149814S11659297EA0146301490000000000000
B0400503149813S11659231EA0147301498000000000000
B0400543149856S11659178EA0147701498000000000000
B0400583149923S11659161EA0148001498000000000000
B0401023149994S11659192EA0147601493000000000000
B0401063150035S11659263EA0148601509000000000000
B0401103150039S11659348EA0149301514000000000000
B0401143150016S11659427EA0149001511000000000000
B0401183149966S11659493EA0148601505000000000000
B0401223149904S11659548EA0148401505000000000000
B0401263149835S11659597EA0148301504000000000000
B0401303149766S11659646EA0147701498000000000000
B0401343149698S11659694EA0147201496000000000000
B0401383149632S11659737EA0147201492000000000000
B0401423149565S11659777EA0146501482000000000000
B0401463149497S11659817EA0145801479000000000000
B0401503149431S11659856EA0145601477000000000000
B0401543149364S11659895EA0144801467000000000000
B0401583149299S11659932EA0144201461000000000000
B0402023149236S11659968EA0143601453000000000000
B0402063149173S11700004EA0143001446000000000000
B0402103149110S11700041EA0141901432000000000000
B0402143149048S11700076EA0140901424000000000000
B0402183148986S11700111EA0140201416000000000000
B0402223148926S11700147EA0140201421000000000000
B0402263148870S11700182EA0140501423000000000000
B0402303148812S11700220EA0140101417000000000000
B0402343148752S11700260EA0139801415000000000000
B0402383148691S11700303EA0139901417000000000000
B0402423148630S11700342EA0140601424000000000000
B0402463148567S11700383EA0140701420000000000000
B0402503148502S11700429EA0139201400000000000000
B0402543148436S11700478EA0138001394000000000000
B0402583148371S11700524EA0137201387000000000000
B0403023148309S11700570EA0136801379000000000000
B0403063148246S11700613EA0136001374000000000000
B0403103148187S11700654EA0135101363000000000000
B0403143148127S11700699EA0134401354000000000000
B0403183148067S11700741EA0133801348000000000000
B0403223148006S11700784EA0133201342000000000000
B0403263147943S11700825EA0132401332000000000000
B0403303147884S11700869EA0131301321000000000000
B0403343147824S11700912EA0130201312000000000000
B0403383147763S11700956EA0128901297000000000000
B0403423147700S11701001EA0128201294000000000000
B0403463147641S11701046EA0127901287000000000000
B0403503147578S11701089EA0126901273000000000000
B0403543147514S11701134EA0125701262000000000000
B0403583147451S11701180EA0125101256000000000000
B0404023147388S11701225EA0124401251000000000000
B0404063147326S11701269EA0124001244000000000000
B0404103147264S11701311EA0123101234000000000000
B0404143147201S11701350EA0121901222000000000000
B0404183147139S11701390EA0121001215000000000000
B0404223147082S11701432EA0120601213000000000000
B0404263147024S11701475EA0120201206000000000000
B0404303146965S11701519EA0119801204000000000000
B0404343146905S11701560EA0119901207000000000000
B0404383146848S11701605EA0120501221000000000000
B0404423146796S11701645EA0121901229000000000000
B0404463146742S11701687EA0121701223000000000000
B0404503146685S11701733EA0121601226000000000000
B0404543146621S11701768EA0122501239000000000000
B0404583146558S11701767EA0124201256000000000000
B0405023146533S11701709EA0125401270000000000000
B0405063146571S11701662EA0126601273000000000000
B0405103146633S11701671EA0126301270000000000000
B0405143146671S11701733EA0126101271000000000000
B0405183146666S11701810EA0126601278000000000000
B0405223146630S11701875EA0127501286000000000000
B0405263146578S11701927EA0127901293000000000000
B0405303146523S11701971EA0128301295000000000000
B0405343146460S11702014EA0128001294000000000000
B0405383146395S11702051EA0128801311000000000000
B0405423146346S11702097EA0131201331000000000000
B0405463146356S11702161EA0132301333000000000000
B0405503146417S11702166EA0132001341000000000000
B0405543146447S11702110EA0133601354000000000000
B0405583146421S11702054EA0133601347000000000000
B0406023146359S11702021EA0133701356000000000000
B0406063146312S11702043EA0135701378000000000000
B0406103146318S11702101EA0136701381000000000000
B0406143146374S11702121EA0136701386000000000000
B0406183146415S11702071EA0138201405000000000000
B0406223146396S11702010EA0139501415000000000000
B0406263146343S11701996EA0140401426000000000000
B0406303146294S11702022EA0141201432000000000000
B0406343146268S11702079EA0141601434000000000000
B0406383146277S11702145EA0142101442000000000000
B0406423146335S11702178EA0142501442000000000000
B0406463146387S11702129EA0142501445000000000000
B0406503146377S11702058EA0143401457000000000000
B0406543146328S11702026EA0144101458000000000000
B0406583146270S11702040EA0144101457000000000000
B0407023146222S11702087EA0143501450000000000000
B0407063146187S11702160EA0142001435000000000000
B0407103146144S11702233EA0140301418000000000000
B0407143146088S11702295EA0139501414000000000000
B0407183146025S11702347EA0138901405000000000000
B0407223145958S11702394EA0137901395000000000000
B0407263145889S11702438EA0136701382000000000000
B0407303145819S11702480EA0135501370000000000000
B0407343145749S11702519EA0133901353000000000000
B0407383145676S11702558EA0132101334000000000000
B0407423145603S11702595EA0130601322000000000000
B0407463145531S11702630EA0129201306000000000000
B0407503145457S11702667EA0128001288000000000000
B0407543145382S11702710EA0126501273000000000000
B0407583145314S11702764EA0125501267000000000000
B0408023145246S11702819EA0124901262000000000000
B0408063145182S11702873EA0124701258000000000000
B0408103145122S11702933EA0124301257000000000000
B0408143145069S11702993EA0124401258000000000000
B0408183145021S11703054EA0124201257000000000000
B0408223144976S11703118EA0123701248000000000000
B0408263144930S11703183EA0122601235000000000000
B0408303144886S11703249EA0121401228000000000000
B0408343144846S11703317EA0120801224000000000000
B0408383144804S11703384EA0120201216000000000000
B0408423144761S11703452EA0119401204000000000000
B0408463144719S11703523EA0118101195000000000000
B0408503144670S11703586EA0117001181000000000000
B0408543144605S11703621EA0116201175000000000000
B0408583144536S11703633EA0116001172000000000000
B0409023144466S11703637EA0114701155000000000000
B0409063144393S11703634EA0112601136000000000000
B0409103144320S11703631EA0111801130000000000000
B0409143144249S11703629EA0111501131000000000000
B0409183144180S11703625EA0111701131000000000000
B0409223144111S11703621EA0112501141000000000000
B0409263144045S11703621EA0114201157000000000000
B0409303144011S11703681EA0117001188000000000000
B0409343144051S11703742EA0118501209000000000000
B0409383144115S11703743EA0120601228000000000000
B0409423144150S11703698EA0122001240000000000000
B0409463144140S11703646EA0122501244000000000000
B0409503144103S11703646EA0123701258000000000000
B0409543144097S11703708EA0124401259000000000000
B0409583144137S11703777EA0124601269000000000000
B0410023144199S11703786EA0126501288000000000000
B0410063144223S11703735EA0127801298000000000000
B0410103144199S11703691EA0128001300000000000000
B0410143144159S11703692EA0128901311000000000000
B0410183144137S11703746EA0129301311000000000000
B0410223144150S11703822EA0129401312000000000000
B0410263144185S11703899EA0130101326000000000000
B0410303144248S11703915EA0132201345000000000000
B0410343144281S11703871EA0133401355000000000000
B0410383144264S11703821EA0134401362000000000000
B0410423144220S11703813EA0134901370000000000000
B0410463144192S11703860EA0136101380000000000000
B0410503144205S11703930EA0136901388000000000000
B0410543144257S11703975EA0137701397000000000000
B0410583144318S11703960EA0138401404000000000000
B0411023144345S11703907EA0139401415000000000000
B0411063144328S11703859EA0140401423000000000000
B0411103144285S11703833EA0140101418000000000000
B0411143144229S11703817EA0139501415000000000000
B0411183144166S11703811EA0139001407000000000000
B0411223144095S11703807EA0137901393000000000000
B0411263144023S11703802EA0136401382000000000000
B0411303143950S11703795EA0136001378000000000000
B0411343143880S11703787EA0135701373000000000000
B0411383143811S11703782EA0134901367000000000000
B0411423143742S11703777EA0134301360000000000000
B0411463143670S11703773EA0133501351000000000000
B0411503143599S11703764EA0132501343000000000000
B0411543143527S11703754EA0132001333000000000000
B0411583143457S11703743EA0131101327000000000000
B0412023143390S11703734EA0130301320000000000000
B0412063143325S11703725EA0129801313000000000000
B0412103143261S11703712EA0128901307000000000000
B0412143143198S11703695EA0128601300000000000000
B0412183143136S11703679EA0127801293000000000000
B0412223143072S11703664EA0127001284000000000000
B0412263143009S11703647EA0126401277000000000000
B0412303142948S11703629EA0125301263000000000000
B0412343142883S11703605EA0123701245000000000000
B0412383142816S11703579EA0122001229000000000000
B0412423142750S11703548EA0121101222000000000000
B0412463142688S11703521EA0121001224000000000000
B0412503142628S11703494EA0121501230000000000000
B0412543142572S11703468EA0121801231000000000000
B0412583142513S11703449EA0121301222000000000000
B0413023142456S11703430EA0120701219000000000000
B0413063142404S11703406EA0120601220000000000000
B0413103142353S11703387EA0120701224000000000000
B0413143142304S11703379EA0121801236000000000000
B0413183142259S11703364EA0123101251000000000000
B0413223142257S11703309EA0124801269000000000000
B0413263142311S11703278EA0126201278000000000000
B0413303142378S11703297EA0127301290000000000000
B0413343142422S11703353EA0128201302000000000000
B0413383142429S11703422EA0128701305000000000000
B0413423142398S11703470EA0128801307000000000000
B0413463142356S11703495EA0129001305000000000000
B0413503142314S11703539EA0128801305000000000000
B0413543142274S11703595EA0128501303000000000000
B0413583142231S11703655EA0129401315000000000000
B0414023142201S11703717EA0130901330000000000000
B0414063142178S11703786EA0132401350000000000000
B0414103142166S11703855EA0134701370000000000000
B0414143142201S11703921EA0135401375000000000000
B0414183142265S11703923EA0136101382000000000000
B0414223142292S11703868EA0136401388000000000000
B0414263142268S11703824EA0138001405000000000000
B0414303142220S11703835EA0139201416000000000000
B0414343142200S11703900EA0140601432000000000000
B0414383142227S11703975EA0142201443000000000000
B0414423142286S11704016EA0142801450000000000000
B0414463142342S11703993EA0143201452000000000000
B0414503142351S11703933EA0143101452000000000000
B0414543142307S11703913EA0143801462000000000000
B0414583142252S11703945EA0144601469000000000000
B0415023142226S11704011EA0146301487000000000000
B0415063142256S11704080EA0146801488000000000000
B0415103142322S11704090EA0146601484000000000000
B0415143142355S11704037EA0146801492000000000000
B0415183142333S11703993EA0147901502000000000000
B0415223142283S11704006EA0148201508000000000000
B0415263142238S11704054EA0148701510000000000000
B0415303142190S11704111EA0148701514000000000000
B0415343142140S11704167EA0149501520000000000000
B0415383142084S11704214EA0149601516000000000000
B0415423142022S11704257EA0149901523000000000000
B0415463141960S11704255EA0152601556000000000000
B0415503141934S11704201EA0154701571000000000000
B0415543141961S11704140EA0154901571000000000000
B0415583142022S11704111EA0155301575000000000000
B0416023142088S11704133EA0156101581000000000000
B0416063142131S11704188EA0156101581000000000000
B0416103142140S11704259EA0156201580000000000000
B0416143142121S11704329EA0156401584000000000000
B0416183142079S11704385EA0157201594000000000000
B0416223142022S11704406EA0157601595000000000000
B0416263141967S11704385EA0157201590000000000000
B0416303141908S11704370EA0154801562000000000000
B0416343141836S11704379EA0151901531000000000000
B0416383141758S11704394EA0150201510000000000000
B0416423141679S11704413EA0149201505000000000000
B0416463141599S11704432EA0149201513000000000000
B0416503141528S11704454EA0150701530000000000000
B0416543141459S11704475EA0152201543000000000000
B0416583141391S11704496EA0152401540000000000000
B0417023141323S11704515EA0151601531000000000000
B0417063141256S11704532EA0151501528000000000000
B0417103141189S11704545EA0150201513000000000000
B0417143141120S11704563EA0148701501000000000000
B0417183141053S11704582EA0147801495000000000000
B0417223140988S11704601EA0147501494000000000000
B0417263140925S11704625EA0147101487000000000000
B0417303140858S11704649EA0146501479000000000000
B0417343140795S11704679EA0145801471000000000000
B0417383140730S11704714EA0144801458000000000000
B0417423140669S11704753EA0144401464000000000000
B0417463140614S11704790EA0145101470000000000000
B0417503140559S11704830EA0144801466000000000000
B0417543140505S11704870EA0143801456000000000000
B0417583140449S11704911EA0142701443000000000000
B0418023140392S11704952EA0142101441000000000000
B0418063140340S11704994EA0142401444000000000000
B0418103140289S11705035EA0142401443000000000000
B0418143140240S11705077EA0142201441000000000000
B0418183140186S11705108EA0142001437000000000000
B0418223140134S11705145EA0141401429000000000000
B0418263140082S11705184EA0140101416000000000000
B0418303140026S11705212EA0139501409000000000000
B0418343139972S11705243EA0138801405000000000000
B0418383139920S11705276EA0137701392000000000000
B0418423139864S11705312EA0136501381000000000000
B0418463139812S11705353EA0135901375000000000000
B0418503139761S11705397EA0135101367000000000000
B0418543139709S11705440EA0134101354000000000000
B0418583139655S11705484EA0133201345000000000000
B0419023139601S11705532EA0132201337000000000000
B0419063139549S11705583EA0131501329000000000000
B0419103139500S11705636EA0130701324000000000000
B0419143139452S11705691EA0130201318000000000000
B0419183139404S11705748EA0129701310000000000000
B0419223139353S11705806EA0128901303000000000000
B0419263139302S11705862EA0128601301000000000000
B0419303139252S11705915EA0127901290000000000000
B0419343139200S11705967EA0126801279000000000000
B0419383139149S11706019EA0125701269000000000000
B0419423139100S11706071EA0125101265000000000000
B0419463139053S11706123EA0125101264000000000000
B0419503139005S11706166EA0124601258000000000000
B0419543138955S11706209EA0123501245000000000000
B0419583138906S11706256EA0122501230000000000000
B0420023138858S11706307EA0121201219000000000000
B0420063138810S11706360EA0120601218000000000000
B0420103138758S11706400EA0120101208000000000000
B0420143138698S11706428EA0119501209000000000000
B0420183138639S11706442EA0120301218000000000000
B0420223138583S11706437EA0121001227000000000000
B0420263138535S11706413EA0122101235000000000000
B0420303138490S11706386EA0122701241000000000000
B0420343138446S11706356EA0123401252000000000000
B0420383138420S11706300EA0124501260000000000000
B0420423138442S11706240EA0125501269000000000000
B0420463138496S11706222EA0125701267000000000000
B0420503138547S11706261EA0126201276000000000000
B0420543138534S11706325EA0127501292000000000000
B0420583138483S11706335EA0129101309000000000000
B0421023138438S11706302EA0129901316000000000000
B0421063138426S11706238EA0130201319000000000000
B0421103138455S11706177EA0130501320000000000000
B0421143138508S11706148EA0131201329000000000000
B0421183138561S11706166EA0132601345000000000000
B0421223138581S11706222EA0133901355000000000000
B0421263138548S11706274EA0134301360000000000000
B0421303138490S11706292EA0134901367000000000000
B0421343138429S11706279EA0135101369000000000000
B0421383138394S11706222EA0135101367000000000000
B0421423138404S11706153EA0135201371000000000000
B0421463138457S11706133EA0136501387000000000000
B0421503138507S11706164EA0137401391000000000000
B0421543138556S11706204EA0137301391000000000000
B0421583138599S11706257EA0137901396000000000000
B0422023138603S11706330EA0138301404000000000000
B0422063138564S11706385EA0139201412000000000000
B0422103138508S11706374EA0141201435000000000000
B0422143138505S11706311EA0142801448000000000000
B0422183138554S11706274EA0143401454000000000000
B0422223138606S11706302EA0144101464000000000000
B0422263138621S11706365EA0145001472000000000000
B0422303138586S11706417EA0146001479000000000000
B0422343138530S11706404EA0147001494000000000000
B0422383138522S11706341EA0149101513000000000000
B0422423138568S11706307EA0149801519000000000000
B0422463138615S11706343EA0150801527000000000000
B0422503138611S11706409EA0151901540000000000000
B0422543138559S11706432EA0153101552000000000000
B0422583138520S11706386EA0154801570000000000000
B0423023138534S11706322EA0155801577000000000000
B0423063138585S11706296EA0156401583000000000000
B0423103138635S11706326EA0157001589000000000000
B0423143138668S11706385EA0157601597000000000000
B0423183138671S11706455EA0158101602000000000000
B0423223138632S11706506EA0158701609000000000000
B0423263138582S11706485EA0160001624000000000000
B0423303138596S11706421EA0161301635000000000000
B0423343138656S11706421EA0162501646000000000000
B0423383138686S11706482EA0163301653000000000000
B0423423138660S11706545EA0163601656000000000000
B0423463138600S11706556EA0164501668000000000000
B0423503138552S11706515EA0165301676000000000000
B0423543138535S11706445EA0165201676000000000000
B0423583138554S11706377EA0165901685000000000000
B0424023138603S11706334EA0166801691000000000000
B0424063138665S11706339EA0167101695000000000000
B0424103138698S11706398EA0167901704000000000000
B0424143138674S11706461EA0168601709000000000000
B0424183138619S11706481EA0169401718000000000000
B0424223138580S11706432EA0170401729000000000000
B0424263138596S11706365EA0170901735000000000000
B0424303138656S11706352EA0171601743000000000000
B0424343138702S11706399EA0172501751000000000000
B0424383138693S11706464EA0173301757000000000000
B0424423138641S11706484EA0173801762000000000000
B0424463138606S11706435EA0174301767000000000000
B0424503138621S11706373EA0175201776000000000000
B0424543138677S11706355EA0175701779000000000000
B0424583138725S11706393EA0176201785000000000000
B0425023138729S11706456EA0176301784000000000000
B0425063138685S11706503EA0176401786000000000000
B0425103138630S11706537EA0176401786000000000000
B0425143138572S11706572EA0176301787000000000000
B0425183138509S11706604EA0175501774000000000000
B0425223138444S11706636EA0174601767000000000000
B0425263138379S11706669EA0173801759000000000000
B0425303138317S11706703EA0173601756000000000000
B0425343138252S11706737EA0173101751000000000000
B0425383138187S11706768EA0172701751000000000000
B0425423138125S11706798EA0172401749000000000000
B0425463138063S11706828EA0172001739000000000000
B0425503138001S11706861EA0170701726000000000000
B0425543137936S11706892EA0169701719000000000000
B0425583137870S11706926EA0169201712000000000000
B0426023137805S11706958EA0168501704000000000000
B0426063137738S11706994EA0167401691000000000000
B0426103137671S11707032EA0166401682000000000000
B0426143137603S11707070EA0165801679000000000000
B0426183137534S11707108EA0165101670000000000000
B0426223137467S11707147EA0164501663000000000000
B0426263137398S11707184EA0163701656000000000000
B0426303137330S11707221EA0163801659000000000000
B0426343137264S11707258EA0163301654000000000000
B0426383137196S11707299EA0162301640000000000000
B0426423137126S11707342EA0161401636000000000000
B0426463137059S11707381EA0161801639000000000000
B0426503136994S11707420EA0161601637000000000000
B0426543136930S11707455EA0161301631000000000000
B0426583136866S11707490EA0160601624000000000000
B0427023136801S11707526EA0159801617000000000000
B0427063136736S11707559EA0159401612000000000000
B0427103136671S11707591EA0158701603000000000000
B0427143136606S11707624EA0157901595000000000000
B0427183136542S11707659EA0157401591000000000000
B0427223136481S11707694EA0157201590000000000000
B0427263136420S11707725EA0157101585000000000000
B0427303136360S11707758EA0156201575000000000000
B0427343136301S11707793EA0155401570000000000000
B0427383136243S11707829EA0155101567000000000000
B0427423136185S11707869EA0154301556000000000000
B0427463136124S11707914EA0153301548000000000000
B0427503136060S11707958EA0152201539000000000000
B0427543135995S11708001EA0151801533000000000000
B0427583135930S11708044EA0151301524000000000000
B0428023135865S11708085EA0150701523000000000000
B0428063135801S11708123EA0150301517000000000000
B0428103135736S11708162EA0149401509000000000000
B0428143135673S11708198EA0149101507000000000000
B0428183135609S11708235EA0148901506000000000000
B0428223135545S11708270EA0148701502000000000000
B0428263135480S11708307EA0148001493000000000000
B0428303135414S11708348EA0147101488000000000000
B0428343135349S11708389EA0146901483000000000000
B0428383135285S11708430EA0146201479000000000000
B0428423135224S11708470EA0146101477000000000000
B0428463135163S11708508EA0145701471000000000000
B0428503135101S11708543EA0144801462000000000000
B0428543135037S11708575EA0144101459000000000000
B0428583134975S11708608EA0143901454000000000000
B0429023134912S11708643EA0143201450000000000000
B0429063134851S11708681EA0143001444000000000000
B0429103134787S11708721EA0142301437000000000000
B0429143134724S11708759EA0141801433000000000000
B0429183134657S11708786EA0141501430000000000000
B0429223134592S11708791EA0141701436000000000000
B0429263134534S11708778EA0142101436000000000000
B0429303134475S11708773EA0142101436000000000000
B0429343134418S11708785EA0141901433000000000000
B0429383134362S11708808EA0141101419000000000000
B0429423134303S11708842EA0139501406000000000000
B0429463134241S11708890EA0138501398000000000000
B0429503134178S11708939EA0138001392000000000000
B0429543134115S11708990EA0137401388000000000000
B0429583134052S11709038EA0137001385000000000000
B0430023133989S11709084EA0137101389000000000000
B0430063133926S11709116EA0138001405000000000000
B0430103133863S11709129EA0139501414000000000000
B0430143133803S11709142EA0139501405000000000000
B0430183133738S11709173EA0137901389000000000000
B0430223133673S11709217EA0136901382000000000000
B0430263133610S11709266EA0135901370000000000000
B0430303133545S11709316EA0134601359000000000000
B0430343133480S11709367EA0133801355000000000000
B0430383133419S11709419EA0133901355000000000000
B0430423133360S11709468EA0133501349000000000000
B0430463133300S11709507EA0133201347000000000000
B0430503133242S11709518EA0134001361000000000000
B0430543133185S11709526EA0134201358000000000000
B0430583133129S11709548EA0134101356000000000000
B0431023133086S11709598EA0134701365000000000000
B0431063133081S11709672EA0135501371000000000000
B0431103133110S11709740EA0135901379000000000000
B0431143133166S11709770EA0136701383000000000000
B0431183133218S11709736EA0136201375000000000000
B0431223133230S11709674EA0135401367000000000000
B0431263133196S11709628EA0134501360000000000000
B0431303133149S11709592EA0134201359000000000000
B0431343133097S11709557EA0133801352000000000000
B0431383133039S11709526EA0133201347000000000000
B0431423132975S11709511EA0132801343000000000000
B0431463132915S11709532EA0132701347000000000000
B0431503132863S11709563EA0133601352000000000000
B0431543132815S11709601EA0132801341000000000000
B0431583132769S11709648EA0131301328000000000000
B0432023132722S11709701EA0130601322000000000000
B0432063132674S11709750EA0131201328000000000000
B0432103132628S11709801EA0130901324000000000000
B0432143132580S11709854EA0130401320000000000000
B0432183132533S11709913EA0130301318000000000000
B0432223132486S11709970EA0129901313000000000000
B0432263132440S11710030EA0129601312000000000000
B0432303132393S11710091EA0129601310000000000000
B0432343132345S11710151EA0128901303000000000000
B0432383132294S11710208EA0128301297000000000000
B0432423132246S11710267EA0127501287000000000000
B0432463132197S11710325EA0126801282000000000000
B0432503132147S11710381EA0126201272000000000000
B0432543132095S11710436EA0125101259000000000000
B0432583132041S11710488EA0124101252000000000000
B0433023131983S11710530EA0123601247000000000000
B0433063131929S11710576EA0122801237000000000000
B0433103131877S11710628EA0121701227000000000000
B0433143131825S11710681EA0120901220000000000000
B0433183131775S11710735EA0119701209000000000000
B0433223131726S11710794EA0118601192000000000000
B0433263131675S11710858EA0117401184000000000000
B0433303131626S11710919EA0116801178000000000000
B0433343131578S11710980EA0116401176000000000000
B0433383131530S11711037EA0115901169000000000000
B0433423131483S11711096EA0115301163000000000000
B0433463131437S11711157EA0114701157000000000000
B0433503131393S11711218EA0114101148000000000000
B0433543131349S11711283EA0112801137000000000000
B0433583131303S11711349EA0112101128000000000000
B0434023131254S11711408EA0111601122000000000000
B0434063131205S11711468EA0110701113000000000000
B0434103131153S11711526EA0110101109000000000000
B0434143131105S11711583EA0110601119000000000000
B0434183131058S11711638EA0110801118000000000000
B0434223131011S11711691EA0110601116000000000000
B0434263130963S11711747EA0110101110000000000000
B0434303130912S11711797EA0110201114000000000000
B0434343130854S11711827EA0110501115000000000000
B0434383130794S11711840EA0110401113000000000000
B0434423130733S11711850EA0109901107000000000000
B0434463130673S11711871EA0109501104000000000000
B0434503130626S11711911EA0110201114000000000000
B0434543130595S11711970EA0110501116000000000000
B0434583130565S11712033EA0111001124000000000000
B0435023130559S11712106EA0112101133000000000000
B0435063130609S11712159EA0112501137000000000000
B0435103130672S11712144EA0112201130000000000000
B0435143130681S11712081EA0111801134000000000000
B0435183130640S11712066EA0113401155000000000000
B0435223130608S11712113EA0114601159000000000000
B0435263130622S11712181EA0114901162000000000000
B0435303130682S11712218EA0114801158000000000000
B0435343130739S11712184EA0114801160000000000000
B0435383130747S11712126EA0115601168000000000000
B0435423130716S11712083EA0116601179000000000000
B0435463130668S11712110EA0117201185000000000000
B0435503130679S11712184EA0118201193000000000000
B0435543130743S11712207EA0118601197000000000000
B0435583130793S11712170EA0119201205000000000000
B0436023130791S11712111EA0119901216000000000000
B0436063130748S11712085EA0120801223000000000000
B0436103130704S11712120EA0121301229000000000000
B0436143130700S11712191EA0121701229000000000000
B0436183130744S11712249EA0121601231000000000000
B0436223130808S11712261EA0122001235000000000000
B0436263130854S11712218EA0122301239000000000000
B0436303130864S11712153EA0123101244000000000000
B0436343130833S11712103EA0123401250000000000000
B0436383130787S11712114EA0123801252000000000000
B0436423130764S11712175EA0123801252000000000000
B0436463130757S11712250EA0123901252000000000000
B0436503130780S11712324EA0123901254000000000000
B0436543130839S11712353EA0124501259000000000000
B0436583130898S11712330EA0124201259000000000000
B0437023130917S11712275EA0125201268000000000000
B0437063130871S11712262EA0125601273000000000000
B0437103130854S11712326EA0126801286000000000000
B0437143130902S11712378EA0127401291000000000000
B0437183130967S11712370EA0127701294000000000000
B0437223130986S11712315EA0128301300000000000000
B0437263130938S11712297EA0129101309000000000000
B0437303130910S11712357EA0130401323000000000000
B0437343130942S11712425EA0131101330000000000000
B0437383131007S11712444EA0131201329000000000000
B0437423131051S11712405EA0132001342000000000000
B0437463131032S11712360EA0132801349000000000000
B0437503130981S11712373EA0133301354000000000000
B0437543130960S11712440EA0134001363000000000000
B0437583130998S11712504EA0134401362000000000000
B0438023131067S11712512EA0134201360000000000000
B0438063131098S11712458EA0135001371000000000000
B0438103131076S11712408EA0135701379000000000000
B0438143131027S11712400EA0136801391000000000000
B0438183130995S11712460EA0137401396000000000000
B0438223131024S11712530EA0138001401000000000000
B0438263131092S11712549EA0138001398000000000000
B0438303131137S11712505EA0138501411000000000000
B0438343131123S11712447EA0139501421000000000000
B0438383131068S11712444EA0140801433000000000000
B0438423131040S11712508EA0141501439000000000000
B0438463131071S11712578EA0142301448000000000000
B0438503131136S11712600EA0142401448000000000000
B0438543131189S11712565EA0143301460000000000000
B0438583131180S11712512EA0144601469000000000000
B0439023131132S11712521EA0145601480000000000000
B0439063131125S11712594EA0146001481000000000000
B0439103131177S11712649EA0146201487000000000000
B0439143131240S11712643EA0147501500000000000000
B0439183131271S11712590EA0148401513000000000000
B0439223131248S11712543EA0149901528000000000000
B0439263131202S11712571EA0151001534000000000000
B0439303131215S11712646EA0151901546000000000000
B0439343131276S11712666EA0153301562000000000000
B0439383131318S11712627EA0154601572000000000000
B0439423131311S11712575EA0155701584000000000000
B0439463131266S11712570EA0157001596000000000000
B0439503131233S11712617EA0158001606000000000000
B0439543131246S11712686EA0158301608000000000000
B0439583131305S11712724EA0158701615000000000000
B0440023131361S11712696EA0159401620000000000000
B0440063131367S11712636EA0159901628000000000000
B0440103131327S11712607EA0161201642000000000000
B0440143131284S11712633EA0162201652000000000000
B0440183131272S11712698EA0162901655000000000000
B0440223131315S11712751EA0163301660000000000000
B0440263131375S11712735EA0164101667000000000000
B0440303131402S11712682EA0164601676000000000000
B0440343131383S11712633EA0166101692000000000000
B0440383131339S11712631EA0166901701000000000000
B0440423131311S11712679EA0167501702000000000000
B0440463131326S11712751EA0167201699000000000000
B0440503131372S11712809EA0167401706000000000000
B0440543131432S11712816EA0168401713000000000000
B0440583131458S11712761EA0168401712000000000000
B0441023131430S11712714EA0169001720000000000000
B0441063131380S11712709EA0169301721000000000000
B0441103131324S11712737EA0168101705000000000000
B0441143131259S11712779EA0166801693000000000000
B0441183131192S11712828EA0165801678000000000000
B0441223131124S11712877EA0164401670000000000000
B0441263131059S11712926EA0164601673000000000000
B0441303130997S11712978EA0164701673000000000000
B0441343130934S11713024EA0164101665000000000000
B0441383130872S11713067EA0163801662000000000000
B0441423130808S11713106EA0163201653000000000000
B0441463130742S11713143EA0162201646000000000000
B0441503130679S11713176EA0161901644000000000000
B0441543130620S11713203EA0161801639000000000000
B0441583130559S11713231EA0161201637000000000000
B0442023130499S11713255EA0161601645000000000000
B0442063130440S11713277EA0162201646000000000000
B0442103130380S11713298EA0162301644000000000000
B0442143130318S11713322EA0161401633000000000000
B0442183130252S11713349EA0160101617000000000000
B0442223130185S11713379EA0158901609000000000000
B0442263130118S11713413EA0158501606000000000000
B0442303130052S11713446EA0158001599000000000000
B0442343129984S11713485EA0157201587000000000000
B0442383129915S11713524EA0156301579000000000000
B0442423129849S11713562EA0155801578000000000000
B0442463129782S11713600EA0155201569000000000000
B0442503129715S11713640EA0154301562000000000000
B0442543129646S11713679EA0153301550000000000000
B0442583129576S11713721EA0152201541000000000000
B0443023129504S11713761EA0151101531000000000000
B0443063129431S11713803EA0150001520000000000000
B0443103129361S11713845EA0149401510000000000000
B0443143129292S11713887EA0148401499000000000000
B0443183129221S11713925EA0147101488000000000000
B0443223129147S11713952EA0146501482000000000000
B0443263129074S11713977EA0145701474000000000000
B0443303129001S11714003EA0145201469000000000000
B0443343128931S11714033EA0144401463000000000000
B0443383128862S11714060EA0144201459000000000000
B0443423128794S11714085EA0144401465000000000000
B0443463128732S11714099EA0145201477000000000000
B0443503128672S11714109EA0146201484000000000000
B0443543128614S11714129EA0146601489000000000000
B0443583128554S11714155EA0146901487000000000000
B0444023128486S11714182EA0144301457000000000000
B0444063128410S11714220EA0143001445000000000000
B0444103128337S11714259EA0142301438000000000000
B0444143128263S11714299EA0141401429000000000000
B0444183128191S11714338EA0141301431000000000000
B0444223128128S11714377EA0141501433000000000000
B0444263128063S11714415EA0140901421000000000000
B0444303127992S11714451EA0139801411000000000000
B0444343127920S11714486EA0139601414000000000000
B0444383127852S11714523EA0139701415000000000000
B0444423127787S11714559EA0139701412000000000000
B0444463127721S11714598EA0138801403000000000000
B0444503127653S11714637EA0138101396000000000000
B0444543127585S11714675EA0137601390000000000000
B0444583127517S11714711EA0136601378000000000000
B0445023127445S11714745EA0135801371000000000000
B0445063127376S11714776EA0135301368000000000000
B0445103127310S11714806EA0134701357000000000000
B0445143127242S11714836EA0133401344000000000000
B0445183127176S11714863EA0132501336000000000000
B0445223127110S11714892EA0130901312000000000000
B0445263127039S11714923EA0130001319000000000000
B0445303126971S11714948EA0131201333000000000000
B0445343126903S11714967EA0132401343000000000000
B0445383126841S11714989EA0133501356000000000000
B0445423126804S11715044EA0135701384000000000000
B0445463126835S11715099EA0138201405000000000000
B0445503126890S11715099EA0139601417000000000000
B0445543126915S11715049EA0140201421000000000000
B0445583126887S11715001EA0140501430000000000000
B0446023126837S11715001EA0142001445000000000000
B0446063126805S11715049EA0143801462000000000000
B0446103126811S11715113EA0145201475000000000000
B0446143126854S11715160EA0146701493000000000000
B0446183126907S11715151EA0148001506000000000000
B0446223126928S11715095EA0149501524000000000000
B0446263126902S11715049EA0150201525000000000000
B0446303126851S11715056EA0150501530000000000000
B0446343126822S11715109EA0152001549000000000000
B0446383126843S11715169EA0153601563000000000000
B0446423126900S11715179EA0154801575000000000000
B0446463126934S11715129EA0156701597000000000000
B0446503126921S11715073EA0158001607000000000000
B0446543126873S11715053EA0158401610000000000000
B0446583126833S11715093EA0159001617000000000000
B0447023126838S11715164EA0159701626000000000000
B0447063126887S11715199EA0161201645000000000000
B0447103126932S11715164EA0163301669000000000000
B0447143126924S11715109EA0164801679000000000000
B0447183126877S11715103EA0165701686000000000000
B0447223126854S11715161EA0166101693000000000000
B0447263126887S11715217EA0167801711000000000000
B0447303126942S11715213EA0169201724000000000000
B0447343126965S11715155EA0170501738000000000000
B0447383126934S11715109EA0170901741000000000000
B0447423126880S11715125EA0170501733000000000000
B0447463126842S11715186EA0170301736000000000000
B0447503126803S11715255EA0169301715000000000000
B0447543126738S11715316EA0167101691000000000000
B0447583126660S11715366EA0165101675000000000000
B0448023126574S11715415EA0163401657000000000000
B0448063126483S11715460EA0161601638000000000000
B0448103126395S11715502EA0160801634000000000000
B0448143126308S11715543EA0160601632000000000000
B0448183126226S11715582EA0160701633000000000000
B0448223126146S11715623EA0160401628000000000000
B0448263126068S11715663EA0159801621000000000000
B0448303125990S11715703EA0159501618000000000000
B0448343125914S11715743EA0159001610000000000000
B0448383125836S11715784EA0158301604000000000000
B0448423125762S11715823EA0157901600000000000000
B0448463125689S11715859EA0157601598000000000000
B0448503125616S11715896EA0157001592000000000000
B0448543125543S11715933EA0156601584000000000000
B0448583125473S11715971EA0156201584000000000000
B0449023125404S11716007EA0155601577000000000000
B0449063125335S11716046EA0154901567000000000000
B0449103125262S11716088EA0153801558000000000000
B0449143125188S11716128EA0152901547000000000000
B0449183125110S11716167EA0151901540000000000000
B0449223125032S11716204EA0151801539000000000000
B0449263124954S11716239EA0151501533000000000000
B0449303124878S11716273EA0151201534000000000000
B0449343124802S11716306EA0151301533000000000000
B0449383124731S11716336EA0151201534000000000000
B0449423124662S11716365EA0150901527000000000000
B0449463124589S11716395EA0149601511000000000000
B0449503124514S11716429EA0148401501000000000000
B0449543124437S11716462EA0147701497000000000000
B0449583124363S11716496EA0147901499000000000000
B0450023124287S11716529EA0147401490000000000000
B0450063124212S11716564EA0146001478000000000000
B0450103124138S11716600EA0145401470000000000000
B0450143124065S11716639EA0145101473000000000000
B0450183124000S11716677EA0145601474000000000000
B0450223123932S11716715EA0144801465000000000000
B0450263123862S11716746EA0144301460000000000000
B0450303123791S11716777EA0143901457000000000000
B0450343123723S11716807EA0144101459000000000000
B0450383123657S11716842EA0143401451000000000000
B0450423123589S11716882EA0142901448000000000000
B0450463123519S11716916EA0143101451000000000000
B0450503123448S11716954EA0143201446000000000000
B0450543123373S11716988EA0142401442000000000000
B0450583123305S11717021EA0142101434000000000000
B0451023123236S11717056EA0140501413000000000000
B0451063123162S11717084EA0138801401000000000000
B0451103123087S11717112EA0137801390000000000000
B0451143123013S11717138EA0137701392000000000000
B0451183122943S11717138EA0139701421000000000000
B0451223122894S11717105EA0142201444000000000000
B0451263122898S11717046EA0143801460000000000000
B0451303122956S11717029EA0144501461000000000000
B0451343123020S11717067EA0145001469000000000000
B0451383123059S11717138EA0145901479000000000000
B0451423123103S11717203EA0146601485000000000000
B0451463123168S11717203EA0146501480000000000000
B0451503123188S11717147EA0145801472000000000000
B0451543123155S11717106EA0145001465000000000000
B0451583123098S11717110EA0144401458000000000000
B0452023123039S11717146EA0144801470000000000000
B0452063122985S11717193EA0146101484000000000000
B0452103122930S11717242EA0146301480000000000000
B0452143122873S11717292EA0145301470000000000000
B0452183122808S11717339EA0144601463000000000000
B0452223122743S11717385EA0144901470000000000000
B0452263122686S11717436EA0145001466000000000000
B0452303122627S11717488EA0144001462000000000000
B0452343122565S11717540EA0143001441000000000000
B0452383122495S11717586EA0142101438000000000000
B0452423122424S11717628EA0141701435000000000000
B0452463122354S11717665EA0141501434000000000000
B0452503122283S11717701EA0141701434000000000000
B0452543122210S11717736EA0141501431000000000000
B0452583122138S11717771EA0140901425000000000000
B0453023122066S11717809EA0139701409000000000000
B0453063121993S11717849EA0138901405000000000000
B0453103121921S11717885EA0138901406000000000000
B0453143121849S11717920EA0138601398000000000000
B0453183121774S11717953EA0137901390000000000000
B0453223121702S11717992EA0137001385000000000000
B0453263121629S11718033EA0136701381000000000000
B0453303121555S11718073EA0137001384000000000000
B0453343121479S11718108EA0136601379000000000000
B0453383121405S11718142EA0136301378000000000000
B0453423121334S11718176EA0135301364000000000000
B0453463121258S11718210EA0134301356000000000000
B0453503121182S11718228EA0134801364000000000000
B0453543121106S11718232EA0135201372000000000000
B0453583121033S11718241EA0134401362000000000000
B0454023120962S11718260EA0133001348000000000000
B0454063120889S11718285EA0131401333000000000000
B0454103120815S11718312EA0130701330000000000000
B0454143120745S11718338EA0130701331000000000000
B0454183120676S11718368EA0130101316000000000000
B0454223120603S11718403EA0128201296000000000000
B0454263120529S11718441EA0126501283000000000000
B0454303120454S11718477EA0125401275000000000000
B0454343120378S11718514EA0124401261000000000000
B0454383120302S11718554EA0123201246000000000000
B0454423120226S11718593EA0122201236000000000000
B0454463120153S11718636EA0122501243000000000000
B0454503120088S11718680EA0123001248000000000000
B0454543120026S11718726EA0123001249000000000000
B0454583119962S11718762EA0123001248000000000000
B0455023119899S11718769EA0122801248000000000000
B0455063119841S11718752EA0123101252000000000000
B0455103119793S11718719EA0123101248000000000000
B0455143119740S11718689EA0121601226000000000000
B0455183119671S11718692EA0119201205000000000000
B0455223119602S11718723EA0118201197000000000000
B0455263119536S11718761EA0117201188000000000000
B0455303119472S11718804EA0116101176000000000000
B0455343119408S11718852EA0115001159000000000000
B0455383119341S11718901EA0113501144000000000000
B0455423119271S11718949EA0112301136000000000000
B0455463119200S11718996EA0111701133000000000000
B0455503119132S11719042EA0111001125000000000000
B0455543119063S11719084EA0110501120000000000000
B0455583118994S11719127EA0109501109000000000000
B0456023118925S11719169EA0108501100000000000000
B0456063118857S11719211EA0107601085000000000000
B0456103118787S11719253EA0106001072000000000000
B0456143118719S11719298EA0105601071000000000000
B0456183118653S11719343EA0105101067000000000000
B0456223118584S11719370EA0104901066000000000000
B0456263118519S11719359EA0105201073000000000000
B0456303118466S11719324EA0105701075000000000000
B0456343118417S11719286EA0105701076000000000000
B0456383118368S11719250EA0105201068000000000000
B0456423118322S11719207EA0104701065000000000000
B0456463118276S11719164EA0104701064000000000000
B0456503118231S11719117EA0104301058000000000000
B0456543118190S11719062EA0104001057000000000000
B0456583118154S11719003EA0104201059000000000000
B0457023118121S11718943EA0104101054000000000000
B0457063118088S11718880EA0103501048000000000000
B0457103118043S11718832EA0103901054000000000000
B0457143117990S11718836EA0104601061000000000000
B0457183117964S11718891EA0104901062000000000000
B0457223118003S11718944EA0104401057000000000000
B0457263118063S11718932EA0104101055000000000000
B0457303118095S11718876EA0103901052000000000000
B0457343118101S11718809EA0103301045000000000000
B0457383118075S11718748EA0101901030000000000000
B0457423118027S11718706EA0100401015000000000000
B0457463117965S11718713EA0099501008000000000000
B0457503117903S11718739EA0099801014000000000000
B0457543117839S11718759EA0100401023000000000000
B0457583117777S11718779EA0100701022000000000000
B0458023117713S11718793EA0101001027000000000000
B0458063117666S11718843EA0101601031000000000000
B0458103117702S11718895EA0101301025000000000000
B0458143117752S11718865EA0101401031000000000000
B0458183117756S11718795EA0102201037000000000000
B0458223117721S11718739EA0102401042000000000000
B0458263117665S11718711EA0102901046000000000000
B0458303117605S11718727EA0103001048000000000000
B0458343117559S11718778EA0103901058000000000000
B0458383117577S11718836EA0104901067000000000000
B0458423117631S11718828EA0105001068000000000000
B0458463117655S11718766EA0105101073000000000000
B0458503117629S11718704EA0105001073000000000000
B0458543117579S11718658EA0105501082000000000000
B0458583117531S11718693EA0106401088000000000000
B0459023117553S11718754EA0107401100000000000000
B0459063117607S11718745EA0108301110000000000000
B0459103117622S11718681EA0109201116000000000000
B0459143117587S11718628EA0109801125000000000000
B0459183117531S11718635EA0110701133000000000000
B0459223117512S11718697EA0111601141000000000000
B0459263117549S11718743EA0112201144000000000000
B0459303117596S11718715EA0112501157000000000000
B0459343117591S11718655EA0113901169000000000000
B0459383117540S11718640EA0114601174000000000000
B0459423117514S11718694EA0115501184000000000000
B0459463117544S11718745EA0116501193000000000000
B0459503117596S11718739EA0117201202000000000000
B0459543117616S11718683EA0118201214000000000000
B0459583117578S11718639EA0119501226000000000000
B0500023117530S11718663EA0120001230000000000000
B0500063117525S11718728EA0120601236000000000000
B0500103117569S11718759EA0121601248000000000000
B0500143117609S11718724EA0122701259000000000000
B0500183117600S11718663EA0123701267000000000000
B0500223117548S11718653EA0124401274000000000000
B0500263117522S11718710EA0125001279000000000000
B0500303117553S11718763EA0125701286000000000000
B0500343117605S11718762EA0126501296000000000000
B0500383117635S11718711EA0127501307000000000000
B0500423117614S11718653EA0128501314000000000000
B0500463117562S11718648EA0128601318000000000000
B0500503117522S11718696EA0129301324000000000000
B0500543117536S11718762EA0129601326000000000000
B0500583117585S11718806EA0130301338000000000000
B0501023117627S11718774EA0131501349000000000000
B0501063117604S11718722EA0132301355000000000000
B0501103117553S11718736EA0132501352000000000000
B0501143117542S11718805EA0132401352000000000000
B0501183117583S11718860EA0133401369000000000000
B0501223117638S11718852EA0135801391000000000000
B0501263117656S11718800EA0137201402000000000000
B0501303117622S11718754EA0137601403000000000000
B0501343117569S11718769EA0137401402000000000000
B0501383117538S11718831EA0137701403000000000000
B0501423117539S11718908EA0138201410000000000000
B0501463117572S11718969EA0139301423000000000000
B0501503117624S11718962EA0140701434000000000000
B0501543117631S11718908EA0141301441000000000000
B0501583117581S11718880EA0142601458000000000000
B0502023117536S11718926EA0144101471000000000000
B0502063117548S11719000EA0144501473000000000000
B0502103117605S11719027EA0145401484000000000000
B0502143117653S11718988EA0145501484000000000000
B0502183117648S11718922EA0146301495000000000000
B0502223117596S11718909EA0148001517000000000000
B0502263117578S11718975EA0149801531000000000000
B0502303117622S11719019EA0150601542000000000000
B0502343117674S11719004EA0151401548000000000000
B0502383117690S11718944EA0151501548000000000000
B0502423117655S11718895EA0152601566000000000000
B0502463117601S11718906EA0154201578000000000000
B0502503117579S11718974EA0154901581000000000000
B0502543117609S11719042EA0155601589000000000000
B0502583117666S11719039EA0156501597000000000000
B0503023117685S11718983EA0157201605000000000000
B0503063117644S11718945EA0158201616000000000000
B0503103117596S11718982EA0158801626000000000000
B0503143117600S11719057EA0159701630000000000000
B0503183117655S11719087EA0160201635000000000000
B0503223117698S11719044EA0160501636000000000000
B0503263117695S11718980EA0160901647000000000000
B0503303117644S11718975EA0162501663000000000000
B0503343117613S11719038EA0163301667000000000000
B0503383117635S11719112EA0163501668000000000000
B0503423117695S11719126EA0163801671000000000000
B0503463117729S11719071EA0163701669000000000000
B0503503117715S11719005EA0164101675000000000000
B0503543117651S11719001EA0163901672000000000000
B0503583117579S11719039EA0163201658000000000000
B0504023117504S11719092EA0162001649000000000000
B0504063117427S11719151EA0161101637000000000000
B0504103117349S11719209EA0159301618000000000000
B0504143117267S11719269EA0157801605000000000000
B0504183117185S11719325EA0157201599000000000000
B0504223117105S11719377EA0156701596000000000000
B0504263117027S11719426EA0156301593000000000000
B0504303116950S11719474EA0155901587000000000000
B0504343116872S11719520EA0155301579000000000000
B0504383116795S11719565EA0154501572000000000000
B0504423116720S11719610EA0154101568000000000000
B0504463116645S11719655EA0153201559000000000000
B0504503116572S11719699EA0152501552000000000000
B0504543116498S11719744EA0152101548000000000000
B0504583116426S11719788EA0151701544000000000000
B0505023116355S11719833EA0151001536000000000000
B0505063116285S11719879EA0150801536000000000000
B0505103116221S11719923EA0151501547000000000000
B0505143116161S11719966EA0151701540000000000000
B0505183116097S11720013EA0151401540000000000000
B0505223116031S11720032EA0153001562000000000000
B0505263115979S11720007EA0155101582000000000000
B0505303115966S11719953EA0157201604000000000000
B0505343116004S11719910EA0158601610000000000000
B0505383116070S11719926EA0158901616000000000000
B0505423116105S11719996EA0159801627000000000000
B0505463116083S11720059EA0161001639000000000000
B0505503116034S11720076EA0161901645000000000000
B0505543115992S11720046EA0162401656000000000000
B0505583115993S11719989EA0164001673000000000000
B0506023116048S11719961EA0165301680000000000000
B0506063116109S11720006EA0165601688000000000000
B0506103116114S11720083EA0166901701000000000000
B0506143116070S11720123EA0167601705000000000000
B0506183116025S11720100EA0168701721000000000000
B0506223116026S11720044EA0170501740000000000000
B0506263116079S11720019EA0172001752000000000000
B0506303116140S11720057EA0172201755000000000000
B0506343116156S11720131EA0173201771000000000000
B0506383116126S11720184EA0174201776000000000000
B0506423116075S11720192EA0174101775000000000000
B0506463116052S11720145EA0175001787000000000000
B0506503116095S11720104EA0176401798000000000000
B0506543116162S11720131EA0176801803000000000000
B0506583116190S11720205EA0177901816000000000000
B0507023116158S11720264EA0178401819000000000000
B0507063116103S11720280EA0178301814000000000000
B0507103116040S11720305EA0177101801000000000000
B0507143115974S11720334EA0177101804000000000000
B0507183115910S11720361EA0177701815000000000000
B0507223115852S11720395EA0178501824000000000000
B0507263115797S11720427EA0178601819000000000000
B0507303115736S11720466EA0177701814000000000000
B0507343115671S11720508EA0177801816000000000000
B0507383115605S11720548EA0178601825000000000000
B0507423115542S11720589EA0179301832000000000000
B0507463115477S11720626EA0179201826000000000000
B0507503115412S11720672EA0177701811000000000000
B0507543115346S11720713EA0177001803000000000000
B0507583115280S11720752EA0176401800000000000000
B0508023115212S11720789EA0176201793000000000000
B0508063115144S11720825EA0175501786000000000000
B0508103115076S11720862EA0173901768000000000000
B0508143115004S11720895EA0172501749000000000000
B0508183114929S11720925EA0170601732000000000000
B0508223114851S11720951EA0169601723000000000000
B0508263114774S11720979EA0168401712000000000000
B0508303114693S11721012EA0167001698000000000000
B0508343114613S11721050EA0166601698000000000000
B0508383114533S11721086EA0165901688000000000000
B0508423114452S11721122EA0165001676000000000000
B0508463114368S11721155EA0164101667000000000000
B0508503114285S11721192EA0163101658000000000000
B0508543114203S11721226EA0162601657000000000000
B0508583114125S11721262EA0163001659000000000000
B0509023114049S11721296EA0162701657000000000000
B0509063113971S11721326EA0162701656000000000000
B0509103113893S11721349EA0163101661000000000000
B0509143113816S11721372EA0163801669000000000000
B0509183113739S11721384EA0164501677000000000000
B0509223113665S11721395EA0164401674000000000000
B0509263113586S11721410EA0163301655000000000000
B0509303113501S11721427EA0161201637000000000000
B0509343113418S11721444EA0160601634000000000000
B0509383113339S11721461EA0160401632000000000000
B0509423113262S11721482EA0159301620000000000000
B0509463113187S11721504EA0158801618000000000000
B0509503113115S11721527EA0158101608000000000000
B0509543113042S11721552EA0157001596000000000000
B0509583112972S11721577EA0156401591000000000000
B0510023112903S11721601EA0155801582000000000000
B0510063112836S11721632EA0155001575000000000000
B0510103112772S11721668EA0154701575000000000000
B0510143112711S11721705EA0155001577000000000000
B0510183112650S11721743EA0154701571000000000000
B0510223112587S11721779EA0154001563000000000000
B0510263112522S11721813EA0153801566000000000000
B0510303112459S11721847EA0153501559000000000000
B0510343112396S11721881EA0153201558000000000000
B0510383112335S11721909EA0153601566000000000000
B0510423112275S11721931EA0154701576000000000000
B0510463112217S11721947EA0155801592000000000000
B0510503112161S11721942EA0157001603000000000000
B0510543112108S11721926EA0157701606000000000000
B0510583112050S11721928EA0157701606000000000000
B0511023111993S11721954EA0157401601000000000000
B0511063111943S11722002EA0157101595000000000000
B0511103111905S11722065EA0156701594000000000000
B0511143111866S11722134EA0156801600000000000000
B0511183111827S11722201EA0157901613000000000000
B0511223111788S11722267EA0158401614000000000000
B0511263111746S11722337EA0157501608000000000000
B0511303111697S11722402EA0158001611000000000000
B0511343111649S11722467EA0157901610000000000000
B0511383111603S11722535EA0158001610000000000000
B0511423111560S11722601EA0158101613000000000000
B0511463111511S11722656EA0158301614000000000000
B0511503111460S11722705EA0158001610000000000000
B0511543111410S11722756EA0157201599000000000000
B0511583111360S11722808EA0156101586000000000000
B0512023111315S11722864EA0154901574000000000000
B0512063111268S11722918EA0154201570000000000000
B0512103111222S11722970EA0153801563000000000000
B0512143111177S11723020EA0153201560000000000000
B0512183111134S11723068EA0153001557000000000000
B0512223111091S11723117EA0152501550000000000000
B0512263111053S11723172EA0151901544000000000000
B0512303111052S11723244EA0151401535000000000000
B0512343111100S11723302EA0149801521000000000000
B0512383111165S11723346EA0148601508000000000000
B0512423111233S11723390EA0147501498000000000000
B0512463111299S11723439EA0146501487000000000000
B0512503111364S11723495EA0145501479000000000000
B0512543111426S11723554EA0145001474000000000000
B0512583111489S11723610EA0145301478000000000000
B0513023111555S11723651EA0145301473000000000000
B0513063111631S11723673EA0144101462000000000000
B0513103111709S11723685EA0143101451000000000000
B0513143111788S11723685EA0142101440000000000000
B0513183111867S11723676EA0141401430000000000000
B0513223111948S11723662EA0140201419000000000000
B0513263112030S11723645EA0138901407000000000000
B0513303112114S11723647EA0137701398000000000000
B0513343112192S11723677EA0137501397000000000000
B0513383112268S11723715EA0137601397000000000000
B0513423112340S11723745EA0137301394000000000000
B0513463112412S11723764EA0136801388000000000000
B0513503112482S11723794EA0136001381000000000000
B0513543112542S11723849EA0135701378000000000000
B0513583112594S11723913EA0135101369000000000000
B0514023112648S11723979EA0133801356000000000000
B0514063112702S11724049EA0132401341000000000000
B0514103112767S11724109EA0131001324000000000000
B0514143112843S11724153EA0129801317000000000000
B0514183112920S11724184EA0129401313000000000000
B0514223112999S11724208EA0128701308000000000000
B0514263113076S11724231EA0127801298000000000000
B0514303113152S11724256EA0127401295000000000000
B0514343113223S11724278EA0127401295000000000000
B0514383113292S11724297EA0127201289000000000000
B0514423113361S11724316EA0126301282000000000000
B0514463113431S11724334EA0125501271000000000000
B0514503113505S11724346EA0124701263000000000000
B0514543113578S11724349EA0125601279000000000000
B0514583113630S11724318EA0127801302000000000000
B0515023113616S11724266EA0128801308000000000000
B0515063113557S11724275EA0129401317000000000000
B0515103113521S11724338EA0130501326000000000000
B0515143113527S11724418EA0130701325000000000000
B0515183113581S11724455EA0131401333000000000000
B0515223113630S11724431EA0132101343000000000000
B0515263113617S11724374EA0132501347000000000000
B0515303113561S11724374EA0133201360000000000000
B0515343113529S11724438EA0134501364000000000000
B0515383113552S11724511EA0134401362000000000000
B0515423113617S11724533EA0134701368000000000000
B0515463113636S11724479EA0135701381000000000000
B0515503113592S11724452EA0137101396000000000000
B0515543113548S11724487EA0138401409000000000000
B0515583113539S11724560EA0138401405000000000000
B0516023113587S11724620EA0138201406000000000000
B0516063113651S11724617EA0139101417000000000000
B0516103113690S11724572EA0140701433000000000000
B0516143113683S11724516EA0141901451000000000000
B0516183113635S11724502EA0142901460000000000000
B0516223113599S11724559EA0143701467000000000000
B0516263113621S11724629EA0144301474000000000000
B0516303113681S11724658EA0144801478000000000000
B0516343113733S11724629EA0146001491000000000000
B0516383113746S11724570EA0147101504000000000000
B0516423113704S11724537EA0148401519000000000000
B0516463113659S11724574EA0149601528000000000000
B0516503113660S11724645EA0150701540000000000000
B0516543113705S11724691EA0151501546000000000000
B0516583113760S11724673EA0151801552000000000000
B0517023113756S11724617EA0152901566000000000000
B0517063113704S11724611EA0154201579000000000000
B0517103113670S11724668EA0155401591000000000000
B0517143113688S11724737EA0156701603000000000000
B0517183113743S11724769EA0157001603000000000000
B0517223113795S11724745EA0157701616000000000000
B0517263113795S11724693EA0159301630000000000000
B0517303113747S11724674EA0159701631000000000000
B0517343113701S11724721EA0160601643000000000000
B0517383113700S11724793EA0162001653000000000000
B0517423113747S11724846EA0162001654000000000000
B0517463113809S11724850EA0162501660000000000000
B0517503113847S11724807EA0163601676000000000000
B0517543113818S11724768EA0164801684000000000000
B0517583113769S11724799EA0165001691000000000000
B0518023113763S11724871EA0166101696000000000000
B0518063113812S11724923EA0166001694000000000000
B0518103113876S11724916EA0166601706000000000000
B0518143113902S11724867EA0168001720000000000000
B0518183113870S11724828EA0169101731000000000000
B0518223113817S11724841EA0169601737000000000000
B0518263113790S11724903EA0170801748000000000000
B0518303113816S11724971EA0171101748000000000000
B0518343113877S11724998EA0171401755000000000000
B0518383113926S11724972EA0173001773000000000000
B0518423113934S11724927EA0174001781000000000000
B0518463113900S11724893EA0174201781000000000000
B0518503113852S11724911EA0174701787000000000000
B0518543113831S11724975EA0175101789000000000000
B0518583113856S11725045EA0174901786000000000000
B0519023113916S11725084EA0175101792000000000000
B0519063113976S11725074EA0176101800000000000000
B0519103114012S11725028EA0176401800000000000000
B0519143114002S11724975EA0176101798000000000000
B0519183113955S11724953EA0175701796000000000000
B0519223113906S11724997EA0175901798000000000000
B0519263113898S11725072EA0176501807000000000000
B0519303113937S11725144EA0176201796000000000000
B0519343114002S11725206EA0175101788000000000000
B0519383114077S11725263EA0174501779000000000000
B0519423114151S11725322EA0174101775000000000000
B0519463114223S11725382EA0173101762000000000000
B0519503114297S11725445EA0171501743000000000000
B0519543114371S11725514EA0170401736000000000000
B0519583114444S11725579EA0170101734000000000000
B0520023114514S11725647EA0169701729000000000000
B0520063114579S11725718EA0169301725000000000000
B0520103114643S11725786EA0169501728000000000000
B0520143114705S11725847EA0169301722000000000000
B0520183114769S11725909EA0168501714000000000000
B0520223114834S11725969EA0167901708000000000000
B0520263114901S11726025EA0167301703000000000000
B0520303114969S11726081EA0166801697000000000000
B0520343115039S11726136EA0165801681000000000000
B0520383115105S11726205EA0163801661000000000000
B0520423115155S11726294EA0162701656000000000000
B0520463115195S11726384EA0163101659000000000000
B0520503115245S11726466EA0163701670000000000000
B0520543115291S11726540EA0165501689000000000000
B0520583115336S11726611EA0166901703000000000000
B0521023115381S11726682EA0168101714000000000000
B0521063115429S11726748EA0168801721000000000000
B0521103115479S11726812EA0169001721000000000000
B0521143115531S11726873EA0169601731000000000000
B0521183115585S11726933EA0170201736000000000000
B0521223115640S11726992EA0170601738000000000000
B0521263115696S11727055EA0170101734000000000000
B0521303115757S11727117EA0169301721000000000000
B0521343115819S11727181EA0168401716000000000000
B0521383115883S11727245EA0167901710000000000000
B0521423115943S11727315EA0168601719000000000000
B0521463115999S11727381EA0170301739000000000000
B0521503116053S11727447EA0169801721000000000000
B0521543116113S11727519EA0167901704000000000000
B0521583116174S11727593EA0166501691000000000000
B0522023116238S11727668EA0165401681000000000000
B0522063116301S11727742EA0164801677000000000000
B0522103116372S11727809EA0164201672000000000000
B0522143116439S11727875EA0163101660000000000000
B0522183116503S11727948EA0161901650000000000000
B0522223116560S11728025EA0161801649000000000000
B0522263116617S11728096EA0162001648000000000000
B0522303116675S11728165EA0161901650000000000000
B0522343116736S11728227EA0162201650000000000000
B0522383116797S11728294EA0161001629000000000000
B0522423116858S11728366EA0159301617000000000000
B0522463116922S11728431EA0158801613000000000000
B0522503116989S11728481EA0158501611000000000000
B0522543117058S11728533EA0157901604000000000000
B0522583117126S11728593EA0156901593000000000000
B0523023117191S11728662EA0156101585000000000000
B0523063117252S11728733EA0155701582000000000000
B0523103117310S11728803EA0155101575000000000000
B0523143117365S11728881EA0153801556000000000000
B0523183117409S11728974EA0152201543000000000000
B0523223117460S11729059EA0151901547000000000000
B0523263117518S11729132EA0152301550000000000000
B0523303117581S11729198EA0151301535000000000000
B0523343117644S11729273EA0149901522000000000000
B0523383117707S11729349EA0148901512000000000000
B0523423117768S11729425EA0148401508000000000000
B0523463117842S11729473EA0148201504000000000000
B0523503117923S11729505EA0147301494000000000000
B0523543118003S11729536EA0146801490000000000000
B0523583118082S11729569EA0146401488000000000000
B0524023118160S11729599EA0145901479000000000000
B0524063118240S11729629EA0145401480000000000000
B0524103118315S11729659EA0145501478000000000000
B0524143118389S11729698EA0144801465000000000000
B0524183118462S11729748EA0143501454000000000000
B0524223118535S11729802EA0142901447000000000000
B0524263118605S11729859EA0142601449000000000000
B0524303118667S11729925EA0143001457000000000000
B0524343118725S11729991EA0143401455000000000000
B0524383118786S11730050EA0143201459000000000000
B0524423118846S11730103EA0143101454000000000000
B0524463118908S11730158EA0142501450000000000000
B0524503118963S11730224EA0142501451000000000000
B0524543119003S11730298EA0143101457000000000000
B0524583119035S11730372EA0143201450000000000000
B0525023119078S11730446EA0141901434000000000000
B0525063119128S11730519EA0140701425000000000000
B0525103119180S11730593EA0140201421000000000000
B0525143119232S11730666EA0139801413000000000000
B0525183119286S11730739EA0138401400000000000000
B0525223119343S11730813EA0137301390000000000000
B0525263119401S11730888EA0136001376000000000000
B0525303119459S11730966EA0134601361000000000000
B0525343119516S11731044EA0133701355000000000000
B0525383119571S11731126EA0133001341000000000000
B0525423119628S11731208EA0131301323000000000000
B0525463119693S11731281EA0129801312000000000000
B0525503119758S11731355EA0128801300000000000000
B0525543119826S11731424EA0127801290000000000000
B0525583119901S11731483EA0126801280000000000000
B0526023119984S11731528EA0125301262000000000000
B0526063120069S11731564EA0124901258000000000000
B0526103120155S11731588EA0123701247000000000000
B0526143120240S11731606EA0122901237000000000000
B0526183120325S11731626EA0122001229000000000000
B0526223120408S11731644EA0121701228000000000000
B0526263120490S11731663EA0121901231000000000000
B0526303120567S11731688EA0122601240000000000000
B0526343120634S11731732EA0122801242000000000000
B0526383120695S11731782EA0123601251000000000000
B0526423120757S11731826EA0123501244000000000000
B0526463120822S11731865EA0122301230000000000000
B0526503120893S11731896EA0121201222000000000000
B0526543120967S11731917EA0120801216000000000000
B0526583121045S11731927EA0120001207000000000000
B0527023121126S11731934EA0119701209000000000000
B0527063121201S11731938EA0120101213000000000000
B0527103121277S11731939EA0120101214000000000000
B0527143121345S11731934EA0121301225000000000000
B0527183121394S11731895EA0122101234000000000000
B0527223121371S11731841EA0122801239000000000000
B0527263121322S11731856EA0122901243000000000000
B0527303121303S11731918EA0122701238000000000000
B0527343121326S11731991EA0122401235000000000000
B0527383121364S11732060EA0122201235000000000000
B0527423121413S11732120EA0123001248000000000000
B0527463121474S11732144EA0124401261000000000000
B0527503121504S11732091EA0124901266000000000000
B0527543121469S11732049EA0125401272000000000000
B0527583121418S11732073EA0125601277000000000000
B0528023121404S11732146EA0126301284000000000000
B0528063121447S11732201EA0127501298000000000000
B0528103121498S11732174EA0128401303000000000000
B0528143121486S11732116EA0129301312000000000000
B0528183121435S11732112EA0130101323000000000000
B0528223121401S11732168EA0130701329000000000000
B0528263121420S11732243EA0131401338000000000000
B0528303121477S11732279EA0132101347000000000000
B0528343121531S11732247EA0133501360000000000000
B0528383121533S11732185EA0134401369000000000000
B0528423121486S11732164EA0135501382000000000000
B0528463121446S11732211EA0136301387000000000000
B0528503121459S11732285EA0137001395000000000000
B0528543121516S11732316EA0137901406000000000000
B0528583121568S11732283EA0138901416000000000000
B0529023121569S11732220EA0139601422000000000000
B0529063121522S11732195EA0140401432000000000000
B0529103121479S11732239EA0141001442000000000000
B0529143121482S11732311EA0142101453000000000000
B0529183121531S11732352EA0142801459000000000000
B0529223121586S11732333EA0143101460000000000000
B0529263121605S11732269EA0143601464000000000000
B0529303121585S11732207EA0144401474000000000000
B0529343121534S11732209EA0145101483000000000000
B0529383121509S11732276EA0145601486000000000000
B0529423121529S11732347EA0146301495000000000000
B0529463121585S11732357EA0147401505000000000000
B0529503121602S11732303EA0148201511000000000000
B0529543121557S11732277EA0148701517000000000000
B0529583121517S11732325EA0149401524000000000000
B0530023121537S11732393EA0150001529000000000000
B0530063121594S11732406EA0150701536000000000000
B0530103121628S11732354EA0151301541000000000000
B0530143121604S11732298EA0151901548000000000000
B0530183121550S11732295EA0152701557000000000000
B0530223121511S11732344EA0153701562000000000000
B0530263121514S11732415EA0153801563000000000000
B0530303121564S11732463EA0154001566000000000000
B0530343121624S11732460EA0154701575000000000000
B0530383121652S11732407EA0155401580000000000000
B0530423121628S11732352EA0156101591000000000000
B0530463121577S11732344EA0157101601000000000000
B0530503121535S11732387EA0157601603000000000000
B0530543121529S11732459EA0157801604000000000000
B0530583121561S11732519EA0158401609000000000000
B0531023121617S11732536EA0158801612000000000000
B0531063121661S11732503EA0158801612000000000000
B0531103121668S11732439EA0158701612000000000000
B0531143121631S11732390EA0159001617000000000000
B0531183121581S11732354EA0159401621000000000000
B0531223121524S11732357EA0159801624000000000000
B0531263121490S11732421EA0159901623000000000000
B0531303121507S11732499EA0159601621000000000000
B0531343121556S11732563EA0159201618000000000000
B0531383121617S11732619EA0158401605000000000000
B0531423121685S11732673EA0157501597000000000000
B0531463121756S11732723EA0157701600000000000000
B0531503121829S11732770EA0157901600000000000000
B0531543121902S11732823EA0157901598000000000000
B0531583121976S11732880EA0157601591000000000000
B0532023122050S11732941EA0157001585000000000000
B0532063122125S11733006EA0156301578000000000000
B0532103122201S11733074EA0155601569000000000000
B0532143122275S11733144EA0155001563000000000000
B0532183122350S11733214EA0154101554000000000000
B0532223122426S11733284EA0153601546000000000000
B0532263122502S11733352EA0152901537000000000000
B0532303122579S11733422EA0152101531000000000000
B0532343122653S11733491EA0151501523000000000000
B0532383122727S11733565EA0149901505000000000000
B0532423122799S11733643EA0149201499000000000000
B0532463122876S11733709EA0149001499000000000000
B0532503122955S11733761EA0148701494000000000000
B0532543123034S11733819EA0147401483000000000000
B0532583123108S11733885EA0146801474000000000000
B0533023123180S11733954EA0146401470000000000000
B0533063123251S11734020EA0145801465000000000000
B0533103123321S11734080EA0145001455000000000000
B0533143123394S11734136EA0144101446000000000000
B0533183123467S11734189EA0143301435000000000000
B0533223123542S11734241EA0142501431000000000000
B0533263123614S11734293EA0142101426000000000000
B0533303123685S11734345EA0141501421000000000000
B0533343123758S11734397EA0141101415000000000000
B0533383123831S11734447EA0140801415000000000000
B0533423123901S11734505EA0141201420000000000000
B0533463123966S11734567EA0140901416000000000000
B0533503124033S11734627EA0140401411000000000000
B0533543124100S11734683EA0140101408000000000000
B0533583124170S11734730EA0139601404000000000000
B0534023124242S11734777EA0138901395000000000000
B0534063124315S11734824EA0138001383000000000000
B0534103124386S11734869EA0136901370000000000000
B0534143124454S11734922EA0136401372000000000000
B0534183124507S11734987EA0136901373000000000000
B0534223124560S11735045EA0136701370000000000000
B0534263124620S11735093EA0135801360000000000000
B0534303124681S11735136EA0134601350000000000000
B0534343124745S11735177EA0133501338000000000000
B0534383124811S11735215EA0132401326000000000000
B0534423124880S11735254EA0131601319000000000000
B0534463124945S11735310EA0130901310000000000000
B0534503125010S11735363EA0130601308000000000000
B0534543125082S11735401EA0129801298000000000000
B0534583125156S11735438EA0128801291000000000000
B0535023125219S11735490EA0129001294000000000000
B0535063125277S11735552EA0129301295000000000000
B0535103125333S11735613EA0129801305000000000000
B0535143125351S11735692EA0130801316000000000000
B0535183125309S11735731EA0131901325000000000000
B0535223125273S11735695EA0132001323000000000000
B0535263125288S11735633EA0131801321000000000000
B0535303125344S11735592EA0131701324000000000000
B0535343125404S11735624EA0133201343000000000000
B0535383125400S11735695EA0134501351000000000000
B0535423125351S11735718EA0134601355000000000000
B0535463125329S11735669EA0135001358000000000000
B0535503125357S11735609EA0134801352000000000000
B0535543125424S11735589EA0134701357000000000000
B0535583125489S11735624EA0136201371000000000000
B0536023125509S11735705EA0137301387000000000000
B0536063125466S11735753EA0138901398000000000000
B0536103125420S11735732EA0138901396000000000000
B0536143125413S11735669EA0138701396000000000000
B0536183125459S11735623EA0139201401000000000000
B0536223125517S11735661EA0140501420000000000000
B0536263125507S11735740EA0141901429000000000000
B0536303125450S11735763EA0142301434000000000000
B0536343125412S11735717EA0142101429000000000000
B0536383125429S11735649EA0142401434000000000000
B0536423125489S11735623EA0143101443000000000000
B0536463125547S11735665EA0144401462000000000000
B0536503125551S11735748EA0145901475000000000000
B0536543125503S11735804EA0146701483000000000000
B0536583125450S11735791EA0147201489000000000000
B0537023125437S11735731EA0147201486000000000000
B0537063125473S11735675EA0147401491000000000000
B0537103125535S11735676EA0148801510000000000000
B0537143125555S11735749EA0150801526000000000000
B0537183125516S11735810EA0151401530000000000000
B0537223125464S11735805EA0151901533000000000000
B0537263125455S11735749EA0151901533000000000000
B0537303125505S11735721EA0152201539000000000000
B0537343125560S11735766EA0153301550000000000000
B0537383125552S11735851EA0154301562000000000000
B0537423125494S11735900EA0155001567000000000000
B0537463125440S11735875EA0155701573000000000000
B0537503125438S11735813EA0156101578000000000000
B0537543125486S11735779EA0156901590000000000000
B0537583125544S11735797EA0158201600000000000000
B0538023125598S11735852EA0158601601000000000000
B0538063125656S11735914EA0159101614000000000000
B0538103125720S11735977EA0159401608000000000000
B0538143125785S11736044EA0160401628000000000000
B0538183125820S11736121EA0163301657000000000000
B0538223125786S11736181EA0165701677000000000000
B0538263125734S11736176EA0166601683000000000000
B0538303125719S11736118EA0167401692000000000000
B0538343125763S11736068EA0168101699000000000000
B0538383125836S11736082EA0169601717000000000000
B0538423125863S11736157EA0171301732000000000000
B0538463125823S11736213EA0172001739000000000000
B0538503125768S11736195EA0172401741000000000000
B0538543125760S11736125EA0172901751000000000000
B0538583125803S11736066EA0174601771000000000000
B0539023125871S11736069EA0176601792000000000000
B0539063125906S11736138EA0178201804000000000000
B0539103125879S11736204EA0178601805000000000000
B0539143125821S11736203EA0179201816000000000000
B0539183125795S11736147EA0180401832000000000000
B0539223125819S11736086EA0182001850000000000000
B0539263125880S11736070EA0183701864000000000000
B0539303125937S11736124EA0184101865000000000000
B0539343125936S11736208EA0184401871000000000000
B0539383125885S11736243EA0185401883000000000000
B0539423125849S11736202EA0186701890000000000000
B0539463125869S11736135EA0187001896000000000000
B0539503125933S11736113EA0187701902000000000000
B0539543126006S11736144EA0187001887000000000000
B0539583126077S11736205EA0184701864000000000000
B0540023126150S11736278EA0183901860000000000000
B0540063126220S11736351EA0183601856000000000000
B0540103126291S11736423EA0182901847000000000000
B0540143126360S11736493EA0182501845000000000000
B0540183126428S11736562EA0182401842000000000000
B0540223126499S11736624EA0182101841000000000000
B0540263126573S11736679EA0181601835000000000000
B0540303126649S11736735EA0180501821000000000000
B0540343126727S11736796EA0179601817000000000000
B0540383126804S11736857EA0179701816000000000000
B0540423126878S11736918EA0179501812000000000000
B0540463126952S11736980EA0179401812000000000000
B0540503127024S11737047EA0179301811000000000000
B0540543127088S11737113EA0179101809000000000000
B0540583127147S11737183EA0178401799000000000000
B0541023127212S11737255EA0176901784000000000000
B0541063127280S11737325EA0176301779000000000000
B0541103127346S11737394EA0175801776000000000000
B0541143127413S11737463EA0175501770000000000000
B0541183127476S11737535EA0175801774000000000000
B0541223127536S11737613EA0175501765000000000000
B0541263127610S11737678EA0173501748000000000000
B0541303127687S11737743EA0172301738000000000000
B0541343127764S11737808EA0171301726000000000000
B0541383127840S11737867EA0170801729000000000000
B0541423127913S11737929EA0171501738000000000000
B0541463127981S11737993EA0172401743000000000000
B0541503128048S11738057EA0172801748000000000000
