ACAM4N6
HFDTE280221
HFFXA050
HFPLTPILOT:JOHN WELSH              
HFGTYGLIDERTYPE:HORNET      
HFGIDGLIDERID:VH-GMY      
HFDTM100GPSDATUM:
HFRFWFIRMWAREVERSION:F2.6
HFRHWHARDWAREVERSION:300 Series Version 2
HFFTYFRTYPE:CAMBRIDGE AERO INSTRUMENTS, 302+
HFGPS:GARMIN,LVS-25,12,18000
HFPRSPRESSALTSENSOR:INTERSEMA, MS5534-AP, 20000
I033638FXA3941ENL4247REX
LCAMSBVER:5FWVER:F26300
C270221051021270221000102
C0000000N00000000WTAKEOFF     
C3207549S11656849EBEVAIR      
C3251466S11653683ECongel      
C3207499S11801415EBabakin     
C3207549S11656849EBEVAIR      
C0000000N00000000WLANDING     
B0433503207333S11656854EA0023200209000000030000
B0433523207332S11656854EA0023200209000000030000
B0433543207334S11656856EA0023200208000000030000
B0433563207333S11656856EA0023200208000000030000
B0433583207333S11656856EA0023200208000000030000
B0434003207332S11656856EA0023200208000004030000
B0434023207332S11656856EA0023200207015004030000
B0434043207338S11656856EA0023200206000004030000
B0434063207338S11656856EA0023000205000004015000
B0434083207339S11656856EA0023000202000004015000
B0434103207339S11656857EA0023000200000004015000
B0434123207341S11656857EA0023000198000004015000
B0434143207343S11656858EA0023000196000004015000
B0434163207349S11656860EA0023000194000004015000
B0434183207352S11656862EA0023000191000004015000
B0434213207362S11656865EA0023000189000004015000
B0434253207371S11656867EA0023100186000004015000
B0434293207371S11656867EA0023000185000004225000
B0434333207360S11656866EA0023000185000004120000
B0434373207342S11656860EA0023200194000004045000
B0434413207341S11656858EA0023000196000004015000
B0434453207339S11656857EA0023000196000004015000
B0434493207339S11656857EA0023000197000004015000
B0434533207339S11656857EA0023000198000004000000
B0435063207338S11656856EA0023000199000004000000
B0435083207338S11656856EA0023000200000004000000
B0435103207338S11656856EA0022900200000000000000
B0435123207338S11656856EA0022900200000000000000
B0435143207339S11656856EA0023000200000000000000
B0435163207339S11656856EA0023000200000000000000
B0435183207339S11656856EA0023100200000000000000
B0435203207339S11656856EA0023100200000004000000
B0435223207339S11656856EA0023200200000000000000
B0435243207339S11656856EA0023100200000000000000
B0435263207339S11656856EA0023000200000000000000
B0435283207339S11656856EA0023000200000000000000
B0435303207339S11656856EA0023100200000000000000
B0435323207339S11656857EA0023000200000000000000
B0435343207342S11656860EA0023100200000000000000
B0435373207352S11656870EA0023100200000000000000
B0435413207378S11656892EA0023300200000000000000
B0435453207421S11656919EA0023300200000000000000
B0435493207475S11656953EA0023600202000000000000
B0435533207533S11656992EA0024300209000004000000
B0435573207594S11657033EA0024800216000000000000
B0436013207654S11657068EA0026300243000000000000
B0436053207711S11657095EA0029200278000000000000
B0436093207768S11657122EA0031600296000000000000
B0436133207822S11657156EA0033100309000004000000
B0436173207875S11657189EA0034400322000004000000
B0436213207926S11657225EA0035700339000004000000
B0436253207976S11657260EA0037600355000004000000
B0436293208028S11657293EA0038500362000004000000
B0436333208080S11657324EA0039700377000004000000
B0436373208131S11657358EA0041200388000004000000
B0436413208178S11657393EA0043000406000004000000
B0436453208227S11657434EA0044800431000000000000
B0436493208278S11657477EA0047500461000000000000
B0436533208335S11657519EA0049400467000000000000
B0436573208392S11657562EA0050200486000000000000
B0437013208444S11657605EA0052200510000000000000
B0437053208496S11657646EA0054400530000000000000
B0437093208545S11657688EA0056300553000000000000
B0437133208589S11657735EA0058500577000000000000
B0437173208633S11657783EA0060900602000000000000
B0437213208676S11657833EA0063300630000004000000
B0437253208715S11657884EA0066100661000004000000
B0437293208755S11657935EA0069100689000004000000
B0437333208797S11657983EA0071000705000004000000
B0437373208836S11658030EA0073300733000000000000
B0437413208877S11658074EA0075800757000004000000
B0437453208923S11658119EA0077200769000004000000
B0437493208964S11658166EA0079000788000004000000
B0437533208994S11658226EA0080500804000000000000
B0437573208993S11658299EA0082200823000000000000
B0438013208968S11658364EA0083800831000000000000
B0438053208976S11658421EA0084100832000000000000
B0438093209015S11658456EA0083200818000000000000
B0438133209078S11658456EA0080700791000000000000
B0438173209146S11658427EA0079100786000004000000
B0438213209209S11658385EA0080200799000000000000
B0438253209258S11658325EA0081000803000004000000
B0438293209287S11658247EA0080800801000004000000
B0438333209328S11658179EA0079800784000004000000
B0438373209383S11658130EA0078300768000000000000
B0438413209443S11658088EA0076800757000004000000
B0438453209505S11658056EA0075600740000004000000
B0438493209570S11658027EA0074100727000004000000
B0438533209635S11658002EA0072800710000004000000
B0438573209702S11657959EA0071300698000004000000
B0439013209744S11657874EA0071000698000004000000
B0439053209747S11657771EA0071000699000004000000
B0439093209720S11657676EA0071100698000004000000
B0439133209663S11657601EA0070700692000004000000
B0439173209588S11657563EA0070800698000004000000
B0439213209535S11657595EA0071700713000004015000
B0439253209556S11657629EA0072900719000000015000
B0439293209592S11657582EA0073600728000000015000
B0439333209575S11657506EA0074100728000000015000
B0439373209513S11657472EA0073900729000000015000
B0439413209464S11657499EA0074200732000000015000
B0439453209474S11657542EA0074400736000000015000
B0439493209521S11657537EA0074900743000004015000
B0439533209552S11657477EA0075700750000004015000
B0439573209525S11657402EA0076200748000000015000
B0440013209460S11657381EA0076000752000000015000
B0440053209418S11657416EA0076400753000004015000
B0440093209434S11657464EA0076200751000000015000
B0440133209486S11657472EA0076400759000000015000
B0440173209527S11657416EA0078100778000000015000
B0440213209512S11657333EA0078900776000000015000
B0440253209452S11657286EA0078300771000000015000
B0440293209388S11657299EA0078300771000000015000
B0440333209366S11657355EA0078300775000000015000
B0440373209408S11657384EA0079600793000000015000
B0440413209457S11657350EA0081200806000004015000
B0440453209481S11657277EA0081400809000004015000
B0440493209458S11657195EA0081900814000004015000
B0440533209403S11657148EA0082300814000004015000
B0440573209341S11657152EA0082200814000000015000
B0441013209305S11657195EA0082400819000004015000
B0441053209334S11657233EA0082900822000000015000
B0441093209382S11657191EA0083300832000000015000
B0441133209384S11657105EA0084400842000000015000
B0441173209331S11657053EA0085200848000000015000
B0441213209276S11657073EA0085500852000000015000
B0441253209269S11657125EA0086200859000000015000
B0441293209308S11657148EA0086900867000004015000
B0441333209356S11657112EA0087600872000004015000
B0441373209379S11657036EA0087600868000004015000
B0441413209347S11656955EA0087500872000004015000
B0441453209284S11656906EA0087900875000004015000
B0441493209215S11656912EA0088300881000004015000
B0441533209183S11656957EA0089000887000000015000
B0441573209219S11656988EA0089300888000000015000
B0442013209270S11656966EA0089900897000000015000
B0442053209296S11656899EA0090300896000004015000
B0442093209273S11656814EA0090100894000000015000
B0442133209211S11656767EA0090400902000000015000
B0442173209167S11656796EA0091000910000000015000
B0442213209187S11656835EA0091400909000004015000
B0442253209237S11656817EA0091500913000000015000
B0442293209250S11656739EA0092000915000000015000
B0442333209201S11656672EA0092100918000000015000
B0442373209139S11656670EA0092700925000000015000
B0442413209118S11656718EA0093100930000000015000
B0442453209150S11656752EA0093200930000000015000
B0442493209208S11656730EA0093500936000000015000
B0442533209239S11656662EA0094300946000000015000
B0442573209210S11656585EA0094900941000000015000
B0443013209144S11656541EA0094200938000000015000
B0443053209070S11656513EA0094200941000000000000
B0443093208992S11656489EA0094100939000000000000
B0443133208911S11656492EA0093800934000000000000
B0443173208829S11656493EA0093300935000000000000
B0443213208749S11656476EA0093900938000000000000
B0443253208668S11656445EA0093500932000000000000
B0443293208587S11656410EA0092700922000000000000
B0443333208503S11656386EA0091800912000000000000
B0443373208422S11656403EA0091200907000000000000
B0443413208370S11656454EA0090700902000000000000
B0443453208351S11656519EA0090000898000000000000
B0443493208344S11656587EA0089300890000000000000
B0443533208326S11656658EA0088900887000000000000
B0443573208308S11656732EA0088600884000004000000
B0444013208298S11656808EA0088100877000004000000
B0444053208295S11656882EA0087500870000004000000
B0444093208296S11656953EA0086900863000000000000
B0444133208288S11657027EA0085800850000004000000
B0444173208268S11657103EA0084600841000004000000
B0444213208242S11657176EA0084300839000004000000
B0444253208214S11657246EA0084200835000004000000
B0444293208182S11657315EA0084100835000004000000
B0444333208147S11657381EA0083900834000004000000
B0444373208108S11657446EA0083500825000004000000
B0444413208069S11657511EA0083000823000004000000
B0444453208041S11657580EA0082100809000004000000
B0444493208015S11657650EA0080700796000000000000
B0444533207982S11657719EA0079600786000004000000
B0444573207947S11657788EA0078800777000004000000
B0445013207919S11657855EA0077900769000000000000
B0445053207884S11657918EA0077700769000000000000
B0445093207848S11657978EA0078000775000000000000
B0445133207827S11658041EA0079100787000000000000
B0445173207776S11658082EA0079900794000000000000
B0445213207709S11658036EA0081600820000000000000
B0445253207679S11657949EA0083800838000000000000
B0445293207694S11657867EA0085100856000004000000
B0445333207737S11657819EA0086500864000004000000
B0445373207783S11657818EA0087000868000004000000
B0445413207811S11657849EA0087700874000004000000
B0445453207814S11657894EA0088000875000004000000
B0445493207791S11657945EA0088000875000004000000
B0445533207726S11657961EA0088600890000004000000
B0445573207688S11657883EA0091100919000004015000
B0446013207722S11657820EA0093200936000004000000
B0446053207766S11657819EA0094400945000000000000
B0446093207779S11657855EA0095700954000004000000
B0446133207750S11657893EA0097500965000000000000
B0446173207690S11657901EA0099200982000000015000
B0446213207636S11657850EA0101301008000000015000
B0446253207624S11657770EA0103101034000000015000
B0446293207654S11657706EA0104801048000004015000
B0446333207701S11657689EA0105801059000004015000
B0446373207732S11657714EA0107001074000000015000
B0446413207716S11657754EA0109201103000000015000
B0446453207662S11657762EA0111801119000000015000
B0446493207602S11657716EA0113101134000000015000
B0446533207571S11657633EA0114701154000000015000
B0446573207584S11657546EA0115901160000000015000
B0447013207632S11657493EA0116301166000004000000
B0447053207687S11657488EA0116601171000000000000
B0447093207718S11657523EA0117801179000000000000
B0447133207713S11657573EA0118701185000000000000
B0447173207664S11657614EA0118901190000004015000
B0447213207596S11657597EA0120901219000000015000
B0447253207567S11657517EA0123401243000000015000
B0447293207584S11657438EA0124501256000000015000
B0447333207631S11657387EA0125201260000000015000
B0447373207685S11657387EA0125401261000004015000
B0447413207714S11657437EA0126301277000004015000
B0447453207706S11657499EA0127901290000004000000
B0447493207662S11657545EA0129201305000004000000
B0447533207590S11657538EA0130601320000004000000
B0447573207532S11657476EA0131801335000004015000
B0448013207510S11657387EA0133601353000000015000
B0448053207524S11657307EA0135001367000000000000
B0448093207566S11657252EA0136601382000000000000
B0448133207614S11657234EA0138001394000000000000
B0448173207654S11657256EA0138901408000000000000
B0448213207671S11657304EA0140101413000000000000
B0448253207648S11657360EA0140201417000004000000
B0448293207592S11657399EA0141201429000004000000
B0448333207518S11657393EA0142601446000004000000
B0448373207477S11657322EA0144401465000004000000
B0448413207497S11657242EA0145101462000004015000
B0448453207551S11657204EA0145301472000000015000
B0448493207610S11657212EA0146101475000000000000
B0448533207653S11657255EA0146001476000000015000
B0448573207661S11657317EA0146601487000000015000
B0449013207620S11657364EA0147901500000000015000
B0449053207555S11657377EA0148801504000000015000
B0449093207482S11657371EA0148401497000000000000
B0449133207406S11657350EA0148401501000000000000
B0449173207333S11657313EA0149001509000000000000
B0449213207267S11657264EA0149401519000004000000
B0449253207212S11657196EA0150601531000004000000
B0449293207185S11657109EA0151601535000004000000
B0449333207189S11657018EA0152101545000004000000
B0449373207216S11656938EA0153201558000004000000
B0449413207260S11656879EA0154701577000004000000
B0449453207311S11656849EA0156701597000004000000
B0449493207358S11656849EA0158201606000000000000
B0449533207393S11656874EA0159101612000000000000
B0449573207408S11656921EA0159801618000000000000
B0450013207394S11656975EA0159801616000000000000
B0450053207369S11657033EA0159401613000004000000
B0450093207347S11657094EA0159001606000004000000
B0450133207330S11657160EA0158301599000000000000
B0450173207312S11657230EA0157401589000000000000
B0450213207291S11657300EA0156401578000000000000
B0450253207271S11657371EA0155201564000000000000
B0450293207250S11657445EA0153901554000000000000
B0450333207230S11657519EA0152701540000004000000
B0450373207217S11657597EA0151801532000000000000
B0450413207228S11657672EA0151401531000004000000
B0450453207256S11657742EA0151201528000004000000
B0450493207295S11657806EA0150901527000000000000
B0450533207337S11657867EA0150601525000004000000
B0450573207375S11657927EA0150501522000004000000
B0451013207411S11657988EA0149901517000000000000
B0451053207447S11658048EA0149801517000000000000
B0451093207482S11658108EA0149501513000004000000
B0451133207514S11658171EA0149201511000000000000
B0451173207545S11658234EA0149001509000000000000
B0451213207576S11658295EA0148401499000000000000
B0451253207609S11658359EA0147201487000000000000
B0451293207644S11658424EA0146501478000004000000
B0451333207676S11658492EA0145201463000004000000
B0451373207713S11658559EA0144301460000004000000
B0451413207748S11658620EA0144201456000004000000
B0451453207776S11658685EA0143701450000004000000
B0451493207798S11658750EA0143701452000004000000
B0451533207823S11658812EA0143101444000004000000
B0451573207853S11658873EA0142001434000004000000
B0452013207884S11658931EA0142501443000004000000
B0452053207915S11658980EA0143401453000004000000
B0452093207944S11659027EA0143201447000004000000
B0452133207971S11659080EA0143501454000004000000
B0452173207989S11659135EA0144501465000004000000
B0452213208008S11659191EA0145301474000004000000
B0452253208026S11659245EA0146501485000004000000
B0452293208047S11659298EA0146701480000000000000
B0452333208073S11659356EA0146101477000000000000
B0452373208099S11659414EA0145401466000000000000
B0452413208129S11659474EA0144101454000004000000
B0452453208160S11659534EA0143401447000004000000
B0452493208188S11659595EA0142501439000000000000
B0452533208217S11659656EA0141901434000000000000
B0452573208246S11659716EA0141501427000004000000
B0453013208272S11659777EA0140701421000004000000
B0453053208298S11659835EA0140101413000004000000
B0453093208320S11659896EA0138901400000004000000
B0453133208331S11659963EA0137901392000004000000
B0453173208339S11700032EA0137201382000004000000
B0453213208356S11700099EA0136201375000004000000
B0453253208383S11700159EA0135901371000004000000
B0453293208413S11700214EA0135601367000000000000
B0453333208446S11700271EA0135501370000000000000
B0453373208482S11700323EA0136001375000000000000
B0453413208525S11700367EA0137101392000000000000
B0453453208563S11700402EA0139201411000000000000
B0453493208613S11700400EA0140501421000000000000
B0453533208646S11700332EA0140601420000000000000
B0453573208625S11700250EA0140601419000000000000
B0454013208565S11700202EA0140601422000004000000
B0454053208504S11700205EA0141201431000004015000
B0454093208468S11700244EA0141901435000000015000
B0454133208467S11700299EA0142101433000000015000
B0454173208494S11700353EA0141601427000000015000
B0454213208535S11700401EA0141601435000000000000
B0454253208581S11700441EA0141901432000000000000
B0454293208629S11700480EA0141201427000000000000
B0454333208680S11700514EA0141401434000000000000
B0454373208724S11700548EA0142301441000000000000
B0454413208763S11700584EA0143301453000000000000
B0454453208805S11700619EA0143501451000000000000
B0454493208851S11700658EA0142801440000000000000
B0454533208897S11700709EA0141501431000004000000
B0454573208936S11700766EA0140701420000004000000
B0455013208958S11700835EA0139401408000004000000
B0455053208957S11700910EA0138901402000004000000
B0455093208941S11700986EA0138401400000004000000
B0455133208920S11701060EA0137901390000000000000
B0455173208896S11701134EA0137301388000000000000
B0455213208872S11701204EA0137001384000000000000
B0455253208849S11701273EA0136701382000000000000
B0455293208824S11701339EA0136601382000000000000
B0455333208801S11701407EA0136301376000000000000
B0455373208773S11701476EA0135301365000000000000
B0455413208740S11701549EA0134901361000000000000
B0455453208703S11701623EA0135101365000000000000
B0455493208664S11701693EA0135901377000000000000
B0455533208629S11701757EA0136901387000004000000
B0455573208595S11701822EA0136801377000004000000
B0456013208561S11701891EA0135701368000004000000
B0456053208526S11701962EA0135001361000000000000
B0456093208493S11702035EA0134001347000000000000
B0456133208457S11702110EA0132801339000000000000
B0456173208421S11702182EA0132801340000000000000
B0456213208389S11702251EA0132501337000000000000
B0456253208356S11702321EA0132101333000000000000
B0456293208325S11702391EA0132401340000000000000
B0456333208299S11702456EA0133501349000000000000
B0456373208290S11702522EA0133901351000000000000
B0456413208298S11702587EA0133901349000000000000
B0456453208316S11702649EA0133401346000000000000
B0456493208340S11702703EA0133001341000004000000
B0456533208395S11702698EA0132901337000004000000
B0456573208421S11702612EA0132101325000004000000
B0457013208390S11702513EA0130601314000004015000
B0457053208339S11702425EA0129801307000000000000
B0457093208273S11702355EA0128801298000004000000
B0457133208194S11702320EA0127801287000000015000
B0457173208112S11702317EA0127701290000000000000
B0457213208040S11702333EA0129801317000000000000
B0457253208006S11702381EA0131701331000000000000
B0457293208053S11702404EA0132901345000004015000
B0457333208092S11702346EA0134501359000000015000
B0457373208070S11702265EA0135001368000000015000
B0457413208010S11702233EA0136401384000000015000
B0457453207965S11702261EA0137201385000000015000
B0457493207969S11702318EA0137501390000000015000
B0457533208021S11702329EA0138601400000000015000
B0457573208053S11702256EA0139501408000000015000
B0458013208014S11702184EA0140801422000000015000
B0458053207953S11702182EA0142001436000004015000
B0458093207918S11702223EA0143101448000004015000
B0458133207927S11702274EA0144101456000004015000
B0458173207973S11702282EA0145301463000004015000
B0458213208013S11702227EA0145301460000004015000
B0458253208000S11702138EA0144901461000000015000
B0458293207941S11702096EA0145901475000000015000
B0458333207895S11702126EA0146501482000000015000
B0458373207906S11702178EA0147101488000000015000
B0458413207957S11702182EA0147701495000000015000
B0458453207996S11702125EA0148201496000004015000
B0458493208000S11702043EA0148001495000004015000
B0458533207961S11701973EA0148101501000004015000
B0458573207900S11701952EA0149201512000004015000
B0459013207854S11701983EA0149601515000004015000
B0459053207869S11702031EA0150201522000004015000
B0459093207924S11702019EA0150201516000004015000
B0459133207952S11701937EA0149601510000004015000
B0459173207917S11701852EA0149401511000000015000
B0459213207852S11701806EA0150201524000000015000
B0459253207788S11701802EA0151701546000000015000
B0459293207774S11701850EA0153601559000000015000
B0459333207811S11701883EA0154001559000000015000
B0459373207869S11701861EA0153801553000000015000
B0459413207908S11701784EA0153201547000000015000
B0459453207898S11701689EA0152801548000000015000
B0459493207849S11701612EA0153401554000000015000
B0459533207783S11701566EA0153401555000004015000
B0459573207711S11701558EA0153501551000000015000
B0500013207651S11701592EA0153101553000004015000
B0500053207631S11701648EA0154801576000004015000
B0500093207670S11701670EA0157001595000004015000
B0500133207709S11701623EA0157801594000000015000
B0500173207703S11701536EA0157601595000004015000
B0500213207648S11701479EA0157901594000004015000
B0500253207581S11701485EA0157601596000004015000
B0500293207550S11701537EA0158301608000004015000
B0500333207577S11701576EA0159601619000004015000
B0500373207628S11701567EA0160801627000004015000
B0500413207663S11701501EA0160901624000004015000
B0500453207650S11701410EA0160601625000004015000
B0500493207590S11701352EA0160501620000004015000
B0500533207519S11701359EA0160301621000004015000
B0500573207481S11701414EA0160801628000004015000
B0501013207519S11701443EA0162101646000004015000
B0501053207568S11701395EA0163001651000004015000
B0501093207572S11701304EA0163401653000004015000
B0501133207525S11701229EA0163301650000004015000
B0501173207454S11701220EA0163201654000004015000
B0501213207395S11701256EA0163401653000004015000
B0501253207377S11701315EA0163701666000004015000
B0501293207420S11701325EA0165201678000004015000
B0501333207460S11701264EA0165601675000004015000
B0501373207445S11701172EA0165501678000004015000
B0501413207377S11701121EA0165801680000004015000
B0501453207311S11701141EA0165701677000004015000
B0501493207284S11701198EA0165401674000004015000
B0501533207302S11701247EA0165201672000000015000
B0501573207360S11701235EA0165001673000004015000
B0502013207411S11701170EA0165101668000000015000
B0502053207412S11701070EA0164901668000004015000
B0502093207349S11700996EA0165101673000004015000
B0502133207267S11700953EA0165201670000004015000
B0502173207181S11700918EA0164401662000004015000
B0502213207087S11700895EA0163301637000004000000
B0502253206983S11700884EA0159401606000000000000
B0502293206873S11700883EA0158101594000000000000
B0502333206771S11700888EA0160201624000000000000
B0502373206678S11700896EA0160901626000004000000
B0502413206587S11700900EA0160401615000000000000
B0502453206491S11700887EA0159501608000000000000
B0502493206396S11700853EA0159001607000004000000
B0502533206312S11700793EA0159501618000004000000
B0502573206247S11700719EA0160701631000004000000
B0503013206194S11700641EA0161801640000000000000
B0503053206151S11700559EA0162201642000000000000
B0503093206115S11700475EA0162101641000000000000
B0503133206077S11700389EA0161701638000000000000
B0503173206039S11700305EA0161701639000000000000
B0503213206006S11700224EA0161501636000000000000
B0503253205971S11700141EA0160901624000000000000
B0503293205917S11700067EA0159801613000004000000
B0503333205841S11700030EA0159101607000004000000
B0503373205773S11700043EA0158801606000000000000
B0503413205742S11700095EA0158601598000000000000
B0503453205764S11700145EA0157001590000004000000
B0503493205804S11700184EA0156001580000004000000
B0503533205852S11700215EA0155001572000004000000
B0503573205899S11700246EA0154201562000004000000
B0504013205945S11700279EA0153301553000000000000
B0504053205994S11700307EA0153001552000004000000
B0504093206045S11700332EA0152901549000000000000
B0504133206097S11700357EA0152601548000000000000
B0504173206150S11700380EA0152301543000004000000
B0504213206203S11700409EA0151601533000004000000
B0504253206255S11700445EA0151001528000000000000
B0504293206303S11700483EA0151301534000000000000
B0504333206354S11700510EA0151201530000000000000
B0504373206406S11700532EA0150201520000004000000
B0504413206457S11700558EA0149301511000004000000
B0504453206505S11700592EA0148901507000004000000
B0504493206545S11700627EA0148901511000004000000
B0504533206574S11700667EA0148901506000004000000
B0504573206598S11700719EA0147901493000000000000
B0505013206626S11700777EA0147101486000004000000
B0505053206656S11700835EA0146401482000000000000
B0505093206680S11700896EA0146501482000000000000
B0505133206700S11700960EA0146501483000000000000
B0505173206721S11701022EA0146301479000000000000
B0505213206744S11701083EA0145801475000000000000
B0505253206769S11701141EA0145601473000004000000
B0505293206797S11701195EA0145301470000004000000
B0505333206825S11701250EA0145001468000000000000
B0505373206851S11701306EA0144701461000000000000
B0505413206874S11701365EA0144001456000000000000
B0505453206899S11701425EA0143401446000000000000
B0505493206922S11701485EA0142601441000004000000
B0505533206946S11701544EA0142501442000000000000
B0505573206970S11701599EA0143101446000000000000
B0506013206998S11701653EA0143201449000004000000
B0506053207020S11701706EA0143401451000004000000
B0506093207044S11701759EA0143001441000004000000
B0506133207074S11701811EA0142101433000004000000
B0506173207115S11701857EA0141201425000000000000
B0506213207164S11701892EA0141201431000004000000
B0506253207212S11701922EA0142101440000004000000
B0506293207258S11701953EA0143601458000004000000
B0506333207300S11701978EA0145601478000000000000
B0506373207343S11701936EA0147401496000004000000
B0506413207337S11701853EA0149001512000004000000
B0506453207289S11701787EA0149901516000004000000
B0506493207221S11701774EA0150501532000004000000
B0506533207181S11701811EA0151901542000004015000
B0506573207183S11701862EA0152801548000000015000
B0507013207226S11701882EA0154001557000000015000
B0507053207274S11701846EA0155701571000000015000
B0507093207291S11701770EA0157001584000000015000
B0507133207269S11701687EA0157401586000000015000
B0507173207212S11701631EA0157801599000000015000
B0507213207152S11701627EA0159801622000000015000
B0507253207113S11701655EA0161101630000004015000
B0507293207115S11701696EA0161501635000000015000
B0507333207155S11701701EA0162201642000004015000
B0507373207191S11701654EA0162901647000004015000
B0507413207196S11701573EA0162901645000000015000
B0507453207157S11701499EA0162901650000000015000
B0507493207092S11701473EA0163701657000004015000
B0507533207030S11701495EA0163701655000000015000
B0507573207001S11701555EA0163701659000004015000
B0508013207025S11701599EA0164801672000000015000
B0508053207074S11701590EA0165901679000000015000
B0508093207104S11701525EA0166801689000004015000
B0508133207098S11701440EA0167301690000000015000
B0508173207052S11701368EA0167801702000004015000
B0508213206988S11701349EA0169001711000004015000
B0508253206944S11701389EA0169201711000004015000
B0508293206957S11701434EA0169501717000004015000
B0508333207008S11701417EA0169901718000004015000
B0508373207044S11701345EA0169801714000000015000
B0508413207025S11701248EA0169901720000000015000
B0508453206956S11701194EA0170501724000004015000
B0508493206877S11701183EA0169701719000004015000
B0508533206797S11701183EA0169301710000004000000
B0508573206715S11701193EA0168301700000004000000
B0509013206647S11701230EA0167901704000004000000
B0509053206596S11701280EA0168201707000000000000
B0509093206563S11701334EA0167801698000000000000
B0509133206553S11701391EA0166401677000000000000
B0509173206580S11701445EA0164101658000000000000
B0509213206630S11701490EA0162401648000000000000
B0509253206689S11701529EA0161301632000000000000
B0509293206748S11701579EA0159901617000000000000
B0509333206775S11701659EA0159101614000000000000
B0509373206775S11701742EA0159401625000000000000
B0509413206762S11701819EA0160501632000000000000
B0509453206740S11701891EA0160201628000000000000
B0509493206713S11701963EA0159901623000000000000
B0509533206683S11702034EA0160301629000000000000
B0509573206658S11702106EA0160901633000000000000
B0510013206632S11702179EA0160801631000000000000
B0510053206609S11702257EA0160101620000004000000
B0510093206583S11702339EA0159101609000004000000
B0510133206553S11702422EA0158201602000000000000
B0510173206511S11702502EA0157901599000004000000
B0510213206463S11702573EA0158301608000004000000
B0510253206413S11702638EA0158401606000004000000
B0510293206357S11702699EA0157801597000004000000
B0510333206303S11702762EA0157001590000004000000
B0510373206258S11702828EA0157601599000004000000
B0510413206229S11702893EA0159201618000000000000
B0510453206270S11702927EA0160801627000000000000
B0510493206320S11702883EA0161201633000000000000
B0510533206336S11702795EA0161601637000000000000
B0510573206294S11702720EA0162501655000000000000
B0511013206233S11702693EA0163701657000004000000
B0511053206173S11702716EA0163501654000004015000
B0511093206154S11702776EA0163701662000004015000
B0511133206186S11702819EA0164201663000000015000
B0511173206244S11702816EA0164101661000000015000
B0511213206288S11702749EA0164501670000000015000
B0511253206276S11702659EA0165301680000000015000
B0511293206221S11702602EA0166401688000000015000
B0511333206158S11702604EA0167401696000004015000
B0511373206132S11702663EA0167401691000004015000
B0511413206141S11702734EA0166501685000004015000
B0511453206156S11702806EA0166501690000004000000
B0511493206169S11702875EA0167601705000004000000
B0511533206179S11702941EA0167601698000000000000
B0511573206185S11703013EA0166401684000004000000
B0512013206186S11703089EA0165501675000000000000
B0512053206189S11703163EA0164801667000004000000
B0512093206195S11703235EA0164101664000000000000
B0512133206193S11703308EA0163901661000000000000
B0512173206184S11703380EA0163701658000000000000
B0512213206179S11703448EA0163701663000000000000
B0512253206177S11703508EA0164401670000000000000
B0512293206179S11703562EA0164601669000000000000
B0512333206181S11703614EA0164301665000004000000
B0512373206181S11703669EA0163601658000000000000
B0512413206185S11703724EA0162901647000000000000
B0512453206203S11703774EA0161801638000000000000
B0512493206232S11703821EA0161001629000000000000
B0512533206262S11703865EA0160301623000000000000
B0512573206293S11703910EA0159701618000004000000
B0513013206322S11703958EA0159401614000004000000
B0513053206351S11704006EA0159001611000004000000
B0513093206384S11704053EA0158601606000000000000
B0513133206418S11704099EA0158001599000000000000
B0513173206452S11704153EA0157801599000000000000
B0513213206487S11704206EA0157701597000000000000
B0513253206519S11704261EA0157401594000000000000
B0513293206552S11704318EA0157001590000000000000
B0513333206585S11704374EA0156901589000000000000
B0513373206618S11704431EA0156601585000004000000
B0513413206653S11704487EA0156201584000004000000
B0513453206689S11704540EA0156501589000004000000
B0513493206723S11704587EA0157001592000000000000
B0513533206756S11704638EA0156901590000004000000
B0513573206788S11704688EA0156501584000004000000
B0514013206826S11704738EA0155901578000000000000
B0514053206868S11704782EA0155701578000000000000
B0514093206908S11704825EA0155301572000000000000
B0514133206946S11704870EA0154701566000000000000
B0514173206981S11704918EA0155001575000000000000
B0514213207013S11704961EA0156401591000004000000
B0514253207052S11704983EA0157001592000004000000
B0514293207100S11704957EA0156101579000004000000
B0514333207155S11704931EA0154001555000004000000
B0514373207208S11704968EA0150901522000004000000
B0514413207235S11705041EA0149001511000000000000
B0514453207247S11705119EA0148501502000004000000
B0514493207251S11705197EA0149201521000000000000
B0514533207260S11705267EA0151101539000004000000
B0514573207272S11705334EA0152701551000000000000
B0515013207304S11705384EA0153301556000004000000
B0515053207362S11705373EA0153801557000004000000
B0515093207404S11705306EA0153201547000004000000
B0515133207395S11705204EA0152401539000004000000
B0515173207330S11705126EA0151801543000004015000
B0515213207245S11705091EA0152901553000004015000
B0515253207163S11705102EA0154101564000004015000
B0515293207124S11705158EA0155801583000004015000
B0515333207155S11705193EA0156801587000004015000
B0515373207200S11705159EA0156501575000004015000
B0515413207209S11705068EA0155101563000004015000
B0515453207160S11704978EA0154601570000004015000
B0515493207083S11704925EA0155701579000004015000
B0515533207004S11704920EA0156801592000000015000
B0515573206947S11704961EA0157201587000000015000
B0516013206930S11705030EA0156001570000004015000
B0516053206952S11705099EA0154201554000004015000
B0516093206996S11705151EA0152401538000004015000
B0516133207050S11705195EA0151001525000004000000
B0516173207103S11705241EA0149701509000004000000
B0516213207157S11705281EA0148101493000004000000
B0516253207212S11705316EA0146901485000000000000
B0516293207269S11705346EA0146201477000000000000
B0516333207328S11705375EA0145401467000000000000
B0516373207388S11705403EA0144801467000000000000
B0516413207445S11705425EA0146101484000000000000
B0516453207502S11705423EA0147601498000000000000
B0516493207549S11705364EA0148501504000000000000
B0516533207533S11705273EA0149301518000000000000
B0516573207472S11705234EA0151401542000000000000
B0517013207425S11705258EA0152801547000000000000
B0517053207425S11705306EA0152401546000004015000
B0517093207469S11705329EA0152401545000004015000
B0517133207524S11705304EA0152801551000004015000
B0517173207560S11705233EA0152801545000000015000
B0517213207557S11705138EA0153201557000000015000
B0517253207510S11705065EA0154801571000000015000
B0517293207446S11705047EA0155601579000000015000
B0517333207397S11705078EA0156401580000000015000
B0517373207398S11705134EA0156001576000000015000
B0517413207446S11705161EA0155701577000000015000
B0517453207502S11705182EA0155401571000000015000
B0517493207557S11705219EA0154701564000000000000
B0517533207605S11705269EA0153901556000004000000
B0517573207648S11705328EA0153801562000004000000
B0518013207685S11705386EA0154701570000000000000
B0518053207722S11705446EA0155001570000004000000
B0518093207757S11705509EA0154901569000000000000
B0518133207789S11705570EA0154401564000004000000
B0518173207819S11705632EA0153401553000000000000
B0518213207853S11705693EA0152601545000004000000
B0518253207888S11705754EA0152201541000004000000
B0518293207927S11705814EA0151801537000004000000
B0518333207967S11705875EA0151401532000004000000
B0518373208010S11705932EA0150901528000004000000
B0518413208049S11705988EA0150801531000004000000
B0518453208086S11706045EA0150601523000004000000
B0518493208123S11706100EA0149601513000004000000
B0518533208166S11706149EA0148801508000000000000
B0518573208209S11706200EA0148401503000000000000
B0519013208248S11706253EA0147501492000000000000
B0519053208286S11706312EA0147101492000000000000
B0519093208317S11706372EA0147701501000000000000
B0519133208343S11706429EA0148801515000000000000
B0519173208370S11706476EA0150301527000000000000
B0519213208418S11706486EA0150901528000000000000
B0519253208465S11706430EA0150201515000000000000
B0519293208460S11706337EA0149101507000004000000
B0519333208405S11706269EA0148301499000004015000
B0519373208333S11706264EA0147801497000000015000
B0519413208287S11706312EA0147901498000000015000
B0519453208273S11706378EA0147801498000000015000
B0519493208269S11706447EA0147301492000000000000
B0519533208265S11706523EA0146601485000000000000
B0519573208265S11706601EA0146101476000000000000
B0520013208259S11706682EA0145601474000000000000
B0520053208247S11706762EA0145101469000000000000
B0520093208233S11706840EA0144201456000000000000
B0520133208216S11706919EA0143101447000000000000
B0520173208199S11706998EA0142701445000004000000
B0520213208182S11707074EA0142501441000004000000
B0520253208164S11707149EA0141801434000004000000
B0520293208145S11707225EA0140501419000004000000
B0520333208129S11707301EA0139601407000000000000
B0520373208116S11707379EA0138401399000004000000
B0520413208104S11707457EA0138501408000000000000
B0520453208090S11707531EA0139601416000004000000
B0520493208074S11707600EA0140601421000004000000
B0520533208066S11707669EA0141401432000004000000
B0520573208078S11707730EA0142901445000004000000
B0521013208129S11707734EA0143801458000004000000
B0521053208162S11707670EA0143901452000004000000
B0521093208138S11707590EA0143101444000004000000
B0521133208074S11707547EA0142901447000000015000
B0521173208010S11707548EA0143401453000000015000
B0521213207970S11707590EA0143901459000000015000
B0521253207945S11707646EA0144401467000000000000
B0521293207954S11707702EA0144801464000000000000
B0521333208009S11707700EA0144901472000004000000
B0521373208028S11707621EA0146301490000004015000
B0521413207984S11707556EA0147101490000004015000
B0521453207922S11707552EA0147001488000004015000
B0521493207884S11707596EA0146701482000004015000
B0521533207867S11707657EA0146101478000004015000
B0521573207857S11707722EA0146901487000004000000
B0522013207853S11707787EA0146501483000004000000
B0522053207870S11707837EA0146701484000004000000
B0522093207921S11707833EA0145801472000004000000
B0522133207956S11707759EA0144801464000004015000
B0522173207937S11707667EA0144201455000004015000
B0522213207872S11707607EA0143401446000004015000
B0522253207801S11707605EA0142601437000004015000
B0522293207753S11707652EA0141401421000004015000
B0522333207733S11707719EA0139401400000000015000
B0522373207740S11707791EA0137601388000000015000
B0522413207758S11707862EA0136701381000000000000
B0522453207781S11707929EA0136301378000000000000
B0522493207804S11707995EA0135901372000000000000
B0522533207827S11708063EA0135201365000000000000
B0522573207853S11708129EA0134701362000000000000
B0523013207879S11708198EA0134701364000000000000
B0523053207906S11708266EA0135901383000000000000
B0523093207935S11708327EA0137601396000000000000
B0523133207963S11708389EA0137601391000000000000
B0523173207989S11708458EA0136501375000000000000
B0523213208012S11708532EA0135001360000000000000
B0523253208032S11708608EA0133901353000000000000
B0523293208053S11708681EA0133001342000004000000
B0523333208071S11708753EA0131401324000000000000
B0523373208088S11708830EA0129801309000000000000
B0523413208108S11708905EA0128701295000000000000
B0523453208125S11708981EA0127401282000000000000
B0523493208140S11709055EA0126301272000000000000
B0523533208153S11709129EA0125601264000000000000
B0523573208170S11709202EA0125401269000000000000
B0524013208188S11709268EA0125201261000000000000
B0524053208203S11709338EA0125001263000000000000
B0524093208218S11709405EA0125601269000000000000
B0524133208234S11709466EA0126801286000000000000
B0524173208252S11709520EA0127701291000000000000
B0524213208275S11709578EA0127601291000000000000
B0524253208304S11709627EA0128401306000004000000
B0524293208337S11709669EA0129301307000004000000
B0524333208366S11709713EA0128701296000000000000
B0524373208394S11709763EA0127701289000000000000
B0524413208416S11709819EA0127001281000000000000
B0524453208416S11709882EA0126901283000004000000
B0524493208395S11709940EA0127201285000000000000
B0524533208369S11709994EA0127501287000000000000
B0524573208379S11710048EA0127101281000004000000
B0525013208429S11710081EA0126401274000004000000
B0525053208487S11710095EA0126001271000004000000
B0525093208548S11710101EA0125801271000004000000
B0525133208610S11710101EA0126301281000000000000
B0525173208658S11710060EA0127901297000000000000
B0525213208645S11709971EA0128801305000000000000
B0525253208577S11709927EA0129401305000000000000
B0525293208516S11709952EA0128701295000000000000
B0525333208508S11710008EA0128101288000000015000
B0525373208548S11710043EA0127501287000000015000
B0525413208606S11710053EA0127701290000000015000
B0525453208667S11710038EA0127501283000000000000
B0525493208730S11710003EA0126901280000000000000
B0525533208797S11709971EA0127401289000000000000
B0525573208864S11709971EA0128101294000004000000
B0526013208892S11710021EA0128501300000000000000
B0526053208845S11710053EA0129501314000000000000
B0526093208784S11710022EA0130001312000004000000
B0526133208742S11709945EA0129701314000004000000
B0526173208730S11709854EA0130801328000000000000
B0526213208772S11709804EA0132801354000000015000
B0526253208806S11709826EA0134601360000000015000
B0526293208789S11709867EA0134801360000004015000
B0526333208733S11709878EA0134701361000000015000
B0526373208671S11709839EA0134901366000004015000
B0526413208637S11709753EA0135601374000004000000
B0526453208652S11709663EA0136001375000000000000
B0526493208706S11709611EA0136501384000004000000
B0526533208753S11709631EA0137901400000000015000
B0526573208758S11709683EA0138701405000000015000
B0527013208715S11709723EA0138801405000000015000
B0527053208647S11709713EA0139101410000000000000
B0527093208594S11709644EA0139601415000004000000
B0527133208576S11709548EA0140001416000004000000
B0527173208599S11709455EA0140401427000004000000
B0527213208650S11709397EA0141501438000000000000
B0527253208706S11709388EA0142701450000004000000
B0527293208743S11709419EA0143701456000000015000
B0527333208738S11709466EA0144101460000000015000
B0527373208688S11709492EA0144301461000000000000
B0527413208620S11709468EA0144501466000000000000
B0527453208569S11709397EA0145101475000000000000
B0527493208560S11709305EA0146201489000004000000
B0527533208590S11709232EA0147401497000000000000
B0527573208643S11709195EA0147901498000000000000
B0528013208697S11709206EA0148201506000000015000
B0528053208725S11709246EA0148601507000000015000
B0528093208740S11709294EA0148601503000000000000
B0528133208737S11709350EA0148101500000000000000
B0528173208693S11709390EA0147901497000000000000
B0528213208623S11709376EA0147701496000000000000
B0528253208577S11709297EA0147001484000000000000
B0528293208589S11709197EA0146001480000000000000
B0528333208633S11709111EA0146001474000000000000
B0528373208684S11709029EA0145001464000000000000
B0528413208741S11708944EA0144001453000000000000
B0528453208802S11708863EA0142801438000000000000
B0528493208866S11708777EA0141701430000000000000
B0528533208922S11708687EA0141401430000000000000
B0528573208967S11708592EA0141401428000000000000
B0529013208998S11708487EA0140701419000000000000
B0529053209011S11708371EA0140201415000000000000
B0529093209014S11708253EA0141001426000000000000
B0529133209010S11708137EA0141201423000000000000
B0529173208998S11708023EA0141001421000000000000
B0529213208988S11707908EA0140101408000000000000
B0529253208975S11707794EA0139301405000000000000
B0529293208962S11707683EA0138901400000004000000
B0529333208948S11707572EA0138701399000004000000
B0529373208936S11707462EA0138701402000000000000
B0529413208925S11707353EA0138601398000004000000
B0529453208918S11707241EA0138001393000000000000
B0529493208910S11707130EA0137901393000000000000
B0529533208903S11707017EA0138101395000004000000
B0529573208897S11706903EA0137901392000000000000
B0530013208888S11706793EA0137801391000000000000
B0530053208875S11706681EA0136901377000000000000
B0530093208863S11706568EA0135401363000000000000
B0530133208849S11706456EA0134701359000004000000
B0530173208834S11706347EA0134101351000004000000
B0530213208824S11706237EA0132901339000004000000
B0530253208806S11706126EA0131901331000004000000
B0530293208781S11706017EA0131801332000004000000
B0530333208751S11705915EA0132601345000004000000
B0530373208723S11705815EA0134101361000000000000
B0530413208691S11705720EA0136001381000004000000
B0530453208625S11705674EA0138001396000004000000
B0530493208572S11705706EA0138201395000000000000
B0530533208576S11705763EA0138501400000000000000
B0530573208620S11705791EA0138701398000000015000
B0531013208682S11705774EA0138901406000000015000
B0531053208734S11705717EA0140201420000000015000
B0531093208768S11705629EA0141001429000000015000
B0531133208772S11705532EA0142301442000000015000
B0531173208721S11705463EA0143601455000004015000
B0531213208664S11705476EA0144401460000000015000
B0531253208645S11705529EA0144701466000000015000
B0531293208671S11705572EA0146101483000000015000
B0531333208721S11705570EA0147801497000000015000
B0531373208769S11705515EA0148601498000004015000
B0531413208776S11705425EA0148001492000000015000
B0531453208738S11705345EA0148001495000000015000
B0531493208671S11705304EA0148101498000000015000
B0531533208607S11705319EA0148201499000000015000
B0531573208571S11705369EA0148801511000004015000
B0532013208569S11705425EA0150101527000000015000
B0532053208598S11705463EA0152101549000000015000
B0532093208646S11705457EA0154101564000004015000
B0532133208680S11705385EA0154201554000000015000
B0532173208685S11705281EA0152301535000000015000
B0532213208672S11705167EA0151801540000000000000
B0532253208652S11705055EA0152201539000000000000
B0532293208626S11704942EA0151001522000004000000
B0532333208602S11704825EA0149701511000004000000
B0532373208577S11704708EA0148701502000000000000
B0532413208551S11704593EA0147601490000000000000
B0532453208529S11704478EA0146801483000000000000
B0532493208506S11704365EA0146701485000004000000
B0532533208483S11704250EA0146401481000004000000
B0532573208468S11704133EA0146101477000000000000
B0533013208456S11704015EA0146701493000000000000
B0533053208441S11703904EA0148201504000000000000
B0533093208421S11703798EA0148901509000000000000
B0533133208396S11703694EA0149001509000000000000
B0533173208369S11703591EA0149001510000000000000
B0533213208342S11703486EA0148901506000000000000
B0533253208309S11703382EA0149801523000000000000
B0533293208256S11703301EA0151201528000004000000
B0533333208184S11703299EA0152101543000000000000
B0533373208157S11703354EA0153501557000000000000
B0533413208184S11703400EA0154801570000004000000
B0533453208242S11703395EA0156101584000004015000
B0533493208285S11703330EA0157401602000004015000
B0533533208279S11703237EA0158401607000004015000
B0533573208223S11703169EA0159101614000000015000
B0534013208162S11703171EA0160201632000004015000
B0534053208147S11703215EA0161401639000000015000
B0534093208183S11703241EA0162501655000000015000
B0534133208230S11703206EA0164501677000000015000
B0534173208242S11703127EA0165801680000000015000
B0534213208197S11703055EA0166201689000000015000
B0534253208136S11703050EA0166701690000004015000
B0534293208118S11703097EA0167401703000004015000
B0534333208147S11703127EA0168801719000000015000
B0534373208195S11703115EA0170401730000000015000
B0534413208238S11703071EA0171201734000004015000
B0534453208264S11702997EA0171101735000004015000
B0534493208264S11702906EA0171201734000004015000
B0534533208249S11702808EA0171001727000004000000
B0534573208231S11702704EA0169601713000004000000
B0535013208213S11702597EA0168101698000000000000
B0535053208197S11702485EA0166701683000000000000
B0535093208178S11702373EA0165601677000000000000
B0535133208157S11702260EA0165401677000000000000
B0535173208136S11702149EA0166201690000000000000
B0535213208112S11702041EA0167801707000000000000
B0535253208086S11701935EA0169401723000004000000
B0535293208053S11701833EA0170801738000004000000
B0535333208021S11701733EA0171801748000004000000
B0535373207989S11701629EA0172101748000000000000
B0535413207962S11701520EA0171601740000004000000
B0535453207939S11701406EA0170901729000004000000
B0535493207915S11701290EA0169901718000000000000
B0535533207893S11701177EA0169401719000000000000
B0535573207872S11701065EA0169501716000000000000
B0536013207848S11700952EA0169201717000000000000
B0536053207823S11700835EA0170001729000000000000
B0536093207800S11700722EA0171201741000004000000
B0536133207775S11700610EA0170501722000004000000
B0536173207753S11700492EA0169201713000004000000
B0536213207733S11700374EA0169201717000004000000
B0536253207718S11700257EA0170501732000004000000
B0536293207705S11700141EA0170901735000004000000
B0536333207687S11700021EA0170501725000004000000
B0536373207667S11659904EA0170101727000004000000
B0536413207642S11659791EA0170101725000004000000
B0536453207615S11659678EA0169501717000004000000
B0536493207590S11659566EA0169101714000004000000
B0536533207567S11659456EA0168701710000004000000
B0536573207544S11659347EA0169301719000000000000
B0537013207523S11659241EA0170801740000004000000
B0537053207510S11659136EA0172901760000000000000
B0537093207486S11659036EA0174001765000000000000
B0537133207423S11658973EA0173501757000004000000
B0537173207352S11658984EA0172401736000004000000
B0537213207334S11659051EA0170601726000004000000
B0537253207371S11659106EA0170601740000000000000
B0537293207430S11659127EA0172401760000000015000
B0537333207495S11659102EA0174201774000000015000
B0537373207551S11659035EA0175501784000000015000
B0537413207579S11658927EA0176101787000004015000
B0537453207573S11658808EA0176201790000000015000
B0537493207545S11658694EA0176201786000000015000
B0537533207511S11658581EA0176201788000004000000
B0537573207476S11658469EA0175901784000000000000
B0538013207437S11658362EA0176301790000000000000
B0538053207399S11658257EA0176901797000000000000
B0538093207364S11658152EA0178201812000000000000
B0538133207326S11658049EA0179001820000000000000
B0538173207291S11657941EA0179901830000004000000
B0538213207254S11657832EA0180501834000004000000
B0538253207212S11657720EA0180401830000004000000
B0538293207170S11657608EA0179801821000000000000
B0538333207131S11657494EA0178701814000000000000
B0538373207095S11657378EA0177901802000004000000
B0538413207056S11657261EA0176601788000000000000
B0538453207009S11657147EA0175201774000000000000
B0538493206959S11657033EA0174201766000004000000
B0538533206920S11656916EA0174401771000004000000
B0538573206901S11656796EA0174801778000004000000
B0539013206899S11656682EA0175401785000004000000
B0539053206909S11656575EA0175901787000004000000
B0539093206922S11656472EA0176201790000000000000
B0539133206933S11656370EA0176801798000000000000
B0539173206917S11656271EA0178101813000000000000
B0539213206864S11656211EA0179701827000000000000
B0539253206806S11656217EA0180601834000004000000
B0539293206795S11656271EA0180601832000004000000
B0539333206832S11656316EA0180201827000004015000
B0539373206897S11656336EA0179801823000000015000
B0539413206969S11656350EA0179101815000004000000
B0539453207035S11656384EA0178701810000004000000
B0539493207076S11656450EA0178101804000000000000
B0539533207098S11656529EA0177301794000000000000
B0539573207117S11656614EA0175701776000000000000
B0540013207141S11656698EA0174901772000000000000
B0540053207170S11656778EA0173901760000004000000
B0540093207209S11656852EA0172601749000004000000
B0540133207248S11656926EA0172101748000004000000
B0540173207285S11656999EA0171601737000004000000
B0540213207324S11657073EA0171101740000004000000
B0540253207359S11657135EA0173101776000004000000
B0540293207401S11657181EA0176201800000004000000
B0540333207462S11657165EA0178401821000000000000
B0540373207495S11657090EA0179901834000000015000
B0540413207471S11657013EA0180801834000004015000
B0540453207412S11656981EA0180201824000000015000
B0540493207364S11657014EA0179501823000000015000
B0540533207346S11657078EA0179901829000000015000
B0540573207354S11657144EA0181101845000000015000
B0541013207391S11657200EA0182201853000000015000
B0541053207453S11657224EA0181901843000000015000
B0541093207521S11657191EA0181201837000000015000
B0541133207568S11657108EA0179901820000000015000
B0541173207593S11657003EA0178101802000000015000
B0541213207588S11656890EA0176801782000000015000
B0541253207538S11656792EA0175001766000000015000
B0541293207459S11656739EA0173801762000000015000
B0541333207375S11656722EA0173601764000000015000
B0541373207312S11656760EA0174801780000000015000
B0541413207281S11656825EA0176201795000000000000
B0541453207263S11656891EA0177801812000000000000
B0541493207256S11656958EA0179101823000000000000
B0541533207260S11657025EA0180201834000000000000
B0541573207267S11657092EA0180101829000004000000
B0542013207276S11657165EA0179901828000004000000
B0542053207282S11657242EA0179101814000004000000
B0542093207289S11657320EA0177901805000004000000
B0542133207297S11657398EA0177101794000004000000
B0542173207304S11657476EA0176301789000004000000
B0542213207308S11657554EA0176001785000000000000
B0542253207313S11657632EA0175701784000000000000
B0542293207317S11657710EA0175101776000004000000
B0542333207321S11657788EA0174301769000004000000
B0542373207323S11657863EA0174501773000004000000
B0542413207323S11657939EA0174401770000004000000
B0542453207317S11658014EA0174001765000004000000
B0542493207315S11658091EA0173401757000000000000
B0542533207310S11658170EA0172401748000000000000
B0542573207300S11658249EA0171501738000000000000
B0543013207294S11658329EA0170801733000000000000
B0543053207289S11658407EA0170301727000000000000
B0543093207284S11658485EA0169401717000000000000
B0543133207280S11658565EA0168701712000000000000
B0543173207274S11658647EA0168601714000004000000
B0543213207277S11658729EA0168601711000004000000
B0543253207276S11658812EA0168401709000004000000
B0543293207271S11658894EA0168201703000004000000
B0543333207272S11658977EA0168301712000000000000
B0543373207280S11659059EA0168401705000000000000
B0543413207294S11659145EA0167801707000000000000
B0543453207313S11659224EA0169801733000000000000
B0543493207330S11659297EA0171701749000000000000
B0543533207342S11659365EA0171901745000000000000
B0543573207351S11659434EA0171301738000000000000
B0544013207360S11659501EA0170901734000000000000
B0544053207367S11659569EA0170401727000000000000
B0544093207375S11659638EA0169701720000000000000
B0544133207377S11659709EA0168901711000000000000
B0544173207381S11659781EA0168701715000004000000
B0544213207384S11659850EA0169501723000004000000
B0544253207380S11659920EA0170601737000004000000
B0544293207380S11659991EA0171601741000004000000
B0544333207385S11700065EA0170901731000004000000
B0544373207395S11700145EA0169401717000000000000
B0544413207406S11700225EA0168601707000000000000
B0544453207414S11700309EA0166501684000004000000
B0544493207421S11700392EA0165301673000000000000
B0544533207436S11700467EA0165601682000000000000
B0544573207453S11700535EA0166501694000004000000
B0545013207472S11700597EA0168001712000000000000
B0545053207501S11700653EA0170001737000000000000
B0545093207553S11700673EA0172601758000000000000
B0545133207601S11700608EA0174301771000000000000
B0545173207589S11700506EA0175201778000000015000
B0545213207533S11700435EA0176601800000000015000
B0545253207466S11700432EA0178401818000000015000
B0545293207436S11700483EA0179701829000000015000
B0545333207460S11700539EA0180401833000000015000
B0545373207525S11700545EA0181601853000000015000
B0545413207577S11700488EA0183701875000000015000
B0545453207572S11700398EA0185701889000000030000
B0545493207519S11700340EA0186101889000000030000
B0545533207456S11700362EA0186301895000000015000
B0545573207440S11700431EA0187401907000000015000
B0546013207445S11700507EA0187101898000000015000
B0546053207432S11700597EA0186701897000000015000
B0546093207412S11700692EA0185601879000000015000
B0546133207388S11700797EA0184601876000000015000
B0546173207360S11700887EA0187301912000000015000
B0546213207338S11700966EA0188601912000000015000
B0546253207319S11701048EA0187901903000000000000
B0546293207302S11701129EA0187201894000000000000
B0546333207285S11701212EA0185401873000000000000
B0546373207268S11701302EA0183101850000000000000
B0546413207250S11701393EA0181101830000000000000
B0546453207235S11701485EA0181101842000000000000
B0546493207224S11701570EA0182001849000000000000
B0546533207219S11701649EA0181501841000000000000
B0546573207215S11701731EA0180101822000004000000
B0547013207242S11701804EA0178901809000004000000
B0547053207302S11701848EA0177401793000004000000
B0547093207373S11701863EA0176501793000004000000
B0547133207446S11701863EA0177001799000004000000
B0547173207519S11701853EA0177901808000004000000
B0547213207588S11701831EA0178801817000004000000
B0547253207641S11701772EA0179801830000000000000
B0547293207645S11701676EA0181101839000000000000
B0547333207596S11701593EA0182001849000000015000
B0547373207524S11701560EA0183101862000004015000
B0547413207458S11701581EA0183601859000004015000
B0547453207425S11701641EA0183401859000004015000
B0547493207421S11701711EA0183601861000004015000
B0547533207433S11701781EA0183401858000004015000
B0547573207451S11701852EA0183401859000004000000
B0548013207471S11701923EA0183301854000004000000
B0548053207481S11701999EA0182701851000004000000
B0548093207482S11702077EA0182501850000000000000
B0548133207482S11702152EA0182201845000004000000
B0548173207484S11702225EA0181501836000004000000
B0548213207488S11702301EA0180001819000004000000
B0548253207493S11702381EA0179201812000004000000
B0548293207498S11702459EA0178501807000004000000
B0548333207499S11702538EA0178301803000000000000
B0548373207501S11702617EA0177601789000000000000
B0548413207503S11702697EA0176501780000000000000
B0548453207516S11702768EA0175801780000000000000
B0548493207533S11702834EA0176201785000000000000
B0548533207550S11702897EA0176701788000000000000
B0548573207568S11702959EA0176801791000000000000
B0549013207593S11703019EA0176801791000000000000
B0549053207622S11703080EA0176701790000004000000
B0549093207650S11703146EA0177001796000000000000
B0549133207681S11703210EA0178101811000000000000
B0549173207713S11703274EA0179301821000000000000
B0549213207746S11703335EA0181101841000000000000
B0549253207804S11703348EA0182801859000000000000
B0549293207840S11703288EA0184201873000000000000
B0549333207827S11703210EA0185601890000000015000
B0549373207771S11703167EA0187201906000000015000
B0549413207713S11703191EA0188701920000000015000
B0549453207698S11703254EA0190301936000000015000
B0549493207733S11703293EA0191601946000004015000
B0549533207783S11703270EA0192001947000000015000
B0549573207797S11703197EA0192401954000000015000
B0550013207765S11703130EA0193501969000004015000
B0550053207702S11703098EA0194601977000004015000
B0550093207640S11703124EA0195501985000000015000
B0550133207614S11703192EA0196001988000000015000
B0550173207646S11703247EA0196301991000000015000
B0550213207707S11703236EA0195901984000000015000
B0550253207746S11703174EA0196101990000004030000
B0550293207736S11703097EA0196801995000004030000
B0550333207681S11703045EA0197402005000004030000
B0550373207607S11703031EA0198402016000004015000
B0550413207540S11703058EA0199002019000000015000
B0550453207493S11703120EA0198802013000000015000
B0550493207477S11703204EA0198002000000000015000
B0550533207476S11703292EA0196801990000000015000
B0550573207484S11703378EA0195401971000000015000
B0551013207498S11703471EA0193301949000000000000
B0551053207516S11703574EA0191401931000000000000
B0551093207529S11703673EA0191601955000000000000
B0551133207534S11703756EA0194401981000000000000
B0551173207544S11703832EA0194901972000000000000
B0551213207558S11703910EA0194701976000000000000
B0551253207571S11703985EA0195301984000000000000
B0551293207573S11704060EA0195901986000000000000
B0551333207584S11704134EA0196501995000000000000
B0551373207610S11704196EA0197702010000000000000
B0551413207644S11704248EA0197601999000000000000
B0551453207694S11704289EA0195801981000004000000
B0551493207765S11704296EA0194601971000000000000
B0551533207835S11704267EA0194201967000004000000
B0551573207895S11704209EA0193501957000004000000
B0552013207940S11704127EA0193001955000004000000
B0552053207956S11704030EA0193001958000004000000
B0552093207934S11703934EA0193201958000004000000
B0552133207874S11703865EA0192801955000004015000
B0552173207796S11703841EA0192501949000004015000
B0552213207720S11703855EA0191601941000004015000
B0552253207645S11703880EA0190501927000004000000
B0552293207560S11703891EA0189801925000004000000
B0552333207479S11703895EA0189901931000004000000
B0552373207399S11703902EA0190501939000004000000
B0552413207334S11703934EA0190801934000004000000
B0552453207280S11703984EA0190201925000004000000
B0552493207219S11704033EA0188901908000004000000
B0552533207148S11704075EA0188101904000000000000
B0552573207078S11704112EA0187701900000000000000
B0553013207007S11704142EA0187301898000004000000
B0553053206934S11704159EA0187201894000004000000
B0553093206858S11704163EA0186001880000004000000
B0553133206778S11704151EA0184801869000000000000
B0553173206697S11704132EA0184001863000004000000
B0553213206618S11704106EA0183501863000004000000
B0553253206543S11704079EA0183401860000004000000
B0553293206468S11704050EA0182901854000004000000
B0553333206394S11704020EA0181801840000004000000
B0553373206319S11703990EA0180601830000004000000
B0553413206245S11703958EA0180101827000004000000
B0553453206171S11703924EA0179801825000000000000
B0553493206097S11703893EA0179201820000004000000
B0553533206023S11703863EA0178901816000004000000
B0553573205950S11703828EA0178401810000000000000
B0554013205877S11703791EA0178001807000004000000
B0554053205803S11703755EA0177801804000004000000
B0554093205731S11703720EA0177501802000004000000
B0554133205657S11703686EA0177001796000000000000
B0554173205583S11703652EA0176601791000000000000
B0554213205510S11703618EA0175601780000000000000
B0554253205436S11703586EA0174701773000000000000
B0554293205361S11703561EA0174701776000000000000
B0554333205287S11703543EA0175301782000000000000
B0554373205215S11703536EA0175801787000004000000
B0554413205155S11703559EA0176301793000004000000
B0554453205129S11703613EA0177101800000004000000
B0554493205150S11703661EA0177901803000004000000
B0554533205207S11703651EA0178001801000000000000
B0554573205253S11703581EA0177901796000000000000
B0555013205254S11703481EA0177401793000000015000
B0555053205211S11703387EA0177001793000000015000
B0555093205149S11703313EA0177201797000000000000
B0555133205080S11703249EA0177501799000000000000
B0555173205005S11703200EA0178401813000000000000
B0555213204932S11703193EA0180101826000000000000
B0555253204906S11703249EA0180601821000004000000
B0555293204950S11703297EA0180101819000000000000
B0555333205020S11703274EA0180801837000000015000
B0555373205057S11703192EA0182701856000000015000
B0555413205048S11703093EA0183501859000000015000
B0555453204998S11703007EA0183301857000000015000
B0555493204934S11702936EA0182901856000000015000
B0555533204869S11702866EA0182701848000000000000
B0555573204825S11702771EA0181501837000000000000
B0556013204804S11702663EA0180701830000000000000
B0556053204802S11702552EA0180201826000000000000
B0556093204806S11702448EA0181401843000004000000
B0556133204802S11702352EA0182001848000004000000
B0556173204798S11702259EA0181901841000000000000
B0556213204791S11702165EA0181401837000000000000
B0556253204784S11702073EA0181001834000004000000
B0556293204777S11701980EA0180101822000000000000
B0556333204767S11701883EA0179001810000000000000
B0556373204759S11701783EA0178201801000004000000
B0556413204749S11701679EA0177301793000000000000
B0556453204732S11701573EA0177201795000000000000
B0556493204713S11701472EA0177101791000000000000
B0556533204693S11701376EA0176701785000000000000
B0556573204672S11701284EA0176301784000000000000
B0557013204650S11701198EA0176001781000000000000
B0557053204624S11701115EA0175401776000004000000
B0557093204603S11701030EA0175201774000004000000
B0557133204582S11700943EA0174701764000004000000
B0557173204561S11700852EA0173901758000000000000
B0557213204538S11700760EA0173501752000004000000
B0557253204507S11700666EA0172801747000004000000
B0557293204474S11700570EA0172501744000004000000
B0557333204443S11700472EA0172301743000004000000
B0557373204418S11700375EA0172201743000004000000
B0557413204395S11700277EA0172301741000004000000
B0557453204370S11700182EA0172001736000004000000
B0557493204344S11700085EA0170801723000000000000
B0557533204316S11659984EA0169501709000000000000
B0557573204288S11659880EA0168201696000000000000
B0558013204264S11659773EA0167401688000000000000
B0558053204236S11659668EA0168901715000000000000
B0558093204195S11659581EA0172201747000000000000
B0558133204126S11659560EA0174101773000000000000
B0558173204086S11659604EA0175701782000000000000
B0558213204106S11659643EA0176901801000004000000
B0558253204148S11659620EA0178701816000004000000
B0558293204167S11659547EA0179701824000004015000
B0558333204136S11659462EA0180401832000000015000
B0558373204070S11659408EA0181201838000004015000
B0558413203992S11659402EA0181901849000000015000
B0558453203930S11659441EA0183401862000000015000
B0558493203909S11659503EA0184801874000000000000
B0558533203939S11659547EA0185201872000000000000
B0558573203996S11659551EA0184401863000000000000
B0559013204058S11659516EA0184201867000000000000
B0559053204114S11659465EA0185001875000000000000
B0559093204141S11659376EA0186301895000000000000
B0559133204114S11659283EA0188101921000000000000
B0559173204053S11659223EA0190101936000000015000
B0559213203982S11659204EA0191301946000000015000
B0559253203927S11659243EA0191901939000000015000
B0559293203933S11659309EA0191501939000000000000
B0559333203992S11659322EA0191901946000004015000
B0559373204039S11659259EA0192901956000004015000
B0559413204045S11659163EA0193801969000004015000
B0559453204036S11659064EA0194901977000004000000
B0559493204021S11658966EA0195101975000000000000
B0559533203996S11658863EA0194001957000000000000
B0559573203967S11658759EA0192401944000004000000
B0600013203943S11658654EA0192001944000000000000
B0600053203919S11658550EA0192001944000004000000
B0600093203893S11658447EA0191701940000004000000
B0600133203868S11658344EA0191401938000004000000
B0600173203846S11658243EA0191401939000004000000
B0600213203827S11658141EA0191601941000004000000
B0600253203811S11658043EA0191201933000000000000
B0600293203793S11657940EA0190401928000000000000
B0600333203775S11657835EA0189801923000000000000
B0600373203757S11657732EA0190201931000004000000
B0600413203740S11657636EA0191001938000000000000
B0600453203727S11657545EA0191401940000000000000
B0600493203714S11657456EA0191401940000000000000
B0600533203699S11657368EA0191401939000000000000
B0600573203677S11657278EA0191101935000000000000
B0601013203654S11657185EA0190801933000000000000
B0601053203633S11657094EA0191001937000000000000
B0601093203611S11657005EA0191201938000000000000
B0601133203582S11656918EA0191101935000004000000
B0601173203553S11656832EA0190601931000004000000
B0601213203520S11656747EA0190301929000004000000
B0601253203486S11656662EA0190301925000000000000
B0601293203450S11656579EA0188401902000004000000
B0601333203406S11656492EA0186101878000004000000
B0601373203365S11656396EA0185101871000000000000
B0601413203330S11656294EA0184901868000000000000
B0601453203295S11656191EA0184501867000000000000
B0601493203254S11656094EA0184401865000000000000
B0601533203211S11655998EA0184001861000004000000
B0601573203170S11655903EA0183901863000000000000
B0602013203147S11655809EA0184201864000000000000
B0602053203131S11655714EA0183701855000004000000
B0602093203116S11655616EA0182901850000004000000
B0602133203094S11655518EA0182801850000004000000
B0602173203066S11655426EA0182901853000004000000
B0602213203038S11655339EA0183401858000000000000
B0602253203008S11655254EA0183101854000004000000
B0602293202973S11655166EA0182201839000004000000
B0602333202942S11655066EA0181101828000000000000
B0602373202913S11654959EA0180301821000000000000
B0602413202883S11654847EA0179001804000000000000
B0602453202851S11654733EA0178001799000004000000
B0602493202818S11654624EA0178301805000000000000
B0602533202784S11654520EA0178401805000000000000
B0602573202748S11654417EA0177901798000004000000
B0603013202708S11654312EA0177401793000004000000
B0603053202667S11654208EA0177401800000000000000
B0603093202631S11654110EA0179701824000000000000
B0603133202594S11654018EA0181101835000000000000
B0603173202533S11653953EA0181601838000004000000
B0603213202462S11653953EA0181801841000000000000
B0603253202418S11654004EA0181401830000004000000
B0603293202418S11654067EA0180601826000004000000
B0603333202464S11654104EA0180101822000004000000
B0603373202529S11654093EA0180101822000004000000
B0603413202588S11654041EA0180501830000000000000
B0603453202626S11653958EA0181201836000000000000
B0603493202639S11653855EA0181001829000000000000
B0603533202624S11653744EA0180401824000004000000
B0603573202600S11653628EA0180301823000004000000
B0604013202571S11653512EA0180301822000004000000
B0604053202539S11653394EA0180101818000000000000
B0604093202506S11653273EA0179501812000000000000
B0604133202475S11653152EA0179101811000000000000
B0604173202444S11653032EA0178601802000000000000
B0604213202415S11652913EA0177201784000004000000
B0604253202384S11652791EA0175701772000000000000
B0604293202350S11652670EA0175001767000000000000
B0604333202316S11652551EA0175001769000000000000
B0604373202282S11652433EA0174501761000000000000
B0604413202247S11652316EA0173701752000000000000
B0604453202208S11652199EA0173301749000000000000
B0604493202168S11652086EA0173701761000000000000
B0604533202129S11651978EA0174901769000000000000
B0604573202090S11651872EA0174801765000000000000
B0605013202046S11651765EA0174001755000000000000
B0605053202003S11651653EA0173201749000004000000
B0605093201957S11651541EA0172901746000000000000
B0605133201908S11651431EA0172301740000004000000
B0605173201855S11651323EA0171801736000000000000
B0605213201803S11651218EA0172401746000004000000
B0605253201751S11651114EA0172901750000000000000
B0605293201697S11651012EA0173101752000000000000
B0605333201643S11650911EA0172501736000000000000
B0605373201590S11650803EA0171701733000000000000
B0605413201538S11650691EA0171301731000000000000
B0605453201491S11650582EA0171801740000000000000
B0605493201449S11650477EA0173001756000000000000
B0605533201413S11650377EA0174001765000000000000
B0605573201380S11650282EA0174501765000000000000
B0606013201349S11650184EA0173901757000000000000
B0606053201317S11650087EA0174101764000000000000
B0606093201287S11649994EA0175701782000004000000
B0606133201257S11649911EA0177401799000004000000
B0606173201201S11649857EA0178001802000004000000
B0606213201133S11649853EA0177801797000004000000
B0606253201089S11649899EA0177701801000004000000
B0606293201088S11649963EA0178301808000004000000
B0606333201123S11650010EA0179201819000000000000
B0606373201179S11650018EA0179801819000004000000
B0606413201233S11649970EA0179801823000000015000
B0606453201271S11649893EA0180401832000000000000
B0606493201276S11649801EA0181301839000000000000
B0606533201242S11649708EA0181501839000000000000
B0606573201177S11649642EA0181401836000000000000
B0607013201098S11649617EA0181401838000000015000
B0607053201028S11649638EA0182801855000000000000
B0607093200998S11649694EA0183501858000000000000
B0607133201019S11649754EA0183401859000000000000
B0607173201076S11649784EA0183701860000000000000
B0607213201144S11649766EA0183901860000000000000
B0607253201190S11649694EA0183901863000000000000
B0607293201198S11649591EA0184501872000000000000
B0607333201162S11649495EA0184901870000000000000
B0607373201096S11649429EA0184201861000000000000
B0607413201020S11649373EA0184201870000000000000
B0607453200942S11649325EA0186201893000000000000
B0607493200873S11649338EA0188901921000000000000
B0607533200882S11649395EA0191401949000004000000
B0607573200937S11649389EA0193701971000004000000
B0608013200969S11649321EA0195301982000000015000
B0608053200955S11649236EA0195901987000004015000
B0608093200903S11649181EA0196601998000004015000
B0608133200839S11649183EA0198002017000004015000
B0608173200808S11649234EA0199302022000000000000
B0608213200834S11649288EA0200302037000000000000
B0608253200893S11649301EA0201502042000000000000
B0608293200956S11649260EA0201802048000004015000
B0608333200999S11649178EA0201702040000004015000
B0608373201020S11649071EA0200502026000000015000
B0608413201031S11648960EA0199702021000000000000
B0608453201033S11648844EA0198902013000004000000
B0608493201032S11648727EA0198202005000004000000
B0608533201033S11648614EA0198102009000000000000
B0608573201037S11648506EA0198202008000000000000
B0609013201046S11648399EA0197701999000000000000
B0609053201062S11648291EA0196801989000000000000
B0609093201084S11648185EA0195801976000000000000
B0609133201110S11648078EA0195201977000004000000
B0609173201140S11647977EA0194901971000004000000
B0609213201183S11647883EA0194301969000004000000
B0609253201235S11647797EA0194201967000004000000
B0609293201296S11647725EA0194201969000000000000
B0609333201359S11647666EA0194401971000004000000
B0609373201421S11647609EA0195501991000004000000
B0609413201456S11647532EA0197702010000000000000
B0609453201439S11647442EA0198902016000000000000
B0609493201376S11647387EA0198702012000004000000
B0609533201300S11647387EA0198402011000004000000
B0609573201245S11647435EA0198202003000004000000
B0610013201244S11647506EA0196901986000004000000
B0610053201280S11647570EA0195801979000004000000
B0610093201327S11647630EA0195001969000004000000
B0610133201379S11647691EA0193901962000000000000
B0610173201431S11647756EA0193701960000000000000
B0610213201480S11647826EA0193501959000004000000
B0610253201527S11647900EA0193301955000000000000
B0610293201575S11647975EA0192501942000000000000
B0610333201625S11648050EA0191301934000000000000
B0610373201673S11648122EA0190301924000000000000
B0610413201720S11648198EA0189401915000000000000
B0610453201768S11648271EA0188301901000000000000
B0610493201820S11648346EA0186901889000000000000
B0610533201868S11648423EA0186301882000000000000
B0610573201916S11648501EA0184801863000000000000
B0611013201968S11648579EA0184001861000000000000
B0611053202019S11648654EA0184101860000000000000
B0611093202065S11648729EA0184001862000000000000
B0611133202107S11648802EA0184301862000000000000
B0611173202149S11648872EA0183601854000004000000
B0611213202188S11648945EA0183101850000004000000
B0611253202230S11649014EA0183401858000000000000
B0611293202273S11649078EA0183901862000004000000
B0611333202318S11649140EA0183801859000004000000
B0611373202360S11649207EA0183901864000004000000
B0611413202401S11649272EA0184201862000004000000
B0611453202438S11649347EA0182801844000000000000
B0611493202477S11649425EA0182401845000000000000
B0611533202515S11649499EA0182701853000000000000
B0611573202550S11649565EA0183401854000000000000
B0612013202588S11649633EA0182501839000000000000
B0612053202632S11649702EA0181701836000000000000
B0612093202680S11649771EA0181801838000000000000
B0612133202734S11649832EA0181901839000000000000
B0612173202789S11649884EA0181901842000000000000
B0612213202844S11649927EA0182401844000000000000
B0612253202901S11649966EA0181401832000000000000
B0612293202961S11650005EA0180601827000000000000
B0612333203017S11650045EA0180301822000000000000
B0612373203072S11650088EA0179501810000004000000
B0612413203125S11650131EA0179301820000004000000
B0612453203172S11650174EA0180201823000004000000
B0612493203220S11650218EA0179901819000000000000
B0612533203268S11650261EA0180001821000004000000
B0612573203319S11650300EA0179501816000000000000
B0613013203369S11650341EA0179101808000004000000
B0613053203425S11650382EA0178001797000000000000
B0613093203485S11650421EA0177201790000004000000
B0613133203547S11650456EA0176801787000004000000
B0613173203608S11650488EA0177001793000004000000
B0613213203673S11650501EA0178001801000004000000
B0613253203742S11650475EA0178401804000000000000
B0613293203814S11650464EA0178701805000000000000
B0613333203872S11650503EA0178401804000000000000
B0613373203900S11650574EA0178401804000000000000
B0613413203915S11650653EA0178401804000000000000
B0613453203932S11650737EA0177901793000004000000
B0613493203952S11650825EA0176601779000000000000
B0613533203974S11650916EA0175301762000004000000
B0613573203993S11651010EA0174501762000000000000
B0614013204011S11651099EA0174001753000000000000
B0614053204031S11651188EA0172801741000004000000
B0614093204048S11651277EA0171901731000004000000
B0614133204061S11651366EA0170801721000000000000
B0614173204073S11651453EA0170001713000000000000
B0614213204084S11651541EA0168901702000004000000
B0614253204099S11651631EA0168001694000000000000
B0614293204113S11651716EA0167801696000000000000
B0614333204130S11651797EA0167601694000004000000
B0614373204148S11651877EA0167201687000004000000
B0614413204166S11651955EA0166701683000004000000
B0614453204184S11652033EA0166001675000004000000
B0614493204203S11652112EA0165501672000004000000
B0614533204218S11652191EA0165501669000004000000
B0614573204239S11652268EA0165001666000004000000
B0615013204258S11652343EA0165101668000000000000
B0615053204277S11652418EA0165001664000000000000
B0615093204292S11652494EA0164401658000004000000
B0615133204304S11652570EA0164501662000004000000
B0615173204314S11652642EA0164401659000000000000
B0615213204325S11652717EA0163601648000004000000
B0615253204334S11652793EA0162601636000000000000
B0615293204346S11652869EA0162201636000000000000
B0615333204364S11652943EA0162301644000004000000
B0615373204381S11653013EA0162901646000004000000
B0615413204399S11653084EA0163201648000004000000
B0615453204412S11653161EA0162701640000004000000
B0615493204421S11653239EA0161501627000004000000
B0615533204437S11653318EA0160601620000000000000
B0615573204447S11653398EA0162001644000000000000
B0616013204456S11653469EA0163601658000000000000
B0616053204469S11653537EA0164401668000000000000
B0616093204489S11653601EA0165401676000000000000
B0616133204509S11653668EA0165601673000004000000
B0616173204526S11653741EA0165001664000000000000
B0616213204543S11653822EA0164101656000000000000
B0616253204559S11653903EA0163901655000000000000
B0616293204572S11653987EA0163801655000000000000
B0616333204586S11654069EA0163901653000004000000
B0616373204598S11654149EA0163101647000004000000
B0616413204609S11654232EA0162901645000000000000
B0616453204624S11654317EA0162201631000004000000
B0616493204635S11654407EA0160601611000004000000
B0616533204650S11654498EA0159101601000004000000
B0616573204667S11654586EA0158201596000004000000
B0617013204689S11654672EA0158301598000004000000
B0617053204717S11654750EA0158101595000004000000
B0617093204747S11654829EA0157401584000000000000
B0617133204778S11654907EA0156301566000004000000
B0617173204807S11654992EA0154201544000004000000
B0617213204833S11655076EA0153101543000004000000
B0617253204855S11655155EA0153801558000004000000
B0617293204869S11655229EA0155001564000004000000
B0617333204886S11655301EA0155301567000000000000
B0617373204907S11655372EA0156001581000000000000
B0617413204925S11655439EA0157001584000004000000
B0617453204945S11655505EA0157301587000004000000
B0617493204970S11655565EA0159101610000004000000
B0617533205023S11655574EA0161101643000004000000
B0617573205049S11655508EA0164901673000004000000
B0618013205025S11655431EA0165301665000004000000
B0618053204957S11655391EA0164501658000004000000
B0618093204889S11655409EA0165201673000000000000
B0618133204853S11655457EA0166401689000000000000
B0618173204864S11655506EA0167801706000004000000
B0618213204916S11655499EA0170201734000004000000
B0618253204949S11655431EA0172601754000004015000
B0618293204934S11655341EA0174001760000004015000
B0618333204868S11655280EA0174301767000000015000
B0618373204790S11655281EA0175701785000000015000
B0618413204734S11655324EA0177101795000000000000
B0618453204716S11655388EA0178101804000000000000
B0618493204746S11655437EA0179001813000000000000
B0618533204806S11655427EA0180301831000000000000
B0618573204846S11655354EA0181601840000000015000
B0619013204846S11655254EA0182701853000000015000
B0619053204810S11655159EA0184201871000000015000
B0619093204745S11655102EA0186001892000000015000
B0619133204676S11655102EA0186801892000004000000
B0619173204641S11655153EA0186601891000004000000
B0619213204639S11655214EA0186901896000004000000
B0619253204667S11655267EA0187401901000000000000
B0619293204716S11655307EA0187301894000000000000
B0619333204780S11655332EA0187001888000000000000
B0619373204854S11655349EA0185801875000004000000
B0619413204929S11655370EA0184701863000004000000
B0619453205006S11655398EA0183501853000000000000
B0619493205079S11655434EA0183101852000000000000
B0619533205146S11655467EA0183001851000000000000
B0619573205215S11655501EA0182601847000000000000
B0620013205284S11655532EA0182001841000000000000
B0620053205354S11655562EA0181001827000000000000
B0620093205430S11655590EA0179601812000000000000
B0620133205510S11655609EA0178501800000000000000
B0620173205591S11655625EA0177601793000000000000
B0620213205666S11655652EA0177501797000000000000
B0620253205730S11655696EA0177901802000000000000
B0620293205782S11655751EA0178001803000000000000
B0620333205825S11655811EA0178401805000000000000
B0620373205861S11655873EA0178301803000000000000
B0620413205898S11655939EA0177901799000000000000
B0620453205930S11656011EA0177101788000000000000
B0620493205959S11656086EA0176401783000000000000
B0620533205986S11656162EA0176401785000000000000
B0620573206013S11656234EA0176401780000000000000
B0621013206039S11656307EA0176001778000000000000
B0621053206073S11656375EA0175101761000000000000
B0621093206134S11656429EA0172001725000000000000
B0621133206220S11656466EA0169001702000000000000
B0621173206314S11656490EA0167501686000000000000
B0621213206411S11656511EA0166001669000000000000
B0621253206511S11656532EA0163701642000000000000
B0621293206614S11656557EA0161201618000004000000
B0621333206718S11656585EA0159401602000004000000
B0621373206821S11656610EA0158701598000004000000
B0621413206920S11656628EA0158501598000004000000
B0621453207012S11656648EA0158301595000004000000
B0621493207096S11656676EA0158101594000004000000
B0621533207172S11656714EA0158001592000004000000
B0621573207246S11656753EA0157401580000000000000
B0622013207325S11656786EA0155701562000000000000
B0622053207414S11656799EA0154001547000000000000
B0622093207507S11656778EA0153301544000000000000
B0622133207594S11656743EA0153301549000000000000
B0622173207675S11656724EA0153701551000000000000
B0622213207749S11656731EA0153001541000000000000
B0622253207818S11656765EA0152101529000004000000
B0622293207878S11656814EA0150901516000004000000
B0622333207934S11656873EA0150001512000004000000
B0622373207983S11656932EA0150101512000000000000
B0622413208031S11656990EA0149601508000000000000
B0622453208079S11657048EA0149201502000000000000
B0622493208126S11657104EA0148401493000004000000
B0622533208168S11657160EA0147901490000004000000
B0622573208208S11657216EA0146901478000004000000
B0623013208243S11657273EA0146301474000004000000
B0623053208274S11657329EA0145801463000004000000
B0623093208307S11657385EA0144401449000004000000
B0623133208342S11657442EA0143201438000004000000
B0623173208378S11657501EA0142501434000004000000
B0623213208418S11657559EA0142901444000004000000
B0623253208457S11657616EA0144301464000000000000
B0623293208494S11657666EA0147001487000004000000
B0623333208550S11657679EA0149101510000000000000
B0623373208595S11657616EA0151201529000004000000
B0623413208584S11657524EA0152001533000004000000
B0623453208525S11657455EA0152401538000004000000
B0623493208451S11657436EA0153001543000004000000
B0623533208396S11657469EA0153101547000004000000
B0623573208392S11657527EA0154501568000004000000
B0624013208442S11657519EA0156401587000004015000
B0624053208460S11657437EA0157801597000004015000
B0624093208418S11657356EA0158101594000004015000
B0624133208340S11657333EA0157501589000000015000
B0624173208277S11657372EA0158101601000004015000
B0624213208279S11657433EA0159601617000000015000
B0624253208333S11657429EA0160901628000000015000
B0624293208361S11657348EA0161601637000004015000
B0624333208338S11657248EA0162601649000004015000
B0624373208275S11657177EA0164001664000004015000
B0624413208204S11657166EA0165501674000004015000
B0624453208157S11657208EA0165501671000004000000
B0624493208145S11657268EA0166001679000004000000
B0624533208169S11657315EA0166601684000004000000
B0624573208218S11657320EA0167101689000000000000
B0625013208270S11657281EA0167201689000000000000
B0625053208313S11657208EA0167201690000004015000
B0625093208361S11657134EA0167901703000004000000
B0625133208387S11657046EA0169401719000000000000
B0625173208370S11656949EA0170501725000000000000
B0625213208305S11656887EA0170501724000004000000
B0625253208231S11656892EA0170801728000004000000
B0625293208186S11656943EA0171101729000004000000
B0625333208190S11657007EA0171001730000000000000
B0625373208223S11657056EA0171701742000000000000
B0625413208283S11657061EA0172901751000004000000
B0625453208330S11656995EA0174301769000004000000
B0625493208326S11656900EA0175701778000004015000
B0625533208269S11656823EA0175801776000000015000
B0625573208191S11656814EA0176101785000000000000
B0626013208140S11656858EA0176901792000000000000
B0626053208132S11656919EA0177601798000000000000
B0626093208173S11656956EA0178301808000004000000
B0626133208227S11656925EA0179401817000000000000
B0626173208242S11656832EA0179501812000000015000
B0626213208190S11656743EA0179101812000000015000
B0626253208104S11656722EA0179201811000000015000
B0626293208043S11656782EA0178701805000000000000
B0626333208026S11656864EA0178801813000000000000
B0626373208038S11656938EA0179601820000000000000
B0626413208067S11657008EA0179901824000004000000
B0626453208103S11657074EA0180901830000000000000
B0626493208152S11657133EA0181101835000000000000
B0626533208207S11657183EA0182501852000000000000
B0626573208269S11657224EA0184301871000000000000
B0627013208338S11657198EA0187001900000000000000
B0627053208359S11657107EA0189201923000000000000
B0627093208316S11657027EA0190901940000000015000
B0627133208248S11656997EA0192601957000000000000
B0627173208186S11657012EA0194501974000000000000
B0627213208166S11657062EA0195601984000004000000
B0627253208205S11657096EA0196201992000004000000
B0627293208268S11657072EA0197302000000004000000
B0627333208304S11656987EA0197702001000004000000
B0627373208282S11656882EA0197802005000004000000
B0627413208212S11656810EA0199102026000004000000
B0627453208131S11656792EA0200902039000004000000
B0627493208071S11656843EA0201002031000004000000
B0627533208056S11656935EA0199802020000004000000
B0627573208058S11657036EA0199402014000004000000
B0628013208067S11657139EA0198302002000000000000
B0628053208080S11657238EA0198102005000000000000
B0628093208093S11657332EA0197701999000000000000
B0628133208108S11657425EA0197001991000000000000
B0628173208122S11657515EA0196901995000000000000
B0628213208136S11657602EA0196801993000000000000
B0628253208147S11657689EA0196701989000000000000
B0628293208152S11657776EA0196001983000000000000
B0628333208152S11657865EA0195601981000000000000
B0628373208149S11657949EA0195401978000000000000
B0628413208144S11658035EA0194501967000000000000
B0628453208131S11658123EA0193501957000000000000
B0628493208112S11658210EA0193101953000000000000
B0628533208086S11658294EA0192501945000000000000
B0628573208058S11658378EA0191401932000000000000
B0629013208030S11658466EA0189901918000000000000
B0629053207999S11658556EA0189001909000000000000
B0629093207969S11658642EA0188301903000000000000
B0629133207939S11658726EA0187501893000004000000
B0629173207910S11658814EA0186401881000004000000
B0629213207887S11658903EA0185801879000000000000
B0629253207866S11658990EA0185701876000000000000
B0629293207843S11659076EA0185201871000000000000
B0629333207819S11659159EA0185201875000000000000
B0629373207793S11659241EA0185301874000000000000
B0629413207770S11659322EA0185001871000000000000
B0629453207745S11659402EA0184501865000000000000
B0629493207723S11659486EA0183701851000004000000
B0629533207697S11659573EA0182101836000000000000
B0629573207672S11659660EA0181401838000000000000
B0630013207649S11659744EA0181601837000000000000
B0630053207627S11659830EA0180801824000000000000
B0630093207606S11659913EA0180401825000000000000
B0630133207581S11659991EA0180101818000000000000
B0630173207555S11700067EA0180101820000000000000
B0630213207525S11700141EA0180201823000000000000
B0630253207493S11700212EA0181501839000000000000
B0630293207466S11700276EA0183401869000000000000
B0630333207476S11700323EA0185801887000000000000
B0630373207524S11700309EA0187001895000000000000
B0630413207550S11700233EA0188001906000004000000
B0630453207527S11700145EA0188601910000004000000
B0630493207471S11700077EA0188901912000004000000
B0630533207395S11700049EA0189201920000004000000
B0630573207325S11700063EA0190401932000000000000
B0631013207284S11700108EA0191501939000000000000
B0631053207285S11700163EA0191401934000000000000
B0631093207325S11700202EA0190201915000000000000
B0631133207371S11700251EA0188601906000000000000
B0631173207404S11700316EA0188201903000000000000
B0631213207425S11700388EA0187901896000004000000
B0631253207440S11700465EA0187101887000004000000
B0631293207454S11700541EA0186501884000004000000
B0631333207477S11700617EA0185401866000004000000
B0631373207514S11700692EA0183801851000004000000
B0631413207560S11700761EA0183001849000004000000
B0631453207611S11700822EA0182901850000004000000
B0631493207664S11700879EA0182901841000004000000
B0631533207716S11700942EA0181501826000004000000
B0631573207768S11701004EA0181201833000004000000
B0632013207819S11701065EA0182301843000000000000
B0632053207869S11701125EA0183501860000000000000
B0632093207914S11701181EA0184701870000000000000
B0632133207962S11701235EA0184701863000000000000
B0632173208010S11701294EA0184001853000000000000
B0632213208052S11701358EA0182801842000000000000
B0632253208088S11701427EA0181601830000000000000
B0632293208129S11701494EA0180101813000000000000
B0632333208169S11701566EA0178901803000004000000
B0632373208210S11701637EA0177901790000004000000
B0632413208256S11701709EA0176601778000004000000
B0632453208309S11701774EA0176001773000004000000
B0632493208366S11701831EA0176001779000004000000
B0632533208424S11701882EA0176601783000000000000
B0632573208481S11701927EA0177101789000000000000
B0633013208539S11701966EA0177501794000000000000
B0633053208599S11702001EA0178001798000004000000
B0633093208664S11702034EA0178301804000004000000
B0633133208728S11702069EA0179501821000004000000
B0633173208790S11702099EA0180801830000004000000
B0633213208854S11702130EA0181001830000004000000
B0633253208916S11702169EA0181301834000004000000
B0633293208976S11702210EA0181801840000004000000
B0633333209035S11702256EA0182001841000004000000
B0633373209096S11702300EA0182201842000004000000
B0633413209158S11702344EA0182301846000004000000
B0633453209223S11702387EA0182701849000004000000
B0633493209289S11702426EA0182801846000004000000
B0633533209358S11702463EA0181601832000004000000
B0633573209430S11702500EA0180801825000004000000
B0634013209500S11702539EA0180201820000004000000
B0634053209568S11702581EA0179901817000004000000
B0634093209633S11702624EA0178801800000004000000
B0634133209698S11702668EA0177401790000004000000
B0634173209764S11702708EA0176301777000004000000
B0634213209830S11702749EA0175401768000004000000
B0634253209894S11702789EA0174901763000004000000
B0634293209959S11702825EA0174401755000004000000
B0634333210025S11702859EA0173101738000004000000
B0634373210098S11702883EA0172101732000004000000
B0634413210175S11702901EA0171701730000004000000
B0634453210254S11702915EA0171701730000004000000
B0634493210335S11702923EA0172601741000000000000
B0634533210415S11702928EA0172601735000000000000
B0634573210498S11702928EA0171901726000004000000
B0635013210583S11702915EA0171901735000000000000
B0635053210661S11702871EA0173401753000000000000
B0635093210719S11702792EA0175001767000000000000
B0635133210742S11702682EA0175701770000000000000
B0635173210725S11702567EA0175301759000000000000
B0635213210700S11702451EA0173601746000000000000
B0635253210687S11702330EA0172801743000004000000
B0635293210683S11702209EA0172201732000000000000
B0635333210682S11702083EA0170801719000004000000
B0635373210684S11701953EA0169701708000000000000
B0635413210692S11701820EA0169301707000000000000
B0635453210705S11701693EA0169301707000004000000
B0635493210721S11701571EA0169401709000004000000
B0635533210734S11701449EA0169401710000004000000
B0635573210745S11701329EA0169301707000004000000
B0636013210756S11701207EA0168901701000004000000
B0636053210766S11701085EA0167801687000004000000
B0636093210773S11700960EA0166501673000004000000
B0636133210775S11700832EA0165501665000004000000
B0636173210779S11700705EA0164901662000004000000
B0636213210783S11700583EA0165301666000000000000
B0636253210786S11700465EA0165401666000000000000
B0636293210782S11700346EA0165101664000000000000
B0636333210773S11700229EA0164901662000000000000
B0636373210768S11700111EA0164401655000000000000
B0636413210765S11659991EA0163501642000000000000
B0636453210762S11659868EA0162201631000000000000
B0636493210756S11659743EA0161501627000004000000
B0636533210752S11659620EA0161601629000004000000
B0636573210744S11659497EA0161301624000004000000
B0637013210726S11659374EA0160601616000004000000
B0637053210696S11659250EA0160401617000004000000
B0637093210652S11659136EA0161301630000004000000
B0637133210580S11659059EA0162601643000004000000
B0637173210501S11659041EA0163401649000004000000
B0637213210433S11659066EA0163701653000004000000
B0637253210392S11659116EA0163901650000004000000
B0637293210388S11659179EA0163201644000004000000
B0637333210414S11659232EA0162801641000004000000
B0637373210466S11659263EA0162201635000000000000
B0637413210532S11659256EA0161701635000000000000
B0637453210599S11659218EA0161401633000004000000
B0637493210660S11659158EA0161201630000000000000
B0637533210713S11659084EA0161601641000000000000
B0637573210757S11658998EA0162101638000004000000
B0638013210782S11658890EA0161801633000000000000
B0638053210775S11658771EA0161801633000000000000
B0638093210747S11658654EA0161701630000000000000
B0638133210699S11658546EA0161001623000000000000
B0638173210636S11658448EA0160101613000004000000
B0638213210567S11658355EA0159601607000000000000
B0638253210492S11658266EA0159001604000000000000
B0638293210414S11658190EA0158701600000000000000
B0638333210331S11658121EA0158001589000000000000
B0638373210240S11658067EA0157901604000004000000
B0638413210151S11658060EA0160701636000000000000
B0638453210098S11658105EA0163701666000000000000
B0638493210114S11658145EA0166501694000000000000
B0638533210157S11658127EA0168401704000004000000
B0638573210188S11658061EA0168401698000004000000
B0639013210186S11657967EA0168901709000004000000
B0639053210145S11657883EA0170201733000000000000
B0639093210076S11657850EA0172701758000000000000
B0639133210024S11657881EA0174501772000000000000
B0639173210028S11657933EA0175701778000000000000
B0639213210085S11657941EA0175901778000000000000
B0639253210131S11657867EA0177601810000004000000
B0639293210127S11657772EA0180501833000004000000
B0639333210069S11657706EA0182501854000000000000
B0639373210001S11657710EA0184701877000000000000
B0639413209977S11657766EA0186001882000004000000
B0639453210016S11657811EA0186101883000000000000
B0639493210080S11657785EA0187601910000000000000
B0639533210121S11657711EA0189201916000000000000
B0639573210129S11657610EA0189601924000000000000
B0640013210089S11657516EA0191301945000000000000
B0640053210014S11657465EA0192801962000000000000
B0640093209936S11657464EA0193701966000000000000
B0640133209889S11657521EA0194001968000000000000
B0640173209906S11657585EA0194901983000000000000
B0640213209963S11657610EA0196001991000000000000
B0640253210030S11657589EA0197402008000000000000
B0640293210079S11657516EA0198502010000000000000
B0640333210080S11657411EA0198802017000004000000
B0640373210028S11657317EA0199702028000000000000
B0640413209946S11657260EA0200702040000000000000
B0640453209856S11657229EA0201302041000000000000
B0640493209764S11657209EA0201502045000000000000
B0640533209673S11657199EA0202002049000000000000
B0640573209582S11657200EA0201702042000000000000
B0641013209490S11657208EA0201002038000000000000
B0641053209399S11657221EA0200802032000004000000
B0641093209308S11657243EA0200002021000000000000
B0641133209218S11657270EA0199202016000000000000
B0641173209132S11657307EA0198702011000004000000
B0641213209050S11657352EA0198202003000004000000
B0641253208975S11657410EA0196901989000004000000
B0641293208899S11657475EA0195601972000004000000
B0641333208824S11657541EA0194401962000000000000
B0641373208753S11657610EA0194201963000000000000
B0641413208686S11657680EA0193801955000000000000
B0641453208612S11657740EA0193001942000004000000
B0641493208524S11657781EA0191901935000000000000
B0641533208433S11657811EA0191501933000000000000
B0641573208347S11657836EA0191501934000000000000
B0642013208266S11657866EA0191301932000000000000
B0642053208196S11657915EA0190801923000000000000
B0642093208139S11657985EA0189101904000000000000
B0642133208091S11658070EA0187501886000000000000
B0642173208054S11658158EA0186501880000000000000
B0642213208025S11658247EA0186301881000000000000
B0642253208001S11658329EA0186601885000000000000
B0642293207978S11658405EA0186701885000000000000
B0642333207954S11658478EA0186201877000000000000
B0642373207939S11658554EA0185101864000004000000
B0642413207930S11658630EA0184401867000004000000
B0642453207918S11658700EA0185001873000004000000
B0642493207910S11658767EA0185201874000004000000
B0642533207901S11658836EA0185201870000000000000
B0642573207897S11658914EA0184401862000000000000
B0643013207897S11659001EA0184701868000004000000
B0643053207902S11659087EA0186701892000004000000
B0643093207935S11659150EA0189401918000004000000
B0643133208000S11659155EA0191101933000000000000
B0643173208052S11659084EA0192701953000000000000
B0643213208058S11658981EA0194301967000004000000
B0643253208025S11658882EA0194801971000000000000
B0643293207963S11658806EA0194601964000000000000
B0643333207878S11658767EA0193701953000000000000
B0643373207783S11658759EA0193101955000000000000
B0643413207688S11658767EA0193901965000000000000
B0643453207599S11658788EA0195401981000004000000
B0643493207538S11658845EA0196801991000004000000
B0643533207519S11658925EA0196701987000004000000
B0643573207534S11659012EA0196101981000000000000
B0644013207567S11659098EA0196001980000000000000
B0644053207609S11659178EA0196401986000000000000
B0644093207654S11659250EA0196501986000000000000
B0644133207700S11659318EA0196301984000000000000
B0644173207742S11659384EA0196001982000004000000
B0644213207785S11659445EA0196201985000004000000
B0644253207828S11659504EA0196201983000004000000
B0644293207874S11659558EA0195901980000000000000
B0644333207922S11659609EA0195201971000000000000
B0644373207969S11659662EA0194001958000000000000
B0644413208013S11659722EA0192601940000000000000
B0644453208060S11659785EA0190001910000000000000
B0644493208126S11659838EA0186801878000000000000
B0644533208210S11659870EA0185101855000000000000
B0644573208305S11659894EA0183001835000000000000
B0645013208404S11659915EA0181401824000000000000
B0645053208502S11659932EA0180901822000004000000
B0645093208597S11659946EA0180501813000000000000
B0645133208694S11659950EA0179701806000004000000
B0645173208789S11659954EA0179301806000004000000
B0645213208881S11659960EA0178401793000004000000
B0645253208975S11659963EA0176801777000000000000
B0645293209068S11659959EA0176101769000000000000
B0645333209162S11659952EA0175201758000000000000
B0645373209256S11659945EA0174201751000000000000
B0645413209347S11659935EA0174401763000000000000
B0645453209432S11659925EA0176101782000000000000
B0645493209513S11659911EA0177501793000004000000
B0645533209591S11659900EA0177901794000004000000
B0645573209670S11659896EA0176801776000004000000
B0646013209751S11659896EA0174901759000004000000
B0646053209834S11659895EA0173801751000004000000
B0646093209915S11659894EA0173301744000004000000
B0646133209995S11659890EA0172501736000004000000
B0646173210075S11659889EA0171401723000004000000
B0646213210154S11659889EA0170101710000000000000
B0646253210235S11659891EA0169101699000000000000
B0646293210315S11659893EA0167901688000004000000
B0646333210398S11659890EA0166801676000004000000
B0646373210480S11659889EA0165801667000004000000
B0646413210563S11659890EA0165301661000004000000
B0646453210648S11659893EA0164501656000004000000
B0646493210732S11659894EA0163901645000000000000
B0646533210820S11659899EA0162701638000004000000
B0646573210905S11659903EA0162201630000004000000
B0647013210991S11659911EA0161301621000004000000
B0647053211076S11659921EA0160501613000004000000
B0647093211160S11659939EA0159801606000004000000
B0647133211243S11659955EA0159001594000004000000
B0647173211328S11659964EA0158001586000004000000
B0647213211412S11659977EA0156801571000004000000
B0647253211493S11700000EA0155701562000000000000
B0647293211574S11700020EA0154701551000004000000
B0647333211650S11700042EA0154701561000000000000
B0647373211719S11700067EA0155901569000000000000
B0647413211785S11700093EA0156701576000000000000
B0647453211852S11700119EA0156801577000000000000
B0647493211918S11700146EA0157101581000000000000
B0647533211984S11700176EA0157901592000000000000
B0647573212055S11700150EA0159401605000000000000
B0648013212081S11700049EA0160501620000000000000
B0648053212045S11659943EA0161501630000004000000
B0648093211975S11659867EA0162501639000000000000
B0648133211888S11659839EA0163301649000000000000
B0648173211813S11659865EA0164401664000000000000
B0648213211771S11659921EA0166101680000000000000
B0648253211765S11659987EA0167101687000000000000
B0648293211788S11700050EA0167101685000000000000
B0648333211837S11700090EA0167101689000000000000
B0648373211896S11700117EA0167501688000000000000
B0648413211956S11700137EA0167401688000004000000
B0648453212018S11700153EA0166801678000000000000
B0648493212084S11700167EA0165701663000000000000
B0648533212155S11700185EA0164401652000004000000
B0648573212224S11700208EA0163501645000004000000
B0649013212292S11700234EA0162801638000004000000
B0649053212360S11700262EA0162201629000004000000
B0649093212428S11700288EA0161501623000004000000
B0649133212498S11700305EA0161101620000004000000
B0649173212562S11700316EA0161601628000004000000
B0649213212623S11700327EA0161801628000004000000
B0649253212681S11700340EA0161201617000004000000
B0649293212749S11700349EA0159401595000000000000
B0649333212823S11700357EA0157901587000004000000
B0649373212894S11700366EA0158301596000004000000
B0649413212957S11700372EA0159101604000004000000
B0649453213019S11700377EA0159101600000000000000
B0649493213084S11700385EA0158101589000000000000
B0649533213153S11700393EA0157001578000004000000
B0649573213225S11700403EA0156101569000000000000
B0650013213293S11700414EA0155501565000000000000
B0650053213362S11700429EA0155201558000000000000
B0650093213430S11700452EA0154401549000000000000
B0650133213499S11700478EA0153601542000000000000
B0650173213568S11700507EA0152801534000004000000
B0650213213634S11700537EA0152101526000000000000
B0650253213699S11700567EA0151401519000000000000
B0650293213764S11700596EA0150601512000000000000
B0650333213830S11700624EA0149901505000000000000
B0650373213894S11700652EA0149401500000000000000
B0650413213959S11700679EA0148601490000000000000
B0650453214023S11700706EA0147701480000004000000
B0650493214086S11700738EA0146501465000004000000
B0650533214150S11700773EA0145101452000004000000
B0650573214214S11700810EA0143901441000004000000
B0651013214276S11700851EA0143301438000004000000
