ACAM4N6
HFDTE010214
HFFXA050
HFPLTPILOT:JOHN WELSH              
HFGTYGLIDERTYPE:HORNET      
HFGIDGLIDERID:VH-GMY      
HFDTM100GPSDATUM:
HFRFWFIRMWAREVERSION:F2.6
HFRHWHARDWAREVERSION:300 Series Version 2
HFFTYFRTYPE:CAMBRIDGE AERO INSTRUMENTS, 302+
HFGPS:GARMIN,LVS-25,12,18000
HFPRSPRESSALTSENSOR:INTERSEMA, MS5534-AP, 20000
I033638FXA3941ENL4247REX
LCAMSBVER:5FWVER:F26300
C010214035640010214000102
C0000000N00000000WTAKEOFF     
C3207549S11656849EBEVAIR      
C3159766S11709882EMAWSON      
C3249216S11710632ECUBALLNG    
C3207549S11656849EBEVAIR      
C0000000N00000000WLANDING     
B0357323207337S11656858EA0025700212000000000000
B0357343207337S11656858EA0025700212000000000000
B0357363207337S11656858EA0025800212000000000000
B0357383207337S11656858EA0025800212000000000000
B0357403207337S11656858EA0025600212000000000000
B0357423207337S11656858EA0025700212000000000000
B0357443207337S11656858EA0025700212000000000000
B0357463207337S11656858EA0025700212000000000000
B0357483207337S11656858EA0025700212000000000000
B0357503207337S11656858EA0025700212000000000000
B0357523207337S11656858EA0025600212000000000000
B0357543207337S11656858EA0025700212000000000000
B0357563207337S11656860EA0025700212000000000000
B0357583207338S11656860EA0025600212000000000000
B0358003207342S11656862EA0025700212000000000000
B0358013207345S11656865EA0025800212000000000000
B0358053207367S11656882EA0025500211000000000000
B0358093207406S11656908EA0025300211000000000000
B0358133207456S11656940EA0025200212000000000000
B0358173207515S11656979EA0025500213000000000000
B0358213207577S11657021EA0025700217000000000000
B0358253207641S11657065EA0026600228000000000000
B0358293207703S11657111EA0027900244000000000000
B0358333207766S11657161EA0029100255000000000000
B0358373207830S11657213EA0030500271000000000000
B0358413207889S11657272EA0032400292000000000000
B0358453207947S11657325EA0034900323000000000000
B0358493208000S11657380EA0037500343000000000000
B0358533208049S11657439EA0039100360000000000000
B0358573208095S11657502EA0041100380000000000000
B0359013208142S11657563EA0042700398000000000000
B0359053208190S11657620EA0045100428000000000000
B0359093208235S11657680EA0047400449000000000000
B0359133208283S11657740EA0049500469000000000000
B0359173208322S11657810EA0051100489000000000000
B0359213208353S11657885EA0053600512000000000000
B0359253208383S11657962EA0055400531000000000000
B0359293208413S11658040EA0057100546000000000000
B0359333208443S11658119EA0058600563000000000000
B0359373208465S11658197EA0060800584000000000000
B0359413208482S11658278EA0062400599000000000000
B0359453208500S11658355EA0063700615000000000000
B0359493208521S11658433EA0064700621000000000000
B0359533208545S11658512EA0065100626000000000000
B0359573208568S11658594EA0065700634000000000000
B0400013208593S11658676EA0066400639000000000000
B0400053208615S11658760EA0067100648000000000000
B0400093208638S11658846EA0067900657000000000000
B0400133208663S11658932EA0068600662000000000000
B0400173208691S11659015EA0069600675000000000000
B0400213208720S11659096EA0071200694000000000000
B0400253208747S11659172EA0073800725000000000000
B0400293208775S11659246EA0076700756000000000000
B0400333208827S11659284EA0078600772000000000000
B0400373208868S11659235EA0080800800000000000000
B0400413208836S11659171EA0083000823000000000000
B0400453208779S11659179EA0084500835000000000000
B0400493208768S11659237EA0085200844000000000000
B0400533208811S11659272EA0085900850000000000000
B0400573208863S11659237EA0086600863000000000000
B0401013208870S11659161EA0088300883000000000000
B0401053208828S11659102EA0088800884000000000000
B0401093208767S11659107EA0088700889000000000000
B0401133208733S11659161EA0089700900000000000000
B0401173208745S11659224EA0090300908000000000000
B0401213208785S11659272EA0090900915000000000000
B0401253208834S11659244EA0091600922000000000000
B0401293208823S11659170EA0092400936000000000000
B0401333208764S11659141EA0093300948000000015000
B0401373208711S11659185EA0093800957000000015000
B0401413208715S11659259EA0094200955000000000000
B0401453208769S11659297EA0094500958000000000000
B0401493208832S11659274EA0095100964000000000000
B0401533208858S11659201EA0096500980000000000000
B0401573208836S11659127EA0097600984000000000000
B0402013208775S11659085EA0097800989000000000000
B0402053208717S11659115EA0098901005000000000000
B0402093208714S11659181EA0100401016000000000000
B0402133208760S11659222EA0100901019000000000000
B0402173208819S11659201EA0101801034000000000000
B0402213208849S11659136EA0102901039000000000000
B0402253208831S11659058EA0103101040000000000000
B0402293208773S11659019EA0103401048000000000000
B0402333208715S11659048EA0103601051000000000000
B0402373208720S11659111EA0104901068000000000000
B0402413208776S11659126EA0106701082000000000000
B0402453208821S11659076EA0107401087000000000000
B0402493208825S11658994EA0107301086000000000000
B0402533208780S11658925EA0107201083000000000000
B0402573208710S11658912EA0106201072000000000000
B0403013208655S11658959EA0105701071000000000000
B0403053208626S11659031EA0105801067000000000000
B0403093208625S11659107EA0105701069000000000000
B0403133208669S11659155EA0106701080000000000000
B0403173208734S11659172EA0106901084000000000000
B0403213208803S11659179EA0107801096000000000000
B0403253208873S11659183EA0107001080000000000000
B0403293208951S11659184EA0104301050000000000000
B0403333209039S11659187EA0102501032000000000000
B0403373209126S11659192EA0101701030000000000000
B0403413209208S11659194EA0101901037000000000000
B0403453209283S11659200EA0102101034000000000000
B0403493209356S11659200EA0102301033000000000000
B0403533209430S11659204EA0101701026000000000000
B0403573209505S11659189EA0101501023000000000000
B0404013209575S11659148EA0101001019000000000000
B0404053209638S11659103EA0102201033000000000000
B0404093209694S11659062EA0103001033000000000000
B0404133209748S11659012EA0102401020000000000000
B0404173209785S11658938EA0101801020000000000000
B0404213209781S11658846EA0101501009000000000000
B0404253209742S11658759EA0100000999000000000000
B0404293209685S11658680EA0099300995000000000000
B0404333209622S11658609EA0099601003000000000000
B0404373209556S11658548EA0100501009000000000000
B0404413209487S11658491EA0100001002000000000000
B0404453209416S11658442EA0100801013000000000000
B0404493209343S11658395EA0101901031000000000000
B0404533209280S11658400EA0104701064000000000000
B0404573209278S11658452EA0107701085000000000000
B0405013209325S11658466EA0108301089000000000000
B0405053209358S11658413EA0110001112000000000000
B0405093209325S11658353EA0111901128000000000000
B0405133209269S11658362EA0113201143000000000000
B0405173209257S11658421EA0114701157000000000000
B0405213209297S11658460EA0115501167000000000000
B0405253209344S11658422EA0117101185000000000000
B0405293209340S11658347EA0118701201000000000000
B0405333209287S11658313EA0120401223000000000000
B0405373209248S11658353EA0122401244000000000000
B0405413209267S11658408EA0123401251000000000000
B0405453209325S11658408EA0124101266000000000000
B0405493209357S11658349EA0126301284000000000000
B0405533209343S11658274EA0127501296000000000000
B0405573209289S11658235EA0129201317000000000000
B0406013209236S11658260EA0131101335000000000000
B0406053209231S11658316EA0133201354000000000000
B0406093209274S11658348EA0133901357000000000000
B0406133209327S11658317EA0135301375000000000000
B0406173209345S11658248EA0136801388000000000000
B0406213209319S11658183EA0138301406000000000000
B0406253209266S11658166EA0140101424000000000000
B0406293209226S11658204EA0141301437000000000000
B0406333209231S11658264EA0142501449000000000000
B0406373209279S11658296EA0143301455000000000000
B0406413209332S11658262EA0144601467000000000000
B0406453209335S11658191EA0145301475000000000000
B0406493209287S11658149EA0146301488000000000000
B0406533209235S11658170EA0147701504000000000000
B0406573209222S11658231EA0148901513000000000000
B0407013209257S11658283EA0149201513000000000000
B0407053209321S11658283EA0149001514000000000000
B0407093209361S11658222EA0149901524000000000000
B0407133209349S11658151EA0150301521000000000000
B0407173209295S11658115EA0150001526000000000000
B0407213209232S11658131EA0150901538000000000000
B0407253209192S11658182EA0152801559000000000000
B0407293209208S11658242EA0154701574000000000000
B0407333209265S11658255EA0154701566000000000000
B0407373209314S11658199EA0153901559000000000000
B0407413209301S11658122EA0154101566000000000000
B0407453209245S11658087EA0154401571000000000000
B0407493209187S11658113EA0155501589000000000000
B0407533209167S11658178EA0157801610000000000000
B0407573209213S11658218EA0159301615000000000000
B0408013209276S11658190EA0158401604000000000000
B0408053209295S11658113EA0158401609000000000000
B0408093209253S11658060EA0158701611000000000000
B0408133209184S11658061EA0158801615000000000000
B0408173209115S11658088EA0158601610000000000000
B0408213209048S11658136EA0158601614000000000000
B0408253208988S11658188EA0159801629000000000000
B0408293208932S11658242EA0161201648000000000000
B0408333208880S11658295EA0163101666000000000000
B0408373208872S11658365EA0165301686000000000000
B0408413208922S11658391EA0166501694000000000000
B0408453208957S11658339EA0167101701000000000000
B0408493208927S11658270EA0167401702000000000000
B0408533208855S11658255EA0168101717000000000000
B0408573208793S11658297EA0170001735000000000000
B0409013208769S11658370EA0170901742000000000000
B0409053208794S11658442EA0170601736000000000000
B0409093208850S11658473EA0170301732000000000000
B0409133208909S11658452EA0170001730000000000000
B0409173208959S11658401EA0169201722000000000000
B0409213209006S11658342EA0169701732000000000000
B0409253209048S11658279EA0170801743000000000000
B0409293209066S11658213EA0172301761000000000000
B0409333209026S11658175EA0173501772000000000000
B0409373208966S11658203EA0173101768000000000000
B0409413208940S11658279EA0173001768000000000000
B0409453208977S11658343EA0174001787000000000000
B0409493209036S11658335EA0175901798000000000000
B0409533209059S11658273EA0175701794000000000000
B0409573209019S11658226EA0176601807000000000000
B0410013208966S11658252EA0176901806000000000000
B0410053208946S11658325EA0176701809000000000000
B0410093208977S11658387EA0177901818000000000000
B0410133209033S11658403EA0178201815000000000000
B0410173209075S11658361EA0178001813000000000000
B0410213209065S11658299EA0177501810000000000000
B0410253209023S11658249EA0177301811000000000000
B0410293208971S11658216EA0177701814000000000000
B0410333208912S11658214EA0178001815000000000000
B0410373208857S11658245EA0177801814000000000000
B0410413208806S11658290EA0178201818000000000000
B0410453208756S11658339EA0178501819000000000000
B0410493208710S11658395EA0178601821000000000000
B0410533208667S11658453EA0178401813000000000000
B0410573208629S11658517EA0177601803000000000000
B0411013208591S11658583EA0177201806000000000000
B0411053208565S11658654EA0177801809000000000000
B0411093208550S11658726EA0177701806000000000000
B0411133208539S11658803EA0177701805000000000000
B0411173208530S11658879EA0177401800000000000000
B0411213208521S11658957EA0177001801000000000000
B0411253208511S11659033EA0177101795000000000000
B0411293208490S11659109EA0175701782000000000000
B0411333208444S11659170EA0175201781000000000000
B0411373208385S11659204EA0175401783000000000000
B0411413208318S11659210EA0175001778000000000000
B0411453208255S11659189EA0175201783000000000000
B0411493208208S11659144EA0176001790000000000000
B0411533208183S11659081EA0176201789000000000000
B0411573208179S11659012EA0175701784000000000000
B0412013208192S11658938EA0175001775000000000000
B0412053208208S11658860EA0173901767000000000000
B0412093208213S11658777EA0173301762000000000000
B0412133208212S11658691EA0172701756000000000000
B0412173208209S11658604EA0172501755000000000000
B0412213208200S11658517EA0171901749000000000000
B0412253208190S11658430EA0171501747000000000000
B0412293208177S11658343EA0170801739000000000000
B0412333208162S11658251EA0170401733000000000000
B0412373208136S11658161EA0170001729000000000000
B0412413208101S11658074EA0169701730000000000000
B0412453208070S11657989EA0170101729000000000000
B0412493208035S11657909EA0169401722000000000000
B0412533207988S11657827EA0168501712000000000000
B0412573207932S11657741EA0167201701000000000000
B0413013207887S11657649EA0167401706000000000000
B0413053207859S11657559EA0168401718000000000000
B0413093207836S11657473EA0168501713000000000000
B0413133207801S11657390EA0167701702000000000000
B0413173207758S11657306EA0166301687000000000000
B0413213207707S11657222EA0164601671000000000000
B0413253207649S11657144EA0163101658000000000000
B0413293207586S11657073EA0162401651000000000000
B0413333207521S11657005EA0162201652000000000000
B0413373207459S11656934EA0161801644000000000000
B0413413207408S11656852EA0161501642000000000000
B0413453207380S11656761EA0161501643000000000000
B0413493207375S11656672EA0162201652000000000000
B0413533207384S11656594EA0163301662000000000000
B0413573207402S11656523EA0163801660000000000000
B0414013207419S11656448EA0163101655000000000000
B0414053207429S11656368EA0163201660000000000000
B0414093207440S11656290EA0163501660000000000000
B0414133207449S11656208EA0163201655000000000000
B0414173207427S11656134EA0163601664000000000000
B0414213207365S11656132EA0164601674000000000000
B0414253207311S11656176EA0164101667000000000000
B0414293207254S11656227EA0163801668000000000000
B0414333207194S11656273EA0164501675000000000000
B0414373207133S11656314EA0164901677000000000000
B0414413207072S11656355EA0164401667000000000000
B0414453207001S11656363EA0164101668000000000000
B0414493206952S11656316EA0165501684000000000000
B0414533206933S11656249EA0165901685000000000000
B0414573206934S11656176EA0165901688000000000000
B0415013206951S11656106EA0166301690000000000000
B0415053206978S11656038EA0165901681000000000000
B0415093207003S11655964EA0164801670000000000000
B0415133206990S11655886EA0164401672000000000000
B0415173206938S11655844EA0164701670000000000000
B0415213206879S11655860EA0164101660000000000000
B0415253206831S11655916EA0162301646000000000000
B0415293206795S11655991EA0161101637000000000000
B0415333206760S11656072EA0160601633000000000000
B0415373206725S11656152EA0160401628000000000000
B0415413206691S11656233EA0159701624000000000000
B0415453206660S11656314EA0159501619000000000000
B0415493206622S11656394EA0159001619000000000000
B0415533206579S11656468EA0159401621000000000000
B0415573206536S11656541EA0159301619000000000000
B0416013206496S11656618EA0159401620000000000000
B0416053206457S11656693EA0159201618000000000000
B0416093206419S11656773EA0159201613000000000000
B0416133206409S11656857EA0159501623000000000000
B0416173206436S11656931EA0160501634000000000000
B0416213206493S11656957EA0161901639000000000000
B0416253206553S11656922EA0160801629000000000000
B0416293206583S11656848EA0161001635000000000000
B0416333206558S11656778EA0161901643000000000000
B0416373206511S11656718EA0160801629000000000000
B0416413206459S11656652EA0159401618000000000000
B0416453206403S11656580EA0157601594000000000000
B0416493206338S11656496EA0154401565000000000000
B0416533206270S11656406EA0153601564000000000000
B0416573206202S11656321EA0154301570000000000000
B0417013206133S11656241EA0153801561000000000000
B0417053206060S11656163EA0153001551000000000000
B0417093205984S11656085EA0151801543000000000000
B0417133205903S11656011EA0151101534000000000000
B0417173205818S11655938EA0150301530000000000000
B0417213205738S11655868EA0151001538000000000000
B0417253205657S11655807EA0152101546000000000000
B0417293205578S11655749EA0151901544000000000000
B0417333205504S11655687EA0152301551000000000000
B0417373205438S11655618EA0152401543000000000000
B0417413205373S11655543EA0151301534000000000000
B0417453205309S11655465EA0150801531000000000000
B0417493205250S11655388EA0151301543000000000000
B0417533205194S11655332EA0153001553000000000000
B0417573205137S11655346EA0154101565000000000000
B0418013205135S11655414EA0154001559000000000000
B0418053205187S11655456EA0153001549000000000000
B0418093205257S11655475EA0151001526000000000000
B0418133205334S11655497EA0149601517000000000000
B0418173205408S11655519EA0149801521000000000000
B0418213205478S11655538EA0150001517000000000000
B0418253205548S11655558EA0149301511000000000000
B0418293205621S11655579EA0148501500000000000000
B0418333205695S11655603EA0148301502000000000000
B0418373205769S11655629EA0149001511000000000000
B0418413205839S11655642EA0150701527000000000000
B0418453205886S11655587EA0152701549000000000000
B0418493205860S11655514EA0153801559000000000000
B0418533205796S11655491EA0153401558000000000000
B0418573205731S11655515EA0153401559000000000000
B0419013205679S11655562EA0153801565000000000000
B0419053205669S11655626EA0154401567000000000000
B0419093205717S11655651EA0154201565000000000000
B0419133205773S11655609EA0153801559000000000000
B0419173205781S11655519EA0153401557000000000000
B0419213205733S11655445EA0153701565000000000000
B0419253205661S11655435EA0155501582000000000000
B0419293205633S11655483EA0156901592000000000000
B0419333205660S11655531EA0156501585000000000000
B0419373205722S11655557EA0154801569000000000000
B0419413205794S11655554EA0155001579000000000000
B0419453205830S11655480EA0156701595000000000000
B0419493205803S11655398EA0157401600000000000000
B0419533205740S11655353EA0157501600000000000000
B0419573205666S11655350EA0157101598000000000000
B0420013205591S11655370EA0157001595000000000000
B0420053205516S11655397EA0156301585000000000000
B0420093205432S11655404EA0155801577000000000000
B0420133205352S11655366EA0155901581000000000000
B0420173205287S11655301EA0155301576000000000000
B0420213205230S11655229EA0154701573000000000000
B0420253205172S11655162EA0154701570000000000000
B0420293205122S11655088EA0154501569000000000000
B0420333205128S11655005EA0155801589000000000000
B0420373205178S11655010EA0159601629000000000000
B0420413205174S11655063EA0160401637000000015000
B0420453205113S11655090EA0159001635000000015000
B0420493205044S11655071EA0159901647000000015000
B0420533205006S11655003EA0161001657000000000000
B0420573205019S11654936EA0162901676000000000000
B0421013205067S11654907EA0164001678000000000000
B0421053205120S11654936EA0163901676000000000000
B0421093205127S11655003EA0164401684000000015000
B0421133205074S11655024EA0165401694000000015000
B0421173205044S11654964EA0166501705000000015000
B0421213205087S11654921EA0166701705000000015000
B0421253205149S11654949EA0166501698000000000000
B0421293205209S11654998EA0166701700000000000000
B0421333205228S11655070EA0167301706000000000000
B0421373205192S11655129EA0167101697000000015000
B0421413205123S11655125EA0165801675000000015000
B0421453205068S11655057EA0164501675000000000000
B0421493205032S11654975EA0165601691000000000000
B0421533204968S11654954EA0167101705000000000000
B0421573204960S11655027EA0167501705000000000000
B0422013205022S11655049EA0167501708000000000000
B0422053205071S11654986EA0167601706000000000000
B0422093205063S11654898EA0168101718000000000000
B0422133205007S11654841EA0169701731000000000000
B0422173204927S11654836EA0169301723000000000000
B0422213204855S11654886EA0169601731000000000000
B0422253204824S11654967EA0170301732000000000000
B0422293204854S11655038EA0171201739000000000000
B0422333204915S11655062EA0170801736000000000000
B0422373204979S11655040EA0170901742000000000000
B0422413205036S11655003EA0172001751000000000000
B0422453205092S11654960EA0172201753000000000000
B0422493205142S11654911EA0172801758000000000000
B0422533205159S11654838EA0173101756000000000000
B0422573205127S11654771EA0172201745000000000000
B0423013205067S11654722EA0171101742000000000000
B0423053205002S11654687EA0171701748000000000000
B0423093204931S11654677EA0171801749000000000000
B0423133204863S11654704EA0172001754000000000000
B0423173204803S11654739EA0172601750000000000000
B0423213204759S11654802EA0171301741000000000000
B0423253204771S11654888EA0170801737000000000000
B0423293204824S11654959EA0168301707000000000000
B0423333204903S11655019EA0165401685000000000000
B0423373204986S11655080EA0164901681000000000000
B0423413205070S11655138EA0164101669000000000000
B0423453205154S11655196EA0162601653000000000000
B0423493205233S11655262EA0161501641000000000000
B0423533205293S11655345EA0161701646000000000000
B0423573205335S11655432EA0162401647000000000000
B0424013205370S11655521EA0162601650000000000000
B0424053205401S11655608EA0161401635000000000000
B0424093205436S11655695EA0160401629000000000000
B0424133205466S11655781EA0161601640000000000000
B0424173205496S11655861EA0162001641000000000000
B0424213205548S11655908EA0163401663000000000000
B0424253205610S11655902EA0165001664000000000000
B0424293205646S11655834EA0165301677000000015000
B0424333205618S11655757EA0166601682000000015000
B0424373205551S11655733EA0166201680000000015000
B0424413205490S11655762EA0165701674000000000000
B0424453205430S11655809EA0164701669000000000000
B0424493205360S11655844EA0165301677000000000000
B0424533205295S11655889EA0165101669000000000000
B0424573205261S11655964EA0164901670000000000000
B0425013205280S11656032EA0165001667000000000000
B0425053205337S11656067EA0163001639000000000000
B0425093205412S11656091EA0160001610000000000000
B0425133205491S11656134EA0158201603000000000000
B0425173205568S11656169EA0159401619000000000000
B0425213205646S11656180EA0160201621000000000000
B0425253205717S11656155EA0161201645000000000000
B0425293205703S11656089EA0165601695000000015000
B0425333205640S11656103EA0168501715000000015000
B0425373205627S11656172EA0170101730000000015000
B0425413205675S11656204EA0170701731000000015000
B0425453205717S11656162EA0172001753000000015000
B0425493205692S11656104EA0174701779000000015000
B0425533205635S11656110EA0176101792000000000000
B0425573205610S11656175EA0176501792000000000000
B0426013205649S11656230EA0176701800000000000000
B0426053205696S11656216EA0179201823000000000000
B0426093205692S11656159EA0180401831000000015000
B0426133205642S11656130EA0181101843000000015000
B0426173205597S11656177EA0182101849000000015000
B0426213205607S11656250EA0182201848000000015000
B0426253205659S11656272EA0183001863000000015000
B0426293205675S11656229EA0184601870000000015000
B0426333205629S11656189EA0184301868000000015000
B0426373205565S11656224EA0185001883000000015000
B0426413205545S11656299EA0185501875000000000000
B0426453205587S11656366EA0183901863000000000000
B0426493205652S11656392EA0184001867000000000000
B0426533205708S11656367EA0185101881000000000000
B0426573205726S11656311EA0186701900000000000000
B0427013205704S11656256EA0187501904000000000000
B0427053205643S11656259EA0188001916000000000000
B0427093205605S11656325EA0188101910000000000000
B0427133205634S11656401EA0186401895000000000000
B0427173205703S11656422EA0186001895000000000000
B0427213205760S11656381EA0186101897000000000000
B0427253205760S11656299EA0185501886000000000000
B0427293205717S11656210EA0182201849000000000000
B0427333205661S11656125EA0182001875000000000000
B0427373205608S11656059EA0185501898000000000000
B0427413205555S11656006EA0186301904000000000000
B0427453205495S11655972EA0186401901000000000000
B0427493205425S11655977EA0185201885000000000000
B0427533205345S11655983EA0183501864000000000000
B0427573205275S11655942EA0182401859000000000000
B0428013205248S11655868EA0182801865000000000000
B0428053205252S11655795EA0183001863000000000000
B0428093205262S11655721EA0182301853000000000000
B0428133205267S11655640EA0181201840000000000000
B0428173205259S11655554EA0179201816000000000000
B0428213205233S11655460EA0176701795000000000000
B0428253205176S11655375EA0174201769000000000000
B0428293205093S11655307EA0171301735000000000000
B0428333204999S11655249EA0170101735000000000000
B0428373204908S11655200EA0170801739000000000000
B0428413204819S11655151EA0170501736000000000000
B0428453204734S11655109EA0171301743000000000000
B0428493204655S11655063EA0171101732000000000000
B0428533204576S11655011EA0169901722000000000000
B0428573204500S11654958EA0170201731000000000000
B0429013204431S11654910EA0171801749000000000000
B0429053204374S11654863EA0173701765000000000000
B0429093204312S11654850EA0174401774000000000000
B0429133204281S11654915EA0175101779000000000000
B0429173204321S11654976EA0174901775000000000000
B0429213204388S11654973EA0174801774000000000000
B0429253204429S11654907EA0174201773000000000000
B0429293204427S11654823EA0173301759000000000000
B0429333204390S11654750EA0172601761000000000000
B0429373204327S11654707EA0172001748000000000000
B0429413204253S11654678EA0171001738000000000000
B0429453204175S11654659EA0170701743000000000000
B0429493204100S11654651EA0171601747000000000000
B0429533204024S11654660EA0170701736000000000000
B0429573203954S11654674EA0171501746000000000000
B0430013203891S11654691EA0172101748000000000000
B0430053203831S11654711EA0172101747000000000000
B0430093203772S11654735EA0172101747000000000000
B0430133203716S11654761EA0172201743000000000000
B0430173203660S11654790EA0171601733000000000000
B0430213203598S11654778EA0170601728000000000000
B0430253203560S11654721EA0170701730000000000000
B0430293203556S11654655EA0170701730000000000000
B0430333203588S11654603EA0170601727000000000000
B0430373203644S11654582EA0169601715000000000000
B0430413203706S11654581EA0168601707000000000000
B0430453203770S11654589EA0168201703000000000000
B0430493203835S11654602EA0168001699000000000000
B0430533203901S11654616EA0167401693000000000000
B0430573203970S11654631EA0166701686000000000000
B0431013204037S11654654EA0166401687000000000000
B0431053204104S11654672EA0166801690000000000000
B0431093204171S11654683EA0167001690000000000000
B0431133204239S11654695EA0166401682000000000000
B0431173204307S11654703EA0166001672000000000000
B0431213204374S11654680EA0164601660000000000000
B0431253204451S11654667EA0163501651000000000000
B0431293204529S11654668EA0163701659000000000000
B0431333204606S11654667EA0163501650000000000000
B0431373204685S11654683EA0161801636000000000000
B0431413204762S11654719EA0161101630000000000000
B0431453204834S11654765EA0160801627000000000000
B0431493204903S11654811EA0160601623000000000000
B0431533204975S11654855EA0159201608000000000000
B0431573205046S11654906EA0158601604000000000000
B0432013205115S11654966EA0158301604000000000000
B0432053205172S11655031EA0160601627000000000000
B0432093205232S11655059EA0161801630000000000000
B0432133205293S11655033EA0161101614000000000000
B0432173205362S11655032EA0158601589000000000000
B0432213205414S11655101EA0156501573000000000000
B0432253205436S11655193EA0154801559000000000000
B0432293205453S11655287EA0154001552000000000000
B0432333205473S11655383EA0153601553000000000000
B0432373205492S11655479EA0153801553000000000000
B0432413205512S11655580EA0153701553000000000000
B0432453205535S11655686EA0153201546000000000000
B0432493205553S11655786EA0155601569000000000000
B0432533205517S11655860EA0157801588000000000000
B0432573205466S11655831EA0159701604000000000000
B0433013205473S11655764EA0160101611000000000000
B0433053205514S11655712EA0160901620000000000000
B0433093205573S11655695EA0161701630000000000000
B0433133205617S11655739EA0162101634000000000000
B0433173205600S11655800EA0162301638000000015000
B0433213205545S11655799EA0162601642000000015000
B0433253205518S11655736EA0162101638000000015000
B0433293205549S11655669EA0162401646000000000000
B0433333205613S11655645EA0162501640000000000000
B0433373205690S11655648EA0160001610000000000000
B0433413205778S11655675EA0157101587000000000000
B0433453205868S11655712EA0155901575000000000000
B0433493205960S11655749EA0155101570000000000000
B0433533206050S11655786EA0155101568000000000000
B0433573206138S11655821EA0154301557000000000000
B0434013206228S11655857EA0153301549000000000000
B0434053206315S11655894EA0152601543000000000000
B0434093206400S11655929EA0152501542000000000000
B0434133206483S11655961EA0151801534000000000000
B0434173206567S11655990EA0151401530000000000000
B0434213206650S11656019EA0151001523000000000000
B0434253206732S11656045EA0150401517000000000000
B0434293206814S11656072EA0149401504000000000000
B0434333206897S11656104EA0148101492000000000000
B0434373206978S11656138EA0148001495000000000000
B0434413207055S11656172EA0148101493000000000000
B0434453207130S11656206EA0148401497000000000000
B0434493207200S11656233EA0150301518000000000000
B0434533207268S11656258EA0150601522000000000000
B0434573207339S11656273EA0150101514000000000000
B0435013207411S11656297EA0150901533000000000000
B0435053207475S11656315EA0153301552000000000000
B0435093207519S11656273EA0154701567000000000000
B0435133207492S11656211EA0155901578000000015000
B0435173207427S11656212EA0156601587000000015000
B0435213207393S11656268EA0156501579000000000000
B0435253207411S11656336EA0155601573000000000000
B0435293207463S11656381EA0155501572000000000000
B0435333207525S11656401EA0155901581000000000000
B0435373207566S11656359EA0157401593000000000000
B0435413207521S11656314EA0159001612000000000000
B0435453207469S11656355EA0160201621000000000000
B0435493207488S11656423EA0159901615000000000000
B0435533207547S11656425EA0160401621000000000000
B0435573207584S11656371EA0161001629000000000000
B0436013207573S11656298EA0161101629000000000000
B0436053207514S11656251EA0160901628000000000000
B0436093207437S11656266EA0161001638000000000000
B0436133207406S11656341EA0162801655000000000000
B0436173207438S11656405EA0163201653000000000000
B0436213207501S11656412EA0163001656000000000000
B0436253207532S11656354EA0164201663000000000000
B0436293207497S11656284EA0163301652000000000000
B0436333207421S11656238EA0162501655000000000000
B0436373207360S11656271EA0165301683000000000000
B0436413207373S11656327EA0166701684000000000000
B0436453207430S11656342EA0165401673000000000000
B0436493207488S11656318EA0165901681000000000000
B0436533207492S11656243EA0166301683000000015000
B0436573207434S11656188EA0166101695000000015000
B0437013207372S11656217EA0167401707000000015000
B0437053207367S11656292EA0167501704000000015000
B0437093207414S11656347EA0166701699000000000000
B0437133207479S11656383EA0166201692000000000000
B0437173207549S11656406EA0165501686000000000000
B0437213207624S11656422EA0165101679000000000000
B0437253207703S11656436EA0164701675000000000000
B0437293207785S11656440EA0164201669000000000000
B0437333207871S11656437EA0163801665000000000000
B0437373207956S11656409EA0164001670000000000000
B0437413208019S11656341EA0165401684000000000000
B0437453208010S11656258EA0167701708000000000000
B0437493207952S11656223EA0167701698000000000000
B0437533207874S11656227EA0165501680000000000000
B0437573207792S11656234EA0165501682000000000000
B0438013207711S11656253EA0165601684000000000000
B0438053207640S11656290EA0166401691000000000000
B0438093207580S11656351EA0166901694000000000000
B0438133207531S11656423EA0166801692000000000000
B0438173207537S11656509EA0167301703000000000000
B0438213207579S11656572EA0168401711000000000000
B0438253207631S11656607EA0169101714000000000000
B0438293207694S11656592EA0167401690000000000000
B0438333207765S11656593EA0166901693000000000000
B0438373207804S11656644EA0168201702000000000000
B0438413207775S11656715EA0166201678000000000000
B0438453207710S11656780EA0164001663000000000000
B0438493207635S11656832EA0164001662000000000000
B0438533207551S11656879EA0161701630000000000000
B0438573207464S11656938EA0159101613000000000000
B0439013207384S11657012EA0158001600000000000000
B0439053207310S11657096EA0156501588000000000000
B0439093207238S11657187EA0154901572000000000000
B0439133207170S11657283EA0153701563000000000000
B0439173207107S11657378EA0153201556000000000000
B0439213207043S11657472EA0152101540000000000000
B0439253206979S11657569EA0150301522000000000000
B0439293206912S11657666EA0148701504000000000000
B0439333206845S11657763EA0147601495000000000000
B0439373206779S11657862EA0146801489000000000000
B0439413206715S11657961EA0146201481000000000000
B0439453206653S11658058EA0145601478000000000000
B0439493206593S11658151EA0145801478000000000000
B0439533206526S11658227EA0147001492000000000000
B0439573206457S11658291EA0148701509000000000000
B0440013206392S11658347EA0150401522000000000000
B0440053206329S11658401EA0150701521000000000000
B0440093206264S11658456EA0150101516000000000000
B0440133206198S11658509EA0149601506000000000000
B0440173206127S11658574EA0147001477000000000000
B0440213206050S11658652EA0144601463000000000000
B0440253205976S11658736EA0144101465000000000000
B0440293205909S11658820EA0145301478000000000000
B0440333205841S11658899EA0145401477000000015000
B0440373205776S11658984EA0144701464000000000000
B0440413205712S11659076EA0142901445000000000000
B0440453205652S11659175EA0141101426000000000000
B0440493205595S11659274EA0140401422000000000000
B0440533205540S11659370EA0140601424000000000000
B0440573205487S11659466EA0139801408000000000000
B0441013205431S11659562EA0138901404000000000000
B0441053205379S11659651EA0139401409000000000000
B0441093205326S11659735EA0139101403000000000000
B0441133205274S11659820EA0137901386000000000000
B0441173205218S11659911EA0135901366000000000000
B0441213205161S11700004EA0135601371000000000000
B0441253205105S11700094EA0135701372000000000000
B0441293205050S11700180EA0136101375000000000000
B0441333204996S11700264EA0135401364000000000000
B0441373204940S11700350EA0134701359000000000000
B0441413204882S11700435EA0134001348000000000000
B0441453204821S11700519EA0132701335000000000000
B0441493204760S11700602EA0131801328000000000000
B0441533204699S11700687EA0130801317000000000000
B0441573204637S11700775EA0129101296000000000000
B0442013204574S11700862EA0127801291000000000000
B0442053204508S11700947EA0125901268000000000000
B0442093204439S11701038EA0124401250000000000000
B0442133204372S11701133EA0123101234000000000000
B0442173204308S11701228EA0122601236000000000000
B0442213204249S11701319EA0122601228000000000000
B0442253204186S11701408EA0121201212000000000000
B0442293204122S11701493EA0120701214000000000000
B0442333204063S11701576EA0121401219000000000000
B0442373204005S11701658EA0121901223000000000000
B0442413203958S11701746EA0122601229000000000000
B0442453203940S11701844EA0122601222000000000000
B0442493203927S11701947EA0121601212000000000000
B0442533203915S11702053EA0120501197000000000000
B0442573203896S11702161EA0119101188000000000000
B0443013203876S11702259EA0119801193000000000000
B0443053203850S11702355EA0118401170000000000000
B0443093203813S11702459EA0115601149000000000000
B0443133203774S11702560EA0115101151000000000000
B0443173203733S11702660EA0114401136000000000000
B0443213203690S11702766EA0112601121000000000000
B0443253203646S11702872EA0111201108000000000000
B0443293203601S11702975EA0110401103000000000000
B0443333203556S11703075EA0109801093000000000000
B0443373203506S11703171EA0108601076000000000000
B0443413203451S11703263EA0107001064000000000000
B0443453203397S11703356EA0106101056000000000000
B0443493203341S11703443EA0106101057000000000000
B0443533203281S11703529EA0105501048000000000000
B0443573203225S11703613EA0105201047000000000000
B0444013203172S11703696EA0105901059000000000000
B0444053203129S11703780EA0107301062000000000000
B0444093203117S11703876EA0106701059000000000000
B0444133203111S11703968EA0108001076000000000000
B0444173203133S11704041EA0109201077000000000000
B0444213203192S11704011EA0109501083000000015000
B0444253203169S11703939EA0110701085000000030000
B0444293203105S11703925EA0110501082000000015000
B0444333203038S11703950EA0110101087000000015000
B0444373202987S11704012EA0110401088000000015000
B0444413203013S11704084EA0109801087000000000000
B0444453203077S11704093EA0111001103000000000000
B0444493203114S11704029EA0112401112000000015000
B0444533203109S11703946EA0112001104000000000000
B0444573203061S11703878EA0111201098000000000000
B0445013202984S11703839EA0110401095000000000000
B0445053202900S11703808EA0110001090000000000000
B0445093202821S11703834EA0110101092000000000000
B0445133202796S11703911EA0110201088000000000000
B0445173202832S11703978EA0109701088000000000000
B0445213202890S11704030EA0109601090000000000000
B0445253202945S11704075EA0110401095000000000000
B0445293203001S11704119EA0110801099000000000000
B0445333203059S11704158EA0111401101000000000000
B0445373203122S11704186EA0110701089000000000000
B0445413203194S11704170EA0110001091000000000000
B0445453203235S11704105EA0111301106000000000000
B0445493203186S11704050EA0112901121000000015000
B0445533203126S11704084EA0113401124000000015000
B0445573203126S11704162EA0112901122000000015000
B0446013203176S11704199EA0113401126000000000000
B0446053203229S11704159EA0113301121000000000000
B0446093203230S11704077EA0113101119000000015000
B0446133203164S11704046EA0112801117000000015000
B0446173203111S11704101EA0113001124000000000000
B0446213203104S11704177EA0113201124000000000000
B0446253203126S11704250EA0113001120000000000000
B0446293203176S11704303EA0111801108000000000000
B0446333203242S11704324EA0110901099000000000000
B0446373203286S11704267EA0111801109000000000000
B0446413203264S11704185EA0111401101000000000000
B0446453203211S11704110EA0109301084000000000000
B0446493203150S11704036EA0108501073000000000000
B0446533203075S11703971EA0107001063000000000000
B0446573202988S11703915EA0105901045000000000000
B0447013202886S11703881EA0102501013000000000000
B0447053202773S11703868EA0102401031000000015000
B0447093202667S11703858EA0102701014000000015000
B0447133202559S11703871EA0101201013000000015000
B0447173202457S11703890EA0101901013000000015000
B0447213202358S11703921EA0102001019000000015000
B0447253202268S11703958EA0103901042000000000000
B0447293202255S11704023EA0107201067000000000000
B0447333202314S11704012EA0107801067000000000000
B0447373202329S11703930EA0107601063000000000000
B0447413202268S11703880EA0107501064000000000000
B0447453202188S11703885EA0106401047000000000000
B0447493202100S11703920EA0106001050000000015000
B0447533202013S11703962EA0106201056000000000000
B0447573201928S11704008EA0105201044000000000000
B0448013201840S11704059EA0103801030000000000000
B0448053201749S11704112EA0101301000000000000000
B0448093201653S11704171EA0099700989000000000000
B0448133201560S11704227EA0099200985000000000000
B0448173201469S11704280EA0099100976000000000000
B0448213201379S11704335EA0098200971000000000000
B0448253201292S11704388EA0098000968000000000000
B0448293201205S11704439EA0097000952000000000000
B0448333201115S11704489EA0095600940000000000000
B0448373201028S11704539EA0095900947000000000000
B0448413200943S11704584EA0095700942000000000000
B0448453200859S11704626EA0095400941000000000000
B0448493200776S11704665EA0095500940000000000000
B0448533200696S11704712EA0095100936000000000000
B0448573200620S11704757EA0095100936000000000000
B0449013200547S11704808EA0095400938000000000000
B0449053200483S11704866EA0095400936000000000000
B0449093200433S11704934EA0095800942000000000000
B0449133200404S11705015EA0096700949000000000000
B0449173200420S11705089EA0097300955000000000000
B0449213200473S11705095EA0097800955000000000000
B0449253200499S11705024EA0097600953000000000000
B0449293200466S11704940EA0097500957000000000000
B0449333200399S11704918EA0099300979000000000000
B0449373200357S11704970EA0100800986000000000000
B0449413200371S11705030EA0100700984000000000000
B0449453200421S11705017EA0101000986000000000000
B0449493200425S11704948EA0101600997000000000000
B0449533200368S11704918EA0102201002000000000000
B0449573200312S11704959EA0102801009000000000000
B0450013200297S11705026EA0103001011000000000000
B0450053200338S11705060EA0102901009000000000000
B0450093200386S11705031EA0102901009000000000000
B0450133200388S11704961EA0103101011000000000000
B0450173200340S11704898EA0103001013000000000000
B0450213200270S11704872EA0103801025000000000000
B0450253200238S11704926EA0105201039000000000000
B0450293200280S11704948EA0105301037000000000000
B0450333200301S11704887EA0105601040000000000000
B0450373200256S11704826EA0105701040000000000000
B0450413200184S11704829EA0106101051000000000000
B0450453200141S11704890EA0107401063000000000000
B0450493200149S11704960EA0108001069000000000000
B0450533200197S11704982EA0108301072000000000000
B0450573200231S11704929EA0108601075000000000000
B0451013200210S11704859EA0109101080000000000000
B0451053200144S11704827EA0109601085000000000000
B0451093200084S11704870EA0110501097000000000000
B0451133200069S11704942EA0111401106000000000000
B0451173200109S11704977EA0111801108000000000000
B0451213200150S11704938EA0111901110000000000000
B0451253200144S11704869EA0112401115000000000000
B0451293200087S11704827EA0112601117000000000000
B0451333200019S11704843EA0113301126000000000000
B0451373159983S11704904EA0113401130000000000000
B0451413200000S11704966EA0113601132000000000000
B0451453200050S11704970EA0113501129000000000000
B0451493200083S11704920EA0114101137000000000000
B0451533200062S11704853EA0114501141000000000000
B0451573200001S11704835EA0115701158000000000000
B0452013159949S11704875EA0116101157000000000000
B0452053159928S11704948EA0115401149000000000000
B0452093159944S11705018EA0115401153000000000000
B0452133159976S11705087EA0113601122000000000000
B0452173200009S11705177EA0110401096000000000000
B0452213200037S11705275EA0108601080000000000000
B0452253200065S11705373EA0107201065000000000000
B0452293200088S11705476EA0106201056000000000000
B0452333200108S11705579EA0105901056000000000000
B0452373200137S11705670EA0106101053000000000000
B0452413200180S11705756EA0104901041000000000000
B0452453200222S11705841EA0105501051000000000000
B0452493200266S11705918EA0106401057000000000000
B0452533200318S11705990EA0105401036000000000000
B0452573200371S11706066EA0103301020000000000000
B0453013200425S11706147EA0102001002000000000000
B0453053200483S11706227EA0100200986000000000000
B0453093200546S11706304EA0099100976000000000000
B0453133200609S11706382EA0097100955000000000000
B0453173200663S11706478EA0095100940000000000000
B0453213200703S11706578EA0095300943000000000000
B0453253200732S11706682EA0095800948000000000000
B0453293200756S11706781EA0096500952000000000000
B0453333200799S11706863EA0097300964000000000000
B0453373200860S11706913EA0097900967000000000000
B0453413200921S11706957EA0098200959000000000000
B0453453200990S11706989EA0096600944000000000000
B0453493201064S11707017EA0095500934000000000000
B0453533201138S11707045EA0094200919000000000000
B0453573201211S11707085EA0092400903000000000000
B0454013201288S11707118EA0091200892000000000000
B0454053201361S11707169EA0089500874000000000000
B0454093201402S11707253EA0089700880000000000000
B0454133201414S11707343EA0090800890000000000000
B0454173201405S11707433EA0090000875000000000000
B0454213201370S11707520EA0088700866000000000000
B0454253201326S11707603EA0088000858000000000000
B0454293201276S11707682EA0087000847000000000000
B0454333201222S11707758EA0086100839000000000000
B0454373201168S11707829EA0085900838000000000000
B0454413201118S11707902EA0085400831000000000000
B0454453201067S11707975EA0084400821000000000000
B0454493201014S11708046EA0083900820000000000000
B0454533200968S11708119EA0084600829000000000000
B0454573200960S11708206EA0085500838000000000000
B0455013201001S11708248EA0087300850000000000000
B0455053201018S11708185EA0089100863000000000000
B0455093200968S11708142EA0090300879000000000000
B0455133200910S11708168EA0091600892000000000000
B0455173200893S11708239EA0092500904000000000000
B0455213200930S11708280EA0093600915000000000000
B0455253200971S11708245EA0094300922000000000000
B0455293200956S11708176EA0094900927000000000000
B0455333200891S11708154EA0095700941000000000000
B0455373200834S11708198EA0096800950000000000000
B0455413200817S11708272EA0097700960000000000000
B0455453200841S11708331EA0098100963000000000000
B0455493200890S11708336EA0098000961000000000000
B0455533200920S11708276EA0097300948000000000000
B0455573200888S11708197EA0096200944000000000000
B0456013200823S11708140EA0096800959000000000000
B0456053200760S11708181EA0098600977000000000000
B0456093200765S11708253EA0099800986000000000000
B0456133200810S11708285EA0100400989000000000000
B0456173200842S11708241EA0101401002000000000000
B0456213200798S11708193EA0102401015000000000000
B0456253200734S11708220EA0103001023000000000000
B0456293200717S11708288EA0104301037000000000000
B0456333200751S11708330EA0104501034000000000000
B0456373200798S11708309EA0103301018000000000000
B0456413200778S11708239EA0102701015000000000000
B0456453200711S11708192EA0102801020000000000000
B0456493200631S11708194EA0103101019000000000000
B0456533200598S11708263EA0103201020000000000000
B0456573200629S11708327EA0102601013000000000000
B0457013200685S11708353EA0101901007000000000000
B0457053200728S11708305EA0102201007000000000000
B0457093200709S11708229EA0101801002000000000000
B0457133200650S11708167EA0101901011000000000000
B0457173200589S11708105EA0102601017000000015000
B0457213200517S11708094EA0102801021000000000000
B0457253200500S11708159EA0102701015000000000000
B0457293200534S11708218EA0101501006000000000000
B0457333200582S11708266EA0101201007000000000000
B0457373200634S11708298EA0101601007000000000000
B0457413200698S11708318EA0100100983000000000000
B0457453200769S11708330EA0098100969000000000000
B0457493200829S11708378EA0097500962000000000000
B0457533200836S11708462EA0097400963000000000000
B0457573200798S11708544EA0096500945000000000000
B0458013200730S11708613EA0094100921000000000000
B0458053200656S11708678EA0092300907000000000000
B0458093200581S11708743EA0091400897000000000000
B0458133200507S11708808EA0089900883000000000000
B0458173200433S11708877EA0088700871000000000000
B0458213200360S11708947EA0087400856000000000000
B0458253200288S11709019EA0086100843000000000000
B0458293200218S11709093EA0085400836000000000000
B0458333200150S11709165EA0084900832000000000000
B0458373200087S11709238EA0084300825000000000000
B0458413200024S11709312EA0083400815000000000000
B0458453159959S11709389EA0083000812000000000000
B0458493159898S11709466EA0083000812000000000000
B0458533159837S11709541EA0083200817000000000000
B0458573159780S11709609EA0085000835000000000000
B0459013159745S11709678EA0086600857000000000000
B0459053159784S11709710EA0088900876000000000000
B0459093159810S11709649EA0089700885000000000000
B0459133159763S11709601EA0090600890000000000000
B0459173159706S11709615EA0090600887000000000000
B0459213159680S11709674EA0091000899000000000000
B0459253159716S11709702EA0092300906000000000000
B0459293159746S11709645EA0092000899000000000000
B0459333159708S11709578EA0091600896000000000000
B0459373159637S11709566EA0091700899000000000000
B0459413159582S11709610EA0092600915000000000000
B0459453159614S11709649EA0093900926000000000000
B0459493159637S11709591EA0095000937000000000000
B0459533159588S11709541EA0096600957000000000000
B0459573159532S11709566EA0097900968000000000000
B0500013159528S11709626EA0098800977000000000000
B0500053159573S11709644EA0099000977000000000000
B0500093159607S11709589EA0099400984000000000000
B0500133159576S11709519EA0100700998000000000000
B0500173159511S11709519EA0101901009000000000000
B0500213159484S11709578EA0102801018000000000000
B0500253159515S11709622EA0103501025000000000000
B0500293159560S11709592EA0103901026000000000000
B0500333159550S11709515EA0104101030000000000000
B0500373159485S11709493EA0105401047000000000000
B0500413159454S11709544EA0107001062000000000000
B0500453159476S11709589EA0107501065000000000000
B0500493159519S11709568EA0108001069000000000000
B0500533159520S11709497EA0108501075000000000000
B0500573159463S11709454EA0109301083000000000000
B0501013159408S11709480EA0110201092000000000000
B0501053159406S11709539EA0110601095000000000000
B0501093159448S11709554EA0110801099000000000000
B0501133159477S11709503EA0111301106000000000000
B0501173159454S11709431EA0112101116000000015000
B0501213159394S11709392EA0112601119000000015000
B0501253159343S11709428EA0112101112000000000000
B0501293159347S11709490EA0112101115000000000000
B0501333159390S11709532EA0111901115000000000000
B0501373159445S11709528EA0112501122000000000000
B0501413159458S11709458EA0113101124000000000000
B0501453159407S11709396EA0113401127000000000000
B0501493159341S11709402EA0113701134000000000000
B0501533159315S11709461EA0114001136000000000000
B0501573159343S11709510EA0114401140000000000000
B0502013159395S11709505EA0114401137000000000000
B0502053159421S11709438EA0114701140000000000000
B0502093159400S11709354EA0114301136000000000000
B0502133159339S11709305EA0114501140000000000000
B0502173159285S11709331EA0115001142000000000000
B0502213159296S11709383EA0114401134000000000000
B0502253159352S11709383EA0112901119000000000000
B0502293159419S11709350EA0110901104000000000000
B0502333159493S11709328EA0110001094000000000000
B0502373159568S11709321EA0109401091000000000000
B0502413159643S11709302EA0108301074000000000000
B0502453159718S11709260EA0107001064000000000000
B0502493159786S11709203EA0105801052000000000000
B0502533159854S11709147EA0105001045000000000000
B0502573159919S11709090EA0104301037000000000000
B0503013159983S11709033EA0103601029000000000000
B0503053200046S11708977EA0103401030000000000000
B0503093200109S11708924EA0102901023000000000000
B0503133200173S11708870EA0102201010000000000000
B0503173200239S11708822EA0101000996000000000000
B0503213200308S11708781EA0100801002000000000000
B0503253200377S11708761EA0101701007000000000000
B0503293200446S11708760EA0101501000000000000000
B0503333200514S11708773EA0100800992000000000000
B0503373200586S11708777EA0099200978000000000000
B0503413200660S11708768EA0097800963000000000000
B0503453200734S11708752EA0097200959000000000000
B0503493200808S11708731EA0097000955000000000000
B0503533200881S11708714EA0096900961000000000000
B0503573200942S11708691EA0099100986000000000000
B0504013200936S11708631EA0101701005000000000000
B0504053200873S11708631EA0101601003000000000000
B0504093200856S11708697EA0102701014000000000000
B0504133200890S11708744EA0102501010000000000000
B0504173200938S11708738EA0102501010000000000000
B0504213200930S11708674EA0101800996000000000000
B0504253200862S11708632EA0100800996000000000000
B0504293200789S11708627EA0102101010000000000000
B0504333200777S11708688EA0103301017000000000000
B0504373200825S11708699EA0102901010000000000000
B0504413200838S11708635EA0102801011000000000000
B0504453200791S11708584EA0103801024000000000000
B0504493200734S11708600EA0104601028000000000000
B0504533200715S11708664EA0104301024000000000000
B0504573200745S11708721EA0104201027000000000000
B0505013200797S11708730EA0103801017000000000000
B0505053200860S11708718EA0102001000000000000000
B0505093200928S11708700EA0101601005000000000000
B0505133200998S11708686EA0102201014000000000000
B0505173201064S11708669EA0104101034000000000000
B0505213201086S11708613EA0106501059000000000000
B0505253201033S11708582EA0107101062000000015000
B0505293200982S11708625EA0107301070000000000000
B0505333200982S11708692EA0108101078000000000000
B0505373201027S11708699EA0109201085000000000000
B0505413201024S11708632EA0109201083000000000000
B0505453200960S11708612EA0110001094000000000000
B0505493200907S11708655EA0111301108000000000000
B0505533200903S11708717EA0112401120000000000000
B0505573200945S11708738EA0112801120000000000000
B0506013200975S11708687EA0112901124000000000000
B0506053200943S11708623EA0113601137000000000000
B0506093200878S11708613EA0115301151000000000000
B0506133200837S11708668EA0116001157000000000000
B0506173200850S11708731EA0116601163000000000000
B0506213200898S11708738EA0117601175000000000000
B0506253200921S11708690EA0118601182000000000000
B0506293200890S11708630EA0118501182000000000000
B0506333200825S11708623EA0119601194000000000000
B0506373200787S11708678EA0119901195000000000000
B0506413200797S11708744EA0120001199000000000000
B0506453200841S11708759EA0120701207000000000000
B0506493200864S11708705EA0121501210000000000000
B0506533200836S11708642EA0122001222000000000000
B0506573200777S11708640EA0123801242000000000000
B0507013200747S11708692EA0124001237000000000000
B0507053200769S11708749EA0123501235000000000000
B0507093200819S11708757EA0123901242000000000000
B0507133200849S11708707EA0124901253000000000000
B0507173200806S11708653EA0125301255000000000000
B0507213200739S11708677EA0125701258000000000000
B0507253200716S11708748EA0126301263000000000000
B0507293200748S11708796EA0126801269000000000000
B0507333200802S11708786EA0127201272000000000000
B0507373200832S11708725EA0127201270000000000000
B0507413200806S11708648EA0126901272000000000000
B0507453200739S11708608EA0127601279000000000000
B0507493200673S11708640EA0128801291000000000000
B0507533200641S11708712EA0129301293000000000000
B0507573200654S11708783EA0129101291000000000000
B0508013200708S11708818EA0129201295000000000000
B0508053200772S11708830EA0129301295000000000000
B0508093200841S11708827EA0129001287000000000000
B0508133200917S11708818EA0126901269000000000000
B0508173200998S11708812EA0125901262000000000000
B0508213201080S11708794EA0125001252000000000000
B0508253201157S11708762EA0124901255000000000000
B0508293201229S11708725EA0125501258000000000000
B0508333201302S11708687EA0125001252000000000000
B0508373201378S11708649EA0124401245000000000000
B0508413201456S11708612EA0123201231000000000000
B0508453201535S11708569EA0122201219000000000000
B0508493201614S11708523EA0120801205000000000000
B0508533201696S11708480EA0119301192000000000000
B0508573201778S11708440EA0118401181000000000000
B0509013201861S11708402EA0116701163000000000000
B0509053201947S11708367EA0114401138000000000000
B0509093202037S11708333EA0113301134000000000000
B0509133202123S11708298EA0113801137000000000000
B0509173202210S11708265EA0112901128000000000000
B0509213202301S11708239EA0112101116000000000000
B0509253202388S11708215EA0112901136000000000000
B0509293202467S11708200EA0115101151000000000000
B0509333202544S11708197EA0116001157000000000000
B0509373202618S11708192EA0116101155000000000000
B0509413202691S11708188EA0115701147000000000000
B0509453202763S11708181EA0114401134000000000000
B0509493202843S11708181EA0112901119000000000000
B0509533202925S11708181EA0111901113000000000000
B0509573203004S11708180EA0111101099000000000000
B0510013203088S11708177EA0109501077000000000000
B0510053203174S11708158EA0107301057000000000000
B0510093203263S11708131EA0105501046000000000000
B0510133203350S11708102EA0104401033000000000000
B0510173203433S11708075EA0103501026000000000000
B0510213203516S11708045EA0102401012000000000000
B0510253203597S11708015EA0101901012000000000000
B0510293203670S11707982EA0102401012000000000000
B0510333203742S11707951EA0102001007000000000000
B0510373203813S11707917EA0102001010000000000000
B0510413203881S11707882EA0102601017000000000000
B0510453203949S11707849EA0103301020000000000000
B0510493204013S11707813EA0103401023000000000000
B0510533204078S11707777EA0102000999000000000000
B0510573204152S11707739EA0099600976000000000000
B0511013204232S11707704EA0098500971000000000000
B0511053204308S11707672EA0099800987000000000000
B0511093204378S11707644EA0101000998000000000000
B0511133204444S11707620EA0102401017000000000000
B0511173204450S11707561EA0104801036000000000000
B0511213204386S11707560EA0104401024000000000000
B0511253204347S11707629EA0103701030000000000000
B0511293204355S11707699EA0105001041000000000000
B0511333204399S11707741EA0105201037000000000000
B0511373204457S11707763EA0104801038000000000000
B0511413204478S11707712EA0105801048000000000000
B0511453204418S11707686EA0106501060000000000000
B0511493204373S11707733EA0106901063000000000000
B0511533204381S11707799EA0106701057000000000000
B0511573204430S11707828EA0106301057000000000000
B0512013204490S11707828EA0106201053000000000000
B0512053204550S11707815EA0105801049000000000000
B0512093204612S11707791EA0104801037000000000000
B0512133204678S11707760EA0103701021000000000000
B0512173204752S11707732EA0102301014000000000000
B0512213204825S11707708EA0102101014000000000000
B0512253204895S11707681EA0103001026000000000000
B0512293204964S11707648EA0103301024000000000000
B0512333205029S11707647EA0104701048000000000000
B0512373204999S11707707EA0107701089000000015000
B0512413204945S11707668EA0109301093000000015000
B0512453204962S11707612EA0110601104000000015000
B0512493205006S11707630EA0110801099000000000000
B0512533204984S11707700EA0110501105000000000000
B0512573204919S11707699EA0111901114000000000000
B0513013204902S11707631EA0112601117000000000000
B0513053204953S11707605EA0112801123000000000000
B0513093204964S11707672EA0114101137000000000000
B0513133204903S11707685EA0115101145000000000000
B0513173204880S11707617EA0115501150000000000000
B0513213204928S11707587EA0115901156000000000000
B0513253204950S11707654EA0116801163000000000000
B0513293204897S11707699EA0118001176000000000000
B0513333204846S11707654EA0118901182000000000000
B0513373204863S11707586EA0118701177000000000000
B0513413204924S11707594EA0118701185000000000000
B0513453204940S11707669EA0120001200000000000000
B0513493204886S11707713EA0121701214000000000000
B0513533204837S11707669EA0122201212000000000000
B0513573204860S11707602EA0121801212000000000000
B0514013204919S11707602EA0122901229000000000000
B0514053204914S11707668EA0125101251000000000000
B0514093204854S11707687EA0125501247000000000000
B0514133204806S11707634EA0124801241000000000000
B0514173204823S11707563EA0125001245000000000000
B0514213204885S11707553EA0125301248000000000000
B0514253204910S11707624EA0126501260000000000000
B0514293204859S11707676EA0127501270000000000000
B0514333204797S11707648EA0127601266000000000000
B0514373204784S11707572EA0127101263000000000000
B0514413204836S11707522EA0127201266000000000000
B0514453204905S11707526EA0127501271000000000000
B0514493204916S11707599EA0128401283000000000000
B0514533204860S11707642EA0129801292000000000000
B0514573204794S11707637EA0129701288000000000000
B0515013204725S11707611EA0129301286000000000000
B0515053204668S11707560EA0129501287000000000000
B0515093204658S11707481EA0129801293000000000000
B0515133204691S11707414EA0129401287000000000000
B0515173204755S11707373EA0127701266000000000000
B0515213204833S11707344EA0125701248000000000000
B0515253204920S11707323EA0124301238000000000000
B0515293205010S11707316EA0123501231000000000000
B0515333205100S11707321EA0122801226000000000000
B0515373205189S11707338EA0122401223000000000000
B0515413205278S11707373EA0121901219000000000000
B0515453205362S11707407EA0122301224000000000000
B0515493205443S11707439EA0121601211000000000000
B0515533205530S11707456EA0119801188000000000000
B0515573205625S11707439EA0116901164000000000000
B0516013205717S11707422EA0117901178000000000000
B0516053205807S11707420EA0118101178000000000000
B0516093205894S11707413EA0118101178000000000000
B0516133205980S11707395EA0118301187000000000000
B0516173206056S11707379EA0119701199000000000000
B0516213206129S11707361EA0120501198000000000000
B0516253206205S11707351EA0119701188000000000000
B0516293206286S11707345EA0118401175000000000000
B0516333206371S11707343EA0117301168000000000000
B0516373206457S11707338EA0116201154000000000000
B0516413206546S11707335EA0114301134000000000000
B0516453206639S11707321EA0113101124000000000000
B0516493206726S11707291EA0112601118000000000000
B0516533206809S11707254EA0112301118000000000000
B0516573206886S11707209EA0112001111000000000000
B0517013206965S11707162EA0111601112000000000000
B0517053207047S11707140EA0112401117000000000000
B0517093207122S11707180EA0112901117000000000000
B0517133207199S11707215EA0111001097000000000000
B0517173207284S11707236EA0109201079000000000000
B0517213207369S11707238EA0108101068000000000000
B0517253207458S11707226EA0106601054000000000000
B0517293207547S11707206EA0105501043000000000000
B0517333207629S11707186EA0106601067000000000000
B0517373207702S11707167EA0108801080000000000000
B0517413207776S11707157EA0109301082000000000000
B0517453207852S11707140EA0110301097000000000000
B0517493207889S11707088EA0112501116000000000000
B0517533207832S11707054EA0112801111000000000000
B0517573207789S11707118EA0113001122000000000000
B0518013207801S11707191EA0115301147000000000000
B0518053207846S11707223EA0117101163000000000000
B0518093207892S11707193EA0118101167000000000000
B0518133207880S11707127EA0117601164000000000000
B0518173207819S11707108EA0118301174000000000000
B0518213207774S11707161EA0119001183000000000000
B0518253207783S11707230EA0120801202000000000000
B0518293207835S11707243EA0121601207000000000000
B0518333207856S11707186EA0122101214000000000000
B0518373207809S11707148EA0122201215000000000000
B0518413207753S11707175EA0122601223000000000000
B0518453207740S11707245EA0123801238000000000000
B0518493207774S11707300EA0124301237000000000000
B0518533207832S11707293EA0124501241000000000000
B0518573207859S11707235EA0125201251000000000000
B0519013207817S11707200EA0126301260000000000000
B0519053207767S11707240EA0126301262000000000000
B0519093207755S11707314EA0126901266000000000000
B0519133207778S11707381EA0127201271000000000000
B0519173207826S11707423EA0127601279000000000000
B0519213207880S11707425EA0128201279000000000000
B0519253207889S11707368EA0127901272000000000000
B0519293207837S11707326EA0127401272000000000000
B0519333207767S11707308EA0127201273000000000000
B0519373207714S11707347EA0128301286000000000000
B0519413207726S11707417EA0128601281000000000000
B0519453207784S11707452EA0128201285000000000000
B0519493207850S11707461EA0127701276000000000000
B0519533207922S11707457EA0125301247000000000000
B0519573208005S11707446EA0121401207000000000000
B0520013208097S11707423EA0119201193000000000000
B0520053208188S11707405EA0118901191000000000000
B0520093208278S11707391EA0118301187000000000000
B0520133208366S11707377EA0118001184000000000000
B0520173208451S11707355EA0118101186000000000000
B0520213208532S11707335EA0119101189000000000000
B0520253208611S11707314EA0119001188000000000000
B0520293208697S11707303EA0118501185000000000000
B0520333208776S11707286EA0120201207000000000000
B0520373208849S11707266EA0121001207000000000000
B0520413208923S11707243EA0120901206000000000000
B0520453208997S11707215EA0120601199000000000000
B0520493209074S11707186EA0119501191000000000000
B0520533209152S11707150EA0118701181000000000000
B0520573209231S11707119EA0117601164000000000000
B0521013209315S11707092EA0115601146000000000000
B0521053209401S11707067EA0114401135000000000000
B0521093209488S11707059EA0114601144000000000000
B0521133209562S11707053EA0117601178000000000000
B0521173209625S11707043EA0120101191000000000000
B0521213209678S11707011EA0121201203000000000000
B0521253209670S11706944EA0122501216000000000000
B0521293209612S11706940EA0123201223000000000000
B0521333209587S11707005EA0124301235000000000000
B0521373209618S11707056EA0125501245000000000000
B0521413209665S11707037EA0126001247000000000000
B0521453209669S11706971EA0125101237000000000000
B0521493209624S11706913EA0125201243000000000000
B0521533209568S11706923EA0126101252000000000000
B0521573209578S11706994EA0126301255000000000000
B0522013209630S11706994EA0127401265000000000000
B0522053209634S11706927EA0127101263000000000000
B0522093209579S11706905EA0128501282000000000000
B0522133209542S11706950EA0129401284000000000000
B0522173209555S11707020EA0129101284000000000000
B0522213209608S11707027EA0129901294000000000000
B0522253209633S11706966EA0130001288000000000000
B0522293209620S11706887EA0129201285000000000000
B0522333209579S11706819EA0129801297000000000000
B0522373209518S11706836EA0131601315000000000000
B0522413209504S11706906EA0133001324000000000000
B0522453209543S11706953EA0133601329000000000000
B0522493209590S11706924EA0133901335000000000000
B0522533209572S11706863EA0134701345000000000000
B0522573209512S11706862EA0135401349000000000000
B0523013209482S11706929EA0135701356000000000000
B0523053209512S11706993EA0136701366000000000000
B0523093209569S11706992EA0137401371000000000000
B0523133209591S11706933EA0137701373000000000000
B0523173209559S11706874EA0137801378000000000000
B0523213209497S11706857EA0138701388000000000000
B0523253209442S11706893EA0139201391000000000000
B0523293209422S11706967EA0139101395000000000000
B0523333209445S11707037EA0139901404000000000000
B0523373209497S11707075EA0140201403000000000000
B0523413209562S11707079EA0138701382000000000000
B0523453209639S11707076EA0136201358000000000000
B0523493209726S11707066EA0133101330000000000000
B0523533209819S11707052EA0131101312000000000000
B0523573209912S11707035EA0129901303000000000000
B0524013210004S11707018EA0129501297000000000000
B0524053210097S11707000EA0128201281000000000000
B0524093210184S11706976EA0128101288000000000000
B0524133210267S11706952EA0128501280000000000000
B0524173210354S11706929EA0126601263000000000000
B0524213210441S11706909EA0125901260000000000000
B0524253210527S11706889EA0125601255000000000000
B0524293210609S11706874EA0125401254000000000000
B0524333210686S11706858EA0125701253000000000000
B0524373210765S11706846EA0124801245000000000000
B0524413210847S11706838EA0124101238000000000000
B0524453210930S11706829EA0124101241000000000000
B0524493211013S11706824EA0125001258000000000000
B0524533211086S11706819EA0127701276000000000000
B0524573211154S11706811EA0128201275000000000000
B0525013211217S11706792EA0128001275000000000000
B0525053211278S11706766EA0127401263000000000000
B0525093211349S11706741EA0124501232000000000000
B0525133211434S11706731EA0121401209000000000000
B0525173211525S11706728EA0120201199000000000000
B0525213211615S11706727EA0119701193000000000000
B0525253211704S11706724EA0118901180000000000000
B0525293211793S11706720EA0117301166000000000000
B0525333211886S11706719EA0115901152000000000000
B0525373211977S11706715EA0115701157000000000000
B0525413212060S11706705EA0117301171000000000000
B0525453212133S11706697EA0118501183000000000000
B0525493212196S11706689EA0119301185000000000000
B0525533212259S11706679EA0118301162000000000000
B0525573212330S11706668EA0115301135000000000000
B0526013212411S11706663EA0113201121000000000000
B0526053212493S11706663EA0112801122000000000000
B0526093212571S11706659EA0113401130000000000000
B0526133212643S11706655EA0113701128000000000000
B0526173212714S11706645EA0113101119000000000000
B0526213212786S11706633EA0111601102000000000000
B0526253212863S11706621EA0110701097000000000000
B0526293212942S11706612EA0110601093000000000000
B0526333213013S11706601EA0112201113000000000000
B0526373213076S11706588EA0113101115000000000000
B0526413213147S11706576EA0112101099000000000000
B0526453213222S11706562EA0110601090000000000000
B0526493213295S11706541EA0109401073000000000000
B0526533213373S11706515EA0106701048000000000000
B0526573213453S11706484EA0104901034000000000000
B0527013213537S11706460EA0103701023000000000000
B0527053213616S11706437EA0103601029000000000000
B0527093213686S11706413EA0104401031000000000000
B0527133213756S11706393EA0103801022000000000000
B0527173213832S11706380EA0102801011000000000000
B0527213213912S11706376EA0100900991000000000000
B0527253213997S11706376EA0099700984000000000000
B0527293214076S11706378EA0099600981000000000000
B0527333214151S11706383EA0098800969000000000000
B0527373214228S11706382EA0097100947000000000000
B0527413214305S11706372EA0095800939000000000000
B0527453214383S11706365EA0095000929000000000000
B0527493214461S11706357EA0094700930000000000000
B0527533214538S11706342EA0094800929000000000000
B0527573214609S11706329EA0095500931000000000000
B0528013214682S11706313EA0093500903000000000000
B0528053214764S11706313EA0091000886000000000000
B0528093214843S11706317EA0090300882000000000000
B0528133214917S11706322EA0089800870000000000000
B0528173214994S11706341EA0087700846000000000000
B0528213215073S11706341EA0086300838000000000000
B0528253215147S11706318EA0085500827000000000000
B0528293215215S11706278EA0084800820000000000000
B0528333215284S11706233EA0083800811000000000000
B0528373215351S11706182EA0083000797000000000000
B0528413215419S11706127EA0081800790000000000000
B0528453215485S11706074EA0081100781000000000000
B0528493215552S11706018EA0079900768000000000000
B0528533215619S11705962EA0078800760000000000000
B0528573215687S11705910EA0079100765000000000000
B0529013215752S11705857EA0079500766000000000000
B0529053215825S11705831EA0079900774000000000000
B0529093215895S11705827EA0081600791000000000000
B0529133215956S11705805EA0082400797000000000000
B0529173215962S11705743EA0083100799000000000000
B0529213215913S11705706EA0082400788000000000000
B0529253215849S11705719EA0081700783000000000000
B0529293215804S11705782EA0081300786000000000000
B0529333215813S11705854EA0083400809000000000000
B0529373215869S11705878EA0084500816000000000000
B0529413215901S11705827EA0084900819000000000000
B0529453215870S11705775EA0084500813000000000000
B0529493215810S11705796EA0083700809000000000000
B0529533215780S11705866EA0084200819000000000000
B0529573215817S11705906EA0087200846000000000000
B0530013215847S11705858EA0088000853000000000000
B0530053215810S11705814EA0088000850000000000000
B0530093215754S11705831EA0088100856000000000000
B0530133215739S11705892EA0089100866000000000000
B0530173215778S11705936EA0089500868000000000000
B0530213215839S11705927EA0089200866000000000000
B0530253215867S11705869EA0089400870000000000000
B0530293215819S11705836EA0089200864000000000000
B0530333215774S11705886EA0088700867000000000000
B0530373215776S11705962EA0090400887000000000000
B0530413215822S11706008EA0092000898000000000000
B0530453215884S11705995EA0092200899000000000000
B0530493215919S11705939EA0092700904000000000000
B0530533215913S11705878EA0092900904000000000000
B0530573215870S11705841EA0092000893000000000000
B0531013215817S11705860EA0091200883000000000000
B0531053215813S11705934EA0090600881000000000000
B0531093215853S11706001EA0090100877000000000000
B0531133215913S11706042EA0090200883000000000000
B0531173215961S11706000EA0091000884000000000000
B0531213215940S11705940EA0090900884000000000000
B0531253215886S11705923EA0090600878000000000000
B0531293215851S11705977EA0089300862000000000000
B0531333215886S11706038EA0088600864000000000000
B0531373215949S11706066EA0088000855000000000000
B0531413216022S11706090EA0086700844000000000000
B0531453216098S11706104EA0085500832000000000000
B0531493216174S11706116EA0084300822000000000000
B0531533216252S11706118EA0083800815000000000000
B0531573216332S11706107EA0082900805000000000000
B0532013216410S11706088EA0082200796000000000000
B0532053216489S11706060EA0080600778000000000000
B0532093216566S11706027EA0079500771000000000000
B0532133216640S11705995EA0078800760000000000000
B0532173216715S11705965EA0077900753000000000000
B0532213216787S11705931EA0077100741000000000000
B0532253216857S11705892EA0076400734000000000000
B0532293216923S11705849EA0076200731000000000000
B0532333216988S11705810EA0076300735000000000000
B0532373217060S11705792EA0076200729000000000000
B0532413217131S11705778EA0075700723000000000000
B0532453217201S11705765EA0075300724000000000000
B0532493217264S11705739EA0076000728000000000000
B0532533217261S11705670EA0077000739000000000000
B0532573217201S11705653EA0076900731000000000000
B0533013217158S11705704EA0076300725000000000000
B0533053217149S11705776EA0075800717000000000000
B0533093217186S11705834EA0075000711000000000000
B0533133217242S11705874EA0074400713000000000000
B0533173217301S11705892EA0075600725000000000000
B0533213217342S11705848EA0076200728000000000000
B0533253217309S11705785EA0076100725000000000000
B0533293217245S11705793EA0076000727000000000000
B0533333217221S11705858EA0076400730000000000000
B0533373217252S11705909EA0076900736000000000000
B0533413217307S11705901EA0076900731000000000000
B0533453217331S11705836EA0076200725000000000000
B0533493217284S11705779EA0075600722000000000000
B0533533217213S11705754EA0076000730000000000000
B0533573217178S11705802EA0077400745000000000000
B0534013217218S11705828EA0077600739000000000000
B0534053217245S11705763EA0077900748000000000000
B0534093217205S11705705EA0079000766000000000000
B0534133217144S11705710EA0079900769000000000000
B0534173217113S11705769EA0079700765000000000000
B0534213217135S11705828EA0079300763000000000000
B0534253217192S11705839EA0079400765000000000000
B0534293217229S11705776EA0079700768000000000000
B0534333217195S11705713EA0081300785000000000000
B0534373217144S11705737EA0082100791000000000000
B0534413217149S11705795EA0081600785000000000000
B0534453217203S11705801EA0081500788000000000000
B0534493217242S11705740EA0081900789000000000000
B0534533217213S11705676EA0083100804000000000000
B0534573217160S11705702EA0083800808000000000000
B0535013217171S11705763EA0084100816000000000000
B0535053217223S11705772EA0084800822000000000000
B0535093217262S11705723EA0084800822000000000000
B0535133217236S11705662EA0085700836000000000000
B0535173217179S11705662EA0086200836000000000000
B0535213217144S11705713EA0086600840000000000000
B0535253217166S11705767EA0087000847000000000000
B0535293217219S11705772EA0087000842000000000000
B0535333217252S11705713EA0086600839000000000000
B0535373217221S11705653EA0087300851000000000000
B0535413217166S11705672EA0087800852000000000000
B0535453217157S11705736EA0088000857000000000000
B0535493217205S11705761EA0087700850000000000000
B0535533217256S11705714EA0087100847000000000000
B0535573217251S11705641EA0087700853000000000000
B0536013217196S11705610EA0088200859000000000000
B0536053217161S11705665EA0088600862000000000000
B0536093217199S11705717EA0089600876000000000000
B0536133217253S11705697EA0090300879000000000000
B0536173217265S11705626EA0089900872000000000000
B0536213217219S11705580EA0090100880000000000000
B0536253217167S11705609EA0091000889000000000000
B0536293217167S11705675EA0092000898000000000000
B0536333217221S11705694EA0092800906000000000000
B0536373217264S11705648EA0093100903000000000000
B0536413217247S11705584EA0092800903000000000000
B0536453217192S11705580EA0093100908000000000000
B0536493217166S11705637EA0093500912000000000000
B0536533217199S11705693EA0094000920000000000000
B0536573217256S11705683EA0094800922000000000000
B0537013217284S11705618EA0093900911000000000000
B0537053217258S11705554EA0093800914000000000000
B0537093217204S11705545EA0093700911000000000000
B0537133217165S11705596EA0093700917000000000000
B0537173217182S11705658EA0094700924000000000000
B0537213217240S11705667EA0095200927000000000000
B0537253217288S11705616EA0094700918000000000000
B0537293217282S11705542EA0093600907000000000000
B0537333217225S11705509EA0092600898000000000000
B0537373217153S11705516EA0092000894000000000000
B0537413217080S11705535EA0092600909000000000000
B0537453217047S11705592EA0094600924000000000000
B0537493217096S11705606EA0095300930000000000000
B0537533217131S11705548EA0096100939000000000000
B0537573217101S11705490EA0097300950000000000000
B0538013217045S11705503EA0097900952000000000000
B0538053217034S11705563EA0098500962000000000000
B0538093217076S11705589EA0098900965000000000000
B0538133217118S11705541EA0098800962000000000000
B0538173217095S11705475EA0099400973000000000000
B0538213217039S11705483EA0100500982000000000000
B0538253217021S11705542EA0100500981000000000000
B0538293217050S11705596EA0100300976000000000000
B0538333217110S11705610EA0099500971000000000000
B0538373217169S11705580EA0100000977000000000000
B0538413217177S11705509EA0100300976000000000000
B0538453217128S11705459EA0100600983000000000000
B0538493217069S11705464EA0101400992000000000000
B0538533217035S11705516EA0101600989000000000000
B0538573217054S11705576EA0101500990000000000000
B0539013217109S11705597EA0101300990000000000000
B0539053217175S11705598EA0100800987000000000000
B0539093217247S11705596EA0099300971000000000000
B0539133217325S11705588EA0097600951000000000000
B0539173217405S11705581EA0096000936000000000000
B0539213217486S11705579EA0094600921000000000000
B0539253217569S11705577EA0093000910000000000000
B0539293217648S11705577EA0093000910000000000000
B0539333217726S11705580EA0092500903000000000000
B0539373217806S11705589EA0092300905000000000000
B0539413217877S11705596EA0093000905000000000000
B0539453217953S11705601EA0091700889000000000000
B0539493218033S11705607EA0090600879000000000000
B0539533218113S11705615EA0089700867000000000000
B0539573218194S11705623EA0088400852000000000000
B0540013218278S11705632EA0086500832000000000000
B0540053218363S11705642EA0084800813000000000000
B0540093218451S11705652EA0082900795000000000000
B0540133218539S11705659EA0081100777000000000000
B0540173218625S11705670EA0080500776000000000000
B0540213218704S11705679EA0080600772000000000000
B0540253218783S11705694EA0080000761000000000000
B0540293218865S11705713EA0079000753000000000000
B0540333218946S11705735EA0078800758000000000000
B0540373219020S11705762EA0081000783000000000000
B0540413219081S11705752EA0084200810000000000000
B0540453219077S11705688EA0085800813000000000000
B0540493219012S11705676EA0084800805000000000000
B0540533218964S11705736EA0085700817000000000000
B0540573218964S11705811EA0087100836000000000000
B0541013219013S11705811EA0089000852000000000000
B0541053219010S11705746EA0089900860000000000000
B0541093218950S11705731EA0090800872000000000000
B0541133218913S11705791EA0091800885000000000000
B0541173218945S11705844EA0093300900000000000000
B0541213218995S11705822EA0094500913000000000000
B0541253218990S11705758EA0095800924000000000000
B0541293218933S11705740EA0096200932000000000000
B0541333218898S11705791EA0097400946000000000000
B0541373218919S11705848EA0098300956000000000000
B0541413218971S11705865EA0099100958000000000000
B0541453219010S11705819EA0099400967000000000000
B0541493218985S11705758EA0100800982000000000000
B0541533218926S11705763EA0101000980000000000000
B0541573218908S11705828EA0102100999000000000000
B0542013218945S11705874EA0103201005000000000000
B0542053218993S11705844EA0103501010000000000000
B0542093218995S11705776EA0104901026000000000000
B0542133218952S11705730EA0105601029000000000000
B0542173218894S11705740EA0105401028000000000000
B0542213218880S11705802EA0106901047000000000000
B0542253218917S11705839EA0108301057000000000000
B0542293218967S11705817EA0108301061000000000000
B0542333218974S11705749EA0109401073000000000000
B0542373218922S11705711EA0109601071000000000000
B0542413218863S11705737EA0109001067000000000000
B0542453218839S11705800EA0110101084000000000000
B0542493218863S11705860EA0110701082000000000000
B0542533218922S11705876EA0109701076000000000000
B0542573218967S11705826EA0110601089000000000000
B0543013218935S11705759EA0112101103000000000000
B0543053218870S11705763EA0112601107000000000000
B0543093218851S11705824EA0113601119000000000000
B0543133218883S11705875EA0113701118000000000000
B0543173218945S11705888EA0113201115000000000000
B0543213219002S11705860EA0113501125000000000000
B0543253219012S11705788EA0115201143000000000000
B0543293218973S11705727EA0116201147000000000000
B0543333218907S11705713EA0115901144000000000000
B0543373218855S11705756EA0115501143000000000000
B0543413218857S11705826EA0116401154000000000000
B0543453218909S11705853EA0117501164000000000000
B0543493218950S11705804EA0118601175000000000000
B0543533218928S11705733EA0119101180000000000000
B0543573218867S11705705EA0119401180000000000000
B0544013218805S11705732EA0118601170000000000000
B0544053218791S11705801EA0118101169000000000000
B0544093218824S11705862EA0118201168000000000000
B0544133218873S11705922EA0117501168000000000000
B0544173218935S11705965EA0117101162000000000000
B0544213219004S11705999EA0116301155000000000000
B0544253219080S11706026EA0114901143000000000000
B0544293219162S11706045EA0114301136000000000000
B0544333219245S11706062EA0113101122000000000000
B0544373219332S11706073EA0111701109000000000000
B0544413219419S11706079EA0110801093000000000000
B0544453219511S11706086EA0108601073000000000000
B0544493219604S11706094EA0107201060000000000000
B0544533219699S11706104EA0105601043000000000000
B0544573219791S11706117EA0105301044000000000000
B0545013219882S11706133EA0105101041000000000000
B0545053219968S11706149EA0105201038000000000000
B0545093220052S11706170EA0105101038000000000000
B0545133220134S11706192EA0104801029000000000000
B0545173220215S11706222EA0103201012000000000000
B0545213220299S11706248EA0101600996000000000000
B0545253220384S11706266EA0101300998000000000000
B0545293220463S11706278EA0101600996000000000000
B0545333220542S11706289EA0101200992000000000000
B0545373220619S11706289EA0101601002000000000000
B0545413220687S11706285EA0104501024000000000000
B0545453220752S11706281EA0103901010000000000000
B0545493220822S11706276EA0102901003000000000000
B0545533220892S11706263EA0102000993000000000000
B0545573220967S11706256EA0100200975000000000000
B0546013221047S11706255EA0098700960000000000000
B0546053221129S11706250EA0097700947000000000000
B0546093221212S11706244EA0096700940000000000000
B0546133221296S11706243EA0095500925000000000000
B0546173221383S11706250EA0094300914000000000000
B0546213221463S11706227EA0094200918000000000000
B0546253221532S11706183EA0094600916000000000000
B0546293221598S11706130EA0094200915000000000000
B0546333221663S11706075EA0094700918000000000000
B0546373221736S11706048EA0095400927000000000000
B0546413221806S11706035EA0095400923000000000000
B0546453221877S11706013EA0094000909000000000000
B0546493221948S11705987EA0093600906000000000000
B0546533222016S11705960EA0093000897000000000000
B0546573222084S11705927EA0091400874000000000000
B0547013222154S11705891EA0089300859000000000000
B0547053222224S11705853EA0087800839000000000000
B0547093222288S11705800EA0086000827000000000000
B0547133222322S11705724EA0086200829000000000000
B0547173222334S11705644EA0085700821000000000000
B0547213222339S11705557EA0084900810000000000000
B0547253222341S11705468EA0084100806000000000000
B0547293222345S11705380EA0084400810000000000000
B0547333222344S11705293EA0085200823000000000000
B0547373222295S11705254EA0087500847000000000000
B0547413222262S11705319EA0088400849000000000000
B0547453222306S11705362EA0089100866000000000000
B0547493222347S11705329EA0090700873000000000000
B0547533222341S11705264EA0091000880000000000000
B0547573222289S11705230EA0091300881000000000000
B0548013222232S11705268EA0091300880000000000000
B0548053222224S11705346EA0091400883000000000000
B0548093222269S11705399EA0092400896000000000000
B0548133222314S11705375EA0094000909000000000000
B0548173222310S11705308EA0094300913000000000000
B0548213222253S11705290EA0095000921000000000000
B0548253222231S11705358EA0094900919000000000000
B0548293222275S11705407EA0095800931000000000000
B0548333222314S11705376EA0097400946000000000000
B0548373222301S11705314EA0097100944000000000000
B0548413222239S11705307EA0097800955000000000000
B0548453222213S11705373EA0098400957000000000000
B0548493222247S11705437EA0098600962000000000000
B0548533222300S11705423EA0099700976000000000000
B0548573222304S11705354EA0100100976000000000000
B0549013222248S11705315EA0100600987000000000000
B0549053222196S11705355EA0101700998000000000000
B0549093222222S11705416EA0102400999000000000000
B0549133222273S11705397EA0102701004000000000000
B0549173222271S11705324EA0102601004000000000000
B0549213222214S11705277EA0103201014000000000000
B0549253222170S11705330EA0103501012000000000000
B0549293222192S11705403EA0103301012000000000000
B0549333222244S11705444EA0104401027000000000000
B0549373222287S11705405EA0105401034000000000000
B0549413222256S11705342EA0105801038000000000000
B0549453222195S11705359EA0106201044000000000000
B0549493222188S11705432EA0107301054000000000000
B0549533222241S11705454EA0108401064000000000000
B0549573222266S11705395EA0108901067000000000000
B0550013222224S11705338EA0108701068000000000000
B0550053222162S11705360EA0109201077000000000000
B0550093222141S11705429EA0110001083000000000000
B0550133222182S11705476EA0110701090000000000000
B0550173222224S11705437EA0111201100000000000000
B0550213222205S11705372EA0113001117000000000000
B0550253222145S11705353EA0113501120000000000000
B0550293222089S11705389EA0113501117000000000000
B0550333222084S11705463EA0113201119000000000000
B0550373222130S11705514EA0114201133000000000000
B0550413222171S11705483EA0115701144000000000000
B0550453222144S11705416EA0115501145000000000000
B0550493222083S11705429EA0117101164000000000000
B0550533222089S11705496EA0118501175000000000000
B0550573222143S11705510EA0119501185000000000000
B0551013222176S11705464EA0120401194000000000000
B0551053222170S11705393EA0120601197000000000000
B0551093222113S11705355EA0121001201000000000000
B0551133222066S11705399EA0121501204000000000000
B0551173222080S11705470EA0121001197000000000000
B0551213222132S11705516EA0121201211000000000000
B0551253222170S11705471EA0123401231000000000000
B0551293222133S11705414EA0124601239000000000000
B0551333222072S11705429EA0125501251000000000000
B0551373222059S11705497EA0126701262000000000000
B0551413222102S11705527EA0127701273000000000000
B0551453222135S11705473EA0128101275000000000000
B0551493222098S11705411EA0128701285000000000000
B0551533222033S11705423EA0129801294000000000000
B0551573222007S11705489EA0130201295000000000000
B0552013222032S11705557EA0130401300000000000000
B0552053222087S11705580EA0131101308000000000000
B0552093222120S11705525EA0132001320000000000000
B0552133222089S11705462EA0132901327000000000000
B0552173222026S11705475EA0133801337000000000000
B0552213222009S11705542EA0134601346000000000000
B0552253222045S11705581EA0135701354000000000000
B0552293222092S11705549EA0135701353000000000000
B0552333222085S11705479EA0136501367000000000000
B0552373222026S11705457EA0137701378000000000000
B0552413221976S11705501EA0138001378000000000000
B0552453221977S11705570EA0139201393000000000000
B0552493222019S11705602EA0140101399000000000000
B0552533222066S11705572EA0139801396000000000000
B0552573222066S11705497EA0139601401000000000000
B0553013222014S11705442EA0140701414000000000000
B0553053221946S11705445EA0141701419000000000000
B0553093221901S11705494EA0142301422000000000000
B0553133221902S11705559EA0142401425000000000000
B0553173221938S11705610EA0142801429000000000000
B0553213221988S11705641EA0143101434000000000000
B0553253222032S11705611EA0144101440000000000000
B0553293222029S11705545EA0142701425000000000000
B0553333221967S11705488EA0142501430000000000000
B0553373221892S11705458EA0143901443000000000000
B0553413221833S11705497EA0144301448000000000000
B0553453221834S11705571EA0144701447000000000000
B0553493221883S11705615EA0144401454000000000000
B0553533221942S11705641EA0145301463000000000000
B0553573222003S11705668EA0145301456000000000000
B0554013222070S11705710EA0143301436000000000000
B0554053222136S11705769EA0141701427000000000000
B0554093222198S11705835EA0141501427000000000000
B0554133222260S11705909EA0140701413000000000000
B0554173222321S11705987EA0139801410000000000000
B0554213222383S11706064EA0140701421000000000000
B0554253222445S11706135EA0142001432000000000000
B0554293222510S11706183EA0144001463000000000000
B0554333222559S11706160EA0148101487000000000000
B0554373222552S11706099EA0147901480000000000000
B0554413222503S11706051EA0147101480000000000000
B0554453222439S11706053EA0148501494000000000000
B0554493222422S11706123EA0150001510000000000000
B0554533222464S11706165EA0151101517000000000000
B0554573222513S11706139EA0151201519000000000000
B0555013222513S11706081EA0152201531000000000000
B0555053222462S11706051EA0152601532000000000000
B0555093222403S11706074EA0153401545000000000000
B0555133222377S11706140EA0154401552000000000000
B0555173222399S11706207EA0155101559000000000000
B0555213222447S11706217EA0155601569000000000000
B0555253222475S11706165EA0155501567000000000000
B0555293222473S11706090EA0156101579000000000000
B0555333222440S11706026EA0156901584000000000000
B0555373222380S11705979EA0156501576000000000000
B0555413222309S11705987EA0157401594000000000000
B0555453222273S11706047EA0158901601000000000000
B0555493222286S11706118EA0158601596000000000000
B0555533222332S11706170EA0158401601000000000000
B0555573222387S11706213EA0159001607000000000000
B0556013222452S11706224EA0159601610000000000000
B0556053222525S11706240EA0159201609000000000000
B0556093222594S11706270EA0158901605000000000000
B0556133222665S11706312EA0155901572000000000000
B0556173222750S11706361EA0152701542000000000000
B0556213222839S11706417EA0151501531000000000000
B0556253222925S11706474EA0151201526000000000000
B0556293223012S11706530EA0150001511000000000000
B0556333223099S11706586EA0148701500000000000000
B0556373223184S11706640EA0149701501000000000000
B0556413223263S11706686EA0148801500000000000000
B0556453223339S11706732EA0147901487000000000000
B0556493223417S11706783EA0146201471000000000000
B0556533223493S11706835EA0146001469000000000000
B0556573223569S11706884EA0145301456000000000000
B0557013223645S11706937EA0143901443000000000000
B0557053223722S11706993EA0142601428000000000000
B0557093223797S11707050EA0141401418000000000000
B0557133223873S11707105EA0140401405000000000000
B0557173223950S11707158EA0138501382000000000000
B0557213224029S11707212EA0136401361000000000000
B0557253224109S11707273EA0134801346000000000000
B0557293224185S11707339EA0135501356000000000000
B0557333224260S11707395EA0136401368000000000000
B0557373224337S11707425EA0138001380000000000000
B0557413224411S11707447EA0138101374000000000000
B0557453224492S11707470EA0137201365000000000000
B0557493224572S11707483EA0137301373000000000000
B0557533224649S11707488EA0136801357000000000000
B0557573224736S11707508EA0133501327000000000000
B0558013224826S11707543EA0131401308000000000000
B0558053224913S11707589EA0129601291000000000000
B0558093224997S11707646EA0128001277000000000000
B0558133225078S11707709EA0126801264000000000000
B0558173225159S11707777EA0125701251000000000000
B0558213225234S11707843EA0124901242000000000000
B0558253225307S11707912EA0123701231000000000000
B0558293225377S11707981EA0122901219000000000000
B0558333225450S11708053EA0121201202000000000000
B0558373225520S11708123EA0120701201000000000000
B0558413225585S11708188EA0120601197000000000000
B0558453225649S11708255EA0119101180000000000000
B0558493225712S11708327EA0118201170000000000000
B0558533225775S11708398EA0117101156000000000000
B0558573225837S11708469EA0115501137000000000000
B0559013225903S11708545EA0112701109000000000000
B0559053225975S11708623EA0111101101000000000000
B0559093226046S11708699EA0110401094000000000000
B0559133226121S11708770EA0109601084000000000000
B0559173226193S11708838EA0109801091000000000000
B0559213226265S11708886EA0111301109000000000000
B0559253226338S11708896EA0112601114000000000000
B0559293226407S11708907EA0113801131000000000000
B0559333226474S11708912EA0114701135000000000000
B0559373226531S11708881EA0116101157000000000000
B0559413226500S11708826EA0118501186000000000000
B0559453226446S11708861EA0118401179000000000000
B0559493226459S11708929EA0119601199000000000000
B0559533226511S11708920EA0121601218000000000000
B0559573226513S11708856EA0122201228000000015000
B0600013226462S11708818EA0123501236000000000000
B0600053226405S11708851EA0123501235000000000000
B0600093226403S11708921EA0125301258000000000000
B0600133226446S11708954EA0127401274000000000000
B0600173226490S11708921EA0128301281000000000000
B0600213226470S11708857EA0128901289000000000000
B0600253226408S11708848EA0129701295000000000000
B0600293226364S11708903EA0130301305000000000000
B0600333226368S11708973EA0131601315000000000000
B0600373226417S11708994EA0132401326000000000000
B0600413226443S11708942EA0133901342000000000000
B0600453226400S11708907EA0135201354000000000000
B0600493226353S11708954EA0135901362000000000000
B0600533226368S11709020EA0137101373000000000000
B0600573226420S11709022EA0138201389000000000000
B0601013226434S11708964EA0139901406000000000000
B0601053226382S11708931EA0140501411000000000000
B0601093226334S11708982EA0141601425000000000000
B0601133226348S11709051EA0142801432000000000000
B0601173226405S11709060EA0144001450000000000000
B0601213226425S11709003EA0146101469000000000000
B0601253226381S11708964EA0147001478000000000000
B0601293226321S11708990EA0148301490000000000000
B0601333226301S11709061EA0148901496000000000000
B0601373226338S11709116EA0149601506000000000000
B0601413226392S11709103EA0150501513000000000000
B0601453226403S11709043EA0151401525000000000000
B0601493226351S11709012EA0152201531000000000000
B0601533226293S11709046EA0153101543000000000000
B0601573226279S11709113EA0154301551000000000000
B0602013226318S11709167EA0154301550000000000000
B0602053226374S11709168EA0154501557000000000000
B0602093226391S11709111EA0155301560000000000000
B0602133226340S11709064EA0155201563000000000000
B0602173226271S11709054EA0156701580000000000000
B0602213226221S11709099EA0158401594000000000000
B0602253226226S11709171EA0158401591000000000000
B0602293226279S11709203EA0158501599000000000000
B0602333226332S11709180EA0158901600000000000000
B0602373226339S11709112EA0159601612000000000000
B0602413226300S11709054EA0160001612000000000000
B0602453226232S11709054EA0160501619000000000000
B0602493226182S11709115EA0160801621000000000000
B0602533226165S11709198EA0161501625000000000000
B0602573226188S11709275EA0161801629000000000000
B0603013226243S11709321EA0160301615000000000000
B0603053226319S11709346EA0158701593000000000000
B0603093226407S11709364EA0156301572000000000000
B0603133226500S11709380EA0154501558000000000000
B0603173226595S11709390EA0154101563000000000000
B0603213226687S11709393EA0155001567000000000000
B0603253226778S11709394EA0154901568000000000000
B0603293226865S11709392EA0155201567000000000000
B0603333226954S11709385EA0154201553000000000000
B0603373227044S11709370EA0152801536000000000000
B0603413227142S11709368EA0149101498000000000000
B0603453227245S11709384EA0148101497000000000000
B0603493227339S11709402EA0148801497000000000000
B0603533227434S11709422EA0147701481000000000000
B0603573227527S11709444EA0146501469000000000000
B0604013227621S11709468EA0145201459000000000000
B0604053227712S11709488EA0145601468000000000000
B0604093227800S11709497EA0146201468000000000000
B0604133227887S11709502EA0145201455000000000000
B0604173227978S11709513EA0143301437000000000000
B0604213228069S11709524EA0142501428000000000000
B0604253228159S11709536EA0141001413000000000000
B0604293228250S11709552EA0140101401000000000000
B0604333228340S11709568EA0138801387000000000000
B0604373228428S11709587EA0137801382000000000000
B0604413228513S11709605EA0137801381000000000000
B0604453228594S11709623EA0136901366000000000000
B0604493228678S11709641EA0135301350000000000000
B0604533228765S11709657EA0133401333000000000000
B0604573228853S11709666EA0131701314000000000000
B0605013228944S11709675EA0130301302000000000000
B0605053229033S11709682EA0129301289000000000000
B0605093229122S11709701EA0127701268000000000000
B0605133229208S11709737EA0127301280000000000000
B0605173229283S11709757EA0131001320000000000000
B0605213229351S11709763EA0134201344000000000000
B0605253229406S11709736EA0136201365000000000000
B0605293229406S11709671EA0137601374000000000000
B0605333229351S11709652EA0137401370000000000000
B0605373229300S11709701EA0137401374000000000000
B0605413229285S11709774EA0138901390000000000000
B0605453229329S11709800EA0140801409000000000000
B0605493229359S11709748EA0141201413000000000000
B0605533229330S11709685EA0142101422000000000000
B0605573229269S11709678EA0142201424000000000000
B0606013229211S11709717EA0143701438000000000000
B0606053229187S11709788EA0144701448000000000000
B0606093229222S11709847EA0144301431000000000000
B0606133229291S11709865EA0140801396000000000000
B0606173229376S11709875EA0138401379000000000000
B0606213229467S11709878EA0137001369000000000000
B0606253229560S11709875EA0136101363000000000000
B0606293229653S11709869EA0135201353000000000000
B0606333229745S11709867EA0134301346000000000000
B0606373229833S11709870EA0133901341000000000000
B0606413229922S11709877EA0133301335000000000000
B0606453230006S11709884EA0133001331000000000000
B0606493230091S11709888EA0132301324000000000000
B0606533230174S11709891EA0131701313000000000000
B0606573230260S11709899EA0130401302000000000000
B0607013230344S11709906EA0129601294000000000000
B0607053230430S11709917EA0128501279000000000000
B0607093230518S11709925EA0126601262000000000000
B0607133230609S11709921EA0126001256000000000000
B0607173230700S11709914EA0125401255000000000000
B0607213230790S11709910EA0125301249000000000000
B0607253230880S11709905EA0124601247000000000000
B0607293230963S11709884EA0125601254000000000000
B0607333231044S11709857EA0125001239000000000000
B0607373231131S11709823EA0122801216000000000000
B0607413231222S11709782EA0121001205000000000000
B0607453231311S11709739EA0121501215000000000000
B0607493231397S11709697EA0122701226000000000000
B0607533231478S11709656EA0123301222000000000000
B0607573231562S11709615EA0122101215000000000000
B0608013231643S11709575EA0123101224000000000000
B0608053231722S11709537EA0122901218000000000000
B0608093231804S11709500EA0121801203000000000000
B0608133231889S11709458EA0120101185000000000000
B0608173231976S11709415EA0118301169000000000000
B0608213232065S11709375EA0116901161000000000000
B0608253232153S11709334EA0117001163000000000000
B0608293232237S11709295EA0115501138000000000000
B0608333232322S11709258EA0114201128000000000000
B0608373232405S11709220EA0113501123000000000000
B0608413232480S11709177EA0114901141000000000000
B0608453232549S11709134EA0114901133000000000000
B0608493232619S11709093EA0114401131000000000000
B0608533232688S11709048EA0114301121000000000000
B0608573232762S11709006EA0112501108000000000000
B0609013232839S11708967EA0113101120000000000000
B0609053232916S11708933EA0113001112000000000000
B0609093232999S11708896EA0110901089000000000000
B0609133233085S11708861EA0109801083000000000000
B0609173233170S11708825EA0108801073000000000000
B0609213233256S11708787EA0107701059000000000000
B0609253233339S11708749EA0107701068000000000000
B0609293233412S11708713EA0108201066000000000000
B0609333233481S11708674EA0107001052000000000000
B0609373233546S11708626EA0107301057000000000000
B0609413233606S11708575EA0107401060000000000000
B0609453233658S11708527EA0109301078000000000000
B0609493233698S11708474EA0110501087000000000000
B0609533233739S11708418EA0110601083000000000000
B0609573233781S11708363EA0110301081000000000000
B0610013233820S11708298EA0109201071000000000000
B0610053233870S11708237EA0107601048000000000000
B0610093233921S11708172EA0106401050000000000000
B0610133233945S11708099EA0108101062000000000000
B0610173233888S11708076EA0109601075000000000000
B0610213233852S11708138EA0108901065000000000000
B0610253233876S11708216EA0107301050000000000000
B0610293233935S11708278EA0105801036000000000000
B0610333234008S11708310EA0105301035000000000000
B0610373234073S11708285EA0105201031000000000000
B0610413234131S11708235EA0103701015000000000000
B0610453234194S11708181EA0102201000000000000000
B0610493234268S11708138EA0100900991000000000000
B0610533234342S11708090EA0099900978000000000000
B0610573234416S11708032EA0098000960000000000000
B0611013234491S11707963EA0095700936000000000000
B0611053234564S11707889EA0094400924000000000000
B0611093234638S11707816EA0093000910000000000000
B0611133234708S11707745EA0093200911000000000000
B0611173234769S11707672EA0093200907000000000000
B0611213234825S11707596EA0092000896000000000000
B0611253234883S11707522EA0091000880000000000000
B0611293234944S11707457EA0091200895000000000000
B0611333235000S11707400EA0092500901000000000000
B0611373235057S11707349EA0092500897000000000000
B0611413235120S11707306EA0091600888000000000000
B0611453235188S11707270EA0090900882000000000000
B0611493235258S11707236EA0090500879000000000000
B0611533235323S11707204EA0091600898000000000000
B0611573235380S11707174EA0092700903000000000000
B0612013235436S11707140EA0092900902000000000000
B0612053235490S11707101EA0092900907000000000000
B0612093235543S11707063EA0093200904000000000000
B0612133235598S11707020EA0092600901000000000000
B0612173235659S11706984EA0091900893000000000000
B0612213235721S11706946EA0091200887000000000000
B0612253235782S11706909EA0091100890000000000000
B0612293235837S11706870EA0091400891000000000000
B0612333235887S11706822EA0091200891000000000000
B0612373235926S11706760EA0091100888000000000000
B0612413235959S11706690EA0091000886000000000000
B0612453235949S11706617EA0091600902000000000000
B0612493235890S11706621EA0093900923000000000000
B0612533235885S11706697EA0095100934000000000000
B0612573235938S11706724EA0096400947000000000000
B0613013235975S11706677EA0097000955000000000000
B0613053235951S11706621EA0098300969000000000000
B0613093235895S11706632EA0099400979000000000000
B0613133235876S11706702EA0100500992000000000000
B0613173235916S11706754EA0101701008000000000000
B0613213235965S11706738EA0103101020000000000000
B0613253235977S11706677EA0103701025000000000000
B0613293235937S11706634EA0104401039000000000000
B0613333235889S11706666EA0105901053000000000000
B0613373235895S11706736EA0107101066000000000000
B0613413235951S11706763EA0108301078000000000000
B0613453236006S11706727EA0108501076000000000000
B0613493236023S11706655EA0108201075000000000000
B0613533235995S11706588EA0108801083000000000000
B0613573235936S11706558EA0109301093000000000000
B0614013235884S11706597EA0110801111000000000000
B0614053235893S11706668EA0112501123000000000000
B0614093235949S11706677EA0113801141000000000000
B0614133235965S11706620EA0115201152000000000000
B0614173235923S11706586EA0115901161000000000000
B0614213235873S11706628EA0116901169000000000000
B0614253235864S11706703EA0118101181000000000000
B0614293235904S11706753EA0119801201000000000000
B0614333235956S11706733EA0121001212000000000000
B0614373235967S11706671EA0121601217000000000000
B0614413235926S11706629EA0122101227000000000000
B0614453235869S11706654EA0122401229000000000000
B0614493235856S11706731EA0123401246000000000000
B0614533235903S11706776EA0125401264000000000000
B0614573235958S11706753EA0126801275000000000000
B0615013235967S11706688EA0127101276000000000000
