ACAM4N6
HFDTE141017
HFFXA050
HFPLTPILOT:JOHN WELSH              
HFGTYGLIDERTYPE:HORNET      
HFGIDGLIDERID:VH GMY      
HFDTM100GPSDATUM:
HFRFWFIRMWAREVERSION:F2.6
HFRHWHARDWAREVERSION:300 Series Version 2
HFFTYFRTYPE:CAMBRIDGE AERO INSTRUMENTS, 302+
HFGPS:GARMIN,LVS-25,12,18000
HFPRSPRESSALTSENSOR:INTERSEMA, MS5534-AP, 20000
I033638FXA3941ENL4247REX
LCAMSBVER:5FWVER:F26300
C121016042725121016000103
C0000000N00000000WTAKEOFF     
C3207549S11656849EBEVAIR      
C3157887S11735628EYOTING      
C3137789S11744052EKLLRBRRN    
C3137399S11712982ECunderdin AF
C3207549S11656849EBEVAIR      
C0000000N00000000WLANDING     
B0429073207735S11657103EA0024200217000000000000
B0429093207735S11657103EA0024100217000000000000
B0429113207735S11657103EA0024200217000000000000
B0429133207735S11657103EA0024100217000000000000
B0429153207735S11657103EA0024100217000000000000
B0429173207735S11657103EA0024100217000000000000
B0429193207735S11657103EA0024100217000000000000
B0429213207735S11657103EA0024200217000000000000
B0429233207735S11657103EA0024100217000000000000
B0429253207735S11657103EA0024200217000000000000
B0429273207735S11657103EA0024200217000000000000
B0429293207735S11657103EA0024300217000000000000
B0429313207735S11657103EA0024400217000000000000
B0429333207733S11657103EA0024300217000000000000
B0429353207732S11657101EA0024300216000000000000
B0429363207729S11657100EA0024300216000000000000
B0429403207705S11657087EA0024300216000000000000
B0429443207666S11657066EA0024300216000000000000
B0429483207612S11657034EA0024400216000000000000
B0429523207546S11656995EA0024600217000000000000
B0429563207475S11656956EA0025500231000000000000
B0430003207402S11656919EA0026600242000000000000
B0430043207334S11656888EA0028500266000000000000
B0430083207271S11656861EA0030800288000000000000
B0430123207209S11656834EA0032900309000000000000
B0430163207147S11656802EA0034000318000000000000
B0430203207083S11656773EA0034800328000000000000
B0430243207018S11656744EA0036100341000000000000
B0430283206955S11656706EA0036700347000000000000
B0430323206907S11656640EA0037200353000000000000
B0430363206887S11656552EA0037300358000000000000
B0430403206894S11656461EA0038400373000000000000
B0430443206926S11656381EA0039800389000000000000
B0430483206983S11656320EA0041300404000000000000
B0430523207057S11656286EA0042900421000000000000
B0430563207137S11656279EA0044800443000000000000
B0431003207216S11656297EA0047200471000000000000
B0431043207282S11656347EA0050500505000000000000
B0431083207345S11656407EA0053200531000000000000
B0431123207416S11656444EA0056200567000000000000
B0431163207493S11656437EA0058600584000000000000
B0431203207559S11656390EA0059100586000000000000
B0431243207594S11656315EA0059400590000000000000
B0431283207603S11656225EA0060300598000000000000
B0431323207585S11656142EA0061900617000000000000
B0431363207537S11656084EA0063800633000000000000
B0431403207472S11656050EA0065500648000000000000
B0431443207397S11656043EA0067100665000000000000
B0431483207320S11656068EA0068500683000000000000
B0431523207272S11656125EA0070500714000000000000
B0431563207289S11656197EA0072600726000000000000
B0432003207345S11656195EA0073100730000000000000
B0432043207360S11656137EA0073500731000000000000
B0432083207325S11656097EA0073500728000000000000
B0432123207274S11656121EA0073400729000000000000
B0432163207280S11656191EA0073900731000000000000
B0432203207339S11656202EA0074100734000000000000
B0432243207368S11656147EA0074400736000000000000
B0432283207337S11656100EA0074100732000000000000
B0432323207280S11656117EA0074300737000000000000
B0432363207273S11656188EA0075400747000000000000
B0432403207330S11656215EA0076100754000000000000
B0432443207372S11656171EA0076400756000000000000
B0432483207358S11656111EA0076500756000000000000
B0432523207304S11656100EA0076800762000000000000
B0432563207263S11656151EA0077600771000000000000
B0433003207286S11656216EA0079000786000000000000
B0433043207343S11656224EA0080000794000000000000
B0433083207378S11656177EA0080500798000000000000
B0433123207364S11656120EA0080500796000000000000
B0433163207313S11656104EA0080600798000000000000
B0433203207269S11656154EA0081000805000000000000
B0433243207300S11656220EA0082100816000000000000
B0433283207360S11656214EA0083000825000000000000
B0433323207371S11656154EA0083700831000000000000
B0433363207323S11656125EA0083900832000000000000
B0433403207271S11656165EA0084300840000000000000
B0433443207272S11656242EA0085600853000000000000
B0433483207326S11656280EA0087100868000000000000
B0433523207377S11656251EA0088300880000000000000
B0433563207382S11656191EA0088800883000000000000
B0434003207342S11656155EA0089100884000000000000
B0434043207287S11656178EA0089100891000000000000
B0434083207297S11656246EA0090700908000000000000
B0434123207354S11656258EA0091500915000000000000
B0434163207378S11656204EA0092500926000000000000
B0434203207339S11656169EA0093200929000000000000
B0434243207293S11656204EA0093400933000000000000
B0434283207304S11656273EA0094700948000000000000
B0434323207363S11656281EA0096100962000000000000
B0434363207384S11656227EA0097300970000000000000
B0434403207343S11656194EA0097600974000000000000
B0434443207295S11656232EA0097900979000000000000
B0434483207304S11656302EA0098800988000000000000
B0434523207363S11656297EA0099600996000000000000
B0434563207362S11656236EA0100901011000000000000
B0435003207311S11656232EA0101701018000000000000
B0435043207293S11656298EA0102201022000000000000
B0435083207345S11656334EA0102801033000000000000
B0435123207385S11656293EA0104201047000000000000
B0435163207364S11656242EA0105101053000000000000
B0435203207311S11656258EA0105201054000000000000
B0435243207310S11656328EA0105901061000000000000
B0435283207364S11656342EA0106901069000000000000
B0435323207376S11656282EA0107501078000000000000
B0435363207326S11656263EA0108301085000000000000
B0435403207291S11656318EA0108701086000000000000
B0435443207323S11656379EA0109301098000000000000
B0435483207376S11656359EA0110501109000000000000
B0435523207376S11656299EA0111601122000000000000
B0435563207328S11656284EA0112101120000000000000
B0436003207293S11656340EA0112101124000000000000
B0436043207315S11656402EA0113301136000000000000
B0436083207367S11656397EA0114201145000000000000
B0436123207378S11656338EA0115101156000000000000
B0436163207338S11656302EA0116001163000000000000
B0436203207289S11656332EA0116201160000000000000
B0436243207286S11656407EA0116001163000000000000
B0436283207338S11656436EA0117301179000000000000
B0436323207369S11656388EA0118401186000000000000
B0436363207338S11656338EA0119001192000000000000
B0436403207282S11656358EA0119501194000000000000
B0436443207272S11656435EA0119701199000000000000
B0436483207325S11656475EA0120901212000000000000
B0436523207369S11656436EA0122401228000000000000
B0436563207350S11656377EA0123301235000000000000
B0437003207293S11656376EA0123701239000000000000
B0437043207258S11656445EA0124201246000000000000
B0437083207287S11656513EA0124901258000000000000
B0437123207346S11656502EA0126401273000000000000
B0437163207362S11656440EA0128001287000000000000
B0437203207320S11656398EA0129101297000000000000
B0437243207264S11656423EA0129801305000000000000
B0437283207258S11656497EA0130501315000000000000
B0437323207311S11656527EA0131401323000000000000
B0437363207349S11656483EA0132601339000000000000
B0437403207329S11656424EA0133901350000000000000
B0437443207271S11656420EA0134301353000000000000
B0437483207242S11656489EA0135401366000000000000
B0437523207277S11656546EA0136401374000000000000
B0437563207329S11656529EA0137101383000000000000
B0438003207328S11656467EA0138001392000000000000
B0438043207269S11656453EA0138501398000000000000
B0438083207230S11656514EA0140101422000000000000
B0438123207248S11656580EA0141601427000000000000
B0438163207300S11656593EA0141701429000000000000
B0438203207324S11656541EA0142501438000000000000
B0438243207287S11656492EA0143501449000000000000
B0438283207229S11656507EA0144701460000000000000
B0438323207216S11656580EA0145601469000000000000
B0438363207260S11656623EA0146401477000000000000
B0438403207310S11656596EA0147201486000000000000
B0438443207299S11656536EA0148101501000000000000
B0438483207242S11656515EA0148901501000000000000
B0438523207169S11656527EA0148601502000000000000
B0438563207090S11656549EA0149201510000000000000
B0439003207005S11656574EA0149001503000000000000
B0439043206920S11656601EA0148401497000000000000
B0439083206832S11656628EA0146801475000000000000
B0439123206744S11656653EA0145501466000000000000
B0439163206658S11656675EA0144701459000000000000
B0439203206574S11656696EA0145401473000000000000
B0439243206497S11656717EA0147201490000000000000
B0439283206423S11656740EA0148701505000000000000
B0439323206358S11656779EA0150101516000000000000
B0439363206342S11656854EA0151701531000000000000
B0439403206392S11656905EA0151801527000000000000
B0439443206454S11656883EA0151501528000000000000
B0439483206483S11656815EA0151501528000000000000
B0439523206468S11656741EA0151801533000000000000
B0439563206419S11656688EA0151701528000000000000
B0440003206349S11656670EA0150801518000000000000
B0440043206273S11656682EA0150101515000000000000
B0440083206195S11656701EA0149801510000000000000
B0440123206117S11656724EA0149101503000000000000
B0440163206038S11656750EA0148301493000000000000
B0440203205959S11656780EA0147301484000000000000
B0440243205883S11656815EA0147201486000000000000
B0440283205812S11656847EA0147501490000000000000
B0440323205740S11656871EA0147401485000000000000
B0440363205669S11656888EA0147001483000000000000
B0440403205600S11656912EA0147001481000000000000
B0440443205531S11656938EA0146601478000000000000
B0440483205464S11656965EA0146301477000000000000
B0440523205397S11656992EA0146201476000000000000
B0440563205332S11657018EA0145801470000000000000
B0441003205263S11657034EA0144801455000000000000
B0441043205191S11657027EA0143201436000000000000
B0441083205120S11656994EA0141601424000000000000
B0441123205059S11656938EA0141201424000000000000
B0441163205007S11656878EA0141201425000000000000
B0441203204960S11656815EA0141301425000000000000
B0441243204920S11656748EA0140901417000000000000
B0441283204888S11656675EA0140101409000000000000
B0441323204858S11656601EA0139801409000000000000
B0441363204829S11656533EA0139701408000000000000
B0441403204802S11656464EA0138901394000000000000
B0441443204775S11656392EA0137801387000000000000
B0441483204751S11656319EA0137801389000000000000
B0441523204729S11656246EA0137101379000000000000
B0441563204708S11656168EA0135901369000000000000
B0442003204694S11656090EA0135701367000000000000
B0442043204685S11656012EA0135301365000000000000
B0442083204680S11655938EA0136301381000000000000
B0442123204671S11655874EA0138201400000000000000
B0442163204650S11655812EA0138901405000000000000
B0442203204591S11655786EA0139501411000000000000
B0442243204543S11655846EA0140001412000000000000
B0442283204569S11655925EA0140101412000000000000
B0442323204637S11655937EA0140301416000000000000
B0442363204680S11655878EA0140601420000000000000
B0442403204658S11655813EA0142901448000000000000
B0442443204600S11655813EA0144601460000000000000
B0442483204572S11655879EA0145001462000000000000
B0442523204608S11655939EA0145901472000000000000
B0442563204661S11655925EA0146301477000000000000
B0443003204674S11655859EA0146801483000000000000
B0443043204630S11655818EA0147801493000000000000
B0443083204587S11655870EA0148201498000000000000
B0443123204620S11655941EA0149001504000000000000
B0443163204682S11655941EA0149101506000000000000
B0443203204704S11655874EA0150301523000000000000
B0443243204659S11655833EA0152401545000000000000
B0443283204607S11655873EA0153801557000000000000
B0443323204609S11655951EA0154201559000000000000
B0443363204659S11656007EA0154601562000000000000
B0443403204717S11655995EA0156101583000000000000
B0443443204734S11655935EA0157601592000000000000
B0443483204698S11655883EA0158101597000000000000
B0443523204633S11655898EA0158801611000000000000
B0443563204607S11655970EA0160001620000000000000
B0444003204645S11656038EA0160601624000000000000
B0444043204704S11656034EA0161701641000000000000
B0444083204725S11655978EA0163301656000000000000
B0444123204704S11655920EA0164301662000000000000
B0444163204647S11655902EA0164701671000000000000
B0444203204600S11655952EA0165901681000000000000
B0444243204612S11656030EA0166601686000000000000
B0444283204673S11656063EA0166801688000000000000
B0444323204719S11656017EA0167801705000000000000
B0444363204704S11655955EA0169401717000000000000
B0444403204645S11655948EA0169701718000000000000
B0444443204607S11656017EA0170701731000000000000
B0444483204629S11656091EA0171601738000000000000
B0444523204687S11656113EA0172301745000000000000
B0444563204730S11656072EA0173501760000000000000
B0445003204726S11656007EA0174101764000000000000
B0445043204681S11655961EA0174601769000000000000
B0445083204620S11655980EA0175201776000000000000
B0445123204602S11656058EA0175701780000000000000
B0445163204646S11656116EA0176201785000000000000
B0445203204704S11656104EA0176401786000000000000
B0445243204723S11656039EA0176601789000000000000
B0445283204704S11655969EA0177001792000000000000
B0445323204651S11655925EA0177801801000000000000
B0445363204595S11655954EA0178601806000000000000
B0445403204596S11656030EA0178301803000000000000
B0445443204654S11656071EA0177901797000000000000
B0445483204704S11656026EA0177901803000000000000
B0445523204708S11655956EA0178901815000000000000
B0445563204686S11655887EA0179101813000000000000
B0446003204638S11655838EA0179601822000000000000
B0446043204577S11655851EA0179701812000000000000
B0446083204547S11655926EA0177801792000000000000
B0446123204581S11656003EA0176801785000000000000
B0446163204652S11656020EA0177201791000000000000
B0446203204695S11655960EA0177501794000000000000
B0446243204673S11655886EA0177901799000000000000
B0446283204613S11655851EA0177701797000000000000
B0446323204541S11655850EA0175501769000000000000
B0446363204457S11655864EA0173701755000000000000
B0446403204372S11655883EA0172601742000000000000
B0446443204286S11655905EA0171801735000000000000
B0446483204199S11655926EA0171601734000000000000
B0446523204114S11655946EA0172201738000000000000
B0446563204032S11655963EA0172701749000000000000
B0447003203954S11655976EA0174401763000000000000
B0447043203879S11655989EA0173801752000000000000
B0447083203798S11655998EA0172701743000000000000
B0447123203719S11656000EA0172001736000000000000
B0447163203644S11656002EA0172301742000000000000
B0447203203571S11656000EA0172001735000000000000
B0447243203497S11655994EA0171701733000000000000
B0447283203423S11655980EA0171601730000000000000
B0447323203347S11655965EA0171001724000000000000
B0447363203272S11655951EA0170401717000000000000
B0447403203196S11655935EA0169801713000000000000
B0447443203121S11655918EA0169601708000000000000
B0447483203047S11655903EA0169501713000000000000
B0447523202981S11655895EA0170801731000000000000
B0447563202918S11655892EA0171501731000000000000
B0448003202853S11655890EA0171201727000000000000
B0448043202786S11655885EA0170601722000000000000
B0448083202718S11655881EA0170201717000000000000
B0448123202649S11655882EA0169501710000000000000
B0448163202578S11655887EA0168601699000000000000
B0448203202502S11655902EA0167301685000000000000
B0448243202425S11655925EA0166601679000000000000
B0448283202351S11655951EA0165901671000000000000
B0448323202276S11655978EA0165401668000000000000
B0448363202201S11656006EA0165001659000000000000
B0448403202125S11656030EA0164401658000000000000
B0448443202051S11656056EA0163801649000000000000
B0448483201976S11656085EA0162901642000000000000
B0448523201900S11656115EA0162201633000000000000
B0448563201824S11656147EA0162001632000000000000
B0449003201749S11656185EA0161401623000000000000
B0449043201677S11656224EA0160601617000000000000
B0449083201605S11656262EA0160001611000000000000
B0449123201534S11656297EA0159401606000000000000
B0449163201463S11656325EA0158801600000000000000
B0449203201396S11656353EA0159001604000000000000
B0449243201330S11656383EA0158901600000000000000
B0449283201261S11656412EA0158601602000000000000
B0449323201192S11656442EA0158901604000000000000
B0449363201118S11656448EA0159701622000000000000
B0449403201057S11656419EA0162201645000000000000
B0449443201025S11656363EA0163801656000000000000
B0449483201040S11656298EA0163801648000000000000
B0449523201092S11656253EA0163001643000000000000
B0449563201158S11656253EA0163101645000000000000
B0450003201213S11656298EA0163701651000000000000
B0450043201233S11656372EA0164401658000000000000
B0450083201223S11656450EA0165101666000000000000
B0450123201190S11656523EA0165301668000000000000
B0450163201127S11656555EA0165801670000000000000
B0450203201060S11656535EA0166201679000000000000
B0450243201021S11656472EA0166801683000000000000
B0450283201033S11656399EA0167401688000000000000
B0450323201083S11656351EA0167101685000000000000
B0450363201149S11656351EA0167401690000000000000
B0450403201198S11656402EA0168501701000000000000
B0450443201206S11656477EA0169601712000000000000
B0450483201166S11656540EA0170001712000000000000
B0450523201098S11656579EA0169501708000000000000
B0450563201027S11656610EA0169301702000000000000
B0451003200950S11656637EA0168501696000000000000
B0451043200872S11656657EA0167901691000000000000
B0451083200793S11656672EA0167901693000000000000
B0451123200717S11656691EA0169201712000000000000
B0451163200643S11656708EA0170101718000000000000
B0451203200566S11656730EA0170101712000000000000
B0451243200486S11656756EA0168701696000000000000
B0451283200400S11656775EA0167501686000000000000
B0451323200314S11656795EA0166901682000000000000
B0451363200230S11656817EA0166601680000000000000
B0451403200148S11656838EA0166601678000000000000
B0451443200066S11656864EA0165801671000000000000
B0451483159987S11656886EA0165501672000000000000
B0451523159909S11656909EA0165701670000000000000
B0451563159833S11656934EA0165201664000000000000
B0452003159757S11656958EA0164301654000000000000
B0452043159680S11656982EA0163701651000000000000
B0452083159604S11657001EA0163301647000000000000
B0452123159530S11657018EA0162901642000000000000
B0452163159456S11657035EA0162401635000000000000
B0452203159381S11657055EA0161901628000000000000
B0452243159302S11657074EA0161301625000000000000
B0452283159222S11657095EA0161201624000000000000
B0452323159140S11657120EA0160901619000000000000
B0452363159058S11657146EA0160201612000000000000
B0452403158978S11657172EA0159601609000000000000
B0452443158900S11657198EA0159601609000000000000
B0452483158822S11657221EA0159501607000000000000
B0452523158744S11657237EA0159101602000000000000
B0452563158667S11657239EA0159001602000000000000
B0453003158593S11657247EA0158601598000000000000
B0453043158522S11657270EA0158101592000000000000
B0453083158450S11657302EA0157601584000000000000
B0453123158376S11657334EA0156701575000000000000
B0453163158304S11657365EA0156501576000000000000
B0453203158236S11657393EA0156701576000000000000
B0453243158165S11657421EA0156101570000000000000
B0453283158091S11657447EA0155901568000000000000
B0453323158016S11657477EA0155401563000000000000
B0453363157939S11657506EA0155301563000000000000
B0453403157864S11657529EA0155401568000000000000
B0453443157790S11657554EA0155801567000000000000
B0453483157717S11657579EA0155201560000000000000
B0453523157643S11657603EA0154301553000000000000
B0453563157567S11657631EA0154001550000000000000
B0454003157492S11657659EA0154401556000000000000
B0454043157418S11657680EA0154801559000000000000
B0454083157342S11657697EA0154701559000000000000
B0454123157272S11657716EA0154901564000000000000
B0454163157203S11657737EA0155001560000000000000
B0454203157136S11657758EA0154801564000000000000
B0454243157067S11657776EA0155001561000000000000
B0454283156999S11657800EA0154401552000000000000
B0454323156933S11657832EA0153701547000000000000
B0454363156867S11657865EA0152601530000000000000
B0454403156795S11657883EA0151301519000000000000
B0454443156729S11657892EA0151901528000000000000
B0454483156670S11657915EA0152101530000000000000
B0454523156637S11657969EA0152301531000000000000
B0454563156644S11658039EA0152001527000000000000
B0455003156691S11658082EA0152101532000000000000
B0455043156748S11658065EA0152101528000000000000
B0455083156772S11657993EA0151401518000000000000
B0455123156739S11657926EA0149801502000000000000
B0455163156676S11657891EA0149001496000000000000
B0455203156608S11657865EA0148701497000000000000
B0455243156538S11657844EA0147701482000000000000
B0455283156460S11657833EA0146701476000000000000
B0455323156383S11657829EA0146701477000000000000
B0455363156305S11657829EA0146301468000000000000
B0455403156224S11657835EA0145801466000000000000
B0455443156145S11657845EA0145301456000000000000
B0455483156065S11657861EA0144401449000000000000
B0455523155984S11657874EA0143701443000000000000
B0455563155903S11657887EA0143201438000000000000
B0456003155824S11657898EA0142801435000000000000
B0456043155745S11657905EA0142601430000000000000
B0456083155665S11657915EA0141901424000000000000
B0456123155587S11657930EA0141301416000000000000
B0456163155507S11657939EA0140201405000000000000
B0456203155426S11657943EA0138701388000000000000
B0456243155344S11657952EA0137401375000000000000
B0456283155265S11657988EA0136501371000000000000
B0456323155196S11658043EA0136501373000000000000
B0456363155135S11658108EA0136801377000000000000
B0456403155078S11658174EA0137901391000000000000
B0456443155028S11658239EA0138701393000000000000
B0456483154987S11658313EA0138401391000000000000
B0456523154954S11658392EA0138801398000000000000
B0456563154953S11658473EA0139901411000000000000
B0457003155002S11658502EA0141701430000000000000
B0457043155054S11658470EA0141301421000000000000
B0457083155109S11658421EA0140701415000000000000
B0457123155164S11658364EA0140601413000000000000
B0457163155173S11658292EA0141901433000000000000
B0457203155119S11658262EA0142401433000000000000
B0457243155071S11658314EA0142001426000000000000
B0457283155080S11658391EA0143401445000000000000
B0457323155130S11658424EA0144301454000000000000
B0457363155177S11658390EA0144401457000000000000
B0457403155174S11658326EA0144801463000000000000
B0457443155130S11658295EA0145301465000000000000
B0457483155088S11658339EA0145101463000000000000
B0457523155116S11658398EA0145901477000000000000
B0457563155170S11658385EA0146601480000000000000
B0458003155178S11658320EA0147201484000000000000
B0458043155135S11658281EA0147401486000000000000
B0458083155087S11658317EA0147201485000000000000
B0458123155106S11658379EA0148101496000000000000
B0458163155162S11658375EA0148701500000000000000
B0458203155178S11658314EA0149001505000000000000
B0458243155134S11658277EA0149001504000000000000
B0458283155087S11658313EA0149101504000000000000
B0458323155083S11658385EA0149201505000000000000
B0458363155126S11658430EA0149901518000000000000
B0458403155181S11658416EA0150401518000000000000
B0458443155196S11658352EA0150401518000000000000
B0458483155158S11658297EA0149501507000000000000
B0458523155093S11658274EA0148801504000000000000
B0458563155022S11658260EA0147701489000000000000
B0459003154943S11658248EA0146401479000000000000
B0459043154861S11658236EA0146501481000000000000
B0459083154781S11658222EA0147101489000000000000
B0459123154706S11658209EA0148501505000000000000
B0459163154632S11658196EA0149301508000000000000
B0459203154559S11658179EA0148701500000000000000
B0459243154484S11658160EA0147901490000000000000
B0459283154407S11658143EA0146501477000000000000
B0459323154330S11658123EA0145801473000000000000
B0459363154256S11658105EA0145501469000000000000
B0459403154182S11658086EA0144701458000000000000
B0459443154107S11658065EA0143901450000000000000
B0459483154030S11658044EA0143201443000000000000
B0459523153953S11658021EA0142401435000000000000
B0459563153878S11657996EA0142301436000000000000
B0500003153801S11657974EA0142401438000000000000
B0500043153727S11657956EA0142101435000000000000
B0500083153652S11657941EA0141901432000000000000
B0500123153578S11657928EA0141701429000000000000
B0500163153504S11657915EA0141601430000000000000
B0500203153432S11657900EA0141601427000000000000
B0500243153359S11657881EA0140701415000000000000
B0500283153285S11657863EA0139401401000000000000
B0500323153210S11657844EA0138001390000000000000
B0500363153136S11657822EA0136901378000000000000
B0500403153060S11657798EA0136201374000000000000
B0500443152985S11657775EA0136001372000000000000
B0500483152909S11657757EA0135701369000000000000
B0500523152833S11657736EA0135001355000000000000
B0500563152757S11657716EA0133901348000000000000
B0501003152686S11657699EA0133301343000000000000
B0501043152616S11657683EA0132701334000000000000
B0501083152547S11657659EA0132301334000000000000
B0501123152480S11657634EA0133401346000000000000
B0501163152419S11657611EA0135101366000000000000
B0501203152365S11657642EA0137101383000000000000
B0501243152376S11657719EA0137501385000000000000
B0501283152440S11657731EA0137901394000000000000
B0501323152466S11657673EA0139601411000000000000
B0501363152432S11657634EA0141301428000000000000
B0501403152384S11657664EA0142101436000000000000
B0501443152375S11657741EA0142601436000000000000
B0501483152425S11657787EA0143001447000000000000
B0501523152469S11657751EA0144601461000000000000
B0501563152453S11657698EA0145401471000000000000
B0502003152401S11657712EA0146401482000000000000
B0502043152395S11657789EA0147201487000000000000
B0502083152453S11657823EA0147401492000000000000
B0502123152487S11657774EA0148801505000000000000
B0502163152448S11657737EA0149701515000000000000
B0502203152406S11657787EA0150801525000000000000
B0502243152423S11657862EA0151501532000000000000
B0502283152482S11657884EA0152801548000000000000
B0502323152516S11657840EA0153701555000000000000
B0502363152490S11657790EA0154401563000000000000
B0502403152438S11657809EA0155801575000000000000
B0502443152432S11657884EA0156501586000000000000
B0502483152483S11657928EA0157701597000000000000
B0502523152529S11657900EA0158601601000000000000
B0502563152521S11657840EA0158701606000000000000
B0503003152478S11657790EA0158501595000000000000
B0503043152421S11657738EA0157301585000000000000
B0503083152358S11657688EA0155901571000000000000
B0503123152289S11657637EA0154901563000000000000
B0503163152222S11657588EA0154501560000000000000
B0503203152152S11657538EA0155101567000000000000
B0503243152088S11657482EA0155501572000000000000
B0503283152025S11657424EA0155801573000000000000
B0503323151963S11657369EA0156101578000000000000
B0503363151902S11657315EA0156201576000000000000
B0503403151841S11657259EA0155601569000000000000
B0503443151781S11657196EA0154401554000000000000
B0503483151719S11657135EA0153401547000000000000
B0503523151656S11657077EA0153001544000000000000
B0503563151593S11657022EA0152501539000000000000
B0504003151529S11656971EA0152301536000000000000
B0504043151466S11656923EA0152001536000000000000
B0504083151405S11656879EA0152101539000000000000
B0504123151347S11656838EA0152201537000000000000
B0504173151269S11656787EA0151001524000000000000
B0504213151209S11656739EA0150701524000000000000
B0504253151148S11656696EA0150301518000000000000
B0504293151086S11656657EA0150001514000000000000
B0504333151024S11656627EA0150401521000000000000
B0504373150966S11656600EA0150201516000000000000
B0504413150907S11656565EA0149901516000000000000
B0504453150855S11656524EA0150101518000000000000
B0504493150809S11656475EA0150201517000000000000
B0504533150767S11656422EA0149901511000000000000
B0504573150722S11656367EA0150101517000000000000
B0505013150673S11656316EA0150601521000000000000
B0505053150621S11656271EA0151301529000000000000
B0505093150568S11656236EA0151701528000000000000
B0505133150512S11656211EA0151001521000000000000
B0505173150452S11656184EA0150001512000000000000
B0505213150406S11656136EA0149601511000000000000
B0505253150391S11656071EA0149401507000000000000
B0505293150416S11656007EA0148401492000000000000
B0505333150473S11655969EA0147301483000000000000
B0505373150540S11655946EA0146301472000000000000
B0505413150611S11655925EA0145101461000000000000
B0505453150681S11655902EA0144701457000000000000
B0505493150755S11655886EA0143901448000000000000
B0505533150831S11655870EA0142801437000000000000
B0505573150904S11655847EA0142101431000000000000
B0506013150975S11655822EA0141501426000000000000
B0506053151049S11655800EA0141201423000000000000
B0506093151121S11655770EA0140701418000000000000
B0506133151192S11655739EA0140001411000000000000
B0506173151265S11655714EA0139401403000000000000
B0506213151340S11655700EA0138701397000000000000
B0506253151414S11655686EA0138101391000000000000
B0506293151487S11655670EA0137901389000000000000
B0506333151556S11655647EA0137301384000000000000
B0506373151622S11655617EA0136901377000000000000
B0506413151689S11655584EA0136001368000000000000
B0506453151755S11655549EA0134801356000000000000
B0506493151823S11655515EA0134101349000000000000
B0506533151890S11655483EA0133801345000000000000
B0506573151955S11655449EA0133201339000000000000
B0507013152019S11655418EA0132601332000000000000
B0507053152081S11655384EA0131201320000000000000
B0507093152144S11655350EA0130101307000000000000
B0507133152207S11655317EA0129401299000000000000
B0507173152271S11655283EA0128601292000000000000
B0507213152335S11655253EA0128601295000000000000
B0507253152392S11655224EA0129101302000000000000
B0507293152445S11655198EA0129001293000000000000
B0507333152505S11655175EA0128001285000000000000
B0507373152570S11655151EA0127801287000000000000
B0507413152634S11655131EA0128601297000000000000
B0507453152692S11655101EA0130401318000000000000
B0507493152711S11655041EA0132501336000000000000
B0507533152662S11655014EA0133001340000000000000
B0507573152621S11655063EA0134301355000000000000
B0508013152643S11655124EA0135501371000000000000
B0508053152698S11655128EA0136501375000000000000
B0508093152720S11655071EA0137301390000000000000
B0508133152679S11655032EA0138301394000000000000
B0508173152622S11655062EA0138501399000000000000
B0508213152620S11655132EA0140101419000000000000
B0508253152670S11655153EA0141701428000000000000
B0508293152700S11655102EA0142101435000000000000
B0508333152661S11655063EA0143101445000000000000
B0508373152610S11655101EA0143401445000000000000
B0508413152605S11655175EA0144601466000000000000
B0508453152642S11655227EA0146501480000000000000
B0508493152695S11655231EA0147101484000000000000
B0508533152725S11655179EA0147101483000000000000
B0508573152696S11655120EA0147301490000000000000
B0509013152635S11655116EA0147601490000000000000
B0509053152588S11655175EA0148101501000000000000
B0509093152599S11655249EA0149901520000000000000
B0509133152648S11655283EA0150801522000000000000
B0509173152704S11655253EA0150401518000000000000
B0509213152720S11655183EA0150701526000000000000
B0509253152688S11655128EA0152101542000000000000
B0509293152631S11655122EA0153501550000000000000
B0509333152584S11655172EA0153901557000000000000
B0509373152586S11655248EA0155401573000000000000
B0509413152630S11655293EA0156701582000000000000
B0509453152686S11655283EA0156901584000000000000
B0509493152705S11655223EA0156801583000000000000
B0509533152669S11655172EA0157201588000000000000
B0509573152608S11655189EA0157501592000000000000
B0510013152577S11655253EA0158701609000000000000
B0510053152588S11655324EA0160001619000000000000
B0510093152634S11655366EA0160101616000000000000
B0510133152699S11655375EA0159001603000000000000
B0510173152772S11655367EA0157901593000000000000
B0510213152848S11655356EA0157701592000000000000
B0510253152930S11655346EA0157101585000000000000
B0510293153012S11655337EA0156401578000000000000
B0510333153097S11655330EA0155401570000000000000
B0510373153182S11655322EA0154501559000000000000
B0510413153266S11655320EA0153901554000000000000
B0510453153349S11655327EA0153301547000000000000
B0510493153427S11655333EA0152901547000000000000
B0510533153502S11655340EA0153001547000000000000
B0510573153575S11655346EA0152501541000000000000
B0511013153647S11655356EA0152201539000000000000
B0511053153714S11655369EA0152401541000000000000
B0511093153778S11655382EA0152201535000000000000
B0511133153847S11655392EA0150601515000000000000
B0511173153925S11655405EA0148801499000000000000
B0511213154004S11655417EA0147901493000000000000
B0511253154081S11655428EA0148001495000000000000
B0511293154154S11655445EA0148601500000000000000
B0511333154222S11655463EA0148701500000000000000
B0511373154295S11655480EA0148001485000000000000
B0511413154372S11655497EA0146801476000000000000
B0511453154453S11655512EA0145801466000000000000
B0511493154531S11655521EA0145101461000000000000
B0511533154607S11655530EA0144401452000000000000
B0511573154681S11655535EA0143501445000000000000
B0512013154754S11655539EA0143501444000000000000
B0512053154823S11655541EA0142701433000000000000
B0512093154893S11655545EA0141501420000000000000
B0512133154965S11655552EA0141101421000000000000
B0512173155036S11655557EA0141401425000000000000
B0512213155108S11655566EA0141601424000000000000
B0512253155182S11655571EA0142101434000000000000
B0512293155242S11655554EA0144701465000000000000
B0512333155253S11655497EA0147101487000000000000
B0512373155212S11655458EA0147701490000000000000
B0512413155156S11655482EA0148301497000000000000
B0512453155138S11655554EA0149201506000000000000
B0512493155169S11655619EA0150301518000000000000
B0512533155222S11655634EA0151501534000000000000
B0512573155264S11655596EA0153001549000000000000
B0513013155274S11655530EA0153101544000000000000
B0513053155238S11655471EA0153101549000000000000
B0513093155177S11655469EA0154301561000000000000
B0513133155130S11655523EA0155001567000000000000
B0513173155122S11655603EA0155801573000000000000
B0513213155158S11655662EA0156701586000000000000
B0513253155214S11655681EA0158101601000000000000
B0513293155262S11655657EA0160001619000000000000
B0513333155288S11655608EA0159901613000000000000
B0513373155275S11655544EA0159101607000000000000
B0513413155227S11655502EA0158601604000000000000
B0513453155164S11655506EA0159001607000000000000
B0513493155118S11655569EA0159101608000000000000
B0513533155121S11655652EA0159401613000000000000
B0513573155166S11655708EA0160501623000000000000
B0514013155223S11655697EA0161801638000000000000
B0514053155242S11655636EA0162301641000000000000
B0514093155217S11655573EA0162801649000000000000
B0514133155162S11655543EA0163601654000000000000
B0514173155103S11655575EA0163701653000000000000
B0514213155078S11655652EA0163301650000000000000
B0514253155104S11655726EA0164101662000000000000
B0514293155158S11655765EA0164601665000000000000
B0514333155222S11655772EA0164901669000000000000
B0514373155290S11655769EA0165001667000000000000
B0514413155365S11655765EA0164001657000000000000
B0514453155442S11655761EA0164201665000000000000
B0514493155519S11655756EA0164101661000000000000
B0514533155598S11655748EA0164001662000000000000
B0514573155675S11655743EA0164001661000000000000
B0515013155749S11655743EA0163801655000000000000
B0515053155821S11655747EA0162601645000000000000
B0515093155893S11655752EA0161801634000000000000
B0515133155964S11655761EA0161201629000000000000
B0515173156033S11655772EA0161001627000000000000
B0515213156104S11655781EA0160701623000000000000
B0515253156174S11655795EA0160901626000000000000
B0515293156239S11655809EA0161301632000000000000
B0515333156305S11655820EA0161601630000000000000
B0515373156371S11655825EA0162001637000000000000
B0515413156438S11655835EA0162601644000000000000
B0515453156503S11655851EA0163001642000000000000
B0515493156572S11655865EA0162501637000000000000
B0515533156643S11655877EA0161801631000000000000
B0515573156713S11655889EA0162201636000000000000
B0516013156781S11655899EA0163501650000000000000
B0516053156848S11655904EA0164001654000000000000
B0516093156919S11655909EA0163701647000000000000
B0516133156991S11655912EA0163401651000000000000
B0516173157053S11655892EA0164101659000000000000
B0516213157082S11655834EA0164801665000000000000
B0516253157076S11655768EA0164601661000000000000
B0516293157021S11655730EA0163901651000000000000
B0516333156959S11655765EA0162901642000000000000
B0516373156942S11655846EA0162201636000000000000
B0516413156969S11655922EA0161801634000000000000
B0516453157017S11655978EA0161601632000000000000
B0516493157077S11656017EA0161201625000000000000
B0516533157146S11656037EA0160701626000000000000
B0516573157216S11656051EA0160801622000000000000
B0517013157288S11656065EA0160601623000000000000
B0517053157363S11656073EA0159601609000000000000
B0517093157441S11656078EA0158601602000000000000
B0517133157519S11656082EA0158001598000000000000
B0517173157596S11656091EA0158001597000000000000
B0517213157669S11656100EA0157601589000000000000
B0517253157743S11656111EA0156801579000000000000
B0517293157817S11656124EA0156001572000000000000
B0517333157890S11656134EA0155001562000000000000
B0517373157966S11656141EA0153801549000000000000
B0517413158043S11656149EA0152901543000000000000
B0517453158117S11656159EA0152501538000000000000
B0517493158190S11656172EA0151801531000000000000
B0517533158260S11656186EA0151201522000000000000
B0517573158333S11656197EA0150101510000000000000
B0518013158410S11656203EA0149301498000000000000
B0518053158485S11656207EA0148801496000000000000
B0518093158558S11656214EA0148701493000000000000
B0518133158631S11656223EA0147701482000000000000
B0518173158707S11656236EA0146301468000000000000
B0518213158784S11656249EA0145501460000000000000
B0518253158862S11656264EA0144801448000000000000
B0518293158941S11656284EA0143301434000000000000
B0518333159023S11656303EA0142101421000000000000
B0518373159108S11656323EA0140901407000000000000
B0518413159192S11656337EA0140101401000000000000
B0518453159276S11656351EA0140101402000000000000
B0518493159357S11656360EA0140701410000000000000
B0518533159438S11656367EA0140901409000000000000
B0518573159516S11656376EA0141001413000000000000
B0519013159593S11656388EA0141101414000000000000
B0519053159673S11656398EA0140801409000000000000
B0519093159751S11656412EA0140801404000000000000
B0519133159832S11656429EA0140001399000000000000
B0519173159914S11656448EA0139601395000000000000
B0519213159997S11656462EA0139201389000000000000
B0519253200078S11656476EA0138701384000000000000
B0519293200160S11656489EA0137701371000000000000
B0519333200240S11656505EA0136701359000000000000
B0519373200321S11656522EA0135801352000000000000
B0519413200400S11656540EA0135301341000000000000
B0519453200478S11656566EA0134201333000000000000
B0519493200555S11656594EA0133701327000000000000
B0519533200633S11656619EA0132901319000000000000
B0519573200712S11656640EA0132601316000000000000
B0520013200791S11656661EA0132101310000000000000
B0520053200869S11656680EA0131301298000000000000
B0520093200941S11656697EA0132701319000000015000
B0520133201008S11656706EA0132401316000000000000
B0520173201076S11656711EA0132001313000000000000
B0520213201144S11656709EA0131601310000000000000
B0520253201206S11656684EA0130601300000000000000
B0520293201272S11656654EA0128901277000000000000
B0520333201348S11656635EA0127701274000000000000
B0520373201423S11656623EA0127601273000000000000
B0520413201497S11656613EA0127901284000000000000
B0520453201566S11656601EA0128401281000000000000
B0520493201639S11656593EA0127101271000000000000
B0520533201714S11656588EA0126801271000000000000
B0520573201788S11656581EA0127501285000000000000
B0521013201830S11656535EA0129601309000000000000
B0521053201803S11656483EA0130901312000000000000
B0521093201739S11656492EA0130401310000000000000
B0521133201683S11656542EA0130301305000000000000
B0521173201652S11656619EA0129501297000000000000
B0521213201670S11656698EA0128901291000000000000
B0521253201729S11656739EA0128301285000000000000
B0521293201796S11656739EA0128201285000000000000
B0521333201869S11656728EA0128201284000000000000
B0521373201943S11656719EA0129401302000000000000
B0521413202013S11656713EA0129501292000000000000
B0521453202091S11656714EA0128301273000000000000
B0521493202175S11656715EA0126501253000000000000
B0521533202258S11656721EA0124801237000000000000
B0521573202342S11656726EA0123801224000000000000
B0522013202428S11656732EA0122301213000000000000
B0522053202511S11656737EA0121301202000000000000
B0522093202594S11656743EA0120401191000000000000
B0522133202676S11656749EA0119401181000000000000
B0522173202757S11656754EA0118801174000000000000
B0522213202836S11656760EA0117701164000000000000
B0522253202916S11656762EA0116901155000000000000
B0522293202996S11656765EA0116001145000000000000
B0522333203077S11656767EA0114801132000000000000
B0522373203159S11656769EA0113601122000000000000
B0522413203242S11656767EA0112401108000000000000
B0522453203326S11656763EA0111001094000000000000
B0522493203411S11656761EA0110101084000000000000
B0522533203497S11656757EA0108901071000000000000
B0522573203582S11656753EA0108001063000000000000
B0523013203666S11656748EA0107101053000000000000
B0523053203750S11656745EA0105901042000000000000
B0523093203832S11656741EA0105601039000000000000
B0523133203911S11656740EA0105101034000000000000
B0523173203992S11656736EA0105101034000000000000
B0523213204065S11656734EA0106601060000000000000
B0523253204126S11656714EA0108301073000000000000
B0523293204139S11656656EA0109901086000000000000
B0523333204086S11656635EA0109701075000000000000
B0523373204039S11656700EA0109001070000000000000
B0523413204039S11656789EA0109201076000000000000
B0523453204086S11656836EA0111001094000000000000
B0523493204125S11656804EA0112301112000000000000
B0523533204104S11656757EA0113301120000000000000
B0523573204044S11656758EA0112501113000000000000
B0524013204004S11656827EA0113001118000000000000
B0524053204035S11656895EA0113901135000000000000
B0524093204084S11656875EA0115701155000000000000
B0524133204074S11656815EA0116901166000000000000
B0524173204014S11656812EA0117301170000000000000
B0524213203978S11656878EA0118101180000000000000
B0524253204001S11656945EA0119101189000000000000
B0524293204052S11656944EA0120701209000000000000
B0524333204048S11656891EA0122201224000000015000
B0524373203995S11656879EA0123501234000000000000
B0524413203958S11656939EA0124201239000000000000
B0524453203980S11657008EA0124801244000000000000
B0524493204031S11657009EA0126401269000000000000
B0524533204019S11656960EA0128501289000000000000
B0524573203962S11656975EA0129601298000000000000
B0525013203945S11657049EA0130201302000000000000
B0525053203985S11657092EA0131401315000000000000
B0525093204013S11657052EA0133301339000000000000
B0525133203970S11657010EA0134901357000000000000
B0525173203914S11657044EA0136601373000000000000
B0525213203900S11657120EA0137001373000000000000
B0525253203937S11657169EA0137701387000000000000
B0525293203982S11657148EA0139201403000000000000
B0525333203984S11657087EA0140901423000000000000
B0525373203931S11657053EA0142301433000000000000
B0525413203871S11657103EA0143301445000000000000
B0525453203867S11657185EA0144401455000000000000
B0525493203914S11657220EA0145401464000000000000
B0525533203956S11657178EA0146401478000000000000
B0525573203943S11657113EA0148401499000000000000
B0526013203881S11657091EA0150601519000000000000
B0526053203822S11657129EA0151601526000000000000
B0526093203800S11657202EA0151701525000000000000
B0526133203824S11657261EA0152701540000000000000
B0526173203871S11657278EA0153401542000000000000
B0526213203915S11657242EA0154001556000000000000
B0526253203906S11657181EA0155301567000000000000
B0526293203842S11657166EA0156401578000000000000
B0526333203794S11657233EA0157101582000000000000
B0526373203815S11657304EA0158001595000000000000
B0526413203865S11657330EA0158901603000000000000
B0526453203926S11657328EA0158401591000000000000
B0526493204000S11657306EA0158101600000000000000
B0526533204075S11657285EA0158401602000000000000
B0526573204153S11657277EA0159201613000000000000
B0527013204229S11657269EA0159801615000000000000
B0527053204308S11657256EA0160201623000000000000
B0527093204385S11657242EA0160501624000000000000
B0527133204465S11657225EA0159001608000000000000
B0527173204547S11657204EA0158101599000000000000
B0527213204632S11657187EA0156901587000000000000
B0527253204717S11657173EA0155901577000000000000
B0527293204801S11657159EA0155601576000000000000
B0527333204881S11657143EA0155601574000000000000
B0527373204960S11657127EA0155401571000000000000
B0527413205040S11657113EA0155001569000000000000
B0527453205116S11657098EA0154801565000000000000
B0527493205194S11657079EA0154401559000000000000
B0527533205271S11657060EA0153801554000000000000
B0527573205348S11657039EA0153201548000000000000
B0528013205423S11657017EA0152501541000000000000
B0528053205497S11656991EA0152501541000000000000
B0528093205570S11656964EA0152201538000000000000
B0528133205642S11656935EA0151501528000000000000
B0528173205713S11656905EA0151101527000000000000
B0528213205782S11656880EA0151801536000000000000
B0528253205851S11656856EA0151601531000000000000
B0528293205921S11656835EA0151301526000000000000
B0528333205991S11656817EA0151401528000000000000
B0528373206058S11656795EA0152601540000000000000
B0528413206116S11656767EA0153501556000000000000
B0528453206175S11656743EA0154201554000000000000
B0528493206238S11656722EA0153601549000000000000
B0528533206307S11656701EA0153201544000000000000
B0528573206376S11656679EA0152601538000000000000
B0529013206445S11656663EA0153601552000000000000
B0529053206500S11656631EA0155001563000000000000
B0529093206498S11656559EA0155001561000000000000
B0529133206433S11656524EA0154301554000000000000
B0529173206368S11656565EA0154401560000000000000
B0529213206346S11656640EA0155601572000000000000
B0529253206366S11656709EA0156701583000000000000
B0529293206413S11656753EA0157401585000000000000
B0529333206474S11656774EA0157001584000000000000
B0529373206540S11656779EA0157501589000000000000
B0529413206609S11656783EA0158301599000000000000
B0529453206676S11656780EA0160001619000000000000
B0529493206730S11656747EA0162101639000000000000
B0529533206715S11656685EA0163401649000000000000
B0529573206652S11656691EA0163901658000000000000
B0530013206630S11656761EA0165401677000000000000
B0530053206666S11656814EA0167201695000000000000
B0530093206717S11656795EA0168801708000000000000
B0530133206721S11656732EA0169501717000000000000
B0530173206670S11656701EA0170501723000000000000
B0530213206619S11656745EA0171301733000000000000
B0530253206626S11656817EA0173001751000000000000
B0530293206679S11656834EA0174301765000000000000
B0530333206709S11656783EA0175701780000000015000
B0530373206679S11656731EA0176501790000000015000
B0530413206621S11656747EA0177401796000000015000
B0530453206605S11656815EA0178701813000000015000
B0530493206644S11656861EA0180101823000000015000
B0530533206696S11656838EA0180801834000000015000
B0530573206697S11656770EA0182101846000000015000
B0531013206647S11656736EA0183001854000000015000
B0531053206592S11656774EA0184001864000000000000
B0531093206585S11656849EA0184801872000000000000
B0531133206637S11656890EA0185601880000000015000
B0531173206683S11656845EA0186401893000000015000
B0531213206662S11656778EA0187501905000000015000
B0531253206602S11656754EA0188801917000000000000
B0531293206548S11656787EA0190101924000000000000
B0531333206531S11656857EA0190701932000000000000
B0531373206562S11656918EA0191601939000000000000
B0531413206619S11656947EA0191701941000000000000
B0531453206682S11656971EA0192201947000000000000
B0531493206747S11656997EA0192601951000000000000
B0531533206813S11657030EA0193201959000000000000
B0531573206878S11657062EA0193701963000000000000
B0532013206946S11657100EA0193901964000000000000
B0532053207016S11657139EA0193301955000000000000
B0532093207086S11657183EA0192301945000000000000
B0532133207155S11657234EA0192301949000000000000
B0532173207216S11657287EA0192501952000000000000
B0532213207274S11657343EA0192901953000000000000
B0532253207336S11657402EA0191501935000000000000
B0532293207401S11657462EA0190101923000000000000
B0532333207468S11657516EA0189301917000000000000
B0532373207536S11657566EA0189501914000000000000
B0532413207602S11657612EA0189101910000000000000
B0532453207671S11657654EA0188601900000000000000
B0532493207745S11657690EA0187701894000000000000
B0532533207822S11657720EA0187101887000000000000
B0532573207898S11657754EA0186601881000000000000
B0533013207978S11657787EA0185601871000000000000
B0533053208061S11657813EA0184701864000000000000
B0533093208143S11657837EA0184501862000000000000
B0533133208222S11657861EA0184301861000000000000
B0533173208300S11657883EA0184401863000000000000
B0533213208376S11657905EA0184501861000000000000
B0533253208452S11657922EA0184201857000000000000
B0533293208526S11657943EA0184101858000000000000
B0533333208599S11657965EA0184001856000000000000
B0533373208672S11657983EA0183601852000000000000
B0533413208745S11658004EA0183401849000000000000
B0533453208816S11658024EA0183101844000000000000
B0533493208889S11658048EA0182501837000000000000
B0533533208962S11658071EA0181501829000000000000
B0533573209039S11658097EA0180801821000000000000
B0534013209117S11658121EA0180001811000000000000
B0534053209195S11658143EA0179201805000000000000
B0534093209273S11658164EA0178601800000000000000
B0534133209347S11658186EA0178401799000000000000
B0534173209418S11658208EA0178401795000000000000
B0534213209492S11658236EA0177601789000000000000
B0534253209565S11658270EA0177801796000000000000
B0534293209637S11658300EA0178101796000000000000
B0534333209709S11658333EA0178101798000000000000
B0534373209781S11658362EA0178701802000000000000
B0534413209852S11658391EA0178701803000000000000
B0534453209923S11658418EA0178701802000000000000
B0534493209993S11658446EA0178201795000000000000
B0534533210064S11658474EA0177801791000000000000
B0534573210133S11658502EA0177201784000000000000
B0535013210201S11658529EA0176501777000000000000
B0535053210270S11658555EA0175701768000000000000
B0535093210341S11658578EA0174801758000000000000
B0535133210417S11658600EA0174101752000000000000
B0535173210496S11658625EA0173201742000000000000
B0535213210580S11658650EA0172801739000000000000
B0535253210666S11658676EA0172901744000000000000
B0535293210752S11658699EA0174101761000000000000
B0535333210829S11658724EA0176901797000000000000
B0535373210900S11658745EA0178901811000000000000
B0535413210970S11658771EA0180201823000000000000
B0535453211041S11658799EA0180601824000000000000
B0535493211115S11658828EA0180401823000000000000
B0535533211191S11658855EA0181001828000000000000
B0535573211268S11658884EA0181201834000000000000
B0536013211343S11658912EA0181301830000000000000
B0536053211421S11658940EA0181201826000000000000
B0536093211497S11658964EA0180901827000000000000
B0536133211570S11658985EA0180301816000000000000
B0536173211642S11659009EA0179201804000000000000
B0536213211715S11659037EA0178101792000000000000
B0536253211787S11659067EA0177301788000000000000
B0536293211857S11659096EA0176901783000000000000
B0536333211927S11659123EA0175901771000000000000
B0536373212001S11659150EA0174801761000000000000
B0536413212074S11659174EA0174201755000000000000
B0536453212148S11659192EA0173601748000000000000
B0536493212221S11659209EA0172801740000000000000
B0536533212295S11659228EA0173201749000000000000
B0536573212367S11659248EA0173801753000000000000
B0537013212438S11659270EA0173801751000000000000
B0537053212513S11659289EA0173001742000000000000
B0537093212590S11659310EA0172801742000000000000
B0537133212663S11659332EA0172901742000000000000
B0537173212736S11659352EA0172701742000000000000
B0537213212809S11659370EA0172901746000000000000
B0537253212879S11659388EA0173301749000000000000
B0537293212950S11659406EA0173601751000000000000
B0537333213022S11659421EA0174401765000000000000
B0537373213089S11659428EA0175501772000000000000
B0537413213156S11659434EA0176501788000000000000
B0537453213202S11659410EA0178301804000000000000
B0537493213212S11659352EA0178401799000000000000
B0537533213180S11659291EA0178301796000000000000
B0537573213123S11659257EA0178401800000000000000
B0538013213059S11659265EA0178601800000000000000
B0538053213017S11659321EA0178601801000000000000
B0538093213017S11659399EA0178801804000000000000
B0538133213053S11659464EA0178701800000000000000
B0538173213113S11659501EA0178801804000000000000
B0538213213175S11659521EA0179301810000000000000
B0538253213236S11659514EA0180101818000000000000
B0538293213274S11659465EA0180701827000000000000
B0538333213266S11659400EA0181601834000000000000
B0538373213214S11659361EA0181501830000000000000
B0538413213150S11659391EA0180601821000000000000
B0538453213127S11659474EA0180301817000000000000
B0538493213154S11659558EA0180201819000000000000
B0538533213215S11659614EA0180001813000000000000
B0538573213291S11659644EA0179001800000000000000
B0539013213371S11659666EA0178701801000000000000
B0539053213452S11659688EA0177601784000000000000
B0539093213539S11659713EA0176601774000000000000
B0539133213628S11659737EA0177001783000000000000
B0539173213713S11659757EA0178101793000000000000
B0539213213797S11659778EA0177901789000000000000
B0539253213882S11659799EA0177301778000000000000
B0539293213971S11659820EA0176301774000000000000
B0539333214058S11659842EA0175701767000000000000
B0539373214144S11659861EA0174901762000000000000
B0539413214228S11659882EA0174401755000000000000
B0539453214311S11659903EA0173501745000000000000
B0539493214395S11659925EA0172401735000000000000
B0539533214478S11659947EA0171301717000000000000
B0539573214566S11659968EA0169601699000000000000
B0540013214655S11659985EA0168001687000000000000
B0540053214742S11700004EA0167501681000000000000
B0540093214829S11700023EA0166101667000000000000
B0540133214916S11700036EA0165701667000000000000
B0540173215002S11700049EA0165401656000000000000
B0540213215090S11700063EA0164301650000000000000
B0540253215173S11700072EA0164001648000000000000
B0540293215255S11700080EA0163701644000000000000
B0540333215337S11700089EA0163001631000000000000
B0540373215419S11700099EA0161701624000000000000
B0540413215498S11700108EA0162501638000000000000
B0540453215568S11700115EA0164701666000000000000
B0540493215632S11700117EA0166301675000000000000
B0540533215701S11700121EA0166801683000000000000
B0540573215771S11700127EA0167601692000000000000
B0541013215843S11700132EA0168401697000000000000
B0541053215919S11700138EA0168301697000000000000
B0541093215999S11700146EA0168101694000000000000
B0541133216079S11700155EA0167901688000000000000
B0541173216164S11700166EA0166501668000000000000
B0541213216250S11700181EA0165101662000000000000
B0541253216333S11700194EA0165101663000000000000
B0541293216412S11700206EA0165001660000000000000
B0541333216491S11700212EA0163901647000000000000
B0541373216571S11700215EA0162901634000000000000
B0541413216650S11700215EA0161801625000000000000
B0541453216729S11700215EA0160601611000000000000
B0541493216813S11700219EA0159101595000000000000
B0541533216897S11700225EA0157701585000000000000
B0541573216980S11700233EA0157101580000000000000
B0542013217062S11700241EA0157001578000000000000
B0542053217143S11700251EA0157101582000000000000
B0542093217221S11700260EA0157201582000000000000
B0542133217296S11700266EA0157101580000000000000
B0542173217372S11700271EA0156601574000000000000
B0542213217448S11700272EA0156101567000000000000
B0542253217525S11700266EA0156401574000000000000
B0542293217604S11700260EA0156601575000000000000
B0542333217685S11700257EA0157001583000000000000
B0542373217763S11700255EA0157601587000000000000
B0542413217840S11700255EA0157601585000000000000
B0542453217918S11700257EA0157301579000000000000
B0542493217998S11700260EA0156001565000000000000
B0542533218077S11700263EA0155601561000000000000
B0542573218155S11700266EA0155201563000000000000
B0543013218230S11700268EA0155501560000000000000
B0543053218305S11700270EA0154401549000000000000
B0543093218380S11700264EA0153301538000000000000
B0543133218460S11700267EA0152101528000000000000
B0543173218536S11700272EA0151701523000000000000
B0543213218613S11700277EA0150901513000000000000
B0543253218690S11700283EA0150101505000000000000
B0543293218763S11700283EA0150201517000000000000
B0543333218831S11700285EA0151101522000000000000
B0543373218903S11700286EA0150501511000000000000
B0543413218972S11700279EA0150301517000000000000
B0543453219036S11700257EA0152001538000000000000
B0543493219060S11700201EA0154201563000000000000
B0543533219015S11700173EA0155701572000000000000
B0543573218973S11700228EA0156701584000000000000
B0544013218991S11700302EA0157301586000000000000
B0544053219051S11700337EA0157801593000000000000
B0544093219098S11700298EA0158901609000000000000
B0544133219072S11700244EA0160301625000000000000
B0544173219013S11700267EA0161501637000000000000
B0544213219003S11700349EA0162901652000000000000
B0544253219046S11700409EA0164301664000000000000
B0544293219107S11700403EA0165001667000000000000
B0544333219128S11700341EA0165601677000000000000
B0544373219086S11700289EA0166901691000000000000
B0544413219020S11700298EA0168001705000000000000
B0544453218977S11700364EA0169801722000000000000
B0544493218978S11700450EA0170801730000000000000
B0544533219020S11700522EA0171601736000000000000
B0544573219086S11700556EA0171901739000000000000
B0545013219142S11700527EA0173301754000000000000
B0545053219121S11700470EA0174501768000000000000
B0545093219062S11700483EA0175201774000000000000
B0545133219046S11700556EA0176501789000000000000
B0545173219095S11700601EA0177001787000000000000
B0545213219162S11700591EA0177101788000000000000
B0545253219197S11700533EA0178001800000000000000
B0545293219168S11700471EA0178201797000000000000
B0545333219093S11700471EA0177901793000000000000
B0545373219037S11700548EA0178401802000000000000
B0545413219021S11700645EA0179401814000000000000
B0545453219049S11700734EA0180301821000000000000
B0545493219110S11700795EA0179401801000000000000
B0545533219199S11700813EA0177501785000000000000
B0545573219294S11700803EA0176601777000000000000
B0546013219388S11700779EA0176201774000000000000
B0546053219483S11700751EA0175901773000000000000
B0546093219576S11700719EA0175801773000000000000
B0546133219671S11700689EA0175501768000000000000
B0546173219764S11700666EA0175201768000000000000
B0546213219852S11700643EA0174901761000000000000
B0546253219939S11700618EA0174101752000000000000
B0546293220025S11700595EA0173301742000000000000
B0546333220111S11700569EA0172001730000000000000
B0546373220200S11700541EA0171201720000000000000
B0546413220290S11700515EA0170301713000000000000
B0546453220380S11700491EA0169601707000000000000
B0546493220468S11700466EA0168901701000000000000
B0546533220557S11700442EA0168201691000000000000
B0546573220645S11700418EA0167701688000000000000
B0547013220731S11700397EA0167401682000000000000
B0547053220819S11700374EA0166601674000000000000
B0547093220906S11700350EA0165801668000000000000
B0547133220992S11700325EA0164901657000000000000
B0547173221082S11700303EA0163801643000000000000
B0547213221173S11700285EA0162701637000000000000
B0547253221261S11700270EA0162401635000000000000
B0547293221348S11700254EA0162101631000000000000
B0547333221434S11700238EA0161501621000000000000
B0547373221522S11700220EA0160301609000000000000
B0547413221607S11700199EA0159801606000000000000
B0547453221685S11700176EA0159601603000000000000
B0547493221764S11700154EA0158401588000000000000
B0547533221845S11700129EA0157101579000000000000
B0547573221919S11700106EA0157201581000000000000
B0548013221994S11700089EA0156501571000000000000
B0548053222066S11700058EA0155901566000000000000
B0548093222139S11700023EA0154601548000000000000
B0548133222214S11659993EA0153001540000000000000
B0548173222286S11659964EA0152701543000000000000
B0548213222352S11659935EA0152901542000000000000
B0548253222419S11659904EA0152201535000000000000
B0548293222490S11659877EA0151501529000000000000
B0548333222565S11659856EA0151301527000000000000
B0548373222640S11659837EA0152401542000000000000
B0548413222703S11659812EA0154501574000000000000
B0548453222759S11659789EA0156601585000000000000
B0548493222803S11659744EA0157301590000000000000
B0548533222789S11659685EA0157401586000000000000
B0548573222728S11659686EA0156801579000000000000
B0549013222682S11659748EA0156501576000000000000
B0549053222656S11659828EA0156401576000000000000
B0549093222676S11659902EA0157401591000000000000
B0549133222726S11659883EA0159201608000000000000
B0549173222711S11659826EA0160701623000000000000
B0549213222653S11659828EA0160501614000000000000
B0549253222622S11659898EA0160701623000000000000
B0549293222655S11659959EA0162301639000000000000
B0549333222713S11659963EA0162801643000000000000
B0549373222734S11659902EA0164001656000000000000
B0549413222681S11659867EA0165101671000000000000
B0549453222625S11659909EA0165801671000000000000
B0549493222621S11659987EA0166901688000000000000
B0549533222656S11700052EA0167401684000000000000
B0549573222720S11700075EA0167201685000000000000
B0550013222789S11700054EA0167801696000000000000
B0550053222826S11659995EA0169701718000000000000
B0550093222777S11659973EA0171401736000000000000
B0550133222751S11700043EA0172701750000000000000
B0550173222796S11700099EA0173701760000000000000
B0550213222859S11700078EA0174701770000000000000
B0550253222864S11700010EA0176001782000000000000
B0550293222808S11659987EA0177801803000000000000
B0550333222778S11700046EA0179601818000000000000
B0550373222815S11700106EA0180501830000000000000
B0550413222878S11700107EA0181501839000000000000
B0550453222903S11700049EA0182901857000000000000
B0550493222863S11700012EA0184501869000000000000
B0550533222819S11700052EA0184901870000000000000
B0550573222829S11700127EA0186201889000000000000
B0551013222887S11700169EA0186501882000000000000
B0551053222969S11700197EA0184901864000000000000
B0551093223064S11700225EA0184101862000000000000
B0551133223162S11700254EA0183801856000000000000
B0551173223259S11700285EA0182901847000000000000
B0551213223354S11700315EA0182601848000000000000
B0551253223445S11700341EA0182701846000000000000
B0551293223532S11700364EA0182401845000000000000
B0551333223615S11700392EA0182501845000000000000
B0551373223697S11700419EA0182201840000000000000
B0551413223779S11700446EA0181601832000000000000
B0551453223862S11700474EA0180301820000000000000
B0551493223947S11700501EA0179501813000000000000
B0551533224033S11700532EA0179001808000000000000
B0551573224119S11700563EA0178201800000000000000
B0552013224206S11700596EA0177901795000000000000
B0552053224293S11700630EA0177101785000000000000
B0552093224384S11700658EA0176301782000000000000
B0552133224472S11700684EA0176301782000000000000
B0552173224561S11700709EA0176001780000000000000
B0552213224646S11700732EA0175701776000000000000
B0552253224733S11700754EA0175501775000000000000
B0552293224821S11700775EA0175701770000000000000
B0552333224906S11700797EA0175301764000000000000
B0552373224990S11700822EA0175001762000000000000
B0552413225073S11700847EA0174501754000000000000
B0552453225157S11700870EA0173501747000000000000
B0552493225242S11700895EA0173201743000000000000
B0552533225325S11700921EA0172501735000000000000
B0552573225412S11700947EA0171701725000000000000
B0553013225500S11700973EA0170801717000000000000
B0553053225590S11700998EA0170401712000000000000
B0553093225677S11701021EA0169801708000000000000
B0553133225763S11701040EA0169101701000000000000
B0553173225850S11701061EA0168501694000000000000
B0553213225935S11701083EA0167701686000000000000
B0553253226018S11701108EA0167201683000000000000
B0553293226100S11701131EA0166801676000000000000
B0553333226183S11701154EA0166001669000000000000
B0553373226266S11701178EA0165501663000000000000
B0553413226348S11701204EA0165101659000000000000
B0553453226429S11701225EA0164401650000000000000
B0553493226512S11701246EA0163301641000000000000
B0553533226594S11701265EA0162601633000000000000
B0553573226673S11701287EA0161501621000000000000
B0554013226752S11701307EA0160901617000000000000
B0554053226830S11701325EA0160901617000000000000
B0554093226903S11701341EA0161901633000000000000
B0554133226971S11701354EA0164001655000000000000
B0554173227037S11701367EA0164701656000000000000
B0554213227109S11701382EA0164101650000000000000
B0554253227185S11701393EA0164601663000000000000
B0554293227261S11701401EA0165701668000000000000
B0554333227339S11701412EA0165301659000000000000
B0554373227422S11701427EA0163601645000000000000
B0554413227505S11701447EA0162801633000000000000
B0554453227590S11701471EA0161501623000000000000
B0554493227674S11701495EA0160901618000000000000
B0554533227759S11701519EA0160501613000000000000
B0554573227844S11701538EA0160401614000000000000
B0555013227928S11701563EA0160801622000000000000
B0555053228009S11701589EA0161301622000000000000
B0555093228094S11701616EA0161201619000000000000
B0555133228180S11701640EA0160501611000000000000
B0555173228266S11701663EA0160001602000000000000
B0555213228353S11701687EA0158501588000000000000
B0555253228440S11701711EA0157601578000000000000
B0555293228527S11701737EA0156601568000000000000
B0555333228617S11701762EA0155001549000000000000
B0555373228710S11701787EA0153501535000000000000
B0555413228802S11701810EA0152801536000000000000
B0555453228892S11701832EA0151701522000000000000
B0555493228983S11701858EA0150801510000000000000
B0555533229069S11701891EA0150201509000000000000
B0555573229150S11701926EA0150501511000000000000
B0556013229230S11701957EA0150101505000000000000
B0556053229315S11701987EA0149601497000000000000
B0556093229402S11702015EA0149701506000000000000
B0556133229478S11702040EA0151301524000000000000
B0556173229554S11702060EA0152101529000000000000
B0556213229631S11702082EA0152201529000000000000
B0556253229709S11702109EA0152601533000000000000
B0556293229790S11702136EA0153001540000000000000
B0556333229872S11702158EA0153601546000000000000
B0556373229953S11702182EA0154201551000000000000
B0556413230032S11702200EA0154201547000000000000
B0556453230113S11702214EA0153701545000000000000
B0556493230192S11702209EA0154001550000000000000
B0556533230268S11702192EA0153501541000000000000
B0556573230353S11702188EA0151901522000000000000
B0557013230446S11702212EA0150601510000000000000
B0557053230534S11702259EA0149801505000000000000
B0557093230617S11702314EA0149901506000000000000
B0557133230697S11702370EA0149301496000000000000
B0557173230775S11702429EA0148601490000000000000
B0557213230851S11702487EA0147801482000000000000
B0557253230927S11702546EA0146801470000000000000
B0557293231001S11702603EA0146001463000000000000
B0557333231072S11702662EA0145101452000000000000
B0557373231145S11702720EA0143801440000000000000
B0557413231218S11702777EA0142901429000000000000
B0557453231293S11702837EA0141401411000000000000
B0557493231373S11702898EA0140101400000000000000
B0557533231451S11702958EA0139301394000000000000
B0557573231529S11703018EA0138701385000000000000
B0558013231605S11703078EA0137701375000000000000
B0558053231679S11703140EA0136801366000000000000
B0558093231752S11703204EA0136201361000000000000
B0558133231820S11703265EA0136101364000000000000
B0558173231885S11703319EA0136501369000000000000
B0558213231948S11703366EA0136901374000000000000
B0558253232015S11703404EA0137001370000000000000
B0558293232081S11703442EA0136501369000000000000
B0558333232150S11703468EA0137101375000000000000
B0558373232218S11703479EA0137401375000000000000
B0558413232290S11703492EA0136901369000000000000
B0558453232363S11703518EA0136501368000000000000
B0558493232436S11703560EA0136801372000000000000
B0558533232505S11703604EA0137601385000000000000
B0558573232571S11703652EA0138901400000000000000
B0559013232640S11703677EA0141101420000000000000
B0559053232680S11703630EA0142101429000000000000
B0559093232650S11703573EA0141401418000000000000
B0559133232584S11703582EA0142301435000000000000
B0559173232559S11703647EA0144301452000000000000
B0559213232615S11703666EA0145501463000000000000
B0559253232639S11703604EA0146301475000000000000
B0559293232593S11703561EA0147701492000000000000
B0559333232545S11703599EA0149201503000000000000
B0559373232556S11703672EA0149801508000000000000
B0559413232613S11703708EA0150601516000000000000
B0559453232667S11703668EA0151101517000000000000
B0559493232666S11703588EA0150601514000000000000
B0559533232611S11703539EA0151301527000000000000
B0559573232548S11703553EA0152201532000000000000
B0600013232519S11703625EA0153001541000000000000
B0600053232557S11703699EA0153601547000000000000
B0600093232630S11703713EA0154501555000000000000
B0600133232666S11703647EA0156401574000000000000
B0600173232627S11703592EA0157301585000000000000
B0600213232572S11703624EA0158401597000000000000
B0600253232580S11703699EA0159801611000000000000
B0600293232640S11703724EA0160801620000000000000
B0600333232670S11703668EA0162001629000000000000
B0600373232623S11703634EA0162501637000000000000
B0600413232583S11703682EA0163801652000000000000
B0600453232596S11703756EA0164201649000000000000
B0600493232649S11703830EA0162801636000000000000
B0600533232719S11703902EA0162201624000000000000
B0600573232796S11703971EA0161301614000000000000
B0601013232873S11704041EA0160101600000000000000
B0601053232949S11704111EA0158901590000000000000
B0601093233022S11704180EA0157901581000000000000
B0601133233095S11704249EA0156801570000000000000
B0601173233168S11704318EA0155901563000000000000
B0601213233241S11704385EA0155201555000000000000
B0601253233311S11704453EA0154701553000000000000
B0601293233381S11704511EA0155501565000000000000
B0601333233446S11704557EA0157301589000000000000
B0601373233511S11704575EA0159101603000000000000
B0601413233558S11704534EA0160101613000000000000
B0601453233546S11704474EA0159601596000000000000
B0601493233485S11704467EA0157701576000000000000
B0601533233443S11704535EA0157101577000000000000
B0601573233459S11704618EA0158201590000000000000
B0602013233502S11704687EA0158801591000000000000
B0602053233566S11704729EA0159101595000000000000
B0602093233627S11704705EA0159501601000000000000
B0602133233635S11704636EA0159201594000000000000
B0602173233580S11704600EA0158401587000000000000
B0602213233515S11704631EA0158301589000000000000
B0602253233482S11704706EA0158401591000000000000
B0602293233502S11704791EA0158401584000000000000
B0602333233566S11704851EA0157901583000000000000
B0602373233642S11704894EA0158101584000000000000
B0602413233726S11704931EA0157101568000000000000
B0602453233815S11704970EA0155301554000000000000
B0602493233905S11705011EA0154401544000000000000
B0602533233997S11705051EA0153101532000000000000
B0602573234090S11705090EA0152201524000000000000
B0603013234182S11705132EA0151501517000000000000
B0603053234272S11705173EA0150701510000000000000
B0603093234359S11705217EA0150201505000000000000
B0603133234444S11705264EA0149601497000000000000
B0603173234530S11705308EA0149201492000000000000
B0603213234613S11705354EA0147901478000000000000
B0603253234699S11705395EA0147001473000000000000
B0603293234782S11705436EA0146901472000000000000
B0603333234864S11705475EA0146901473000000000000
B0603373234945S11705510EA0147201478000000000000
B0603413235024S11705544EA0147401477000000000000
B0603453235102S11705577EA0147201476000000000000
B0603493235180S11705611EA0147201476000000000000
B0603533235258S11705641EA0147101474000000000000
B0603573235335S11705675EA0146601466000000000000
B0604013235412S11705713EA0145601455000000000000
B0604053235490S11705749EA0144801450000000000000
B0604093235566S11705783EA0145801463000000000000
B0604133235637S11705782EA0148401489000000000000
B0604173235639S11705715EA0150701515000000000000
B0604213235590S11705714EA0151901524000000000000
B0604253235573S11705780EA0151501522000000000000
B0604293235609S11705841EA0152101533000000000000
B0604333235660S11705810EA0153701545000000000000
B0604373235626S11705761EA0155101563000000000000
B0604413235574S11705793EA0156101573000000000000
B0604453235590S11705869EA0157101585000000000000
B0604493235659S11705893EA0158301596000000000000
B0604533235707S11705839EA0160101614000000000000
B0604573235687S11705771EA0161701632000000000000
B0605013235631S11705756EA0163601650000000000000
B0605053235590S11705802EA0164401655000000000000
B0605093235594S11705880EA0164901657000000000000
B0605133235655S11705931EA0165501667000000000000
B0605173235709S11705891EA0167701691000000000000
B0605213235690S11705824EA0168701697000000000000
B0605253235629S11705837EA0170001713000000000000
B0605293235612S11705914EA0171601727000000000000
B0605333235655S11705986EA0171201718000000000000
B0605373235733S11705996EA0171301730000000000000
B0605413235785S11705943EA0173801756000000000000
B0605453235782S11705871EA0175901774000000000000
B0605493235731S11705839EA0177001786000000000000
B0605533235679S11705878EA0178201802000000000000
B0605573235679S11705956EA0179601813000000000000
B0606013235729S11706016EA0180601823000000000000
B0606053235787S11705993EA0182301843000000000000
B0606093235770S11705931EA0183401854000000000000
B0606133235712S11705943EA0184401867000000000000
B0606173235700S11706022EA0185301873000000000000
B0606213235755S11706096EA0183901854000000000000
B0606253235850S11706135EA0183101842000000000000
B0606293235956S11706162EA0182501829000000000000
B0606333236071S11706185EA0181501822000000000000
B0606373236186S11706209EA0180101809000000000000
B0606413236297S11706237EA0179401808000000000000
B0606453236405S11706268EA0178801800000000000000
B0606493236508S11706296EA0178401796000000000000
B0606533236610S11706325EA0177501788000000000000
B0606573236708S11706354EA0177801795000000000000
B0607013236803S11706382EA0177501783000000000000
B0607053236901S11706407EA0175901770000000000000
B0607093237000S11706429EA0175001763000000000000
B0607133237096S11706450EA0174601761000000000000
B0607173237189S11706471EA0174501760000000000000
B0607213237277S11706489EA0174301757000000000000
B0607253237364S11706504EA0174301757000000000000
B0607293237447S11706526EA0174301760000000000000
B0607333237528S11706543EA0174401760000000000000
B0607373237606S11706558EA0174501761000000000000
B0607413237684S11706567EA0174501766000000000000
B0607453237759S11706576EA0175201768000000000000
B0607493237836S11706582EA0175401770000000000000
B0607533237915S11706588EA0175301770000000000000
B0607573237997S11706594EA0176001781000000000000
B0608013238075S11706599EA0177401795000000000000
B0608053238155S11706604EA0178201804000000000000
B0608093238238S11706612EA0179101810000000000000
B0608133238322S11706624EA0179701821000000000000
B0608173238406S11706637EA0181001830000000000000
B0608213238487S11706655EA0181401830000000000000
B0608253238571S11706671EA0180601820000000000000
B0608293238658S11706688EA0179401811000000000000
B0608333238742S11706707EA0179401813000000000000
B0608373238825S11706725EA0179001806000000000000
B0608413238914S11706744EA0178801807000000000000
B0608453238998S11706759EA0178901806000000000000
B0608493239085S11706777EA0178501801000000000000
B0608533239171S11706790EA0178501798000000000000
B0608573239261S11706802EA0177201781000000000000
B0609013239357S11706812EA0176001774000000000000
B0609053239451S11706820EA0176301777000000000000
B0609093239539S11706825EA0177001784000000000000
B0609133239625S11706829EA0176401776000000000000
B0609173239711S11706832EA0175501768000000000000
B0609213239798S11706835EA0174701760000000000000
B0609253239884S11706837EA0174601766000000000000
B0609293239964S11706836EA0175301771000000000000
B0609333240046S11706835EA0175301767000000000000
B0609373240129S11706840EA0174901765000000000000
B0609413240214S11706848EA0174701762000000000000
B0609453240301S11706855EA0174301755000000000000
B0609493240391S11706861EA0173101741000000000000
B0609533240480S11706866EA0172601742000000000000
B0609573240569S11706874EA0172501737000000000000
B0610013240655S11706881EA0172801746000000000000
B0610053240736S11706890EA0173601750000000000000
B0610093240818S11706901EA0173301749000000000000
B0610133240894S11706906EA0174401762000000000000
B0610173240970S11706915EA0175001765000000000000
B0610213241050S11706923EA0174501757000000000000
B0610253241133S11706935EA0174201759000000000000
B0610293241215S11706944EA0174501758000000000000
B0610333241301S11706958EA0173601754000000000000
B0610373241384S11706974EA0174101765000000000000
B0610413241466S11706988EA0174801769000000000000
B0610453241548S11707001EA0174801766000000000000
B0610493241635S11707015EA0174401760000000000000
B0610533241723S11707027EA0173501750000000000000
B0610573241812S11707036EA0173201751000000000000
B0611013241896S11707045EA0172801745000000000000
B0611053241982S11707056EA0171901732000000000000
B0611093242070S11707063EA0170801723000000000000
B0611133242157S11707069EA0170201717000000000000
B0611173242243S11707072EA0169701710000000000000
B0611213242328S11707072EA0168901705000000000000
B0611253242410S11707072EA0168801703000000000000
B0611293242491S11707071EA0168401702000000000000
B0611333242568S11707069EA0169101712000000000000
B0611373242645S11707065EA0170101721000000000000
B0611413242716S11707062EA0171601740000000000000
B0611453242788S11707066EA0171801736000000000000
B0611493242865S11707074EA0171101724000000000000
B0611533242946S11707079EA0169501706000000000000
B0611573243035S11707083EA0167901692000000000000
B0612013243123S11707087EA0166801682000000000000
B0612053243210S11707092EA0166401681000000000000
B0612093243296S11707096EA0166201676000000000000
B0612133243383S11707102EA0165401666000000000000
B0612173243472S11707114EA0164501659000000000000
B0612213243557S11707127EA0163601646000000000000
B0612253243646S11707140EA0162301632000000000000
B0612293243734S11707154EA0161501625000000000000
B0612333243820S11707167EA0160701618000000000000
B0612373243906S11707180EA0160001610000000000000
B0612413243992S11707193EA0158801598000000000000
B0612453244074S11707205EA0158301596000000000000
B0612493244153S11707217EA0158001593000000000000
B0612533244233S11707227EA0156801575000000000000
B0612573244323S11707239EA0154801558000000000000
B0613013244413S11707251EA0153801551000000000000
B0613053244504S11707262EA0153101542000000000000
B0613093244596S11707274EA0152301533000000000000
B0613133244687S11707284EA0151801529000000000000
B0613173244778S11707295EA0151501524000000000000
B0613213244867S11707308EA0150801516000000000000
B0613253244956S11707319EA0150001507000000000000
B0613293245047S11707330EA0149001497000000000000
B0613333245137S11707339EA0148001486000000000000
B0613373245227S11707345EA0147301480000000000000
B0613413245316S11707351EA0146501469000000000000
B0613453245407S11707356EA0145701464000000000000
B0613493245494S11707361EA0145401462000000000000
B0613533245583S11707365EA0144801454000000000000
B0613573245671S11707368EA0144201450000000000000
B0614013245758S11707370EA0143901446000000000000
B0614053245843S11707373EA0143301440000000000000
B0614093245929S11707375EA0142801434000000000000
B0614133246017S11707378EA0142601436000000000000
B0614173246100S11707383EA0143101440000000000000
B0614213246182S11707386EA0143201441000000000000
B0614253246264S11707387EA0143001435000000000000
B0614293246347S11707387EA0142601435000000000000
B0614333246430S11707387EA0142701436000000000000
B0614373246514S11707390EA0142901441000000000000
B0614413246596S11707390EA0143501449000000000000
B0614453246670S11707378EA0145301469000000000000
B0614493246675S11707318EA0147001485000000000000
B0614533246615S11707332EA0146901479000000000000
B0614573246605S11707414EA0147201487000000000000
B0615013246651S11707466EA0148101495000000000000
B0615053246711S11707462EA0148201492000000000000
B0615093246742S11707408EA0147401479000000000000
B0615133246727S11707338EA0146501470000000000000
B0615173246687S11707278EA0146501473000000000000
B0615213246625S11707284EA0147501484000000000000
B0615253246612S11707355EA0148401490000000000000
B0615293246658S11707414EA0148401487000000000000
B0615333246727S11707449EA0148501492000000000000
B0615373246805S11707475EA0147301473000000000000
B0615413246888S11707496EA0146401473000000000000
B0615453246971S11707508EA0146801474000000000000
B0615493247054S11707517EA0146901478000000000000
B0615533247138S11707521EA0146901478000000000000
B0615573247226S11707525EA0146301469000000000000
B0616013247314S11707530EA0145701466000000000000
B0616053247402S11707533EA0145201459000000000000
B0616093247486S11707539EA0145101463000000000000
B0616133247571S11707550EA0145301463000000000000
B0616173247656S11707559EA0145701468000000000000
B0616213247741S11707565EA0145601464000000000000
B0616253247828S11707570EA0144801456000000000000
B0616293247912S11707574EA0144801458000000000000
B0616333247997S11707581EA0144401452000000000000
B0616373248083S11707583EA0143201439000000000000
B0616413248171S11707583EA0142501435000000000000
B0616453248260S11707582EA0141501424000000000000
B0616493248351S11707577EA0140601415000000000000
B0616533248444S11707574EA0139701406000000000000
B0616573248539S11707574EA0138601394000000000000
B0617013248633S11707577EA0137501385000000000000
B0617053248725S11707578EA0137001378000000000000
B0617093248817S11707579EA0135901365000000000000
B0617133248910S11707581EA0135001361000000000000
B0617173248998S11707581EA0134401350000000000000
B0617213249090S11707581EA0132601329000000000000
B0617253249185S11707581EA0130801312000000000000
B0617293249283S11707581EA0129601302000000000000
B0617333249379S11707578EA0128901294000000000000
B0617373249475S11707576EA0128301287000000000000
B0617413249567S11707573EA0127801283000000000000
B0617453249656S11707572EA0127101278000000000000
B0617493249744S11707569EA0126401269000000000000
B0617533249829S11707563EA0126001267000000000000
B0617573249911S11707555EA0125701263000000000000
B0618013249994S11707544EA0124901255000000000000
B0618053250076S11707533EA0124901256000000000000
B0618093250154S11707521EA0125301264000000000000
B0618133250232S11707509EA0126001265000000000000
B0618173250302S11707495EA0127301281000000000000
B0618213250371S11707474EA0127301270000000000000
B0618253250444S11707452EA0126401264000000000000
B0618293250515S11707427EA0126501269000000000000
B0618333250583S11707405EA0127901282000000000000
B0618373250645S11707384EA0129201291000000000000
B0618413250707S11707361EA0129501294000000000000
B0618453250766S11707330EA0130101307000000000000
B0618493250785S11707267EA0131701328000000000000
B0618533250740S11707235EA0133401342000000000000
B0618573250701S11707284EA0135101361000000000000
B0619013250727S11707347EA0136101363000000000000
B0619053250788S11707345EA0136601370000000000000
B0619093250805S11707282EA0137801384000000000000
B0619133250754S11707253EA0139401400000000000000
B0619173250724S11707316EA0141201416000000000000
B0619213250765S11707374EA0142301428000000000000
B0619253250826S11707361EA0143701442000000000000
B0619293250836S11707295EA0145301459000000000000
B0619333250784S11707275EA0147101477000000000000
B0619373250765S11707345EA0148601493000000000000
B0619413250819S11707383EA0150501514000000000000
B0619453250861S11707338EA0152101531000000000000
B0619493250832S11707280EA0153901552000000000000
B0619533250780S11707304EA0156401576000000000000
B0619573250779S11707375EA0157801587000000000000
B0620013250837S11707401EA0158801602000000000000
B0620053250869S11707345EA0160801623000000000000
B0620093250827S11707305EA0163001640000000000000
B0620133250788S11707357EA0164301655000000000000
B0620173250823S11707420EA0165501669000000000000
B0620213250884S11707410EA0167301687000000000000
B0620253250901S11707342EA0168801703000000000000
B0620293250852S11707314EA0170801723000000000000
B0620333250814S11707371EA0172401740000000000000
B0620373250841S11707438EA0174101759000000000000
B0620413250902S11707444EA0176001776000000000000
B0620453250926S11707386EA0177501793000000000000
B0620493250887S11707339EA0179001805000000000000
B0620533250836S11707370EA0180501822000000000000
B0620573250840S11707443EA0182101838000000000000
B0621013250895S11707479EA0183501851000000000000
B0621053250951S11707447EA0184401864000000000000
B0621093250941S11707381EA0185801880000000000000
B0621133250886S11707384EA0187901904000000000000
B0621173250863S11707448EA0189701916000000000000
B0621213250906S11707507EA0190201914000000000000
B0621253250987S11707512EA0188501893000000000000
B0621293251077S11707478EA0186801878000000000000
B0621333251169S11707429EA0185901866000000000000
B0621373251264S11707371EA0184901853000000000000
B0621413251361S11707314EA0184201847000000000000
B0621453251460S11707262EA0184001846000000000000
B0621493251559S11707213EA0183801844000000000000
B0621533251656S11707170EA0183601844000000000000
B0621573251751S11707128EA0183301840000000000000
B0622013251846S11707089EA0182601833000000000000
B0622053251940S11707050EA0182101827000000000000
B0622093252035S11707013EA0181701824000000000000
B0622133252128S11706976EA0181101816000000000000
B0622173252221S11706937EA0180201808000000000000
B0622213252312S11706897EA0179601802000000000000
B0622253252401S11706854EA0178701792000000000000
B0622293252492S11706812EA0177601785000000000000
B0622333252579S11706772EA0177501784000000000000
B0622373252664S11706732EA0177501782000000000000
B0622413252747S11706697EA0177301779000000000000
B0622453252829S11706660EA0176001771000000000000
B0622493252912S11706625EA0175101763000000000000
B0622533252993S11706591EA0174901763000000000000
B0622573253072S11706555EA0174801762000000000000
B0623013253150S11706517EA0174001750000000000000
B0623053253231S11706481EA0172801741000000000000
B0623093253309S11706447EA0172701740000000000000
B0623133253385S11706413EA0172401735000000000000
B0623173253458S11706378EA0172801746000000000000
B0623213253530S11706343EA0173401748000000000000
B0623253253603S11706308EA0173601752000000000000
B0623293253677S11706273EA0173701750000000000000
B0623333253752S11706231EA0172901738000000000000
B0623373253831S11706191EA0171901729000000000000
B0623413253915S11706155EA0171501725000000000000
B0623453253998S11706125EA0171101722000000000000
B0623493254082S11706101EA0170901717000000000000
B0623533254165S11706079EA0170101710000000000000
B0623573254247S11706058EA0169701708000000000000
B0624013254328S11706034EA0169201701000000000000
B0624053254406S11706004EA0168801696000000000000
B0624093254481S11705975EA0168801699000000000000
B0624133254553S11705947EA0168801697000000000000
B0624173254627S11705915EA0168001689000000000000
B0624213254702S11705883EA0167501682000000000000
B0624253254775S11705845EA0167301681000000000000
B0624293254848S11705808EA0166401669000000000000
B0624333254919S11705772EA0166001669000000000000
B0624373254991S11705741EA0166301675000000000000
B0624413255062S11705713EA0166901679000000000000
B0624453255134S11705688EA0167301685000000000000
B0624493255202S11705662EA0167901690000000000000
B0624533255272S11705637EA0168001688000000000000
B0624573255338S11705602EA0167801685000000000000
B0625013255402S11705559EA0168201696000000000000
B0625053255460S11705516EA0168801697000000000000
B0625093255515S11705470EA0169001698000000000000
B0625133255566S11705418EA0168401690000000000000
B0625173255615S11705366EA0167901688000000000000
B0625213255653S11705307EA0168201690000000000000
B0625253255677S11705245EA0168001687000000000000
B0625293255701S11705178EA0167901686000000000000
B0625333255741S11705117EA0167701685000000000000
B0625373255792S11705068EA0167901686000000000000
B0625413255840S11705016EA0167701684000000000000
B0625453255846S11704952EA0167601682000000000000
B0625493255793S11704920EA0166601669000000000000
B0625533255723S11704935EA0165601658000000000000
B0625573255649S11704955EA0164201642000000000000
B0626013255571S11704972EA0162901633000000000000
B0626053255494S11704990EA0162101624000000000000
B0626093255419S11705007EA0161601621000000000000
B0626133255345S11705026EA0161601623000000000000
B0626173255272S11705047EA0161201614000000000000
B0626213255198S11705067EA0160201604000000000000
B0626253255121S11705089EA0159101596000000000000
B0626293255044S11705106EA0158501588000000000000
B0626333254968S11705121EA0157901582000000000000
B0626373254891S11705139EA0157001573000000000000
B0626413254812S11705160EA0156201566000000000000
B0626453254732S11705180EA0155601560000000000000
B0626493254652S11705200EA0154901553000000000000
B0626533254571S11705220EA0154401548000000000000
B0626573254490S11705237EA0153901543000000000000
B0627013254411S11705254EA0153501538000000000000
B0627053254333S11705272EA0152801533000000000000
B0627093254255S11705291EA0152501529000000000000
B0627133254177S11705314EA0151801520000000000000
B0627173254098S11705336EA0150901511000000000000
B0627213254019S11705366EA0150301502000000000000
B0627253253944S11705418EA0149201492000000000000
B0627293253877S11705484EA0148401486000000000000
B0627333253813S11705554EA0147901483000000000000
B0627373253749S11705620EA0147301470000000000000
B0627413253687S11705691EA0145601456000000000000
B0627453253625S11705758EA0144601449000000000000
B0627493253565S11705823EA0144401446000000000000
B0627533253502S11705883EA0143901439000000000000
B0627573253443S11705940EA0144601453000000000000
B0628013253392S11705996EA0145901464000000000000
B0628053253341S11706055EA0145601454000000000000
B0628093253291S11706120EA0144701452000000000000
B0628133253242S11706185EA0144601449000000000000
B0628173253189S11706246EA0143501434000000000000
B0628213253115S11706282EA0142301425000000000000
B0628253253034S11706282EA0142301431000000000000
B0628293252959S11706261EA0143901448000000000000
B0628333252889S11706235EA0144101444000000000000
B0628373252820S11706213EA0143201435000000000000
B0628413252747S11706194EA0142201420000000000000
B0628453252674S11706174EA0141301415000000000000
B0628493252605S11706148EA0140901409000000000000
B0628533252544S11706096EA0140801412000000000000
B0628573252491S11706039EA0141501422000000000000
B0629013252440S11705987EA0142401425000000000000
B0629053252381S11705947EA0142501429000000000000
B0629093252313S11705939EA0143301435000000000000
B0629133252244S11705944EA0143701440000000000000
B0629173252178S11705951EA0144001442000000000000
B0629213252109S11705958EA0144001441000000000000
B0629253252039S11705973EA0143801437000000000000
B0629293251963S11705987EA0142801428000000000000
B0629333251887S11706005EA0142601429000000000000
B0629373251811S11706018EA0142601427000000000000
B0629413251740S11706029EA0143401442000000000000
B0629453251668S11706042EA0143001428000000000000
B0629493251593S11706052EA0142301423000000000000
B0629533251520S11706062EA0143501440000000000000
B0629573251486S11706123EA0145201453000000000000
B0630013251532S11706174EA0145301454000000000000
B0630053251589S11706149EA0144801447000000000000
B0630093251616S11706082EA0144701448000000000000
B0630133251611S11706010EA0144801450000000000000
B0630173251568S11705957EA0144901453000000000000
B0630213251507S11705939EA0146201469000000000000
B0630253251471S11705993EA0147401478000000000000
B0630293251512S11706048EA0147901482000000000000
B0630333251563S11706008EA0148301490000000000000
B0630373251547S11705940EA0149701507000000000000
B0630413251490S11705923EA0151101519000000000000
B0630453251439S11705967EA0152101530000000000000
B0630493251428S11706044EA0152601532000000000000
B0630533251464S11706107EA0153101539000000000000
B0630573251524S11706100EA0153801544000000000000
B0631013251554S11706038EA0154301553000000000000
B0631053251521S11705980EA0155601567000000000000
B0631093251460S11705988EA0156801575000000000000
B0631133251422S11706055EA0157101576000000000000
B0631173251445S11706135EA0157201576000000000000
B0631213251506S11706157EA0158101589000000000000
B0631253251550S11706109EA0158901596000000000000
B0631293251545S11706038EA0160001606000000000000
B0631333251499S11705986EA0160101607000000000000
B0631373251428S11705960EA0159101591000000000000
B0631413251343S11705964EA0157801582000000000000
B0631453251259S11705975EA0157701581000000000000
B0631493251174S11705988EA0157001569000000000000
B0631533251087S11706001EA0155701556000000000000
B0631573251001S11706021EA0155001553000000000000
B0632013250923S11706047EA0155101554000000000000
B0632053250848S11706075EA0155401558000000000000
B0632093250772S11706100EA0155101557000000000000
B0632133250697S11706122EA0154901555000000000000
B0632173250619S11706144EA0154701552000000000000
B0632213250540S11706165EA0154801558000000000000
B0632253250467S11706187EA0156201575000000000000
B0632293250406S11706227EA0158201593000000000000
B0632333250415S11706302EA0159901612000000000000
B0632373250476S11706312EA0161201622000000000000
B0632413250505S11706257EA0161801627000000000000
B0632453250476S11706200EA0162501634000000000000
B0632493250419S11706192EA0163001639000000000000
B0632533250375S11706246EA0164001651000000000000
B0632573250385S11706320EA0165701677000000000000
B0633013250438S11706357EA0167901694000000000000
B0633053250493S11706337EA0168601697000000000000
B0633093250509S11706273EA0168801703000000000000
B0633133250473S11706220EA0169501706000000000000
B0633173250410S11706229EA0169501705000000000000
B0633213250382S11706308EA0169801710000000000000
B0633253250429S11706378EA0171601730000000000000
B0633293250494S11706360EA0173201747000000000000
B0633333250512S11706294EA0174301760000000000000
B0633373250477S11706238EA0175101765000000000000
B0633413250414S11706231EA0175501767000000000000
B0633453250358S11706283EA0176101777000000000000
B0633493250377S11706354EA0178801811000000000000
B0633533250433S11706355EA0180601822000000000000
B0633573250458S11706298EA0181401829000000000000
B0634013250431S11706240EA0182001834000000000000
B0634053250369S11706227EA0182701844000000000000
B0634093250343S11706298EA0184501864000000000000
B0634133250393S11706350EA0186101878000000000000
B0634173250453S11706329EA0187001893000000000000
B0634213250472S11706265EA0188601902000000000000
B0634253250436S11706207EA0188301894000000000000
B0634293250363S11706179EA0187401884000000000000
B0634333250276S11706186EA0186801887000000000000
B0634373250186S11706203EA0187201889000000000000
B0634413250093S11706224EA0188401903000000000000
B0634453250000S11706243EA0188601899000000000000
B0634493249903S11706263EA0187701890000000000000
B0634533249807S11706283EA0187401887000000000000
B0634573249712S11706308EA0186801882000000000000
B0635013249619S11706334EA0185801870000000000000
B0635053249526S11706360EA0184801860000000000000
B0635093249432S11706385EA0183901846000000000000
B0635133249337S11706409EA0183101842000000000000
B0635173249245S11706434EA0182601838000000000000
B0635213249154S11706459EA0182401837000000000000
B0635253249066S11706484EA0182001832000000000000
B0635293248977S11706506EA0181401825000000000000
B0635333248889S11706523EA0180801817000000000000
B0635373248802S11706534EA0180101812000000000000
B0635413248717S11706539EA0180101812000000000000
B0635453248635S11706542EA0179601808000000000000
B0635493248553S11706549EA0179201802000000000000
B0635533248474S11706560EA0178701795000000000000
B0635573248395S11706573EA0178001787000000000000
B0636013248313S11706590EA0177301779000000000000
B0636053248232S11706614EA0176701777000000000000
B0636093248153S11706633EA0177101784000000000000
B0636133248075S11706647EA0177701787000000000000
B0636173247998S11706664EA0176701775000000000000
B0636213247919S11706680EA0176201769000000000000
B0636253247840S11706694EA0175601765000000000000
B0636293247760S11706702EA0176001772000000000000
B0636333247684S11706710EA0176601778000000000000
B0636373247607S11706720EA0177101782000000000000
B0636413247528S11706733EA0176901777000000000000
B0636453247448S11706749EA0176601776000000000000
B0636493247370S11706759EA0177001782000000000000
B0636533247296S11706771EA0177001780000000000000
B0636573247220S11706780EA0176201770000000000000
B0637013247143S11706785EA0175301758000000000000
B0637053247065S11706788EA0174201753000000000000
B0637093246991S11706788EA0174101752000000000000
B0637133246919S11706788EA0174601760000000000000
B0637173246852S11706790EA0175201764000000000000
B0637213246784S11706797EA0175001757000000000000
B0637253246713S11706803EA0175001760000000000000
B0637293246641S11706809EA0175901772000000000000
B0637333246573S11706816EA0176401775000000000000
B0637373246505S11706828EA0176201771000000000000
B0637413246433S11706838EA0175301759000000000000
B0637443246373S11706846EA0173401739000000000000
B0637493246267S11706849EA0172801739000000000000
B0637533246185S11706841EA0173201743000000000000
B0637573246104S11706833EA0172901736000000000000
B0638013246022S11706828EA0172001726000000000000
B0638053245940S11706825EA0171301718000000000000
B0638093245852S11706819EA0169501695000000000000
B0638133245761S11706807EA0167501678000000000000
B0638173245670S11706796EA0166501672000000000000
B0638213245582S11706779EA0165601661000000000000
B0638253245493S11706762EA0164401645000000000000
B0638293245403S11706741EA0162901633000000000000
B0638333245315S11706718EA0162001625000000000000
B0638373245227S11706692EA0161101617000000000000
B0638413245141S11706662EA0160601612000000000000
B0638453245056S11706633EA0160101607000000000000
B0638493244973S11706604EA0159601600000000000000
B0638533244890S11706575EA0158801594000000000000
B0638573244807S11706549EA0158401587000000000000
B0639013244725S11706526EA0157501579000000000000
B0639053244640S11706506EA0156601570000000000000
B0639093244556S11706487EA0155601560000000000000
B0639133244473S11706472EA0155201558000000000000
B0639173244392S11706459EA0155101556000000000000
B0639213244311S11706441EA0154601549000000000000
B0639253244230S11706425EA0153701541000000000000
B0639293244149S11706411EA0153001536000000000000
B0639333244068S11706396EA0152701531000000000000
B0639373243989S11706381EA0152701533000000000000
B0639413243911S11706367EA0153301546000000000000
B0639453243837S11706363EA0154801558000000000000
B0639493243763S11706360EA0155301563000000000000
B0639533243687S11706357EA0155701569000000000000
B0639573243612S11706360EA0156201574000000000000
B0640013243535S11706365EA0156401568000000000000
B0640053243459S11706372EA0156301574000000000000
B0640093243383S11706376EA0157101583000000000000
B0640133243307S11706383EA0157601585000000000000
B0640173243229S11706393EA0157401581000000000000
B0640213243148S11706402EA0157601587000000000000
B0640253243073S11706411EA0158701595000000000000
B0640293243000S11706419EA0159001596000000000000
B0640333242926S11706428EA0158601588000000000000
B0640373242849S11706443EA0158001585000000000000
B0640413242775S11706460EA0157401579000000000000
B0640453242698S11706477EA0156601569000000000000
B0640493242620S11706487EA0156101564000000000000
B0640533242541S11706498EA0155401555000000000000
B0640573242458S11706507EA0154601552000000000000
B0641013242376S11706516EA0154801555000000000000
B0641053242295S11706524EA0155001557000000000000
B0641093242217S11706528EA0155701564000000000000
B0641133242142S11706532EA0156101565000000000000
B0641173242065S11706533EA0155701562000000000000
B0641213241991S11706534EA0155801568000000000000
B0641253241923S11706538EA0156901578000000000000
B0641293241857S11706542EA0157301580000000000000
B0641333241791S11706528EA0158101591000000000000
B0641373241754S11706477EA0159601608000000000000
B0641413241784S11706424EA0160801615000000000000
B0641453241847S11706420EA0160501607000000000000
B0641493241904S11706469EA0159301596000000000000
B0641533241923S11706551EA0159501601000000000000
B0641573241895S11706623EA0160101608000000000000
B0642013241844S11706673EA0160301611000000000000
B0642053241789S11706721EA0160701615000000000000
B0642093241732S11706766EA0161501626000000000000
B0642133241671S11706786EA0162501634000000000000
B0642173241633S11706741EA0163501643000000000000
B0642213241671S11706695EA0164001646000000000000
B0642253241734S11706718EA0164301650000000000000
B0642293241775S11706785EA0164801657000000000000
B0642333241771S11706872EA0165301659000000000000
B0642373241721S11706942EA0165601664000000000000
B0642413241654S11706987EA0166501675000000000000
B0642453241584S11707023EA0165801658000000000000
B0642493241505S11707062EA0164401648000000000000
B0642533241424S11707095EA0164001643000000000000
B0642573241341S11707122EA0163401635000000000000
B0643013241256S11707147EA0162401625000000000000
B0643053241172S11707169EA0161701619000000000000
B0643093241091S11707187EA0161401617000000000000
B0643133241006S11707202EA0161001612000000000000
B0643173240922S11707215EA0161701627000000000000
B0643213240844S11707228EA0162101626000000000000
B0643253240761S11707244EA0161001609000000000000
B0643293240674S11707261EA0159501596000000000000
B0643333240588S11707277EA0158801592000000000000
B0643373240504S11707293EA0158401589000000000000
B0643413240421S11707313EA0158401588000000000000
B0643453240339S11707331EA0157901580000000000000
B0643493240255S11707351EA0156801571000000000000
B0643533240172S11707370EA0155701559000000000000
B0643573240090S11707395EA0154901547000000000000
B0644013240006S11707421EA0153401530000000000000
B0644053239919S11707446EA0151601510000000000000
B0644093239832S11707469EA0150301504000000000000
B0644133239751S11707492EA0150501506000000000000
B0644173239676S11707512EA0150401504000000000000
B0644213239604S11707533EA0150001502000000000000
B0644253239537S11707557EA0149701495000000000000
B0644293239466S11707581EA0148401483000000000000
B0644333239396S11707604EA0148001479000000000000
B0644373239331S11707637EA0148401486000000000000
B0644413239278S11707693EA0148601484000000000000
B0644453239222S11707754EA0148001478000000000000
B0644493239152S11707799EA0147701482000000000000
B0644533239080S11707804EA0149401503000000000000
B0644573239035S11707768EA0151501523000000000000
B0645013239031S11707709EA0151701519000000000000
B0645053239074S11707655EA0150501503000000000000
B0645093239147S11707652EA0150001498000000000000
B0645133239214S11707707EA0150201505000000000000
B0645173239241S11707789EA0151901525000000000000
B0645213239225S11707865EA0153001535000000000000
B0645253239174S11707917EA0153001527000000000000
B0645293239100S11707928EA0152101522000000000000
B0645333239030S11707907EA0152701535000000000000
B0645373238967S11707876EA0153901546000000000000
B0645413238906S11707838EA0154001540000000000000
B0645453238842S11707794EA0152701527000000000000
B0645493238775S11707747EA0152101524000000000000
B0645533238705S11707699EA0151401515000000000000
B0645573238632S11707650EA0150501507000000000000
B0646013238559S11707596EA0149901501000000000000
B0646053238487S11707540EA0149001486000000000000
B0646093238415S11707485EA0147501473000000000000
B0646133238344S11707425EA0146401464000000000000
B0646173238278S11707365EA0145801458000000000000
B0646213238212S11707308EA0145301453000000000000
B0646253238146S11707253EA0144801448000000000000
B0646293238079S11707202EA0144801450000000000000
B0646333238013S11707157EA0144801449000000000000
