ACAM4N6
HFDTE111016
HFFXA050
HFPLTPILOT:JOHN WELSH              
HFGTYGLIDERTYPE:HORNET      
HFGIDGLIDERID:VH-GMY      
HFDTM100GPSDATUM:
HFRFWFIRMWAREVERSION:F2.6
HFRHWHARDWAREVERSION:300 Series Version 2
HFFTYFRTYPE:CAMBRIDGE AERO INSTRUMENTS, 302+
HFGPS:GARMIN,LVS-25,12,18000
HFPRSPRESSALTSENSOR:INTERSEMA, MS5534-AP, 20000
I033638FXA3941ENL4247REX
LCAMSBVER:5FWVER:F26300
C111016035437111016000102
C0000000N00000000WTAKEOFF     
C3207549S11656849EBEVAIR      
C3235539S11737473EYEALERNG    
C3157887S11735628EYOTING      
C3207549S11656849EBEVAIR      
C0000000N00000000WLANDING     
B0448283207342S11656861EA0012400201000004000000
B0448303207342S11656861EA0012300201000004000000
B0448323207342S11656861EA0012300201000004000000
B0448343207342S11656861EA0012300201000004000000
B0448363207342S11656861EA0012300201000004000000
B0448383207342S11656861EA0012300201000004000000
B0448403207342S11656861EA0012400201000004000000
B0448423207342S11656861EA0012400201000004000000
B0448443207342S11656861EA0012400201000004000000
B0448463207342S11656861EA0012400201000004000000
B0448483207342S11656861EA0012500201000004000000
B0448503207342S11656861EA0012400201000004000000
B0448523207342S11656861EA0012400201000004000000
B0448543207342S11656861EA0012400201000004000000
B0448563207342S11656861EA0012400201000004000000
B0448593207350S11656867EA0012400201000004000000
B0449033207373S11656887EA0012000201000004000000
B0449073207412S11656914EA0012100201000004000000
B0449113207467S11656947EA0012000203000004000000
B0449153207529S11656986EA0012300206000004000000
B0449193207593S11657030EA0012700213000004000000
B0449233207651S11657077EA0014600238000004000000
B0449273207705S11657121EA0017100268000004000000
B0449313207755S11657164EA0019600290000004000000
B0449353207805S11657204EA0022100314000004000000
B0449393207854S11657244EA0024100335000004000000
B0449433207906S11657287EA0025100343000004000000
B0449473207960S11657333EA0026200356000004000000
B0449513208009S11657376EA0028400384000004000000
B0449553208060S11657416EA0030300407000004000000
B0449593208112S11657464EA0032300421000004000000
B0450033208161S11657519EA0033500437000004000000
B0450073208208S11657576EA0035500460000004000000
B0450113208259S11657629EA0037700480000004000000
B0450153208307S11657684EA0040100508000004000000
B0450193208355S11657740EA0042600530000004000000
B0450233208403S11657792EA0044900561000004000000
B0450273208450S11657841EA0048200581000004000000
B0450313208493S11657894EA0050000602000004000000
B0450353208535S11657952EA0051600618000004000000
B0450393208577S11658014EA0052800630000004000000
B0450433208611S11658079EA0054300645000004000000
B0450473208633S11658149EA0055300653000004000000
B0450513208646S11658221EA0056200663000004000000
B0450553208646S11658292EA0057400682000004000000
B0450593208632S11658365EA0059200696000004000000
B0451033208607S11658437EA0060500713000004000000
B0451073208569S11658499EA0062500735000004000000
B0451113208517S11658547EA0065100761000004000000
B0451153208456S11658586EA0067400786000004000000
B0451193208407S11658630EA0069500804000004000000
B0451233208417S11658689EA0071600825000004000000
B0451273208474S11658677EA0072400830000004000000
B0451313208489S11658604EA0072900833000004000000
B0451353208439S11658565EA0073600845000004000000
B0451393208391S11658594EA0074700860000004000000
B0451433208395S11658654EA0076200877000004000000
B0451473208444S11658678EA0077300881000004000000
B0451513208493S11658630EA0077900889000004000000
B0451553208486S11658556EA0078700897000004000000
B0451593208433S11658533EA0079800909000004000000
B0452033208402S11658580EA0080800922000004000000
B0452073208438S11658630EA0081700928000004000000
B0452113208500S11658608EA0082000931000004000000
B0452153208516S11658528EA0082800941000004000000
B0452193208469S11658481EA0083800955000004000000
B0452233208429S11658512EA0085600972000004000000
B0452273208452S11658561EA0086600978000004000000
B0452313208511S11658550EA0087100982000004000000
B0452353208528S11658476EA0087700994000004000000
B0452393208487S11658429EA0089101008000004000000
B0452433208441S11658446EA0090001013000004000000
B0452473208434S11658505EA0090501023000004000000
B0452513208481S11658539EA0091501034000004000000
B0452553208535S11658498EA0092101038000004000000
B0452593208538S11658414EA0092501045000004000000
B0453033208491S11658362EA0093601058000004000000
B0453073208435S11658364EA0094701066000004000000
B0453113208394S11658400EA0095301073000004000000
B0453153208395S11658457EA0096201084000004000000
B0453193208443S11658485EA0097101094000004000000
B0453233208491S11658444EA0098201100000004000000
B0453273208490S11658366EA0097901098000004000000
B0453313208438S11658329EA0098601107000004000000
B0453353208394S11658365EA0099501116000004000000
B0453393208404S11658427EA0100201123000004000000
B0453433208460S11658442EA0101401135000004000000
B0453473208499S11658382EA0102001137000004000000
B0453513208477S11658304EA0101601138000004000000
B0453553208417S11658281EA0102601151000004000000
B0453593208379S11658329EA0103901163000004000000
B0454033208395S11658391EA0104801169000004000000
B0454073208451S11658404EA0105701180000004000000
B0454113208500S11658357EA0106901186000004000000
B0454153208511S11658279EA0107001190000004000000
B0454193208474S11658219EA0107501197000004000000
B0454233208421S11658235EA0108301204000004000000
B0454273208425S11658292EA0109301214000004000000
B0454313208481S11658283EA0110901230000004000000
B0454353208496S11658214EA0112101246000004000000
B0454393208456S11658170EA0113401253000004000000
B0454433208413S11658200EA0113901259000004000000
B0454473208433S11658255EA0114401269000004000000
B0454513208487S11658239EA0116001287000004000000
B0454553208503S11658169EA0117601300000004000000
B0454593208464S11658123EA0118601308000004000000
B0455033208421S11658148EA0119201315000004000000
B0455073208428S11658199EA0119901321000004000000
B0455113208478S11658213EA0120501330000004000000
B0455153208522S11658166EA0122001342000004000000
B0455193208517S11658093EA0122501346000004000000
B0455233208473S11658056EA0123301355000004000000
B0455273208429S11658074EA0123601356000004000000
B0455313208420S11658131EA0123201350000004000000
B0455353208467S11658169EA0123101355000004000000
B0455393208525S11658139EA0123601362000004000000
B0455433208547S11658066EA0124801372000004000000
B0455473208520S11657997EA0125401375000004000000
B0455513208463S11657979EA0125801383000004000000
B0455553208428S11658024EA0126501385000004000000
B0455593208460S11658076EA0126001379000004000000
B0456033208525S11658054EA0126401390000004000000
B0456073208561S11657979EA0127801401000004000000
B0456113208550S11657893EA0128301403000004000000
B0456153208500S11657835EA0128601410000004000000
B0456193208437S11657832EA0129601421000004000000
B0456233208394S11657878EA0130301421000004000000
B0456273208395S11657945EA0130101421000004000000
B0456313208447S11657980EA0130601429000004000000
B0456353208504S11657945EA0131201431000004000000
B0456393208529S11657863EA0131201431000004000000
B0456433208491S11657794EA0131901443000004000000
B0456473208442S11657814EA0133701463000004000000
B0456513208459S11657867EA0134201463000004000000
B0456553208520S11657867EA0134801473000004000000
B0456593208561S11657807EA0135801480000004000000
B0457033208555S11657731EA0136001484000004000000
B0457073208508S11657683EA0136801491000004000000
B0457113208457S11657706EA0137101495000004000000
B0457153208452S11657767EA0137301495000004000000
B0457193208500S11657805EA0137401500000004000000
B0457233208559S11657770EA0138501508000004000000
B0457273208571S11657693EA0138901511000004000000
B0457313208538S11657627EA0139201515000004000000
B0457353208485S11657577EA0139201512000004000000
B0457393208428S11657534EA0139101511000004000000
B0457433208364S11657497EA0137801497000004000000
B0457473208296S11657455EA0137501495000004000000
B0457513208227S11657415EA0137201493000004000000
B0457553208157S11657377EA0137301494000004000000
B0457593208088S11657339EA0137601497000004000000
B0458033208022S11657302EA0137701492000004000000
B0458073207953S11657267EA0136901483000004000000
B0458113207884S11657230EA0136101476000004000000
B0458153207817S11657190EA0135601470000004000000
B0458193207749S11657146EA0135201465000004000000
B0458233207683S11657100EA0134301458000004000000
B0458273207618S11657052EA0134301456000004000000
B0458313207553S11657008EA0134101453000004000000
B0458353207492S11656966EA0134101455000004000000
B0458393207433S11656925EA0134101452000004000000
B0458433207376S11656880EA0133601450000004000000
B0458473207321S11656830EA0133101445000004000000
B0458513207274S11656766EA0133101443000004000000
B0458553207220S11656724EA0133301447000004000000
B0458593207172S11656749EA0133501450000004000000
B0459033207176S11656815EA0132701440000004000000
B0459073207228S11656870EA0130501419000004000000
B0459113207297S11656918EA0129301405000004000000
B0459153207372S11656966EA0128401392000004000000
B0459193207449S11657014EA0127101380000004000000
B0459233207528S11657061EA0126301377000004000000
B0459273207606S11657103EA0126301375000004000000
B0459313207680S11657143EA0125901371000004000000
B0459353207754S11657185EA0125101361000004000000
B0459393207828S11657228EA0124101351000004000000
B0459433207904S11657270EA0123301344000004000000
B0459473207979S11657313EA0122401335000004000000
B0459513208057S11657352EA0121901327000004000000
B0459553208136S11657389EA0121401324000004000000
B0459593208214S11657423EA0121301321000004000000
B0500033208290S11657459EA0121901331000004000000
B0500073208359S11657498EA0122001326000004000000
B0500113208424S11657543EA0121101314000004000000
B0500153208490S11657594EA0121101322000004000000
B0500193208552S11657637EA0123301341000004000000
B0500233208620S11657649EA0125301363000004000000
B0500273208662S11657593EA0127001378000004000000
B0500313208633S11657532EA0127001374000004000000
B0500353208573S11657549EA0126501374000004000000
B0500393208558S11657616EA0127501391000004000000
B0500433208607S11657655EA0129001402000004000000
B0500473208664S11657616EA0129801410000004000000
B0500513208665S11657537EA0129601406000004000000
B0500553208616S11657488EA0130001414000004000000
B0500593208563S11657508EA0131301427000004000000
B0501033208552S11657571EA0132301438000004000000
B0501073208594S11657618EA0133001445000004000000
B0501113208658S11657607EA0133201446000004000000
B0501153208686S11657534EA0133501450000004000000
B0501193208652S11657475EA0133801452000004000000
B0501233208603S11657495EA0134301462000004000000
B0501273208606S11657562EA0134801460000004000000
B0501313208651S11657627EA0132901430000004000000
B0501353208720S11657699EA0129201398000004000000
B0501393208794S11657776EA0127601391000004000000
B0501433208863S11657848EA0127801397000004000000
B0501473208927S11657911EA0128301400000004000000
B0501513208990S11657970EA0128101395000004000000
B0501553209053S11658026EA0127601389000004000000
B0501593209115S11658083EA0126801380000004000000
B0502033209172S11658148EA0126001371000004000000
B0502073209224S11658216EA0125301365000004000000
B0502113209271S11658287EA0125301366000004000000
B0502153209312S11658359EA0125701373000004000000
B0502193209344S11658433EA0126901384000004000000
B0502233209375S11658505EA0126301367000004000000
B0502273209416S11658582EA0124901358000004000000
B0502313209455S11658656EA0124301351000004000000
B0502353209495S11658729EA0123501344000004000000
B0502393209539S11658801EA0122701335000004000000
B0502433209583S11658872EA0122601334000004000000
B0502473209625S11658944EA0122501335000004000000
B0502513209666S11659015EA0122701334000004000000
B0502553209708S11659087EA0122401331000004000000
B0502593209750S11659157EA0121901322000004000000
B0503033209791S11659228EA0121201317000004000000
B0503073209835S11659298EA0120501310000004000000
B0503113209877S11659369EA0120201305000004000000
B0503153209921S11659438EA0119201297000004000000
B0503193209965S11659505EA0118601292000004000000
B0503233210010S11659573EA0118501292000004000000
B0503273210047S11659643EA0118401291000004000000
B0503313210080S11659716EA0117901281000004000000
B0503353210120S11659786EA0116901275000004000000
B0503393210163S11659855EA0116301266000004000000
B0503433210209S11659924EA0114601247000004000000
B0503473210264S11659989EA0112801234000004000000
B0503513210324S11700052EA0112001225000004000000
B0503553210387S11700114EA0111801222000004000000
B0503593210449S11700176EA0111101210000004000000
B0504033210515S11700237EA0110301210000004000000
B0504073210578S11700294EA0110701212000004000000
B0504113210640S11700351EA0110401206000004000000
B0504153210704S11700409EA0109301197000004000000
B0504193210766S11700462EA0109301200000004000000
B0504233210826S11700515EA0109401199000004000000
B0504273210882S11700565EA0109301198000004000000
B0504313210938S11700619EA0107701180000004000000
B0504353210996S11700676EA0107101171000004000000
B0504393211054S11700740EA0106001160000004000000
B0504433211109S11700806EA0105001152000004000000
B0504473211164S11700871EA0104201145000004000000
B0504513211220S11700936EA0103301136000004000000
B0504553211276S11701001EA0102201124000004000000
B0504593211332S11701068EA0101301116000004000000
B0505033211392S11701133EA0100401106000004000000
B0505073211451S11701194EA0100601112000004000000
B0505113211507S11701248EA0101401122000004000000
B0505153211561S11701299EA0102601136000004000000
B0505193211619S11701324EA0104401154000004000000
B0505233211666S11701276EA0106401172000004000000
B0505273211644S11701208EA0107401181000004000000
B0505313211585S11701204EA0107501186000004000000
B0505353211562S11701260EA0107501191000004000000
B0505393211594S11701312EA0107801196000004000000
B0505433211654S11701325EA0109301210000004000000
B0505473211692S11701271EA0110101217000004000000
B0505513211658S11701206EA0110201215000004000000
B0505553211600S11701220EA0109701216000004000000
B0505593211594S11701285EA0110601227000004000000
B0506033211629S11701338EA0111601238000004000000
B0506073211691S11701342EA0112401244000004000000
B0506113211715S11701274EA0113401254000004000000
B0506153211670S11701229EA0113901255000004000000
B0506193211626S11701265EA0114001259000004000000
B0506233211641S11701328EA0114301265000004000000
B0506273211689S11701373EA0114401262000004000000
B0506313211749S11701417EA0112801248000004000000
B0506353211810S11701475EA0110901226000004000000
B0506393211871S11701533EA0109601213000004000000
B0506433211930S11701598EA0108401199000004000000
B0506473211984S11701667EA0107401189000004000000
B0506513212032S11701736EA0106601184000004000000
B0506553212075S11701807EA0106301180000004000000
B0506593212117S11701875EA0107101192000004000000
B0507033212159S11701940EA0107901201000004000000
B0507073212199S11702002EA0108501201000004000000
B0507113212239S11702069EA0107501189000004000000
B0507153212276S11702138EA0106901182000004000000
B0507193212309S11702201EA0106701182000004000000
B0507233212342S11702266EA0106701182000004000000
B0507273212377S11702330EA0106901182000004000000
B0507313212415S11702391EA0107001182000004000000
B0507353212450S11702454EA0106601176000004000000
B0507393212482S11702520EA0106901184000004000000
B0507433212507S11702586EA0107901193000004000000
B0507473212524S11702651EA0109101202000004000000
B0507513212539S11702715EA0109201200000004000000
B0507553212562S11702779EA0109901215000004000000
B0507593212591S11702833EA0111301225000004000000
B0508033212615S11702890EA0112001231000004000000
B0508073212589S11702936EA0112101230000004000000
B0508113212530S11702916EA0112401235000004000000
B0508153212500S11702849EA0112401228000004000000
B0508193212504S11702766EA0112001233000004000000
B0508233212506S11702676EA0112301233000004000000
B0508273212500S11702582EA0112901243000004000000
B0508313212524S11702507EA0114501256000004000000
B0508353212573S11702481EA0115501266000004000000
B0508393212612S11702512EA0116401276000004000000
B0508433212593S11702567EA0117401284000004000000
B0508473212529S11702568EA0117601289000004000000
B0508513212493S11702504EA0118601295000004000000
B0508553212511S11702434EA0118401288000004000000
B0508593212565S11702396EA0117901289000004000000
B0509033212625S11702396EA0118201289000004000000
B0509073212671S11702441EA0118601296000004000000
B0509113212692S11702504EA0119401307000004000000
B0509153212680S11702573EA0120001308000004000000
B0509193212621S11702608EA0120201312000004000000
B0509233212559S11702580EA0120601322000004000000
B0509273212547S11702504EA0121601330000004000000
B0509313212589S11702452EA0122701338000004000000
B0509353212641S11702456EA0123701350000004000000
B0509393212667S11702504EA0124801362000004000000
B0509433212654S11702561EA0124901359000004000000
B0509473212599S11702598EA0124701361000004000000
B0509513212533S11702594EA0125501371000004000000
B0509553212506S11702528EA0126701381000004000000
B0509593212546S11702477EA0127201386000004000000
B0510033212591S11702507EA0127701393000004000000
B0510073212597S11702576EA0127701389000004000000
B0510113212597S11702655EA0127501392000004000000
B0510153212623S11702728EA0127801399000004000000
B0510193212676S11702777EA0127401388000004015000
B0510233212738S11702834EA0124201357000004000000
B0510273212802S11702897EA0122801349000004000000
B0510313212863S11702958EA0122401344000004000000
B0510353212920S11703019EA0122601346000004000000
B0510393212967S11703085EA0123701359000004000000
B0510433213007S11703157EA0123801355000004000000
B0510473213050S11703227EA0122601336000004000000
B0510513213098S11703297EA0121001323000004000000
B0510553213149S11703367EA0119901316000004000000
B0510593213204S11703435EA0119501314000004000000
B0511033213243S11703508EA0120301327000004000000
B0511073213284S11703577EA0120001314000004000000
B0511113213325S11703648EA0119201308000004000000
B0511153213364S11703718EA0119101307000004000000
B0511193213405S11703787EA0118701300000004000000
B0511233213448S11703855EA0118401293000004000000
B0511273213488S11703925EA0117801292000004000000
B0511313213529S11703997EA0117701289000004000000
B0511353213570S11704068EA0116501270000004000000
B0511393213615S11704142EA0114901259000004000000
B0511433213663S11704211EA0114601258000004000000
B0511473213711S11704277EA0114501257000004000000
B0511513213761S11704340EA0114401252000004000000
B0511553213813S11704400EA0113601247000004000000
B0511593213864S11704463EA0114101257000004000000
B0512033213908S11704522EA0116101272000004000000
B0512073213950S11704578EA0116501266000004000000
B0512113213993S11704641EA0114201242000004000000
B0512153214040S11704708EA0112801235000004000000
B0512193214085S11704775EA0112101225000004000000
B0512233214133S11704844EA0110101205000004000000
B0512273214176S11704917EA0109701204000004000000
B0512313214222S11704985EA0109201197000004000000
B0512353214268S11705052EA0107901183000004000000
B0512393214317S11705121EA0106901174000004000000
B0512433214365S11705187EA0106201170000004000000
B0512473214413S11705250EA0106001167000004000000
B0512513214466S11705308EA0105301162000004000000
B0512553214522S11705366EA0104701156000004000000
B0512593214580S11705420EA0104101150000004000000
B0513033214636S11705477EA0103601147000004000000
B0513073214687S11705536EA0103401144000004000000
B0513113214734S11705597EA0103001136000004000000
B0513153214779S11705661EA0102301133000004000000
B0513193214825S11705722EA0101801122000004000000
B0513233214869S11705787EA0100501112000004000000
B0513273214916S11705850EA0099601105000004000000
B0513313214969S11705909EA0098601092000004000000
B0513353215020S11705971EA0097301083000004000000
B0513393215061S11706039EA0097101083000004000000
B0513433215099S11706104EA0096901079000004000000
B0513473215136S11706169EA0096301072000004000000
B0513513215173S11706235EA0095401061000004000000
B0513553215211S11706305EA0094101050000004000000
B0513593215250S11706374EA0093201042000004000000
B0514033215289S11706445EA0092701038000004000000
B0514073215328S11706512EA0092201034000004000000
B0514113215368S11706580EA0091801031000004000000
B0514153215410S11706645EA0091901031000004000000
B0514193215454S11706707EA0091701032000004000000
B0514233215507S11706754EA0092801047000004000000
B0514273215571S11706755EA0094101055000004000000
B0514313215630S11706714EA0094701057000004000000
B0514353215646S11706637EA0094701057000004000000
B0514393215601S11706586EA0094101053000004000000
B0514433215544S11706608EA0094001062000004000000
B0514473215507S11706660EA0094901068000004000000
B0514513215481S11706719EA0096101080000004000000
B0514553215485S11706776EA0096701082000004000000
B0514593215539S11706772EA0096401080000004000000
B0515033215557S11706699EA0096401079000004000000
B0515073215514S11706642EA0096801091000004000000
B0515113215461S11706646EA0098701108000004000000
B0515153215446S11706698EA0098801100000004000000
B0515193215490S11706736EA0097701092000004000000
B0515233215548S11706699EA0097701096000004000000
B0515273215571S11706627EA0098401101000004000000
B0515313215542S11706554EA0098301102000004000000
B0515353215485S11706524EA0098501108000004000000
B0515393215433S11706555EA0099401116000004000000
B0515433215411S11706616EA0099301112000004000000
B0515473215429S11706685EA0098101099000004000000
B0515513215476S11706750EA0096201080000004000000
B0515553215535S11706811EA0094701073000004000000
B0515593215594S11706870EA0094101068000004000000
B0516033215656S11706924EA0093701061000004000000
B0516073215718S11706976EA0093301058000004000000
B0516113215778S11707036EA0093401062000004000000
B0516153215826S11707106EA0094201070000004000000
B0516193215862S11707182EA0094301064000004000000
B0516233215906S11707254EA0093401061000004000000
B0516273215951S11707319EA0094101069000004000000
B0516313215982S11707386EA0095201077000004000000
B0516353216016S11707452EA0095501077000004000000
B0516393216049S11707521EA0095601077000004000000
B0516433216087S11707591EA0094701068000004000000
B0516473216129S11707660EA0094201063000004000000
B0516513216183S11707720EA0093201052000004000000
B0516553216250S11707768EA0092701043000004000000
B0516593216322S11707808EA0091601037000004000000
B0517033216399S11707838EA0092401048000004000000
B0517073216469S11707864EA0092901047000004000000
B0517113216543S11707889EA0092501045000004000000
B0517153216616S11707906EA0092301041000004000000
B0517193216693S11707927EA0091601035000004000000
B0517233216768S11707950EA0092001043000004000000
B0517273216841S11707973EA0093201054000004000000
B0517313216901S11707936EA0094101066000004000000
B0517353216888S11707858EA0094701067000004000000
B0517393216827S11707847EA0094101057000004000000
B0517433216785S11707904EA0093401053000004000000
B0517473216787S11707980EA0093901063000004000000
B0517513216813S11708045EA0094601067000004000000
B0517553216866S11708089EA0093701055000004000000
B0517593216940S11708092EA0092901049000004000000
B0518033217015S11708075EA0092701050000004000000
B0518073217087S11708050EA0093701060000004000000
B0518113217151S11708027EA0094901077000004000000
B0518153217209S11707997EA0096201086000004000000
B0518193217225S11707925EA0096801090000004000000
B0518233217171S11707893EA0097101096000004000000
B0518273217138S11707934EA0098001102000004000000
B0518313217156S11707982EA0098101103000004000000
B0518353217209S11708001EA0098101104000004000000
B0518393217268S11707977EA0098001102000004000000
B0518433217310S11707914EA0097801101000004000000
B0518473217326S11707834EA0098201103000004000000
B0518513217291S11707769EA0097301093000004000000
B0518553217232S11707778EA0096401085000004000000
B0518593217216S11707845EA0095901085000004000000
B0519033217226S11707919EA0095901090000004000000
B0519073217240S11707989EA0096901101000004000000
B0519113217261S11708059EA0097101101000004000000
B0519153217288S11708127EA0097801111000004000000
B0519193217344S11708114EA0099601126000004000000
B0519233217336S11708041EA0100601135000004000000
B0519273217282S11708040EA0101401142000004000000
B0519313217278S11708094EA0102001149000004000000
B0519353217329S11708111EA0102801158000004000000
B0519393217372S11708057EA0103901166000004000000
B0519433217356S11707988EA0104801176000004000000
B0519473217303S11707976EA0105401180000004000000
B0519513217283S11708028EA0105601183000004000000
B0519553217321S11708070EA0106201191000004000000
B0519593217374S11708034EA0107101200000004000000
B0520033217379S11707962EA0108601215000004000000
B0520073217336S11707917EA0109301216000004000000
B0520113217286S11707932EA0109301222000004000000
B0520153217266S11707984EA0110401229000004000000
B0520193217290S11708036EA0111401239000004000000
B0520233217347S11708027EA0111901246000004000000
B0520273217368S11707956EA0113001256000004000000
B0520313217334S11707898EA0113901269000004000000
B0520353217283S11707903EA0115301281000004000000
B0520393217269S11707956EA0116301294000004000000
B0520433217309S11707990EA0117301300000004000000
B0520473217362S11707959EA0117901308000004000000
B0520513217366S11707885EA0118501314000004000000
B0520553217317S11707851EA0119201322000004000000
B0520593217275S11707885EA0120501337000004000000
B0521033217292S11707938EA0121801344000004000000
B0521073217348S11707934EA0121701345000004000000
B0521113217379S11707868EA0122601352000004000000
B0521153217357S11707798EA0123001362000004000000
B0521193217307S11707782EA0124101372000004000000
B0521233217274S11707825EA0125001384000004000000
B0521273217300S11707876EA0125801387000004000000
B0521313217362S11707872EA0125901391000004000000
B0521353217403S11707811EA0127101402000004000000
B0521393217391S11707737EA0127801406000004000000
B0521433217336S11707716EA0128201415000004000000
B0521473217299S11707754EA0129701430000004000000
B0521513217307S11707807EA0130601434000004000000
B0521553217362S11707824EA0130001428000004000000
B0521593217422S11707782EA0130001432000004000000
B0522033217455S11707708EA0130801442000004000000
B0522073217422S11707644EA0131901448000004000000
B0522113217365S11707644EA0131801448000004000000
B0522153217343S11707702EA0132201452000004000000
B0522193217351S11707771EA0132201453000004000000
B0522233217381S11707836EA0132201455000004000000
B0522273217424S11707895EA0132201451000004000000
B0522313217465S11707963EA0131201439000004000000
B0522353217508S11708034EA0129701426000004000000
B0522393217556S11708109EA0128901418000004000000
B0522433217604S11708180EA0128301412000004000000
B0522473217652S11708253EA0127601402000004000000
B0522513217700S11708324EA0126801396000004000000
B0522553217749S11708395EA0126901399000004000000
B0522593217795S11708461EA0126901397000004000000
B0523033217842S11708530EA0126101388000004000000
B0523073217890S11708599EA0125301381000004000000
B0523113217937S11708669EA0124901376000004000000
B0523153217983S11708738EA0124501369000004000000
B0523193218029S11708805EA0123601359000004000000
B0523233218076S11708874EA0123001354000004000000
B0523273218123S11708943EA0122901353000004000000
B0523313218168S11709012EA0122601350000004000000
B0523353218217S11709081EA0122501349000004000000
B0523393218266S11709151EA0123301359000004000000
B0523433218300S11709228EA0124501371000004000000
B0523473218330S11709303EA0124901374000004000000
B0523513218360S11709377EA0125101372000004000000
B0523553218393S11709454EA0124301364000004000000
B0523593218435S11709529EA0123701354000004000000
B0524033218483S11709605EA0122501345000004000000
B0524073218535S11709678EA0122001345000004000000
B0524113218586S11709748EA0122401344000004000000
B0524153218635S11709821EA0121101332000004000000
B0524193218687S11709892EA0120601328000004000000
B0524233218738S11709964EA0120401323000004000000
B0524273218789S11710034EA0119601314000004000000
B0524313218841S11710107EA0118301300000004000000
B0524353218893S11710178EA0117401296000004000000
B0524393218942S11710248EA0116701286000004000000
B0524433218987S11710321EA0115801278000004000000
B0524473219032S11710394EA0115701278000004000000
B0524513219075S11710463EA0115801278000004000000
B0524553219117S11710532EA0115301270000004000000
B0524593219159S11710601EA0114501261000004000000
B0525033219201S11710668EA0113501250000004000000
B0525073219244S11710737EA0112501243000004000000
B0525113219286S11710806EA0112001241000004000000
B0525153219325S11710874EA0112201242000004000000
B0525193219361S11710941EA0111901239000004000000
B0525233219394S11711009EA0111601236000004000000
B0525273219427S11711073EA0111401233000004000000
B0525313219461S11711136EA0110801228000004000000
B0525353219497S11711197EA0110401222000004000000
B0525393219532S11711258EA0110401216000004000000
B0525433219569S11711318EA0109401212000004000000
B0525473219604S11711375EA0108901206000004000000
B0525513219639S11711434EA0108101197000004000000
B0525553219676S11711495EA0107301187000004000000
B0525593219717S11711556EA0106501181000004000000
B0526033219752S11711620EA0105801173000004000000
B0526073219788S11711686EA0104801161000004000000
B0526113219823S11711755EA0104901154000004000000
B0526153219858S11711823EA0104401153000004000000
B0526193219892S11711892EA0103701150000004000000
B0526233219929S11711960EA0103001137000004000000
B0526273219966S11712037EA0101201118000004000000
B0526313220008S11712115EA0100201114000004000000
B0526353220048S11712192EA0100001107000004000000
B0526393220091S11712269EA0098701094000004000000
B0526433220134S11712347EA0097501084000004000000
B0526473220177S11712423EA0096901077000004000000
B0526513220224S11712499EA0096201068000004000000
B0526553220273S11712575EA0094901055000004000000
B0526593220319S11712652EA0094901063000004000000
B0527033220355S11712727EA0095301062000004000000
B0527073220391S11712802EA0095001062000004000000
B0527113220423S11712873EA0095501067000004000000
B0527153220458S11712939EA0095801070000004000000
B0527193220489S11713010EA0095801069000004000000
B0527233220520S11713081EA0095801065000004000000
B0527273220553S11713154EA0095001056000004000000
B0527313220590S11713227EA0094301052000004000000
B0527353220627S11713298EA0094501054000004000000
B0527393220663S11713364EA0094101048000004000000
B0527433220700S11713431EA0093701047000004000000
B0527473220729S11713497EA0093701050000004000000
B0527513220762S11713562EA0093801049000004000000
B0527553220792S11713627EA0094201057000004000000
B0527593220823S11713689EA0094501052000004000000
B0528033220866S11713747EA0093501041000004000000
B0528073220918S11713800EA0093501050000004000000
B0528113220957S11713864EA0094101052000004000000
B0528153220996S11713926EA0094401055000004000000
B0528193221053S11713966EA0094101051000004000000
B0528233221118S11713996EA0093801046000004000000
B0528273221184S11714024EA0093301041000004000000
B0528313221249S11714053EA0093401045000004000000
B0528353221303S11714096EA0094301058000004000000
B0528393221288S11714161EA0095801075000004000000
B0528433221229S11714152EA0097301088000004000000
B0528473221205S11714083EA0098401098000004000000
B0528513221238S11714025EA0099201107000004000000
B0528553221290S11714024EA0100301119000004000000
B0528593221318S11714068EA0101201124000004000000
B0529033221292S11714124EA0100501120000004000000
B0529073221229S11714131EA0100701126000004000000
B0529113221183S11714078EA0101501134000004000000
B0529153221169S11714003EA0101901135000004000000
B0529193221192S11713930EA0101301129000004000000
B0529233221253S11713897EA0101001124000004000000
B0529273221318S11713923EA0100201123000004000000
B0529313221372S11713973EA0101201138000004000000
B0529353221399S11714038EA0102801154000004000000
B0529393221395S11714105EA0103701161000004000000
B0529433221351S11714148EA0104001158000004000000
B0529473221295S11714176EA0102601137000004000000
B0529513221256S11714237EA0099701111000004000000
B0529553221256S11714319EA0098101096000004000000
B0529593221299S11714391EA0096901081000004000000
B0530033221374S11714434EA0095301065000004000000
B0530073221463S11714458EA0093401046000004000000
B0530113221551S11714475EA0092001034000004000000
B0530153221639S11714490EA0091001025000004000000
B0530193221727S11714503EA0090001013000004000000
B0530233221815S11714512EA0089101006000004000000
B0530273221902S11714521EA0088401001000004000000
B0530313221988S11714532EA0088000995000004000000
B0530353222074S11714544EA0087400990000004000000
B0530393222158S11714555EA0087000984000004000000
B0530433222244S11714568EA0086300977000004000000
B0530473222328S11714580EA0085500968000004000000
B0530513222410S11714592EA0085100964000004000000
B0530553222488S11714605EA0084400957000004000000
B0530593222564S11714618EA0084700959000004000000
B0531033222635S11714627EA0084800961000004000000
B0531073222702S11714636EA0085900974000004000000
B0531113222763S11714640EA0087600990000004000000
B0531153222813S11714602EA0088400996000004000000
B0531193222800S11714527EA0088200995000004000000
B0531233222741S11714511EA0088500999000004000000
B0531273222698S11714562EA0089101006000004000000
B0531313222700S11714631EA0089801015000004000000
B0531353222750S11714654EA0091001024000004000000
B0531393222796S11714603EA0091001021000004000000
B0531433222781S11714523EA0091401033000004000000
B0531473222724S11714503EA0093001046000004000000
B0531513222692S11714555EA0093601050000004000000
B0531553222718S11714612EA0094001060000004000000
B0531593222777S11714610EA0094901066000004000000
B0532033222812S11714541EA0095401072000004000000
B0532073222786S11714467EA0096001076000004000000
B0532113222726S11714458EA0096301078000004000000
B0532153222702S11714519EA0096501080000004000000
B0532193222726S11714584EA0097001088000004000000
B0532233222785S11714596EA0098301101000004000000
B0532273222824S11714536EA0099301112000004000000
B0532313222804S11714464EA0100001117000004000000
B0532353222744S11714450EA0100101118000004000000
B0532393222705S11714501EA0100201119000004000000
B0532433222720S11714563EA0100801125000004000000
B0532473222769S11714596EA0101601139000004000000
B0532513222817S11714557EA0102801141000004000000
B0532553222799S11714481EA0102401143000004000000
B0532593222741S11714476EA0103401152000004000000
B0533033222722S11714533EA0104001158000004000000
B0533073222764S11714570EA0104801167000004000000
B0533113222812S11714533EA0106101180000004000000
B0533153222799S11714464EA0106801185000004000000
B0533193222741S11714443EA0107201192000004000000
B0533233222705S11714489EA0108001198000004000000
B0533273222731S11714538EA0108601204000004000000
B0533313222786S11714532EA0109301215000004000000
B0533353222813S11714472EA0110801227000004000000
B0533393222782S11714412EA0111301232000004000000
B0533433222726S11714417EA0111901238000004000000
B0533473222712S11714473EA0112301241000004000000
B0533513222756S11714506EA0113101249000004000000
B0533553222812S11714473EA0113201251000004000000
B0533593222829S11714398EA0113501258000004000000
B0534033222782S11714354EA0115101274000004000000
B0534073222735S11714386EA0115701275000004000000
B0534113222746S11714445EA0115901279000004000000
B0534153222800S11714445EA0116701288000004000000
B0534193222830S11714381EA0117501294000004000000
B0534233222802S11714319EA0118401305000004000000
B0534273222748S11714320EA0119201312000004000000
B0534313222730S11714375EA0119101309000004000000
B0534353222767S11714419EA0119401314000004000000
B0534393222824S11714411EA0120101323000004000000
B0534433222848S11714346EA0121001334000004000000
B0534473222811S11714291EA0122201343000004000000
B0534513222752S11714300EA0122501347000004000000
B0534553222731S11714358EA0123001354000004000000
B0534593222767S11714403EA0123401354000004000000
B0535033222825S11714384EA0123301358000004000000
B0535073222837S11714308EA0124801372000004000000
B0535113222787S11714276EA0126001385000004000000
B0535153222747S11714321EA0126401387000004000000
B0535193222765S11714378EA0126801392000004000000
B0535233222822S11714384EA0127301399000004000000
B0535273222863S11714324EA0128501411000004000000
B0535313222845S11714256EA0130201426000004000000
B0535353222790S11714245EA0130901431000004000000
B0535393222751S11714295EA0131201432000004000000
B0535433222754S11714363EA0131501437000004000000
B0535473222804S11714395EA0132501449000004000000
B0535513222861S11714367EA0133701460000004000000
B0535553222878S11714291EA0134601473000004000000
B0535593222834S11714248EA0136101488000004000000
B0536033222791S11714285EA0137001491000004000000
B0536073222804S11714346EA0137501500000004000000
B0536113222860S11714350EA0138901512000004000000
B0536153222886S11714276EA0139401517000004000000
B0536193222848S11714216EA0141001535000004000000
B0536233222793S11714224EA0141901541000004000000
B0536273222772S11714285EA0142201544000004000000
B0536313222813S11714330EA0143001554000004000000
B0536353222873S11714307EA0144101564000004000000
B0536393222894S11714232EA0144601571000004000000
B0536433222856S11714176EA0145901585000004000000
B0536473222804S11714195EA0146801590000004000000
B0536513222796S11714261EA0146901591000004000000
B0536553222848S11714295EA0147601602000004000000
B0536593222899S11714250EA0148601611000004000000
B0537033222902S11714172EA0149401617000004000000
B0537073222858S11714121EA0150301626000004000000
B0537113222804S11714133EA0150901632000004000000
B0537153222780S11714189EA0151301633000004000000
B0537193222802S11714252EA0150901629000004000000
B0537233222852S11714306EA0150101622000004000000
B0537273222913S11714359EA0149001612000004000000
B0537313222968S11714430EA0147801604000004000000
B0537353223016S11714511EA0147201594000004000000
B0537393223064S11714596EA0146601593000004000000
B0537433223111S11714674EA0147101594000004000000
B0537473223157S11714750EA0146101580000004000000
B0537513223206S11714831EA0145001566000004000000
B0537553223255S11714913EA0143901557000004000000
B0537593223305S11714993EA0143301553000004000000
B0538033223352S11715077EA0142801547000004000000
B0538073223398S11715158EA0142601547000004000000
B0538113223444S11715239EA0142401544000004000000
B0538153223489S11715317EA0142301543000004000000
B0538193223535S11715392EA0142201542000004000000
B0538233223582S11715463EA0142401543000004000000
B0538273223626S11715532EA0142301544000004000000
B0538313223667S11715598EA0142401542000004000000
B0538353223709S11715665EA0142101537000004000000
B0538393223753S11715733EA0141501531000004000000
B0538433223795S11715801EA0141301532000004000000
B0538473223836S11715866EA0141101526000004000000
B0538513223877S11715935EA0140001515000004000000
B0538553223920S11716003EA0139001506000004000000
B0538593223957S11716072EA0138701502000004000000
B0539033223991S11716144EA0138401503000004000000
B0539073224025S11716213EA0138801503000004000000
B0539113224061S11716282EA0138201498000004000000
B0539153224099S11716352EA0137601490000004000000
B0539193224143S11716422EA0136301478000004000000
B0539233224187S11716494EA0136101479000004000000
B0539273224224S11716568EA0136201478000004000000
B0539313224260S11716639EA0135901471000004000000
B0539353224301S11716712EA0134601458000004000000
B0539393224342S11716782EA0134101459000004000000
B0539433224381S11716850EA0134101457000004000000
B0539473224415S11716917EA0133601450000004000000
B0539513224451S11716985EA0132801445000004000000
B0539553224489S11717054EA0132301437000004000000
B0539593224525S11717125EA0131501430000004000000
B0540033224561S11717196EA0131201428000004000000
B0540073224594S11717264EA0130901420000004000000
B0540113224627S11717336EA0130101413000004000000
B0540153224661S11717413EA0129101405000004000000
B0540193224693S11717492EA0128101395000004000000
B0540233224727S11717575EA0127001387000004000000
B0540273224761S11717658EA0126701385000004000000
B0540313224795S11717740EA0126401379000004000000
B0540353224831S11717823EA0125601370000004000000
B0540393224867S11717905EA0124301355000004000000
B0540433224906S11717989EA0122701337000004000000
B0540473224947S11718070EA0122201335000004000000
B0540513224983S11718151EA0121701327000004000000
B0540553225021S11718236EA0120701319000004000000
B0540593225057S11718320EA0120201319000004000000
B0541033225088S11718408EA0119801311000004000000
B0541073225118S11718498EA0119201308000004000000
B0541113225152S11718587EA0119101303000004000000
B0541153225190S11718674EA0118701303000004000000
B0541193225229S11718762EA0118201297000004000000
B0541233225268S11718850EA0117901291000004000000
B0541273225307S11718939EA0117101286000004000000
B0541313225344S11719026EA0116701278000004000000
B0541353225380S11719113EA0115401267000004000000
B0541393225415S11719204EA0114801263000004000000
B0541433225448S11719292EA0114001247000004000000
B0541473225485S11719383EA0112401239000004000000
B0541513225521S11719472EA0111501230000004000000
B0541553225554S11719556EA0112101236000004000000
B0541593225585S11719640EA0110901218000004000000
B0542033225620S11719728EA0109301203000004000000
B0542073225655S11719814EA0108101194000004000000
B0542113225688S11719903EA0107401188000004000000
B0542153225719S11719991EA0106901179000004000000
B0542193225751S11720082EA0105701170000004000000
B0542233225784S11720170EA0104801162000004000000
B0542273225818S11720254EA0104301154000004000000
B0542313225851S11720339EA0103601148000004000000
B0542353225883S11720422EA0102801139000004000000
B0542393225911S11720505EA0102101132000004000000
B0542433225940S11720589EA0101301125000004000000
B0542473225971S11720667EA0101001122000004000000
B0542513226005S11720745EA0100401115000004000000
B0542553226037S11720824EA0099901110000004000000
B0542593226067S11720904EA0099101104000004000000
B0543033226091S11720981EA0099701110000004000000
B0543073226113S11721054EA0100001112000004000000
B0543113226134S11721123EA0100201114000004000000
B0543153226160S11721187EA0100201113000004000000
B0543193226184S11721252EA0100301111000004000000
B0543233226201S11721322EA0099701106000004000000
B0543273226213S11721392EA0099801111000004000000
B0543313226240S11721452EA0100301115000004000000
B0543353226304S11721449EA0100601117000004000000
B0543393226358S11721388EA0100701116000004000000
B0543433226377S11721302EA0100801117000004000000
B0543473226345S11721228EA0101001122000004000000
B0543513226280S11721194EA0101601127000004000000
B0543553226244S11721131EA0102601139000004000000
B0543593226286S11721094EA0103601144000004000000
B0544033226332S11721129EA0104001150000004000000
B0544073226334S11721192EA0105401171000004000000
B0544113226283S11721201EA0106801178000004000000
B0544153226239S11721146EA0106301173000004000000
B0544193226245S11721068EA0106201175000004000000
B0544233226299S11721036EA0106901184000004000000
B0544273226347S11721070EA0107701192000004000000
B0544313226352S11721135EA0108201199000004000000
B0544353226295S11721151EA0109601214000004000000
B0544393226262S11721085EA0110401220000004000000
B0544433226295S11721018EA0110701224000004000000
B0544473226356S11721019EA0111601235000004000000
B0544513226392S11721071EA0112801245000004000000
B0544553226383S11721135EA0113201246000004000000
B0544593226331S11721166EA0112901242000004000000
B0545033226266S11721148EA0112501233000004000000
B0545073226215S11721084EA0111401227000004000000
B0545113226169S11721012EA0111301224000004000000
B0545153226140S11720927EA0110401215000004000000
B0545193226157S11720836EA0109801207000004000000
B0545233226212S11720776EA0109601207000004000000
B0545273226278S11720777EA0110301218000004000000
B0545313226322S11720821EA0111401230000004000000
B0545353226301S11720876EA0112801241000004000000
B0545393226244S11720865EA0113501246000004000000
B0545433226218S11720797EA0113701248000004000000
B0545473226248S11720728EA0114001252000004000000
B0545513226306S11720717EA0114801268000004000000
B0545553226335S11720767EA0116201276000004000000
B0545593226301S11720811EA0116401274000004000000
B0546033226238S11720794EA0116401279000004000000
B0546073226196S11720733EA0117301287000004000000
B0546113226205S11720657EA0117601286000004000000
B0546153226261S11720620EA0117601291000004000000
B0546193226312S11720643EA0118701303000004000000
B0546233226335S11720698EA0119301308000004000000
B0546273226327S11720760EA0119301304000004000000
B0546313226321S11720829EA0118701300000004000000
B0546353226330S11720899EA0118301294000004000000
B0546393226344S11720972EA0118101291000004000000
B0546433226362S11721044EA0117401285000004000000
B0546473226384S11721119EA0117001277000004000000
B0546513226404S11721194EA0117401290000004000000
B0546553226422S11721265EA0118401297000004000000
B0546593226439S11721336EA0118401294000004000000
B0547033226451S11721409EA0118801301000004000000
B0547073226461S11721482EA0118101290000004000000
B0547113226479S11721558EA0116001270000004000000
B0547153226499S11721639EA0115101256000004000000
B0547193226520S11721720EA0113901248000004000000
B0547233226538S11721800EA0114101253000004000000
B0547273226555S11721878EA0114301257000004000000
B0547313226574S11721951EA0115001265000004000000
B0547353226592S11722021EA0115901272000004000000
B0547393226612S11722087EA0116001271000004000000
B0547433226631S11722155EA0116201271000004000000
B0547473226654S11722225EA0115801268000004000000
B0547513226674S11722294EA0116701284000004000000
B0547553226729S11722321EA0117701288000004000000
B0547593226772S11722255EA0117301281000004000000
B0548033226743S11722178EA0116901278000004000000
B0548073226685S11722165EA0116801280000004000000
B0548113226644S11722212EA0116801283000004000000
B0548153226630S11722276EA0117801295000004000000
B0548193226678S11722306EA0118801304000004000000
B0548233226720S11722243EA0119101306000004000000
B0548273226690S11722176EA0119301310000004000000
B0548313226639S11722180EA0120101318000004000000
B0548353226620S11722238EA0120201321000004000000
B0548393226654S11722293EA0121101330000004000000
B0548433226721S11722277EA0121501329000004000000
B0548473226750S11722198EA0121601331000004000000
B0548513226713S11722138EA0121901334000004000000
B0548553226663S11722155EA0122101338000004000000
B0548593226648S11722219EA0122401341000004000000
B0549033226663S11722292EA0123101349000004000000
B0549073226716S11722325EA0123301348000004000000
B0549113226763S11722267EA0122901343000004000000
B0549153226747S11722189EA0122501337000004000000
B0549193226690S11722171EA0122401341000004000000
B0549233226643S11722211EA0123001347000004000000
B0549273226618S11722273EA0123501346000004000000
B0549313226621S11722350EA0121801324000004000000
B0549353226655S11722428EA0119801312000004000000
B0549393226702S11722500EA0119401312000004000000
B0549433226748S11722572EA0119701318000004000000
B0549473226789S11722646EA0120501327000004000000
B0549513226828S11722719EA0120901328000004000000
B0549553226872S11722789EA0120801325000004000000
B0549593226923S11722858EA0120701326000004000000
B0550033226979S11722916EA0121901344000004000000
B0550073227031S11722874EA0124301364000004000000
B0550113226999S11722805EA0124701367000004000000
B0550153226941S11722817EA0125501379000004000000
B0550193226941S11722880EA0126701389000004000000
B0550233226994S11722905EA0127601395000004000000
B0550273227041S11722851EA0128001400000004000000
B0550313227021S11722774EA0129101411000004000000
B0550353226962S11722763EA0129801418000004000000
B0550393226932S11722819EA0130601426000004000000
B0550433226954S11722879EA0131901438000004000000
B0550473227010S11722880EA0132201438000004000000
B0550513227033S11722808EA0132801445000004000000
B0550553226993S11722752EA0133501456000004000000
B0550593226942S11722771EA0134801470000004000000
B0551033226928S11722830EA0135401472000004000000
B0551073226967S11722871EA0135801477000004000000
B0551113227015S11722826EA0136301482000004000000
B0551153227006S11722745EA0136901493000004000000
B0551193226955S11722710EA0138401506000004000000
B0551233226908S11722739EA0138401503000004000000
B0551273226907S11722804EA0138201502000004000000
B0551313226945S11722860EA0138001500000004000000
B0551353226988S11722918EA0137601497000004000000
B0551393227031S11722983EA0137301495000004000000
B0551433227075S11723055EA0137001490000004000000
B0551473227122S11723129EA0136201484000004000000
B0551513227174S11723211EA0135501474000004015000
B0551553227226S11723293EA0134501470000004000000
B0551593227270S11723380EA0135301475000004000000
B0552033227315S11723467EA0135301471000004000000
B0552073227358S11723555EA0135401472000004000000
B0552113227401S11723642EA0135301472000004000000
B0552153227447S11723725EA0134801464000004000000
B0552193227492S11723807EA0133701448000004000000
B0552233227538S11723889EA0132801442000004000000
B0552273227584S11723969EA0132101436000004000000
B0552313227629S11724045EA0132101437000004000000
B0552353227674S11724117EA0132301439000004000000
B0552393227720S11724187EA0131901430000004000000
B0552433227765S11724257EA0131501431000004000000
B0552473227805S11724326EA0131501429000004000000
B0552513227847S11724395EA0131001421000004000000
B0552553227887S11724465EA0130001411000004000000
B0552593227926S11724537EA0129301403000004000000
B0553033227967S11724607EA0128401395000004000000
B0553073228007S11724677EA0127801388000004000000
B0553113228047S11724747EA0127401387000004000000
B0553153228089S11724815EA0127201386000004000000
B0553193228132S11724881EA0126801378000004000000
B0553233228176S11724949EA0126501378000004000000
B0553273228212S11725022EA0126501379000004000000
B0553313228240S11725096EA0126401374000004000000
B0553353228268S11725171EA0125801368000004000000
B0553393228301S11725245EA0124901359000004000000
B0553433228337S11725318EA0124201353000004000000
B0553473228376S11725387EA0123801349000004000000
B0553513228416S11725452EA0123701347000004000000
B0553553228458S11725516EA0123201341000004000000
B0553593228498S11725579EA0122201332000004000000
B0554033228539S11725643EA0121901327000004000000
B0554073228576S11725705EA0121401322000004000000
B0554113228613S11725770EA0120801315000004000000
B0554153228649S11725835EA0120801317000004000000
B0554193228685S11725900EA0120701319000004000000
B0554233228718S11725971EA0121101323000004000000
B0554273228737S11726042EA0122501338000004000000
B0554313228754S11726112EA0123301339000004000000
B0554353228775S11726181EA0123101336000004000000
B0554393228793S11726257EA0122601330000004000000
B0554433228795S11726340EA0122101330000004000000
B0554473228818S11726410EA0122901347000004000000
B0554513228870S11726379EA0124501356000004000000
B0554553228856S11726297EA0124701355000004000000
B0554593228793S11726268EA0124501355000004000000
B0555033228736S11726305EA0124601362000004000000
B0555073228717S11726370EA0125701370000004000000
B0555113228726S11726441EA0125601365000004000000
B0555153228744S11726515EA0125701374000004000000
B0555193228793S11726545EA0127701391000004000000
B0555233228834S11726493EA0127901385000004000000
B0555273228809S11726422EA0127001379000004000000
B0555313228747S11726409EA0127001380000004000000
B0555353228698S11726448EA0127301387000004000000
B0555393228687S11726510EA0128101395000004000000
B0555433228708S11726571EA0128201395000004000000
B0555473228744S11726636EA0126801373000004000000
B0555513228791S11726713EA0125101366000004000000
B0555553228839S11726790EA0125501374000004000000
B0555593228892S11726852EA0127401392000004000000
B0556033228958S11726823EA0129601410000004000000
B0556073228958S11726734EA0130301419000004000000
B0556113228912S11726671EA0130501421000004000000
B0556153228847S11726665EA0129601414000004000000
B0556193228793S11726710EA0130101421000004000000
B0556233228776S11726778EA0131001429000004000000
B0556273228793S11726849EA0131201428000004000000
B0556313228821S11726921EA0130401419000004000000
B0556353228857S11726995EA0130101420000004000000
B0556393228897S11727064EA0130901420000004000000
B0556433228942S11727133EA0129401403000004000000
B0556473228988S11727200EA0128801403000004000000
B0556513229038S11727263EA0128801401000004000000
B0556553229088S11727323EA0128101395000004000000
B0556593229140S11727384EA0127401386000004000000
B0557033229191S11727447EA0127301388000004000000
B0557073229241S11727511EA0127401391000004000000
B0557113229286S11727576EA0127701390000004000000
B0557153229334S11727644EA0127601393000004000000
B0557193229380S11727711EA0127801393000004000000
B0557233229428S11727776EA0127101385000004000000
B0557273229476S11727845EA0126801382000004000000
B0557313229525S11727913EA0127201388000004000000
B0557353229575S11727982EA0127001382000004000000
B0557393229625S11728054EA0126601381000004000000
B0557433229673S11728127EA0125901370000004000000
B0557473229722S11728200EA0125101359000004000000
B0557513229772S11728277EA0124101353000004000000
B0557553229815S11728356EA0124701360000004000000
B0557593229858S11728435EA0124401355000004000000
B0558033229902S11728513EA0123601346000004000000
B0558073229946S11728594EA0122301331000004000000
B0558113229991S11728676EA0121101318000004000000
B0558153230036S11728756EA0120901322000004000000
B0558193230082S11728832EA0121101316000004000000
B0558233230127S11728910EA0120001310000004000000
B0558273230173S11728984EA0120201313000004000000
B0558313230223S11729048EA0120901322000004000000
B0558353230274S11729110EA0120901318000004000000
B0558393230320S11729185EA0119601303000004000000
B0558433230364S11729266EA0118801299000004000000
B0558473230405S11729340EA0119201298000004000000
B0558513230450S11729413EA0118301286000004000000
B0558553230495S11729488EA0116701270000004000000
B0558593230539S11729566EA0115501263000004000000
B0559033230586S11729638EA0115801265000004000000
B0559073230629S11729712EA0115301257000004000000
B0559113230667S11729791EA0114601250000004000000
B0559153230703S11729871EA0113601241000004000000
B0559193230741S11729949EA0112701233000004000000
B0559233230782S11730020EA0112501232000004000000
B0559273230819S11730094EA0112301227000004000000
B0559313230853S11730171EA0111701221000004000000
B0559353230886S11730249EA0111101212000004000000
B0559393230927S11730324EA0109801199000004000000
B0559433230981S11730392EA0108701191000004000000
B0559473231036S11730457EA0108001185000004000000
B0559513231085S11730527EA0107501183000004000000
B0559553231116S11730605EA0107501182000004000000
B0559593231152S11730683EA0106301167000004000000
B0600033231204S11730751EA0105701166000004000000
B0600073231245S11730823EA0106301172000004000000
B0600113231261S11730900EA0107101179000004000000
B0600153231275S11730976EA0107001174000004000000
B0600193231298S11731048EA0106601170000004000000
B0600233231330S11731117EA0105901158000004000000
B0600273231376S11731177EA0104301142000004000000
B0600313231441S11731220EA0102301122000004000000
B0600353231516S11731249EA0100701111000004000000
B0600393231590S11731271EA0099701098000004000000
B0600433231665S11731294EA0098201085000004000000
B0600473231739S11731310EA0097301078000004000000
B0600513231815S11731316EA0097001072000004000000
B0600553231885S11731334EA0097601081000004000000
B0600593231933S11731386EA0098301085000004000000
B0601033231972S11731450EA0098801091000004000000
B0601073232030S11731475EA0100001103000004000000
B0601113232075S11731415EA0100501106000004000000
B0601153232050S11731340EA0100701112000004000000
B0601193231989S11731328EA0101101115000004000000
B0601233231946S11731372EA0101301118000004000000
B0601273231955S11731433EA0101801125000004000000
B0601313232010S11731453EA0102601130000004000000
B0601353232056S11731398EA0102801131000004000000
B0601393232049S11731316EA0103001133000004000000
B0601433231994S11731275EA0103901146000004000000
B0601473231938S11731286EA0104101148000004000000
B0601513231916S11731343EA0104601152000004000000
B0601553231941S11731398EA0104801151000004000000
B0601593231985S11731442EA0104601151000004000000
B0602033232043S11731467EA0104501150000004000000
B0602073232107S11731480EA0103801141000004000000
B0602113232179S11731480EA0102401127000004000000
B0602153232254S11731479EA0100701111000004000000
B0602193232328S11731506EA0099601101000004000000
B0602233232393S11731553EA0098301090000004000000
B0602273232448S11731613EA0097101076000004000000
B0602313232501S11731679EA0095901062000004000000
B0602353232565S11731728EA0094901057000004000000
B0602393232637S11731733EA0095701067000004000000
B0602433232706S11731700EA0096101070000004000000
B0602473232774S11731657EA0096801078000004000000
B0602513232827S11731597EA0098201093000004000000
B0602553232809S11731528EA0099701107000004000000
B0602593232757S11731548EA0100301112000004000000
B0603033232762S11731609EA0100801120000004000000
B0603073232814S11731618EA0102201130000004000000
B0603113232855S11731559EA0102101128000004000000
B0603153232829S11731489EA0102801138000004000000
B0603193232777S11731502EA0103801146000004000000
B0603233232779S11731558EA0104201148000004000000
B0603273232834S11731571EA0104401151000004000000
B0603313232884S11731522EA0105001157000004000000
B0603353232873S11731442EA0105301161000004000000
B0603393232814S11731429EA0106301172000004000000
B0603433232795S11731485EA0106801173000004000000
B0603473232843S11731520EA0106401170000004000000
B0603513232904S11731480EA0106701178000004000000
B0603553232917S11731399EA0108401192000004000000
B0603593232883S11731332EA0108901195000004000000
B0604033232823S11731325EA0110101211000004000000
B0604073232799S11731381EA0110601211000004000000
B0604113232836S11731433EA0110901216000004000000
B0604153232895S11731416EA0111701223000004000000
B0604193232927S11731343EA0112301232000004000000
B0604233232917S11731262EA0113201239000004000000
B0604273232861S11731232EA0113801246000004000000
B0604313232822S11731277EA0114801258000004000000
B0604353232835S11731337EA0115701263000004000000
B0604393232891S11731350EA0116101270000004000000
B0604433232938S11731295EA0116901276000004000000
B0604473232927S11731216EA0117601284000004000000
B0604513232871S11731187EA0118301290000004000000
B0604553232826S11731226EA0118801298000004000000
B0604593232827S11731293EA0119101300000004000000
B0605033232874S11731338EA0119101302000004000000
B0605073232938S11731323EA0119901311000004000000
B0605113232977S11731250EA0120501318000004000000
B0605153232946S11731185EA0121701329000004000000
B0605193232892S11731195EA0122401335000004000000
B0605233232899S11731254EA0122801338000004000000
B0605273232959S11731258EA0123701352000004000000
B0605313232992S11731194EA0125301365000004000000
B0605353232962S11731128EA0125501364000004000000
B0605393232900S11731120EA0125701369000004000000
B0605433232883S11731178EA0126801381000004000000
B0605473232930S11731204EA0128101393000004000000
B0605513232981S11731161EA0129101400000004000000
B0605553232987S11731086EA0129701412000004000000
B0605593232944S11731031EA0130501416000004000000
B0606033232886S11731029EA0130801419000004000000
B0606073232866S11731082EA0131201423000004000000
B0606113232907S11731121EA0131601427000004000000
B0606153232968S11731108EA0131901432000004000000
B0606193232998S11731043EA0133101442000004000000
B0606233232959S11730983EA0133101443000004000000
B0606273232899S11730998EA0133901451000004000000
B0606313232882S11731059EA0134301455000004000000
B0606353232921S11731107EA0134601459000004000000
B0606393232985S11731091EA0135101467000004000000
B0606433233017S11731020EA0136301480000004000000
B0606473232979S11730957EA0137601490000004000000
B0606513232923S11730972EA0138401500000004000000
B0606553232923S11731034EA0139301507000004000000
B0606593232978S11731061EA0139601511000004000000
B0607033233038S11731018EA0140201515000004000000
B0607073233044S11730935EA0141101525000004000000
B0607113232992S11730890EA0142801543000004000000
B0607153232939S11730913EA0143501551000004000000
B0607193232931S11730977EA0143801551000004000000
B0607233232986S11731009EA0144401559000004000000
B0607273233047S11730966EA0145001566000004000000
B0607313233057S11730883EA0146301580000004000000
B0607353233008S11730848EA0147501591000004000000
B0607393232973S11730895EA0147501589000004000000
B0607433233000S11730957EA0147701592000004000000
B0607473233068S11730959EA0148901608000004000000
B0607513233116S11730894EA0149901613000004000000
B0607553233125S11730807EA0150001611000004000000
B0607593233079S11730744EA0149601611000004000000
B0608033233014S11730736EA0149801617000004000000
B0608073232970S11730778EA0151001627000004000000
B0608113232990S11730835EA0151801631000004000000
B0608153233042S11730879EA0151501630000004000000
B0608193233092S11730926EA0152601645000004000000
B0608233233146S11730972EA0152801642000004000000
B0608273233200S11731025EA0151501631000004000000
B0608313233251S11731089EA0150401619000004000000
B0608353233302S11731165EA0148601601000004000000
B0608393233352S11731247EA0147501594000004000000
B0608433233401S11731328EA0147401593000004000000
B0608473233443S11731406EA0147401592000004000000
B0608513233485S11731483EA0147101586000004000000
B0608553233525S11731559EA0146901584000004000000
B0608593233563S11731635EA0146401577000004000000
B0609033233598S11731711EA0145801569000004000000
B0609073233635S11731789EA0145301565000004000000
B0609113233671S11731866EA0145001561000004000000
B0609153233709S11731941EA0144201551000004000000
B0609193233745S11732018EA0143201543000004000000
B0609233233781S11732094EA0142901541000004000000
B0609273233817S11732168EA0142201534000004000000
B0609313233850S11732240EA0141601526000004000000
B0609353233888S11732313EA0140701517000004000000
B0609393233926S11732386EA0140101516000004000000
B0609433233962S11732458EA0140001507000004000000
B0609473233999S11732530EA0139301504000004000000
B0609513234034S11732601EA0139201504000004000000
B0609553234069S11732671EA0139001501000004000000
B0609593234101S11732746EA0138501496000004000000
B0610033234132S11732823EA0137901492000004000000
B0610073234165S11732898EA0137901492000004000000
B0610113234196S11732976EA0137101484000004000000
B0610153234226S11733056EA0137001483000004000000
B0610193234259S11733134EA0137001481000004000000
B0610233234292S11733210EA0136401473000004000000
B0610273234327S11733287EA0135801468000004000000
B0610313234361S11733364EA0135501468000004000000
B0610353234394S11733438EA0135401465000004000000
B0610393234426S11733508EA0135201466000004000000
B0610433234456S11733577EA0135401464000004000000
B0610473234486S11733646EA0134901456000004000000
B0610513234515S11733719EA0133901445000004000000
B0610553234545S11733794EA0132901436000004000000
B0610593234574S11733871EA0132201431000004000000
B0611033234607S11733946EA0131501423000004000000
B0611073234639S11734024EA0130501414000004000000
B0611113234672S11734103EA0129401402000004000000
B0611153234703S11734183EA0128501393000004000000
B0611193234733S11734262EA0127801386000004000000
B0611233234762S11734343EA0127101378000004000000
B0611273234788S11734423EA0126501373000004000000
B0611313234812S11734504EA0126301367000004000000
B0611353234834S11734586EA0125401359000004000000
B0611393234858S11734669EA0124501350000004000000
B0611433234881S11734755EA0123601339000004000000
B0611473234905S11734843EA0122301330000004000000
B0611513234931S11734930EA0122101326000004000000
B0611553234959S11735015EA0121101316000004000000
B0611593234988S11735099EA0120301307000004000000
B0612033235018S11735181EA0119501296000004000000
B0612073235046S11735262EA0118401287000004000000
B0612113235074S11735342EA0117501273000004000000
B0612153235101S11735427EA0116201265000004000000
B0612193235111S11735515EA0116901280000004000000
B0612233235113S11735596EA0119101301000004000000
B0612273235154S11735639EA0120701314000004000000
B0612313235205S11735589EA0120601306000004000000
B0612353235174S11735509EA0120601317000004000000
B0612393235106S11735492EA0122801337000004000000
B0612433235074S11735541EA0123901342000004000000
B0612473235106S11735591EA0122901329000004000000
B0612513235145S11735644EA0121701319000004000000
B0612553235162S11735711EA0121601321000004000000
B0612593235169S11735786EA0121701323000004000000
B0613033235178S11735864EA0121301316000004000000
B0613073235187S11735945EA0121901328000004000000
B0613113235197S11736022EA0122701331000004000000
B0613153235221S11736099EA0122301325000004000000
B0613193235245S11736179EA0121001315000004000000
B0613233235271S11736263EA0119901302000004000000
B0613273235295S11736350EA0119201301000004000000
B0613313235314S11736434EA0120301313000004000000
B0613353235326S11736515EA0121201321000004000000
B0613393235332S11736592EA0121601321000004000000
B0613433235336S11736668EA0121001313000004000000
B0613473235343S11736746EA0121201317000004000000
B0613513235347S11736827EA0121001314000004000000
B0613553235340S11736907EA0120901316000004000000
B0613593235325S11736985EA0120901316000004000000
B0614033235313S11737065EA0120901317000004000000
B0614073235308S11737143EA0121601330000004000000
B0614113235302S11737217EA0123001343000004000000
B0614153235297S11737290EA0123701346000004000000
B0614193235296S11737366EA0123701342000004000000
B0614233235301S11737444EA0123601344000004000000
B0614273235315S11737520EA0124501355000004000000
B0614313235358S11737573EA0126401377000004000000
B0614353235414S11737559EA0128001390000004000000
B0614393235431S11737487EA0127901387000004000000
B0614433235386S11737429EA0127101379000004000000
B0614473235317S11737433EA0128001395000004000000
B0614513235274S11737485EA0129501405000004000000
B0614553235288S11737552EA0129701410000004000000
B0614593235345S11737574EA0130701420000004000000
B0615033235396S11737533EA0131401424000004000000
B0615073235397S11737453EA0131401425000004000000
B0615113235344S11737403EA0131901433000004000000
B0615153235287S11737425EA0133701450000004000000
B0615193235275S11737489EA0134301454000004000000
B0615233235319S11737529EA0134701459000004000000
B0615273235371S11737490EA0134901461000004000000
B0615313235375S11737414EA0135501469000004000000
B0615353235325S11737364EA0136001474000004000000
B0615393235266S11737383EA0136801484000004000000
B0615433235245S11737448EA0137601490000004000000
B0615473235273S11737508EA0137801489000004000000
B0615513235328S11737515EA0138501503000004000000
B0615553235371S11737470EA0139801511000004000000
B0615593235383S11737399EA0140001514000004000000
B0616033235366S11737323EA0140601521000004000000
B0616073235321S11737274EA0141401528000004000000
B0616113235266S11737286EA0141401526000004000000
B0616153235256S11737351EA0140601519000004000000
B0616193235302S11737398EA0140601527000004000000
B0616233235361S11737394EA0141901541000004000000
B0616273235399S11737338EA0143001550000004000000
B0616313235391S11737265EA0143901556000004000000
B0616353235343S11737218EA0143501549000004000000
B0616393235278S11737190EA0141601528000004000000
B0616433235202S11737161EA0139501509000004000000
B0616473235120S11737132EA0138701503000004000000
B0616513235037S11737106EA0138401495000004000000
B0616553234951S11737083EA0137701487000004000000
B0616593234866S11737061EA0136901477000004000000
B0617033234780S11737035EA0135601464000004000000
B0617073234694S11737017EA0134901455000004000000
B0617113234607S11737009EA0133601443000004000000
B0617153234519S11737002EA0132601434000004000000
B0617193234430S11736996EA0131701425000004000000
B0617233234343S11736991EA0131201422000004000000
B0617273234261S11736984EA0130701416000004000000
B0617313234179S11736976EA0129901407000004000000
B0617353234097S11736967EA0129201402000004000000
B0617393234017S11736961EA0129101402000004000000
B0617433233948S11736985EA0130601421000004000000
B0617473233952S11737054EA0133201446000004000000
B0617513234008S11737075EA0134201450000004000000
B0617553234064S11737022EA0133901448000004000000
B0617593234088S11736940EA0134201454000004000000
B0618033234075S11736866EA0134901462000004000000
B0618073234032S11736824EA0135401466000004000000
B0618113233984S11736801EA0136001472000004000000
B0618153233935S11736776EA0135801465000004000000
B0618193233880S11736749EA0134701450000004000000
B0618233233822S11736719EA0133501440000004000000
B0618273233759S11736688EA0132801431000004000000
B0618313233690S11736662EA0131401416000004000000
B0618353233616S11736649EA0130001405000004000000
B0618393233538S11736640EA0129201396000004000000
B0618433233459S11736633EA0128201386000004000000
B0618473233378S11736627EA0127401377000004000000
B0618513233298S11736623EA0126701374000004000000
B0618553233219S11736620EA0126301367000004000000
B0618593233139S11736620EA0125801362000004000000
B0619033233061S11736619EA0125301358000004000000
B0619073232986S11736618EA0125201356000004000000
B0619113232912S11736615EA0124601349000004000000
B0619153232836S11736615EA0123601340000004000000
B0619193232762S11736616EA0122801332000004000000
B0619233232688S11736619EA0122301324000004000000
B0619273232614S11736620EA0121501317000004000000
B0619313232540S11736619EA0121001312000004000000
B0619353232465S11736619EA0119901301000004000000
B0619393232390S11736620EA0119101292000004000000
B0619433232315S11736624EA0118701292000004000000
B0619473232242S11736632EA0119501301000004000000
B0619513232180S11736660EA0121101319000004000000
B0619553232166S11736725EA0123801346000004000000
B0619593232210S11736762EA0125101356000004000000
B0620033232268S11736733EA0125301356000004000000
B0620073232283S11736659EA0125601361000004000000
B0620113232242S11736611EA0125501359000004000000
B0620153232189S11736629EA0125501366000004000000
B0620193232166S11736692EA0126701377000004000000
B0620233232203S11736740EA0127501382000004000000
B0620273232267S11736716EA0127401379000004000000
B0620313232294S11736641EA0127801386000004000000
B0620353232285S11736564EA0128601395000004000000
B0620393232234S11736532EA0128801397000004000000
B0620433232193S11736573EA0129401406000004000000
B0620473232207S11736637EA0130701418000004000000
B0620513232266S11736642EA0131301416000004000000
B0620553232305S11736576EA0130801416000004000000
B0620593232289S11736495EA0131101419000004000000
B0621033232238S11736452EA0131401424000004000000
B0621073232197S11736494EA0132201433000004000000
B0621113232225S11736554EA0133201443000004000000
B0621153232289S11736537EA0134001450000004000000
B0621193232305S11736462EA0134501454000004000000
B0621233232263S11736404EA0134601456000004000000
B0621273232203S11736398EA0135101467000004000000
B0621313232167S11736447EA0135901472000004000000
B0621353232193S11736512EA0136301475000004000000
B0621393232262S11736517EA0136601481000004000000
B0621433232305S11736450EA0137301486000004000000
B0621473232294S11736371EA0137701490000004000000
B0621513232245S11736324EA0138301496000004000000
B0621553232185S11736319EA0138701502000004000000
B0621593232138S11736359EA0139001504000004000000
B0622033232125S11736428EA0138701494000004000000
B0622073232101S11736499EA0137901494000004000000
B0622113232067S11736569EA0138501497000004000000
B0622153232038S11736644EA0138801504000004000000
B0622193232016S11736719EA0139601510000004000000
B0622233231985S11736789EA0138901499000004000000
B0622273231934S11736845EA0137001477000004000000
B0622313231867S11736883EA0134701455000004000000
B0622353231791S11736904EA0133401442000004000000
B0622393231712S11736911EA0132701438000004000000
B0622433231633S11736915EA0132401434000004000000
B0622473231553S11736913EA0131801430000004000000
B0622513231473S11736909EA0131801433000004000000
B0622553231392S11736905EA0131901431000004000000
B0622593231313S11736902EA0131601430000004000000
B0623033231235S11736901EA0130701418000004000000
B0623073231154S11736896EA0129501409000004000000
B0623113231075S11736891EA0129101402000004000000
B0623153230994S11736883EA0128401393000004000000
B0623193230912S11736874EA0127401381000004000000
B0623233230832S11736866EA0126301374000004000000
B0623273230751S11736861EA0125501365000004000000
B0623313230671S11736854EA0124501351000004000000
B0623353230589S11736846EA0123201342000004000000
B0623393230507S11736840EA0122401334000004000000
B0623433230426S11736836EA0121301323000004000000
B0623473230346S11736832EA0120801321000004000000
B0623513230273S11736835EA0122101336000004000000
B0623553230212S11736868EA0123301338000004000000
B0623593230156S11736913EA0123001340000004000000
B0624033230105S11736965EA0123501343000004000000
B0624073230056S11737019EA0122301325000004000000
B0624113229988S11737060EA0120401314000004000000
B0624153229914S11737082EA0120701318000004000000
B0624193229852S11737123EA0121401326000004000000
B0624233229801S11737180EA0121201318000004000000
B0624273229748S11737238EA0119701302000004000000
B0624313229681S11737277EA0118801294000004000000
B0624353229608S11737288EA0118101285000004000000
B0624393229530S11737274EA0116701270000004000000
B0624433229451S11737247EA0115401258000004000000
B0624473229372S11737214EA0114401252000004000000
B0624513229294S11737182EA0114301254000004000000
B0624553229217S11737148EA0114001245000004000000
B0624593229139S11737112EA0112401232000004000000
B0625033229061S11737075EA0111501220000004000000
B0625073228984S11737040EA0110801217000004000000
B0625113228910S11737006EA0110401208000004000000
B0625153228834S11736975EA0109401199000004000000
B0625193228757S11736940EA0108401189000004000000
B0625233228682S11736906EA0107501181000004000000
B0625273228607S11736874EA0106701174000004000000
B0625313228536S11736842EA0106401166000004000000
B0625353228463S11736811EA0105401155000004000000
B0625393228390S11736780EA0104601148000004000000
B0625433228318S11736750EA0104301148000004000000
B0625473228243S11736722EA0103401136000004000000
B0625513228169S11736693EA0102901130000004000000
B0625553228095S11736666EA0101901120000004000000
B0625593228022S11736641EA0101201114000004000000
B0626033227951S11736618EA0100201105000004000000
B0626073227878S11736594EA0099601098000004000000
B0626113227805S11736568EA0099201093000004000000
B0626153227734S11736543EA0099401100000004000000
B0626193227666S11736536EA0100301110000004000000
B0626233227603S11736547EA0100901112000004000000
B0626273227539S11736568EA0100801109000004000000
B0626313227473S11736589EA0100201105000004000000
B0626353227411S11736608EA0101201119000004000000
B0626393227359S11736629EA0101801122000004000000
B0626433227307S11736655EA0102001123000004000000
B0626473227250S11736676EA0102301125000004000000
B0626513227202S11736712EA0103101137000004000000
B0626553227206S11736775EA0104701154000004000000
B0626593227263S11736802EA0105801163000004000000
B0627033227319S11736759EA0106401169000004000000
B0627073227324S11736679EA0107301181000004000000
B0627113227279S11736638EA0108301193000004000000
B0627153227236S11736664EA0109301201000004000000
B0627193227254S11736720EA0110001210000004000000
B0627233227317S11736718EA0111001222000004000000
B0627273227353S11736647EA0111801230000004000000
B0627313227324S11736577EA0112601238000004000000
B0627353227270S11736577EA0113701253000004000000
B0627393227252S11736632EA0115101260000004000000
B0627433227297S11736673EA0115601266000004000000
B0627473227357S11736634EA0116601280000004000000
B0627513227362S11736553EA0117601288000004000000
B0627553227315S11736511EA0118601301000004000000
B0627593227274S11736540EA0120001312000004000000
B0628033227289S11736595EA0120701319000004000000
B0628073227354S11736590EA0121501331000004000000
B0628113227382S11736515EA0122301340000004000000
B0628153227349S11736452EA0123401351000004000000
B0628193227296S11736450EA0124301361000004000000
B0628233227271S11736498EA0125401369000004000000
B0628273227296S11736550EA0126201375000004000000
B0628313227359S11736543EA0126801384000004000000
B0628353227395S11736473EA0127501389000004000000
B0628393227362S11736407EA0127601387000004000000
B0628433227305S11736400EA0128601400000004000000
B0628473227275S11736449EA0129801409000004000000
B0628513227304S11736501EA0130301417000004000000
B0628553227369S11736485EA0131101426000004000000
B0628593227389S11736408EA0131901434000004000000
B0629033227348S11736355EA0132501435000004000000
B0629073227294S11736373EA0132601440000004000000
B0629113227298S11736436EA0133501450000004000000
B0629153227361S11736447EA0135001469000004000000
B0629193227406S11736391EA0136501481000004000000
B0629233227404S11736312EA0136901484000004000000
B0629273227359S11736263EA0137401487000004000000
B0629313227304S11736268EA0137701492000004000000
B0629353227268S11736315EA0138401496000004000000
B0629393227280S11736377EA0138901503000004000000
B0629433227339S11736400EA0140001515000004000000
B0629473227389S11736347EA0141001524000004000000
B0629513227375S11736272EA0141401529000004000000
B0629553227319S11736247EA0141801530000004000000
B0629593227275S11736285EA0142101536000004000000
B0630033227272S11736350EA0143301547000004000000
B0630073227315S11736402EA0144001554000004000000
B0630113227383S11736387EA0144801565000004000000
B0630153227408S11736313EA0146301581000004000000
B0630193227372S11736257EA0147101582000004000000
B0630233227318S11736263EA0147101587000004000000
B0630273227292S11736322EA0148301599000004000000
B0630313227313S11736391EA0148901605000004000000
B0630353227380S11736412EA0150301618000004000000
B0630393227432S11736358EA0150901625000004000000
B0630433227427S11736280EA0151201630000004000000
B0630473227378S11736238EA0151701634000004000000
B0630513227322S11736256EA0152601644000004000000
B0630553227307S11736322EA0153701648000004000000
B0630593227350S11736380EA0153701651000004000000
B0631033227421S11736371EA0154401660000004000000
B0631073227460S11736299EA0154701663000004000000
B0631113227436S11736224EA0154601663000004000000
B0631153227379S11736185EA0154601662000004000000
B0631193227313S11736192EA0154001655000004000000
B0631233227237S11736203EA0152801639000004000000
B0631273227151S11736198EA0151501623000004000000
B0631313227062S11736185EA0150901618000004000000
B0631353226973S11736169EA0150001601000004000000
B0631393226882S11736152EA0148501583000004000000
B0631433226786S11736147EA0146701567000004000000
B0631473226690S11736147EA0145901562000004000000
B0631513226599S11736146EA0145701562000004000000
B0631553226508S11736142EA0145201554000004000000
B0631593226417S11736139EA0144001544000004000000
B0632033226325S11736133EA0143301531000004000000
B0632073226231S11736124EA0142401523000004000000
B0632113226140S11736116EA0142001520000004000000
B0632153226054S11736111EA0141201511000004000000
B0632193225970S11736108EA0140601506000004000000
B0632233225887S11736105EA0140901515000004000000
B0632273225809S11736108EA0141401516000004000000
B0632313225731S11736111EA0140901516000004000000
B0632353225655S11736113EA0140901520000004000000
B0632393225584S11736113EA0141001516000004000000
B0632433225510S11736112EA0140101506000004000000
B0632473225432S11736107EA0139101496000004000000
B0632513225351S11736100EA0137901486000004000000
B0632553225269S11736098EA0137201479000004000000
B0632593225186S11736096EA0136501472000004000000
B0633033225103S11736094EA0136001466000004000000
B0633073225021S11736091EA0135401460000004000000
B0633113224936S11736086EA0135101456000004000000
B0633153224850S11736078EA0134201448000004000000
B0633193224766S11736070EA0133901445000004000000
B0633233224684S11736060EA0133401441000004000000
B0633273224602S11736051EA0132601431000004000000
B0633313224522S11736043EA0131701422000004000000
B0633353224442S11736035EA0131301420000004000000
B0633393224364S11736027EA0131001415000004000000
B0633433224288S11736020EA0130301406000004000000
B0633473224208S11736012EA0129301395000004000000
B0633513224129S11736003EA0129301399000004000000
B0633553224054S11735992EA0129301398000004000000
B0633593223976S11735982EA0128501389000004000000
B0634033223895S11735974EA0127701380000004000000
B0634073223812S11735968EA0127001372000004000000
B0634113223730S11735962EA0126201366000004000000
B0634153223651S11735955EA0125901364000004000000
B0634193223574S11735947EA0125901361000004000000
B0634233223496S11735939EA0125201354000004000000
B0634273223419S11735930EA0124601349000004000000
B0634313223341S11735917EA0123801341000004000000
B0634353223266S11735904EA0123101332000004000000
B0634393223188S11735891EA0122201322000004000000
B0634433223108S11735877EA0121301312000004000000
B0634473223029S11735862EA0120201300000004000000
B0634513222949S11735847EA0119401292000004000000
B0634553222871S11735830EA0118701285000004000000
B0634593222793S11735814EA0118001278000004000000
B0635033222713S11735801EA0117301270000004000000
B0635073222633S11735791EA0116501262000004000000
B0635113222552S11735783EA0115501252000004000000
B0635153222471S11735776EA0114301240000004000000
B0635193222391S11735767EA0113601234000004000000
B0635233222310S11735757EA0113001229000004000000
B0635273222232S11735747EA0112301221000004000000
B0635313222154S11735736EA0111701216000004000000
B0635353222078S11735731EA0111101210000004000000
B0635393222002S11735741EA0110801206000004000000
B0635433221936S11735776EA0110501205000004000000
B0635473221886S11735832EA0110601204000004000000
B0635513221850S11735896EA0110401203000004000000
B0635553221820S11735964EA0110501206000004000000
B0635593221794S11736026EA0111701217000004000000
B0636033221781S11736088EA0112001216000004000000
B0636073221784S11736155EA0111601211000004000000
B0636113221785S11736225EA0111301207000004000000
B0636153221780S11736296EA0110201191000004000000
B0636193221751S11736363EA0108801182000004000000
B0636233221702S11736404EA0108601182000004000000
B0636273221641S11736415EA0108301177000004000000
B0636313221576S11736402EA0107301165000004000000
B0636353221508S11736374EA0105901153000004000000
B0636393221439S11736347EA0105501148000004000000
B0636433221366S11736329EA0104901145000004000000
B0636473221291S11736312EA0104901145000004000000
B0636513221216S11736295EA0104801143000004000000
B0636553221138S11736274EA0104301139000004000000
B0636593221061S11736252EA0104201139000004000000
B0637033220983S11736241EA0103801133000004000000
B0637073220904S11736228EA0102801123000004000000
B0637113220827S11736204EA0101901112000004000000
B0637153220753S11736174EA0100601101000004000000
B0637193220681S11736135EA0099701090000004000000
B0637233220609S11736092EA0098301069000004000000
B0637273220534S11736049EA0096701058000004000000
B0637313220460S11736007EA0095701048000004000000
B0637353220388S11735962EA0095001044000004000000
B0637393220317S11735913EA0094101034000004000000
B0637433220243S11735866EA0092601021000004000000
B0637473220172S11735823EA0092801025000004000000
B0637513220104S11735805EA0092801022000004000000
B0637553220034S11735805EA0091901005000004000000
B0637593219962S11735805EA0090500994000004000000
B0638033219892S11735822EA0090000989000004000000
B0638073219829S11735848EA0089000978000004000000
B0638113219765S11735877EA0087200959000004000000
B0638153219702S11735913EA0086200952000004000000
B0638193219658S11735969EA0085700947000004000000
B0638233219628S11736035EA0085600950000004000000
B0638273219614S11736100EA0086900964000004000000
B0638313219665S11736108EA0087600968000004000000
B0638353219688S11736026EA0087000965000004000000
B0638393219645S11735956EA0087200972000004000000
B0638433219587S11735947EA0088600986000004000000
B0638473219557S11735984EA0089100986000004000000
B0638513219583S11736021EA0088600980000004000000
B0638553219635S11735992EA0088500981000004000000
B0638593219653S11735909EA0088000978000004000000
B0639033219639S11735823EA0088000982000004000000
B0639073219582S11735801EA0088200981000004000000
B0639113219554S11735852EA0087200970000004000000
B0639153219584S11735903EA0087300973000004000000
B0639193219641S11735903EA0087300975000004000000
B0639233219696S11735854EA0086900970000004000000
B0639273219725S11735773EA0086500969000004000000
B0639313219734S11735683EA0086200968000004000000
B0639353219713S11735593EA0085300954000004000000
B0639393219667S11735522EA0084000940000004000000
B0639433219609S11735463EA0082600923000004000000
B0639473219544S11735409EA0081000905000004000000
B0639513219472S11735358EA0079200887000004000000
B0639553219400S11735310EA0078300880000004000000
B0639593219327S11735268EA0077800875000004000000
B0640033219255S11735233EA0077400870000004000000
B0640073219185S11735199EA0077200865000004000000
B0640113219117S11735169EA0076800858000004000000
B0640153219050S11735143EA0075800848000004000000
B0640193218982S11735120EA0075300844000004000000
B0640233218915S11735104EA0074800840000004000000
B0640273218846S11735111EA0074300833000004000000
B0640313218779S11735125EA0073100820000004000000
B0640353218709S11735136EA0072300809000004000000
B0640393218640S11735137EA0071200800000004000000
B0640433218570S11735133EA0070500790000004000000
B0640473218499S11735119EA0069300778000004000000
B0640513218427S11735098EA0068300771000004000000
B0640553218357S11735072EA0067600761000004000000
B0640593218285S11735043EA0066400749000004000000
B0641033218213S11735015EA0066000747000004000000
B0641073218142S11734987EA0066500754000004000000
B0641113218083S11734999EA0067200762000004000000
B0641153218084S11735054EA0068400773000004000000
B0641193218141S11735058EA0069000771000004000000
B0641233218170S11734985EA0068300764000004000000
B0641273218123S11734930EA0067400761000004000000
B0641313218072S11734948EA0067800767000004000000
B0641353218083S11734998EA0069300780000004000000
B0641393218139S11734996EA0069900783000004000000
B0641433218183S11734937EA0069700783000004000000
B0641473218159S11734869EA0069700783000004000000
B0641513218106S11734868EA0069500783000004000000
B0641553218105S11734920EA0069900789000004000000
B0641593218159S11734922EA0070600796000004000000
B0642033218193S11734857EA0069900787000004000000
B0642073218161S11734787EA0069600785000004000000
B0642113218101S11734777EA0069100775000004000000
B0642153218061S11734830EA0068200768000004000000
B0642193218072S11734894EA0068200770000004000000
B0642233218137S11734896EA0068100770000004000000
B0642273218192S11734840EA0068300776000004000000
B0642313218171S11734766EA0068800775000004000000
B0642353218113S11734761EA0068300771000004000000
B0642393218079S11734818EA0067800766000004000000
B0642433218089S11734881EA0067900768000004000000
B0642473218148S11734881EA0067800774000004000000
B0642513218174S11734801EA0068300776000004000000
B0642553218128S11734746EA0068400777000004000000
B0642593218066S11734753EA0068300774000004000000
B0643033218038S11734809EA0068100774000004000000
B0643073218080S11734838EA0068600779000004000000
B0643113218118S11734774EA0068900781000004000000
B0643153218085S11734697EA0068200771000004000000
B0643193218016S11734675EA0068000768000004000000
B0643233217967S11734712EA0068200775000004000000
B0643273218012S11734743EA0069300784000004000000
B0643313218049S11734670EA0069800792000004000000
B0643353218006S11734606EA0070600796000004000000
B0643393217954S11734629EA0070600798000004000000
B0643433217979S11734678EA0071500807000004000000
B0643473218036S11734648EA0072000811000004015000
B0643513218033S11734564EA0072000811000004015000
B0643553217972S11734532EA0072100815000004000000
B0643593217932S11734575EA0072200820000004000000
B0644033217954S11734632EA0072100816000004000000
B0644073218019S11734634EA0072200818000004000000
B0644113218051S11734557EA0072400823000004015000
B0644153218012S11734484EA0072800826000004015000
B0644193217950S11734489EA0072900825000004015000
B0644233217927S11734552EA0072700824000004000000
B0644273217954S11734599EA0073300829000004015000
B0644313217996S11734539EA0073500830000004015000
B0644353217957S11734465EA0073400828000004015000
B0644393217889S11734466EA0073200828000004000000
B0644433217854S11734523EA0073400830000004000000
B0644473217866S11734597EA0073200832000004000000
B0644513217925S11734593EA0075000858000004015000
B0644553217911S11734514EA0075900865000004015000
B0644593217853S11734513EA0077700885000004015000
B0645033217837S11734570EA0078100885000004015000
B0645073217897S11734593EA0078100888000004015000
B0645113217933S11734518EA0079200909000004015000
B0645153217894S11734449EA0080900915000004015000
B0645193217840S11734471EA0080900909000004000000
B0645233217853S11734544EA0080900914000004000000
B0645273217914S11734526EA0082200929000004015000
B0645313217888S11734448EA0083700945000004015000
B0645353217837S11734466EA0085400955000004015000
B0645393217859S11734525EA0085500959000004015000
B0645433217915S11734488EA0086800975000004015000
B0645473217893S11734411EA0088300981000004015000
B0645513217830S11734414EA0088500984000004000000
B0645553217837S11734478EA0090101003000004000000
B0645593217895S11734467EA0091801020000004000000
B0646033217901S11734387EA0092401023000004000000
B0646073217843S11734345EA0092701028000004000000
B0646113217797S11734391EA0093601034000004000000
B0646153217825S11734445EA0093801041000004000000
B0646193217875S11734389EA0094801055000004000000
B0646233217849S11734314EA0096501068000004000000
B0646273217788S11734302EA0097701081000004000000
B0646313217750S11734354EA0098501081000004000000
B0646353217775S11734417EA0098001080000004000000
B0646393217837S11734419EA0099701100000004000000
B0646433217884S11734367EA0101101113000004000000
B0646473217882S11734287EA0101401116000004000000
B0646513217830S11734241EA0102201127000004000000
B0646553217781S11734276EA0103501137000004000000
B0646593217788S11734343EA0103901139000004000000
B0647033217845S11734361EA0104301149000004000000
B0647073217879S11734292EA0105701163000004000000
B0647113217843S11734226EA0106801170000004000000
B0647153217786S11734231EA0107801181000004000000
B0647193217773S11734289EA0108801188000004000000
B0647233217824S11734313EA0109001194000004000000
B0647273217864S11734253EA0109801200000004000000
B0647313217833S11734185EA0110601208000004000000
B0647353217780S11734200EA0111401215000004000000
B0647393217782S11734259EA0112401224000004000000
B0647433217837S11734266EA0113201232000004000000
B0647473217871S11734201EA0113601236000004000000
B0647513217842S11734132EA0114401246000004000000
B0647553217786S11734124EA0115601258000004000000
B0647593217760S11734174EA0116301262000004000000
B0648033217794S11734218EA0116801267000004000000
B0648073217849S11734189EA0117401276000004000000
B0648113217858S11734114EA0118401284000004000000
B0648153217804S11734072EA0118501284000004000000
B0648193217758S11734111EA0119301293000004000000
B0648233217781S11734163EA0120101299000004000000
B0648273217837S11734144EA0120801308000004000000
B0648313217843S11734064EA0121101310000004000000
B0648353217786S11734025EA0121601318000004000000
B0648393217742S11734062EA0122401324000004000000
B0648433217759S11734116EA0123001329000004000000
B0648473217816S11734107EA0123701338000004000000
B0648513217841S11734034EA0124801351000004000000
B0648553217808S11733969EA0126001358000004000000
B0648593217752S11733966EA0126101358000004000000
B0649033217725S11734021EA0125901355000004000000
B0649073217742S11734085EA0126001357000004000000
B0649113217797S11734101EA0126901368000004000000
B0649153217851S11734053EA0127501372000004000000
B0649193217864S11733969EA0127801383000004000000
B0649233217819S11733919EA0129501395000004000000
B0649273217768S11733942EA0129901399000004000000
B0649313217769S11734003EA0130101400000004000000
B0649353217823S11734032EA0130601408000004000000
B0649393217873S11733986EA0131601418000004000000
B0649433217871S11733907EA0132201426000004000000
B0649473217820S11733865EA0133401436000004000000
B0649513217775S11733901EA0134001441000004000000
B0649553217780S11733960EA0134701450000004000000
B0649593217832S11733988EA0135201452000004000000
B0650033217889S11733945EA0135301453000004000000
B0650073217902S11733860EA0135701462000004000000
B0650113217859S11733802EA0136501466000004000000
B0650153217804S11733823EA0136501466000004000000
B0650193217781S11733889EA0136801468000004000000
B0650233217819S11733938EA0137501477000004000000
B0650273217879S11733902EA0137401473000004000000
B0650313217903S11733813EA0137001475000004000000
B0650353217894S11733722EA0138001484000004000000
B0650393217838S11733693EA0139101497000004000000
B0650433217807S11733746EA0139501495000004000000
B0650473217838S11733803EA0139201493000004000000
B0650513217905S11733793EA0139401499000004000000
B0650553217929S11733716EA0140401508000004000000
B0650593217889S11733651EA0140501507000004000000
B0651033217821S11733633EA0139801497000004000000
B0651073217750S11733652EA0137601472000004000000
B0651113217669S11733690EA0135201452000004000000
B0651153217583S11733733EA0134201444000004000000
B0651193217499S11733772EA0133501436000004000000
B0651233217414S11733815EA0132201415000004000000
B0651273217326S11733858EA0130401403000004000000
B0651313217240S11733901EA0129801398000004000000
B0651353217161S11733940EA0130401412000004000000
B0651393217087S11733975EA0131201411000004000000
B0651433217011S11734005EA0130101401000004000000
B0651473216936S11734032EA0129601395000004000000
B0651513216863S11734054EA0130001397000004000000
B0651553216789S11734083EA0129201384000004000000
B0651593216712S11734115EA0128301381000004000000
B0652033216638S11734149EA0128001379000004000000
B0652073216569S11734189EA0127601372000004000000
B0652113216497S11734229EA0126401359000004000000
B0652153216419S11734263EA0125101347000004000000
B0652193216337S11734287EA0124301345000004000000
B0652233216259S11734304EA0125201352000004000000
B0652273216185S11734332EA0124901349000004000000
B0652313216114S11734369EA0124601341000004000000
B0652353216043S11734408EA0123701335000004000000
B0652393215973S11734448EA0123901341000004000000
B0652433215908S11734491EA0124801352000004000000
B0652473215849S11734535EA0126301363000004000000
B0652513215795S11734583EA0126801370000004000000
B0652553215763S11734645EA0128401388000004000000
B0652593215797S11734687EA0130801408000004000000
B0653033215852S11734655EA0130901403000004000000
B0653073215869S11734565EA0130701409000004000000
B0653113215830S11734495EA0132001422000004000000
B0653153215771S11734493EA0133201433000004000000
B0653193215752S11734547EA0133501435000004000000
B0653233215796S11734587EA0133501436000004000000
B0653273215857S11734557EA0134501448000004000000
B0653313215882S11734479EA0135601458000004000000
B0653353215849S11734405EA0135701458000004000000
B0653393215786S11734385EA0135401452000004000000
B0653433215735S11734428EA0134801449000004000000
B0653473215697S11734488EA0133801437000004000000
B0653513215641S11734543EA0132401422000004000000
B0653553215575S11734593EA0131701420000004000000
B0653593215510S11734644EA0132501429000004000000
B0654033215450S11734703EA0132301423000004000000
B0654073215390S11734764EA0131901420000004000000
B0654113215332S11734826EA0131501415000004000000
B0654153215275S11734890EA0131901419000004000000
B0654193215220S11734952EA0131601414000004000000
B0654233215165S11735012EA0130401402000004000000
B0654273215107S11735069EA0130101399000004000000
B0654313215047S11735121EA0129801393000004000000
B0654353214986S11735171EA0128901386000004000000
B0654393214921S11735216EA0128201377000004000000
B0654433214853S11735259EA0126801362000004000000
B0654473214782S11735299EA0125601350000004000000
B0654513214708S11735337EA0124301339000004000000
B0654553214632S11735371EA0123001329000004000000
B0654593214557S11735397EA0122501319000004000000
B0655033214480S11735418EA0121801313000004000000
B0655073214406S11735436EA0121601311000004000000
B0655113214332S11735453EA0121201307000004000000
B0655153214257S11735467EA0120501300000004000000
B0655193214179S11735479EA0119401289000004000000
B0655233214096S11735488EA0118801284000004000000
B0655273214012S11735501EA0118101276000004000000
B0655313213928S11735513EA0118101281000004000000
B0655353213847S11735524EA0118601287000004000000
B0655393213771S11735535EA0119401294000004000000
B0655433213696S11735544EA0119201289000004000000
B0655473213620S11735553EA0119001284000004000000
B0655513213542S11735563EA0118201278000004000000
B0655553213462S11735579EA0118101280000004000000
B0655593213390S11735606EA0118701287000004000000
B0656033213330S11735643EA0120601308000004000000
B0656073213318S11735700EA0122801326000004000000
B0656113213368S11735730EA0122801320000004000000
B0656153213426S11735687EA0122401315000004000000
B0656193213446S11735598EA0121801314000004000000
B0656233213429S11735511EA0121801316000004000000
B0656273213390S11735445EA0122801327000004000000
B0656313213335S11735406EA0123401324000004000000
B0656353213266S11735392EA0122601310000004000000
B0656393213204S11735414EA0123301325000004000000
B0656433213162S11735458EA0125201344000004000000
B0656473213173S11735511EA0125501342000004000000
B0656513213238S11735510EA0124801337000004000000
B0656553213275S11735436EA0125801351000004015000
B0656593213266S11735358EA0126601361000004015000
B0657033213227S11735298EA0126801361000004000000
B0657073213169S11735266EA0126601367000004000000
B0657113213122S11735292EA0127201367000004000000
B0657153213130S11735353EA0126701360000004000000
B0657193213192S11735366EA0126501363000004000000
B0657233213236S11735303EA0127101368000004000000
B0657273213218S11735221EA0127101368000004000000
B0657313213157S11735180EA0127101369000004000000
B0657353213087S11735180EA0125701353000004000000
B0657393213013S11735197EA0125101349000004000000
B0657433212933S11735217EA0124101339000004000000
B0657473212854S11735237EA0123901338000004000000
B0657513212775S11735255EA0123901335000004000000
B0657553212693S11735267EA0122901326000004000000
B0657593212608S11735280EA0122101317000004000000
B0658033212523S11735289EA0121601312000004000000
B0658073212435S11735301EA0120301297000004000000
B0658113212350S11735314EA0119001287000004000000
B0658153212268S11735325EA0119201290000004000000
B0658193212188S11735337EA0119001284000004000000
B0658233212110S11735347EA0118101273000004000000
B0658273212034S11735359EA0117001262000004000000
B0658313211956S11735372EA0115701251000004000000
B0658353211878S11735384EA0114701241000004000000
B0658393211798S11735396EA0114001232000004000000
B0658433211719S11735407EA0112801220000004000000
B0658473211641S11735422EA0112101215000004000000
B0658513211564S11735436EA0111701213000004000000
B0658553211492S11735449EA0111901217000004000000
B0658593211420S11735461EA0111601208000004000000
B0659033211346S11735474EA0110401197000004000000
B0659073211272S11735488EA0109501187000004000000
B0659113211198S11735507EA0109601192000004000000
B0659153211132S11735536EA0111001209000004000000
B0659193211102S11735592EA0113101226000004000000
B0659233211141S11735637EA0113701229000004000000
B0659273211202S11735618EA0113701232000004000000
B0659313211229S11735548EA0114501238000004000000
B0659353211199S11735488EA0114401236000004000000
B0659393211145S11735507EA0113301225000004000000
B0659433211108S11735568EA0113201229000004000000
B0659473211089S11735640EA0113801233000004000000
B0659513211073S11735718EA0113001222000004000000
B0659553211034S11735788EA0112201214000004000000
B0659593210973S11735832EA0111501209000004000000
B0700033210901S11735856EA0111101204000004000000
B0700073210826S11735871EA0110501197000004000000
B0700113210748S11735882EA0109801191000004000000
B0700153210669S11735890EA0109401185000004000000
B0700193210589S11735895EA0109701196000004000000
B0700233210526S11735923EA0112101222000004000000
B0700273210528S11735982EA0114601244000004000000
B0700313210587S11735987EA0115601252000004000000
B0700353210626S11735923EA0116301260000004000000
B0700393210602S11735849EA0117101267000004000000
B0700433210547S11735840EA0117801275000004000000
B0700473210531S11735895EA0118401281000004000000
B0700513210586S11735913EA0117901276000004000000
B0700553210630S11735845EA0118901289000004000000
B0700593210610S11735771EA0120501301000004000000
B0701033210550S11735760EA0120501303000004000000
B0701073210532S11735814EA0121301313000004000000
B0701113210580S11735841EA0122201319000004000000
B0701153210632S11735792EA0122601326000004000000
B0701193210627S11735710EA0123501336000004000000
B0701233210574S11735676EA0124501347000004000000
B0701273210539S11735719EA0125101347000004000000
B0701313210574S11735765EA0124901346000004000000
B0701353210634S11735735EA0125101349000004000000
B0701393210657S11735652EA0125001349000004000000
B0701433210643S11735561EA0125001352000004000000
B0701473210587S11735503EA0125501357000004000000
B0701513210526S11735507EA0126301365000004000000
B0701553210524S11735568EA0126501367000004000000
B0701593210584S11735581EA0127101372000004000000
B0702033210627S11735514EA0127801381000004000000
B0702073210605S11735432EA0128501387000004000000
B0702113210545S11735401EA0128901388000004000000
B0702153210501S11735446EA0128701388000004000000
B0702193210518S11735507EA0129601401000004000000
B0702233210578S11735516EA0130501401000004000000
B0702273210628S11735451EA0129901401000004000000
B0702313210622S11735359EA0130901411000004000000
B0702353210567S11735305EA0131601418000004000000
B0702393210502S11735307EA0131601415000004000000
B0702433210443S11735342EA0131501419000004000000
B0702473210393S11735390EA0132401431000004000000
B0702513210411S11735444EA0133701438000004000000
B0702553210474S11735411EA0133501432000004000000
B0702593210487S11735320EA0133801440000004000000
B0703033210444S11735246EA0135101453000004000000
B0703073210380S11735229EA0136501467000004000000
B0703113210342S11735275EA0137001470000004000000
B0703153210365S11735325EA0138101479000004000000
B0703193210420S11735310EA0138001477000004000000
B0703233210450S11735233EA0137701476000004000000
B0703273210414S11735156EA0137901484000004000000
B0703313210357S11735169EA0139001493000004000000
B0703353210365S11735229EA0139501499000004000000
B0703393210419S11735232EA0140501510000004000000
B0703433210456S11735168EA0141001512000004000000
B0703473210432S11735085EA0141201520000004000000
B0703513210371S11735052EA0142301528000004000000
B0703553210319S11735085EA0143001535000004000000
B0703593210316S11735145EA0143901541000004000000
B0704033210366S11735164EA0144401545000004000000
B0704073210413S11735113EA0144801551000004000000
B0704113210409S11735032EA0145201553000004000000
B0704153210352S11734986EA0145201556000004000000
B0704193210293S11735006EA0145801561000004000000
B0704233210283S11735064EA0146101564000004000000
B0704273210328S11735084EA0146601569000004000000
B0704313210372S11735033EA0146901571000004000000
B0704353210362S11734951EA0146801572000004000000
B0704393210300S11734908EA0146801573000004000000
B0704433210227S11734904EA0146201563000004000000
B0704473210147S11734916EA0144801549000004000000
B0704513210064S11734934EA0143201533000004000000
B0704553209978S11734954EA0141201513000004000000
B0704593209891S11734977EA0140101503000004000000
B0705033209803S11734996EA0139301494000004000000
B0705073209717S11735016EA0138101482000004000000
B0705113209633S11735034EA0137101475000004000000
B0705153209551S11735052EA0136701471000004000000
B0705193209470S11735071EA0136201463000004000000
B0705233209391S11735086EA0135601460000004000000
B0705273209314S11735098EA0135201453000004000000
B0705313209236S11735108EA0134601447000004000000
B0705353209159S11735115EA0134101438000004000000
B0705393209080S11735120EA0133101425000004000000
B0705433209000S11735125EA0131601410000004000000
B0705473208918S11735128EA0130301399000004000000
B0705513208838S11735133EA0129801398000004000000
B0705553208763S11735137EA0130101402000004000000
B0705593208691S11735141EA0131201417000004000000
