ACAM4N6
HFDTE050415
HFFXA050
HFPLTPILOT:JOHN WELSH              
HFGTYGLIDERTYPE:HORNET      
HFGIDGLIDERID:VH-GMY      
HFDTM100GPSDATUM:
HFRFWFIRMWAREVERSION:F2.6
HFRHWHARDWAREVERSION:300 Series Version 2
HFFTYFRTYPE:CAMBRIDGE AERO INSTRUMENTS, 302+
HFGPS:GARMIN,LVS-25,12,18000
HFPRSPRESSALTSENSOR:INTERSEMA, MS5534-AP, 20000
I033638FXA3941ENL4247REX
LCAMSBVER:5FWVER:F26300
C050415050137050415000102
C0000000N00000000WTAKEOFF     
C3207549S11656849EBEVAIR      
C3123325S11712260EWATRCRRN    
C3212499S11757329EBILBARIN    
C3207549S11656849EBEVAIR      
C0000000N00000000WLANDING     
B0505573207337S11656854EA0015500221000000000000
B0505593207337S11656854EA0015400221000000000000
B0506013207337S11656854EA0015400221000000000000
B0506033207337S11656854EA0015400221000000000000
B0506053207337S11656854EA0015500221000000000000
B0506073207337S11656854EA0015400221000000000000
B0506093207337S11656854EA0015300221000000000000
B0506113207337S11656854EA0015300221000000000000
B0506133207337S11656854EA0015300221000000000000
B0506153207337S11656854EA0015400221000000000000
B0506173207337S11656854EA0015300221000000000000
B0506193207337S11656854EA0015300221000000000000
B0506213207337S11656854EA0015300221000000000000
B0506233207337S11656854EA0015400221000000000000
B0506253207338S11656856EA0015500221000000000000
B0506283207347S11656864EA0015400221000000000000
B0506323207372S11656886EA0015300221000000000000
B0506363207412S11656916EA0015100222000000000000
B0506403207466S11656949EA0015400222000000000000
B0506443207521S11656988EA0015800232000000000000
B0506483207570S11657030EA0018600264000000000000
B0506523207609S11657072EA0021500295000000000000
B0506563207645S11657114EA0023900320000000000000
B0507003207679S11657163EA0026000341000000000000
B0507043207706S11657217EA0028200364000000000000
B0507083207728S11657277EA0029900389000000000000
B0507123207748S11657341EA0032900412000000000000
B0507163207767S11657407EA0034500430000000000000
B0507203207774S11657478EA0035900454000000000000
B0507243207758S11657549EA0038900483000000000000
B0507283207716S11657611EA0041200503000000000000
B0507323207654S11657657EA0042900521000000000000
B0507363207576S11657667EA0044900543000000000000
B0507403207495S11657642EA0046700561000000000000
B0507443207424S11657577EA0048300576000000000000
B0507483207375S11657482EA0049700588000000000000
B0507523207363S11657372EA0050700599000000000000
B0507563207385S11657268EA0051700608000000000000
B0508003207437S11657189EA0053000623000000000000
B0508043207501S11657151EA0054700640000000000000
B0508083207566S11657147EA0056200660000000000000
B0508123207622S11657172EA0058000676000000000000
B0508163207664S11657217EA0060000700000000000000
B0508203207700S11657270EA0061700712000000000000
B0508243207736S11657317EA0063300728000000000000
B0508283207784S11657346EA0065000749000000000000
B0508323207844S11657346EA0067700781000000000000
B0508363207884S11657290EA0070400803000000000000
B0508393207853S11657213EA0071400811000000000000
B0508433207789S11657217EA0071600811000000000000
B0508473207772S11657267EA0073200832000000000000
B0508513207805S11657278EA0074600841000000000000
B0508553207843S11657233EA0074900842000000000000
B0508593207840S11657152EA0075300846000000000000
B0509033207791S11657094EA0076100851000000000000
B0509073207737S11657116EA0075800846000000000000
B0509113207752S11657155EA0076500859000000000000
B0509153207787S11657108EA0077800867000000000000
B0509193207765S11657027EA0078000870000000000000
B0509233207705S11656992EA0078900881000000000000
B0509273207655S11657013EA0079000872000000000000
B0509313207650S11657068EA0077800866000000000000
B0509353207687S11657096EA0078400876000000000000
B0509393207723S11657043EA0079600885000000000000
B0509433207707S11656955EA0079500884000000000000
B0509473207651S11656891EA0079900887000000000000
B0509513207601S11656914EA0080300888000000000000
B0509553207615S11656960EA0079700883000000000000
B0509593207654S11656995EA0079200876000000000000
B0510033207702S11657026EA0079200879000000000000
B0510073207754S11657053EA0079300877000000000000
B0510113207809S11657059EA0080400892000000000000
B0510153207823S11656984EA0081800897000000000000
B0510193207767S11656922EA0080400880000000000000
B0510233207694S11656927EA0080200888000000000000
B0510273207657S11656979EA0081200898000000000000
B0510313207653S11657040EA0081600899000000000000
B0510353207680S11657090EA0082000905000000000000
B0510393207718S11657129EA0082600911000000000000
B0510433207762S11657159EA0082700911000000000000
B0510473207809S11657186EA0082100899000000000000
B0510513207859S11657220EA0080600882000000000000
B0510553207917S11657255EA0079000868000000000000
B0510593207975S11657291EA0077800858000000000000
B0511033208034S11657328EA0076600845000000000000
B0511073208090S11657364EA0076000842000000000000
B0511113208140S11657404EA0075400832000000000000
B0511153208184S11657451EA0074700824000000000000
B0511193208231S11657493EA0074500826000000000000
B0511233208278S11657533EA0074900827000000000000
B0511273208322S11657571EA0075100834000000000000
B0511313208360S11657603EA0076300846000000000000
B0511353208396S11657632EA0076700844000000000000
B0511393208441S11657650EA0076400842000000000000
B0511433208485S11657668EA0076300840000000000000
B0511473208525S11657697EA0075700832000000000000
B0511513208571S11657725EA0074400818000000000000
B0511553208613S11657766EA0073000805000000000000
B0511593208651S11657810EA0072700802000000000000
B0512033208686S11657855EA0072200800000000000000
B0512073208723S11657893EA0072300800000000000000
B0512113208754S11657933EA0071700789000000000000
B0512153208788S11657976EA0070300777000000000000
B0512193208825S11658018EA0069100760000000000000
B0512233208862S11658065EA0067700750000000000000
B0512273208896S11658115EA0066300734000000000000
B0512313208907S11658180EA0065100726000000000000
B0512353208896S11658251EA0064400716000000000000
B0512393208872S11658320EA0063700706000000000000
B0512433208844S11658387EA0062700695000000000000
B0512473208808S11658455EA0061600685000000000000
B0512513208769S11658518EA0060700682000000000000
B0512553208737S11658578EA0061300688000000000000
B0512593208733S11658634EA0061200685000000000000
B0513033208742S11658686EA0060200673000000000000
B0513073208742S11658745EA0058900660000000000000
B0513113208738S11658806EA0058100649000000000000
B0513153208732S11658868EA0056600632000000000000
B0513193208706S11658932EA0055100617000000000000
B0513233208665S11658993EA0053900605000000000000
B0513273208611S11659048EA0052600596000000000000
B0513313208539S11659081EA0052400597000000000000
B0513353208461S11659058EA0053600613000000000000
B0513393208435S11658970EA0054900620000000000000
B0513433208477S11658932EA0055800634000000000000
B0513473208495S11658959EA0055800627000000000000
B0513513208460S11658997EA0054700618000000000000
B0513553208391S11658983EA0054700618000000000000
B0513593208326S11658933EA0054500617000000000000
B0514033208277S11658859EA0054300609000000000000
B0514073208226S11658780EA0053600606000000000000
B0514113208168S11658706EA0053000597000000000000
B0514153208110S11658626EA0052000587000000000000
B0514193208051S11658546EA0051000579000000000000
B0514233207983S11658478EA0050700577000000000000
B0514273207910S11658421EA0051200583000000000000
B0514313207861S11658450EA0052500593000000000000
B0514353207892S11658477EA0052800606000000000000
B0514393207913S11658403EA0053600614000000000000
B0514433207852S11658348EA0053000612000000000000
B0514473207814S11658394EA0053300612000000000000
B0514513207852S11658394EA0053600613000000000000
B0514553207839S11658299EA0053900608000000000000
B0514593207766S11658271EA0053700609000000000000
B0515033207731S11658317EA0053800612000000000000
B0515073207779S11658320EA0054400631000000000000
B0515113207796S11658234EA0055400641000000000000
B0515153207740S11658171EA0055700640000000000000
B0515193207684S11658193EA0055600639000000000000
B0515233207680S11658251EA0055300637000000000000
B0515273207726S11658244EA0055700640000000000000
B0515313207707S11658152EA0055400639000000000000
B0515353207644S11658144EA0056100648000000000000
B0515393207645S11658192EA0056200644000000000000
B0515433207693S11658180EA0056400646000000000000
B0515473207709S11658099EA0056300641000000000000
B0515513207649S11658036EA0055600639000000000000
B0515553207584S11658041EA0055200636000000000000
B0515593207559S11658095EA0055300635000000000000
B0516033207562S11658156EA0054900630000000000000
B0516073207580S11658212EA0054300620000000000000
B0516113207606S11658269EA0053600615000000000000
B0516153207633S11658318EA0054200622000000000000
B0516193207663S11658359EA0054700618000000000000
B0516233207715S11658360EA0054300617000000000000
B0516273207742S11658290EA0055600631000000000000
B0516313207697S11658216EA0055200622000000000000
B0516353207635S11658221EA0053600606000000000000
B0516393207615S11658278EA0052100590000000000000
B0516433207635S11658326EA0051400587000000000000
B0516473207692S11658320EA0051300580000000000000
B0516513207749S11658269EA0050300574000000000000
B0516553207753S11658178EA0050900579000000000000
B0516593207700S11658104EA0051300581000000000000
B0517033207622S11658075EA0050900576000000000000
B0517073207545S11658075EA0050200571000000000000
B0517113207536S11658117EA0051300584000000000000
B0517153207576S11658113EA0050900571000000000000
B0517193207594S11658039EA0050000570000000000000
B0517233207544S11657970EA0049500558000000000000
B0517273207467S11657944EA0047200541000000000000
B0517313207386S11657937EA0046800537000000000000
B0517353207306S11657924EA0046800538000000000000
B0517393207225S11657901EA0046500531000000000000
B0517433207144S11657868EA0045900529000000000000
B0517473207064S11657836EA0046000531000000000000
B0517513206983S11657835EA0046100531000000000000
B0517553206952S11657885EA0046400537000000000000
B0517593206969S11657931EA0046500534000000000000
B0518033207020S11657926EA0045900528000000000000
B0518073207048S11657849EA0046000533000000000000
B0518113207013S11657770EA0045700529000000000000
B0518153206944S11657723EA0044600517000000000000
B0518193206868S11657706EA0044100512000000000000
B0518233206797S11657722EA0043500507000000000000
B0518273206753S11657768EA0043400506000000000000
B0518313206762S11657820EA0043200501000000000000
B0518353206806S11657848EA0042200490000000000000
B0518393206865S11657836EA0041500489000000000000
B0518433206905S11657772EA0041800492000000000000
B0518473206905S11657681EA0041400487000000000000
B0518513206865S11657603EA0041500488000000000000
B0518553206801S11657554EA0040900481000000000000
B0518593206732S11657507EA0040500476000000000000
B0519033206662S11657460EA0040400475000000000000
B0519073206589S11657436EA0040500477000000000000
B0519113206519S11657437EA0040800480000000000000
B0519153206452S11657398EA0041400484000000000000
B0519193206422S11657320EA0041700487000000000000
B0519233206436S11657242EA0042000492000000000000
B0519273206480S11657209EA0042800500000000000000
B0519313206505S11657231EA0043500505000000000000
B0519353206471S11657259EA0043900510000000000000
B0519393206411S11657239EA0043800503000000000000
B0519433206383S11657164EA0043200501000000000000
B0519473206410S11657096EA0043500506000000000000
B0519513206455S11657077EA0043800508000000000000
B0519553206467S11657108EA0044500517000000000000
B0519593206427S11657129EA0045000518000000000000
B0520033206367S11657092EA0044700514000000000000
B0520073206346S11657016EA0044400511000000000000
B0520113206385S11656966EA0044300512000000000000
B0520153206405S11656992EA0045300522000000000000
B0520193206362S11657016EA0045200521000000000000
B0520233206305S11656969EA0045100519000000000000
B0520273206301S11656891EA0045400526000000000000
B0520313206340S11656862EA0045800529000000000000
B0520353206333S11656903EA0045000517000000000000
B0520393206267S11656895EA0045000519000000000000
B0520433206231S11656823EA0045900532000000000000
B0520473206254S11656756EA0046500538000000000000
B0520513206285S11656766EA0047600546000000000000
B0520553206253S11656796EA0047500549000000000000
B0520593206190S11656766EA0047700561000000000000
B0521033206166S11656689EA0048600564000000000000
B0521073206198S11656635EA0049500573000000000000
B0521113206233S11656644EA0050100574000000000000
B0521153206216S11656689EA0049900568000000000000
B0521193206156S11656704EA0050500577000000000000
B0521233206107S11656649EA0051500584000000000000
B0521273206114S11656574EA0051400582000000000000
B0521313206156S11656561EA0052200593000000000000
B0521353206138S11656602EA0052700593000000000000
B0521393206078S11656570EA0052800596000000000000
B0521433206069S11656488EA0053300601000000000000
B0521473206114S11656453EA0053700606000000000000
B0521513206140S11656484EA0054800617000000000000
B0521553206112S11656526EA0055600626000000000000
B0521593206055S11656505EA0056000626000000000000
B0522033206032S11656424EA0055500622000000000000
B0522073206069S11656366EA0055800632000000000000
B0522113206108S11656381EA0057100645000000000000
B0522153206089S11656422EA0058600660000000000000
B0522193206036S11656407EA0059500666000000000000
B0522233206002S11656338EA0059800667000000000000
B0522273206019S11656268EA0060500678000000000000
B0522313206062S11656242EA0061300686000000000000
B0522353206082S11656272EA0062100695000000000000
B0522393206045S11656308EA0062500696000000000000
B0522433205987S11656277EA0063500707000000000000
B0522473205984S11656199EA0064000712000000000000
B0522513206029S11656176EA0065200728000000000000
B0522553206043S11656217EA0066300738000000000000
B0522593205998S11656249EA0067100745000000000000
B0523033205938S11656219EA0067600751000000000000
B0523073205911S11656141EA0067700750000000000000
B0523113205933S11656064EA0067800754000000000000
B0523153205985S11656050EA0068700769000000000000
B0523193205989S11656094EA0070400785000000000000
B0523233205935S11656112EA0071300790000000000000
B0523273205883S11656061EA0071900801000000000000
B0523313205880S11655983EA0073200814000000000000
B0523353205915S11655939EA0074000822000000000000
B0523393205950S11655954EA0074700829000000000000
B0523433205935S11656000EA0075300835000000000000
B0523473205874S11656004EA0075700838000000000000
B0523513205822S11655944EA0076000841000000000000
B0523553205820S11655863EA0076200844000000000000
B0523593205868S11655837EA0076700849000000000000
B0524033205906S11655873EA0076500845000000000000
B0524073205880S11655930EA0076900851000000000000
B0524113205815S11655926EA0077900858000000000000
B0524153205766S11655863EA0078300865000000000000
B0524193205799S11655816EA0079200868000000000000
B0524233205816S11655859EA0079600875000000000000
B0524273205765S11655885EA0080400882000000000000
B0524313205714S11655833EA0080800886000000000000
B0524353205721S11655759EA0081500896000000000000
B0524393205768S11655738EA0081800899000000000000
B0524433205790S11655779EA0082500907000000000000
B0524473205751S11655818EA0083000910000000000000
B0524513205688S11655799EA0083000910000000000000
B0524553205660S11655723EA0083000910000000000000
B0524593205691S11655658EA0083100915000000000000
B0525033205743S11655649EA0083500921000000000000
B0525073205781S11655684EA0083500918000000000000
B0525113205811S11655734EA0082600909000000000000
B0525153205839S11655790EA0082300905000000000000
B0525193205872S11655847EA0081600897000000000000
B0525233205908S11655907EA0080400881000000000000
B0525273205948S11655967EA0078800865000000000000
B0525313205986S11656034EA0077400852000000000000
B0525353206023S11656102EA0076600847000000000000
B0525393206064S11656164EA0075900832000000000000
B0525433206101S11656234EA0074400824000000000000
B0525473206142S11656303EA0073900817000000000000
B0525513206198S11656355EA0073100810000000000000
B0525553206262S11656396EA0072000793000000000000
B0525593206332S11656429EA0070900789000000000000
B0526033206398S11656454EA0072700808000000000000
B0526073206458S11656422EA0074700830000000000000
B0526113206458S11656328EA0076000843000000000000
B0526153206402S11656271EA0076900851000000000000
B0526193206350S11656288EA0076400838000000000000
B0526233206358S11656344EA0074500825000000000000
B0526273206389S11656401EA0074300824000000000000
B0526313206426S11656461EA0074200828000000000000
B0526353206462S11656509EA0076400852000000000000
B0526393206511S11656480EA0078500863000000000000
B0526433206488S11656402EA0078200857000000000000
B0526473206431S11656405EA0077500850000000000000
B0526513206427S11656457EA0077600857000000000000
B0526553206457S11656503EA0077800858000000000000
B0526593206498S11656541EA0078300865000000000000
B0527033206541S11656502EA0080000880000000000000
B0527073206517S11656427EA0080000875000000000000
B0527113206459S11656422EA0079700876000000000000
B0527153206446S11656464EA0079200870000000000000
B0527193206474S11656510EA0078500865000000000000
B0527233206507S11656555EA0078000861000000000000
B0527273206543S11656604EA0077200847000000000000
B0527313206584S11656654EA0075700834000000000000
B0527353206632S11656697EA0075100831000000000000
B0527393206688S11656734EA0074000816000000000000
B0527433206744S11656771EA0072800807000000000000
B0527473206797S11656810EA0072300802000000000000
B0527513206848S11656849EA0071800797000000000000
B0527553206900S11656883EA0071100787000000000000
B0527593206955S11656913EA0070600783000000000000
B0528033207009S11656939EA0070400780000000000000
B0528073207060S11656973EA0070600786000000000000
B0528113207104S11657012EA0071500794000000000000
B0528153207141S11657056EA0072200798000000000000
B0528193207180S11657101EA0071100783000000000000
B0528233207224S11657143EA0069800772000000000000
B0528273207267S11657190EA0069200770000000000000
B0528313207307S11657230EA0069900778000000000000
B0528353207346S11657270EA0069600773000000000000
B0528393207395S11657300EA0069200769000000000000
B0528433207450S11657325EA0068800760000000000000
B0528473207505S11657348EA0067800750000000000000
B0528513207562S11657373EA0066600735000000000000
B0528553207622S11657398EA0065300725000000000000
B0528593207681S11657423EA0064300714000000000000
B0529033207742S11657452EA0062900700000000000000
B0529073207798S11657485EA0063000704000000000000
B0529113207849S11657520EA0062100689000000000000
B0529153207902S11657554EA0060700671000000000000
B0529193207957S11657588EA0059000658000000000000
B0529233208010S11657625EA0058100650000000000000
B0529273208057S11657672EA0057500642000000000000
B0529313208109S11657711EA0056500633000000000000
B0529353208160S11657753EA0055600624000000000000
B0529393208194S11657811EA0054600616000000000000
B0529433208209S11657875EA0054700615000000000000
B0529473208229S11657935EA0054300612000000000000
B0529513208260S11657989EA0053600604000000000000
B0529553208288S11658047EA0053000595000000000000
B0529593208320S11658101EA0052100586000000000000
B0530033208342S11658166EA0051800589000000000000
B0530073208365S11658227EA0052500595000000000000
B0530113208392S11658282EA0053100602000000000000
B0530153208435S11658301EA0053900609000000000000
B0530193208441S11658222EA0055100613000000000000
B0530233208378S11658179EA0055000617000000000000
B0530273208329S11658212EA0055200621000000000000
B0530313208324S11658264EA0054900614000000000000
B0530353208347S11658309EA0053900604000000000000
B0530393208382S11658349EA0052900595000000000000
B0530433208396S11658408EA0052200591000000000000
B0530473208373S11658476EA0051700583000000000000
B0530513208325S11658535EA0051200581000000000000
B0530553208265S11658587EA0050700576000000000000
B0530593208200S11658634EA0050600576000000000000
B0531033208139S11658687EA0050900578000000000000
B0531073208135S11658738EA0052300594000000000000
B0531113208169S11658689EA0054400610000000000000
B0531153208125S11658620EA0055200620000000000000
B0531193208067S11658635EA0056000631000000000000
B0531233208075S11658676EA0056400633000000000000
B0531273208119S11658650EA0056500637000000000000
B0531313208113S11658568EA0057500652000000000000
B0531353208054S11658531EA0058800661000000000000
B0531393208017S11658568EA0058800661000000000000
B0531433208047S11658589EA0059600673000000000000
B0531473208080S11658538EA0060700681000000000000
B0531513208062S11658459EA0061100684000000000000
B0531553207995S11658422EA0061400688000000000000
B0531593207939S11658450EA0061800692000000000000
B0532033207923S11658502EA0062300698000000000000
B0532073207944S11658541EA0062500697000000000000
B0532113207989S11658520EA0062600697000000000000
B0532153208010S11658446EA0062400695000000000000
B0532193207999S11658355EA0062300694000000000000
B0532233207944S11658290EA0062700702000000000000
B0532273207874S11658268EA0063100704000000000000
B0532313207824S11658304EA0063000700000000000000
B0532353207822S11658359EA0063000705000000000000
B0532393207857S11658381EA0064000714000000000000
B0532433207888S11658323EA0064300717000000000000
B0532473207869S11658240EA0064700720000000000000
B0532513207805S11658205EA0064800721000000000000
B0532553207750S11658235EA0064400716000000000000
B0532593207729S11658291EA0064300717000000000000
B0533033207748S11658333EA0065300729000000000000
B0533073207793S11658320EA0066100736000000000000
B0533113207817S11658249EA0066500738000000000000
B0533153207785S11658169EA0066700741000000000000
B0533193207718S11658135EA0066800741000000000000
B0533233207661S11658161EA0066600742000000000000
B0533273207644S11658214EA0066900746000000000000
B0533313207671S11658249EA0067700752000000000000
B0533353207718S11658244EA0067800750000000000000
B0533393207765S11658196EA0067700751000000000000
B0533433207793S11658117EA0067700753000000000000
B0533473207771S11658027EA0068300761000000000000
B0533513207710S11657976EA0068300756000000000000
B0533553207649S11657992EA0067700755000000000000
B0533593207619S11658041EA0067900752000000000000
B0534033207620S11658099EA0067900755000000000000
B0534073207649S11658136EA0068600766000000000000
B0534113207694S11658110EA0069400768000000000000
B0534153207716S11658035EA0068800762000000000000
B0534193207697S11657945EA0068500758000000000000
B0534233207642S11657870EA0067800753000000000000
B0534273207580S11657801EA0067700748000000000000
B0534313207510S11657745EA0067600749000000000000
B0534353207433S11657732EA0067600749000000000000
B0534393207376S11657762EA0067800752000000000000
B0534433207371S11657815EA0067900754000000000000
B0534473207399S11657853EA0068200757000000000000
B0534513207449S11657828EA0068700761000000000000
B0534553207476S11657751EA0068400756000000000000
B0534593207460S11657654EA0067700750000000000000
B0535033207394S11657634EA0066900710000000000000
B0535073207381S11657707EA0064700697000000000000
B0535113207389S11657783EA0065100707000000000000
B0535153207404S11657850EA0065800717000000000000
B0535193207428S11657913EA0065700718000000000000
B0535233207458S11657971EA0065600719000000000000
B0535273207490S11658024EA0065800719000000000000
B0535313207529S11658075EA0064900714000000000000
B0535353207577S11658118EA0063400700000000000000
B0535393207636S11658157EA0061900691000000000000
B0535433207696S11658191EA0061700685000000000000
B0535473207754S11658227EA0061000680000000000000
B0535513207813S11658264EA0061400686000000000000
B0535553207872S11658287EA0061400682000000000000
B0535593207931S11658317EA0060500677000000000000
B0536033207982S11658351EA0061000686000000000000
B0536073208019S11658391EA0062200696000000000000
B0536113208054S11658431EA0062500696000000000000
B0536153208092S11658469EA0062200694000000000000
B0536193208134S11658508EA0061800688000000000000
B0536233208171S11658551EA0061000677000000000000
B0536273208205S11658600EA0059800665000000000000
B0536313208212S11658664EA0058700658000000000000
B0536353208178S11658719EA0058500656000000000000
B0536393208118S11658749EA0058000649000000000000
B0536433208045S11658755EA0057000636000000000000
B0536473207969S11658737EA0055400621000000000000
B0536513207889S11658699EA0054100606000000000000
B0536553207811S11658647EA0053300605000000000000
B0536593207740S11658590EA0053400602000000000000
B0537033207672S11658525EA0053000597000000000000
B0537073207606S11658461EA0052300586000000000000
B0537113207541S11658398EA0051000575000000000000
B0537153207481S11658325EA0050500572000000000000
B0537193207438S11658239EA0050400570000000000000
B0537233207404S11658149EA0049900564000000000000
B0537273207375S11658058EA0049400554000000000000
B0537313207350S11657963EA0048200542000000000000
B0537353207302S11657884EA0047500540000000000000
B0537393207235S11657832EA0047500542000000000000
B0537433207170S11657780EA0048100547000000000000
B0537473207116S11657712EA0047800539000000000000
B0537513207073S11657634EA0046800531000000000000
B0537553207037S11657551EA0045700518000000000000
B0537593207030S11657460EA0044900511000000000000
B0538033207051S11657376EA0044800513000000000000
B0538073207090S11657304EA0044700510000000000000
B0538113207143S11657255EA0044300507000000000000
B0538153207198S11657243EA0044300508000000000000
B0538193207252S11657247EA0043700500000000000000
B0538233207313S11657247EA0042800496000000000000
B0538273207372S11657252EA0042900496000000000000
B0538313207427S11657270EA0042300490000000000000
B0538353207479S11657294EA0041200478000000000000
B0538393207525S11657337EA0040500472000000000000
B0538433207562S11657390EA0040000470000000000000
B0538473207593S11657446EA0040300475000000000000
B0538513207616S11657501EA0041300486000000000000
B0538553207635S11657555EA0041900487000000000000
B0538593207655S11657614EA0040800474000000000000
B0539033207680S11657673EA0041000481000000000000
B0539073207727S11657657EA0043000495000000000000
B0539113207707S11657569EA0042500483000000000000
B0539153207632S11657551EA0042400491000000000000
B0539193207597S11657599EA0043200501000000000000
B0539233207631S11657629EA0044200510000000000000
B0539273207663S11657567EA0044900515000000000000
B0539313207627S11657490EA0045100514000000000000
B0539353207567S11657501EA0044800515000000000000
B0539393207570S11657547EA0045900536000000000000
B0539433207609S11657525EA0047700545000000000000
B0539473207615S11657445EA0047200535000000000000
B0539513207560S11657389EA0046500534000000000000
B0539553207510S11657420EA0047100543000000000000
B0539593207521S11657460EA0048200553000000000000
B0540033207555S11657408EA0049500567000000000000
B0540073207528S11657334EA0050100568000000000000
B0540113207469S11657333EA0050300575000000000000
B0540153207463S11657381EA0051400587000000000000
B0540193207506S11657378EA0052200595000000000000
B0540233207515S11657298EA0052400596000000000000
B0540273207458S11657243EA0052300596000000000000
B0540313207403S11657270EA0052700600000000000000
B0540353207402S11657324EA0053100602000000000000
B0540393207447S11657321EA0054400621000000000000
B0540433207464S11657251EA0055000620000000000000
B0540473207420S11657174EA0054400616000000000000
B0540513207352S11657166EA0054500619000000000000
B0540553207347S11657216EA0054600619000000000000
B0540593207390S11657190EA0055900636000000000000
B0541033207369S11657109EA0056700640000000000000
B0541073207307S11657086EA0056800642000000000000
B0541113207276S11657133EA0056800643000000000000
B0541153207308S11657155EA0057900659000000000000
B0541193207333S11657087EA0059200671000000000000
B0541233207289S11657020EA0059800675000000000000
B0541273207229S11657022EA0060300679000000000000
B0541313207207S11657066EA0060500682000000000000
B0541353207238S11657094EA0061400692000000000000
B0541393207276S11657046EA0062200699000000000000
B0541433207251S11656969EA0062600706000000000000
B0541473207191S11656960EA0063100707000000000000
B0541513207173S11657008EA0063500715000000000000
B0541553207212S11657029EA0064500724000000000000
B0541593207256S11656979EA0065000727000000000000
B0542033207247S11656893EA0065200731000000000000
B0542073207189S11656844EA0065700736000000000000
B0542113207138S11656877EA0066100739000000000000
B0542153207144S11656930EA0067200754000000000000
B0542193207187S11656892EA0068800771000000000000
B0542233207163S11656817EA0069200769000000000000
B0542273207099S11656812EA0069200774000000000000
B0542313207083S11656867EA0070400783000000000000
B0542353207113S11656917EA0070700787000000000000
B0542393207169S11656900EA0071100789000000000000
B0542433207193S11656817EA0070800784000000000000
B0542473207180S11656717EA0070100776000000000000
B0542513207154S11656617EA0069800777000000000000
B0542553207091S11656589EA0071100788000000000000
B0542593207077S11656636EA0069800771000000000000
B0543033207091S11656692EA0069400773000000000000
B0543073207117S11656745EA0069500775000000000000
B0543113207148S11656795EA0068700764000000000000
B0543153207190S11656836EA0067600752000000000000
B0543193207232S11656878EA0066700744000000000000
B0543233207284S11656903EA0066000734000000000000
B0543273207346S11656910EA0065100727000000000000
B0543313207412S11656912EA0064500716000000000000
B0543353207482S11656897EA0063900716000000000000
B0543393207553S11656869EA0063600714000000000000
B0543433207622S11656831EA0062900704000000000000
B0543473207687S11656783EA0061900696000000000000
B0543513207750S11656727EA0061500694000000000000
B0543553207813S11656671EA0061600694000000000000
B0543593207875S11656632EA0061800696000000000000
B0544033207930S11656636EA0062600705000000000000
B0544073207970S11656659EA0062900704000000000000
B0544113208002S11656691EA0062600700000000000000
B0544153208034S11656724EA0061900693000000000000
B0544193208060S11656763EA0062000696000000000000
B0544233208080S11656805EA0062000695000000000000
B0544273208103S11656847EA0061900692000000000000
B0544313208123S11656887EA0061200686000000000000
B0544353208140S11656930EA0060700677000000000000
B0544393208157S11656975EA0060000668000000000000
B0544433208179S11657021EA0059000656000000000000
B0544473208205S11657069EA0057400640000000000000
B0544513208231S11657121EA0056000628000000000000
B0544553208249S11657182EA0054700615000000000000
B0544593208256S11657250EA0053400602000000000000
B0545033208252S11657319EA0052500596000000000000
B0545073208242S11657385EA0052300593000000000000
B0545113208227S11657449EA0051700587000000000000
B0545153208210S11657511EA0051100579000000000000
B0545193208192S11657573EA0050000567000000000000
B0545233208178S11657637EA0048900556000000000000
B0545273208165S11657701EA0048000547000000000000
B0545313208153S11657764EA0047500543000000000000
B0545353208138S11657826EA0046900536000000000000
B0545393208121S11657888EA0046600536000000000000
B0545433208101S11657946EA0046300533000000000000
B0545473208090S11658005EA0045500523000000000000
B0545513208103S11658058EA0045100516000000000000
B0545553208132S11658106EA0044500511000000000000
B0545593208170S11658152EA0043600505000000000000
B0546033208207S11658197EA0043700510000000000000
B0546073208244S11658244EA0043600505000000000000
B0546113208279S11658296EA0042800497000000000000
B0546153208325S11658329EA0043700496000000000000
B0546193208327S11658255EA0046200524000000000000
B0546233208268S11658204EA0047200532000000000000
B0546273208209S11658229EA0047300538000000000000
B0546313208208S11658278EA0048100542000000000000
B0546353208252S11658255EA0048000540000000000000
B0546393208229S11658180EA0049400564000000000000
B0546433208169S11658180EA0050600575000000000000
B0546473208160S11658227EA0051100577000000000000
B0546513208203S11658221EA0051500585000000000000
B0546553208209S11658154EA0052900603000000000000
B0546593208157S11658104EA0053400604000000000000
B0547033208097S11658123EA0054200617000000000000
B0547073208093S11658171EA0054900622000000000000
B0547113208131S11658183EA0055500630000000000000
B0547153208157S11658128EA0056000630000000000000
B0547193208119S11658058EA0056300638000000000000
B0547233208056S11658061EA0057300648000000000000
B0547273208041S11658105EA0058000655000000000000
B0547313208075S11658114EA0058400657000000000000
B0547353208105S11658060EA0058400658000000000000
B0547393208079S11657980EA0058700661000000000000
B0547433208010S11657963EA0058900664000000000000
B0547473207979S11658011EA0060000680000000000000
B0547513208005S11658031EA0060600678000000000000
B0547553208034S11657976EA0060500679000000000000
B0547593207987S11657911EA0060300679000000000000
B0548033207921S11657920EA0061300694000000000000
B0548073207906S11657967EA0062300698000000000000
B0548113207945S11657969EA0062300701000000000000
B0548153207958S11657905EA0063200711000000000000
B0548193207918S11657844EA0063700714000000000000
B0548233207852S11657832EA0064000716000000000000
B0548273207815S11657875EA0064300720000000000000
B0548313207841S11657902EA0064800725000000000000
B0548353207871S11657852EA0064700724000000000000
B0548393207835S11657784EA0065300734000000000000
B0548433207770S11657777EA0066100740000000000000
B0548473207735S11657822EA0066400741000000000000
B0548513207758S11657858EA0066600746000000000000
B0548553207787S11657814EA0067800755000000000000
B0548593207754S11657742EA0067800758000000000000
B0549033207688S11657735EA0068600765000000000000
B0549073207662S11657781EA0068800768000000000000
B0549113207690S11657800EA0069500776000000000000
B0549153207713S11657745EA0070200780000000000000
B0549193207677S11657673EA0070200782000000000000
B0549233207611S11657668EA0070700787000000000000
B0549273207586S11657712EA0071500794000000000000
B0549313207620S11657716EA0071700794000000000000
B0549353207646S11657655EA0071500793000000000000
B0549393207636S11657568EA0071200793000000000000
B0549433207576S11657517EA0072700809000000000000
B0549473207516S11657541EA0073900818000000000000
B0549513207510S11657585EA0074700827000000000000
B0549553207545S11657590EA0074600826000000000000
B0549593207577S11657540EA0074700827000000000000
B0550033207555S11657463EA0075100833000000000000
B0550073207490S11657432EA0076000845000000000000
B0550113207436S11657456EA0076600847000000000000
B0550153207432S11657498EA0076900852000000000000
B0550193207467S11657506EA0076700847000000000000
B0550233207507S11657464EA0076000837000000000000
B0550273207510S11657384EA0075500834000000000000
B0550313207463S11657308EA0075400834000000000000
B0550353207401S11657242EA0075800839000000000000
B0550393207339S11657256EA0077000851000000000000
B0550433207350S11657286EA0077700856000000000000
B0550473207385S11657251EA0077700859000000000000
B0550513207384S11657174EA0078400868000000000000
B0550553207332S11657124EA0079000870000000000000
B0550593207284S11657153EA0079000872000000000000
B0551033207289S11657194EA0079500878000000000000
B0551073207326S11657183EA0079700880000000000000
B0551113207334S11657112EA0080400884000000000000
B0551153207287S11657047EA0080700890000000000000
B0551193207221S11657040EA0081100891000000000000
B0551233207193S11657085EA0080900889000000000000
B0551273207222S11657108EA0081300895000000000000
B0551313207261S11657079EA0081600896000000000000
B0551353207268S11656999EA0081100893000000000000
B0551393207259S11656906EA0080600887000000000000
B0551433207265S11656815EA0080800894000000000000
B0551473207293S11656736EA0081800904000000000000
B0551513207284S11656653EA0082900914000000000000
B0551553207220S11656624EA0082300906000000000000
B0551593207190S11656663EA0081200893000000000000
B0552033207215S11656702EA0079700882000000000000
B0552073207248S11656741EA0079700887000000000000
B0552113207286S11656767EA0080000886000000000000
B0552153207319S11656710EA0080200884000000000000
B0552193207287S11656630EA0080100887000000000000
B0552233207225S11656619EA0080200885000000000000
B0552273207215S11656670EA0078600869000000000000
B0552313207242S11656715EA0077900861000000000000
B0552353207277S11656757EA0077400855000000000000
B0552393207316S11656801EA0076300844000000000000
B0552433207355S11656848EA0076200847000000000000
B0552473207386S11656899EA0076600851000000000000
B0552513207416S11656947EA0077200858000000000000
B0552553207459S11656961EA0078600868000000000000
B0552593207472S11656888EA0079800883000000000000
B0553033207415S11656831EA0080200885000000000000
B0553073207359S11656844EA0079400877000000000000
B0553113207358S11656891EA0079000875000000000000
B0553153207389S11656930EA0078600872000000000000
B0553193207433S11656918EA0079900895000000000000
B0553233207406S11656836EA0081700907000000000000
B0553273207342S11656835EA0082200915000000000000
B0553313207337S11656875EA0083200926000000000000
B0553353207375S11656852EA0084300934000000000000
B0553393207355S11656769EA0085000939000000000000
B0553433207289S11656753EA0085500946000000000000
B0553473207274S11656801EA0086100949000000000000
B0553513207315S11656800EA0087200966000000000000
B0553553207333S11656730EA0088600978000000000000
B0553593207289S11656658EA0088900976000000000000
B0554033207226S11656669EA0089300985000000000000
B0554073207224S11656715EA0090200992000000000000
B0554113207263S11656706EA0091401005000000000000
B0554153207267S11656624EA0092201013000000000000
B0554193207206S11656578EA0092801020000000000000
B0554233207167S11656611EA0094101032000000000000
B0554273207185S11656643EA0094901040000000000000
B0554313207216S11656589EA0094901035000000000000
B0554353207176S11656510EA0096101055000000000000
B0554393207113S11656505EA0097301064000000000000
B0554433207096S11656553EA0097601063000000000000
B0554473207135S11656571EA0098301074000000000000
B0554513207165S11656513EA0100501095000000000000
B0554553207135S11656437EA0101401103000000000000
B0554593207070S11656415EA0101701109000000000000
B0555033207034S11656453EA0102601120000000000000
B0555073207046S11656496EA0103501126000000000000
B0555113207087S11656484EA0104501140000000000000
B0555153207103S11656418EA0105801151000000000000
B0555193207065S11656346EA0106401159000000000000
B0555233207005S11656332EA0107901171000000000000
B0555273206978S11656376EA0108301175000000000000
B0555313207004S11656399EA0109601188000000000000
B0555353207042S11656364EA0110101191000000000000
B0555393207042S11656282EA0110301195000000000000
B0555433206990S11656225EA0111401210000000000000
B0555473206943S11656253EA0112301216000000000000
B0555513206960S11656292EA0113001226000000000000
B0555553206999S11656258EA0114001237000000000000
B0555593206995S11656178EA0114601242000000000000
B0556033206939S11656138EA0115301251000000000000
B0556073206903S11656175EA0116501262000000000000
B0556113206923S11656207EA0117401270000000000000
B0556153206965S11656171EA0117501268000000000000
B0556193206955S11656091EA0118301281000000000000
B0556233206896S11656059EA0118901284000000000000
B0556273206852S11656094EA0119501292000000000000
B0556313206862S11656136EA0120501300000000000000
B0556353206909S11656120EA0120601295000000000000
B0556393206920S11656039EA0120501301000000000000
B0556433206865S11655991EA0121501311000000000000
B0556473206818S11656020EA0121901315000000000000
B0556513206825S11656065EA0122401319000000000000
B0556553206870S11656069EA0122501318000000000000
B0556593206907S11656011EA0121901307000000000000
B0557033206891S11655921EA0120701301000000000000
B0557073206839S11655855EA0121001305000000000000
B0557113206782S11655870EA0121401310000000000000
B0557153206764S11655921EA0122001315000000000000
B0557193206777S11655973EA0121501307000000000000
B0557233206809S11656022EA0120001292000000000000
B0557273206851S11656072EA0118801280000000000000
B0557313206891S11656121EA0118101275000000000000
B0557353206939S11656172EA0117301267000000000000
B0557393206990S11656217EA0117001264000000000000
B0557433207042S11656264EA0116401259000000000000
B0557473207090S11656315EA0116001256000000000000
B0557513207135S11656366EA0116101257000000000000
B0557553207181S11656414EA0115801251000000000000
B0557593207228S11656461EA0115101247000000000000
B0558033207276S11656503EA0115201245000000000000
B0558073207325S11656541EA0114901240000000000000
B0558113207376S11656574EA0114501239000000000000
B0558153207428S11656601EA0114801242000000000000
B0558193207477S11656624EA0114901241000000000000
B0558233207529S11656649EA0114601236000000000000
B0558273207579S11656684EA0113501222000000000000
B0558313207631S11656724EA0112801220000000000000
B0558353207681S11656763EA0112601216000000000000
B0558393207722S11656812EA0112301213000000000000
B0558433207724S11656873EA0112401213000000000000
B0558473207690S11656929EA0111601199000000000000
B0558513207628S11656971EA0109701180000000000000
B0558553207550S11656999EA0108101169000000000000
B0558593207464S11657013EA0107201160000000000000
B0559033207375S11657018EA0106501154000000000000
B0559073207282S11657020EA0105901149000000000000
B0559113207190S11657016EA0105601148000000000000
B0559153207100S11657009EA0105801149000000000000
B0559193207012S11656995EA0105701146000000000000
B0559233206923S11656982EA0105001135000000000000
B0559273206831S11656973EA0103601124000000000000
B0559313206738S11656969EA0103301121000000000000
B0559353206645S11656968EA0103401123000000000000
B0559393206569S11656990EA0104401136000000000000
B0559433206543S11657039EA0106001149000000000000
B0559473206565S11657075EA0106601150000000000000
B0559513206604S11657098EA0105201138000000000000
B0559553206631S11657135EA0104101129000000000000
B0559593206619S11657187EA0104301135000000000000
B0600033206584S11657234EA0102801117000000000000
B0600073206523S11657274EA0101201094000000000000
B0600113206441S11657300EA0099101076000000000000
B0600153206353S11657312EA0098201070000000000000
B0600193206263S11657313EA0097501063000000000000
B0600233206172S11657309EA0097301061000000000000
B0600273206081S11657300EA0097001060000000000000
B0600313205999S11657304EA0098301075000000000000
B0600353205972S11657350EA0099801082000000000000
B0600393206013S11657364EA0099101067000000000000
B0600433206062S11657296EA0097601060000000000000
B0600473206073S11657195EA0097601062000000000000
B0600513206065S11657087EA0096601050000000000000
B0600553206042S11656978EA0096201049000000000000
B0600593205985S11656900EA0097201061000000000000
B0601033205916S11656903EA0097001053000000000000
B0601073205843S11656923EA0095401029000000000000
B0601113205759S11656943EA0092701004000000000000
B0601153205666S11656956EA0090800989000000000000
B0601193205574S11656968EA0090100988000000000000
B0601233205482S11656979EA0090400992000000000000
B0601273205400S11657004EA0091801007000000000000
B0601313205391S11657066EA0092901014000000000000
B0601353205443S11657078EA0092801010000000000000
B0601393205470S11657000EA0092601008000000000000
B0601433205425S11656921EA0092001002000000000000
B0601473205347S11656880EA0091300995000000000000
B0601513205263S11656858EA0090700991000000000000
B0601553205179S11656844EA0090500991000000000000
B0601593205096S11656831EA0090700994000000000000
B0602033205019S11656839EA0092101013000000000000
B0602073205011S11656886EA0094801036000000000000
B0602113205051S11656849EA0095101034000000000000
B0602153205023S11656769EA0095301039000000000000
B0602193204959S11656765EA0097001061000000000000
B0602233204962S11656809EA0098401069000000000000
B0602273205003S11656779EA0098301064000000000000
B0602313204997S11656689EA0098401074000000000000
B0602353204934S11656657EA0100501098000000000000
B0602393204907S11656700EA0102201112000000000000
B0602433204940S11656722EA0102801114000000000000
B0602473204976S11656665EA0102501111000000000000
B0602513204941S11656578EA0102701116000000000000
B0602553204877S11656574EA0104301134000000000000
B0602593204886S11656617EA0105501144000000000000
B0603033204934S11656587EA0106101151000000000000
B0603073204919S11656500EA0106901163000000000000
B0603113204859S11656506EA0108301176000000000000
B0603153204880S11656536EA0110001193000000000000
B0603193204920S11656489EA0110901200000000000000
B0603233204911S11656401EA0111201203000000000000
B0603273204845S11656363EA0112101224000000000000
B0603313204819S11656399EA0114601245000000000000
B0603353204856S11656402EA0115801255000000000000
B0603393204873S11656327EA0116901265000000000000
B0603433204824S11656264EA0117801278000000000000
B0603473204778S11656289EA0119501295000000000000
B0603513204804S11656314EA0121001307000000000000
B0603553204842S11656263EA0122101319000000000000
B0603593204824S11656177EA0122801328000000000000
B0604033204760S11656146EA0123901341000000000000
B0604073204733S11656186EA0125501357000000000000
B0604113204769S11656195EA0127001370000000000000
B0604153204798S11656132EA0128401383000000000000
B0604193204765S11656058EA0129201391000000000000
B0604233204704S11656056EA0130101404000000000000
B0604273204698S11656098EA0132001419000000000000
B0604313204742S11656087EA0132501424000000000000
B0604353204755S11656008EA0133901442000000000000
B0604393204706S11655948EA0135101453000000000000
B0604433204659S11655972EA0136701470000000000000
B0604473204677S11656003EA0138201483000000000000
B0604513204723S11655972EA0138901491000000000000
B0604553204723S11655890EA0139501499000000000000
B0604593204664S11655840EA0140401514000000000000
B0605033204622S11655866EA0142101529000000000000
B0605073204643S11655895EA0143301540000000000000
B0605113204687S11655860EA0144101547000000000000
B0605153204686S11655778EA0145201561000000000000
B0605193204634S11655722EA0146301568000000000000
B0605233204577S11655735EA0146701571000000000000
B0605273204568S11655783EA0148101590000000000000
B0605313204604S11655798EA0149601600000000000000
B0605353204638S11655739EA0150201607000000000000
B0605393204603S11655662EA0150501610000000000000
B0605433204539S11655655EA0151301621000000000000
B0605473204509S11655696EA0152501631000000000000
B0605513204534S11655730EA0153301638000000000000
B0605553204582S11655703EA0153601642000000000000
B0605593204589S11655619EA0154301651000000000000
B0606033204538S11655564EA0155301662000000000000
B0606073204492S11655587EA0156601674000000000000
B0606113204508S11655622EA0157701681000000000000
B0606153204557S11655599EA0157401678000000000000
B0606193204573S11655519EA0158701695000000000000
B0606233204531S11655456EA0159401699000000000000
B0606273204474S11655461EA0159901706000000000000
B0606313204474S11655502EA0161001717000000000000
B0606353204520S11655492EA0162101728000000000000
B0606393204544S11655424EA0163001736000000000000
B0606433204517S11655348EA0163101737000000000000
B0606473204456S11655324EA0163601747000000000000
B0606513204427S11655362EA0164801755000000000000
B0606553204453S11655388EA0165801766000000000000
B0606593204498S11655354EA0166001765000000000000
B0607033204512S11655274EA0166201772000000000000
B0607073204478S11655198EA0167001778000000000000
B0607113204421S11655181EA0167601785000000000000
B0607153204395S11655220EA0167901784000000000000
B0607193204411S11655267EA0167501782000000000000
B0607233204456S11655293EA0167301783000000000000
B0607273204511S11655268EA0167901792000000000000
B0607313204504S11655188EA0168701793000000000000
B0607353204440S11655150EA0168101789000000000000
B0607393204366S11655137EA0167801788000000000000
B0607433204290S11655138EA0167701783000000000000
B0607473204208S11655146EA0166301766000000000000
B0607513204118S11655158EA0163901741000000000000
B0607553204026S11655172EA0162701733000000000000
B0607593203936S11655188EA0161901724000000000000
B0608033203848S11655207EA0161201720000000000000
B0608073203767S11655228EA0161801729000000000000
B0608113203696S11655248EA0162701730000000000000
B0608153203627S11655266EA0162501723000000000000
B0608193203553S11655284EA0160901706000000000000
B0608233203473S11655304EA0160101702000000000000
B0608273203397S11655322EA0160701714000000000000
B0608313203324S11655340EA0161301716000000000000
B0608353203251S11655357EA0161501715000000000000
B0608393203178S11655379EA0160801710000000000000
B0608433203104S11655401EA0160801711000000000000
B0608473203030S11655422EA0160601707000000000000
B0608513202953S11655440EA0160301703000000000000
B0608553202874S11655457EA0159401693000000000000
B0608593202797S11655480EA0158501681000000000000
B0609033202719S11655508EA0157401671000000000000
B0609073202643S11655534EA0156401662000000000000
B0609113202565S11655561EA0155501652000000000000
B0609153202484S11655586EA0154701647000000000000
B0609193202405S11655609EA0154401644000000000000
B0609233202327S11655629EA0154301642000000000000
B0609273202250S11655647EA0154401644000000000000
B0609313202176S11655664EA0154501642000000000000
B0609353202100S11655681EA0154201637000000000000
B0609393202026S11655695EA0153901638000000000000
B0609433201952S11655710EA0154201642000000000000
B0609473201878S11655725EA0154201641000000000000
B0609513201804S11655734EA0154201638000000000000
B0609553201730S11655738EA0154101639000000000000
B0609593201655S11655738EA0153901634000000000000
B0610033201580S11655740EA0153501631000000000000
B0610073201506S11655742EA0153201626000000000000
B0610113201432S11655744EA0152701623000000000000
B0610153201358S11655747EA0152401618000000000000
B0610193201285S11655751EA0151701611000000000000
B0610233201211S11655753EA0150801603000000000000
B0610273201137S11655756EA0150101595000000000000
B0610313201062S11655759EA0149301586000000000000
B0610353200985S11655760EA0148501576000000000000
B0610393200907S11655761EA0147501566000000000000
B0610433200828S11655762EA0146401558000000000000
B0610473200751S11655761EA0146201555000000000000
B0610513200674S11655761EA0145601549000000000000
B0610553200599S11655764EA0145201545000000000000
B0610593200525S11655766EA0144701538000000000000
B0611033200449S11655769EA0143801529000000000000
B0611073200374S11655769EA0143001518000000000000
B0611113200295S11655766EA0142001514000000000000
B0611153200218S11655761EA0141701509000000000000
B0611193200140S11655759EA0141401504000000000000
B0611233200062S11655756EA0140701495000000000000
B0611273159981S11655755EA0139901488000000000000
B0611313159900S11655756EA0138801477000000000000
B0611353159818S11655757EA0137801467000000000000
B0611393159733S11655756EA0137101460000000000000
B0611433159650S11655756EA0136401452000000000000
B0611473159567S11655756EA0135701445000000000000
B0611513159482S11655756EA0135201440000000000000
B0611553159400S11655759EA0134601434000000000000
B0611593159320S11655770EA0134201431000000000000
B0612033159240S11655790EA0133501423000000000000
B0612073159165S11655816EA0132901417000000000000
B0612113159087S11655840EA0132501413000000000000
B0612153159009S11655865EA0131701404000000000000
B0612193158931S11655895EA0130901393000000000000
B0612233158853S11655928EA0129801388000000000000
B0612273158775S11655956EA0129701386000000000000
B0612313158697S11655983EA0129501384000000000000
B0612353158618S11656011EA0128901377000000000000
B0612393158538S11656039EA0128201372000000000000
B0612433158459S11656067EA0127901371000000000000
B0612473158381S11656094EA0128201373000000000000
B0612513158301S11656121EA0128201372000000000000
B0612553158223S11656151EA0128701381000000000000
B0612593158167S11656199EA0130201398000000000000
B0613033158176S11656249EA0131601409000000000000
B0613073158221S11656234EA0132501418000000000000
B0613113158219S11656151EA0133601432000000000000
B0613153158156S11656099EA0134201434000000000000
B0613193158091S11656115EA0134101433000000000000
B0613233158076S11656165EA0134301430000000000000
B0613273158117S11656176EA0133901429000000000000
B0613313158141S11656104EA0134301438000000000000
B0613353158103S11656021EA0134801443000000000000
B0613393158028S11656007EA0135201444000000000000
B0613433157974S11656042EA0135201441000000000000
B0613473157969S11656094EA0133801425000000000000
B0613513158011S11656123EA0133201424000000000000
B0613553158056S11656091EA0134001430000000000000
B0613593158030S11656008EA0134301434000000000000
B0614033157956S11655983EA0134401435000000000000
B0614073157881S11656004EA0133601422000000000000
B0614113157799S11656033EA0131501399000000000000
B0614153157716S11656074EA0129401382000000000000
B0614193157634S11656121EA0128001370000000000000
B0614233157553S11656173EA0126801359000000000000
B0614273157475S11656227EA0126101355000000000000
B0614313157400S11656280EA0126501361000000000000
B0614353157329S11656334EA0126501358000000000000
B0614393157261S11656394EA0125701350000000000000
B0614433157194S11656451EA0125801353000000000000
B0614473157128S11656506EA0125501346000000000000
B0614513157060S11656559EA0124601337000000000000
B0614553156991S11656607EA0123901329000000000000
B0614593156919S11656650EA0123501322000000000000
B0615033156846S11656695EA0122501313000000000000
B0615073156770S11656737EA0121701307000000000000
B0615113156694S11656782EA0120901298000000000000
B0615153156617S11656826EA0120001290000000000000
B0615193156539S11656869EA0119401282000000000000
B0615233156461S11656909EA0118801278000000000000
B0615273156382S11656947EA0118201272000000000000
B0615313156305S11656983EA0118901280000000000000
B0615353156240S11657027EA0119501283000000000000
B0615393156172S11657073EA0118301268000000000000
B0615433156104S11657121EA0116701251000000000000
B0615473156036S11657170EA0115701241000000000000
B0615513155970S11657221EA0114601232000000000000
B0615553155901S11657269EA0113701218000000000000
B0615593155829S11657316EA0112901214000000000000
B0616033155763S11657361EA0112501207000000000000
B0616073155693S11657410EA0111701200000000000000
B0616113155624S11657459EA0112001206000000000000
B0616153155594S11657521EA0113901228000000000000
B0616193155639S11657533EA0115401236000000000000
B0616233155656S11657449EA0115901244000000000000
B0616273155613S11657369EA0116201248000000000000
B0616313155552S11657306EA0116101247000000000000
B0616353155483S11657257EA0116301249000000000000
B0616393155408S11657226EA0116901256000000000000
B0616433155346S11657247EA0117901266000000000000
B0616473155360S11657293EA0118301269000000000000
B0616513155404S11657250EA0118301272000000000000
B0616553155379S11657168EA0119501287000000000000
B0616593155313S11657144EA0120401292000000000000
B0617033155278S11657187EA0120301290000000000000
B0617073155320S11657211EA0121401305000000000000
B0617113155353S11657152EA0122201311000000000000
B0617153155326S11657072EA0122201313000000000000
B0617193155256S11657052EA0122801318000000000000
B0617233155230S11657100EA0122801319000000000000
B0617273155279S11657117EA0124001333000000000000
B0617313155313S11657051EA0124801338000000000000
B0617353155272S11656975EA0125101343000000000000
B0617393155200S11656964EA0125301346000000000000
B0617433155175S11657009EA0126201361000000000000
B0617473155214S11657029EA0127301363000000000000
B0617513155256S11656977EA0127901373000000000000
B0617553155242S11656899EA0128301371000000000000
B0617593155183S11656839EA0127701369000000000000
B0618033155113S11656795EA0127601365000000000000
B0618073155039S11656784EA0126901360000000000000
B0618113154962S11656793EA0126901361000000000000
B0618153154887S11656810EA0126701359000000000000
B0618193154813S11656836EA0126401355000000000000
B0618233154736S11656869EA0125101338000000000000
B0618273154663S11656912EA0124001329000000000000
B0618313154594S11656958EA0123301319000000000000
B0618353154529S11657012EA0122501312000000000000
B0618393154463S11657066EA0121501304000000000000
B0618433154395S11657117EA0120801296000000000000
B0618473154324S11657165EA0119701283000000000000
B0618513154251S11657213EA0118001267000000000000
B0618553154177S11657263EA0116801256000000000000
B0618593154103S11657311EA0116001248000000000000
B0619033154025S11657354EA0115401240000000000000
B0619073153943S11657394EA0114401225000000000000
B0619113153856S11657430EA0113601220000000000000
B0619153153770S11657468EA0113101215000000000000
B0619193153683S11657506EA0112501206000000000000
B0619233153596S11657546EA0111501200000000000000
B0619273153513S11657585EA0111901206000000000000
B0619313153431S11657618EA0111901205000000000000
B0619353153349S11657647EA0111501195000000000000
B0619393153271S11657685EA0110201180000000000000
B0619433153190S11657725EA0108801169000000000000
B0619473153110S11657764EA0108101163000000000000
B0619513153029S11657801EA0107201151000000000000
B0619553152946S11657833EA0106301145000000000000
B0619593152864S11657866EA0105501137000000000000
B0620033152782S11657896EA0104701127000000000000
B0620073152700S11657923EA0104001121000000000000
B0620113152620S11657945EA0103501117000000000000
B0620153152542S11657966EA0103801119000000000000
B0620193152466S11657988EA0103501114000000000000
B0620233152392S11658010EA0103101112000000000000
B0620273152321S11658034EA0103001112000000000000
B0620313152256S11658065EA0103001107000000000000
B0620353152196S11658106EA0101501095000000000000
B0620393152131S11658145EA0100301083000000000000
B0620433152062S11658179EA0099701076000000000000
B0620473151992S11658212EA0099301071000000000000
B0620513151925S11658248EA0099101071000000000000
B0620553151860S11658290EA0098201058000000000000
B0620593151794S11658333EA0097301054000000000000
B0621033151732S11658373EA0097601057000000000000
B0621073151681S11658418EA0097701055000000000000
B0621113151660S11658478EA0097901059000000000000
B0621153151658S11658541EA0098101062000000000000
B0621193151656S11658603EA0097901057000000000000
B0621233151677S11658663EA0097601057000000000000
B0621273151704S11658717EA0097901062000000000000
B0621313151737S11658765EA0098401064000000000000
B0621353151772S11658815EA0098401062000000000000
B0621393151819S11658847EA0099201072000000000000
B0621433151856S11658782EA0101101088000000000000
B0621473151811S11658713EA0101501092000000000000
B0621513151751S11658725EA0101801094000000000000
B0621553151754S11658775EA0102201104000000000000
B0621593151799S11658743EA0103201113000000000000
B0622033151785S11658654EA0103301115000000000000
B0622073151717S11658628EA0103701119000000000000
B0622113151677S11658672EA0103901120000000000000
B0622153151706S11658708EA0104101124000000000000
B0622193151749S11658651EA0104501127000000000000
B0622233151719S11658565EA0104501129000000000000
B0622273151650S11658546EA0105301135000000000000
B0622313151607S11658589EA0105001131000000000000
B0622353151630S11658630EA0105701141000000000000
B0622393151668S11658585EA0106801149000000000000
B0622433151645S11658496EA0106101142000000000000
B0622473151587S11658422EA0105601142000000000000
B0622513151518S11658426EA0106101143000000000000
B0622553151507S11658479EA0105601139000000000000
B0622593151535S11658530EA0105101132000000000000
B0623033151574S11658577EA0104901138000000000000
B0623073151617S11658619EA0106001147000000000000
B0623113151672S11658621EA0107501164000000000000
B0623153151672S11658542EA0108701169000000000000
B0623193151607S11658515EA0108301167000000000000
B0623233151576S11658563EA0109201182000000000000
B0623273151609S11658586EA0110701196000000000000
B0623313151639S11658526EA0111601201000000000000
B0623353151602S11658453EA0111101196000000000000
B0623393151538S11658457EA0111501203000000000000
B0623433151541S11658504EA0112801216000000000000
B0623473151585S11658463EA0114101228000000000000
B0623513151565S11658377EA0115001238000000000000
B0623553151498S11658344EA0115001239000000000000
B0623593151466S11658387EA0116301258000000000000
B0624033151505S11658390EA0118101270000000000000
B0624073151512S11658309EA0118501276000000000000
B0624113151455S11658256EA0119001282000000000000
B0624153151400S11658278EA0119501283000000000000
B0624193151412S11658321EA0120001296000000000000
B0624233151456S11658283EA0121101305000000000000
B0624273151439S11658199EA0121901312000000000000
B0624313151375S11658179EA0122701319000000000000
B0624353151361S11658226EA0123201326000000000000
B0624393151404S11658232EA0123701332000000000000
B0624433151427S11658164EA0124701344000000000000
B0624473151381S11658099EA0125201349000000000000
B0624513151322S11658110EA0126001355000000000000
B0624553151313S11658160EA0125701351000000000000
B0624593151353S11658193EA0125101347000000000000
B0625033151409S11658178EA0126801369000000000000
B0625073151396S11658096EA0128101382000000000000
B0625113151330S11658069EA0128701387000000000000
B0625153151303S11658112EA0129301394000000000000
B0625193151344S11658125EA0130501407000000000000
B0625233151377S11658061EA0131201411000000000000
B0625273151347S11657976EA0131401412000000000000
B0625313151274S11657954EA0131401413000000000000
B0625353151251S11658008EA0131801420000000000000
B0625393151297S11658024EA0133101433000000000000
B0625433151338S11657962EA0134301441000000000000
B0625473151317S11657871EA0134601443000000000000
B0625513151247S11657831EA0134801447000000000000
B0625553151191S11657863EA0135301448000000000000
B0625593151195S11657918EA0135501451000000000000
B0626033151232S11657962EA0135101447000000000000
B0626073151288S11657962EA0136001464000000000000
B0626113151300S11657881EA0137701475000000000000
B0626153151238S11657837EA0138201479000000000000
B0626193151199S11657881EA0138601485000000000000
B0626233151236S11657909EA0139401499000000000000
B0626273151275S11657854EA0141001513000000000000
B0626313151252S11657772EA0142101521000000000000
B0626353151184S11657745EA0142301520000000000000
B0626393151140S11657785EA0142701525000000000000
B0626433151158S11657828EA0143601537000000000000
B0626473151205S11657806EA0145201551000000000000
B0626513151209S11657727EA0146001560000000000000
B0626553151153S11657677EA0146401563000000000000
B0626593151099S11657697EA0146901566000000000000
B0627033151095S11657749EA0146701566000000000000
B0627073151131S11657788EA0146901573000000000000
B0627113151177S11657750EA0148001582000000000000
B0627153151144S11657672EA0148801590000000000000
B0627193151080S11657680EA0149401595000000000000
B0627233151095S11657725EA0150501610000000000000
B0627273151143S11657693EA0152001624000000000000
B0627313151143S11657610EA0152701627000000000000
B0627353151080S11657564EA0153001633000000000000
B0627393151027S11657594EA0153701637000000000000
B0627433151035S11657647EA0154301644000000000000
B0627473151084S11657649EA0155501659000000000000
B0627513151114S11657580EA0156901668000000000000
B0627553151082S11657502EA0157001672000000000000
B0627593151011S11657484EA0156901670000000000000
B0628033150959S11657524EA0157301675000000000000
B0628073150966S11657577EA0158401690000000000000
B0628113151011S11657562EA0159801699000000000000
B0628153151019S11657478EA0159901703000000000000
B0628193150962S11657420EA0160601710000000000000
B0628233150898S11657436EA0160801708000000000000
B0628273150878S11657494EA0160801710000000000000
B0628313150904S11657543EA0160501708000000000000
B0628353150956S11657580EA0160701710000000000000
B0628393151014S11657567EA0161901719000000000000
B0628433151011S11657477EA0162501725000000000000
B0628473150943S11657433EA0162801727000000000000
B0628513150865S11657445EA0162201720000000000000
B0628553150785S11657475EA0161601714000000000000
B0628593150706S11657516EA0160701706000000000000
B0629033150627S11657563EA0159801700000000000000
B0629073150553S11657614EA0159601697000000000000
B0629113150477S11657666EA0158901690000000000000
B0629153150400S11657719EA0157901680000000000000
B0629193150322S11657768EA0157201674000000000000
B0629233150243S11657814EA0156901670000000000000
B0629273150166S11657857EA0156601667000000000000
B0629313150094S11657901EA0156601668000000000000
B0629353150023S11657945EA0156301662000000000000
B0629393149953S11657993EA0156101662000000000000
B0629433149880S11658044EA0155601656000000000000
B0629473149805S11658097EA0154501644000000000000
B0629513149734S11658152EA0154301646000000000000
B0629553149663S11658201EA0154801650000000000000
B0629593149592S11658247EA0154701647000000000000
B0630033149522S11658295EA0154401638000000000000
B0630073149453S11658347EA0152901624000000000000
B0630113149381S11658404EA0151301606000000000000
B0630153149307S11658464EA0149701595000000000000
B0630193149230S11658521EA0149401592000000000000
B0630233149152S11658577EA0148701585000000000000
B0630273149074S11658630EA0148001574000000000000
B0630313148998S11658682EA0146901567000000000000
B0630353148922S11658732EA0147201572000000000000
B0630393148850S11658776EA0147501573000000000000
B0630433148783S11658820EA0147601574000000000000
B0630473148717S11658863EA0148001580000000000000
B0630513148655S11658902EA0148601581000000000000
B0630553148588S11658942EA0147901572000000000000
B0630593148521S11658983EA0147301568000000000000
B0631033148454S11659022EA0146701563000000000000
B0631073148384S11659059EA0145901553000000000000
B0631113148313S11659100EA0145301548000000000000
B0631153148244S11659137EA0145101544000000000000
B0631193148174S11659176EA0144401534000000000000
B0631233148101S11659219EA0143501530000000000000
B0631273148027S11659262EA0143201528000000000000
B0631313147951S11659302EA0142701521000000000000
B0631353147875S11659339EA0142401520000000000000
B0631393147798S11659374EA0142001513000000000000
B0631433147719S11659409EA0141001500000000000000
B0631473147637S11659441EA0140201496000000000000
B0631513147555S11659473EA0139601487000000000000
B0631553147473S11659504EA0138601476000000000000
B0631593147387S11659532EA0137401465000000000000
B0632033147299S11659556EA0136101452000000000000
B0632073147205S11659578EA0134501434000000000000
B0632113147108S11659594EA0133301426000000000000
B0632153147015S11659600EA0133601430000000000000
B0632193146926S11659599EA0133801427000000000000
B0632233146833S11659595EA0132901418000000000000
B0632273146738S11659588EA0132101406000000000000
B0632313146640S11659583EA0130701398000000000000
B0632353146541S11659578EA0131501415000000000000
B0632393146450S11659588EA0133701430000000000000
B0632433146404S11659647EA0135301450000000000000
B0632473146412S11659713EA0135301438000000000000
B0632513146452S11659769EA0134001427000000000000
B0632553146465S11659837EA0132101402000000000000
B0632593146407S11659890EA0131101396000000000000
B0633033146324S11659903EA0129901382000000000000
B0633073146231S11659895EA0128101364000000000000
B0633113146134S11659880EA0126101348000000000000
B0633153146034S11659860EA0124801337000000000000
B0633193145935S11659839EA0123501324000000000000
B0633233145836S11659817EA0122501313000000000000
B0633273145739S11659792EA0122201310000000000000
B0633313145641S11659766EA0121001293000000000000
B0633353145541S11659743EA0119501279000000000000
B0633393145441S11659720EA0118601271000000000000
B0633433145343S11659696EA0117601262000000000000
B0633473145247S11659672EA0117001255000000000000
B0633513145151S11659651EA0116301250000000000000
B0633553145057S11659629EA0115901245000000000000
B0633593144965S11659603EA0115601243000000000000
B0634033144875S11659577EA0115301236000000000000
B0634073144783S11659551EA0114701230000000000000
B0634113144693S11659523EA0114101226000000000000
B0634153144604S11659492EA0113601220000000000000
B0634193144513S11659461EA0113101216000000000000
B0634233144422S11659430EA0112501210000000000000
B0634273144331S11659399EA0112001204000000000000
B0634313144240S11659369EA0111401195000000000000
B0634353144150S11659336EA0110601185000000000000
B0634393144062S11659302EA0110101185000000000000
B0634433143976S11659274EA0109601177000000000000
B0634473143890S11659256EA0108901169000000000000
B0634513143806S11659239EA0108401164000000000000
B0634553143720S11659227EA0107601155000000000000
B0634593143637S11659230EA0107401155000000000000
B0635033143559S11659235EA0107901160000000000000
B0635073143501S11659274EA0107801159000000000000
B0635113143457S11659332EA0107301154000000000000
B0635153143423S11659393EA0107701167000000000000
B0635193143462S11659425EA0110201189000000000000
B0635233143490S11659348EA0111201187000000000000
B0635273143438S11659284EA0110101181000000000000
B0635313143379S11659301EA0110101182000000000000
B0635353143352S11659357EA0109801180000000000000
B0635393143380S11659389EA0110501192000000000000
B0635433143397S11659308EA0109901176000000000000
B0635473143340S11659258EA0110401190000000000000
B0635513143280S11659256EA0110901190000000000000
B0635553143250S11659293EA0110501184000000000000
B0635593143260S11659344EA0108801165000000000000
B0636033143257S11659401EA0107701156000000000000
B0636073143213S11659456EA0107501157000000000000
B0636113143159S11659504EA0107801158000000000000
B0636153143137S11659569EA0107301154000000000000
B0636193143133S11659642EA0106401143000000000000
B0636233143145S11659713EA0105401134000000000000
B0636273143158S11659787EA0104101118000000000000
B0636313143137S11659867EA0103001112000000000000
B0636353143066S11659908EA0103701119000000000000
B0636393142980S11659895EA0103901120000000000000
B0636433142898S11659856EA0103401113000000000000
B0636473142815S11659813EA0102401101000000000000
B0636513142724S11659776EA0101101086000000000000
B0636553142630S11659743EA0099701072000000000000
B0636593142535S11659708EA0098901067000000000000
B0637033142441S11659675EA0098101058000000000000
B0637073142344S11659646EA0097101046000000000000
B0637113142251S11659608EA0096001034000000000000
B0637153142156S11659594EA0095001024000000000000
B0637193142067S11659609EA0094001017000000000000
B0637233141983S11659636EA0093501010000000000000
B0637273141902S11659669EA0093001004000000000000
B0637313141826S11659708EA0092400999000000000000
B0637353141752S11659752EA0091800993000000000000
B0637393141680S11659794EA0091800993000000000000
B0637433141612S11659837EA0091500988000000000000
B0637473141545S11659880EA0090500977000000000000
B0637513141477S11659920EA0089900972000000000000
B0637553141417S11659968EA0089500965000000000000
B0637593141372S11700030EA0089000963000000000000
B0638033141347S11700098EA0089500973000000000000
B0638073141333S11700167EA0089800971000000000000
B0638113141323S11700234EA0089800971000000000000
B0638153141321S11700302EA0089700969000000000000
B0638193141328S11700368EA0088900963000000000000
B0638233141341S11700431EA0088700962000000000000
B0638273141355S11700496EA0087700946000000000000
B0638313141356S11700569EA0086100927000000000000
B0638353141338S11700648EA0084100908000000000000
B0638393141298S11700722EA0083200906000000000000
B0638433141246S11700788EA0084100918000000000000
B0638473141256S11700838EA0086600944000000000000
B0638513141285S11700782EA0087800948000000000000
B0638553141238S11700715EA0087500945000000000000
B0638593141176S11700732EA0087800948000000000000
B0639033141187S11700780EA0088500956000000000000
B0639073141235S11700758EA0088300951000000000000
B0639113141230S11700674EA0088500958000000000000
B0639153141167S11700623EA0088800959000000000000
B0639193141103S11700644EA0089000962000000000000
B0639233141087S11700706EA0088500956000000000000
B0639273141098S11700778EA0086800938000000000000
B0639313141142S11700799EA0087000942000000000000
B0639353141147S11700717EA0086900936000000000000
B0639393141096S11700635EA0085800925000000000000
B0639433141037S11700552EA0084800916000000000000
B0639473140974S11700467EA0084400921000000000000
B0639513140913S11700479EA0086100941000000000000
B0639553140940S11700519EA0086400944000000000000
B0639593140991S11700487EA0086500943000000000000
B0640033141001S11700402EA0086600945000000000000
B0640073140944S11700338EA0086800945000000000000
B0640113140895S11700375EA0087400951000000000000
B0640153140930S11700400EA0087500952000000000000
B0640193140965S11700337EA0087600952000000000000
B0640233140935S11700251EA0087800957000000000000
B0640273140864S11700225EA0088300955000000000000
B0640313140818S11700270EA0087500949000000000000
B0640353140842S11700312EA0087700953000000000000
B0640393140881S11700268EA0088500959000000000000
B0640433140858S11700184EA0088700965000000000000
B0640473140791S11700160EA0089100963000000000000
B0640513140723S11700188EA0087400939000000000000
B0640553140644S11700220EA0084800917000000000000
B0640593140559S11700255EA0083500910000000000000
B0641033140475S11700293EA0082800902000000000000
B0641073140389S11700335EA0082200896000000000000
B0641113140307S11700379EA0082100894000000000000
B0641153140229S11700420EA0081300887000000000000
B0641193140150S11700461EA0080700879000000000000
B0641233140071S11700500EA0080100872000000000000
B0641273139991S11700537EA0079700864000000000000
B0641313139913S11700576EA0078700855000000000000
B0641353139835S11700617EA0078100850000000000000
B0641393139763S11700656EA0078400855000000000000
B0641433139696S11700691EA0078100848000000000000
B0641473139630S11700730EA0077300839000000000000
B0641513139562S11700770EA0075900824000000000000
B0641553139496S11700814EA0074800816000000000000
B0641593139431S11700858EA0074400809000000000000
B0642033139366S11700903EA0073700803000000000000
B0642073139306S11700955EA0073400799000000000000
B0642113139263S11701017EA0072600789000000000000
B0642153139243S11701087EA0071500779000000000000
B0642193139223S11701163EA0070200764000000000000
B0642233139193S11701238EA0068900753000000000000
B0642273139155S11701311EA0067800743000000000000
B0642313139109S11701380EA0067200733000000000000
B0642353139059S11701445EA0066600727000000000000
B0642393139006S11701507EA0065800721000000000000
B0642433138951S11701568EA0065400716000000000000
B0642473138895S11701628EA0065500722000000000000
B0642513138863S11701693EA0067100741000000000000
B0642553138910S11701697EA0069000756000000000000
B0642593138912S11701612EA0069600765000000000000
B0643033138851S11701577EA0070300771000000000000
B0643073138816S11701618EA0070900773000000000000
B0643113138850S11701648EA0071000776000000000000
B0643153138892S11701594EA0071600784000000000000
B0643193138867S11701515EA0072300791000000000000
B0643233138804S11701495EA0072500791000000000000
B0643273138772S11701541EA0072200786000000000000
B0643313138802S11701584EA0072100789000000000000
B0643353138850S11701545EA0072600793000000000000
B0643393138828S11701459EA0072800796000000000000
B0643433138762S11701449EA0073200803000000000000
B0643473138762S11701495EA0074900818000000000000
B0643513138808S11701479EA0075000820000000000000
B0643553138820S11701394EA0075200820000000000000
B0643593138768S11701324EA0075100822000000000000
B0644033138711S11701349EA0075500826000000000000
B0644073138729S11701399EA0076000832000000000000
B0644113138785S11701375EA0076200833000000000000
B0644153138780S11701286EA0076800842000000000000
B0644193138713S11701260EA0077700848000000000000
B0644233138685S11701312EA0077500843000000000000
B0644273138730S11701330EA0078200851000000000000
B0644313138759S11701256EA0078900862000000000000
B0644353138721S11701176EA0079600870000000000000
B0644393138656S11701161EA0080200871000000000000
B0644433138630S11701213EA0079800868000000000000
B0644473138648S11701268EA0079700870000000000000
B0644513138697S11701235EA0080500877000000000000
B0644553138681S11701148EA0081300889000000000000
B0644593138616S11701116EA0081900890000000000000
B0645033138574S11701156EA0081700889000000000000
B0645073138619S11701157EA0082300899000000000000
B0645113138634S11701077EA0082900901000000000000
B0645153138577S11701018EA0083000906000000000000
B0645193138533S11701056EA0082700900000000000000
B0645233138550S11701113EA0082500902000000000000
B0645273138594S11701089EA0084100922000000000000
B0645313138577S11701003EA0084500926000000000000
B0645353138508S11700977EA0085100932000000000000
B0645393138469S11701020EA0085400934000000000000
B0645433138502S11701050EA0085700940000000000000
B0645473138530S11700991EA0087100954000000000000
B0645513138491S11700918EA0087600957000000000000
B0645553138434S11700923EA0087700959000000000000
B0645593138434S11700970EA0087400956000000000000
B0646033138478S11700949EA0088400967000000000000
B0646073138481S11700868EA0089300971000000000000
B0646113138422S11700814EA0089300974000000000000
B0646153138364S11700832EA0089600975000000000000
B0646193138355S11700884EA0089300972000000000000
B0646233138398S11700890EA0090000983000000000000
B0646273138411S11700814EA0091400996000000000000
B0646313138353S11700770EA0092001001000000000000
B0646353138310S11700803EA0092000999000000000000
B0646393138330S11700840EA0092301004000000000000
B0646433138373S11700808EA0093501016000000000000
B0646473138346S11700726EA0094201026000000000000
B0646513138281S11700715EA0095301036000000000000
B0646553138261S11700761EA0095501039000000000000
B0646593138300S11700762EA0096301049000000000000
B0647033138317S11700684EA0097301060000000000000
B0647073138266S11700614EA0098501070000000000000
B0647113138200S11700611EA0098601069000000000000
B0647153138174S11700660EA0098801070000000000000
B0647193138212S11700683EA0098901073000000000000
B0647233138253S11700622EA0099501081000000000000
B0647273138216S11700543EA0101201100000000000000
B0647313138152S11700546EA0102401110000000000000
B0647353138144S11700593EA0103001115000000000000
B0647393138190S11700576EA0103401120000000000000
B0647433138191S11700488EA0104601134000000000000
B0647473138127S11700440EA0105801144000000000000
B0647513138074S11700467EA0106101147000000000000
B0647553138082S11700514EA0106401149000000000000
B0647593138131S11700493EA0106501154000000000000
B0648033138151S11700409EA0107601166000000000000
B0648073138096S11700349EA0108401177000000000000
B0648113138054S11700388EA0109201182000000000000
B0648153138089S11700413EA0109501185000000000000
B0648193138114S11700340EA0111001204000000000000
B0648233138067S11700267EA0112101211000000000000
B0648273138001S11700267EA0112801217000000000000
B0648313137970S11700314EA0112801216000000000000
B0648353137980S11700366EA0112701211000000000000
B0648393138032S11700355EA0112801215000000000000
B0648433138056S11700272EA0113801227000000000000
B0648473137991S11700224EA0115701248000000000000
B0648513137950S11700264EA0116901255000000000000
B0648553137982S11700296EA0117401262000000000000
B0648593138018S11700242EA0119101280000000000000
B0649033137988S11700160EA0120401292000000000000
B0649073137922S11700153EA0121001299000000000000
B0649113137911S11700201EA0121601306000000000000
B0649153137957S11700190EA0122601318000000000000
B0649193137966S11700108EA0124001331000000000000
B0649233137910S11700045EA0125201341000000000000
B0649273137855S11700069EA0126001350000000000000
B0649313137880S11700097EA0126501356000000000000
B0649353137902S11700029EA0127301364000000000000
B0649393137852S11659963EA0128501378000000000000
B0649433137790S11659971EA0129401384000000000000
B0649473137784S11700019EA0129601384000000000000
B0649513137828S11700016EA0129901391000000000000
B0649553137827S11659934EA0130901399000000000000
B0649593137764S11659898EA0131901412000000000000
B0650033137728S11659938EA0131801408000000000000
B0650073137754S11659981EA0131201406000000000000
B0650113137801S11659952EA0132501419000000000000
B0650153137776S11659869EA0133501428000000000000
B0650193137710S11659868EA0134101433000000000000
B0650233137707S11659919EA0135001439000000000000
B0650273137750S11659903EA0135801450000000000000
B0650313137748S11659824EA0136701461000000000000
B0650353137684S11659779EA0137201465000000000000
B0650393137636S11659809EA0138101476000000000000
B0650433137650S11659848EA0138701480000000000000
B0650473137693S11659831EA0138801478000000000000
B0650513137706S11659750EA0138701477000000000000
B0650553137650S11659683EA0139201485000000000000
B0650593137579S11659691EA0139401487000000000000
B0651033137559S11659750EA0139801490000000000000
B0651073137594S11659789EA0139201480000000000000
B0651113137650S11659763EA0139101482000000000000
B0651153137683S11659683EA0139201485000000000000
B0651193137673S11659590EA0140401498000000000000
B0651233137606S11659570EA0141701512000000000000
B0651273137593S11659617EA0142401516000000000000
B0651313137634S11659618EA0142601519000000000000
B0651353137667S11659552EA0142501519000000000000
B0651393137647S11659461EA0142801528000000000000
B0651433137580S11659440EA0144301545000000000000
B0651473137556S11659487EA0145101548000000000000
B0651513137595S11659503EA0145001547000000000000
B0651553137628S11659439EA0145401554000000000000
B0651593137595S11659356EA0146001557000000000000
B0652033137521S11659327EA0146301562000000000000
B0652073137467S11659363EA0146601564000000000000
B0652113137472S11659418EA0146601561000000000000
B0652153137516S11659401EA0146801565000000000000
B0652193137507S11659322EA0146901564000000000000
B0652233137438S11659295EA0146101554000000000000
B0652273137369S11659328EA0144201531000000000000
B0652313137309S11659392EA0141601508000000000000
B0652353137255S11659467EA0140801500000000000000
B0652393137203S11659545EA0140101495000000000000
B0652433137155S11659623EA0139701493000000000000
B0652473137111S11659699EA0139401489000000000000
B0652513137068S11659777EA0138601481000000000000
B0652553137026S11659856EA0138001476000000000000
B0652593136983S11659933EA0137701474000000000000
B0653033136942S11700003EA0138101479000000000000
B0653073136901S11700072EA0138001470000000000000
B0653113136861S11700142EA0136801458000000000000
B0653153136819S11700215EA0135701450000000000000
B0653193136779S11700286EA0135701450000000000000
B0653233136741S11700357EA0136201455000000000000
B0653273136719S11700427EA0136401453000000000000
B0653313136697S11700501EA0135301440000000000000
B0653353136672S11700575EA0134501437000000000000
B0653393136656S11700648EA0135301444000000000000
B0653433136659S11700717EA0135101439000000000000
B0653473136675S11700786EA0134801439000000000000
B0653513136700S11700849EA0135301443000000000000
B0653553136723S11700910EA0135401444000000000000
B0653593136749S11700973EA0135301439000000000000
B0654033136778S11701035EA0134401432000000000000
B0654073136809S11701096EA0133701423000000000000
B0654113136845S11701157EA0133101420000000000000
B0654153136884S11701216EA0133501425000000000000
B0654193136921S11701273EA0133901427000000000000
B0654233136953S11701333EA0132801407000000000000
B0654273136965S11701412EA0130201384000000000000
B0654313136957S11701502EA0128601372000000000000
B0654353136936S11701592EA0127901368000000000000
B0654393136906S11701674EA0128201374000000000000
B0654433136873S11701753EA0128701372000000000000
B0654473136841S11701833EA0129201382000000000000
B0654513136853S11701900EA0132101416000000000000
B0654553136903S11701875EA0134701433000000000000
B0654593136893S11701794EA0134701432000000000000
B0655033136830S11701763EA0134401432000000000000
B0655073136770S11701796EA0134301433000000000000
B0655113136769S11701853EA0135901450000000000000
B0655153136818S11701844EA0135601441000000000000
B0655193136830S11701759EA0135101443000000000000
B0655233136778S11701696EA0136301456000000000000
B0655273136709S11701683EA0136801458000000000000
B0655313136648S11701711EA0136701459000000000000
B0655353136624S11701771EA0136401451000000000000
B0655393136610S11701846EA0134001424000000000000
B0655433136576S11701930EA0132301419000000000000
B0655473136550S11702012EA0132701422000000000000
B0655513136544S11702092EA0132901421000000000000
B0655553136545S11702174EA0132401422000000000000
B0655593136550S11702253EA0132901421000000000000
B0656033136558S11702334EA0132501418000000000000
B0656073136568S11702409EA0133501431000000000000
B0656113136579S11702477EA0134301434000000000000
B0656153136592S11702542EA0134301428000000000000
B0656193136605S11702611EA0133101417000000000000
B0656233136605S11702689EA0130401392000000000000
B0656273136587S11702775EA0129401384000000000000
B0656313136561S11702854EA0130001393000000000000
B0656353136531S11702929EA0129601384000000000000
B0656393136494S11703002EA0128901376000000000000
B0656433136453S11703072EA0128901377000000000000
B0656473136411S11703139EA0128901376000000000000
B0656513136367S11703205EA0129601386000000000000
B0656553136332S11703274EA0131101409000000000000
B0656593136360S11703313EA0135301449000000000000
B0657033136402S11703266EA0136701450000000000000
B0657073136379S11703188EA0135601442000000000000
B0657113136311S11703176EA0136401456000000000000
B0657153136267S11703217EA0138001470000000000000
B0657193136281S11703261EA0139001481000000000000
B0657233136321S11703215EA0139301481000000000000
B0657273136284S11703140EA0139701490000000000000
B0657313136232S11703163EA0141501507000000000000
B0657353136254S11703204EA0143001525000000000000
B0657393136294S11703166EA0144001531000000000000
B0657433136282S11703080EA0143201523000000000000
B0657473136217S11703046EA0144501544000000000000
B0657513136185S11703088EA0146301563000000000000
B0657553136217S11703114EA0147701574000000000000
B0657593136253S11703057EA0147701574000000000000
B0658033136219S11702981EA0148001581000000000000
B0658073136159S11702981EA0149201596000000000000
B0658113136164S11703027EA0150301603000000000000
B0658153136211S11703005EA0150901606000000000000
B0658193136214S11702923EA0151101610000000000000
B0658233136156S11702870EA0151901620000000000000
B0658273136099S11702892EA0152601628000000000000
B0658313136107S11702940EA0154301646000000000000
B0658353136151S11702920EA0155701655000000000000
B0658393136154S11702841EA0155801658000000000000
B0658433136100S11702782EA0156601668000000000000
B0658473136045S11702799EA0158201682000000000000
B0658513136042S11702847EA0159301694000000000000
B0658553136087S11702836EA0160201702000000000000
B0658593136091S11702758EA0160801710000000000000
B0659033136032S11702712EA0161501719000000000000
B0659073135989S11702750EA0162601731000000000000
B0659113136013S11702785EA0164001742000000000000
B0659153136055S11702740EA0164801752000000000000
B0659193136034S11702662EA0165901761000000000000
B0659233135970S11702643EA0166901772000000000000
B0659273135939S11702689EA0168201786000000000000
B0659313135965S11702725EA0169201795000000000000
B0659353136008S11702688EA0169801799000000000000
B0659393135996S11702606EA0170101805000000000000
B0659433135933S11702574EA0171101814000000000000
B0659473135899S11702624EA0171801825000000000000
B0659513135931S11702660EA0172901836000000000000
B0659553135981S11702624EA0173201832000000000000
B0659593135985S11702534EA0172501829000000000000
B0700033135926S11702465EA0173101837000000000000
B0700073135853S11702457EA0173501842000000000000
B0700113135792S11702498EA0173501836000000000000
B0700153135743S11702565EA0171201808000000000000
B0700193135684S11702647EA0168501786000000000000
B0700233135619S11702734EA0167101776000000000000
B0700273135554S11702818EA0167101776000000000000
B0700313135493S11702890EA0167701784000000000000
B0700353135437S11702959EA0168001781000000000000
B0700393135379S11703027EA0167201771000000000000
B0700433135318S11703094EA0166601769000000000000
B0700473135255S11703156EA0166601769000000000000
B0700513135196S11703215EA0166401767000000000000
B0700553135138S11703271EA0166501769000000000000
B0700593135084S11703323EA0166201761000000000000
B0701033135027S11703374EA0165301753000000000000
B0701073134971S11703425EA0164901748000000000000
B0701113134916S11703474EA0165101744000000000000
B0701153134862S11703521EA0164501739000000000000
B0701193134806S11703569EA0163801731000000000000
B0701233134746S11703617EA0163101725000000000000
B0701273134683S11703665EA0162401718000000000000
B0701313134621S11703715EA0161801712000000000000
B0701353134556S11703765EA0161201705000000000000
B0701393134491S11703816EA0160801699000000000000
B0701433134425S11703867EA0159801688000000000000
B0701473134361S11703923EA0158901680000000000000
B0701513134297S11703977EA0158401676000000000000
B0701553134232S11704029EA0158001672000000000000
B0701593134167S11704079EA0158001673000000000000
B0702033134104S11704125EA0158001673000000000000
B0702073134045S11704172EA0158001672000000000000
B0702113133989S11704219EA0157701669000000000000
B0702153133937S11704268EA0157401666000000000000
B0702193133888S11704319EA0157201663000000000000
B0702233133838S11704370EA0157201665000000000000
B0702273133789S11704417EA0157101665000000000000
B0702313133738S11704463EA0157201664000000000000
B0702353133699S11704521EA0157301665000000000000
B0702393133682S11704586EA0157801667000000000000
B0702433133679S11704654EA0157201662000000000000
B0702473133676S11704727EA0156101650000000000000
B0702513133660S11704804EA0155701644000000000000
B0702553133653S11704879EA0155601643000000000000
B0702593133653S11704955EA0155201640000000000000
B0703033133658S11705031EA0154701636000000000000
B0703073133654S11705111EA0154101629000000000000
B0703113133636S11705190EA0153301624000000000000
B0703153133602S11705264EA0153601629000000000000
B0703193133560S11705329EA0154201633000000000000
B0703233133511S11705388EA0154301634000000000000
B0703273133459S11705441EA0154401635000000000000
B0703313133407S11705494EA0154401635000000000000
B0703353133354S11705548EA0154101632000000000000
B0703393133300S11705600EA0153801628000000000000
B0703433133247S11705653EA0153201621000000000000
B0703473133188S11705704EA0152601616000000000000
B0703513133131S11705752EA0152501617000000000000
B0703553133074S11705798EA0152401615000000000000
B0703593133018S11705845EA0151901605000000000000
B0704033132962S11705891EA0151101602000000000000
B0704073132908S11705931EA0151101601000000000000
B0704113132849S11705969EA0150601595000000000000
B0704153132791S11706008EA0150201588000000000000
B0704193132728S11706051EA0149301582000000000000
B0704233132668S11706097EA0149401587000000000000
B0704273132610S11706146EA0149401584000000000000
B0704313132564S11706207EA0149401587000000000000
B0704353132571S11706270EA0150801597000000000000
B0704393132629S11706269EA0150601591000000000000
B0704433132645S11706186EA0150201588000000000000
B0704473132593S11706134EA0149201578000000000000
B0704513132535S11706155EA0148501574000000000000
B0704553132515S11706216EA0148101573000000000000
B0704593132515S11706286EA0147201559000000000000
B0705033132519S11706363EA0146101552000000000000
B0705073132523S11706441EA0145401544000000000000
B0705113132515S11706526EA0143801527000000000000
B0705153132484S11706611EA0142801523000000000000
B0705193132441S11706686EA0143101524000000000000
B0705233132390S11706755EA0142801516000000000000
B0705273132330S11706819EA0141801507000000000000
B0705313132265S11706877EA0141101506000000000000
B0705353132198S11706932EA0140901501000000000000
B0705393132132S11706984EA0140601501000000000000
B0705433132068S11707035EA0140501495000000000000
B0705473132003S11707084EA0139501486000000000000
B0705513131935S11707130EA0139101481000000000000
B0705553131868S11707173EA0138501476000000000000
B0705593131799S11707217EA0138301469000000000000
B0706033131729S11707258EA0137401462000000000000
B0706073131664S11707299EA0137401466000000000000
B0706113131602S11707336EA0137601463000000000000
B0706153131540S11707375EA0136701450000000000000
B0706193131474S11707417EA0135301440000000000000
B0706233131404S11707456EA0134801434000000000000
B0706273131336S11707496EA0134001426000000000000
B0706313131267S11707539EA0133001415000000000000
B0706353131196S11707583EA0132401409000000000000
B0706393131125S11707631EA0131401400000000000000
B0706433131059S11707683EA0131301403000000000000
B0706473131023S11707751EA0132001408000000000000
B0706513131015S11707824EA0131901404000000000000
B0706553131023S11707899EA0130601392000000000000
B0706593131032S11707982EA0129601380000000000000
B0707033131036S11708067EA0128601369000000000000
B0707073131017S11708154EA0127601357000000000000
B0707113130975S11708237EA0126401347000000000000
B0707153130919S11708310EA0125901343000000000000
B0707193130855S11708371EA0125601342000000000000
B0707233130787S11708424EA0125301338000000000000
B0707273130718S11708473EA0124901334000000000000
B0707313130650S11708515EA0124701333000000000000
B0707353130579S11708556EA0124401329000000000000
B0707393130512S11708595EA0124401328000000000000
B0707433130444S11708631EA0124401328000000000000
B0707473130379S11708666EA0124001323000000000000
B0707513130313S11708703EA0123101313000000000000
B0707553130244S11708739EA0122501308000000000000
B0707593130176S11708774EA0122101302000000000000
B0708033130107S11708813EA0120901287000000000000
B0708073130037S11708853EA0119901280000000000000
B0708113129970S11708896EA0119201274000000000000
B0708153129906S11708942EA0119001269000000000000
B0708193129840S11708986EA0118401263000000000000
B0708233129769S11709029EA0117801255000000000000
B0708273129698S11709071EA0117001249000000000000
B0708313129628S11709113EA0116401242000000000000
B0708353129560S11709159EA0115401233000000000000
B0708393129502S11709211EA0114601224000000000000
B0708433129447S11709269EA0113601211000000000000
B0708473129390S11709323EA0113201213000000000000
B0708513129331S11709368EA0113301208000000000000
B0708553129265S11709405EA0112801205000000000000
B0708593129199S11709442EA0112601202000000000000
B0709033129134S11709481EA0112001197000000000000
B0709073129069S11709520EA0111801194000000000000
B0709113129002S11709559EA0111101189000000000000
B0709153128935S11709597EA0110601181000000000000
B0709193128866S11709636EA0109801170000000000000
B0709233128793S11709672EA0108901165000000000000
B0709273128720S11709709EA0109001169000000000000
B0709313128668S11709758EA0109501175000000000000
B0709353128646S11709821EA0109801175000000000000
B0709393128648S11709887EA0109701176000000000000
B0709433128658S11709952EA0110201181000000000000
B0709473128675S11710013EA0110201179000000000000
B0709513128700S11710072EA0110101180000000000000
B0709553128722S11710133EA0110601183000000000000
B0709593128742S11710191EA0110801185000000000000
B0710033128767S11710251EA0110401174000000000000
B0710073128780S11710322EA0108801160000000000000
B0710113128765S11710397EA0108101156000000000000
B0710153128727S11710463EA0107501149000000000000
B0710193128674S11710520EA0106901143000000000000
B0710233128611S11710564EA0106401141000000000000
B0710273128544S11710598EA0106201137000000000000
B0710313128473S11710625EA0105601131000000000000
B0710353128402S11710647EA0105001124000000000000
B0710393128329S11710668EA0104201114000000000000
B0710433128256S11710689EA0103601109000000000000
B0710473128185S11710711EA0103401106000000000000
B0710513128116S11710735EA0102901101000000000000
B0710553128047S11710759EA0102601098000000000000
B0710593127978S11710783EA0102001093000000000000
B0711033127910S11710811EA0101001083000000000000
B0711073127844S11710845EA0100501079000000000000
B0711113127795S11710893EA0100501077000000000000
B0711153127760S11710950EA0099901068000000000000
B0711193127723S11711011EA0098601056000000000000
B0711233127674S11711071EA0098001052000000000000
B0711273127627S11711131EA0098001053000000000000
B0711313127597S11711200EA0097501047000000000000
B0711353127582S11711275EA0096301032000000000000
B0711393127545S11711353EA0095201026000000000000
B0711433127492S11711424EA0095201023000000000000
B0711473127431S11711489EA0094501011000000000000
B0711513127363S11711543EA0093801013000000000000
B0711553127305S11711596EA0094701022000000000000
B0711593127284S11711661EA0096001036000000000000
B0712033127336S11711672EA0097301047000000000000
B0712073127359S11711593EA0097501044000000000000
B0712113127305S11711528EA0097701047000000000000
B0712153127237S11711526EA0097901050000000000000
B0712193127210S11711576EA0098701061000000000000
B0712233127247S11711602EA0099001059000000000000
B0712273127285S11711535EA0099101058000000000000
B0712313127255S11711455EA0098901060000000000000
B0712353127188S11711440EA0099301066000000000000
B0712393127154S11711489EA0099901072000000000000
B0712433127180S11711530EA0100001073000000000000
B0712473127232S11711495EA0099901068000000000000
B0712513127224S11711409EA0099701071000000000000
B0712553127164S11711370EA0100701082000000000000
B0712593127123S11711404EA0101601090000000000000
B0713033127145S11711444EA0101601086000000000000
B0713073127193S11711413EA0100901081000000000000
B0713113127186S11711333EA0100901084000000000000
B0713153127127S11711296EA0101401089000000000000
B0713193127077S11711327EA0101401089000000000000
B0713233127069S11711388EA0100501078000000000000
B0713273127075S11711459EA0099401065000000000000
B0713313127081S11711534EA0097501042000000000000
B0713353127054S11711612EA0095301017000000000000
B0713393126994S11711674EA0094101012000000000000
B0713433126924S11711721EA0093501005000000000000
B0713473126850S11711756EA0093301003000000000000
B0713513126769S11711782EA0092900997000000000000
B0713553126685S11711799EA0092300995000000000000
B0713593126604S11711819EA0093001002000000000000
B0714033126547S11711863EA0093201004000000000000
B0714073126492S11711914EA0092100986000000000000
B0714113126428S11711963EA0090200964000000000000
B0714153126357S11712007EA0089000958000000000000
B0714193126283S11712049EA0088700957000000000000
B0714233126219S11712097EA0089100961000000000000
B0714273126183S11712162EA0089300961000000000000
B0714313126163S11712235EA0088200946000000000000
B0714353126140S11712313EA0087600944000000000000
B0714393126129S11712389EA0087500940000000000000
B0714433126124S11712467EA0087300941000000000000
B0714473126119S11712544EA0087000934000000000000
B0714513126118S11712622EA0086300925000000000000
B0714553126118S11712703EA0085100916000000000000
B0714593126114S11712783EA0085100923000000000000
B0715033126115S11712861EA0086200932000000000000
B0715073126165S11712869EA0088000935000000000000
B0715113126150S11712782EA0088200931000000000000
B0715153126072S11712753EA0088600936000000015000
B0715193126016S11712789EA0088200935000000015000
B0715233126002S11712854EA0086200916000000000000
B0715273126005S11712930EA0084500901000000000000
B0715313126005S11713008EA0083200887000000000000
B0715353125959S11713080EA0082300877000000000000
B0715393125879S11713116EA0081400871000000000000
B0715433125788S11713129EA0080600864000000000000
B0715473125695S11713129EA0080300864000000000000
B0715513125603S11713117EA0080200863000000000000
B0715553125513S11713102EA0079800858000000000000
B0715593125424S11713085EA0079200853000000000000
B0716033125335S11713073EA0079000849000000000000
B0716073125252S11713085EA0078800847000000000000
B0716113125184S11713128EA0078100838000000000000
B0716153125109S11713167EA0076800825000000000000
B0716193125022S11713185EA0076600830000000000000
B0716233124932S11713185EA0077000832000000000000
B0716273124870S11713223EA0077900842000000000000
B0716313124902S11713249EA0078700847000000000000
B0716353124922S11713172EA0078800847000000000000
B0716393124888S11713084EA0078300844000000000000
B0716433124819S11713041EA0077700837000000000000
B0716473124754S11713064EA0077400831000000000000
B0716513124719S11713121EA0075800814000000000000
B0716553124666S11713172EA0074700806000000000000
B0716593124590S11713189EA0074700808000000000000
B0717033124512S11713181EA0074600802000000000000
B0717073124434S11713147EA0073700795000000000000
B0717113124360S11713094EA0073000785000000000000
B0717153124289S11713032EA0072000777000000000000
B0717193124217S11712961EA0071000765000000000000
B0717233124146S11712890EA0069800757000000000000
B0717273124074S11712820EA0069200753000000000000
B0717313124004S11712750EA0068800744000000000000
B0717353123932S11712678EA0068000738000000000000
B0717393123861S11712610EA0067600733000000000000
B0717433123791S11712544EA0067000725000000000000
B0717473123721S11712479EA0066000716000000000000
B0717513123648S11712418EA0065100710000000000000
B0717553123574S11712363EA0064800707000000000000
B0717593123497S11712314EA0064300702000000000000
B0718033123420S11712275EA0064100696000000000000
B0718073123341S11712245EA0063700693000000000000
B0718113123262S11712227EA0063800695000000000000
B0718153123182S11712227EA0064400701000000000000
B0718193123151S11712274EA0065200707000000000000
B0718233123191S11712270EA0065600709000000000000
B0718273123202S11712193EA0065200706000000000000
B0718313123147S11712132EA0065100712000000000000
B0718353123103S11712168EA0065000712000000000000
B0718393123141S11712181EA0065400714000000000000
B0718433123168S11712114EA0065500715000000000000
B0718473123126S11712035EA0065200718000000000000
B0718513123068S11712053EA0065600733000000000000
B0718553123093S11712077EA0066900746000000000000
B0718593123117S11712019EA0066800738000000000000
B0719033123074S11711944EA0066700745000000000000
B0719073123011S11711959EA0067300755000000015000
B0719113123030S11711997EA0067400755000000015000
B0719153123058S11711933EA0068000759000000015000
B0719193123012S11711863EA0068400770000000015000
B0719233122957S11711885EA0068500762000000015000
B0719273122986S11711924EA0068200763000000015000
B0719313123002S11711853EA0068900760000000015000
B0719353122937S11711807EA0069200781000000030000
B0719393122905S11711858EA0069600776000000015000
B0719433122941S11711885EA0068900765000000015000
B0719473122941S11711801EA0069400764000000015000
B0719513122866S11711780EA0070100769000000015000
B0719553122856S11711837EA0069900761000000015000
B0719593122903S11711814EA0069600760000000015000
B0720033122882S11711725EA0070300771000000015000
B0720073122811S11711706EA0071400775000000015000
B0720113122805S11711756EA0070800765000000015000
B0720153122844S11711712EA0070700768000000015000
B0720193122800S11711641EA0071400776000000015000
B0720233122739S11711664EA0072100780000000015000
B0720273122749S11711711EA0071700771000000015000
B0720313122804S11711698EA0070200760000000000000
B0720353122843S11711632EA0070600767000000000000
B0720393122825S11711547EA0072000777000000000000
B0720433122755S11711530EA0072200777000000000000
B0720473122753S11711578EA0072900788000000000000
B0720513122788S11711538EA0073400789000000000000
B0720553122755S11711459EA0073000792000000000000
B0720593122684S11711448EA0074200807000000000000
B0721033122671S11711499EA0074700806000000000000
B0721073122716S11711478EA0075100814000000000000
B0721113122707S11711400EA0076300823000000000000
B0721153122644S11711372EA0076700830000000000000
B0721193122610S11711417EA0076600827000000000000
B0721233122642S11711442EA0076900832000000000000
B0721273122660S11711373EA0077800839000000000000
B0721313122606S11711317EA0077700840000000000000
B0721353122548S11711343EA0078500850000000000000
B0721393122554S11711386EA0079000857000000000000
B0721433122592S11711353EA0079700860000000000000
B0721473122582S11711270EA0079600857000000000000
B0721513122517S11711222EA0080100865000000000000
B0721553122460S11711252EA0080700869000000000000
B0721593122458S11711310EA0080400865000000000000
B0722033122501S11711320EA0080800873000000000000
B0722073122522S11711249EA0082200884000000000000
B0722113122486S11711170EA0082400890000000000000
B0722153122414S11711143EA0082900899000000000000
B0722193122361S11711180EA0083100898000000000000
B0722233122369S11711232EA0083200899000000000000
B0722273122414S11711235EA0083200903000000000000
B0722313122447S11711175EA0083700908000000000000
B0722353122427S11711093EA0084700916000000000000
B0722393122366S11711037EA0084900917000000000000
B0722433122297S11711053EA0084600915000000000000
B0722473122266S11711112EA0084500915000000000000
B0722513122274S11711165EA0085000920000000000000
B0722553122314S11711180EA0085000916000000000000
B0722593122365S11711158EA0084100908000000000000
B0723033122404S11711096EA0083900906000000000000
B0723073122404S11711010EA0084400912000000000000
B0723113122357S11710935EA0084400913000000000000
B0723153122281S11710887EA0084000911000000000000
B0723193122197S11710852EA0083900910000000000000
B0723233122112S11710822EA0083300903000000000000
B0723273122024S11710793EA0082300890000000000000
