ACAM4N6
HFDTE151017
HFFXA050
HFPLTPILOT:JOHN WELSH              
HFGTYGLIDERTYPE:HORNET      
HFGIDGLIDERID:VH-GMY      
HFDTM100GPSDATUM:
HFRFWFIRMWAREVERSION:F2.6
HFRHWHARDWAREVERSION:300 Series Version 2
HFFTYFRTYPE:CAMBRIDGE AERO INSTRUMENTS, 302+
HFGPS:GARMIN,LVS-25,12,18000
HFPRSPRESSALTSENSOR:INTERSEMA, MS5534-AP, 20000
I033638FXA3941ENL4247REX
LCAMSBVER:5FWVER:F26300
C151017050251151017000102
C0000000N00000000WTAKEOFF     
C3207549S11656849EBEVAIR      
C3137399S11712982ECunderdin AF
C3231466S11704865EPINGELLY    
C3207549S11656849EBEVAIR      
C0000000N00000000WLANDING     
B0506183207737S11657100EA0026200223000000000000
B0506203207737S11657100EA0026200223000000000000
B0506223207737S11657100EA0026200223000000000000
B0506243207737S11657100EA0026100223000000000000
B0506263207737S11657100EA0026000223000000000000
B0506283207737S11657100EA0026200223000000000000
B0506303207737S11657100EA0026200223000000000000
B0506323207737S11657100EA0026000223000000000000
B0506343207737S11657100EA0026000223000000000000
B0506363207737S11657100EA0026000223000000000000
B0506383207737S11657100EA0026100223000000000000
B0506403207737S11657100EA0026100223000000000000
B0506423207737S11657100EA0026100223000000000000
B0506443207737S11657100EA0026000223000000000000
B0506463207736S11657099EA0026000223000000000000
B0506513207716S11657091EA0026300223000000000000
B0506553207683S11657074EA0026300224000000000000
B0506593207637S11657048EA0026600224000000000000
B0507033207579S11657014EA0026100226000000000000
B0507073207516S11656977EA0026000232000000000000
B0507113207454S11656947EA0027600253000000000000
B0507153207394S11656923EA0030000275000000015000
B0507193207333S11656905EA0031800291000000015000
B0507233207272S11656883EA0033200305000000000000
B0507273207211S11656858EA0034300317000000000000
B0507313207150S11656828EA0035300329000000000000
B0507353207090S11656792EA0036700345000000000000
B0507393207043S11656739EA0038300364000000000000
B0507433207021S11656669EA0040100380000000000000
B0507473207026S11656592EA0041500391000000000000
B0507513207039S11656513EA0042600403000000000000
B0507553207061S11656436EA0043800420000000000000
B0507593207091S11656360EA0045400434000000000000
B0508033207128S11656284EA0046900457000000000000
B0508073207167S11656208EA0049000479000000000000
B0508113207226S11656152EA0051400498000000000000
B0508153207289S11656097EA0052400511000000000000
B0508193207313S11656021EA0054400536000000000000
B0508233207302S11655943EA0055900542000000000000
B0508273207255S11655886EA0056200544000000000000
B0508313207193S11655868EA0057100557000000000000
B0508353207130S11655894EA0058800573000000000000
B0508393207085S11655954EA0060600595000000000000
B0508403207065S11656034EA0063900630000000000000
B0508443207073S11656111EA0066600650000000000000
B0508483207141S11656139EA0067200653000000000000
B0508523207178S11656078EA0067400657000000000000
B0508563207138S11656051EA0067000643000000000000
B0509003207117S11656115EA0067400652000000000000
B0509043207167S11656169EA0068400660000000000000
B0509083207225S11656133EA0068600660000000000000
B0509123207216S11656071EA0067600647000000000000
B0509163207164S11656082EA0067000640000000000000
B0509203207160S11656159EA0067500648000000000000
B0509243207229S11656185EA0067700654000000000000
B0509283207278S11656130EA0068400659000000000000
B0509323207264S11656068EA0068000652000000000000
B0509363207216S11656085EA0067900653000000000000
B0509403207217S11656159EA0068700662000000000000
B0509443207273S11656211EA0068600656000000000000
B0509483207341S11656184EA0068800660000000000000
B0509523207347S11656119EA0068800657000000000000
B0509563207300S11656098EA0067900646000000000000
B0510003207260S11656147EA0067700648000000000000
B0510043207277S11656223EA0068600656000000000000
B0510083207343S11656232EA0069100658000000000000
B0510123207363S11656168EA0069100661000000000000
B0510163207317S11656156EA0068800653000000000000
B0510203207299S11656227EA0068300651000000000000
B0510243207345S11656285EA0069300662000000000000
B0510283207406S11656256EA0069600662000000000000
B0510323207408S11656186EA0069200659000000000000
B0510363207359S11656172EA0069000657000000000000
B0510403207338S11656233EA0069700670000000000000
B0510443207371S11656295EA0070400673000000000000
B0510483207438S11656301EA0070600673000000000000
B0510523207469S11656240EA0070500672000000000000
B0510563207436S11656199EA0070100666000000000000
B0511003207404S11656243EA0070500677000000000000
B0511043207443S11656298EA0071600684000000000000
B0511083207507S11656286EA0071600681000000000000
B0511123207516S11656224EA0071300680000000000000
B0511163207475S11656204EA0070900676000000000000
B0511203207443S11656254EA0071100680000000000000
B0511243207469S11656323EA0071400683000000000000
B0511283207537S11656325EA0071700684000000000000
B0511323207566S11656260EA0071300681000000000000
B0511363207529S11656216EA0071100680000000000000
B0511403207479S11656238EA0071000677000000000000
B0511443207456S11656307EA0071200680000000000000
B0511483207488S11656383EA0071200682000000000000
B0511523207553S11656419EA0072100690000000000000
B0511563207603S11656373EA0072500692000000000000
B0512003207588S11656310EA0072200689000000000000
B0512043207532S11656310EA0071900686000000000000
B0512083207510S11656381EA0072700695000000000000
B0512123207545S11656454EA0073800709000000000000
B0512163207611S11656485EA0073900703000000000000
B0512203207674S11656451EA0073600704000000000000
B0512243207688S11656381EA0073700704000000000000
B0512283207650S11656331EA0073400702000000000000
B0512323207603S11656362EA0073900707000000000000
B0512363207606S11656436EA0074200707000000000000
B0512403207667S11656476EA0073900704000000000000
B0512443207727S11656442EA0074600715000000000000
B0512483207726S11656377EA0075000717000000000000
B0512523207674S11656367EA0074600712000000000000
B0512563207651S11656432EA0075100718000000000000
B0513003207687S11656492EA0075900726000000000000
B0513043207749S11656501EA0075600720000000000000
B0513083207792S11656451EA0075700726000000000000
B0513123207771S11656398EA0075800723000000000000
B0513163207722S11656416EA0075500721000000000000
B0513203207727S11656483EA0076300731000000000000
B0513243207783S11656507EA0076500729000000000000
B0513283207833S11656464EA0076300728000000000000
B0513323207823S11656402EA0076300728000000000000
B0513363207771S11656411EA0075900721000000000000
B0513403207766S11656481EA0076200729000000000000
B0513443207820S11656515EA0076700732000000000000
B0513483207874S11656476EA0077700743000000000000
B0513523207863S11656419EA0077900743000000000000
B0513563207810S11656428EA0077300736000000000000
B0514003207798S11656502EA0077700745000000000000
B0514043207848S11656549EA0078500753000000000000
B0514083207908S11656519EA0078900752000000000000
B0514123207906S11656450EA0078500752000000000000
B0514163207852S11656444EA0079000753000000000000
B0514203207830S11656509EA0079400762000000000000
B0514243207878S11656549EA0080400772000000000000
B0514283207921S11656506EA0080900774000000000000
B0514323207892S11656458EA0080900776000000000000
B0514363207845S11656487EA0081300782000000000000
B0514403207858S11656555EA0082200788000000000000
B0514443207921S11656571EA0082500790000000000000
B0514483207950S11656516EA0083200798000000000000
B0514523207911S11656481EA0083400800000000000000
B0514563207880S11656531EA0083700805000000000000
B0515003207918S11656588EA0084800814000000000000
B0515043207974S11656574EA0085200820000000000000
B0515083207978S11656518EA0085600822000000000000
B0515123207930S11656514EA0085200820000000000000
B0515163207922S11656581EA0086200832000000000000
B0515203207974S11656615EA0086800834000000000000
B0515243208022S11656581EA0087000838000000000000
B0515283208015S11656524EA0087600844000000000000
B0515323207970S11656524EA0087800847000000000000
B0515363207960S11656585EA0088400853000000000000
B0515403208009S11656628EA0088600852000000000000
B0515443208060S11656594EA0088300852000000000000
B0515483208056S11656532EA0088800858000000000000
B0515523208010S11656507EA0088900856000000000000
B0515563207980S11656562EA0088900857000000000000
B0516003208025S11656614EA0089100857000000000000
B0516043208082S11656583EA0089200860000000000000
B0516083208079S11656515EA0088900853000000000000
B0516123208036S11656457EA0087500841000000000000
B0516163207982S11656399EA0086000826000000015000
B0516203207922S11656350EA0085300822000000015000
B0516243207857S11656307EA0085300824000000000000
B0516283207794S11656272EA0086500842000000000000
B0516323207739S11656297EA0088600862000000000000
B0516363207754S11656373EA0090300875000000000000
B0516403207818S11656388EA0091200882000000000000
B0516443207856S11656333EA0091700887000000000000
B0516483207831S11656279EA0092200893000000000000
B0516523207781S11656298EA0093200902000000000000
B0516563207784S11656375EA0094600918000000000000
B0517003207841S11656406EA0095600925000000000000
B0517043207879S11656359EA0096100931000000000000
B0517083207852S11656311EA0096700937000000000000
B0517123207810S11656346EA0097400947000000000000
B0517163207841S11656412EA0098700959000000000000
B0517203207901S11656398EA0099600966000000000000
B0517243207908S11656334EA0099600970000000000000
B0517283207857S11656314EA0100300974000000000000
B0517323207827S11656377EA0101400988000000000000
B0517363207867S11656438EA0103201009000000000000
B0517403207923S11656424EA0104201018000000000000
B0517443207927S11656366EA0104901025000000000000
B0517483207878S11656355EA0105201028000000000000
B0517523207856S11656424EA0105901040000000000000
B0517563207902S11656479EA0107701057000000000000
B0518003207957S11656454EA0108701071000000000000
B0518043207957S11656397EA0110101082000000000000
B0518083207911S11656398EA0110801089000000000000
B0518123207905S11656467EA0111601098000000000000
B0518163207958S11656503EA0113001113000000000000
B0518203208002S11656466EA0114001122000000000000
B0518243207988S11656412EA0114601130000000000000
B0518283207943S11656424EA0115901141000000000000
B0518323207937S11656492EA0116701150000000000000
B0518363207988S11656531EA0117601162000000000000
B0518403208032S11656492EA0118401168000000000000
B0518443208009S11656441EA0119001176000000000000
B0518483207965S11656471EA0119801184000000000000
B0518523207978S11656540EA0120701194000000000000
B0518563208038S11656548EA0121501202000000000000
B0519003208053S11656487EA0122301211000000000000
B0519043208009S11656462EA0123001213000000000000
B0519083207975S11656520EA0123401222000000000000
B0519123208013S11656584EA0124701232000000000000
B0519163208075S11656565EA0125201238000000000000
B0519203208074S11656498EA0126001248000000000000
B0519243208025S11656479EA0126401252000000000000
B0519283207982S11656524EA0126501253000000000000
B0519323207993S11656606EA0126801262000000000000
B0519363208054S11656654EA0127701266000000000000
B0519403208112S11656618EA0128701283000000000000
B0519443208096S11656562EA0129801287000000000000
B0519483208048S11656583EA0130501296000000000000
B0519523208048S11656656EA0131501304000000000000
B0519563208093S11656715EA0132101312000000000000
B0520003208152S11656705EA0133301325000000000000
B0520043208155S11656650EA0134001331000000000000
B0520083208110S11656649EA0134301333000000000000
B0520123208104S11656717EA0134801338000000000000
B0520163208161S11656756EA0134801339000000000000
B0520203208230S11656737EA0135601349000000000000
B0520243208248S11656679EA0137201367000000000000
B0520283208201S11656662EA0137701365000000000000
B0520323208175S11656724EA0138101373000000000000
B0520363208208S11656795EA0138801385000000000000
B0520403208270S11656809EA0139801389000000000000
B0520443208305S11656760EA0140201396000000000000
B0520483208273S11656721EA0141101406000000000000
B0520523208229S11656758EA0142101415000000000000
B0520563208239S11656832EA0142901421000000000000
B0521003208299S11656862EA0143601429000000000000
B0521043208343S11656819EA0144001432000000000000
B0521083208325S11656766EA0145001446000000000000
B0521123208275S11656763EA0146001452000000000000
B0521163208243S11656817EA0146801463000000000000
B0521203208257S11656891EA0147101462000000000000
B0521243208321S11656929EA0146901461000000000000
B0521283208383S11656895EA0147001462000000000000
B0521323208396S11656823EA0147501472000000000000
B0521363208359S11656775EA0148701482000000000000
B0521403208307S11656791EA0149001484000000000000
B0521443208275S11656857EA0149601491000000000000
B0521483208285S11656934EA0150501498000000000000
B0521523208335S11656990EA0151001505000000000000
B0521563208403S11656991EA0151601509000000000000
B0522003208439S11656934EA0151501509000000000000
B0522043208418S11656875EA0152101519000000000000
B0522083208376S11656906EA0153301531000000000000
B0522123208390S11656982EA0154001532000000000000
B0522163208448S11657017EA0154301539000000000000
B0522203208503S11656990EA0155001544000000000000
B0522243208517S11656929EA0154901544000000000000
B0522283208482S11656886EA0155401549000000000000
B0522323208429S11656888EA0155101544000000000000
B0522363208390S11656940EA0155301549000000000000
B0522403208383S11657012EA0156001554000000000000
B0522443208417S11657078EA0156001553000000000000
B0522483208482S11657094EA0155901555000000000000
B0522523208517S11657046EA0155901552000000000000
B0522563208487S11656996EA0155601550000000000000
B0523003208430S11656983EA0155001542000000000000
B0523043208365S11656994EA0154401538000000000000
B0523083208299S11657010EA0154401536000000000000
B0523123208231S11657025EA0153801532000000000000
B0523163208161S11657042EA0152801520000000000000
B0523203208090S11657059EA0151801510000000000000
B0523243208018S11657078EA0150901502000000000000
B0523283207944S11657095EA0150101491000000000000
B0523323207871S11657113EA0149501487000000000000
B0523363207801S11657139EA0149101483000000000000
B0523403207731S11657169EA0149001483000000000000
B0523443207663S11657194EA0148801480000000000000
B0523483207596S11657211EA0148001469000000000000
B0523523207525S11657230EA0147101466000000000000
B0523563207458S11657255EA0146701458000000000000
B0524003207390S11657282EA0145601446000000000000
B0524043207324S11657315EA0144901442000000000000
B0524083207259S11657352EA0144801440000000000000
B0524123207198S11657390EA0144901442000000000000
B0524163207141S11657429EA0144801439000000000000
B0524203207081S11657469EA0143601420000000000000
B0524243207017S11657510EA0141601405000000000000
B0524283206949S11657546EA0140801399000000000000
B0524323206888S11657585EA0140701398000000000000
B0524363206826S11657620EA0140001391000000000000
B0524403206761S11657651EA0140101400000000000000
B0524443206701S11657680EA0141601416000000000000
B0524483206644S11657710EA0141801412000000000000
B0524523206584S11657744EA0140701400000000000000
B0524563206518S11657774EA0139801393000000000000
B0525003206452S11657801EA0139401390000000000000
B0525043206387S11657828EA0138901384000000000000
B0525083206323S11657852EA0138801383000000000000
B0525123206263S11657871EA0138701382000000000000
B0525163206205S11657893EA0138901386000000000000
B0525203206146S11657915EA0138901385000000000000
B0525243206085S11657936EA0139001388000000000000
B0525283206025S11657950EA0139301390000000000000
B0525323205964S11657956EA0139301387000000000000
B0525363205903S11657965EA0140001400000000000000
B0525403205876S11658022EA0142501425000000000000
B0525443205920S11658087EA0143201428000000000000
B0525483205993S11658087EA0143601434000000000000
B0525523206030S11658035EA0143901437000000000000
B0525563206026S11657975EA0143401428000000000000
B0526003206015S11657907EA0143001428000000000000
B0526043206000S11657839EA0143101431000000000000
B0526083205984S11657771EA0142901426000000000000
B0526123205969S11657698EA0141701414000000000000
B0526163205959S11657625EA0142101418000000000000
B0526203205952S11657554EA0141801414000000000000
B0526243205948S11657485EA0141501413000000000000
B0526283205946S11657419EA0141601418000000000000
B0526323205945S11657356EA0143101434000000000000
B0526363205909S11657325EA0145101456000000000000
B0526403205877S11657374EA0146601467000000000000
B0526443205915S11657446EA0146501467000000000000
B0526483205978S11657443EA0147901485000000000000
B0526523205998S11657393EA0149301496000000000000
B0526563205960S11657367EA0150101503000000000000
B0527003205921S11657417EA0151001514000000000000
B0527043205950S11657494EA0152501528000000000000
B0527083206015S11657506EA0153601537000000000000
B0527123206041S11657455EA0154601546000000000000
B0527163206003S11657426EA0155401555000000000000
B0527203205961S11657473EA0156901573000000000000
B0527243205981S11657553EA0158001583000000000000
B0527283206046S11657581EA0158701588000000000000
B0527323206094S11657543EA0158901593000000000000
B0527363206084S11657495EA0160101609000000000000
B0527403206038S11657494EA0161001617000000000000
B0527443206008S11657553EA0162701638000000000000
B0527483206028S11657624EA0164201646000000000000
B0527523206089S11657664EA0163901640000000000000
B0527563206149S11657644EA0163801645000000000000
B0528003206179S11657586EA0164001646000000000000
B0528043206190S11657520EA0163801649000000000000
B0528083206197S11657450EA0164701657000000000000
B0528123206201S11657378EA0164101649000000000000
B0528163206188S11657307EA0163801646000000000000
B0528203206155S11657250EA0164101647000000000000
B0528243206098S11657228EA0163601634000000000000
B0528283206024S11657237EA0161901622000000000000
B0528323205948S11657257EA0162101631000000000000
B0528363205882S11657276EA0164001648000000000000
B0528403205822S11657308EA0165101656000000000000
B0528443205778S11657365EA0165101649000000000000
B0528483205733S11657433EA0163201629000000000000
B0528523205673S11657490EA0161401612000000000000
B0528563205605S11657532EA0160501607000000000000
B0529003205538S11657569EA0160201599000000000000
B0529043205469S11657601EA0159201589000000000000
B0529083205397S11657624EA0158601584000000000000
B0529123205327S11657645EA0158201585000000000000
B0529163205258S11657663EA0158301584000000000000
B0529203205191S11657679EA0157701579000000000000
B0529243205126S11657697EA0157001571000000000000
B0529283205061S11657719EA0156101560000000000000
B0529323204996S11657741EA0155401548000000000000
B0529363204928S11657759EA0154201536000000000000
B0529403204860S11657776EA0153301532000000000000
B0529443204795S11657796EA0153401533000000000000
B0529483204733S11657820EA0153001529000000000000
B0529523204667S11657842EA0151701515000000000000
B0529563204594S11657862EA0151201516000000000000
B0530003204525S11657881EA0151201514000000000000
B0530043204457S11657905EA0151001513000000000000
B0530083204391S11657926EA0150501507000000000000
B0530123204326S11657945EA0150101500000000000000
B0530163204264S11657967EA0149401494000000000000
B0530203204200S11657992EA0149001491000000000000
B0530243204135S11658021EA0148901493000000000000
B0530283204069S11658048EA0149601502000000000000
B0530323204006S11658073EA0151301522000000000000
B0530363203945S11658096EA0152401528000000000000
B0530403203885S11658126EA0152301526000000000000
B0530443203823S11658158EA0152101527000000000000
B0530483203766S11658182EA0153101536000000000000
B0530523203710S11658213EA0153301536000000000000
B0530563203703S11658287EA0154001547000000000000
B0531003203757S11658338EA0155001556000000000000
B0531043203824S11658333EA0155901566000000000000
B0531083203846S11658281EA0157001575000000000000
B0531123203800S11658265EA0156801571000000000000
B0531163203774S11658335EA0157301578000000000000
B0531203203824S11658390EA0158401593000000000000
B0531243203884S11658373EA0159601601000000000000
B0531283203900S11658317EA0160601611000000000000
B0531323203865S11658279EA0160701611000000000000
B0531363203809S11658301EA0160801612000000000000
B0531403203781S11658374EA0161001614000000000000
B0531443203811S11658450EA0161901626000000000000
B0531483203874S11658483EA0162701631000000000000
B0531523203943S11658461EA0162501630000000000000
B0531563203995S11658411EA0163401644000000000000
B0532003203997S11658347EA0164401649000000000000
B0532043203949S11658317EA0164101645000000000000
B0532083203885S11658334EA0163701639000000000000
B0532123203819S11658369EA0163301641000000000000
B0532163203761S11658412EA0165101659000000000000
B0532203203748S11658482EA0167301682000000000000
B0532243203800S11658529EA0168101687000000000000
B0532283203862S11658503EA0168401693000000000000
B0532323203878S11658439EA0168601696000000000000
B0532363203842S11658392EA0169001695000000000000
B0532403203785S11658388EA0168801695000000000000
B0532443203723S11658414EA0168701691000000000000
B0532483203659S11658448EA0168001681000000000000
B0532523203590S11658491EA0166501669000000000000
B0532563203520S11658537EA0166401669000000000000
B0533003203454S11658581EA0167001673000000000000
B0533043203387S11658622EA0166401663000000000000
B0533083203315S11658663EA0165101649000000000000
B0533123203242S11658702EA0164401641000000000000
B0533163203169S11658739EA0163401629000000000000
B0533203203099S11658781EA0162801626000000000000
B0533243203027S11658816EA0162301628000000000000
B0533283202953S11658849EA0161001608000000000000
B0533323202873S11658889EA0159001589000000000000
B0533363202791S11658932EA0158901591000000000000
B0533403202711S11658972EA0159001593000000000000
B0533443202639S11659016EA0159001590000000000000
B0533483202568S11659071EA0158701592000000000000
B0533523202502S11659127EA0159101593000000000000
B0533563202433S11659180EA0159001592000000000000
B0534003202366S11659235EA0158601587000000000000
B0534043202299S11659293EA0158401587000000000000
B0534083202236S11659352EA0158401582000000000000
B0534123202172S11659408EA0157401571000000000000
B0534163202107S11659467EA0155701555000000000000
B0534203202041S11659532EA0154301541000000000000
B0534243201976S11659596EA0153701534000000000000
B0534283201912S11659664EA0153201526000000000000
B0534323201850S11659727EA0152701525000000000000
B0534363201792S11659789EA0152501521000000000000
B0534403201736S11659847EA0151801513000000000000
B0534443201682S11659900EA0151101507000000000000
B0534483201630S11659950EA0150401497000000000000
B0534523201577S11659995EA0149501489000000000000
B0534563201526S11700047EA0148801486000000000000
B0535003201482S11700102EA0149601492000000000000
B0535043201441S11700158EA0149501487000000000000
B0535083201401S11700220EA0149301489000000000000
B0535123201363S11700281EA0149601491000000000000
B0535163201336S11700357EA0149501491000000000000
B0535203201319S11700436EA0150501510000000000000
B0535243201324S11700513EA0152301524000000000000
B0535283201380S11700545EA0153201531000000000000
B0535323201428S11700501EA0153301534000000000000
B0535363201414S11700444EA0154001545000000000000
B0535403201369S11700448EA0155401559000000000000
B0535443201348S11700509EA0156401567000000000000
B0535483201385S11700571EA0157001573000000000000
B0535523201447S11700563EA0157801579000000000000
B0535563201474S11700504EA0157801578000000000000
B0536003201454S11700442EA0158301584000000000000
B0536043201401S11700452EA0159201591000000000000
B0536083201389S11700532EA0160001600000000000000
B0536123201443S11700591EA0160801610000000000000
B0536163201509S11700570EA0161501617000000000000
B0536203201526S11700501EA0161801621000000000000
B0536243201483S11700465EA0162901636000000000000
B0536283201435S11700501EA0163701636000000000000
B0536323201436S11700588EA0163701638000000000000
B0536363201496S11700645EA0164501649000000000000
B0536403201562S11700628EA0165401659000000000000
B0536443201588S11700562EA0166001662000000000000
B0536483201562S11700509EA0167101675000000000000
B0536523201514S11700506EA0168101687000000000000
B0536563201475S11700554EA0168401687000000000000
B0537003201473S11700634EA0168601689000000000000
B0537043201514S11700702EA0169001693000000000000
B0537083201583S11700726EA0169301697000000000000
B0537123201651S11700715EA0170601715000000000000
B0537163201682S11700663EA0171001713000000000000
B0537203201651S11700618EA0170801711000000000000
B0537243201601S11700637EA0170601709000000000000
B0537283201593S11700713EA0170601709000000000000
B0537323201644S11700769EA0171201719000000000000
B0537363201710S11700778EA0172201729000000000000
B0537403201765S11700744EA0172801735000000000000
B0537443201777S11700684EA0172501728000000000000
B0537483201735S11700649EA0172001723000000000000
B0537523201677S11700650EA0171601721000000000000
B0537563201610S11700667EA0170401703000000000000
B0538003201531S11700693EA0169201698000000000000
B0538043201452S11700719EA0169301697000000000000
B0538083201371S11700748EA0169601707000000000000
B0538123201292S11700778EA0170101711000000000000
B0538163201216S11700809EA0170401716000000000000
B0538203201142S11700842EA0170601717000000000000
B0538243201070S11700884EA0170401709000000000000
B0538283200994S11700927EA0169401701000000000000
B0538323200915S11700964EA0167901678000000000000
B0538363200832S11701001EA0166901674000000000000
B0538403200751S11701040EA0166501671000000000000
B0538443200672S11701076EA0166301668000000000000
B0538483200594S11701112EA0166201668000000000000
B0538523200520S11701150EA0166201671000000000000
B0538563200449S11701183EA0166801677000000000000
B0539003200378S11701212EA0167401683000000000000
B0539043200304S11701241EA0167101680000000000000
B0539083200230S11701271EA0167101680000000000000
B0539123200157S11701300EA0167001673000000000000
B0539163200082S11701329EA0165601661000000000000
B0539203200006S11701360EA0164701651000000000000
B0539243159929S11701389EA0163601641000000000000
B0539283159849S11701412EA0162401626000000000000
B0539323159768S11701433EA0161501620000000000000
B0539363159688S11701449EA0161401621000000000000
B0539403159610S11701463EA0161501623000000000000
B0539443159534S11701476EA0161801625000000000000
B0539483159460S11701489EA0161801623000000000000
B0539523159385S11701503EA0161301617000000000000
B0539563159308S11701512EA0160601607000000000000
B0540003159231S11701516EA0159901600000000000000
B0540043159156S11701520EA0159201595000000000000
B0540083159083S11701525EA0159301596000000000000
B0540123159009S11701531EA0158201583000000000000
B0540163158934S11701537EA0157601578000000000000
B0540203158861S11701541EA0156901570000000000000
B0540243158787S11701541EA0155901562000000000000
B0540283158711S11701546EA0155001551000000000000
B0540323158636S11701573EA0154201544000000000000
B0540363158563S11701620EA0154001543000000000000
B0540403158496S11701675EA0153401536000000000000
B0540443158431S11701729EA0152801529000000000000
B0540483158364S11701781EA0151901517000000000000
B0540523158295S11701831EA0151001508000000000000
B0540563158228S11701880EA0150401504000000000000
B0541003158161S11701931EA0150001500000000000000
B0541043158096S11701980EA0149301489000000000000
B0541083158030S11702025EA0148601485000000000000
B0541123157966S11702054EA0149601497000000000000
B0541163157903S11702064EA0150101502000000000000
B0541203157843S11702065EA0150501508000000000000
B0541243157784S11702066EA0150901511000000000000
B0541283157726S11702083EA0151701521000000000000
B0541323157697S11702145EA0153001534000000000000
B0541363157740S11702208EA0154501548000000000000
B0541403157801S11702181EA0155401557000000000000
B0541443157797S11702123EA0156001561000000000000
B0541483157751S11702117EA0156701569000000000000
B0541523157725S11702174EA0157401576000000000000
B0541563157764S11702243EA0158001582000000000000
B0542003157826S11702225EA0158901589000000000000
B0542043157826S11702166EA0159601599000000000000
B0542083157782S11702164EA0160301604000000000000
B0542123157766S11702236EA0160501608000000000000
B0542163157812S11702313EA0160801608000000000000
B0542203157888S11702330EA0161101618000000000000
B0542243157944S11702282EA0161801623000000000000
B0542283157946S11702210EA0162401628000000000000
B0542323157898S11702181EA0163201638000000000000
B0542363157866S11702233EA0164801656000000000000
B0542403157908S11702295EA0166301671000000000000
B0542443157969S11702287EA0167501681000000000000
B0542483157987S11702231EA0167901683000000000000
B0542523157952S11702192EA0168201690000000000000
B0542563157909S11702222EA0169101698000000000000
B0543003157921S11702295EA0170401711000000000000
B0543043157982S11702324EA0171001712000000000000
B0543083158030S11702278EA0171201719000000000000
B0543123158017S11702218EA0171801722000000000000
B0543163157968S11702208EA0172201727000000000000
B0543203157940S11702266EA0172601734000000000000
B0543243157977S11702334EA0172801731000000000000
B0543283158047S11702334EA0173001737000000000000
B0543323158072S11702278EA0174101747000000000000
B0543363158041S11702234EA0174001742000000000000
B0543403157977S11702244EA0172101722000000000000
B0543443157911S11702286EA0170801711000000000000
B0543483157843S11702337EA0169401695000000000000
B0543523157773S11702391EA0168701689000000000000
B0543563157701S11702448EA0168801691000000000000
B0544003157630S11702503EA0168901687000000000000
B0544043157556S11702551EA0168301679000000000000
B0544083157478S11702597EA0167401672000000000000
B0544123157402S11702643EA0166901668000000000000
B0544163157328S11702694EA0166101658000000000000
B0544203157257S11702741EA0165901660000000000000
B0544243157189S11702788EA0165801657000000000000
B0544283157124S11702836EA0165401654000000000000
B0544323157060S11702884EA0164801649000000000000
B0544363156998S11702935EA0164201642000000000000
B0544403156933S11702985EA0163501630000000000000
B0544443156867S11703036EA0162401620000000000000
B0544483156802S11703080EA0161701616000000000000
B0544523156742S11703124EA0161401617000000000000
B0544563156686S11703169EA0161301611000000000000
B0545003156629S11703214EA0160201599000000000000
B0545043156570S11703253EA0159801599000000000000
B0545083156510S11703286EA0159601596000000000000
B0545123156449S11703317EA0158201579000000000000
B0545163156386S11703353EA0156301559000000000000
B0545203156319S11703393EA0155501550000000000000
B0545243156249S11703431EA0155101552000000000000
B0545283156179S11703464EA0155701561000000000000
B0545323156109S11703491EA0156301565000000000000
B0545363156037S11703523EA0156401568000000000000
B0545403155967S11703560EA0157001571000000000000
B0545443155896S11703598EA0156901569000000000000
B0545483155824S11703635EA0156701571000000000000
B0545523155751S11703668EA0156701569000000000000
B0545563155677S11703698EA0156601568000000000000
B0546003155604S11703729EA0155901558000000000000
B0546043155525S11703756EA0154101537000000000000
B0546083155441S11703782EA0152701524000000000000
B0546123155360S11703811EA0152501530000000000000
B0546163155287S11703839EA0153101536000000000000
B0546203155218S11703864EA0152801529000000000000
B0546243155151S11703882EA0152201525000000000000
B0546283155086S11703902EA0151701516000000000000
B0546323155025S11703929EA0151201517000000000000
B0546363154966S11703956EA0151701517000000000000
B0546403154906S11703972EA0152001528000000000000
B0546443154887S11704032EA0153401547000000000000
B0546483154947S11704069EA0154401555000000000000
B0546523154999S11704025EA0154901558000000000000
B0546563154982S11703969EA0155201560000000000000
B0547003154936S11703978EA0155201559000000000000
B0547043154928S11704045EA0155601565000000000000
B0547083154988S11704086EA0156701576000000000000
B0547123155051S11704055EA0156901578000000000000
B0547163155065S11703986EA0157501583000000000000
B0547203155034S11703936EA0157101573000000000000
B0547243154986S11703902EA0155401551000000000000
B0547283154924S11703899EA0154001541000000000000
B0547323154884S11703955EA0153601536000000000000
B0547363154901S11704040EA0153201530000000000000
B0547403154947S11704115EA0152801532000000000000
B0547443155001S11704176EA0154001549000000000000
B0547483155064S11704151EA0155301557000000000000
B0547523155057S11704086EA0155201554000000000000
B0547563155008S11704088EA0155001556000000000000
B0548003154996S11704159EA0154901553000000000000
B0548043155048S11704223EA0155901566000000000000
B0548083155116S11704206EA0157501580000000000000
B0548123155122S11704138EA0157801582000000000000
B0548163155075S11704110EA0157901582000000000000
B0548203155034S11704151EA0158001583000000000000
B0548243155039S11704228EA0159001596000000000000
B0548283155096S11704275EA0159701601000000000000
B0548323155156S11704233EA0160301609000000000000
B0548363155153S11704166EA0161001617000000000000
B0548403155108S11704144EA0161601620000000000000
B0548443155052S11704155EA0160701600000000000000
B0548483154988S11704192EA0157801572000000000000
B0548523154923S11704245EA0155901552000000000000
B0548563154858S11704301EA0154701542000000000000
B0549003154794S11704359EA0154001535000000000000
B0549043154729S11704418EA0152901525000000000000
B0549083154664S11704476EA0152201518000000000000
B0549123154602S11704536EA0151801510000000000000
B0549163154542S11704597EA0151001504000000000000
B0549203154484S11704654EA0151001507000000000000
B0549243154425S11704708EA0151201509000000000000
B0549283154369S11704760EA0151601516000000000000
B0549323154313S11704810EA0152101518000000000000
B0549363154258S11704857EA0152201520000000000000
B0549403154196S11704898EA0152101518000000000000
B0549443154131S11704924EA0152501524000000000000
B0549483154065S11704933EA0153001530000000000000
B0549523154000S11704933EA0152501522000000000000
B0549563153934S11704935EA0151401508000000000000
B0550003153861S11704946EA0149601490000000000000
B0550043153788S11704973EA0148401483000000000000
B0550083153715S11705003EA0148001481000000000000
B0550123153644S11705020EA0148701491000000000000
B0550163153575S11705034EA0148601485000000000000
B0550203153502S11705059EA0147201468000000000000
B0550243153432S11705099EA0145901458000000000000
B0550283153364S11705147EA0145001443000000000000
B0550323153293S11705190EA0143901437000000000000
B0550363153218S11705221EA0143601436000000000000
B0550403153147S11705251EA0143601434000000000000
B0550443153080S11705282EA0143801440000000000000
B0550483153015S11705302EA0144101441000000000000
B0550523152950S11705311EA0144301443000000000000
B0550563152885S11705330EA0143801435000000000000
B0551003152818S11705358EA0142401422000000000000
B0551043152750S11705395EA0141601411000000000000
B0551083152682S11705442EA0140601401000000000000
B0551123152612S11705481EA0139501390000000000000
B0551163152539S11705518EA0138701380000000000000
B0551203152465S11705555EA0137901374000000000000
B0551243152391S11705593EA0137301368000000000000
B0551283152318S11705626EA0137501373000000000000
B0551323152248S11705636EA0137001363000000000000
B0551363152176S11705632EA0135901352000000000000
B0551403152106S11705627EA0135401353000000000000
B0551443152040S11705613EA0135201344000000000000
B0551483151968S11705598EA0134001329000000000000
B0551523151893S11705588EA0132901322000000000000
B0551563151819S11705585EA0132501318000000000000
B0552003151742S11705590EA0131701311000000000000
B0552043151665S11705601EA0131701313000000000000
B0552083151590S11705603EA0132101322000000000000
B0552123151521S11705592EA0134001342000000000000
B0552163151459S11705579EA0135401352000000000000
B0552203151399S11705567EA0136101358000000000000
B0552243151352S11705605EA0137701374000000000000
B0552283151386S11705675EA0137301364000000000000
B0552323151455S11705653EA0138101382000000000000
B0552363151465S11705590EA0140201403000000000000
B0552403151421S11705584EA0141101408000000000000
B0552443151408S11705653EA0140801404000000000000
B0552483151466S11705705EA0141301413000000000000
B0552523151515S11705665EA0143101431000000000000
B0552563151491S11705615EA0144201442000000000000
B0553003151446S11705641EA0145001449000000000000
B0553043151442S11705715EA0145101449000000000000
B0553083151496S11705769EA0145101449000000000000
B0553123151564S11705752EA0146301468000000000000
B0553163151569S11705697EA0148301487000000000000
B0553203151524S11705707EA0149201490000000000000
B0553243151524S11705784EA0149201490000000000000
B0553283151585S11705832EA0150401508000000000000
B0553323151647S11705813EA0151801519000000000000
B0553363151667S11705754EA0152601526000000000000
B0553403151633S11705714EA0152801525000000000000
B0553443151581S11705730EA0153201531000000000000
B0553483151560S11705801EA0153701537000000000000
B0553523151600S11705873EA0154001541000000000000
B0553563151667S11705866EA0155801560000000000000
B0554003151686S11705810EA0156601569000000000000
B0554043151652S11705772EA0157001572000000000000
B0554083151606S11705800EA0157801580000000000000
B0554123151591S11705871EA0158001577000000000000
B0554163151632S11705940EA0157501572000000000000
B0554203151700S11705953EA0158001583000000000000
B0554243151736S11705902EA0159401596000000000000
B0554283151713S11705854EA0159601595000000000000
B0554323151663S11705857EA0159501594000000000000
B0554363151604S11705895EA0158001574000000000000
B0554403151543S11705938EA0156101554000000000000
B0554443151476S11705986EA0155001543000000000000
B0554483151411S11706040EA0154001530000000000000
B0554523151343S11706094EA0153001525000000000000
B0554563151277S11706143EA0153101529000000000000
B0555003151213S11706192EA0152701521000000000000
B0555043151145S11706242EA0152501521000000000000
B0555083151080S11706289EA0152201516000000000000
B0555123151015S11706346EA0151301508000000000000
B0555163150956S11706412EA0151301512000000000000
B0555203150900S11706480EA0151701516000000000000
B0555243150844S11706547EA0151301508000000000000
B0555283150787S11706616EA0150101496000000000000
B0555323150728S11706685EA0148701482000000000000
B0555363150668S11706750EA0147801476000000000000
B0555403150610S11706811EA0147501472000000000000
B0555443150554S11706871EA0147101466000000000000
B0555483150495S11706932EA0146201454000000000000
B0555523150434S11706994EA0145501451000000000000
B0555563150374S11707056EA0145501450000000000000
B0556003150313S11707113EA0145001441000000000000
B0556043150250S11707170EA0144001429000000000000
B0556083150189S11707228EA0143301425000000000000
B0556123150126S11707284EA0142701421000000000000
B0556163150065S11707332EA0142201414000000000000
B0556203149994S11707361EA0141201404000000000000
B0556243149919S11707378EA0140601400000000000000
B0556283149848S11707392EA0140201398000000000000
B0556323149775S11707408EA0139801391000000000000
B0556363149702S11707426EA0138701382000000000000
B0556403149627S11707439EA0138001375000000000000
B0556443149553S11707449EA0137401370000000000000
B0556483149479S11707460EA0136801362000000000000
B0556523149407S11707468EA0136401359000000000000
B0556563149338S11707478EA0136701362000000000000
B0557003149268S11707490EA0136101354000000000000
B0557043149197S11707500EA0135501353000000000000
B0557083149126S11707508EA0135101344000000000000
B0557123149054S11707513EA0134101333000000000000
B0557163148983S11707517EA0133601332000000000000
B0557203148915S11707521EA0133601331000000000000
B0557243148844S11707524EA0133601333000000000000
B0557283148774S11707525EA0134101340000000000000
B0557323148709S11707529EA0134601343000000000000
B0557363148642S11707537EA0134001333000000000000
B0557403148574S11707543EA0133301326000000000000
B0557443148505S11707551EA0132901323000000000000
B0557483148437S11707555EA0132901322000000000000
B0557523148370S11707559EA0132501317000000000000
B0557563148301S11707553EA0131901312000000000000
B0558003148235S11707539EA0131401305000000000000
B0558043148170S11707520EA0130701297000000000000
B0558083148106S11707487EA0129701286000000000000
B0558123148041S11707453EA0129801289000000000000
B0558163147980S11707421EA0130201296000000000000
B0558203147920S11707391EA0130301292000000000000
B0558243147858S11707358EA0129501280000000000000
B0558283147791S11707349EA0128701275000000000000
B0558323147725S11707371EA0127901263000000000000
B0558363147661S11707421EA0126201243000000000000
B0558403147599S11707478EA0124401229000000000000
B0558443147535S11707535EA0123301215000000000000
B0558483147469S11707591EA0122401211000000000000
B0558523147405S11707648EA0122001202000000000000
B0558563147342S11707711EA0120601187000000000000
B0559003147277S11707777EA0119701179000000000000
B0559043147212S11707839EA0118901169000000000000
B0559083147145S11707897EA0117901160000000000000
B0559123147076S11707950EA0117101154000000000000
B0559163147010S11707999EA0116801152000000000000
B0559203146946S11708045EA0116801153000000000000
B0559243146885S11708089EA0116201142000000000000
B0559283146823S11708135EA0115701140000000000000
B0559323146760S11708179EA0116001145000000000000
B0559363146720S11708244EA0117801165000000000000
B0559403146749S11708319EA0119901186000000000000
B0559443146816S11708320EA0121001194000000000000
B0559483146837S11708262EA0121401193000000000000
B0559523146797S11708232EA0120901188000000000000
B0559563146766S11708288EA0121601201000000000000
B0600003146797S11708359EA0122601213000000000000
B0600043146863S11708365EA0123501218000000000000
B0600083146898S11708305EA0123501218000000000000
B0600123146871S11708255EA0123401214000000000000
B0600163146820S11708275EA0123401214000000000000
B0600203146831S11708356EA0123001213000000000000
B0600243146900S11708397EA0123501222000000000000
B0600283146958S11708357EA0124501230000000000000
B0600323146955S11708293EA0124901232000000000000
B0600363146910S11708272EA0125001230000000000000
B0600403146861S11708301EA0124201216000000000000
B0600443146842S11708371EA0123501217000000000000
B0600483146868S11708450EA0123901223000000000000
B0600523146924S11708505EA0124401227000000000000
B0600563146979S11708476EA0125301238000000000000
B0601003146966S11708426EA0125701240000000000000
B0601043146915S11708440EA0125601241000000000000
B0601083146913S11708514EA0125801243000000000000
B0601123146975S11708553EA0125701240000000000000
B0601163147032S11708508EA0126201250000000000000
B0601203147035S11708444EA0127501260000000000000
B0601243146991S11708418EA0127601258000000000000
B0601283146963S11708476EA0128101269000000000000
B0601323147019S11708526EA0128701268000000000000
B0601363147080S11708491EA0128601270000000000000
B0601403147087S11708422EA0129001275000000000000
B0601443147044S11708389EA0129401274000000000000
B0601483146997S11708422EA0127901257000000000000
B0601523146988S11708506EA0127001251000000000000
B0601563147024S11708588EA0127401263000000000000
B0602003147092S11708606EA0129301282000000000000
B0602043147135S11708557EA0129701277000000000000
B0602083147118S11708497EA0129501281000000000000
B0602123147070S11708484EA0130201284000000000000
B0602163147027S11708525EA0130101285000000000000
B0602203147019S11708601EA0130401289000000000000
B0602243147045S11708681EA0130901296000000000000
B0602283147078S11708759EA0131301303000000000000
B0602323147108S11708839EA0131501303000000000000
B0602363147137S11708924EA0131401300000000000000
B0602403147171S11709009EA0130501292000000000000
B0602443147201S11709099EA0129601281000000000000
B0602483147231S11709191EA0128801276000000000000
B0602523147265S11709281EA0127601262000000000000
B0602563147300S11709373EA0126001244000000000000
B0603003147336S11709467EA0125001237000000000000
B0603043147370S11709563EA0124301231000000000000
B0603083147408S11709659EA0123901227000000000000
B0603123147447S11709753EA0124301236000000000000
B0603163147483S11709841EA0125301247000000000000
B0603203147514S11709930EA0126001253000000000000
B0603243147546S11710020EA0126401256000000000000
B0603283147579S11710109EA0127001263000000000000
B0603323147624S11710190EA0126701254000000000000
B0603363147667S11710276EA0125401242000000000000
B0603403147704S11710364EA0124501233000000000000
B0603443147739S11710458EA0123001217000000000000
B0603483147780S11710547EA0122601215000000000000
B0603523147820S11710629EA0122901220000000000000
B0603563147859S11710705EA0122801216000000000000
B0604003147898S11710784EA0121601198000000000000
B0604043147940S11710867EA0120501193000000000000
B0604083147979S11710949EA0120401192000000000000
B0604123148015S11711027EA0120201189000000000000
B0604163148046S11711108EA0119401177000000000000
B0604203148076S11711193EA0118301168000000000000
B0604243148103S11711278EA0118001168000000000000
B0604283148128S11711357EA0118101168000000000000
B0604323148144S11711439EA0118101167000000000000
B0604363148159S11711518EA0117801165000000000000
B0604403148180S11711594EA0117701162000000000000
B0604443148207S11711668EA0117201159000000000000
B0604483148249S11711733EA0116901155000000000000
B0604523148307S11711777EA0117001155000000000000
B0604563148375S11711786EA0116901153000000000000
B0605003148434S11711751EA0116801154000000000000
B0605043148476S11711695EA0117101157000000000000
B0605083148471S11711632EA0117601163000000000000
B0605123148422S11711613EA0117701161000000000000
B0605163148378S11711654EA0117001153000000000000
B0605203148379S11711732EA0116401146000000000000
B0605243148434S11711785EA0116401147000000000000
B0605283148501S11711778EA0116601149000000000000
B0605323148541S11711726EA0117101154000000000000
B0605363148534S11711667EA0117101154000000000000
B0605403148487S11711638EA0116901147000000000000
B0605443148431S11711660EA0115801139000000000000
B0605483148400S11711724EA0115601141000000000000
B0605523148397S11711804EA0115501139000000000000
B0605563148404S11711888EA0115101135000000000000
B0606003148426S11711966EA0115301138000000000000
B0606043148487S11711988EA0116001147000000000000
B0606083148532S11711945EA0115401135000000000000
B0606123148534S11711872EA0114801128000000000000
B0606163148519S11711797EA0114201126000000000000
B0606203148496S11711725EA0114301124000000000000
B0606243148467S11711655EA0113801117000000000000
B0606283148436S11711583EA0112801104000000000000
B0606323148404S11711513EA0111501093000000000000
B0606363148370S11711442EA0110701088000000000000
B0606403148336S11711372EA0110101079000000000000
B0606443148301S11711301EA0108801065000000000000
B0606483148267S11711231EA0107601054000000000000
B0606523148228S11711165EA0107101050000000000000
B0606563148190S11711099EA0106501041000000000000
B0607003148151S11711034EA0105201024000000000000
B0607043148101S11710978EA0103701011000000000000
B0607083148040S11710940EA0103001007000000000000
B0607123147980S11710911EA0103301010000000000000
B0607163147924S11710881EA0102601000000000000000
B0607203147867S11710848EA0101300988000000000000
B0607243147804S11710822EA0100400973000000000000
B0607283147737S11710805EA0099100963000000000000
B0607323147669S11710793EA0098100953000000000000
B0607363147599S11710784EA0096800940000000000000
B0607403147524S11710772EA0095400923000000000000
B0607443147448S11710758EA0093700909000000000000
B0607483147371S11710745EA0092600900000000000000
B0607523147295S11710733EA0092400901000000000000
B0607563147223S11710723EA0092500902000000000000
B0608003147154S11710715EA0091600888000000000000
B0608043147087S11710712EA0090700883000000000000
B0608083147020S11710711EA0089900873000000000000
B0608123146952S11710707EA0088700860000000000000
B0608163146884S11710705EA0087600845000000000000
B0608203146814S11710701EA0086300836000000000000
B0608243146744S11710693EA0085300825000000000000
B0608283146675S11710686EA0084400817000000000000
B0608323146604S11710683EA0083700809000000000000
B0608363146534S11710680EA0082900799000000000000
B0608403146464S11710676EA0082400794000000000000
B0608443146391S11710672EA0081400780000000000000
B0608483146318S11710668EA0080600776000000000000
B0608523146248S11710664EA0079900767000000000000
B0608563146175S11710662EA0078600756000000000000
B0609003146103S11710657EA0078100751000000000000
B0609043146031S11710653EA0077800746000000000000
B0609083145961S11710650EA0077500745000000000000
B0609123145895S11710645EA0077600748000000000000
B0609163145834S11710638EA0078200755000000000000
B0609203145774S11710632EA0079000761000000000000
B0609243145718S11710645EA0079900772000000000000
B0609283145728S11710718EA0081100783000000000000
B0609323145800S11710707EA0081500787000000000000
B0609363145817S11710638EA0082500797000000000000
B0609403145775S11710612EA0083700809000000000000
B0609443145737S11710660EA0084300813000000000000
B0609483145765S11710737EA0084600816000000000000
B0609523145835S11710736EA0085400825000000000000
B0609563145849S11710672EA0086700836000000015000
B0610003145805S11710667EA0087600848000000030000
B0610043145792S11710738EA0088000848000000015000
B0610083145849S11710785EA0088900865000000015000
B0610123145901S11710750EA0090200873000000015000
B0610163145896S11710693EA0090700881000000015000
B0610203145850S11710692EA0091300883000000015000
B0610243145831S11710761EA0091100881000000015000
B0610283145875S11710827EA0091700894000000015000
B0610323145944S11710824EA0092900901000000015000
B0610363145977S11710763EA0092700901000000000000
B0610403145944S11710710EA0092900903000000000000
B0610443145888S11710723EA0093100905000000000000
B0610483145866S11710800EA0093100902000000000000
B0610523145908S11710876EA0092800903000000000000
B0610563145982S11710879EA0094000915000000000000
B0611003146025S11710826EA0094800920000000000000
B0611043146013S11710761EA0094700919000000000000
B0611083145958S11710749EA0094800921000000000000
B0611123145923S11710810EA0094200909000000000000
B0611163145960S11710892EA0093700906000000000000
B0611203146034S11710894EA0094500915000000000000
B0611243146058S11710828EA0094700915000000000000
B0611283146014S11710790EA0095100920000000000000
B0611323145966S11710833EA0094700913000000000000
B0611363145975S11710924EA0094200906000000000000
B0611403146043S11710954EA0094900920000000000000
B0611443146075S11710898EA0095700923000000000000
B0611483146045S11710849EA0095100914000000000000
B0611523145992S11710867EA0094500911000000000000
B0611563145964S11710941EA0094500916000000000000
B0612003145970S11711024EA0095400923000000000000
B0612043146035S11711061EA0096000929000000000000
B0612083146087S11711017EA0096400933000000000000
B0612123146079S11710956EA0096100926000000000000
B0612163146031S11710969EA0095900928000000000000
B0612203146052S11711043EA0096900938000000000000
B0612243146120S11711041EA0096600934000000000000
B0612283146153S11710978EA0095800923000000000000
B0612323146142S11710909EA0093900903000000000000
B0612363146112S11710841EA0092700892000000000000
B0612403146075S11710779EA0091500875000000000000
B0612443146032S11710723EA0089900862000000000000
B0612483145987S11710664EA0087900839000000000000
B0612523145940S11710601EA0086000819000000000000
B0612563145884S11710547EA0084500807000000000000
B0613003145836S11710485EA0083600800000000000000
B0613043145801S11710413EA0084300809000000000000
B0613083145780S11710342EA0084800813000000000000
B0613123145770S11710267EA0084600809000000000000
B0613163145766S11710192EA0084300807000000000000
B0613203145766S11710117EA0083700800000000000000
B0613243145766S11710039EA0082900793000000000000
B0613283145765S11709961EA0082600788000000000000
B0613323145762S11709883EA0082100785000000000000
B0613363145756S11709806EA0081600777000000000000
B0613403145748S11709727EA0080200762000000000000
B0613443145740S11709646EA0079100754000000000000
B0613483145735S11709565EA0079000754000000000000
B0613523145730S11709487EA0079200754000000000000
B0613563145727S11709411EA0079200756000000000000
B0614003145726S11709340EA0078900750000000000000
B0614043145720S11709268EA0078100741000000000000
B0614083145720S11709195EA0077600739000000000000
B0614123145718S11709125EA0077200734000000000000
B0614163145715S11709055EA0076200721000000000000
B0614203145714S11708980EA0075100708000000000000
B0614243145714S11708902EA0073900690000000000000
B0614283145722S11708818EA0072600683000000000000
B0614323145741S11708734EA0072200679000000000000
B0614363145770S11708652EA0071400670000000000000
B0614403145809S11708574EA0071100667000000000000
B0614443145857S11708501EA0070500662000000000000
B0614483145913S11708434EA0069600653000000000000
B0614523145974S11708371EA0069000643000000000000
B0614563146039S11708311EA0068300638000000000000
B0615003146105S11708258EA0067900638000000000000
B0615043146172S11708211EA0068300642000000000000
B0615083146237S11708166EA0069200654000000000000
B0615123146255S11708101EA0071600680000000000000
B0615163146204S11708088EA0072500684000000000000
B0615203146187S11708159EA0072500684000000000000
B0615243146239S11708211EA0072400685000000000000
B0615283146307S11708197EA0073200694000000000000
B0615323146318S11708132EA0074400705000000000000
B0615363146270S11708124EA0074800706000000000000
B0615403146259S11708196EA0074900708000000000000
B0615443146317S11708233EA0075700721000000000000
B0615483146372S11708196EA0076700732000000000000
B0615523146368S11708128EA0077100731000000000000
B0615563146317S11708128EA0077600741000000000000
B0616003146315S11708203EA0078000740000000000000
B0616043146374S11708236EA0078800754000000000000
B0616083146419S11708189EA0080300767000000000000
B0616123146403S11708135EA0080500765000000015000
B0616163146355S11708159EA0081000775000000015000
B0616203146356S11708233EA0081600776000000015000
B0616243146412S11708268EA0082200787000000000000
B0616283146447S11708220EA0083000790000000000000
B0616323146416S11708171EA0083100794000000000000
B0616363146365S11708196EA0084100804000000000000
B0616403146363S11708271EA0084000797000000000000
B0616443146415S11708327EA0084800809000000000000
B0616483146478S11708328EA0085700820000000000000
B0616523146504S11708271EA0086100821000000000000
B0616563146460S11708249EA0086600829000000000000
B0617003146439S11708314EA0087100831000000000000
B0617043146489S11708369EA0087800841000000000000
B0617083146550S11708350EA0088600853000000000000
B0617123146564S11708287EA0089100855000000000000
B0617163146520S11708265EA0089900868000000000000
B0617203146498S11708323EA0090300865000000000000
B0617243146542S11708383EA0091100880000000000000
B0617283146604S11708369EA0092300890000000000000
B0617323146625S11708307EA0092600893000000000000
B0617363146585S11708272EA0093100895000000000000
B0617403146533S11708314EA0092800894000000000000
B0617443146536S11708401EA0093100897000000000000
B0617483146597S11708445EA0095100920000000000000
B0617523146655S11708418EA0096300935000000000000
B0617563146664S11708354EA0096500932000000000000
B0618003146616S11708336EA0096900942000000000000
B0618043146580S11708392EA0097300944000000000000
B0618083146598S11708470EA0098000953000000000000
B0618123146659S11708497EA0099200964000000000000
B0618163146708S11708453EA0100100977000000000000
B0618203146702S11708393EA0100800979000000000000
B0618243146653S11708389EA0101200987000000000000
B0618283146623S11708450EA0101500986000000000000
B0618323146650S11708527EA0101900990000000000000
B0618363146715S11708544EA0102801002000000000000
B0618403146758S11708495EA0104001016000000000000
B0618443146747S11708439EA0104801022000000000000
B0618483146702S11708432EA0105001022000000000000
B0618523146672S11708493EA0104901024000000000000
B0618563146701S11708565EA0105701036000000000000
B0619003146763S11708586EA0106701047000000000000
B0619043146805S11708539EA0107901057000000000000
B0619083146784S11708495EA0109001071000000000000
B0619123146740S11708523EA0109401072000000000000
B0619163146733S11708599EA0109901079000000000000
B0619203146776S11708658EA0111101090000000000000
B0619243146838S11708656EA0111901098000000000000
B0619283146859S11708597EA0112301103000000000000
B0619323146823S11708560EA0113201114000000000000
B0619363146777S11708592EA0114101121000000000000
B0619403146772S11708673EA0114101118000000000000
B0619443146824S11708734EA0114501128000000000000
B0619483146888S11708726EA0116301144000000000000
B0619523146911S11708670EA0117401155000000000000
B0619563146880S11708626EA0117901159000000000000
B0620003146831S11708653EA0118401164000000000000
B0620043146833S11708734EA0119001170000000000000
B0620083146888S11708792EA0119801176000000000000
B0620123146959S11708795EA0120301186000000000000
B0620163147001S11708740EA0121101194000000000000
B0620203146984S11708682EA0121701199000000000000
B0620243146932S11708679EA0122401209000000000000
B0620283146901S11708744EA0123201217000000000000
B0620323146936S11708813EA0124901235000000000000
B0620363147001S11708816EA0126001247000000000000
B0620403147033S11708766EA0127101254000000000000
B0620443147011S11708723EA0127901263000000000000
B0620483146967S11708735EA0128701271000000000000
B0620523146955S11708807EA0129101273000000000000
B0620563147009S11708860EA0129801285000000000000
B0621003147074S11708848EA0131201299000000000000
B0621043147100S11708794EA0131901305000000000000
B0621083147074S11708752EA0132601309000000000000
B0621123147028S11708777EA0132901314000000000000
B0621163147031S11708856EA0133401319000000000000
B0621203147091S11708904EA0133701321000000000000
B0621243147152S11708881EA0134601331000000000000
B0621283147169S11708822EA0135501338000000000000
B0621323147135S11708791EA0136201348000000000000
B0621363147098S11708835EA0136801353000000000000
B0621403147118S11708911EA0137101353000000000000
B0621443147183S11708943EA0136501347000000000000
B0621483147238S11708903EA0136901359000000000000
B0621523147243S11708844EA0138101366000000000000
B0621563147208S11708812EA0138401368000000000000
B0622003147160S11708827EA0138401368000000000000
B0622043147144S11708895EA0139501385000000000000
B0622083147184S11708959EA0139301373000000000000
B0622123147258S11708967EA0138701372000000000000
B0622163147306S11708918EA0139301383000000000000
B0622203147312S11708860EA0140301387000000000000
B0622243147278S11708822EA0139401377000000000000
B0622283147227S11708837EA0138701372000000000000
B0622323147204S11708904EA0139101382000000000000
B0622363147243S11708967EA0140901402000000000000
B0622403147305S11708951EA0141301397000000000000
B0622443147314S11708890EA0141001394000000000000
B0622483147270S11708868EA0141201402000000000000
B0622523147225S11708899EA0141701405000000000000
B0622563147218S11708970EA0142001410000000000000
B0623003147274S11709019EA0143101421000000000000
B0623043147334S11708990EA0143401422000000000000
B0623083147347S11708922EA0143601424000000000000
B0623123147309S11708883EA0144101430000000000000
B0623163147256S11708891EA0143501422000000000000
B0623203147222S11708951EA0143501426000000000000
B0623243147245S11709026EA0143801425000000000000
B0623283147316S11709050EA0144201434000000000000
B0623323147379S11709011EA0144801442000000000000
B0623363147383S11708946EA0145901449000000000000
B0623403147338S11708931EA0145801445000000000000
B0623443147305S11708985EA0145601445000000000000
B0623483147339S11709054EA0145601444000000000000
B0623523147410S11709048EA0145901448000000000000
B0623563147455S11708987EA0145901449000000000000
B0624003147457S11708918EA0145501439000000000000
B0624043147414S11708866EA0144201420000000000000
B0624083147387S11708787EA0142101407000000000000
B0624123147392S11708697EA0141901411000000000000
B0624163147416S11708612EA0142101409000000000000
B0624203147455S11708528EA0141101392000000000000
B0624243147512S11708450EA0138701369000000000000
B0624283147585S11708379EA0137001352000000000000
B0624323147663S11708313EA0136001345000000000000
B0624363147743S11708253EA0135801347000000000000
B0624403147825S11708200EA0136101349000000000000
B0624443147907S11708155EA0136301351000000000000
B0624483147990S11708116EA0136201349000000000000
B0624523148076S11708083EA0136401352000000000000
B0624563148163S11708049EA0136501352000000000000
B0625003148242S11708015EA0137701371000000000000
B0625043148319S11707981EA0138701373000000000000
B0625083148397S11707946EA0138401373000000000000
B0625123148473S11707911EA0139401385000000000000
B0625163148548S11707878EA0139301383000000000000
B0625203148625S11707847EA0139701387000000000000
B0625243148697S11707813EA0140301392000000000000
B0625283148770S11707777EA0140701396000000000000
B0625323148843S11707739EA0140901398000000000000
B0625363148916S11707703EA0141201402000000000000
B0625403148985S11707664EA0141301401000000000000
B0625443149055S11707622EA0140601390000000000000
B0625483149134S11707585EA0139001375000000000000
B0625523149220S11707546EA0138001365000000000000
B0625563149306S11707507EA0137301356000000000000
B0626003149394S11707469EA0136301348000000000000
B0626043149484S11707433EA0135601340000000000000
B0626083149574S11707396EA0135001334000000000000
B0626123149662S11707358EA0134501332000000000000
B0626163149750S11707322EA0134201328000000000000
B0626203149835S11707283EA0134201330000000000000
B0626243149914S11707244EA0134601333000000000000
B0626283149990S11707206EA0134901338000000000000
B0626323150061S11707171EA0135101335000000000000
B0626363150131S11707136EA0134401328000000000000
B0626403150203S11707102EA0133501318000000000000
B0626443150274S11707067EA0132501309000000000000
B0626483150346S11707033EA0132201310000000000000
B0626523150417S11707002EA0133201319000000000000
B0626563150485S11706974EA0134101328000000000000
B0627003150521S11706920EA0135601346000000000000
B0627043150490S11706885EA0136801356000000000000
B0627083150445S11706926EA0136201347000000000000
B0627123150449S11707013EA0136101349000000000000
B0627163150502S11707078EA0136401349000000000000
B0627203150576S11707087EA0136501354000000000000
B0627243150628S11707045EA0137101358000000000000
B0627283150638S11706981EA0136901353000000000000
B0627323150597S11706941EA0136301350000000000000
B0627363150542S11706970EA0136701354000000000000
B0627403150514S11707044EA0136901354000000000000
B0627443150540S11707124EA0137201359000000000000
B0627483150603S11707173EA0137601363000000000000
B0627523150675S11707184EA0138101369000000000000
B0627563150729S11707148EA0138001365000000000000
B0628003150779S11707096EA0136801345000000000000
B0628043150840S11707043EA0135201334000000000000
B0628083150910S11706997EA0134501329000000000000
B0628123150984S11706961EA0133901322000000000000
B0628163151060S11706931EA0133901323000000000000
B0628203151135S11706903EA0133901323000000000000
B0628243151212S11706881EA0133601316000000000000
B0628283151294S11706864EA0132501307000000000000
B0628323151375S11706844EA0131601297000000000000
B0628363151457S11706822EA0130701289000000000000
B0628403151539S11706799EA0129801278000000000000
B0628443151620S11706775EA0128401263000000000000
B0628483151700S11706747EA0127301253000000000000
B0628523151780S11706718EA0126201244000000000000
B0628563151859S11706684EA0125301232000000000000
B0629003151936S11706645EA0123901219000000000000
B0629043152011S11706602EA0123101208000000000000
B0629083152083S11706558EA0122801207000000000000
B0629123152155S11706516EA0121601190000000000000
B0629163152230S11706473EA0120401180000000000000
B0629203152304S11706433EA0119601172000000000000
B0629243152378S11706394EA0118601161000000000000
B0629283152456S11706354EA0117401150000000000000
B0629323152534S11706313EA0117101146000000000000
B0629363152612S11706276EA0116501142000000000000
B0629403152688S11706238EA0116201140000000000000
B0629443152763S11706200EA0116601144000000000000
B0629483152795S11706133EA0118501169000000000000
B0629523152755S11706091EA0120201182000000000000
B0629563152711S11706134EA0119801174000000000000
B0630003152724S11706214EA0119201167000000000000
B0630043152790S11706251EA0119101170000000000000
B0630083152854S11706225EA0119801179000000000000
B0630123152863S11706161EA0120301186000000000000
B0630163152816S11706136EA0120701187000000000000
B0630203152777S11706192EA0120101177000000000000
B0630243152799S11706272EA0120201182000000000000
B0630283152857S11706326EA0120601188000000000000
B0630323152928S11706352EA0121101193000000000000
B0630363152999S11706347EA0121001188000000000000
B0630403153072S11706317EA0120101179000000000000
B0630443153143S11706277EA0119501172000000000000
B0630483153216S11706227EA0119401175000000000000
B0630523153286S11706178EA0120101182000000000000
B0630563153358S11706135EA0120001177000000000000
B0631003153437S11706103EA0119201167000000000000
B0631043153522S11706083EA0118601162000000000000
B0631083153606S11706071EA0117801151000000000000
B0631123153697S11706064EA0116701142000000000000
B0631163153790S11706061EA0116001138000000000000
B0631203153878S11706058EA0116501145000000000000
B0631243153961S11706057EA0117101150000000000000
B0631283154043S11706057EA0117201152000000000000
B0631323154120S11706052EA0117501155000000000000
B0631363154178S11706014EA0118501169000000000000
B0631403154195S11705953EA0120101186000000000000
B0631443154169S11705908EA0121601199000000000000
B0631483154128S11705952EA0122101204000000000000
B0631523154157S11706029EA0123101217000000000000
B0631563154221S11706034EA0124101225000000000000
B0632003154239S11705979EA0124801236000000000000
B0632043154194S11705961EA0126101248000000000000
B0632083154163S11706023EA0127501264000000000000
B0632123154196S11706087EA0129001277000000000000
B0632163154256S11706101EA0129101273000000000000
B0632203154297S11706056EA0129301278000000000000
B0632243154280S11706004EA0130401292000000000000
B0632283154229S11706016EA0131501302000000000000
B0632323154225S11706091EA0132601313000000000000
B0632363154284S11706126EA0133601326000000000000
B0632403154325S11706088EA0134801336000000000000
B0632443154310S11706039EA0135401344000000000000
B0632483154263S11706056EA0137001362000000000000
B0632523154260S11706130EA0138601377000000000000
B0632563154312S11706174EA0139701388000000000000
B0633003154364S11706149EA0140401395000000000000
B0633043154352S11706096EA0141001403000000000000
B0633083154303S11706117EA0142601420000000000000
B0633123154308S11706196EA0144001437000000000000
B0633163154367S11706235EA0145201446000000000000
B0633203154420S11706204EA0146001456000000000000
B0633243154412S11706149EA0147001469000000000000
B0633283154359S11706155EA0148901486000000000000
B0633323154339S11706231EA0150201503000000000000
B0633363154384S11706299EA0151701515000000000000
B0633403154449S11706302EA0152501523000000000000
B0633443154477S11706248EA0153301534000000000000
B0633483154449S11706203EA0154601548000000000000
B0633523154398S11706212EA0156301567000000000000
B0633563154378S11706282EA0158001581000000000000
B0634003154420S11706351EA0158601586000000000000
B0634043154486S11706352EA0159301595000000000000
B0634083154518S11706300EA0160401605000000000000
B0634123154497S11706250EA0161001612000000000000
B0634163154443S11706255EA0162001626000000000000
B0634203154414S11706325EA0164001645000000000000
B0634243154442S11706402EA0164901652000000000000
B0634283154508S11706421EA0165601661000000000000
B0634323154549S11706378EA0166601670000000000000
B0634363154528S11706325EA0166801671000000000000
B0634403154469S11706334EA0167401682000000000000
B0634443154449S11706417EA0169401704000000000000
B0634483154489S11706493EA0170701712000000000000
B0634523154557S11706497EA0171501720000000000000
B0634563154583S11706445EA0172601735000000000000
B0635003154554S11706403EA0173701744000000000000
B0635043154501S11706417EA0174401752000000000000
B0635083154472S11706493EA0175401762000000000000
B0635123154505S11706572EA0176701773000000000000
B0635163154573S11706594EA0176901773000000000000
B0635203154640S11706571EA0177001774000000000000
B0635243154705S11706529EA0176501766000000000000
B0635283154771S11706482EA0176301766000000000000
B0635323154840S11706433EA0176201765000000000000
B0635363154908S11706382EA0176501772000000000000
B0635403154973S11706330EA0177801783000000000000
B0635443155035S11706277EA0177801782000000000000
B0635483155099S11706227EA0177801781000000000000
B0635523155165S11706177EA0177101771000000000000
B0635563155233S11706126EA0176201760000000000000
B0636003155301S11706078EA0175501751000000000000
B0636043155369S11706026EA0175401746000000000000
B0636083155433S11705975EA0174901745000000000000
B0636123155499S11705927EA0174401740000000000000
B0636163155568S11705879EA0173601727000000000000
B0636203155641S11705828EA0172001711000000000000
B0636243155715S11705775EA0170901701000000000000
B0636283155788S11705722EA0170201695000000000000
B0636323155862S11705670EA0169601685000000000000
B0636363155935S11705615EA0168401671000000000000
B0636403156010S11705562EA0167101660000000000000
B0636443156085S11705511EA0166501656000000000000
B0636483156159S11705463EA0165801647000000000000
B0636523156231S11705414EA0165901651000000000000
B0636563156301S11705367EA0165901650000000000000
B0637003156370S11705321EA0164601640000000000000
B0637043156442S11705272EA0163901632000000000000
B0637083156510S11705223EA0163101623000000000000
B0637123156581S11705172EA0162401615000000000000
B0637163156653S11705125EA0161901609000000000000
B0637203156726S11705080EA0161201605000000000000
B0637243156798S11705034EA0160701599000000000000
B0637283156871S11704989EA0160401597000000000000
B0637323156942S11704942EA0160101595000000000000
B0637363157014S11704891EA0159101579000000000000
B0637403157090S11704836EA0157901569000000000000
B0637443157167S11704784EA0158101579000000000000
B0637483157236S11704736EA0158701582000000000000
B0637523157305S11704686EA0158401571000000000000
B0637563157375S11704632EA0157201560000000000000
B0638003157449S11704578EA0156301553000000000000
B0638043157523S11704522EA0155901552000000000000
B0638083157596S11704462EA0156001551000000000000
B0638123157670S11704398EA0155801554000000000000
B0638163157745S11704335EA0155901554000000000000
B0638203157823S11704272EA0156601564000000000000
B0638243157900S11704210EA0157701573000000000000
B0638283157977S11704146EA0158801584000000000000
B0638323158052S11704082EA0159101587000000000000
B0638363158125S11704019EA0159301587000000000000
B0638403158197S11703955EA0158701578000000000000
B0638443158271S11703897EA0158001572000000000000
B0638483158346S11703843EA0157201565000000000000
B0638523158423S11703794EA0156301552000000000000
B0638563158498S11703744EA0155501548000000000000
B0639003158574S11703696EA0155401541000000000000
B0639043158649S11703648EA0154601535000000000000
B0639083158723S11703601EA0153901528000000000000
B0639123158796S11703557EA0153501525000000000000
B0639163158865S11703514EA0153201520000000000000
B0639203158936S11703473EA0152401510000000000000
B0639243159012S11703430EA0150901492000000000000
B0639283159090S11703387EA0149801487000000000000
B0639323159165S11703340EA0149201480000000000000
B0639363159239S11703292EA0148501473000000000000
B0639403159315S11703244EA0148601480000000000000
B0639443159385S11703197EA0150501504000000000000
B0639483159439S11703143EA0152401518000000000000
B0639523159477S11703075EA0152401511000000000000
B0639563159523S11703002EA0151301500000000000000
B0640003159588S11702942EA0150701496000000000000
B0640043159662S11702894EA0151101505000000000000
B0640083159738S11702859EA0152301517000000000000
B0640123159815S11702829EA0153001524000000000000
B0640163159893S11702802EA0153301527000000000000
B0640203159970S11702772EA0153401528000000000000
B0640243200046S11702742EA0153401526000000000000
B0640283200124S11702706EA0153401528000000000000
B0640323200200S11702667EA0154701546000000000000
B0640363200264S11702630EA0157001570000000000000
B0640403200317S11702587EA0158501577000000000000
B0640443200331S11702516EA0158001572000000000000
B0640483200288S11702470EA0158501580000000000000
B0640523200243S11702504EA0159701595000000000000
B0640563200243S11702580EA0160801606000000000000
B0641003200292S11702637EA0161801614000000000000
B0641043200361S11702637EA0162201617000000000000
B0641083200421S11702594EA0161701611000000000000
B0641123200481S11702535EA0160801601000000000000
B0641163200540S11702472EA0159901585000000000000
B0641203200602S11702404EA0158401570000000000000
B0641243200665S11702335EA0156801556000000000000
B0641283200730S11702266EA0155701547000000000000
B0641323200797S11702201EA0154701535000000000000
B0641363200867S11702140EA0153701525000000000000
B0641403200941S11702080EA0153001519000000000000
B0641443201014S11702022EA0152101507000000000000
B0641483201088S11701962EA0150601496000000000000
B0641523201159S11701901EA0149801482000000000000
B0641563201231S11701840EA0148701474000000000000
B0642003201300S11701781EA0148401474000000000000
B0642043201365S11701723EA0148101471000000000000
B0642083201428S11701663EA0147901469000000000000
B0642123201492S11701610EA0147901470000000000000
B0642163201556S11701560EA0147601462000000000000
B0642203201621S11701506EA0146201451000000000000
B0642243201690S11701453EA0145601442000000000000
B0642283201762S11701404EA0144401428000000000000
B0642323201835S11701356EA0143601423000000000000
B0642363201903S11701311EA0143101418000000000000
B0642403201969S11701261EA0142401412000000000000
B0642443202035S11701213EA0141901404000000000000
B0642483202100S11701167EA0140801395000000000000
B0642523202168S11701124EA0140501393000000000000
B0642563202234S11701085EA0140201387000000000000
B0643003202302S11701047EA0139301372000000000000
B0643043202373S11701009EA0137801359000000000000
B0643083202448S11700975EA0136801349000000000000
B0643123202522S11700942EA0136001340000000000000
B0643163202594S11700909EA0135701340000000000000
B0643203202666S11700881EA0135601338000000000000
B0643243202740S11700849EA0134401324000000000000
B0643283202814S11700814EA0133101313000000000000
B0643323202888S11700777EA0132501302000000000000
B0643363202964S11700738EA0131301292000000000000
B0643403203039S11700696EA0130501283000000000000
B0643443203113S11700648EA0129801279000000000000
B0643483203183S11700600EA0129801279000000000000
B0643523203254S11700556EA0129701279000000000000
B0643563203325S11700513EA0129701278000000000000
B0644003203397S11700475EA0129801280000000000000
B0644043203464S11700436EA0130101283000000000000
B0644083203529S11700392EA0129901280000000000000
B0644123203592S11700346EA0129701278000000000000
B0644163203653S11700302EA0129301275000000000000
B0644203203715S11700257EA0129001270000000000000
B0644243203776S11700208EA0128901268000000000000
B0644283203837S11700155EA0128401263000000000000
B0644323203894S11700094EA0128401264000000000000
B0644363203919S11700023EA0129301276000000000000
B0644403203891S11659968EA0129801280000000000000
B0644443203831S11659977EA0129301270000000000000
B0644483203806S11700058EA0129001271000000000000
B0644523203842S11700136EA0129401275000000000000
B0644563203911S11700172EA0129601278000000000000
B0645003203982S11700190EA0129901280000000000000
B0645043204056S11700199EA0129701275000000000000
B0645083204132S11700195EA0129401273000000000000
B0645123204204S11700171EA0129201270000000000000
B0645163204269S11700130EA0128801267000000000000
B0645203204327S11700081EA0129401275000000000000
B0645243204364S11700020EA0129901276000000000000
B0645283204396S11659948EA0129001266000000000000
B0645323204434S11659881EA0129501274000000000000
B0645363204464S11659811EA0129601274000000000000
B0645403204483S11659734EA0129301274000000000000
B0645443204502S11659657EA0129701281000000000000
B0645483204524S11659582EA0130301289000000000000
B0645523204552S11659509EA0130601286000000000000
B0645563204596S11659438EA0130401289000000000000
B0646003204652S11659371EA0130901295000000000000
B0646043204716S11659314EA0131401301000000000000
B0646083204785S11659263EA0131201296000000000000
B0646123204854S11659211EA0130801290000000000000
B0646163204919S11659153EA0130701289000000000000
B0646203204980S11659093EA0131001294000000000000
B0646243205044S11659040EA0131401300000000000000
B0646283205106S11658990EA0132001305000000000000
B0646323205168S11658941EA0131801298000000000000
B0646363205235S11658893EA0131001291000000000000
B0646403205302S11658849EA0130801291000000000000
B0646443205370S11658804EA0131101294000000000000
B0646483205436S11658758EA0131601301000000000000
B0646523205500S11658708EA0132501313000000000000
B0646563205531S11658641EA0133601326000000000000
B0647003205503S11658587EA0135301343000000000000
B0647043205447S11658594EA0136601353000000000000
B0647083205409S11658655EA0137601364000000000000
B0647123205408S11658736EA0138001362000000000000
B0647163205452S11658802EA0138201370000000000000
B0647203205516S11658841EA0139301383000000000000
B0647243205584S11658849EA0140601395000000000000
B0647283205638S11658804EA0141201397000000000000
B0647323205630S11658734EA0141501401000000000000
B0647363205573S11658703EA0141901408000000000000
B0647403205517S11658743EA0142801422000000000000
B0647443205506S11658827EA0144301436000000000000
B0647483205551S11658894EA0145401446000000000000
B0647523205623S11658903EA0146201451000000000000
B0647563205678S11658855EA0146101451000000000000
B0648003205685S11658781EA0147001462000000000000
B0648043205644S11658732EA0148201475000000000000
B0648083205587S11658741EA0148801480000000000000
B0648123205548S11658810EA0149401485000000000000
B0648163205548S11658897EA0150001494000000000000
B0648203205597S11658962EA0151101507000000000000
B0648243205668S11658962EA0151801509000000000000
B0648283205716S11658906EA0152001515000000000000
B0648323205713S11658838EA0153301530000000000000
B0648363205660S11658816EA0154101534000000000000
B0648403205612S11658866EA0154101534000000000000
B0648443205621S11658949EA0154901545000000000000
B0648483205677S11658996EA0155501550000000000000
B0648523205744S11658996EA0155801556000000000000
B0648563205803S11658964EA0156901568000000000000
B0649003205838S11658907EA0157101564000000000000
B0649043205855S11658832EA0156401554000000000000
B0649083205873S11658749EA0156001552000000000000
B0649123205885S11658659EA0156301561000000000000
B0649163205890S11658570EA0157401576000000000000
B0649203205895S11658486EA0158301579000000000000
B0649243205902S11658399EA0158601581000000000000
B0649283205907S11658312EA0158401580000000000000
B0649323205911S11658219EA0158101575000000000000
B0649363205912S11658128EA0159401594000000000000
B0649403205899S11658047EA0160201596000000000000
B0649443205881S11657965EA0159401588000000000000
B0649483205873S11657876EA0159101587000000000000
B0649523205870S11657789EA0159401591000000000000
B0649563205883S11657701EA0159501590000000000000
B0650003205902S11657614EA0159401592000000000000
B0650043205915S11657530EA0159101583000000000000
B0650083205924S11657442EA0158101572000000000000
B0650123205930S11657352EA0157201569000000000000
B0650163205935S11657260EA0156801561000000000000
B0650203205947S11657169EA0155701550000000000000
B0650243205956S11657078EA0155001540000000000000
B0650283205961S11656988EA0154401536000000000000
B0650323205963S11656899EA0153701528000000000000
B0650363205965S11656806EA0152901522000000000000
B0650403205969S11656715EA0152501515000000000000
B0650443205980S11656626EA0151501506000000000000
B0650483205994S11656536EA0150701497000000000000
B0650523206008S11656446EA0149401483000000000000
B0650563206020S11656355EA0149201484000000000000
B0651003206028S11656269EA0149401484000000000000
B0651043206033S11656188EA0148801478000000000000
B0651083206042S11656104EA0148201468000000000000
B0651123206052S11656021EA0147301463000000000000
B0651163206060S11655935EA0147101460000000000000
B0651203206067S11655850EA0147001459000000000000
B0651243206076S11655766EA0146901459000000000000
B0651283206086S11655688EA0147201462000000000000
B0651323206095S11655612EA0146701452000000000000
B0651363206098S11655530EA0145501440000000000000
B0651403206107S11655447EA0144801433000000000000
B0651443206115S11655363EA0144301432000000000000
B0651483206120S11655283EA0144301432000000000000
B0651523206128S11655203EA0144601435000000000000
B0651563206138S11655128EA0144501435000000000000
B0652003206146S11655054EA0144701434000000000000
B0652043206153S11654981EA0144701435000000000000
B0652083206155S11654910EA0144901441000000000000
B0652123206149S11654842EA0145601450000000000000
B0652163206142S11654776EA0147001464000000000000
B0652203206125S11654715EA0147401466000000000000
B0652243206076S11654681EA0147801471000000000000
B0652283206024S11654708EA0148601479000000000000
B0652323206003S11654785EA0148901479000000000000
B0652363206032S11654872EA0149301484000000000000
B0652403206091S11654932EA0149601486000000000000
B0652443206163S11654949EA0149601483000000000000
B0652483206227S11654921EA0149601490000000000000
B0652523206246S11654862EA0150901503000000000000
B0652563206208S11654828EA0152101514000000000000
B0653003206160S11654852EA0152801520000000000000
B0653043206141S11654921EA0153001518000000000000
B0653083206169S11655002EA0152201509000000000000
B0653123206228S11655063EA0151801506000000000000
B0653163206303S11655085EA0151801507000000000000
B0653203206372S11655055EA0151601506000000000000
B0653243206415S11654990EA0151701504000000000000
B0653283206429S11654910EA0151601513000000000000
B0653323206432S11654833EA0152701522000000000000
B0653363206432S11654759EA0152701513000000000000
B0653403206432S11654681EA0151201496000000000000
B0653443206440S11654594EA0149501480000000000000
B0653483206457S11654504EA0148401472000000000000
B0653523206476S11654416EA0147601465000000000000
B0653563206500S11654327EA0146201449000000000000
B0654003206527S11654239EA0145301441000000000000
B0654043206557S11654157EA0145101439000000000000
B0654083206583S11654078EA0144501432000000000000
B0654123206605S11653998EA0143401416000000000000
B0654163206626S11653916EA0141801399000000000000
B0654203206645S11653832EA0140401387000000000000
B0654243206665S11653750EA0139701380000000000000
B0654283206684S11653671EA0138701371000000000000
B0654323206704S11653590EA0137701358000000000000
B0654363206721S11653510EA0136201342000000000000
B0654403206745S11653426EA0135201327000000000000
B0654443206777S11653342EA0133901317000000000000
B0654483206809S11653257EA0133301317000000000000
B0654523206842S11653175EA0134001325000000000000
B0654563206874S11653100EA0135201337000000000000
B0655003206897S11653025EA0135701338000000000000
B0655043206891S11652951EA0135601339000000000000
B0655083206844S11652908EA0136301348000000000000
B0655123206787S11652927EA0137301356000000000000
B0655163206756S11652996EA0137601361000000000000
B0655203206762S11653079EA0137301355000000000000
B0655243206767S11653169EA0136301343000000000000
B0655283206767S11653261EA0135201333000000000000
B0655323206762S11653355EA0134801330000000000000
B0655363206760S11653448EA0134401328000000000000
B0655403206757S11653536EA0134001323000000000000
B0655443206748S11653621EA0133201313000000000000
B0655483206736S11653706EA0132101300000000000000
B0655523206718S11653793EA0130601285000000000000
B0655563206697S11653881EA0129101272000000000000
B0656003206678S11653968EA0128701267000000000000
B0656043206661S11654053EA0128301263000000000000
B0656083206645S11654136EA0127501252000000000000
B0656123206630S11654219EA0125901235000000000000
B0656163206611S11654304EA0124301222000000000000
B0656203206593S11654387EA0124101221000000000000
B0656243206579S11654466EA0124101220000000000000
B0656283206566S11654546EA0124001222000000000000
B0656323206571S11654626EA0124901237000000000000
B0656363206624S11654677EA0126301245000000000000
B0656403206688S11654663EA0126101242000000000000
B0656443206718S11654604EA0126601249000000000000
B0656483206709S11654546EA0126801250000000000000
B0656523206666S11654516EA0126701247000000000000
B0656563206613S11654538EA0126501243000000000000
B0657003206588S11654609EA0126501246000000000000
B0657043206611S11654691EA0127401258000000000000
B0657083206673S11654750EA0128001262000000000000
B0657123206747S11654758EA0128301264000000000000
B0657163206803S11654715EA0128501268000000000000
B0657203206822S11654647EA0128701269000000000000
B0657243206803S11654583EA0128801268000000000000
B0657283206757S11654546EA0128601267000000000000
B0657323206699S11654553EA0128001259000000000000
B0657363206653S11654618EA0127401256000000000000
B0657403206640S11654708EA0127501255000000000000
B0657443206645S11654810EA0127401256000000000000
B0657483206656S11654914EA0127601260000000000000
B0657523206673S11655014EA0128501274000000000000
B0657563206697S11655110EA0129801286000000000000
B0658003206758S11655172EA0131401303000000000000
B0658043206836S11655177EA0132301309000000000000
B0658083206901S11655132EA0133001315000000000000
B0658123206933S11655057EA0133001315000000000000
B0658163206912S11654985EA0133801327000000000000
B0658203206858S11654962EA0134701333000000000000
B0658243206813S11655006EA0135101336000000000000
B0658283206804S11655084EA0135401339000000000000
B0658323206829S11655159EA0136701354000000000000
B0658363206890S11655174EA0137601363000000000000
B0658403206939S11655127EA0137601363000000000000
B0658443206940S11655054EA0137701363000000000000
B0658483206896S11655014EA0137901366000000000000
B0658523206845S11655038EA0138201370000000000000
B0658563206822S11655112EA0138901378000000000000
B0659003206844S11655192EA0139701386000000000000
B0659043206903S11655244EA0140401394000000000000
B0659083206973S11655252EA0141201401000000000000
B0659123207037S11655219EA0141301398000000000000
B0659163207069S11655155EA0141301402000000000000
B0659203207064S11655085EA0141501405000000000000
B0659243207022S11655036EA0141901408000000000000
B0659283206966S11655029EA0142301412000000000000
B0659323206917S11655075EA0142801416000000000000
B0659363206899S11655155EA0142901417000000000000
B0659403206929S11655241EA0143201420000000000000
B0659443206995S11655293EA0144101435000000000000
B0659483207066S11655294EA0145801452000000000000
B0659523207120S11655250EA0146101452000000000000
B0659563207130S11655180EA0146401455000000000000
B0700003207092S11655127EA0146601457000000000000
B0700043207034S11655127EA0146701456000000000000
B0700083206992S11655190EA0146301453000000000000
B0700123206982S11655278EA0146701459000000000000
B0700163206988S11655363EA0148001475000000000000
B0700203207014S11655437EA0149201486000000000000
B0700243207077S11655475EA0149601488000000000000
B0700283207142S11655452EA0150201497000000000000
B0700323207161S11655388EA0150701500000000000000
B0700363207129S11655336EA0150301497000000000000
B0700403207073S11655327EA0150501504000000000000
B0700443207024S11655371EA0151301512000000000000
B0700483207014S11655449EA0152101520000000000000
B0700523207052S11655522EA0152901527000000000000
B0700563207125S11655544EA0153201528000000000000
B0701003207183S11655499EA0153801537000000000000
B0701043207195S11655428EA0155301554000000000000
B0701083207154S11655391EA0156101558000000000000
B0701123207104S11655424EA0156901568000000000000
B0701163207096S11655501EA0157601579000000000000
B0701203207144S11655560EA0158801588000000000000
B0701243207211S11655558EA0159501593000000000000
B0701283207251S11655505EA0160001600000000000000
B0701323207239S11655444EA0160301602000000000000
B0701363207190S11655422EA0160701609000000000000
B0701403207146S11655461EA0161801620000000000000
B0701443207139S11655536EA0162601626000000000000
B0701483207178S11655604EA0163401635000000000000
B0701523207245S11655621EA0164301644000000000000
B0701563207287S11655571EA0164801649000000000000
B0702003207263S11655517EA0165501654000000000000
B0702043207206S11655534EA0165501656000000000000
B0702083207187S11655609EA0166401668000000000000
B0702123207226S11655681EA0167501679000000000000
B0702163207295S11655692EA0168401687000000000000
B0702203207336S11655640EA0169401697000000000000
B0702243207316S11655580EA0170101704000000000000
B0702283207261S11655570EA0170301705000000000000
B0702323207221S11655629EA0170701714000000000000
B0702363207233S11655709EA0172001728000000000000
B0702403207291S11655757EA0173401738000000000000
B0702443207352S11655733EA0174101748000000000000
B0702483207359S11655668EA0174901751000000000000
B0702523207310S11655643EA0174801751000000000000
B0702563207271S11655699EA0175501764000000000000
B0703003207291S11655775EA0176601771000000000000
B0703043207360S11655808EA0177101775000000000000
B0703083207423S11655770EA0177801781000000000000
B0703123207443S11655699EA0178701791000000000000
B0703163207414S11655644EA0179001794000000000000
B0703203207354S11655656EA0178601788000000000000
B0703243207324S11655733EA0178801796000000000000
B0703283207355S11655814EA0179701806000000000000
B0703323207421S11655866EA0179801802000000000000
B0703363207505S11655870EA0180101806000000000000
B0703403207559S11655816EA0180601816000000000000
B0703443207581S11655744EA0181401819000000000000
B0703483207554S11655684EA0181701823000000000000
B0703523207498S11655679EA0182001826000000000000
B0703563207453S11655733EA0182401833000000000000
B0704003207441S11655813EA0183201840000000000000
B0704043207473S11655891EA0183701844000000000000
B0704083207542S11655937EA0184101846000000000000
B0704123207620S11655963EA0185001849000000000000
B0704163207697S11655991EA0185401853000000000000
B0704203207774S11656028EA0184801843000000000000
B0704243207852S11656071EA0183601834000000000000
B0704283207922S11656120EA0182501830000000000000
B0704323207989S11656168EA0181901818000000000000
B0704363208058S11656216EA0180501801000000000000
B0704403208122S11656276EA0178801786000000000000
B0704443208165S11656358EA0177801778000000000000
B0704483208178S11656451EA0177001770000000000000
B0704523208158S11656544EA0176101760000000000000
B0704563208112S11656619EA0174801745000000000000
B0705003208048S11656671EA0173501733000000000000
B0705043207978S11656687EA0172301721000000000000
B0705083207909S11656672EA0171501709000000000000
B0705123207840S11656674EA0170901704000000000000
B0705163207780S11656722EA0170001694000000000000
B0705203207731S11656792EA0169201690000000000000
B0705243207684S11656864EA0169201693000000000000
B0705283207641S11656936EA0169601695000000000000
B0705323207592S11657000EA0169701698000000000000
B0705363207532S11657030EA0170001701000000000000
B0705403207473S11657018EA0170001700000000000000
B0705443207430S11656969EA0170101703000000000000
B0705483207419S11656900EA0170801712000000000000
B0705523207428S11656827EA0171501718000000000000
B0705563207441S11656750EA0172001724000000000000
B0706003207455S11656672EA0173201739000000000000
B0706043207468S11656602EA0175001758000000000000
B0706083207477S11656532EA0176401772000000000000
B0706123207488S11656462EA0177301780000000000000
B0706163207498S11656389EA0177501780000000000000
B0706203207510S11656318EA0176801770000000000000
B0706243207502S11656243EA0176001762000000000000
B0706283207459S11656202EA0176301766000000000000
B0706323207407S11656223EA0176301762000000000000
B0706363207372S11656290EA0175301752000000000000
B0706403207346S11656364EA0174901752000000000000
B0706443207321S11656437EA0175001750000000000000
B0706483207299S11656513EA0174001737000000000000
B0706523207265S11656584EA0172601725000000000000
B0706563207222S11656646EA0172401724000000000000
B0707003207177S11656696EA0172101721000000000000
B0707043207125S11656737EA0171701717000000000000
B0707083207073S11656779EA0172101723000000000000
B0707123207025S11656827EA0172801731000000000000
B0707163206977S11656874EA0173501740000000000000
B0707203206929S11656918EA0174101741000000000000
B0707243206875S11656964EA0173801737000000000000
B0707283206821S11657010EA0173401731000000000000
B0707323206765S11657061EA0172701725000000000000
B0707363206704S11657108EA0172001718000000000000
B0707403206640S11657146EA0171701715000000000000
B0707443206580S11657182EA0171601715000000000000
B0707483206522S11657221EA0171201709000000000000
B0707523206465S11657261EA0170501702000000000000
B0707563206409S11657306EA0169901697000000000000
B0708003206353S11657350EA0169101688000000000000
B0708043206292S11657397EA0167701669000000000000
B0708083206227S11657447EA0166401661000000000000
B0708123206163S11657491EA0166201658000000000000
B0708163206101S11657530EA0165501646000000000000
B0708203206038S11657576EA0164601642000000000000
B0708243205978S11657624EA0165601659000000000000
B0708283205925S11657671EA0167101672000000000000
B0708323205873S11657719EA0168101682000000000000
B0708363205822S11657768EA0168901688000000000000
B0708403205772S11657826EA0168901687000000000000
B0708443205721S11657879EA0169101690000000000000
B0708483205670S11657931EA0169601693000000000000
B0708523205620S11657987EA0169001686000000000000
B0708563205569S11658047EA0168901687000000000000
B0709003205519S11658108EA0168801687000000000000
B0709043205475S11658177EA0169101691000000000000
B0709083205453S11658260EA0169901702000000000000
B0709123205480S11658342EA0170801710000000000000
B0709163205548S11658379EA0171601718000000000000
B0709203205607S11658352EA0171901721000000000000
B0709243205621S11658286EA0171701717000000000000
B0709283205591S11658226EA0171401715000000000000
B0709323205529S11658205EA0171001711000000000000
B0709363205466S11658240EA0170901713000000000000
B0709403205449S11658326EA0171801721000000000000
B0709443205495S11658401EA0172201723000000000000
B0709483205571S11658424EA0172401726000000000000
B0709523205646S11658403EA0172301723000000000000
B0709563205716S11658364EA0171501713000000000000
B0710003205787S11658314EA0170601705000000000000
B0710043205857S11658264EA0170601707000000000000
B0710083205925S11658214EA0171301715000000000000
B0710123205991S11658174EA0172101722000000000000
B0710163206051S11658135EA0172601723000000000000
B0710203206111S11658095EA0171601711000000000000
B0710243206172S11658052EA0171201709000000000000
B0710283206238S11658010EA0170701702000000000000
B0710323206302S11657957EA0170301695000000000000
B0710363206363S11657897EA0170201702000000000000
B0710403206431S11657842EA0169401688000000000000
B0710443206502S11657792EA0167801672000000000000
B0710483206572S11657741EA0166701662000000000000
B0710523206641S11657694EA0166401661000000000000
B0710563206706S11657654EA0166301661000000000000
B0711003206773S11657620EA0165901654000000000000
B0711043206844S11657588EA0164501636000000000000
B0711083206923S11657555EA0162601619000000000000
B0711123207003S11657527EA0162201616000000000000
B0711163207079S11657494EA0162401619000000000000
B0711203207152S11657459EA0163201629000000000000
B0711243207204S11657408EA0165001652000000000000
B0711283207211S11657346EA0166501663000000000000
B0711323207169S11657316EA0167101668000000000000
B0711363207125S11657352EA0167301670000000000000
B0711403207117S11657432EA0167301665000000000000
B0711443207152S11657511EA0167401673000000000000
B0711483207216S11657558EA0168401682000000000000
B0711523207289S11657553EA0168701685000000000000
B0711563207342S11657506EA0169301692000000000000
B0712003207349S11657442EA0169901699000000000000
B0712043207306S11657412EA0170501707000000000000
B0712083207271S11657465EA0171701719000000000000
B0712123207303S11657541EA0171801714000000000000
B0712163207375S11657547EA0171301712000000000000
B0712203207411S11657491EA0172001723000000000000
B0712243207401S11657433EA0172501723000000000000
B0712283207359S11657399EA0172601728000000000000
B0712323207306S11657408EA0172601725000000000000
B0712363207263S11657465EA0172101716000000000000
B0712403207251S11657551EA0171901722000000000000
B0712443207276S11657634EA0172801728000000000000
B0712483207332S11657698EA0173201733000000000000
B0712523207407S11657731EA0172901726000000000000
B0712563207494S11657741EA0171901720000000000000
B0713003207584S11657748EA0171501713000000000000
B0713043207677S11657763EA0170901700000000000000
B0713083207776S11657789EA0169901687000000000000
B0713123207879S11657819EA0169001679000000000000
B0713163207984S11657852EA0168001668000000000000
B0713203208090S11657888EA0167101659000000000000
B0713243208194S11657927EA0166501656000000000000
B0713283208296S11657967EA0166401655000000000000
B0713323208395S11658009EA0166601659000000000000
B0713363208493S11658050EA0166601661000000000000
B0713403208585S11658079EA0167801671000000000000
B0713443208672S11658096EA0167801668000000000000
B0713483208758S11658091EA0167201662000000000000
B0713523208833S11658052EA0166301653000000000000
B0713563208905S11658006EA0166601663000000000000
B0714003208981S11658011EA0168301683000000000000
B0714043209046S11658066EA0168401675000000000000
B0714083209113S11658136EA0168401678000000000000
B0714123209180S11658201EA0168901684000000000000
B0714163209248S11658262EA0169101683000000000000
B0714203209317S11658326EA0168401672000000000000
B0714243209393S11658383EA0167401673000000000000
B0714283209469S11658443EA0167901678000000000000
B0714323209546S11658502EA0168201680000000000000
B0714363209626S11658548EA0168101677000000000000
B0714403209713S11658591EA0167201669000000000000
B0714443209803S11658635EA0166901666000000000000
B0714483209889S11658684EA0167201673000000000000
B0714523209969S11658728EA0168001681000000000000
B0714563210049S11658768EA0168901689000000000000
B0715003210124S11658804EA0169701698000000000000
B0715043210198S11658828EA0170601706000000000000
B0715083210272S11658845EA0170801705000000000000
B0715123210350S11658856EA0170901706000000000000
B0715163210428S11658866EA0170601705000000000000
B0715203210509S11658872EA0170501702000000000000
B0715243210592S11658877EA0170601706000000000000
B0715283210674S11658888EA0171401717000000000000
B0715323210755S11658903EA0171901718000000000000
B0715363210831S11658934EA0172001720000000000000
B0715403210904S11658977EA0172001718000000000000
B0715443210977S11659024EA0171501713000000000000
B0715483211050S11659071EA0171701717000000000000
B0715523211121S11659118EA0171001706000000000000
B0715563211194S11659170EA0169901692000000000000
B0716003211267S11659227EA0169101687000000000000
B0716043211337S11659280EA0169001688000000000000
B0716083211405S11659328EA0168901688000000000000
B0716123211472S11659378EA0168201675000000000000
B0716163211545S11659434EA0165901649000000000000
B0716203211622S11659500EA0164801640000000000000
B0716243211697S11659557EA0165101650000000000000
B0716283211766S11659601EA0165901655000000000000
B0716323211834S11659639EA0165501643000000000000
B0716363211906S11659683EA0164101634000000000000
B0716403211974S11659733EA0163901634000000000000
B0716443212035S11659791EA0164001636000000000000
B0716483212088S11659859EA0163701630000000000000
B0716523212143S11659928EA0163301626000000000000
B0716563212200S11659995EA0162801620000000000000
B0717003212261S11700056EA0162101613000000000000
B0717043212325S11700114EA0161501607000000000000
B0717083212390S11700166EA0161501611000000000000
B0717123212461S11700194EA0162201615000000000000
B0717163212528S11700167EA0163201631000000000000
B0717203212560S11700099EA0164401639000000000000
B0717243212564S11700025EA0165001642000000000000
B0717283212532S11659963EA0164401633000000000000
B0717323212472S11659928EA0163001623000000000000
B0717363212408S11659903EA0162501618000000000000
B0717403212343S11659881EA0162001610000000000000
B0717443212276S11659861EA0161001601000000000000
B0717483212205S11659844EA0160001592000000000000
B0717523212134S11659824EA0159201583000000000000
B0717563212064S11659798EA0158301577000000000000
B0718003211993S11659768EA0158001570000000000000
B0718043211923S11659737EA0157101559000000000000
B0718083211850S11659711EA0156101553000000000000
B0718123211783S11659685EA0156001553000000000000
B0718163211720S11659662EA0155701550000000000000
B0718203211658S11659648EA0155201540000000000000
B0718243211593S11659638EA0153901524000000000000
B0718283211525S11659625EA0152401513000000000000
B0718323211460S11659608EA0151401503000000000000
B0718363211388S11659577EA0147701457000000000000
B0718403211311S11659534EA0146501437000000000000
B0718443211239S11659488EA0145101427000000000000
B0718483211168S11659440EA0144101420000000000000
B0718523211100S11659389EA0144101426000000000000
B0718563211042S11659341EA0145601446000000000000
B0719003210989S11659296EA0146201445000000000000
B0719043210931S11659250EA0145601442000000000000
B0719083210872S11659213EA0145501445000000000000
B0719123210813S11659175EA0146201453000000000000
B0719163210758S11659129EA0145701441000000000000
B0719203210695S11659083EA0144601430000000000000
B0719243210627S11659041EA0144401435000000000000
B0719283210562S11659007EA0145001444000000000000
B0719323210496S11658979EA0145501446000000000000
B0719363210432S11658955EA0146301458000000000000
B0719403210371S11658940EA0147701473000000000000
B0719443210315S11658920EA0148501476000000000000
B0719483210262S11658895EA0148101472000000000000
B0719523210202S11658873EA0147301460000000000000
B0719563210137S11658850EA0146701457000000000000
B0720003210071S11658832EA0147701478000000000000
B0720043210010S11658821EA0149501491000000000000
B0720083209949S11658802EA0150101495000000000000
B0720123209889S11658778EA0150701503000000000000
B0720163209826S11658755EA0151801515000000000000
B0720203209764S11658738EA0153601535000000000000
B0720243209704S11658723EA0155001545000000000000
B0720283209644S11658702EA0155401549000000000000
B0720323209583S11658677EA0155701549000000000000
B0720363209521S11658652EA0155101537000000000000
B0720403209458S11658626EA0154101532000000000000
B0720443209392S11658603EA0152701516000000000000
B0720483209325S11658581EA0152101512000000000000
B0720523209257S11658559EA0151801509000000000000
B0720563209191S11658534EA0151301505000000000000
B0721003209126S11658507EA0151501507000000000000
B0721043209059S11658485EA0151601512000000000000
B0721083208994S11658474EA0152501519000000000000
B0721123208932S11658461EA0153101525000000000000
B0721163208868S11658450EA0153101523000000000000
B0721203208805S11658444EA0153301529000000000000
B0721243208741S11658446EA0153901534000000000000
B0721283208678S11658447EA0154001534000000000000
B0721323208619S11658446EA0154401537000000000000
B0721363208563S11658444EA0154301535000000000000
B0721403208506S11658443EA0153701528000000000000
B0721443208447S11658443EA0153301527000000000000
B0721483208389S11658446EA0153701531000000000000
B0721523208331S11658434EA0154101536000000000000
B0721563208275S11658420EA0154401538000000000000
B0722003208216S11658403EA0154701540000000000000
B0722043208153S11658383EA0154801540000000000000
B0722083208090S11658362EA0154001530000000000000
B0722123208023S11658343EA0153401522000000000000
B0722163207963S11658325EA0153401522000000000000
B0722203207904S11658312EA0152601505000000000000
B0722243207837S11658297EA0150101479000000000000
B0722283207767S11658281EA0148901474000000000000
B0722323207697S11658274EA0148801470000000000000
B0722363207627S11658277EA0148201463000000000000
B0722403207558S11658273EA0148101466000000000000
B0722443207497S11658268EA0148801478000000000000
B0722483207440S11658271EA0149401482000000000000
B0722523207382S11658281EA0149001474000000000000
B0722563207320S11658284EA0147701456000000000000
B0723003207255S11658265EA0146001440000000000000
B0723043207199S11658229EA0145301439000000000000
B0723083207154S11658183EA0144701434000000000000
B0723123207113S11658132EA0143901420000000000000
B0723163207069S11658080EA0142301405000000000000
B0723203207022S11658031EA0141301394000000000000
B0723243206970S11657987EA0140201384000000000000
B0723283206914S11657948EA0140101385000000000000
B0723323206857S11657913EA0140001381000000000000
B0723363206804S11657867EA0139001365000000000000
B0723403206752S11657815EA0136901348000000000000
B0723443206696S11657768EA0136101342000000000000
B0723483206634S11657735EA0135701337000000000000
