ACAM4N6
HFDTE140214
HFFXA050
HFPLTPILOT:JOHN WELSH              
HFGTYGLIDERTYPE:HORNET      
HFGIDGLIDERID:VH-GMY      
HFDTM100GPSDATUM:
HFRFWFIRMWAREVERSION:F2.6
HFRHWHARDWAREVERSION:300 Series Version 2
HFFTYFRTYPE:CAMBRIDGE AERO INSTRUMENTS, 302+
HFGPS:GARMIN,LVS-25,12,18000
HFPRSPRESSALTSENSOR:INTERSEMA, MS5534-AP, 20000
I033638FXA3941ENL4247REX
LCAMSBVER:5FWVER:F26300
C140214041129140214000102
C0000000N00000000WTAKEOFF     
C3207549S11656849EBEVAIR      
C3136216S11753732EDOODLAKN    
C3111283S11701799EDOWERIN     
C3207549S11656849EBEVAIR      
C0000000N00000000WLANDING     
B0454223207339S11656860EA0025400205000000000000
B0454243207339S11656860EA0025300205000000000000
B0454263207339S11656860EA0025300205000000000000
B0454283207339S11656860EA0025300205000000000000
B0454303207339S11656860EA0025300205000000000000
B0454323207339S11656860EA0025400205000000000000
B0454343207339S11656860EA0025300205000000000000
B0454363207339S11656860EA0025300205000000000000
B0454383207339S11656860EA0025300205000000000000
B0454403207339S11656860EA0025300205000000000000
B0454423207341S11656861EA0025300205000000000000
B0454443207342S11656861EA0025400205000000000000
B0454463207342S11656862EA0025300205000000000000
B0454483207343S11656862EA0025300206000000000000
B0454503207346S11656864EA0025300205000000000000
B0454553207364S11656877EA0025200205000000000000
B0454593207395S11656900EA0025000205000000000000
B0455033207441S11656929EA0024900205000000000000
B0455073207499S11656964EA0024900205000000000000
B0455113207566S11657005EA0024900206000000000000
B0455153207636S11657055EA0025100211000000000000
B0455193207702S11657113EA0025700225000000000000
B0455233207762S11657174EA0028100249000000000000
B0455273207817S11657241EA0029300266000000000000
B0455313207869S11657304EA0031100286000000000000
B0455353207917S11657371EA0033100307000000000000
B0455393207969S11657434EA0034600319000000000000
B0455433208026S11657488EA0035800334000000000000
B0455473208088S11657538EA0037100341000000000000
B0455513208152S11657588EA0037900352000000000000
B0455553208222S11657629EA0039100364000000000000
B0455593208298S11657660EA0040100379000000000000
B0456033208376S11657681EA0042400407000000000000
B0456073208451S11657701EA0045800441000000000000
B0456113208528S11657718EA0048600469000000000000
B0456153208597S11657699EA0050600487000000000000
B0456193208608S11657625EA0052200492000000000000
B0456233208558S11657564EA0051600485000000000000
B0456273208482S11657549EA0050900477000000000000
B0456313208411S11657585EA0050000469000000000000
B0456353208392S11657662EA0050100474000000000000
B0456393208457S11657667EA0051000483000000000000
B0456433208444S11657581EA0052700501000000015000
B0456473208377S11657575EA0053700505000000015000
B0456513208351S11657640EA0053600504000000015000
B0456553208403S11657666EA0054800521000000000000
B0456593208425S11657592EA0056100533000000015000
B0457033208366S11657555EA0056900541000000015000
B0457073208325S11657597EA0056800537000000000000
B0457113208350S11657653EA0056800541000000000000
B0457153208411S11657660EA0057500550000000000000
B0457193208424S11657589EA0058900564000000000000
B0457233208368S11657559EA0059800573000000000000
B0457273208338S11657608EA0059800569000000000000
B0457313208377S11657653EA0059600570000000000000
B0457353208434S11657616EA0060300579000000000000
B0457393208407S11657543EA0061600593000000015000
B0457433208346S11657547EA0062200596000000000000
B0457473208333S11657607EA0062000592000000000000
B0457513208389S11657633EA0061900598000000000000
B0457553208429S11657579EA0063800618000000015000
B0457593208394S11657519EA0065300628000000015000
B0458033208334S11657525EA0064900621000000000000
B0458073208322S11657590EA0064300618000000000000
B0458113208377S11657621EA0064800628000000000000
B0458153208426S11657576EA0065700635000000000000
B0458193208405S11657503EA0066900649000000000000
B0458233208343S11657480EA0066900643000000000000
B0458273208295S11657524EA0066300639000000000000
B0458313208312S11657588EA0065900635000000000000
B0458353208376S11657607EA0066000640000000000000
B0458393208426S11657550EA0066400645000000000000
B0458433208395S11657476EA0067200656000000000000
B0458473208327S11657486EA0067500651000000000000
B0458513208296S11657559EA0066600644000000000000
B0458553208334S11657624EA0066800652000000000000
B0458593208399S11657603EA0067700659000000000000
B0459033208431S11657528EA0068000660000000000000
B0459073208394S11657458EA0068600666000000000000
B0459113208324S11657429EA0068300658000000000000
B0459153208252S11657445EA0067600652000000000000
B0459193208209S11657508EA0067300652000000000000
B0459233208212S11657584EA0067300657000000000000
B0459273208246S11657650EA0068200669000000000000
B0459313208303S11657677EA0069400677000000000000
B0459353208353S11657638EA0069600680000000000000
B0459393208352S11657564EA0069900681000000000000
B0459433208303S11657511EA0069500675000000000000
B0459473208239S11657521EA0069600677000000000000
B0459513208218S11657585EA0069500675000000000000
B0459553208248S11657653EA0068900670000000000000
B0459593208301S11657710EA0067500654000000000000
B0500033208373S11657731EA0067300657000000000000
B0500073208434S11657699EA0067900663000000000000
B0500113208455S11657627EA0068600669000000000000
B0500153208454S11657547EA0069100676000000000000
B0500193208420S11657484EA0070400690000000000000
B0500233208365S11657501EA0071500695000000000000
B0500273208364S11657568EA0071000691000000000000
B0500313208417S11657616EA0070600691000000000000
B0500353208474S11657589EA0072300712000000000000
B0500393208472S11657524EA0073500720000000000000
B0500433208415S11657491EA0073300718000000000000
B0500473208370S11657540EA0073900724000000000000
B0500513208390S11657607EA0074500730000000000000
B0500553208450S11657620EA0074900736000000000000
B0500593208483S11657564EA0075200737000000000000
B0501033208443S11657504EA0074800729000000000000
B0501073208374S11657524EA0074200736000000000000
B0501113208346S11657590EA0076600756000000000000
B0501153208361S11657660EA0077200755000000000000
B0501193208415S11657701EA0076800752000000000000
B0501233208474S11657685EA0076900756000000000000
B0501273208486S11657621EA0077400759000000000000
B0501313208447S11657560EA0076700749000000000000
B0501353208395S11657506EA0076000748000000000000
B0501393208338S11657458EA0076100750000000000000
B0501433208275S11657417EA0076200748000000000000
B0501473208212S11657380EA0075800744000000000000
B0501513208147S11657345EA0075900742000000000000
B0501553208079S11657324EA0075300735000000000000
B0501593208006S11657309EA0075700743000000000000
B0502033207974S11657247EA0076200747000000000000
B0502073208000S11657183EA0076700748000000000000
B0502113208006S11657111EA0074700721000000000000
B0502153207966S11657034EA0071800695000000000000
B0502193207915S11656955EA0069400677000000000000
B0502233207865S11656878EA0069200675000000000000
B0502273207814S11656800EA0068300660000000000000
B0502313207758S11656726EA0067800659000000000000
B0502353207705S11656654EA0068900673000000000000
B0502393207646S11656596EA0069600675000000000000
B0502433207581S11656544EA0068500660000000000000
B0502473207534S11656470EA0068100656000000000000
B0502513207516S11656385EA0067100645000000000000
B0502553207510S11656298EA0065800632000000000000
B0502593207490S11656212EA0064800626000000000000
B0503033207438S11656150EA0064800626000000000000
B0503073207368S11656123EA0064600623000000000000
B0503113207294S11656103EA0064500621000000000000
B0503153207226S11656060EA0064000614000000000000
B0503193207174S11655998EA0063600609000000000000
B0503233207129S11655928EA0062900604000000000000
B0503273207089S11655855EA0062700605000000000000
B0503313207051S11655781EA0063600615000000000000
B0503353206992S11655747EA0065600639000000000000
B0503393206955S11655807EA0066900644000000000000
B0503433206998S11655848EA0067000648000000000000
B0503473207037S11655801EA0067200654000000000000
B0503513207000S11655744EA0068400669000000000000
B0503553206942S11655775EA0070000683000000000000
B0503593206938S11655846EA0071000690000000000000
B0504033206986S11655872EA0071100692000000000000
B0504073207020S11655826EA0072500709000000000000
B0504113206994S11655772EA0073900723000000000000
B0504153206934S11655775EA0075300736000000000000
B0504193206909S11655840EA0076100746000000000000
B0504233206947S11655883EA0076700752000000000000
B0504273206986S11655852EA0077700768000000000000
B0504313206965S11655796EA0078600773000000000000
B0504353206899S11655798EA0079200784000000000000
B0504393206868S11655864EA0080500797000000000000
B0504433206905S11655907EA0081500808000000000000
B0504473206943S11655877EA0083100822000000000000
B0504513206935S11655814EA0083700829000000000000
B0504553206887S11655779EA0085400851000000000000
B0504593206842S11655829EA0087000863000000000000
B0505033206862S11655889EA0088000871000000000000
B0505073206910S11655887EA0088700879000000000000
B0505113206925S11655829EA0089300888000000000000
B0505153206879S11655788EA0091600916000000000000
B0505193206826S11655826EA0093200929000000000000
B0505233206829S11655896EA0093900938000000000000
B0505273206873S11655918EA0094900948000000000000
B0505313206907S11655873EA0095500954000000000000
B0505353206873S11655821EA0097600982000000000000
B0505393206818S11655847EA0099400994000000000000
B0505433206814S11655916EA0100101002000000000000
B0505473206857S11655948EA0100701009000000000000
B0505513206904S11655921EA0101601020000000000000
B0505553206908S11655861EA0103401039000000000000
B0505593206865S11655825EA0105201057000000000000
B0506033206806S11655839EA0106901073000000000000
B0506073206775S11655898EA0107601081000000000000
B0506113206791S11655960EA0108701093000000000000
B0506153206838S11655985EA0109701103000000000000
B0506193206881S11655956EA0110501110000000000000
B0506233206881S11655895EA0111301121000000000000
B0506273206826S11655878EA0112601132000000000000
B0506313206787S11655938EA0113301145000000000000
B0506353206806S11656002EA0114701158000000000000
B0506393206860S11656012EA0115001158000000000000
B0506433206891S11655956EA0115701169000000000000
B0506473206864S11655899EA0117001183000000000000
B0506513206797S11655907EA0117501186000000000000
B0506553206767S11655972EA0118801207000000000000
B0506593206801S11656017EA0120601218000000000000
B0507033206855S11656003EA0120701218000000000000
B0507073206868S11655935EA0121101226000000000000
B0507113206821S11655890EA0122501240000000000000
B0507153206764S11655924EA0123401249000000000000
B0507193206770S11655996EA0124501261000000000000
B0507233206823S11656021EA0125301267000000000000
B0507273206869S11655978EA0125801274000000000000
B0507313206857S11655907EA0126101274000000000000
B0507353206797S11655856EA0125301267000000000000
B0507393206721S11655842EA0126901288000000000000
B0507433206686S11655911EA0129001317000000000000
B0507473206717S11655972EA0130801327000000000000
B0507513206779S11655968EA0131101333000000000000
B0507553206816S11655907EA0132301346000000000000
B0507593206801S11655829EA0133201353000000000000
B0508033206736S11655796EA0134401369000000000000
B0508073206686S11655847EA0136501390000000000000
B0508113206714S11655911EA0138001404000000000000
B0508153206774S11655905EA0139501420000000000000
B0508193206784S11655837EA0141401442000000000000
B0508233206731S11655803EA0143001454000000000000
B0508273206674S11655839EA0143701461000000000000
B0508313206662S11655917EA0144801482000000000000
B0508353206700S11655974EA0146701498000000000000
B0508393206758S11655976EA0147801508000000000000
B0508433206790S11655918EA0148801517000000000000
B0508473206778S11655846EA0149501522000000000000
B0508513206751S11655778EA0150801540000000000000
B0508553206704S11655742EA0152101547000000000000
B0508593206648S11655762EA0152701555000000000000
B0509033206627S11655822EA0154301572000000000000
B0509073206657S11655878EA0154901577000000000000
B0509113206713S11655931EA0152801557000000000000
B0509153206783S11655990EA0151301545000000000000
B0509193206861S11656045EA0151001551000000000000
B0509233206940S11656094EA0151801553000000000000
B0509273207022S11656146EA0151801553000000000000
B0509313207105S11656198EA0150901535000000000000
B0509353207193S11656255EA0148401512000000000000
B0509393207278S11656319EA0146801498000000000000
B0509433207365S11656386EA0145301484000000000000
B0509473207450S11656459EA0144801481000000000000
B0509513207529S11656535EA0143601464000000000000
B0509553207601S11656628EA0142701456000000000000
B0509593207635S11656741EA0143701474000000000000
B0510033207620S11656852EA0146001498000000000000
B0510073207577S11656943EA0147801508000000000000
B0510113207524S11657030EA0146601483000000000000
B0510153207463S11657121EA0144301464000000000000
B0510193207401S11657213EA0143001453000000000000
B0510233207338S11657307EA0142301445000000000000
B0510273207278S11657399EA0141401436000000000000
B0510313207217S11657490EA0140401427000000000000
B0510353207155S11657580EA0139701419000000000000
B0510393207094S11657667EA0139301417000000000000
B0510433207038S11657753EA0139201415000000000000
B0510473206982S11657839EA0138801409000000000000
B0510513206923S11657923EA0138201402000000000000
B0510553206864S11658009EA0137401395000000000000
B0510593206803S11658093EA0136201384000000000000
B0511033206741S11658180EA0135401375000000000000
B0511073206684S11658270EA0134601366000000000000
B0511113206631S11658360EA0133601356000000000000
B0511153206579S11658452EA0132301343000000000000
B0511193206527S11658546EA0131401331000000000000
B0511233206478S11658639EA0130501324000000000000
B0511273206427S11658729EA0130201323000000000000
B0511313206380S11658817EA0130101321000000000000
B0511353206332S11658906EA0129501309000000000000
B0511393206285S11658999EA0128601304000000000000
B0511433206238S11659096EA0127601293000000000000
B0511473206195S11659192EA0129101317000000000000
B0511513206156S11659283EA0128901309000000000000
B0511553206124S11659375EA0128601304000000000000
B0511593206094S11659471EA0127801298000000000000
B0512033206069S11659564EA0129101317000000000000
B0512073206049S11659652EA0129601310000000000000
B0512113206041S11659746EA0129401320000000000000
B0512153206037S11659830EA0131901352000000000000
B0512193206058S11659899EA0133501356000000000000
B0512233206112S11659896EA0133901357000000000000
B0512273206121S11659825EA0133801357000000000000
B0512313206071S11659769EA0133101350000000000000
B0512353206002S11659725EA0133401359000000000000
B0512393205932S11659701EA0135701387000000000000
B0512433205889S11659751EA0138501411000000000000
B0512473205919S11659803EA0139701419000000000000
B0512513205964S11659770EA0140301427000000000000
B0512553205950S11659700EA0141101438000000000000
B0512593205889S11659682EA0142701457000000000000
B0513033205848S11659735EA0144601473000000000000
B0513073205876S11659792EA0145701483000000000000
B0513113205924S11659774EA0146701497000000000000
B0513153205925S11659709EA0148301514000000000000
B0513193205877S11659672EA0150201532000000000000
B0513233205825S11659703EA0151601548000000000000
B0513273205825S11659768EA0152801561000000000000
B0513313205869S11659792EA0154001572000000000000
B0513353205906S11659750EA0155101586000000000000
B0513393205882S11659687EA0156401598000000000000
B0513433205822S11659682EA0157701611000000000000
B0513473205795S11659742EA0159101625000000000000
B0513513205829S11659790EA0159901633000000000000
B0513553205877S11659772EA0161601653000000000000
B0513593205881S11659708EA0163201669000000000000
B0514033205830S11659669EA0164301676000000000000
B0514073205777S11659699EA0165101690000000000000
B0514113205766S11659764EA0166801707000000000000
B0514153205805S11659803EA0167401709000000000000
B0514193205856S11659781EA0168301726000000000000
B0514233205863S11659714EA0170201743000000000000
B0514273205809S11659678EA0171601755000000000000
B0514313205763S11659720EA0172601767000000000000
B0514353205785S11659781EA0173801780000000000000
B0514393205838S11659765EA0175701802000000000000
B0514433205839S11659696EA0177101813000000000000
B0514473205783S11659661EA0177801819000000000000
B0514513205733S11659705EA0179301837000000000000
B0514553205743S11659770EA0181001855000000000000
B0514593205792S11659778EA0182301872000000000000
B0515033205817S11659718EA0183501883000000000000
B0515073205787S11659653EA0184801891000000000000
B0515113205727S11659648EA0185201895000000000000
B0515153205682S11659709EA0184701886000000000000
B0515193205653S11659800EA0181901852000000000000
B0515233205627S11659912EA0178201820000000000000
B0515273205604S11700039EA0176601815000000000000
B0515313205586S11700167EA0177701827000000000000
B0515353205565S11700293EA0177301819000000000000
B0515393205539S11700423EA0174901790000000000000
B0515433205512S11700557EA0172901780000000000000
B0515473205484S11700687EA0173201784000000000000
B0515513205458S11700809EA0173701787000000000000
B0515553205432S11700926EA0173501775000000000000
B0515593205404S11701044EA0171701759000000000000
B0516033205378S11701161EA0171101761000000000000
B0516073205360S11701267EA0173101793000000000000
B0516113205349S11701352EA0177101823000000000000
B0516153205343S11701429EA0179401844000000000000
B0516193205343S11701501EA0180801852000000000000
B0516233205344S11701579EA0181101857000000000000
B0516273205341S11701659EA0181501857000000000000
B0516313205326S11701745EA0181001853000000000000
B0516353205309S11701833EA0181301861000000000000
B0516393205289S11701921EA0181901865000000000000
B0516433205257S11702008EA0181801860000000000000
B0516473205207S11702093EA0179601834000000000000
B0516513205140S11702183EA0176601806000000000000
B0516553205070S11702277EA0176201802000000000000
B0516593204999S11702376EA0175001792000000000000
B0517033204932S11702474EA0174201783000000000000
B0517073204864S11702577EA0172901767000000000000
B0517113204797S11702684EA0170801744000000000000
B0517153204725S11702790EA0169201729000000000000
B0517193204656S11702899EA0167801719000000000000
B0517233204589S11703007EA0167401716000000000000
B0517273204525S11703113EA0167401716000000000000
B0517313204464S11703215EA0167401713000000000000
B0517353204404S11703317EA0166901711000000000000
B0517393204347S11703414EA0167301715000000000000
B0517433204297S11703510EA0168001724000000000000
B0517473204258S11703609EA0168001716000000000000
B0517513204212S11703712EA0167301718000000000000
B0517553204167S11703811EA0167201711000000000000
B0517593204119S11703912EA0166001700000000000000
B0518033204069S11704012EA0165201691000000000000
B0518073204015S11704112EA0164401682000000000000
B0518113203959S11704206EA0164001680000000000000
B0518153203904S11704297EA0163801678000000000000
B0518193203849S11704388EA0163201669000000000000
B0518233203792S11704480EA0161501651000000000000
B0518273203732S11704573EA0160601643000000000000
B0518313203668S11704661EA0160301639000000000000
B0518353203608S11704747EA0160701644000000000000
B0518393203549S11704833EA0160301638000000000000
B0518433203486S11704914EA0159901633000000000000
B0518473203425S11704999EA0159801629000000000000
B0518513203364S11705085EA0158801617000000000000
B0518553203302S11705172EA0157601607000000000000
B0518593203239S11705258EA0156801599000000000000
B0519033203177S11705346EA0155901584000000000000
B0519073203113S11705433EA0154601573000000000000
B0519113203049S11705519EA0153901566000000000000
B0519153202983S11705602EA0153701568000000000000
B0519193202919S11705681EA0154601586000000000000
B0519233202862S11705756EA0155701588000000000000
B0519273202806S11705827EA0156001586000000000000
B0519313202753S11705900EA0155501582000000000000
B0519353202708S11705979EA0154701569000000000000
B0519393202658S11706065EA0153501558000000000000
B0519433202607S11706148EA0153001561000000000000
B0519473202567S11706225EA0154601584000000000000
B0519513202533S11706295EA0156401596000000000000
B0519553202509S11706369EA0155801583000000000000
B0519593202487S11706456EA0154001566000000000000
B0520033202463S11706547EA0153701567000000000000
B0520073202438S11706640EA0153001555000000000000
B0520113202402S11706736EA0151601544000000000000
B0520153202357S11706833EA0150701537000000000000
B0520193202303S11706927EA0150801542000000000000
B0520233202251S11707019EA0151601552000000000000
B0520273202198S11707108EA0152401555000000000000
B0520313202145S11707192EA0152101547000000000000
B0520353202086S11707275EA0150901535000000000000
B0520393202026S11707355EA0150501536000000000000
B0520433201969S11707433EA0150201526000000000000
B0520473201909S11707511EA0149901527000000000000
B0520513201848S11707583EA0150101531000000000000
B0520553201795S11707654EA0151701553000000000000
B0520593201782S11707733EA0154301578000000000000
B0521033201839S11707760EA0156401599000000000000
B0521073201873S11707700EA0157701612000000000000
B0521113201830S11707643EA0158901622000000000000
B0521153201772S11707667EA0160401641000000000000
B0521193201764S11707733EA0162301657000000000000
B0521233201812S11707768EA0162801659000000000000
B0521273201861S11707726EA0163701671000000000000
B0521313201859S11707652EA0164801682000000000000
B0521353201809S11707605EA0165401687000000000000
B0521393201756S11707647EA0166101694000000000000
B0521433201756S11707728EA0166601702000000000000
B0521473201813S11707756EA0168001716000000000000
B0521513201859S11707700EA0168001717000000000000
B0521553201852S11707613EA0168501723000000000000
B0521593201799S11707556EA0168801721000000000000
B0522033201720S11707553EA0168201715000000000000
B0522073201635S11707573EA0167201705000000000000
B0522113201558S11707630EA0167201721000000000000
B0522153201495S11707699EA0169201733000000000000
B0522193201445S11707781EA0170001747000000000000
B0522233201406S11707868EA0170101739000000000000
B0522273201370S11707967EA0167401710000000000000
B0522313201331S11708079EA0164201681000000000000
B0522353201289S11708196EA0162901666000000000000
B0522393201244S11708311EA0161301647000000000000
B0522433201197S11708430EA0159501633000000000000
B0522473201146S11708540EA0159401640000000000000
B0522513201094S11708643EA0159701634000000000000
B0522553201038S11708746EA0158401623000000000000
B0522593200984S11708847EA0157801617000000000000
B0523033200927S11708948EA0156801603000000000000
B0523073200865S11709046EA0155301588000000000000
B0523113200806S11709145EA0154201571000000000000
B0523153200741S11709246EA0152001548000000000000
B0523193200673S11709349EA0150401538000000000000
B0523233200605S11709449EA0149801530000000000000
B0523273200535S11709546EA0149001524000000000000
B0523313200465S11709645EA0149201530000000000000
B0523353200410S11709743EA0152501567000000000000
B0523393200418S11709838EA0155901600000000000000
B0523433200449S11709917EA0158001620000000000000
B0523473200475S11710000EA0157601607000000000000
B0523513200477S11710096EA0155101577000000000000
B0523553200442S11710199EA0152701549000000000000
B0523593200382S11710298EA0151001539000000000000
B0524033200313S11710390EA0150101535000000000000
B0524073200239S11710475EA0149901529000000000000
B0524113200161S11710554EA0149101524000000000000
B0524153200082S11710633EA0148601518000000000000
B0524193200007S11710712EA0148401514000000000000
B0524233159932S11710790EA0147301502000000000000
B0524273159855S11710866EA0146801497000000000000
B0524313159779S11710940EA0146201486000000000000
B0524353159703S11711017EA0145001476000000000000
B0524393159628S11711091EA0144201469000000000000
B0524433159551S11711157EA0143601460000000000000
B0524473159469S11711219EA0142701453000000000000
B0524513159389S11711277EA0142201448000000000000
B0524553159309S11711334EA0142101447000000000000
B0524593159231S11711388EA0141501438000000000000
B0525033159151S11711446EA0141301438000000000000
B0525073159074S11711508EA0141501453000000000000
B0525113159035S11711580EA0145101483000000000000
B0525153159038S11711656EA0146201484000000000000
B0525193159051S11711734EA0145901485000000000000
B0525233159069S11711807EA0146601488000000000000
B0525273159097S11711872EA0146001481000000000000
B0525313159151S11711912EA0145201470000000000000
B0525353159195S11711872EA0144701469000000000000
B0525393159160S11711799EA0143501446000000000000
B0525433159071S11711765EA0140001415000000000000
B0525473158969S11711747EA0138401412000000000000
B0525513158871S11711737EA0139401418000000000000
B0525553158775S11711743EA0138701411000000000000
B0525593158685S11711780EA0137801399000000000000
B0526033158600S11711834EA0136101381000000000000
B0526073158520S11711898EA0135501381000000000000
B0526113158446S11711963EA0135401378000000000000
B0526153158379S11712024EA0135301372000000000000
B0526193158310S11712088EA0133901353000000000000
B0526233158238S11712158EA0133201354000000000000
B0526273158169S11712226EA0133601358000000000000
B0526313158103S11712296EA0133901360000000000000
B0526353158041S11712367EA0134201363000000000000
B0526393157979S11712443EA0134701371000000000000
B0526433157931S11712525EA0134701363000000000000
B0526473157878S11712613EA0131401325000000000000
B0526513157807S11712699EA0129101303000000000000
B0526553157730S11712776EA0127701287000000000000
B0526593157649S11712848EA0126201277000000000000
B0527033157570S11712919EA0125301269000000000000
B0527073157491S11712986EA0124601261000000000000
B0527113157410S11713054EA0123401249000000000000
B0527153157328S11713121EA0122701243000000000000
B0527193157248S11713188EA0122601239000000000000
B0527233157168S11713255EA0121601229000000000000
B0527273157090S11713322EA0121301234000000000000
B0527313157021S11713381EA0123401254000000000000
B0527353156958S11713441EA0124201253000000000000
B0527393156898S11713506EA0124101256000000000000
B0527433156850S11713575EA0125001267000000000000
B0527473156816S11713648EA0126001276000000000000
B0527513156806S11713727EA0127101288000000000000
B0527553156809S11713809EA0128101297000000000000
B0527593156822S11713888EA0129001305000000000000
B0528033156872S11713916EA0129201309000000000000
B0528073156891S11713855EA0129001307000000000000
B0528113156839S11713793EA0128801309000000000000
B0528153156759S11713786EA0129601324000000000000
B0528193156699S11713839EA0131701342000000000000
B0528233156722S11713904EA0133301355000000000000
B0528273156772S11713879EA0133201350000000000000
B0528313156755S11713806EA0133001355000000000000
B0528353156689S11713762EA0133401359000000000000
B0528393156613S11713734EA0134601372000000000000
B0528433156540S11713712EA0135101372000000000000
B0528473156465S11713692EA0134701368000000000000
B0528513156387S11713688EA0135101377000000000000
B0528553156312S11713696EA0136401390000000000000
B0528593156244S11713710EA0138401410000000000000
B0529033156200S11713760EA0139401420000000000000
B0529073156224S11713817EA0139701418000000000000
B0529113156282S11713793EA0139201417000000000000
B0529153156280S11713714EA0139901432000000000000
B0529193156234S11713654EA0141201440000000000000
B0529233156174S11713605EA0142101455000000000000
B0529273156109S11713614EA0144101473000000000000
B0529313156101S11713682EA0145301485000000000000
B0529353156153S11713712EA0146001492000000000000
B0529393156197S11713661EA0146801498000000000000
B0529433156183S11713582EA0146801501000000000000
B0529473156118S11713541EA0147901515000000000000
B0529513156053S11713571EA0148901521000000000000
B0529553156041S11713645EA0150201537000000000000
B0529593156089S11713674EA0151901556000000000000
B0530033156128S11713626EA0153101566000000000000
B0530073156111S11713550EA0154101577000000000000
B0530113156050S11713522EA0155001587000000000000
B0530153156001S11713566EA0155201585000000000000
B0530193156016S11713631EA0155601591000000000000
B0530233156075S11713657EA0156201601000000000000
B0530273156123S11713613EA0157901620000000000000
B0530313156111S11713537EA0159601632000000000000
B0530353156046S11713500EA0159401629000000000000
B0530393155964S11713488EA0158401618000000000000
B0530433155877S11713493EA0157501612000000000000
B0530473155788S11713514EA0156401598000000000000
B0530513155702S11713544EA0156501602000000000000
B0530553155620S11713585EA0157201614000000000000
B0530593155542S11713624EA0158501625000000000000
B0531033155470S11713667EA0160101635000000000000
B0531073155399S11713713EA0160501639000000000000
B0531113155333S11713765EA0160801638000000000000
B0531153155273S11713832EA0159701627000000000000
B0531193155216S11713913EA0158401613000000000000
B0531233155156S11714003EA0156501597000000000000
B0531273155099S11714100EA0155501587000000000000
B0531313155041S11714199EA0154601572000000000000
B0531353154983S11714303EA0152301548000000000000
B0531393154921S11714410EA0150301535000000000000
B0531433154858S11714512EA0149601524000000000000
B0531473154794S11714614EA0148201511000000000000
B0531513154727S11714711EA0147201499000000000000
B0531553154658S11714806EA0146001489000000000000
B0531593154590S11714902EA0145301481000000000000
B0532033154525S11714999EA0144401467000000000000
B0532073154463S11715096EA0143901465000000000000
B0532113154404S11715195EA0143501460000000000000
B0532153154349S11715295EA0142401445000000000000
B0532193154298S11715398EA0141401441000000000000
B0532233154251S11715496EA0140901430000000000000
B0532273154208S11715598EA0139501418000000000000
B0532313154165S11715702EA0138201402000000000000
B0532353154118S11715807EA0136501384000000000000
B0532393154070S11715911EA0135201372000000000000
B0532433154025S11716014EA0134301362000000000000
B0532473153979S11716107EA0135101384000000000000
B0532513153939S11716193EA0137501406000000000000
B0532553153901S11716271EA0139701426000000000000
B0532593153869S11716349EA0141001435000000000000
B0533033153842S11716429EA0141201430000000000000
B0533073153817S11716514EA0139901417000000000000
B0533113153788S11716608EA0138201402000000000000
B0533153153764S11716705EA0137301396000000000000
B0533193153744S11716800EA0138101406000000000000
B0533233153732S11716891EA0138801413000000000000
B0533273153725S11716980EA0138801407000000000000
B0533313153726S11717069EA0137801393000000000000
B0533353153710S11717166EA0135701369000000000000
B0533393153669S11717261EA0134101359000000000000
B0533433153609S11717345EA0133201349000000000000
B0533473153533S11717419EA0131201327000000000000
B0533513153450S11717485EA0130101317000000000000
B0533553153366S11717547EA0130001322000000000000
B0533593153285S11717602EA0130301323000000000000
B0534033153206S11717652EA0130001316000000000000
B0534073153125S11717703EA0129301313000000000000
B0534113153054S11717757EA0131201340000000000000
B0534153152990S11717805EA0132801348000000000000
B0534193152926S11717855EA0132601340000000000000
B0534233152861S11717911EA0131101322000000000000
B0534273152789S11717968EA0129301306000000000000
B0534313152708S11718018EA0128301295000000000000
B0534353152625S11718070EA0127401289000000000000
B0534393152544S11718122EA0127301289000000000000
B0534433152460S11718169EA0127101286000000000000
B0534473152374S11718217EA0126601277000000000000
B0534513152287S11718263EA0125501267000000000000
B0534553152201S11718308EA0125501269000000000000
B0534593152116S11718355EA0124801260000000000000
B0535033152029S11718402EA0123401246000000000000
B0535073151942S11718445EA0122701239000000000000
B0535113151858S11718488EA0122101232000000000000
B0535153151777S11718531EA0122301245000000000000
B0535193151708S11718574EA0124601264000000000000
B0535233151642S11718618EA0125101257000000000000
B0535273151576S11718674EA0125201266000000000000
B0535313151574S11718750EA0127501295000000000000
B0535353151632S11718743EA0130101318000000000000
B0535393151626S11718674EA0131901337000000000000
B0535433151568S11718667EA0133201346000000000000
B0535473151538S11718732EA0133601351000000000000
B0535513151573S11718793EA0134801365000000000000
B0535553151634S11718779EA0136001380000000000000
B0535593151642S11718711EA0138301408000000000000
B0536033151595S11718671EA0140401427000000000000
B0536073151537S11718689EA0141301436000000000000
B0536113151512S11718756EA0142201449000000000000
B0536153151550S11718813EA0143201456000000000000
B0536193151609S11718802EA0144101469000000000000
B0536233151626S11718737EA0145801487000000000000
B0536273151593S11718684EA0147701505000000000000
B0536313151528S11718694EA0148001506000000000000
B0536353151503S11718763EA0149601528000000000000
B0536393151551S11718805EA0150901537000000000000
B0536433151602S11718767EA0151201543000000000000
B0536473151590S11718698EA0153001568000000000000
B0536513151533S11718674EA0154701579000000000000
B0536553151477S11718715EA0155001582000000000000
B0536593151496S11718785EA0156501601000000000000
B0537033151555S11718779EA0157901613000000000000
B0537073151570S11718715EA0159001626000000000000
B0537113151533S11718665EA0159901632000000000000
B0537153151465S11718670EA0159801630000000000000
B0537193151416S11718736EA0159701633000000000000
B0537233151399S11718822EA0160501646000000000000
B0537273151442S11718886EA0162001661000000000000
B0537313151504S11718876EA0164101681000000000000
B0537353151504S11718805EA0165501697000000000000
B0537393151448S11718775EA0167101712000000000000
B0537433151403S11718823EA0168101720000000000000
B0537473151422S11718893EA0168401721000000000000
B0537513151487S11718921EA0168901730000000000000
B0537553151524S11718860EA0170101743000000000000
B0537593151478S11718809EA0171701761000000000000
B0538033151414S11718830EA0172601767000000000000
B0538073151387S11718900EA0173601775000000000000
B0538113151416S11718970EA0173901779000000000000
B0538153151478S11718984EA0175001796000000000000
B0538193151509S11718925EA0176801813000000000000
B0538233151477S11718865EA0177701821000000000000
B0538273151416S11718867EA0178501829000000000000
B0538313151386S11718935EA0179301832000000000000
B0538353151420S11719003EA0179601836000000000000
B0538393151483S11719016EA0180301849000000000000
B0538433151526S11718961EA0181601858000000000000
B0538473151522S11718880EA0182101864000000000000
B0538513151463S11718860EA0183401879000000000000
B0538553151418S11718919EA0184101884000000000000
B0538593151455S11718984EA0184401888000000000000
B0539033151521S11718974EA0185301898000000000000
B0539073151570S11718913EA0185701903000000000000
B0539113151585S11718831EA0186701914000000000000
B0539153151539S11718772EA0187601924000000000000
B0539193151464S11718775EA0186801898000000000000
B0539233151378S11718827EA0182701861000000000000
B0539273151284S11718902EA0179701842000000000000
B0539313151191S11718988EA0179601844000000015000
B0539353151101S11719073EA0178601824000000000000
B0539393151013S11719161EA0176401800000000000000
B0539433150923S11719252EA0174401783000000000000
B0539473150837S11719342EA0173501777000000000000
B0539513150749S11719432EA0171701752000000000000
B0539553150662S11719519EA0171301753000000000000
B0539593150577S11719607EA0170701738000000000000
B0540033150495S11719698EA0169301729000000000000
B0540073150417S11719788EA0169201731000000000000
B0540113150341S11719872EA0169001728000000000000
B0540153150264S11719954EA0168501723000000000000
B0540193150190S11720031EA0168701727000000000000
B0540233150116S11720097EA0168401715000000000000
B0540273150039S11720158EA0168001718000000000000
B0540313149968S11720217EA0169501732000000000000
B0540353149903S11720275EA0172101764000000000000
B0540393149862S11720342EA0174901796000000000000
B0540433149896S11720394EA0177501814000000000000
B0540473149949S11720357EA0179401846000000000000
B0540513149952S11720280EA0180901854000000000000
B0540553149901S11720223EA0181601865000000000000
B0540593149835S11720219EA0183601886000000000000
B0541033149806S11720274EA0185401903000000000000
B0541073149844S11720316EA0186401910000000000000
B0541113149897S11720278EA0187301922000000000000
B0541153149893S11720195EA0187801925000000000000
B0541193149828S11720157EA0189201947000000000000
B0541233149780S11720201EA0191201960000000000000
B0541273149796S11720269EA0191201957000000000000
B0541313149862S11720304EA0191701966000000000000
B0541353149917S11720254EA0194101989000000000000
B0541393149899S11720169EA0194901993000000000000
B0541433149827S11720144EA0195102004000000000000
B0541473149778S11720195EA0197202028000000000000
B0541513149791S11720265EA0198602036000000000000
B0541553149852S11720299EA0199702055000000000000
B0541593149914S11720269EA0201902070000000000000
B0542033149934S11720188EA0202602075000000000000
B0542073149891S11720122EA0202302068000000000000
B0542113149812S11720117EA0200502050000000000000
B0542153149735S11720169EA0199802052000000000000
B0542193149670S11720244EA0200102053000000000000
B0542233149611S11720329EA0200502061000000000000
B0542273149553S11720420EA0200102052000000000000
B0542313149493S11720521EA0199102040000000000000
B0542353149433S11720630EA0197402022000000000000
B0542393149371S11720745EA0196302018000000000000
B0542433149310S11720854EA0196202016000000000000
B0542473149255S11720959EA0196302016000000000000
B0542513149203S11721064EA0195402000000000000000
B0542553149151S11721171EA0194301993000000000000
B0542593149099S11721278EA0193501983000000000000
B0543033149047S11721384EA0192901977000000000000
B0543073148994S11721489EA0192301970000000000000
B0543113148939S11721591EA0191901967000000000000
B0543153148887S11721690EA0192301970000000000000
B0543193148839S11721788EA0191901964000000000000
B0543233148792S11721889EA0191201958000000000000
B0543273148746S11721991EA0190201947000000000000
B0543313148694S11722090EA0189801945000000000000
B0543353148640S11722186EA0189701942000000000000
B0543393148586S11722281EA0189401938000000000000
B0543433148530S11722376EA0188901931000000000000
B0543473148474S11722471EA0188201926000000000000
B0543513148419S11722565EA0188201929000000000000
B0543553148371S11722658EA0188401928000000000000
B0543593148323S11722753EA0187601916000000000000
B0544033148274S11722851EA0185901900000000000000
B0544073148227S11722949EA0184801890000000000000
B0544113148185S11723047EA0184101880000000000000
B0544153148149S11723147EA0183601879000000000000
B0544193148111S11723246EA0184301891000000000000
B0544233148079S11723341EA0186301916000000000000
B0544273148051S11723426EA0188401931000000000000
B0544313148021S11723515EA0188401926000000000000
B0544353147988S11723607EA0187001914000000000000
B0544393147950S11723698EA0187701925000000000000
B0544433147914S11723788EA0188401927000000000000
B0544473147877S11723879EA0188101922000000000000
B0544513147842S11723975EA0186301900000000000000
B0544553147802S11724080EA0184401879000000000000
B0544593147764S11724191EA0182501867000000000000
B0545033147729S11724300EA0181901865000000000000
B0545073147693S11724408EA0181601859000000000000
B0545113147656S11724515EA0181101855000000000000
B0545153147620S11724621EA0181001853000000000000
B0545193147585S11724726EA0180801850000000000000
B0545233147550S11724830EA0180001842000000000000
B0545273147514S11724933EA0179401836000000000000
B0545313147478S11725033EA0179101831000000000000
B0545353147446S11725133EA0178301819000000000000
B0545393147413S11725235EA0177201809000000000000
B0545433147381S11725336EA0176201802000000000000
B0545473147343S11725436EA0175401786000000000000
B0545513147286S11725529EA0173701769000000000000
B0545553147215S11725610EA0172301759000000000000
B0545593147145S11725688EA0171401745000000000000
B0546033147071S11725760EA0170701747000000000000
B0546073147001S11725826EA0172001760000000000000
B0546113146936S11725891EA0173801781000000000000
B0546153146880S11725956EA0175701797000000000000
B0546193146837S11726026EA0177401811000000000000
B0546233146825S11726106EA0178501823000000000000
B0546273146831S11726188EA0179801836000000000000
B0546313146866S11726245EA0181001850000000000000
B0546353146914S11726216EA0181701863000000000000
B0546393146905S11726143EA0182401873000000000000
B0546433146850S11726086EA0183101879000000000000
B0546473146777S11726072EA0183501886000000000000
B0546513146712S11726114EA0184901897000000000000
B0546553146680S11726188EA0184901888000000000000
B0546593146654S11726285EA0183401876000000000000
B0547033146628S11726383EA0183901882000000000000
B0547073146601S11726483EA0183401874000000000000
B0547113146567S11726587EA0180601838000000000000
B0547153146533S11726705EA0176901810000000000000
B0547193146500S11726823EA0176401807000000000000
B0547233146471S11726943EA0175401794000000000000
B0547273146445S11727064EA0174401781000000000000
B0547313146416S11727182EA0173601780000000000000
B0547353146389S11727293EA0175401800000000000000
B0547393146364S11727391EA0176501803000000000000
B0547433146338S11727486EA0176201799000000000000
B0547473146308S11727583EA0175501790000000000000
B0547513146279S11727681EA0174001775000000000000
B0547553146251S11727781EA0173601770000000000000
B0547593146224S11727880EA0173101767000000000000
B0548033146195S11727978EA0172701754000000000000
B0548073146161S11728077EA0170701736000000000000
B0548113146126S11728175EA0170101732000000000000
B0548153146094S11728270EA0170001731000000000000
B0548193146058S11728364EA0169201721000000000000
B0548233146021S11728457EA0168001708000000000000
B0548273145983S11728555EA0166501696000000000000
B0548313145943S11728650EA0165701687000000000000
B0548353145902S11728747EA0164701677000000000000
B0548393145861S11728842EA0164701681000000000000
B0548433145819S11728933EA0165001680000000000000
B0548473145778S11729026EA0164301670000000000000
B0548513145733S11729118EA0163601666000000000000
B0548553145689S11729208EA0162901655000000000000
B0548593145639S11729297EA0161701647000000000000
B0549033145588S11729386EA0162201652000000000000
B0549073145540S11729474EA0162201650000000000000
B0549113145492S11729561EA0162301651000000000000
B0549153145438S11729648EA0160801627000000000000
B0549193145386S11729742EA0159301618000000000000
B0549233145336S11729839EA0158401607000000000000
B0549273145282S11729937EA0158701614000000000000
B0549313145230S11730029EA0158501612000000000000
B0549353145181S11730120EA0158601611000000000000
B0549393145132S11730211EA0157401595000000000000
B0549433145082S11730310EA0155301574000000000000
B0549473145031S11730413EA0154201564000000000000
B0549513144982S11730515EA0153501553000000000000
B0549553144933S11730621EA0151701536000000000000
B0549593144883S11730729EA0150501525000000000000
B0550033144834S11730838EA0149201512000000000000
B0550073144783S11730944EA0148601510000000000000
B0550113144732S11731046EA0148501510000000000000
B0550153144679S11731143EA0147801503000000000000
B0550193144626S11731238EA0147501500000000000000
B0550233144574S11731328EA0147701504000000000000
B0550273144524S11731410EA0148401505000000000000
B0550313144471S11731490EA0148001496000000000000
B0550353144413S11731574EA0146701479000000000000
B0550393144353S11731663EA0145201471000000000000
B0550433144297S11731752EA0144801468000000000000
B0550473144246S11731840EA0144301461000000000000
B0550513144197S11731930EA0143101444000000000000
B0550553144146S11732018EA0142201439000000000000
B0550593144097S11732107EA0141901438000000000000
B0551033144050S11732195EA0141501430000000000000
B0551073144003S11732283EA0141001424000000000000
B0551113143958S11732372EA0140301420000000000000
B0551153143913S11732456EA0140801429000000000000
B0551193143869S11732542EA0140701425000000000000
B0551233143826S11732624EA0140901428000000000000
B0551273143785S11732703EA0141201428000000000000
B0551313143742S11732781EA0140501415000000000000
B0551353143698S11732862EA0138601395000000000000
B0551393143648S11732942EA0137401380000000000000
B0551433143599S11733024EA0136201382000000000000
B0551473143557S11733100EA0137801398000000000000
B0551513143526S11733175EA0139201417000000000000
B0551553143503S11733245EA0141201430000000000000
B0551593143501S11733319EA0141801433000000000000
B0552033143544S11733374EA0142001437000000000000
B0552073143604S11733356EA0142901450000000000000
B0552113143618S11733287EA0143901461000000000000
B0552153143586S11733223EA0144401464000000000000
B0552193143531S11733183EA0144601467000000000000
B0552233143466S11733196EA0145001475000000000000
B0552273143409S11733236EA0146001480000000000000
B0552313143360S11733293EA0145901477000000000000
B0552353143317S11733370EA0144601461000000000000
B0552393143274S11733455EA0143601451000000000000
B0552433143227S11733543EA0142401441000000000000
B0552473143178S11733633EA0141201427000000000000
B0552513143128S11733728EA0140001417000000000000
B0552553143081S11733825EA0139201411000000000000
B0552593143039S11733923EA0138901406000000000000
B0553033142992S11734020EA0138201398000000000000
B0553073142948S11734119EA0137301388000000000000
B0553113142903S11734222EA0136501380000000000000
B0553153142860S11734326EA0135801370000000000000
B0553193142815S11734430EA0134801360000000000000
B0553233142769S11734532EA0133601348000000000000
B0553273142721S11734632EA0132501339000000000000
B0553313142672S11734731EA0131901333000000000000
B0553353142625S11734827EA0131901332000000000000
B0553393142580S11734924EA0131301322000000000000
B0553433142532S11735020EA0130601315000000000000
B0553473142486S11735113EA0130801320000000000000
B0553513142439S11735204EA0130401309000000000000
B0553553142392S11735295EA0129401304000000000000
B0553593142347S11735385EA0128801294000000000000
B0554033142301S11735474EA0127301278000000000000
B0554073142255S11735562EA0125501257000000000000
B0554113142207S11735653EA0123701241000000000000
B0554153142158S11735745EA0122001219000000000000
B0554193142110S11735839EA0120701207000000000000
B0554233142060S11735929EA0119801197000000000000
B0554273142009S11736017EA0118401184000000000000
B0554313141961S11736109EA0117201170000000000000
B0554353141914S11736203EA0116001159000000000000
B0554393141869S11736298EA0114901150000000000000
B0554433141827S11736389EA0115501155000000000000
B0554473141787S11736477EA0115401153000000000000
B0554513141746S11736564EA0115201153000000000000
B0554553141711S11736641EA0116901179000000000000
B0554593141680S11736706EA0118501187000000000000
B0555033141653S11736774EA0118701185000000000000
B0555073141633S11736852EA0119101191000000000000
B0555113141645S11736930EA0119801202000000000000
B0555153141698S11736937EA0122101239000000015000
B0555193141719S11736885EA0123001239000000000000
B0555233141689S11736824EA0122201233000000000000
B0555273141623S11736810EA0122301240000000000000
B0555313141564S11736853EA0123301244000000000000
B0555353141549S11736924EA0124601261000000000000
B0555393141598S11736936EA0124901276000000015000
B0555433141627S11736868EA0124801281000000000000
B0555473141583S11736809EA0126001291000000000000
B0555513141514S11736814EA0126401288000000000000
B0555553141469S11736881EA0126301285000000000000
B0555593141479S11736969EA0126601291000000000000
B0556033141529S11737026EA0127901307000000000000
B0556073141598S11737043EA0128901312000000000000
B0556113141662S11737008EA0128901314000000000000
B0556153141681S11736932EA0130101324000000000000
B0556193141636S11736878EA0130901333000000000000
B0556233141573S11736901EA0132401348000000000000
B0556273141525S11736958EA0133001351000000000000
B0556313141480S11737021EA0133701362000000000000
B0556353141463S11737093EA0134901370000000000000
B0556393141508S11737134EA0135501374000000015000
B0556433141550S11737083EA0135401375000000015000
B0556473141511S11737022EA0135401373000000015000
B0556513141434S11737026EA0135001373000000000000
B0556553141358S11737050EA0135501375000000000000
B0556593141290S11737102EA0135601371000000000000
B0557033141248S11737182EA0136401386000000000000
B0557073141250S11737261EA0139001414000000000000
B0557113141298S11737292EA0141501433000000015000
B0557153141347S11737261EA0141701433000000015000
B0557193141352S11737184EA0140901430000000015000
B0557233141302S11737127EA0142001449000000015000
B0557273141268S11737178EA0143801454000000015000
B0557313141311S11737216EA0144801469000000015000
B0557353141346S11737158EA0145501476000000015000
B0557393141321S11737082EA0146201488000000015000
B0557423141273S11737056EA0147301502000000015000
B0557473141217S11737122EA0148301511000000000000
B0557513141251S11737180EA0149601523000000000000
B0557553141310S11737161EA0150601535000000000000
B0557593141310S11737083EA0152001548000000000000
B0558033141247S11737045EA0153201560000000000000
B0558073141181S11737082EA0153801565000000000000
B0558113141164S11737158EA0155201578000000000000
B0558153141207S11737216EA0155401579000000000000
B0558193141276S11737222EA0155701584000000000000
B0558233141334S11737182EA0156701604000000000000
B0558273141339S11737109EA0158901625000000000000
B0558313141285S11737084EA0160501636000000000000
B0558353141246S11737139EA0160901641000000000000
B0558393141272S11737199EA0162201661000000000000
B0558433141328S11737183EA0163201670000000015000
B0558473141334S11737109EA0164101684000000000000
B0558513141280S11737074EA0165701694000000000000
B0558553141230S11737127EA0166201700000000000000
B0558593141242S11737204EA0167001709000000000000
B0559033141302S11737236EA0167901717000000000000
B0559073141364S11737201EA0168501725000000000000
B0559113141397S11737125EA0169301732000000000000
B0559153141384S11737047EA0170501748000000000000
B0559193141326S11737009EA0171301754000000000000
B0559233141263S11737030EA0171301746000000000000
B0559273141207S11737089EA0170401739000000000000
B0559313141163S11737160EA0171801763000000000000
B0559353141167S11737231EA0173801772000000000000
B0559393141224S11737243EA0174201779000000000000
B0559433141247S11737175EA0174601784000000000000
B0559473141208S11737108EA0174901789000000000000
B0559513141141S11737091EA0176201802000000000000
B0559553141073S11737113EA0176601798000000000000
B0559593141018S11737182EA0174301775000000000000
B0600033140988S11737284EA0173501779000000000000
B0600073140966S11737395EA0173001771000000000000
B0600113140947S11737505EA0173801786000000000000
B0600153140931S11737619EA0172101754000000000000
B0600193140914S11737746EA0169401726000000000000
B0600233140900S11737875EA0168401723000000000000
B0600273140882S11738002EA0167601712000000000000
B0600313140861S11738129EA0166401699000000000000
B0600353140839S11738256EA0166201702000000000000
B0600393140816S11738375EA0166001693000000000000
B0600433140792S11738496EA0165001684000000000000
B0600473140766S11738614EA0164001674000000000000
B0600513140743S11738733EA0162801662000000000000
B0600553140719S11738852EA0161401647000000000000
B0600593140695S11738972EA0160201634000000000000
B0601033140667S11739090EA0159301626000000000000
B0601073140637S11739208EA0158101607000000000000
B0601113140600S11739329EA0156701598000000000000
B0601153140546S11739442EA0156601593000000000000
B0601193140479S11739546EA0155001577000000000000
B0601233140403S11739636EA0154801589000000000000
B0601273140332S11739705EA0158001621000000000000
B0601313140263S11739770EA0158301614000000000000
B0601353140199S11739830EA0160201643000000000000
B0601393140141S11739884EA0160801635000000000000
B0601433140081S11739944EA0159801622000000000000
B0601473140017S11740001EA0159101617000000000000
B0601513139958S11740061EA0159101618000000000000
B0601553139900S11740125EA0158901612000000000000
B0601593139843S11740191EA0158701619000000000000
B0602033139792S11740254EA0161501652000000000000
B0602073139755S11740321EA0163301659000000000000
B0602113139774S11740388EA0163901669000000000000
B0602153139831S11740382EA0165701687000000000000
B0602193139868S11740320EA0166201691000000000000
B0602233139865S11740241EA0166901709000000000000
B0602273139818S11740193EA0169101732000000000000
B0602313139770S11740228EA0171101746000000000000
B0602353139779S11740293EA0171901754000000000000
B0602393139835S11740306EA0172301765000000000000
B0602433139880S11740254EA0173801783000000000000
B0602473139865S11740182EA0175301792000000000000
B0602513139804S11740147EA0174901786000000000000
B0602553139740S11740178EA0176701815000000000000
B0602593139748S11740238EA0179601844000000000000
B0603033139798S11740232EA0181401869000000000000
B0603073139812S11740169EA0183201884000000000000
B0603113139769S11740126EA0184001892000000000000
B0603153139713S11740150EA0185601911000000000000
B0603193139699S11740209EA0187301921000000000000
B0603233139740S11740245EA0188301933000000000000
B0603273139787S11740211EA0190101953000000000000
B0603313139792S11740144EA0191601965000000000000
B0603353139750S11740096EA0192201972000000000000
B0603393139691S11740111EA0193701987000000000000
B0603433139675S11740174EA0194401992000000000000
B0603473139716S11740217EA0195502006000000000000
B0603513139770S11740194EA0197002028000000000000
B0603553139786S11740128EA0198702037000000000000
B0603593139746S11740072EA0198602034000000000000
B0604033139679S11740072EA0199802058000000000000
B0604073139625S11740105EA0201602065000000000000
B0604113139600S11740167EA0201902070000000000000
B0604153139621S11740221EA0202902080000000000000
B0604193139674S11740215EA0204002092000000000000
B0604233139682S11740147EA0205402109000000000000
B0604273139627S11740108EA0206902122000000000000
B0604313139571S11740137EA0207602123000000000000
B0604353139551S11740207EA0206202107000000000000
B0604393139543S11740297EA0203402074000000000000
B0604433139527S11740411EA0199502040000000000000
B0604473139505S11740536EA0198102031000000000000
B0604513139474S11740661EA0196702021000000000000
B0604553139443S11740785EA0196402013000000000000
B0604593139410S11740910EA0195301997000000000000
B0605033139376S11741035EA0193801987000000000000
B0605073139344S11741157EA0193201983000000000000
B0605113139311S11741277EA0192201968000000000000
B0605153139275S11741398EA0190701956000000000000
B0605193139237S11741515EA0190201951000000000000
B0605233139198S11741629EA0189301941000000000000
B0605273139159S11741742EA0188101929000000000000
B0605313139120S11741857EA0187501920000000000000
B0605353139083S11741971EA0186501911000000000000
B0605393139045S11742083EA0186201909000000000000
B0605433139006S11742191EA0185701902000000000000
B0605473138967S11742297EA0184701892000000000000
B0605513138928S11742406EA0183401877000000000000
B0605553138888S11742517EA0181801860000000000000
B0605593138847S11742626EA0180901851000000000000
B0606033138807S11742735EA0179401831000000000000
B0606073138765S11742845EA0178101820000000000000
B0606113138725S11742951EA0177901823000000000000
B0606153138686S11743054EA0178101824000000000000
B0606193138648S11743154EA0178301824000000000000
B0606233138612S11743253EA0178601829000000000000
B0606273138578S11743354EA0179701837000000000000
B0606313138544S11743454EA0180301847000000000000
B0606353138513S11743547EA0180901847000000000000
B0606393138479S11743644EA0179301830000000000000
B0606433138443S11743745EA0178501821000000000000
B0606473138409S11743851EA0177501808000000000000
B0606513138375S11743957EA0176201800000000000000
B0606553138340S11744065EA0175901796000000000000
B0606593138304S11744172EA0174901785000000000000
B0607033138269S11744280EA0174401783000000000000
B0607073138234S11744388EA0174801788000000000000
B0607113138192S11744494EA0175401795000000000000
B0607153138147S11744594EA0176801811000000000000
B0607193138101S11744687EA0177601810000000000000
B0607233138057S11744782EA0177201811000000000000
B0607273138017S11744871EA0177401811000000000000
B0607313137985S11744964EA0177801817000000000000
B0607353137958S11745053EA0177901815000000000000
B0607393137932S11745147EA0176801805000000000000
B0607433137905S11745242EA0176501800000000000000
B0607473137881S11745343EA0175401789000000000000
B0607513137857S11745448EA0174101774000000000000
B0607553137833S11745562EA0172601761000000000000
B0607593137810S11745677EA0171901754000000000000
B0608033137787S11745794EA0170701744000000000000
B0608073137762S11745911EA0170401742000000000000
B0608113137738S11746026EA0170601750000000000000
B0608153137714S11746127EA0172501773000000000000
B0608193137690S11746225EA0173301768000000000000
B0608233137666S11746329EA0172301762000000000000
B0608273137645S11746430EA0173701776000000000000
B0608313137624S11746529EA0172801758000000000000
B0608353137598S11746634EA0170801737000000000000
B0608393137575S11746743EA0169301723000000000000
B0608433137550S11746858EA0167501703000000000000
B0608473137523S11746973EA0166401694000000000000
B0608513137495S11747089EA0165101676000000000000
B0608553137464S11747205EA0163601664000000000000
B0608593137433S11747320EA0162201650000000000000
B0609033137399S11747436EA0161301643000000000000
B0609073137367S11747549EA0160401631000000000000
B0609113137332S11747662EA0159101619000000000000
B0609153137296S11747777EA0158601615000000000000
B0609193137261S11747890EA0158001608000000000000
B0609233137224S11748002EA0157201598000000000000
B0609273137186S11748112EA0156401592000000000000
B0609313137150S11748221EA0155701581000000000000
B0609353137114S11748331EA0154501566000000000000
B0609393137079S11748442EA0153301556000000000000
B0609433137042S11748555EA0152201548000000000000
B0609473137007S11748667EA0151801541000000000000
B0609513136973S11748780EA0150201519000000000000
B0609553136939S11748896EA0148501505000000000000
B0609593136906S11749013EA0147001491000000000000
B0610033136873S11749131EA0145801478000000000000
B0610073136838S11749247EA0144501461000000000000
B0610113136805S11749363EA0143401453000000015000
B0610153136779S11749468EA0145901497000000000000
B0610193136754S11749558EA0149801533000000000000
B0610233136748S11749640EA0152501551000000000000
B0610273136797S11749680EA0154701576000000000000
B0610313136847S11749637EA0155401578000000000000
B0610353136848S11749555EA0155101581000000000000
B0610393136806S11749488EA0156301595000000000000
B0610433136747S11749434EA0157701610000000000000
B0610473136682S11749432EA0159601629000000000000
B0610513136659S11749493EA0160901638000000000000
B0610553136700S11749530EA0161701647000000000000
B0610593136747S11749490EA0161401643000000000000
B0611033136737S11749411EA0162401665000000000000
B0611073136684S11749368EA0164301677000000000000
B0611113136626S11749391EA0165201684000000000000
B0611153136600S11749456EA0165401685000000000000
B0611193136598S11749534EA0164701668000000000000
B0611233136592S11749633EA0161201630000000000000
B0611273136576S11749750EA0158801613000000000000
B0611313136554S11749874EA0158001613000000000000
B0611353136533S11749995EA0158101609000000000000
B0611393136509S11750113EA0157501604000000000000
B0611433136483S11750227EA0157501604000000000000
B0611473136455S11750338EA0157501603000000000000
B0611513136424S11750444EA0156901593000000000000
B0611553136393S11750548EA0155701582000000000000
B0611593136358S11750651EA0154801571000000000000
B0612033136320S11750758EA0153301548000000000000
B0612073136280S11750869EA0151201531000000000000
B0612113136242S11750981EA0150201520000000000000
B0612153136208S11751093EA0149501514000000000000
B0612193136176S11751204EA0148601506000000000000
B0612233136145S11751313EA0148101503000000000000
B0612273136113S11751421EA0147601496000000000000
B0612313136080S11751525EA0146901488000000000000
B0612353136050S11751626EA0146701483000000000000
B0612393136017S11751726EA0145401469000000000000
B0612433135985S11751825EA0144901469000000000000
B0612473135955S11751919EA0145001466000000000000
B0612513135925S11752011EA0144501460000000000000
B0612553135896S11752102EA0145001471000000000000
B0612593135869S11752186EA0146301481000000000000
B0613033135846S11752270EA0147701497000000000000
B0613073135830S11752346EA0148901507000000000000
B0613113135818S11752424EA0148801501000000000000
B0613153135813S11752510EA0148401500000000000000
B0613193135830S11752596EA0147701487000000000000
B0613233135864S11752682EA0146201476000000000000
B0613273135902S11752765EA0146001474000000000000
B0613313135941S11752849EA0145701472000000000000
B0613353135978S11752935EA0144901460000000000000
B0613393136020S11753025EA0143601450000000000000
B0613433136063S11753115EA0142601439000000000000
B0613473136111S11753200EA0141601431000000000000
B0613513136159S11753286EA0141401426000000000000
B0613553136204S11753371EA0141101422000000000000
B0613593136246S11753458EA0140401411000000000000
B0614033136277S11753550EA0139501403000000000000
B0614073136301S11753645EA0139001399000000000000
B0614113136325S11753736EA0138701398000000000000
B0614153136350S11753824EA0138201389000000000000
B0614193136360S11753919EA0137201380000000000000
B0614233136338S11754010EA0137001379000000000000
B0614273136282S11754077EA0136701372000000000000
B0614313136204S11754090EA0135501355000000000000
B0614353136129S11754043EA0133301329000000000000
B0614393136076S11753956EA0131001311000000000000
B0614433136033S11753858EA0129501300000000000000
B0614473135993S11753758EA0127701278000000000000
B0614513135947S11753653EA0124601247000000000000
B0614553135899S11753545EA0122801233000000000000
B0614593135851S11753438EA0121801219000000000000
B0615033135801S11753333EA0120701207000000000000
B0615073135751S11753228EA0118501185000000000000
B0615113135701S11753124EA0117901185000000000000
B0615153135652S11753025EA0117801183000000000000
B0615193135605S11752929EA0118101190000000000000
B0615233135570S11752835EA0119201195000000000000
B0615273135551S11752738EA0118801191000000000000
B0615313135548S11752641EA0119201195000000000000
B0615353135551S11752546EA0119001191000000000000
B0615393135523S11752462EA0120201209000000000000
B0615433135458S11752454EA0122401228000000000000
B0615473135395S11752480EA0121701214000000000000
B0615513135328S11752520EA0120901209000000000000
B0615553135268S11752570EA0121601222000000000000
B0615593135245S11752640EA0123001233000000000000
B0616033135281S11752696EA0124101249000000000000
B0616073135332S11752666EA0125401267000000000000
B0616113135317S11752598EA0126301273000000000000
B0616153135257S11752593EA0125901268000000000000
B0616193135229S11752657EA0126301277000000000000
B0616233135267S11752713EA0127401287000000000000
B0616273135332S11752728EA0128101296000000000000
B0616313135372S11752675EA0130201316000000000000
B0616353135348S11752614EA0131201324000000000000
B0616393135289S11752606EA0131201321000000000000
B0616433135244S11752662EA0131201325000000000000
B0616473135242S11752744EA0131501329000000000000
B0616513135289S11752799EA0132801350000000000000
B0616553135346S11752773EA0134601362000000000000
B0616593135361S11752693EA0134801360000000000000
B0617033135313S11752649EA0135401373000000000000
B0617073135300S11752718EA0136201382000000000000
B0617113135358S11752747EA0136801390000000015000
B0617153135413S11752695EA0138201404000000015000
B0617193135427S11752617EA0138701404000000000000
B0617233135431S11752531EA0137801395000000000000
B0617273135434S11752441EA0138501406000000000000
B0617313135431S11752355EA0139401416000000000000
B0617353135423S11752272EA0140501424000000000000
B0617393135406S11752192EA0141301435000000000000
B0617433135374S11752120EA0142701447000000000000
B0617473135315S11752107EA0144001456000000000000
B0617513135283S11752166EA0144401458000000000000
B0617553135301S11752232EA0144001453000000000000
B0617593135354S11752258EA0143401447000000000000
B0618033135409S11752216EA0143001448000000000000
B0618073135454S11752151EA0143601455000000000000
B0618113135489S11752081EA0144701471000000000000
B0618153135463S11752019EA0146801495000000000000
B0618193135409S11752043EA0148501503000000000000
B0618233135417S11752115EA0148501503000000000000
B0618273135480S11752130EA0148701511000000000000
B0618313135527S11752077EA0149901521000000000000
B0618353135521S11751997EA0150001520000000000000
B0618393135467S11751928EA0149701521000000000000
B0618433135398S11751929EA0151901550000000000000
B0618473135379S11751994EA0153701557000000000000
B0618513135426S11752042EA0152901548000000000000
B0618553135486S11752011EA0153701567000000000000
B0618593135495S11751935EA0155501581000000000000
B0619033135461S11751860EA0155301578000000000000
B0619073135411S11751783EA0154801574000000000000
B0619113135357S11751705EA0154301567000000000000
B0619153135301S11751617EA0151501537000000000000
B0619193135242S11751521EA0150701529000000000000
B0619233135181S11751421EA0149201514000000000000
B0619273135120S11751323EA0149401527000000000000
B0619313135064S11751232EA0150901535000000000000
B0619353135008S11751137EA0149201505000000000000
B0619393134953S11751031EA0146501486000000000000
B0619433134894S11750925EA0145401482000000000000
B0619473134838S11750820EA0146401497000000000000
B0619513134789S11750724EA0149001518000000000000
B0619553134743S11750632EA0148901507000000000000
B0619593134694S11750533EA0145801476000000000000
B0620033134642S11750426EA0143701456000000000000
B0620073134586S11750314EA0141601429000000000000
B0620113134530S11750200EA0140101423000000000000
B0620153134474S11750089EA0140001420000000000000
B0620193134421S11749984EA0139801417000000000000
B0620233134369S11749878EA0139001407000000000000
B0620273134319S11749770EA0137901393000000000000
B0620313134274S11749658EA0136701383000000000000
B0620353134231S11749546EA0136201376000000000000
B0620393134193S11749432EA0135401367000000000000
B0620433134162S11749321EA0135701376000000000000
B0620473134130S11749217EA0136101371000000000000
B0620513134098S11749113EA0135201363000000000000
B0620553134061S11749012EA0135001363000000000000
B0620593134023S11748918EA0136501382000000000000
B0621033133985S11748836EA0138301395000000000000
B0621073133949S11748760EA0140401421000000000000
B0621113133905S11748696EA0142601439000000000000
B0621153133844S11748704EA0144201452000000000000
B0621193133829S11748769EA0144401454000000000000
B0621233133874S11748805EA0144601458000000000000
B0621273133927S11748771EA0144501458000000000000
B0621313133950S11748693EA0145401476000000000000
B0621353133906S11748639EA0147901498000000000000
B0621393133851S11748670EA0149201509000000000000
B0621433133857S11748734EA0149901514000000000000
B0621473133910S11748736EA0150201521000000000000
B0621513133927S11748665EA0151501538000000000000
B0621553133880S11748615EA0153401558000000000000
B0621593133824S11748643EA0154401563000000000000
B0622033133822S11748711EA0154801568000000000000
B0622073133871S11748735EA0155401575000000000000
B0622113133913S11748683EA0156101587000000000000
B0622153133910S11748601EA0157001597000000000000
B0622193133857S11748545EA0158501612000000000000
B0622233133790S11748566EA0159601619000000000000
B0622273133772S11748640EA0160001626000000000000
B0622313133820S11748680EA0160901638000000000000
B0622353133874S11748648EA0162001649000000000000
B0622393133883S11748571EA0162701658000000000000
B0622433133857S11748494EA0163601664000000000000
B0622473133820S11748418EA0163801667000000000000
B0622513133777S11748338EA0163801664000000000000
B0622553133731S11748258EA0164001674000000000000
B0622593133689S11748180EA0165501688000000000000
B0623033133649S11748103EA0166601695000000000000
B0623073133604S11748028EA0166901699000000000000
B0623113133547S11747974EA0168501720000000000000
B0623153133487S11748000EA0170701745000000000000
B0623193133495S11748065EA0172701767000000000000
B0623233133547S11748072EA0173401777000000000000
B0623273133576S11748006EA0173301776000000000000
B0623313133547S11747928EA0173901785000000000000
B0623353133486S11747896EA0175701813000000000000
B0623393133454S11747954EA0177901825000000000000
B0623433133487S11748012EA0178101827000000000000
B0623473133549S11748016EA0178401833000000000000
B0623513133584S11747951EA0178901834000000000000
B0623553133565S11747866EA0179401843000000000000
B0623593133507S11747812EA0181301862000000000000
B0624033133441S11747825EA0183201883000000000000
B0624073133421S11747889EA0185101896000000000000
B0624113133460S11747935EA0185101896000000000000
B0624153133516S11747909EA0185701909000000000000
B0624193133513S11747839EA0187801929000000000000
B0624233133458S11747803EA0189201938000000000000
B0624273133398S11747829EA0189901948000000000000
B0624313133385S11747896EA0190701950000000000000
B0624353133425S11747947EA0190901956000000000000
B0624393133487S11747948EA0191501959000000000000
B0624433133543S11747902EA0192001970000000000000
B0624473133559S11747827EA0194501998000000000000
B0624513133508S11747787EA0196502012000000000000
B0624553133458S11747822EA0197302021000000000000
B0624593133463S11747885EA0198702036000000000000
B0625033133512S11747904EA0200202052000000000000
B0625073133558S11747859EA0201502066000000000000
B0625113133559S11747779EA0202002070000000000000
B0625153133507S11747726EA0203102086000000000000
B0625193133455S11747762EA0204602101000000000000
B0625233133476S11747821EA0205802111000000000000
B0625273133533S11747811EA0206302118000000015000
B0625313133551S11747738EA0207302127000000000000
B0625353133515S11747660EA0207802131000000000000
B0625393133459S11747588EA0206802110000000000000
B0625433133390S11747506EA0202902068000000000000
B0625473133309S11747411EA0199102036000000000000
B0625513133229S11747315EA0197902024000000000000
B0625553133148S11747216EA0195201993000000000000
B0625593133078S11747105EA0193001978000000000000
B0626033133017S11746988EA0192301971000000000000
B0626073132960S11746869EA0191801965000000000000
B0626113132906S11746756EA0191801968000000000000
B0626153132854S11746647EA0192101970000000000000
B0626193132802S11746544EA0192401972000000000000
B0626233132753S11746447EA0193001977000000000000
B0626273132707S11746356EA0193601982000000000000
B0626313132667S11746266EA0193001970000000000000
B0626353132626S11746173EA0191301951000000000000
B0626393132583S11746079EA0190501943000000000000
B0626433132541S11745987EA0190301944000000000000
B0626473132502S11745900EA0191101953000000000000
B0626513132464S11745811EA0192001969000000000000
B0626553132429S11745734EA0194301988000000000000
B0626593132394S11745659EA0194201973000000000000
B0627033132358S11745576EA0192101954000000000000
B0627073132320S11745485EA0190501940000000000000
B0627113132284S11745393EA0191001935000000000000
B0627153132246S11745307EA0191601940000000000000
B0627193132207S11745225EA0190701933000000000000
B0627233132169S11745139EA0188701915000000000000
B0627273132129S11745044EA0187001902000000000000
B0627313132086S11744948EA0185601891000000000000
B0627353132042S11744850EA0185001888000000000000
B0627393131998S11744757EA0185201891000000000000
B0627433131955S11744665EA0186001897000000000000
B0627473131912S11744576EA0185401884000000000000
B0627513131866S11744480EA0183601867000000000000
B0627553131820S11744382EA0182501855000000000000
B0627593131774S11744286EA0181801856000000000000
B0628033131730S11744197EA0182801866000000000000
B0628073131684S11744109EA0183601872000000000000
B0628113131640S11744025EA0184001879000000000000
B0628153131612S11743935EA0185201888000000000000
B0628193131609S11743846EA0185301883000000000000
B0628233131589S11743758EA0183701863000000000000
B0628273131552S11743667EA0181901853000000000000
B0628313131509S11743574EA0182501865000000000000
B0628353131463S11743487EA0183601877000000000000
B0628393131422S11743404EA0184901891000000000000
B0628433131378S11743324EA0186201897000000000000
B0628473131333S11743242EA0185201883000000000000
B0628513131287S11743153EA0183401865000000000000
B0628553131237S11743060EA0182701865000000000000
B0628593131186S11742973EA0182901865000000000000
B0629033131136S11742884EA0181801849000000000000
B0629073131081S11742795EA0181101843000000000000
B0629113131029S11742707EA0181401855000000000000
B0629153130982S11742627EA0183901878000000000000
B0629193130937S11742556EA0186101902000000000000
B0629233130878S11742516EA0188301919000000000000
B0629273130830S11742556EA0190201942000000000000
B0629313130835S11742621EA0191801959000000000000
B0629353130881S11742639EA0193401975000000000000
B0629393130921S11742591EA0194901988000000000000
B0629433130912S11742516EA0195901999000000000000
B0629473130854S11742478EA0196602007000000000000
B0629513130798S11742517EA0197802026000000000000
B0629553130796S11742583EA0199702042000000000000
B0629593130839S11742622EA0201002050000000000000
B0630033130893S11742598EA0201202052000000000000
B0630073130923S11742527EA0201302051000000000000
B0630113130908S11742440EA0201502055000000000000
B0630153130848S11742400EA0203302083000000000000
B0630193130809S11742445EA0206402108000000000000
B0630233130832S11742504EA0206802110000000000000
B0630273130886S11742504EA0207902125000000000000
B0630313130919S11742442EA0209002135000000000000
B0630353130900S11742370EA0209602139000000000000
B0630393130839S11742328EA0209802146000000000000
B0630433130772S11742345EA0210902161000000000000
B0630473130744S11742414EA0212302176000000000000
B0630513130774S11742474EA0213902189000000000000
B0630553130829S11742474EA0215002198000000000000
B0630593130858S11742413EA0215602202000000000000
B0631033130832S11742344EA0216002208000000000000
B0631073130767S11742325EA0216702215000000000000
B0631113130718S11742370EA0218002228000000000000
B0631153130729S11742435EA0218602230000000000000
B0631193130783S11742471EA0218502232000000000000
B0631233130846S11742466EA0218702234000000000000
B0631273130874S11742393EA0218702231000000000000
B0631313130855S11742301EA0217302220000000000000
B0631353130809S11742208EA0216502219000000000000
B0631393130754S11742119EA0216002206000000000000
B0631433130689S11742022EA0213602186000000000000
B0631473130621S11741923EA0213202183000000000000
B0631513130552S11741825EA0211402159000000000000
B0631553130478S11741727EA0210302158000000000000
B0631593130405S11741632EA0210802162000000000000
B0632033130335S11741534EA0211202170000000000000
B0632073130270S11741438EA0211702164000000000000
B0632113130206S11741337EA0210202151000000000000
B0632153130144S11741235EA0209402145000000000000
B0632193130083S11741135EA0208702136000000000000
B0632233130023S11741036EA0208202130000000000000
B0632273129967S11740936EA0207502123000000000000
B0632313129912S11740836EA0207402119000000000000
B0632353129860S11740728EA0205802104000000000000
B0632393129805S11740618EA0204102090000000000000
B0632433129750S11740512EA0204302094000000000000
B0632473129694S11740410EA0204202086000000000000
B0632513129637S11740307EA0202902079000000000000
B0632553129578S11740208EA0203102080000000000000
B0632593129522S11740113EA0202802078000000000000
B0633033129467S11740017EA0202002063000000000000
B0633073129411S11739917EA0200002044000000000000
B0633113129355S11739812EA0198902035000000000000
B0633153129301S11739709EA0198902036000000000000
B0633193129251S11739609EA0198802032000000000000
B0633233129200S11739506EA0197702021000000000000
B0633273129148S11739405EA0197302019000000000000
B0633313129100S11739306EA0197002015000000000000
B0633353129051S11739208EA0196702012000000000000
B0633393129001S11739112EA0196302006000000000000
B0633433128954S11739016EA0195301996000000000000
B0633473128906S11738916EA0194101982000000000000
B0633513128857S11738815EA0193101972000000000000
B0633553128809S11738713EA0192401962000000000000
B0633593128758S11738610EA0191101951000000000000
B0634033128705S11738510EA0190501945000000000000
B0634073128651S11738413EA0190401949000000000000
B0634113128598S11738322EA0191401955000000000000
B0634153128545S11738233EA0191301951000000000000
B0634193128493S11738144EA0191001948000000000000
B0634233128440S11738055EA0189901936000000000000
B0634273128386S11737963EA0188701921000000000000
B0634313128334S11737868EA0187801912000000000000
B0634353128286S11737772EA0186501899000000000000
B0634393128238S11737673EA0185301887000000000000
B0634433128189S11737577EA0184101877000000000000
B0634473128139S11737481EA0183201868000000000000
B0634513128087S11737387EA0182401859000000000000
B0634553128031S11737296EA0181501849000000000000
B0634593127974S11737205EA0180501839000000000000
B0635033127920S11737117EA0180601841000000000000
B0635073127868S11737027EA0180301832000000000000
B0635113127816S11736931EA0178401809000000000000
B0635153127762S11736832EA0176501797000000000000
B0635193127708S11736736EA0176001794000000000000
B0635233127652S11736644EA0175201783000000000000
B0635273127593S11736550EA0174401777000000000000
B0635313127536S11736460EA0174201776000000000000
B0635353127481S11736371EA0173801770000000000000
B0635393127427S11736277EA0172801754000000000000
B0635433127370S11736182EA0171601747000000000000
B0635473127314S11736088EA0171101741000000000000
B0635513127258S11735996EA0170101727000000000000
B0635553127205S11735903EA0168501709000000000000
B0635593127151S11735808EA0166801691000000000000
B0636033127099S11735713EA0165301679000000000000
B0636073127042S11735620EA0164201664000000000000
B0636113126982S11735528EA0162601647000000000000
B0636153126924S11735435EA0160901628000000000000
B0636193126863S11735337EA0159001611000000000000
B0636233126800S11735241EA0157501593000000000000
B0636273126738S11735145EA0155701576000000000000
B0636313126675S11735054EA0154501565000000000000
B0636353126614S11734963EA0153101544000000000000
B0636393126547S11734873EA0150601515000000000000
B0636433126475S11734775EA0148001497000000000000
B0636473126408S11734681EA0147401498000000000000
B0636513126341S11734593EA0148001504000000000000
B0636553126274S11734514EA0148401508000000000000
B0636593126206S11734440EA0149001515000000000000
B0637033126140S11734372EA0150901540000000000000
B0637073126075S11734315EA0153101558000000000000
B0637113126014S11734265EA0154901573000000000000
B0637153125946S11734246EA0155801578000000000000
B0637193125895S11734300EA0155601575000000000000
B0637233125901S11734375EA0156001580000000000000
B0637273125947S11734418EA0156301583000000000000
B0637313126009S11734395EA0156001581000000000000
B0637353126035S11734318EA0156101586000000000000
B0637393126040S11734231EA0156101581000000000000
B0637433126029S11734140EA0155901586000000000000
B0637473126005S11734053EA0157401606000000000000
B0637513125972S11733976EA0159801639000000000000
B0637553125916S11733971EA0163701677000000000000
B0637593125902S11734033EA0165001685000000000000
B0638033125950S11734060EA0166701709000000000000
B0638073125989S11734015EA0168301723000000000000
B0638113125973S11733942EA0169901743000000000000
B0638153125915S11733925EA0172701771000000000000
B0638193125882S11733979EA0174701788000000000000
B0638233125915S11734033EA0176501808000000000000
B0638273125972S11734021EA0178301827000000000000
B0638313125992S11733951EA0179901843000000000000
B0638353125949S11733891EA0181601869000000000000
B0638393125890S11733901EA0184201893000000000000
B0638433125871S11733964EA0186001904000000000000
B0638473125919S11734010EA0186801916000000000000
B0638513125971S11733975EA0189401947000000000000
B0638553125975S11733901EA0191901969000000000000
B0638593125927S11733847EA0193701988000000000000
B0639033125872S11733869EA0195902010000000000000
B0639073125867S11733937EA0197702022000000000000
B0639113125919S11733972EA0198702036000000000000
B0639153125958S11733917EA0200802058000000000000
B0639193125916S11733852EA0202902082000000000000
B0639233125856S11733873EA0204902109000000000000
B0639273125847S11733941EA0207302126000000000000
B0639313125894S11733986EA0208302134000000000000
B0639353125950S11733949EA0209702156000000000000
B0639393125942S11733873EA0212002177000000000000
B0639433125882S11733846EA0213702192000000000000
B0639473125847S11733906EA0215902219000000000000
B0639513125882S11733963EA0218002236000000000000
B0639553125944S11733947EA0219102251000000000000
B0639593125955S11733875EA0220902267000000000000
B0640033125901S11733824EA0221402265000000000000
B0640073125834S11733854EA0222702293000000000000
B0640113125837S11733921EA0226102324000000000000
B0640153125890S11733942EA0227002326000000000000
B0640193125932S11733884EA0227902342000000000000
B0640233125910S11733808EA0229402351000000000000
B0640273125854S11733741EA0227702327000000000000
B0640313125788S11733659EA0225802318000000000000
B0640353125721S11733570EA0225802318000000000000
B0640393125651S11733477EA0223702291000000000000
B0640433125580S11733370EA0221302263000000000000
B0640473125512S11733256EA0220102258000000000000
B0640513125446S11733140EA0218202233000000000000
B0640553125382S11733020EA0216602226000000000000
B0640593125317S11732903EA0215902213000000000000
B0641033125249S11732785EA0214002197000000000000
B0641073125183S11732671EA0213602200000000000000
B0641113125117S11732562EA0213802195000000000000
B0641153125049S11732452EA0213402194000000000000
B0641193124985S11732347EA0213002184000000000000
B0641233124923S11732244EA0211502168000000000000
B0641273124859S11732139EA0210002151000000015000
B0641313124793S11732039EA0209802141000000000000
B0641353124727S11731936EA0207702126000000000000
B0641393124659S11731835EA0207002120000000000000
B0641433124592S11731736EA0206202108000000000000
B0641473124525S11731636EA0204702094000000000000
B0641513124458S11731535EA0203502084000000000000
B0641553124391S11731436EA0203102081000000000000
B0641593124325S11731338EA0204002099000000000000
B0642033124264S11731249EA0206102112000000000000
B0642073124205S11731161EA0206402116000000000000
B0642113124146S11731082EA0206502104000000000000
B0642153124083S11731000EA0204802091000000000000
B0642193124023S11730912EA0204602101000000000000
B0642233123966S11730830EA0206202108000000000000
B0642273123908S11730745EA0206402113000000000000
B0642313123847S11730673EA0207802127000000000000
B0642353123787S11730609EA0209702152000000000000
B0642393123734S11730550EA0211002157000000000000
B0642433123676S11730484EA0209002129000000000000
B0642473123613S11730409EA0208002124000000000000
B0642513123546S11730328EA0207202110000000000000
B0642553123477S11730237EA0204802095000000000000
B0642593123412S11730150EA0205802106000000000000
B0643033123346S11730060EA0204802089000000000000
B0643073123279S11729964EA0203902087000000000000
B0643113123212S11729868EA0203902084000000000000
B0643153123143S11729770EA0202502064000000000000
B0643193123074S11729672EA0200802052000000000000
B0643233123008S11729572EA0200202046000000000000
B0643273122943S11729474EA0199602043000000000000
B0643313122879S11729378EA0199102032000000000000
B0643353122816S11729278EA0197702020000000000000
B0643393122752S11729176EA0197202015000000000000
B0643433122688S11729079EA0196702008000000000000
B0643473122623S11728984EA0195902000000000000000
B0643513122560S11728893EA0195001988000000000000
B0643553122493S11728802EA0193501970000000000000
B0643593122427S11728714EA0192501960000000000000
B0644033122359S11728628EA0191201944000000000000
B0644073122291S11728542EA0189301923000000000000
B0644113122214S11728460EA0187501907000000000000
B0644153122135S11728379EA0185801889000000000000
B0644193122055S11728291EA0184101875000000000000
B0644233121975S11728203EA0183201870000000000000
B0644273121894S11728117EA0183601881000000000000
B0644313121816S11728036EA0184601887000000000000
B0644353121741S11727967EA0186801929000000000000
B0644393121677S11727913EA0190801953000000000000
B0644433121613S11727862EA0191301943000000000000
B0644473121546S11727806EA0189601925000000000000
B0644513121473S11727748EA0187601900000000000000
B0644553121397S11727675EA0184401869000000000000
B0644593121323S11727590EA0183001878000000000000
B0645033121254S11727510EA0184101887000000000000
B0645073121191S11727436EA0186101919000000000000
B0645113121131S11727376EA0189701948000000000000
B0645153121069S11727329EA0191701960000000000000
B0645193120996S11727315EA0192601966000000000000
B0645233120936S11727264EA0193001977000000000000
B0645273120955S11727193EA0195402005000000000000
B0645313121017S11727173EA0196802004000000000000
B0645353121087S11727178EA0195901998000000000000
B0645393121154S11727157EA0196302009000000000000
B0645433121188S11727092EA0197102008000000000000
B0645473121174S11727003EA0194501970000000000000
B0645513121131S11726901EA0189801926000000000000
B0645553121071S11726797EA0186801904000000000000
B0645593121007S11726691EA0184701883000000000000
B0646033120941S11726583EA0182801865000000000000
B0646073120874S11726476EA0181101852000000000000
B0646113120809S11726374EA0180801848000000000000
B0646153120741S11726273EA0180301843000000015000
B0646193120675S11726180EA0180801848000000000000
B0646233120608S11726088EA0180201839000000000000
B0646273120541S11725993EA0179101821000000000000
B0646313120474S11725889EA0177201804000000000000
B0646353120412S11725783EA0176501808000000000000
B0646393120354S11725685EA0177101807000000000000
B0646433120298S11725583EA0176001793000000000000
B0646473120246S11725478EA0174901780000000000000
B0646513120194S11725371EA0174101774000000000000
B0646553120144S11725267EA0173701771000000000000
B0646593120096S11725167EA0173801773000000000000
B0647033120051S11725070EA0173401765000000000000
B0647073120008S11724971EA0172601753000000000000
B0647113119965S11724869EA0171501743000000000000
B0647153119922S11724769EA0170701735000000000000
B0647193119879S11724668EA0169601725000000000000
B0647233119834S11724569EA0169301722000000000000
B0647273119789S11724474EA0169301722000000000000
B0647313119746S11724383EA0169301721000000000000
B0647353119705S11724292EA0168901714000000000000
B0647393119663S11724203EA0168301706000000000000
B0647433119620S11724113EA0167501699000000000000
B0647473119580S11724027EA0168301726000000000000
B0647513119541S11723952EA0171301744000000000000
B0647553119472S11723915EA0172501760000000000000
B0647593119402S11723936EA0174201774000000000000
B0648033119375S11724006EA0175101777000000000000
B0648073119410S11724067EA0173901760000000000000
B0648113119473S11724056EA0173301758000000000000
B0648153119499S11723978EA0172901757000000000000
B0648193119511S11723888EA0174201776000000015000
B0648233119519S11723809EA0176301802000000000000
B0648273119510S11723733EA0178601817000000000000
B0648313119457S11723676EA0179101821000000000000
B0648353119392S11723705EA0179801838000000000000
B0648393119420S11723767EA0181101849000000000000
B0648433119475S11723735EA0183201882000000000000
B0648473119473S11723657EA0186101902000000000000
B0648513119411S11723608EA0186801909000000000000
B0648553119351S11723645EA0188501929000000000000
B0648593119373S11723712EA0189901938000000000000
B0649033119434S11723688EA0191001960000000000000
B0649073119433S11723608EA0194001990000000000000
B0649113119373S11723563EA0195201996000000000000
B0649153119307S11723593EA0196302012000000000000
B0649193119302S11723664EA0198302036000000000000
B0649233119351S11723694EA0200702056000000000000
B0649273119399S11723650EA0202502076000000000000
B0649313119385S11723572EA0203902091000000000000
B0649353119323S11723532EA0204802101000000000000
B0649393119259S11723558EA0205402109000000000000
B0649433119230S11723634EA0205802110000000000000
B0649473119242S11723722EA0206402120000000000000
B0649513119298S11723745EA0209102154000000000000
B0649553119325S11723684EA0211602176000000000000
B0649593119280S11723623EA0213002190000000000000
B0650033119213S11723640EA0214802211000000000000
B0650073119200S11723710EA0216402221000000000000
B0650113119249S11723759EA0216802226000000000000
B0650153119311S11723742EA0218402249000000000000
B0650193119327S11723667EA0220002260000000000000
B0650233119272S11723602EA0219902258000000000000
B0650273119186S11723607EA0220702273000000000000
B0650313119134S11723671EA0222402294000000000000
B0650353119150S11723744EA0224402311000000000000
B0650393119208S11723748EA0225202319000000000000
B0650433119242S11723679EA0226402329000000000000
B0650473119232S11723584EA0225602317000000000000
B0650513119200S11723476EA0223002287000000000000
B0650553119161S11723350EA0219902262000000000000
B0650593119120S11723215EA0218502253000000000000
B0651033119073S11723074EA0216802236000000000000
B0651073119025S11722932EA0215502215000000000000
B0651113118981S11722789EA0213202203000000000000
B0651153118937S11722653EA0213102196000000000000
B0651193118895S11722519EA0211802181000000000000
B0651233118849S11722383EA0210202165000000000000
B0651273118808S11722247EA0209502158000000000000
B0651313118766S11722113EA0208602147000000000000
B0651353118725S11721980EA0207602133000000000000
B0651393118684S11721844EA0206502122000000000000
B0651433118645S11721710EA0205302113000000000000
B0651473118604S11721578EA0204702102000000000000
B0651513118561S11721445EA0202902089000000000000
B0651553118522S11721318EA0204202108000000000000
B0651593118483S11721200EA0205102106000000000000
B0652033118443S11721079EA0203402086000000000000
B0652073118404S11720955EA0202902084000000000000
B0652113118379S11720837EA0205002110000000000000
B0652153118363S11720725EA0205802109000000000000
B0652193118348S11720608EA0204202081000000000000
B0652233118335S11720485EA0201502064000000000000
B0652273118326S11720362EA0201202068000000000000
B0652313118315S11720247EA0200902052000000000000
B0652353118306S11720127EA0198202026000000000000
B0652393118297S11720009EA0197702026000000000000
B0652433118288S11719893EA0197302018000000000000
B0652473118281S11719773EA0196202009000000000000
B0652513118271S11719654EA0195802007000000000000
B0652553118259S11719536EA0196702018000000000000
B0652593118245S11719425EA0197902026000000000000
B0653033118223S11719313EA0197002010000000000000
B0653073118197S11719194EA0195001989000000000000
B0653113118164S11719068EA0193801987000000015000
B0653153118131S11718951EA0194201987000000000000
B0653193118095S11718836EA0192901965000000000000
B0653233118058S11718717EA0190701949000000000000
B0653273118020S11718598EA0190001947000000000000
B0653313117982S11718483EA0189801944000000000000
B0653353117947S11718369EA0189501939000000000000
B0653393117915S11718251EA0188101914000000000000
B0653433117884S11718128EA0185701897000000000000
B0653473117850S11718004EA0185101895000000000000
B0653513117817S11717882EA0183801878000000000000
B0653553117785S11717757EA0182501864000000000000
B0653593117750S11717631EA0181001849000000000000
B0654033117716S11717506EA0180201845000000000000
B0654073117683S11717384EA0179501835000000000000
B0654113117650S11717259EA0177801819000000000000
B0654153117614S11717136EA0176401801000000000000
B0654193117583S11717012EA0175501791000000000000
B0654233117552S11716889EA0174401778000000000000
B0654273117521S11716768EA0173601774000000000000
B0654313117488S11716650EA0173001762000000000000
B0654353117457S11716531EA0171801749000000000000
B0654393117427S11716413EA0170701742000000000000
B0654433117399S11716297EA0169901732000000000000
B0654473117367S11716184EA0169901738000000000000
B0654513117334S11716076EA0170601740000000000000
B0654553117296S11715974EA0170701743000000000000
B0654593117252S11715879EA0171601751000000000000
B0655033117201S11715792EA0172001750000000000000
B0655073117152S11715704EA0172401760000000000000
B0655113117111S11715624EA0173901777000000000000
B0655153117067S11715551EA0175401787000000000000
B0655193117015S11715489EA0177201802000000000000
B0655233116949S11715498EA0177901810000000000000
B0655273116928S11715565EA0177901806000000000000
B0655313116968S11715619EA0176901796000000000000
B0655353117040S11715603EA0176901803000000000000
B0655393117098S11715550EA0178101816000000000000
B0655433117094S11715469EA0179301830000000000000
B0655473117033S11715408EA0179001816000000000000
B0655513116958S11715348EA0177301804000000000000
B0655553116879S11715288EA0176701802000000000000
B0655593116797S11715231EA0175801790000000000000
B0656033116724S11715147EA0172801760000000000000
B0656073116682S11715028EA0170501747000000000000
B0656113116650S11714910EA0169901734000000000000
B0656153116621S11714791EA0168101707000000000000
B0656193116593S11714668EA0165901698000000000000
B0656233116564S11714553EA0165901699000000000000
B0656273116537S11714441EA0165001680000000000000
B0656313116515S11714325EA0164001678000000000000
B0656353116493S11714213EA0164401677000000000000
B0656393116469S11714102EA0163601669000000000000
B0656433116434S11713995EA0163401667000000000000
B0656473116398S11713894EA0163701672000000000000
B0656513116363S11713797EA0164001674000000000000
B0656553116325S11713704EA0164401675000000000000
B0656593116287S11713613EA0164001668000000000000
B0657033116243S11713523EA0164001672000000000000
B0657073116196S11713439EA0165101691000000000000
B0657113116152S11713366EA0167601712000000000000
B0657153116103S11713303EA0169301727000000000000
B0657193116047S11713250EA0170301736000000000000
B0657233115986S11713205EA0171901753000000000000
B0657273115921S11713214EA0174101776000000000000
B0657313115906S11713277EA0175201791000000000000
B0657353115956S11713303EA0176701806000000000000
B0657393115992S11713253EA0178201818000000000000
B0657433115966S11713182EA0179101830000000000000
B0657473115904S11713188EA0181001851000000000000
B0657513115889S11713250EA0182401866000000000000
B0657553115932S11713280EA0183801880000000000000
B0657593115970S11713229EA0184701890000000000000
B0658033115947S11713163EA0186501911000000000000
B0658073115884S11713153EA0187901922000000000000
B0658113115840S11713205EA0188701932000000000000
B0658153115850S11713271EA0190001947000000000000
B0658193115904S11713286EA0192001967000000000000
B0658233115939S11713236EA0193301977000000000000
B0658273115913S11713166EA0193701984000000000000
B0658313115850S11713138EA0194702001000000000000
B0658353115797S11713179EA0195902006000000000000
B0658393115796S11713253EA0196202010000000000000
B0658433115848S11713286EA0197702033000000000000
B0658473115896S11713258EA0200002053000000000000
B0658513115898S11713188EA0200902057000000000000
B0658553115849S11713136EA0201302064000000000000
B0658593115788S11713158EA0202502074000000000000
B0659033115774S11713228EA0203102082000000000000
B0659073115811S11713275EA0204302102000000000000
B0659113115863S11713260EA0205902112000000015000
B0659153115882S11713192EA0206002113000000000000
B0659193115845S11713120EA0205702112000000000000
B0659233115771S11713084EA0205502110000000000000
B0659273115697S11713114EA0205102107000000000000
B0659313115658S11713194EA0204802105000000000000
B0659353115671S11713283EA0204802100000000000000
B0659393115741S11713302EA0203302080000000000000
B0659433115791S11713216EA0202102073000000000000
B0659473115776S11713099EA0202002072000000000000
B0659513115727S11712985EA0199102043000000000000
B0659553115664S11712864EA0196802021000000000000
B0659593115602S11712737EA0195102001000000000000
B0700033115554S11712599EA0192401970000000000000
B0700073115529S11712452EA0190301956000000000000
B0700113115525S11712309EA0189901957000000000000
B0700153115534S11712166EA0189201945000000000000
B0700193115551S11712032EA0189301952000000000000
B0700233115571S11711906EA0189101947000000000000
B0700273115593S11711780EA0188101933000000000000
B0700313115615S11711651EA0186801921000000000000
B0700353115637S11711522EA0186401921000000000000
B0700393115657S11711399EA0187201925000000000000
B0700433115674S11711279EA0187101921000000000000
B0700473115692S11711161EA0186201909000000000000
B0700513115710S11711041EA0184901897000000000000
B0700553115727S11710919EA0183601883000000000000
B0700593115745S11710796EA0182301869000000000000
B0701033115765S11710673EA0181701865000000000000
B0701073115781S11710554EA0181501859000000000000
B0701113115798S11710436EA0181201863000000000000
B0701153115813S11710321EA0182601875000000000000
B0701193115824S11710211EA0184801902000000000000
B0701233115835S11710107EA0187701927000000000000
B0701273115845S11710007EA0189301936000000000000
B0701313115824S11709913EA0190601951000000000000
B0701353115758S11709877EA0191401954000000000000
B0701393115706S11709922EA0191501956000000000000
B0701433115733S11709992EA0191801963000000000000
B0701473115796S11710042EA0192401967000000000000
B0701513115866S11710069EA0193201977000000000000
B0701553115931S11710043EA0194701999000000000000
B0701593115971S11709978EA0195502000000000000000
B0702033115991S11709892EA0195101991000000000000
B0702073115988S11709800EA0194501988000000000000
B0702113115962S11709705EA0193201968000000000000
B0702153115919S11709607EA0189901929000000000000
B0702193115862S11709500EA0186201899000000000000
B0702233115798S11709392EA0183901877000000000000
B0702273115731S11709286EA0182001861000000000000
B0702313115662S11709184EA0180301842000000000000
B0702353115592S11709082EA0179001833000000000000
B0702393115520S11708987EA0179001832000000000000
B0702433115450S11708892EA0178401822000000000000
B0702473115381S11708794EA0176901808000000000000
B0702513115310S11708696EA0176001799000000000000
B0702553115235S11708600EA0175301795000000000000
B0702593115163S11708506EA0175401796000000000000
B0703033115092S11708414EA0175701802000000000000
B0703073115024S11708324EA0175701799000000000000
B0703113114956S11708236EA0175201792000000000000
B0703153114890S11708148EA0174901790000000000000
B0703193114827S11708062EA0174701783000000000000
B0703233114766S11707972EA0173301765000000000000
B0703273114702S11707881EA0171601751000000000000
B0703313114639S11707789EA0170801741000000000000
B0703353114576S11707695EA0169001721000000000000
B0703393114511S11707603EA0167701713000000000000
B0703433114449S11707509EA0167201706000000000000
B0703473114385S11707416EA0166401693000000000000
B0703513114319S11707319EA0165101682000000000000
B0703553114251S11707223EA0163601666000000000000
B0703593114182S11707124EA0162901663000000000000
B0704033114117S11707026EA0162301655000000000000
B0704073114052S11706926EA0161801654000000000000
B0704113113989S11706828EA0161701647000000000000
B0704153113921S11706729EA0160401638000000000000
B0704193113860S11706632EA0159901630000000000000
B0704233113803S11706526EA0158501617000000000000
B0704273113746S11706422EA0158301617000000000000
B0704313113690S11706322EA0158501612000000000000
B0704353113635S11706218EA0157201599000000000000
B0704393113579S11706113EA0156101588000000000000
B0704433113518S11706008EA0154801576000000000000
B0704473113454S11705906EA0154201570000000000000
B0704513113391S11705806EA0154401575000000000000
B0704553113327S11705713EA0155201585000000000000
B0704593113267S11705627EA0156401595000000000000
B0705033113206S11705544EA0157201601000000000000
B0705073113144S11705460EA0157401607000000000000
B0705113113085S11705382EA0158101608000000000000
B0705153113023S11705299EA0156801591000000000000
B0705193112960S11705210EA0156401594000000000000
B0705233112905S11705119EA0156501591000000000000
B0705273112849S11705024EA0155401578000000000000
B0705313112789S11704933EA0154801574000000000000
B0705353112730S11704844EA0153301557000000000000
B0705393112673S11704751EA0152201545000000000000
B0705433112617S11704657EA0151501537000000000000
B0705473112561S11704561EA0150601523000000000000
B0705513112504S11704463EA0149301515000000000000
B0705553112447S11704366EA0149001509000000000000
B0705593112394S11704267EA0148601511000000000000
B0706033112344S11704172EA0150201536000000000000
B0706073112297S11704088EA0152801562000000000000
B0706113112255S11704014EA0155301575000000000000
B0706153112205S11703941EA0155101567000000000000
B0706193112145S11703869EA0153901552000000000000
B0706233112086S11703795EA0152501542000000000000
B0706273112027S11703720EA0151501528000000000000
B0706313111971S11703640EA0150101515000000000000
B0706353111915S11703559EA0148701503000000000000
B0706393111857S11703474EA0147601488000000000000
B0706433111798S11703387EA0146201472000000000000
B0706473111744S11703296EA0144601462000000000000
B0706513111694S11703201EA0144201457000000000000
B0706553111650S11703106EA0143501450000000000000
B0706593111606S11703010EA0142601438000000000000
B0707033111563S11702912EA0141401426000000000000
B0707073111517S11702812EA0140101413000000000000
B0707113111475S11702708EA0139201404000000000000
B0707153111437S11702602EA0138401396000000000000
B0707193111404S11702494EA0138001395000000000000
B0707233111377S11702386EA0137801391000000000000
B0707273111351S11702282EA0137401385000000000000
B0707313111322S11702178EA0136501377000000000000
B0707353111293S11702077EA0136301376000000000000
B0707393111257S11701979EA0136401379000000000000
B0707433111220S11701888EA0136801382000000000000
B0707473111181S11701800EA0136901381000000000000
B0707513111143S11701714EA0137101383000000000000
B0707553111108S11701631EA0136901377000000000000
B0707593111074S11701546EA0136501373000000000000
B0708033111038S11701467EA0136301369000000000000
B0708073111023S11701381EA0135501354000000000000
B0708113111059S11701303EA0133601332000000000000
B0708153111135S11701271EA0131201312000000000000
B0708193111221S11701281EA0128801291000000000000
B0708233111307S11701313EA0127501280000000000000
B0708273111390S11701358EA0126301268000000000000
B0708313111472S11701407EA0125501263000000000000
B0708353111555S11701455EA0124601250000000000000
B0708393111641S11701502EA0123601239000000000000
B0708433111727S11701550EA0122001223000000000000
B0708473111813S11701598EA0121001216000000000000
B0708513111898S11701642EA0121101218000000000000
B0708553111988S11701679EA0120301211000000000000
B0708593112078S11701714EA0121301229000000000000
B0709033112156S11701716EA0125801278000000000000
B0709073112171S11701653EA0129801312000000000000
B0709113112115S11701611EA0129401307000000000000
B0709153112058S11701653EA0129801317000000000000
B0709193112043S11701731EA0131301339000000000000
B0709233112080S11701780EA0133801361000000000000
B0709273112126S11701750EA0135101369000000000000
B0709313112118S11701679EA0135401374000000000000
B0709353112057S11701648EA0136201386000000000000
B0709393111998S11701689EA0137901407000000000000
B0709433111988S11701762EA0139901427000000000000
B0709473112022S11701820EA0141801443000000000000
B0709513112075S11701831EA0143201456000000000000
B0709553112117S11701791EA0144301466000000000000
B0709593112115S11701722EA0145101473000000000000
B0710033112070S11701671EA0146301490000000000000
B0710073112009S11701675EA0147801514000000000000
B0710113111982S11701735EA0149801529000000000000
B0710153112006S11701797EA0151101545000000000000
B0710193112058S11701798EA0153101558000000000000
B0710233112079S11701739EA0153401560000000000000
B0710273112045S11701676EA0154401575000000000000
B0710313111982S11701674EA0156201596000000000000
B0710353111939S11701728EA0157701608000000000000
B0710393111937S11701804EA0158701617000000000000
B0710433111978S11701857EA0160101635000000000000
B0710473112023S11701832EA0161701649000000000000
B0710513112019S11701770EA0162501660000000000000
B0710553111967S11701728EA0163701676000000000000
B0710593111909S11701759EA0165401693000000000000
B0711033111893S11701836EA0166401702000000000000
B0711073111930S11701895EA0167701714000000000000
B0711113111983S11701879EA0168801722000000000000
B0711153111979S11701813EA0169801736000000000000
B0711193111919S11701793EA0171201751000000000000
B0711233111872S11701848EA0172801769000000000000
B0711273111875S11701924EA0174001777000000000000
B0711313111928S11701960EA0174001778000000000000
B0711353111972S11701918EA0174701789000000000000
B0711393111959S11701850EA0175601800000000000000
B0711433111900S11701810EA0176701817000000000000
B0711473111839S11701833EA0179301847000000000000
B0711513111823S11701901EA0181301857000000000000
B0711553111857S11701961EA0180801845000000000000
