ACAM4N6
HFDTE201120
HFFXA050
HFPLTPILOT:JOHN WELSH              
HFGTYGLIDERTYPE:HORNET      
HFGIDGLIDERID:VH-GMY      
HFDTM100GPSDATUM:
HFRFWFIRMWAREVERSION:F2.6
HFRHWHARDWAREVERSION:300 Series Version 2
HFFTYFRTYPE:CAMBRIDGE AERO INSTRUMENTS, 302+
HFGPS:GARMIN,LVS-25,12,18000
HFPRSPRESSALTSENSOR:INTERSEMA, MS5534-AP, 20000
I033638FXA3941ENL4247REX
LCAMSBVER:5FWVER:F26300
C201120051059201120000101
C0000000N00000000WTAKEOFF     
C3207549S11656849EBEVERLEY AF 
C3301433S11652382EWilliams    
C3207549S11656849EBEVERLEY AF 
C0000000N00000000WLANDING     
B0513473207339S11656856EA0022700205000000000000
B0513493207339S11656856EA0022700205000000000000
B0513513207339S11656856EA0022600205000000000000
B0513533207339S11656856EA0022700205000000000000
B0513553207339S11656856EA0022800205000000000000
B0513573207339S11656856EA0022800205000000000000
B0513593207339S11656856EA0022800205000000000000
B0514013207339S11656856EA0022800205000000000000
B0514033207339S11656856EA0022800205000000000000
B0514053207339S11656856EA0022800205000000000000
B0514073207339S11656856EA0022800205000000000000
B0514093207338S11656856EA0022800205000000000000
B0514113207338S11656856EA0022700205000000000000
B0514133207338S11656856EA0022800205000000000000
B0514153207339S11656857EA0022800206000000000000
B0514183207346S11656862EA0022900206000000000000
B0514223207367S11656880EA0022800205000000000000
B0514263207406S11656908EA0022700205000000000000
B0514303207458S11656943EA0022900206000000000000
B0514343207521S11656986EA0023200207000000000000
B0514383207592S11657033EA0023200210000000000000
B0514423207664S11657088EA0023600214000000000000
B0514463207736S11657135EA0024800232000000000000
B0514503207805S11657181EA0026300247000000000000
B0514543207871S11657229EA0027400263000000000000
B0514583207939S11657277EA0028700275000000000000
B0515023208006S11657321EA0029900291000000000000
B0515063208074S11657361EA0031900313000000000000
B0515103208143S11657402EA0033000321000000000000
B0515143208213S11657441EA0033700330000000000000
B0515183208286S11657464EA0034700341000000000000
B0515223208359S11657473EA0036400362000000000000
B0515263208426S11657463EA0038900387000000000000
B0515303208489S11657437EA0040400398000000000000
B0515343208546S11657395EA0041100402000000000000
B0515383208593S11657343EA0042000415000000000000
B0515423208632S11657283EA0043500431000000000000
B0515463208663S11657216EA0044500440000000000000
B0515503208680S11657137EA0045100445000000000000
B0515543208681S11657053EA0045700455000000000000
B0515583208673S11656969EA0047000469000000000000
B0516023208654S11656882EA0048400481000000000000
B0516063208624S11656797EA0049900497000000000000
B0516103208587S11656715EA0051300513000000000000
B0516143208543S11656640EA0052800531000000000000
B0516183208494S11656572EA0054400543000000000000
B0516223208441S11656506EA0055400551000000000000
B0516263208391S11656437EA0057200576000000000000
B0516303208356S11656359EA0059400598000000000000
B0516343208344S11656277EA0061400617000000000000
B0516383208348S11656199EA0062900632000000000000
B0516423208366S11656128EA0064200643000000000000
B0516463208402S11656065EA0064600647000000000000
B0516503208451S11656017EA0065100652000000000000
B0516543208513S11655987EA0065600660000000000000
B0516583208584S11655977EA0066600671000000000000
B0517023208658S11655987EA0067800682000000000000
B0517063208732S11656017EA0068500688000000000000
B0517103208802S11656069EA0069200695000000000000
B0517143208862S11656143EA0070200708000000000000
B0517183208905S11656236EA0071500721000000000000
B0517223208935S11656337EA0072700736000000000000
B0517263208944S11656448EA0074100750000000000000
B0517303208932S11656558EA0076200772000000000000
B0517343208903S11656669EA0078400795000000000000
B0517383208902S11656769EA0080300810000000000000
B0517423208955S11656809EA0081200825000000000000
B0517463208988S11656774EA0082200824000000000000
B0517503208963S11656721EA0082000822000000000000
B0517543208897S11656736EA0082600837000000015000
B0517583208881S11656823EA0083200838000000015000
B0518023208931S11656882EA0083600846000000015000
B0518063208981S11656860EA0084400857000000015000
B0518103208980S11656802EA0085500864000000015000
B0518143208925S11656770EA0085200861000000015000
B0518183208855S11656784EA0085700872000000015000
B0518223208815S11656857EA0087300888000000015000
B0518263208829S11656930EA0088300895000000015000
B0518303208876S11656956EA0088700896000000015000
B0518343208919S11656929EA0088600896000000015000
B0518383208925S11656870EA0088800899000000015000
B0518423208873S11656832EA0088800898000000015000
B0518463208811S11656873EA0089600910000000015000
B0518503208802S11656955EA0090200912000000015000
B0518543208846S11656990EA0090800924000000015000
B0518583208863S11656935EA0091600925000000015000
B0519023208806S11656904EA0092200938000000015000
B0519063208746S11656949EA0093600949000000015000
B0519103208736S11657033EA0094100953000000015000
B0519143208776S11657078EA0095100969000000015000
B0519183208818S11657061EA0096200974000000015000
B0519223208827S11657005EA0096300974000000015000
B0519263208790S11656952EA0096900985000000015000
B0519303208725S11656952EA0098201000000000015000
B0519343208678S11657009EA0099301005000000015000
B0519383208680S11657083EA0099501009000000015000
B0519423208717S11657118EA0099901014000000015000
B0519463208760S11657104EA0100101016000000015000
B0519503208768S11657052EA0100601024000000015000
B0519543208716S11657021EA0101801035000000015000
B0519583208656S11657069EA0102601041000000015000
B0520023208647S11657148EA0103001048000000015000
B0520063208686S11657185EA0103801053000000015000
B0520103208727S11657164EA0103901053000000015000
B0520143208738S11657111EA0104101055000000015000
B0520183208719S11657051EA0104901065000000015000
B0520223208654S11657051EA0106001076000000015000
B0520263208620S11657137EA0106001075000000015000
B0520303208647S11657211EA0106401086000000015000
B0520343208701S11657218EA0107501094000000015000
B0520383208727S11657166EA0107901098000000015000
B0520423208694S11657113EA0109001114000000015000
B0520463208624S11657114EA0110501119000000015000
B0520503208561S11657169EA0110101113000000015000
B0520543208529S11657256EA0109701112000000015000
B0520583208546S11657341EA0110301121000000015000
B0521023208591S11657389EA0110801123000000015000
B0521063208638S11657372EA0110601123000000015000
B0521103208655S11657316EA0110601121000000015000
B0521143208643S11657246EA0110301122000000015000
B0521183208623S11657173EA0110601123000000000000
B0521223208576S11657120EA0110901129000000015000
B0521263208498S11657140EA0111301130000000015000
B0521303208454S11657230EA0111001125000000015000
B0521343208460S11657326EA0110201114000000015000
B0521383208506S11657399EA0109401111000000015000
B0521423208568S11657443EA0109901123000000015000
B0521463208630S11657447EA0111001131000000015000
B0521503208669S11657399EA0111301136000000000000
B0521543208671S11657329EA0112101139000000000000
B0521583208652S11657256EA0111301120000000015000
B0522023208620S11657179EA0110601129000000015000
B0522063208582S11657109EA0111801145000000000000
B0522103208543S11657047EA0113001151000000000000
B0522143208506S11656984EA0113601155000000000000
B0522183208469S11656919EA0113801156000000000000
B0522223208438S11656851EA0113701157000000000000
B0522263208413S11656775EA0113501153000000000000
B0522303208394S11656695EA0113101147000000000000
B0522343208370S11656610EA0111401124000000000000
B0522383208337S11656523EA0109501103000000000000
B0522423208308S11656436EA0108501103000000000000
B0522463208288S11656354EA0109301114000000000000
B0522503208262S11656280EA0109701114000000000000
B0522543208227S11656206EA0109201104000000000000
B0522583208200S11656123EA0108301095000000000000
B0523023208170S11656045EA0108901104000000000000
B0523063208097S11656016EA0109201105000000000000
B0523103208013S11656030EA0108301094000000000000
B0523143207927S11656068EA0106901080000000000000
B0523183207837S11656097EA0106701081000000000000
B0523223207753S11656137EA0107901099000000000000
B0523263207731S11656230EA0109801118000000000000
B0523303207775S11656286EA0110401109000000000000
B0523343207828S11656266EA0109301103000000015000
B0523383207844S11656206EA0109701120000000015000
B0523423207784S11656198EA0112301143000000015000
B0523463207741S11656272EA0113801158000000015000
B0523503207763S11656346EA0115001169000000015000
B0523543207806S11656347EA0115701177000000015000
B0523583207811S11656307EA0116701183000000015000
B0524023207767S11656281EA0116601179000000015000
B0524063207701S11656316EA0116701184000000015000
B0524103207676S11656407EA0117101190000000015000
B0524143207711S11656476EA0117501195000000015000
B0524183207765S11656483EA0117801196000000015000
B0524223207774S11656433EA0117601191000000015000
B0524263207720S11656399EA0117401189000000015000
B0524303207653S11656441EA0117801201000000015000
B0524343207624S11656533EA0118801209000000015000
B0524383207644S11656622EA0119401214000000015000
B0524423207697S11656657EA0119501211000000015000
B0524463207737S11656622EA0119301210000000015000
B0524503207726S11656563EA0119001203000000015000
B0524543207670S11656523EA0117901190000000015000
B0524583207601S11656489EA0116701179000000000000
B0525023207523S11656471EA0116401178000000000000
B0525063207437S11656455EA0116301178000000000000
B0525103207351S11656440EA0116301178000000000000
B0525143207271S11656481EA0117301197000000000000
B0525183207263S11656575EA0118401199000000015000
B0525223207316S11656637EA0117401180000000015000
B0525263207384S11656685EA0115701167000000015000
B0525303207460S11656724EA0114501158000000000000
B0525343207536S11656739EA0114801168000000000000
B0525383207540S11656683EA0117101195000000015000
B0525423207469S11656657EA0117301178000000015000
B0525463207384S11656710EA0116701187000000015000
B0525503207365S11656813EA0118601210000000015000
B0525543207412S11656867EA0119801213000000015000
B0525583207455S11656841EA0119801212000000015000
B0526023207446S11656778EA0120001218000000015000
B0526063207389S11656740EA0121001229000000015000
B0526103207310S11656749EA0121801237000000015000
B0526143207246S11656813EA0122801249000000015000
B0526183207248S11656897EA0123201247000000015000
B0526223207302S11656930EA0122301238000000015000
B0526263207347S11656897EA0122201245000000015000
B0526303207326S11656840EA0123501264000000015000
B0526343207252S11656834EA0124901274000000015000
B0526383207185S11656888EA0126201289000000015000
B0526423207181S11656971EA0126901287000000015000
B0526463207229S11657009EA0126201278000000015000
B0526503207287S11657020EA0125701280000000015000
B0526543207343S11657027EA0126201283000000015000
B0526583207402S11657036EA0126201281000000000000
B0527023207462S11657039EA0124301251000000000000
B0527063207532S11657034EA0121701228000000000000
B0527103207609S11657048EA0120701217000000000000
B0527143207685S11657070EA0119401203000000000000
B0527183207759S11657105EA0118401199000000000000
B0527223207830S11657144EA0118101192000000000000
B0527263207904S11657176EA0116201167000000000000
B0527303207983S11657202EA0113501142000000000000
B0527343208065S11657225EA0111801127000000000000
B0527383208147S11657248EA0110201110000000000000
B0527423208226S11657276EA0108601099000000000000
B0527463208301S11657303EA0108101094000000000000
B0527503208377S11657338EA0107401081000000000000
B0527543208451S11657372EA0108001101000000000000
B0527583208500S11657348EA0110701136000000000000
B0528023208485S11657296EA0112801142000000000000
B0528063208416S11657287EA0112301133000000000000
B0528103208353S11657350EA0112101135000000015000
B0528143208337S11657449EA0112001136000000015000
B0528183208352S11657545EA0112001135000000015000
B0528223208400S11657616EA0112101139000000015000
B0528263208443S11657603EA0114401172000000015000
B0528303208434S11657556EA0115501173000000015000
B0528343208372S11657528EA0114101161000000015000
B0528383208296S11657568EA0114201168000000015000
B0528423208244S11657650EA0115001174000000015000
B0528463208248S11657744EA0114801164000000015000
B0528503208300S11657798EA0113701155000000015000
B0528543208368S11657816EA0113101150000000015000
B0528583208435S11657819EA0113301154000000015000
B0529023208499S11657803EA0112101129000000015000
B0529063208571S11657789EA0109501104000000000000
B0529103208649S11657780EA0108001088000000000000
B0529143208728S11657770EA0107401086000000000000
B0529183208806S11657759EA0106401070000000000000
B0529223208886S11657754EA0104701055000000000000
B0529263208966S11657753EA0103801048000000000000
B0529303209046S11657759EA0103201040000000000000
B0529343209127S11657772EA0102401032000000000000
B0529383209206S11657787EA0101801026000000000000
B0529423209284S11657807EA0101101018000000000000
B0529463209362S11657828EA0100301007000000000000
B0529503209440S11657850EA0099300998000000000000
B0529543209517S11657872EA0098300988000000000000
B0529583209594S11657894EA0097300975000000000000
B0530023209670S11657917EA0096400965000000000000
B0530063209743S11657935EA0095800962000000000000
B0530103209816S11657948EA0095300956000000000000
B0530143209887S11657959EA0094800954000000000000
B0530183209955S11657971EA0094800952000000000000
B0530223210020S11657978EA0093800936000000000000
B0530263210084S11657984EA0092600925000000000000
B0530303210147S11657992EA0091800920000000000000
B0530343210210S11658001EA0091300914000000000000
B0530383210276S11658014EA0090300902000000000000
B0530423210344S11658023EA0089800901000000000000
B0530463210411S11658031EA0090200910000000000000
B0530503210475S11658037EA0090200903000000000000
B0530543210537S11658044EA0089300894000000000000
B0530583210601S11658058EA0088400885000000000000
B0531023210665S11658075EA0087700875000000000000
B0531063210726S11658092EA0086900866000000000000
B0531103210784S11658112EA0085800853000000000000
B0531143210847S11658135EA0084800845000000000000
B0531183210913S11658165EA0083600828000000000000
B0531223210986S11658205EA0082500823000000000000
B0531263211059S11658234EA0082500822000000000000
B0531303211119S11658214EA0082600823000000000000
B0531343211156S11658167EA0082400823000000000000
B0531383211173S11658108EA0082400824000000000000
B0531423211187S11658049EA0082200815000000000000
B0531463211200S11657982EA0081500812000000000000
B0531503211202S11657911EA0082200825000000000000
B0531543211197S11657842EA0082600821000000000000
B0531583211193S11657768EA0081300807000000000000
B0532023211187S11657693EA0080600804000000000000
B0532063211171S11657620EA0080600805000000000000
B0532103211168S11657551EA0080600805000000000000
B0532143211190S11657490EA0080600805000000000000
B0532183211232S11657442EA0080600806000000000000
B0532223211277S11657395EA0080400800000000000000
B0532263211320S11657348EA0080200801000000000000
B0532303211362S11657300EA0080300805000000000000
B0532343211389S11657244EA0080900810000000000000
B0532383211403S11657182EA0081100811000000000000
B0532423211394S11657118EA0082300829000000000000
B0532463211334S11657124EA0084300846000000000000
B0532503211308S11657209EA0084700845000000000000
B0532543211343S11657287EA0084700850000000000000
B0532583211402S11657306EA0085700864000000015000
B0533023211418S11657260EA0087100882000000015000
B0533063211368S11657234EA0088700891000000015000
B0533103211314S11657289EA0089400902000000015000
B0533143211327S11657374EA0090500914000000015000
B0533183211381S11657411EA0091600924000000015000
B0533223211418S11657374EA0092200933000000015000
B0533263211392S11657324EA0093100946000000015000
B0533303211328S11657337EA0094500961000000015000
B0533343211308S11657417EA0096100978000000015000
B0533383211353S11657465EA0097000980000000015000
B0533423211388S11657433EA0097400986000000015000
B0533463211354S11657386EA0098100993000000015000
B0533503211285S11657403EA0098801000000000015000
B0533543211273S11657486EA0100301018000000015000
B0533583211325S11657514EA0101701033000000015000
B0534023211340S11657469EA0103301052000000015000
B0534063211285S11657446EA0104401055000000015000
B0534103211226S11657498EA0105301074000000015000
B0534143211221S11657582EA0106801083000000015000
B0534183211268S11657633EA0108001103000000015000
B0534223211302S11657612EA0109801116000000015000
B0534263211264S11657579EA0111201130000000015000
B0534303211204S11657615EA0112101138000000015000
B0534343211193S11657699EA0113101153000000015000
B0534383211237S11657750EA0114401166000000015000
B0534423211271S11657727EA0115801180000000015000
B0534463211249S11657684EA0117001194000000015000
B0534503211193S11657677EA0118801207000000015000
B0534543211139S11657728EA0119601217000000015000
B0534583211141S11657811EA0120601227000000015000
B0535023211190S11657820EA0121901245000000015000
B0535063211186S11657774EA0123401260000000015000
B0535103211133S11657761EA0124701272000000015000
B0535143211081S11657815EA0126001285000000015000
B0535183211082S11657901EA0126601286000000015000
B0535223211128S11657958EA0127701304000000015000
B0535263211178S11657950EA0129201317000000015000
B0535303211186S11657897EA0130501340000000015000
B0535343211148S11657855EA0132701352000000015000
B0535383211083S11657858EA0133601357000000015000
B0535423211041S11657930EA0134701378000000015000
B0535463211051S11658010EA0136501395000000015000
B0535503211099S11658049EA0138001408000000015000
B0535543211139S11658026EA0139101426000000015000
B0535583211121S11657975EA0141001443000000015000
B0536023211059S11657969EA0142501456000000015000
B0536063211004S11658024EA0144301477000000015000
B0536103211002S11658104EA0146201496000000015000
B0536143211042S11658151EA0147801512000000015000
B0536183211081S11658135EA0148901522000000015000
B0536223211068S11658084EA0150001534000000015000
B0536263211009S11658058EA0151401549000000015000
B0536303210940S11658079EA0152901565000000015000
B0536343210891S11658145EA0154401579000000015000
B0536383210888S11658232EA0154701579000000015000
B0536423210929S11658291EA0155301592000000015000
B0536463210966S11658268EA0156701604000000015000
B0536503210939S11658216EA0157501612000000015000
B0536543210872S11658221EA0158901628000000015000
B0536583210820S11658290EA0160001632000000015000
B0537023210825S11658385EA0159901634000000015000
B0537063210874S11658442EA0160501647000000015000
B0537103210920S11658427EA0162101664000000015000
B0537143210898S11658375EA0163801682000000015000
B0537183210830S11658385EA0165501697000000015000
B0537223210790S11658456EA0167101712000000015000
B0537263210804S11658538EA0167701714000000015000
B0537303210853S11658578EA0168401728000000015000
B0537343210892S11658550EA0169901744000000015000
B0537383210866S11658498EA0171601758000000015000
B0537423210796S11658513EA0173201773000000015000
B0537463210770S11658595EA0174501787000000015000
B0537503210804S11658656EA0175901803000000015000
B0537543210851S11658651EA0177401814000000015000
B0537583210855S11658599EA0178901831000000015000
B0538023210797S11658578EA0180701851000000015000
B0538063210742S11658632EA0182301864000000015000
B0538103210738S11658712EA0183201881000000015000
B0538143210775S11658760EA0185201900000000015000
B0538183210820S11658749EA0186601909000000015000
B0538223210820S11658695EA0187901923000000015000
B0538263210758S11658677EA0189501943000000015000
B0538303210706S11658737EA0191201959000000015000
B0538343210716S11658814EA0192701972000000015000
B0538383210764S11658829EA0194001986000000015000
B0538423210768S11658773EA0195201998000000015000
B0538463210705S11658759EA0197002018000000015000
B0538503210662S11658828EA0198502032000000015000
B0538543210687S11658897EA0199702046000000015000
B0538583210735S11658906EA0201102062000000015000
B0539023210760S11658864EA0202802073000000015000
B0539063210730S11658810EA0203702084000000015000
B0539103210658S11658814EA0205102098000000015000
B0539143210614S11658893EA0206302108000000015000
B0539183210641S11658966EA0207202122000000015000
B0539223210690S11658962EA0209102144000000015000
B0539263210686S11658907EA0210602153000000015000
B0539303210628S11658879EA0211702169000000015000
B0539343210570S11658915EA0213602188000000015000
B0539383210547S11658989EA0214102188000000015000
B0539423210574S11659048EA0214402194000000015000
B0539463210623S11659079EA0214702197000000015000
B0539503210652S11659141EA0216202218000000015000
B0539543210630S11659214EA0217302225000000015000
B0539583210569S11659248EA0217602228000000015000
B0540023210509S11659222EA0217902230000000015000
B0540063210487S11659159EA0218402238000000015000
B0540103210497S11659100EA0219002240000000015000
B0540143210537S11659055EA0218602227000000015000
B0540183210595S11659027EA0217502220000000015000
B0540223210657S11659010EA0218302236000000000000
B0540263210712S11659001EA0219102239000000000000
B0540303210761S11658994EA0219002234000000000000
B0540343210801S11658992EA0218202224000000000000
B0540383210846S11658993EA0215602188000000000000
B0540423210898S11658988EA0213702191000000000000
B0540463210935S11658983EA0214402195000000000000
B0540503210977S11658976EA0212302162000000000000
B0540543211031S11658958EA0210502156000000000000
B0540583211091S11658940EA0210802159000000000000
B0541023211152S11658924EA0210802155000000000000
B0541063211215S11658910EA0210302149000000000000
B0541103211277S11658899EA0209602139000000000000
B0541143211342S11658893EA0208002115000000000000
B0541183211415S11658884EA0206002091000000000000
B0541223211496S11658872EA0203702065000000000000
B0541263211583S11658855EA0201502042000000000000
B0541303211676S11658833EA0198902012000000000000
B0541343211778S11658807EA0195901980000000000000
B0541383211887S11658780EA0193401941000000000000
B0541423212004S11658749EA0189401894000000000000
B0541463212129S11658711EA0184201835000000000000
B0541503212263S11658671EA0179101785000000000000
B0541543212400S11658632EA0176501787000000000000
B0541583212528S11658595EA0177001796000000000000
B0542023212633S11658565EA0179401845000000000000
B0542063212723S11658539EA0181901838000000000000
B0542103212822S11658508EA0178601796000000000000
B0542143212926S11658478EA0176801794000000000000
B0542183213027S11658450EA0176301784000000015000
B0542223213126S11658430EA0176101787000000000000
B0542263213221S11658414EA0175301774000000000000
B0542303213317S11658401EA0173201750000000000000
B0542343213413S11658394EA0173001758000000000000
B0542383213501S11658388EA0173601758000000000000
B0542423213591S11658382EA0172501743000000000000
B0542463213680S11658373EA0172101747000000000000
B0542503213764S11658365EA0172501750000000000000
B0542543213849S11658356EA0172301744000000000000
B0542583213932S11658346EA0171901743000000000000
B0543023214012S11658340EA0171901742000000000000
B0543063214090S11658339EA0171601741000000000000
B0543103214167S11658331EA0170901728000000000000
B0543143214248S11658320EA0169501711000000000000
B0543183214327S11658309EA0168601711000000000000
B0543223214404S11658304EA0169301718000000000000
B0543263214479S11658295EA0169301718000000000000
B0543303214557S11658283EA0169401723000000000000
B0543343214632S11658270EA0169801723000000000000
B0543383214709S11658257EA0169401716000000000000
B0543423214787S11658244EA0168301702000000000000
B0543463214870S11658230EA0166401680000000000000
B0543503214954S11658216EA0165501675000000000000
B0543543215035S11658205EA0165301672000000000000
B0543583215120S11658199EA0164701666000000000000
B0544023215204S11658193EA0164401664000000000000
B0544063215288S11658186EA0164201664000000000000
B0544103215367S11658180EA0164101663000000000000
B0544143215444S11658177EA0164601672000000000000
B0544183215519S11658174EA0164401660000000000000
B0544223215593S11658170EA0163201651000000000000
B0544263215666S11658166EA0162201640000000000000
B0544303215743S11658161EA0160901625000000000000
B0544343215821S11658154EA0159401610000000000000
B0544383215900S11658147EA0158201597000000000000
B0544423215982S11658139EA0157001589000000000000
B0544463216065S11658131EA0156001574000000000000
B0544503216155S11658127EA0154401558000000000000
B0544543216246S11658132EA0153501549000000000000
B0544583216337S11658144EA0152201534000000000000
B0545023216430S11658160EA0151201526000000000000
B0545063216520S11658162EA0151001521000000000000
B0545103216607S11658145EA0150201514000000000000
B0545143216690S11658122EA0149401508000000000000
B0545183216771S11658097EA0149101508000000000000
B0545223216844S11658066EA0149001506000000000000
B0545263216915S11658040EA0149001508000000000000
B0545303216987S11658018EA0148601501000000000000
B0545343217058S11657993EA0148901510000000000000
B0545383217128S11657967EA0150001523000000000000
B0545423217190S11657939EA0151901542000000000000
B0545463217218S11657883EA0153001551000000000000
B0545503217218S11657816EA0153101551000000000000
B0545543217179S11657757EA0153101550000000000000
B0545583217112S11657755EA0153701565000000000000
B0546023217071S11657822EA0154701578000000015000
B0546063217079S11657904EA0155001576000000015000
B0546103217130S11657959EA0154401568000000015000
B0546143217200S11657980EA0153701563000000015000
B0546183217273S11657984EA0153301558000000000000
B0546223217348S11657974EA0152101546000000000000
B0546263217421S11657957EA0151501538000000000000
B0546303217491S11657937EA0150701531000000000000
B0546343217561S11657923EA0149701515000000000000
B0546383217634S11657910EA0148201503000000000000
B0546423217706S11657896EA0146701488000000000000
B0546463217775S11657883EA0146001484000000000000
B0546503217841S11657874EA0145301475000000000000
B0546543217908S11657863EA0143701456000000000000
B0546583217977S11657850EA0142901451000000000000
B0547023218045S11657829EA0142801451000000000000
B0547063218096S11657787EA0144101473000000000000
B0547103218054S11657753EA0146901502000000000000
B0547143217999S11657805EA0148601515000000000000
B0547183217997S11657887EA0150001532000000015000
B0547223218037S11657932EA0151201543000000015000
B0547263218075S11657913EA0152301550000000015000
B0547303218064S11657862EA0152901558000000015000
B0547343218009S11657846EA0154101571000000015000
B0547383217950S11657889EA0155401587000000015000
B0547423217931S11657967EA0157001603000000015000
B0547463217950S11658032EA0158201614000000015000
B0547503217994S11658057EA0158601613000000015000
B0547543218029S11658024EA0158201611000000015000
B0547583218019S11657970EA0158601619000000015000
B0548023217967S11657946EA0160001632000000015000
B0548063217905S11657987EA0160701636000000015000
B0548103217884S11658075EA0161401648000000015000
B0548143217916S11658144EA0162401655000000015000
B0548183217970S11658156EA0162801653000000015000
B0548223218032S11658153EA0162301653000000015000
B0548263218096S11658149EA0163701672000000015000
B0548303218139S11658118EA0166101697000000015000
B0548343218110S11658076EA0168101715000000015000
B0548383218046S11658101EA0168501712000000015000
B0548423218010S11658187EA0168701722000000015000
B0548463218029S11658266EA0170101740000000015000
B0548503218083S11658282EA0171701756000000030000
B0548543218102S11658236EA0173301770000000015000
B0548583218051S11658209EA0174801789000000015000
B0549023217990S11658248EA0176201802000000015000
B0549063217966S11658325EA0177701817000000015000
B0549103217997S11658390EA0178501820000000015000
B0549143218058S11658411EA0178601823000000015000
B0549183218124S11658411EA0179101826000000015000
B0549223218194S11658401EA0179201826000000015000
B0549263218270S11658391EA0179001825000000000000
B0549303218348S11658385EA0179101827000000000000
B0549343218428S11658382EA0179701833000000000000
B0549383218505S11658375EA0180901849000000000000
B0549423218573S11658362EA0183101871000000000000
B0549463218634S11658349EA0184101881000000000000
B0549503218694S11658336EA0184501875000000000000
B0549543218753S11658325EA0184201878000000000000
B0549583218805S11658313EA0184301880000000000000
B0550023218854S11658301EA0184401877000000000000
B0550063218902S11658295EA0184301881000000000000
B0550103218939S11658290EA0185201890000000000000
B0550143218976S11658286EA0184101863000000000000
B0550183219033S11658264EA0180501839000000000000
B0550223219101S11658251EA0179001825000000000000
B0550263219169S11658244EA0178401822000000000000
B0550303219236S11658244EA0177901814000000000000
B0550343219306S11658244EA0176401795000000000000
B0550383219380S11658242EA0175201784000000000000
B0550423219454S11658240EA0174601782000000000000
B0550463219523S11658243EA0175401794000000000000
B0550503219587S11658248EA0176101796000000000000
B0550543219648S11658253EA0176101792000000000000
B0550583219714S11658258EA0175301784000000000000
B0551023219783S11658271EA0174501777000000000000
B0551063219853S11658279EA0173701769000000000000
B0551103219921S11658283EA0173701774000000000000
B0551143219978S11658290EA0174601782000000000000
B0551183220031S11658303EA0174501774000000000000
B0551223220089S11658322EA0172901752000000000000
B0551263220155S11658342EA0170801730000000000000
B0551303220228S11658356EA0169101713000000000000
B0551343220307S11658375EA0167701702000000000000
B0551383220384S11658385EA0167201697000000000000
B0551423220459S11658387EA0166901688000000000000
B0551463220532S11658382EA0166201684000000000000
B0551503220603S11658370EA0165601676000000000000
B0551543220674S11658352EA0164101659000000000000
B0551583220741S11658334EA0164001667000000000000
B0552023220802S11658316EA0165801699000000000000
B0552063220854S11658297EA0168801720000000000000
B0552103220882S11658257EA0170201735000000000000
B0552143220845S11658222EA0171801753000000000000
B0552183220784S11658248EA0172501753000000000000
B0552223220752S11658325EA0173101767000000015000
B0552263220766S11658395EA0174901784000000015000
B0552303220810S11658425EA0176401801000000015000
B0552343220852S11658412EA0177601809000000015000
B0552383220867S11658364EA0178101813000000015000
B0552423220848S11658309EA0178501820000000015000
B0552463220791S11658294EA0179801834000000015000
B0552503220728S11658331EA0180901841000000015000
B0552543220693S11658403EA0181401846000000015000
B0552583220703S11658476EA0181901856000000015000
B0553023220744S11658515EA0183101872000000015000
B0553063220787S11658521EA0184401881000000015000
B0553103220823S11658486EA0184201878000000015000
B0553143220819S11658433EA0185001889000000015000
B0553183220776S11658411EA0185001871000000015000
B0553223220736S11658430EA0177401775000000030000
B0553263220633S11658478EA0173101788000000030000
B0553303220580S11658556EA0177001834000000030000
B0553343220594S11658633EA0179701846000000030000
B0553383220642S11658678EA0181001856000000015000
B0553423220690S11658672EA0182601871000000015000
B0553463220697S11658621EA0183401871000000015000
B0553503220646S11658590EA0183601874000000015000
B0553543220583S11658625EA0184001875000000015000
B0553583220560S11658710EA0184201885000000015000
B0554023220593S11658778EA0185901907000000015000
B0554063220644S11658788EA0188101920000000030000
B0554103220671S11658745EA0188601919000000015000
B0554143220658S11658686EA0188701922000000015000
B0554183220614S11658647EA0189701933000000015000
B0554223220553S11658656EA0189901925000000015000
B0554263220495S11658720EA0188701918000000015000
B0554303220449S11658801EA0189701934000000015000
B0554343220391S11658858EA0191701958000000015000
B0554383220336S11658866EA0193301966000000015000
B0554423220307S11658860EA0189301903000000015000
B0554463220303S11658789EA0180501832000000015000
B0554503220316S11658690EA0180601841000000015000
B0554543220328S11658607EA0181601856000000015000
B0554583220342S11658522EA0182601871000000015000
B0555023220316S11658452EA0185201897000000015000
B0555063220252S11658430EA0187401913000000015000
B0555103220194S11658477EA0188301913000000015000
B0555143220174S11658563EA0187501898000000015000
B0555183220203S11658645EA0186201883000000015000
B0555223220264S11658684EA0185201885000000015000
B0555263220330S11658690EA0185401887000000015000
B0555303220397S11658681EA0186001894000000015000
B0555343220459S11658658EA0186201896000000000000
B0555383220519S11658634EA0186801902000000000000
B0555423220577S11658613EA0187001899000000000000
B0555463220638S11658586EA0186501896000000000000
B0555503220703S11658556EA0186301894000000000000
B0555543220768S11658529EA0186601899000000000000
B0555583220830S11658508EA0187301907000000000000
B0556023220892S11658494EA0187401903000000000000
B0556063220957S11658482EA0186601893000000000000
B0556103221026S11658468EA0185201872000000000000
B0556143221100S11658435EA0182901851000000000000
B0556183221173S11658391EA0182101848000000000000
B0556223221239S11658342EA0182101848000000000000
B0556263221304S11658294EA0182301852000000000000
B0556303221368S11658245EA0182901860000000000000
B0556343221429S11658195EA0183201860000000000000
B0556383221495S11658148EA0182801853000000000000
B0556423221574S11658117EA0182001842000000000000
B0556463221664S11658102EA0181201836000000000000
B0556503221758S11658097EA0181101840000000000000
B0556543221850S11658102EA0182401846000000000000
B0556583221942S11658115EA0181901835000000000000
B0557023222036S11658138EA0181001832000000000000
B0557063222128S11658162EA0180901831000000000000
B0557103222219S11658190EA0180101819000000000000
B0557143222312S11658216EA0178901804000000000000
B0557183222404S11658240EA0177601791000000000000
B0557223222496S11658265EA0177001795000000000000
B0557263222588S11658290EA0177501798000000000000
B0557303222681S11658312EA0177901808000000000000
B0557343222772S11658331EA0178301798000000000000
B0557383222863S11658344EA0177101797000000000000
B0557423222950S11658359EA0177801805000000000000
B0557463223037S11658377EA0177901807000000000000
B0557503223123S11658395EA0178401816000000000000
B0557543223209S11658417EA0178801814000000000000
B0557583223296S11658439EA0178101809000000000000
B0558023223383S11658459EA0177701805000000000000
B0558063223474S11658479EA0176901793000000000000
B0558103223567S11658499EA0176901800000000000000
B0558143223657S11658518EA0177601805000000000000
B0558183223747S11658531EA0177801806000000000000
B0558223223831S11658534EA0178601818000000000000
B0558263223914S11658526EA0179101822000000000000
B0558303223998S11658512EA0179501821000000000000
B0558343224086S11658492EA0178701815000000000000
B0558383224174S11658473EA0178201804000000000000
B0558423224264S11658448EA0177301797000000000000
B0558463224353S11658424EA0177001795000000000000
B0558503224436S11658390EA0177501808000000000000
B0558543224506S11658351EA0179101825000000000000
B0558583224576S11658312EA0179301818000000000000
B0559023224649S11658271EA0178101806000000000000
B0559063224718S11658227EA0178301817000000000000
B0559103224780S11658184EA0179801832000000000000
B0559143224841S11658143EA0179701818000000000000
B0559183224905S11658099EA0178301804000000000000
B0559223224971S11658054EA0176801791000000000000
B0559263225042S11658013EA0176101785000000000000
B0559303225116S11657980EA0176001787000000000000
B0559343225187S11657948EA0176001780000000000000
B0559383225260S11657914EA0174801769000000000000
B0559423225331S11657879EA0174901778000000000000
B0559463225399S11657839EA0175801783000000000000
B0559503225463S11657793EA0175301778000000000000
B0559543225534S11657757EA0174801776000000000000
B0559583225608S11657723EA0174901770000000000000
B0600023225685S11657693EA0174201773000000000000
B0600063225759S11657666EA0174901780000000000000
B0600103225832S11657637EA0174401766000000000000
B0600143225907S11657607EA0173101756000000000000
B0600183225983S11657576EA0172601754000000000000
B0600223226059S11657543EA0172201748000000000000
B0600263226134S11657504EA0173001768000000000000
B0600303226199S11657465EA0174501775000000000000
B0600343226266S11657430EA0173501754000000000000
B0600383226342S11657393EA0172401749000000000000
B0600423226418S11657355EA0171901741000000000000
B0600463226496S11657312EA0170501729000000000000
B0600503226569S11657264EA0170101726000000000000
B0600543226639S11657213EA0169201717000000000000
B0600583226702S11657156EA0170201735000000000000
B0601023226755S11657096EA0171201739000000000000
B0601063226817S11657039EA0170501727000000000000
B0601103226893S11656987EA0169401714000000000000
B0601143226979S11656947EA0167901696000000000000
B0601183227071S11656919EA0166401684000000000000
B0601223227166S11656901EA0164801665000000000000
B0601263227263S11656888EA0163301654000000000000
B0601303227359S11656883EA0162501646000000000000
B0601343227456S11656878EA0161501631000000000000
B0601383227552S11656873EA0160001620000000000000
B0601423227647S11656873EA0158901605000000000000
B0601463227743S11656870EA0157701594000000000000
B0601503227839S11656865EA0156601582000000000000
B0601543227931S11656848EA0155901584000000000000
B0601583228020S11656826EA0156001579000000000000
B0602023228102S11656797EA0155901584000000000000
B0602063228176S11656765EA0157101599000000000000
B0602103228240S11656726EA0158601614000000000000
B0602143228294S11656678EA0159401623000000000000
B0602183228345S11656627EA0160001625000000000000
B0602223228402S11656579EA0160501637000000000000
B0602263228461S11656533EA0161401642000000000000
B0602303228519S11656487EA0162201655000000000000
B0602343228571S11656438EA0164001672000000000000
B0602383228575S11656379EA0165601689000000000000
B0602423228520S11656354EA0166401688000000000000
B0602463228448S11656392EA0166001685000000000000
B0602503228389S11656466EA0165601682000000000000
B0602543228368S11656568EA0165901689000000000000
B0602583228379S11656669EA0167301704000000000000
B0603023228414S11656754EA0168401712000000015000
B0603063228470S11656808EA0168401709000000015000
B0603103228532S11656819EA0168201705000000015000
B0603143228601S11656810EA0166701677000000000000
B0603183228684S11656792EA0164101660000000000000
B0603223228775S11656771EA0162901654000000000000
B0603263228864S11656753EA0163601664000000000000
B0603303228952S11656741EA0163101651000000000000
B0603343229043S11656730EA0162101641000000000000
B0603383229135S11656726EA0161201640000000000000
B0603423229225S11656727EA0161901647000000000000
B0603463229317S11656731EA0161301635000000000000
B0603503229411S11656739EA0160301628000000000000
B0603543229504S11656745EA0159401616000000000000
B0603583229598S11656750EA0158601609000000000000
B0604023229689S11656750EA0157701600000000000000
B0604063229777S11656743EA0156801588000000000000
B0604103229865S11656732EA0155701578000000000000
B0604143229946S11656719EA0155301577000000000000
B0604183230024S11656709EA0155401580000000000000
B0604223230099S11656697EA0156201590000000000000
B0604263230167S11656688EA0156601591000000000000
B0604303230238S11656682EA0156701594000000000000
B0604343230307S11656674EA0156401589000000000000
B0604383230378S11656665EA0156101587000000000000
B0604423230450S11656652EA0156801597000000000000
B0604463230511S11656622EA0157401603000000000000
B0604503230564S11656581EA0157601601000000000000
B0604543230624S11656540EA0156501585000000000000
B0604583230694S11656502EA0154701563000000000000
B0605023230776S11656471EA0152601545000000000000
B0605063230863S11656448EA0151301534000000000000
B0605103230951S11656431EA0150401525000000000000
B0605143231040S11656423EA0149701520000000000000
B0605183231124S11656423EA0149601519000000000000
B0605223231207S11656429EA0149001505000000000000
B0605263231291S11656435EA0147401493000000000000
B0605303231371S11656440EA0146901491000000000000
B0605343231452S11656444EA0146501481000000000000
B0605383231534S11656444EA0144901464000000000000
B0605423231620S11656442EA0143301449000000000000
B0605463231707S11656444EA0142501443000000000000
B0605503231790S11656442EA0142301442000000000000
B0605543231872S11656440EA0142601453000000000000
B0605583231951S11656432EA0143901464000000000000
B0606023232021S11656401EA0144101455000000000000
B0606063232090S11656360EA0143601452000000000000
B0606103232162S11656318EA0141901426000000000000
B0606143232245S11656290EA0139801412000000000000
B0606183232329S11656276EA0138901403000000000000
B0606223232411S11656273EA0138001397000000000000
B0606263232492S11656275EA0137001385000000000000
B0606303232571S11656280EA0135701370000000000000
B0606343232654S11656293EA0133601348000000000000
B0606383232739S11656314EA0132401339000000000000
B0606423232822S11656340EA0132101334000000000000
B0606463232903S11656363EA0131701335000000000000
B0606503232982S11656385EA0131701331000000000000
B0606543233063S11656405EA0130801319000000000000
B0606583233142S11656429EA0130001314000000000000
B0607023233216S11656455EA0129701310000000000000
B0607063233289S11656476EA0128901295000000000000
B0607103233359S11656496EA0128001294000000000000
B0607143233427S11656514EA0127601285000000000000
B0607183233490S11656529EA0127301288000000000000
B0607223233551S11656537EA0127601291000000000000
B0607263233611S11656541EA0128301300000000000000
B0607303233666S11656524EA0129601318000000000000
B0607343233671S11656472EA0131801345000000000000
B0607383233610S11656466EA0133801356000000000000
B0607423233560S11656531EA0134301360000000000000
B0607463233554S11656613EA0134901366000000000000
B0607503233584S11656671EA0135901383000000000000
B0607543233624S11656662EA0137301394000000015000
B0607583233616S11656609EA0138701412000000015000
B0608023233551S11656601EA0140401429000000015000
B0608063233495S11656657EA0141701438000000000000
B0608103233490S11656737EA0142301447000000015000
B0608143233531S11656767EA0143901461000000015000
B0608183233551S11656724EA0144801472000000015000
B0608223233502S11656688EA0147201498000000015000
B0608263233440S11656728EA0147901499000000015000
B0608303233421S11656813EA0148201504000000015000
B0608343233455S11656873EA0149701523000000015000
B0608383233506S11656890EA0150501525000000015000
B0608423233554S11656864EA0150801531000000015000
B0608463233551S11656800EA0152101557000000015000
B0608503233492S11656774EA0154301571000000015000
B0608543233428S11656819EA0155201580000000015000
B0608583233419S11656905EA0156101589000000015000
B0609023233467S11656945EA0157701604000000015000
B0609063233501S11656909EA0159401624000000015000
B0609103233475S11656856EA0161101640000000015000
B0609143233407S11656845EA0162001647000000015000
B0609183233352S11656905EA0162701657000000015000
B0609223233350S11656988EA0163301663000000000000
B0609263233394S11657030EA0164601680000000015000
B0609303233437S11657005EA0165901691000000015000
B0609343233415S11656951EA0167601715000000015000
B0609383233349S11656952EA0169501726000000015000
B0609423233295S11657013EA0170101730000000015000
B0609463233284S11657095EA0170801736000000015000
B0609503233313S11657164EA0171401747000000015000
B0609543233365S11657200EA0172701755000000015000
B0609583233419S11657189EA0173001758000000015000
B0610023233445S11657140EA0174001772000000015000
B0610063233404S11657103EA0176201801000000015000
B0610103233345S11657140EA0177901810000000000000
B0610143233323S11657222EA0179301829000000000000
B0610183233355S11657286EA0180501838000000015000
B0610223233408S11657293EA0181301846000000015000
B0610263233429S11657244EA0181901850000000015000
B0610303233382S11657198EA0182501860000000015000
B0610343233307S11657220EA0183301869000000015000
B0610383233259S11657296EA0184601884000000015000
B0610423233260S11657387EA0186101899000000015000
B0610463233293S11657460EA0187701908000000015000
B0610503233346S11657499EA0186801886000000015000
B0610543233414S11657501EA0184401862000000000000
B0610583233485S11657477EA0182701850000000000000
B0611023233559S11657447EA0182501852000000000000
B0611063233632S11657417EA0182301849000000000000
B0611103233709S11657387EA0180701830000000000000
B0611143233789S11657358EA0178801810000000000000
B0611183233871S11657326EA0177501796000000000000
B0611223233952S11657291EA0176501787000000000000
B0611263234031S11657259EA0176001789000000000000
B0611303234105S11657229EA0176501792000000000000
B0611343234181S11657203EA0175501777000000000000
B0611383234256S11657172EA0174701774000000000000
B0611423234330S11657142EA0174601772000000000000
B0611463234402S11657112EA0174201765000000000000
B0611503234467S11657082EA0174101770000000000000
B0611543234519S11657042EA0174201769000000000000
B0611583234563S11656997EA0173901764000000000000
B0612023234612S11656960EA0173101755000000000000
B0612063234665S11656931EA0172601754000000000000
B0612103234716S11656901EA0172501752000000000000
B0612143234766S11656875EA0172001745000000000000
B0612183234821S11656854EA0170901730000000000000
B0612223234881S11656834EA0169201714000000000000
B0612263234942S11656808EA0168001704000000000000
B0612303235006S11656787EA0166601687000000000000
B0612343235078S11656766EA0165201667000000000000
B0612383235153S11656741EA0164001662000000000000
B0612423235230S11656723EA0163401657000000000000
B0612463235310S11656708EA0163001651000000000000
B0612503235392S11656691EA0162501649000000000000
B0612543235474S11656672EA0162301647000000000000
B0612583235556S11656657EA0162101644000000000000
B0613023235635S11656640EA0161901645000000000000
B0613063235709S11656622EA0162201648000000000000
B0613103235781S11656601EA0162101642000000000000
B0613143235852S11656578EA0161001630000000000000
B0613183235926S11656554EA0160201623000000000000
B0613223235998S11656526EA0159701621000000000000
B0613263236066S11656500EA0160201630000000000000
B0613303236128S11656477EA0160601629000000000000
B0613343236194S11656451EA0159301615000000000000
B0613383236263S11656420EA0158701606000000000000
B0613423236335S11656386EA0157501594000000000000
B0613463236407S11656351EA0156601586000000000000
B0613503236480S11656316EA0155801580000000000000
B0613543236553S11656280EA0155101573000000000000
B0613583236625S11656242EA0154601567000000000000
B0614023236699S11656206EA0153501555000000000000
B0614063236774S11656173EA0152401544000000000000
B0614103236852S11656142EA0151401534000000000000
B0614143236930S11656108EA0150301525000000000000
B0614183237005S11656077EA0150201522000000000000
B0614223237081S11656051EA0149701518000000000000
B0614263237155S11656029EA0149301513000000000000
B0614303237229S11656008EA0148801509000000000000
B0614343237304S11655990EA0148401506000000000000
B0614383237375S11655968EA0149301523000000000000
B0614423237441S11655943EA0150701531000000000000
B0614463237496S11655903EA0151801546000000000000
B0614503237540S11655852EA0152901555000000000000
B0614543237572S11655795EA0153901568000000000000
B0614583237544S11655744EA0155601585000000000000
B0615023237481S11655761EA0156701590000000000000
B0615063237446S11655844EA0156601585000000000000
B0615103237453S11655946EA0156201582000000000000
B0615143237496S11656029EA0156701594000000000000
B0615183237555S11656055EA0158201609000000015000
B0615223237589S11656019EA0159101616000000015000
B0615263237564S11655965EA0159201612000000015000
B0615303237494S11655959EA0159601622000000015000
B0615343237436S11656017EA0160701634000000015000
B0615383237418S11656110EA0161401638000000015000
B0615423237444S11656195EA0162001648000000015000
B0615463237497S11656242EA0162801657000000015000
B0615503237557S11656245EA0163301660000000015000
B0615543237618S11656232EA0164001672000000000000
B0615583237667S11656203EA0165601685000000000000
B0616023237653S11656150EA0166401697000000015000
B0616063237587S11656154EA0166901694000000015000
B0616103237535S11656234EA0166601693000000015000
B0616143237528S11656341EA0166801697000000015000
B0616183237561S11656433EA0167901712000000015000
B0616223237618S11656497EA0169501728000000015000
B0616263237683S11656529EA0170201732000000015000
B0616303237746S11656528EA0170501737000000000000
B0616343237808S11656513EA0170201726000000000000
B0616383237871S11656485EA0168501709000000000000
B0616423237939S11656453EA0167301698000000000000
B0616463238008S11656418EA0166401692000000000000
B0616503238075S11656384EA0166401695000000000000
B0616543238143S11656351EA0166301689000000000000
B0616583238211S11656315EA0164901673000000000000
B0617023238278S11656276EA0164401672000000000000
B0617063238344S11656240EA0164101669000000000000
B0617103238412S11656206EA0163801663000000000000
B0617143238484S11656176EA0163301659000000000000
B0617183238555S11656147EA0162801654000000000000
B0617223238627S11656119EA0162101643000000000000
B0617263238699S11656091EA0161301638000000000000
B0617303238772S11656061EA0160601630000000000000
B0617343238844S11656028EA0160301625000000000000
B0617383238913S11655989EA0160101625000000000000
B0617423238978S11655947EA0159901622000000000000
B0617463239040S11655904EA0159201614000000000000
B0617503239102S11655863EA0158201603000000000000
B0617543239166S11655820EA0156901590000000000000
B0617583239230S11655774EA0156001583000000000000
B0618023239296S11655733EA0155701581000000000000
B0618063239361S11655695EA0155701579000000000000
B0618103239426S11655658EA0155301577000000000000
B0618143239485S11655619EA0155701585000000000000
B0618183239542S11655575EA0156401591000000000000
B0618223239596S11655532EA0157701609000000000000
B0618263239647S11655487EA0159001614000000000000
B0618303239683S11655430EA0158401606000000000000
B0618343239725S11655367EA0156601586000000000000
B0618383239780S11655306EA0154401563000000000000
B0618423239847S11655250EA0152901545000000000000
B0618463239920S11655196EA0151501533000000000000
B0618503239992S11655142EA0150601528000000000000
B0618543240067S11655096EA0150001518000000000000
B0618583240148S11655058EA0148701501000000000000
B0619023240231S11655021EA0147201492000000000000
B0619063240311S11654985EA0146901488000000000000
B0619103240389S11654955EA0147001492000000000000
B0619143240465S11654933EA0146901488000000000000
B0619183240539S11654914EA0146301481000000000000
B0619223240616S11654898EA0145201468000000000000
B0619263240694S11654880EA0144601464000000000000
B0619303240765S11654856EA0144601468000000000000
B0619343240834S11654830EA0144401463000000000000
B0619383240900S11654799EA0143801455000000000000
B0619423240952S11654747EA0143501455000000000000
B0619463240995S11654689EA0143301451000000000000
B0619503241048S11654634EA0142201436000000000000
B0619543241116S11654591EA0141201430000000000000
B0619583241194S11654564EA0140801423000000000000
B0620023241277S11654548EA0140001415000000000000
B0620063241362S11654542EA0139101408000000000000
B0620103241444S11654537EA0139301415000000000000
B0620143241519S11654534EA0139501412000000000000
B0620183241596S11654535EA0138601398000000000000
B0620223241672S11654533EA0137101387000000000000
B0620263241749S11654525EA0136301379000000000000
B0620303241825S11654513EA0135601368000000000000
B0620343241900S11654503EA0134301357000000000000
B0620383241974S11654488EA0133501346000000000000
B0620423242048S11654469EA0132101335000000000000
B0620463242124S11654447EA0131601330000000000000
B0620503242194S11654412EA0131101326000000000000
B0620543242255S11654365EA0131301331000000000000
B0620583242308S11654310EA0131301331000000000000
B0621023242356S11654251EA0131601331000000000000
B0621063242403S11654187EA0131201327000000000000
B0621103242446S11654119EA0130601320000000000000
B0621143242502S11654058EA0129501303000000000000
B0621183242573S11654010EA0127801289000000000000
B0621223242654S11653978EA0126601273000000000000
B0621263242740S11653954EA0125101258000000000000
B0621303242826S11653935EA0123601246000000000000
B0621343242910S11653922EA0122701236000000000000
B0621383242993S11653910EA0122101229000000000000
B0621423243070S11653890EA0121101220000000000000
B0621463243144S11653871EA0120001206000000000000
B0621503243223S11653853EA0118801196000000000000
B0621543243301S11653824EA0118501194000000000000
B0621583243366S11653779EA0118701197000000000000
B0622023243431S11653729EA0118001187000000000000
B0622063243505S11653692EA0116801174000000000000
B0622103243568S11653647EA0117401187000000000000
B0622143243578S11653581EA0118601197000000000000
B0622183243529S11653538EA0119201202000000000000
B0622223243453S11653571EA0118901194000000000000
B0622263243409S11653660EA0118101188000000000000
B0622303243387S11653766EA0117401178000000000000
B0622343243387S11653871EA0116501172000000000000
B0622383243420S11653966EA0115901160000000000000
B0622423243481S11654031EA0114301139000000000000
B0622463243555S11654057EA0112501127000000000000
B0622503243632S11654059EA0111301112000000000000
B0622543243707S11654052EA0110101102000000000000
B0622583243778S11654026EA0109301099000000000000
B0623023243843S11653994EA0110001109000000000000
B0623063243899S11653954EA0110201105000000000000
B0623103243947S11653903EA0108501085000000000000
B0623143244006S11653858EA0108101089000000000000
B0623183244064S11653824EA0108401095000000000000
B0623223244126S11653807EA0108801094000000000000
B0623263244189S11653799EA0108601092000000000000
B0623303244254S11653792EA0108401091000000000000
B0623343244315S11653770EA0108901098000000000000
B0623383244334S11653707EA0110401119000000000000
B0623423244287S11653656EA0111701127000000000000
B0623463244210S11653682EA0112801140000000000000
B0623503244172S11653776EA0113601146000000000000
B0623543244206S11653853EA0113901143000000000000
B0623583244254S11653837EA0113901145000000015000
B0624023244232S11653780EA0114101147000000015000
B0624063244159S11653803EA0115201163000000015000
B0624103244158S11653903EA0115701163000000015000
B0624143244217S11653936EA0115401161000000015000
B0624183244243S11653880EA0115401164000000015000
B0624223244201S11653818EA0115501166000000015000
B0624263244116S11653814EA0116601175000000015000
B0624303244050S11653892EA0117201184000000015000
B0624343244063S11653993EA0117901190000000015000
B0624383244120S11654046EA0117801185000000015000
B0624423244176S11654037EA0117801185000000015000
B0624463244219S11653994EA0117201176000000015000
B0624503244245S11653928EA0117001179000000015000
B0624543244207S11653876EA0118301199000000015000
B0624583244135S11653898EA0119201204000000015000
B0625023244079S11653979EA0119301202000000015000
B0625063244054S11654082EA0118901196000000015000
B0625103244077S11654183EA0118801199000000015000
B0625143244132S11654253EA0119401208000000015000
B0625183244185S11654239EA0120401217000000015000
B0625223244159S11654188EA0121801239000000015000
B0625263244098S11654208EA0123201245000000015000
B0625303244074S11654286EA0123501246000000015000
B0625343244103S11654361EA0123501247000000015000
B0625383244161S11654378EA0123801250000000015000
B0625423244187S11654327EA0124501260000000015000
B0625463244145S11654275EA0125701271000000015000
B0625503244072S11654300EA0126501277000000015000
B0625543244040S11654386EA0126801278000000015000
B0625583244070S11654466EA0127101286000000015000
B0626023244128S11654498EA0127601289000000015000
B0626063244175S11654464EA0128201297000000015000
B0626103244168S11654400EA0129101310000000015000
B0626143244101S11654379EA0130201318000000015000
B0626183244036S11654435EA0130801322000000015000
B0626223244022S11654522EA0131301327000000015000
B0626263244064S11654577EA0131701332000000015000
B0626303244115S11654569EA0132101335000000015000
B0626343244120S11654511EA0132601343000000015000
B0626383244061S11654477EA0133401352000000015000
B0626423243988S11654521EA0134201355000000015000
B0626463243958S11654613EA0134001354000000015000
B0626503243989S11654687EA0134301359000000015000
B0626543244045S11654702EA0134801365000000015000
B0626583244085S11654665EA0135101367000000015000
B0627023244089S11654607EA0136401381000000015000
B0627063244029S11654589EA0138201395000000015000
B0627103243977S11654660EA0138501396000000015000
B0627143243993S11654751EA0138901404000000015000
B0627183244045S11654797EA0139601409000000015000
B0627223244093S11654773EA0140701426000000015000
B0627263244092S11654716EA0141901435000000015000
B0627303244037S11654680EA0141801434000000015000
B0627343243966S11654707EA0142601452000000015000
B0627383243921S11654780EA0144601468000000015000
B0627423243923S11654860EA0145401472000000015000
B0627463243967S11654907EA0145501474000000015000
B0627503244016S11654891EA0145601476000000015000
B0627543244025S11654834EA0146501487000000015000
B0627583243984S11654789EA0147001486000000015000
B0628023243906S11654787EA0147101490000000015000
B0628063243834S11654833EA0148101500000000015000
B0628103243799S11654916EA0148501502000000015000
B0628143243812S11655007EA0148201496000000015000
B0628183243864S11655062EA0147801493000000015000
B0628223243927S11655059EA0147301488000000015000
B0628263243986S11655028EA0147201495000000015000
B0628303244040S11654988EA0148001499000000000000
B0628343244088S11654936EA0147301484000000000000
B0628383244146S11654880EA0145801474000000000000
B0628423244207S11654825EA0145701474000000000000
B0628463244275S11654765EA0145101466000000000000
B0628503244350S11654711EA0146201482000000000000
B0628543244414S11654650EA0146901486000000000000
B0628583244480S11654589EA0145001458000000000000
B0629023244561S11654533EA0141701421000000000000
B0629063244652S11654483EA0139001401000000000000
B0629103244748S11654449EA0138101390000000000000
B0629143244843S11654426EA0137401387000000000000
B0629183244938S11654407EA0136701374000000000000
B0629223245033S11654390EA0135201363000000000000
B0629263245128S11654375EA0134401358000000000000
B0629303245220S11654369EA0133501346000000000000
B0629343245312S11654360EA0132101328000000000000
B0629383245406S11654345EA0130301311000000000000
B0629423245500S11654332EA0129401306000000000000
B0629463245592S11654330EA0129101299000000000000
B0629503245687S11654329EA0128101285000000000000
B0629543245778S11654310EA0127101283000000000000
B0629583245861S11654286EA0127601284000000000000
B0630023245942S11654252EA0126401270000000000000
B0630063246022S11654218EA0125701271000000000000
B0630103246095S11654187EA0127001286000000000000
B0630143246164S11654156EA0127801289000000000000
B0630183246224S11654114EA0128601306000000000000
B0630223246256S11654056EA0130301325000000000000
B0630263246215S11654015EA0132301344000000000000
B0630303246156S11654061EA0132901343000000000000
B0630343246146S11654149EA0133001349000000000000
B0630383246178S11654217EA0134301367000000000000
B0630423246228S11654227EA0135701376000000015000
B0630463246250S11654186EA0136301379000000015000
B0630503246208S11654145EA0136401380000000015000
B0630543246144S11654178EA0136701386000000015000
B0630583246113S11654251EA0137701393000000015000
B0631023246122S11654325EA0137901391000000015000
B0631063246173S11654360EA0137601392000000015000
B0631103246219S11654340EA0138701406000000015000
B0631143246195S11654296EA0139201409000000015000
B0631183246133S11654323EA0139101408000000015000
B0631223246105S11654408EA0139401413000000015000
B0631263246124S11654495EA0140101421000000015000
B0631303246178S11654538EA0141201438000000015000
B0631343246216S11654505EA0142801452000000015000
B0631383246186S11654461EA0143201446000000015000
B0631423246118S11654479EA0143101455000000015000
B0631463246081S11654557EA0144301466000000015000
B0631503246095S11654642EA0145301476000000015000
B0631543246147S11654683EA0146401486000000015000
B0631583246196S11654661EA0146301480000000015000
B0632023246193S11654599EA0146201483000000015000
B0632063246129S11654582EA0146501486000000015000
B0632103246066S11654634EA0147301500000000015000
B0632143246043S11654719EA0148601510000000015000
B0632183246063S11654798EA0149601520000000015000
B0632223246111S11654846EA0150301525000000015000
B0632263246167S11654849EA0150201518000000015000
B0632303246220S11654820EA0149201507000000015000
B0632343246278S11654786EA0147601487000000015000
B0632383246351S11654755EA0145601467000000000000
B0632423246434S11654735EA0145001465000000000000
B0632463246515S11654717EA0145101467000000000000
B0632503246596S11654700EA0144901460000000000000
B0632543246680S11654686EA0143401441000000000000
B0632583246768S11654678EA0141901431000000000000
B0633023246858S11654668EA0141401426000000000000
B0633063246948S11654657EA0141001424000000000000
B0633103247038S11654642EA0139401399000000000000
B0633143247129S11654628EA0138101394000000000000
B0633183247216S11654617EA0137201385000000000000
B0633223247301S11654605EA0136301375000000000000
B0633263247386S11654592EA0135601370000000000000
B0633303247468S11654583EA0135601374000000000000
B0633343247551S11654576EA0135201362000000000000
B0633383247638S11654568EA0133901352000000000000
B0633423247723S11654556EA0133201344000000000000
B0633463247803S11654540EA0132601340000000000000
B0633503247885S11654520EA0131601326000000000000
B0633543247972S11654507EA0130901323000000000000
B0633583248062S11654495EA0131001323000000000000
B0634023248152S11654483EA0131001323000000000000
B0634063248234S11654455EA0131301328000000000000
B0634103248308S11654413EA0130901316000000000000
B0634143248388S11654375EA0129101297000000000000
B0634183248477S11654355EA0127401280000000000000
B0634223248569S11654349EA0126301274000000000000
B0634263248659S11654352EA0125501266000000000000
B0634303248747S11654356EA0124601256000000000000
B0634343248834S11654358EA0124101251000000000000
B0634383248915S11654361EA0123701249000000000000
B0634423248994S11654366EA0123101236000000000000
B0634463249075S11654371EA0121901227000000000000
B0634503249154S11654379EA0121101220000000000000
B0634543249233S11654387EA0120601215000000000000
B0634583249310S11654394EA0120201211000000000000
B0635023249391S11654404EA0119401201000000000000
B0635063249469S11654414EA0118801197000000000000
B0635103249547S11654425EA0118501191000000000000
B0635143249626S11654438EA0117501180000000000000
B0635183249705S11654446EA0116901177000000000000
B0635223249783S11654449EA0116901180000000000000
B0635263249856S11654452EA0117801195000000000000
B0635303249925S11654453EA0118801198000000000000
B0635343249990S11654438EA0119101200000000000000
B0635383250044S11654400EA0119401208000000000000
B0635423250095S11654355EA0120501217000000000000
B0635463250100S11654295EA0121501230000000000000
B0635503250046S11654279EA0121701223000000000000
B0635543249992S11654343EA0120801216000000000000
B0635583249985S11654442EA0120201211000000000000
B0636023250037S11654508EA0121201230000000000000
B0636063250082S11654481EA0122901247000000015000
B0636103250061S11654433EA0123601248000000015000
B0636143250002S11654451EA0123701250000000015000
B0636183249977S11654533EA0123801249000000015000
B0636223250013S11654608EA0124001253000000015000
B0636263250056S11654586EA0125101269000000015000
B0636303250017S11654551EA0126301275000000015000
B0636343249957S11654589EA0126301273000000015000
B0636383249947S11654681EA0126501279000000015000
B0636423250000S11654737EA0127001285000000015000
B0636463250046S11654709EA0128701305000000015000
B0636503250012S11654663EA0129701311000000015000
B0636543249946S11654690EA0130601327000000015000
B0636583249927S11654773EA0131901336000000015000
B0637023249970S11654834EA0132401342000000015000
B0637063250021S11654837EA0134101361000000015000
B0637103250008S11654789EA0135101371000000015000
B0637143249942S11654804EA0135901379000000015000
B0637183249921S11654890EA0136901389000000015000
B0637223249966S11654946EA0137501390000000015000
B0637263250015S11654925EA0138101401000000015000
B0637303250013S11654868EA0138901405000000015000
B0637343249951S11654839EA0139301408000000015000
B0637383249896S11654908EA0140001418000000015000
B0637423249922S11654995EA0140901426000000015000
B0637463249979S11655011EA0142201441000000015000
B0637503250016S11654971EA0143001445000000015000
B0637543249996S11654914EA0143601457000000015000
B0637583249937S11654898EA0144501466000000015000
B0638023249894S11654963EA0145601477000000015000
B0638063249905S11655051EA0145901477000000015000
B0638103249964S11655092EA0146501485000000015000
B0638143250008S11655062EA0147301493000000015000
B0638183249985S11655007EA0148201503000000015000
B0638223249916S11655008EA0149001512000000015000
B0638263249877S11655084EA0150201523000000015000
B0638303249903S11655166EA0150601529000000015000
B0638343249959S11655188EA0152101545000000015000
B0638383250009S11655170EA0152001531000000015000
B0638423250067S11655129EA0150501520000000015000
B0638463250129S11655084EA0150101517000000015000
B0638503250191S11655034EA0149601513000000000000
B0638543250252S11654984EA0149101503000000000000
B0638583250316S11654929EA0147601484000000000000
B0639023250384S11654875EA0145801467000000000000
B0639063250454S11654820EA0144501458000000000000
B0639103250525S11654765EA0143201439000000000000
B0639143250601S11654712EA0141201421000000000000
B0639183250680S11654657EA0139301400000000000000
B0639223250761S11654599EA0137701385000000000000
B0639263250844S11654538EA0135901366000000000000
B0639303250928S11654479EA0134801358000000000000
B0639343251010S11654425EA0134401353000000000000
B0639383251092S11654370EA0133501344000000000000
B0639423251177S11654317EA0132701334000000000000
B0639463251260S11654266EA0132301335000000000000
B0639503251343S11654213EA0132001329000000000000
B0639543251426S11654160EA0130901317000000000000
B0639583251512S11654110EA0130101308000000000000
B0640023251597S11654059EA0129501303000000000000
B0640063251677S11654009EA0129301304000000000000
B0640103251753S11653961EA0129101299000000000000
B0640143251827S11653915EA0128201287000000000000
B0640183251901S11653872EA0127001276000000000000
B0640223251975S11653831EA0126301270000000000000
B0640263252037S11653779EA0126301275000000000000
B0640303252089S11653727EA0126501276000000000000
B0640343252141S11653680EA0126501274000000000000
B0640383252193S11653636EA0126301269000000000000
B0640423252241S11653588EA0125501262000000000000
B0640463252286S11653532EA0124901258000000000000
B0640503252323S11653473EA0125501270000000000000
B0640543252360S11653419EA0126401276000000000000
B0640583252391S11653364EA0126801282000000000000
B0641023252423S11653311EA0127901293000000000000
B0641063252447S11653255EA0129801314000000000000
B0641103252412S11653204EA0131901334000000000000
B0641143252348S11653227EA0133201347000000000000
B0641183252327S11653305EA0134101360000000000000
B0641223252357S11653364EA0135101368000000000000
B0641263252403S11653356EA0135901378000000000000
B0641303252396S11653302EA0136801387000000000000
B0641343252338S11653291EA0138001397000000000000
B0641383252299S11653361EA0138601400000000000000
B0641423252327S11653430EA0139401414000000000000
B0641463252377S11653429EA0141101431000000000000
B0641503252387S11653377EA0142201437000000000000
B0641543252332S11653350EA0142901450000000000000
B0641583252283S11653400EA0144101458000000000000
B0642023252291S11653481EA0144401463000000000000
B0642063252340S11653524EA0145801478000000000000
B0642103252386S11653502EA0147301492000000000000
B0642143252382S11653445EA0148101500000000000000
B0642183252327S11653421EA0148601508000000000000
B0642223252271S11653459EA0149401512000000000000
B0642263252261S11653543EA0149101506000000000000
B0642303252300S11653621EA0148801505000000000000
B0642343252362S11653672EA0149601520000000000000
B0642383252433S11653684EA0150801528000000000000
B0642423252500S11653664EA0150201508000000000000
B0642463252565S11653620EA0148001488000000000000
B0642503252626S11653565EA0146301470000000000000
B0642543252686S11653502EA0144701457000000000000
B0642583252746S11653437EA0143601441000000000000
B0643023252798S11653360EA0142001423000000000000
B0643063252836S11653272EA0140601419000000000000
B0643103252869S11653183EA0140001409000000000000
B0643143252914S11653100EA0139001397000000000000
B0643183252972S11653029EA0138501398000000000000
B0643223253038S11652977EA0138701400000000000000
B0643263253112S11652935EA0138501394000000000000
B0643303253189S11652899EA0138101394000000000000
B0643343253258S11652856EA0138801403000000000000
B0643383253324S11652808EA0139501413000000000000
B0643423253388S11652765EA0140201421000000000000
B0643463253450S11652726EA0141101429000000000000
B0643503253508S11652685EA0141601432000000000000
B0643543253566S11652645EA0142201437000000000000
B0643583253629S11652610EA0143401455000000000000
B0644023253653S11652549EA0145501480000000000000
B0644063253603S11652524EA0147901503000000000000
B0644103253558S11652588EA0149601517000000000000
B0644143253570S11652670EA0150501522000000000000
B0644183253626S11652702EA0151201533000000000000
B0644223253651S11652655EA0152301546000000000000
B0644263253604S11652614EA0153601558000000000000
B0644303253544S11652657EA0155101584000000015000
B0644343253534S11652737EA0156601585000000015000
B0644383253583S11652795EA0156801591000000000000
B0644423253634S11652769EA0157901604000000015000
B0644463253622S11652707EA0158901615000000015000
B0644503253558S11652711EA0160501635000000015000
B0644543253519S11652783EA0162401654000000015000
B0644583253530S11652865EA0163601659000000000000
B0645023253586S11652896EA0164001669000000015000
B0645063253617S11652852EA0165401683000000015000
B0645103253584S11652809EA0166601692000000015000
B0645143253525S11652843EA0167401701000000015000
B0645183253509S11652926EA0168401713000000015000
B0645223253541S11652992EA0169601724000000000000
B0645263253596S11653010EA0170401728000000015000
B0645303253632S11652974EA0171001744000000015000
B0645343253616S11652927EA0172101746000000015000
B0645383253552S11652936EA0172201750000000015000
B0645423253510S11653012EA0172801759000000015000
B0645463253522S11653095EA0174101771000000015000
B0645503253574S11653146EA0174001753000000000000
B0645543253652S11653168EA0171701737000000000000
B0645583253739S11653179EA0170501725000000000000
B0646023253829S11653185EA0169501718000000000000
B0646063253921S11653191EA0169501722000000000000
B0646103254009S11653200EA0170801738000000000000
B0646143254095S11653214EA0171401732000000000000
B0646183254185S11653226EA0169501712000000000000
B0646223254277S11653239EA0167801696000000000000
B0646263254373S11653253EA0166901687000000000000
B0646303254470S11653266EA0166501682000000000000
B0646343254565S11653274EA0165301670000000000000
B0646383254658S11653273EA0164101657000000000000
B0646423254754S11653265EA0162701638000000000000
B0646463254853S11653252EA0160901627000000000000
B0646503254951S11653239EA0159901616000000000000
B0646543255048S11653229EA0159001609000000000000
B0646583255142S11653218EA0158501600000000000000
B0647023255237S11653207EA0157501589000000000000
B0647063255332S11653199EA0156601584000000000000
B0647103255424S11653188EA0155801576000000000000
B0647143255514S11653175EA0155401573000000000000
B0647183255601S11653166EA0155101569000000000000
B0647223255688S11653157EA0154301559000000000000
B0647263255775S11653144EA0153001548000000000000
B0647303255862S11653131EA0152401542000000000000
B0647343255948S11653120EA0152101537000000000000
B0647383256032S11653113EA0151501529000000000000
B0647423256117S11653112EA0150501522000000000000
B0647463256200S11653109EA0150101518000000000000
B0647503256281S11653107EA0150201518000000000000
B0647543256360S11653099EA0149901519000000000000
B0647583256434S11653079EA0150901531000000000000
B0648023256507S11653060EA0151401531000000000000
B0648063256586S11653052EA0151801539000000000000
B0648103256660S11653038EA0152801550000000000000
B0648143256738S11653031EA0152301532000000000000
B0648183256827S11653044EA0150601518000000000000
B0648223256916S11653066EA0149701510000000000000
B0648263257006S11653090EA0148501497000000000000
B0648303257096S11653114EA0147201484000000000000
B0648343257185S11653140EA0146401478000000000000
B0648383257271S11653168EA0145601470000000000000
B0648423257356S11653192EA0145001466000000000000
B0648463257434S11653222EA0145001465000000000000
B0648503257506S11653252EA0144901466000000000000
B0648543257581S11653278EA0145301473000000000000
B0648583257652S11653299EA0145701475000000000000
B0649023257722S11653318EA0145401468000000000000
B0649063257794S11653338EA0144401458000000000000
B0649103257870S11653364EA0143401447000000000000
B0649143257948S11653391EA0142801444000000000000
B0649183258028S11653416EA0142701443000000000000
B0649223258106S11653441EA0143201453000000000000
B0649263258180S11653459EA0144501465000000000000
B0649303258245S11653448EA0145101469000000000000
B0649343258307S11653430EA0144401458000000000000
B0649383258376S11653424EA0143001438000000000000
B0649423258452S11653429EA0141801432000000000000
B0649463258526S11653442EA0141701434000000000000
B0649503258593S11653458EA0142201443000000000000
B0649543258657S11653480EA0143201451000000000000
B0649583258722S11653502EA0143501454000000000000
B0650023258793S11653526EA0143801453000000000000
B0650063258869S11653550EA0143601448000000000000
B0650103258944S11653554EA0142801442000000000000
B0650143259024S11653562EA0142301439000000000000
B0650183259102S11653560EA0142801450000000000000
B0650223259180S11653559EA0143801457000000000000
B0650263259254S11653560EA0144201461000000000000
B0650303259323S11653560EA0144501464000000000000
B0650343259389S11653564EA0144201454000000000000
B0650383259459S11653569EA0142801437000000000000
B0650423259533S11653578EA0141301421000000000000
B0650463259610S11653588EA0139801408000000000000
B0650503259685S11653598EA0138501394000000000000
B0650543259762S11653612EA0137101380000000000000
B0650583259841S11653634EA0135601366000000000000
B0651023259919S11653668EA0134701354000000000000
B0651063300000S11653705EA0133201341000000000000
B0651103300078S11653745EA0132401333000000000000
B0651143300155S11653786EA0131901330000000000000
B0651183300227S11653829EA0131601326000000000000
B0651223300303S11653870EA0130801313000000000000
B0651263300382S11653881EA0129401298000000000000
B0651303300463S11653870EA0128001287000000000000
B0651343300539S11653845EA0127101282000000000000
B0651383300613S11653815EA0127101280000000000000
B0651423300684S11653772EA0126101269000000000000
B0651463300755S11653725EA0125101260000000000000
B0651503300827S11653679EA0124901259000000000000
B0651543300893S11653633EA0125001263000000000000
B0651583300957S11653589EA0124801258000000000000
B0652023301026S11653549EA0124201252000000000000
B0652063301094S11653515EA0124001250000000000000
B0652103301163S11653487EA0123501243000000000000
B0652143301228S11653465EA0122801238000000000000
B0652183301291S11653443EA0122801239000000000000
B0652223301345S11653412EA0123101241000000000000
B0652263301384S11653367EA0123201245000000000000
B0652303301406S11653313EA0124101256000000000000
B0652343301422S11653259EA0124601257000000000000
B0652383301431S11653201EA0124501258000000000000
B0652423301434S11653144EA0124601259000000000000
B0652463301431S11653086EA0124401257000000000000
B0652503301431S11653025EA0123501244000000000000
B0652543301438S11652957EA0122701236000000000000
B0652583301449S11652889EA0122601240000000000000
B0653023301466S11652824EA0122701240000000000000
B0653063301483S11652759EA0122601237000000000000
B0653103301497S11652689EA0122001231000000000000
B0653143301508S11652618EA0121701228000000000000
B0653183301512S11652544EA0121201222000000000000
B0653223301504S11652468EA0120801220000000000000
B0653263301490S11652394EA0120701217000000000000
B0653303301475S11652319EA0120301208000000000000
B0653343301452S11652243EA0118901195000000000000
B0653383301417S11652169EA0117801186000000000000
B0653423301358S11652115EA0117401180000000000000
B0653463301284S11652082EA0116401169000000000000
B0653503301201S11652070EA0115501159000000000000
B0653543301113S11652069EA0114101144000000000000
B0653583301023S11652077EA0113201138000000000000
B0654023300933S11652090EA0113101139000000000000
B0654063300849S11652115EA0113801149000000000000
B0654103300777S11652163EA0114201146000000000000
B0654143300704S11652204EA0113501137000000000000
B0654183300626S11652233EA0112301123000000000000
B0654223300548S11652251EA0111101112000000000000
B0654263300468S11652262EA0109901102000000000000
B0654303300386S11652265EA0109001093000000000000
B0654343300304S11652263EA0107801080000000000000
B0654383300223S11652259EA0107201071000000000000
B0654423300145S11652255EA0106301063000000000000
B0654463300065S11652265EA0105701062000000000000
B0654503259987S11652288EA0105901063000000000000
B0654543259910S11652320EA0105601059000000000000
B0654583259833S11652359EA0105401057000000000000
B0655023259755S11652397EA0105101054000000000000
B0655063259676S11652433EA0104901054000000000000
B0655103259603S11652481EA0105301060000000000000
B0655143259553S11652561EA0105901066000000000000
B0655183259566S11652654EA0107001079000000000000
B0655223259619S11652697EA0107101072000000000000
B0655263259672S11652681EA0106501070000000000000
B0655303259693S11652628EA0106701073000000000000
B0655343259671S11652572EA0107301081000000000000
B0655383259620S11652542EA0107701083000000000000
B0655423259557S11652551EA0107601081000000000000
B0655463259499S11652603EA0107801086000000000000
B0655503259485S11652688EA0108201088000000000000
B0655543259524S11652759EA0108201086000000000000
B0655583259573S11652744EA0108501094000000000000
B0656023259549S11652696EA0108701092000000000000
B0656063259480S11652702EA0108801100000000000000
B0656103259429S11652759EA0109901108000000015000
B0656143259420S11652849EA0109601097000000015000
B0656183259466S11652915EA0109201101000000000000
B0656223259518S11652910EA0109901108000000015000
B0656263259525S11652861EA0110101106000000015000
B0656303259480S11652817EA0109701103000000000000
B0656343259417S11652780EA0110001107000000000000
B0656383259350S11652787EA0110801117000000000000
B0656423259310S11652863EA0110801110000000000000
B0656463259334S11652948EA0110201105000000000000
B0656503259378S11653014EA0109801103000000000000
B0656543259437S11653065EA0109501099000000000000
B0656583259503S11653081EA0109801109000000000000
B0657023259540S11653044EA0111301122000000000000
B0657063259502S11653005EA0112001129000000000000
B0657103259441S11653044EA0112401135000000000000
B0657143259453S11653126EA0113201141000000000000
B0657183259498S11653113EA0113901151000000015000
B0657223259467S11653065EA0114701157000000015000
B0657263259397S11653079EA0115201164000000015000
B0657303259376S11653165EA0116501177000000015000
B0657343259425S11653217EA0117101186000000015000
B0657383259464S11653187EA0118401205000000015000
B0657423259436S11653143EA0119801212000000015000
B0657463259369S11653162EA0120201217000000015000
B0657503259342S11653240EA0121801240000000015000
B0657543259376S11653304EA0122801244000000000000
B0657583259420S11653294EA0123901259000000015000
B0658023259408S11653246EA0124701263000000000000
B0658063259345S11653239EA0125301270000000000000
B0658103259294S11653300EA0126401286000000015000
B0658143259290S11653381EA0127701295000000000000
B0658183259333S11653428EA0128101299000000000000
B0658223259376S11653404EA0128501303000000015000
B0658263259371S11653347EA0129101309000000015000
B0658303259312S11653318EA0129901316000000015000
B0658343259241S11653343EA0130401325000000015000
B0658383259203S11653419EA0131401334000000015000
B0658423259221S11653498EA0131501324000000000000
B0658463259274S11653534EA0131301335000000000000
B0658503259316S11653515EA0132801354000000000000
B0658543259326S11653465EA0133801359000000000000
B0658583259290S11653419EA0134401366000000000000
B0659023259226S11653411EA0135101371000000000000
B0659063259168S11653459EA0135601374000000015000
B0659103259146S11653546EA0135001365000000000000
B0659143259176S11653620EA0134701366000000000000
B0659183259232S11653637EA0134901369000000015000
B0659223259267S11653594EA0135901381000000000000
B0659263259268S11653536EA0136701395000000000000
B0659303259220S11653504EA0138101403000000000000
B0659343259156S11653538EA0138101397000000015000
B0659383259120S11653623EA0137801394000000000000
B0659423259130S11653710EA0137501391000000000000
B0659463259183S11653758EA0137201391000000000000
B0659503259243S11653747EA0137601394000000000000
B0659543259255S11653689EA0138801412000000000000
B0659583259216S11653641EA0139701417000000000000
B0700023259147S11653627EA0139201405000000000000
B0700063259064S11653643EA0138301395000000000000
B0700103258979S11653685EA0136901379000000000000
B0700143258890S11653736EA0134601353000000000000
B0700183258793S11653790EA0132901338000000000000
B0700223258693S11653838EA0131601325000000000000
B0700263258595S11653888EA0130401313000000000000
B0700303258497S11653937EA0129301307000000000000
B0700343258401S11653987EA0129201307000000000000
B0700383258307S11654037EA0129001305000000000000
B0700423258215S11654092EA0128801300000000000000
B0700463258125S11654150EA0128601302000000000000
B0700503258037S11654206EA0129001306000000000000
B0700543257950S11654254EA0128701294000000000000
B0700583257863S11654303EA0127001279000000000000
B0701023257776S11654351EA0126001269000000000000
B0701063257686S11654394EA0125301263000000000000
B0701103257596S11654436EA0125001262000000000000
B0701143257509S11654482EA0124101251000000000000
B0701183257419S11654521EA0123801253000000000000
B0701223257331S11654563EA0124601259000000000000
B0701263257249S11654615EA0125401273000000000000
B0701303257189S11654687EA0126801287000000000000
B0701343257175S11654785EA0127801294000000000000
B0701383257230S11654833EA0128001293000000000000
B0701423257282S11654810EA0128301301000000000000
B0701463257282S11654754EA0129401312000000000000
B0701503257224S11654734EA0130201312000000000000
B0701543257163S11654790EA0130101310000000000000
B0701583257149S11654889EA0129901308000000000000
B0702023257188S11654964EA0130301320000000015000
B0702063257245S11654960EA0130801325000000015000
B0702103257282S11654919EA0132001341000000000000
B0702143257266S11654868EA0133701359000000000000
B0702183257205S11654876EA0134901364000000000000
B0702223257168S11654955EA0134701360000000000000
B0702263257200S11655034EA0135201371000000000000
B0702303257258S11655040EA0136101382000000015000
B0702343257270S11654986EA0137401397000000015000
B0702383257222S11654947EA0138601404000000015000
B0702423257152S11654969EA0139001408000000000000
B0702463257102S11655047EA0139101409000000000000
B0702503257109S11655142EA0139601416000000015000
B0702543257167S11655172EA0140001419000000015000
B0702583257197S11655119EA0140401431000000015000
B0703023257158S11655071EA0142101456000000015000
B0703063257094S11655086EA0144101465000000015000
B0703103257050S11655158EA0144501464000000015000
B0703143257058S11655244EA0144601466000000015000
B0703183257113S11655283EA0144401463000000015000
B0703223257166S11655263EA0144601474000000015000
B0703263257189S11655214EA0146201489000000000000
B0703303257166S11655157EA0146901493000000000000
B0703343257103S11655129EA0146801490000000000000
B0703383257024S11655137EA0146301482000000000000
B0703423256940S11655166EA0145601476000000000000
B0703463256853S11655203EA0144801459000000000000
B0703503256764S11655254EA0143101443000000000000
B0703543256671S11655305EA0141301426000000000000
B0703583256573S11655358EA0140401422000000000000
B0704023256482S11655411EA0141301436000000000000
B0704063256405S11655474EA0143201463000000000000
B0704103256346S11655539EA0145701484000000000000
B0704143256291S11655601EA0146001477000000000000
B0704183256235S11655668EA0144701461000000000000
B0704223256160S11655720EA0144001461000000000000
B0704263256078S11655753EA0144901473000000000000
B0704303256010S11655725EA0146401495000000000000
B0704343256019S11655669EA0148401513000000000000
B0704383256073S11655675EA0149201514000000000000
B0704423256104S11655743EA0149601523000000000000
B0704463256099S11655825EA0150501530000000000000
B0704503256039S11655868EA0151101537000000000000
B0704543256005S11655822EA0152401556000000000000
B0704583256041S11655791EA0153901563000000015000
B0705023256091S11655834EA0153801565000000000000
B0705063256086S11655918EA0154801578000000015000
B0705103256030S11655970EA0155701583000000000000
B0705143255969S11655959EA0156901604000000000000
B0705183255943S11655915EA0158601624000000000000
B0705223255957S11655870EA0159901627000000000000
B0705263256004S11655870EA0160201633000000000000
B0705303256035S11655928EA0160801637000000000000
B0705343256022S11656007EA0161201643000000000000
B0705383255978S11656071EA0162001653000000000000
B0705423255917S11656107EA0162801660000000000000
B0705463255854S11656100EA0164301676000000000000
B0705503255820S11656052EA0165001678000000000000
B0705543255828S11655995EA0164701675000000000000
B0705583255871S11655973EA0164401667000000000000
B0706023255924S11656004EA0163701661000000000000
B0706063255957S11656080EA0163101663000000000000
B0706103255946S11656167EA0164201681000000000000
B0706143255898S11656238EA0165001675000000000000
B0706183255820S11656277EA0163901661000000000000
B0706223255729S11656292EA0162701652000000000000
B0706263255634S11656290EA0161601635000000000000
B0706303255537S11656281EA0159901620000000000000
B0706343255441S11656268EA0159101613000000000000
B0706383255346S11656251EA0158001602000000000000
B0706423255250S11656232EA0156701588000000000000
B0706463255153S11656212EA0155501577000000000000
B0706503255056S11656198EA0154801569000000000000
B0706543254961S11656193EA0154501567000000000000
B0706583254867S11656195EA0154101565000000000000
B0707023254775S11656207EA0154001565000000000000
B0707063254685S11656224EA0154601572000000000000
B0707103254598S11656243EA0154701571000000000000
B0707143254511S11656263EA0154301566000000000000
B0707183254422S11656281EA0153801562000000000000
B0707223254331S11656299EA0153801562000000000000
B0707263254242S11656323EA0153901564000000000000
B0707303254154S11656347EA0153601554000000000000
B0707343254061S11656376EA0152201539000000000000
B0707383253967S11656402EA0150601524000000000000
B0707423253869S11656425EA0149601516000000000000
B0707463253773S11656446EA0149501518000000000000
B0707503253679S11656466EA0149501518000000000000
B0707543253587S11656488EA0149101511000000000000
B0707583253493S11656509EA0149001514000000000000
B0708023253405S11656546EA0149601519000000000000
B0708063253327S11656605EA0149601517000000000000
B0708103253249S11656670EA0148901506000000000000
B0708143253175S11656740EA0148001500000000000000
B0708183253101S11656813EA0146501476000000000000
B0708223253015S11656875EA0144501462000000000000
B0708263252928S11656938EA0144301463000000000000
B0708303252850S11657012EA0144201464000000000000
B0708343252777S11657095EA0144501467000000000000
B0708383252707S11657178EA0145101479000000000000
B0708423252642S11657261EA0146501490000000000000
B0708463252637S11657363EA0147701506000000000000
B0708503252695S11657400EA0148701511000000000000
B0708543252734S11657363EA0148701511000000000000
B0708583252719S11657308EA0149201519000000000000
B0709023252656S11657294EA0149601519000000000000
B0709063252587S11657333EA0149901525000000000000
B0709103252572S11657425EA0150201525000000000000
B0709143252557S11657523EA0149701519000000000000
B0709183252507S11657606EA0149901524000000000000
B0709223252442S11657670EA0149901518000000000000
B0709263252365S11657723EA0149001510000000000000
B0709303252283S11657772EA0148201499000000000000
B0709343252197S11657822EA0146901484000000000000
B0709383252113S11657878EA0146001482000000000000
B0709423252031S11657931EA0146301487000000000000
B0709463251953S11657984EA0147801506000000000000
B0709503251905S11658058EA0150201534000000000000
B0709543251948S11658118EA0152201547000000000000
B0709583251981S11658083EA0153001559000000000000
B0710023251952S11658035EA0153901567000000000000
B0710063251889S11658044EA0154801578000000000000
B0710103251851S11658121EA0155501586000000000000
B0710143251880S11658193EA0156901603000000000000
B0710183251932S11658200EA0158001609000000015000
B0710223251954S11658156EA0158901625000000015000
B0710263251936S11658110EA0160501637000000000000
B0710303251883S11658089EA0161001641000000000000
B0710343251822S11658126EA0162001651000000000000
B0710383251799S11658209EA0163201666000000000000
B0710423251825S11658281EA0164501675000000000000
B0710463251879S11658301EA0165001679000000000000
B0710503251918S11658271EA0165901694000000000000
B0710543251919S11658221EA0167001708000000000000
B0710583251879S11658184EA0167901711000000000000
B0711023251814S11658190EA0168501722000000000000
B0711063251766S11658252EA0169901735000000000000
B0711103251773S11658334EA0171001746000000000000
B0711143251825S11658374EA0171801752000000000000
B0711183251872S11658351EA0173101771000000000000
B0711223251880S11658300EA0174901785000000000000
B0711263251844S11658260EA0175201782000000000000
B0711303251779S11658260EA0175001782000000000000
B0711343251712S11658308EA0175101787000000000000
B0711383251679S11658394EA0176801808000000000000
B0711423251710S11658464EA0178501823000000000000
B0711463251763S11658468EA0179601830000000000000
B0711503251786S11658421EA0180701849000000000000
B0711543251770S11658370EA0182301861000000000000
B0711583251723S11658339EA0183201866000000000000
B0712023251655S11658333EA0182401854000000000000
B0712063251573S11658340EA0181701846000000000000
B0712103251485S11658357EA0181001838000000000000
B0712143251393S11658378EA0180501837000000000000
B0712183251298S11658403EA0180601836000000000000
B0712223251201S11658426EA0181001845000000000000
B0712263251105S11658451EA0181601845000000000000
B0712303251005S11658476EA0180801835000000000000
B0712343250902S11658499EA0180301827000000000000
B0712383250798S11658517EA0178501807000000000000
B0712423250693S11658525EA0177401796000000000000
B0712463250592S11658526EA0176701792000000000000
B0712503250493S11658524EA0176901797000000000000
B0712543250398S11658521EA0177701803000000000000
B0712583250306S11658522EA0177201798000000000000
B0713023250212S11658525EA0176301789000000000000
B0713063250120S11658526EA0175701785000000000000
B0713103250029S11658528EA0175301780000000000000
B0713143249939S11658529EA0174601772000000000000
B0713183249849S11658531EA0174001768000000000000
B0713223249760S11658538EA0173201757000000000000
B0713263249666S11658542EA0171901743000000000000
B0713303249573S11658544EA0171001738000000000000
B0713343249480S11658547EA0170801736000000000000
B0713383249389S11658551EA0170101729000000000000
B0713423249298S11658552EA0169601720000000000000
B0713463249203S11658546EA0168501708000000000000
B0713503249107S11658538EA0167401696000000000000
B0713543249008S11658531EA0166501686000000000000
B0713583248908S11658524EA0165501678000000000000
B0714023248807S11658516EA0164301664000000000000
B0714063248705S11658511EA0163501658000000000000
B0714103248603S11658511EA0162501648000000000000
B0714143248500S11658520EA0161901643000000000000
B0714183248399S11658533EA0161201631000000000000
B0714223248297S11658546EA0160801635000000000000
B0714263248206S11658555EA0161801646000000000000
B0714303248119S11658567EA0161801641000000000000
B0714343248029S11658577EA0160701627000000000000
B0714383247936S11658582EA0159801621000000000000
B0714423247846S11658583EA0160101629000000000000
B0714463247763S11658587EA0161001636000000000000
B0714503247680S11658591EA0161201637000000000000
B0714543247597S11658594EA0160801632000000000000
B0714583247515S11658608EA0161601649000000000000
B0715023247456S11658667EA0164101676000000000000
B0715063247473S11658749EA0165901686000000000000
B0715103247529S11658767EA0166301690000000000000
B0715143247561S11658729EA0166601694000000000000
B0715183247554S11658677EA0167101695000000000000
B0715223247508S11658638EA0167201703000000000000
B0715263247446S11658629EA0168401715000000000000
B0715303247391S11658684EA0170401737000000000000
B0715343247403S11658767EA0171401748000000000000
B0715383247455S11658801EA0172801763000000000000
B0715423247496S11658777EA0173701769000000000000
B0715463247496S11658723EA0174501781000000000000
B0715503247454S11658681EA0175401788000000000000
B0715543247386S11658671EA0176401803000000000000
B0715583247325S11658717EA0178701829000000000000
B0716023247317S11658802EA0179901833000000000000
B0716063247364S11658859EA0180301839000000000000
B0716103247421S11658858EA0181601857000000000000
B0716143247456S11658821EA0183801877000000000000
B0716183247450S11658768EA0184601885000000000000
B0716223247396S11658726EA0184701877000000000000
B0716263247320S11658700EA0184201877000000000000
B0716303247235S11658684EA0184301877000000000000
B0716343247147S11658669EA0184201874000000000000
B0716383247054S11658656EA0183601866000000000000
B0716423246958S11658645EA0183001858000000000000
B0716463246859S11658635EA0181801844000000000000
B0716503246759S11658629EA0180701836000000000000
B0716543246658S11658625EA0180001830000000000000
B0716583246559S11658621EA0179501824000000000000
B0717023246459S11658617EA0179101820000000000000
B0717063246362S11658613EA0178801816000000000000
B0717103246268S11658611EA0178801817000000000000
B0717143246177S11658607EA0178501810000000000000
B0717183246087S11658603EA0177901809000000000000
B0717223246001S11658602EA0178401817000000000000
B0717263245918S11658606EA0178301810000000000000
B0717303245831S11658613EA0177201799000000000000
B0717343245739S11658622EA0176201788000000000000
B0717383245643S11658630EA0175001777000000000000
B0717423245546S11658634EA0174301769000000000000
B0717463245452S11658635EA0173801763000000000000
B0717503245358S11658637EA0173301761000000000000
B0717543245266S11658634EA0173001756000000000000
B0717583245175S11658632EA0172401749000000000000
B0718023245082S11658622EA0171701742000000000000
B0718063244991S11658609EA0171001738000000000000
B0718103244902S11658594EA0170601733000000000000
B0718143244812S11658577EA0170201729000000000000
B0718183244722S11658561EA0170001726000000000000
B0718223244633S11658550EA0170001729000000000000
B0718263244544S11658542EA0170001722000000000000
B0718303244456S11658533EA0169201715000000000000
B0718343244367S11658525EA0168601710000000000000
B0718383244278S11658515EA0168101703000000000000
B0718423244189S11658502EA0167301694000000000000
B0718463244098S11658489EA0166401682000000000000
B0718503244009S11658474EA0165501675000000000000
B0718543243918S11658461EA0164501664000000000000
B0718583243828S11658452EA0163801661000000000000
B0719023243739S11658442EA0163401659000000000000
B0719063243656S11658429EA0163301656000000000000
B0719103243574S11658413EA0162901653000000000000
B0719143243498S11658399EA0163301658000000000000
B0719183243420S11658388EA0162501645000000000000
B0719223243339S11658379EA0161501635000000000000
B0719263243255S11658372EA0160501624000000000000
B0719303243167S11658368EA0159601616000000000000
B0719343243079S11658362EA0158701607000000000000
B0719383242988S11658357EA0157701598000000000000
B0719423242896S11658349EA0157001590000000000000
B0719463242805S11658343EA0156501588000000000000
B0719503242715S11658339EA0156401587000000000000
B0719543242625S11658336EA0155801576000000000000
B0719583242533S11658333EA0154601564000000000000
B0720023242438S11658331EA0153801555000000000000
B0720063242341S11658334EA0153001547000000000000
B0720103242243S11658343EA0152601546000000000000
B0720143242148S11658360EA0152401543000000000000
B0720183242052S11658379EA0152001538000000000000
B0720223241956S11658401EA0151701537000000000000
B0720263241861S11658425EA0151401531000000000000
B0720303241765S11658447EA0150601523000000000000
B0720343241670S11658469EA0150001518000000000000
B0720383241575S11658483EA0149901521000000000000
B0720423241484S11658504EA0151001534000000000000
B0720463241397S11658543EA0152401549000000000000
B0720503241344S11658625EA0154401575000000000000
B0720543241346S11658717EA0155901584000000000000
B0720583241394S11658763EA0156401589000000000000
B0721023241436S11658741EA0156401588000000000000
B0721063241431S11658687EA0156801595000000000000
B0721103241376S11658663EA0157501605000000000000
B0721143241312S11658704EA0158501613000000015000
B0721183241298S11658795EA0159101619000000015000
B0721223241333S11658867EA0159501625000000015000
B0721263241385S11658885EA0160001628000000015000
B0721303241419S11658851EA0160001628000000000000
B0721343241412S11658798EA0160401636000000000000
B0721383241370S11658763EA0161401647000000000000
B0721423241310S11658762EA0162401652000000000000
B0721463241250S11658811EA0162901655000000015000
B0721503241238S11658901EA0163301662000000015000
B0721543241279S11658970EA0163801664000000015000
B0721583241338S11658983EA0163901665000000015000
B0722023241372S11658938EA0164201671000000000000
B0722063241354S11658880EA0164801675000000000000
B0722103241295S11658851EA0164901673000000000000
B0722143241216S11658869EA0164201664000000000000
B0722183241132S11658912EA0163401657000000000000
B0722223241046S11658962EA0162801653000000000000
B0722263240957S11659011EA0162601651000000000000
B0722303240868S11659063EA0161601638000000000000
B0722343240775S11659119EA0160301627000000000000
B0722383240681S11659170EA0160101628000000000000
B0722423240587S11659210EA0160801641000000000000
B0722463240500S11659248EA0161501643000000000000
B0722503240411S11659285EA0161101635000000000000
B0722543240320S11659322EA0161001637000000000000
B0722583240229S11659363EA0161201638000000000000
B0723023240138S11659413EA0161101636000000000000
B0723063240046S11659461EA0161001636000000000000
B0723103239955S11659509EA0159701618000000000000
B0723143239864S11659560EA0158201605000000000000
B0723183239771S11659605EA0157501598000000000000
B0723223239678S11659649EA0156901591000000000000
B0723263239589S11659701EA0156201585000000000000
B0723303239498S11659755EA0155001568000000000000
B0723343239404S11659804EA0153401553000000000000
B0723383239306S11659855EA0152001539000000000000
B0723423239209S11659904EA0151401536000000000000
B0723463239117S11659960EA0151801540000000000000
B0723503239031S11700020EA0152201549000000000000
B0723543238950S11700046EA0154301585000000000000
B0723583238920S11659997EA0157601611000000000000
B0724023238958S11659973EA0159201621000000000000
B0724063239005S11700017EA0159601623000000000000
B0724103239007S11700097EA0160101632000000000000
B0724143238959S11700151EA0160901640000000000000
B0724183238907S11700136EA0161601643000000000000
B0724223238906S11700081EA0161901650000000000000
B0724263238955S11700069EA0162801658000000000000
B0724303238998S11700125EA0163301662000000000000
B0724343238996S11700207EA0163601667000000000000
B0724383238955S11700272EA0164401674000000000000
B0724423238894S11700314EA0164701677000000000000
B0724463238824S11700344EA0164701675000000000000
B0724503238747S11700368EA0164701679000000000000
B0724543238667S11700390EA0165101681000000000000
B0724583238585S11700415EA0165401686000000000000
B0725023238500S11700444EA0165401678000000000000
B0725063238413S11700471EA0164301666000000000000
B0725103238324S11700506EA0162701648000000000000
B0725143238229S11700545EA0160901629000000000000
B0725183238130S11700578EA0159801623000000000000
B0725223238032S11700600EA0159701621000000000000
B0725263237932S11700618EA0158601610000000000000
B0725303237828S11700632EA0157401596000000000000
B0725343237722S11700643EA0156401587000000000000
B0725383237618S11700652EA0156101583000000000000
B0725423237516S11700662EA0155601577000000000000
B0725463237416S11700666EA0155001572000000000000
B0725503237319S11700667EA0154301562000000000000
B0725543237221S11700669EA0153701561000000000000
B0725583237126S11700670EA0153101550000000000000
B0726023237030S11700669EA0151801536000000000000
B0726063236937S11700667EA0151501538000000000000
B0726103236846S11700663EA0150901525000000000000
B0726143236752S11700660EA0149501510000000000000
B0726183236654S11700657EA0148001497000000000000
B0726223236556S11700652EA0147101489000000000000
B0726263236456S11700647EA0146801489000000000000
B0726303236359S11700643EA0147301495000000000000
B0726343236267S11700640EA0147401494000000000000
B0726383236176S11700636EA0146801487000000000000
B0726423236085S11700637EA0146301482000000000000
B0726463235995S11700641EA0146001479000000000000
B0726503235906S11700640EA0145301468000000000000
B0726543235813S11700641EA0144001456000000000000
B0726583235720S11700644EA0143001446000000000000
B0727023235626S11700644EA0142101439000000000000
B0727063235534S11700641EA0141601434000000000000
B0727103235443S11700641EA0141201431000000000000
B0727143235354S11700644EA0141101429000000000000
B0727183235266S11700650EA0140601422000000000000
B0727223235178S11700654EA0140101419000000000000
B0727263235091S11700656EA0140001421000000000000
B0727303235005S11700658EA0140201420000000000000
B0727343234918S11700660EA0139801415000000000000
B0727383234831S11700657EA0139301411000000000000
B0727423234742S11700656EA0138701404000000000000
B0727463234652S11700654EA0138301401000000000000
B0727503234564S11700653EA0138101396000000000000
B0727543234474S11700652EA0137401389000000000000
B0727583234385S11700648EA0136801380000000000000
B0728023234295S11700645EA0136101374000000000000
B0728063234210S11700649EA0135701373000000000000
B0728103234126S11700652EA0135301366000000000000
B0728143234038S11700663EA0134301355000000000000
B0728183233950S11700676EA0133401348000000000000
B0728223233865S11700683EA0133001345000000000000
B0728263233783S11700688EA0133001346000000000000
B0728303233703S11700683EA0132601341000000000000
B0728343233625S11700669EA0132401339000000000000
B0728383233546S11700657EA0132701345000000000000
B0728423233472S11700645EA0133801357000000000000
B0728463233399S11700637EA0134601363000000000000
B0728503233334S11700684EA0135501369000000000000
B0728543233320S11700775EA0135601373000000000000
B0728583233363S11700842EA0135801375000000000000
B0729023233421S11700852EA0136401385000000000000
B0729063233432S11700801EA0137301395000000000000
B0729103233376S11700778EA0137901399000000000000
B0729143233312S11700827EA0138301403000000000000
B0729183233303S11700921EA0138501406000000015000
B0729223233346S11700990EA0138701412000000015000
B0729263233408S11701008EA0139301413000000015000
B0729303233464S11700983EA0139801423000000000000
B0729343233445S11700935EA0141401444000000000000
B0729383233380S11700955EA0142601447000000015000
B0729423233347S11701042EA0142701448000000015000
B0729463233380S11701124EA0143001454000000015000
B0729503233442S11701142EA0144201467000000015000
B0729543233479S11701104EA0145201477000000000000
B0729583233455S11701056EA0145701479000000015000
B0730023233390S11701047EA0145701483000000015000
B0730063233323S11701092EA0146201488000000000000
B0730103233297S11701185EA0146601492000000015000
B0730143233328S11701268EA0147201501000000015000
B0730183233388S11701273EA0148101503000000015000
B0730223233421S11701225EA0148701512000000015000
B0730263233384S11701186EA0150001527000000015000
B0730303233319S11701222EA0150801531000000015000
B0730343233298S11701312EA0151001531000000015000
B0730383233337S11701389EA0151501541000000015000
B0730423233398S11701411EA0152301550000000015000
B0730463233438S11701377EA0152701553000000015000
B0730503233441S11701321EA0152901556000000000000
B0730543233404S11701271EA0152501546000000000000
B0730583233345S11701226EA0151501539000000000000
B0731023233274S11701186EA0150801535000000000000
B0731063233202S11701146EA0151401545000000000000
B0731103233130S11701105EA0152001547000000000000
B0731143233057S11701070EA0152301549000000000000
B0731183232983S11701038EA0152701553000000000000
