ACAM4N6
HFDTE210521
HFFXA050
HFPLTPILOT:JOHN WELSH              
HFGTYGLIDERTYPE:HORNET      
HFGIDGLIDERID:VH-GMY      
HFDTM100GPSDATUM:
HFRFWFIRMWAREVERSION:F2.6
HFRHWHARDWAREVERSION:300 Series Version 2
HFFTYFRTYPE:CAMBRIDGE AERO INSTRUMENTS, 302+
HFGPS:GARMIN,LVS-25,12,18000
HFPRSPRESSALTSENSOR:INTERSEMA, MS5534-AP, 20000
I033638FXA3941ENL4247REX
LCAMSBVER:5FWVER:F26300
C020521044002020521000101
C0000000N00000000WTAKEOFF     
C3207549S11656849EBEVAIR      
C3255649S11704983ENARRAIR     
C3207549S11656849EBEVAIR      
C0000000N00000000WLANDING     
B0531353207341S11656856EA0017400203000000000000
B0531373207341S11656856EA0017300203000000000000
B0531393207341S11656856EA0017300203000000000000
B0531413207341S11656856EA0017300203000000000000
B0531433207341S11656856EA0017300203000000000000
B0531453207339S11656856EA0017400203000000000000
B0531473207339S11656856EA0017300203000000000000
B0531493207339S11656856EA0017400203000000000000
B0531513207339S11656856EA0017300203000000000000
B0531533207339S11656856EA0017300203000000000000
B0531553207339S11656856EA0017300203000000000000
B0531573207339S11656856EA0017400203000000000000
B0531593207339S11656856EA0017300203000000000000
B0532013207341S11656857EA0017300202000000000000
B0532033207343S11656858EA0017400202000000000000
B0532063207354S11656867EA0017300202000000000000
B0532103207380S11656891EA0017500202000000000000
B0532143207421S11656919EA0017500202000000000000
B0532183207477S11656953EA0017700203000000000000
B0532223207544S11656996EA0017900203000000000000
B0532263207616S11657043EA0018500210000000000000
B0532303207689S11657092EA0019600221000000000000
B0532343207762S11657138EA0020100230000000000000
B0532383207835S11657182EA0022000248000000000000
B0532423207910S11657224EA0023600264000000000000
B0532463207988S11657263EA0025000280000000000000
B0532503208066S11657303EA0026200290000000000000
B0532543208143S11657348EA0027000302000000000000
B0532583208220S11657394EA0027800318000000000000
B0533023208294S11657445EA0029600333000000000000
B0533063208369S11657495EA0030700344000000000000
B0533103208438S11657556EA0031600358000000000000
B0533143208495S11657631EA0033300377000000000000
B0533183208534S11657718EA0035700397000000000000
B0533223208547S11657810EA0037100418000000000000
B0533263208538S11657900EA0039300442000000000000
B0533303208507S11657983EA0041500460000000000000
B0533343208455S11658049EA0043000473000000000000
B0533383208387S11658091EA0044400489000000000000
B0533423208314S11658109EA0046000504000000000000
B0533463208242S11658100EA0047600520000000000000
B0533503208177S11658063EA0049100536000000000000
B0533543208121S11658011EA0050500548000000000000
B0533583208069S11657953EA0051700563000000000000
B0534023208034S11657880EA0053200578000000000000
B0534063208023S11657798EA0054700591000000000000
B0534103208031S11657716EA0056200604000000000000
B0534143208058S11657641EA0057800620000000000000
B0534183208106S11657579EA0058700632000000000000
B0534223208168S11657532EA0059900646000000000000
B0534263208239S11657507EA0061600663000000000000
B0534303208314S11657507EA0063200676000000000000
B0534343208392S11657525EA0064200686000000000000
B0534383208468S11657556EA0065600701000000000000
B0534423208543S11657592EA0066600710000000000000
B0534463208619S11657632EA0067600721000000000000
B0534503208695S11657675EA0068600731000000000000
B0534543208772S11657723EA0069800742000000000000
B0534583208842S11657789EA0070500749000000000000
B0535023208896S11657871EA0071800762000000000000
B0535063208941S11657959EA0073200776000000000000
B0535103208988S11658048EA0073900787000000000000
B0535143209027S11658140EA0075500807000000000000
B0535183209061S11658234EA0077300826000000000000
B0535223209092S11658334EA0078500838000000000000
B0535263209107S11658439EA0079700850000000000000
B0535303209107S11658548EA0080200854000000000000
B0535343209088S11658654EA0081100866000000000000
B0535383209050S11658746EA0083000887000000000000
B0535423209000S11658828EA0084600901000000000000
B0535463208936S11658895EA0085900912000000000000
B0535503208866S11658945EA0087400929000000000000
B0535543208793S11658976EA0088600942000000000000
B0535583208720S11658999EA0090100959000000000000
B0536023208647S11659025EA0091600975000000000000
B0536063208573S11659049EA0093100989000000000000
B0536103208503S11659070EA0094601006000000000000
B0536143208434S11659090EA0096101019000000000000
B0536183208365S11659111EA0097401032000000000000
B0536223208296S11659129EA0099001047000000000000
B0536263208230S11659145EA0100301061000000000000
B0536303208164S11659163EA0101401075000000000000
B0536343208099S11659180EA0102801091000000000000
B0536383208034S11659194EA0104101102000000000000
B0536423207971S11659188EA0105101112000000000000
B0536463207918S11659157EA0106101122000000000000
B0536503207875S11659114EA0107501135000000000000
B0536543207840S11659071EA0108401143000000000000
B0536583207793S11659048EA0108201140000000000000
B0537023207742S11659046EA0108401143000000000000
B0537063207693S11659051EA0108501144000000000000
B0537103207648S11659054EA0108501144000000000000
B0537143207606S11659053EA0108201138000000000000
B0537183207567S11659042EA0107601134000000000000
B0537223207534S11659024EA0107201129000000000000
B0537263207512S11658993EA0106801126000000000000
B0537303207502S11658957EA0106401121000000000000
B0537343207499S11658916EA0105901115000000000000
B0537383207497S11658875EA0105501108000000000000
B0537423207494S11658830EA0104801101000000000000
B0537463207490S11658786EA0104101095000000000000
B0537503207486S11658745EA0103701093000000000000
B0537543207480S11658704EA0103501090000000000000
B0537583207473S11658665EA0103001084000000000000
B0538023207463S11658629EA0102501078000000000000
B0538063207441S11658599EA0101901072000000000000
B0538103207404S11658589EA0101401068000000000000
B0538143207360S11658608EA0101101065000000000000
B0538183207321S11658659EA0100901063000000000000
B0538223207300S11658736EA0100701059000000000000
B0538263207303S11658825EA0100101052000000000000
B0538303207332S11658914EA0099601049000000000000
B0538343207381S11658983EA0099401045000000000000
B0538383207445S11659023EA0098801040000000000000
B0538423207507S11659032EA0098301036000000000000
B0538463207555S11659015EA0097701030000000000000
B0538503207583S11658981EA0097301025000000000000
B0538543207584S11658947EA0096901020000000000000
B0538583207570S11658919EA0096301013000000000000
B0539023207553S11658889EA0095401005000000000000
B0539063207533S11658855EA0094700997000000000000
B0539103207512S11658820EA0093900990000000000000
B0539143207492S11658784EA0093200983000000000000
B0539183207469S11658745EA0092700977000000000000
B0539223207449S11658706EA0092200973000000000000
B0539263207428S11658665EA0091800969000000000000
B0539303207410S11658625EA0091400964000000000000
B0539343207389S11658583EA0090900958000000000000
B0539383207371S11658541EA0090500955000000000000
B0539423207358S11658496EA0090200952000000000000
B0539463207349S11658450EA0089700947000000000000
B0539503207339S11658401EA0089100941000000000000
B0539543207330S11658352EA0088700936000000000000
B0539583207323S11658301EA0088500934000000000000
B0540023207313S11658249EA0088300930000000000000
B0540063207295S11658199EA0087900924000000000000
B0540103207268S11658152EA0087600922000000000000
B0540143207230S11658119EA0087700923000000000000
B0540183207180S11658141EA0087800926000000000000
B0540223207154S11658208EA0088000927000000000000
B0540263207167S11658283EA0088000928000000000000
B0540303207208S11658338EA0088000926000000000000
B0540343207264S11658355EA0087700923000000000000
B0540383207313S11658342EA0087400919000000000000
B0540423207339S11658303EA0087000915000000000000
B0540463207345S11658253EA0086400909000000000000
B0540503207332S11658205EA0086100906000000000000
B0540543207312S11658160EA0085900905000000000000
B0540583207285S11658119EA0085600901000000000000
B0541023207238S11658102EA0084900895000000000000
B0541063207183S11658117EA0084800895000000000000
B0541103207139S11658164EA0084800893000000000000
B0541143207121S11658239EA0084500891000000000000
B0541183207130S11658318EA0084300890000000000000
B0541223207167S11658386EA0084000888000000000000
B0541263207221S11658425EA0083800885000000000000
B0541303207280S11658426EA0083700883000000000000
B0541343207323S11658394EA0083300877000000000000
B0541383207342S11658339EA0082300869000000000000
B0541423207333S11658281EA0081800864000000000000
B0541463207286S11658251EA0081800865000000000000
B0541503207232S11658270EA0081900866000000000000
B0541543207194S11658331EA0081700864000000000000
B0541583207190S11658409EA0081700865000000000000
B0542023207217S11658481EA0081600861000000000000
B0542063207273S11658521EA0081200857000000000000
B0542103207333S11658520EA0081000856000000000000
B0542143207377S11658487EA0080500848000000000000
B0542183207398S11658433EA0079700841000000000000
B0542223207382S11658378EA0079700842000000000000
B0542263207338S11658352EA0079700839000000000000
B0542303207278S11658372EA0078900831000000000000
B0542343207234S11658430EA0078800835000000000000
B0542383207228S11658507EA0079000837000000000000
B0542423207265S11658569EA0078900831000000015000
B0542463207323S11658585EA0078500826000000015000
B0542503207365S11658555EA0078100822000000015000
B0542543207381S11658503EA0077700818000000000000
B0542583207372S11658448EA0077100812000000000000
B0543023207347S11658399EA0076700807000000000000
B0543063207308S11658359EA0076100801000000000000
B0543103207263S11658326EA0075600798000000000000
B0543143207221S11658288EA0075400796000000000000
B0543183207187S11658243EA0075100793000000000000
B0543223207159S11658192EA0075100791000000000000
B0543263207133S11658141EA0074900790000000000000
B0543303207096S11658099EA0074700786000000000000
B0543343207048S11658100EA0074600788000000000000
B0543383207014S11658145EA0074700787000000000000
B0543423207016S11658212EA0074300783000000000000
B0543463207051S11658269EA0074000782000000000000
B0543503207102S11658301EA0073700776000000000000
B0543543207159S11658296EA0072900768000000000000
B0543583207202S11658258EA0072400764000000000000
B0544023207225S11658204EA0071900758000000000000
B0544063207225S11658145EA0071500753000000000000
B0544103207202S11658093EA0070900748000000000000
B0544143207168S11658049EA0070200740000000000000
B0544183207129S11658006EA0069700734000000000000
B0544223207087S11657963EA0069100728000000000000
B0544263207051S11657915EA0068500724000000000000
B0544303207018S11657867EA0068400724000000000000
B0544343206990S11657819EA0068300724000000000000
B0544383206965S11657770EA0068200723000000000000
B0544423206946S11657719EA0067900720000000000000
B0544463206929S11657666EA0067600715000000000000
B0544503206908S11657611EA0067000709000000000000
B0544543206879S11657562EA0066500703000000000000
B0544583206844S11657516EA0066000698000000000000
B0545023206805S11657472EA0065400693000000000000
B0545063206771S11657425EA0065000690000000000000
B0545103206745S11657376EA0064700686000000000000
B0545143206730S11657321EA0064200681000000000000
B0545183206723S11657265EA0063500675000000000000
B0545223206723S11657208EA0063100669000000000000
B0545263206727S11657148EA0062400662000000000000
B0545303206732S11657085EA0061800657000000000000
B0545343206722S11657021EA0061600654000000000000
B0545383206696S11656964EA0061000647000000000000
B0545423206671S11656903EA0060600643000000000000
B0545463206657S11656840EA0060300641000000000000
B0545503206645S11656778EA0059700635000000000000
B0545543206632S11656713EA0059200627000000000000
B0545583206623S11656645EA0058700623000000000000
B0546023206626S11656578EA0058500624000000000000
B0546063206631S11656511EA0058500623000000000000
B0546103206614S11656449EA0058200619000000000000
B0546143206563S11656423EA0058000621000000000000
B0546183206519S11656461EA0058200620000000000000
B0546223206522S11656529EA0058100620000000000000
B0546263206567S11656570EA0057900617000000000000
B0546303206623S11656561EA0057300608000000000000
B0546343206666S11656518EA0056700604000000000000
B0546383206683S11656454EA0056500601000000000000
B0546423206673S11656390EA0055900594000000000000
B0546463206639S11656334EA0055300587000000000000
B0546503206589S11656293EA0054700582000000000000
B0546543206535S11656301EA0055100590000000000000
B0546583206530S11656364EA0055500592000000000000
B0547023206578S11656397EA0055500591000000000000
B0547063206618S11656359EA0055200586000000015000
B0547103206604S11656302EA0054900583000000015000
B0547143206552S11656295EA0054700579000000015000
B0547183206520S11656350EA0054700584000000015000
B0547223206552S11656407EA0054800581000000015000
B0547263206610S11656398EA0054500577000000015000
B0547303206628S11656336EA0054100574000000015000
B0547343206593S11656290EA0054100577000000015000
B0547383206545S11656312EA0054200573000000015000
B0547423206535S11656383EA0053700571000000015000
B0547463206580S11656419EA0054100577000000015000
B0547503206613S11656372EA0054000570000000015000
B0547543206579S11656325EA0053600575000000015000
B0547583206532S11656354EA0054000573000000015000
B0548023206539S11656424EA0053500569000000015000
B0548063206593S11656446EA0053700574000000015000
B0548103206631S11656406EA0053600570000000015000
B0548143206623S11656342EA0053100563000000015000
B0548183206582S11656299EA0052800564000000015000
B0548223206528S11656314EA0053100566000000015000
B0548263206501S11656373EA0052800561000000015000
B0548303206531S11656432EA0052700563000000015000
B0548343206584S11656435EA0052700562000000015000
B0548383206621S11656389EA0052800562000000015000
B0548423206605S11656334EA0052400555000000015000
B0548463206552S11656342EA0052000555000000015000
B0548503206528S11656403EA0052000555000000015000
B0548543206558S11656462EA0051700551000000015000
B0548583206617S11656485EA0051300547000000015000
B0549023206680S11656487EA0050800543000000015000
B0549063206745S11656480EA0050200538000000015000
B0549103206814S11656476EA0049500530000000015000
B0549143206883S11656476EA0049100527000000015000
B0549183206947S11656483EA0049300528000000015000
B0549223207008S11656490EA0049300528000000000000
B0549263207066S11656502EA0049100524000000000000
B0549303207126S11656511EA0048400516000000000000
B0549343207187S11656519EA0047700509000000000000
B0549383207250S11656522EA0047300505000000000000
B0549423207312S11656519EA0046900497000000000000
B0549463207376S11656515EA0046100489000000000000
B0549503207441S11656513EA0045300485000000000000
B0549543207502S11656514EA0045300487000000000000
B0549583207563S11656523EA0045200486000000000000
B0550023207623S11656550EA0045000481000000000000
B0550063207672S11656602EA0044500476000000000000
B0550103207705S11656669EA0044000470000000000000
B0550143207718S11656747EA0042800455000000000000
B0550183207707S11656831EA0041800444000000000000
B0550223207681S11656910EA0040900440000000000000
B0550263207651S11656987EA0040500436000000000000
B0550303207620S11657059EA0040400434000000000000
B0550343207585S11657127EA0040000433000000000000
B0550383207551S11657194EA0039800428000000000000
B0550423207515S11657257EA0039200423000000000000
B0550463207479S11657321EA0038600417000000000000
B0550503207440S11657382EA0038100411000000000000
B0550543207389S11657428EA0037500402000000000000
B0550583207326S11657438EA0036700396000000000000
B0551023207268S11657415EA0036500399000000000000
B0551063207215S11657386EA0036700397000000000000
B0551103207161S11657359EA0036100392000000000000
B0551143207105S11657335EA0035600386000000000000
B0551183207048S11657316EA0035200383000000000000
B0551223206992S11657298EA0034800382000000000000
B0551263206936S11657278EA0034800381000000000000
B0551303206882S11657256EA0034400373000000000000
B0551343206829S11657231EA0033700366000000000000
B0551383206775S11657204EA0033000360000000000000
B0551423206726S11657174EA0032800360000000000000
B0551463206678S11657142EA0032600357000000000000
B0551503206631S11657107EA0032400355000000000000
B0551543206587S11657068EA0032400355000000000000
B0551583206548S11657023EA0032200352000000000000
B0552023206520S11656968EA0031800347000000000000
B0552063206502S11656904EA0031300344000000000000
B0552103206487S11656840EA0031000339000000000000
B0552143206474S11656776EA0030200330000000000000
B0552183206470S11656709EA0029300321000000000000
B0552223206483S11656644EA0028600316000000000000
B0552263206509S11656584EA0028100309000000000000
B0552303206546S11656527EA0027600304000000000000
B0552343206600S11656490EA0027400306000000000000
B0552383206665S11656488EA0027700308000000000000
B0552423206725S11656513EA0027900309000000000000
B0552463206780S11656544EA0027000298000000000000
B0552503206834S11656576EA0025800283000000000000
B0552543206888S11656611EA0024200268000000000000
B0552583206943S11656644EA0022600253000000000000
B0553023207000S11656676EA0021100237000000000000
B0553063207056S11656710EA0019700222000000000000
B0553103207112S11656744EA0018600210000000000000
B0553143207165S11656776EA0017900205000000000000
B0553183207212S11656804EA0017800204000000000000
B0553223207252S11656826EA0017700204000000000000
B0553263207286S11656844EA0017600204000000000000
B0553303207312S11656858EA0017600203000000000000
B0553343207328S11656867EA0017600202000000015000
B0553383207336S11656873EA0017600201000000000000
B0553423207337S11656873EA0017700201000000000000
B0553463207337S11656873EA0017600201000000000000
B0553503207337S11656873EA0017600200000000000000
B0553543207337S11656873EA0017600200000000000000
B0553583207337S11656873EA0017600200000000000000
B0554023207336S11656873EA0017600199000000000000
G00030000000714A5E30000000000000000000000000000000000000000000000
G7F6FC65A4F105CF6F2387408ACBAFF60D4C44514000000002302A7BF0301F8D9
G441E85640CFE7E9FB76038FC878FC459A569E7A10000000000000000E7A72DF3
