ACAM4N6
HFDTE030218
HFFXA050
HFPLTPILOT:JOHN WELSH              
HFGTYGLIDERTYPE:HORNET      
HFGIDGLIDERID:VH-GMY      
HFDTM100GPSDATUM:
HFRFWFIRMWAREVERSION:F2.6
HFRHWHARDWAREVERSION:300 Series Version 2
HFFTYFRTYPE:CAMBRIDGE AERO INSTRUMENTS, 302+
HFGPS:GARMIN,LVS-25,12,18000
HFPRSPRESSALTSENSOR:INTERSEMA, MS5534-AP, 20000
I033638FXA3941ENL4247REX
LCAMSBVER:5FWVER:F26300
C030218030159030218000102
C0000000N00000000WTAKEOFF     
C3207549S11656849EBEVAIR      
C3023499S11640799EPITHARA     
C3111516S11805815ENUNGARIN    
C3207549S11656849EBEVAIR      
C0000000N00000000WLANDING     
B0331263207732S11657098EA0026100205000000000000
B0331283207732S11657098EA0026100205000000000000
B0331303207732S11657098EA0026100205000000000000
B0331323207732S11657098EA0026100205000000000000
B0331343207732S11657098EA0026000205000000000000
B0331363207732S11657098EA0026100205000000000000
B0331383207732S11657098EA0026100205000000000000
B0331403207732S11657098EA0026200205000000000000
B0331423207732S11657098EA0026100205000000000000
B0331443207732S11657098EA0026100205000000000000
B0331463207732S11657098EA0026100205000000000000
B0331483207732S11657098EA0026100205000000000000
B0331503207732S11657098EA0026200205000000000000
B0331523207732S11657098EA0026100205000000000000
B0331543207731S11657098EA0026100205000000000000
B0331573207724S11657095EA0026100205000000000000
B0332013207700S11657085EA0026000205000000000000
B0332053207662S11657065EA0026100206000000000000
B0332093207611S11657035EA0026000207000000000000
B0332133207551S11657001EA0026100209000000000000
B0332173207486S11656964EA0026400215000000000000
B0332213207419S11656927EA0026600220000000000000
B0332253207355S11656892EA0028300237000000000000
B0332293207294S11656857EA0029900254000000000000
B0332333207233S11656823EA0031300272000000000000
B0332373207174S11656779EA0032600283000000000000
B0332413207124S11656714EA0033800297000000000000
B0332453207089S11656637EA0035500318000000000000
B0332493207063S11656554EA0037200332000000000000
B0332533207050S11656468EA0038000342000000000000
B0332573207053S11656381EA0039600354000000000000
B0333013207060S11656292EA0040500363000000000000
B0333053207068S11656201EA0041300372000000000000
B0333093207083S11656111EA0042800390000000000000
B0333133207113S11656020EA0044000397000000000000
B0333173207157S11655934EA0044600409000000000000
B0333213207222S11655870EA0046300428000000000000
B0333253207300S11655830EA0048400448000000000000
B0333293207385S11655807EA0049500456000000000000
B0333333207472S11655801EA0050400465000000000000
B0333373207557S11655814EA0051900480000000000000
B0333413207637S11655843EA0054200504000000000000
B0333453207716S11655883EA0056000523000000000000
B0333493207780S11655950EA0058400552000000000000
B0333533207823S11656034EA0061300578000000000000
B0333573207845S11656124EA0063300601000000000000
B0334013207849S11656212EA0065400622000000000000
B0334053207836S11656297EA0067200640000000000000
B0334093207813S11656376EA0068600661000000000000
B0334133207779S11656448EA0070200673000000000000
B0334173207746S11656516EA0071200685000000000000
B0334213207714S11656585EA0072400697000000000000
B0334253207677S11656652EA0073400707000000000000
B0334293207635S11656713EA0074400717000000000000
B0334333207586S11656770EA0075500729000000000000
B0334373207532S11656818EA0076700742000000000000
B0334413207473S11656858EA0078000755000000000000
B0334453207411S11656895EA0079300772000000000000
B0334493207350S11656934EA0080700782000000000000
B0334533207291S11656975EA0081300792000000000000
B0334573207234S11657017EA0082400801000000000000
B0335013207174S11657052EA0083200811000000000000
B0335053207113S11657082EA0084000816000000000000
B0335093207052S11657112EA0084700825000000000000
B0335133206988S11657139EA0085600833000000000000
B0335173206922S11657159EA0086100841000000000000
B0335213206860S11657187EA0086200838000000000000
B0335253206822S11657247EA0086200844000000000000
B0335293206804S11657313EA0087000849000000000000
B0335333206793S11657381EA0087400854000000000000
B0335373206767S11657436EA0088400862000000000000
B0335413206732S11657478EA0088400860000000000000
B0335453206691S11657511EA0087800856000000000000
B0335493206645S11657541EA0087300850000000000000
B0335533206597S11657571EA0087400853000000000000
B0335573206549S11657595EA0087400854000000000000
B0336013206501S11657621EA0087500848000000000000
B0336053206448S11657650EA0086400839000000000000
B0336093206392S11657679EA0086100840000000000000
B0336133206341S11657709EA0086600843000000000000
B0336173206289S11657737EA0086600843000000000000
B0336213206236S11657758EA0086600844000000000000
B0336253206182S11657772EA0086600843000000000000
B0336293206127S11657783EA0086300839000000000000
B0336333206069S11657796EA0085700831000000000000
B0336373206012S11657809EA0085300827000000000000
B0336413205955S11657823EA0085600833000000000000
B0336453205903S11657852EA0086900848000000000000
B0336493205898S11657911EA0088100861000000000000
B0336533205951S11657948EA0088000859000000000000
B0336573206015S11657914EA0089000875000000000000
B0337013206036S11657846EA0090500889000000000000
B0337053206020S11657784EA0091500894000000000000
B0337093205974S11657761EA0092300904000000000000
B0337133205932S11657788EA0092500901000000000000
B0337173205917S11657853EA0091900893000000000000
B0337213205930S11657928EA0091000886000000000000
B0337253205961S11657998EA0091400895000000000000
B0337293206007S11658048EA0093200910000000000000
B0337333206063S11658022EA0093500911000000000000
B0337373206065S11657954EA0094600932000000000000
B0337413206026S11657928EA0097000959000000000000
B0337453205989S11657957EA0098600967000000000000
B0337493205978S11658021EA0098700967000000000000
B0337533206011S11658082EA0100000982000000000000
B0337573206069S11658099EA0100800986000000000000
B0338013206124S11658073EA0100700985000000000000
B0338053206154S11658015EA0101100993000000000000
B0338093206138S11657956EA0102001006000000000000
B0338133206094S11657972EA0103301016000000000000
B0338173206112S11658036EA0104001026000000000000
B0338213206169S11658040EA0105401039000000000000
B0338253206198S11657983EA0106101045000000000000
B0338293206180S11657922EA0107101057000000000000
B0338333206132S11657909EA0108501070000000000000
B0338373206102S11657949EA0109701078000000000000
B0338413206114S11658014EA0109801079000000000000
B0338453206166S11658043EA0111101096000000000000
B0338493206215S11658018EA0112101104000000000000
B0338533206237S11657957EA0112401110000000000000
B0338573206212S11657905EA0113601123000000000000
B0339013206167S11657910EA0114601130000000000000
B0339053206143S11657963EA0114501128000000000000
B0339093206156S11658030EA0114801135000000000000
B0339133206203S11658073EA0115801144000000000000
B0339173206262S11658067EA0116501151000000000000
B0339213206292S11658010EA0117801166000000000000
B0339253206263S11657965EA0118701172000000000000
B0339293206215S11657983EA0119501182000000000000
B0339333206202S11658043EA0120601196000000000000
B0339373206234S11658097EA0121601204000000000000
B0339413206297S11658112EA0122001206000000000000
B0339453206350S11658071EA0122601213000000000000
B0339493206366S11658005EA0123501227000000000000
B0339533206338S11657952EA0124801237000000000000
B0339573206292S11657953EA0125501241000000000000
B0340013206276S11658013EA0125701246000000000000
B0340053206310S11658071EA0126601254000000000000
B0340093206372S11658084EA0127001258000000000000
B0340133206418S11658034EA0127701268000000000000
B0340173206392S11657982EA0129001278000000000000
B0340213206348S11658011EA0129001281000000000000
B0340253206370S11658075EA0130201293000000000000
B0340293206433S11658079EA0131001299000000000000
B0340333206468S11658022EA0131601306000000000000
B0340373206454S11657957EA0132801317000000000000
B0340413206407S11657940EA0133301321000000000000
B0340453206374S11657976EA0133401320000000000000
B0340493206390S11658043EA0133101319000000000000
B0340533206449S11658084EA0133901329000000000000
B0340573206515S11658073EA0134801336000000000000
B0341013206550S11658008EA0135401344000000000000
B0341053206518S11657961EA0136301356000000000000
B0341093206475S11657987EA0136701354000000000000
B0341133206478S11658057EA0137101365000000000000
B0341173206527S11658108EA0138701379000000000000
B0341213206593S11658106EA0139501386000000000000
B0341253206635S11658048EA0139601387000000000000
B0341293206627S11657970EA0140301396000000000000
B0341333206587S11657927EA0141001400000000000000
B0341373206541S11657953EA0140901399000000000000
B0341413206528S11658015EA0141401406000000000000
B0341453206554S11658073EA0142501422000000000000
B0341493206615S11658097EA0143001422000000000000
B0341533206680S11658073EA0143001426000000000000
B0341573206700S11658004EA0144501446000000000000
B0342013206654S11657978EA0145601454000000000000
B0342053206628S11658026EA0147001472000000000000
B0342093206657S11658078EA0148101477000000000000
B0342133206722S11658083EA0147401469000000000000
B0342173206769S11658026EA0147801476000000000000
B0342213206771S11657956EA0149201493000000000000
B0342253206734S11657922EA0149601492000000000000
B0342293206691S11657946EA0148801482000000000000
B0342333206670S11658010EA0148901489000000000000
B0342373206696S11658069EA0150201500000000000000
B0342413206756S11658076EA0150401496000000000000
B0342453206818S11658041EA0149901499000000000000
B0342493206875S11657995EA0150501505000000000000
B0342533206930S11657943EA0151001514000000000000
B0342573206979S11657887EA0151701517000000000000
B0343013207027S11657829EA0151901518000000000000
B0343053207077S11657772EA0151501512000000000000
B0343093207130S11657715EA0151101509000000000000
B0343133207186S11657667EA0150701503000000000000
B0343173207245S11657624EA0150101497000000000000
B0343213207306S11657586EA0149901496000000000000
B0343253207368S11657555EA0149601493000000000000
B0343293207429S11657527EA0149301491000000000000
B0343333207490S11657495EA0149501494000000000000
B0343373207551S11657465EA0149801495000000000000
B0343413207611S11657436EA0149601493000000000000
B0343453207667S11657395EA0149101487000000000000
B0343493207702S11657333EA0148701485000000000000
B0343533207713S11657261EA0148601478000000000000
B0343573207705S11657191EA0147501470000000000000
B0344013207689S11657122EA0146801464000000000000
B0344053207671S11657057EA0146401463000000000000
B0344093207650S11656997EA0146101458000000000000
B0344133207624S11656940EA0145701451000000000000
B0344173207577S11656909EA0144301439000000000000
B0344213207520S11656897EA0143201429000000000000
B0344253207460S11656888EA0142601422000000000000
B0344293207401S11656879EA0141901414000000000000
B0344333207338S11656870EA0141301412000000000000
B0344373207274S11656858EA0141001408000000000000
B0344413207211S11656845EA0140301401000000000000
B0344453207146S11656831EA0139801394000000000000
B0344493207081S11656813EA0139101389000000000000
B0344533207016S11656796EA0138901387000000000000
B0344573206951S11656780EA0137901376000000000000
B0345013206883S11656762EA0137001365000000000000
B0345053206817S11656743EA0136601364000000000000
B0345093206752S11656722EA0136201357000000000000
B0345133206688S11656700EA0135601348000000000000
B0345173206623S11656676EA0134601340000000000000
B0345213206559S11656656EA0133801330000000000000
B0345253206493S11656635EA0133101323000000000000
B0345293206428S11656615EA0132001314000000000000
B0345333206362S11656597EA0131501308000000000000
B0345373206297S11656580EA0131001305000000000000
B0345413206234S11656565EA0130701302000000000000
B0345453206172S11656549EA0130501299000000000000
B0345493206111S11656532EA0130001292000000000000
B0345533206049S11656518EA0129001282000000000000
B0345573205987S11656502EA0128201274000000000000
B0346013205925S11656488EA0128201275000000000000
B0346053205864S11656472EA0127301264000000000000
B0346093205802S11656457EA0126501257000000000000
B0346133205740S11656438EA0126501258000000000000
B0346173205679S11656419EA0126201257000000000000
B0346213205618S11656398EA0126301253000000000000
B0346253205555S11656373EA0125701249000000000000
B0346293205492S11656349EA0126301261000000000000
B0346333205431S11656328EA0126601261000000000000
B0346373205366S11656315EA0127701276000000000000
B0346413205308S11656314EA0130001300000000000000
B0346453205252S11656320EA0130301297000000000000
B0346493205194S11656338EA0129501293000000000000
B0346533205140S11656362EA0129401288000000000000
B0346573205081S11656377EA0129401291000000000000
B0347013205022S11656385EA0129001281000000000000
B0347053204954S11656380EA0127701267000000000000
B0347093204885S11656363EA0127601270000000000000
B0347133204817S11656340EA0127801274000000000000
B0347173204755S11656315EA0128301280000000000000
B0347213204691S11656289EA0127301265000000000000
B0347253204625S11656266EA0126601255000000000000
B0347293204561S11656229EA0126901270000000000000
B0347333204503S11656194EA0128701290000000000000
B0347373204450S11656164EA0131001312000000000000
B0347413204400S11656176EA0132201318000000000000
B0347453204347S11656181EA0130601291000000000000
B0347493204284S11656147EA0127701263000000000000
B0347533204221S11656103EA0126201254000000000000
B0347573204156S11656059EA0125301244000000000000
B0348013204091S11656016EA0124701241000000000000
B0348053204027S11655974EA0124401237000000000000
B0348093203963S11655934EA0123901232000000000000
B0348133203900S11655896EA0123101220000000000000
B0348173203835S11655857EA0122301211000000000000
B0348213203768S11655811EA0121301203000000000000
B0348253203702S11655765EA0120501192000000000000
B0348293203640S11655714EA0120701202000000000000
B0348333203579S11655677EA0122101219000000000000
B0348373203521S11655653EA0123501232000000000000
B0348413203464S11655643EA0124501241000000000000
B0348453203412S11655639EA0125601255000000000000
B0348493203365S11655638EA0126001253000000000000
B0348533203313S11655635EA0124701234000000000000
B0348573203252S11655616EA0122301208000000000000
B0349013203190S11655584EA0120801199000000000000
B0349053203129S11655553EA0119701184000000000000
B0349093203066S11655523EA0119201181000000000000
B0349133203007S11655500EA0119201187000000000000
B0349173202951S11655478EA0120101198000000000000
B0349213202896S11655465EA0121201210000000000000
B0349253202854S11655497EA0122601223000000000000
B0349293202869S11655560EA0123701231000000000000
B0349333202929S11655579EA0124001232000000000000
B0349373202982S11655541EA0124001235000000000000
B0349413203003S11655473EA0124601242000000000000
B0349453202995S11655406EA0125501252000000000000
B0349493202961S11655369EA0126101260000000000000
B0349533202912S11655366EA0126101258000000000000
B0349573202860S11655374EA0126401259000000000000
B0350013202813S11655398EA0127001269000000000000
B0350053202814S11655457EA0127801273000000000000
B0350093202870S11655482EA0127601269000000000000
B0350133202925S11655440EA0127401268000000000000
B0350173202938S11655372EA0127601269000000000000
B0350213202917S11655311EA0127001260000000000000
B0350253202870S11655261EA0126701258000000000000
B0350293202815S11655213EA0127101267000000000000
B0350333202757S11655167EA0127601271000000000000
B0350373202692S11655129EA0127701272000000000000
B0350413202622S11655094EA0127701271000000000000
B0350453202550S11655057EA0128301281000000000000
B0350493202481S11655019EA0128701281000000000000
B0350533202411S11654980EA0127701267000000000000
B0350573202342S11654940EA0126501257000000000000
B0351013202276S11654898EA0125501248000000000000
B0351053202210S11654856EA0124701240000000000000
B0351093202143S11654815EA0123801227000000000000
B0351133202074S11654774EA0122001212000000000000
B0351173202007S11654730EA0121201201000000000000
B0351213201939S11654687EA0120501197000000000000
B0351253201877S11654644EA0120301193000000000000
B0351293201813S11654598EA0119701188000000000000
B0351333201752S11654553EA0119201183000000000000
B0351373201690S11654509EA0118001167000000000000
B0351413201623S11654468EA0117001159000000000000
B0351453201560S11654427EA0117201163000000000000
B0351493201499S11654387EA0118201176000000000000
B0351533201440S11654349EA0119501194000000000000
B0351573201385S11654312EA0121001205000000000000
B0352013201328S11654280EA0120701198000000000000
B0352053201265S11654245EA0120201193000000000000
B0352093201201S11654208EA0119301182000000000000
B0352133201136S11654167EA0118101169000000000000
B0352173201068S11654132EA0117401164000000000000
B0352213200998S11654102EA0117501168000000000000
B0352253200930S11654074EA0117601168000000000000
B0352293200863S11654041EA0117301162000000000000
B0352333200799S11654009EA0117801173000000000000
B0352373200739S11653974EA0118201171000000000000
B0352413200678S11653939EA0118401181000000000000
B0352453200618S11653907EA0120001201000000000000
B0352493200563S11653900EA0122701230000000000000
B0352533200534S11653948EA0125001246000000000000
B0352573200561S11654009EA0124801239000000000000
B0353013200625S11654007EA0124901244000000000000
B0353053200664S11653946EA0125301244000000000000
B0353093200652S11653871EA0125201248000000000000
B0353133200618S11653802EA0126101257000000000000
B0353173200573S11653738EA0126601262000000000000
B0353213200513S11653684EA0126301255000000000000
B0353253200444S11653636EA0126501268000000000000
B0353293200375S11653595EA0127701281000000000000
B0353333200308S11653562EA0128301282000000015000
B0353373200234S11653523EA0126201252000000000000
B0353413200158S11653484EA0125001244000000000000
B0353453200088S11653447EA0125601252000000000000
B0353493200019S11653411EA0125701250000000000000
B0353533159950S11653374EA0125701252000000000000
B0353573159881S11653339EA0125901255000000000000
B0354013159814S11653304EA0126601265000000000000
B0354053159747S11653269EA0128401285000000000000
B0354093159692S11653235EA0130401310000000000000
B0354133159636S11653199EA0131201303000000000000
B0354173159576S11653155EA0130401307000000000000
B0354213159524S11653109EA0131601315000000000000
B0354253159472S11653060EA0131401312000000000000
B0354293159424S11653008EA0132401324000000000000
B0354333159378S11652957EA0134301349000000000000
B0354373159338S11652905EA0135001349000000000000
B0354413159295S11652856EA0134601342000000000000
B0354453159244S11652815EA0134101339000000000000
B0354493159192S11652780EA0133901337000000000000
B0354533159138S11652752EA0133601330000000000000
B0354573159079S11652746EA0133401334000000000000
B0355013159023S11652758EA0133501331000000000000
B0355053158961S11652774EA0132101310000000000000
B0355093158893S11652792EA0129901292000000000000
B0355133158821S11652811EA0128501279000000000000
B0355173158749S11652832EA0128001272000000000000
B0355213158675S11652854EA0126501256000000000000
B0355253158598S11652876EA0125101244000000000000
B0355293158519S11652900EA0124001230000000000000
B0355333158437S11652919EA0123301223000000000000
B0355373158354S11652939EA0122201206000000000000
B0355413158271S11652958EA0120901199000000000000
B0355453158189S11652980EA0120401194000000000000
B0355493158109S11653000EA0120201195000000000000
B0355533158033S11653018EA0119701185000000000000
B0355573157956S11653036EA0118701174000000000000
B0356013157878S11653055EA0117801167000000000000
B0356053157801S11653070EA0117401161000000000000
B0356093157726S11653087EA0117001153000000000000
B0356133157649S11653105EA0115701138000000000000
B0356173157574S11653123EA0114901134000000000000
B0356213157501S11653144EA0114401129000000000000
B0356253157432S11653175EA0114601134000000000000
B0356293157366S11653207EA0114801135000000000000
B0356333157301S11653238EA0114101125000000000000
B0356373157231S11653265EA0112701110000000000000
B0356413157158S11653286EA0111901102000000000000
B0356453157086S11653304EA0111901108000000000000
B0356493157019S11653318EA0112201108000000000000
B0356533156951S11653334EA0112001106000000000000
B0356573156885S11653350EA0113101124000000000000
B0357013156824S11653357EA0115101142000000000000
B0357053156763S11653357EA0116001152000000000000
B0357093156705S11653356EA0115801145000000000000
B0357133156643S11653360EA0114601130000000000000
B0357173156582S11653367EA0113801122000000000000
B0357213156521S11653378EA0113301119000000000000
B0357253156461S11653385EA0112901111000000000000
B0357293156399S11653386EA0113501128000000000000
B0357333156339S11653381EA0115101143000000000000
B0357373156280S11653377EA0115701146000000000000
B0357413156221S11653374EA0115101136000000000000
B0357453156158S11653377EA0114301127000000000000
B0357493156094S11653389EA0113501119000000000000
B0357533156031S11653404EA0113001120000000000000
B0357573155974S11653415EA0114501136000000000000
B0358013155924S11653435EA0116001152000000000000
B0358053155907S11653491EA0118301176000000000000
B0358093155957S11653529EA0120101192000000000000
B0358133156014S11653490EA0121101202000000000000
B0358173156016S11653416EA0122101214000000000000
B0358213155974S11653381EA0122501217000000000000
B0358253155936S11653415EA0123701234000000000000
B0358293155957S11653472EA0125301252000000000000
B0358333156018S11653477EA0127101272000000000000
B0358373156063S11653422EA0128701284000000000000
B0358413156055S11653354EA0129301291000000000000
B0358453156011S11653328EA0130101300000000000000
B0358493155974S11653365EA0130701309000000000000
B0358533155994S11653424EA0133101337000000000000
B0358573156053S11653430EA0135201355000000000000
B0359013156097S11653373EA0136701371000000000000
B0359053156089S11653304EA0137701378000000000000
B0359093156042S11653286EA0138901392000000000000
B0359133156011S11653328EA0139801401000000000000
B0359173156033S11653390EA0141301425000000000000
B0359213156092S11653390EA0143501445000000000000
B0359253156132S11653329EA0144501453000000000000
B0359293156126S11653255EA0145701466000000000000
B0359333156087S11653221EA0147501486000000000000
B0359373156046S11653243EA0148501490000000000000
B0359413156027S11653303EA0148701496000000000000
B0359453156054S11653364EA0150401516000000000000
B0359493156114S11653369EA0152501534000000000000
B0359533156148S11653307EA0153601545000000000000
B0359573156123S11653244EA0154901558000000000000
B0400013156072S11653248EA0155401565000000000000
B0400053156049S11653305EA0156701579000000000000
B0400093156078S11653365EA0157901591000000000000
B0400133156140S11653369EA0159301608000000000000
B0400173156180S11653312EA0160701619000000000000
B0400213156166S11653244EA0161901632000000000000
B0400253156115S11653231EA0162701637000000000000
B0400293156088S11653286EA0163101643000000000000
B0400333156115S11653351EA0164201652000000000000
B0400373156175S11653385EA0164701659000000000000
B0400413156245S11653361EA0165501671000000000000
B0400453156288S11653291EA0167101689000000000000
B0400493156271S11653222EA0168501702000000000000
B0400533156219S11653192EA0169101708000000000000
B0400573156158S11653201EA0168801700000000000000
B0401013156089S11653230EA0167701687000000000000
B0401053156014S11653266EA0165901665000000000000
B0401093155935S11653309EA0164401653000000000000
B0401133155854S11653352EA0163001638000000000000
B0401173155775S11653394EA0161901620000000000000
B0401213155695S11653437EA0160701615000000000000
B0401253155623S11653482EA0160901616000000000000
B0401293155552S11653526EA0160901616000000000000
B0401333155483S11653569EA0160501609000000000000
B0401373155416S11653615EA0160601615000000000000
B0401413155350S11653659EA0161701628000000000000
B0401453155287S11653703EA0163201644000000000000
B0401493155225S11653749EA0163701648000000000000
B0401533155158S11653796EA0163801647000000000000
B0401573155091S11653842EA0163701643000000000000
B0402013155022S11653893EA0162801635000000000000
B0402053154953S11653939EA0162401628000000000000
B0402093154878S11653980EA0160501601000000000000
B0402133154801S11654022EA0159201594000000000000
B0402173154722S11654061EA0158601585000000000000
B0402213154644S11654101EA0157901580000000000000
B0402253154563S11654143EA0156901573000000000000
B0402293154485S11654178EA0157401580000000000000
B0402333154408S11654209EA0158001590000000000000
B0402373154333S11654238EA0158201585000000000000
B0402413154256S11654269EA0157401579000000000000
B0402453154181S11654295EA0157701581000000000000
B0402493154108S11654317EA0157501578000000000000
B0402533154037S11654338EA0157401577000000000000
B0402573153970S11654357EA0158401588000000000000
B0403013153908S11654377EA0158701595000000000000
B0403053153848S11654390EA0159501608000000000000
B0403093153792S11654400EA0160301613000000000000
B0403133153734S11654409EA0159401591000000000000
B0403173153663S11654414EA0156001547000000000000
B0403213153578S11654423EA0153001526000000000000
B0403253153494S11654425EA0152401524000000000000
B0403293153414S11654425EA0151901518000000000000
B0403333153332S11654426EA0150701507000000000000
B0403373153250S11654430EA0149901498000000000000
B0403413153169S11654435EA0149501497000000000000
B0403453153089S11654440EA0148901489000000000000
B0403493153010S11654451EA0148201482000000000000
B0403533152930S11654461EA0147601475000000000000
B0403573152855S11654470EA0147901483000000000000
B0404013152782S11654477EA0148401483000000000000
B0404053152707S11654479EA0147401470000000000000
B0404093152630S11654487EA0146101456000000000000
B0404133152549S11654499EA0144801444000000000000
B0404173152469S11654508EA0144301441000000000000
B0404213152388S11654518EA0143601434000000000000
B0404253152309S11654531EA0142601421000000000000
B0404293152230S11654542EA0141701413000000000000
B0404333152150S11654550EA0140901401000000000000
B0404373152071S11654557EA0139701392000000000000
B0404413151992S11654564EA0138901384000000000000
B0404453151911S11654570EA0138301377000000000000
B0404493151832S11654576EA0137401368000000000000
B0404533151754S11654582EA0136701361000000000000
B0404573151676S11654589EA0136201354000000000000
B0405013151599S11654595EA0135401346000000000000
B0405053151521S11654602EA0134601338000000000000
B0405093151444S11654608EA0134101338000000000000
B0405133151373S11654615EA0134301335000000000000
B0405173151300S11654625EA0133401324000000000000
B0405213151226S11654637EA0132701321000000000000
B0405253151153S11654650EA0132201314000000000000
B0405293151082S11654664EA0131901313000000000000
B0405333151010S11654676EA0131501307000000000000
B0405373150939S11654685EA0131701310000000000000
B0405413150868S11654694EA0131901319000000000000
B0405453150800S11654703EA0132701329000000000000
B0405493150731S11654706EA0133201333000000000000
B0405533150660S11654709EA0133901345000000000000
B0405573150593S11654717EA0135201356000000000000
B0406013150527S11654725EA0136501370000000000000
B0406053150465S11654745EA0138301390000000000000
B0406093150447S11654803EA0140401409000000000000
B0406133150490S11654846EA0140601401000000000000
B0406173150554S11654825EA0139801395000000000000
B0406213150589S11654759EA0139801400000000000000
B0406253150598S11654685EA0141001414000000000000
B0406293150572S11654626EA0142401425000000000000
B0406333150520S11654621EA0142501424000000000000
B0406373150491S11654670EA0143201434000000000000
B0406413150515S11654729EA0143701436000000000000
B0406453150576S11654735EA0144201446000000000000
B0406493150624S11654686EA0145301456000000000000
B0406533150633S11654611EA0145601459000000000000
B0406573150615S11654534EA0145801457000000000000
B0407013150569S11654483EA0145301450000000000000
B0407053150507S11654468EA0144501446000000000000
B0407093150439S11654468EA0144101442000000000000
B0407133150364S11654469EA0142401420000000000000
B0407173150280S11654474EA0139501388000000000000
B0407213150189S11654475EA0137001367000000000000
B0407253150098S11654475EA0136201360000000000000
B0407293150007S11654473EA0135301346000000000000
B0407333149916S11654473EA0133801328000000000000
B0407373149827S11654472EA0132401316000000000000
B0407413149740S11654474EA0131801311000000000000
B0407453149659S11654477EA0131901317000000000000
B0407493149587S11654472EA0132801327000000000000
B0407533149520S11654459EA0134301347000000000000
B0407573149461S11654444EA0136201365000000000000
B0408013149403S11654440EA0137201372000000000000
B0408053149346S11654455EA0137901385000000000000
B0408093149319S11654509EA0140001405000000000000
B0408133149363S11654557EA0140901413000000000000
B0408173149428S11654542EA0141501420000000000000
B0408213149463S11654482EA0142101425000000000000
B0408253149458S11654420EA0143001434000000000000
B0408293149423S11654375EA0143401436000000000000
B0408333149375S11654355EA0143401441000000000000
B0408373149323S11654370EA0143401434000000000000
B0408413149262S11654371EA0142101419000000000000
B0408453149197S11654340EA0140801407000000000000
B0408493149134S11654291EA0140501404000000000000
B0408533149074S11654240EA0139301392000000000000
B0408573149012S11654186EA0138301379000000000000
B0409013148948S11654130EA0137801376000000000000
B0409053148887S11654072EA0137601375000000000000
B0409093148826S11654015EA0137201371000000000000
B0409133148765S11653959EA0136501361000000000000
B0409173148703S11653902EA0135101345000000000000
B0409213148638S11653842EA0134101332000000000000
B0409253148577S11653781EA0133301330000000000000
B0409293148517S11653721EA0133101330000000000000
B0409333148456S11653667EA0133601336000000000000
B0409373148396S11653616EA0133701332000000000000
B0409413148336S11653565EA0133201333000000000000
B0409453148279S11653524EA0134801349000000000000
B0409493148224S11653491EA0135601357000000000000
B0409533148168S11653463EA0136201361000000000000
B0409573148109S11653447EA0136001362000000000000
B0410013148047S11653446EA0136201362000000000000
B0410053147989S11653464EA0136201364000000000000
B0410093147932S11653486EA0136101358000000000000
B0410133147867S11653503EA0134701341000000000000
B0410173147794S11653507EA0132901323000000000000
B0410213147717S11653504EA0131801316000000000000
B0410253147643S11653498EA0131001306000000000000
B0410293147569S11653491EA0130101292000000000000
B0410333147494S11653485EA0128801282000000000000
B0410373147418S11653480EA0127701269000000000000
B0410413147344S11653472EA0126601260000000000000
B0410453147270S11653461EA0125501248000000000000
B0410493147196S11653452EA0124801242000000000000
B0410533147124S11653445EA0124401237000000000000
B0410573147052S11653438EA0123501231000000000000
B0411013146980S11653434EA0123301223000000000000
B0411053146907S11653426EA0122101211000000000000
B0411093146835S11653417EA0120901199000000000000
B0411133146760S11653406EA0119801186000000000000
B0411173146685S11653396EA0118401170000000000000
B0411213146608S11653387EA0117501162000000000000
B0411253146536S11653378EA0117801166000000000000
B0411293146465S11653373EA0117501160000000000000
B0411333146393S11653368EA0116101144000000000000
B0411373146318S11653364EA0115401141000000000000
B0411413146246S11653360EA0115001135000000000000
B0411453146174S11653354EA0114101124000000000000
B0411493146100S11653347EA0113001116000000000000
B0411533146027S11653339EA0112201108000000000000
B0411573145956S11653333EA0111901108000000000000
B0412013145887S11653330EA0112301115000000000000
B0412053145822S11653342EA0113001120000000000000
B0412093145761S11653357EA0114601138000000000000
B0412133145702S11653376EA0115501144000000000000
B0412173145642S11653396EA0115001135000000000000
B0412213145575S11653412EA0113701120000000000000
B0412253145503S11653422EA0112201109000000000000
B0412293145431S11653432EA0111401096000000000000
B0412333145358S11653438EA0110401086000000000000
B0412373145284S11653445EA0109301075000000000000
B0412413145208S11653448EA0108401066000000000000
B0412453145135S11653452EA0108301071000000000000
B0412493145063S11653452EA0107901058000000000000
B0412533144990S11653452EA0107401060000000000000
B0412573144922S11653456EA0107501060000000000000
B0413013144857S11653465EA0107601062000000000000
B0413053144795S11653489EA0107801064000000000000
B0413093144734S11653513EA0108601074000000000000
B0413133144677S11653536EA0110201090000000000000
B0413173144648S11653589EA0111401100000000000000
B0413213144687S11653638EA0111301092000000000000
B0413253144756S11653610EA0109701077000000000000
B0413293144788S11653528EA0109101078000000000000
B0413333144799S11653443EA0110101092000000000000
B0413373144764S11653389EA0112101116000000000000
B0413413144722S11653412EA0113501126000000000000
B0413453144738S11653474EA0114301135000000000000
B0413493144801S11653489EA0115701150000000000000
B0413533144849S11653438EA0116601157000000000000
B0413573144851S11653367EA0116801160000000000000
B0414013144807S11653324EA0117601170000000000000
B0414053144751S11653338EA0118301177000000000000
B0414093144738S11653403EA0119401190000000000000
B0414133144784S11653446EA0120801203000000000000
B0414173144848S11653425EA0121401214000000000000
B0414213144862S11653357EA0123101232000000000000
B0414253144825S11653316EA0124501244000000000000
B0414293144779S11653337EA0125201249000000000000
B0414333144781S11653400EA0126001259000000000000
B0414373144838S11653434EA0126401261000000000000
B0414413144907S11653407EA0127401275000000000000
B0414453144944S11653342EA0128901288000000000000
B0414493144939S11653268EA0129701297000000000000
B0414533144898S11653217EA0131001311000000000000
B0414573144848S11653230EA0131901327000000000000
B0415013144833S11653290EA0132601332000000000000
B0415053144869S11653344EA0133701345000000000000
B0415093144934S11653347EA0134601353000000000000
B0415133144973S11653292EA0136001369000000000000
B0415173144959S11653233EA0137601385000000000000
B0415213144914S11653216EA0138701395000000000000
B0415253144886S11653257EA0139201398000000000000
B0415293144911S11653315EA0139801403000000000000
B0415333144976S11653320EA0140301409000000000000
B0415373145024S11653269EA0141001422000000000000
B0415413145030S11653199EA0142501434000000000000
B0415453144994S11653159EA0143401441000000000000
B0415493144952S11653179EA0143701444000000000000
B0415533144953S11653244EA0144701453000000000000
B0415573145005S11653289EA0144801453000000000000
B0416013145074S11653266EA0145701464000000000000
B0416053145120S11653203EA0147101480000000000000
B0416093145116S11653135EA0148701494000000000000
B0416133145074S11653123EA0149501501000000000000
B0416173145059S11653175EA0149601501000000000000
B0416213145104S11653230EA0149501501000000000000
B0416253145176S11653218EA0150401514000000000000
B0416293145226S11653159EA0150901516000000000000
B0416333145254S11653079EA0151401524000000000000
B0416373145241S11653005EA0152401531000000000000
B0416413145193S11652962EA0151401513000000000000
B0416453145121S11652941EA0149001485000000000000
B0416493145042S11652932EA0147401475000000000000
B0416533144961S11652928EA0146501464000000000000
B0416573144882S11652936EA0145701462000000000000
B0417013144805S11652951EA0145601454000000000000
B0417053144726S11652966EA0144401441000000000000
B0417093144643S11652980EA0143501431000000000000
B0417133144556S11652988EA0142701430000000000000
B0417173144472S11652990EA0143201434000000000000
B0417213144392S11652992EA0143101435000000000000
B0417253144313S11652995EA0143901445000000000000
B0417293144229S11652995EA0144001445000000000000
B0417333144149S11652986EA0145201458000000000000
B0417373144066S11652974EA0144801446000000000000
B0417413143980S11652966EA0144701450000000000000
B0417453143894S11652961EA0144101440000000000000
B0417493143802S11652956EA0142601421000000000000
B0417533143709S11652945EA0141001410000000000000
B0417573143620S11652934EA0140401406000000000000
B0418013143534S11652922EA0140001406000000000000
B0418053143453S11652909EA0139801402000000000000
B0418093143373S11652891EA0138701387000000000000
B0418133143291S11652871EA0137401378000000000000
B0418173143210S11652852EA0136701370000000000000
B0418213143131S11652831EA0136301364000000000000
B0418253143055S11652806EA0136001359000000000000
B0418293142980S11652782EA0135101349000000000000
B0418333142906S11652748EA0134001340000000000000
B0418373142833S11652707EA0133201331000000000000
B0418413142762S11652665EA0132101317000000000000
B0418453142690S11652620EA0130901305000000000000
B0418493142619S11652576EA0129601289000000000000
B0418533142547S11652532EA0128501275000000000000
B0418573142476S11652488EA0127101260000000000000
B0419013142404S11652445EA0125901250000000000000
B0419053142333S11652402EA0124801237000000000000
B0419093142261S11652358EA0123301219000000000000
B0419133142190S11652310EA0122301212000000000000
B0419173142121S11652267EA0122101212000000000000
B0419213142053S11652225EA0121901207000000000000
B0419253141983S11652184EA0121001198000000000000
B0419293141909S11652155EA0121201206000000000000
B0419333141835S11652135EA0121901212000000000000
B0419373141766S11652115EA0123501234000000000000
B0419413141700S11652096EA0124801243000000000000
B0419453141629S11652089EA0125001245000000000000
B0419493141557S11652083EA0125001242000000000000
B0419533141482S11652085EA0124601242000000000000
B0419573141408S11652090EA0124501238000000000000
B0420013141336S11652095EA0124801246000000000000
B0420053141263S11652100EA0125501251000000000000
B0420093141190S11652109EA0125501249000000000000
B0420133141115S11652119EA0125801256000000000000
B0420173141040S11652137EA0126201259000000000000
B0420213140961S11652151EA0125401239000000000000
B0420253140878S11652167EA0123101218000000000000
B0420293140795S11652187EA0123101225000000000000
B0420333140712S11652202EA0122901219000000000000
B0420373140630S11652215EA0122801221000000000000
B0420413140553S11652230EA0122501216000000000000
B0420453140478S11652247EA0121201199000000000000
B0420493140401S11652267EA0119201175000000000000
B0420533140320S11652281EA0117301155000000000000
B0420573140238S11652295EA0116201151000000000000
B0421013140167S11652321EA0117301168000000000000
B0421053140106S11652351EA0117901170000000000000
B0421093140045S11652380EA0117801164000000000000
B0421133139982S11652411EA0117101158000000000000
B0421173139922S11652445EA0117801167000000000000
B0421213139870S11652477EA0118601178000000000000
B0421253139824S11652511EA0119201182000000000000
B0421293139778S11652549EA0119501186000000000000
B0421333139735S11652592EA0119801188000000000000
B0421373139691S11652632EA0120001189000000000000
B0421413139636S11652662EA0119401177000000000000
B0421453139573S11652674EA0118301170000000000000
B0421493139505S11652676EA0118201168000000000000
B0421533139434S11652666EA0117401158000000000000
B0421573139363S11652646EA0117301165000000000000
B0422013139297S11652626EA0117901172000000000000
B0422053139231S11652605EA0118401177000000000000
B0422093139166S11652580EA0119501192000000000000
B0422133139115S11652600EA0121601211000000000000
B0422173139129S11652662EA0122401217000000000000
B0422213139194S11652671EA0123101225000000000000
B0422253139243S11652619EA0123501229000000000000
B0422293139239S11652548EA0124001235000000000000
B0422333139197S11652498EA0125101245000000000000
B0422373139149S11652525EA0125901251000000000000
B0422413139172S11652589EA0126401259000000000000
B0422453139237S11652581EA0126701262000000000000
B0422493139263S11652510EA0127401279000000000000
B0422533139240S11652444EA0129301296000000000000
B0422573139187S11652429EA0129801296000000000000
B0423013139152S11652485EA0130101304000000000000
B0423053139178S11652549EA0131701319000000000000
B0423093139239S11652546EA0133101334000000000000
B0423133139263S11652485EA0133501333000000000000
B0423173139226S11652438EA0133601335000000000000
B0423213139174S11652460EA0133901340000000000000
B0423253139158S11652527EA0134601344000000000000
B0423293139209S11652568EA0135601357000000000000
B0423333139267S11652535EA0136601370000000000000
B0423373139276S11652466EA0137401379000000000000
B0423413139236S11652428EA0137901381000000000000
B0423453139189S11652454EA0138201384000000000000
B0423493139188S11652520EA0138801391000000000000
B0423533139236S11652566EA0139501399000000000000
B0423573139300S11652549EA0140701413000000000000
B0424013139328S11652483EA0141601425000000000000
B0424053139315S11652414EA0141901422000000000000
B0424093139266S11652360EA0140001401000000000000
B0424133139200S11652308EA0138901389000000015000
B0424173139126S11652264EA0139001387000000045000
B0424213139057S11652230EA0140001409000000000000
B0424253138990S11652199EA0141201412000000000000
B0424293138923S11652168EA0140901409000000000000
B0424333138850S11652143EA0139801392000000015000
B0424373138778S11652120EA0141201425000000000000
B0424413138717S11652103EA0143601443000000000000
B0424453138655S11652107EA0143601437000000000000
B0424493138587S11652106EA0143601441000000000000
B0424533138515S11652103EA0143601440000000000000
B0424573138463S11652146EA0146501478000000000000
B0425013138483S11652211EA0148901498000000000000
B0425053138546S11652225EA0150001510000000000000
B0425093138602S11652185EA0150301511000000000000
B0425133138603S11652112EA0151001526000000000000
B0425173138556S11652089EA0152701543000000000000
B0425213138520S11652137EA0153501546000000000000
B0425253138539S11652207EA0154501556000000000000
B0425293138604S11652223EA0155801571000000000000
B0425333138651S11652173EA0156601578000000000000
B0425373138642S11652103EA0157401587000000000000
B0425413138591S11652074EA0158501597000000000000
B0425453138534S11652100EA0158601593000000000000
B0425493138517S11652177EA0158501594000000000000
B0425533138554S11652247EA0159501608000000000000
B0425573138617S11652281EA0160501622000000000000
B0426013138685S11652268EA0161301627000000000000
B0426053138715S11652206EA0162001637000000000000
B0426093138694S11652142EA0162101630000000000000
B0426133138635S11652104EA0161401626000000000000
B0426173138564S11652082EA0161201620000000000000
B0426213138483S11652072EA0160001609000000000000
B0426253138395S11652070EA0159501608000000000000
B0426293138305S11652070EA0159801609000000000000
B0426333138214S11652070EA0157401577000000000000
B0426373138117S11652068EA0155301561000000000000
B0426413138015S11652064EA0153601541000000000000
B0426453137917S11652059EA0152301532000000000000
B0426493137818S11652051EA0151801522000000000000
B0426533137720S11652044EA0150201509000000000000
B0426573137628S11652035EA0149901510000000000000
B0427013137537S11652024EA0149301505000000000000
B0427053137447S11652013EA0148501493000000000000
B0427093137359S11652005EA0147501484000000000000
B0427133137272S11651996EA0146701475000000000000
B0427173137187S11651989EA0145701465000000000000
B0427213137103S11651979EA0144401450000000000000
B0427253137018S11651968EA0143501439000000000000
B0427293136935S11651951EA0142601430000000000000
B0427333136852S11651938EA0141501415000000000000
B0427373136770S11651926EA0140401407000000000000
B0427413136689S11651916EA0139701399000000000000
B0427453136610S11651907EA0138301387000000000000
B0427493136532S11651896EA0137301374000000000000
B0427533136454S11651886EA0136101365000000000000
B0427573136379S11651877EA0135601358000000000000
B0428013136302S11651870EA0134801347000000000000
B0428053136228S11651868EA0134601352000000000000
B0428093136152S11651864EA0134301343000000000000
B0428133136078S11651861EA0133501334000000000000
B0428173136002S11651857EA0132401320000000000000
B0428213135925S11651856EA0131201313000000000000
B0428253135850S11651853EA0130101297000000000000
B0428293135774S11651849EA0128901285000000000000
B0428333135697S11651846EA0128201281000000000000
B0428373135625S11651844EA0128001278000000000000
B0428413135549S11651843EA0127101264000000000000
B0428453135471S11651844EA0126001256000000000000
B0428493135391S11651842EA0124801241000000000000
B0428533135307S11651840EA0123501228000000000000
B0428573135223S11651839EA0121901212000000000000
B0429013135140S11651840EA0122201217000000000000
B0429053135062S11651835EA0123001226000000000000
B0429093134986S11651826EA0124101237000000000000
B0429133134910S11651816EA0124301235000000000000
B0429173134832S11651810EA0123401226000000000000
B0429213134751S11651813EA0122101212000000000000
B0429253134669S11651823EA0120901203000000000000
B0429293134590S11651838EA0120001190000000000000
B0429333134513S11651855EA0119301188000000000000
B0429373134439S11651869EA0118101169000000000000
B0429413134362S11651879EA0116401155000000000000
B0429453134291S11651890EA0116701160000000000000
B0429493134226S11651898EA0117501169000000000000
B0429533134171S11651900EA0118501178000000000000
B0429573134119S11651900EA0118801179000000000000
B0430013134066S11651904EA0118301176000000000000
B0430053134017S11651913EA0119201189000000000000
B0430093133975S11651937EA0119701192000000000000
B0430133133933S11651960EA0119901191000000000000
B0430173133887S11651968EA0119801192000000000000
B0430213133837S11651961EA0119801189000000000000
B0430253133786S11651943EA0119101178000000000000
B0430293133736S11651922EA0118401174000000000000
B0430333133689S11651886EA0118301170000000000000
B0430373133640S11651852EA0118201170000000000000
B0430413133586S11651825EA0118101169000000000000
B0430453133529S11651809EA0117201157000000000000
B0430493133472S11651797EA0116701155000000000000
B0430533133417S11651787EA0116901157000000000000
B0430573133361S11651786EA0116401151000000000000
B0431013133303S11651796EA0116701158000000000000
B0431053133266S11651844EA0117601162000000000000
B0431093133296S11651911EA0116401146000000000000
B0431133133369S11651922EA0115601145000000000000
B0431173133419S11651874EA0115601143000000000000
B0431213133417S11651808EA0115101137000000000000
B0431253133387S11651753EA0114501134000000000000
B0431293133344S11651709EA0115201146000000000000
B0431333133299S11651671EA0116101149000000000000
B0431373133248S11651643EA0115701139000000000000
B0431413133194S11651618EA0114001124000000000000
B0431453133135S11651596EA0113201117000000000000
B0431493133078S11651563EA0112501108000000000000
B0431533133021S11651517EA0112301110000000000000
B0431573132961S11651472EA0113601129000000000000
B0432013132908S11651474EA0116701163000000000000
B0432053132917S11651528EA0118901181000000000000
B0432093132980S11651536EA0119101181000000000000
B0432133133014S11651475EA0120501202000000000000
B0432173132980S11651426EA0122101217000000000000
B0432213132939S11651448EA0123901237000000000000
B0432253132941S11651504EA0124901247000000000000
B0432293132991S11651539EA0125501250000000000000
B0432333133052S11651515EA0126101259000000000000
B0432373133074S11651449EA0128001283000000000000
B0432413133039S11651401EA0130601310000000000000
B0432453132993S11651413EA0131901321000000000000
B0432493132986S11651470EA0133301335000000000000
B0432533133035S11651509EA0134101341000000000000
B0432573133095S11651484EA0135301357000000000000
B0433013133110S11651417EA0137401379000000000000
B0433053133073S11651371EA0138701396000000000000
B0433093133029S11651397EA0139901406000000000000
B0433133133044S11651457EA0141001418000000000000
B0433173133107S11651467EA0142101428000000000000
B0433213133146S11651407EA0143901453000000000000
B0433253133122S11651348EA0146201473000000000000
B0433293133074S11651354EA0147601486000000000000
B0433333133069S11651414EA0148701493000000000000
B0433373133126S11651439EA0149501501000000000000
B0433413133182S11651388EA0151001524000000000000
B0433453133178S11651320EA0153701555000000000000
B0433493133135S11651300EA0155601570000000000000
B0433533133105S11651344EA0156101577000000000000
B0433573133131S11651402EA0157301585000000000000
B0434013133195S11651401EA0158301597000000000000
B0434053133229S11651333EA0159901619000000000000
B0434093133207S11651270EA0161701635000000000000
B0434133133157S11651264EA0162701644000000000000
B0434173133138S11651322EA0163801656000000000000
B0434213133178S11651381EA0164801665000000000000
B0434253133248S11651391EA0166201679000000000000
B0434293133303S11651336EA0167801699000000000000
B0434333133302S11651264EA0169501717000000000000
B0434373133256S11651244EA0170801730000000000000
B0434413133225S11651289EA0171301734000000000000
B0434453133246S11651355EA0171801736000000000000
B0434493133315S11651376EA0172701752000000000000
B0434533133377S11651336EA0174601767000000000000
B0434573133400S11651262EA0175001771000000000000
B0435013133372S11651201EA0175701779000000000000
B0435053133317S11651160EA0174401755000000000000
B0435093133239S11651120EA0172601742000000000000
B0435133133153S11651085EA0173001748000000000000
B0435173133068S11651053EA0174301760000000000000
B0435213132982S11651024EA0174101755000000000000
B0435253132895S11651001EA0173001741000000000000
B0435293132806S11650980EA0173201754000000000000
B0435333132723S11650958EA0173401746000000000000
B0435373132635S11650937EA0171901732000000000000
B0435413132549S11650919EA0172001741000000000000
B0435453132468S11650899EA0172201738000000000000
B0435493132389S11650874EA0172001736000000000000
B0435533132314S11650848EA0171901736000000000000
B0435573132243S11650825EA0173101751000000000000
B0436013132180S11650808EA0174501765000000000000
B0436053132115S11650798EA0174501759000000000000
B0436093132046S11650780EA0173301742000000000000
B0436133131972S11650756EA0171901731000000000000
B0436173131899S11650735EA0171101722000000000000
B0436213131827S11650715EA0170301718000000000000
B0436253131758S11650689EA0170801725000000000000
B0436293131691S11650655EA0170201711000000000000
B0436333131627S11650618EA0170301716000000000000
B0436373131566S11650582EA0170101710000000000000
B0436413131502S11650551EA0169301703000000000000
B0436453131437S11650521EA0168201688000000000000
B0436493131366S11650509EA0166601668000000000000
B0436533131288S11650512EA0164701654000000000000
B0436573131210S11650525EA0163401641000000000000
B0437013131134S11650555EA0162301632000000000000
B0437053131063S11650591EA0161501622000000000000
B0437093130994S11650633EA0160101607000000000000
B0437133130926S11650679EA0160101611000000000000
B0437173130865S11650722EA0161201626000000000000
B0437213130808S11650763EA0161801631000000000000
B0437253130752S11650806EA0162201636000000000000
B0437293130703S11650854EA0162901646000000000000
B0437333130655S11650902EA0163801655000000000000
B0437373130600S11650937EA0163501640000000000000
B0437413130523S11650946EA0160701603000000000000
B0437453130432S11650936EA0159101598000000000000
B0437493130347S11650917EA0159801611000000000000
B0437533130266S11650897EA0161301624000000000000
B0437573130187S11650876EA0162101634000000000000
B0438013130110S11650858EA0162701638000000000000
B0438053130035S11650839EA0162101631000000000000
B0438093129959S11650817EA0161901631000000000000
B0438133129885S11650798EA0161801628000000000000
B0438173129810S11650780EA0161101614000000000000
B0438213129733S11650767EA0160001605000000000000
B0438253129658S11650761EA0159201600000000000000
B0438293129582S11650765EA0158101586000000000000
B0438333129503S11650781EA0157001577000000000000
B0438373129428S11650800EA0156701579000000000000
B0438413129357S11650822EA0157801596000000000000
B0438453129298S11650842EA0159001601000000000000
B0438493129233S11650861EA0156801566000000000000
B0438533129153S11650874EA0153801543000000000000
B0438573129070S11650885EA0153301539000000000000
B0439013128996S11650911EA0153701548000000000000
B0439053128926S11650942EA0153601544000000000000
B0439093128853S11650971EA0153101541000000000000
B0439133128781S11650997EA0153501547000000000000
B0439173128713S11651025EA0153801547000000000000
B0439213128640S11651049EA0152801528000000000000
B0439253128562S11651068EA0151501522000000000000
B0439293128484S11651082EA0151401521000000000000
B0439333128407S11651098EA0150501507000000000000
B0439373128328S11651111EA0149201495000000000000
B0439413128251S11651115EA0149801509000000000000
B0439453128180S11651121EA0150901520000000000000
B0439493128112S11651137EA0151201521000000000000
B0439533128044S11651147EA0151401522000000000000
B0439573127973S11651151EA0151001516000000000000
B0440013127897S11651153EA0150501511000000000000
B0440053127819S11651153EA0150201507000000000000
B0440093127741S11651157EA0150501514000000000000
B0440133127667S11651160EA0151101517000000000000
B0440173127595S11651160EA0151201520000000000000
B0440213127523S11651166EA0152001526000000000000
B0440253127455S11651188EA0153101544000000000000
B0440293127394S11651214EA0153601542000000000000
B0440333127333S11651248EA0152901537000000000000
B0440373127267S11651277EA0151501515000000000000
B0440413127189S11651292EA0149601499000000000000
B0440453127112S11651303EA0149901505000000000000
B0440493127033S11651323EA0148901491000000000000
B0440533126956S11651349EA0148301487000000000000
B0440573126881S11651376EA0147401475000000000000
B0441013126804S11651406EA0146501470000000000000
B0441053126729S11651430EA0146201464000000000000
B0441093126655S11651446EA0145301455000000000000
B0441133126582S11651467EA0144101442000000000000
B0441173126509S11651496EA0143301436000000000000
B0441213126441S11651524EA0143301435000000000000
B0441253126375S11651550EA0142801430000000000000
B0441293126310S11651583EA0141501412000000000000
B0441333126235S11651617EA0139301390000000000000
B0441373126159S11651644EA0139101391000000000000
B0441413126083S11651666EA0138401383000000000000
B0441453126005S11651690EA0137801376000000000000
B0441493125924S11651716EA0136701366000000000000
B0441533125841S11651730EA0136201361000000000000
B0441573125759S11651726EA0135901359000000000000
B0442013125681S11651708EA0135801355000000000000
B0442053125606S11651679EA0135101346000000000000
B0442093125533S11651648EA0134601342000000000000
B0442133125464S11651618EA0134301336000000000000
B0442173125395S11651588EA0133501329000000000000
B0442213125330S11651554EA0132801319000000000000
B0442253125266S11651521EA0132201313000000000000
B0442293125201S11651489EA0131201298000000000000
B0442333125138S11651457EA0130101292000000000000
B0442373125079S11651426EA0130301293000000000000
B0442413125021S11651402EA0130601301000000000000
B0442453124962S11651384EA0130701296000000000000
B0442493124902S11651383EA0130201292000000000000
B0442533124846S11651381EA0130501298000000000000
B0442573124792S11651376EA0130401295000000000000
B0443013124737S11651378EA0129601282000000000000
B0443053124677S11651391EA0128301270000000000000
B0443093124616S11651401EA0127001257000000000000
B0443133124551S11651392EA0126201248000000000000
B0443173124482S11651376EA0125301241000000000000
B0443213124411S11651370EA0125101241000000000000
B0443253124342S11651361EA0125301240000000000000
B0443293124270S11651352EA0124501231000000000000
B0443333124199S11651342EA0123901223000000000000
B0443373124125S11651331EA0123401223000000000000
B0443413124051S11651320EA0124101238000000000000
B0443453123983S11651314EA0126501260000000000000
B0443493123922S11651332EA0128601280000000000000
B0443533123921S11651402EA0130701302000000000000
B0443573123975S11651440EA0132001315000000000000
B0444013124033S11651415EA0132601318000000000000
B0444053124042S11651349EA0132901324000000000000
B0444093123999S11651316EA0134301341000000000000
B0444133123971S11651367EA0135801355000000000000
B0444173124007S11651419EA0136501361000000000000
B0444213124068S11651417EA0136701360000000000000
B0444253124105S11651357EA0136601361000000000000
B0444293124101S11651285EA0138201380000000000000
B0444333124057S11651246EA0139201387000000000000
B0444373124003S11651262EA0139101386000000000000
B0444413123974S11651327EA0139601397000000000000
B0444453124003S11651393EA0140701409000000000000
B0444493124064S11651404EA0141901418000000000000
B0444533124108S11651355EA0142301421000000000000
B0444573124092S11651284EA0142201420000000000000
B0445013124036S11651229EA0141201404000000000000
B0445053123961S11651190EA0139401384000000000000
B0445093123878S11651153EA0138901383000000000000
B0445133123793S11651123EA0140001395000000000000
B0445173123709S11651097EA0140301395000000000000
B0445213123627S11651073EA0141001405000000000000
B0445253123545S11651051EA0140501394000000000000
B0445293123461S11651033EA0140001396000000000000
B0445333123380S11651023EA0141101408000000000000
B0445373123303S11651016EA0141901413000000000000
B0445413123225S11651007EA0142101420000000000000
B0445453123150S11650986EA0143301435000000000000
B0445493123082S11650955EA0145201455000000000000
B0445533123020S11650925EA0146001461000000000000
B0445573122959S11650894EA0145801454000000000000
B0446013122899S11650854EA0144901442000000000000
B0446053122835S11650817EA0143601424000000000000
B0446093122768S11650783EA0141301400000000000000
B0446133122692S11650751EA0139101375000000000000
B0446173122612S11650726EA0137401364000000000000
B0446213122532S11650702EA0136501352000000000000
B0446253122450S11650679EA0135101336000000000000
B0446293122367S11650677EA0133201317000000000000
B0446333122280S11650685EA0131601296000000000000
B0446373122194S11650702EA0130301288000000000000
B0446413122115S11650733EA0130401297000000000000
B0446453122047S11650777EA0131201306000000000000
B0446493121990S11650834EA0130901296000000000000
B0446533121928S11650889EA0129601293000000000000
B0446573121865S11650929EA0130401301000000000000
B0447013121807S11650963EA0130701303000000000000
B0447053121751S11650994EA0130901303000000000000
B0447093121694S11651021EA0130801298000000000000
B0447133121634S11651043EA0130101293000000000000
B0447173121570S11651060EA0129801290000000000000
B0447213121504S11651068EA0129201283000000000000
B0447253121435S11651068EA0129101283000000000000
B0447293121369S11651071EA0129101285000000000000
B0447333121301S11651072EA0129101279000000000000
B0447373121228S11651072EA0127601261000000000000
B0447413121150S11651071EA0125601244000000000000
B0447453121070S11651063EA0124501228000000000000
B0447493120988S11651058EA0122901213000000000000
B0447533120903S11651059EA0121501199000000000000
B0447573120820S11651068EA0120701189000000000000
B0448013120740S11651080EA0119701181000000000000
B0448053120659S11651095EA0118601168000000000000
B0448093120578S11651106EA0117001150000000000000
B0448133120499S11651085EA0115501135000000000000
B0448173120429S11651037EA0115101134000000000000
B0448213120372S11650980EA0115601141000000000000
B0448253120320S11650920EA0116301149000000000000
B0448293120273S11650865EA0117601159000000000000
B0448333120220S11650834EA0118101164000000000000
B0448373120166S11650841EA0118901176000000000000
B0448413120116S11650858EA0119201178000000000000
B0448453120065S11650876EA0119601184000000000000
B0448493120012S11650882EA0119701181000000000000
B0448533119957S11650868EA0119501182000000000000
B0448573119905S11650830EA0119101171000000000000
B0449013119847S11650794EA0118101157000000000000
B0449053119780S11650774EA0116201135000000000000
B0449093119711S11650777EA0114201115000000000000
B0449133119641S11650787EA0112201096000000000000
B0449173119571S11650798EA0111001088000000000000
B0449213119503S11650807EA0110501082000000000000
B0449253119438S11650819EA0109701072000000000000
B0449293119371S11650825EA0108701060000000000000
B0449333119304S11650821EA0108601071000000000000
B0449373119245S11650807EA0109701075000000000000
B0449413119184S11650802EA0109101060000000000000
B0449453119120S11650813EA0107501048000000000000
B0449493119056S11650842EA0107001052000000000000
B0449533118998S11650848EA0108901077000000000000
B0449573118976S11650796EA0111401099000000000000
B0450013119004S11650739EA0112001099000000000000
B0450053119072S11650726EA0112401105000000000000
B0450093119124S11650777EA0113501119000000000000
B0450133119120S11650841EA0114901132000000000000
B0450173119077S11650855EA0115501141000000000000
B0450213119057S11650804EA0116401148000000000000
B0450253119094S11650746EA0117201159000000000000
B0450293119161S11650734EA0118501171000000000000
B0450333119215S11650782EA0119101172000000000000
B0450373119221S11650855EA0118601165000000000000
B0450413119184S11650902EA0117701154000000000000
B0450453119129S11650917EA0117101151000000000000
B0450493119078S11650949EA0118301165000000000000
B0450533119086S11651012EA0118701172000000000000
B0450573119147S11651032EA0118501163000000000000
B0451013119204S11650990EA0116901152000000000000
B0451053119213S11650919EA0116701149000000000000
B0451093119182S11650865EA0116701152000000000000
B0451133119134S11650830EA0117301165000000000000
B0451173119086S11650848EA0118701173000000000000
B0451213119102S11650915EA0119301178000000000000
B0451253119169S11650921EA0119401178000000000000
B0451293119206S11650859EA0120101190000000000000
B0451333119173S11650804EA0121901211000000000000
B0451373119126S11650830EA0123601229000000000000
B0451413119129S11650898EA0123801230000000000000
B0451453119187S11650934EA0123801227000000000000
B0451493119250S11650898EA0124101234000000000000
B0451533119275S11650826EA0125701252000000000000
B0451573119263S11650756EA0127101269000000000000
B0452013119219S11650713EA0128601285000000000000
B0452053119174S11650741EA0130301301000000000000
B0452093119184S11650806EA0131101302000000000000
B0452133119242S11650837EA0130801303000000000000
B0452173119295S11650796EA0132101325000000000000
B0452213119290S11650729EA0134301345000000000000
B0452253119245S11650692EA0135701355000000000000
B0452293119193S11650715EA0136601364000000000000
B0452333119172S11650780EA0136501362000000000000
B0452373119204S11650845EA0136901366000000000000
B0452413119272S11650850EA0137201368000000000000
B0452453119311S11650791EA0138801390000000000000
B0452493119302S11650720EA0140201403000000000000
B0452533119255S11650677EA0141401414000000000000
B0452573119210S11650707EA0141901417000000000000
B0453013119191S11650780EA0140701397000000000000
B0453053119141S11650830EA0139401392000000000000
B0453093119074S11650838EA0138801378000000000000
B0453133119000S11650830EA0136701353000000000000
B0453173118920S11650816EA0134301329000000000000
B0453213118835S11650800EA0132601311000000000000
B0453253118752S11650783EA0131701304000000000000
B0453293118670S11650767EA0131201301000000000000
B0453333118593S11650750EA0131101295000000000000
B0453373118514S11650730EA0129601281000000000000
B0453413118436S11650712EA0128801265000000000000
B0453453118357S11650691EA0127501258000000000000
B0453493118280S11650673EA0127201255000000000000
B0453533118205S11650656EA0126801250000000000000
B0453573118129S11650643EA0126301244000000000000
B0454013118054S11650629EA0125301231000000000000
B0454053117972S11650617EA0123301213000000000000
B0454093117890S11650607EA0122501207000000000000
B0454133117813S11650596EA0122801216000000000000
B0454173117742S11650588EA0123901230000000000000
B0454213117676S11650590EA0124601232000000000000
B0454253117611S11650594EA0124301227000000000000
B0454293117542S11650594EA0123701220000000000000
B0454333117469S11650592EA0123601220000000000000
B0454373117392S11650591EA0123801221000000000000
B0454413117319S11650601EA0125201242000000000000
B0454453117274S11650651EA0128001276000000000000
B0454493117271S11650717EA0130701303000000000000
B0454533117308S11650769EA0132601322000000000000
B0454573117369S11650778EA0133901335000000000000
B0455013117417S11650737EA0134801345000000000000
B0455053117417S11650676EA0135801357000000000000
B0455093117379S11650633EA0136501360000000000000
B0455133117325S11650631EA0137201371000000000000
B0455173117286S11650673EA0139101394000000000000
B0455213117297S11650733EA0141001414000000000000
B0455253117360S11650748EA0142601427000000000000
B0455293117406S11650699EA0143701442000000000000
B0455333117396S11650635EA0145701460000000000000
B0455373117348S11650618EA0146301467000000000000
B0455413117310S11650668EA0147401480000000000000
B0455453117339S11650731EA0149601508000000000000
B0455493117403S11650729EA0151601526000000000000
B0455533117436S11650666EA0153301545000000000000
B0455573117410S11650612EA0155101561000000000000
B0456013117358S11650614EA0156101568000000000000
B0456053117330S11650673EA0157401582000000000000
B0456093117366S11650731EA0159701606000000000000
B0456133117431S11650720EA0161201625000000000000
B0456173117458S11650653EA0162701640000000000000
B0456213117422S11650607EA0164301657000000000000
B0456253117374S11650633EA0165401668000000000000
B0456293117377S11650702EA0166901685000000000000
B0456333117442S11650721EA0168601701000000000000
B0456373117487S11650661EA0170301720000000000000
B0456413117469S11650592EA0172401740000000000000
B0456453117416S11650573EA0173301746000000000000
B0456493117367S11650616EA0174101758000000000000
B0456533117375S11650686EA0176401782000000000000
B0456573117435S11650689EA0178001795000000000000
B0457013117456S11650621EA0178801806000000000000
B0457053117418S11650574EA0180501822000000000000
B0457093117364S11650590EA0181001825000000000000
B0457133117352S11650661EA0181801840000000000000
B0457173117410S11650690EA0183901864000000000000
B0457213117453S11650640EA0185701878000000000000
B0457253117430S11650586EA0186701887000000000000
B0457293117377S11650596EA0187301892000000000000
B0457333117365S11650664EA0188301907000000000000
B0457373117416S11650703EA0190301926000000000000
B0457413117478S11650687EA0191301934000000000000
B0457453117516S11650629EA0192301949000000000000
B0457493117501S11650565EA0192901954000000000000
B0457533117443S11650533EA0192401941000000000000
B0457573117365S11650539EA0190601925000000000000
B0458013117278S11650552EA0189301910000000000000
B0458053117184S11650559EA0188501904000000000000
B0458093117088S11650561EA0187401881000000000000
B0458133116984S11650559EA0184801863000000000000
B0458173116884S11650547EA0184301859000000000000
B0458213116790S11650526EA0183601851000000000000
B0458253116701S11650503EA0183101846000000000000
B0458293116613S11650477EA0182101832000000000000
B0458333116529S11650452EA0181001820000000000000
B0458373116447S11650429EA0180001809000000000000
B0458413116366S11650405EA0178401794000000000000
B0458453116286S11650383EA0177601783000000000000
B0458493116205S11650361EA0176501767000000000000
B0458533116126S11650339EA0175001754000000000000
B0458573116047S11650319EA0174001745000000000000
B0459013115969S11650301EA0173001733000000000000
B0459053115889S11650284EA0171601720000000000000
B0459093115811S11650269EA0170701714000000000000
B0459133115736S11650253EA0170201706000000000000
B0459173115661S11650239EA0169101696000000000000
B0459213115585S11650223EA0168701690000000000000
B0459253115510S11650206EA0167801678000000000000
B0459293115432S11650187EA0166801669000000000000
B0459333115355S11650167EA0166201663000000000000
B0459373115280S11650149EA0165701659000000000000
B0459413115206S11650135EA0165301656000000000000
B0459453115131S11650122EA0164001642000000000000
B0459493115053S11650110EA0162801625000000000000
B0459533114973S11650098EA0161601614000000000000
B0459573114895S11650092EA0160701607000000000000
B0500013114821S11650091EA0160101601000000000000
B0500053114748S11650087EA0158901583000000000000
B0500093114670S11650080EA0157001565000000000000
B0500133114593S11650070EA0155901556000000000000
B0500173114515S11650055EA0154901545000000000000
B0500213114437S11650037EA0153901535000000000000
B0500253114359S11650015EA0152701523000000000000
B0500293114280S11649990EA0151801512000000000000
B0500333114201S11649966EA0150901503000000000000
B0500373114121S11649940EA0150301498000000000000
B0500413114047S11649916EA0150101499000000000000
B0500453113973S11649897EA0149201485000000000000
B0500493113900S11649872EA0148901484000000000000
B0500533113829S11649849EA0149101489000000000000
B0500573113759S11649827EA0149501492000000000000
B0501013113690S11649811EA0149301484000000000000
B0501053113616S11649795EA0148901482000000000000
B0501093113542S11649775EA0148901482000000000000
B0501133113465S11649754EA0148701487000000000000
B0501173113391S11649737EA0149601492000000000000
B0501213113321S11649719EA0150101501000000000000
B0501253113252S11649703EA0150001491000000000000
B0501293113179S11649691EA0149901505000000000000
B0501333113118S11649681EA0152701532000000000000
B0501373113062S11649669EA0153101527000000000000
B0501413113002S11649663EA0152501520000000000000
B0501453112940S11649658EA0152201517000000000000
B0501493112880S11649646EA0151501509000000000000
B0501533112819S11649641EA0151001504000000000000
B0501573112759S11649623EA0151001510000000000000
B0502013112710S11649587EA0152401525000000000000
B0502053112667S11649546EA0152901524000000000000
B0502093112624S11649503EA0153001531000000000000
B0502133112581S11649464EA0153701538000000000000
B0502173112543S11649413EA0154001543000000000000
B0502213112509S11649360EA0154501549000000000000
B0502253112476S11649305EA0155201559000000000000
B0502293112446S11649247EA0155601560000000000000
B0502333112409S11649187EA0156001560000000000000
B0502373112365S11649131EA0154701544000000000000
B0502413112309S11649079EA0152401516000000000000
B0502453112239S11649040EA0150801507000000000000
B0502493112166S11649014EA0150901507000000000000
B0502533112093S11648986EA0150501499000000000000
B0502573112019S11648962EA0149901494000000000000
B0503013111945S11648945EA0149401484000000000000
B0503053111868S11648935EA0148401475000000000000
B0503093111793S11648932EA0147301463000000000000
B0503133111719S11648932EA0146501456000000000000
B0503173111645S11648935EA0145601449000000000000
B0503213111572S11648941EA0145601451000000000000
B0503253111501S11648952EA0144701438000000000000
B0503293111423S11648956EA0143001424000000000000
B0503333111346S11648957EA0142301420000000000000
B0503373111268S11648960EA0141301403000000000000
B0503413111192S11648961EA0140801405000000000000
B0503453111120S11648963EA0140701400000000000000
B0503493111047S11648962EA0140701405000000000000
B0503533110979S11648958EA0141501414000000000000
B0503573110916S11648954EA0142101418000000000000
B0504013110853S11648953EA0142301421000000000000
B0504053110789S11648956EA0142601424000000000000
B0504093110728S11648960EA0143001426000000000000
B0504133110669S11648974EA0142401418000000000000
B0504173110604S11648986EA0142001414000000000000
B0504213110535S11648984EA0142301421000000000000
B0504253110485S11649025EA0143101432000000000000
B0504293110449S11649083EA0143001420000000000000
B0504333110389S11649121EA0140701392000000000000
B0504373110312S11649127EA0137801362000000000000
B0504413110232S11649109EA0135901346000000000000
B0504453110156S11649078EA0134701337000000000000
B0504493110085S11649040EA0133601323000000000000
B0504533110012S11649004EA0132701313000000000000
B0504573109939S11648967EA0132001308000000000000
B0505013109873S11648919EA0132401323000000000000
B0505053109850S11648844EA0135501360000000000000
B0505093109887S11648787EA0137801376000000000000
B0505133109950S11648772EA0137501360000000000000
B0505173110012S11648805EA0135601337000000000000
B0505213110046S11648876EA0133801321000000000000
B0505253110021S11648950EA0132101302000000000000
B0505293109956S11648987EA0131301299000000000000
B0505333109881S11648988EA0131101297000000000000
B0505373109805S11648963EA0130601294000000000000
B0505413109731S11648924EA0130101286000000000000
B0505453109653S11648883EA0129801282000000000000
B0505493109577S11648836EA0129701286000000000000
B0505533109504S11648789EA0130301286000000000000
B0505573109430S11648748EA0128701264000000000000
B0506013109357S11648706EA0128301273000000000000
B0506053109289S11648672EA0129401281000000000000
B0506093109226S11648637EA0130101293000000000000
B0506133109167S11648601EA0130901302000000000000
B0506173109111S11648562EA0130201289000000000000
B0506213109055S11648521EA0130201292000000000000
B0506253109007S11648469EA0130901302000000000000
B0506293108959S11648419EA0130901293000000000000
B0506333108906S11648369EA0129701284000000000000
B0506373108859S11648308EA0129601285000000000000
B0506413108816S11648243EA0129601282000000000000
B0506453108773S11648173EA0128801274000000000000
B0506493108724S11648104EA0128401273000000000000
B0506533108669S11648051EA0130201298000000000000
B0506573108620S11648077EA0132401316000000000000
B0507013108638S11648142EA0132301311000000000000
B0507053108706S11648152EA0132101314000000000000
B0507093108750S11648103EA0134001337000000000000
B0507133108720S11648051EA0135101345000000000000
B0507173108665S11648057EA0134901342000000000000
B0507213108646S11648122EA0135401347000000000000
B0507253108698S11648165EA0135401345000000000000
B0507293108761S11648137EA0135801357000000000000
B0507333108797S11648076EA0137301372000000000000
B0507373108776S11648009EA0138101380000000000000
B0507413108720S11648009EA0138501379000000000000
B0507453108707S11648073EA0138601380000000000000
B0507493108755S11648112EA0139301391000000000000
B0507533108811S11648082EA0140401404000000000000
B0507573108833S11648017EA0141701416000000000000
B0508013108807S11647955EA0142101416000000000000
B0508053108755S11647905EA0141101400000000000000
B0508093108693S11647856EA0139401380000000000000
B0508133108624S11647805EA0137501365000000000000
B0508173108555S11647756EA0137001359000000000000
B0508213108479S11647706EA0135601342000000000000
B0508253108400S11647656EA0134201328000000000000
B0508293108322S11647610EA0133101315000000000000
B0508333108243S11647566EA0131401298000000000000
B0508373108161S11647533EA0129801282000000000000
B0508413108078S11647514EA0129101269000000000000
B0508453107994S11647492EA0127201253000000000000
B0508493107911S11647467EA0126301244000000000000
B0508533107829S11647455EA0125501237000000000000
B0508573107749S11647462EA0124501225000000000000
B0509013107668S11647478EA0123201213000000000000
B0509053107589S11647493EA0122401205000000000000
B0509093107511S11647515EA0121301193000000000000
B0509133107434S11647536EA0120401184000000000000
B0509173107359S11647550EA0119301171000000000000
B0509213107285S11647562EA0118201157000000000000
B0509253107209S11647570EA0116801151000000000000
B0509293107139S11647578EA0116801152000000000000
B0509333107070S11647591EA0115301130000000000000
B0509373106997S11647601EA0113401111000000000000
B0509413106923S11647604EA0111901098000000000000
B0509453106849S11647605EA0111401097000000000000
B0509493106780S11647605EA0111601095000000000000
B0509533106715S11647610EA0110701079000000000000
B0509573106646S11647615EA0108901060000000000000
B0510013106577S11647621EA0107501052000000000000
B0510053106507S11647624EA0106401037000000000000
B0510093106440S11647632EA0105401026000000000000
B0510133106369S11647640EA0103701007000000000000
B0510173106297S11647649EA0102200994000000000000
B0510213106229S11647660EA0102401002000000000000
B0510253106169S11647671EA0103301014000000000000
B0510293106112S11647688EA0103201006000000000000
B0510333106061S11647723EA0102200995000000000000
B0510373106008S11647758EA0101200988000000000000
B0510413105947S11647765EA0101000984000000000000
B0510453105885S11647749EA0099800969000000000000
B0510493105821S11647727EA0098000952000000000000
B0510533105755S11647704EA0097000943000000000000
B0510573105688S11647676EA0097300947000000000000
B0511013105623S11647662EA0097000945000000000000
B0511053105560S11647662EA0096200925000000000000
B0511093105496S11647660EA0094400909000000000000
B0511133105433S11647650EA0093200898000000000000
B0511173105372S11647640EA0091800881000000000000
B0511213105306S11647626EA0089900861000000000000
B0511253105237S11647608EA0088600849000000000000
B0511293105171S11647589EA0088100844000000000000
B0511333105103S11647571EA0086800826000000000000
B0511373105037S11647550EA0085100808000000000000
B0511413104969S11647528EA0083400790000000000000
B0511453104902S11647502EA0082200783000000000000
B0511493104843S11647470EA0082400784000000000000
B0511533104786S11647440EA0082100779000000000000
B0511573104729S11647413EA0082400787000000000000
B0512013104668S11647401EA0082700787000000000000
B0512053104605S11647402EA0082200777000000000000
B0512093104543S11647397EA0081400771000000000000
B0512133104483S11647394EA0080700764000000000000
B0512173104423S11647401EA0079700753000000000000
B0512213104364S11647389EA0079300752000000000000
B0512253104315S11647355EA0079100749000000000000
B0512293104270S11647314EA0078400738000000000000
B0512333104222S11647275EA0076800724000000000000
B0512373104170S11647240EA0075100704000000000000
B0512413104113S11647210EA0073700689000000000000
B0512453104053S11647198EA0072600677000000000000
B0512493103994S11647208EA0071700669000000000000
B0512533103940S11647234EA0070400647000000000000
B0512573103877S11647255EA0068200630000000000000
B0513013103811S11647259EA0066900619000000000000
B0513053103745S11647253EA0066000609000000000000
B0513093103680S11647249EA0065700607000000000000
B0513133103620S11647270EA0065300603000000000000
B0513173103573S11647315EA0064700597000000000000
B0513213103534S11647376EA0063600587000000000000
B0513253103476S11647415EA0063000582000000000000
B0513293103415S11647394EA0063300591000000000000
B0513333103396S11647332EA0064600603000000000000
B0513373103429S11647281EA0064600600000000000000
B0513413103485S11647285EA0064000594000000000000
B0513453103520S11647338EA0063700590000000000000
B0513493103532S11647410EA0063200584000000000000
B0513533103508S11647475EA0062800582000000000000
B0513573103457S11647491EA0063500595000000000000
B0514013103439S11647436EA0064300596000000000000
B0514053103491S11647398EA0063900593000000000000
B0514093103545S11647436EA0063400587000000000000
B0514133103558S11647510EA0063000584000000000000
B0514173103520S11647565EA0062900581000000000000
B0514213103459S11647572EA0062600579000000000000
B0514253103437S11647513EA0063700596000000000000
B0514293103487S11647484EA0064800604000000000000
B0514333103512S11647536EA0065100607000000000000
B0514373103469S11647559EA0065000605000000000000
B0514413103452S11647498EA0065700613000000000000
B0514453103504S11647467EA0066500624000000000000
B0514493103537S11647515EA0067300629000000000000
B0514533103503S11647556EA0067200629000000000000
B0514573103461S11647523EA0068400644000000000000
B0515013103474S11647463EA0069800654000000000000
B0515053103529S11647459EA0070100654000000000000
B0515093103552S11647514EA0070700665000000000000
B0515133103520S11647552EA0070800662000000000000
B0515173103482S11647511EA0071400672000000000000
B0515213103516S11647457EA0072800685000000000000
B0515253103565S11647485EA0073200686000000000000
B0515293103555S11647543EA0073300691000000000000
B0515333103511S11647539EA0074500705000000000000
B0515373103504S11647483EA0075600715000000000000
B0515413103552S11647442EA0076100721000000000000
B0515453103603S11647471EA0076700729000000000000
B0515493103603S11647528EA0077400734000000000000
B0515533103561S11647544EA0077600736000000000000
B0515573103533S11647494EA0078100741000000000000
B0516013103568S11647439EA0078800749000000000000
B0516053103617S11647466EA0079400754000000000000
B0516093103610S11647526EA0080000759000000000000
B0516133103563S11647540EA0080400765000000000000
B0516173103528S11647497EA0081300775000000000000
B0516213103551S11647439EA0082800793000000000000
B0516253103606S11647450EA0083900801000000000000
B0516293103620S11647509EA0084100801000000000000
B0516333103584S11647550EA0084300804000000000000
B0516373103533S11647532EA0084600811000000000000
B0516413103542S11647468EA0086400834000000000000
B0516453103600S11647474EA0088400850000000000000
B0516493103616S11647537EA0089100858000000000000
B0516533103577S11647572EA0089800864000000000000
B0516573103530S11647543EA0090200866000000000000
B0517013103530S11647474EA0091000882000000000000
B0517053103582S11647439EA0093200901000000000000
B0517093103638S11647474EA0094700916000000000000
B0517133103638S11647536EA0096200932000000000000
B0517173103594S11647561EA0096600934000000000000
B0517213103552S11647522EA0096700932000000000000
B0517253103552S11647448EA0096900940000000000000
B0517293103607S11647413EA0098900964000000000000
B0517333103660S11647450EA0100500975000000000000
B0517373103656S11647518EA0101400988000000000000
B0517413103606S11647537EA0102200995000000000000
B0517453103573S11647483EA0102600998000000000000
B0517493103600S11647413EA0104001018000000000000
B0517533103663S11647407EA0106101040000000000000
B0517573103701S11647458EA0108301064000000000000
B0518013103685S11647515EA0109501074000000000000
B0518053103633S11647528EA0109801077000000000000
B0518093103603S11647474EA0110601087000000000000
B0518133103630S11647411EA0112201110000000000000
B0518173103691S11647406EA0114001126000000000000
B0518213103728S11647461EA0115901144000000000000
B0518253103706S11647520EA0117301159000000000000
B0518293103654S11647520EA0118601171000000000000
B0518333103632S11647461EA0119401174000000000000
B0518373103667S11647394EA0119901184000000000000
B0518413103734S11647406EA0122001206000000000000
B0518453103762S11647471EA0123601228000000000000
B0518493103734S11647526EA0125701248000000000000
B0518533103686S11647532EA0127201259000000000000
B0518573103651S11647489EA0127601262000000000000
B0519013103654S11647419EA0128001267000000000000
B0519053103694S11647355EA0128801279000000000000
B0519093103759S11647346EA0131301307000000000000
B0519133103803S11647394EA0133801329000000000000
B0519173103799S11647461EA0135401346000000000000
B0519213103753S11647492EA0136701363000000000000
B0519253103707S11647462EA0138101376000000000000
B0519293103704S11647400EA0139701388000000000000
B0519333103745S11647349EA0140201396000000000000
B0519373103814S11647349EA0141101406000000000000
B0519413103857S11647411EA0143101434000000000000
B0519453103837S11647476EA0145801457000000000000
B0519493103781S11647488EA0146901467000000000000
B0519533103741S11647439EA0148201480000000000000
B0519573103742S11647364EA0149101489000000000000
B0520013103789S11647310EA0150801508000000000000
B0520053103858S11647307EA0152201531000000000000
B0520093103910S11647353EA0154201549000000000000
B0520133103922S11647426EA0155401560000000000000
B0520173103888S11647489EA0156301567000000000000
B0520213103829S11647510EA0157401584000000000000
B0520253103784S11647468EA0159001597000000000000
B0520293103785S11647400EA0160601616000000000000
B0520333103837S11647367EA0163101639000000000000
B0520373103893S11647397EA0165101662000000000000
B0520413103914S11647462EA0166701681000000000000
B0520453103886S11647524EA0168001691000000000000
B0520493103831S11647546EA0168801699000000000000
B0520533103775S11647515EA0169001696000000000000
B0520573103727S11647455EA0168101676000000000000
B0521013103659S11647411EA0166001655000000000000
B0521053103576S11647385EA0162801621000000000000
B0521093103482S11647368EA0160401599000000000000
B0521133103387S11647354EA0158801584000000000000
B0521173103294S11647341EA0157301566000000000000
B0521213103200S11647327EA0156001556000000000000
B0521253103110S11647312EA0155301551000000000000
B0521293103026S11647301EA0155401552000000000000
B0521333102947S11647290EA0155401556000000000000
B0521373102872S11647276EA0155201556000000000000
B0521413102806S11647259EA0156501569000000000000
B0521453102742S11647240EA0157301581000000000000
B0521493102687S11647224EA0159701610000000000000
B0521533102633S11647210EA0161001619000000000000
B0521573102580S11647192EA0161501621000000000000
B0522013102532S11647145EA0162001629000000000000
B0522053102492S11647089EA0163801650000000000000
B0522093102445S11647068EA0166001671000000000000
B0522133102420S11647120EA0167401688000000000000
B0522173102454S11647176EA0168801700000000000000
B0522213102519S11647163EA0169501707000000000000
B0522253102541S11647095EA0170801723000000000000
B0522293102523S11647026EA0171801732000000000000
B0522333102545S11646954EA0171801733000000000000
B0522373102614S11646945EA0172601740000000000000
B0522413102661S11647000EA0172801742000000000000
B0522453102675S11647072EA0173701756000000000000
B0522493102662S11647134EA0174701764000000000000
B0522533102615S11647159EA0175601774000000000000
B0522573102579S11647114EA0176701785000000000000
B0523013102606S11647050EA0178301803000000000000
B0523053102674S11647052EA0179801815000000000000
B0523093102713S11647110EA0180601827000000000000
B0523133102705S11647172EA0181901836000000000000
B0523173102655S11647192EA0182801844000000000000
B0523213102606S11647153EA0183401849000000000000
B0523253102564S11647094EA0183901853000000000000
B0523293102521S11647028EA0184101860000000000000
B0523333102476S11646960EA0182901843000000000000
B0523373102424S11646887EA0180701825000000000000
B0523413102373S11646815EA0180501825000000000000
B0523453102326S11646746EA0180401824000000000000
B0523493102278S11646679EA0180201822000000000000
B0523533102228S11646623EA0180601827000000000000
B0523573102170S11646574EA0180901829000000000000
B0524013102111S11646529EA0181001827000000000000
B0524053102043S11646486EA0179201799000000000000
B0524093101966S11646447EA0178701809000000000000
B0524133101899S11646404EA0180601831000000000000
B0524173101842S11646357EA0180701824000000000000
B0524213101782S11646308EA0179301810000000000000
B0524253101718S11646254EA0177701790000000000000
B0524293101650S11646206EA0177401796000000000000
B0524333101588S11646155EA0177901797000000000000
B0524373101528S11646103EA0176701777000000000000
B0524413101470S11646051EA0176001777000000000000
B0524453101418S11645998EA0175701767000000000000
B0524493101349S11645953EA0172801729000000000000
B0524533101266S11645916EA0170501714000000000000
B0524573101184S11645889EA0170501713000000000000
B0525013101106S11645867EA0170301711000000000000
B0525053101029S11645850EA0169901708000000000000
B0525093100952S11645833EA0169101696000000000000
B0525133100874S11645815EA0168001687000000000000
B0525173100799S11645797EA0167401682000000000000
B0525213100724S11645776EA0166701672000000000000
B0525253100648S11645755EA0165701664000000000000
B0525293100570S11645734EA0164801653000000000000
B0525333100493S11645715EA0165801669000000000000
B0525373100421S11645699EA0167101683000000000000
B0525413100349S11645685EA0167001679000000000000
B0525453100275S11645673EA0166301668000000000000
B0525493100201S11645659EA0165501660000000000000
B0525533100127S11645646EA0164601653000000000000
B0525573100053S11645630EA0163501639000000000000
B0526013059977S11645616EA0162601635000000000000
B0526053059905S11645604EA0162301631000000000000
B0526093059834S11645596EA0162201629000000000000
B0526133059764S11645589EA0161401618000000000000
B0526173059695S11645573EA0161201618000000000000
B0526213059629S11645556EA0161201616000000000000
B0526253059561S11645542EA0160901613000000000000
B0526293059494S11645526EA0160301603000000000000
B0526333059425S11645509EA0159501598000000000000
B0526373059356S11645494EA0158601589000000000000
B0526413059290S11645477EA0158401589000000000000
B0526453059226S11645463EA0158001582000000000000
B0526493059160S11645452EA0157701581000000000000
B0526533059096S11645448EA0157601577000000000000
B0526573059031S11645447EA0156401561000000000000
B0527013058967S11645446EA0155901559000000000000
B0527053058907S11645453EA0155801556000000000000
B0527093058850S11645470EA0155201553000000000000
B0527133058793S11645486EA0155201552000000000000
B0527173058744S11645518EA0154701546000000000000
B0527213058698S11645564EA0153601533000000000000
B0527253058646S11645604EA0152401523000000000000
B0527293058586S11645634EA0151101508000000000000
B0527333058517S11645652EA0150501500000000000000
B0527373058445S11645660EA0149801497000000000000
B0527413058371S11645655EA0149301491000000000000
B0527453058296S11645642EA0149301498000000000000
B0527493058226S11645628EA0150201505000000000000
B0527533058159S11645615EA0150101501000000000000
B0527573058086S11645602EA0148901484000000000000
B0528013058014S11645583EA0149201496000000000000
B0528053057955S11645572EA0152001528000000000000
B0528093057931S11645619EA0154501549000000000000
B0528133057979S11645664EA0154401542000000000000
B0528173058051S11645643EA0154701551000000000000
B0528213058086S11645589EA0156001563000000000000
B0528253058081S11645528EA0156201564000000000000
B0528293058051S11645476EA0156401568000000000000
B0528333058007S11645443EA0156901577000000000000
B0528373057957S11645434EA0158101590000000000000
B0528413057913S11645447EA0159401603000000000000
B0528453057896S11645504EA0159901602000000000000
B0528493057874S11645563EA0158601587000000000000
B0528533057818S11645570EA0157801580000000000000
B0528573057757S11645555EA0156301562000000000000
B0529013057689S11645535EA0155101553000000000000
B0529053057620S11645518EA0154201543000000000000
B0529093057550S11645500EA0153001525000000000000
B0529133057479S11645483EA0151701511000000000000
B0529173057409S11645466EA0151101508000000000000
B0529213057340S11645452EA0150601506000000000000
B0529253057272S11645434EA0149301489000000000000
B0529293057204S11645417EA0147801475000000000000
B0529333057137S11645401EA0146201456000000000000
B0529373057068S11645387EA0144201436000000000000
B0529413056998S11645369EA0143001422000000000000
B0529453056930S11645352EA0141801410000000000000
B0529493056864S11645334EA0141201407000000000000
B0529533056798S11645317EA0140201391000000000000
B0529573056731S11645304EA0139001382000000000000
B0530013056662S11645294EA0138301375000000000000
B0530053056596S11645281EA0138701384000000000000
B0530093056534S11645265EA0139801397000000000000
B0530133056475S11645247EA0141101410000000000000
B0530173056417S11645225EA0141501410000000000000
B0530213056357S11645201EA0140801399000000000000
B0530253056294S11645190EA0140501401000000000000
B0530293056233S11645188EA0140401397000000000000
B0530333056168S11645193EA0139501384000000000000
B0530373056099S11645192EA0138401374000000000000
B0530413056031S11645186EA0138101376000000000000
B0530453055967S11645183EA0138601382000000000000
B0530493055902S11645179EA0138801384000000000000
B0530533055838S11645180EA0139001387000000000000
B0530573055778S11645191EA0139401387000000000000
B0531013055728S11645217EA0138901386000000000000
B0531053055674S11645236EA0139201387000000000000
B0531093055622S11645222EA0140101401000000000000
B0531133055617S11645160EA0141301415000000000000
B0531173055674S11645126EA0141801415000000000000
B0531213055733S11645169EA0142601424000000000000
B0531253055733S11645229EA0143601434000000000000
B0531293055689S11645251EA0143601431000000000000
B0531333055641S11645229EA0143701434000000000000
B0531373055643S11645158EA0144501441000000000000
B0531413055703S11645112EA0145501457000000000000
B0531453055759S11645061EA0147101473000000000000
B0531493055748S11644998EA0148601481000000000000
B0531533055698S11645002EA0148501483000000000000
B0531573055685S11645066EA0149401496000000000000
B0532013055730S11645117EA0150901511000000000000
B0532053055797S11645091EA0152001521000000000000
B0532093055803S11645022EA0153301536000000000000
B0532133055758S11644995EA0154401545000000000000
B0532173055720S11645036EA0155301552000000000000
B0532213055738S11645105EA0156101565000000000000
B0532253055806S11645126EA0157001576000000000000
B0532293055865S11645075EA0158101585000000000000
B0532333055875S11644998EA0159201595000000000000
B0532373055834S11644954EA0159801600000000000000
B0532413055784S11644983EA0160901612000000000000
B0532453055769S11645050EA0161801626000000000000
B0532493055803S11645113EA0163701648000000000000
B0532533055865S11645118EA0165501664000000000000
B0532573055903S11645060EA0166001665000000000000
B0533013055884S11644998EA0166901677000000000000
B0533053055836S11645005EA0167601681000000000000
B0533093055825S11645069EA0168701697000000000000
B0533133055878S11645108EA0170501718000000000000
B0533173055943S11645086EA0171201720000000000000
B0533213055969S11645015EA0171501728000000000000
B0533253055943S11644958EA0172801739000000000000
B0533293055894S11644954EA0173201738000000000000
B0533333055851S11644998EA0173401747000000000000
B0533373055839S11645067EA0174801760000000000000
B0533413055878S11645125EA0176501783000000000000
B0533453055949S11645119EA0178401802000000000000
B0533493055985S11645057EA0180001813000000000000
B0533533055971S11644989EA0179901811000000000000
B0533573055921S11644974EA0180201815000000000000
B0534013055889S11645026EA0180501821000000000000
B0534053055898S11645102EA0180801825000000000000
B0534093055940S11645165EA0182701853000000000000
B0534133056002S11645143EA0185001870000000000000
B0534173056014S11645069EA0185601874000000000000
B0534213055969S11645030EA0186801887000000000000
B0534253055930S11645063EA0188101904000000000000
B0534293055945S11645128EA0189301916000000000000
B0534333056010S11645144EA0190901934000000000000
B0534373056057S11645091EA0191901942000000000000
B0534413056049S11645018EA0192901959000000000000
B0534453056002S11644984EA0193701958000000000000
B0534493055953S11645010EA0194101969000000000000
B0534533055933S11645074EA0195701985000000000000
B0534573055951S11645145EA0197001998000000000000
B0535013056014S11645170EA0198602017000000000000
B0535053056068S11645126EA0200202030000000000000
B0535093056077S11645056EA0201302041000000000000
B0535133056037S11645013EA0201702043000000000000
B0535173055986S11645032EA0202802056000000000000
B0535213055959S11645093EA0203602067000000000000
B0535253055955S11645170EA0203902069000000000000
B0535293055985S11645245EA0204702079000000000000
B0535333056051S11645270EA0206002095000000000000
B0535373056097S11645217EA0207102106000000000000
B0535413056068S11645164EA0207302105000000000000
B0535453056019S11645192EA0208302118000000000000
B0535493056023S11645269EA0209402129000000000000
B0535533056085S11645316EA0210702143000000000000
B0535573056154S11645295EA0211902153000000000000
B0536013056181S11645229EA0212702160000000000000
B0536053056151S11645173EA0212902164000000000000
B0536093056099S11645179EA0213802177000000000000
B0536133056084S11645245EA0215002192000000000000
B0536173056127S11645304EA0216502204000000000000
B0536213056196S11645304EA0217602215000000000000
B0536253056239S11645251EA0218602224000000000000
B0536293056232S11645186EA0218902222000000000000
B0536333056179S11645154EA0218302213000000000000
B0536373056107S11645158EA0217302202000000000000
B0536413056032S11645169EA0216502195000000000000
B0536453055951S11645184EA0216502197000000000000
B0536493055871S11645201EA0216502195000000000000
B0536533055784S11645216EA0216502199000000000000
B0536573055702S11645226EA0217502204000000000000
B0537013055618S11645240EA0216702193000000000000
B0537053055534S11645253EA0215402181000000000000
B0537093055448S11645268EA0214402171000000000000
B0537133055362S11645284EA0213902167000000000000
B0537173055278S11645301EA0213602166000000000000
B0537213055196S11645318EA0213802168000000000000
B0537253055115S11645333EA0213502163000000000000
B0537293055033S11645349EA0213102160000000000000
B0537333054952S11645364EA0212802158000000000000
B0537373054871S11645378EA0212902157000000000000
B0537413054789S11645394EA0212202147000000000000
B0537453054706S11645411EA0211002137000000000000
B0537493054620S11645426EA0210202128000000000000
B0537533054536S11645442EA0209402120000000000000
B0537573054451S11645455EA0208902116000000000000
B0538013054368S11645465EA0208902115000000000000
B0538053054286S11645476EA0208102101000000000000
B0538093054200S11645491EA0206302084000000000000
B0538133054114S11645508EA0205802082000000000000
B0538173054034S11645525EA0206102086000000000000
B0538213053957S11645539EA0206002086000000000000
B0538253053880S11645552EA0206002085000000000000
B0538293053804S11645565EA0205402077000000000000
B0538333053724S11645580EA0205202079000000000000
B0538373053646S11645591EA0205102075000000000000
B0538413053564S11645602EA0203702055000000000000
B0538453053479S11645611EA0201902043000000000000
B0538493053393S11645619EA0201502039000000000000
B0538533053308S11645625EA0201002035000000000000
B0538573053225S11645634EA0200502030000000000000
B0539013053145S11645646EA0200402030000000000000
B0539053053065S11645660EA0200602036000000000000
B0539093052987S11645673EA0200402027000000000000
B0539133052907S11645686EA0199302016000000000000
B0539173052823S11645702EA0198802012000000000000
B0539213052742S11645717EA0198002003000000000000
B0539253052658S11645733EA0196901992000000000000
B0539293052573S11645747EA0196501991000000000000
B0539333052489S11645762EA0196301987000000000000
B0539373052406S11645778EA0195801982000000000000
B0539413052323S11645795EA0195701982000000000000
B0539453052237S11645814EA0194301965000000000000
B0539493052151S11645832EA0192901949000000000000
B0539533052064S11645847EA0192001945000000000000
B0539573051980S11645860EA0191901944000000000000
B0540013051898S11645871EA0191501940000000000000
B0540053051817S11645876EA0191401933000000000000
B0540093051741S11645886EA0190601926000000000000
B0540133051665S11645901EA0190001921000000000000
B0540173051590S11645923EA0189601917000000000000
B0540213051514S11645946EA0188801903000000000000
B0540253051436S11645977EA0187701896000000000000
B0540293051360S11646006EA0187701896000000000000
B0540333051289S11646035EA0188301904000000000000
B0540373051218S11646061EA0187901894000000000000
B0540413051141S11646088EA0187101888000000000000
B0540453051067S11646115EA0186701885000000000000
B0540493050990S11646137EA0186001878000000000000
B0540533050915S11646157EA0185201867000000000000
B0540573050837S11646172EA0183801852000000000000
B0541013050756S11646185EA0182601841000000000000
B0541053050676S11646197EA0181501831000000000000
B0541093050598S11646201EA0181001830000000000000
B0541133050521S11646196EA0180601819000000000000
B0541173050446S11646193EA0180101816000000000000
B0541213050368S11646191EA0178901800000000000000
B0541253050287S11646191EA0177701788000000000000
B0541293050207S11646191EA0176601773000000000000
B0541333050123S11646192EA0175201759000000000000
B0541373050041S11646193EA0174101751000000000000
B0541413049961S11646194EA0174001753000000000000
B0541453049887S11646202EA0174601760000000000000
B0541493049815S11646218EA0175301766000000000000
B0541533049746S11646236EA0174901757000000000000
B0541573049670S11646258EA0172901737000000000000
B0542013049593S11646279EA0172501739000000000000
B0542053049515S11646302EA0171701723000000000000
B0542093049432S11646323EA0169701703000000000000
B0542133049347S11646339EA0168301693000000000000
B0542173049267S11646350EA0167701686000000000000
B0542213049187S11646361EA0167401683000000000000
B0542253049112S11646371EA0167001678000000000000
B0542293049035S11646383EA0165401658000000000000
B0542333048956S11646391EA0164601659000000000000
B0542373048881S11646396EA0165001657000000000000
B0542413048806S11646402EA0164401649000000000000
B0542453048730S11646410EA0162501622000000000000
B0542493048654S11646418EA0161301618000000000000
B0542533048578S11646427EA0160301607000000000000
B0542573048502S11646430EA0160401610000000000000
B0543013048429S11646431EA0160001607000000000000
B0543053048354S11646431EA0159401602000000000000
B0543093048277S11646431EA0159301602000000000000
B0543133048205S11646419EA0159901607000000000000
B0543173048137S11646401EA0159901605000000000000
B0543213048067S11646378EA0159301598000000000000
B0543253047995S11646360EA0157901579000000000000
B0543293047916S11646345EA0155701557000000000000
B0543333047835S11646328EA0154201541000000000000
B0543373047756S11646314EA0153101535000000000000
B0543413047682S11646301EA0153001531000000000000
B0543453047612S11646292EA0152701527000000000000
B0543493047543S11646285EA0151601512000000000000
B0543533047471S11646275EA0150201497000000000000
B0543573047400S11646261EA0149101488000000000000
B0544013047331S11646248EA0148201477000000000000
B0544053047263S11646240EA0146701461000000000000
B0544093047194S11646236EA0145301444000000000000
B0544133047129S11646254EA0145001448000000000000
B0544173047072S11646272EA0146101461000000000000
B0544213047018S11646291EA0147201473000000000000
B0544253046966S11646315EA0148001482000000000000
B0544293046918S11646350EA0148701487000000000000
B0544333046869S11646395EA0148501483000000000000
B0544373046814S11646427EA0148401486000000000000
B0544413046760S11646409EA0149901512000000000000
B0544453046769S11646353EA0153001538000000000000
B0544493046832S11646337EA0153601536000000000000
B0544533046880S11646392EA0154701556000000000000
B0544573046871S11646457EA0155901565000000000000
B0545013046825S11646478EA0157201580000000000000
B0545053046795S11646438EA0158701597000000000000
B0545093046816S11646379EA0160301609000000000000
B0545133046877S11646353EA0160601613000000000000
B0545173046928S11646402EA0161501622000000000000
B0545213046908S11646460EA0162501640000000000000
B0545253046869S11646445EA0164401657000000000000
B0545293046871S11646387EA0165401662000000000000
B0545333046924S11646344EA0165801670000000000000
B0545373046989S11646370EA0167101681000000000000
B0545413047011S11646444EA0168101694000000000000
B0545453046984S11646504EA0169301705000000000000
B0545493046933S11646517EA0170401719000000000000
B0545533046890S11646480EA0171801731000000000000
B0545573046901S11646413EA0173701753000000000000
B0546013046964S11646393EA0174901761000000000000
B0546053047012S11646454EA0175501768000000000000
B0546093046999S11646522EA0176501782000000000000
B0546133046954S11646535EA0178301804000000000000
B0546173046931S11646486EA0180301824000000000000
B0546213046957S11646427EA0182001839000000000000
B0546253047020S11646404EA0182801846000000000000
B0546293047084S11646440EA0183401852000000000000
B0546333047109S11646516EA0184601864000000000000
B0546373047080S11646573EA0186201882000000000000
B0546413047036S11646558EA0188401907000000000000
B0546453047036S11646501EA0190401924000000000000
B0546493047085S11646454EA0191501939000000000000
B0546533047157S11646462EA0192801951000000000000
B0546573047204S11646521EA0194001963000000000000
B0547013047202S11646594EA0195101972000000000000
B0547053047158S11646620EA0196801995000000000000
B0547093047126S11646579EA0199202019000000000000
B0547133047142S11646519EA0201302041000000000000
B0547173047201S11646486EA0202602053000000000000
B0547213047270S11646513EA0203502061000000000000
B0547253047298S11646587EA0204502072000000000000
B0547293047270S11646646EA0206002087000000000000
B0547333047224S11646634EA0207402110000000000000
B0547373047213S11646575EA0209402129000000000000
B0547413047254S11646519EA0211302147000000000000
B0547453047326S11646513EA0212702158000000000000
B0547493047389S11646560EA0213302162000000000000
B0547533047412S11646639EA0214002175000000000000
B0547573047386S11646698EA0216302197000000000000
B0548013047340S11646704EA0217902210000000000000
B0548053047304S11646662EA0218702218000000000000
B0548093047317S11646594EA0220502241000000000000
B0548133047384S11646569EA0221802258000000000000
B0548173047447S11646620EA0223002267000000000000
B0548213047453S11646698EA0224702288000000000000
B0548253047415S11646740EA0226302300000000000000
B0548293047365S11646724EA0226902304000000000000
B0548333047347S11646662EA0228302326000000000000
B0548373047402S11646625EA0230902350000000000000
B0548413047466S11646664EA0232802370000000000000
B0548453047482S11646737EA0234502384000000000000
B0548493047445S11646783EA0235902398000000000000
B0548533047397S11646769EA0236502401000000000000
B0548573047389S11646705EA0237802420000000000000
