ACAM4N6
HFDTE220214
HFFXA050
HFPLTPILOT:JOHN WELSH              
HFGTYGLIDERTYPE:HORNET      
HFGIDGLIDERID:VH-GMY      
HFDTM100GPSDATUM:
HFRFWFIRMWAREVERSION:F2.6
HFRHWHARDWAREVERSION:300 Series Version 2
HFFTYFRTYPE:CAMBRIDGE AERO INSTRUMENTS, 302+
HFGPS:GARMIN,LVS-25,12,18000
HFPRSPRESSALTSENSOR:INTERSEMA, MS5534-AP, 20000
I033638FXA3941ENL4247REX
LCAMSBVER:5FWVER:F26300
C220214043101220214000103
C0000000N00000000WTAKEOFF     
C3207549S11656849EBEVAIR      
C3111283S11701799EDOWERIN     
C3231466S11704865EPINGELLY    
C3111999S11722999EWyalkatchem 
C3207549S11656849EBEVAIR      
C0000000N00000000WLANDING     
B0458343207741S11657099EA0017100199000000000000
B0458363207741S11657099EA0017100199000000000000
B0458383207741S11657099EA0017100199000000000000
B0458403207741S11657099EA0017100199000000000000
B0458423207741S11657099EA0017200199000000000000
B0458443207741S11657099EA0017100199000000000000
B0458463207741S11657099EA0017000199000000000000
B0458483207741S11657099EA0016900199000000000000
B0458503207741S11657099EA0016900199000000000000
B0458523207741S11657099EA0017000199000000000000
B0458543207741S11657099EA0017000199000000000000
B0458563207741S11657099EA0017000199000000000000
B0458583207741S11657099EA0017000199000000000000
B0459003207741S11657099EA0017000199000000000000
B0459023207741S11657099EA0017100199000000000000
B0459053207733S11657096EA0017100199000000000000
B0459093207705S11657085EA0017000198000000000000
B0459133207663S11657061EA0016900198000000000000
B0459173207609S11657030EA0017000199000000000000
B0459213207541S11656988EA0016800198000000000000
B0459253207464S11656943EA0016900200000000000000
B0459293207386S11656899EA0017600213000000000000
B0459333207312S11656858EA0019700237000000000000
B0459373207246S11656808EA0021900264000000000000
B0459413207187S11656739EA0023600277000000000000
B0459453207143S11656656EA0025200297000000000000
B0459493207118S11656563EA0026500315000000000000
B0459533207118S11656468EA0028400333000000000000
B0459573207139S11656376EA0029600344000000000000
B0500013207178S11656297EA0031100365000000000000
B0500053207234S11656237EA0033600387000000000000
B0500093207303S11656197EA0035600408000000000000
B0500133207377S11656185EA0037700429000000000000
B0500173207451S11656195EA0039800448000000000000
B0500213207520S11656233EA0041100460000000000000
B0500253207579S11656292EA0042200472000000000000
B0500293207623S11656362EA0043900492000000000000
B0500333207664S11656432EA0046300519000000000000
B0500373207722S11656485EA0048100539000000000000
B0500413207787S11656524EA0049600556000000000000
B0500453207844S11656570EA0051500576000000000000
B0500493207902S11656614EA0053600592000000000000
B0500533207958S11656661EA0055000605000000000000
B0500573208012S11656711EA0055900614000000000000
B0501013208064S11656763EA0057000623000000000000
B0501053208116S11656815EA0058100634000000000000
B0501093208166S11656871EA0059100642000000000000
B0501133208218S11656925EA0059900652000000000000
B0501173208272S11656982EA0061000659000000000000
B0501213208322S11657043EA0061300662000000000000
B0501253208376S11657103EA0062000669000000000000
B0501293208429S11657163EA0062700674000000000000
B0501333208483S11657220EA0063500683000000000000
B0501373208537S11657269EA0065000704000000000000
B0501413208590S11657321EA0067300727000000000000
B0501453208654S11657347EA0068400739000000000000
B0501493208711S11657300EA0070300762000000000000
B0501533208695S11657228EA0073000790000000000000
B0501573208645S11657228EA0074000795000000000000
B0502013208637S11657283EA0073700798000000000000
B0502053208686S11657316EA0075000813000000000000
B0502093208740S11657281EA0075900824000000000000
B0502133208754S11657207EA0076700835000000000000
B0502173208723S11657144EA0077600845000000000000
B0502213208667S11657130EA0077800843000000000000
B0502253208632S11657176EA0077700843000000000000
B0502293208652S11657231EA0078500858000000000000
B0502333208708S11657250EA0079800869000000000000
B0502373208764S11657213EA0081300886000000000000
B0502413208786S11657144EA0082800901000000000000
B0502453208762S11657081EA0084100914000000000000
B0502493208707S11657065EA0083800908000000000000
B0502533208663S11657107EA0083500909000000000000
B0502573208652S11657169EA0083900913000000000000
B0503013208678S11657226EA0084500918000000000000
B0503053208738S11657226EA0085400931000000000000
B0503093208759S11657163EA0087600955000000000000
B0503133208717S11657122EA0088600964000000000000
B0503173208681S11657156EA0089400972000000000000
B0503213208704S11657202EA0090200976000000000000
B0503253208764S11657192EA0090100979000000000000
B0503293208793S11657130EA0092001004000000000000
B0503333208756S11657083EA0093601015000000000000
B0503373208708S11657107EA0093901018000000000000
B0503413208717S11657161EA0095001029000000000000
B0503453208776S11657166EA0095501036000000000000
B0503493208811S11657107EA0096801055000000000000
B0503533208782S11657048EA0098301069000000000000
B0503573208729S11657057EA0098801074000000000000
B0504013208728S11657113EA0100201087000000000000
B0504053208784S11657127EA0100601090000000000000
B0504093208827S11657075EA0101401107000000000000
B0504133208805S11657014EA0103201123000000000000
B0504173208753S11657020EA0104101126000000000000
B0504213208737S11657077EA0105101142000000000000
B0504253208773S11657113EA0106701153000000000000
B0504293208828S11657095EA0106901156000000000000
B0504333208846S11657033EA0108001171000000000000
B0504373208807S11656992EA0109001180000000000000
B0504413208763S11657023EA0109901187000000000000
B0504453208772S11657085EA0110601198000000000000
B0504493208824S11657104EA0111601205000000000000
B0504533208871S11657059EA0111701209000000000000
B0504573208875S11656991EA0112601222000000000000
B0505013208831S11656956EA0113701233000000000000
B0505053208784S11656988EA0114501236000000000000
B0505093208789S11657053EA0114801238000000000000
B0505133208846S11657087EA0115001242000000000000
B0505173208907S11657066EA0115901253000000000000
B0505213208927S11657008EA0117301266000000000000
B0505253208905S11656955EA0117601270000000000000
B0505293208851S11656943EA0117401265000000000000
B0505333208824S11656997EA0117601274000000000000
B0505373208864S11657052EA0118201274000000000000
B0505413208935S11657056EA0117801271000000000000
B0505453208997S11657017EA0117801271000000000000
B0505493209016S11656942EA0117601269000000000000
B0505533208979S11656883EA0117201263000000000000
B0505573208914S11656870EA0117001265000000000000
B0506013208845S11656877EA0117201266000000000000
B0506053208773S11656890EA0117401268000000000000
B0506093208698S11656905EA0116301250000000000000
B0506133208617S11656921EA0114401226000000000000
B0506173208534S11656936EA0112401207000000000000
B0506213208450S11656952EA0110601188000000000000
B0506253208363S11656968EA0108201162000000000000
B0506293208270S11656982EA0106801158000000000000
B0506333208184S11656999EA0107601170000000000000
B0506373208104S11657016EA0109201185000000000000
B0506413208028S11657033EA0110001191000000000000
B0506453207953S11657053EA0110101189000000000000
B0506493207871S11657068EA0109701184000000000000
B0506533207787S11657062EA0110401198000000000000
B0506573207707S11657042EA0111601212000000000000
B0507013207629S11657022EA0112301216000000000000
B0507053207549S11657016EA0111801208000000000000
B0507093207462S11657017EA0110801201000000000000
B0507133207369S11657023EA0110401195000000000000
B0507173207277S11657033EA0110001193000000000000
B0507213207183S11657043EA0109701190000000000000
B0507253207089S11657051EA0109401185000000000000
B0507293206994S11657053EA0108001167000000000000
B0507333206899S11657057EA0107101159000000000000
B0507373206806S11657059EA0106601150000000000000
B0507413206718S11657057EA0105701140000000000000
B0507453206631S11657055EA0104101127000000000000
B0507493206545S11657055EA0103401117000000000000
B0507533206462S11657055EA0101901098000000000000
B0507573206376S11657057EA0100101081000000000000
B0508013206290S11657070EA0098601067000000000000
B0508053206210S11657085EA0097501055000000000000
B0508093206128S11657098EA0096101040000000000000
B0508133206049S11657114EA0095501033000000000000
B0508173205974S11657138EA0095201030000000000000
B0508213205904S11657160EA0094801026000000000000
B0508253205838S11657186EA0094401019000000000000
B0508293205774S11657215EA0093801011000000000000
B0508333205704S11657230EA0093101004000000000000
B0508373205631S11657239EA0092801002000000000000
B0508413205564S11657264EA0093001009000000000000
B0508453205505S11657302EA0095001031000000000000
B0508493205469S11657351EA0097701061000000000000
B0508533205506S11657391EA0099901081000000000000
B0508573205557S11657342EA0102301117000000000000
B0509013205543S11657273EA0104701130000000000000
B0509053205484S11657274EA0105401147000000000000
B0509093205466S11657342EA0107001165000000000000
B0509133205517S11657387EA0109401191000000000000
B0509173205583S11657367EA0112101216000000000000
B0509213205617S11657295EA0113301219000000000000
B0509253205591S11657217EA0113701233000000000000
B0509293205539S11657209EA0116201261000000000000
B0509333205538S11657267EA0118401278000000000000
B0509373205595S11657277EA0119201283000000000000
B0509413205629S11657200EA0120001294000000000000
B0509453205601S11657124EA0120801301000000000000
B0509493205540S11657125EA0122801325000000000000
B0509533205534S11657187EA0124901344000000000000
B0509573205588S11657215EA0126501366000000000000
B0510013205634S11657160EA0128501380000000000000
B0510053205617S11657082EA0129501392000000000000
B0510093205558S11657069EA0131501413000000000000
B0510133205530S11657122EA0132701423000000000000
B0510173205551S11657189EA0133601438000000000000
B0510213205607S11657202EA0136201468000000015000
B0510253205643S11657144EA0138501484000000015000
B0510293205631S11657069EA0138801487000000015000
B0510333205575S11657042EA0139801509000000000000
B0510373205542S11657094EA0142001522000000000000
B0510413205583S11657144EA0142701535000000015000
B0510453205646S11657116EA0145001567000000015000
B0510493205651S11657044EA0147001578000000015000
B0510533205600S11657004EA0147301582000000015000
B0510573205561S11657055EA0148201594000000000000
B0511013205587S11657114EA0150601624000000000000
B0511053205648S11657121EA0153201641000000000000
B0511093205695S11657066EA0154001648000000000000
B0511133205701S11656979EA0153601644000000000000
B0511173205653S11656917EA0154801660000000000000
B0511213205596S11656934EA0156101668000000000000
B0511253205565S11656999EA0156601685000000000000
B0511293205607S11657035EA0160201719000000015000
B0511333205653S11656986EA0161601741000000015000
B0511373205639S11656916EA0163001749000000015000
B0511413205582S11656903EA0163201750000000015000
B0511453205555S11656962EA0164401765000000000000
B0511493205597S11657003EA0166501792000000015000
B0511533205649S11656965EA0168801819000000015000
B0511573205652S11656895EA0170801832000000015000
B0512013205600S11656857EA0171001829000000015000
B0512053205540S11656893EA0170901828000000015000
B0512093205508S11656968EA0171801841000000015000
B0512133205544S11657027EA0174101866000000015000
B0512173205595S11656990EA0176701901000000015000
B0512213205581S11656918EA0179001923000000015000
B0512253205521S11656910EA0180901940000000015000
B0512293205484S11656969EA0182301950000000015000
B0512333205504S11657035EA0183401957000000000000
B0512373205568S11657044EA0184301973000000000000
B0512413205610S11656986EA0187002004000000015000
B0512453205591S11656917EA0189602025000000000000
B0512493205532S11656905EA0191002037000000000000
B0512533205496S11656965EA0192202046000000000000
B0512573205522S11657030EA0193102057000000000000
B0513013205588S11657039EA0193902068000000000000
B0513053205630S11656982EA0196402098000000015000
B0513093205596S11656930EA0198502115000000015000
B0513133205542S11656958EA0199002119000000000000
B0513173205540S11657036EA0199802125000000000000
B0513213205595S11657081EA0200802144000000015000
B0513253205659S11657060EA0202702163000000015000
B0513293205690S11656995EA0204302178000000015000
B0513333205672S11656923EA0205902195000000000000
B0513373205618S11656904EA0207602211000000000000
B0513413205591S11656961EA0209202226000000000000
B0513453205621S11657020EA0210202230000000000000
B0513493205688S11657020EA0209702229000000000000
B0513533205738S11656960EA0211302255000000000000
B0513573205752S11656884EA0213302262000000000000
B0514013205717S11656810EA0210602223000000000000
B0514053205638S11656737EA0206302194000000000000
B0514093205542S11656667EA0206502204000000015000
B0514133205444S11656602EA0205102183000000015000
B0514173205339S11656542EA0202602156000000015000
B0514213205235S11656484EA0201502146000000015000
B0514253205137S11656431EA0201802147000000000000
B0514293205044S11656379EA0201802143000000000000
B0514333204954S11656327EA0201502135000000000000
B0514373204867S11656277EA0201202131000000000000
B0514413204780S11656233EA0200402120000000000000
B0514453204694S11656190EA0199802115000000000000
B0514493204609S11656146EA0199502109000000000000
B0514533204528S11656094EA0198502094000000000000
B0514573204442S11656037EA0196302075000000000000
B0515013204355S11655982EA0196002072000000000000
B0515053204271S11655930EA0195302062000000000000
B0515093204188S11655882EA0194802067000000000000
B0515133204113S11655840EA0196502084000000000000
B0515173204039S11655800EA0197702090000000000000
B0515213203971S11655764EA0199402113000000000000
B0515253203905S11655733EA0200402113000000000000
B0515293203831S11655705EA0198802092000000000000
B0515333203742S11655686EA0195302057000000000000
B0515373203645S11655670EA0192602039000000000000
B0515413203547S11655656EA0191702028000000000000
B0515453203454S11655643EA0191502023000000000000
B0515493203363S11655630EA0191602021000000000000
B0515533203273S11655614EA0190902007000000000000
B0515573203179S11655596EA0189201997000000000000
B0516013203088S11655579EA0189001993000000000000
B0516053202996S11655562EA0188401984000000000000
B0516093202906S11655541EA0187001972000000000000
B0516133202818S11655522EA0187201977000000000000
B0516173202735S11655504EA0187501979000000000000
B0516213202650S11655484EA0187101972000000000000
B0516253202567S11655465EA0186701972000000000000
B0516293202483S11655445EA0185901956000000000000
B0516333202396S11655424EA0184801957000000000000
B0516373202311S11655406EA0185701961000000000000
B0516413202228S11655391EA0185201951000000000000
B0516453202142S11655374EA0184701956000000000000
B0516493202059S11655354EA0185801965000000000000
B0516533201976S11655333EA0185001951000000000000
B0516573201885S11655317EA0183501939000000000000
B0517013201794S11655302EA0182901929000000000000
B0517053201701S11655289EA0182101923000000000000
B0517093201609S11655276EA0181501913000000000000
B0517133201515S11655261EA0180201901000000000000
B0517173201421S11655248EA0180001904000000000000
B0517213201335S11655236EA0181001911000000000000
B0517253201248S11655223EA0179301886000000015000
B0517293201159S11655205EA0178701886000000000000
B0517333201077S11655183EA0178501880000000000000
B0517373200993S11655161EA0176801855000000000000
B0517413200901S11655136EA0174001834000000000000
B0517453200807S11655112EA0173001827000000000000
B0517493200716S11655090EA0172501822000000000000
B0517533200628S11655064EA0172201820000000000000
B0517573200539S11655037EA0170701797000000000000
B0518013200444S11655014EA0168201776000000000000
B0518053200348S11654990EA0167401767000000000000
B0518093200253S11654962EA0166901765000000000000
B0518133200162S11654936EA0167401776000000000000
B0518173200078S11654912EA0167901776000000000000
B0518213159994S11654888EA0167401771000000000000
B0518253159913S11654862EA0167601776000000000000
B0518293159833S11654833EA0167901778000000000000
B0518333159754S11654806EA0168401785000000000000
B0518373159675S11654778EA0168201782000000000000
B0518413159598S11654748EA0169301796000000000000
B0518453159523S11654721EA0169101784000000000000
B0518493159442S11654696EA0167601772000000000000
B0518533159359S11654668EA0166201750000000000000
B0518573159273S11654628EA0164001734000000000000
B0519013159187S11654585EA0163001723000000000000
B0519053159101S11654543EA0162101717000000000000
B0519093159018S11654505EA0161901721000000000000
B0519133158940S11654465EA0162401728000000000000
B0519173158863S11654425EA0162601725000000000000
B0519213158784S11654384EA0162501726000000000000
B0519253158707S11654348EA0164001749000000000000
B0519293158641S11654313EA0166201765000000000000
B0519333158577S11654275EA0166901766000000000000
B0519373158512S11654232EA0166301758000000000000
B0519413158442S11654191EA0164801741000000000000
B0519453158368S11654149EA0163201725000000000000
B0519493158290S11654105EA0162101713000000000000
B0519533158210S11654057EA0160601697000000000000
B0519573158126S11654007EA0159101680000000000000
B0520013158041S11653958EA0158301680000000000000
B0520053157960S11653915EA0159601695000000000000
B0520093157882S11653874EA0160401697000000000000
B0520133157805S11653833EA0160001688000000000000
B0520173157729S11653789EA0158201671000000000000
B0520213157651S11653736EA0156801659000000000000
B0520253157575S11653676EA0156401657000000000000
B0520293157504S11653615EA0156501658000000000000
B0520333157437S11653552EA0156601662000000000000
B0520373157378S11653493EA0157201669000000000000
B0520413157316S11653433EA0157001658000000000000
B0520453157248S11653373EA0156201657000000000000
B0520493157183S11653315EA0156801667000000000000
B0520533157118S11653265EA0157401669000000000000
B0520573157050S11653218EA0157301667000000000000
B0521013156980S11653173EA0157501670000000000000
B0521053156907S11653147EA0157501673000000000000
B0521093156833S11653142EA0158101674000000000000
B0521133156752S11653144EA0156601649000000000000
B0521173156659S11653157EA0153001616000000000000
B0521213156568S11653168EA0154701659000000015000
B0521253156521S11653200EA0159801702000000000000
B0521293156553S11653235EA0162001717000000015000
B0521333156622S11653213EA0160801710000000015000
B0521373156681S11653140EA0159601713000000015000
B0521413156725S11653058EA0160901724000000015000
B0521453156721S11652973EA0162301731000000000000
B0521493156659S11652932EA0160501701000000000000
B0521533156569S11652936EA0158001691000000015000
B0521573156487S11652943EA0160801718000000015000
B0522013156410S11652952EA0161201702000000015000
B0522053156322S11652967EA0156801659000000000000
B0522093156230S11652984EA0155001648000000000000
B0522133156139S11653001EA0154001636000000000000
B0522173156049S11653021EA0152601620000000000000
B0522213155957S11653042EA0151501608000000000000
B0522253155867S11653064EA0150801600000000000000
B0522293155777S11653087EA0149601588000000000000
B0522333155688S11653110EA0148401575000000000000
B0522373155600S11653133EA0147601568000000000000
B0522413155513S11653153EA0146901558000000000000
B0522453155428S11653174EA0145701546000000000000
B0522493155342S11653196EA0144701533000000000000
B0522533155257S11653221EA0143201519000000000000
B0522573155171S11653239EA0142501507000000000000
B0523013155086S11653256EA0141501502000000000000
B0523053155004S11653268EA0141601508000000000000
B0523093154923S11653279EA0141901508000000000000
B0523133154846S11653294EA0142001506000000000000
B0523173154768S11653313EA0141801506000000000000
B0523213154692S11653333EA0141801507000000000000
B0523253154618S11653348EA0142901521000000000000
B0523293154549S11653359EA0143301520000000000000
B0523333154476S11653373EA0142701510000000000000
B0523373154398S11653395EA0141201494000000000000
B0523413154317S11653421EA0141501512000000000000
B0523453154245S11653445EA0143701529000000000000
B0523493154174S11653468EA0144101523000000000000
B0523533154103S11653495EA0142201495000000000000
B0523573154025S11653533EA0139101469000000000000
B0524013153955S11653573EA0139001477000000000000
B0524053153891S11653612EA0139001468000000000000
B0524093153823S11653650EA0137401453000000000000
B0524133153757S11653689EA0137201459000000000000
B0524173153699S11653725EA0138501469000000000000
B0524213153643S11653766EA0139101473000000000000
B0524253153588S11653807EA0140101492000000000000
B0524293153554S11653859EA0141901508000000000000
B0524333153588S11653910EA0144001537000000000000
B0524373153644S11653879EA0145401557000000000000
B0524413153637S11653805EA0145801556000000000000
B0524453153583S11653773EA0145801559000000000000
B0524493153532S11653809EA0146401568000000000000
B0524533153544S11653871EA0148301582000000000000
B0524573153606S11653861EA0149301598000000015000
B0525013153619S11653789EA0150801613000000015000
B0525053153574S11653753EA0151101613000000015000
B0525093153530S11653790EA0152001624000000000000
B0525133153539S11653857EA0153501638000000000000
B0525173153602S11653874EA0155601661000000015000
B0525213153644S11653816EA0157301681000000015000
B0525253153627S11653749EA0158601691000000015000
B0525293153574S11653732EA0159301698000000000000
B0525333153541S11653784EA0160301709000000000000
B0525373153566S11653841EA0162301740000000000000
B0525413153623S11653822EA0165501778000000015000
B0525453153636S11653757EA0167401792000000015000
B0525493153598S11653711EA0168001797000000015000
B0525533153543S11653723EA0168701800000000000000
B0525573153523S11653788EA0169701815000000000000
B0526013153574S11653819EA0172401851000000015000
B0526053153623S11653767EA0174101869000000015000
B0526093153613S11653695EA0176001894000000015000
B0526133153566S11653669EA0177901902000000000000
B0526173153519S11653702EA0178601905000000000000
B0526213153523S11653771EA0179601921000000000000
B0526253153582S11653792EA0181801951000000015000
B0526293153628S11653736EA0183801970000000015000
B0526333153615S11653666EA0185801990000000000000
B0526373153561S11653663EA0187402002000000000000
B0526413153544S11653720EA0189202018000000000000
B0526453153596S11653757EA0190802033000000000000
B0526493153648S11653712EA0192602054000000000000
B0526533153641S11653640EA0194702073000000000000
B0526573153585S11653620EA0195202077000000000000
B0527013153556S11653677EA0196702093000000000000
B0527053153604S11653715EA0198802121000000015000
B0527093153654S11653668EA0200102138000000015000
B0527133153640S11653598EA0202302162000000015000
B0527173153588S11653586EA0203802172000000000000
B0527213153561S11653637EA0205202182000000000000
B0527253153597S11653689EA0206302196000000000000
B0527293153656S11653668EA0208002212000000000000
B0527333153673S11653598EA0209502226000000000000
B0527373153630S11653551EA0210602238000000000000
B0527413153580S11653571EA0212302254000000000000
B0527453153579S11653629EA0213602265000000000000
B0527493153631S11653662EA0214002271000000000000
B0527533153693S11653636EA0214902282000000000000
B0527573153712S11653563EA0216102298000000000000
B0528013153670S11653519EA0217702309000000000000
B0528053153608S11653523EA0217402298000000000000
B0528093153528S11653541EA0215102275000000000000
B0528133153436S11653567EA0213502264000000000000
B0528173153337S11653601EA0211902243000000000000
B0528213153237S11653640EA0209502218000000000000
B0528253153136S11653682EA0207302197000000000000
B0528293153033S11653723EA0206202189000000000000
B0528333152934S11653766EA0205602183000000000000
B0528373152835S11653807EA0204302165000000000000
B0528413152731S11653842EA0202502152000000000000
B0528453152630S11653870EA0202602153000000000000
B0528493152531S11653890EA0202502152000000000000
B0528533152439S11653911EA0202302146000000000000
B0528573152348S11653939EA0201302132000000000000
B0529013152256S11653967EA0200602127000000000000
B0529053152162S11653997EA0199402107000000000000
B0529093152066S11654028EA0197702096000000000000
B0529133151971S11654059EA0197002087000000000000
B0529173151879S11654089EA0196402078000000000000
B0529213151786S11654121EA0195602070000000000000
B0529253151695S11654154EA0194802063000000000000
B0529293151603S11654187EA0194002054000000000000
B0529333151512S11654219EA0193702047000000000000
B0529373151417S11654251EA0192902040000000000000
B0529413151322S11654283EA0192202032000000000000
B0529453151227S11654312EA0191602026000000000000
B0529493151138S11654338EA0192002034000000000000
B0529533151049S11654361EA0191902025000000000000
B0529573150959S11654386EA0190902019000000000000
B0530013150871S11654416EA0190202007000000000000
B0530053150780S11654449EA0188701992000000000000
B0530093150692S11654485EA0187501982000000000000
B0530133150601S11654520EA0186401973000000000000
B0530173150514S11654556EA0186501978000000000000
B0530213150436S11654592EA0188001991000000000000
B0530253150364S11654633EA0189902009000000000000
B0530293150295S11654663EA0192402052000000000000
B0530333150250S11654704EA0196802085000000000000
B0530373150268S11654761EA0198902098000000000000
B0530413150330S11654754EA0200202123000000000000
B0530453150356S11654685EA0203002149000000000000
B0530493150322S11654628EA0204902166000000000000
B0530533150267S11654629EA0206602185000000000000
B0530573150237S11654682EA0207702189000000000000
B0531013150267S11654746EA0208102198000000000000
B0531053150330S11654743EA0210302227000000000000
B0531093150359S11654680EA0213502259000000000000
B0531133150328S11654622EA0215302273000000000000
B0531173150272S11654634EA0216002281000000000000
B0531213150263S11654703EA0217302294000000000000
B0531253150317S11654730EA0218602311000000015000
B0531293150365S11654674EA0220402342000000015000
B0531333150364S11654599EA0223002367000000000000
B0531373150316S11654559EA0224302370000000000000
B0531413150242S11654556EA0222302339000000000000
B0531453150144S11654566EA0218602304000000000000
B0531493150034S11654590EA0215702281000000015000
B0531533149921S11654615EA0214602267000000015000
B0531573149812S11654633EA0213302256000000000000
B0532013149705S11654652EA0213202257000000000000
B0532053149604S11654668EA0213702257000000000000
B0532093149503S11654682EA0212602242000000000000
B0532133149405S11654693EA0211802240000000000000
B0532173149310S11654703EA0211502230000000000000
B0532213149212S11654711EA0209602213000000000000
B0532253149115S11654713EA0208902206000000000000
B0532293149017S11654712EA0208202194000000000000
B0532333148918S11654709EA0206002176000000000000
B0532373148817S11654712EA0205202170000000000000
B0532413148720S11654716EA0205602172000000000000
B0532453148623S11654720EA0204502162000000000000
B0532493148527S11654721EA0204102157000000000000
B0532533148432S11654725EA0203802154000000000000
B0532573148340S11654730EA0203202148000000000000
B0533013148246S11654733EA0202502141000000000000
B0533053148153S11654735EA0202002136000000000000
B0533093148059S11654738EA0201502133000000000000
B0533133147966S11654743EA0201102122000000000000
B0533173147871S11654748EA0200302116000000000000
B0533213147776S11654748EA0199002104000000000000
B0533253147681S11654752EA0198202098000000000000
B0533293147589S11654754EA0197402082000000000000
B0533333147490S11654761EA0195502066000000000000
B0533373147394S11654776EA0195402064000000000000
B0533413147300S11654793EA0194302055000000000000
B0533453147209S11654811EA0194602057000000000000
B0533493147122S11654830EA0194202047000000000000
B0533533147030S11654852EA0192402034000000000000
B0533573146936S11654880EA0192702046000000000000
B0534013146853S11654907EA0194702064000000000000
B0534053146780S11654937EA0197402091000000000000
B0534093146727S11654995EA0199302105000000000000
B0534133146682S11655060EA0200902123000000000000
B0534173146643S11655124EA0201302122000000000000
B0534213146588S11655179EA0197202067000000000000
B0534253146494S11655211EA0192702017000000000000
B0534293146389S11655226EA0189702005000000000000
B0534333146285S11655235EA0188801998000000000000
B0534373146186S11655244EA0188501995000000000000
B0534413146087S11655253EA0187801986000000000000
B0534453145992S11655261EA0188001992000000000000
B0534493145901S11655266EA0187501983000000000000
B0534533145810S11655265EA0186501971000000000000
B0534573145717S11655259EA0185201959000000000000
B0535013145623S11655252EA0183601943000000000000
B0535053145529S11655248EA0182601932000000000000
B0535093145436S11655244EA0181901925000000000000
B0535133145342S11655241EA0181201914000000000000
B0535173145250S11655239EA0179501898000000000000
B0535213145158S11655237EA0178401889000000000000
B0535253145067S11655239EA0177701878000000000000
B0535293144974S11655237EA0175701858000000000000
B0535333144879S11655237EA0174001842000000000000
B0535373144783S11655239EA0172901834000000000000
B0535413144690S11655245EA0172801834000000000000
B0535453144602S11655254EA0173301843000000000000
B0535493144521S11655266EA0174301847000000000000
B0535533144441S11655280EA0174501854000000000000
B0535573144365S11655292EA0175101853000000000000
B0536013144284S11655305EA0174101840000000000000
B0536053144201S11655327EA0174701857000000000000
B0536093144124S11655346EA0176801874000000000000
B0536133144053S11655367EA0177001867000000000000
B0536173143985S11655396EA0177201882000000000000
B0536213143928S11655428EA0179501900000000000000
B0536253143876S11655465EA0180401908000000000000
B0536293143820S11655506EA0180301895000000000000
B0536333143750S11655557EA0177501863000000000000
B0536373143661S11655612EA0175201848000000000000
B0536413143565S11655662EA0174101843000000000000
B0536453143465S11655709EA0173101834000000000000
B0536493143366S11655753EA0172201821000000000000
B0536533143269S11655796EA0171201818000000000000
B0536573143172S11655842EA0170501805000000000000
B0537013143080S11655889EA0170101806000000000000
B0537053142990S11655935EA0169701797000000000000
B0537093142901S11655980EA0168601786000000000000
B0537133142812S11656021EA0168101782000000000000
B0537173142725S11656063EA0167101767000000000000
B0537213142636S11656104EA0165501752000000000000
B0537253142546S11656146EA0164501748000000000000
B0537293142460S11656184EA0164501744000000000000
B0537333142374S11656220EA0163101719000000000000
B0537373142283S11656253EA0161001710000000000000
B0537413142192S11656284EA0159901692000000000000
B0537453142109S11656318EA0160001696000000000000
B0537493142028S11656354EA0159101677000000000000
B0537533141944S11656386EA0157501671000000000000
B0537573141866S11656420EA0158901690000000000000
B0538013141794S11656453EA0159801688000000000000
B0538053141720S11656484EA0158001664000000000000
B0538093141638S11656515EA0155301646000000000000
B0538133141560S11656546EA0155501652000000000000
B0538173141482S11656571EA0156201660000000000000
B0538213141404S11656581EA0157401678000000000000
B0538253141330S11656585EA0159601700000000000000
B0538293141261S11656588EA0160501699000000000000
B0538333141185S11656594EA0158701673000000000000
B0538373141094S11656604EA0156001649000000000000
B0538413140996S11656615EA0154501640000000000000
B0538453140899S11656626EA0154701640000000000000
B0538493140801S11656633EA0153801625000000000000
B0538533140699S11656643EA0151901598000000000000
B0538573140595S11656656EA0149901589000000000000
B0539013140492S11656669EA0148701573000000000000
B0539053140389S11656683EA0146701549000000000000
B0539093140289S11656696EA0146101557000000000000
B0539133140198S11656708EA0146801561000000000000
B0539173140111S11656717EA0146901560000000000000
B0539213140026S11656726EA0146601553000000000000
B0539253139946S11656732EA0146801554000000000000
B0539293139867S11656736EA0145801538000000000000
B0539333139785S11656741EA0144801530000000000000
B0539373139700S11656747EA0144001524000000000000
B0539413139614S11656754EA0143601523000000000000
B0539453139526S11656761EA0143001515000000000000
B0539493139438S11656766EA0142601516000000000000
B0539533139350S11656771EA0142801517000000000000
B0539573139267S11656776EA0143001517000000000000
B0540013139185S11656786EA0141901500000000000000
B0540053139097S11656800EA0139901481000000000000
B0540093139006S11656812EA0139601484000000000000
B0540133138919S11656821EA0140601496000000000000
B0540173138836S11656826EA0141701506000000000000
B0540213138752S11656832EA0141501505000000000000
B0540253138671S11656839EA0142201513000000000000
B0540293138594S11656841EA0143201524000000000000
B0540333138515S11656845EA0143301520000000000000
B0540373138433S11656852EA0142601515000000000000
B0540413138351S11656858EA0141901508000000000000
B0540453138271S11656866EA0140801494000000000000
B0540493138193S11656873EA0139501477000000000000
B0540533138115S11656879EA0138801471000000000000
B0540573138039S11656883EA0137601457000000000000
B0541013137959S11656884EA0136301444000000000000
B0541053137880S11656890EA0134501419000000000000
B0541093137794S11656891EA0132701409000000000000
B0541133137710S11656890EA0132301406000000000000
B0541173137624S11656884EA0131501394000000000000
B0541213137538S11656877EA0129801379000000000000
B0541253137451S11656874EA0128301361000000000000
B0541293137365S11656873EA0127301350000000000000
B0541333137280S11656874EA0126501342000000000000
B0541373137195S11656871EA0126701352000000000000
B0541413137120S11656866EA0127601358000000000000
B0541453137048S11656862EA0127801359000000000000
B0541493136979S11656861EA0127501353000000000000
B0541533136910S11656862EA0126501340000000000000
B0541573136838S11656865EA0125301330000000000000
B0542013136761S11656870EA0124101319000000000000
B0542053136684S11656887EA0123401315000000000000
B0542093136609S11656906EA0123201314000000000000
B0542133136535S11656931EA0123001312000000000000
B0542173136463S11656952EA0124301333000000000000
B0542213136423S11656997EA0127301359000000000000
B0542253136461S11657046EA0128901368000000000000
B0542293136536S11657022EA0129601379000000000000
B0542333136593S11656956EA0130901395000000000000
B0542373136591S11656875EA0132401407000000000000
B0542413136544S11656858EA0132601408000000000000
B0542453136515S11656904EA0132601406000000000000
B0542493136545S11656961EA0132901413000000000000
B0542533136618S11656973EA0133601419000000000000
B0542573136697S11656943EA0134201426000000000000
B0543013136753S11656873EA0135101436000000000000
B0543053136756S11656782EA0135001429000000000000
B0543093136708S11656711EA0133701415000000000000
B0543133136635S11656671EA0131501391000000000000
B0543173136549S11656662EA0129801380000000000000
B0543213136461S11656676EA0128701377000000000000
B0543253136372S11656698EA0129101376000000000000
B0543293136288S11656728EA0129601386000000000000
B0543333136210S11656761EA0130801390000000000000
B0543373136132S11656800EA0129901381000000000000
B0543413136056S11656841EA0131701402000000000000
B0543453135986S11656882EA0131201384000000000000
B0543493135904S11656927EA0127301345000000000000
B0543533135811S11656973EA0124301315000000000000
B0543573135714S11657021EA0122001301000000000000
B0544013135623S11657072EA0121301296000000000000
B0544053135539S11657129EA0121001293000000000000
B0544093135457S11657187EA0119601274000000000000
B0544133135376S11657250EA0118001255000000000000
B0544173135296S11657315EA0115701236000000000000
B0544213135215S11657378EA0114401221000000000000
B0544253135140S11657441EA0114101214000000000000
B0544293135064S11657502EA0112601199000000000000
B0544333134992S11657562EA0112101196000000000000
B0544373134925S11657620EA0112101197000000000000
B0544413134863S11657677EA0113001208000000000000
B0544453134804S11657732EA0113101203000000000000
B0544493134746S11657789EA0112101191000000000000
B0544533134687S11657848EA0111001181000000000000
B0544573134624S11657910EA0109801168000000000000
B0545013134559S11657970EA0109601174000000000000
B0545053134501S11658028EA0110101177000000000000
B0545093134455S11658095EA0110201178000000000000
B0545133134420S11658169EA0109901171000000000000
B0545173134392S11658249EA0109301165000000000000
B0545213134370S11658330EA0109501172000000000000
B0545253134344S11658407EA0110001170000000000000
B0545293134309S11658481EA0109901175000000000000
B0545333134277S11658552EA0110501178000000000000
B0545373134243S11658622EA0110301178000000000000
B0545413134215S11658700EA0111001188000000000000
B0545453134225S11658775EA0112201199000000000000
B0545493134283S11658767EA0113801213000000000000
B0545533134291S11658697EA0113901206000000000000
B0545573134235S11658667EA0112301191000000000000
B0546013134167S11658689EA0111201185000000000000
B0546053134110S11658730EA0111101188000000000000
B0546093134059S11658784EA0111801194000000000000
B0546133134009S11658836EA0112101197000000000000
B0546173133962S11658886EA0113501213000000000000
B0546213133918S11658938EA0114001212000000000000
B0546253133867S11658990EA0112601196000000000000
B0546293133812S11659050EA0112101198000000000000
B0546333133764S11659116EA0111901187000000000000
B0546373133711S11659183EA0110501175000000000000
B0546413133646S11659237EA0109601167000000000000
B0546453133580S11659287EA0109101160000000000000
B0546493133512S11659335EA0108101154000000000000
B0546533133443S11659380EA0107201141000000000000
B0546573133370S11659425EA0105301121000000000000
B0547013133294S11659469EA0103401100000000000000
B0547053133213S11659513EA0102201093000000000000
B0547093133134S11659564EA0100701075000000000000
B0547133133064S11659625EA0101201085000000000000
B0547173133009S11659687EA0101501082000000000000
B0547213132962S11659761EA0099501057000000000000
B0547253132918S11659839EA0098101043000000000000
B0547293132861S11659903EA0098001052000000000000
B0547333132804S11659951EA0099001056000000000000
B0547373132745S11659995EA0098501050000000000000
B0547413132691S11700038EA0097701039000000000000
B0547453132635S11700089EA0096001016000000000000
B0547493132576S11700143EA0094101004000000000000
B0547533132522S11700198EA0093500998000000000000
B0547573132481S11700262EA0093801013000000000000
B0548013132450S11700318EA0095601024000000000000
B0548053132420S11700374EA0095501012000000000000
B0548093132406S11700445EA0093800998000000000000
B0548133132392S11700522EA0093400998000000000000
B0548173132342S11700571EA0094301012000000000000
B0548213132289S11700541EA0096601046000000000000
B0548253132303S11700467EA0098401051000000000000
B0548293132366S11700437EA0098001050000000000000
B0548333132410S11700467EA0098601058000000000000
B0548373132419S11700520EA0098701054000000000000
B0548413132399S11700575EA0098701055000000000000
B0548453132343S11700593EA0098901056000000000000
B0548493132277S11700578EA0098001047000000000000
B0548533132211S11700579EA0096901036000000000000
B0548573132191S11700643EA0096901038000000000000
B0549013132243S11700699EA0096901036000000000000
B0549053132310S11700743EA0096201029000000000000
B0549093132379S11700790EA0096301034000000000000
B0549133132438S11700840EA0097001037000000000000
B0549173132498S11700890EA0096901037000000000000
B0549213132558S11700938EA0096701034000000000000
B0549253132614S11700990EA0097101038000000000000
B0549293132683S11701001EA0097801042000000000000
B0549333132735S11700935EA0097901043000000000000
B0549373132726S11700842EA0096801030000000000000
B0549413132657S11700783EA0095301017000000000000
B0549453132574S11700754EA0094001000000000000000
B0549493132485S11700739EA0092600995000000000000
B0549533132393S11700730EA0092100983000000000000
B0549573132302S11700725EA0091900989000000000000
B0550013132212S11700722EA0092901003000000000000
B0550053132132S11700718EA0095001019000000000000
B0550093132054S11700717EA0096601034000000000000
B0550133131977S11700718EA0097101032000000000000
B0550173131903S11700727EA0098101050000000000000
B0550213131856S11700769EA0100601073000000000000
B0550253131890S11700803EA0102801094000000000000
B0550293131929S11700745EA0103801105000000000000
B0550333131899S11700675EA0105101120000000000000
B0550373131839S11700676EA0106301132000000000000
B0550413131829S11700735EA0108901160000000000000
B0550453131874S11700756EA0110601182000000000000
B0550493131924S11700702EA0111601195000000000000
B0550533131916S11700619EA0112701212000000000000
B0550573131860S11700570EA0114101226000000000000
B0551013131808S11700597EA0115901245000000000000
B0551053131821S11700649EA0118401273000000000000
B0551093131874S11700648EA0120601294000000015000
B0551133131908S11700585EA0122101311000000000000
B0551173131883S11700511EA0123001318000000000000
B0551213131818S11700497EA0124401335000000000000
B0551253131787S11700550EA0126801356000000000000
B0551293131816S11700598EA0128901376000000000000
B0551333131872S11700587EA0130301397000000000000
B0551373131890S11700515EA0132201416000000000000
B0551413131842S11700461EA0133701429000000000000
B0551453131786S11700484EA0135501452000000000000
B0551493131797S11700537EA0138001473000000000000
B0551533131855S11700532EA0139201486000000000000
B0551573131886S11700463EA0140901506000000000000
B0552013131855S11700392EA0142601522000000000000
B0552053131791S11700375EA0144701546000000000000
B0552093131748S11700419EA0147201570000000000000
B0552133131768S11700475EA0149101586000000000000
B0552173131825S11700478EA0150601604000000000000
B0552213131857S11700410EA0152401625000000000000
B0552253131822S11700342EA0154301648000000000000
B0552293131758S11700337EA0156301669000000000000
B0552333131729S11700396EA0158501685000000000000
B0552373131766S11700444EA0160101705000000000000
B0552413131825S11700427EA0161701719000000000000
B0552453131839S11700349EA0162801736000000000000
B0552493131791S11700285EA0165201762000000000000
B0552533131726S11700294EA0167501782000000000000
B0552573131700S11700357EA0169301797000000000000
B0553013131730S11700422EA0169801805000000000000
B0553053131790S11700419EA0172201832000000000000
B0553093131803S11700348EA0174501853000000000000
B0553133131749S11700299EA0176101865000000000000
B0553173131697S11700333EA0177101878000000000000
B0553213131704S11700402EA0178301890000000000000
B0553253131761S11700420EA0180601912000000000000
B0553293131813S11700374EA0181401921000000000000
B0553333131813S11700292EA0183001949000000000000
B0553373131761S11700250EA0185701968000000000000
B0553413131718S11700289EA0186701976000000000000
B0553453131748S11700355EA0186601974000000000000
B0553493131816S11700340EA0188202001000000000000
B0553533131830S11700258EA0191102030000000000000
B0553573131784S11700198EA0193102047000000000000
B0554013131729S11700219EA0194702062000000000000
B0554053131726S11700293EA0196002076000000000000
B0554093131775S11700337EA0197702089000000000000
B0554133131835S11700307EA0199802118000000000000
B0554173131843S11700234EA0202802147000000000000
B0554213131796S11700184EA0204202158000000000000
B0554253131739S11700203EA0205002167000000000000
B0554293131735S11700279EA0205702176000000000000
B0554333131790S11700314EA0207202192000000000000
B0554373131849S11700270EA0208102206000000000000
B0554413131861S11700189EA0210302227000000000000
B0554453131817S11700121EA0211202234000000000000
B0554493131752S11700125EA0212302250000000000000
B0554533131732S11700194EA0214702270000000000000
B0554573131773S11700251EA0215502276000000000000
B0555013131839S11700246EA0216202286000000000000
B0555053131894S11700188EA0217202298000000000000
B0555093131896S11700101EA0218402311000000000000
B0555133131842S11700037EA0219102318000000000000
B0555173131765S11700017EA0218502306000000000000
B0555213131673S11700015EA0215802281000000000000
B0555253131570S11700025EA0214902263000000000000
B0555293131456S11700043EA0210902213000000015000
B0555333131340S11700065EA0207902189000000015000
B0555373131225S11700093EA0206902181000000015000
B0555413131114S11700123EA0206102176000000000000
B0555453131001S11700154EA0205102164000000000000
B0555493130887S11700186EA0204302169000000000000
B0555533130780S11700218EA0206802193000000000000
B0555573130676S11700241EA0208902224000000000000
B0556013130585S11700255EA0214002271000000015000
B0556053130499S11700266EA0215202265000000000000
B0556093130401S11700273EA0211002210000000000000
B0556133130284S11700280EA0205502165000000000000
B0556173130167S11700288EA0204202158000000015000
B0556213130052S11700298EA0201502117000000000000
B0556253129931S11700310EA0200202109000000000000
B0556293129819S11700318EA0201302118000000000000
B0556333129712S11700324EA0200702106000000000000
B0556373129603S11700332EA0198002075000000000000
B0556413129495S11700338EA0197302074000000015000
B0556453129387S11700345EA0194702037000000015000
B0556493129274S11700353EA0192802025000000000000
B0556533129166S11700358EA0192402022000000000000
B0556573129058S11700362EA0191101999000000000000
B0557013128947S11700364EA0188101971000000015000
B0557053128836S11700368EA0187101963000000015000
B0557093128727S11700370EA0185301942000000000000
B0557133128614S11700372EA0182801922000000000000
B0557173128498S11700376EA0180401897000000015000
B0557213128388S11700380EA0180301899000000015000
B0557253128280S11700384EA0179901889000000000000
B0557293128170S11700388EA0177501853000000000000
B0557333128056S11700390EA0174601836000000000000
B0557373127943S11700390EA0174201831000000000000
B0557413127831S11700389EA0172501806000000000000
B0557453127712S11700388EA0169301777000000015000
B0557493127595S11700388EA0167801768000000015000
B0557533127481S11700389EA0167601760000000000000
B0557573127367S11700392EA0165901744000000000000
B0558013127253S11700397EA0164301729000000000000
B0558053127142S11700402EA0164001733000000000000
B0558093127036S11700405EA0163901723000000000000
B0558133126926S11700407EA0162601709000000000000
B0558173126821S11700409EA0161801710000000000000
B0558213126725S11700414EA0163001717000000000000
B0558253126631S11700420EA0162201701000000000000
B0558293126532S11700424EA0159801676000000000000
B0558333126428S11700426EA0157401651000000000000
B0558373126326S11700424EA0155401638000000000000
B0558413126227S11700419EA0154301621000000000000
B0558453126126S11700418EA0152301589000000000000
B0558493126023S11700420EA0150301582000000000000
B0558533125924S11700420EA0149901578000000000000
B0558573125830S11700413EA0149701576000000000000
B0559013125737S11700402EA0149601574000000000000
B0559053125656S11700397EA0152801619000000000000
B0559093125594S11700389EA0155701649000000000000
B0559133125539S11700403EA0156101640000000000000
B0559173125487S11700444EA0154301623000000000000
B0559213125425S11700485EA0153601619000000000000
B0559253125352S11700513EA0153301619000000000000
B0559293125271S11700511EA0153601626000000000000
B0559333125188S11700493EA0154301632000000000000
B0559373125109S11700474EA0154801639000000000000
B0559413125032S11700453EA0154301631000000000000
B0559453124953S11700429EA0153301616000000000000
B0559493124870S11700402EA0151401593000000000000
B0559533124784S11700372EA0149101575000000000000
B0559573124698S11700338EA0147401563000000000000
B0600013124616S11700302EA0147401569000000000000
B0600053124541S11700263EA0148601581000000000000
B0600093124469S11700227EA0149601588000000000000
B0600133124399S11700186EA0150101591000000000000
B0600173124333S11700142EA0150801601000000000000
B0600213124270S11700101EA0151901609000000000000
B0600253124209S11700054EA0152301615000000000000
B0600293124153S11700002EA0154001639000000000000
B0600333124094S11659978EA0155901653000000000000
B0600373124073S11700033EA0156601664000000000000
B0600413124133S11700060EA0158401687000000000000
B0600453124191S11700010EA0160601707000000000000
B0600493124207S11659926EA0161701715000000000000
B0600533124169S11659850EA0162201720000000000000
B0600573124104S11659818EA0163101734000000000000
B0601013124044S11659846EA0164001741000000000000
B0601053124018S11659913EA0165101751000000000000
B0601093124049S11659977EA0166701769000000000000
B0601133124116S11700003EA0168101783000000000000
B0601173124178S11659954EA0170101806000000000000
B0601213124189S11659868EA0171601832000000000000
B0601253124150S11659809EA0174101853000000000000
B0601293124095S11659807EA0175601865000000000000
B0601333124068S11659859EA0176801880000000000000
B0601373124100S11659911EA0178601895000000000000
B0601413124166S11659909EA0179401904000000000000
B0601453124221S11659847EA0180501917000000000000
B0601493124229S11659763EA0182201935000000000000
B0601533124194S11659692EA0183501945000000000000
B0601573124131S11659662EA0183601943000000000000
B0602013124068S11659683EA0183401945000000000000
B0602053124049S11659750EA0184601962000000000000
B0602093124075S11659815EA0185901971000000000000
B0602133124129S11659861EA0187001987000000000000
B0602173124199S11659846EA0189002007000000000000
B0602213124241S11659773EA0190402020000000000000
B0602253124218S11659695EA0191502033000000000000
B0602293124157S11659668EA0192602044000000000000
B0602333124109S11659709EA0194202061000000000000
B0602373124109S11659777EA0196302080000000000000
B0602413124159S11659820EA0197302097000000000000
B0602453124229S11659799EA0199102107000000000000
B0602493124272S11659721EA0199202112000000000000
B0602533124263S11659633EA0200202128000000000000
B0602573124218S11659565EA0201602139000000000000
B0603013124155S11659522EA0201502128000000000000
B0603053124068S11659518EA0197402080000000000000
B0603093123965S11659548EA0195202072000000015000
B0603133123867S11659579EA0197002098000000000000
B0603173123782S11659613EA0200602132000000000000
B0603213123704S11659652EA0202602142000000000000
B0603253123626S11659690EA0202402140000000000000
B0603293123545S11659729EA0200502112000000000000
B0603333123461S11659769EA0198202097000000000000
B0603373123377S11659808EA0197302079000000000000
B0603413123286S11659841EA0194502046000000000000
B0603453123191S11659873EA0191802033000000000000
B0603493123098S11659900EA0191002021000000000000
B0603533123006S11659928EA0188901997000000000000
B0603573122912S11659958EA0187401985000000000000
B0604013122822S11659984EA0186801979000000000000
B0604053122731S11700007EA0185901966000000000000
B0604093122635S11700023EA0183901947000000000000
B0604133122538S11700034EA0183001936000000000000
B0604173122439S11700038EA0181701924000000000000
B0604213122337S11700039EA0180701913000000000000
B0604253122241S11700042EA0181201931000000000000
B0604293122155S11700043EA0183501951000000000000
B0604333122075S11700046EA0184701958000000000000
B0604373121994S11700046EA0185601970000000000000
B0604413121919S11700050EA0187201983000000000000
B0604453121842S11700055EA0187601986000000000000
B0604493121764S11700054EA0188502002000000000000
B0604533121691S11700054EA0190102021000000000000
B0604573121626S11700055EA0192602044000000000000
B0605013121565S11700071EA0194002054000000000000
B0605053121500S11700099EA0194402052000000000000
B0605093121426S11700133EA0192402023000000000000
B0605133121335S11700173EA0189402004000000000000
B0605173121241S11700216EA0188201990000000000000
B0605213121143S11700258EA0186801979000000000000
B0605253121044S11700299EA0185001958000000000000
B0605293120945S11700342EA0183001941000000000000
B0605333120844S11700383EA0181401923000000000000
B0605373120745S11700420EA0180901922000000000000
B0605413120649S11700457EA0180401914000000000000
B0605453120556S11700493EA0179701901000000000000
B0605493120463S11700527EA0177801883000000000000
B0605533120370S11700562EA0176901880000000000000
B0605573120281S11700593EA0176401870000000000000
B0606013120192S11700623EA0175801865000000000000
B0606053120105S11700650EA0174901853000000000000
B0606093120018S11700679EA0173701840000000000000
B0606133119928S11700706EA0172301826000000000000
B0606173119841S11700735EA0172101835000000000000
B0606213119770S11700767EA0175201876000000000000
B0606253119710S11700800EA0178201887000000000000
B0606293119652S11700840EA0178101884000000000000
B0606333119600S11700884EA0180101923000000000000
B0606373119572S11700938EA0183801951000000000000
B0606413119618S11700973EA0185201956000000000000
B0606453119675S11700923EA0185101957000000000000
B0606493119671S11700840EA0185401965000000000000
B0606533119620S11700801EA0187301989000000000000
B0606573119566S11700814EA0189302006000000000000
B0607013119548S11700873EA0190802019000000000000
B0607053119597S11700917EA0191802025000000000000
B0607093119659S11700882EA0192202032000000000000
B0607133119659S11700804EA0193002042000000000000
B0607173119601S11700778EA0192402030000000000000
B0607213119520S11700797EA0190002008000000000000
B0607253119436S11700830EA0190102012000000000000
B0607293119347S11700865EA0189701994000000000000
B0607333119249S11700901EA0186901970000000000000
B0607373119148S11700940EA0185701963000000000000
B0607413119048S11700981EA0184301947000000000000
B0607453118950S11701021EA0183601943000000000000
B0607493118851S11701060EA0182201919000000000000
B0607533118747S11701098EA0179601897000000000000
B0607573118643S11701134EA0178401886000000000000
B0608013118539S11701165EA0177501875000000000000
B0608053118435S11701199EA0176101862000000000000
B0608093118332S11701233EA0174001836000000000000
B0608133118228S11701274EA0172501822000000000000
B0608173118125S11701317EA0170801805000000000000
B0608213118024S11701356EA0170001806000000000000
B0608253117925S11701390EA0170701817000000000000
B0608293117834S11701420EA0172601826000000000000
B0608333117741S11701447EA0170901801000000000000
B0608373117642S11701476EA0168401780000000000000
B0608413117542S11701505EA0166901769000000000000
B0608453117444S11701533EA0166401767000000000000
B0608493117352S11701564EA0166601766000000000000
B0608533117261S11701599EA0166301766000000000000
B0608573117178S11701637EA0167601780000000000000
B0609013117102S11701679EA0167501768000000000000
B0609053117026S11701727EA0165901754000000000000
B0609093116948S11701775EA0165101746000000000000
B0609133116864S11701823EA0163201722000000000000
B0609173116775S11701870EA0161301704000000000000
B0609213116681S11701914EA0159801697000000000000
B0609253116593S11701960EA0159901702000000000000
B0609293116513S11702013EA0160201702000000000000
B0609333116442S11702075EA0159901696000000000000
B0609373116374S11702142EA0159101687000000000000
B0609413116305S11702204EA0157701665000000000000
B0609453116222S11702253EA0155601642000000000000
B0609493116123S11702282EA0153601621000000000000
B0609533116015S11702291EA0151301598000000000000
B0609573115905S11702292EA0149701589000000000000
B0610013115796S11702287EA0148801578000000000000
B0610053115687S11702275EA0147201569000000000000
B0610093115583S11702264EA0147601569000000000000
B0610133115481S11702255EA0147301569000000000000
B0610173115395S11702247EA0150201611000000000000
B0610213115323S11702239EA0154201640000000000000
B0610253115254S11702218EA0155701646000000000000
B0610293115193S11702164EA0156101663000000000000
B0610333115143S11702104EA0158001671000000000000
B0610373115105S11702031EA0158001663000000000000
B0610413115046S11701979EA0156101643000000000000
B0610453114962S11701982EA0154801643000000000000
B0610493114882S11702000EA0156601661000000000000
B0610533114805S11702023EA0157301659000000015000
B0610573114730S11702049EA0159001679000000015000
B0611013114679S11702097EA0162301713000000015000
B0611053114723S11702139EA0164401728000000015000
B0611093114788S11702088EA0163701724000000015000
B0611133114782S11702000EA0164601751000000000000
B0611173114730S11701957EA0167801780000000000000
B0611213114680S11701975EA0169401788000000000000
B0611253114682S11702036EA0169901795000000000000
B0611293114741S11702054EA0171501812000000000000
B0611333114801S11702002EA0171801811000000000000
B0611373114806S11701911EA0172501830000000000000
B0611413114757S11701865EA0175301859000000000000
B0611453114722S11701895EA0177201870000000000000
B0611493114751S11701948EA0178001883000000000000
B0611533114810S11701936EA0180101907000000000000
B0611573114834S11701866EA0181901925000000000000
B0612013114796S11701810EA0183401938000000000000
B0612053114741S11701818EA0184101943000000000000
B0612093114728S11701875EA0185701964000000000000
B0612133114770S11701904EA0187501987000000000000
B0612173114822S11701866EA0188301990000000000000
B0612213114819S11701791EA0189402008000000000000
B0612253114770S11701746EA0190702015000000000000
B0612293114710S11701758EA0190902017000000000000
B0612333114674S11701818EA0191802033000000000000
B0612373114702S11701870EA0193702044000000000000
B0612413114766S11701845EA0192502032000000000000
B0612453114780S11701755EA0193102049000000000000
B0612493114728S11701696EA0194902067000000000000
B0612533114657S11701676EA0194102046000000000000
B0612573114567S11701687EA0191202020000000000000
B0613013114467S11701705EA0190502018000000000000
B0613053114363S11701727EA0187601977000000000000
B0613093114250S11701755EA0183901952000000000000
B0613133114141S11701780EA0183301940000000000000
B0613173114030S11701802EA0181701928000000000000
B0613213113925S11701824EA0181201926000000000000
B0613253113822S11701846EA0180701911000000000000
B0613293113716S11701865EA0178301885000000000000
B0613333113607S11701883EA0175901867000000000000
B0613373113499S11701904EA0175001856000000000000
B0613413113391S11701924EA0173501843000000000000
B0613453113282S11701941EA0172801834000000000000
B0613493113172S11701956EA0171501814000000000000
B0613533113066S11701982EA0171101820000000000000
B0613573112964S11702009EA0172201834000000000000
B0614013112871S11702036EA0174201860000000000000
B0614053112788S11702058EA0177601894000000000000
B0614093112713S11702079EA0180901922000000000000
B0614133112642S11702100EA0182601936000000000000
B0614173112570S11702123EA0183201939000000000000
B0614213112502S11702153EA0183601944000000000000
B0614253112434S11702187EA0184201946000000000000
B0614293112362S11702220EA0183801942000000000000
B0614333112278S11702234EA0183901953000000000000
B0614373112195S11702231EA0186101980000000000000
B0614413112112S11702223EA0187801978000000000000
B0614453112022S11702203EA0185601948000000000000
B0614493111923S11702173EA0183401929000000000000
B0614533111824S11702142EA0182001925000000000000
B0614573111727S11702103EA0181101906000000000000
B0615013111627S11702054EA0178101876000000000000
B0615053111524S11702000EA0175701863000000000000
B0615093111423S11701948EA0175201858000000000000
B0615133111325S11701900EA0174401852000000000000
B0615173111230S11701854EA0174901857000000000000
B0615213111144S11701800EA0175701863000000000000
B0615253111061S11701758EA0175901865000000000000
B0615293111001S11701801EA0176801873000000000000
B0615333111031S11701891EA0176201853000000000000
B0615373111111S11701944EA0173001820000000000000
B0615413111207S11701983EA0170001798000000000000
B0615453111307S11702014EA0168601785000000000000
B0615493111407S11702045EA0167801777000000000000
B0615533111504S11702070EA0166801769000000000000
B0615573111602S11702093EA0166101761000000000000
B0616013111697S11702113EA0165801756000000000000
B0616053111793S11702131EA0164701739000000000000
B0616093111891S11702151EA0162801726000000000000
B0616133111987S11702166EA0162501723000000000000
B0616173112083S11702177EA0161901714000000000000
B0616213112179S11702184EA0161601715000000000000
B0616253112270S11702188EA0163301740000000000000
B0616293112346S11702181EA0166601775000000000000
B0616333112411S11702151EA0169801801000000000000
B0616373112429S11702077EA0171701819000000000000
B0616413112385S11702023EA0172901834000000000000
B0616453112330S11702036EA0175101856000000000000
B0616493112312S11702093EA0177301876000000000000
B0616533112343S11702149EA0178801890000000000000
B0616573112403S11702158EA0180801916000000000000
B0617013112438S11702096EA0181901926000000000000
B0617053112399S11702038EA0182901945000000000000
B0617093112355S11702062EA0185401971000000000000
B0617133112365S11702121EA0187701996000000000000
B0617173112424S11702131EA0189702012000000000000
B0617213112459S11702062EA0190902024000000000000
B0617253112418S11702005EA0192202044000000000000
B0617293112369S11702027EA0194702068000000000000
B0617333112370S11702090EA0196802090000000000000
B0617373112429S11702105EA0199002111000000015000
B0617413112469S11702040EA0200902132000000015000
B0617453112439S11701975EA0203302157000000015000
B0617493112386S11701979EA0205302175000000000000
B0617533112374S11702040EA0207102195000000000000
B0617573112421S11702082EA0209202218000000015000
B0618013112485S11702060EA0211602242000000015000
B0618053112515S11701986EA0213302261000000000000
B0618093112482S11701919EA0215102282000000000000
B0618133112426S11701914EA0216902298000000000000
B0618173112394S11701969EA0218302315000000000000
B0618213112422S11702025EA0220402337000000000000
B0618253112483S11702010EA0222602357000000015000
B0618293112502S11701932EA0224502378000000000000
B0618333112455S11701893EA0226802401000000000000
B0618373112413S11701928EA0228702416000000000000
B0618413112426S11701989EA0230102432000000000000
B0618453112483S11702008EA0231602447000000000000
B0618493112537S11701953EA0231602442000000000000
B0618533112539S11701863EA0232802475000000000000
B0618573112491S11701846EA0236902510000000000000
B0619013112468S11701896EA0238502522000000000000
B0619053112500S11701950EA0240302545000000000000
B0619093112564S11701961EA0241702551000000000000
B0619133112626S11701909EA0242102559000000000000
B0619173112626S11701823EA0243402571000000000000
B0619213112569S11701796EA0245502594000000000000
B0619253112547S11701849EA0248002620000000000000
B0619293112591S11701895EA0250402641000000000000
B0619333112661S11701870EA0251402653000000000000
B0619373112690S11701785EA0252302664000000000000
B0619413112648S11701715EA0253302680000000000000
B0619453112586S11701705EA0255002695000000000000
B0619493112542S11701749EA0255802703000000000000
B0619533112541S11701826EA0257402725000000000000
B0619573112582S11701889EA0259302734000000000000
B0620013112658S11701917EA0258302723000000015000
B0620053112758S11701913EA0254502682000000015000
B0620093112871S11701893EA0253002678000000015000
B0620133112981S11701863EA0253802689000000015000
B0620173113087S11701827EA0255302705000000015000
B0620213113185S11701785EA0257402724000000000000
B0620253113280S11701748EA0259002736000000000000
B0620293113375S11701710EA0259702737000000000000
B0620333113474S11701680EA0259402713000000000000
B0620373113586S11701663EA0256202675000000000000
B0620413113709S11701655EA0253402661000000000000
B0620453113828S11701646EA0253602667000000000000
B0620493113942S11701641EA0253802664000000000000
B0620533114058S11701640EA0252902660000000000000
B0620573114169S11701640EA0253302662000000000000
B0621013114280S11701642EA0252502651000000000000
B0621053114392S11701646EA0251502641000000000000
B0621093114501S11701648EA0251502645000000000000
B0621133114608S11701649EA0251202638000000000000
B0621173114717S11701651EA0250702631000000000000
B0621213114827S11701657EA0249602616000000000000
B0621253114940S11701663EA0248402608000000000000
B0621293115056S11701670EA0247502599000000000000
B0621333115169S11701671EA0247402601000000000000
B0621373115282S11701671EA0247302598000000000000
B0621413115395S11701667EA0247402601000000000000
B0621453115507S11701663EA0246902592000000000000
B0621493115622S11701662EA0245702565000000000000
B0621533115741S11701663EA0243402558000000000000
B0621573115853S11701667EA0243902564000000015000
B0622013115960S11701670EA0243602549000000000000
B0622053116073S11701668EA0241002513000000000000
B0622093116191S11701674EA0237702495000000015000
B0622133116304S11701679EA0238102507000000000000
B0622173116411S11701684EA0238302501000000000000
B0622213116520S11701689EA0236402476000000000000
B0622253116634S11701690EA0233902457000000000000
B0622293116750S11701688EA0232602445000000000000
B0622333116866S11701680EA0231102430000000000000
B0622373116981S11701668EA0230202422000000000000
B0622413117094S11701655EA0229402412000000000000
B0622453117209S11701642EA0228402400000000000000
B0622493117325S11701631EA0227102391000000000000
B0622533117438S11701619EA0227202392000000000000
B0622573117547S11701606EA0226502381000000000000
B0623013117656S11701590EA0225902379000000000000
B0623053117763S11701577EA0225302365000000000000
B0623093117872S11701571EA0223602346000000000000
B0623133117981S11701567EA0222302336000000000000
B0623173118090S11701559EA0221602330000000000000
B0623213118201S11701547EA0220402312000000000000
B0623253118311S11701524EA0218702296000000000000
B0623293118424S11701492EA0217002278000000000000
B0623333118537S11701463EA0215902273000000000000
B0623373118648S11701438EA0215702268000000000000
B0623413118757S11701423EA0214602255000000000000
B0623453118869S11701414EA0212902236000000000000
B0623493118981S11701406EA0211702225000000000000
B0623533119091S11701399EA0210702218000000000000
B0623573119202S11701393EA0210002210000000000000
B0624013119312S11701389EA0208702197000000000000
B0624053119423S11701384EA0207902190000000000000
B0624093119528S11701380EA0208202191000000000000
B0624133119633S11701378EA0207102179000000000000
B0624173119733S11701377EA0207402189000000000000
B0624213119821S11701375EA0209302208000000000000
B0624253119902S11701373EA0210002211000000000000
B0624293119982S11701368EA0210102213000000000000
B0624333120062S11701360EA0210202209000000000000
B0624373120146S11701354EA0209402202000000000000
B0624413120229S11701347EA0208202187000000000000
B0624453120317S11701337EA0206802171000000000000
B0624493120411S11701326EA0205102154000000000000
B0624533120507S11701317EA0203802145000000000000
B0624573120602S11701308EA0203002137000000000000
B0625013120697S11701303EA0202202126000000000000
B0625053120792S11701298EA0200802116000000000000
B0625093120885S11701294EA0200202101000000000000
B0625133120980S11701295EA0199102097000000000000
B0625173121074S11701300EA0200402116000000000000
B0625213121157S11701304EA0203102140000000000000
B0625253121235S11701306EA0203802145000000000000
B0625293121316S11701306EA0203902145000000000000
B0625333121397S11701303EA0203602142000000000000
B0625373121475S11701294EA0204002146000000000000
B0625413121552S11701280EA0203702140000000000000
B0625453121629S11701251EA0202502127000000000000
B0625493121707S11701207EA0201902122000000000000
B0625533121794S11701174EA0200702111000000000000
B0625573121882S11701157EA0201102122000000000000
B0626013121963S11701138EA0202602140000000000000
B0626053122041S11701121EA0204202151000000000000
B0626093122116S11701105EA0204602160000000000000
B0626133122190S11701091EA0205702168000000000000
B0626173122263S11701074EA0206102165000000000000
B0626213122337S11701060EA0205602167000000000000
B0626253122413S11701051EA0206302177000000000000
B0626293122486S11701048EA0207102181000000000000
B0626333122560S11701050EA0207302183000000000000
B0626373122635S11701051EA0208002193000000000000
B0626413122708S11701055EA0209302207000000000000
B0626453122782S11701060EA0210502216000000000000
B0626493122856S11701072EA0210602215000000000000
B0626533122934S11701096EA0210302211000000000000
B0626573123016S11701125EA0210102215000000000000
B0627013123099S11701150EA0210802220000000000000
B0627053123178S11701181EA0211502231000000000000
B0627093123258S11701212EA0211902229000000000000
B0627133123342S11701239EA0211002219000000000000
B0627173123433S11701264EA0210402209000000000000
B0627213123527S11701289EA0208402188000000000000
B0627253123620S11701316EA0206802178000000000000
B0627293123713S11701339EA0206502173000000000000
B0627333123801S11701367EA0205502158000000000000
B0627373123892S11701390EA0204402151000000000000
B0627413123984S11701410EA0203702143000000000000
B0627453124078S11701429EA0201902119000000000000
B0627493124178S11701450EA0199402096000000000000
B0627533124280S11701471EA0198002090000000000000
B0627573124378S11701490EA0198102092000000000000
B0628013124475S11701511EA0197902080000000000000
B0628053124571S11701533EA0196802075000000000000
B0628093124668S11701550EA0196202061000000000000
B0628133124768S11701567EA0193202025000000000000
B0628173124868S11701590EA0190702006000000000000
B0628213124967S11701612EA0189201987000000000000
B0628253125067S11701644EA0187201967000000000000
B0628293125166S11701679EA0186001965000000000000
B0628333125262S11701716EA0187001976000000000000
B0628373125356S11701749EA0188001990000000000000
B0628413125444S11701785EA0189702008000000000000
B0628453125525S11701826EA0190602002000000000000
B0628493125617S11701846EA0188501984000000000000
B0628533125717S11701853EA0187101974000000000000
B0628573125812S11701863EA0187601994000000000000
B0629013125890S11701872EA0190302009000000000000
B0629053125968S11701869EA0191202014000000000000
B0629093126045S11701833EA0190402000000000000000
B0629133126124S11701787EA0188501985000000000000
B0629173126209S11701737EA0186301957000000000000
B0629213126300S11701687EA0184001937000000000000
B0629253126392S11701635EA0182901926000000000000
B0629293126486S11701586EA0181401909000000000000
B0629333126581S11701544EA0179601891000000000000
B0629373126677S11701498EA0177901877000000000000
B0629413126769S11701446EA0177301866000000000000
B0629453126861S11701395EA0175801853000000000000
B0629493126951S11701343EA0175201849000000000000
B0629533127037S11701294EA0174801845000000000000
B0629573127123S11701245EA0175201854000000000000
B0630013127202S11701198EA0176501864000000000000
B0630053127283S11701150EA0176101854000000000000
B0630093127371S11701099EA0174001830000000000000
B0630133127467S11701048EA0171701812000000000000
B0630173127569S11701004EA0170201795000000000000
B0630213127671S11700965EA0168801783000000000000
B0630253127774S11700929EA0168101776000000000000
B0630293127875S11700895EA0167601770000000000000
B0630333127977S11700864EA0166701754000000000000
B0630373128078S11700831EA0165101744000000000000
B0630413128176S11700797EA0164701740000000000000
B0630453128271S11700758EA0164201731000000000000
B0630493128368S11700719EA0162901722000000000000
B0630533128463S11700682EA0162501720000000000000
B0630573128554S11700643EA0162901725000000000000
B0631013128640S11700601EA0162901724000000000000
B0631053128720S11700558EA0163701736000000000000
B0631093128796S11700518EA0164901745000000000000
B0631133128872S11700480EA0165801753000000000000
B0631173128952S11700441EA0166301766000000000000
B0631213129026S11700398EA0167801786000000000000
B0631253129084S11700341EA0169701800000000000000
B0631293129083S11700254EA0169901798000000000000
B0631333129019S11700219EA0169801799000000000000
B0631373128975S11700271EA0169901801000000000000
B0631413128978S11700350EA0170701812000000000000
B0631453128989S11700428EA0171901823000000000000
B0631493129035S11700480EA0173401840000000000000
B0631533129104S11700459EA0174201849000000000000
B0631573129132S11700387EA0175301862000000000000
B0632013129106S11700318EA0176001865000000000000
B0632053129047S11700293EA0175701863000000000000
B0632093128983S11700314EA0175701864000000000000
B0632133128928S11700359EA0176701882000000000000
B0632173128943S11700416EA0179701911000000000000
B0632213129000S11700407EA0181001921000000015000
B0632253129019S11700336EA0181301930000000000000
B0632293128974S11700286EA0182701944000000000000
B0632333128922S11700309EA0183901958000000000000
B0632373128917S11700372EA0185601973000000000000
B0632413128960S11700416EA0186601983000000000000
B0632453129022S11700410EA0187001983000000015000
B0632493129086S11700363EA0186501971000000000000
B0632533129164S11700323EA0184901959000000000000
B0632573129248S11700293EA0184201950000000000000
B0633013129339S11700268EA0182501926000000000000
B0633053129438S11700249EA0180401914000000000000
B0633093129535S11700233EA0180701922000000000000
B0633133129628S11700221EA0181601927000000000000
B0633173129721S11700211EA0181701930000000000000
B0633213129816S11700201EA0182001932000000000000
B0633253129909S11700188EA0182601950000000000000
B0633293129987S11700159EA0185901982000000000000
B0633333130037S11700082EA0187801991000000000000
B0633373130087S11659997EA0188101989000000000000
B0633413130166S11659948EA0188501999000000000000
B0633453130247S11659937EA0189202003000000000000
B0633493130334S11659942EA0185601956000000000000
B0633533130434S11659972EA0181401918000000000000
B0633573130535S11700016EA0178201895000000000000
B0634013130631S11700063EA0177101885000000000000
B0634053130725S11700110EA0176201875000000000000
B0634093130816S11700156EA0175501866000000000000
B0634133130906S11700205EA0174001852000000000000
B0634173130993S11700255EA0173301845000000000000
B0634213131077S11700305EA0172501833000000000000
B0634253131159S11700354EA0171301817000000000000
B0634293131242S11700403EA0169801805000000000000
B0634333131322S11700453EA0168701790000000000000
B0634373131397S11700505EA0168301789000000000000
B0634413131467S11700558EA0169001797000000000000
B0634453131534S11700614EA0169101793000000000000
B0634493131602S11700675EA0167601770000000000000
B0634533131673S11700741EA0165401752000000000000
B0634573131743S11700809EA0163901740000000000000
B0635013131813S11700874EA0162601726000000000000
B0635053131885S11700942EA0160501702000000000000
B0635093131957S11701016EA0158501685000000000000
B0635133132031S11701090EA0157001669000000000000
B0635173132104S11701161EA0157201676000000000000
B0635213132173S11701224EA0159201701000000000000
B0635253132241S11701271EA0161101723000000000000
B0635293132304S11701308EA0164201754000000000000
B0635333132362S11701345EA0166701774000000000000
B0635373132421S11701378EA0167301776000000000000
B0635413132468S11701429EA0169201802000000000000
B0635453132446S11701482EA0172101834000000000000
B0635493132390S11701463EA0173601846000000000000
B0635533132367S11701391EA0173901844000000000000
B0635573132390S11701316EA0174001846000000000000
B0636013132442S11701271EA0175401859000000000000
B0636053132503S11701268EA0176501872000000000000
B0636093132562S11701289EA0177701895000000000000
B0636133132585S11701341EA0180601923000000000000
B0636173132541S11701373EA0183101953000000000000
B0636213132488S11701337EA0186101978000000000000
B0636253132468S11701264EA0187601990000000000000
B0636293132494S11701186EA0188902007000000000000
B0636333132550S11701139EA0190902025000000000000
B0636373132609S11701150EA0193702059000000000000
B0636413132632S11701198EA0196702085000000000000
B0636453132611S11701255EA0197702093000000000000
B0636493132551S11701268EA0200302125000000000000
B0636533132501S11701221EA0202602152000000000000
B0636573132490S11701141EA0204502168000000000000
B0637013132529S11701072EA0206302188000000000000
B0637053132590S11701046EA0208502210000000000000
B0637093132640S11701076EA0210902234000000000000
B0637133132648S11701137EA0212902249000000000000
B0637173132601S11701181EA0213002254000000000000
B0637213132531S11701152EA0214902279000000000000
B0637253132498S11701070EA0217702305000000000000
B0637293132523S11700987EA0219502330000000000000
B0637333132581S11700946EA0221902348000000000000
B0637373132645S11700953EA0223302362000000000000
B0637413132684S11701009EA0225002382000000000000
B0637453132674S11701073EA0226902403000000000000
B0637493132623S11701104EA0228702421000000000000
B0637533132561S11701076EA0230302434000000000000
B0637573132522S11701001EA0231702450000000000000
B0638013132523S11700912EA0233602469000000000000
B0638053132562S11700838EA0235602488000000000000
B0638093132620S11700793EA0236902506000000000000
B0638133132683S11700786EA0238902526000000000000
B0638173132732S11700816EA0240602541000000000000
B0638213132749S11700875EA0241402551000000000000
B0638253132720S11700929EA0243002565000000000000
B0638293132659S11700939EA0244202580000000000000
B0638333132600S11700897EA0245202586000000000000
B0638373132579S11700816EA0246102599000000000000
B0638413132613S11700740EA0248302617000000000000
B0638453132680S11700704EA0248602618000000000000
B0638493132761S11700700EA0247702611000000000000
B0638533132850S11700717EA0246802598000000000000
B0638573132944S11700745EA0245402586000000000000
B0639013133040S11700779EA0244302576000000000000
B0639053133138S11700818EA0244102582000000000000
B0639093133234S11700858EA0244702579000000000000
B0639133133328S11700903EA0244802579000000000000
B0639173133417S11700949EA0245102586000000000000
B0639213133506S11700996EA0244802579000000000000
B0639253133595S11701044EA0244502575000000000000
B0639293133688S11701091EA0243302564000000000000
B0639333133780S11701139EA0242302554000000000000
B0639373133875S11701187EA0241502541000000000000
B0639413133970S11701233EA0240202529000000000000
B0639453134067S11701281EA0238802510000000000000
B0639493134171S11701324EA0236802494000000000000
B0639533134278S11701362EA0235302477000000000000
B0639573134391S11701394EA0232802453000000000000
B0640013134507S11701421EA0231702443000000000000
B0640053134621S11701446EA0230502432000000000000
B0640093134730S11701469EA0230602439000000000000
B0640133134829S11701490EA0232102444000000000000
B0640173134927S11701506EA0231202435000000000000
B0640213135023S11701519EA0230702431000000000000
B0640253135119S11701532EA0230302425000000000000
B0640293135214S11701542EA0229302414000000000000
B0640333135309S11701553EA0227902403000000000000
B0640373135408S11701559EA0227402398000000000000
B0640413135504S11701572EA0227502398000000000000
B0640453135596S11701581EA0227702402000000000000
B0640493135688S11701586EA0227302391000000000000
B0640533135786S11701594EA0225402372000000000000
B0640573135887S11701601EA0223902356000000000000
B0641013135991S11701609EA0220902320000000000000
B0641053136098S11701614EA0219902324000000000000
B0641093136199S11701620EA0219102305000000000000
B0641133136308S11701623EA0216202278000000000000
B0641173136423S11701624EA0214902270000000000000
B0641213136539S11701624EA0214102260000000000000
B0641253136646S11701620EA0215202273000000000000
B0641293136754S11701618EA0214302253000000000000
B0641333136867S11701615EA0212602241000000000000
B0641373136983S11701612EA0211102227000000000000
B0641413137098S11701612EA0210802227000000000000
B0641453137205S11701611EA0211502237000000000000
B0641493137312S11701612EA0210602216000000000000
B0641533137425S11701614EA0208202192000000000000
B0641573137540S11701615EA0206202173000000000000
B0642013137653S11701620EA0205502172000000000000
B0642053137764S11701628EA0204702158000000000000
B0642093137878S11701645EA0202802131000000000000
B0642133137996S11701661EA0200902120000000000000
B0642173138112S11701668EA0200702126000000000000
B0642213138219S11701676EA0201202119000000000000
B0642253138333S11701688EA0199502106000000000000
B0642293138443S11701702EA0200002114000000000000
B0642333138551S11701703EA0200002118000000000000
B0642373138654S11701698EA0201002123000000000000
B0642413138759S11701697EA0200302110000000000000
B0642453138868S11701702EA0199202103000000000000
B0642493138979S11701698EA0198902102000000000000
B0642533139084S11701689EA0199802120000000000000
B0642573139185S11701679EA0200802119000000000000
B0643013139287S11701661EA0200502119000000000000
B0643053139387S11701638EA0199702096000000000000
B0643093139499S11701615EA0195902053000000000000
B0643133139617S11701593EA0192802031000000000000
B0643173139738S11701573EA0190502009000000000000
B0643213139852S11701553EA0190302025000000000000
B0643253139952S11701536EA0192802045000000000000
B0643293140051S11701515EA0192802038000000000000
B0643333140151S11701490EA0192402025000000000000
B0643373140258S11701469EA0190502007000000000000
B0643413140367S11701451EA0189001996000000000000
B0643453140479S11701436EA0188001980000000000000
B0643493140595S11701421EA0186001965000000000000
B0643533140708S11701412EA0185101956000000000000
B0643573140823S11701407EA0183301934000000000000
B0644013140943S11701402EA0181101909000000000000
B0644053141064S11701406EA0178801890000000000000
B0644093141183S11701416EA0177701874000000000000
B0644133141303S11701432EA0176401871000000000000
B0644173141410S11701445EA0178001893000000000000
B0644213141507S11701453EA0179701903000000000000
B0644253141606S11701450EA0179601899000000000000
B0644293141706S11701440EA0180101912000000000000
B0644333141801S11701430EA0181501924000000000000
B0644373141896S11701419EA0181601920000000000000
B0644413141992S11701408EA0181501923000000000000
B0644453142084S11701391EA0182001931000000000000
B0644493142177S11701375EA0183101936000000000000
B0644533142274S11701359EA0182901934000000000000
B0644573142374S11701347EA0182801932000000000000
B0645013142470S11701341EA0182001927000000000000
B0645053142568S11701333EA0180301910000000000000
B0645093142664S11701326EA0179101900000000000000
B0645133142759S11701319EA0178701897000000000000
B0645173142855S11701311EA0177101875000000000000
B0645213142954S11701308EA0176101872000000000000
B0645253143050S11701306EA0175801867000000000000
B0645293143146S11701307EA0175001852000000000000
B0645333143245S11701312EA0173201835000000000000
B0645373143343S11701321EA0171701822000000000000
B0645413143436S11701329EA0171201817000000000000
B0645453143527S11701336EA0170401803000000000000
B0645493143618S11701342EA0168601791000000000000
B0645533143707S11701346EA0168601792000000000000
B0645573143793S11701349EA0169001796000000000000
B0646013143876S11701356EA0169901806000000000000
B0646053143959S11701359EA0171001815000000000000
B0646093144038S11701360EA0171401822000000000000
B0646133144115S11701364EA0173301845000000000000
B0646173144185S11701362EA0175501865000000000000
B0646213144233S11701310EA0176601873000000000000
B0646253144209S11701230EA0176901879000000000000
B0646293144138S11701211EA0178701903000000000000
B0646333144092S11701248EA0181501930000000000000
B0646373144094S11701311EA0182501932000000000000
B0646413144146S11701349EA0182701936000000000000
B0646453144199S11701307EA0183301944000000000000
B0646493144185S11701233EA0184001953000000000000
B0646533144125S11701219EA0185101964000000000000
B0646573144082S11701268EA0186001975000000000000
B0647013144080S11701342EA0186701978000000000000
B0647053144123S11701394EA0187301990000000000000
B0647093144186S11701375EA0188101992000000000000
B0647133144223S11701306EA0188301997000000000000
B0647173144198S11701226EA0188801999000000000000
B0647213144131S11701186EA0188602003000000000000
B0647253144055S11701202EA0188201997000000000000
B0647293144010S11701267EA0188802004000000000000
B0647333144036S11701346EA0188301999000000000000
B0647373144105S11701399EA0186101978000000000000
B0647413144199S11701424EA0184301959000000000000
B0647453144301S11701447EA0182601938000000000000
B0647493144406S11701471EA0180501922000000000000
B0647533144509S11701494EA0180401931000000000000
B0647573144595S11701515EA0182401943000000000000
B0648013144673S11701531EA0183301947000000000000
B0648053144749S11701545EA0182901938000000000000
B0648093144827S11701560EA0181801925000000000000
B0648133144912S11701568EA0180701912000000000000
B0648173145000S11701571EA0178501889000000000000
B0648213145098S11701566EA0176401868000000000000
B0648253145200S11701550EA0175501863000000000000
B0648293145301S11701529EA0175601868000000000000
B0648333145395S11701503EA0176301880000000000000
B0648373145481S11701476EA0178201896000000000000
B0648413145562S11701456EA0179101897000000000000
B0648453145644S11701443EA0178801893000000000000
B0648493145727S11701424EA0177701878000000000000
B0648533145818S11701390EA0175601857000000000000
B0648573145915S11701349EA0174101850000000000000
B0649013146012S11701308EA0173901846000000000000
B0649053146109S11701268EA0173101839000000000000
B0649093146207S11701230EA0172801832000000000000
B0649133146305S11701190EA0170601805000000000000
B0649173146408S11701144EA0168801791000000000000
B0649213146507S11701096EA0168401792000000000000
B0649253146603S11701051EA0168301790000000000000
B0649293146698S11701004EA0168201792000000000000
B0649333146786S11700956EA0168301786000000000000
B0649373146876S11700909EA0167101776000000000000
B0649413146966S11700866EA0166301769000000000000
B0649453147054S11700825EA0166001766000000000000
B0649493147144S11700786EA0165501761000000000000
B0649533147234S11700754EA0165801760000000000000
B0649573147327S11700725EA0164701748000000000000
B0650013147421S11700695EA0163601736000000000000
B0650053147516S11700662EA0161401709000000000000
B0650093147615S11700637EA0159501693000000000000
B0650133147713S11700614EA0158001679000000000000
B0650173147810S11700592EA0157601674000000000000
B0650213147903S11700566EA0158001688000000000000
B0650253147985S11700540EA0160501709000000000000
B0650293148063S11700511EA0160801702000000000000
B0650333148148S11700484EA0159401691000000000000
B0650373148239S11700467EA0157901672000000000000
B0650413148332S11700450EA0156601665000000000000
B0650453148418S11700442EA0156501660000000000000
B0650493148505S11700439EA0155601653000000000000
B0650533148590S11700424EA0156301664000000000000
B0650573148665S11700392EA0157601676000000000000
B0651013148736S11700351EA0157701670000000000000
B0651053148814S11700310EA0155601642000000000000
B0651093148908S11700294EA0152701616000000000000
B0651133149007S11700301EA0151301611000000000000
B0651173149100S11700316EA0152601628000000000000
B0651213149193S11700332EA0153001626000000000000
B0651253149286S11700344EA0152701626000000000000
B0651293149379S11700358EA0152201616000000000000
B0651333149474S11700371EA0151001602000000000000
B0651373149568S11700385EA0149601587000000000000
B0651413149665S11700403EA0147901572000000000000
B0651453149757S11700424EA0147201563000000000000
B0651493149845S11700444EA0146601560000000000000
B0651533149931S11700463EA0146001548000000000000
B0651573150018S11700485EA0144401527000000000000
B0652013150107S11700509EA0142001506000000000000
B0652053150192S11700533EA0141401503000000000000
B0652093150274S11700557EA0140501491000000000000
B0652133150358S11700580EA0139301477000000000000
B0652173150439S11700608EA0138001465000000000000
B0652213150521S11700637EA0137201458000000000000
B0652253150601S11700674EA0136501450000000000000
B0652293150681S11700710EA0135801443000000000000
B0652333150763S11700749EA0134801434000000000000
B0652373150852S11700773EA0134201430000000000000
B0652413150940S11700788EA0133901425000000000000
B0652453151028S11700796EA0133201419000000000000
B0652493151117S11700786EA0133301419000000000000
B0652533151205S11700766EA0132101402000000000000
B0652573151297S11700740EA0130501389000000000000
B0653013151390S11700717EA0129301374000000000000
B0653053151485S11700708EA0127401353000000000000
B0653093151582S11700721EA0125601340000000000000
B0653133151677S11700740EA0124401325000000000000
B0653173151772S11700760EA0123101312000000000000
B0653213151866S11700779EA0122101299000000000000
B0653253151958S11700803EA0120401280000000000000
B0653293152051S11700832EA0118601263000000000000
B0653333152142S11700861EA0117601255000000000000
B0653373152233S11700890EA0116701245000000000000
B0653413152322S11700920EA0116201241000000000000
B0653453152406S11700949EA0115201228000000000000
B0653493152490S11700979EA0114301222000000000000
B0653533152570S11701007EA0114401223000000000000
B0653573152647S11701034EA0114201218000000000000
B0654013152725S11701065EA0113201203000000000000
B0654053152805S11701098EA0111401188000000000000
B0654093152885S11701133EA0111001184000000000000
B0654133152961S11701168EA0110301174000000000000
B0654173153039S11701200EA0108901160000000000000
B0654213153117S11701229EA0107701148000000000000
B0654253153198S11701254EA0106701138000000000000
B0654293153277S11701272EA0105701125000000000000
B0654333153357S11701284EA0104101106000000000000
B0654373153441S11701290EA0101701081000000000000
B0654413153530S11701297EA0100301075000000000000
B0654453153614S11701299EA0100701080000000000000
B0654493153693S11701298EA0101101079000000000000
B0654533153769S11701297EA0101401086000000000000
B0654573153838S11701295EA0102601088000000000000
B0655013153907S11701287EA0101801083000000000000
B0655053153977S11701267EA0102201090000000000000
B0655093154047S11701243EA0102901095000000000000
B0655133154118S11701221EA0102601088000000000000
B0655173154190S11701186EA0102201091000000000000
B0655213154212S11701107EA0103901111000000000000
B0655253154157S11701074EA0105401128000000000000
B0655293154124S11701121EA0106401138000000000000
B0655333154147S11701182EA0106301133000000000000
B0655373154213S11701211EA0106001135000000000000
B0655413154280S11701189EA0107801157000000000000
B0655453154272S11701125EA0110101183000000015000
B0655493154221S11701131EA0112301204000000015000
B0655533154216S11701187EA0113901220000000015000
B0655573154267S11701221EA0114001216000000000000
B0656013154320S11701183EA0115301241000000000000
B0656053154306S11701124EA0118101269000000015000
B0656093154255S11701113EA0119001281000000015000
B0656133154217S11701157EA0120401298000000000000
B0656173154225S11701221EA0121801302000000000000
B0656213154278S11701268EA0121601298000000000000
B0656253154351S11701274EA0122101310000000000000
B0656293154410S11701233EA0123501324000000000000
B0656333154421S11701164EA0124801336000000000000
B0656373154390S11701105EA0125501339000000000000
B0656413154330S11701081EA0125901348000000000000
B0656453154265S11701100EA0126901364000000000000
B0656493154221S11701152EA0128301375000000000000
B0656533154212S11701224EA0129401382000000000000
B0656573154241S11701294EA0129301383000000000000
B0657013154297S11701339EA0129501386000000000000
B0657053154365S11701349EA0129301383000000000000
B0657093154427S11701308EA0128801372000000000000
B0657133154473S11701235EA0127301355000000000000
B0657173154507S11701148EA0126001345000000000000
B0657213154527S11701059EA0126101349000000000000
B0657253154533S11700970EA0127001357000000000000
B0657293154534S11700884EA0127701362000000000000
B0657333154507S11700806EA0127701363000000000000
B0657373154450S11700771EA0129101383000000000000
B0657413154423S11700827EA0131201405000000000000
B0657453154455S11700891EA0133401430000000000000
B0657493154523S11700901EA0134801445000000000000
B0657533154581S11700849EA0135401450000000000000
B0657573154601S11700769EA0135801450000000000000
B0658013154577S11700689EA0135301446000000000000
B0658053154523S11700644EA0136401463000000000000
B0658093154466S11700650EA0137801475000000000000
B0658133154427S11700704EA0138101478000000000000
B0658173154415S11700777EA0138501483000000000000
B0658213154438S11700851EA0139301491000000000000
B0658253154497S11700897EA0141001512000000000000
B0658293154568S11700884EA0142101520000000000000
B0658333154610S11700813EA0142001516000000000000
B0658373154602S11700722EA0142001515000000000000
B0658413154554S11700656EA0142501528000000000000
B0658453154489S11700630EA0143901542000000000000
B0658493154429S11700648EA0144901553000000000000
B0658533154397S11700708EA0145601557000000000000
B0658573154402S11700784EA0146301566000000000000
B0659013154442S11700853EA0146101562000000000000
B0659053154514S11700905EA0145801565000000000000
B0659093154594S11700940EA0146301571000000000000
B0659133154672S11700959EA0147801589000000000000
B0659173154745S11700972EA0148101574000000000000
B0659213154828S11700990EA0145401547000000000000
B0659253154919S11701012EA0143501532000000000000
B0659293155014S11701034EA0142301523000000000000
B0659333155110S11701056EA0141301514000000000000
B0659373155207S11701077EA0140901509000000000000
B0659413155301S11701091EA0141201513000000000000
B0659453155395S11701100EA0140801503000000000000
B0659493155493S11701104EA0140101491000000000000
B0659533155593S11701111EA0138101466000000000000
B0659573155694S11701126EA0136401460000000000000
B0700013155793S11701139EA0136301453000000000000
B0700053155890S11701148EA0136201460000000000000
B0700093155980S11701152EA0137801471000000000000
B0700133156067S11701157EA0137301461000000000000
B0700173156154S11701168EA0137601467000000000000
B0700213156228S11701169EA0140401498000000000000
B0700253156295S11701163EA0141201494000000000000
B0700293156373S11701164EA0138701467000000000000
B0700333156462S11701169EA0137001457000000000000
B0700373156553S11701173EA0137901473000000000000
B0700413156637S11701173EA0139501488000000000000
B0700453156716S11701174EA0140401494000000000000
B0700493156794S11701180EA0140401490000000000000
B0700533156872S11701199EA0139801486000000000000
B0700573156947S11701229EA0139801489000000000000
B0701013157019S11701263EA0140401495000000000000
B0701053157090S11701298EA0140601496000000000000
B0701093157158S11701339EA0140601497000000000000
B0701133157225S11701389EA0140701502000000000000
B0701173157293S11701434EA0141301506000000000000
B0701213157362S11701477EA0141201502000000000000
B0701253157435S11701514EA0141001503000000000000
B0701293157510S11701542EA0141701510000000000000
B0701333157586S11701537EA0143401530000000000000
B0701373157657S11701520EA0145101546000000000000
B0701413157718S11701482EA0146401554000000000000
B0701453157710S11701404EA0146701557000000000000
B0701493157647S11701368EA0146101552000000000000
B0701533157584S11701397EA0145901553000000000000
B0701573157532S11701451EA0146101555000000000000
B0702013157517S11701525EA0146801566000000000000
B0702053157550S11701585EA0147901576000000000000
B0702093157606S11701573EA0149601592000000000000
B0702133157613S11701506EA0150201596000000015000
B0702173157561S11701471EA0151201609000000015000
B0702213157505S11701497EA0151501612000000000000
B0702253157483S11701563EA0152301619000000000000
B0702293157513S11701628EA0152701618000000000000
B0702333157579S11701664EA0151101599000000000000
B0702373157661S11701683EA0148601571000000000000
B0702413157753S11701690EA0145301550000000000000
B0702453157852S11701688EA0144001526000000000000
B0702493157956S11701687EA0140601492000000000000
B0702533158067S11701680EA0137801463000000000000
B0702573158178S11701672EA0135901450000000000000
B0703013158290S11701666EA0134901440000000015000
B0703053158395S11701666EA0134901438000000000000
B0703093158498S11701670EA0133901425000000000000
B0703133158600S11701672EA0132701415000000000000
B0703173158698S11701676EA0131701404000000000000
B0703213158796S11701677EA0131301399000000000000
B0703253158887S11701675EA0132701424000000000000
B0703293158971S11701672EA0135701453000000000000
B0703333159021S11701618EA0139301488000000000000
B0703373158980S11701564EA0141001496000000000000
B0703413158938S11701597EA0141801517000000000000
B0703453158951S11701657EA0144101539000000000000
B0703493159006S11701675EA0145801553000000000000
B0703533159053S11701619EA0146901566000000000000
B0703573159045S11701538EA0148201580000000000000
B0704013158993S11701498EA0148901587000000000000
B0704053158958S11701538EA0150001600000000000000
B0704093158983S11701602EA0151101614000000000000
B0704133159047S11701611EA0153601643000000000000
B0704173159088S11701554EA0155801661000000015000
B0704213159071S11701479EA0156301666000000015000
B0704253159019S11701463EA0157801688000000015000
B0704293158988S11701498EA0159601696000000000000
B0704333159005S11701560EA0159601703000000000000
B0704373159066S11701564EA0161701731000000000000
B0704413159099S11701498EA0163501744000000000000
B0704453159069S11701433EA0164401752000000000000
B0704493159018S11701440EA0165601766000000000000
B0704533159013S11701499EA0166501772000000000000
B0704573159062S11701544EA0167801790000000000000
B0705013159116S11701497EA0169501805000000000000
B0705053159096S11701423EA0170901823000000000000
B0705093159044S11701417EA0172501835000000000000
B0705133159034S11701479EA0172801841000000000000
B0705173159087S11701516EA0174201857000000000000
B0705213159142S11701466EA0175301867000000000000
B0705253159126S11701384EA0176101882000000000000
B0705293159073S11701367EA0177501894000000000000
B0705333159045S11701420EA0178101903000000000000
B0705373159079S11701471EA0179801924000000000000
B0705413159138S11701453EA0182001942000000000000
B0705453159166S11701382EA0182901950000000000000
B0705493159144S11701310EA0184201967000000000000
B0705533159092S11701290EA0185001970000000000000
B0705573159049S11701333EA0185101972000000000000
B0706013159048S11701402EA0185901982000000000000
B0706053159095S11701447EA0187101993000000000000
B0706093159162S11701443EA0187701996000000000000
B0706133159217S11701391EA0188302006000000000000
B0706173159225S11701311EA0189702020000000000000
B0706213159181S11701265EA0191002029000000000000
B0706253159125S11701281EA0190702027000000000000
B0706293159097S11701337EA0191802044000000000000
B0706333159131S11701388EA0192502042000000000000
B0706373159200S11701425EA0190202012000000000000
B0706413159290S11701458EA0187601989000000000000
B0706453159389S11701499EA0185101960000000000000
B0706493159493S11701551EA0182501945000000000000
B0706533159599S11701602EA0181401934000000000000
B0706573159703S11701654EA0180201921000000000000
B0707013159810S11701706EA0178101898000000000000
B0707053159914S11701755EA0177301892000000000000
B0707093200014S11701805EA0177401892000000000000
B0707133200105S11701854EA0177901896000000000000
B0707173200193S11701900EA0178001897000000000000
B0707213200280S11701943EA0177201883000000000000
B0707253200366S11701988EA0176201874000000000000
B0707293200455S11702036EA0175001861000000000000
B0707333200542S11702086EA0174001853000000000000
B0707373200628S11702136EA0173401845000000000000
B0707413200711S11702188EA0172801838000000000000
B0707453200793S11702240EA0172001831000000000000
B0707493200875S11702290EA0171501825000000000000
B0707533200956S11702338EA0170001805000000000000
B0707573201044S11702385EA0168301793000000000000
B0708013201129S11702430EA0167701784000000000000
B0708053201213S11702474EA0166101768000000000000
B0708093201298S11702517EA0164901757000000000000
B0708133201382S11702559EA0164801758000000000000
B0708173201461S11702599EA0165101761000000000000
B0708213201535S11702639EA0165001756000000000000
B0708253201606S11702681EA0164501750000000000000
B0708293201677S11702723EA0164101749000000000000
B0708333201746S11702759EA0164801755000000000000
B0708373201818S11702785EA0165201758000000000000
B0708413201894S11702807EA0164301744000000000000
B0708453201982S11702807EA0163701744000000000000
B0708493202061S11702788EA0167101779000000000000
B0708533202106S11702724EA0169701803000000000000
B0708573202108S11702642EA0170501810000000000000
B0709013202071S11702571EA0171201818000000000000
B0709053202007S11702537EA0171501819000000000000
B0709093201944S11702561EA0171001814000000000000
B0709133201922S11702636EA0170401813000000000000
B0709173201930S11702716EA0170101813000000000000
B0709213201969S11702785EA0170901822000000000000
B0709253202028S11702834EA0171401829000000000000
B0709293202089S11702875EA0173101846000000000000
B0709333202151S11702903EA0173901851000000000000
B0709373202223S11702906EA0173401842000000000000
B0709413202305S11702894EA0172601832000000000000
B0709453202389S11702880EA0171701829000000000000
B0709493202474S11702864EA0171101821000000000000
B0709533202562S11702849EA0169601803000000000000
B0709573202656S11702836EA0168001789000000000000
B0710013202752S11702825EA0167501789000000000000
B0710053202848S11702816EA0167001780000000000000
B0710093202948S11702807EA0165301765000000000000
B0710133203051S11702795EA0164201750000000000000
B0710173203153S11702785EA0163401748000000000000
B0710213203254S11702775EA0163801751000000000000
B0710253203351S11702763EA0163801745000000000000
B0710293203452S11702750EA0161901724000000000000
B0710333203558S11702738EA0160301711000000000000
B0710373203662S11702727EA0158801697000000000000
B0710413203764S11702719EA0158501693000000000000
B0710453203865S11702711EA0157801685000000000000
B0710493203965S11702702EA0157001673000000000000
B0710533204062S11702691EA0156401669000000000000
B0710573204160S11702681EA0155601658000000000000
B0711013204260S11702668EA0154201644000000000000
B0711053204362S11702658EA0153501638000000000000
B0711093204463S11702646EA0152901629000000000000
B0711133204563S11702630EA0152001622000000000000
B0711173204661S11702611EA0150601606000000000000
B0711213204763S11702589EA0149401594000000000000
B0711253204864S11702568EA0148201578000000000000
B0711293204966S11702547EA0146501565000000000000
B0711333205066S11702528EA0145801558000000000000
B0711373205162S11702509EA0145001548000000000000
B0711413205258S11702493EA0144801548000000000000
B0711453205350S11702480EA0144501544000000000000
B0711493205443S11702468EA0144001538000000000000
B0711533205534S11702456EA0143401530000000000000
B0711573205625S11702442EA0143101529000000000000
B0712013205714S11702426EA0143001526000000000000
B0712053205799S11702408EA0143501541000000000000
B0712093205876S11702385EA0145401552000000000000
B0712133205947S11702360EA0146101559000000000000
B0712173206012S11702326EA0147701579000000000000
B0712213206036S11702255EA0150101602000000000000
B0712253205994S11702207EA0151601614000000000000
B0712293205942S11702231EA0152001622000000000000
B0712333205945S11702291EA0152701628000000000000
B0712373206003S11702305EA0153001636000000000000
B0712413206056S11702255EA0154201650000000000000
B0712453206067S11702175EA0155401663000000000000
B0712493206029S11702101EA0156001666000000000000
B0712533205969S11702043EA0156401672000000000000
B0712573205902S11702038EA0157401687000000000000
B0713013205867S11702088EA0158901696000000000000
B0713053205898S11702144EA0159701699000000000000
B0713093205969S11702156EA0159501699000000000000
B0713133206047S11702140EA0160201708000000000000
B0713173206091S11702075EA0163201739000000000000
B0713213206064S11702002EA0164201744000000000000
B0713253206000S11701992EA0164201756000000000000
B0713293205976S11702041EA0166601778000000000000
B0713333206002S11702095EA0167401782000000000000
B0713373206067S11702105EA0167901789000000000000
B0713413206111S11702045EA0169401808000000000000
B0713453206107S11701963EA0170601811000000000000
B0713493206055S11701902EA0170101808000000000000
B0713533205981S11701882EA0169601806000000000000
B0713573205913S11701901EA0170801822000000000000
B0714013205885S11701962EA0172301833000000000000
B0714053205906S11702027EA0172601836000000000000
B0714093205964S11702070EA0172201834000000000000
B0714133206042S11702082EA0172101832000000000000
B0714173206128S11702082EA0171801827000000000000
B0714213206221S11702075EA0172001834000000000000
B0714253206311S11702066EA0173201846000000000000
B0714293206398S11702058EA0173601844000000000000
B0714333206491S11702041EA0172601828000000000000
B0714373206591S11702030EA0171301828000000000000
B0714413206683S11702015EA0173001842000000000000
B0714453206777S11702004EA0172801837000000000000
B0714493206871S11701995EA0172901840000000000000
B0714533206962S11701983EA0172801834000000000000
B0714573207059S11701983EA0171201821000000000000
B0715013207157S11701989EA0170801818000000000000
B0715053207255S11702002EA0170401811000000000000
B0715093207356S11702019EA0169101798000000000000
B0715133207456S11702038EA0168401792000000000000
B0715173207557S11702056EA0166301766000000000000
B0715213207663S11702071EA0164501747000000000000
B0715253207770S11702088EA0164301755000000000000
B0715293207872S11702108EA0164601751000000000000
B0715333207975S11702127EA0164201745000000000000
B0715373208075S11702149EA0163101734000000000000
B0715413208175S11702174EA0161701717000000000000
B0715453208274S11702203EA0160301702000000000000
B0715493208372S11702231EA0158901688000000000000
B0715533208472S11702262EA0156701666000000000000
B0715573208576S11702292EA0155401648000000000000
B0716013208680S11702330EA0153101621000000000000
