ACAM4N6
HFDTE060118
HFFXA050
HFPLTPILOT:JOHN WELSH              
HFGTYGLIDERTYPE:HORNET      
HFGIDGLIDERID:VH-GMY      
HFDTM100GPSDATUM:
HFRFWFIRMWAREVERSION:F2.6
HFRHWHARDWAREVERSION:300 Series Version 2
HFFTYFRTYPE:CAMBRIDGE AERO INSTRUMENTS, 302+
HFGPS:GARMIN,LVS-25,12,18000
HFPRSPRESSALTSENSOR:INTERSEMA, MS5534-AP, 20000
I033638FXA3941ENL4247REX
LCAMSBVER:5FWVER:F26300
C060118050331060118000102
C0000000N00000000WTAKEOFF     
C3207549S11656849EBEVAIR      
C3137399S11712982ECunderdin AF
C3200816S11723699EQUAIRDNG    
C3207549S11656849EBEVAIR      
C0000000N00000000WLANDING     
B0517033207334S11656861EA0017900215000000000000
B0517053207334S11656861EA0017900215000000000000
B0517073207334S11656861EA0017800215000000000000
B0517093207334S11656861EA0017900215000000000000
B0517113207334S11656861EA0017800215000000000000
B0517133207334S11656861EA0017800215000000000000
B0517153207334S11656861EA0017800215000000000000
B0517173207334S11656861EA0017700215000000000000
B0517193207334S11656861EA0017700215000000000000
B0517213207334S11656861EA0017700215000000000000
B0517233207334S11656861EA0017700215000000000000
B0517253207334S11656861EA0017700215000000000000
B0517273207334S11656861EA0017700215000000000000
B0517293207334S11656861EA0017800215000000000000
B0517313207336S11656862EA0017800215000000000000
B0517343207342S11656869EA0017800215000000000000
B0517383207364S11656886EA0017700214000000000000
B0517423207402S11656909EA0017800215000000000000
B0517463207450S11656939EA0017900214000000000000
B0517503207508S11656974EA0018000216000000000000
B0517543207572S11657013EA0018400220000000000000
B0517583207631S11657048EA0019300235000000000000
B0518023207681S11657081EA0021300263000000000000
B0518063207729S11657112EA0023300283000000000000
B0518103207779S11657142EA0024900295000000000000
B0518143207828S11657176EA0025900303000000000000
B0518183207878S11657212EA0026200304000000000000
B0518223207928S11657248EA0026800312000000000000
B0518263207976S11657286EA0027300319000000000000
B0518303208025S11657325EA0028700330000000000000
B0518343208074S11657371EA0029000332000000000000
B0518383208123S11657423EA0029400337000000000000
B0518423208171S11657476EA0029700343000000000000
B0518463208221S11657527EA0031100362000000000000
B0518503208264S11657584EA0032900377000000000000
B0518543208291S11657649EA0034600394000000000000
B0518583208305S11657720EA0036200409000000000000
B0519023208304S11657801EA0036700410000000000000
B0519063208295S11657885EA0037100415000000000000
B0519103208282S11657969EA0038100429000000000000
B0519143208266S11658044EA0040300451000000000000
B0519183208251S11658114EA0042300473000000000000
B0519223208230S11658182EA0044100489000000000000
B0519263208203S11658245EA0045600504000000000000
B0519303208173S11658309EA0047200521000000000000
B0519343208140S11658370EA0049000538000000000000
B0519383208096S11658431EA0049300535000000000000
B0519423208041S11658486EA0049700543000000000000
B0519463207970S11658516EA0050600553000000000000
B0519503207891S11658524EA0051300563000000000000
B0519543207809S11658505EA0053300587000000000000
B0519583207729S11658469EA0055800612000000000000
B0520023207650S11658414EA0057700623000000000000
B0520063207579S11658343EA0057600624000000000000
B0520103207525S11658251EA0058500634000000000000
B0520143207495S11658147EA0059300643000000000000
B0520183207493S11658037EA0060200650000000000000
B0520223207518S11657927EA0061100658000000000000
B0520263207560S11657828EA0062500677000000000000
B0520303207616S11657745EA0065100706000000000000
B0520343207680S11657673EA0068000735000000000000
B0520383207746S11657610EA0070300757000000000000
B0520423207814S11657553EA0071600772000000000000
B0520463207882S11657501EA0072300778000000000000
B0520503207949S11657462EA0073700795000000000000
B0520543208018S11657430EA0075500813000000000000
B0520583208080S11657395EA0077300828000000000000
B0521023208105S11657319EA0078700838000000000000
B0521063208064S11657243EA0078800836000000000000
B0521103207989S11657239EA0078600835000000000000
B0521143207950S11657289EA0078300830000000000000
B0521183207965S11657341EA0077900826000000000000
B0521223208010S11657364EA0077900826000000000000
B0521263208062S11657376EA0077900827000000000000
B0521303208117S11657378EA0078300833000000000000
B0521343208170S11657381EA0078500833000000000000
B0521383208225S11657397EA0078300835000000000000
B0521423208274S11657421EA0079400845000000000000
B0521463208321S11657447EA0079900849000000000000
B0521503208368S11657473EA0080000851000000000000
B0521543208417S11657498EA0080200850000000000000
B0521583208469S11657512EA0080700858000000000000
B0522023208512S11657464EA0081300866000000000000
B0522063208499S11657385EA0080900855000000000000
B0522103208438S11657337EA0079900846000000000000
B0522143208366S11657339EA0079200836000000000000
B0522183208307S11657378EA0078500831000000000000
B0522223208269S11657437EA0078500834000000000000
B0522263208251S11657501EA0078900838000000000000
B0522303208265S11657555EA0079400844000000000000
B0522343208311S11657545EA0081100862000000000000
B0522383208325S11657463EA0081400862000000000000
B0522423208274S11657387EA0081300864000000000000
B0522463208199S11657372EA0081500868000000000000
B0522503208142S11657410EA0082000870000000000000
B0522543208136S11657464EA0082600880000000000000
B0522583208184S11657460EA0084000897000000000000
B0523023208214S11657386EA0085400908000000000000
B0523063208190S11657295EA0085900915000000000000
B0523103208126S11657244EA0087000924000000000000
B0523143208062S11657259EA0087300924000000000000
B0523183208044S11657312EA0087300926000000000000
B0523223208080S11657339EA0088100935000000000000
B0523263208119S11657286EA0089500950000000000000
B0523303208087S11657205EA0090400962000000000000
B0523343208017S11657186EA0091100964000000000000
B0523383207974S11657230EA0091000964000000000000
B0523423207993S11657278EA0091600973000000000000
B0523463208044S11657259EA0092900990000000000000
B0523503208066S11657181EA0094701006000000000000
B0523543208032S11657101EA0095501010000000000000
B0523583207962S11657072EA0096201017000000000000
B0524023207905S11657100EA0096201015000000000000
B0524063207897S11657151EA0097101029000000000000
B0524103207932S11657169EA0098801046000000000000
B0524143207965S11657114EA0100301061000000000000
B0524183207945S11657033EA0101401069000000000000
B0524223207885S11656983EA0101801074000000000000
B0524263207819S11656988EA0101901076000000000000
B0524303207787S11657036EA0102301083000000000000
B0524343207806S11657077EA0103401092000000000000
B0524383207854S11657061EA0104501105000000000000
B0524423207880S11656991EA0106201124000000000000
B0524463207856S11656909EA0107901137000000000000
B0524503207793S11656864EA0108701143000000000000
B0524543207729S11656874EA0108801144000000000000
B0524583207703S11656923EA0109301146000000000000
B0525023207727S11656966EA0109501151000000000000
B0525063207778S11656961EA0110501164000000000000
B0525103207800S11656886EA0111901177000000000000
B0525143207754S11656814EA0113501194000000000000
B0525183207689S11656809EA0114801204000000000000
B0525223207661S11656856EA0115601213000000000000
B0525263207685S11656888EA0116501221000000000000
B0525303207732S11656866EA0117401230000000000000
B0525343207746S11656787EA0118801246000000000000
B0525383207706S11656711EA0120301260000000000000
B0525423207638S11656684EA0121401269000000000000
B0525463207583S11656713EA0121701276000000000000
B0525503207572S11656767EA0122601285000000000000
B0525543207609S11656795EA0123601294000000000000
B0525583207655S11656762EA0124801310000000000000
B0526023207670S11656680EA0126301324000000000000
B0526063207625S11656606EA0127001328000000000000
B0526103207550S11656589EA0127501333000000000000
B0526143207501S11656633EA0128801348000000000000
B0526183207505S11656687EA0130001361000000000000
B0526223207549S11656706EA0130701366000000000000
B0526263207597S11656663EA0131801383000000000000
B0526303207611S11656580EA0133501400000000000000
B0526343207581S11656496EA0134801411000000000000
B0526383207515S11656453EA0135701419000000000000
B0526423207451S11656468EA0136401425000000000000
B0526463207434S11656522EA0137301433000000000000
B0526503207467S11656553EA0138101444000000000000
B0526543207516S11656532EA0139601461000000000000
B0526583207547S11656466EA0140801470000000000000
B0527023207544S11656379EA0141601481000000000000
B0527063207502S11656305EA0142801492000000000000
B0527103207432S11656279EA0143301493000000000000
B0527143207376S11656311EA0143501499000000000000
B0527183207368S11656363EA0144401507000000000000
B0527223207407S11656384EA0145001516000000000000
B0527263207455S11656341EA0146501533000000000000
B0527303207467S11656255EA0147901544000000000000
B0527343207434S11656172EA0148901553000000000000
B0527383207371S11656124EA0149601557000000000000
B0527423207306S11656126EA0149601555000000000000
B0527463207268S11656171EA0149601560000000000000
B0527503207277S11656214EA0150801574000000000000
B0527543207317S11656216EA0152001584000000000000
B0527583207355S11656163EA0152801592000000000000
B0528023207347S11656072EA0153701601000000000000
B0528063207295S11655999EA0154501607000000000000
B0528103207224S11655973EA0154401605000000000000
B0528143207167S11655999EA0154801611000000000000
B0528183207146S11656046EA0155401618000000000000
B0528223207163S11656087EA0155601621000000000000
B0528263207199S11656111EA0156601637000000000000
B0528303207241S11656120EA0158001648000000000000
B0528343207284S11656132EA0158501651000000000000
B0528383207320S11656159EA0159201658000000000000
B0528423207349S11656198EA0159601660000000000000
B0528463207377S11656240EA0159001654000000000000
B0528503207412S11656284EA0158201643000000000000
B0528543207450S11656331EA0157401638000000000000
B0528583207488S11656381EA0157001631000000000000
B0529023207527S11656431EA0156201625000000000000
B0529063207571S11656479EA0155501615000000000000
B0529103207620S11656522EA0154401607000000000000
B0529143207671S11656561EA0153901602000000000000
B0529183207728S11656597EA0152301585000000000000
B0529223207788S11656636EA0150901573000000000000
B0529263207846S11656675EA0149901563000000000000
B0529303207908S11656714EA0148801550000000000000
B0529343207966S11656760EA0148101544000000000000
B0529383208023S11656808EA0147501538000000000000
B0529423208078S11656860EA0147001537000000000000
B0529463208134S11656906EA0147201541000000000000
B0529503208187S11656952EA0147101535000000000000
B0529543208243S11656997EA0146201526000000000000
B0529583208300S11657042EA0145301515000000000000
B0530023208361S11657085EA0144101504000000000000
B0530063208421S11657130EA0143001494000000000000
B0530103208480S11657177EA0142301484000000000000
B0530143208535S11657228EA0141101473000000000000
B0530183208586S11657281EA0140301464000000000000
B0530223208633S11657332EA0140701470000000000000
B0530263208676S11657377EA0141001476000000000000
B0530303208716S11657417EA0141301479000000000000
B0530343208756S11657459EA0140701468000000000000
B0530383208797S11657503EA0139801463000000000000
B0530423208838S11657543EA0139101454000000000000
B0530463208880S11657584EA0138401444000000000000
B0530503208923S11657624EA0137301432000000000000
B0530543208972S11657658EA0136201425000000000000
B0530583209023S11657686EA0136701433000000000000
B0531023209072S11657709EA0136901432000000000000
B0531063209124S11657731EA0136001417000000000000
B0531103209179S11657755EA0135101416000000000000
B0531143209232S11657776EA0135201415000000000000
B0531183209286S11657803EA0134901413000000000000
B0531223209334S11657839EA0135101414000000000000
B0531263209374S11657880EA0135301421000000000000
B0531303209413S11657923EA0136301428000000000000
B0531343209464S11657936EA0137701445000000000000
B0531383209508S11657885EA0139301462000000000000
B0531423209507S11657802EA0140701474000000000000
B0531463209455S11657740EA0140801473000000000000
B0531503209387S11657736EA0141301477000000000000
B0531543209353S11657781EA0141801481000000000000
B0531583209361S11657831EA0142601492000000000000
B0532023209391S11657858EA0143301498000000000000
B0532063209436S11657859EA0143801504000000000000
B0532103209483S11657827EA0144701514000000000000
B0532143209491S11657749EA0144901512000000000000
B0532183209447S11657684EA0144601511000000000000
B0532223209379S11657680EA0144101501000000000000
B0532263209326S11657722EA0144101505000000000000
B0532303209280S11657771EA0144801510000000000000
B0532343209257S11657827EA0144801511000000000000
B0532383209256S11657884EA0144801510000000000000
B0532423209275S11657939EA0144701511000000000000
B0532463209305S11657987EA0144901515000000000000
B0532503209338S11658031EA0145101512000000000000
B0532543209378S11658076EA0144601507000000000000
B0532583209418S11658123EA0144801514000000000000
B0533023209458S11658167EA0145801524000000000000
B0533063209499S11658208EA0146501528000000000000
B0533103209539S11658251EA0146901530000000000000
B0533143209590S11658248EA0149001557000000000000
B0533183209609S11658183EA0151201577000000000000
B0533223209575S11658110EA0151501577000000000000
B0533263209508S11658080EA0152101589000000000000
B0533303209457S11658113EA0153101596000000000000
B0533343209451S11658169EA0153201594000000000000
B0533383209483S11658195EA0153901604000000000000
B0533423209518S11658156EA0155101616000000000000
B0533463209508S11658084EA0156301629000000000000
B0533503209452S11658043EA0157501638000000000000
B0533543209397S11658065EA0157701638000000000000
B0533583209382S11658122EA0157101631000000000000
B0534023209409S11658169EA0157001631000000000000
B0534063209456S11658169EA0157801643000000000000
B0534103209481S11658109EA0159101655000000000000
B0534143209457S11658037EA0160001662000000000000
B0534183209393S11657997EA0160901675000000000000
B0534223209331S11658010EA0161801679000000000000
B0534263209296S11658061EA0161601674000000000000
B0534303209302S11658114EA0161601678000000000000
B0534343209344S11658125EA0162001681000000000000
B0534383209373S11658073EA0162601688000000000000
B0534423209349S11658004EA0163101695000000000000
B0534463209283S11657972EA0163801702000000000000
B0534503209217S11657989EA0163801695000000000000
B0534543209178S11658043EA0163201690000000000000
B0534583209176S11658102EA0162501683000000000000
B0535023209204S11658149EA0161601671000000000000
B0535063209245S11658183EA0160701665000000000000
B0535103209292S11658212EA0160301658000000000000
B0535143209345S11658231EA0159101640000000000000
B0535183209406S11658239EA0157201626000000000000
B0535223209469S11658243EA0155801616000000000000
B0535263209530S11658248EA0155401615000000000000
B0535303209587S11658262EA0156101630000000000000
B0535343209640S11658283EA0156901633000000000000
B0535383209692S11658309EA0155601610000000000000
B0535423209751S11658338EA0153401593000000000000
B0535463209812S11658366EA0152001576000000000000
B0535503209872S11658401EA0150501563000000000000
B0535543209930S11658435EA0149201552000000000000
B0535583209988S11658469EA0150001563000000000000
B0536023210045S11658495EA0150801576000000000000
B0536063210099S11658517EA0152301592000000000000
B0536103210153S11658534EA0153201596000000000000
B0536143210207S11658550EA0151901575000000000000
B0536183210267S11658564EA0150301563000000000000
B0536223210329S11658572EA0150101563000000000000
B0536263210389S11658583EA0150501568000000000000
B0536303210443S11658600EA0150901573000000000000
B0536343210492S11658621EA0150501565000000000000
B0536383210543S11658645EA0149901557000000000000
B0536423210596S11658665EA0149001549000000000000
B0536463210654S11658673EA0148901557000000000000
B0536503210712S11658677EA0149501561000000000000
B0536543210769S11658682EA0149701560000000000000
B0536583210826S11658697EA0149501556000000000000
B0537023210887S11658708EA0149201557000000000000
B0537063210947S11658726EA0147801538000000000000
B0537103211011S11658741EA0146101519000000000000
B0537143211061S11658781EA0144401506000000000000
B0537183211104S11658828EA0143901496000000000000
B0537223211152S11658868EA0142101473000000000000
B0537263211213S11658898EA0139701451000000000000
B0537303211268S11658936EA0138501442000000000000
B0537343211311S11658985EA0138101441000000000000
B0537383211349S11659031EA0138301440000000000000
B0537423211394S11659066EA0136801424000000000000
B0537463211447S11659097EA0135001406000000000000
B0537503211502S11659135EA0133701394000000000000
B0537543211563S11659157EA0132901385000000000000
B0537583211632S11659150EA0132001378000000000000
B0538023211700S11659119EA0131501376000000000000
B0538063211761S11659074EA0131701378000000000000
B0538103211814S11659020EA0131401374000000000000
B0538143211865S11658957EA0130601363000000000000
B0538183211917S11658889EA0129501350000000000000
B0538223211967S11658820EA0128801345000000000000
B0538263212005S11658745EA0128701346000000000000
B0538303212031S11658663EA0128201336000000000000
B0538343212051S11658576EA0127001324000000000000
B0538383212062S11658483EA0126301318000000000000
B0538423212070S11658390EA0125901316000000000000
B0538463212068S11658300EA0126001318000000000000
B0538503212053S11658214EA0125801312000000000000
B0538543212026S11658127EA0124601299000000000000
B0538583211980S11658045EA0123101285000000000000
B0539023211912S11657992EA0121801274000000000000
B0539063211832S11657978EA0121501271000000000000
B0539103211753S11657978EA0121401270000000000000
B0539143211679S11657987EA0121101264000000000000
B0539183211613S11658021EA0120501257000000000000
B0539223211551S11658063EA0119501246000000000000
B0539263211498S11658112EA0118701241000000000000
B0539303211455S11658166EA0118001229000000000000
B0539343211414S11658223EA0115901206000000000000
B0539383211367S11658286EA0114201193000000000000
B0539423211319S11658346EA0113701190000000000000
B0539463211275S11658401EA0113801193000000000000
B0539503211230S11658457EA0113301185000000000000
B0539543211187S11658513EA0113001185000000000000
B0539583211161S11658576EA0112401174000000000000
B0540023211138S11658641EA0111401167000000000000
B0540063211111S11658700EA0110901163000000000000
B0540103211082S11658760EA0110101152000000000000
B0540143211047S11658819EA0108801138000000000000
B0540183211013S11658882EA0107001120000000000000
B0540223210977S11658947EA0105601107000000000000
B0540263210934S11659007EA0104501094000000000000
B0540303210886S11659063EA0103501085000000000000
B0540343210851S11659123EA0102601073000000000000
B0540383210827S11659188EA0101301063000000000000
B0540423210803S11659252EA0101301065000000000000
B0540463210791S11659313EA0102201076000000000000
B0540503210804S11659363EA0102601076000000000000
B0540543210827S11659412EA0102001066000000000000
B0540583210859S11659454EA0101601064000000000000
B0541023210894S11659488EA0102601079000000000000
B0541063210938S11659491EA0103301083000000000000
B0541103210983S11659456EA0103301080000000000000
B0541143211005S11659383EA0102601072000000000000
B0541183210986S11659300EA0101601061000000000000
B0541223210938S11659233EA0100501049000000000000
B0541263210873S11659178EA0099101034000000000000
B0541303210804S11659133EA0098301027000000000000
B0541343210731S11659103EA0097601022000000000000
B0541383210657S11659087EA0097601023000000000000
B0541423210587S11659075EA0097301017000000000000
B0541463210517S11659070EA0097001014000000000000
B0541503210452S11659080EA0096101002000000000000
B0541543210391S11659106EA0095300999000000000000
B0541583210328S11659135EA0095200996000000000000
B0542023210267S11659167EA0094100984000000000000
B0542063210212S11659213EA0093400979000000000000
B0542103210166S11659265EA0092800974000000000000
B0542143210128S11659323EA0092200966000000000000
B0542183210094S11659382EA0091200956000000000000
B0542223210071S11659445EA0089900942000000000000
B0542263210056S11659509EA0088600928000000000000
B0542303210037S11659578EA0087200913000000000000
B0542343210006S11659649EA0086300907000000000000
B0542383209991S11659721EA0086700914000000000000
B0542423210003S11659779EA0087200917000000000000
B0542463210034S11659820EA0087300914000000000000
B0542503210075S11659852EA0087200917000000000000
B0542543210123S11659851EA0088500932000000000000
B0542583210146S11659785EA0089900947000000000000
B0543023210114S11659711EA0090500949000000000000
B0543063210046S11659678EA0090000940000000000000
B0543103209981S11659698EA0088900929000000000000
B0543143209945S11659752EA0088200925000000000000
B0543183209941S11659813EA0088600930000000000000
B0543223209956S11659865EA0089800943000000000000
B0543263210001S11659870EA0091100953000000000000
B0543303210029S11659808EA0091800966000000000000
B0543343210008S11659727EA0093100982000000000000
B0543383209949S11659685EA0094100988000000000000
B0543423209890S11659698EA0094900995000000000000
B0543463209863S11659744EA0095401001000000000000
B0543503209868S11659792EA0095901002000000000000
B0543543209902S11659824EA0095901002000000000000
B0543583209949S11659807EA0096101003000000000000
B0544023209977S11659737EA0095901002000000000000
B0544063209962S11659647EA0096901014000000000000
B0544103209913S11659581EA0097801024000000000000
B0544143209847S11659560EA0098701037000000000000
B0544183209800S11659591EA0099601041000000000000
B0544223209806S11659638EA0099901044000000000000
B0544263209847S11659642EA0100701052000000000000
B0544303209884S11659591EA0101501055000000000000
B0544343209880S11659510EA0102201069000000000000
B0544383209830S11659449EA0102901075000000000000
B0544423209763S11659444EA0103201079000000000000
B0544463209720S11659483EA0104101089000000000000
B0544503209721S11659534EA0104401092000000000000
B0544543209761S11659553EA0104701093000000000000
B0544583209807S11659509EA0104901099000000000000
B0545023209811S11659430EA0106201115000000000000
B0545063209768S11659362EA0107001122000000000000
B0545103209702S11659345EA0107801129000000000000
B0545143209659S11659380EA0108501135000000000000
B0545183209664S11659425EA0108801138000000000000
B0545223209708S11659428EA0108901138000000000000
B0545263209748S11659378EA0109501147000000000000
B0545303209757S11659300EA0110201155000000000000
B0545343209718S11659224EA0111001163000000000000
B0545383209652S11659204EA0111301168000000000000
B0545423209607S11659239EA0112001175000000000000
B0545463209613S11659283EA0112401177000000000000
B0545503209657S11659280EA0112401180000000000000
B0545543209690S11659219EA0113701194000000000000
B0545583209677S11659136EA0114501201000000000000
B0546023209621S11659080EA0115001207000000000000
B0546063209556S11659080EA0115401207000000000000
B0546103209516S11659127EA0115501208000000000000
B0546143209522S11659174EA0116201213000000000000
B0546183209565S11659168EA0116501218000000000000
B0546223209590S11659100EA0117401229000000000000
B0546263209560S11659019EA0118101236000000000000
B0546303209494S11658984EA0118501240000000000000
B0546343209436S11659016EA0119001241000000000000
B0546383209431S11659072EA0119101244000000000000
B0546423209471S11659087EA0119501249000000000000
B0546463209509S11659032EA0120301259000000000000
B0546503209491S11658949EA0121801275000000000000
B0546543209432S11658902EA0122501282000000000000
B0546583209371S11658916EA0122901281000000000000
B0547023209352S11658968EA0122901282000000000000
B0547063209382S11658997EA0123101280000000000000
B0547103209432S11658966EA0122401275000000000000
B0547143209449S11658882EA0123101289000000000000
B0547183209422S11658797EA0124401301000000000000
B0547223209362S11658745EA0125401309000000000000
B0547263209297S11658745EA0125501307000000000000
B0547303209252S11658788EA0125401306000000000000
B0547343209241S11658837EA0125901311000000000000
B0547383209263S11658871EA0125801308000000000000
B0547423209309S11658859EA0125801311000000000000
B0547463209344S11658799EA0126201316000000000000
B0547503209335S11658712EA0127101330000000000000
B0547543209278S11658655EA0128101334000000000000
B0547583209210S11658663EA0128601342000000000000
B0548023209171S11658710EA0129101344000000000000
B0548063209184S11658756EA0129201342000000000000
B0548103209228S11658754EA0129401348000000000000
B0548143209258S11658691EA0130301357000000000000
B0548183209249S11658607EA0130901365000000000000
B0548223209206S11658531EA0131501371000000000000
B0548263209140S11658495EA0131901373000000000000
B0548303209075S11658507EA0131101361000000000000
B0548343209036S11658555EA0130301357000000000000
B0548383209035S11658607EA0130301356000000000000
B0548423209070S11658634EA0130201355000000000000
B0548463209118S11658608EA0130101355000000000000
B0548503209143S11658533EA0130601360000000000000
B0548543209126S11658439EA0131201367000000000000
B0548583209074S11658364EA0131601370000000000000
B0549023209002S11658322EA0131101361000000000000
B0549063208931S11658322EA0130201352000000000000
B0549103208879S11658359EA0129101338000000000000
B0549143208855S11658413EA0127801327000000000000
B0549183208859S11658463EA0127301319000000000000
B0549223208892S11658490EA0126001307000000000000
B0549263208940S11658478EA0125301302000000000000
B0549303208979S11658422EA0125201305000000000000
B0549343208989S11658338EA0125901311000000000000
B0549383208967S11658255EA0126601320000000000000
B0549423208912S11658192EA0125901309000000000000
B0549463208841S11658145EA0124301286000000000000
B0549503208764S11658092EA0122501273000000000000
B0549543208690S11658034EA0121201263000000000000
B0549583208616S11657978EA0120601258000000000000
B0550023208542S11657930EA0119501247000000000000
B0550063208465S11657878EA0118801240000000000000
B0550103208392S11657816EA0118101235000000000000
B0550143208324S11657753EA0118201235000000000000
B0550183208260S11657688EA0117801231000000000000
B0550223208197S11657627EA0117301224000000000000
B0550263208132S11657564EA0116401212000000000000
B0550303208090S11657477EA0115501200000000000000
B0550343208075S11657373EA0115001201000000000000
B0550383208071S11657265EA0115101203000000000000
B0550423208067S11657160EA0115801211000000000000
B0550463208044S11657065EA0117401229000000000000
B0550503207988S11656997EA0117701229000000000000
B0550543207915S11656956EA0117401224000000000000
B0550583207833S11656926EA0117001224000000000000
B0551023207750S11656908EA0117201227000000000000
B0551063207667S11656896EA0117201224000000000000
B0551103207583S11656884EA0116701213000000000000
B0551143207493S11656875EA0114801193000000000000
B0551183207398S11656875EA0112801173000000000000
B0551223207302S11656883EA0111101157000000000000
B0551263207208S11656896EA0109801144000000000000
B0551303207117S11656922EA0108101128000000000000
B0551343207033S11656961EA0106701112000000000000
B0551383206956S11657014EA0105501091000000000000
B0551423206895S11657088EA0103501075000000000000
B0551463206855S11657174EA0102101061000000000000
B0551503206827S11657267EA0100201039000000000000
B0551543206810S11657361EA0098501021000000000000
B0551583206806S11657460EA0097501013000000000000
B0552023206809S11657555EA0096301000000000000000
B0552063206818S11657651EA0094500979000000000000
B0552103206834S11657740EA0094000983000000000000
B0552143206857S11657811EA0094000983000000000000
B0552183206877S11657889EA0092600957000000000000
B0552223206879S11657980EA0090100937000000000000
B0552263206883S11658071EA0088900929000000000000
B0552303206890S11658157EA0088400926000000000000
B0552343206900S11658236EA0089200936000000000000
B0552383206914S11658307EA0089600938000000000000
B0552423206936S11658372EA0089600937000000000000
B0552463206975S11658426EA0089400933000000000000
B0552503207034S11658453EA0089700943000000000000
B0552543207096S11658473EA0090000946000000000000
B0552583207155S11658490EA0090200945000000000000
B0553023207213S11658505EA0089700940000000000000
B0553063207273S11658520EA0088600925000000000000
B0553103207332S11658541EA0087100913000000000000
B0553143207386S11658573EA0085800896000000000000
B0553183207446S11658604EA0083300869000000000000
B0553223207514S11658621EA0081500857000000000000
B0553263207579S11658634EA0080700848000000000000
B0553303207650S11658654EA0078900832000000000000
B0553343207716S11658668EA0079900852000000000000
B0553383207775S11658656EA0081100863000000000000
B0553423207830S11658635EA0081600866000000000000
B0553463207883S11658625EA0082000866000000000000
B0553503207939S11658616EA0081500861000000000000
B0553543207997S11658606EA0080600850000000000000
B0553583208056S11658609EA0080200852000000000000
B0554023208112S11658620EA0080600854000000000000
B0554063208168S11658639EA0080500852000000000000
B0554103208220S11658612EA0082400873000000000000
B0554143208217S11658534EA0083500884000000000000
B0554183208162S11658485EA0083300882000000000000
B0554223208108S11658494EA0083700886000000000000
B0554263208084S11658539EA0083200876000000000000
B0554303208103S11658585EA0082500871000000000000
B0554343208145S11658613EA0082400875000000000000
B0554383208192S11658624EA0083900890000000000000
B0554423208226S11658574EA0085700910000000000000
B0554463208208S11658499EA0087000919000000000000
B0554503208148S11658455EA0087600926000000000000
B0554543208093S11658473EA0088400936000000000000
B0554583208096S11658517EA0089100938000000000000
B0555023208144S11658526EA0089300943000000000000
B0555063208179S11658472EA0090800968000000000000
B0555103208155S11658401EA0092700983000000000000
B0555143208095S11658375EA0093200984000000000000
B0555183208045S11658408EA0093500990000000000000
B0555223208034S11658463EA0094200992000000000000
B0555263208058S11658508EA0095101002000000000000
B0555303208106S11658496EA0096001008000000000000
B0555343208121S11658418EA0095200999000000000000
B0555383208074S11658340EA0095801011000000000000
B0555423208006S11658312EA0097601029000000000000
B0555463207973S11658356EA0098901041000000000000
B0555503208004S11658394EA0099401044000000000000
B0555543208053S11658357EA0100201055000000000000
B0555583208061S11658273EA0101001065000000000000
B0556023208017S11658199EA0101601069000000000000
B0556063207949S11658188EA0102701086000000000000
B0556103207917S11658230EA0103901092000000000000
B0556143207934S11658277EA0103701087000000000000
B0556183207983S11658292EA0103901093000000000000
B0556223208030S11658240EA0105201107000000000000
B0556263208019S11658157EA0106401117000000000000
B0556303207957S11658113EA0106501119000000000000
B0556343207900S11658138EA0107401133000000000000
B0556383207904S11658190EA0108201137000000000000
B0556423207953S11658200EA0108901144000000000000
B0556463207992S11658139EA0109801155000000000000
B0556503207971S11658058EA0110401160000000000000
B0556543207908S11658031EA0110901172000000000000
B0556583207879S11658074EA0112101178000000000000
B0557023207913S11658113EA0112401178000000000000
B0557063207971S11658084EA0113001187000000000000
B0557103207995S11658009EA0113901196000000000000
B0557143207967S11657932EA0114201198000000000000
B0557183207902S11657902EA0115001207000000000000
B0557223207853S11657940EA0115801216000000000000
B0557263207853S11658000EA0116701224000000000000
B0557303207896S11658039EA0117001224000000000000
B0557343207950S11658067EA0117601236000000000000
B0557383208010S11658093EA0118701245000000000000
B0557423208073S11658122EA0119201248000000000000
B0557463208135S11658156EA0119601252000000000000
B0557503208197S11658191EA0119101243000000000000
B0557543208262S11658230EA0118001236000000000000
B0557583208324S11658271EA0117001221000000000000
B0558023208377S11658330EA0115101201000000000000
B0558063208429S11658391EA0113601187000000000000
B0558103208476S11658453EA0112501180000000000000
B0558143208522S11658511EA0111601167000000000000
B0558183208582S11658551EA0110001150000000000000
B0558223208643S11658589EA0108601137000000000000
B0558263208695S11658634EA0108101132000000000000
B0558303208745S11658680EA0107301123000000000000
B0558343208798S11658716EA0106201108000000000000
B0558383208866S11658726EA0103901083000000000000
B0558423208941S11658713EA0102201070000000000000
B0558463209014S11658687EA0100801055000000000000
B0558503209087S11658654EA0099801044000000000000
B0558543209158S11658615EA0098301029000000000000
B0558583209232S11658573EA0097101013000000000000
B0559023209306S11658529EA0095901004000000000000
B0559063209380S11658512EA0096601021000000000000
B0559103209443S11658529EA0098101031000000000000
B0559143209508S11658541EA0097401019000000000000
B0559183209573S11658560EA0096701017000000000000
B0559223209630S11658587EA0097001018000000000000
B0559263209689S11658613EA0095801005000000000000
B0559303209750S11658645EA0094500993000000000000
B0559343209806S11658678EA0093600983000000000000
B0559383209868S11658708EA0092900976000000000000
B0559423209924S11658749EA0093600993000000000000
B0559463209976S11658773EA0095701014000000000000
B0559503210010S11658724EA0098101038000000000000
B0559543209981S11658651EA0099401047000000000000
B0559583209913S11658625EA0099601045000000000000
B0600023209860S11658665EA0099601048000000000000
B0600063209861S11658723EA0100301057000000000000
B0600103209897S11658758EA0100801061000000000000
B0600143209949S11658751EA0101301066000000000000
B0600183209986S11658693EA0102401077000000000000
B0600223209988S11658611EA0102401073000000000000
B0600263209941S11658539EA0102201075000000000000
B0600303209869S11658515EA0102401070000000000000
B0600343209812S11658554EA0101601065000000000000
B0600383209796S11658619EA0101901071000000000000
B0600423209821S11658672EA0102701079000000000000
B0600463209860S11658717EA0103801092000000000000
B0600503209913S11658738EA0105301105000000000000
B0600543209960S11658693EA0106701118000000000000
B0600583209958S11658611EA0107301123000000000000
B0601023209900S11658556EA0107301122000000000000
B0601063209839S11658570EA0107601129000000000000
B0601103209838S11658625EA0108701143000000000000
B0601143209886S11658628EA0109301146000000000000
B0601183209908S11658559EA0110501159000000000000
B0601223209864S11658496EA0110901160000000000000
B0601263209803S11658498EA0111201164000000000000
B0601303209782S11658551EA0111401168000000000000
B0601343209815S11658594EA0112401176000000000000
B0601383209869S11658580EA0113901195000000000000
B0601423209900S11658512EA0115501209000000000000
B0601463209882S11658429EA0116301216000000000000
B0601503209824S11658387EA0117301231000000000000
B0601543209765S11658399EA0117901230000000000000
B0601583209735S11658450EA0118001232000000000000
B0602023209750S11658503EA0118301237000000000000
B0602063209798S11658524EA0119701252000000000000
B0602103209834S11658464EA0121101264000000000000
B0602143209806S11658379EA0121801273000000000000
B0602183209737S11658338EA0122701282000000000000
B0602223209669S11658352EA0123801291000000000000
B0602263209634S11658412EA0125301306000000000000
B0602303209651S11658470EA0127101327000000000000
B0602343209705S11658492EA0128101334000000000000
B0602383209751S11658444EA0130101365000000000000
B0602423209738S11658361EA0132501385000000000000
B0602463209681S11658309EA0134001399000000000000
B0602503209620S11658321EA0135401412000000000000
B0602543209604S11658381EA0136701429000000000000
B0602583209639S11658420EA0138701446000000000000
B0603023209694S11658403EA0139801457000000000000
B0603063209715S11658331EA0142201484000000000000
B0603103209681S11658258EA0143901497000000000000
B0603143209618S11658236EA0145001508000000000000
B0603183209578S11658279EA0145401509000000000000
B0603223209590S11658340EA0146201522000000000000
B0603263209640S11658349EA0147201532000000000000
B0603303209677S11658297EA0149201556000000000000
B0603343209672S11658219EA0151001572000000000000
B0603383209624S11658165EA0152301583000000000000
B0603423209561S11658165EA0153001587000000000000
B0603463209527S11658214EA0153801598000000000000
B0603503209546S11658261EA0154801605000000000000
B0603543209596S11658249EA0155401613000000000000
B0603583209614S11658175EA0156601625000000000000
B0604023209575S11658108EA0158001638000000000000
B0604063209512S11658097EA0158401641000000000000
B0604103209475S11658147EA0159001653000000000000
B0604143209494S11658197EA0160901675000000000000
B0604183209535S11658217EA0162201680000000000000
B0604223209586S11658190EA0162201682000000000000
B0604263209595S11658114EA0163701702000000000000
B0604303209546S11658071EA0165101711000000000000
B0604343209499S11658101EA0165301714000000000000
B0604383209507S11658157EA0165901717000000000000
B0604423209562S11658164EA0166101720000000000000
B0604463209603S11658106EA0167901741000000000000
B0604503209587S11658036EA0169601758000000000000
B0604543209533S11658006EA0169901759000000000000
B0604583209486S11658040EA0170301766000000000000
B0605023209487S11658096EA0171001769000000000000
B0605063209533S11658125EA0171101767000000000000
B0605103209587S11658095EA0171001767000000000000
B0605143209596S11658015EA0171801778000000000000
B0605183209553S11657962EA0172901788000000000000
B0605223209503S11657983EA0172801785000000000000
B0605263209504S11658044EA0173101788000000000000
B0605303209549S11658078EA0172901784000000000000
B0605343209609S11658061EA0172601778000000000000
B0605383209638S11657993EA0172101776000000000000
B0605423209614S11657920EA0170701762000000000000
B0605463209565S11657861EA0170401762000000000000
B0605503209507S11657810EA0170301762000000000000
B0605543209440S11657767EA0170301761000000000000
B0605583209370S11657731EA0170301761000000000000
B0606023209296S11657699EA0170701769000000000000
B0606063209222S11657675EA0171701778000000000000
B0606103209149S11657680EA0172301782000000000000
B0606143209117S11657737EA0172601783000000000000
B0606183209140S11657787EA0172601780000000000000
B0606223209187S11657781EA0172701785000000000000
B0606263209214S11657723EA0172801785000000000000
B0606303209201S11657645EA0173101790000000000000
B0606343209157S11657577EA0173401794000000000000
B0606383209094S11657523EA0173301789000000000000
B0606423209024S11657472EA0172401781000000000000
B0606463208946S11657423EA0172601786000000000000
B0606503208871S11657374EA0173601794000000000000
B0606543208798S11657329EA0173601797000000000000
B0606583208727S11657290EA0173801798000000000000
B0607023208652S11657252EA0173301791000000000000
B0607063208574S11657212EA0172501784000000000000
B0607103208494S11657168EA0171601774000000000000
B0607143208415S11657120EA0171301773000000000000
B0607183208335S11657077EA0171401777000000000000
B0607223208259S11657040EA0171401775000000000000
B0607263208181S11657005EA0170701769000000000000
B0607303208104S11656973EA0170601769000000000000
B0607343208028S11656942EA0170501764000000000000
B0607383207952S11656913EA0169601754000000000000
B0607423207872S11656888EA0168801746000000000000
B0607463207793S11656862EA0168201742000000000000
B0607503207716S11656838EA0168101740000000000000
B0607543207641S11656815EA0167601735000000000000
B0607583207566S11656792EA0167001726000000000000
B0608023207489S11656773EA0165901715000000000000
B0608063207411S11656748EA0165301707000000000000
B0608103207330S11656718EA0164601699000000000000
B0608143207248S11656687EA0164101697000000000000
B0608183207168S11656656EA0164001694000000000000
B0608223207089S11656626EA0163701692000000000000
B0608263207008S11656597EA0163001686000000000000
B0608303206929S11656575EA0163101688000000000000
B0608343206851S11656558EA0163401692000000000000
B0608383206774S11656541EA0163801697000000000000
B0608423206699S11656523EA0164001697000000000000
B0608463206619S11656506EA0163501688000000000000
B0608503206537S11656484EA0162801683000000000000
B0608543206453S11656463EA0161901674000000000000
B0608583206370S11656441EA0161301669000000000000
B0609023206289S11656412EA0161201668000000000000
B0609063206208S11656386EA0160901666000000000000
B0609103206129S11656358EA0160801665000000000000
B0609143206051S11656325EA0160501662000000000000
B0609183205974S11656295EA0160101656000000000000
B0609223205898S11656263EA0159501652000000000000
B0609263205822S11656230EA0159101645000000000000
B0609303205748S11656204EA0158401640000000000000
B0609343205675S11656184EA0157901634000000000000
B0609383205607S11656164EA0157701632000000000000
B0609423205539S11656145EA0157501630000000000000
B0609463205469S11656121EA0157201627000000000000
B0609503205399S11656103EA0156901621000000000000
B0609543205327S11656086EA0157401634000000000000
B0609583205256S11656063EA0158801644000000000000
B0610023205191S11656073EA0159201649000000000000
B0610063205150S11656117EA0160201657000000000000
B0610103205163S11656167EA0161101667000000000000
B0610143205210S11656172EA0161601671000000000000
B0610183205245S11656120EA0162901689000000000000
B0610223205239S11656046EA0163801692000000000000
B0610263205185S11655985EA0164101697000000000000
B0610303205118S11655974EA0164901707000000000000
B0610343205068S11656006EA0165401709000000000000
B0610383205066S11656059EA0165501711000000000000
B0610423205103S11656085EA0165701715000000000000
B0610463205150S11656064EA0166501722000000000000
B0610503205175S11656002EA0166401721000000000000
B0610543205155S11655920EA0166701727000000000000
B0610583205105S11655856EA0167401734000000000000
B0611023205038S11655826EA0168301744000000000000
B0611063204983S11655842EA0168901746000000000000
B0611103204970S11655896EA0168201738000000000000
B0611143205005S11655929EA0168301744000000000000
B0611183205053S11655913EA0168901749000000000000
B0611223205079S11655851EA0169401754000000000000
B0611263205064S11655770EA0169101750000000000000
B0611303205015S11655710EA0169201751000000000000
B0611343204951S11655671EA0169201754000000000000
B0611383204885S11655639EA0169301755000000000000
B0611423204819S11655610EA0169101753000000000000
B0611463204749S11655597EA0168901749000000000000
B0611503204680S11655588EA0168401750000000000000
B0611543204613S11655580EA0168901750000000000000
B0611583204543S11655569EA0168501745000000000000
B0612023204476S11655578EA0169101749000000000000
B0612063204438S11655631EA0169101750000000000000
B0612103204450S11655690EA0169201750000000000000
B0612143204499S11655700EA0169601754000000000000
B0612183204541S11655649EA0169901759000000000000
B0612223204546S11655565EA0170101761000000000000
B0612263204516S11655482EA0170101758000000000000
B0612303204460S11655418EA0169901759000000000000
B0612343204387S11655391EA0169701753000000000000
B0612383204308S11655378EA0168901745000000000000
B0612423204225S11655366EA0168501746000000000000
B0612463204145S11655359EA0168901747000000000000
B0612503204066S11655356EA0168401740000000000000
B0612543203985S11655356EA0167401730000000000000
B0612583203901S11655358EA0165901712000000000000
B0613023203811S11655358EA0164501699000000000000
B0613063203720S11655353EA0164301697000000000000
B0613103203632S11655348EA0163801690000000000000
B0613143203541S11655336EA0162901682000000000000
B0613183203454S11655320EA0162501677000000000000
B0613223203365S11655304EA0161801671000000000000
B0613263203282S11655288EA0161901672000000000000
B0613303203202S11655270EA0161501667000000000000
B0613343203124S11655253EA0160501654000000000000
B0613383203043S11655239EA0158801637000000000000
B0613423202960S11655220EA0158601639000000000000
B0613463202880S11655200EA0159101647000000000000
B0613503202800S11655187EA0159601653000000000000
B0613543202723S11655180EA0160801666000000000000
B0613583202652S11655172EA0162801692000000000000
B0614023202584S11655157EA0164801710000000000000
B0614063202523S11655109EA0165701714000000000000
B0614103202496S11655025EA0165901713000000000000
B0614143202519S11654949EA0164901698000000000000
B0614183202574S11654915EA0163101680000000000000
B0614223202620S11654940EA0162401674000000000000
B0614263202649S11654992EA0162101676000000000000
B0614303202658S11655053EA0163101690000000000000
B0614343202626S11655101EA0164801711000000000000
B0614383202566S11655096EA0166101717000000000000
B0614423202518S11655037EA0166101717000000000000
B0614463202511S11654954EA0166301718000000000000
B0614503202550S11654885EA0166701722000000000000
B0614543202606S11654855EA0167401730000000000000
B0614583202661S11654863EA0168201742000000000000
B0615023202691S11654901EA0169101747000000000000
B0615063202685S11654954EA0168701739000000000000
B0615103202636S11654997EA0167801727000000000000
B0615143202565S11655011EA0167501727000000000000
B0615183202489S11655014EA0167501730000000000000
B0615223202412S11655014EA0167501730000000000000
B0615263202336S11655014EA0167201723000000000000
B0615303202260S11655011EA0166701721000000000000
B0615343202188S11655012EA0166001712000000000000
B0615383202115S11655012EA0165101702000000000000
B0615423202041S11655019EA0164101694000000000000
B0615463201968S11655027EA0163901691000000000000
B0615503201892S11655021EA0163301684000000000000
B0615543201817S11655019EA0163501691000000000000
B0615583201744S11655023EA0163201681000000000000
B0616023201666S11655025EA0161401666000000000000
B0616063201588S11655037EA0160301657000000000000
B0616103201513S11655054EA0160001655000000000000
B0616143201441S11655072EA0160101654000000000000
B0616183201367S11655090EA0159401644000000000000
B0616223201291S11655106EA0158901639000000000000
B0616263201215S11655115EA0159301650000000000000
B0616303201148S11655122EA0160301655000000000000
B0616343201081S11655129EA0160201659000000000000
B0616383201020S11655145EA0160901664000000000000
B0616423200958S11655166EA0161001664000000000000
B0616463200890S11655183EA0161401671000000000000
B0616503200820S11655203EA0161701672000000000000
B0616543200750S11655231EA0162201684000000000000
B0616583200711S11655280EA0164101703000000000000
B0617023200724S11655327EA0166001720000000000000
B0617063200767S11655330EA0166901724000000000000
B0617103200810S11655280EA0166501722000000000000
B0617143200817S11655201EA0167401737000000000000
B0617183200785S11655125EA0168901751000000000000
B0617223200725S11655076EA0170101762000000000000
B0617263200659S11655070EA0170501763000000000000
B0617303200615S11655111EA0170501763000000000000
B0617343200616S11655161EA0171301778000000000000
B0617383200648S11655177EA0172301786000000000000
B0617423200685S11655149EA0173001791000000000000
B0617463200698S11655080EA0172801787000000000000
B0617503200664S11655001EA0173201797000000000000
B0617543200595S11654967EA0174501808000000000000
B0617583200533S11654986EA0174801807000000000000
B0618023200508S11655038EA0175401817000000000000
B0618063200533S11655075EA0175901821000000000000
B0618103200576S11655062EA0176301825000000000000
B0618143200600S11654995EA0176701832000000000000
B0618183200577S11654916EA0178101848000000000000
B0618223200518S11654869EA0178801850000000000000
B0618263200446S11654862EA0178801847000000000000
B0618303200400S11654904EA0178801853000000000000
B0618343200407S11654947EA0179301857000000000000
B0618383200443S11654962EA0179701862000000000000
B0618423200481S11654930EA0180101865000000000000
B0618463200487S11654855EA0180701872000000000000
B0618503200442S11654784EA0181201870000000000000
B0618543200369S11654754EA0181201875000000000000
B0618583200308S11654781EA0181301871000000000000
B0619023200297S11654837EA0180701864000000000000
B0619063200332S11654860EA0180601872000000000000
B0619103200371S11654825EA0181201881000000000000
B0619143200377S11654751EA0181301880000000000000
B0619183200336S11654672EA0181201879000000000000
B0619223200269S11654622EA0181001877000000000000
B0619263200191S11654612EA0179901865000000000000
B0619303200113S11654624EA0178801849000000000000
B0619343200033S11654644EA0177501837000000000000
B0619383159955S11654669EA0176601828000000000000
B0619423159876S11654696EA0176001819000000000000
B0619463159794S11654719EA0175601814000000000000
B0619503159715S11654739EA0175501818000000000000
B0619543159640S11654760EA0175601815000000000000
B0619583159563S11654780EA0174901808000000000000
B0620023159485S11654799EA0174801807000000000000
B0620063159409S11654817EA0175001809000000000000
B0620103159335S11654836EA0175001808000000000000
B0620143159261S11654855EA0174501801000000000000
B0620183159188S11654880EA0174201797000000000000
B0620223159114S11654904EA0173701796000000000000
B0620263159043S11654925EA0174001799000000000000
B0620303158973S11654945EA0174401801000000000000
B0620343158904S11654967EA0173601793000000000000
B0620383158832S11654989EA0172601783000000000000
B0620423158761S11655010EA0172401782000000000000
B0620463158689S11655029EA0172101780000000000000
B0620503158620S11655050EA0171901777000000000000
B0620543158549S11655071EA0171401768000000000000
B0620583158476S11655088EA0170701761000000000000
B0621023158401S11655099EA0170101755000000000000
B0621063158325S11655110EA0169701754000000000000
B0621103158251S11655120EA0169401751000000000000
B0621143158174S11655135EA0169101749000000000000
B0621183158096S11655151EA0169401755000000000000
B0621223158016S11655161EA0170101761000000000000
B0621263157937S11655167EA0170401765000000000000
B0621303157860S11655179EA0170601767000000000000
B0621343157779S11655192EA0169701750000000000000
B0621383157696S11655205EA0168001733000000000000
B0621423157609S11655219EA0167001725000000000000
B0621463157523S11655235EA0166201720000000000000
B0621503157439S11655253EA0165401710000000000000
B0621543157352S11655270EA0164701707000000000000
B0621583157270S11655287EA0164401700000000000000
B0622023157189S11655305EA0163401689000000000000
B0622063157107S11655322EA0163001686000000000000
B0622103157028S11655343EA0162901686000000000000
B0622143156950S11655363EA0162701683000000000000
B0622183156872S11655383EA0162501681000000000000
B0622223156794S11655404EA0162101677000000000000
B0622263156716S11655426EA0161501670000000000000
B0622303156637S11655448EA0160801661000000000000
B0622343156553S11655465EA0159901652000000000000
B0622383156470S11655476EA0159501651000000000000
B0622423156387S11655484EA0159101644000000000000
B0622463156305S11655493EA0158401634000000000000
B0622503156222S11655501EA0157501628000000000000
B0622543156137S11655508EA0156901622000000000000
B0622583156052S11655514EA0156301615000000000000
B0623023155964S11655519EA0155701610000000000000
B0623063155877S11655523EA0155101604000000000000
B0623103155792S11655526EA0154601599000000000000
B0623143155704S11655527EA0153801590000000000000
B0623183155621S11655530EA0153401589000000000000
B0623223155541S11655532EA0152901581000000000000
B0623263155460S11655534EA0152501578000000000000
B0623303155381S11655535EA0152001575000000000000
B0623343155304S11655536EA0151801573000000000000
B0623383155229S11655538EA0151601570000000000000
B0623423155153S11655543EA0151201565000000000000
B0623463155079S11655552EA0150501556000000000000
B0623503155002S11655557EA0149901551000000000000
B0623543154924S11655564EA0150301559000000000000
B0623583154853S11655587EA0151601571000000000000
B0624023154797S11655632EA0152301581000000000000
B0624063154774S11655691EA0153901599000000000000
B0624103154787S11655742EA0154601599000000000000
B0624143154824S11655768EA0153501587000000000000
B0624183154876S11655743EA0152601581000000000000
B0624223154898S11655665EA0151201562000000000000
B0624263154865S11655580EA0149801552000000000000
B0624303154801S11655528EA0150301558000000000000
B0624343154732S11655489EA0151101565000000000000
B0624383154661S11655453EA0151101567000000000000
B0624423154588S11655422EA0151501568000000000000
B0624463154510S11655395EA0151401568000000000000
B0624503154429S11655371EA0151601572000000000000
B0624543154346S11655350EA0151801574000000000000
B0624583154263S11655333EA0151901573000000000000
B0625023154182S11655319EA0151901575000000000000
B0625063154103S11655315EA0151901576000000000000
B0625103154024S11655313EA0151901577000000000000
B0625143153944S11655305EA0151801576000000000000
B0625183153865S11655294EA0151501571000000000000
B0625223153786S11655288EA0151101570000000000000
B0625263153710S11655289EA0151701579000000000000
B0625303153635S11655296EA0152401583000000000000
B0625343153562S11655319EA0151901577000000000000
B0625383153487S11655343EA0151201569000000000000
B0625423153409S11655365EA0150401560000000000000
B0625463153331S11655383EA0150101558000000000000
B0625503153249S11655393EA0149601554000000000000
B0625543153166S11655396EA0148901547000000000000
B0625583153081S11655393EA0148201540000000000000
B0626023152999S11655387EA0147501533000000000000
B0626063152916S11655379EA0146501524000000000000
B0626103152833S11655374EA0145501514000000000000
B0626143152751S11655370EA0144901509000000000000
B0626183152670S11655367EA0144401502000000000000
B0626223152587S11655365EA0143501493000000000000
B0626263152503S11655362EA0143101490000000000000
B0626303152422S11655359EA0142801486000000000000
B0626343152343S11655363EA0142701490000000000000
B0626383152269S11655374EA0142801485000000000000
B0626423152192S11655391EA0142101477000000000000
B0626463152118S11655417EA0141201467000000000000
B0626503152049S11655456EA0140601461000000000000
B0626543151979S11655497EA0140601462000000000000
B0626583151910S11655540EA0140901464000000000000
B0627023151843S11655584EA0140701460000000000000
B0627063151782S11655631EA0140301456000000000000
B0627103151725S11655683EA0139301444000000000000
B0627143151668S11655742EA0137701426000000000000
B0627183151613S11655801EA0136501415000000000000
B0627223151573S11655868EA0135201403000000000000
B0627263151542S11655939EA0134401395000000000000
B0627303151517S11656009EA0133701389000000000000
B0627343151498S11656080EA0133001380000000000000
B0627383151485S11656151EA0132101369000000000000
B0627423151479S11656227EA0130701356000000000000
B0627463151479S11656303EA0129401349000000000000
B0627503151481S11656379EA0128901344000000000000
B0627543151483S11656450EA0129101345000000000000
B0627583151503S11656511EA0128701338000000000000
B0628023151537S11656563EA0128301335000000000000
B0628063151589S11656589EA0127801325000000000000
B0628103151651S11656600EA0126601314000000000000
B0628143151717S11656600EA0125601304000000000000
B0628183151784S11656589EA0124301291000000000000
B0628223151853S11656584EA0122801275000000000000
B0628263151923S11656580EA0122001267000000000000
B0628303151990S11656562EA0122701279000000000000
B0628343152051S11656540EA0123301285000000000000
B0628383152115S11656518EA0122801274000000000000
B0628423152179S11656494EA0122101272000000000000
B0628463152241S11656463EA0121801267000000000000
B0628503152309S11656433EA0121401265000000000000
B0628543152374S11656401EA0121101258000000000000
B0628583152441S11656367EA0120201251000000000000
B0629023152506S11656320EA0120201252000000000000
B0629063152536S11656243EA0121601272000000000000
B0629103152505S11656168EA0121601267000000000000
B0629143152436S11656143EA0120001251000000000000
B0629183152376S11656178EA0119401247000000000000
B0629223152353S11656237EA0119701249000000000000
B0629263152362S11656294EA0119201244000000000000
B0629303152400S11656340EA0118501235000000000000
B0629343152454S11656367EA0117901226000000000000
B0629383152516S11656379EA0116401208000000000000
B0629423152583S11656377EA0114501191000000000000
B0629463152653S11656370EA0113301181000000000000
B0629503152722S11656346EA0112701175000000000000
B0629543152787S11656307EA0111601163000000000000
B0629583152852S11656256EA0110701155000000000000
B0630023152915S11656201EA0110201151000000000000
B0630063152973S11656141EA0109701144000000000000
B0630103153033S11656080EA0108701129000000000000
B0630143153093S11656017EA0107301117000000000000
B0630183153151S11655956EA0106101104000000000000
B0630223153216S11655909EA0104601090000000000000
B0630263153281S11655861EA0103601085000000000000
B0630303153342S11655808EA0103301083000000000000
B0630343153398S11655751EA0102701075000000000000
B0630383153453S11655690EA0101401062000000000000
B0630423153507S11655627EA0100401049000000000000
B0630463153566S11655566EA0099701042000000000000
B0630503153628S11655519EA0099201038000000000000
B0630543153695S11655491EA0098801039000000000000
B0630583153760S11655479EA0099201044000000000000
B0631023153818S11655488EA0099501046000000000000
B0631063153873S11655504EA0099201040000000000000
B0631103153926S11655528EA0099001038000000000000
B0631143153979S11655518EA0099801048000000000000
B0631183154016S11655458EA0099401041000000000000
B0631223154056S11655391EA0098001028000000000000
B0631263154105S11655330EA0097401019000000000000
B0631303154160S11655274EA0096301009000000000000
B0631343154217S11655222EA0095801004000000000000
B0631383154276S11655171EA0095000994000000000000
B0631423154336S11655119EA0093900982000000000000
B0631463154399S11655068EA0092800973000000000000
B0631503154464S11655018EA0092200966000000000000
B0631543154532S11654972EA0091500960000000000000
B0631583154601S11654928EA0091100957000000000000
B0632023154668S11654885EA0091200958000000000000
B0632063154737S11654868EA0091000959000000000000
B0632103154801S11654871EA0091200960000000000000
B0632143154856S11654889EA0091000957000000000000
B0632183154908S11654914EA0090400948000000000000
B0632223154952S11654951EA0089800942000000000000
B0632263154986S11654998EA0089100935000000000000
B0632303155018S11655044EA0088400925000000000000
B0632343155060S11655080EA0087200909000000000000
B0632383155114S11655093EA0086500906000000000000
B0632423155170S11655092EA0086100900000000000000
B0632463155227S11655093EA0085300895000000000000
B0632503155282S11655106EA0084600886000000000000
B0632543155337S11655127EA0083400872000000000000
B0632583155396S11655137EA0082600866000000000000
B0633023155459S11655128EA0082100861000000000000
B0633063155521S11655107EA0081500851000000000000
B0633103155584S11655081EA0080300839000000000000
B0633143155646S11655046EA0078800822000000000000
B0633183155707S11655002EA0076700800000000000000
B0633223155768S11654956EA0074700778000000000000
B0633263155831S11654908EA0072600759000000000000
B0633303155892S11654862EA0070700738000000000000
B0633343155955S11654819EA0068600717000000000000
B0633383156016S11654778EA0067100704000000000000
B0633423156074S11654735EA0065700684000000000000
B0633463156132S11654691EA0063900669000000000000
B0633503156188S11654643EA0062700659000000000000
B0633543156241S11654596EA0061900652000000000000
B0633583156295S11654547EA0061200644000000000000
B0634023156347S11654496EA0059800628000000000000
B0634063156397S11654443EA0058500617000000000000
B0634103156449S11654390EA0058000614000000000000
B0634143156507S11654357EA0057700610000000000000
B0634183156565S11654356EA0057500608000000000000
B0634223156621S11654366EA0057400609000000000000
B0634263156673S11654387EA0057200607000000000000
B0634303156720S11654418EA0056900601000000000000
B0634343156765S11654448EA0056300596000000000000
B0634383156812S11654481EA0056100595000000000000
B0634423156856S11654509EA0057300610000000000000
B0634463156890S11654469EA0059000628000000000000
B0634503156856S11654403EA0059300628000000000000
B0634543156790S11654408EA0059100626000000000000
B0634583156776S11654464EA0059600635000000000000
B0635023156819S11654473EA0060100634000000000000
B0635063156833S11654403EA0060300639000000000000
B0635103156776S11654355EA0060700642000000000000
B0635143156720S11654391EA0060900646000000000000
B0635183156730S11654443EA0061800651000000000000
B0635223156777S11654417EA0062000653000000000000
B0635263156769S11654340EA0062600660000000000000
B0635303156704S11654309EA0063500668000000000000
B0635343156661S11654352EA0063700666000000000000
B0635383156687S11654392EA0063300662000000000000
B0635423156735S11654366EA0063500664000000000000
B0635463156726S11654293EA0063600664000000000000
B0635503156659S11654278EA0064000674000000000000
B0635543156621S11654326EA0064700675000000000000
B0635583156646S11654365EA0064400674000000000000
B0636023156690S11654335EA0064200670000000000000
B0636063156677S11654253EA0064200671000000000000
B0636103156611S11654225EA0065700690000000000000
B0636143156595S11654275EA0066600696000000000000
B0636183156637S11654279EA0066500690000000000000
B0636223156644S11654202EA0066500695000000000000
B0636263156582S11654150EA0067600709000000000000
B0636303156521S11654176EA0068600718000000000000
B0636343156512S11654232EA0068900718000000000000
B0636383156552S11654252EA0068500713000000000000
B0636423156588S11654196EA0068200712000000000000
B0636463156582S11654106EA0068900722000000000000
B0636503156516S11654082EA0070200732000000015000
B0636543156500S11654132EA0070800739000000015000
B0636583156546S11654130EA0071700749000000000000
B0637023156559S11654059EA0072900761000000000000
B0637063156505S11654005EA0073500764000000000000
B0637103156440S11654030EA0073100761000000000000
B0637143156436S11654088EA0073200762000000000000
B0637183156486S11654093EA0074300777000000000000
B0637223156504S11654026EA0075400786000000000000
B0637263156449S11653966EA0075800791000000000000
B0637303156382S11653983EA0075800786000000000000
B0637343156367S11654043EA0076000793000000000000
B0637383156403S11654076EA0076600798000000000000
B0637423156448S11654036EA0076700800000000000000
B0637463156432S11653959EA0077800816000000000000
B0637503156366S11653952EA0078800822000000000000
B0637543156341S11654010EA0078500821000000000000
B0637583156383S11654028EA0079300833000000000000
B0638023156414S11653974EA0080500844000000000000
B0638063156382S11653903EA0081400852000000000000
B0638103156314S11653896EA0082100857000000000000
B0638143156275S11653946EA0082400862000000000000
B0638183156296S11653987EA0083100868000000000000
B0638223156341S11653971EA0083800877000000000000
B0638263156351S11653901EA0084200881000000000000
B0638303156295S11653850EA0085200893000000000000
B0638343156230S11653867EA0085700893000000000000
B0638383156214S11653923EA0086400902000000000000
B0638423156252S11653939EA0086600904000000000000
B0638463156280S11653881EA0087200913000000000000
B0638503156252S11653809EA0087900917000000000000
B0638543156182S11653789EA0088500922000000000000
B0638583156131S11653831EA0088900924000000000000
B0639023156137S11653884EA0088800922000000000000
B0639063156180S11653900EA0088700922000000000000
B0639103156223S11653862EA0089400930000000000000
B0639143156221S11653786EA0090200940000000000000
B0639183156157S11653767EA0091200948000000000000
B0639223156128S11653819EA0091300951000000000000
B0639263156162S11653851EA0091900956000000000000
B0639303156205S11653811EA0092900968000000000000
B0639343156192S11653733EA0094300984000000000000
B0639383156130S11653690EA0095200990000000000000
B0639423156065S11653715EA0095700994000000000000
B0639463156044S11653777EA0096201000000000000000
B0639503156072S11653818EA0096501002000000000000
B0639543156120S11653810EA0096701002000000000000
B0639583156156S11653751EA0097001011000000000000
B0640023156140S11653673EA0098401027000000000000
B0640063156078S11653641EA0099701041000000000000
B0640103156027S11653677EA0100901046000000000000
B0640143156032S11653729EA0101701058000000000000
B0640183156075S11653742EA0102301063000000000000
B0640223156117S11653695EA0102901073000000000000
B0640263156106S11653617EA0103801080000000000000
B0640303156045S11653573EA0104501085000000000000
B0640343155981S11653606EA0105601101000000000000
B0640383155972S11653666EA0107501121000000000000
B0640423156013S11653699EA0108501126000000000000
B0640463156067S11653677EA0108801135000000000000
B0640503156083S11653602EA0110101147000000000000
B0640543156039S11653537EA0110801152000000000000
B0640583155971S11653536EA0111401157000000000000
B0641023155940S11653590EA0112501174000000000000
B0641063155968S11653633EA0113901184000000000000
B0641103156020S11653619EA0114801195000000000000
B0641143156046S11653552EA0116001208000000000000
B0641183156031S11653478EA0116901217000000000000
B0641223155974S11653434EA0117601222000000000000
B0641263155909S11653452EA0118401230000000000000
B0641303155892S11653512EA0119701249000000000000
B0641343155931S11653534EA0121101260000000000000
B0641383155971S11653490EA0121901266000000000000
B0641423155967S11653415EA0122801278000000000000
B0641463155919S11653359EA0123801285000000000000
B0641503155850S11653361EA0124401296000000000000
B0641543155811S11653412EA0126101314000000000000
B0641583155818S11653464EA0127801331000000000000
B0642023155854S11653481EA0129101339000000000000
B0642063155893S11653439EA0129101339000000000000
B0642103155893S11653364EA0129901347000000000000
B0642143155840S11653315EA0130501358000000000000
B0642183155772S11653329EA0131301364000000000000
B0642223155738S11653389EA0132501379000000000000
B0642263155754S11653442EA0134601402000000000000
B0642303155795S11653452EA0135801408000000000000
B0642343155837S11653413EA0136101410000000000000
B0642383155846S11653339EA0136201412000000000000
B0642423155811S11653269EA0137301426000000000000
B0642463155742S11653242EA0137501425000000000000
B0642503155678S11653282EA0137901429000000000000
B0642543155667S11653352EA0138901443000000000000
B0642583155704S11653396EA0140201460000000000000
B0643023155758S11653393EA0141401466000000000000
B0643063155799S11653344EA0141801471000000000000
B0643103155802S11653270EA0142101474000000000000
B0643143155773S11653198EA0142201475000000000000
B0643183155711S11653155EA0142901487000000000000
B0643223155647S11653175EA0144601500000000000000
B0643263155626S11653235EA0145201509000000000000
B0643303155654S11653277EA0146301519000000000000
B0643343155699S11653268EA0146601519000000000000
B0643383155721S11653205EA0146301516000000000000
B0643423155693S11653138EA0147401535000000000000
B0643463155633S11653113EA0148801543000000000000
B0643503155576S11653151EA0149001545000000000000
B0643543155574S11653213EA0149701554000000000000
B0643583155617S11653242EA0150301558000000000000
B0644023155667S11653216EA0149601545000000000000
B0644063155684S11653143EA0148901542000000000000
B0644103155664S11653066EA0149601550000000000000
B0644143155611S11653017EA0150601563000000000000
B0644183155547S11653029EA0152101582000000000000
B0644223155524S11653084EA0153201585000000000000
B0644263155551S11653133EA0153401590000000000000
B0644303155602S11653122EA0153901594000000000000
B0644343155632S11653065EA0154501601000000000000
B0644383155626S11652995EA0155401613000000000000
B0644423155581S11652948EA0156801626000000000000
B0644463155521S11652951EA0158301639000000000000
B0644503155483S11652999EA0159101647000000000000
B0644543155482S11653057EA0159801655000000000000
B0644583155516S11653097EA0159901654000000000000
B0645023155565S11653104EA0160001652000000000000
B0645063155616S11653074EA0158701634000000000000
B0645103155634S11653004EA0157701627000000000000
B0645143155600S11652936EA0157601629000000000000
B0645183155546S11652900EA0158101637000000000000
B0645223155495S11652928EA0159001645000000000000
B0645263155480S11652988EA0159801656000000000000
B0645303155499S11653044EA0159801652000000000000
B0645343155541S11653086EA0158801636000000000000
B0645383155591S11653122EA0157801633000000000000
B0645423155642S11653152EA0157301621000000000000
B0645463155698S11653177EA0155901607000000000000
B0645503155759S11653195EA0154701602000000000000
B0645543155824S11653201EA0155101607000000000000
B0645583155885S11653204EA0155601612000000000000
B0646023155946S11653204EA0155601610000000000000
B0646063156007S11653203EA0155401609000000000000
B0646103156070S11653199EA0154701602000000000000
B0646143156133S11653196EA0154201596000000000000
B0646183156198S11653191EA0153501592000000000000
B0646223156262S11653185EA0153301587000000000000
B0646263156327S11653181EA0152601578000000000000
B0646303156390S11653198EA0151901572000000000000
B0646343156449S11653226EA0151701570000000000000
B0646383156512S11653253EA0152001577000000000000
B0646423156573S11653281EA0152101571000000000000
B0646463156638S11653309EA0151701570000000000000
B0646503156699S11653341EA0151901571000000000000
B0646543156760S11653373EA0151301564000000000000
B0646583156821S11653407EA0150701559000000000000
B0647023156884S11653441EA0149901549000000000000
B0647063156946S11653467EA0149601547000000000000
B0647103157008S11653489EA0149001537000000000000
B0647143157071S11653507EA0148201533000000000000
B0647183157132S11653521EA0148101533000000000000
B0647223157193S11653533EA0147801528000000000000
B0647263157255S11653547EA0147201521000000000000
B0647303157320S11653563EA0146401512000000000000
B0647343157388S11653578EA0145901508000000000000
B0647383157457S11653595EA0145601504000000000000
B0647423157526S11653612EA0144801496000000000000
B0647463157597S11653629EA0144201487000000000000
B0647503157669S11653647EA0143201480000000000000
B0647543157739S11653667EA0142601472000000000000
B0647583157809S11653685EA0141901467000000000000
B0648023157878S11653703EA0142001469000000000000
B0648063157942S11653720EA0141801467000000000000
B0648103158004S11653737EA0141401461000000000000
B0648143158065S11653754EA0140801456000000000000
B0648183158125S11653773EA0140201448000000000000
B0648223158182S11653793EA0139501440000000000000
B0648263158241S11653812EA0138501428000000000000
B0648303158301S11653832EA0137201414000000000000
B0648343158360S11653851EA0136001404000000000000
B0648383158423S11653867EA0135001395000000000000
B0648423158485S11653885EA0134901395000000000000
B0648463158545S11653907EA0134701393000000000000
B0648503158603S11653933EA0134301391000000000000
B0648543158663S11653957EA0133701382000000000000
B0648583158726S11653979EA0132801370000000000000
B0649023158789S11654001EA0131901367000000000000
B0649063158852S11654020EA0131701363000000000000
B0649103158913S11654037EA0131201358000000000000
B0649143158975S11654053EA0130601349000000000000
B0649183159040S11654071EA0129601340000000000000
B0649223159103S11654088EA0129401341000000000000
B0649263159161S11654101EA0129401343000000000000
B0649303159216S11654110EA0129401340000000000000
B0649343159274S11654122EA0128801331000000000000
B0649383159338S11654136EA0128201328000000000000
B0649423159403S11654152EA0128201331000000000000
B0649463159467S11654170EA0127901320000000000000
B0649503159533S11654193EA0126401306000000000000
B0649543159599S11654217EA0125201294000000000000
B0649583159667S11654241EA0123901281000000000000
B0650023159734S11654266EA0122901275000000000000
B0650063159801S11654292EA0122401266000000000000
B0650103159864S11654318EA0121501256000000000000
B0650143159927S11654343EA0120901251000000000000
B0650183159985S11654369EA0120801251000000000000
B0650223200043S11654392EA0120801253000000000000
B0650263200098S11654413EA0120801250000000000000
B0650303200154S11654435EA0120001236000000000000
B0650343200213S11654459EA0118101223000000000000
B0650383200277S11654479EA0117201210000000000000
B0650423200342S11654501EA0116001198000000000000
B0650463200412S11654518EA0114501185000000000000
B0650503200481S11654537EA0114001182000000000000
B0650543200547S11654553EA0113701177000000000000
B0650583200613S11654573EA0113101175000000000000
B0651023200674S11654598EA0113501178000000000000
B0651063200732S11654629EA0113501177000000000000
B0651103200785S11654665EA0112701164000000000000
B0651143200838S11654703EA0111701157000000000000
B0651183200889S11654735EA0111701163000000000000
B0651223200937S11654764EA0112001164000000000000
B0651263200989S11654793EA0111501156000000000000
B0651303201041S11654821EA0111401157000000000000
B0651343201092S11654849EA0111201155000000000000
B0651383201145S11654875EA0111101152000000000000
B0651423201200S11654899EA0110701150000000000000
B0651463201255S11654925EA0110601151000000000000
B0651503201310S11654947EA0110601147000000000000
B0651543201362S11654973EA0110601152000000000000
B0651583201408S11655006EA0111401155000000000000
B0652023201454S11655037EA0110101139000000000000
B0652063201509S11655064EA0108801126000000000000
B0652103201567S11655090EA0107801119000000000000
B0652143201627S11655116EA0107301113000000000000
B0652183201687S11655140EA0106901111000000000000
B0652223201747S11655168EA0106701108000000000000
B0652263201805S11655203EA0105901098000000000000
B0652303201864S11655239EA0105101093000000000000
B0652343201922S11655271EA0104901092000000000000
B0652383201977S11655302EA0104901091000000000000
B0652423202032S11655336EA0104301082000000000000
B0652463202090S11655366EA0103501076000000000000
B0652503202146S11655397EA0104001079000000000000
B0652543202201S11655422EA0103501075000000000000
B0652583202256S11655444EA0103101072000000000000
B0653023202312S11655462EA0102901068000000000000
B0653063202368S11655483EA0102401063000000000000
B0653103202425S11655506EA0101601051000000000000
B0653143202483S11655535EA0100601043000000000000
B0653183202540S11655567EA0100201037000000000000
B0653223202601S11655592EA0100101039000000000000
B0653263202658S11655621EA0100701045000000000000
B0653303202714S11655657EA0101001048000000000000
B0653343202770S11655658EA0102801068000000000000
B0653383202783S11655590EA0104901089000000000000
B0653423202734S11655538EA0105801096000000000000
B0653463202678S11655558EA0106401102000000000000
B0653503202671S11655613EA0107101109000000000000
B0653543202713S11655627EA0107801114000000000000
B0653583202748S11655574EA0108501124000000000000
B0654023202723S11655497EA0109301131000000000000
B0654063202658S11655474EA0109301133000000000000
B0654103202610S11655517EA0109701136000000000000
B0654143202610S11655575EA0110101144000000000000
B0654183202646S11655617EA0110701149000000000000
B0654223202695S11655645EA0110701145000000000000
B0654263202748S11655678EA0110301141000000000000
B0654303202804S11655709EA0109301126000000000000
B0654343202865S11655740EA0107501108000000000000
B0654383202926S11655775EA0106601103000000000000
B0654423202982S11655808EA0106601104000000000000
B0654463203035S11655834EA0106801108000000000000
B0654503203090S11655855EA0106201101000000000000
B0654543203144S11655879EA0104601084000000000000
B0654583203203S11655907EA0103401073000000000000
B0655023203260S11655935EA0102501062000000000000
B0655063203317S11655964EA0101801051000000000000
B0655103203380S11655986EA0100201034000000000000
B0655143203445S11656007EA0098701018000000000000
B0655183203512S11656022EA0097601011000000000000
B0655223203581S11656034EA0097601016000000000000
B0655263203641S11656056EA0099601039000000000000
B0655303203690S11656029EA0102001064000000000000
B0655343203685S11655959EA0102701063000000000000
B0655383203625S11655918EA0101901056000000000000
B0655423203566S11655941EA0102201063000000000000
B0655463203547S11655993EA0103701080000000000000
B0655503203572S11656030EA0104401084000000000000
B0655543203615S11656009EA0105401100000000000000
B0655583203620S11655939EA0106601109000000000000
B0656023203575S11655882EA0106801107000000000000
B0656063203512S11655882EA0106901110000000000000
B0656103203484S11655929EA0107901122000000000000
B0656143203511S11655964EA0108601126000000000000
B0656183203556S11655933EA0109501138000000000000
B0656223203553S11655855EA0110401145000000000000
B0656263203495S11655813EA0110701148000000000000
B0656303203449S11655846EA0111701158000000000000
B0656343203462S11655894EA0112101163000000000000
B0656383203514S11655882EA0113001173000000000000
B0656423203542S11655813EA0114801191000000000000
B0656463203512S11655743EA0114901192000000000000
B0656503203450S11655729EA0114901193000000000000
B0656543203408S11655772EA0115701206000000000000
B0656583203411S11655824EA0116701211000000000000
B0657023203455S11655843EA0117301221000000000000
B0657063203502S11655804EA0118801237000000000000
B0657103203514S11655727EA0120101249000000000000
B0657143203482S11655656EA0120601251000000000000
B0657183203419S11655634EA0120401249000000000000
B0657223203371S11655670EA0120701254000000000000
B0657263203365S11655722EA0122301272000000000000
B0657303203406S11655744EA0123701286000000000000
B0657343203443S11655697EA0124701295000000000000
B0657383203415S11655622EA0125501310000000000000
B0657423203355S11655614EA0126901321000000000000
B0657463203334S11655664EA0128101335000000000000
B0657503203365S11655696EA0129801351000000000000
B0657543203410S11655665EA0131201366000000000000
B0657583203404S11655588EA0132501379000000000000
B0658023203351S11655538EA0133501389000000000000
B0658063203294S11655552EA0134701401000000000000
B0658103203270S11655599EA0136001415000000000000
B0658143203302S11655632EA0137101425000000000000
B0658183203345S11655599EA0138801444000000000000
B0658223203329S11655525EA0140401454000000000000
B0658263203265S11655497EA0140801464000000000000
B0658303203224S11655540EA0142401478000000000000
B0658343203243S11655591EA0143601490000000000000
B0658383203293S11655582EA0145201507000000000000
B0658423203312S11655514EA0146501523000000000000
B0658463203285S11655443EA0147801534000000000000
B0658503203228S11655409EA0148701544000000000000
B0658543203179S11655434EA0149501549000000000000
B0658583203181S11655488EA0149701554000000000000
B0659023203222S11655512EA0151001568000000000000
B0659063203265S11655479EA0152301581000000000000
B0659103203274S11655409EA0152701579000000000000
B0659143203234S11655337EA0152601582000000000000
B0659183203168S11655310EA0153701593000000000000
B0659223203114S11655333EA0154601601000000000000
B0659263203099S11655384EA0155201610000000000000
B0659303203118S11655419EA0156101624000000000000
B0659343203160S11655422EA0156901626000000000000
B0659383203196S11655378EA0157301630000000000000
B0659423203198S11655304EA0157701633000000000000
B0659463203156S11655236EA0157701637000000000000
B0659503203090S11655214EA0158401643000000000000
B0659543203034S11655242EA0159101650000000000000
B0659583203029S11655292EA0160101661000000000000
B0700023203061S11655326EA0160301661000000000000
B0700063203101S11655358EA0160301661000000000000
B0700103203148S11655391EA0159801653000000000000
B0700143203203S11655419EA0158901641000000000000
B0700183203261S11655447EA0157701629000000000000
B0700223203321S11655471EA0157401634000000000000
B0700263203376S11655500EA0157401627000000000000
B0700303203432S11655528EA0156801624000000000000
B0700343203488S11655551EA0156901626000000000000
B0700383203540S11655575EA0156401619000000000000
B0700423203592S11655603EA0155401609000000000000
B0700463203646S11655627EA0154601600000000000000
B0700503203702S11655651EA0154201594000000000000
B0700543203758S11655670EA0153701591000000000000
B0700583203816S11655687EA0153101585000000000000
B0701023203878S11655700EA0152501580000000000000
B0701063203936S11655712EA0151901574000000000000
B0701103203995S11655727EA0151101564000000000000
B0701143204053S11655751EA0150001551000000000000
B0701183204113S11655774EA0148801540000000000000
B0701223204175S11655798EA0148201534000000000000
B0701263204236S11655820EA0147601530000000000000
B0701303204296S11655839EA0147201524000000000000
B0701343204355S11655864EA0146601522000000000000
B0701383204409S11655886EA0147001527000000000000
B0701423204461S11655902EA0147601531000000000000
B0701463204512S11655915EA0147201524000000000000
B0701503204568S11655929EA0146301518000000000000
B0701543204625S11655943EA0146101516000000000000
B0701583204681S11655960EA0146001516000000000000
B0702023204736S11655978EA0146201521000000000000
B0702063204788S11656000EA0146501517000000000000
B0702103204841S11656024EA0145901511000000000000
B0702143204898S11656046EA0145301509000000000000
B0702183204955S11656071EA0145201507000000000000
B0702223205011S11656097EA0144901502000000000000
B0702263205066S11656125EA0144201496000000000000
B0702303205124S11656150EA0143601487000000000000
B0702343205185S11656169EA0142801481000000000000
B0702383205245S11656193EA0142101472000000000000
B0702423205305S11656217EA0141301467000000000000
B0702463205361S11656251EA0141201465000000000000
B0702503205417S11656285EA0140101450000000000000
B0702543205479S11656314EA0138701439000000000000
B0702583205545S11656337EA0138101431000000000000
B0703023205610S11656358EA0137301426000000000000
B0703063205674S11656379EA0136801417000000000000
B0703103205737S11656401EA0135701406000000000000
B0703143205799S11656428EA0134801399000000000000
B0703183205857S11656453EA0134901402000000000000
B0703223205915S11656471EA0134801400000000000000
B0703263205972S11656481EA0134301393000000000000
B0703303206032S11656496EA0133901389000000000000
B0703343206084S11656518EA0134201393000000000000
B0703383206138S11656536EA0134201391000000000000
B0703423206193S11656558EA0133801386000000000000
B0703463206249S11656584EA0132901373000000000000
B0703503206307S11656611EA0131701364000000000000
B0703543206367S11656639EA0130901358000000000000
B0703583206422S11656675EA0130201347000000000000
B0704023206475S11656713EA0129801345000000000000
B0704063206535S11656737EA0129701346000000000000
B0704103206596S11656763EA0130301351000000000000
B0704143206652S11656795EA0131401370000000000000
B0704183206705S11656822EA0133101384000000000000
B0704223206757S11656849EA0133701390000000000000
B0704263206806S11656877EA0133001378000000000000
B0704303206860S11656903EA0131701365000000000000
B0704343206912S11656938EA0130001345000000000000
B0704383206957S11656982EA0129201344000000000000
B0704423207003S11657023EA0129101339000000000000
B0704463207047S11657066EA0128601332000000000000
B0704503207092S11657108EA0127601322000000000000
B0704543207135S11657153EA0126701311000000000000
B0704583207180S11657200EA0125501301000000000000
B0705023207224S11657243EA0124901295000000000000
B0705063207268S11657285EA0125001299000000000000
B0705103207312S11657320EA0125101301000000000000
B0705143207355S11657354EA0125501301000000000000
B0705183207399S11657385EA0124701291000000000000
B0705223207450S11657412EA0124301287000000000000
B0705263207498S11657445EA0123701279000000000000
B0705303207551S11657478EA0123201275000000000000
B0705343207603S11657512EA0123301281000000000000
B0705383207651S11657541EA0123801285000000000000
B0705423207703S11657567EA0123901289000000000000
B0705463207754S11657589EA0124101285000000000000
B0705503207806S11657614EA0123401280000000000000
B0705543207854S11657642EA0122801272000000000000
B0705583207906S11657670EA0121601258000000000000
B0706023207961S11657699EA0120301246000000000000
B0706063208009S11657741EA0119701244000000000000
B0706103208053S11657783EA0119601240000000000000
B0706143208100S11657819EA0118901231000000000000
B0706183208151S11657855EA0117901222000000000000
B0706223208197S11657897EA0117301218000000000000
B0706263208242S11657937EA0117201216000000000000
B0706303208288S11657974EA0116601207000000000000
B0706343208342S11658002EA0115601201000000000000
B0706383208396S11658027EA0115701205000000000000
B0706423208448S11658057EA0116201211000000000000
B0706463208503S11658086EA0116101206000000000000
B0706503208559S11658113EA0115901207000000000000
B0706543208613S11658140EA0115501200000000000000
B0706583208668S11658167EA0114601191000000000000
B0707023208724S11658195EA0113501178000000000000
B0707063208773S11658239EA0112401168000000000000
B0707103208819S11658287EA0111701163000000000000
B0707143208863S11658334EA0111401160000000000000
B0707183208906S11658378EA0111001153000000000000
B0707223208954S11658417EA0109701139000000000000
B0707263209003S11658463EA0108701131000000000000
B0707303209041S11658517EA0108701133000000000000
B0707343209066S11658574EA0108801133000000000000
B0707383209085S11658630EA0108601125000000000000
B0707423209109S11658690EA0107001107000000000000
B0707463209137S11658754EA0105601097000000000000
B0707503209167S11658815EA0105501096000000000000
B0707543209201S11658871EA0105601100000000000000
B0707583209239S11658918EA0105601096000000000000
B0708023209279S11658963EA0104901091000000000000
B0708063209317S11659007EA0104301080000000000000
B0708103209361S11659050EA0102801063000000000000
B0708143209400S11659098EA0101601051000000000000
B0708183209440S11659150EA0100701045000000000000
B0708223209478S11659200EA0100701046000000000000
B0708263209512S11659253EA0099701035000000000000
B0708303209538S11659313EA0099001026000000000000
B0708343209557S11659378EA0097901015000000000000
B0708383209575S11659443EA0097101009000000000000
B0708423209605S11659501EA0096601001000000000000
B0708463209661S11659531EA0095200987000000000000
B0708503209726S11659542EA0094400980000000000000
B0708543209783S11659561EA0093800976000000000000
B0708583209843S11659571EA0092800962000000000000
B0709023209906S11659560EA0091900957000000000000
B0709063209964S11659526EA0091500952000000000000
B0709103210021S11659479EA0090700940000000000000
B0709143210079S11659428EA0089700933000000000000
B0709183210133S11659373EA0088600921000000000000
B0709223210185S11659305EA0087700912000000000000
B0709263210233S11659236EA0087400913000000000000
B0709303210294S11659201EA0087900921000000000000
B0709343210353S11659210EA0088800927000000000000
B0709383210365S11659266EA0089800938000000000000
B0709423210303S11659293EA0089800935000000000000
B0709463210233S11659253EA0089500928000000000000
B0709503210188S11659176EA0088700920000000000000
B0709543210183S11659083EA0088000915000000000000
B0709583210207S11658993EA0088100921000000000000
B0710023210254S11658936EA0088700926000000000000
B0710063210311S11658916EA0088700923000000000000
B0710103210365S11658929EA0087800912000000000000
B0710143210402S11658973EA0086600898000000000000
B0710183210426S11659032EA0085300886000000000000
B0710223210450S11659092EA0084800886000000000000
B0710263210472S11659152EA0084400876000000000000
B0710303210488S11659217EA0083700868000000000000
B0710343210485S11659289EA0083400872000000000000
B0710383210463S11659358EA0083900876000000000000
B0710423210422S11659421EA0084200878000000000000
B0710463210362S11659467EA0084100877000000000000
B0710503210289S11659484EA0084900888000000000000
B0710543210227S11659445EA0085900897000000000000
B0710583210201S11659371EA0085700892000000000000
B0711023210222S11659308EA0085000884000000000000
B0711063210270S11659292EA0084300877000000000000
B0711103210315S11659323EA0083800870000000000000
B0711143210355S11659369EA0082800862000000000000
B0711183210396S11659419EA0082100854000000000000
B0711223210433S11659475EA0081500851000000000000
B0711263210467S11659532EA0081800853000000000000
B0711303210496S11659588EA0082600863000000000000
B0711343210547S11659590EA0083700874000000000000
B0711383210566S11659523EA0084400881000000000000
B0711423210530S11659460EA0085200893000000000000
B0711463210469S11659447EA0085700894000000000000
B0711503210422S11659486EA0085500895000000000000
B0711543210413S11659542EA0086100904000000000000
B0711583210440S11659573EA0086600904000000000000
B0712023210484S11659553EA0086000900000000000000
B0712063210506S11659486EA0086600909000000000000
B0712103210487S11659419EA0087400913000000000000
B0712143210428S11659391EA0087200911000000000000
B0712183210375S11659422EA0087300914000000000000
B0712223210375S11659477EA0088000921000000000000
B0712263210418S11659486EA0088000917000000000000
B0712303210454S11659430EA0088200924000000000000
B0712343210441S11659361EA0088600923000000000000
B0712383210380S11659339EA0087900916000000000000
B0712423210333S11659384EA0088000926000000000000
B0712463210345S11659435EA0089300937000000000000
B0712503210391S11659438EA0089700937000000000000
B0712543210420S11659380EA0090200947000000000000
B0712583210396S11659315EA0090700945000000000000
B0713023210333S11659296EA0090200942000000000000
B0713063210284S11659332EA0090700951000000000000
B0713103210288S11659383EA0091600961000000000000
B0713143210329S11659396EA0091800958000000000000
B0713183210372S11659358EA0091900962000000000000
B0713223210375S11659289EA0092400968000000000000
B0713263210332S11659241EA0093000972000000000000
B0713303210271S11659235EA0093200971000000000000
B0713343210227S11659280EA0093000972000000000000
B0713383210225S11659339EA0093700980000000000000
B0713423210264S11659361EA0094000978000000000000
B0713463210305S11659323EA0094200983000000000000
B0713503210305S11659256EA0094500985000000000000
B0713543210258S11659204EA0094700987000000000000
B0713583210193S11659198EA0095100990000000000000
B0714023210146S11659241EA0095100993000000000000
B0714063210138S11659301EA0095300992000000000000
B0714103210172S11659341EA0094800984000000000000
B0714143210219S11659323EA0094800991000000000000
B0714183210229S11659256EA0095100994000000000000
B0714223210185S11659198EA0095700996000000000000
B0714263210118S11659200EA0095900999000000000000
B0714303210084S11659253EA0096401005000000000000
B0714343210098S11659310EA0096000996000000000000
B0714383210145S11659323EA0095901003000000000000
B0714423210173S11659272EA0097001011000000000000
B0714463210146S11659205EA0097401013000000000000
B0714503210080S11659180EA0097401013000000000000
B0714543210027S11659215EA0098001020000000000000
B0714583210014S11659275EA0097801012000000000000
B0715023210042S11659321EA0097301011000000000000
B0715063210086S11659305EA0098001021000000000000
B0715103210099S11659239EA0098501024000000000000
B0715143210066S11659168EA0099301031000000000000
B0715183210001S11659137EA0099101030000000000000
B0715223209934S11659162EA0098401020000000000000
B0715263209904S11659232EA0097001005000000000000
B0715303209938S11659285EA0096801009000000000000
B0715343209991S11659288EA0097801025000000000000
B0715383210033S11659252EA0099501041000000000000
B0715423210049S11659185EA0100501048000000000000
B0715463210020S11659115EA0101701058000000000000
B0715503209962S11659085EA0102201061000000000000
B0715543209899S11659102EA0102101063000000000000
B0715583209860S11659155EA0102001059000000000000
B0716023209861S11659220EA0101701060000000000000
B0716063209886S11659274EA0102401070000000000000
B0716103209916S11659319EA0103201075000000000000
B0716143209959S11659357EA0102201064000000000000
B0716183210006S11659393EA0102801073000000000000
B0716223210047S11659436EA0103501078000000000000
B0716263210090S11659477EA0103501082000000000000
B0716303210129S11659509EA0104101086000000000000
B0716343210172S11659536EA0103501077000000000000
B0716383210216S11659566EA0102901069000000000000
B0716423210254S11659603EA0102101062000000000000
B0716463210292S11659638EA0101001051000000000000
B0716503210331S11659668EA0100501046000000000000
B0716543210381S11659675EA0100101042000000000000
B0716583210436S11659651EA0099501035000000000000
B0717023210489S11659609EA0099001028000000000000
B0717063210536S11659555EA0098101016000000000000
B0717103210578S11659487EA0097001005000000000000
B0717143210621S11659418EA0096000996000000000000
B0717183210661S11659354EA0095100984000000000000
B0717223210697S11659285EA0093500966000000000000
B0717263210723S11659204EA0091900952000000000000
B0717303210731S11659109EA0090900946000000000000
B0717343210729S11659015EA0090800946000000000000
B0717383210716S11658925EA0090500942000000000000
B0717423210700S11658837EA0090100936000000000000
B0717463210678S11658751EA0090200942000000000000
B0717503210656S11658665EA0089600933000000000000
B0717543210652S11658577EA0088800927000000000000
B0717583210677S11658500EA0088500924000000000000
B0718023210716S11658442EA0088300926000000000000
B0718063210765S11658403EA0089000934000000000000
B0718103210813S11658408EA0090600950000000000000
B0718143210826S11658460EA0091100953000000000000
B0718183210790S11658516EA0091400958000000000000
B0718223210721S11658525EA0092600971000000000000
B0718263210648S11658490EA0093300971000000000000
B0718303210588S11658413EA0092800966000000000000
B0718343210562S11658310EA0092300959000000000000
B0718383210579S11658217EA0093000978000000000000
B0718423210621S11658166EA0096101012000000000000
B0718463210665S11658165EA0098201026000000000000
B0718503210695S11658205EA0099101036000000000000
B0718543210684S11658261EA0100401049000000000000
B0718583210634S11658294EA0101601066000000000000
B0719023210571S11658271EA0102901074000000000000
B0719063210534S11658206EA0103301080000000000000
B0719103210540S11658132EA0103801083000000000000
B0719143210576S11658088EA0105101102000000000000
B0719183210621S11658079EA0106601114000000000000
B0719223210658S11658108EA0107201120000000000000
B0719263210673S11658164EA0108301132000000000000
B0719303210651S11658222EA0109501145000000000000
B0719343210600S11658258EA0110701154000000000000
B0719383210532S11658252EA0111701165000000000000
B0719423210469S11658203EA0112401172000000000000
B0719463210428S11658125EA0112801176000000000000
B0719503210418S11658039EA0113201181000000000000
B0719543210436S11657967EA0114401200000000000000
B0719583210475S11657935EA0116201216000000000000
B0720023210521S11657939EA0116901218000000000000
B0720063210543S11657985EA0117401226000000000000
B0720103210504S11658036EA0118001230000000000000
B0720143210431S11658031EA0118601235000000000000
B0720183210371S11657963EA0119601246000000000000
B0720223210352S11657874EA0120901257000000000000
B0720263210370S11657794EA0121601268000000000000
B0720303210415S11657744EA0122401275000000000000
B0720343210471S11657728EA0122801277000000000000
B0720383210523S11657749EA0123401287000000000000
B0720423210556S11657797EA0124401292000000000000
B0720463210561S11657859EA0124701299000000000000
B0720503210547S11657917EA0126401320000000000000
B0720543210515S11657965EA0127401328000000000000
B0720583210469S11658001EA0128801341000000000000
B0721023210409S11658017EA0129701353000000000000
B0721063210342S11658006EA0130701359000000000000
B0721103210276S11657966EA0131301365000000000000
B0721143210225S11657896EA0131701369000000000000
B0721183210199S11657810EA0131701367000000000000
B0721223210197S11657719EA0132201377000000000000
B0721263210220S11657644EA0133101388000000000000
B0721303210264S11657597EA0134101396000000000000
B0721343210318S11657581EA0134701405000000000000
B0721383210368S11657594EA0135401408000000000000
B0721423210410S11657636EA0135501412000000000000
B0721463210428S11657693EA0136401420000000000000
B0721503210418S11657755EA0137201428000000000000
B0721543210374S11657802EA0138001436000000000000
B0721583210311S11657820EA0139301452000000000000
B0722023210244S11657801EA0140701465000000000000
B0722063210185S11657744EA0141301464000000000000
B0722103210154S11657657EA0140801464000000000000
B0722143210153S11657567EA0141801475000000000000
B0722183210181S11657490EA0142501483000000000000
B0722223210232S11657439EA0142901487000000000000
B0722263210290S11657432EA0143801498000000000000
B0722303210339S11657462EA0144201499000000000000
B0722343210362S11657519EA0144201499000000000000
B0722383210353S11657588EA0144201500000000000000
B0722423210315S11657650EA0144301502000000000000
B0722463210263S11657694EA0145801519000000000000
B0722503210205S11657710EA0148001541000000000000
B0722543210142S11657693EA0149001549000000000000
B0722583210079S11657645EA0149301551000000000000
B0723023210024S11657571EA0149601557000000000000
B0723063209993S11657481EA0150301564000000000000
B0723103209993S11657393EA0151001573000000000000
B0723143210025S11657324EA0152001579000000000000
B0723183210082S11657294EA0152301581000000000000
B0723223210142S11657306EA0152801588000000000000
B0723263210183S11657350EA0153301592000000000000
B0723303210194S11657415EA0153501593000000000000
B0723343210176S11657481EA0153701595000000000000
B0723383210142S11657545EA0154001599000000000000
B0723423210118S11657611EA0154801611000000000000
B0723463210118S11657675EA0155801622000000000000
B0723503210140S11657727EA0156501624000000000000
B0723543210166S11657780EA0156301623000000000000
B0723583210198S11657829EA0155901617000000000000
B0724023210233S11657879EA0155001606000000000000
B0724063210271S11657930EA0154001596000000000000
B0724103210309S11657980EA0153201585000000000000
B0724143210345S11658032EA0152101574000000000000
B0724183210381S11658086EA0151301567000000000000
B0724223210419S11658135EA0150601562000000000000
B0724263210453S11658184EA0150201554000000000000
B0724303210491S11658231EA0149101547000000000000
B0724343210522S11658286EA0148701543000000000000
B0724383210536S11658352EA0148001534000000000000
B0724423210535S11658426EA0147101523000000000000
B0724463210527S11658502EA0146301512000000000000
B0724503210517S11658578EA0145001501000000000000
B0724543210505S11658655EA0144501497000000000000
B0724583210492S11658728EA0144401499000000000000
B0725023210482S11658795EA0144101493000000000000
B0725063210476S11658866EA0143301482000000000000
B0725103210470S11658940EA0142201473000000000000
B0725143210463S11659012EA0141601467000000000000
B0725183210453S11659083EA0140401453000000000000
B0725223210440S11659159EA0139001439000000000000
B0725263210427S11659239EA0138201432000000000000
B0725303210415S11659315EA0137901432000000000000
B0725343210402S11659386EA0137901429000000000000
B0725383210387S11659456EA0137301421000000000000
B0725423210367S11659527EA0136201410000000000000
B0725463210345S11659603EA0134801396000000000000
B0725503210326S11659685EA0133401382000000000000
B0725543210307S11659768EA0133301385000000000000
B0725583210288S11659844EA0133301381000000000000
B0726023210263S11659919EA0132701378000000000000
B0726063210231S11659987EA0132301373000000000000
B0726103210188S11700049EA0131101359000000000000
B0726143210140S11700112EA0129501345000000000000
B0726183210093S11700173EA0129001340000000000000
B0726223210054S11700231EA0128701337000000000000
B0726263210014S11700288EA0127901329000000000000
B0726303209969S11700344EA0127501329000000000000
B0726343209928S11700400EA0127801329000000000000
B0726383209900S11700461EA0128201334000000000000
B0726423209904S11700523EA0128501340000000000000
B0726463209923S11700579EA0128701339000000000000
B0726503209945S11700634EA0128001328000000000000
B0726543209968S11700689EA0126801316000000000000
B0726583209990S11700747EA0125701305000000000000
B0727023210014S11700800EA0125301300000000000000
B0727063210041S11700851EA0124301287000000000000
B0727103210072S11700903EA0122701269000000000000
B0727143210103S11700957EA0121301258000000000000
B0727183210132S11701009EA0120601248000000000000
B0727223210180S11701038EA0118801226000000000000
B0727263210248S11701030EA0116401205000000000000
B0727303210311S11700992EA0115901202000000000000
B0727343210362S11700931EA0115501199000000000000
B0727383210391S11700849EA0114801190000000000000
B0727423210400S11700754EA0114401185000000000000
B0727463210396S11700660EA0114101186000000000000
B0727503210376S11700570EA0114201190000000000000
B0727543210353S11700483EA0114601192000000000000
B0727583210326S11700393EA0114801196000000000000
B0728023210290S11700303EA0114901197000000000000
B0728063210254S11700215EA0114501193000000000000
B0728103210215S11700127EA0114601195000000000000
B0728143210172S11700042EA0114501194000000000000
B0728183210132S11659956EA0114301189000000000000
B0728223210090S11659868EA0113001171000000000000
B0728263210043S11659779EA0111501158000000000000
B0728303209991S11659698EA0110601152000000000000
B0728343209937S11659620EA0109301136000000000000
B0728383209884S11659542EA0108401129000000000000
B0728423209832S11659467EA0107901123000000000000
B0728463209777S11659399EA0106701109000000000000
B0728503209724S11659327EA0104901091000000000000
B0728543209670S11659250EA0103701076000000000000
B0728583209617S11659174EA0102801071000000000000
B0729023209565S11659098EA0102201064000000000000
B0729063209518S11659024EA0101601058000000000000
B0729103209474S11658947EA0100601045000000000000
B0729143209425S11658871EA0099201032000000000000
B0729183209375S11658793EA0098201023000000000000
B0729223209326S11658716EA0097501015000000000000
B0729263209278S11658638EA0096701007000000000000
B0729303209232S11658563EA0096401003000000000000
B0729343209188S11658489EA0095800998000000000000
B0729383209140S11658416EA0094800984000000000000
B0729423209088S11658343EA0093400972000000000000
B0729463209033S11658274EA0092300963000000000000
B0729503208980S11658205EA0091600955000000000000
B0729543208914S11658157EA0090600947000000000000
B0729583208841S11658135EA0090000940000000000000
B0730023208768S11658125EA0089200928000000000000
B0730063208694S11658118EA0087800912000000000000
B0730103208617S11658114EA0086200899000000000000
B0730143208542S11658110EA0085600894000000000000
B0730183208469S11658113EA0084900886000000000000
B0730223208404S11658126EA0084800890000000000000
B0730263208357S11658161EA0085100890000000000000
B0730303208333S11658208EA0084500882000000000000
B0730343208331S11658256EA0084200883000000000000
B0730383208355S11658296EA0084600883000000000000
B0730423208389S11658331EA0084600877000000000000
B0730463208425S11658366EA0083700869000000000000
B0730503208467S11658399EA0082700860000000000000
B0730543208513S11658429EA0082600862000000000000
B0730583208568S11658440EA0082200853000000000000
B0731023208630S11658416EA0081400847000000000000
B0731063208678S11658348EA0081000843000000000000
B0731103208706S11658257EA0080600839000000000000
B0731143208714S11658162EA0079800833000000000000
B0731183208704S11658069EA0079100824000000000000
B0731223208682S11657978EA0077800810000000000000
B0731263208655S11657885EA0076500798000000000000
B0731303208623S11657798EA0075500789000000000000
B0731343208586S11657714EA0074600779000000000000
B0731383208543S11657636EA0073600772000000000000
B0731423208496S11657559EA0072600761000000000000
B0731463208447S11657480EA0071500750000000000000
B0731503208395S11657403EA0071000747000000000000
B0731543208340S11657333EA0070900745000000000000
B0731583208277S11657273EA0070600745000000000000
B0732023208208S11657229EA0070900748000000000000
B0732063208142S11657181EA0071500752000000000000
B0732103208073S11657152EA0071900757000000000000
B0732143208021S11657181EA0072500763000000000000
B0732183208022S11657228EA0072200758000000000000
B0732223208062S11657246EA0071800755000000000000
B0732263208108S11657213EA0072600764000000000000
B0732303208125S11657142EA0072600759000000000000
B0732343208095S11657062EA0072100759000000000000
B0732383208031S11657018EA0072600763000000000000
B0732423207969S11657031EA0072900768000000000000
B0732463207940S11657078EA0073000766000000000000
B0732503207957S11657121EA0072800766000000000000
B0732543207997S11657125EA0073100771000000000000
B0732583208036S11657081EA0073000765000000000000
B0733023208044S11657001EA0072500759000000000000
B0733063208012S11656919EA0072400763000000000000
B0733103207953S11656873EA0073100769000000000000
B0733143207892S11656882EA0073100769000000000000
B0733183207870S11656931EA0073500774000000000000
B0733223207892S11656971EA0073500776000000000000
B0733263207937S11656965EA0073700773000000000000
B0733303207973S11656906EA0073200767000000000000
B0733343207963S11656823EA0073400774000000000000
B0733383207931S11656745EA0074000777000000000000
B0733423207876S11656688EA0074700787000000000000
B0733463207814S11656706EA0075000787000000000000
B0733503207810S11656765EA0075800800000000000000
B0733543207854S11656787EA0076500802000000000000
B0733583207904S11656754EA0076500805000000000000
B0734023207923S11656679EA0077100813000000000000
B0734063207892S11656600EA0077700817000000000000
B0734103207822S11656567EA0078100825000000000000
B0734143207765S11656597EA0079300837000000000000
B0734183207767S11656645EA0081000853000000000000
B0734223207814S11656640EA0081300853000000000000
B0734263207841S11656574EA0081300857000000000000
B0734303207810S11656505EA0082400867000000000000
B0734343207745S11656493EA0082700868000000000000
