ACAM4N6
HFDTE030314
HFFXA050
HFPLTPILOT:JOHN WELSH              
HFGTYGLIDERTYPE:HORNET      
HFGIDGLIDERID:VH-GMY      
HFDTM100GPSDATUM:
HFRFWFIRMWAREVERSION:F2.6
HFRHWHARDWAREVERSION:300 Series Version 2
HFFTYFRTYPE:CAMBRIDGE AERO INSTRUMENTS, 302+
HFGPS:GARMIN,LVS-25,12,18000
HFPRSPRESSALTSENSOR:INTERSEMA, MS5534-AP, 20000
I033638FXA3941ENL4247REX
LCAMSBVER:5FWVER:F26300
C030314041915030314000102
C0000000N00000000WTAKEOFF     
C3137399S11712982ECunderdin AF
C3111999S11722999EWyalkatchem 
C3111283S11701799EDOWERIN     
C3137399S11712982ECunderdin AF
C0000000N00000000WLANDING     
B0425123137543S11713172EA0021800221000000000000
B0425143137543S11713172EA0021700221000000000000
B0425163137543S11713172EA0021900221000000000000
B0425183137543S11713172EA0021800221000000000000
B0425203137543S11713172EA0021800221000000000000
B0425223137543S11713172EA0021700221000000000000
B0425243137543S11713172EA0021900221000000000000
B0425263137543S11713172EA0021900221000000000000
B0425283137543S11713172EA0021800221000000000000
B0425303137543S11713172EA0021900221000000000000
B0425323137543S11713172EA0021900221000000000000
B0425343137543S11713172EA0021800221000000000000
B0425363137543S11713172EA0021800221000000000000
B0425383137543S11713172EA0021800221000000000000
B0425403137543S11713172EA0021800221000000000000
B0425433137536S11713164EA0021700220000000000000
B0425473137516S11713145EA0021600219000000000000
B0425513137488S11713114EA0021600217000000000000
B0425553137451S11713075EA0021600217000000000000
B0425593137410S11713029EA0021600216000000000000
B0426033137365S11712981EA0021400216000000000000
B0426073137320S11712932EA0021700225000000000000
B0426113137274S11712885EA0023100243000000000000
B0426153137230S11712842EA0024900263000000000000
B0426193137186S11712796EA0026100271000000000000
B0426233137142S11712752EA0027000280000000000000
B0426273137098S11712708EA0027900287000000000000
B0426313137053S11712664EA0028500291000000000000
B0426353137005S11712617EA0028600294000000000000
B0426393136957S11712565EA0029000298000000000000
B0426433136908S11712513EA0029600310000000000000
B0426473136860S11712464EA0031000324000000000000
B0426513136817S11712408EA0032100336000000000000
B0426553136791S11712340EA0033000343000000000000
B0426593136788S11712266EA0034300355000000000000
B0427033136805S11712198EA0035800377000000000000
B0427073136841S11712141EA0037800397000000000000
B0427113136893S11712100EA0039000407000000000000
B0427153136961S11712083EA0040100416000000000000
B0427193137035S11712090EA0040900425000000000000
B0427233137108S11712127EA0041900436000000000000
B0427273137176S11712181EA0042700446000000000000
B0427313137234S11712254EA0043500453000000000000
B0427353137274S11712349EA0044100459000000000000
B0427403137283S11712479EA0045100471000000000000
B0427443137269S11712575EA0046700488000000000000
B0427483137242S11712664EA0048100501000000000000
B0427523137205S11712748EA0048700512000000000000
B0427563137151S11712812EA0049800523000000000000
B0428003137083S11712848EA0050600530000000000000
B0428043137016S11712854EA0051500537000000000000
B0428083136955S11712833EA0052200547000000000000
B0428123136896S11712802EA0053200558000000000000
B0428163136841S11712763EA0054400572000000000000
B0428203136792S11712718EA0055400581000000000000
B0428243136753S11712666EA0056500595000000000000
B0428283136727S11712607EA0057700604000000000000
B0428323136713S11712543EA0058700617000000000000
B0428363136705S11712477EA0060100631000000000000
B0428403136705S11712412EA0061600647000000000000
B0428443136710S11712343EA0062700662000000000000
B0428483136736S11712279EA0064600689000000000000
B0428523136767S11712227EA0066500696000000000000
B0428563136741S11712193EA0066600698000000000000
B0429003136698S11712241EA0067000699000000000000
B0429043136713S11712328EA0067500711000000000000
B0429083136771S11712352EA0068800723000000000000
B0429123136787S11712315EA0068400711000000000000
B0429163136741S11712317EA0067500709000000000000
B0429203136706S11712384EA0068700724000000000000
B0429243136743S11712452EA0070100739000000000000
B0429283136799S11712445EA0070600742000000000000
B0429323136800S11712400EA0070600743000000000000
B0429363136753S11712404EA0071000747000000000000
B0429403136726S11712475EA0071700757000000000000
B0429443136762S11712549EA0072700767000000000000
B0429483136830S11712570EA0073300776000000000000
B0429523136870S11712536EA0074200784000000000000
B0429563136862S11712497EA0074300782000000000000
B0430003136819S11712493EA0074300784000000000000
B0430043136778S11712542EA0074800787000000000000
B0430083136763S11712620EA0075400798000000000000
B0430123136804S11712685EA0076900813000000000000
B0430163136849S11712662EA0077400815000000000000
B0430203136825S11712625EA0077600820000000000000
B0430243136779S11712655EA0078900835000000000000
B0430283136780S11712730EA0080300845000000000000
B0430323136831S11712783EA0080900858000000000000
B0430363136882S11712770EA0081900871000000000000
B0430403136875S11712730EA0082200869000000000000
B0430443136826S11712739EA0082400876000000000000
B0430483136799S11712807EA0083800889000000000000
B0430523136826S11712885EA0084700898000000000000
B0430563136891S11712919EA0085300905000000000000
B0431003136932S11712883EA0086100916000000000000
B0431043136913S11712848EA0087100925000000000000
B0431083136867S11712880EA0087900932000000000000
B0431123136870S11712958EA0089300950000000000000
B0431163136931S11712993EA0090400964000000000000
B0431203136971S11712959EA0091400973000000000000
B0431243136953S11712921EA0091800975000000000000
B0431283136904S11712926EA0091500972000000000000
B0431323136866S11712989EA0092400987000000000000
B0431363136864S11713071EA0093300987000000000000
B0431403136910S11713141EA0093000987000000000000
B0431443136975S11713155EA0094101002000000000000
B0431483136990S11713111EA0095201013000000000000
B0431523136944S11713111EA0095301016000000000000
B0431563136925S11713186EA0096501029000000000000
B0432003136969S11713251EA0097501036000000000000
B0432043137025S11713237EA0098301048000000000000
B0432083137013S11713197EA0099101053000000000000
B0432123136964S11713216EA0099401056000000000000
B0432163136945S11713296EA0100401068000000000000
B0432203136982S11713368EA0101601080000000000000
B0432243137046S11713393EA0102101088000000000000
B0432283137088S11713361EA0102801095000000000000
B0432323137083S11713314EA0103401098000000000000
B0432363137038S11713309EA0103501100000000000000
B0432403137003S11713374EA0104001107000000000000
B0432443137017S11713461EA0105101117000000000000
B0432483137074S11713500EA0106601129000000015000
B0432523137114S11713463EA0107101138000000015000
B0432563137096S11713418EA0107001140000000015000
B0433003137043S11713420EA0107901148000000015000
B0433043137007S11713488EA0109001160000000000000
B0433083137022S11713574EA0110201170000000000000
B0433123137079S11713624EA0111101178000000000000
B0433163137130S11713606EA0112301191000000000000
B0433203137130S11713562EA0112901197000000000000
B0433243137087S11713556EA0113501204000000000000
B0433283137052S11713617EA0114201213000000000000
B0433323137066S11713699EA0115701226000000000000
B0433363137122S11713747EA0116301232000000000000
B0433403137173S11713727EA0117101242000000000000
B0433443137173S11713683EA0118001251000000000000
B0433483137131S11713686EA0118901262000000000000
B0433523137109S11713756EA0119301263000000000000
B0433563137147S11713829EA0120001271000000000000
B0434003137205S11713836EA0121101279000000000000
B0434043137235S11713793EA0121501286000000000000
B0434083137216S11713758EA0122201292000000000000
B0434123137168S11713787EA0122401297000000000000
B0434163137153S11713869EA0123001305000000000000
B0434203137194S11713943EA0123801312000000000000
B0434243137257S11713962EA0124601318000000000000
B0434283137303S11713930EA0125001322000000000000
B0434323137308S11713879EA0125301326000000000000
B0434363137265S11713866EA0125601330000000000000
B0434403137221S11713918EA0126301339000000000000
B0434443137216S11714001EA0127201346000000000000
B0434483137259S11714069EA0127801352000000000000
B0434523137320S11714077EA0128201352000000000000
B0434563137358S11714035EA0127901353000000000000
B0435003137376S11713981EA0127901354000000000000
B0435043137361S11713931EA0128101357000000000000
B0435083137312S11713918EA0127801356000000000000
B0435123137257S11713960EA0128001360000000000000
B0435163137231S11714039EA0129201372000000000000
B0435203137230S11714129EA0129701373000000000000
B0435243137269S11714208EA0129601379000000000000
B0435283137333S11714245EA0130601386000000000000
B0435323137391S11714235EA0130701384000000000000
B0435363137424S11714190EA0130301382000000000000
B0435403137429S11714133EA0129601374000000000000
B0435443137416S11714073EA0129301375000000000000
B0435483137394S11714017EA0129601378000000000000
B0435523137368S11713962EA0129601377000000000000
B0435563137339S11713904EA0129501372000000000000
B0436003137308S11713843EA0128801361000000000000
B0436043137280S11713774EA0127901357000000000000
B0436083137246S11713708EA0127501354000000000000
B0436123137216S11713637EA0127701355000000000000
B0436163137194S11713562EA0127401346000000000000
B0436203137170S11713480EA0125501326000000000000
B0436243137143S11713397EA0124101315000000000000
B0436283137117S11713318EA0123701314000000000000
B0436323137095S11713241EA0123901314000000000000
B0436363137077S11713166EA0123601306000000000000
B0436403137061S11713089EA0122901302000000000000
B0436443137042S11713016EA0122801301000000000000
B0436483137021S11712946EA0122501296000000000000
B0436523136997S11712876EA0121801292000000000000
B0436563136973S11712812EA0122101293000000000000
B0437003136944S11712755EA0121801285000000000000
B0437043136913S11712699EA0120801275000000000000
B0437083136903S11712631EA0120301272000000000000
B0437123136913S11712560EA0120201270000000000000
B0437163136947S11712493EA0120001267000000000000
B0437203136994S11712432EA0119401264000000000000
B0437243137046S11712376EA0119401264000000000000
B0437283137095S11712322EA0119601263000000000000
B0437323137139S11712263EA0119101256000000000000
B0437363137190S11712211EA0118801254000000000000
B0437403137256S11712181EA0119101257000000000000
B0437443137325S11712161EA0118901253000000000000
B0437483137393S11712139EA0118301247000000000000
B0437523137460S11712114EA0117901243000000000000
B0437563137528S11712087EA0117101233000000000000
B0438003137598S11712059EA0116201223000000000000
B0438043137672S11712038EA0115301212000000000000
B0438083137751S11712023EA0114201201000000000000
B0438123137833S11712005EA0113101193000000000000
B0438163137910S11711980EA0113001194000000000000
B0438203137983S11711954EA0113001190000000000000
B0438243138054S11711925EA0112801184000000000000
B0438283138126S11711895EA0111801172000000000000
B0438323138197S11711864EA0110601166000000000000
B0438363138268S11711833EA0110201160000000000000
B0438403138335S11711797EA0109501153000000000000
B0438443138401S11711758EA0109301150000000000000
B0438483138464S11711719EA0109101150000000000000
B0438523138525S11711680EA0109201146000000000000
B0438563138589S11711639EA0108401135000000000000
B0439003138655S11711599EA0107501127000000000000
B0439043138719S11711556EA0107001122000000000000
B0439083138780S11711512EA0106401117000000000000
B0439123138838S11711468EA0106001113000000000000
B0439163138895S11711425EA0105801112000000000000
B0439203138950S11711381EA0106001114000000000000
B0439243139001S11711334EA0106001119000000000000
B0439283139020S11711273EA0106801127000000000000
B0439323138996S11711232EA0107701133000000000000
B0439363138954S11711275EA0108301142000000000000
B0439403138971S11711353EA0108601140000000000000
B0439443139035S11711386EA0108701145000000000000
B0439483139088S11711359EA0109101146000000000000
B0439523139128S11711308EA0109001149000000000000
B0439563139144S11711247EA0109901162000000000000
B0440003139106S11711230EA0110701167000000000000
B0440043139094S11711310EA0110701172000000000000
B0440083139148S11711362EA0112001197000000000000
B0440123139200S11711330EA0112801204000000000000
B0440163139179S11711292EA0114001219000000000000
B0440203139140S11711330EA0114901225000000000000
B0440243139146S11711411EA0114801224000000000000
B0440283139210S11711443EA0115301233000000015000
B0440323139263S11711405EA0115901240000000015000
B0440363139254S11711359EA0117201255000000015000
B0440403139209S11711373EA0117901259000000000000
B0440443139192S11711446EA0118601263000000000000
B0440483139232S11711512EA0119401272000000000000
B0440523139298S11711525EA0119801279000000015000
B0440563139345S11711486EA0120501286000000000000
B0441003139334S11711440EA0121301296000000000000
B0441043139291S11711460EA0121901302000000000000
B0441083139282S11711535EA0122901309000000000000
B0441123139330S11711596EA0123201314000000000000
B0441163139393S11711590EA0123801320000000000000
B0441203139422S11711538EA0124501325000000000000
B0441243139396S11711503EA0125101331000000000000
B0441283139354S11711530EA0125501335000000000000
B0441323139344S11711607EA0126001341000000000000
B0441363139384S11711677EA0126701349000000000000
B0441403139454S11711689EA0126801354000000000000
B0441443139506S11711647EA0127601362000000000000
B0441483139497S11711602EA0128101367000000000000
B0441523139452S11711611EA0127801363000000000000
B0441563139430S11711687EA0128101372000000000000
B0442003139458S11711769EA0129001380000000000000
B0442043139522S11711815EA0129901386000000000000
B0442083139588S11711802EA0130401389000000000000
B0442123139608S11711747EA0130201386000000000000
B0442163139569S11711726EA0130301388000000000000
B0442203139534S11711786EA0131101400000000000000
B0442243139555S11711862EA0132601414000000000000
B0442283139617S11711899EA0133001421000000015000
B0442323139674S11711879EA0133201422000000015000
B0442363139679S11711830EA0133101421000000015000
B0442403139640S11711820EA0132901419000000000000
B0442443139601S11711872EA0133201420000000000000
B0442483139604S11711957EA0133501424000000000000
B0442523139655S11712023EA0134101427000000000000
B0442563139725S11712036EA0134001421000000000000
B0443003139772S11711986EA0132901408000000000000
B0443043139781S11711925EA0132401410000000000000
B0443083139742S11711901EA0133001415000000000000
B0443123139699S11711941EA0133501418000000000000
B0443163139696S11712022EA0133801423000000000000
B0443203139746S11712084EA0134501432000000000000
B0443243139813S11712084EA0134301430000000000000
B0443283139851S11712035EA0133601424000000000000
B0443323139852S11711975EA0133201418000000000000
B0443363139824S11711928EA0133001417000000000000
B0443403139773S11711933EA0132901417000000000000
B0443443139746S11712002EA0133301418000000000000
B0443483139779S11712080EA0133701423000000000000
B0443523139852S11712103EA0133701423000000000000
B0443563139909S11712062EA0133401424000000000000
B0444003139932S11711999EA0133201419000000000000
B0444043139915S11711945EA0132701413000000000000
B0444083139868S11711944EA0132901414000000000000
B0444123139818S11711984EA0132501409000000000000
B0444163139770S11712036EA0132701414000000000000
B0444203139727S11712093EA0133001411000000000000
B0444243139688S11712162EA0132301402000000000000
B0444283139651S11712236EA0131701397000000000000
B0444323139608S11712305EA0131501395000000000000
B0444363139561S11712367EA0131201391000000000000
B0444403139512S11712427EA0130801382000000000000
B0444443139458S11712487EA0129701366000000000000
B0444483139400S11712545EA0127901349000000000000
B0444523139340S11712603EA0126501335000000000000
B0444563139279S11712655EA0125501327000000000000
B0445003139218S11712703EA0125001318000000000000
B0445043139155S11712750EA0123901306000000000000
B0445083139090S11712791EA0122301288000000000000
B0445123139020S11712825EA0120901277000000000000
B0445163138950S11712854EA0120501278000000000000
B0445203138882S11712876EA0120901278000000000000
B0445243138815S11712889EA0121001276000000000000
B0445283138746S11712891EA0120901278000000000000
B0445323138680S11712889EA0120901278000000000000
B0445363138613S11712881EA0121301283000000000000
B0445403138560S11712846EA0122101289000000000000
B0445443138513S11712807EA0122201292000000000000
B0445483138463S11712802EA0123001304000000000000
B0445523138422S11712842EA0123601304000000000000
B0445563138427S11712919EA0122901296000000000000
B0446003138470S11712993EA0121401278000000000000
B0446043138538S11713058EA0119701270000000000000
B0446083138609S11713119EA0119901273000000000000
B0446123138684S11713179EA0120201274000000000000
B0446163138765S11713225EA0120001270000000000000
B0446203138853S11713244EA0120301277000000000000
B0446243138889S11713194EA0122301299000000000000
B0446283138855S11713164EA0123401306000000000000
B0446323138812S11713211EA0122901301000000000000
B0446363138829S11713294EA0123501310000000000000
B0446403138888S11713336EA0124101313000000000000
B0446443138945S11713323EA0124301314000000000000
B0446483138976S11713276EA0124001308000000000000
B0446523138976S11713219EA0123401302000000000000
B0446563138968S11713158EA0122401292000000000000
B0447003138963S11713093EA0122101295000000000000
B0447043138947S11713036EA0122301296000000000000
B0447083138910S11712998EA0122201295000000000000
B0447123138855S11712993EA0121901290000000000000
B0447163138794S11712999EA0120401273000000000000
B0447203138730S11713011EA0119901270000000000000
B0447243138672S11713039EA0119801269000000000000
B0447283138637S11713102EA0120101270000000000000
B0447323138626S11713182EA0119401257000000000000
B0447363138628S11713271EA0118101241000000000000
B0447403138635S11713363EA0116701231000000000000
B0447443138647S11713457EA0116601234000000000000
B0447483138668S11713546EA0116801234000000000000
B0447523138693S11713639EA0117401242000000000000
B0447563138717S11713730EA0118301248000000000000
B0448003138777S11713775EA0119201266000000000000
B0448043138819S11713747EA0120401280000000000000
B0448083138798S11713712EA0121001284000000000000
B0448123138755S11713747EA0120901284000000000000
B0448163138768S11713829EA0121301290000000000000
B0448203138828S11713871EA0121901299000000000000
B0448243138881S11713852EA0122701308000000000000
B0448283138884S11713809EA0123501317000000000000
B0448323138841S11713801EA0124201319000000000000
B0448363138811S11713860EA0124701323000000000000
B0448403138834S11713938EA0124701320000000000000
B0448443138898S11713975EA0124601323000000000000
B0448483138947S11713951EA0125501332000000000000
B0448523138934S11713910EA0126101338000000000000
B0448563138890S11713946EA0126801346000000000000
B0449003138898S11714026EA0127301350000000000000
B0449043138958S11714070EA0127701355000000000000
B0449083139009S11714051EA0128701368000000000000
B0449123139009S11714009EA0129601374000000000000
B0449163138964S11714008EA0129901381000000000000
B0449203138936S11714068EA0130901390000000000000
B0449243138955S11714144EA0131101388000000000000
B0449283139018S11714187EA0130901389000000000000
B0449323139070S11714164EA0131601401000000000000
B0449363139067S11714121EA0132701411000000000000
B0449403139023S11714129EA0133001411000000000000
B0449443139003S11714203EA0133601418000000000000
B0449483139042S11714274EA0133901420000000000000
B0449523139109S11714289EA0134401427000000000000
B0449563139136S11714250EA0135401438000000000000
B0450003139105S11714225EA0135501439000000000000
B0450043139063S11714268EA0135901442000000000000
B0450083139066S11714349EA0136001442000000000000
B0450123139120S11714408EA0136101445000000000000
B0450163139187S11714414EA0136601452000000000000
B0450203139223S11714376EA0137301459000000000000
B0450243139214S11714333EA0137401459000000000000
B0450283139170S11714326EA0137601465000000000000
B0450323139127S11714365EA0138401468000000000000
B0450363139109S11714438EA0138001461000000000000
B0450403139139S11714516EA0137701457000000000000
B0450443139205S11714560EA0137501458000000000000
B0450483139274S11714571EA0138001467000000000000
B0450523139314S11714537EA0139001475000000000000
B0450563139298S11714502EA0139101474000000000000
B0451003139249S11714525EA0139001476000000000000
B0451043139246S11714605EA0140101491000000000000
B0451083139301S11714653EA0140501501000000000000
B0451123139353S11714631EA0140801506000000000000
B0451163139349S11714589EA0141301510000000000000
B0451203139306S11714586EA0141101502000000000000
B0451243139274S11714648EA0141501507000000000000
B0451283139302S11714728EA0141501505000000000000
B0451323139369S11714771EA0141601509000000000000
B0451363139434S11714766EA0142301518000000000000
B0451403139473S11714727EA0142701519000000000000
B0451443139462S11714684EA0142601517000000000000
B0451483139419S11714663EA0141801506000000000000
B0451523139362S11714658EA0140801496000000000000
B0451563139298S11714657EA0139701481000000000000
B0452003139231S11714651EA0138801479000000000000
B0452043139165S11714648EA0139001485000000000000
B0452083139100S11714649EA0139901491000000000000
B0452123139037S11714655EA0140401492000000000000
B0452163138972S11714655EA0139701481000000000000
B0452203138906S11714638EA0138801471000000000000
B0452243138842S11714610EA0138001464000000000000
B0452283138782S11714572EA0137001452000000000000
B0452323138725S11714524EA0136101441000000000000
B0452363138668S11714472EA0135101434000000000000
B0452403138615S11714416EA0134201425000000000000
B0452443138561S11714359EA0133301415000000000000
B0452483138509S11714306EA0132501405000000000000
B0452523138459S11714254EA0132301403000000000000
B0452563138409S11714200EA0132401404000000000000
B0453003138365S11714144EA0132401409000000000000
B0453043138323S11714089EA0133501417000000000000
B0453083138283S11714034EA0133501420000000000000
B0453123138240S11713985EA0133701414000000000000
B0453163138196S11713934EA0133201408000000000000
B0453203138153S11713879EA0132401401000000000000
B0453243138106S11713825EA0131601397000000000000
B0453283138058S11713773EA0131701395000000000000
B0453323138010S11713718EA0130801381000000000000
B0453363137959S11713657EA0129801375000000000000
B0453403137915S11713592EA0130001377000000000000
B0453443137876S11713527EA0129201363000000000000
B0453483137836S11713463EA0127301339000000000000
B0453523137796S11713394EA0125401324000000000000
B0453563137758S11713324EA0124401314000000000000
B0454003137724S11713255EA0123401310000000000000
B0454043137690S11713189EA0123301304000000000000
B0454083137657S11713125EA0122401294000000000000
B0454123137616S11713068EA0121801290000000000000
B0454163137569S11713017EA0122201295000000000000
B0454203137516S11712982EA0122801305000000000000
B0454243137455S11712981EA0124401318000000000000
B0454283137393S11712985EA0124701315000000000000
B0454323137325S11712994EA0124101310000000000000
B0454363137255S11713008EA0123401299000000000000
B0454403137181S11713024EA0122101289000000000000
B0454443137103S11713042EA0120701276000000000000
B0454483137025S11713062EA0119801267000000000000
B0454523136947S11713082EA0119501264000000000000
B0454563136869S11713103EA0118101245000000000000
B0455003136789S11713124EA0116701228000000000000
B0455043136709S11713146EA0115501215000000000000
B0455083136630S11713167EA0114101201000000000000
B0455123136549S11713186EA0112401186000000000000
B0455163136468S11713203EA0111001170000000000000
B0455203136386S11713216EA0109301152000000000000
B0455243136307S11713228EA0107901137000000000000
B0455283136232S11713241EA0106901126000000000000
B0455323136159S11713254EA0105701116000000000000
B0455363136087S11713268EA0105501112000000000000
B0455403136017S11713283EA0105201109000000000000
B0455443135948S11713302EA0105401110000000000000
B0455483135878S11713323EA0104801097000000000000
B0455523135808S11713345EA0103101081000000000000
B0455563135736S11713367EA0102001071000000000000
B0456003135666S11713393EA0102401080000000000000
B0456043135600S11713418EA0103001081000000000000
B0456083135534S11713444EA0102901079000000000000
B0456123135465S11713467EA0102001064000000000000
B0456163135395S11713492EA0101101061000000000000
B0456203135332S11713535EA0102301084000000000000
B0456243135346S11713622EA0105301124000000000000
B0456283135413S11713631EA0106201135000000015000
B0456323135432S11713588EA0107101139000000000000
B0456363135397S11713561EA0107001137000000000000
B0456403135350S11713601EA0107901145000000000000
B0456443135353S11713692EA0108601150000000000000
B0456483135417S11713736EA0109001157000000000000
B0456523135452S11713696EA0109501164000000000000
B0456563135426S11713669EA0111401187000000000000
B0457003135385S11713701EA0112701188000000000000
B0457043135384S11713791EA0111901184000000000000
B0457083135444S11713847EA0113001202000000000000
B0457123135500S11713829EA0113501206000000000000
B0457163135508S11713778EA0113901212000000000000
B0457203135467S11713779EA0115701231000000000000
B0457243135457S11713857EA0116701239000000000000
B0457283135512S11713913EA0117301254000000015000
B0457323135564S11713895EA0118001261000000015000
B0457363135561S11713852EA0118801270000000015000
B0457403135519S11713844EA0119501272000000000000
B0457443135484S11713903EA0120501285000000000000
B0457483135523S11713979EA0121101287000000000000
B0457523135586S11713972EA0121501300000000015000
B0457563135583S11713930EA0123001312000000015000
B0458003135536S11713936EA0123901316000000000000
B0458043135506S11714012EA0124401324000000000000
B0458083135538S11714098EA0125801346000000015000
B0458123135604S11714121EA0127001357000000015000
B0458163135642S11714083EA0127701363000000015000
B0458203135622S11714044EA0128401367000000000000
B0458253135560S11714069EA0128901379000000000000
B0458293135570S11714156EA0130501394000000000000
B0458333135638S11714190EA0131201403000000015000
B0458373135678S11714155EA0132301417000000015000
B0458413135649S11714126EA0132701415000000000000
B0458453135601S11714169EA0133301425000000000000
B0458493135605S11714256EA0135501447000000000000
B0458533135661S11714310EA0136501454000000015000
B0458573135717S11714294EA0136801461000000015000
B0459013135707S11714258EA0137601468000000015000
B0459053135655S11714280EA0137601464000000000000
B0459093135655S11714377EA0138201473000000000000
B0459133135717S11714416EA0140401498000000030000
B0459173135757S11714388EA0141001500000000015000
B0459213135736S11714352EA0141501508000000015000
B0459253135684S11714382EA0141701506000000015000
B0459293135682S11714475EA0142601519000000015000
B0459333135747S11714521EA0143601533000000015000
B0459373135799S11714494EA0143701535000000015000
B0459413135786S11714447EA0144001537000000015000
B0459453135731S11714436EA0143801530000000000000
B0459493135670S11714480EA0144001539000000000000
B0459533135671S11714570EA0146601564000000000000
B0459573135733S11714610EA0147101564000000015000
B0500013135778S11714576EA0145901554000000015000
B0500053135790S11714520EA0145601555000000015000
B0500093135778S11714462EA0145101542000000000000
B0500133135726S11714421EA0143701530000000000000
B0500173135651S11714416EA0143101532000000000000
B0500213135574S11714423EA0145301552000000000000
B0500253135505S11714458EA0147501571000000000000
B0500293135508S11714549EA0149401589000000000000
B0500333135575S11714576EA0149901603000000000000
B0500373135626S11714537EA0149901610000000000000
B0500413135639S11714481EA0151101622000000000000
B0500453135591S11714476EA0152501631000000000000
B0500493135565S11714550EA0153001635000000000000
B0500533135609S11714623EA0153301638000000000000
B0500573135673S11714618EA0154201649000000015000
B0501013135692S11714567EA0155501661000000000000
B0501053135652S11714545EA0156701671000000000000
B0501093135612S11714603EA0157601678000000000000
B0501133135629S11714690EA0158001680000000000000
B0501173135694S11714731EA0158001684000000000000
B0501213135747S11714700EA0159201699000000000000
B0501253135736S11714655EA0161301719000000000000
B0501293135691S11714689EA0162201727000000000000
B0501333135700S11714778EA0162501729000000000000
B0501373135765S11714813EA0163301743000000000000
B0501413135798S11714772EA0164801757000000000000
B0501453135756S11714757EA0165601764000000015000
B0501493135722S11714828EA0166401774000000015000
B0501533135764S11714901EA0167701788000000015000
B0501573135826S11714896EA0168101793000000015000
B0502013135834S11714844EA0169301809000000015000
B0502053135791S11714830EA0170601817000000015000
B0502093135748S11714889EA0171301823000000015000
B0502133135770S11714976EA0172501836000000000000
B0502173135831S11715028EA0173101843000000000000
B0502213135900S11715021EA0173901853000000000000
B0502253135942S11714976EA0174901865000000000000
B0502293135950S11714922EA0175701870000000000000
B0502333135912S11714889EA0175901872000000000000
B0502373135859S11714923EA0176501881000000000000
B0502413135842S11715008EA0177701894000000000000
B0502453135877S11715090EA0179001907000000000000
B0502493135941S11715135EA0180001916000000000000
B0502533136006S11715131EA0180701923000000000000
B0502573136039S11715088EA0181501931000000000000
B0503013136033S11715039EA0181701930000000000000
B0503053135991S11715013EA0181401928000000000000
B0503093135935S11715027EA0181801937000000000000
B0503133135892S11715083EA0183001950000000000000
B0503173135883S11715169EA0184201960000000000000
B0503213135922S11715244EA0185201972000000000000
B0503253135987S11715273EA0186701984000000000000
B0503293136038S11715251EA0187401992000000000000
B0503333136033S11715212EA0187301984000000000000
B0503373135982S11715233EA0186101974000000000000
B0503413135973S11715318EA0186401979000000000000
B0503453136033S11715381EA0186801986000000000000
B0503493136107S11715398EA0187701996000000000000
B0503533136168S11715377EA0188502001000000000000
B0503573136223S11715335EA0187801987000000000000
B0504013136276S11715281EA0186601978000000000000
B0504053136325S11715220EA0186401981000000000000
B0504093136373S11715158EA0186701982000000000000
B0504133136419S11715091EA0186701983000000000000
B0504173136458S11715017EA0186901984000000000000
B0504213136498S11714945EA0187501987000000000000
B0504253136540S11714871EA0186001967000000000000
B0504293136589S11714796EA0185101961000000000000
B0504333136640S11714724EA0183901944000000000000
B0504373136692S11714653EA0182701936000000000000
B0504413136744S11714586EA0183001939000000000000
B0504453136796S11714524EA0183101937000000000000
B0504493136849S11714462EA0182501926000000000000
B0504533136908S11714398EA0181301918000000000000
B0504573136966S11714333EA0181101914000000000000
B0505013137025S11714268EA0179901903000000000000
B0505053137083S11714204EA0179301895000000000000
B0505093137142S11714143EA0178401886000000000000
B0505133137203S11714083EA0177901883000000000000
B0505173137261S11714025EA0177801884000000000000
B0505213137315S11713966EA0177801880000000000000
B0505253137364S11713903EA0176901870000000000000
B0505293137406S11713832EA0176101861000000000000
B0505333137443S11713761EA0175301850000000000000
B0505373137480S11713687EA0173701833000000000000
B0505413137515S11713610EA0172601825000000000000
B0505453137546S11713532EA0172001817000000000000
B0505493137573S11713454EA0171301806000000000000
B0505533137601S11713375EA0170201803000000000000
B0505573137627S11713298EA0170301803000000000000
B0506013137646S11713221EA0170201803000000000000
B0506053137654S11713145EA0170301805000000000000
B0506093137636S11713076EA0170501808000000000000
B0506133137588S11713036EA0170901813000000000000
B0506173137524S11713039EA0170901808000000000000
B0506213137459S11713072EA0169601793000000000000
B0506253137393S11713114EA0168101777000000000000
B0506293137325S11713156EA0166701762000000000000
B0506333137255S11713197EA0165201747000000000000
B0506373137183S11713236EA0163901736000000000000
B0506413137109S11713276EA0162901726000000000000
B0506453137035S11713316EA0162101719000000000000
B0506493136962S11713354EA0161601713000000000000
B0506533136887S11713383EA0161001702000000000000
B0506573136808S11713409EA0159901693000000000000
B0507013136728S11713433EA0159301690000000000000
B0507053136650S11713458EA0158601685000000000000
B0507093136574S11713485EA0158601686000000000000
B0507133136501S11713513EA0159901702000000000000
B0507173136431S11713539EA0160801705000000000000
B0507213136360S11713567EA0160901705000000000000
B0507253136289S11713595EA0160001694000000000000
B0507293136215S11713624EA0159201686000000000000
B0507333136142S11713656EA0158501679000000000000
B0507373136067S11713686EA0157401666000000000000
B0507413135991S11713715EA0156601659000000000000
B0507453135916S11713743EA0155701647000000000000
B0507493135840S11713767EA0154401637000000000000
B0507533135765S11713792EA0153601629000000000000
B0507573135691S11713816EA0152901624000000000000
B0508013135618S11713839EA0152301614000000000000
B0508053135543S11713862EA0151501603000000000000
B0508093135467S11713883EA0150601595000000000000
B0508133135393S11713905EA0149801586000000000000
B0508173135322S11713927EA0149001577000000000000
B0508213135248S11713952EA0147701566000000000000
B0508253135175S11713977EA0148101574000000000000
B0508293135107S11714001EA0149301583000000000000
B0508333135041S11714027EA0150201594000000000000
B0508373134979S11714039EA0151501603000000000000
B0508413134928S11714016EA0152101611000000000000
B0508453134871S11713992EA0151601599000000000000
B0508493134799S11713986EA0149701579000000000000
B0508533134720S11713990EA0148001569000000000000
B0508573134639S11713998EA0147501567000000000000
B0509013134560S11714012EA0147401563000000000000
B0509053134483S11714031EA0147501566000000000000
B0509093134410S11714055EA0148901585000000000000
B0509133134345S11714077EA0151101601000000000000
B0509173134286S11714105EA0151901607000000000000
B0509213134230S11714139EA0152401614000000000000
B0509253134175S11714173EA0151901599000000000000
B0509293134117S11714209EA0150301581000000000000
B0509333134053S11714247EA0148301562000000000000
B0509373133984S11714285EA0146501545000000000000
B0509413133913S11714325EA0144901528000000000000
B0509453133837S11714365EA0143501519000000000000
B0509493133763S11714403EA0143001515000000000000
B0509533133689S11714441EA0141701496000000000000
B0509573133612S11714477EA0140301482000000000000
B0510013133534S11714512EA0139401469000000000000
B0510053133456S11714547EA0137701456000000000000
B0510093133378S11714584EA0137001451000000000000
B0510133133300S11714618EA0136401444000000000000
B0510173133226S11714653EA0136201443000000000000
B0510213133152S11714685EA0135901436000000000000
B0510253133079S11714720EA0135301431000000000000
B0510293133006S11714755EA0134701424000000000000
B0510333132934S11714791EA0133901414000000000000
B0510373132861S11714822EA0133701419000000000000
B0510413132795S11714839EA0134601427000000000000
B0510453132731S11714853EA0134001410000000000000
B0510493132663S11714872EA0132101388000000000000
B0510533132592S11714889EA0130401373000000000000
B0510573132519S11714896EA0128901355000000000000
B0511013132444S11714896EA0127601348000000000000
B0511053132371S11714895EA0127201338000000000000
B0511093132297S11714893EA0126101324000000000000
B0511133132220S11714893EA0124401309000000000000
B0511173132143S11714896EA0123201297000000000000
B0511213132065S11714900EA0122001285000000000000
B0511253131987S11714905EA0121301279000000000000
B0511293131911S11714911EA0120601268000000000000
B0511333131833S11714918EA0119501258000000000000
B0511373131755S11714927EA0119501265000000000000
B0511413131687S11714939EA0121301280000000000000
B0511453131623S11714953EA0121901281000000000000
B0511493131558S11714973EA0120901270000000000000
B0511533131493S11714979EA0120701270000000000000
B0511573131444S11714945EA0120501264000000000000
B0512013131388S11714914EA0119301257000000000000
B0512053131322S11714897EA0118501247000000000000
B0512093131251S11714883EA0116901227000000000000
B0512133131183S11714857EA0115801224000000000000
B0512173131118S11714833EA0117101238000000000000
B0512213131055S11714811EA0117301231000000000000
B0512253130986S11714798EA0116101221000000000000
B0512293130915S11714785EA0115501216000000000000
B0512333130851S11714754EA0115501214000000000000
B0512373130790S11714715EA0114801210000000000000
B0512413130725S11714684EA0115601221000000000000
B0512453130664S11714653EA0116401225000000000000
B0512493130605S11714616EA0115301207000000000000
B0512533130544S11714576EA0112701184000000000000
B0512573130477S11714542EA0112001182000000000000
B0513013130417S11714512EA0112901198000000000000
B0513053130360S11714494EA0114001206000000000000
B0513093130305S11714481EA0115001211000000000000
B0513133130252S11714475EA0115001205000000000000
B0513173130193S11714472EA0114001195000000000000
B0513213130133S11714468EA0112801186000000000000
B0513253130080S11714442EA0112801187000000000000
B0513293130031S11714410EA0112401184000000000000
B0513333129979S11714382EA0112001179000000000000
B0513373129922S11714365EA0111401170000000000000
B0513413129863S11714347EA0110801167000000000000
B0513453129805S11714326EA0110501164000000000000
B0513493129743S11714315EA0110101159000000000000
B0513533129681S11714304EA0109901156000000000000
B0513573129617S11714302EA0109901159000000000000
B0514013129555S11714303EA0110301164000000000000
B0514053129493S11714307EA0110701167000000000000
B0514093129431S11714310EA0111001167000000000000
B0514133129369S11714323EA0110601165000000000000
B0514173129305S11714338EA0110401159000000000000
B0514213129240S11714358EA0109801150000000000000
B0514253129170S11714378EA0108601137000000000000
B0514293129099S11714378EA0107701130000000000000
B0514333129027S11714375EA0107501133000000000000
B0514373128957S11714378EA0108101142000000000000
B0514413128889S11714394EA0109201149000000000000
B0514453128824S11714419EA0109501154000000000000
B0514493128793S11714482EA0111201174000000000000
B0514533128839S11714536EA0112201177000000000000
B0514573128901S11714506EA0111801179000000000000
B0515013128897S11714447EA0112601187000000000000
B0515053128848S11714453EA0112701187000000000000
B0515093128830S11714523EA0112801190000000000000
B0515133128840S11714603EA0112801189000000000000
B0515173128872S11714679EA0112501185000000000000
B0515213128936S11714711EA0111901181000000000000
B0515253129002S11714690EA0111901185000000000000
B0515293129047S11714646EA0112401195000000000000
B0515333129023S11714607EA0113201193000000000000
B0515373128969S11714642EA0112601189000000000000
B0515413128936S11714722EA0112201191000000000000
B0515453128937S11714809EA0113301202000000000000
B0515493128996S11714861EA0113501197000000000000
B0515533129049S11714830EA0112801197000000000000
B0515573129021S11714800EA0113701207000000000000
B0516013128988S11714861EA0113401200000000000000
B0516053128995S11714957EA0112701197000000000000
B0516093129012S11715052EA0112801199000000000000
B0516133129048S11715139EA0113001197000000000000
B0516173129086S11715233EA0112601191000000000000
B0516213129109S11715335EA0112501193000000000000
B0516253129117S11715438EA0112401189000000000000
B0516293129109S11715543EA0111501177000000000000
B0516333129084S11715643EA0111201179000000000000
B0516373129047S11715734EA0111101171000000000000
B0516413129001S11715820EA0110301168000000000000
B0516453128954S11715906EA0110001157000000000000
B0516493128901S11715994EA0108901148000000000000
B0516533128853S11716085EA0109001161000000000000
B0516573128887S11716157EA0113601218000000015000
B0517013128941S11716139EA0114901220000000015000
B0517053128928S11716087EA0113501209000000015000
B0517093128875S11716091EA0114201221000000000000
B0517133128837S11716148EA0116001237000000000000
B0517173128844S11716227EA0117101244000000000000
B0517213128906S11716270EA0116901242000000000000
B0517253128957S11716232EA0117601256000000000000
B0517293128932S11716197EA0118101255000000000000
B0517333128882S11716230EA0118201262000000000000
B0517373128869S11716302EA0119901278000000000000
B0517413128913S11716369EA0120601285000000015000
B0517453128980S11716370EA0121101291000000015000
B0517493128997S11716317EA0121201294000000015000
B0517533128960S11716288EA0121901299000000000000
B0517573128914S11716328EA0122301299000000000000
B0518013128941S11716409EA0122601305000000000000
B0518053129017S11716419EA0123101312000000000000
B0518093129047S11716366EA0124401325000000000000
B0518133129009S11716338EA0125501334000000000000
B0518173128965S11716382EA0125801334000000000000
B0518213128978S11716462EA0126401344000000000000
B0518253129045S11716497EA0127501356000000015000
B0518293129096S11716462EA0128501368000000015000
B0518333129077S11716419EA0129401375000000000000
B0518373129026S11716434EA0129001365000000000000
B0518413128971S11716487EA0128001361000000000000
B0518453128926S11716553EA0128701368000000000000
B0518493128883S11716625EA0129601378000000000000
B0518533128845S11716698EA0130101383000000000000
B0518573128811S11716776EA0130701390000000000000
B0519013128804S11716860EA0131501397000000000000
B0519053128806S11716949EA0131101376000000000000
B0519093128776S11717043EA0127701336000000000000
B0519133128715S11717131EA0124201309000000000000
B0519173128641S11717207EA0122601299000000000000
B0519213128566S11717277EA0121701287000000000000
B0519253128489S11717348EA0120601274000000000000
B0519293128412S11717413EA0119201260000000000000
B0519333128336S11717472EA0117901243000000000000
B0519373128254S11717528EA0116401231000000000000
B0519413128172S11717579EA0115601224000000000000
B0519453128094S11717631EA0115201217000000000000
B0519493128014S11717682EA0114101200000000000000
B0519533127935S11717731EA0112401188000000000000
B0519573127857S11717782EA0111801180000000000000
B0520013127780S11717833EA0111301178000000000000
B0520053127704S11717882EA0111301177000000000000
B0520093127630S11717931EA0112001189000000000000
B0520133127569S11717983EA0115001217000000000000
B0520173127554S11718059EA0116801230000000000000
B0520213127598S11718122EA0116401227000000000000
B0520253127665S11718126EA0117001237000000000000
B0520293127691S11718078EA0117901240000000000000
B0520333127657S11718035EA0117601236000000000000
B0520373127609S11718002EA0117601240000000000000
B0520413127558S11717972EA0118201250000000000000
B0520453127505S11717946EA0119201258000000000000
B0520493127449S11717981EA0119801264000000000000
B0520533127468S11718065EA0120301266000000000000
B0520573127530S11718113EA0120601270000000000000
B0521013127589S11718106EA0121401278000000000000
B0521053127593S11718054EA0122001284000000000000
B0521093127539S11718043EA0122401289000000000000
B0521133127493S11718109EA0122401290000000000000
B0521173127513S11718197EA0123201301000000000000
B0521213127576S11718230EA0123101299000000000000
B0521253127634S11718202EA0123401313000000000000
B0521293127623S11718158EA0125601337000000000000
B0521333127570S11718181EA0127001341000000000000
B0521373127557S11718263EA0127201344000000000000
B0521413127604S11718324EA0127701351000000000000
B0521453127647S11718301EA0128601364000000000000
B0521493127623S11718260EA0129401376000000000000
B0521533127574S11718297EA0130601383000000000000
B0521573127580S11718384EA0130601380000000000000
B0522013127640S11718429EA0130601388000000015000
B0522053127676S11718393EA0131501397000000000000
B0522093127647S11718351EA0132101403000000000000
B0522133127592S11718377EA0133101409000000000000
B0522173127602S11718464EA0133501415000000000000
B0522213127665S11718488EA0133801419000000000000
B0522253127697S11718442EA0134701429000000000000
B0522293127658S11718410EA0135201431000000000000
B0522333127608S11718454EA0136001441000000000000
B0522373127628S11718537EA0136601443000000000000
B0522413127701S11718561EA0135401434000000000000
B0522453127765S11718525EA0135701444000000000000
B0522493127749S11718479EA0138701474000000000000
B0522533127696S11718512EA0140101486000000000000
B0522573127695S11718601EA0140901492000000000000
B0523013127752S11718661EA0141501498000000000000
B0523053127808S11718639EA0142101508000000000000
B0523093127793S11718592EA0143101521000000000000
B0523133127736S11718613EA0144501536000000000000
B0523173127725S11718698EA0145901548000000000000
B0523213127780S11718757EA0146601559000000000000
B0523253127844S11718754EA0147401570000000000000
B0523293127875S11718709EA0148201575000000000000
B0523333127862S11718657EA0148501577000000000000
B0523373127810S11718637EA0149401597000000000000
B0523413127767S11718693EA0151701617000000000000
B0523453127784S11718776EA0153401630000000000000
B0523493127842S11718802EA0154901644000000000000
B0523533127871S11718766EA0155701652000000000000
B0523573127839S11718735EA0156901669000000000000
B0524013127788S11718767EA0158601684000000000000
B0524053127775S11718850EA0159201689000000000000
B0524093127818S11718918EA0160601705000000000000
B0524133127875S11718913EA0161801719000000000000
B0524173127881S11718870EA0163301734000000000000
B0524213127835S11718862EA0164401743000000000000
B0524253127792S11718922EA0164501745000000000000
B0524293127797S11719009EA0165901760000000000000
B0524333127848S11719065EA0166601768000000000000
B0524373127909S11719062EA0167401780000000000000
B0524413127931S11719016EA0168301789000000000000
B0524453127894S11718991EA0169901808000000000000
B0524493127847S11719035EA0171201816000000000000
B0524533127851S11719120EA0172701831000000000000
B0524573127900S11719173EA0174001845000000000000
B0525013127959S11719170EA0174601849000000000000
B0525053127974S11719121EA0175001856000000000000
B0525093127933S11719090EA0176401873000000000000
B0525133127878S11719120EA0178001888000000000000
B0525173127866S11719201EA0178901897000000000000
B0525213127912S11719278EA0179101900000000000000
B0525253127977S11719292EA0180401916000000000000
B0525293128012S11719251EA0181501928000000000000
B0525333127998S11719201EA0182901939000000000000
B0525373127947S11719196EA0184201956000000000000
B0525413127912S11719263EA0185201961000000000000
B0525453127935S11719351EA0185901971000000000000
B0525493128004S11719386EA0186901982000000000000
B0525533128046S11719348EA0188502001000000000000
B0525573128025S11719305EA0190002016000000000000
B0526013127973S11719311EA0190902024000000000000
B0526053127931S11719378EA0191002025000000000000
B0526093127934S11719480EA0192202038000000000000
B0526133127986S11719547EA0193502058000000000000
B0526173128043S11719541EA0195202072000000000000
B0526213128051S11719497EA0196102079000000000000
B0526253128007S11719477EA0196302081000000000000
B0526293127969S11719534EA0197702103000000000000
B0526333127990S11719620EA0199002108000000000000
B0526373128052S11719655EA0199802120000000000000
B0526413128095S11719625EA0200902130000000000000
B0526453128083S11719584EA0201802136000000000000
B0526493128038S11719585EA0202502146000000000000
B0526533128001S11719647EA0203302154000000000000
B0526573128030S11719728EA0204802168000000000000
B0527013128091S11719733EA0205302175000000000000
B0527053128120S11719684EA0205902183000000000000
B0527093128096S11719650EA0207302199000000000000
B0527133128051S11719675EA0208302207000000000000
B0527173128037S11719757EA0209202218000000000000
B0527213128081S11719831EA0210102233000000000000
B0527253128144S11719846EA0211402241000000000000
B0527293128193S11719811EA0211402243000000000000
B0527333128212S11719760EA0212302254000000000000
B0527373128185S11719723EA0213302264000000000000
B0527413128137S11719764EA0214402277000000000000
B0527453128151S11719855EA0215502290000000000000
B0527493128213S11719893EA0216802302000000000000
B0527533128258S11719855EA0217702310000000000000
B0527573128239S11719814EA0218602322000000000000
B0528013128189S11719833EA0219402328000000000000
B0528053128177S11719918EA0220702344000000000000
B0528093128232S11719983EA0221502352000000000000
B0528133128293S11719972EA0221802357000000000000
B0528173128300S11719922EA0222902367000000000000
B0528213128256S11719903EA0223302370000000000000
B0528253128213S11719959EA0224402385000000000000
B0528293128233S11720046EA0225802397000000000000
B0528333128299S11720072EA0226302403000000000000
B0528373128334S11720032EA0227302413000000000000
B0528413128316S11719992EA0227702413000000000000
B0528453128263S11719988EA0226302397000000000000
B0528493128190S11720010EA0225202394000000000000
B0528533128118S11720041EA0227502419000000000000
B0528573128092S11720117EA0230602449000000000000
B0529013128148S11720178EA0232302459000000000000
B0529053128212S11720163EA0233402474000000000000
B0529093128208S11720117EA0234602485000000000000
B0529133128161S11720128EA0236002501000000000000
B0529173128154S11720206EA0236702505000000000000
B0529213128204S11720273EA0237202518000000000000
B0529253128264S11720266EA0238702533000000000000
B0529293128274S11720218EA0239902546000000000000
B0529333128235S11720197EA0241402562000000000000
B0529373128195S11720240EA0242202567000000000000
B0529413128199S11720323EA0242902573000000000000
B0529453128258S11720382EA0243202579000000000000
B0529493128326S11720379EA0244602600000000000000
B0529533128352S11720332EA0247102622000000000000
B0529573128325S11720303EA0248802639000000000000
B0530013128282S11720339EA0249702646000000000000
B0530053128282S11720423EA0250502659000000000000
B0530093128337S11720483EA0251402664000000000000
B0530133128397S11720468EA0252302678000000000000
B0530173128399S11720418EA0254102696000000000000
B0530213128362S11720396EA0255202705000000000000
B0530253128317S11720434EA0256302716000000000000
B0530293128320S11720514EA0257402727000000000000
B0530333128377S11720568EA0258502740000000000000
B0530373128433S11720543EA0259402753000000000000
B0530413128429S11720498EA0261302772000000000000
B0530453128389S11720498EA0262202777000000000000
B0530493128367S11720565EA0262902784000000000000
B0530533128403S11720643EA0263602794000000000000
B0530573128471S11720668EA0264302803000000000000
B0531013128516S11720631EA0265202818000000000000
B0531053128501S11720595EA0267002831000000000000
B0531093128459S11720626EA0267802836000000000000
B0531133128463S11720712EA0268402847000000000000
B0531173128523S11720764EA0270002866000000000000
B0531213128584S11720755EA0271002875000000000000
B0531253128605S11720706EA0271102875000000000000
B0531293128575S11720669EA0271802886000000000000
B0531333128527S11720678EA0273302901000000000000
B0531373128505S11720751EA0274502907000000000000
B0531413128546S11720826EA0275302918000000000000
B0531453128615S11720839EA0276602932000000000000
B0531493128655S11720800EA0277402942000000000000
B0531533128642S11720759EA0278102945000000000000
B0531573128594S11720755EA0278102950000000000000
B0532013128547S11720803EA0279102961000000000000
B0532053128559S11720891EA0280202968000000000000
B0532093128631S11720924EA0280602977000000000000
B0532133128677S11720889EA0281802987000000000000
B0532173128661S11720846EA0281902986000000000000
B0532213128609S11720842EA0282602996000000000000
B0532253128579S11720919EA0283203002000000000000
B0532293128616S11720997EA0284803017000000000000
B0532333128687S11721006EA0285103018000000000000
B0532373128719S11720959EA0285703026000000000000
B0532413128690S11720925EA0286503034000000000000
B0532453128640S11720954EA0287003040000000000000
B0532493128611S11721038EA0286603037000000000000
B0532533128585S11721135EA0286503032000000000000
B0532573128531S11721216EA0284803000000000000000
B0533013128446S11721268EA0281002976000000000000
B0533053128352S11721298EA0279602964000000000000
B0533093128260S11721318EA0278702954000000000000
B0533133128167S11721333EA0277402939000000000000
B0533173128074S11721345EA0275902922000000000000
B0533213127979S11721356EA0274202906000000000000
B0533253127886S11721366EA0273202898000000000000
B0533293127792S11721376EA0271902883000000000000
B0533333127697S11721389EA0271102878000000000000
B0533373127604S11721404EA0270902875000000000000
B0533413127511S11721419EA0270302868000000000000
B0533453127420S11721432EA0270302866000000000000
B0533493127329S11721443EA0269202847000000000000
B0533533127237S11721450EA0267702838000000000000
B0533573127146S11721458EA0267202832000000000000
B0534013127058S11721469EA0266502825000000000000
B0534053126968S11721479EA0265402811000000000000
B0534093126876S11721488EA0263802794000000000000
B0534133126781S11721497EA0262802787000000000000
B0534173126687S11721508EA0262302785000000000000
B0534213126599S11721515EA0262402779000000000000
B0534253126510S11721522EA0261102762000000000000
B0534293126419S11721525EA0259702749000000000000
B0534333126327S11721530EA0258402739000000000000
B0534373126235S11721535EA0257802734000000000000
B0534413126145S11721539EA0257202727000000000000
B0534453126057S11721541EA0256802723000000000000
B0534493125968S11721544EA0256202712000000000000
B0534533125877S11721545EA0255102701000000000000
B0534573125788S11721544EA0254002689000000000000
B0535013125697S11721544EA0252602677000000000000
B0535053125606S11721547EA0252002672000000000000
B0535093125512S11721548EA0252002673000000000000
B0535133125420S11721549EA0251202664000000000000
B0535173125329S11721552EA0250402655000000000000
B0535213125236S11721554EA0249402644000000000000
B0535253125147S11721556EA0248702636000000000000
B0535293125057S11721557EA0248002629000000000000
B0535333124970S11721558EA0247302619000000000000
B0535373124880S11721560EA0245702598000000000000
B0535413124789S11721562EA0244002584000000000000
B0535453124696S11721562EA0242502571000000000000
B0535493124602S11721565EA0241402558000000000000
B0535533124511S11721567EA0241102559000000000000
B0535573124423S11721564EA0240102545000000000000
B0536013124334S11721558EA0239402538000000000000
B0536053124247S11721554EA0238702529000000000000
B0536093124161S11721551EA0237802526000000000000
B0536133124078S11721548EA0237902522000000000000
B0536173123994S11721545EA0236902512000000000000
B0536213123908S11721548EA0235802500000000000000
B0536253123821S11721554EA0235002493000000000000
B0536293123736S11721561EA0234602488000000000000
B0536333123652S11721569EA0233702477000000000000
B0536373123567S11721577EA0233002472000000000000
B0536413123485S11721584EA0232402465000000000000
B0536453123403S11721592EA0232302464000000000000
B0536493123323S11721604EA0231802456000000000000
B0536533123242S11721612EA0231102448000000000000
B0536573123160S11721619EA0230202438000000000000
B0537013123076S11721626EA0229302431000000000000
B0537053122993S11721629EA0228802424000000000000
B0537093122912S11721629EA0228302420000000000000
B0537133122833S11721627EA0227802412000000000000
B0537173122753S11721625EA0226702399000000000000
B0537213122669S11721618EA0225002383000000000000
B0537253122583S11721614EA0224302376000000000000
B0537293122496S11721613EA0223102362000000000000
B0537333122406S11721613EA0221402344000000000000
B0537373122317S11721614EA0220102334000000000000
B0537413122227S11721616EA0219302325000000000000
B0537453122136S11721617EA0218502319000000000000
B0537493122049S11721616EA0218302317000000000000
B0537533121966S11721616EA0218102313000000000000
B0537573121885S11721618EA0217302298000000000000
B0538013121803S11721623EA0215502279000000000000
B0538053121722S11721631EA0215302284000000000000
B0538093121647S11721638EA0215802285000000000000
B0538133121570S11721645EA0215402279000000000000
B0538173121495S11721651EA0215402289000000000000
B0538213121426S11721660EA0216802297000000000000
B0538253121358S11721669EA0216402287000000000000
B0538293121286S11721675EA0214702269000000000000
B0538333121206S11721683EA0213102254000000000000
B0538373121123S11721692EA0211502237000000000000
B0538413121037S11721700EA0210202226000000000000
B0538453120952S11721710EA0209302214000000000000
B0538493120864S11721720EA0208302208000000000000
B0538533120780S11721729EA0208002204000000000000
B0538573120697S11721734EA0208402215000000000000
B0539013120615S11721742EA0209002213000000000000
B0539053120536S11721742EA0208802211000000000000
B0539093120459S11721730EA0207902199000000000000
B0539133120381S11721718EA0206502186000000000000
B0539173120300S11721710EA0205002173000000000000
B0539213120220S11721704EA0204602170000000000000
B0539253120140S11721696EA0204202165000000000000
B0539293120058S11721692EA0203602158000000000000
B0539333119977S11721687EA0203002152000000000000
B0539373119895S11721683EA0202502147000000000000
B0539413119813S11721681EA0202202146000000000000
B0539453119733S11721679EA0202502149000000000000
B0539493119657S11721679EA0201802138000000000000
B0539533119579S11721679EA0201002127000000000000
B0539573119499S11721683EA0200102120000000000000
B0540013119418S11721688EA0200602133000000000000
B0540053119372S11721747EA0204502180000000000000
B0540093119405S11721811EA0207602202000000000000
B0540133119468S11721816EA0207402197000000000000
B0540173119505S11721765EA0207202201000000000000
B0540213119489S11721707EA0208302214000000000000
B0540253119440S11721704EA0210302238000000000000
B0540293119421S11721770EA0211502246000000000000
B0540333119471S11721831EA0211902251000000000000
B0540373119533S11721827EA0213502270000000000000
B0540413119553S11721782EA0214602279000000000000
B0540453119519S11721747EA0215002284000000000000
B0540493119470S11721774EA0216102301000000000000
B0540533119467S11721844EA0217602310000000000000
B0540573119518S11721899EA0218002314000000000000
B0541013119583S11721896EA0219102330000000000000
B0541053119614S11721853EA0220602340000000000000
B0541093119592S11721809EA0220902344000000000000
B0541133119542S11721803EA0221802356000000000000
B0541173119502S11721850EA0222602362000000000000
B0541213119501S11721925EA0223202366000000000000
B0541253119553S11721978EA0223202370000000000000
B0541293119615S11721963EA0224402387000000000000
B0541333119645S11721913EA0226302404000000000000
B0541373119611S11721879EA0227002408000000000000
B0541413119570S11721917EA0227702416000000000000
B0541453119575S11721991EA0228202420000000000000
B0541493119622S11722051EA0228802427000000000000
B0541533119689S11722059EA0229502433000000000000
B0541573119746S11722030EA0230002440000000000000
B0542013119762S11721973EA0230402445000000000000
B0542053119749S11721915EA0230602445000000000000
B0542093119720S11721857EA0230302437000000000000
B0542133119668S11721807EA0228502420000000000000
B0542173119596S11721773EA0227002413000000000000
B0542213119520S11721748EA0226602401000000000000
B0542253119438S11721731EA0224902383000000000000
B0542293119351S11721721EA0223302370000000000000
B0542333119262S11721718EA0221902356000000000000
B0542373119169S11721720EA0220602343000000000000
B0542413119076S11721725EA0219602334000000000000
B0542453118983S11721730EA0218702322000000000000
B0542493118888S11721739EA0217102307000000000000
B0542533118794S11721749EA0216402299000000000000
B0542573118700S11721760EA0215602285000000000000
B0543013118606S11721770EA0213802273000000000000
B0543053118515S11721782EA0213802269000000000000
B0543093118423S11721792EA0212502257000000000000
B0543133118332S11721801EA0212002253000000000000
B0543173118241S11721811EA0211302240000000000000
B0543213118147S11721821EA0210002228000000000000
B0543253118055S11721831EA0209002217000000000000
B0543293117964S11721840EA0208702213000000000000
B0543333117876S11721847EA0208802218000000000000
B0543373117803S11721870EA0212802265000000000000
B0543413117774S11721939EA0215802299000000000000
B0543453117808S11722013EA0217702306000000000000
B0543493117876S11722026EA0218702320000000000000
B0543533117908S11721980EA0219902330000000000000
B0543573117889S11721931EA0220202333000000000000
B0544013117842S11721912EA0220802340000000000000
B0544053117794S11721947EA0221802352000000000000
B0544093117780S11722024EA0223002364000000000000
B0544133117826S11722086EA0223802374000000000000
B0544173117885S11722074EA0224902387000000000000
B0544213117897S11722019EA0225402392000000000000
B0544253117858S11721985EA0225802397000000000000
B0544293117807S11722016EA0226902412000000000000
B0544333117780S11722086EA0228002421000000000000
B0544373117813S11722160EA0228102421000000000000
B0544413117881S11722171EA0228802433000000000000
B0544453117924S11722128EA0230702450000000000000
B0544493117930S11722072EA0231602454000000000000
B0544533117900S11722025EA0232102460000000000000
B0544573117851S11722030EA0233302477000000000000
B0545013117829S11722098EA0234402489000000000000
B0545053117868S11722165EA0235502497000000000000
B0545093117933S11722171EA0236502509000000000000
B0545133117964S11722119EA0237002511000000000000
B0545173117933S11722080EA0237402522000000000000
B0545213117887S11722113EA0238902532000000000000
B0545253117894S11722194EA0239602546000000000000
B0545293117950S11722238EA0241302565000000000000
B0545333118004S11722212EA0241702567000000015000
B0545373118012S11722154EA0241302565000000000000
B0545413117969S11722117EA0241502568000000000000
B0545453117912S11722125EA0242302574000000000000
B0545493117847S11722158EA0241602566000000000000
B0545533117770S11722195EA0240202551000000000000
B0545573117685S11722228EA0239202542000000000000
B0546013117594S11722255EA0238202531000000000000
B0546053117500S11722282EA0237802527000000000000
B0546093117405S11722312EA0236702513000000000000
B0546133117309S11722344EA0235602504000000000000
B0546173117215S11722375EA0235402504000000000000
B0546213117126S11722405EA0236102511000000000000
B0546253117037S11722429EA0236402514000000000000
B0546293116951S11722450EA0236502514000000000000
B0546333116871S11722466EA0237202520000000000000
B0546373116792S11722480EA0237202515000000000000
B0546413116708S11722490EA0236502509000000000000
B0546453116624S11722501EA0236702519000000000000
B0546493116545S11722509EA0238202534000000000000
B0546533116470S11722515EA0239302537000000000000
B0546573116394S11722522EA0237902517000000000000
B0547013116305S11722528EA0237202520000000000000
B0547053116220S11722532EA0239202548000000000000
B0547093116158S11722494EA0243302583000000000000
B0547133116187S11722445EA0248102634000000000000
B0547173116243S11722474EA0250202649000000000000
B0547213116252S11722554EA0251202661000000000000
B0547253116207S11722607EA0253002689000000000000
B0547293116153S11722607EA0255502712000000000000
B0547333116122S11722566EA0257602732000000000000
B0547373116138S11722516EA0259502754000000000000
B0547413116191S11722506EA0261402773000000000000
B0547453116238S11722554EA0263602794000000000000
B0547493116243S11722632EA0264602804000000000000
B0547533116197S11722680EA0265602814000000000000
B0547573116144S11722659EA0267502835000000000000
B0548013116135S11722606EA0269402860000000000000
B0548053116173S11722566EA0271302874000000000000
B0548093116233S11722571EA0272702894000000000000
B0548133116274S11722627EA0275002917000000000000
B0548173116265S11722705EA0276302931000000000000
B0548213116220S11722753EA0278002947000000000000
B0548253116165S11722750EA0279302960000000000000
B0548293116136S11722705EA0281302981000000000000
B0548333116161S11722657EA0282702992000000000000
B0548373116225S11722656EA0283503003000000000000
B0548413116273S11722714EA0285203022000000000000
B0548453116272S11722797EA0286503032000000000000
B0548493116227S11722856EA0287403046000000000000
B0548533116170S11722856EA0289103063000000000000
B0548573116145S11722806EA0290703084000000000000
B0549013116170S11722757EA0292703097000000000000
B0549053116230S11722749EA0293003102000000000000
B0549093116282S11722804EA0294303119000000000000
B0549133116292S11722886EA0295703133000000000000
B0549173116261S11722956EA0296903147000000000000
B0549213116204S11722979EA0298703164000000000000
B0549253116152S11722958EA0299703176000000000000
B0549293116103S11722921EA0300403182000000000000
B0549333116041S11722890EA0300303177000000000000
B0549373115965S11722877EA0298603159000000000000
B0549413115878S11722879EA0296603138000000000000
B0549453115785S11722887EA0295003125000000000000
B0549493115692S11722901EA0294003116000000000000
B0549533115597S11722919EA0293003105000000000000
B0549573115502S11722938EA0292403101000000000000
B0550013115411S11722953EA0293203112000000000000
B0550053115324S11722965EA0293803117000000000000
B0550093115242S11722974EA0294403121000000000000
B0550133115160S11722981EA0294303118000000000000
B0550173115077S11722991EA0293603108000000000000
B0550213114991S11723004EA0292503097000000000000
B0550253114903S11723018EA0291803088000000000000
B0550293114814S11723025EA0290503075000000000000
B0550333114723S11723030EA0289103061000000000000
B0550373114634S11723034EA0288103053000000000000
B0550413114546S11723039EA0287703046000000000000
B0550453114459S11723043EA0286903040000000000000
B0550493114374S11723049EA0286703036000000000000
B0550533114288S11723053EA0285703026000000000000
B0550573114201S11723057EA0284603014000000000000
B0551013114114S11723056EA0283703006000000000000
B0551053114025S11723053EA0282702995000000000000
B0551093113933S11723055EA0281202980000000000000
B0551133113843S11723057EA0280702978000000000000
B0551173113756S11723055EA0280502975000000000000
B0551213113669S11723059EA0280202967000000000000
B0551253113581S11723065EA0279302962000000000000
B0551293113493S11723072EA0278902958000000000000
B0551333113405S11723078EA0278402951000000000000
B0551373113318S11723087EA0278002949000000000000
B0551413113233S11723094EA0278102952000000000000
B0551453113154S11723101EA0278902959000000000000
B0551493113079S11723112EA0279102958000000000000
B0551533113002S11723120EA0278502949000000000000
B0551573112923S11723121EA0277702942000000000000
B0552013112843S11723124EA0277302939000000000000
B0552053112765S11723124EA0276402929000000000000
B0552093112689S11723121EA0275402916000000000000
B0552133112612S11723116EA0274402906000000000000
B0552173112537S11723109EA0273402897000000000000
B0552213112464S11723105EA0273102894000000000000
B0552253112391S11723098EA0272602886000000000000
B0552293112318S11723083EA0271602873000000000000
B0552333112243S11723064EA0270602870000000000000
B0552373112171S11723044EA0270802871000000000000
B0552413112106S11723005EA0270202862000000000000
B0552453112053S11722935EA0268702843000000000000
B0552493112013S11722841EA0267002834000000000000
B0552533111984S11722741EA0266302831000000000000
B0552573111957S11722645EA0265902827000000000000
B0553013111930S11722553EA0265602823000000000000
B0553053111900S11722463EA0265402819000000000000
B0553093111874S11722377EA0265802825000000000000
B0553133111844S11722294EA0265102811000000000000
B0553173111814S11722208EA0264302808000000000000
B0553213111784S11722123EA0264202806000000000000
B0553253111754S11722037EA0263502797000000000000
B0553293111724S11721948EA0262902793000000000000
B0553333111696S11721856EA0262702796000000000000
B0553373111670S11721768EA0263302800000000000000
B0553413111645S11721679EA0262502786000000000000
B0553453111616S11721587EA0261102768000000000000
B0553493111581S11721495EA0260302768000000000000
B0553533111549S11721408EA0260802775000000000000
B0553573111514S11721327EA0261102773000000000000
B0554013111481S11721245EA0260402766000000000000
B0554053111449S11721167EA0261802790000000000000
B0554093111420S11721098EA0263102794000000000000
B0554133111387S11721027EA0260802762000000000000
B0554173111348S11720947EA0259202753000000000000
B0554213111308S11720868EA0258302741000000000000
B0554253111276S11720780EA0257202732000000000000
B0554293111247S11720695EA0257402743000000000000
B0554333111221S11720616EA0257402729000000000000
B0554373111192S11720530EA0255202706000000000000
B0554413111164S11720440EA0253402690000000000000
B0554453111138S11720349EA0252202681000000000000
B0554493111116S11720258EA0251202669000000000000
B0554533111094S11720169EA0249702654000000000000
B0554573111069S11720080EA0248502640000000000000
B0555013111034S11719994EA0247602624000000000000
B0555053111031S11719893EA0244902591000000000000
B0555093111057S11719788EA0242602577000000000000
B0555133111095S11719686EA0241702570000000000000
B0555173111134S11719588EA0240302556000000000000
B0555213111168S11719490EA0239502549000000000000
B0555253111199S11719394EA0239302547000000000000
B0555293111226S11719299EA0238602537000000000000
B0555333111254S11719200EA0237302522000000000000
B0555373111282S11719101EA0236702517000000000000
B0555413111309S11719003EA0235902503000000000000
B0555453111338S11718902EA0234702495000000000000
B0555493111364S11718805EA0235102507000000000000
B0555533111368S11718714EA0237102519000000000000
B0555573111356S11718622EA0236302511000000000000
B0556013111345S11718525EA0235802509000000000000
B0556053111330S11718433EA0236402510000000000000
B0556093111311S11718347EA0237602532000000000000
B0556133111282S11718277EA0240602556000000000000
B0556173111251S11718212EA0240802550000000000000
B0556213111213S11718148EA0240902552000000000000
B0556253111172S11718086EA0240602549000000000000
B0556293111125S11718028EA0240502548000000000000
B0556333111078S11717965EA0240402547000000000000
B0556373111034S11717901EA0240202549000000000000
B0556413110990S11717840EA0240102544000000000000
B0556453110942S11717781EA0239302532000000000000
B0556493110890S11717717EA0236902506000000000000
B0556533110828S11717649EA0233802470000000000000
B0556573110787S11717557EA0230702444000000000000
B0557013110782S11717452EA0229402434000000000000
B0557053110795S11717348EA0228102416000000000000
B0557093110819S11717248EA0226302398000000000000
B0557133110853S11717147EA0224302374000000000000
B0557173110888S11717045EA0221402347000000000000
B0557213110923S11716937EA0219702331000000000000
B0557253110957S11716832EA0218702321000000000000
B0557293110990S11716726EA0217702310000000000000
B0557333111026S11716618EA0216302300000000000000
B0557373111062S11716514EA0216202300000000000000
B0557413111101S11716410EA0215602293000000000000
B0557453111127S11716308EA0215302297000000000000
B0557493111122S11716213EA0216602305000000000000
B0557533111109S11716120EA0216302302000000000000
B0557573111090S11716035EA0216802308000000000000
B0558013111066S11715955EA0216702296000000000000
B0558053111039S11715870EA0214402269000000000000
B0558093111010S11715779EA0212902261000000000000
B0558133110978S11715689EA0211902250000000000000
B0558173110945S11715600EA0210702235000000000000
B0558213110918S11715506EA0208802220000000000000
B0558253110895S11715411EA0207902207000000000000
B0558293110871S11715317EA0206502188000000000000
B0558333110867S11715216EA0204502172000000000000
B0558373110886S11715113EA0204102175000000000000
B0558413110906S11715015EA0204402173000000000000
B0558453110925S11714917EA0203602162000000000000
B0558493110935S11714815EA0202802156000000000000
B0558533110931S11714715EA0202902155000000000000
B0558573110918S11714616EA0202502155000000000000
B0559013110892S11714527EA0201902142000000000000
B0559053110861S11714436EA0200602131000000000000
B0559093110835S11714343EA0199602120000000000000
B0559133110808S11714252EA0198302109000000000000
B0559173110779S11714160EA0197202096000000000000
B0559213110753S11714065EA0196102083000000000000
B0559253110730S11713968EA0194502067000000000000
B0559293110709S11713866EA0193102055000000000000
B0559333110687S11713765EA0192502053000000000000
B0559373110663S11713667EA0193202056000000000000
B0559413110633S11713575EA0192902054000000000000
B0559453110593S11713494EA0194402080000000000000
B0559493110554S11713427EA0197102103000000000000
B0559533110518S11713367EA0198402109000000000000
B0559573110479S11713312EA0197902099000000000000
B0600013110433S11713254EA0196102078000000000000
B0600053110390S11713185EA0194602061000000000000
B0600093110354S11713106EA0193002049000000000000
B0600133110320S11713023EA0191702031000000000000
B0600173110312S11712924EA0188901995000000000000
B0600213110333S11712813EA0185501968000000000000
B0600253110362S11712700EA0183901958000000000000
B0600293110390S11712590EA0183601955000000000000
B0600333110419S11712480EA0183101949000000000000
B0600373110432S11712375EA0183401962000000000000
B0600413110420S11712282EA0184201963000000000000
B0600453110401S11712188EA0183501952000000000000
B0600493110377S11712098EA0183301954000000000000
B0600533110355S11712014EA0183601952000000000000
B0600573110323S11711934EA0183901959000000000000
B0601013110281S11711866EA0184201960000000000000
B0601053110240S11711799EA0184501958000000000000
B0601093110191S11711741EA0183601948000000000000
B0601133110138S11711685EA0182701942000000000000
B0601173110082S11711637EA0182001934000000000000
B0601213110024S11711590EA0181601929000000000000
B0601253109965S11711543EA0181201924000000000000
B0601293109907S11711485EA0179201897000000000000
B0601333109874S11711391EA0176601878000000000000
B0601373109863S11711287EA0176301875000000000000
B0601413109859S11711183EA0175701864000000000000
B0601453109860S11711079EA0173901850000000000000
B0601493109864S11710974EA0173301850000000000000
B0601533109863S11710870EA0173101841000000000000
B0601573109852S11710761EA0171201822000000000000
B0602013109840S11710650EA0170901827000000000000
B0602053109822S11710551EA0173401857000000000000
B0602093109786S11710475EA0176401881000000000000
B0602133109744S11710404EA0176801883000000000000
B0602173109694S11710339EA0176501876000000000000
B0602213109644S11710267EA0173701837000000000000
B0602253109614S11710165EA0170601808000000000000
B0602293109596S11710055EA0169001796000000000000
B0602333109586S11709943EA0168101789000000000000
B0602373109580S11709832EA0167401782000000000000
B0602413109579S11709721EA0166301765000000000000
B0602453109579S11709607EA0164401750000000000000
B0602493109580S11709496EA0163301740000000000000
B0602533109584S11709385EA0162301728000000000000
B0602573109588S11709279EA0160901715000000000000
B0603013109591S11709175EA0160101702000000000000
B0603053109597S11709073EA0158701688000000000000
B0603093109604S11708974EA0158401682000000000000
B0603133109612S11708877EA0157501673000000000000
B0603173109623S11708778EA0156701665000000000000
B0603213109636S11708681EA0156401666000000000000
B0603253109640S11708584EA0156501668000000000000
B0603293109629S11708495EA0157401681000000000000
B0603333109605S11708417EA0159101696000000000000
B0603373109580S11708343EA0159801700000000000000
B0603413109549S11708270EA0160001702000000000000
B0603453109514S11708200EA0160201702000000000000
B0603493109476S11708129EA0159601697000000000000
B0603533109436S11708059EA0159001685000000000000
B0603573109397S11707982EA0157801674000000000000
B0604013109374S11707894EA0156901669000000000000
B0604053109359S11707800EA0156101658000000000000
B0604093109354S11707704EA0155901662000000000000
B0604133109350S11707611EA0156701676000000000000
B0604173109331S11707527EA0157601673000000000000
B0604213109305S11707439EA0155701653000000000000
B0604253109284S11707343EA0154701652000000000000
B0604293109268S11707248EA0156301670000000000000
B0604333109258S11707154EA0157201680000000000000
B0604373109248S11707062EA0157501677000000000000
B0604413109236S11706967EA0157001672000000000000
B0604453109224S11706870EA0156501663000000000000
B0604493109223S11706768EA0155401654000000000000
B0604533109226S11706667EA0154601647000000000000
B0604573109232S11706565EA0154001638000000000000
B0605013109245S11706467EA0153401633000000000000
B0605053109263S11706369EA0153701636000000000000
B0605093109287S11706279EA0154301642000000000000
B0605133109314S11706191EA0153801634000000000000
B0605173109350S11706104EA0153801639000000000000
B0605213109384S11706019EA0155401660000000000000
B0605253109395S11705936EA0156701670000000000000
B0605293109404S11705850EA0156401662000000000000
B0605333109419S11705759EA0155101642000000000000
B0605373109444S11705666EA0153301628000000000000
B0605413109478S11705574EA0152801626000000000000
B0605453109517S11705488EA0152901629000000000000
B0605493109561S11705403EA0152301618000000000000
B0605533109612S11705320EA0150801600000000000000
B0605573109666S11705236EA0149601590000000000000
B0606013109721S11705154EA0148801576000000000000
B0606053109775S11705069EA0147101561000000000000
B0606093109830S11704986EA0145801549000000000000
B0606133109882S11704904EA0144901538000000000000
B0606173109934S11704821EA0143301521000000000000
B0606213109986S11704735EA0141501501000000000000
B0606253110037S11704649EA0140301493000000000000
B0606293110087S11704567EA0139901490000000000000
B0606333110136S11704489EA0140001490000000000000
B0606373110185S11704414EA0139201475000000000000
B0606413110233S11704336EA0138101468000000000000
B0606453110280S11704257EA0137001452000000000000
B0606493110327S11704172EA0136101448000000000000
B0606533110372S11704086EA0136201448000000000000
B0606573110415S11704003EA0137601464000000000000
B0607013110458S11703923EA0136901448000000000000
B0607053110503S11703837EA0135601441000000000000
B0607093110550S11703754EA0135501441000000000000
B0607133110596S11703670EA0135501445000000000000
B0607173110635S11703587EA0136301450000000000000
B0607213110674S11703504EA0136601454000000000000
B0607253110710S11703422EA0137501467000000000000
B0607293110743S11703341EA0138701477000000000000
B0607333110775S11703262EA0140301497000000000000
B0607373110806S11703187EA0141801506000000000000
B0607413110840S11703109EA0141401499000000000000
B0607453110866S11703031EA0141201500000000000000
B0607493110888S11702951EA0141001494000000000000
B0607533110917S11702870EA0140301485000000000000
B0607573110948S11702785EA0139501477000000000000
B0608013110984S11702702EA0138401468000000000000
B0608053111021S11702615EA0138101464000000000000
B0608093111061S11702532EA0137901461000000000000
B0608133111104S11702451EA0137201452000000000000
B0608173111150S11702372EA0135901438000000000000
B0608213111196S11702290EA0134901433000000000000
B0608253111235S11702205EA0134101422000000000000
B0608293111274S11702121EA0133201413000000000000
B0608333111315S11702039EA0132401403000000000000
B0608373111356S11701960EA0132101402000000000000
B0608413111395S11701883EA0132101403000000000000
B0608453111430S11701809EA0132401406000000000000
B0608493111449S11701732EA0133001412000000000000
B0608533111458S11701654EA0133301415000000000000
B0608573111468S11701577EA0134101423000000000000
B0609013111468S11701511EA0135301435000000000000
B0609053111421S11701503EA0135501433000000000000
B0609093111407S11701586EA0135901448000000000000
B0609133111462S11701638EA0137701471000000000000
B0609173111506S11701607EA0138801476000000000000
B0609213111480S11701567EA0138201467000000000000
B0609253111434S11701599EA0138801481000000000000
B0609293111437S11701681EA0140001493000000000000
B0609333111490S11701733EA0141301509000000000000
B0609373111549S11701718EA0141601506000000015000
B0609413111547S11701666EA0141201506000000015000
B0609453111499S11701672EA0140701498000000000000
B0609493111476S11701754EA0141201508000000000000
B0609533111464S11701846EA0142401522000000000000
B0609573111486S11701931EA0143901540000000000000
B0610013111551S11701944EA0144801538000000000000
B0610053111564S11701884EA0144701541000000000000
B0610093111516S11701871EA0145101547000000000000
B0610133111472S11701930EA0145301549000000000000
B0610173111447S11702018EA0145701558000000000000
B0610213111482S11702093EA0146801558000000000000
B0610253111550S11702088EA0146001548000000000000
B0610293111562S11702031EA0145801547000000000000
B0610333111536S11701973EA0145401550000000000000
B0610373111497S11701923EA0146801567000000000000
B0610413111447S11701954EA0148501580000000000000
B0610453111462S11702039EA0148001574000000000000
B0610493111525S11702070EA0149701600000000000000
B0610533111566S11702040EA0151201609000000015000
B0610573111546S11701995EA0151101611000000015000
B0611013111495S11701969EA0151501617000000000000
B0611053111438S11701983EA0151501606000000000000
B0611093111421S11702058EA0150501597000000000000
B0611133111460S11702132EA0149901596000000000000
B0611173111512S11702204EA0150001601000000000000
B0611213111572S11702273EA0149901596000000000000
B0611253111644S11702330EA0148901585000000000000
B0611293111725S11702377EA0148401582000000000000
B0611333111806S11702420EA0148801585000000000000
B0611373111887S11702457EA0148801580000000000000
B0611413111970S11702493EA0148201575000000000000
B0611453112053S11702521EA0147701569000000000000
B0611493112140S11702542EA0146601553000000000000
B0611533112230S11702573EA0145301543000000000000
B0611573112322S11702610EA0143801524000000000000
B0612013112417S11702658EA0141901507000000000000
B0612053112518S11702686EA0141201507000000000000
B0612093112619S11702707EA0141201503000000000000
B0612133112717S11702727EA0140901500000000000000
B0612173112816S11702749EA0140401493000000000000
B0612213112915S11702772EA0139701486000000000000
B0612253113012S11702789EA0139701493000000000000
B0612293113084S11702754EA0142001519000000000000
B0612333113051S11702711EA0144901540000000000000
B0612373113015S11702772EA0145001529000000000000
B0612413113050S11702859EA0143401523000000000000
B0612453113107S11702935EA0143101520000000000000
B0612493113172S11703006EA0141801504000000000000
B0612533113256S11703066EA0139101477000000000000
B0612573113349S11703115EA0137501468000000000000
B0613013113441S11703165EA0137201456000000000000
B0613053113536S11703219EA0135701444000000000000
B0613093113634S11703266EA0134201427000000000000
B0613133113729S11703309EA0133201418000000000000
B0613173113824S11703345EA0132601407000000000000
B0613213113919S11703378EA0131501400000000000000
B0613253114011S11703397EA0131201392000000000000
B0613293114103S11703408EA0131301400000000000000
B0613333114184S11703386EA0132601411000000000000
B0613373114238S11703326EA0132801410000000000000
B0613413114264S11703247EA0132401403000000000000
B0613453114250S11703167EA0132201405000000000000
B0613493114211S11703104EA0131601390000000000000
B0613533114199S11703024EA0129701362000000000000
B0613573114259S11702963EA0128101357000000000000
B0614013114344S11702951EA0127501349000000000000
B0614053114435S11702975EA0125901331000000000000
B0614093114527S11703023EA0124701324000000000000
B0614133114621S11703075EA0124001319000000000000
B0614173114713S11703110EA0125301337000000000000
B0614213114795S11703094EA0127401358000000000000
B0614253114790S11703036EA0128901367000000015000
B0614293114743S11703071EA0131001396000000015000
B0614333114765S11703143EA0133401422000000015000
B0614373114827S11703162EA0134101428000000015000
B0614413114869S11703115EA0134401433000000015000
B0614453114847S11703066EA0135201444000000015000
B0614493114796S11703070EA0136701462000000015000
B0614533114760S11703130EA0137601471000000000000
B0614573114777S11703209EA0138601484000000000000
B0615013114839S11703248EA0139501490000000000000
B0615053114897S11703215EA0140201497000000000000
B0615093114883S11703162EA0141001504000000015000
B0615133114835S11703195EA0142501524000000015000
B0615173114851S11703267EA0144201537000000015000
B0615213114918S11703287EA0144501544000000015000
B0615253114953S11703235EA0145201549000000015000
B0615293114918S11703198EA0146001563000000015000
B0615333114871S11703232EA0147601577000000015000
B0615373114869S11703317EA0148401586000000015000
B0615413114927S11703369EA0150001604000000015000
B0615453114991S11703345EA0150801609000000000000
B0615493115003S11703286EA0151601623000000015000
B0615533114964S11703269EA0153501643000000015000
B0615573114931S11703323EA0154301650000000015000
B0616013114952S11703403EA0154801662000000000000
B0616053115016S11703431EA0156301676000000015000
B0616093115069S11703399EA0156801677000000015000
B0616133115063S11703343EA0156701681000000015000
B0616173115011S11703357EA0157601696000000015000
B0616213114991S11703432EA0159401712000000015000
B0616253115022S11703512EA0160401719000000015000
B0616293115087S11703536EA0161501731000000015000
B0616333115113S11703484EA0162101733000000030000
B0616373115073S11703457EA0162301742000000030000
B0616413115033S11703507EA0163701757000000015000
B0616453115042S11703591EA0164801765000000015000
B0616493115102S11703640EA0165501772000000060000
B0616533115165S11703613EA0165801773000000060000
B0616573115178S11703547EA0166101778000000045000
B0617013115138S11703513EA0166901788000000030000
B0617053115104S11703577EA0167501792000000030000
B0617093115134S11703665EA0167601797000000015000
B0617133115193S11703741EA0168101799000000015000
B0617173115268S11703768EA0169201810000000015000
B0617213115315S11703720EA0169401811000000030000
B0617253115302S11703652EA0169901818000000030000
B0617293115256S11703616EA0171001833000000015000
B0617333115206S11703655EA0171501840000000015000
B0617373115212S11703750EA0171201835000000030000
B0617413115271S11703816EA0172001849000000015000
B0617453115342S11703865EA0172701847000000015000
B0617493115415S11703911EA0172301834000000015000
B0617533115495S11703958EA0170601818000000000000
B0617573115579S11704004EA0169501804000000000000
B0618013115668S11704049EA0168001788000000000000
B0618053115763S11704090EA0166901777000000000000
B0618093115861S11704133EA0165801767000000000000
B0618133115960S11704179EA0165301768000000000000
B0618173116056S11704223EA0165501769000000000000
B0618213116152S11704263EA0165401765000000000000
B0618253116248S11704305EA0165101758000000000000
B0618293116343S11704349EA0163901744000000000000
B0618333116438S11704396EA0162401727000000000000
B0618373116535S11704443EA0160601707000000000000
B0618413116634S11704492EA0158901692000000000000
B0618453116732S11704541EA0157901681000000000000
B0618493116831S11704591EA0156501665000000000000
B0618533116928S11704641EA0154901648000000000000
B0618573117024S11704691EA0153701636000000000000
B0619013117120S11704738EA0153001626000000000000
B0619053117213S11704784EA0152101615000000000000
B0619093117302S11704827EA0151201605000000000000
B0619133117391S11704873EA0150401599000000000000
B0619173117478S11704916EA0150101596000000000000
B0619213117566S11704961EA0150501607000000000000
B0619253117650S11704995EA0152801630000000000000
B0619293117718S11704981EA0155001648000000000000
B0619333117726S11704925EA0157401670000000015000
B0619373117677S11704904EA0158301684000000015000
B0619413117629S11704953EA0158901696000000015000
B0619453117624S11705034EA0159701704000000015000
B0619493117665S11705108EA0159501702000000000000
B0619533117731S11705152EA0159401703000000000000
B0619573117798S11705146EA0160201709000000015000
B0620013117837S11705087EA0161001712000000015000
B0620053117824S11705020EA0161801714000000015000
B0620093117767S11704989EA0160801717000000015000
B0620133117707S11705025EA0161501733000000015000
B0620173117690S11705115EA0162701743000000015000
B0620213117715S11705206EA0162601736000000015000
B0620253117770S11705285EA0161601733000000015000
B0620293117838S11705358EA0162401739000000000000
B0620333117908S11705421EA0162401735000000000000
B0620373117985S11705480EA0162501736000000000000
B0620413118066S11705532EA0163001745000000000000
B0620453118142S11705580EA0165001766000000000000
B0620493118216S11705596EA0167001783000000000000
B0620533118248S11705548EA0168601794000000030000
B0620573118186S11705535EA0169301802000000075000
B0621013118163S11705613EA0172001837000000075000
B0621053118196S11705680EA0174201851000000030000
B0621093118255S11705689EA0175001860000000030000
B0621133118290S11705641EA0175301869000000030000
B0621173118266S11705597EA0177401895000000015000
B0621213118218S11705619EA0178801907000000015000
B0621253118206S11705697EA0180001922000000015000
B0621293118251S11705758EA0181101934000000015000
B0621333118314S11705746EA0182301946000000015000
B0621373118326S11705696EA0184001969000000030000
B0621413118285S11705674EA0185801984000000015000
B0621453118236S11705707EA0186801996000000015000
B0621493118235S11705788EA0188002010000000015000
B0621533118290S11705830EA0189902029000000015000
B0621573118344S11705806EA0191502045000000015000
B0622013118340S11705754EA0193202068000000015000
B0622053118289S11705754EA0194202076000000015000
B0622093118257S11705823EA0195202090000000015000
B0622133118271S11705910EA0196502103000000015000
B0622173118324S11705965EA0197202103000000015000
B0622213118389S11705960EA0197102104000000015000
B0622253118430S11705906EA0197402111000000015000
B0622293118405S11705862EA0199502141000000030000
B0622333118363S11705931EA0201902157000000030000
B0622373118396S11706003EA0204302185000000015000
B0622413118457S11706021EA0205802198000000015000
B0622453118496S11705982EA0206802209000000015000
B0622493118475S11705936EA0208102218000000015000
B0622533118422S11705958EA0209702244000000030000
B0622573118415S11706042EA0212002264000000015000
B0623013118475S11706084EA0213102272000000015000
B0623053118527S11706051EA0213902277000000015000
B0623093118508S11705996EA0214702291000000015000
B0623133118449S11706003EA0216702316000000015000
B0623173118418S11706073EA0219302344000000015000
B0623213118436S11706156EA0220702355000000015000
B0623253118491S11706211EA0221102355000000000000
B0623293118561S11706212EA0221102358000000015000
B0623333118601S11706156EA0221702363000000015000
B0623373118601S11706086EA0222302375000000000000
B0623413118566S11706021EA0223602393000000000000
B0623453118504S11706009EA0226502421000000015000
B0623493118489S11706088EA0229002446000000015000
B0623533118547S11706136EA0230202455000000015000
B0623573118584S11706096EA0232002477000000015000
B0624013118550S11706060EA0234502502000000015000
B0624053118497S11706083EA0235702511000000015000
B0624093118480S11706165EA0236602524000000015000
B0624133118526S11706233EA0238602542000000000000
B0624173118586S11706235EA0240402561000000015000
B0624213118593S11706183EA0242202584000000015000
B0624253118544S11706169EA0243402601000000015000
B0624293118505S11706230EA0243802606000000015000
B0624333118535S11706308EA0244802615000000015000
B0624373118599S11706304EA0245702625000000015000
B0624413118615S11706243EA0247302642000000015000
B0624453118579S11706207EA0249502666000000015000
B0624493118526S11706230EA0250202670000000015000
B0624533118500S11706307EA0250902678000000015000
B0624573118527S11706385EA0252302694000000000000
B0625013118587S11706403EA0253402702000000000000
B0625053118625S11706356EA0254502714000000000000
B0625093118604S11706305EA0256102732000000000000
B0625133118554S11706326EA0257102739000000000000
B0625173118547S11706403EA0257702747000000000000
B0625213118599S11706464EA0257602747000000000000
B0625253118671S11706493EA0258202759000000000000
B0625293118747S11706519EA0259302764000000000000
B0625333118826S11706545EA0259902769000000000000
B0625373118912S11706573EA0259802767000000000000
B0625413119003S11706603EA0260302776000000000000
B0625453119094S11706636EA0261402789000000000000
B0625493119184S11706666EA0263502806000000000000
B0625533119272S11706694EA0265202831000000000000
B0625573119354S11706720EA0267102840000000000000
B0626013119438S11706747EA0266702830000000000000
B0626053119529S11706779EA0264902807000000000000
B0626093119631S11706811EA0262502784000000000000
B0626133119741S11706848EA0260402769000000000000
B0626173119856S11706885EA0259202757000000000000
B0626213119975S11706926EA0257502736000000015000
B0626253120097S11706972EA0254702711000000000000
B0626293120217S11707020EA0253402702000000000000
B0626333120334S11707067EA0252602689000000000000
B0626373120448S11707114EA0251802683000000000000
B0626413120562S11707161EA0251502680000000000000
B0626453120672S11707209EA0251902673000000000000
B0626493120785S11707257EA0250602653000000000000
B0626533120900S11707304EA0249102647000000000000
B0626573121011S11707347EA0249202648000000000000
B0627013121122S11707386EA0249302648000000000000
B0627053121230S11707422EA0248802641000000000000
B0627093121339S11707461EA0247402621000000000000
B0627133121449S11707505EA0245002597000000000000
B0627173121560S11707551EA0243402581000000000000
B0627213121668S11707599EA0242902574000000000000
B0627253121774S11707650EA0242002567000000000000
B0627293121880S11707700EA0241902575000000015000
B0627333121975S11707742EA0244502597000000015000
B0627373122070S11707784EA0243202569000000000000
B0627413122176S11707829EA0240302549000000000000
B0627453122285S11707873EA0238802532000000000000
B0627493122396S11707917EA0237502523000000000000
B0627533122508S11707962EA0236902513000000000000
B0627573122619S11708006EA0235702503000000000000
B0628013122731S11708047EA0235002495000000000000
B0628053122846S11708092EA0234502488000000000000
B0628093122960S11708132EA0233502480000000000000
B0628133123069S11708168EA0234802500000000000000
B0628173123175S11708203EA0234502495000000000000
B0628213123280S11708241EA0233402478000000000000
B0628253123389S11708280EA0231202457000000000000
B0628293123498S11708320EA0229802443000000000000
B0628333123606S11708361EA0228402431000000000000
B0628373123711S11708405EA0227402419000000000000
B0628413123817S11708452EA0225702402000000000000
B0628453123922S11708499EA0224102385000000000000
B0628493124030S11708541EA0222502368000000000000
B0628533124140S11708574EA0221102351000000000000
B0628573124252S11708593EA0220202346000000000000
B0629013124361S11708617EA0220102345000000000000
B0629053124467S11708644EA0219602334000000000000
B0629093124575S11708677EA0218202318000000000000
B0629133124685S11708714EA0216602301000000000000
B0629173124796S11708752EA0215202289000000000000
B0629213124906S11708791EA0214102275000000000000
B0629253125017S11708835EA0212402258000000000000
B0629293125130S11708879EA0210702238000000000000
B0629333125245S11708926EA0208702220000000000000
B0629373125360S11708972EA0207802203000000000000
B0629413125476S11709019EA0206402183000000000000
B0629453125593S11709065EA0204102155000000000000
B0629493125715S11709113EA0201902137000000000000
B0629533125837S11709159EA0200602120000000000000
B0629573125962S11709203EA0197502093000000000000
B0630013126089S11709241EA0196602085000000000000
B0630053126213S11709272EA0196302079000000000000
B0630093126336S11709292EA0196302081000000000000
B0630133126454S11709301EA0196002072000000000000
B0630173126578S11709305EA0193502038000000015000
B0630213126705S11709315EA0191302033000000000000
B0630253126828S11709327EA0191502034000000000000
B0630293126946S11709344EA0192002048000000000000
B0630333127056S11709367EA0193402056000000000000
B0630373127164S11709390EA0193602056000000000000
B0630413127270S11709412EA0193702058000000000000
B0630453127371S11709435EA0194302065000000000000
B0630493127465S11709454EA0195702080000000000000
B0630533127556S11709474EA0195802075000000000000
B0630573127649S11709496EA0194702058000000000000
B0631013127749S11709522EA0193102043000000000000
B0631053127849S11709550EA0191702031000000000000
B0631093127949S11709580EA0191302028000000000000
B0631133128050S11709607EA0191002026000000000000
B0631173128150S11709631EA0190702021000000000000
B0631213128252S11709656EA0190602027000000000000
B0631253128345S11709678EA0193402063000000000000
B0631293128427S11709698EA0195902075000000000000
B0631333128508S11709719EA0195102062000000000000
B0631373128601S11709744EA0193402043000000000000
B0631413128700S11709774EA0191102020000000000000
B0631453128801S11709805EA0190402021000000000000
B0631493128902S11709836EA0190402019000000000000
B0631533128999S11709864EA0192402053000000000000
B0631573129086S11709882EA0196302084000000000000
B0632013129151S11709847EA0198702108000000000000
B0632053129126S11709787EA0199502119000000000000
B0632093129064S11709819EA0201002137000000000000
B0632133129041S11709899EA0202202147000000000000
B0632173129084S11709962EA0203402164000000000000
B0632213129147S11709957EA0204902180000000000000
B0632253129168S11709901EA0206002185000000000000
B0632293129123S11709866EA0205902184000000000000
B0632333129071S11709914EA0206702198000000000000
B0632373129071S11709996EA0207902210000000000000
B0632413129117S11710060EA0208702223000000000000
B0632453129174S11710046EA0209602230000000000000
B0632493129175S11709983EA0209902230000000000000
B0632533129122S11709982EA0209202217000000015000
B0632573129152S11710065EA0206402224000000015000
B0633013129231S11710107EA0207402233000000015000
B0633053129320S11710142EA0206102209000000000000
B0633093129421S11710177EA0203502184000000000000
B0633133129526S11710212EA0202102170000000000000
B0633173129634S11710246EA0201502161000000000000
B0633213129742S11710277EA0201402162000000000000
B0633253129847S11710307EA0201502159000000000000
B0633293129951S11710335EA0201302153000000000000
B0633333130055S11710367EA0199702131000000000000
B0633373130167S11710397EA0197802108000000000000
B0633413130280S11710430EA0196502100000000000000
B0633453130391S11710462EA0196602105000000000000
B0633493130500S11710494EA0196802101000000000000
B0633533130609S11710525EA0195902090000000000000
B0633573130718S11710554EA0195002083000000000000
B0634013130826S11710577EA0194802079000000000000
B0634053130932S11710602EA0194102067000000000000
B0634093131040S11710628EA0192802048000000000000
B0634133131147S11710655EA0191402037000000000000
B0634173131254S11710684EA0190202020000000000000
B0634213131362S11710714EA0188502002000000000000
B0634253131470S11710746EA0186701985000000000000
B0634293131575S11710779EA0185601974000000000000
B0634333131678S11710814EA0184501961000000000000
B0634373131781S11710850EA0183101946000000000000
B0634413131882S11710888EA0182001936000000000000
B0634453131983S11710923EA0180901919000000000000
B0634493132085S11710959EA0180001915000000000000
B0634533132186S11710987EA0179201900000000000000
B0634573132293S11711018EA0176901873000000000000
B0635013132406S11711054EA0174201849000000000000
B0635053132516S11711088EA0173301843000000000000
B0635093132623S11711122EA0172401832000000000000
B0635133132730S11711156EA0172001827000000000000
B0635173132834S11711187EA0170701812000000000000
B0635213132941S11711217EA0169501798000000000000
B0635253133048S11711252EA0168101784000000000000
B0635293133153S11711287EA0166701765000000000000
B0635333133259S11711325EA0164901746000000000000
B0635373133363S11711355EA0165901771000000015000
B0635413133447S11711374EA0170901820000000015000
B0635453133510S11711366EA0175001856000000015000
B0635493133525S11711321EA0176101860000000015000
B0635533133476S11711300EA0176201865000000015000
B0635573133421S11711346EA0177601885000000000000
B0636013133419S11711427EA0180001911000000000000
B0636053133469S11711479EA0181101918000000000000
B0636093133521S11711461EA0182101929000000000000
B0636133133512S11711414EA0182701936000000000000
B0636173133456S11711421EA0183801950000000000000
B0636213133425S11711494EA0185101961000000000000
B0636253133454S11711577EA0186301978000000000000
B0636293133513S11711587EA0187501993000000000000
B0636333133525S11711541EA0188702006000000015000
B0636373133476S11711525EA0189602016000000015000
B0636413133435S11711593EA0190402025000000015000
B0636453133465S11711677EA0191502042000000015000
B0636493133529S11711708EA0193102055000000015000
B0636533133573S11711674EA0193902064000000015000
B0636573133555S11711625EA0195102075000000000000
B0637013133495S11711628EA0195902084000000000000
B0637053133461S11711703EA0197402100000000000000
B0637093133490S11711782EA0198302109000000000000
B0637133133550S11711801EA0199202116000000000000
B0637173133569S11711754EA0199702124000000000000
B0637213133521S11711725EA0200702134000000000000
B0637253133471S11711778EA0201802150000000000000
B0637293133480S11711859EA0203302162000000000000
B0637333133538S11711905EA0203302163000000000000
B0637373133610S11711923EA0203602168000000000000
B0637413133659S11711893EA0204902187000000000000
B0637453133643S11711841EA0206002193000000000000
B0637493133586S11711816EA0206202196000000000000
B0637533133521S11711843EA0207402210000000000000
B0637573133486S11711923EA0208202215000000000000
B0638013133497S11712018EA0208302215000000000000
B0638053133551S11712089EA0207402208000000000000
B0638093133634S11712120EA0206602204000000000000
B0638133133725S11712141EA0206002196000000000000
B0638173133827S11712159EA0204802175000000000000
B0638213133937S11712176EA0202902170000000000000
B0638253134049S11712189EA0203502179000000000000
B0638293134154S11712204EA0204202179000000000000
B0638333134261S11712215EA0204002175000000000000
B0638373134364S11712230EA0205502205000000000000
B0638413134449S11712245EA0210002249000000000000
B0638453134511S11712224EA0213302275000000000000
B0638493134490S11712174EA0214502279000000000000
B0638533134427S11712204EA0215302295000000000000
B0638573134408S11712287EA0217302313000000000000
B0639013134447S11712362EA0218102320000000000000
B0639053134512S11712374EA0218902330000000000000
B0639093134542S11712326EA0220102343000000000000
B0639133134504S11712293EA0221402354000000000000
B0639173134456S11712345EA0222102362000000000000
B0639213134461S11712436EA0223702380000000000000
B0639253134517S11712495EA0224602388000000000000
B0639293134581S11712480EA0225202396000000000000
B0639333134589S11712425EA0226602408000000000000
B0639373134534S11712423EA0226902414000000000000
B0639413134501S11712501EA0227402426000000000000
B0639453134518S11712595EA0228602436000000000000
B0639493134582S11712651EA0229202445000000000000
B0639533134661S11712668EA0229402440000000000000
B0639573134751S11712670EA0227602414000000000000
B0640013134852S11712669EA0223602376000000000000
B0640053134964S11712665EA0220502348000000000000
B0640093135083S11712661EA0217902322000000000000
B0640133135203S11712657EA0216202305000000000000
B0640173135324S11712651EA0214502286000000000000
B0640213135443S11712644EA0214002287000000015000
B0640253135553S11712642EA0215302305000000015000
B0640293135658S11712643EA0216602312000000000000
B0640333135760S11712647EA0216402314000000000000
B0640373135857S11712646EA0216902315000000000000
B0640413135956S11712644EA0217202320000000000000
B0640453136052S11712647EA0218402338000000000000
B0640493136145S11712655EA0220402352000000000000
B0640533136237S11712662EA0220502350000000000000
B0640573136331S11712675EA0220802359000000000000
B0641013136422S11712692EA0222102369000000000000
B0641053136513S11712709EA0222102365000000000000
B0641093136610S11712729EA0221602367000000000000
B0641133136710S11712752EA0222602382000000000000
B0641173136806S11712774EA0223802389000000000000
B0641213136901S11712796EA0223602383000000000000
B0641253137000S11712817EA0222702374000000000000
B0641293137100S11712844EA0222102368000000000000
B0641333137204S11712876EA0221502361000000000000
B0641373137309S11712908EA0220702354000000000000
B0641413137415S11712939EA0220002345000000000000
B0641453137520S11712971EA0219102337000000000000
B0641493137621S11713012EA0219002333000000000000
B0641533137676S11713107EA0219602344000000000000
B0641573137664S11713214EA0219502329000000000000
B0642013137612S11713305EA0216602291000000000000
B0642053137534S11713377EA0212402254000000000000
B0642093137446S11713444EA0209802232000000000000
B0642133137356S11713506EA0208002218000000000000
B0642173137269S11713570EA0207202208000000000000
B0642213137182S11713636EA0206602204000000000000
B0642253137095S11713701EA0207102215000000000000
B0642293137013S11713765EA0207402206000000000000
B0642333136929S11713832EA0205802190000000000000
B0642373136840S11713899EA0204202176000000000000
B0642413136752S11713962EA0203902173000000000000
B0642453136665S11714022EA0203302166000000000000
