ACAM4N6
HFDTE190221
HFFXA050
HFPLTPILOT:JOHN WELSH              
HFGTYGLIDERTYPE:HORNET      
HFGIDGLIDERID:VH-GMY      
HFDTM100GPSDATUM:
HFRFWFIRMWAREVERSION:F2.6
HFRHWHARDWAREVERSION:300 Series Version 2
HFFTYFRTYPE:CAMBRIDGE AERO INSTRUMENTS, 302+
HFGPS:GARMIN,LVS-25,12,18000
HFPRSPRESSALTSENSOR:INTERSEMA, MS5534-AP, 20000
I033638FXA3941ENL4247REX
LCAMSBVER:5FWVER:F26300
C190221041709190221000102
C0000000N00000000WTAKEOFF     
C3207549S11656849EBEVAIR      
C3148699S11740032EBevNE1      
C3100782S11706665EEjanding    
C3207549S11656849EBEVAIR      
C0000000N00000000WLANDING     
B0429233207336S11656858EA0017500206000004000000
B0429253207336S11656858EA0017400206000004000000
B0429273207336S11656858EA0017400206000004000000
B0429293207336S11656858EA0017500206000004000000
B0429313207336S11656858EA0017500206000000000000
B0429333207336S11656858EA0017400206000004000000
B0429353207336S11656858EA0017500206000000000000
B0429373207336S11656858EA0017500206000004000000
B0429393207336S11656858EA0017400206000004000000
B0429413207336S11656858EA0017400206000004000000
B0429433207336S11656858EA0017500206000000000000
B0429453207336S11656858EA0017500206000004000000
B0429473207336S11656858EA0017500206000004000000
B0429493207337S11656858EA0017500206000004000000
B0429513207338S11656860EA0017500206000004000000
B0429523207341S11656861EA0017500206000004000000
B0429563207360S11656877EA0017500206000000000000
B0430003207395S11656903EA0017600206000000000000
B0430043207445S11656934EA0017700206000000000000
B0430083207505S11656968EA0018000209000004000000
B0430123207566S11657009EA0018800220000004000000
B0430163207627S11657051EA0020300237000000000000
B0430203207689S11657090EA0021500255000000000000
B0430243207752S11657129EA0023400278000000000000
B0430283207814S11657164EA0025100291000000000000
B0430323207874S11657195EA0027000317000000000000
B0430363207936S11657221EA0029500340000000000000
B0430403207999S11657246EA0031700363000000000000
B0430443208060S11657270EA0034200389000004000000
B0430483208123S11657286EA0036400407000004000000
B0430523208188S11657283EA0037400417000004000000
B0430563208247S11657256EA0039100439000004000000
B0431003208300S11657212EA0041600464000004000000
B0431043208356S11657166EA0044100491000000000000
B0431083208416S11657124EA0046800514000000000000
B0431123208473S11657068EA0048800534000000000000
B0431163208526S11657007EA0051000558000004000000
B0431203208569S11656940EA0053600586000000000000
B0431243208597S11656860EA0056000607000000000000
B0431283208594S11656767EA0057200615000000000000
B0431323208560S11656678EA0058000624000000000000
B0431363208503S11656613EA0059600642000000000000
B0431403208429S11656581EA0060900651000004000000
B0431443208350S11656585EA0061500656000000000000
B0431483208283S11656631EA0062400665000004000000
B0431523208235S11656695EA0063200680000004000000
B0431563208207S11656771EA0064700693000000000000
B0432003208199S11656851EA0066100708000000000000
B0432043208204S11656926EA0068100734000000000000
B0432083208214S11656997EA0070900763000004000000
B0432123208231S11657069EA0074100795000000000000
B0432163208248S11657139EA0076800814000000000000
B0432203208294S11657169EA0077200812000000000000
B0432243208337S11657130EA0077300815000000000000
B0432283208338S11657064EA0076900806000004000000
B0432323208307S11657000EA0076000796000000000000
B0432363208273S11656935EA0074900786000000000000
B0432403208240S11656864EA0073700773000000000000
B0432443208210S11656787EA0072800761000000000000
B0432483208179S11656708EA0071600751000000000000
B0432523208145S11656632EA0070800744000004000000
B0432563208113S11656558EA0070000736000004000000
B0433003208083S11656484EA0069500734000004000000
B0433043208057S11656414EA0069700736000004000000
B0433083208030S11656345EA0069700735000004000000
B0433123207991S11656284EA0070600748000004000000
B0433163207943S11656307EA0072200764000000000000
B0433203207965S11656358EA0073100770000000000000
B0433243208015S11656340EA0073600776000000000000
B0433283208012S11656267EA0074100786000000000000
B0433323207960S11656250EA0075500799000000000000
B0433363207934S11656299EA0076800814000004000000
B0433403207966S11656334EA0078200825000000000000
B0433443208014S11656310EA0078800829000000000000
B0433483208021S11656243EA0079300835000000000000
B0433523207979S11656197EA0080100844000000000000
B0433563207927S11656214EA0080400841000000000000
B0434003207926S11656279EA0080500851000000000000
B0434043207973S11656303EA0082200869000000000000
B0434083208006S11656249EA0083100873000004000000
B0434123207971S11656189EA0083200875000000000000
B0434163207917S11656208EA0084000885000000000000
B0434203207914S11656269EA0085200895000000000000
B0434243207963S11656289EA0086200909000000015000
B0434283207999S11656242EA0087300919000000015000
B0434323207989S11656173EA0087600916000000015000
B0434363207937S11656134EA0087500923000000015000
B0434403207880S11656145EA0088500934000000000000
B0434443207869S11656199EA0089900948000000000000
B0434483207913S11656217EA0091300958000000000000
B0434523207941S11656160EA0091700957000000000000
B0434563207909S11656094EA0092100968000000000000
B0435003207852S11656103EA0093000973000004000000
B0435043207853S11656169EA0093700982000004000000
B0435083207908S11656175EA0095101003000000000000
B0435123207926S11656113EA0096801013000004000000
B0435163207880S11656067EA0097101013000004000000
B0435203207840S11656108EA0097801025000004000000
B0435243207874S11656156EA0098901036000004000000
B0435283207921S11656125EA0100501054000000000000
B0435323207911S11656056EA0101201053000000000000
B0435363207857S11656046EA0101701064000000000000
B0435403207846S11656102EA0103001079000000000000
B0435443207891S11656128EA0104101089000000000000
B0435483207928S11656078EA0105001098000004000000
B0435523207904S11656017EA0105701104000004000000
B0435563207853S11656029EA0106401110000004000000
B0436003207862S11656084EA0107101117000004000000
B0436043207919S11656072EA0107101116000004000000
B0436083207932S11656003EA0108301134000004000000
B0436123207885S11655963EA0108801134000000000000
B0436163207836S11655995EA0108901136000000000000
B0436203207844S11656056EA0109901151000000000000
B0436243207898S11656052EA0110801159000000000000
B0436283207917S11655986EA0111701167000000000000
B0436323207871S11655943EA0112001168000000000000
B0436363207823S11655970EA0112501172000000000000
B0436403207813S11656033EA0112901179000004000000
B0436443207853S11656071EA0114401196000000000000
B0436483207902S11656038EA0115601207000000000000
B0436523207901S11655970EA0115901206000000000000
B0436563207849S11655938EA0115801206000000000000
B0437003207802S11655972EA0115801204000000000000
B0437043207794S11656039EA0115901210000000000000
B0437083207837S11656080EA0117101227000004000000
B0437123207882S11656039EA0118501239000000000000
B0437163207867S11655972EA0119401244000000000000
B0437203207814S11655948EA0119601245000004000000
B0437243207770S11655987EA0119901247000004000000
B0437283207775S11656048EA0120501258000004000000
B0437323207826S11656067EA0121901271000004000000
B0437363207862S11656016EA0122501273000004000000
B0437403207840S11655950EA0122901281000004000000
B0437443207785S11655938EA0123401283000000000000
B0437483207752S11655986EA0123601286000004000000
B0437523207768S11656048EA0124201295000000000000
B0437563207823S11656064EA0125101305000004000000
B0438003207863S11656013EA0125401301000000000000
B0438043207849S11655939EA0125301304000004000000
B0438083207793S11655915EA0126101311000000000000
B0438123207745S11655952EA0126801320000000000000
B0438163207752S11656016EA0127701329000004000000
B0438203207804S11656039EA0128401339000004000000
B0438243207852S11656006EA0129201342000004000000
B0438283207866S11655938EA0128901337000004000000
B0438323207839S11655870EA0128701339000004000000
B0438363207785S11655837EA0128701337000000000000
B0438403207728S11655860EA0128401336000000000000
B0438443207694S11655920EA0128801343000000000000
B0438483207681S11655990EA0129401347000000000000
B0438523207709S11656055EA0129401344000000000000
B0438563207762S11656067EA0129701351000000000000
B0439003207789S11656008EA0129501340000000000000
B0439043207754S11655944EA0128801338000004000000
B0439083207687S11655928EA0129101343000000000000
B0439123207649S11655983EA0130001353000004000000
B0439163207675S11656039EA0130801355000004000000
B0439203207729S11656039EA0130201349000004000000
B0439243207752S11655976EA0130001350000004000000
B0439283207720S11655905EA0130101352000004015000
B0439323207657S11655874EA0130401356000004000000
B0439363207606S11655916EA0130701355000000000000
B0439403207627S11655976EA0130701358000000000000
B0439443207685S11655976EA0130501353000004000000
B0439483207714S11655908EA0130801361000000000000
B0439523207676S11655843EA0131501372000000000000
B0439563207618S11655853EA0132701376000004000000
B0440003207623S11655909EA0132701377000000000000
B0440043207671S11655899EA0132601376000000000000
B0440083207677S11655829EA0132501377000000000000
B0440123207633S11655773EA0132901383000000000000
B0440163207580S11655786EA0133601389000000000000
B0440203207581S11655839EA0134201391000000000000
B0440243207629S11655838EA0133801388000004000000
B0440283207638S11655772EA0134201394000004000000
B0440323207588S11655738EA0134301391000004000000
B0440363207544S11655779EA0134001390000004000000
B0440403207547S11655838EA0134701400000000000000
B0440443207590S11655861EA0134801398000000000000
B0440483207633S11655825EA0135101404000000000000
B0440523207629S11655756EA0135201402000000000000
B0440563207579S11655714EA0135401406000000000000
B0441003207524S11655736EA0135801410000000000000
B0441043207511S11655796EA0136201413000000000000
B0441083207550S11655829EA0136501415000000000000
B0441123207594S11655796EA0136401414000000000000
B0441163207596S11655725EA0136301415000000000000
B0441203207554S11655671EA0137201426000000000000
B0441243207497S11655665EA0137301424000000000000
B0441283207468S11655714EA0137101419000000000000
B0441323207497S11655762EA0137001423000000000000
B0441363207547S11655766EA0137501430000000000000
B0441403207575S11655713EA0138001435000000000000
B0441443207542S11655655EA0138301436000000000000
B0441483207481S11655643EA0138301433000000000000
B0441523207441S11655687EA0138401436000000000000
B0441563207458S11655743EA0138401434000000000000
B0442003207506S11655759EA0138401438000000000000
B0442043207547S11655718EA0138701440000000000000
B0442083207554S11655652EA0138901444000000000000
B0442123207508S11655606EA0139201445000000000000
B0442163207454S11655621EA0139301441000000000000
B0442203207441S11655675EA0139001442000004000000
B0442243207473S11655710EA0139501445000004000000
B0442283207523S11655707EA0139501444000004000000
B0442323207546S11655648EA0139301443000004000000
B0442363207506S11655591EA0139001441000000000000
B0442403207445S11655599EA0139401447000004000000
B0442443207423S11655651EA0140101457000004000000
B0442483207458S11655684EA0140801455000004000000
B0442523207503S11655651EA0140301455000004000000
B0442563207502S11655580EA0140701458000000000000
B0443003207453S11655536EA0140701454000000000000
B0443043207394S11655552EA0140501455000000000000
B0443083207377S11655608EA0140901461000000000000
B0443123207403S11655657EA0140701451000000000000
B0443163207459S11655652EA0139801450000004000000
B0443203207473S11655590EA0140201453000004000000
B0443243207420S11655558EA0139601446000004000000
B0443283207382S11655605EA0140101455000004000000
B0443323207382S11655668EA0139901448000004000000
B0443363207395S11655733EA0138801436000004000000
B0443403207414S11655801EA0137601425000004000000
B0443443207438S11655872EA0136501415000000000000
B0443483207466S11655942EA0135601405000000000000
B0443523207495S11656013EA0134801399000000000000
B0443563207524S11656084EA0134301395000000000000
B0444003207551S11656155EA0133801391000000000000
B0444043207576S11656227EA0133501388000000000000
B0444083207593S11656301EA0133201385000000000000
B0444123207601S11656373EA0133101385000000000000
B0444163207599S11656446EA0132801382000000000000
B0444203207589S11656518EA0132701380000000000000
B0444243207577S11656588EA0132401378000000000000
B0444283207567S11656658EA0132201375000000000000
B0444323207554S11656727EA0131801371000000000000
B0444363207534S11656793EA0131601370000000000000
B0444403207508S11656856EA0131301364000000000000
B0444443207476S11656916EA0130901361000000000000
B0444483207442S11656974EA0130301356000000000000
B0444523207403S11657030EA0129801351000000000000
B0444563207356S11657079EA0129501345000004000000
B0445003207304S11657124EA0129001340000000000000
B0445043207248S11657163EA0128601338000004000000
B0445083207193S11657200EA0128501336000004000000
B0445123207135S11657238EA0128501337000000000000
B0445163207078S11657273EA0128601338000000000000
B0445203207020S11657303EA0128701336000004000000
B0445243206959S11657330EA0128201329000000000000
B0445283206896S11657359EA0127101319000004000000
B0445323206831S11657391EA0126301311000004000000
B0445363206766S11657424EA0125701305000000000000
B0445403206705S11657469EA0124601292000000000000
B0445443206658S11657533EA0123601285000000000000
B0445483206621S11657602EA0123501284000000000000
B0445523206591S11657675EA0123301283000000000000
B0445563206561S11657750EA0123001278000000000000
B0446003206531S11657827EA0122401274000004000000
B0446043206501S11657906EA0121901268000004000000
B0446083206471S11657985EA0122301275000000000000
B0446123206442S11658065EA0122501272000004000000
B0446163206423S11658141EA0121701262000004000000
B0446203206406S11658218EA0120301248000000000000
B0446243206377S11658288EA0119601243000000000000
B0446283206342S11658349EA0119201240000004000000
B0446323206303S11658408EA0118801234000004000000
B0446363206260S11658460EA0118201227000004000000
B0446403206215S11658511EA0117001213000004000000
B0446443206163S11658559EA0116101206000004000000
B0446483206107S11658607EA0115001193000000000000
B0446523206047S11658655EA0114101188000000000000
B0446563205985S11658704EA0113901184000000000000
B0447003205939S11658776EA0113701186000000000000
B0447043205909S11658855EA0113901189000000000000
B0447083205883S11658936EA0114701200000000000000
B0447123205883S11659011EA0116501221000000000000
B0447163205937S11659020EA0117801225000000000000
B0447203205951S11658949EA0118401238000004000000
B0447243205896S11658907EA0119701250000000000000
B0447283205844S11658945EA0121301268000000000000
B0447323205843S11659003EA0122701276000000000000
B0447363205889S11659024EA0122701275000000000000
B0447403205924S11658976EA0123001285000000000000
B0447443205906S11658907EA0124301298000000015000
B0447483205851S11658885EA0125701311000004015000
B0447523205824S11658941EA0126501315000004015000
B0447563205857S11658985EA0127001321000004015000
B0448003205903S11658946EA0127501328000004000000
B0448043205887S11658873EA0128401345000004015000
B0448083205826S11658855EA0129801354000004015000
B0448123205790S11658912EA0130501356000004015000
B0448163205818S11658967EA0130701360000004015000
B0448203205870S11658936EA0131401371000004015000
B0448243205847S11658866EA0132801388000000015000
B0448283205790S11658882EA0133801392000004015000
B0448323205804S11658940EA0134001394000004015000
B0448363205856S11658921EA0134601405000004015000
B0448403205854S11658850EA0135401411000004015000
B0448443205791S11658829EA0136301421000000030000
B0448483205757S11658881EA0136701423000004030000
B0448523205789S11658929EA0137001429000000015000
B0448563205839S11658906EA0138201441000000015000
B0449003205842S11658836EA0138701445000000015000
B0449043205786S11658802EA0139601456000000015000
B0449083205739S11658834EA0140501463000000015000
B0449123205756S11658880EA0141001463000000015000
B0449163205805S11658853EA0140701460000004015000
B0449203205790S11658775EA0141001471000004015000
B0449243205730S11658737EA0141801473000000015000
B0449283205666S11658764EA0141001456000000015000
B0449323205620S11658832EA0139601446000000015000
B0449363205584S11658915EA0138201432000000015000
B0449403205548S11659003EA0137101424000000000000
B0449443205509S11659088EA0136501419000000000000
B0449483205467S11659171EA0135701408000000000000
B0449523205418S11659253EA0134601397000000000000
B0449563205366S11659331EA0133901394000000000000
B0450003205319S11659410EA0133601390000000000000
B0450043205276S11659493EA0132801376000004000000
B0450083205233S11659577EA0131401366000004000000
B0450123205192S11659659EA0130601358000004000000
B0450163205150S11659740EA0129701349000004000000
B0450203205113S11659821EA0129001345000000000000
B0450243205079S11659903EA0128701339000000000000
B0450283205045S11659986EA0127901331000000000000
B0450323205009S11700069EA0127201323000000000000
B0450363204968S11700155EA0126101307000004000000
B0450403204929S11700242EA0124601293000000000000
B0450443204892S11700331EA0123001275000004000000
B0450483204856S11700420EA0121401263000004000000
B0450523204821S11700506EA0120801256000004000000
B0450563204780S11700589EA0120101250000004000000
B0451003204734S11700670EA0119001237000000000000
B0451043204690S11700752EA0117601226000000000000
B0451083204647S11700832EA0117101222000000000000
B0451123204608S11700910EA0117301223000000000000
B0451163204569S11700988EA0116401209000000000000
B0451203204525S11701066EA0115501205000000000000
B0451243204491S11701146EA0116401221000000000000
B0451283204490S11701228EA0118101230000000000000
B0451323204503S11701307EA0118101229000000000000
B0451363204521S11701384EA0117601219000000000000
B0451403204517S11701472EA0115701199000004000000
B0451443204494S11701560EA0114101188000000000000
B0451483204459S11701645EA0113101177000004000000
B0451523204417S11701728EA0111901164000004000000
B0451563204373S11701810EA0110701153000004000000
B0452003204327S11701891EA0109901145000004000000
B0452043204284S11701973EA0108801135000000000000
B0452083204245S11702057EA0108001126000000000000
B0452123204208S11702143EA0107101118000000000000
B0452163204174S11702229EA0106401112000000000000
B0452203204140S11702313EA0105801106000000000000
B0452243204108S11702398EA0105401102000000000000
B0452283204074S11702480EA0104701094000000000000
B0452323204039S11702563EA0104101087000000000000
B0452363204008S11702646EA0103401080000000000000
B0452403203978S11702728EA0103001075000000000000
B0452443203945S11702806EA0102101067000000000000
B0452483203910S11702881EA0101301058000000000000
B0452523203874S11702957EA0100501051000004000000
B0452563203836S11703031EA0099901045000004000000
B0453003203797S11703107EA0098901032000000000000
B0453043203758S11703184EA0097701020000004000000
B0453083203715S11703257EA0097101018000004000000
B0453123203673S11703328EA0097001017000000000000
B0453163203633S11703399EA0096701012000000000000
B0453203203598S11703473EA0096201008000000000000
B0453243203569S11703548EA0096501013000000000000
B0453283203560S11703625EA0096601014000000000000
B0453323203563S11703700EA0096601013000000000000
B0453363203577S11703774EA0096401009000000000000
B0453403203599S11703846EA0095801004000000000000
B0453443203633S11703907EA0095401000000000000000
B0453483203670S11703965EA0094700989000004000000
B0453523203689S11704042EA0093500977000004000000
B0453563203685S11704127EA0092800975000000000000
B0454003203662S11704210EA0092800973000000000000
B0454043203625S11704289EA0092100966000000000000
B0454083203585S11704365EA0091300957000000000000
B0454123203542S11704439EA0090200946000000000000
B0454163203497S11704509EA0089000935000000000000
B0454203203455S11704580EA0088700935000000000000
B0454243203420S11704648EA0088800931000004000000
B0454283203387S11704718EA0087800917000004000000
B0454323203374S11704794EA0087400922000004000000
B0454363203394S11704864EA0087800921000000000000
B0454403203417S11704937EA0087400915000000000000
B0454443203420S11705018EA0086600907000004000000
B0454483203410S11705098EA0086100904000004000000
B0454523203424S11705171EA0085700899000004000000
B0454563203451S11705238EA0085200896000000000000
B0455003203480S11705303EA0084600889000000000000
B0455043203514S11705368EA0083700878000000000000
B0455083203524S11705450EA0082900871000000000000
B0455123203517S11705535EA0083200879000000000000
B0455163203562S11705579EA0084500896000000000000
B0455203203598S11705511EA0085400903000000000000
B0455243203545S11705460EA0086800922000000000000
B0455283203499S11705507EA0087900928000000015000
B0455323203541S11705542EA0088800937000000015000
B0455363203580S11705485EA0089400948000004015000
B0455403203540S11705421EA0090600956000004015000
B0455443203472S11705441EA0090900958000004015000
B0455483203468S11705506EA0091600971000000015000
B0455523203520S11705515EA0093100984000004015000
B0455563203549S11705454EA0094000993000004015000
B0456003203504S11705402EA0094600991000004015000
B0456043203445S11705436EA0094000988000004015000
B0456083203445S11705499EA0095101006000004015000
B0456123203494S11705510EA0096201012000000015000
B0456163203507S11705442EA0096801017000000015000
B0456203203451S11705415EA0097401020000000015000
B0456243203429S11705468EA0097501024000000015000
B0456283203472S11705494EA0098701038000000015000
B0456323203506S11705441EA0099301043000000015000
B0456363203478S11705377EA0100301055000000015000
B0456403203423S11705368EA0101001053000004015000
B0456443203390S11705420EA0100501052000000015000
B0456483203403S11705485EA0101001057000000015000
B0456523203458S11705497EA0101601068000000015000
B0456563203484S11705432EA0102601080000000015000
B0457003203443S11705369EA0103701085000000015000
B0457043203376S11705360EA0103401081000000015000
B0457083203338S11705416EA0103801092000004015000
B0457123203363S11705476EA0104501093000004015000
B0457163203420S11705502EA0104601096000004015000
B0457203203462S11705451EA0105701115000004015000
B0457243203437S11705388EA0107501128000004015000
B0457283203373S11705369EA0107401115000004015000
B0457323203326S11705418EA0107201125000004015000
B0457363203339S11705480EA0107901129000004015000
B0457403203387S11705519EA0107801129000004015000
B0457443203439S11705489EA0108401138000004015000
B0457483203451S11705416EA0109101144000000015000
B0457523203423S11705343EA0109801149000000015000
B0457563203355S11705319EA0109801150000000015000
B0458003203307S11705360EA0110301159000000015000
B0458043203312S11705420EA0111201161000000015000
B0458083203351S11705459EA0111001158000000015000
B0458123203406S11705442EA0110601156000000015000
B0458163203442S11705386EA0111001165000000015000
B0458203203410S11705319EA0112301175000000015000
B0458243203341S11705302EA0112201169000000015000
B0458283203265S11705301EA0111801168000004015000
B0458323203194S11705320EA0112001170000004015000
B0458363203142S11705375EA0112801178000004015000
B0458403203139S11705444EA0113201178000004015000
B0458443203150S11705518EA0111801156000004015000
B0458483203146S11705605EA0110201145000004000000
B0458523203129S11705696EA0109201134000000000000
B0458563203111S11705787EA0108101125000000000000
B0459003203091S11705875EA0107501121000000000000
B0459043203074S11705962EA0106801112000004000000
B0459083203056S11706048EA0105401098000000000000
B0459123203038S11706134EA0104201086000000000000
B0459163203021S11706218EA0103201076000000000000
B0459203203003S11706302EA0102401071000000000000
B0459243202983S11706382EA0102001063000000000000
B0459283202962S11706463EA0101001053000000000000
B0459323202939S11706542EA0100001043000000000000
B0459363202916S11706621EA0098701029000000000000
B0459403202895S11706702EA0097501018000004000000
B0459443202873S11706784EA0097201019000004000000
B0459483202860S11706863EA0098201031000000000000
B0459523202893S11706923EA0099401044000000000000
B0459563202952S11706919EA0100601054000004000000
B0500003202990S11706854EA0100801054000004000000
B0500043203000S11706771EA0101001057000004015000
B0500083202962S11706701EA0100801051000004015000
B0500123202895S11706690EA0100501050000004015000
B0500163202843S11706737EA0100001046000004015000
B0500203202809S11706806EA0099901046000000015000
B0500243202779S11706877EA0100101050000000015000
B0500283202770S11706950EA0101601069000000015000
B0500323202822S11706959EA0104001092000000015000
B0500363202839S11706890EA0104201086000004015000
B0500403202788S11706845EA0104301094000004030000
B0500443202735S11706874EA0105201103000000030000
B0500483202737S11706935EA0105901111000000015000
B0500523202793S11706944EA0106601115000000015000
B0500563202827S11706877EA0107001117000000015000
B0501003202805S11706802EA0106901117000000030000
B0501043202749S11706763EA0107401125000000030000
B0501083202688S11706775EA0108201135000004030000
B0501123202680S11706828EA0109201140000004030000
B0501163202731S11706827EA0109201141000000030000
B0501203202740S11706754EA0110101157000004030000
B0501243202689S11706719EA0111301166000004030000
B0501283202653S11706760EA0112001170000004030000
B0501323202680S11706807EA0111801167000004015000
B0501363202739S11706807EA0112201178000004015000
B0501403202780S11706753EA0113201185000000015000
B0501443202762S11706680EA0113201179000000030000
B0501483202698S11706663EA0112801176000000030000
B0501523202659S11706716EA0112901186000000015000
B0501563202646S11706781EA0113701196000000015000
B0502003202663S11706841EA0114801205000000015000
B0502043202714S11706848EA0114901198000000015000
B0502083202732S11706776EA0113801189000000015000
B0502123202704S11706697EA0113501189000000015000
B0502163202658S11706627EA0114201200000000015000
B0502203202594S11706625EA0116001214000000015000
B0502243202598S11706680EA0116701217000000015000
B0502283202650S11706662EA0116701223000004015000
B0502323202654S11706588EA0117601234000004030000
B0502363202597S11706567EA0118601239000000030000
B0502403202587S11706627EA0118601236000000030000
B0502443202637S11706629EA0119101249000000030000
B0502483202641S11706563EA0120401259000000030000
B0502523202587S11706534EA0121401265000000045000
B0502563202545S11706576EA0121601269000004030000
B0503003202561S11706629EA0122201276000000015000
B0503043202609S11706633EA0122801283000000015000
B0503083202640S11706572EA0123101284000000015000
B0503123202605S11706511EA0124001295000000030000
B0503163202546S11706519EA0124901305000000030000
B0503203202527S11706577EA0125501310000000030000
B0503243202562S11706617EA0125801312000004015000
B0503283202613S11706585EA0126401320000000015000
B0503323202611S11706510EA0127401330000000030000
B0503363202557S11706473EA0128501340000000030000
B0503403202509S11706511EA0129101347000000030000
B0503443202513S11706573EA0129501352000000030000
B0503483202563S11706591EA0130201362000000015000
B0503523202605S11706543EA0131001370000004015000
B0503563202587S11706473EA0131601378000000030000
B0504003202528S11706477EA0132101371000004030000
B0504043202522S11706545EA0131701377000004030000
B0504083202576S11706542EA0132601385000004030000
B0504123202592S11706465EA0133201390000004030000
B0504163202548S11706408EA0134001398000000030000
B0504203202489S11706424EA0134501402000000030000
B0504243202472S11706490EA0134401404000004030000
B0504283202505S11706541EA0135401414000004015000
B0504323202561S11706530EA0135701417000004015000
B0504363202591S11706460EA0136101421000004015000
B0504403202563S11706389EA0136501426000004015000
B0504443202509S11706343EA0136701426000004015000
B0504483202449S11706359EA0136901434000000030000
B0504523202423S11706421EA0137401434000000015000
B0504563202423S11706494EA0137101432000000015000
B0505003202441S11706563EA0137301431000004015000
B0505043202467S11706630EA0136101413000000015000
B0505083202480S11706710EA0134501401000000015000
B0505123202471S11706790EA0133801396000000015000
B0505163202445S11706866EA0133101389000004000000
B0505203202405S11706935EA0132601384000004000000
B0505243202360S11707001EA0132101378000000000000
B0505283202318S11707071EA0131201370000000000000
B0505323202276S11707141EA0130901368000000000000
B0505363202236S11707212EA0130501362000000000000
B0505403202194S11707282EA0130001357000000000000
B0505443202155S11707352EA0129401349000000000000
B0505483202117S11707422EA0128601341000000000000
B0505523202082S11707494EA0127901333000000000000
B0505563202051S11707565EA0127101325000000000000
B0506003202024S11707638EA0126501318000000000000
B0506043201999S11707711EA0125701310000000000000
B0506083201976S11707785EA0125001304000000000000
B0506123201950S11707856EA0124101296000000000000
B0506163201921S11707927EA0123801292000004000000
B0506203201890S11707997EA0123001282000004000000
B0506243201857S11708067EA0122101273000004000000
B0506283201824S11708140EA0121801274000000000000
B0506323201801S11708213EA0122101276000000000000
B0506363201798S11708284EA0122001275000004000000
B0506403201803S11708357EA0121401266000000000000
B0506443201816S11708434EA0120801262000004000000
B0506483201831S11708513EA0120401258000000000000
B0506523201843S11708599EA0120101254000000000000
B0506563201846S11708686EA0119801253000004000000
B0507003201840S11708768EA0120401264000004000000
B0507043201837S11708843EA0121101264000004000000
B0507083201835S11708921EA0121001266000004000000
B0507123201830S11709000EA0121701277000004000000
B0507163201837S11709072EA0123001288000004000000
B0507203201890S11709077EA0124101300000004000000
B0507243201894S11709003EA0125101312000004015000
B0507283201842S11708959EA0126401326000000015000
B0507323201791S11708991EA0127801336000004015000
B0507363201805S11709050EA0128201338000000015000
B0507403201859S11709041EA0129001349000000015000
B0507443201866S11708970EA0130001361000000015000
B0507483201812S11708933EA0131001373000000030000
B0507523201773S11708976EA0132301383000000030000
B0507563201808S11709019EA0132701384000000015000
B0508003201853S11708978EA0133101392000000015000
B0508043201820S11708915EA0134001401000004030000
B0508083201766S11708950EA0135101415000004030000
B0508123201794S11709002EA0136401427000004015000
B0508163201843S11708973EA0137301435000004015000
B0508203201827S11708905EA0138601453000004030000
B0508243201766S11708902EA0139901460000000030000
B0508283201746S11708959EA0141001474000000030000
B0508323201785S11708991EA0142101479000000015000
B0508363201816S11708939EA0142401481000000030000
B0508403201781S11708872EA0142701490000000030000
B0508443201723S11708887EA0144101502000000030000
B0508483201742S11708944EA0144901511000000015000
B0508523201790S11708916EA0145501517000000030000
B0508563201764S11708847EA0146601532000000030000
B0509003201705S11708859EA0148001544000000030000
B0509043201705S11708920EA0149001551000000030000
B0509083201756S11708931EA0149301553000004015000
B0509123201769S11708865EA0150101567000004030000
B0509163201716S11708825EA0151301576000004030000
B0509203201666S11708863EA0152301585000000030000
B0509243201679S11708918EA0153001590000000015000
B0509283201730S11708916EA0153001590000004015000
B0509323201757S11708850EA0153301596000000015000
B0509363201722S11708787EA0154801612000000030000
B0509403201664S11708798EA0156101622000000015000
B0509443201666S11708855EA0156601628000000015000
B0509483201718S11708847EA0157001627000004015000
B0509523201718S11708774EA0157401640000004015000
B0509563201664S11708738EA0158701646000004015000
B0510003201618S11708774EA0159401651000004015000
B0510043201648S11708820EA0159601652000000015000
B0510083201694S11708781EA0159801656000000015000
B0510123201671S11708709EA0160601669000000015000
B0510163201612S11708705EA0161501671000000015000
B0510203201565S11708757EA0160801659000000015000
B0510243201523S11708824EA0159601645000004000000
B0510283201482S11708904EA0157901628000004000000
B0510323201440S11708990EA0156301619000000000000
B0510363201397S11709082EA0155101608000000000000
B0510403201356S11709177EA0154101599000000000000
B0510443201317S11709272EA0153601594000004000000
B0510483201279S11709367EA0153001582000004000000
B0510523201241S11709463EA0152101577000000000000
B0510563201203S11709558EA0151501569000000000000
B0511003201167S11709652EA0150501558000004000000
B0511043201132S11709744EA0149801555000004000000
B0511083201098S11709832EA0149601554000000000000
B0511123201066S11709919EA0149401551000004000000
B0511163201032S11710003EA0149301553000004000000
B0511203201005S11710083EA0150001560000004000000
B0511243200982S11710161EA0150301561000004000000
B0511283200962S11710237EA0150001557000004000000
B0511323200938S11710313EA0149201544000004000000
B0511363200916S11710394EA0148301541000000000000
B0511403200899S11710473EA0149301556000004000000
B0511443200927S11710528EA0151601581000000000000
B0511483200975S11710507EA0152701574000000000000
B0511523200966S11710425EA0151101560000000000000
B0511563200910S11710361EA0150501558000000000000
B0512003200839S11710334EA0150801562000000000000
B0512043200778S11710363EA0150401557000000000000
B0512083200735S11710423EA0149701545000000000000
B0512123200704S11710494EA0148701539000000000000
B0512163200681S11710569EA0148201535000004000000
B0512203200664S11710650EA0148001536000004000000
B0512243200657S11710732EA0148001531000000000000
B0512283200661S11710818EA0147201524000000000000
B0512323200664S11710907EA0146401515000004000000
B0512363200656S11711000EA0146101515000000000000
B0512403200639S11711088EA0145901512000000000000
B0512443200618S11711175EA0145701512000000000000
B0512483200599S11711260EA0145701510000000000000
B0512523200578S11711343EA0145301506000004000000
B0512563200555S11711426EA0144401496000004000000
B0513003200529S11711509EA0143901490000000000000
B0513043200505S11711589EA0144001495000000000000
B0513083200487S11711663EA0144101494000000000000
B0513123200469S11711736EA0143701487000000000000
B0513163200449S11711810EA0143001482000000000000
B0513203200430S11711882EA0142701479000004000000
B0513243200410S11711958EA0142101472000004000000
B0513283200388S11712032EA0141401467000004000000
B0513323200368S11712105EA0141001461000004000000
B0513363200347S11712178EA0140501454000000000000
B0513403200326S11712252EA0139801449000000000000
B0513443200305S11712324EA0139101440000000000000
B0513483200283S11712400EA0138101429000000000000
B0513523200261S11712475EA0136801415000000000000
B0513563200235S11712552EA0136001410000000000000
B0514003200212S11712627EA0135601406000000000000
B0514043200196S11712703EA0135201403000000000000
B0514083200186S11712783EA0134501393000004000000
B0514123200179S11712869EA0133301378000004000000
B0514163200174S11712959EA0131801366000004000000
B0514203200169S11713050EA0130901357000004000000
B0514243200163S11713141EA0130001350000004000000
B0514283200156S11713231EA0129501345000000000000
B0514323200148S11713323EA0128601333000000000000
B0514363200140S11713415EA0127501324000000000000
B0514403200134S11713506EA0127301322000000000000
B0514443200128S11713595EA0126901317000000000000
B0514483200122S11713684EA0126101308000000000000
B0514523200115S11713774EA0125501302000004000000
B0514563200109S11713862EA0125001300000004000000
B0515003200104S11713947EA0124701297000004000000
B0515043200101S11714034EA0123301279000004000000
B0515083200100S11714129EA0121301258000004000000
B0515123200101S11714228EA0119801245000004000000
B0515163200104S11714324EA0119401245000000000000
B0515203200108S11714419EA0119201241000000000000
B0515243200114S11714510EA0119201244000000000000
B0515283200123S11714597EA0119601248000004000000
B0515323200131S11714683EA0120001255000004000000
B0515363200140S11714765EA0120801262000004000000
B0515403200153S11714844EA0120701256000004000000
B0515443200170S11714921EA0119801243000000000000
B0515483200183S11715001EA0118601233000000000000
B0515523200191S11715084EA0117801226000000000000
B0515563200196S11715165EA0117301222000004000000
B0516003200200S11715244EA0117201222000004000000
B0516043200204S11715325EA0117001215000004000000
B0516083200210S11715405EA0115801202000004000000
B0516123200217S11715486EA0114801194000004000000
B0516163200223S11715568EA0113901184000004000000
B0516203200230S11715650EA0113401180000004000000
B0516243200235S11715733EA0112401169000004000000
B0516283200238S11715816EA0111301157000000000000
B0516323200238S11715901EA0110101145000000000000
B0516363200240S11715987EA0109201137000000000000
B0516403200243S11716071EA0108401130000000000000
B0516443200245S11716156EA0107901123000004000000
B0516483200247S11716239EA0107201118000004000000
B0516523200251S11716323EA0106901114000004000000
B0516563200256S11716405EA0106501111000004000000
B0517003200264S11716486EA0105701099000004000000
B0517043200273S11716569EA0104401088000004000000
B0517083200279S11716651EA0103601078000000000000
B0517123200283S11716733EA0102401066000004000000
B0517163200287S11716812EA0101501057000004000000
B0517203200293S11716891EA0100501048000000000000
B0517243200301S11716969EA0099701042000000000000
B0517283200308S11717046EA0099001031000004000000
B0517323200325S11717124EA0098201025000004000000
B0517363200345S11717201EA0097701023000004000000
B0517403200364S11717275EA0097601021000004000000
B0517443200384S11717348EA0097301015000004000000
B0517483200405S11717423EA0096701013000004000000
B0517523200418S11717496EA0097801028000004000000
B0517563200460S11717528EA0099601047000004000000
B0518003200478S11717463EA0101401065000004000000
B0518043200426S11717415EA0102501071000000000000
B0518083200374S11717446EA0102701073000000000000
B0518123200373S11717508EA0103201078000000000000
B0518163200416S11717536EA0104001086000004000000
B0518203200452S11717482EA0104801092000000015000
B0518243200388S11717441EA0105701103000000015000
B0518283200362S11717496EA0106901118000000015000
B0518323200407S11717521EA0107901125000000015000
B0518363200433S11717456EA0108601133000004015000
B0518403200371S11717411EA0109601141000004015000
B0518443200330S11717463EA0110701158000000015000
B0518483200353S11717515EA0111901165000004015000
B0518523200407S11717491EA0111801165000000015000
B0518563200396S11717413EA0113001180000004015000
B0519003200332S11717383EA0114501193000000015000
B0519043200300S11717435EA0116001209000000015000
B0519083200336S11717470EA0117101217000000015000
B0519123200378S11717423EA0117201216000000015000
B0519163200345S11717353EA0117801227000000015000
B0519203200283S11717367EA0119101248000000015000
B0519243200286S11717422EA0120901262000000015000
B0519283200336S11717422EA0121501259000000015000
B0519323200353S11717350EA0121401263000004015000
B0519363200300S11717293EA0122101269000004015000
B0519403200240S11717316EA0123201287000004015000
B0519443200269S11717367EA0124401291000004015000
B0519483200319S11717323EA0124501294000000015000
B0519523200284S11717249EA0125801316000000015000
B0519563200221S11717249EA0127701334000000015000
B0520003200214S11717306EA0129101343000000015000
B0520043200265S11717322EA0129201341000004015000
B0520083200295S11717258EA0129601349000004015000
B0520123200241S11717216EA0130101355000004015000
B0520163200209S11717264EA0131201365000004015000
B0520203200243S11717309EA0131401365000000015000
B0520243200297S11717287EA0131501369000004015000
B0520283200304S11717211EA0132301377000004015000
B0520323200248S11717159EA0132901382000004015000
B0520363200200S11717184EA0134301400000004015000
B0520403200230S11717223EA0135301405000004015000
B0520443200267S11717171EA0136001414000004015000
B0520483200225S11717107EA0136601414000004015000
B0520523200173S11717134EA0137101426000004015000
B0520563200192S11717186EA0138001434000004015000
B0521003200248S11717171EA0138501440000004015000
B0521043200261S11717095EA0139401451000000015000
B0521083200215S11717038EA0140501454000000015000
B0521123200161S11717058EA0140501460000004015000
B0521163200156S11717116EA0141001465000004015000
B0521203200192S11717167EA0140901462000000015000
B0521243200249S11717179EA0141501471000000015000
B0521283200286S11717119EA0142301481000000015000
B0521323200262S11717046EA0143301487000000015000
B0521363200201S11717024EA0143801492000000000000
B0521403200169S11717073EA0144401500000004015000
B0521443200201S11717115EA0144801500000004015000
B0521483200254S11717085EA0145101506000004015000
B0521523200262S11717007EA0145301505000004015000
B0521563200215S11716939EA0145101503000004015000
B0522003200148S11716906EA0145401506000004000000
B0522043200098S11716941EA0145301507000000000000
B0522083200070S11717006EA0144801495000004000000
B0522123200039S11717075EA0143601485000004000000
B0522163200004S11717146EA0142101466000004000000
B0522203159966S11717222EA0140501453000004000000
B0522243159924S11717300EA0139201439000004000000
B0522283159881S11717383EA0138101434000004000000
B0522323159838S11717467EA0138101434000004000000
B0522363159799S11717553EA0138401438000004000000
B0522403159771S11717640EA0138701440000004000000
B0522443159746S11717730EA0138501437000004000000
B0522483159719S11717817EA0137901428000004000000
B0522523159690S11717905EA0136701412000004000000
B0522563159659S11717994EA0135401402000004000000
B0523003159625S11718082EA0134301392000004000000
B0523043159589S11718171EA0133301385000004000000
B0523083159549S11718258EA0132901380000004000000
B0523123159510S11718345EA0132101370000004000000
B0523163159471S11718433EA0131201361000004000000
B0523203159433S11718519EA0130501355000000000000
B0523243159396S11718606EA0129801345000004000000
B0523283159359S11718692EA0128701335000000000000
B0523323159320S11718775EA0127801325000000000000
B0523363159282S11718858EA0126501313000000000000
B0523403159247S11718941EA0125601306000000000000
B0523443159213S11719023EA0125101300000004000000
B0523483159181S11719105EA0124401292000004000000
B0523523159152S11719188EA0123601282000004000000
B0523563159126S11719272EA0122801274000004000000
B0524003159100S11719351EA0122501275000004000000
B0524043159075S11719426EA0122301272000000000000
B0524083159053S11719500EA0121501260000004000000
B0524123159030S11719577EA0120201250000000000000
B0524163159004S11719651EA0119801247000000000000
B0524203158977S11719724EA0119301239000000000000
B0524243158947S11719796EA0118501227000000000000
B0524283158915S11719870EA0117101213000004000000
B0524323158887S11719944EA0115801203000004000000
B0524363158862S11720019EA0115501202000004000000
B0524403158837S11720096EA0115501204000004000000
B0524443158831S11720175EA0115901209000004000000
B0524483158844S11720248EA0116701217000004000000
B0524523158878S11720308EA0116701215000000000000
B0524563158912S11720371EA0117001224000004000000
B0525003158923S11720444EA0118301239000004000000
B0525043158882S11720498EA0119701254000004000000
B0525083158821S11720511EA0120701257000000000000
B0525123158761S11720482EA0120201249000000000000
B0525163158739S11720416EA0119801246000000000000
B0525203158769S11720361EA0119301243000000000000
B0525243158824S11720347EA0119501248000000000000
B0525283158880S11720358EA0120201256000000000000
B0525323158938S11720366EA0121501266000000000000
B0525363158961S11720304EA0122101269000000000000
B0525403158908S11720264EA0121701265000000015000
B0525443158857S11720304EA0122401276000000015000
B0525483158837S11720368EA0123201288000004000000
B0525523158873S11720409EA0124001294000004015000
B0525563158905S11720351EA0124201290000000015000
B0526003158856S11720291EA0124701304000000015000
B0526043158806S11720323EA0126601324000000015000
B0526083158834S11720369EA0127301320000000015000
B0526123158879S11720332EA0127501330000000015000
B0526163158853S11720262EA0128601340000000015000
B0526203158793S11720265EA0129601355000000015000
B0526243158784S11720321EA0130701360000004015000
B0526283158830S11720344EA0131101365000004015000
B0526323158852S11720286EA0132201374000000015000
B0526363158809S11720230EA0132601381000000015000
B0526403158756S11720247EA0134101398000000015000
B0526443158753S11720301EA0134801397000004015000
B0526483158801S11720321EA0134701401000004015000
B0526523158826S11720267EA0135901414000004015000
B0526563158792S11720206EA0136601419000004015000
B0527003158735S11720206EA0137401430000004015000
B0527043158718S11720260EA0137901431000004015000
B0527083158756S11720299EA0138001433000004015000
B0527123158805S11720282EA0138501439000004015000
B0527163158819S11720217EA0138601435000000015000
B0527203158769S11720169EA0139101451000004015000
B0527243158732S11720208EA0140701460000004015000
B0527283158762S11720248EA0141001464000004015000
B0527323158808S11720222EA0141401465000004015000
B0527363158823S11720147EA0141201469000004015000
B0527403158793S11720080EA0142101480000004015000
B0527443158740S11720080EA0143201488000004015000
B0527483158743S11720134EA0143601492000004015000
B0527523158792S11720122EA0144401504000000015000
B0527563158796S11720054EA0145301507000000015000
B0528003158748S11720013EA0145501510000004015000
B0528043158698S11720037EA0146001516000004015000
B0528083158680S11720093EA0146201518000000000000
B0528123158700S11720148EA0146401522000000000000
B0528163158753S11720140EA0147401532000000000000
B0528203158765S11720070EA0148301537000004015000
B0528243158713S11720023EA0148801544000004015000
B0528283158665S11720052EA0149901557000000015000
B0528323158667S11720106EA0150801565000004015000
B0528363158715S11720109EA0151501573000004015000
B0528403158731S11720043EA0152501582000004015000
B0528443158680S11719997EA0152901581000004015000
B0528483158632S11720030EA0153301593000004015000
B0528523158641S11720082EA0154201599000004015000
B0528563158689S11720079EA0155201610000004015000
B0529003158710S11720015EA0156401621000000015000
B0529043158674S11719953EA0156401614000004015000
B0529083158613S11719954EA0156401624000004015000
B0529123158594S11720005EA0157501630000004015000
B0529163158635S11720032EA0157801636000004015000
B0529203158670S11719983EA0158701646000004015000
B0529243158645S11719913EA0159001644000000015000
B0529283158581S11719897EA0159001647000004015000
B0529323158551S11719944EA0160101660000000015000
B0529363158581S11719981EA0160601659000000015000
B0529403158628S11719946EA0160801667000000015000
B0529443158620S11719872EA0161501668000000015000
B0529483158568S11719827EA0161601672000004015000
B0529523158515S11719842EA0162101678000004015000
B0529563158496S11719894EA0162501683000000015000
B0530003158524S11719931EA0162501679000000015000
B0530043158568S11719888EA0161801675000000015000
B0530083158570S11719806EA0162001680000000015000
B0530123158535S11719738EA0162401683000000015000
B0530163158473S11719720EA0162901688000004015000
B0530203158424S11719753EA0162601677000004015000
B0530243158390S11719811EA0161401665000004015000
B0530283158359S11719877EA0160101653000004000000
B0530323158328S11719949EA0158801639000004000000
B0530363158293S11720023EA0158401642000004000000
B0530403158265S11720085EA0159801658000004000000
B0530443158242S11720144EA0159801643000000000000
B0530483158217S11720209EA0157901626000000000000
B0530523158194S11720278EA0156801622000000000000
B0530563158168S11720344EA0156701620000004000000
B0531003158135S11720413EA0156201614000004000000
B0531043158099S11720487EA0155701612000004000000
B0531083158064S11720564EA0157001630000000000000
B0531123158069S11720635EA0159101651000004000000
B0531163158115S11720652EA0160601662000004000000
B0531203158143S11720603EA0160901661000000000000
B0531243158108S11720544EA0161201673000000000000
B0531283158055S11720565EA0162401683000004000000
B0531323158051S11720629EA0163201690000004015000
B0531363158098S11720646EA0163601692000004015000
B0531403158130S11720594EA0164201703000004015000
B0531443158106S11720531EA0164801703000000015000
B0531483158044S11720529EA0165401716000000015000
B0531523158009S11720585EA0166401722000000015000
B0531563158018S11720651EA0166701723000000015000
B0532003158064S11720676EA0167101727000000015000
B0532043158094S11720631EA0167401732000000015000
B0532083158068S11720572EA0167601737000000015000
B0532123158012S11720542EA0168501744000004015000
B0532163157948S11720559EA0168701743000004015000
B0532203157899S11720616EA0168301735000000015000
B0532243157856S11720687EA0166701710000000000000
B0532283157817S11720769EA0164501692000000000000
B0532323157777S11720856EA0163101682000004000000
B0532363157738S11720945EA0162301677000000000000
B0532403157700S11721032EA0161801671000000000000
B0532443157657S11721116EA0161701673000000000000
B0532483157614S11721200EA0161501668000000000000
B0532523157570S11721285EA0160601662000004000000
B0532563157524S11721367EA0160601661000000000000
B0533003157482S11721441EA0160801665000000000000
B0533043157440S11721510EA0160901663000000000000
B0533083157397S11721582EA0160101650000000000000
B0533123157355S11721657EA0158801641000004000000
B0533163157314S11721736EA0158001633000004000000
B0533203157274S11721817EA0157201626000004000000
B0533243157235S11721898EA0156801625000004000000
B0533283157198S11721977EA0156701623000004000000
B0533323157164S11722055EA0156401618000000000000
B0533363157129S11722134EA0155701606000004000000
B0533403157094S11722215EA0154401595000000000000
B0533443157058S11722295EA0153501592000000000000
B0533483157025S11722376EA0152901584000000000000
B0533523156993S11722455EA0152401582000000000000
B0533563156967S11722531EA0152601585000000000000
B0534003156947S11722607EA0153101591000000000000
B0534043156925S11722684EA0153601594000000000000
B0534083156903S11722762EA0153301586000000000000
B0534123156880S11722843EA0153201590000000000000
B0534163156864S11722918EA0153501589000004000000
B0534203156850S11722999EA0152401576000004000000
B0534243156826S11723079EA0151401570000000000000
B0534283156796S11723160EA0150801562000000000000
B0534323156765S11723239EA0150001556000004000000
B0534363156734S11723317EA0149601552000004000000
B0534403156702S11723395EA0149001544000000000000
B0534443156673S11723475EA0148001535000000000000
B0534483156647S11723554EA0147601531000000000000
B0534523156620S11723632EA0147001522000004000000
B0534563156591S11723710EA0146201513000004000000
B0535003156561S11723789EA0145301505000000000000
B0535043156533S11723870EA0144901506000004000000
B0535083156514S11723950EA0145401510000004000000
B0535123156507S11724030EA0145401508000004000000
B0535163156504S11724106EA0144701500000004000000
B0535203156505S11724184EA0144701502000000000000
B0535243156517S11724258EA0144101490000004000000
B0535283156521S11724339EA0142301470000004000000
B0535323156513S11724426EA0140801458000004000000
B0535363156495S11724512EA0139601448000004000000
B0535403156468S11724594EA0138801441000000000000
B0535443156432S11724671EA0138101431000000000000
B0535483156397S11724747EA0137401428000004000000
B0535523156365S11724821EA0137401426000004000000
B0535563156334S11724899EA0137001421000000000000
B0536003156300S11724976EA0136101411000000000000
B0536043156265S11725054EA0135601407000004000000
B0536083156226S11725131EA0135001401000000000000
B0536123156175S11725201EA0134701401000004000000
B0536163156124S11725270EA0134301396000004000000
B0536203156085S11725345EA0133701389000000000000
B0536243156055S11725425EA0132501375000000000000
B0536283156014S11725496EA0131101359000000000000
B0536323155957S11725557EA0129401341000000000000
B0536363155892S11725618EA0127801322000000000000
B0536403155832S11725682EA0126701318000004000000
B0536443155776S11725744EA0126201310000004000000
B0536483155728S11725815EA0126201315000000000000
B0536523155716S11725894EA0127601334000000000000
B0536563155730S11725964EA0129401355000000000000
B0537003155780S11725967EA0131301370000000000000
B0537043155784S11725898EA0132201378000004000000
B0537083155729S11725854EA0132501376000000000000
B0537123155664S11725874EA0132901386000000000000
B0537163155636S11725937EA0134201401000004015000
B0537203155667S11725982EA0135201408000004015000
B0537243155707S11725934EA0135901414000000015000
B0537283155668S11725869EA0137401433000000015000
B0537323155613S11725894EA0138801444000004015000
B0537363155625S11725951EA0139701452000000015000
B0537403155673S11725945EA0140901466000004015000
B0537443155678S11725880EA0142401477000004015000
B0537483155624S11725843EA0143201486000000015000
B0537523155586S11725885EA0144101493000000015000
B0537563155626S11725915EA0144601501000000015000
B0538003155656S11725863EA0146201519000000015000
B0538043155621S11725805EA0147201526000000015000
B0538083155563S11725815EA0147701534000000015000
B0538123155554S11725870EA0148701541000000015000
B0538163155600S11725885EA0149201552000000015000
B0538203155628S11725829EA0150501566000000015000
B0538243155593S11725772EA0151701574000004015000
B0538283155534S11725781EA0152401584000004015000
B0538323155524S11725835EA0153301589000004015000
B0538363155568S11725860EA0153701594000004015000
B0538403155611S11725817EA0154301599000000015000
B0538443155598S11725746EA0155001607000000015000
B0538483155539S11725721EA0156001618000000015000
B0538523155499S11725763EA0156601627000004015000
B0538563155516S11725815EA0157401633000004015000
B0539003155567S11725800EA0157701629000000015000
B0539043155573S11725725EA0157701634000004015000
B0539083155525S11725670EA0158101637000000015000
B0539123155459S11725660EA0158701646000000015000
B0539163155434S11725716EA0159801658000000015000
B0539203155474S11725742EA0160501660000000015000
B0539243155513S11725692EA0160601663000004015000
B0539283155489S11725627EA0161401670000004015000
B0539323155422S11725614EA0161501669000004015000
B0539363155369S11725662EA0161401670000000015000
B0539403155330S11725731EA0160801662000000015000
B0539443155290S11725808EA0160101652000000000000
B0539483155251S11725891EA0159401650000000000000
B0539523155216S11725974EA0159501653000000000000
B0539563155183S11726060EA0159401649000000000000
B0540003155153S11726147EA0159501655000000000000
B0540043155130S11726233EA0159201646000000000000
B0540083155108S11726324EA0157601630000004000000
B0540123155086S11726422EA0156501620000004000000
B0540163155061S11726519EA0155701615000004000000
B0540203155036S11726618EA0155401611000000000000
B0540243155012S11726717EA0154901604000000000000
B0540283154986S11726817EA0153801586000000000000
B0540323154957S11726917EA0152401577000000000000
B0540363154927S11727014EA0152001574000000000000
B0540403154895S11727108EA0151701572000000000000
B0540443154863S11727199EA0151901577000004000000
B0540483154831S11727285EA0152601586000000000000
B0540523154817S11727371EA0154101601000004000000
B0540563154822S11727453EA0154901606000004000000
B0541003154832S11727532EA0154701598000000000000
B0541043154830S11727622EA0153801593000000000000
B0541083154811S11727715EA0153001582000004000000
B0541123154780S11727809EA0152101576000004000000
B0541163154741S11727901EA0151501570000004000000
B0541203154700S11727991EA0150901564000004000000
B0541243154655S11728082EA0150001554000004000000
B0541283154611S11728174EA0148901542000000000000
B0541323154570S11728266EA0148301540000000000000
B0541363154531S11728360EA0148101533000004000000
B0541403154493S11728454EA0147201525000004000000
B0541443154458S11728548EA0146501518000000000000
B0541483154427S11728645EA0145801510000000000000
B0541523154402S11728742EA0145001502000000000000
B0541563154378S11728838EA0144201495000000000000
B0542003154356S11728932EA0143201484000000000000
B0542043154334S11729026EA0142701481000004000000
B0542083154312S11729115EA0142801483000004000000
B0542123154291S11729205EA0142801481000004000000
B0542163154271S11729295EA0142501478000004000000
B0542203154250S11729383EA0143101491000000000000
B0542243154251S11729466EA0144801507000000000000
B0542283154287S11729531EA0145901516000000000000
B0542323154333S11729583EA0146701525000000000000
B0542363154388S11729555EA0147401527000000000000
B0542403154371S11729474EA0147601532000000015000
B0542443154310S11729431EA0148001533000000015000
B0542483154239S11729440EA0147801532000000015000
B0542523154185S11729484EA0148201539000000000000
B0542563154169S11729555EA0148701543000000000000
B0543003154170S11729627EA0148901545000004000000
B0543043154177S11729699EA0149601554000000000000
B0543083154193S11729770EA0149201543000004000000
B0543123154204S11729850EA0148301537000000000000
B0543163154202S11729933EA0148001536000000000000
B0543203154185S11730017EA0147601532000000000000
B0543243154160S11730102EA0146801521000000000000
B0543283154133S11730188EA0145601509000000000000
B0543323154099S11730275EA0145101505000000000000
B0543363154065S11730362EA0143801489000004000000
B0543403154034S11730454EA0142001466000004000000
B0543443154003S11730549EA0140101450000004000000
B0543483153972S11730643EA0138901442000004000000
B0543523153942S11730735EA0138101431000004000000
B0543563153910S11730829EA0136501412000004000000
B0544003153877S11730924EA0135201405000004000000
B0544043153842S11731016EA0134601398000000000000
B0544083153805S11731107EA0134101394000004000000
B0544123153770S11731198EA0134401401000000000000
B0544163153741S11731286EA0135401413000000000000
B0544203153731S11731376EA0136401422000004000000
B0544243153735S11731464EA0137201431000004000000
B0544283153747S11731546EA0138201440000004000000
B0544323153778S11731619EA0138801448000000000000
B0544363153817S11731684EA0140301465000000000000
B0544403153871S11731667EA0141801475000004000000
B0544443153861S11731588EA0142101477000004000000
B0544483153795S11731562EA0142401484000000000000
B0544523153735S11731592EA0143901502000000015000
B0544563153732S11731655EA0144801502000000015000
B0545003153783S11731658EA0145701516000000015000
B0545043153788S11731589EA0146201518000000015000
B0545083153732S11731551EA0146401521000000015000
B0545123153667S11731575EA0147001527000000015000
B0545163153636S11731640EA0147201524000000015000
B0545203153618S11731718EA0146401517000004015000
B0545243153601S11731801EA0146501520000004000000
B0545283153596S11731883EA0146401518000000000000
B0545323153597S11731966EA0146101512000000000000
B0545363153588S11732055EA0144801500000000000000
B0545403153561S11732142EA0144401498000000000000
B0545443153523S11732222EA0143901494000000000000
B0545483153480S11732299EA0143501486000000000000
B0545523153437S11732376EA0142301475000000000000
B0545563153397S11732456EA0141301465000004000000
B0546003153357S11732539EA0140101454000000000000
B0546043153318S11732623EA0139401445000000000000
B0546083153280S11732705EA0138701441000000000000
B0546123153245S11732786EA0138501438000000000000
B0546163153212S11732870EA0138001432000000000000
B0546203153181S11732955EA0137601430000000000000
B0546243153151S11733041EA0137101420000004000000
B0546283153120S11733128EA0136201418000000000000
B0546323153086S11733212EA0136201417000000000000
B0546363153054S11733293EA0135801412000000000000
B0546403153020S11733377EA0135301408000000000000
B0546443152985S11733457EA0135401410000000000000
B0546483152956S11733539EA0136401423000004000000
B0546523152973S11733615EA0137301429000004000000
B0546563153004S11733686EA0137001419000004000000
B0547003153004S11733773EA0135701403000004000000
B0547043152967S11733862EA0133701385000004000000
B0547083152911S11733940EA0132401375000004000000
B0547123152851S11734018EA0132201376000000000000
B0547163152794S11734098EA0131701367000000000000
B0547203152744S11734183EA0131301366000004000000
B0547243152707S11734270EA0131101361000000000000
B0547283152677S11734359EA0130101348000000000000
B0547323152652S11734453EA0128701333000004000000
B0547363152629S11734547EA0127501327000004000000
B0547403152603S11734639EA0126901319000004000000
B0547443152564S11734727EA0126201312000004000000
B0547483152522S11734814EA0125101302000004000000
B0547523152478S11734898EA0124601295000000000000
B0547563152432S11734980EA0123701285000000000000
B0548003152384S11735059EA0122701275000000000000
B0548043152339S11735139EA0121701265000000000000
B0548083152292S11735217EA0120901257000000000000
B0548123152239S11735290EA0120101249000004000000
B0548163152183S11735362EA0119201241000004000000
B0548203152128S11735436EA0118201230000004000000
B0548243152074S11735511EA0117001220000004000000
B0548283152022S11735587EA0116501213000004000000
B0548323151972S11735663EA0116001208000004000000
B0548363151924S11735739EA0115801208000004000000
B0548403151880S11735813EA0115501200000004000000
B0548443151834S11735883EA0114901198000000000000
B0548483151797S11735956EA0114801197000004000000
B0548523151762S11736027EA0115501209000000000000
B0548563151713S11736085EA0117101227000000000000
B0549003151646S11736094EA0118401234000004000000
B0549043151595S11736040EA0119101251000000000000
B0549083151609S11735975EA0120401261000000000000
B0549123151652S11735960EA0121201265000000000000
B0549163151682S11735999EA0121501268000000000000
B0549203151676S11736056EA0122601276000000015000
B0549243151632S11736098EA0123001276000000015000
B0549283151565S11736092EA0122801279000000015000
B0549323151504S11736049EA0123601286000000000000
B0549363151447S11736012EA0123901288000000000000
B0549403151394S11736038EA0124101287000004000000
B0549443151403S11736099EA0123401283000004000000
B0549483151443S11736144EA0123201281000004000000
B0549523151489S11736186EA0123101279000004000000
B0549563151534S11736235EA0122601274000004000000
B0550003151569S11736300EA0122801282000004000000
B0550043151619S11736303EA0125401319000000015000
B0550083151612S11736239EA0127701330000004015000
B0550123151546S11736226EA0128601344000004015000
B0550163151513S11736277EA0130001351000004015000
B0550203151550S11736320EA0130201358000004015000
B0550243151587S11736277EA0132401382000000015000
B0550283151552S11736216EA0133501390000004015000
B0550323151490S11736237EA0134801405000004015000
B0550363151476S11736303EA0135701412000004015000
B0550403151520S11736330EA0137401434000004015000
B0550443151546S11736280EA0139001445000004015000
B0550483151503S11736225EA0139401450000000015000
B0550523151439S11736239EA0141201474000000015000
B0550563151422S11736303EA0142401479000004015000
B0551003151469S11736328EA0143401492000004015000
B0551043151498S11736273EA0144601502000004015000
B0551083151455S11736216EA0145301509000000015000
B0551123151394S11736239EA0146601521000004015000
B0551163151390S11736308EA0147101523000004015000
B0551203151444S11736334EA0147701537000004015000
B0551243151478S11736285EA0149201550000000015000
B0551283151439S11736222EA0149801549000000015000
B0551323151370S11736233EA0150201563000000015000
B0551363151338S11736296EA0151701576000000015000
B0551403151373S11736343EA0152701587000000015000
B0551443151405S11736299EA0153901599000000015000
B0551483151366S11736242EA0154701603000000015000
B0551523151303S11736260EA0155501614000004015000
B0551563151292S11736328EA0156001619000000015000
B0552003151339S11736358EA0156601623000004015000
B0552043151387S11736322EA0157001628000004015000
B0552083151395S11736251EA0157501634000000015000
B0552123151352S11736185EA0158201640000004015000
B0552163151282S11736170EA0159101654000000015000
B0552203151258S11736233EA0160401659000000015000
B0552243151309S11736248EA0159501641000000015000
B0552283151343S11736181EA0158601647000000015000
B0552323151334S11736096EA0159701661000000015000
B0552363151279S11736044EA0161301676000000015000
B0552403151218S11736066EA0162401681000000015000
B0552443151193S11736133EA0161801669000000015000
B0552483151174S11736209EA0160501659000000015000
B0552523151147S11736293EA0159801655000004000000
B0552563151110S11736377EA0159201646000004000000
B0553003151067S11736463EA0158301641000004000000
B0553043151024S11736550EA0158001635000004000000
B0553083150983S11736640EA0156801621000000000000
B0553123150945S11736731EA0155401607000004000000
B0553163150909S11736824EA0154401597000004000000
B0553203150884S11736919EA0153301590000004000000
B0553243150867S11737013EA0152601582000004000000
B0553283150852S11737105EA0151801573000000000000
B0553323150833S11737196EA0151401571000000000000
B0553363150814S11737286EA0150701560000000000000
B0553403150793S11737373EA0149901555000000000000
B0553443150764S11737457EA0149401549000000000000
B0553483150724S11737533EA0148901541000004000000
B0553523150677S11737606EA0147601528000004000000
B0553563150629S11737674EA0146701519000004000000
B0554003150581S11737745EA0145701510000004000000
B0554043150536S11737816EA0145201508000004000000
B0554083150495S11737888EA0145001507000000000000
B0554123150458S11737960EA0145301510000000000000
B0554163150423S11738032EA0145501510000000000000
B0554203150389S11738102EA0145001505000000000000
B0554243150356S11738171EA0144701501000000000000
B0554283150324S11738241EA0143801488000000000000
B0554323150291S11738318EA0142101471000000000000
B0554363150257S11738400EA0140401456000000000000
B0554403150217S11738480EA0139101443000000000000
B0554443150168S11738556EA0138401437000000000000
B0554483150117S11738625EA0137901432000004000000
B0554523150068S11738692EA0137301424000000000000
B0554563150021S11738757EA0136701417000000000000
B0555003149974S11738822EA0136101415000000000000
B0555043149929S11738886EA0135901413000000000000
B0555083149884S11738952EA0135001399000000000000
B0555123149838S11739021EA0134101393000000000000
B0555163149792S11739090EA0133301385000000000000
B0555203149748S11739159EA0132401372000000000000
B0555243149706S11739228EA0131201358000000000000
B0555283149661S11739296EA0130201353000004000000
B0555323149614S11739358EA0130101353000000000000
B0555363149566S11739418EA0129901351000004000000
B0555403149514S11739476EA0129101338000004000000
B0555443149461S11739537EA0127701325000004000000
B0555483149410S11739600EA0126601316000000000000
B0555523149360S11739662EA0125501305000000000000
B0555563149310S11739725EA0124701293000000000000
B0556003149259S11739787EA0123501282000000000000
B0556043149210S11739852EA0122801275000000000000
B0556083149164S11739921EA0121901265000000000000
B0556123149120S11739988EA0121101258000000000000
B0556163149072S11740055EA0120401253000000000000
B0556203149017S11740117EA0120001249000000000000
B0556243148957S11740168EA0120201255000000000000
B0556283148892S11740204EA0121201264000000000000
B0556323148821S11740212EA0121301261000004000000
B0556363148751S11740202EA0120601253000000000000
B0556403148684S11740174EA0119801244000000000000
B0556443148621S11740133EA0118601231000004000000
B0556483148558S11740081EA0117601222000000000000
B0556523148493S11740022EA0117101221000000000000
B0556563148424S11739970EA0117901231000000000000
B0557003148369S11739999EA0120101255000000000000
B0557043148401S11740033EA0121601267000004000000
B0557083148428S11739972EA0123101287000004000000
B0557123148391S11739908EA0123901288000004015000
B0557163148327S11739913EA0124701301000000015000
B0557203148317S11739973EA0126101314000004015000
B0557243148365S11739990EA0127501332000000015000
B0557283148392S11739930EA0129101351000000015000
B0557323148354S11739871EA0130501357000004015000
B0557363148296S11739891EA0131101369000004015000
B0557403148298S11739949EA0132401379000004015000
B0557443148348S11739943EA0133801399000004015000
B0557483148348S11739873EA0135701414000004015000
B0557523148293S11739838EA0137201425000000015000
B0557563148257S11739883EA0138301437000000015000
B0558003148292S11739923EA0138901442000000015000
B0558043148339S11739882EA0140001459000000015000
B0558083148328S11739809EA0142001477000000015000
B0558123148270S11739784EA0143101484000000015000
B0558163148239S11739835EA0143801495000000015000
B0558203148274S11739874EA0145301510000000015000
B0558243148318S11739834EA0146501519000000015000
B0558283148294S11739760EA0147201528000000015000
B0558323148231S11739744EA0148401541000000015000
B0558363148210S11739799EA0149501551000000015000
B0558403148253S11739827EA0150601566000000015000
B0558443148288S11739782EA0152301582000000015000
B0558483148259S11739719EA0153101587000004015000
B0558523148203S11739727EA0154001597000000015000
B0558563148201S11739782EA0154801605000000015000
B0559003148249S11739796EA0155401612000004015000
B0559043148279S11739740EA0156301621000000015000
B0559083148240S11739683EA0157101629000000015000
B0559123148188S11739699EA0157901636000000015000
B0559163148194S11739756EA0158101637000000015000
B0559203148244S11739784EA0158501647000000015000
B0559243148291S11739752EA0160101665000004015000
B0559283148281S11739686EA0161201667000004015000
B0559323148223S11739678EA0161101666000004015000
B0559363148203S11739738EA0161401672000004015000
B0559403148241S11739783EA0162101677000004015000
B0559443148296S11739774EA0162601682000004015000
B0559483148313S11739708EA0162401674000004015000
B0559523148270S11739641EA0161101663000004015000
B0559563148197S11739598EA0160101655000004015000
B0600003148118S11739558EA0159401649000004015000
B0600043148033S11739520EA0158901641000000000000
B0600083147946S11739476EA0157801633000000000000
B0600123147860S11739428EA0158301645000000000000
B0600163147778S11739392EA0159601655000000000000
B0600203147698S11739361EA0159601651000004000000
B0600243147617S11739319EA0159001645000000000000
B0600283147539S11739264EA0158101633000000000000
B0600323147459S11739203EA0156801622000004000000
B0600363147377S11739146EA0156701623000004000000
B0600403147291S11739093EA0156301611000004000000
B0600443147204S11739038EA0154801596000004000000
B0600483147115S11738984EA0153701589000000000000
B0600523147030S11738929EA0152901580000000000000
B0600563146946S11738878EA0152601581000000000000
B0601003146861S11738843EA0152701582000000000000
B0601043146779S11738811EA0152701582000004000000
B0601083146698S11738778EA0152401578000004000000
B0601123146619S11738742EA0151901573000004000000
B0601163146542S11738694EA0151601568000004000000
B0601203146473S11738627EA0151001562000004000000
B0601243146408S11738555EA0150501557000000000000
B0601283146344S11738480EA0150001553000004000000
B0601323146281S11738406EA0149501548000004000000
B0601363146213S11738335EA0148901541000004000000
B0601403146144S11738263EA0148001533000004000000
B0601443146071S11738193EA0147201524000000000000
B0601483145999S11738122EA0146401514000000000000
B0601523145923S11738058EA0145601505000000000000
B0601563145843S11738005EA0145101504000000000000
B0602003145762S11737966EA0146201521000000000000
B0602043145685S11737933EA0147301528000000000000
B0602083145609S11737898EA0148301541000004000000
B0602123145540S11737901EA0149901556000004000000
B0602163145535S11737960EA0151001563000004000000
B0602203145587S11737970EA0150801555000000000000
B0602243145619S11737901EA0149601548000000015000
B0602283145603S11737815EA0150001559000000015000
B0602323145558S11737746EA0150801564000004015000
B0602363145494S11737698EA0150801559000004015000
B0602403145423S11737663EA0150101550000004000000
B0602443145350S11737616EA0149001535000004000000
B0602483145275S11737561EA0148401540000000000000
B0602523145199S11737504EA0149001545000000000000
B0602563145128S11737438EA0149701557000000000000
B0603003145057S11737375EA0150801566000000000000
B0603043144989S11737317EA0151401571000000000000
B0603083144917S11737266EA0150801560000000000000
B0603123144840S11737219EA0149701549000004000000
B0603163144761S11737178EA0148701534000000000000
B0603203144671S11737151EA0146901514000004000000
B0603243144576S11737141EA0145301502000004000000
B0603283144479S11737143EA0144101491000000000000
B0603323144383S11737147EA0143301486000000000000
B0603363144289S11737147EA0143201486000000000000
B0603403144201S11737130EA0143101484000004000000
B0603443144114S11737112EA0142301473000004000000
B0603483144024S11737106EA0141901471000004000000
B0603523143939S11737108EA0141701468000004000000
B0603563143854S11737110EA0140701455000004000000
B0604003143764S11737097EA0139501446000000000000
B0604043143676S11737070EA0138801436000000000000
B0604083143590S11737028EA0137601425000000000000
B0604123143503S11736982EA0136201411000004000000
B0604163143414S11736932EA0134901400000004000000
B0604203143326S11736883EA0134301393000000000000
B0604243143239S11736837EA0134001392000000000000
B0604283143152S11736797EA0133501384000004000000
B0604323143063S11736753EA0132501375000000000000
B0604363142976S11736706EA0132201374000000000000
B0604403142892S11736660EA0132201373000000000000
B0604443142807S11736612EA0131901369000000000000
B0604483142724S11736562EA0131201357000000000000
B0604523142641S11736510EA0130101350000000000000
B0604563142558S11736458EA0129401340000000000000
B0605003142473S11736408EA0128301328000000000000
B0605043142389S11736360EA0127701326000000000000
B0605083142305S11736312EA0127801329000000000000
B0605123142222S11736267EA0127601322000000000000
B0605163142135S11736222EA0127101324000004000000
B0605203142051S11736176EA0128301339000004000000
B0605243141970S11736131EA0128601335000004000000
B0605283141889S11736090EA0128101327000004000000
B0605323141807S11736047EA0126901312000000000000
B0605363141724S11736000EA0125701304000004000000
B0605403141644S11735949EA0125101298000004000000
B0605443141562S11735908EA0125001297000004000000
B0605483141479S11735873EA0124201287000000000000
B0605523141394S11735836EA0123101275000000000000
B0605563141310S11735797EA0122201264000000000000
B0606003141226S11735753EA0121201255000000000000
B0606043141146S11735701EA0120901258000000000000
B0606083141072S11735645EA0121401260000000000000
B0606123140999S11735585EA0120401244000004000000
B0606163140925S11735524EA0120001250000004000000
B0606203140856S11735461EA0120901258000004000000
B0606243140782S11735403EA0121101262000000000000
B0606283140706S11735350EA0121401261000004000000
B0606323140626S11735333EA0121801270000004000000
B0606363140575S11735386EA0123201289000000000000
B0606403140584S11735451EA0124601301000000000000
B0606443140634S11735470EA0125101298000000000000
B0606483140687S11735440EA0124301287000000015000
B0606523140732S11735385EA0124001290000000015000
B0606563140732S11735308EA0124701298000000015000
B0607003140692S11735236EA0124301284000000015000
B0607043140626S11735169EA0122501265000000015000
B0607083140545S11735107EA0120401241000004000000
B0607123140457S11735047EA0118301227000004000000
B0607163140367S11734990EA0116901213000004000000
B0607203140276S11734934EA0115201193000004000000
B0607243140185S11734881EA0114601194000004000000
B0607283140099S11734827EA0115301206000004000000
B0607323140019S11734774EA0116901226000004000000
B0607363139943S11734720EA0118701240000004000000
B0607403139867S11734677EA0120401260000004000000
B0607443139811S11734716EA0123001285000004000000
B0607483139833S11734765EA0124201287000004000000
B0607523139878S11734734EA0124401296000004015000
B0607563139877S11734664EA0125501307000000015000
B0608003139820S11734634EA0127001324000000015000
B0608043139770S11734674EA0127801322000000015000
B0608083139781S11734738EA0127201320000004015000
B0608123139834S11734751EA0128001331000004015000
B0608163139876S11734712EA0129001341000004015000
B0608203139857S11734642EA0129401344000004015000
B0608243139794S11734616EA0130001356000004015000
B0608283139755S11734673EA0131101364000004015000
B0608323139792S11734716EA0131601372000004015000
B0608363139834S11734682EA0132201376000004015000
B0608403139850S11734614EA0132401376000000015000
B0608443139830S11734540EA0132301373000000015000
B0608483139778S11734478EA0131901369000000015000
B0608523139712S11734427EA0132001373000000015000
B0608563139640S11734382EA0132401377000000000000
B0609003139566S11734336EA0132701381000004000000
B0609043139490S11734288EA0132901380000000000000
B0609083139409S11734240EA0132001367000004000000
B0609123139327S11734189EA0131001359000000000000
B0609163139244S11734137EA0130301353000000000000
B0609203139159S11734086EA0129301337000000000000
B0609243139072S11734037EA0128001331000004000000
B0609283138992S11733989EA0127901329000004000000
B0609323138906S11733953EA0126901319000000000000
B0609363138821S11733919EA0126701317000000000000
B0609403138741S11733873EA0126401316000000000000
B0609443138664S11733819EA0127201328000000000000
B0609483138587S11733803EA0128601341000000000000
B0609523138559S11733863EA0129701347000000000000
B0609563138615S11733880EA0130501367000004000000
B0610003138647S11733815EA0132401384000004015000
B0610043138617S11733739EA0133401386000000015000
B0610083138547S11733732EA0133501384000004015000
B0610123138522S11733789EA0134001400000000015000
B0610163138569S11733806EA0135501409000000015000
B0610203138599S11733734EA0136501421000000015000
B0610243138559S11733667EA0137101421000000030000
B0610283138489S11733674EA0136501416000000015000
B0610323138470S11733737EA0137601437000000015000
B0610363138502S11733782EA0138901445000000015000
B0610403138552S11733807EA0139301450000000015000
B0610443138611S11733774EA0140101456000000015000
B0610483138622S11733687EA0140901467000004015000
B0610523138563S11733630EA0141701468000000015000
B0610563138490S11733644EA0141701470000000015000
B0611003138459S11733708EA0142601482000000015000
B0611043138495S11733755EA0143801493000004015000
B0611083138551S11733721EA0144901507000004015000
B0611123138560S11733639EA0146501520000004015000
B0611163138507S11733582EA0147501530000004015000
B0611203138451S11733608EA0148001536000000015000
B0611243138459S11733667EA0148201535000000015000
B0611283138511S11733687EA0148601545000000015000
B0611323138552S11733642EA0150001560000000015000
B0611363138533S11733566EA0150801562000004015000
B0611403138466S11733543EA0151001568000004015000
B0611443138429S11733591EA0151901579000000015000
B0611483138452S11733634EA0152701583000000015000
B0611523138502S11733605EA0153001587000004015000
B0611563138503S11733524EA0153801599000000015000
B0612003138451S11733465EA0154401600000000015000
B0612043138382S11733473EA0154201596000000015000
B0612083138347S11733527EA0154601610000000015000
B0612123138359S11733585EA0155701617000000015000
B0612163138404S11733615EA0156101619000000015000
B0612203138453S11733582EA0156801631000000015000
B0612243138447S11733508EA0158001642000004015000
B0612283138385S11733490EA0158901649000004015000
B0612323138356S11733542EA0159301653000004015000
B0612363138383S11733590EA0159901658000004015000
B0612403138435S11733577EA0160701668000000015000
B0612443138452S11733505EA0161901677000000015000
B0612483138418S11733436EA0162401682000000030000
B0612523138353S11733410EA0162801690000000015000
B0612563138296S11733438EA0163201692000004015000
B0613003138296S11733494EA0163801702000000015000
B0613043138344S11733500EA0164401706000000015000
B0613083138374S11733435EA0164601707000000015000
B0613123138347S11733360EA0165201717000000030000
B0613163138283S11733327EA0166101721000000015000
B0613203138230S11733360EA0166001719000004015000
B0613243138232S11733423EA0166001723000004015000
B0613283138282S11733446EA0166801731000000015000
B0613323138327S11733401EA0167501736000000015000
B0613363138330S11733322EA0167901743000000030000
B0613403138284S11733253EA0168101742000000015000
B0613443138218S11733200EA0167901734000000015000
B0613483138143S11733153EA0167101729000000015000
B0613523138062S11733108EA0166601722000004000000
B0613563137978S11733063EA0165801713000004000000
B0614003137887S11733024EA0164601699000000000000
B0614043137792S11732988EA0163301687000004000000
B0614083137694S11732957EA0162701683000000000000
B0614123137598S11732931EA0162701683000004000000
B0614163137503S11732907EA0162701683000004000000
B0614203137411S11732883EA0162401676000004000000
B0614243137317S11732858EA0161501670000004000000
B0614283137225S11732831EA0160801661000000000000
B0614323137133S11732798EA0159701650000000000000
B0614363137039S11732767EA0159201649000000000000
B0614403136948S11732741EA0159601655000000000000
B0614443136860S11732718EA0160701667000000000000
B0614483136775S11732718EA0162501687000000000000
B0614523136743S11732784EA0164601710000000000000
B0614563136784S11732820EA0165901715000000000000
B0615003136828S11732775EA0165801718000000015000
B0615043136818S11732699EA0166401728000000015000
B0615083136771S11732641EA0167401736000000015000
B0615123136705S11732615EA0168201744000000015000
B0615163136633S11732606EA0168501742000000015000
B0615203136552S11732588EA0167501729000004015000
B0615243136462S11732567EA0166701725000004000000
B0615283136370S11732551EA0166301719000004000000
B0615323136276S11732536EA0165101706000004000000
B0615363136181S11732521EA0163801691000004000000
B0615403136085S11732510EA0162601681000004000000
B0615443135990S11732499EA0162201678000000000000
B0615483135899S11732491EA0162001679000000000000
B0615523135813S11732487EA0162701686000000000000
B0615563135730S11732478EA0162301676000000000000
B0616003135644S11732467EA0161001663000004000000
B0616043135558S11732454EA0159801653000000000000
B0616083135471S11732441EA0159101645000000000000
B0616123135385S11732428EA0158501640000004000000
B0616163135301S11732413EA0158601636000004000000
B0616203135218S11732398EA0157801628000004000000
B0616243135133S11732382EA0156801618000000000000
B0616283135049S11732370EA0156101612000000000000
B0616323134966S11732357EA0155801610000000000000
B0616363134882S11732341EA0155401605000000000000
B0616403134798S11732325EA0154701598000000000000
B0616443134711S11732312EA0154101593000000000000
B0616483134622S11732300EA0153401584000004000000
B0616523134533S11732290EA0152601576000000000000
B0616563134442S11732281EA0152201572000000000000
B0617003134351S11732272EA0151501567000000000000
B0617043134258S11732263EA0150801556000000000000
B0617083134163S11732252EA0150001550000000000000
B0617123134069S11732239EA0149701550000000000000
B0617163133975S11732226EA0149701546000000000000
B0617203133881S11732213EA0148801537000000000000
B0617243133788S11732200EA0148201529000000000000
B0617283133694S11732187EA0148201534000004000000
B0617323133602S11732174EA0148401537000004000000
B0617363133512S11732164EA0148701538000000000000
B0617403133422S11732152EA0148001526000004000000
B0617443133330S11732139EA0146501509000000000000
B0617483133237S11732125EA0145901508000000000000
B0617523133146S11732114EA0146201513000000000000
B0617563133057S11732116EA0147001521000004000000
B0618003132973S11732121EA0146801511000004000000
B0618043132883S11732121EA0145501497000004000000
B0618083132792S11732118EA0144501488000000000000
B0618123132701S11732116EA0144001489000000000000
B0618163132611S11732110EA0143701482000000000000
B0618203132519S11732099EA0142501469000000000000
B0618243132427S11732082EA0141401459000000000000
B0618283132332S11732060EA0140401450000004000000
B0618323132237S11732036EA0139101437000004000000
B0618363132141S11732012EA0138401426000004000000
B0618403132046S11731996EA0138301430000000000000
B0618443131956S11731997EA0138901440000000000000
B0618483131872S11732003EA0139801450000004000000
B0618523131794S11732022EA0141001464000000000000
B0618563131764S11732086EA0143001491000000000000
B0619003131809S11732113EA0145301512000000000000
B0619043131846S11732062EA0146801520000000015000
B0619083131833S11731990EA0147701532000000015000
B0619123131778S11731956EA0148701542000000030000
B0619163131729S11731988EA0149401548000000015000
B0619203131738S11732047EA0150101562000000015000
B0619243131790S11732045EA0151501571000000015000
B0619283131817S11731980EA0152001577000000015000
B0619323131786S11731909EA0152701581000000030000
B0619363131718S11731900EA0153001584000000030000
B0619403131679S11731952EA0153301592000004015000
B0619443131695S11732018EA0153901598000004015000
B0619483131751S11732010EA0155201612000000015000
B0619523131769S11731931EA0155401612000000030000
B0619563131721S11731861EA0155601617000000030000
B0620003131647S11731850EA0156101620000000030000
B0620043131587S11731891EA0156801630000000015000
B0620083131562S11731960EA0158001639000000015000
B0620123131595S11732009EA0159001650000000015000
B0620163131640S11731969EA0159801658000004015000
B0620203131623S11731893EA0160801668000000030000
B0620243131557S11731883EA0161601677000004030000
B0620283131531S11731941EA0162901692000004030000
B0620323131569S11731973EA0163601695000000030000
B0620363131609S11731926EA0163301693000000030000
B0620403131601S11731845EA0163801703000004030000
B0620443131547S11731797EA0164801713000000030000
B0620483131482S11731805EA0165701721000000015000
B0620523131458S11731863EA0166901730000000015000
B0620563131498S11731896EA0167101732000000015000
B0621003131540S11731850EA0167301733000004015000
B0621043131515S11731776EA0167501736000004030000
B0621083131448S11731749EA0168101743000004030000
B0621123131385S11731779EA0168701746000004015000
B0621163131372S11731843EA0168901749000000015000
B0621203131414S11731871EA0169401753000000015000
B0621243131457S11731830EA0168801742000004015000
B0621283131439S11731748EA0168401748000000030000
B0621323131372S11731700EA0169001758000004015000
B0621363131297S11731674EA0169101754000000015000
B0621403131215S11731658EA0168301746000004015000
B0621443131129S11731648EA0167601740000004015000
B0621483131041S11731637EA0166501724000000000000
B0621523130947S11731626EA0164401702000000000000
B0621563130850S11731610EA0162801688000000000000
B0622003130754S11731596EA0162301685000004000000
B0622043130660S11731584EA0161701679000004000000
B0622083130569S11731574EA0161101673000004000000
B0622123130478S11731558EA0160201663000004000000
B0622163130390S11731538EA0159201652000000000000
B0622203130301S11731516EA0158001640000004000000
B0622243130217S11731496EA0157301635000000000000
B0622283130133S11731468EA0157001631000000000000
B0622323130058S11731419EA0155801620000004000000
B0622363130003S11731338EA0155001611000004000000
B0622403129970S11731243EA0154201602000000000000
B0622443129957S11731142EA0153301592000004000000
B0622483129958S11731038EA0152101580000004000000
B0622523129967S11730934EA0151101571000004000000
B0622563129983S11730831EA0150301562000004000000
B0623003130002S11730730EA0149201550000004000000
B0623043130024S11730631EA0148701549000000000000
B0623083130048S11730539EA0149001552000000000000
B0623123130075S11730449EA0148701547000000000000
B0623163130111S11730361EA0149001561000000000000
B0623203130140S11730275EA0151101580000000000000
B0623243130115S11730193EA0152301594000004000000
B0623283130053S11730181EA0154101611000004015000
B0623323130027S11730236EA0154901613000004015000
B0623363130058S11730290EA0154801609000004015000
B0623403130113S11730331EA0155001614000004015000
B0623443130171S11730366EA0156001622000004015000
B0623483130236S11730365EA0155901616000004015000
B0623523130293S11730307EA0155101608000004015000
B0623563130340S11730228EA0154701609000000000000
B0624003130387S11730142EA0156101625000000000000
B0624043130400S11730051EA0158901656000000015000
B0624083130345S11730015EA0161701678000004015000
B0624123130318S11730058EA0162901689000004015000
B0624163130354S11730098EA0163701696000004015000
B0624203130406S11730063EA0165101714000004015000
B0624243130401S11729991EA0166201726000004030000
B0624283130348S11729969EA0167101737000004030000
B0624323130326S11730016EA0168101751000004030000
B0624363130364S11730055EA0169001754000000015000
B0624403130421S11730025EA0170401768000000030000
B0624443130423S11729950EA0171201769000000030000
B0624483130367S11729929EA0171401775000000030000
B0624523130344S11729980EA0172501788000000030000
B0624563130387S11730019EA0174001803000000030000
B0625003130440S11729986EA0175501816000004030000
B0625043130440S11729916EA0175601812000000030000
B0625083130388S11729885EA0175501817000004030000
B0625123130353S11729925EA0176201826000000030000
B0625163130377S11729982EA0176901834000000030000
B0625203130430S11730006EA0178501852000000030000
B0625243130477S11729962EA0179201842000000030000
B0625283130508S11729886EA0177001826000000015000
B0625323130546S11729802EA0175301810000000015000
B0625363130587S11729713EA0174001799000000015000
B0625403130631S11729621EA0172801786000000015000
B0625443130691S11729536EA0171301771000000015000
B0625483130757S11729460EA0170101761000000000000
B0625523130825S11729387EA0169201753000000000000
B0625563130891S11729313EA0168501746000000000000
B0626003130954S11729240EA0168201743000000000000
B0626043131020S11729174EA0167701736000000000000
B0626083131088S11729114EA0166901730000000000000
B0626123131157S11729055EA0166101721000000000000
B0626163131225S11728993EA0165101709000004000000
B0626203131292S11728928EA0164601712000004000000
B0626243131354S11728862EA0165101716000004000000
B0626283131415S11728797EA0164501707000000000000
B0626323131475S11728730EA0164201706000000000000
B0626363131530S11728664EA0164001703000000000000
B0626403131583S11728598EA0163801700000000000000
B0626443131635S11728532EA0163301693000000000000
B0626483131687S11728467EA0162601686000000000000
B0626523131738S11728399EA0162101681000000000000
B0626563131791S11728335EA0161501676000000000000
B0627003131846S11728281EA0161401673000000000000
B0627043131900S11728231EA0160801665000000000000
B0627083131959S11728179EA0159601652000000000000
B0627123132017S11728126EA0158801647000000000000
B0627163132078S11728073EA0158401644000000000000
B0627203132141S11728023EA0158301642000000000000
B0627243132204S11727975EA0157501633000000000000
B0627283132269S11727924EA0156601624000000000000
B0627323132333S11727869EA0156201621000000000000
B0627363132395S11727810EA0155701618000000000000
B0627403132458S11727755EA0155501616000000000000
B0627443132522S11727700EA0155601616000004000000
B0627483132579S11727644EA0156501628000004000000
B0627523132628S11727583EA0157401636000004000000
B0627563132675S11727521EA0157001625000000000000
B0628003132727S11727460EA0155001602000004000000
B0628043132785S11727397EA0153801598000000000000
B0628083132841S11727330EA0154601614000000000000
B0628123132905S11727287EA0156701634000000000000
B0628163132969S11727299EA0157801636000000000000
B0628203132983S11727354EA0158601646000004015000
B0628243132947S11727385EA0159201641000000015000
B0628283132888S11727359EA0158001632000000015000
B0628323132843S11727298EA0157301629000000015000
B0628363132801S11727224EA0158101638000000015000
B0628403132749S11727183EA0159901646000000015000
B0628443132717S11727243EA0160501643000004015000
B0628483132758S11727284EA0160001643000000030000
B0628523132821S11727256EA0160301651000004030000
B0628563132844S11727182EA0161201669000000045000
B0629003132788S11727144EA0162801689000000030000
B0629043132754S11727193EA0163801697000000030000
B0629083132789S11727238EA0164701711000000030000
B0629123132837S11727195EA0165901722000000030000
B0629163132805S11727131EA0166901730000000045000
B0629203132758S11727165EA0167601751000004030000
B0629243132774S11727221EA0169601765000004030000
B0629283132830S11727216EA0170501769000004030000
B0629323132844S11727143EA0170801771000004030000
B0629363132791S11727100EA0170701774000004030000
B0629403132748S11727141EA0171701791000004030000
B0629443132765S11727198EA0173101800000004030000
B0629483132822S11727204EA0173901802000000030000
B0629523132857S11727143EA0174101807000000030000
B0629563132840S11727070EA0174201808000004030000
B0630003132784S11727048EA0174501811000004030000
B0630043132754S11727095EA0174701815000000015000
B0630083132779S11727148EA0175501824000004015000
B0630123132835S11727161EA0176301828000000015000
B0630163132892S11727129EA0176001815000004015000
B0630203132948S11727073EA0174101800000000015000
B0630243133004S11727005EA0172801792000000015000
B0630283133060S11726934EA0172201788000000015000
B0630323133114S11726862EA0171901787000000015000
B0630363133172S11726791EA0171001777000004015000
B0630403133230S11726717EA0169601764000004015000
B0630443133290S11726641EA0168201752000000015000
B0630483133352S11726569EA0167801749000004015000
B0630523133416S11726497EA0167101740000004015000
B0630563133476S11726426EA0167401750000004030000
B0631003133532S11726357EA0168201752000004030000
B0631043133586S11726289EA0168101745000004030000
B0631083133642S11726218EA0167001728000004030000
B0631123133702S11726145EA0165301713000004015000
B0631163133762S11726069EA0164001701000004015000
B0631203133819S11725994EA0163701700000004015000
B0631243133874S11725916EA0163601698000000015000
B0631283133929S11725838EA0163401697000000015000
B0631323133984S11725759EA0163401696000004015000
B0631363134041S11725681EA0163601697000000015000
B0631403134096S11725603EA0163301690000004015000
B0631443134149S11725522EA0162501678000004015000
B0631483134201S11725440EA0161601673000000015000
B0631523134257S11725361EA0160601662000000000000
B0631563134312S11725284EA0160101655000004000000
B0632003134365S11725201EA0159001644000004000000
B0632043134418S11725115EA0157701634000004000000
B0632083134472S11725029EA0157201630000000000000
B0632123134526S11724945EA0156501620000000000000
B0632163134585S11724864EA0155601615000004000000
B0632203134642S11724789EA0155401613000000000000
B0632243134699S11724716EA0155001610000004000000
B0632283134756S11724645EA0154701606000000000000
B0632323134811S11724576EA0154301603000004000000
B0632363134865S11724507EA0153901598000000000000
B0632403134919S11724439EA0153401593000004000000
B0632443134972S11724372EA0153501590000004000000
B0632483135027S11724308EA0152901583000000000000
B0632523135084S11724247EA0152101577000000000000
B0632563135141S11724184EA0151601572000004000000
B0633003135198S11724125EA0151401568000004000000
B0633043135254S11724066EA0151001562000000000000
B0633083135313S11724008EA0150201553000000000000
B0633123135375S11723948EA0149501544000000000000
B0633163135441S11723888EA0148901540000004000000
B0633203135506S11723829EA0148901543000000000000
B0633243135566S11723771EA0148701539000000000000
B0633283135623S11723711EA0148201532000004000000
B0633323135677S11723647EA0147201519000000000000
B0633363135731S11723584EA0146001506000000000000
B0633403135787S11723521EA0145001495000000000000
B0633443135842S11723459EA0143401479000000000000
B0633483135896S11723395EA0142901481000004000000
B0633523135950S11723338EA0143901494000004000000
B0633563135974S11723269EA0145601518000000000000
B0634003135938S11723208EA0147801538000000015000
B0634043135873S11723203EA0149001547000000015000
B0634083135827S11723252EA0150201560000000015000
B0634123135843S11723309EA0151001564000000015000
B0634163135890S11723303EA0151201566000000015000
B0634203135905S11723238EA0151601573000000015000
B0634243135869S11723179EA0153201592000000015000
B0634283135805S11723173EA0154401604000000015000
B0634323135756S11723216EA0156101619000004015000
B0634363135759S11723274EA0156801621000000015000
B0634403135803S11723293EA0156701619000004015000
B0634443135837S11723246EA0157001623000000015000
B0634483135833S11723177EA0157601627000000015000
B0634523135778S11723137EA0159101646000000030000
B0634563135736S11723182EA0160801662000000030000
B0635003135760S11723233EA0161501668000000015000
B0635043135801S11723217EA0161701667000000015000
B0635083135805S11723146EA0161001666000000030000
B0635123135774S11723072EA0162201673000004030000
B0635163135726S11723008EA0164101682000004030000
B0635203135682S11722978EA0165201691000000030000
B0635243135668S11723016EA0166201698000004030000
B0635283135721S11723065EA0167001711000004030000
B0635323135712S11723014EA0168801730000004045000
B0635363135664S11723013EA0170201749000004030000
B0635403135631S11723070EA0171401766000004015000
B0635443135660S11723121EA0172201775000004015000
B0635483135713S11723109EA0172701782000000015000
B0635523135733S11723036EA0173501795000000015000
B0635563135686S11722977EA0175001814000004015000
B0636003135623S11722995EA0176001826000000015000
B0636043135610S11723060EA0177301838000004015000
B0636083135655S11723092EA0178301843000004015000
B0636123135695S11723046EA0179001855000000015000
B0636163135673S11722973EA0179801859000004015000
B0636203135603S11722943EA0179901860000004015000
B0636243135540S11722981EA0181001879000000015000
B0636283135526S11723047EA0182301882000000015000
B0636323135562S11723091EA0182401882000000000000
B0636363135617S11723077EA0182301881000000015000
B0636403135666S11723025EA0181901877000000000000
B0636443135716S11722962EA0181101864000000000000
B0636483135769S11722893EA0179901855000000000000
B0636523135824S11722823EA0178901846000000000000
B0636563135881S11722749EA0178201835000000015000
B0637003135938S11722674EA0177201833000000015000
B0637043135993S11722597EA0177201834000004015000
B0637083136047S11722524EA0177001833000000015000
B0637123136102S11722453EA0176801830000004015000
B0637163136159S11722381EA0176401825000000015000
B0637203136215S11722311EA0176001821000000015000
B0637243136272S11722245EA0175701817000000000000
B0637283136332S11722180EA0175101811000000000000
B0637323136392S11722117EA0174501806000000000000
B0637363136451S11722056EA0174201803000000000000
B0637403136509S11721996EA0173901802000004000000
B0637443136566S11721941EA0173601797000000000000
B0637483136622S11721886EA0173301793000000000000
B0637523136679S11721833EA0172901788000000000000
B0637563136734S11721778EA0172501783000000000000
B0638003136791S11721722EA0171801776000000000000
B0638043136849S11721666EA0171201771000000000000
B0638083136906S11721610EA0170601766000000000000
B0638123136964S11721553EA0170101761000000000000
B0638163137020S11721496EA0169401754000000000000
B0638203137077S11721440EA0168601741000000000000
B0638243137135S11721384EA0167401729000000000000
B0638283137194S11721331EA0166301718000000000000
B0638323137254S11721279EA0164901702000000000000
B0638363137313S11721226EA0163201685000000000000
B0638403137373S11721168EA0161701671000004000000
B0638443137432S11721111EA0160801667000004000000
B0638483137489S11721057EA0160401664000004000000
B0638523137543S11721001EA0160301663000004000000
B0638563137597S11720942EA0160101657000004000000
B0639003137654S11720884EA0158801640000004000000
B0639043137712S11720821EA0157901636000000000000
B0639083137771S11720760EA0157401630000004000000
B0639123137828S11720699EA0156701624000004000000
B0639163137884S11720637EA0155901614000004000000
B0639203137940S11720574EA0155001607000004000000
B0639243137996S11720513EA0154401598000004000000
B0639283138053S11720452EA0153201585000000000000
B0639323138109S11720392EA0152101575000004000000
B0639363138164S11720331EA0151601575000004000000
B0639403138217S11720273EA0151801578000000000000
B0639443138268S11720214EA0152201579000000000000
B0639483138320S11720157EA0152201579000000000000
B0639523138370S11720097EA0152201580000000000000
B0639563138416S11720032EA0152101575000004000000
B0640003138465S11719965EA0151201567000004000000
B0640043138517S11719896EA0150701565000004000000
B0640083138574S11719835EA0151201572000000000000
B0640123138641S11719798EA0151401572000000000000
B0640163138708S11719788EA0151301571000000000000
B0640203138776S11719779EA0151001565000000000000
B0640243138840S11719744EA0149801548000000000000
B0640283138897S11719684EA0148501538000000000000
B0640323138949S11719616EA0147801534000000000000
B0640363138998S11719545EA0147301528000004000000
B0640403139048S11719473EA0146801523000000000000
B0640443139098S11719400EA0145901511000004000000
B0640483139149S11719329EA0144901504000004000000
B0640523139201S11719260EA0144401497000004000000
B0640563139253S11719194EA0143601491000000000000
B0641003139305S11719126EA0143101488000004000000
B0641043139356S11719060EA0142701480000004000000
B0641083139409S11718993EA0142501482000004000000
B0641123139460S11718926EA0142601480000004000000
B0641163139499S11718848EA0142201476000004000000
B0641203139535S11718770EA0141501469000000000000
B0641243139577S11718697EA0140401457000000000000
B0641283139622S11718627EA0139401446000000000000
B0641323139669S11718558EA0138001432000000000000
B0641363139717S11718489EA0136901421000004000000
B0641403139763S11718418EA0136101414000004000000
B0641443139805S11718345EA0135201403000004000000
B0641483139850S11718271EA0134401397000000000000
B0641523139894S11718197EA0133801390000000000000
B0641563139939S11718122EA0133201387000000000000
B0642003139984S11718048EA0133001385000000000000
B0642043140029S11717974EA0132701381000004000000
B0642083140076S11717898EA0132101374000004000000
B0642123140120S11717821EA0131201364000000000000
B0642163140164S11717742EA0130301353000000000000
B0642203140208S11717658EA0129501345000000000000
B0642243140251S11717578EA0128901339000000000000
B0642283140301S11717498EA0128001329000000000000
B0642323140351S11717424EA0127101321000004000000
B0642363140401S11717352EA0126601319000004000000
B0642403140449S11717279EA0126601319000004000000
B0642443140496S11717205EA0126801321000000000000
B0642483140520S11717119EA0127201327000000000000
B0642523140500S11717032EA0127501323000000000000
B0642563140444S11716978EA0126901315000000000000
B0643003140374S11716959EA0125801301000004000000
B0643043140315S11716991EA0124601288000000000000
B0643083140297S11717059EA0123601285000000000000
B0643123140294S11717131EA0123501283000000000000
B0643163140292S11717203EA0123301282000000000000
B0643203140307S11717267EA0123601284000000000000
B0643243140348S11717311EA0123101276000000000000
B0643283140406S11717333EA0122501270000004000000
B0643323140471S11717340EA0121801260000000000000
B0643363140540S11717320EA0120701253000000000000
B0643403140605S11717274EA0120101247000000000000
B0643443140662S11717210EA0119101238000000000000
B0643483140713S11717132EA0118501232000000000000
B0643523140748S11717046EA0118501230000000000000
B0643563140769S11716954EA0118701230000000000000
B0644003140773S11716856EA0118401222000000000000
B0644043140764S11716759EA0117501214000000000000
B0644083140743S11716664EA0116501204000000000000
B0644123140714S11716572EA0115301195000004000000
B0644163140680S11716478EA0114201185000000015000
B0644203140645S11716386EA0113801184000000000000
B0644243140610S11716295EA0113701183000000000000
B0644283140576S11716206EA0113001174000000000000
B0644323140539S11716118EA0112101168000000000000
B0644363140501S11716029EA0112101170000000000000
B0644403140465S11715941EA0112401174000000000000
B0644443140410S11715872EA0113901190000000015000
B0644483140337S11715850EA0114101179000000015000
B0644523140289S11715897EA0113401179000000015000
B0644563140305S11715942EA0112901168000000015000
B0645003140348S11715914EA0111701163000000030000
B0645043140355S11715834EA0112101168000000015000
B0645083140340S11715750EA0111201146000000015000
B0645123140322S11715659EA0109301134000000015000
B0645163140303S11715567EA0108101122000004000000
B0645203140285S11715472EA0107101108000004000000
B0645243140267S11715378EA0106101103000004000000
B0645283140253S11715288EA0106301109000004000000
B0645323140247S11715204EA0106701110000004000000
B0645363140234S11715122EA0106401106000004000000
B0645403140220S11715039EA0105901100000004000000
B0645443140207S11714952EA0105001090000004000000
B0645483140198S11714859EA0103701075000004000000
B0645523140180S11714766EA0102401062000004000000
B0645563140149S11714680EA0101301052000004000000
B0646003140108S11714599EA0100401039000004000000
B0646043140076S11714514EA0099301029000004000000
B0646083140063S11714421EA0098201019000000000000
B0646123140064S11714329EA0097001008000004000000
B0646163140052S11714238EA0096301002000004000000
B0646203140013S11714159EA0095800996000000000000
B0646243139955S11714095EA0095000986000000000000
B0646283139885S11714043EA0094100980000000000000
B0646323139813S11713999EA0093700976000004000000
B0646363139738S11713962EA0093100968000000000000
B0646403139660S11713934EA0092500963000000000000
B0646443139581S11713916EA0091600950000000000000
B0646483139499S11713920EA0090200937000004000000
B0646523139417S11713938EA0089300930000000000000
