ACAM4N6
HFDTE070315
HFFXA050
HFPLTPILOT:JOHN WELSH              
HFGTYGLIDERTYPE:HORNET      
HFGIDGLIDERID:VH-GMY      
HFDTM100GPSDATUM:
HFRFWFIRMWAREVERSION:F2.6
HFRHWHARDWAREVERSION:300 Series Version 2
HFFTYFRTYPE:CAMBRIDGE AERO INSTRUMENTS, 302+
HFGPS:GARMIN,LVS-25,12,18000
HFPRSPRESSALTSENSOR:INTERSEMA, MS5534-AP, 20000
I033638FXA3941ENL4247REX
LCAMSBVER:5FWVER:F26300
C070315035324070315000102
C0000000N00000000WTAKEOFF     
C3207547S11656819EBeverley AF 
C3110883S11723219EWyalkatchem 
C3152967S11809479EBruce Rock  
C3207547S11656819EBeverley Air
C0000000N00000000WLANDING     
B0358293207339S11656858EA0017000205000000000000
B0358313207339S11656858EA0017000205000000000000
B0358333207339S11656858EA0017000205000000000000
B0358353207339S11656858EA0017000205000000000000
B0358373207339S11656858EA0017000205000000000000
B0358393207339S11656858EA0016800205000000000000
B0358413207339S11656858EA0016900205000000000000
B0358433207339S11656858EA0016900205000000000000
B0358453207339S11656858EA0017000205000000000000
B0358473207339S11656858EA0016900205000000000000
B0358493207339S11656858EA0017000205000000000000
B0358513207339S11656858EA0017000205000000000000
B0358533207341S11656858EA0017000206000000000000
B0358553207342S11656858EA0017100207000000000000
B0358573207345S11656861EA0016900208000000000000
B0359003207355S11656871EA0017000209000000000000
B0359043207384S11656895EA0016700210000000000000
B0359083207428S11656926EA0016900211000000000000
B0359123207482S11656962EA0017000212000000000000
B0359163207538S11657012EA0017200219000000000000
B0359203207590S11657065EA0018200237000000000000
B0359243207641S11657117EA0019800254000000000000
B0359283207696S11657172EA0021500276000000000000
B0359323207750S11657224EA0023600297000000000000
B0359363207805S11657276EA0025300313000000000000
B0359403207858S11657330EA0026700330000000000000
B0359443207914S11657381EA0028000346000000000000
B0359483207967S11657433EA0030500374000000000000
B0359523208018S11657489EA0033000398000000000000
B0359563208054S11657562EA0034200406000000000000
B0400003208064S11657646EA0035000417000000000000
B0400043208044S11657725EA0036500435000000000000
B0400083208005S11657794EA0038500456000000000000
B0400123207949S11657848EA0040200469000000000000
B0400163207882S11657883EA0041700489000000000000
B0400203207806S11657891EA0043300503000000000000
B0400243207727S11657872EA0044400511000000000000
B0400283207654S11657823EA0045500525000000000000
B0400323207603S11657741EA0047300544000000000000
B0400363207581S11657642EA0049100560000000000000
B0400403207581S11657540EA0050800578000000000000
B0400443207610S11657443EA0052800596000000000000
B0400483207661S11657368EA0054900618000000000000
B0400523207726S11657319EA0056600638000000000000
B0400563207797S11657287EA0058400651000000000000
B0401003207872S11657281EA0059500664000000000000
B0401043207941S11657295EA0061100679000000000000
B0401083208006S11657326EA0062600691000000000000
B0401123208061S11657380EA0063600701000000000000
B0401163208097S11657450EA0064700711000000000000
B0401203208117S11657529EA0065700721000000000000
B0401243208125S11657612EA0067300736000000000000
B0401283208129S11657697EA0068900753000000000000
B0401323208130S11657780EA0070400774000000000000
B0401363208135S11657858EA0072500793000000000000
B0401403208174S11657906EA0073700805000000000000
B0401443208231S11657881EA0074600809000000000000
B0401483208248S11657805EA0075000815000000000000
B0401523208216S11657736EA0075200811000000000000
B0401563208155S11657703EA0074500801000000000000
B0402003208093S11657725EA0073700796000000000000
B0402043208065S11657785EA0073500795000000000000
B0402083208061S11657854EA0073200792000000000000
B0402123208073S11657922EA0073100788000000000000
B0402163208103S11657982EA0072600781000000000000
B0402203208142S11658035EA0072500779000000000000
B0402243208197S11658060EA0072000774000000000000
B0402283208255S11658035EA0071600773000000000000
B0402323208287S11657971EA0071500768000000000000
B0402363208275S11657896EA0070500756000000000000
B0402403208234S11657831EA0069600747000000000000
B0402443208181S11657780EA0069800751000000000000
B0402483208117S11657772EA0069900753000000000000
B0402523208100S11657822EA0071000766000000000000
B0402563208144S11657829EA0071200767000000000000
B0403003208178S11657771EA0070600767000000000000
B0403043208155S11657707EA0071400773000000000000
B0403083208103S11657714EA0071800778000000015000
B0403123208093S11657767EA0072000780000000015000
B0403163208140S11657775EA0072100781000000015000
B0403203208168S11657712EA0072500786000000015000
B0403243208140S11657654EA0073400791000000000000
B0403283208088S11657651EA0073500790000000000000
B0403323208064S11657703EA0073500789000000000000
B0403363208086S11657749EA0073900791000000000000
B0403403208136S11657746EA0074200794000000000000
B0403443208173S11657694EA0074700800000000000000
B0403483208170S11657628EA0075100803000000000000
B0403523208131S11657581EA0075100801000000000000
B0403563208080S11657582EA0075000799000000000000
B0404003208044S11657623EA0074900800000000000000
B0404043208041S11657680EA0074700800000000000000
B0404083208084S11657710EA0074700797000000000000
B0404123208138S11657686EA0074700799000000000000
B0404163208166S11657619EA0074600798000000000000
B0404203208144S11657546EA0074700798000000000000
B0404243208090S11657515EA0074500793000000000000
B0404283208036S11657541EA0074200791000000000000
B0404323208018S11657605EA0073900791000000000000
B0404363208045S11657659EA0074100794000000000000
B0404403208100S11657640EA0074300793000000000000
B0404443208121S11657567EA0074300794000000000000
B0404483208087S11657502EA0074500795000000000000
B0404523208027S11657481EA0074400792000000000000
B0404563207979S11657517EA0074700799000000000000
B0405003208000S11657568EA0075300806000000000000
B0405043208047S11657536EA0075200810000000015000
B0405083208039S11657463EA0075500810000000000000
B0405123207983S11657429EA0075600812000000000000
B0405163207927S11657452EA0076000816000000000000
B0405203207909S11657515EA0076100819000000000000
B0405243207948S11657554EA0076500825000000000000
B0405283207999S11657527EA0076500829000000000000
B0405323208014S11657454EA0076700829000000000000
B0405363207975S11657391EA0076900829000000000000
B0405403207915S11657398EA0077100831000000000000
B0405443207910S11657456EA0077800840000000000000
B0405483207963S11657442EA0078100843000000015000
B0405523207973S11657363EA0078800856000000015000
B0405563207932S11657303EA0079400854000000000000
B0406003207871S11657306EA0078900848000000000000
B0406043207843S11657363EA0078900850000000000000
B0406083207874S11657413EA0079400856000000000000
B0406123207928S11657395EA0080300865000000000000
B0406163207949S11657321EA0080400868000000000000
B0406203207917S11657254EA0081200874000000000000
B0406243207861S11657237EA0081300874000000000000
B0406283207814S11657272EA0081000873000000000000
B0406323207796S11657338EA0080700870000000000000
B0406363207819S11657400EA0080300868000000000000
B0406403207879S11657408EA0080300872000000000000
B0406443207924S11657347EA0080600874000000000000
B0406483207913S11657265EA0081000883000000000000
B0406523207853S11657242EA0081700890000000000000
B0406563207813S11657286EA0081800890000000000000
B0407003207827S11657346EA0081300886000000000000
B0407043207883S11657365EA0081300888000000015000
B0407083207939S11657325EA0081400890000000000000
B0407123207967S11657247EA0081300887000000000000
B0407163207986S11657160EA0080100869000000000000
B0407203207999S11657066EA0078300854000000000000
B0407243208015S11656969EA0077100844000000000000
B0407283208032S11656871EA0076200836000000000000
B0407323208052S11656776EA0075800830000000000000
B0407363208067S11656682EA0075900832000000000000
B0407403208049S11656593EA0076300835000000000000
B0407443208008S11656522EA0076000832000000000000
B0407483207943S11656493EA0076400838000000000000
B0407523207879S11656507EA0076200830000000000000
B0407563207833S11656557EA0075200820000000000000
B0408003207830S11656628EA0073500808000000000000
B0408043207854S11656696EA0073400808000000000000
B0408083207884S11656760EA0073500812000000000000
B0408123207918S11656821EA0074100814000000000000
B0408163207954S11656882EA0073200803000000000000
B0408203207993S11656947EA0072200790000000000000
B0408243208032S11657010EA0071300786000000000000
B0408283208075S11657072EA0070800780000000000000
B0408323208114S11657134EA0070000769000000000000
B0408363208149S11657205EA0068900757000000000000
B0408403208177S11657283EA0067700747000000000000
B0408443208199S11657363EA0066900740000000000000
B0408483208217S11657445EA0066200730000000000000
B0408523208233S11657525EA0065400725000000000000
B0408563208253S11657603EA0065000721000000000000
B0409003208277S11657676EA0064600716000000000000
B0409043208312S11657742EA0064000710000000000000
B0409083208353S11657803EA0063600709000000000000
B0409123208394S11657865EA0063300701000000000000
B0409163208433S11657928EA0062400693000000000000
B0409203208467S11657996EA0062200691000000000000
B0409243208487S11658069EA0061900684000000000000
B0409283208493S11658148EA0061300679000000000000
B0409323208500S11658227EA0060800675000000000000
B0409363208521S11658305EA0060200664000000000000
B0409403208546S11658388EA0058700649000000000000
B0409443208560S11658476EA0057700644000000000000
B0409483208574S11658561EA0057300636000000000000
B0409523208587S11658647EA0056500629000000000000
B0409563208602S11658732EA0055700621000000000000
B0410003208633S11658806EA0055300620000000000000
B0410043208686S11658851EA0055100617000000000000
B0410083208753S11658840EA0055300622000000000000
B0410123208786S11658763EA0055600619000000000000
B0410163208754S11658691EA0055100619000000000000
B0410203208693S11658659EA0054500608000000000000
B0410243208628S11658630EA0052900588000000000000
B0410283208560S11658602EA0051500576000000000000
B0410323208491S11658572EA0050700567000000000000
B0410363208422S11658544EA0049400553000000000000
B0410403208350S11658530EA0048300545000000000000
B0410443208275S11658522EA0048000539000000000000
B0410483208200S11658528EA0048100542000000000000
B0410523208160S11658586EA0049300553000000000000
B0410563208200S11658637EA0049800554000000000000
B0411003208240S11658593EA0050600570000000000000
B0411043208205S11658542EA0052000579000000000000
B0411083208153S11658564EA0052200581000000000000
B0411123208148S11658630EA0052000575000000000000
B0411163208197S11658661EA0052100583000000000000
B0411203208243S11658622EA0053400596000000000000
B0411243208220S11658565EA0054700610000000000000
B0411283208165S11658570EA0055200612000000000000
B0411323208142S11658633EA0054600605000000000000
B0411363208181S11658681EA0055000615000000000000
B0411403208229S11658646EA0056300622000000000000
B0411443208220S11658580EA0056600630000000000000
B0411483208166S11658591EA0057500637000000015000
B0411523208170S11658655EA0058000645000000000000
B0411563208221S11658658EA0058700651000000015000
B0412003208243S11658594EA0058700652000000015000
B0412043208199S11658551EA0059700666000000015000
B0412083208160S11658591EA0060900674000000015000
B0412123208183S11658645EA0061000678000000015000
B0412163208234S11658625EA0061800684000000015000
B0412203208238S11658556EA0062300692000000000000
B0412243208187S11658521EA0063500700000000000000
B0412283208140S11658559EA0063900705000000000000
B0412323208148S11658624EA0064500711000000000000
B0412363208197S11658638EA0065500722000000015000
B0412403208227S11658576EA0065900726000000000000
B0412443208188S11658525EA0067600748000000000000
B0412483208143S11658556EA0068500754000000000000
B0412523208153S11658615EA0068800758000000000000
B0412563208207S11658603EA0069800772000000015000
B0413003208230S11658537EA0070300776000000000000
B0413043208196S11658472EA0070900786000000000000
B0413083208139S11658461EA0072300802000000000000
B0413123208101S11658505EA0073100803000000000000
B0413163208108S11658567EA0073200806000000000000
B0413203208152S11658591EA0074300818000000000000
B0413243208194S11658554EA0075300826000000000000
B0413283208190S11658489EA0075800832000000000000
B0413323208142S11658457EA0077000843000000000000
B0413363208095S11658487EA0077100843000000000000
B0413403208079S11658548EA0077300849000000000000
B0413443208104S11658604EA0078100858000000000000
B0413483208156S11658607EA0079500871000000000000
B0413523208195S11658560EA0080700878000000000000
B0413563208195S11658491EA0081200889000000000000
B0414003208145S11658461EA0082500899000000000000
B0414043208101S11658494EA0083100907000000000000
B0414083208103S11658554EA0084300920000000000000
B0414123208148S11658574EA0085600936000000000000
B0414163208187S11658531EA0086700947000000000000
B0414203208171S11658470EA0087500957000000000000
B0414243208121S11658469EA0088400965000000000000
B0414283208104S11658526EA0089100972000000000000
B0414323208144S11658565EA0089800978000000000000
B0414363208192S11658535EA0091400993000000000000
B0414403208187S11658474EA0092801004000000000000
B0414443208135S11658455EA0093401010000000000000
B0414483208099S11658500EA0094301019000000000000
B0414523208118S11658557EA0095201028000000000000
B0414563208170S11658564EA0096501042000000000000
B0415003208210S11658521EA0096901045000000000000
B0415043208203S11658455EA0097101051000000000000
B0415083208153S11658435EA0097701058000000000000
B0415123208123S11658485EA0098401065000000000000
B0415163208149S11658537EA0099501077000000000000
B0415203208203S11658530EA0100601085000000000000
B0415243208234S11658473EA0099701077000000000000
B0415283208208S11658409EA0099801083000000000000
B0415323208155S11658409EA0100701091000000000000
B0415363208135S11658465EA0101601098000000000000
B0415403208173S11658511EA0101901103000000000000
B0415443208223S11658485EA0102601106000000000000
B0415483208231S11658421EA0102601105000000000000
B0415523208183S11658390EA0102601109000000000000
B0415563208143S11658429EA0103101115000000000000
B0416003208153S11658489EA0104001123000000000000
B0416043208204S11658509EA0104301126000000000000
B0416083208260S11658481EA0103901121000000000000
B0416123208301S11658418EA0102801109000000000000
B0416163208309S11658334EA0102201104000000000000
B0416203208278S11658258EA0101901101000000000000
B0416243208223S11658205EA0101401096000000000000
B0416283208157S11658199EA0101001093000000000000
B0416323208101S11658239EA0100901094000000000000
B0416363208069S11658308EA0100901097000000000000
B0416403208056S11658387EA0101901110000000000000
B0416443208074S11658461EA0103701125000000000000
B0416483208126S11658504EA0105001140000000000000
B0416523208190S11658494EA0106301152000000000000
B0416563208223S11658427EA0106701152000000000000
B0417003208192S11658359EA0106101146000000000000
B0417043208129S11658346EA0106101143000000000000
B0417083208064S11658366EA0105701146000000000000
B0417123208019S11658420EA0107101163000000000000
B0417163208030S11658485EA0108401172000000000000
B0417203208084S11658504EA0109301183000000000000
B0417243208130S11658455EA0110501194000000000000
B0417283208123S11658383EA0111301203000000000000
B0417323208067S11658355EA0111701206000000000000
B0417363208018S11658388EA0112901220000000000000
B0417403208014S11658451EA0114001225000000000000
B0417443208057S11658491EA0114201229000000000000
B0417483208112S11658470EA0115001237000000000000
B0417523208132S11658403EA0115501243000000000000
B0417563208110S11658334EA0116001249000000000000
B0418003208057S11658313EA0116601256000000000000
B0418043208018S11658355EA0117701267000000000000
B0418083208019S11658414EA0118501273000000000000
B0418123208057S11658452EA0119201279000000000000
B0418163208112S11658442EA0119801286000000000000
B0418203208140S11658386EA0120001290000000000000
B0418243208121S11658323EA0120401294000000000000
B0418283208067S11658297EA0120401296000000000000
B0418323208014S11658320EA0121101302000000000000
B0418363207993S11658382EA0121601304000000000000
B0418403208019S11658439EA0122101308000000000000
B0418443208071S11658466EA0122601314000000000000
B0418483208127S11658453EA0123101319000000000000
B0418523208162S11658398EA0123201320000000000000
B0418563208160S11658329EA0123301321000000000000
B0419003208118S11658275EA0123401323000000000000
B0419043208064S11658257EA0123501327000000000000
B0419083208017S11658288EA0124301332000000000000
B0419123208000S11658348EA0124601337000000000000
B0419163208014S11658409EA0124901341000000000000
B0419203208057S11658452EA0124901338000000000000
B0419243208117S11658465EA0124501334000000000000
B0419283208179S11658443EA0124201333000000000000
B0419323208233S11658400EA0124401334000000000000
B0419363208274S11658343EA0124601334000000000000
B0419403208295S11658270EA0124101328000000000000
B0419443208279S11658196EA0123301318000000000000
B0419483208229S11658154EA0122201308000000000000
B0419523208175S11658171EA0121401302000000000000
B0419563208152S11658231EA0120901297000000000000
B0420003208153S11658300EA0120701299000000000000
B0420043208165S11658369EA0120701296000000000000
B0420083208188S11658434EA0120501293000000000000
B0420123208239S11658473EA0119801288000000000000
B0420163208294S11658450EA0119501280000000000000
B0420203208307S11658379EA0118001267000000000000
B0420243208290S11658303EA0117201261000000000000
B0420283208266S11658226EA0116701255000000000000
B0420323208242S11658148EA0115801247000000000000
B0420363208214S11658067EA0114801235000000000000
B0420403208187S11657988EA0114101229000000000000
B0420443208158S11657913EA0113901225000000000000
B0420483208127S11657837EA0113101213000000000000
B0420523208092S11657761EA0112001204000000000000
B0420563208056S11657681EA0110901193000000000000
B0421003208018S11657603EA0110101183000000000000
B0421043207980S11657523EA0109101176000000000000
B0421083207943S11657443EA0108501170000000000000
B0421123207905S11657367EA0108201165000000000000
B0421163207866S11657290EA0107701161000000000000
B0421203207828S11657216EA0107101154000000000000
B0421243207791S11657144EA0107001154000000000000
B0421283207748S11657078EA0106901156000000000000
B0421323207703S11657017EA0107501162000000000000
B0421363207655S11656961EA0107901166000000000000
B0421403207599S11656930EA0109001177000000000000
B0421443207554S11656956EA0110501192000000000000
B0421483207558S11657020EA0111001193000000000000
B0421523207607S11657044EA0111401199000000000000
B0421563207661S11657014EA0111701200000000000000
B0422003207671S11656947EA0111401199000000000000
B0422043207641S11656886EA0111901203000000000000
B0422083207588S11656873EA0112401209000000000000
B0422123207567S11656923EA0112901209000000000000
B0422163207610S11656965EA0112801211000000000000
B0422203207661S11656931EA0113701223000000000000
B0422243207671S11656865EA0114201226000000000000
B0422283207633S11656814EA0114001223000000000000
B0422323207573S11656804EA0114001224000000000000
B0422363207510S11656814EA0113201214000000000000
B0422403207445S11656843EA0112701211000000000000
B0422443207376S11656878EA0110801185000000000000
B0422483207302S11656914EA0109601173000000000000
B0422523207226S11656951EA0108201159000000000000
B0422563207151S11656988EA0107301152000000000000
B0423003207077S11657029EA0107001151000000000000
B0423043207008S11657068EA0107201150000000000000
B0423083206936S11657105EA0106501142000000000000
B0423123206865S11657142EA0105801135000000000000
B0423163206791S11657177EA0105201130000000000000
B0423203206718S11657212EA0104601125000000000000
B0423243206647S11657246EA0104701128000000000000
B0423283206580S11657277EA0105101127000000000000
B0423323206514S11657308EA0104501119000000000000
B0423363206446S11657339EA0103701114000000000000
B0423403206380S11657372EA0103301113000000000000
B0423443206316S11657407EA0103201108000000000000
B0423483206253S11657442EA0102501100000000000000
B0423523206186S11657476EA0101901094000000000000
B0423563206119S11657506EA0101101087000000000000
B0424003206047S11657534EA0100701081000000000000
B0424043205976S11657560EA0100201075000000000000
B0424083205904S11657588EA0099601071000000000000
B0424123205834S11657615EA0098801061000000000000
B0424163205763S11657646EA0098101058000000000000
B0424203205695S11657677EA0098201054000000000000
B0424243205627S11657710EA0097301046000000000000
B0424283205562S11657744EA0097101045000000000000
B0424323205499S11657780EA0096801041000000000000
B0424363205443S11657827EA0096701043000000000000
B0424403205405S11657891EA0097001044000000000000
B0424443205378S11657962EA0097901055000000000000
B0424483205397S11658031EA0099401071000000000000
B0424523205452S11658032EA0100501078000000000000
B0424563205478S11657967EA0099901067000000000000
B0425003205436S11657913EA0099801075000000000000
B0425043205373S11657909EA0100701085000000000000
B0425083205330S11657958EA0101401091000000000000
B0425123205345S11658027EA0102301101000000000000
B0425163205401S11658024EA0102701107000000000000
B0425203205415S11657957EA0103201113000000000000
B0425243205369S11657911EA0103701123000000000000
B0425283205317S11657943EA0104401128000000000000
B0425323205322S11658013EA0105501140000000000000
B0425363205375S11658037EA0106101140000000000000
B0425403205423S11657998EA0106101142000000000000
B0425443205434S11657931EA0105401136000000000000
B0425483205389S11657888EA0106001145000000000000
B0425523205334S11657900EA0107001152000000000000
B0425563205304S11657963EA0106901156000000000000
B0426003205330S11658027EA0108301167000000000000
B0426043205386S11658008EA0108101157000000000000
B0426083205392S11657935EA0107101150000000000000
B0426123205345S11657881EA0107301163000000000000
B0426163205285S11657889EA0108801174000000000000
B0426203205269S11657954EA0110001185000000000000
B0426243205314S11657987EA0111301202000000015000
B0426283205347S11657945EA0112501211000000015000
B0426323205319S11657891EA0112301208000000000000
B0426363205262S11657885EA0112801217000000000000
B0426403205235S11657945EA0113901222000000000000
B0426443205263S11657998EA0114401226000000000000
B0426483205317S11657995EA0114601230000000015000
B0426523205347S11657940EA0114701230000000000000
B0426563205318S11657878EA0115101242000000000000
B0427003205259S11657866EA0116101251000000000000
B0427043205218S11657917EA0116501252000000000000
B0427083205235S11657983EA0116501250000000000000
B0427123205292S11657991EA0116801258000000000000
B0427163205334S11657943EA0117601264000000000000
B0427203205323S11657876EA0118301274000000000000
B0427243205265S11657865EA0118401274000000000000
B0427283205220S11657922EA0118701280000000000000
B0427323205217S11657995EA0119001282000000000000
B0427363205262S11658036EA0118801275000000000000
B0427403205314S11658004EA0117701265000000000000
B0427443205297S11657937EA0117201258000000000000
B0427483205228S11657930EA0117101261000000000000
B0427523205158S11657954EA0116501249000000000000
B0427563205085S11657988EA0114701230000000000000
B0428003205009S11658028EA0113201214000000000000
B0428043204932S11658069EA0112401213000000000000
B0428083204859S11658106EA0112501210000000000000
B0428123204786S11658144EA0112101205000000000000
B0428163204716S11658179EA0112101208000000000000
B0428203204646S11658210EA0111901199000000000000
B0428243204572S11658240EA0110801187000000000000
B0428283204498S11658273EA0109901179000000000000
B0428323204424S11658305EA0109301175000000000000
B0428363204351S11658336EA0109101172000000000000
B0428403204277S11658368EA0108801168000000000000
B0428443204201S11658399EA0108101161000000000000
B0428483204126S11658433EA0107501157000000000000
B0428523204054S11658466EA0107301155000000000000
B0428563203983S11658502EA0107501153000000000000
B0429003203910S11658541EA0106901147000000000000
B0429043203839S11658578EA0106701146000000000000
B0429083203768S11658620EA0106501144000000000000
B0429123203699S11658663EA0106001138000000000000
B0429163203628S11658700EA0105401132000000000000
B0429203203558S11658739EA0105101130000000000000
B0429243203488S11658777EA0104801123000000000000
B0429283203415S11658812EA0103801112000000000000
B0429323203345S11658856EA0103401112000000000000
B0429363203276S11658897EA0103601112000000000000
B0429403203204S11658931EA0103401110000000000000
B0429443203133S11658963EA0103201105000000000000
B0429483203060S11658999EA0102401097000000000000
B0429523202986S11659035EA0101601088000000000000
B0429563202910S11659067EA0100801081000000000000
B0430003202832S11659097EA0100001065000000000000
B0430043202750S11659133EA0098301054000000000000
B0430083202672S11659180EA0097901048000000000000
B0430123202596S11659222EA0097401044000000000000
B0430163202518S11659261EA0096701037000000000000
B0430203202441S11659297EA0096401034000000000000
B0430243202364S11659331EA0095401023000000000000
B0430283202286S11659369EA0094501015000000000000
B0430323202210S11659410EA0093901011000000000000
B0430363202134S11659453EA0093601003000000000000
B0430403202063S11659503EA0092700996000000000000
B0430443201993S11659557EA0091600980000000000000
B0430483201922S11659617EA0090000967000000000000
B0430523201855S11659677EA0088900959000000000000
B0430563201791S11659737EA0088500954000000000000
B0431003201727S11659795EA0088100948000000000000
B0431043201668S11659859EA0086900934000000000000
B0431083201606S11659924EA0085500920000000000000
B0431123201536S11659973EA0085900924000000000000
B0431163201461S11659991EA0086600933000000000000
B0431203201391S11700023EA0087800950000000000000
B0431243201383S11700094EA0090000972000000000000
B0431283201444S11700103EA0092000997000000015000
B0431323201467S11700037EA0093901013000000015000
B0431363201428S11659987EA0095401034000000000000
B0431403201376S11700003EA0097101049000000000000
B0431443201362S11700063EA0098101056000000000000
B0431483201404S11700099EA0098801064000000015000
B0431523201453S11700067EA0100001079000000015000
B0431563201454S11700003EA0101101093000000015000
B0432003201408S11659973EA0102401107000000000000
B0432043201363S11700003EA0103201112000000000000
B0432083201354S11700068EA0103401114000000000000
B0432123201398S11700102EA0104201120000000015000
B0432163201449S11700067EA0104201121000000015000
B0432203201457S11659995EA0104701130000000000000
B0432243201409S11659950EA0106201148000000000000
B0432283201354S11659967EA0107501157000000000000
B0432323201344S11700028EA0108301163000000000000
B0432363201387S11700063EA0109001168000000015000
B0432403201439S11700033EA0108501169000000015000
B0432443201456S11659963EA0108901178000000015000
B0432483201423S11659903EA0110301196000000000000
B0432523201366S11659908EA0111801208000000000000
B0432563201352S11659969EA0112501210000000000000
B0433003201395S11700007EA0113201219000000000000
B0433043201444S11659978EA0113301222000000015000
B0433083201462S11659908EA0113701231000000000000
B0433123201440S11659837EA0114501240000000000000
B0433163201382S11659825EA0115701251000000000000
B0433203201367S11659883EA0116901258000000000000
B0433243201414S11659921EA0117201262000000000000
B0433283201466S11659887EA0118101276000000015000
B0433323201463S11659815EA0119501289000000015000
B0433363201411S11659778EA0120501297000000000000
B0433403201362S11659811EA0120701301000000000000
B0433443201372S11659873EA0121601307000000000000
B0433483201426S11659903EA0121901309000000000000
B0433523201479S11659867EA0122601323000000000000
B0433563201486S11659799EA0124001337000000000000
B0434003201436S11659761EA0125301345000000000000
B0434043201385S11659782EA0125701352000000000000
B0434083201378S11659842EA0126801361000000000000
B0434123201419S11659881EA0127401363000000000000
B0434163201470S11659852EA0128001372000000000000
B0434203201479S11659782EA0128501377000000000000
B0434243201441S11659731EA0129201383000000000000
B0434283201387S11659730EA0129301382000000000000
B0434323201331S11659756EA0128901376000000000000
B0434363201270S11659789EA0127401353000000000000
B0434403201196S11659826EA0124701327000000000000
B0434443201115S11659863EA0122801308000000000000
B0434483201029S11659893EA0121501302000000000000
B0434523200942S11659915EA0121401300000000000000
B0434563200855S11659939EA0121101298000000000000
B0435003200769S11659964EA0121001292000000000000
B0435043200682S11659994EA0121001291000000000000
B0435083200599S11700024EA0121701301000000000000
B0435123200516S11700051EA0122201298000000000000
B0435163200431S11700081EA0121601292000000000000
B0435203200345S11700111EA0120801282000000000000
B0435243200258S11700141EA0120001277000000000000
B0435283200171S11700167EA0119501271000000000000
B0435323200083S11700192EA0119001263000000000000
B0435363159994S11700215EA0118201258000000000000
B0435403159910S11700236EA0117801252000000000000
B0435443159824S11700258EA0116801237000000000000
B0435483159740S11700279EA0115901231000000000000
B0435523159655S11700299EA0115301225000000000000
B0435563159569S11700319EA0114301212000000000000
B0436003159482S11700337EA0113301205000000000000
B0436043159395S11700355EA0113001202000000000000
B0436083159309S11700372EA0112301195000000000000
B0436123159222S11700390EA0112001192000000000000
B0436163159133S11700405EA0111101181000000000000
B0436203159043S11700419EA0110701178000000000000
B0436243158953S11700435EA0110601178000000000000
B0436283158865S11700455EA0111001185000000000000
B0436323158779S11700476EA0111601191000000000000
B0436363158696S11700497EA0111901187000000000000
B0436403158616S11700532EA0111101177000000000000
B0436443158536S11700572EA0109701163000000000000
B0436483158453S11700608EA0108601156000000000000
B0436523158373S11700647EA0108401149000000000000
B0436563158293S11700679EA0107601142000000000000
B0437003158211S11700710EA0107001136000000000000
B0437043158132S11700739EA0106301128000000000000
B0437083158051S11700765EA0105301115000000000000
B0437123157972S11700790EA0104001105000000000000
B0437163157892S11700808EA0103401094000000000000
B0437203157814S11700827EA0102401090000000000000
B0437243157740S11700851EA0102301087000000000000
B0437283157665S11700878EA0101901085000000000000
B0437323157589S11700908EA0101401077000000000000
B0437363157514S11700940EA0101001087000000000000
B0437403157462S11700998EA0102701106000000000000
B0437443157482S11701070EA0104701117000000000000
B0437483157547S11701081EA0105701129000000000000
B0437523157591S11701021EA0106601138000000000000
B0437563157580S11700948EA0106701134000000000000
B0438003157527S11700910EA0106401137000000000000
B0438043157466S11700907EA0107401148000000000000
B0438083157432S11700956EA0108201156000000000000
B0438123157463S11701008EA0108801160000000000000
B0438163157518S11700977EA0109701170000000000000
B0438203157504S11700912EA0110401173000000000000
B0438243157446S11700907EA0110301176000000000000
B0438283157405S11700956EA0110401177000000000000
B0438323157397S11701031EA0110801183000000000000
B0438363157437S11701086EA0110701173000000000000
B0438403157498S11701056EA0110101173000000000000
B0438443157505S11700981EA0110501178000000000000
B0438483157458S11700927EA0111201187000000000000
B0438523157397S11700901EA0111701192000000000000
B0438563157336S11700908EA0112601201000000000000
B0439003157314S11700965EA0112901200000000000000
B0439043157355S11701009EA0111501181000000000000
B0439083157409S11700972EA0110301173000000000000
B0439123157404S11700892EA0111001188000000000000
B0439163157362S11700834EA0112001202000000000000
B0439203157307S11700809EA0112601204000000000000
B0439243157255S11700842EA0113001205000000000000
B0439283157218S11700903EA0112001189000000000000
B0439323157163S11700961EA0109801165000000000000
B0439363157093S11701007EA0107701148000000000000
B0439403157016S11701047EA0106001132000000000000
B0439443156939S11701092EA0104201111000000000000
B0439483156865S11701148EA0102401097000000000000
B0439523156800S11701219EA0101401088000000000000
B0439563156742S11701297EA0101001084000000000000
B0440003156689S11701380EA0100301075000000000000
B0440043156643S11701467EA0100101072000000000000
B0440083156604S11701558EA0099201063000000000000
B0440123156568S11701649EA0098501058000000000000
B0440163156535S11701740EA0098001045000000000000
B0440203156501S11701833EA0096001028000000000000
B0440243156469S11701930EA0095401025000000000000
B0440283156436S11702023EA0095101016000000000000
B0440323156404S11702121EA0093701001000000000000
B0440363156371S11702220EA0092200985000000000000
B0440403156340S11702318EA0091100979000000000000
B0440443156313S11702415EA0090800972000000000000
B0440483156284S11702508EA0089700961000000000000
B0440523156258S11702603EA0088300946000000000000
B0440563156231S11702699EA0087200938000000000000
B0441003156205S11702793EA0086600931000000000000
B0441043156176S11702886EA0085800921000000000000
B0441083156149S11702980EA0085400919000000000000
B0441123156122S11703071EA0085500924000000000000
B0441163156096S11703156EA0086200934000000000000
B0441203156088S11703236EA0088500952000000000000
B0441243156122S11703296EA0089700969000000000000
B0441283156182S11703296EA0091400984000000000000
B0441323156205S11703222EA0091800983000000000000
B0441363156161S11703161EA0090800977000000000000
B0441403156098S11703163EA0091000977000000000000
B0441443156057S11703214EA0090800980000000000000
B0441483156032S11703279EA0091600987000000000000
B0441523156010S11703349EA0092300992000000000000
B0441563156016S11703422EA0093101002000000000000
B0442003156075S11703412EA0094401019000000015000
B0442043156066S11703343EA0095901038000000000000
B0442083156010S11703334EA0097001048000000000000
B0442123155992S11703391EA0098401059000000000000
B0442163156037S11703416EA0099001066000000000000
B0442203156079S11703367EA0099901077000000000000
B0442243156055S11703301EA0100801087000000000000
B0442283156001S11703308EA0101801098000000000000
B0442323155992S11703365EA0103001111000000000000
B0442363156035S11703387EA0103801120000000015000
B0442403156076S11703340EA0104901130000000015000
B0442443156063S11703271EA0105601139000000000000
B0442483156013S11703244EA0107001154000000000000
B0442523155972S11703284EA0107901164000000000000
B0442563155980S11703340EA0108901172000000000000
B0443003156032S11703332EA0109701178000000000000
B0443043156046S11703266EA0110401189000000000000
B0443083156002S11703223EA0112501212000000000000
B0443123155954S11703252EA0113801224000000000000
B0443163155961S11703312EA0115101237000000000000
B0443203156010S11703309EA0115701243000000000000
B0443243156026S11703240EA0116201248000000000000
B0443283155979S11703187EA0117401263000000000000
B0443323155923S11703206EA0118501273000000000000
B0443363155932S11703261EA0119801286000000000000
B0443403155981S11703249EA0120801295000000000000
B0443443155992S11703179EA0121501306000000000000
B0443483155942S11703139EA0123001323000000000000
B0443523155896S11703171EA0123901333000000000000
B0443563155906S11703226EA0125101341000000015000
B0444003155955S11703228EA0125901351000000015000
B0444043155985S11703171EA0126701359000000015000
B0444083155958S11703106EA0127701373000000015000
B0444123155899S11703100EA0128901381000000000000
B0444163155867S11703148EA0129801390000000000000
B0444203155888S11703192EA0130701401000000000000
B0444243155937S11703185EA0130801401000000000000
B0444283155959S11703119EA0131301409000000000000
B0444323155922S11703067EA0132701421000000000000
B0444363155867S11703081EA0133101425000000000000
B0444403155851S11703139EA0133501428000000000000
B0444443155893S11703169EA0134301435000000000000
B0444483155940S11703128EA0134801440000000000000
B0444523155936S11703054EA0135401450000000000000
B0444563155884S11703020EA0136301458000000000000
B0445003155829S11703044EA0136401455000000000000
B0445043155771S11703081EA0135701443000000000000
B0445083155703S11703119EA0134201432000000000000
B0445123155628S11703157EA0132201410000000000000
B0445163155548S11703200EA0130801400000000000000
B0445203155468S11703244EA0130401393000000000000
B0445243155386S11703286EA0130001391000000000000
B0445283155308S11703330EA0130101390000000000000
B0445323155230S11703374EA0129501376000000000000
B0445363155149S11703422EA0128001366000000000000
B0445403155074S11703473EA0128201368000000000000
B0445443155000S11703523EA0127501356000000000000
B0445483154922S11703575EA0126401346000000000000
B0445523154844S11703630EA0125801339000000000000
B0445563154766S11703686EA0124701329000000000000
B0446003154685S11703741EA0124001317000000000000
B0446043154606S11703794EA0122901308000000000000
B0446083154525S11703846EA0122601306000000000000
B0446123154445S11703895EA0122101299000000000000
B0446163154365S11703943EA0121401291000000000000
B0446203154284S11703991EA0120201278000000000000
B0446243154204S11704041EA0119701272000000000000
B0446283154124S11704089EA0118401262000000000000
B0446323154043S11704134EA0117801252000000000000
B0446363153962S11704179EA0117001245000000000000
B0446403153882S11704223EA0116501239000000000000
B0446443153803S11704264EA0115701231000000000000
B0446483153725S11704305EA0114601217000000000000
B0446523153644S11704349EA0113401205000000000000
B0446563153566S11704397EA0112701198000000000000
B0447003153488S11704448EA0112201197000000000000
B0447043153409S11704496EA0112001191000000000000
B0447083153332S11704545EA0111201184000000000000
B0447123153258S11704595EA0111201187000000000000
B0447163153188S11704644EA0110301168000000000000
B0447203153114S11704692EA0108301151000000000000
B0447243153037S11704740EA0106801136000000000000
B0447283152959S11704790EA0105501121000000000000
B0447323152881S11704840EA0103801105000000000000
B0447363152807S11704894EA0102801093000000000000
B0447403152731S11704950EA0101701087000000000000
B0447443152662S11705007EA0102201094000000000000
B0447483152604S11705068EA0102801095000000000000
B0447523152551S11705133EA0102101087000000000000
B0447563152496S11705200EA0101901093000000000000
B0448003152451S11705267EA0103901115000000000000
B0448043152410S11705330EA0106001135000000000000
B0448083152406S11705398EA0108101157000000000000
B0448123152464S11705411EA0109301171000000000000
B0448163152504S11705347EA0110501182000000000000
B0448203152480S11705273EA0112001200000000000000
B0448243152422S11705254EA0113401216000000000000
B0448283152397S11705303EA0114701232000000000000
B0448323152436S11705345EA0115201236000000000000
B0448363152495S11705319EA0116601257000000000000
B0448403152512S11705249EA0118701277000000000000
B0448443152475S11705191EA0120001291000000000000
B0448483152419S11705190EA0121401302000000000000
B0448523152391S11705243EA0122001308000000000000
B0448563152415S11705298EA0122401310000000000000
B0449003152475S11705298EA0123601326000000000000
B0449043152513S11705239EA0124601338000000000000
B0449083152497S11705163EA0125501346000000000000
B0449123152439S11705128EA0126401355000000000000
B0449163152389S11705163EA0127501364000000000000
B0449203152400S11705224EA0128001367000000000000
B0449243152458S11705243EA0128301372000000000000
B0449283152510S11705199EA0129801391000000000000
B0449323152499S11705125EA0130901396000000000000
B0449363152438S11705111EA0131801406000000000000
B0449403152410S11705164EA0132501417000000000000
B0449443152439S11705215EA0133501425000000000000
B0449483152495S11705197EA0134601439000000000000
B0449523152487S11705129EA0135701447000000000000
B0449563152427S11705122EA0136001451000000000000
B0450003152405S11705178EA0137101464000000000000
B0450043152445S11705211EA0138701479000000000000
B0450083152492S11705176EA0139201483000000000000
B0450123152493S11705102EA0140201495000000000000
B0450163152448S11705057EA0141001504000000000000
B0450203152393S11705072EA0141501505000000000000
B0450243152366S11705130EA0141101502000000000000
B0450283152404S11705180EA0141001504000000000000
B0450323152469S11705168EA0142301517000000000000
B0450363152499S11705102EA0144001533000000000000
B0450403152479S11705028EA0144301534000000000000
B0450443152415S11705002EA0143601524000000000000
B0450483152340S11705026EA0142101506000000000000
B0450523152259S11705067EA0140001491000000000000
B0450563152180S11705116EA0138701474000000000000
B0451003152097S11705167EA0136501452000000000000
B0451043152011S11705220EA0134901439000000000000
B0451083151924S11705273EA0133801426000000000000
B0451123151838S11705325EA0132701418000000000000
B0451163151752S11705375EA0132601420000000000000
B0451203151671S11705421EA0132701415000000000000
B0451243151590S11705466EA0132301410000000000000
B0451283151508S11705510EA0131701403000000000000
B0451323151427S11705554EA0131301400000000000000
B0451363151349S11705596EA0131001396000000000000
B0451403151271S11705635EA0130901395000000000000
B0451443151193S11705674EA0130401385000000000000
B0451483151113S11705714EA0129601378000000000000
B0451523151032S11705754EA0129301378000000000000
B0451563150956S11705800EA0128901368000000000000
B0452003150888S11705863EA0128001357000000000000
B0452043150828S11705941EA0126401340000000000000
B0452083150770S11706026EA0124801327000000000000
B0452123150715S11706112EA0123801317000000000000
B0452163150663S11706199EA0123001313000000000000
B0452203150614S11706283EA0123201313000000000000
B0452243150563S11706368EA0122401303000000000000
B0452283150510S11706451EA0122301303000000000000
B0452323150456S11706534EA0121901300000000000000
B0452363150404S11706614EA0122201301000000000000
B0452403150352S11706690EA0122101302000000000000
B0452443150303S11706760EA0123601324000000000000
B0452483150260S11706822EA0126001343000000000000
B0452523150241S11706892EA0126701346000000000000
B0452563150293S11706944EA0127001348000000000000
B0453003150359S11706918EA0128701363000000000000
B0453043150371S11706846EA0129201362000000000000
B0453083150315S11706812EA0128601361000000000000
B0453123150251S11706832EA0128601368000000000000
B0453163150189S11706859EA0129101366000000000000
B0453203150117S11706888EA0127301339000000000000
B0453243150033S11706923EA0125401335000000000000
B0453283149948S11706955EA0125001321000000000000
B0453323149857S11706987EA0123401313000000000000
B0453363149769S11707018EA0123301312000000000000
B0453403149682S11707045EA0123701316000000000000
B0453443149597S11707071EA0123201308000000000000
B0453483149510S11707097EA0122301301000000000000
B0453523149423S11707119EA0121501291000000000000
B0453563149334S11707143EA0120301281000000000000
B0454003149246S11707165EA0119601271000000000000
B0454043149158S11707187EA0118801262000000000000
B0454083149069S11707212EA0117401249000000000000
B0454123148981S11707235EA0116301241000000000000
B0454163148896S11707260EA0115901235000000000000
B0454203148813S11707286EA0115201230000000000000
B0454243148733S11707314EA0114901224000000000000
B0454283148653S11707343EA0113901214000000000000
B0454323148575S11707371EA0114101216000000000000
B0454363148499S11707397EA0113701207000000000000
B0454403148419S11707427EA0113201209000000000000
B0454443148344S11707456EA0114001219000000000000
B0454483148274S11707485EA0115401227000000000000
B0454523148205S11707513EA0114701220000000000000
B0454563148135S11707539EA0114701223000000000000
B0455003148067S11707563EA0115601232000000000000
B0455043148003S11707592EA0116801246000000000000
B0455083147972S11707651EA0118001261000000000000
B0455123148011S11707698EA0119201266000000000000
B0455163148073S11707681EA0118901258000000000000
B0455203148103S11707609EA0118301255000000000000
B0455243148070S11707548EA0118701264000000000000
B0455283148006S11707540EA0118901269000000000000
B0455323147942S11707559EA0119201273000000000000
B0455363147878S11707583EA0119401276000000000000
B0455403147817S11707616EA0120201283000000000000
B0455443147773S11707672EA0120101282000000000000
B0455483147756S11707748EA0119701279000000000000
B0455523147748S11707829EA0119301269000000000000
B0455563147722S11707911EA0117701245000000000000
B0456003147651S11707968EA0115101223000000000000
B0456043147561S11707993EA0113001209000000000000
B0456083147469S11707998EA0112001197000000000000
B0456123147375S11707998EA0110601183000000000000
B0456163147284S11707997EA0110401184000000000000
B0456203147200S11707998EA0111901202000000000000
B0456243147119S11708002EA0112801207000000000000
B0456283147045S11708020EA0112301197000000000000
B0456323146966S11708038EA0110601176000000000000
B0456363146881S11708054EA0109101162000000000000
B0456403146796S11708070EA0107901153000000000000
B0456443146710S11708085EA0107001145000000000000
B0456483146625S11708099EA0106301136000000000000
B0456523146539S11708112EA0105101124000000000000
B0456563146451S11708125EA0104101114000000000000
B0457003146361S11708138EA0103101100000000000000
B0457043146272S11708153EA0102001089000000000000
B0457083146182S11708167EA0101101083000000000000
B0457123146096S11708179EA0100501073000000000000
B0457163146012S11708192EA0099901069000000000000
B0457203145927S11708205EA0098901053000000000000
B0457243145843S11708216EA0097601044000000000000
B0457283145759S11708229EA0096801035000000000000
B0457323145679S11708246EA0097001040000000000000
B0457363145602S11708265EA0097501041000000000000
B0457403145529S11708288EA0098101055000000000000
B0457443145466S11708318EA0099901069000000000000
B0457483145441S11708380EA0101201080000000000000
B0457523145484S11708418EA0102001086000000000000
B0457563145525S11708375EA0101801086000000015000
B0458003145512S11708306EA0101601086000000015000
B0458043145459S11708279EA0102201094000000015000
B0458083145402S11708289EA0102501101000000000000
B0458123145345S11708311EA0103001105000000000000
B0458163145289S11708345EA0103701111000000000000
B0458203145277S11708410EA0104401124000000000000
B0458243145328S11708414EA0105701132000000000000
B0458283145350S11708348EA0105601132000000015000
B0458323145314S11708288EA0106501145000000000000
B0458363145254S11708272EA0107701153000000000000
B0458403145212S11708319EA0108101161000000000000
B0458443145228S11708384EA0108301164000000000000
B0458483145280S11708393EA0109501178000000000000
B0458523145314S11708335EA0110401184000000015000
B0458563145286S11708270EA0110801195000000015000
B0459003145224S11708274EA0111601197000000015000
B0459043145152S11708304EA0110401187000000015000
B0459083145073S11708326EA0110501191000000015000
B0459123144992S11708348EA0111001196000000015000
B0459163144911S11708369EA0111801207000000015000
B0459203144831S11708389EA0113401223000000015000
B0459243144761S11708421EA0114201222000000015000
B0459283144686S11708448EA0113001209000000000000
B0459323144606S11708473EA0111901195000000000000
B0459363144528S11708495EA0111101191000000000000
B0459403144450S11708521EA0110901189000000000000
B0459443144379S11708545EA0111901202000000000000
B0459483144311S11708569EA0112801207000000000000
B0459523144245S11708593EA0113701215000000000000
B0459563144179S11708580EA0114901228000000000000
B0500003144116S11708551EA0115701238000000000000
B0500043144076S11708597EA0116701250000000000000
B0500083144119S11708638EA0118101275000000000000
B0500123144162S11708591EA0120001293000000000000
B0500163144141S11708525EA0121001298000000000000
B0500203144084S11708518EA0121501305000000000000
B0500243144054S11708575EA0122101309000000000000
B0500283144098S11708613EA0123201326000000000000
B0500323144146S11708570EA0124801345000000000000
B0500363144133S11708497EA0126101357000000000000
B0500403144079S11708475EA0127401372000000000000
B0500443144041S11708517EA0128801385000000015000
B0500483144066S11708566EA0129001389000000015000
B0500523144123S11708556EA0129601396000000015000
B0500563144146S11708488EA0130601407000000015000
B0501003144119S11708421EA0131301415000000015000
B0501043144060S11708406EA0132101420000000015000
B0501083144024S11708456EA0132801428000000015000
B0501123144033S11708513EA0134101441000000015000
B0501163144076S11708549EA0134801445000000015000
B0501203144136S11708547EA0135501450000000000000
B0501243144181S11708492EA0136601462000000000000
B0501283144183S11708414EA0138201478000000000000
B0501323144137S11708362EA0138901484000000000000
B0501363144076S11708371EA0139201488000000000000
B0501403144045S11708423EA0140201502000000000000
B0501443144056S11708487EA0141501511000000000000
B0501483144103S11708523EA0142601523000000000000
B0501523144154S11708487EA0144201542000000000000
B0501563144150S11708414EA0145301547000000000000
B0502003144098S11708374EA0146201560000000000000
B0502043144042S11708383EA0147001568000000000000
B0502083144016S11708437EA0147601579000000000000
B0502123144046S11708489EA0149201593000000000000
B0502163144105S11708491EA0150301602000000000000
B0502203144137S11708426EA0151401614000000000000
B0502243144120S11708350EA0152401624000000000000
B0502283144064S11708315EA0153501638000000000000
B0502323144011S11708328EA0154901648000000000000
B0502363143982S11708382EA0156101655000000000000
B0502403143998S11708439EA0156601668000000000000
B0502443144049S11708460EA0157401676000000000000
B0502483144098S11708422EA0158401684000000000000
B0502523144106S11708346EA0158701689000000000000
B0502563144064S11708283EA0159001696000000000000
B0503003144001S11708265EA0159701703000000000000
B0503043143947S11708296EA0160501712000000000000
B0503083143933S11708357EA0161501719000000000000
B0503123143968S11708408EA0161601720000000000000
B0503163144029S11708405EA0162501732000000000000
B0503203144071S11708350EA0163901747000000000000
B0503243144067S11708278EA0164801756000000000000
B0503283144017S11708228EA0165101756000000000000
B0503323143947S11708227EA0164301746000000000000
B0503363143877S11708254EA0163701741000000000000
B0503403143800S11708292EA0161501711000000000000
B0503443143713S11708337EA0158601690000000000000
B0503483143624S11708385EA0158301688000000000000
B0503523143534S11708432EA0158201688000000000000
B0503563143443S11708473EA0157901680000000000000
B0504003143351S11708512EA0156101661000000000000
B0504043143257S11708551EA0154701648000000000000
B0504083143163S11708588EA0154401644000000000000
B0504123143072S11708626EA0153901634000000000000
B0504163142981S11708665EA0153201627000000000000
B0504203142892S11708707EA0152501620000000000000
B0504243142805S11708751EA0152801628000000000000
B0504283142721S11708794EA0153701639000000000000
B0504323142638S11708829EA0154601643000000000000
B0504363142554S11708863EA0154301637000000000000
B0504403142465S11708899EA0154001637000000000000
B0504443142376S11708935EA0153701631000000000000
B0504483142287S11708972EA0153701634000000000000
B0504523142201S11709007EA0153701626000000000000
B0504563142114S11709046EA0153201629000000000000
B0505003142031S11709086EA0154101636000000000000
B0505043141949S11709126EA0153501624000000000000
B0505083141870S11709171EA0152501617000000000000
B0505123141793S11709220EA0152801621000000000000
B0505163141720S11709269EA0153001621000000000000
B0505203141651S11709318EA0153501632000000000000
B0505243141586S11709362EA0155501652000000000000
B0505283141524S11709406EA0156101648000000000000
B0505323141472S11709466EA0156501660000000000000
B0505363141501S11709522EA0159501693000000000000
B0505403141549S11709490EA0161801711000000000000
B0505443141537S11709418EA0162301715000000000000
B0505483141479S11709392EA0163501734000000000000
B0505523141427S11709414EA0164801746000000000000
B0505563141419S11709470EA0165801754000000000000
B0506003141471S11709487EA0167001773000000000000
B0506043141503S11709432EA0168801789000000000000
B0506083141473S11709370EA0169801800000000000000
B0506123141420S11709377EA0170501809000000000000
B0506163141421S11709435EA0171401818000000000000
B0506203141473S11709445EA0172401835000000000000
B0506243141507S11709388EA0173901849000000000000
B0506283141493S11709311EA0175301865000000000000
B0506323141441S11709272EA0177001880000000000000
B0506363141381S11709280EA0176901872000000000000
B0506403141313S11709312EA0175401856000000000000
B0506443141241S11709362EA0174101847000000000000
B0506483141165S11709419EA0172201825000000000000
B0506523141086S11709485EA0170201807000000000000
B0506563141004S11709553EA0169101797000000000000
B0507003140923S11709622EA0168501790000000000000
B0507043140840S11709691EA0167501775000000000000
B0507083140753S11709758EA0166601772000000000000
B0507123140669S11709819EA0166801771000000000000
B0507163140583S11709874EA0166201767000000000000
B0507203140500S11709925EA0166201764000000000000
B0507243140416S11709975EA0165401752000000000000
B0507283140335S11710027EA0164801747000000000000
B0507323140255S11710079EA0164001741000000000000
B0507363140177S11710129EA0164101745000000000000
B0507403140104S11710177EA0164201734000000000000
B0507443140033S11710226EA0163201729000000000000
B0507483139967S11710278EA0163301727000000000000
B0507523139898S11710328EA0163001724000000000000
B0507563139826S11710373EA0162301719000000000000
B0508003139751S11710417EA0161901711000000000000
B0508043139675S11710463EA0160901705000000000000
B0508083139599S11710507EA0160801704000000000000
B0508123139523S11710551EA0160401700000000000000
B0508163139447S11710592EA0160401699000000000000
B0508203139369S11710632EA0159601689000000000000
B0508243139288S11710672EA0158601679000000000000
B0508283139209S11710715EA0157901672000000000000
B0508323139132S11710758EA0157701670000000000000
B0508363139057S11710800EA0157001664000000000000
B0508403138984S11710841EA0156301654000000000000
B0508443138910S11710883EA0155501646000000000000
B0508483138837S11710927EA0154901637000000000000
B0508523138767S11710971EA0154201632000000000000
B0508563138698S11711017EA0153901628000000000000
B0509003138629S11711058EA0153501627000000000000
B0509043138560S11711100EA0153401622000000000000
B0509083138490S11711141EA0152801618000000000000
B0509123138420S11711183EA0152201613000000000000
B0509163138351S11711223EA0151801608000000000000
B0509203138279S11711261EA0151401602000000000000
B0509243138206S11711297EA0150801593000000000000
B0509283138134S11711336EA0149901586000000000000
B0509323138061S11711375EA0148901578000000000000
B0509363137988S11711416EA0148001570000000000000
B0509403137914S11711455EA0147601565000000000000
B0509443137841S11711494EA0147001560000000000000
B0509483137770S11711534EA0146701557000000000000
B0509523137698S11711573EA0146401550000000000000
B0509563137625S11711613EA0145401542000000000000
B0510003137551S11711654EA0144701530000000000000
B0510043137476S11711699EA0143701523000000000000
B0510083137402S11711747EA0142801513000000000000
B0510123137329S11711795EA0142101509000000000000
B0510163137257S11711841EA0141901506000000000000
B0510203137187S11711884EA0141701503000000000000
B0510243137120S11711929EA0141601502000000000000
B0510283137056S11711976EA0141201499000000000000
B0510323136991S11712020EA0141001492000000000000
B0510363136925S11712062EA0140301487000000000000
B0510403136856S11712102EA0140301488000000000000
B0510443136787S11712139EA0140201488000000000000
B0510483136717S11712176EA0140301492000000000000
B0510523136648S11712214EA0141301499000000000000
B0510563136583S11712256EA0140901491000000000000
B0511003136523S11712308EA0140101485000000000000
B0511043136466S11712365EA0139601479000000000000
B0511083136406S11712421EA0139001473000000000000
B0511123136342S11712474EA0138401468000000000000
B0511163136276S11712522EA0137901463000000000000
B0511203136207S11712562EA0137801461000000000000
B0511243136134S11712599EA0137101453000000000000
B0511283136059S11712630EA0136301445000000000000
B0511323135982S11712657EA0135701442000000000000
B0511363135907S11712686EA0135701438000000000000
B0511403135834S11712720EA0135401438000000000000
B0511443135762S11712759EA0135501437000000000000
B0511483135712S11712820EA0135401436000000000000
B0511523135686S11712896EA0134801423000000000000
B0511563135648S11712974EA0132601401000000000000
B0512003135588S11713036EA0131401392000000000000
B0512043135523S11713089EA0130901390000000000000
B0512083135454S11713130EA0130401382000000000000
B0512123135383S11713167EA0129801380000000000000
B0512163135310S11713201EA0129201370000000000000
B0512203135236S11713233EA0128301360000000000000
B0512243135162S11713264EA0127801362000000000000
B0512283135098S11713305EA0128801373000000000000
B0512323135053S11713358EA0129701376000000000000
B0512363135006S11713413EA0128801364000000000000
B0512403134950S11713462EA0127801359000000000000
B0512443134889S11713510EA0128401367000000000000
B0512483134850S11713575EA0129801384000000000000
B0512523134868S11713635EA0131301390000000000000
B0512563134930S11713619EA0130601383000000000000
B0513003134945S11713540EA0130901391000000000000
B0513043134908S11713476EA0131701398000000000000
B0513083134849S11713452EA0132401408000000000000
B0513123134804S11713491EA0132901412000000000000
B0513163134826S11713544EA0133301415000000000000
B0513203134884S11713532EA0132801410000000000000
B0513243134902S11713462EA0132501407000000000000
B0513283134864S11713402EA0133201420000000000000
B0513323134806S11713390EA0133701422000000000000
B0513363134759S11713429EA0133301419000000000000
B0513403134752S11713492EA0133301422000000000000
B0513443134795S11713528EA0133501423000000000000
B0513483134847S11713496EA0133701420000000000000
B0513523134850S11713419EA0132701411000000000000
B0513563134803S11713362EA0132701412000000000000
B0514003134739S11713340EA0132301411000000000000
B0514043134673S11713346EA0131901405000000000000
B0514083134603S11713361EA0130501390000000000000
B0514123134529S11713381EA0129301381000000000000
B0514163134453S11713406EA0128901374000000000000
B0514203134373S11713426EA0127601360000000000000
B0514243134288S11713433EA0126801355000000000000
B0514283134206S11713433EA0126301350000000000000
B0514323134126S11713436EA0125801343000000000000
B0514363134045S11713439EA0125401337000000000000
B0514403133966S11713446EA0124901333000000000000
B0514443133889S11713457EA0124701328000000000000
B0514483133812S11713463EA0124401319000000000000
B0514523133737S11713476EA0123301310000000000000
B0514563133662S11713496EA0122701305000000000000
B0515003133590S11713524EA0122101300000000000000
B0515043133519S11713553EA0121801296000000000000
B0515083133446S11713575EA0121301289000000000000
B0515123133374S11713595EA0120701281000000000000
B0515163133304S11713615EA0121001287000000000000
B0515203133238S11713628EA0121601293000000000000
B0515243133174S11713649EA0121901295000000000000
B0515283133117S11713686EA0122301300000000000000
B0515323133078S11713743EA0123201308000000000000
B0515363133112S11713793EA0123901317000000000000
B0515403133165S11713758EA0124601322000000000000
B0515443133165S11713682EA0124401316000000000000
B0515483133109S11713635EA0123801317000000000000
B0515523133043S11713643EA0124201323000000000000
B0515563133016S11713706EA0124601325000000000000
B0516003133047S11713761EA0125001334000000000000
B0516043133097S11713740EA0125801344000000000000
B0516083133094S11713665EA0125801345000000000000
B0516123133040S11713623EA0126301357000000000000
B0516163132979S11713627EA0126601358000000000000
B0516203132914S11713652EA0126201350000000000000
B0516243132844S11713686EA0125101338000000000000
B0516283132770S11713722EA0123601323000000000000
B0516323132694S11713757EA0123001320000000000000
B0516363132620S11713788EA0122401310000000000000
B0516403132545S11713822EA0121401301000000000000
B0516443132468S11713856EA0120301287000000000000
B0516483132392S11713890EA0119401280000000000000
B0516523132315S11713922EA0118901273000000000000
B0516563132237S11713955EA0118001264000000000000
B0517003132159S11713986EA0117001253000000000000
B0517043132080S11714017EA0116201243000000000000
B0517083132003S11714050EA0115101231000000000000
B0517123131926S11714083EA0113901219000000000000
B0517163131851S11714121EA0112801202000000000000
B0517203131777S11714160EA0111501192000000000000
B0517243131703S11714198EA0110701181000000000000
B0517283131636S11714250EA0111401197000000000000
B0517323131610S11714320EA0113801217000000000000
B0517363131664S11714346EA0114601232000000000000
B0517403131700S11714285EA0116401257000000000000
B0517443131671S11714224EA0118301272000000000000
B0517483131617S11714228EA0119201282000000000000
B0517523131595S11714280EA0119601283000000000000
B0517563131630S11714324EA0119401281000000000000
B0518003131684S11714295EA0120001291000000000000
B0518043131695S11714224EA0120901298000000000000
B0518083131651S11714170EA0121501304000000000000
B0518123131595S11714187EA0122201311000000000000
B0518163131576S11714248EA0122301308000000000000
B0518203131604S11714304EA0122401313000000000000
B0518243131656S11714324EA0123101319000000000000
B0518283131696S11714274EA0123301321000000000000
B0518323131680S11714202EA0123001314000000000000
B0518363131618S11714174EA0123201322000000000000
B0518403131561S11714203EA0124001330000000000000
B0518443131567S11714267EA0124501338000000000000
B0518483131618S11714281EA0125501348000000000000
B0518523131648S11714225EA0126001343000000000000
B0518563131615S11714161EA0125401346000000000000
B0519003131550S11714157EA0125701350000000000000
B0519043131488S11714189EA0125801352000000000000
B0519083131422S11714229EA0123901323000000000000
B0519123131350S11714280EA0121501302000000000000
B0519163131275S11714330EA0119901287000000000000
B0519203131202S11714381EA0119201279000000000000
B0519243131133S11714430EA0118601271000000000000
B0519283131063S11714477EA0117801258000000000000
B0519323130990S11714525EA0116401243000000000000
B0519363130920S11714575EA0116401255000000000000
B0519403130868S11714631EA0118501268000000000000
B0519443130819S11714692EA0117701255000000000000
B0519483130759S11714750EA0117001252000000000000
B0519523130691S11714804EA0116901247000000000000
B0519563130617S11714852EA0115701236000000000000
B0520003130536S11714893EA0115401230000000000000
B0520043130455S11714934EA0114301214000000000000
B0520083130371S11714978EA0113801218000000000000
B0520123130292S11715023EA0114301220000000000000
B0520163130215S11715071EA0114401218000000000000
B0520203130139S11715122EA0113001202000000000000
B0520243130063S11715178EA0111601191000000000000
B0520283129989S11715235EA0111001184000000000000
B0520323129916S11715290EA0110201176000000000000
B0520363129844S11715346EA0109401167000000000000
B0520403129769S11715400EA0108601155000000000000
B0520443129698S11715454EA0107401141000000000000
B0520483129623S11715503EA0105501120000000000000
B0520523129547S11715554EA0104101110000000000000
B0520563129472S11715603EA0103101098000000000000
B0521003129395S11715652EA0102001087000000000000
B0521043129316S11715699EA0101101077000000000000
B0521083129234S11715742EA0100101069000000000000
B0521123129151S11715782EA0099701065000000000000
B0521163129069S11715820EA0100301077000000000000
B0521203128996S11715855EA0102501100000000000000
B0521243128976S11715922EA0104601120000000000000
B0521283129035S11715936EA0105801134000000000000
B0521323129056S11715875EA0107701152000000000000
B0521363129018S11715823EA0108801164000000000000
B0521403128965S11715838EA0109301161000000000000
B0521443128961S11715906EA0108701157000000000000
B0521483129019S11715933EA0109601174000000000000
B0521523129067S11715890EA0111501190000000000000
B0521563129061S11715815EA0112101191000000000000
B0522003129002S11715763EA0112101197000000000000
B0522043128936S11715779EA0113001209000000000000
B0522083128926S11715845EA0114201225000000000000
B0522123128978S11715871EA0115701239000000000000
B0522163129017S11715819EA0116601250000000000000
B0522203128992S11715747EA0117401257000000000000
B0522243128932S11715738EA0118901274000000000000
B0522283128905S11715792EA0119301276000000000000
B0522323128940S11715840EA0120101289000000000000
B0522363128989S11715811EA0121501297000000000000
B0522403128988S11715738EA0122601311000000000000
B0522443128937S11715699EA0123801323000000015000
B0522483128888S11715736EA0123701319000000015000
B0522523128901S11715803EA0124001331000000000000
B0522563128956S11715829EA0125601345000000000000
B0523003129009S11715798EA0126801355000000000000
B0523043129017S11715725EA0127501362000000000000
B0523083128963S11715682EA0128701376000000000000
B0523123128910S11715708EA0129601386000000000000
B0523163128908S11715769EA0130101393000000000000
B0523203128956S11715795EA0131401408000000000000
B0523243128995S11715751EA0132701417000000000000
B0523283128979S11715682EA0133101420000000000000
B0523323128921S11715654EA0134201437000000000000
B0523363128874S11715686EA0135001442000000000000
B0523403128883S11715749EA0135401449000000000000
B0523443128936S11715764EA0136801463000000000000
B0523483128969S11715714EA0137601473000000000000
B0523523128948S11715649EA0138501482000000000000
B0523563128892S11715625EA0139601494000000000000
B0524003128849S11715662EA0140101500000000000000
B0524043128858S11715723EA0141101509000000000000
B0524083128914S11715733EA0141201510000000000000
B0524123128958S11715685EA0142501522000000000000
B0524163128958S11715612EA0143001526000000000000
B0524203128910S11715563EA0144301541000000000000
B0524243128852S11715573EA0145501551000000000000
B0524283128835S11715632EA0146301563000000000000
B0524323128875S11715673EA0146901567000000000000
B0524363128931S11715649EA0147401576000000000000
B0524403128939S11715582EA0149201593000000000000
B0524443128893S11715539EA0150201603000000000000
B0524483128846S11715567EA0151301614000000000000
B0524523128844S11715629EA0152001619000000000000
B0524563128887S11715675EA0152301623000000000000
B0525003128947S11715655EA0152701626000000000000
B0525043128971S11715586EA0153101629000000000000
B0525083128947S11715511EA0152801624000000000000
B0525123128883S11715478EA0153101634000000000000
B0525163128823S11715503EA0154501651000000000000
B0525203128801S11715568EA0156001662000000000000
B0525243128832S11715625EA0156001666000000000000
B0525283128892S11715620EA0157201676000000000000
B0525323128922S11715556EA0158001684000000000000
B0525363128897S11715487EA0159001692000000000000
B0525403128836S11715467EA0159301700000000000000
B0525443128789S11715509EA0160301711000000000000
B0525483128788S11715574EA0160501709000000000000
B0525523128840S11715606EA0160301703000000000000
B0525563128896S11715563EA0160101705000000000000
B0526003128900S11715486EA0161201717000000000000
B0526043128857S11715433EA0162001725000000000000
B0526083128794S11715420EA0163001733000000000000
B0526123128732S11715444EA0162201717000000000000
B0526163128661S11715481EA0159401693000000000000
B0526203128583S11715521EA0157801680000000000000
B0526243128502S11715561EA0156401663000000000000
B0526283128417S11715603EA0154901648000000000000
B0526323128332S11715643EA0153401631000000000000
B0526363128247S11715682EA0153001634000000000000
B0526403128165S11715720EA0153001629000000000000
B0526443128083S11715760EA0152301621000000000000
B0526483128000S11715799EA0151801619000000000000
B0526523127920S11715840EA0152101620000000000000
B0526563127839S11715880EA0152001618000000000000
B0527003127757S11715920EA0152701629000000000000
B0527043127682S11715963EA0155401656000000000000
B0527083127639S11716028EA0158001678000000000000
B0527123127669S11716083EA0159101685000000000000
B0527163127725S11716055EA0159301689000000000000
B0527203127749S11715984EA0160201699000000000000
B0527243127728S11715914EA0160901711000000000000
B0527283127671S11715883EA0161901723000000000000
B0527323127608S11715899EA0162801725000000000000
B0527363127570S11715964EA0162401723000000000000
B0527403127550S11716045EA0162201714000000000000
B0527443127497S11716120EA0160501700000000000000
B0527483127422S11716174EA0159401690000000000000
B0527523127338S11716219EA0157401667000000000000
B0527563127249S11716263EA0155001647000000000000
B0528003127160S11716308EA0153901636000000000000
B0528043127068S11716351EA0153001625000000000000
B0528083126974S11716382EA0152801629000000000000
B0528123126883S11716404EA0152801624000000000000
B0528163126792S11716425EA0152001614000000000000
B0528203126701S11716445EA0150901602000000000000
B0528243126608S11716469EA0149701591000000000000
B0528283126517S11716492EA0149001587000000000000
B0528323126428S11716512EA0149001586000000000000
B0528363126343S11716533EA0148801578000000000000
B0528403126257S11716552EA0148001568000000000000
B0528443126170S11716569EA0146901558000000000000
B0528483126083S11716586EA0145701544000000000000
B0528523125992S11716604EA0144101528000000000000
B0528563125899S11716622EA0142601515000000000000
B0529003125807S11716639EA0141601502000000000000
B0529043125715S11716659EA0140701494000000000000
B0529083125625S11716679EA0140301492000000000000
B0529123125539S11716707EA0140101488000000000000
B0529163125453S11716737EA0139101472000000000000
B0529203125365S11716770EA0137501458000000000000
B0529243125277S11716803EA0135801439000000000000
B0529283125190S11716835EA0134701429000000000000
B0529323125105S11716869EA0134001422000000000000
B0529363125018S11716897EA0134201425000000000000
B0529403124941S11716938EA0134101422000000000000
B0529443124870S11716990EA0133301416000000000000
B0529483124797S11717038EA0132901409000000000000
B0529523124722S11717079EA0132601409000000000000
B0529563124645S11717116EA0132201403000000000000
B0530003124568S11717150EA0131101389000000000000
B0530043124488S11717179EA0130201384000000000000
B0530083124406S11717203EA0129401373000000000000
B0530123124321S11717223EA0128401366000000000000
B0530163124238S11717245EA0127501357000000000000
B0530203124155S11717271EA0126701346000000000000
B0530243124072S11717297EA0125701334000000000000
B0530283123987S11717326EA0124901325000000000000
B0530323123905S11717353EA0124101319000000000000
B0530363123823S11717375EA0123901320000000000000
B0530403123744S11717396EA0123701316000000000000
B0530443123665S11717415EA0123601319000000000000
B0530483123589S11717435EA0124101321000000000000
B0530523123515S11717450EA0124301323000000000000
B0530563123442S11717465EA0124201320000000000000
B0531003123368S11717478EA0123701310000000000000
B0531043123292S11717488EA0122301295000000000000
B0531083123212S11717496EA0120901282000000000000
B0531123123133S11717504EA0119601272000000000000
B0531163123058S11717523EA0119801278000000000000
B0531203123004S11717573EA0120301277000000000000
B0531243122955S11717630EA0118801259000000000000
B0531283122896S11717683EA0116801239000000000000
B0531323122831S11717730EA0115201224000000000000
B0531363122761S11717771EA0113701207000000000000
B0531403122686S11717808EA0112101189000000000000
B0531443122606S11717840EA0110601176000000000000
B0531483122528S11717875EA0109501167000000000000
B0531523122456S11717911EA0109001162000000000000
B0531563122383S11717947EA0109001161000000000000
B0532003122313S11717986EA0108701159000000000000
B0532043122244S11718028EA0108401157000000000000
B0532083122179S11718073EA0107801144000000000000
B0532123122112S11718121EA0106201131000000000000
B0532163122045S11718167EA0105301122000000000000
B0532203121979S11718213EA0104701116000000000000
B0532243121912S11718260EA0103801103000000000000
B0532283121849S11718310EA0102801095000000000000
B0532323121784S11718356EA0102101087000000000000
B0532363121717S11718402EA0101101073000000000000
B0532403121651S11718449EA0099701062000000000000
B0532443121586S11718496EA0098801050000000000000
B0532483121521S11718541EA0098101043000000000000
B0532523121456S11718588EA0097001028000000000000
B0532563121390S11718636EA0095501020000000000000
B0533003121326S11718684EA0095301018000000000000
B0533043121264S11718731EA0094901010000000000000
B0533083121201S11718778EA0094301005000000000000
B0533123121141S11718827EA0093400993000000000000
B0533163121080S11718880EA0091900976000000000000
B0533203121019S11718936EA0090200958000000000000
B0533243120959S11718993EA0088700944000000000000
B0533283120896S11719048EA0087500930000000000000
B0533323120833S11719101EA0086400920000000000000
B0533363120773S11719155EA0085200903000000000000
B0533403120714S11719212EA0083200884000000000000
B0533443120658S11719273EA0081900873000000000000
B0533483120601S11719333EA0080300853000000000000
B0533523120538S11719390EA0078600836000000000000
B0533563120476S11719445EA0078000834000000000000
B0534003120428S11719507EA0078100838000000000000
B0534043120396S11719575EA0078600841000000000000
B0534083120367S11719645EA0078500843000000000000
B0534123120341S11719714EA0080000862000000000000
B0534163120355S11719772EA0082300885000000000000
B0534203120408S11719747EA0083500894000000000000
B0534243120407S11719669EA0084100903000000000000
B0534283120351S11719633EA0084200903000000000000
B0534323120292S11719659EA0085000914000000000000
B0534363120285S11719720EA0086100929000000000000
B0534403120338S11719731EA0087500950000000000000
B0534443120368S11719671EA0088700958000000000000
B0534483120329S11719614EA0089800972000000000000
B0534523120272S11719621EA0091100984000000000000
B0534563120253S11719673EA0092500997000000000000
B0535003120295S11719699EA0093701005000000000000
B0535043120342S11719656EA0094501017000000000000
B0535083120342S11719580EA0095701029000000000000
B0535123120292S11719551EA0097001042000000000000
B0535163120265S11719594EA0098201055000000000000
B0535203120305S11719628EA0099301068000000000000
B0535243120356S11719599EA0101301086000000000000
B0535283120380S11719534EA0101801085000000000000
B0535323120360S11719467EA0101101078000000000000
B0535363120305S11719439EA0100601076000000000000
B0535403120253S11719473EA0101101083000000000000
B0535443120251S11719532EA0102801103000000000000
B0535483120308S11719521EA0103901114000000000000
B0535523120322S11719445EA0104801126000000000000
B0535563120278S11719390EA0105301129000000000000
B0536003120222S11719407EA0106201142000000000000
B0536043120201S11719467EA0107201151000000000000
B0536083120242S11719507EA0108601168000000000000
B0536123120296S11719474EA0110001179000000000000
B0536163120295S11719402EA0111201192000000000000
B0536203120244S11719370EA0111801201000000000000
B0536243120201S11719404EA0112401205000000000000
B0536283120213S11719460EA0112701210000000000000
B0536323120273S11719474EA0113701220000000000000
B0536363120322S11719426EA0114901233000000000000
B0536403120305S11719355EA0116001240000000000000
B0536443120250S11719341EA0115701234000000000000
B0536483120208S11719391EA0116101240000000000000
B0536523120229S11719454EA0117001254000000000000
B0536563120290S11719451EA0119401277000000000000
B0537003120331S11719393EA0119701275000000000000
B0537043120311S11719316EA0119301276000000000000
B0537083120252S11719300EA0119901280000000000000
B0537123120208S11719344EA0120401289000000000000
B0537163120224S11719403EA0122301308000000000000
B0537203120279S11719393EA0124101326000000000000
B0537243120294S11719321EA0125201332000000000000
B0537283120252S11719276EA0125801342000000000000
B0537323120208S11719300EA0126301346000000000000
B0537363120220S11719359EA0127301359000000000000
B0537403120277S11719374EA0128801375000000000000
B0537443120329S11719335EA0129901380000000000000
B0537483120347S11719263EA0129801380000000000000
B0537523120328S11719191EA0129801379000000000000
B0537563120273S11719159EA0129101369000000000000
B0538003120220S11719188EA0129101378000000000000
B0538043120200S11719251EA0130301390000000000000
B0538083120201S11719320EA0131401403000000000000
B0538123120257S11719343EA0133001414000000000000
B0538163120295S11719278EA0133701418000000000000
B0538203120263S11719205EA0133401415000000000000
B0538243120203S11719211EA0134501428000000000000
B0538283120172S11719269EA0135501438000000000000
B0538323120204S11719317EA0136701455000000015000
B0538363120257S11719282EA0137301459000000015000
B0538403120251S11719203EA0135701438000000015000
B0538443120174S11719181EA0134301430000000015000
B0538483120092S11719196EA0134801437000000015000
B0538523120010S11719217EA0134801434000000000000
B0538563119931S11719239EA0134901431000000000000
B0539003119849S11719263EA0133601417000000000000
B0539043119762S11719286EA0132601409000000000000
B0539083119674S11719308EA0131001389000000000000
B0539123119584S11719337EA0129201373000000000000
B0539163119494S11719369EA0127601358000000000000
B0539203119406S11719403EA0126501349000000000000
B0539243119321S11719437EA0125801342000000000000
B0539283119239S11719467EA0125701339000000000000
B0539323119159S11719498EA0125101330000000000000
B0539363119080S11719530EA0124701322000000000000
B0539403119000S11719560EA0124101311000000000000
B0539443118920S11719589EA0123301303000000000000
B0539483118839S11719617EA0122201292000000000000
B0539523118760S11719650EA0121101280000000000000
B0539563118677S11719684EA0119401263000000000000
B0540003118595S11719720EA0119201269000000000000
B0540043118517S11719754EA0120301277000000000000
B0540083118439S11719786EA0120001269000000000000
B0540123118361S11719823EA0119001263000000000000
B0540163118288S11719858EA0119001260000000000000
B0540203118214S11719894EA0117601243000000000000
B0540243118137S11719929EA0115901228000000000000
B0540283118063S11719965EA0115901231000000000000
B0540323117990S11719998EA0115301220000000000000
B0540363117916S11720036EA0113801196000000000000
B0540403117835S11720074EA0111501179000000000000
B0540443117755S11720108EA0111001180000000000000
B0540483117678S11720144EA0110601175000000000000
B0540523117603S11720179EA0111801192000000000000
B0540563117526S11720213EA0112301197000000000000
B0541003117453S11720247EA0113001202000000000000
B0541043117378S11720277EA0112401190000000000000
B0541083117299S11720310EA0110501171000000000000
B0541123117219S11720348EA0109801170000000000000
B0541163117145S11720384EA0110301169000000000000
B0541203117068S11720421EA0109001152000000000000
B0541243116989S11720459EA0107501136000000000000
B0541283116909S11720499EA0105601119000000000000
B0541323116827S11720539EA0104401110000000000000
B0541363116749S11720581EA0103901103000000000000
B0541403116672S11720624EA0102801090000000000000
B0541443116594S11720667EA0101801081000000000000
B0541483116519S11720711EA0101001070000000000000
B0541523116446S11720760EA0100101064000000000000
B0541563116379S11720813EA0099901057000000000000
B0542003116316S11720868EA0098601042000000000000
B0542043116248S11720921EA0096801030000000000000
B0542083116183S11720973EA0096701025000000000000
B0542123116116S11721024EA0096001021000000000000
B0542163116048S11721073EA0095901021000000000000
B0542203115979S11721122EA0095901018000000000000
B0542243115913S11721170EA0095701020000000000000
B0542283115844S11721219EA0095701015000000000000
B0542323115775S11721271EA0095101007000000000000
B0542363115703S11721320EA0094100999000000000000
B0542403115631S11721366EA0093600993000000000000
B0542443115560S11721406EA0093300991000000000000
B0542483115493S11721445EA0092600977000000000000
B0542523115424S11721488EA0090700960000000000000
B0542563115356S11721534EA0089800954000000000000
B0543003115290S11721580EA0088900943000000000000
B0543043115219S11721627EA0087900936000000000000
B0543083115154S11721675EA0089400959000000000000
B0543123115100S11721727EA0090300964000000000000
B0543163115053S11721787EA0090300966000000000000
B0543203115012S11721848EA0090700968000000000000
B0543243114979S11721916EA0090800976000000000000
B0543283114983S11721976EA0093101001000000000000
B0543323115033S11721960EA0094601024000000000000
B0543363115025S11721885EA0096701040000000000000
B0543403114964S11721851EA0097601051000000000000
B0543443114922S11721889EA0098801064000000000000
B0543483114944S11721931EA0100201074000000000000
B0543523114994S11721912EA0100701082000000000000
B0543563114988S11721837EA0102401100000000000000
B0544003114933S11721805EA0103901116000000000000
B0544043114891S11721843EA0104801124000000000000
B0544083114912S11721885EA0106101140000000000000
B0544123114960S11721868EA0106901145000000000000
B0544163114968S11721796EA0108101161000000000000
B0544203114918S11721746EA0109501173000000000000
B0544243114864S11721766EA0110201181000000000000
B0544283114857S11721816EA0111401193000000000000
B0544323114905S11721817EA0112101199000000015000
B0544363114939S11721756EA0112701211000000015000
B0544403114910S11721688EA0113801222000000000000
B0544443114853S11721700EA0114401228000000015000
B0544483114858S11721753EA0115501245000000015000
B0544523114905S11721749EA0116801258000000015000
B0544563114931S11721683EA0117601270000000015000
B0545003114895S11721619EA0119101282000000015000
B0545043114831S11721610EA0120001285000000000000
B0545083114797S11721657EA0121401299000000000000
B0545123114822S11721696EA0122301308000000000000
B0545163114873S11721678EA0122801312000000000000
B0545203114905S11721609EA0123201318000000000000
B0545243114882S11721528EA0124301333000000000000
B0545283114818S11721496EA0125301340000000000000
B0545323114777S11721543EA0125401346000000000000
B0545363114803S11721592EA0126401354000000000000
B0545403114857S11721587EA0127001360000000000000
B0545443114897S11721519EA0127501366000000000000
B0545483114881S11721437EA0128701379000000000000
B0545523114816S11721406EA0129401382000000000000
B0545563114758S11721439EA0129401382000000000000
B0546003114747S11721505EA0129901389000000000000
B0546043114783S11721547EA0131301405000000000000
B0546083114831S11721523EA0132701423000000000000
B0546123114834S11721449EA0134001433000000000000
B0546163114779S11721401EA0134701439000000000000
B0546203114718S11721427EA0135001441000000000000
B0546243114702S11721493EA0135101445000000000000
B0546283114741S11721540EA0136101455000000000000
B0546323114795S11721509EA0138501485000000000000
B0546363114799S11721434EA0140301498000000000000
B0546403114744S11721385EA0141201505000000000000
B0546443114682S11721408EA0141801513000000000000
B0546483114662S11721470EA0142301518000000000000
B0546523114700S11721513EA0143001527000000000000
B0546563114761S11721505EA0144401546000000000000
B0547003114790S11721441EA0146001558000000000000
B0547043114757S11721370EA0146501559000000000000
B0547083114686S11721356EA0146401563000000000000
B0547123114628S11721401EA0146801565000000000000
B0547163114615S11721475EA0147201573000000000000
B0547203114644S11721536EA0148701589000000000000
B0547243114696S11721514EA0150701613000000000000
B0547283114682S11721441EA0152001625000000000000
B0547323114618S11721422EA0153301641000000000000
B0547363114589S11721479EA0154501649000000000000
B0547403114627S11721522EA0155101654000000000000
B0547443114674S11721489EA0156301670000000000000
B0547483114674S11721417EA0157801682000000000000
B0547523114621S11721365EA0158801694000000000000
B0547563114554S11721376EA0159701703000000000000
B0548003114517S11721435EA0160201704000000000000
B0548043114524S11721502EA0159801698000000000000
B0548083114571S11721540EA0159601695000000000000
B0548123114631S11721523EA0159601696000000000000
B0548163114684S11721479EA0159801695000000000000
B0548203114717S11721410EA0159801695000000000000
B0548243114708S11721323EA0159401685000000000000
B0548283114662S11721241EA0158001677000000000000
B0548323114595S11721180EA0158801689000000000000
B0548363114548S11721223EA0161201703000000000000
B0548403114593S11721246EA0162601727000000000000
B0548443114621S11721177EA0164401749000000015000
B0548483114575S11721118EA0165401755000000000000
B0548523114509S11721132EA0166401764000000000000
B0548563114487S11721196EA0167601776000000000000
B0549003114522S11721244EA0168301784000000000000
B0549043114584S11721223EA0169401801000000000000
B0549083114605S11721145EA0171201825000000000000
B0549123114567S11721080EA0173101839000000000000
B0549163114507S11721084EA0174101847000000000000
B0549203114491S11721142EA0174901857000000000000
B0549243114533S11721181EA0176101869000000000000
B0549283114587S11721146EA0177701886000000000000
B0549323114598S11721068EA0179201900000000000000
B0549363114558S11721003EA0180201908000000000000
B0549403114493S11720995EA0181201919000000000000
B0549443114454S11721042EA0182001928000000000000
B0549483114475S11721097EA0182801934000000000000
B0549523114533S11721092EA0183501947000000000000
B0549563114556S11721020EA0185201965000000000000
B0550003114514S11720958EA0186201973000000000000
B0550043114449S11720958EA0186601974000000000000
B0550083114426S11721020EA0187001978000000000000
B0550123114457S11721075EA0187601986000000000000
B0550163114515S11721076EA0189502004000000000000
B0550203114553S11721015EA0190402011000000000000
B0550243114532S11720938EA0190502018000000000000
B0550283114470S11720925EA0191702030000000000000
B0550323114435S11720976EA0192302034000000000000
B0550363114455S11721037EA0192902040000000000000
B0550403114514S11721029EA0193602049000000000000
B0550443114543S11720954EA0194202052000000000000
B0550483114526S11720867EA0194402055000000000000
B0550523114483S11720794EA0195502070000000000000
B0550563114423S11720803EA0196302072000000000000
B0551003114411S11720869EA0196102068000000000000
B0551043114450S11720932EA0195602067000000000000
B0551083114513S11720923EA0197102091000000000000
B0551123114527S11720842EA0197802091000000000000
B0551163114480S11720782EA0198102099000000000000
B0551203114419S11720787EA0199102108000000000000
B0551243114362S11720820EA0198802093000000000000
B0551283114294S11720864EA0195502052000000000000
B0551323114214S11720914EA0192202032000000000000
B0551363114132S11720966EA0191702031000000000000
B0551403114055S11721018EA0191502025000000000000
B0551443113982S11721073EA0191602028000000000000
B0551483113915S11721131EA0192602037000000000000
B0551523113847S11721185EA0192802038000000000000
B0551563113779S11721237EA0193202047000000000000
B0552003113714S11721281EA0194702061000000000000
B0552043113651S11721324EA0195502061000000000000
B0552083113590S11721378EA0196102074000000000000
B0552123113561S11721448EA0197202078000000000000
B0552163113523S11721522EA0196102066000000000000
B0552203113470S11721590EA0195102058000000000000
B0552243113405S11721648EA0193902045000000000000
B0552283113331S11721696EA0193102036000000000000
B0552323113250S11721738EA0192502031000000000000
B0552363113167S11721775EA0191502017000000000000
B0552403113079S11721811EA0190302005000000000000
B0552443112989S11721846EA0189101995000000000000
B0552483112899S11721881EA0188501990000000000000
B0552523112812S11721917EA0188301987000000000000
B0552563112729S11721957EA0188101989000000000000
B0553003112648S11721995EA0188201986000000000000
B0553043112569S11722034EA0187401975000000000000
B0553083112485S11722073EA0186301966000000000000
B0553123112403S11722115EA0185801961000000000000
B0553163112322S11722154EA0185201956000000000000
B0553203112247S11722198EA0184601948000000000000
B0553243112170S11722241EA0183601938000000000000
B0553283112092S11722280EA0183001934000000000000
B0553323112017S11722316EA0182301924000000000000
B0553363111939S11722349EA0181201909000000000000
B0553403111863S11722379EA0180901911000000000000
B0553443111790S11722411EA0180701905000000000000
B0553483111716S11722448EA0179301889000000000000
B0553523111642S11722487EA0178701885000000000000
B0553563111571S11722529EA0178401885000000000000
B0554003111502S11722574EA0178401885000000000000
B0554043111436S11722618EA0179301899000000000000
B0554083111380S11722663EA0181601920000000000000
B0554123111339S11722718EA0181801911000000000000
B0554163111285S11722770EA0180101892000000000000
B0554203111222S11722817EA0178701885000000000000
B0554243111156S11722857EA0177801876000000000000
B0554283111086S11722892EA0176801866000000000000
B0554323111017S11722922EA0176001858000000000000
B0554363110948S11722951EA0175301853000000000000
B0554403110886S11722988EA0175301850000000000000
B0554443110830S11723034EA0174301834000000000000
B0554483110774S11723086EA0172601817000000000000
B0554523110721S11723140EA0171301807000000000000
B0554563110685S11723205EA0170901804000000000000
B0555003110693S11723276EA0170301792000000000000
B0555043110727S11723342EA0168401772000000000000
B0555083110774S11723404EA0167401765000000000000
B0555123110828S11723462EA0166301757000000000000
B0555163110887S11723516EA0165901750000000000000
B0555203110944S11723572EA0165301744000000000000
B0555243111004S11723628EA0164501739000000000000
B0555283111065S11723683EA0163701730000000000000
B0555323111129S11723738EA0163501732000000000000
B0555363111194S11723793EA0164001743000000000000
B0555403111254S11723840EA0166101762000000000000
B0555443111313S11723884EA0166801763000000000000
B0555483111371S11723932EA0167201769000000000000
B0555523111429S11723978EA0167901776000000000000
B0555563111488S11724021EA0168201780000000000000
B0556003111546S11724061EA0169301789000000000000
B0556043111612S11724058EA0171201814000000000000
B0556083111645S11723985EA0172601823000000000000
B0556123111607S11723907EA0172501824000000000000
B0556163111538S11723897EA0173301833000000000000
B0556203111490S11723932EA0174301845000000000000
B0556243111481S11723989EA0175201855000000000000
B0556283111499S11724039EA0175901862000000000000
B0556323111543S11724074EA0174801839000000000000
B0556363111599S11724126EA0172401818000000000000
B0556403111664S11724183EA0171201816000000000000
B0556443111731S11724239EA0171501817000000000000
B0556483111798S11724299EA0172001828000000000000
B0556523111858S11724356EA0174601855000000000000
B0556563111914S11724408EA0174401837000000000000
B0557003111980S11724474EA0171001807000000000000
B0557043112052S11724541EA0170101803000000000000
B0557083112126S11724607EA0169101794000000000000
B0557123112200S11724668EA0169701801000000000000
B0557163112273S11724729EA0169501797000000000000
B0557203112348S11724790EA0168701787000000000000
B0557243112425S11724849EA0168401786000000000000
B0557283112500S11724911EA0167801778000000000000
B0557323112573S11724973EA0167501774000000000000
B0557363112645S11725033EA0167701782000000000000
B0557403112712S11725090EA0168201782000000000000
B0557443112781S11725152EA0167001769000000000000
B0557483112850S11725217EA0165701755000000000000
B0557523112918S11725284EA0164901746000000000000
B0557563112984S11725356EA0163701730000000000000
B0558003113054S11725427EA0162301717000000000000
B0558043113126S11725496EA0161301707000000000000
B0558083113197S11725564EA0160301700000000000000
B0558123113266S11725630EA0160001696000000000000
B0558163113336S11725692EA0159401690000000000000
B0558203113404S11725753EA0158501679000000000000
B0558243113470S11725818EA0157401668000000000000
B0558283113538S11725882EA0156401661000000000000
B0558323113601S11725946EA0156201652000000000000
B0558363113661S11726016EA0155301648000000000000
B0558403113713S11726086EA0155401644000000000000
B0558443113766S11726154EA0154101633000000000000
B0558483113824S11726220EA0153301625000000000000
B0558523113881S11726286EA0151601604000000000000
B0558563113942S11726358EA0149801587000000000000
B0559003114003S11726424EA0149601592000000000000
B0559043114063S11726485EA0150001592000000000000
B0559083114127S11726544EA0150001596000000000000
B0559123114188S11726602EA0150601604000000000000
B0559163114242S11726656EA0152001620000000000000
B0559203114292S11726709EA0153601634000000000000
B0559243114335S11726762EA0154601639000000000000
B0559283114379S11726817EA0154701640000000000000
B0559323114424S11726874EA0154401634000000000000
B0559363114474S11726930EA0153901632000000000000
B0559403114523S11726991EA0153801629000000000000
B0559443114575S11727050EA0154501643000000000000
B0559483114623S11727104EA0156301654000000000000
B0559523114676S11727146EA0157301672000000000000
B0559563114739S11727129EA0159101685000000000000
B0600003114748S11727044EA0160501703000000000000
B0600043114700S11726990EA0161301708000000000000
B0600083114643S11727007EA0161701713000000000000
B0600123114623S11727066EA0162001716000000000000
B0600163114653S11727121EA0162401723000000000000
B0600203114706S11727141EA0163401735000000000000
B0600243114741S11727081EA0164101742000000000000
B0600283114699S11727014EA0165201754000000000000
B0600323114644S11727034EA0166301767000000000000
B0600363114649S11727089EA0167301775000000000000
B0600403114704S11727089EA0168101783000000000000
B0600443114727S11727020EA0169001792000000000000
B0600483114693S11726952EA0169701801000000000000
B0600523114634S11726944EA0170501809000000000000
B0600563114600S11726990EA0171501821000000000000
B0601003114613S11727040EA0172501829000000000000
B0601043114663S11727044EA0172801831000000000000
B0601083114710S11726992EA0173301838000000000000
B0601123114697S11726918EA0174901854000000000000
B0601163114641S11726894EA0175501859000000000000
B0601203114596S11726926EA0176101863000000000000
B0601243114589S11726986EA0176001860000000000000
B0601283114618S11727052EA0174401843000000000000
B0601323114663S11727124EA0172501814000000000000
B0601363114721S11727204EA0170101791000000000000
B0601403114784S11727289EA0167601770000000000000
B0601443114852S11727375EA0166201752000000000000
B0601483114922S11727460EA0164501741000000000000
B0601523114991S11727540EA0163701733000000000000
B0601563115061S11727618EA0162701722000000000000
B0602003115130S11727692EA0162201718000000000000
B0602043115199S11727763EA0161301706000000000000
B0602083115268S11727836EA0160101693000000000000
B0602123115336S11727908EA0159301684000000000000
B0602163115403S11727978EA0158401675000000000000
B0602203115469S11728047EA0157401665000000000000
B0602243115534S11728117EA0157001663000000000000
B0602283115597S11728188EA0156101652000000000000
B0602323115655S11728265EA0155601648000000000000
B0602363115709S11728346EA0154801638000000000000
B0602403115761S11728428EA0153801629000000000000
B0602443115813S11728509EA0153001620000000000000
B0602483115866S11728593EA0152001607000000000000
B0602523115917S11728678EA0150601596000000000000
B0602563115966S11728766EA0150001590000000000000
B0603003116013S11728851EA0149501586000000000000
B0603043116056S11728937EA0148701578000000000000
B0603083116095S11729026EA0147901569000000000000
B0603123116134S11729113EA0147301560000000000000
B0603163116170S11729200EA0146501549000000000000
B0603203116204S11729289EA0144801528000000000000
B0603243116235S11729380EA0143001511000000000000
B0603283116262S11729471EA0141401494000000000000
B0603323116291S11729566EA0139701477000000000000
B0603363116320S11729660EA0138701469000000000000
B0603403116347S11729750EA0139301482000000000000
B0603443116365S11729826EA0141201500000000000000
B0603483116382S11729899EA0141601500000000000000
B0603523116400S11729972EA0141701504000000000000
B0603563116408S11730051EA0142301511000000000000
B0604003116408S11730131EA0143101518000000000000
B0604043116447S11730181EA0144301538000000000000
B0604083116496S11730142EA0146401552000000000000
B0604123116478S11730059EA0147201561000000000000
B0604163116411S11730025EA0147901567000000000000
B0604203116352S11730066EA0148401573000000000000
B0604243116353S11730129EA0149001581000000000000
B0604283116403S11730146EA0150601600000000000000
B0604323116426S11730084EA0152101611000000000000
B0604363116382S11730025EA0152501616000000000000
B0604403116318S11730043EA0152801620000000000000
B0604443116282S11730099EA0153301627000000000000
B0604483116262S11730166EA0154301640000000000000
B0604523116287S11730216EA0155501649000000000000
B0604563116337S11730180EA0156501661000000000000
B0605003116325S11730093EA0157901681000000000000
B0605043116266S11730034EA0159401694000000000000
B0605083116203S11730049EA0160501706000000000000
B0605123116191S11730103EA0161701719000000000000
B0605163116233S11730121EA0163601738000000000000
B0605203116269S11730072EA0164901749000000000000
B0605243116249S11729997EA0166501768000000000000
B0605283116187S11729967EA0167701779000000000000
B0605323116143S11730003EA0168601787000000000000
B0605363116155S11730055EA0169001793000000000000
B0605403116205S11730064EA0170201811000000000000
B0605443116243S11730010EA0171701821000000000000
B0605483116230S11729925EA0172901836000000000000
B0605523116165S11729891EA0174101848000000000000
B0605563116118S11729932EA0175101861000000000000
B0606003116125S11729986EA0176601875000000000000
B0606043116169S11730006EA0178301894000000000000
B0606083116218S11729968EA0179901908000000000000
B0606123116231S11729889EA0181101920000000000000
B0606163116183S11729821EA0182001933000000000000
B0606203116118S11729830EA0182601936000000000000
B0606243116101S11729889EA0183601949000000000000
B0606283116142S11729923EA0185001966000000000000
B0606323116191S11729890EA0187001983000000000000
B0606363116177S11729808EA0188301996000000000000
B0606403116112S11729787EA0189702009000000000000
B0606443116082S11729835EA0190402017000000000000
B0606483116121S11729864EA0191702029000000000000
B0606523116166S11729816EA0193402050000000000000
B0606563116149S11729735EA0194902066000000000000
B0607003116087S11729711EA0196102073000000000000
B0607043116053S11729757EA0196502080000000000000
B0607083116086S11729798EA0197502092000000000000
B0607123116136S11729767EA0199202113000000000000
B0607163116136S11729682EA0200902125000000000000
B0607203116082S11729629EA0201902132000000000000
B0607243116019S11729643EA0201902131000000000000
B0607283116002S11729704EA0202202137000000000000
B0607323116040S11729742EA0203602156000000000000
B0607363116078S11729690EA0206402183000000000000
B0607403116047S11729617EA0207502189000000000000
B0607443115982S11729605EA0207702191000000000000
B0607483115952S11729656EA0208602204000000000000
B0607523115980S11729703EA0209402214000000000000
B0607563116034S11729718EA0210702226000000000000
B0608003116095S11729690EA0211702234000000000000
B0608043116162S11729651EA0212202238000000000000
B0608083116238S11729618EA0212502241000000000000
B0608123116314S11729588EA0212402238000000000000
B0608163116399S11729572EA0210802222000000000000
B0608203116493S11729582EA0209002199000000000000
B0608243116587S11729622EA0207802189000000000000
B0608283116677S11729676EA0206902179000000000000
B0608323116767S11729731EA0206002172000000000000
B0608363116853S11729791EA0204902155000000000000
B0608403116938S11729854EA0203302141000000000000
B0608443117026S11729916EA0202202134000000000000
B0608483117113S11729977EA0202002132000000000000
B0608523117198S11730038EA0200902120000000000000
B0608563117286S11730099EA0200202115000000000000
B0609003117371S11730159EA0199902115000000000000
B0609043117452S11730218EA0200402119000000000000
B0609083117530S11730276EA0200002106000000000000
B0609123117611S11730339EA0198102086000000000000
B0609163117692S11730401EA0196702081000000000000
B0609203117772S11730458EA0197202091000000000000
B0609243117845S11730511EA0198302097000000000000
B0609283117919S11730563EA0197902090000000000000
B0609323117991S11730621EA0198602105000000000000
B0609363118058S11730674EA0200702124000000000000
B0609403118124S11730727EA0200202109000000000000
B0609443118197S11730786EA0198202091000000000000
B0609483118272S11730846EA0197702086000000000000
B0609523118346S11730907EA0197002077000000000000
B0609563118422S11730966EA0196602079000000000000
B0610003118497S11731024EA0196502075000000000000
B0610043118575S11731080EA0195202060000000000000
B0610083118657S11731135EA0194202050000000000000
B0610123118740S11731193EA0192602032000000000000
B0610163118823S11731255EA0191302022000000000000
B0610203118905S11731316EA0191002021000000000000
B0610243118986S11731377EA0190502011000000000000
B0610283119064S11731438EA0189902006000000000000
B0610323119141S11731497EA0190102008000000000000
B0610363119219S11731557EA0188501984000000000000
B0610403119299S11731618EA0186801975000000000000
B0610443119373S11731679EA0186801977000000000000
B0610483119445S11731739EA0186501970000000000000
B0610523119518S11731798EA0185201957000000000000
B0610563119590S11731861EA0184401950000000000000
B0611003119661S11731923EA0183901947000000000000
B0611043119728S11731987EA0183601944000000000000
B0611083119795S11732051EA0183201942000000000000
B0611123119860S11732113EA0183201938000000000000
B0611163119922S11732174EA0182701934000000000000
B0611203119984S11732234EA0182401931000000000000
B0611243120045S11732292EA0182201926000000000000
B0611283120108S11732350EA0181501918000000000000
B0611323120169S11732411EA0180601910000000000000
B0611363120226S11732472EA0180401911000000000000
B0611403120279S11732532EA0180601912000000000000
B0611443120329S11732589EA0180201904000000000000
B0611483120378S11732651EA0179601898000000000000
B0611523120429S11732714EA0178701886000000000000
B0611563120484S11732773EA0177501874000000000000
B0612003120542S11732832EA0176401863000000000000
B0612043120602S11732881EA0176501871000000000000
B0612083120655S11732935EA0177701883000000000000
B0612123120697S11732996EA0178401892000000000000
B0612163120731S11733057EA0179601899000000000000
B0612203120760S11733123EA0179801904000000000000
B0612243120789S11733189EA0181301924000000000000
B0612283120842S11733202EA0183901951000000000000
B0612323120871S11733143EA0185901968000000000000
B0612363120849S11733070EA0186501970000000000000
B0612403120788S11733033EA0186701973000000000000
B0612443120728S11733053EA0187401979000000000000
B0612483120701S11733110EA0188101989000000000000
B0612523120716S11733170EA0189202000000000000000
B0612563120755S11733204EA0191302018000000000000
B0613003120802S11733195EA0192502033000000000000
B0613043120833S11733145EA0193002042000000000000
B0613083120822S11733075EA0193802053000000000000
B0613123120766S11733032EA0194702057000000000000
B0613163120703S11733046EA0195502067000000000000
B0613203120672S11733102EA0196902081000000000000
B0613243120682S11733161EA0197602086000000000000
B0613283120723S11733204EA0196702075000000000000
B0613323120777S11733253EA0193802039000000000000
B0613363120844S11733314EA0191802031000000000000
B0613403120911S11733377EA0192902046000000000000
B0613443120978S11733435EA0193602049000000000000
B0613483121045S11733495EA0193602045000000000000
B0613523121113S11733559EA0192502027000000000000
B0613563121186S11733624EA0190502005000000000000
B0614003121261S11733687EA0188701992000000000000
B0614043121336S11733750EA0187901986000000000000
B0614083121410S11733810EA0187401980000000000000
B0614123121486S11733868EA0186401969000000000000
B0614163121561S11733928EA0185401960000000000000
B0614203121635S11733986EA0185101959000000000000
B0614243121708S11734045EA0184901955000000000000
B0614283121778S11734103EA0184301949000000000000
B0614323121850S11734162EA0183501940000000000000
B0614363121921S11734222EA0182701932000000000000
B0614403121995S11734279EA0181801923000000000000
B0614443122068S11734337EA0180901916000000000000
B0614483122142S11734395EA0180401909000000000000
B0614523122215S11734452EA0179801904000000000000
B0614563122287S11734510EA0179201896000000000000
B0615003122357S11734570EA0178501891000000000000
B0615043122426S11734630EA0178001885000000000000
B0615083122495S11734690EA0177401880000000000000
B0615123122562S11734747EA0177101878000000000000
B0615163122627S11734805EA0176901875000000000000
B0615203122692S11734865EA0176201868000000000000
B0615243122759S11734924EA0175501861000000000000
B0615283122825S11734981EA0175301857000000000000
B0615323122890S11735039EA0174601852000000000000
B0615363122954S11735099EA0174101846000000000000
B0615403123017S11735159EA0173401838000000000000
B0615443123080S11735221EA0172501829000000000000
B0615483123143S11735282EA0171901822000000000000
B0615523123207S11735344EA0171301814000000000000
B0615563123272S11735405EA0170101802000000000000
B0616003123337S11735467EA0169201789000000000000
