ACAM4N6
HFDTE230214
HFFXA050
HFPLTPILOT:JOHN WELSH              
HFGTYGLIDERTYPE:HORNET      
HFGIDGLIDERID:VH-GMY      
HFDTM100GPSDATUM:
HFRFWFIRMWAREVERSION:F2.6
HFRHWHARDWAREVERSION:300 Series Version 2
HFFTYFRTYPE:CAMBRIDGE AERO INSTRUMENTS, 302+
HFGPS:GARMIN,LVS-25,12,18000
HFPRSPRESSALTSENSOR:INTERSEMA, MS5534-AP, 20000
I033638FXA3941ENL4247REX
LCAMSBVER:5FWVER:F26300
C230214031500230214000102
C0000000N00000000WTAKEOFF     
C3207549S11656849EBEVAIR      
C3042666S11646399EKONDUT      
C3123133S11829099EBURRCPPN    
C3207549S11656849EBEVAIR      
C0000000N00000000WLANDING     
B0316023207343S11656858EA0018300196000000000000
B0316043207343S11656858EA0018400196000000000000
B0316063207343S11656858EA0018400196000000000000
B0316083207343S11656858EA0018400195000000000000
B0316103207343S11656858EA0018400195000000000000
B0316123207343S11656858EA0018400195000000000000
B0316143207343S11656858EA0018400195000000000000
B0316163207343S11656858EA0018300195000000000000
B0316183207343S11656858EA0018400195000000000000
B0316203207343S11656858EA0018400195000000000000
B0316223207343S11656858EA0018300195000000000000
B0316243207343S11656858EA0018300195000000000000
B0316263207343S11656858EA0018300195000000000000
B0316283207343S11656858EA0018300196000000000000
B0316303207345S11656860EA0018300195000000000000
B0316333207351S11656867EA0018300195000000000000
B0316373207375S11656887EA0018100194000000000000
B0316413207415S11656914EA0018000195000000000000
B0316453207468S11656948EA0017700197000000000000
B0316493207525S11656984EA0018100203000000000000
B0316533207580S11657030EA0019000214000000000000
B0316573207635S11657078EA0020000227000000000000
B0317013207689S11657131EA0021200240000000000000
B0317053207744S11657185EA0022800258000000000000
B0317093207805S11657235EA0024200272000000000000
B0317133207874S11657281EA0024900278000000000000
B0317173207944S11657315EA0026200295000000000000
B0317213208015S11657345EA0027700310000000000000
B0317253208084S11657381EA0029200327000000000000
B0317293208155S11657419EA0031100345000000000000
B0317333208231S11657452EA0032400356000000000000
B0317373208308S11657490EA0033800374000000000000
B0317413208387S11657530EA0035800400000000000000
B0317453208459S11657573EA0038500431000000000000
B0317493208525S11657612EA0042200471000000000000
B0317533208591S11657645EA0045300500000000000000
B0317573208656S11657681EA0047500521000000000000
B0318013208723S11657720EA0049600545000000000000
B0318053208790S11657761EA0051600563000000000000
B0318093208857S11657805EA0053100581000000000000
B0318133208910S11657868EA0055100604000000000000
B0318173208935S11657954EA0057900635000000000000
B0318213208931S11658048EA0060200652000000000000
B0318253208961S11658125EA0060900661000000000000
B0318293209024S11658132EA0062000672000000000000
B0318333209062S11658078EA0062800677000000000000
B0318373209046S11658006EA0063200681000000000000
B0318413208993S11657961EA0064000691000000000000
B0318453208927S11657974EA0064800698000000000000
B0318493208907S11658044EA0065200706000000000000
B0318533208950S11658076EA0066500719000000000000
B0318573208993S11658039EA0067400726000000000000
B0319013208992S11657971EA0067900737000000000000
B0319053208940S11657930EA0069200749000000000000
B0319093208881S11657959EA0070500760000000000000
B0319133208864S11658028EA0071100764000000000000
B0319173208899S11658078EA0071500770000000000000
B0319213208954S11658074EA0072500777000000000000
B0319253208987S11658021EA0072700780000000000000
B0319293208963S11657958EA0073500792000000000000
B0319333208901S11657954EA0074600803000000000000
B0319373208866S11658018EA0075500810000000000000
B0319413208888S11658084EA0076100819000000000000
B0319453208945S11658097EA0076900826000000000000
B0319493208990S11658049EA0077000825000000000000
B0319533208972S11657978EA0078000840000000000000
B0319573208911S11657956EA0079600858000000000000
B0320013208863S11658001EA0081200873000000000000
B0320053208870S11658067EA0082000883000000000000
B0320093208918S11658095EA0083100893000000000000
B0320133208964S11658061EA0083600898000000000000
B0320173208954S11657997EA0084600909000000000000
B0320213208894S11657975EA0085600921000000000000
B0320253208844S11658024EA0086300927000000000000
B0320293208859S11658092EA0087300942000000000000
B0320333208914S11658100EA0088400949000000000000
B0320373208946S11658043EA0088900955000000000000
B0320413208912S11657979EA0089600959000000000000
B0320453208845S11657969EA0090600974000000000000
B0320493208802S11658027EA0091700983000000000000
B0320533208825S11658092EA0092501000000000000000
B0320573208879S11658095EA0094301013000000000000
B0321013208912S11658041EA0094601014000000000000
B0321053208897S11657970EA0095201022000000000000
B0321093208838S11657933EA0096001030000000000000
B0321133208776S11657966EA0096801042000000000000
B0321173208760S11658040EA0098101056000000000000
B0321213208803S11658084EA0099401068000000000000
B0321253208859S11658069EA0100001075000000000000
B0321293208877S11658001EA0100801082000000000000
B0321333208832S11657946EA0101501091000000000000
B0321373208768S11657967EA0102001092000000000000
B0321413208750S11658045EA0102301101000000000000
B0321453208789S11658100EA0104001117000000000000
B0321493208845S11658101EA0104801120000000000000
B0321533208885S11658049EA0104801123000000000000
B0321573208872S11657980EA0105901136000000000000
B0322013208815S11657946EA0106401136000000000000
B0322053208751S11657975EA0106201140000000000000
B0322093208732S11658047EA0107201154000000000000
B0322133208764S11658105EA0108601165000000000000
B0322173208821S11658123EA0109001161000000000000
B0322213208879S11658088EA0108001156000000000000
B0322253208911S11658022EA0108701166000000000000
B0322293208894S11657946EA0109201169000000000000
B0322333208834S11657909EA0109901177000000000000
B0322373208769S11657926EA0110101179000000000000
B0322413208727S11657989EA0110301180000000000000
B0322453208733S11658063EA0111601197000000000000
B0322493208785S11658084EA0113201208000000000000
B0322533208827S11658032EA0113301209000000000000
B0322573208815S11657957EA0113101210000000000000
B0323013208754S11657914EA0113501216000000000000
B0323053208684S11657932EA0114301225000000000000
B0323093208645S11658000EA0115901245000000000000
B0323133208654S11658075EA0117301256000000000000
B0323173208704S11658119EA0117401252000000000000
B0323213208769S11658101EA0116401244000000000000
B0323253208803S11658028EA0116501247000000000000
B0323293208789S11657944EA0117101252000000000000
B0323333208737S11657880EA0117601261000000000000
B0323373208663S11657863EA0118501272000000000000
B0323413208600S11657909EA0119701287000000000000
B0323453208589S11657989EA0120901297000000000000
B0323493208628S11658053EA0121901305000000000000
B0323533208694S11658061EA0122301314000000000000
B0323573208742S11658011EA0124001331000000000000
B0324013208745S11657937EA0125601343000000000000
B0324053208702S11657879EA0126301350000000000000
B0324093208637S11657878EA0127001365000000000000
B0324133208603S11657939EA0128501380000000000000
B0324173208628S11658001EA0129701392000000000000
B0324213208682S11658013EA0130601401000000000000
B0324253208727S11657970EA0131401409000000000000
B0324293208733S11657897EA0131901412000000000000
B0324333208691S11657835EA0132301418000000000000
B0324373208626S11657824EA0133501433000000000000
B0324413208587S11657878EA0135501454000000000000
B0324453208603S11657937EA0136801468000000000000
B0324493208655S11657949EA0137501472000000000000
B0324533208699S11657904EA0137601477000000000000
B0324573208703S11657833EA0138801488000000000000
B0325013208663S11657781EA0140001498000000000000
B0325053208604S11657784EA0140601505000000000000
B0325093208574S11657840EA0141501514000000000000
B0325133208590S11657905EA0142601525000000000000
B0325173208637S11657940EA0143501532000000000000
B0325213208693S11657923EA0143801539000000000000
B0325253208727S11657866EA0144501543000000000000
B0325293208724S11657792EA0144801546000000000000
B0325333208686S11657731EA0144801544000000000000
B0325373208623S11657712EA0144801551000000000000
B0325413208571S11657749EA0146101565000000000000
B0325453208563S11657818EA0147601578000000000000
B0325493208603S11657866EA0148401588000000000000
B0325533208659S11657854EA0149601599000000000000
B0325573208682S11657788EA0150201601000000000000
B0326013208673S11657699EA0147601571000000000000
B0326053208633S11657598EA0143901540000000000000
B0326093208572S11657506EA0141801509000000000000
B0326133208496S11657428EA0137601466000000000000
B0326173208409S11657360EA0134701439000000000000
B0326213208312S11657296EA0132001410000000000000
B0326253208203S11657235EA0129601388000000000000
B0326293208088S11657174EA0128301376000000000000
B0326333207974S11657114EA0127301372000000000000
B0326373207859S11657060EA0126401362000000000000
B0326413207745S11657003EA0125801353000000000000
B0326453207637S11656938EA0125501346000000000000
B0326493207531S11656880EA0125501345000000000000
B0326533207421S11656853EA0126001346000000000000
B0326573207313S11656857EA0125301335000000000000
B0327013207207S11656873EA0123801319000000000000
B0327053207099S11656892EA0122301305000000000000
B0327093206992S11656914EA0120901292000000000000
B0327133206887S11656935EA0120701294000000000000
B0327173206788S11656955EA0121401302000000000000
B0327213206693S11656974EA0121201295000000000000
B0327253206600S11656995EA0120701292000000000000
B0327293206507S11657018EA0120601293000000000000
B0327333206420S11657040EA0121101296000000000000
B0327373206335S11657065EA0120901290000000000000
B0327413206249S11657090EA0119401275000000000000
B0327453206162S11657114EA0118201262000000000000
B0327493206073S11657138EA0116501241000000000000
B0327533205980S11657163EA0115101227000000000000
B0327573205886S11657189EA0114201224000000000000
B0328013205800S11657213EA0115301236000000000000
B0328053205720S11657239EA0115601235000000000000
B0328093205639S11657268EA0115401234000000000000
B0328133205564S11657293EA0116601250000000000000
B0328173205496S11657328EA0118301264000000000000
B0328213205471S11657402EA0120401286000000000000
B0328253205516S11657452EA0121001290000000000000
B0328293205573S11657419EA0119601275000000000000
B0328333205570S11657343EA0119001272000000000000
B0328373205521S11657289EA0119001277000000000000
B0328413205466S11657243EA0120201293000000000000
B0328453205406S11657225EA0122001309000000000000
B0328493205367S11657283EA0123801330000000000000
B0328533205389S11657345EA0124701333000000000000
B0328573205444S11657348EA0124001323000000000000
B0329013205479S11657290EA0123601322000000000000
B0329053205473S11657217EA0124001329000000000000
B0329093205430S11657168EA0126001355000000000000
B0329133205379S11657196EA0127801368000000000000
B0329173205384S11657264EA0128201373000000000000
B0329213205439S11657282EA0128801379000000000000
B0329253205473S11657230EA0129801394000000000000
B0329293205444S11657174EA0131101411000000000000
B0329333205384S11657177EA0132701427000000000000
B0329373205349S11657239EA0133301430000000000000
B0329413205362S11657313EA0133801436000000000000
B0329453205418S11657347EA0134301439000000000000
B0329493205475S11657316EA0134101437000000000000
B0329533205490S11657248EA0134901448000000000000
B0329573205453S11657190EA0135701455000000000000
B0330013205393S11657163EA0137201474000000000000
B0330053205357S11657217EA0139001491000000000000
B0330093205389S11657270EA0140001499000000000000
B0330133205441S11657255EA0141001509000000000000
B0330173205443S11657191EA0141901519000000000000
B0330213205391S11657157EA0142801536000000000000
B0330253205343S11657194EA0144701553000000000000
B0330293205344S11657259EA0145701557000000000000
B0330333205396S11657286EA0145401553000000000000
B0330373205444S11657247EA0146301565000000000000
B0330413205448S11657185EA0148001584000000000000
B0330453205404S11657142EA0149101594000000000000
B0330493205353S11657174EA0150401607000000000000
B0330533205363S11657237EA0151501618000000000000
B0330573205410S11657259EA0152301624000000000000
B0331013205456S11657222EA0152101622000000000000
B0331053205449S11657150EA0153001643000000000000
B0331093205399S11657129EA0155601666000000000000
B0331133205361S11657176EA0156801671000000000000
B0331173205382S11657233EA0157601683000000000000
B0331213205434S11657225EA0158901696000000000000
B0331253205444S11657163EA0160401714000000000000
B0331293205401S11657129EA0162101730000000000000
B0331333205352S11657157EA0162201729000000000000
B0331373205340S11657224EA0163001739000000000000
B0331413205380S11657264EA0164101748000000000000
B0331453205435S11657246EA0164301753000000000000
B0331493205456S11657185EA0166101771000000000000
B0331533205422S11657137EA0167401787000000000000
B0331573205370S11657153EA0168201792000000000000
B0332013205356S11657217EA0168601797000000000000
B0332053205397S11657251EA0169701807000000000000
B0332093205445S11657220EA0170001810000000000000
B0332133205438S11657159EA0171001825000000000000
B0332173205387S11657143EA0172301834000000000000
B0332213205344S11657186EA0172101831000000000000
B0332253205308S11657252EA0171301817000000000000
B0332293205252S11657317EA0167901779000000000000
B0332333205178S11657380EA0165101757000000000000
B0332373205093S11657426EA0164001749000000000000
B0332413205010S11657464EA0163801749000000000000
B0332453204927S11657497EA0163501743000000000000
B0332493204845S11657523EA0163101739000000000000
B0332533204763S11657542EA0163101739000000000000
B0332573204682S11657560EA0163001737000000000000
B0333013204603S11657576EA0162301729000000000000
B0333053204520S11657590EA0161701724000000000000
B0333093204439S11657612EA0162001728000000000000
B0333133204362S11657638EA0162501738000000000000
B0333173204290S11657664EA0163801749000000000000
B0333213204218S11657689EA0163801739000000000000
B0333253204143S11657716EA0162101723000000000000
B0333293204063S11657746EA0160901715000000000000
B0333333203984S11657774EA0160401711000000000000
B0333373203906S11657798EA0159701700000000000000
B0333413203826S11657822EA0158501688000000000000
B0333453203745S11657848EA0157801681000000000000
B0333493203668S11657876EA0157501679000000000000
B0333533203590S11657900EA0157201676000000000000
B0333573203514S11657917EA0157001674000000000000
B0334013203436S11657931EA0156601666000000000000
B0334053203358S11657944EA0156101665000000000000
B0334093203280S11657954EA0155901660000000000000
B0334133203199S11657965EA0155001651000000000000
B0334173203114S11657974EA0154301645000000000000
B0334213203029S11657983EA0153801640000000000000
B0334253202943S11657991EA0153201633000000000000
B0334293202856S11657998EA0152401624000000000000
B0334333202770S11658008EA0152101622000000000000
B0334373202687S11658018EA0151801619000000000000
B0334413202602S11658028EA0151001610000000000000
B0334453202516S11658041EA0150201602000000000000
B0334493202431S11658056EA0149501594000000000000
B0334533202346S11658073EA0148601585000000000000
B0334573202262S11658091EA0147801577000000000000
B0335013202177S11658109EA0147301572000000000000
B0335053202095S11658127EA0147401577000000000000
B0335093202020S11658160EA0147401571000000000000
B0335133201946S11658199EA0146301559000000000000
B0335173201870S11658235EA0145601555000000000000
B0335213201794S11658271EA0145401551000000000000
B0335253201716S11658301EA0144701541000000000000
B0335293201634S11658327EA0143301530000000000000
B0335333201548S11658348EA0142401519000000000000
B0335373201461S11658362EA0141601511000000000000
B0335413201372S11658377EA0141001504000000000000
B0335453201285S11658386EA0140301497000000000000
B0335493201196S11658395EA0139601491000000000000
B0335533201107S11658401EA0139201485000000000000
B0335573201019S11658408EA0138701484000000000000
B0336013200933S11658414EA0138401477000000000000
B0336053200849S11658426EA0138001477000000000000
B0336093200767S11658439EA0137701470000000000000
B0336133200685S11658451EA0137201464000000000000
B0336173200603S11658464EA0136201451000000000000
B0336213200522S11658494EA0134801438000000000000
B0336253200444S11658533EA0133801428000000000000
B0336293200370S11658585EA0132301412000000000000
B0336333200301S11658650EA0131101400000000000000
B0336373200240S11658724EA0131301412000000000000
B0336413200187S11658797EA0133101425000000000000
B0336453200136S11658867EA0134001432000000000000
B0336493200092S11658940EA0134601436000000000000
B0336533200052S11659015EA0134201427000000000000
B0336573200007S11659092EA0133201421000000000000
B0337013159962S11659166EA0133001418000000000000
B0337053159919S11659239EA0132701415000000000000
B0337093159879S11659313EA0132501414000000000000
B0337133159838S11659383EA0132301409000000000000
B0337173159794S11659453EA0132301409000000000000
B0337213159750S11659522EA0132101408000000000000
B0337253159703S11659590EA0132501415000000000000
B0337293159662S11659659EA0133501428000000000000
B0337333159630S11659730EA0134201427000000000000
B0337373159602S11659807EA0133201414000000000000
B0337413159575S11659887EA0132001405000000000000
B0337453159545S11659965EA0131501400000000000000
B0337493159512S11700041EA0130401386000000000000
B0337533159478S11700117EA0129101373000000000000
B0337573159447S11700198EA0128001365000000000000
B0338013159419S11700277EA0127601357000000000000
B0338053159381S11700355EA0126701348000000000000
B0338093159333S11700429EA0125501337000000000000
B0338133159272S11700493EA0125601347000000000000
B0338173159214S11700549EA0127401361000000000000
B0338213159161S11700606EA0127701360000000000000
B0338253159117S11700669EA0127701360000000000000
B0338293159070S11700730EA0127701361000000000000
B0338333159021S11700792EA0127201351000000000000
B0338373158960S11700852EA0125501333000000000000
B0338413158889S11700905EA0124001319000000000000
B0338453158819S11700960EA0123301318000000000000
B0338493158783S11701038EA0125001343000000000000
B0338533158779S11701113EA0126501346000000000000
B0338573158775S11701190EA0125901337000000000000
B0339013158758S11701269EA0124801322000000000000
B0339053158724S11701350EA0123301312000000000000
B0339093158678S11701423EA0123501319000000000000
B0339133158628S11701488EA0123701317000000000000
B0339173158572S11701547EA0123101314000000000000
B0339213158512S11701605EA0123201315000000000000
B0339253158450S11701657EA0123301320000000000000
B0339293158393S11701705EA0124701334000000000000
B0339333158340S11701749EA0125001333000000000000
B0339373158286S11701793EA0124301325000000000000
B0339413158232S11701841EA0123001309000000000000
B0339453158171S11701892EA0121701290000000000000
B0339493158104S11701940EA0119501268000000000000
B0339533158031S11701989EA0117601252000000000000
B0339573157959S11702034EA0116801247000000000000
B0340013157888S11702077EA0116101240000000000000
B0340053157817S11702117EA0115301233000000000000
B0340093157749S11702158EA0115901244000000000000
B0340133157684S11702196EA0116001236000000000000
B0340173157622S11702238EA0116201245000000000000
B0340213157561S11702277EA0117301251000000000000
B0340253157504S11702318EA0117301252000000000000
B0340293157446S11702365EA0117401249000000000000
B0340333157400S11702430EA0116401236000000000000
B0340373157339S11702489EA0114801224000000000000
B0340413157264S11702526EA0115501243000000000000
B0340453157203S11702568EA0118801274000000000000
B0340493157196S11702633EA0121601304000000000000
B0340533157241S11702656EA0124101326000000000000
B0340573157283S11702616EA0125301339000000000000
B0341013157288S11702550EA0126501351000000000000
B0341053157250S11702507EA0128101367000000000000
B0341093157205S11702525EA0129301377000000000000
B0341133157194S11702585EA0129901385000000000000
B0341173157231S11702630EA0131901407000000000000
B0341213157283S11702617EA0133201422000000000000
B0341253157303S11702555EA0134701435000000000000
B0341293157274S11702500EA0135801448000000000000
B0341333157219S11702491EA0136901458000000000000
B0341373157175S11702532EA0137401463000000000000
B0341413157176S11702599EA0138801485000000000000
B0341453157228S11702623EA0141201505000000000000
B0341493157266S11702574EA0142601519000000000000
B0341533157251S11702504EA0143701531000000000000
B0341573157201S11702461EA0144901544000000000000
B0342013157142S11702476EA0145201545000000000000
B0342053157107S11702535EA0145801559000000000000
B0342093157132S11702590EA0148901586000000000000
B0342133157184S11702571EA0150201600000000000000
B0342173157196S11702504EA0151401612000000000000
B0342213157153S11702455EA0152701626000000000000
B0342253157094S11702456EA0153801637000000000000
B0342293157056S11702507EA0155001652000000000000
B0342333157075S11702565EA0156201662000000000000
B0342373157132S11702568EA0157601684000000000000
B0342413157168S11702516EA0160201706000000000000
B0342453157153S11702447EA0161601719000000000000
B0342493157097S11702411EA0162301728000000000000
B0342533157037S11702433EA0163501741000000000000
B0342573157020S11702495EA0164701755000000000000
B0343013157060S11702535EA0166001766000000000000
B0343053157116S11702509EA0167001781000000000000
B0343093157138S11702441EA0169501810000000000000
B0343133157112S11702376EA0171601824000000000000
B0343173157053S11702353EA0172001827000000000000
B0343213157007S11702398EA0173101842000000000000
B0343253157011S11702463EA0174301851000000000000
B0343293157060S11702498EA0174901860000000000000
B0343333157120S11702472EA0176701880000000000000
B0343373157140S11702400EA0178701905000000000000
B0343413157107S11702337EA0180301913000000000000
B0343453157042S11702318EA0180601916000000000000
B0343493157006S11702373EA0181601934000000000000
B0343533157040S11702416EA0183401949000000000000
B0343573157088S11702372EA0185101971000000000000
B0344013157076S11702295EA0187101988000000000000
B0344053157016S11702262EA0187901992000000000000
B0344093156959S11702296EA0187901989000000000000
B0344133156938S11702370EA0187701988000000000000
B0344173156951S11702446EA0188201998000000000000
B0344213156989S11702504EA0189102005000000000000
B0344253157049S11702530EA0189502010000000000000
B0344293157098S11702482EA0191302036000000000000
B0344333157079S11702409EA0193002047000000000000
B0344373157015S11702387EA0194402061000000000000
B0344413156976S11702442EA0195402069000000000000
B0344453157003S11702508EA0195702074000000000000
B0344493157068S11702516EA0196702089000000000000
B0344533157120S11702467EA0198402103000000000000
B0344573157119S11702385EA0199102110000000000000
B0345013157064S11702329EA0200402126000000000000
B0345053156995S11702326EA0202302144000000000000
B0345093156963S11702387EA0203302158000000000000
B0345133156991S11702447EA0204602168000000000000
B0345173157050S11702442EA0206102185000000000000
B0345213157072S11702374EA0208002203000000000000
B0345253157037S11702307EA0208902210000000000000
B0345293156972S11702299EA0209802223000000000000
B0345333156937S11702353EA0211502239000000000000
B0345373156956S11702412EA0212702250000000000000
B0345413157011S11702416EA0213502258000000000000
B0345453157051S11702355EA0214302268000000000000
B0345493157043S11702273EA0215202281000000000000
B0345533156994S11702209EA0216302289000000000000
B0345573156928S11702209EA0217902309000000000000
B0346013156885S11702259EA0219102314000000000000
B0346053156886S11702327EA0218702310000000000000
B0346093156936S11702366EA0219002315000000000000
B0346133156990S11702334EA0219702324000000000000
B0346173157016S11702259EA0220202327000000000000
B0346213157002S11702175EA0220402330000000000000
B0346253156951S11702110EA0221402341000000000000
B0346293156887S11702091EA0222402354000000000000
B0346333156848S11702136EA0222402344000000000000
B0346373156864S11702205EA0220402327000000000000
B0346413156919S11702255EA0219402321000000000000
B0346453156990S11702270EA0220202338000000000000
B0346493157047S11702231EA0222802364000000000000
B0346533157068S11702162EA0224902381000000000000
B0346573157053S11702086EA0225602386000000000000
B0347013157007S11702025EA0225402381000000000000
B0347053156939S11701979EA0224802378000000000000
B0347093156863S11701941EA0222702345000000000000
B0347133156769S11701906EA0218202303000000000000
B0347173156666S11701876EA0216102288000000000000
B0347213156562S11701850EA0214902275000000000000
B0347253156461S11701827EA0214002265000000000000
B0347293156360S11701805EA0213302260000000000000
B0347333156260S11701783EA0212502249000000000000
B0347373156162S11701763EA0212102244000000000000
B0347413156066S11701746EA0210902230000000000000
B0347453155968S11701731EA0209902222000000000000
B0347493155873S11701718EA0209302216000000000000
B0347533155781S11701705EA0209002214000000000000
B0347573155690S11701690EA0208602207000000000000
B0348013155600S11701677EA0208302203000000000000
B0348053155511S11701668EA0207602195000000000000
B0348093155424S11701661EA0206902190000000000000
B0348133155338S11701653EA0206302181000000000000
B0348173155252S11701645EA0205402171000000000000
B0348213155165S11701636EA0204102158000000000000
B0348253155078S11701625EA0203402153000000000000
B0348293154992S11701614EA0203402153000000000000
B0348333154909S11701606EA0202802145000000000000
B0348373154824S11701596EA0202002135000000000000
B0348413154741S11701580EA0201302123000000000000
B0348453154657S11701562EA0199802113000000000000
B0348493154572S11701545EA0199402111000000000000
B0348533154488S11701529EA0199502112000000000000
B0348573154406S11701518EA0200202120000000000000
B0349013154326S11701507EA0201502133000000000000
B0349053154252S11701503EA0202802147000000000000
B0349093154177S11701501EA0202802143000000000000
B0349133154104S11701518EA0203202158000000000000
B0349173154055S11701568EA0204702164000000000000
B0349213153999S11701622EA0204102148000000000000
B0349253153920S11701650EA0201702125000000000000
B0349293153830S11701657EA0199502105000000000000
B0349333153735S11701653EA0198302100000000000000
B0349373153644S11701646EA0198102088000000000000
B0349413153550S11701637EA0195702067000000000000
B0349453153455S11701624EA0194102054000000000000
B0349493153361S11701609EA0192402036000000000000
B0349533153263S11701592EA0190402016000000000000
B0349573153167S11701573EA0189502008000000000000
B0350013153072S11701553EA0188701997000000000000
B0350053152978S11701536EA0187801988000000000000
B0350093152886S11701519EA0186901978000000000000
B0350133152795S11701503EA0185701965000000000000
B0350173152707S11701488EA0185301962000000000000
B0350213152620S11701468EA0183601941000000000000
B0350253152529S11701451EA0182801937000000000000
B0350293152441S11701436EA0182901940000000000000
B0350333152357S11701416EA0182901938000000000000
B0350373152270S11701398EA0181701921000000000000
B0350413152183S11701384EA0181201923000000000000
B0350453152100S11701372EA0181001918000000000000
B0350493152016S11701360EA0180601913000000000000
B0350533151934S11701342EA0179501901000000000000
B0350573151851S11701321EA0178601893000000000000
B0351013151768S11701298EA0177801885000000000000
B0351053151686S11701274EA0177201876000000000000
B0351093151604S11701252EA0176201865000000000000
B0351133151521S11701230EA0175301859000000000000
B0351173151439S11701208EA0174501849000000000000
B0351213151356S11701189EA0173601841000000000000
B0351253151273S11701168EA0172701832000000000000
B0351293151190S11701148EA0172301827000000000000
B0351333151110S11701129EA0171901823000000000000
B0351373151031S11701111EA0171601819000000000000
B0351413150952S11701092EA0171301816000000000000
B0351453150874S11701077EA0170901812000000000000
B0351493150796S11701063EA0170401804000000000000
B0351533150718S11701051EA0169501795000000000000
B0351573150640S11701044EA0168901789000000000000
B0352013150562S11701035EA0167901779000000000000
B0352053150482S11701025EA0167301770000000000000
B0352093150404S11701014EA0166701764000000000000
B0352133150324S11701003EA0165801753000000000000
B0352173150238S11700995EA0164501742000000000000
B0352213150152S11700990EA0163701735000000000000
B0352253150068S11700987EA0163401732000000000000
B0352293149983S11700985EA0163401733000000000000
B0352333149897S11700985EA0162701725000000000000
B0352373149812S11700983EA0161701716000000000000
B0352413149723S11700985EA0161101707000000000000
B0352453149635S11700986EA0160301697000000000000
B0352493149545S11700985EA0159201685000000000000
B0352533149455S11700985EA0157801670000000000000
B0352573149364S11700985EA0156601660000000000000
B0353013149276S11700985EA0155701650000000000000
B0353053149186S11700987EA0154401635000000000000
B0353093149095S11700988EA0153001619000000000000
B0353133149007S11700988EA0151901606000000000000
B0353173148918S11700988EA0150501593000000000000
B0353213148830S11700990EA0149501583000000000000
B0353253148743S11700990EA0148801578000000000000
B0353293148658S11700987EA0148101571000000000000
B0353333148578S11700983EA0147701564000000000000
B0353373148499S11700979EA0146601552000000000000
B0353413148417S11700981EA0145501541000000000000
B0353453148333S11700985EA0145201541000000000000
B0353493148253S11700995EA0145101539000000000000
B0353533148176S11701016EA0145001541000000000000
B0353573148106S11701044EA0146001556000000000000
B0354013148041S11701074EA0147901571000000000000
B0354053148007S11701133EA0148801579000000000000
B0354093148044S11701181EA0150101590000000000000
B0354133148101S11701167EA0150301595000000000000
B0354173148140S11701113EA0150201592000000000000
B0354213148153S11701044EA0150201592000000000000
B0354253148141S11700974EA0150601596000000000000
B0354293148114S11700907EA0151101602000000000000
B0354333148057S11700870EA0152101619000000000000
B0354373148023S11700921EA0153701630000000000000
B0354413148073S11700960EA0154201644000000000000
B0354453148116S11700918EA0156501668000000000000
B0354493148109S11700857EA0158501680000000000000
B0354533148058S11700825EA0159801700000000000000
B0354573148015S11700865EA0161501718000000000000
B0355013148027S11700927EA0163301738000000000000
B0355053148077S11700942EA0165101754000000000000
B0355093148120S11700900EA0166201762000000000000
B0355133148116S11700832EA0166601766000000000000
B0355173148071S11700790EA0168401792000000000000
B0355213148023S11700818EA0170401807000000000000
B0355253148029S11700882EA0171901823000000000000
B0355293148081S11700895EA0173501841000000000000
B0355333148118S11700843EA0175001855000000000000
B0355373148103S11700777EA0176301872000000000000
B0355413148047S11700760EA0178101892000000000000
B0355453148007S11700804EA0179701907000000000000
B0355493148018S11700869EA0181201923000000000000
B0355533148067S11700892EA0183101943000000000000
B0355573148110S11700857EA0184601950000000000000
B0356013148111S11700787EA0184801955000000000000
B0356053148066S11700736EA0186401977000000000000
B0356093148010S11700752EA0188501995000000000000
B0356133147998S11700817EA0189502006000000000000
B0356173148042S11700857EA0190602025000000000000
B0356213148090S11700827EA0192602042000000000000
B0356253148093S11700758EA0193902054000000000000
B0356293148046S11700715EA0195602073000000000000
B0356333147993S11700739EA0196802081000000000000
B0356373147979S11700809EA0197802092000000000000
B0356413148023S11700856EA0198802104000000000000
B0356453148077S11700831EA0200802125000000000000
B0356493148093S11700765EA0202502140000000000000
B0356533148055S11700714EA0204402160000000000000
B0356573147999S11700718EA0205602174000000000000
B0357013147962S11700767EA0206202180000000000000
B0357053147966S11700834EA0207302192000000000000
B0357093148011S11700873EA0208502207000000000000
B0357133148066S11700868EA0210702229000000000000
B0357173148107S11700827EA0212202238000000000000
B0357213148112S11700758EA0212302240000000000000
B0357253148070S11700713EA0213702260000000000000
B0357293148018S11700736EA0215202272000000000000
B0357333148005S11700804EA0215702279000000000000
B0357373148050S11700843EA0217202301000000000000
B0357413148098S11700814EA0219502320000000000000
B0357453148107S11700748EA0219802315000000000000
B0357493148062S11700697EA0219802322000000000000
B0357533147997S11700712EA0221102338000000000000
B0357573147969S11700777EA0222102348000000000000
B0358013148006S11700830EA0223202356000000000000
B0358053148070S11700813EA0224402374000000000000
B0358093148110S11700753EA0226302390000000000000
B0358133148109S11700676EA0226302391000000000000
B0358173148068S11700611EA0227602403000000000000
B0358213148008S11700602EA0228502416000000000000
B0358253147971S11700657EA0228902409000000000000
B0358293147997S11700723EA0228502412000000000000
B0358333148055S11700735EA0229602428000000000000
B0358373148110S11700691EA0230702434000000000000
B0358413148132S11700614EA0230802437000000000000
B0358453148088S11700561EA0231702448000000000000
B0358493148029S11700582EA0232302448000000000000
B0358533148005S11700653EA0232102446000000000000
B0358573148041S11700715EA0232802457000000000000
B0359013148103S11700702EA0234902478000000000000
B0359053148129S11700634EA0235602481000000000000
B0359093148096S11700563EA0235102478000000000000
B0359133148029S11700527EA0234702473000000000000
B0359173147951S11700510EA0233002446000000000000
B0359213147863S11700493EA0230202422000000000000
B0359253147771S11700474EA0229202410000000000000
B0359293147677S11700453EA0227602388000000000000
B0359333147578S11700428EA0225202368000000000000
B0359373147481S11700403EA0224502363000000000000
B0359413147384S11700379EA0224102361000000000000
B0359453147293S11700354EA0224302364000000000000
B0359493147206S11700329EA0224502367000000000000
B0359533147123S11700306EA0224902369000000000000
B0359573147043S11700284EA0224802365000000000000
B0400013146962S11700262EA0224102360000000000000
B0400053146881S11700241EA0223602355000000000000
B0400093146799S11700220EA0223002350000000000000
B0400133146718S11700199EA0222602347000000000000
B0400173146636S11700177EA0222302343000000000000
B0400213146552S11700156EA0221602335000000000000
B0400253146467S11700134EA0220902327000000000000
B0400293146382S11700111EA0220402320000000000000
B0400333146299S11700088EA0219802316000000000000
B0400373146217S11700064EA0219402311000000000000
B0400413146135S11700038EA0219002305000000000000
B0400453146052S11700003EA0217702294000000000000
B0400493145970S11659968EA0217702296000000000000
B0400533145888S11659932EA0217202288000000000000
B0400573145805S11659893EA0216502281000000000000
B0401013145722S11659854EA0216202278000000000000
B0401053145639S11659815EA0216102280000000000000
B0401093145557S11659777EA0216002274000000000000
B0401133145473S11659738EA0215202269000000000000
B0401173145389S11659699EA0214802265000000000000
B0401213145303S11659661EA0214002254000000000000
B0401253145217S11659620EA0212702239000000000000
B0401293145129S11659575EA0211402228000000000000
B0401333145043S11659529EA0211202225000000000000
B0401373144960S11659479EA0210902219000000000000
B0401413144879S11659431EA0210602219000000000000
B0401453144801S11659384EA0210902218000000000000
B0401493144726S11659339EA0210102208000000000000
B0401533144649S11659295EA0209402201000000000000
B0401573144571S11659252EA0208602194000000000000
B0402013144491S11659211EA0208002189000000000000
B0402053144409S11659176EA0208402198000000000000
B0402093144328S11659144EA0208702192000000000000
B0402133144242S11659113EA0207902187000000000000
B0402173144158S11659084EA0208102194000000000000
B0402213144076S11659057EA0209502210000000000000
B0402253144001S11659032EA0210502212000000000000
B0402293143921S11659009EA0209702204000000000000
B0402333143837S11658981EA0208002183000000000000
B0402373143748S11658954EA0206102168000000000000
B0402413143660S11658925EA0205302162000000000000
B0402453143574S11658898EA0205202160000000000000
B0402493143491S11658869EA0204802158000000000000
B0402533143410S11658841EA0204102156000000000000
B0402573143331S11658814EA0204102155000000000000
B0403013143254S11658790EA0204002157000000000000
B0403053143179S11658767EA0203702149000000000000
B0403093143101S11658745EA0202902144000000000000
B0403133143024S11658725EA0202702145000000000000
B0403173142950S11658710EA0202602136000000000000
B0403213142875S11658687EA0201102125000000000000
B0403253142799S11658665EA0200402115000000000000
B0403293142721S11658643EA0199402102000000000000
B0403333142642S11658622EA0198202091000000000000
B0403373142560S11658603EA0197102079000000000000
B0403413142477S11658585EA0196202074000000000000
B0403453142394S11658569EA0196802087000000000000
B0403493142317S11658561EA0198502100000000000000
B0403533142238S11658554EA0198202091000000000000
B0403573142157S11658547EA0199002104000000000000
B0404013142073S11658535EA0198302084000000000000
B0404053141986S11658525EA0198202106000000000000
B0404093141911S11658541EA0201602141000000000000
B0404133141898S11658603EA0205802183000000000000
B0404173141944S11658630EA0208602201000000000000
B0404213141996S11658591EA0209102209000000000000
B0404253141999S11658520EA0211702242000000000000
B0404293141958S11658477EA0213702253000000000000
B0404333141905S11658495EA0214402265000000000000
B0404373141895S11658556EA0216202283000000000000
B0404413141937S11658598EA0217602294000000000000
B0404453141999S11658573EA0218702315000000000000
B0404493142019S11658503EA0221202339000000000000
B0404533141988S11658442EA0222202346000000000000
B0404573141934S11658442EA0223402362000000000000
B0405013141908S11658495EA0225502382000000000000
B0405053141928S11658554EA0226902397000000000000
B0405093141987S11658563EA0228602414000000000000
B0405133142021S11658499EA0230302429000000000000
B0405173141982S11658438EA0230502433000000000000
B0405213141930S11658464EA0232002458000000000000
B0405253141944S11658525EA0234802482000000000000
B0405293142004S11658531EA0236002495000000000000
B0405333142041S11658469EA0237802512000000000000
B0405373142026S11658395EA0238902518000000000000
B0405413141970S11658373EA0239602526000000000000
B0405453141939S11658426EA0240802540000000000000
B0405493141974S11658477EA0242402559000000000000
B0405533142035S11658466EA0244802580000000000000
B0405573142070S11658401EA0244902576000000000000
B0406013142051S11658327EA0244402572000000000000
B0406053141987S11658283EA0242202545000000000000
B0406093141902S11658258EA0240302534000000000000
B0406133141811S11658240EA0238802517000000000000
B0406173141716S11658226EA0237702505000000000000
B0406213141622S11658213EA0236902498000000000000
B0406253141527S11658199EA0235602482000000000000
B0406293141429S11658182EA0234402472000000000000
B0406333141333S11658165EA0232802458000000000000
B0406373141239S11658151EA0231902448000000000000
B0406413141147S11658139EA0231402440000000000000
B0406453141053S11658132EA0230202431000000000000
B0406493140962S11658130EA0230902446000000000000
B0406533140879S11658132EA0232902461000000000000
B0406573140801S11658136EA0234502488000000000000
B0407013140738S11658144EA0237502510000000000000
B0407053140675S11658154EA0238602518000000000000
B0407093140614S11658167EA0239302528000000000000
B0407133140554S11658183EA0240102529000000000000
B0407173140485S11658199EA0237602493000000000000
B0407213140394S11658214EA0232902449000000000000
B0407253140289S11658226EA0230502430000000000000
B0407293140181S11658232EA0229502423000000000000
B0407333140075S11658238EA0228502413000000000000
B0407373139971S11658242EA0227902410000000000000
B0407413139870S11658243EA0228102413000000000000
B0407453139773S11658242EA0228302413000000000000
B0407493139677S11658239EA0228202411000000000000
B0407533139583S11658235EA0228002408000000000000
B0407573139490S11658230EA0227302398000000000000
B0408013139399S11658229EA0227702405000000000000
B0408053139313S11658232EA0228502410000000000000
B0408093139230S11658238EA0227702397000000000000
B0408133139142S11658242EA0225702376000000000000
B0408173139054S11658240EA0224702367000000000000
B0408213138972S11658256EA0225402388000000000000
B0408253138899S11658277EA0227302395000000000000
B0408293138823S11658291EA0226102377000000000000
B0408333138734S11658291EA0224102359000000000000
B0408373138641S11658284EA0223402356000000000000
B0408413138548S11658274EA0223502359000000000000
B0408453138457S11658258EA0222302344000000000000
B0408493138362S11658239EA0221102332000000000000
B0408533138271S11658216EA0220302326000000000000
B0408573138183S11658188EA0220002323000000000000
B0409013138097S11658161EA0219802317000000000000
B0409053138013S11658139EA0219202312000000000000
B0409093137927S11658122EA0218702304000000000000
B0409133137841S11658108EA0217702297000000000000
B0409173137755S11658093EA0217002290000000000000
B0409213137668S11658079EA0216302282000000000000
B0409253137580S11658066EA0215702276000000000000
B0409293137494S11658052EA0215202273000000000000
B0409333137407S11658040EA0214802267000000000000
B0409373137321S11658030EA0214502263000000000000
B0409413137235S11658022EA0214002259000000000000
B0409453137150S11658013EA0213702252000000000000
B0409493137061S11658006EA0213102246000000000000
B0409533136973S11657997EA0212402243000000000000
B0409573136884S11657991EA0211902236000000000000
B0410013136793S11657983EA0211402230000000000000
B0410053136704S11657976EA0210902225000000000000
B0410093136614S11657969EA0210202215000000000000
B0410133136526S11657962EA0209202204000000000000
B0410173136438S11657956EA0208102191000000000000
B0410213136351S11657952EA0206802175000000000000
B0410253136264S11657949EA0205402161000000000000
B0410293136177S11657949EA0204102148000000000000
B0410333136090S11657949EA0203102137000000000000
B0410373136006S11657949EA0202102129000000000000
B0410413135918S11657945EA0200902114000000000000
B0410453135830S11657931EA0199602105000000000000
B0410493135743S11657911EA0199102101000000000000
B0410533135658S11657889EA0198702096000000000000
B0410573135574S11657862EA0197702085000000000000
B0411013135488S11657832EA0196902075000000000000
B0411053135404S11657802EA0195902066000000000000
B0411093135320S11657775EA0195202061000000000000
B0411133135237S11657748EA0194402048000000000000
B0411173135151S11657722EA0193102037000000000000
B0411213135066S11657696EA0192102029000000000000
B0411253134979S11657668EA0191302020000000000000
B0411293134893S11657640EA0190302010000000000000
B0411333134807S11657611EA0189902007000000000000
B0411373134722S11657582EA0189402000000000000000
B0411413134637S11657555EA0189101998000000000000
B0411453134551S11657528EA0188401985000000000000
B0411493134461S11657502EA0187201979000000000000
B0411533134373S11657475EA0186701974000000000000
B0411573134284S11657445EA0186501971000000000000
B0412013134197S11657413EA0186001965000000000000
B0412053134109S11657384EA0185401956000000000000
B0412093134018S11657355EA0184201945000000000000
B0412133133924S11657328EA0183101938000000000000
B0412173133832S11657302EA0182501931000000000000
B0412213133738S11657276EA0181901923000000000000
B0412253133646S11657251EA0181401920000000000000
B0412293133558S11657229EA0181001915000000000000
B0412333133468S11657207EA0180401906000000000000
B0412373133378S11657186EA0179201892000000000000
B0412413133289S11657164EA0178101880000000000000
B0412453133195S11657142EA0176801868000000000000
B0412493133101S11657118EA0176101861000000000000
B0412533133006S11657094EA0174901852000000000000
B0412573132914S11657070EA0174201845000000000000
B0413013132822S11657047EA0173901842000000000000
B0413053132733S11657025EA0174301851000000000000
B0413093132648S11657001EA0175101852000000000000
B0413133132563S11656975EA0174301841000000000000
B0413173132477S11656953EA0173801840000000000000
B0413213132393S11656931EA0174201847000000000000
B0413253132310S11656912EA0174301843000000000000
B0413293132225S11656895EA0174101847000000000000
B0413333132147S11656880EA0174601850000000000000
B0413373132073S11656884EA0175601863000000000000
B0413413132002S11656893EA0176101859000000000000
B0413453131925S11656914EA0175301850000000000000
B0413493131844S11656947EA0174101835000000000000
B0413533131753S11656961EA0172401821000000000000
B0413573131661S11656952EA0171601815000000000000
B0414013131571S11656927EA0171201811000000000000
B0414053131482S11656900EA0170701809000000000000
B0414093131392S11656878EA0170701809000000000000
B0414133131303S11656864EA0170301800000000000000
B0414173131211S11656856EA0168501779000000000000
B0414213131116S11656851EA0166801764000000000000
B0414253131021S11656844EA0165901757000000000000
B0414293130928S11656843EA0165501756000000000000
B0414333130835S11656845EA0164701744000000000000
B0414373130743S11656849EA0163701737000000000000
B0414413130653S11656852EA0163001727000000000000
B0414453130566S11656852EA0161601714000000000000
B0414493130478S11656848EA0160901702000000000000
B0414533130388S11656828EA0159601689000000000000
B0414573130300S11656801EA0158801682000000000000
B0415013130211S11656769EA0158501681000000000000
B0415053130127S11656740EA0158501683000000000000
B0415093130048S11656717EA0159401687000000000000
B0415133129971S11656697EA0160001697000000000000
B0415173129898S11656678EA0161201710000000000000
B0415213129831S11656656EA0162701727000000000000
B0415253129767S11656635EA0164501741000000000000
B0415293129704S11656645EA0165701752000000000000
B0415333129685S11656717EA0165801751000000000000
B0415373129738S11656754EA0165801754000000000000
B0415413129784S11656704EA0166901766000000000000
B0415453129779S11656628EA0167801776000000000000
B0415493129750S11656559EA0168201781000000000000
B0415533129704S11656502EA0168901784000000000000
B0415573129642S11656468EA0168701781000000000000
B0416013129571S11656462EA0168201776000000000000
B0416053129496S11656480EA0166801755000000000000
B0416093129413S11656519EA0164601738000000000000
B0416133129327S11656557EA0163901734000000000000
B0416173129244S11656596EA0164401747000000000000
B0416213129171S11656639EA0166601766000000000000
B0416253129106S11656692EA0167901779000000000000
B0416293129040S11656747EA0167901774000000000000
B0416333128969S11656799EA0167201769000000000000
B0416373128895S11656849EA0167201769000000000000
B0416413128828S11656906EA0168101781000000000000
B0416453128762S11656961EA0168301777000000000000
B0416493128693S11657020EA0166601755000000000000
B0416533128614S11657079EA0164601738000000000000
B0416573128529S11657137EA0163901726000000000000
B0417013128441S11657187EA0162401715000000000000
B0417053128355S11657238EA0162001716000000000000
B0417093128271S11657283EA0162001714000000000000
B0417133128187S11657328EA0161701713000000000000
B0417173128108S11657376EA0161201705000000000000
B0417213128029S11657424EA0160601701000000000000
B0417253127955S11657473EA0160901703000000000000
B0417293127890S11657528EA0161901717000000000000
B0417333127842S11657594EA0163301732000000000000
B0417373127805S11657663EA0165101749000000000000
B0417413127795S11657738EA0166001756000000000000
B0417453127818S11657816EA0166301758000000000000
B0417493127865S11657881EA0167501773000000000000
B0417533127923S11657874EA0169101793000000000000
B0417573127931S11657806EA0169901799000000000000
B0418013127882S11657750EA0169801798000000000000
B0418053127810S11657725EA0170401804000000000000
B0418093127747S11657753EA0171601819000000000000
B0418133127734S11657828EA0172601827000000000000
B0418173127778S11657887EA0173301834000000000000
B0418213127840S11657879EA0173801847000000000000
B0418253127873S11657815EA0175001854000000000000
B0418293127855S11657737EA0175301861000000000000
B0418333127792S11657701EA0176601871000000000000
B0418373127727S11657731EA0177401878000000000000
B0418413127701S11657803EA0178501890000000000000
B0418453127738S11657863EA0179401897000000000000
B0418493127800S11657855EA0179901903000000000000
B0418533127818S11657787EA0181401921000000000000
B0418573127783S11657725EA0182401931000000000000
B0419013127718S11657712EA0183301938000000000000
B0419053127671S11657762EA0184201949000000000000
B0419093127684S11657835EA0185101954000000000000
B0419133127740S11657870EA0185601963000000000000
B0419173127795S11657844EA0186801977000000000000
B0419213127809S11657776EA0188201989000000000000
B0419253127770S11657720EA0188801996000000000000
B0419293127705S11657727EA0189402002000000000000
B0419333127667S11657790EA0190002010000000000000
B0419373127662S11657872EA0190702017000000000000
B0419413127692S11657941EA0191702025000000000000
B0419453127749S11657943EA0192202028000000000000
B0419493127760S11657879EA0192502031000000000000
B0419533127712S11657824EA0191902027000000000000
B0419573127637S11657794EA0191802029000000000000
B0420013127559S11657768EA0191402020000000000000
B0420053127475S11657738EA0189802001000000000000
B0420093127383S11657706EA0188501990000000000000
B0420133127292S11657672EA0189001999000000000000
B0420173127201S11657637EA0189602008000000000000
B0420213127114S11657605EA0191802033000000000000
B0420253127032S11657572EA0193602055000000000000
B0420293126951S11657546EA0195502070000000000000
B0420333126870S11657527EA0194902049000000000000
B0420373126778S11657499EA0191502013000000000000
B0420413126679S11657464EA0189101998000000000000
B0420453126583S11657425EA0188401993000000000000
B0420493126487S11657384EA0188001989000000000000
B0420533126396S11657343EA0188501996000000000000
B0420573126306S11657302EA0188301993000000000000
B0421013126219S11657260EA0189702009000000000000
B0421053126136S11657216EA0190302016000000000000
B0421093126055S11657170EA0190702018000000000000
B0421133125976S11657118EA0191002023000000000000
B0421173125895S11657064EA0191402022000000000000
B0421213125815S11657005EA0191102021000000000000
B0421253125734S11656944EA0191102019000000000000
B0421293125655S11656877EA0190502013000000000000
B0421333125574S11656815EA0189702006000000000000
B0421373125491S11656760EA0188101986000000000000
B0421413125401S11656711EA0185801962000000000000
B0421453125308S11656671EA0184701950000000000000
B0421493125216S11656633EA0184401950000000000000
B0421533125122S11656600EA0184301951000000000000
B0421573125027S11656568EA0183901945000000000000
B0422013124931S11656539EA0183901945000000000000
B0422053124835S11656511EA0183801941000000000000
B0422093124737S11656492EA0182401922000000000000
B0422133124638S11656467EA0180101899000000000000
B0422173124538S11656438EA0179201897000000000000
B0422213124441S11656412EA0179201893000000000000
B0422253124346S11656389EA0179401904000000000000
B0422293124257S11656368EA0180801918000000000000
B0422333124172S11656345EA0181301913000000000000
B0422373124082S11656318EA0179601891000000000000
B0422413123988S11656284EA0178801895000000000000
B0422453123900S11656251EA0180301911000000000000
B0422493123815S11656220EA0180901908000000000000
B0422533123727S11656188EA0178901886000000000000
B0422573123637S11656146EA0177201871000000000000
B0423013123548S11656099EA0176001853000000000000
B0423053123459S11656054EA0174401841000000000000
B0423093123372S11656013EA0174001842000000000000
B0423133123290S11655978EA0174201843000000000000
B0423173123210S11655946EA0174201841000000000000
B0423213123128S11655912EA0173601830000000000000
B0423253123041S11655866EA0172901830000000000000
B0423293122956S11655817EA0173701841000000000000
B0423333122877S11655765EA0174901855000000000000
B0423373122798S11655727EA0176601873000000000000
B0423413122717S11655723EA0177901877000000000000
B0423453122636S11655720EA0178101888000000000000
B0423493122557S11655717EA0179401898000000000000
B0423533122480S11655721EA0180301905000000000000
B0423573122434S11655770EA0181101915000000000000
B0424013122457S11655829EA0181201910000000000000
B0424053122513S11655812EA0179501889000000000000
B0424093122551S11655735EA0177701876000000000000
B0424133122580S11655649EA0178101886000000000000
B0424173122599S11655564EA0178901892000000000000
B0424213122584S11655474EA0178001876000000000000
B0424253122535S11655385EA0175101849000000000000
B0424293122466S11655307EA0173501836000000000000
B0424333122392S11655237EA0172501824000000000000
B0424373122311S11655179EA0171301809000000000000
B0424413122222S11655133EA0170101796000000000000
B0424453122128S11655098EA0168701783000000000000
B0424493122031S11655068EA0167501769000000000000
B0424533121938S11655029EA0166501761000000000000
B0424573121851S11654979EA0165701755000000000000
B0425013121769S11654921EA0165501751000000000000
B0425053121695S11654855EA0164601741000000000000
B0425093121626S11654782EA0163901734000000000000
B0425133121560S11654707EA0163401724000000000000
B0425173121496S11654628EA0162201712000000000000
B0425213121433S11654546EA0160701699000000000000
B0425253121369S11654465EA0159701690000000000000
B0425293121305S11654384EA0158801678000000000000
B0425333121241S11654305EA0157401662000000000000
B0425373121179S11654222EA0155601644000000000000
B0425413121115S11654137EA0154001628000000000000
B0425453121052S11654057EA0153701627000000000000
B0425493120985S11653983EA0153101617000000000000
B0425533120916S11653910EA0152001603000000000000
B0425573120846S11653836EA0150701595000000000000
B0426013120775S11653764EA0150101585000000000000
B0426053120701S11653697EA0149701586000000000000
B0426093120629S11653636EA0151501609000000000000
B0426133120567S11653584EA0154601638000000000000
B0426173120500S11653575EA0157101661000000000000
B0426213120471S11653636EA0158101669000000000000
B0426253120517S11653681EA0158401680000000000000
B0426293120572S11653650EA0159701693000000000000
B0426333120577S11653578EA0160501699000000000000
B0426373120547S11653507EA0160801703000000000000
B0426413120494S11653460EA0161401706000000000000
B0426453120428S11653486EA0161001705000000000000
B0426493120411S11653555EA0162501726000000000000
B0426533120461S11653571EA0164201741000000000000
B0426573120499S11653520EA0164701743000000000000
B0427013120484S11653455EA0165101749000000000000
B0427053120422S11653439EA0165201746000000000000
B0427093120355S11653472EA0165401754000000000000
B0427133120322S11653532EA0167101772000000000000
B0427173120361S11653576EA0168001779000000000000
B0427213120415S11653546EA0168301783000000000000
B0427253120420S11653472EA0168901791000000000000
B0427293120377S11653409EA0169501799000000000000
B0427333120308S11653394EA0170801814000000000000
B0427373120269S11653442EA0172801834000000000000
B0427413120303S11653487EA0173901841000000000000
B0427453120352S11653460EA0174301845000000000000
B0427493120351S11653385EA0174701853000000000000
B0427533120292S11653344EA0176201870000000000000
B0427573120246S11653391EA0178501894000000000000
B0428013120273S11653446EA0179801906000000000000
B0428053120328S11653432EA0180501910000000000000
B0428093120344S11653359EA0181001924000000000000
B0428133120296S11653312EA0183101947000000000000
B0428173120240S11653337EA0185801972000000000000
B0428213120233S11653402EA0187801984000000000000
B0428253120281S11653433EA0188301991000000000000
B0428293120326S11653385EA0189001999000000000000
B0428333120330S11653308EA0190602018000000000000
B0428373120291S11653251EA0192702041000000000000
B0428413120234S11653266EA0194202054000000000000
B0428453120225S11653339EA0195902069000000000000
B0428493120278S11653370EA0197102088000000000000
B0428533120324S11653328EA0198502099000000000000
B0428573120309S11653257EA0200002117000000000000
B0429013120250S11653237EA0201702136000000000000
B0429053120208S11653291EA0203602154000000000000
B0429093120221S11653359EA0205202164000000000000
B0429133120279S11653381EA0205102166000000000000
B0429173120328S11653325EA0206002178000000000000
B0429213120322S11653248EA0208402206000000000000
B0429253120270S11653207EA0210502223000000000000
B0429293120216S11653238EA0211602239000000000000
B0429333120217S11653311EA0212702249000000000000
B0429373120270S11653343EA0214202267000000000000
B0429413120322S11653308EA0215402276000000000000
B0429453120316S11653234EA0216702292000000000000
B0429493120255S11653204EA0218102310000000000000
B0429533120213S11653252EA0220502330000000000000
B0429573120234S11653315EA0221402337000000000000
B0430013120296S11653321EA0222002344000000000000
B0430053120337S11653264EA0223302358000000000000
B0430093120312S11653196EA0224702379000000000000
B0430133120250S11653187EA0226402394000000000000
B0430173120213S11653243EA0228502416000000000000
B0430213120239S11653300EA0229902428000000000000
B0430253120299S11653304EA0230502434000000000000
B0430293120346S11653257EA0231502448000000000000
B0430333120354S11653188EA0233202463000000000000
B0430373120318S11653127EA0233802467000000000000
B0430413120256S11653105EA0235002481000000000000
B0430453120209S11653144EA0236702505000000000000
B0430493120222S11653205EA0238702518000000000000
B0430533120281S11653222EA0239302526000000000000
B0430573120326S11653172EA0240702544000000000000
B0431013120317S11653100EA0242502559000000000000
B0431053120259S11653068EA0243002561000000000000
B0431093120209S11653109EA0244402581000000000000
B0431133120224S11653172EA0246802603000000000000
B0431173120281S11653191EA0247702611000000000000
B0431213120326S11653143EA0249202630000000000000
B0431253120322S11653074EA0250502640000000000000
B0431293120270S11653034EA0250702641000000000000
B0431333120220S11653066EA0251402659000000000000
B0431373120226S11653133EA0253602679000000000000
B0431413120281S11653160EA0255402692000000000000
B0431453120330S11653116EA0256302705000000000000
B0431493120331S11653043EA0257202708000000000000
B0431533120282S11652997EA0256802705000000000000
B0431573120213S11653009EA0257102714000000000000
B0432013120186S11653068EA0259202733000000000000
B0432053120234S11653108EA0260002737000000000000
B0432093120296S11653069EA0259902742000000000000
B0432133120324S11652987EA0261002750000000000000
B0432173120308S11652900EA0260902747000000000000
B0432213120250S11652835EA0260302743000000000000
B0432253120174S11652791EA0260302744000000000000
B0432293120096S11652761EA0260102742000000000000
B0432333120014S11652737EA0259802741000000000000
B0432373119928S11652714EA0258902724000000000000
B0432413119835S11652691EA0257502706000000000000
B0432453119735S11652663EA0254802679000000000000
B0432493119627S11652629EA0253502674000000000000
B0432533119520S11652592EA0253702679000000000000
B0432573119415S11652550EA0253802680000000000000
B0433013119310S11652506EA0252802665000000000000
B0433053119204S11652462EA0251502659000000000000
B0433093119100S11652420EA0251002651000000000000
B0433133118998S11652380EA0250402646000000000000
B0433173118896S11652342EA0249802636000000000000
B0433213118794S11652306EA0249002626000000000000
B0433253118695S11652268EA0248102618000000000000
B0433293118596S11652230EA0247302608000000000000
B0433333118498S11652193EA0246602604000000000000
B0433373118402S11652154EA0246302598000000000000
B0433413118307S11652113EA0245402585000000000000
B0433453118212S11652073EA0244202578000000000000
B0433493118120S11652037EA0244302576000000000000
B0433533118027S11652002EA0242702556000000000000
B0433573117929S11651966EA0241002543000000000000
B0434013117834S11651931EA0240002533000000000000
B0434053117741S11651896EA0239202524000000000000
B0434093117650S11651862EA0238302516000000000000
B0434133117559S11651831EA0237702508000000000000
B0434173117469S11651801EA0237002500000000000000
B0434213117379S11651774EA0236402492000000000000
B0434253117288S11651747EA0235302482000000000000
B0434293117198S11651721EA0234702478000000000000
B0434333117111S11651696EA0234802479000000000000
B0434373117026S11651673EA0234302474000000000000
B0434413116940S11651649EA0233702470000000000000
B0434453116857S11651625EA0233902469000000000000
B0434493116773S11651602EA0233502466000000000000
B0434533116693S11651582EA0233502461000000000000
B0434573116615S11651554EA0232602450000000000000
B0435013116537S11651527EA0231602443000000000000
B0435053116459S11651497EA0231202441000000000000
B0435093116379S11651469EA0231102443000000000000
B0435133116304S11651445EA0233002466000000000000
B0435173116231S11651426EA0233402459000000000000
B0435213116153S11651402EA0232502453000000000000
B0435253116071S11651380EA0232302446000000000000
B0435293115987S11651355EA0230902432000000000000
B0435333115900S11651329EA0230302431000000000000
B0435373115815S11651303EA0229802425000000000000
B0435413115728S11651277EA0229102417000000000000
B0435453115642S11651250EA0228302415000000000000
B0435493115558S11651228EA0228702418000000000000
B0435533115475S11651209EA0228502410000000000000
B0435573115386S11651192EA0226002388000000000000
B0436013115293S11651180EA0224602370000000000000
B0436053115198S11651172EA0223402361000000000000
B0436093115107S11651172EA0223602363000000000000
B0436133115017S11651180EA0223302356000000000000
B0436173114925S11651189EA0222402347000000000000
B0436213114830S11651192EA0221802343000000000000
B0436253114734S11651190EA0221702342000000000000
B0436293114637S11651181EA0221202337000000000000
B0436333114543S11651171EA0222402358000000000000
B0436373114457S11651157EA0224102367000000000000
B0436413114368S11651140EA0223802366000000000000
B0436453114279S11651121EA0223802366000000000000
B0436493114193S11651107EA0224602380000000000000
B0436533114111S11651098EA0225302378000000000000
B0436573114026S11651093EA0225702390000000000000
B0437013113945S11651092EA0227502409000000000000
B0437053113869S11651095EA0229002419000000000000
B0437093113792S11651101EA0228602407000000000000
B0437133113711S11651105EA0227002390000000000000
B0437173113621S11651103EA0226202388000000000000
B0437213113534S11651101EA0227302407000000000000
B0437253113453S11651103EA0229902433000000000000
B0437293113389S11651140EA0232602462000000000000
B0437333113410S11651203EA0235502489000000000000
B0437373113470S11651197EA0236002491000000000000
B0437413113495S11651125EA0236402500000000000000
B0437453113471S11651049EA0238002516000000000000
B0437493113418S11650999EA0239802534000000000000
B0437533113363S11651028EA0241702553000000000000
B0437573113378S11651089EA0243002566000000000000
B0438013113436S11651092EA0243902580000000000000
B0438053113464S11651030EA0245802601000000000000
B0438093113431S11650969EA0247302609000000000000
B0438133113366S11650968EA0248002621000000000000
B0438173113337S11651027EA0249602636000000000000
B0438213113376S11651075EA0250602646000000000000
B0438253113435S11651053EA0251502658000000000000
B0438293113460S11650981EA0252302666000000000000
B0438333113430S11650904EA0253402678000000000000
B0438373113366S11650860EA0253702681000000000000
B0438413113287S11650850EA0253802672000000000000
B0438453113196S11650835EA0250402626000000000000
B0438493113085S11650812EA0246302593000000015000
B0438533112976S11650785EA0244802583000000015000
B0438573112871S11650757EA0243402572000000000000
B0439013112768S11650730EA0243002567000000000000
B0439053112668S11650700EA0242202558000000000000
B0439093112568S11650670EA0241502552000000000000
B0439133112465S11650644EA0240902542000000000000
B0439173112360S11650620EA0239402531000000000000
B0439213112255S11650607EA0239802540000000000000
B0439253112152S11650605EA0239902529000000000000
B0439293112050S11650599EA0238502524000000000000
B0439333111957S11650594EA0239102527000000000000
B0439373111863S11650594EA0238002509000000000000
B0439413111766S11650598EA0236302490000000000000
B0439453111667S11650604EA0234702481000000000000
B0439493111568S11650613EA0234002472000000000000
B0439533111472S11650625EA0232902459000000000000
B0439573111374S11650639EA0231802448000000000000
B0440013111280S11650656EA0230902440000000000000
B0440053111186S11650674EA0230102425000000000000
B0440093111091S11650698EA0228502414000000000000
B0440133110999S11650722EA0227502399000000000000
B0440173110906S11650748EA0225402376000000000000
B0440213110813S11650774EA0224002365000000000000
B0440253110721S11650802EA0223602361000000000000
B0440293110632S11650830EA0224002369000000000000
B0440333110546S11650860EA0224402371000000000000
B0440373110463S11650893EA0224702376000000000000
B0440413110383S11650920EA0225902392000000000000
B0440453110305S11650945EA0227302400000000000000
B0440493110229S11650963EA0228602419000000000000
B0440533110162S11650972EA0230402437000000000000
B0440573110099S11650973EA0232402453000000000000
B0441013110038S11650972EA0233902468000000000000
B0441053109977S11650973EA0235302482000000000000
B0441093109930S11651010EA0236502493000000000000
B0441133109943S11651076EA0237802511000000000000
B0441173110002S11651084EA0239502530000000000000
B0441213110034S11651028EA0240502540000000000000
B0441253110007S11650962EA0241102546000000000000
B0441293109944S11650936EA0241602552000000000000
B0441333109886S11650971EA0242002551000000000000
B0441373109852S11651045EA0241902554000000000000
B0441413109847S11651129EA0243502574000000000000
B0441453109898S11651159EA0244802582000000000000
B0441493109934S11651099EA0244902583000000000000
B0441533109911S11651015EA0244602580000000000000
B0441573109850S11650947EA0244802591000000000000
B0442013109782S11650891EA0245002582000000000000
B0442053109700S11650832EA0242502560000000000000
B0442093109609S11650772EA0240502542000000000000
B0442133109512S11650711EA0239402529000000000000
B0442173109411S11650651EA0237502508000000000000
B0442213109310S11650590EA0236102491000000000000
B0442253109210S11650533EA0235402486000000000000
B0442293109112S11650477EA0235202477000000000000
B0442333109015S11650419EA0233902463000000000000
B0442373108920S11650362EA0233102454000000000000
B0442413108826S11650306EA0231702439000000000000
B0442453108733S11650250EA0230702424000000000000
B0442493108641S11650196EA0228602406000000000000
B0442533108550S11650141EA0227802407000000000000
B0442573108464S11650091EA0228202405000000000000
B0443013108377S11650036EA0227002395000000000000
B0443053108290S11649983EA0226902396000000000000
B0443093108204S11649932EA0226402383000000000000
B0443133108118S11649879EA0224402361000000000000
B0443173108027S11649828EA0222502348000000000000
B0443213107935S11649776EA0221502337000000000000
B0443253107844S11649724EA0220702329000000000000
B0443293107754S11649673EA0220402329000000000000
B0443333107668S11649624EA0220202325000000000000
B0443373107584S11649576EA0219602317000000000000
B0443413107498S11649532EA0218902308000000000000
B0443453107409S11649496EA0217302287000000000000
B0443493107316S11649468EA0214902263000000000000
B0443533107222S11649443EA0214802273000000000000
B0443573107135S11649420EA0216302287000000000000
B0444013107053S11649400EA0217602295000000000000
B0444053106975S11649391EA0218102300000000000000
B0444093106900S11649402EA0219102316000000000000
B0444133106832S11649425EA0220802329000000000000
B0444173106788S11649482EA0221702340000000000000
B0444213106819S11649534EA0223702362000000000000
B0444253106875S11649508EA0224602369000000000000
B0444293106878S11649430EA0225802387000000000000
B0444333106827S11649385EA0227802400000000000000
B0444373106772S11649405EA0228702407000000000000
B0444413106765S11649467EA0228702403000000000000
B0444453106814S11649498EA0228402401000000000000
B0444493106863S11649441EA0228102404000000000000
B0444533106875S11649355EA0229602420000000000000
B0444573106840S11649288EA0230602433000000000000
B0445013106771S11649272EA0231102431000000000000
B0445053106697S11649278EA0231302437000000000000
B0445093106631S11649316EA0231502436000000000000
B0445133106564S11649368EA0230402417000000000000
B0445173106473S11649403EA0226802381000000000000
B0445213106366S11649415EA0224802372000000000000
B0445253106259S11649409EA0224602369000000000000
B0445293106156S11649395EA0225002377000000000000
B0445333106055S11649383EA0225202373000000000000
B0445373105953S11649370EA0224102365000000000000
B0445413105853S11649355EA0223402352000000000000
B0445453105753S11649337EA0221402332000000000000
B0445493105654S11649313EA0220102323000000000000
B0445533105560S11649287EA0219802317000000000000
B0445573105467S11649260EA0219002307000000000000
B0446013105376S11649229EA0217602291000000000000
B0446053105284S11649196EA0216502282000000000000
B0446093105192S11649165EA0215602275000000000000
B0446133105101S11649132EA0215602277000000000000
B0446173105012S11649104EA0215902279000000000000
B0446213104925S11649075EA0215302270000000000000
B0446253104835S11649045EA0214102251000000000000
B0446293104742S11649017EA0212902247000000000000
B0446333104651S11648988EA0213002249000000000000
B0446373104561S11648958EA0213002244000000000000
B0446413104471S11648931EA0212502240000000000000
B0446453104382S11648904EA0211902232000000000000
B0446493104291S11648874EA0210602220000000000000
B0446533104198S11648843EA0209302209000000000000
B0446573104107S11648811EA0208602200000000000000
B0447013104014S11648779EA0207702190000000000000
B0447053103919S11648746EA0207402191000000000000
B0447093103828S11648715EA0207802191000000000000
B0447133103736S11648683EA0207202186000000000000
B0447173103645S11648653EA0207102182000000000000
B0447213103552S11648620EA0205702168000000000000
B0447253103459S11648586EA0204102153000000000000
B0447293103365S11648553EA0203202144000000000000
B0447333103270S11648521EA0202502138000000000000
B0447373103178S11648492EA0201802125000000000000
B0447413103082S11648463EA0200002112000000000000
B0447453102987S11648437EA0199502105000000000000
B0447493102892S11648411EA0198002085000000000000
B0447533102796S11648389EA0197402088000000000000
B0447573102702S11648367EA0197302084000000000000
B0448013102612S11648343EA0197302082000000000000
B0448053102523S11648319EA0197102081000000000000
B0448093102434S11648299EA0198402106000000000000
B0448133102355S11648285EA0201202126000000000000
B0448173102277S11648277EA0202102132000000000000
B0448213102196S11648281EA0202102126000000000000
B0448253102116S11648302EA0202402137000000000000
B0448293102044S11648341EA0203802152000000000000
B0448333101995S11648399EA0205502169000000000000
B0448373102027S11648456EA0207002182000000000000
B0448413102083S11648433EA0207602189000000000000
B0448453102103S11648369EA0208202193000000000000
B0448493102095S11648297EA0208202197000000000000
B0448533102051S11648245EA0208802204000000000000
B0448573101986S11648215EA0209402211000000000000
B0449013101914S11648193EA0209702212000000000000
B0449053101836S11648177EA0208702200000000000000
B0449093101752S11648167EA0206602177000000000000
B0449133101658S11648163EA0204902164000000000000
B0449173101566S11648161EA0205102166000000000000
B0449213101475S11648159EA0205502174000000000000
B0449253101389S11648159EA0207502194000000000000
B0449293101312S11648177EA0209302210000000000000
B0449333101276S11648241EA0211002227000000000000
B0449373101318S11648293EA0213302250000000000000
B0449413101377S11648272EA0214302259000000000000
B0449453101400S11648196EA0214902267000000000000
B0449493101375S11648117EA0215602275000000000000
B0449533101319S11648066EA0217002291000000000000
B0449573101255S11648064EA0218202304000000000000
B0450013101208S11648109EA0218602300000000000000
B0450053101142S11648146EA0217002281000000000000
B0450093101050S11648156EA0214902260000000000000
B0450133100948S11648152EA0213502257000000000000
B0450173100847S11648144EA0213202247000000000000
B0450213100740S11648137EA0211102226000000000000
B0450253100631S11648130EA0209102206000000000000
B0450293100523S11648125EA0207402191000000000000
B0450333100418S11648120EA0206402180000000000000
B0450373100313S11648117EA0204902166000000000000
B0450413100205S11648117EA0203502154000000000000
B0450453100101S11648116EA0203202148000000000000
B0450493059998S11648115EA0202202138000000000000
B0450533059897S11648113EA0201802137000000000000
B0450573059798S11648111EA0201202128000000000000
B0451013059699S11648107EA0200402121000000000000
B0451053059602S11648100EA0200002115000000000000
B0451093059507S11648095EA0199602111000000000000
B0451133059414S11648092EA0199302106000000000000
B0451173059322S11648091EA0198902104000000000000
B0451213059230S11648090EA0198402096000000000000
B0451253059139S11648087EA0197802087000000000000
B0451293059047S11648086EA0196702074000000000000
B0451333058953S11648085EA0195502063000000000000
B0451373058859S11648085EA0193902045000000000000
B0451413058766S11648086EA0192302029000000000000
B0451453058672S11648092EA0190602007000000000000
B0451493058577S11648098EA0188601989000000000000
B0451533058481S11648104EA0187601978000000000000
B0451573058387S11648109EA0186601968000000000000
B0452013058294S11648113EA0185601958000000000000
B0452053058203S11648115EA0184501946000000000000
B0452093058111S11648118EA0183301936000000000000
B0452133058018S11648118EA0182601930000000000000
B0452173057927S11648116EA0182401928000000000000
B0452213057836S11648113EA0182201924000000000000
B0452253057748S11648111EA0182101925000000000000
B0452293057662S11648111EA0182401928000000000000
B0452333057579S11648109EA0182001915000000000000
B0452373057492S11648107EA0180201898000000000000
B0452413057403S11648103EA0178901888000000000000
B0452453057314S11648099EA0178101879000000000000
B0452493057225S11648096EA0176901861000000000000
B0452533057133S11648090EA0175001843000000000000
B0452573057042S11648087EA0174201837000000000000
B0453013056954S11648089EA0174501842000000000000
B0453053056868S11648092EA0175301851000000000000
B0453093056782S11648098EA0176201861000000000000
B0453133056701S11648105EA0177201866000000000000
B0453173056621S11648112EA0176801861000000000000
B0453213056539S11648121EA0176701865000000000000
B0453253056457S11648130EA0175901845000000000000
B0453293056367S11648139EA0173301818000000000000
B0453333056271S11648147EA0170601797000000000000
B0453373056176S11648160EA0170001793000000000000
B0453413056085S11648168EA0170001799000000000000
B0453453055998S11648172EA0170501797000000000000
B0453493055911S11648181EA0169701791000000000000
B0453533055828S11648194EA0169801790000000000000
B0453573055745S11648206EA0169501792000000000000
B0454013055663S11648211EA0170401798000000000000
B0454053055581S11648213EA0170701800000000000000
B0454093055500S11648232EA0171001809000000000000
B0454133055427S11648260EA0172501824000000000000
B0454173055365S11648306EA0173501829000000000000
B0454213055362S11648382EA0174301840000000000000
B0454253055422S11648415EA0174901842000000000000
B0454293055473S11648362EA0174801842000000000000
B0454333055459S11648284EA0174801845000000000000
B0454373055408S11648228EA0174501841000000000000
B0454413055345S11648181EA0174301838000000000000
B0454453055278S11648146EA0173501829000000000000
B0454493055201S11648139EA0172801823000000000000
B0454533055124S11648146EA0174201850000000000000
B0454573055052S11648148EA0176701870000000000000
B0455013055001S11648194EA0178001883000000000000
B0455053055030S11648260EA0179501896000000000000
B0455093055095S11648254EA0180801914000000000000
B0455133055083S11648182EA0182901937000000000000
B0455173055027S11648186EA0184901956000000000000
B0455213055020S11648250EA0186101964000000000000
B0455253055071S11648287EA0187601988000000000000
B0455293055114S11648239EA0189602007000000000000
B0455333055088S11648173EA0191002023000000000000
B0455373055039S11648187EA0193102045000000000000
B0455413055046S11648251EA0194302053000000000000
B0455453055106S11648268EA0195702072000000000000
B0455493055132S11648202EA0197502089000000000000
B0455533055091S11648143EA0199102107000000000000
B0455573055040S11648167EA0200802123000000000000
B0456013055041S11648233EA0202102137000000000000
B0456053055093S11648267EA0204102159000000000000
B0456093055141S11648229EA0205602178000000000000
B0456133055141S11648156EA0207002189000000000000
B0456173055088S11648121EA0207802198000000000000
B0456213055039S11648156EA0209202211000000000000
B0456253055046S11648225EA0210702228000000000000
B0456293055105S11648241EA0212302245000000000000
B0456333055143S11648186EA0214402265000000000000
B0456373055124S11648117EA0215302273000000000000
B0456413055065S11648098EA0215802278000000000000
B0456453055027S11648147EA0217002292000000000000
B0456493055058S11648203EA0217702301000000000000
B0456533055119S11648199EA0219202321000000000000
B0456573055150S11648135EA0220602331000000000000
B0457013055127S11648063EA0221302338000000000000
B0457053055067S11648040EA0222002344000000000000
B0457093055017S11648089EA0221802339000000000000
B0457133054974S11648159EA0222502353000000000000
B0457173054974S11648232EA0225202382000000000000
B0457213055031S11648245EA0226902398000000000000
B0457253055061S11648180EA0227902408000000000000
B0457293055030S11648111EA0229002423000000000000
B0457333054967S11648104EA0230302438000000000000
B0457373054940S11648167EA0232502460000000000000
B0457413054976S11648216EA0234602480000000000000
B0457453055035S11648200EA0235302484000000000000
B0457493055053S11648125EA0236102499000000000000
B0457533055015S11648060EA0237602513000000000000
B0457573054950S11648048EA0238302520000000000000
B0458013054896S11648096EA0239502528000000000000
B0458053054907S11648168EA0241402550000000000000
B0458093054967S11648156EA0243102568000000000000
B0458133054974S11648082EA0244302585000000000000
B0458173054924S11648037EA0245902600000000000000
B0458213054862S11648053EA0246802605000000000000
B0458253054838S11648122EA0247702616000000000000
B0458293054883S11648172EA0248802629000000000000
B0458333054944S11648154EA0250202642000000000000
B0458373054968S11648078EA0251502656000000000000
B0458413054944S11648000EA0253002673000000000000
B0458453054884S11647960EA0253602674000000000000
B0458493054803S11647942EA0250602635000000000000
B0458533054699S11647931EA0248102623000000000000
B0458573054589S11647926EA0249302649000000000000
B0459013054486S11647926EA0251702659000000015000
B0459053054380S11647927EA0251302657000000000000
B0459093054272S11647929EA0252102663000000000000
B0459133054164S11647931EA0251702655000000000000
B0459173054055S11647936EA0250702643000000000000
B0459213053947S11647943EA0249602632000000000000
B0459253053839S11647951EA0248502619000000000000
B0459293053733S11647957EA0247502608000000000000
B0459333053627S11647962EA0246402600000000000000
B0459373053524S11647968EA0246402596000000000000
B0459413053423S11647968EA0245902594000000000000
B0459453053325S11647966EA0247102610000000000000
B0459493053233S11647969EA0249302634000000000000
B0459533053151S11647977EA0251802658000000000000
B0459573053078S11647991EA0253602674000000000000
B0500013053009S11648009EA0254102673000000000000
B0500053052931S11648027EA0253402663000000000000
B0500093052846S11648038EA0252602663000000000000
B0500133052758S11648043EA0252702660000000000000
B0500173052666S11648038EA0252002652000000000000
B0500213052570S11648024EA0250202634000000000000
B0500253052471S11648009EA0249102624000000000000
B0500293052371S11647994EA0248202618000000000000
B0500333052274S11647979EA0248002616000000000000
B0500373052179S11647964EA0248102613000000000000
B0500413052081S11647951EA0246602591000000000000
B0500453051978S11647934EA0244702572000000000000
B0500493051872S11647917EA0242602559000000000000
B0500533051765S11647904EA0242002555000000000000
B0500573051660S11647890EA0241102541000000000000
B0501013051556S11647875EA0240602537000000000000
B0501053051453S11647861EA0240202536000000000000
B0501093051353S11647848EA0239802529000000000000
B0501133051254S11647835EA0239502525000000000000
B0501173051154S11647821EA0239202516000000000000
B0501213051054S11647813EA0237902511000000000000
B0501253050959S11647826EA0238102512000000000000
B0501293050866S11647842EA0237402501000000000000
B0501333050772S11647858EA0236402494000000000000
B0501373050678S11647877EA0235902488000000000000
B0501413050587S11647895EA0235002478000000000000
B0501453050494S11647905EA0234102468000000000000
B0501493050400S11647909EA0233102458000000000000
B0501533050305S11647908EA0232802452000000000000
B0501573050212S11647901EA0231602439000000000000
B0502013050118S11647892EA0230702432000000000000
B0502053050027S11647881EA0230002425000000000000
B0502093049937S11647871EA0229402414000000000000
B0502133049848S11647861EA0228302401000000000000
B0502173049755S11647849EA0226602385000000000000
B0502213049663S11647835EA0225802374000000000000
B0502253049571S11647817EA0224402363000000000000
B0502293049476S11647799EA0223302351000000000000
B0502333049380S11647791EA0222502344000000000000
B0502373049282S11647787EA0221802339000000000000
B0502413049191S11647787EA0223402361000000000000
B0502453049108S11647799EA0224802369000000000000
B0502493049026S11647816EA0225702379000000000000
B0502533048953S11647843EA0227302400000000000000
B0502573048886S11647875EA0228702414000000000000
B0503013048830S11647925EA0230602435000000000000
B0503053048847S11647991EA0233302463000000000000
B0503093048910S11647975EA0234902480000000000000
B0503133048918S11647904EA0236102492000000000000
B0503173048862S11647884EA0237402508000000000000
B0503213048838S11647944EA0239202524000000000000
B0503253048883S11647987EA0240202534000000000000
B0503293048943S11647955EA0241102545000000000000
B0503333048953S11647882EA0242702560000000000000
B0503373048905S11647838EA0244002572000000000000
B0503413048857S11647871EA0245302590000000000000
B0503453048877S11647933EA0247102607000000000000
B0503493048939S11647926EA0248002615000000000000
B0503533048964S11647858EA0249002631000000000000
B0503573048927S11647801EA0250102637000000000000
B0504013048868S11647817EA0251002653000000000000
B0504053048864S11647879EA0253402680000000000000
B0504093048917S11647905EA0254802691000000000000
B0504133048968S11647866EA0255902706000000000000
B0504173048965S11647799EA0256702710000000000000
B0504213048910S11647765EA0256902714000000000000
B0504253048865S11647806EA0258402727000000000000
B0504293048888S11647873EA0259502739000000000000
B0504333048952S11647877EA0260402752000000000000
B0504373048981S11647812EA0261202758000000000000
B0504413048952S11647749EA0261802765000000000000
B0504453048891S11647721EA0261302754000000000000
B0504493048812S11647701EA0260302753000000000000
B0504533048735S11647712EA0262502779000000000000
B0504573048661S11647739EA0263802783000000000000
B0505013048580S11647760EA0263302768000000000000
B0505053048485S11647769EA0260502742000000000000
B0505093048383S11647765EA0259002733000000000000
B0505133048275S11647753EA0257202712000000000000
B0505173048166S11647734EA0255602699000000000000
B0505213048055S11647709EA0254702691000000000000
B0505253047946S11647680EA0254002683000000000000
B0505293047837S11647648EA0252802670000000000000
B0505333047726S11647609EA0251802654000000000000
B0505373047613S11647567EA0250102636000000000000
B0505413047501S11647526EA0248902627000000000000
B0505453047392S11647480EA0248402625000000000000
B0505493047287S11647435EA0248602628000000000000
B0505533047189S11647392EA0249602636000000000000
B0505573047092S11647348EA0248502624000000000000
B0506013046994S11647310EA0247902618000000000000
B0506053046898S11647275EA0247502611000000000000
B0506093046802S11647238EA0247002602000000000000
B0506133046706S11647202EA0245702586000000000000
B0506173046608S11647167EA0244002570000000000000
B0506213046508S11647134EA0243802558000000000000
B0506253046407S11647102EA0242802551000000000000
B0506293046305S11647069EA0242902555000000000000
B0506333046205S11647038EA0243902568000000000000
B0506373046113S11647008EA0245902589000000000000
B0506413046027S11646977EA0248102611000000000000
B0506453045948S11646948EA0248902617000000000000
B0506493045867S11646919EA0248502600000000000000
B0506533045777S11646889EA0245602567000000000000
B0506573045675S11646863EA0243102550000000000000
B0507013045568S11646843EA0242802554000000000000
B0507053045467S11646822EA0243402554000000000000
B0507093045361S11646799EA0240902522000000000000
B0507133045250S11646772EA0238602502000000000000
B0507173045135S11646746EA0237102490000000000000
B0507213045027S11646718EA0237102493000000000000
B0507253044921S11646691EA0236602484000000000000
B0507293044814S11646660EA0235002463000000000000
B0507333044706S11646629EA0233802454000000000000
B0507373044598S11646601EA0232802445000000000000
B0507413044493S11646575EA0232002437000000000000
B0507453044390S11646551EA0231402433000000000000
B0507493044290S11646523EA0231202432000000000000
B0507533044194S11646500EA0231302430000000000000
B0507573044098S11646482EA0230502420000000000000
B0508013044003S11646462EA0229602413000000000000
B0508053043907S11646445EA0229002401000000000000
B0508093043811S11646432EA0227902391000000000000
B0508133043713S11646417EA0227002382000000000000
B0508173043616S11646397EA0226302375000000000000
B0508213043517S11646379EA0225202366000000000000
B0508253043419S11646358EA0225302366000000000000
B0508293043322S11646336EA0224702353000000000000
B0508333043222S11646314EA0223202341000000000000
B0508373043120S11646291EA0222302330000000000000
B0508413043019S11646267EA0221002314000000000000
B0508453042916S11646241EA0219502301000000000000
B0508493042816S11646213EA0218802296000000000000
B0508533042721S11646183EA0218502299000000000000
B0508573042631S11646157EA0218802292000000000000
B0509013042540S11646142EA0218102290000000000000
B0509053042459S11646170EA0219702308000000000000
B0509093042405S11646236EA0220902312000000000000
B0509133042392S11646327EA0219202288000000000000
B0509173042427S11646425EA0216002257000000000000
B0509213042487S11646516EA0214002244000000000000
B0509253042547S11646607EA0213102234000000000000
B0509293042605S11646700EA0211502217000000000000
B0509333042660S11646798EA0210602209000000000000
B0509373042708S11646896EA0209902202000000000000
B0509413042750S11646998EA0209102188000000000000
B0509453042786S11647101EA0207802185000000000000
B0509493042819S11647199EA0208502192000000000000
B0509533042851S11647297EA0208602192000000000000
B0509573042884S11647392EA0209502205000000000000
B0510013042928S11647472EA0211502231000000000000
B0510053042972S11647539EA0214502257000000000000
B0510093043031S11647575EA0216202272000000000000
B0510133043097S11647575EA0216502270000000000000
B0510173043164S11647614EA0214902255000000000000
B0510213043220S11647680EA0214902258000000000000
B0510253043278S11647749EA0212802230000000000000
B0510293043333S11647834EA0210702205000000000000
B0510333043380S11647930EA0209502200000000000000
B0510373043421S11648031EA0209002196000000000000
B0510413043456S11648137EA0209002199000000000000
B0510453043496S11648233EA0210302222000000000000
B0510493043536S11648316EA0213502258000000000000
B0510533043588S11648372EA0217202287000000000000
B0510573043643S11648333EA0218402315000000000000
B0511013043627S11648254EA0218902330000000000000
B0511053043564S11648246EA0221402352000000000000
B0511093043536S11648306EA0222902364000000000000
B0511133043570S11648356EA0224402378000000000000
B0511173043632S11648342EA0224602376000000000000
B0511213043649S11648261EA0224702383000000000000
B0511253043599S11648217EA0226502409000000000000
B0511293043545S11648246EA0228602425000000000000
B0511333043538S11648308EA0229802437000000000000
B0511373043586S11648343EA0230502440000000000000
B0511413043643S11648300EA0230602443000000015000
B0511453043639S11648219EA0231102454000000015000
B0511493043582S11648176EA0232902474000000015000
B0511533043534S11648219EA0234602486000000000000
B0511573043561S11648274EA0236202499000000015000
B0512013043621S11648260EA0236802503000000015000
B0512053043645S11648185EA0236602506000000015000
B0512093043608S11648113EA0238002524000000015000
B0512133043543S11648109EA0240102544000000015000
B0512173043499S11648159EA0241402554000000000000
B0512213043497S11648226EA0242702567000000000000
B0512253043538S11648272EA0244002576000000000000
B0512293043599S11648260EA0244602581000000000000
B0512333043634S11648195EA0245002585000000000000
B0512373043601S11648128EA0245002586000000000000
B0512413043530S11648112EA0245502595000000000000
B0512453043467S11648150EA0246702605000000000000
B0512493043436S11648220EA0247402608000000000000
B0512533043432S11648304EA0246202594000000000000
B0512573043441S11648401EA0245202584000000000000
B0513013043456S11648503EA0244602579000000000000
B0513053043474S11648609EA0243702564000000000000
B0513093043495S11648716EA0241402539000000000000
B0513133043517S11648830EA0239802529000000000000
B0513173043541S11648940EA0239102518000000000000
B0513213043567S11649052EA0238102509000000000000
B0513253043595S11649162EA0237202498000000000000
B0513293043622S11649277EA0236402493000000000000
B0513333043647S11649392EA0235002474000000000000
B0513373043671S11649507EA0233602465000000000000
B0513413043697S11649617EA0233302458000000000000
B0513453043723S11649727EA0232502454000000000000
B0513493043752S11649832EA0232302449000000000000
B0513533043781S11649933EA0232102447000000000000
B0513573043808S11650033EA0231302438000000000000
B0514013043831S11650136EA0230602427000000000000
B0514053043851S11650241EA0229302416000000000000
B0514093043869S11650345EA0229302418000000000000
B0514133043886S11650447EA0228602407000000000000
B0514173043904S11650549EA0227602394000000000000
B0514213043921S11650653EA0226602387000000000000
B0514253043938S11650755EA0226202385000000000000
B0514293043952S11650855EA0225602376000000000000
B0514333043967S11650956EA0224502363000000000000
B0514373043982S11651059EA0223702357000000000000
B0514413043996S11651163EA0222902343000000000000
B0514453044012S11651274EA0220602323000000000000
B0514493044030S11651387EA0219702315000000000000
B0514533044047S11651495EA0219502313000000000000
B0514573044061S11651602EA0218802305000000000000
B0515013044072S11651710EA0218302300000000000000
B0515053044081S11651820EA0217302287000000000000
B0515093044089S11651927EA0216802283000000000000
B0515133044097S11652031EA0217102290000000000000
B0515173044107S11652132EA0217102288000000000000
B0515213044117S11652234EA0215602270000000000000
B0515253044124S11652342EA0214402251000000000000
B0515293044129S11652453EA0212302231000000000000
B0515333044136S11652562EA0210802222000000000000
B0515373044143S11652668EA0210702220000000000000
B0515413044151S11652772EA0211202224000000000000
B0515453044159S11652874EA0210902224000000000000
B0515493044168S11652975EA0211402228000000000000
B0515533044178S11653077EA0210602214000000000000
B0515573044186S11653178EA0209602207000000000000
B0516013044193S11653282EA0208502191000000000000
B0516053044199S11653390EA0207102179000000000000
B0516093044202S11653495EA0206302169000000000000
B0516133044202S11653599EA0204902157000000000000
B0516173044202S11653706EA0204402153000000000000
B0516213044203S11653812EA0204102153000000000000
B0516253044204S11653913EA0205702181000000000000
B0516293044210S11653998EA0208702200000000000000
B0516333044224S11654075EA0210302218000000000000
B0516373044276S11654088EA0213902260000000015000
B0516413044305S11654024EA0216202272000000015000
B0516453044271S11653952EA0215602274000000015000
B0516493044208S11653952EA0216702284000000015000
B0516533044186S11654006EA0217102284000000015000
B0516573044219S11654050EA0218002299000000000000
B0517013044272S11654036EA0219702314000000000000
B0517053044292S11653957EA0220102317000000015000
B0517093044243S11653897EA0220602324000000015000
B0517133044178S11653915EA0220702322000000015000
B0517173044147S11653978EA0221102329000000000000
B0517213044159S11654046EA0221402325000000000000
B0517253044195S11654114EA0218902294000000000000
B0517293044247S11654188EA0215902269000000000000
B0517333044307S11654266EA0214502266000000000000
B0517373044368S11654340EA0215502277000000000000
B0517413044431S11654403EA0218102304000000000000
B0517453044492S11654455EA0220702327000000000000
B0517493044553S11654501EA0221402323000000000000
B0517533044619S11654561EA0219002296000000000000
B0517573044688S11654635EA0216502276000000000000
B0518013044757S11654717EA0215302270000000000000
B0518053044822S11654797EA0215902279000000000000
B0518093044890S11654868EA0215902277000000000000
B0518133044962S11654933EA0215802280000000000000
B0518173045033S11654998EA0216002281000000000000
B0518213045101S11655062EA0216502283000000000000
B0518253045169S11655124EA0216102279000000000000
B0518293045233S11655194EA0215802275000000000000
B0518333045294S11655267EA0215402270000000000000
B0518373045354S11655344EA0214502260000000000000
B0518413045419S11655419EA0212202234000000000000
B0518453045482S11655502EA0210602212000000000000
B0518493045546S11655587EA0208502196000000000000
B0518533045607S11655673EA0206902176000000000000
B0518573045666S11655762EA0205102159000000000000
B0519013045727S11655851EA0203902148000000000000
B0519053045787S11655938EA0202602138000000000000
B0519093045845S11656024EA0201902131000000000000
B0519133045902S11656107EA0200902118000000000000
B0519173045959S11656194EA0199402100000000000000
B0519213046015S11656284EA0198302089000000000000
B0519253046070S11656372EA0197102080000000000000
B0519293046123S11656461EA0196502068000000000000
B0519333046175S11656550EA0194702051000000000000
B0519373046226S11656640EA0193302039000000000000
B0519413046275S11656728EA0192702038000000000000
B0519453046322S11656813EA0192902038000000000000
B0519493046368S11656896EA0192002027000000000000
B0519533046417S11656977EA0191402021000000000000
B0519573046470S11657055EA0190302009000000000000
B0520013046522S11657133EA0189902005000000000000
B0520053046578S11657208EA0189001991000000000000
B0520093046637S11657287EA0187701978000000000000
B0520133046693S11657371EA0186401962000000000000
B0520173046749S11657459EA0185201956000000000000
B0520213046807S11657540EA0185101957000000000000
B0520253046875S11657607EA0184901949000000000000
B0520293046941S11657683EA0183901933000000000000
B0520333047002S11657770EA0182701927000000000000
B0520373047059S11657858EA0182301918000000000000
B0520413047123S11657939EA0182401936000000000000
B0520453047189S11657989EA0186901991000000000000
B0520493047245S11657940EA0191102035000000000000
B0520533047241S11657862EA0192302036000000000000
B0520573047178S11657828EA0192002040000000000000
B0521013047118S11657854EA0193502053000000000000
B0521053047118S11657920EA0194702065000000000000
B0521093047183S11657920EA0196802090000000015000
B0521133047200S11657841EA0198502102000000015000
B0521173047148S11657788EA0199302113000000015000
B0521213047089S11657811EA0200902132000000000000
B0521253047097S11657874EA0203102149000000000000
B0521293047163S11657870EA0204502169000000000000
B0521333047184S11657796EA0207302195000000000000
B0521373047135S11657748EA0207702197000000000000
B0521413047087S11657785EA0208802219000000000000
B0521453047113S11657839EA0211802243000000015000
B0521493047174S11657811EA0213002258000000015000
B0521533047174S11657736EA0214902278000000015000
B0521573047120S11657722EA0215502279000000015000
B0522013047109S11657779EA0217002299000000000000
B0522053047167S11657800EA0218902318000000015000
B0522093047218S11657746EA0220902343000000000000
B0522133047209S11657677EA0223002358000000000000
B0522173047154S11657658EA0223102354000000000000
B0522213047114S11657705EA0223902371000000000000
B0522253047122S11657771EA0225402384000000000000
B0522293047189S11657763EA0226802419000000015000
B0522333047198S11657684EA0228502439000000015000
B0522373047146S11657655EA0230102448000000000000
B0522413047113S11657702EA0231302460000000000000
B0522453047148S11657754EA0233002480000000000000
B0522493047211S11657736EA0233802489000000015000
B0522533047231S11657655EA0234102492000000000000
B0522573047196S11657584EA0234502499000000000000
B0523013047133S11657585EA0235402500000000000000
B0523053047087S11657631EA0236202506000000000000
B0523093047089S11657706EA0236702508000000000000
B0523133047129S11657776EA0237002511000000000000
B0523173047197S11657768EA0238502520000000000000
B0523213047213S11657684EA0238502516000000000000
B0523253047155S11657640EA0238502520000000000000
B0523293047087S11657657EA0239202531000000000000
B0523333047054S11657724EA0239702529000000000000
B0523373047071S11657815EA0237002494000000000000
B0523413047109S11657919EA0234102472000000000000
B0523453047152S11658023EA0232702458000000000000
B0523493047201S11658127EA0232302457000000000000
B0523533047252S11658226EA0231702448000000000000
B0523573047306S11658322EA0231702449000000000000
B0524013047362S11658418EA0231702443000000000000
B0524053047417S11658515EA0231002435000000000000
B0524093047471S11658613EA0230402428000000000000
B0524133047529S11658710EA0229902427000000000000
B0524173047588S11658807EA0230602427000000000000
B0524213047647S11658905EA0229702423000000000000
B0524253047704S11658997EA0229602423000000000000
B0524293047757S11659088EA0228502405000000000000
B0524333047809S11659181EA0226902388000000000000
B0524373047859S11659278EA0225902383000000000000
B0524413047903S11659370EA0227002397000000000000
B0524453047942S11659462EA0227102392000000000000
B0524493047977S11659558EA0226302383000000000000
B0524533048010S11659657EA0225202371000000000000
B0524573048041S11659757EA0224102361000000000000
B0525013048071S11659856EA0223002349000000000000
B0525053048097S11659958EA0222602345000000000000
B0525093048123S11700054EA0224402374000000000000
B0525133048150S11700141EA0226202382000000000000
B0525173048177S11700229EA0225302365000000000000
B0525213048206S11700328EA0222902337000000000000
B0525253048234S11700435EA0220802323000000000000
B0525293048264S11700540EA0220002316000000000000
B0525333048290S11700644EA0219602311000000000000
B0525373048318S11700747EA0218202293000000000000
B0525413048338S11700852EA0216802280000000000000
B0525453048354S11700961EA0215302263000000000000
B0525493048363S11701072EA0214402264000000000000
B0525533048370S11701177EA0214902267000000000000
B0525573048375S11701281EA0214402261000000000000
B0526013048376S11701386EA0214002253000000000000
B0526053048377S11701494EA0214002262000000000000
B0526093048383S11701594EA0216102288000000000000
B0526133048389S11701683EA0218702313000000000000
B0526173048398S11701763EA0220102323000000000000
B0526213048397S11701844EA0220702330000000000000
B0526253048392S11701924EA0221502342000000000000
B0526293048406S11701993EA0222902354000000000000
B0526333048458S11702035EA0223702357000000000000
B0526373048498S11702095EA0224002363000000000000
B0526413048497S11702169EA0225002375000000000000
B0526453048471S11702238EA0226302390000000000000
B0526493048439S11702301EA0227802401000000000000
B0526533048422S11702373EA0228402408000000000000
B0526573048449S11702439EA0229002413000000000000
B0527013048510S11702482EA0229902422000000000000
B0527053048546S11702551EA0230802441000000000000
B0527093048545S11702628EA0233402462000000000000
B0527133048530S11702701EA0234202464000000000000
B0527173048519S11702784EA0233002446000000000000
B0527213048514S11702886EA0230202416000000000000
B0527253048510S11703007EA0227402395000000000000
B0527293048504S11703135EA0226502394000000000000
B0527333048497S11703257EA0226402395000000000000
B0527373048492S11703375EA0226402392000000000000
B0527413048485S11703492EA0226002385000000000000
B0527453048481S11703607EA0225002372000000000000
B0527493048479S11703724EA0223302353000000000000
B0527533048476S11703842EA0221402334000000000000
B0527573048474S11703960EA0220302323000000000000
B0528013048472S11704075EA0219402311000000000000
B0528053048468S11704189EA0218202299000000000000
B0528093048465S11704298EA0217102289000000000000
B0528133048461S11704406EA0215902271000000000000
B0528173048454S11704513EA0214002251000000000000
B0528213048444S11704619EA0212202235000000000000
B0528253048431S11704726EA0211502236000000000000
B0528293048415S11704827EA0212302250000000000000
B0528333048405S11704918EA0214202269000000000000
B0528373048400S11705002EA0215702283000000000000
B0528413048400S11705081EA0217502299000000000000
B0528453048407S11705158EA0219402318000000000000
B0528493048413S11705232EA0221002331000000000000
B0528533048415S11705310EA0221302329000000000000
B0528573048418S11705393EA0221902343000000000000
B0529013048416S11705471EA0223202356000000000000
B0529053048415S11705550EA0223602354000000000000
B0529093048419S11705640EA0221102323000000000000
B0529133048424S11705745EA0217902293000000000000
B0529173048431S11705861EA0215802269000000000000
B0529213048433S11705977EA0214002250000000000000
B0529253048431S11706094EA0212002238000000000000
B0529293048429S11706203EA0211402232000000000000
B0529333048427S11706308EA0210802224000000000000
B0529373048426S11706411EA0210502223000000000000
B0529413048423S11706513EA0210402221000000000000
B0529453048419S11706616EA0209802215000000000000
B0529493048411S11706721EA0209702216000000000000
B0529533048405S11706827EA0209402212000000000000
B0529573048401S11706931EA0209502210000000000000
B0530013048397S11707036EA0208802208000000000000
B0530053048394S11707136EA0209302211000000000000
B0530093048394S11707236EA0208802197000000000000
B0530133048397S11707343EA0206902180000000000000
B0530173048402S11707455EA0207302194000000000000
B0530213048413S11707553EA0211302239000000000000
B0530253048445S11707631EA0214802268000000000000
B0530293048510S11707652EA0217102292000000000000
B0530333048545S11707589EA0218702308000000000000
B0530373048500S11707538EA0219102316000000000000
B0530413048442S11707559EA0220802339000000000000
B0530453048428S11707622EA0222502342000000000000
B0530493048483S11707665EA0222102346000000000000
B0530533048544S11707621EA0223602369000000000000
B0530573048545S11707542EA0224602378000000000000
B0531013048491S11707498EA0225402385000000000000
B0531053048439S11707535EA0227102403000000000000
B0531093048445S11707607EA0228402414000000000000
B0531133048505S11707634EA0230002430000000000000
B0531173048557S11707590EA0231402444000000000000
B0531213048552S11707518EA0232002450000000000000
B0531253048494S11707492EA0232302454000000000000
B0531293048445S11707534EA0233602469000000000000
B0531333048420S11707604EA0234602475000000000000
B0531373048449S11707676EA0235702490000000000000
B0531413048522S11707678EA0236902512000000000000
B0531453048575S11707626EA0238302524000000000000
B0531493048572S11707555EA0238102515000000000000
B0531533048504S11707552EA0236302497000000000000
B0531573048471S11707642EA0235102487000000000000
B0532013048472S11707754EA0233602473000000000000
B0532053048485S11707868EA0232302458000000000000
B0532093048507S11707986EA0230102433000000000000
B0532133048531S11708110EA0228002414000000000000
B0532173048554S11708232EA0226602396000000000000
B0532213048580S11708356EA0224702375000000000000
B0532253048608S11708479EA0223202367000000000000
B0532293048632S11708599EA0224202380000000000000
B0532333048650S11708713EA0225202385000000000000
B0532373048665S11708826EA0225302380000000000000
B0532413048682S11708941EA0223002352000000000000
B0532453048705S11709059EA0220102324000000000000
B0532493048735S11709173EA0218402306000000000000
B0532533048770S11709284EA0217002293000000000000
B0532573048809S11709393EA0216802288000000000000
B0533013048848S11709502EA0216002280000000000000
B0533053048887S11709611EA0215502278000000000000
B0533093048922S11709721EA0215102268000000000000
B0533133048955S11709825EA0215602283000000000000
B0533173048986S11709921EA0216902286000000000000
B0533213049013S11710020EA0215502266000000000000
B0533253049034S11710124EA0213902256000000000000
B0533293049052S11710226EA0214202262000000000000
B0533333049065S11710326EA0215202274000000000000
