ACAM4N6
HFDTE131017
HFFXA050
HFPLTPILOT:JOHN WELSH              
HFGTYGLIDERTYPE:HORNET      
HFGIDGLIDERID:VH GMY      
HFDTM100GPSDATUM:
HFRFWFIRMWAREVERSION:F2.6
HFRHWHARDWAREVERSION:300 Series Version 2
HFFTYFRTYPE:CAMBRIDGE AERO INSTRUMENTS, 302+
HFGPS:GARMIN,LVS-25,12,18000
HFPRSPRESSALTSENSOR:INTERSEMA, MS5534-AP, 20000
I033638FXA3941ENL4247REX
LCAMSBVER:5FWVER:F26300
C121016042725121016000103
C0000000N00000000WTAKEOFF     
C3207549S11656849EBEVAIR      
C3157887S11735628EYOTING      
C3137789S11744052EKLLRBRRN    
C3137399S11712982ECunderdin AF
C3207549S11656849EBEVAIR      
C0000000N00000000WLANDING     
B0435113207337S11656857EA0021100205000000000000
B0435133207337S11656857EA0021000205000000000000
B0435153207337S11656857EA0021000205000000000000
B0435173207337S11656857EA0021100205000000000000
B0435193207337S11656857EA0020900205000000000000
B0435213207337S11656857EA0020900205000000000000
B0435233207337S11656857EA0020900205000000000000
B0435253207337S11656857EA0020900205000000000000
B0435273207337S11656857EA0021100205000000000000
B0435293207337S11656857EA0021000205000000000000
B0435313207337S11656857EA0021000205000000000000
B0435333207337S11656857EA0021100205000000000000
B0435353207337S11656857EA0021100205000000000000
B0435373207338S11656857EA0021100204000000000000
B0435393207341S11656860EA0021100204000000000000
B0435423207352S11656869EA0021100204000000000000
B0435463207381S11656893EA0021000204000000000000
B0435503207424S11656923EA0021100205000000000000
B0435543207480S11656962EA0021100207000000000000
B0435583207538S11657003EA0021700216000000000000
B0436023207598S11657046EA0022500224000000000000
B0436063207657S11657095EA0023300232000000000000
B0436103207709S11657150EA0024900254000000000000
B0436143207757S11657209EA0026400270000000000000
B0436183207802S11657274EA0027900281000000000000
B0436223207843S11657338EA0029200306000000000000
B0436263207880S11657402EA0031400330000000000000
B0436303207914S11657469EA0033600352000000000000
B0436343207944S11657540EA0036000376000000000000
B0436383207967S11657612EA0038000398000000000000
B0436423207987S11657688EA0040400423000000000000
B0436463208022S11657755EA0042700449000000000000
B0436503208079S11657798EA0045300477000000000000
B0436543208145S11657819EA0048100505000000000000
B0436583208217S11657814EA0050900533000000000000
B0437023208290S11657781EA0053400553000000000000
B0437063208353S11657720EA0055200571000000000000
B0437103208394S11657633EA0057100590000000000000
B0437143208399S11657533EA0058700607000000000000
B0437183208368S11657432EA0059400609000000000000
B0437223208300S11657359EA0060400621000000000000
B0437263208223S11657338EA0062500643000000000000
B0437303208153S11657356EA0064500665000000000000
B0437343208123S11657411EA0066100677000000000000
B0437383208165S11657446EA0066700684000000000000
B0437423208220S11657398EA0066700681000000000000
B0437463208217S11657308EA0066700681000000000000
B0437503208162S11657274EA0066800681000000000000
B0437543208130S11657319EA0066200673000000000000
B0437583208156S11657376EA0066300677000000000000
B0438023208221S11657364EA0066800684000000000000
B0438063208240S11657282EA0067900695000000000000
B0438103208200S11657224EA0068800702000000000000
B0438143208148S11657229EA0068900701000000000000
B0438183208136S11657281EA0069100705000000000000
B0438223208184S11657300EA0069900715000000000000
B0438263208231S11657244EA0070300718000000000000
B0438303208213S11657166EA0070800724000000000000
B0438343208161S11657159EA0071600728000000000000
B0438383208149S11657211EA0071300727000000000000
B0438423208197S11657233EA0072400745000000000000
B0438463208243S11657182EA0073500751000000000000
B0438503208233S11657100EA0073400746000000000000
B0438543208178S11657087EA0073900752000000000000
B0438583208178S11657138EA0074200756000000000000
B0439023208234S11657113EA0074700761000000000000
B0439063208231S11657029EA0075100768000000000000
B0439103208179S11657001EA0075900777000000000000
B0439143208156S11657044EA0076000774000000000000
B0439183208194S11657075EA0076700786000000000000
B0439223208243S11657030EA0077600793000000000000
B0439263208236S11656951EA0077700792000000000000
B0439303208182S11656923EA0077900797000000000000
B0439343208147S11656958EA0078400800000000000000
B0439383208168S11657004EA0079100809000000000000
B0439423208226S11656997EA0079500815000000000000
B0439463208266S11656925EA0080000817000000000000
B0439503208244S11656845EA0080700825000000000000
B0439543208190S11656825EA0081200827000000000000
B0439583208162S11656870EA0081300828000000000000
B0440023208200S11656906EA0081900840000000000000
B0440063208256S11656873EA0083100851000000000000
B0440103208278S11656793EA0083700854000000000000
B0440143208248S11656727EA0084200859000000000000
B0440183208196S11656719EA0083500851000000000000
B0440223208177S11656767EA0083800857000000000000
B0440263208216S11656796EA0085000869000000000000
B0440303208268S11656754EA0085700874000000000000
B0440343208270S11656672EA0085800875000000000000
B0440383208221S11656631EA0086000877000000000000
B0440423208183S11656661EA0086200882000000000000
B0440463208201S11656708EA0086800886000000000000
B0440503208259S11656704EA0087500892000000000000
B0440543208290S11656628EA0087400888000000000000
B0440583208249S11656571EA0087500891000000000000
B0441023208205S11656597EA0087600890000000000000
B0441063208230S11656643EA0088600904000000000000
B0441103208288S11656620EA0089300910000000000000
B0441143208311S11656539EA0089100907000000000000
B0441183208272S11656479EA0089600915000000000000
B0441223208222S11656479EA0090000916000000000000
B0441263208207S11656524EA0090300920000000000000
B0441303208249S11656549EA0091000926000000000000
B0441343208303S11656498EA0090800923000000000000
B0441383208301S11656412EA0091100928000000000000
B0441423208255S11656370EA0091400931000000000000
B0441463208218S11656399EA0091300930000000000000
B0441503208247S11656442EA0091700938000000000000
B0441543208303S11656414EA0092600944000000000000
B0441583208318S11656333EA0092600943000000000000
B0442023208281S11656275EA0092400941000000000000
B0442063208235S11656282EA0092400943000000000000
B0442103208233S11656332EA0092700944000000000000
B0442143208288S11656329EA0092700943000000000000
B0442183208311S11656250EA0092700945000000000000
B0442223208275S11656193EA0092900948000000000000
B0442263208230S11656199EA0092900946000000000000
B0442303208226S11656249EA0092900948000000000000
B0442343208275S11656271EA0093300951000000000000
B0442383208327S11656223EA0093500953000000000000
B0442423208329S11656142EA0093700954000000000000
B0442463208288S11656097EA0093600954000000000000
B0442503208248S11656113EA0093700954000000000000
B0442543208236S11656163EA0093600953000000000000
B0442583208238S11656220EA0093400952000000000000
B0443023208244S11656279EA0093900959000000000000
B0443063208252S11656337EA0094700967000000000000
B0443103208288S11656372EA0095700979000000000000
B0443143208338S11656325EA0096100981000000000000
B0443183208330S11656238EA0095800977000000000000
B0443223208272S11656193EA0095700981000000000000
B0443263208222S11656219EA0096700992000000000000
B0443303208226S11656271EA0097500998000000000000
B0443343208278S11656284EA0097901003000000000000
B0443383208317S11656219EA0098401006000000000000
B0443423208291S11656147EA0099201016000000000000
B0443463208240S11656139EA0099701020000000000000
B0443503208226S11656186EA0099801019000000000000
B0443543208264S11656220EA0100401030000000000000
B0443583208314S11656186EA0101601042000000000000
B0444023208324S11656111EA0101601034000000000000
B0444063208279S11656056EA0101401039000000000000
B0444103208236S11656073EA0102301047000000000000
B0444143208234S11656120EA0102801052000000000000
B0444183208277S11656137EA0103601060000000000000
B0444223208312S11656077EA0103801059000000000000
B0444263208285S11656007EA0104301069000000000000
B0444303208236S11656004EA0104901075000000000000
B0444343208231S11656051EA0104801072000000000000
B0444383208283S11656065EA0105101076000000000000
B0444423208327S11656009EA0106301091000000000000
B0444463208318S11655934EA0107201097000000000000
B0444503208269S11655905EA0106901092000000000000
B0444543208242S11655946EA0107501101000000000000
B0444583208275S11655977EA0108401109000000000000
B0445023208330S11655944EA0108601110000000000000
B0445063208342S11655865EA0109401123000000000000
B0445103208304S11655814EA0110101125000000000000
B0445143208260S11655827EA0109801123000000000000
B0445183208262S11655876EA0110101127000000000000
B0445223208316S11655882EA0110501129000000000000
B0445263208353S11655818EA0111301140000000000000
B0445303208333S11655748EA0111801144000000000000
B0445343208283S11655733EA0112101144000000000000
B0445383208260S11655772EA0112101147000000000000
B0445423208292S11655807EA0112201146000000000000
B0445463208348S11655779EA0112201145000000000000
B0445503208361S11655701EA0112801156000000000000
B0445543208326S11655644EA0113301157000000000000
B0445583208281S11655644EA0113201156000000000000
B0446023208262S11655686EA0113001155000000000000
B0446063208264S11655736EA0113401164000000000000
B0446103208272S11655787EA0114201168000000000000
B0446143208291S11655838EA0114901179000000000000
B0446183208343S11655831EA0115501183000000000000
B0446223208368S11655762EA0115401179000000000000
B0446263208338S11655700EA0115301180000000000000
B0446303208285S11655682EA0115101179000000000000
B0446343208244S11655716EA0116001190000000000000
B0446383208246S11655768EA0117201202000000000000
B0446423208303S11655762EA0117701204000000000000
B0446463208329S11655686EA0118101210000000000000
B0446503208296S11655619EA0118501212000000000000
B0446543208244S11655616EA0119001224000000000000
B0446583208226S11655660EA0120101232000000000000
B0447023208265S11655694EA0120601235000000000000
B0447063208331S11655668EA0120601236000000000000
B0447103208365S11655592EA0121301246000000000000
B0447143208350S11655518EA0121901248000000000000
B0447183208303S11655483EA0121801247000000000000
B0447223208257S11655501EA0122501258000000000000
B0447263208255S11655548EA0123201264000000000000
B0447303208304S11655566EA0124501275000000000000
B0447343208360S11655526EA0124501274000000000000
B0447383208373S11655445EA0124601275000000000000
B0447423208338S11655388EA0124801277000000000000
B0447463208290S11655388EA0124801280000000000000
B0447503208265S11655430EA0125401287000000000000
B0447543208277S11655476EA0126001288000000000000
B0447583208329S11655502EA0125801291000000000000
B0448023208391S11655480EA0126801300000000000000
B0448063208428S11655415EA0126801299000000000000
B0448103208416S11655340EA0126501293000000000000
B0448143208368S11655309EA0125801288000000000000
B0448183208329S11655339EA0126101296000000000000
B0448223208324S11655393EA0126901303000000000000
B0448263208330S11655449EA0127401306000000000000
B0448303208339S11655513EA0126501294000000000000
B0448343208337S11655579EA0126401300000000000000
B0448383208333S11655642EA0126601297000000000000
B0448423208330S11655707EA0126801303000000000000
B0448463208329S11655768EA0127401312000000000000
B0448503208329S11655830EA0127901313000000000000
B0448543208333S11655895EA0127601307000000000000
B0448583208335S11655963EA0127201303000000000000
B0449023208342S11656028EA0127001304000000000000
B0449063208348S11656090EA0127401310000000000000
B0449103208351S11656151EA0127401306000000000000
B0449143208355S11656215EA0126701300000000000000
B0449183208356S11656281EA0126501296000000000000
B0449223208363S11656346EA0125901293000000000000
B0449263208368S11656411EA0126001293000000000000
B0449303208374S11656474EA0126001292000000000000
B0449343208382S11656539EA0125301281000000000000
B0449383208391S11656602EA0124901284000000000000
B0449423208392S11656662EA0125301284000000000000
B0449463208395S11656719EA0125201286000000000000
B0449503208402S11656775EA0125501289000000000000
B0449543208407S11656832EA0125801292000000000000
B0449583208408S11656891EA0126201295000000000000
B0450023208411S11656951EA0126001289000000000000
B0450063208416S11657014EA0124501272000000000000
B0450103208426S11657082EA0123801269000000000000
B0450143208430S11657148EA0124001273000000000000
B0450183208434S11657217EA0124401278000000000000
B0450223208437S11657285EA0124501274000000000000
B0450263208441S11657351EA0123401263000000000000
B0450303208444S11657417EA0122801256000000000000
B0450343208443S11657485EA0122101251000000000000
B0450383208444S11657550EA0121701247000000000000
B0450423208439S11657614EA0121201239000000000000
B0450463208434S11657675EA0120601235000000000000
B0450503208429S11657735EA0120301233000000000000
B0450543208415S11657789EA0120101236000000000000
B0450583208403S11657840EA0120901243000000000000
B0451023208396S11657888EA0121401247000000000000
B0451063208429S11657924EA0121801253000000000000
B0451103208486S11657907EA0122201257000000000000
B0451143208520S11657836EA0122901257000000000000
B0451183208521S11657754EA0122401252000000000000
B0451223208493S11657686EA0121401242000000000000
B0451263208442S11657654EA0120601236000000000000
B0451303208389S11657655EA0120101230000000000000
B0451343208334S11657675EA0119301223000000000000
B0451383208278S11657688EA0118801219000000000000
B0451423208217S11657701EA0118301210000000000000
B0451463208153S11657712EA0117401205000000000000
B0451503208088S11657723EA0117401204000000000000
B0451543208031S11657749EA0117801211000000000000
B0451583207993S11657794EA0117801208000000000000
B0452023207966S11657849EA0117001196000000000000
B0452063207939S11657910EA0115701182000000000000
B0452103207923S11657976EA0114901176000000000000
B0452143207910S11658041EA0114701178000000000000
B0452183207904S11658105EA0114801179000000000000
B0452223207898S11658170EA0114301171000000000000
B0452263207898S11658234EA0113501164000000000000
B0452303207884S11658300EA0112801155000000000000
B0452343207853S11658361EA0111801144000000000000
B0452383207819S11658424EA0111501142000000000000
B0452423207807S11658494EA0111301140000000000000
B0452463207819S11658565EA0110601132000000000000
B0452503207844S11658632EA0110001127000000000000
B0452543207875S11658694EA0109601123000000000000
B0452583207908S11658752EA0109101117000000000000
B0453023207944S11658807EA0108701114000000000000
B0453063207983S11658860EA0108001103000000000000
B0453103208028S11658910EA0107001096000000000000
B0453143208078S11658957EA0106301082000000000000
B0453183208132S11659003EA0104901071000000000000
B0453223208187S11659045EA0104301069000000000000
B0453263208239S11659083EA0104101067000000000000
B0453303208292S11659116EA0103101052000000000000
B0453343208350S11659154EA0101501037000000000000
B0453383208408S11659193EA0100301025000000000000
B0453423208468S11659232EA0099301014000000000000
B0453463208529S11659270EA0098901010000000000000
B0453503208590S11659300EA0098801013000000000000
B0453543208646S11659336EA0098601009000000000000
B0453583208688S11659389EA0098101004000000000000
B0454023208728S11659448EA0097701001000000000000
B0454063208776S11659500EA0097601001000000000000
B0454103208827S11659551EA0097200997000000000000
B0454143208871S11659608EA0096700990000000000000
B0454183208906S11659674EA0096100981000000000000
B0454223208951S11659731EA0095700978000000000000
B0454263209011S11659769EA0095000971000000000000
B0454303209078S11659786EA0094600967000000000000
B0454343209149S11659772EA0093600954000000000000
B0454383209219S11659720EA0092100940000000000000
B0454423209282S11659646EA0091200933000000000000
B0454463209336S11659562EA0091100935000000000000
B0454503209380S11659477EA0091400941000000000000
B0454543209418S11659391EA0091800940000000000000
B0454583209455S11659308EA0091200934000000000000
B0455023209490S11659223EA0090900932000000000000
B0455063209523S11659140EA0090900932000000000000
B0455103209559S11659055EA0090600931000000000000
B0455143209590S11658973EA0090700932000000000000
B0455183209613S11658893EA0091300939000000000000
B0455223209634S11658815EA0091100933000000000000
B0455263209621S11658726EA0090700930000000000000
B0455303209570S11658687EA0091200939000000000000
B0455343209548S11658726EA0091800941000000000000
B0455383209583S11658751EA0091800945000000000000
B0455423209633S11658726EA0092300947000000000000
B0455463209665S11658660EA0092400946000000000000
B0455503209650S11658582EA0092500948000000000000
B0455543209600S11658577EA0093000953000000000000
B0455583209599S11658629EA0093000954000000000000
B0456023209646S11658645EA0093400960000000000000
B0456063209694S11658596EA0093700958000000000000
B0456103209703S11658512EA0093900964000000000000
B0456143209657S11658466EA0094600972000000000000
B0456183209624S11658500EA0094700969000000000000
B0456223209650S11658546EA0094700972000000000000
B0456263209705S11658520EA0095300978000000000000
B0456303209713S11658435EA0095700984000000000000
B0456343209669S11658382EA0096300993000000000000
B0456383209622S11658395EA0096900992000000000000
B0456423209618S11658447EA0096500990000000000000
B0456463209663S11658457EA0097701003000000000000
B0456503209705S11658407EA0097700999000000000000
B0456543209707S11658325EA0097501000000000000000
B0456583209663S11658279EA0098201007000000000000
B0457023209621S11658294EA0098001002000000000000
B0457063209599S11658340EA0097300993000000000000
B0457103209601S11658392EA0097300996000000000000
B0457143209646S11658416EA0096700988000000000000
B0457183209700S11658381EA0096300986000000000000
B0457223209716S11658297EA0096100985000000000000
B0457263209690S11658216EA0096200986000000000000
B0457303209643S11658152EA0096300984000000000000
B0457343209590S11658096EA0095600978000000000000
B0457383209531S11658045EA0094800969000000000000
B0457423209469S11657995EA0093700957000000000000
B0457463209404S11657946EA0092600942000000000000
B0457503209335S11657907EA0091300928000000000000
B0457543209262S11657876EA0090700928000000000000
B0457583209196S11657881EA0091400936000000000000
B0458023209146S11657914EA0091500935000000000000
B0458063209098S11657950EA0090900926000000000000
B0458103209042S11657982EA0090400924000000000000
B0458143208993S11658021EA0090000918000000000000
B0458183208953S11658071EA0089100908000000000000
B0458223208910S11658123EA0087800894000000000000
B0458263208855S11658164EA0087300888000000000000
B0458303208793S11658190EA0086500884000000000000
B0458343208729S11658205EA0086500882000000000000
B0458383208667S11658213EA0086100877000000000000
B0458423208602S11658213EA0085100865000000000000
B0458463208533S11658208EA0084100856000000000000
B0458503208467S11658199EA0083700854000000000000
B0458543208403S11658186EA0083200850000000000000
B0458583208339S11658167EA0082700843000000000000
B0459023208275S11658154EA0081900836000000000000
B0459063208210S11658144EA0081200827000000000000
B0459103208148S11658119EA0080400819000000000000
B0459143208091S11658073EA0079800813000000000000
B0459183208041S11658009EA0079200808000000000000
B0459223208001S11657932EA0078600801000000000000
B0459263207967S11657849EA0078100794000000000000
B0459303207943S11657758EA0077900794000000000000
B0459343207904S11657684EA0078400800000000000000
B0459383207849S11657684EA0079000806000000000000
B0459423207828S11657737EA0079300809000000000000
B0459463207823S11657797EA0079400809000000000000
B0459503207828S11657858EA0079600812000000000000
B0459543207880S11657872EA0080000815000000000000
B0459583207919S11657802EA0079400808000000000000
B0500023207896S11657729EA0079600814000000000000
B0500063207846S11657727EA0079900814000000000000
B0500103207830S11657779EA0079400807000000000000
B0500143207867S11657827EA0079300808000000000000
B0500183207931S11657810EA0079500810000000000000
B0500223207970S11657738EA0079200805000000000000
B0500263207982S11657649EA0078500797000000000000
B0500303207988S11657560EA0078600802000000000000
B0500343207993S11657472EA0078400796000000000000
B0500383208001S11657384EA0077600786000000000000
B0500423208025S11657298EA0076600780000000000000
B0500463208038S11657211EA0075500766000000000000
B0500503208022S11657126EA0075100762000000000000
B0500543207986S11657053EA0074100752000000000000
B0500583207936S11656992EA0073400742000000000000
B0501023207884S11656934EA0072100728000000000000
B0501063207843S11656858EA0070800718000000000000
B0501103207818S11656774EA0070400712000000000000
B0501143207811S11656684EA0069300701000000000000
B0501183207832S11656598EA0068400693000000000000
B0501223207876S11656529EA0067300677000000000000
B0501263207939S11656483EA0066100664000000000000
B0501303208006S11656455EA0065300661000000000000
B0501343208071S11656440EA0065000658000000000000
B0501383208134S11656428EA0064500653000000000000
B0501423208196S11656416EA0063600640000000000000
B0501463208261S11656407EA0062400627000000000000
B0501503208327S11656396EA0061700624000000000000
B0501543208391S11656401EA0062100631000000000000
B0501583208437S11656445EA0062300633000000000000
B0502023208428S11656500EA0063000645000000000000
B0502063208377S11656479EA0064200655000000000000
B0502103208350S11656405EA0063700640000000000000
B0502143208377S11656324EA0063000639000000000000
B0502183208438S11656294EA0063400648000000000000
B0502223208491S11656323EA0063900650000000000000
B0502263208507S11656380EA0064400657000000000000
B0502303208473S11656418EA0065100663000000000000
B0502343208417S11656410EA0065000660000000000000
B0502383208370S11656353EA0064800658000000000000
B0502423208363S11656267EA0064500651000000000000
B0502463208398S11656190EA0064300652000000000000
B0502503208456S11656173EA0065000665000000000000
B0502543208483S11656219EA0065800672000000000000
B0502583208455S11656263EA0066400678000000000000
B0503023208400S11656250EA0067200683000000000000
B0503063208368S11656184EA0067100680000000000000
B0503103208381S11656107EA0067100682000000000000
B0503143208430S11656068EA0067700689000000000000
B0503183208476S11656090EA0068000695000000000000
B0503223208477S11656141EA0068600699000000000000
B0503263208429S11656158EA0068900700000000000000
B0503303208379S11656108EA0068900700000000000000
B0503343208373S11656026EA0069100702000000000000
B0503383208413S11655968EA0069100704000000000000
B0503423208470S11655963EA0069200707000000000000
B0503463208493S11656012EA0069900715000000000000
B0503503208457S11656055EA0070500720000000000000
B0503543208398S11656034EA0070900723000000000000
B0503583208359S11655961EA0070800722000000000000
B0504023208368S11655876EA0071100724000000000000
B0504063208422S11655831EA0071200727000000000000
B0504103208474S11655851EA0071600735000000000000
B0504143208474S11655903EA0072700745000000000000
B0504183208426S11655926EA0073500751000000000000
B0504223208369S11655891EA0073800753000000000000
B0504263208338S11655813EA0073900752000000000000
B0504303208353S11655731EA0074000756000000000000
B0504343208405S11655688EA0074100755000000000000
B0504383208459S11655700EA0074200756000000000000
B0504423208491S11655748EA0074200758000000000000
B0504463208480S11655805EA0074900769000000000000
B0504503208431S11655826EA0076300783000000000000
B0504543208374S11655804EA0076200775000000000000
B0504583208326S11655736EA0075100763000000000000
B0505023208321S11655643EA0075100765000000000000
B0505063208356S11655565EA0075000765000000000000
B0505103208413S11655521EA0075000765000000000000
B0505143208472S11655525EA0075400770000000000000
B0505183208511S11655571EA0075900778000000000000
B0505223208500S11655627EA0077100795000000000000
B0505263208447S11655632EA0078500805000000000000
B0505303208404S11655570EA0078700804000000000000
B0505343208413S11655486EA0078500802000000000000
B0505383208467S11655436EA0078300800000000000000
B0505423208525S11655445EA0079200814000000000000
B0505463208532S11655495EA0081200835000000000000
B0505503208482S11655499EA0082400846000000000000
B0505543208446S11655434EA0082700845000000000000
B0505583208463S11655354EA0082200838000000000000
B0506023208522S11655328EA0082900853000000000000
B0506063208552S11655374EA0084600872000000000000
B0506103208525S11655422EA0085300874000000000000
B0506143208464S11655417EA0086000886000000000000
B0506183208421S11655348EA0086700886000000000000
B0506223208430S11655263EA0086700887000000000000
B0506263208478S11655205EA0087100894000000000000
B0506303208537S11655196EA0088100906000000000000
B0506343208550S11655246EA0089600923000000000000
B0506383208500S11655267EA0090400930000000000000
B0506423208446S11655222EA0091000934000000000000
B0506463208434S11655141EA0091800944000000000000
B0506503208472S11655081EA0092500952000000000000
B0506543208524S11655079EA0093400962000000000000
B0506583208547S11655122EA0094500973000000000000
B0507023208522S11655166EA0095400982000000000000
B0507063208468S11655167EA0095800985000000000000
B0507103208420S11655112EA0096200988000000000000
B0507143208420S11655034EA0097000998000000000000
B0507183208467S11654993EA0097300997000000000000
B0507223208511S11655018EA0097901010000000000000
B0507263208502S11655067EA0099201021000000000000
B0507303208451S11655084EA0099701025000000000000
B0507343208400S11655034EA0099901027000000000000
B0507383208398S11654955EA0100401035000000000000
B0507423208443S11654908EA0100701036000000000000
B0507463208494S11654923EA0101301043000000000000
B0507503208506S11654975EA0102001052000000000000
B0507543208455S11654988EA0103101062000000000000
B0507583208412S11654927EA0103401062000000000000
B0508023208421S11654847EA0103601065000000000000
B0508063208468S11654794EA0104301073000000000000
B0508103208522S11654789EA0105301090000000000000
B0508143208550S11654825EA0106501098000000000000
B0508183208530S11654872EA0106901098000000000000
B0508223208472S11654885EA0107401104000000000000
B0508263208416S11654842EA0107801110000000000000
B0508303208392S11654765EA0108401114000000000000
B0508343208411S11654690EA0108801118000000000000
B0508383208459S11654642EA0109401128000000000000
B0508423208507S11654655EA0110601143000000000000
B0508463208512S11654706EA0111301144000000000000
B0508503208495S11654768EA0111101141000000000000
B0508543208483S11654838EA0110601137000000000000
B0508583208472S11654914EA0110301130000000000000
B0509023208460S11654992EA0109101114000000000000
B0509063208447S11655071EA0107901107000000000000
B0509103208434S11655146EA0107301098000000000000
B0509143208422S11655222EA0106001084000000000000
B0509183208412S11655297EA0105301082000000000000
B0509223208404S11655369EA0105001077000000000000
B0509263208398S11655441EA0104401072000000000000
B0509303208396S11655513EA0103901065000000000000
B0509343208395S11655584EA0103901065000000000000
B0509383208396S11655653EA0103801063000000000000
B0509423208398S11655722EA0103501062000000000000
B0509463208399S11655791EA0103301061000000000000
B0509503208402S11655855EA0103501062000000000000
B0509543208400S11655917EA0103101055000000000000
B0509583208398S11655983EA0102101046000000000000
B0510023208398S11656051EA0101501043000000000000
B0510063208398S11656117EA0101001039000000000000
B0510103208398S11656182EA0100701036000000000000
B0510143208395S11656249EA0100301030000000000000
B0510183208390S11656314EA0099801024000000000000
B0510223208386S11656379EA0099201021000000000000
B0510263208382S11656442EA0098801018000000000000
B0510303208376S11656509EA0098201010000000000000
B0510343208373S11656578EA0097801010000000000000
B0510383208369S11656641EA0098301017000000000000
B0510423208364S11656705EA0098901025000000000000
B0510463208357S11656767EA0099901031000000000000
B0510503208350S11656832EA0099401026000000000000
B0510543208342S11656900EA0099001021000000000000
B0510583208334S11656968EA0098701018000000000000
B0511023208329S11657035EA0098501015000000000000
B0511063208326S11657103EA0098301013000000000000
B0511103208324S11657172EA0098801023000000000000
B0511143208351S11657225EA0100801044000000000000
B0511183208405S11657181EA0101901053000000000000
B0511223208392S11657096EA0102701067000000000000
B0511263208339S11657081EA0104101078000000000000
B0511303208333S11657131EA0105301089000000000000
B0511343208386S11657147EA0106101096000000000000
B0511383208429S11657085EA0106901107000000000000
B0511423208407S11657013EA0108001120000000000000
B0511463208357S11657005EA0108801125000000000000
B0511503208344S11657053EA0109701132000000000000
B0511543208389S11657082EA0110101135000000000000
B0511583208437S11657027EA0110401140000000000000
B0512023208416S11656956EA0111501155000000000000
B0512063208366S11656960EA0112501162000000000000
B0512103208377S11657010EA0113201170000000000000
B0512143208435S11657004EA0113901173000000000000
B0512183208470S11656932EA0114501185000000000000
B0512223208442S11656871EA0116001197000000000000
B0512263208400S11656892EA0115901191000000000000
B0512303208426S11656939EA0116701207000000000000
B0512343208486S11656935EA0117601213000000000000
B0512383208546S11656886EA0117501211000000000000
B0512423208565S11656801EA0118401223000000000000
B0512463208525S11656749EA0119001226000000000000
B0512503208485S11656778EA0119301232000000000000
B0512543208511S11656823EA0120001237000000000000
B0512583208574S11656821EA0120401244000000000000
B0513023208619S11656757EA0121101249000000000000
B0513063208593S11656691EA0121301253000000000000
B0513103208543S11656700EA0121901258000000000000
B0513143208535S11656753EA0122201262000000000000
B0513183208577S11656800EA0122901268000000000000
B0513223208639S11656797EA0123201268000000000000
B0513263208672S11656727EA0123701277000000000000
B0513303208649S11656661EA0124001280000000000000
B0513343208599S11656645EA0123901275000000000000
B0513383208563S11656682EA0123801278000000000000
B0513423208547S11656736EA0124301284000000000000
B0513463208543S11656796EA0124801288000000000000
B0513503208545S11656857EA0124701283000000000000
B0513543208545S11656923EA0123401265000000000000
B0513583208541S11656991EA0122201257000000000000
B0514023208535S11657059EA0121401250000000000000
B0514063208526S11657129EA0120901250000000000000
B0514103208520S11657196EA0120901248000000000000
B0514143208519S11657265EA0119801231000000000000
B0514183208543S11657341EA0118601219000000000000
B0514223208576S11657412EA0118401224000000000000
B0514263208597S11657478EA0119001229000000000000
B0514303208600S11657541EA0119101232000000000000
B0514343208593S11657599EA0119001227000000000000
B0514383208574S11657658EA0118601223000000000000
B0514423208552S11657719EA0118101218000000000000
B0514463208530S11657783EA0117401211000000000000
B0514503208512S11657854EA0117101213000000000000
B0514543208496S11657918EA0117801217000000000000
B0514583208481S11657978EA0118001217000000000000
B0515023208470S11658036EA0117801215000000000000
B0515063208463S11658095EA0117501210000000000000
B0515103208463S11658156EA0116901207000000000000
B0515143208468S11658218EA0116601201000000000000
B0515183208472S11658281EA0116001199000000000000
B0515223208474S11658339EA0115901194000000000000
B0515263208472S11658401EA0115001182000000000000
B0515303208467S11658465EA0114101177000000000000
B0515343208464S11658530EA0113701172000000000000
B0515383208463S11658596EA0112701160000000000000
B0515423208463S11658667EA0111901153000000000000
B0515463208467S11658737EA0111001139000000000000
B0515503208472S11658816EA0109601124000000000000
B0515543208477S11658898EA0109201122000000000000
B0515583208483S11658980EA0108801120000000000000
B0516023208487S11659061EA0108301115000000000000
B0516063208503S11659140EA0107901110000000000000
B0516103208537S11659213EA0107101101000000000000
B0516143208600S11659261EA0106401095000000000000
B0516183208669S11659293EA0106701099000000000000
B0516223208737S11659319EA0106601094000000000000
B0516263208805S11659340EA0106201090000000000000
B0516303208876S11659356EA0105301076000000000000
B0516343208949S11659373EA0104201067000000000000
B0516383209022S11659393EA0103501061000000000000
B0516423209093S11659412EA0103101059000000000000
B0516463209163S11659427EA0102501051000000000000
B0516503209232S11659448EA0102201050000000000000
B0516543209299S11659469EA0102301050000000000000
B0516583209362S11659491EA0101901044000000000000
B0517023209430S11659513EA0101201034000000000000
B0517063209501S11659530EA0100601036000000000000
B0517103209565S11659538EA0101201041000000000000
B0517143209626S11659548EA0100801032000000000000
B0517183209690S11659561EA0099401015000000000000
B0517223209760S11659575EA0098101005000000000000
B0517263209832S11659587EA0097901006000000000000
B0517303209899S11659599EA0098601013000000000000
B0517343209963S11659613EA0098701012000000000000
B0517383210028S11659630EA0098301005000000000000
B0517423210089S11659657EA0097801002000000000000
B0517463210145S11659687EA0097500999000000000000
B0517503210202S11659713EA0096900994000000000000
B0517543210261S11659731EA0097801007000000000000
B0517583210311S11659692EA0098901016000000000000
B0518023210306S11659612EA0099401024000000000000
B0518063210251S11659583EA0100001026000000000000
B0518103210227S11659625EA0100101027000000000000
B0518143210257S11659661EA0100001027000000000000
B0518183210307S11659640EA0100201034000000000000
B0518223210335S11659570EA0101001042000000000000
B0518263210314S11659493EA0101601045000000000000
B0518303210257S11659465EA0101301038000000000000
B0518343210215S11659503EA0101301040000000000000
B0518383210232S11659552EA0101501041000000000000
B0518423210284S11659560EA0102001049000000000000
B0518463210333S11659510EA0102501055000000000000
B0518503210332S11659430EA0103701067000000000000
B0518543210287S11659384EA0103701063000000000000
B0518583210233S11659400EA0103201058000000000000
B0519023210207S11659451EA0103001058000000000000
B0519063210229S11659497EA0103501062000000000000
B0519103210283S11659490EA0103501060000000000000
B0519143210318S11659421EA0103001061000000000000
B0519183210302S11659340EA0103801069000000000000
B0519223210250S11659297EA0103801066000000000000
B0519263210193S11659313EA0103201061000000000000
B0519303210158S11659363EA0102901055000000000000
B0519343210149S11659425EA0102501047000000000000
B0519383210183S11659466EA0101801043000000000000
B0519423210237S11659441EA0101601040000000000000
B0519463210263S11659365EA0100801033000000000000
B0519503210261S11659274EA0100401032000000000000
B0519543210236S11659192EA0100501032000000000000
B0519583210186S11659132EA0100001027000000000000
B0520023210125S11659102EA0099801024000000000000
B0520063210071S11659120EA0099501021000000000000
B0520103210036S11659168EA0099101015000000000000
B0520143210010S11659226EA0098601008000000000000
B0520183209989S11659288EA0098001003000000000000
B0520223209969S11659350EA0097700999000000000000
B0520263209959S11659414EA0096700988000000000000
B0520303209956S11659479EA0096000982000000000000
B0520343209962S11659538EA0095500977000000000000
B0520383209978S11659590EA0095000970000000000000
B0520423210008S11659636EA0093700959000000000000
B0520463210043S11659682EA0092800951000000000000
B0520503210060S11659737EA0091900937000000000000
B0520543210033S11659790EA0090700923000000000000
B0520583209973S11659809EA0089800917000000000000
B0521023209906S11659794EA0089200912000000000000
B0521063209841S11659753EA0089300916000000000000
B0521103209783S11659704EA0090100925000000000000
B0521143209726S11659661EA0091100936000000000000
B0521183209681S11659675EA0092600952000000000000
B0521223209700S11659721EA0093600960000000000000
B0521263209756S11659705EA0093600956000000000000
B0521303209774S11659625EA0093100952000000000000
B0521343209735S11659566EA0093600963000000000000
B0521383209700S11659596EA0094500972000000000000
B0521423209729S11659635EA0095600985000000000000
B0521463209783S11659608EA0095700976000000000000
B0521503209804S11659527EA0095200980000000000000
B0521543209773S11659466EA0096500993000000000000
B0521583209728S11659464EA0096700993000000000000
B0522023209718S11659510EA0097100995000000000000
B0522063209768S11659527EA0097501003000000000000
B0522103209816S11659471EA0098101008000000000000
B0522143209807S11659393EA0098701015000000000000
B0522183209760S11659363EA0099101020000000000000
B0522223209728S11659395EA0099701025000000000000
B0522263209748S11659439EA0100201027000000000000
B0522303209806S11659430EA0100501031000000000000
B0522343209838S11659358EA0100701033000000000000
B0522383209809S11659292EA0101201040000000000000
B0522423209760S11659287EA0101701044000000000000
B0522463209746S11659328EA0102301050000000000000
B0522503209782S11659360EA0103001056000000000000
B0522543209839S11659332EA0102701047000000000000
B0522583209860S11659253EA0102701055000000000000
B0523023209826S11659192EA0103401059000000000000
B0523063209778S11659187EA0104101068000000000000
B0523103209756S11659219EA0104501069000000000000
B0523143209776S11659265EA0104301065000000000000
B0523183209828S11659270EA0105101077000000000000
B0523223209864S11659209EA0104801071000000000000
B0523263209839S11659132EA0104001064000000000000
B0523303209783S11659101EA0104401071000000000000
B0523343209731S11659115EA0104901076000000000000
B0523383209700S11659157EA0105401078000000000000
B0523423209711S11659211EA0106001091000000000000
B0523463209764S11659213EA0106901093000000000000
B0523503209798S11659142EA0106101086000000000000
B0523543209765S11659079EA0106401095000000000000
B0523583209718S11659087EA0107301100000000000000
B0524023209708S11659141EA0108101110000000000000
B0524063209746S11659181EA0109001119000000000000
B0524103209804S11659167EA0108601111000000000000
B0524143209841S11659093EA0108101113000000000000
B0524183209822S11659012EA0108001111000000000000
B0524223209768S11658980EA0108401120000000000000
B0524263209737S11659014EA0109901135000000000000
B0524303209759S11659058EA0111001142000000000000
B0524343209813S11659057EA0111401143000000000000
B0524383209859S11659002EA0110501136000000000000
B0524423209867S11658918EA0110101134000000000000
B0524463209833S11658851EA0110301136000000000000
B0524503209781S11658846EA0110601140000000000000
B0524543209765S11658893EA0111501148000000000000
B0524583209799S11658931EA0112101153000000000000
B0525023209855S11658911EA0112201153000000000000
B0525063209886S11658840EA0111601149000000000000
B0525103209869S11658760EA0111501148000000000000
B0525143209820S11658721EA0111901152000000000000
B0525183209780S11658742EA0112601158000000000000
B0525223209789S11658795EA0112801156000000000000
B0525263209841S11658814EA0113601171000000000000
B0525303209891S11658781EA0114301174000000000000
B0525343209924S11658711EA0113501168000000000000
B0525383209917S11658629EA0113201167000000000000
B0525423209872S11658577EA0113201165000000000000
B0525463209817S11658580EA0113201162000000000000
B0525503209795S11658624EA0114001176000000000000
B0525543209826S11658661EA0115101182000000000000
B0525583209882S11658643EA0115301185000000000000
B0526023209908S11658573EA0115501186000000000000
B0526063209886S11658500EA0115201184000000000000
B0526103209834S11658472EA0115401186000000000000
B0526143209793S11658495EA0116001189000000000000
B0526183209774S11658541EA0116001188000000000000
B0526223209799S11658585EA0116001189000000000000
B0526263209854S11658582EA0116101192000000000000
B0526303209904S11658534EA0116401195000000000000
B0526343209930S11658460EA0116701198000000000000
B0526383209911S11658387EA0116601197000000000000
B0526423209860S11658356EA0116301191000000000000
B0526463209821S11658386EA0116401192000000000000
B0526503209829S11658434EA0116701195000000000000
B0526543209877S11658453EA0116701197000000000000
B0526583209932S11658414EA0116701197000000000000
B0527023209949S11658339EA0116901202000000000000
B0527063209923S11658271EA0117101200000000000000
B0527103209876S11658222EA0116601195000000000000
B0527143209824S11658183EA0116401192000000000000
B0527183209769S11658144EA0116301192000000000000
B0527223209713S11658109EA0116401192000000000000
B0527263209656S11658074EA0115901185000000000000
B0527303209592S11658039EA0115401179000000000000
B0527343209526S11658008EA0115401181000000000000
B0527383209464S11657985EA0115401180000000000000
B0527423209401S11657966EA0114901172000000000000
B0527463209339S11657950EA0113801157000000000000
B0527503209273S11657939EA0112901151000000000000
B0527543209209S11657927EA0113101155000000000000
B0527583209148S11657928EA0112901151000000000000
B0528023209085S11657933EA0112101141000000000000
B0528063209019S11657933EA0111301135000000000000
B0528103208955S11657933EA0111101132000000000000
B0528143208893S11657936EA0110701125000000000000
B0528183208829S11657935EA0110101120000000000000
B0528223208766S11657928EA0109301108000000000000
B0528263208701S11657918EA0108401101000000000000
B0528303208636S11657907EA0107401091000000000000
B0528343208572S11657897EA0106801085000000000000
B0528383208508S11657884EA0106101077000000000000
B0528423208443S11657866EA0105501067000000000000
B0528463208377S11657848EA0104701061000000000000
B0528503208311S11657832EA0104001057000000000000
B0528543208246S11657816EA0103901057000000000000
B0528583208181S11657807EA0103501050000000000000
B0529023208117S11657798EA0103101049000000000000
B0529063208054S11657792EA0103201051000000000000
B0529103207997S11657801EA0104101058000000000000
B0529143207982S11657848EA0104601063000000000000
B0529183208023S11657878EA0104001055000000000000
B0529223208079S11657839EA0103401050000000000000
B0529263208087S11657761EA0103201050000000000000
B0529303208056S11657689EA0103201053000000000000
B0529343208006S11657647EA0103701056000000000000
B0529383207966S11657667EA0103901057000000000000
B0529423207980S11657712EA0103801056000000000000
B0529463208034S11657719EA0102901045000000000000
B0529503208077S11657662EA0102601046000000000000
B0529543208075S11657581EA0102901050000000000000
B0529583208051S11657504EA0103401056000000000000
B0530023208021S11657433EA0104101066000000000000
B0530063207976S11657385EA0104801070000000000000
B0530103207928S11657399EA0104501060000000000000
B0530143207928S11657449EA0104201062000000000000
B0530183207976S11657454EA0104201062000000000000
B0530223208017S11657397EA0104201065000000000000
B0530263208022S11657315EA0104901075000000000000
B0530303207969S11657272EA0105101071000000000000
B0530343207930S11657306EA0105201078000000000000
B0530383207958S11657338EA0106501091000000000000
B0530423208002S11657296EA0107101092000000000000
B0530463208001S11657207EA0107301098000000000000
B0530503207953S11657144EA0108401110000000000000
B0530543207896S11657144EA0108801113000000000000
B0530583207874S11657186EA0109301118000000000000
B0531023207898S11657225EA0109601120000000000000
B0531063207952S11657220EA0110301132000000000000
B0531103207988S11657160EA0111801148000000000000
B0531143207975S11657078EA0112101149000000000000
B0531183207917S11657030EA0112601156000000000000
B0531223207863S11657044EA0113501166000000000000
B0531263207848S11657090EA0114001168000000000000
B0531303207879S11657129EA0114001166000000000000
B0531343207935S11657109EA0114201173000000015000
B0531383207949S11657034EA0115501188000000000000
B0531423207909S11656968EA0115901188000000000000
B0531463207852S11656961EA0116201191000000000000
B0531503207828S11657007EA0116401194000000000000
B0531543207866S11657046EA0116901197000000000000
B0531583207923S11657022EA0117001201000000015000
B0532023207944S11656944EA0118301217000000000000
B0532063207914S11656874EA0118501215000000000000
B0532103207858S11656857EA0118301214000000000000
B0532143207819S11656892EA0118801218000000000000
B0532183207830S11656943EA0119201222000000000000
B0532223207876S11656962EA0119001220000000000000
B0532263207930S11656925EA0118801221000000015000
B0532303207948S11656845EA0119201228000000000000
B0532343207921S11656771EA0119601229000000000000
B0532383207867S11656745EA0119201223000000000000
B0532423207826S11656779EA0119001221000000000000
B0532463207801S11656834EA0119001221000000000000
B0532503207780S11656893EA0118901220000000000000
B0532543207762S11656958EA0118701218000000000000
B0532583207750S11657026EA0118801222000000000000
B0533023207745S11657094EA0119001226000000000000
B0533063207749S11657159EA0119501226000000000000
B0533103207757S11657225EA0119101222000000000000
B0533143207744S11657293EA0118301212000000000000
B0533183207700S11657345EA0117401207000000000000
B0533223207644S11657373EA0117501209000000000000
B0533263207584S11657384EA0117401205000000000000
B0533303207523S11657381EA0117101203000000000000
B0533343207462S11657372EA0116901200000000000000
B0533383207397S11657361EA0116201193000000000000
B0533423207337S11657355EA0116201195000000000000
B0533463207277S11657346EA0115801186000000000000
B0533503207215S11657325EA0114801174000000000000
B0533543207147S11657304EA0113201157000000000000
B0533583207077S11657287EA0112001145000000000000
B0534023207011S11657269EA0111401144000000000000
B0534063206947S11657252EA0111301143000000000000
B0534103206884S11657235EA0110801139000000000000
B0534143206822S11657215EA0110401133000000000000
B0534183206760S11657189EA0110101129000000000000
B0534223206699S11657163EA0110001127000000000000
B0534263206639S11657139EA0109201118000000000000
B0534303206575S11657120EA0108001105000000000000
B0534343206510S11657103EA0106801094000000000000
B0534383206448S11657083EA0106101089000000000000
B0534423206387S11657061EA0105201080000000000000
B0534463206323S11657042EA0104401071000000000000
B0534503206258S11657026EA0104101071000000000000
B0534543206199S11657014EA0104301073000000000000
B0534583206145S11657005EA0104401070000000000000
B0535023206089S11657000EA0103401058000000000000
B0535063206032S11656996EA0102401050000000000000
B0535103205972S11656999EA0101701040000000000000
B0535143205912S11657005EA0101201037000000000000
B0535183205861S11657025EA0101701041000000000000
B0535223205837S11657070EA0101601037000000000000
B0535263205831S11657124EA0100901032000000000000
B0535303205843S11657177EA0100401028000000000000
B0535343205887S11657211EA0100101026000000000000
B0535383205950S11657202EA0099701019000000000000
B0535423206008S11657151EA0098801008000000000000
B0535463206047S11657068EA0098301007000000000000
B0535503206067S11656975EA0098301009000000000000
B0535543206071S11656880EA0097801002000000000000
B0535583206063S11656783EA0097501002000000000000
B0536023206046S11656692EA0098101004000000000000
B0536063206024S11656602EA0097900999000000000000
B0536103205997S11656513EA0097400992000000000000
B0536143205960S11656427EA0097100993000000000000
B0536183205906S11656376EA0098201006000000000000
B0536223205869S11656401EA0098701006000000000000
B0536263205899S11656438EA0097700997000000000000
B0536303205955S11656398EA0098001001000000000000
B0536343205965S11656312EA0098001001000000000000
B0536383205920S11656259EA0098501007000000000000
B0536423205878S11656281EA0098601008000000000000
B0536463205891S11656324EA0099201013000000000000
B0536503205942S11656325EA0099201007000000000000
B0536543205990S11656269EA0098501006000000000000
B0536583206011S11656186EA0098801006000000000000
B0537023206017S11656098EA0098901011000000000000
B0537063206019S11656011EA0099301016000000000000
B0537103205981S11655948EA0099301011000000000000
B0537143205929S11655957EA0098801007000000000000
B0537183205921S11656007EA0099501014000000000000
B0537223205965S11656030EA0099501012000000000000
B0537263206021S11656002EA0099901018000000000000
B0537303206056S11655926EA0099501011000000000000
B0537343206049S11655838EA0099301016000000000000
B0537383206003S11655775EA0099601015000000000000
B0537423205943S11655744EA0099601016000000000000
B0537463205886S11655753EA0099601016000000000000
B0537503205860S11655795EA0100101022000000000000
B0537543205882S11655838EA0100301021000000000000
B0537583205939S11655822EA0100101023000000000000
B0538023205974S11655748EA0100801029000000000000
B0538063205960S11655662EA0100901031000000000000
B0538103205907S11655614EA0101101031000000000000
B0538143205854S11655623EA0101301036000000000000
B0538183205838S11655666EA0101801036000000000000
B0538223205869S11655704EA0101701039000000000000
B0538263205922S11655692EA0101801041000000000000
B0538303205968S11655630EA0102101047000000000000
B0538343205984S11655545EA0102501049000000000000
B0538383205974S11655462EA0102701050000000000000
B0538423205928S11655413EA0102201043000000000000
B0538463205881S11655427EA0101601035000000000000
B0538503205867S11655482EA0101201034000000000000
B0538543205867S11655536EA0101401040000000000000
B0538583205874S11655588EA0101801040000000000000
B0539023205882S11655640EA0101501035000000000000
B0539063205900S11655694EA0100801031000000000000
B0539103205925S11655744EA0100701032000000000000
B0539143205945S11655792EA0100701032000000000000
B0539183205967S11655839EA0101201040000000000000
B0539223206011S11655856EA0101501038000000000000
B0539263206067S11655813EA0100101024000000000000
B0539303206089S11655720EA0099601021000000000000
B0539343206063S11655634EA0099801022000000000000
B0539383206008S11655584EA0099501019000000000000
B0539423205955S11655588EA0099901024000000000000
B0539463205930S11655627EA0100101023000000000000
B0539503205934S11655677EA0099701021000000000000
B0539543205951S11655729EA0099801021000000000000
B0539583205972S11655783EA0099401015000000000000
B0540023205991S11655839EA0099001014000000000000
B0540063206013S11655895EA0098801009000000000000
B0540103206039S11655943EA0099401022000000000000
B0540143206064S11655991EA0098901010000000000000
B0540183206089S11656045EA0098201004000000000000
B0540223206110S11656102EA0097601001000000000000
B0540263206128S11656160EA0097601003000000000000
B0540303206141S11656215EA0097901003000000000000
B0540343206156S11656271EA0097600999000000000000
B0540383206172S11656329EA0097300998000000000000
B0540423206190S11656385EA0097901008000000000000
B0540463206207S11656441EA0098401007000000000000
B0540503206224S11656501EA0098601016000000000000
B0540543206253S11656544EA0099801024000000000000
B0540583206310S11656537EA0099301013000000000000
B0541023206348S11656467EA0099301019000000000000
B0541063206331S11656386EA0099301014000000000000
B0541103206283S11656325EA0098901009000000000000
B0541143206221S11656310EA0099001010000000000000
B0541183206184S11656354EA0098301005000000000000
B0541223206181S11656416EA0098701012000000000000
B0541263206192S11656472EA0099501021000000000000
B0541303206220S11656519EA0099701019000000000000
B0541343206272S11656524EA0099601020000000000000
B0541383206312S11656467EA0099701019000000000000
B0541423206289S11656401EA0100001020000000000000
B0541463206236S11656392EA0099701017000000000000
B0541503206212S11656431EA0099701017000000000000
B0541543206221S11656481EA0098501000000000000000
B0541583206228S11656540EA0097500996000000000000
B0542023206220S11656598EA0097700997000000000000
B0542063206218S11656657EA0097600998000000000000
B0542103206225S11656717EA0097100991000000000000
B0542143206237S11656779EA0096500987000000000000
B0542183206262S11656834EA0096300985000000000000
B0542223206290S11656886EA0095700975000000000000
B0542263206319S11656936EA0095100974000000000000
B0542303206353S11656987EA0094200961000000000000
B0542343206388S11657043EA0092900944000000000000
B0542383206433S11657096EA0091500935000000000000
B0542423206481S11657148EA0091600941000000000000
B0542463206527S11657198EA0092100945000000000000
B0542503206567S11657250EA0093200959000000000000
B0542543206602S11657298EA0094100971000000000000
B0542583206640S11657346EA0095100978000000000000
B0543023206691S11657369EA0095300975000000000000
B0543063206749S11657333EA0094700968000000000000
B0543103206762S11657244EA0093900963000000000000
B0543143206738S11657156EA0093600958000000000000
B0543183206708S11657068EA0093400954000000000000
B0543223206665S11656992EA0093700961000000000000
B0543263206609S11656960EA0095200976000000000000
B0543303206556S11656965EA0095300973000000000000
B0543343206519S11657007EA0095100971000000000000
B0543383206526S11657062EA0095100976000000000000
B0543423206582S11657047EA0095800976000000000000
B0543463206575S11656956EA0096200986000000000000
B0543503206514S11656932EA0097501001000000000000
B0543543206481S11656971EA0098701011000000000000
B0543583206518S11657000EA0099101013000000000000
B0544023206562S11656943EA0099201015000000000000
B0544063206537S11656865EA0098701004000000000000
B0544103206476S11656867EA0098501011000000000000
B0544143206483S11656916EA0099701017000000000000
B0544183206539S11656887EA0099501019000000000000
B0544223206541S11656800EA0100301031000000000000
B0544263206485S11656763EA0101201035000000000000
B0544303206450S11656799EA0101701042000000000000
B0544343206480S11656836EA0102301046000000000000
B0544383206533S11656799EA0102701051000000000000
B0544423206536S11656715EA0103201058000000000000
B0544463206484S11656682EA0104401070000000000000
B0544503206454S11656715EA0103901058000000000000
B0544543206492S11656753EA0103701062000000000000
B0544583206553S11656728EA0105001076000000000000
B0545023206576S11656648EA0105601080000000000000
B0545063206535S11656584EA0105901088000000000000
B0545103206483S11656584EA0107201101000000000000
B0545143206458S11656623EA0107101093000000000000
B0545183206487S11656662EA0107201100000000000000
B0545223206537S11656639EA0108301110000000000000
B0545263206563S11656561EA0108201105000000000000
B0545303206543S11656476EA0108201108000000000000
B0545343206491S11656458EA0109101117000000000000
B0545383206478S11656505EA0109001115000000000000
B0545423206526S11656519EA0109601121000000000000
B0545463206570S11656457EA0110001126000000000000
B0545503206571S11656370EA0110501131000000000000
B0545543206528S11656303EA0110901133000000000000
B0545583206471S11656288EA0110901134000000000000
B0546023206442S11656327EA0110901130000000000000
B0546063206474S11656367EA0110401127000000000000
B0546103206536S11656355EA0110501131000000000000
B0546143206571S11656279EA0111301139000000000000
B0546183206554S11656191EA0111901142000000000000
B0546223206505S11656137EA0112101146000000000000
B0546263206457S11656146EA0112101144000000000000
B0546303206455S11656195EA0111701138000000000000
B0546343206510S11656194EA0112201145000000000000
B0546383206528S11656110EA0113001154000000000000
B0546423206484S11656050EA0113201156000000000000
B0546463206435S11656063EA0113001154000000000000
B0546503206428S11656112EA0112501146000000000000
B0546543206478S11656134EA0113001156000000000000
B0546583206523S11656072EA0114101165000000000000
B0547023206518S11655978EA0114201167000000000000
B0547063206465S11655934EA0114601170000000000000
B0547103206419S11655959EA0114101163000000000000
B0547143206398S11656012EA0114101167000000000000
B0547183206397S11656071EA0114601173000000000000
B0547223206407S11656130EA0115001175000000000000
B0547263206423S11656193EA0115001176000000000000
B0547303206441S11656258EA0114601166000000000000
B0547343206454S11656329EA0112501145000000000000
B0547383206465S11656406EA0112101147000000000000
B0547423206472S11656476EA0112101148000000000000
B0547463206480S11656537EA0112101144000000000000
B0547503206481S11656602EA0111301142000000000000
B0547543206479S11656662EA0111501148000000000000
B0547583206478S11656722EA0111501142000000000000
B0548023206480S11656783EA0110501131000000000000
B0548063206480S11656845EA0109401122000000000000
B0548103206483S11656908EA0108301108000000000000
B0548143206485S11656974EA0107501105000000000000
B0548183206470S11657040EA0108401116000000000000
B0548223206457S11657104EA0109001118000000000000
B0548263206446S11657168EA0109401127000000000000
B0548303206440S11657230EA0109201121000000000000
B0548343206433S11657296EA0108101108000000000000
B0548383206426S11657364EA0107701107000000000000
B0548423206435S11657428EA0109101124000000000000
B0548463206484S11657426EA0110301135000000000000
B0548503206506S11657356EA0110401135000000000000
B0548543206475S11657287EA0110001129000000000000
B0548583206414S11657277EA0109501125000000000000
B0549023206371S11657319EA0110201132000000000000
B0549063206389S11657360EA0111001139000000000000
B0549103206439S11657326EA0110701133000000000000
B0549143206437S11657241EA0110301135000000000000
B0549183206380S11657202EA0111001142000000000000
B0549223206328S11657226EA0111201143000000000000
B0549263206323S11657277EA0111901150000000000000
B0549303206370S11657289EA0111901146000000000000
B0549343206413S11657231EA0111701147000000000000
B0549383206402S11657150EA0111801147000000000000
B0549423206349S11657103EA0112001147000000000000
B0549463206288S11657112EA0111301138000000000000
B0549503206251S11657164EA0111201141000000000000
B0549543206238S11657226EA0111201135000000000000
B0549583206237S11657295EA0109901120000000000000
B0550023206238S11657367EA0108801111000000000000
B0550063206244S11657436EA0108101106000000000000
B0550103206253S11657506EA0107101094000000000000
B0550143206253S11657575EA0106701091000000000000
B0550183206245S11657640EA0106001086000000000000
B0550223206237S11657705EA0105601083000000000000
B0550263206236S11657768EA0105301077000000000000
B0550303206245S11657831EA0104901072000000000000
B0550343206249S11657894EA0104101065000000000000
B0550383206250S11657958EA0103501057000000000000
B0550423206263S11658017EA0103401060000000000000
B0550463206273S11658071EA0103901070000000000000
B0550503206281S11658125EA0104601074000000000000
B0550543206294S11658177EA0105001076000000000000
B0550583206311S11658230EA0104401068000000000000
B0551023206320S11658290EA0103701060000000000000
B0551063206329S11658352EA0102901049000000000000
B0551103206333S11658420EA0101501034000000000000
B0551143206341S11658490EA0100201023000000000000
B0551183206351S11658560EA0099501018000000000000
B0551223206349S11658632EA0099301016000000000000
B0551263206342S11658698EA0099701022000000000000
B0551303206338S11658759EA0099701019000000000000
B0551343206337S11658821EA0099501019000000000000
B0551383206329S11658880EA0099801024000000000000
B0551423206323S11658936EA0100401030000000000000
B0551463206318S11658989EA0100701030000000000000
B0551503206312S11659046EA0100301026000000000000
B0551543206307S11659105EA0100201028000000000000
B0551583206305S11659163EA0100401027000000000000
B0552023206299S11659223EA0099301016000000000000
B0552063206301S11659284EA0099301023000000000000
B0552103206327S11659323EA0101001036000000000000
B0552143206376S11659285EA0100901030000000000000
B0552183206363S11659192EA0100501031000000000000
B0552223206302S11659150EA0100901038000000000000
B0552263206260S11659181EA0101401041000000000000
B0552303206272S11659231EA0101501038000000000000
B0552343206329S11659231EA0100901028000000000000
B0552383206371S11659154EA0100301027000000000000
B0552423206350S11659068EA0101701043000000000000
B0552463206292S11659035EA0101701038000000000000
B0552503206254S11659070EA0101401037000000000000
B0552543206289S11659101EA0101401035000000000000
B0552583206340S11659048EA0100901029000000000000
B0553023206349S11658954EA0101401038000000000000
B0553063206296S11658903EA0101801039000000000000
B0553103206246S11658921EA0101501035000000000000
B0553143206231S11658975EA0101001030000000000000
B0553183206229S11659032EA0101301036000000000000
B0553223206233S11659089EA0101101031000000000000
B0553263206242S11659149EA0100001018000000000000
B0553303206247S11659209EA0099001012000000000000
B0553343206257S11659271EA0098201002000000000000
B0553383206277S11659334EA0098001003000000000000
B0553423206298S11659396EA0098501007000000000000
B0553463206325S11659454EA0098100999000000000000
B0553503206390S11659458EA0098501009000000000000
B0553543206427S11659396EA0099101012000000000000
B0553583206389S11659347EA0098401005000000000000
B0554023206353S11659379EA0098101000000000000000
B0554063206380S11659432EA0097400993000000000000
B0554103206446S11659434EA0096700984000000000000
B0554143206501S11659371EA0095900974000000000000
B0554183206523S11659279EA0095200971000000000000
B0554223206535S11659180EA0095000970000000000000
B0554263206523S11659081EA0095700982000000000000
B0554303206470S11659027EA0096900996000000000000
B0554343206423S11659049EA0098101008000000000000
B0554383206428S11659102EA0099201018000000000000
B0554423206480S11659118EA0099901023000000000000
B0554463206524S11659059EA0100701033000000000000
B0554503206518S11658979EA0100901031000000000000
B0554543206468S11658942EA0101401044000000000000
B0554583206445S11658977EA0102501052000000000000
B0555023206483S11659011EA0103301057000000000000
B0555063206537S11658977EA0103901065000000000000
B0555103206545S11658894EA0103701059000000000000
B0555143206496S11658837EA0104101071000000000000
B0555183206441S11658838EA0105501082000000000000
B0555223206415S11658882EA0106101085000000000000
B0555263206435S11658934EA0106501091000000000000
B0555303206492S11658947EA0107201096000000000000
B0555343206545S11658903EA0108201108000000000000
B0555383206569S11658824EA0108401109000000000000
B0555423206550S11658745EA0108501113000000000000
B0555463206498S11658704EA0109101118000000000000
B0555503206453S11658723EA0109301119000000000000
B0555543206452S11658776EA0109801126000000000000
B0555583206502S11658804EA0110301126000000000000
B0556023206561S11658758EA0110901139000000000000
B0556063206571S11658674EA0112201150000000000000
B0556103206532S11658615EA0112701152000000000000
B0556143206479S11658609EA0112501152000000000000
B0556183206452S11658648EA0113101160000000000000
B0556223206471S11658697EA0113501162000000000000
B0556263206528S11658708EA0113601160000000000000
B0556303206583S11658660EA0113501166000000000000
B0556343206602S11658577EA0114201171000000000000
B0556383206584S11658496EA0114601174000000000000
B0556423206533S11658450EA0114201170000000000000
B0556463206484S11658463EA0114101164000000000000
B0556503206481S11658518EA0113801165000000000000
B0556543206532S11658550EA0114501175000000000000
B0556583206596S11658521EA0115401181000000000000
B0557023206627S11658443EA0115701186000000000000
B0557063206609S11658361EA0115901184000000000000
B0557103206554S11658314EA0115401176000000000000
B0557143206500S11658329EA0114901173000000000000
B0557183206484S11658381EA0115001176000000000000
B0557223206496S11658439EA0115301180000000000000
B0557263206511S11658495EA0115501183000000000000
B0557303206536S11658552EA0115101174000000000000
B0557343206562S11658613EA0114101160000000000000
B0557383206576S11658682EA0112501150000000000000
B0557423206582S11658751EA0112101140000000000000
B0557463206574S11658823EA0110701128000000000000
B0557503206574S11658895EA0110101127000000000000
B0557543206582S11658964EA0109901124000000000000
B0557583206600S11659032EA0109701123000000000000
B0558023206619S11659094EA0109501119000000000000
B0558063206634S11659161EA0109101116000000000000
B0558103206645S11659226EA0108901114000000000000
B0558143206656S11659289EA0108501111000000000000
B0558183206665S11659350EA0108401110000000000000
B0558223206676S11659410EA0108101106000000000000
B0558263206687S11659465EA0108101107000000000000
B0558303206696S11659518EA0107601101000000000000
B0558343206709S11659570EA0107201099000000000000
B0558383206728S11659622EA0106601092000000000000
B0558423206743S11659677EA0106701095000000000000
B0558463206754S11659730EA0106101087000000000000
B0558503206758S11659786EA0105501079000000000000
B0558543206749S11659842EA0104501068000000000000
B0558583206743S11659900EA0103401057000000000000
B0559023206753S11659964EA0103201056000000000000
B0559063206775S11700020EA0103801068000000000000
B0559103206818S11700051EA0104701080000000000000
B0559143206871S11700024EA0106101095000000000000
B0559183206884S11659947EA0106801098000000000000
B0559223206845S11659886EA0107301104000000000000
B0559263206788S11659881EA0107501103000000000000
B0559303206756S11659924EA0107301100000000000000
B0559343206773S11659976EA0107501107000000000000
B0559383206819S11659974EA0108601117000000000000
B0559423206858S11659916EA0108701113000000000000
B0559463206858S11659828EA0108801120000000000000
B0559503206821S11659759EA0110001132000000000000
B0559543206764S11659734EA0111101139000000000000
B0559583206712S11659750EA0111401145000000000000
B0600023206683S11659794EA0112101151000000000000
B0600063206693S11659839EA0112601155000000000000
B0600103206740S11659834EA0112601153000000000000
B0600143206771S11659766EA0112601156000000000000
B0600183206751S11659687EA0113601173000000000000
B0600223206696S11659655EA0114701177000000000000
B0600263206649S11659682EA0114801179000000000000
B0600303206643S11659731EA0115301184000000000000
B0600343206678S11659757EA0115301181000000000000
B0600383206726S11659729EA0115101179000000000000
B0600423206747S11659652EA0114901180000000000000
B0600463206727S11659571EA0116201196000000000000
B0600503206676S11659522EA0117001201000000000000
B0600543206614S11659531EA0116901198000000000000
B0600583206588S11659581EA0116901200000000000000
B0601023206617S11659612EA0117101202000000000000
B0601063206661S11659575EA0116801194000000000000
B0601103206666S11659492EA0116301192000000000000
B0601143206617S11659431EA0117201208000000000000
B0601183206556S11659423EA0117701205000000000000
B0601223206522S11659465EA0116401187000000000000
B0601263206523S11659522EA0115501183000000000000
B0601303206526S11659575EA0115301180000000000000
B0601343206531S11659630EA0114901173000000000000
B0601383206539S11659688EA0114001162000000000000
B0601423206539S11659750EA0113601169000000000000
B0601463206545S11659805EA0114201175000000000000
B0601503206550S11659861EA0114801179000000000000
B0601543206553S11659913EA0115001180000000000000
B0601583206553S11659961EA0115001180000000000000
B0602023206557S11700015EA0114101167000000000000
B0602063206558S11700072EA0113601166000000000000
B0602103206558S11700128EA0113601166000000000000
B0602143206563S11700184EA0113201160000000000000
B0602183206562S11700242EA0113001157000000000000
B0602223206563S11700301EA0113301167000000000000
B0602263206554S11700357EA0114601175000000000000
B0602303206549S11700414EA0114401175000000000000
B0602343206550S11700472EA0114801177000000000000
B0602383206554S11700528EA0114501174000000000000
B0602423206562S11700583EA0114701176000000000000
B0602463206571S11700637EA0114501171000000000000
B0602503206583S11700693EA0114001168000000000000
B0602543206601S11700749EA0113801165000000000000
B0602583206621S11700804EA0114601177000000000000
B0603023206647S11700848EA0115501185000000000000
B0603063206705S11700851EA0115301178000000000000
B0603103206754S11700790EA0115201180000000000000
B0603143206753S11700704EA0115501185000000000000
B0603183206714S11700636EA0115801186000000000000
B0603223206660S11700622EA0115901187000000000000
B0603263206634S11700666EA0115901186000000000000
B0603303206665S11700710EA0116001186000000000000
B0603343206728S11700691EA0115201177000000000000
B0603383206765S11700615EA0115401183000000000000
B0603423206756S11700531EA0115501182000000000000
B0603463206714S11700467EA0115301179000000000000
B0603503206654S11700446EA0115201179000000000000
B0603543206605S11700467EA0115101178000000000000
B0603583206574S11700514EA0115101179000000000000
B0604023206565S11700567EA0115901189000000000000
B0604063206585S11700614EA0116701194000000000000
B0604103206640S11700632EA0116101186000000000000
B0604143206705S11700602EA0116701198000000000000
B0604183206741S11700535EA0118001206000000000000
B0604223206736S11700459EA0117301196000000000000
B0604263206688S11700409EA0116701191000000000000
B0604303206630S11700405EA0116401190000000000000
B0604343206583S11700427EA0116701199000000000000
B0604383206561S11700468EA0117901207000000000000
B0604423206593S11700507EA0118301210000000000000
B0604463206654S11700496EA0118501210000000000000
B0604503206696S11700431EA0118501211000000000000
B0604543206683S11700354EA0118801213000000000000
B0604583206627S11700331EA0118801213000000000000
B0605023206609S11700372EA0119901229000000000000
B0605063206648S11700401EA0120701233000000000000
B0605103206705S11700371EA0120001222000000000000
B0605143206727S11700292EA0120201231000000000000
B0605183206696S11700232EA0120701232000000000000
B0605223206644S11700231EA0120501234000000000000
B0605263206624S11700273EA0121401247000000000000
B0605303206643S11700316EA0122601256000000000000
B0605343206691S11700337EA0122401249000000000000
B0605383206749S11700303EA0122201251000000000000
B0605423206775S11700232EA0122501255000000000000
B0605463206752S11700163EA0122801258000000000000
B0605503206701S11700137EA0122701255000000000000
B0605543206654S11700154EA0123201264000000000000
B0605583206632S11700193EA0124201273000000000000
B0606023206652S11700237EA0124001269000000000000
B0606063206710S11700240EA0123701265000000000000
B0606103206757S11700179EA0123601267000000000000
B0606143206766S11700091EA0123601265000000000000
B0606183206754S11700004EA0123701266000000000000
B0606223206721S11659934EA0123801267000000000000
B0606263206663S11659911EA0123501263000000000000
B0606303206621S11659947EA0123701268000000000000
B0606343206621S11700006EA0124701280000000000000
B0606383206649S11700051EA0125901293000000000000
B0606423206699S11700063EA0126901300000000000000
B0606463206747S11700024EA0126501288000000000000
B0606503206764S11659941EA0125301282000000000000
B0606543206741S11659865EA0125801290000000000000
B0606583206699S11659811EA0125501284000000000000
B0607023206640S11659792EA0125601288000000000000
B0607063206595S11659813EA0126501301000000000000
B0607103206576S11659856EA0127001297000000000000
B0607143206584S11659916EA0125801287000000000000
B0607183206597S11659971EA0126201294000000000000
B0607223206609S11700025EA0125801284000000000000
B0607263206624S11700086EA0125101283000000000000
B0607303206631S11700141EA0125901291000000000000
B0607343206636S11700192EA0126401296000000000000
B0607383206640S11700244EA0126301293000000000000
B0607423206652S11700298EA0125801288000000000000
B0607463206683S11700346EA0125001279000000000000
B0607503206738S11700374EA0124001269000000000000
B0607543206806S11700374EA0123401263000000000000
B0607583206877S11700361EA0123101262000000000000
B0608023206940S11700351EA0122901260000000000000
B0608063207004S11700338EA0122001247000000000000
B0608103207072S11700318EA0120401233000000000000
B0608143207142S11700297EA0119601219000000000000
B0608183207216S11700277EA0118501208000000000000
B0608223207290S11700254EA0117001196000000000000
B0608263207364S11700221EA0116001194000000000000
B0608303207433S11700184EA0116001195000000000000
B0608343207498S11700143EA0115701190000000000000
B0608383207562S11700090EA0114701175000000000000
B0608423207625S11700021EA0113501164000000000000
B0608463207685S11659948EA0113101164000000000000
B0608503207739S11659878EA0113301169000000000000
B0608543207785S11659811EA0113501165000000000000
B0608583207828S11659733EA0112301150000000000000
B0609023207865S11659644EA0111001138000000000000
B0609063207888S11659552EA0110701138000000000000
B0609103207896S11659462EA0110501134000000000000
B0609143207891S11659371EA0109401121000000000000
B0609183207887S11659276EA0108601113000000000000
B0609223207888S11659185EA0108401112000000000000
B0609263207893S11659097EA0107901104000000000000
B0609303207897S11659006EA0106501086000000000000
B0609343207900S11658911EA0105101073000000000000
B0609383207901S11658816EA0104301064000000000000
B0609423207897S11658723EA0103501055000000000000
B0609463207889S11658628EA0102401043000000000000
B0609503207878S11658531EA0101901042000000000000
B0609543207865S11658439EA0101901038000000000000
B0609583207857S11658346EA0101401036000000000000
B0610023207843S11658253EA0101201029000000000000
B0610063207814S11658162EA0100401024000000000000
B0610103207778S11658076EA0100701029000000000000
B0610143207742S11657993EA0101201033000000000000
B0610183207703S11657913EA0101201033000000000000
B0610223207654S11657836EA0101401036000000000000
B0610263207586S11657802EA0101301032000000000000
B0610303207529S11657827EA0100901027000000000000
B0610343207512S11657885EA0100601020000000000000
B0610383207538S11657939EA0099401013000000000000
B0610423207585S11657976EA0098801004000000000000
B0610463207633S11658008EA0097900995000000000000
B0610503207687S11658035EA0097200988000000000000
B0610543207739S11658066EA0096600984000000000000
B0610583207791S11658097EA0096500983000000000000
B0611023207843S11658125EA0096400984000000000000
B0611063207896S11658145EA0096500985000000000000
B0611103207950S11658161EA0096500983000000000000
B0611143208004S11658182EA0096400986000000000000
B0611183208043S11658219EA0096600985000000000000
B0611223208067S11658265EA0096800990000000000000
B0611263208097S11658307EA0097200990000000000000
B0611303208144S11658333EA0097000991000000000000
B0611343208200S11658321EA0097701000000000000000
B0611383208247S11658266EA0098401006000000000000
B0611423208262S11658180EA0098501004000000000000
B0611463208239S11658100EA0098401004000000000000
B0611503208192S11658052EA0098401001000000000000
B0611543208139S11658048EA0097800996000000000000
B0611583208106S11658083EA0097500996000000000000
B0612023208104S11658132EA0097500994000000000000
B0612063208109S11658183EA0097700995000000000000
B0612103208144S11658222EA0097200987000000000000
B0612143208208S11658212EA0096700986000000000000
B0612183208259S11658147EA0097200992000000000000
B0612223208274S11658056EA0097500995000000000000
B0612263208249S11657967EA0097500996000000000000
B0612303208194S11657914EA0097600997000000000000
B0612343208132S11657905EA0098001003000000000000
B0612383208092S11657935EA0098801012000000000000
B0612423208091S11657980EA0099501016000000000000
B0612463208131S11658002EA0099701015000000000000
B0612503208188S11657966EA0099101008000000000000
B0612543208210S11657879EA0099101016000000000000
B0612583208190S11657797EA0100601029000000000000
B0613023208142S11657748EA0101601035000000000000
B0613063208088S11657738EA0101601038000000000000
B0613103208049S11657771EA0101801039000000000000
B0613143208049S11657820EA0102201043000000000000
B0613183208083S11657852EA0102501046000000000000
B0613223208134S11657842EA0102801049000000000000
B0613263208182S11657796EA0102601045000000000000
B0613303208208S11657719EA0103501060000000000000
B0613343208197S11657641EA0104801071000000000000
B0613383208149S11657597EA0105101072000000000000
B0613423208100S11657607EA0105301076000000000000
B0613463208082S11657653EA0105801079000000000000
B0613503208104S11657694EA0106101085000000000000
B0613543208153S11657699EA0106601087000000000000
B0613583208205S11657657EA0106301086000000000000
B0614023208225S11657575EA0106701090000000000000
B0614063208195S11657499EA0107501098000000000000
B0614103208136S11657473EA0107801100000000000000
B0614143208093S11657508EA0107601100000000000000
B0614183208079S11657564EA0107801101000000000000
B0614223208074S11657623EA0107901100000000000000
B0614263208070S11657685EA0106701086000000000000
B0614303208074S11657750EA0105701077000000000000
B0614343208082S11657814EA0104901068000000000000
B0614383208103S11657876EA0104001062000000000000
B0614423208121S11657940EA0103401055000000000000
B0614463208126S11658008EA0102601045000000000000
B0614503208131S11658076EA0101601035000000000000
B0614543208143S11658149EA0100501027000000000000
B0614583208161S11658221EA0100401028000000000000
B0615023208175S11658283EA0101301041000000000000
B0615063208188S11658339EA0101701039000000000000
B0615103208201S11658395EA0101201032000000000000
B0615143208217S11658453EA0100701028000000000000
B0615183208235S11658508EA0100501028000000000000
B0615223208253S11658561EA0100101023000000000000
B0615263208277S11658616EA0099601012000000000000
B0615303208300S11658676EA0098301006000000000000
B0615343208320S11658738EA0097801004000000000000
B0615383208329S11658801EA0097901005000000000000
B0615423208325S11658863EA0098101007000000000000
B0615463208320S11658921EA0098101005000000000000
B0615503208314S11658984EA0097800999000000000000
B0615543208313S11659046EA0097000991000000000000
B0615583208312S11659107EA0096600990000000000000
B0616023208312S11659166EA0096300983000000000000
B0616063208312S11659222EA0096800983000000000000
B0616103208311S11659279EA0096500981000000000000
B0616143208307S11659337EA0095700974000000000000
B0616183208308S11659399EA0095100971000000000000
B0616223208309S11659458EA0094800966000000000000
B0616263208316S11659516EA0093700953000000000000
B0616303208327S11659570EA0092800945000000000000
B0616343208343S11659623EA0091800936000000000000
B0616383208360S11659675EA0091600933000000000000
B0616423208381S11659722EA0090900925000000000000
B0616463208409S11659764EA0090300921000000000000
B0616503208451S11659794EA0089700910000000000000
B0616543208507S11659809EA0088400896000000000000
B0616583208574S11659803EA0086700875000000000000
B0617023208649S11659779EA0084800860000000000000
B0617063208724S11659760EA0084100853000000000000
B0617103208797S11659742EA0083300844000000000000
B0617143208870S11659717EA0082300836000000000000
B0617183208940S11659681EA0081700830000000000000
B0617223209005S11659626EA0081300825000000000000
B0617263209072S11659571EA0080700820000000000000
B0617303209143S11659538EA0080500821000000000000
B0617343209211S11659512EA0080800824000000000000
B0617383209276S11659487EA0081400830000000000000
B0617423209340S11659462EA0081500832000000000000
B0617463209403S11659452EA0081600831000000000000
B0617503209462S11659449EA0082200840000000000000
B0617543209521S11659432EA0083000848000000000000
B0617583209565S11659379EA0084200861000000000000
B0618023209566S11659301EA0085400870000000000000
B0618063209525S11659248EA0085400865000000000000
B0618103209478S11659258EA0085600871000000000000
B0618143209475S11659301EA0085900871000000000000
B0618183209526S11659305EA0086100874000000000000
B0618223209561S11659236EA0086900884000000000000
B0618263209542S11659161EA0088000896000000000000
B0618303209494S11659141EA0088900902000000000000
B0618343209484S11659180EA0088900901000000000000
B0618383209526S11659209EA0089300907000000000000
B0618423209579S11659178EA0090000914000000000000
B0618463209611S11659102EA0090300918000000000000
B0618503209620S11659018EA0090500920000000000000
B0618543209592S11658941EA0090900923000000000000
B0618583209542S11658910EA0091600934000000000000
B0619023209531S11658945EA0092200933000000000000
B0619063209577S11658963EA0092700943000000000000
B0619103209624S11658916EA0093300946000000000000
B0619143209618S11658836EA0093400949000000000000
B0619183209574S11658795EA0093900954000000000000
B0619223209542S11658815EA0093900952000000000000
B0619263209544S11658862EA0093900953000000000000
B0619303209566S11658910EA0094500960000000000000
B0619343209620S11658932EA0094600961000000000000
B0619383209677S11658890EA0094900962000000000000
B0619423209702S11658804EA0094300956000000000000
B0619463209704S11658712EA0093700947000000000000
B0619503209692S11658619EA0092800938000000000000
B0619543209672S11658525EA0092300931000000000000
B0619583209644S11658431EA0091600925000000000000
B0620023209611S11658343EA0091600930000000000000
B0620063209573S11658264EA0092100932000000000000
B0620103209530S11658186EA0092100934000000000000
B0620143209479S11658118EA0092500941000000000000
B0620183209421S11658089EA0093400953000000000000
B0620223209382S11658113EA0094500959000000000000
B0620263209384S11658157EA0095100966000000000000
B0620303209431S11658173EA0095300966000000000000
B0620343209478S11658118EA0095200966000000000000
B0620383209455S11658045EA0095900971000000000000
B0620423209405S11658050EA0095800970000000000000
B0620463209419S11658093EA0096700982000000000000
B0620503209475S11658083EA0097300986000000000000
B0620543209509S11658013EA0098000995000000000000
B0620583209495S11657935EA0099101006000000000000
B0621023209447S11657900EA0099301006000000000000
B0621063209414S11657931EA0099301004000000000000
B0621103209444S11657967EA0099801013000000000000
B0621143209499S11657930EA0100401022000000000000
B0621183209499S11657849EA0101801035000000000000
B0621223209455S11657800EA0102201038000000000000
B0621263209409S11657811EA0102301036000000000000
B0621303209397S11657861EA0102501041000000000000
B0621343209431S11657900EA0103101047000000000000
B0621383209491S11657897EA0103301048000000000000
B0621423209546S11657850EA0104101061000000000000
B0621463209578S11657779EA0105401070000000000000
B0621503209565S11657702EA0105401069000000000000
B0621543209513S11657666EA0104901065000000000000
B0621583209469S11657692EA0104901068000000000000
B0622023209478S11657738EA0105801077000000000000
B0622063209535S11657736EA0106701088000000000000
B0622103209573S11657675EA0108101103000000000000
B0622143209566S11657595EA0107901095000000000000
B0622183209525S11657536EA0107801097000000000000
B0622223209473S11657516EA0107701096000000000000
B0622263209431S11657541EA0107401092000000000000
B0622303209419S11657592EA0107701097000000000000
B0622343209452S11657625EA0108501108000000000000
B0622383209509S11657606EA0108901110000000000000
B0622423209542S11657533EA0109701122000000000000
B0622463209530S11657455EA0110601126000000000000
B0622503209488S11657398EA0110501125000000000000
B0622543209435S11657373EA0110301123000000000000
B0622583209391S11657393EA0110401124000000000000
B0623023209378S11657439EA0111001132000000000000
B0623063209401S11657481EA0111401134000000000000
B0623103209455S11657489EA0111601137000000000000
B0623143209507S11657445EA0111801139000000000000
B0623183209520S11657365EA0112101141000000000000
B0623223209481S11657307EA0112101142000000000000
B0623263209430S11657299EA0112101140000000000000
B0623303209392S11657333EA0112201144000000000000
B0623343209373S11657381EA0112601146000000000000
B0623383209367S11657439EA0112501147000000000000
B0623423209367S11657503EA0113001154000000000000
B0623463209365S11657563EA0113601162000000000000
B0623503209373S11657620EA0114201167000000000000
B0623543209382S11657677EA0114401170000000000000
B0623583209390S11657735EA0114901175000000000000
B0624023209403S11657792EA0115501187000000000000
B0624063209409S11657849EA0116401191000000000000
B0624103209419S11657906EA0116401190000000000000
B0624143209456S11657952EA0116301186000000000000
B0624183209522S11657936EA0115501176000000000000
B0624223209556S11657853EA0115401179000000000000
B0624263209536S11657767EA0115301179000000000000
B0624303209488S11657712EA0115501181000000000000
B0624343209432S11657699EA0115801183000000000000
B0624383209383S11657719EA0115601179000000000000
B0624423209351S11657759EA0114901169000000000000
B0624463209336S11657818EA0114101163000000000000
B0624503209334S11657878EA0114001162000000000000
B0624543209336S11657941EA0113601160000000000000
B0624583209340S11658004EA0114301174000000000000
B0625023209351S11658061EA0115701185000000000000
B0625063209354S11658114EA0116501197000000000000
B0625103209358S11658166EA0116701194000000000000
B0625143209361S11658223EA0116101189000000000000
B0625183209364S11658279EA0115901190000000000000
B0625223209369S11658336EA0115901187000000000000
B0625263209371S11658395EA0115601186000000000000
B0625303209373S11658456EA0116001189000000000000
B0625343209378S11658516EA0116001189000000000000
B0625383209382S11658572EA0116101190000000000000
B0625423209379S11658628EA0115601183000000000000
B0625463209375S11658686EA0115101173000000000000
B0625503209369S11658746EA0114301167000000000000
B0625543209361S11658802EA0113901164000000000000
B0625583209358S11658854EA0114501173000000000000
B0626023209357S11658902EA0114601170000000000000
B0626063209354S11658951EA0113901162000000000000
B0626103209357S11658996EA0113801164000000000000
B0626143209351S11659040EA0113801162000000000000
B0626183209340S11659087EA0113901166000000000000
B0626223209334S11659135EA0113401156000000000000
B0626263209325S11659189EA0112501149000000000000
B0626303209317S11659245EA0112001144000000000000
B0626343209313S11659301EA0111401136000000000000
B0626383209309S11659360EA0110601129000000000000
B0626423209309S11659415EA0110801136000000000000
B0626463209313S11659474EA0111501141000000000000
B0626503209349S11659513EA0112501150000000000000
B0626543209404S11659500EA0112701148000000000000
B0626583209444S11659440EA0112301146000000000000
B0627023209449S11659361EA0112101143000000000000
B0627063209423S11659285EA0112301145000000000000
B0627103209377S11659230EA0112301141000000000000
B0627143209318S11659200EA0112201143000000000000
B0627183209266S11659201EA0112401145000000000000
B0627223209234S11659236EA0112001134000000000000
B0627263209223S11659293EA0111301133000000000000
B0627303209222S11659353EA0111401135000000000000
B0627343209217S11659418EA0111401135000000000000
B0627383209209S11659480EA0111301133000000000000
B0627423209206S11659547EA0110401123000000000000
B0627463209204S11659610EA0109701118000000000000
B0627503209200S11659669EA0109501118000000000000
B0627543209198S11659725EA0109201113000000000000
B0627583209204S11659786EA0107801095000000000000
B0628023209215S11659855EA0106801087000000000000
B0628063209215S11659917EA0106901094000000000000
B0628103209213S11659965EA0107601099000000000000
B0628143209214S11700011EA0106701086000000000000
B0628183209209S11700063EA0105201070000000000000
B0628223209182S11700112EA0104001057000000000000
B0628263209126S11700138EA0102501043000000000000
B0628303209050S11700119EA0101501034000000000000
B0628343208981S11700068EA0101601040000000000000
B0628383208924S11700011EA0102401046000000000000
B0628423208875S11659945EA0101901037000000000000
B0628463208825S11659873EA0101001029000000000000
B0628503208776S11659802EA0100501022000000000000
B0628543208725S11659733EA0099901016000000000000
B0628583208671S11659669EA0099101005000000000000
B0629023208617S11659605EA0098501001000000000000
B0629063208567S11659544EA0098200994000000000000
B0629103208516S11659482EA0097300985000000000000
B0629143208464S11659421EA0096500977000000000000
B0629183208411S11659361EA0095500962000000000000
B0629223208356S11659298EA0094100949000000000000
B0629263208304S11659240EA0093300943000000000000
B0629303208255S11659185EA0092700932000000000000
B0629343208204S11659129EA0091200917000000000000
B0629383208151S11659070EA0089500898000000000000
B0629423208097S11659015EA0088200885000000000000
B0629463208043S11658957EA0086500868000000000000
B0629503207989S11658890EA0085200856000000000000
B0629543207937S11658823EA0084800854000000000000
B0629583207882S11658767EA0084600852000000000000
B0630023207824S11658726EA0084600857000000000000
B0630063207767S11658700EA0084900852000000000000
B0630103207705S11658694EA0083900844000000000000
B0630143207641S11658691EA0083900846000000000000
B0630183207579S11658687EA0084000849000000000000
B0630223207516S11658677EA0084600854000000000000
B0630263207455S11658669EA0085100860000000000000
B0630303207403S11658689EA0085700868000000000000
B0630343207384S11658741EA0086000863000000000000
B0630383207417S11658789EA0085700867000000000000
B0630423207479S11658780EA0086000869000000000000
B0630463207523S11658713EA0086200872000000000000
B0630503207518S11658629EA0087000878000000000000
B0630543207467S11658578EA0086800876000000000000
B0630583207408S11658585EA0086400874000000000000
B0631023207369S11658621EA0087200881000000000000
B0631063207359S11658672EA0087000874000000000000
B0631103207397S11658710EA0086500871000000000000
B0631143207460S11658693EA0086200868000000000000
B0631183207506S11658617EA0085400859000000000000
B0631223207506S11658525EA0085700868000000000000
B0631263207475S11658448EA0086700878000000000000
B0631303207425S11658405EA0087500883000000000000
B0631343207372S11658401EA0087800887000000000000
B0631383207328S11658426EA0087800886000000000000
B0631423207308S11658469EA0087800883000000000000
B0631463207337S11658512EA0087100877000000000000
B0631503207393S11658513EA0086900875000000000000
B0631543207447S11658463EA0086700872000000000000
B0631583207463S11658375EA0086100864000000000000
B0632023207427S11658295EA0085600861000000000000
B0632063207365S11658260EA0085800865000000000000
B0632103207316S11658275EA0086500871000000000000
B0632143207299S11658322EA0086000862000000000000
B0632183207328S11658364EA0085800866000000000000
B0632223207378S11658356EA0086800875000000000000
B0632263207416S11658288EA0085600856000000000000
B0632303207410S11658196EA0085000858000000000000
B0632343207371S11658125EA0085000857000000000000
B0632383207320S11658079EA0085500864000000000000
B0632423207268S11658075EA0085600859000000000000
B0632463207234S11658110EA0085100856000000000000
B0632503207237S11658160EA0085000853000000000000
B0632543207276S11658188EA0084500852000000000000
B0632583207333S11658167EA0084900854000000000000
B0633023207377S11658104EA0084700852000000000000
B0633063207394S11658017EA0084100845000000000000
B0633103207393S11657924EA0083400840000000000000
B0633143207393S11657833EA0083600845000000000000
B0633183207397S11657742EA0083900846000000000000
B0633223207406S11657653EA0084100847000000000000
B0633263207419S11657568EA0084000851000000000000
B0633303207433S11657486EA0084300849000000000000
B0633343207445S11657402EA0083600841000000000000
B0633383207456S11657313EA0082400827000000000000
B0633423207469S11657220EA0081600822000000000000
B0633463207493S11657139EA0082200827000000000000
B0633503207514S11657055EA0082200830000000000000
B0633543207554S11656979EA0082600834000000000000
B0633583207615S11656962EA0083500842000000000000
B0634023207650S11656997EA0083500838000000000000
B0634063207632S11657047EA0083000831000000000000
B0634103207585S11657064EA0082600826000000000000
B0634143207527S11657039EA0081700816000000000000
B0634183207462S11656992EA0080900812000000000000
B0634223207411S11656926EA0081500825000000000000
B0634263207395S11656843EA0082800834000000000000
B0634303207411S11656760EA0083100837000000000000
B0634343207453S11656697EA0083300838000000000000
B0634383207503S11656700EA0083400838000000000000
B0634423207516S11656741EA0084800855000000000000
B0634463207484S11656765EA0086100865000000000000
B0634503207429S11656750EA0086200866000000000000
B0634543207386S11656685EA0086600872000000000000
B0634583207389S11656604EA0087400880000000000000
B0635023207438S11656565EA0087700879000000000000
B0635063207490S11656587EA0087000873000000000000
B0635103207512S11656633EA0088700896000000000000
B0635143207497S11656678EA0089600900000000000000
B0635183207437S11656680EA0089500903000000000000
B0635223207397S11656614EA0091200924000000000000
B0635263207408S11656532EA0092000925000000000000
B0635303207460S11656488EA0093100939000000000000
B0635343207512S11656496EA0093300938000000000000
B0635383207541S11656541EA0092900931000000000000
B0635423207531S11656597EA0092400927000000000000
B0635463207480S11656635EA0092100930000000000000
B0635503207415S11656637EA0092800938000000000000
B0635543207354S11656601EA0093300943000000000000
B0635583207332S11656519EA0094200954000000000000
B0636023207384S11656479EA0095500964000000000000
B0636063207417S11656513EA0095900970000000000000
B0636103207393S11656553EA0096200971000000000000
B0636143207334S11656533EA0096300974000000000000
B0636183207315S11656449EA0097000983000000000000
B0636223207354S11656377EA0097700991000000000000
B0636263207412S11656371EA0098501000000000000000
B0636303207427S11656412EA0099601009000000000000
B0636343207382S11656433EA0099901007000000000000
B0636383207334S11656376EA0099801011000000000000
B0636423207346S11656290EA0100801023000000000000
B0636463207398S11656258EA0101801031000000000000
B0636503207425S11656294EA0102401035000000000000
B0636543207395S11656333EA0103001041000000000000
B0636583207339S11656306EA0102901038000000000000
B0637023207328S11656219EA0102901044000000000000
B0637063207378S11656176EA0103801051000000000000
B0637103207410S11656214EA0104601058000000000000
B0637143207378S11656253EA0105401065000000000000
B0637183207324S11656215EA0104701054000000000000
B0637223207320S11656120EA0104101056000000000000
B0637263207373S11656089EA0105501068000000000000
B0637303207393S11656133EA0106401076000000000000
B0637343207364S11656177EA0106501079000000000000
B0637383207302S11656186EA0106401075000000000000
B0637423207230S11656188EA0106701085000000000000
B0637463207176S11656132EA0108101102000000000000
B0637503207196S11656052EA0109201109000000000000
B0637543207258S11656035EA0109601112000000000000
B0637583207287S11656080EA0110601126000000000000
B0638023207263S11656129EA0112001139000000000000
B0638063207206S11656128EA0113201149000000000000
B0638103207173S11656058EA0113501149000000000000
B0638143207200S11655976EA0113401153000000000000
B0638183207255S11655964EA0115301174000000000000
B0638223207264S11656008EA0116101171000000000000
B0638263207212S11656034EA0115701176000000000000
B0638303207161S11655985EA0117201194000000000000
B0638343207157S11655903EA0117801197000000000000
B0638383207196S11655835EA0118101200000000000000
B0638423207254S11655838EA0118501204000000000000
B0638463207274S11655890EA0118701206000000000000
B0638503207237S11655933EA0119001213000000000000
B0638543207183S11655887EA0120101225000000000000
B0638583207195S11655807EA0121101230000000000000
B0639023207254S11655791EA0121801238000000000000
B0639063207271S11655838EA0122601244000000000000
B0639103207226S11655868EA0123001251000000000000
B0639143207174S11655825EA0124301267000000000000
B0639183207169S11655744EA0125501276000000000000
B0639223207207S11655681EA0126401286000000000000
B0639263207263S11655662EA0126601286000000000000
B0639303207307S11655691EA0126901291000000000000
B0639343207320S11655742EA0127301293000000000000
B0639383207289S11655790EA0126901289000000000000
B0639423207229S11655779EA0127501301000000000000
B0639463207213S11655701EA0128401306000000000000
B0639503207259S11655652EA0128601307000000000000
B0639543207307S11655673EA0128801310000000000000
B0639583207311S11655726EA0129101314000000000000
B0640023207274S11655768EA0129101313000000000000
B0640063207219S11655749EA0129501319000000000000
B0640103207200S11655673EA0129201313000000000000
B0640143207248S11655614EA0129401323000000000000
B0640183207303S11655618EA0131001334000000000000
B0640223207321S11655668EA0131201330000000000000
B0640263207290S11655713EA0130901329000000000000
B0640303207235S11655703EA0130901333000000000000
B0640343207208S11655632EA0130901331000000000000
B0640383207237S11655561EA0130801330000000000000
B0640423207299S11655548EA0131101335000000000000
B0640463207328S11655593EA0131701338000000000000
B0640503207298S11655642EA0131301330000000000000
B0640543207239S11655632EA0131101334000000000000
B0640583207198S11655570EA0130901331000000000000
B0641023207216S11655489EA0130901329000000000000
B0641063207278S11655467EA0130901333000000000000
B0641103207321S11655502EA0131901343000000000000
B0641143207341S11655558EA0131001329000000000000
B0641183207356S11655626EA0129701315000000000000
B0641223207372S11655696EA0128601311000000000000
B0641263207386S11655766EA0129101319000000000000
B0641303207398S11655830EA0129601323000000000000
B0641343207415S11655892EA0129601325000000000000
B0641383207432S11655951EA0130301333000000000000
B0641423207450S11656007EA0130801338000000000000
B0641463207472S11656054EA0131201342000000000000
B0641503207495S11656104EA0131201342000000000000
B0641543207514S11656158EA0131701351000000000000
B0641583207529S11656208EA0132301352000000000000
B0642023207546S11656264EA0131101337000000000000
B0642063207567S11656325EA0130601337000000000000
B0642103207586S11656383EA0131001342000000000000
B0642143207601S11656433EA0131301344000000000000
B0642183207616S11656481EA0131401343000000000000
B0642223207628S11656532EA0130901336000000000000
B0642263207632S11656587EA0130801339000000000000
B0642303207635S11656640EA0130601338000000000000
B0642343207640S11656695EA0130301330000000000000
B0642383207642S11656750EA0129301322000000000000
B0642423207644S11656808EA0128601315000000000000
B0642463207644S11656864EA0127901307000000000000
B0642503207642S11656919EA0126901296000000000000
B0642543207640S11656974EA0126001286000000000000
B0642583207640S11657027EA0125101278000000000000
B0643023207641S11657082EA0124201265000000000000
B0643063207640S11657140EA0122901252000000000000
B0643103207640S11657200EA0122001243000000000000
B0643143207645S11657264EA0120501230000000000000
B0643183207650S11657326EA0119801223000000000000
B0643223207659S11657387EA0118501209000000000000
B0643263207668S11657451EA0117601199000000000000
B0643303207677S11657515EA0116801191000000000000
B0643343207687S11657577EA0116001180000000000000
B0643383207698S11657638EA0114801168000000000000
B0643423207710S11657697EA0113801160000000000000
B0643463207720S11657755EA0112901150000000000000
B0643503207732S11657814EA0112101145000000000000
B0643543207744S11657872EA0111801139000000000000
B0643583207753S11657931EA0111101134000000000000
B0644023207762S11657989EA0111001133000000000000
B0644063207772S11658044EA0110701127000000000000
B0644103207780S11658102EA0109901118000000000000
B0644143207784S11658161EA0109101111000000000000
B0644183207792S11658218EA0108401106000000000000
B0644223207807S11658274EA0107901097000000000000
B0644263207831S11658329EA0107701098000000000000
B0644303207870S11658369EA0107701098000000000000
B0644343207928S11658368EA0108301108000000000000
B0644383207976S11658316EA0109001113000000000000
B0644423207992S11658230EA0109001112000000000000
B0644463207961S11658151EA0109201113000000000000
B0644503207904S11658119EA0108801109000000000000
B0644543207862S11658144EA0108701106000000000000
B0644583207865S11658191EA0109001111000000000000
B0645023207908S11658209EA0109501118000000000000
B0645063207961S11658187EA0109801121000000000000
B0645103208006S11658134EA0110301126000000000000
B0645143208028S11658058EA0110801133000000000000
B0645183208015S11657980EA0111301133000000000000
B0645223207967S11657927EA0110501124000000000000
B0645263207915S11657927EA0109901116000000000000
B0645303207893S11657965EA0109701120000000000000
B0645343207888S11658006EA0110101120000000000000
B0645383207893S11658054EA0109401114000000000000
B0645423207909S11658106EA0109701117000000000000
B0645463207927S11658154EA0109701119000000000000
B0645503207944S11658203EA0109701118000000000000
B0645543207958S11658256EA0109301110000000000000
B0645583207971S11658316EA0108901107000000000000
B0646023207986S11658378EA0109001115000000000000
B0646063208004S11658431EA0109801119000000000000
B0646103208026S11658478EA0109901118000000000000
B0646143208043S11658524EA0109401112000000000000
B0646183208060S11658570EA0108401099000000000000
B0646223208074S11658620EA0107401089000000000000
B0646263208065S11658668EA0106301080000000000000
B0646303208030S11658707EA0105601070000000000000
B0646343207989S11658738EA0105001062000000000000
B0646383207949S11658778EA0103301043000000000000
B0646423207921S11658834EA0102301037000000000000
B0646463207909S11658893EA0102201036000000000000
B0646503207908S11658949EA0102001033000000000000
B0646543207915S11659006EA0101301025000000000000
B0646583207931S11659064EA0101001028000000000000
B0647023207971S11659092EA0102501046000000000000
B0647063208013S11659041EA0103801052000000000000
B0647103208006S11658962EA0103501049000000000000
B0647143207960S11658910EA0103401049000000000000
B0647183207905S11658901EA0103401047000000000000
B0647223207862S11658927EA0103101045000000000000
B0647263207839S11658972EA0103101045000000000000
B0647303207836S11659028EA0102801042000000000000
B0647343207844S11659087EA0103401052000000000000
B0647383207858S11659144EA0104101056000000000000
B0647423207883S11659204EA0104101056000000000000
B0647463207906S11659266EA0104501064000000000000
B0647503207927S11659323EA0105101068000000000000
B0647543207953S11659379EA0104801060000000000000
B0647583207986S11659438EA0104001056000000000000
B0648023208014S11659491EA0104201058000000000000
B0648063208040S11659542EA0103701049000000000000
B0648103208056S11659595EA0102101032000000000000
B0648143208066S11659653EA0100901019000000000000
B0648183208065S11659714EA0100201016000000000000
B0648223208057S11659773EA0100501020000000000000
B0648263208047S11659829EA0100301015000000000000
B0648303208032S11659890EA0099701006000000000000
B0648343208014S11659952EA0099101004000000000000
B0648383207999S11700013EA0099101004000000000000
B0648423207984S11700071EA0099001002000000000000
B0648463207974S11700127EA0098901001000000000000
B0648503207965S11700185EA0098000989000000000000
B0648543207949S11700246EA0097000977000000000000
B0648583207927S11700311EA0095800966000000000000
B0649023207892S11700375EA0095400964000000000000
B0649063207844S11700424EA0096100978000000000000
B0649103207836S11700476EA0098601005000000000000
B0649143207882S11700476EA0100001013000000000000
B0649183207919S11700410EA0099801009000000000000
B0649223207901S11700325EA0099701008000000000000
B0649263207840S11700312EA0099301007000000000000
B0649303207836S11700354EA0100101016000000000000
B0649343207885S11700341EA0100301017000000000000
B0649383207902S11700255EA0100101013000000000000
B0649423207850S11700190EA0100401018000000000000
B0649463207791S11700199EA0100801021000000000000
B0649503207772S11700246EA0101501032000000000000
B0649543207809S11700280EA0101901033000000000000
B0649583207866S11700250EA0102301038000000000000
B0650023207893S11700166EA0102501041000000000000
B0650063207867S11700077EA0103201049000000000000
B0650103207806S11700041EA0104001055000000000000
B0650143207761S11700068EA0104301059000000000000
B0650183207757S11700112EA0105601073000000000000
B0650223207796S11700133EA0106101075000000000000
B0650263207846S11700101EA0106901087000000000000
B0650303207871S11700032EA0107401089000000000000
B0650343207859S11659947EA0107801095000000000000
B0650383207815S11659887EA0108101094000000000000
B0650423207757S11659876EA0107301084000000000000
B0650463207719S11659909EA0107501092000000000000
B0650503207719S11659952EA0108701104000000000000
B0650543207761S11659969EA0109001105000000000000
B0650583207809S11659921EA0109401113000000000000
B0651023207813S11659835EA0110201123000000000000
B0651063207778S11659761EA0110401120000000000000
B0651103207718S11659716EA0110101116000000000000
B0651143207658S11659711EA0110401121000000000000
B0651183207620S11659740EA0111001129000000000000
B0651223207611S11659786EA0111001126000000000000
B0651263207624S11659837EA0110501120000000000000
B0651303207657S11659872EA0110401120000000000000
B0651343207713S11659874EA0109901113000000000000
B0651383207768S11659824EA0110001121000000000000
B0651423207785S11659738EA0110601124000000000000
B0651463207755S11659653EA0110901129000000000000
B0651503207697S11659608EA0111801140000000000000
B0651543207641S11659612EA0112601147000000000000
B0651583207611S11659647EA0113301153000000000000
B0652023207618S11659691EA0112501140000000000000
B0652063207654S11659721EA0112101137000000000000
B0652103207707S11659718EA0111601133000000000000
B0652143207753S11659664EA0111701135000000000000
B0652183207768S11659579EA0111701135000000000000
B0652223207736S11659496EA0111501132000000000000
B0652263207675S11659443EA0111701139000000000000
B0652303207611S11659431EA0112501146000000000000
B0652343207567S11659457EA0113201151000000000000
B0652383207544S11659500EA0112301137000000000000
