ACAM4N6
HFDTE040415
HFFXA050
HFPLTPILOT:JOHN WELSH              
HFGTYGLIDERTYPE:HORNET      
HFGIDGLIDERID:VH-GMY      
HFDTM100GPSDATUM:
HFRFWFIRMWAREVERSION:F2.6
HFRHWHARDWAREVERSION:300 Series Version 2
HFFTYFRTYPE:CAMBRIDGE AERO INSTRUMENTS, 302+
HFGPS:GARMIN,LVS-25,12,18000
HFPRSPRESSALTSENSOR:INTERSEMA, MS5534-AP, 20000
I033638FXA3941ENL4247REX
LCAMSBVER:5FWVER:F26300
C210315033103210315000103
C0000000N00000000WTAKEOFF     
C3207547S11656819EBeverley Air
C3137397S11712959ECunderdin Ai
C3256165S11710679ENarrogin Sil
C3255535S11704919ENarrogin Aer
C3207547S11656819EBeverley Air
C0000000N00000000WLANDING     
B0638083207337S11656858EA0018900202000000000000
B0638103207337S11656858EA0018900202000000000000
B0638123207337S11656858EA0018900202000000000000
B0638143207337S11656858EA0018900202000000000000
B0638163207337S11656858EA0018800202000000000000
B0638183207337S11656858EA0018900202000000000000
B0638203207337S11656858EA0019000202000000000000
B0638223207337S11656858EA0018900202000000000000
B0638243207337S11656858EA0018800202000000000000
B0638263207337S11656858EA0019000202000000000000
B0638283207337S11656858EA0019000202000000000000
B0638303207337S11656858EA0018800202000000000000
B0638323207337S11656858EA0018900202000000000000
B0638343207338S11656860EA0018900202000000000000
B0638363207339S11656861EA0018900202000000000000
B0638393207351S11656869EA0018900202000000000000
B0638433207380S11656892EA0018800201000000000000
B0638473207427S11656921EA0018700201000000000000
B0638513207485S11656957EA0018900202000000000000
B0638553207550S11656999EA0018900206000000000000
B0638593207612S11657044EA0020100222000000000000
B0639033207672S11657099EA0021500241000000000000
B0639073207724S11657157EA0023500263000000000000
B0639113207776S11657211EA0025400281000000000000
B0639153207830S11657263EA0027000296000000000000
B0639193207884S11657315EA0028100306000000000000
B0639233207940S11657368EA0028900315000000000000
B0639273207993S11657424EA0030300327000000000000
B0639313208048S11657484EA0031400340000000000000
B0639353208099S11657546EA0032800353000000000000
B0639393208151S11657610EA0034200369000000000000
B0639433208205S11657672EA0035900386000000000000
B0639473208264S11657732EA0037000399000000000000
B0639513208318S11657796EA0038700419000000000000
B0639553208365S11657875EA0040100437000000000000
B0639593208400S11657962EA0042400461000000000000
B0640033208413S11658056EA0044200484000000000000
B0640073208396S11658151EA0046100503000000000000
B0640113208348S11658229EA0048100526000000000000
B0640153208282S11658281EA0050000544000000000000
B0640193208207S11658307EA0051600560000000000000
B0640233208132S11658300EA0053400580000000000000
B0640273208067S11658261EA0055600601000000000000
B0640313208015S11658199EA0057200615000000000000
B0640353207979S11658119EA0057500617000000000000
B0640393207967S11658032EA0058600630000000000000
B0640433207974S11657946EA0060700654000000000000
B0640473207999S11657863EA0062200666000000000000
B0640513208040S11657787EA0062900675000000000000
B0640553208097S11657728EA0063800689000000000000
B0640593208165S11657694EA0065500710000000000000
B0641033208234S11657684EA0067600726000000000000
B0641073208304S11657696EA0069000740000000000000
B0641113208364S11657737EA0070900761000000000000
B0641153208404S11657805EA0073200784000000000000
B0641193208424S11657884EA0075500808000000000000
B0641233208430S11657966EA0077400824000000000000
B0641273208460S11658021EA0078000829000000000000
B0641313208499S11658006EA0078700834000000000000
B0641353208502S11657949EA0078800833000000000000
B0641393208461S11657897EA0078400827000000000000
B0641433208402S11657883EA0078200826000000000000
B0641473208344S11657914EA0077400818000000000000
B0641513208300S11657967EA0077300817000000000000
B0641553208272S11658030EA0077200818000000000000
B0641593208266S11658097EA0077500819000000000000
B0642033208292S11658151EA0077500822000000000000
B0642073208335S11658140EA0078000823000000000000
B0642113208343S11658082EA0077700819000000000000
B0642153208308S11658024EA0077500814000000000000
B0642193208265S11657965EA0076300802000000000000
B0642233208225S11657891EA0075300795000000000000
B0642273208187S11657818EA0075400802000000000000
B0642313208151S11657748EA0075900803000000000000
B0642353208113S11657677EA0075600796000000000000
B0642393208070S11657611EA0074900791000000000000
B0642433208021S11657554EA0074600786000000000000
B0642473207956S11657534EA0074000782000000000000
B0642513207895S11657558EA0072600763000000000000
B0642553207837S11657605EA0071400747000000000000
B0642593207780S11657658EA0069800730000000000000
B0643033207722S11657715EA0068000714000000000000
B0643073207663S11657768EA0066900704000000000000
B0643113207606S11657819EA0065700692000000000000
B0643153207547S11657868EA0064500677000000000000
B0643193207488S11657919EA0062700660000000000000
B0643233207425S11657970EA0061400646000000000000
B0643273207367S11658027EA0060300636000000000000
B0643313207310S11658080EA0059600628000000000000
B0643353207250S11658131EA0059000621000000000000
B0643393207196S11658191EA0058600616000000000000
B0643433207154S11658258EA0057800607000000000000
B0643473207111S11658325EA0057200602000000000000
B0643513207051S11658370EA0056800598000000000000
B0643553206979S11658392EA0056300592000000000000
B0643593206904S11658409EA0055600586000000000000
B0644033206829S11658426EA0055300583000000000000
B0644073206756S11658447EA0054800576000000000000
B0644113206687S11658482EA0054100573000000000000
B0644153206634S11658542EA0054500579000000000000
B0644193206636S11658611EA0055100584000000000000
B0644233206683S11658624EA0055500584000000000000
B0644273206713S11658574EA0055300584000000000000
B0644313206696S11658511EA0055600587000000000000
B0644353206649S11658466EA0055400583000000000000
B0644393206584S11658464EA0055400586000000000000
B0644433206528S11658500EA0055600587000000000000
B0644473206531S11658563EA0055400584000000000000
B0644513206576S11658557EA0054900585000000000000
B0644553206588S11658499EA0055200586000000000000
B0644593206544S11658448EA0055800593000000000000
B0645033206480S11658456EA0056500599000000000000
B0645073206446S11658515EA0056400598000000000000
B0645113206472S11658565EA0056700602000000000000
B0645153206513S11658552EA0057200606000000000000
B0645193206510S11658492EA0057600613000000000000
B0645233206461S11658451EA0058300620000000000000
B0645273206402S11658464EA0058900626000000000000
B0645313206374S11658524EA0059200629000000000000
B0645353206394S11658577EA0059300630000000000000
B0645393206437S11658574EA0059200630000000000000
B0645433206435S11658516EA0059600634000000000000
B0645473206376S11658482EA0059900639000000000000
B0645513206315S11658507EA0060700649000000000000
B0645553206288S11658568EA0061600655000000000000
B0645593206310S11658621EA0061900656000000000000
B0646033206353S11658620EA0062100662000000000000
B0646073206370S11658570EA0062600666000000000000
B0646113206336S11658517EA0062400664000000000000
B0646153206271S11658507EA0062700670000000000000
B0646193206215S11658544EA0063600679000000000000
B0646233206199S11658608EA0064200682000000000000
B0646273206232S11658655EA0064000680000000000000
B0646313206273S11658638EA0064300685000000000000
B0646353206258S11658578EA0065200695000000000000
B0646393206199S11658554EA0065500698000000000000
B0646433206143S11658590EA0066100703000000000000
B0646473206134S11658661EA0065800697000000000000
B0646513206177S11658706EA0065900701000000000000
B0646553206223S11658690EA0066600710000000000000
B0646593206221S11658630EA0067500716000000000000
B0647033206171S11658587EA0067800722000000000000
B0647073206107S11658603EA0068200725000000000000
B0647113206077S11658667EA0068600725000000000000
B0647153206093S11658738EA0067900718000000000000
B0647193206142S11658776EA0067800722000000000000
B0647233206180S11658742EA0069000734000000000000
B0647273206171S11658677EA0069400736000000000000
B0647313206121S11658626EA0069600740000000000000
B0647353206056S11658629EA0070500750000000000000
B0647393206029S11658687EA0071300756000000000000
B0647433206054S11658746EA0070600745000000000000
B0647473206106S11658755EA0070200750000000000000
B0647513206132S11658703EA0071200757000000000000
B0647553206108S11658638EA0071800764000000000000
B0647593206049S11658609EA0072600774000000000000
B0648033205987S11658639EA0072900777000000000000
B0648073205969S11658708EA0073300779000000000000
B0648113206004S11658760EA0072600772000000000000
B0648153206058S11658763EA0072700774000000000000
B0648193206080S11658707EA0073600784000000000000
B0648233206046S11658646EA0074200791000000000000
B0648273205982S11658624EA0074700799000000000000
B0648313205925S11658661EA0075500806000000000000
B0648353205917S11658730EA0075900805000000000000
B0648393205959S11658772EA0075500804000000000000
B0648433206004S11658760EA0076100811000000000000
B0648473206025S11658707EA0076600813000000000000
B0648513205999S11658647EA0076800820000000000000
B0648553205939S11658624EA0078000832000000000000
B0648593205882S11658661EA0078300833000000000000
B0649033205885S11658732EA0078600839000000000000
B0649073205926S11658743EA0079600848000000000000
B0649113205947S11658700EA0079900849000000000000
B0649153205921S11658646EA0080200856000000000000
B0649193205863S11658626EA0081000863000000000000
B0649233205804S11658663EA0081900870000000000000
B0649273205787S11658733EA0082600881000000000000
B0649313205816S11658780EA0083300886000000000000
B0649353205856S11658769EA0083700888000000000000
B0649393205867S11658716EA0083500891000000000000
B0649433205830S11658668EA0084400903000000000000
B0649473205770S11658671EA0085600912000000000000
B0649513205729S11658726EA0086100915000000000000
B0649553205735S11658791EA0087000928000000000000
B0649593205774S11658812EA0087700931000000000000
B0650033205805S11658781EA0088000936000000000000
B0650073205804S11658724EA0089100948000000000000
B0650113205763S11658685EA0090000957000000000000
B0650153205701S11658686EA0090100955000000000000
B0650193205649S11658733EA0090000956000000000000
B0650233205647S11658804EA0090600967000000000000
B0650273205686S11658834EA0091500974000000000000
B0650313205721S11658808EA0092400985000000000000
B0650353205717S11658754EA0093700996000000000000
B0650393205674S11658716EA0094301002000000000000
B0650433205616S11658720EA0094601002000000000000
B0650473205568S11658771EA0094801008000000000000
B0650513205570S11658840EA0095501014000000000000
B0650553205612S11658860EA0096201024000000000000
B0650593205639S11658824EA0097201031000000000000
B0651033205616S11658772EA0097801038000000000000
B0651073205560S11658763EA0098301043000000000000
B0651113205495S11658785EA0097701031000000000000
B0651153205419S11658815EA0097301029000000000000
B0651193205345S11658843EA0097901033000000000000
B0651233205270S11658872EA0098301041000000000000
B0651273205194S11658902EA0099201047000000000000
B0651313205122S11658933EA0098701037000000000000
B0651353205045S11658964EA0097901030000000000000
B0651393204967S11658993EA0097301019000000000000
B0651433204889S11659018EA0096301010000000000000
B0651473204810S11659040EA0095401001000000000000
B0651513204729S11659061EA0094500993000000000000
B0651553204651S11659080EA0094500996000000000000
B0651593204573S11659102EA0094100987000000000000
B0652033204496S11659123EA0093100977000000000000
B0652073204421S11659137EA0092400969000000000000
B0652113204343S11659144EA0091200957000000000000
B0652153204264S11659149EA0090400944000000000000
B0652193204184S11659150EA0089200929000000000000
B0652233204106S11659155EA0087200909000000000000
B0652273204024S11659150EA0085300892000000000000
B0652313203946S11659144EA0085300895000000000000
B0652353203874S11659141EA0084900890000000000000
B0652393203801S11659136EA0083500874000000000000
B0652433203728S11659126EA0082100859000000000000
B0652473203654S11659120EA0081100848000000000000
B0652513203581S11659107EA0080600849000000000000
B0652553203517S11659075EA0081500857000000000000
B0652593203456S11659040EA0081900861000000000000
B0653033203387S11659035EA0082000859000000000000
B0653073203347S11659093EA0081900860000000000000
B0653113203361S11659152EA0081300851000000000000
B0653153203406S11659157EA0080400842000000000000
B0653193203439S11659109EA0079400832000000000000
B0653233203455S11659036EA0079000832000000000000
B0653273203464S11658962EA0079000830000000000000
B0653313203421S11658908EA0079500837000000000000
B0653353203363S11658933EA0080100840000000000000
B0653393203326S11658998EA0079300825000000000000
B0653433203299S11659077EA0077600810000000000000
B0653473203274S11659165EA0076000800000000000000
B0653513203247S11659250EA0075700797000000000000
B0653553203216S11659336EA0075000789000000000000
B0653593203169S11659414EA0075400800000000000000
B0654033203117S11659480EA0076200805000000000000
B0654073203066S11659548EA0076000802000000000000
B0654113203025S11659618EA0076800810000000000000
B0654153203036S11659688EA0077100811000000000000
B0654193203086S11659677EA0078100824000000000000
B0654233203077S11659612EA0079300832000000000000
B0654273203022S11659577EA0079500837000000000000
B0654313202961S11659600EA0079800838000000000000
B0654353202923S11659665EA0079500835000000000000
B0654393202927S11659740EA0079200832000000000000
B0654433202970S11659778EA0079200834000000000000
B0654473202990S11659726EA0079600840000000000000
B0654513202940S11659673EA0080000844000000000000
B0654553202882S11659708EA0080500848000000000000
B0654593202890S11659778EA0080600846000000000000
B0655033202939S11659791EA0080800852000000000000
B0655073202962S11659743EA0081700862000000000000
B0655113202927S11659681EA0082300869000000000000
B0655153202862S11659679EA0083100879000000000000
B0655193202818S11659735EA0083700878000000000000
B0655233202815S11659811EA0083100875000000000000
B0655273202852S11659860EA0083100876000000000000
B0655313202890S11659838EA0084200889000000000000
B0655353202864S11659783EA0085300898000000000000
B0655393202804S11659777EA0086200909000000000000
B0655433202757S11659824EA0086600910000000000000
B0655473202749S11659896EA0086200906000000000000
B0655513202784S11659948EA0086000904000000000000
B0655553202835S11659960EA0086200909000000000000
B0655593202877S11659933EA0086900912000000000000
B0656033202856S11659877EA0087000915000000000000
B0656073202791S11659864EA0087600928000000000000
B0656113202734S11659911EA0088600932000000000000
B0656153202724S11659987EA0088700933000000000000
B0656193202762S11700042EA0088800932000000000000
B0656233202818S11700041EA0088900936000000000000
B0656273202839S11659990EA0089500935000000000000
B0656313202804S11659933EA0089300935000000000000
B0656353202737S11659908EA0089400941000000000000
B0656393202691S11659963EA0091500963000000000000
B0656433202715S11700024EA0092200965000000000000
B0656473202770S11700032EA0092200965000000000000
B0656513202779S11659981EA0093500988000000000000
B0656553202726S11659959EA0095001001000000000000
B0656593202672S11700006EA0095601009000000000000
B0657033202659S11700084EA0096001011000000000000
B0657073202689S11700149EA0096101012000000000000
B0657113202747S11700168EA0096101010000000000000
B0657153202799S11700134EA0095801006000000000000
B0657193202812S11700065EA0095701001000000000000
B0657233202775S11700004EA0094600989000000000000
B0657273202705S11659990EA0094000988000000000000
B0657313202628S11659994EA0095001007000000015000
B0657353202591S11700060EA0096101021000000000000
B0657393202620S11700121EA0096901019000000000000
B0657433202675S11700120EA0095801008000000000000
B0657473202692S11700064EA0096201015000000000000
B0657513202653S11700023EA0096901020000000000000
B0657553202587S11700036EA0097201027000000000000
B0657593202557S11700106EA0098501040000000000000
B0658033202579S11700173EA0098801036000000000000
B0658073202632S11700205EA0097801027000000000000
B0658113202679S11700180EA0097301020000000000000
B0658153202687S11700117EA0096901018000000000000
B0658193202666S11700054EA0096001006000000000000
B0658233202607S11700017EA0095501005000000000000
B0658273202539S11659998EA0096201021000000000000
B0658313202494S11700056EA0097701036000000000000
B0658353202537S11700101EA0099101052000000000000
B0658393202562S11700060EA0101101069000000000000
B0658433202529S11700013EA0102501084000000000000
B0658473202468S11700020EA0104101100000000000000
B0658513202435S11700082EA0105101107000000000000
B0658553202457S11700149EA0105501112000000000000
B0658593202506S11700171EA0106201119000000000000
B0659033202535S11700130EA0107101130000000000000
B0659073202500S11700089EA0108401143000000000000
B0659113202437S11700110EA0109501156000000000000
B0659153202415S11700180EA0110401165000000000000
B0659193202444S11700241EA0110401162000000000000
B0659233202501S11700254EA0109901159000000000000
B0659273202554S11700227EA0110101161000000000000
B0659313202578S11700164EA0110401161000000000000
B0659353202557S11700102EA0109701148000000000000
B0659393202490S11700080EA0108401140000000000000
B0659433202407S11700078EA0108701147000000000000
B0659473202336S11700116EA0109401157000000000000
B0659513202338S11700195EA0111201173000000000000
B0659553202388S11700237EA0111701177000000000000
B0659593202440S11700219EA0111501175000000000000
B0700033202454S11700154EA0111801180000000000000
B0700073202414S11700102EA0114001205000000000000
B0700113202355S11700123EA0116101222000000000000
B0700153202333S11700189EA0116101220000000000000
B0700193202367S11700251EA0115501214000000000000
B0700233202425S11700263EA0115301214000000000000
B0700273202474S11700221EA0115301213000000000000
B0700313202487S11700155EA0115601210000000000000
B0700353202457S11700093EA0114501198000000000000
B0700393202389S11700072EA0114001199000000000000
B0700433202318S11700052EA0114501205000000000000
B0700473202316S11659993EA0116301229000000000000
B0700513202364S11700012EA0117601238000000000000
B0700553202353S11700088EA0119001257000000000000
B0700593202298S11700106EA0120801274000000000000
B0701033202272S11700055EA0121801283000000000000
B0701073202307S11700013EA0123001296000000000000
B0701113202355S11700030EA0125501322000000000000
B0701153202385S11700082EA0127101334000000000000
B0701193202388S11700153EA0126401324000000000000
B0701233202351S11700210EA0126001324000000000000
B0701273202297S11700220EA0126501329000000000000
B0701313202249S11700184EA0126501333000000000000
B0701353202240S11700120EA0127601344000000000000
B0701393202284S11700082EA0128801360000000000000
B0701433202336S11700117EA0130001363000000000000
B0701473202350S11700193EA0129901362000000000000
B0701513202316S11700255EA0129101353000000000000
B0701553202268S11700315EA0128801350000000000000
B0701593202223S11700385EA0128801354000000000000
B0702033202178S11700455EA0128801353000000000000
B0702073202142S11700533EA0128301347000000000000
B0702113202137S11700628EA0127101331000000000000
B0702153202150S11700726EA0126601341000000000000
B0702193202173S11700809EA0129701375000000000000
B0702233202223S11700806EA0133201405000000000000
B0702273202229S11700747EA0134801417000000000000
B0702313202186S11700700EA0135501426000000000000
B0702353202126S11700708EA0135801428000000000000
B0702393202095S11700774EA0136501438000000000000
B0702433202126S11700830EA0137501446000000000000
B0702473202176S11700808EA0138201453000000000000
B0702513202186S11700740EA0139001465000000000000
B0702553202150S11700687EA0140501476000000000000
B0702593202087S11700675EA0140501475000000000000
B0703033202026S11700714EA0140301475000000000000
B0703073201993S11700791EA0140901486000000000000
B0703113202008S11700866EA0141601489000000000000
B0703153202063S11700897EA0141701490000000000000
B0703193202116S11700862EA0141301487000000000000
B0703233202108S11700787EA0142701507000000000000
B0703273202048S11700766EA0145001529000000000000
B0703313202000S11700818EA0145501531000000000000
B0703353201996S11700896EA0146101536000000000000
B0703393202041S11700939EA0146301538000000000000
B0703433202097S11700925EA0146201539000000000000
B0703473202134S11700871EA0146801545000000000000
B0703513202138S11700800EA0147701556000000000000
B0703553202103S11700743EA0148701564000000000000
B0703593202042S11700727EA0148701560000000000000
B0704033201980S11700765EA0148101556000000000000
B0704073201915S11700817EA0147401551000000000000
B0704113201846S11700865EA0148101560000000000000
B0704153201777S11700909EA0148701566000000000000
B0704193201707S11700951EA0149401572000000000000
B0704233201640S11700990EA0150301582000000000000
B0704273201573S11701024EA0150201576000000000000
B0704313201505S11701056EA0149801572000000000000
B0704353201436S11701087EA0149701574000000000000
B0704393201370S11701122EA0149201567000000000000
B0704433201301S11701156EA0149301571000000000000
B0704473201229S11701156EA0150201579000000000000
B0704513201179S11701105EA0149801572000000000000
B0704553201174S11701031EA0149501568000000000000
B0704593201206S11700972EA0149201564000000000000
B0705033201262S11700940EA0148701559000000000000
B0705073201326S11700934EA0148201554000000000000
B0705113201389S11700957EA0147701549000000000000
B0705153201447S11701007EA0146501533000000000000
B0705193201501S11701077EA0144501514000000000000
B0705233201552S11701160EA0143301503000000000000
B0705273201599S11701248EA0143801508000000000000
B0705313201640S11701337EA0143601504000000000000
B0705353201679S11701427EA0142901498000000000000
B0705393201712S11701520EA0143001499000000000000
B0705433201736S11701616EA0142101490000000000000
B0705473201764S11701711EA0141801486000000000000
B0705513201795S11701809EA0140501472000000000000
B0705553201827S11701906EA0140301472000000000000
B0705593201863S11702000EA0138701452000000000000
B0706033201916S11702084EA0137701443000000000000
B0706073201970S11702157EA0137701440000000000000
B0706113202030S11702222EA0136301423000000000000
B0706153202095S11702286EA0134901411000000000000
B0706193202160S11702346EA0134701414000000000000
B0706233202225S11702398EA0135101416000000000000
B0706273202290S11702447EA0134901414000000000000
B0706313202350S11702504EA0135101415000000000000
B0706353202407S11702559EA0135801424000000000000
B0706393202462S11702610EA0137001434000000000000
B0706433202519S11702650EA0137601437000000000000
B0706473202580S11702654EA0137701437000000000000
B0706513202623S11702612EA0137701438000000000000
B0706553202623S11702548EA0137901441000000000000
B0706593202584S11702506EA0137901439000000000000
B0707033202528S11702499EA0137601435000000000000
B0707073202481S11702533EA0137101432000000000000
B0707113202457S11702598EA0136701430000000000000
B0707153202450S11702673EA0137201437000000000000
B0707193202464S11702742EA0137401439000000000000
B0707233202488S11702807EA0137401438000000000000
B0707273202514S11702875EA0137601442000000000000
B0707313202539S11702942EA0137701438000000000000
B0707353202568S11703011EA0137301439000000000000
B0707393202614S11703050EA0137901443000000000000
B0707433202657S11703015EA0138301447000000000000
B0707473202667S11702949EA0137901442000000000000
B0707513202630S11702892EA0137901441000000000000
B0707553202568S11702883EA0137901442000000000000
B0707593202519S11702927EA0137801438000000000000
B0708033202501S11702998EA0136701431000000000000
B0708073202484S11703076EA0136501430000000000000
B0708113202458S11703157EA0135901424000000000000
B0708153202427S11703239EA0135301416000000000000
B0708193202392S11703321EA0134301410000000000000
B0708233202358S11703401EA0133901403000000000000
B0708273202325S11703484EA0133101395000000000000
B0708313202281S11703561EA0131801383000000000000
B0708353202224S11703627EA0131301376000000000000
B0708393202160S11703682EA0131401368000000000000
B0708433202093S11703725EA0129801356000000000000
B0708473202017S11703752EA0127901336000000000000
B0708513201935S11703770EA0126301322000000000000
B0708553201851S11703778EA0125301313000000000000
B0708593201766S11703783EA0124401308000000000000
B0709033201683S11703783EA0124301307000000000000
B0709073201600S11703782EA0124401311000000000000
B0709113201519S11703773EA0125001313000000000000
B0709153201439S11703765EA0124701312000000000000
B0709193201359S11703759EA0125001319000000000000
B0709233201285S11703751EA0125701324000000000000
B0709273201211S11703738EA0125801321000000000000
B0709313201138S11703729EA0125601320000000000000
B0709353201063S11703715EA0125501319000000000000
B0709393200992S11703692EA0125901329000000000000
B0709433200924S11703670EA0126901341000000000000
B0709473200860S11703676EA0128301350000000000000
B0709513200834S11703739EA0129001359000000000000
B0709553200864S11703791EA0129701363000000000000
B0709593200915S11703789EA0130201371000000000000
B0710033200942S11703735EA0130901375000000000000
B0710073200930S11703669EA0131301381000000000000
B0710113200880S11703625EA0131501382000000000000
B0710153200813S11703624EA0131601381000000000000
B0710193200752S11703660EA0131701382000000000000
B0710233200724S11703730EA0131801389000000000000
B0710273200751S11703787EA0133001400000000000000
B0710313200803S11703795EA0133301402000000000000
B0710353200843S11703752EA0133301404000000000000
B0710393200850S11703681EA0133401405000000000000
B0710433200810S11703624EA0134101413000000000000
B0710473200741S11703622EA0134201412000000000000
B0710513200687S11703674EA0134301414000000000000
B0710553200676S11703748EA0134501420000000000000
B0710593200712S11703798EA0135701432000000000000
B0711033200760S11703789EA0136501437000000000000
B0711073200785S11703735EA0136601437000000000000
B0711113200771S11703669EA0136601440000000000000
B0711153200719S11703626EA0137201443000000000000
B0711193200651S11703614EA0136701438000000000000
B0711233200579S11703621EA0136001431000000000000
B0711273200503S11703633EA0135401425000000000000
B0711313200425S11703640EA0135101424000000000000
B0711353200349S11703647EA0134701416000000000000
B0711393200270S11703651EA0133801409000000000000
B0711433200192S11703642EA0133601406000000000000
B0711473200114S11703630EA0132601391000000000000
B0711513200035S11703617EA0131401378000000000000
B0711553159957S11703611EA0130601372000000000000
B0711593159887S11703634EA0130101365000000000000
B0712033159838S11703692EA0129801363000000000000
B0712073159831S11703761EA0129601357000000000000
B0712113159867S11703815EA0128301342000000000000
B0712153159927S11703837EA0127501342000000000000
B0712193159989S11703855EA0127301338000000000000
B0712233200053S11703876EA0127501347000000000000
B0712273200118S11703895EA0128401353000000000000
B0712313200173S11703873EA0130001367000000000000
B0712353200166S11703807EA0130801368000000000000
B0712393200109S11703773EA0130801370000000000000
B0712433200046S11703793EA0130101364000000000000
B0712473200019S11703855EA0130101365000000000000
B0712513200041S11703915EA0130101367000000000000
B0712553200092S11703942EA0130801379000000000000
B0712593200147S11703958EA0130801372000000000000
B0713033200209S11703965EA0129801363000000000000
B0713073200277S11703959EA0129301358000000000000
B0713113200349S11703945EA0128901352000000000000
B0713153200418S11703926EA0129501359000000000000
B0713193200481S11703897EA0130801372000000000000
B0713233200479S11703829EA0133401397000000000000
B0713273200423S11703800EA0134101400000000000000
B0713313200370S11703838EA0134001407000000000000
B0713353200364S11703900EA0134601410000000000000
B0713393200399S11703942EA0134601413000000000000
B0713433200444S11703925EA0135201418000000000000
B0713473200457S11703864EA0135101417000000000000
B0713513200418S11703807EA0135001418000000000000
B0713553200351S11703799EA0135001417000000000000
B0713593200303S11703852EA0135601423000000000000
B0714033200317S11703912EA0136001427000000000000
B0714073200365S11703928EA0136201433000000000000
B0714113200408S11703891EA0136701436000000000000
B0714153200414S11703825EA0137001438000000000000
B0714193200381S11703767EA0136901436000000000000
B0714233200316S11703741EA0136501432000000000000
B0714273200245S11703756EA0135901426000000000000
B0714313200196S11703813EA0135901429000000000000
B0714353200182S11703885EA0136301433000000000000
B0714393200204S11703945EA0136401433000000000000
B0714433200253S11703972EA0135901430000000000000
B0714473200310S11703968EA0136001435000000000000
B0714513200369S11703950EA0136301433000000000000
B0714553200426S11703928EA0135901428000000000000
B0714593200486S11703902EA0135101417000000000000
B0715033200547S11703874EA0134601413000000000000
B0715073200611S11703850EA0134101405000000000000
B0715113200677S11703821EA0133001395000000000000
B0715153200746S11703787EA0132201387000000000000
B0715193200817S11703754EA0131701379000000000000
B0715233200886S11703717EA0132101391000000000000
B0715273200955S11703681EA0132701394000000000000
B0715313201025S11703648EA0133501405000000000000
B0715353201077S11703592EA0135301425000000000000
B0715393201051S11703523EA0138201450000000000000
B0715433200986S11703509EA0138801454000000000000
B0715473200936S11703560EA0139101457000000000000
B0715513200940S11703624EA0140001469000000000000
B0715553200985S11703647EA0141001478000000000000
B0715593201029S11703612EA0141101482000000000000
B0716033201024S11703540EA0141901493000000000000
B0716073200973S11703492EA0142501495000000000000
B0716113200906S11703500EA0142501493000000000000
B0716153200863S11703559EA0142701499000000000000
B0716193200864S11703626EA0143601509000000000000
B0716233200906S11703657EA0144801523000000000000
B0716273200953S11703630EA0145301528000000000000
B0716313200966S11703565EA0146001535000000000000
B0716353200941S11703495EA0146201536000000000000
B0716393200882S11703453EA0146201534000000000000
B0716433200813S11703460EA0146101536000000000000
B0716473200758S11703507EA0146701546000000000000
B0716513200732S11703574EA0147601554000000000000
B0716553200739S11703638EA0148701567000000000000
B0716593200778S11703673EA0149501576000000000000
B0717033200823S11703644EA0150801587000000000000
B0717073200823S11703578EA0151501593000000000000
B0717113200780S11703527EA0151901599000000000000
B0717153200715S11703518EA0152101602000000000000
B0717193200668S11703561EA0153001611000000000000
B0717233200664S11703624EA0153501613000000000000
B0717273200700S11703664EA0153501615000000000000
B0717313200752S11703652EA0154101623000000000000
B0717353200782S11703594EA0154801627000000000000
B0717393200768S11703517EA0154701626000000000000
B0717433200716S11703460EA0154501625000000000000
B0717473200643S11703447EA0154801630000000000000
B0717513200582S11703484EA0155601637000000000000
B0717553200556S11703548EA0156201642000000000000
B0717593200569S11703608EA0156401645000000000000
B0718033200613S11703642EA0156301643000000000000
B0718073200665S11703625EA0157101655000000000000
B0718113200670S11703562EA0158501668000000000000
B0718153200626S11703517EA0159001670000000000000
B0718193200565S11703517EA0159501676000000000000
B0718233200518S11703560EA0159501676000000000000
B0718273200513S11703624EA0159301676000000000000
B0718313200548S11703664EA0159801681000000000000
B0718353200596S11703653EA0160601688000000000000
B0718393200626S11703600EA0160801690000000000000
B0718433200617S11703529EA0160901692000000000000
B0718473200569S11703479EA0161401696000000000000
B0718513200505S11703477EA0161801700000000000000
B0718553200460S11703522EA0162501707000000000000
B0718593200457S11703586EA0162401706000000000000
B0719033200492S11703637EA0162101703000000000000
B0719073200544S11703674EA0161901703000000000000
B0719113200600S11703707EA0162401707000000000000
B0719153200656S11703735EA0163501720000000000000
B0719193200711S11703730EA0164801727000000000000
B0719233200738S11703669EA0165501733000000000000
B0719273200707S11703603EA0166001738000000000000
B0719313200642S11703575EA0166101739000000000000
B0719353200579S11703607EA0166601743000000000000
B0719393200556S11703673EA0166801746000000000000
B0719433200579S11703735EA0167401753000000000000
B0719473200625S11703774EA0168001759000000000000
B0719513200680S11703770EA0168301766000000000000
B0719553200707S11703712EA0169001772000000000000
B0719593200678S11703647EA0169701779000000000000
B0720033200615S11703621EA0169901779000000000000
B0720073200547S11703647EA0169801780000000000000
B0720113200514S11703715EA0170701788000000000000
B0720153200535S11703777EA0171601799000000000000
B0720193200586S11703791EA0172601810000000000000
B0720233200624S11703751EA0173401817000000000000
B0720273200621S11703686EA0174001826000000000000
B0720313200581S11703637EA0174701831000000000000
B0720353200518S11703621EA0174501827000000000000
B0720393200446S11703626EA0173501817000000000000
B0720433200366S11703631EA0173101818000000000000
B0720473200288S11703635EA0173601824000000000000
B0720513200210S11703635EA0174001826000000000000
B0720553200132S11703635EA0174001822000000000000
B0720593200054S11703630EA0173101810000000000000
B0721033159976S11703624EA0172101803000000000000
B0721073159902S11703620EA0171601793000000000000
B0721113159825S11703614EA0170101779000000000000
B0721153159747S11703609EA0169301770000000000000
B0721193159672S11703600EA0168701763000000000000
B0721233159595S11703591EA0168101759000000000000
B0721273159521S11703609EA0167701753000000000000
B0721313159452S11703651EA0166901747000000000000
B0721353159387S11703696EA0166801750000000000000
B0721393159325S11703741EA0167201751000000000000
B0721433159265S11703789EA0167101750000000000000
B0721473159224S11703851EA0167201751000000000000
B0721513159221S11703925EA0167401750000000000000
B0721553159268S11703976EA0166701748000000000000
B0721593159334S11703982EA0167101756000000000000
B0722033159383S11703938EA0168301765000000000000
B0722073159386S11703864EA0169201775000000000000
B0722113159341S11703815EA0170101782000000000000
B0722153159277S11703816EA0169801778000000000000
B0722193159234S11703873EA0169901780000000000000
B0722233159233S11703946EA0170301785000000000000
B0722273159260S11704010EA0170801790000000000000
B0722313159316S11704032EA0170701789000000000000
B0722353159376S11704016EA0170701792000000000000
B0722393159434S11703988EA0170801789000000000000
B0722433159495S11703949EA0169801778000000000000
B0722473159558S11703902EA0168601764000000000000
B0722513159621S11703852EA0168301760000000000000
B0722553159682S11703804EA0167601752000000000000
B0722593159744S11703750EA0165901736000000000000
B0723033159805S11703694EA0164501720000000000000
B0723073159872S11703640EA0163701708000000000000
B0723113159949S11703614EA0162301696000000000000
B0723153200028S11703618EA0161401689000000000000
B0723193200108S11703643EA0161001684000000000000
B0723233200183S11703677EA0161101687000000000000
B0723273200254S11703715EA0161501692000000000000
B0723313200323S11703754EA0162001696000000000000
B0723353200391S11703793EA0162101696000000000000
B0723393200459S11703835EA0161801694000000000000
B0723433200526S11703876EA0162501703000000000000
B0723473200587S11703917EA0164001717000000000000
B0723513200647S11703960EA0164401718000000000000
B0723553200711S11703999EA0164301719000000000000
B0723593200778S11704040EA0164301718000000000000
B0724033200847S11704076EA0164801724000000000000
B0724073200917S11704110EA0164801721000000000000
B0724113200990S11704141EA0164001715000000000000
B0724153201064S11704172EA0163601708000000000000
B0724193201140S11704203EA0162701699000000000000
B0724233201218S11704232EA0161601684000000000000
B0724273201300S11704257EA0160101673000000000000
B0724313201382S11704288EA0159901675000000000000
B0724353201458S11704323EA0160301677000000000000
B0724393201534S11704359EA0159701670000000000000
B0724433201609S11704397EA0158901657000000000000
B0724473201687S11704441EA0157401644000000000000
B0724513201768S11704474EA0157101640000000000000
B0724553201851S11704504EA0156101634000000000000
B0724593201931S11704540EA0156101638000000000000
B0725033202007S11704579EA0156901643000000000000
B0725073202080S11704614EA0157401650000000000000
B0725113202149S11704652EA0158101659000000000000
B0725153202214S11704693EA0159001666000000000000
B0725193202277S11704738EA0159301666000000000000
B0725233202341S11704781EA0158901663000000000000
B0725273202403S11704826EA0158301654000000000000
B0725313202466S11704872EA0158001656000000000000
B0725353202524S11704921EA0158201658000000000000
B0725393202576S11704970EA0159401667000000000000
B0725433202637S11705007EA0158601660000000000000
B0725473202702S11705039EA0159201670000000000000
B0725513202761S11705069EA0160801684000000000000
B0725553202818S11705080EA0161001678000000000000
B0725593202884S11705080EA0159901666000000000000
B0726033202957S11705083EA0159201665000000000000
B0726073203030S11705081EA0159401674000000000000
B0726113203099S11705078EA0159901673000000000000
B0726153203170S11705077EA0159501666000000000000
B0726193203242S11705077EA0159101665000000000000
B0726233203313S11705076EA0158901657000000000000
B0726273203390S11705073EA0157601645000000000000
B0726313203467S11705059EA0156201633000000000000
B0726353203543S11705042EA0155601626000000000000
B0726393203620S11705028EA0155701632000000000000
B0726433203694S11705012EA0156001628000000000000
B0726473203770S11704991EA0154901622000000000000
B0726513203841S11704963EA0155201635000000015000
B0726553203904S11704933EA0156801638000000000000
B0726593203969S11704908EA0156101633000000000000
B0727033204036S11704892EA0156101631000000000000
B0727073204108S11704878EA0155401622000000000000
B0727113204184S11704864EA0154701617000000000000
B0727153204262S11704849EA0155401628000000000000
B0727193204333S11704836EA0156101629000000000000
B0727233204405S11704822EA0155501621000000000000
B0727273204481S11704803EA0154401612000000000000
B0727313204557S11704779EA0153501603000000000000
B0727353204633S11704756EA0153001600000000000000
B0727393204708S11704729EA0152501594000000000000
B0727433204786S11704706EA0152201591000000000000
B0727473204863S11704688EA0151501584000000000000
B0727513204938S11704662EA0151301584000000000000
B0727553205014S11704639EA0151301580000000000000
B0727593205088S11704612EA0150901577000000000000
B0728033205162S11704578EA0149601560000000000000
B0728073205240S11704550EA0148301551000000000000
B0728113205314S11704518EA0148501552000000000000
B0728153205382S11704472EA0147401540000000000000
B0728193205445S11704413EA0146501532000000000000
B0728233205503S11704341EA0145001518000000000000
B0728273205555S11704261EA0144601514000000000000
B0728313205600S11704176EA0144901521000000000000
B0728353205640S11704090EA0144801515000000000000
B0728393205679S11704002EA0145101521000000000000
B0728433205714S11703915EA0145701526000000000000
B0728473205748S11703829EA0145401518000000000000
B0728513205781S11703742EA0144501507000000000000
B0728553205813S11703652EA0143201495000000000000
B0728593205843S11703560EA0142801493000000000000
B0729033205873S11703468EA0142401487000000000000
B0729073205903S11703375EA0141901477000000000000
B0729113205939S11703286EA0140701468000000000000
B0729153205980S11703201EA0139901458000000000000
B0729193206023S11703117EA0139301453000000000000
B0729233206069S11703035EA0138901448000000000000
B0729273206123S11702962EA0140501472000000000000
B0729313206168S11702893EA0143201496000000000000
B0729353206154S11702818EA0144801518000000000000
B0729393206086S11702799EA0146801536000000000000
B0729433206032S11702846EA0147701545000000000000
B0729473206023S11702916EA0147701545000000000000
B0729513206063S11702954EA0148201552000000000000
B0729553206112S11702932EA0148501554000000000000
B0729593206134S11702866EA0148901561000000000000
B0730033206106S11702797EA0149901575000000000000
B0730073206043S11702769EA0151301587000000000000
B0730113205981S11702792EA0151801593000000000000
B0730153205946S11702851EA0152001596000000000000
B0730193205952S11702912EA0152301600000000000000
B0730233205990S11702944EA0152601603000000000000
B0730273206038S11702927EA0152501603000000000000
B0730313206062S11702864EA0152601607000000000000
B0730353206037S11702797EA0153201616000000000000
B0730393205981S11702751EA0154001625000000000000
B0730433205915S11702756EA0154701629000000000000
B0730473205869S11702810EA0154501626000000000000
B0730513205859S11702880EA0154501625000000000000
B0730553205886S11702933EA0154501631000000000000
B0730593205935S11702949EA0155201635000000000000
B0731033205987S11702925EA0155001634000000000000
B0731073206039S11702889EA0154501627000000000000
B0731113206093S11702845EA0154001623000000000000
B0731153206146S11702798EA0153801622000000000000
B0731193206201S11702750EA0153701617000000000000
B0731233206255S11702699EA0153201614000000000000
B0731273206312S11702650EA0152601605000000000000
B0731313206370S11702598EA0151801596000000000000
B0731353206428S11702543EA0151201591000000000000
B0731393206487S11702489EA0150301579000000000000
B0731433206548S11702435EA0149601570000000000000
B0731473206613S11702383EA0148401559000000000000
B0731513206682S11702330EA0147301549000000000000
B0731553206748S11702281EA0147701556000000000000
B0731593206813S11702239EA0148301562000000000000
B0732033206877S11702197EA0148601561000000000000
B0732073206939S11702156EA0148101556000000000000
B0732113207005S11702113EA0147401547000000000000
B0732153207072S11702067EA0146601536000000000000
B0732193207137S11702019EA0145201525000000000000
B0732233207203S11701969EA0144501517000000000000
B0732273207271S11701921EA0143401507000000000000
B0732313207338S11701871EA0143001503000000000000
B0732353207403S11701819EA0142701500000000000000
B0732393207466S11701763EA0142101492000000000000
B0732433207527S11701707EA0141501488000000000000
B0732473207586S11701651EA0141101482000000000000
B0732513207648S11701596EA0140001470000000000000
B0732553207709S11701534EA0139001461000000000000
B0732593207770S11701472EA0138501455000000000000
B0733033207836S11701414EA0137901453000000000000
B0733073207906S11701368EA0138201459000000000000
B0733113207975S11701333EA0137801444000000000000
B0733153208052S11701306EA0136001427000000000000
B0733193208132S11701286EA0134801418000000000000
B0733233208213S11701278EA0134301414000000000000
B0733273208292S11701282EA0134401415000000000000
B0733313208366S11701290EA0134201410000000000000
B0733353208443S11701302EA0133501403000000000000
B0733393208520S11701312EA0132701395000000000000
B0733433208597S11701321EA0132401395000000000000
B0733473208671S11701333EA0131901388000000000000
B0733513208742S11701341EA0131401384000000000000
B0733553208812S11701349EA0130901379000000000000
B0733593208881S11701355EA0130301373000000000000
B0734033208953S11701362EA0129101357000000000000
B0734073209028S11701367EA0128401351000000000000
B0734113209102S11701371EA0127701344000000000000
B0734153209178S11701373EA0127301336000000000000
B0734193209253S11701373EA0126401330000000000000
B0734233209327S11701372EA0126201327000000000000
B0734273209397S11701372EA0126001326000000000000
B0734313209466S11701369EA0125901325000000000000
B0734353209535S11701367EA0125701317000000000000
B0734393209601S11701346EA0125001311000000000000
B0734433209657S11701297EA0124201302000000000000
B0734473209699S11701224EA0123301292000000000000
B0734513209724S11701138EA0122101284000000000000
B0734553209731S11701047EA0122101283000000000000
B0734593209730S11700957EA0121701281000000000000
B0735033209722S11700866EA0121101273000000000000
B0735073209709S11700773EA0120401269000000000000
B0735113209692S11700680EA0120401271000000000000
B0735153209674S11700592EA0120701271000000000000
B0735193209655S11700506EA0120401268000000000000
B0735233209634S11700419EA0120401270000000000000
B0735273209616S11700335EA0120901274000000000000
B0735313209581S11700262EA0121401278000000000000
B0735353209518S11700227EA0121601279000000000000
B0735393209451S11700244EA0121501281000000000000
B0735433209408S11700305EA0121701282000000000000
B0735473209396S11700383EA0121101275000000000000
B0735513209417S11700455EA0120601275000000000000
B0735553209452S11700520EA0120801275000000000000
B0735593209494S11700578EA0120401269000000000000
B0736033209543S11700628EA0119701257000000000000
B0736073209598S11700679EA0118301246000000000000
B0736113209659S11700715EA0117601238000000000000
B0736153209728S11700728EA0116701231000000000000
B0736193209800S11700734EA0116101224000000000000
B0736233209872S11700721EA0116001223000000000000
B0736273209936S11700678EA0115701217000000000000
B0736313209978S11700602EA0114801207000000000000
B0736353209995S11700511EA0113901200000000000000
B0736393209991S11700419EA0113201192000000000000
B0736433209976S11700325EA0112301183000000000000
B0736473209956S11700233EA0111401175000000000000
B0736513209934S11700143EA0110601167000000000000
B0736553209911S11700052EA0110001160000000000000
B0736593209886S11659963EA0109501157000000000000
B0737033209861S11659874EA0109501159000000000000
B0737073209828S11659790EA0109701158000000000000
B0737113209794S11659708EA0109401154000000000000
B0737153209757S11659626EA0108701146000000000000
B0737193209717S11659545EA0108601147000000000000
B0737233209678S11659462EA0108601144000000000000
B0737273209637S11659383EA0108901148000000000000
B0737313209587S11659314EA0108701144000000000000
B0737353209529S11659250EA0107901134000000000000
B0737393209470S11659183EA0106801121000000000000
B0737433209416S11659110EA0105701112000000000000
B0737473209365S11659033EA0104901106000000000000
B0737513209321S11658954EA0104001097000000000000
B0737553209279S11658872EA0103101087000000000000
B0737593209239S11658789EA0102201080000000000000
B0738033209200S11658703EA0101401067000000000000
B0738073209159S11658615EA0100701066000000000000
B0738113209118S11658534EA0101701078000000000000
B0738153209054S11658489EA0103401093000000000000
B0738193208981S11658499EA0104101099000000000000
B0738233208932S11658559EA0104701106000000000000
B0738273208923S11658630EA0105601116000000000000
B0738313208958S11658676EA0106501123000000000000
B0738353209003S11658663EA0106901125000000000000
B0738393209016S11658602EA0106701124000000000000
B0738433208979S11658548EA0107201132000000000000
B0738473208919S11658547EA0107901140000000000000
B0738513208873S11658594EA0108201141000000000000
B0738553208870S11658661EA0108401146000000000000
B0738593208907S11658695EA0109201155000000000000
B0739033208946S11658674EA0109701156000000000000
B0739073208950S11658615EA0109301152000000000000
B0739113208909S11658564EA0109701160000000000000
B0739153208851S11658556EA0110701170000000000000
B0739193208798S11658587EA0110801170000000000000
B0739233208767S11658648EA0110701173000000000000
B0739273208779S11658710EA0111101174000000000000
B0739313208824S11658733EA0110701169000000000000
B0739353208872S11658706EA0110401168000000000000
B0739393208892S11658643EA0110201165000000000000
B0739433208872S11658573EA0110201165000000000000
B0739473208818S11658528EA0110801176000000000000
B0739513208762S11658561EA0112101186000000000000
B0739553208753S11658632EA0111701181000000000000
B0739593208793S11658678EA0111601182000000000000
B0740033208849S11658674EA0111801186000000000000
B0740073208884S11658624EA0111901186000000000000
B0740113208876S11658556EA0112201189000000000000
B0740153208829S11658503EA0112401189000000000000
B0740193208764S11658495EA0112801197000000000000
B0740233208711S11658541EA0113001196000000000000
B0740273208701S11658615EA0113001199000000000000
B0740313208729S11658676EA0113201200000000000000
B0740353208779S11658710EA0113401201000000000000
B0740393208831S11658691EA0113201201000000000000
B0740433208859S11658635EA0113201198000000000000
B0740473208862S11658561EA0112801191000000000000
B0740513208857S11658482EA0111801185000000000000
B0740553208849S11658400EA0111901189000000000000
B0740593208827S11658325EA0112901198000000000000
B0741033208775S11658274EA0113201200000000000000
B0741073208707S11658271EA0113201201000000000000
B0741113208647S11658312EA0112901193000000000000
B0741153208617S11658381EA0112301187000000000000
B0741193208633S11658453EA0111301179000000000000
B0741233208673S11658517EA0110601172000000000000
B0741273208720S11658582EA0110101170000000000000
B0741313208767S11658646EA0110301172000000000000
B0741353208811S11658712EA0110101167000000000000
B0741393208862S11658773EA0109601161000000000000
B0741433208919S11658819EA0108801150000000000000
B0741473208985S11658821EA0108001143000000000000
B0741513209039S11658780EA0107201133000000000000
B0741553209068S11658711EA0106701130000000000000
B0741593209080S11658634EA0106501125000000000000
B0742033209080S11658556EA0106301123000000000000
B0742073209070S11658478EA0105601112000000000000
B0742113209052S11658399EA0104501105000000000000
B0742153209031S11658316EA0103401093000000000000
B0742193209007S11658232EA0102801087000000000000
B0742233208985S11658149EA0102201080000000000000
B0742273208962S11658065EA0101101068000000000000
B0742313208932S11657979EA0100301061000000000000
B0742353208897S11657894EA0099601054000000000000
B0742393208859S11657813EA0099101047000000000000
B0742433208821S11657728EA0098501041000000000000
B0742473208785S11657644EA0098001037000000000000
B0742513208747S11657562EA0097701033000000000000
B0742553208711S11657481EA0097201028000000000000
B0742593208669S11657403EA0096701021000000000000
B0743033208621S11657330EA0096001015000000000000
B0743073208571S11657257EA0095801015000000000000
B0743113208521S11657189EA0095501008000000000000
B0743153208472S11657120EA0094701002000000000000
B0743193208421S11657056EA0094500999000000000000
B0743233208369S11656992EA0093800989000000000000
B0743273208314S11656929EA0092800980000000000000
B0743313208253S11656874EA0092500981000000000000
B0743353208190S11656828EA0092400978000000000000
B0743393208127S11656784EA0091600969000000000000
B0743433208066S11656739EA0090500958000000000000
B0743473208018S11656675EA0089700951000000000000
B0743513207987S11656601EA0089400947000000000000
B0743553207960S11656524EA0088600935000000000000
B0743593207936S11656444EA0087300925000000000000
B0744033207914S11656363EA0086500913000000000000
B0744073207892S11656281EA0085200901000000000000
B0744113207869S11656197EA0084200891000000000000
B0744153207845S11656110EA0083400882000000000000
B0744193207827S11656020EA0082800875000000000000
B0744233207811S11655931EA0082700878000000000000
B0744273207794S11655846EA0083200883000000000000
B0744313207806S11655769EA0083700890000000000000
B0744353207859S11655768EA0085200905000000000000
B0744393207870S11655840EA0086200914000000000000
B0744433207818S11655894EA0086600916000000000000
B0744473207749S11655883EA0087000922000000000000
B0744513207720S11655822EA0087800929000000000000
B0744553207745S11655775EA0088200932000000000000
B0744593207794S11655779EA0088200934000000000000
B0745033207826S11655837EA0088600940000000000000
B0745073207806S11655908EA0089100944000000000000
B0745113207744S11655939EA0089500944000000000000
B0745153207684S11655902EA0089100945000000000000
B0745193207668S11655831EA0089800950000000000000
B0745233207701S11655788EA0090900964000000000000
B0745273207744S11655801EA0092000972000000000000
B0745313207766S11655859EA0092100976000000000000
B0745353207746S11655929EA0092000973000000000000
B0745393207690S11655973EA0092100976000000000000
B0745433207623S11655969EA0092600983000000000000
B0745473207571S11655922EA0092800985000000000000
B0745513207554S11655855EA0093000985000000000000
B0745553207583S11655800EA0093300989000000000000
B0745593207635S11655779EA0093700992000000000000
B0746033207681S11655811EA0094801008000000000000
B0746073207675S11655878EA0095901018000000000000
B0746113207619S11655916EA0096301022000000000000
B0746153207557S11655898EA0096501023000000000000
B0746193207521S11655837EA0096501021000000000000
B0746233207534S11655775EA0096801029000000000000
B0746273207581S11655755EA0097201032000000000000
B0746313207628S11655788EA0097601036000000000000
B0746353207637S11655861EA0098401048000000000000
B0746393207599S11655925EA0099401052000000000000
B0746433207531S11655939EA0099101047000000000000
B0746473207463S11655903EA0098801047000000000000
B0746513207415S11655839EA0098401049000000000000
B0746553207419S11655764EA0098901048000000000000
B0746593207469S11655722EA0098401045000000000000
B0747033207534S11655714EA0098401046000000000000
B0747073207592S11655738EA0099301058000000000000
B0747113207638S11655783EA0100001063000000000000
B0747153207667S11655847EA0099601059000000000000
B0747193207693S11655915EA0098701051000000000000
B0747233207720S11655987EA0097901045000000000000
B0747273207748S11656063EA0097901041000000000000
B0747313207774S11656139EA0097301036000000000000
B0747353207792S11656220EA0096801031000000000000
B0747393207791S11656306EA0096701030000000000000
B0747433207781S11656388EA0097101034000000000000
B0747473207776S11656464EA0097301038000000000000
B0747513207796S11656535EA0097301033000000000000
B0747553207840S11656585EA0096501029000000000000
B0747593207900S11656601EA0096501030000000000000
B0748033207961S11656598EA0096201024000000000000
B0748073208023S11656589EA0095701019000000000000
B0748113208082S11656572EA0095301014000000000000
B0748153208142S11656552EA0094601006000000000000
B0748193208201S11656524EA0094001000000000000000
B0748233208261S11656498EA0093500992000000000000
B0748273208322S11656470EA0093100991000000000000
B0748313208372S11656425EA0093200990000000000000
B0748353208394S11656358EA0092700981000000000000
B0748393208378S11656281EA0091600972000000000000
B0748433208334S11656216EA0090400959000000000000
B0748473208272S11656163EA0088900942000000000000
B0748513208201S11656113EA0087200926000000000000
B0748553208130S11656063EA0086000919000000000000
B0748593208062S11656003EA0085500914000000000000
B0749033208001S11655935EA0085300913000000000000
B0749073207947S11655864EA0085800922000000000000
B0749113207896S11655799EA0086600930000000000000
B0749153207848S11655738EA0088000945000000000000
B0749193207785S11655723EA0089600959000000000000
B0749233207745S11655773EA0090800969000000000000
B0749273207758S11655829EA0091500973000000000000
B0749313207805S11655835EA0091400974000000000000
B0749353207827S11655782EA0091800980000000000000
B0749393207793S11655725EA0092200984000000000000
B0749433207728S11655718EA0092700994000000000000
B0749473207674S11655753EA0093601001000000000000
B0749513207636S11655808EA0094101002000000000000
B0749553207619S11655876EA0094301007000000000000
B0749593207627S11655942EA0095001014000000000000
B0750033207662S11655987EA0094801010000000000000
B0750073207709S11655989EA0094701008000000000000
B0750113207749S11655951EA0094001001000000000000
B0750153207763S11655885EA0094001003000000000000
B0750193207758S11655812EA0094301008000000000000
B0750233207716S11655753EA0095001016000000000000
B0750273207653S11655735EA0095801025000000000000
B0750313207598S11655777EA0096001023000000000000
B0750353207588S11655851EA0095901023000000000000
B0750393207627S11655900EA0095701024000000000000
B0750433207681S11655895EA0096501036000000000000
B0750473207718S11655851EA0097901046000000000000
B0750513207729S11655787EA0098301049000000000000
B0750553207714S11655720EA0098501050000000000000
B0750593207666S11655668EA0098401049000000000000
B0751033207597S11655651EA0098001046000000000000
B0751073207531S11655682EA0098501051000000000000
B0751113207490S11655742EA0099101058000000000000
B0751153207485S11655812EA0099601062000000000000
B0751193207514S11655865EA0099901066000000000000
B0751233207563S11655873EA0100701075000000000000
B0751273207598S11655838EA0101601085000000000000
B0751313207596S11655774EA0102101087000000000000
B0751353207553S11655718EA0102001087000000000000
B0751393207486S11655707EA0102001086000000000000
B0751433207433S11655755EA0102101090000000000000
B0751473207416S11655827EA0102501091000000000000
B0751513207436S11655894EA0102701096000000000000
B0751553207476S11655938EA0102901097000000000000
B0751593207529S11655951EA0103001098000000000000
B0752033207580S11655924EA0103401105000000000000
B0752073207609S11655866EA0104401113000000000000
B0752113207599S11655798EA0104801118000000000000
B0752153207555S11655742EA0104901119000000000000
B0752193207488S11655726EA0105301127000000000000
B0752233207428S11655756EA0106101131000000000000
B0752273207390S11655816EA0106001128000000000000
B0752313207385S11655887EA0106201131000000000000
B0752353207416S11655935EA0106601136000000000000
B0752393207462S11655926EA0107701146000000000000
B0752433207463S11655866EA0108301154000000000000
B0752473207414S11655824EA0108601158000000000000
B0752513207351S11655833EA0109201164000000000000
B0752553207308S11655882EA0109501168000000000000
B0752593207303S11655948EA0109401164000000000000
B0753033207334S11655996EA0109601166000000000000
B0753073207382S11656011EA0109301163000000000000
B0753113207429S11655981EA0109201164000000000000
B0753153207434S11655912EA0109601170000000000000
B0753193207382S11655869EA0110201177000000000000
B0753233207316S11655889EA0110401176000000000000
B0753273207277S11655955EA0110501179000000000000
B0753313207281S11656029EA0110601180000000000000
B0753353207317S11656078EA0111001184000000000000
B0753393207368S11656089EA0111001184000000000000
B0753433207411S11656060EA0111001185000000000000
B0753473207432S11656003EA0111001183000000000000
B0753513207415S11655938EA0111501192000000000000
B0753553207364S11655894EA0112201201000000000000
B0753593207300S11655892EA0112901207000000000000
B0754033207248S11655934EA0113301213000000000000
B0754073207232S11655998EA0113901217000000000000
B0754113207256S11656051EA0114501222000000000000
B0754153207298S11656071EA0114901227000000000000
B0754193207341S11656050EA0115201226000000000000
B0754233207364S11655999EA0115301229000000000000
B0754273207359S11655938EA0115901237000000000000
B0754313207321S11655891EA0116801245000000000000
B0754353207263S11655877EA0116801243000000000000
B0754393207203S11655907EA0116701243000000000000
B0754433207167S11655967EA0117101249000000000000
B0754473207170S11656033EA0118001257000000000000
B0754513207204S11656076EA0118701263000000000000
B0754553207250S11656082EA0118801265000000000000
B0754593207286S11656046EA0118901265000000000000
B0755033207290S11655982EA0118601260000000000000
B0755073207256S11655913EA0118101258000000000000
B0755113207195S11655870EA0118501265000000000000
B0755153207126S11655885EA0119201271000000000000
B0755193207079S11655944EA0119201269000000000000
B0755233207082S11656017EA0119501274000000000000
B0755273207126S11656059EA0120001278000000000000
B0755313207180S11656047EA0120701287000000000000
B0755353207199S11655991EA0122101299000000000000
B0755393207173S11655934EA0122901306000000000000
B0755433207116S11655917EA0123401310000000000000
B0755473207068S11655959EA0123801313000000000000
B0755513207073S11656019EA0123901315000000000000
B0755553207118S11656034EA0124301323000000000000
B0755593207152S11655993EA0124901328000000000000
B0756033207143S11655929EA0125401329000000000000
B0756073207094S11655882EA0125501333000000000000
B0756113207029S11655886EA0125601334000000000000
B0756153206985S11655938EA0125801335000000000000
B0756193206983S11656006EA0126101338000000000000
B0756233207016S11656052EA0126801349000000000000
B0756273207059S11656065EA0128001359000000000000
B0756313207098S11656043EA0128601364000000000000
B0756353207117S11655993EA0128901361000000000000
B0756393207109S11655928EA0128101354000000000000
B0756433207064S11655873EA0127901354000000000000
B0756473206999S11655885EA0128301360000000000000
B0756513206962S11655946EA0128301357000000000000
B0756553206978S11656011EA0128701366000000000000
B0756593207024S11656030EA0130001379000000000000
B0757033207061S11655998EA0130301380000000000000
B0757073207069S11655937EA0130101375000000000000
B0757113207047S11655868EA0129501374000000000000
B0757153206995S11655822EA0130101380000000000000
B0757193206927S11655833EA0130301381000000000000
B0757233206886S11655891EA0130301383000000000000
B0757273206888S11655959EA0130801386000000000000
B0757313206926S11656003EA0131101390000000000000
B0757353206977S11656011EA0131701397000000000000
B0757393207008S11655965EA0132101398000000000000
B0757433206994S11655899EA0131401389000000000000
B0757473206938S11655853EA0131101392000000000000
B0757513206869S11655860EA0131601395000000000000
B0757553206812S11655908EA0131501395000000000000
B0757593206783S11655977EA0131801399000000000000
B0758033206790S11656051EA0132301404000000000000
B0758073206827S11656094EA0133501416000000000000
B0758113206865S11656065EA0134601424000000000000
B0758153206861S11656004EA0134301421000000000000
B0758193206812S11655964EA0134101423000000000000
B0758233206747S11655967EA0134601424000000000000
B0758273206689S11656009EA0134301425000000000000
B0758313206662S11656074EA0135301434000000000000
B0758353206660S11656143EA0135501437000000000000
B0758393206692S11656184EA0136201442000000000000
B0758433206732S11656154EA0136101437000000000000
B0758473206726S11656086EA0135801438000000000000
B0758513206671S11656043EA0136701449000000000000
B0758553206609S11656059EA0137901461000000000000
B0758593206572S11656113EA0138401464000000000000
B0759033206572S11656177EA0138301461000000000000
B0759073206601S11656225EA0138201462000000000000
B0759113206648S11656240EA0137901456000000000000
B0759153206693S11656215EA0137401451000000000000
B0759193206717S11656159EA0136901444000000000000
B0759233206727S11656093EA0135901434000000000000
B0759273206715S11656017EA0135201428000000000000
B0759313206695S11655943EA0134901430000000000000
B0759353206669S11655873EA0135201426000000000000
B0759393206615S11655822EA0134601423000000000000
B0759433206546S11655816EA0134601423000000000000
B0759473206483S11655848EA0134501420000000000000
B0759513206439S11655909EA0133601411000000000000
B0759553206427S11655986EA0132701406000000000000
B0759593206448S11656055EA0132401402000000000000
B0800033206493S11656100EA0132201402000000000000
B0800073206550S11656113EA0132201402000000000000
B0800113206605S11656089EA0132601407000000000000
B0800153206617S11656019EA0133201406000000000000
B0800193206580S11655947EA0132401405000000000000
B0800233206517S11655912EA0133201416000000000000
B0800273206448S11655929EA0133301414000000000000
B0800313206387S11655976EA0132801411000000000000
B0800353206328S11656026EA0132501409000000000000
B0800393206272S11656081EA0131901401000000000000
B0800433206216S11656139EA0131001387000000000000
B0800473206172S11656207EA0130001379000000000000
B0800513206160S11656281EA0129301369000000000000
B0800553206190S11656344EA0128201359000000000000
B0800593206241S11656384EA0126901346000000000000
B0801033206301S11656411EA0125901338000000000000
B0801073206364S11656429EA0125301331000000000000
B0801113206428S11656435EA0125001328000000000000
B0801153206494S11656435EA0124101315000000000000
B0801193206561S11656436EA0123701314000000000000
B0801233206623S11656436EA0124001316000000000000
B0801273206684S11656441EA0123801313000000000000
B0801313206745S11656450EA0123501311000000000000
B0801353206804S11656458EA0123301308000000000000
B0801393206865S11656464EA0122501299000000000000
B0801433206927S11656475EA0121601289000000000000
B0801473206983S11656514EA0121201290000000000000
B0801513207029S11656567EA0121101287000000000000
B0801553207078S11656615EA0120701282000000000000
B0801593207134S11656656EA0120401278000000000000
B0802033207194S11656692EA0120001273000000000000
B0802073207252S11656723EA0119201268000000000000
B0802113207310S11656752EA0119201268000000000000
B0802153207368S11656775EA0119201266000000000000
B0802193207428S11656800EA0118601258000000000000
B0802233207489S11656823EA0118101252000000000000
B0802273207551S11656831EA0117601244000000000000
B0802313207615S11656826EA0116201228000000000000
B0802353207679S11656808EA0114801215000000000000
B0802393207740S11656786EA0113901206000000000000
B0802433207802S11656761EA0113201203000000000000
B0802473207863S11656737EA0113201201000000000000
B0802513207924S11656711EA0112701196000000000000
B0802553207986S11656680EA0111801188000000000000
B0802593208047S11656643EA0111101180000000000000
B0803033208105S11656602EA0110801178000000000000
B0803073208160S11656559EA0110301170000000000000
B0803113208210S11656509EA0110101173000000000000
B0803153208242S11656441EA0110701178000000000000
B0803193208248S11656362EA0110601176000000000000
B0803233208227S11656279EA0110101170000000000000
B0803273208183S11656203EA0109201161000000000000
B0803313208126S11656130EA0108201151000000000000
B0803353208061S11656058EA0107001138000000000000
B0803393207991S11655983EA0106201133000000000000
B0803433207915S11655918EA0106401140000000000000
B0803473207837S11655869EA0107401147000000000000
B0803513207754S11655850EA0107701147000000000000
B0803553207667S11655859EA0107301142000000000000
B0803593207581S11655868EA0106901140000000000000
B0804033207499S11655877EA0107301143000000000000
B0804073207415S11655891EA0107401143000000015000
B0804113207343S11655863EA0108501156000000015000
B0804153207330S11655795EA0108801156000000015000
B0804193207373S11655765EA0108801153000000015000
B0804233207421S11655795EA0108401147000000000000
B0804273207456S11655857EA0108401147000000000000
B0804313207493S11655922EA0108601149000000000000
B0804353207546S11655937EA0109001153000000000000
B0804393207585S11655889EA0109201157000000000000
B0804433207581S11655816EA0109301158000000000000
B0804473207529S11655764EA0109201155000000000000
B0804513207458S11655761EA0108801152000000000000
B0804553207397S11655812EA0108901155000000000000
B0804593207378S11655889EA0109401162000000000000
B0805033207404S11655950EA0109901168000000000000
B0805073207454S11655967EA0110101169000000000000
B0805113207494S11655925EA0110201169000000000000
B0805153207490S11655852EA0110501172000000000000
B0805193207445S11655796EA0110401171000000000000
B0805233207377S11655783EA0110301169000000000000
B0805273207313S11655821EA0110301171000000000000
B0805313207281S11655892EA0110001167000000000000
B0805353207297S11655969EA0109501162000000000000
B0805393207349S11656003EA0109701168000000000000
B0805433207393S11655969EA0110601176000000000000
B0805473207393S11655905EA0111301182000000000000
B0805513207350S11655852EA0111401182000000000000
B0805553207285S11655852EA0111101178000000000000
B0805593207239S11655912EA0110701172000000000000
B0806033207242S11655985EA0110401173000000000000
B0806073207277S11656041EA0110601176000000000000
B0806113207329S11656054EA0111001179000000000000
B0806153207373S11656012EA0111001177000000000000
B0806193207375S11655938EA0110801178000000000000
B0806233207329S11655874EA0111301182000000000000
B0806273207260S11655848EA0111401182000000000000
B0806313207189S11655856EA0111401184000000000000
B0806353207135S11655904EA0111401182000000000000
B0806393207120S11655976EA0111301184000000000000
B0806433207141S11656041EA0111201179000000000000
B0806473207185S11656087EA0110901182000000000000
B0806513207237S11656086EA0112101193000000000000
B0806553207269S11656038EA0112701198000000000000
B0806593207254S11655973EA0113101201000000000000
B0807033207198S11655937EA0112801197000000000000
B0807073207128S11655956EA0112101189000000000000
B0807113207083S11656020EA0112001192000000000000
B0807153207079S11656091EA0112501198000000000000
B0807193207109S11656142EA0113001201000000000000
B0807233207160S11656147EA0113001199000000000000
B0807273207198S11656099EA0112701195000000000000
B0807313207194S11656024EA0112601199000000000000
B0807353207143S11655972EA0113201204000000000000
B0807393207077S11655976EA0114101212000000000000
B0807433207034S11656025EA0114101206000000000000
B0807473207031S11656095EA0113201200000000000000
B0807513207059S11656158EA0113001203000000000000
B0807553207107S11656180EA0113801208000000000000
B0807593207154S11656145EA0113701205000000000000
B0808033207172S11656076EA0113301201000000000000
B0808073207147S11655998EA0112501195000000000000
B0808113207095S11655933EA0111901188000000000000
B0808153207026S11655889EA0111401184000000000000
B0808193206949S11655865EA0111001180000000000000
B0808233206870S11655855EA0110801179000000000000
B0808273206790S11655853EA0110601175000000000000
B0808313206708S11655866EA0110601176000000000000
B0808353206634S11655902EA0110901181000000000000
B0808393206572S11655954EA0111301181000000000000
B0808433206526S11656021EA0110601174000000000000
B0808473206484S11656099EA0110001169000000000000
B0808513206455S11656184EA0110601179000000000000
B0808553206450S11656267EA0111601188000000000000
B0808593206463S11656344EA0111501182000000000000
B0809033206483S11656420EA0110801173000000000000
B0809073206506S11656497EA0110101170000000000000
B0809113206535S11656572EA0109901167000000000000
B0809153206567S11656646EA0109601163000000000000
B0809193206605S11656715EA0109001158000000000000
B0809233206649S11656778EA0108501148000000000000
B0809273206702S11656812EA0108301146000000000000
B0809313206758S11656804EA0107101131000000000000
B0809353206804S11656756EA0105501110000000000000
B0809393206821S11656680EA0103801093000000000000
B0809433206810S11656598EA0102201079000000000000
B0809473206779S11656514EA0101201077000000000000
B0809513206739S11656433EA0101101079000000000000
B0809553206682S11656375EA0102801098000000000000
B0809593206617S11656392EA0104601112000000000000
B0810033206595S11656455EA0104301107000000000000
B0810073206617S11656513EA0104001103000000000000
B0810113206662S11656524EA0104101108000000000000
B0810153206691S11656480EA0104301106000000000000
B0810193206671S11656419EA0104101111000000000000
B0810233206613S11656427EA0105201124000000000000
B0810273206589S11656490EA0105501121000000000000
B0810313206619S11656540EA0105301120000000000000
B0810353206663S11656528EA0105101118000000000000
B0810393206678S11656470EA0105001116000000000000
B0810433206650S11656398EA0104401111000000000000
B0810473206596S11656337EA0105301117000000000000
B0810513206533S11656282EA0105901124000000000000
B0810553206458S11656272EA0106501132000000000000
B0810593206401S11656327EA0107101135000000000000
B0811033206405S11656406EA0107601140000000000000
B0811073206439S11656472EA0107201137000000000000
B0811113206493S11656505EA0107301138000000000000
B0811153206541S11656476EA0107701143000000000000
B0811193206543S11656402EA0107601138000000000000
B0811233206502S11656319EA0106001119000000000000
B0811273206429S11656246EA0104801111000000000000
B0811313206342S11656180EA0102901094000000000000
B0811353206247S11656119EA0103201105000000015000
B0811393206202S11656058EA0107301156000000015000
B0811433206232S11656013EA0107601115000000015000
B0811473206312S11656042EA0101501066000000015000
B0811513206389S11656056EA0103401112000000015000
B0811553206414S11655998EA0105601104000000015000
B0811593206341S11655931EA0101601060000000015000
B0812033206257S11655882EA0101201097000000015000
B0812073206245S11655834EA0105901122000000000000
B0812113206293S11655840EA0100201052000000015000
B0812153206379S11655918EA0093701018000000015000
B0812193206462S11655998EA0093501012000000015000
B0812233206537S11656076EA0092801004000000015000
B0812273206608S11656158EA0092400993000000000000
B0812313206673S11656234EA0092900998000000000000
B0812353206709S11656323EA0094801023000000000000
B0812393206671S11656397EA0097701048000000000000
B0812433206597S11656389EA0097601034000000000000
B0812473206557S11656307EA0096401024000000000000
B0812513206558S11656220EA0096901037000000000000
B0812553206585S11656158EA0098201049000000000000
B0812593206628S11656125EA0098901053000000000000
B0813033206678S11656120EA0098901052000000000000
B0813073206725S11656139EA0098401041000000000000
B0813113206764S11656181EA0097401030000000000000
B0813153206800S11656234EA0096201017000000000000
B0813193206855S11656268EA0095101003000000000000
B0813233206921S11656281EA0093300987000000000000
B0813273206990S11656292EA0092300977000000000000
B0813313207059S11656306EA0091500970000000000000
B0813353207126S11656320EA0091400969000000000000
B0813393207194S11656333EA0090900966000000000000
B0813433207259S11656350EA0091000969000000000000
B0813473207320S11656375EA0091300969000000000000
B0813513207377S11656412EA0090900963000000000000
B0813553207430S11656461EA0090400957000000000000
B0813593207482S11656511EA0090200958000000000000
B0814033207536S11656550EA0090500957000000000000
B0814073207598S11656565EA0090400956000000000000
B0814113207657S11656549EA0090800961000000000000
B0814153207705S11656506EA0090800957000000000000
B0814193207754S11656458EA0089600943000000000000
B0814233207813S11656414EA0088700930000000000000
B0814273207879S11656377EA0087600925000000000000
B0814313207943S11656338EA0087400925000000000000
B0814353208004S11656303EA0087400924000000000000
B0814393208069S11656273EA0086900913000000000000
B0814433208138S11656262EA0086400910000000000000
B0814473208205S11656269EA0086400912000000000000
B0814513208270S11656289EA0086600913000000000000
B0814553208330S11656316EA0086500911000000000000
B0814593208390S11656346EA0086100906000000000000
B0815033208446S11656380EA0085800906000000000000
B0815073208495S11656425EA0086100907000000000000
B0815113208542S11656477EA0086200911000000000000
B0815153208593S11656515EA0086400915000000000000
B0815193208637S11656561EA0087200922000000000000
B0815233208645S11656628EA0088500936000000000000
B0815273208594S11656669EA0089500943000000000000
B0815313208537S11656631EA0088800934000000000000
B0815353208533S11656550EA0088200929000000000000
B0815393208578S11656498EA0088500933000000000000
B0815433208633S11656511EA0089000944000000000000
B0815473208664S11656565EA0090000952000000000000
B0815513208659S11656635EA0091000965000000000000
B0815553208615S11656687EA0091600968000000000000
B0815593208546S11656693EA0091800970000000000000
B0816033208496S11656645EA0092400977000000000000
B0816073208502S11656583EA0092800980000000000000
B0816113208547S11656580EA0092600976000000000000
B0816153208559S11656641EA0093000983000000000000
B0816193208512S11656691EA0093500989000000000000
B0816233208448S11656674EA0094300999000000000000
B0816273208418S11656614EA0095001003000000000000
B0816313208431S11656553EA0095101003000000000000
B0816353208477S11656529EA0094901004000000000000
B0816393208519S11656561EA0095701012000000000000
B0816433208516S11656626EA0096301017000000000000
B0816473208468S11656678EA0096701022000000000000
B0816513208400S11656683EA0097201032000000000000
B0816553208335S11656658EA0098001035000000000000
B0816593208270S11656661EA0098301039000000000000
B0817033208229S11656713EA0098401039000000000000
B0817073208226S11656778EA0098201034000000000000
B0817113208259S11656827EA0097501030000000000000
B0817153208307S11656843EA0097201028000000000000
B0817193208356S11656821EA0096701022000000000000
B0817233208395S11656766EA0095901014000000000000
B0817273208413S11656689EA0095701017000000000000
B0817313208390S11656618EA0097201033000000000000
B0817353208325S11656600EA0097901035000000000000
B0817393208283S11656654EA0098501042000000000000
B0817433208305S11656704EA0099101048000000000000
B0817473208350S11656693EA0099401050000000000000
B0817513208339S11656633EA0099901054000000000000
B0817553208274S11656620EA0099901056000000000000
B0817593208227S11656675EA0099801053000000000000
B0818033208236S11656744EA0099801055000000000000
B0818073208288S11656769EA0099801054000000000000
B0818113208331S11656730EA0100201059000000000000
B0818153208317S11656657EA0100601063000000000000
B0818193208249S11656610EA0100001055000000015000
B0818233208152S11656604EA0096901017000000000000
B0818273208036S11656623EA0091900963000000000000
B0818313207909S11656674EA0087500932000000000000
B0818353207793S11656756EA0087000948000000000000
B0818393207742S11656862EA0091801005000000000000
B0818433207779S11656932EA0096401038000000000000
B0818473207833S11656909EA0097901044000000000000
B0818513207843S11656838EA0097901041000000000000
B0818553207792S11656780EA0097901041000000000000
B0818593207714S11656774EA0097601035000000000000
B0819033207636S11656799EA0098001044000000000000
B0819073207616S11656867EA0098801050000000000000
B0819113207662S11656895EA0098601047000000000000
B0819153207696S11656844EA0098701051000000000000
B0819193207681S11656774EA0099601058000000000000
B0819233207628S11656724EA0100101062000000000000
B0819273207562S11656737EA0100301064000000000000
B0819313207534S11656799EA0100701070000000000000
B0819353207558S11656845EA0101001069000000000000
B0819393207602S11656851EA0100601067000000000000
B0819433207638S11656813EA0100701068000000000000
B0819473207657S11656749EA0100801069000000000000
B0819513207657S11656675EA0100701066000000000000
B0819553207620S11656604EA0100001059000000000000
B0819593207549S11656565EA0099401054000000000000
B0820033207475S11656589EA0099101052000000000000
B0820073207432S11656656EA0099201051000000000000
B0820113207429S11656731EA0099001046000000000000
B0820153207460S11656786EA0098801046000000000000
B0820193207512S11656808EA0098401040000000000000
B0820233207571S11656808EA0098301043000000000000
B0820273207607S11656760EA0099901060000000000000
B0820313207580S11656693EA0101001067000000000000
B0820353207514S11656678EA0100901066000000000000
B0820393207456S11656723EA0100301060000000000000
B0820433207443S11656796EA0100101058000000000000
B0820473207469S11656856EA0100201061000000000000
B0820513207515S11656874EA0101101067000000000000
B0820553207550S11656832EA0101201066000000000000
B0820593207534S11656761EA0101201068000000000000
B0821033207473S11656718EA0100901068000000000000
B0821073207401S11656744EA0100701063000000000000
B0821113207362S11656817EA0100601063000000000000
B0821153207371S11656892EA0100601065000000000000
B0821193207414S11656939EA0100801069000000000000
B0821233207468S11656951EA0101101068000000000000
B0821273207518S11656931EA0101001071000000000000
B0821313207551S11656888EA0101401072000000000000
B0821353207568S11656826EA0100901062000000000000
B0821393207609S11656778EA0099601052000000000000
B0821433207668S11656766EA0099201048000000000000
B0821473207731S11656758EA0099101049000000000000
B0821513207792S11656753EA0099501056000000000000
B0821553207850S11656753EA0099901058000000000000
B0821593207909S11656761EA0099601054000000000000
B0822033207966S11656775EA0099601051000000000000
B0822073208022S11656795EA0099401049000000000000
B0822113208075S11656818EA0098901044000000000000
B0822153208130S11656845EA0098301037000000000000
B0822193208183S11656873EA0097601029000000000000
B0822233208239S11656897EA0097001021000000000000
B0822273208298S11656923EA0096101012000000000000
B0822313208357S11656947EA0095601006000000000000
B0822353208416S11656975EA0094600997000000000000
B0822393208476S11657009EA0094100992000000000000
B0822433208535S11657042EA0093100982000000000000
B0822473208600S11657062EA0092400975000000000000
B0822513208667S11657078EA0092000973000000000000
B0822553208729S11657086EA0092500977000000000000
B0822593208789S11657087EA0092500977000000000000
B0823033208849S11657088EA0092000969000000000000
B0823073208911S11657090EA0091100959000000000000
B0823113208977S11657086EA0090600954000000000000
B0823153209042S11657075EA0090100950000000000000
B0823193209107S11657060EA0089600946000000000000
B0823233209169S11657043EA0089600947000000000000
B0823273209228S11657023EA0089200940000000000000
B0823313209288S11657001EA0088400929000000000000
B0823353209353S11656988EA0087200915000000000000
B0823393209421S11657017EA0085500892000000000000
B0823433209477S11657094EA0082700860000000000000
B0823473209525S11657179EA0082400873000000015000
B0823513209572S11657183EA0085600903000000000000
B0823553209568S11657117EA0083000844000000000000
B0823593209474S11657051EA0078200819000000015000
B0824033209408S11657000EA0081300872000000045000
B0824073209417S11656955EA0083400861000000030000
B0824113209477S11656984EA0076500778000000015000
B0824153209549S11657069EA0073500780000000075000
B0824193209609S11657139EA0073700779000000015000
B0824233209669S11657208EA0073200778000000015000
B0824273209724S11657277EA0073500784000000000000
B0824313209763S11657348EA0074200790000000000000
B0824353209778S11657426EA0074600791000000000000
B0824393209756S11657506EA0074900795000000000000
B0824433209699S11657567EA0074900791000000000000
B0824473209625S11657595EA0074300785000000000000
B0824513209544S11657586EA0073600775000000000000
B0824553209470S11657545EA0072300762000000000000
B0824593209400S11657493EA0070100741000000000000
B0825033209327S11657434EA0068500725000000000000
B0825073209252S11657374EA0065900701000000000000
B0825113209174S11657316EA0064100678000000000000
B0825153209094S11657257EA0062400664000000000000
B0825193209018S11657203EA0061100648000000000000
B0825233208938S11657155EA0059300628000000000000
B0825273208860S11657107EA0057500609000000000000
B0825313208784S11657056EA0055500588000000000000
B0825353208710S11657001EA0053600569000000000000
B0825393208642S11656942EA0051800551000000000000
B0825433208574S11656882EA0050100534000000000000
B0825473208504S11656819EA0049300523000000000000
B0825513208435S11656758EA0048600516000000000000
B0825553208370S11656695EA0048100511000000000000
B0825593208305S11656631EA0047500504000000000000
B0826033208240S11656571EA0047000499000000000000
B0826073208171S11656516EA0047000500000000000000
B0826113208104S11656464EA0047600507000000000000
B0826153208039S11656412EA0048200512000000000000
B0826193207979S11656357EA0048000508000000000000
B0826233207919S11656299EA0048100510000000000000
B0826273207862S11656247EA0047800506000000000000
B0826313207804S11656197EA0047200501000000000000
B0826353207744S11656149EA0047000499000000000000
B0826393207684S11656100EA0046800494000000000000
B0826433207627S11656043EA0045700483000000000000
B0826473207570S11655983EA0044700472000000000000
B0826513207511S11655928EA0044200468000000000000
B0826553207446S11655879EA0043900462000000000000
B0826593207373S11655851EA0043100455000000000000
B0827033207297S11655831EA0042100446000000000000
B0827073207220S11655807EA0041300437000000000000
B0827113207142S11655778EA0040300427000000000000
B0827153207063S11655753EA0039500418000000000000
B0827193206979S11655739EA0038900413000000000000
B0827233206899S11655746EA0038700412000000000000
B0827273206819S11655761EA0038800412000000000000
B0827313206740S11655775EA0038800413000000000000
B0827353206661S11655790EA0039100419000000000000
B0827393206589S11655817EA0040100428000000000000
B0827433206531S11655864EA0040300427000000000000
B0827473206479S11655921EA0039800417000000000000
B0827513206442S11655994EA0038400406000000000000
B0827553206426S11656076EA0037500399000000000000
B0827593206426S11656155EA0037100394000000000000
B0828033206445S11656228EA0036700387000000000000
B0828073206478S11656295EA0035800382000000000000
B0828113206518S11656354EA0035100376000000000000
B0828153206561S11656399EA0034800372000000000000
B0828193206605S11656436EA0033900359000000000000
B0828233206653S11656470EA0032300345000000000000
B0828273206699S11656503EA0031200331000000000000
B0828313206744S11656533EA0030100317000000000000
B0828353206792S11656562EA0028700300000000000000
B0828393206842S11656591EA0027000286000000000000
B0828433206892S11656618EA0025700273000000000000
B0828473206943S11656645EA0024200255000000000000
B0828513206996S11656674EA0022500241000000000000
B0828553207047S11656706EA0021200228000000000000
B0828593207096S11656736EA0020200216000000000000
B0829033207144S11656763EA0019200207000000000000
B0829073207189S11656789EA0018800204000000000000
B0829113207225S11656812EA0018800203000000000000
B0829153207252S11656826EA0018800203000000000000
B0829193207273S11656834EA0018900202000000000000
B0829233207289S11656835EA0018800201000000000000
B0829273207300S11656835EA0018900201000000000000
B0829313207310S11656836EA0018700200000000000000
B0829353207313S11656835EA0018800200000000000000
B0829393207313S11656835EA0018800200000000000000
B0829433207313S11656835EA0018900200000000000000
B0829473207313S11656835EA0019000200000000000000
B0829513207313S11656836EA0018800200000000000000
B0829553207313S11656836EA0018900200000000000000
G0003000000F35F6FE30000000000000000000000000000000000000000000000
G11E56ED135D991F2434D382395CCF2A8CA36380F000000009D956E0E61922A8E
G695F85E5B5A7744C8A43919DA8135600400F9200000000000000000053630FD8
