ACAM4N6
HFDTE210521
HFFXA050
HFPLTPILOT:JOHN WELSH              
HFGTYGLIDERTYPE:HORNET      
HFGIDGLIDERID:VH-GMY      
HFDTM100GPSDATUM:
HFRFWFIRMWAREVERSION:F2.6
HFRHWHARDWAREVERSION:300 Series Version 2
HFFTYFRTYPE:CAMBRIDGE AERO INSTRUMENTS, 302+
HFGPS:GARMIN,LVS-25,12,18000
HFPRSPRESSALTSENSOR:INTERSEMA, MS5534-AP, 20000
I033638FXA3941ENL4247REX
LCAMSBVER:5FWVER:F26300
C020521044002020521000101
C0000000N00000000WTAKEOFF     
C3207549S11656849EBEVAIR      
C3255649S11704983ENARRAIR     
C3207549S11656849EBEVAIR      
C0000000N00000000WLANDING     
B0618273207334S11656860EA0018000201000000000000
B0618293207334S11656860EA0017900201000000000000
B0618313207334S11656860EA0018000201000000000000
B0618333207334S11656860EA0018100201000000000000
B0618353207334S11656860EA0018000201000000000000
B0618373207334S11656860EA0017900201000000000000
B0618393207334S11656860EA0018000201000000000000
B0618413207334S11656860EA0018000201000000000000
B0618433207334S11656860EA0018000201000000000000
B0618453207334S11656860EA0018000201000000000000
B0618473207334S11656860EA0018000201000000000000
B0618493207334S11656860EA0018000201000000000000
B0618513207334S11656860EA0018000201000000000000
B0618533207336S11656860EA0018000201000000000000
B0618553207337S11656862EA0018000201000000000000
B0618583207347S11656870EA0018100201000000000000
B0619023207375S11656891EA0018000201000000000000
B0619063207416S11656919EA0018300201000000000000
B0619103207472S11656953EA0018400201000000000000
B0619143207537S11656995EA0018600202000000000000
B0619183207610S11657042EA0018600205000000000000
B0619223207685S11657091EA0019300215000000000000
B0619263207762S11657139EA0020700224000000000000
B0619303207843S11657183EA0021100229000000000000
B0619343207923S11657226EA0021900242000000000000
B0619383208004S11657270EA0022900253000000000000
B0619423208082S11657322EA0024000264000000000000
B0619463208145S11657391EA0025200278000000000000
B0619503208190S11657477EA0026400290000000000000
B0619543208209S11657573EA0027900302000000000000
B0619583208196S11657670EA0028800314000000000000
B0620023208156S11657749EA0029800324000000000000
B0620063208092S11657798EA0030800336000000000000
B0620103208019S11657810EA0032100352000000000000
B0620143207948S11657783EA0033600363000000000000
B0620183207896S11657719EA0034800378000000000000
B0620223207874S11657633EA0036600394000000000000
B0620263207885S11657546EA0038000407000000000000
B0620303207911S11657464EA0039700425000000000000
B0620343207937S11657382EA0040600435000000000000
B0620383207962S11657300EA0041200448000000000000
B0620423207989S11657220EA0042400462000000000000
B0620463208017S11657139EA0044600480000000000000
B0620503208043S11657057EA0045700497000000000000
B0620543208074S11656977EA0047300513000000000000
B0620583208103S11656895EA0048800528000000000000
B0621023208131S11656813EA0050100542000000000000
B0621063208160S11656731EA0051600556000000000000
B0621103208191S11656653EA0052900571000000000000
B0621143208217S11656575EA0054600587000000000000
B0621183208244S11656498EA0056200602000000000000
B0621223208273S11656420EA0057200611000000000000
B0621263208299S11656341EA0058100621000000000000
B0621303208327S11656262EA0059200633000000000000
B0621343208355S11656181EA0060300642000000000000
B0621383208378S11656099EA0061300656000000000000
B0621423208399S11656017EA0062700669000000000000
B0621463208417S11655937EA0063800680000000000000
B0621503208442S11655856EA0065000693000000000000
B0621543208469S11655777EA0066300709000000000000
B0621583208498S11655696EA0068100726000000000000
B0622023208525S11655614EA0069500740000000000000
B0622063208556S11655531EA0071000755000000000000
B0622103208585S11655449EA0072500770000000000000
B0622143208612S11655369EA0074000787000000000000
B0622183208643S11655289EA0075600805000000000000
B0622223208680S11655210EA0076900812000000000000
B0622263208714S11655128EA0077600823000000000000
B0622303208747S11655047EA0079100839000000000000
B0622343208784S11654971EA0080500852000000000000
B0622383208820S11654895EA0081900867000000000000
B0622423208857S11654821EA0083300881000000000000
B0622463208896S11654750EA0084600892000000000000
B0622503208936S11654680EA0085500905000000000000
B0622543208980S11654611EA0086900918000000000000
B0622583209027S11654544EA0087900927000000000000
B0623023209078S11654479EA0088900938000000000000
B0623063209131S11654417EA0090100950000000000000
B0623103209187S11654358EA0091400963000000000000
B0623143209243S11654303EA0092700978000000000000
B0623183209302S11654253EA0094000990000000000000
B0623223209371S11654221EA0095301002000000000000
B0623263209449S11654209EA0096501013000000000000
B0623303209533S11654219EA0097201020000000000000
B0623343209614S11654251EA0097901028000000000000
B0623383209695S11654297EA0098501035000000000000
B0623423209765S11654364EA0099501046000000000000
B0623463209821S11654448EA0100501057000000000000
B0623503209858S11654546EA0101801071000000000000
B0623543209874S11654652EA0102901079000000000000
B0623583209869S11654760EA0103701085000000000000
B0624023209838S11654862EA0104501094000000000000
B0624063209785S11654940EA0105501102000000000000
B0624103209717S11654994EA0106401114000000000000
B0624143209644S11655032EA0107801128000000000000
B0624183209574S11655054EA0108801137000000000000
B0624223209507S11655070EA0108701134000000000000
B0624263209440S11655075EA0108401129000000000000
B0624303209379S11655058EA0107801123000000000000
B0624343209325S11655023EA0107001116000000000000
B0624383209279S11654972EA0106401108000000000000
B0624423209241S11654914EA0105701101000000000000
B0624463209210S11654850EA0105101095000000000000
B0624503209179S11654785EA0104501086000000000000
B0624543209135S11654732EA0104201085000000000000
B0624583209076S11654702EA0103701081000000000000
B0625023209011S11654698EA0103201074000000000000
B0625063208945S11654719EA0102401068000000000000
B0625103208880S11654746EA0102001064000000000000
B0625143208818S11654778EA0101701061000000000000
B0625183208755S11654811EA0101001053000000000000
B0625223208689S11654833EA0100501047000000000000
B0625263208634S11654884EA0100801057000000000000
B0625303208615S11654963EA0101901068000000000000
B0625343208633S11655042EA0102401069000000000000
B0625383208682S11655096EA0102201067000000000000
B0625423208743S11655106EA0102001064000000000000
B0625463208793S11655081EA0101701058000000015000
B0625503208825S11655037EA0101101055000000015000
B0625543208855S11654990EA0100701050000000000000
B0625583208879S11654938EA0100301046000000000000
B0626023208896S11654882EA0099801042000000000000
B0626063208906S11654821EA0099501037000000000000
B0626103208916S11654760EA0099401037000000000000
B0626143208915S11654700EA0099401036000000000000
B0626183208872S11654681EA0099401039000000000000
B0626223208834S11654734EA0099501037000000015000
B0626263208853S11654808EA0099201034000000015000
B0626303208911S11654842EA0098901032000000015000
B0626343208967S11654820EA0098501026000000015000
B0626383208993S11654764EA0098201021000000030000
B0626423208974S11654709EA0098101021000000030000
B0626463208923S11654690EA0097801018000000030000
B0626503208868S11654724EA0097401015000000030000
B0626543208851S11654803EA0097301014000000015000
B0626583208892S11654869EA0097301017000000015000
B0627023208953S11654890EA0097701018000000015000
B0627063209000S11654859EA0097601015000000015000
B0627103209002S11654804EA0097201011000000030000
B0627143208957S11654785EA0096901008000000015000
B0627183208907S11654823EA0096501007000000015000
B0627223208872S11654886EA0096401005000000015000
B0627263208868S11654964EA0096401005000000015000
B0627303208897S11655034EA0096701007000000015000
B0627343208959S11655057EA0096100995000000015000
B0627383209013S11655021EA0095100990000000015000
B0627423209037S11654960EA0094700989000000015000
B0627463209044S11654895EA0094500985000000015000
B0627503209013S11654852EA0094300985000000015000
B0627543208964S11654834EA0094000981000000015000
B0627583208925S11654797EA0093400973000000015000
B0628023208903S11654741EA0092700965000000015000
B0628063208902S11654677EA0092000960000000015000
B0628103208925S11654617EA0091700959000000000000
B0628143208974S11654582EA0091600958000000000000
B0628183209040S11654589EA0091200952000000015000
B0628223209098S11654638EA0090500943000000015000
B0628263209135S11654715EA0089600938000000015000
B0628303209145S11654798EA0089200935000000000000
B0628343209128S11654875EA0089400938000000000000
B0628383209100S11654942EA0089600937000000000000
B0628423209055S11654992EA0089500936000000000000
B0628463209000S11654995EA0089300934000000000000
B0628503208958S11654959EA0088900928000000000000
B0628543208937S11654901EA0088100922000000000000
B0628583208940S11654837EA0087600918000000000000
B0629023208970S11654786EA0087400916000000000000
B0629063209032S11654790EA0086900910000000015000
B0629103209079S11654850EA0086200906000000015000
B0629143209091S11654930EA0085800900000000015000
B0629183209072S11655006EA0085700900000000000000
B0629223209046S11655073EA0086000903000000000000
B0629263209010S11655129EA0085700896000000000000
B0629303208958S11655153EA0085000889000000000000
B0629343208906S11655140EA0084400883000000000000
B0629383208870S11655096EA0083900879000000015000
B0629423208847S11655041EA0083500875000000000000
B0629463208828S11654982EA0082900867000000000000
B0629503208807S11654921EA0081900858000000000000
B0629543208784S11654858EA0081300847000000000000
B0629583208753S11654797EA0080500842000000000000
B0630023208717S11654739EA0079900835000000000000
B0630063208689S11654676EA0079300832000000000000
B0630103208676S11654608EA0079200834000000000000
B0630143208677S11654544EA0079400835000000000000
B0630183208693S11654483EA0079200831000000000000
B0630223208725S11654429EA0078500824000000000000
B0630263208763S11654375EA0077700816000000000000
B0630303208811S11654332EA0077400815000000000000
B0630343208871S11654316EA0077500816000000000000
B0630383208932S11654335EA0077300812000000000000
B0630423208985S11654388EA0076700805000000000000
B0630463209014S11654462EA0076200800000000000000
B0630503209006S11654546EA0075300790000000000000
B0630543208979S11654624EA0074300779000000000000
B0630583208964S11654704EA0074000777000000000000
B0631023208980S11654785EA0073700772000000000000
B0631063209002S11654865EA0073100767000000000000
B0631103209011S11654949EA0072800763000000000000
B0631143209006S11655029EA0072400760000000000000
B0631183208993S11655109EA0072300758000000000000
B0631223208975S11655185EA0071800753000000000000
B0631263208948S11655258EA0071600749000000000000
B0631303208912S11655324EA0071100746000000000000
B0631343208873S11655387EA0070900743000000000000
B0631383208834S11655445EA0070700743000000000000
B0631423208793S11655500EA0070800743000000000000
B0631463208746S11655544EA0070500738000000000000
B0631503208694S11655584EA0070500740000000000000
B0631543208654S11655640EA0071000745000000000000
B0631583208673S11655708EA0071200744000000000000
B0632023208730S11655710EA0071100745000000000000
B0632063208762S11655656EA0071200745000000015000
B0632103208737S11655601EA0071400749000000015000
B0632143208685S11655617EA0072000757000000015000
B0632183208676S11655688EA0072500756000000015000
B0632223208727S11655729EA0072400757000000015000
B0632263208784S11655703EA0072400758000000015000
B0632303208790S11655639EA0072600760000000015000
B0632343208750S11655599EA0072900763000000030000
B0632383208704S11655634EA0073500767000000015000
B0632423208725S11655700EA0074000776000000015000
B0632463208782S11655697EA0074500775000000015000
B0632503208807S11655642EA0074500779000000030000
B0632543208788S11655590EA0074500774000000030000
B0632583208737S11655575EA0073900770000000030000
B0633023208690S11655617EA0073400762000000015000
B0633063208675S11655691EA0072700753000000015000
B0633103208686S11655768EA0072800756000000015000
B0633143208738S11655799EA0073600765000000015000
B0633183208773S11655755EA0073900766000000015000
B0633223208745S11655705EA0074000768000000015000
B0633263208699S11655747EA0074200772000000030000
B0633303208723S11655820EA0074400777000000015000
B0633343208784S11655826EA0074700782000000015000
B0633383208803S11655765EA0074800777000000015000
B0633423208759S11655722EA0074500781000000030000
B0633463208706S11655751EA0075300791000000030000
B0633503208690S11655825EA0075600788000000015000
B0633543208727S11655892EA0075600790000000015000
B0633583208785S11655890EA0076100790000000015000
B0634023208807S11655827EA0075800788000000015000
B0634063208775S11655774EA0076300800000000015000
B0634103208723S11655786EA0077800814000000030000
B0634143208701S11655846EA0078300814000000015000
B0634183208728S11655911EA0077600805000000015000
B0634223208788S11655917EA0077700814000000015000
B0634263208821S11655866EA0078200810000000015000
B0634303208793S11655813EA0078100814000000015000
B0634343208734S11655838EA0078600822000000015000
B0634383208723S11655913EA0079100830000000015000
B0634423208769S11655959EA0080000842000000015000
B0634463208825S11655941EA0080400840000000015000
B0634503208847S11655877EA0079700832000000015000
B0634543208808S11655827EA0079800836000000015000
B0634583208746S11655835EA0079800831000000030000
B0635023208706S11655898EA0079300828000000015000
B0635063208712S11655980EA0079100830000000015000
B0635103208740S11656054EA0079500835000000015000
B0635143208793S11656065EA0080900846000000015000
B0635183208829S11656019EA0080800838000000015000
B0635223208818S11655957EA0080600846000000030000
B0635263208768S11655961EA0081500850000000030000
B0635303208753S11656026EA0081700852000000015000
B0635343208801S11656064EA0081900858000000015000
B0635383208841S11656022EA0082100857000000015000
B0635423208816S11655965EA0081800855000000030000
B0635463208758S11655976EA0082200863000000030000
B0635503208733S11656045EA0082500865000000015000
B0635543208771S11656102EA0083000872000000015000
B0635583208825S11656087EA0083700874000000015000
B0636023208836S11656028EA0083500872000000015000
B0636063208788S11656003EA0083900880000000030000
B0636103208746S11656050EA0084400881000000030000
B0636143208756S11656121EA0084300883000000015000
B0636183208810S11656147EA0084800890000000015000
B0636223208837S11656098EA0084900887000000015000
B0636263208794S11656060EA0084800889000000030000
B0636303208745S11656093EA0085200890000000030000
B0636343208749S11656165EA0084900886000000015000
B0636383208788S11656225EA0085100887000000015000
B0636423208849S11656232EA0084300878000000015000
B0636463208890S11656178EA0083700876000000015000
B0636503208893S11656112EA0084400884000000030000
B0636543208844S11656102EA0085300892000000030000
B0636583208829S11656171EA0085100885000000030000
B0637023208881S11656214EA0085300890000000015000
B0637063208931S11656181EA0085200883000000030000
B0637103208923S11656115EA0084800877000000015000
B0637143208866S11656097EA0084600881000000015000
B0637183208815S11656141EA0084400877000000015000
B0637223208810S11656219EA0083700874000000015000
B0637263208837S11656295EA0083700874000000000000
B0637303208892S11656340EA0083600872000000000000
B0637343208953S11656320EA0082800864000000015000
B0637383208981S11656258EA0082100859000000015000
B0637423208972S11656186EA0082000857000000015000
B0637463208951S11656119EA0081300847000000015000
B0637503208915S11656054EA0079900834000000000000
B0637543208877S11655987EA0079300836000000000000
B0637583208844S11655918EA0079200834000000000000
B0638023208810S11655848EA0078700826000000000000
B0638063208771S11655781EA0077900822000000000000
B0638103208729S11655716EA0077400818000000000000
B0638143208678S11655661EA0077400817000000000000
B0638183208620S11655626EA0077400816000000000000
B0638223208555S11655632EA0077600823000000000000
B0638263208498S11655666EA0077800822000000000000
B0638303208448S11655717EA0077600820000000000000
B0638343208405S11655774EA0077400819000000000000
B0638383208369S11655834EA0077400818000000000000
B0638423208335S11655898EA0077000811000000000000
B0638463208301S11655965EA0076400805000000000000
B0638503208270S11656034EA0076300806000000000000
B0638543208242S11656103EA0076400808000000000000
B0638583208220S11656173EA0076100803000000000000
B0639023208196S11656245EA0075700800000000000000
B0639063208174S11656318EA0075600798000000000000
B0639103208177S11656392EA0075500798000000000000
B0639143208223S11656432EA0075400794000000000000
B0639183208272S11656411EA0074800787000000000000
B0639223208281S11656354EA0074300780000000015000
B0639263208248S11656302EA0073800773000000015000
B0639303208201S11656263EA0073300770000000000000
B0639343208157S11656221EA0072900763000000000000
B0639383208110S11656177EA0071900751000000000000
B0639423208053S11656145EA0070800743000000000000
B0639463207989S11656142EA0070500741000000000000
B0639503207928S11656164EA0070300739000000000000
B0639543207874S11656204EA0070000734000000000000
B0639583207826S11656256EA0069700734000000000000
B0640023207780S11656311EA0069300727000000000000
B0640063207736S11656368EA0068800722000000000000
B0640103207690S11656424EA0068400720000000000000
B0640143207645S11656474EA0068300720000000000000
B0640183207593S11656501EA0068400720000000000000
B0640223207540S11656498EA0068000715000000000000
B0640263207492S11656477EA0067300708000000000000
B0640303207450S11656442EA0066700702000000000000
B0640343207410S11656401EA0066100692000000000000
B0640383207376S11656351EA0065200686000000000000
B0640423207350S11656295EA0064500676000000000000
B0640463207330S11656230EA0063600671000000000000
B0640503207312S11656163EA0063400669000000000000
B0640543207284S11656100EA0063500669000000000000
B0640583207238S11656059EA0063500668000000000000
B0641023207189S11656095EA0064000677000000000000
B0641063207198S11656169EA0063800669000000000000
B0641103207255S11656208EA0063100665000000000000
B0641143207316S11656201EA0062700665000000000000
B0641183207359S11656155EA0063000666000000015000
B0641223207365S11656091EA0062800662000000015000
B0641263207323S11656059EA0062500659000000015000
B0641303207289S11656110EA0062500662000000015000
B0641343207316S11656171EA0062500655000000015000
B0641383207375S11656195EA0061600650000000000000
B0641423207436S11656212EA0061500649000000000000
B0641463207497S11656208EA0061200644000000000000
B0641503207546S11656168EA0060500638000000000000
B0641543207571S11656107EA0059900634000000000000
B0641583207581S11656045EA0059800633000000000000
B0642023207577S11655981EA0059600629000000000000
B0642063207550S11655929EA0059200627000000000000
B0642103207510S11655891EA0058800622000000000000
B0642143207468S11655853EA0058500617000000000000
B0642183207429S11655811EA0058000612000000000000
B0642223207378S11655791EA0057900612000000000000
B0642263207325S11655816EA0057600607000000000000
B0642303207304S11655887EA0057000598000000000000
B0642343207320S11655963EA0056100593000000000000
B0642383207359S11656026EA0055900594000000000000
B0642423207407S11656074EA0056200598000000000000
B0642463207464S11656085EA0056500596000000000000
B0642503207525S11656089EA0055500584000000000000
B0642543207585S11656110EA0054800578000000000000
B0642583207642S11656147EA0054300574000000000000
B0643023207696S11656193EA0054100572000000000000
B0643063207748S11656242EA0054000570000000000000
B0643103207798S11656288EA0053700567000000000000
B0643143207850S11656331EA0053200560000000000000
B0643183207897S11656379EA0052500553000000000000
B0643223207940S11656436EA0051700548000000000000
B0643263207978S11656494EA0051400545000000000000
B0643303208014S11656552EA0051000540000000000000
B0643343208057S11656604EA0050600536000000000000
B0643383208099S11656659EA0050000528000000000000
B0643423208125S11656726EA0049300519000000000000
B0643463208135S11656799EA0048500510000000000000
B0643503208131S11656875EA0047200496000000000000
B0643543208118S11656952EA0046100485000000000000
B0643583208100S11657031EA0045000475000000000000
B0644023208080S11657109EA0044700477000000000000
B0644063208057S11657181EA0045100480000000000000
B0644103208043S11657251EA0045500483000000000000
B0644143208070S11657311EA0045500482000000000000
B0644183208122S11657309EA0045000470000000000000
B0644223208135S11657252EA0044100466000000000000
B0644263208100S11657205EA0043600460000000000000
B0644303208047S11657181EA0043200460000000000000
B0644343207991S11657160EA0043100457000000000000
B0644383207932S11657144EA0042100444000000000000
B0644423207869S11657146EA0041300438000000000000
B0644463207805S11657172EA0040600432000000000000
B0644503207744S11657212EA0040000427000000000000
B0644543207690S11657257EA0040100431000000000000
B0644583207644S11657307EA0040300433000000000000
B0645023207598S11657359EA0040500432000000000000
B0645063207555S11657413EA0040400432000000000000
B0645103207514S11657472EA0040100429000000000000
B0645143207467S11657521EA0039700424000000000000
B0645183207411S11657553EA0039400421000000000000
B0645223207354S11657553EA0039100415000000000000
B0645263207302S11657524EA0038600407000000000000
B0645303207252S11657488EA0037700401000000000000
B0645343207200S11657454EA0037000393000000000000
B0645383207147S11657423EA0036400389000000000000
B0645423207094S11657398EA0036000386000000000000
B0645463207040S11657377EA0035800383000000000000
B0645503206987S11657358EA0035300379000000000000
B0645543206934S11657335EA0035000376000000000000
B0645583206882S11657306EA0034800374000000000000
B0646023206832S11657269EA0034500370000000000000
B0646063206782S11657231EA0034000363000000000000
B0646103206732S11657190EA0033600362000000000000
B0646143206686S11657146EA0033400358000000000000
B0646183206640S11657098EA0032600350000000000000
B0646223206598S11657043EA0032100345000000000000
B0646263206569S11656982EA0031900344000000000000
B0646303206543S11656917EA0031600340000000000000
B0646343206522S11656851EA0031100332000000000000
B0646383206506S11656780EA0030400327000000000000
B0646423206498S11656709EA0030000323000000000000
B0646463206493S11656636EA0029600319000000000000
B0646503206497S11656562EA0029200315000000000000
B0646543206535S11656501EA0029100316000000000000
B0646583206596S11656479EA0029000315000000000000
B0647023206658S11656494EA0028600309000000000000
B0647063206717S11656520EA0027900297000000000000
B0647103206773S11656549EA0026600286000000000000
B0647143206827S11656579EA0025500274000000000000
B0647183206882S11656609EA0024200261000000000000
B0647223206936S11656640EA0022800247000000000000
B0647263206992S11656675EA0021600234000000000000
B0647303207047S11656706EA0020300222000000000000
B0647343207100S11656739EA0019200209000000000000
B0647383207151S11656769EA0018500203000000000000
B0647423207195S11656793EA0018300203000000000000
B0647463207232S11656814EA0018200203000000000000
B0647503207260S11656828EA0018300203000000000000
B0647543207282S11656835EA0018300203000000000000
B0647583207295S11656835EA0018200202000000000000
B0648023207300S11656835EA0018300202000000000000
B0648063207300S11656835EA0018300202000000000000
B0648103207300S11656835EA0018300203000000000000
B0648143207299S11656835EA0018300203000000000000
B0648183207299S11656835EA0018200203000000000000
B0648223207299S11656835EA0018200203000000000000
B0648263207299S11656835EA0018300203000000000000
G000300000079FC8E770000000000000000000000000000000000000000000000
GA90912994E46D3C1D30AB63115762CE529C57D6400000000F63453AABC590973
G593F20AC40FAA25A3C536F3F8AA38C2CD5E3E30C0000000000000000E5936EAB
