ACAM4N6
HFDTE300121
HFFXA050
HFPLTPILOT:JOHN WELSH              
HFGTYGLIDERTYPE:HORNET      
HFGIDGLIDERID:VH-GMY      
HFDTM100GPSDATUM:
HFRFWFIRMWAREVERSION:F2.6
HFRHWHARDWAREVERSION:300 Series Version 2
HFFTYFRTYPE:CAMBRIDGE AERO INSTRUMENTS, 302+
HFGPS:GARMIN,LVS-25,12,18000
HFPRSPRESSALTSENSOR:INTERSEMA, MS5534-AP, 20000
I033638FXA3941ENL4247REX
LCAMSBVER:5FWVER:F26300
C300121035130300121000102
C0000000N00000000WTAKEOFF     
C3207549S11656849EBEVAIR      
C3110882S11723216EWyalkatchem 
C3152966S11809466EBruce Rock  
C3207549S11656849EBEVAIR      
C0000000N00000000WLANDING     
B0357053207332S11656856EA0021200210000000000000
B0357073207332S11656856EA0021100210000000000000
B0357093207332S11656856EA0021100210000000000000
B0357113207332S11656856EA0021200210000000000000
B0357133207332S11656856EA0021200210000000000000
B0357153207332S11656856EA0021200210000000000000
B0357173207332S11656856EA0021200210000000000000
B0357193207332S11656856EA0021200210000000000000
B0357213207332S11656856EA0021200210000000000000
B0357233207332S11656856EA0021200210000000000000
B0357253207332S11656856EA0021200210000000000000
B0357273207332S11656856EA0021200210000000000000
B0357293207332S11656856EA0021200210000000000000
B0357313207333S11656856EA0021200210000000000000
B0357333207334S11656857EA0021200210000000000000
B0357363207342S11656866EA0021300210000000000000
B0357403207365S11656888EA0021300209000000000000
B0357443207404S11656913EA0021500209000000000000
B0357483207454S11656944EA0021500210000000000000
B0357523207507S11656978EA0022100218000000000000
B0357563207558S11657012EA0023100232000000000000
B0358003207610S11657046EA0023700245000000000000
B0358043207663S11657079EA0025300262000000000000
B0358083207716S11657113EA0026800280000000000000
B0358123207767S11657143EA0028900305000000000000
B0358163207817S11657177EA0031300331000000000000
B0358203207862S11657217EA0033700353000000000000
B0358243207874S11657282EA0036000374000000000000
B0358283207839S11657343EA0038000396000000000000
B0358323207772S11657377EA0039900416000000000000
B0358363207692S11657359EA0041800432000000000000
B0358403207622S11657290EA0043100440000000000000
B0358443207585S11657194EA0044400461000000015000
B0358483207586S11657091EA0045800470000000015000
B0358523207623S11657008EA0046700480000000015000
B0358563207675S11656951EA0048500504000000015000
B0359003207736S11656934EA0051000531000000015000
B0359043207793S11656951EA0053200552000000000000
B0359083207841S11656988EA0054900562000000000000
B0359123207871S11657044EA0055700569000000000000
B0359163207878S11657107EA0056400580000000000000
B0359203207867S11657169EA0057900597000000000000
B0359243207848S11657231EA0059700613000000000000
B0359283207815S11657294EA0060900624000000000000
B0359323207778S11657355EA0061800634000000000000
B0359363207742S11657415EA0063200654000000000000
B0359403207706S11657476EA0064600667000000000000
B0359443207671S11657540EA0065700678000000000000
B0359483207636S11657601EA0067200697000000000000
B0359523207607S11657660EA0069300719000000000000
B0359563207581S11657724EA0071100736000000000000
B0400003207557S11657788EA0072700751000000000000
B0400043207523S11657846EA0074200768000000000000
B0400083207472S11657894EA0076200788000000000000
B0400123207407S11657931EA0078000805000000000000
B0400163207341S11657950EA0080100827000000000000
B0400203207311S11657989EA0081100833000000000000
B0400243207342S11658006EA0081500836000000000000
B0400283207384S11657954EA0081200833000000000000
B0400323207378S11657866EA0081100833000000000000
B0400363207337S11657790EA0081200831000000000000
B0400403207272S11657767EA0080300817000000000000
B0400443207225S11657798EA0079500814000000000000
B0400483207208S11657850EA0079300816000000000000
B0400523207203S11657904EA0079100810000000000000
B0400563207212S11657958EA0078500804000000000000
B0401003207224S11658013EA0078100803000000000000
B0401043207226S11658070EA0078100802000000000000
B0401083207228S11658127EA0077800795000000000000
B0401123207230S11658187EA0077200792000000000000
B0401163207232S11658245EA0077100790000000000000
B0401203207237S11658304EA0076400782000000000000
B0401243207248S11658361EA0075500770000000000000
B0401283207300S11658382EA0075500773000000000000
B0401323207360S11658347EA0075100765000000000000
B0401363207402S11658270EA0073700745000000000000
B0401403207427S11658173EA0071700731000000000000
B0401443207454S11658074EA0070800723000000000000
B0401483207471S11657975EA0071400733000000000000
B0401523207430S11657888EA0072300744000000000000
B0401563207367S11657880EA0073500759000000015000
B0402003207368S11657932EA0074100755000000015000
B0402043207427S11657927EA0074300768000000015000
B0402083207456S11657853EA0076000784000000015000
B0402123207432S11657777EA0077600803000000015000
B0402163207377S11657761EA0078700807000000015000
B0402203207362S11657801EA0078800807000000015000
B0402243207403S11657820EA0078700810000000000000
B0402283207453S11657768EA0079200812000000000000
B0402323207436S11657684EA0079100810000000015000
B0402363207373S11657675EA0080200827000000015000
B0402403207372S11657723EA0081200835000000015000
B0402443207423S11657720EA0081800842000000015000
B0402483207453S11657645EA0082500848000000015000
B0402523207406S11657575EA0083100853000000015000
B0402563207347S11657594EA0083900864000000000000
B0403003207362S11657642EA0084600870000000000000
B0403043207419S11657619EA0085100875000000015000
B0403083207425S11657530EA0086200892000000015000
B0403123207377S11657463EA0087900908000000015000
B0403163207319S11657460EA0088800915000000015000
B0403203207302S11657508EA0088800912000000000000
B0403243207349S11657529EA0089300922000000000000
B0403283207401S11657480EA0089900929000000015000
B0403323207389S11657393EA0091500949000000015000
B0403363207329S11657367EA0093200964000000015000
B0403403207310S11657408EA0094100970000000000000
B0403443207352S11657426EA0094700976000000000000
B0403483207401S11657377EA0095200983000000000000
B0403523207389S11657295EA0096701004000000015000
B0403563207334S11657259EA0098301015000000000000
B0404003207300S11657287EA0099001019000000000000
B0404043207330S11657319EA0099401021000000000000
B0404083207388S11657281EA0099301022000000000000
B0404123207388S11657192EA0101101049000000000000
B0404163207338S11657146EA0102901062000000000000
B0404203207297S11657165EA0103401065000000000000
B0404243207304S11657207EA0103601065000000000000
B0404283207356S11657207EA0103501068000000000000
B0404323207394S11657142EA0104601083000000000000
B0404363207375S11657062EA0105701093000000015000
B0404403207323S11657040EA0106701101000000000000
B0404443207312S11657082EA0107101103000000000000
B0404483207362S11657087EA0107201107000000000000
B0404523207384S11657010EA0108401125000000000000
B0404563207337S11656956EA0109701132000000000000
B0405003207303S11656982EA0110001132000000000000
B0405043207333S11657014EA0109901131000000000000
B0405083207382S11656982EA0110401144000000000000
B0405123207401S11656904EA0111601153000000015000
B0405163207375S11656830EA0112101154000000000000
B0405203207320S11656812EA0112401157000000000000
B0405243207298S11656852EA0112401158000000000000
B0405283207332S11656874EA0113301167000000000000
B0405323207368S11656809EA0112601159000000000000
B0405363207336S11656727EA0112801169000000000000
B0405403207280S11656724EA0113801174000000000000
B0405443207281S11656770EA0114401180000000000000
B0405483207330S11656770EA0114601175000000000000
B0405523207365S11656697EA0114201178000000000000
B0405563207338S11656619EA0114801184000000000000
B0406003207280S11656602EA0115101186000000000000
B0406043207252S11656643EA0115601191000000000000
B0406083207281S11656679EA0116001193000000000000
B0406123207336S11656658EA0115501185000000000000
B0406163207365S11656578EA0115201186000000000000
B0406203207378S11656484EA0115301186000000000000
B0406243207358S11656396EA0115201184000000000000
B0406283207298S11656342EA0115101186000000000000
B0406323207230S11656333EA0115501191000000000000
B0406363207189S11656371EA0115801189000000000000
B0406403207186S11656429EA0115301186000000000000
B0406443207194S11656488EA0115401188000000000000
B0406483207195S11656548EA0115201184000000000000
B0406523207198S11656607EA0115901196000000000000
B0406563207237S11656635EA0117401213000000000000
B0407003207280S11656583EA0118101213000000000000
B0407043207269S11656493EA0118201220000000000000
B0407083207213S11656454EA0120001239000000000000
B0407123207177S11656484EA0120901243000000000000
B0407163207206S11656513EA0121601253000000000000
B0407203207254S11656476EA0121901254000000000000
B0407243207267S11656392EA0122001259000000000000
B0407283207224S11656325EA0123101275000000000000
B0407323207170S11656323EA0124201275000000000000
B0407363207155S11656364EA0124001277000000000000
B0407403207194S11656375EA0124901285000000000000
B0407443207234S11656314EA0125001284000000000000
B0407483207226S11656221EA0125401296000000000000
B0407523207172S11656178EA0126601301000000000000
B0407563207135S11656210EA0125901289000000000000
B0408003207165S11656243EA0125501296000000000000
B0408043207217S11656215EA0126701307000000000000
B0408083207233S11656134EA0127301311000000015000
B0408123207190S11656068EA0127801316000000015000
B0408163207134S11656074EA0127901309000000000000
B0408203207121S11656128EA0126501294000000000000
B0408243207133S11656197EA0125001281000000000000
B0408283207152S11656275EA0123801272000000000000
B0408323207180S11656363EA0122601263000000000000
B0408363207212S11656450EA0123001275000000000000
B0408403207251S11656533EA0124201283000000000000
B0408443207285S11656615EA0124301293000000000000
B0408483207304S11656701EA0125601301000000000000
B0408523207315S11656791EA0125501285000000000000
B0408563207326S11656893EA0122701250000000000000
B0409003207386S11656955EA0124301301000000015000
B0409043207436S11656895EA0129801352000000015000
B0409083207403S11656815EA0132201367000000015000
B0409123207337S11656802EA0133501378000000015000
B0409163207300S11656847EA0133801377000000015000
B0409203207320S11656903EA0133901381000000015000
B0409243207372S11656916EA0135601402000000015000
B0409283207407S11656852EA0137601420000000015000
B0409323207382S11656774EA0138101426000000015000
B0409363207321S11656760EA0138901438000000015000
B0409403207298S11656805EA0140101447000000015000
B0409443207339S11656817EA0141301458000000015000
B0409483207371S11656747EA0141801466000000015000
B0409523207339S11656670EA0142801476000000015000
B0409563207280S11656663EA0144101489000000015000
B0410003207258S11656710EA0144901494000000000000
B0410043207300S11656722EA0145901507000000015000
B0410083207329S11656652EA0146201509000000015000
B0410123207293S11656576EA0146901522000000015000
B0410163207233S11656566EA0148201530000000015000
B0410203207204S11656610EA0148501532000000000000
B0410243207238S11656641EA0149001540000000000000
B0410283207285S11656607EA0149801551000000000000
B0410323207291S11656529EA0150501555000000015000
B0410363207242S11656477EA0151101564000000015000
B0410403207189S11656492EA0151801564000000000000
B0410443207181S11656542EA0151801566000000000000
B0410483207217S11656571EA0152101568000000000000
B0410523207271S11656572EA0151801563000000000000
B0410563207328S11656576EA0150901553000000000000
B0411003207386S11656585EA0150501552000000000000
B0411043207447S11656597EA0149301536000000000000
B0411083207511S11656607EA0148001523000000000000
B0411123207576S11656618EA0147301517000000000000
B0411163207641S11656624EA0146601510000000000000
B0411203207705S11656640EA0145901503000000000000
B0411243207766S11656663EA0145101493000000000000
B0411283207798S11656722EA0144501489000000000000
B0411323207783S11656792EA0143501475000000000000
B0411363207728S11656851EA0142101462000000000000
B0411403207657S11656892EA0141501458000000000000
B0411443207577S11656918EA0141501461000000000000
B0411483207495S11656940EA0141201454000000000000
B0411523207414S11656961EA0140301443000000000000
B0411563207330S11656981EA0139201432000000000000
B0412003207247S11657001EA0138201421000000000000
B0412043207168S11657025EA0137601419000000000000
B0412083207090S11657049EA0137301415000000000000
B0412123207013S11657075EA0137301417000000000000
B0412163206938S11657104EA0137601420000000000000
B0412203206861S11657135EA0138401434000000000000
B0412243206790S11657168EA0139401440000000000000
B0412283206715S11657200EA0138801427000000000000
B0412323206639S11657235EA0137901418000000000000
B0412363206562S11657268EA0137101411000000000000
B0412403206484S11657302EA0136201401000000000000
B0412443206405S11657333EA0135601396000000000000
B0412483206322S11657360EA0135401395000000000000
B0412523206238S11657384EA0134801385000000000000
B0412563206154S11657406EA0133301370000000000000
B0413003206069S11657428EA0132201362000000000000
B0413043205985S11657447EA0131801358000000000000
B0413083205902S11657465EA0132001367000000000000
B0413123205821S11657491EA0133801384000000000000
B0413163205791S11657547EA0135901410000000000000
B0413203205831S11657579EA0137601421000000000000
B0413243205891S11657545EA0138601435000000000000
B0413283205929S11657467EA0140601457000000015000
B0413323205893S11657393EA0142501473000000015000
B0413363205829S11657391EA0143401477000000015000
B0413403205807S11657443EA0143601479000000000000
B0413443205844S11657486EA0144201490000000000000
B0413483205908S11657452EA0146301515000000015000
B0413523205921S11657363EA0148001529000000015000
B0413563205867S11657307EA0148801540000000015000
B0414003205815S11657334EA0149901551000000015000
B0414043205824S11657386EA0151301570000000000000
B0414083205878S11657384EA0153401591000000015000
B0414123205916S11657317EA0155001600000000015000
B0414163205895S11657233EA0155501608000000015000
B0414203205835S11657200EA0156801623000000015000
B0414243205790S11657229EA0158001630000000000000
B0414283205799S11657277EA0159001646000000000000
B0414323205848S11657272EA0161101670000000000000
B0414363205873S11657202EA0162201674000000015000
B0414403205839S11657127EA0162801685000000015000
B0414443205779S11657100EA0164001700000000000000
B0414483205739S11657126EA0164901701000000000000
B0414523205738S11657178EA0165101710000000000000
B0414563205779S11657196EA0166901729000000000000
B0415003205826S11657151EA0168401739000000015000
B0415043205822S11657069EA0168901744000000015000
B0415083205766S11657026EA0169301745000000015000
B0415123205716S11657053EA0169501748000000000000
B0415163205714S11657105EA0170501763000000000000
B0415203205763S11657111EA0171601770000000015000
B0415243205796S11657039EA0172101775000000015000
B0415283205761S11656965EA0172501779000000015000
B0415323205695S11656951EA0172801786000000015000
B0415363205661S11656991EA0174001799000000000000
B0415403205696S11657018EA0175201810000000000000
B0415443205746S11656975EA0175901814000000015000
B0415483205742S11656888EA0176601828000000015000
B0415523205687S11656848EA0177601835000000015000
B0415563205642S11656875EA0178201837000000000000
B0416003205651S11656925EA0178501841000000000000
B0416043205703S11656934EA0178401836000000000000
B0416083205751S11656875EA0177501828000000000000
B0416123205750S11656778EA0177201829000000000000
B0416163205703S11656701EA0178001841000000000000
B0416203205638S11656685EA0178801845000000000000
B0416243205594S11656726EA0179101850000000000000
B0416283205566S11656783EA0179101849000000000000
B0416323205539S11656844EA0179101849000000000000
B0416363205508S11656905EA0178501837000000000000
B0416403205458S11656962EA0177301825000000000000
B0416443205397S11657013EA0176001811000000000000
B0416483205326S11657060EA0174601798000000000000
B0416523205250S11657104EA0173901792000000000000
B0416563205172S11657146EA0173301786000000000000
B0417003205094S11657189EA0172401770000000000000
B0417043205015S11657235EA0170901756000000000000
B0417083204936S11657282EA0169701748000000000000
B0417123204854S11657325EA0168901736000000000000
B0417163204773S11657364EA0168301735000000000000
B0417203204697S11657399EA0168101730000000000000
B0417243204621S11657434EA0167001721000000000000
B0417283204547S11657465EA0166301712000000000000
B0417323204470S11657494EA0165901709000000000000
B0417363204395S11657520EA0165401700000000000000
B0417403204317S11657546EA0164101688000000000000
B0417443204243S11657573EA0163501684000000000000
B0417483204169S11657602EA0163701689000000000000
B0417523204096S11657632EA0163701686000000000000
B0417563204022S11657664EA0163101682000000000000
B0418003203948S11657692EA0162901679000000000000
B0418043203871S11657720EA0162401672000000000000
B0418083203794S11657754EA0161901669000000000000
B0418123203722S11657790EA0161501664000000000000
B0418163203647S11657828EA0160801660000000000000
B0418203203572S11657863EA0160601658000000000000
B0418243203498S11657894EA0160301653000000000000
B0418283203421S11657923EA0159601646000000000000
B0418323203345S11657952EA0159301643000000000000
B0418363203269S11657978EA0159101641000000000000
B0418403203195S11658001EA0158701634000000000000
B0418443203120S11658023EA0158001628000000000000
B0418483203044S11658044EA0157801627000000000000
B0418523202970S11658065EA0157501621000000000000
B0418563202895S11658083EA0156801615000000000000
B0419003202819S11658102EA0156201609000000000000
B0419043202743S11658125EA0155401600000000000000
B0419083202666S11658148EA0154701593000000000000
B0419123202589S11658171EA0154201587000000000000
B0419163202514S11658196EA0153701582000000000000
B0419203202440S11658219EA0153101576000000000000
B0419243202366S11658244EA0152701573000000000000
B0419283202295S11658271EA0152501571000000000000
B0419323202228S11658299EA0152301569000000000000
B0419363202159S11658325EA0151801559000000000000
B0419403202087S11658351EA0150701550000000000000
B0419443202016S11658378EA0149901543000000000000
B0419483201943S11658405EA0149301536000000000000
B0419523201869S11658433EA0148601528000000000000
B0419563201795S11658461EA0147901524000000000000
B0420003201722S11658489EA0148001526000000000000
B0420043201649S11658516EA0147801523000000000000
B0420083201573S11658541EA0147201515000000000000
B0420123201496S11658565EA0146601510000000000000
B0420163201419S11658583EA0146301505000000000000
B0420203201341S11658595EA0145501497000000000000
B0420243201263S11658608EA0144801487000000000000
B0420283201185S11658622EA0144001481000000000000
B0420323201106S11658638EA0143301472000000000000
B0420363201028S11658651EA0142301463000000000000
B0420403200951S11658663EA0141701458000000000000
B0420443200877S11658676EA0141101449000000000000
B0420483200803S11658694EA0140001433000000000000
B0420523200730S11658720EA0138401420000000000000
B0420563200659S11658755EA0137601415000000000000
B0421003200590S11658793EA0137301412000000000000
B0421043200522S11658836EA0137001410000000000000
B0421083200456S11658877EA0136601406000000000000
B0421123200388S11658912EA0136501403000000000000
B0421163200319S11658942EA0136001397000000000000
B0421203200247S11658970EA0135401390000000000000
B0421243200173S11658996EA0134601383000000000000
B0421283200097S11659019EA0133901375000000000000
B0421323200022S11659041EA0133301370000000000000
B0421363159944S11659062EA0132901365000000000000
B0421403159867S11659080EA0132101355000000000000
B0421443159790S11659102EA0131101346000000000000
B0421483159715S11659123EA0130501342000000000000
B0421523159642S11659141EA0130101335000000000000
B0421563159569S11659162EA0129501332000000000000
B0422003159497S11659184EA0129001326000000000000
B0422043159425S11659210EA0128801325000000000000
B0422083159356S11659236EA0128801324000000000000
B0422123159287S11659265EA0128601324000000000000
B0422163159221S11659298EA0129001327000000000000
B0422203159166S11659347EA0129301331000000000000
B0422243159129S11659408EA0130301344000000000000
B0422283159133S11659466EA0132401367000000000000
B0422323159190S11659443EA0134601392000000000000
B0422363159195S11659362EA0136301404000000000000
B0422403159146S11659304EA0137101413000000000000
B0422443159086S11659297EA0138201426000000000000
B0422483159064S11659339EA0139401437000000000000
B0422523159100S11659358EA0140701450000000000000
B0422563159143S11659305EA0141601461000000000000
B0423003159130S11659223EA0142901474000000015000
B0423043159073S11659184EA0143801482000000015000
B0423083159031S11659214EA0144601492000000000000
B0423123159055S11659250EA0145501502000000000000
B0423163159104S11659215EA0146501514000000000000
B0423203159104S11659132EA0147801525000000015000
B0423243159051S11659087EA0148401531000000015000
B0423283159004S11659110EA0149101540000000000000
B0423323159017S11659150EA0150401550000000000000
B0423363159066S11659128EA0151201557000000000000
B0423403159071S11659042EA0151801562000000015000
B0423443159017S11658989EA0152401571000000015000
B0423483158962S11659006EA0153401580000000000000
B0423523158964S11659050EA0154301589000000000000
B0423563159017S11659049EA0154401586000000000000
B0424003159055S11658975EA0154801597000000000000
B0424043159034S11658890EA0156101609000000015000
B0424083158974S11658873EA0156701609000000000000
B0424123158957S11658919EA0156901618000000000000
B0424163159004S11658927EA0158001629000000000000
B0424203159040S11658863EA0158801639000000015000
B0424243159021S11658784EA0159501647000000015000
B0424283158962S11658755EA0160001646000000015000
B0424323158927S11658791EA0160201651000000000000
B0424363158958S11658820EA0161001656000000000000
B0424403159008S11658772EA0161101659000000000000
B0424443159005S11658681EA0161801669000000015000
B0424483158951S11658635EA0162301669000000015000
B0424523158892S11658643EA0162301670000000000000
B0424563158847S11658678EA0162401671000000000000
B0425003158821S11658730EA0162101666000000000000
B0425043158792S11658791EA0161101652000000000000
B0425083158765S11658859EA0160501650000000000000
B0425123158739S11658932EA0159101629000000000000
B0425163158697S11659006EA0157001611000000000000
B0425203158641S11659074EA0155701602000000000000
B0425243158580S11659131EA0155401598000000000000
B0425283158514S11659179EA0155101592000000000000
B0425323158446S11659220EA0154401586000000000000
B0425363158375S11659257EA0153701578000000000000
B0425403158301S11659285EA0153001575000000000000
B0425443158230S11659311EA0153001574000000000000
B0425483158160S11659337EA0152701566000000000000
B0425523158091S11659365EA0151901560000000000000
B0425563158020S11659392EA0151101551000000000000
B0426003157946S11659419EA0150501547000000000000
B0426043157870S11659445EA0150201547000000000000
B0426083157797S11659473EA0149901539000000000000
B0426123157723S11659503EA0149301535000000000000
B0426163157648S11659527EA0149001532000000000000
B0426203157575S11659553EA0148401524000000000000
B0426243157504S11659574EA0148101518000000000000
B0426283157430S11659594EA0146901505000000000000
B0426323157355S11659618EA0145901499000000000000
B0426363157281S11659646EA0145601496000000000000
B0426403157209S11659673EA0145301491000000000000
B0426443157133S11659700EA0144501483000000000000
B0426483157056S11659726EA0143601474000000000000
B0426523156978S11659753EA0143401476000000000000
B0426563156900S11659779EA0143601475000000000000
B0427003156826S11659809EA0143801480000000000000
B0427043156767S11659854EA0144501489000000000000
B0427083156725S11659912EA0145701506000000000000
B0427123156694S11659971EA0147201516000000000000
B0427163156676S11700033EA0147501516000000000000
B0427203156659S11700097EA0147701519000000000000
B0427243156633S11700159EA0146701504000000000000
B0427283156599S11700225EA0144901485000000000000
B0427323156551S11700289EA0143501469000000000000
B0427363156494S11700345EA0142201455000000000000
B0427403156430S11700397EA0140701440000000000000
B0427443156365S11700448EA0139901437000000000000
B0427483156300S11700497EA0140201443000000000000
B0427523156237S11700548EA0140901449000000000000
B0427563156187S11700606EA0142101461000000000000
B0428003156197S11700670EA0143201473000000000000
B0428043156260S11700675EA0143001462000000000000
B0428083156310S11700600EA0142601469000000000000
B0428123156336S11700502EA0143301476000000000000
B0428163156336S11700403EA0144101485000000000000
B0428203156287S11700336EA0144701488000000000000
B0428243156217S11700325EA0144001475000000000000
B0428283156141S11700344EA0142801462000000000000
B0428323156063S11700372EA0142601468000000000000
B0428363155994S11700415EA0144101484000000000000
B0428403155937S11700472EA0144401482000000000000
B0428443155888S11700540EA0143801479000000000000
B0428483155840S11700608EA0143301471000000000000
B0428523155785S11700670EA0142301458000000000000
B0428563155723S11700725EA0141601455000000000000
B0429003155652S11700767EA0141601457000000000000
B0429043155576S11700804EA0142701469000000000000
B0429083155524S11700860EA0144801495000000000000
B0429123155516S11700922EA0145901496000000000000
B0429163155506S11700990EA0144801481000000000000
B0429203155468S11701053EA0143701471000000000000
B0429243155416S11701113EA0142401457000000000000
B0429283155347S11701163EA0141001440000000000000
B0429323155270S11701203EA0139501430000000000000
B0429363155190S11701237EA0139101429000000000000
B0429403155108S11701271EA0139101427000000000000
B0429443155025S11701308EA0138501417000000000000
B0429483154940S11701347EA0138301419000000000000
B0429523154870S11701399EA0139101425000000000000
B0429563154828S11701467EA0139101428000000000000
B0430003154801S11701537EA0139801440000000000000
B0430043154787S11701607EA0140101431000000000000
B0430083154776S11701679EA0138401411000000000000
B0430123154742S11701748EA0136101393000000000000
B0430163154694S11701809EA0134701383000000000000
B0430203154635S11701857EA0134101376000000000000
B0430243154566S11701896EA0133401369000000000000
B0430283154497S11701932EA0132901365000000000000
B0430323154427S11701965EA0132501356000000000000
B0430363154355S11701997EA0131601347000000000000
B0430403154282S11702028EA0130601338000000000000
B0430443154211S11702060EA0130301338000000000000
B0430483154141S11702087EA0130101333000000000000
B0430523154070S11702117EA0129001323000000000000
B0430563154000S11702151EA0128001311000000000000
B0431003153929S11702183EA0127101300000000000000
B0431043153857S11702210EA0126501296000000000000
B0431083153786S11702234EA0125901289000000000000
B0431123153715S11702260EA0125101276000000000000
B0431163153644S11702286EA0123901266000000000000
B0431203153574S11702311EA0123201261000000000000
B0431243153504S11702337EA0122501251000000000000
B0431283153433S11702365EA0121601242000000000000
B0431323153366S11702396EA0120501231000000000000
B0431363153299S11702431EA0119701221000000000000
B0431403153234S11702469EA0118901215000000000000
B0431443153171S11702508EA0118401210000000000000
B0431483153107S11702550EA0117601201000000000000
B0431523153043S11702594EA0116601189000000000000
B0431563152982S11702641EA0115501179000000000000
B0432003152921S11702686EA0114601166000000000000
B0432043152863S11702733EA0113401158000000000000
B0432083152811S11702781EA0113901168000000000000
B0432123152770S11702828EA0115401190000000000000
B0432163152737S11702876EA0117301203000000000000
B0432203152701S11702923EA0118401214000000000000
B0432243152695S11702974EA0120201244000000000000
B0432283152743S11702970EA0122801263000000000000
B0432323152768S11702897EA0123801269000000000000
B0432363152739S11702816EA0124901290000000000000
B0432403152681S11702786EA0126501301000000000000
B0432443152649S11702824EA0128101324000000000000
B0432483152691S11702841EA0130301342000000000000
B0432523152727S11702780EA0132701376000000000000
B0432563152704S11702706EA0134901384000000015000
B0433003152640S11702691EA0135001389000000000000
B0433043152635S11702737EA0137001418000000000000
B0433083152683S11702728EA0139801443000000000000
B0433123152698S11702652EA0141501458000000015000
B0433163152648S11702593EA0142201462000000015000
B0433203152594S11702606EA0143401480000000000000
B0433243152605S11702645EA0145601501000000000000
B0433283152659S11702617EA0147301520000000000000
B0433323152669S11702533EA0149101540000000015000
B0433363152618S11702476EA0150101545000000015000
B0433403152566S11702495EA0151001564000000000000
B0433443152577S11702538EA0153201581000000000000
B0433483152629S11702524EA0154801598000000000000
B0433523152647S11702446EA0156501614000000015000
B0433563152603S11702378EA0157101615000000015000
B0434003152547S11702389EA0157901632000000000000
B0434043152560S11702429EA0159701647000000000000
B0434083152612S11702417EA0161201666000000000000
B0434123152642S11702344EA0162801679000000015000
B0434163152612S11702262EA0163401683000000015000
B0434203152549S11702238EA0164601697000000015000
B0434243152514S11702268EA0165401701000000015000
B0434283152534S11702312EA0166001709000000000000
B0434323152587S11702301EA0167401723000000000000
B0434363152625S11702221EA0167701728000000015000
B0434403152610S11702123EA0168701742000000015000
B0434443152551S11702082EA0170601762000000015000
B0434483152514S11702108EA0171901770000000015000
B0434523152534S11702143EA0172901784000000000000
B0434563152586S11702126EA0173701791000000000000
B0435003152616S11702049EA0175201808000000015000
B0435043152583S11701966EA0176201815000000015000
B0435083152519S11701949EA0176801821000000015000
B0435123152486S11701988EA0177501828000000015000
B0435163152501S11702035EA0177901832000000000000
B0435203152555S11702041EA0179001846000000000000
B0435243152604S11701987EA0180201858000000015000
B0435283152608S11701902EA0180601854000000015000
B0435323152560S11701835EA0179901847000000015000
B0435363152497S11701837EA0180101861000000015000
B0435403152458S11701872EA0181201866000000015000
B0435443152439S11701924EA0181201866000000000000
B0435483152423S11701983EA0181301868000000000000
B0435523152414S11702044EA0181601869000000000000
B0435563152404S11702110EA0181701871000000000000
B0436003152376S11702178EA0180601852000000000000
B0436043152328S11702244EA0178101825000000000000
B0436083152263S11702303EA0177301823000000000000
B0436123152191S11702351EA0177101824000000000000
B0436163152114S11702392EA0177101821000000000000
B0436203152041S11702431EA0177301825000000000000
B0436243151970S11702465EA0176701816000000000000
B0436283151898S11702496EA0176101811000000000000
B0436323151830S11702530EA0175601806000000000000
B0436363151764S11702569EA0174901798000000000000
B0436403151697S11702608EA0174601795000000000000
B0436443151630S11702646EA0174401792000000000000
B0436483151561S11702680EA0173801785000000000000
B0436523151487S11702711EA0173101779000000000000
B0436563151414S11702740EA0172801774000000000000
B0437003151346S11702769EA0172101768000000000000
B0437043151279S11702798EA0171701765000000000000
B0437083151217S11702824EA0171501761000000000000
B0437123151156S11702849EA0170901756000000000000
B0437163151096S11702876EA0170301745000000000000
B0437203151034S11702903EA0169101735000000000000
B0437243150971S11702931EA0168401726000000000000
B0437283150909S11702959EA0168001725000000000000
B0437323150844S11702988EA0167701720000000000000
B0437363150776S11703022EA0167101715000000000000
B0437403150706S11703054EA0166601710000000000000
B0437443150636S11703085EA0166701713000000000000
B0437483150567S11703115EA0166501709000000000000
B0437523150498S11703148EA0165701698000000000000
B0437563150429S11703180EA0164901690000000000000
B0438003150356S11703213EA0164501689000000000000
B0438043150281S11703245EA0163801676000000000000
B0438083150202S11703279EA0162201661000000000000
B0438123150120S11703304EA0161701657000000000000
B0438163150038S11703321EA0161201653000000000000
B0438203149960S11703338EA0160501642000000000000
B0438243149882S11703357EA0159501632000000000000
B0438283149802S11703377EA0158501624000000000000
B0438323149722S11703388EA0157801617000000000000
B0438363149641S11703403EA0156901607000000000000
B0438403149562S11703419EA0156301602000000000000
B0438443149481S11703438EA0155701595000000000000
B0438483149402S11703457EA0155001588000000000000
B0438523149325S11703482EA0154301584000000000000
B0438563149253S11703507EA0154101582000000000000
B0439003149184S11703533EA0154001582000000000000
B0439043149117S11703557EA0153701576000000000000
B0439083149051S11703583EA0153001566000000000000
B0439123148982S11703612EA0152101560000000000000
B0439163148916S11703642EA0151501555000000000000
B0439203148853S11703676EA0151201551000000000000
B0439243148794S11703711EA0150501543000000000000
B0439283148734S11703747EA0149701536000000000000
B0439323148673S11703783EA0149401533000000000000
B0439363148618S11703824EA0149201531000000000000
B0439403148566S11703864EA0148701525000000000000
B0439443148512S11703904EA0148101519000000000000
B0439483148453S11703942EA0147501513000000000000
B0439523148393S11703977EA0147101509000000000000
B0439563148331S11704010EA0146501500000000000000
B0440003148265S11704047EA0145501491000000000000
B0440043148193S11704089EA0144601481000000000000
B0440083148122S11704133EA0144401485000000000000
B0440123148081S11704192EA0146701525000000000000
B0440163148106S11704231EA0150801560000000000000
B0440203148153S11704199EA0152701569000000000000
B0440243148162S11704119EA0153401576000000000000
B0440283148116S11704055EA0153801583000000015000
B0440323148054S11704046EA0155001598000000015000
B0440363148014S11704079EA0156101603000000000000
B0440403148012S11704128EA0156601614000000000000
B0440443148054S11704146EA0157901627000000000000
B0440483148099S11704098EA0158401629000000015000
B0440523148094S11704012EA0159301641000000015000
B0440563148037S11703962EA0159901646000000015000
B0441003147979S11703977EA0161601665000000015000
B0441043147964S11704025EA0162701678000000015000
B0441083147993S11704060EA0163901688000000000000
B0441123148041S11704054EA0164401688000000015000
B0441163148077S11703993EA0163701680000000015000
B0441203148067S11703902EA0163501687000000015000
B0441243148021S11703833EA0164501694000000015000
B0441283147959S11703819EA0165501708000000015000
B0441323147904S11703834EA0166601716000000000000
B0441363147856S11703869EA0166701716000000000000
B0441403147813S11703917EA0166701717000000000000
B0441443147768S11703968EA0166601712000000000000
B0441483147713S11704019EA0165401695000000000000
B0441523147655S11704075EA0164401690000000000000
B0441563147596S11704127EA0164401692000000000000
B0442003147540S11704172EA0164601694000000000000
B0442043147486S11704214EA0164401691000000000000
B0442083147430S11704254EA0163901683000000000000
B0442123147371S11704293EA0163101675000000000000
B0442163147313S11704336EA0161901662000000000000
B0442203147254S11704379EA0161301657000000000000
B0442243147196S11704417EA0161101657000000000000
B0442283147139S11704456EA0161101655000000000000
B0442323147082S11704493EA0160701653000000000000
B0442363147023S11704530EA0160801654000000000000
B0442403146967S11704567EA0161101657000000000000
B0442443146910S11704608EA0160501648000000000000
B0442483146855S11704653EA0159901643000000000000
B0442523146803S11704700EA0159401637000000000000
B0442563146745S11704738EA0159301635000000000000
B0443003146685S11704771EA0158801633000000000000
B0443043146627S11704812EA0159701644000000000000
B0443083146575S11704860EA0159801641000000000000
B0443123146536S11704920EA0159301632000000000000
B0443163146491S11704983EA0157601617000000000000
B0443203146439S11705044EA0156701608000000000000
B0443243146380S11705098EA0156101604000000000000
B0443283146315S11705138EA0156301605000000000000
B0443323146247S11705173EA0155501592000000000000
B0443363146175S11705208EA0154501584000000000000
B0443403146103S11705245EA0153801577000000000000
B0443443146031S11705282EA0152701564000000000000
B0443483145956S11705319EA0151501553000000000000
B0443523145879S11705358EA0150401542000000000000
B0443563145801S11705393EA0149601533000000000000
B0444003145722S11705427EA0148901524000000000000
B0444043145642S11705464EA0147601508000000000000
B0444083145564S11705506EA0146101495000000000000
B0444123145486S11705553EA0144701478000000000000
B0444163145407S11705600EA0143501468000000000000
B0444203145328S11705646EA0142501460000000000000
B0444243145247S11705689EA0142101457000000000000
B0444283145167S11705731EA0141001443000000000000
B0444323145085S11705774EA0140201432000000000000
B0444363145003S11705817EA0138801415000000000000
B0444403144918S11705857EA0137001400000000000000
B0444443144834S11705895EA0136101393000000000000
B0444483144749S11705931EA0135801393000000000000
B0444523144665S11705966EA0136301401000000000000
B0444563144582S11706001EA0136801401000000000000
B0445003144500S11706038EA0136201391000000000000
B0445043144418S11706075EA0134901379000000000000
B0445083144336S11706114EA0133701364000000000000
B0445123144253S11706155EA0132201348000000000000
B0445163144170S11706196EA0131101341000000000000
B0445203144088S11706237EA0130901343000000000000
B0445243144011S11706278EA0130601336000000000000
B0445283143934S11706320EA0129601325000000000000
B0445323143858S11706360EA0128601316000000000000
B0445363143785S11706402EA0128601318000000000000
B0445403143715S11706441EA0128701320000000000000
B0445443143650S11706478EA0129001322000000000000
B0445483143587S11706519EA0129501330000000000000
B0445523143553S11706573EA0131001348000000000000
B0445563143551S11706636EA0132401365000000000000
B0446003143570S11706686EA0134601386000000000000
B0446043143626S11706676EA0135501386000000000000
B0446083143652S11706594EA0134701376000000000000
B0446123143620S11706507EA0133701369000000000000
B0446163143557S11706451EA0133301366000000000000
B0446203143487S11706433EA0133901378000000000000
B0446243143429S11706448EA0135201395000000000000
B0446283143434S11706491EA0136601399000000000000
B0446323143487S11706478EA0136601397000000000000
B0446363143523S11706403EA0137001410000000015000
B0446403143518S11706309EA0138301424000000015000
B0446443143474S11706243EA0139501435000000015000
B0446483143423S11706264EA0140101435000000015000
B0446523143456S11706300EA0141001450000000015000
B0446563143500S11706239EA0142301465000000015000
B0447003143470S11706159EA0143701476000000015000
B0447043143403S11706144EA0144101479000000015000
B0447083143377S11706192EA0145101494000000015000
B0447123143412S11706225EA0145601492000000015000
B0447163143473S11706183EA0145601496000000015000
B0447203143490S11706088EA0146901512000000015000
B0447243143439S11706021EA0147901526000000015000
B0447283143377S11706017EA0149501545000000015000
B0447323143345S11706052EA0150901555000000015000
B0447363143358S11706090EA0151501553000000015000
B0447403143408S11706090EA0150701542000000015000
B0447443143456S11706022EA0150201547000000015000
B0447483143483S11705932EA0151501561000000015000
B0447523143471S11705840EA0152701571000000015000
B0447563143418S11705780EA0153301578000000015000
B0448003143351S11705754EA0153801581000000015000
B0448043143282S11705753EA0154301588000000000000
B0448083143244S11705791EA0155001591000000000000
B0448123143231S11705847EA0154901591000000000000
B0448163143230S11705906EA0155501603000000000000
B0448203143230S11705964EA0156501609000000000000
B0448243143230S11706023EA0156201602000000000000
B0448283143213S11706091EA0154201574000000000000
B0448323143176S11706161EA0151501551000000000000
B0448363143128S11706227EA0150501545000000000000
B0448403143079S11706289EA0150601548000000000000
B0448443143028S11706343EA0151101554000000000000
B0448483142977S11706394EA0151401552000000000000
B0448523142924S11706443EA0150701545000000000000
B0448563142870S11706490EA0150001539000000000000
B0449003142815S11706538EA0149301531000000000000
B0449043142760S11706585EA0149201533000000000000
B0449083142710S11706630EA0149101529000000000000
B0449123142658S11706679EA0148101518000000000000
B0449163142606S11706725EA0147301510000000000000
B0449203142552S11706771EA0146901509000000000000
B0449243142496S11706819EA0146401498000000000000
B0449283142443S11706874EA0146201504000000000000
B0449323142412S11706940EA0147101511000000000000
B0449363142396S11707007EA0148201527000000000000
B0449403142383S11707070EA0148801525000000000000
B0449443142366S11707137EA0146901499000000000000
B0449483142331S11707208EA0144801481000000000000
B0449523142283S11707269EA0144101479000000000000
B0449563142229S11707322EA0144101477000000000000
B0450003142173S11707370EA0143801475000000000000
B0450043142116S11707413EA0143501470000000000000
B0450083142054S11707453EA0142801461000000000000
B0450123141995S11707491EA0141901453000000000000
B0450163141934S11707526EA0140901441000000000000
B0450203141871S11707563EA0139901431000000000000
B0450243141813S11707602EA0138801421000000000000
B0450283141755S11707643EA0138301413000000000000
B0450323141698S11707682EA0137401406000000000000
B0450363141641S11707720EA0136701395000000000000
B0450403141581S11707755EA0135301381000000000000
B0450443141523S11707791EA0134501378000000000000
B0450483141466S11707825EA0134001369000000000000
B0450523141404S11707860EA0132801355000000000000
B0450563141339S11707901EA0131201342000000000000
B0451003141274S11707943EA0130501335000000000000
B0451043141213S11707986EA0130301333000000000000
B0451083141155S11708025EA0129801326000000000000
B0451123141095S11708068EA0128801315000000000000
B0451163141037S11708115EA0128001307000000000000
B0451203140978S11708164EA0127501304000000000000
B0451243140936S11708220EA0127501303000000000000
B0451283140903S11708281EA0126301288000000000000
B0451323140860S11708340EA0125101276000000000000
B0451363140809S11708396EA0124201269000000000000
B0451403140758S11708447EA0124301274000000000000
B0451443140714S11708497EA0124801276000000000000
B0451483140670S11708551EA0124301269000000000000
B0451523140624S11708606EA0124001266000000000000
B0451563140575S11708657EA0123601262000000000000
B0452003140523S11708707EA0123001252000000000000
B0452043140467S11708755EA0121901241000000000000
B0452083140406S11708801EA0120701226000000000000
B0452123140345S11708851EA0119601219000000000000
B0452163140281S11708896EA0118801207000000000000
B0452203140219S11708943EA0117801199000000000000
B0452243140155S11708987EA0117001190000000000000
B0452283140093S11709033EA0116601190000000000000
B0452323140032S11709080EA0116901192000000000000
B0452363139990S11709137EA0116701191000000000000
B0452403139969S11709197EA0116801193000000000000
B0452443139960S11709258EA0116301186000000000000
B0452483139942S11709319EA0115701178000000000000
B0452523139913S11709376EA0114901169000000000000
B0452563139876S11709429EA0113801156000000000000
B0453003139830S11709481EA0112801149000000000000
B0453043139783S11709531EA0112601148000000000000
B0453083139735S11709578EA0112401147000000000000
B0453123139687S11709626EA0111901140000000000000
B0453163139642S11709675EA0111301134000000000000
B0453203139592S11709726EA0111001134000000000000
B0453243139545S11709778EA0111601140000000000000
B0453283139545S11709838EA0112101143000000000000
B0453323139597S11709832EA0112001135000000000000
B0453363139622S11709750EA0111601145000000000000
B0453403139617S11709663EA0112501150000000015000
B0453443139560S11709609EA0112101140000000015000
B0453483139487S11709614EA0111501139000000015000
B0453523139436S11709652EA0111701138000000000000
B0453563139418S11709711EA0110501124000000000000
B0454003139386S11709771EA0109401112000000000000
B0454043139341S11709830EA0108601106000000000000
B0454083139296S11709891EA0107501093000000000000
B0454123139250S11709951EA0106301074000000000000
B0454163139206S11710012EA0104701060000000000000
B0454203139162S11710074EA0103601048000000000000
B0454243139114S11710133EA0102601041000000000000
B0454283139067S11710191EA0101901033000000000000
B0454323139022S11710251EA0100801020000000000000
B0454363138979S11710311EA0100501023000000000000
B0454403138940S11710368EA0101101028000000000000
B0454443138924S11710430EA0101301030000000000000
B0454483138928S11710494EA0101101026000000000000
B0454523138938S11710559EA0100901024000000000000
B0454563138957S11710624EA0100801026000000000000
B0455003138975S11710686EA0100801025000000000000
B0455043138996S11710749EA0100801023000000000000
B0455083139018S11710813EA0101201034000000000000
B0455123139042S11710874EA0102401045000000000000
B0455163139100S11710892EA0103501056000000000000
B0455203139139S11710828EA0104701067000000000000
B0455243139105S11710759EA0104801062000000000000
B0455283139046S11710761EA0104701067000000000000
B0455323139020S11710810EA0105401076000000000000
B0455363139031S11710861EA0106401083000000000000
B0455403139083S11710832EA0107501093000000015000
B0455443139080S11710753EA0108601107000000015000
B0455483139024S11710731EA0109401113000000015000
B0455523139009S11710780EA0110001121000000015000
B0455563139062S11710774EA0111001131000000015000
B0456003139066S11710690EA0111701139000000015000
B0456043139009S11710664EA0113201156000000015000
B0456083138983S11710709EA0114101162000000015000
B0456123139022S11710741EA0114901174000000000000
B0456163139067S11710696EA0116301187000000000000
B0456203139054S11710618EA0117001195000000015000
B0456243138997S11710598EA0117801205000000015000
B0456283138972S11710644EA0119001219000000000000
B0456323139010S11710672EA0120201231000000000000
B0456363139050S11710615EA0121201238000000000000
B0456403139018S11710546EA0122101252000000000000
B0456443138970S11710560EA0123201260000000000000
B0456483138984S11710611EA0123801266000000000000
B0456523139038S11710581EA0124601275000000000000
B0456563139024S11710499EA0125401285000000015000
B0457003138966S11710489EA0126501298000000000000
B0457043138955S11710540EA0127501306000000000000
B0457083139007S11710542EA0128501316000000000000
B0457123139028S11710467EA0129601334000000015000
B0457163138983S11710420EA0131001342000000015000
B0457203138950S11710456EA0131401345000000000000
B0457243138990S11710481EA0131701348000000000000
B0457283139036S11710426EA0132801365000000000000
B0457323139024S11710347EA0133701367000000015000
B0457363138963S11710326EA0133901374000000015000
B0457403138945S11710373EA0135001387000000015000
B0457443138986S11710390EA0136001394000000000000
B0457483139027S11710334EA0136701404000000000000
B0457523139012S11710255EA0137401406000000000000
B0457563138957S11710222EA0137901414000000015000
B0458003138915S11710256EA0138601425000000000000
B0458043138934S11710298EA0139601430000000000000
B0458083138986S11710276EA0140201441000000000000
B0458123138997S11710198EA0141301449000000015000
B0458163138953S11710135EA0141501451000000015000
B0458203138894S11710130EA0142501467000000015000
B0458243138893S11710173EA0143501470000000015000
B0458283138947S11710160EA0143301470000000000000
B0458323138967S11710078EA0144301484000000000000
B0458363138921S11710014EA0145001489000000015000
B0458403138863S11710020EA0146101502000000000000
B0458443138843S11710066EA0147201512000000000000
B0458483138873S11710103EA0148101519000000000000
B0458523138927S11710082EA0148601524000000000000
B0458563138947S11710003EA0149301532000000015000
B0459003138911S11709931EA0150101538000000015000
B0459043138851S11709922EA0150401543000000015000
B0459083138838S11709965EA0151201551000000000000
B0459123138884S11709975EA0151901555000000000000
B0459163138920S11709914EA0152501564000000000000
B0459203138898S11709832EA0152801565000000015000
B0459243138837S11709802EA0153401576000000000000
B0459283138799S11709831EA0154201582000000000000
B0459323138794S11709882EA0153901575000000000000
B0459363138801S11709939EA0153501570000000000000
B0459403138798S11710009EA0152401555000000000000
B0459443138768S11710085EA0151101546000000000000
B0459483138715S11710153EA0150901550000000000000
B0459523138658S11710215EA0152701573000000000000
B0459563138642S11710282EA0154501585000000000000
B0500003138651S11710348EA0154401576000000000000
B0500043138630S11710415EA0153101559000000000000
B0500083138573S11710467EA0150601528000000000000
B0500123138495S11710499EA0148101510000000000000
B0500163138413S11710521EA0146901501000000000000
B0500203138333S11710545EA0146001492000000000000
B0500243138255S11710568EA0145601489000000000000
B0500283138174S11710584EA0145801494000000000000
B0500323138096S11710599EA0146901507000000000000
B0500363138036S11710632EA0148101517000000000000
B0500403138005S11710680EA0147901504000000000000
B0500443137962S11710728EA0146101482000000000000
B0500483137898S11710770EA0143901462000000000000
B0500523137822S11710802EA0142701456000000000000
B0500563137742S11710823EA0142401454000000000000
B0501003137662S11710839EA0142001451000000000000
B0501043137582S11710853EA0141701447000000000000
B0501083137501S11710867EA0141101439000000000000
B0501123137420S11710881EA0140501433000000000000
B0501163137338S11710897EA0139901424000000000000
B0501203137257S11710911EA0138901417000000000000
B0501243137176S11710924EA0138301411000000000000
B0501283137095S11710939EA0137801405000000000000
B0501323137016S11710957EA0137101400000000000000
B0501363136938S11710972EA0137201403000000000000
B0501403136860S11710985EA0137101401000000000000
B0501443136784S11710998EA0137101401000000000000
B0501483136709S11711008EA0137201404000000000000
B0501523136635S11711015EA0137301403000000000000
B0501563136561S11711024EA0137601409000000000000
B0502003136501S11711050EA0138101413000000000000
B0502043136457S11711092EA0137601397000000000000
B0502083136398S11711128EA0135401373000000000000
B0502123136329S11711161EA0133901365000000000000
B0502163136263S11711195EA0133901367000000000000
B0502203136198S11711225EA0134301373000000000000
B0502243136136S11711252EA0134401371000000000000
B0502283136072S11711279EA0134101368000000000000
B0502323136008S11711303EA0133801364000000000000
B0502363135947S11711323EA0133501361000000000000
B0502403135885S11711344EA0132501346000000000000
B0502443135818S11711368EA0131001333000000000000
B0502483135751S11711391EA0129801322000000000000
B0502523135683S11711414EA0129201317000000000000
B0502563135617S11711434EA0128501308000000000000
B0503003135547S11711448EA0127801301000000000000
B0503043135478S11711461EA0127001292000000000000
B0503083135406S11711474EA0126301284000000000000
B0503123135337S11711489EA0125401275000000000000
B0503163135270S11711504EA0124901273000000000000
B0503203135202S11711520EA0124601267000000000000
B0503243135133S11711538EA0124301265000000000000
B0503283135067S11711565EA0124701274000000000000
B0503323135032S11711617EA0126501306000000000000
B0503363135057S11711654EA0129401327000000000000
B0503403135109S11711602EA0130701336000000000000
B0503443135102S11711513EA0131701348000000000000
B0503483135044S11711477EA0132201346000000000000
B0503523134993S11711511EA0132701363000000000000
B0503563135002S11711556EA0134901389000000000000
B0504003135050S11711521EA0136901401000000000000
B0504043135040S11711433EA0137601409000000015000
B0504083134979S11711404EA0138401418000000000000
B0504123134954S11711455EA0139801436000000000000
B0504163134999S11711463EA0141301439000000015000
B0504203135024S11711370EA0141201451000000015000
B0504243134977S11711295EA0143101472000000015000
B0504283134917S11711307EA0144801481000000015000
B0504323134930S11711356EA0145701501000000000000
B0504363134982S11711322EA0147401511000000000000
B0504403134976S11711227EA0147801518000000015000
B0504443134912S11711192EA0149801543000000015000
B0504483134869S11711227EA0151401551000000000000
B0504523134891S11711269EA0152701571000000000000
B0504563134945S11711238EA0154101579000000000000
B0505003134959S11711145EA0154401584000000000000
B0505043134912S11711076EA0155701605000000015000
B0505083134851S11711076EA0157401618000000000000
B0505123134837S11711122EA0158401629000000000000
B0505163134885S11711121EA0159301637000000015000
B0505203134914S11711039EA0160501651000000015000
B0505243134867S11710969EA0162301666000000015000
B0505283134811S11710983EA0163401680000000000000
B0505323134817S11711023EA0164801693000000000000
B0505363134869S11711004EA0165401699000000000000
B0505403134897S11710923EA0166601711000000000000
B0505443134862S11710842EA0167401721000000000000
B0505483134799S11710820EA0168501731000000000000
B0505523134767S11710857EA0169201738000000000000
B0505563134790S11710894EA0169601741000000000000
B0506003134845S11710887EA0170201755000000000000
B0506043134893S11710832EA0171401762000000000000
B0506083134897S11710737EA0171601766000000000000
B0506123134847S11710670EA0172901780000000000000
B0506163134790S11710660EA0173601781000000000000
B0506203134759S11710696EA0173901788000000000000
B0506243134764S11710741EA0174101788000000000000
B0506283134799S11710779EA0173901787000000000000
B0506323134845S11710810EA0173801784000000000000
B0506363134902S11710835EA0172801769000000000000
B0506403134923S11710896EA0171901763000000000000
B0506443134914S11710966EA0171201755000000000000
B0506483134885S11711036EA0170401745000000000000
B0506523134843S11711104EA0169201733000000000000
B0506563134791S11711166EA0168101720000000000000
B0507003134738S11711227EA0167701722000000000000
B0507043134685S11711283EA0167501719000000000000
B0507083134629S11711331EA0167401717000000000000
B0507123134568S11711372EA0167301717000000000000
B0507163134503S11711405EA0166701709000000000000
B0507203134435S11711437EA0165901697000000000000
B0507243134364S11711466EA0164801685000000000000
B0507283134291S11711498EA0163501674000000000000
B0507323134218S11711529EA0162601666000000000000
B0507363134147S11711559EA0162201663000000000000
B0507403134082S11711589EA0162201664000000000000
B0507443134019S11711619EA0162001658000000000000
B0507483133958S11711647EA0160901647000000000000
B0507523133896S11711678EA0160301641000000000000
B0507563133835S11711708EA0159801638000000000000
B0508003133776S11711738EA0159201627000000000000
B0508043133719S11711769EA0158301617000000000000
B0508083133659S11711797EA0157701614000000000000
B0508123133598S11711819EA0157001605000000000000
B0508163133537S11711841EA0156601603000000000000
B0508203133480S11711864EA0156101598000000000000
B0508243133422S11711889EA0155701592000000000000
B0508283133367S11711912EA0155101584000000000000
B0508323133309S11711934EA0154201575000000000000
B0508363133248S11711958EA0153601569000000000000
B0508403133188S11711986EA0153101566000000000000
B0508443133127S11712018EA0152501560000000000000
B0508483133078S11712061EA0152901566000000000000
B0508523133055S11712115EA0153301570000000000000
B0508563133055S11712171EA0153701574000000000000
B0509003133061S11712224EA0154001579000000000000
B0509043133070S11712278EA0154301582000000000000
B0509083133083S11712332EA0154101576000000000000
B0509123133096S11712389EA0154101584000000000000
B0509163133109S11712439EA0155601598000000000000
B0509203133125S11712482EA0156401602000000000000
B0509243133138S11712527EA0156401603000000000000
B0509283133144S11712577EA0156501606000000000000
B0509323133147S11712630EA0156301600000000000000
B0509363133136S11712690EA0155301587000000000000
B0509403133101S11712748EA0154201578000000000000
B0509443133045S11712795EA0153301569000000000000
B0509483132979S11712833EA0152301558000000000000
B0509523132909S11712867EA0151401550000000000000
B0509563132837S11712896EA0151001544000000000000
B0510003132766S11712922EA0150501539000000000000
B0510043132694S11712947EA0149901536000000000000
B0510083132627S11712972EA0149801534000000000000
B0510123132562S11712998EA0149801533000000000000
B0510163132499S11713025EA0149301526000000000000
B0510203132438S11713054EA0148501519000000000000
B0510243132375S11713077EA0148001513000000000000
B0510283132310S11713095EA0147301503000000000000
B0510323132242S11713111EA0146301493000000000000
B0510363132174S11713128EA0145201482000000000000
B0510403132107S11713145EA0144501474000000000000
B0510443132039S11713166EA0143301461000000000000
B0510483131972S11713185EA0142401454000000000000
B0510523131905S11713202EA0142101453000000000000
B0510563131840S11713221EA0141601443000000000000
B0511003131771S11713244EA0140201430000000000000
B0511043131701S11713264EA0139501423000000000000
B0511083131630S11713284EA0138901417000000000000
B0511123131562S11713306EA0138101407000000000000
B0511163131493S11713332EA0137401401000000000000
B0511203131427S11713359EA0136801395000000000000
B0511243131361S11713389EA0136001385000000000000
B0511283131297S11713422EA0134901375000000000000
B0511323131232S11713457EA0134001365000000000000
B0511363131170S11713494EA0133701367000000000000
B0511403131123S11713541EA0134301369000000000000
B0511443131089S11713597EA0133301354000000000000
B0511483131043S11713653EA0132001344000000000000
B0511523130994S11713705EA0131501340000000000000
B0511563130952S11713757EA0131701344000000000000
B0512003130934S11713816EA0131301331000000000000
B0512043130908S11713875EA0129901322000000000000
B0512083130874S11713930EA0129501316000000000000
B0512123130825S11713977EA0128601309000000000000
B0512163130776S11714022EA0128801316000000000000
B0512203130731S11714065EA0129201313000000000000
B0512243130691S11714112EA0128301304000000000000
B0512283130647S11714157EA0128001303000000000000
B0512323130612S11714208EA0128601315000000000000
B0512363130588S11714259EA0130901344000000000000
B0512403130598S11714304EA0133801370000000000000
B0512443130648S11714290EA0134901374000000000000
B0512483130655S11714204EA0134701369000000000000
B0512523130591S11714157EA0135601396000000000000
B0512563130549S11714185EA0139001430000000000000
B0513003130575S11714216EA0140601432000000000000
B0513043130631S11714185EA0140301434000000000000
B0513083130638S11714100EA0141401448000000000000
B0513123130578S11714053EA0142401458000000000000
B0513163130546S11714096EA0144601488000000000000
B0513203130587S11714117EA0147301510000000000000
B0513243130630S11714064EA0148601519000000000000
B0513283130622S11713977EA0148701525000000000000
B0513323130564S11713944EA0150001547000000000000
B0513363130539S11713982EA0152101563000000015000
B0513403130581S11714004EA0153701580000000000000
B0513443130624S11713946EA0155201588000000000000
B0513483130601S11713861EA0156101605000000000000
B0513523130543S11713839EA0158301628000000000000
B0513563130512S11713877EA0159001625000000000000
B0514003130548S11713923EA0158701625000000000000
B0514043130614S11713916EA0159901645000000000000
B0514083130659S11713858EA0160301635000000015000
B0514123130657S11713767EA0159101628000000015000
B0514163130630S11713679EA0160101647000000000000
B0514203130577S11713656EA0162201663000000000000
B0514243130582S11713706EA0163001675000000000000
B0514283130643S11713700EA0165301701000000000000
B0514323130678S11713628EA0166801707000000000000
B0514363130652S11713549EA0167201719000000000000
B0514403130599S11713549EA0168201728000000000000
B0514443130607S11713597EA0169601746000000000000
B0514483130665S11713582EA0171401762000000000000
B0514523130676S11713498EA0172301769000000000000
B0514563130625S11713459EA0173001778000000000000
B0515003130599S11713497EA0174001789000000000000
B0515043130642S11713530EA0175201801000000000000
B0515083130691S11713488EA0176601813000000000000
B0515123130678S11713406EA0176101802000000015000
B0515163130618S11713375EA0176601819000000000000
B0515203130573S11713400EA0177801828000000000000
B0515243130568S11713455EA0178801835000000000000
B0515283130613S11713493EA0179001833000000000000
B0515323130678S11713472EA0178401823000000000000
B0515363130702S11713385EA0177301811000000000000
B0515403130674S11713294EA0176401811000000000000
B0515443130621S11713236EA0177401830000000000000
B0515483130575S11713258EA0179301845000000000000
B0515523130600S11713306EA0179701840000000000000
B0515563130661S11713276EA0179701847000000000000
B0516003130674S11713193EA0180301849000000000000
B0516043130634S11713127EA0180901860000000000000
B0516083130575S11713114EA0182201877000000000000
B0516123130527S11713136EA0184101899000000000000
B0516163130500S11713177EA0186101915000000000000
B0516203130509S11713227EA0186701917000000000000
B0516243130525S11713281EA0186101900000000000000
B0516283130517S11713353EA0183401871000000000000
B0516323130484S11713427EA0181201856000000000000
B0516363130435S11713494EA0179901843000000000000
B0516403130375S11713557EA0178401825000000000000
B0516443130308S11713615EA0177201816000000000000
B0516483130237S11713663EA0177201820000000000000
B0516523130169S11713705EA0177401820000000000000
B0516563130101S11713744EA0176901813000000000000
B0517003130029S11713782EA0175701799000000000000
B0517043129961S11713823EA0175001788000000000000
B0517083129893S11713869EA0173601776000000000000
B0517123129824S11713917EA0172001756000000000000
B0517163129749S11713961EA0170801750000000000000
B0517203129672S11714000EA0170301743000000000000
B0517243129597S11714040EA0169701736000000000000
B0517283129522S11714079EA0169401733000000000000
B0517323129448S11714115EA0168901728000000000000
B0517363129377S11714152EA0167801715000000000000
B0517403129305S11714195EA0166801705000000000000
B0517443129234S11714238EA0166301700000000000000
B0517483129164S11714281EA0165201686000000000000
B0517523129091S11714326EA0163501669000000000000
B0517563129015S11714373EA0162301658000000000000
B0518003128940S11714419EA0161301649000000000000
B0518043128869S11714466EA0160901649000000000000
B0518083128800S11714510EA0160801644000000000000
B0518123128733S11714554EA0160101634000000000000
B0518163128667S11714602EA0158601617000000000000
B0518203128602S11714654EA0157101604000000000000
B0518243128536S11714706EA0155601586000000000000
B0518283128469S11714759EA0154201573000000000000
B0518323128403S11714811EA0152701556000000000000
B0518363128336S11714863EA0151501546000000000000
B0518403128269S11714910EA0151201545000000000000
B0518443128206S11714954EA0150501530000000000000
B0518483128144S11714999EA0148801513000000000000
B0518523128083S11715044EA0147101497000000000000
B0518563128020S11715084EA0145701487000000000000
B0519003127959S11715123EA0145301481000000000000
B0519043127895S11715160EA0144701478000000000000
B0519083127834S11715199EA0144201471000000000000
B0519123127775S11715238EA0143201459000000000000
B0519163127718S11715279EA0141601443000000000000
B0519203127663S11715330EA0140401425000000000000
B0519243127610S11715386EA0138801411000000000000
B0519283127553S11715442EA0137601402000000000000
B0519323127493S11715491EA0137101399000000000000
B0519363127433S11715537EA0136401393000000000000
B0519403127371S11715578EA0135901385000000000000
B0519443127306S11715617EA0134701372000000000000
B0519483127238S11715652EA0133901367000000000000
B0519523127172S11715686EA0133101356000000000000
B0519563127103S11715719EA0132101344000000000000
B0520003127033S11715749EA0130601325000000000000
B0520043126963S11715781EA0129001313000000000000
B0520083126890S11715814EA0127501294000000000000
B0520123126816S11715846EA0126101286000000000000
B0520163126747S11715881EA0126501295000000000000
B0520203126712S11715933EA0127901314000000000000
B0520243126696S11715987EA0129401325000000000000
B0520283126691S11716037EA0130101331000000000000
B0520323126690S11716089EA0131001342000000000000
B0520363126703S11716135EA0132301360000000000000
B0520403126750S11716127EA0133901365000000000000
B0520443126763S11716044EA0132801346000000000000
B0520483126708S11715967EA0133001368000000000000
B0520523126643S11715942EA0135401390000000000000
B0520563126601S11715972EA0136401391000000000000
B0521003126618S11716015EA0136801404000000000000
B0521043126669S11715984EA0138601423000000000000
B0521083126647S11715897EA0140101432000000000000
B0521123126583S11715894EA0141501454000000000000
B0521163126579S11715940EA0143101464000000000000
B0521203126630S11715928EA0144101480000000000000
B0521243126640S11715846EA0146201504000000000000
B0521283126594S11715781EA0147801513000000000000
B0521323126532S11715779EA0148401519000000000000
B0521363126516S11715824EA0148901523000000000000
B0521403126560S11715844EA0149601537000000000000
B0521443126605S11715793EA0151401555000000000000
B0521483126590S11715706EA0152801566000000000000
B0521523126526S11715685EA0153701574000000000000
B0521563126505S11715737EA0153701574000000000000
B0522003126543S11715773EA0154601588000000000000
B0522043126594S11715743EA0156701608000000000000
B0522083126586S11715662EA0157701618000000000000
B0522123126523S11715623EA0158101622000000000000
B0522163126478S11715659EA0158501624000000000000
B0522203126495S11715714EA0159101642000000000000
B0522243126545S11715699EA0161701666000000000000
B0522283126562S11715624EA0162801668000000000000
B0522323126526S11715547EA0163301680000000000000
B0522363126464S11715524EA0164501688000000000000
B0522403126423S11715559EA0164901689000000000000
B0522443126427S11715615EA0165301698000000000000
B0522483126477S11715619EA0166501707000000000000
B0522523126490S11715537EA0166901710000000000000
B0522563126426S11715486EA0167901725000000000000
B0523003126378S11715516EA0169601742000000000000
B0523043126386S11715561EA0170301746000000000000
B0523083126435S11715568EA0170101746000000000000
B0523123126478S11715517EA0170501750000000000000
B0523163126470S11715434EA0171001759000000000000
B0523203126419S11715374EA0172301775000000000000
B0523243126360S11715361EA0173701782000000000000
B0523283126328S11715404EA0173801783000000000000
B0523323126339S11715455EA0174001783000000000000
B0523363126369S11715503EA0172401771000000000000
B0523403126391S11715569EA0170301744000000000000
B0523443126386S11715650EA0167701717000000000000
B0523483126344S11715730EA0165901692000000000000
B0523523126278S11715799EA0163801674000000000000
B0523563126194S11715853EA0162401664000000000000
B0524003126105S11715890EA0162201662000000000000
B0524043126014S11715919EA0161601655000000000000
B0524083125923S11715948EA0160501640000000000000
B0524123125829S11715980EA0158701623000000000000
B0524163125737S11716013EA0157501612000000000000
B0524203125643S11716042EA0156701603000000000000
B0524243125551S11716071EA0156101593000000000000
B0524283125459S11716098EA0155001580000000000000
B0524323125366S11716128EA0153301567000000000000
B0524363125277S11716156EA0152901566000000000000
B0524403125191S11716183EA0153001567000000000000
B0524443125109S11716209EA0152501560000000000000
B0524483125027S11716234EA0151801553000000000000
B0524523124946S11716258EA0150801542000000000000
B0524563124871S11716284EA0150501542000000000000
B0525003124798S11716305EA0150701543000000000000
B0525043124727S11716321EA0150701544000000000000
B0525083124654S11716331EA0150501541000000000000
B0525123124581S11716341EA0150001533000000000000
B0525163124508S11716352EA0149301528000000000000
B0525203124434S11716364EA0148601518000000000000
B0525243124358S11716379EA0147101501000000000000
B0525283124280S11716399EA0145701488000000000000
B0525323124200S11716422EA0144401474000000000000
B0525363124120S11716449EA0143301460000000000000
B0525403124039S11716477EA0142401455000000000000
B0525443123961S11716504EA0142401458000000000000
B0525483123887S11716529EA0142101451000000000000
B0525523123812S11716552EA0141401443000000000000
B0525563123736S11716575EA0140701436000000000000
B0526003123661S11716598EA0139801425000000000000
B0526043123585S11716625EA0138401411000000000000
B0526083123507S11716655EA0137501402000000000000
B0526123123431S11716685EA0137001399000000000000
B0526163123354S11716712EA0136501389000000000000
B0526203123277S11716739EA0135201374000000000000
B0526243123198S11716770EA0133701360000000000000
B0526283123119S11716800EA0132501350000000000000
B0526323123041S11716830EA0131401336000000000000
B0526363122964S11716863EA0129601318000000000000
B0526403122886S11716898EA0128801312000000000000
B0526443122812S11716930EA0128501312000000000000
B0526483122739S11716959EA0129301321000000000000
B0526523122671S11716988EA0129601322000000000000
B0526563122616S11717029EA0129601320000000000000
B0527003122567S11717079EA0129501319000000000000
B0527043122538S11717136EA0131301347000000000000
B0527083122567S11717167EA0134301375000000000000
B0527123122612S11717119EA0135201378000000000000
B0527163122605S11717028EA0135401385000000000000
B0527203122554S11716973EA0137301404000000000000
B0527243122513S11716994EA0137901406000000000000
B0527283122540S11717030EA0138301413000000000000
B0527323122591S11716981EA0139401428000000000000
B0527363122579S11716895EA0140601442000000000000
B0527403122521S11716863EA0141501441000000000000
B0527443122488S11716902EA0141501446000000000000
B0527483122528S11716933EA0142501458000000000000
B0527523122575S11716876EA0143901477000000000000
B0527563122556S11716793EA0145601494000000000000
B0528003122497S11716765EA0146401495000000000000
B0528043122460S11716800EA0146401497000000000000
B0528083122475S11716850EA0146401495000000000000
B0528123122532S11716855EA0145901492000000000000
B0528163122571S11716780EA0146501501000000000000
B0528203122564S11716683EA0147301513000000000000
B0528243122510S11716630EA0148501519000000000000
B0528283122474S11716678EA0148601521000000000000
B0528323122514S11716709EA0149701532000000000000
B0528363122552S11716631EA0150101531000000000000
B0528403122496S11716569EA0150301541000000000000
B0528443122440S11716595EA0151401553000000000000
B0528483122432S11716651EA0151901548000000000000
B0528523122474S11716689EA0151101541000000000000
B0528563122532S11716663EA0150301528000000000000
B0529003122548S11716566EA0149601533000000000000
B0529043122535S11716468EA0150901549000000000000
B0529083122504S11716384EA0152701568000000000000
B0529123122452S11716375EA0154001577000000000000
B0529163122456S11716425EA0154201576000000000000
B0529203122512S11716422EA0154801583000000000000
B0529243122551S11716348EA0154801581000000000000
B0529283122530S11716260EA0155201590000000000000
B0529323122473S11716219EA0156101599000000000000
B0529363122413S11716210EA0156101588000000000000
B0529403122352S11716234EA0154801586000000000000
B0529443122302S11716282EA0155501593000000000000
B0529483122262S11716336EA0155801592000000000000
B0529523122237S11716401EA0155601591000000000000
B0529563122224S11716469EA0155601592000000000000
B0530003122215S11716538EA0155001584000000000000
B0530043122196S11716614EA0153301555000000000000
B0530083122157S11716694EA0151501546000000000000
B0530123122106S11716764EA0151301548000000000000
B0530163122047S11716824EA0151101543000000000000
B0530203121981S11716874EA0150401535000000000000
B0530243121915S11716924EA0149401528000000000000
B0530283121850S11716973EA0148601517000000000000
B0530323121785S11717021EA0147901512000000000000
B0530363121720S11717069EA0147201498000000000000
B0530403121654S11717115EA0145501482000000000000
B0530443121587S11717158EA0144701476000000000000
B0530483121521S11717197EA0144201472000000000000
B0530523121455S11717232EA0144201473000000000000
B0530563121388S11717266EA0143401460000000000000
B0531003121323S11717300EA0143001460000000000000
B0531043121261S11717337EA0143801472000000000000
B0531083121213S11717381EA0144801479000000000000
B0531123121171S11717432EA0144801479000000000000
B0531163121135S11717487EA0145201485000000000000
B0531203121105S11717543EA0145601488000000000000
B0531243121080S11717602EA0145501486000000000000
B0531283121052S11717664EA0144101462000000000000
B0531323121007S11717727EA0141901442000000000000
B0531363120950S11717786EA0140901436000000000000
B0531403120890S11717836EA0141301442000000000000
B0531443120842S11717891EA0141401439000000000000
B0531483120793S11717947EA0140001416000000000000
B0531523120731S11718002EA0138001402000000000000
B0531563120662S11718048EA0137301398000000000000
B0532003120590S11718086EA0136701390000000000000
B0532043120516S11718120EA0135701381000000000000
B0532083120441S11718152EA0134801372000000000000
B0532123120367S11718181EA0134101355000000000000
B0532163120289S11718208EA0132401337000000000000
B0532203120207S11718233EA0131001319000000000000
B0532243120122S11718256EA0129601307000000000000
B0532283120035S11718278EA0128601298000000000000
B0532323119948S11718301EA0127801291000000000000
B0532363119861S11718324EA0128001299000000000000
B0532403119784S11718355EA0129101310000000000000
B0532443119731S11718405EA0129301315000000000000
B0532483119684S11718458EA0128701307000000000000
B0532523119627S11718507EA0127701295000000000000
B0532563119561S11718548EA0126701288000000000000
B0533003119493S11718580EA0126201281000000000000
B0533043119424S11718614EA0125601273000000000000
B0533083119354S11718649EA0125001270000000000000
B0533123119288S11718687EA0125101273000000000000
B0533163119221S11718727EA0125401277000000000000
B0533203119161S11718770EA0125901280000000000000
B0533243119126S11718832EA0125701276000000000000
B0533283119099S11718901EA0125001262000000000000
B0533323119054S11718965EA0124301262000000000000
B0533363119003S11719023EA0124801270000000000000
B0533403118969S11719087EA0125801287000000000000
B0533443118952S11719148EA0127801307000000000000
B0533483118987S11719174EA0129701320000000000000
B0533523119037S11719117EA0129201306000000000000
B0533563119031S11719021EA0128801316000000000000
B0534003118982S11718960EA0130501330000000000000
B0534043118955S11718993EA0130701321000000000000
B0534083119007S11719001EA0130601334000000000000
B0534123119035S11718931EA0132001342000000000000
B0534163119018S11718837EA0132401349000000000000
B0534203118965S11718787EA0133201355000000000000
B0534243118946S11718828EA0133501356000000000000
B0534283118999S11718817EA0134101366000000015000
B0534323119013S11718724EA0134101362000000000000
B0534363118987S11718632EA0134801375000000000000
B0534403118927S11718616EA0135701374000000000000
B0534443118872S11718655EA0134001356000000000000
B0534483118813S11718704EA0133101351000000000000
B0534523118762S11718756EA0133701361000000000000
B0534563118727S11718814EA0133701359000000000000
B0535003118690S11718876EA0133701360000000000000
B0535043118658S11718940EA0134201369000000000000
B0535083118635S11719005EA0135201381000000000000
B0535123118618S11719068EA0136201389000000000000
B0535163118612S11719130EA0137101399000000000000
B0535203118614S11719185EA0140101421000000000000
B0535243118648S11719203EA0143301448000000000000
B0535283118695S11719151EA0143901450000000000000
B0535323118686S11719062EA0144201463000000000000
B0535363118630S11719022EA0144801470000000000000
B0535403118593S11719053EA0145901488000000000000
B0535443118628S11719081EA0148001513000000000000
B0535483118675S11719025EA0149901528000000000000
B0535523118666S11718931EA0150701535000000000000
B0535563118609S11718880EA0151501554000000000000
B0536003118563S11718901EA0153301570000000000000
B0536043118583S11718943EA0154701585000000000000
B0536083118638S11718912EA0156701612000000000000
B0536123118651S11718822EA0158501620000000000000
B0536163118601S11718757EA0159301633000000000000
B0536203118548S11718769EA0160601643000000000000
B0536243118552S11718817EA0161401650000000000000
B0536283118609S11718800EA0162601666000000000000
B0536323118626S11718707EA0163801680000000000000
B0536363118583S11718635EA0165001690000000000000
B0536403118522S11718619EA0165701693000000000000
B0536443118484S11718661EA0166201700000000000000
B0536483118514S11718704EA0167701719000000000000
B0536523118566S11718659EA0168701729000000000000
B0536563118558S11718568EA0169701742000000000000
B0537003118498S11718532EA0170801745000000000000
B0537043118458S11718571EA0171001753000000000000
B0537083118484S11718614EA0172301770000000000000
B0537123118535S11718577EA0174101790000000015000
B0537163118530S11718490EA0175201796000000015000
B0537203118474S11718445EA0176201808000000015000
B0537243118426S11718467EA0176801807000000000000
B0537283118423S11718522EA0177101817000000000000
B0537323118469S11718536EA0178801834000000015000
B0537363118513S11718480EA0179901846000000015000
B0537403118498S11718395EA0180901858000000015000
B0537443118436S11718358EA0181801866000000015000
B0537483118380S11718380EA0182701878000000000000
B0537523118370S11718433EA0183701884000000000000
B0537563118411S11718462EA0184801900000000015000
B0538003118461S11718416EA0186301915000000015000
B0538043118454S11718333EA0188001931000000015000
B0538083118397S11718293EA0189001938000000015000
B0538123118353S11718325EA0189801945000000000000
B0538163118374S11718368EA0190601954000000000000
B0538203118427S11718343EA0191901970000000015000
B0538243118437S11718264EA0192801981000000015000
B0538283118389S11718202EA0193801991000000015000
B0538323118326S11718203EA0194701997000000000000
B0538363118303S11718252EA0195202002000000000000
B0538403118340S11718288EA0195902011000000000000
B0538443118394S11718255EA0197002026000000015000
B0538483118409S11718172EA0198202031000000015000
B0538523118362S11718103EA0198502038000000015000
B0538563118294S11718103EA0199302041000000015000
B0539003118254S11718150EA0199602046000000000000
B0539043118250S11718208EA0200002049000000000000
B0539083118266S11718269EA0199602043000000000000
B0539123118280S11718334EA0199402037000000000000
B0539163118264S11718411EA0196402003000000000000
B0539203118209S11718489EA0194401984000000000000
B0539243118138S11718555EA0193601981000000000000
B0539283118062S11718610EA0193201976000000000000
B0539323117982S11718655EA0192801974000000000000
B0539363117902S11718694EA0192801975000000000000
B0539403117821S11718731EA0192401970000000000000
B0539443117742S11718770EA0192001967000000000000
B0539483117663S11718805EA0191901965000000000000
B0539523117582S11718836EA0191801963000000000000
B0539563117501S11718865EA0191801966000000000000
B0540003117423S11718893EA0191901964000000000000
B0540043117347S11718925EA0191701961000000000000
B0540083117270S11718953EA0191301955000000000000
B0540123117191S11718979EA0190001940000000000000
B0540163117114S11719008EA0189101934000000000000
B0540203117040S11719038EA0188701927000000000000
B0540243116966S11719069EA0188801935000000000000
B0540283116896S11719099EA0189301940000000000000
B0540323116827S11719130EA0189901945000000000000
B0540363116767S11719170EA0190801953000000000000
B0540403116720S11719225EA0190601949000000000000
B0540443116672S11719282EA0190401950000000000000
B0540483116620S11719341EA0190001942000000000000
B0540523116569S11719399EA0190401949000000000000
B0540563116528S11719463EA0190601950000000000000
B0541003116490S11719525EA0190801951000000000000
B0541043116439S11719589EA0189601935000000000000
B0541083116373S11719649EA0189501948000000000000
B0541123116308S11719706EA0190401953000000000000
B0541163116236S11719759EA0191501971000000000000
B0541203116227S11719816EA0194602008000000000000
B0541243116272S11719793EA0197202024000000000000
B0541283116264S11719706EA0197602026000000000000
B0541323116204S11719637EA0198102033000000000000
B0541363116135S11719633EA0199302044000000000000
B0541403116119S11719682EA0198902028000000000000
B0541443116170S11719686EA0198002029000000000000
B0541483116203S11719610EA0198902041000000015000
B0541523116205S11719512EA0199602047000000015000
B0541563116152S11719441EA0200002043000000015000
B0542003116082S11719468EA0199002025000000015000
B0542043116025S11719533EA0196401991000000000000
B0542083115957S11719602EA0193501970000000000000
B0542123115878S11719664EA0191801954000000000000
B0542163115792S11719719EA0190501943000000000000
B0542203115705S11719763EA0189901939000000000000
B0542243115616S11719805EA0189101932000000000000
B0542283115529S11719845EA0188801931000000000000
B0542323115447S11719881EA0190301950000000000000
B0542363115377S11719923EA0190801948000000000000
B0542403115306S11719965EA0191201963000000000000
B0542443115237S11720002EA0192601978000000000000
B0542483115165S11720037EA0194302000000000000000
B0542523115108S11720076EA0197102026000000000000
B0542563115107S11720123EA0199302040000000000000
B0543003115157S11720128EA0198502020000000000000
B0543043115206S11720057EA0198202035000000000000
B0543083115211S11719965EA0199602047000000000000
B0543123115199S11719870EA0201102068000000000000
B0543163115151S11719805EA0203202084000000000000
B0543203115094S11719812EA0204302093000000000000
B0543243115096S11719853EA0205602108000000000000
B0543283115146S11719837EA0206602114000000000000
B0543323115173S11719757EA0207602128000000000000
B0543363115146S11719673EA0209402148000000000000
B0543403115083S11719641EA0210302152000000000000
B0543443115038S11719671EA0210502154000000000000
B0543483115056S11719702EA0211102165000000000000
B0543523115105S11719667EA0211902169000000015000
B0543563115113S11719575EA0212402182000000015000
B0544003115052S11719534EA0213002171000000000000
B0544043114982S11719559EA0210902150000000000000
B0544083114909S11719599EA0208402121000000000000
B0544123114838S11719654EA0206002100000000000000
B0544163114767S11719714EA0205202098000000000000
B0544203114701S11719772EA0205002098000000000000
B0544243114635S11719829EA0205302101000000000000
B0544283114572S11719881EA0205602101000000000000
B0544323114509S11719933EA0205002091000000000000
B0544363114445S11719991EA0204002082000000000000
B0544403114384S11720048EA0203302078000000000000
B0544443114319S11720098EA0203402081000000000000
B0544483114255S11720141EA0203602083000000000000
B0544523114192S11720186EA0203002075000000000000
B0544563114128S11720230EA0202702074000000000000
B0545003114067S11720274EA0202702073000000000000
B0545043114006S11720317EA0202202065000000000000
B0545083113941S11720357EA0201502059000000000000
B0545123113876S11720395EA0201002052000000000000
B0545163113809S11720431EA0200102043000000000000
B0545203113743S11720468EA0199302036000000000000
B0545243113678S11720507EA0198602029000000000000
B0545283113617S11720548EA0198002023000000000000
B0545323113557S11720594EA0197602013000000000000
B0545363113501S11720644EA0196802007000000000000
B0545403113447S11720694EA0195902001000000000000
B0545443113389S11720745EA0194901989000000000000
B0545483113332S11720797EA0193701977000000000000
B0545523113274S11720847EA0192801971000000000000
B0545563113215S11720897EA0192201963000000000000
B0546003113159S11720947EA0191901963000000000000
B0546043113105S11720995EA0191901963000000000000
B0546083113051S11721045EA0191801964000000000000
B0546123112998S11721089EA0192101961000000000000
B0546163112944S11721136EA0190601938000000000000
B0546203112882S11721181EA0188601919000000000000
B0546243112819S11721226EA0187401912000000000000
B0546283112756S11721270EA0186401902000000000000
B0546323112694S11721314EA0185801898000000000000
B0546363112633S11721356EA0185201893000000000000
B0546403112570S11721396EA0184701885000000000000
B0546443112509S11721437EA0184101880000000000000
B0546483112450S11721478EA0183501873000000000000
B0546523112390S11721519EA0182901867000000000000
B0546563112335S11721567EA0182301862000000000000
B0547003112281S11721613EA0181801856000000000000
B0547043112227S11721657EA0181201851000000000000
B0547083112178S11721704EA0181201850000000000000
B0547123112131S11721756EA0180701842000000000000
B0547163112083S11721808EA0180001837000000000000
B0547203112027S11721855EA0179701833000000000000
B0547243111972S11721899EA0178901824000000000000
B0547283111919S11721944EA0177701811000000000000
B0547323111863S11721989EA0177001807000000000000
B0547363111809S11722030EA0177201813000000000000
B0547403111754S11722069EA0177301810000000000000
B0547443111701S11722108EA0176701805000000000000
B0547483111649S11722151EA0176801806000000000000
B0547523111602S11722198EA0177301815000000000000
B0547563111559S11722245EA0177801819000000000000
B0548003111523S11722294EA0178501829000000000000
B0548043111490S11722344EA0179101832000000000000
B0548083111455S11722392EA0179301837000000000000
B0548123111416S11722442EA0180201846000000000000
B0548163111377S11722492EA0181201855000000000000
B0548203111337S11722542EA0180901848000000000000
B0548243111295S11722594EA0180301842000000000000
B0548283111255S11722648EA0179301829000000000000
B0548323111209S11722702EA0178401826000000000000
B0548363111161S11722757EA0178901831000000000000
B0548403111112S11722808EA0179301836000000000000
B0548443111061S11722861EA0179301832000000000000
B0548483111016S11722919EA0179201832000000000000
B0548523110975S11722983EA0178701825000000000000
B0548563110930S11723046EA0177701812000000000000
B0549003110884S11723113EA0176201797000000000000
B0549043110844S11723179EA0175701798000000000000
B0549083110806S11723243EA0175901799000000000000
B0549123110773S11723304EA0175701796000000000000
B0549163110776S11723371EA0175501793000000000000
B0549203110822S11723419EA0175001788000000000000
B0549243110884S11723452EA0174001776000000000000
B0549283110957S11723476EA0172401759000000000000
B0549323111035S11723499EA0171201748000000000000
B0549363111113S11723524EA0170501740000000000000
B0549403111187S11723556EA0169301723000000000000
B0549443111256S11723605EA0168001711000000000000
B0549483111319S11723658EA0167601714000000000000
B0549523111376S11723712EA0167801714000000000000
B0549563111426S11723770EA0168401724000000000000
B0550003111467S11723828EA0169001730000000000000
B0550043111497S11723891EA0169401732000000000000
B0550083111521S11723953EA0170101741000000000000
B0550123111533S11724014EA0170801748000000000000
B0550163111545S11724075EA0171501754000000000000
B0550203111568S11724131EA0171301748000000000000
B0550243111602S11724188EA0170501741000000000000
B0550283111633S11724249EA0170501741000000000000
B0550323111668S11724310EA0170001735000000000000
B0550363111710S11724372EA0168901722000000000000
B0550403111753S11724431EA0167601708000000000000
B0550443111796S11724496EA0166101694000000000000
B0550483111833S11724563EA0166101697000000000000
B0550523111865S11724629EA0165901689000000000000
B0550563111896S11724699EA0164101665000000000000
B0551003111928S11724776EA0162001644000000000000
B0551043111957S11724853EA0160701641000000000000
B0551083111985S11724924EA0161301651000000000000
B0551123112009S11724988EA0162101655000000000000
B0551163112032S11725051EA0161401644000000000000
B0551203112071S11725110EA0159601625000000000000
B0551243112131S11725157EA0158501611000000000000
B0551283112200S11725193EA0157401601000000000000
B0551323112266S11725232EA0156501596000000000000
B0551363112329S11725272EA0156401595000000000000
B0551403112387S11725317EA0156201591000000000000
B0551443112446S11725363EA0155401581000000000000
B0551483112507S11725408EA0154001568000000000000
B0551523112568S11725453EA0153201558000000000000
B0551563112624S11725505EA0152001547000000000000
B0552003112682S11725558EA0151501543000000000000
B0552043112739S11725607EA0151601546000000000000
B0552083112789S11725657EA0151801546000000000000
B0552123112837S11725709EA0151101539000000000000
B0552163112889S11725759EA0150701536000000000000
B0552203112940S11725809EA0150301531000000000000
B0552243112988S11725864EA0149701525000000000000
B0552283113037S11725917EA0149101519000000000000
B0552323113087S11725973EA0148801519000000000000
B0552363113127S11726030EA0149101523000000000000
B0552403113161S11726089EA0149201523000000000000
B0552443113196S11726145EA0149001514000000000000
B0552483113236S11726203EA0147201492000000000000
B0552523113280S11726264EA0145301475000000000000
B0552563113328S11726325EA0144201466000000000000
B0553003113384S11726377EA0144101471000000000000
B0553043113444S11726423EA0144101462000000000000
B0553083113512S11726462EA0142901455000000000000
B0553123113575S11726506EA0143501468000000000000
B0553163113617S11726561EA0145301490000000000000
B0553203113600S11726608EA0147601514000000000000
B0553243113540S11726589EA0148501510000000000000
B0553283113493S11726514EA0147801507000000000000
B0553323113486S11726416EA0148201511000000000000
B0553363113517S11726327EA0148501515000000000000
B0553403113571S11726262EA0148901519000000000000
B0553443113638S11726223EA0149201522000000015000
B0553483113701S11726223EA0149901532000000000000
B0553523113759S11726238EA0151101548000000000000
B0553563113764S11726280EA0153201573000000000000
B0554003113714S11726280EA0155101586000000000000
B0554043113670S11726218EA0156201598000000000000
B0554083113672S11726129EA0156801597000000000000
B0554123113712S11726050EA0157101605000000000000
B0554163113770S11725994EA0158001615000000015000
B0554203113833S11725968EA0158501617000000015000
B0554243113880S11725994EA0158801625000000015000
B0554283113915S11726036EA0159301627000000000000
B0554323113938S11726090EA0159501631000000000000
B0554363113954S11726151EA0160101638000000000000
B0554403113971S11726208EA0161201647000000000000
B0554443114008S11726247EA0162001657000000000000
B0554483114065S11726215EA0162701655000000000000
B0554523114073S11726125EA0161601646000000000000
B0554563114045S11726038EA0161201642000000000000
B0555003114008S11725952EA0161201647000000000000
B0555043113964S11725878EA0162001653000000000000
B0555083113899S11725846EA0162201658000000000000
B0555123113833S11725842EA0163001666000000000000
B0555163113792S11725877EA0163701674000000000000
B0555203113824S11725912EA0164901682000000000000
B0555243113890S11725868EA0164701680000000000000
B0555283113903S11725776EA0165601693000000015000
B0555323113842S11725750EA0165601681000000015000
B0555363113831S11725804EA0165401692000000015000
B0555403113869S11725854EA0165501688000000015000
B0555443113917S11725907EA0164001667000000000000
B0555483113978S11725959EA0162801655000000000000
B0555523114052S11726006EA0161001638000000000000
B0555563114130S11726052EA0159901630000000000000
B0556003114210S11726097EA0159701628000000000000
B0556043114285S11726141EA0159401624000000000000
B0556083114357S11726186EA0158901618000000000000
B0556123114426S11726233EA0157801604000000000000
B0556163114492S11726284EA0156401589000000000000
B0556203114546S11726340EA0157201605000000000000
B0556243114582S11726400EA0158601621000000000000
B0556283114606S11726458EA0160201648000000000000
B0556323114657S11726465EA0163201671000000000000
B0556363114671S11726376EA0164501678000000000000
B0556403114611S11726333EA0166001701000000000000
B0556443114578S11726368EA0167601712000000000000
B0556483114614S11726396EA0168601726000000000000
B0556523114663S11726344EA0169801738000000000000
B0556563114643S11726253EA0171301757000000000000
B0557003114583S11726233EA0173601779000000000000
B0557043114557S11726270EA0174801785000000000000
B0557083114592S11726302EA0175201793000000000000
B0557123114648S11726264EA0176701814000000000000
B0557163114641S11726173EA0178201823000000000000
B0557203114580S11726146EA0179601840000000000000
B0557243114558S11726185EA0180601847000000000000
B0557283114600S11726212EA0181301857000000000000
B0557323114658S11726173EA0182701875000000000000
B0557363114676S11726085EA0184001891000000000000
B0557403114639S11726006EA0185501905000000000000
B0557443114578S11725985EA0186701915000000000000
B0557483114544S11726021EA0187501920000000000000
B0557523114571S11726060EA0188101928000000000000
B0557563114631S11726036EA0189101942000000000000
B0558003114654S11725950EA0190501957000000015000
B0558043114614S11725877EA0192001969000000000000
B0558083114553S11725869EA0192701975000000000000
B0558123114528S11725908EA0193301980000000000000
B0558163114544S11725954EA0193101976000000000000
B0558203114600S11725965EA0193001982000000000000
B0558243114636S11725893EA0194401999000000000000
B0558283114596S11725821EA0195502004000000000000
B0558323114537S11725826EA0195902008000000000000
B0558363114513S11725877EA0195902004000000000000
B0558403114528S11725935EA0195402002000000000000
B0558443114570S11725986EA0195902006000000000000
B0558483114623S11726032EA0195401997000000000000
B0558523114684S11726078EA0194401984000000000000
B0558563114753S11726127EA0192701969000000000000
B0559003114826S11726173EA0191601958000000000000
B0559043114903S11726219EA0190701948000000000000
B0559083114977S11726263EA0190201947000000000000
B0559123115052S11726305EA0190201946000000000000
B0559163115129S11726346EA0189801940000000000000
B0559203115206S11726390EA0189201935000000000000
B0559243115282S11726432EA0188701928000000000000
B0559283115356S11726475EA0187801922000000000000
B0559323115427S11726522EA0187301918000000000000
B0559363115490S11726572EA0186901911000000000000
B0559403115553S11726626EA0186301905000000000000
B0559443115615S11726678EA0185801901000000000000
B0559483115677S11726731EA0185501897000000000000
B0559523115741S11726784EA0185301897000000000000
B0559563115805S11726836EA0184901892000000000000
B0600003115862S11726894EA0184501889000000000000
B0600043115906S11726962EA0183501875000000000000
B0600083115953S11727033EA0182701864000000000000
B0600123116001S11727103EA0181701854000000000000
B0600163116053S11727172EA0180601845000000000000
B0600203116105S11727242EA0179801839000000000000
B0600243116157S11727311EA0179401835000000000000
B0600283116210S11727377EA0179101832000000000000
B0600323116266S11727440EA0178501825000000000000
B0600363116324S11727501EA0177901818000000000000
B0600403116381S11727562EA0177601818000000000000
B0600443116422S11727628EA0178001827000000000000
B0600483116450S11727700EA0178701829000000000000
B0600523116476S11727771EA0178301824000000000000
B0600563116496S11727841EA0178101823000000000000
B0601003116519S11727911EA0177401814000000000000
B0601043116542S11727980EA0176901811000000000000
B0601083116561S11728049EA0176301803000000000000
B0601123116582S11728118EA0175201790000000000000
B0601163116610S11728188EA0174201780000000000000
B0601203116637S11728256EA0173601769000000000000
B0601243116675S11728322EA0172101752000000000000
B0601283116727S11728378EA0171301752000000000000
B0601323116769S11728439EA0172401770000000000000
B0601363116795S11728507EA0173901783000000000000
B0601403116812S11728574EA0174201784000000000000
B0601443116824S11728643EA0174101778000000000000
B0601483116836S11728715EA0173301771000000000000
B0601523116846S11728789EA0172501757000000000000
B0601563116863S11728864EA0171001743000000000000
B0602003116885S11728942EA0169701729000000000000
B0602043116915S11729022EA0168601718000000000000
B0602083116946S11729102EA0167301707000000000000
B0602123116980S11729183EA0166701703000000000000
B0602163117018S11729260EA0166201696000000000000
B0602203117067S11729331EA0165401686000000000000
B0602243117127S11729395EA0164501681000000000000
B0602283117185S11729456EA0164001673000000000000
B0602323117247S11729514EA0163601670000000000000
B0602363117306S11729568EA0163301665000000000000
B0602403117369S11729621EA0162301654000000000000
B0602443117434S11729673EA0161401644000000000000
B0602483117501S11729725EA0160601641000000000000
B0602523117565S11729773EA0160501639000000000000
B0602563117627S11729824EA0159801628000000000000
B0603003117690S11729873EA0159401628000000000000
B0603043117747S11729924EA0159201624000000000000
B0603083117806S11729972EA0158501614000000000000
B0603123117861S11730028EA0157501602000000000000
B0603163117902S11730093EA0156701597000000000000
B0603203117943S11730157EA0156201590000000000000
B0603243117995S11730215EA0156101594000000000000
B0603283118041S11730276EA0156201593000000000000
B0603323118089S11730337EA0155501582000000000000
B0603363118137S11730405EA0154301572000000000000
B0603403118186S11730471EA0154001570000000000000
B0603443118237S11730536EA0153401562000000000000
B0603483118292S11730597EA0153101560000000000000
B0603523118348S11730657EA0152401550000000000000
B0603563118410S11730714EA0151001534000000000000
B0604003118475S11730769EA0149801523000000000000
B0604043118541S11730821EA0148701513000000000000
B0604083118609S11730868EA0148401514000000000000
B0604123118677S11730911EA0148101509000000000000
B0604163118744S11730959EA0147101494000000000000
B0604203118810S11731012EA0145701479000000000000
B0604243118877S11731064EA0144601471000000000000
B0604283118944S11731116EA0144401470000000000000
B0604323119003S11731169EA0145001484000000000000
B0604363119042S11731234EA0146501495000000000000
B0604403119064S11731303EA0146601491000000000000
B0604443119086S11731377EA0146501497000000000000
B0604483119108S11731447EA0147101504000000000000
B0604523119126S11731515EA0147401500000000000000
B0604563119150S11731585EA0146401488000000000000
B0605003119176S11731659EA0145101470000000000000
B0605043119216S11731733EA0143401455000000000000
B0605083119269S11731801EA0142501446000000000000
B0605123119329S11731862EA0141801438000000000000
B0605163119394S11731921EA0140501424000000000000
B0605203119462S11731977EA0139801421000000000000
B0605243119531S11732031EA0139301409000000000000
B0605283119602S11732082EA0138001398000000000000
B0605323119674S11732130EA0137201392000000000000
B0605363119744S11732177EA0136401383000000000000
B0605403119811S11732227EA0135301369000000000000
B0605443119879S11732279EA0134101357000000000000
B0605483119948S11732330EA0133201351000000000000
B0605523120016S11732382EA0132801349000000000000
B0605563120082S11732433EA0132401342000000000000
B0606003120149S11732484EA0132101344000000000000
B0606043120207S11732537EA0132001341000000000000
B0606083120240S11732602EA0132001342000000000000
B0606123120256S11732669EA0132201343000000000000
B0606163120261S11732736EA0131901338000000000000
B0606203120270S11732803EA0131001329000000000000
B0606243120292S11732871EA0129901315000000000000
B0606283120333S11732931EA0128601302000000000000
B0606323120385S11732981EA0127401290000000000000
B0606363120445S11733027EA0126501279000000000000
B0606403120507S11733070EA0125401269000000000000
B0606443120572S11733111EA0124401258000000000000
B0606483120637S11733154EA0123301247000000000000
B0606523120702S11733197EA0122601237000000000000
B0606563120767S11733238EA0121901236000000000000
B0607003120831S11733271EA0121901234000000000000
B0607043120896S11733301EA0121301227000000000000
B0607083120959S11733330EA0120701219000000000000
B0607123121022S11733362EA0119801211000000000000
B0607163121083S11733397EA0119101205000000000000
B0607203121141S11733431EA0118501198000000000000
B0607243121199S11733470EA0118101192000000000000
B0607283121253S11733512EA0117501186000000000000
B0607323121306S11733553EA0116901182000000000000
B0607363121357S11733592EA0116301175000000000000
B0607403121408S11733634EA0115701167000000000000
B0607443121457S11733678EA0114601156000000000000
B0607483121509S11733720EA0114301155000000000000
B0607523121560S11733759EA0113901150000000000000
B0607563121612S11733798EA0113301141000000000000
B0608003121665S11733839EA0112301126000000000000
B0608043121717S11733881EA0111701131000000000000
B0608083121771S11733916EA0112101129000000000000
B0608123121829S11733943EA0111401121000000000000
B0608163121889S11733964EA0111101120000000000000
B0608203121951S11733980EA0110401112000000000000
B0608243122018S11733989EA0109201098000000000000
B0608283122088S11733990EA0108401090000000000000
B0608323122158S11733989EA0107401077000000000000
B0608363122229S11733989EA0106301065000000000000
B0608403122302S11733984EA0105001053000000000000
B0608443122375S11733976EA0104901058000000000000
B0608483122441S11733967EA0105101056000000000000
B0608523122509S11733955EA0104301045000000000000
B0608563122578S11733943EA0103401035000000000000
B0609003122648S11733933EA0102601028000000000000
B0609043122717S11733923EA0101601013000000000000
B0609083122787S11733907EA0100701009000000000000
B0609123122853S11733885EA0100801009000000000000
B0609163122918S11733855EA0100001001000000000000
B0609203122989S11733833EA0099100989000000000000
B0609243123061S11733824EA0097500973000000000000
B0609283123134S11733826EA0096500963000000000000
B0609323123204S11733826EA0095700956000000000000
B0609363123269S11733837EA0094700938000000000000
B0609403123333S11733854EA0092900920000000000000
B0609443123399S11733873EA0090700894000000000000
B0609483123474S11733891EA0088400873000000000000
B0609523123544S11733906EA0087900882000000000000
B0609563123606S11733919EA0088600883000000000000
B0610003123669S11733928EA0088300880000000000000
B0610043123727S11733936EA0088400885000000000000
B0610083123783S11733941EA0088700885000000000000
B0610123123844S11733943EA0088700886000000000000
B0610163123900S11733904EA0090100904000000000000
B0610203123891S11733816EA0091000902000000000000
B0610243123830S11733793EA0091700926000000000000
B0610283123800S11733829EA0093600934000000000000
B0610323123832S11733868EA0093700937000000000000
B0610363123888S11733834EA0094900955000000000000
B0610403123883S11733747EA0095300951000000015000
B0610443123821S11733707EA0095500963000000015000
B0610483123779S11733737EA0097000972000000015000
B0610523123814S11733768EA0097800984000000015000
B0610563123858S11733715EA0099100998000000015000
B0611003123844S11733634EA0099801002000000015000
B0611043123786S11733621EA0100401007000000015000
B0611083123791S11733669EA0101101018000000015000
B0611123123847S11733648EA0101901024000000015000
B0611163123845S11733560EA0102301028000000015000
B0611203123782S11733518EA0102501034000000015000
B0611243123731S11733538EA0103401043000000015000
B0611283123747S11733586EA0103701040000000015000
B0611323123814S11733569EA0103601046000000015000
B0611363123857S11733486EA0104501056000000015000
B0611403123860S11733388EA0105401065000000015000
B0611443123797S11733334EA0106001069000000015000
B0611483123749S11733362EA0106901077000000015000
B0611523123801S11733378EA0107301083000000015000
B0611563123819S11733290EA0108701103000000015000
B0612003123763S11733240EA0109501102000000015000
B0612043123728S11733277EA0109901112000000015000
B0612083123767S11733309EA0110501116000000015000
B0612123123822S11733260EA0111301129000000015000
B0612163123812S11733167EA0112401140000000015000
B0612203123752S11733121EA0113001144000000015000
B0612243123706S11733147EA0113501148000000015000
B0612283123705S11733199EA0113701150000000015000
B0612323123749S11733231EA0114301158000000015000
B0612363123808S11733208EA0115601175000000015000
B0612403123841S11733132EA0117101188000000015000
B0612443123822S11733044EA0118501205000000015000
B0612483123766S11733005EA0119701208000000015000
B0612523123718S11733030EA0119601211000000015000
B0612563123721S11733083EA0120001213000000015000
B0613003123771S11733108EA0120301222000000015000
B0613043123830S11733071EA0122201249000000015000
B0613083123851S11732987EA0123901256000000015000
B0613123123813S11732906EA0125001274000000015000
B0613163123752S11732884EA0126901291000000015000
B0613203123726S11732918EA0128001299000000015000
B0613243123760S11732945EA0128301303000000015000
B0613283123813S11732911EA0129101317000000015000
B0613323123817S11732823EA0130101323000000015000
B0613363123760S11732776EA0131401339000000015000
B0613403123723S11732812EA0132201344000000015000
B0613443123758S11732846EA0133001354000000015000
B0613483123808S11732805EA0134101371000000015000
B0613523123801S11732723EA0135401379000000015000
B0613563123741S11732698EA0136001391000000015000
B0614003123718S11732737EA0137401405000000015000
B0614043123748S11732770EA0138601417000000015000
B0614083123799S11732744EA0139801427000000015000
B0614123123810S11732660EA0140901440000000015000
B0614163123758S11732610EA0142301453000000015000
B0614203123717S11732638EA0143401466000000015000
B0614243123739S11732679EA0144701480000000015000
B0614283123789S11732655EA0146201497000000015000
B0614323123799S11732577EA0147901512000000015000
B0614363123745S11732530EA0148801522000000015000
