ACAM4N6
HFDTE201017
HFFXA050
HFPLTPILOT:JOHN WELSH              
HFGTYGLIDERTYPE:HORNET      
HFGIDGLIDERID:VH-GMY      
HFDTM100GPSDATUM:
HFRFWFIRMWAREVERSION:F2.6
HFRHWHARDWAREVERSION:300 Series Version 2
HFFTYFRTYPE:CAMBRIDGE AERO INSTRUMENTS, 302+
HFGPS:GARMIN,LVS-25,12,18000
HFPRSPRESSALTSENSOR:INTERSEMA, MS5534-AP, 20000
I033638FXA3941ENL4247REX
LCAMSBVER:5FWVER:F26300
C201017042320201017000103
C0000000N00000000WTAKEOFF     
C3207549S11656849EBEVAIR      
C3138766S11714465ECUNSIL      
C3256166S11710665ENARSIL      
C3255533S11704932ENARAIR      
C3207549S11656849EBEVAIR      
C0000000N00000000WLANDING     
B0434183207334S11656860EA0012900206000000000000
B0434203207334S11656860EA0012800206000000000000
B0434223207334S11656860EA0012900206000000000000
B0434243207334S11656860EA0012900206000000000000
B0434263207334S11656860EA0012800206000000000000
B0434283207334S11656860EA0012900206000000000000
B0434303207334S11656860EA0012800206000000000000
B0434323207334S11656860EA0012800206000000000000
B0434343207334S11656860EA0012900206000000000000
B0434363207334S11656860EA0012800206000000000000
B0434383207334S11656860EA0012800206000000000000
B0434403207334S11656860EA0012800206000000000000
B0434423207334S11656860EA0012800206000000000000
B0434443207334S11656860EA0012800206000000000000
B0434463207336S11656861EA0012800206000000000000
B0434493207347S11656870EA0012800205000000000000
B0434533207376S11656892EA0012700205000000000000
B0434573207421S11656923EA0012800205000000000000
B0435013207480S11656961EA0012900206000000000000
B0435053207545S11657003EA0013600214000000000000
B0435093207611S11657048EA0014600220000000000000
B0435133207674S11657087EA0016500246000000000000
B0435173207735S11657124EA0018100267000000000000
B0435213207793S11657161EA0019500288000000000000
B0435253207852S11657199EA0021400303000000000000
B0435293207909S11657239EA0022600313000000000000
B0435333207966S11657278EA0023400328000000000000
B0435373208026S11657321EA0024900340000000000000
B0435413208087S11657365EA0026700361000000000000
B0435453208153S11657406EA0028500379000000000000
B0435493208222S11657441EA0029500388000000000000
B0435533208290S11657475EA0030900404000000000000
B0435573208355S11657510EA0032400420000000000000
B0436013208418S11657549EA0033700432000000000000
B0436053208482S11657586EA0035100449000000000000
B0436093208546S11657623EA0036300465000000000000
B0436133208612S11657655EA0038600484000000000000
B0436173208682S11657690EA0039200494000000000000
B0436213208751S11657725EA0041600524000000000000
B0436253208820S11657763EA0043700542000000000000
B0436293208875S11657820EA0046600568000000000000
B0436333208907S11657892EA0048200588000000000000
B0436373208918S11657966EA0050600613000000000000
B0436413208915S11658040EA0052900634000000000000
B0436453208901S11658108EA0055000657000000000000
B0436493208873S11658167EA0057300680000000000000
B0436533208831S11658218EA0059800704000000000000
B0436573208779S11658265EA0061400720000000000000
B0437013208716S11658299EA0063200737000000000000
B0437053208645S11658313EA0064900754000000000000
B0437093208571S11658308EA0066600771000000000000
B0437133208498S11658287EA0068900797000000000000
B0437173208428S11658251EA0070900822000000000000
B0437213208360S11658210EA0072800837000000000000
B0437253208299S11658208EA0073900842000000000000
B0437293208256S11658243EA0074500848000000000000
B0437333208218S11658286EA0075100855000000000000
B0437373208213S11658335EA0075800860000000000000
B0437413208266S11658320EA0075700841000000000000
B0437453208270S11658230EA0075800856000000000000
B0437493208225S11658188EA0077200866000000000000
B0437533208175S11658197EA0077600871000000000000
B0437573208165S11658239EA0077700869000000000000
B0438013208213S11658247EA0078300878000000000000
B0438053208240S11658178EA0078700882000000000000
B0438093208197S11658128EA0079500893000000000000
B0438133208156S11658144EA0080000894000000000000
B0438173208174S11658184EA0080600901000000000000
B0438213208226S11658162EA0081600914000000000000
B0438253208239S11658087EA0082100918000000000000
B0438293208194S11658039EA0082200921000000000000
B0438333208144S11658054EA0082400920000000000000
B0438373208156S11658101EA0083300935000000000000
B0438413208207S11658093EA0085000950000000000000
B0438453208242S11658028EA0085600955000000000000
B0438493208230S11657949EA0086600969000000000000
B0438533208178S11657909EA0087600978000000000000
B0438573208130S11657928EA0088200982000000000000
B0439013208136S11657975EA0089200997000000000000
B0439053208184S11657975EA0090601010000000000000
B0439093208221S11657911EA0091601021000000000000
B0439133208197S11657833EA0093001037000000000000
B0439173208143S11657818EA0094801052000000000000
B0439213208123S11657857EA0095801062000000000000
B0439253208160S11657880EA0096901072000000000000
B0439293208208S11657837EA0098401091000000000000
B0439333208212S11657757EA0099801110000000000000
B0439373208162S11657715EA0101401122000000000000
B0439413208122S11657746EA0102001128000000000000
B0439453208152S11657781EA0103301144000000000000
B0439493208201S11657750EA0105201166000000000000
B0439533208217S11657675EA0106901179000000000000
B0439573208177S11657616EA0108301195000000000000
B0440013208129S11657627EA0109901210000000000000
B0440053208130S11657671EA0110601215000000000000
B0440093208182S11657680EA0111601229000000000000
B0440133208230S11657632EA0113301247000000000000
B0440173208231S11657550EA0114901260000000000000
B0440213208184S11657506EA0116001272000000000000
B0440253208139S11657528EA0117101284000000000000
B0440293208152S11657569EA0118301303000000000000
B0440333208204S11657551EA0119901317000000000000
B0440373208227S11657473EA0121501334000000000000
B0440413208197S11657403EA0123101346000000000000
B0440453208143S11657382EA0123601353000000000000
B0440493208110S11657423EA0124601363000000000000
B0440533208142S11657458EA0125801377000000000000
B0440573208195S11657425EA0127201389000000000000
B0441013208200S11657343EA0128901408000000000000
B0441053208152S11657299EA0130601425000000000000
B0441093208108S11657320EA0132001436000000000000
B0441133208113S11657368EA0132401440000000000000
B0441173208166S11657373EA0133401450000000000000
B0441213208205S11657306EA0134101462000000000000
B0441253208182S11657226EA0135701481000000000000
B0441293208126S11657204EA0137301496000000000000
B0441333208097S11657242EA0138701506000000000000
B0441373208132S11657273EA0139501516000000000000
B0441413208187S11657238EA0140101519000000000000
B0441453208191S11657153EA0141201533000000000000
B0441493208140S11657107EA0142501547000000000000
B0441533208095S11657129EA0143801558000000000000
B0441573208105S11657174EA0144401566000000000000
B0442013208160S11657170EA0144901569000000000000
B0442053208195S11657096EA0145501576000000000000
B0442093208164S11657029EA0146601586000000000000
B0442133208106S11657023EA0147101596000000000000
B0442173208090S11657062EA0148301605000000000000
B0442213208134S11657077EA0149001610000000000000
B0442253208182S11657022EA0149001614000000000000
B0442293208170S11656945EA0150301629000000000000
B0442333208114S11656927EA0151001629000000000000
B0442373208093S11656971EA0151501641000000000000
B0442413208138S11656987EA0152601646000000000000
B0442453208175S11656925EA0153001654000000000000
B0442493208149S11656854EA0153801662000000000000
B0442533208093S11656839EA0154501668000000000000
B0442573208070S11656879EA0155101675000000000000
B0443013208101S11656913EA0155701676000000000000
B0443053208157S11656890EA0156101684000000000000
B0443093208158S11656809EA0157001694000000000000
B0443133208104S11656778EA0157001690000000000000
B0443173208062S11656813EA0157301694000000000000
B0443213208069S11656864EA0156501682000000000000
B0443253208122S11656882EA0155701679000000000000
B0443293208175S11656836EA0157001695000000000000
B0443333208207S11656761EA0157401699000000000000
B0443373208199S11656676EA0157401697000000000000
B0443413208147S11656632EA0157901705000000000000
B0443453208092S11656639EA0159001716000000000000
B0443493208064S11656676EA0159401716000000000000
B0443533208091S11656713EA0158001694000000000000
B0443573208157S11656693EA0157101698000000000000
B0444013208196S11656626EA0159301723000000000000
B0444053208183S11656549EA0160101723000000000000
B0444093208126S11656519EA0159701719000000000000
B0444133208079S11656549EA0160601729000000000000
B0444173208075S11656596EA0159801716000000000000
B0444213208125S11656620EA0157701692000000000000
B0444253208192S11656583EA0158201705000000000000
B0444293208208S11656498EA0159701725000000000000
B0444333208166S11656437EA0160301723000000000000
B0444373208106S11656442EA0160001726000000000000
B0444413208100S11656493EA0160301718000000000000
B0444453208157S11656498EA0158701706000000000000
B0444493208196S11656428EA0159701727000000000000
B0444533208168S11656353EA0160701734000000000000
B0444573208106S11656337EA0160801734000000000000
B0445013208074S11656376EA0161001732000000000000
B0445053208100S11656416EA0160101717000000000000
B0445093208157S11656389EA0158901713000000000000
B0445133208195S11656315EA0159801725000000000000
B0445173208203S11656225EA0160201729000000000000
B0445213208168S11656151EA0160801736000000000000
B0445253208113S11656141EA0161801745000000000000
B0445293208092S11656182EA0162201747000000000000
B0445333208122S11656220EA0160701728000000000000
B0445373208178S11656188EA0160701737000000000000
B0445413208200S11656107EA0161701744000000000000
B0445453208170S11656028EA0161801746000000000000
B0445493208110S11655995EA0162001749000000000000
B0445533208060S11656024EA0162401753000000000000
B0445573208039S11656074EA0162301748000000000000
B0446013208031S11656132EA0160501725000000000000
B0446053208019S11656195EA0158501703000000000000
B0446093208010S11656263EA0157601693000000000000
B0446133208005S11656329EA0156501680000000000000
B0446173207993S11656397EA0155301670000000000000
B0446213207991S11656468EA0154001655000000000000
B0446253207986S11656539EA0152701647000000000000
B0446293207980S11656605EA0152101640000000000000
B0446333207988S11656671EA0151101631000000000000
B0446373208002S11656739EA0149801615000000000000
B0446413208015S11656809EA0148401602000000000000
B0446453208027S11656880EA0147601593000000000000
B0446493208041S11656949EA0146701582000000000000
B0446533208061S11657016EA0145501570000000000000
B0446573208079S11657087EA0144101554000000000000
B0447013208097S11657163EA0143201548000000000000
B0447053208103S11657238EA0142801545000000000000
B0447093208108S11657308EA0143201552000000000000
B0447133208112S11657374EA0143101549000000000000
B0447173208109S11657443EA0142301537000000000000
B0447213208105S11657515EA0141201528000000000000
B0447253208116S11657588EA0141001530000000000000
B0447293208123S11657659EA0141101529000000000000
B0447333208106S11657725EA0141401534000000000000
B0447373208074S11657780EA0141601535000000000000
B0447413208041S11657835EA0141401532000000000000
B0447453208010S11657894EA0140501518000000000000
B0447493207975S11657953EA0139501514000000000000
B0447533207944S11658006EA0139201509000000000000
B0447573207915S11658057EA0138501501000000000000
B0448013207883S11658104EA0137201486000000000000
B0448053207835S11658140EA0135301467000000000000
B0448093207774S11658158EA0134201453000000000000
B0448133207706S11658158EA0133101446000000000000
B0448173207640S11658141EA0132501440000000000000
B0448213207575S11658115EA0131601430000000000000
B0448253207511S11658084EA0130301417000000000000
B0448293207445S11658054EA0128901404000000000000
B0448333207378S11658026EA0127801396000000000000
B0448373207313S11657996EA0126801381000000000000
B0448413207246S11657962EA0125501366000000000000
B0448453207178S11657928EA0124301356000000000000
B0448493207113S11657897EA0123601350000000000000
B0448533207050S11657867EA0122701341000000000000
B0448573206985S11657837EA0122001335000000000000
B0449013206921S11657809EA0121101325000000000000
B0449053206857S11657779EA0119701311000000000000
B0449093206791S11657748EA0118201294000000000000
B0449133206727S11657714EA0117801293000000000000
B0449173206667S11657679EA0117701295000000000000
B0449213206611S11657642EA0118001297000000000000
B0449253206554S11657616EA0118501304000000000000
B0449293206504S11657627EA0120001318000000000000
B0449333206472S11657662EA0121401328000000000000
B0449373206446S11657705EA0121501327000000000000
B0449413206432S11657758EA0121301326000000000000
B0449453206480S11657784EA0122101335000000000000
B0449493206530S11657723EA0121601331000000000000
B0449533206520S11657645EA0121601332000000000000
B0449573206479S11657589EA0121301328000000000000
B0450013206429S11657547EA0121401333000000000000
B0450053206400S11657582EA0122301334000000000000
B0450093206454S11657620EA0122001339000000000000
B0450133206519S11657581EA0122801347000000000000
B0450173206536S11657495EA0122801346000000000000
B0450213206500S11657426EA0123101352000000000000
B0450253206450S11657421EA0124401363000000000000
B0450293206450S11657475EA0125101372000000000000
B0450333206509S11657490EA0126301386000000000000
B0450373206569S11657445EA0126601384000000000000
B0450413206588S11657356EA0126401385000000000000
B0450453206550S11657287EA0127101395000000000000
B0450493206496S11657286EA0128601408000000000000
B0450533206471S11657341EA0129601420000000000000
B0450573206498S11657404EA0130301425000000000000
B0451013206566S11657428EA0131401436000000000000
B0451053206632S11657387EA0132101441000000000000
B0451093206654S11657302EA0132101437000000000000
B0451133206624S11657228EA0132101445000000000000
B0451173206574S11657203EA0132901450000000000000
B0451213206526S11657220EA0133101454000000000000
B0451253206483S11657257EA0134601467000000000000
B0451293206491S11657313EA0136101479000000000000
B0451333206556S11657320EA0136201474000000000000
B0451373206593S11657250EA0136401485000000000000
B0451413206563S11657194EA0137501496000000000000
B0451453206520S11657205EA0138901510000000000000
B0451493206517S11657257EA0139801515000000000000
B0451533206562S11657298EA0140101518000000000000
B0451573206631S11657289EA0140101517000000000000
B0452013206678S11657224EA0140001515000000000000
B0452053206675S11657139EA0140301522000000000000
B0452093206634S11657094EA0141101531000000000000
B0452133206601S11657125EA0142101542000000000000
B0452173206631S11657174EA0143201552000000000000
B0452213206695S11657181EA0143101550000000000000
B0452253206745S11657122EA0143101550000000000000
B0452293206743S11657042EA0143001553000000000000
B0452333206697S11656997EA0143601560000000000000
B0452373206649S11657003EA0144101564000000000000
B0452413206631S11657049EA0144601570000000000000
B0452453206678S11657087EA0145701583000000000000
B0452493206741S11657061EA0146101587000000000000
B0452533206760S11656981EA0146401592000000000000
B0452573206721S11656938EA0147201599000000000000
B0453013206688S11656964EA0148101607000000000000
B0453053206702S11657017EA0148501609000000000000
B0453093206761S11657047EA0148301603000000000000
B0453133206827S11657016EA0148101607000000000000
B0453173206860S11656940EA0149201619000000000000
B0453213206847S11656866EA0150101625000000000000
B0453253206806S11656858EA0150701630000000000000
B0453293206805S11656908EA0150801631000000000000
B0453333206857S11656939EA0151001635000000000000
B0453373206921S11656910EA0151401637000000000000
B0453413206956S11656835EA0151101634000000000000
B0453453206943S11656754EA0150901635000000000000
B0453493206903S11656719EA0151601640000000000000
B0453533206864S11656736EA0151701639000000000000
B0453573206832S11656774EA0151601638000000000000
B0454013206805S11656819EA0151601640000000000000
B0454053206779S11656865EA0151701641000000000000
B0454093206753S11656912EA0151801638000000000000
B0454133206730S11656961EA0151201632000000000000
B0454173206718S11657013EA0150701625000000000000
B0454213206731S11657066EA0149501611000000000000
B0454253206769S11657114EA0148001598000000000000
B0454293206821S11657153EA0147501594000000000000
B0454333206866S11657198EA0147201592000000000000
B0454373206886S11657252EA0147701601000000000000
B0454413206891S11657308EA0148201604000000000000
B0454453206888S11657363EA0148901613000000000000
B0454493206878S11657417EA0149401614000000000000
B0454533206866S11657472EA0149301613000000000000
B0454573206853S11657527EA0149301613000000000000
B0455013206840S11657581EA0149001607000000000000
B0455053206819S11657634EA0148901606000000000000
B0455093206800S11657688EA0148201598000000000000
B0455133206795S11657746EA0147301587000000000000
B0455173206816S11657802EA0146401580000000000000
B0455213206861S11657846EA0146101580000000000000
B0455253206918S11657875EA0146101580000000000000
B0455293206983S11657891EA0146001576000000000000
B0455333207055S11657887EA0145301569000000000000
B0455373207126S11657870EA0144901566000000000000
B0455413207196S11657849EA0144901567000000000000
B0455453207264S11657827EA0145001569000000000000
B0455493207330S11657801EA0145201573000000000000
B0455533207388S11657753EA0145501574000000000000
B0455573207438S11657689EA0145101571000000000000
B0456013207485S11657619EA0145001570000000000000
B0456053207533S11657549EA0143901553000000000000
B0456093207586S11657476EA0142101541000000000000
B0456133207640S11657411EA0141801538000000000000
B0456173207690S11657348EA0141001530000000000000
B0456213207745S11657290EA0139801514000000000000
B0456253207802S11657226EA0138701506000000000000
B0456293207852S11657155EA0138401505000000000000
B0456333207901S11657082EA0138101501000000000000
B0456373207947S11657001EA0137701499000000000000
B0456413207975S11656916EA0138101505000000000000
B0456453208002S11656835EA0139101518000000000000
B0456493208001S11656757EA0139801521000000000000
B0456533207956S11656728EA0139601514000000000000
B0456573207926S11656763EA0138801508000000000000
B0457013207943S11656815EA0138101499000000000000
B0457053207996S11656832EA0137701494000000000000
B0457093208060S11656801EA0137601497000000000000
B0457133208090S11656731EA0138601507000000000000
B0457173208049S11656682EA0138601501000000000000
B0457213208010S11656709EA0138501503000000000000
B0457253208010S11656766EA0138301500000000000000
B0457293208057S11656804EA0137601492000000000000
B0457333208123S11656778EA0138001504000000000000
B0457373208177S11656718EA0139201517000000000000
B0457413208169S11656640EA0140101525000000000000
B0457453208114S11656618EA0140701528000000000000
B0457493208088S11656659EA0141101531000000000000
B0457533208114S11656702EA0141901542000000000000
B0457573208168S11656698EA0142501546000000000000
B0458013208205S11656637EA0143001554000000000000
B0458053208186S11656567EA0143401557000000000000
B0458093208131S11656542EA0143301554000000000000
B0458133208096S11656580EA0143501555000000000000
B0458173208116S11656630EA0143801557000000000000
B0458213208178S11656632EA0143801562000000000000
B0458253208226S11656581EA0144901575000000000000
B0458293208222S11656509EA0145701580000000000000
B0458333208170S11656479EA0145601576000000000000
B0458373208140S11656519EA0146001583000000000000
B0458413208168S11656565EA0146601586000000000000
B0458453208225S11656554EA0147001593000000000000
B0458493208253S11656485EA0147301596000000000000
B0458533208223S11656418EA0147501600000000000000
B0458573208170S11656411EA0147601594000000000000
B0459013208143S11656459EA0147401596000000000000
B0459053208168S11656509EA0148501609000000000000
B0459093208223S11656511EA0149601618000000000000
B0459133208274S11656463EA0149701620000000000000
B0459173208279S11656386EA0150201625000000000000
B0459213208235S11656334EA0150101623000000000000
B0459253208186S11656346EA0150301624000000000000
B0459293208171S11656398EA0150201624000000000000
B0459333208197S11656454EA0150501626000000000000
B0459373208249S11656489EA0151101635000000000000
B0459413208314S11656470EA0151501636000000000000
B0459453208356S11656396EA0151401638000000000000
B0459493208389S11656314EA0151301638000000000000
B0459533208411S11656228EA0151701645000000000000
B0459573208386S11656154EA0152501652000000000000
B0500013208334S11656138EA0152601650000000000000
B0500053208307S11656184EA0152401646000000000000
B0500093208309S11656245EA0151801637000000000000
B0500133208320S11656312EA0151401637000000000000
B0500173208333S11656379EA0151501636000000000000
B0500213208346S11656446EA0151301635000000000000
B0500253208373S11656506EA0152701652000000000000
B0500293208434S11656492EA0154901677000000000000
B0500333208459S11656422EA0156301687000000000000
B0500373208430S11656360EA0156401690000000000000
B0500413208382S11656362EA0156801691000000000000
B0500453208364S11656410EA0157201693000000000000
B0500493208392S11656462EA0157601699000000000000
B0500533208452S11656461EA0159001715000000000000
B0500573208499S11656405EA0159601722000000000000
B0501013208496S11656328EA0160301728000000000000
B0501053208450S11656284EA0160301730000000000000
B0501093208398S11656294EA0161101737000000000000
B0501133208366S11656341EA0161901745000000000000
B0501173208376S11656397EA0162601752000000000000
B0501213208433S11656399EA0163701766000000000000
B0501253208468S11656333EA0165101778000000000000
B0501293208444S11656266EA0166101790000000000000
B0501333208396S11656268EA0167001797000000000000
B0501373208389S11656320EA0167501802000000000000
B0501413208435S11656351EA0168701817000000000000
B0501453208494S11656319EA0169801831000000000000
B0501493208524S11656246EA0170401837000000000000
B0501533208504S11656172EA0171301847000000000000
B0501573208452S11656145EA0171801851000000000000
B0502013208411S11656176EA0173001865000000000000
B0502053208418S11656229EA0173801868000000000000
B0502093208469S11656251EA0174701882000000000000
B0502133208524S11656214EA0175701892000000000000
B0502173208545S11656138EA0176501900000000000000
B0502213208516S11656072EA0177101908000000000000
B0502253208464S11656064EA0177601911000000000000
B0502293208435S11656106EA0178701924000000000000
B0502333208448S11656160EA0179001925000000000000
B0502373208503S11656173EA0180201939000000000000
B0502413208548S11656121EA0181301950000000000000
B0502453208546S11656043EA0181601950000000000000
B0502493208494S11656011EA0182401961000000000000
B0502533208476S11656056EA0183901976000000000000
B0502573208521S11656082EA0184801984000000000000
B0503013208576S11656045EA0185601996000000000000
B0503053208591S11655968EA0186402001000000000000
B0503093208546S11655915EA0186702006000000000000
B0503133208503S11655939EA0187602018000000000000
B0503173208519S11655990EA0188902031000000000000
B0503213208577S11655989EA0190102042000000000000
B0503253208616S11655924EA0191202054000000000000
B0503293208599S11655847EA0191802060000000000000
B0503333208545S11655827EA0192502062000000000000
B0503373208520S11655873EA0193202071000000000000
B0503413208555S11655915EA0194402083000000000000
B0503453208615S11655896EA0195402091000000000000
B0503493208641S11655822EA0196702104000000000000
B0503533208613S11655753EA0196802103000000000000
B0503573208559S11655746EA0196602105000000000000
B0504013208529S11655790EA0197402115000000000000
B0504053208546S11655844EA0198402124000000000000
B0504093208603S11655850EA0199302135000000000000
B0504133208639S11655787EA0200102141000000000000
B0504173208620S11655717EA0200602146000000000000
B0504213208571S11655700EA0201502156000000000000
B0504253208546S11655739EA0202202163000000000000
B0504293208568S11655786EA0202902168000000000000
B0504333208624S11655779EA0203302171000000000000
B0504373208654S11655710EA0203302172000000000000
B0504413208625S11655640EA0203502177000000000000
B0504453208574S11655636EA0204602187000000000000
B0504493208551S11655681EA0205202193000000000000
B0504533208545S11655742EA0204602180000000000000
B0504573208524S11655812EA0203502170000000000000
B0505013208493S11655887EA0202502160000000000000
B0505053208454S11655961EA0201902154000000000000
B0505093208409S11656035EA0201602151000000000000
B0505133208364S11656107EA0200902144000000000000
B0505173208314S11656173EA0200602139000000000000
B0505213208257S11656230EA0199502128000000000000
B0505253208192S11656280EA0198902122000000000000
B0505293208125S11656323EA0198602121000000000000
B0505333208060S11656362EA0198402117000000000000
B0505373207996S11656406EA0197902110000000000000
B0505413207936S11656453EA0197802112000000000000
B0505453207879S11656496EA0198002114000000000000
B0505493207826S11656537EA0197902113000000000000
B0505533207771S11656576EA0197702111000000000000
B0505573207714S11656617EA0197502106000000000000
B0506013207655S11656656EA0196802100000000000000
B0506053207594S11656693EA0196402097000000000000
B0506093207533S11656730EA0196202094000000000000
B0506133207472S11656766EA0195402086000000000000
B0506173207410S11656800EA0194602079000000000000
B0506213207346S11656832EA0194302076000000000000
B0506253207278S11656864EA0193502066000000000000
B0506293207209S11656893EA0193002059000000000000
B0506333207139S11656922EA0193102058000000000000
B0506373207068S11656952EA0192302047000000000000
B0506413206994S11656982EA0191402043000000000000
B0506453206918S11657013EA0190502032000000000000
B0506493206840S11657043EA0189602021000000000000
B0506533206762S11657072EA0188402010000000000000
B0506573206684S11657099EA0187001993000000000000
B0507013206605S11657124EA0186001988000000000000
B0507053206526S11657144EA0185701980000000000000
B0507093206449S11657164EA0185701988000000000000
B0507133206377S11657179EA0186201993000000000000
B0507173206306S11657198EA0185801985000000000000
B0507213206232S11657216EA0184601971000000000000
B0507253206156S11657234EA0183601964000000000000
B0507293206082S11657252EA0182601950000000000000
B0507333206007S11657272EA0181601946000000000000
B0507373205934S11657290EA0181401940000000000000
B0507413205857S11657311EA0180101925000000000000
B0507453205785S11657341EA0179401919000000000000
B0507493205718S11657380EA0178801912000000000000
B0507533205653S11657423EA0177501898000000000000
B0507573205590S11657467EA0177101898000000000000
B0508013205531S11657512EA0177901908000000000000
B0508053205479S11657563EA0178101910000000000000
B0508093205426S11657610EA0178601915000000000000
B0508133205373S11657658EA0179101920000000000000
B0508173205317S11657703EA0179201920000000000000
B0508213205261S11657753EA0179401920000000000000
B0508253205210S11657802EA0180301929000000000000
B0508293205162S11657849EA0181101939000000000000
B0508333205119S11657898EA0181001926000000000000
B0508373205074S11657959EA0179301900000000000000
B0508413205025S11658023EA0177501893000000000000
B0508453204970S11658082EA0176201873000000000000
B0508493204906S11658130EA0175501869000000000000
B0508533204837S11658173EA0174901858000000000000
B0508573204763S11658206EA0174001855000000000000
B0509013204689S11658232EA0173901853000000000000
B0509053204612S11658255EA0173201843000000000000
B0509093204537S11658275EA0172501840000000000000
B0509133204466S11658303EA0172601850000000000000
B0509173204413S11658344EA0173901860000000000000
B0509213204368S11658394EA0174201864000000000000
B0509253204325S11658447EA0174601868000000000000
B0509293204287S11658503EA0174801871000000000000
B0509333204249S11658556EA0175201873000000000000
B0509373204210S11658604EA0176001885000000000000
B0509413204170S11658651EA0176901892000000000000
B0509453204144S11658703EA0178301910000000000000
B0509493204182S11658736EA0179701917000000000000
B0509533204225S11658680EA0178501895000000000000
B0509573204191S11658609EA0177001894000000000000
B0510013204128S11658591EA0177501900000000000000
B0510053204065S11658603EA0176901883000000000000
B0510093204000S11658641EA0174601861000000000000
B0510133203931S11658686EA0172901847000000000000
B0510173203862S11658729EA0173301856000000000000
B0510213203801S11658776EA0174501873000000000000
B0510253203744S11658820EA0176101886000000000000
B0510293203692S11658867EA0177901906000000000000
B0510333203646S11658914EA0180601935000000000000
B0510373203662S11658963EA0182601950000000000000
B0510413203707S11658927EA0182901952000000000000
B0510453203697S11658843EA0183201956000000000000
B0510493203644S11658790EA0184401978000000000000
B0510533203592S11658806EA0186801998000000000000
B0510573203592S11658858EA0187902004000000000000
B0511013203640S11658871EA0188702013000000000000
B0511053203671S11658810EA0189902026000000000000
B0511093203649S11658732EA0190602031000000000000
B0511133203586S11658694EA0191702046000000000000
B0511173203523S11658703EA0191802037000000000000
B0511213203454S11658747EA0189101998000000000000
B0511253203372S11658802EA0186401982000000000000
B0511293203287S11658853EA0185701972000000000000
B0511333203204S11658905EA0184301956000000000000
B0511373203125S11658958EA0183401957000000000000
B0511413203051S11659012EA0184601970000000000000
B0511453202984S11659067EA0185201976000000000000
B0511493202917S11659119EA0185701981000000000000
B0511533202845S11659166EA0185501977000000000000
B0511573202774S11659211EA0184301961000000000000
B0512013202701S11659259EA0182701949000000000000
B0512053202631S11659310EA0181901942000000000000
B0512093202562S11659361EA0181201936000000000000
B0512133202493S11659410EA0180701931000000000000
B0512173202427S11659457EA0180701935000000000000
B0512213202366S11659506EA0180901936000000000000
B0512253202298S11659548EA0180201924000000000000
B0512293202229S11659591EA0178901907000000000000
B0512333202163S11659635EA0178301903000000000000
B0512373202095S11659681EA0178201908000000000000
B0512413202033S11659729EA0179701923000000000000
B0512453201978S11659776EA0181301944000000000000
B0512493201929S11659822EA0183401967000000000000
B0512533201882S11659867EA0184001966000000000000
B0512573201830S11659916EA0184001966000000000000
B0513013201785S11659968EA0185901990000000000000
B0513053201739S11700017EA0186501991000000000000
B0513093201688S11700073EA0186101983000000000000
B0513133201634S11700129EA0185901986000000000000
B0513173201579S11700184EA0186401992000000000000
B0513213201525S11700241EA0186101983000000000000
B0513253201463S11700298EA0184701967000000000000
B0513293201404S11700355EA0183101952000000000000
B0513333201345S11700414EA0182201950000000000000
B0513373201292S11700474EA0182301948000000000000
B0513413201239S11700531EA0181301937000000000000
B0513453201170S11700575EA0179801911000000000000
B0513493201086S11700605EA0178501907000000000000
B0513533201011S11700637EA0179401919000000000000
B0513573200943S11700679EA0180201923000000000000
B0514013200877S11700723EA0179401912000000000000
B0514053200810S11700767EA0178101901000000000000
B0514093200748S11700817EA0177501896000000000000
B0514133200680S11700861EA0175301868000000000000
B0514173200602S11700896EA0174001861000000000000
B0514213200527S11700929EA0173901857000000000000
B0514253200453S11700952EA0173601855000000000000
B0514293200379S11700972EA0173101847000000000000
B0514333200305S11700994EA0171801836000000000000
B0514373200235S11701020EA0171001829000000000000
B0514413200166S11701046EA0170301820000000000000
B0514453200100S11701070EA0169101810000000000000
B0514493200030S11701091EA0168301801000000000000
B0514533159959S11701116EA0167701796000000000000
B0514573159889S11701142EA0167201792000000000000
B0515013159823S11701169EA0165901784000000000000
B0515053159755S11701196EA0165401776000000000000
B0515093159688S11701224EA0164601769000000000000
B0515133159617S11701248EA0164201764000000000000
B0515173159547S11701272EA0163301755000000000000
B0515213159477S11701298EA0162301746000000000000
B0515253159409S11701328EA0161501737000000000000
B0515293159341S11701356EA0160301721000000000000
B0515333159266S11701385EA0158601704000000000000
B0515373159190S11701411EA0157201696000000000000
B0515413159116S11701434EA0157001693000000000000
B0515453159044S11701454EA0156601688000000000000
B0515493158974S11701473EA0156001684000000000000
B0515533158906S11701494EA0155901680000000000000
B0515573158837S11701516EA0155201672000000000000
B0516013158770S11701541EA0154401664000000000000
B0516053158701S11701568EA0153701656000000000000
B0516093158636S11701597EA0153701656000000000000
B0516133158584S11701642EA0154001660000000000000
B0516173158536S11701692EA0153601654000000000000
B0516213158489S11701741EA0153101651000000000000
B0516253158444S11701792EA0152601644000000000000
B0516293158395S11701840EA0152301643000000000000
B0516333158347S11701885EA0153201656000000000000
B0516373158303S11701926EA0153601660000000000000
B0516413158255S11701965EA0153301652000000000000
B0516453158211S11702013EA0153001652000000000000
B0516493158167S11702060EA0153301657000000000000
B0516533158124S11702105EA0154001665000000000000
B0516573158081S11702153EA0154301666000000000000
B0517013158039S11702197EA0155401679000000000000
B0517053157996S11702243EA0155001667000000000000
B0517093157951S11702294EA0153401653000000000000
B0517133157903S11702342EA0153001650000000000000
B0517173157855S11702389EA0152801647000000000000
B0517213157805S11702434EA0151701634000000000000
B0517253157748S11702477EA0149901609000000000000
B0517293157677S11702509EA0147901598000000000000
B0517333157602S11702537EA0147301594000000000000
B0517373157530S11702561EA0147001589000000000000
B0517413157459S11702584EA0146201581000000000000
B0517453157389S11702611EA0145401573000000000000
B0517493157320S11702637EA0144901565000000000000
B0517533157251S11702664EA0143701550000000000000
B0517573157181S11702688EA0141901530000000000000
B0518013157107S11702706EA0140401514000000000000
B0518053157034S11702724EA0139601509000000000000
B0518093156967S11702750EA0139001501000000000000
B0518133156899S11702777EA0138201492000000000000
B0518173156843S11702821EA0138101492000000000000
B0518213156793S11702872EA0137301481000000000000
B0518253156735S11702914EA0136201473000000000000
B0518293156678S11702957EA0135601464000000000000
B0518333156621S11703000EA0134801457000000000000
B0518373156565S11703042EA0133901447000000000000
B0518413156507S11703084EA0132701433000000000000
B0518453156444S11703123EA0131601426000000000000
B0518493156380S11703159EA0131601427000000000000
B0518533156327S11703200EA0132901444000000000000
B0518573156328S11703257EA0134401460000000000000
B0519013156353S11703312EA0134601453000000000000
B0519053156349S11703373EA0133901450000000000000
B0519093156325S11703425EA0134101449000000000000
B0519133156293S11703475EA0134001450000000000000
B0519173156263S11703529EA0133201443000000000000
B0519213156230S11703585EA0132401433000000000000
B0519253156193S11703647EA0131501426000000000000
B0519293156156S11703708EA0132201437000000000000
B0519333156115S11703768EA0132601440000000000000
B0519373156076S11703828EA0132501436000000000000
B0519413156037S11703894EA0131401423000000000000
B0519453155996S11703960EA0130301412000000000000
B0519493155950S11704025EA0129101397000000000000
B0519533155894S11704081EA0127801389000000000000
B0519573155833S11704127EA0127201382000000000000
B0520013155767S11704166EA0126201370000000000000
B0520053155697S11704198EA0124701357000000000000
B0520093155626S11704227EA0124301352000000000000
B0520133155556S11704254EA0123801345000000000000
B0520173155487S11704281EA0123301343000000000000
B0520213155430S11704323EA0123801350000000000000
B0520253155391S11704379EA0124001351000000000000
B0520293155361S11704441EA0124201356000000000000
B0520333155333S11704502EA0124801360000000000000
B0520373155301S11704562EA0124101351000000000000
B0520413155272S11704625EA0123101342000000000000
B0520453155236S11704684EA0121601325000000000000
B0520493155194S11704742EA0120601309000000000000
B0520533155138S11704788EA0118701289000000000000
B0520573155074S11704825EA0116801272000000000000
B0521013155006S11704857EA0115601264000000000000
B0521053154937S11704890EA0115101256000000000000
B0521093154869S11704929EA0114101246000000000000
B0521133154809S11704977EA0115201261000000000000
B0521173154815S11705038EA0117801289000000000000
B0521213154882S11705038EA0117601277000000000000
B0521253154917S11704959EA0116301266000000000000
B0521293154884S11704883EA0116201264000000000000
B0521333154826S11704838EA0115501258000000000000
B0521373154761S11704839EA0115501262000000000000
B0521413154711S11704879EA0116101268000000000000
B0521453154675S11704937EA0115601256000000000000
B0521493154632S11704999EA0114001244000000000000
B0521533154579S11705059EA0113901248000000000000
B0521573154529S11705121EA0113801242000000000000
B0522013154482S11705191EA0113201238000000000000
B0522053154446S11705264EA0114101248000000000000
B0522093154469S11705323EA0116201273000000000000
B0522133154519S11705271EA0116901278000000000000
B0522173154497S11705187EA0117201282000000000000
B0522213154433S11705173EA0117701285000000000000
B0522253154420S11705225EA0118301293000000000000
B0522293154475S11705238EA0119501303000000000000
B0522333154523S11705177EA0119301302000000000000
B0522373154512S11705094EA0119501304000000000000
B0522413154453S11705073EA0119401303000000000000
B0522453154427S11705125EA0119801307000000000000
B0522493154473S11705165EA0120401315000000000000
B0522533154544S11705141EA0120601316000000000000
B0522573154584S11705063EA0121001321000000000000
B0523013154564S11704990EA0121701329000000000000
B0523053154511S11704985EA0121801329000000000000
B0523093154475S11705035EA0121501323000000000000
B0523133154441S11705094EA0121801326000000000000
B0523173154411S11705154EA0122001326000000000000
B0523213154382S11705217EA0122101334000000000000
B0523253154355S11705280EA0122701339000000000000
B0523293154329S11705343EA0122901338000000000000
B0523333154303S11705408EA0123501346000000000000
B0523373154271S11705471EA0123801351000000000000
B0523413154237S11705531EA0125101367000000000000
B0523453154252S11705583EA0127401392000000000000
B0523493154298S11705540EA0128601399000000000000
B0523533154277S11705467EA0128401396000000000000
B0523573154216S11705460EA0128801403000000000000
B0524013154198S11705512EA0129701412000000000000
B0524053154248S11705527EA0130101414000000000000
B0524093154281S11705454EA0130601425000000000000
B0524133154245S11705385EA0131701436000000000000
B0524173154186S11705386EA0132601442000000000000
B0524213154170S11705444EA0133401452000000000000
B0524253154212S11705476EA0134701463000000000000
B0524293154263S11705446EA0135101464000000000000
B0524333154265S11705364EA0135101464000000000000
B0524373154207S11705323EA0135401470000000000000
B0524413154154S11705354EA0135901473000000000000
B0524453154154S11705418EA0136401478000000000000
B0524493154204S11705453EA0136601480000000000000
B0524533154268S11705433EA0137101487000000000000
B0524573154315S11705367EA0137901497000000000000
B0525013154307S11705288EA0138901506000000000000
B0525053154250S11705269EA0139501513000000000000
B0525093154217S11705315EA0140401521000000000000
B0525133154248S11705362EA0140701521000000000000
B0525173154308S11705343EA0141301534000000000000
B0525213154328S11705268EA0142301541000000000000
B0525253154286S11705210EA0142701548000000000000
B0525293154229S11705213EA0143601556000000000000
B0525333154190S11705259EA0143801556000000000000
B0525373154157S11705321EA0143101545000000000000
B0525413154124S11705390EA0142601543000000000000
B0525453154089S11705458EA0142801550000000000000
B0525493154048S11705525EA0141901533000000000000
B0525533153985S11705589EA0139301506000000000000
B0525573153909S11705646EA0137301488000000000000
B0526013153831S11705700EA0136701485000000000000
B0526053153756S11705748EA0136301480000000000000
B0526093153679S11705791EA0135201469000000000000
B0526133153606S11705834EA0134601459000000000000
B0526173153535S11705874EA0133501446000000000000
B0526213153463S11705913EA0131801429000000000000
B0526253153396S11705952EA0130601418000000000000
B0526293153328S11705992EA0129601410000000000000
B0526333153264S11706030EA0129501410000000000000
B0526373153205S11706070EA0129601411000000000000
B0526413153149S11706120EA0129501411000000000000
B0526453153095S11706170EA0131101432000000000000
B0526493153049S11706221EA0133101455000000000000
B0526533153004S11706270EA0134001458000000000000
B0526573152961S11706324EA0134801476000000000000
B0527013152921S11706377EA0135901480000000000000
B0527053152874S11706433EA0134501454000000000000
B0527093152813S11706491EA0132501440000000000000
B0527133152746S11706547EA0132601443000000000000
B0527173152674S11706595EA0132701444000000000000
B0527213152603S11706646EA0131901432000000000000
B0527253152530S11706697EA0131201426000000000000
B0527293152456S11706745EA0130301415000000000000
B0527333152382S11706788EA0129601410000000000000
B0527373152306S11706828EA0128901401000000000000
B0527413152232S11706867EA0127701391000000000000
B0527453152158S11706903EA0127201385000000000000
B0527493152085S11706939EA0126601379000000000000
B0527533152014S11706974EA0125801368000000000000
B0527573151941S11707010EA0125101361000000000000
B0528013151867S11707043EA0124501352000000000000
B0528053151791S11707075EA0123201333000000000000
B0528093151712S11707106EA0121201314000000000000
B0528133151629S11707132EA0119701302000000000000
B0528173151546S11707153EA0118901295000000000000
B0528213151465S11707171EA0118201287000000000000
B0528253151387S11707191EA0117301276000000000000
B0528293151316S11707218EA0116301266000000000000
B0528333151244S11707251EA0115901264000000000000
B0528373151178S11707287EA0115801262000000000000
B0528413151113S11707323EA0115401257000000000000
B0528453151050S11707365EA0114601249000000000000
B0528493150992S11707418EA0113401234000000000000
B0528533150933S11707473EA0112501226000000000000
B0528573150874S11707527EA0111601219000000000000
B0529013150815S11707586EA0111101219000000000000
B0529053150759S11707642EA0112301232000000000000
B0529093150707S11707693EA0113201245000000000000
B0529133150658S11707743EA0114501259000000000000
B0529173150611S11707793EA0115801275000000000000
B0529213150572S11707842EA0117101285000000000000
B0529253150537S11707895EA0117101282000000000000
B0529293150497S11707949EA0117701289000000000000
B0529333150454S11708001EA0117701281000000000000
B0529373150415S11708064EA0116201266000000000000
B0529413150384S11708136EA0115901266000000000000
B0529453150376S11708213EA0115901270000000000000
B0529493150363S11708283EA0116801284000000000000
B0529533150311S11708310EA0118501299000000000000
B0529573150250S11708272EA0119501309000000000000
B0530013150192S11708248EA0120201311000000000000
B0530053150146S11708266EA0120201314000000000000
B0530093150120S11708309EA0119801310000000000000
B0530133150096S11708357EA0119801308000000000000
B0530173150074S11708410EA0120001309000000000000
B0530213150052S11708467EA0120101313000000000000
B0530253150031S11708525EA0120101313000000000000
B0530293150009S11708583EA0119801306000000000000
B0530333149988S11708644EA0118601294000000000000
B0530373149956S11708704EA0116901274000000000000
B0530413149900S11708747EA0115101256000000000000
B0530453149832S11708779EA0113201237000000000000
B0530493149763S11708807EA0112101225000000000000
B0530533149692S11708834EA0111001211000000000000
B0530573149620S11708863EA0109701201000000000000
B0531013149552S11708894EA0109201194000000000000
B0531053149483S11708925EA0108401184000000000000
B0531093149415S11708957EA0107101167000000000000
B0531133149349S11708995EA0105401155000000000000
B0531173149285S11709033EA0104001138000000000000
B0531213149220S11709071EA0102901125000000000000
B0531253149158S11709107EA0101901122000000000000
B0531293149093S11709138EA0101201111000000000000
B0531333149026S11709163EA0099901099000000000000
B0531373148959S11709184EA0099201090000000000000
B0531413148890S11709202EA0097701075000000000000
B0531453148821S11709220EA0096801066000000000000
B0531493148755S11709246EA0096501065000000000000
B0531533148692S11709273EA0096401063000000000000
B0531573148627S11709298EA0096101058000000000000
B0532013148562S11709323EA0095301046000000000000
B0532053148499S11709354EA0093901034000000000000
B0532093148435S11709384EA0093201027000000000000
B0532133148366S11709409EA0092301016000000000000
B0532173148300S11709433EA0091501011000000000000
B0532213148235S11709459EA0091001005000000000000
B0532253148167S11709483EA0089800993000000000000
B0532293148101S11709513EA0088900984000000000000
B0532333148040S11709541EA0088400979000000000000
B0532373147977S11709567EA0087500966000000000000
B0532413147912S11709592EA0086700963000000000000
B0532453147856S11709627EA0087300971000000000000
B0532493147820S11709678EA0088000978000000000000
B0532533147799S11709735EA0087900976000000000000
B0532573147784S11709789EA0087600973000000000000
B0533013147774S11709845EA0086500960000000000000
B0533053147745S11709900EA0085200941000000000000
B0533093147694S11709943EA0083800931000000000000
B0533133147634S11709973EA0083400930000000000000
B0533173147570S11709994EA0082800919000000000000
B0533213147501S11710008EA0081400905000000000000
B0533253147429S11710016EA0080200894000000000000
B0533293147355S11710016EA0079600891000000000000
B0533333147284S11710014EA0080200898000000000000
B0533373147221S11710022EA0080500903000000000000
B0533413147167S11710046EA0081100904000000000000
B0533453147136S11710088EA0081000904000000000000
B0533493147111S11710137EA0080600896000000000000
B0533533147089S11710187EA0079100880000000000000
B0533573147052S11710234EA0078300880000000000000
B0534013147004S11710265EA0078600881000000000000
B0534053146949S11710281EA0078300874000000000000
B0534093146892S11710289EA0077600865000000000000
B0534133146828S11710280EA0077100862000000000000
B0534173146764S11710251EA0076800860000000000000
B0534213146702S11710207EA0076200852000000000000
B0534253146641S11710148EA0076500857000000000000
B0534293146597S11710161EA0078400887000000000000
B0534333146638S11710199EA0080400902000000000000
B0534373146690S11710137EA0081300906000000000000
B0534413146667S11710064EA0081300906000000000000
B0534453146629S11710079EA0082000920000000000000
B0534493146666S11710120EA0083800939000000000000
B0534533146731S11710087EA0085200948000000000000
B0534573146749S11710001EA0084900940000000000000
B0535013146702S11709944EA0084600941000000000000
B0535063146685S11709992EA0085400947000000000000
B0535103146758S11709981EA0086300963000000000000
B0535143146788S11709893EA0087900975000000000000
B0535183146749S11709827EA0088500980000000015000
B0535223146714S11709849EA0089600992000000000000
B0535263146759S11709884EA0089900992000000000000
B0535303146824S11709834EA0091201009000000000000
B0535343146831S11709741EA0091501011000000015000
B0535383146776S11709698EA0091901014000000015000
B0535423146741S11709734EA0092801026000000015000
B0535463146775S11709776EA0093601030000000015000
B0535503146845S11709740EA0094101042000000015000
B0535543146854S11709644EA0094901044000000015000
B0535583146796S11709611EA0095501056000000015000
B0536023146783S11709661EA0096601065000000000000
B0536063146840S11709692EA0097501071000000000000
B0536103146911S11709639EA0098301082000000000000
B0536143146926S11709535EA0099101090000000000000
B0536183146875S11709467EA0100001100000000000000
B0536223146819S11709479EA0101001111000000000000
B0536263146807S11709531EA0102601127000000000000
B0536303146851S11709574EA0103701135000000000000
B0536343146923S11709544EA0104201143000000000000
B0536383146954S11709453EA0105901161000000000000
B0536423146920S11709385EA0106601164000000000000
B0536463146883S11709402EA0106801169000000000000
B0536503146906S11709442EA0107901178000000000000
B0536543146970S11709410EA0108801188000000000000
B0536583146996S11709320EA0109301196000000000000
B0537023146957S11709243EA0110001204000000000000
B0537063146900S11709238EA0110401208000000000000
B0537103146889S11709293EA0110801213000000000000
B0537143146944S11709324EA0112201230000000000000
B0537183147010S11709280EA0114101249000000000000
B0537223147028S11709188EA0115601261000000000000
B0537263146987S11709119EA0116401268000000000000
B0537303146932S11709124EA0116701270000000000000
B0537343146916S11709181EA0117001273000000000000
B0537383146932S11709246EA0117101273000000000000
B0537423146961S11709315EA0118501290000000000000
B0537463147022S11709341EA0121101316000000000000
B0537503147063S11709271EA0122601329000000000000
B0537543147024S11709210EA0123001333000000015000
B0537583146993S11709242EA0125601364000000000000
B0538023147031S11709288EA0127101380000000000000
B0538063147097S11709263EA0129001404000000000000
B0538103147117S11709181EA0130501411000000000000
B0538143147072S11709123EA0131201427000000000000
B0538183147030S11709137EA0133701452000000000000
B0538223147039S11709189EA0135701468000000000000
B0538263147104S11709201EA0136801476000000000000
B0538303147137S11709126EA0138101494000000015000
B0538343147105S11709072EA0139701512000000015000
B0538383147080S11709111EA0141201527000000015000
B0538423147128S11709155EA0142401536000000015000
B0538463147199S11709123EA0143901554000000015000
B0538503147222S11709039EA0145601568000000015000
B0538543147188S11708981EA0146401576000000015000
B0538583147152S11709003EA0147701590000000015000
B0539023147182S11709051EA0149401607000000015000
B0539063147252S11709045EA0150001612000000000000
B0539103147295S11708967EA0150801619000000015000
B0539143147269S11708898EA0151501627000000015000
B0539183147225S11708903EA0152301636000000015000
B0539223147223S11708952EA0153901653000000000000
B0539263147290S11708967EA0154401657000000000000
B0539303147347S11708899EA0155301666000000000000
B0539343147343S11708814EA0156001671000000000000
B0539383147297S11708775EA0156601679000000000000
B0539423147257S11708798EA0157501689000000000000
B0539463147253S11708850EA0159001706000000000000
B0539503147314S11708865EA0160401717000000000000
B0539543147366S11708798EA0160501717000000000000
B0539583147348S11708721EA0160701721000000000000
B0540023147299S11708708EA0161201730000000000000
B0540063147270S11708744EA0162601745000000000000
B0540103147300S11708790EA0164301761000000000000
B0540143147369S11708779EA0164901760000000000000
B0540183147408S11708700EA0164301754000000000000
B0540223147368S11708642EA0163801750000000000000
B0540263147306S11708644EA0163701753000000000000
B0540303147264S11708678EA0165301773000000000000
B0540343147299S11708720EA0167301790000000000000
B0540383147364S11708686EA0167701789000000000000
B0540423147382S11708601EA0168401801000000000000
B0540463147343S11708548EA0169501813000000000000
B0540503147303S11708567EA0170601822000000000000
B0540543147325S11708616EA0171101824000000000000
B0540583147395S11708593EA0170801824000000000000
B0541023147414S11708506EA0171601834000000000000
B0541063147364S11708447EA0171301824000000000000
B0541103147286S11708441EA0170401818000000000000
B0541143147209S11708462EA0170401817000000000000
B0541183147134S11708500EA0169501805000000000000
B0541223147061S11708548EA0168601801000000000000
B0541263146991S11708597EA0168401803000000000000
B0541303146923S11708647EA0168901807000000000000
B0541343146855S11708694EA0168901808000000000000
B0541383146785S11708736EA0168801804000000000000
B0541423146715S11708774EA0169201810000000000000
B0541463146645S11708812EA0168601804000000000000
B0541503146575S11708848EA0167301787000000000000
B0541543146504S11708887EA0166201765000000000000
B0541583146433S11708924EA0164901757000000000000
B0542023146363S11708960EA0164001747000000000000
B0542063146294S11708993EA0163101735000000000000
B0542103146225S11709021EA0162301729000000000000
B0542143146157S11709048EA0161501723000000000000
B0542183146092S11709073EA0161301720000000000000
B0542223146031S11709099EA0160801714000000000000
B0542263145970S11709125EA0160201708000000000000
B0542303145913S11709151EA0160001707000000000000
B0542343145858S11709178EA0159601700000000000000
B0542383145801S11709204EA0158601692000000000000
B0542423145743S11709230EA0158301691000000000000
B0542463145687S11709258EA0158601693000000000000
B0542503145636S11709295EA0158901703000000000000
B0542543145592S11709336EA0159101703000000000000
B0542583145546S11709377EA0158901703000000000000
B0543023145498S11709418EA0159001702000000000000
B0543063145442S11709454EA0158401700000000000000
B0543103145384S11709489EA0158301699000000000000
B0543143145324S11709527EA0158101697000000000000
B0543183145264S11709563EA0157901697000000000000
B0543223145204S11709601EA0157801693000000000000
B0543263145139S11709640EA0157001687000000000000
B0543303145074S11709675EA0156801685000000000000
B0543343145008S11709705EA0156101677000000000000
B0543383144942S11709736EA0155601670000000000000
B0543423144875S11709763EA0155401669000000000000
B0543463144807S11709792EA0154301651000000000000
B0543503144736S11709823EA0153001644000000000000
B0543543144665S11709854EA0152501637000000000000
B0543583144595S11709883EA0151901629000000000000
B0544023144526S11709913EA0151501626000000000000
B0544063144459S11709947EA0151001624000000000000
B0544103144394S11709983EA0150301614000000000000
B0544143144329S11710018EA0149501605000000000000
B0544183144264S11710051EA0148701599000000000000
B0544223144201S11710082EA0148101592000000000000
B0544263144138S11710114EA0147401586000000000000
B0544303144076S11710146EA0146801579000000000000
B0544343144014S11710177EA0146101573000000000000
B0544383143951S11710205EA0145901574000000000000
B0544423143893S11710231EA0145801570000000000000
B0544463143830S11710259EA0145001559000000000000
B0544503143768S11710287EA0144401557000000000000
B0544543143705S11710317EA0144501557000000000000
B0544583143643S11710348EA0144301548000000000000
B0545023143581S11710385EA0143201537000000000000
B0545063143516S11710423EA0142001531000000000000
B0545103143451S11710459EA0141901527000000000000
B0545143143386S11710493EA0141101517000000000000
B0545183143321S11710529EA0140301511000000000000
B0545223143254S11710564EA0139401494000000000000
B0545263143185S11710603EA0137301475000000000000
B0545303143117S11710642EA0135501458000000000000
B0545343143048S11710681EA0133801444000000000000
B0545383142979S11710719EA0133201440000000000000
B0545423142912S11710759EA0132701430000000000000
B0545463142847S11710802EA0131401420000000000000
B0545503142782S11710842EA0130701410000000000000
B0545543142717S11710880EA0129601399000000000000
B0545583142654S11710917EA0128301386000000000000
B0546023142589S11710957EA0126801370000000000000
B0546063142522S11710996EA0125301353000000000000
B0546103142457S11711037EA0124001342000000000000
B0546143142390S11711079EA0122901331000000000000
B0546183142326S11711121EA0123101340000000000000
B0546223142269S11711161EA0124701358000000000000
B0546263142218S11711204EA0125301358000000000000
B0546303142171S11711248EA0125701370000000000000
B0546343142125S11711295EA0126101365000000000000
B0546383142074S11711344EA0124701346000000000000
B0546423142019S11711398EA0122901327000000000000
B0546463141962S11711453EA0120801305000000000000
B0546503141906S11711509EA0120401317000000000000
B0546543141858S11711564EA0121501321000000000000
B0546583141811S11711620EA0121301319000000000000
B0547023141765S11711677EA0120801311000000000000
B0547063141716S11711737EA0119501298000000000000
B0547103141668S11711801EA0118801292000000000000
B0547143141622S11711859EA0118801295000000000000
B0547183141571S11711912EA0118101280000000000000
B0547223141515S11711964EA0116801269000000000000
B0547263141458S11712015EA0116101263000000000000
B0547303141398S11712063EA0115101250000000000000
B0547343141338S11712110EA0114701253000000000000
B0547383141281S11712154EA0114801250000000000000
B0547423141229S11712201EA0114201243000000000000
B0547463141174S11712250EA0113001228000000000000
B0547503141116S11712300EA0111601214000000000000
B0547543141056S11712347EA0110401204000000000000
B0547583141000S11712396EA0109501193000000000000
B0548023140944S11712447EA0107901173000000000000
B0548063140884S11712501EA0106001154000000000000
B0548103140821S11712553EA0104301136000000000000
B0548143140754S11712605EA0102901123000000000000
B0548183140687S11712657EA0101601109000000000000
B0548223140619S11712708EA0100101093000000000000
B0548263140552S11712757EA0098901082000000000000
B0548303140485S11712808EA0097701070000000000000
B0548343140419S11712859EA0096601061000000000000
B0548383140353S11712909EA0095601049000000000000
B0548423140286S11712958EA0095101045000000000000
B0548463140221S11713006EA0094301035000000000000
B0548503140156S11713055EA0092901024000000000000
B0548543140093S11713103EA0092501022000000000000
B0548583140032S11713151EA0092001015000000000000
B0549023139971S11713198EA0091201004000000000000
B0549063139909S11713245EA0090601002000000000000
B0549103139852S11713289EA0090901006000000000000
B0549143139800S11713332EA0091001007000000000000
B0549183139750S11713377EA0090601001000000000000
B0549223139701S11713424EA0090601005000000000000
B0549263139657S11713474EA0090901005000000000000
B0549303139616S11713523EA0090401000000000000000
B0549343139569S11713574EA0089500990000000000000
B0549383139521S11713624EA0088800984000000000000
B0549423139471S11713674EA0088300978000000000000
B0549463139422S11713723EA0087600971000000000000
B0549503139373S11713773EA0086900965000000000000
B0549543139323S11713818EA0086400956000000000000
B0549583139272S11713860EA0085700952000000000000
B0550023139220S11713897EA0084900942000000000000
B0550063139171S11713935EA0084000934000000000000
B0550103139123S11713970EA0083400929000000000000
B0550143139072S11714005EA0082900919000000000000
B0550183139022S11714042EA0081900912000000000000
B0550223138973S11714083EA0081400906000000000000
B0550263138946S11714138EA0081000903000000000000
B0550303138958S11714196EA0080400897000000000000
B0550343139006S11714235EA0079500883000000000000
B0550383139072S11714245EA0078000868000000000000
B0550423139145S11714235EA0076700854000000000000
B0550463139215S11714213EA0075600847000000000000
B0550503139284S11714185EA0075400845000000000000
B0550543139352S11714152EA0075200839000000000000
B0550583139415S11714111EA0074700835000000000000
B0551023139475S11714057EA0074900845000000000000
B0551063139496S11713978EA0076200856000000000000
B0551103139456S11713918EA0076300857000000000000
B0551143139414S11713933EA0076300854000000000000
B0551183139427S11713979EA0075700845000000000000
B0551223139486S11713995EA0075600848000000000000
B0551263139544S11713955EA0076400856000000000000
B0551303139542S11713875EA0077000862000000000000
B0551343139488S11713855EA0077600869000000000000
B0551383139467S11713900EA0078300874000000000000
B0551423139501S11713940EA0078700879000000000000
B0551463139562S11713910EA0078800875000000000000
B0551503139578S11713823EA0078900883000000000000
B0551543139527S11713780EA0080300901000000000000
B0551583139497S11713816EA0081900915000000000000
B0552023139526S11713851EA0082700919000000000000
B0552063139586S11713834EA0082400910000000000000
B0552103139623S11713758EA0082300918000000000000
B0552143139588S11713696EA0083500929000000000000
B0552183139544S11713718EA0084200933000000000000
B0552223139564S11713762EA0084800939000000000000
B0552263139622S11713752EA0084700935000000000000
B0552303139669S11713684EA0084900941000000000000
B0552343139651S11713608EA0085800952000000015000
B0552383139600S11713622EA0086100957000000015000
B0552423139625S11713669EA0087300969000000015000
B0552463139683S11713647EA0088200973000000015000
B0552503139686S11713567EA0088600981000000015000
B0552543139631S11713540EA0089200984000000015000
B0552583139607S11713583EA0089900994000000015000
B0553023139639S11713622EA0090400995000000015000
B0553063139701S11713609EA0090600996000000015000
B0553103139737S11713535EA0091301007000000015000
B0553143139694S11713483EA0091801010000000015000
B0553183139646S11713510EA0091801010000000015000
B0553223139661S11713559EA0092601018000000015000
B0553263139724S11713546EA0093101022000000015000
B0553303139748S11713466EA0093501032000000015000
B0553343139703S11713415EA0094601041000000015000
B0553383139665S11713442EA0095101045000000015000
B0553423139691S11713484EA0095401046000000015000
B0553463139752S11713475EA0095301047000000015000
B0553503139804S11713416EA0096001054000000015000
B0553543139803S11713336EA0096901063000000015000
B0553583139750S11713311EA0097401069000000015000
B0554023139724S11713354EA0098101075000000015000
B0554063139764S11713393EA0098601081000000000000
B0554103139820S11713354EA0099201085000000000000
B0554143139815S11713271EA0099301085000000000000
B0554183139763S11713225EA0099801091000000000000
B0554223139717S11713253EA0100001093000000000000
B0554263139734S11713310EA0100701099000000000000
B0554303139796S11713312EA0102001114000000000000
B0554343139830S11713240EA0102801125000000000000
B0554383139795S11713177EA0103901135000000000000
B0554423139751S11713190EA0104601142000000000000
B0554463139759S11713240EA0105201149000000000000
B0554503139817S11713249EA0106501164000000000000
B0554543139863S11713188EA0107501171000000000000
B0554583139852S11713111EA0108601182000000000000
B0555023139798S11713084EA0108801180000000000000
B0555063139772S11713129EA0109101189000000000000
B0555103139811S11713166EA0111201211000000000000
B0555143139868S11713136EA0112401217000000000000
B0555183139865S11713060EA0112601219000000000000
B0555223139812S11713056EA0113101227000000000000
B0555263139805S11713107EA0114201241000000000000
B0555303139852S11713136EA0115901260000000000000
B0555343139909S11713106EA0117001270000000000000
B0555383139933S11713030EA0118101283000000000000
B0555423139893S11712984EA0118701287000000000000
B0555463139860S11713021EA0119001295000000000000
B0555503139896S11713060EA0120401308000000000000
B0555543139954S11713021EA0121801320000000000000
B0555583139956S11712942EA0122801329000000000000
B0556023139907S11712919EA0123601338000000000000
B0556063139889S11712964EA0124401347000000000000
B0556103139929S11713000EA0125501359000000000000
B0556143139990S11712976EA0127101375000000000000
B0556183140016S11712898EA0128001380000000000000
B0556223139982S11712835EA0128501386000000000000
B0556263139938S11712848EA0129501396000000000000
B0556303139938S11712899EA0130501404000000000000
B0556343139989S11712924EA0132001422000000000000
B0556383140045S11712881EA0133001434000000000000
B0556423140055S11712798EA0133701438000000000000
B0556463140013S11712748EA0134201446000000000000
B0556503139976S11712770EA0135101455000000000000
B0556543139990S11712821EA0135701459000000000000
B0556583140051S11712821EA0137001479000000000000
B0557023140081S11712750EA0138601489000000000000
B0557063140046S11712696EA0138801489000000000000
B0557103140006S11712718EA0139201495000000000000
B0557143140015S11712773EA0140301507000000000000
B0557183140065S11712802EA0141701524000000000000
B0557223140132S11712783EA0142201530000000000000
B0557263140176S11712712EA0143001536000000000000
B0557303140169S11712626EA0143601544000000000000
B0557343140123S11712575EA0144301550000000000000
B0557383140076S11712584EA0144901557000000000000
B0557423140062S11712634EA0145301563000000000000
B0557463140095S11712682EA0146401574000000000000
B0557503140160S11712690EA0147401584000000000000
B0557543140219S11712643EA0148501595000000000000
B0557583140233S11712560EA0149101602000000000000
B0558023140193S11712506EA0149701602000000000000
B0558063140145S11712521EA0149301602000000000000
B0558103140119S11712570EA0150001615000000000000
B0558143140145S11712622EA0151501626000000000000
B0558183140207S11712642EA0151001612000000000000
B0558223140289S11712643EA0149301595000000000000
B0558263140376S11712630EA0147801586000000000000
B0558303140467S11712609EA0146901572000000000000
B0558343140557S11712581EA0145301558000000000000
B0558383140647S11712543EA0144101548000000000000
B0558423140732S11712500EA0143201536000000000000
B0558463140816S11712452EA0142701534000000000000
B0558503140895S11712408EA0142601534000000000000
B0558543140975S11712374EA0142601532000000000000
B0558583141057S11712348EA0142101527000000000000
B0559023141137S11712335EA0141601519000000000000
B0559063141217S11712337EA0141201519000000000000
B0559103141290S11712349EA0141501525000000000000
B0559143141363S11712366EA0141701526000000000000
B0559183141434S11712386EA0142101530000000000000
B0559223141505S11712406EA0142801538000000000000
B0559263141575S11712427EA0143401546000000000000
B0559303141644S11712447EA0144001552000000000000
B0559343141718S11712467EA0144101548000000000000
B0559383141797S11712492EA0143901550000000000000
B0559423141876S11712517EA0144501555000000000000
B0559463141958S11712538EA0144101546000000000000
B0559503142045S11712560EA0143001535000000000000
B0559543142132S11712582EA0142101529000000000000
B0559583142217S11712607EA0140801513000000000000
B0600023142301S11712633EA0140601513000000000000
B0600063142381S11712660EA0140701513000000000000
B0600103142457S11712688EA0141001519000000000000
B0600143142529S11712716EA0141101512000000000000
B0600183142599S11712742EA0140301508000000000000
B0600223142668S11712766EA0139801497000000000000
B0600263142741S11712792EA0138801493000000000000
B0600303142811S11712816EA0139001494000000000000
B0600343142880S11712842EA0139101497000000000000
B0600383142948S11712867EA0139001495000000000000
B0600423143015S11712895EA0139101500000000000000
B0600463143079S11712925EA0139601501000000000000
B0600503143140S11712958EA0139801506000000000000
B0600543143200S11712987EA0139901508000000000000
B0600583143258S11713015EA0140801517000000000000
B0601023143318S11713038EA0141401522000000000000
B0601063143380S11713056EA0141601525000000000000
B0601103143448S11713076EA0141401523000000000000
B0601143143520S11713094EA0141901533000000000000
B0601183143591S11713115EA0142901545000000000000
B0601223143661S11713137EA0143701550000000000000
B0601263143735S11713156EA0144601559000000000000
B0601303143809S11713172EA0144601555000000000000
B0601343143890S11713186EA0143201541000000000000
B0601383143976S11713201EA0142101528000000000000
B0601423144059S11713218EA0142001529000000000000
B0601463144141S11713234EA0141501517000000000000
B0601503144224S11713255EA0140501511000000000000
B0601543144307S11713276EA0140001503000000000000
B0601583144389S11713299EA0139801503000000000000
B0602023144471S11713324EA0139101490000000000000
B0602063144554S11713349EA0138101484000000000000
B0602103144638S11713374EA0138101488000000000000
B0602143144717S11713396EA0139301504000000000000
B0602183144786S11713362EA0141601531000000000000
B0602223144803S11713281EA0143301546000000000000
B0602263144768S11713221EA0143801547000000000000
B0602303144725S11713233EA0144101550000000000000
B0602343144726S11713284EA0144001548000000000000
B0602383144777S11713314EA0144201551000000000000
B0602423144838S11713279EA0145001561000000000000
B0602463144873S11713203EA0145801568000000000000
B0602503144892S11713119EA0146401575000000000000
B0602543144886S11713038EA0146901576000000000000
B0602583144842S11713002EA0146501569000000000000
B0603023144823S11713043EA0144701548000000000000
B0603063144873S11713094EA0144101549000000000000
B0603103144933S11713136EA0144301554000000000000
B0603143144991S11713180EA0145301563000000000000
B0603183145042S11713232EA0145701566000000000000
B0603223145086S11713289EA0146201570000000000000
B0603263145125S11713348EA0146001569000000000000
B0603303145160S11713407EA0146001567000000000000
B0603343145210S11713463EA0144901553000000000000
B0603383145281S11713498EA0143501538000000000000
B0603423145363S11713509EA0142301528000000000000
B0603463145447S11713507EA0141501517000000000000
B0603503145531S11713507EA0140201504000000000000
B0603543145613S11713515EA0139201493000000000000
B0603583145692S11713533EA0137901484000000000000
B0604023145770S11713556EA0137001474000000000000
B0604063145847S11713580EA0135701461000000000000
B0604103145922S11713608EA0134701451000000000000
B0604143145995S11713636EA0134001445000000000000
B0604183146065S11713665EA0133701442000000000000
B0604223146129S11713691EA0133501439000000000000
B0604263146192S11713719EA0132401423000000000000
B0604303146257S11713753EA0131401421000000000000
B0604343146322S11713790EA0131601422000000000000
B0604383146385S11713827EA0131401420000000000000
B0604423146443S11713870EA0130601405000000000000
B0604463146498S11713922EA0128301379000000000000
B0604503146552S11713978EA0126001360000000000000
B0604543146610S11714033EA0125001346000000000000
B0604583146668S11714085EA0123501331000000000000
B0605023146725S11714137EA0122301320000000000000
B0605063146777S11714194EA0121201309000000000000
B0605103146825S11714251EA0120401301000000000000
B0605143146874S11714307EA0119701293000000000000
B0605183146922S11714363EA0118401282000000000000
B0605223146971S11714414EA0118201282000000000000
B0605263147020S11714462EA0118301284000000000000
B0605303147053S11714523EA0118901291000000000000
B0605343147053S11714592EA0120001306000000000000
B0605383147009S11714631EA0121901325000000000000
B0605423146950S11714599EA0123201337000000000000
B0605463146927S11714524EA0124401349000000000000
B0605503146948S11714449EA0125001352000000000000
B0605543147006S11714415EA0125301355000000000000
B0605583147067S11714428EA0125801361000000000000
B0606023147104S11714477EA0126701370000000000000
B0606063147082S11714525EA0128401388000000000000
B0606103147024S11714516EA0129501397000000000000
B0606143146981S11714450EA0129901407000000000000
B0606183146983S11714364EA0130701412000000000000
B0606223147030S11714303EA0131401419000000000000
B0606263147096S11714287EA0131901422000000000000
B0606303147154S11714316EA0132101424000000000000
B0606343147176S11714373EA0133501443000000000000
B0606383147152S11714416EA0135701466000000000000
B0606423147100S11714416EA0136501470000000000000
B0606463147046S11714372EA0136801473000000000000
B0606503147018S11714294EA0137301482000000000000
B0606543147031S11714212EA0138601494000000000000
B0606583147084S11714169EA0139901509000000000000
B0607023147139S11714185EA0140701513000000000000
B0607063147157S11714234EA0141401523000000000000
B0607103147121S11714271EA0142501531000000000000
B0607143147059S11714252EA0142801533000000000000
B0607183147020S11714180EA0143201540000000000000
B0607223147031S11714092EA0144301550000000000000
B0607263147083S11714038EA0145101558000000000000
B0607303147144S11714043EA0145301562000000000000
B0607343147178S11714089EA0146401574000000000000
B0607383147178S11714146EA0147401582000000000000
B0607423147136S11714182EA0148001590000000000000
B0607463147076S11714160EA0149101600000000000000
B0607503147041S11714087EA0149601603000000000000
B0607543147040S11713998EA0150201612000000000000
B0607583147078S11713925EA0151301620000000000000
B0608023147140S11713899EA0151401620000000000000
B0608063147199S11713925EA0151501620000000000000
B0608103147227S11713985EA0151901630000000000000
B0608143147221S11714051EA0152801637000000000000
B0608183147191S11714107EA0153301643000000000000
B0608223147127S11714116EA0154301658000000000000
B0608263147072S11714064EA0155901673000000000000
B0608303147054S11713979EA0156701677000000000000
B0608343147076S11713894EA0157001681000000000000
B0608383147111S11713813EA0158001690000000000000
B0608423147157S11713734EA0157701685000000000000
B0608463147230S11713682EA0156801678000000000000
B0608503147309S11713662EA0157401689000000000000
B0608543147384S11713661EA0158401698000000000000
B0608583147460S11713667EA0158901704000000000000
B0609023147535S11713676EA0159501708000000000000
B0609063147613S11713686EA0159801711000000000000
B0609103147694S11713695EA0160001713000000000000
B0609143147773S11713708EA0160101713000000000000
B0609183147852S11713719EA0159901713000000000000
B0609223147933S11713731EA0159601707000000000000
B0609263148015S11713745EA0159401706000000000000
B0609303148094S11713757EA0160801726000000000000
B0609343148170S11713736EA0163201751000000000000
B0609383148224S11713673EA0164501760000000000000
B0609423148276S11713604EA0164101746000000000000
B0609463148356S11713569EA0161601715000000000000
B0609503148447S11713562EA0159201698000000000000
B0609543148538S11713569EA0158001688000000000000
B0609583148627S11713578EA0157201682000000000000
B0610023148714S11713589EA0156501675000000000000
B0610063148799S11713598EA0155701668000000000000
B0610103148882S11713609EA0155101661000000000000
B0610143148967S11713615EA0154401647000000000000
B0610183149051S11713610EA0153301638000000000000
B0610223149137S11713598EA0151901624000000000000
B0610263149221S11713587EA0151001618000000000000
B0610303149306S11713572EA0150401610000000000000
B0610343149389S11713554EA0149601606000000000000
B0610383149472S11713533EA0149201599000000000000
B0610423149557S11713513EA0148001586000000000000
B0610463149645S11713492EA0147101576000000000000
B0610503149735S11713470EA0146701575000000000000
B0610543149822S11713446EA0146401575000000000000
B0610583149909S11713424EA0146301572000000000000
B0611023149995S11713402EA0146401574000000000000
B0611063150079S11713381EA0146301574000000000000
B0611103150165S11713361EA0147301587000000000000
B0611143150247S11713341EA0147501585000000000000
B0611183150334S11713319EA0146801579000000000000
B0611223150423S11713294EA0146601578000000000000
B0611263150511S11713270EA0145801564000000000000
B0611303150602S11713244EA0144601554000000000000
B0611343150690S11713220EA0144101552000000000000
B0611383150775S11713195EA0144301553000000000000
B0611423150852S11713169EA0145101564000000000000
B0611463150924S11713143EA0145601565000000000000
B0611503151000S11713117EA0144801557000000000000
B0611543151079S11713095EA0145001563000000000000
B0611583151156S11713073EA0145601567000000000000
B0612023151232S11713047EA0145401560000000000000
B0612063151314S11713015EA0144001545000000000000
B0612103151399S11712984EA0142901535000000000000
B0612143151482S11712952EA0142501531000000000000
B0612183151564S11712925EA0141601518000000000000
B0612223151647S11712899EA0140701511000000000000
B0612263151728S11712872EA0140301510000000000000
B0612303151807S11712842EA0140401508000000000000
B0612343151888S11712808EA0139801501000000000000
B0612383151966S11712773EA0139801504000000000000
B0612423152040S11712742EA0140101511000000000000
B0612463152110S11712712EA0140501511000000000000
B0612503152180S11712682EA0141201522000000000000
B0612543152245S11712648EA0142401537000000000000
B0612583152305S11712612EA0143601546000000000000
B0613023152370S11712579EA0144101548000000000000
B0613063152439S11712547EA0144801559000000000000
B0613103152506S11712547EA0145501571000000000000
B0613143152535S11712595EA0147801595000000000000
B0613183152504S11712638EA0148801600000000000000
B0613223152451S11712618EA0149901614000000000000
B0613263152428S11712547EA0151601632000000000000
B0613303152452S11712474EA0153101642000000000000
B0613343152501S11712427EA0153901651000000000000
B0613383152561S11712422EA0154401652000000000000
B0613423152613S11712454EA0154901661000000000000
B0613463152633S11712509EA0155701666000000000000
B0613503152604S11712555EA0155801669000000000000
B0613543152551S11712569EA0156101671000000000000
B0613583152497S11712532EA0156501677000000000000
B0614023152473S11712454EA0157501692000000000000
B0614063152513S11712397EA0159601710000000000000
B0614103152569S11712408EA0160501714000000000000
B0614143152581S11712465EA0161201725000000000000
B0614183152539S11712500EA0161801729000000000000
B0614223152479S11712479EA0162201731000000000000
B0614263152445S11712402EA0163001743000000000000
B0614303152469S11712323EA0164701760000000000000
B0614343152529S11712285EA0165301764000000000000
B0614383152591S11712308EA0165601770000000000000
B0614423152608S11712370EA0166901788000000000000
B0614463152575S11712414EA0167901788000000000000
B0614503152517S11712404EA0167801788000000000000
B0614543152471S11712340EA0168401794000000000000
B0614583152456S11712249EA0168701800000000000000
B0615023152482S11712159EA0169501808000000000000
B0615063152529S11712083EA0170001811000000000000
B0615103152605S11712032EA0168501789000000000000
B0615143152696S11712009EA0167901790000000000000
B0615183152785S11711996EA0169301803000000000000
B0615223152870S11711986EA0169401806000000000000
B0615263152958S11711985EA0170801825000000000000
B0615303153038S11711986EA0171701829000000000000
B0615343153120S11711997EA0172601841000000000000
B0615383153198S11712014EA0173101845000000000000
B0615423153276S11712028EA0173001840000000000000
B0615463153358S11712044EA0172501837000000000000
B0615503153439S11712059EA0171901825000000000000
B0615543153524S11712076EA0171301823000000000000
B0615583153606S11712090EA0172301837000000000000
B0616023153687S11712105EA0172501835000000000000
B0616063153766S11712114EA0172701840000000000000
B0616103153845S11712124EA0173101845000000000000
B0616143153922S11712129EA0174401860000000000000
B0616183153996S11712129EA0175401867000000000000
B0616223154072S11712129EA0175101864000000000000
B0616263154152S11712128EA0175101865000000000000
B0616303154234S11712133EA0174301852000000000000
B0616343154323S11712145EA0172901843000000000000
B0616383154410S11712161EA0172501837000000000000
B0616423154497S11712181EA0172001832000000000000
B0616463154583S11712205EA0171301825000000000000
B0616503154667S11712233EA0170801820000000000000
B0616543154752S11712259EA0170401819000000000000
B0616583154835S11712284EA0170501819000000000000
B0617023154918S11712308EA0170201813000000000000
B0617063155005S11712330EA0169301806000000000000
B0617103155091S11712352EA0168801795000000000000
B0617143155181S11712371EA0167101777000000000000
B0617183155272S11712392EA0165701766000000000000
B0617223155361S11712415EA0164401753000000000000
B0617263155451S11712441EA0163501744000000000000
B0617303155539S11712467EA0162201727000000000000
B0617343155630S11712488EA0160901716000000000000
B0617383155720S11712505EA0160801716000000000000
B0617423155806S11712512EA0162401737000000000000
B0617463155886S11712510EA0163201746000000000000
B0617503155966S11712512EA0163701746000000000000
B0617543156046S11712512EA0163201741000000000000
B0617583156131S11712513EA0161801720000000000000
B0618023156219S11712512EA0159801705000000000000
B0618063156310S11712512EA0159101700000000000000
B0618103156401S11712509EA0158401692000000000000
B0618143156492S11712504EA0157601687000000000000
B0618183156583S11712499EA0156901679000000000000
B0618223156676S11712493EA0156301670000000000000
B0618263156765S11712488EA0155901668000000000000
B0618303156852S11712480EA0155801666000000000000
B0618343156938S11712471EA0155701659000000000000
B0618383157025S11712460EA0154501644000000000000
B0618423157116S11712451EA0153101628000000000000
B0618463157209S11712439EA0151701613000000000000
B0618503157301S11712427EA0150501604000000000000
B0618543157389S11712418EA0150701610000000000000
B0618583157474S11712409EA0150201600000000000000
B0619023157557S11712404EA0149201589000000000000
B0619063157641S11712404EA0148101580000000000000
B0619103157725S11712404EA0147501571000000000000
B0619143157808S11712404EA0146201560000000000000
B0619183157890S11712402EA0145301553000000000000
B0619223157970S11712402EA0144901549000000000000
B0619263158050S11712401EA0143901537000000000000
B0619303158130S11712400EA0142801527000000000000
B0619343158213S11712399EA0141701516000000000000
B0619383158297S11712396EA0141101513000000000000
B0619423158377S11712393EA0141001508000000000000
B0619463158462S11712392EA0140201500000000000000
B0619503158545S11712391EA0139601495000000000000
B0619543158629S11712389EA0139201489000000000000
B0619583158715S11712387EA0138601485000000000000
B0620023158800S11712382EA0138901492000000000000
B0620063158876S11712354EA0141001518000000000000
B0620103158906S11712276EA0143301548000000000000
B0620143158866S11712226EA0145501564000000000000
B0620183158834S11712252EA0146301573000000000000
B0620223158869S11712288EA0146901577000000000000
B0620263158930S11712249EA0148001593000000000000
B0620303158936S11712166EA0150201618000000000000
B0620343158895S11712118EA0152301634000000000000
B0620383158856S11712132EA0153601648000000000000
B0620423158856S11712175EA0154601655000000000000
B0620463158909S11712192EA0155501666000000000000
B0620503158964S11712136EA0156901681000000000000
B0620543158961S11712049EA0158401698000000000000
B0620583158912S11712007EA0160001715000000000000
B0621023158875S11712032EA0161701730000000000000
B0621063158882S11712079EA0162601739000000000000
B0621103158931S11712096EA0163701754000000000000
B0621143158988S11712050EA0164901767000000000000
B0621183159008S11711964EA0166201779000000000000
B0621223158962S11711912EA0167701796000000000000
B0621263158931S11711946EA0168901808000000000000
B0621303158961S11711989EA0170501824000000000000
B0621343159025S11711981EA0171901836000000000000
B0621383159065S11711906EA0173401854000000000000
B0621423159042S11711829EA0174801867000000000000
B0621463158991S11711820EA0175901878000000000000
B0621503158979S11711863EA0177201892000000000000
B0621543159029S11711885EA0179001909000000000000
B0621583159081S11711825EA0179701915000000000000
B0622023159066S11711739EA0180501928000000000000
B0622063159016S11711720EA0181701939000000000000
B0622103158997S11711762EA0182701951000000000000
B0622143159038S11711795EA0184101964000000000000
B0622183159104S11711758EA0185201974000000000000
B0622223159118S11711667EA0186601989000000000000
B0622263159073S11711615EA0187501995000000000000
B0622303159031S11711643EA0188202003000000000000
B0622343159055S11711691EA0189902024000000000000
B0622383159118S11711681EA0191402036000000000000
B0622423159156S11711604EA0192502048000000000000
B0622463159127S11711529EA0192802045000000000000
B0622503159074S11711525EA0193202053000000000000
B0622543159083S11711572EA0195102075000000000000
B0622583159143S11711568EA0196602087000000000000
B0623023159185S11711495EA0197402095000000000000
B0623063159161S11711412EA0198102101000000000000
B0623103159107S11711396EA0198702111000000000000
B0623143159087S11711439EA0200302128000000000000
B0623183159125S11711477EA0201502141000000000000
B0623223159188S11711446EA0202402146000000000000
B0623263159201S11711355EA0203202154000000000000
B0623303159156S11711294EA0204302168000000000000
B0623343159113S11711312EA0205302175000000000000
B0623383159139S11711355EA0205802181000000000000
B0623423159208S11711349EA0206002178000000000000
B0623463159295S11711334EA0203802152000000000000
B0623503159398S11711314EA0202502147000000000000
B0623543159500S11711291EA0202902152000000000000
B0623583159603S11711274EA0203602162000000000000
B0624023159701S11711257EA0204402169000000000000
B0624063159796S11711240EA0205002177000000000000
B0624103159888S11711226EA0205602180000000000000
B0624143159980S11711210EA0204902170000000000000
B0624183200072S11711195EA0204402161000000000000
B0624223200166S11711180EA0203702151000000000000
B0624263200261S11711166EA0202602137000000000000
B0624303200360S11711154EA0201202125000000000000
B0624343200457S11711141EA0200602120000000000000
B0624383200555S11711130EA0200202113000000000000
B0624423200654S11711118EA0199502111000000000000
B0624463200748S11711106EA0199502109000000000000
B0624503200842S11711096EA0199002102000000000000
B0624543200936S11711087EA0197802089000000000000
B0624583201032S11711078EA0196702079000000000000
B0625023201125S11711069EA0195802073000000000000
B0625063201218S11711058EA0195402066000000000000
B0625103201310S11711049EA0194602059000000000000
B0625143201400S11711041EA0194102052000000000000
B0625183201489S11711034EA0193102043000000000000
B0625223201578S11711026EA0193002040000000000000
B0625263201665S11711023EA0193102044000000000000
B0625303201747S11711022EA0193302044000000000000
B0625343201827S11711018EA0193402049000000000000
B0625383201905S11711015EA0193702050000000000000
B0625423201987S11711013EA0193002040000000000000
B0625463202074S11711009EA0192302034000000000000
B0625503202163S11711004EA0191702027000000000000
B0625543202253S11711000EA0191202026000000000000
B0625583202341S11710997EA0191002024000000000000
B0626023202428S11710993EA0191002024000000000000
B0626063202515S11710987EA0190902021000000000000
B0626103202604S11710983EA0190502016000000000000
B0626143202692S11710978EA0191502032000000000000
B0626183202775S11710974EA0192802043000000000000
B0626223202857S11710966EA0192802040000000000000
B0626263202943S11710958EA0192102030000000000000
B0626303203030S11710952EA0191102021000000000000
B0626343203116S11710946EA0191202025000000000000
B0626383203200S11710940EA0190702016000000000000
B0626423203289S11710933EA0189602004000000000000
B0626463203377S11710928EA0189002001000000000000
B0626503203463S11710922EA0189002000000000000000
B0626543203550S11710914EA0188701996000000000000
B0626583203637S11710905EA0188201991000000000000
B0627023203723S11710896EA0187801987000000000000
B0627063203807S11710891EA0187301979000000000000
B0627103203893S11710884EA0186101967000000000000
B0627143203982S11710875EA0185201959000000000000
B0627183204070S11710866EA0184401953000000000000
B0627223204157S11710857EA0184001949000000000000
B0627263204244S11710848EA0183601944000000000000
B0627303204330S11710837EA0183001940000000000000
B0627343204414S11710828EA0183501945000000000000
B0627383204494S11710816EA0184001955000000000000
B0627423204572S11710803EA0184001947000000000000
B0627463204654S11710792EA0182901937000000000000
B0627503204737S11710780EA0182201926000000000000
B0627543204824S11710768EA0180801915000000000000
B0627583204912S11710758EA0179801906000000000000
B0628023204999S11710748EA0179401900000000000000
B0628063205087S11710740EA0178901894000000000000
B0628103205171S11710732EA0178201887000000000000
B0628143205259S11710724EA0177101876000000000000
B0628183205350S11710715EA0176101867000000000000
B0628223205444S11710709EA0175301860000000000000
B0628263205536S11710702EA0175301861000000000000
B0628303205626S11710696EA0175301860000000000000
B0628343205714S11710686EA0174801853000000000000
B0628383205804S11710679EA0173901843000000000000
B0628423205895S11710671EA0172601836000000000000
B0628463205985S11710663EA0172001826000000000000
B0628503206076S11710657EA0171101817000000000000
B0628543206166S11710649EA0170201807000000000000
B0628583206254S11710646EA0169601799000000000000
B0629023206341S11710645EA0168901796000000000000
B0629063206429S11710642EA0168101784000000000000
B0629103206519S11710641EA0166601771000000000000
B0629143206609S11710638EA0165501757000000000000
B0629183206699S11710636EA0164801754000000000000
B0629223206786S11710637EA0164601753000000000000
B0629263206869S11710637EA0164801756000000000000
B0629303206948S11710638EA0164501750000000000000
B0629343207029S11710642EA0163901743000000000000
B0629383207108S11710649EA0163301739000000000000
B0629423207189S11710659EA0162801734000000000000
B0629463207271S11710672EA0161801722000000000000
B0629503207354S11710685EA0160501707000000000000
B0629543207436S11710698EA0159701700000000000000
B0629583207518S11710709EA0159001693000000000000
B0630023207601S11710718EA0157701680000000000000
B0630063207687S11710727EA0156401668000000000000
B0630103207772S11710729EA0155701659000000000000
B0630143207858S11710729EA0154601647000000000000
B0630183207945S11710725EA0153501638000000000000
B0630223208030S11710719EA0153501643000000000000
B0630263208105S11710722EA0154301651000000000000
B0630303208164S11710759EA0154701654000000000000
B0630343208187S11710819EA0154801652000000000000
B0630383208171S11710883EA0154001643000000000000
B0630423208151S11710946EA0153401636000000000000
B0630463208158S11711018EA0152701631000000000000
B0630503208199S11711082EA0151801619000000000000
B0630543208262S11711119EA0152101624000000000000
B0630583208338S11711127EA0152101624000000000000
B0631023208416S11711119EA0151401613000000000000
B0631063208499S11711105EA0150301607000000000000
B0631103208584S11711088EA0150301610000000000000
B0631143208663S11711067EA0152101634000000000000
B0631183208725S11711018EA0154001651000000000000
B0631223208779S11710950EA0154501649000000000000
B0631263208838S11710880EA0154701656000000000000
B0631303208893S11710806EA0156201674000000000000
B0631343208942S11710731EA0158001690000000000000
B0631383208935S11710642EA0159501707000000000000
B0631423208880S11710623EA0160201711000000000000
B0631463208870S11710668EA0160501717000000000000
B0631503208910S11710693EA0161801736000000000000
B0631543208964S11710654EA0163101745000000000000
B0631583208972S11710568EA0164301756000000000000
B0632023208923S11710517EA0164901761000000000000
B0632063208877S11710537EA0165401768000000000000
B0632103208881S11710585EA0166401779000000000000
B0632143208932S11710601EA0167301787000000000000
B0632183208985S11710551EA0168701801000000000000
B0632223208980S11710465EA0169201808000000000000
B0632263208928S11710428EA0170201818000000000000
B0632303208890S11710455EA0170501821000000000000
B0632343208896S11710503EA0171101824000000000000
B0632383208951S11710523EA0171201829000000000000
B0632423209019S11710498EA0172501843000000000000
B0632463209063S11710425EA0173501852000000000000
B0632503209110S11710343EA0172301830000000000000
B0632543209192S11710299EA0170201812000000000000
B0632583209283S11710282EA0170501822000000000000
B0633023209369S11710269EA0170901824000000000000
B0633063209452S11710259EA0170601817000000000000
B0633103209535S11710256EA0169701806000000000000
B0633143209618S11710261EA0169301807000000000000
B0633183209699S11710267EA0170101819000000000000
B0633223209774S11710269EA0171201828000000000000
B0633263209848S11710270EA0171901834000000000000
B0633303209924S11710268EA0171601828000000000000
B0633343210004S11710267EA0170601818000000000000
B0633383210085S11710269EA0170501818000000000000
B0633423210163S11710270EA0170801825000000000000
B0633463210238S11710272EA0170301812000000000000
B0633503210318S11710281EA0168601796000000000000
B0633543210398S11710295EA0167501787000000000000
B0633583210478S11710313EA0166401777000000000000
B0634023210556S11710334EA0166201778000000000000
B0634063210635S11710354EA0165401765000000000000
B0634103210717S11710374EA0164201754000000000000
B0634143210800S11710397EA0163601745000000000000
B0634183210883S11710421EA0162601738000000000000
B0634223210966S11710442EA0161901729000000000000
B0634263211048S11710464EA0160701717000000000000
B0634303211126S11710485EA0160201713000000000000
B0634343211204S11710504EA0158701696000000000000
B0634383211280S11710524EA0159201708000000000000
B0634423211345S11710540EA0160501719000000000000
B0634463211408S11710549EA0161601729000000000000
B0634503211471S11710542EA0161901732000000000000
B0634543211538S11710517EA0161401721000000000000
B0634583211613S11710495EA0160301707000000000000
B0635023211689S11710484EA0159901711000000000000
B0635063211762S11710478EA0160601720000000000000
B0635103211808S11710519EA0161901735000000000000
B0635143211775S11710558EA0163801756000000000000
B0635183211717S11710524EA0165401771000000000000
B0635223211696S11710447EA0166501779000000000000
B0635263211718S11710368EA0166901781000000000000
B0635303211769S11710309EA0166601776000000000000
B0635343211834S11710282EA0166801782000000000000
B0635383211895S11710293EA0167801794000000000000
B0635423211941S11710332EA0168601803000000000000
B0635463211954S11710385EA0170101820000000000000
B0635503211909S11710391EA0171501833000000000000
B0635543211873S11710321EA0172001837000000000000
B0635583211889S11710233EA0172501846000000000000
B0636023211944S11710187EA0174001858000000000000
B0636063212006S11710190EA0174701864000000000000
B0636103212062S11710221EA0175001867000000000000
B0636143212120S11710260EA0175701872000000000000
B0636183212185S11710295EA0175701873000000000000
B0636223212263S11710325EA0175601871000000000000
B0636263212347S11710352EA0174901864000000000000
B0636303212435S11710378EA0174201852000000000000
B0636343212526S11710407EA0172501839000000000000
B0636383212617S11710433EA0171901837000000000000
B0636423212706S11710456EA0171401829000000000000
B0636463212796S11710476EA0171101827000000000000
B0636503212880S11710494EA0171201825000000000000
B0636543212965S11710514EA0170101814000000000000
B0636583213049S11710533EA0169601808000000000000
B0637023213130S11710551EA0169101804000000000000
B0637063213212S11710572EA0168001786000000000000
B0637103213297S11710594EA0166601776000000000000
B0637143213382S11710619EA0165801772000000000000
B0637183213464S11710644EA0165401769000000000000
B0637223213546S11710668EA0165001762000000000000
B0637263213629S11710693EA0164201754000000000000
B0637303213711S11710716EA0163101743000000000000
B0637343213795S11710737EA0162201730000000000000
B0637383213877S11710758EA0161401724000000000000
B0637423213953S11710777EA0161601732000000000000
B0637463214015S11710809EA0162401736000000000000
B0637503214071S11710845EA0161701723000000000000
B0637543214141S11710876EA0160101707000000000000
B0637583214219S11710900EA0159501711000000000000
B0638023214285S11710939EA0160601720000000000000
B0638063214326S11710998EA0161101724000000000000
B0638103214366S11711057EA0160801719000000000000
B0638143214422S11711100EA0160201714000000000000
B0638183214489S11711119EA0159701709000000000000
B0638223214564S11711122EA0158501691000000000000
B0638263214644S11711117EA0156701675000000000000
B0638303214729S11711109EA0155501662000000000000
B0638343214813S11711096EA0154601656000000000000
B0638383214894S11711079EA0154501657000000000000
B0638423214973S11711062EA0154301653000000000000
B0638463215050S11711048EA0153701642000000000000
B0638503215126S11711037EA0152501632000000000000
B0638543215204S11711031EA0151201618000000000000
B0638583215281S11711030EA0149901604000000000000
B0639023215360S11711030EA0148301588000000000000
B0639063215441S11711031EA0146801576000000000000
B0639103215522S11711032EA0145701564000000000000
B0639143215601S11711034EA0145001557000000000000
B0639183215679S11711035EA0143801544000000000000
B0639223215758S11711036EA0142701530000000000000
B0639263215839S11711035EA0141201519000000000000
B0639303215914S11711031EA0140701512000000000000
B0639343215990S11711023EA0139901506000000000000
B0639383216064S11711015EA0139701504000000000000
B0639423216135S11711010EA0139301500000000000000
B0639463216208S11711005EA0138701493000000000000
B0639503216281S11711001EA0138101487000000000000
B0639543216352S11710997EA0137401481000000000000
B0639583216423S11710993EA0137501483000000000000
B0640023216491S11710991EA0137601486000000000000
B0640063216553S11711011EA0138001491000000000000
B0640103216593S11711056EA0139001504000000000000
B0640143216612S11711109EA0140101515000000000000
B0640183216612S11711167EA0140701518000000000000
B0640223216605S11711226EA0140501515000000000000
B0640263216605S11711290EA0139901508000000000000
B0640303216633S11711349EA0138701495000000000000
B0640343216705S11711382EA0137301483000000000000
B0640383216790S11711385EA0137001481000000000000
B0640423216878S11711372EA0136801479000000000000
B0640463216966S11711357EA0136801480000000000000
B0640503217053S11711346EA0137301487000000000000
B0640543217138S11711335EA0138301500000000000000
B0640583217217S11711326EA0140201517000000000000
B0641023217291S11711314EA0140701518000000000000
B0641063217368S11711301EA0140801518000000000000
B0641103217444S11711292EA0140801520000000000000
B0641143217520S11711283EA0140401515000000000000
B0641183217598S11711274EA0139401503000000000000
B0641223217678S11711265EA0138501491000000000000
B0641263217760S11711260EA0137201479000000000000
B0641303217837S11711265EA0136801480000000000000
B0641343217901S11711296EA0137001482000000000000
B0641383217963S11711325EA0137501486000000000000
B0641423218022S11711352EA0137901494000000000000
B0641463218064S11711399EA0138401498000000000000
B0641503218061S11711453EA0140201521000000000000
B0641543217997S11711442EA0142101540000000000000
B0641583217964S11711364EA0142701543000000000000
B0642023217983S11711275EA0142401536000000000000
B0642063218040S11711219EA0142201535000000000000
B0642103218107S11711201EA0142301532000000000000
B0642143218179S11711201EA0142501540000000000000
B0642183218252S11711196EA0143001544000000000000
B0642223218324S11711186EA0144401565000000000000
B0642263218391S11711167EA0146801590000000000000
B0642303218419S11711101EA0149501616000000000000
B0642343218383S11711040EA0151101632000000000000
B0642383218330S11711045EA0152801649000000000000
B0642423218331S11711095EA0154301664000000000000
B0642463218382S11711101EA0155901683000000000000
B0642503218418S11711048EA0157501697000000000000
B0642543218400S11710974EA0158601709000000000000
B0642583218345S11710954EA0160601726000000000000
B0643023218318S11710996EA0161501734000000000000
B0643063218350S11711035EA0162801752000000000000
B0643103218401S11711013EA0164401770000000000000
B0643143218417S11710943EA0165701777000000000000
B0643183218375S11710881EA0166701795000000000000
B0643223218323S11710889EA0168701810000000000000
B0643263218311S11710939EA0169301817000000000000
B0643303218348S11710972EA0170701835000000000000
B0643343218400S11710949EA0172301848000000000000
B0643383218423S11710881EA0173401858000000000000
B0643423218401S11710807EA0174701876000000000000
B0643463218352S11710781EA0176401889000000000000
B0643503218315S11710813EA0176901895000000000000
B0643543218330S11710862EA0177601905000000000000
B0643583218380S11710871EA0179201920000000000000
B0644023218423S11710820EA0180501932000000000000
B0644063218419S11710744EA0181601944000000000000
B0644103218374S11710697EA0183001958000000000000
B0644143218324S11710703EA0183801963000000000000
B0644183218304S11710750EA0184501972000000000000
B0644223218330S11710789EA0185801986000000000000
B0644263218382S11710783EA0186601992000000000000
B0644303218419S11710723EA0187302001000000000000
B0644343218409S11710646EA0188202012000000000000
B0644383218360S11710607EA0189802025000000000000
B0644423218314S11710628EA0189902024000000000000
B0644463218313S11710679EA0190802037000000000000
B0644503218350S11710710EA0191702042000000000000
B0644543218408S11710694EA0191802044000000000000
B0644583218447S11710629EA0192702054000000000000
B0645023218444S11710545EA0193502060000000000000
B0645063218401S11710485EA0195002080000000000000
B0645103218349S11710494EA0196502092000000000000
B0645143218336S11710543EA0196502089000000000000
B0645183218378S11710584EA0195802081000000000000
B0645223218451S11710598EA0195002074000000000000
B0645263218531S11710605EA0195102076000000000000
B0645303218617S11710608EA0195602072000000000000
B0645343218711S11710608EA0194702065000000000000
B0645383218805S11710606EA0194602060000000000000
B0645423218902S11710602EA0193502053000000000000
B0645463218999S11710595EA0193002045000000000000
B0645503219097S11710589EA0192202040000000000000
B0645543219195S11710584EA0191502033000000000000
B0645583219292S11710585EA0191102031000000000000
B0646023219387S11710592EA0190602026000000000000
B0646063219480S11710597EA0190002018000000000000
B0646103219575S11710603EA0189002007000000000000
B0646143219669S11710611EA0187801999000000000000
B0646183219762S11710618EA0187001989000000000000
B0646223219855S11710625EA0185601973000000000000
B0646263219944S11710633EA0184201961000000000000
B0646303220033S11710641EA0183301954000000000000
B0646343220122S11710646EA0183201953000000000000
B0646383220208S11710651EA0182701948000000000000
B0646423220293S11710658EA0182001940000000000000
B0646463220378S11710666EA0181201931000000000000
B0646503220464S11710672EA0180401927000000000000
B0646543220549S11710683EA0179601916000000000000
B0646583220635S11710693EA0178101902000000000000
B0647023220722S11710707EA0177001892000000000000
B0647063220807S11710722EA0176201885000000000000
B0647103220895S11710736EA0175401874000000000000
B0647143220983S11710749EA0174501868000000000000
B0647183221069S11710762EA0174201863000000000000
B0647223221152S11710775EA0173601857000000000000
B0647263221236S11710794EA0172901849000000000000
B0647303221324S11710816EA0172101840000000000000
B0647343221412S11710839EA0170801827000000000000
B0647383221503S11710858EA0169601813000000000000
B0647423221595S11710879EA0168101801000000000000
B0647463221688S11710901EA0167501797000000000000
B0647503221777S11710923EA0167001792000000000000
B0647543221867S11710946EA0166401783000000000000
B0647583221955S11710967EA0165601778000000000000
B0648023222042S11710987EA0165101773000000000000
B0648063222128S11711005EA0164701768000000000000
B0648103222211S11711023EA0164101762000000000000
B0648143222293S11711043EA0163501754000000000000
B0648183222377S11711060EA0163001754000000000000
B0648223222456S11711074EA0163201754000000000000
B0648263222533S11711092EA0162601744000000000000
B0648303222607S11711113EA0162601752000000000000
B0648343222677S11711130EA0163801762000000000000
B0648383222739S11711158EA0164301764000000000000
B0648423222790S11711204EA0164501767000000000000
B0648463222839S11711251EA0164801770000000000000
B0648503222881S11711301EA0164801770000000000000
B0648543222928S11711351EA0164401759000000000000
B0648583222998S11711382EA0162801742000000000000
B0649023223077S11711401EA0161601734000000000000
B0649063223157S11711413EA0161301732000000000000
B0649103223235S11711424EA0160101718000000000000
B0649143223311S11711433EA0160201728000000000000
B0649183223379S11711451EA0161401738000000000000
B0649223223422S11711503EA0162401749000000000000
B0649263223433S11711569EA0163301755000000000000
B0649303223433S11711635EA0163701761000000000000
B0649343223432S11711702EA0163601757000000000000
B0649383223430S11711769EA0163001749000000000000
B0649423223431S11711842EA0162101739000000000000
B0649463223458S11711915EA0161401732000000000000
B0649503223510S11711973EA0160701725000000000000
B0649543223578S11712011EA0160001718000000000000
B0649583223649S11712037EA0159501712000000000000
B0650023223721S11712058EA0158801707000000000000
B0650063223795S11712080EA0158501703000000000000
B0650103223866S11712101EA0158401702000000000000
B0650143223938S11712120EA0158401703000000000000
B0650183224008S11712140EA0158601706000000000000
B0650223224078S11712162EA0158501702000000000000
B0650263224152S11712181EA0157701691000000000000
B0650303224229S11712197EA0155901673000000000000
B0650343224310S11712213EA0154601656000000000000
B0650383224392S11712226EA0153101646000000000000
B0650423224473S11712239EA0152301634000000000000
B0650463224555S11712253EA0150401616000000000000
B0650503224639S11712267EA0148901600000000000000
B0650543224724S11712285EA0147301585000000000000
B0650583224808S11712309EA0146601582000000000000
B0651023224884S11712336EA0146501582000000000000
B0651063224964S11712360EA0146001577000000000000
B0651103225045S11712384EA0145201564000000000000
B0651143225133S11712408EA0144001553000000000000
B0651183225221S11712427EA0142701536000000000000
B0651223225316S11712439EA0141201525000000000000
B0651263225411S11712444EA0141301530000000000000
B0651303225500S11712447EA0141501531000000000000
B0651343225589S11712445EA0141301527000000000000
B0651383225677S11712445EA0140301517000000000000
B0651423225767S11712448EA0139201499000000000000
B0651463225857S11712452EA0137701486000000000000
