ACAM4N6
HFDTE310121
HFFXA050
HFPLTPILOT:JOHN WELSH              
HFGTYGLIDERTYPE:HORNET      
HFGIDGLIDERID:VH-GMY      
HFDTM100GPSDATUM:
HFRFWFIRMWAREVERSION:F2.6
HFRHWHARDWAREVERSION:300 Series Version 2
HFFTYFRTYPE:CAMBRIDGE AERO INSTRUMENTS, 302+
HFGPS:GARMIN,LVS-25,12,18000
HFPRSPRESSALTSENSOR:INTERSEMA, MS5534-AP, 20000
I033638FXA3941ENL4247REX
LCAMSBVER:5FWVER:F26300
C310121024844310121000102
C0000000N00000000WTAKEOFF     
C3207549S11656849EBEVAIR      
C3042666S11646399EKondut      
C3123132S11829099EBurracoppin 
C3207549S11656849EBEVAIR      
C0000000N00000000WLANDING     
B0250393207338S11656861EA0022300204000000000000
B0250413207338S11656861EA0022100204000000000000
B0250433207338S11656861EA0022200204000000000000
B0250453207338S11656861EA0022200204000000000000
B0250473207338S11656861EA0022200204000000000000
B0250493207338S11656861EA0022200203000000000000
B0250513207338S11656861EA0022200204000000000000
B0250533207338S11656861EA0022300204000000000000
B0250553207338S11656861EA0022200204000000000000
B0250573207338S11656861EA0022200204000000000000
B0250593207338S11656861EA0022100204000000000000
B0251013207338S11656861EA0022200204000000000000
B0251033207338S11656861EA0022300204000000000000
B0251053207338S11656861EA0022300204000000000000
B0251073207341S11656864EA0022300204000000000000
B0251083207343S11656866EA0022300204000000000000
B0251123207364S11656883EA0022200204000000000000
B0251163207399S11656908EA0022300204000000000000
B0251203207449S11656938EA0022400205000000000000
B0251243207507S11656974EA0022500206000000000000
B0251283207575S11657017EA0022600207000000000000
B0251323207645S11657066EA0022900213000000000000
B0251363207715S11657118EA0023600220000000000000
B0251403207784S11657165EA0024300238000000000000
B0251443207854S11657203EA0025900252000000000000
B0251483207922S11657244EA0027200267000000000000
B0251523207986S11657289EA0028900287000000000000
B0251563208045S11657333EA0030800306000000000000
B0252003208105S11657371EA0032500322000000000000
B0252043208164S11657412EA0033500331000000000000
B0252083208222S11657458EA0034200339000000000000
B0252123208282S11657503EA0035900357000000000000
B0252163208338S11657555EA0037100372000000000000
B0252203208394S11657614EA0038300384000000000000
B0252243208447S11657679EA0039600396000000000000
B0252283208487S11657754EA0040700407000000000000
B0252323208508S11657837EA0042300429000000000000
B0252363208509S11657924EA0044100444000000000000
B0252403208482S11658008EA0045500462000000000000
B0252443208422S11658067EA0047400480000000000000
B0252483208344S11658089EA0048800491000000015000
B0252523208264S11658071EA0049700500000000000000
B0252563208197S11658010EA0050400506000000000000
B0253003208157S11657926EA0051300517000000000000
B0253043208142S11657833EA0052400531000000000000
B0253083208157S11657742EA0053700545000000000000
B0253123208210S11657670EA0054600551000000000000
B0253163208283S11657624EA0055100557000000000000
B0253203208365S11657620EA0055400561000000000000
B0253243208439S11657660EA0056100571000000000000
B0253283208490S11657735EA0057100579000000015000
B0253323208515S11657824EA0058000590000000000000
B0253363208504S11657915EA0058900603000000000000
B0253403208459S11657992EA0060800626000000015000
B0253443208394S11658053EA0062300640000000015000
B0253483208317S11658095EA0063900657000000000000
B0253523208233S11658109EA0065700676000000000000
B0253563208144S11658101EA0067000686000000000000
B0254003208060S11658070EA0068200701000000000000
B0254043207989S11658011EA0069800719000000000000
B0254083207937S11657931EA0071600732000000000000
B0254123207902S11657836EA0072300739000000000000
B0254163207888S11657731EA0073200749000000000000
B0254203207893S11657624EA0074100760000000000000
B0254243207926S11657527EA0075100772000000000000
B0254283207984S11657451EA0076200784000000000000
B0254323208058S11657406EA0077300794000000000000
B0254363208138S11657397EA0078100800000000000000
B0254403208208S11657421EA0078700806000000000000
B0254443208262S11657473EA0079400815000000000000
B0254483208296S11657546EA0079800819000000000000
B0254523208309S11657629EA0080100821000000000000
B0254563208308S11657716EA0080400826000000000000
B0255003208299S11657802EA0081100836000000000000
B0255043208294S11657881EA0082300850000000000000
B0255083208329S11657935EA0083000855000000000000
B0255123208386S11657926EA0083300859000000015000
B0255163208415S11657861EA0083400855000000015000
B0255203208399S11657787EA0083100851000000015000
B0255243208348S11657742EA0082600843000000015000
B0255283208288S11657740EA0081800835000000015000
B0255323208238S11657770EA0080600822000000015000
B0255363208207S11657824EA0079900815000000000000
B0255403208190S11657889EA0079000803000000000000
B0255443208177S11657958EA0077900793000000000000
B0255483208155S11658028EA0076900782000000000000
B0255523208126S11658099EA0076400783000000000000
B0255563208084S11658160EA0076900790000000000000
B0256003208027S11658199EA0077600798000000000000
B0256043208026S11658261EA0078600806000000015000
B0256083208077S11658278EA0078000794000000015000
B0256123208119S11658227EA0077100787000000015000
B0256163208117S11658149EA0076900789000000015000
B0256203208071S11658089EA0077500795000000015000
B0256243208015S11658104EA0077800797000000015000
B0256283208015S11658166EA0077600790000000015000
B0256323208070S11658192EA0077100784000000015000
B0256363208121S11658144EA0077100790000000030000
B0256403208101S11658075EA0078600812000000030000
B0256443208045S11658070EA0079600812000000030000
B0256483208030S11658127EA0079500810000000015000
B0256523208078S11658161EA0078800802000000030000
B0256563208129S11658115EA0079200813000000030000
B0257003208108S11658047EA0080800830000000030000
B0257043208048S11658040EA0081500834000000030000
B0257083208019S11658093EA0081800837000000015000
B0257123208048S11658140EA0082400843000000015000
B0257163208096S11658135EA0082900847000000030000
B0257203208121S11658078EA0083300856000000015000
B0257243208097S11658014EA0084300864000000015000
B0257283208043S11657993EA0084600863000000015000
B0257323208005S11658039EA0084300861000000015000
B0257363208028S11658093EA0084100858000000015000
B0257403208084S11658096EA0084200860000000030000
B0257443208117S11658039EA0084600871000000030000
B0257483208097S11657971EA0085700880000000015000
B0257523208041S11657944EA0086000881000000015000
B0257563207999S11657983EA0085800876000000015000
B0258003208009S11658045EA0085500873000000015000
B0258043208061S11658073EA0085200872000000015000
B0258083208114S11658041EA0085900883000000015000
B0258123208147S11657983EA0086700890000000015000
B0258163208125S11657914EA0087700899000000015000
B0258203208069S11657910EA0088000900000000015000
B0258243208051S11657970EA0088100900000000015000
B0258283208095S11658000EA0088100905000000030000
B0258323208139S11657956EA0088900916000000030000
B0258363208122S11657888EA0089900921000000030000
B0258403208062S11657878EA0089800921000000015000
B0258443208034S11657935EA0089900922000000015000
B0258483208069S11657983EA0090100928000000015000
B0258523208119S11657962EA0091000935000000030000
B0258563208127S11657891EA0091700945000000030000
B0259003208080S11657842EA0092400950000000015000
B0259043208026S11657865EA0092500945000000015000
B0259083208015S11657930EA0092100945000000015000
B0259123208057S11657971EA0092500951000000015000
B0259163208110S11657950EA0092800955000000030000
B0259203208129S11657879EA0093400961000000030000
B0259243208088S11657816EA0093900964000000030000
B0259283208026S11657828EA0094100964000000015000
B0259323208012S11657892EA0094000968000000015000
B0259363208053S11657933EA0094400970000000015000
B0259403208113S11657915EA0094400971000000030000
B0259443208121S11657841EA0095200988000000030000
B0259483208066S11657803EA0096600995000000015000
B0259523208021S11657845EA0097101002000000015000
B0259563208028S11657905EA0097801006000000015000
B0300003208079S11657931EA0097801002000000030000
B0300043208132S11657896EA0097300998000000030000
B0300083208153S11657822EA0097101003000000030000
B0300123208121S11657750EA0098101010000000030000
B0300163208057S11657742EA0098301010000000015000
B0300203208026S11657801EA0098301015000000015000
B0300243208065S11657844EA0099201026000000015000
B0300283208113S11657813EA0100301037000000030000
B0300323208110S11657738EA0100901040000000030000
B0300363208056S11657696EA0101101041000000030000
B0300403208002S11657733EA0101101040000000015000
B0300443208010S11657800EA0101501049000000015000
B0300483208065S11657814EA0102201054000000030000
B0300523208100S11657753EA0103001065000000030000
B0300563208067S11657690EA0104201073000000030000
B0301003208010S11657711EA0103901066000000015000
B0301043208017S11657775EA0104501079000000015000
B0301083208070S11657779EA0105501088000000030000
B0301123208090S11657712EA0106501101000000030000
B0301163208045S11657663EA0107301106000000030000
B0301203207995S11657690EA0107401105000000015000
B0301243208004S11657749EA0107701112000000015000
B0301283208053S11657758EA0108401117000000030000
B0301323208083S11657701EA0108901120000000030000
B0301363208047S11657637EA0109201124000000030000
B0301403207988S11657650EA0109501126000000015000
B0301443207988S11657711EA0109701132000000015000
B0301483208038S11657736EA0110001134000000030000
B0301523208090S11657701EA0110401138000000030000
B0301563208100S11657624EA0110901147000000030000
B0302003208056S11657569EA0111601151000000030000
B0302043207997S11657589EA0111801151000000015000
B0302083207987S11657653EA0111801155000000015000
B0302123208032S11657689EA0112501164000000030000
B0302163208080S11657657EA0113501174000000030000
B0302203208084S11657586EA0114201179000000030000
B0302243208036S11657546EA0114501179000000030000
B0302283207988S11657577EA0114701182000000015000
B0302323207991S11657633EA0115201187000000015000
B0302363208041S11657647EA0115301187000000015000
B0302403208079S11657594EA0115601192000000030000
B0302443208056S11657528EA0116001197000000030000
B0302483207999S11657533EA0116001193000000030000
B0302523207980S11657590EA0116001197000000030000
B0302563208013S11657640EA0116201198000000015000
B0303003208070S11657638EA0116201199000000030000
B0303043208109S11657585EA0116401202000000030000
B0303083208121S11657511EA0116701202000000015000
B0303123208100S11657441EA0116801204000000015000
B0303163208047S11657408EA0116901206000000015000
B0303203207991S11657426EA0117101207000000015000
B0303243207954S11657472EA0117301210000000015000
B0303283207974S11657525EA0117501208000000015000
B0303323208027S11657530EA0117201210000000015000
B0303363208064S11657476EA0117801219000000015000
B0303403208061S11657404EA0118301218000000015000
B0303443208015S11657354EA0117901215000000015000
B0303483207958S11657369EA0117901212000000015000
B0303523207949S11657430EA0117601210000000015000
B0303563207988S11657469EA0117801215000000015000
B0304003208041S11657459EA0118101216000000030000
B0304043208075S11657402EA0118201220000000030000
B0304083208095S11657333EA0118401218000000015000
B0304123208083S11657261EA0118101213000000015000
B0304163208030S11657221EA0117801207000000015000
B0304203207971S11657231EA0117001198000000015000
B0304243207947S11657290EA0116001189000000015000
B0304283207958S11657354EA0115401186000000015000
B0304323208001S11657398EA0115301185000000015000
B0304363208057S11657421EA0115501190000000015000
B0304403208112S11657399EA0116301199000000015000
B0304443208119S11657333EA0117001203000000015000
B0304483208070S11657295EA0116901200000000015000
B0304523208031S11657334EA0116901201000000015000
B0304563208053S11657381EA0117301204000000015000
B0305003208104S11657381EA0117501208000000015000
B0305043208140S11657332EA0117601211000000030000
B0305083208123S11657264EA0118301218000000015000
B0305123208071S11657243EA0118301215000000015000
B0305163208034S11657283EA0118001210000000015000
B0305203208044S11657339EA0117901212000000015000
B0305243208092S11657359EA0118101216000000015000
B0305283208138S11657322EA0118701222000000015000
B0305323208139S11657254EA0119501229000000030000
B0305363208087S11657228EA0120001233000000015000
B0305403208053S11657272EA0120001231000000015000
B0305443208080S11657321EA0120001232000000015000
B0305483208134S11657307EA0120301237000000030000
B0305523208151S11657238EA0120901244000000030000
B0305563208117S11657178EA0121401252000000015000
B0306003208060S11657174EA0121901254000000015000
B0306043208028S11657220EA0121801251000000015000
B0306083208048S11657273EA0121901253000000015000
B0306123208099S11657285EA0122101257000000015000
B0306163208143S11657243EA0122301259000000030000
B0306203208139S11657173EA0122801264000000015000
B0306243208091S11657137EA0123401269000000015000
B0306283208048S11657168EA0123301267000000015000
B0306323208057S11657225EA0123301268000000015000
B0306363208109S11657238EA0123501270000000015000
B0306403208148S11657187EA0123801275000000030000
B0306443208136S11657118EA0124201276000000015000
B0306483208086S11657078EA0123901275000000015000
B0306523208023S11657062EA0123901274000000015000
B0306563207967S11657085EA0123701274000000015000
B0307003207930S11657135EA0123501272000000015000
B0307043207870S11657159EA0123001267000000015000
B0307083207805S11657135EA0123101270000000015000
B0307123207750S11657090EA0123301273000000000000
B0307163207700S11657039EA0123401271000000000000
B0307203207649S11656987EA0122801262000000000000
B0307243207596S11656936EA0121901253000000000000
B0307283207538S11656892EA0121101244000000000000
B0307323207476S11656858EA0120201233000000000000
B0307363207407S11656830EA0119501227000000000000
B0307403207338S11656808EA0118901223000000000000
B0307443207269S11656796EA0118401216000000000000
B0307483207198S11656792EA0117701210000000000000
B0307523207125S11656792EA0117401208000000000000
B0307563207048S11656793EA0117201205000000000000
B0308003206970S11656799EA0116901202000000000000
B0308043206890S11656802EA0116601198000000000000
B0308083206809S11656805EA0116401198000000000000
B0308123206730S11656810EA0116501199000000000000
B0308163206653S11656821EA0116401197000000000000
B0308203206578S11656831EA0116001194000000000000
B0308243206502S11656843EA0115301183000000000000
B0308283206428S11656854EA0114501172000000000000
B0308323206353S11656867EA0113501161000000000000
B0308363206276S11656880EA0112201146000000000000
B0308403206201S11656895EA0111101137000000000000
B0308443206124S11656905EA0110101128000000000000
B0308483206047S11656916EA0109101118000000000000
B0308523205972S11656929EA0108101109000000000000
B0308563205899S11656942EA0107601106000000000000
B0309003205829S11656955EA0107601105000000000000
B0309043205760S11656968EA0107501106000000000000
B0309083205695S11656988EA0108101117000000000000
B0309123205652S11657040EA0109601128000000000000
B0309163205659S11657104EA0109701121000000000000
B0309203205713S11657120EA0108501109000000015000
B0309243205760S11657066EA0107101096000000015000
B0309283205768S11656984EA0106401092000000015000
B0309323205755S11656901EA0106901102000000015000
B0309363205730S11656826EA0107901111000000015000
B0309403205672S11656806EA0108501113000000000000
B0309443205649S11656862EA0108201110000000015000
B0309483205690S11656913EA0107701102000000015000
B0309523205756S11656901EA0107301109000000015000
B0309563205800S11656841EA0108601117000000030000
B0310003205796S11656763EA0108901113000000030000
B0310043205742S11656717EA0108801117000000015000
B0310083205694S11656743EA0109501123000000015000
B0310123205712S11656802EA0109001112000000015000
B0310163205779S11656806EA0108501114000000030000
B0310203205833S11656753EA0109001120000000030000
B0310243205829S11656674EA0109901128000000030000
B0310283205776S11656637EA0109901125000000030000
B0310323205714S11656640EA0109701125000000015000
B0310363205653S11656650EA0109101118000000015000
B0310403205590S11656663EA0108301107000000015000
B0310443205523S11656678EA0107501101000000000000
B0310483205457S11656696EA0106801093000000000000
B0310523205391S11656713EA0106201087000000000000
B0310563205323S11656731EA0105201077000000000000
B0311003205256S11656752EA0104301069000000000000
B0311043205191S11656773EA0103601063000000000000
B0311083205126S11656792EA0103101059000000000000
B0311123205059S11656810EA0102901057000000000000
B0311163204994S11656836EA0103101057000000000000
B0311203204941S11656883EA0102601051000000000000
B0311243204920S11656951EA0102501053000000000000
B0311283204955S11657009EA0102901057000000000000
B0311323205011S11657026EA0102701051000000015000
B0311363205049S11656974EA0102001043000000015000
B0311403205035S11656903EA0100901033000000015000
B0311443204986S11656845EA0100501031000000015000
B0311483204921S11656827EA0100001022000000015000
B0311523204851S11656847EA0099501017000000015000
B0311563204784S11656884EA0099501025000000000000
B0312003204764S11656949EA0101001047000000000000
B0312043204812S11656960EA0102601055000000015000
B0312083204827S11656892EA0102501052000000015000
B0312123204771S11656857EA0103101062000000015000
B0312163204729S11656904EA0103901068000000015000
B0312203204759S11656951EA0104801080000000015000
B0312243204806S11656923EA0105301075000000030000
B0312283204799S11656849EA0105001079000000030000
B0312323204739S11656840EA0105501084000000015000
B0312363204724S11656901EA0106001092000000015000
B0312403204771S11656908EA0107201104000000030000
B0312443204786S11656843EA0107701108000000030000
B0312483204743S11656799EA0108501116000000015000
B0312523204693S11656831EA0108601113000000015000
B0312563204697S11656887EA0109001122000000015000
B0313003204746S11656897EA0109301122000000030000
B0313043204784S11656841EA0109101125000000030000
B0313083204781S11656763EA0109601130000000030000
B0313123204723S11656737EA0110101133000000015000
B0313163204689S11656793EA0110601137000000015000
B0313203204726S11656830EA0111401148000000030000
B0313243204759S11656780EA0112401154000000030000
B0313283204713S11656731EA0112601152000000030000
B0313323204667S11656776EA0112501155000000030000
B0313363204695S11656819EA0113501166000000030000
B0313403204739S11656788EA0114101171000000030000
B0313443204739S11656719EA0114401176000000030000
B0313483204687S11656676EA0114801178000000015000
B0313523204626S11656700EA0114601173000000015000
B0313563204619S11656765EA0114601183000000015000
B0314003204661S11656778EA0115501187000000030000
B0314043204697S11656727EA0115701190000000030000
B0314083204684S11656656EA0116401195000000030000
B0314123204625S11656623EA0116601197000000015000
B0314163204572S11656662EA0116401194000000015000
B0314203204576S11656723EA0116801204000000030000
B0314243204617S11656741EA0117401205000000015000
B0314283204659S11656706EA0117301204000000015000
B0314323204663S11656633EA0117701210000000015000
B0314363204619S11656583EA0117901212000000015000
B0314403204556S11656594EA0117801207000000015000
B0314443204512S11656646EA0117201203000000015000
B0314483204483S11656710EA0117201202000000015000
B0314523204466S11656779EA0116701195000000015000
B0314563204442S11656851EA0115901189000000015000
B0315003204398S11656916EA0115301182000000000000
B0315043204342S11656969EA0114701177000000000000
B0315083204277S11657009EA0114701182000000000000
B0315123204208S11657039EA0115301189000000000000
B0315163204136S11657060EA0115801192000000000000
B0315203204071S11657091EA0117201209000000000000
B0315243204067S11657159EA0118701228000000000000
B0315283204118S11657170EA0120501243000000015000
B0315323204144S11657111EA0120801245000000015000
B0315363204114S11657048EA0121301254000000015000
B0315403204062S11657055EA0122401263000000015000
B0315443204053S11657116EA0122901268000000015000
B0315483204100S11657150EA0123801281000000015000
B0315523204145S11657108EA0124801285000000030000
B0315563204135S11657036EA0125401294000000030000
B0316003204083S11657009EA0126301302000000015000
B0316043204052S11657060EA0126901307000000015000
B0316083204086S11657108EA0127701318000000030000
B0316123204135S11657077EA0128801328000000030000
B0316163204130S11657007EA0129301332000000030000
B0316203204074S11656978EA0130001340000000015000
B0316243204037S11657025EA0130801345000000015000
B0316283204067S11657077EA0131401358000000015000
B0316323204121S11657064EA0132401367000000030000
B0316363204141S11656997EA0133001371000000030000
B0316403204109S11656935EA0133501380000000015000
B0316443204053S11656929EA0134701393000000015000
B0316483204022S11656981EA0135701400000000015000
B0316523204047S11657035EA0136401410000000015000
B0316563204097S11657021EA0137301419000000030000
B0317003204112S11656953EA0137701420000000030000
B0317043204067S11656905EA0138001428000000015000
B0317083204015S11656931EA0139101440000000015000
B0317123204013S11656994EA0139901448000000015000
B0317163204057S11657016EA0140701460000000015000
B0317203204100S11656977EA0141201460000000030000
B0317243204104S11656906EA0141401464000000030000
B0317283204061S11656852EA0142001474000000015000
B0317323204005S11656848EA0143101482000000015000
B0317363203961S11656888EA0143101478000000015000
B0317403203954S11656953EA0142801481000000015000
B0317443203988S11657003EA0143401489000000015000
B0317483204040S11656996EA0144401499000000030000
B0317523204066S11656935EA0144301495000000030000
B0317563204047S11656866EA0144301498000000015000
B0318003203993S11656830EA0144801502000000015000
B0318043203943S11656854EA0145401505000000015000
B0318083203945S11656912EA0145501507000000015000
B0318123203996S11656921EA0145901510000000015000
B0318163204027S11656860EA0146101514000000030000
B0318203204000S11656793EA0146601518000000030000
B0318243203939S11656788EA0146801516000000015000
B0318283203905S11656839EA0146801519000000015000
B0318323203928S11656887EA0147301521000000015000
B0318363203979S11656877EA0147701524000000015000
B0318403204002S11656813EA0147901528000000015000
B0318443203976S11656748EA0148401534000000015000
B0318483203922S11656723EA0148501529000000015000
B0318523203863S11656744EA0147701520000000015000
B0318563203798S11656763EA0146701507000000015000
B0319003203723S11656765EA0144801488000000015000
B0319043203644S11656747EA0143101472000000000000
B0319083203564S11656715EA0141701459000000000000
B0319123203486S11656682EA0140801450000000000000
B0319163203410S11656648EA0140201443000000000000
B0319203203335S11656610EA0139601440000000000000
B0319243203265S11656570EA0139501438000000000000
B0319283203196S11656528EA0138901431000000000000
B0319323203125S11656489EA0138001420000000000000
B0319363203052S11656450EA0137201412000000000000
B0319403202977S11656419EA0136601406000000000000
B0319443202901S11656398EA0135901400000000000000
B0319483202825S11656385EA0135301392000000000000
B0319523202748S11656380EA0134401382000000000000
B0319563202670S11656377EA0133501371000000000000
B0320003202592S11656375EA0132401360000000000000
B0320043202514S11656377EA0131401350000000000000
B0320083202436S11656381EA0130601344000000000000
B0320123202359S11656385EA0130201341000000000000
B0320163202284S11656385EA0130101341000000000000
B0320203202208S11656383EA0130601348000000000000
B0320243202132S11656380EA0130601342000000000000
B0320283202055S11656376EA0129901334000000000000
B0320323201978S11656375EA0128901325000000000000
B0320363201900S11656373EA0128001315000000000000
B0320403201821S11656372EA0127401309000000000000
B0320443201742S11656376EA0127501314000000000000
B0320483201674S11656405EA0127401307000000000000
B0320523201604S11656436EA0125501286000000000000
B0320563201526S11656448EA0123701268000000000000
B0321003201444S11656448EA0122101246000000000000
B0321043201361S11656442EA0120701241000000000000
B0321083201283S11656437EA0120901245000000000000
B0321123201203S11656431EA0120701241000000000000
B0321163201124S11656423EA0120801245000000000000
B0321203201046S11656423EA0121601254000000000000
B0321243200977S11656444EA0123201273000000000000
B0321283200969S11656498EA0125401294000000000000
B0321323201014S11656514EA0126101292000000000000
B0321363201054S11656464EA0125801293000000000000
B0321403201037S11656396EA0126601305000000000000
B0321443200980S11656383EA0127301309000000000000
B0321483200962S11656437EA0127201308000000015000
B0321523201005S11656468EA0127301309000000015000
B0321563201049S11656423EA0127201309000000015000
B0322003201038S11656349EA0127501316000000015000
B0322043200981S11656315EA0128501328000000015000
B0322083200936S11656353EA0128901323000000015000
B0322123200951S11656415EA0128001315000000015000
B0322163201010S11656431EA0127701313000000015000
B0322203201054S11656375EA0127501313000000015000
B0322243201041S11656293EA0127901316000000015000
B0322283200980S11656240EA0128101322000000015000
B0322323200920S11656262EA0129301332000000015000
B0322363200934S11656312EA0129601334000000015000
B0322403200985S11656306EA0129201331000000015000
B0322443201011S11656237EA0129401336000000015000
B0322483201011S11656158EA0130201349000000000000
B0322523200966S11656102EA0130801342000000000000
B0322563200897S11656097EA0129601332000000000000
B0323003200821S11656100EA0128401319000000000000
B0323043200743S11656099EA0127501311000000000000
B0323083200664S11656093EA0127001309000000000000
B0323123200586S11656087EA0127301312000000000000
B0323163200505S11656078EA0126901304000000000000
B0323203200421S11656067EA0125701288000000000000
B0323243200335S11656050EA0124101275000000000000
B0323283200251S11656032EA0122701259000000000000
B0323323200165S11656015EA0121401248000000000000
B0323363200079S11656008EA0120801240000000000000
B0323403159994S11656006EA0120001234000000000000
B0323443159914S11656007EA0120201239000000000000
B0323483159836S11656011EA0119601223000000000000
B0323523159754S11656011EA0118301210000000000000
B0323563159671S11656011EA0117101200000000000000
B0324003159588S11656007EA0116201192000000000000
B0324043159507S11656000EA0115501183000000000000
B0324083159426S11655990EA0114901179000000000000
B0324123159348S11655980EA0115301186000000000000
B0324163159276S11655972EA0115601188000000000000
B0324203159203S11655967EA0115401184000000000000
B0324243159127S11655957EA0114701173000000000000
B0324283159047S11655947EA0113401160000000000000
B0324323158965S11655935EA0112301150000000000000
B0324363158883S11655920EA0111401141000000000000
B0324403158801S11655903EA0111101141000000000000
B0324443158722S11655885EA0111801148000000000000
B0324483158644S11655886EA0112101152000000000000
B0324523158594S11655941EA0112801161000000000000
B0324563158605S11656009EA0113201158000000000000
B0325003158661S11656032EA0112901159000000000000
B0325043158706S11655981EA0113501167000000000000
B0325083158707S11655902EA0113701166000000000000
B0325123158684S11655822EA0113601166000000000000
B0325163158635S11655759EA0114001171000000000000
B0325203158570S11655726EA0114501175000000000000
B0325243158511S11655752EA0114401173000000000000
B0325283158519S11655808EA0114101166000000000000
B0325323158572S11655799EA0113501168000000000000
B0325363158585S11655725EA0114001174000000000000
B0325403158549S11655656EA0114601176000000000000
B0325443158489S11655616EA0113901166000000000000
B0325483158419S11655593EA0112701151000000000000
B0325523158346S11655578EA0111401139000000000000
B0325563158271S11655566EA0109901122000000000000
B0326003158194S11655557EA0108301107000000000000
B0326043158117S11655548EA0107001094000000000000
B0326083158042S11655539EA0106201082000000000000
B0326123157965S11655531EA0104601064000000000000
B0326163157887S11655525EA0103301055000000000000
B0326203157809S11655519EA0102601051000000000000
B0326243157734S11655514EA0102801053000000000000
B0326283157662S11655510EA0103101058000000000000
B0326323157597S11655517EA0104301073000000000000
B0326363157576S11655567EA0106501093000000000000
B0326403157631S11655582EA0107001093000000000000
B0326443157651S11655509EA0107101098000000000000
B0326483157601S11655466EA0108001110000000000000
B0326523157576S11655514EA0108901118000000015000
B0326563157627S11655545EA0109301122000000015000
B0327003157665S11655483EA0109901131000000015000
B0327043157635S11655415EA0110301133000000015000
B0327083157579S11655421EA0111001143000000015000
B0327123157586S11655479EA0112001155000000015000
B0327163157643S11655480EA0112901157000000015000
B0327203157662S11655408EA0113001161000000015000
B0327243157621S11655353EA0113301165000000015000
B0327283157573S11655371EA0114001173000000015000
B0327323157595S11655424EA0114601175000000015000
B0327363157652S11655388EA0114701175000000015000
B0327403157638S11655310EA0115001179000000015000
B0327443157580S11655293EA0115301184000000015000
B0327483157549S11655340EA0116001193000000015000
B0327523157573S11655389EA0117201200000000015000
B0327563157634S11655384EA0117801203000000015000
B0328003157664S11655314EA0117801203000000015000
B0328043157628S11655246EA0117801206000000015000
B0328083157571S11655241EA0118201212000000015000
B0328123157528S11655285EA0118901223000000015000
B0328163157523S11655348EA0120101240000000015000
B0328203157583S11655353EA0122301261000000015000
B0328243157602S11655278EA0123701269000000015000
B0328283157558S11655231EA0124101274000000015000
B0328323157510S11655262EA0124701284000000015000
B0328363157505S11655326EA0126301308000000015000
B0328403157548S11655371EA0128401325000000015000
B0328443157609S11655358EA0129301328000000015000
B0328483157636S11655288EA0129301329000000015000
B0328523157605S11655219EA0129101325000000015000
B0328563157547S11655205EA0129201330000000015000
B0329003157498S11655239EA0129601341000000015000
B0329043157514S11655296EA0131101356000000015000
B0329083157573S11655259EA0132501370000000015000
B0329123157558S11655181EA0133401375000000015000
B0329163157500S11655172EA0134201389000000015000
B0329203157498S11655231EA0135701409000000015000
B0329243157558S11655233EA0137701428000000015000
B0329283157587S11655162EA0138801432000000015000
B0329323157547S11655102EA0139201438000000015000
B0329363157491S11655116EA0139601441000000015000
B0329403157493S11655183EA0140601455000000015000
B0329443157556S11655197EA0142501476000000015000
B0329483157591S11655131EA0144101490000000015000
B0329523157558S11655070EA0144601491000000015000
B0329563157505S11655077EA0144501492000000015000
B0330003157487S11655137EA0145101499000000015000
B0330043157523S11655193EA0146001519000000015000
B0330083157586S11655179EA0148301533000000015000
B0330123157612S11655103EA0148401529000000015000
B0330163157578S11655033EA0148401535000000015000
B0330203157518S11655023EA0149301545000000015000
B0330243157474S11655064EA0149901550000000015000
B0330283157466S11655127EA0150901561000000015000
B0330323157522S11655155EA0151701570000000015000
B0330363157573S11655101EA0153201588000000015000
B0330403157556S11655028EA0154401595000000015000
B0330443157501S11655020EA0155101602000000015000
B0330483157478S11655075EA0155801610000000015000
B0330523157510S11655131EA0156301618000000015000
B0330563157573S11655141EA0157001618000000015000
B0331003157626S11655092EA0157001621000000015000
B0331043157636S11655012EA0157301627000000015000
B0331083157604S11654947EA0157901632000000015000
B0331123157550S11654919EA0158601640000000015000
B0331163157501S11654943EA0158801640000000015000
B0331203157457S11654984EA0159101645000000000000
B0331243157414S11655036EA0159101643000000000000
B0331283157352S11655073EA0158101633000000000000
B0331323157275S11655077EA0157601630000000000000
B0331363157197S11655063EA0157001619000000000000
B0331403157119S11655038EA0155701606000000000000
B0331443157038S11655010EA0154601594000000000000
B0331483156958S11654977EA0153401582000000000000
B0331523156878S11654943EA0152501572000000000000
B0331563156796S11654910EA0151501562000000000000
B0332003156713S11654872EA0150001546000000000000
B0332043156627S11654830EA0148701530000000000000
B0332083156540S11654786EA0147601518000000000000
B0332123156455S11654742EA0146301507000000000000
B0332163156369S11654696EA0145401496000000000000
B0332203156282S11654651EA0144201484000000000000
B0332243156195S11654607EA0143001473000000000000
B0332283156105S11654565EA0142001463000000000000
B0332323156016S11654522EA0141201457000000000000
B0332363155929S11654481EA0140401447000000000000
B0332403155841S11654439EA0139401436000000000000
B0332443155751S11654407EA0138701427000000000000
B0332483155660S11654383EA0137901419000000000000
B0332523155569S11654366EA0137101410000000000000
B0332563155478S11654352EA0136201403000000000000
B0333003155387S11654339EA0135401395000000000000
B0333043155299S11654326EA0134601384000000000000
B0333083155209S11654313EA0133701377000000000000
B0333123155121S11654303EA0133401375000000000000
B0333163155035S11654296EA0133601380000000000000
B0333203154953S11654292EA0133801379000000000000
B0333243154869S11654291EA0133401372000000000000
B0333283154783S11654290EA0132901369000000000000
B0333323154697S11654293EA0133701381000000000000
B0333363154624S11654325EA0135001394000000000000
B0333403154594S11654390EA0136501414000000000000
B0333443154640S11654410EA0138701434000000000000
B0333483154659S11654343EA0139301435000000000000
B0333523154609S11654295EA0139301435000000015000
B0333563154545S11654308EA0139301437000000015000
B0334003154505S11654358EA0139401437000000015000
B0334043154489S11654426EA0139301436000000000000
B0334083154486S11654494EA0139501438000000000000
B0334123154523S11654533EA0139801439000000000000
B0334163154573S11654503EA0139601435000000015000
B0334203154601S11654427EA0139101434000000015000
B0334243154619S11654347EA0139901450000000000000
B0334283154632S11654267EA0141401463000000000000
B0334323154619S11654191EA0142201468000000000000
B0334363154563S11654165EA0142401470000000000000
B0334403154527S11654210EA0142301469000000000000
B0334443154557S11654254EA0142701472000000015000
B0334483154612S11654235EA0142901478000000015000
B0334523154654S11654174EA0143301477000000015000
B0334563154651S11654093EA0143301477000000015000
B0335003154593S11654041EA0143201473000000015000
B0335043154519S11654023EA0142501468000000015000
B0335083154442S11654020EA0142201465000000000000
B0335123154364S11654022EA0141401454000000000000
B0335163154285S11654022EA0139901437000000000000
B0335203154203S11654015EA0138501423000000000000
B0335243154120S11654007EA0137001408000000000000
B0335283154035S11654004EA0135801397000000000000
B0335323153949S11654001EA0135101387000000000000
B0335363153864S11653996EA0134001375000000000000
B0335403153779S11653987EA0133201369000000000000
B0335443153697S11653978EA0132701362000000000000
B0335483153617S11653970EA0132301360000000000000
B0335523153539S11653962EA0132401362000000000000
B0335563153470S11653980EA0133201373000000000000
B0336003153406S11654014EA0133601376000000000000
B0336043153348S11654056EA0133901380000000000000
B0336083153290S11654101EA0134501388000000000000
B0336123153237S11654150EA0135501402000000000000
B0336163153238S11654214EA0137801431000000000000
B0336203153293S11654219EA0139801445000000000000
B0336243153307S11654145EA0140901457000000000000
B0336283153254S11654100EA0142601476000000000000
B0336323153202S11654131EA0144101493000000015000
B0336363153212S11654193EA0146001509000000015000
B0336403153268S11654192EA0147101521000000015000
B0336443153280S11654122EA0148501538000000015000
B0336483153232S11654076EA0150101556000000015000
B0336523153181S11654102EA0151701573000000015000
B0336563153181S11654162EA0153201583000000015000
B0337003153236S11654170EA0153301585000000015000
B0337043153255S11654098EA0154201596000000015000
B0337083153207S11654045EA0155901618000000015000
B0337123153146S11654053EA0157901637000000015000
B0337163153120S11654104EA0158601638000000015000
B0337203153151S11654148EA0158401635000000015000
B0337243153208S11654130EA0157801633000000015000
B0337283153245S11654065EA0157901638000000015000
B0337323153259S11653984EA0159101654000000015000
B0337363153220S11653928EA0161101675000000000000
B0337403153169S11653949EA0162901691000000000000
B0337443153190S11654005EA0164401704000000000000
B0337483153247S11653991EA0165901723000000000000
B0337523153260S11653918EA0167701740000000000000
B0337563153214S11653868EA0169101752000000000000
B0338003153159S11653890EA0170201767000000000000
B0338043153150S11653949EA0171601775000000000000
B0338083153199S11653980EA0172001783000000000000
B0338123153249S11653940EA0173201802000000015000
B0338163153249S11653866EA0175101824000000015000
B0338203153194S11653836EA0177001841000000000000
B0338243153153S11653881EA0178801859000000000000
B0338283153167S11653941EA0180701877000000000000
B0338323153220S11653945EA0182101886000000015000
B0338363153247S11653875EA0182901901000000015000
B0338403153208S11653814EA0185001926000000015000
B0338443153150S11653825EA0187301947000000015000
B0338483153138S11653881EA0189401965000000000000
B0338523153180S11653907EA0190501967000000000000
B0338563153228S11653857EA0190101969000000000000
B0339003153203S11653781EA0192101999000000015000
B0339043153142S11653781EA0194502019000000000000
B0339083153121S11653837EA0195502029000000000000
B0339123153166S11653870EA0196402035000000000000
B0339163153211S11653823EA0197002046000000000000
B0339203153194S11653747EA0198402067000000000000
B0339243153136S11653708EA0200402084000000000000
B0339283153072S11653712EA0201302082000000000000
B0339323153024S11653755EA0201302082000000000000
B0339363153015S11653820EA0201002075000000000000
B0339403153058S11653858EA0200402076000000000000
B0339443153112S11653831EA0200602076000000000000
B0339483153143S11653759EA0201102083000000000000
B0339523153137S11653681EA0202902106000000015000
B0339563153085S11653647EA0203902108000000000000
B0340003153024S11653667EA0202602093000000000000
B0340043152954S11653689EA0201602075000000000000
B0340083152872S11653702EA0199502055000000000000
B0340123152785S11653711EA0197702041000000000000
B0340163152695S11653710EA0196902038000000000000
B0340203152608S11653697EA0196602035000000000000
B0340243152521S11653680EA0196102028000000000000
B0340283152434S11653663EA0195302021000000000000
B0340323152345S11653647EA0194802016000000000000
B0340363152257S11653633EA0194302011000000000000
B0340403152170S11653619EA0193802006000000000000
B0340443152083S11653604EA0193402002000000000000
B0340483151998S11653588EA0193001997000000000000
B0340523151912S11653572EA0192501990000000000000
B0340563151828S11653556EA0191501981000000000000
B0341003151741S11653538EA0190601972000000000000
B0341043151652S11653519EA0189501960000000000000
B0341083151561S11653498EA0188401948000000000000
B0341123151470S11653481EA0187101935000000000000
B0341163151378S11653463EA0186601932000000000000
B0341203151288S11653447EA0186401931000000000000
B0341243151200S11653432EA0186301929000000000000
B0341283151113S11653416EA0186301931000000000000
B0341323151030S11653406EA0186701936000000000000
B0341363150946S11653400EA0186601932000000000000
B0341403150861S11653396EA0185601920000000000000
B0341443150772S11653393EA0184701911000000000000
B0341483150684S11653387EA0184201906000000000000
B0341523150598S11653382EA0184101908000000000000
B0341563150512S11653377EA0184301906000000000000
B0342003150426S11653368EA0183501899000000000000
B0342043150339S11653357EA0182801890000000000000
B0342083150252S11653347EA0181801876000000000000
B0342123150164S11653338EA0180501865000000000000
B0342163150078S11653330EA0180101864000000000000
B0342203149996S11653328EA0179901861000000000000
B0342243149916S11653329EA0178901850000000000000
B0342283149834S11653330EA0178001838000000000000
B0342323149752S11653326EA0177301836000000000000
B0342363149671S11653324EA0177101830000000000000
B0342403149591S11653315EA0175701816000000000000
B0342443149510S11653300EA0174801807000000000000
B0342483149433S11653281EA0174001798000000000000
B0342523149357S11653260EA0172901785000000000000
B0342563149281S11653242EA0171901778000000000000
B0343003149206S11653224EA0171401773000000000000
B0343043149129S11653207EA0170901769000000000000
B0343083149051S11653191EA0170401764000000000000
B0343123148973S11653173EA0170301764000000000000
B0343163148894S11653155EA0170301763000000000000
B0343203148813S11653135EA0170101761000000000000
B0343243148731S11653116EA0170001758000000000000
B0343283148648S11653096EA0169601755000000000000
B0343323148564S11653075EA0169001746000000000000
B0343363148476S11653053EA0168001734000000000000
B0343403148389S11653035EA0166701720000000000000
B0343443148300S11653023EA0166201721000000000000
B0343483148215S11653019EA0166401723000000000000
B0343523148132S11653017EA0166201721000000000000
B0343563148050S11653018EA0166301720000000000000
B0344003147969S11653022EA0165701710000000000000
B0344043147888S11653030EA0164501698000000000000
B0344083147807S11653040EA0163801697000000000000
B0344123147728S11653048EA0164001695000000000000
B0344163147647S11653055EA0163001679000000000000
B0344203147566S11653060EA0161501667000000000000
B0344243147487S11653060EA0160701658000000000000
B0344283147409S11653056EA0160201653000000000000
B0344323147330S11653053EA0159601649000000000000
B0344363147252S11653049EA0159301643000000000000
B0344403147171S11653042EA0158701638000000000000
B0344443147087S11653035EA0158301635000000000000
B0344483147001S11653039EA0159401656000000000000
B0344523146952S11653092EA0162101689000000000000
B0344563146983S11653131EA0164701705000000000000
B0345003147023S11653084EA0165201708000000000000
B0345043147004S11653012EA0166301727000000000000
B0345083146945S11652992EA0168001739000000000000
B0345123146920S11653044EA0168901749000000000000
B0345163146965S11653070EA0169501755000000000000
B0345203146998S11653013EA0170101763000000015000
B0345243146957S11652956EA0171201776000000015000
B0345283146902S11652983EA0172301786000000000000
B0345323146910S11653042EA0173401799000000000000
B0345363146963S11653044EA0174501808000000015000
B0345403146979S11652977EA0175301817000000015000
B0345443146926S11652940EA0176401829000000000000
B0345483146887S11652984EA0177301837000000000000
B0345523146909S11653034EA0178201846000000000000
B0345563146963S11653043EA0179001853000000000000
B0346003147013S11653000EA0179501860000000000000
B0346043147004S11652926EA0180101863000000000000
B0346083146941S11652905EA0181201882000000000000
B0346123146907S11652956EA0182701891000000000000
B0346163146941S11652999EA0183401903000000000000
B0346203146997S11652980EA0184601911000000000000
B0346243147015S11652909EA0184901915000000000000
B0346283146970S11652849EA0185101915000000015000
B0346323146900S11652847EA0185801929000000000000
B0346363146867S11652902EA0186701933000000000000
B0346403146903S11652951EA0187201939000000000000
B0346443146963S11652940EA0188101949000000000000
B0346483147009S11652880EA0188301949000000015000
B0346523147035S11652798EA0188001944000000015000
B0346563147018S11652711EA0187601934000000015000
B0347003146949S11652655EA0186301926000000000000
B0347043146864S11652629EA0185801923000000000000
B0347083146777S11652615EA0186101932000000000000
B0347123146690S11652609EA0186801938000000000000
B0347163146607S11652611EA0187501943000000000000
B0347203146523S11652624EA0187001932000000000000
B0347243146433S11652633EA0185701921000000000000
B0347283146342S11652636EA0184901915000000000000
B0347323146252S11652629EA0184801913000000000000
B0347363146164S11652616EA0183801901000000000000
B0347403146071S11652600EA0182601889000000000000
B0347443145980S11652584EA0182401889000000000000
B0347483145889S11652568EA0182401888000000000000
B0347523145801S11652550EA0182301888000000000000
B0347563145711S11652535EA0182401889000000000000
B0348003145624S11652520EA0182601892000000000000
B0348043145540S11652506EA0181901878000000000000
B0348083145453S11652490EA0180201862000000000000
B0348123145364S11652479EA0179701862000000000000
B0348163145277S11652464EA0179401856000000000000
B0348203145191S11652445EA0178801847000000000000
B0348243145104S11652423EA0177401832000000000000
B0348283145016S11652395EA0176601831000000000000
B0348323144929S11652363EA0176201821000000000000
B0348363144843S11652327EA0174901807000000000000
B0348403144755S11652293EA0174001798000000000000
B0348443144665S11652267EA0173101790000000000000
B0348483144573S11652242EA0172501784000000000000
B0348523144482S11652213EA0172001776000000000000
B0348563144391S11652184EA0171301771000000000000
B0349003144300S11652152EA0171101771000000000000
B0349043144211S11652121EA0170901767000000000000
B0349083144121S11652089EA0170201759000000000000
B0349123144030S11652063EA0169401751000000000000
B0349163143938S11652037EA0168401739000000000000
B0349203143845S11652011EA0167401731000000000000
B0349243143750S11651982EA0166601718000000000000
B0349283143657S11651955EA0165601710000000000000
B0349323143566S11651926EA0164701700000000000000
B0349363143477S11651899EA0164001694000000000000
B0349403143387S11651870EA0163401689000000000000
B0349443143300S11651843EA0163201690000000000000
B0349483143215S11651817EA0162901685000000000000
B0349523143130S11651791EA0162701682000000000000
B0349563143044S11651764EA0162401681000000000000
B0350003142957S11651739EA0162201675000000000000
B0350043142870S11651714EA0161901673000000000000
B0350083142781S11651688EA0161601669000000000000
B0350123142694S11651662EA0161401669000000000000
B0350163142607S11651636EA0161101663000000000000
B0350203142521S11651608EA0160701657000000000000
B0350243142437S11651575EA0159701648000000000000
B0350283142355S11651540EA0159101643000000000000
B0350323142274S11651506EA0158901640000000000000
B0350363142195S11651472EA0158501637000000000000
B0350403142117S11651439EA0157501624000000000000
B0350443142035S11651406EA0156401611000000000000
B0350483141954S11651372EA0155001597000000000000
B0350523141871S11651336EA0154001587000000000000
B0350563141789S11651298EA0153201583000000000000
B0351003141707S11651258EA0153001582000000000000
B0351043141625S11651214EA0153001584000000000000
B0351083141546S11651172EA0153701593000000000000
B0351123141467S11651151EA0154901607000000000000
B0351163141402S11651177EA0156101615000000000000
B0351203141356S11651228EA0156401617000000000000
B0351243141321S11651285EA0156001607000000000000
B0351283141259S11651324EA0154101587000000000000
B0351323141176S11651328EA0152701575000000000000
B0351363141089S11651303EA0151401561000000000000
B0351403141003S11651266EA0151001561000000000000
B0351443140920S11651227EA0151001560000000000000
B0351483140839S11651192EA0150501553000000000000
B0351523140758S11651159EA0149801545000000000000
B0351563140676S11651129EA0149101538000000000000
B0352003140595S11651099EA0148001525000000000000
B0352043140510S11651064EA0146901517000000000000
B0352083140428S11651023EA0146001507000000000000
B0352123140345S11650981EA0145001490000000000000
B0352163140262S11650934EA0143401477000000000000
B0352203140179S11650886EA0142501469000000000000
B0352243140099S11650838EA0141601459000000000000
B0352283140019S11650789EA0140601450000000000000
B0352323139939S11650741EA0140201447000000000000
B0352363139861S11650696EA0139601441000000000000
B0352403139783S11650656EA0139301437000000000000
B0352443139707S11650617EA0138901431000000000000
B0352483139629S11650581EA0138201422000000000000
B0352523139549S11650543EA0137101407000000000000
B0352563139471S11650499EA0136101402000000000000
B0353003139396S11650453EA0135601396000000000000
B0353043139321S11650406EA0135601398000000000000
B0353083139248S11650358EA0135901404000000000000
B0353123139176S11650315EA0136701413000000000000
B0353163139105S11650291EA0137601426000000000000
B0353203139053S11650322EA0139201444000000000000
B0353243139077S11650367EA0140401448000000000000
B0353283139136S11650328EA0140501449000000000000
B0353323139144S11650237EA0140701453000000000000
B0353363139102S11650161EA0141001459000000000000
B0353403139036S11650137EA0142301474000000000000
B0353443139003S11650179EA0144501500000000000000
B0353483139041S11650206EA0145301494000000000000
B0353523139088S11650152EA0144601493000000000000
B0353563139098S11650063EA0145501504000000000000
B0354003139066S11649994EA0146301509000000000000
B0354043139002S11650000EA0146001505000000000000
B0354083138955S11650054EA0146201510000000000000
B0354123138931S11650117EA0147601535000000000000
B0354163138971S11650139EA0149701544000000000000
B0354203139007S11650078EA0149401541000000015000
B0354243138985S11649997EA0149901553000000015000
B0354283138925S11649968EA0151401567000000015000
B0354323138889S11650015EA0152701580000000000000
B0354363138921S11650054EA0153901590000000000000
B0354403138971S11650013EA0154001592000000015000
B0354443138979S11649932EA0155001604000000015000
B0354483138928S11649875EA0155901609000000015000
B0354523138864S11649890EA0156601619000000000000
B0354563138849S11649955EA0157401627000000000000
B0355003138888S11650000EA0158201641000000000000
B0355043138941S11649972EA0158901638000000015000
B0355083138951S11649889EA0158801648000000015000
B0355123138911S11649825EA0160101663000000015000
B0355163138851S11649820EA0161301668000000000000
B0355203138817S11649871EA0162001678000000000000
B0355243138849S11649914EA0162601679000000000000
B0355283138899S11649872EA0162801682000000015000
B0355323138902S11649789EA0163501695000000000000
B0355363138859S11649727EA0164801709000000000000
B0355403138801S11649736EA0165901716000000000000
B0355443138786S11649795EA0166201717000000000000
B0355483138827S11649833EA0166601729000000000000
B0355523138877S11649803EA0167701737000000015000
B0355563138888S11649729EA0168301742000000015000
B0356003138838S11649672EA0168801747000000015000
B0356043138780S11649699EA0169001748000000000000
B0356083138781S11649763EA0169801759000000000000
B0356123138834S11649773EA0170501764000000000000
B0356163138869S11649714EA0170801769000000015000
B0356203138867S11649632EA0171601781000000015000
B0356243138819S11649584EA0172701793000000000000
B0356283138776S11649620EA0173201791000000000000
B0356323138798S11649671EA0173401800000000000000
B0356363138849S11649656EA0174201804000000000000
B0356403138872S11649585EA0174701811000000015000
B0356443138847S11649511EA0175301816000000015000
B0356483138789S11649486EA0175701818000000000000
B0356523138737S11649525EA0175901821000000000000
B0356563138706S11649586EA0176201822000000000000
B0357003138729S11649641EA0176701832000000000000
B0357043138780S11649624EA0177501833000000000000
B0357083138789S11649547EA0176601822000000000000
B0357123138737S11649474EA0176101823000000000000
B0357163138664S11649425EA0176301824000000000000
B0357203138581S11649396EA0176201826000000000000
B0357243138495S11649374EA0176601825000000000000
B0357283138408S11649359EA0175801814000000000000
B0357323138317S11649352EA0174301797000000000000
B0357363138223S11649351EA0172301777000000000000
B0357403138127S11649352EA0171401772000000000000
B0357443138035S11649356EA0171001768000000000000
B0357483137944S11649360EA0170801766000000000000
B0357523137855S11649364EA0170401760000000000000
B0357563137768S11649365EA0169501749000000000000
B0358003137681S11649368EA0168301738000000000000
B0358043137595S11649365EA0167801734000000000000
B0358083137511S11649360EA0168001741000000000000
B0358123137436S11649365EA0170101767000000000000
B0358163137390S11649409EA0172901791000000000000
B0358203137397S11649472EA0174401805000000000000
B0358243137449S11649508EA0175301815000000000000
B0358283137495S11649461EA0177101836000000000000
B0358323137464S11649399EA0178101841000000015000
B0358363137415S11649420EA0178601847000000000000
B0358403137432S11649481EA0179501857000000000000
B0358443137494S11649482EA0180301872000000015000
B0358483137520S11649408EA0181801887000000015000
B0358523137482S11649343EA0183001895000000015000
B0358563137425S11649347EA0184101911000000000000
B0359003137416S11649403EA0186001932000000000000
B0359043137462S11649439EA0187401941000000000000
B0359083137515S11649402EA0188501957000000015000
B0359123137502S11649326EA0189501962000000015000
B0359163137443S11649311EA0190201973000000000000
B0359203137421S11649366EA0191701989000000000000
B0359243137472S11649404EA0193102005000000000000
B0359283137523S11649357EA0195202026000000015000
B0359323137510S11649277EA0195902025000000015000
B0359363137450S11649248EA0196502038000000000000
B0359403137415S11649296EA0197902057000000000000
B0359443137447S11649352EA0199102067000000000000
B0359483137508S11649334EA0200802090000000015000
B0359523137523S11649256EA0202402097000000015000
B0359563137478S11649194EA0202702104000000015000
B0400003137421S11649199EA0204002119000000000000
B0400043137400S11649256EA0205202125000000000000
B0400083137439S11649304EA0205502130000000000000
B0400123137504S11649286EA0206802149000000000000
B0400163137529S11649213EA0208402161000000015000
B0400203137495S11649145EA0209402173000000000000
B0400243137439S11649144EA0210502186000000000000
B0400283137419S11649201EA0211502194000000000000
B0400323137452S11649255EA0212302202000000000000
B0400363137515S11649251EA0213502222000000015000
B0400403137554S11649191EA0214602220000000015000
B0400443137542S11649116EA0214302223000000015000
B0400483137491S11649075EA0214702228000000000000
B0400523137433S11649087EA0215202235000000000000
B0400563137391S11649132EA0215602232000000000000
B0401003137363S11649196EA0214202207000000000000
B0401043137295S11649242EA0211502182000000000000
B0401083137208S11649264EA0209502168000000000000
B0401123137117S11649286EA0208202154000000000000
B0401163137023S11649309EA0207502151000000000000
B0401203136931S11649331EA0207002141000000000000
B0401243136840S11649356EA0206302135000000000000
B0401283136747S11649378EA0205702127000000000000
B0401323136649S11649395EA0204602116000000000000
B0401363136552S11649409EA0204102113000000000000
B0401403136455S11649421EA0203402105000000000000
B0401443136363S11649428EA0202702097000000000000
B0401483136272S11649430EA0202502098000000000000
B0401523136189S11649434EA0202702101000000000000
B0401563136110S11649439EA0202702095000000000000
B0402003136026S11649444EA0201102076000000000000
B0402043135939S11649451EA0199402060000000000000
B0402083135851S11649464EA0198402053000000000000
B0402123135761S11649473EA0197602041000000000000
B0402163135666S11649480EA0196502031000000000000
B0402203135570S11649487EA0195102016000000000000
B0402243135471S11649498EA0194302005000000000000
B0402283135374S11649508EA0193301997000000000000
B0402323135276S11649516EA0192101984000000000000
B0402363135176S11649526EA0190801969000000000000
B0402403135072S11649533EA0189101951000000000000
B0402443134967S11649538EA0187601938000000000000
B0402483134864S11649542EA0186601928000000000000
B0402523134761S11649546EA0185501915000000000000
B0402563134660S11649551EA0184801907000000000000
B0403003134561S11649558EA0183701897000000000000
B0403043134462S11649565EA0182501885000000000000
B0403083134362S11649573EA0181301872000000000000
B0403123134262S11649580EA0180101861000000000000
B0403163134162S11649585EA0179501857000000000000
B0403203134067S11649590EA0180101867000000000000
B0403243133976S11649594EA0180901873000000000000
B0403283133887S11649599EA0181201876000000000000
B0403323133796S11649608EA0181801889000000000000
B0403363133711S11649625EA0182901896000000000000
B0403403133632S11649658EA0182601886000000000000
B0403443133543S11649689EA0181001867000000000000
B0403483133448S11649714EA0180701870000000000000
B0403523133368S11649753EA0182401894000000000000
B0403563133315S11649808EA0184401910000000000000
B0404003133256S11649863EA0183701893000000000000
B0404043133178S11649905EA0181501869000000000000
B0404083133088S11649933EA0180501865000000000000
B0404123132999S11649953EA0180701866000000000000
B0404163132906S11649964EA0180101860000000000000
B0404203132814S11649971EA0179701857000000000000
B0404243132719S11649976EA0179501854000000000000
B0404283132623S11649981EA0179001847000000000000
B0404323132524S11649985EA0177901832000000000000
B0404363132421S11649989EA0176201814000000000000
B0404403132319S11649997EA0174701800000000000000
B0404443132215S11650003EA0173901795000000000000
B0404483132112S11650011EA0173701793000000000000
B0404523132012S11650019EA0173601792000000000000
B0404563131916S11650026EA0173201785000000000000
B0405003131820S11650033EA0172301774000000000000
B0405043131723S11650040EA0171301766000000000000
B0405083131628S11650044EA0170601758000000000000
B0405123131535S11650046EA0169201740000000000000
B0405163131441S11650046EA0168001731000000000000
B0405203131350S11650046EA0167201724000000000000
B0405243131259S11650046EA0166501718000000000000
B0405283131168S11650049EA0166301720000000000000
B0405323131080S11650054EA0167401734000000000000
B0405363131006S11650087EA0168801749000000000000
B0405403130960S11650149EA0170401767000000000000
B0405443130939S11650219EA0171801780000000000000
B0405483130928S11650291EA0172901793000000000000
B0405523130945S11650352EA0174001799000000000000
B0405563131007S11650347EA0173701790000000000000
B0406003131029S11650262EA0173101789000000000000
B0406043131007S11650172EA0173101793000000000000
B0406083130967S11650093EA0174001802000000000000
B0406123130908S11650036EA0174901811000000000000
B0406163130834S11650016EA0174301795000000000000
B0406203130748S11650009EA0172501779000000000000
B0406243130657S11650006EA0172001778000000000000
B0406283130565S11650007EA0172301780000000000000
B0406323130473S11650006EA0172301780000000000000
B0406363130380S11650010EA0172001772000000000000
B0406403130286S11650013EA0170701759000000000000
B0406443130189S11650015EA0169601749000000000000
B0406483130092S11650018EA0168601738000000000000
B0406523129993S11650023EA0168301738000000000000
B0406563129898S11650028EA0167801729000000000000
B0407003129802S11650032EA0166501715000000000000
B0407043129707S11650035EA0165701706000000000000
B0407083129613S11650039EA0165101702000000000000
B0407123129522S11650042EA0165201702000000000000
B0407163129437S11650044EA0165201707000000000000
B0407203129359S11650044EA0165901710000000000000
B0407243129283S11650037EA0165201699000000000000
B0407283129208S11650029EA0164501693000000000000
B0407323129131S11650020EA0164201692000000000000
B0407363129056S11650011EA0164501694000000000000
B0407403128979S11650007EA0164401694000000000000
B0407443128898S11650005EA0164101691000000000000
B0407483128815S11650002EA0164201694000000000000
B0407523128733S11650003EA0165101707000000000000
B0407563128662S11650028EA0166401721000000000000
B0408003128638S11650087EA0168301743000000000000
B0408043128681S11650110EA0169601750000000000000
B0408083128723S11650052EA0170101759000000000000
B0408123128706S11649971EA0170801765000000015000
B0408163128648S11649935EA0171801776000000000000
B0408203128602S11649966EA0172301778000000000000
B0408243128622S11650015EA0172801785000000000000
B0408283128675S11650000EA0173001787000000015000
B0408323128689S11649923EA0173101790000000015000
B0408363128676S11649837EA0173201793000000000000
B0408403128664S11649750EA0173701800000000000000
B0408443128645S11649667EA0174101802000000000000
B0408483128589S11649620EA0174301806000000000000
B0408523128528S11649634EA0174801807000000000000
B0408563128475S11649673EA0174901808000000000000
B0409003128430S11649724EA0174901806000000000000
B0409043128389S11649782EA0173801793000000000000
B0409083128329S11649834EA0172801778000000000000
B0409123128258S11649875EA0171601771000000000000
B0409163128180S11649903EA0170601755000000000000
B0409203128098S11649922EA0169301747000000000000
B0409243128014S11649931EA0168301732000000000000
B0409283127929S11649936EA0166401712000000000000
B0409323127840S11649944EA0165101702000000000000
B0409363127752S11649951EA0165301707000000000000
B0409403127667S11649972EA0165501708000000000000
B0409443127591S11650007EA0165601707000000000000
B0409483127519S11650054EA0164701692000000000000
B0409523127436S11650089EA0162701671000000000000
B0409563127346S11650111EA0161101660000000000000
B0410003127258S11650128EA0160501657000000000000
B0410043127172S11650143EA0160301653000000000000
B0410083127091S11650166EA0160101652000000000000
B0410123127013S11650193EA0159101639000000000000
B0410163126928S11650213EA0158001629000000000000
B0410203126839S11650226EA0157701624000000000000
B0410243126748S11650237EA0156701611000000000000
B0410283126659S11650244EA0155901604000000000000
B0410323126568S11650249EA0154901594000000000000
B0410363126479S11650256EA0154101585000000000000
B0410403126391S11650262EA0153001573000000000000
B0410443126305S11650266EA0152101565000000000000
B0410483126222S11650266EA0151501560000000000000
B0410523126141S11650266EA0150701547000000000000
B0410563126054S11650266EA0149501533000000000000
B0411003125967S11650265EA0148401523000000000000
B0411043125879S11650257EA0147501514000000000000
B0411083125791S11650252EA0146501503000000000000
B0411123125707S11650245EA0146101504000000000000
B0411163125625S11650239EA0146501509000000000000
B0411203125547S11650239EA0147201518000000000000
B0411243125470S11650241EA0147401518000000000000
B0411283125394S11650244EA0147201511000000000000
B0411323125317S11650250EA0146701509000000000000
B0411363125244S11650262EA0146301504000000000000
B0411403125169S11650275EA0145601495000000000000
B0411443125093S11650286EA0144901489000000000000
B0411483125018S11650297EA0144001479000000000000
B0411523124941S11650310EA0143101471000000000000
B0411563124865S11650327EA0142501461000000000000
B0412003124787S11650345EA0141501453000000000000
B0412043124709S11650361EA0140801444000000000000
B0412083124628S11650371EA0139901434000000000000
B0412123124547S11650380EA0138901419000000000000
B0412163124467S11650390EA0137201401000000000000
B0412203124387S11650409EA0136001393000000000000
B0412243124320S11650448EA0135301386000000000000
B0412283124259S11650499EA0134101367000000000000
B0412323124186S11650539EA0133001366000000000000
B0412363124124S11650585EA0134001381000000000000
B0412403124075S11650637EA0135201392000000000000
B0412443124059S11650694EA0136501405000000000000
B0412483124096S11650712EA0137001402000000000000
B0412523124131S11650651EA0136001390000000000000
B0412563124100S11650566EA0135501391000000015000
B0413003124029S11650530EA0135601392000000015000
B0413043123953S11650525EA0136001398000000000000
B0413083123893S11650556EA0136201400000000000000
B0413123123843S11650603EA0136501406000000000000
B0413163123806S11650659EA0137601419000000000000
B0413203123788S11650722EA0138701430000000000000
B0413243123814S11650763EA0140101441000000000000
B0413283123851S11650711EA0140501446000000000000
B0413323123815S11650633EA0140601448000000015000
B0413363123743S11650618EA0141101458000000015000
B0413403123684S11650653EA0142201471000000000000
B0413443123669S11650704EA0144101488000000015000
B0413483123692S11650728EA0144201486000000015000
B0413523123727S11650702EA0143601481000000015000
B0413563123727S11650626EA0143401482000000030000
B0414003123691S11650549EA0143601488000000060000
B0414043123626S11650507EA0144701499000000045000
B0414083123580S11650543EA0145401504000000045000
B0414123123611S11650572EA0145601504000000060000
B0414163123649S11650525EA0146001509000000060000
B0414203123645S11650444EA0146201507000000045000
B0414243123627S11650357EA0146201508000000015000
B0414283123596S11650275EA0146201502000000015000
B0414323123529S11650226EA0145401491000000015000
B0414363123446S11650209EA0144201478000000015000
B0414403123359S11650206EA0142601458000000000000
B0414443123272S11650211EA0141201447000000000000
B0414483123184S11650221EA0140001429000000000000
B0414523123093S11650239EA0139001426000000000000
B0414563123006S11650261EA0138901422000000000000
B0415003122928S11650293EA0138401419000000000000
B0415043122855S11650332EA0138401421000000000000
B0415083122790S11650379EA0138101414000000000000
B0415123122729S11650429EA0136901397000000000000
B0415163122660S11650473EA0135201383000000000000
B0415203122586S11650504EA0134601379000000000000
B0415243122510S11650526EA0133701367000000000000
B0415283122432S11650543EA0132001347000000000000
B0415323122352S11650560EA0130501332000000000000
B0415363122270S11650572EA0129701327000000000000
B0415403122188S11650579EA0129701328000000000000
B0415443122107S11650587EA0129701329000000000000
B0415483122025S11650599EA0130101336000000000000
B0415523121945S11650608EA0131201347000000000000
B0415563121873S11650630EA0132701362000000000000
B0416003121868S11650683EA0134201380000000000000
B0416043121919S11650669EA0135101387000000030000
B0416083121927S11650588EA0135901403000000030000
B0416123121867S11650542EA0137801421000000015000
B0416163121813S11650572EA0138701424000000030000
B0416203121825S11650622EA0139001429000000015000
B0416243121876S11650614EA0139201430000000015000
B0416283121890S11650538EA0140401452000000015000
B0416323121838S11650479EA0141801465000000015000
B0416363121780S11650501EA0142701467000000015000
B0416403121789S11650553EA0143201477000000015000
B0416443121838S11650542EA0143701475000000015000
B0416483121846S11650461EA0144101486000000030000
B0416523121787S11650412EA0145401497000000030000
B0416563121732S11650443EA0146001497000000030000
B0417003121737S11650492EA0146701501000000060000
B0417043121786S11650491EA0146701502000000060000
B0417083121807S11650421EA0147101511000000075000
B0417123121777S11650340EA0147801525000000030000
B0417163121712S11650304EA0148501522000000015000
B0417203121631S11650292EA0147201508000000015000
B0417243121544S11650286EA0145501489000000015000
B0417283121453S11650282EA0143901473000000000000
B0417323121360S11650275EA0143201467000000000000
B0417363121266S11650271EA0142901464000000000000
B0417403121173S11650267EA0142401459000000000000
B0417443121080S11650263EA0142201459000000000000
B0417483120987S11650261EA0142101458000000000000
B0417523120896S11650257EA0143101472000000000000
B0417563120816S11650279EA0145301496000000000000
B0418003120811S11650341EA0147501518000000000000
B0418043120863S11650340EA0147501506000000000000
B0418083120885S11650266EA0146501505000000000000
B0418123120876S11650182EA0147501521000000000000
B0418163120861S11650101EA0148801539000000000000
B0418203120820S11650041EA0150501554000000000000
B0418243120768S11650061EA0152001566000000000000
B0418283120785S11650115EA0152201563000000000000
B0418323120845S11650102EA0152701577000000000000
B0418363120850S11650033EA0154601594000000000000
B0418403120793S11650018EA0155301596000000000000
B0418443120780S11650078EA0155801605000000000000
B0418483120836S11650097EA0156601614000000000000
B0418523120871S11650039EA0157701632000000000000
B0418563120844S11649970EA0159001641000000000000
B0419003120781S11649946EA0159501647000000000000
B0419043120729S11649980EA0160601656000000000000
B0419083120725S11650042EA0161401664000000000000
B0419123120783S11650059EA0162001671000000000000
B0419163120831S11650007EA0162801682000000000000
B0419203120836S11649929EA0164601702000000015000
B0419243120786S11649883EA0165701707000000015000
B0419283120733S11649918EA0165901707000000000000
B0419323120741S11649989EA0165901710000000000000
B0419363120789S11650026EA0167101730000000000000
B0419403120838S11649998EA0168301739000000015000
B0419443120836S11649928EA0169201745000000015000
B0419483120773S11649890EA0169101744000000015000
B0419523120697S11649886EA0168801740000000000000
B0419563120616S11649888EA0168501736000000000000
B0420003120530S11649893EA0168601743000000000000
B0420043120447S11649898EA0170201761000000000000
B0420083120370S11649914EA0172701789000000000000
B0420123120331S11649972EA0175001810000000000000
B0420163120364S11650011EA0176401820000000000000
B0420203120409S11649974EA0176801827000000015000
B0420243120407S11649899EA0177901839000000015000
B0420283120352S11649853EA0179201854000000015000
B0420323120294S11649877EA0180501863000000015000
B0420363120298S11649940EA0181001869000000000000
B0420403120348S11649945EA0181901881000000015000
B0420443120374S11649881EA0182401887000000015000
B0420483120337S11649814EA0183101898000000015000
B0420523120270S11649810EA0184301914000000015000
B0420563120257S11649870EA0185901922000000015000
B0421003120309S11649883EA0186301924000000015000
B0421043120333S11649815EA0187201943000000015000
B0421083120296S11649755EA0188701956000000015000
B0421123120235S11649767EA0189901965000000015000
B0421163120214S11649833EA0190801974000000000000
B0421203120252S11649876EA0191801985000000000000
B0421243120299S11649838EA0192401990000000015000
B0421283120285S11649760EA0193001999000000015000
B0421323120220S11649728EA0193902009000000015000
B0421363120143S11649727EA0193802002000000015000
B0421403120058S11649728EA0192601988000000000000
B0421443119967S11649728EA0192001981000000000000
B0421483119873S11649720EA0191201969000000000000
B0421523119772S11649715EA0190101961000000000000
B0421563119675S11649711EA0190601973000000000000
B0422003119580S11649710EA0190901969000000000000
B0422043119485S11649716EA0189701951000000000000
B0422083119386S11649729EA0187701929000000000000
B0422123119288S11649743EA0186301919000000000000
B0422163119193S11649756EA0185601912000000000000
B0422203119100S11649771EA0184501900000000000000
B0422243119008S11649786EA0183701890000000000000
B0422283118916S11649799EA0182901884000000000000
B0422323118825S11649810EA0181601867000000000000
B0422363118732S11649816EA0180101853000000000000
B0422403118641S11649818EA0179501849000000000000
B0422443118552S11649816EA0179601853000000000000
B0422483118466S11649814EA0180501865000000000000
B0422523118385S11649818EA0181401874000000000000
B0422563118315S11649842EA0182601887000000000000
B0423003118254S11649884EA0183401897000000000000
B0423043118205S11649936EA0184301906000000000000
B0423083118171S11650002EA0185101913000000000000
B0423123118155S11650067EA0186501928000000000000
B0423163118201S11650102EA0187401933000000000000
B0423203118257S11650053EA0187701938000000000000
B0423243118258S11649964EA0188701951000000000000
B0423283118207S11649898EA0189301953000000015000
B0423323118134S11649880EA0189201952000000015000
B0423363118067S11649916EA0189001951000000000000
B0423403118010S11649970EA0189701963000000000000
B0423443117962S11650024EA0191301977000000000000
B0423483117969S11650080EA0192101985000000000000
B0423523118029S11650061EA0191301967000000000000
B0423563118043S11649966EA0190601966000000000000
B0424003117999S11649884EA0190501969000000015000
B0424043117929S11649837EA0191101977000000015000
B0424083117855S11649823EA0191901987000000000000
B0424123117793S11649849EA0193001999000000000000
B0424163117741S11649890EA0193502000000000000000
B0424203117685S11649933EA0191901971000000000000
B0424243117607S11649963EA0189101949000000000000
B0424283117518S11649975EA0187801938000000000000
B0424323117429S11649975EA0187401934000000000000
B0424363117338S11649967EA0187101928000000000000
B0424403117247S11649959EA0186501923000000000000
B0424443117157S11649948EA0185701913000000000000
B0424483117067S11649933EA0185201910000000000000
B0424523116977S11649922EA0184801905000000000000
B0424563116890S11649914EA0184601906000000000000
B0425003116807S11649906EA0184201899000000000000
B0425043116724S11649899EA0183301888000000000000
B0425083116642S11649893EA0182301878000000000000
B0425123116558S11649888EA0181101858000000000000
B0425163116470S11649885EA0179201843000000000000
B0425203116383S11649884EA0178001832000000000000
B0425243116296S11649884EA0176801818000000000000
B0425283116207S11649884EA0175701806000000000000
B0425323116117S11649883EA0174701796000000000000
B0425363116027S11649885EA0173401783000000000000
B0425403115936S11649885EA0172701777000000000000
B0425443115846S11649880EA0172801783000000000000
B0425483115759S11649880EA0173901798000000000000
B0425523115703S11649927EA0176301829000000000000
B0425563115711S11649988EA0178601845000000000000
B0426003115763S11649974EA0179301846000000000000
B0426043115771S11649899EA0179201845000000015000
B0426083115720S11649853EA0179501852000000015000
B0426123115661S11649868EA0180401862000000015000
B0426163115646S11649931EA0181001870000000000000
B0426203115690S11649970EA0181501870000000000000
B0426243115746S11649941EA0181301867000000000000
B0426283115748S11649860EA0180701860000000015000
B0426323115683S11649821EA0181001875000000015000
B0426363115618S11649825EA0182301885000000015000
B0426403115557S11649855EA0183101893000000000000
B0426443115497S11649897EA0183601901000000000000
B0426483115438S11649945EA0184001902000000000000
B0426523115377S11649993EA0184501911000000000000
B0426563115319S11650042EA0185501917000000000000
B0427003115264S11650098EA0185801919000000000000
B0427043115216S11650162EA0186101924000000000000
B0427083115169S11650223EA0187001932000000000000
B0427123115128S11650289EA0187001930000000000000
B0427163115087S11650360EA0187201936000000000000
B0427203115046S11650425EA0188001943000000000000
B0427243115003S11650486EA0187901936000000000000
B0427283114949S11650542EA0186401916000000000000
B0427323114877S11650577EA0184201897000000000000
B0427363114796S11650592EA0182701884000000000000
B0427403114715S11650590EA0181801875000000000000
B0427443114636S11650578EA0181101867000000000000
B0427483114559S11650559EA0179801851000000000000
B0427523114483S11650536EA0178301837000000000000
B0427563114405S11650514EA0177301822000000000000
B0428003114325S11650491EA0175601799000000000000
B0428043114241S11650469EA0174301796000000000000
B0428083114158S11650447EA0175301814000000000000
B0428123114082S11650449EA0178601858000000000000
B0428163114063S11650503EA0183001905000000000000
B0428203114108S11650527EA0186201927000000000000
B0428243114158S11650484EA0188001946000000000000
B0428283114151S11650414EA0189601962000000015000
B0428323114095S11650393EA0191201977000000015000
B0428363114059S11650438EA0193202002000000015000
B0428403114088S11650484EA0195402022000000015000
B0428443114150S11650469EA0196302032000000015000
B0428483114181S11650397EA0197502048000000015000
B0428523114149S11650338EA0198902058000000015000
B0428563114093S11650356EA0199902078000000015000
B0429003114090S11650413EA0202602105000000015000
B0429043114150S11650416EA0204102112000000015000
B0429083114181S11650340EA0205002128000000015000
B0429123114155S11650267EA0207002147000000015000
B0429163114098S11650236EA0208502162000000015000
B0429203114049S11650265EA0209402167000000015000
B0429243114063S11650319EA0211002191000000015000
B0429283114120S11650335EA0213002207000000015000
B0429323114167S11650279EA0214302229000000015000
B0429363114143S11650208EA0216102247000000015000
B0429403114084S11650201EA0217702256000000015000
B0429443114067S11650257EA0218802272000000015000
B0429483114116S11650287EA0220602286000000015000
B0429523114169S11650237EA0221502297000000015000
B0429563114164S11650152EA0222602310000000015000
B0430003114107S11650101EA0223302314000000015000
B0430043114043S11650117EA0223502315000000015000
B0430083114028S11650179EA0224502326000000015000
B0430123114072S11650217EA0224302319000000015000
B0430163114134S11650189EA0224102325000000015000
B0430203114158S11650113EA0225302343000000015000
B0430243114132S11650037EA0226502352000000015000
B0430283114071S11650000EA0226902348000000015000
B0430323114006S11650019EA0226802350000000015000
B0430363113945S11650054EA0226002324000000015000
B0430403113861S11650066EA0223002300000000015000
B0430443113772S11650053EA0221802293000000000000
B0430483113685S11650023EA0221402289000000000000
B0430523113600S11649989EA0220902286000000000000
B0430563113516S11649954EA0220902286000000000000
B0431003113431S11649918EA0220202275000000000000
B0431043113345S11649880EA0218702257000000000000
B0431083113257S11649842EA0217902255000000000000
B0431123113170S11649808EA0217502245000000000000
B0431163113080S11649775EA0215802223000000000000
B0431203112989S11649743EA0214402214000000000000
B0431243112899S11649714EA0213302200000000000000
B0431283112811S11649685EA0211902186000000000000
B0431323112720S11649664EA0211102181000000000000
B0431363112630S11649643EA0210302171000000000000
B0431403112537S11649621EA0209102161000000000000
B0431443112443S11649597EA0208402152000000000000
B0431483112347S11649571EA0207702140000000000000
B0431523112249S11649545EA0206502125000000000000
B0431563112153S11649520EA0204902115000000000000
B0432003112058S11649494EA0204502112000000000000
B0432043111965S11649470EA0204702116000000000000
B0432083111875S11649447EA0204902117000000000000
B0432123111785S11649418EA0204402110000000000000
B0432163111698S11649391EA0205102130000000000000
B0432203111620S11649379EA0208202158000000000000
B0432243111559S11649409EA0210302182000000000000
B0432283111540S11649467EA0212602205000000000000
B0432323111573S11649508EA0213902212000000000000
B0432363111625S11649481EA0214202220000000000000
B0432403111634S11649407EA0215002229000000015000
B0432443111598S11649344EA0215202221000000015000
B0432483111530S11649301EA0213502200000000000000
B0432523111445S11649266EA0212202193000000000000
B0432563111352S11649235EA0211802187000000000000
B0433003111256S11649205EA0211502187000000000000
B0433043111157S11649181EA0211902197000000000000
B0433083111059S11649156EA0212302192000000000000
B0433123110957S11649129EA0211802188000000000000
B0433163110857S11649100EA0210902175000000000000
B0433203110754S11649075EA0209202157000000000000
B0433243110649S11649057EA0208202149000000000000
B0433283110548S11649039EA0208302155000000000000
B0433323110451S11649022EA0208502155000000000000
B0433363110359S11649004EA0208202146000000000000
B0433403110267S11648984EA0207102134000000000000
B0433443110175S11648963EA0205502117000000000000
B0433483110082S11648941EA0204102101000000000000
B0433523109991S11648918EA0202702092000000000000
B0433563109900S11648892EA0202502094000000000000
B0434003109812S11648863EA0202602093000000000000
B0434043109726S11648836EA0202202088000000000000
B0434083109639S11648807EA0202602099000000000000
B0434123109557S11648780EA0203402104000000000000
B0434163109474S11648753EA0203102095000000000000
B0434203109387S11648726EA0201802081000000000000
B0434243109297S11648697EA0201002075000000000000
B0434283109207S11648671EA0200202064000000000000
B0434323109114S11648646EA0198902052000000000000
B0434363109019S11648622EA0198202048000000000000
B0434403108927S11648596EA0198202046000000000000
B0434443108834S11648570EA0197702039000000000000
B0434483108742S11648542EA0197002033000000000000
B0434523108648S11648516EA0196602028000000000000
B0434563108555S11648492EA0196002020000000000000
B0435003108459S11648468EA0194101995000000000000
B0435043108357S11648446EA0191501968000000000000
B0435083108252S11648424EA0189801954000000000000
B0435123108145S11648403EA0188301939000000000000
B0435163108043S11648384EA0188001940000000000000
B0435203107944S11648367EA0187901937000000000000
B0435243107848S11648352EA0187301927000000000000
B0435283107750S11648342EA0185701911000000000000
B0435323107653S11648332EA0184101893000000000000
B0435363107555S11648321EA0182401877000000000000
B0435403107460S11648311EA0181101864000000000000
B0435443107367S11648302EA0179901853000000000000
B0435483107274S11648294EA0179101845000000000000
B0435523107186S11648286EA0178201828000000000000
B0435563107096S11648274EA0176601818000000000000
B0436003107008S11648261EA0176201814000000000000
B0436043106919S11648255EA0175301804000000000000
B0436083106830S11648252EA0174701799000000000000
B0436123106746S11648260EA0175601816000000000000
B0436163106670S11648269EA0176501818000000000000
B0436203106592S11648280EA0175801808000000000000
B0436243106512S11648299EA0174901801000000000000
B0436283106445S11648346EA0175201812000000000000
B0436323106411S11648408EA0176801830000000000000
B0436363106424S11648467EA0177801833000000000000
B0436403106471S11648501EA0177401830000000000000
B0436443106529S11648486EA0177301830000000015000
B0436483106568S11648421EA0176601820000000015000
B0436523106549S11648337EA0175801813000000015000
B0436563106481S11648287EA0175001805000000015000
B0437003106401S11648271EA0174601802000000015000
B0437043106324S11648278EA0174601802000000015000
B0437083106260S11648319EA0174501800000000000000
B0437123106204S11648371EA0173801786000000000000
B0437163106130S11648411EA0171801764000000000000
B0437203106039S11648420EA0169901745000000000000
B0437243105946S11648407EA0168201732000000000000
B0437283105857S11648375EA0167501724000000000000
B0437323105771S11648334EA0166901717000000000000
B0437363105687S11648291EA0166301708000000000000
B0437403105602S11648251EA0165201699000000000000
B0437443105518S11648213EA0164601692000000000000
B0437483105433S11648177EA0163801682000000000000
B0437523105346S11648141EA0163601687000000000000
B0437563105259S11648111EA0164501696000000000000
B0438003105170S11648094EA0164901700000000000000
B0438043105085S11648115EA0165501706000000000000
B0438083105019S11648170EA0166001712000000000000
B0438123104980S11648243EA0166501721000000000000
B0438163104955S11648319EA0167101724000000000000
B0438203104934S11648397EA0167401728000000000000
B0438243104945S11648469EA0169201755000000000000
B0438283105008S11648467EA0171701776000000000000
B0438323105024S11648388EA0172401778000000015000
B0438363104969S11648334EA0173101792000000015000
B0438403104916S11648367EA0174501808000000015000
B0438443104936S11648423EA0176301827000000015000
B0438483104999S11648408EA0177201829000000015000
B0438523105017S11648328EA0177801836000000015000
B0438563104965S11648274EA0178501845000000015000
B0439003104908S11648297EA0179501856000000015000
B0439043104899S11648356EA0181101874000000015000
B0439083104955S11648365EA0182401885000000015000
B0439123104985S11648293EA0183101894000000015000
B0439163104945S11648226EA0183901907000000015000
B0439203104884S11648221EA0184701907000000015000
B0439243104837S11648273EA0185001918000000015000
B0439283104855S11648328EA0187101942000000015000
B0439323104913S11648303EA0188501948000000015000
B0439363104932S11648222EA0188701948000000015000
B0439403104889S11648156EA0189301961000000015000
B0439443104824S11648152EA0189801961000000015000
B0439483104778S11648207EA0190101968000000015000
B0439523104757S11648272EA0191901993000000015000
B0439563104785S11648317EA0194002010000000015000
B0440003104842S11648295EA0194102007000000015000
B0440043104878S11648224EA0194302014000000015000
B0440083104868S11648144EA0195202027000000015000
B0440123104809S11648125EA0196102028000000015000
B0440163104770S11648181EA0195902026000000015000
B0440203104780S11648250EA0197202047000000015000
B0440243104839S11648251EA0199002063000000015000
B0440283104874S11648178EA0199502059000000015000
B0440323104847S11648100EA0199802074000000015000
B0440363104787S11648072EA0201302085000000015000
B0440403104735S11648103EA0202202096000000015000
B0440443104742S11648156EA0203902115000000015000
B0440483104796S11648160EA0204502112000000015000
B0440523104847S11648098EA0205102127000000015000
B0440563104837S11648014EA0206602142000000015000
B0441003104778S11647970EA0207402147000000015000
B0441043104705S11647962EA0206702132000000015000
B0441083104621S11647944EA0205902128000000000000
B0441123104533S11647920EA0206102133000000000000
B0441163104443S11647896EA0206702140000000000000
B0441203104352S11647874EA0206302125000000000000
B0441243104256S11647853EA0204502106000000000000
B0441283104159S11647831EA0203302102000000000000
B0441323104067S11647812EA0203702107000000000000
B0441363103979S11647793EA0204002110000000000000
B0441403103889S11647778EA0203702104000000000000
B0441443103801S11647758EA0202802094000000000000
B0441483103711S11647732EA0202302088000000000000
B0441523103617S11647709EA0201602079000000000000
B0441563103522S11647680EA0200902074000000000000
B0442003103428S11647653EA0200402066000000000000
B0442043103327S11647627EA0199602061000000000000
B0442083103227S11647601EA0200102073000000000000
B0442123103135S11647576EA0201802085000000000000
B0442163103049S11647561EA0201402075000000000000
B0442203102958S11647544EA0198702042000000000000
B0442243102861S11647524EA0196502015000000000000
B0442283102762S11647509EA0194702009000000000000
B0442323102667S11647491EA0194702010000000000000
B0442363102573S11647476EA0194502004000000000000
B0442403102480S11647461EA0193901994000000000000
B0442443102386S11647441EA0192601982000000000000
B0442483102294S11647405EA0191801975000000000000
B0442523102212S11647350EA0191301970000000000000
B0442563102142S11647279EA0190701965000000000000
B0443003102081S11647202EA0190301962000000000000
B0443043102027S11647123EA0189801955000000000000
B0443083101978S11647042EA0189001947000000000000
B0443123101933S11646959EA0188501942000000000000
B0443163101887S11646877EA0187801934000000000000
B0443203101839S11646795EA0186701923000000000000
B0443243101793S11646711EA0185801915000000000000
B0443283101748S11646629EA0185201910000000000000
B0443323101686S11646568EA0184901908000000000000
B0443363101614S11646525EA0184201894000000000000
B0443403101533S11646501EA0182801883000000000000
B0443443101450S11646486EA0182001874000000000000
B0443483101367S11646482EA0180601856000000000000
B0443523101284S11646483EA0179301844000000000000
B0443563101203S11646483EA0179101849000000000000
B0444003101127S11646482EA0179101841000000000000
B0444043101047S11646486EA0178201837000000000000
B0444083100968S11646499EA0178001833000000000000
B0444123100887S11646514EA0177701833000000000000
B0444163100807S11646526EA0177901837000000000000
B0444203100727S11646535EA0177901833000000000000
B0444243100647S11646542EA0177901834000000000000
B0444283100564S11646547EA0178101839000000000000
B0444323100482S11646565EA0178801844000000000000
B0444363100415S11646617EA0178601839000000000000
B0444403100341S11646666EA0177601828000000000000
B0444443100254S11646701EA0177301824000000000000
B0444483100163S11646729EA0177101826000000000000
B0444523100074S11646748EA0176301814000000000000
B0444563059977S11646766EA0175201800000000000000
B0445003059885S11646785EA0175301804000000000000
B0445043059793S11646799EA0175201805000000000000
B0445083059700S11646812EA0174801796000000000000
B0445123059607S11646824EA0173601785000000000000
B0445163059512S11646833EA0172601774000000000000
B0445203059417S11646841EA0171301759000000000000
B0445243059321S11646846EA0169601741000000000000
B0445283059225S11646851EA0168701734000000000000
B0445323059130S11646859EA0168501736000000000000
B0445363059037S11646869EA0168401729000000000000
B0445403058943S11646883EA0167101716000000000000
B0445443058846S11646899EA0166301707000000000000
B0445483058746S11646913EA0164701689000000000000
B0445523058646S11646929EA0163601680000000000000
B0445563058546S11646945EA0162501670000000000000
B0446003058449S11646961EA0161901664000000000000
B0446043058352S11646980EA0160801652000000000000
B0446083058252S11646997EA0159801638000000000000
B0446123058151S11647011EA0158901634000000000000
B0446163058052S11647024EA0158701631000000000000
B0446203057955S11647037EA0158401629000000000000
B0446243057857S11647050EA0158501633000000000000
B0446283057766S11647059EA0159701650000000000000
B0446323057680S11647068EA0161601668000000000000
B0446363057606S11647098EA0162801678000000000000
B0446403057535S11647133EA0164001692000000000000
B0446443057468S11647182EA0164601692000000000000
B0446483057416S11647251EA0164501693000000000000
B0446523057384S11647327EA0165501712000000000000
B0446563057410S11647381EA0167401721000000000000
B0447003057462S11647355EA0166901707000000000000
B0447043057453S11647276EA0165701704000000015000
B0447083057394S11647224EA0165201693000000015000
B0447123057312S11647211EA0163701677000000000000
B0447163057221S11647216EA0162301667000000000000
B0447203057129S11647225EA0162401671000000000000
B0447243057038S11647231EA0163401684000000000000
B0447283056952S11647229EA0164301691000000000000
B0447323056866S11647234EA0163801685000000000000
B0447363056781S11647237EA0164601700000000000000
B0447403056699S11647238EA0166101716000000000000
B0447443056616S11647242EA0167201723000000000000
B0447483056547S11647276EA0168101731000000000000
B0447523056492S11647335EA0167501718000000000000
B0447563056421S11647376EA0165901707000000000000
B0448003056340S11647394EA0165501705000000000000
B0448043056261S11647389EA0165401702000000000000
B0448083056180S11647370EA0164501692000000000000
B0448123056094S11647345EA0163101675000000000000
B0448163056006S11647316EA0162701675000000000000
B0448203055917S11647296EA0162801676000000000000
B0448243055830S11647288EA0163001681000000000000
B0448283055748S11647292EA0163601681000000000000
B0448323055668S11647303EA0162401662000000000000
B0448363055579S11647318EA0160601647000000000000
B0448403055488S11647335EA0160001644000000000000
B0448443055403S11647357EA0160301650000000000000
B0448483055326S11647388EA0160101645000000000000
B0448523055247S11647414EA0159101627000000000000
B0448563055160S11647422EA0157501614000000000000
B0449003055069S11647419EA0156701607000000000000
B0449043054979S11647414EA0156401606000000000000
B0449083054892S11647415EA0157201623000000000000
B0449123054835S11647461EA0159401643000000000000
B0449163054842S11647533EA0160301647000000000000
B0449203054909S11647556EA0161201663000000000000
B0449243054966S11647515EA0162701676000000000000
B0449283054993S11647448EA0163101677000000000000
B0449323054962S11647384EA0163301684000000015000
B0449363054902S11647371EA0163601682000000015000
B0449403054851S11647405EA0163201672000000000000
B0449443054788S11647437EA0161701657000000000000
B0449483054712S11647450EA0160501647000000000000
B0449523054632S11647453EA0159801643000000000000
B0449563054547S11647457EA0159401639000000000000
B0450003054459S11647463EA0159401641000000000000
B0450043054381S11647492EA0160701653000000000000
B0450083054361S11647563EA0161501662000000000000
B0450123054413S11647589EA0161201649000000000000
B0450163054458S11647530EA0160001640000000000000
B0450203054465S11647440EA0159901647000000000000
B0450243054476S11647349EA0161001660000000000000
B0450283054489S11647259EA0161401660000000000000
B0450323054477S11647167EA0160801648000000000000
B0450363054420S11647090EA0159201632000000000000
B0450403054338S11647050EA0157601618000000000000
B0450443054248S11647036EA0156201603000000000000
B0450483054156S11647036EA0154801589000000000000
B0450523054062S11647036EA0153801575000000000000
B0450563053969S11647038EA0152501559000000000000
B0451003053874S11647042EA0150601541000000000000
B0451043053779S11647046EA0149501533000000000000
B0451083053685S11647049EA0148201515000000000000
B0451123053588S11647052EA0146301498000000000000
B0451163053492S11647059EA0145501489000000000000
B0451203053394S11647065EA0143901471000000000000
B0451243053294S11647072EA0142901462000000000000
B0451283053193S11647073EA0142501457000000000000
B0451323053091S11647075EA0142301462000000000000
B0451363053000S11647098EA0143801479000000000000
B0451403052960S11647167EA0145701502000000000000
B0451443052999S11647210EA0147201509000000000000
B0451483053055S11647173EA0147101507000000000000
B0451523053083S11647091EA0147301510000000000000
B0451563053106S11647006EA0147401514000000000000
B0452003053119S11646916EA0148201523000000000000
B0452043053086S11646838EA0148901526000000000000
B0452083053013S11646816EA0148701525000000000000
B0452123052931S11646820EA0149101537000000000000
B0452163052849S11646831EA0150601551000000000000
B0452203052805S11646891EA0152501567000000000000
B0452243052848S11646935EA0153601581000000000000
B0452283052895S11646890EA0154501590000000000000
B0452323052904S11646815EA0155501609000000000000
B0452363052875S11646747EA0157501630000000000000
B0452403052814S11646727EA0159301644000000000000
B0452443052777S11646776EA0159901646000000000000
B0452483052800S11646833EA0159701640000000015000
B0452523052860S11646826EA0159401641000000015000
B0452563052888S11646755EA0160201654000000015000
B0453003052873S11646672EA0161301663000000015000
B0453043052809S11646625EA0162101671000000015000
B0453083052761S11646672EA0163701691000000015000
B0453123052801S11646712EA0164601694000000015000
B0453163052852S11646662EA0165201713000000015000
B0453203052838S11646582EA0167201729000000015000
B0453243052771S11646542EA0168201733000000015000
B0453283052710S11646581EA0168601739000000015000
B0453323052725S11646648EA0169101746000000015000
B0453363052784S11646639EA0170501767000000015000
B0453403052795S11646565EA0172101775000000015000
B0453443052739S11646510EA0172801783000000015000
B0453483052673S11646530EA0173501795000000015000
B0453523052649S11646588EA0174501802000000000000
B0453563052679S11646642EA0174801803000000000000
B0454003052740S11646638EA0175401811000000000000
B0454043052778S11646574EA0176301824000000000000
B0454083052762S11646495EA0177101833000000015000
B0454123052697S11646451EA0178301848000000000000
B0454163052636S11646479EA0179301852000000000000
B0454203052632S11646548EA0179101848000000000000
B0454243052688S11646581EA0179301856000000000000
B0454283052747S11646547EA0180701872000000000000
B0454323052771S11646475EA0182001884000000000000
B0454363052751S11646396EA0183501903000000015000
B0454403052699S11646343EA0184501903000000000000
B0454443052630S11646336EA0184201899000000000000
B0454483052586S11646386EA0183801897000000000000
B0454523052595S11646448EA0183601894000000015000
B0454563052651S11646473EA0183301895000000000000
B0455003052705S11646426EA0184001905000000015000
B0455043052721S11646343EA0185101916000000000000
B0455083052712S11646257EA0186001921000000015000
B0455123052661S11646194EA0185101908000000000000
B0455163052589S11646174EA0183801894000000000000
B0455203052511S11646168EA0182501874000000000000
B0455243052424S11646168EA0180701857000000000000
B0455283052331S11646171EA0179201840000000000000
B0455323052232S11646178EA0177801833000000000000
B0455363052134S11646184EA0178401842000000000000
B0455403052040S11646192EA0179701859000000000000
B0455443051950S11646204EA0181501877000000000000
B0455483051894S11646261EA0183801906000000000000
B0455523051921S11646318EA0186101925000000000000
B0455563051980S11646279EA0187201938000000000000
B0456003051977S11646194EA0189201962000000000000
B0456043051919S11646154EA0191001974000000000000
B0456083051873S11646194EA0192201988000000000000
B0456123051903S11646245EA0192601986000000000000
B0456163051964S11646213EA0193302004000000000000
B0456203051954S11646132EA0195802028000000015000
B0456243051889S11646111EA0196702034000000015000
B0456283051864S11646172EA0197202037000000015000
B0456323051916S11646204EA0198002049000000015000
B0456363051964S11646149EA0199502073000000015000
B0456403051958S11646067EA0201302085000000015000
B0456443051897S11646018EA0201902085000000015000
B0456483051833S11646044EA0202602100000000000000
B0456523051837S11646109EA0203502108000000000000
B0456563051898S11646118EA0204302115000000000000
B0457003051947S11646058EA0205402128000000000000
B0457043051950S11645970EA0206402136000000000000
B0457083051893S11645911EA0206902143000000000000
B0457123051829S11645938EA0208102155000000000000
B0457163051828S11646006EA0209202167000000000000
B0457203051876S11646044EA0210302182000000000000
B0457243051937S11646023EA0211502195000000000000
B0457283051972S11645955EA0212802206000000000000
B0457323051951S11645877EA0213502213000000000000
B0457363051885S11645862EA0214402225000000000000
B0457403051851S11645916EA0215102227000000000000
B0457443051881S11645977EA0215202231000000000000
B0457483051943S11645986EA0216502244000000000000
B0457523052001S11645941EA0217402256000000000000
B0457563052015S11645859EA0218702278000000000000
B0458003051971S11645788EA0220602292000000000000
B0458043051904S11645789EA0221902300000000000000
B0458083051874S11645850EA0221802292000000000000
B0458123051906S11645915EA0221502295000000000000
B0458163051972S11645914EA0222102304000000000000
B0458203052011S11645842EA0223802327000000000000
B0458243052008S11645755EA0225202338000000000000
B0458283051963S11645682EA0226202345000000000000
B0458323051893S11645664EA0226902353000000000000
B0458363051843S11645706EA0227202355000000000000
B0458403051837S11645773EA0227202351000000000000
B0458443051876S11645825EA0227102354000000000000
B0458483051938S11645825EA0227502360000000000000
B0458523051982S11645763EA0228602377000000000000
B0458563051993S11645674EA0229602384000000000000
B0459003051984S11645582EA0230302393000000000000
B0459043051932S11645517EA0231402405000000000000
B0459083051868S11645534EA0231902404000000000000
B0459123051854S11645596EA0231802406000000000000
B0459163051904S11645632EA0231602400000000000000
B0459203051969S11645593EA0231702405000000000000
B0459243052006S11645511EA0232202412000000000000
B0459283052007S11645416EA0233202421000000000000
B0459323051973S11645333EA0233502417000000000000
B0459363051907S11645284EA0231902392000000000000
B0459403051824S11645275EA0229202363000000000000
B0459443051734S11645282EA0226202334000000000000
B0459483051640S11645297EA0223902312000000000000
B0459523051546S11645313EA0222002293000000000000
B0459563051449S11645331EA0220502279000000000000
B0500003051352S11645346EA0220002276000000000000
B0500043051258S11645360EA0219702272000000000000
B0500083051163S11645374EA0219102263000000000000
B0500123051066S11645391EA0217902251000000000000
B0500163050968S11645403EA0217102245000000000000
B0500203050871S11645413EA0216602238000000000000
B0500243050773S11645425EA0215602228000000000000
B0500283050677S11645438EA0214902221000000000000
B0500323050581S11645452EA0214202209000000000000
B0500363050483S11645465EA0213302206000000000000
B0500403050389S11645477EA0213102200000000000000
B0500443050292S11645490EA0212402191000000000000
B0500483050195S11645504EA0211302177000000000000
B0500523050097S11645517EA0210202173000000000000
B0500563050000S11645528EA0209602164000000000000
B0501003049904S11645538EA0208902156000000000000
B0501043049807S11645552EA0207502138000000000000
B0501083049709S11645565EA0205402116000000000000
B0501123049610S11645576EA0204302105000000000000
B0501163049512S11645586EA0203302095000000000000
B0501203049417S11645598EA0202302089000000000000
B0501243049325S11645612EA0202802098000000000000
B0501283049237S11645626EA0202802095000000000000
B0501323049148S11645637EA0202302087000000000000
B0501363049061S11645647EA0201302077000000000000
B0501403048974S11645659EA0201102077000000000000
B0501443048887S11645671EA0200802072000000000000
B0501483048799S11645684EA0201102080000000000000
B0501523048714S11645704EA0202002090000000000000
B0501563048653S11645762EA0203402111000000000000
B0502003048628S11645836EA0205602134000000000000
B0502043048652S11645894EA0207402147000000000000
B0502083048712S11645901EA0207902146000000000000
B0502123048760S11645842EA0207702147000000000000
B0502163048770S11645759EA0208002149000000000000
B0502203048730S11645684EA0208202153000000000000
B0502243048671S11645625EA0208602158000000000000
B0502283048600S11645591EA0209802173000000000000
B0502323048535S11645608EA0211602196000000000000
B0502363048530S11645671EA0213302210000000000000
B0502403048580S11645684EA0214002209000000000000
B0502443048614S11645620EA0213702210000000000000
B0502483048588S11645546EA0214202219000000015000
B0502523048523S11645511EA0214702220000000000000
B0502563048444S11645494EA0214702221000000000000
B0503003048362S11645482EA0214302210000000000000
B0503043048273S11645468EA0213602207000000000000
B0503083048185S11645452EA0213602206000000000000
B0503123048093S11645439EA0212502190000000000000
B0503163047998S11645429EA0211202178000000000000
B0503203047903S11645420EA0209802163000000000000
B0503243047808S11645416EA0208402149000000000000
B0503283047713S11645412EA0207502136000000000000
B0503323047618S11645409EA0206102124000000000000
B0503363047522S11645407EA0205102111000000000000
B0503403047425S11645405EA0203702098000000000000
B0503443047327S11645404EA0202602089000000000000
B0503483047232S11645400EA0201902082000000000000
B0503523047139S11645399EA0201102073000000000000
B0503563047046S11645396EA0200302065000000000000
B0504003046955S11645394EA0199802059000000000000
B0504043046867S11645388EA0199302055000000000000
B0504083046781S11645385EA0198902049000000000000
B0504123046700S11645382EA0198202041000000000000
B0504163046621S11645375EA0197502035000000000000
B0504203046543S11645372EA0196602024000000000000
B0504243046460S11645370EA0195302010000000000000
B0504283046372S11645372EA0193901998000000000000
B0504323046283S11645373EA0193201991000000000000
B0504363046193S11645375EA0192501980000000000000
B0504403046102S11645374EA0191701974000000000000
B0504443046013S11645373EA0191101966000000000000
B0504483045924S11645379EA0190301958000000000000
B0504523045839S11645394EA0189501951000000000000
B0504563045754S11645417EA0188601941000000000000
B0505003045672S11645447EA0187701930000000000000
B0505043045590S11645479EA0186801923000000000000
B0505083045508S11645512EA0186001911000000000000
B0505123045426S11645543EA0185001904000000000000
B0505163045345S11645570EA0184601901000000000000
B0505203045264S11645594EA0184501902000000000000
B0505243045187S11645615EA0184201897000000000000
B0505283045108S11645633EA0183501886000000000000
B0505323045029S11645651EA0182101872000000000000
B0505363044949S11645672EA0181001862000000000000
B0505403044869S11645694EA0180501853000000000000
B0505443044787S11645715EA0179201838000000000000
B0505483044705S11645739EA0177801824000000000000
B0505523044624S11645765EA0176501814000000000000
B0505563044545S11645794EA0175601803000000000000
B0506003044463S11645823EA0175101805000000000000
B0506043044389S11645858EA0175501806000000000000
B0506083044318S11645894EA0175401805000000000000
B0506123044249S11645934EA0175301803000000000000
B0506163044176S11645975EA0174901801000000000000
B0506203044104S11646012EA0176101821000000000000
B0506243044045S11646058EA0177401826000000000000
B0506273044022S11646110EA0177901836000000000000
B0506323044073S11646165EA0178901844000000000000
B0506363044110S11646102EA0179701856000000000000
B0506403044078S11646033EA0180501860000000000000
B0506443044012S11646011EA0180701860000000000000
B0506483043954S11646042EA0180701861000000000000
B0506523043920S11646109EA0180901864000000000000
B0506563043908S11646187EA0181201869000000000000
B0507003043937S11646250EA0182901893000000000000
B0507043043993S11646217EA0184801906000000000000
B0507083043955S11646154EA0185001903000000000000
B0507123043890S11646180EA0185301912000000000000
B0507163043874S11646243EA0187201937000000000000
B0507203043928S11646261EA0188801947000000015000
B0507243043968S11646194EA0189201953000000015000
B0507283043943S11646119EA0190101961000000015000
B0507323043879S11646093EA0190601971000000000000
B0507363043833S11646132EA0191801984000000000000
B0507403043844S11646189EA0192901994000000015000
B0507443043902S11646196EA0193902004000000015000
B0507483043943S11646131EA0194302003000000015000
B0507523043918S11646053EA0195102019000000015000
B0507563043859S11646035EA0196502031000000000000
B0508003043837S11646083EA0197902046000000000000
B0508043043883S11646110EA0198402046000000000000
B0508083043933S11646062EA0198702055000000015000
