ACAM4N6
HFDTE270321
HFFXA050
HFPLTPILOT:JOHN WELSH              
HFGTYGLIDERTYPE:HORNET      
HFGIDGLIDERID:VH-GMY      
HFDTM100GPSDATUM:
HFRFWFIRMWAREVERSION:F2.6
HFRHWHARDWAREVERSION:300 Series Version 2
HFFTYFRTYPE:CAMBRIDGE AERO INSTRUMENTS, 302+
HFGPS:GARMIN,LVS-25,12,18000
HFPRSPRESSALTSENSOR:INTERSEMA, MS5534-AP, 20000
I033638FXA3941ENL4247REX
LCAMSBVER:5FWVER:F26300
C270321043821270321000102
C0000000N00000000WTAKEOFF     
C3207549S11656849EBEVAIR      
C3151849S11656832EWhitegum AF 
C3159766S11709882EMawson      
C3207549S11656849EBEVAIR      
C0000000N00000000WLANDING     
B0439543207341S11656860EA0020700205000000000000
B0439563207341S11656860EA0020800205000000000000
B0439583207341S11656860EA0020700205000000000000
B0440003207341S11656860EA0020700205000000000000
B0440023207341S11656860EA0020700205000000000000
B0440043207341S11656860EA0020800205000000000000
B0440063207341S11656860EA0020800205000000000000
B0440083207341S11656858EA0020700205000000000000
B0440103207342S11656858EA0020700205000000000000
B0440123207342S11656858EA0020600205000000000000
B0440143207342S11656858EA0020700205000000000000
B0440163207342S11656858EA0020700205000000000000
B0440183207342S11656858EA0020700205000000000000
B0440203207342S11656858EA0020600205000000000000
B0440223207343S11656860EA0020700205000000000000
B0440273207360S11656874EA0020800205000000000000
B0440313207390S11656899EA0020800204000000000000
B0440353207436S11656929EA0020900205000000000000
B0440393207493S11656966EA0021300206000000000000
B0440433207560S11657008EA0021200208000000000000
B0440473207635S11657052EA0021700214000000000000
B0440513207707S11657100EA0022500221000000000000
B0440553207781S11657152EA0022900227000000000000
B0440593207852S11657203EA0024500252000000000000
B0441033207921S11657250EA0026500270000000000000
B0441073207989S11657298EA0028300291000000000000
B0441113208056S11657351EA0030000305000000000000
B0441153208119S11657410EA0030500315000000000000
B0441193208175S11657477EA0031800332000000000000
B0441233208204S11657563EA0033900355000000000000
B0441273208217S11657651EA0036500378000000000000
B0441313208230S11657737EA0038100396000000000000
B0441353208236S11657823EA0039800411000000000000
B0441393208221S11657909EA0040800420000000000000
B0441433208187S11657991EA0041400425000000000000
B0441473208161S11658074EA0042500439000000000000
B0441513208138S11658158EA0043900453000000000000
B0441553208113S11658242EA0045300468000000000000
B0441593208088S11658323EA0046300477000000000000
B0442033208065S11658407EA0046900484000000000000
B0442073208043S11658492EA0047600490000000000000
B0442113208022S11658577EA0048500499000000000000
B0442153208002S11658663EA0049500510000000000000
B0442193207982S11658751EA0050500520000000000000
B0442233207960S11658841EA0051400529000000000000
B0442273207937S11658933EA0052200537000000000000
B0442313207915S11659027EA0053100548000000000000
B0442353207893S11659119EA0054500563000000000000
B0442393207872S11659209EA0055900576000000000000
B0442433207849S11659297EA0056800587000000000000
B0442473207827S11659387EA0058100597000000000000
B0442513207801S11659477EA0058900608000000000000
B0442553207775S11659565EA0060000620000000000000
B0442593207752S11659655EA0060700628000000000000
B0443033207732S11659743EA0061700637000000000000
B0443073207711S11659831EA0062500645000000000000
B0443113207690S11659917EA0063100649000000000000
B0443153207668S11700003EA0063600656000000000000
B0443193207646S11700089EA0064600665000000000000
B0443233207625S11700177EA0065600678000000000000
B0443273207606S11700270EA0066600686000000000000
B0443313207583S11700362EA0067200691000000000000
B0443353207557S11700454EA0068100701000000000000
B0443393207532S11700546EA0069100711000000000000
B0443433207506S11700639EA0070600729000000000000
B0443473207480S11700734EA0072400748000000000000
B0443513207458S11700826EA0074700774000000000000
B0443553207438S11700913EA0077200800000000000000
B0443593207421S11700998EA0079500824000000000000
B0444033207412S11701083EA0080100825000000000000
B0444073207401S11701172EA0079700819000000000000
B0444113207380S11701259EA0079300812000000000000
B0444153207352S11701341EA0079000812000000000000
B0444193207319S11701417EA0079100812000000000000
B0444233207284S11701493EA0079000812000000000000
B0444273207247S11701571EA0079200813000000000000
B0444313207208S11701649EA0078900807000000000000
B0444353207168S11701727EA0078300799000000000000
B0444393207129S11701806EA0077400789000000000000
B0444433207090S11701887EA0076000773000000000000
B0444473207048S11701967EA0075100765000000000000
B0444513207004S11702045EA0075300775000000000000
B0444553206961S11702117EA0077000789000000000000
B0444593206920S11702187EA0077500792000000000000
B0445033206879S11702259EA0077400789000000000000
B0445073206858S11702342EA0077800797000000000000
B0445113206832S11702420EA0078300802000000000000
B0445153206857S11702491EA0078400798000000000000
B0445193206923S11702489EA0078200797000000000000
B0445233206947S11702421EA0078400801000000000000
B0445273206897S11702374EA0078400799000000000000
B0445313206827S11702386EA0078100796000000000000
B0445353206761S11702425EA0077800797000000000000
B0445393206701S11702481EA0078400804000000000000
B0445433206688S11702560EA0079100811000000000000
B0445473206740S11702591EA0079900820000000000000
B0445513206779S11702556EA0080400824000000000000
B0445553206780S11702495EA0080400823000000000000
B0445593206745S11702439EA0080500828000000000000
B0446033206692S11702459EA0081400834000000000000
B0446073206709S11702525EA0081200830000000000000
B0446113206762S11702515EA0081300835000000000000
B0446153206761S11702452EA0082400847000000015000
B0446193206712S11702425EA0083400856000000000000
B0446233206673S11702473EA0083700858000000000000
B0446273206700S11702532EA0083900859000000000000
B0446313206752S11702524EA0084300868000000000000
B0446353206752S11702465EA0085100873000000000000
B0446393206696S11702455EA0085100873000000000000
B0446433206667S11702517EA0085400877000000000000
B0446473206700S11702571EA0085900879000000000000
B0446513206752S11702559EA0086300886000000015000
B0446553206765S11702499EA0087100895000000015000
B0446593206722S11702454EA0087700898000000000000
B0447033206666S11702478EA0087600898000000000000
B0447073206656S11702548EA0087700900000000000000
B0447113206691S11702598EA0088000903000000000000
B0447153206741S11702584EA0088300909000000000000
B0447193206741S11702525EA0089400925000000015000
B0447233206688S11702507EA0090400929000000015000
B0447273206658S11702560EA0090800933000000000000
B0447313206691S11702608EA0091000931000000000000
B0447353206738S11702584EA0091200941000000000000
B0447393206726S11702526EA0092500951000000015000
B0447433206670S11702520EA0093100954000000000000
B0447473206634S11702572EA0093300956000000000000
B0447513206644S11702633EA0093300955000000000000
B0447553206692S11702655EA0092900950000000000000
B0447593206738S11702615EA0093100956000000000000
B0448033206713S11702554EA0093800962000000015000
B0448073206649S11702569EA0094300970000000000000
B0448113206626S11702637EA0094500967000000000000
B0448153206657S11702697EA0094300967000000000000
B0448193206712S11702704EA0094400969000000015000
B0448233206762S11702669EA0095200984000000015000
B0448273206762S11702608EA0097901011000000015000
B0448313206708S11702590EA0099101019000000015000
B0448353206670S11702647EA0099701024000000000000
B0448393206702S11702707EA0100001026000000000000
B0448433206753S11702691EA0100801040000000000000
B0448473206757S11702629EA0102801068000000015000
B0448513206710S11702599EA0104701076000000015000
B0448553206652S11702634EA0104901074000000000000
B0448593206644S11702710EA0104701073000000000000
B0449033206692S11702753EA0104301067000000000000
B0449073206753S11702743EA0104301073000000000000
B0449113206783S11702689EA0106901110000000015000
B0449153206731S11702645EA0110201135000000000000
B0449193206673S11702684EA0111701146000000000000
B0449233206663S11702762EA0111901145000000000000
B0449273206713S11702807EA0111901147000000015000
B0449313206777S11702795EA0112101149000000015000
B0449353206818S11702734EA0113701176000000015000
B0449393206777S11702677EA0116801205000000015000
B0449433206709S11702698EA0118101213000000000000
B0449473206699S11702789EA0119301226000000000000
B0449513206756S11702844EA0120701248000000000000
B0449553206818S11702808EA0123001277000000000000
B0449593206818S11702729EA0126301313000000015000
B0450033206757S11702697EA0129001329000000000000
B0450073206697S11702742EA0130301347000000000000
B0450113206682S11702828EA0132401367000000000000
B0450153206719S11702898EA0133301368000000000000
B0450193206790S11702912EA0132901365000000000000
B0450233206844S11702864EA0133401376000000000000
B0450273206839S11702788EA0135101396000000015000
B0450313206769S11702764EA0137001410000000000000
B0450353206708S11702824EA0138601431000000000000
B0450393206725S11702915EA0140701446000000000000
B0450433206796S11702948EA0140801441000000000000
B0450473206853S11702888EA0140401441000000015000
B0450513206849S11702794EA0141501467000000015000
B0450553206797S11702725EA0144301494000000015000
B0450593206725S11702698EA0145801497000000000000
B0451033206652S11702725EA0145601491000000000000
B0451073206614S11702803EA0144901485000000000000
B0451113206623S11702893EA0143701473000000000000
B0451153206671S11702961EA0142701466000000000000
B0451193206744S11702984EA0142301462000000000000
B0451233206814S11702949EA0142001462000000000000
B0451273206860S11702877EA0142701475000000015000
B0451313206829S11702806EA0144201492000000015000
B0451353206758S11702818EA0145501505000000000000
B0451393206730S11702898EA0146901521000000000000
B0451433206771S11702968EA0148801538000000000000
B0451473206844S11702963EA0149901546000000000000
B0451513206879S11702890EA0150401550000000000000
B0451553206842S11702819EA0151201562000000000000
B0451593206770S11702806EA0151901567000000000000
B0452033206709S11702860EA0152701579000000000000
B0452073206702S11702949EA0153701590000000000000
B0452113206754S11703011EA0154801596000000000000
B0452153206829S11703015EA0155301603000000000000
B0452193206873S11702954EA0156101612000000000000
B0452233206844S11702881EA0156501612000000000000
B0452273206769S11702879EA0156601616000000000000
B0452313206712S11702942EA0157901632000000000000
B0452353206710S11703032EA0159301643000000000000
B0452393206771S11703087EA0159101638000000000000
B0452433206838S11703046EA0158901638000000000000
B0452473206836S11702958EA0159701649000000000000
B0452513206783S11702906EA0160801666000000000000
B0452553206717S11702933EA0162101673000000000000
B0452593206695S11703020EA0162101671000000000000
B0453033206739S11703097EA0162201673000000000000
B0453073206814S11703109EA0162601676000000000000
B0453113206864S11703052EA0162901683000000000000
B0453153206858S11702975EA0163701691000000015000
B0453193206801S11702940EA0164201693000000000000
B0453233206739S11702974EA0164201693000000000000
B0453273206713S11703058EA0164201690000000000000
B0453313206745S11703145EA0164101690000000000000
B0453353206817S11703143EA0164501698000000000000
B0453393206844S11703071EA0164701699000000000000
B0453433206810S11703005EA0164901706000000000000
B0453473206749S11702977EA0165701708000000000000
B0453513206683S11703007EA0165501705000000000000
B0453553206654S11703089EA0165601709000000000000
B0453593206682S11703171EA0165501703000000000000
B0454033206740S11703235EA0164601692000000000000
B0454073206817S11703258EA0164401691000000000000
B0454113206890S11703224EA0163501678000000000000
B0454153206946S11703152EA0161901666000000000000
B0454193206991S11703066EA0161001653000000000000
B0454233207027S11702972EA0160201650000000000000
B0454273207059S11702881EA0160601660000000000000
B0454313207074S11702788EA0161601669000000000000
B0454353207085S11702691EA0161201656000000000000
B0454393207125S11702610EA0160601658000000000000
B0454433207193S11702565EA0161001664000000000000
B0454473207267S11702561EA0161301668000000000000
B0454513207336S11702598EA0161301664000000000000
B0454553207389S11702669EA0160401651000000000000
B0454593207407S11702766EA0159601649000000000000
B0455033207386S11702862EA0159401642000000000000
B0455073207333S11702938EA0158501633000000000000
B0455113207260S11702987EA0157901631000000000000
B0455153207183S11703014EA0158601640000000000000
B0455193207109S11703022EA0159601649000000000000
B0455233207035S11703035EA0160501656000000000000
B0455273206987S11703105EA0161401668000000000000
B0455313207012S11703184EA0161901670000000000000
B0455353207079S11703191EA0161701662000000000000
B0455393207122S11703128EA0160901653000000000000
B0455433207108S11703050EA0160001643000000000000
B0455473207057S11702988EA0160001654000000000000
B0455513206995S11702945EA0161701678000000000000
B0455553206952S11703000EA0164401706000000000000
B0455593206996S11703058EA0166301718000000000000
B0456033207055S11703028EA0167001723000000000000
B0456073207046S11702961EA0168501745000000000000
B0456113206991S11702951EA0170701766000000000000
B0456153206966S11703015EA0172201780000000000000
B0456193207011S11703075EA0173401788000000000000
B0456233207076S11703058EA0174001796000000000000
B0456273207083S11702987EA0175801820000000000000
B0456313207033S11702948EA0177501832000000000000
B0456353206982S11702989EA0179001849000000000000
B0456393206994S11703068EA0180101863000000000000
B0456433207059S11703091EA0181401873000000000000
B0456473207099S11703031EA0182201883000000000000
B0456513207066S11702968EA0183601903000000000000
B0456553207007S11702974EA0185301914000000000000
B0456593206979S11703045EA0185601917000000000000
B0457033207013S11703119EA0186701933000000000000
B0457073207077S11703127EA0188401942000000000000
B0457113207109S11703066EA0188401944000000000000
B0457153207076S11703007EA0189601957000000000000
B0457193207011S11703005EA0189701953000000000000
B0457233206957S11703063EA0189701957000000000000
B0457273206947S11703157EA0190501966000000000000
B0457313206991S11703228EA0191801978000000000000
B0457353207059S11703230EA0192301980000000000000
B0457393207095S11703169EA0192201975000000000000
B0457433207061S11703102EA0191801975000000000000
B0457473206992S11703089EA0191901976000000000000
B0457513206927S11703144EA0191701975000000000000
B0457553206886S11703231EA0192201981000000000000
B0457593206913S11703318EA0193501995000000000000
B0458033206979S11703344EA0194001995000000000000
B0458073207031S11703299EA0193301987000000000000
B0458113207040S11703221EA0192601981000000000000
B0458153207020S11703144EA0192501981000000000000
B0458193206957S11703107EA0192601984000000000000
B0458233206883S11703132EA0192401976000000000000
B0458273206825S11703204EA0192101975000000000000
B0458313206805S11703300EA0192601983000000000000
B0458353206843S11703379EA0192701979000000000000
B0458393206912S11703391EA0191801964000000000000
B0458433206960S11703336EA0190101953000000000000
B0458473206978S11703260EA0189401950000000000000
B0458513206988S11703178EA0189301949000000000000
B0458553206982S11703094EA0188601941000000000000
B0458593206966S11703009EA0188101939000000000000
B0459033206949S11702924EA0188301944000000000000
B0459073206929S11702840EA0189201955000000000000
B0459113206879S11702776EA0189801954000000000000
B0459153206810S11702743EA0189401953000000000000
B0459193206748S11702693EA0188901946000000000000
B0459233206704S11702613EA0188501943000000000000
B0459273206675S11702526EA0188601945000000000000
B0459313206654S11702441EA0188501944000000000000
B0459353206643S11702355EA0188301941000000000000
B0459393206644S11702266EA0188001936000000000000
B0459433206654S11702179EA0187401931000000000000
B0459473206669S11702095EA0187001926000000000000
B0459513206684S11702010EA0186301921000000000000
B0459553206700S11701926EA0186101920000000000000
B0459593206715S11701843EA0186201921000000000000
B0500033206730S11701759EA0186001919000000000000
B0500073206747S11701679EA0185901919000000000000
B0500113206764S11701602EA0185901918000000000000
B0500153206779S11701528EA0185401910000000000000
B0500193206796S11701451EA0184701900000000000000
B0500233206812S11701372EA0184401900000000000000
B0500273206826S11701291EA0183901892000000000000
B0500313206843S11701207EA0182801880000000000000
B0500353206858S11701121EA0182101877000000000000
B0500393206874S11701039EA0182401883000000000000
B0500433206888S11700961EA0182901888000000000000
B0500473206901S11700887EA0183001887000000000000
B0500513206910S11700813EA0182801883000000000000
B0500553206918S11700736EA0182301880000000000000
B0500593206920S11700662EA0181901875000000000000
B0501033206909S11700589EA0181501867000000000000
B0501073206904S11700515EA0180701864000000000000
B0501113206909S11700440EA0180401859000000000000
B0501153206925S11700364EA0179601850000000000000
B0501193206948S11700290EA0179101845000000000000
B0501233206977S11700221EA0178901843000000000000
B0501273207011S11700158EA0178701841000000000000
B0501313207050S11700098EA0178401838000000000000
B0501353207092S11700039EA0178101834000000000000
B0501393207134S11659981EA0177901832000000000000
B0501433207172S11659922EA0177601829000000000000
B0501473207208S11659860EA0177001823000000000000
B0501513207246S11659795EA0176601818000000000000
B0501553207286S11659733EA0176201816000000000000
B0501593207329S11659675EA0176201817000000000000
B0502033207377S11659625EA0176201817000000000000
B0502073207427S11659578EA0176001810000000000000
B0502113207477S11659530EA0174901800000000000000
B0502153207529S11659480EA0174201793000000000000
B0502193207584S11659432EA0173601787000000000000
B0502233207638S11659383EA0173101782000000000000
B0502273207692S11659331EA0172501777000000000000
B0502313207744S11659278EA0172001770000000000000
B0502353207796S11659226EA0171301763000000000000
B0502393207846S11659174EA0170801758000000000000
B0502433207896S11659120EA0170301752000000000000
B0502473207945S11659067EA0169601744000000000000
B0502513207995S11659012EA0168901738000000000000
B0502553208043S11658958EA0168401734000000000000
B0502593208088S11658903EA0167801729000000000000
B0503033208135S11658849EA0167501723000000000000
B0503073208182S11658791EA0167101719000000000000
B0503113208227S11658734EA0166401714000000000000
B0503153208273S11658676EA0166201713000000000000
B0503193208318S11658619EA0165901709000000000000
B0503233208364S11658559EA0165301703000000000000
B0503273208407S11658499EA0165201703000000000000
B0503313208447S11658443EA0165701709000000000000
B0503353208485S11658387EA0165201700000000000000
B0503393208522S11658326EA0164601694000000000000
B0503433208555S11658262EA0164201689000000000000
B0503473208581S11658193EA0163901688000000000000
B0503513208602S11658122EA0163901688000000000000
B0503553208629S11658053EA0163701684000000000000
B0503593208668S11657991EA0162901676000000000000
B0504033208706S11657927EA0162401672000000000000
B0504073208732S11657857EA0162001667000000000000
B0504113208746S11657780EA0161401661000000000000
B0504153208743S11657703EA0160701650000000000000
B0504193208714S11657632EA0159201636000000000000
B0504233208656S11657585EA0158401625000000000000
B0504273208584S11657586EA0157701617000000000000
B0504313208530S11657660EA0156601605000000000000
B0504353208519S11657766EA0155701602000000000000
B0504393208535S11657870EA0155701601000000000000
B0504433208560S11657970EA0155201596000000000000
B0504473208576S11658069EA0155901607000000000000
B0504513208564S11658154EA0157101619000000000000
B0504553208538S11658234EA0157501617000000000000
B0504593208512S11658316EA0156701607000000000000
B0505033208480S11658401EA0155901601000000000000
B0505073208444S11658487EA0155301594000000000000
B0505113208411S11658573EA0154601587000000000000
B0505153208377S11658661EA0153801581000000000000
B0505193208342S11658747EA0154101585000000000000
B0505233208311S11658828EA0154501593000000000000
B0505273208283S11658905EA0155001592000000000000
B0505313208253S11658981EA0154701590000000000000
B0505353208223S11659059EA0154501589000000000000
B0505393208195S11659139EA0154401588000000000000
B0505433208165S11659218EA0154001580000000000000
B0505473208135S11659300EA0153201572000000000000
B0505513208106S11659386EA0152201563000000000000
B0505553208077S11659473EA0151401555000000000000
B0505593208049S11659562EA0150701548000000000000
B0506033208022S11659651EA0150201543000000000000
B0506073207995S11659740EA0149701537000000000000
B0506113207969S11659829EA0149301534000000000000
B0506153207941S11659916EA0149101534000000000000
B0506193207914S11700003EA0148901531000000000000
B0506233207889S11700089EA0148601528000000000000
B0506273207863S11700173EA0148201522000000000000
B0506313207836S11700258EA0147701516000000000000
B0506353207810S11700341EA0147301514000000000000
B0506393207785S11700423EA0147101509000000000000
B0506433207765S11700506EA0146501504000000000000
B0506473207744S11700589EA0146101499000000000000
B0506513207724S11700674EA0145601495000000000000
B0506553207705S11700760EA0145301492000000000000
B0506593207685S11700845EA0145001488000000000000
B0507033207664S11700930EA0144701483000000000000
B0507073207644S11701013EA0144001477000000000000
B0507113207623S11701096EA0143301469000000000000
B0507153207599S11701177EA0142601461000000000000
B0507193207576S11701258EA0141901455000000000000
B0507233207551S11701338EA0141501452000000000000
B0507273207524S11701415EA0141401451000000000000
B0507313207498S11701492EA0141001446000000000000
B0507353207476S11701570EA0140301434000000000000
B0507393207453S11701651EA0139401430000000000000
B0507433207430S11701735EA0139101426000000000000
B0507473207407S11701819EA0138001412000000000000
B0507513207380S11701904EA0137301408000000000000
B0507553207351S11701989EA0137101408000000000000
B0507593207321S11702077EA0137201409000000000000
B0508033207295S11702162EA0136901404000000000000
B0508073207271S11702247EA0136201395000000000000
B0508113207243S11702330EA0135701393000000000000
B0508153207216S11702415EA0135701391000000000000
B0508193207187S11702494EA0135901392000000000000
B0508233207155S11702571EA0135701386000000000000
B0508273207122S11702651EA0134501371000000000000
B0508313207090S11702738EA0133201362000000000000
B0508353207056S11702824EA0132701361000000000000
B0508393207024S11702907EA0132501358000000000000
B0508433206996S11702989EA0132201356000000000000
B0508473206969S11703072EA0132001355000000000000
B0508513206952S11703156EA0131801354000000000000
B0508553206947S11703244EA0132501367000000000000
B0508593206946S11703325EA0134301384000000000000
B0509033206981S11703383EA0134801381000000000000
B0509073207042S11703362EA0134801386000000000000
B0509113207053S11703296EA0135501395000000000000
B0509153207016S11703249EA0135801397000000000000
B0509193206956S11703247EA0136001399000000000000
B0509233206912S11703300EA0136901410000000000000
B0509273206930S11703366EA0137201411000000000000
B0509313206990S11703367EA0136901405000000000000
B0509353207013S11703304EA0136701410000000000000
B0509393206986S11703240EA0137701424000000015000
B0509433206931S11703250EA0139201435000000015000
B0509473206934S11703318EA0140101441000000000000
B0509513206988S11703339EA0140401441000000000000
B0509553207018S11703286EA0140501447000000015000
B0509593206975S11703244EA0141301456000000015000
B0510033206934S11703287EA0142301464000000015000
B0510073206956S11703353EA0142801467000000000000
B0510113207011S11703358EA0143201471000000015000
B0510153207027S11703295EA0143501479000000015000
B0510193206986S11703258EA0144501491000000015000
B0510233206938S11703292EA0145601502000000015000
B0510273206939S11703360EA0146001500000000000000
B0510313206996S11703388EA0145501490000000000000
B0510353207043S11703339EA0145101497000000015000
B0510393207035S11703265EA0145901503000000015000
B0510433206979S11703224EA0146101502000000015000
B0510473206922S11703265EA0146701515000000015000
B0510513206933S11703339EA0147901525000000015000
B0510553206995S11703358EA0148601529000000015000
B0510593207035S11703301EA0149001534000000015000
B0511033207020S11703228EA0149101535000000015000
B0511073206964S11703193EA0149301537000000015000
B0511113206900S11703205EA0149501540000000000000
B0511153206847S11703249EA0149801539000000000000
B0511193206830S11703326EA0149601540000000000000
B0511233206870S11703390EA0149901543000000000000
B0511273206935S11703404EA0150401550000000000000
B0511313206996S11703382EA0151101554000000000000
B0511353207039S11703321EA0151201555000000000000
B0511393207030S11703248EA0151701562000000000000
B0511433206973S11703243EA0152201565000000000000
B0511473206952S11703317EA0151901557000000000000
B0511513206996S11703386EA0152001570000000000000
B0511553207065S11703392EA0153201583000000015000
B0511593207105S11703336EA0154501590000000015000
B0512033207089S11703266EA0154101579000000015000
B0512073207031S11703228EA0153001571000000015000
B0512113206968S11703261EA0152401568000000015000
B0512153206929S11703334EA0152401570000000015000
B0512193206907S11703417EA0152901576000000000000
B0512233206931S11703492EA0154201589000000000000
B0512273206992S11703478EA0154901595000000000000
B0512313207001S11703404EA0155001594000000000000
B0512353206951S11703362EA0155201600000000000000
B0512393206888S11703390EA0155801604000000000000
B0512433206864S11703465EA0156301609000000000000
B0512473206899S11703534EA0156601610000000000000
B0512513206970S11703539EA0156801616000000015000
B0512553207026S11703488EA0157401620000000015000
B0512593207043S11703409EA0157601620000000015000
B0513033207007S11703347EA0158101628000000015000
B0513073206943S11703338EA0158101623000000015000
B0513113206892S11703391EA0157701623000000015000
B0513153206884S11703473EA0158101633000000015000
B0513193206904S11703551EA0159201637000000000000
B0513233206951S11703613EA0159301637000000000000
B0513273207020S11703626EA0159501641000000000000
B0513313207068S11703578EA0160001645000000000000
B0513353207072S11703505EA0159801640000000015000
B0513393207031S11703447EA0159401638000000015000
B0513433206969S11703442EA0159401640000000015000
B0513473206918S11703491EA0159801644000000000000
B0513513206903S11703568EA0160401652000000015000
B0513553206934S11703635EA0161301660000000000000
B0513593206998S11703646EA0161401653000000015000
B0514033207056S11703595EA0160501646000000015000
B0514073207109S11703526EA0159501632000000000000
B0514113207147S11703443EA0159201635000000000000
B0514153207128S11703364EA0160101645000000000000
B0514193207068S11703331EA0160301644000000000000
B0514233207003S11703357EA0159601636000000000000
B0514273206936S11703401EA0158601624000000000000
B0514313206875S11703455EA0158701631000000000000
B0514353206835S11703525EA0159301640000000000000
B0514393206855S11703600EA0160001639000000000000
B0514433206926S11703618EA0159301630000000000000
B0514473207000S11703582EA0158201621000000000000
B0514513207060S11703514EA0157701619000000000000
B0514553207115S11703436EA0157101613000000000000
B0514593207147S11703348EA0157001612000000000000
B0515033207151S11703253EA0156501604000000000000
B0515073207148S11703156EA0155401594000000000000
B0515113207135S11703059EA0155001590000000000000
B0515153207096S11702979EA0154901589000000000000
B0515193207029S11702937EA0154701586000000000000
B0515233206957S11702961EA0154201582000000000000
B0515273206908S11703031EA0154001583000000000000
B0515313206886S11703119EA0153301575000000000000
B0515353206883S11703215EA0153401581000000000000
B0515393206892S11703310EA0153701578000000000000
B0515433206935S11703387EA0153301573000000000000
B0515473207007S11703409EA0152401564000000000000
B0515513207079S11703386EA0151901562000000000000
B0515553207137S11703328EA0151601556000000000000
B0515593207185S11703254EA0150201541000000000000
B0516033207219S11703166EA0148901525000000000000
B0516073207232S11703068EA0147701515000000000000
B0516113207217S11702968EA0147101508000000000000
B0516153207174S11702880EA0146601503000000000000
B0516193207128S11702793EA0146401504000000000000
B0516233207081S11702708EA0146501504000000000000
B0516273207011S11702658EA0147001507000000000000
B0516313206935S11702688EA0146701503000000000000
B0516353206903S11702771EA0146301503000000000000
B0516393206912S11702858EA0146301504000000000000
B0516433206938S11702940EA0145601493000000000000
B0516473206970S11703023EA0145001493000000000000
B0516513206999S11703109EA0145701503000000000000
B0516553207030S11703188EA0148401538000000000000
B0516593207089S11703196EA0151101557000000000000
B0517033207104S11703130EA0152401571000000000000
B0517073207052S11703085EA0153501580000000000000
B0517113206988S11703114EA0154601592000000000000
B0517153206965S11703189EA0156601615000000000000
B0517193207000S11703252EA0157801631000000000000
B0517233207063S11703244EA0159801652000000015000
B0517273207079S11703179EA0162001679000000015000
B0517313207035S11703132EA0164201696000000015000
B0517353206973S11703156EA0166101720000000015000
B0517393206956S11703228EA0168301734000000015000
B0517433206999S11703287EA0169501749000000015000
B0517473207061S11703275EA0171001764000000015000
B0517513207068S11703208EA0173001787000000015000
B0517553207007S11703183EA0174701799000000015000
B0517593206960S11703240EA0176401818000000015000
B0518033206994S11703305EA0178401838000000015000
B0518073207050S11703273EA0179601847000000015000
B0518113207029S11703202EA0180901868000000015000
B0518153206969S11703209EA0183201887000000015000
B0518193206940S11703279EA0183701887000000015000
B0518233206978S11703341EA0184401901000000015000
B0518273207037S11703312EA0185601907000000015000
B0518313207031S11703237EA0186401924000000015000
B0518353206977S11703222EA0188701949000000015000
B0518393206944S11703278EA0189301937000000015000
B0518433206968S11703357EA0189001947000000015000
B0518473207031S11703388EA0190401961000000015000
B0518513207091S11703349EA0191801975000000015000
B0518553207091S11703278EA0193802003000000015000
B0518593207040S11703258EA0195902020000000015000
B0519033206994S11703299EA0196502017000000015000
B0519073206990S11703379EA0196402022000000015000
B0519113207046S11703429EA0197502032000000015000
B0519153207104S11703399EA0198502049000000015000
B0519193207103S11703334EA0200102064000000015000
B0519233207053S11703315EA0201102069000000015000
B0519273207014S11703373EA0201002062000000015000
B0519313207040S11703453EA0200802069000000015000
B0519353207112S11703470EA0202102087000000015000
B0519393207151S11703412EA0203402096000000015000
B0519433207126S11703356EA0204602110000000015000
B0519473207074S11703351EA0205402110000000015000
B0519513207029S11703401EA0204802103000000015000
B0519553207026S11703484EA0205202112000000015000
B0519593207064S11703556EA0205602110000000015000
B0520033207129S11703590EA0204602089000000015000
B0520073207203S11703566EA0202802079000000015000
B0520113207268S11703516EA0201902070000000000000
B0520153207303S11703439EA0201502070000000000000
B0520193207294S11703360EA0202002074000000000000
B0520233207252S11703302EA0201802075000000000000
B0520273207203S11703257EA0201802073000000000000
B0520313207144S11703239EA0201302066000000000000
B0520353207087S11703275EA0200602055000000000000
B0520393207063S11703354EA0199902054000000000000
B0520433207081S11703440EA0199702049000000000000
B0520473207117S11703523EA0199402051000000000000
B0520513207142S11703616EA0199602052000000000000
B0520553207156S11703711EA0200002054000000000000
B0520593207180S11703802EA0199402046000000000000
B0521033207242S11703861EA0198802040000000000000
B0521073207321S11703859EA0198102035000000000000
B0521113207385S11703812EA0197702028000000000000
B0521153207424S11703746EA0196602013000000000000
B0521193207442S11703668EA0195102000000000000000
B0521233207455S11703587EA0194101991000000000000
B0521273207466S11703508EA0193201985000000000000
B0521313207466S11703431EA0193201982000000000000
B0521353207440S11703365EA0192401974000000000000
B0521393207389S11703327EA0191601967000000000000
B0521433207326S11703322EA0190501951000000000000
B0521473207259S11703330EA0188701933000000000000
B0521513207191S11703347EA0187401924000000000000
B0521553207126S11703344EA0186801920000000000000
B0521593207074S11703302EA0186201910000000000000
B0522033207051S11703227EA0185001899000000000000
B0522073207066S11703140EA0184201894000000000000
B0522113207112S11703068EA0184401897000000000000
B0522153207173S11703020EA0184901907000000000000
B0522193207228S11702972EA0185901914000000000000
B0522233207241S11702902EA0186101912000000000000
B0522273207203S11702842EA0185901914000000000000
B0522313207142S11702818EA0186501923000000000000
B0522353207081S11702842EA0187101924000000000000
B0522393207066S11702916EA0187001920000000000000
B0522433207116S11702980EA0186001904000000000000
B0522473207191S11702984EA0184801897000000015000
B0522513207238S11702923EA0184701900000000015000
B0522553207222S11702847EA0185301907000000015000
B0522593207169S11702792EA0185501906000000015000
B0523033207104S11702769EA0185501907000000000000
B0523073207052S11702819EA0185801910000000000000
B0523113207044S11702899EA0185801908000000000000
B0523153207064S11702983EA0185301902000000000000
B0523193207091S11703065EA0185201904000000000000
B0523233207122S11703146EA0185401902000000000000
B0523273207157S11703228EA0184301890000000000000
B0523313207189S11703321EA0182901876000000000000
B0523353207215S11703417EA0182301874000000000000
B0523393207238S11703509EA0182601878000000000000
B0523433207267S11703596EA0182601876000000000000
B0523473207302S11703682EA0182101869000000000000
B0523513207339S11703770EA0181401862000000000000
B0523553207388S11703851EA0181301863000000000000
B0523593207459S11703891EA0181501863000000000000
B0524033207532S11703872EA0181701869000000000000
B0524073207577S11703812EA0182101870000000000000
B0524113207589S11703734EA0181501858000000000000
B0524153207572S11703651EA0180001843000000000000
B0524193207536S11703574EA0179101836000000000000
B0524233207490S11703501EA0178701834000000000000
B0524273207446S11703431EA0178201826000000000000
B0524313207398S11703364EA0176801813000000000000
B0524353207346S11703296EA0175301798000000000000
B0524393207286S11703237EA0175101799000000000000
B0524433207219S11703208EA0175701809000000000000
B0524473207151S11703230EA0177101828000000000000
B0524513207143S11703309EA0178901835000000000000
B0524553207203S11703357EA0178101818000000000000
B0524593207280S11703352EA0176501806000000000000
B0525033207341S11703306EA0175701800000000000000
B0525073207349S11703230EA0175001793000000015000
B0525113207303S11703175EA0174501788000000015000
B0525153207233S11703165EA0173301773000000000000
B0525193207156S11703179EA0173201780000000000000
B0525233207089S11703219EA0175101798000000000000
B0525273207102S11703305EA0176701811000000000000
B0525313207180S11703332EA0177601831000000015000
B0525353207245S11703287EA0179601848000000015000
B0525393207258S11703210EA0180801852000000015000
B0525433207213S11703153EA0180701851000000015000
B0525473207144S11703146EA0179901839000000015000
B0525513207070S11703179EA0178901832000000015000
B0525553207008S11703243EA0178401827000000015000
B0525593206961S11703326EA0177701818000000000000
B0526033206964S11703422EA0177401816000000000000
B0526073207018S11703488EA0176501802000000000000
B0526113207103S11703491EA0174101779000000000000
B0526153207181S11703455EA0174101794000000000000
B0526193207232S11703393EA0175901822000000015000
B0526233207245S11703319EA0178801838000000015000
B0526273207199S11703296EA0180201858000000015000
B0526313207169S11703354EA0181501868000000015000
B0526353207212S11703409EA0182901886000000015000
B0526393207267S11703375EA0184301897000000015000
B0526433207265S11703312EA0185801913000000015000
B0526473207220S11703300EA0186901922000000015000
B0526513207178S11703344EA0187501927000000015000
B0526553207178S11703417EA0188701945000000015000
B0526593207232S11703465EA0190401961000000015000
B0527033207297S11703462EA0192001974000000015000
B0527073207337S11703412EA0193501992000000015000
B0527113207324S11703352EA0194301995000000015000
B0527153207274S11703352EA0194401996000000015000
B0527193207237S11703408EA0194601999000000015000
B0527233207252S11703482EA0195302012000000000000
B0527273207312S11703520EA0196502017000000015000
B0527313207368S11703484EA0197002025000000015000
B0527353207377S11703419EA0197502033000000015000
B0527393207338S11703388EA0198402039000000015000
B0527433207302S11703429EA0198202032000000015000
B0527473207326S11703501EA0197902034000000015000
B0527513207391S11703530EA0198502040000000015000
B0527553207456S11703501EA0198702040000000015000
B0527593207489S11703431EA0198202033000000015000
B0528033207480S11703354EA0197302013000000015000
B0528073207446S11703280EA0194701987000000015000
B0528113207406S11703206EA0193001975000000000000
B0528153207363S11703131EA0191601963000000000000
B0528193207320S11703054EA0190501954000000000000
B0528233207277S11702977EA0189801950000000000000
B0528273207235S11702906EA0190101956000000000000
B0528313207196S11702838EA0190701962000000000000
B0528353207156S11702773EA0190801962000000000000
B0528393207116S11702708EA0191001966000000000000
B0528433207077S11702643EA0191701975000000000000
B0528473207037S11702581EA0192501980000000000000
B0528513206995S11702521EA0192701982000000000000
B0528553206953S11702464EA0192701981000000000000
B0528593206913S11702404EA0192201973000000000000
B0529033206874S11702343EA0191101962000000000000
B0529073206835S11702281EA0190001950000000000000
B0529113206799S11702216EA0189301941000000000000
B0529153206764S11702149EA0188201931000000000000
B0529193206731S11702080EA0187101920000000000000
B0529233206700S11702008EA0186201910000000000000
B0529273206667S11701931EA0185501904000000000000
B0529313206632S11701853EA0184501890000000000000
B0529353206593S11701774EA0183601887000000000000
B0529393206553S11701700EA0183701889000000000000
B0529433206515S11701627EA0183701888000000000000
B0529473206476S11701554EA0183401883000000000000
B0529513206436S11701482EA0182801877000000000000
B0529553206393S11701411EA0182201872000000000000
B0529593206351S11701338EA0181701865000000000000
B0530033206310S11701264EA0180901859000000000000
B0530073206267S11701193EA0180501855000000000000
B0530113206224S11701121EA0180101850000000000000
B0530153206184S11701050EA0179701846000000000000
B0530193206149S11700974EA0179201839000000000000
B0530233206123S11700892EA0178601833000000000000
B0530273206107S11700806EA0178001827000000000000
B0530313206099S11700721EA0177401823000000000000
B0530353206098S11700634EA0177001817000000000000
B0530393206098S11700548EA0176201809000000000000
B0530433206103S11700458EA0175301799000000000000
B0530473206108S11700367EA0174501791000000000000
B0530513206111S11700279EA0174001787000000000000
B0530553206110S11700192EA0173801785000000000000
B0530593206095S11700107EA0173201775000000000000
B0531033206056S11700030EA0172501769000000000000
B0531073206010S11659960EA0171501759000000000000
B0531113205969S11659881EA0170701752000000000000
B0531153205938S11659800EA0171001760000000000000
B0531193205909S11659726EA0171801767000000000000
B0531233205889S11659651EA0171901766000000000000
B0531273205882S11659571EA0171701764000000000000
B0531313205883S11659491EA0171601763000000000000
B0531353205893S11659410EA0171501759000000000000
B0531393205902S11659330EA0170901754000000000000
B0531433205907S11659246EA0170401750000000000000
B0531473205909S11659163EA0170001747000000000000
B0531513205909S11659079EA0169901747000000000000
B0531553205909S11658996EA0170001745000000000000
B0531593205907S11658911EA0169501738000000000000
B0532033205904S11658825EA0168801731000000000000
B0532073205900S11658741EA0168401731000000000000
B0532113205893S11658659EA0168701734000000000000
B0532153205872S11658582EA0168601731000000000000
B0532193205822S11658541EA0168901738000000000000
B0532233205765S11658559EA0169401739000000000000
B0532273205731S11658622EA0168801728000000000000
B0532313205727S11658710EA0167301713000000000000
B0532353205746S11658801EA0166201703000000000000
B0532393205776S11658892EA0165601698000000000000
B0532433205812S11658981EA0164901693000000000000
B0532473205854S11659070EA0164601691000000000000
B0532513205896S11659157EA0164301687000000000000
B0532553205937S11659245EA0164201687000000000000
B0532593205976S11659332EA0164301687000000000000
B0533033206016S11659418EA0163901683000000000000
B0533073206058S11659504EA0163301676000000000000
B0533113206101S11659590EA0162901673000000000000
B0533153206141S11659675EA0162601668000000000000
B0533193206182S11659761EA0162201666000000000000
B0533233206223S11659848EA0162401667000000000000
B0533273206267S11659928EA0162401667000000000000
B0533313206322S11659994EA0162401666000000000000
B0533353206389S11700036EA0162001664000000015000
B0533393206463S11700068EA0161101659000000015000
B0533433206539S11700075EA0160201657000000015000
B0533473206608S11700046EA0160201659000000030000
B0533513206673S11700030EA0160501659000000030000
B0533553206734S11700069EA0159801647000000030000
B0533593206773S11700149EA0158401632000000030000
B0534033206793S11700237EA0157701626000000015000
B0534073206806S11700328EA0157101620000000015000
B0534113206816S11700420EA0156701614000000015000
B0534153206822S11700511EA0156501611000000015000
B0534193206832S11700601EA0156101606000000015000
B0534233206845S11700689EA0155301601000000015000
B0534273206858S11700779EA0154701595000000015000
B0534313206870S11700866EA0153601586000000015000
B0534353206879S11700959EA0153101585000000015000
B0534393206890S11701051EA0153101579000000015000
B0534433206899S11701144EA0152901577000000015000
B0534473206908S11701237EA0152801574000000000000
B0534513206920S11701330EA0152501568000000000000
B0534553206927S11701425EA0152001566000000000000
B0534593206933S11701519EA0152001564000000000000
B0535033206939S11701612EA0151101550000000000000
B0535073206946S11701709EA0149901539000000000000
B0535113206956S11701806EA0149601535000000000000
B0535153206969S11701901EA0149001529000000000000
B0535193206981S11701999EA0148101517000000000000
B0535233206995S11702095EA0147001506000000000000
B0535273207011S11702191EA0146101497000000000000
B0535313207027S11702288EA0145001484000000000000
B0535353207038S11702390EA0143801473000000000000
B0535393207047S11702493EA0143201469000000000000
B0535433207056S11702593EA0142701463000000000000
B0535473207068S11702694EA0141601449000000000000
B0535513207079S11702793EA0141001444000000000000
B0535553207089S11702889EA0140801442000000000000
B0535593207098S11702984EA0140301435000000000000
B0536033207102S11703079EA0139701430000000000000
B0536073207103S11703174EA0139101425000000000000
B0536113207105S11703266EA0139201423000000000000
B0536153207103S11703356EA0141401442000000000000
B0536193207122S11703430EA0143401461000000000000
B0536233207177S11703416EA0144301470000000000000
B0536273207157S11703348EA0144801481000000015000
B0536313207091S11703345EA0146301501000000015000
B0536353207047S11703405EA0147301506000000015000
B0536393207066S11703477EA0149201536000000015000
B0536433207125S11703469EA0150801543000000015000
B0536473207135S11703395EA0150601542000000030000
B0536513207078S11703344EA0151901559000000015000
B0536553207013S11703367EA0153701584000000015000
B0536593206992S11703444EA0155301593000000015000
B0537033207029S11703512EA0156501610000000015000
B0537073207091S11703521EA0157901619000000015000
B0537113207125S11703458EA0158501625000000015000
B0537153207090S11703392EA0159101633000000015000
B0537193207021S11703384EA0160101645000000015000
B0537233206965S11703435EA0162001667000000015000
B0537273206956S11703512EA0163601678000000015000
B0537313207005S11703562EA0164401687000000015000
B0537353207066S11703534EA0165101694000000015000
B0537393207069S11703461EA0166801710000000015000
B0537433207014S11703419EA0167701725000000015000
B0537473206952S11703445EA0169301741000000015000
B0537513206949S11703522EA0170701744000000015000
B0537553207011S11703556EA0170601749000000015000
B0537593207057S11703505EA0172001768000000015000
B0538033207044S11703436EA0173901786000000015000
B0538073206988S11703408EA0175301798000000015000
B0538113206946S11703456EA0176501813000000015000
B0538153206974S11703521EA0177401820000000015000
B0538193207033S11703514EA0178201829000000015000
B0538233207046S11703447EA0179101836000000015000
B0538273206991S11703406EA0179901846000000015000
B0538313206935S11703447EA0181101864000000015000
B0538353206935S11703526EA0182101865000000015000
B0538393206986S11703575EA0182401875000000015000
B0538433207037S11703549EA0183801891000000015000
B0538473207029S11703486EA0184901898000000015000
B0538513206970S11703462EA0185401904000000015000
B0538553206914S11703503EA0186401914000000015000
B0538593206896S11703575EA0186301908000000015000
B0539033206907S11703657EA0185701897000000015000
B0539073206942S11703731EA0184301884000000015000
B0539113207005S11703776EA0183401879000000015000
B0539153207079S11703785EA0183601883000000000000
B0539193207133S11703743EA0184301890000000015000
B0539233207141S11703673EA0184801895000000015000
B0539273207105S11703612EA0184801891000000015000
B0539313207055S11703562EA0185001903000000015000
B0539353206994S11703534EA0186201914000000000000
B0539393206935S11703579EA0187401926000000000000
B0539433206949S11703655EA0188301934000000015000
B0539473207012S11703669EA0188101925000000015000
B0539513207060S11703616EA0188101932000000015000
B0539553207060S11703540EA0189001942000000030000
B0539593207009S11703499EA0189901953000000015000
B0540033206947S11703525EA0190801958000000015000
B0540073206923S11703601EA0191201959000000015000
B0540113206947S11703677EA0190701950000000015000
B0540153207007S11703713EA0190001947000000015000
B0540193207070S11703686EA0190101953000000015000
B0540233207120S11703631EA0190501957000000015000
B0540273207130S11703556EA0191401966000000015000
B0540313207085S11703512EA0192401974000000015000
B0540353207031S11703542EA0192601975000000015000
B0540393207011S11703620EA0192601974000000015000
B0540433207005S11703704EA0192401972000000015000
B0540473207052S11703764EA0192601976000000015000
B0540513207120S11703768EA0193001977000000015000
B0540553207177S11703718EA0192701971000000015000
B0540593207196S11703639EA0192201970000000015000
B0541033207178S11703556EA0192001969000000015000
B0541073207129S11703487EA0192501979000000015000
B0541113207087S11703413EA0193701991000000015000
B0541153207069S11703327EA0194601999000000015000
B0541193207065S11703240EA0194801999000000000000
B0541233207048S11703159EA0195002001000000000000
B0541273206992S11703148EA0196202014000000000000
B0541313206949S11703201EA0196002007000000015000
B0541353206922S11703276EA0195301998000000000000
B0541393206903S11703360EA0194601994000000000000
B0541433206881S11703443EA0194301989000000000000
B0541473206825S11703497EA0193901990000000000000
B0541513206757S11703514EA0194201994000000000000
B0541553206700S11703477EA0194501994000000000000
B0541593206671S11703408EA0194301992000000000000
B0542033206671S11703330EA0194401994000000000000
B0542073206695S11703258EA0194601996000000000000
B0542113206731S11703197EA0194601996000000000000
B0542153206782S11703146EA0194401992000000000000
B0542193206838S11703100EA0193901988000000000000
B0542233206900S11703061EA0193401983000000000000
B0542273206977S11703058EA0192501974000000000000
B0542313207050S11703102EA0192001971000000000000
B0542353207109S11703169EA0191901972000000000000
B0542393207164S11703237EA0191901971000000000000
B0542433207217S11703306EA0191301958000000000000
B0542473207277S11703377EA0190301952000000000000
B0542513207341S11703442EA0190001946000000000000
B0542553207406S11703505EA0189101936000000000000
B0542593207469S11703574EA0188201929000000000000
B0543033207538S11703634EA0187601920000000000000
B0543073207611S11703679EA0186701910000000000000
B0543113207692S11703689EA0186001903000000000000
B0543153207762S11703639EA0185501899000000000000
B0543193207791S11703555EA0185301901000000000000
B0543233207788S11703470EA0185401902000000000000
B0543273207762S11703392EA0185201897000000000000
B0543313207722S11703321EA0184801895000000000000
B0543353207674S11703253EA0184401888000000000000
B0543393207622S11703185EA0183701885000000000000
B0543433207566S11703123EA0183801887000000000000
B0543473207510S11703068EA0183901887000000000000
B0543513207449S11703027EA0183701885000000000000
B0543553207381S11703007EA0183201879000000000000
B0543593207310S11703002EA0182801873000000000000
B0544033207238S11703013EA0182601871000000000000
B0544073207170S11703036EA0182201868000000000000
B0544113207104S11703061EA0181701862000000000000
B0544153207038S11703089EA0181001857000000000000
B0544193206974S11703122EA0180801854000000000000
B0544233206916S11703163EA0180901855000000000000
B0544273206875S11703227EA0180701850000000000000
B0544313206870S11703315EA0179501836000000000000
B0544353206921S11703399EA0178201818000000000000
B0544393207009S11703434EA0176901814000000000000
B0544433207099S11703443EA0177101820000000000000
B0544473207185S11703440EA0177601824000000000000
B0544513207264S11703413EA0178101828000000000000
B0544553207330S11703360EA0178901841000000000000
B0544593207354S11703280EA0180301853000000000000
B0545033207339S11703202EA0181001856000000000000
B0545073207290S11703153EA0181101857000000000000
B0545113207229S11703153EA0181201857000000015000
B0545153207193S11703210EA0181001858000000015000
B0545193207209S11703284EA0181801871000000015000
B0545233207264S11703319EA0182701873000000015000
B0545273207323S11703283EA0182201865000000015000
B0545313207337S11703208EA0182401870000000030000
B0545353207307S11703140EA0182001863000000015000
B0545393207252S11703094EA0181401858000000015000
B0545433207190S11703080EA0181001848000000015000
B0545473207137S11703130EA0179801837000000015000
B0545513207122S11703210EA0180201852000000015000
B0545553207173S11703256EA0182101867000000015000
B0545593207208S11703182EA0183101883000000015000
B0546033207165S11703096EA0185401908000000015000
B0546073207095S11703075EA0187401924000000015000
B0546113207043S11703115EA0187301918000000015000
B0546153207047S11703187EA0186701908000000015000
B0546193207099S11703237EA0185501892000000015000
B0546233207172S11703260EA0185201906000000015000
B0546273207241S11703237EA0187201927000000015000
B0546313207255S11703157EA0189301947000000015000
B0546353207219S11703085EA0189801941000000015000
B0546393207150S11703055EA0189601947000000015000
B0546433207089S11703080EA0190001943000000015000
B0546473207069S11703156EA0188401918000000015000
B0546513207105S11703234EA0186401903000000015000
B0546553207165S11703295EA0185801909000000015000
B0546593207232S11703351EA0188101932000000015000
B0547033207306S11703390EA0191201968000000015000
B0547073207377S11703353EA0195502017000000015000
B0547113207382S11703271EA0199602056000000015000
B0547153207336S11703224EA0203102090000000015000
B0547193207284S11703239EA0205302109000000015000
B0547233207234S11703284EA0205402100000000015000
B0547273207167S11703339EA0204102084000000015000
B0547313207122S11703426EA0203702085000000015000
B0547353207152S11703507EA0204202093000000015000
B0547393207217S11703525EA0203802077000000015000
B0547433207277S11703481EA0202102064000000015000
B0547473207328S11703412EA0201902075000000015000
B0547513207355S11703326EA0204102106000000015000
B0547553207323S11703248EA0207102134000000015000
B0547593207259S11703217EA0208202132000000015000
B0548033207193S11703248EA0207302118000000015000
B0548073207174S11703327EA0206002110000000015000
B0548113207200S11703404EA0205902111000000015000
B0548153207260S11703448EA0206102111000000015000
B0548193207333S11703451EA0207002123000000015000
B0548233207393S11703408EA0208902153000000015000
B0548273207411S11703339EA0211502177000000015000
B0548313207375S11703286EA0213202188000000015000
B0548353207315S11703271EA0212302168000000015000
B0548393207255S11703317EA0210602148000000015000
B0548433207246S11703405EA0210002156000000015000
B0548473207282S11703484EA0210802161000000015000
B0548513207343S11703543EA0211002155000000015000
B0548553207421S11703556EA0211502180000000015000
B0548593207471S11703500EA0213702200000000015000
B0549033207451S11703432EA0215702220000000015000
B0549073207391S11703427EA0217202232000000015000
B0549113207349S11703482EA0217702231000000015000
B0549153207350S11703569EA0217602229000000015000
B0549193207399S11703640EA0218202236000000015000
B0549233207472S11703651EA0218902249000000015000
B0549273207523S11703603EA0220202263000000015000
B0549313207519S11703538EA0221202269000000015000
B0549353207464S11703525EA0221502272000000015000
B0549393207421S11703585EA0221802279000000015000
B0549433207429S11703668EA0222902292000000015000
B0549473207475S11703728EA0223602292000000015000
B0549513207540S11703743EA0223502290000000015000
B0549553207596S11703712EA0223002287000000015000
B0549593207624S11703648EA0222602282000000015000
B0550033207616S11703577EA0222202280000000015000
B0550073207585S11703512EA0221402264000000000000
B0550113207547S11703442EA0219702250000000000000
B0550153207508S11703366EA0218502238000000000000
B0550193207472S11703289EA0217902236000000000000
B0550233207441S11703209EA0217902235000000000000
B0550273207410S11703132EA0217902237000000000000
B0550313207376S11703062EA0218202243000000000000
B0550353207346S11702996EA0218802248000000000000
B0550393207324S11702929EA0219002248000000000000
B0550433207306S11702860EA0218502241000000000000
B0550473207293S11702786EA0217802233000000000000
B0550513207286S11702710EA0217502231000000000000
B0550553207287S11702636EA0217402231000000000000
B0550593207293S11702563EA0217302226000000000000
B0551033207300S11702489EA0216402217000000000000
B0551073207310S11702412EA0215602209000000000000
B0551113207320S11702334EA0214902204000000000000
B0551153207329S11702257EA0214702201000000000000
B0551193207339S11702183EA0214402198000000000000
B0551233207351S11702109EA0214102195000000000000
B0551273207360S11702036EA0213702192000000000000
B0551313207368S11701963EA0213202186000000000000
B0551353207376S11701889EA0212902182000000000000
B0551393207382S11701818EA0212502178000000000000
B0551433207391S11701745EA0212202174000000000000
B0551473207401S11701672EA0211502167000000000000
B0551513207411S11701599EA0211002162000000000000
B0551553207421S11701525EA0210702159000000000000
B0551593207428S11701455EA0210502157000000000000
B0552033207433S11701385EA0210002152000000000000
B0552073207437S11701313EA0209302144000000000000
B0552113207440S11701239EA0208802138000000000000
B0552153207441S11701169EA0208502138000000000000
B0552193207443S11701102EA0208402135000000000000
B0552233207449S11701033EA0207902128000000000000
B0552273207459S11700964EA0207202122000000000000
B0552313207473S11700894EA0206702116000000000000
B0552353207489S11700825EA0206102111000000000000
B0552393207507S11700756EA0205702106000000000000
B0552433207527S11700687EA0205302101000000000000
B0552473207547S11700618EA0204702095000000000000
B0552513207570S11700548EA0204102088000000000000
B0552553207586S11700478EA0203402082000000000000
B0552593207601S11700407EA0202902078000000000000
B0553033207614S11700340EA0202502073000000000000
B0553073207624S11700271EA0201702066000000000000
B0553113207636S11700202EA0201202060000000000000
B0553153207649S11700133EA0200902055000000000000
B0553193207661S11700065EA0200202050000000000000
B0553233207671S11659997EA0199702046000000000000
B0553273207683S11659928EA0199402041000000000000
B0553313207697S11659859EA0199002038000000000000
B0553353207713S11659791EA0198702035000000000000
B0553393207729S11659725EA0198502034000000000000
B0553433207748S11659659EA0198302030000000000000
B0553473207768S11659591EA0197902026000000000000
B0553513207789S11659523EA0197702024000000000000
B0553553207806S11659454EA0197302020000000000000
B0553593207822S11659384EA0197002016000000000000
B0554033207837S11659314EA0196502010000000000000
B0554073207853S11659241EA0196002006000000000000
B0554113207865S11659168EA0195702002000000000000
B0554153207874S11659096EA0195201998000000000000
B0554193207883S11659023EA0195001997000000000000
B0554233207892S11658953EA0194901996000000000000
B0554273207901S11658884EA0194701993000000000000
B0554313207906S11658814EA0194301986000000000000
B0554353207910S11658741EA0193701980000000000000
B0554393207915S11658668EA0193101975000000000000
B0554433207924S11658596EA0192701972000000000000
B0554473207934S11658525EA0192301967000000000000
B0554513207944S11658453EA0191701962000000000000
B0554553207956S11658381EA0191101956000000000000
B0554593207967S11658308EA0190801953000000000000
B0555033207978S11658236EA0190401949000000000000
B0555073207984S11658164EA0190001944000000000000
B0555113207988S11658088EA0189201934000000000000
B0555153207996S11658011EA0188501929000000000000
B0555193208009S11657937EA0188201926000000000000
B0555233208027S11657866EA0188101927000000000000
B0555273208039S11657792EA0188201927000000000000
B0555313208043S11657714EA0187601919000000000000
B0555353208031S11657636EA0187201916000000000000
B0555393208014S11657559EA0187001915000000000000
B0555433207999S11657480EA0187001914000000000000
B0555473207984S11657399EA0186601907000000000000
B0555513207961S11657319EA0186101903000000000000
B0555553207921S11657250EA0185701899000000000000
B0555593207867S11657192EA0185301896000000000000
B0556033207813S11657137EA0185201896000000000000
B0556073207759S11657083EA0185301897000000000000
B0556113207707S11657030EA0185501900000000000000
B0556153207661S11656975EA0185701902000000000000
B0556193207623S11656916EA0185701899000000000000
B0556233207588S11656853EA0185201891000000000000
B0556273207549S11656793EA0184301881000000000000
B0556313207494S11656749EA0182901868000000000000
B0556353207428S11656724EA0181901859000000000000
B0556393207360S11656708EA0181501854000000000000
B0556433207295S11656679EA0180601844000000000000
B0556473207232S11656645EA0179601833000000000000
B0556513207173S11656596EA0178801824000000000000
B0556553207121S11656537EA0177901813000000000000
B0556593207063S11656483EA0177001807000000000000
B0557033206995S11656441EA0176601808000000000000
B0557073206927S11656405EA0176701807000000000000
B0557113206858S11656376EA0176601805000000000000
B0557153206787S11656362EA0176501802000000000000
B0557193206713S11656372EA0175801798000000000000
B0557233206643S11656410EA0175701793000000000000
B0557273206583S11656471EA0175101788000000000000
B0557313206531S11656548EA0174401781000000000000
B0557353206483S11656630EA0174001780000000000000
B0557393206437S11656711EA0174101783000000000000
B0557433206389S11656788EA0174301784000000000000
B0557473206338S11656860EA0174501785000000000000
B0557513206292S11656934EA0174501785000000000000
B0557553206250S11657017EA0174401786000000000000
B0557593206215S11657104EA0174701792000000000000
B0558033206186S11657191EA0175501798000000000000
B0558073206164S11657281EA0175701797000000000000
B0558113206147S11657372EA0175501796000000000000
B0558153206134S11657464EA0175501797000000000000
B0558193206124S11657555EA0175301792000000000000
B0558233206117S11657650EA0174401783000000000000
B0558273206120S11657750EA0173901780000000000000
B0558313206127S11657850EA0173901783000000000000
B0558353206130S11657946EA0174501790000000000000
B0558393206137S11658037EA0175101792000000000000
B0558433206142S11658128EA0174701788000000000000
B0558473206142S11658222EA0173901779000000000000
B0558513206132S11658316EA0173401773000000000000
B0558553206119S11658408EA0173201772000000000000
B0558593206106S11658496EA0173201773000000000000
B0559033206097S11658586EA0173101767000000000000
B0559073206086S11658676EA0172301760000000000000
B0559113206075S11658765EA0171701756000000000000
B0559153206064S11658858EA0171301752000000000000
B0559193206059S11658949EA0170901749000000000000
B0559233206063S11659041EA0170501744000000000000
B0559273206069S11659135EA0170301743000000000000
B0559313206081S11659227EA0170201742000000000000
B0559353206095S11659318EA0170001737000000000000
B0559393206112S11659410EA0169401733000000000000
B0559433206130S11659503EA0169501736000000000000
B0559473206147S11659590EA0169801739000000000000
B0559513206171S11659672EA0170201743000000000000
B0559553206221S11659738EA0170501744000000000000
B0559593206294S11659779EA0170401740000000000000
B0600033206368S11659759EA0170301744000000000000
B0600073206414S11659696EA0170401743000000000000
B0600113206418S11659618EA0170101736000000015000
B0600153206371S11659562EA0169601737000000015000
B0600193206297S11659556EA0169801744000000015000
B0600233206241S11659607EA0170801758000000015000
B0600273206220S11659688EA0171601762000000000000
B0600313206232S11659778EA0172201767000000000000
B0600353206290S11659815EA0173701785000000015000
B0600393206335S11659776EA0174101779000000015000
B0600433206320S11659714EA0173201775000000015000
B0600473206268S11659692EA0173001771000000015000
B0600513206214S11659731EA0173101781000000015000
B0600553206193S11659808EA0174001786000000015000
B0600593206218S11659885EA0174201784000000015000
B0601033206277S11659926EA0174001782000000015000
B0601073206348S11659947EA0173401773000000015000
B0601113206416S11659978EA0172701767000000015000
B0601153206479S11700034EA0171601753000000000000
B0601193206528S11700114EA0170501744000000000000
B0601233206562S11700206EA0169701738000000000000
B0601273206587S11700302EA0169101729000000000000
B0601313206609S11700401EA0168501724000000000000
B0601353206634S11700500EA0168101721000000000000
B0601393206658S11700597EA0167801718000000000000
B0601433206680S11700695EA0167401712000000000000
B0601473206701S11700791EA0167001711000000000000
B0601513206721S11700888EA0166601705000000000000
B0601553206736S11700986EA0166301705000000000000
B0601593206745S11701081EA0166201701000000000000
B0602033206756S11701176EA0165401692000000000000
B0602073206766S11701272EA0164801686000000000000
B0602113206782S11701364EA0164601686000000000000
B0602153206796S11701455EA0164401680000000000000
B0602193206816S11701546EA0163301666000000000000
B0602233206838S11701641EA0162201656000000000000
B0602273206858S11701737EA0161801654000000000000
B0602313206879S11701832EA0161801654000000000000
B0602353206900S11701924EA0161801653000000000000
B0602393206926S11702014EA0161101645000000000000
B0602433206956S11702105EA0160201634000000000000
B0602473206985S11702196EA0159601633000000000000
B0602513207009S11702285EA0159301626000000000000
B0602553207034S11702372EA0158701622000000000000
B0602593207060S11702459EA0158101615000000000000
B0603033207086S11702550EA0157401608000000000000
B0603073207113S11702643EA0157301609000000000000
B0603113207139S11702736EA0157301608000000000000
B0603153207168S11702823EA0159401643000000000000
B0603193207200S11702907EA0162501684000000000000
B0603233207268S11702959EA0166901728000000000000
B0603273207341S11702932EA0170801758000000000000
B0603313207362S11702858EA0172401763000000015000
B0603353207334S11702790EA0172701763000000015000
B0603393207282S11702743EA0173101769000000015000
B0603433207217S11702711EA0172701761000000015000
B0603473207154S11702721EA0171901746000000015000
B0603513207094S11702762EA0169101716000000015000
B0603553207055S11702836EA0167501710000000015000
B0603593207048S11702919EA0167201707000000000000
B0604033207081S11702996EA0168101727000000000000
B0604073207148S11703020EA0171401766000000015000
B0604113207202S11702974EA0175501809000000015000
B0604153207187S11702910EA0180201861000000015000
B0604193207130S11702894EA0183301888000000015000
B0604233207085S11702941EA0183901869000000015000
B0604273207104S11703029EA0182101873000000015000
B0604313207178S11703079EA0184901916000000015000
B0604353207260S11703074EA0189101951000000015000
B0604393207320S11703020EA0191901975000000015000
B0604433207332S11702941EA0194001995000000015000
B0604473207284S11702885EA0196202024000000015000
B0604513207212S11702888EA0199902069000000015000
B0604553207156S11702936EA0203402095000000015000
B0604593207134S11703013EA0203602082000000015000
B0605033207174S11703094EA0204002103000000015000
B0605073207250S11703124EA0207202138000000015000
B0605113207316S11703101EA0209702152000000015000
B0605153207349S11703032EA0210502160000000015000
B0605193207334S11702955EA0211602178000000015000
B0605233207277S11702920EA0213502211000000015000
B0605273207215S11702949EA0216502237000000015000
B0605313207180S11703016EA0218602242000000015000
B0605353207186S11703104EA0217602234000000015000
B0605393207242S11703174EA0218102250000000015000
B0605433207315S11703200EA0220202269000000015000
B0605473207373S11703167EA0221302270000000015000
B0605513207384S11703092EA0221002269000000015000
B0605553207333S11703044EA0222302295000000015000
B0605593207273S11703068EA0225502323000000015000
B0606033207260S11703144EA0226502323000000015000
B0606073207310S11703210EA0226002322000000015000
B0606113207386S11703221EA0227002330000000015000
B0606153207442S11703166EA0227102330000000015000
B0606193207454S11703081EA0227002328000000015000
B0606233207420S11703013EA0227102335000000015000
B0606273207358S11703035EA0229102368000000015000
B0606313207334S11703119EA0231002376000000015000
B0606353207380S11703197EA0232102390000000015000
B0606393207451S11703198EA0233902410000000015000
B0606433207493S11703141EA0234202400000000015000
B0606473207475S11703071EA0233002389000000015000
B0606513207408S11703061EA0232602394000000015000
B0606553207355S11703118EA0233702407000000015000
B0606593207341S11703208EA0234002403000000015000
B0607033207372S11703301EA0233802399000000015000
B0607073207447S11703339EA0233802407000000015000
B0607113207523S11703312EA0233902397000000015000
B0607153207571S11703243EA0232502381000000015000
B0607193207568S11703158EA0231202373000000015000
B0607233207520S11703102EA0231102372000000015000
B0607273207455S11703080EA0230502361000000015000
B0607313207382S11703061EA0229102348000000000000
B0607353207303S11703072EA0228802346000000000000
B0607393207263S11703156EA0229402358000000000000
B0607433207297S11703244EA0229702355000000015000
B0607473207373S11703269EA0228702340000000015000
B0607513207441S11703223EA0227602330000000015000
B0607553207468S11703137EA0226402323000000015000
B0607593207471S11703045EA0225302311000000015000
B0608033207463S11702954EA0224802307000000000000
B0608073207451S11702863EA0224302302000000000000
B0608113207438S11702772EA0223902300000000000000
B0608153207425S11702688EA0224602311000000000000
B0608193207414S11702611EA0225602320000000000000
B0608233207403S11702542EA0225902320000000000000
B0608273207394S11702470EA0225502312000000000000
B0608313207389S11702396EA0224702306000000000000
B0608353207384S11702322EA0224202300000000000000
B0608393207380S11702247EA0223602296000000000000
B0608433207375S11702171EA0223102291000000000000
B0608473207368S11702096EA0222902288000000000000
B0608513207360S11702022EA0222502285000000000000
B0608553207352S11701948EA0222302283000000000000
B0608593207345S11701875EA0222102280000000000000
B0609033207338S11701804EA0222002279000000000000
B0609073207330S11701736EA0221902277000000000000
B0609113207323S11701668EA0221502271000000000000
B0609153207312S11701601EA0220702264000000000000
B0609193207300S11701532EA0219902256000000000000
B0609233207300S11701460EA0219302248000000000000
B0609273207313S11701388EA0218502240000000000000
B0609313207338S11701316EA0217802233000000000000
B0609353207365S11701247EA0217502229000000000000
B0609393207390S11701180EA0217202226000000000000
B0609433207412S11701112EA0216602222000000000000
B0609473207433S11701043EA0216002214000000000000
B0609513207455S11700972EA0215302206000000000000
B0609553207473S11700899EA0214602200000000000000
B0609593207489S11700827EA0214102194000000000000
B0610033207503S11700754EA0213602187000000000000
B0610073207520S11700683EA0212802177000000000000
B0610113207533S11700609EA0211702169000000000000
B0610153207545S11700535EA0211002162000000000000
B0610193207558S11700462EA0210602157000000000000
B0610233207566S11700389EA0209802151000000000000
B0610273207573S11700315EA0208902141000000000000
B0610313207580S11700237EA0208002131000000000000
B0610353207586S11700160EA0207602130000000000000
B0610393207592S11700088EA0207702132000000000000
B0610433207596S11700019EA0207602128000000000000
B0610473207601S11659947EA0206902118000000000000
B0610513207607S11659873EA0206002111000000000000
B0610553207616S11659798EA0205802112000000000000
B0610593207624S11659726EA0205802112000000000000
B0611033207633S11659655EA0205502107000000000000
B0611073207644S11659581EA0204902100000000000000
B0611113207653S11659506EA0204502097000000000000
B0611153207662S11659434EA0204402096000000000000
B0611193207670S11659362EA0204202094000000000000
B0611233207676S11659292EA0203802088000000000000
B0611273207684S11659219EA0203102081000000000000
B0611313207690S11659144EA0202602076000000000000
B0611353207696S11659070EA0202402077000000000000
B0611393207700S11658999EA0202602078000000000000
B0611433207702S11658931EA0202402074000000000000
B0611473207701S11658858EA0201702066000000000000
B0611513207700S11658782EA0201102062000000000000
B0611553207700S11658708EA0200802063000000000000
B0611593207700S11658637EA0201302066000000000000
B0612033207701S11658568EA0201202064000000000000
B0612073207702S11658498EA0200902059000000000000
B0612113207703S11658426EA0200302055000000000000
B0612153207705S11658355EA0199902050000000000000
B0612193207705S11658284EA0199402044000000000000
B0612233207702S11658213EA0198702035000000000000
B0612273207694S11658141EA0197902026000000000000
B0612313207687S11658070EA0197102020000000000000
B0612353207677S11658001EA0196602013000000000000
B0612393207666S11657932EA0195802004000000000000
B0612433207650S11657863EA0194901994000000000000
B0612473207629S11657796EA0194001985000000000000
B0612513207605S11657729EA0193301979000000000000
B0612553207572S11657667EA0192801974000000000000
B0612593207537S11657610EA0192301970000000000000
B0613033207497S11657555EA0191701964000000000000
B0613073207459S11657499EA0191201959000000000000
B0613113207424S11657439EA0190601955000000000000
B0613153207395S11657376EA0190101949000000000000
B0613193207378S11657306EA0189701945000000000000
B0613233207373S11657231EA0189501941000000000000
B0613273207377S11657157EA0189001937000000000000
B0613313207386S11657082EA0188701933000000000000
B0613353207394S11657005EA0188401932000000000000
B0613393207397S11656930EA0188401932000000000000
B0613433207394S11656857EA0188401932000000000000
B0613473207390S11656784EA0188201930000000000000
B0613513207385S11656711EA0187901927000000000000
B0613553207378S11656639EA0187701926000000000000
B0613593207372S11656567EA0187701923000000000000
B0614033207364S11656493EA0187201918000000000000
B0614073207356S11656418EA0187101915000000000000
B0614113207347S11656342EA0186701914000000000000
B0614153207337S11656268EA0186701914000000000000
B0614193207326S11656197EA0186701912000000000000
B0614233207316S11656124EA0186301908000000000000
B0614273207303S11656052EA0185801901000000000000
B0614313207287S11655980EA0185101894000000000000
B0614353207269S11655907EA0184401887000000000000
B0614393207247S11655834EA0183901884000000000000
B0614433207213S11655770EA0183501880000000000000
B0614473207161S11655727EA0183101878000000000000
B0614513207099S11655718EA0182701873000000000000
B0614553207034S11655739EA0182401866000000000000
B0614593206968S11655766EA0181501861000000000000
B0615033206900S11655790EA0181201857000000000000
B0615073206832S11655816EA0181001856000000000000
B0615113206775S11655853EA0181301860000000000000
B0615153206722S11655902EA0180901850000000000000
B0615193206667S11655955EA0179601837000000000000
B0615233206609S11656015EA0178401828000000000000
B0615273206552S11656078EA0177901824000000000000
B0615313206502S11656149EA0177701826000000000000
B0615353206459S11656220EA0177801824000000000000
B0615393206415S11656290EA0177201816000000000000
B0615433206371S11656360EA0176701813000000000000
B0615473206332S11656433EA0176501811000000000000
B0615513206297S11656507EA0176001803000000000000
B0615553206260S11656584EA0175201796000000000000
B0615593206225S11656662EA0174801793000000000000
B0616033206195S11656744EA0174701793000000000000
B0616073206169S11656826EA0174401788000000000000
B0616113206146S11656906EA0174101787000000000000
B0616153206133S11656987EA0174101787000000000000
B0616193206128S11657068EA0173701780000000000000
B0616233206119S11657150EA0173101774000000000000
B0616273206124S11657228EA0173301778000000000000
B0616313206155S11657300EA0173001771000000000000
B0616353206199S11657372EA0171801759000000000000
B0616393206250S11657442EA0170701746000000000000
B0616433206303S11657512EA0169601736000000000000
B0616473206358S11657579EA0168701730000000000000
B0616513206410S11657644EA0168601732000000000000
B0616553206459S11657707EA0169501742000000000000
B0616593206514S11657748EA0170401748000000000000
B0617033206576S11657729EA0170001738000000000000
B0617073206613S11657663EA0169401742000000000000
B0617113206619S11657586EA0170101742000000000000
B0617153206591S11657511EA0169001726000000000000
B0617193206532S11657455EA0168401734000000000000
B0617233206463S11657443EA0170101753000000000000
B0617273206409S11657484EA0171201758000000000000
B0617313206388S11657558EA0171001753000000000000
B0617353206410S11657637EA0170401745000000000000
B0617393206467S11657685EA0170001746000000000000
B0617433206532S11657684EA0170401750000000015000
B0617473206580S11657633EA0170101745000000015000
B0617513206591S11657553EA0169101731000000015000
B0617553206567S11657476EA0169001746000000015000
B0617593206523S11657430EA0170901758000000015000
B0618033206463S11657419EA0171201753000000015000
B0618073206400S11657441EA0170501746000000000000
B0618113206350S11657502EA0169801736000000000000
B0618153206325S11657584EA0168901731000000000000
B0618193206323S11657672EA0168201723000000000000
B0618233206333S11657763EA0167201711000000000000
B0618273206349S11657854EA0166201702000000000000
B0618313206370S11657948EA0165401695000000000000
B0618353206392S11658041EA0165001692000000000000
B0618393206415S11658135EA0165101695000000000000
B0618433206439S11658226EA0165801704000000000000
B0618473206463S11658313EA0166301707000000000000
B0618513206489S11658398EA0166201705000000000000
B0618553206515S11658479EA0166101705000000000000
B0618593206539S11658563EA0165901701000000000000
B0619033206558S11658648EA0165101692000000000000
B0619073206578S11658738EA0164301683000000000000
B0619113206596S11658829EA0163901680000000000000
B0619153206644S11658901EA0163601676000000000000
B0619193206715S11658932EA0163601678000000000000
B0619233206783S11658918EA0163601677000000000000
B0619273206829S11658862EA0163401676000000000000
B0619313206842S11658788EA0163201674000000000000
B0619353206816S11658723EA0163301676000000000000
B0619393206762S11658687EA0163301672000000000000
B0619433206699S11658691EA0162601661000000000000
B0619473206639S11658738EA0161201642000000000000
B0619513206597S11658823EA0159101623000000000000
B0619553206582S11658925EA0157901617000000000000
B0619593206588S11659031EA0157201610000000000000
B0620033206611S11659131EA0156701606000000000000
B0620073206645S11659223EA0156501603000000000000
B0620113206691S11659305EA0155901596000000000000
B0620153206741S11659382EA0155301594000000000000
B0620193206793S11659456EA0155001591000000000000
B0620233206842S11659531EA0154701587000000000000
B0620273206882S11659613EA0154301580000000000000
B0620313206914S11659700EA0153301569000000000000
B0620353206939S11659795EA0152401560000000000000
B0620393206959S11659894EA0151701554000000000000
B0620433206975S11659991EA0151101548000000000000
B0620473206990S11700088EA0150501542000000000000
B0620513207007S11700181EA0149901534000000000000
B0620553207021S11700277EA0148901525000000000000
B0620593207033S11700375EA0148301517000000000000
B0621033207039S11700472EA0147601508000000000000
B0621073207050S11700572EA0146601499000000000000
B0621113207060S11700673EA0146001493000000000000
B0621153207073S11700773EA0144901480000000000000
B0621193207089S11700873EA0143601468000000000000
B0621233207102S11700975EA0142301454000000000000
B0621273207104S11701078EA0141301446000000000000
B0621313207105S11701178EA0140901442000000000000
B0621353207111S11701277EA0140401435000000000000
B0621393207121S11701377EA0139501424000000000000
B0621433207135S11701477EA0138301412000000000000
B0621473207150S11701577EA0137701411000000000000
B0621513207163S11701674EA0138101415000000000000
B0621553207172S11701768EA0138101411000000000000
B0621593207180S11701862EA0137201401000000000000
B0622033207183S11701956EA0136301394000000000000
B0622073207194S11702049EA0135801390000000000000
B0622113207207S11702138EA0136101395000000000000
B0622153207215S11702223EA0136401399000000000000
B0622193207213S11702308EA0137001404000000000000
B0622233207212S11702391EA0137101403000000000000
B0622273207208S11702472EA0137701413000000000000
B0622313207202S11702550EA0138101412000000000000
B0622353207213S11702628EA0137901410000000000000
B0622393207268S11702676EA0137601401000000000000
B0622433207330S11702647EA0136501389000000000000
B0622473207332S11702574EA0135601384000000000000
B0622513207276S11702538EA0134901378000000000000
B0622553207215S11702564EA0134501378000000000000
B0622593207172S11702630EA0134301369000000000000
B0623033207151S11702719EA0133001358000000000000
B0623073207148S11702814EA0132301354000000000000
B0623113207154S11702911EA0131501344000000000000
B0623153207168S11703009EA0131001338000000000000
B0623193207185S11703104EA0130301331000000000000
B0623233207199S11703197EA0130601341000000000000
B0623273207216S11703287EA0131101337000000000000
B0623313207241S11703373EA0131001341000000000000
B0623353207277S11703453EA0131101340000000000000
B0623393207317S11703535EA0130601333000000000000
B0623433207369S11703607EA0130201328000000000000
B0623473207443S11703618EA0129701321000000000000
B0623513207493S11703555EA0128301304000000000000
B0623553207501S11703464EA0126401287000000000000
B0623593207480S11703367EA0124801268000000000000
B0624033207446S11703269EA0123301254000000000000
B0624073207410S11703170EA0122501251000000000000
B0624113207373S11703072EA0122301248000000000000
B0624153207337S11702975EA0122001246000000000000
B0624193207299S11702879EA0121601243000000000000
B0624233207261S11702782EA0121401242000000000000
B0624273207233S11702685EA0121901247000000000000
B0624313207212S11702585EA0122101248000000000000
B0624353207182S11702491EA0121901247000000000000
B0624393207137S11702417EA0123101266000000000000
B0624433207074S11702428EA0125301289000000000000
B0624473207055S11702496EA0126301285000000000000
B0624513207102S11702552EA0125201271000000000000
B0624553207170S11702537EA0123601253000000000000
B0624593207208S11702461EA0121601237000000000000
B0625033207217S11702368EA0120501228000000000000
B0625073207212S11702269EA0119301212000000000000
B0625113207195S11702166EA0117801196000000000000
B0625153207176S11702060EA0115701175000000000000
B0625193207152S11701954EA0114601166000000000000
B0625233207129S11701852EA0113601156000000000000
B0625273207108S11701749EA0112801149000000000000
B0625313207087S11701648EA0111901137000000000000
B0625353207068S11701545EA0110901127000000000000
B0625393207048S11701442EA0109901115000000000000
B0625433207025S11701339EA0108501102000000000000
B0625473207008S11701235EA0107401091000000000000
B0625513206996S11701130EA0106401082000000000000
B0625553206983S11701027EA0105701076000000000000
B0625593206965S11700927EA0104801066000000000000
B0626033206951S11700826EA0103901057000000000000
B0626073206938S11700727EA0103301050000000000000
B0626113206927S11700628EA0102601041000000000000
B0626153206917S11700528EA0101601031000000000000
B0626193206913S11700429EA0100901026000000000000
B0626233206910S11700329EA0101301035000000000000
B0626273206910S11700234EA0102801052000000000000
B0626313206888S11700150EA0104601069000000000000
B0626353206819S11700133EA0106001084000000000000
B0626393206767S11700198EA0107101093000000000000
B0626433206784S11700286EA0108401110000000000000
B0626473206852S11700305EA0110401130000000000000
B0626513206878S11700242EA0112001146000000000000
B0626553206830S11700205EA0113301158000000000000
B0626593206780S11700251EA0115101179000000000000
B0627033206799S11700322EA0116601201000000000000
B0627073206855S11700338EA0118501216000000000000
B0627113206891S11700294EA0120101232000000000000
B0627153206875S11700241EA0120901235000000000000
B0627193206816S11700240EA0121001240000000000000
B0627233206782S11700309EA0122401259000000000000
B0627273206816S11700377EA0123801272000000000000
B0627313206879S11700380EA0125401287000000000000
B0627353206910S11700319EA0126301296000000000000
B0627393206883S11700260EA0127301306000000000000
B0627433206823S11700259EA0128101317000000000000
B0627473206784S11700320EA0129201328000000000000
B0627513206800S11700398EA0130201343000000000000
B0627553206858S11700401EA0131901354000000000000
B0627593206873S11700336EA0132801361000000015000
B0628033206826S11700292EA0133501372000000000000
B0628073206770S11700322EA0134901388000000000000
B0628113206760S11700396EA0136401401000000000000
B0628153206803S11700454EA0137201404000000000000
B0628193206868S11700449EA0137101405000000000000
B0628233206905S11700385EA0138001420000000015000
B0628273206894S11700314EA0138801425000000000000
B0628313206840S11700275EA0138901422000000000000
B0628353206778S11700294EA0138801423000000000000
B0628393206749S11700371EA0139001429000000000000
B0628433206767S11700457EA0140101438000000000000
B0628473206822S11700509EA0140901444000000000000
B0628513206888S11700491EA0140701436000000000000
B0628553206933S11700414EA0139701426000000000000
B0628593206952S11700316EA0138201409000000000000
B0629033206956S11700210EA0135701382000000000000
B0629073206953S11700098EA0133301361000000000000
B0629113206946S11659986EA0132401350000000000000
B0629153206934S11659876EA0131401341000000000000
B0629193206923S11659766EA0130701336000000000000
B0629233206913S11659659EA0129901324000000000000
B0629273206903S11659552EA0129001318000000000000
B0629313206892S11659449EA0128301310000000000000
B0629353206881S11659348EA0127501300000000000000
B0629393206870S11659249EA0126901297000000000000
B0629433206861S11659152EA0127001298000000000000
B0629473206851S11659057EA0127801310000000000000
B0629513206812S11658980EA0129301331000000000000
B0629553206741S11658981EA0131101346000000000000
B0629593206706S11659058EA0132001350000000000000
B0630033206730S11659141EA0131801347000000000000
B0630073206790S11659194EA0131701350000000000000
B0630113206855S11659194EA0132501359000000000000
B0630153206897S11659145EA0133001360000000000000
B0630193206897S11659071EA0132201346000000015000
B0630233206842S11659023EA0131401346000000000000
B0630273206770S11659036EA0131701352000000000000
B0630313206727S11659110EA0132201353000000000000
B0630353206743S11659201EA0132001350000000000000
B0630393206801S11659250EA0132201356000000000000
B0630433206866S11659230EA0132401352000000000000
B0630473206907S11659163EA0131801346000000015000
B0630513206920S11659087EA0131701347000000000000
B0630553206891S11659015EA0131201340000000000000
B0630593206834S11658960EA0129901324000000000000
B0631033206760S11658918EA0129201320000000000000
B0631073206682S11658876EA0129401323000000000000
B0631113206600S11658841EA0128601306000000000000
B0631153206511S11658811EA0126501285000000000000
B0631193206415S11658782EA0124901272000000000000
B0631233206318S11658765EA0125101286000000000000
B0631273206225S11658749EA0126401297000000000000
B0631313206140S11658710EA0127001299000000000000
B0631353206059S11658655EA0126801296000000000000
B0631393205987S11658589EA0126201289000000000000
B0631433205920S11658516EA0125401277000000000000
B0631473205846S11658443EA0123801260000000000000
B0631513205772S11658365EA0123401268000000000000
B0631553205722S11658279EA0125801297000000000000
B0631593205729S11658197EA0128801334000000000000
B0632033205776S11658153EA0131501354000000000000
B0632073205838S11658154EA0132301355000000000000
B0632113205887S11658204EA0132701364000000000000
B0632153205890S11658277EA0133201365000000000000
B0632193205850S11658338EA0132801359000000000000
B0632233205782S11658359EA0133001362000000000000
B0632273205711S11658355EA0133001363000000000000
B0632313205661S11658303EA0133701381000000000000
B0632353205674S11658234EA0135801408000000000000
B0632393205729S11658213EA0137901421000000000000
B0632433205776S11658256EA0139201434000000000000
B0632473205778S11658330EA0140101442000000000000
B0632513205734S11658379EA0140901448000000000000
B0632553205674S11658369EA0141301452000000000000
B0632593205664S11658304EA0142101465000000000000
B0633033205717S11658273EA0143801483000000000000
B0633073205759S11658322EA0145501501000000000000
B0633113205739S11658388EA0146701504000000015000
B0633153205678S11658392EA0146501506000000000000
B0633193205656S11658333EA0147901526000000000000
B0633233205695S11658290EA0149301546000000000000
B0633273205748S11658313EA0150701554000000000000
B0633313205757S11658382EA0151701564000000000000
B0633353205716S11658431EA0152401567000000000000
B0633393205660S11658418EA0152701573000000000000
B0633433205635S11658359EA0153701586000000000000
B0633473205662S11658300EA0154801595000000000000
B0633513205724S11658294EA0155601601000000000000
B0633553205783S11658335EA0155901602000000000000
B0633593205841S11658390EA0155801598000000000000
B0634033205903S11658455EA0154601580000000000000
B0634073205969S11658530EA0152701562000000000000
B0634113206038S11658612EA0151301549000000000000
B0634153206110S11658694EA0150801549000000000000
B0634193206182S11658772EA0150401540000000000000
B0634233206258S11658845EA0149401533000000000000
B0634273206335S11658912EA0149301535000000000000
B0634313206410S11658977EA0149601538000000000000
B0634353206485S11659040EA0150201547000000000000
B0634393206561S11659094EA0150401539000000000000
B0634433206640S11659145EA0149401536000000000000
B0634473206718S11659193EA0149801546000000000000
B0634513206793S11659240EA0150401551000000000000
B0634553206869S11659278EA0151801567000000000000
B0634593206927S11659240EA0153601585000000000000
B0635033206925S11659168EA0154901591000000000000
B0635073206864S11659136EA0155701605000000000000
B0635113206803S11659175EA0156901615000000000000
B0635153206782S11659256EA0157901625000000000000
B0635193206814S11659327EA0158901634000000000000
B0635233206875S11659334EA0159201632000000000000
B0635273206909S11659280EA0159101636000000000000
B0635313206886S11659217EA0159701641000000000000
B0635353206825S11659192EA0160201646000000000000
B0635393206769S11659240EA0160501647000000000000
B0635433206767S11659324EA0161201659000000000000
B0635473206821S11659369EA0161901663000000000000
B0635513206879S11659349EA0161901658000000000000
B0635553206916S11659285EA0161001647000000000000
B0635593206949S11659207EA0160001638000000000000
B0636033206991S11659127EA0159601635000000000000
B0636073207034S11659045EA0159301632000000000000
B0636113207079S11658967EA0158801629000000000000
B0636153207126S11658892EA0158501623000000000000
B0636193207178S11658817EA0157601613000000000000
B0636233207234S11658746EA0156701606000000000000
B0636273207291S11658677EA0156101600000000000000
B0636313207349S11658609EA0155801599000000000000
B0636353207407S11658548EA0155501596000000000000
B0636393207467S11658490EA0155301592000000000000
B0636433207524S11658433EA0155001589000000000000
B0636473207577S11658372EA0154701590000000000000
B0636513207631S11658310EA0154601585000000000000
B0636553207685S11658247EA0154201582000000000000
B0636593207735S11658179EA0154101583000000000000
B0637033207781S11658109EA0154301585000000000000
B0637073207809S11658031EA0154401585000000000000
B0637113207832S11657949EA0153901575000000000000
B0637153207858S11657866EA0152901569000000000000
B0637193207883S11657785EA0152701570000000000000
B0637233207913S11657710EA0152601567000000000000
B0637273207945S11657634EA0152101560000000000000
B0637313207982S11657554EA0151701558000000000000
B0637353208019S11657472EA0151801560000000000000
B0637393208051S11657390EA0152501568000000000000
B0637433208057S11657306EA0153301576000000000000
B0637473208023S11657233EA0153501575000000000000
B0637513207954S11657196EA0152901566000000000000
B0637553207876S11657212EA0152401568000000000000
B0637593207817S11657268EA0153301581000000000000
B0638033207796S11657345EA0155001602000000000000
B0638073207823S11657407EA0156801614000000000000
B0638113207878S11657415EA0157501619000000000000
B0638153207913S11657368EA0158401628000000000000
B0638193207889S11657307EA0158501627000000000000
B0638233207823S11657290EA0158401634000000000000
B0638273207775S11657338EA0160001654000000000000
B0638313207780S11657403EA0161401661000000000000
B0638353207827S11657437EA0161601660000000000000
B0638393207879S11657413EA0162101669000000000000
B0638433207896S11657354EA0162701674000000000000
B0638473207870S11657291EA0163001675000000000000
B0638513207809S11657264EA0162901674000000000000
B0638553207745S11657294EA0163101682000000000000
B0638593207714S11657363EA0164401696000000000000
B0639033207720S11657436EA0165601705000000000000
B0639073207761S11657484EA0166001705000000000000
B0639113207817S11657484EA0166201714000000000000
B0639153207853S11657437EA0166901716000000000000
B0639193207849S11657368EA0167001718000000000000
B0639233207801S11657315EA0167001717000000000000
B0639273207728S11657311EA0167001721000000000000
B0639313207675S11657367EA0168101734000000000000
B0639353207666S11657445EA0169301744000000000000
B0639393207697S11657507EA0169701745000000000000
B0639433207755S11657528EA0169301739000000000000
B0639473207811S11657491EA0169301743000000000000
B0639513207824S11657417EA0169801747000000015000
B0639553207780S11657352EA0169801743000000000000
B0639593207705S11657343EA0169501743000000000000
B0640033207645S11657400EA0170401758000000000000
B0640073207618S11657482EA0171401764000000000000
B0640113207637S11657563EA0171401758000000000000
B0640153207696S11657614EA0170601750000000000000
B0640193207767S11657614EA0170101745000000000000
B0640233207822S11657562EA0170201751000000000000
B0640273207833S11657485EA0171101760000000015000
B0640313207784S11657429EA0171801766000000000000
B0640353207713S11657430EA0172101772000000000000
B0640393207661S11657481EA0172501772000000000000
B0640433207651S11657559EA0172001764000000000000
B0640473207685S11657627EA0172001769000000000000
B0640513207739S11657659EA0172301768000000000000
B0640553207797S11657651EA0172001766000000000000
B0640593207844S11657611EA0172101767000000000000
B0641033207876S11657550EA0172301772000000000000
B0641073207891S11657477EA0172501773000000000000
B0641113207891S11657397EA0172301768000000000000
B0641153207880S11657312EA0171401756000000000000
B0641193207865S11657222EA0170101742000000000000
B0641233207849S11657127EA0168801730000000000000
B0641273207830S11657034EA0167801724000000000000
B0641313207806S11656940EA0167401719000000000000
B0641353207787S11656844EA0166801712000000000000
B0641393207772S11656745EA0166101704000000000000
B0641433207758S11656644EA0165001687000000000000
B0641473207737S11656539EA0163801679000000000000
B0641513207716S11656433EA0162701666000000000000
B0641553207701S11656325EA0161501655000000000000
B0641593207683S11656220EA0160501644000000000000
B0642033207662S11656117EA0159901641000000000000
B0642073207648S11656017EA0160001642000000000000
B0642113207633S11655921EA0159301633000000000000
B0642153207618S11655824EA0158501623000000000000
B0642193207601S11655725EA0157701616000000000000
B0642233207583S11655627EA0156901609000000000000
B0642273207562S11655531EA0156501608000000000000
B0642313207544S11655435EA0156101600000000000000
B0642353207527S11655336EA0155101587000000000000
B0642393207507S11655235EA0154001579000000000000
B0642433207485S11655135EA0153301574000000000000
B0642473207460S11655036EA0152701563000000000000
B0642513207432S11654938EA0151901555000000000000
B0642553207403S11654841EA0151401553000000000000
B0642593207372S11654746EA0150901548000000000000
B0643033207342S11654651EA0150201541000000000000
B0643073207310S11654560EA0150001541000000000000
B0643113207277S11654470EA0149701534000000000000
B0643153207248S11654378EA0149601536000000000000
B0643193207221S11654284EA0148801523000000000000
B0643233207189S11654184EA0147901513000000000000
B0643273207151S11654088EA0146901504000000000000
B0643313207104S11653997EA0146201498000000000000
B0643353207059S11653906EA0146001500000000000000
B0643393207017S11653822EA0146401502000000000000
B0643433206978S11653736EA0146101498000000000000
B0643473206946S11653650EA0145701494000000000000
B0643513206916S11653565EA0145301489000000000000
B0643553206886S11653480EA0144701482000000000000
B0643593206860S11653393EA0144201475000000000000
B0644033206834S11653307EA0143801474000000000000
B0644073206800S11653226EA0143901474000000000000
B0644113206766S11653148EA0143601469000000000000
B0644153206741S11653068EA0142801462000000000000
B0644193206719S11652986EA0141701448000000000000
B0644233206695S11652901EA0140101433000000000000
B0644273206670S11652813EA0139101419000000000000
B0644313206645S11652724EA0137901411000000000000
B0644353206618S11652642EA0137701410000000000000
B0644393206592S11652563EA0136801396000000000000
B0644433206569S11652480EA0135001371000000000000
B0644473206558S11652384EA0132601352000000000000
B0644513206565S11652286EA0131501345000000000000
B0644553206580S11652194EA0131301345000000000000
B0644593206608S11652111EA0131201343000000000000
B0645033206647S11652043EA0131601340000000000000
B0645073206695S11651983EA0130701329000000000000
B0645113206741S11651926EA0129601322000000000000
B0645153206790S11651870EA0128901316000000000000
B0645193206838S11651812EA0128201308000000000000
B0645233206874S11651744EA0127501304000000000000
B0645273206881S11651667EA0127301302000000000000
B0645313206877S11651591EA0127001300000000000000
B0645353206865S11651515EA0127301307000000000000
B0645393206851S11651441EA0127501305000000000000
B0645433206835S11651367EA0127201299000000000000
B0645473206822S11651294EA0126701297000000000000
B0645513206809S11651224EA0126501293000000000000
B0645553206784S11651158EA0126301289000000000000
B0645593206731S11651118EA0125601283000000000000
B0646033206663S11651125EA0124801274000000000000
B0646073206606S11651177EA0123901262000000000000
B0646113206575S11651261EA0122901257000000000000
B0646153206567S11651350EA0122901261000000000000
B0646193206575S11651437EA0123501268000000000000
B0646233206602S11651513EA0124501278000000000000
B0646273206662S11651534EA0125301283000000000000
B0646313206701S11651484EA0125801288000000000000
B0646353206678S11651418EA0125901289000000000000
B0646393206617S11651406EA0126301295000000000000
B0646433206575S11651457EA0126701300000000000000
B0646473206570S11651528EA0127101303000000000000
B0646513206608S11651582EA0127201300000000000000
B0646553206667S11651575EA0126901298000000000000
B0646593206692S11651509EA0126601296000000000000
B0647033206656S11651440EA0126401298000000000000
B0647073206592S11651423EA0127101306000000000000
B0647113206537S11651458EA0127601311000000000000
B0647153206517S11651527EA0128701324000000000000
B0647193206546S11651584EA0129601329000000000000
B0647233206600S11651584EA0129501322000000000000
B0647273206626S11651524EA0128801315000000000000
B0647313206596S11651457EA0128101311000000000000
B0647353206536S11651418EA0127801307000000000000
B0647393206467S11651422EA0128001317000000000000
B0647433206415S11651474EA0128601318000000000000
B0647473206400S11651550EA0129101325000000000000
B0647513206446S11651595EA0129701327000000000000
B0647553206501S11651563EA0129801331000000000000
B0647593206485S11651498EA0131201350000000000000
B0648033206426S11651496EA0132901367000000000000
B0648073206398S11651557EA0133601368000000000000
B0648113206427S11651615EA0133901371000000000000
B0648153206483S11651615EA0134201375000000000000
B0648193206505S11651556EA0134801383000000000000
B0648233206453S11651530EA0135401384000000000000
B0648273206422S11651597EA0135701392000000000000
B0648313206458S11651651EA0136501400000000000000
B0648353206511S11651640EA0136901402000000000000
B0648393206528S11651584EA0137601412000000000000
B0648433206494S11651536EA0137601406000000000000
B0648473206436S11651540EA0137801417000000000000
B0648513206409S11651599EA0138601418000000000000
B0648553206426S11651669EA0138401421000000000000
B0648593206446S11651739EA0138901424000000000000
B0649033206471S11651813EA0138401416000000000000
B0649073206500S11651891EA0137501408000000000000
B0649113206522S11651976EA0137501413000000000000
B0649153206541S11652061EA0137701413000000000000
B0649193206562S11652148EA0137901416000000000000
B0649233206587S11652230EA0138101417000000000000
B0649273206622S11652304EA0137901414000000000000
B0649313206653S11652381EA0137201404000000000000
B0649353206678S11652466EA0136201394000000000000
B0649393206696S11652553EA0135501386000000000000
B0649433206715S11652640EA0134701379000000000000
B0649473206736S11652726EA0134201372000000000000
B0649513206762S11652813EA0133201363000000000000
B0649553206795S11652897EA0132401356000000000000
B0649593206831S11652979EA0131701348000000000000
B0650033206869S11653064EA0130301333000000000000
B0650073206901S11653153EA0129101321000000000000
B0650113206935S11653246EA0127401300000000000000
B0650153206970S11653344EA0126001288000000000000
B0650193207003S11653448EA0125401280000000000000
B0650233207037S11653555EA0124201264000000000000
B0650273207078S11653663EA0122901256000000000000
B0650313207121S11653771EA0121701239000000000000
B0650353207160S11653887EA0119101209000000000000
B0650393207198S11654013EA0116601186000000000000
B0650433207238S11654141EA0116701201000000000000
B0650473207286S11654240EA0121201255000000000000
B0650513207351S11654254EA0125501287000000000000
B0650553207360S11654192EA0126801294000000000000
B0650593207298S11654189EA0127101299000000000000
B0651033207291S11654264EA0128001309000000000000
B0651073207346S11654266EA0128801319000000000000
B0651113207349S11654208EA0129301319000000000000
B0651153207290S11654199EA0129601330000000000000
B0651193207263S11654262EA0130501335000000000000
B0651233207276S11654340EA0130101333000000000000
B0651273207307S11654416EA0130001332000000000000
B0651313207347S11654494EA0129401321000000000000
B0651353207391S11654574EA0128001305000000000000
B0651393207438S11654660EA0126701292000000000000
B0651433207493S11654745EA0126101292000000000000
B0651473207544S11654828EA0126801300000000000000
B0651513207588S11654907EA0127201304000000000000
B0651553207631S11654984EA0126301290000000000000
B0651593207674S11655067EA0125001278000000000000
B0652033207707S11655155EA0124201270000000000000
B0652073207737S11655246EA0123501263000000000000
B0652113207766S11655335EA0123001258000000000000
B0652153207800S11655419EA0122501252000000000000
B0652193207837S11655500EA0121701244000000000000
B0652233207878S11655574EA0121401244000000000000
B0652273207915S11655644EA0121101238000000000000
B0652313207945S11655722EA0120401232000000000000
B0652353207971S11655800EA0119701224000000000000
B0652393207999S11655879EA0119001215000000000000
B0652433208034S11655948EA0119101223000000000000
B0652473208077S11656008EA0119601226000000000000
B0652513208125S11656061EA0119101215000000000000
B0652553208175S11656119EA0117801200000000000000
B0652593208218S11656191EA0116701192000000000000
B0653033208243S11656272EA0116401191000000000000
B0653073208265S11656353EA0115601180000000000000
B0653113208298S11656431EA0114601172000000000000
B0653153208340S11656503EA0114101168000000000000
B0653193208376S11656580EA0113901163000000000000
B0653233208395S11656665EA0113201155000000000000
B0653273208411S11656752EA0112601149000000000000
B0653313208433S11656838EA0111901143000000000000
B0653353208460S11656925EA0111401137000000000000
B0653393208489S11657010EA0110601127000000000000
B0653433208524S11657094EA0110201130000000000000
B0653473208564S11657163EA0110801132000000000000
B0653513208625S11657196EA0110501127000000000000
B0653553208697S11657200EA0109601116000000000000
B0653593208771S11657198EA0108801109000000000000
B0654033208842S11657217EA0108601109000000000000
B0654073208898S11657268EA0108701108000000000000
B0654113208931S11657343EA0108301101000000000000
B0654153208940S11657430EA0107801097000000000000
B0654193208928S11657519EA0107401093000000000000
B0654233208902S11657605EA0107201093000000000000
B0654273208862S11657684EA0106901087000000000000
B0654313208811S11657758EA0105801076000000000000
B0654353208755S11657827EA0105101072000000000000
B0654393208698S11657898EA0104701067000000000000
B0654433208641S11657972EA0104901075000000000000
B0654473208593S11658050EA0106201089000000000000
B0654513208600S11658132EA0107801104000000000000
B0654553208655S11658152EA0108501101000000000000
B0654593208690S11658097EA0107301088000000000000
B0655033208681S11658022EA0107201097000000000000
B0655073208633S11657980EA0108901122000000000000
B0655113208590S11658031EA0110601132000000000000
B0655153208613S11658099EA0111301138000000000000
B0655193208664S11658099EA0111701142000000000000
B0655233208675S11658044EA0112401150000000000000
B0655273208629S11658010EA0113001156000000000000
B0655313208571S11658037EA0113501160000000000000
B0655353208538S11658108EA0113801164000000000000
B0655393208561S11658174EA0114301172000000000000
B0655433208616S11658196EA0114601171000000000000
B0655473208665S11658171EA0114601171000000000000
B0655513208685S11658113EA0114801177000000000000
B0655553208662S11658052EA0115301180000000000000
B0655593208604S11658030EA0115501182000000000000
B0656033208538S11658057EA0115401181000000000000
B0656073208477S11658112EA0115601184000000000000
B0656113208415S11658169EA0115701183000000000000
B0656153208350S11658239EA0115101180000000000000
B0656193208286S11658313EA0115201180000000000000
B0656233208218S11658390EA0114601173000000000000
B0656273208152S11658461EA0115801199000000000000
B0656313208113S11658539EA0118601221000000000000
B0656353208144S11658619EA0119901225000000000000
B0656393208216S11658634EA0120401235000000000000
B0656433208255S11658578EA0121901252000000000000
B0656473208242S11658507EA0122601255000000000000
B0656513208184S11658465EA0122701256000000000000
B0656553208109S11658469EA0122301251000000000000
B0656593208031S11658507EA0121901248000000000000
B0657033207956S11658567EA0121701247000000000000
B0657073207883S11658637EA0120801234000000000000
B0657113207811S11658713EA0120401237000000000000
B0657153207746S11658790EA0120701236000000000000
B0657193207685S11658871EA0120401234000000000000
B0657233207625S11658950EA0119901229000000000000
B0657273207562S11659025EA0119901232000000000000
