ACAM4N6
HFDTE240716
HFFXA050
HFPLTPILOT:JOHN WELSH              
HFGTYGLIDERTYPE:HORNET      
HFGIDGLIDERID:VH-GMY      
HFDTM100GPSDATUM:
HFRFWFIRMWAREVERSION:F2.6
HFRHWHARDWAREVERSION:300 Series Version 2
HFFTYFRTYPE:CAMBRIDGE AERO INSTRUMENTS, 302+
HFGPS:GARMIN,LVS-25,12,18000
HFPRSPRESSALTSENSOR:INTERSEMA, MS5534-AP, 20000
I033638FXA3941ENL4247REX
LCAMSBVER:5FWVER:F26300
C291115033441291115000102
C0000000N00000000WTAKEOFF     
C3207550S11656850EBeverley Air
C3301433S11652383EWilliams    
C3152972S11809470EBruce Rock  
C3207550S11656850EBeverley Air
C0000000N00000000WLANDING     
B0621153207338S11656857EA0011100202000004000000
B0621173207338S11656857EA0011200202000004000000
B0621193207338S11656857EA0011200202000004000000
B0621213207338S11656857EA0011100202000004000000
B0621233207338S11656857EA0011100202000004000000
B0621253207338S11656857EA0011100202000004000000
B0621273207338S11656857EA0011100202000004000000
B0621293207338S11656857EA0011100202000004000000
B0621313207338S11656857EA0011100202000004000000
B0621333207338S11656857EA0011200202000004000000
B0621353207338S11656857EA0011200202000004000000
B0621373207338S11656857EA0011200202000004000000
B0621393207338S11656857EA0011200202000004000000
B0621413207338S11656857EA0011100202000004000000
B0621433207339S11656858EA0011100203000004000000
B0621463207347S11656866EA0011100203000004000000
B0621503207373S11656888EA0010900202000004000000
B0621543207417S11656918EA0011100202000004000000
B0621583207477S11656955EA0011100203000004000000
B0622023207542S11656994EA0011500211000004000000
B0622063207602S11657030EA0013500233000004000000
B0622103207658S11657061EA0016200259000004000000
B0622143207715S11657090EA0018600283000004000000
B0622183207774S11657121EA0020600302000004000000
B0622223207831S11657156EA0022700324000004000000
B0622263207891S11657183EA0025100347000004000000
B0622303207950S11657207EA0027500373000004000000
B0622343208010S11657235EA0029700394000004000000
B0622383208062S11657281EA0032400422000004000000
B0622423208099S11657343EA0035100448000004000000
B0622463208119S11657416EA0036900470000004000000
B0622503208136S11657485EA0039900495000004000000
B0622543208148S11657553EA0041600519000004000000
B0622583208153S11657620EA0044300541000004000000
B0623023208160S11657692EA0046200561000004000000
B0623063208164S11657764EA0048400581000004000000
B0623103208164S11657839EA0050600602000004000000
B0623143208164S11657913EA0052600622000004000000
B0623183208162S11657988EA0054300639000004000000
B0623223208157S11658061EA0056100659000004000000
B0623263208151S11658135EA0057600670000004000000
B0623303208142S11658210EA0059200686000004000000
B0623343208132S11658287EA0060600701000004000000
B0623383208132S11658362EA0062000716000004000000
B0623423208138S11658438EA0063500730000004000000
B0623463208140S11658512EA0065200748000004000000
B0623503208139S11658590EA0066600759000004000000
B0623543208134S11658667EA0068000775000004000000
B0623583208131S11658741EA0069800793000004000000
B0624023208127S11658814EA0071300805000004000000
B0624063208122S11658884EA0073100824000004000000
B0624103208125S11658946EA0073300820000004000000
B0624143208130S11659007EA0072600816000004000000
B0624183208112S11659068EA0072300809000004000000
B0624223208073S11659114EA0071800806000004000000
B0624263208025S11659144EA0072000809000004000000
B0624303207974S11659170EA0072500813000004000000
B0624343207939S11659217EA0072900816000004000000
B0624383207948S11659275EA0073400820000004000000
B0624423207996S11659289EA0073400820000004000000
B0624463208031S11659248EA0073300821000004000000
B0624503208021S11659188EA0073600827000004000000
B0624543207974S11659178EA0074500833000004000000
B0624583207945S11659228EA0074600830000004000000
B0625023207978S11659276EA0074200832000004000000
B0625063208027S11659256EA0074700835000004000000
B0625103208025S11659194EA0075100840000004000000
B0625143207974S11659181EA0075500845000004000000
B0625183207939S11659230EA0076300854000004000000
B0625223207954S11659285EA0076700856000004000000
B0625263208005S11659288EA0076600853000004000000
B0625303208019S11659227EA0076400853000004000000
B0625343207978S11659189EA0077500866000004000000
B0625383207930S11659206EA0078200868000004000000
B0625423207910S11659261EA0078000867000004000000
B0625463207939S11659311EA0078200870000004000000
B0625503207987S11659311EA0078400870000004000000
B0625543208006S11659259EA0077700862000004000000
B0625583207986S11659193EA0077200859000004000000
B0626023207937S11659159EA0077800866000004000000
B0626063207895S11659201EA0077400858000004000000
B0626103207906S11659271EA0076400853000004000000
B0626143207961S11659298EA0076700856000004000000
B0626183208013S11659265EA0076700857000004000000
B0626223208031S11659197EA0076900858000004000000
B0626263208004S11659135EA0077200861000004000000
B0626303207950S11659141EA0077400859000004000000
B0626343207940S11659207EA0076900855000004000000
B0626383207984S11659245EA0077700864000004000000
B0626423208031S11659220EA0078400868000004000000
B0626463208036S11659163EA0078500870000004000000
B0626503207999S11659123EA0078600870000004000000
B0626543207950S11659131EA0078500869000004000000
B0626583207927S11659181EA0078100863000004000000
B0627023207936S11659246EA0077800862000004000000
B0627063207971S11659297EA0078000867000004000000
B0627103208022S11659308EA0078500872000004000000
B0627143208060S11659270EA0078800874000004000000
B0627183208048S11659213EA0079000877000004000000
B0627223207999S11659197EA0079200879000004000000
B0627263207963S11659245EA0079500880000004000000
B0627303207976S11659310EA0080000886000004000000
B0627343208026S11659335EA0080400891000004000000
B0627383208070S11659305EA0080800896000004000000
B0627423208079S11659245EA0081300898000004000000
B0627463208048S11659193EA0081600902000004000000
B0627503207996S11659175EA0082000906000004000000
B0627543207943S11659202EA0082100908000004000000
B0627583207921S11659267EA0082600913000004000000
B0628023207943S11659328EA0083000918000004000000
B0628063207993S11659354EA0083300919000004000000
B0628103208044S11659328EA0083400922000004000000
B0628143208053S11659266EA0083700925000004000000
B0628183208012S11659223EA0084200932000004000000
B0628223207958S11659245EA0084900935000004000000
B0628263207941S11659310EA0085200941000004000000
B0628303207970S11659366EA0086000947000004000000
B0628343208025S11659376EA0086300950000004000000
B0628383208066S11659336EA0086700955000004000000
B0628423208062S11659269EA0087200958000004000000
B0628463208015S11659224EA0087600966000004000000
B0628503207957S11659233EA0088300971000004000000
B0628543207923S11659289EA0089000979000004000000
B0628583207935S11659354EA0089600981000004000000
B0629023207986S11659380EA0089700984000004000000
B0629063208038S11659357EA0090200989000004000000
B0629103208057S11659298EA0091000998000004000000
B0629143208032S11659243EA0091801003000004000000
B0629183207978S11659231EA0092201010000004000000
B0629223207932S11659269EA0092401010000004000000
B0629263207923S11659335EA0092801016000004000000
B0629303207953S11659387EA0093201017000004000000
B0629343208008S11659406EA0093201019000004000000
B0629383208057S11659387EA0094001026000004000000
B0629423208078S11659336EA0094601030000004000000
B0629463208056S11659279EA0094601028000004000000
B0629503208004S11659258EA0094801032000004000000
B0629543207953S11659292EA0095101034000004000000
B0629583207937S11659357EA0095301039000004000000
B0630023207965S11659415EA0095501038000004000000
B0630063208021S11659431EA0095501038000004000000
B0630103208065S11659388EA0095501036000004000000
B0630143208077S11659314EA0094501025000004000000
B0630183208071S11659232EA0093801023000004000000
B0630223208064S11659150EA0093901022000004000000
B0630263208057S11659067EA0093701021000004000000
B0630303208049S11658984EA0093901025000004000000
B0630343208039S11658905EA0094401028000004000000
B0630383208032S11658827EA0094501027000004000000
B0630423208028S11658749EA0094201023000004000000
B0630463208034S11658671EA0093601019000004000000
B0630503208043S11658594EA0093401017000004000000
B0630543208056S11658518EA0093101013000004000000
B0630583208073S11658446EA0092601005000004000000
B0631023208087S11658374EA0092101001000004000000
B0631063208101S11658300EA0091800998000004000000
B0631103208109S11658226EA0091500994000004000000
B0631143208108S11658152EA0091200993000004000000
B0631183208100S11658079EA0091200994000004000000
B0631223208086S11658009EA0091400997000004000000
B0631263208064S11657941EA0091300992000004000000
B0631303208031S11657878EA0090800988000004000000
B0631343207992S11657814EA0091000992000004000000
B0631383207953S11657754EA0091600998000004000000
B0631423207898S11657725EA0092101005000004000000
B0631463207846S11657757EA0092501008000004000000
B0631503207837S11657824EA0092101002000004000000
B0631543207872S11657872EA0091400993000004000000
B0631583207924S11657876EA0090300982000004000000
B0632023207961S11657832EA0089500976000004000000
B0632063207973S11657766EA0089100975000004000000
B0632103207971S11657697EA0088900969000004000000
B0632143207957S11657625EA0088300962000004000000
B0632183207928S11657555EA0087800964000004000000
B0632223207893S11657491EA0088700972000004000000
B0632263207836S11657468EA0089500981000004000000
B0632303207788S11657512EA0089900984000004000000
B0632343207789S11657582EA0089700981000004000000
B0632383207833S11657624EA0089500976000004000000
B0632423207888S11657614EA0089000973000004000000
B0632463207926S11657562EA0088800975000004000000
B0632503207940S11657498EA0089200981000004000000
B0632543207926S11657433EA0089800985000004000000
B0632583207874S11657411EA0090200990000004000000
B0633023207837S11657458EA0090500992000004000000
B0633063207858S11657514EA0090400991000004000000
B0633103207909S11657517EA0090800995000004000000
B0633143207934S11657471EA0091301001000004000000
B0633183207910S11657419EA0091601003000004000000
B0633223207859S11657412EA0091801005000004000000
B0633263207828S11657460EA0092001004000004000000
B0633303207850S11657515EA0091601003000004000000
B0633343207897S11657514EA0092001008000004000000
B0633383207915S11657465EA0092601014000004000000
B0633423207889S11657417EA0092901013000004000000
B0633463207839S11657413EA0093101017000004000000
B0633503207809S11657460EA0093101016000004000000
B0633543207824S11657517EA0092601011000004000000
B0633583207867S11657555EA0092701014000004000000
B0634023207918S11657555EA0092901015000004000000
B0634063207945S11657507EA0093001018000004000000
B0634103207924S11657447EA0093301021000004000000
B0634143207871S11657426EA0093701023000004000000
B0634183207820S11657456EA0093601024000004000000
B0634223207800S11657519EA0093501023000004000000
B0634263207818S11657582EA0093501022000004000000
B0634303207863S11657624EA0093701027000004000000
B0634343207915S11657627EA0094301029000004000000
B0634383207954S11657588EA0093901025000004000000
B0634423207962S11657519EA0094001029000004000000
B0634463207943S11657454EA0094801036000004000000
B0634503207892S11657424EA0095101039000004000000
B0634543207839S11657450EA0094901036000004000000
B0634583207820S11657516EA0094901037000004000000
B0635023207845S11657579EA0095101038000004000000
B0635063207897S11657603EA0095401042000004000000
B0635103207948S11657584EA0095701045000004000000
B0635143207978S11657532EA0096301050000004000000
B0635183207971S11657468EA0096501050000004000000
B0635223207924S11657428EA0096501054000004000000
B0635263207866S11657437EA0096801055000004000000
B0635303207831S11657493EA0096501051000004000000
B0635343207840S11657566EA0096301052000004000000
B0635383207884S11657614EA0096501053000004000000
B0635423207943S11657631EA0096701055000004000000
B0635463207997S11657608EA0097201060000004000000
B0635503208028S11657550EA0097301061000004000000
B0635543208034S11657478EA0098301073000004000000
B0635583207988S11657443EA0099501081000004000000
B0636023207944S11657485EA0099901082000004000000
B0636063207956S11657551EA0099601078000004000000
B0636103208010S11657584EA0099001072000004000000
B0636143208070S11657555EA0098901076000004000000
B0636183208092S11657484EA0099601076000004000000
B0636223208069S11657400EA0098501061000004000000
B0636263208022S11657317EA0097101052000004000000
B0636303207973S11657239EA0097001049000004000000
B0636343207922S11657164EA0096301040000004000000
B0636383207865S11657095EA0095501035000004000000
B0636423207807S11657027EA0094601025000004000000
B0636463207746S11656965EA0094201022000004000000
B0636503207684S11656903EA0094001019000004000000
B0636543207624S11656840EA0093701016000004000000
B0636583207568S11656776EA0093201013000004000000
B0637023207514S11656713EA0093201015000004000000
B0637063207462S11656653EA0093101011000004000000
B0637103207407S11656597EA0092501006000004000000
B0637143207351S11656542EA0091800999000004000000
B0637183207295S11656485EA0091500995000004000000
B0637223207247S11656424EA0091300994000004000000
B0637263207207S11656359EA0091300994000004000000
B0637303207165S11656298EA0091400997000004000000
B0637343207122S11656243EA0091801001000004000000
B0637383207078S11656194EA0092101003000004000000
B0637423207030S11656156EA0092301003000004000000
B0637463206972S11656163EA0092501008000004000000
B0637503206934S11656221EA0093001011000004000000
B0637543206936S11656293EA0092401006000004000000
B0637583206978S11656340EA0092101002000004000000
B0638023207031S11656336EA0091500993000004000000
B0638063207065S11656285EA0090600985000004000000
B0638103207063S11656214EA0089900982000004000000
B0638143207040S11656150EA0089700982000004000000
B0638183207008S11656095EA0089600978000004000000
B0638223206969S11656043EA0089300973000004000000
B0638263206925S11655995EA0089000974000004000000
B0638303206877S11655957EA0089700981000004000000
B0638343206819S11655963EA0090100988000004000000
B0638383206791S11656024EA0090700993000004000000
B0638423206826S11656074EA0091601002000004000000
B0638463206871S11656054EA0092301009000004000000
B0638503206874S11655996EA0092901014000004000000
B0638543206826S11655967EA0093201018000004000000
B0638583206773S11656002EA0093601021000004000000
B0639023206769S11656068EA0094401031000004000000
B0639063206812S11656104EA0095001035000004000000
B0639103206857S11656081EA0095301038000004000000
B0639143206852S11656022EA0096001046000004000000
B0639183206801S11656003EA0096701050000004000000
B0639223206760S11656051EA0097001056000004000000
B0639263206780S11656110EA0097501060000004000000
B0639303206832S11656110EA0098001067000004000000
B0639343206855S11656060EA0099001077000004000000
B0639383206829S11656015EA0099801083000004000000
B0639423206774S11656020EA0100301087000004000000
B0639463206749S11656078EA0100701091000004000000
B0639503206788S11656121EA0100501089000004000000
B0639543206835S11656090EA0100801097000004000000
B0639583206829S11656034EA0102001108000004000000
B0640023206780S11656009EA0102901115000004000000
B0640063206719S11656024EA0102801108000004000000
B0640103206656S11656050EA0102401107000004000000
B0640143206595S11656078EA0102201105000004000000
B0640183206533S11656107EA0101801100000004000000
B0640223206471S11656133EA0101401094000004000000
B0640263206407S11656164EA0100601085000004000000
B0640303206344S11656207EA0099501073000004000000
B0640343206289S11656264EA0098601065000004000000
B0640383206244S11656333EA0098101056000004000000
B0640423206218S11656412EA0096801044000004000000
B0640463206224S11656501EA0095701035000004000000
B0640503206262S11656576EA0095301034000004000000
B0640543206316S11656628EA0095001032000004000000
B0640583206379S11656654EA0094701028000004000000
B0641023206445S11656649EA0094101022000004000000
B0641063206510S11656627EA0093101013000004000000
B0641103206579S11656609EA0092101001000004000000
B0641143206652S11656610EA0091200993000004000000
B0641183206721S11656630EA0090900991000004000000
B0641223206783S11656665EA0090700990000004000000
B0641263206838S11656709EA0090500986000004000000
B0641303206887S11656761EA0089900981000004000000
B0641343206934S11656818EA0089500976000004000000
B0641383206979S11656874EA0089200975000004000000
B0641423207024S11656929EA0089100974000004000000
B0641463207068S11656984EA0089000971000004000000
B0641503207111S11657039EA0088600967000004000000
B0641543207156S11657092EA0088400964000004000000
B0641583207204S11657142EA0087900960000004000000
B0642023207251S11657194EA0087600959000004000000
B0642063207297S11657247EA0087600958000004000000
B0642103207341S11657298EA0087500956000004000000
B0642143207385S11657348EA0087200953000004000000
B0642183207432S11657397EA0087000950000004000000
B0642223207479S11657442EA0087100952000004000000
B0642263207527S11657484EA0087200954000004000000
B0642303207577S11657516EA0087400955000004000000
B0642343207633S11657533EA0087800957000004000000
B0642383207681S11657499EA0087800958000004000000
B0642423207684S11657430EA0088000960000004000000
B0642463207636S11657385EA0088200960000004000000
B0642503207575S11657394EA0088000958000004000000
B0642543207536S11657454EA0087600955000004000000
B0642583207540S11657528EA0087400954000004000000
B0643023207581S11657586EA0087400955000004000000
B0643063207635S11657624EA0087600959000004000000
B0643103207694S11657642EA0088200965000004000000
B0643143207745S11657612EA0089100976000004000000
B0643183207735S11657550EA0090100983000004000000
B0643223207681S11657532EA0090200982000004000000
B0643263207638S11657582EA0089700979000004000000
B0643303207640S11657657EA0089900985000004000000
B0643343207680S11657710EA0090200987000004000000
B0643383207740S11657719EA0090200983000004000000
B0643423207791S11657675EA0090000987000004000000
B0643463207796S11657602EA0091000996000004000000
B0643503207746S11657571EA0092401010000004000000
B0643543207702S11657610EA0093001013000004000000
B0643583207700S11657683EA0092901012000004000000
B0644023207739S11657744EA0092901011000004000000
B0644063207802S11657763EA0092701012000004000000
B0644103207862S11657736EA0093201015000004000000
B0644143207906S11657675EA0092901013000004000000
B0644183207945S11657603EA0092601007000004000000
B0644223207984S11657529EA0091901002000004000000
B0644263208023S11657454EA0092001004000004000000
B0644303208058S11657378EA0092501011000004000000
B0644343208096S11657307EA0092701011000004000000
B0644383208138S11657239EA0092801011000004000000
B0644423208181S11657177EA0092501006000004000000
B0644463208220S11657112EA0092501011000004000000
B0644503208255S11657046EA0093201015000004000000
B0644543208290S11656979EA0093501016000004000000
B0644583208327S11656918EA0093201012000004000000
B0645023208377S11656866EA0092901009000004000000
B0645063208439S11656836EA0092801009000004000000
B0645103208508S11656828EA0092701005000004000000
B0645143208576S11656847EA0092601006000004000000
B0645183208636S11656887EA0092801009000004000000
B0645223208685S11656943EA0093501016000004000000
B0645263208720S11657014EA0093801016000004000000
B0645303208737S11657094EA0093301011000004000000
B0645343208732S11657177EA0092901010000004000000
B0645383208710S11657256EA0093101011000004000000
B0645423208678S11657330EA0093301015000004000000
B0645463208642S11657399EA0093601014000004000000
B0645503208606S11657468EA0092901005000004000000
B0645543208571S11657545EA0092000998000004000000
B0645583208533S11657619EA0091400993000004000000
B0646023208493S11657690EA0091400994000004000000
B0646063208450S11657757EA0090800986000004000000
B0646103208400S11657823EA0089800976000004000000
B0646143208342S11657878EA0089100972000004000000
B0646183208277S11657914EA0089200970000004000000
B0646223208208S11657928EA0088400958000004000000
B0646263208134S11657902EA0086600934000004000000
B0646303208064S11657844EA0084100911000004000000
B0646343207996S11657770EA0082000895000004000000
B0646383207928S11657690EA0081000889000004000000
B0646423207865S11657612EA0080400886000004000000
B0646463207801S11657540EA0081100892000004000000
B0646503207737S11657477EA0082200905000004000000
B0646543207674S11657425EA0082600907000004000000
B0646583207607S11657380EA0082400905000004000000
B0647023207536S11657348EA0082400902000004000000
B0647063207459S11657335EA0081900898000004000000
B0647103207381S11657348EA0081500895000004000000
B0647143207307S11657376EA0081400894000004000000
B0647183207238S11657410EA0081400894000004000000
B0647223207178S11657454EA0081100890000004000000
B0647263207134S11657520EA0080900888000004000000
B0647303207113S11657598EA0080700887000004000000
B0647343207117S11657679EA0080500886000004000000
B0647383207150S11657745EA0081000894000004000000
B0647423207206S11657750EA0082500908000004000000
B0647463207230S11657693EA0082200900000004000000
B0647503207194S11657641EA0081900901000004000000
B0647543207139S11657659EA0081600898000004000000
B0647583207126S11657725EA0082000903000004000000
B0648023207144S11657789EA0083100914000004000000
B0648063207193S11657790EA0084100924000004000000
B0648103207204S11657740EA0084300925000004000000
B0648143207164S11657697EA0083200919000004000000
B0648183207109S11657718EA0083700926000004000000
B0648223207092S11657780EA0084600935000004000000
B0648263207134S11657809EA0085200937000004000000
B0648303207165S11657761EA0085200937000004000000
B0648343207139S11657703EA0085900945000004000000
B0648383207082S11657701EA0086100946000004000000
B0648423207053S11657761EA0086700954000004000000
B0648463207092S11657797EA0087800963000004000000
B0648503207122S11657753EA0088600971000004000000
B0648543207091S11657703EA0089100973000004000000
B0648583207033S11657712EA0089500978000004000000
B0649023207008S11657770EA0090400990000004000000
B0649063207035S11657816EA0091601003000004000000
B0649103207081S11657806EA0092301006000004000000
B0649143207089S11657746EA0092801013000004000000
B0649183207043S11657709EA0093801022000008000000
B0649223206987S11657729EA0094301025000008000000
B0649263206972S11657790EA0095401038000004000000
B0649303207004S11657829EA0096201043000004000000
B0649343207047S11657806EA0096301042000004000000
B0649383207035S11657744EA0096901050000004000000
B0649423206979S11657729EA0097201054000004000000
B0649463206943S11657781EA0098101067000004000000
B0649503206962S11657832EA0099001069000004000000
B0649543207016S11657832EA0098401064000004000000
B0649583207035S11657775EA0099001075000004000000
B0650023206995S11657731EA0100101082000004000000
B0650063206942S11657757EA0100401084000004000000
B0650103206929S11657820EA0101301094000004000000
B0650143206966S11657863EA0101501095000004000000
B0650183207024S11657865EA0100701082000004000000
B0650223207092S11657840EA0098701061000004000000
B0650263207168S11657801EA0096901046000004000000
B0650303207242S11657751EA0096601046000004000000
B0650343207312S11657701EA0096401044000004000000
B0650383207380S11657647EA0096101041000004000000
B0650423207442S11657594EA0096801052000004000000
B0650463207497S11657545EA0098101061000004000000
B0650503207547S11657494EA0098601062000004000000
B0650543207593S11657439EA0098301058000004000000
B0650583207640S11657381EA0097501050000004000000
B0651023207683S11657316EA0097301049000004000000
B0651063207723S11657251EA0097301048000004000000
B0651103207759S11657187EA0097301047000004000000
B0651143207794S11657124EA0097001045000004000000
B0651183207827S11657059EA0096701039000004000000
B0651223207858S11656991EA0095901034000004000000
B0651263207891S11656922EA0095601031000004000000
B0651303207922S11656853EA0095301027000004000000
B0651343207953S11656784EA0095101024000004000000
B0651383207978S11656708EA0094501017000004000000
B0651423208000S11656632EA0094301022000004000000
B0651463208021S11656562EA0094601023000004000000
B0651503208041S11656492EA0094301017000004000000
B0651543208067S11656423EA0093701012000004000000
B0651583208095S11656355EA0093101009000004000000
B0652023208122S11656286EA0092701001000004000000
B0652063208148S11656211EA0091400988000004000000
B0652103208175S11656132EA0090300977000004000000
B0652143208201S11656052EA0090000978000004000000
B0652183208223S11655976EA0090200980000004000000
B0652223208243S11655900EA0089800973000004000000
B0652263208265S11655824EA0089300969000004000000
B0652303208287S11655747EA0089000966000004000000
B0652343208307S11655671EA0088600962000004000000
B0652383208324S11655593EA0088000957000004000000
B0652423208338S11655515EA0087700956000004000000
B0652463208352S11655440EA0087800954000004000000
B0652503208364S11655363EA0087100945000004000000
B0652543208369S11655284EA0086200936000004000000
B0652583208373S11655203EA0085600931000004000000
B0653023208381S11655124EA0085000926000004000000
B0653063208411S11655059EA0085000929000004000000
B0653103208459S11655021EA0085400931000004000000
B0653143208515S11655015EA0085200927000004000000
B0653183208573S11655023EA0084500920000004000000
B0653223208632S11655034EA0083900913000004000000
B0653263208693S11655047EA0083200907000004000000
B0653303208754S11655062EA0082700903000004000000
B0653343208814S11655073EA0082400901000004000000
B0653383208871S11655081EA0082700905000004000000
B0653423208925S11655086EA0082800906000004000000
B0653463208979S11655088EA0082700905000004000000
B0653503209033S11655086EA0082500903000004000000
B0653543209088S11655083EA0082400904000004000000
B0653583209139S11655060EA0082600903000004000000
B0654023209178S11655014EA0082600902000004000000
B0654063209201S11654956EA0082600905000004000000
B0654103209174S11654899EA0083000908000004000000
B0654143209115S11654899EA0082700901000004000000
B0654183209078S11654956EA0082400903000004000000
B0654223209084S11655021EA0082700908000004000000
B0654263209122S11655062EA0083000907000004000000
B0654303209172S11655057EA0082800907000004000000
B0654343209215S11655020EA0082800905000004000000
B0654383209241S11654962EA0082600906000004000000
B0654423209250S11654894EA0082500903000004000000
B0654463209247S11654821EA0081800899000004000000
B0654503209235S11654750EA0082000901000004000000
B0654543209219S11654681EA0081800895000004000000
B0654583209198S11654609EA0081200890000004000000
B0655023209178S11654538EA0081000887000004000000
B0655063209156S11654468EA0080700878000004000000
B0655103209133S11654394EA0079400867000004000000
B0655143209110S11654317EA0078300858000004000000
B0655183209084S11654243EA0077800855000004000000
B0655223209059S11654173EA0077700855000004000000
B0655263209036S11654104EA0077300850000004000000
B0655303209016S11654032EA0076800847000004000000
B0655343209005S11653959EA0076900846000004000000
B0655383208993S11653887EA0076700843000004000000
B0655423208974S11653814EA0076200836000004000000
B0655463208949S11653741EA0075600834000004000000
B0655503208920S11653673EA0075300829000004000000
B0655543208890S11653607EA0075000827000004000000
B0655583208867S11653541EA0075000825000004000000
B0656023208837S11653476EA0074500821000004000000
B0656063208805S11653411EA0074500820000004000000
B0656103208758S11653361EA0075000826000004000000
B0656143208698S11653377EA0075300830000004000000
B0656183208676S11653446EA0075200830000004000000
B0656223208711S11653500EA0074600822000004000000
B0656263208766S11653490EA0073900816000004000000
B0656303208780S11653428EA0073700819000004000000
B0656343208762S11653365EA0074200825000004000000
B0656383208733S11653311EA0074500825000004000000
B0656423208681S11653286EA0074200820000004000000
B0656463208619S11653290EA0073400814000004000000
B0656503208552S11653300EA0073300814000004000000
B0656543208485S11653315EA0073400818000004000000
B0656583208433S11653355EA0074200827000004000000
B0657023208455S11653409EA0074700830000004000000
B0657063208508S11653399EA0074300827000004000000
B0657103208521S11653338EA0074700831000004000000
B0657143208481S11653290EA0075300839000004000000
B0657183208428S11653304EA0075800845000004000000
B0657223208421S11653363EA0076200850000004000000
B0657263208470S11653381EA0076300847000004000000
B0657303208503S11653333EA0076500855000004000000
B0657343208469S11653287EA0077100857000004000000
B0657383208420S11653321EA0076900856000004000000
B0657423208433S11653382EA0077500863000004000000
B0657463208485S11653395EA0077500862000004000000
B0657503208530S11653359EA0077600863000004000000
B0657543208542S11653294EA0077900867000004000000
B0657583208500S11653247EA0077800862000004000000
B0658023208438S11653257EA0077200856000004000000
B0658063208399S11653318EA0077300861000004000000
B0658103208403S11653386EA0078100868000004000000
B0658143208448S11653426EA0077900865000004000000
B0658183208503S11653413EA0078100872000004000000
B0658223208530S11653359EA0078500874000004000000
B0658263208511S11653296EA0078900876000004000000
B0658303208455S11653274EA0078300870000004000000
B0658343208399S11653312EA0077900867000004000000
B0658383208381S11653383EA0078200872000004000000
B0658423208411S11653442EA0078600875000004000000
B0658463208464S11653461EA0078600874000004000000
B0658503208512S11653432EA0078800881000004000000
B0658543208530S11653374EA0079300882000004000000
B0658583208504S11653322EA0079600887000004000000
B0659023208450S11653326EA0079500882000004000000
B0659063208422S11653390EA0079000879000004000000
B0659103208451S11653451EA0079100879000004000000
B0659143208507S11653467EA0079100882000004000000
B0659183208534S11653417EA0079300884000004000000
B0659223208502S11653360EA0078700877000004000000
B0659263208435S11653343EA0078300871000004000000
B0659303208363S11653357EA0077600864000004000000
B0659343208290S11653378EA0077700870000004000000
B0659383208218S11653393EA0078200873000004000000
B0659423208147S11653411EA0078500874000004000000
B0659463208077S11653433EA0078500875000004000000
B0659503208006S11653446EA0078600871000004000000
B0659543207935S11653451EA0078100868000004000000
B0659583207865S11653454EA0077500859000004000000
B0700023207792S11653452EA0076900852000004000000
B0700063207718S11653450EA0076600852000004000000
B0700103207649S11653456EA0077900869000004000000
B0700143207585S11653471EA0079100873000004000000
B0700183207547S11653524EA0079800884000004000000
B0700223207567S11653581EA0079800878000004000000
B0700263207622S11653586EA0079500879000004000000
B0700303207651S11653534EA0080200885000004000000
B0700343207636S11653472EA0080400888000004000000
B0700383207585S11653439EA0080700890000004000000
B0700423207525S11653451EA0080900894000004000000
B0700463207484S11653504EA0081100896000004000000
B0700503207489S11653572EA0081000893000004000000
B0700543207538S11653603EA0080400888000004000000
B0700583207589S11653576EA0080300889000004000000
B0701023207618S11653515EA0080400892000004000000
B0701063207609S11653448EA0081000900000004000000
B0701103207562S11653409EA0081900905000004000000
B0701143207507S11653435EA0082100908000004000000
B0701183207498S11653503EA0082200909000004000000
B0701223207544S11653543EA0082300909000004000000
B0701263207589S11653511EA0082600914000004000000
B0701303207583S11653448EA0083200923000004000000
B0701343207533S11653424EA0084200930000004000000
B0701383207489S11653467EA0084600935000004000000
B0701423207497S11653528EA0085000940000004000000
B0701463207541S11653549EA0085800945000004000000
B0701503207575S11653515EA0086000946000004000000
B0701543207568S11653456EA0086400956000004000000
B0701583207527S11653424EA0087400959000004000000
B0702023207475S11653442EA0087500963000004000000
B0702063207455S11653502EA0088100967000004000000
B0702103207488S11653547EA0088100967000004000000
B0702143207534S11653524EA0088200967000004000000
B0702183207525S11653461EA0088400966000004000000
B0702223207464S11653454EA0088300965000004000000
B0702263207432S11653516EA0089100979000004000000
B0702303207458S11653569EA0089900983000004000000
B0702343207506S11653559EA0090300988000004000000
B0702383207515S11653500EA0090600991000004000000
B0702423207471S11653460EA0091000994000004000000
B0702463207415S11653481EA0091400997000004000000
B0702503207394S11653546EA0091500996000004000000
B0702543207427S11653607EA0090900989000004000000
B0702583207486S11653615EA0090300984000004000000
B0703023207532S11653567EA0090600992000004000000
B0703063207536S11653494EA0091701002000004000000
B0703103207497S11653435EA0092301005000004000000
B0703143207430S11653412EA0092201002000004000000
B0703183207356S11653425EA0091600996000004000000
B0703223207281S11653456EA0091100994000004000000
B0703263207207S11653491EA0091100993000004000000
B0703303207134S11653526EA0090700986000004000000
B0703343207061S11653562EA0090400989000004000000
B0703383206990S11653595EA0091200995000004000000
B0703423206917S11653620EA0091400995000004000000
B0703463206843S11653640EA0091200994000004000000
B0703503206769S11653658EA0091200993000004000000
B0703543206693S11653675EA0090500982000004000000
B0703583206615S11653686EA0089800978000004000000
B0704023206537S11653698EA0089300970000004000000
B0704063206458S11653711EA0088600964000004000000
B0704103206379S11653725EA0087900956000004000000
B0704143206301S11653738EA0087500953000004000000
B0704183206221S11653747EA0087400953000004000000
B0704223206149S11653767EA0088400965000004000000
B0704263206119S11653831EA0089600980000004000000
B0704303206156S11653884EA0089700976000004000000
B0704343206218S11653872EA0089600981000004000000
B0704383206253S11653812EA0090400986000004000000
B0704423206254S11653734EA0090000979000004000000
B0704463206225S11653656EA0089000969000004000000
B0704503206167S11653603EA0088300964000004000000
B0704543206091S11653590EA0087600956000004000000
B0704583206015S11653612EA0086900949000004000000
B0705023205945S11653654EA0086300940000004000000
B0705063205887S11653720EA0085300931000004000000
B0705103205864S11653803EA0085400934000004000000
B0705143205889S11653879EA0085100930000004000000
B0705183205950S11653918EA0084400926000004000000
B0705223206020S11653927EA0084300927000004000000
B0705263206088S11653923EA0084100921000004000000
B0705303206155S11653906EA0083900921000004000000
B0705343206218S11653874EA0085000932000004000000
B0705383206241S11653809EA0086000943000004000000
B0705423206203S11653749EA0085800935000004000000
B0705463206132S11653750EA0085100930000004000000
B0705503206094S11653816EA0085300936000004000000
B0705543206121S11653881EA0086300947000004000000
B0705583206181S11653893EA0086900952000004000000
B0706023206221S11653842EA0087500958000004000000
B0706063206214S11653772EA0087700959000004000000
B0706103206163S11653721EA0087500955000004000000
B0706143206091S11653718EA0087200953000004000000
B0706183206034S11653763EA0087300954000004000000
B0706223206019S11653837EA0087300957000004000000
B0706263206052S11653897EA0088100965000004000000
B0706303206107S11653923EA0088600971000004000000
B0706343206146S11653887EA0089800986000004000000
B0706383206127S11653827EA0090000978000004000000
B0706423206062S11653807EA0088800968000004000000
B0706463206002S11653850EA0088900972000004000000
B0706503205984S11653924EA0090000982000004000000
B0706543206013S11653987EA0089800976000004000000
B0706583206076S11654001EA0089200974000004000000
B0707023206123S11653957EA0089800982000004000000
B0707063206127S11653884EA0090200985000004000000
B0707103206088S11653820EA0090200983000004000000
B0707143206024S11653793EA0090100983000004000000
B0707183205956S11653809EA0090000981000004000000
B0707223205908S11653863EA0090100985000004000000
B0707263205907S11653936EA0090500987000004000000
B0707303205952S11653979EA0090200986000004000000
B0707343206011S11653965EA0090200983000004000000
B0707383206049S11653903EA0090100984000004000000
B0707423206073S11653831EA0090400988000004000000
B0707463206076S11653754EA0090700991000004000000
B0707503206052S11653682EA0091000993000004000000
B0707543205999S11653636EA0090100981000004000000
B0707583205929S11653617EA0088700966000004000000
B0708023205857S11653634EA0088300964000004000000
B0708063205807S11653688EA0088000962000004000000
B0708103205798S11653760EA0087600957000004000000
B0708143205831S11653818EA0087400956000004000000
B0708183205886S11653838EA0087400957000004000000
B0708223205942S11653824EA0087000953000004000000
B0708263205994S11653799EA0087200955000004000000
B0708303206043S11653772EA0087000953000004000000
B0708343206088S11653733EA0086500945000004000000
B0708383206116S11653673EA0085700937000004000000
B0708423206106S11653602EA0084900931000004000000
B0708463206060S11653546EA0083900919000004000000
B0708503205994S11653524EA0083100909000004000000
B0708543205922S11653541EA0081700896000004000000
B0708583205850S11653571EA0080500886000004000000
B0709023205777S11653602EA0079600878000004000000
B0709063205707S11653632EA0079200874000004000000
B0709103205639S11653662EA0078600869000004000000
B0709143205574S11653695EA0078000860000004000000
B0709183205509S11653732EA0077200852000004000000
B0709223205447S11653773EA0076500846000004000000
B0709263205395S11653829EA0076000839000004000000
B0709303205376S11653906EA0075300835000004000000
B0709343205395S11653981EA0075500841000004000000
B0709383205431S11654040EA0076700854000004000000
B0709423205480S11654045EA0078300870000004000000
B0709463205495S11653991EA0079200875000004000000
B0709503205452S11653949EA0079300875000004000000
B0709543205399S11653968EA0079600881000004000000
B0709583205387S11654027EA0080100888000004000000
B0710023205430S11654044EA0080900893000004000000
B0710063205454S11653989EA0081200899000004000000
B0710103205422S11653939EA0082200909000004000000
B0710143205367S11653940EA0082600907000004000000
B0710183205330S11653991EA0082400909000004000000
B0710223205343S11654049EA0082800913000004000000
B0710263205395S11654061EA0084000925000004000000
B0710303205428S11654011EA0084900932000004000000
B0710343205404S11653953EA0085600942000004000000
B0710383205345S11653946EA0086100944000004000000
B0710423205302S11653996EA0086100943000004000000
B0710463205311S11654061EA0086400952000004000000
B0710503205363S11654083EA0087700963000004000000
B0710543205409S11654043EA0088900973000004000000
B0710583205408S11653975EA0089500980000004000000
B0711023205362S11653928EA0090100987000004000000
B0711063205304S11653929EA0090700990000004000000
B0711103205259S11653975EA0090600990000004000000
B0711143205253S11654041EA0090900994000004000000
B0711183205288S11654091EA0091601002000004000000
B0711223205347S11654089EA0092301006000004000000
B0711263205382S11654032EA0093001014000004000000
B0711303205360S11653963EA0093401019000004000000
B0711343205300S11653944EA0094201025000004000000
B0711383205254S11653987EA0094401026000004000000
B0711423205263S11654052EA0095301035000004000000
B0711463205315S11654078EA0096001043000004000000
B0711503205370S11654045EA0096701049000004000000
B0711543205376S11653978EA0097501058000004000000
B0711583205335S11653926EA0097301052000004000000
B0712023205270S11653916EA0097001050000004000000
B0712063205219S11653955EA0097201055000004000000
B0712103205214S11654019EA0098001066000004000000
B0712143205257S11654043EA0099101074000004000000
B0712183205295S11653994EA0099101072000004000000
B0712223205269S11653929EA0099401076000004000000
B0712263205210S11653937EA0100001082000004000000
B0712303205187S11653998EA0100001084000004000000
B0712343205205S11654063EA0100401087000004000000
B0712383205239S11654124EA0100401087000004000000
B0712423205278S11654186EA0100601087000004000000
B0712463205323S11654244EA0100101081000004000000
B0712503205376S11654301EA0099001068000004000000
B0712543205435S11654361EA0098101061000004000000
B0712583205492S11654417EA0098501067000004000000
B0713023205547S11654468EA0098801066000004000000
B0713063205599S11654522EA0098301059000004000000
B0713103205652S11654579EA0097301052000004000000
B0713143205704S11654638EA0097201050000004000000
B0713183205755S11654698EA0097101051000004000000
B0713223205805S11654755EA0097101052000004000000
B0713263205855S11654812EA0097201052000004000000
B0713303205902S11654867EA0097201049000004000000
B0713343205948S11654921EA0096701046000004000000
B0713383205995S11654976EA0096301039000004000000
B0713423206042S11655032EA0095101028000004000000
B0713463206093S11655090EA0094401021000004000000
B0713503206142S11655149EA0093701015000004000000
B0713543206194S11655206EA0093101010000004000000
B0713583206245S11655267EA0092301003000004000000
B0714023206296S11655331EA0091600995000004000000
B0714063206346S11655398EA0090700986000004000000
B0714103206394S11655467EA0090300983000004000000
B0714143206442S11655536EA0090200983000004000000
B0714183206488S11655603EA0090000979000004000000
B0714223206535S11655668EA0089300970000004000000
B0714263206582S11655733EA0088100958000004000000
B0714303206627S11655798EA0087600953000004000000
B0714343206671S11655861EA0086900948000004000000
B0714383206714S11655924EA0086100937000004000000
B0714423206757S11655985EA0085400934000004000000
B0714463206799S11656042EA0085000928000004000000
B0714503206843S11656102EA0084000918000004000000
B0714543206887S11656165EA0083400914000004000000
B0714583206927S11656230EA0083100909000004000000
B0715023206969S11656297EA0082400903000004000000
B0715063207013S11656362EA0081800896000004000000
B0715103207059S11656428EA0080900890000004000000
B0715143207104S11656494EA0081000891000004000000
B0715183207150S11656558EA0080700887000004000000
B0715223207195S11656620EA0080400882000004000000
B0715263207251S11656672EA0079900876000004000000
B0715303207316S11656717EA0079000868000004000000
B0715343207382S11656760EA0078500864000004000000
B0715383207447S11656804EA0078600871000004000000
B0715423207494S11656869EA0079800885000004000000
B0715463207506S11656942EA0081300896000004000000
B0715503207485S11657007EA0082000902000004000000
B0715543207433S11657031EA0082100899000004000000
B0715583207380S11657000EA0081500895000004000000
B0716023207358S11656934EA0081900900000004000000
B0716063207377S11656873EA0082600907000004000000
B0716103207424S11656835EA0082700907000004000000
B0716143207477S11656852EA0083200917000004000000
B0716183207482S11656917EA0083500912000004000000
B0716223207428S11656939EA0083100909000004000000
B0716263207384S11656895EA0083300914000004000000
B0716303207365S11656831EA0084100923000004000000
B0716343207369S11656770EA0085200933000004000000
B0716383207402S11656724EA0085700937000004000000
B0716423207451S11656715EA0086200942000004000000
B0716463207498S11656747EA0086900950000004000000
B0716503207529S11656800EA0088000960000004000000
B0716543207532S11656867EA0088500964000004000000
B0716583207502S11656929EA0088700966000004000000
B0717023207449S11656961EA0088600961000004000000
B0717063207388S11656958EA0088000955000004000000
B0717103207333S11656909EA0086500938000004000000
B0717143207319S11656818EA0085500931000004000000
B0717183207359S11656740EA0085200933000004000000
B0717223207432S11656722EA0086200946000004000000
B0717263207492S11656771EA0087300952000004000000
B0717303207506S11656861EA0087200952000004000000
B0717343207455S11656936EA0087300950000004000000
B0717383207375S11656943EA0086700946000004000000
B0717423207311S11656882EA0086800947000004000000
B0717463207293S11656791EA0087100954000004000000
B0717503207312S11656709EA0088100965000004000000
B0717543207358S11656653EA0089000971000004000000
B0717583207416S11656656EA0089900979000004000000
B0718023207456S11656708EA0090500984000004000000
B0718063207493S11656773EA0090800988000004000000
B0718103207511S11656852EA0091300995000004000000
B0718143207494S11656929EA0092301003000004000000
B0718183207449S11656984EA0092701005000004000000
B0718223207389S11657000EA0092701006000004000000
B0718263207333S11656970EA0092801006000004000000
B0718303207285S11656919EA0093301012000004000000
B0718343207239S11656866EA0093901015000004000000
B0718383207195S11656810EA0093701011000004000000
B0718423207151S11656749EA0093001003000004000000
B0718463207103S11656691EA0092300998000004000000
B0718503207056S11656632EA0091600991000004000000
B0718543207009S11656572EA0091100988000004000000
B0718583206964S11656510EA0090900987000004000000
B0719023206921S11656448EA0090900985000004000000
B0719063206878S11656386EA0090700983000004000000
B0719103206835S11656325EA0090300978000004000000
B0719143206792S11656264EA0089800975000004000000
B0719183206748S11656204EA0089800974000004000000
B0719223206704S11656147EA0089500969000004000000
B0719263206649S11656103EA0089100968000004000000
B0719303206583S11656087EA0088900963000004000000
B0719343206519S11656111EA0088400960000004000000
B0719383206480S11656169EA0088300961000004000000
B0719423206472S11656242EA0087700953000004000000
B0719463206493S11656316EA0086400940000004000000
B0719503206531S11656386EA0085400931000004000000
B0719543206574S11656457EA0084900928000004000000
B0719583206617S11656524EA0085200932000004000000
B0720023206661S11656587EA0085700937000004000000
B0720063206704S11656644EA0086100943000004000000
B0720103206747S11656696EA0086600947000004000000
B0720143206791S11656744EA0086600946000004000000
B0720183206836S11656787EA0086300942000004000000
B0720223206883S11656831EA0086100939000004000000
B0720263206930S11656878EA0085400931000004000000
B0720303206979S11656923EA0085000928000004000000
B0720343207034S11656965EA0085000928000004000000
B0720383207087S11657005EA0084800928000004000000
B0720423207141S11657044EA0085000931000004000000
B0720463207199S11657064EA0085600935000004000000
B0720503207259S11657056EA0086000939000004000000
B0720543207295S11657007EA0086700948000004000000
B0720583207269S11656952EA0087200953000004000000
B0721023207216S11656969EA0087500951000004000000
B0721063207207S11657033EA0087600954000004000000
B0721103207242S11657072EA0088200961000004000000
B0721143207290S11657057EA0088400960000004000000
B0721183207304S11656999EA0088500964000004000000
B0721223207265S11656956EA0088800966000004000000
B0721263207215S11656978EA0088800967000004000000
B0721303207207S11657042EA0089100972000004000000
B0721343207250S11657077EA0089600977000004000000
B0721383207302S11657059EA0089700977000004000000
B0721423207339S11657001EA0089500976000004000000
B0721463207373S11656936EA0089800980000004000000
B0721503207406S11656874EA0090000986000004000000
B0721543207434S11656809EA0090800990000004000000
B0721583207430S11656737EA0091200994000004000000
B0722023207377S11656701EA0091801000000004000000
B0722063207319S11656740EA0091800997000004000000
B0722103207316S11656815EA0091901001000004000000
B0722143207363S11656860EA0092501004000004000000
B0722183207420S11656849EA0092501007000004000000
B0722223207462S11656801EA0092901007000004000000
B0722263207473S11656735EA0092701009000004000000
B0722303207454S11656666EA0092701006000004000000
B0722343207414S11656609EA0093101013000004000000
B0722383207356S11656591EA0094301026000004000000
B0722423207317S11656637EA0094901026000004000000
B0722463207347S11656685EA0094701029000004000000
B0722503207388S11656652EA0095101033000004000000
B0722543207360S11656601EA0096101045000004000000
B0722583207307S11656611EA0096601046000004000000
B0723023207289S11656671EA0097101051000004000000
B0723063207325S11656710EA0097401054000004000000
B0723103207368S11656682EA0097501057000004000000
B0723143207356S11656619EA0097901063000004000000
B0723183207306S11656594EA0098601070000004000000
B0723223207258S11656626EA0099101072000004000000
B0723263207251S11656689EA0099301078000004000000
B0723303207291S11656722EA0100001082000004000000
B0723343207330S11656684EA0100001082000004000000
B0723383207310S11656624EA0100301087000004000000
B0723423207248S11656623EA0100701089000004000000
B0723463207198S11656671EA0100701086000004000000
B0723503207151S11656732EA0100201084000004000000
B0723543207098S11656786EA0100201086000004000000
B0723583207046S11656767EA0101401096000004000000
B0724023207047S11656702EA0100301080000004000000
B0724063207109S11656671EA0099101071000004000000
B0724103207178S11656695EA0098901069000004000000
B0724143207237S11656739EA0099401079000004000000
B0724183207293S11656788EA0100101084000004000000
B0724223207345S11656843EA0100001082000004000000
B0724263207380S11656914EA0099901079000004000000
B0724303207388S11656996EA0099301076000004000000
B0724343207363S11657075EA0098801062000004000000
B0724383207315S11657160EA0095801033000004000000
B0724423207250S11657247EA0094001017000004000000
B0724463207178S11657329EA0093601019000004000000
B0724503207109S11657402EA0094601031000004000000
B0724543207044S11657467EA0095401031000004000000
B0724583206979S11657527EA0094801027000004000000
B0725023206916S11657585EA0095101030000004000000
B0725063206853S11657642EA0095801039000004000000
B0725103206796S11657698EA0096901050000004000000
B0725143206741S11657753EA0097301051000004000000
B0725183206686S11657803EA0097001050000004000000
B0725223206631S11657857EA0097001048000004000000
B0725263206575S11657907EA0096701047000004000000
B0725303206517S11657956EA0096501044000004000000
B0725343206461S11658002EA0095901034000004000000
B0725383206401S11658050EA0094601025000004000000
B0725423206342S11658097EA0094301023000004000000
B0725463206284S11658145EA0094101019000004000000
B0725503206224S11658195EA0094101021000004000000
B0725543206167S11658243EA0094301023000004000000
B0725583206114S11658292EA0094201019000004000000
B0726023206064S11658348EA0093501013000004000000
B0726063206016S11658412EA0092901006000004000000
B0726103205969S11658479EA0092100999000004000000
B0726143205925S11658552EA0091300994000004000000
B0726183205881S11658626EA0091200993000004000000
B0726223205839S11658703EA0091500997000004000000
B0726263205802S11658780EA0091400995000004000000
B0726303205765S11658855EA0091400997000004000000
B0726343205733S11658931EA0091400996000004000000
B0726383205699S11659007EA0091000990000004000000
B0726423205659S11659080EA0090400984000004000000
B0726463205608S11659142EA0089600976000004000000
B0726503205542S11659178EA0089100974000004000000
B0726543205471S11659185EA0089100971000004000000
B0726583205402S11659171EA0088200961000004000000
B0727023205339S11659135EA0087500949000004000000
B0727063205282S11659085EA0086400939000004000000
B0727103205223S11659033EA0085400930000004000000
B0727143205165S11658977EA0084800924000004000000
B0727183205107S11658920EA0084200918000004000000
B0727223205048S11658862EA0084300923000004000000
B0727263204984S11658820EA0085800935000004000000
B0727303204925S11658850EA0087100950000004000000
B0727343204915S11658915EA0087400952000004000000
B0727383204957S11658954EA0087200949000004000000
B0727423205009S11658936EA0086900948000004000000
B0727463205037S11658880EA0087300954000004000000
B0727503205028S11658815EA0088000960000004000000
B0727543204976S11658790EA0088300961000004000000
B0727583204920S11658829EA0087900956000004000000
B0728023204907S11658903EA0087700957000004000000
B0728063204942S11658957EA0087900960000004000000
B0728103204998S11658960EA0087600958000004000000
B0728143205045S11658924EA0088100961000004000000
B0728183205072S11658863EA0088000962000004000000
B0728223205061S11658795EA0088100965000004000000
B0728263205009S11658762EA0088800970000004000000
B0728303204959S11658798EA0089100973000004000000
B0728343204959S11658866EA0089600981000004000000
B0728383205003S11658899EA0090200985000004000000
B0728423205050S11658872EA0090200983000004000000
B0728463205054S11658808EA0090100984000004000000
B0728503205009S11658764EA0090200986000004000000
B0728543204953S11658785EA0090600992000004000000
B0728583204944S11658847EA0091400997000004000000
B0729023204985S11658880EA0091801001000004000000
B0729063205027S11658849EA0091901000000004000000
B0729103205018S11658788EA0092001004000004000000
B0729143204967S11658765EA0092501008000004000000
B0729183204925S11658807EA0092501009000004000000
B0729223204937S11658868EA0092701013000004000000
B0729263204984S11658881EA0093401019000004000000
B0729303205016S11658842EA0093901020000004000000
B0729343205010S11658785EA0094001022000004000000
B0729383204964S11658758EA0094301023000004000000
B0729423204915S11658784EA0094301025000004000000
B0729463204895S11658843EA0094501027000004000000
B0729503204918S11658898EA0094901032000004000000
B0729543204962S11658916EA0095601039000004000000
B0729583205001S11658890EA0095801038000004000000
B0730023205012S11658836EA0095801039000004000000
B0730063204985S11658785EA0095801041000004000000
B0730103204933S11658776EA0096201044000004000000
B0730143204893S11658812EA0096701047000004000000
B0730183204893S11658873EA0097101047000004000000
B0730223204933S11658905EA0097101049000004000000
B0730263204975S11658879EA0096601046000004000000
B0730303204976S11658817EA0096501047000004000000
B0730343204937S11658778EA0097201054000004000000
B0730383204888S11658782EA0097501057000004000000
B0730423204851S11658827EA0097501055000004000000
B0730463204855S11658886EA0097601056000004000000
B0730503204897S11658916EA0098101062000004000000
B0730543204940S11658897EA0098101059000004000000
B0730583204950S11658842EA0098001060000004000000
B0731023204916S11658794EA0098001060000004000000
B0731063204862S11658777EA0098001060000004000000
B0731103204802S11658780EA0098301062000004000000
B0731143204743S11658789EA0098501065000004000000
B0731183204685S11658802EA0098701068000004000000
B0731223204628S11658815EA0098801066000004000000
B0731263204573S11658801EA0098301060000004000000
B0731303204539S11658752EA0097701053000004000000
B0731343204551S11658693EA0096801043000004000000
B0731383204599S11658660EA0096201037000004000000
B0731423204654S11658651EA0095901034000004000000
B0731463204707S11658645EA0095301025000004000000
B0731503204762S11658632EA0094501018000004000000
B0731543204816S11658609EA0093601011000004000000
B0731583204869S11658585EA0093101009000004000000
B0732023204924S11658561EA0092601002000004000000
B0732063204979S11658537EA0091900996000004000000
B0732103205032S11658505EA0091300991000004000000
B0732143205085S11658473EA0090900988000004000000
B0732183205137S11658442EA0090600985000004000000
B0732223205192S11658416EA0090500982000004000000
B0732263205246S11658391EA0090100981000004000000
B0732303205301S11658369EA0090000979000004000000
B0732343205356S11658347EA0089700974000004000000
B0732383205412S11658322EA0089300971000004000000
B0732423205467S11658296EA0089100970000004000000
B0732463205523S11658269EA0089000969000004000000
B0732503205578S11658243EA0088800968000004000000
B0732543205633S11658217EA0088500964000004000000
B0732583205685S11658186EA0088100958000004000000
B0733023205733S11658147EA0087800956000004000000
B0733063205776S11658100EA0087300951000004000000
B0733103205813S11658049EA0086500940000004000000
B0733143205852S11657995EA0085100930000004000000
B0733183205891S11657937EA0084900926000004000000
B0733223205926S11657876EA0084300922000004000000
B0733263205959S11657814EA0084600929000004000000
B0733303205986S11657753EA0084900928000004000000
B0733343206012S11657692EA0084800926000004000000
B0733383206042S11657632EA0084600927000004000000
B0733423206073S11657573EA0084300923000004000000
B0733463206108S11657517EA0084100921000004000000
B0733503206150S11657469EA0083800915000004000000
B0733543206193S11657421EA0083000908000004000000
B0733583206236S11657372EA0082400900000004000000
B0734023206279S11657322EA0081900897000004000000
B0734063206322S11657274EA0081700898000004000000
B0734103206361S11657226EA0081700898000004000000
B0734143206392S11657173EA0082100901000004000000
B0734183206418S11657116EA0082100899000004000000
B0734223206436S11657051EA0081800898000004000000
B0734263206427S11656981EA0082000900000004000000
B0734303206381S11656943EA0083000913000004000000
B0734343206340S11656987EA0083400913000004000000
B0734383206355S11657048EA0083100910000004000000
B0734423206410S11657051EA0083100916000004000000
B0734463206424S11656994EA0083800923000004000000
B0734503206379S11656964EA0084300925000004000000
B0734543206338S11657005EA0084800931000004000000
B0734583206349S11657062EA0085100930000004000000
B0735023206400S11657082EA0084600926000004000000
B0735063206449S11657051EA0084600930000004000000
B0735103206457S11656991EA0085600941000004000000
B0735143206411S11656961EA0086000941000004000000
B0735183206376S11657009EA0085900939000004000000
B0735223206410S11657062EA0085500936000004000000
B0735263206467S11657040EA0085300936000004000000
B0735303206474S11656969EA0085700945000004000000
B0735343206432S11656921EA0086700953000004000000
B0735383206376S11656931EA0087500960000004000000
B0735423206346S11656990EA0087800962000004000000
B0735463206370S11657048EA0088100965000004000000
B0735503206424S11657052EA0088400968000004000000
B0735543206449S11656997EA0089100976000004000000
B0735583206420S11656943EA0089600979000004000000
B0736023206366S11656940EA0090200985000004000000
B0736063206332S11656991EA0090400986000004000000
B0736103206344S11657053EA0090600988000004000000
B0736143206394S11657077EA0090700989000004000000
B0736183206436S11657038EA0090900993000004000000
B0736223206427S11656971EA0091500997000004000000
B0736263206376S11656942EA0091801002000004000000
B0736303206328S11656979EA0092201006000004000000
B0736343206338S11657044EA0092401007000004000000
B0736383206393S11657060EA0092501009000004000000
B0736423206435S11657012EA0092901014000004000000
B0736463206439S11656945EA0093501019000004000000
B0736503206398S11656899EA0093801019000004000000
B0736543206338S11656900EA0093501015000004000000
B0736583206283S11656944EA0093301012000004000000
B0737023206259S11657013EA0094201025000004000000
B0737063206286S11657066EA0094801030000004000000
B0737103206342S11657069EA0094701026000004000000
B0737143206381S11657022EA0094901031000004000000
B0737183206370S11656957EA0095101032000004000000
B0737223206310S11656938EA0094801026000004000000
B0737263206257S11656987EA0094501027000004000000
B0737303206233S11657062EA0095101033000004000000
B0737343206249S11657138EA0095301034000004000000
B0737383206301S11657183EA0095401036000004000000
B0737423206363S11657179EA0095501033000004000000
B0737463206418S11657137EA0094801028000004000000
B0737503206463S11657082EA0095301035000004000000
B0737543206505S11657025EA0095601042000004000000
B0737583206545S11656968EA0096601050000004000000
B0738023206584S11656912EA0097001052000004000000
B0738063206627S11656860EA0096901053000004000000
B0738103206683S11656843EA0097401059000004000000
B0738143206726S11656895EA0097701063000004000000
B0738183206709S11656968EA0097501057000004000000
B0738223206658S11657029EA0096301044000004000000
B0738263206606S11657088EA0096901053000004000000
B0738303206559S11657148EA0097101053000004000000
B0738343206510S11657207EA0096701047000004000000
B0738383206458S11657268EA0096301042000004000000
B0738423206405S11657329EA0096101041000004000000
B0738463206354S11657387EA0096101042000004000000
B0738503206307S11657445EA0096101042000004000000
B0738543206266S11657502EA0095801038000004000000
B0738583206221S11657559EA0095001028000004000000
B0739023206168S11657616EA0093901011000004000000
B0739063206110S11657671EA0092401004000004000000
B0739103206052S11657731EA0091600996000004000000
B0739143205998S11657790EA0092301013000004000000
B0739183205952S11657844EA0094001023000004000000
B0739223205908S11657898EA0094401028000004000000
B0739263205867S11657949EA0094901032000004000000
B0739303205831S11658009EA0095001031000004000000
B0739343205833S11658079EA0095501037000004000000
B0739383205876S11658119EA0096101044000004000000
B0739423205928S11658109EA0096601045000004000000
B0739463205968S11658054EA0096101043000004000000
B0739503206002S11657995EA0096601055000004000000
B0739543206034S11657937EA0097201057000004000000
B0739583206065S11657876EA0097101057000004000000
B0740023206101S11657819EA0096801054000004000000
B0740063206137S11657762EA0097101056000004000000
B0740103206169S11657706EA0096801051000004000000
B0740143206202S11657651EA0096001043000004000000
B0740183206238S11657601EA0095401036000004000000
B0740223206276S11657553EA0095001031000004000000
B0740263206319S11657504EA0094101020000004000000
B0740303206372S11657467EA0093401013000004000000
B0740343206429S11657439EA0092701006000004000000
B0740383206489S11657419EA0092101002000004000000
B0740423206549S11657403EA0091901001000004000000
B0740463206608S11657393EA0091700997000004000000
B0740503206667S11657384EA0090900989000004000000
B0740543206727S11657372EA0090300983000004000000
B0740583206784S11657356EA0090000980000004000000
B0741023206840S11657343EA0089800981000004000000
B0741063206894S11657337EA0090000980000004000000
B0741103206947S11657337EA0089300972000004000000
B0741143207003S11657335EA0088300961000004000000
B0741183207061S11657328EA0087700958000004000000
B0741223207118S11657317EA0087100953000004000000
B0741263207178S11657311EA0086700947000004000000
B0741303207239S11657308EA0086500946000004000000
B0741343207299S11657311EA0086300946000004000000
B0741383207360S11657313EA0086200942000004000000
B0741423207423S11657312EA0085500934000004000000
B0741463207488S11657311EA0084800928000004000000
B0741503207551S11657316EA0084800930000004000000
B0741543207610S11657324EA0085200934000004000000
B0741583207667S11657332EA0085100929000004000000
B0742023207727S11657334EA0084300921000004000000
B0742063207789S11657329EA0083400914000004000000
B0742103207850S11657321EA0083000912000004000000
B0742143207909S11657315EA0083300915000004000000
B0742183207963S11657311EA0083300912000004000000
B0742223208021S11657302EA0082200902000004000000
B0742263208080S11657287EA0081500895000004000000
B0742303208140S11657269EA0080800890000004000000
B0742343208203S11657263EA0080400887000004000000
B0742383208264S11657270EA0080300885000004000000
B0742423208325S11657287EA0079900879000004000000
B0742463208386S11657313EA0079300873000004000000
B0742503208446S11657343EA0078800870000004000000
B0742543208506S11657373EA0078700868000004000000
B0742583208567S11657402EA0078400867000004000000
B0743023208626S11657432EA0078200865000004000000
B0743063208685S11657458EA0078300864000004000000
B0743103208745S11657473EA0077900860000004000000
B0743143208807S11657471EA0077900858000004000000
B0743183208868S11657452EA0077800858000004000000
B0743223208925S11657428EA0077700859000004000000
B0743263208981S11657403EA0077600856000004000000
B0743303209036S11657376EA0077200852000004000000
B0743343209088S11657341EA0076600844000004000000
B0743383209137S11657291EA0075600834000004000000
B0743423209183S11657231EA0074900829000004000000
B0743463209214S11657161EA0074500825000004000000
B0743503209230S11657085EA0074100821000004000000
B0743543209223S11657005EA0073500815000004000000
B0743583209195S11656930EA0072900809000004000000
B0744023209152S11656862EA0072500806000004000000
B0744063209100S11656808EA0072400803000004000000
B0744103209041S11656761EA0071700792000004000000
B0744143208979S11656717EA0070600785000004000000
B0744183208915S11656683EA0070800788000004000000
B0744223208851S11656658EA0070800787000004000000
B0744263208786S11656637EA0071000790000004000000
B0744303208723S11656633EA0071900801000004000000
B0744343208690S11656689EA0072400806000004000000
B0744383208732S11656728EA0072300806000004000000
B0744423208766S11656683EA0072400809000004000000
B0744463208730S11656637EA0072900816000004000000
B0744503208680S11656665EA0073600824000004000000
B0744543208677S11656728EA0073800824000004000000
B0744583208720S11656758EA0073900827000004000000
B0745023208756S11656726EA0074400828000004000000
B0745063208746S11656669EA0074000825000004000000
B0745103208695S11656640EA0074500831000004000000
B0745143208645S11656661EA0075500839000004000000
B0745183208624S11656717EA0075800844000004000000
B0745223208652S11656761EA0076100843000004000000
B0745263208697S11656741EA0075600840000004000000
B0745303208698S11656685EA0076000845000004000000
B0745343208662S11656645EA0076200846000004000000
B0745383208608S11656648EA0076200844000004000000
B0745423208564S11656692EA0076300848000004000000
B0745463208548S11656754EA0077400862000004000000
B0745503208571S11656804EA0078900873000004000000
B0745543208619S11656808EA0079000873000004000000
B0745583208647S11656765EA0079200876000004000000
B0746023208634S11656709EA0079300877000004000000
B0746063208586S11656679EA0079600879000004000000
B0746103208533S11656696EA0079900882000004000000
B0746143208499S11656750EA0080400888000004000000
B0746183208500S11656817EA0081000896000004000000
B0746223208538S11656861EA0081900903000004000000
B0746263208587S11656847EA0082100905000004000000
B0746303208594S11656786EA0082200902000004000000
B0746343208546S11656745EA0081800903000004000000
B0746383208485S11656763EA0082600911000004000000
B0746423208457S11656828EA0083400919000004000000
B0746463208473S11656896EA0084100925000004000000
B0746503208525S11656926EA0084500931000004000000
B0746543208569S11656893EA0084900933000004000000
B0746583208564S11656831EA0084900930000004000000
B0747023208513S11656792EA0084400927000004000000
B0747063208448S11656805EA0084800931000004000000
B0747103208395S11656853EA0085800941000004000000
B0747143208373S11656925EA0085400935000004000000
B0747183208398S11656994EA0085200935000004000000
B0747223208454S11657025EA0085200934000004000000
B0747263208507S11657005EA0085200937000004000000
B0747303208528S11656945EA0085300936000004000000
B0747343208498S11656887EA0084800928000004000000
B0747383208434S11656869EA0084900932000004000000
B0747423208386S11656914EA0086300947000004000000
B0747463208407S11656975EA0086100946000004000000
B0747503208460S11656975EA0086600952000004000000
B0747543208481S11656917EA0087200956000004000000
B0747583208450S11656864EA0087600960000004000000
B0748023208390S11656866EA0088100966000004000000
B0748063208351S11656922EA0088900971000004000000
B0748103208364S11656992EA0088200960000004000000
B0748143208424S11657030EA0087500961000004000000
B0748183208487S11657039EA0088800973000004000000
B0748223208522S11656999EA0089800980000004000000
B0748263208499S11656942EA0088500962000004000000
B0748303208435S11656913EA0086500947000004000000
B0748343208360S11656906EA0087200955000004000000
B0748383208287S11656912EA0088200964000004000000
B0748423208217S11656922EA0088600963000004000000
B0748463208145S11656930EA0088100964000004000000
B0748503208075S11656931EA0088800971000004000000
B0748543208006S11656931EA0089100970000004000000
B0748583207937S11656936EA0088700966000004000000
B0749023207869S11656938EA0088400964000004000000
B0749063207798S11656942EA0088100962000004000000
B0749103207729S11656945EA0088200964000004000000
B0749143207664S11656947EA0088600968000004000000
B0749183207601S11656948EA0088500965000004000000
B0749223207536S11656957EA0088300963000004000000
B0749263207471S11656975EA0088000961000004000000
B0749303207404S11656992EA0087700953000004000000
B0749343207336S11657001EA0086700949000004000000
B0749383207268S11657000EA0086900949000004000000
B0749423207202S11656992EA0086600946000004000000
B0749463207133S11656983EA0086200943000004000000
B0749503207064S11656971EA0086100944000004000000
B0749543206995S11656958EA0086500947000004000000
B0749583206927S11656947EA0086500948000004000000
B0750023206860S11656935EA0086300944000004000000
B0750063206792S11656919EA0086000937000004000000
B0750103206723S11656896EA0085500933000004000000
B0750143206656S11656878EA0085300933000004000000
B0750183206587S11656877EA0085400932000004000000
B0750223206519S11656892EA0085100930000004000000
B0750263206450S11656913EA0084600924000004000000
B0750303206381S11656935EA0084600928000004000000
B0750343206328S11656979EA0085400940000004000000
B0750383206314S11657047EA0086600947000004000000
B0750423206349S11657100EA0086700950000004000000
B0750463206406S11657104EA0086900949000004000000
B0750503206444S11657056EA0086300944000004000000
B0750543206439S11656988EA0085600937000004000000
B0750583206402S11656925EA0084700926000004000000
B0751023206342S11656886EA0084000920000004000000
B0751063206268S11656883EA0083300911000004000000
B0751103206195S11656897EA0083000915000004000000
B0751143206127S11656919EA0083500918000004000000
B0751183206059S11656942EA0083800918000004000000
B0751223205994S11656960EA0083900921000004000000
B0751263205929S11656974EA0084000922000004000000
B0751303205864S11656982EA0084400924000004000000
B0751343205799S11656992EA0084200922000004000000
B0751383205733S11657007EA0083700919000004000000
B0751423205666S11657017EA0083800918000004000000
B0751463205600S11657022EA0083600916000004000000
B0751503205534S11657020EA0083500916000004000000
B0751543205469S11657013EA0083600916000004000000
B0751583205404S11657012EA0083600916000004000000
B0752023205344S11657036EA0084100923000004000000
B0752063205322S11657099EA0084000919000004000000
B0752103205360S11657150EA0082900908000004000000
B0752143205425S11657160EA0081400894000004000000
B0752183205490S11657153EA0080800890000004000000
B0752223205552S11657147EA0081100894000004000000
B0752263205612S11657139EA0081200893000004000000
B0752303205670S11657126EA0080900889000004000000
B0752343205730S11657113EA0080400884000004000000
B0752383205791S11657104EA0080000881000004000000
B0752423205852S11657098EA0080200885000004000000
B0752463205911S11657095EA0080700890000004000000
B0752503205969S11657094EA0080700889000004000000
B0752543206029S11657094EA0080600887000004000000
B0752583206090S11657094EA0080500890000004000000
B0753023206150S11657092EA0081000893000004000000
B0753063206210S11657087EA0081000893000004000000
B0753103206270S11657083EA0080900890000004000000
B0753143206329S11657081EA0080500888000004000000
B0753183206389S11657073EA0080800890000004000000
B0753223206439S11657047EA0081100892000004000000
B0753263206448S11656986EA0080600882000004000000
B0753303206403S11656934EA0079400871000004000000
B0753343206336S11656919EA0078800866000004000000
B0753383206268S11656940EA0078400861000004000000
B0753423206216S11656997EA0077900862000004000000
B0753463206182S11657066EA0078800873000004000000
B0753503206181S11657133EA0079700879000004000000
B0753543206225S11657174EA0079100875000004000000
B0753583206279S11657152EA0079400877000004000000
B0754023206283S11657091EA0079600878000004000000
B0754063206234S11657062EA0079300873000004000000
B0754103206182S11657096EA0078900871000004000000
B0754143206175S11657163EA0079100876000004000000
B0754183206218S11657204EA0079200879000004000000
B0754223206266S11657185EA0079700882000004000000
B0754263206268S11657126EA0079600880000004000000
B0754303206224S11657090EA0079900883000004000000
B0754343206169S11657096EA0080100883000004000000
B0754383206115S11657124EA0079700877000004000000
B0754423206062S11657159EA0079500877000004000000
B0754463206012S11657200EA0079500878000004000000
B0754503205968S11657247EA0079400876000004000000
B0754543205929S11657302EA0079100873000004000000
B0754583205904S11657373EA0078200864000004000000
B0755023205911S11657451EA0077400857000004000000
B0755063205954S11657507EA0077100856000004000000
B0755103206015S11657525EA0076800853000004000000
B0755143206075S11657521EA0076700851000004000000
B0755183206129S11657514EA0077000852000004000000
B0755223206182S11657502EA0076800849000004000000
B0755263206236S11657486EA0076100843000004000000
B0755303206288S11657465EA0075500837000004000000
B0755343206340S11657445EA0074600829000004000000
B0755383206393S11657425EA0074300825000004000000
B0755423206446S11657412EA0073800821000004000000
B0755463206501S11657403EA0073600819000004000000
B0755503206556S11657395EA0073300816000004000000
B0755543206611S11657386EA0073000812000004000000
B0755583206667S11657377EA0072700809000004000000
B0756023206723S11657367EA0072100803000004000000
B0756063206783S11657358EA0071600797000004000000
B0756103206843S11657348EA0071200795000004000000
B0756143206903S11657338EA0071200793000004000000
B0756183206961S11657329EA0071000789000004000000
B0756223207021S11657324EA0070700788000004000000
B0756263207079S11657322EA0070500787000004000000
B0756303207137S11657321EA0070600788000004000000
B0756343207193S11657312EA0070500788000004000000
B0756383207245S11657300EA0070500787000004000000
B0756423207297S11657286EA0070200783000004000000
B0756463207347S11657272EA0069700778000004000000
B0756503207401S11657256EA0069400774000004000000
B0756543207454S11657241EA0069300774000004000000
B0756583207505S11657224EA0069600781000004000000
B0757023207553S11657211EA0070200786000004000000
B0757063207599S11657196EA0071100794000004000000
B0757103207622S11657152EA0071500798000004000000
B0757143207592S11657107EA0071900802000004000000
B0757183207538S11657117EA0072400806000004000000
B0757213207516S11657163EA0072500810000004000000
B0757263207545S11657230EA0072900816000004000000
B0757303207597S11657234EA0073000810000004000000
B0757343207633S11657189EA0072500813000004000000
B0757383207614S11657134EA0073600821000004000000
B0757423207560S11657118EA0073800817000004000000
B0757463207506S11657151EA0074000822000004000000
B0757503207485S11657217EA0074400827000004000000
B0757543207507S11657277EA0074900833000004000000
B0757583207558S11657298EA0075200835000004000000
B0758023207589S11657256EA0075600837000004000000
B0758063207564S11657198EA0075400832000004000000
B0758103207506S11657186EA0075700840000004000000
B0758143207460S11657231EA0076300846000004000000
B0758183207454S11657299EA0076900853000004000000
B0758223207488S11657347EA0077200857000004000000
B0758263207534S11657338EA0077700860000004000000
B0758303207542S11657282EA0077800860000004000000
B0758343207498S11657251EA0078100865000004000000
B0758383207455S11657290EA0078900873000004000000
B0758423207463S11657354EA0079200876000004000000
B0758463207510S11657372EA0079700880000004000000
B0758503207536S11657326EA0079700877000004000000
B0758543207506S11657277EA0079600879000004000000
B0758583207454S11657287EA0080400886000004000000
B0759023207438S11657351EA0080500888000004000000
B0759063207475S11657395EA0081100894000004000000
B0759103207520S11657380EA0081200893000004000000
B0759143207527S11657321EA0080900888000004000000
B0759183207480S11657286EA0080800891000004000000
B0759223207424S11657304EA0081500899000004000000
B0759263207394S11657358EA0082400906000004000000
B0759303207410S11657420EA0082200905000004000000
B0759343207458S11657446EA0082300907000004000000
B0759383207502S11657419EA0082300904000004000000
B0759423207503S11657358EA0082000904000004000000
B0759463207455S11657320EA0081700904000004000000
B0759503207397S11657341EA0082400912000004000000
B0759543207382S11657407EA0082900917000004000000
B0759583207420S11657452EA0083200919000004000000
B0800023207472S11657441EA0083100916000004000000
B0800063207484S11657382EA0082900917000004000000
B0800103207445S11657332EA0082600914000004015000
B0800143207382S11657321EA0082700917000004015000
B0800183207329S11657358EA0083300923000004000000
B0800223207308S11657424EA0083900929000004000000
B0800263207329S11657484EA0084200932000004000000
B0800303207380S11657508EA0084000927000004000000
B0800343207429S11657482EA0083900925000004000000
B0800383207447S11657420EA0083600922000004000000
B0800423207420S11657355EA0082900918000004000000
B0800463207358S11657322EA0082800919000004000000
B0800503207293S11657346EA0083300924000004000000
B0800543207259S11657411EA0084000932000004000000
B0800583207268S11657477EA0084500937000004000000
B0801023207300S11657527EA0085200943000004000000
B0801063207347S11657546EA0085700947000004000000
B0801103207385S11657517EA0085400942000004000000
B0801143207386S11657456EA0084900936000004000000
B0801183207369S11657391EA0084300931000004000000
B0801223207338S11657334EA0084300935000004000000
B0801263207286S11657324EA0085300944000004000000
B0801303207248S11657377EA0085300939000004000000
B0801343207267S11657442EA0084800936000004000000
B0801383207323S11657458EA0084400932000004000000
B0801423207378S11657428EA0084000927000004000000
B0801463207430S11657387EA0083800925000004000000
B0801503207481S11657342EA0083500923000004000000
B0801543207527S11657294EA0083600926000004000000
B0801583207568S11657248EA0084400939000004000000
B0802023207607S11657204EA0085200943000004000000
B0802063207631S11657152EA0085900951000004000000
B0802103207607S11657099EA0085500943000004000000
B0802143207545S11657075EA0084700938000004000000
B0802183207484S11657088EA0085400944000004000000
B0802223207451S11657146EA0085100939000004000000
B0802263207468S11657212EA0084200931000004000000
B0802303207518S11657252EA0083500925000004000000
B0802343207577S11657269EA0083400923000004000000
B0802383207636S11657257EA0083500927000004000000
B0802423207685S11657225EA0084000931000004000000
B0802463207724S11657181EA0084200932000004000000
B0802503207750S11657127EA0083400921000004000000
B0802543207770S11657066EA0082300911000004000000
B0802583207774S11656996EA0081300901000004000000
B0803023207789S11656923EA0079800889000004000000
B0803063207841S11656874EA0079400884000004000000
B0803103207904S11656856EA0079600889000004000000
B0803143207961S11656845EA0080400897000004000000
B0803183208014S11656835EA0081000899000004000000
B0803223208067S11656823EA0080800895000004000000
B0803263208122S11656812EA0080400890000004000000
B0803303208175S11656796EA0080100887000004000000
B0803343208229S11656779EA0079900884000004000000
B0803383208282S11656756EA0079400877000004000000
B0803423208331S11656715EA0078500867000004000000
B0803463208377S11656667EA0078200867000004000000
B0803503208429S11656630EA0078200870000004000000
B0803543208483S11656610EA0079100878000004000000
B0803583208537S11656593EA0079900882000004000000
B0804023208558S11656542EA0080100886000004000000
B0804063208522S11656492EA0079500877000004000000
B0804103208461S11656487EA0079200876000004000000
B0804143208415S11656529EA0079200878000004000000
B0804183208405S11656593EA0079500881000004000000
B0804223208433S11656644EA0079900887000004000000
B0804263208477S11656670EA0080200887000004000000
B0804303208525S11656657EA0080200888000004000000
B0804343208548S11656605EA0080100887000004000000
B0804383208528S11656544EA0080000887000004000000
B0804423208476S11656511EA0080000886000004000000
B0804463208420S11656526EA0080100885000004000000
B0804503208385S11656579EA0079800884000004000000
B0804543208387S11656644EA0079600884000004000000
B0804583208426S11656687EA0079900888000004000000
B0805023208477S11656678EA0080200888000004000000
B0805063208499S11656624EA0080200889000004000000
B0805103208467S11656574EA0080200888000004000000
B0805143208411S11656579EA0079800884000004000000
B0805183208382S11656636EA0079800887000004000000
B0805223208403S11656691EA0080200891000004000000
B0805263208452S11656698EA0080200887000004000000
B0805303208489S11656657EA0080100885000004000000
B0805343208486S11656593EA0079500882000004000000
B0805383208442S11656548EA0079200878000004000000
B0805423208379S11656553EA0078800873000004000000
B0805463208330S11656597EA0078300869000004000000
B0805503208311S11656666EA0078400874000004000000
B0805543208321S11656734EA0078900877000004000000
B0805583208351S11656791EA0078800874000004000000
B0806023208399S11656831EA0078100867000004000000
B0806063208455S11656865EA0077700865000004000000
B0806103208511S11656892EA0077400862000004000000
B0806143208567S11656913EA0077000857000004000000
B0806183208624S11656931EA0076500854000004000000
B0806223208681S11656944EA0076000847000004000000
B0806263208740S11656960EA0075600845000004000000
B0806303208794S11656981EA0075400843000004000000
B0806343208847S11657000EA0075100839000004000000
B0806383208902S11657017EA0074700835000004000000
B0806423208957S11657027EA0074400832000004000000
B0806463209014S11657029EA0073900825000004000000
B0806503209071S11657027EA0073400821000004000000
B0806543209126S11657020EA0073100816000004000000
B0806583209178S11656999EA0072400805000004000000
B0807023209218S11656948EA0071100794000004000000
B0807063209241S11656877EA0070300787000004000000
B0807103209256S11656800EA0069800786000004000000
B0807143209263S11656723EA0069900786000004000000
B0807183209265S11656649EA0069700783000004000000
B0807223209248S11656576EA0069800786000004000000
B0807263209200S11656532EA0070200788000004000000
B0807303209136S11656522EA0070000786000004000000
B0807343209074S11656539EA0069500783000004000000
B0807383209011S11656563EA0069200779000004000000
B0807423208949S11656587EA0068600776000004000000
B0807463208884S11656605EA0068100770000004000000
B0807503208816S11656617EA0067300761000004000000
B0807543208746S11656622EA0067100762000004000000
B0807583208680S11656630EA0067300765000004000000
B0808023208617S11656648EA0067300762000004000000
B0808063208555S11656667EA0066900757000004000000
B0808103208491S11656685EA0066200752000004000000
B0808143208426S11656708EA0065700749000004000000
B0808183208360S11656728EA0065600748000004000000
B0808223208296S11656748EA0065200745000004000000
B0808263208234S11656770EA0064800741000004000000
B0808303208173S11656793EA0065100746000004000000
B0808343208116S11656813EA0065500749000004000000
B0808383208060S11656825EA0065700750000004000000
B0808423208001S11656830EA0065300745000004000000
B0808463207941S11656828EA0065200743000004000000
B0808503207880S11656823EA0065300744000004000000
B0808543207819S11656819EA0065200740000004000000
B0808583207758S11656828EA0065000739000004000000
B0809023207705S11656869EA0064900738000004000000
B0809063207672S11656932EA0064800742000004000000
B0809103207649S11657000EA0065300748000004000000
B0809143207618S11657062EA0066000752000004000000
B0809183207572S11657112EA0066200754000004000000
B0809223207516S11657131EA0066600756000004000000
B0809263207463S11657111EA0066600757000004000000
B0809303207433S11657060EA0066400753000004000000
B0809343207445S11657005EA0066300751000004000000
B0809383207481S11656968EA0066000750000004000000
B0809423207529S11656955EA0065900750000004000000
B0809463207575S11656981EA0066100751000004000000
B0809503207609S11657033EA0066300753000004000000
B0809543207598S11657098EA0066400755000004000000
B0809583207549S11657130EA0066500751000004000000
B0810023207493S11657105EA0065500744000004000000
B0810063207481S11657039EA0065300741000004000000
B0810103207515S11656986EA0065300739000004000000
B0810143207562S11656943EA0065100740000004000000
B0810183207619S11656934EA0065400749000004000000
B0810223207661S11656971EA0066900763000004000000
B0810263207664S11657033EA0067600763000004000000
B0810303207625S11657081EA0067400760000004000000
B0810343207570S11657088EA0067100758000004000000
B0810383207529S11657042EA0067000756000004000000
B0810423207542S11656981EA0067100758000004000000
B0810463207583S11656936EA0067600764000004000000
B0810503207635S11656923EA0068300774000004000000
B0810543207684S11656942EA0069000780000004000000
B0810583207718S11656990EA0069300782000004000000
B0811023207722S11657056EA0069300781000004000000
B0811063207696S11657118EA0068900776000004000000
B0811103207642S11657152EA0068700777000004000000
B0811143207583S11657142EA0069100778000004000000
B0811183207536S11657100EA0069000775000004000000
B0811223207510S11657039EA0068700772000004000000
B0811263207520S11656975EA0069000779000004000000
B0811303207551S11656923EA0069500786000004000000
B0811343207601S11656903EA0070400794000004000000
B0811383207650S11656918EA0071200800000004000000
B0811423207684S11656969EA0071500804000004000000
B0811463207689S11657036EA0071600805000004000000
B0811503207659S11657098EA0071600804000004000000
B0811543207603S11657120EA0071700804000004000000
B0811583207550S11657090EA0071500803000004000000
B0812023207527S11657030EA0071700803000004000000
B0812063207534S11656965EA0071700805000004000000
B0812103207572S11656922EA0071900806000004000000
B0812143207623S11656916EA0072700814000004000000
B0812183207671S11656943EA0073400819000004000000
B0812223207705S11656992EA0074000826000004000000
B0812263207713S11657059EA0074100824000004000000
B0812303207675S11657111EA0073800821000004000000
B0812343207616S11657112EA0073200815000004000000
B0812383207571S11657066EA0073000813000004000000
B0812423207559S11657001EA0072900812000004000000
B0812463207580S11656944EA0073100816000004000000
B0812503207622S11656908EA0073400822000004000000
B0812543207671S11656887EA0074100825000004000000
B0812583207723S11656900EA0074400830000004000000
B0813023207763S11656942EA0074700831000004000000
B0813063207784S11657001EA0074200826000004000000
B0813103207772S11657069EA0073900825000004000000
B0813143207729S11657116EA0073600821000004000000
B0813183207671S11657118EA0073200816000004000000
B0813223207619S11657079EA0072700810000004000000
B0813263207594S11657018EA0072500813000004000000
B0813303207596S11656956EA0073100818000004000000
B0813343207607S11656895EA0073400821000004000000
B0813383207636S11656847EA0073700825000004000000
B0813423207681S11656834EA0073300818000004000000
B0813463207729S11656858EA0072900816000004000000
B0813503207772S11656896EA0073300822000004000000
B0813543207811S11656939EA0073800826000004000000
B0813583207822S11656999EA0074000828000004000000
B0814023207788S11657047EA0074000821000004000000
B0814063207732S11657055EA0073200817000004000000
B0814103207681S11657027EA0073200817000004000000
B0814143207668S11656971EA0073100814000004000000
B0814183207698S11656929EA0072700812000004000000
B0814223207746S11656914EA0072900815000004000000
B0814263207797S11656903EA0073400820000004000000
B0814303207846S11656896EA0073400819000004000000
B0814343207885S11656931EA0072900815000004000000
B0814383207879S11656990EA0072600810000004000000
B0814423207832S11657029EA0072000805000004000000
B0814463207775S11657051EA0071800801000004000000
B0814503207711S11657059EA0071400797000004000000
B0814543207649S11657060EA0071600802000004000000
B0814583207588S11657064EA0071600801000004000000
B0815023207524S11657069EA0071300797000004000000
B0815063207458S11657075EA0070800796000004000000
B0815103207391S11657082EA0071000796000004000000
B0815143207329S11657091EA0071400803000004000000
B0815183207268S11657107EA0071600802000004000000
B0815223207207S11657126EA0071400802000004000000
B0815263207150S11657155EA0072000807000004000000
B0815303207134S11657220EA0072000807000004000000
B0815343207172S11657267EA0071900804000004000000
B0815383207229S11657257EA0071000795000004000000
B0815423207285S11657222EA0070100788000004000000
B0815463207338S11657185EA0069800786000004000000
B0815503207394S11657151EA0069500784000004000000
B0815543207451S11657122EA0069300782000004000000
B0815583207506S11657099EA0069600788000004000000
B0816023207555S11657078EA0070300791000004000000
B0816063207603S11657059EA0070300789000004000000
B0816103207651S11657040EA0070200789000004000000
B0816143207700S11657023EA0070200789000004000000
B0816183207748S11657008EA0070500793000004000000
B0816223207793S11656994EA0070500790000004000000
B0816263207843S11656979EA0070100782000004000000
B0816303207895S11656957EA0069000770000004000000
B0816343207948S11656932EA0067900764000004000000
B0816383208000S11656906EA0067700762000004000000
B0816423208053S11656883EA0067400760000004000000
B0816463208104S11656857EA0067300756000004000000
B0816503208157S11656832EA0066900752000004000000
B0816543208210S11656809EA0066200746000004000000
B0816583208264S11656786EA0065800743000004000000
B0817023208317S11656762EA0065300737000004000000
B0817063208372S11656740EA0064900734000004000000
B0817103208425S11656717EA0064900734000004000000
B0817143208474S11656691EA0064700731000004000000
B0817183208524S11656659EA0064300725000004000000
B0817223208572S11656617EA0063600722000004000000
B0817263208616S11656571EA0063800725000004000000
B0817303208662S11656523EA0063800723000004000000
B0817343208704S11656476EA0063400721000004000000
B0817383208746S11656429EA0063500721000004000000
B0817423208786S11656385EA0063200716000004000000
B0817463208829S11656340EA0062700712000004000000
B0817503208873S11656294EA0062200708000004000000
B0817543208915S11656246EA0062000706000004000000
B0817583208954S11656201EA0062600715000004000000
B0818023208992S11656156EA0063000718000004000000
B0818063209029S11656112EA0063300720000004000000
B0818103209066S11656069EA0063500722000004000000
B0818143209098S11656022EA0063800727000004000000
B0818183209093S11655964EA0064000729000004000000
B0818223209042S11655937EA0063200720000004000000
B0818263208993S11655968EA0062900718000004000000
B0818303208974S11656026EA0063000721000004000000
B0818343208989S11656081EA0063200724000004000000
B0818383209035S11656100EA0063300724000004000000
B0818423209076S11656059EA0062900721000004000000
B0818463209079S11655990EA0063200725000004000000
B0818503209039S11655937EA0063200726000004000000
B0818543208983S11655931EA0063400722000004000000
B0818583208944S11655980EA0062600717000004000000
B0819023208950S11656042EA0062300718000004000000
B0819063208989S11656077EA0063100727000004000000
B0819103209037S11656081EA0063500728000004000000
B0819143209081S11656051EA0063500728000004000000
B0819183209113S11656002EA0063500729000004000000
B0819223209117S11655941EA0063500728000004000000
B0819263209085S11655889EA0063000721000004000000
B0819303209031S11655872EA0062500714000004000000
B0819343208980S11655899EA0062200715000004000000
B0819383208958S11655957EA0062200714000004000000
B0819423208974S11656016EA0062000711000004000000
B0819463209016S11656052EA0062200714000004000000
B0819503209068S11656054EA0062200715000004000000
B0819543209110S11656015EA0061900709000004000000
B0819583209141S11655956EA0061200701000004000000
B0820023209171S11655898EA0060900701000004000000
B0820063209202S11655840EA0060900701000004000000
B0820103209236S11655786EA0060500695000004000000
B0820143209270S11655729EA0059800689000004000000
B0820183209304S11655671EA0059600689000004000000
B0820223209335S11655613EA0059700689000004000000
B0820263209365S11655553EA0059500687000004000000
B0820303209392S11655493EA0060300695000004000000
B0820343209390S11655431EA0060600699000004000000
B0820383209341S11655398EA0060600695000004000000
B0820423209286S11655424EA0059800688000004000000
B0820463209243S11655476EA0059100684000004000000
B0820503209206S11655536EA0058600680000004000000
B0820543209172S11655595EA0058500682000004000000
B0820583209137S11655649EA0058900684000004000000
B0821023209100S11655700EA0059000685000004000000
B0821063209062S11655746EA0058900680000004000000
B0821103209023S11655791EA0058400675000004000000
B0821143208980S11655833EA0058000669000004000000
B0821183208936S11655874EA0057400666000004000000
B0821223208893S11655916EA0057200664000004000000
B0821263208850S11655959EA0057200665000004000000
B0821303208806S11655999EA0057500667000004000000
B0821343208775S11656045EA0057900670000004000000
B0821383208786S11656095EA0057800666000004000000
B0821423208836S11656104EA0057300663000004000000
B0821463208872S11656056EA0057200665000004000000
B0821503208870S11655986EA0057200665000004000000
B0821543208833S11655928EA0057400666000004000000
B0821583208776S11655904EA0057400665000004000000
B0822023208720S11655926EA0057300664000004000000
B0822063208685S11655981EA0057800669000004000000
B0822103208691S11656041EA0057900671000004000000
B0822143208734S11656071EA0057900671000004000000
B0822183208781S11656046EA0058000672000004000000
B0822223208790S11655982EA0057900671000004000000
B0822263208751S11655931EA0057800670000004000000
B0822303208695S11655934EA0057900670000004000000
B0822343208658S11655980EA0058100672000004000000
B0822383208651S11656035EA0058400675000004000000
B0822423208680S11656078EA0058100671000004000000
B0822463208727S11656074EA0057800669000004000000
B0822503208750S11656019EA0057600666000004000000
B0822543208727S11655955EA0057600666000004000000
B0822583208673S11655928EA0057800669000004000000
B0823023208621S11655946EA0058000671000004000000
B0823063208582S11655990EA0057800666000004000000
B0823103208550S11656043EA0057600666000004000000
B0823143208521S11656098EA0057600669000004000000
B0823183208493S11656152EA0057800670000004000000
B0823223208456S11656202EA0057600666000004000000
B0823263208411S11656241EA0057100657000004000000
B0823303208360S11656276EA0056500652000004000000
B0823343208308S11656311EA0056400652000004000000
B0823383208260S11656349EA0056400651000004000000
B0823423208214S11656390EA0056500650000004000000
B0823463208175S11656440EA0056000650000004000000
B0823503208147S11656496EA0056000649000004000000
B0823543208127S11656557EA0056200651000004000000
B0823583208106S11656614EA0056000646000004000000
B0824023208078S11656669EA0055200639000004000000
B0824063208039S11656714EA0054700634000004000000
B0824103207995S11656754EA0054300630000004000000
B0824143207958S11656802EA0053600623000004000000
B0824183207936S11656862EA0052500613000004000000
B0824223207931S11656931EA0051600605000004000000
B0824263207937S11656996EA0051200602000004000000
B0824303207953S11657057EA0051300603000004000000
B0824343207975S11657113EA0051500604000004000000
B0824383208013S11657152EA0051800607000004000000
B0824423208062S11657150EA0051600602000004000000
B0824463208099S11657104EA0051000599000004000000
B0824503208097S11657038EA0051000598000004000000
B0824543208061S11656987EA0050800597000004000000
B0824583208005S11656979EA0050800595000004000000
B0825023207962S11657018EA0050700596000004000000
B0825063207940S11657075EA0050800599000004000000
B0825103207939S11657138EA0051000600000004000000
B0825143207960S11657192EA0051300604000004000000
B0825183208001S11657218EA0051000600000004000000
B0825223208045S11657195EA0050600596000004000000
B0825263208056S11657138EA0050400594000004000000
B0825303208026S11657087EA0049900590000004000000
B0825343207973S11657072EA0050000591000004000000
B0825383207927S11657100EA0049800589000004000000
B0825423207902S11657153EA0049800592000004000000
B0825463207915S11657207EA0050100592000004000000
B0825503207958S11657228EA0049900589000004000000
B0825543207992S11657190EA0049200582000004000000
B0825583207974S11657131EA0048700578000004000000
B0826023207924S11657116EA0048800577000004000000
B0826063207887S11657159EA0047700566000004000000
B0826103207880S11657226EA0047500567000004000000
B0826143207874S11657291EA0047900569000004000000
B0826183207882S11657354EA0047500562000004000000
B0826223207902S11657417EA0046300551000004000000
B0826263207932S11657484EA0045300543000004000000
B0826303207967S11657547EA0044700539000004000000
B0826343208002S11657607EA0044500536000004000000
B0826383208038S11657667EA0044100532000004000000
B0826423208073S11657725EA0043600526000004000000
B0826463208109S11657783EA0043200523000004000000
B0826503208144S11657839EA0042800520000004000000
B0826543208181S11657896EA0042400513000004000000
B0826583208220S11657953EA0041800508000004000000
B0827023208252S11658011EA0041400505000004000000
B0827063208274S11658079EA0041000501000004000000
B0827103208277S11658152EA0040400493000004000000
B0827143208252S11658223EA0039900489000004000000
B0827183208200S11658269EA0039500484000004000000
B0827223208130S11658271EA0038900474000004000000
B0827263208062S11658235EA0038000465000004000000
B0827303208004S11658184EA0037600462000004000000
B0827343207947S11658135EA0037300459000004000000
B0827383207891S11658087EA0037000457000004000000
B0827423207833S11658043EA0036700454000004000000
B0827463207776S11658002EA0036600452000004000000
B0827503207719S11657963EA0036100447000004000000
B0827543207658S11657927EA0035400443000004000000
B0827583207598S11657893EA0035100438000004000000
B0828023207537S11657862EA0034700435000004000000
B0828063207477S11657831EA0034700433000004000000
B0828103207416S11657800EA0034300429000004000000
B0828143207355S11657768EA0034100428000004000000
B0828183207295S11657737EA0034000429000004000000
B0828223207235S11657716EA0033800427000004000000
B0828263207173S11657706EA0033200418000004000000
B0828303207111S11657684EA0032600412000004000000
B0828343207053S11657649EA0032100408000004000000
B0828383207001S11657605EA0031600403000004000000
B0828423206949S11657559EA0031200399000004000000
B0828463206896S11657514EA0030600394000004000000
B0828503206840S11657469EA0030200392000004000000
B0828543206784S11657426EA0029600385000004000000
B0828583206732S11657378EA0029200381000004000000
B0829023206691S11657321EA0028700376000004000000
B0829063206656S11657256EA0028300371000004000000
B0829103206624S11657190EA0027900366000004000000
B0829143206593S11657121EA0027000356000004000000
B0829183206572S11657044EA0026100351000004000000
B0829223206559S11656968EA0026000349000004000000
B0829263206549S11656891EA0025500347000004000000
B0829303206539S11656814EA0025500347000004000000
B0829343206526S11656739EA0025200344000004000000
B0829383206510S11656662EA0025000342000004000000
B0829423206501S11656585EA0024500337000004000000
B0829463206523S11656514EA0024300333000004000000
B0829503206571S11656471EA0023700327000004000000
B0829543206631S11656464EA0023100322000004000000
B0829583206684S11656489EA0023200323000004000000
B0830023206736S11656518EA0022500314000004000000
B0830063206788S11656545EA0021500303000004000000
B0830103206838S11656574EA0020600291000004000000
B0830143206887S11656605EA0019200277000004000000
B0830183206938S11656636EA0017700263000004000000
B0830223206988S11656669EA0016200248000004000000
B0830263207039S11656701EA0014700232000004000000
B0830303207092S11656731EA0013200220000004000000
B0830343207143S11656760EA0012200210000004000000
B0830383207189S11656788EA0011600206000004000000
B0830423207228S11656812EA0011400205000004000000
B0830463207261S11656831EA0011300205000004000000
B0830503207287S11656845EA0011100205000004000000
B0830543207304S11656852EA0011300205000004000000
B0830583207316S11656853EA0011300205000004000000
B0831023207323S11656853EA0011400205000004000000
B0831063207326S11656852EA0011400205000004000000
B0831103207326S11656852EA0011300204000004000000
B0831143207326S11656852EA0011400204000004000000
B0831183207326S11656852EA0011300204000004000000
B0831223207326S11656852EA0011400204000004000000
B0831263207326S11656852EA0011400204000004000000
G00030000009FFB977B0000000000000000000000000000000000000000000000
GA83E09A33A601219D21DF233679B3E34298C668200000000A50206D9F0832628
G2DBE964B3A83D3B8ACD10BAD9D56CC795268A40A0000000000000000AEBD6B07
