ACAM4N6
HFDTE200215
HFFXA050
HFPLTPILOT:JOHN WELSH              
HFGTYGLIDERTYPE:HORNET      
HFGIDGLIDERID:VH-GMY      
HFDTM100GPSDATUM:
HFRFWFIRMWAREVERSION:F2.6
HFRHWHARDWAREVERSION:300 Series Version 2
HFFTYFRTYPE:CAMBRIDGE AERO INSTRUMENTS, 302+
HFGPS:GARMIN,LVS-25,12,18000
HFPRSPRESSALTSENSOR:INTERSEMA, MS5534-AP, 20000
I033638FXA3941ENL4247REX
LCAMSBVER:5FWVER:F26300
C200215043540200215000102
C0000000N00000000WTAKEOFF     
C3207549S11656849EBEVAIR      
C3152966S11809465EBRUCERCK    
C3111999S11722999EWyalkatchem 
C3207549S11656849EBEVAIR      
C0000000N00000000WLANDING     
B0440433207339S11656858EA0021500197000000000000
B0440453207339S11656858EA0021500197000000000000
B0440473207339S11656858EA0021500197000000000000
B0440493207339S11656858EA0021500197000000000000
B0440513207339S11656858EA0021500197000000000000
B0440533207339S11656858EA0021500197000000000000
B0440553207339S11656858EA0021500197000000000000
B0440573207339S11656858EA0021500197000000000000
B0440593207339S11656858EA0021400197000000000000
B0441013207339S11656858EA0021500197000000000000
B0441033207339S11656858EA0021500197000000000000
B0441053207339S11656858EA0021400197000000000000
B0441073207339S11656858EA0021500197000000000000
B0441093207339S11656858EA0021500197000000000000
B0441113207342S11656860EA0021600197000000000000
B0441163207358S11656873EA0021400195000000000000
B0441203207388S11656897EA0021300194000000000000
B0441243207436S11656929EA0021500193000000000000
B0441283207494S11656965EA0021200192000000000000
B0441323207560S11657007EA0021400195000000000000
B0441363207628S11657053EA0022400204000000000000
B0441403207701S11657101EA0022900211000000000000
B0441443207776S11657151EA0024100225000000000000
B0441483207846S11657194EA0026000254000000000000
B0441523207913S11657239EA0028500273000000000000
B0441563207979S11657287EA0030000287000000000000
B0442003208048S11657329EA0031800309000000000000
B0442043208116S11657369EA0033400327000000000000
B0442083208181S11657413EA0035100347000000000000
B0442123208244S11657462EA0036700364000000000000
B0442163208303S11657524EA0038500382000000000000
B0442203208347S11657603EA0040400398000000000000
B0442243208369S11657696EA0041900412000000000000
B0442283208365S11657792EA0043400428000000000000
B0442323208347S11657885EA0045000441000000000000
B0442363208325S11657979EA0045800449000000000000
B0442403208300S11658075EA0046500455000000000000
B0442443208275S11658170EA0047600471000000000000
B0442483208246S11658268EA0048700481000000000000
B0442523208212S11658365EA0049500490000000000000
B0442563208169S11658456EA0051000508000000000000
B0443003208114S11658534EA0052900529000000000000
B0443043208053S11658609EA0054600544000000000000
B0443083207991S11658684EA0056400568000000000000
B0443123207927S11658756EA0058000585000000000000
B0443163207859S11658821EA0059500605000000000000
B0443203207784S11658868EA0061600630000000000000
B0443243207700S11658875EA0063900651000000000000
B0443283207624S11658838EA0066000674000000000000
B0443323207571S11658769EA0068700704000000000000
B0443363207536S11658694EA0071100725000000000000
B0443403207473S11658672EA0072400739000000000000
B0443443207428S11658726EA0072900740000000000000
B0443483207436S11658810EA0073000743000000000000
B0443523207489S11658854EA0073600751000000000000
B0443563207540S11658824EA0074900763000000000000
B0444003207538S11658760EA0075200767000000000000
B0444043207481S11658738EA0076000775000000000000
B0444083207430S11658784EA0076200778000000000000
B0444123207442S11658856EA0076900785000000000000
B0444163207497S11658877EA0077800795000000030000
B0444203207540S11658837EA0078300802000000015000
B0444243207542S11658772EA0078700813000000015000
B0444283207501S11658725EA0079700820000000015000
B0444323207438S11658723EA0079400813000000015000
B0444363207391S11658775EA0079400814000000015000
B0444403207382S11658849EA0079200814000000000000
B0444443207411S11658916EA0079700819000000000000
B0444483207464S11658921EA0080300824000000015000
B0444523207489S11658864EA0080300825000000000000
B0444563207451S11658812EA0080800832000000000000
B0445003207389S11658821EA0081600837000000000000
B0445043207347S11658881EA0081800840000000000000
B0445083207355S11658958EA0082100843000000000000
B0445123207406S11658985EA0082600848000000015000
B0445163207443S11658938EA0083100856000000015000
B0445203207429S11658876EA0083700864000000015000
B0445243207373S11658846EA0084300868000000015000
B0445283207311S11658872EA0084300870000000015000
B0445323207280S11658945EA0084500872000000015000
B0445363207297S11659019EA0084500873000000015000
B0445403207349S11659054EA0084600875000000015000
B0445443207406S11659033EA0085100881000000015000
B0445483207425S11658973EA0086400897000000000000
B0445523207385S11658934EA0087900910000000015000
B0445563207336S11658968EA0088700918000000015000
B0446003207333S11659036EA0089300919000000015000
B0446043207377S11659072EA0089300927000000015000
B0446083207421S11659048EA0090300937000000015000
B0446123207410S11658994EA0091100945000000015000
B0446163207356S11658992EA0092000953000000015000
B0446203207334S11659053EA0092700957000000000000
B0446243207371S11659102EA0092700959000000000000
B0446283207419S11659081EA0093600969000000015000
B0446323207404S11659027EA0094600981000000015000
B0446363207347S11659025EA0095400988000000000000
B0446403207312S11659081EA0096200996000000000000
B0446443207330S11659144EA0096500999000000000000
B0446483207382S11659154EA0097301008000000015000
B0446523207406S11659105EA0098001017000000000000
B0446563207368S11659064EA0098801025000000000000
B0447003207316S11659097EA0100001032000000000000
B0447043207313S11659165EA0100201037000000015000
B0447083207359S11659200EA0101001047000000030000
B0447123207404S11659178EA0102001057000000015000
B0447163207423S11659127EA0103101071000000015000
B0447203207406S11659079EA0103801079000000015000
B0447243207355S11659063EA0104401083000000015000
B0447283207304S11659102EA0105001085000000000000
B0447323207294S11659172EA0105201089000000000000
B0447363207326S11659230EA0105801094000000015000
B0447403207380S11659236EA0106401102000000015000
B0447443207406S11659187EA0107101109000000015000
B0447483207382S11659132EA0107801117000000000000
B0447523207325S11659115EA0108901125000000000000
B0447563207282S11659165EA0109701130000000000000
B0448003207286S11659239EA0110101138000000000000
B0448043207330S11659288EA0111001149000000000000
B0448083207388S11659291EA0111501158000000000000
B0448123207424S11659244EA0112301163000000000000
B0448163207419S11659180EA0112601168000000000000
B0448203207369S11659141EA0113301176000000000000
B0448243207308S11659162EA0114701191000000000000
B0448283207274S11659226EA0115701198000000000000
B0448323207286S11659301EA0116001203000000000000
B0448363207336S11659341EA0116901211000000000000
B0448403207388S11659324EA0117401217000000000000
B0448443207410S11659267EA0117801221000000000000
B0448483207384S11659211EA0118401228000000000000
B0448523207326S11659204EA0119501243000000000000
B0448563207293S11659263EA0121201256000000000000
B0449003207320S11659322EA0121901265000000000000
B0449043207371S11659319EA0122901278000000000000
B0449083207389S11659266EA0123101279000000000000
B0449123207362S11659211EA0123301283000000000000
B0449163207302S11659197EA0124401296000000000000
B0449203207250S11659235EA0125401306000000000000
B0449243207230S11659304EA0125601304000000000000
B0449283207258S11659369EA0125901310000000000000
B0449323207310S11659386EA0127001322000000000000
B0449363207345S11659345EA0127801328000000000000
B0449403207332S11659287EA0128801339000000000000
B0449443207278S11659267EA0130101355000000000000
B0449483207235S11659314EA0131701366000000000000
B0449523207235S11659383EA0131701364000000000000
B0449563207280S11659430EA0131801371000000000000
B0450003207330S11659426EA0132801379000000000000
B0450043207352S11659376EA0133801386000000000000
B0450083207325S11659332EA0134601397000000000000
B0450123207271S11659348EA0135701409000000000000
B0450163207255S11659417EA0136701418000000000000
B0450203207291S11659469EA0137501425000000000000
B0450243207341S11659462EA0137801430000000000000
B0450283207365S11659412EA0138101433000000000000
B0450323207343S11659357EA0138301439000000000000
B0450363207287S11659349EA0139301451000000000000
B0450403207261S11659412EA0140701465000000000000
B0450443207297S11659464EA0142001477000000000000
B0450483207347S11659457EA0142801485000000000000
B0450523207364S11659408EA0143001486000000000000
B0450563207329S11659363EA0143301491000000000000
B0451003207276S11659378EA0144501502000000000000
B0451043207247S11659439EA0145201510000000000000
B0451083207271S11659501EA0145901517000000000000
B0451123207321S11659508EA0146701526000000000000
B0451163207345S11659461EA0147201531000000000000
B0451203207319S11659417EA0147701537000000000000
B0451243207267S11659409EA0148001536000000000000
B0451283207215S11659445EA0147901531000000000000
B0451323207183S11659514EA0147601532000000000000
B0451363207199S11659584EA0148001533000000000000
B0451403207254S11659621EA0148201536000000000000
B0451443207306S11659603EA0148701545000000000000
B0451483207307S11659547EA0149101549000000000000
B0451523207255S11659527EA0149601557000000000000
B0451563207212S11659574EA0150401559000000000000
B0452003207217S11659648EA0150401559000000000000
B0452043207264S11659694EA0150501563000000000000
B0452083207320S11659694EA0150501563000000000000
B0452123207360S11659656EA0150401561000000000000
B0452163207386S11659601EA0149201543000000000000
B0452203207412S11659534EA0147001524000000000000
B0452243207434S11659460EA0146001514000000000000
B0452283207456S11659383EA0145201504000000000000
B0452323207477S11659306EA0144301495000000000000
B0452363207497S11659228EA0143301485000000000000
B0452403207516S11659150EA0142601479000000000000
B0452443207537S11659072EA0142001471000000000000
B0452483207557S11658993EA0141101459000000000000
B0452523207576S11658910EA0139701445000000000000
B0452563207596S11658827EA0138801436000000000000
B0453003207612S11658741EA0137901428000000000000
B0453043207628S11658656EA0137601422000000000000
B0453083207644S11658572EA0137001417000000000000
B0453123207659S11658486EA0136301409000000000000
B0453163207674S11658399EA0135301399000000000000
B0453203207688S11658312EA0134101387000000000000
B0453243207701S11658225EA0133601385000000000000
B0453283207711S11658140EA0133601386000000000000
B0453323207718S11658056EA0133501384000000000000
B0453363207722S11657972EA0133301382000000000000
B0453403207726S11657887EA0132701367000000000000
B0453443207731S11657800EA0131401358000000000000
B0453483207736S11657711EA0130401351000000000000
B0453523207740S11657624EA0129701345000000000000
B0453563207746S11657538EA0129601343000000000000
B0454003207754S11657454EA0129401339000000000000
B0454043207761S11657371EA0128601332000000000000
B0454083207766S11657289EA0128001326000000000000
B0454123207774S11657211EA0127801322000000000000
B0454163207781S11657134EA0127401315000000000000
B0454203207788S11657055EA0126401304000000000000
B0454243207791S11656971EA0125401295000000000000
B0454283207776S11656890EA0124701289000000000000
B0454323207749S11656813EA0124301288000000000000
B0454363207706S11656753EA0124601292000000000000
B0454403207651S11656714EA0124601290000000000000
B0454443207586S11656701EA0124001282000000000000
B0454483207523S11656726EA0123801278000000000000
B0454523207479S11656793EA0123001269000000000000
B0454563207451S11656880EA0121901263000000000000
B0455003207428S11656968EA0122101266000000000000
B0455043207404S11657055EA0122101264000000000000
B0455083207384S11657140EA0121901262000000000000
B0455123207363S11657229EA0121601257000000000000
B0455163207341S11657319EA0121101255000000000000
B0455203207319S11657410EA0120701250000000000000
B0455243207299S11657501EA0119901240000000000000
B0455283207284S11657595EA0118901226000000000000
B0455323207276S11657693EA0117601214000000000000
B0455363207271S11657794EA0116301200000000000000
B0455403207267S11657894EA0115101189000000000000
B0455443207265S11657997EA0114601185000000000000
B0455483207265S11658099EA0114701191000000000000
B0455523207268S11658193EA0115501201000000000000
B0455563207278S11658281EA0116701210000000000000
B0456003207291S11658361EA0118001220000000000000
B0456043207304S11658438EA0118101221000000000000
B0456083207319S11658516EA0118001215000000000000
B0456123207317S11658598EA0117101205000000000000
B0456163207298S11658681EA0115701192000000000000
B0456203207261S11658760EA0114901185000000000000
B0456243207230S11658846EA0114101178000000000000
B0456283207209S11658937EA0113301172000000000000
B0456323207193S11659028EA0112501161000000000000
B0456363207169S11659122EA0111501149000000000000
B0456403207138S11659213EA0110401139000000000000
B0456443207104S11659304EA0109501132000000000000
B0456483207069S11659392EA0108601124000000000000
B0456523207033S11659479EA0107901120000000000000
B0456563206999S11659562EA0108001118000000000000
B0457003206970S11659647EA0107901117000000000000
B0457043206957S11659737EA0107701116000000000000
B0457083206949S11659822EA0107901118000000000000
B0457123206949S11659906EA0107901115000000000000
B0457163206948S11659991EA0107501110000000000000
B0457203206939S11700078EA0107101107000000000000
B0457243206931S11700164EA0107201113000000000000
B0457283206931S11700246EA0108601127000000000000
B0457323206972S11700292EA0109401134000000000000
B0457363207014S11700255EA0109201136000000000000
B0457403207011S11700189EA0109601137000000000000
B0457443206964S11700142EA0109601140000000000000
B0457483206900S11700142EA0110101142000000000000
B0457523206862S11700202EA0110201141000000000000
B0457563206882S11700276EA0109901139000000000000
B0458003206936S11700309EA0110501144000000000000
B0458043206970S11700262EA0110701149000000000000
B0458083206944S11700202EA0110501143000000000000
B0458123206881S11700197EA0110901153000000000000
B0458163206839S11700253EA0112001161000000000000
B0458203206845S11700327EA0111701157000000000000
B0458243206899S11700346EA0111701165000000015000
B0458283206930S11700294EA0111201162000000000000
B0458323206907S11700229EA0110701155000000000000
B0458363206847S11700198EA0111201159000000000000
B0458403206779S11700207EA0111001150000000000000
B0458443206718S11700257EA0109801136000000000000
B0458483206669S11700328EA0108801130000000000000
B0458523206626S11700406EA0108401127000000000000
B0458563206585S11700491EA0107301111000000000000
B0459003206546S11700582EA0106001099000000000000
B0459043206510S11700676EA0105001081000000000000
B0459083206472S11700774EA0103501068000000000000
B0459123206432S11700866EA0102301058000000000000
B0459163206389S11700957EA0101401049000000000000
B0459203206346S11701046EA0101201048000000000000
B0459243206303S11701129EA0100701042000000000000
B0459283206260S11701212EA0099401024000000000000
B0459323206214S11701295EA0097901010000000000000
B0459363206167S11701380EA0096700999000000000000
B0459403206120S11701463EA0096000991000000000000
B0459443206072S11701549EA0095400983000000000000
B0459483206023S11701631EA0094800983000000000000
B0459523205973S11701711EA0094800985000000000000
B0459563205924S11701791EA0095200989000000000000
B0500003205874S11701870EA0095200987000000000000
B0500043205821S11701949EA0095100985000000000000
B0500083205768S11702027EA0095400988000000000000
B0500123205707S11702100EA0095600991000000000000
B0500163205672S11702184EA0096401001000000000000
B0500203205711S11702244EA0097401007000000000000
B0500243205763S11702218EA0097701009000000015000
B0500283205769S11702151EA0097801015000000015000
B0500323205720S11702123EA0099001029000000000000
B0500363205668S11702168EA0099601027000000000000
B0500403205664S11702247EA0099101022000000000000
B0500443205711S11702287EA0099301034000000000000
B0500483205752S11702259EA0099701038000000000000
B0500523205743S11702203EA0099901037000000000000
B0500563205688S11702184EA0100201041000000000000
B0501003205634S11702227EA0100501039000000000000
B0501043205622S11702304EA0100201039000000000000
B0501083205660S11702360EA0100301040000000000000
B0501123205713S11702356EA0100001037000000000000
B0501163205764S11702327EA0099501034000000000000
B0501203205813S11702287EA0099701037000000000000
B0501243205824S11702225EA0100401044000000000000
B0501283205770S11702200EA0101101051000000000000
B0501323205733S11702269EA0101801059000000000000
B0501363205760S11702342EA0101901060000000000000
B0501403205820S11702351EA0102301069000000000000
B0501443205856S11702300EA0103501081000000000000
B0501483205838S11702240EA0104701091000000000000
B0501523205777S11702233EA0105801098000000000000
B0501563205737S11702294EA0106201099000000000000
B0502003205755S11702370EA0105901094000000000000
B0502043205817S11702394EA0106201103000000000000
B0502083205867S11702353EA0106901112000000000000
B0502123205868S11702290EA0107701123000000000000
B0502163205817S11702248EA0108601128000000000000
B0502203205752S11702270EA0109501138000000000000
B0502243205725S11702343EA0110701147000000000000
B0502283205751S11702412EA0111001148000000000000
B0502323205808S11702428EA0111501157000000000000
B0502363205847S11702383EA0112201167000000000000
B0502403205834S11702325EA0113001171000000000000
B0502443205774S11702308EA0113501178000000000000
B0502483205731S11702368EA0114701190000000000000
B0502523205738S11702443EA0115301195000000000000
B0502563205789S11702478EA0115801200000000000000
B0503003205837S11702450EA0116001205000000000000
B0503043205841S11702386EA0116501209000000000000
B0503083205791S11702347EA0116801215000000000000
B0503123205730S11702369EA0118101226000000000000
B0503163205704S11702439EA0119001232000000000000
B0503203205731S11702507EA0118801230000000000000
B0503243205787S11702522EA0119201236000000000000
B0503283205828S11702480EA0119501240000000000000
B0503323205812S11702421EA0120101242000000000000
B0503363205752S11702399EA0120201243000000000000
B0503403205695S11702439EA0121101256000000000000
B0503443205688S11702517EA0121901258000000000000
B0503483205733S11702572EA0121501253000000000000
B0503523205794S11702564EA0121701261000000000000
B0503563205825S11702509EA0122201266000000000000
B0504003205799S11702450EA0122401266000000000000
B0504043205733S11702430EA0122601271000000000000
B0504083205673S11702473EA0123401283000000000000
B0504123205675S11702551EA0124701295000000000000
B0504163205729S11702577EA0125201299000000000000
B0504203205773S11702538EA0124701296000000000000
B0504243205765S11702474EA0124801298000000000000
B0504283205709S11702446EA0125801310000000000000
B0504323205649S11702478EA0126601315000000000000
B0504363205617S11702554EA0126301309000000000000
B0504403205588S11702642EA0125201299000000000000
B0504443205551S11702733EA0124101288000000000000
B0504483205505S11702821EA0123501279000000000000
B0504523205456S11702909EA0122601270000000000000
B0504563205405S11702994EA0121701261000000000000
B0505003205352S11703079EA0120901251000000000000
B0505043205297S11703159EA0120001242000000000000
B0505083205241S11703237EA0119201236000000000000
B0505123205187S11703314EA0118601231000000000000
B0505163205131S11703388EA0117901222000000000000
B0505203205072S11703461EA0117601218000000000000
B0505243205015S11703531EA0117101217000000000000
B0505283204959S11703600EA0116701209000000000000
B0505323204901S11703669EA0116101204000000000000
B0505363204849S11703741EA0115701202000000000000
B0505403204804S11703819EA0115801200000000000000
B0505443204767S11703904EA0115701201000000000000
B0505483204732S11703990EA0116501210000000000000
B0505523204708S11704075EA0118501232000000000000
B0505563204746S11704137EA0119901243000000000000
B0506003204801S11704112EA0120401247000000000000
B0506043204797S11704046EA0120901257000000000000
B0506083204741S11704020EA0122301269000000000000
B0506123204693S11704071EA0123301279000000000000
B0506163204699S11704151EA0124001284000000000000
B0506203204751S11704185EA0124801295000000000000
B0506243204799S11704154EA0125501302000000000000
B0506283204794S11704094EA0125701305000000000000
B0506323204738S11704067EA0126701315000000000000
B0506363204685S11704108EA0127801324000000000000
B0506403204678S11704189EA0128201327000000000000
B0506443204730S11704228EA0128501336000000000000
B0506483204778S11704190EA0129101344000000000000
B0506523204778S11704128EA0130001355000000000000
B0506563204736S11704082EA0130501360000000000000
B0507003204671S11704092EA0131001358000000000000
B0507043204630S11704162EA0130601358000000000000
B0507083204648S11704242EA0131601366000000000000
B0507123204703S11704279EA0132401374000000000000
B0507163204752S11704253EA0132601376000000000000
B0507203204756S11704192EA0132701376000000000000
B0507243204702S11704159EA0132701376000000000000
B0507283204635S11704177EA0132801376000000000000
B0507323204581S11704235EA0132301374000000000000
B0507363204535S11704310EA0132401377000000000000
B0507403204494S11704393EA0132701380000000000000
B0507443204451S11704475EA0132901380000000000000
B0507483204425S11704561EA0133601388000000000000
B0507523204455S11704634EA0134501399000000000000
B0507563204518S11704643EA0135101411000000000000
B0508003204552S11704593EA0136001421000000000000
B0508043204530S11704537EA0136501422000000000000
B0508083204473S11704522EA0136301417000000000000
B0508123204413S11704565EA0135801412000000000000
B0508163204370S11704638EA0135401411000000000000
B0508203204361S11704722EA0136001417000000000000
B0508243204381S11704808EA0135601408000000000000
B0508283204391S11704903EA0134601400000000000000
B0508323204388S11705000EA0134701402000000000000
B0508363204372S11705095EA0134401393000000000000
B0508403204344S11705187EA0133401387000000000000
B0508443204310S11705277EA0132901379000000000000
B0508483204274S11705367EA0131801367000000000000
B0508523204235S11705457EA0130801356000000000000
B0508563204196S11705548EA0129801344000000000000
B0509003204154S11705637EA0128301331000000000000
B0509043204112S11705728EA0127001318000000000000
B0509083204070S11705817EA0126301310000000000000
B0509123204030S11705901EA0125801302000000000000
B0509163203992S11705986EA0124601285000000000000
B0509203203956S11706073EA0123301276000000000000
B0509243203917S11706159EA0123201278000000000000
B0509283203880S11706243EA0123701284000000000000
B0509323203875S11706328EA0124401288000000000000
B0509363203918S11706387EA0123501277000000000000
B0509403203961S11706454EA0123001268000000000000
B0509443203979S11706539EA0122301264000000000000
B0509483203957S11706625EA0122201266000000000000
B0509523203920S11706702EA0122101260000000000000
B0509563203881S11706783EA0121101250000000000000
B0510003203841S11706867EA0121101254000000000000
B0510043203803S11706952EA0120701244000000000000
B0510083203766S11707041EA0119701233000000000000
B0510123203728S11707130EA0118801226000000000000
B0510163203692S11707218EA0118101222000000000000
B0510203203655S11707305EA0117801217000000000000
B0510243203619S11707392EA0116701198000000000000
B0510283203582S11707485EA0114901189000000000000
B0510323203551S11707576EA0115101191000000000000
B0510363203520S11707664EA0115501198000000000000
B0510403203508S11707756EA0116301204000000000000
B0510443203554S11707812EA0117501213000000000000
B0510483203599S11707776EA0118001224000000000000
B0510523203585S11707722EA0117801222000000000000
B0510563203532S11707716EA0118201226000000000000
B0511003203484S11707759EA0118301225000000000000
B0511043203450S11707829EA0117701219000000000000
B0511083203423S11707910EA0117801222000000000000
B0511123203438S11707989EA0118201226000000000000
B0511163203494S11708001EA0118701234000000000000
B0511203203507S11707946EA0120001247000000000000
B0511243203459S11707928EA0120801253000000000000
B0511283203415S11707979EA0120601248000000000000
B0511323203428S11708058EA0120401247000000000000
B0511363203481S11708081EA0121701266000000000000
B0511403203508S11708038EA0123101275000000000000
B0511443203473S11708001EA0123001274000000000000
B0511483203416S11708024EA0123101275000000000000
B0511523203397S11708098EA0123301276000000000000
B0511563203433S11708157EA0123801286000000000000
B0512003203481S11708146EA0125201303000000000000
B0512043203486S11708096EA0126001303000000000000
B0512083203438S11708075EA0126001303000000000000
B0512123203385S11708115EA0125801302000000000000
B0512163203365S11708193EA0126101303000000000000
B0512203203397S11708257EA0126701312000000000000
B0512243203451S11708258EA0127701326000000000000
B0512283203467S11708209EA0128801335000000000000
B0512323203428S11708168EA0128801330000000000000
B0512363203368S11708192EA0128601330000000000000
B0512403203342S11708268EA0128701331000000000000
B0512443203371S11708336EA0129201340000000000000
B0512483203424S11708336EA0130101352000000000000
B0512523203428S11708284EA0130801356000000000000
B0512563203371S11708271EA0130901355000000000000
B0513003203317S11708322EA0130901356000000000000
B0513043203299S11708404EA0131101358000000000000
B0513083203329S11708478EA0131101357000000000000
B0513123203385S11708487EA0131701364000000000000
B0513163203416S11708439EA0131701365000000000000
B0513203203390S11708385EA0132301373000000000000
B0513243203330S11708371EA0132901376000000000000
B0513283203272S11708413EA0132801374000000000000
B0513323203239S11708491EA0132801373000000000000
B0513363203225S11708580EA0132601374000000000000
B0513403203235S11708664EA0132401369000000000000
B0513443203268S11708740EA0131301356000000000000
B0513483203300S11708820EA0130401348000000000000
B0513523203326S11708905EA0129601334000000000000
B0513563203342S11708998EA0128301322000000000000
B0514003203352S11709098EA0126601302000000000000
B0514043203348S11709201EA0124701287000000000000
B0514083203339S11709303EA0123701277000000000000
B0514123203326S11709403EA0122801269000000000000
B0514163203312S11709502EA0122301264000000000000
B0514203203293S11709597EA0121401254000000000000
B0514243203270S11709691EA0120801247000000000000
B0514283203242S11709782EA0120501247000000000000
B0514323203215S11709869EA0120701251000000000000
B0514363203204S11709956EA0121801264000000000000
B0514403203235S11710029EA0122701270000000000000
B0514443203298S11710061EA0123101274000000000000
B0514483203352S11710027EA0123701282000000000000
B0514523203342S11709968EA0124001281000000000000
B0514563203282S11709949EA0123301274000000000000
B0515003203226S11709986EA0123401277000000000000
B0515043203191S11710053EA0123601281000000000000
B0515083203165S11710130EA0123601279000000000000
B0515123203144S11710213EA0123401275000000000000
B0515163203126S11710302EA0123001267000000000000
B0515203203109S11710397EA0121601251000000000000
B0515243203094S11710495EA0120401246000000000000
B0515283203077S11710592EA0120401246000000000000
B0515323203064S11710686EA0120201241000000000000
B0515363203052S11710781EA0119201231000000000000
B0515403203042S11710878EA0118201221000000000000
B0515443203027S11710975EA0117201211000000000000
B0515483203012S11711073EA0116701203000000000000
B0515523202996S11711171EA0115701195000000000000
B0515563202978S11711269EA0115101191000000000000
B0516003202961S11711365EA0114601181000000000000
B0516043202943S11711465EA0113501172000000000000
B0516083202925S11711563EA0113001163000000000000
B0516123202909S11711663EA0112001154000000000000
B0516163202896S11711763EA0110901143000000000000
B0516203202883S11711863EA0109901131000000000000
B0516243202869S11711964EA0109201121000000000000
B0516283202856S11712064EA0108301113000000000000
B0516323202844S11712165EA0107801108000000000000
B0516363202830S11712263EA0107101101000000000000
B0516403202815S11712363EA0106201089000000000000
B0516443202799S11712467EA0105101080000000000000
B0516483202782S11712573EA0104101069000000000000
B0516523202763S11712678EA0103201059000000000000
B0516563202744S11712783EA0102201048000000000000
B0517003202724S11712889EA0101501041000000000000
B0517043202706S11712991EA0101101037000000000000
B0517083202687S11713094EA0100201029000000000000
B0517123202667S11713194EA0099501018000000000000
B0517163202650S11713296EA0098201006000000000000
B0517203202632S11713396EA0097100994000000000000
B0517243202615S11713496EA0096100986000000000000
B0517283202601S11713592EA0095700981000000000000
B0517323202588S11713686EA0095300973000000000000
B0517363202576S11713778EA0094500967000000000000
B0517403202571S11713870EA0093500952000000000000
B0517443202565S11713965EA0092200944000000000000
B0517483202549S11714060EA0092100945000000000000
B0517523202531S11714155EA0092100948000000000000
B0517563202492S11714237EA0092800952000000000000
B0518003202425S11714251EA0093100956000000000000
B0518043202368S11714215EA0092800945000000000000
B0518083202302S11714217EA0091200928000000000000
B0518123202251S11714284EA0090300922000000000000
B0518163202233S11714375EA0089300911000000000000
B0518203202223S11714471EA0088200903000000000000
B0518243202214S11714570EA0087700896000000000000
B0518283202204S11714668EA0086400883000000000000
B0518323202195S11714768EA0085300874000000000000
B0518363202190S11714867EA0084400866000000000000
B0518403202189S11714965EA0084000863000000000000
B0518443202190S11715062EA0083400854000000000000
B0518483202194S11715160EA0082500845000000000000
B0518523202195S11715257EA0081600834000000000000
B0518563202195S11715355EA0080500823000000000000
B0519003202194S11715451EA0079900821000000000000
B0519043202190S11715542EA0080400821000000000000
B0519083202188S11715634EA0079600816000000000000
B0519123202217S11715706EA0080900834000000000000
B0519163202264S11715685EA0081800844000000000000
B0519203202247S11715625EA0082000850000000000000
B0519243202191S11715617EA0082400848000000000000
B0519283202147S11715669EA0081500840000000000000
B0519323202142S11715747EA0081700846000000000000
B0519363202185S11715792EA0082400852000000000000
B0519403202224S11715750EA0083000859000000000000
B0519443202194S11715703EA0083700867000000000000
B0519483202137S11715716EA0083900865000000000000
B0519523202113S11715784EA0084100870000000000000
B0519563202155S11715821EA0084900884000000000000
B0520003202193S11715782EA0084900881000000000000
B0520043202164S11715736EA0085300890000000000000
B0520083202111S11715755EA0085800886000000000000
B0520123202100S11715824EA0086000892000000015000
B0520163202143S11715853EA0086900898000000015000
B0520203202177S11715811EA0086700897000000015000
B0520243202142S11715768EA0087100904000000015000
B0520283202087S11715794EA0087100898000000000000
B0520323202082S11715863EA0087600905000000015000
B0520363202129S11715884EA0088200909000000015000
B0520403202155S11715834EA0088400916000000015000
B0520443202110S11715802EA0088900917000000015000
B0520483202058S11715833EA0088900915000000000000
B0520523202048S11715902EA0089000917000000000000
B0520563202095S11715933EA0089600924000000000000
B0521003202139S11715901EA0090000928000000000000
B0521043202117S11715846EA0090500934000000000000
B0521083202061S11715849EA0090600935000000000000
B0521123202025S11715906EA0090900936000000000000
B0521163202033S11715977EA0091100937000000000000
B0521203202086S11716001EA0091400942000000000000
B0521243202110S11715946EA0091900949000000000000
B0521283202069S11715903EA0092500955000000000000
B0521323202013S11715924EA0092700952000000000000
B0521363201990S11715993EA0092800953000000000000
B0521403202021S11716050EA0093400962000000000000
B0521443202076S11716041EA0093700966000000000000
B0521483202095S11715981EA0094400975000000000000
B0521523202056S11715935EA0094800975000000000000
B0521563201995S11715948EA0094600972000000000000
B0522003201967S11716020EA0094400968000000000000
B0522043201989S11716098EA0094600972000000000000
B0522083202043S11716133EA0095800986000000000000
B0522123202068S11716079EA0096200991000000000000
B0522163202019S11716044EA0096300994000000000000
B0522203201965S11716080EA0096600999000000000000
B0522243201959S11716154EA0097401004000000000000
B0522283202009S11716178EA0098301016000000015000
B0522323202035S11716119EA0099001023000000015000
B0522363201999S11716070EA0099301025000000000000
B0522403201939S11716076EA0099501028000000000000
B0522443201900S11716139EA0099401024000000000000
B0522483201909S11716219EA0099501026000000000000
B0522523201964S11716249EA0100401038000000015000
B0522563202006S11716205EA0101401047000000015000
B0523003201993S11716139EA0101601050000000000000
B0523043201934S11716119EA0102001054000000000000
B0523083201885S11716167EA0102301055000000000000
B0523123201881S11716249EA0102201051000000000000
B0523163201926S11716306EA0102401054000000000000
B0523203201987S11716305EA0103101064000000000000
B0523243202028S11716250EA0103901073000000000000
B0523283202019S11716183EA0104201074000000000000
B0523323201961S11716153EA0104001071000000000000
B0523363201900S11716187EA0104501077000000000000
B0523403201865S11716260EA0104801078000000000000
B0523443201868S11716341EA0104801081000000000000
B0523483201916S11716382EA0105301087000000000000
B0523523201977S11716371EA0105201084000000000000
B0523563202039S11716340EA0104801084000000000000
B0524003202069S11716280EA0105301092000000000000
B0524043202021S11716244EA0105601091000000000000
B0524083201963S11716282EA0105901098000000000000
B0524123201930S11716354EA0106701103000000000000
B0524163201937S11716432EA0106901106000000000000
B0524203201989S11716475EA0107301112000000000000
B0524243202045S11716452EA0107701113000000000000
B0524283202048S11716388EA0107501114000000000000
B0524323201991S11716361EA0108001116000000000000
B0524363201933S11716404EA0107701111000000000000
B0524403201916S11716486EA0108101120000000000000
B0524443201946S11716555EA0109401130000000000000
B0524483202007S11716573EA0108901122000000000000
B0524523202050S11716522EA0108501122000000000000
B0524563202041S11716457EA0109001130000000000000
B0525003201987S11716423EA0109701134000000000000
B0525043201925S11716448EA0109301128000000000000
B0525083201892S11716522EA0109301133000000000000
B0525123201894S11716599EA0110501144000000000000
B0525163201942S11716635EA0110901143000000015000
B0525203201986S11716596EA0110101139000000015000
B0525243201973S11716538EA0110401143000000000000
B0525283201917S11716530EA0110101136000000000000
B0525323201874S11716587EA0109701133000000000000
B0525363201848S11716664EA0109701136000000000000
B0525403201829S11716747EA0109801133000000000000
B0525443201814S11716832EA0109701133000000000000
B0525483201804S11716917EA0109801135000000000000
B0525523201796S11717004EA0110001134000000000000
B0525563201788S11717095EA0109901136000000000000
B0526003201800S11717181EA0110401144000000000000
B0526043201855S11717223EA0111401152000000000000
B0526083201904S11717186EA0111701154000000000000
B0526123201899S11717120EA0111701151000000000000
B0526163201844S11717086EA0111801151000000000000
B0526203201782S11717111EA0111701150000000000000
B0526243201735S11717173EA0111701151000000000000
B0526283201733S11717251EA0112501161000000000000
B0526323201790S11717277EA0113101165000000000000
B0526363201814S11717218EA0113101168000000000000
B0526403201774S11717162EA0113901178000000000000
B0526443201708S11717158EA0114601178000000000000
B0526483201662S11717216EA0114201176000000000000
B0526523201670S11717289EA0115501195000000000000
B0526563201718S11717326EA0116601198000000000000
B0527003201770S11717300EA0116101197000000000000
B0527043201749S11717237EA0115801193000000000000
B0527083201684S11717222EA0115601190000000000000
B0527123201626S11717262EA0115401193000000000000
B0527163201586S11717328EA0116201200000000000000
B0527203201567S11717406EA0116801206000000000000
B0527243201593S11717474EA0117101208000000000000
B0527283201651S11717482EA0117101210000000000000
B0527323201678S11717423EA0117701225000000000000
B0527363201639S11717375EA0119301237000000000000
B0527403201574S11717393EA0119501230000000000000
B0527443201535S11717463EA0118701224000000000000
B0527483201534S11717545EA0118601227000000000000
B0527523201570S11717609EA0119201232000000000000
B0527563201625S11717636EA0119401233000000000000
B0528003201683S11717635EA0119501234000000000000
B0528043201739S11717618EA0119401231000000000000
B0528083201785S11717583EA0119501234000000000000
B0528123201811S11717528EA0119701235000000000000
B0528163201803S11717467EA0119701237000000000000
B0528203201759S11717426EA0120201244000000000000
B0528243201700S11717440EA0120401243000000000000
B0528283201668S11717513EA0120501246000000000000
B0528323201695S11717583EA0121901261000000000000
B0528363201746S11717576EA0123001273000000000000
B0528403201756S11717524EA0123201277000000000000
B0528443201716S11717482EA0123501279000000000000
B0528483201655S11717491EA0123901284000000000000
B0528523201617S11717557EA0124501289000000000000
B0528563201635S11717628EA0125801304000000000000
B0529003201686S11717627EA0126701311000000015000
B0529043201699S11717571EA0127201316000000000000
B0529083201655S11717537EA0128101329000000000000
B0529123201597S11717563EA0128701330000000000000
B0529163201573S11717638EA0129201339000000000000
B0529203201608S11717695EA0130501354000000015000
B0529243201655S11717682EA0131201363000000015000
B0529283201668S11717625EA0131301362000000000000
B0529323201621S11717589EA0131701368000000000000
B0529363201561S11717617EA0132101370000000000000
B0529403201532S11717695EA0132601377000000000000
B0529443201561S11717760EA0134001389000000000000
B0529483201613S11717751EA0134301390000000015000
B0529523201621S11717690EA0134301394000000000000
B0529563201567S11717660EA0135101402000000000000
B0530003201512S11717705EA0136001412000000000000
B0530043201505S11717782EA0137301427000000000000
B0530083201549S11717821EA0138201433000000015000
B0530123201592S11717790EA0138101437000000015000
B0530163201588S11717727EA0138101437000000000000
B0530203201535S11717701EA0139101444000000000000
B0530243201478S11717738EA0139801450000000000000
B0530283201460S11717812EA0140401460000000000000
B0530323201500S11717857EA0141001461000000015000
B0530363201551S11717834EA0140201455000000015000
B0530403201567S11717770EA0140101458000000000000
B0530443201543S11717710EA0140901465000000000000
B0530483201488S11717678EA0141101463000000000000
B0530523201427S11717697EA0140501452000000000000
B0530563201392S11717768EA0139701442000000000000
B0531003201396S11717853EA0138701434000000000000
B0531043201405S11717943EA0138801433000000000000
B0531083201409S11718031EA0138201426000000000000
B0531123201413S11718122EA0137601415000000000000
B0531163201417S11718217EA0136201404000000000000
B0531203201415S11718314EA0135201393000000000000
B0531243201409S11718411EA0134201383000000000000
B0531283201397S11718510EA0133001370000000000000
B0531323201385S11718609EA0131901360000000000000
B0531363201375S11718709EA0130901352000000000000
B0531403201365S11718808EA0129901339000000000000
B0531443201356S11718908EA0128301318000000000000
B0531483201345S11719009EA0126801302000000000000
B0531523201335S11719109EA0126001301000000000000
B0531563201326S11719209EA0125801291000000000000
B0532003201318S11719309EA0124801286000000000000
B0532043201307S11719407EA0124201279000000000000
B0532083201294S11719506EA0123501273000000000000
B0532123201281S11719602EA0124001278000000000000
B0532163201267S11719697EA0123601274000000000000
B0532203201252S11719796EA0122901262000000000000
B0532243201232S11719896EA0122001257000000000000
B0532283201213S11719994EA0121901256000000000000
B0532323201192S11720089EA0122201259000000000000
B0532363201171S11720184EA0122301258000000000000
B0532403201149S11720279EA0121801250000000000000
B0532443201125S11720377EA0121101243000000000000
B0532483201102S11720472EA0120801243000000000000
B0532523201079S11720565EA0120201232000000000000
B0532563201057S11720663EA0118601218000000000000
B0533003201037S11720763EA0117601209000000000000
B0533043201016S11720863EA0117001200000000000000
B0533083200992S11720963EA0116501195000000000000
B0533123200964S11721060EA0116301200000000000000
B0533163200933S11721153EA0116701200000000000000
B0533203200901S11721244EA0116001191000000000000
B0533243200862S11721335EA0114401173000000000000
B0533283200821S11721427EA0113001156000000000000
B0533323200782S11721526EA0111601140000000000000
B0533363200745S11721629EA0110001125000000000000
B0533403200711S11721731EA0109001120000000000000
B0533443200677S11721831EA0108301112000000000000
B0533483200648S11721931EA0107201098000000000000
B0533523200622S11722035EA0106001086000000000000
B0533563200594S11722137EA0105001080000000000000
B0534003200563S11722233EA0104601072000000000000
B0534043200540S11722333EA0103401059000000000000
B0534083200531S11722436EA0102401048000000000000
B0534123200535S11722540EA0101601040000000000000
B0534163200553S11722640EA0101001033000000000000
B0534203200581S11722737EA0100101023000000000000
B0534243200615S11722828EA0099301016000000000000
B0534283200651S11722918EA0098801010000000000000
B0534323200693S11723004EA0098401014000000000000
B0534363200743S11723060EA0100801039000000000000
B0534403200786S11723031EA0102201049000000000000
B0534443200763S11722974EA0102301051000000000000
B0534483200703S11722973EA0102401053000000000000
B0534523200665S11723031EA0102501056000000000000
B0534563200680S11723096EA0103501064000000000000
B0535003200729S11723094EA0103501067000000015000
B0535043200728S11723040EA0104301077000000000000
B0535083200673S11723023EA0104401073000000000000
B0535123200626S11723077EA0103701064000000000000
B0535163200644S11723146EA0104101074000000000000
B0535203200691S11723120EA0104901085000000015000
B0535243200664S11723069EA0106301095000000015000
B0535283200605S11723081EA0106001083000000000000
B0535323200587S11723151EA0105901089000000000000
B0535363200630S11723190EA0107001106000000015000
B0535403200655S11723143EA0107401107000000015000
B0535443200607S11723104EA0107901115000000015000
B0535483200556S11723146EA0108701120000000015000
B0535523200557S11723220EA0108601122000000000000
B0535563200602S11723261EA0109801135000000015000
B0536003200651S11723251EA0110401139000000015000
B0536043200683S11723204EA0110501141000000000000
B0536083200669S11723146EA0110601141000000000000
B0536123200612S11723126EA0110101135000000000000
B0536163200551S11723165EA0109701131000000000000
B0536203200525S11723246EA0109701131000000000000
B0536243200546S11723320EA0110401140000000000000
B0536283200596S11723351EA0111001139000000000000
B0536323200651S11723334EA0110501135000000000000
B0536363200674S11723281EA0111101146000000000000
B0536403200647S11723234EA0112301157000000000000
B0536443200594S11723229EA0112101150000000000000
B0536483200548S11723285EA0111301144000000000000
B0536523200550S11723359EA0111601148000000000000
B0536563200582S11723421EA0111301145000000000000
B0537003200620S11723480EA0110601135000000000000
B0537043200660S11723540EA0109501119000000000000
B0537083200707S11723601EA0107901104000000000000
B0537123200758S11723659EA0107301103000000000000
B0537163200803S11723720EA0107001099000000000000
B0537203200850S11723784EA0106501094000000000000
B0537243200907S11723832EA0106201093000000000000
B0537283200969S11723841EA0106001091000000000000
B0537323201020S11723806EA0105401086000000000000
B0537363201041S11723745EA0105401082000000000000
B0537403201027S11723679EA0104601069000000000000
B0537443200988S11723616EA0103701055000000000000
B0537483200943S11723556EA0102701044000000000000
B0537523200894S11723498EA0101501031000000000000
B0537563200841S11723437EA0100401025000000000000
B0538003200790S11723377EA0100101019000000000000
B0538043200738S11723316EA0099301010000000000000
B0538083200685S11723256EA0098801003000000000000
B0538123200631S11723200EA0098100996000000000000
B0538163200579S11723144EA0097000994000000000000
B0538203200529S11723090EA0096900994000000000000
B0538243200482S11723034EA0097100996000000000000
B0538283200453S11722969EA0097801006000000000000
B0538323200460S11722906EA0099401025000000000000
B0538363200499S11722875EA0100701033000000000000
B0538403200551S11722897EA0100501028000000000000
B0538443200574S11722966EA0101001035000000000000
B0538483200547S11723025EA0101901045000000000000
B0538523200495S11723027EA0101201036000000000000
B0538563200459S11722979EA0101001035000000000000
B0539003200464S11722921EA0101301040000000000000
B0539043200505S11722888EA0101901044000000000000
B0539083200560S11722906EA0102001043000000000000
B0539123200592S11722968EA0102701055000000000000
B0539163200589S11723036EA0103401058000000000000
B0539203200551S11723091EA0103401058000000000000
B0539243200495S11723107EA0103301058000000000000
B0539283200440S11723087EA0103501059000000000000
B0539323200386S11723062EA0103401060000000000000
B0539363200327S11723075EA0103801064000000000000
B0539403200308S11723146EA0103501057000000000000
B0539443200347S11723199EA0103101055000000000000
B0539483200400S11723200EA0102801048000000000000
B0539523200442S11723160EA0102201047000000000000
B0539563200481S11723112EA0101901041000000000000
B0540003200518S11723057EA0101301037000000000000
B0540043200551S11723000EA0101801045000000000000
B0540083200583S11722945EA0102301049000000000000
B0540123200618S11722891EA0102201045000000000000
B0540163200628S11722825EA0101801042000000000000
B0540203200587S11722765EA0101501042000000000000
B0540243200526S11722728EA0101701044000000000000
B0540283200461S11722696EA0102301051000000000000
B0540323200395S11722688EA0103401063000000000000
B0540363200360S11722745EA0104801075000000000000
B0540403200391S11722802EA0105601081000000000000
B0540443200440S11722792EA0105801089000000000000
B0540483200455S11722732EA0106501097000000000000
B0540523200414S11722691EA0107501110000000000000
B0540563200361S11722710EA0108301113000000000000
B0541003200339S11722780EA0108101109000000000000
B0541043200368S11722843EA0108801121000000000000
B0541083200418S11722851EA0109901130000000015000
B0541123200451S11722805EA0110101132000000015000
B0541163200435S11722748EA0110901143000000000000
B0541203200379S11722745EA0111601147000000000000
B0541243200351S11722809EA0112001152000000000000
B0541283200381S11722870EA0112301155000000000000
B0541323200434S11722861EA0112801164000000000000
B0541363200459S11722805EA0113301165000000000000
B0541403200434S11722748EA0114001174000000000000
B0541443200384S11722726EA0114101174000000000000
B0541483200334S11722756EA0113801171000000000000
B0541523200316S11722826EA0113701167000000000000
B0541563200344S11722891EA0114201176000000000000
B0542003200399S11722904EA0115501188000000015000
B0542043200427S11722858EA0116801200000000015000
B0542083200394S11722817EA0117201207000000015000
B0542123200345S11722845EA0117701214000000000000
B0542163200348S11722914EA0118101216000000000000
B0542203200399S11722947EA0118501224000000000000
B0542243200448S11722918EA0119501235000000000000
B0542283200459S11722858EA0119801238000000000000
B0542323200423S11722812EA0120001236000000000000
B0542363200371S11722814EA0119701232000000000000
B0542403200340S11722878EA0118901225000000000000
B0542443200364S11722951EA0119101231000000000000
B0542483200423S11722979EA0120001238000000000000
B0542523200478S11722955EA0120701242000000000000
B0542563200495S11722893EA0120601240000000000000
B0543003200466S11722840EA0120001233000000000000
B0543043200409S11722832EA0119701228000000000000
B0543083200362S11722883EA0119201226000000000000
B0543123200339S11722957EA0119101224000000000000
B0543163200356S11723035EA0119301228000000000000
B0543203200404S11723079EA0120501242000000000000
B0543243200453S11723064EA0121401250000000000000
B0543283200459S11723008EA0121601252000000000000
B0543323200416S11722977EA0121801256000000000000
B0543363200368S11723012EA0121801253000000000000
B0543403200360S11723086EA0121701254000000000000
B0543443200400S11723137EA0122201261000000000000
B0543483200453S11723126EA0122201259000000000000
B0543523200475S11723069EA0122201261000000000000
B0543563200456S11723012EA0122501262000000000000
B0544003200409S11722982EA0122101256000000000000
B0544043200349S11722981EA0121201241000000000000
B0544083200282S11722977EA0120401234000000000000
B0544123200212S11722969EA0119801229000000000000
B0544163200135S11722953EA0119301227000000000000
B0544203200059S11722947EA0120301239000000000000
B0544243200000S11722994EA0121101246000000000000
B0544283159971S11723077EA0121001242000000000000
B0544323159991S11723164EA0120501235000000000000
B0544363200052S11723204EA0120501239000000000000
B0544403200106S11723186EA0120501240000000000000
B0544443200117S11723130EA0120001233000000000000
B0544483200085S11723073EA0119401228000000000000
B0544523200033S11723030EA0119201232000000000000
B0544563159979S11722988EA0119801239000000000000
B0545003159924S11722947EA0120001235000000000000
B0545043159871S11722905EA0119201228000000000000
B0545083159812S11722865EA0118101211000000000000
B0545123159751S11722825EA0116501197000000000000
B0545163159686S11722784EA0115501185000000000000
B0545203159620S11722745EA0114401177000000000000
B0545243159554S11722705EA0114101173000000000000
B0545283159487S11722666EA0113401162000000000000
B0545323159419S11722623EA0112601157000000000000
B0545363159348S11722580EA0112101151000000000000
B0545403159276S11722540EA0111801153000000000000
B0545443159207S11722505EA0112501160000000000000
B0545483159140S11722474EA0113201164000000000000
B0545523159075S11722441EA0112901159000000000000
B0545563159009S11722407EA0112501156000000000000
B0546003158943S11722372EA0112701158000000000000
B0546043158879S11722338EA0113101164000000000000
B0546083158815S11722305EA0113301162000000000000
B0546123158753S11722271EA0112801156000000000000
B0546163158688S11722237EA0111801143000000000000
B0546203158620S11722201EA0110201128000000000000
B0546243158551S11722167EA0109001115000000000000
B0546283158481S11722133EA0108001109000000000000
B0546323158410S11722102EA0107701107000000000000
B0546363158340S11722073EA0107901108000000000000
B0546403158271S11722043EA0107501102000000000000
B0546443158204S11722012EA0107101097000000000000
B0546483158138S11721982EA0106501092000000000000
B0546523158074S11721952EA0106401094000000000000
B0546563158015S11721922EA0106401092000000000000
B0547003157956S11721891EA0106001090000000000000
B0547043157900S11721856EA0106301091000000000000
B0547083157860S11721800EA0106501092000000000000
B0547123157853S11721738EA0106801096000000000000
B0547163157894S11721699EA0106801090000000000000
B0547203157956S11721697EA0105701081000000000000
B0547243158021S11721718EA0104901075000000000000
B0547283158087S11721740EA0103701062000000000000
B0547323158155S11721734EA0102901057000000000000
B0547363158224S11721723EA0102901060000000000000
B0547403158291S11721714EA0102401051000000000000
B0547443158359S11721701EA0101501043000000000000
B0547483158425S11721682EA0100701032000000000000
B0547523158490S11721656EA0099601026000000000000
B0547563158558S11721642EA0099701026000000000000
B0548003158623S11721629EA0099901028000000000000
B0548043158687S11721622EA0099601024000000000000
B0548083158750S11721625EA0099101017000000000000
B0548123158814S11721634EA0098901019000000000000
B0548163158882S11721643EA0098801014000000000000
B0548203158951S11721651EA0098701016000000000000
B0548243159004S11721622EA0099701029000000000000
B0548283158996S11721565EA0100801039000000000000
B0548323158940S11721541EA0100901038000000000000
B0548363158886S11721578EA0101001039000000000000
B0548403158867S11721649EA0101001040000000000000
B0548443158889S11721714EA0100901039000000000000
B0548483158939S11721739EA0100901038000000000000
B0548523158982S11721716EA0100601035000000000000
B0548563158988S11721660EA0100001027000000000000
B0549003158945S11721609EA0100401036000000000000
B0549043158888S11721631EA0101401042000000000000
B0549083158875S11721701EA0101501049000000000000
B0549123158912S11721746EA0102201056000000000000
B0549163158954S11721733EA0101901050000000000000
B0549203158962S11721670EA0100901046000000000000
B0549243158918S11721629EA0102201065000000000000
B0549283158865S11721649EA0103101064000000000000
B0549323158845S11721718EA0102801066000000000000
B0549363158874S11721770EA0103701070000000000000
B0549403158922S11721772EA0102701058000000000000
B0549443158956S11721722EA0102401062000000000000
B0549483158952S11721662EA0103901076000000000000
B0549523158906S11721630EA0104801082000000000000
B0549563158850S11721651EA0104701079000000000000
B0550003158826S11721716EA0104701081000000000000
B0550043158848S11721774EA0105301091000000000000
B0550083158893S11721782EA0106301103000000000000
B0550123158921S11721739EA0106901108000000000000
B0550163158899S11721688EA0107601114000000000000
B0550203158847S11721671EA0107901114000000000000
B0550243158792S11721699EA0107401108000000000000
B0550283158759S11721761EA0107001105000000000000
B0550323158767S11721830EA0107101109000000000000
B0550363158810S11721859EA0107901120000000015000
B0550403158844S11721822EA0107701115000000015000
B0550443158841S11721757EA0107301118000000015000
B0550483158787S11721744EA0108101124000000015000
B0550523158745S11721796EA0108101123000000015000
B0550563158753S11721866EA0107901124000000015000
B0551003158801S11721891EA0108601129000000015000
B0551043158847S11721865EA0108701134000000015000
B0551083158857S11721807EA0109301141000000015000
B0551123158822S11721760EA0110101146000000015000
B0551163158763S11721760EA0110201142000000000000
B0551203158720S11721809EA0109701134000000000000
B0551243158720S11721882EA0109401136000000000000
B0551283158759S11721924EA0110001144000000015000
B0551323158805S11721915EA0111001150000000015000
B0551363158826S11721866EA0111601157000000015000
B0551403158798S11721814EA0111801157000000015000
B0551443158741S11721799EA0111401151000000000000
B0551483158687S11721835EA0110701141000000000000
B0551523158666S11721907EA0110101134000000000000
B0551563158689S11721976EA0110001137000000000000
B0552003158736S11722017EA0110501142000000000000
B0552043158783S11722000EA0111501156000000000000
B0552083158788S11721946EA0112401165000000000000
B0552123158739S11721920EA0113001169000000000000
B0552163158688S11721961EA0113201172000000000000
B0552203158683S11722034EA0113701178000000000000
B0552243158723S11722078EA0114201180000000000000
B0552283158771S11722061EA0114201179000000000000
B0552323158783S11722002EA0114301182000000015000
B0552363158744S11721952EA0115101189000000000000
B0552403158679S11721956EA0115401192000000000000
B0552443158628S11722012EA0115901199000000000000
B0552483158626S11722085EA0117001211000000000000
B0552523158668S11722123EA0117301215000000000000
B0552563158717S11722104EA0117901220000000000000
B0553003158733S11722051EA0118701228000000000000
B0553043158701S11722003EA0119201231000000000000
B0553083158640S11721991EA0119101228000000000000
B0553123158580S11722028EA0118801226000000000000
B0553163158558S11722100EA0119401239000000000000
B0553203158580S11722159EA0120401245000000000000
B0553243158627S11722175EA0120701248000000000000
B0553283158671S11722149EA0121201252000000000000
B0553323158678S11722089EA0121301256000000000000
B0553363158635S11722045EA0121901260000000000000
B0553403158574S11722045EA0121701256000000000000
B0553443158523S11722093EA0121401251000000000000
B0553483158510S11722167EA0121601260000000000000
B0553523158531S11722228EA0122401263000000000000
B0553563158579S11722255EA0122601270000000000000
B0554003158629S11722241EA0123401277000000000000
B0554043158663S11722191EA0123901281000000000000
B0554083158661S11722129EA0124401287000000000000
B0554123158616S11722082EA0125101291000000000000
B0554163158553S11722074EA0125001284000000000000
B0554203158492S11722107EA0123601269000000000000
B0554243158462S11722176EA0123101272000000000000
B0554283158480S11722242EA0123301275000000000000
B0554323158525S11722282EA0124001281000000000000
B0554363158576S11722277EA0125001293000000000000
B0554403158594S11722228EA0125601297000000000000
B0554443158563S11722173EA0125801296000000000000
B0554473158516S11722163EA0125901302000000000000
B0554523158464S11722223EA0127101313000000000000
B0554563158475S11722292EA0127001312000000000000
B0555003158525S11722314EA0126901313000000000000
B0555043158568S11722284EA0127101318000000000000
B0555083158567S11722224EA0127601320000000000000
B0555123158523S11722176EA0127001316000000000000
B0555163158458S11722146EA0126101301000000000000
B0555203158385S11722113EA0123801277000000000000
B0555243158310S11722084EA0121901259000000000000
B0555283158232S11722054EA0120201243000000000000
B0555323158152S11722025EA0119201233000000000000
B0555363158073S11721999EA0118701230000000000000
B0555403157996S11721973EA0117901221000000000000
B0555443157921S11721946EA0117501216000000000000
B0555483157847S11721921EA0116901211000000000000
B0555523157775S11721899EA0116501204000000000000
B0555563157704S11721878EA0115801200000000000000
B0556003157634S11721859EA0115701196000000000000
B0556043157565S11721839EA0115001189000000000000
B0556083157495S11721817EA0114501184000000000000
B0556123157424S11721795EA0114101179000000000000
B0556163157353S11721774EA0113301171000000000000
B0556203157281S11721756EA0112801166000000000000
B0556243157210S11721736EA0112501157000000000000
B0556283157137S11721714EA0111401146000000000000
B0556323157064S11721691EA0110401138000000000000
B0556363156991S11721669EA0109801132000000000000
B0556403156919S11721648EA0109101123000000000000
B0556443156842S11721632EA0108101111000000000000
B0556483156764S11721623EA0107301105000000000000
B0556523156687S11721614EA0107301105000000000000
B0556563156612S11721605EA0106901100000000000000
B0557003156533S11721603EA0106501097000000000000
B0557043156455S11721600EA0106201092000000000000
B0557083156377S11721597EA0105601086000000000000
B0557123156300S11721592EA0105201085000000000000
B0557163156224S11721583EA0104601077000000000000
B0557203156148S11721574EA0104001071000000000000
B0557243156072S11721561EA0103701072000000000000
B0557283156000S11721547EA0104301079000000000000
B0557323155931S11721526EA0105201089000000000000
B0557363155892S11721478EA0107101111000000000000
B0557403155910S11721437EA0108901125000000000000
B0557443155967S11721452EA0108401121000000000000
B0557483156002S11721527EA0108301133000000000000
B0557523156002S11721606EA0109601142000000000000
B0557563155974S11721674EA0110501149000000000000
B0558003155919S11721697EA0110701150000000000000
B0558043155880S11721658EA0110401144000000000000
B0558083155886S11721601EA0110701149000000000000
B0558123155925S11721565EA0111501155000000000000
B0558163155980S11721573EA0111901163000000000000
B0558203156024S11721630EA0112201165000000000000
B0558243156036S11721710EA0112301170000000000000
B0558283156007S11721783EA0113201179000000000000
B0558323155953S11721813EA0113501180000000000000
B0558363155903S11721786EA0113301175000000000000
B0558403155892S11721730EA0113301176000000000000
B0558443155925S11721688EA0113601178000000000000
B0558483155980S11721701EA0113701182000000000000
B0558523156023S11721760EA0113901182000000000000
B0558563156035S11721842EA0113601182000000000000
B0559003156000S11721913EA0114301191000000000000
B0559043155940S11721934EA0115001196000000000000
B0559083155889S11721903EA0114901190000000000000
B0559123155837S11721865EA0114401188000000000000
B0559163155776S11721835EA0114301187000000000000
B0559203155714S11721808EA0114701194000000000000
B0559243155652S11721779EA0115101196000000000000
B0559283155591S11721749EA0115001193000000000000
B0559323155529S11721718EA0114501187000000000000
B0559363155465S11721684EA0113701181000000000000
B0559403155404S11721645EA0113701174000000000000
B0559443155339S11721608EA0112201156000000000000
B0559483155268S11721575EA0110801143000000000000
B0559523155196S11721543EA0109501130000000000000
B0559563155125S11721513EA0108701125000000000000
B0600003155052S11721487EA0108201117000000000000
B0600043154980S11721465EA0107301109000000000000
B0600083154908S11721441EA0106801103000000000000
B0600123154836S11721418EA0106501095000000000000
B0600163154763S11721393EA0105701089000000000000
B0600203154690S11721370EA0105001081000000000000
B0600243154616S11721346EA0104601077000000000000
B0600283154544S11721324EA0104301074000000000000
B0600323154472S11721305EA0103401065000000000000
B0600363154399S11721287EA0102901057000000000000
B0600403154326S11721267EA0102101049000000000000
B0600443154254S11721248EA0101801046000000000000
B0600483154182S11721229EA0101401041000000000000
B0600523154111S11721214EA0101001037000000000000
B0600563154038S11721200EA0100501031000000000000
B0601003153966S11721183EA0100001024000000000000
B0601043153894S11721163EA0099501018000000000000
B0601083153821S11721141EA0098701010000000000000
B0601123153749S11721118EA0098201006000000000000
B0601163153678S11721093EA0097801001000000000000
B0601203153606S11721070EA0097100991000000000000
B0601243153533S11721046EA0096400986000000000000
B0601283153462S11721023EA0095900979000000000000
B0601323153389S11720999EA0095100972000000000000
B0601363153318S11720979EA0094400964000000000000
B0601403153246S11720959EA0093800957000000000000
B0601443153176S11720941EA0093200950000000000000
B0601483153107S11720924EA0092600941000000000000
B0601523153038S11720907EA0091500928000000000000
B0601563152969S11720890EA0090400917000000000000
B0602003152899S11720872EA0089400908000000000000
B0602043152829S11720851EA0088800901000000000000
B0602083152759S11720830EA0088500901000000000000
B0602123152691S11720802EA0088600902000000000000
B0602163152631S11720764EA0088500900000000000000
B0602203152581S11720713EA0088200900000000000000
B0602243152535S11720660EA0088500904000000000000
B0602283152497S11720604EA0088400896000000000000
B0602323152471S11720538EA0087300887000000000000
B0602363152444S11720473EA0086200874000000000000
B0602403152413S11720405EA0085100864000000000000
B0602443152388S11720335EA0084800864000000000000
B0602483152391S11720266EA0084900865000000000000
B0602523152414S11720204EA0084600860000000000000
B0602563152448S11720145EA0084100855000000000000
B0603003152483S11720087EA0083300848000000000000
B0603043152522S11720031EA0083200844000000000000
B0603083152566S11719980EA0082300833000000000000
B0603123152614S11719933EA0081600827000000000000
B0603163152648S11719874EA0081100826000000000000
B0603203152644S11719805EA0081200824000000000000
B0603243152600S11719753EA0080400816000000000000
B0603283152530S11719733EA0080000810000000000000
B0603323152456S11719716EA0079200799000000000000
B0603363152376S11719701EA0078400795000000000000
B0603403152306S11719669EA0078500797000000000000
B0603443152304S11719611EA0079800816000000000000
B0603483152344S11719606EA0080400814000000000000
B0603523152376S11719662EA0079500809000000000000
B0603563152366S11719741EA0079600813000000000000
B0604003152324S11719807EA0079600811000000000000
B0604043152271S11719871EA0078800805000000000000
B0604083152220S11719940EA0078300798000000000000
B0604123152167S11720010EA0078300800000000000000
B0604163152128S11720091EA0078700806000000000000
B0604203152155S11720150EA0080000816000000000000
B0604243152201S11720123EA0080400821000000000000
B0604283152187S11720065EA0081300830000000000000
B0604323152132S11720044EA0081800837000000000000
B0604363152081S11720087EA0082200838000000000000
B0604403152083S11720157EA0081700830000000000000
B0604443152127S11720180EA0081600829000000000000
B0604483152174S11720149EA0081200827000000000000
B0604523152196S11720096EA0081600835000000000000
B0604563152148S11720065EA0082000832000000000000
B0605003152098S11720119EA0081300832000000015000
B0605043152123S11720179EA0082000840000000015000
B0605083152167S11720160EA0082300843000000015000
B0605123152145S11720108EA0082600843000000015000
B0605163152081S11720113EA0082100839000000015000
B0605203152023S11720169EA0081500835000000015000
B0605243152007S11720251EA0082100839000000000000
B0605283152049S11720304EA0081700836000000000000
B0605323152109S11720303EA0081700839000000000000
B0605363152109S11720245EA0082900848000000000000
B0605403152049S11720231EA0083200851000000015000
B0605443152012S11720299EA0083400858000000015000
B0605483152038S11720368EA0084100864000000015000
B0605523152092S11720373EA0084500869000000015000
B0605563152110S11720317EA0084800868000000000000
B0606003152066S11720270EA0085000873000000015000
B0606043151999S11720291EA0085200877000000015000
B0606083151973S11720369EA0085700885000000015000
B0606123152009S11720429EA0086700894000000015000
B0606163152055S11720414EA0087100897000000000000
B0606203152059S11720353EA0086500889000000000000
B0606243151999S11720339EA0087300896000000015000
B0606283151981S11720409EA0088000904000000015000
B0606323152028S11720443EA0087800904000000015000
B0606363152063S11720401EA0087600899000000015000
B0606403152040S11720342EA0087600901000000015000
B0606443151975S11720334EA0087800902000000015000
B0606483151908S11720371EA0087600902000000015000
B0606523151884S11720449EA0088100907000000015000
B0606563151925S11720492EA0088400910000000015000
B0607003151938S11720438EA0088900916000000015000
B0607043151882S11720421EA0090000931000000015000
B0607083151845S11720482EA0090900936000000015000
B0607123151862S11720543EA0091200937000000015000
B0607163151912S11720552EA0091400939000000015000
B0607203151936S11720503EA0091800943000000015000
B0607243151902S11720451EA0092200950000000015000
B0607283151841S11720453EA0092800955000000015000
B0607323151794S11720514EA0092600951000000015000
B0607363151798S11720596EA0092100950000000015000
B0607403151847S11720641EA0092800962000000015000
B0607443151890S11720616EA0094100971000000015000
B0607483151871S11720559EA0094600977000000015000
B0607523151810S11720564EA0095600987000000015000
B0607563151781S11720631EA0096200992000000015000
B0608003151816S11720686EA0096600998000000015000
B0608043151864S11720674EA0097201005000000015000
B0608083151867S11720620EA0098201016000000015000
B0608123151817S11720589EA0098701023000000015000
B0608163151758S11720617EA0099301030000000015000
B0608203151734S11720690EA0099901033000000000000
B0608243151765S11720747EA0100501041000000000000
B0608283151815S11720747EA0100401038000000000000
B0608323151830S11720693EA0100601044000000000000
B0608363151789S11720647EA0101501055000000000000
B0608403151728S11720652EA0102701068000000000000
B0608443151684S11720709EA0103601075000000000000
B0608483151680S11720784EA0103901082000000000000
B0608523151713S11720834EA0104501087000000000000
B0608563151762S11720843EA0104701082000000000000
B0609003151803S11720813EA0103901074000000000000
B0609043151834S11720761EA0103501072000000000000
B0609083151841S11720695EA0103501071000000000000
B0609123151817S11720633EA0103301069000000000000
B0609163151764S11720598EA0103701075000000000000
B0609203151702S11720613EA0103701072000000000000
B0609243151638S11720650EA0103201071000000000000
B0609283151581S11720698EA0103901078000000000000
B0609323151572S11720771EA0104401081000000000000
B0609363151617S11720811EA0104101080000000000000
B0609403151654S11720776EA0104901093000000000000
B0609443151635S11720722EA0105501094000000000000
B0609483151577S11720709EA0105801099000000000000
B0609523151534S11720758EA0106501108000000000000
B0609563151541S11720826EA0106401109000000000000
B0610003151582S11720871EA0106701115000000000000
B0610043151629S11720863EA0107401121000000000000
B0610083151650S11720815EA0107501120000000000000
B0610123151622S11720764EA0107201116000000000000
B0610163151561S11720756EA0107001112000000000000
B0610203151507S11720806EA0107001114000000000000
B0610243151478S11720885EA0107201117000000000000
B0610283151502S11720950EA0108501134000000000000
B0610323151541S11720936EA0110001146000000015000
B0610363151537S11720882EA0110101146000000000000
B0610403151491S11720845EA0110801154000000000000
B0610443151433S11720860EA0111001154000000000000
B0610483151400S11720929EA0110601151000000000000
B0610523151418S11721003EA0110201149000000000000
B0610563151470S11721038EA0110901159000000000000
B0611003151518S11721021EA0112101172000000000000
B0611043151526S11720969EA0112901176000000000000
B0611083151476S11720941EA0113001181000000000000
B0611123151418S11720982EA0113401186000000000000
B0611163151408S11721059EA0114401197000000000000
B0611203151443S11721109EA0115501207000000000000
B0611243151483S11721097EA0116201214000000000000
B0611283151479S11721046EA0116501214000000000000
B0611323151426S11721020EA0116601224000000000000
B0611363151365S11721050EA0117501231000000000000
B0611403151340S11721123EA0117901239000000015000
B0611443151373S11721175EA0119201250000000000000
B0611483151413S11721159EA0119701253000000000000
B0611523151412S11721103EA0120001260000000015000
B0611563151364S11721070EA0120701271000000015000
B0612003151304S11721090EA0121601278000000015000
B0612043151273S11721157EA0122201282000000015000
B0612083151288S11721226EA0122501285000000015000
B0612123151333S11721259EA0123301294000000000000
B0612163151368S11721239EA0124001302000000015000
B0612203151360S11721189EA0124501305000000015000
B0612243151307S11721166EA0124601308000000015000
B0612283151252S11721210EA0125101314000000015000
B0612323151238S11721287EA0125801318000000015000
B0612363151268S11721346EA0126401325000000000000
B0612403151312S11721365EA0126901330000000000000
B0612443151343S11721336EA0127501335000000000000
B0612483151336S11721284EA0127601334000000000000
B0612523151290S11721249EA0128001341000000000000
B0612563151225S11721261EA0128301344000000000000
B0613003151188S11721328EA0129101352000000000000
B0613043151204S11721395EA0129701357000000000000
B0613083151253S11721413EA0129601356000000000000
B0613123151290S11721383EA0129801359000000000000
B0613163151287S11721331EA0130501367000000000000
B0613203151239S11721298EA0130801368000000000000
B0613243151175S11721320EA0130901368000000000000
B0613283151141S11721392EA0131101371000000000000
B0613323151138S11721473EA0131301372000000000000
B0613363151169S11721539EA0131501373000000000000
B0613403151218S11721565EA0131601376000000000000
B0613443151255S11721539EA0132001378000000000000
B0613483151279S11721489EA0131801373000000000000
B0613523151291S11721430EA0132001378000000000000
B0613563151251S11721388EA0132701387000000000000
B0614003151184S11721419EA0132601387000000000000
B0614043151160S11721499EA0133001394000000015000
B0614083151184S11721566EA0133701404000000015000
B0614123151231S11721590EA0134601410000000000000
B0614163151274S11721570EA0134301402000000000000
B0614203151291S11721514EA0133601397000000000000
B0614243151265S11721453EA0133301397000000000000
B0614283151204S11721415EA0134101403000000000000
B0614323151132S11721437EA0134601411000000000000
B0614363151087S11721509EA0135601418000000000000
B0614403151083S11721595EA0135901422000000000000
B0614443151118S11721652EA0136701436000000000000
B0614483151166S11721660EA0137601444000000000000
B0614523151193S11721622EA0138101444000000000000
B0614563151180S11721565EA0138101447000000000000
B0615003151126S11721532EA0139101462000000000000
B0615043151065S11721567EA0140201469000000000000
B0615083151045S11721645EA0140301467000000000000
B0615123151075S11721709EA0140301471000000000000
B0615163151123S11721721EA0141501486000000000000
B0615203151162S11721692EA0142201490000000000000
B0615243151167S11721636EA0142701495000000000000
B0615283151128S11721593EA0143401509000000000000
B0615323151067S11721597EA0144401513000000000000
B0615363151017S11721652EA0144501514000000000000
B0615403151001S11721731EA0145501525000000000000
B0615443151027S11721792EA0146101529000000000000
B0615483151074S11721807EA0146501536000000000000
B0615523151106S11721772EA0147401542000000000000
B0615563151097S11721714EA0147901546000000000000
B0616003151043S11721683EA0148701558000000000000
B0616043150979S11721713EA0149901570000000000000
B0616083150941S11721787EA0150501576000000000000
B0616123150952S11721861EA0151001581000000000000
B0616163150997S11721900EA0151301581000000000000
B0616203151044S11721885EA0151601587000000000000
B0616243151060S11721831EA0152301594000000000000
B0616283151028S11721779EA0153401605000000000000
B0616323150965S11721781EA0154801620000000000000
B0616363150920S11721846EA0155801632000000000000
B0616403150936S11721918EA0156801647000000000000
B0616443150980S11721931EA0158201656000000000000
B0616483151000S11721887EA0158401654000000000000
B0616523150967S11721837EA0158801666000000000000
B0616563150906S11721834EA0159901675000000000000
B0617003150852S11721889EA0160201677000000000000
B0617043150840S11721973EA0161101691000000000000
B0617083150876S11722032EA0162701707000000000000
B0617123150924S11722035EA0163301713000000000000
B0617163150950S11721995EA0163701714000000000000
B0617203150936S11721941EA0164101723000000000000
B0617243150881S11721920EA0165201733000000000000
B0617283150820S11721955EA0165501733000000000000
B0617323150792S11722030EA0166201743000000000000
B0617363150807S11722103EA0167601758000000000000
B0617403150853S11722134EA0168601764000000000000
B0617443150896S11722119EA0168601761000000000000
B0617483150913S11722071EA0168401763000000000000
B0617523150887S11722021EA0169401772000000000000
B0617563150827S11722020EA0170001777000000000000
B0618003150775S11722074EA0170301783000000000000
B0618043150771S11722152EA0171101792000000000000
B0618083150813S11722203EA0171301796000000000000
B0618123150863S11722201EA0171601797000000000000
B0618163150897S11722164EA0172101802000000000000
B0618203150904S11722116EA0172401802000000000000
B0618243150887S11722065EA0172001798000000000000
B0618283150844S11722021EA0172001797000000000000
B0618323150785S11721987EA0171401789000000000000
B0618363150719S11721952EA0171001790000000000000
B0618403150649S11721926EA0172101802000000000000
B0618443150580S11721946EA0172301801000000000000
B0618483150530S11722013EA0172101799000000000000
B0618523150519S11722104EA0171401793000000000000
B0618563150538S11722194EA0170901789000000000000
B0619003150569S11722277EA0171301793000000000000
B0619043150615S11722341EA0172001804000000000000
B0619083150670S11722351EA0173201816000000000000
B0619123150698S11722315EA0174401823000000000000
B0619163150689S11722262EA0174401819000000000000
B0619203150638S11722230EA0174001819000000000000
B0619243150575S11722253EA0174401819000000000000
B0619283150530S11722321EA0174301822000000000000
B0619323150524S11722405EA0174901827000000000000
B0619363150554S11722472EA0175201830000000000000
B0619403150607S11722501EA0175501833000000000000
B0619443150655S11722484EA0175601832000000000000
B0619483150672S11722432EA0175701835000000000000
B0619523150650S11722379EA0175701832000000000000
B0619563150597S11722345EA0175401828000000000000
B0620003150538S11722310EA0174601816000000000000
B0620043150491S11722253EA0173201802000000000000
B0620083150464S11722182EA0172101793000000000000
B0620123150452S11722104EA0171201782000000000000
B0620163150454S11722025EA0170401776000000000000
B0620203150472S11721944EA0169901767000000000000
B0620243150502S11721868EA0169001761000000000000
B0620283150536S11721794EA0169001760000000000000
B0620323150575S11721723EA0168601756000000000000
B0620363150616S11721655EA0168101750000000000000
B0620403150659S11721588EA0167601744000000000000
B0620443150703S11721519EA0166701733000000000000
B0620483150746S11721450EA0165901727000000000000
B0620523150789S11721382EA0165901727000000000000
B0620563150833S11721315EA0165801726000000000000
B0621003150878S11721248EA0165301717000000000000
B0621043150920S11721175EA0164201705000000000000
B0621083150963S11721099EA0163301700000000000000
B0621123151004S11721025EA0163001695000000000000
B0621163151044S11720951EA0162701690000000000000
B0621203151087S11720881EA0162101686000000000000
B0621243151131S11720808EA0160901669000000000000
B0621283151179S11720733EA0159101651000000000000
B0621323151227S11720657EA0158801647000000000000
B0621363151264S11720573EA0158101638000000000000
B0621403151297S11720487EA0158101634000000000000
B0621443151331S11720399EA0156801613000000000000
B0621483151366S11720309EA0155301603000000000000
B0621523151401S11720223EA0154901598000000000000
B0621563151438S11720139EA0154101590000000000000
B0622003151477S11720054EA0153401584000000000000
B0622043151517S11719971EA0153301585000000000000
B0622083151560S11719890EA0153101581000000000000
B0622123151606S11719812EA0153001578000000000000
B0622163151652S11719734EA0152401568000000000000
B0622203151700S11719655EA0151301556000000000000
B0622243151750S11719573EA0150601551000000000000
B0622283151798S11719494EA0149901542000000000000
B0622323151846S11719412EA0148901532000000000000
B0622363151897S11719330EA0148001523000000000000
B0622403151946S11719251EA0147601520000000000000
B0622443151998S11719173EA0147101513000000000000
B0622483152051S11719097EA0146501506000000000000
B0622523152106S11719025EA0146001502000000000000
B0622563152163S11718954EA0145201494000000000000
B0623003152222S11718888EA0144901490000000000000
B0623043152279S11718824EA0144801492000000000000
B0623083152336S11718763EA0144601486000000000000
B0623123152396S11718704EA0143501476000000000000
B0623163152456S11718644EA0142801467000000000000
B0623203152518S11718583EA0141901460000000000000
B0623243152578S11718524EA0141901458000000000000
B0623283152636S11718464EA0141301452000000000000
B0623323152695S11718406EA0140401445000000000000
B0623363152752S11718349EA0140401444000000000000
B0623403152800S11718288EA0140301445000000000000
B0623443152846S11718232EA0139801437000000000000
B0623483152899S11718178EA0138801425000000000000
B0623523152951S11718122EA0138401420000000000000
B0623563152995S11718060EA0137801417000000000000
B0624003153041S11717998EA0137801417000000000000
B0624043153090S11717939EA0137301410000000000000
B0624083153143S11717881EA0136501401000000000000
B0624123153198S11717823EA0136101402000000000000
B0624163153251S11717771EA0136201401000000000000
B0624203153309S11717722EA0135801392000000000000
B0624243153363S11717667EA0134601382000000000000
B0624283153416S11717608EA0133901377000000000000
B0624323153472S11717549EA0133801378000000000000
B0624363153527S11717496EA0133701375000000000000
B0624403153582S11717439EA0133301367000000000000
B0624443153635S11717378EA0132301359000000000000
B0624483153688S11717314EA0132001365000000000000
B0624523153736S11717258EA0133201373000000000000
B0624563153784S11717202EA0132901366000000000000
B0625003153834S11717146EA0132401364000000000000
B0625043153882S11717090EA0132101355000000000000
B0625083153931S11717029EA0130901344000000000000
B0625123153979S11716965EA0129801333000000000000
B0625163154029S11716898EA0128901324000000000000
B0625203154078S11716832EA0128001315000000000000
B0625243154129S11716763EA0127201306000000000000
B0625283154177S11716692EA0126501302000000000000
B0625323154225S11716626EA0126301298000000000000
B0625363154272S11716559EA0126001290000000000000
B0625403154320S11716492EA0124801280000000000000
B0625443154372S11716425EA0124201274000000000000
B0625483154414S11716354EA0123801270000000000000
B0625523154453S11716284EA0123201262000000000000
B0625563154495S11716214EA0122001249000000000000
B0626003154542S11716146EA0121301246000000000000
B0626043154589S11716080EA0121201244000000000000
B0626083154637S11716018EA0120901239000000000000
B0626123154685S11715957EA0121001249000000000000
B0626163154728S11715898EA0121801252000000000000
B0626203154771S11715837EA0121601248000000000000
B0626243154815S11715777EA0121701253000000000000
B0626283154862S11715719EA0122101254000000000000
B0626323154909S11715658EA0122101248000000000000
B0626363154965S11715604EA0121801252000000000000
B0626403155015S11715639EA0123101271000000000000
B0626443154993S11715711EA0123001257000000000000
B0626483154924S11715723EA0121001238000000000000
B0626523154862S11715680EA0119601221000000000000
B0626563154823S11715606EA0117701203000000000000
B0627003154811S11715513EA0116101185000000000000
B0627043154830S11715421EA0114601173000000000000
B0627083154867S11715334EA0113601161000000000000
B0627123154918S11715256EA0112201154000000000000
B0627163154970S11715183EA0112601156000000000000
B0627203155025S11715116EA0112401154000000000000
B0627243155082S11715060EA0112901161000000000000
B0627283155136S11715006EA0112801153000000000000
B0627323155190S11714950EA0111601140000000000000
B0627363155243S11714892EA0110501131000000000000
B0627403155292S11714830EA0109601121000000000000
B0627443155342S11714765EA0108601112000000000000
B0627483155390S11714701EA0107801104000000000000
B0627523155441S11714638EA0106901094000000000000
B0627563155491S11714577EA0106401088000000000000
B0628003155543S11714516EA0105801080000000000000
B0628043155595S11714459EA0105201077000000000000
B0628083155650S11714406EA0105001073000000000000
B0628123155703S11714351EA0104701071000000000000
B0628163155756S11714297EA0105401082000000000000
B0628203155806S11714251EA0107001100000000000000
B0628243155847S11714202EA0108201114000000000000
B0628283155836S11714144EA0109501125000000000000
B0628323155776S11714144EA0109001121000000000000
B0628363155741S11714216EA0108701118000000000000
B0628403155756S11714298EA0108901125000000000000
B0628443155802S11714354EA0109701134000000000000
B0628483155851S11714333EA0110701146000000000000
B0628523155833S11714278EA0111501151000000000000
B0628563155773S11714287EA0112301163000000000000
B0629003155746S11714359EA0113101172000000000000
B0629043155775S11714424EA0113901181000000000000
B0629083155828S11714428EA0114701189000000000000
B0629123155851S11714377EA0114901189000000000000
B0629163155823S11714324EA0114701189000000000000
B0629203155762S11714315EA0115301197000000000000
B0629243155708S11714360EA0115701197000000000000
B0629283155697S11714442EA0116001204000000000000
B0629323155724S11714512EA0116901216000000000000
B0629363155769S11714508EA0118301226000000000000
B0629403155760S11714454EA0118301225000000000000
B0629443155704S11714451EA0119301241000000000000
B0629483155677S11714518EA0120101248000000000000
B0629523155703S11714585EA0120501255000000000000
B0629563155754S11714593EA0121801266000000000000
B0630003155779S11714547EA0122001267000000000000
B0630043155753S11714498EA0122001267000000000000
B0630083155694S11714502EA0123301285000000000000
B0630123155664S11714567EA0124601295000000000000
B0630163155681S11714637EA0124901301000000000000
B0630203155730S11714655EA0125601307000000000000
B0630243155759S11714614EA0125601306000000000000
B0630283155740S11714559EA0126001310000000000000
B0630323155682S11714545EA0126701318000000000000
B0630363155630S11714590EA0127701325000000000000
B0630403155620S11714668EA0128001331000000000000
B0630443155656S11714727EA0128701340000000000000
B0630483155708S11714727EA0129301343000000000000
B0630523155734S11714679EA0129301344000000000000
B0630563155717S11714622EA0129901350000000000000
B0631003155664S11714599EA0130801359000000000000
B0631043155608S11714631EA0131101361000000000000
B0631083155576S11714701EA0131701369000000000000
B0631123155582S11714779EA0132401379000000000000
B0631163155625S11714827EA0133101382000000000000
B0631203155675S11714815EA0133001380000000000000
B0631243155693S11714761EA0133001380000000000000
B0631283155665S11714703EA0133201385000000000000
B0631323155610S11714688EA0134401398000000000000
B0631363155559S11714727EA0135101402000000000000
B0631403155534S11714805EA0135101402000000000000
B0631443155558S11714879EA0135801413000000000000
B0631483155608S11714909EA0136501416000000000000
B0631523155656S11714888EA0136501417000000000000
B0631563155672S11714831EA0136501417000000000000
B0632003155641S11714778EA0136701420000000000000
B0632043155580S11714785EA0137401428000000000000
B0632083155534S11714846EA0137901428000000000000
B0632123155530S11714934EA0137801432000000000000
B0632163155563S11715000EA0138701441000000000000
B0632203155617S11715018EA0138801437000000000000
B0632243155662S11714984EA0138201426000000000000
B0632283155701S11714932EA0136501411000000000000
B0632323155743S11714872EA0135201399000000000000
B0632363155785S11714806EA0134201389000000000000
B0632403155825S11714735EA0133601383000000000000
B0632443155864S11714662EA0132801376000000000000
B0632483155903S11714585EA0131401358000000000000
B0632523155946S11714510EA0130201348000000000000
B0632563155987S11714432EA0129401342000000000000
B0633003156027S11714355EA0129101336000000000000
B0633043156066S11714278EA0128601332000000000000
B0633083156104S11714202EA0128201325000000000000
B0633123156141S11714126EA0127801321000000000000
B0633163156179S11714050EA0127601317000000000000
B0633203156217S11713974EA0127301314000000000000
B0633243156256S11713900EA0126801309000000000000
B0633283156296S11713827EA0126601306000000000000
B0633323156338S11713756EA0126501306000000000000
B0633363156382S11713691EA0127001315000000000000
B0633403156429S11713632EA0127801322000000000000
B0633443156474S11713579EA0128801331000000000000
B0633483156520S11713527EA0128701324000000000000
B0633523156564S11713467EA0127901315000000000000
B0633563156612S11713410EA0127401314000000000000
B0634003156663S11713357EA0127401311000000000000
B0634043156712S11713303EA0126201298000000000000
B0634083156763S11713247EA0125601292000000000000
B0634123156813S11713192EA0124801284000000000000
B0634163156860S11713130EA0124501280000000000000
B0634203156908S11713068EA0123501269000000000000
B0634243156954S11713002EA0122701263000000000000
B0634283156999S11712933EA0122201258000000000000
B0634323157042S11712864EA0121601253000000000000
B0634363157084S11712791EA0121501250000000000000
B0634403157124S11712718EA0120901243000000000000
B0634443157163S11712642EA0120201237000000000000
B0634483157201S11712566EA0119701232000000000000
B0634523157236S11712491EA0119401228000000000000
B0634563157271S11712417EA0119001223000000000000
B0635003157306S11712341EA0118301217000000000000
B0635043157344S11712270EA0118101216000000000000
B0635083157380S11712198EA0117601207000000000000
B0635123157422S11712126EA0116701197000000000000
B0635163157466S11712051EA0115201181000000000000
B0635203157509S11711976EA0114001172000000000000
B0635243157550S11711901EA0113701170000000000000
B0635283157591S11711825EA0113201164000000000000
B0635323157630S11711749EA0112701160000000000000
B0635363157667S11711671EA0112401156000000000000
B0635403157705S11711593EA0111501147000000000000
B0635443157742S11711512EA0111001140000000000000
B0635483157777S11711431EA0110401135000000000000
B0635523157809S11711351EA0110201134000000000000
B0635563157839S11711269EA0109701122000000000000
B0636003157866S11711183EA0108401111000000000000
B0636043157892S11711095EA0107501107000000000000
B0636083157916S11711009EA0107701112000000000000
B0636123157942S11710927EA0107801109000000000000
B0636163157969S11710844EA0107201102000000000000
B0636203157994S11710761EA0106701096000000000000
B0636243158016S11710676EA0106201091000000000000
B0636283158039S11710594EA0105501085000000000000
B0636323158060S11710512EA0105001079000000000000
B0636363158080S11710429EA0104301072000000000000
B0636403158098S11710346EA0103701066000000000000
B0636443158115S11710261EA0103001060000000000000
B0636483158129S11710179EA0102401054000000000000
B0636523158142S11710098EA0101701047000000000000
B0636563158154S11710014EA0101101042000000000000
B0637003158164S11709935EA0100801036000000000000
B0637043158176S11709856EA0100101029000000000000
B0637083158186S11709776EA0099301021000000000000
B0637123158197S11709697EA0098601013000000000000
B0637163158207S11709618EA0097801005000000000000
B0637203158216S11709540EA0097200997000000000000
B0637243158224S11709462EA0096600990000000000000
B0637283158230S11709385EA0095700981000000000000
B0637323158237S11709307EA0094600972000000000000
B0637363158241S11709229EA0094100965000000000000
B0637403158245S11709154EA0093300959000000000000
B0637443158249S11709080EA0093000951000000000000
B0637483158251S11709003EA0091600936000000000000
B0637523158252S11708925EA0090400923000000000000
B0637563158254S11708847EA0089400915000000000000
B0638003158252S11708772EA0089200914000000000000
B0638043158250S11708696EA0089000912000000000000
B0638083158250S11708621EA0088900911000000000000
B0638123158255S11708547EA0089200915000000000000
B0638163158291S11708495EA0090000926000000000000
B0638203158343S11708500EA0092100948000000000000
B0638243158367S11708561EA0093400961000000000000
B0638283158345S11708634EA0093500959000000000000
B0638323158289S11708679EA0093800961000000000000
B0638363158225S11708686EA0093200954000000000000
B0638403158181S11708642EA0092800953000000000000
B0638443158184S11708583EA0092900953000000000000
B0638483158215S11708531EA0092900955000000000000
B0638523158268S11708531EA0094000973000000000000
B0638563158282S11708596EA0095800989000000000000
B0639003158242S11708661EA0095800978000000000000
B0639043158171S11708681EA0095100976000000000000
B0639083158119S11708636EA0095200979000000000000
B0639123158121S11708571EA0096000989000000000000
B0639163158163S11708532EA0096300991000000000000
B0639203158217S11708556EA0097601008000000000000
B0639243158228S11708626EA0098801018000000000000
B0639283158185S11708686EA0099001018000000000000
B0639323158120S11708688EA0099401023000000000000
B0639363158095S11708631EA0099701027000000000000
B0639403158135S11708592EA0100001028000000000000
B0639443158187S11708627EA0101101047000000000000
B0639483158195S11708701EA0102401055000000000000
B0639523158154S11708766EA0103001061000000000000
B0639563158091S11708772EA0104001075000000000000
B0640003158059S11708726EA0105201084000000000000
B0640043158070S11708673EA0105601087000000000000
B0640083158116S11708656EA0105801090000000000000
B0640123158160S11708697EA0107001104000000000000
B0640163158161S11708769EA0107701111000000000000
B0640203158109S11708816EA0108201116000000000000
B0640243158057S11708792EA0108501122000000000000
B0640283158060S11708736EA0109201127000000000000
B0640323158108S11708714EA0109401131000000000000
B0640363158150S11708760EA0110701147000000000000
B0640403158137S11708834EA0111301145000000000000
B0640443158076S11708870EA0111301149000000000000
B0640483158022S11708842EA0111901157000000000000
B0640523158020S11708785EA0113101166000000000000
B0640563158065S11708759EA0113001164000000000000
B0641003158115S11708798EA0113401175000000000000
B0641043158138S11708872EA0114101176000000000000
B0641083158116S11708955EA0114201183000000000000
B0641123158054S11708998EA0115101192000000000000
B0641163157991S11708982EA0116301202000000000000
B0641203157963S11708925EA0117101210000000000000
B0641243157982S11708864EA0117301211000000000000
B0641283158041S11708842EA0117301211000000000000
B0641323158102S11708873EA0118701229000000000000
B0641363158126S11708939EA0120401245000000000000
B0641403158099S11709007EA0120401235000000000000
B0641443158035S11709045EA0119601236000000000000
B0641483157970S11709046EA0120201243000000000000
B0641523157934S11709000EA0121101251000000000000
B0641563157938S11708942EA0121601256000000000000
B0642003157956S11708882EA0121701256000000000000
B0642043157942S11708824EA0122401265000000000000
B0642083157890S11708813EA0123001265000000000000
B0642123157842S11708859EA0122401263000000000000
B0642163157831S11708931EA0122501265000000000000
B0642203157860S11708993EA0122401263000000000000
B0642243157909S11709028EA0122201263000000000000
B0642283157968S11709039EA0122401268000000000000
B0642323158017S11709020EA0123301275000000000000
B0642363158042S11708972EA0123801279000000000000
B0642403158024S11708920EA0123601278000000000000
B0642443157972S11708894EA0123401274000000000000
B0642483157911S11708917EA0123501277000000000000
B0642523157866S11708977EA0123701277000000000000
B0642563157856S11709054EA0123701279000000000000
B0643003157882S11709123EA0123901281000000000000
B0643043157930S11709173EA0123801282000000000000
B0643083157986S11709188EA0124201287000000000000
B0643123158041S11709175EA0123901278000000000000
B0643163158096S11709150EA0122801271000000000000
B0643203158155S11709117EA0122101260000000000000
B0643243158212S11709072EA0120601247000000000000
B0643283158265S11709020EA0120401247000000000000
B0643323158320S11708968EA0119801237000000000000
B0643363158377S11708916EA0118801222000000000000
B0643403158434S11708865EA0117601211000000000000
B0643443158494S11708816EA0116501198000000000000
B0643483158551S11708757EA0114801179000000000000
B0643523158607S11708694EA0113701172000000000000
B0643563158662S11708629EA0113001164000000000000
B0644003158720S11708566EA0112801163000000000000
B0644043158778S11708508EA0112501158000000000000
B0644083158836S11708449EA0112001155000000000000
B0644123158888S11708388EA0112201157000000000000
B0644163158938S11708328EA0112201153000000000000
B0644203158996S11708270EA0111401145000000000000
B0644243159056S11708207EA0111001144000000000000
B0644283159118S11708150EA0110801144000000000000
B0644323159179S11708092EA0110601138000000000000
B0644363159242S11708032EA0108901120000000000000
B0644403159308S11707973EA0108601119000000000000
B0644443159373S11707921EA0108601118000000000000
B0644483159434S11707869EA0108101112000000000000
B0644523159493S11707819EA0107501103000000000000
B0644563159551S11707767EA0107001098000000000000
B0645003159607S11707715EA0106301091000000000000
B0645043159663S11707660EA0105301077000000000000
B0645083159712S11707599EA0104501072000000000000
B0645123159754S11707535EA0104201070000000000000
B0645163159792S11707472EA0103901063000000000000
B0645203159831S11707408EA0103001051000000000000
B0645243159871S11707342EA0102001045000000000000
B0645283159911S11707274EA0101301037000000000000
B0645323159952S11707206EA0100501029000000000000
B0645363159992S11707143EA0100201029000000000000
B0645403200028S11707084EA0100301028000000000000
B0645443200061S11707024EA0100201025000000000000
B0645483200091S11706963EA0099501018000000000000
B0645523200119S11706898EA0099101017000000000000
B0645563200150S11706836EA0099201018000000000000
B0646003200195S11706785EA0099701026000000000000
B0646043200243S11706741EA0099701022000000000000
B0646083200295S11706697EA0099101014000000000000
B0646123200338S11706645EA0100101030000000000000
B0646163200310S11706599EA0102101049000000000000
B0646203200252S11706625EA0102601052000000000000
B0646243200231S11706705EA0103301065000000000000
B0646283200262S11706767EA0104501075000000000000
B0646323200317S11706780EA0105001078000000000000
B0646363200349S11706740EA0105301084000000000000
B0646403200326S11706689EA0105701089000000000000
B0646443200267S11706692EA0106401097000000000000
B0646483200239S11706764EA0107201106000000000000
B0646523200271S11706831EA0108001114000000000000
B0646563200327S11706831EA0108501124000000000000
B0647003200344S11706777EA0109501136000000000000
B0647043200312S11706727EA0110201142000000000000
B0647083200251S11706731EA0111201150000000000000
B0647123200202S11706790EA0111901160000000000000
B0647163200199S11706871EA0113001172000000000000
B0647203200236S11706928EA0113901181000000000000
B0647243200291S11706940EA0114501184000000000000
B0647283200318S11706896EA0114901190000000000000
B0647323200274S11706851EA0115001190000000000000
B0647363200215S11706889EA0116601209000000000000
B0647403200213S11706968EA0117801223000000000000
B0647443200260S11707005EA0118401227000000000000
B0647483200300S11706975EA0119101234000000000000
B0647523200280S11706919EA0119801242000000000000
B0647563200219S11706907EA0120401254000000000000
B0648003200171S11706961EA0122101268000000000000
B0648043200171S11707036EA0123201275000000000000
B0648083200218S11707074EA0123701283000000000000
B0648123200262S11707053EA0124001287000000000000
B0648163200260S11706994EA0124801294000000000000
B0648203200206S11706958EA0125101300000000000000
B0648243200143S11706987EA0126101310000000000000
B0648283200108S11707059EA0126601315000000000000
B0648323200117S11707141EA0127201323000000000000
B0648363200160S11707191EA0128001332000000000000
B0648403200212S11707192EA0128801340000000000000
B0648443200239S11707152EA0129401343000000000000
B0648483200217S11707093EA0129201342000000000000
B0648523200150S11707078EA0129801353000000000000
B0648563200095S11707128EA0131401369000000000000
B0649003200079S11707208EA0132201376000000000000
B0649043200111S11707273EA0132701383000000000000
B0649083200165S11707293EA0133501388000000000000
B0649123200209S11707267EA0133701388000000000000
B0649163200218S11707206EA0133901388000000000000
B0649203200174S11707148EA0133801391000000000000
B0649243200102S11707143EA0134801404000000000000
B0649283200044S11707199EA0135901412000000000000
B0649323200036S11707283EA0136601419000000000000
B0649363200079S11707339EA0137301427000000000000
B0649403200135S11707340EA0137801430000000000000
B0649443200163S11707291EA0137801432000000000000
B0649483200135S11707230EA0138201436000000000000
B0649523200067S11707217EA0139001447000000000000
B0649563200006S11707262EA0140001453000000000000
B0650003159983S11707345EA0140101453000000000000
B0650043200007S11707422EA0140201458000000000000
B0650083200062S11707461EA0140701462000000000000
B0650123200119S11707452EA0140801461000000000000
B0650163200152S11707399EA0140901464000000000000
B0650203200137S11707331EA0141401473000000000000
B0650243200084S11707292EA0142701486000000000000
B0650283200018S11707313EA0143601492000000000000
B0650323159974S11707381EA0144101497000000000000
B0650363159968S11707460EA0144401500000000000000
B0650403200002S11707524EA0144501503000000000000
B0650443200056S11707550EA0144901504000000000000
B0650483200109S11707530EA0144501500000000000000
B0650523200140S11707474EA0144401500000000000000
B0650563200127S11707408EA0145101509000000000000
B0651003200072S11707371EA0145901518000000000000
B0651043200004S11707395EA0146301520000000000000
B0651083159962S11707468EA0146801526000000000000
B0651123159963S11707544EA0146901525000000000000
B0651163200005S11707594EA0146701524000000000000
B0651203200059S11707600EA0146601522000000000000
B0651243200113S11707574EA0146301520000000000000
B0651283200165S11707533EA0145601509000000000000
B0651323200219S11707481EA0144801506000000000000
B0651363200274S11707426EA0144901507000000000000
B0651403200326S11707366EA0144501497000000000000
B0651443200382S11707303EA0142401479000000000000
B0651483200443S11707235EA0141201465000000000000
B0651523200503S11707165EA0139601448000000000000
B0651563200565S11707091EA0138601433000000000000
B0652003200631S11707013EA0138001425000000000000
B0652043200696S11706931EA0137601425000000000000
B0652083200759S11706851EA0139101438000000000000
B0652123200817S11706773EA0138701430000000000000
B0652163200877S11706694EA0138001424000000000000
B0652203200938S11706616EA0137501416000000000000
B0652243200999S11706539EA0136401409000000000000
B0652283201059S11706465EA0136001406000000000000
B0652323201118S11706395EA0136001405000000000000
B0652363201175S11706328EA0136201407000000000000
B0652403201231S11706265EA0136501412000000000000
B0652443201283S11706207EA0137101414000000000000
B0652483201335S11706146EA0136301401000000000000
B0652523201388S11706082EA0135701397000000000000
B0652563201441S11706018EA0134901390000000000000
B0653003201497S11705954EA0134001380000000000000
B0653043201553S11705889EA0133001368000000000000
B0653083201613S11705823EA0131101347000000000000
B0653123201671S11705757EA0129501329000000000000
B0653163201730S11705691EA0128201318000000000000
B0653203201788S11705623EA0127201305000000000000
B0653243201846S11705557EA0126501303000000000000
B0653283201900S11705492EA0125701291000000000000
B0653323201957S11705427EA0124601282000000000000
B0653363202017S11705364EA0123001261000000000000
B0653403202076S11705297EA0121101243000000000000
B0653443202130S11705226EA0119701230000000000000
B0653483202184S11705158EA0118401212000000000000
B0653523202236S11705083EA0116901195000000000000
B0653563202285S11705004EA0114701176000000000000
B0654003202333S11704925EA0113501166000000000000
B0654043202383S11704853EA0112901164000000000000
B0654083202436S11704790EA0112601158000000000000
B0654123202493S11704735EA0112401163000000000000
B0654163202545S11704684EA0112301155000000000000
B0654203202596S11704635EA0111501147000000000000
B0654243202652S11704588EA0111201141000000000000
B0654283202704S11704537EA0110601140000000000000
B0654323202754S11704485EA0111001148000000000000
B0654363202802S11704435EA0112201157000000000000
B0654403202849S11704384EA0111801146000000000000
B0654443202899S11704332EA0110501132000000000000
B0654483202951S11704276EA0109101118000000000000
B0654523203004S11704218EA0108001110000000000000
B0654563203056S11704160EA0107601105000000000000
B0655003203104S11704101EA0107001095000000000000
B0655043203155S11704041EA0106101090000000000000
B0655083203202S11703982EA0105801087000000000000
B0655123203250S11703921EA0105501084000000000000
B0655163203299S11703863EA0105301085000000000000
B0655203203346S11703808EA0105201081000000000000
B0655243203393S11703755EA0105101085000000000000
B0655283203436S11703702EA0105801094000000000000
B0655323203477S11703648EA0106201095000000000000
B0655363203524S11703591EA0106201099000000000000
B0655403203571S11703536EA0107201107000000000000
B0655443203616S11703484EA0107401104000000000000
B0655483203666S11703430EA0105901082000000000000
B0655523203716S11703369EA0104001063000000000000
B0655563203775S11703312EA0102801058000000000000
B0656003203828S11703253EA0102201049000000000000
B0656043203881S11703195EA0101301039000000000000
B0656083203935S11703136EA0100801034000000000000
B0656123203985S11703078EA0100301026000000000000
B0656163204035S11703018EA0098701010000000000000
B0656203204084S11702955EA0097500998000000000000
B0656243204134S11702890EA0096200981000000000000
B0656283204183S11702821EA0094800970000000000000
B0656323204231S11702750EA0094100961000000000000
B0656363204278S11702677EA0093200953000000000000
B0656403204322S11702606EA0092500945000000000000
B0656443204365S11702534EA0091700936000000000000
B0656483204411S11702463EA0090500921000000000000
B0656523204459S11702390EA0089100905000000000000
B0656563204507S11702316EA0087900899000000000000
B0657003204551S11702244EA0087400892000000000000
B0657043204595S11702174EA0086500881000000000000
B0657083204641S11702104EA0085000862000000000000
B0657123204687S11702028EA0083400846000000000000
B0657163204734S11701953EA0081800830000000000000
B0657203204781S11701882EA0081200829000000000000
B0657243204824S11701811EA0080800820000000000000
B0657283204868S11701740EA0079400804000000000000
B0657323204911S11701668EA0079000806000000000000
B0657363204951S11701605EA0078800800000000000000
B0657403204992S11701538EA0077200780000000000000
B0657443205033S11701466EA0075300760000000000000
B0657483205075S11701391EA0074300753000000000000
B0657523205115S11701316EA0073500743000000000000
B0657563205158S11701239EA0072300733000000000000
B0658003205201S11701165EA0072500737000000000000
B0658043205245S11701092EA0072000733000000000000
B0658083205288S11701025EA0072500740000000000000
B0658123205328S11700960EA0072800740000000000000
B0658163205370S11700897EA0072400732000000000000
