ACAM4N6
HFDTE290917
HFFXA050
HFPLTPILOT:JOHN WELSH              
HFGTYGLIDERTYPE:HORNET      
HFGIDGLIDERID:VH GMY      
HFDTM100GPSDATUM:
HFRFWFIRMWAREVERSION:F2.6
HFRHWHARDWAREVERSION:300 Series Version 2
HFFTYFRTYPE:CAMBRIDGE AERO INSTRUMENTS, 302+
HFGPS:GARMIN,LVS-25,12,18000
HFPRSPRESSALTSENSOR:INTERSEMA, MS5534-AP, 20000
I033638FXA3941ENL4247REX
LCAMSBVER:5FWVER:F26300
C121016042725121016000103
C0000000N00000000WTAKEOFF     
C3207549S11656849EBEVAIR      
C3157887S11735628EYOTING      
C3137789S11744052EKLLRBRRN    
C3137399S11712982ECunderdin AF
C3207549S11656849EBEVAIR      
C0000000N00000000WLANDING     
B0716043207339S11656854EA0012300224000000000000
B0716063207339S11656854EA0012200224000000000000
B0716083207339S11656854EA0012200224000000000000
B0716103207339S11656854EA0012100223000000000000
B0716123207339S11656854EA0012000223000000000000
B0716143207339S11656854EA0012200223000000000000
B0716163207339S11656854EA0012300223000000000000
B0716183207339S11656854EA0012200223000000000000
B0716203207339S11656854EA0012200223000000000000
B0716223207339S11656854EA0012200223000000000000
B0716243207339S11656854EA0012100223000000000000
B0716263207339S11656854EA0012200223000000000000
B0716283207339S11656854EA0012200223000000000000
B0716303207339S11656856EA0012200223000000000000
B0716323207341S11656857EA0012200223000000000000
B0716373207359S11656874EA0012300223000000000000
B0716413207390S11656899EA0012400223000000000000
B0716453207440S11656931EA0012600224000000000000
B0716493207499S11656969EA0012900227000000000000
B0716533207563S11657012EA0013400230000000000000
B0716573207623S11657057EA0014700253000000000000
B0717013207679S11657101EA0017300278000000000000
B0717053207735S11657150EA0019500300000000000000
B0717093207784S11657202EA0022100329000000000000
B0717133207831S11657257EA0025000356000000000000
B0717173207876S11657317EA0027400380000000000000
B0717213207921S11657378EA0029900403000000000000
B0717253207962S11657442EA0032100424000000000000
B0717293208006S11657499EA0033900446000000000000
B0717333208060S11657543EA0036400469000000000000
B0717373208122S11657571EA0038200486000000000000
B0717413208187S11657573EA0040600513000000000000
B0717453208248S11657555EA0043400539000000000000
B0717493208304S11657520EA0045800561000000000000
B0717533208359S11657472EA0047900581000000000000
B0717573208408S11657413EA0050600611000000000000
B0718013208450S11657345EA0053900642000000000000
B0718053208487S11657276EA0057000680000000000000
B0718093208525S11657208EA0059900703000000000000
B0718133208558S11657142EA0062200729000000000000
B0718173208571S11657059EA0064600747000000000000
B0718213208554S11656970EA0066300768000000000000
B0718253208509S11656895EA0069400799000000000000
B0718293208444S11656839EA0072600830000000000000
B0718333208366S11656805EA0075600857000000000000
B0718373208283S11656802EA0078200879000000000000
B0718413208230S11656857EA0079400885000000000000
B0718453208240S11656923EA0079600885000000000000
B0718493208287S11656927EA0079200880000000000000
B0718533208311S11656865EA0078800882000000000000
B0718573208266S11656805EA0080100897000000000000
B0719013208204S11656831EA0081200909000000000000
B0719053208192S11656897EA0081800911000000000000
B0719093208229S11656932EA0081900910000000000000
B0719133208274S11656919EA0081700911000000000000
B0719173208291S11656861EA0082600922000000000000
B0719213208240S11656826EA0084100934000000000000
B0719253208197S11656873EA0084800939000000000000
B0719293208223S11656921EA0084900940000000000000
B0719333208266S11656896EA0085300944000000000000
B0719373208247S11656834EA0086500959000000000000
B0719413208182S11656830EA0087200964000000000000
B0719453208147S11656891EA0088100974000000000000
B0719493208174S11656936EA0088400974000000000000
B0719533208220S11656914EA0088400974000000000000
B0719573208214S11656848EA0089800993000000015000
B0720013208164S11656806EA0090500997000000015000
B0720053208097S11656819EA0091001002000000015000
B0720093208067S11656880EA0091901013000000015000
B0720133208097S11656923EA0092401010000000000000
B0720173208144S11656900EA0092001012000000000000
B0720213208166S11656835EA0092601017000000000000
B0720253208142S11656767EA0092901022000000000000
B0720293208078S11656740EA0093001021000000000000
B0720333208008S11656761EA0092701016000000000000
B0720373207941S11656804EA0093001021000000000000
B0720413207917S11656871EA0094701042000000000000
B0720453207950S11656900EA0095901047000000000000
B0720493207982S11656856EA0095101040000000000000
B0720533207962S11656783EA0096001051000000000000
B0720573207904S11656743EA0096601060000000000000
B0721013207835S11656754EA0097101061000000000000
B0721053207793S11656810EA0097201066000000000000
B0721093207797S11656873EA0097601066000000000000
B0721133207840S11656900EA0097601066000000000000
B0721173207885S11656871EA0097601063000000000000
B0721213207900S11656801EA0097601067000000000000
B0721253207853S11656741EA0098401076000000000000
B0721293207781S11656744EA0098901079000000000000
B0721333207731S11656800EA0099401086000000000000
B0721373207726S11656867EA0100001093000000000000
B0721413207759S11656914EA0100301093000000000000
B0721453207806S11656903EA0100801098000000000000
B0721493207810S11656836EA0101101102000000000000
B0721533207753S11656791EA0101701109000000000000
B0721573207688S11656819EA0102301114000000000000
B0722013207677S11656886EA0103101121000000000000
B0722053207718S11656918EA0103101118000000000000
B0722093207757S11656879EA0103401124000000000000
B0722133207741S11656810EA0104401135000000000000
B0722173207679S11656787EA0104701135000000000000
B0722213207624S11656835EA0104801138000000000000
B0722253207628S11656900EA0105601145000000000000
B0722293207672S11656914EA0105701146000000000000
B0722333207703S11656867EA0106501156000000000000
B0722373207672S11656812EA0107501165000000000000
B0722413207610S11656823EA0107101156000000000000
B0722453207594S11656888EA0107301161000000000000
B0722493207629S11656925EA0107701166000000000000
B0722533207672S11656900EA0108201171000000000000
B0722573207676S11656838EA0109201184000000000000
B0723013207638S11656787EA0110201192000000000000
B0723053207576S11656776EA0110201191000000000000
B0723093207525S11656818EA0110001187000000000000
B0723133207518S11656883EA0110301192000000000000
B0723173207551S11656917EA0110701198000000000000
B0723213207581S11656874EA0111101201000000000000
B0723253207540S11656822EA0111901209000000000000
B0723293207482S11656852EA0112401213000000000000
B0723333207484S11656913EA0112501214000000000000
B0723373207529S11656919EA0113101220000000000000
B0723413207551S11656866EA0113601225000000000000
B0723453207521S11656808EA0114501236000000000000
B0723493207459S11656800EA0115301240000000000000
B0723533207415S11656848EA0115601242000000000000
B0723573207430S11656899EA0115701243000000000000
B0724013207472S11656879EA0115701244000000000000
B0724053207459S11656813EA0116201253000000000000
B0724093207397S11656792EA0117301264000000000000
B0724133207349S11656839EA0117801269000000000000
B0724173207355S11656892EA0118801278000000000000
B0724213207393S11656904EA0119001276000000000000
B0724253207423S11656864EA0119101281000000000000
B0724293207393S11656810EA0120001290000000000000
B0724333207334S11656832EA0120101286000000000000
B0724373207337S11656893EA0120101287000000000000
B0724413207384S11656892EA0119901286000000000000
B0724453207434S11656866EA0119401282000000000000
B0724493207479S11656893EA0120701302000000000000
B0724533207486S11656952EA0121901308000000000000
B0724573207453S11657014EA0122301314000000000000
B0725013207391S11657049EA0122601315000000000000
B0725053207323S11657051EA0122601318000000000000
B0725093207260S11657022EA0123001323000000000000
B0725133207211S11656973EA0123501326000000000000
B0725173207186S11656906EA0123701327000000000000
B0725213207187S11656835EA0123501322000000000000
B0725253207220S11656780EA0123301321000000000000
B0725293207264S11656744EA0123901330000000000000
B0725333207313S11656719EA0124601335000000000000
B0725373207368S11656717EA0124301331000000000000
B0725413207424S11656713EA0124101327000000000000
B0725453207477S11656706EA0123901328000000000000
B0725493207528S11656697EA0124001330000000000000
B0725533207573S11656687EA0124601337000000000000
B0725573207609S11656675EA0125301343000000000000
B0726013207636S11656662EA0124701331000000000000
B0726053207675S11656643EA0122501313000000000000
B0726093207710S11656613EA0122501311000000000000
B0726103207701S11656548EA0121301296000000000000
B0726143207700S11656484EA0120601291000000000000
B0726183207735S11656453EA0120401287000000000000
B0726223207778S11656461EA0120301287000000000000
B0726263207813S11656474EA0120401290000000000000
B0726303207844S11656481EA0120001280000000000000
B0726343207884S11656483EA0118101259000000000000
B0726383207919S11656477EA0118201271000000000000
B0726423207947S11656471EA0117601253000000000000
B0726463207989S11656464EA0115601238000000000000
B0726503208025S11656461EA0115701243000000000000
B0726543208056S11656457EA0115301232000000000000
B0726583208093S11656450EA0114401224000000000000
B0727023208134S11656440EA0113901219000000000000
B0727063208175S11656431EA0113401215000000000000
B0727103208220S11656422EA0113001209000000000000
B0727143208268S11656418EA0112101196000000000000
B0727183208329S11656415EA0109701161000000000000
B0727223208408S11656411EA0105901117000000000000
B0727263208504S11656407EA0102001079000000000000
B0727303208612S11656409EA0097901031000000000000
B0727343208732S11656411EA0093500981000000000000
B0727383208859S11656414EA0089100936000000000000
B0727423208994S11656420EA0084400881000000000000
B0727463209136S11656427EA0079000825000000000000
B0727503209282S11656433EA0075600817000000000000
B0727543209409S11656436EA0078200860000000000000
B0727583209516S11656448EA0081200894000000000000
B0728023209595S11656485EA0084300932000000000000
B0728063209644S11656546EA0086400947000000000000
B0728103209665S11656627EA0086300939000000000000
B0728143209656S11656722EA0084700918000000000000
B0728183209620S11656817EA0083200907000000000000
B0728223209561S11656895EA0083300911000000000000
B0728263209490S11656953EA0083100905000000000000
B0728303209408S11656997EA0081800891000000000000
B0728343209318S11657029EA0080800878000000000000
B0728383209223S11657052EA0079600867000000000000
B0728423209131S11657072EA0078300864000000000000
B0728463209041S11657083EA0078600869000000000000
B0728503208959S11657088EA0079300876000000000000
B0728543208880S11657092EA0079100875000000000000
B0728583208805S11657099EA0079300876000000000000
B0729023208732S11657107EA0079500880000000000000
B0729063208662S11657113EA0079700881000000000000
B0729103208593S11657120EA0079500876000000000000
B0729143208521S11657126EA0078600866000000000000
B0729183208446S11657135EA0077900858000000000000
B0729223208369S11657144EA0077500860000000000000
B0729263208295S11657147EA0077600859000000000000
B0729303208218S11657148EA0077500858000000000000
B0729343208142S11657153EA0077400857000000000000
B0729383208064S11657161EA0077200854000000000000
B0729423207986S11657172EA0077300856000000000000
B0729463207909S11657186EA0077600862000000000000
B0729503207839S11657209EA0078800873000000000000
B0729543207798S11657269EA0079500881000000000000
B0729583207819S11657316EA0080200887000000000000
B0730023207850S11657282EA0080500892000000000000
B0730063207823S11657220EA0080800898000000000000
B0730103207759S11657213EA0081900909000000000000
B0730143207715S11657257EA0082600911000000000000
B0730183207711S11657316EA0083300921000000000000
B0730223207742S11657333EA0083600918000000000000
B0730263207767S11657287EA0083700924000000000000
B0730303207736S11657228EA0084300931000000000000
B0730343207671S11657226EA0084900936000000000000
B0730383207624S11657278EA0085300938000000000000
B0730423207616S11657343EA0086000950000000000000
B0730463207648S11657374EA0087300960000000000000
B0730503207680S11657348EA0088400973000000000000
B0730543207668S11657286EA0089000975000000000000
B0730583207607S11657256EA0089600984000000000000
B0731023207544S11657289EA0090300990000000000000
B0731063207515S11657352EA0091601003000000000000
B0731103207531S11657404EA0092501014000000000000
B0731143207570S11657413EA0093301019000000000000
B0731183207586S11657363EA0094301032000000000000
B0731223207542S11657312EA0095101037000000000000
B0731263207476S11657328EA0095801044000000000000
B0731303207449S11657391EA0096801056000000000000
B0731343207473S11657436EA0097901065000000000000
B0731383207511S11657417EA0098601073000000000000
B0731423207499S11657356EA0100301089000000000000
B0731463207434S11657335EA0100801092000000000000
B0731503207381S11657382EA0102001107000000000000
B0731543207380S11657441EA0103601121000000000000
B0731583207415S11657462EA0104401128000000000000
B0732023207446S11657428EA0105001140000000000000
B0732063207428S11657365EA0106701154000000000000
B0732103207365S11657338EA0107401158000000000000
B0732143207306S11657373EA0108001168000000000000
B0732183207287S11657434EA0109201178000000000000
B0732223207319S11657472EA0109601181000000000000
B0732263207358S11657446EA0110701194000000000000
B0732303207345S11657382EA0112401210000000000000
B0732343207286S11657351EA0113001214000000000000
B0732383207224S11657390EA0113201215000000000000
B0732423207211S11657459EA0114601232000000000000
B0732463207245S11657495EA0115401242000000000000
B0732503207282S11657469EA0116401253000000000000
B0732543207272S11657406EA0117901267000000000000
B0732583207212S11657373EA0118601271000000000000
B0733023207147S11657406EA0119001275000000000000
B0733063207130S11657469EA0120301291000000000000
B0733103207163S11657504EA0121601301000000000000
B0733143207199S11657475EA0122301309000000000000
B0733183207190S11657408EA0123401318000000000000
B0733223207133S11657368EA0123801322000000000000
B0733263207064S11657390EA0124001324000000000000
B0733303207034S11657458EA0124501333000000000000
B0733343207056S11657512EA0125801345000000000000
B0733383207104S11657507EA0126401349000000000000
B0733423207125S11657445EA0127201358000000000000
B0733463207089S11657376EA0128201368000000000000
B0733503207014S11657360EA0128701372000000000000
B0733543206953S11657410EA0129201376000000000000
B0733583206940S11657484EA0130301390000000000000
B0734023206974S11657521EA0131701402000000000000
B0734063207018S11657499EA0131901403000000000000
B0734103207030S11657429EA0132401409000000000000
B0734143206986S11657360EA0133001415000000000000
B0734183206907S11657343EA0133001413000000000000
B0734223206829S11657385EA0132801410000000000000
B0734263206784S11657464EA0133001412000000000000
B0734303206790S11657545EA0134201427000000000000
B0734343206836S11657592EA0135401438000000000000
B0734383206892S11657593EA0135801440000000000000
B0734423206940S11657545EA0136001441000000000000
B0734463206948S11657465EA0136501454000000000000
B0734503206907S11657393EA0138101468000000000000
B0734543206831S11657361EA0138601470000000000000
B0734583206752S11657385EA0138801469000000000000
B0735023206699S11657456EA0138801468000000000000
B0735063206696S11657538EA0139301477000000000000
B0735103206735S11657599EA0140201485000000000000
B0735143206790S11657627EA0140401487000000000000
B0735183206851S11657638EA0140501490000000000000
B0735223206914S11657644EA0140601488000000000000
B0735263206981S11657642EA0140301482000000000000
B0735303207048S11657636EA0139401473000000000000
B0735343207117S11657624EA0138301460000000000000
B0735383207187S11657610EA0137401453000000000000
B0735423207259S11657593EA0137001449000000000000
B0735463207330S11657576EA0136501442000000000000
B0735503207404S11657559EA0135701434000000000000
B0735543207482S11657550EA0135301432000000000000
B0735583207555S11657549EA0136101445000000000000
B0736023207623S11657554EA0136901451000000000000
B0736063207688S11657560EA0137301458000000000000
B0736103207748S11657568EA0138301461000000000000
B0736143207811S11657580EA0136401434000000000000
B0736183207888S11657597EA0134101412000000000000
B0736223207970S11657618EA0132501399000000000000
B0736263208051S11657640EA0132601400000000000000
B0736303208121S11657666EA0134301416000000000000
B0736343208186S11657679EA0135201421000000000000
B0736383208248S11657666EA0135001424000000000000
B0736423208304S11657629EA0135501430000000000000
B0736463208350S11657580EA0136101433000000000000
B0736503208390S11657524EA0135801427000000000000
B0736543208431S11657465EA0135001420000000000000
B0736583208480S11657415EA0134601419000000000000
B0737023208524S11657367EA0134801423000000000000
B0737063208548S11657308EA0135501431000000000000
B0737103208552S11657244EA0135801432000000000000
B0737143208535S11657178EA0135701431000000000000
B0737183208499S11657117EA0136001436000000000000
B0737223208450S11657079EA0136701444000000000000
B0737263208396S11657081EA0137001446000000000000
B0737303208370S11657105EA0133601426000000015000
B0737343208350S11657194EA0124401379000000015000
B0737383208343S11657298EA0124001413000000015000
B0737423208343S11657380EA0126501431000000015000
B0737463208337S11657445EA0128001436000000015000
B0737503208301S11657469EA0127601424000000015000
B0737543208259S11657484EA0119401333000000015000
B0737583208164S11657494EA0114901326000000015000
B0738023208087S11657480EA0116701339000000015000
B0738063208026S11657458EA0116901327000000045000
B0738103207965S11657430EA0116401310000000045000
B0738143207921S11657378EA0116201301000000030000
B0738183207880S11657321EA0115801289000000030000
B0738223207826S11657342EA0115001278000000030000
B0738263207826S11657410EA0114001262000000030000
B0738303207800S11657469EA0114101264000000030000
B0738343207750S11657434EA0113501250000000015000
B0738383207763S11657363EA0112101232000000000000
B0738423207783S11657295EA0112301234000000000000
B0738463207791S11657228EA0111701222000000000000
B0738503207810S11657166EA0110701209000000000000
B0738543207837S11657111EA0109601190000000000000
B0738583207878S11657056EA0108001171000000000000
B0739023207924S11657007EA0107501168000000000000
B0739063207975S11656964EA0107401165000000000000
B0739103208028S11656925EA0106801153000000000000
B0739143208087S11656887EA0106001145000000000000
B0739183208149S11656849EA0104901129000000000000
B0739223208216S11656825EA0104901136000000000000
B0739263208277S11656804EA0105601143000000000000
B0739303208321S11656761EA0106401146000000000000
B0739343208329S11656692EA0105901136000000000000
B0739383208298S11656622EA0104801128000000000000
B0739423208242S11656570EA0104501127000000000000
B0739463208178S11656533EA0104301124000000000000
B0739503208112S11656505EA0104101121000000000000
B0739543208043S11656511EA0103701116000000000000
B0739583208004S11656571EA0103101108000000000000
B0740023208014S11656640EA0102201101000000000000
B0740063208054S11656683EA0101901098000000000000
B0740103208104S11656711EA0101601094000000000000
B0740143208155S11656737EA0100801086000000000000
B0740183208205S11656763EA0099701072000000000000
B0740223208251S11656814EA0097901053000000000000
B0740263208259S11656901EA0096701042000000000000
B0740303208221S11656984EA0096501044000000000000
B0740343208171S11657055EA0096601043000000000000
B0740383208121S11657122EA0096301037000000000000
B0740423208067S11657192EA0095401032000000000000
B0740463208013S11657263EA0095201028000000000000
B0740503207960S11657334EA0094801028000000000000
B0740543207910S11657403EA0095201030000000000000
B0740583207861S11657472EA0095301031000000000000
B0741023207813S11657540EA0095401034000000000000
B0741063207771S11657610EA0095101030000000000000
B0741103207724S11657676EA0094601021000000000000
B0741143207672S11657744EA0093901012000000000000
B0741183207632S11657820EA0092801001000000000000
B0741223207614S11657905EA0092000996000000000000
B0741263207620S11657984EA0091800997000000000000
B0741303207651S11658034EA0092701010000000000000
B0741343207697S11658024EA0092301003000000000000
B0741383207714S11657957EA0091200992000000000000
B0741423207676S11657887EA0091000991000000000000
B0741463207607S11657866EA0091000992000000000000
B0741503207542S11657896EA0090000978000000000000
B0741543207485S11657954EA0088900967000000000000
B0741583207434S11658022EA0088700967000000000000
B0742023207391S11658087EA0089100972000000000000
B0742063207352S11658152EA0089600978000000000000
B0742103207329S11658222EA0090400987000000000000
B0742143207359S11658255EA0091901005000000000000
B0742183207359S11658196EA0092701008000000000000
B0742223207287S11658182EA0093701023000000000000
B0742263207237S11658238EA0095301037000000000000
B0742303207239S11658303EA0097101059000000000000
B0742343207280S11658331EA0099101076000000000000
B0742383207325S11658307EA0100701092000000000000
B0742423207333S11658243EA0102301114000000000000
B0742463207291S11658191EA0103901124000000000000
B0742503207224S11658204EA0104901134000000000000
B0742543207199S11658268EA0106401146000000000000
B0742583207235S11658295EA0107801163000000000000
B0743023207265S11658244EA0109101178000000000000
B0743063207239S11658177EA0110701193000000000000
B0743103207167S11658158EA0112101205000000000000
B0743143207109S11658203EA0113601220000000000000
B0743183207102S11658266EA0114801230000000000000
B0743223207139S11658288EA0116301248000000000000
B0743263207157S11658238EA0117701260000000000000
B0743303207113S11658180EA0118501267000000000000
B0743343207046S11658200EA0119501279000000000000
B0743383207027S11658268EA0120701294000000000000
B0743423207061S11658300EA0122301308000000000000
B0743463207087S11658252EA0123501322000000000000
B0743503207053S11658187EA0124801333000000000000
B0743543206982S11658169EA0125701342000000000000
B0743583206922S11658212EA0126601349000000000000
B0744023206918S11658279EA0127601360000000000000
B0744063206959S11658286EA0129101374000000000000
B0744103206962S11658223EA0130001383000000000000
B0744143206904S11658182EA0131001393000000000000
B0744183206836S11658203EA0131701400000000000000
B0744223206814S11658268EA0132501411000000000000
B0744263206844S11658307EA0133501423000000000000
B0744303206882S11658279EA0134901435000000000000
B0744343206862S11658217EA0136001442000000000000
B0744383206795S11658206EA0136601447000000000000
B0744423206751S11658262EA0137201457000000000000
B0744463206770S11658310EA0138301466000000000000
B0744503206810S11658287EA0138801471000000000000
B0744543206804S11658219EA0139901480000000000000
B0744583206743S11658187EA0140501486000000000000
B0745023206686S11658229EA0140901488000000000000
B0745063206693S11658292EA0141501496000000000000
B0745103206736S11658294EA0142501504000000000000
B0745143206749S11658234EA0143501514000000000000
B0745183206706S11658175EA0143501509000000000000
B0745223206626S11658145EA0141801487000000000000
B0745263206537S11658123EA0141601489000000000000
B0745303206450S11658109EA0141901493000000000000
B0745343206363S11658096EA0142101498000000000000
B0745383206281S11658084EA0142901506000000000000
B0745423206203S11658075EA0143101502000000000000
B0745463206121S11658066EA0142201497000000000000
B0745503206043S11658056EA0142301497000000000000
B0745543205968S11658045EA0142001494000000000000
B0745583205893S11658036EA0141001479000000000000
B0746023205811S11658024EA0139301464000000000000
B0746063205729S11658019EA0139001465000000000000
B0746103205651S11658018EA0139701475000000000000
B0746143205577S11658010EA0140101480000000000000
B0746183205501S11658001EA0140101478000000000000
B0746223205425S11657985EA0140501482000000000000
B0746263205347S11657971EA0140001472000000000000
B0746303205263S11657959EA0139601473000000000000
B0746343205181S11657949EA0140401482000000000000
B0746383205097S11657943EA0140701482000000000000
B0746423205011S11657935EA0140801484000000000000
B0746463204927S11657927EA0141001487000000000000
B0746503204843S11657923EA0141301488000000000000
B0746543204759S11657915EA0140901483000000000000
B0746583204676S11657902EA0141001484000000000000
B0747023204591S11657884EA0141001485000000000000
B0747063204508S11657870EA0141001485000000000000
B0747103204426S11657855EA0140501482000000000000
B0747143204343S11657845EA0140001473000000000000
B0747183204258S11657841EA0139101464000000000000
B0747223204174S11657842EA0138401459000000000000
B0747263204091S11657850EA0138001456000000000000
B0747303204008S11657861EA0138001456000000000000
B0747343203927S11657871EA0138201460000000000000
B0747383203849S11657881EA0138701470000000000000
B0747423203774S11657891EA0140001478000000000000
B0747463203697S11657902EA0139701473000000000000
B0747503203616S11657914EA0138901463000000000000
B0747543203533S11657923EA0137901454000000000000
B0747583203449S11657933EA0136901442000000000000
B0748023203364S11657944EA0136201437000000000000
B0748063203280S11657958EA0135401428000000000000
B0748103203194S11657978EA0134701422000000000000
B0748143203109S11658000EA0134601422000000000000
B0748183203022S11658017EA0134001416000000000000
B0748223202934S11658030EA0133001404000000000000
B0748263202843S11658041EA0132201396000000000000
B0748303202753S11658053EA0131901397000000000000
B0748343202665S11658067EA0132001395000000000000
B0748383202576S11658078EA0131901395000000000000
B0748423202490S11658087EA0131501392000000000000
B0748463202405S11658092EA0131001385000000000000
B0748503202316S11658093EA0129901373000000000000
B0748543202229S11658093EA0129301364000000000000
B0748583202141S11658095EA0128101357000000000000
B0749023202054S11658100EA0127501347000000000000
B0749063201965S11658105EA0126601341000000000000
B0749103201878S11658109EA0126301341000000000000
B0749143201796S11658113EA0126101339000000000000
B0749183201716S11658115EA0125801336000000000000
B0749223201638S11658119EA0125601335000000000000
B0749263201560S11658130EA0125801339000000000000
B0749303201483S11658141EA0126101339000000000000
B0749343201408S11658149EA0125701333000000000000
B0749383201331S11658149EA0124801320000000000000
B0749423201250S11658152EA0123701311000000000000
B0749463201168S11658160EA0123001308000000000000
B0749503201088S11658167EA0123401316000000000000
B0749543201012S11658153EA0124201324000000000000
B0749583200940S11658136EA0125501334000000000000
B0750023200878S11658175EA0125501334000000000000
B0750063200880S11658248EA0125401333000000000000
B0750103200932S11658266EA0125901344000000000000
B0750143200962S11658219EA0126601347000000000000
B0750183200947S11658152EA0127001352000000000000
B0750223200893S11658102EA0127501357000000000000
B0750263200824S11658083EA0127501353000000000000
B0750303200750S11658095EA0127601356000000000000
B0750343200678S11658123EA0128401367000000000000
B0750383200611S11658158EA0129001371000000000000
B0750423200546S11658199EA0129001366000000000000
B0750463200475S11658240EA0128701368000000000000
B0750503200405S11658277EA0129401377000000000000
B0750543200336S11658312EA0130301383000000000000
B0750583200269S11658344EA0130501382000000000000
B0751023200199S11658375EA0130001376000000000000
B0751063200126S11658407EA0129401370000000000000
B0751103200053S11658439EA0129101366000000000000
B0751143159979S11658476EA0128301356000000000000
B0751183159905S11658513EA0127301345000000000000
B0751223159832S11658554EA0126101332000000000000
B0751263159758S11658593EA0124901321000000000000
B0751303159685S11658632EA0124401319000000000000
B0751343159616S11658672EA0124201317000000000000
B0751383159546S11658713EA0123701312000000000000
B0751423159477S11658758EA0123201303000000000000
B0751463159399S11658794EA0122201296000000000000
B0751503159322S11658829EA0122701306000000000000
B0751543159250S11658864EA0123601316000000000000
B0751583159188S11658911EA0125601339000000000000
B0752023159192S11658968EA0127201356000000000000
B0752063159234S11658959EA0128001360000000000000
B0752103159231S11658895EA0129301376000000000000
B0752143159169S11658876EA0130601386000000000000
B0752183159133S11658931EA0131101391000000000000
B0752223159165S11658967EA0132101401000000000000
B0752263159192S11658920EA0132701404000000000000
B0752303159152S11658860EA0133801418000000000000
B0752343159086S11658869EA0134901428000000000000
B0752383159068S11658929EA0136001438000000000000
B0752423159107S11658945EA0136701445000000000000
B0752463159125S11658886EA0137301452000000000000
B0752503159077S11658832EA0138101460000000000000
B0752543159006S11658845EA0138901470000000000000
B0752583158986S11658905EA0140301484000000000000
B0753023159019S11658932EA0141101491000000000000
B0753063159056S11658895EA0141601497000000000000
B0753103159043S11658832EA0143001509000000000000
B0753143158979S11658806EA0143301509000000000000
B0753183158902S11658815EA0143201506000000000000
B0753223158822S11658824EA0143401509000000000000
B0753263158736S11658825EA0143401509000000000000
B0753303158649S11658824EA0143801515000000000000
B0753343158563S11658819EA0144501525000000000000
B0753383158480S11658810EA0145301531000000000000
B0753423158398S11658793EA0145501530000000000000
B0753463158319S11658769EA0145201528000000000000
B0753503158241S11658742EA0144701521000000000000
B0753543158160S11658723EA0144101518000000000000
B0753583158080S11658708EA0143601511000000000000
B0754023157998S11658694EA0142401500000000000000
B0754063157916S11658682EA0141801495000000000000
B0754103157836S11658671EA0141301489000000000000
B0754143157756S11658655EA0140801484000000000000
B0754183157675S11658639EA0140501482000000000000
B0754223157596S11658626EA0140301479000000000000
B0754263157517S11658615EA0140001478000000000000
B0754303157440S11658600EA0139601472000000000000
B0754343157363S11658580EA0139001466000000000000
B0754383157288S11658554EA0138501462000000000000
B0754423157214S11658525EA0138101458000000000000
B0754463157141S11658490EA0137301450000000000000
B0754503157072S11658444EA0137001444000000000000
B0754543157003S11658407EA0136901445000000000000
B0754583156932S11658414EA0136901448000000000000
B0755023156868S11658453EA0136601442000000000000
B0755063156803S11658502EA0135701431000000000000
B0755103156730S11658538EA0135001423000000000000
B0755143156664S11658502EA0134301416000000000000
B0755183156669S11658421EA0133201404000000000000
B0755223156722S11658378EA0133101407000000000000
B0755263156780S11658362EA0133001404000000000000
B0755303156839S11658351EA0132501395000000000000
B0755343156899S11658339EA0131801390000000000000
B0755383156959S11658327EA0131401390000000000000
B0755423157017S11658318EA0131501389000000000000
B0755463157075S11658309EA0131001385000000000000
B0755503157132S11658300EA0130601380000000000000
B0755543157189S11658292EA0130201377000000000000
B0755583157244S11658282EA0129801375000000000000
B0756023157293S11658270EA0129701376000000000000
B0756063157339S11658257EA0129701372000000000000
B0756103157384S11658243EA0128701357000000000000
B0756143157437S11658230EA0127101340000000000000
B0756183157497S11658217EA0125301322000000000000
B0756223157560S11658203EA0124501320000000000000
B0756263157613S11658188EA0124901327000000000000
B0756303157661S11658174EA0125001324000000000000
B0756343157713S11658162EA0123501306000000000000
B0756383157774S11658152EA0121901289000000000000
B0756423157836S11658139EA0121501290000000000000
B0756463157891S11658126EA0122001297000000000000
B0756503157940S11658113EA0122101293000000000000
B0756543157992S11658104EA0120801277000000000000
B0756583158056S11658095EA0119201263000000000000
B0757023158120S11658083EA0118401255000000000000
B0757063158184S11658067EA0118001254000000000000
B0757103158243S11658050EA0118001254000000000000
B0757143158301S11658032EA0117801252000000000000
B0757183158358S11658014EA0117101244000000000000
B0757223158415S11657989EA0116401232000000000000
B0757263158473S11657966EA0115401224000000000000
B0757303158532S11657953EA0114601217000000000000
B0757343158589S11657941EA0113901211000000000000
B0757383158645S11657933EA0113501209000000000000
B0757423158698S11657927EA0113301205000000000000
B0757463158753S11657918EA0112701200000000000000
B0757503158809S11657911EA0112301197000000000000
B0757543158865S11657906EA0112601200000000000000
B0757583158918S11657900EA0112901204000000000000
B0758023158971S11657893EA0112901204000000000000
B0758063159026S11657887EA0112801200000000000000
B0758103159082S11657885EA0112601201000000000000
B0758143159139S11657881EA0112101193000000000000
B0758183159200S11657878EA0111301183000000000000
B0758223159261S11657874EA0111301188000000000000
B0758263159318S11657871EA0112201201000000000000
B0758303159373S11657871EA0113101206000000000000
B0758343159434S11657868EA0112601198000000000000
B0758383159499S11657866EA0113301210000000000000
B0758423159560S11657863EA0114401219000000000000
B0758463159623S11657859EA0114601222000000000000
B0758503159685S11657853EA0114801225000000000000
B0758543159745S11657849EA0115201226000000000000
B0758583159806S11657844EA0115001226000000000000
B0759023159867S11657839EA0115001223000000000000
B0759063159929S11657835EA0115101222000000000000
B0759103159991S11657832EA0114801223000000000000
B0759143200053S11657832EA0114801221000000000000
B0759183200121S11657832EA0113301197000000000000
B0759223200189S11657827EA0111601185000000000000
B0759263200261S11657829EA0110701177000000000000
B0759303200330S11657840EA0110101173000000000000
B0759343200395S11657846EA0109901172000000000000
B0759383200459S11657848EA0109501167000000000000
B0759423200520S11657839EA0109201164000000000000
B0759463200577S11657828EA0108601164000000000000
B0759503200631S11657819EA0108301154000000000000
B0759543200689S11657809EA0107301144000000000000
B0759583200745S11657793EA0106201133000000000000
B0800023200804S11657781EA0105401128000000000000
B0800063200863S11657776EA0105201125000000000000
B0800103200921S11657772EA0104901124000000000000
B0800143200977S11657768EA0104801123000000000000
B0800183201034S11657770EA0104801121000000000000
B0800223201090S11657779EA0104401119000000000000
B0800263201145S11657788EA0104301116000000000000
B0800303201200S11657794EA0104101120000000000000
B0800343201249S11657794EA0105001128000000000000
B0800383201298S11657789EA0105501132000000000000
B0800423201348S11657781EA0105901135000000000000
B0800463201398S11657781EA0106001138000000000000
B0800503201449S11657776EA0107001146000000000000
B0800543201460S11657720EA0107901157000000000000
B0800583201400S11657676EA0108501164000000000000
B0801023201330S11657710EA0109201171000000000000
B0801063201292S11657784EA0109501172000000000000
B0801103201306S11657855EA0109801176000000000000
B0801143201350S11657881EA0110401184000000000000
B0801183201383S11657850EA0111901200000000000000
B0801223201372S11657792EA0113101210000000000000
B0801263201314S11657754EA0114001217000000000000
B0801303201248S11657790EA0114301221000000000000
B0801343201235S11657867EA0114601223000000000000
B0801383201271S11657910EA0115001232000000000000
B0801423201309S11657889EA0116201243000000000000
B0801463201306S11657831EA0117401253000000000000
B0801503201254S11657783EA0117901261000000000000
B0801543201181S11657797EA0119001271000000000000
B0801583201150S11657868EA0119901279000000000000
B0802023201171S11657926EA0120401284000000000000
B0802063201209S11657923EA0121201292000000000000
B0802103201203S11657868EA0121901298000000000000
B0802143201138S11657835EA0122501303000000000000
B0802183201075S11657880EA0123601316000000000000
B0802223201068S11657953EA0124201321000000000000
B0802263201105S11657985EA0124601324000000000000
B0802303201141S11657961EA0124901328000000000000
B0802343201128S11657900EA0125601337000000000000
B0802383201062S11657879EA0126901352000000000000
B0802423201021S11657936EA0128201362000000000000
B0802463201045S11657983EA0128701365000000000000
B0802503201070S11657957EA0129101372000000000000
B0802543201036S11657905EA0129901377000000000000
B0802583200964S11657905EA0130401386000000000000
B0803023200920S11657961EA0131801401000000000000
B0803063200933S11658014EA0131601391000000000000
B0803103200973S11658002EA0131701398000000000000
B0803143200960S11657952EA0133001411000000000000
B0803183200894S11657936EA0133201409000000000000
B0803223200839S11657988EA0133901419000000000000
B0803263200850S11658050EA0134501428000000000000
B0803303200886S11658054EA0135001431000000000000
B0803343200898S11658009EA0135401435000000000000
B0803383200847S11657971EA0136201444000000000000
B0803423200781S11658001EA0136101440000000000000
B0803463200764S11658078EA0136501449000000000000
B0803503200791S11658122EA0138001461000000000000
B0803543200829S11658121EA0138101458000000000000
B0803583200852S11658078EA0137701453000000000000
B0804023200858S11658011EA0137201446000000000000
B0804063200858S11657931EA0135701428000000000000
B0804103200851S11657845EA0135401429000000000000
B0804143200841S11657763EA0136001436000000000000
B0804183200829S11657685EA0136101437000000000000
B0804223200820S11657607EA0136301438000000000000
B0804263200808S11657530EA0135701432000000000000
B0804303200793S11657451EA0135301429000000000000
B0804343200776S11657374EA0134801425000000000000
B0804383200763S11657295EA0133801414000000000000
B0804423200754S11657213EA0132801407000000000000
B0804463200743S11657133EA0132401404000000000000
B0804503200733S11657051EA0132301406000000000000
B0804543200726S11656973EA0132701413000000000000
B0804583200725S11656899EA0133801425000000000000
B0805023200724S11656828EA0134301426000000000000
B0805063200726S11656754EA0134101423000000000000
B0805103200724S11656674EA0133301414000000000000
B0805143200716S11656589EA0132801410000000000000
B0805183200706S11656505EA0132401405000000000000
B0805223200695S11656420EA0131801401000000000000
B0805263200685S11656336EA0131701401000000000000
B0805303200676S11656251EA0131001392000000000000
B0805343200668S11656162EA0130501387000000000000
B0805383200660S11656071EA0130401389000000000000
B0805423200656S11655982EA0130601391000000000000
B0805463200651S11655891EA0130301388000000000000
B0805503200644S11655799EA0130201388000000000000
B0805543200639S11655708EA0130301389000000000000
B0805583200634S11655617EA0130101384000000000000
B0806023200633S11655527EA0129601381000000000000
B0806063200642S11655444EA0129501383000000000000
B0806103200657S11655369EA0129801386000000000000
B0806143200669S11655296EA0129801380000000000000
B0806183200680S11655218EA0129001371000000000000
B0806223200690S11655136EA0128801370000000000000
B0806263200699S11655057EA0129001373000000000000
B0806303200702S11654980EA0128701369000000000000
B0806343200717S11654903EA0128101360000000000000
B0806383200750S11654833EA0127201351000000000000
B0806423200790S11654771EA0126801351000000000000
B0806463200833S11654716EA0127101353000000000000
B0806503200876S11654668EA0127101353000000000000
B0806543200925S11654638EA0127101353000000000000
B0806583200975S11654622EA0127001352000000000000
B0807023201025S11654604EA0126501345000000000000
B0807063201079S11654579EA0125801338000000000000
B0807103201135S11654566EA0125601335000000000000
B0807143201188S11654581EA0125401335000000000000
B0807183201223S11654625EA0125301332000000000000
B0807223201229S11654690EA0124901326000000000000
B0807263201216S11654758EA0124401321000000000000
B0807303201228S11654816EA0124001317000000000000
B0807343201275S11654820EA0123701313000000000000
B0807383201293S11654759EA0123001308000000000000
B0807423201263S11654685EA0122601302000000000000
B0807463201200S11654654EA0122201300000000000000
B0807503201146S11654691EA0121901299000000000000
B0807543201144S11654758EA0121201291000000000000
B0807583201148S11654826EA0120801284000000000000
B0808023201154S11654895EA0120201281000000000000
B0808063201183S11654958EA0119201265000000000000
B0808103201232S11655012EA0117201246000000000000
B0808143201287S11655063EA0116501249000000000000
B0808183201335S11655114EA0117101251000000000000
B0808223201375S11655170EA0116801250000000000000
B0808263201410S11655231EA0116401244000000000000
B0808303201447S11655293EA0115801238000000000000
B0808343201484S11655354EA0115501237000000000000
B0808383201519S11655413EA0115701237000000000000
B0808423201556S11655467EA0115301232000000000000
B0808463201593S11655523EA0114601225000000000000
B0808503201632S11655580EA0114101220000000000000
B0808543201673S11655635EA0113601217000000000000
B0808583201714S11655687EA0113501219000000000000
B0809023201752S11655734EA0114001222000000000000
B0809063201787S11655783EA0113501217000000000000
B0809103201826S11655830EA0112501204000000000000
B0809143201876S11655869EA0111601197000000000000
B0809183201925S11655905EA0111201193000000000000
B0809223201978S11655937EA0110501182000000000000
B0809263202033S11655965EA0110001180000000000000
B0809303202090S11655976EA0110601186000000000000
B0809343202136S11655946EA0112001202000000000000
B0809383202130S11655879EA0113401215000000000000
B0809423202073S11655848EA0112801203000000000000
B0809463202015S11655890EA0111901194000000000000
B0809503201999S11655963EA0111301191000000000000
B0809543202015S11656029EA0111601196000000000000
B0809583202056S11656038EA0112601208000000000000
B0810023202059S11655977EA0112901209000000000000
B0810063201995S11655939EA0112801209000000000000
B0810103201938S11655983EA0113701219000000000000
B0810143201944S11656043EA0114501229000000000000
B0810183201987S11656059EA0114701226000000000000
B0810223202038S11656050EA0114001219000000000000
B0810263202091S11656037EA0113701216000000000000
B0810303202143S11656021EA0113401215000000000000
B0810343202194S11656000EA0113401214000000000000
B0810383202246S11655985EA0113101210000000000000
B0810423202297S11655967EA0112801208000000000000
B0810463202346S11655943EA0112501203000000000000
B0810503202397S11655915EA0111701195000000000000
B0810543202446S11655882EA0111301192000000000000
B0810583202494S11655850EA0111001188000000000000
B0811023202542S11655820EA0110401183000000000000
B0811063202592S11655794EA0109901180000000000000
B0811103202639S11655769EA0109501175000000000000
B0811143202685S11655747EA0108901169000000000000
B0811183202734S11655717EA0108301158000000000000
B0811223202783S11655679EA0107301149000000000000
B0811263202835S11655647EA0106401142000000000000
B0811303202887S11655612EA0105801138000000000000
B0811343202938S11655577EA0105401132000000000000
B0811383202988S11655540EA0104601125000000000000
B0811423203040S11655505EA0103801117000000000000
B0811463203094S11655467EA0103101109000000000000
B0811503203146S11655430EA0102301105000000000000
B0811543203196S11655397EA0102401106000000000000
B0811583203242S11655367EA0102401105000000000000
B0812023203285S11655336EA0101701097000000000000
B0812063203328S11655298EA0100801088000000000000
B0812103203372S11655261EA0100401086000000000000
B0812143203415S11655224EA0100001081000000000000
B0812183203456S11655188EA0099501078000000000000
B0812223203497S11655153EA0099301076000000000000
B0812263203536S11655119EA0099301077000000000000
B0812303203572S11655084EA0099801084000000000000
B0812343203607S11655045EA0100401090000000000000
B0812383203638S11655003EA0101101097000000000000
B0812423203667S11654958EA0101401098000000000000
B0812463203696S11654908EA0101701099000000000000
B0812503203702S11654843EA0102201108000000000000
B0812543203655S11654791EA0103201118000000000000
B0812583203592S11654808EA0103701123000000000000
B0813023203560S11654869EA0103901123000000000000
B0813063203576S11654929EA0103701121000000000000
B0813103203619S11654960EA0103601119000000000000
B0813143203668S11654964EA0103801125000000000000
B0813183203702S11654925EA0105001133000000000000
B0813223203692S11654852EA0105001134000000000000
B0813263203629S11654806EA0105201139000000000000
B0813303203559S11654820EA0106201147000000000000
B0813343203511S11654875EA0107001155000000000000
B0813383203510S11654941EA0107301155000000000000
B0813423203546S11654980EA0106901155000000000000
B0813463203594S11654975EA0107301159000000000000
B0813503203627S11654927EA0108001162000000000000
B0813543203620S11654856EA0108301167000000000000
B0813583203564S11654808EA0108801172000000000000
B0814023203498S11654826EA0109401180000000000000
B0814063203469S11654886EA0110001183000000000000
B0814103203497S11654925EA0110301187000000000000
B0814143203536S11654902EA0110701191000000000000
B0814183203540S11654836EA0110801195000000000000
B0814223203494S11654780EA0111301200000000000000
B0814263203425S11654776EA0111401200000000000000
B0814303203373S11654825EA0111401201000000000000
B0814343203358S11654891EA0112101208000000000000
B0814383203376S11654942EA0112701215000000000000
B0814423203415S11654958EA0112801216000000000000
B0814463203449S11654928EA0113101218000000000000
B0814503203446S11654863EA0113201218000000000000
B0814543203398S11654808EA0113401222000000000000
B0814583203329S11654816EA0113701224000000000000
B0815023203287S11654875EA0113901230000000000000
B0815063203285S11654936EA0114701237000000000000
B0815103203315S11654980EA0114701231000000000000
B0815143203355S11655020EA0113701223000000000000
B0815183203400S11655063EA0113201217000000000000
B0815223203446S11655106EA0112801210000000000000
B0815263203495S11655145EA0111701199000000000000
B0815303203550S11655176EA0110701192000000000000
B0815343203605S11655203EA0110001185000000000000
B0815383203660S11655231EA0108801170000000000000
B0815423203724S11655255EA0107501150000000000000
B0815463203793S11655283EA0105501132000000000000
B0815503203868S11655310EA0103801118000000000000
B0815543203945S11655339EA0102201104000000000000
B0815583204023S11655366EA0101001094000000000000
B0816023204102S11655395EA0100301086000000000000
B0816063204182S11655424EA0099101076000000000000
B0816103204262S11655458EA0098001067000000000000
B0816143204342S11655493EA0097801067000000000000
B0816183204418S11655525EA0097801066000000000000
B0816223204492S11655554EA0097301063000000000000
B0816263204565S11655580EA0097201063000000000000
B0816303204634S11655604EA0097001059000000000000
B0816343204702S11655630EA0096601056000000000000
B0816383204769S11655655EA0096201051000000000000
B0816423204834S11655688EA0095501045000000000000
B0816463204897S11655723EA0095001041000000000000
B0816503204960S11655753EA0094901039000000000000
B0816543205024S11655781EA0094201032000000000000
B0816583205089S11655807EA0093501023000000000000
B0817023205153S11655834EA0092701018000000000000
B0817063205215S11655861EA0092401016000000000000
B0817103205276S11655889EA0092201014000000000000
B0817143205339S11655911EA0091901012000000000000
B0817183205400S11655934EA0091701009000000000000
B0817223205457S11655965EA0091601011000000000000
B0817263205506S11656003EA0091801011000000000000
B0817303205560S11656035EA0090900999000000000000
B0817343205618S11656067EA0089600990000000000000
B0817383205677S11656100EA0089200987000000000000
B0817423205733S11656134EA0088700982000000000000
B0817463205791S11656165EA0088000974000000000000
B0817503205847S11656198EA0087700974000000000000
B0817543205896S11656234EA0087700973000000000000
B0817583205945S11656273EA0087200962000000000000
B0818023205993S11656314EA0086200951000000000000
B0818063206045S11656351EA0085200944000000000000
B0818103206097S11656385EA0085200945000000000000
B0818143206146S11656422EA0085200946000000000000
B0818183206194S11656458EA0085100942000000000000
B0818223206242S11656498EA0084100933000000000000
B0818263206290S11656541EA0083800931000000000000
B0818303206336S11656584EA0083800931000000000000
B0818343206384S11656622EA0083700927000000000000
B0818383206436S11656652EA0083100925000000000000
B0818423206491S11656684EA0083000924000000000000
B0818463206544S11656722EA0082900925000000000000
B0818503206596S11656761EA0083100928000000000000
B0818543206648S11656793EA0083300931000000000000
B0818583206700S11656815EA0083300931000000000000
B0819023206751S11656832EA0083500930000000000000
B0819063206801S11656851EA0083300928000000000000
B0819103206851S11656867EA0083100923000000000000
B0819143206903S11656888EA0082400918000000000000
B0819183206952S11656909EA0082000914000000000000
B0819223207003S11656934EA0081700911000000000000
B0819263207056S11656956EA0081100904000000000000
B0819303207112S11656973EA0080600903000000000000
B0819343207164S11656999EA0080500899000000000000
B0819383207213S11657033EA0079700889000000000000
B0819423207261S11657077EA0078800882000000000000
B0819463207302S11657129EA0078500880000000000000
B0819503207338S11657181EA0078400878000000000000
B0819543207375S11657228EA0078000872000000000000
B0819583207414S11657277EA0077200864000000000000
B0820023207442S11657334EA0076900862000000000000
B0820063207460S11657400EA0076500857000000000000
B0820103207476S11657471EA0076000850000000000000
B0820143207494S11657541EA0075800849000000000000
B0820183207521S11657605EA0075700847000000000000
B0820223207555S11657663EA0075700846000000000000
B0820263207594S11657711EA0076600853000000000000
B0820303207642S11657724EA0076400851000000000000
B0820343207684S11657688EA0075700844000000000000
B0820383207690S11657615EA0075200837000000000000
B0820423207650S11657543EA0075000838000000000000
B0820463207581S11657515EA0075600844000000000000
B0820503207514S11657542EA0075700840000000000000
B0820543207479S11657612EA0075400842000000000000
B0820583207484S11657681EA0075700843000000000000
B0821023207511S11657736EA0075800844000000000000
B0821063207545S11657785EA0075600840000000000000
B0821103207583S11657833EA0075300836000000000000
B0821143207623S11657880EA0075300838000000000000
B0821183207663S11657922EA0075400839000000000000
B0821223207709S11657950EA0075500838000000000000
B0821263207754S11657946EA0075900843000000000000
B0821303207765S11657889EA0076000845000000000000
B0821343207711S11657841EA0076300845000000000000
B0821383207638S11657859EA0076000842000000000000
B0821423207599S11657927EA0076100845000000000000
B0821463207602S11657995EA0076300845000000000000
B0821503207636S11658039EA0076300845000000000000
B0821543207679S11658060EA0076700849000000000000
B0821583207719S11658045EA0077800863000000000000
B0822023207703S11657984EA0078500865000000000000
B0822063207633S11657969EA0078000860000000000000
B0822103207579S11658022EA0077800860000000000000
B0822143207568S11658093EA0077900860000000000000
B0822183207597S11658144EA0078600870000000000000
B0822223207637S11658143EA0080500890000000000000
B0822263207633S11658084EA0081600897000000000000
B0822303207563S11658067EA0081900899000000000000
B0822343207514S11658127EA0082100903000000000000
B0822383207525S11658191EA0083500920000000000000
B0822423207566S11658197EA0085200937000000000000
B0822463207577S11658140EA0086400945000000000000
B0822503207531S11658079EA0087000953000000000000
B0822543207454S11658074EA0087600956000000000000
B0822583207399S11658131EA0088400969000000000000
B0823023207398S11658196EA0089800982000000000000
B0823063207433S11658227EA0091000994000000000000
B0823103207462S11658190EA0092001003000000000000
B0823143207434S11658121EA0093201012000000000000
B0823183207362S11658091EA0093901019000000000000
B0823223207293S11658127EA0094901032000000000000
B0823263207271S11658193EA0096301048000000000000
B0823303207295S11658242EA0097301054000000000000
B0823343207334S11658231EA0098801070000000000000
B0823383207320S11658171EA0099801079000000000000
B0823423207254S11658148EA0100301087000000000000
B0823463207193S11658191EA0101401095000000000000
B0823503207176S11658261EA0102301105000000000000
B0823543207204S11658308EA0103401116000000000000
B0823583207243S11658286EA0104401125000000000000
B0824023207235S11658217EA0105101132000000000000
B0824063207176S11658167EA0106101143000000000000
B0824103207099S11658169EA0107201150000000000000
B0824143207043S11658227EA0107601156000000000000
B0824183207038S11658307EA0108501165000000000000
B0824223207079S11658342EA0109901179000000000000
B0824263207120S11658313EA0110501187000000000000
B0824303207111S11658248EA0111301195000000000000
B0824343207044S11658214EA0111801195000000000000
B0824383206977S11658255EA0112501208000000000000
B0824423206956S11658325EA0113801223000000000000
B0824463206979S11658374EA0115201233000000000000
B0824503207020S11658372EA0115201230000000000000
B0824543207034S11658314EA0115601234000000000000
B0824583206990S11658256EA0115701236000000000000
B0825023206917S11658261EA0116401248000000000000
B0825063206877S11658326EA0117101253000000000000
B0825103206884S11658395EA0117901259000000000000
B0825143206926S11658412EA0118401263000000000000
B0825183206953S11658366EA0118601266000000000000
B0825223206929S11658300EA0119401273000000000000
B0825263206857S11658299EA0120101279000000000000
B0825303206810S11658361EA0120101279000000000000
B0825343206816S11658433EA0120201279000000000000
B0825383206857S11658463EA0120401282000000000000
B0825423206896S11658435EA0121301294000000000000
B0825463206862S11658383EA0122301303000000000000
B0825503206793S11658412EA0123201311000000000000
B0825543206779S11658486EA0123401311000000000000
B0825583206817S11658525EA0123701318000000000000
B0826023206849S11658496EA0124801328000000000000
B0826063206834S11658439EA0125901339000000000000
B0826103206770S11658427EA0127001352000000000000
B0826143206725S11658486EA0127801358000000000000
B0826183206743S11658543EA0128301363000000000000
B0826223206780S11658533EA0128701368000000000000
B0826263206770S11658476EA0129501376000000000000
B0826303206704S11658452EA0130101381000000000000
B0826343206641S11658500EA0130701387000000000000
B0826383206631S11658576EA0131201390000000000000
B0826423206667S11658617EA0131101389000000000000
B0826463206708S11658598EA0131301390000000000000
B0826503206699S11658538EA0131601393000000000000
B0826543206628S11658513EA0131901399000000000000
B0826583206562S11658560EA0132601404000000000000
B0827023206546S11658637EA0133001407000000000000
B0827063206578S11658690EA0132701403000000000000
B0827103206628S11658715EA0132001392000000000000
B0827143206684S11658721EA0131101381000000000000
B0827183206743S11658719EA0130301377000000000000
B0827223206799S11658712EA0130001372000000000000
B0827263206853S11658691EA0129301366000000000000
B0827303206908S11658660EA0128901365000000000000
B0827343206959S11658622EA0129101366000000000000
B0827383207003S11658578EA0129201368000000000000
B0827423207044S11658529EA0128901365000000000000
B0827463207083S11658473EA0128401359000000000000
B0827503207118S11658412EA0128601363000000000000
B0827543207157S11658351EA0128101356000000000000
B0827583207204S11658295EA0128801374000000000000
B0828023207246S11658238EA0130301384000000000000
B0828063207274S11658174EA0131201393000000000000
B0828103207293S11658105EA0130901385000000000000
B0828143207321S11658036EA0129901374000000000000
B0828183207362S11657971EA0128901362000000000000
B0828223207417S11657917EA0127601350000000000000
B0828263207485S11657879EA0127101349000000000000
B0828303207553S11657861EA0127501356000000000000
B0828343207618S11657855EA0128101362000000000000
B0828383207681S11657862EA0128701369000000000000
B0828423207741S11657875EA0128901368000000000000
B0828463207802S11657894EA0128401361000000000000
B0828503207866S11657915EA0127601352000000000000
B0828543207927S11657939EA0127301350000000000000
B0828583207986S11657966EA0127001347000000000000
B0829023208041S11657996EA0126901347000000000000
B0829063208092S11658027EA0126701344000000000000
B0829103208144S11658057EA0126501341000000000000
B0829143208195S11658084EA0126301342000000000000
B0829183208247S11658113EA0126001340000000000000
B0829223208299S11658138EA0126301343000000000000
B0829263208352S11658157EA0126501346000000000000
B0829303208403S11658178EA0127001351000000000000
B0829343208454S11658201EA0127401357000000000000
B0829383208506S11658219EA0128001361000000000000
B0829423208560S11658234EA0128301365000000000000
B0829463208615S11658249EA0128701365000000000000
B0829503208665S11658234EA0128701363000000000000
B0829543208695S11658178EA0128701366000000000000
B0829583208684S11658105EA0128501364000000000000
B0830023208633S11658053EA0128301363000000000000
B0830063208564S11658021EA0127601354000000000000
B0830103208489S11657997EA0127301352000000000000
B0830143208415S11657997EA0127501354000000000000
B0830183208352S11658039EA0127501357000000000000
B0830223208325S11658105EA0128001364000000000000
B0830263208335S11658170EA0128301366000000000000
B0830303208370S11658223EA0128301366000000000000
B0830343208418S11658265EA0128001357000000000000
B0830383208470S11658303EA0127301352000000000000
B0830423208528S11658340EA0126601342000000000000
B0830463208589S11658377EA0125701330000000000000
B0830503208652S11658416EA0124601319000000000000
B0830543208715S11658457EA0123701311000000000000
B0830583208776S11658502EA0123201307000000000000
B0831023208833S11658546EA0122701303000000000000
B0831063208892S11658589EA0122201296000000000000
B0831103208951S11658629EA0121301290000000000000
B0831143209013S11658667EA0121001288000000000000
B0831183209070S11658702EA0121401293000000000000
B0831223209124S11658734EA0121701294000000000000
B0831263209179S11658764EA0121401296000000000000
B0831303209232S11658793EA0121901299000000000000
B0831343209287S11658821EA0122301307000000000000
B0831383209340S11658847EA0123101311000000000000
B0831423209396S11658871EA0123501316000000000000
B0831463209448S11658850EA0124901334000000000000
B0831503209447S11658788EA0127001354000000000000
B0831543209392S11658746EA0127601356000000000000
B0831583209326S11658769EA0127701356000000000000
B0832023209292S11658834EA0127801358000000000000
B0832063209305S11658895EA0128801369000000000000
B0832103209347S11658911EA0129601377000000000000
B0832143209374S11658866EA0130301383000000000000
B0832183209344S11658806EA0130901391000000000000
B0832223209278S11658795EA0131501395000000000000
B0832263209228S11658847EA0131601393000000000000
B0832303209222S11658921EA0131901399000000000000
B0832343209253S11658972EA0132701406000000000000
B0832383209302S11658971EA0132901405000000000000
B0832423209325S11658916EA0133201410000000000000
B0832463209287S11658859EA0134301425000000000000
B0832503209223S11658851EA0135301434000000000000
B0832543209174S11658901EA0135401434000000000000
B0832583209171S11658970EA0135701438000000000000
B0833023209209S11659007EA0135701436000000000000
B0833063209252S11658988EA0135701437000000000000
B0833103209257S11658925EA0136201446000000000000
B0833143209211S11658876EA0137301456000000000000
B0833183209149S11658884EA0138101463000000000000
B0833223209118S11658945EA0138301463000000000000
B0833263209139S11659005EA0138301461000000000000
B0833303209189S11659035EA0137501447000000000000
B0833343209253S11659051EA0136201438000000000000
B0833383209321S11659064EA0136101438000000000000
B0833423209387S11659072EA0136201439000000000000
B0833463209456S11659083EA0136701448000000000000
B0833503209520S11659093EA0137501454000000000000
B0833543209586S11659103EA0137301450000000000000
B0833583209651S11659115EA0137401456000000000000
B0834023209713S11659127EA0137501450000000000000
B0834063209778S11659141EA0136701445000000000000
B0834103209842S11659154EA0136901451000000000000
B0834143209904S11659165EA0137601455000000000000
B0834183209964S11659163EA0137701454000000000000
B0834223210027S11659155EA0137301450000000000000
B0834263210092S11659142EA0137001446000000000000
B0834303210149S11659116EA0137601455000000000000
B0834343210202S11659081EA0138001458000000000000
B0834383210251S11659041EA0138001459000000000000
B0834423210301S11659001EA0138401466000000000000
B0834463210346S11658955EA0139301473000000000000
B0834503210391S11658906EA0139701476000000000000
B0834543210435S11658856EA0139301471000000000000
B0834583210482S11658810EA0138901467000000000000
B0835023210537S11658777EA0138301460000000000000
B0835063210601S11658765EA0137801453000000000000
B0835103210667S11658768EA0137401450000000000000
B0835143210727S11658755EA0138201467000000000000
B0835183210745S11658691EA0139501472000000000000
B0835223210742S11658616EA0138701462000000000000
B0835263210744S11658537EA0137901457000000000000
B0835303210756S11658456EA0137301449000000000000
B0835343210779S11658379EA0137101452000000000000
B0835383210801S11658307EA0137601458000000000000
B0835423210827S11658236EA0137901459000000000000
B0835463210868S11658175EA0138401465000000000000
B0835503210918S11658134EA0139001474000000000000
B0835543210977S11658115EA0139501471000000000000
B0835583211039S11658109EA0139501473000000000000
B0836023211103S11658104EA0139001466000000000000
B0836063211172S11658104EA0137801450000000000000
B0836103211242S11658105EA0136701443000000000000
B0836143211311S11658106EA0135901434000000000000
B0836183211381S11658112EA0134601420000000000000
B0836223211454S11658121EA0134001413000000000000
B0836263211527S11658127EA0133301405000000000000
B0836303211600S11658134EA0132601400000000000000
B0836343211670S11658139EA0132701404000000000000
B0836383211735S11658141EA0133001407000000000000
B0836423211800S11658144EA0132901402000000000000
B0836463211866S11658151EA0131601391000000000000
B0836503211935S11658161EA0130901385000000000000
B0836543212003S11658178EA0130401380000000000000
B0836583212069S11658196EA0130101378000000000000
B0837023212134S11658214EA0129801370000000000000
B0837063212203S11658225EA0128701360000000000000
B0837103212270S11658230EA0128301363000000000000
B0837143212335S11658223EA0128601360000000000000
B0837183212403S11658219EA0126901342000000000000
B0837223212473S11658213EA0125601333000000000000
B0837263212541S11658205EA0125301327000000000000
B0837303212610S11658204EA0124701323000000000000
B0837343212677S11658208EA0124201316000000000000
B0837383212745S11658212EA0123501311000000000000
B0837423212806S11658208EA0123401310000000000000
B0837463212867S11658205EA0122801303000000000000
B0837503212927S11658201EA0121701292000000000000
B0837543212987S11658196EA0120601283000000000000
B0837583213048S11658191EA0119801275000000000000
B0838023213111S11658183EA0118701266000000000000
B0838063213174S11658179EA0118301262000000000000
B0838103213236S11658178EA0117901255000000000000
B0838143213297S11658177EA0117001246000000000000
B0838183213358S11658177EA0116101237000000000000
B0838223213421S11658179EA0115001228000000000000
B0838263213482S11658180EA0114301220000000000000
B0838303213546S11658188EA0113301210000000000000
B0838343213611S11658204EA0112501203000000000000
B0838383213676S11658214EA0111801194000000000000
B0838423213739S11658219EA0110801183000000000000
B0838463213804S11658222EA0109801173000000000000
B0838503213869S11658226EA0108901164000000000000
B0838543213933S11658232EA0108001157000000000000
B0838583213994S11658243EA0107101149000000000000
B0839023214057S11658255EA0106001137000000000000
B0839063214118S11658266EA0104801125000000000000
B0839103214179S11658274EA0103701115000000000000
B0839143214240S11658282EA0103001105000000000000
B0839183214301S11658283EA0102001097000000000000
B0839223214359S11658282EA0101601093000000000000
B0839263214417S11658279EA0101001089000000000000
B0839303214473S11658278EA0100601083000000000000
B0839343214531S11658286EA0100001078000000000000
B0839383214588S11658287EA0099701075000000000000
B0839423214639S11658260EA0099101067000000000000
B0839463214687S11658218EA0098101061000000000000
B0839503214725S11658166EA0098101062000000000000
B0839543214747S11658102EA0098101061000000000000
B0839583214736S11658028EA0098101063000000000000
B0840023214686S11657972EA0098401065000000000000
B0840063214610S11657956EA0098101063000000000000
B0840103214527S11657963EA0097501059000000000000
B0840143214439S11657975EA0097501056000000000000
B0840183214350S11657988EA0097301056000000000000
B0840223214262S11658002EA0097301055000000000000
B0840263214174S11658018EA0097101053000000000000
B0840303214085S11658031EA0096801048000000000000
B0840343213997S11658043EA0096701049000000000000
B0840383213910S11658050EA0096501048000000000000
B0840423213825S11658061EA0096301046000000000000
B0840463213741S11658074EA0096201045000000000000
B0840503213659S11658091EA0095701039000000000000
B0840543213576S11658106EA0095201030000000000000
B0840583213494S11658121EA0094401024000000000000
B0841023213413S11658134EA0093601014000000000000
B0841063213331S11658147EA0092401001000000000000
B0841103213247S11658156EA0091300990000000000000
B0841143213160S11658162EA0089800976000000000000
B0841183213070S11658167EA0088900967000000000000
B0841223212983S11658170EA0088300962000000000000
B0841263212896S11658170EA0087400951000000000000
B0841303212805S11658169EA0086200939000000000000
B0841343212714S11658170EA0085400930000000000000
B0841383212623S11658171EA0084100916000000000000
B0841423212532S11658173EA0082900905000000000000
B0841463212441S11658177EA0082000899000000000000
B0841503212351S11658183EA0081400893000000000000
B0841543212261S11658188EA0080800888000000000000
B0841583212173S11658191EA0080300885000000000000
B0842023212086S11658191EA0079900878000000000000
B0842063212000S11658188EA0079200866000000000000
B0842103211912S11658187EA0078100858000000000000
B0842143211826S11658188EA0077400852000000000000
B0842183211740S11658190EA0076700845000000000000
B0842223211655S11658196EA0075800834000000000000
B0842263211571S11658208EA0074200820000000000000
B0842303211486S11658219EA0073400812000000000000
B0842343211403S11658227EA0072900808000000000000
B0842383211323S11658232EA0072400804000000000000
B0842423211241S11658236EA0071500790000000000000
B0842463211155S11658238EA0070200780000000000000
B0842503211073S11658260EA0070500787000000000000
B0842543211007S11658303EA0070600786000000000000
B0842583210938S11658344EA0070300780000000000000
B0843023210865S11658378EA0070000783000000000000
B0843063210792S11658407EA0070200780000000000000
B0843103210714S11658431EA0068700763000000000000
B0843143210630S11658448EA0068000757000000000000
B0843183210543S11658457EA0067300750000000000000
B0843223210456S11658461EA0066800746000000000000
B0843263210371S11658466EA0066600744000000000000
B0843303210290S11658469EA0066500744000000000000
B0843343210211S11658460EA0066300745000000000000
B0843383210132S11658444EA0065800739000000000000
B0843423210054S11658417EA0065200734000000000000
B0843463209976S11658383EA0064700728000000000000
B0843503209898S11658352EA0064100721000000000000
B0843543209817S11658325EA0064000724000000000000
B0843583209735S11658309EA0064000722000000000000
B0844023209653S11658304EA0063300714000000000000
B0844063209572S11658304EA0062600705000000000000
B0844103209486S11658307EA0061700697000000000000
B0844143209403S11658307EA0061300692000000000000
B0844183209321S11658305EA0060700689000000000000
B0844223209239S11658316EA0060900693000000000000
B0844263209172S11658357EA0061600700000000000000
B0844303209135S11658418EA0062200709000000000000
B0844343209154S11658461EA0062900715000000000000
B0844383209189S11658422EA0062800710000000000000
B0844423209162S11658352EA0062900712000000000000
B0844463209089S11658326EA0062900712000000000000
B0844503209026S11658362EA0063300718000000000000
B0844543209010S11658427EA0063600721000000000000
B0844583209037S11658469EA0063800721000000000000
B0845023209080S11658468EA0064000724000000000000
B0845063209096S11658413EA0064300727000000000000
B0845103209055S11658356EA0064800730000000000000
B0845143208987S11658352EA0064600729000000000000
B0845183208937S11658401EA0065100736000000000000
B0845223208932S11658460EA0065500738000000000000
B0845263208963S11658487EA0066100745000000000000
B0845303208996S11658459EA0066400747000000000000
B0845343208993S11658394EA0066400746000000000000
B0845383208944S11658338EA0066400748000000000000
B0845423208875S11658331EA0067000753000000000000
B0845463208820S11658372EA0067300754000000000000
B0845503208806S11658435EA0066900752000000000000
B0845543208836S11658478EA0067100755000000000000
B0845583208883S11658468EA0067600759000000000000
B0846023208905S11658409EA0068100764000000000000
B0846063208879S11658335EA0068300764000000000000
B0846103208811S11658292EA0068400765000000000000
B0846143208740S11658312EA0068700768000000000000
B0846183208698S11658373EA0068900771000000000000
B0846223208701S11658439EA0069000771000000000000
B0846263208736S11658474EA0069500779000000000000
B0846303208780S11658456EA0070300784000000000000
B0846343208789S11658395EA0070700791000000000000
B0846383208750S11658333EA0071000790000000000000
B0846423208680S11658318EA0071200795000000000000
B0846463208625S11658361EA0071400797000000000000
B0846503208611S11658426EA0071400797000000000000
B0846543208636S11658477EA0071500798000000000000
B0846583208678S11658479EA0072200808000000000000
B0847023208682S11658424EA0073000813000000000000
B0847063208626S11658390EA0073000812000000000000
B0847103208571S11658416EA0073000811000000000000
B0847143208555S11658476EA0073100815000000000000
B0847183208581S11658522EA0073300814000000000000
B0847223208621S11658517EA0073400816000000000000
B0847263208628S11658453EA0073500816000000000000
B0847303208582S11658394EA0073600819000000000000
B0847343208512S11658382EA0073900819000000000000
B0847383208460S11658427EA0074000822000000000000
B0847423208447S11658492EA0074500828000000000000
B0847463208470S11658543EA0075000830000000000000
B0847503208513S11658551EA0075400837000000000000
B0847543208546S11658516EA0076200845000000000000
B0847583208550S11658455EA0076600848000000000000
B0848023208512S11658391EA0076700847000000000000
B0848063208443S11658365EA0076900853000000000000
B0848103208381S11658386EA0077700861000000000000
B0848143208344S11658440EA0078100864000000000000
B0848183208346S11658504EA0078200865000000000000
B0848223208377S11658544EA0078700871000000000000
B0848263208418S11658533EA0079200874000000000000
B0848303208434S11658474EA0079500879000000000000
B0848343208402S11658408EA0079800880000000000000
B0848383208333S11658383EA0080100884000000000000
B0848423208273S11658420EA0080800890000000000000
B0848463208259S11658487EA0081000895000000000000
B0848503208290S11658529EA0081300896000000000000
B0848543208335S11658515EA0081800903000000000000
B0848583208353S11658459EA0082500909000000000000
B0849023208331S11658390EA0083100915000000000000
B0849063208272S11658348EA0083500918000000000000
B0849103208204S11658360EA0083500919000000000000
B0849143208165S11658418EA0084000923000000000000
B0849183208178S11658478EA0084300924000000000000
B0849223208223S11658495EA0084000924000000000000
B0849263208266S11658461EA0084500931000000000000
B0849303208275S11658396EA0085200936000000000000
B0849343208242S11658329EA0085200935000000000000
B0849383208174S11658292EA0085000933000000000000
B0849423208105S11658314EA0085300939000000000000
B0849463208069S11658374EA0085900947000000000000
B0849503208070S11658435EA0086600951000000000000
B0849543208101S11658474EA0086800954000000000000
B0849583208144S11658470EA0087100957000000000000
B0850023208170S11658421EA0087400958000000000000
B0850063208155S11658351EA0087100955000000000000
B0850103208099S11658297EA0087200954000000000000
B0850143208026S11658300EA0087400960000000000000
B0850183207975S11658351EA0087600958000000000000
B0850223207975S11658417EA0087800961000000000000
B0850263208018S11658422EA0088300967000000000000
B0850303208036S11658366EA0088500970000000000000
B0850343208006S11658303EA0088700971000000000000
B0850383207941S11658275EA0088800969000000000000
B0850423207875S11658297EA0088600967000000000000
B0850463207830S11658356EA0088800971000000000000
B0850503207810S11658426EA0088900971000000000000
B0850543207804S11658500EA0089100975000000000000
B0850583207806S11658569EA0089900982000000000000
B0851023207836S11658612EA0090300984000000000000
B0851063207875S11658606EA0089700979000000000000
B0851103207898S11658551EA0089300972000000000000
B0851143207917S11658482EA0088400961000000000000
B0851183207949S11658422EA0087900961000000000000
B0851223207984S11658360EA0087500955000000000000
B0851263208022S11658299EA0086800949000000000000
B0851303208065S11658244EA0086700948000000000000
B0851343208112S11658195EA0086400946000000000000
B0851383208156S11658147EA0086500947000000000000
B0851423208194S11658091EA0086000941000000000000
B0851463208221S11658024EA0085500936000000000000
B0851503208239S11657949EA0085100931000000000000
B0851543208251S11657871EA0084800927000000000000
B0851583208256S11657790EA0084500925000000000000
B0852023208257S11657710EA0084200926000000000000
B0852063208251S11657632EA0084000922000000000000
B0852103208238S11657554EA0083300915000000000000
B0852143208218S11657477EA0082900913000000000000
B0852183208191S11657403EA0082400905000000000000
B0852223208161S11657330EA0081800902000000000000
B0852263208129S11657261EA0081300897000000000000
B0852303208090S11657195EA0080600889000000000000
B0852343208035S11657138EA0079800882000000000000
B0852383207974S11657094EA0079700881000000000000
B0852423207904S11657074EA0079500878000000000000
B0852463207839S11657101EA0079100874000000000000
B0852503207802S11657169EA0077600856000000000000
B0852543207806S11657256EA0074400821000000000000
B0852583207830S11657354EA0071400790000000000000
B0853023207853S11657464EA0069700768000000000000
B0853063207871S11657581EA0067500744000000000000
B0853103207883S11657710EA0064800715000000000000
B0853143207878S11657848EA0063100705000000000000
B0853183207880S11657980EA0063500716000000000000
B0853223207889S11658096EA0064900733000000000000
B0853263207902S11658200EA0066000746000000000000
B0853303207913S11658296EA0066800752000000000000
B0853343207919S11658386EA0067400759000000000000
B0853383207934S11658469EA0067700763000000000000
B0853423207958S11658543EA0067700759000000000000
B0853463207989S11658608EA0067500763000000000000
B0853503208023S11658659EA0068200766000000000000
B0853543208058S11658699EA0068000761000000000000
B0853583208095S11658743EA0067300755000000000000
B0854023208121S11658799EA0067000754000000000000
B0854063208145S11658855EA0066600748000000000000
B0854103208179S11658907EA0066300745000000000000
B0854143208218S11658949EA0066100744000000000000
B0854183208260S11658980EA0065800739000000000000
B0854223208307S11658998EA0065900741000000000000
B0854263208353S11658986EA0065800742000000000000
B0854303208381S11658938EA0066100744000000000000
B0854343208399S11658877EA0065300733000000000000
B0854383208420S11658814EA0064300721000000000000
B0854423208444S11658749EA0063400713000000000000
B0854463208482S11658695EA0063000709000000000000
B0854503208528S11658664EA0062800711000000000000
B0854543208578S11658663EA0062700708000000000000
B0854583208624S11658693EA0062700709000000000000
B0855023208658S11658738EA0062700707000000000000
B0855063208685S11658793EA0062300703000000000000
B0855103208712S11658851EA0061500694000000000000
B0855143208751S11658893EA0061400698000000000000
B0855183208797S11658894EA0061400698000000000000
B0855223208838S11658867EA0061300695000000000000
B0855263208875S11658824EA0061000693000000000000
B0855303208902S11658771EA0060400688000000000000
B0855343208929S11658712EA0059900680000000000000
B0855383208961S11658654EA0059200674000000000000
B0855423208993S11658594EA0058900675000000000000
B0855463209000S11658529EA0060300694000000000000
B0855503208951S11658486EA0061200699000000000000
B0855543208894S11658517EA0060700692000000000000
B0855583208898S11658580EA0061200698000000000000
B0856023208937S11658582EA0061500701000000000000
B0856063208953S11658529EA0061900705000000000000
B0856103208915S11658473EA0062000705000000000000
B0856143208849S11658463EA0061700702000000000000
B0856183208797S11658505EA0062300709000000000000
B0856223208807S11658557EA0062400710000000000000
B0856263208842S11658543EA0062600712000000000000
B0856303208833S11658479EA0062800712000000000000
B0856343208771S11658448EA0062900713000000000000
B0856383208717S11658491EA0062900716000000000000
B0856423208725S11658550EA0063200720000000000000
B0856463208762S11658555EA0063800726000000000000
B0856503208775S11658504EA0064500731000000000000
B0856543208740S11658448EA0064400728000000000000
B0856583208673S11658439EA0064200727000000000000
B0857023208624S11658486EA0064200727000000000000
B0857063208620S11658550EA0064300727000000000000
B0857103208655S11658578EA0064100728000000000000
B0857143208688S11658548EA0064300729000000000000
B0857183208680S11658482EA0064500731000000000000
B0857223208629S11658425EA0064000729000000000000
B0857263208559S11658421EA0064500734000000000000
B0857303208509S11658470EA0064700736000000000000
B0857343208508S11658533EA0065000738000000000000
B0857383208543S11658560EA0064600733000000000000
B0857423208581S11658530EA0064500733000000000000
B0857463208576S11658464EA0064800737000000000000
B0857503208520S11658418EA0064800732000000000000
B0857543208454S11658439EA0064700733000000000000
B0857583208433S11658507EA0064800733000000000000
B0858023208464S11658551EA0064500730000000000000
B0858063208509S11658537EA0064700734000000000000
B0858103208525S11658478EA0065000735000000000000
B0858143208489S11658416EA0064900735000000000000
B0858183208418S11658398EA0064500729000000000000
B0858223208356S11658439EA0064500730000000000000
B0858263208338S11658508EA0064700733000000000000
B0858303208366S11658554EA0064700731000000000000
B0858343208411S11658541EA0064200728000000000000
B0858383208426S11658481EA0064400732000000000000
B0858423208392S11658422EA0065000739000000000000
B0858463208329S11658404EA0065000735000000000000
B0858503208269S11658438EA0064800736000000000000
B0858543208248S11658499EA0065200738000000000000
B0858583208266S11658543EA0065000733000000000000
B0859023208308S11658559EA0064400727000000000000
B0859063208351S11658542EA0064300728000000000000
B0859103208366S11658487EA0064400729000000000000
B0859143208338S11658426EA0064500731000000000000
B0859183208277S11658398EA0064900735000000000000
B0859223208213S11658417EA0064800731000000000000
B0859263208178S11658477EA0064900733000000000000
B0859303208187S11658533EA0065100734000000000000
B0859343208227S11658550EA0065000729000000000000
B0859383208259S11658508EA0064500729000000000000
B0859423208243S11658443EA0064900732000000000000
B0859463208184S11658405EA0064800731000000000000
B0859503208119S11658429EA0064500729000000000000
B0859543208091S11658491EA0064600730000000000000
B0859583208113S11658542EA0064800731000000000000
B0900023208155S11658544EA0064500729000000000000
B0900063208183S11658500EA0064500729000000000000
B0900103208173S11658437EA0064800732000000000000
B0900143208118S11658392EA0064600730000000000000
B0900183208052S11658399EA0064900736000000000000
B0900223208006S11658446EA0065300741000000000000
B0900263207999S11658502EA0065500739000000000000
B0900303208027S11658538EA0065100735000000000000
B0900343208066S11658525EA0064500729000000000000
B0900383208082S11658469EA0064500730000000000000
B0900423208056S11658408EA0064800734000000000000
B0900463207997S11658379EA0065100737000000000000
B0900503207937S11658400EA0065200741000000000000
B0900543207909S11658453EA0065500742000000000000
B0900583207919S11658505EA0065500738000000000000
B0901023207954S11658526EA0065100735000000000000
B0901063207991S11658503EA0064400727000000000000
B0901103208013S11658447EA0064000723000000000000
B0901143207984S11658385EA0064100727000000000000
B0901183207918S11658374EA0064400728000000000000
B0901223207869S11658422EA0064500731000000000000
B0901263207861S11658483EA0064900734000000000000
B0901303207883S11658530EA0064600730000000000000
B0901343207923S11658548EA0063900721000000000000
B0901383207970S11658552EA0063200714000000000000
B0901423208019S11658554EA0062900713000000000000
B0901463208067S11658554EA0063100715000000000000
B0901503208116S11658547EA0063000713000000000000
B0901543208164S11658539EA0063000714000000000000
B0901583208212S11658533EA0063100714000000000000
B0902023208260S11658528EA0063300715000000000000
B0902063208309S11658524EA0063200715000000000000
B0902103208360S11658520EA0062900709000000000000
B0902143208412S11658511EA0062500706000000000000
B0902183208464S11658499EA0062200705000000000000
B0902223208515S11658491EA0061900702000000000000
B0902263208567S11658482EA0061800699000000000000
B0902303208619S11658466EA0061100692000000000000
B0902343208669S11658438EA0060500687000000000000
B0902383208723S11658411EA0059800678000000000000
B0902423208776S11658383EA0059200671000000000000
B0902463208832S11658373EA0058500664000000000000
B0902503208888S11658392EA0057900661000000000000
B0902543208932S11658437EA0057500656000000000000
B0902583208949S11658503EA0056700644000000000000
B0903023208929S11658581EA0055000625000000000000
B0903063208875S11658650EA0053500609000000000000
B0903103208795S11658694EA0052600606000000000000
B0903143208711S11658717EA0052500604000000000000
B0903183208625S11658720EA0052200601000000000000
B0903223208539S11658698EA0051600593000000000000
B0903263208461S11658652EA0050800587000000000000
B0903303208387S11658596EA0050600586000000000000
B0903343208314S11658544EA0050200584000000000000
B0903383208242S11658491EA0049700579000000000000
B0903423208182S11658424EA0049500579000000000000
B0903463208139S11658347EA0049600581000000000000
B0903503208109S11658268EA0049600579000000000000
B0903543208090S11658182EA0049100573000000000000
B0903583208078S11658096EA0048800573000000000000
B0904023208073S11658011EA0048600568000000000000
B0904063208073S11657930EA0047500556000000000000
B0904103208074S11657846EA0046800552000000000000
B0904143208080S11657767EA0046900555000000000000
B0904183208087S11657689EA0046900556000000000000
B0904223208095S11657614EA0046900555000000000000
B0904263208105S11657540EA0047200561000000000000
B0904303208087S11657471EA0048300572000000000000
B0904343208027S11657442EA0048700576000000000000
B0904383207976S11657488EA0049200581000000000000
B0904423207980S11657551EA0049600584000000000000
B0904463208021S11657562EA0050100589000000000000
B0904503208035S11657511EA0050500591000000000000
B0904543207992S11657460EA0050300588000000000000
B0904583207927S11657472EA0050500592000000000000
B0905023207902S11657536EA0051300601000000000000
B0905063207931S11657569EA0051700604000000000000
B0905103207962S11657538EA0051600602000000000000
B0905143207945S11657478EA0051900605000000000000
B0905183207885S11657452EA0051600603000000000000
B0905223207824S11657481EA0052000612000000000000
B0905263207807S11657543EA0052300612000000000000
B0905303207843S11657554EA0052600614000000000000
B0905343207843S11657494EA0052700615000000000000
B0905383207787S11657460EA0053300622000000000000
B0905423207728S11657494EA0053600624000000000000
B0905463207727S11657555EA0053900628000000000000
B0905503207766S11657560EA0054100627000000000000
B0905543207778S11657503EA0054000627000000000000
B0905583207728S11657455EA0054700636000000000000
B0906023207662S11657469EA0055200640000000000000
B0906063207636S11657530EA0055500643000000000000
B0906103207662S11657569EA0055800643000000000000
B0906143207698S11657543EA0055600643000000000000
B0906183207684S11657480EA0056100650000000000000
B0906223207622S11657451EA0056700654000000000000
B0906263207568S11657491EA0057100659000000000000
B0906303207577S11657542EA0057300661000000000000
B0906343207618S11657541EA0056900653000000000000
B0906383207633S11657482EA0057200661000000000000
B0906423207580S11657438EA0057600661000000000000
B0906463207524S11657480EA0057900665000000000000
B0906503207542S11657530EA0058300670000000000000
B0906543207579S11657508EA0058600671000000000000
B0906583207573S11657442EA0058700673000000000000
B0907023207519S11657394EA0058800673000000000000
B0907063207451S11657407EA0059200680000000000000
B0907103207428S11657467EA0059800685000000000000
B0907143207459S11657494EA0060100686000000000000
B0907183207485S11657454EA0060300691000000000000
B0907223207463S11657394EA0060800693000000000000
B0907263207399S11657369EA0061100696000000000000
B0907303207362S11657419EA0061400700000000000000
B0907343207390S11657446EA0061600702000000000000
B0907383207410S11657397EA0061700702000000000000
B0907423207368S11657338EA0061800705000000000000
B0907463207300S11657341EA0062400712000000000000
B0907503207273S11657399EA0062700716000000000000
B0907543207300S11657433EA0063200722000000000000
B0907583207328S11657395EA0063600725000000000000
B0908023207303S11657334EA0064100729000000000000
B0908063207241S11657308EA0064500734000000000000
B0908103207185S11657343EA0065000738000000000000
B0908143207182S11657399EA0065400741000000000000
B0908183207219S11657408EA0065400740000000000000
B0908223207229S11657354EA0065800745000000000000
B0908263207178S11657306EA0066000746000000000000
B0908303207117S11657330EA0066400753000000000000
B0908343207112S11657387EA0067000756000000000000
B0908383207148S11657394EA0067100758000000000000
B0908423207156S11657335EA0067600763000000000000
B0908463207103S11657295EA0068100767000000000000
B0908503207048S11657329EA0068300771000000000000
B0908543207047S11657384EA0068700775000000000000
B0908583207082S11657395EA0068700772000000000000
B0909023207104S11657345EA0068700774000000000000
B0909063207069S11657283EA0068900777000000000000
B0909103206999S11657281EA0068800776000000000000
B0909143206961S11657338EA0069300784000000000000
B0909183206973S11657390EA0069800787000000000000
B0909223207011S11657400EA0069900786000000000000
B0909263207037S11657356EA0069800785000000000000
B0909303207020S11657291EA0069800786000000000000
B0909343206961S11657251EA0069800787000000000000
B0909383206894S11657272EA0069900787000000000000
B0909423206869S11657335EA0069900788000000000000
B0909463206894S11657384EA0070000790000000000000
B0909503206939S11657386EA0069900785000000000000
B0909543206986S11657354EA0069200777000000000000
B0909583207029S11657307EA0068600771000000000000
B0910023207069S11657254EA0068100767000000000000
B0910063207107S11657199EA0067700764000000000000
B0910103207146S11657142EA0067200756000000000000
B0910143207182S11657082EA0066600753000000000000
B0910183207221S11657023EA0066200747000000000000
B0910223207259S11656965EA0065600741000000000000
B0910263207299S11656909EA0065300741000000000000
B0910303207338S11656857EA0065200740000000000000
B0910343207377S11656804EA0064800734000000000000
B0910383207414S11656752EA0064300731000000000000
B0910423207449S11656696EA0063800724000000000000
B0910463207476S11656632EA0063100719000000000000
B0910503207502S11656566EA0062800715000000000000
B0910543207531S11656503EA0062400711000000000000
B0910583207563S11656444EA0061800704000000000000
B0911023207603S11656392EA0061200698000000000000
B0911063207650S11656354EA0060600693000000000000
B0911103207702S11656334EA0060200691000000000000
B0911143207757S11656332EA0059800687000000000000
B0911183207811S11656338EA0059400682000000000000
B0911223207867S11656345EA0059000678000000000000
B0911263207921S11656359EA0059000677000000000000
B0911303207969S11656385EA0058800678000000000000
B0911343208014S11656406EA0059000681000000000000
B0911383208058S11656425EA0059100681000000000000
B0911423208095S11656463EA0058900678000000000000
B0911463208108S11656527EA0058500669000000000000
B0911503208099S11656600EA0057700663000000000000
B0911543208044S11656653EA0057700662000000000000
B0911583207966S11656641EA0057100655000000000000
B0912023207922S11656576EA0057500665000000000000
B0912063207928S11656515EA0058100668000000000000
B0912103207965S11656484EA0057600660000000000000
B0912143208009S11656484EA0056800654000000000000
B0912183208051S11656506EA0056300650000000000000
B0912223208087S11656541EA0055800641000000000000
B0912263208121S11656585EA0055000634000000000000
B0912303208149S11656641EA0053900624000000000000
B0912343208173S11656708EA0053500620000000000000
B0912383208194S11656775EA0053700623000000000000
B0912423208208S11656843EA0054000626000000000000
B0912463208214S11656908EA0054000625000000000000
B0912503208216S11656973EA0054100627000000000000
B0912543208208S11657036EA0054300630000000000000
B0912583208199S11657101EA0054400629000000000000
B0913023208204S11657165EA0054900635000000000000
B0913063208243S11657192EA0055100637000000000000
B0913103208281S11657155EA0055300638000000000000
B0913143208268S11657085EA0055600641000000000000
B0913183208204S11657053EA0056100645000000000000
B0913223208157S11657092EA0056500649000000000000
B0913263208173S11657146EA0056400648000000000000
B0913303208217S11657134EA0056700652000000000000
B0913343208222S11657068EA0057100656000000000000
B0913383208169S11657022EA0057400659000000000000
B0913423208108S11657044EA0057900667000000000000
B0913463208096S11657101EA0058800677000000000000
B0913503208126S11657127EA0059200678000000000000
B0913543208158S11657098EA0059500681000000000000
B0913583208144S11657038EA0059600679000000000000
B0914023208084S11657013EA0059300676000000000000
B0914063208040S11657055EA0059500684000000000000
B0914103208051S11657107EA0060000686000000000000
B0914143208092S11657108EA0060000687000000000000
B0914183208114S11657057EA0060300688000000000000
B0914223208090S11656996EA0060500691000000000000
B0914263208028S11656984EA0060700692000000000000
B0914303207993S11657035EA0060600692000000000000
B0914343208015S11657079EA0060900697000000000000
B0914383208056S11657068EA0061300701000000000000
B0914423208077S11657012EA0061200696000000000000
B0914463208065S11656942EA0061200697000000000000
B0914503208014S11656888EA0061200697000000000000
B0914543207944S11656886EA0061300698000000000000
B0914583207901S11656939EA0061700703000000000000
B0915023207909S11656996EA0062000707000000000000
B0915063207950S11657014EA0062400711000000000000
B0915103207986S11656978EA0062800713000000000000
B0915143207982S11656910EA0062800714000000000000
B0915183207930S11656860EA0063000714000000000000
B0915223207861S11656865EA0063000716000000000000
B0915263207827S11656922EA0063400718000000000000
B0915303207848S11656974EA0063300719000000000000
B0915343207893S11656973EA0063600724000000000000
B0915383207922S11656921EA0064200729000000000000
B0915423207901S11656853EA0064500729000000000000
B0915463207837S11656819EA0064300729000000000000
B0915503207776S11656849EA0064500732000000000000
B0915543207762S11656912EA0064700736000000000000
B0915583207791S11656947EA0065300741000000000000
B0916023207833S11656931EA0065400740000000000000
B0916063207854S11656871EA0065600740000000000000
B0916103207830S11656804EA0066000747000000000000
B0916143207771S11656770EA0066500749000000000000
B0916183207713S11656799EA0066200745000000000000
B0916223207696S11656861EA0066000748000000000000
B0916263207722S11656903EA0066600753000000000000
B0916303207763S11656895EA0066800753000000000000
B0916343207791S11656843EA0066800752000000000000
B0916383207785S11656774EA0066900756000000000000
B0916423207748S11656714EA0067000755000000000000
B0916463207685S11656698EA0066800754000000000000
B0916503207635S11656737EA0066600752000000000000
B0916543207622S11656799EA0066800756000000000000
B0916583207641S11656840EA0067200759000000000000
B0917023207677S11656861EA0067100757000000000000
B0917063207724S11656866EA0066600751000000000000
B0917103207775S11656871EA0066200749000000000000
B0917143207827S11656877EA0066000744000000000000
B0917183207883S11656883EA0065400739000000000000
B0917223207939S11656899EA0065100738000000000000
B0917263207996S11656914EA0065000735000000000000
B0917303208056S11656935EA0064400729000000000000
B0917343208116S11656962EA0064200732000000000000
B0917383208175S11656982EA0064800738000000000000
B0917423208234S11657003EA0065300746000000000000
B0917463208288S11657025EA0066300753000000000000
B0917503208340S11657051EA0066400753000000000000
B0917543208394S11657079EA0065900749000000000000
B0917583208444S11657112EA0065800749000000000000
B0918023208495S11657144EA0066000753000000000000
B0918063208548S11657173EA0066100749000000000000
B0918103208599S11657203EA0065900746000000000000
B0918143208646S11657239EA0065500745000000000000
B0918183208686S11657281EA0065300739000000000000
B0918223208729S11657325EA0064200726000000000000
B0918263208773S11657368EA0063700723000000000000
B0918303208815S11657407EA0063700722000000000000
B0918343208859S11657439EA0063300715000000000000
B0918383208906S11657464EA0062900714000000000000
B0918423208954S11657486EA0062700712000000000000
B0918463209001S11657508EA0062300708000000000000
B0918503209045S11657537EA0061600701000000000000
B0918543209084S11657579EA0061100694000000000000
B0918583209113S11657636EA0060300686000000000000
B0919023209123S11657706EA0059500680000000000000
B0919063209111S11657783EA0059200675000000000000
B0919103209083S11657859EA0059000675000000000000
B0919143209045S11657933EA0058700671000000000000
B0919183208996S11658005EA0058100666000000000000
B0919223208937S11658069EA0057700661000000000000
B0919263208872S11658126EA0057200658000000000000
B0919303208807S11658182EA0056800656000000000000
B0919343208745S11658239EA0056600654000000000000
B0919383208681S11658294EA0056500654000000000000
B0919423208616S11658340EA0056400652000000000000
B0919463208545S11658374EA0056000648000000000000
B0919503208467S11658398EA0055400642000000000000
B0919543208389S11658413EA0054900640000000000000
B0919583208311S11658422EA0054800636000000000000
B0920023208231S11658418EA0054400634000000000000
B0920063208156S11658396EA0054400636000000000000
B0920103208088S11658360EA0054300633000000000000
B0920143208025S11658316EA0053900626000000000000
B0920183207960S11658268EA0053500622000000000000
B0920223207887S11658238EA0053400621000000000000
B0920263207814S11658258EA0052500608000000000000
B0920303207770S11658331EA0050500591000000000000
B0920343207774S11658418EA0049700586000000000000
B0920383207805S11658485EA0049300582000000000000
B0920423207848S11658533EA0049500585000000000000
B0920463207891S11658570EA0049500582000000000000
B0920503207936S11658603EA0048900572000000000000
B0920543207986S11658639EA0048000563000000000000
B0920583208038S11658674EA0047100555000000000000
B0921023208090S11658704EA0046900554000000000000
B0921063208140S11658732EA0046500550000000000000
B0921103208195S11658751EA0046000544000000000000
B0921143208253S11658756EA0045000533000000000000
B0921183208314S11658738EA0043800521000000000000
B0921223208374S11658698EA0042700508000000000000
B0921263208422S11658652EA0043400526000000000000
B0921303208430S11658580EA0044000515000000000000
B0921343208382S11658491EA0041400490000000000000
B0921383208301S11658421EA0039900478000000000000
B0921423208212S11658364EA0038900473000000000000
B0921463208123S11658309EA0038600474000000000000
B0921503208039S11658257EA0038500476000000000000
B0921543207958S11658212EA0038800481000000000000
B0921583207880S11658173EA0039400486000000000000
B0922023207805S11658138EA0039400485000000000000
B0922063207733S11658101EA0039300485000000000000
B0922103207667S11658061EA0039100481000000000000
B0922143207601S11658023EA0038500476000000000000
B0922183207532S11657989EA0037800467000000000000
B0922223207460S11657957EA0037100461000000000000
B0922263207389S11657927EA0036600458000000000000
B0922303207319S11657893EA0036500458000000000000
B0922343207251S11657857EA0036000452000000000000
B0922383207181S11657819EA0035400445000000000000
B0922423207109S11657783EA0034700439000000000000
B0922463207038S11657746EA0034300436000000000000
B0922503206966S11657710EA0033900431000000000000
B0922543206897S11657670EA0033800431000000000000
B0922583206834S11657628EA0034100432000000000000
B0923023206770S11657582EA0033700428000000000000
B0923063206709S11657536EA0032900420000000000000
B0923103206645S11657485EA0032500412000000000000
B0923143206584S11657434EA0031800405000000000000
B0923183206523S11657382EA0031100400000000000000
B0923223206466S11657326EA0030600395000000000000
B0923263206413S11657265EA0030000389000000000000
B0923303206363S11657200EA0029500383000000000000
B0923343206319S11657129EA0029100380000000000000
B0923383206294S11657052EA0029100382000000000000
B0923423206296S11656978EA0029200382000000000000
B0923463206307S11656905EA0029100379000000000000
B0923503206322S11656835EA0029000381000000000000
B0923543206328S11656762EA0028800377000000000000
B0923583206331S11656688EA0028100369000000000000
B0924023206337S11656611EA0027900368000000000000
B0924063206351S11656539EA0027900367000000000000
B0924103206375S11656475EA0028000368000000000000
B0924143206413S11656428EA0027700363000000000000
B0924183206459S11656410EA0027100354000000000000
B0924223206509S11656420EA0026300347000000000000
B0924263206556S11656437EA0025200336000000000000
B0924303206602S11656458EA0023900327000000000000
B0924343206648S11656480EA0023200320000000000000
B0924383206692S11656501EA0022300309000000000000
B0924423206736S11656526EA0020900297000000000000
B0924463206782S11656550EA0019500283000000000000
B0924503206827S11656576EA0018500269000000000000
B0924543206874S11656604EA0017400261000000000000
B0924583206922S11656630EA0016400249000000000000
B0925023206972S11656657EA0015200238000000000000
B0925063207020S11656684EA0014400231000000000000
B0925103207068S11656714EA0013400219000000000000
B0925143207116S11656745EA0012400210000000000000
B0925183207164S11656775EA0011700205000000000000
B0925223207207S11656800EA0011200204000000000000
B0925263207242S11656818EA0011300205000000000000
B0925303207272S11656832EA0011300205000000000000
B0925343207293S11656840EA0011200206000000000000
B0925383207308S11656845EA0011200206000000000000
B0925423207320S11656847EA0011200206000000000000
B0925463207328S11656848EA0011100207000000000000
B0925503207330S11656847EA0011100207000000000000
B0925543207330S11656847EA0011200207000000000000
B0925583207330S11656847EA0011100207000000000000
B0926023207330S11656847EA0011100207000000000000
B0926063207330S11656847EA0011100207000000000000
B0926103207330S11656847EA0011100207000000000000
G000300000005F973CF0000000000000000000000000000000000000000000000
G948B0314646969C7547DBA0C3E626112AB124D1F00000000FF90E38865268DA1
G8AD3DC7B60D7827AE769C9FAF4CB9462A275B62F00000000000000009719B24E
