ACAM4N6
HFDTE120816
HFFXA050
HFPLTPILOT:JOHN WELSH              
HFGTYGLIDERTYPE:HORNET      
HFGIDGLIDERID:VH-GMY      
HFDTM100GPSDATUM:
HFRFWFIRMWAREVERSION:F2.6
HFRHWHARDWAREVERSION:300 Series Version 2
HFFTYFRTYPE:CAMBRIDGE AERO INSTRUMENTS, 302+
HFGPS:GARMIN,LVS-25,12,18000
HFPRSPRESSALTSENSOR:INTERSEMA, MS5534-AP, 20000
I033638FXA3941ENL4247REX
LCAMSBVER:5FWVER:F26300
C291115033441291115000102
C0000000N00000000WTAKEOFF     
C3207550S11656850EBeverley Air
C3301433S11652383EWilliams    
C3152972S11809470EBruce Rock  
C3207550S11656850EBeverley Air
C0000000N00000000WLANDING     
B0408403207337S11656860EA0011300218000004000000
B0408423207337S11656860EA0011300218000004000000
B0408443207337S11656860EA0011300218000004000000
B0408463207337S11656860EA0011100218000004000000
B0408483207337S11656860EA0011100218000004000000
B0408503207337S11656860EA0011200218000004000000
B0408523207337S11656860EA0011200218000004000000
B0408543207337S11656860EA0011200218000004000000
B0408563207337S11656860EA0011100218000004000000
B0408583207337S11656860EA0011100218000004000000
B0409003207337S11656860EA0011200218000004000000
B0409023207337S11656860EA0011200218000004000000
B0409043207337S11656860EA0011200218000004000000
B0409063207337S11656860EA0011300218000004000000
B0409083207338S11656860EA0011200218000004000000
B0409113207346S11656866EA0011300217000004000000
B0409153207371S11656886EA0011100216000004000000
B0409193207411S11656914EA0011200215000004000000
B0409233207466S11656948EA0011300215000004000000
B0409273207528S11656987EA0011400217000004000000
B0409313207589S11657035EA0012000224000004000000
B0409353207645S11657085EA0013900248000004000000
B0409393207696S11657135EA0016000267000004000000
B0409433207742S11657187EA0018000286000004000000
B0409473207791S11657242EA0019500299000004000000
B0409513207839S11657295EA0020900315000004000000
B0409553207888S11657348EA0022600332000004000000
B0409593207935S11657404EA0024400347000004000000
B0410033207980S11657464EA0025700359000004000000
B0410073208014S11657534EA0026700372000004000000
B0410113208036S11657614EA0028600392000004000000
B0410153208040S11657698EA0030800411000004000000
B0410193208027S11657783EA0032400426000004000000
B0410233208010S11657865EA0034600446000004000000
B0410273207995S11657945EA0036400465000004000000
B0410313207974S11658022EA0038800488000004000000
B0410353207954S11658097EA0040200511000004000000
B0410393207937S11658173EA0043000539000004000000
B0410433207918S11658249EA0045600563000004000000
B0410473207896S11658323EA0048300591000004000000
B0410513207872S11658400EA0051000614000004000000
B0410553207849S11658478EA0053200632000004000000
B0410593207822S11658555EA0055000648000004000000
B0411033207784S11658626EA0056900670000004000000
B0411073207731S11658686EA0058600686000004000000
B0411113207666S11658730EA0059600694000004000000
B0411153207601S11658767EA0061100712000004000000
B0411193207532S11658786EA0063200734000004000000
B0411233207462S11658803EA0065300752000004000000
B0411273207391S11658819EA0067100772000004000000
B0411313207321S11658833EA0069400794000004000000
B0411353207250S11658846EA0071400814000004000000
B0411393207181S11658860EA0073100829000004000000
B0411433207118S11658881EA0073600832000004000000
B0411473207056S11658892EA0073800832000004000000
B0411513206995S11658888EA0073500827000004000000
B0411553206933S11658888EA0072800821000004000000
B0411593206874S11658912EA0072500820000004000000
B0412033206825S11658958EA0072500823000004000000
B0412073206800S11659023EA0073400830000004000000
B0412113206821S11659087EA0073700835000004000000
B0412153206871S11659106EA0074800842000004000000
B0412193206914S11659075EA0074700840000004000000
B0412233206923S11659015EA0074600840000004000000
B0412273206892S11658966EA0074400837000004000000
B0412313206842S11658938EA0074200835000004000000
B0412353206783S11658934EA0074300835000004000000
B0412393206735S11658966EA0074900846000004000000
B0412433206741S11659023EA0075800853000004000000
B0412473206793S11659035EA0076200857000004000000
B0412513206830S11658985EA0076200858000004000000
B0412553206816S11658919EA0076400859000004000000
B0412593206762S11658886EA0076700861000004000000
B0413033206705S11658905EA0076900862000004000000
B0413073206679S11658967EA0076600863000004000000
B0413113206713S11659022EA0077100868000004000000
B0413153206773S11659024EA0077600875000004000000
B0413193206809S11658973EA0078700888000004000000
B0413233206797S11658910EA0079600891000004000000
B0413273206749S11658872EA0079400886000004000000
B0413313206688S11658885EA0079100883000004000000
B0413353206652S11658947EA0079200886000004000000
B0413393206657S11659016EA0080300899000004000000
B0413433206708S11659022EA0081600910000004000000
B0413473206731S11658963EA0082000914000004000000
B0413513206693S11658911EA0082700922000004000000
B0413553206637S11658918EA0083500930000004000000
B0413593206605S11658971EA0084300940000004000000
B0414033206622S11659027EA0085400948000004000000
B0414073206667S11659051EA0086100952000004000000
B0414113206718S11659029EA0086600959000004000000
B0414153206734S11658971EA0087300968000004000000
B0414193206704S11658921EA0088000970000004000000
B0414233206649S11658919EA0088100974000004000000
B0414273206614S11658967EA0088700983000004000000
B0414313206624S11659023EA0089500990000004000000
B0414353206669S11659044EA0090000993000004000000
B0414393206713S11659016EA0090300998000004000000
B0414433206723S11658960EA0090901002000004000000
B0414473206691S11658914EA0091001002000004000000
B0414513206635S11658903EA0091201005000004000000
B0414553206591S11658937EA0091901012000004000000
B0414593206585S11658998EA0092201014000004000000
B0415033206626S11659035EA0092601019000004000000
B0415073206674S11659012EA0093201024000004000000
B0415113206679S11658954EA0093901032000004000000
B0415153206636S11658916EA0094201031000004000000
B0415193206582S11658931EA0094201033000004000000
B0415233206556S11658986EA0094601039000004000000
B0415273206579S11659041EA0095001042000004000000
B0415313206630S11659045EA0095701046000004000000
B0415353206661S11658994EA0095801047000004000000
B0415393206639S11658933EA0096001051000004000000
B0415433206582S11658915EA0096401054000004000000
B0415473206523S11658937EA0096801059000004000000
B0415513206494S11658997EA0097201062000004000000
B0415553206519S11659059EA0097701068000004000000
B0415593206576S11659064EA0098601076000004000000
B0416033206615S11659010EA0098701077000004000000
B0416073206606S11658940EA0099201084000004000000
B0416113206556S11658906EA0100201094000004000000
B0416153206506S11658931EA0100701100000004000000
B0416193206497S11658988EA0101101100000004000000
B0416233206536S11659025EA0101201105000004000000
B0416273206583S11659007EA0101801110000004000000
B0416313206596S11658950EA0102201114000004000000
B0416353206565S11658898EA0102601115000004000000
B0416393206511S11658879EA0103101121000004000000
B0416433206465S11658901EA0103601125000004000000
B0416473206446S11658955EA0103601127000004000000
B0416513206471S11659001EA0104301134000004000000
B0416553206518S11658999EA0104701137000004000000
B0416593206544S11658949EA0105001140000004000000
B0417033206519S11658892EA0104801134000004000000
B0417073206459S11658881EA0104601135000004000000
B0417113206416S11658924EA0105101141000004000000
B0417153206411S11658984EA0106001150000004000000
B0417193206441S11659028EA0106701157000004000000
B0417233206489S11659036EA0107601165000004000000
B0417273206524S11658996EA0107801166000004000000
B0417313206513S11658934EA0107401160000004000000
B0417353206457S11658910EA0106801156000004000000
B0417393206410S11658945EA0107001161000004000000
B0417433206403S11659007EA0107501166000004000000
B0417473206424S11659063EA0108101173000004000000
B0417513206470S11659085EA0108801176000004000000
B0417553206513S11659054EA0108601176000004000000
B0417593206514S11658990EA0108401173000004000000
B0418033206467S11658949EA0107601165000004000000
B0418073206400S11658931EA0106801155000004000000
B0418113206329S11658920EA0107001158000004000000
B0418153206263S11658923EA0107301160000004000000
B0418193206210S11658957EA0108001166000004000000
B0418233206185S11659018EA0107901166000004000000
B0418273206203S11659079EA0108501175000004000000
B0418313206254S11659098EA0109201178000004000000
B0418353206311S11659067EA0108501171000004000000
B0418393206366S11659015EA0108001172000004000000
B0418433206420S11658960EA0108601175000004000000
B0418473206475S11658906EA0108601177000004000000
B0418513206528S11658854EA0108601172000004000000
B0418553206583S11658799EA0107601157000004000000
B0418593206637S11658737EA0106201146000004000000
B0419033206692S11658667EA0105101135000004000000
B0419073206749S11658594EA0103701123000004000000
B0419113206805S11658522EA0103001122000004000000
B0419153206860S11658457EA0103601129000004000000
B0419193206908S11658400EA0104101132000004000000
B0419233206952S11658344EA0104101130000004000000
B0419273206996S11658291EA0104001127000004000000
B0419313207040S11658238EA0103201116000004000000
B0419353207086S11658184EA0102401110000004000000
B0419393207130S11658131EA0101801107000004000000
B0419433207176S11658082EA0101201095000004000000
B0419473207225S11658032EA0099701081000004000000
B0419513207276S11657983EA0098901073000004000000
B0419553207326S11657935EA0098101066000004000000
B0419593207377S11657883EA0097701064000004000000
B0420033207432S11657840EA0097401059000004000000
B0420073207495S11657809EA0097101058000004000000
B0420113207559S11657784EA0097301064000004000000
B0420153207622S11657759EA0097801066000004000000
B0420193207681S11657737EA0097901068000004000000
B0420233207740S11657711EA0098301071000004000000
B0420273207797S11657684EA0098501073000004000000
B0420313207836S11657629EA0098801074000004000000
B0420353207831S11657554EA0098301067000004000000
B0420393207783S11657501EA0098101067000004000000
B0420433207719S11657498EA0097601060000004000000
B0420473207663S11657533EA0097201061000004000000
B0420513207614S11657580EA0097401063000004000000
B0420553207577S11657634EA0097501059000004000000
B0420593207572S11657701EA0097001058000004000000
B0421033207602S11657757EA0096301050000004000000
B0421073207654S11657798EA0095701046000004000000
B0421113207718S11657813EA0095901049000004000000
B0421153207781S11657815EA0096201052000004000000
B0421193207844S11657798EA0095901048000004000000
B0421233207906S11657766EA0095501048000004000000
B0421273207966S11657728EA0096201056000004000000
B0421313208022S11657690EA0096501057000004000000
B0421353208075S11657650EA0096901059000004000000
B0421393208129S11657612EA0096301049000004000000
B0421433208184S11657573EA0095601044000004000000
B0421473208240S11657534EA0095401042000004000000
B0421513208295S11657498EA0095301042000004000000
B0421553208348S11657465EA0095601043000004000000
B0421593208402S11657433EA0095301040000004000000
B0422033208455S11657400EA0095001038000004000000
B0422073208506S11657365EA0094501033000004000000
B0422113208555S11657324EA0094601036000004000000
B0422153208599S11657283EA0095001038000004000000
B0422193208643S11657239EA0095001035000004000000
B0422233208682S11657186EA0094601033000004000000
B0422273208712S11657122EA0094801033000004000000
B0422313208733S11657055EA0094701033000004000000
B0422353208737S11656984EA0095401044000004000000
B0422393208690S11656955EA0096601057000004000000
B0422433208652S11656999EA0096501052000004000000
B0422473208675S11657052EA0096501054000004000000
B0422513208724S11657049EA0096601058000004000000
B0422553208755S11656999EA0097401067000004000000
B0422593208750S11656936EA0097901070000004000000
B0423033208699S11656904EA0097801069000004000000
B0423073208650S11656939EA0097601067000004000000
B0423113208649S11657000EA0098101074000004000000
B0423153208690S11657030EA0098101075000004000000
B0423193208741S11657029EA0098601079000004000000
B0423233208776S11656991EA0099201086000004000000
B0423273208769S11656931EA0099401087000004000000
B0423313208717S11656904EA0099501087000004000000
B0423353208671S11656942EA0099301086000004000000
B0423393208673S11657005EA0099801091000004000000
B0423433208717S11657030EA0100401098000004000000
B0423473208759S11656999EA0100601100000004000000
B0423513208775S11656936EA0100701104000004000000
B0423553208741S11656883EA0101401110000004000000
B0423593208685S11656878EA0101401109000004000000
B0424033208649S11656927EA0101501109000004000000
B0424073208652S11656991EA0101801109000004000000
B0424113208690S11657030EA0101901113000004000000
B0424153208741S11657016EA0102101118000004000000
B0424193208773S11656960EA0102401121000004000000
B0424233208776S11656888EA0102201112000004000000
B0424273208760S11656810EA0100701097000004000000
B0424313208753S11656724EA0099301081000004000000
B0424353208750S11656635EA0097801071000004000000
B0424393208743S11656552EA0097701069000004000000
B0424433208736S11656470EA0097301063000004000000
B0424473208728S11656389EA0096501052000004000000
B0424513208720S11656307EA0095701045000004000000
B0424553208710S11656227EA0095601043000004000000
B0424593208694S11656151EA0096001047000004000000
B0425033208671S11656081EA0096301050000004000000
B0425073208642S11656019EA0097301062000004000000
B0425113208594S11655987EA0098201071000004000000
B0425153208552S11656026EA0098701076000004000000
B0425193208559S11656093EA0099101078000004000000
B0425233208608S11656117EA0099301084000004000000
B0425273208652S11656082EA0099201085000004000000
B0425313208655S11656020EA0099401089000004000000
B0425353208617S11655978EA0100401098000004000000
B0425393208567S11655985EA0101001102000004000000
B0425433208541S11656038EA0101301104000004000000
B0425473208571S11656089EA0101201100000004000000
B0425513208623S11656081EA0101101102000004000000
B0425553208642S11656026EA0101601109000004000000
B0425593208613S11655981EA0102201115000004000000
B0426033208563S11655977EA0102701117000004000000
B0426073208522S11656017EA0103501128000004000000
B0426113208525S11656071EA0104201133000004000000
B0426153208567S11656100EA0103701121000004000000
B0426193208615S11656074EA0102801121000004000000
B0426233208630S11656016EA0102901129000004000000
B0426273208610S11655963EA0103901136000004000000
B0426313208563S11655946EA0104501141000004000000
B0426353208517S11655977EA0105001145000004000000
B0426393208512S11656035EA0105601149000004000000
B0426433208550S11656072EA0105201143000004000000
B0426473208602S11656063EA0104901143000004000000
B0426513208641S11656026EA0105401150000004000000
B0426553208655S11655977EA0106001156000004000000
B0426593208634S11655928EA0105801147000004000000
B0427033208587S11655902EA0105501147000004000000
B0427073208538S11655918EA0105501146000004000000
B0427113208506S11655967EA0105901153000004000000
B0427153208511S11656019EA0106501154000004000000
B0427193208558S11656045EA0105701144000004000000
B0427233208600S11656016EA0106301155000004000000
B0427273208600S11655964EA0106901158000004000000
B0427313208558S11655931EA0106401152000004000000
B0427353208503S11655937EA0106801159000004000000
B0427393208467S11655974EA0107601165000004000000
B0427433208469S11656033EA0107401158000004000000
B0427473208506S11656082EA0107401155000004000000
B0427513208546S11656136EA0106201139000004000000
B0427553208568S11656207EA0105101131000004000000
B0427593208556S11656280EA0104701127000004000000
B0428033208521S11656345EA0104501128000004000000
B0428073208474S11656398EA0104001123000004000000
B0428113208415S11656437EA0103101120000004000000
B0428153208351S11656459EA0103601123000004000000
B0428193208282S11656467EA0102901114000004000000
B0428233208210S11656461EA0102401113000004000000
B0428273208140S11656445EA0102801113000004000000
B0428313208070S11656427EA0103001111000004000000
B0428353208001S11656405EA0102601108000004000000
B0428393207931S11656384EA0102501106000004000000
B0428433207859S11656370EA0102401106000004000000
B0428473207788S11656362EA0102401106000004000000
B0428513207719S11656360EA0102601107000004000000
B0428553207651S11656364EA0102401103000004000000
B0428593207585S11656377EA0101801098000004000000
B0429033207523S11656411EA0101301096000004000000
B0429073207468S11656459EA0102001103000004000000
B0429113207437S11656520EA0102701109000004000000
B0429153207450S11656584EA0102601107000004000000
B0429193207495S11656618EA0102301101000004000000
B0429233207553S11656622EA0101001088000004000000
B0429273207614S11656617EA0100101081000004000000
B0429313207670S11656598EA0099301076000004000000
B0429353207724S11656574EA0098501066000004000000
B0429393207780S11656542EA0097601057000004000000
B0429433207833S11656497EA0096601048000004000000
B0429473207880S11656441EA0095501040000004000000
B0429513207927S11656384EA0095601045000004000000
B0429553207980S11656347EA0096101051000004000000
B0429593208028S11656310EA0096901057000004000000
B0430033208036S11656245EA0097501060000004000000
B0430073207992S11656191EA0097201060000004000000
B0430113207932S11656199EA0098201073000004000000
B0430153207923S11656256EA0099401084000004000000
B0430193207967S11656275EA0099401080000004000000
B0430233208000S11656223EA0099801088000004000000
B0430273207984S11656162EA0101201102000004000000
B0430313207936S11656141EA0101901109000004000000
B0430353207893S11656178EA0102101109000004000000
B0430393207898S11656238EA0102801119000004000000
B0430433207944S11656251EA0103401123000004000000
B0430473207975S11656202EA0104101131000004000000
B0430513207962S11656142EA0105201144000004000000
B0430553207914S11656120EA0106201150000004000000
B0430593207870S11656159EA0106301152000004000000
B0431033207875S11656219EA0107001160000004000000
B0431073207919S11656236EA0107701166000004000000
B0431113207957S11656195EA0108001173000004000000
B0431153207950S11656133EA0108801179000004000000
B0431193207904S11656102EA0109701186000004000000
B0431233207850S11656128EA0109301178000004000000
B0431273207833S11656193EA0109501187000004000000
B0431313207871S11656234EA0110301192000004000000
B0431353207919S11656204EA0110701201000004000000
B0431393207917S11656142EA0111501210000004000000
B0431433207863S11656116EA0111601204000004000000
B0431473207798S11656139EA0110301192000004000000
B0431513207728S11656176EA0109801186000004000000
B0431553207655S11656219EA0108901172000004000000
B0431593207583S11656269EA0107201156000004000000
B0432033207511S11656327EA0106301151000004000000
B0432073207443S11656384EA0106401152000004000000
B0432113207382S11656442EA0106701155000004000000
B0432153207325S11656500EA0107001159000004000000
B0432193207273S11656559EA0107001157000004000000
B0432233207229S11656626EA0106601153000004000000
B0432273207194S11656697EA0106601151000004000000
B0432313207167S11656769EA0106401148000004000000
B0432353207139S11656840EA0106001142000004000000
B0432393207120S11656919EA0105001130000004000000
B0432433207115S11657008EA0103601116000004000000
B0432473207122S11657098EA0102601109000004000000
B0432513207135S11657185EA0102401109000004000000
B0432553207159S11657265EA0102501109000004000000
B0432593207190S11657333EA0103201116000004000000
B0433033207224S11657390EA0103501119000004000000
B0433073207259S11657443EA0103701121000004000000
B0433113207297S11657495EA0102901104000004000000
B0433153207336S11657554EA0101301092000004000000
B0433193207378S11657614EA0100401088000004000000
B0433233207427S11657666EA0099401074000004000000
B0433273207467S11657733EA0098501069000004000000
B0433313207505S11657801EA0098701073000004000000
B0433353207554S11657845EA0098901075000004000000
B0433393207609S11657880EA0098401069000004000000
B0433433207659S11657927EA0097801059000004000000
B0433473207685S11658002EA0096501044000004000000
B0433513207684S11658088EA0095501039000004000000
B0433553207668S11658171EA0095101035000004000000
B0433593207648S11658253EA0094601030000004000000
B0434033207625S11658335EA0093901022000004000000
B0434073207601S11658420EA0093001013000004000000
B0434113207573S11658503EA0092301007000004000000
B0434153207549S11658587EA0091801004000004000000
B0434193207524S11658668EA0091601003000004000000
B0434233207502S11658746EA0091601002000004000000
B0434273207481S11658821EA0091200996000004000000
B0434313207464S11658901EA0090200985000004000000
B0434353207450S11658983EA0089400980000004000000
B0434393207427S11659061EA0089500984000004000000
B0434433207397S11659131EA0090400992000004000000
B0434473207388S11659202EA0091300999000004000000
B0434513207407S11659270EA0091301000000004000000
B0434553207388S11659335EA0091701005000004000000
B0434593207333S11659357EA0092601012000004000000
B0435033207280S11659330EA0092801014000004000000
B0435073207247S11659272EA0092601010000004000000
B0435113207250S11659205EA0092301007000004000000
B0435153207289S11659153EA0092501013000004000000
B0435193207342S11659137EA0093301019000004000000
B0435233207386S11659172EA0093601022000004000000
B0435273207395S11659237EA0093601022000004000000
B0435313207362S11659292EA0093701025000004000000
B0435353207304S11659306EA0093801023000004000000
B0435393207242S11659289EA0093401018000004000000
B0435433207177S11659283EA0093201017000004000000
B0435473207111S11659289EA0092801016000004000000
B0435513207050S11659292EA0093501023000004000000
B0435553207011S11659248EA0094101028000004000000
B0435593207030S11659196EA0094101025000004000000
B0436033207083S11659194EA0094401031000004000000
B0436073207125S11659235EA0095101044000004000000
B0436113207113S11659297EA0096201053000004000000
B0436153207063S11659318EA0096501052000004000000
B0436193207021S11659280EA0096501053000004000000
B0436233207016S11659219EA0096601056000004000000
B0436273207046S11659172EA0097201064000004000000
B0436313207094S11659178EA0097701067000004000000
B0436353207112S11659239EA0098301073000004000000
B0436393207081S11659292EA0099001081000004000000
B0436433207025S11659298EA0099401084000004000000
B0436473206985S11659254EA0099801086000004000000
B0436513206985S11659192EA0100101087000004000000
B0436553207026S11659153EA0100001089000004000000
B0436593207081S11659149EA0100401092000004000000
B0437033207118S11659200EA0100901098000004000000
B0437073207103S11659270EA0101501104000004000000
B0437113207047S11659304EA0101801107000008000000
B0437153206988S11659284EA0102401114000004000000
B0437193206960S11659228EA0103001119000004000000
B0437233206978S11659174EA0103101114000004000000
B0437273207033S11659154EA0102701114000004000000
B0437313207090S11659166EA0103201123000004000000
B0437353207130S11659214EA0104301133000004000000
B0437393207118S11659282EA0104701137000004000000
B0437433207064S11659313EA0105101137000004000000
B0437473207008S11659288EA0105501143000004000000
B0437513206982S11659228EA0106201149000004000000
B0437553206996S11659168EA0106401152000004000000
B0437593207043S11659136EA0106701158000004000000
B0438033207094S11659146EA0107701166000004000000
B0438073207126S11659197EA0108101169000004000000
B0438113207122S11659270EA0108301169000004000000
B0438153207082S11659326EA0108701173000004000000
B0438193207022S11659343EA0109001176000004000000
B0438233206969S11659317EA0109701186000004000000
B0438273206944S11659262EA0110401190000004000000
B0438313206952S11659205EA0110501191000004000000
B0438353206987S11659162EA0110901195000004000000
B0438393207037S11659153EA0111201199000004000000
B0438433207091S11659166EA0111501202000004000000
B0438473207146S11659191EA0111301198000004000000
B0438513207206S11659222EA0110901193000004000000
B0438553207265S11659259EA0110401188000004000000
B0438593207326S11659300EA0110201185000004000000
B0439033207385S11659337EA0110401189000004000000
B0439073207440S11659370EA0110501187000004000000
B0439113207492S11659404EA0110101180000004000000
B0439153207545S11659439EA0109001166000004000000
B0439193207602S11659467EA0107701158000004000000
B0439233207662S11659483EA0107101149000004000000
B0439273207724S11659488EA0106001140000004000000
B0439313207788S11659490EA0106101142000004000000
B0439353207852S11659484EA0106201142000004000000
B0439393207915S11659469EA0105601137000004000000
B0439433207982S11659447EA0105601141000004000000
B0439473208047S11659421EA0106401149000004000000
B0439513208109S11659396EA0107301160000004000000
B0439553208151S11659345EA0109101179000004000000
B0439593208142S11659275EA0109601181000004000000
B0440033208086S11659233EA0109001174000004000000
B0440073208021S11659244EA0108901175000004000000
B0440113207975S11659292EA0109701187000004000000
B0440153207950S11659353EA0110801196000004000000
B0440193207958S11659412EA0111501204000004000000
B0440233207997S11659440EA0112101209000004000000
B0440273208044S11659421EA0112201208000004000000
B0440313208060S11659358EA0112301214000004000000
B0440353208026S11659300EA0113301220000004000000
B0440393207965S11659283EA0113701226000004000000
B0440433207915S11659321EA0114601233000004000000
B0440473207910S11659383EA0114801234000004000000
B0440513207947S11659426EA0115401239000004000000
B0440553207997S11659422EA0115701243000004000000
B0440593208028S11659371EA0115701245000004000000
B0441033208014S11659302EA0116301251000004000000
B0441073207967S11659256EA0117201260000004000000
B0441113207908S11659244EA0118101269000004000000
B0441153207859S11659282EA0118501270000004000000
B0441193207852S11659340EA0118401269000004000000
B0441233207884S11659383EA0118301267000004000000
B0441273207940S11659384EA0117701261000004000000
B0441313207999S11659360EA0117301260000004000000
B0441353208056S11659328EA0117601262000004000000
B0441393208112S11659295EA0117201256000004000000
B0441433208169S11659258EA0116601251000004000000
B0441473208229S11659224EA0116001243000004000000
B0441513208291S11659198EA0115401240000004000000
B0441553208355S11659176EA0115101239000004000000
B0441593208418S11659157EA0114901233000004000000
B0442033208487S11659155EA0114801234000004000000
B0442073208555S11659161EA0116001246000004000000
B0442113208612S11659137EA0117101256000004000000
B0442153208628S11659079EA0117401255000004000000
B0442193208595S11659024EA0116501241000004000000
B0442233208535S11659012EA0115501235000004000000
B0442273208480S11659044EA0114801230000004000000
B0442313208443S11659105EA0114701230000004000000
B0442353208429S11659179EA0115101237000004000000
B0442393208437S11659254EA0115201235000004000000
B0442433208461S11659323EA0114701228000004000000
B0442473208500S11659383EA0113701220000004000000
B0442513208548S11659434EA0113401215000004000000
B0442553208606S11659462EA0112501204000004000000
B0442593208669S11659461EA0111401194000004000000
B0443033208737S11659449EA0109901179000004000000
B0443073208810S11659453EA0109001175000004000000
B0443113208876S11659478EA0109201180000004000000
B0443153208933S11659509EA0110001187000004000000
B0443193208987S11659543EA0110001183000004000000
B0443233209040S11659582EA0109201172000004000000
B0443273209094S11659618EA0108701173000004000000
B0443313209148S11659652EA0108801173000004000000
B0443353209200S11659682EA0108401164000004000000
B0443393209256S11659716EA0107401157000004000000
B0443433209310S11659750EA0106901154000004000000
B0443473209364S11659786EA0106601151000004000000
B0443513209417S11659824EA0106301146000004000000
B0443553209470S11659863EA0105601140000004000000
B0443593209523S11659903EA0105201133000004000000
B0444033209577S11659945EA0104501126000004000000
B0444073209630S11659985EA0104001122000004000000
B0444113209683S11700025EA0103601118000004000000
B0444153209737S11700065EA0102801112000004000000
B0444193209789S11700106EA0102301106000004000000
B0444233209843S11700145EA0101701102000004000000
B0444273209898S11700185EA0101401097000004000000
B0444313209954S11700224EA0101101092000004000000
B0444353210011S11700260EA0100501090000004000000
B0444393210068S11700296EA0100301087000004000000
B0444433210125S11700329EA0100201086000004000000
B0444473210181S11700359EA0099901082000004000000
B0444513210240S11700387EA0099101074000004000000
B0444553210303S11700413EA0098001064000004000000
B0444593210367S11700442EA0097301060000004000000
B0445033210431S11700471EA0097601063000004000000
B0445073210492S11700498EA0097701061000004000000
B0445113210553S11700527EA0097201056000004000000
B0445153210613S11700559EA0096701053000004000000
B0445193210673S11700595EA0096501051000004000000
B0445233210731S11700632EA0096301048000004000000
B0445273210788S11700676EA0096201046000004000000
B0445313210843S11700721EA0096401049000004000000
B0445353210900S11700762EA0096401049000004000000
B0445393210956S11700803EA0096601054000004000000
B0445433211007S11700844EA0097501058000004000000
B0445473211057S11700884EA0097401057000004000000
B0445513211108S11700920EA0097201053000004000000
B0445553211168S11700931EA0097101053000004000000
B0445593211225S11700913EA0097801061000004000000
B0446033211256S11700862EA0098201065000004000000
B0446073211242S11700800EA0097801057000004000000
B0446113211185S11700766EA0096901049000004000000
B0446153211125S11700783EA0096901055000004000000
B0446193211081S11700832EA0097601062000004000000
B0446233211069S11700901EA0097601061000004000000
B0446273211094S11700966EA0097601060000004000000
B0446313211135S11701020EA0097401061000004000000
B0446353211186S11701046EA0098401071000004000000
B0446393211220S11701003EA0098901075000004000000
B0446433211199S11700944EA0098901073000004000000
B0446473211143S11700920EA0098801073000004000000
B0446513211089S11700946EA0098701073000004000000
B0446553211065S11701014EA0098801074000004000000
B0446593211080S11701089EA0098501071000004000000
B0447033211115S11701151EA0098501074000004000000
B0447073211158S11701203EA0098701075000004000000
B0447113211203S11701256EA0098301067000004000000
B0447153211250S11701315EA0096901053000004000000
B0447193211297S11701380EA0096101046000004000000
B0447233211341S11701445EA0095201037000004000000
B0447273211384S11701512EA0094901036000004000000
B0447313211425S11701577EA0094801038000004000000
B0447353211467S11701636EA0095501048000004000000
B0447393211511S11701685EA0096901060000004000000
B0447433211566S11701701EA0097901066000004000000
B0447473211607S11701658EA0098001068000004000000
B0447513211592S11701594EA0098801075000004000000
B0447553211536S11701580EA0098701075000004000000
B0447593211503S11701635EA0099401082000004000000
B0448033211529S11701692EA0100101089000004000000
B0448073211583S11701694EA0100501092000004000000
B0448113211611S11701640EA0100701095000004000000
B0448153211585S11701579EA0101001093000004000000
B0448193211527S11701572EA0100701097000004000000
B0448233211484S11701620EA0101601103000004000000
B0448273211480S11701688EA0102101110000004000000
B0448313211519S11701731EA0102601115000004000000
B0448353211570S11701711EA0103301120000004000000
B0448393211592S11701651EA0103601122000004000000
B0448433211566S11701589EA0103301119000004000000
B0448473211505S11701570EA0102901118000004000000
B0448513211451S11701606EA0103501126000004000000
B0448553211427S11701667EA0104601138000004000000
B0448593211455S11701714EA0105301142000004000000
B0449033211511S11701702EA0104901135000004000000
B0449073211541S11701640EA0104901141000004000000
B0449113211523S11701575EA0105201142000004000000
B0449153211471S11701538EA0105301142000004000000
B0449193211408S11701538EA0105401142000004000000
B0449233211356S11701577EA0105501146000004000000
B0449273211338S11701640EA0106701158000004000000
B0449313211369S11701684EA0107601163000004000000
B0449353211419S11701671EA0107901167000004000000
B0449393211429S11701605EA0107801165000004000000
B0449433211389S11701551EA0108301170000004000000
B0449473211330S11701550EA0108501172000004000000
B0449513211294S11701599EA0108701174000004000000
B0449553211297S11701663EA0109001177000004000000
B0449593211336S11701707EA0109101178000004000000
B0450033211389S11701711EA0109201177000004000000
B0450073211438S11701676EA0109201179000004000000
B0450113211460S11701612EA0109301182000004000000
B0450153211444S11701550EA0109901187000004000000
B0450193211398S11701510EA0110101185000004000000
B0450233211342S11701508EA0109901182000004000000
B0450273211294S11701546EA0109201176000004000000
B0450313211267S11701612EA0109001174000004000000
B0450353211273S11701683EA0109301179000004000000
B0450393211310S11701735EA0109601179000004000000
B0450433211367S11701749EA0109501176000004000000
B0450473211425S11701719EA0109001170000004000000
B0450513211479S11701670EA0108601171000004000000
B0450553211529S11701619EA0108701169000004000000
B0450593211579S11701566EA0108101166000004000000
B0451033211635S11701516EA0108201168000004000000
B0451073211692S11701472EA0109801181000004000000
B0451113211705S11701407EA0111601202000004000000
B0451153211659S11701373EA0112301206000004000000
B0451193211607S11701408EA0112301203000004000000
B0451233211594S11701482EA0112501208000004000000
B0451273211620S11701547EA0113401217000004000000
B0451313211676S11701577EA0113601219000004000000
B0451353211733S11701554EA0114401227000004000000
B0451393211754S11701492EA0115201235000004000000
B0451433211720S11701434EA0115501238000004000000
B0451473211661S11701430EA0116101246000004000000
B0451513211619S11701481EA0117101257000004000000
B0451553211623S11701547EA0118301271000004000000
B0451593211667S11701581EA0119201275000004000000
B0452033211719S11701560EA0119401277000004000000
B0452073211736S11701501EA0120101287000004000000
B0452113211705S11701446EA0120201288000004000000
B0452153211649S11701446EA0120901294000004000000
B0452193211615S11701499EA0121601302000004000000
B0452233211632S11701562EA0122301308000004000000
B0452273211683S11701590EA0122801313000004000000
B0452313211743S11701589EA0122801309000004000000
B0452353211806S11701570EA0122301304000004000000
B0452393211865S11701546EA0122201300000004000000
B0452433211926S11701520EA0121101289000004000000
B0452473211992S11701495EA0120401285000004000000
B0452513212058S11701471EA0120601288000004000000
B0452553212122S11701447EA0120401284000004000000
B0452593212186S11701428EA0120001280000004000000
B0453033212251S11701412EA0119601273000004000000
B0453073212316S11701398EA0119101268000004000000
B0453113212381S11701382EA0118801267000004000000
B0453153212443S11701364EA0118601264000004000000
B0453193212508S11701362EA0118301261000004000000
B0453233212572S11701381EA0117801258000004000000
B0453273212630S11701415EA0117601255000004000000
B0453313212689S11701453EA0117001249000004000000
B0453353212745S11701495EA0116201240000004000000
B0453393212801S11701540EA0115201230000004000000
B0453433212857S11701584EA0114601224000004000000
B0453473212914S11701628EA0114401224000004000000
B0453513212970S11701672EA0114701228000004000000
B0453553213026S11701714EA0115401240000004000000
B0453593213083S11701726EA0116201241000004000000
B0454033213127S11701687EA0115601234000004000000
B0454073213131S11701616EA0114801227000004000000
B0454113213092S11701554EA0113701215000004000000
B0454153213028S11701532EA0113001210000004000000
B0454193212967S11701559EA0113301215000004000000
B0454233212933S11701625EA0113701220000004000000
B0454273212937S11701700EA0113801219000004000000
B0454313212972S11701762EA0113701219000004000000
B0454353213024S11701802EA0114101225000004000000
B0454393213082S11701833EA0113801218000004000000
B0454433213144S11701859EA0112701206000004000000
B0454473213210S11701883EA0111601199000004000000
B0454513213278S11701906EA0111401197000004000000
B0454553213343S11701930EA0111401199000004000000
B0454593213407S11701953EA0112001203000004000000
B0455033213468S11701979EA0112101203000004000000
B0455073213530S11702009EA0112001203000004000000
B0455113213591S11702039EA0111501198000004000000
B0455153213654S11702071EA0111201197000004000000
B0455193213715S11702108EA0111401198000004000000
B0455233213774S11702144EA0111801203000004000000
B0455273213834S11702178EA0112001204000004000000
B0455313213898S11702210EA0111701197000004000000
B0455353213964S11702246EA0111101191000004000000
B0455393214031S11702287EA0110601186000004000000
B0455433214099S11702329EA0109701177000004000000
B0455473214171S11702373EA0109501177000004000000
B0455513214239S11702418EA0109401174000004000000
B0455553214310S11702467EA0108401165000004000000
B0455593214385S11702511EA0107501153000004000000
B0456033214462S11702554EA0107701160000004000000
B0456073214530S11702597EA0108301165000004000000
B0456113214595S11702637EA0108601169000004000000
B0456153214656S11702673EA0109001173000004000000
B0456193214716S11702706EA0109301172000004000000
B0456233214779S11702741EA0108601163000004000000
B0456273214846S11702780EA0107701157000004000000
B0456313214912S11702823EA0107701158000004000000
B0456353214974S11702872EA0107701159000004000000
B0456393215035S11702924EA0107201150000004000000
B0456433215097S11702975EA0106701147000004000000
B0456473215155S11703026EA0106501143000004000000
B0456513215212S11703075EA0105901137000004000000
B0456553215268S11703126EA0105301132000004000000
B0456593215320S11703180EA0104801131000004000000
B0457033215373S11703234EA0104601128000004000000
B0457073215425S11703287EA0104401126000004000000
B0457113215479S11703338EA0104401124000004000000
B0457153215532S11703386EA0104001119000004000000
B0457193215588S11703434EA0103501115000004000000
B0457233215645S11703475EA0103601120000004000000
B0457273215705S11703484EA0105501141000004000000
B0457313215730S11703432EA0107201153000004000000
B0457353215696S11703384EA0107001148000004000000
B0457393215641S11703399EA0106601145000004000000
B0457433215618S11703461EA0106301142000004000000
B0457473215635S11703529EA0106501150000004000000
B0457513215674S11703578EA0107901163000004000000
B0457553215726S11703575EA0108801176000004000000
B0457593215731S11703517EA0109401177000004000000
B0458033215678S11703490EA0109901186000004000000
B0458073215628S11703526EA0110701194000004000000
B0458113215618S11703592EA0111401200000004000000
B0458153215652S11703648EA0111801203000004000000
B0458193215705S11703660EA0112701214000004000000
B0458233215737S11703614EA0113401219000004000000
B0458273215715S11703553EA0113201218000004000000
B0458313215656S11703549EA0113701222000004000000
B0458353215617S11703609EA0115101236000004000000
B0458393215627S11703679EA0116001245000004000000
B0458433215675S11703713EA0116401250000004000000
B0458473215722S11703689EA0117101256000004000000
B0458513215731S11703627EA0117601260000004000000
B0458553215693S11703575EA0117701261000004000000
B0458593215633S11703581EA0118701275000004000000
B0459033215598S11703638EA0120201290000004000000
B0459073215610S11703702EA0121201296000004000000
B0459113215658S11703729EA0120601288000004000000
B0459153215711S11703702EA0120501287000004000000
B0459193215732S11703639EA0120901295000004000000
B0459233215708S11703577EA0121401299000004000000
B0459273215649S11703569EA0122601314000004000000
B0459313215607S11703617EA0123701322000004000000
B0459353215611S11703689EA0124101327000004000000
B0459393215657S11703735EA0124501330000004000000
B0459433215714S11703738EA0124901332000004000000
B0459473215761S11703691EA0125101335000004000000
B0459513215773S11703624EA0126301350000004000000
B0459553215736S11703569EA0127201356000004000000
B0459593215671S11703557EA0127201356000004000000
B0500033215610S11703598EA0127901364000004000000
B0500073215580S11703664EA0129301378000004000000
B0500113215591S11703737EA0130001381000004000000
B0500153215631S11703793EA0130401385000004000000
B0500193215685S11703809EA0130501386000004000000
B0500233215739S11703785EA0130401385000004000000
B0500273215771S11703730EA0130701390000004000000
B0500313215770S11703664EA0131501398000004000000
B0500353215730S11703609EA0132001402000004000000
B0500393215666S11703595EA0132801409000004000000
B0500433215611S11703633EA0133301415000004000000
B0500473215593S11703702EA0133801418000004000000
B0500513215620S11703765EA0133601415000004000000
B0500553215675S11703807EA0132901406000004000000
B0500593215743S11703830EA0132101398000004000000
B0501033215818S11703839EA0131601394000004000000
B0501073215895S11703841EA0131101388000004000000
B0501113215973S11703837EA0130601385000004000000
B0501153216049S11703832EA0130301380000004000000
B0501193216125S11703825EA0129501370000004000000
B0501233216196S11703816EA0128901368000004000000
B0501273216265S11703808EA0129101371000004000000
B0501313216329S11703802EA0129101370000004000000
B0501353216394S11703795EA0128601359000004000000
B0501393216463S11703794EA0127201347000004000000
B0501433216534S11703785EA0126601342000004000000
B0501473216603S11703774EA0126201341000004000000
B0501513216668S11703768EA0126801348000004000000
B0501553216727S11703772EA0127201347000004000000
B0501593216788S11703777EA0126301335000004000000
B0502033216853S11703785EA0125501330000004000000
B0502073216913S11703799EA0125901337000004000000
B0502113216966S11703812EA0126001334000004000000
B0502153217021S11703822EA0124701319000004000000
B0502193217079S11703828EA0123501312000004000000
B0502233217136S11703833EA0123001304000004000000
B0502273217196S11703838EA0121901293000004000000
B0502313217256S11703841EA0121001286000004000000
B0502353217318S11703839EA0120501282000004000000
B0502393217379S11703834EA0120501282000004000000
B0502433217439S11703832EA0120701284000004000000
B0502473217496S11703829EA0120401279000004000000
B0502513217556S11703826EA0119901275000004000000
B0502553217615S11703824EA0119701273000004000000
B0502593217674S11703819EA0119501273000004000000
B0503033217734S11703812EA0119401273000004000000
B0503073217794S11703802EA0120001277000004000000
B0503113217855S11703789EA0120301281000004000000
B0503153217916S11703772EA0120701283000004000000
B0503193217979S11703748EA0120001274000004000000
B0503233218044S11703720EA0119201267000004000000
B0503273218110S11703689EA0119001266000004000000
B0503313218175S11703657EA0118601263000004000000
B0503353218239S11703627EA0118501263000004000000
B0503393218300S11703598EA0118701264000004000000
B0503433218356S11703566EA0119001267000004000000
B0503473218412S11703536EA0119601273000004000000
B0503513218470S11703508EA0119201266000004000000
B0503553218530S11703475EA0118301257000004000000
B0503593218590S11703443EA0117401250000004000000
B0504033218651S11703412EA0116901244000004000000
B0504073218714S11703380EA0116201234000004000000
B0504113218779S11703351EA0115101224000004000000
B0504153218846S11703321EA0114401218000004000000
B0504193218912S11703291EA0113601214000004000000
B0504233218977S11703261EA0113501212000004000000
B0504273219041S11703228EA0113301206000004000000
B0504313219104S11703196EA0112201196000004000000
B0504353219169S11703166EA0111401188000004000000
B0504393219234S11703139EA0110901185000004000000
B0504433219301S11703115EA0110501177000004000000
B0504473219370S11703089EA0109001165000004000000
B0504513219440S11703062EA0107801154000004000000
B0504553219509S11703031EA0107101148000004000000
B0504593219576S11702998EA0106601143000004000000
B0505033219643S11702964EA0106401140000004000000
B0505073219710S11702935EA0105501132000004000000
B0505113219779S11702903EA0104901128000004000000
B0505153219847S11702873EA0105101130000004000000
B0505193219912S11702844EA0105401133000004000000
B0505233219974S11702812EA0106001141000004000000
B0505273220030S11702781EA0106701147000004000000
B0505313220087S11702753EA0106901148000004000000
B0505353220144S11702730EA0108001162000004000000
B0505393220183S11702690EA0108701163000004000000
B0505433220172S11702629EA0108301161000004000000
B0505473220111S11702611EA0108601166000004000000
B0505513220063S11702660EA0109001172000004000000
B0505553220078S11702723EA0110301187000004000000
B0505593220125S11702725EA0111201193000004000000
B0506033220148S11702675EA0110801190000004000000
B0506073220121S11702615EA0110601188000004000000
B0506113220063S11702587EA0110701191000004000000
B0506153220005S11702621EA0110801193000004000000
B0506193219995S11702694EA0110801191000004000000
B0506233220038S11702741EA0111101195000004000000
B0506273220096S11702746EA0111301196000004000000
B0506313220151S11702721EA0111701197000004000000
B0506353220174S11702656EA0111201194000004000000
B0506393220139S11702594EA0111701204000004000000
B0506433220078S11702600EA0112701211000004000000
B0506473220061S11702667EA0112801212000004000000
B0506513220103S11702708EA0113001213000004000000
B0506553220154S11702685EA0113201215000004000000
B0506593220164S11702619EA0113801222000004000000
B0507033220124S11702567EA0114401226000004000000
B0507073220065S11702581EA0114401226000004000000
B0507113220051S11702652EA0114301223000004000000
B0507153220094S11702698EA0114601230000004000000
B0507193220147S11702691EA0115101237000004000000
B0507233220193S11702650EA0115501239000004000000
B0507273220185S11702585EA0115901242000004000000
B0507313220130S11702554EA0115801239000004000000
B0507353220073S11702590EA0115501237000004000000
B0507393220053S11702667EA0115801242000004000000
B0507433220077S11702736EA0116401245000004000000
B0507473220131S11702771EA0116701251000004000000
B0507513220181S11702749EA0117801265000004000000
B0507553220174S11702688EA0118501265000004000000
B0507593220115S11702669EA0118501270000004000000
B0508033220065S11702719EA0119301280000004000000
B0508073220073S11702789EA0120301289000004000000
B0508113220121S11702808EA0121201296000004000000
B0508153220154S11702766EA0121201294000004000000
B0508193220137S11702704EA0121701303000004000000
B0508233220083S11702682EA0122301307000004000000
B0508273220034S11702724EA0122301309000004000000
B0508313220033S11702795EA0122701313000004000000
B0508353220076S11702836EA0123501318000004000000
B0508393220126S11702820EA0123601318000004000000
B0508433220146S11702764EA0123601320000004000000
B0508473220115S11702708EA0124001325000004000000
B0508513220055S11702704EA0124201327000004000000
B0508553220013S11702759EA0124401328000004000000
B0508593220017S11702832EA0124701332000004000000
B0509033220055S11702880EA0125401335000004000000
B0509073220109S11702889EA0124401324000004000000
B0509113220165S11702863EA0123801319000004000000
B0509153220216S11702816EA0123501321000004000000
B0509193220261S11702766EA0124201329000004000000
B0509233220302S11702711EA0125201337000004000000
B0509273220341S11702658EA0125501338000004000000
B0509313220382S11702602EA0125001330000004000000
B0509353220428S11702545EA0124801327000004000000
B0509393220476S11702489EA0124401323000004000000
B0509433220527S11702437EA0123701316000004000000
B0509473220579S11702385EA0123201304000004000000
B0509513220631S11702333EA0122001293000004000000
B0509553220683S11702277EA0120901285000004000000
B0509593220728S11702212EA0120401280000004000000
B0510033220772S11702148EA0120001275000004000000
B0510073220815S11702083EA0119001266000004000000
B0510113220857S11702017EA0118401261000004000000
B0510153220901S11701952EA0118101257000004000000
B0510193220944S11701891EA0117901255000004000000
B0510233220987S11701831EA0117501251000004000000
B0510273221031S11701775EA0117701258000004000000
B0510313221077S11701727EA0118101257000004000000
B0510353221113S11701671EA0118601265000004000000
B0510393221131S11701603EA0118501261000004000000
B0510433221168S11701544EA0118701266000004000000
B0510473221208S11701492EA0119601277000004000000
B0510513221220S11701428EA0120901290000004000000
B0510553221178S11701377EA0121301290000004000000
B0510593221113S11701393EA0121401295000004000000
B0511033221078S11701458EA0121401295000004000000
B0511073221091S11701529EA0121901303000004000000
B0511113221139S11701567EA0122501309000004000000
B0511153221192S11701550EA0123301316000004000000
B0511193221212S11701490EA0124301327000004000000
B0511233221177S11701434EA0125201337000004000000
B0511273221114S11701440EA0125601342000004000000
B0511313221086S11701503EA0126101349000004000000
B0511353221109S11701567EA0126501349000004000000
B0511393221164S11701592EA0126501348000004000000
B0511433221221S11701575EA0126501347000004000000
B0511473221277S11701537EA0126401349000004000000
B0511513221331S11701498EA0127001354000004000000
B0511553221385S11701455EA0127401357000004000000
B0511593221437S11701414EA0127701359000004000000
B0512033221490S11701371EA0128801369000004000000
B0512073221538S11701326EA0129801380000004000000
B0512113221542S11701263EA0130701386000004000000
B0512153221489S11701234EA0131001390000004000000
B0512193221441S11701280EA0130701391000004000000
B0512233221437S11701351EA0131501400000004000000
B0512273221472S11701407EA0131801402000004000000
B0512313221532S11701427EA0132101405000004000000
B0512353221598S11701420EA0131501397000004000000
B0512393221668S11701404EA0131401396000004000000
B0512433221737S11701389EA0131601398000004000000
B0512473221806S11701372EA0131501391000004000000
B0512513221875S11701354EA0130901383000004000000
B0512553221945S11701339EA0129901372000004000000
B0512593222019S11701330EA0129101366000004000000
B0513033222093S11701328EA0128301362000004000000
B0513073222165S11701328EA0128101359000004000000
B0513113222234S11701320EA0127901355000004000000
B0513153222301S11701308EA0127401349000004000000
B0513193222366S11701289EA0127001347000004000000
B0513233222430S11701264EA0126901345000004000000
B0513273222486S11701230EA0126701342000004000000
B0513313222536S11701186EA0126101336000004000000
B0513353222585S11701135EA0125501328000004000000
B0513393222637S11701082EA0124901322000004000000
B0513433222681S11701018EA0124901324000004000000
B0513473222708S11700947EA0124801321000004000000
B0513513222698S11700874EA0124801322000004000000
B0513553222655S11700817EA0124401312000004000000
B0513593222587S11700784EA0123001301000004000000
B0514033222512S11700766EA0122201294000004000000
B0514073222434S11700753EA0121501290000004000000
B0514113222356S11700743EA0121201286000004000000
B0514153222278S11700736EA0120601283000004000000
B0514193222201S11700731EA0120901290000004000000
B0514233222130S11700728EA0121201290000004000000
B0514273222061S11700723EA0121101287000004000000
B0514313221992S11700719EA0120401281000004000000
B0514353221924S11700718EA0120701290000004000000
B0514393221860S11700717EA0121601295000004000000
B0514433221794S11700718EA0121601296000004000000
B0514473221729S11700718EA0122001302000004000000
B0514513221671S11700692EA0122301300000004000000
B0514553221656S11700624EA0122301303000004000000
B0514593221698S11700585EA0122701309000004000000
B0515033221741S11700618EA0123501312000004000000
B0515073221734S11700683EA0124301321000004000000
B0515113221686S11700722EA0124801325000004000000
B0515153221630S11700713EA0124901326000004000000
B0515193221594S11700663EA0125101326000004000000
B0515233221589S11700600EA0124601320000004000000
B0515273221613S11700544EA0124501323000004000000
B0515313221663S11700544EA0124601321000004000000
B0515353221697S11700596EA0124301319000004000000
B0515393221689S11700666EA0124501321000004000000
B0515433221639S11700714EA0124401318000004000000
B0515473221571S11700723EA0123901312000004000000
B0515513221500S11700709EA0123501305000004000000
B0515553221426S11700691EA0122601298000004000000
B0515593221350S11700669EA0121601289000004000000
B0516033221270S11700647EA0121001284000004000000
B0516073221190S11700628EA0120501281000004000000
B0516113221112S11700621EA0120901286000004000000
B0516153221039S11700615EA0120501282000004000000
B0516193220966S11700609EA0119701270000004000000
B0516233220892S11700602EA0119401272000004000000
B0516273220820S11700595EA0119201269000004000000
B0516313220750S11700579EA0118901267000004000000
B0516353220683S11700559EA0118901267000004000000
B0516393220618S11700543EA0118801267000004000000
B0516433220553S11700527EA0118801265000004000000
B0516473220485S11700514EA0118101262000004000000
B0516513220421S11700494EA0119001270000004000000
B0516553220358S11700494EA0120001276000004000000
B0516593220323S11700550EA0120001278000004000000
B0517033220346S11700617EA0120201280000004000000
B0517073220403S11700640EA0120001276000004000000
B0517113220459S11700618EA0119701275000004000000
B0517153220498S11700566EA0119701274000004000000
B0517193220524S11700502EA0119601272000004000000
B0517233220525S11700433EA0119801278000004000000
B0517273220477S11700390EA0120101282000004000000
B0517313220415S11700401EA0120701287000004000000
B0517353220368S11700457EA0121001291000004000000
B0517393220355S11700532EA0121301294000004000000
B0517433220381S11700601EA0121301294000004000000
B0517473220433S11700645EA0121101291000004000000
B0517513220498S11700653EA0120901289000004000000
B0517553220553S11700622EA0121001291000004000000
B0517593220577S11700563EA0121301293000004000000
B0518033220567S11700500EA0120901287000004000000
B0518073220533S11700437EA0120201280000004000000
B0518113220489S11700381EA0120701287000004000000
B0518153220436S11700346EA0121401295000004000000
B0518193220389S11700388EA0122001302000004000000
B0518233220406S11700457EA0122401305000004000000
B0518273220463S11700468EA0123001310000004000000
B0518313220499S11700424EA0123401316000004000000
B0518353220493S11700361EA0123701318000004000000
B0518393220446S11700324EA0123701316000004000000
B0518433220382S11700338EA0123201313000004000000
B0518473220320S11700383EA0122801308000004000000
B0518513220254S11700424EA0122101300000004000000
B0518553220181S11700458EA0121601292000004000000
B0518593220108S11700488EA0120901287000004000000
B0519033220035S11700515EA0120001275000004000000
B0519073219960S11700544EA0119001265000004000000
B0519113219884S11700574EA0118601262000004000000
B0519153219810S11700610EA0118701262000004000000
B0519193219740S11700654EA0118001256000004000000
B0519233219671S11700705EA0117201248000004000000
B0519273219608S11700760EA0116801245000004000000
B0519313219553S11700816EA0117101254000004000000
B0519353219500S11700860EA0118501268000004000000
B0519393219448S11700894EA0119501276000004000000
B0519433219401S11700936EA0120001275000004000000
B0519473219396S11701003EA0119801274000004000000
B0519513219441S11701043EA0119801273000004000000
B0519553219494S11701021EA0120001277000004000000
B0519593219522S11700961EA0119901276000004000000
B0520033219514S11700892EA0120001277000004000000
B0520073219479S11700831EA0120001278000004000000
B0520113219419S11700814EA0120401282000004000000
B0520153219384S11700868EA0120801286000004000000
B0520193219413S11700926EA0120601281000004000000
B0520233219472S11700922EA0120201281000004000000
B0520273219507S11700861EA0121001290000004000000
B0520313219501S11700788EA0121501291000004000000
B0520353219453S11700736EA0121001285000004000000
B0520393219384S11700730EA0119501269000004000000
B0520433219307S11700726EA0118201256000004000000
B0520473219229S11700702EA0117401249000004000000
B0520513219156S11700666EA0116801242000004000000
B0520553219088S11700622EA0116401241000004000000
B0520593219020S11700579EA0116301237000004000000
B0521033218952S11700536EA0115501227000004000000
B0521073218885S11700493EA0114601220000004000000
B0521113218816S11700449EA0113701212000004000000
B0521153218747S11700405EA0113201207000004000000
B0521193218678S11700358EA0112501196000004000000
B0521233218607S11700312EA0111501186000004000000
B0521273218534S11700268EA0110801182000004000000
B0521313218462S11700224EA0110401176000004000000
B0521353218389S11700181EA0109801171000004000000
B0521393218318S11700140EA0109201166000004000000
B0521433218246S11700102EA0108901164000004000000
B0521473218174S11700064EA0108601161000004000000
B0521513218101S11700029EA0108201158000004000000
B0521553218032S11659995EA0108101157000004000000
B0521593217964S11659959EA0107801150000004000000
B0522033217895S11659921EA0106901138000004000000
B0522073217828S11659880EA0105901132000004000000
B0522113217764S11659837EA0105801132000004000000
B0522153217700S11659800EA0105901131000004000000
B0522193217637S11659768EA0105601128000004000000
B0522233217572S11659742EA0105801132000004000000
B0522273217512S11659711EA0105701129000004000000
B0522313217452S11659681EA0105901136000004000000
B0522353217399S11659653EA0106501139000004000000
B0522393217346S11659621EA0106601140000004000000
B0522433217291S11659629EA0107401153000004000000
B0522473217283S11659691EA0108401157000004000000
B0522513217335S11659726EA0108301158000004000000
B0522553217383S11659690EA0109201169000004000000
B0522593217383S11659629EA0109701173000004000000
B0523033217338S11659604EA0110001174000004000000
B0523073217296S11659644EA0110001177000004000000
B0523113217300S11659712EA0110501185000004000000
B0523153217347S11659746EA0111401193000004000000
B0523193217395S11659722EA0111901195000004000000
B0523233217408S11659665EA0112001197000004000000
B0523273217378S11659618EA0111901193000004000000
B0523313217323S11659608EA0111801194000004000000
B0523353217284S11659652EA0112701204000004000000
B0523393217309S11659712EA0113001208000004000000
B0523433217362S11659707EA0113901219000004000000
B0523473217379S11659651EA0114701224000004000000
B0523513217349S11659601EA0114601221000004000000
B0523553217299S11659609EA0115001232000004000000
B0523593217283S11659668EA0116201241000004000000
B0524033217325S11659708EA0116401242000004000000
B0524073217374S11659681EA0117101251000004000000
B0524113217379S11659621EA0117701253000004000000
B0524153217342S11659579EA0117801257000004000000
B0524193217291S11659591EA0118401263000004000000
B0524233217277S11659653EA0119601275000004000000
B0524273217317S11659698EA0120201280000004000000
B0524313217369S11659675EA0120701287000004000000
B0524353217386S11659616EA0121401291000004000000
B0524393217355S11659566EA0121401291000004000000
B0524433217303S11659581EA0121401294000004000000
B0524473217295S11659647EA0121901299000004000000
B0524513217340S11659688EA0122701307000004000000
B0524553217395S11659674EA0123601313000004000000
B0524593217425S11659622EA0123601313000004000000
B0525033217418S11659564EA0123801315000004000000
B0525073217374S11659527EA0123701311000004000000
B0525113217314S11659529EA0123201306000004000000
B0525153217265S11659573EA0123201311000004000000
B0525193217255S11659644EA0124301324000004000000
B0525233217292S11659696EA0125401331000004000000
B0525273217349S11659688EA0125401333000004000000
B0525313217377S11659627EA0125801335000004000000
B0525353217357S11659564EA0126001336000004000000
B0525393217303S11659531EA0125001327000004000000
B0525433217231S11659522EA0124201318000004000000
B0525473217153S11659517EA0122601301000004000000
B0525513217069S11659510EA0121101285000004000000
B0525553216983S11659504EA0120401284000004000000
B0525593216898S11659495EA0120101279000004000000
B0526033216815S11659478EA0119301269000004000000
B0526073216729S11659456EA0118001257000004000000
B0526113216642S11659436EA0117601252000004000000
B0526153216556S11659421EA0116701241000004000000
B0526193216471S11659406EA0115301232000004000000
B0526233216385S11659395EA0114901224000004000000
B0526273216298S11659383EA0113901215000004000000
B0526313216213S11659369EA0113301210000004000000
B0526353216129S11659349EA0113001207000004000000
B0526393216049S11659330EA0113101211000004000000
B0526433215973S11659314EA0113301209000004000000
B0526473215896S11659297EA0112701201000004000000
B0526513215819S11659282EA0111901193000004000000
B0526553215741S11659263EA0111301186000004000000
B0526593215665S11659243EA0110801180000004000000
B0527033215589S11659223EA0109901172000004000000
B0527073215514S11659205EA0109401167000004000000
B0527113215440S11659188EA0109001163000004000000
B0527153215370S11659168EA0108601157000004000000
B0527193215298S11659149EA0108101153000004000000
B0527233215228S11659127EA0107601147000004000000
B0527273215156S11659103EA0106801139000004000000
B0527313215084S11659080EA0106101132000004000000
B0527353215011S11659050EA0105401125000004000000
B0527393214939S11659020EA0105001121000004000000
B0527433214868S11658994EA0104301117000004000000
B0527473214798S11658972EA0104501119000004000000
B0527513214733S11658950EA0104901120000004000000
B0527553214670S11658925EA0104501116000004000000
B0527593214609S11658903EA0104501114000004000000
B0528033214548S11658886EA0104501118000004000000
B0528073214486S11658877EA0105101127000004000000
B0528113214427S11658882EA0106301137000004000000
B0528153214395S11658931EA0107001140000004000000
B0528193214422S11658992EA0106801141000004000000
B0528233214484S11659002EA0107501151000004000000
B0528273214531S11658960EA0108501159000004000000
B0528313214536S11658894EA0108601159000004000000
B0528353214496S11658843EA0108401157000004000000
B0528393214435S11658836EA0108501157000004000000
B0528433214369S11658855EA0107901153000004000000
B0528473214301S11658873EA0107501147000004000000
B0528513214229S11658882EA0106601138000004000000
B0528553214155S11658885EA0106001135000004000000
B0528593214084S11658881EA0106101135000004000000
B0529033214012S11658880EA0104901121000004000000
B0529073213933S11658881EA0103501109000004000000
B0529113213852S11658884EA0102501100000004000000
B0529153213773S11658886EA0102101098000004000000
B0529193213698S11658885EA0101901095000004000000
B0529233213622S11658881EA0101701091000004000000
B0529273213548S11658876EA0101001084000004000000
B0529313213474S11658875EA0100401079000004000000
B0529353213400S11658875EA0100001073000004000000
B0529393213327S11658872EA0099501069000004000000
B0529433213254S11658863EA0098901064000004000000
B0529473213184S11658849EA0099301067000004000000
B0529513213117S11658833EA0098801056000004000000
B0529553213044S11658817EA0097401040000004000000
B0529593212968S11658798EA0096301034000004000000
B0530033212896S11658778EA0096101033000004000000
B0530073212825S11658759EA0095901030000004000000
B0530113212755S11658742EA0095501024000004000000
B0530153212684S11658724EA0095101022000004000000
B0530193212612S11658706EA0094701017000004000000
B0530233212538S11658689EA0094001012000004000000
B0530273212464S11658674EA0093801011000004000000
B0530313212395S11658660EA0094901024000004000000
B0530353212329S11658650EA0095601029000004000000
B0530393212264S11658661EA0095901032000004000000
B0530433212199S11658684EA0095701028000004000000
B0530473212134S11658704EA0094701017000004000000
B0530513212061S11658716EA0093101003000004000000
B0530553211986S11658721EA0092501000000004000000
B0530593211912S11658720EA0092500997000004000000
B0531033211839S11658706EA0091600985000004000000
B0531073211765S11658687EA0090500975000004000000
B0531113211691S11658664EA0089800969000004000000
B0531153211618S11658639EA0089300965000004000000
B0531193211546S11658620EA0088800959000004000000
B0531233211475S11658603EA0087800948000004000000
B0531273211402S11658587EA0086600937000004000000
B0531313211329S11658574EA0086000931000004000000
B0531353211259S11658565EA0085800930000004000000
B0531393211193S11658561EA0085700927000004000000
B0531433211126S11658554EA0085000915000004000000
B0531473211060S11658543EA0084100910000004000000
B0531513210994S11658533EA0083900909000004000000
B0531553210930S11658529EA0084100910000004000000
B0531593210868S11658525EA0084100912000004000000
B0532033210805S11658516EA0084000911000004000000
B0532073210744S11658507EA0084500916000004000000
B0532113210683S11658500EA0084700917000004000000
B0532153210623S11658503EA0084900921000004000000
B0532193210565S11658517EA0085500929000004000000
B0532233210526S11658565EA0086100934000004000000
B0532273210531S11658630EA0086300937000004000000
B0532313210578S11658668EA0086500939000004000000
B0532353210635S11658654EA0086400936000004000000
B0532393210666S11658598EA0085800933000004000000
B0532433210664S11658528EA0085800933000004000000
B0532473210647S11658460EA0085900933000004000000
B0532513210618S11658396EA0085900932000004000000
B0532553210566S11658356EA0085700931000004000000
B0532593210502S11658348EA0085800935000004000000
B0533033210440S11658353EA0085600927000004000000
B0533073210372S11658364EA0084200913000004000000
B0533113210301S11658373EA0084000921000004000000
B0533153210233S11658386EA0084700924000004000000
B0533193210170S11658411EA0084400922000004000000
B0533233210102S11658431EA0083200905000004000000
B0533273210025S11658440EA0082200901000004000000
B0533313209950S11658440EA0082200902000004000000
B0533353209873S11658439EA0082800911000004000000
B0533393209803S11658448EA0083700913000004000000
B0533433209733S11658466EA0083400908000004000000
B0533473209661S11658492EA0082400897000004000000
B0533513209590S11658526EA0081700893000004000000
B0533553209521S11658564EA0081100887000004000000
B0533593209445S11658591EA0079700872000004000000
B0534033209364S11658596EA0078900867000004000000
B0534073209284S11658582EA0078600866000004000000
B0534113209210S11658548EA0078600868000004000000
B0534153209144S11658505EA0079100871000004000000
B0534193209083S11658459EA0079200871000004000000
B0534233209023S11658411EA0079200873000004000000
B0534273208964S11658364EA0079500877000004000000
B0534313208907S11658318EA0079700876000004000000
B0534353208847S11658274EA0079400874000004000000
B0534393208786S11658231EA0079100870000004000000
B0534433208725S11658192EA0078600863000004000000
B0534473208662S11658154EA0078000859000004000000
B0534513208600S11658112EA0077700857000004000000
B0534553208539S11658073EA0078000860000004000000
B0534593208472S11658065EA0078000863000004000000
B0535033208405S11658071EA0078000861000004000000
B0535073208337S11658069EA0077900858000004000000
B0535113208268S11658054EA0077400851000004000000
B0535153208199S11658023EA0076800843000004000000
B0535193208135S11657976EA0076000837000004000000
B0535233208075S11657922EA0075600832000004000000
B0535273208017S11657866EA0074800825000004000000
B0535313207958S11657813EA0074000817000004000000
B0535353207898S11657762EA0073000807000004000000
B0535393207837S11657710EA0072500803000004000000
B0535433207779S11657659EA0072300803000004000000
B0535473207723S11657608EA0072100802000004000000
B0535513207664S11657562EA0071800796000004000000
B0535553207606S11657511EA0071500793000004000000
B0535593207550S11657460EA0071400795000004000000
B0536033207494S11657416EA0071700799000004000000
B0536073207437S11657374EA0071800796000004000000
B0536113207375S11657346EA0071700795000004000000
B0536153207313S11657355EA0072400805000004000000
B0536193207299S11657417EA0073000811000004000000
B0536233207350S11657450EA0073000809000004000000
B0536273207402S11657423EA0073000808000004000000
B0536313207425S11657361EA0073000811000004000000
B0536353207412S11657299EA0073000809000004000000
B0536393207371S11657254EA0072800810000004000000
B0536433207316S11657228EA0072800810000004000000
B0536473207263S11657248EA0073000815000004000000
B0536513207269S11657312EA0073700822000004000000
B0536553207325S11657329EA0074200825000004000000
B0536593207355S11657276EA0074400827000004000000
B0537033207326S11657220EA0074600829000004000000
B0537073207272S11657220EA0074700831000004000000
B0537113207241S11657273EA0075500842000004000000
B0537153207265S11657326EA0076400851000004000000
B0537193207319S11657316EA0076800852000004000000
B0537233207333S11657254EA0077200861000004000000
B0537273207297S11657212EA0078000868000004000000
B0537313207247S11657226EA0078000866000004000000
B0537353207229S11657286EA0078100870000004000000
B0537393207265S11657335EA0078800877000004000000
B0537433207324S11657325EA0079000875000004000000
B0537473207346S11657260EA0078800876000004000000
B0537513207307S11657208EA0079400881000004000000
B0537553207252S11657225EA0079500882000004000000
B0537593207239S11657291EA0080100893000004000000
B0538033207280S11657338EA0081400904000004000000
B0538073207338S11657328EA0081800904000004000000
B0538113207367S11657265EA0081800904000004000000
B0538153207339S11657205EA0082200910000004000000
B0538193207285S11657199EA0082700911000004000000
B0538233207251S11657251EA0083000917000004000000
B0538273207269S11657308EA0084300930000004000000
B0538313207325S11657313EA0084400928000004000000
B0538353207362S11657257EA0084100927000004000000
B0538393207345S11657194EA0084700934000004000000
B0538433207293S11657181EA0084800932000004000000
B0538473207252S11657226EA0084700937000004000000
B0538513207264S11657287EA0085600947000004000000
B0538553207315S11657311EA0086500955000004000000
B0538593207364S11657276EA0086400949000004000000
B0539033207378S11657205EA0086200950000004000000
B0539073207342S11657153EA0086600954000004000000
B0539113207289S11657148EA0086600952000004000000
B0539153207241S11657186EA0086100948000004000000
B0539193207208S11657248EA0086000949000004000000
B0539233207216S11657319EA0086200951000004000000
B0539273207269S11657351EA0086200950000004000000
B0539313207330S11657321EA0085900945000004000000
B0539353207356S11657247EA0085500944000004000000
B0539393207342S11657168EA0086000949000004000000
B0539433207297S11657122EA0086400955000004000000
B0539473207245S11657150EA0086100947000004000000
B0539513207239S11657220EA0085800953000004000000
B0539553207286S11657259EA0087100963000004000000
B0539593207342S11657231EA0087400962000004000000
B0540033207371S11657157EA0086500951000004000000
B0540073207351S11657077EA0085700952000004000000
B0540113207294S11657043EA0087100965000004000000
B0540153207238S11657066EA0087600966000004000000
B0540193207224S11657130EA0087200963000004000000
B0540233207264S11657179EA0087200963000004000000
B0540273207326S11657174EA0087100963000004000000
B0540313207373S11657124EA0087000962000004000000
B0540353207395S11657056EA0087700973000004000000
B0540393207412S11656988EA0088300974000004000000
B0540433207436S11656923EA0087900970000004000000
B0540473207455S11656860EA0087400963000004000000
B0540513207460S11656792EA0086800956000004000000
B0540553207460S11656724EA0086100945000004000000
B0540593207460S11656656EA0085100932000004000000
B0541033207462S11656585EA0084500927000004000000
B0541073207463S11656511EA0084000923000004000000
B0541113207471S11656438EA0084300929000004000000
B0541153207480S11656367EA0084400928000004000000
B0541193207486S11656290EA0083900922000004000000
B0541233207490S11656208EA0084200930000004000000
B0541273207471S11656133EA0085700947000004000000
B0541313207411S11656113EA0087600963000004000000
B0541353207364S11656159EA0088400972000004000000
B0541393207369S11656233EA0088800980000004000000
B0541433207419S11656275EA0090200996000004000000
B0541473207473S11656256EA0091401005000004000000
B0541513207490S11656194EA0092701020000004000000
B0541553207449S11656152EA0094201033000004000000
B0541593207395S11656178EA0095201044000004000000
B0542033207391S11656242EA0096701059000004000000
B0542073207436S11656275EA0097701065000004000000
B0542113207482S11656242EA0097801069000004000000
B0542153207480S11656180EA0099001084000004000000
B0542193207428S11656168EA0100201093000004000000
B0542233207399S11656221EA0101501110000004000000
B0542273207434S11656264EA0103001120000004000000
B0542313207484S11656246EA0103501124000004000000
B0542353207493S11656185EA0104801139000004000000
B0542393207456S11656142EA0106501155000004000000
B0542433207407S11656159EA0107701164000004000000
B0542473207407S11656219EA0108901177000004000000
B0542513207455S11656246EA0110301190000004000000
B0542553207494S11656212EA0111901204000004000000
B0542593207490S11656155EA0112701212000004000000
B0543033207443S11656128EA0113501223000004000000
B0543073207395S11656149EA0115301243000004000000
B0543113207378S11656201EA0116901256000004000000
B0543153207406S11656251EA0117401260000004000000
B0543193207458S11656260EA0118601273000004000000
B0543233207492S11656223EA0120001284000004000000
B0543273207482S11656165EA0120701291000004000000
B0543313207432S11656151EA0120901297000004000000
B0543353207394S11656204EA0121801310000004000000
B0543393207407S11656266EA0123701325000004000000
B0543433207450S11656294EA0124801332000004000000
B0543473207497S11656285EA0124701327000004000000
B0543513207528S11656233EA0124001324000004000000
B0543553207533S11656168EA0125201338000004000000
B0543593207510S11656112EA0125801338000004000000
B0544033207459S11656082EA0125101332000004000000
B0544073207399S11656103EA0125101335000004000000
B0544113207350S11656159EA0126001343000004000000
B0544153207325S11656229EA0127201356000004000000
B0544193207333S11656302EA0128601375000004000000
B0544233207377S11656334EA0130301386000004000000
B0544273207427S11656307EA0129901376000004000000
B0544313207442S11656238EA0129001372000004000000
B0544353207419S11656164EA0129401377000004000000
B0544393207381S11656093EA0130301385000004000000
B0544433207325S11656041EA0131501397000004000000
B0544473207256S11656041EA0132301400000004000000
B0544513207217S11656100EA0131701395000004000000
B0544553207222S11656178EA0130901387000004000000
B0544593207252S11656254EA0130801391000004000000
B0545033207291S11656323EA0131901401000004000000
B0545073207332S11656386EA0132701406000004000000
B0545113207373S11656446EA0132501401000004000000
B0545153207416S11656505EA0132001395000004000000
B0545193207460S11656565EA0131901393000004000000
B0545233207507S11656627EA0132201400000004000000
B0545273207553S11656688EA0132001395000004000000
B0545313207598S11656748EA0131001382000004000000
B0545353207649S11656809EA0129701371000004000000
B0545393207702S11656870EA0129301372000004000000
B0545433207748S11656930EA0129901374000004000000
B0545473207792S11656992EA0129501367000004000000
B0545513207827S11657066EA0128601360000004000000
B0545553207843S11657147EA0129601378000004000000
B0545593207848S11657224EA0130701384000004000000
B0546033207852S11657300EA0130901382000004000000
B0546073207833S11657377EA0130101374000004000000
B0546113207788S11657437EA0129101363000004000000
B0546153207719S11657465EA0128001349000004000000
B0546193207649S11657454EA0127101347000004000000
B0546233207602S11657391EA0126901343000004000000
B0546273207584S11657308EA0125601330000004000000
B0546313207573S11657220EA0125001332000004000000
B0546353207566S11657140EA0125901340000004000000
B0546393207555S11657068EA0126301345000004000000
B0546433207542S11656995EA0126201341000004000000
B0546473207528S11656919EA0126501346000004000000
B0546513207514S11656848EA0127001352000004000000
B0546553207493S11656780EA0127201349000004000000
B0546593207471S11656715EA0126301336000004000000
B0547033207445S11656643EA0124901324000004000000
B0547073207420S11656566EA0124301320000004000000
B0547113207395S11656490EA0124801329000004000000
B0547153207367S11656423EA0125401332000004000000
B0547193207332S11656360EA0125201328000004000000
B0547233207286S11656303EA0124401321000004000000
B0547273207226S11656258EA0124401323000004000000
B0547313207163S11656217EA0124901331000004000000
B0547353207099S11656181EA0126101343000004000000
B0547393207040S11656146EA0127301348000004000000
B0547433206978S11656110EA0126401332000004000000
B0547473206912S11656071EA0124601318000004000000
B0547513206842S11656033EA0123801312000004000000
B0547553206774S11656000EA0123901311000004000000
B0547593206710S11655969EA0123801311000004000000
B0548033206652S11655943EA0124001314000004000000
B0548073206596S11655921EA0124001313000004000000
B0548113206546S11655877EA0123701312000004000000
B0548153206524S11655808EA0124001315000004000000
B0548193206535S11655730EA0123801309000004000000
B0548233206567S11655653EA0122001290000004000000
B0548273206617S11655587EA0121001285000004000000
B0548313206671S11655535EA0121001288000004000000
B0548353206727S11655492EA0120901285000004000000
B0548393206786S11655452EA0120201275000004000000
B0548433206845S11655405EA0118901266000004000000
B0548473206905S11655354EA0118301260000004000000
B0548513206964S11655301EA0117701254000004000000
B0548553207025S11655250EA0117201252000004000000
B0548593207082S11655198EA0117301254000004000000
B0549033207135S11655148EA0117601259000004000000
B0549073207186S11655099EA0117801260000004000000
B0549113207233S11655051EA0118001261000004000000
B0549153207280S11655003EA0117601254000004000000
B0549193207325S11654949EA0117301253000004000000
B0549233207365S11654891EA0117501257000004000000
B0549273207402S11654834EA0117601259000004000000
B0549313207436S11654774EA0117801261000004000000
B0549353207471S11654717EA0118201266000004000000
B0549393207507S11654661EA0119101275000004000000
B0549433207545S11654607EA0119801281000004000000
B0549473207589S11654559EA0120401286000004000000
B0549513207649S11654557EA0120801289000004000000
B0549553207680S11654616EA0120901288000004000000
B0549593207663S11654685EA0121401295000004000000
B0550033207618S11654722EA0122201304000004000000
B0550073207570S11654713EA0123001312000004000000
B0550113207538S11654665EA0123501313000004000000
B0550153207525S11654598EA0123501317000004000000
B0550193207523S11654526EA0123801318000004000000
B0550233207527S11654453EA0123501315000004000000
B0550273207538S11654381EA0123601313000004000000
B0550313207550S11654305EA0123701312000004000000
B0550353207553S11654231EA0123601312000004000000
B0550393207549S11654158EA0123601308000004000000
B0550433207545S11654085EA0123201306000004000000
B0550473207536S11654011EA0123001305000004000000
B0550513207515S11653941EA0123201307000004000000
B0550553207488S11653875EA0122701298000004000000
B0550593207488S11653803EA0122201295000004000000
B0551033207533S11653760EA0122101296000004000000
B0551073207589S11653780EA0122601300000004000000
B0551113207619S11653842EA0123001307000004000000
B0551153207615S11653918EA0123201311000004000000
B0551193207580S11653980EA0123201308000004000000
B0551233207519S11654007EA0122201296000004000000
B0551273207451S11653988EA0121101290000004000000
B0551313207397S11653937EA0121501295000004000000
B0551353207354S11653879EA0122001301000004000000
B0551393207310S11653819EA0122501302000004000000
B0551433207264S11653764EA0122501301000004000000
B0551473207216S11653714EA0122201298000004000000
B0551513207169S11653660EA0121901293000004000000
B0551553207121S11653606EA0122001294000004000000
B0551593207063S11653575EA0121701294000004000000
B0552033206996S11653580EA0121901297000004000000
B0552073206943S11653625EA0122301302000004000000
B0552113206933S11653693EA0122401302000004000000
B0552153206969S11653747EA0121401287000004000000
B0552193207029S11653789EA0120301283000004000000
B0552233207087S11653825EA0120401286000004000000
B0552273207138S11653871EA0120701286000004000000
B0552313207183S11653924EA0120701286000004000000
B0552353207229S11653978EA0120501284000004000000
B0552393207274S11654033EA0120201281000004000000
B0552433207313S11654096EA0120101279000004000000
B0552473207339S11654169EA0119701276000004000000
B0552513207351S11654247EA0119501272000004000000
B0552553207362S11654327EA0118701268000004000000
B0552593207376S11654407EA0118501265000004000000
B0553033207393S11654487EA0118501265000004000000
B0553073207408S11654566EA0118701271000004000000
B0553113207421S11654641EA0119901285000004000000
B0553153207433S11654708EA0121001292000004000000
B0553193207438S11654780EA0121001288000004000000
B0553233207441S11654859EA0120601285000004000000
B0553273207443S11654942EA0120201280000004000000
B0553313207445S11655025EA0120001281000004000000
B0553353207443S11655105EA0120201281000004000000
B0553393207440S11655181EA0120201279000004000000
B0553433207432S11655262EA0119501272000004000000
B0553473207427S11655344EA0118801265000004000000
B0553513207417S11655427EA0118301263000004000000
B0553553207411S11655508EA0118001260000004000000
B0553593207401S11655587EA0117301249000004000000
B0554033207393S11655670EA0115801235000004000000
B0554073207385S11655753EA0115201233000004000000
B0554113207378S11655827EA0116101243000004000000
B0554153207373S11655899EA0116301241000004000000
B0554193207369S11655973EA0116001237000004000000
B0554233207364S11656051EA0115501234000004000000
B0554273207358S11656130EA0115901236000004000000
B0554313207362S11656214EA0115001228000004000000
B0554353207372S11656294EA0114401226000004000000
B0554393207375S11656370EA0115601242000004000000
B0554433207376S11656440EA0116401243000004000000
B0554473207372S11656518EA0115801237000004000000
B0554513207365S11656596EA0116201244000004000000
B0554553207362S11656672EA0116601247000004000000
B0554593207359S11656752EA0116801247000004000000
B0555033207358S11656835EA0116001236000004000000
B0555073207358S11656921EA0115101231000004000000
B0555113207352S11657003EA0115301235000004000000
B0555153207345S11657078EA0115601237000004000000
B0555193207339S11657153EA0115501235000004000000
B0555233207333S11657230EA0115401234000004000000
B0555273207324S11657307EA0115501236000004000000
B0555313207306S11657378EA0115901241000004000000
B0555353207281S11657447EA0115701237000004000000
B0555393207255S11657517EA0115501235000004000000
B0555433207246S11657592EA0115701236000004000000
B0555473207274S11657655EA0115301230000004000000
B0555513207334S11657684EA0114601220000004000000
B0555553207397S11657662EA0113801215000004000000
B0555593207442S11657607EA0113801221000004000000
B0556033207479S11657550EA0114601229000004000000
B0556073207508S11657494EA0115301236000004000000
B0556113207534S11657438EA0115801239000004000000
B0556153207557S11657377EA0115501232000004000000
B0556193207564S11657311EA0114801226000004000000
B0556233207554S11657243EA0114001219000004000000
B0556273207537S11657173EA0113501213000004000000
B0556313207521S11657101EA0113401216000004000000
B0556353207506S11657034EA0114001220000004000000
B0556393207485S11656970EA0113901218000004000000
B0556433207464S11656905EA0113801215000004000000
B0556473207449S11656838EA0113701216000004000000
B0556513207432S11656769EA0113901219000004000000
B0556553207410S11656704EA0114101221000004000000
B0556593207378S11656644EA0114501224000004000000
B0557033207323S11656617EA0115101233000004000000
B0557073207264S11656649EA0115701237000004000000
B0557113207245S11656723EA0116001241000004000000
B0557153207276S11656784EA0116101243000004000000
B0557193207334S11656796EA0116301244000004000000
B0557233207382S11656758EA0116501247000004000000
B0557273207406S11656696EA0116601248000004000000
B0557313207407S11656626EA0116501246000004000000
B0557353207390S11656553EA0116801250000004000000
B0557393207351S11656501EA0118301268000004000000
B0557433207294S11656514EA0119501276000004000000
B0557473207261S11656572EA0119901282000004000000
B0557513207267S11656641EA0120501288000004000000
B0557553207306S11656689EA0121101294000004000000
B0557593207359S11656692EA0121301295000004000000
B0558033207399S11656645EA0120801289000004000000
B0558073207401S11656572EA0120601291000004000000
B0558113207368S11656509EA0121701305000004000000
B0558153207316S11656472EA0122901314000004000000
B0558193207256S11656464EA0123401319000004000000
B0558233207198S11656484EA0123701319000004000000
B0558273207148S11656529EA0123501316000004000000
B0558313207121S11656597EA0123501314000004000000
B0558353207122S11656670EA0123401316000004000000
B0558393207148S11656731EA0123101310000004000000
B0558433207193S11656778EA0122601307000004000000
B0558473207245S11656815EA0122601310000004000000
B0558513207298S11656847EA0123101313000004000000
B0558553207352S11656864EA0123301313000004000000
B0558593207410S11656851EA0122501305000004000000
B0559033207458S11656802EA0122001303000004000000
B0559073207497S11656741EA0121901302000004000000
B0559113207529S11656675EA0122001304000004000000
B0559153207558S11656606EA0122401312000004000000
B0559193207581S11656539EA0123501321000004000000
B0559233207593S11656472EA0124901335000004000000
B0559273207560S11656420EA0125601340000004000000
B0559313207503S11656427EA0126201346000004000000
B0559353207476S11656481EA0126801353000004000000
B0559393207488S11656539EA0127801362000004000000
B0559433207532S11656567EA0128001359000004000000
B0559473207584S11656544EA0128001362000004000000
B0559513207605S11656484EA0128701370000004000000
B0559553207583S11656429EA0129501376000004000000
B0559593207528S11656416EA0129301369000004000000
B0600033207473S11656454EA0128401365000004000000
B0600073207430S11656513EA0128801369000004000000
B0600113207427S11656585EA0129701381000004000000
B0600153207462S11656637EA0130501385000004000000
B0600193207518S11656653EA0130101381000004000000
B0600233207579S11656644EA0130301386000004000000
B0600273207629S11656610EA0130901390000004000000
B0600313207657S11656550EA0131001391000004000000
B0600353207657S11656481EA0131001392000004000000
B0600393207637S11656415EA0130701386000004000000
B0600433207607S11656349EA0129601372000004000000
B0600473207579S11656275EA0129101370000004000000
B0600513207557S11656198EA0128401362000004000000
B0600553207536S11656121EA0128001359000004000000
B0600593207515S11656047EA0127901355000004000000
B0601033207493S11655974EA0127801356000004000000
B0601073207469S11655903EA0127401347000004000000
B0601113207443S11655833EA0126501340000004000000
B0601153207420S11655765EA0126401338000004000000
B0601193207399S11655699EA0125901330000004000000
B0601233207378S11655629EA0125101323000004000000
B0601273207359S11655558EA0124501319000004000000
B0601313207342S11655489EA0123901313000004000000
B0601353207329S11655419EA0123401306000004000000
B0601393207319S11655345EA0122501295000004000000
B0601433207307S11655268EA0121101284000004000000
B0601473207293S11655189EA0120601280000004000000
B0601513207277S11655110EA0120601281000004000000
B0601553207260S11655032EA0120401279000004000000
B0601593207243S11654955EA0120401279000004000000
B0602033207224S11654880EA0121001288000004000000
B0602073207200S11654811EA0121601294000004000000
B0602113207169S11654746EA0122201299000004000000
B0602153207120S11654695EA0122301301000004000000
B0602193207053S11654682EA0123001309000004000000
B0602233206999S11654719EA0123701315000004000000
B0602273206981S11654784EA0124001316000004000000
B0602313207000S11654847EA0123701313000004000000
B0602353207047S11654898EA0123501312000004000000
B0602393207100S11654936EA0123801317000004000000
B0602433207156S11654964EA0124301322000004000000
B0602473207213S11654985EA0125001329000004000000
B0602513207272S11654989EA0125501332000004000000
B0602553207324S11654966EA0125201325000004000000
B0602593207364S11654916EA0123801310000004000000
B0603033207394S11654850EA0122401297000004000000
B0603073207411S11654769EA0121101286000004000000
B0603113207420S11654685EA0119901273000004000000
B0603153207430S11654595EA0118801258000004000000
B0603193207443S11654505EA0117401248000004000000
B0603233207458S11654414EA0116401238000004000000
B0603273207467S11654326EA0116001240000004000000
B0603313207479S11654243EA0116801246000004000000
B0603353207493S11654165EA0117301250000004000000
B0603393207505S11654089EA0116901247000004000000
B0603433207508S11654014EA0117201249000004000000
B0603473207506S11653939EA0116901244000004000000
B0603513207492S11653864EA0116701243000004000000
B0603553207471S11653794EA0116601244000004000000
B0603593207445S11653728EA0116601241000004000000
B0604033207411S11653664EA0116201236000004000000
B0604073207363S11653610EA0115401228000004000000
B0604113207300S11653569EA0115101226000004000000
B0604153207229S11653556EA0115201227000004000000
B0604193207156S11653578EA0114501218000004000000
B0604233207085S11653620EA0114601225000004000000
B0604273207017S11653660EA0115301232000004000000
B0604313206948S11653693EA0115201228000004000000
B0604353206875S11653719EA0115101228000004000000
B0604393206804S11653742EA0115501233000004000000
B0604433206739S11653775EA0115701232000004000000
B0604473206676S11653815EA0115101223000004000000
B0604513206628S11653879EA0114201217000004000000
B0604553206622S11653962EA0113601214000004000000
B0604593206648S11654039EA0113601214000004000000
B0605033206687S11654104EA0113601215000004000000
B0605073206730S11654165EA0113601214000004000000
B0605113206770S11654228EA0113601214000004000000
B0605153206812S11654292EA0113601219000004000000
B0605193206852S11654351EA0114601227000004000000
B0605233206888S11654408EA0114601225000004000000
B0605273206920S11654469EA0113801215000004000000
B0605313206953S11654534EA0113001211000004000000
B0605353206985S11654602EA0113001214000004000000
B0605393207012S11654669EA0113301213000004000000
B0605433207039S11654737EA0113001208000004000000
B0605473207069S11654804EA0112801210000004000000
B0605513207092S11654876EA0113301215000004000000
B0605553207108S11654946EA0113701219000004000000
B0605593207118S11655019EA0113901219000004000000
B0606033207128S11655094EA0114101224000004000000
B0606073207133S11655172EA0114201224000004000000
B0606113207128S11655250EA0114101219000004000000
B0606153207121S11655330EA0113401212000004000000
B0606193207117S11655411EA0112801207000004000000
B0606233207113S11655495EA0112601208000004000000
B0606273207109S11655578EA0112601206000004000000
B0606313207104S11655660EA0111901198000004000000
B0606353207099S11655743EA0111001193000004000000
B0606393207094S11655824EA0110601187000004000000
B0606433207095S11655905EA0110101183000004000000
B0606473207102S11655987EA0109601174000004000000
B0606513207109S11656074EA0108501163000004000000
B0606553207116S11656163EA0107601157000004000000
B0606593207124S11656249EA0107801162000004000000
B0607033207133S11656332EA0108201166000004000000
B0607073207142S11656412EA0108501167000004000000
B0607113207148S11656492EA0108801171000004000000
B0607153207156S11656567EA0109701183000004000000
B0607193207164S11656639EA0110701196000004000000
B0607233207182S11656705EA0112001200000004000000
B0607273207239S11656726EA0112401211000004000000
B0607313207272S11656676EA0113901226000004000000
B0607353207246S11656618EA0114801231000004000000
B0607393207190S11656615EA0115301236000004000000
B0607433207157S11656667EA0115601237000004000000
B0607473207176S11656734EA0115401235000004000000
B0607513207229S11656752EA0116801250000004000000
B0607553207255S11656704EA0117701259000004000000
B0607593207224S11656650EA0117401256000004000000
B0608033207167S11656641EA0117701263000004000000
B0608073207118S11656675EA0118601270000004000000
B0608113207104S11656737EA0119101275000004000000
B0608153207142S11656782EA0119301277000004000000
B0608193207187S11656753EA0119301278000004000000
B0608233207177S11656689EA0119601281000004000000
B0608273207121S11656666EA0120901296000004000000
B0608313207072S11656693EA0122201308000004000000
B0608353207052S11656752EA0122701310000004000000
B0608393207069S11656819EA0121701297000004000000
B0608433207100S11656895EA0121001292000004000000
B0608473207135S11656975EA0120601287000004000000
B0608513207173S11657057EA0119901279000004000000
B0608553207211S11657140EA0119001271000004000000
B0608593207247S11657226EA0118201265000004000000
B0609033207285S11657311EA0118301269000004000000
B0609073207319S11657391EA0119001272000004000000
B0609113207352S11657469EA0119201276000004000000
B0609153207389S11657547EA0119701279000004000000
B0609193207424S11657624EA0119301273000004000000
B0609233207459S11657703EA0118801270000004000000
B0609273207497S11657775EA0118901270000004000000
B0609313207533S11657845EA0118301260000004000000
B0609353207570S11657924EA0116901248000004000000
B0609393207603S11658006EA0116101242000004000000
B0609433207636S11658089EA0115701237000004000000
B0609473207668S11658173EA0115301234000004000000
B0609513207703S11658253EA0114801230000004000000
B0609553207739S11658331EA0114501225000004000000
B0609593207774S11658411EA0113901219000004000000
B0610033207807S11658492EA0113201212000004000000
B0610073207836S11658577EA0112601205000004000000
B0610113207865S11658665EA0111401191000004000000
B0610153207895S11658760EA0109401172000004000000
B0610193207927S11658860EA0108301162000004000000
B0610233207960S11658960EA0107501155000004000000
B0610273207995S11659055EA0107601157000004000000
B0610313208034S11659139EA0108001162000004000000
B0610353208077S11659213EA0107801160000004000000
B0610393208123S11659284EA0107501155000004000000
B0610433208173S11659353EA0106901148000004000000
B0610473208222S11659425EA0106701149000004000000
B0610513208283S11659477EA0108101165000004000000
B0610553208335S11659456EA0110401190000004000000
B0610593208335S11659397EA0111101191000004000000
B0611033208282S11659378EA0111501198000004000000
B0611073208243S11659427EA0112101201000004000000
B0611113208255S11659496EA0112301205000004000000
B0611153208303S11659539EA0112501205000004000000
B0611193208363S11659540EA0113201214000004000000
B0611233208403S11659497EA0114201227000004000000
B0611273208395S11659434EA0115101235000004000000
B0611313208348S11659400EA0115701241000004000000
B0611353208292S11659406EA0117101255000004000000
B0611393208249S11659451EA0118101261000004000000
B0611433208231S11659518EA0118201262000004000000
B0611473208240S11659592EA0118501263000004000000
B0611513208275S11659652EA0118501261000004000000
B0611553208329S11659675EA0118201260000004000000
B0611593208382S11659660EA0118001258000004000000
B0612033208425S11659622EA0118101261000004000000
B0612073208459S11659575EA0118601267000004000000
B0612113208489S11659523EA0119201273000004000000
B0612153208511S11659465EA0119501275000004000000
B0612193208511S11659402EA0119601277000004000000
B0612233208485S11659347EA0119501272000004000000
B0612273208434S11659317EA0119201269000004000000
B0612313208378S11659335EA0118701262000004000000
B0612353208366S11659406EA0117901259000004000000
B0612393208399S11659479EA0117901262000004000000
B0612433208452S11659523EA0118801272000004000000
B0612473208499S11659487EA0119601279000004000000
B0612513208487S11659423EA0119501274000004000000
B0612553208429S11659412EA0119201270000004000000
B0612593208385S11659464EA0119601277000004000000
B0613033208387S11659534EA0119901283000004000000
B0613073208433S11659570EA0121101291000004000000
B0613113208495S11659560EA0120301281000004000000
B0613153208563S11659529EA0119201267000004000000
B0613193208639S11659490EA0117401247000004000000
B0613233208717S11659447EA0115801237000004000000
B0613273208797S11659404EA0115001230000004000000
B0613313208871S11659362EA0116101246000004000000
B0613353208938S11659318EA0116901253000004000000
B0613393208984S11659259EA0118501265000004000000
B0613433208974S11659192EA0119501278000004000000
B0613473208920S11659176EA0120101276000004000000
B0613513208872S11659231EA0119101265000004000000
B0613553208883S11659317EA0118701267000004000000
B0613593208929S11659383EA0119301274000004000000
B0614033208990S11659425EA0120001280000004000000
B0614073209057S11659432EA0119901279000004000000
B0614113209123S11659422EA0119801276000004000000
B0614153209193S11659402EA0118301257000004000000
B0614193209271S11659383EA0116201235000004000000
B0614233209351S11659361EA0115001230000004000000
B0614273209425S11659341EA0114901228000004000000
B0614313209496S11659314EA0114301219000004000000
B0614353209570S11659282EA0113101209000004000000
B0614393209646S11659252EA0113101212000004000000
B0614433209718S11659226EA0113401215000004000000
B0614473209789S11659206EA0113401216000004000000
B0614513209856S11659188EA0113201209000004000000
B0614553209925S11659166EA0112001200000004000000
B0614593209993S11659142EA0111501192000004000000
B0615033210062S11659118EA0110701187000004000000
B0615073210131S11659096EA0110201182000004000000
B0615113210201S11659074EA0109201171000004000000
B0615153210274S11659049EA0108201159000004000000
B0615193210348S11659024EA0107301155000004000000
B0615233210419S11658997EA0107101152000004000000
B0615273210487S11658971EA0106801148000004000000
B0615313210553S11658940EA0106201143000004000000
B0615353210619S11658907EA0105601137000004000000
B0615393210684S11658872EA0104801127000004000000
B0615433210755S11658840EA0103901115000004000000
B0615473210827S11658803EA0102401103000004000000
B0615513210900S11658760EA0102001103000004000000
B0615553210972S11658716EA0102201105000004000000
B0615593211031S11658669EA0103801121000004000000
B0616033211077S11658613EA0104301124000004000000
B0616073211133S11658570EA0104301121000004000000
B0616113211200S11658542EA0103801118000004000000
B0616153211268S11658513EA0104001122000004000000
B0616193211336S11658481EA0103901120000004000000
B0616233211402S11658447EA0103701115000004000000
B0616273211467S11658408EA0103401116000004000000
B0616313211532S11658366EA0103501115000004000000
B0616353211596S11658325EA0103301112000004000000
B0616393211662S11658279EA0103201109000004000000
B0616433211723S11658227EA0102501105000004000000
B0616473211778S11658165EA0102701108000004000000
B0616513211827S11658104EA0103701119000004000000
B0616553211869S11658041EA0104301126000004000000
B0616593211899S11657970EA0105001134000004000000
B0617033211880S11657901EA0105901144000004000000
B0617073211821S11657901EA0107001151000004000000
B0617113211789S11657967EA0107401154000004000000
B0617153211821S11658030EA0108601169000004000000
B0617193211879S11658028EA0110201185000004000000
B0617233211909S11657972EA0111201194000004000000
B0617273211884S11657915EA0111901201000004000000
B0617313211831S11657917EA0112601208000004000000
B0617353211809S11657978EA0113001214000004000000
B0617393211849S11658027EA0113801222000004000000
B0617433211906S11658009EA0115101238000004000000
B0617473211922S11657949EA0116101247000004000000
B0617513211887S11657904EA0116801250000004000000
B0617553211832S11657913EA0117401257000004000000
B0617593211814S11657972EA0118101263000004000000
B0618033211854S11658019EA0118501269000004000000
B0618073211912S11658005EA0119501279000004000000
B0618113211938S11657946EA0120001284000004000000
B0618153211912S11657891EA0120601289000004000000
B0618193211857S11657889EA0120901290000004000000
B0618233211824S11657941EA0121501297000004000000
B0618273211844S11658004EA0121901301000004000000
B0618313211901S11657998EA0122301311000004000000
B0618353211912S11657937EA0124001328000004000000
B0618393211871S11657904EA0124301326000004000000
B0618433211822S11657930EA0124201325000004000000
B0618473211806S11657993EA0124701331000004000000
B0618513211837S11658048EA0125301337000004000000
B0618553211893S11658066EA0125701338000004000000
B0618593211951S11658047EA0126101343000004000000
B0619033212004S11658014EA0126301345000004000000
B0619073212058S11657978EA0126301343000004000000
B0619113212116S11657937EA0125101329000004000000
B0619153212178S11657898EA0124901325000004000000
B0619193212243S11657861EA0124301320000004000000
B0619233212313S11657841EA0123501309000004000000
B0619273212389S11657841EA0122701302000004000000
B0619313212463S11657850EA0122501304000004000000
B0619353212533S11657863EA0123301310000004000000
B0619393212602S11657875EA0123501309000004000000
B0619433212671S11657883EA0122801302000004000000
B0619473212744S11657891EA0121801290000004000000
B0619513212819S11657898EA0120901286000004000000
B0619553212893S11657907EA0120901282000004000000
B0619593212970S11657917EA0120301277000004000000
B0620033213045S11657928EA0120101275000004000000
B0620073213119S11657940EA0120001273000004000000
B0620113213192S11657949EA0119501271000004000000
B0620153213260S11657952EA0119601272000004000000
B0620193213325S11657949EA0119401270000004000000
B0620233213388S11657948EA0119001266000004000000
B0620273213451S11657946EA0118801261000004000000
B0620313213511S11657943EA0118001255000004000000
B0620353213566S11657932EA0117701250000004000000
B0620393213621S11657917EA0116701241000004000000
B0620433213677S11657894EA0115801233000004000000
B0620473213737S11657876EA0114601219000004000000
B0620513213799S11657862EA0113301210000004000000
B0620553213864S11657848EA0112901208000004000000
B0620593213929S11657833EA0112701207000004000000
B0621033213997S11657819EA0112401201000004000000
B0621073214067S11657802EA0111601195000004000000
B0621113214137S11657777EA0111701202000004000000
B0621153214198S11657741EA0112801208000004000000
B0621193214245S11657685EA0112501203000004000000
B0621233214278S11657615EA0111801197000004000000
B0621273214292S11657536EA0111201192000004000000
B0621313214283S11657452EA0110901189000004000000
B0621353214252S11657373EA0110401184000004000000
B0621393214209S11657295EA0110501187000004000000
B0621433214164S11657220EA0111201193000004000000
B0621473214119S11657150EA0111701198000004000000
B0621513214068S11657083EA0112101199000004000000
B0621553214019S11657017EA0112001195000004000000
B0621593213972S11656948EA0111401189000004000000
B0622033213925S11656879EA0110801184000004000000
B0622073213876S11656810EA0110401181000004000000
B0622113213828S11656744EA0111001192000004000000
B0622153213781S11656683EA0111901196000004000000
B0622193213738S11656624EA0112301204000004000000
B0622233213696S11656568EA0113401213000004000000
B0622273213639S11656541EA0114101221000004000000
B0622313213587S11656583EA0114901230000004000000
B0622353213587S11656654EA0115501234000004000000
B0622393213634S11656696EA0115301231000004000000
B0622433213693S11656687EA0114801226000004000000
B0622473213729S11656630EA0115001231000004000000
B0622513213724S11656557EA0115701239000004000000
B0622553213682S11656501EA0116501250000004000000
B0622593213618S11656498EA0117501256000004000000
B0623033213590S11656561EA0118401264000004000000
B0623073213622S11656615EA0118401265000004000000
B0623113213683S11656611EA0118401267000004000000
B0623153213721S11656553EA0119501282000004000000
B0623193213713S11656484EA0121001297000004000000
B0623233213670S11656432EA0122001304000004000000
B0623273213608S11656419EA0122701307000004000000
B0623313213548S11656448EA0122801308000004000000
B0623353213509S11656509EA0123201314000004000000
B0623393213512S11656580EA0124001322000004000000
B0623433213551S11656630EA0124601329000004000000
B0623473213607S11656643EA0124801330000004000000
B0623513213670S11656635EA0124201324000004000000
B0623553213738S11656624EA0125001331000004000000
B0623593213806S11656614EA0125801339000004000000
B0624033213871S11656598EA0126501349000004000000
B0624073213928S11656566EA0127001346000004000000
B0624113213966S11656503EA0125901337000004000000
B0624153213969S11656424EA0125501334000004000000
B0624193213941S11656353EA0125501333000004000000
B0624233213888S11656310EA0125401333000004000000
B0624273213821S11656308EA0125501333000004000000
B0624313213755S11656336EA0125601331000004000000
B0624353213691S11656379EA0125701333000004000000
B0624393213631S11656422EA0126201340000004000000
B0624433213572S11656462EA0126601343000004000000
B0624473213509S11656509EA0126301337000004000000
B0624513213443S11656558EA0126001336000004000000
B0624553213377S11656604EA0126301340000004000000
B0624593213309S11656650EA0126001333000004000000
B0625033213239S11656698EA0125301329000004000000
B0625073213170S11656745EA0125101331000004000000
B0625113213105S11656795EA0125401334000004000000
B0625153213041S11656839EA0125801339000004000000
B0625193212978S11656879EA0126001338000004000000
B0625233212915S11656918EA0125201326000004000000
B0625273212853S11656961EA0124101316000004000000
B0625313212790S11657009EA0122801304000004000000
B0625353212725S11657060EA0122601309000004000000
B0625393212659S11657099EA0124401328000004000000
B0625433212595S11657137EA0124901328000004000000
B0625473212528S11657173EA0124401318000004000000
B0625513212459S11657213EA0123201307000004000000
B0625553212393S11657263EA0122501305000004000000
B0625593212333S11657315EA0122301304000004000000
B0626033212283S11657369EA0122801308000004000000
B0626073212239S11657430EA0122401305000004000000
B0626113212196S11657493EA0122401306000004000000
