ACAM4N6
HFDTE140815
HFFXA050
HFPLTPILOT:JOHN WELSH              
HFGTYGLIDERTYPE:HORNET      
HFGIDGLIDERID:VH-GMY      
HFDTM100GPSDATUM:
HFRFWFIRMWAREVERSION:F2.6
HFRHWHARDWAREVERSION:300 Series Version 2
HFFTYFRTYPE:CAMBRIDGE AERO INSTRUMENTS, 302+
HFGPS:GARMIN,LVS-25,12,18000
HFPRSPRESSALTSENSOR:INTERSEMA, MS5534-AP, 20000
I033638FXA3941ENL4247REX
LCAMSBVER:5FWVER:F26300
C050415050137050415000102
C0000000N00000000WTAKEOFF     
C3207549S11656849EBEVAIR      
C3123325S11712260EWATRCRRN    
C3212499S11757329EBILBARIN    
C3207549S11656849EBEVAIR      
C0000000N00000000WLANDING     
B0542323207735S11657094EA0013900213000004000000
B0542343207735S11657094EA0013900213000004000000
B0542363207735S11657094EA0014000213000000000000
B0542383207735S11657094EA0013900213000000000000
B0542403207735S11657094EA0013900213000004000000
B0542423207735S11657094EA0014000213000004000000
B0542443207735S11657094EA0014000213000004000000
B0542463207735S11657094EA0013900213000000000000
B0542483207735S11657094EA0013900213000004000000
B0542503207735S11657094EA0014000213000004000000
B0542523207735S11657094EA0013900213000004000000
B0542543207735S11657094EA0014000213000004000000
B0542563207735S11657094EA0013900213000004000000
B0542583207733S11657092EA0014000213000004000000
B0543003207732S11657092EA0014000213000004000000
B0543033207723S11657090EA0013900213000000000000
B0543073207696S11657079EA0013900213000004000000
B0543113207655S11657057EA0013800214000004000000
B0543153207602S11657025EA0013800214000004000000
B0543193207541S11656986EA0013600217000004000000
B0543233207477S11656948EA0014200224000000000000
B0543273207414S11656914EA0015500241000004000000
B0543313207354S11656883EA0017500259000004000000
B0543353207295S11656852EA0019200277000000000000
B0543393207239S11656822EA0021000298000004000000
B0543433207182S11656795EA0023300319000004000000
B0543473207128S11656758EA0024900336000004000000
B0543513207079S11656702EA0026000343000000000000
B0543553207050S11656631EA0027000357000000000000
B0543593207043S11656549EA0028500371000004000000
B0544033207061S11656470EA0029800385000004000000
B0544073207105S11656399EA0031100397000000000000
B0544113207170S11656349EA0032200407000004000000
B0544153207246S11656319EA0033400418000004000000
B0544193207325S11656316EA0034500430000004000000
B0544233207402S11656334EA0036100448000004000000
B0544273207475S11656362EA0038300469000004000000
B0544313207547S11656392EA0039700480000000000000
B0544353207622S11656422EA0040400492000004000000
B0544393207694S11656454EA0042000511000000000000
B0544433207762S11656494EA0044200530000000000000
B0544473207820S11656552EA0045700545000004000000
B0544513207859S11656624EA0047400563000000000000
B0544553207885S11656700EA0049600588000004000000
B0544593207909S11656775EA0052200613000000000000
B0545033207923S11656854EA0054100630000000000000
B0545073207922S11656935EA0055400644000004000000
B0545113207911S11657016EA0057100661000000000000
B0545153207895S11657091EA0059100680000004000000
B0545193207875S11657168EA0060700693000004000000
B0545233207857S11657244EA0061700709000000000000
B0545273207835S11657320EA0063400724000004000000
B0545313207814S11657393EA0064900742000000000000
B0545353207796S11657467EA0066500755000000000000
B0545393207779S11657541EA0068100773000000000000
B0545433207762S11657618EA0069500784000004000000
B0545473207746S11657696EA0070400797000004000000
B0545513207733S11657771EA0072400817000004000000
B0545553207719S11657848EA0073900831000000000000
B0545593207703S11657922EA0075300844000000000000
B0546033207688S11657996EA0076600858000000000000
B0546073207671S11658070EA0078000874000000000000
B0546093207653S11658141EA0079700889000000000000
B0546133207624S11658208EA0080900901000000000000
B0546173207580S11658257EA0082300914000004000000
B0546213207525S11658288EA0083700927000000000000
B0546253207468S11658299EA0085500944000000000000
B0546293207412S11658290EA0087200959000000000000
B0546333207356S11658265EA0088500972000000000000
B0546373207308S11658223EA0089900986000000000000
B0546413207272S11658164EA0091101001000000000000
B0546453207255S11658091EA0092601015000000000000
B0546493207260S11658009EA0093801027000004000000
B0546533207287S11657928EA0095301042000000000000
B0546573207333S11657854EA0096701056000004000000
B0547013207397S11657794EA0098301071000000000000
B0547053207473S11657751EA0099801087000000000000
B0547093207559S11657735EA0101501101000000000000
B0547133207649S11657748EA0102701113000004000000
B0547173207736S11657785EA0103901125000000000000
B0547213207810S11657846EA0105001135000004000000
B0547253207884S11657887EA0105801142000004000000
B0547293207958S11657883EA0105801140000004000000
B0547333208014S11657837EA0105401137000004000000
B0547373208041S11657776EA0105601138000004000000
B0547413208043S11657718EA0105501138000000000000
B0547453208026S11657670EA0105501137000004000000
B0547493208000S11657632EA0105301136000000000000
B0547533207969S11657602EA0105301136000000000000
B0547573207936S11657581EA0105101135000000000000
B0548013207901S11657568EA0105101135000000000000
B0548053207867S11657556EA0105201135000000000000
B0548093207835S11657545EA0105101132000004000000
B0548133207801S11657534EA0104701128000004000000
B0548173207766S11657527EA0104501127000004000000
B0548213207732S11657521EA0104201124000004000000
B0548253207696S11657517EA0103901121000000000000
B0548293207661S11657515EA0103701119000004000000
B0548333207627S11657512EA0103401116000000000000
B0548373207593S11657506EA0103101112000000000000
B0548413207559S11657495EA0102801109000000000000
B0548453207527S11657480EA0102401106000000000000
B0548493207495S11657462EA0102201103000004000000
B0548533207467S11657439EA0101801099000004000000
B0548573207437S11657416EA0101301094000000000000
B0549013207407S11657393EA0101001090000004000000
B0549053207376S11657371EA0100501086000004000000
B0549093207346S11657348EA0100201082000004000000
B0549133207315S11657325EA0099701077000004000000
B0549173207285S11657300EA0099301073000004000000
B0549213207255S11657276EA0098901068000004000000
B0549253207225S11657251EA0098401062000000000000
B0549293207194S11657229EA0098001058000004000000
B0549333207163S11657209EA0097701055000000000000
B0549373207130S11657190EA0097101050000000000000
B0549413207096S11657168EA0096501042000000000000
B0549453207063S11657144EA0096101038000000000000
B0549493207030S11657120EA0095901035000000000000
B0549533207001S11657091EA0095501031000000000000
B0549573206983S11657051EA0095301028000000000000
B0550013206979S11657001EA0094901023000004000000
B0550053206985S11656947EA0094001015000004000000
B0550093207000S11656890EA0093301010000004000000
B0550133207026S11656835EA0092901005000004000000
B0550173207060S11656783EA0092500998000004000000
B0550213207104S11656737EA0091600989000004000000
B0550253207159S11656702EA0091000985000004000000
B0550293207219S11656679EA0090500979000004000000
B0550333207284S11656669EA0089800972000000000000
B0550373207350S11656669EA0089400969000000000000
B0550413207414S11656675EA0089200966000000000000
B0550453207477S11656687EA0088700961000000000000
B0550493207540S11656705EA0088400958000004000000
B0550533207599S11656730EA0088000955000004000000
B0550573207659S11656758EA0087700952000000000000
B0551013207718S11656789EA0087400949000000000000
B0551053207775S11656822EA0087200947000004000000
B0551093207830S11656857EA0086900944000000000000
B0551133207884S11656895EA0086700941000004000000
B0551173207936S11656935EA0086500940000004000000
B0551213207987S11656978EA0086500939000004000000
B0551253208036S11657021EA0086400938000000000000
B0551293208086S11657065EA0086300937000004000000
B0551333208132S11657108EA0086200936000004000000
B0551373208182S11657152EA0085900934000000000000
B0551413208234S11657192EA0085800932000000000000
B0551453208288S11657231EA0085500929000004000000
B0551493208343S11657269EA0085200927000000000000
B0551533208400S11657307EA0085000924000000000000
B0551573208455S11657345EA0084700920000000000000
B0552013208506S11657390EA0084300917000004000000
B0552053208539S11657446EA0084000914000004000000
B0552093208550S11657506EA0083800911000004000000
B0552133208539S11657558EA0083500908000004000000
B0552173208512S11657593EA0083300907000000000000
B0552213208476S11657607EA0083200906000000000000
B0552253208438S11657605EA0083100905000004000000
B0552293208400S11657593EA0083000904000004000000
B0552333208365S11657577EA0083000904000004000000
B0552373208330S11657560EA0082900904000004000000
B0552413208295S11657545EA0082800903000004000000
B0552453208261S11657530EA0082700901000000000000
B0552493208227S11657515EA0082600900000000000000
B0552533208194S11657501EA0082400898000000000000
B0552573208160S11657489EA0082400896000000000000
B0553013208125S11657499EA0082100895000000000000
B0553053208106S11657546EA0082000893000000000000
B0553093208125S11657608EA0081500888000000000000
B0553133208171S11657657EA0081300888000000000000
B0553173208226S11657694EA0081300889000000000000
B0553213208281S11657728EA0081300888000000000000
B0553253208334S11657762EA0081100886000004000000
B0553293208386S11657800EA0081100886000000000000
B0553333208420S11657852EA0081100886000000000000
B0553373208429S11657907EA0080900880000000000000
B0553413208407S11657952EA0080200876000004000000
B0553453208369S11657961EA0079900872000004000000
B0553493208326S11657941EA0079300867000004000000
B0553533208287S11657909EA0079000865000004000000
B0553573208247S11657878EA0078600859000000000000
B0554013208205S11657846EA0077900852000000000000
B0554053208164S11657810EA0077200847000004000000
B0554093208122S11657774EA0076600841000004000000
B0554133208079S11657735EA0076100836000004000000
B0554173208040S11657689EA0076000834000000000000
B0554213208001S11657644EA0075600830000000000000
B0554253207958S11657603EA0075200826000000000000
B0554293207913S11657564EA0075000825000000000000
B0554333207872S11657514EA0074900824000000000000
B0554373207832S11657471EA0075100827000000000000
B0554413207792S11657498EA0075400828000004000000
B0554453207805S11657569EA0074800822000004000000
B0554493207870S11657607EA0074500821000004000000
B0554533207941S11657592EA0074600822000004000000
B0554573207986S11657534EA0074300819000004000000
B0555013207999S11657460EA0074200815000004000000
B0555053207987S11657390EA0073500810000000000000
B0555093207954S11657334EA0073100806000004000000
B0555133207909S11657299EA0072700802000004000000
B0555173207859S11657274EA0072500800000004000000
B0555213207810S11657255EA0072400799000004000000
B0555253207761S11657235EA0072300797000000000000
B0555293207709S11657226EA0072000793000000000000
B0555333207655S11657222EA0071600791000004000000
B0555373207606S11657217EA0071700792000000000000
B0555413207560S11657199EA0071600789000004000000
B0555453207520S11657166EA0071200784000000000000
B0555493207485S11657124EA0070500778000000000000
B0555533207458S11657073EA0070200775000004000000
B0555573207440S11657016EA0069700770000004000000
B0556013207425S11656955EA0069200763000004000000
B0556053207407S11656891EA0068300756000004000000
B0556093207391S11656822EA0067600749000004000000
B0556133207375S11656753EA0067200746000000000000
B0556173207349S11656692EA0067300751000004000000
B0556213207302S11656669EA0068100756000004000000
B0556253207268S11656710EA0068300756000004000000
B0556293207289S11656766EA0068500759000004000000
B0556333207343S11656769EA0068200756000000000000
B0556373207384S11656718EA0068200759000004000000
B0556413207376S11656656EA0068700764000004000000
B0556453207329S11656652EA0068700757000000000000
B0556493207315S11656709EA0068000755000004000000
B0556533207350S11656758EA0068400761000004000000
B0556573207406S11656761EA0068800761000000000000
B0557013207445S11656711EA0068900765000004000000
B0557053207432S11656656EA0069200768000004000000
B0557093207386S11656656EA0069100765000004000000
B0557133207376S11656714EA0068800765000004000000
B0557173207417S11656756EA0069100766000004000000
B0557213207471S11656732EA0069400772000004000000
B0557253207477S11656671EA0069500772000004000000
B0557293207434S11656648EA0069500772000004000000
B0557333207403S11656689EA0069500773000004000000
B0557373207432S11656743EA0069500771000004000000
B0557413207489S11656737EA0069400772000004000000
B0557453207523S11656680EA0069500773000004000000
B0557493207506S11656619EA0069600775000000000000
B0557533207462S11656597EA0069400770000000000000
B0557573207423S11656627EA0068700762000000000000
B0558013207410S11656685EA0068100758000000000000
B0558053207427S11656748EA0068000757000000000000
B0558093207471S11656791EA0068300761000000000000
B0558133207529S11656808EA0068000757000000000000
B0558173207589S11656796EA0067700753000004000000
B0558213207633S11656748EA0067000748000004000000
B0558253207644S11656683EA0066600743000004000000
B0558293207624S11656622EA0066400740000004000000
B0558333207576S11656615EA0066100737000004000000
B0558373207557S11656674EA0065900736000000000000
B0558413207590S11656730EA0065800736000000000000
B0558453207650S11656743EA0065900735000000000000
B0558493207706S11656711EA0065300728000000000000
B0558533207735S11656650EA0064900726000004000000
B0558573207727S11656587EA0064500722000000000000
B0559013207698S11656532EA0063800712000000000000
B0559053207666S11656477EA0063100706000000000000
B0559093207640S11656416EA0062800704000004000000
B0559133207614S11656353EA0062600703000004000000
B0559173207584S11656289EA0062100696000004000000
B0559213207536S11656255EA0062600707000004000000
B0559253207497S11656292EA0063800717000004000000
B0559293207501S11656353EA0064400717000004000000
B0559333207549S11656389EA0063600705000004000000
B0559373207606S11656364EA0063000704000004000000
B0559413207636S11656302EA0062500699000000000000
B0559453207633S11656230EA0062200699000000000000
B0559493207593S11656190EA0062700700000000000000
B0559533207549S11656220EA0062700702000000000000
B0559573207533S11656285EA0062600700000000000000
B0600013207573S11656334EA0062600698000000000000
B0600053207622S11656293EA0062400700000000000000
B0600093207610S11656227EA0062900708000000000000
B0600133207562S11656216EA0064000718000000000000
B0600173207533S11656262EA0064300717000000000000
B0600213207557S11656316EA0064200717000000000000
B0600253207611S11656316EA0064000714000000000000
B0600293207641S11656264EA0063900718000000000000
B0600333207622S11656212EA0064400723000000000000
B0600373207577S11656212EA0064900726000000000000
B0600413207558S11656266EA0064300718000000000000
B0600453207592S11656316EA0064300722000000000000
B0600493207644S11656305EA0064400718000000000000
B0600533207661S11656243EA0064000720000000000000
B0600573207625S11656212EA0064600722000000000000
B0601013207592S11656254EA0064300720000000000000
B0601053207611S11656308EA0064900728000004000000
B0601093207664S11656319EA0064900721000004000000
B0601133207703S11656267EA0064000718000000000000
B0601173207683S11656216EA0065000730000000000000
B0601213207644S11656237EA0065300728000000000000
B0601253207649S11656298EA0065300731000004000000
B0601293207703S11656316EA0065400731000004000000
B0601333207741S11656267EA0065300732000004000000
B0601373207718S11656217EA0065700737000004000000
B0601413207675S11656236EA0066000741000004000000
B0601453207670S11656297EA0066200742000004000000
B0601493207718S11656336EA0066500742000004000000
B0601533207770S11656310EA0066400744000004000000
B0601573207779S11656247EA0066500746000004000000
B0602013207741S11656215EA0066900747000000000000
B0602053207702S11656246EA0066900750000004000000
B0602093207713S11656306EA0067100750000004000000
B0602133207766S11656329EA0067100751000000000000
B0602173207813S11656290EA0067000748000000000000
B0602213207811S11656230EA0067300751000000000000
B0602253207770S11656201EA0067200747000000000000
B0602293207727S11656237EA0066800749000004000000
B0602333207727S11656306EA0066800745000004000000
B0602373207776S11656354EA0066500743000004000000
B0602413207840S11656347EA0066300744000004000000
B0602453207874S11656290EA0066500744000004000000
B0602493207867S11656224EA0066500743000004000000
B0602533207832S11656173EA0066600744000004000000
B0602573207781S11656182EA0066700743000004000000
B0603013207785S11656247EA0066900747000004000000
B0603053207841S11656273EA0066900745000004000000
B0603093207895S11656238EA0066800746000004000000
B0603133207911S11656173EA0066900748000000000000
B0603173207883S11656120EA0066900748000000000000
B0603213207833S11656128EA0067000749000000000000
B0603253207819S11656191EA0066800746000000000000
B0603293207858S11656242EA0067000751000004000000
B0603333207915S11656240EA0067600754000004000000
B0603373207952S11656189EA0067100748000004000000
B0603413207941S11656123EA0066600744000004000000
B0603453207893S11656094EA0066500745000004000000
B0603493207850S11656128EA0066800749000004000000
B0603533207858S11656191EA0067200749000000000000
B0603573207913S11656219EA0066700745000004000000
B0604013207967S11656184EA0066700748000000000000
B0604053207978S11656115EA0066600745000004000000
B0604093207941S11656065EA0066600747000004000000
B0604133207888S11656059EA0066800747000004000000
B0604173207849S11656099EA0066700747000000000000
B0604213207845S11656165EA0066500743000000000000
B0604253207888S11656216EA0066200740000000000000
B0604293207949S11656217EA0066300744000000000000
B0604333208001S11656176EA0066600747000004000000
B0604373208017S11656111EA0066700748000004000000
B0604413207986S11656063EA0066500748000004000000
B0604453207936S11656047EA0066100743000004000000
B0604493207882S11656039EA0065600740000000000000
B0604533207827S11656041EA0065500736000004000000
B0604573207776S11656047EA0065300733000004000000
B0605013207727S11656056EA0065000729000004000000
B0605053207677S11656068EA0064500722000004000000
B0605093207623S11656074EA0063800715000004000000
B0605133207568S11656080EA0063400712000004000000
B0605173207514S11656084EA0063300711000004000000
B0605213207462S11656081EA0063000708000004000000
B0605253207407S11656077EA0062600700000004000000
B0605293207352S11656077EA0061900694000004000000
B0605333207298S11656078EA0061300687000004000000
B0605373207245S11656068EA0060900684000004000000
B0605413207198S11656037EA0060800680000004000000
B0605453207154S11655995EA0060200675000004000000
B0605493207111S11655955EA0059500668000004000000
B0605533207063S11655922EA0058600658000000000000
B0605573207011S11655903EA0057500649000004000000
B0606013206955S11655903EA0056800638000000000000
B0606053206896S11655915EA0055700629000000000000
B0606093206838S11655934EA0055200622000000000000
B0606133206787S11655968EA0054600618000000000000
B0606173206743S11656016EA0054000612000000000000
B0606213206702S11656068EA0053700610000000000000
B0606253206661S11656120EA0053500609000000000000
B0606293206611S11656158EA0054000614000004000000
B0606333206556S11656177EA0054200616000004000000
B0606373206510S11656208EA0054200611000000000000
B0606413206524S11656272EA0053800609000000000000
B0606453206585S11656289EA0053900608000004000000
B0606493206635S11656246EA0053100599000004000000
B0606533206649S11656178EA0052300596000000000000
B0606573206634S11656113EA0051900592000000000000
B0607013206597S11656055EA0051800589000000000000
B0607053206545S11656013EA0051700591000000000000
B0607093206507S11656050EA0052900603000000000000
B0607133206540S11656100EA0052600599000000000000
B0607173206597S11656084EA0052400599000000000000
B0607213206611S11656020EA0052600601000004000000
B0607253206576S11655972EA0052400602000000000000
B0607293206526S11655972EA0052800605000004000000
B0607333206518S11656028EA0053200609000004000000
B0607373206567S11656061EA0053000605000004000000
B0607413206613S11656021EA0053000609000000000000
B0607453206589S11655970EA0053500614000000000000
B0607493206546S11655989EA0053600615000000000000
B0607533206553S11656047EA0053700614000000000000
B0607573206606S11656061EA0053600616000004000000
B0608013206640S11656013EA0053800618000000000000
B0608053206618S11655960EA0053600615000000000000
B0608093206570S11655954EA0053400615000000000000
B0608133206541S11656000EA0053700617000000000000
B0608173206565S11656056EA0053500611000004000000
B0608213206621S11656058EA0052900606000004000000
B0608253206657S11656003EA0052500605000000000000
B0608293206658S11655931EA0052100601000000000000
B0608333206626S11655874EA0052100601000000000000
B0608373206572S11655861EA0052100598000000000000
B0608413206519S11655887EA0051500592000000000000
B0608453206483S11655947EA0050600585000000000000
B0608493206453S11656015EA0050000577000000000000
B0608533206426S11656084EA0049600570000000000000
B0608573206402S11656152EA0048700564000000000000
B0609013206384S11656223EA0048500562000000000000
B0609053206370S11656293EA0048100558000000000000
B0609093206358S11656363EA0048000557000000000000
B0609133206346S11656433EA0047900554000000000000
B0609173206322S11656493EA0047900556000000000000
B0609213206293S11656553EA0047500550000004000000
B0609253206249S11656596EA0047100546000000000000
B0609293206201S11656633EA0046600540000000000000
B0609333206162S11656684EA0046500540000000000000
B0609373206125S11656743EA0046100537000000000000
B0609413206094S11656806EA0046400539000000000000
B0609453206117S11656874EA0046800545000000000000
B0609493206176S11656862EA0047000545000000000000
B0609533206180S11656797EA0047000544000004000000
B0609573206134S11656769EA0046900543000000000000
B0610013206086S11656796EA0046800541000000000000
B0610053206072S11656861EA0046700539000000000000
B0610093206107S11656914EA0046700538000004000000
B0610133206168S11656917EA0046200534000000000000
B0610173206220S11656879EA0046000533000004000000
B0610213206227S11656814EA0045900534000004000000
B0610253206188S11656771EA0045700532000004000000
B0610293206133S11656765EA0045600531000004000000
B0610333206104S11656813EA0046000537000004000000
B0610373206137S11656866EA0045700531000004000000
B0610413206194S11656900EA0045000526000004000000
B0610453206254S11656930EA0044900522000004000000
B0610493206314S11656962EA0044500519000004000000
B0610533206375S11656996EA0044500519000004000000
B0610573206437S11657021EA0044400516000000000000
B0611013206502S11657033EA0044200514000000000000
B0611053206563S11657046EA0044100512000000000000
B0611093206626S11657053EA0043600508000000000000
B0611133206684S11657029EA0044000512000004000000
B0611173206706S11656966EA0043900508000000000000
B0611213206666S11656930EA0043100503000004000000
B0611253206631S11656961EA0043700511000004000000
B0611293206643S11657013EA0043600505000004000000
B0611333206693S11657039EA0042700499000004000000
B0611373206753S11657023EA0042300496000000000000
B0611413206774S11656962EA0042300497000000000000
B0611453206739S11656918EA0041800492000000000000
B0611493206689S11656925EA0041300492000000000000
B0611533206676S11656977EA0041500493000000000000
B0611573206706S11657023EA0041300489000000000000
B0612013206762S11657034EA0040700484000004000000
B0612053206822S11657033EA0040300479000004000000
B0612093206882S11657056EA0039800472000000000000
B0612133206927S11657109EA0039300471000000000000
B0612173206966S11657170EA0039500472000000000000
B0612213207004S11657234EA0039600471000000000000
B0612253207040S11657295EA0039100462000004000000
B0612293207087S11657352EA0037900452000000000000
B0612333207137S11657408EA0037100445000004000000
B0612373207180S11657468EA0036500439000000000000
B0612413207221S11657528EA0036100434000000000000
B0612453207265S11657584EA0035200426000000000000
B0612493207312S11657641EA0034900423000000000000
B0612533207360S11657698EA0034600419000000000000
B0612573207412S11657750EA0033800410000004000000
B0613013207472S11657793EA0033100404000000000000
B0613053207536S11657827EA0032600398000000000000
B0613093207601S11657857EA0032200395000000000000
B0613133207667S11657883EA0031800391000000000000
B0613173207731S11657910EA0031600389000000000000
B0613213207794S11657939EA0031300387000000000000
B0613253207857S11657963EA0031100380000000000000
B0613293207926S11657971EA0030300376000004000000
B0613333207993S11657953EA0030300377000004000000
B0613373208053S11657917EA0030200376000004000000
B0613413208106S11657872EA0029900370000004000000
B0613453208161S11657827EA0029500364000004000000
B0613493208214S11657779EA0028800359000004000000
B0613533208264S11657723EA0028300352000004000000
B0613573208307S11657660EA0027800348000004000000
B0614013208338S11657592EA0027700348000004000000
B0614053208333S11657517EA0027200343000000000000
B0614093208298S11657463EA0025900329000000000000
B0614133208249S11657426EA0024100308000000000000
B0614173208197S11657397EA0022100290000000000000
B0614213208147S11657365EA0020800277000000000000
B0614253208096S11657332EA0019100256000004000000
B0614293208043S11657296EA0017200239000000000000
B0614333207989S11657264EA0016200227000004000000
B0614373207939S11657234EA0015000212000000000000
B0614413207889S11657203EA0013800205000000000000
B0614453207848S11657176EA0013600204000000000000
B0614493207813S11657152EA0013800204000004000000
B0614533207785S11657134EA0013800204000000000000
B0614573207768S11657118EA0014000204000000000000
B0615013207761S11657109EA0014100205000000000000
B0615053207759S11657107EA0014000205000000000000
B0615093207759S11657107EA0014100205000000000000
B0615133207759S11657107EA0014100205000000000000
B0615173207759S11657107EA0014100205000000000000
B0615213207759S11657107EA0014100205000000000000
B0615253207759S11657107EA0014100205000000000000
B0615293207759S11657107EA0014100205000000000000
G00030000006D3F5A3D0000000000000000000000000000000000000000000000
GAD62D949426295437CA505CC3B488806E9B53FAD00000000C725382BA4E5035A
G521F1BE02125BBFC2629870EE7A0503F90AA28BB000000000000000070876515
