ACAM4N6
HFDTE300515
HFFXA050
HFPLTPILOT:JOHN WELSH              
HFGTYGLIDERTYPE:HORNET      
HFGIDGLIDERID:VH-GMY      
HFDTM100GPSDATUM:
HFRFWFIRMWAREVERSION:F2.6
HFRHWHARDWAREVERSION:300 Series Version 2
HFFTYFRTYPE:CAMBRIDGE AERO INSTRUMENTS, 302+
HFGPS:GARMIN,LVS-25,12,18000
HFPRSPRESSALTSENSOR:INTERSEMA, MS5534-AP, 20000
I033638FXA3941ENL4247REX
LCAMSBVER:5FWVER:F26300
C050415050137050415000102
C0000000N00000000WTAKEOFF     
C3207549S11656849EBEVAIR      
C3123325S11712260EWATRCRRN    
C3212499S11757329EBILBARIN    
C3207549S11656849EBEVAIR      
C0000000N00000000WLANDING     
B0444223207339S11656861EA0011800212000000000000
B0444243207339S11656861EA0011800212000000000000
B0444263207339S11656861EA0011800212000000000000
B0444283207339S11656861EA0011800212000000000000
B0444303207339S11656861EA0011700212000000000000
B0444323207339S11656861EA0011800212000000000000
B0444343207339S11656861EA0011800211000000000000
B0444363207339S11656861EA0011800211000000000000
B0444383207339S11656861EA0011700211000000000000
B0444403207339S11656861EA0011800211000000000000
B0444423207339S11656861EA0011600211000000000000
B0444443207339S11656861EA0011700211000000000000
B0444463207339S11656861EA0011900211000000000000
B0444483207339S11656861EA0011800211000000000000
B0444503207342S11656862EA0011900211000000000000
B0444533207350S11656870EA0011800211000000000000
B0444573207377S11656891EA0011700210000000000000
B0445013207420S11656919EA0011600210000000000000
B0445053207479S11656955EA0011500211000000000000
B0445093207541S11656997EA0012100218000000000000
B0445133207603S11657040EA0013400235000000000000
B0445173207663S11657082EA0015100253000000000000
B0445213207723S11657118EA0016600272000000000000
B0445253207785S11657148EA0018600290000000000000
B0445293207848S11657177EA0020100305000000000000
B0445333207910S11657207EA0021500319000000000000
B0445373207973S11657241EA0022900337000000000000
B0445413208031S11657276EA0025300361000000000000
B0445453208088S11657312EA0027500385000000000000
B0445493208139S11657363EA0029700405000000000000
B0445533208178S11657428EA0031400419000000000000
B0445573208204S11657501EA0032800433000000000000
B0446013208220S11657577EA0034200447000000000000
B0446053208227S11657653EA0035900463000000000000
B0446093208231S11657724EA0037800483000000000000
B0446133208233S11657796EA0039600497000000000000
B0446173208233S11657868EA0041400518000000000000
B0446213208229S11657945EA0043200539000000000000
B0446253208221S11658026EA0044900555000000000000
B0446293208214S11658102EA0047000582000000000000
B0446333208209S11658173EA0049700609000000000000
B0446373208205S11658245EA0052300633000000000000
B0446413208201S11658322EA0054500653000000000000
B0446453208195S11658403EA0056700675000000000000
B0446493208186S11658485EA0058500694000000000000
B0446533208177S11658563EA0060800716000000000000
B0446573208171S11658638EA0062800737000000000000
B0447013208166S11658708EA0064700764000000000000
B0447053208161S11658777EA0067100783000000000000
B0447093208156S11658846EA0068800800000000000000
B0447133208147S11658919EA0070500815000000000000
B0447173208138S11658993EA0072000833000000000000
B0447213208135S11659068EA0073500845000000000000
B0447253208148S11659137EA0073600842000000000000
B0447293208158S11659210EA0073500845000000000000
B0447333208181S11659275EA0074100850000000000000
B0447373208229S11659313EA0074400853000000000000
B0447413208286S11659295EA0074100847000000000000
B0447453208307S11659226EA0073600842000000000000
B0447493208275S11659165EA0073300839000000000000
B0447533208220S11659144EA0073100837000000000000
B0447573208166S11659166EA0073000837000000000000
B0448013208127S11659214EA0073000839000000000000
B0448053208099S11659270EA0073000839000000000000
B0448093208074S11659331EA0072900836000000000000
B0448133208057S11659397EA0072100828000000000000
B0448173208040S11659462EA0072000826000000000000
B0448213208023S11659527EA0071500819000000000000
B0448253208004S11659592EA0070500811000000000000
B0448293207984S11659656EA0069900806000000000000
B0448333207963S11659721EA0069100797000000000000
B0448373207941S11659789EA0068300788000000000000
B0448413207918S11659857EA0067100778000000000000
B0448453207895S11659929EA0066100768000000000000
B0448493207870S11659999EA0065400761000000000000
B0448533207846S11700067EA0064900754000000000000
B0448573207820S11700134EA0064000744000000000000
B0449013207796S11700203EA0063100737000000000000
B0449053207768S11700271EA0062400731000000000000
B0449093207740S11700338EA0061800726000000000000
B0449133207711S11700406EA0061800727000000000000
B0449173207683S11700471EA0062200730000000000000
B0449213207654S11700532EA0062400731000000000000
B0449253207627S11700596EA0061800723000000000000
B0449293207599S11700661EA0061000714000000000000
B0449333207572S11700726EA0060200706000000000000
B0449373207545S11700792EA0059000694000000000000
B0449413207518S11700857EA0058300690000000000000
B0449453207490S11700920EA0057800681000000000000
B0449493207460S11700982EA0056900672000000000000
B0449533207430S11701044EA0055900663000000000000
B0449573207398S11701107EA0055300655000000000000
B0450013207365S11701169EA0054500649000000000000
B0450053207337S11701234EA0054000645000000000000
B0450093207312S11701302EA0054300648000000000000
B0450133207289S11701372EA0053700640000000000000
B0450173207265S11701438EA0053900641000000000000
B0450213207241S11701505EA0053400638000000000000
B0450253207216S11701573EA0053100636000000000000
B0450293207195S11701642EA0053200637000000000000
B0450333207198S11701716EA0053100636000000000000
B0450373207250S11701754EA0053400647000000000000
B0450413207299S11701718EA0054700655000000000000
B0450453207287S11701653EA0055100659000000000000
B0450493207233S11701637EA0055700667000000000000
B0450533207193S11701681EA0056100667000000000000
B0450573207207S11701748EA0056300671000000000000
B0451013207261S11701780EA0056700673000000000000
B0451053207319S11701761EA0057000678000000000000
B0451093207324S11701702EA0057800687000000000000
B0451133207278S11701702EA0058600694000000000000
B0451173207269S11701765EA0058700692000000000000
B0451213207320S11701806EA0058300689000000000000
B0451253207378S11701775EA0058700695000000015000
B0451293207390S11701707EA0058900696000000000000
B0451333207342S11701679EA0059500707000000000000
B0451373207312S11701731EA0060900719000000000000
B0451413207355S11701770EA0061700725000000000000
B0451453207389S11701731EA0062200729000000000000
B0451493207360S11701690EA0062500733000000000000
B0451533207320S11701718EA0063000739000000000000
B0451573207338S11701778EA0063600746000000000000
B0452013207390S11701781EA0064600753000000000000
B0452053207411S11701736EA0064600752000000000000
B0452093207381S11701696EA0064400754000000000000
B0452133207332S11701707EA0065000759000000000000
B0452173207328S11701770EA0065300764000000000000
B0452213207381S11701793EA0065700765000000000000
B0452253207417S11701748EA0066100770000000000000
B0452293207398S11701694EA0066300774000000000000
B0452333207350S11701693EA0067200784000000000000
B0452373207326S11701746EA0067800786000000000000
B0452413207352S11701801EA0068000785000000000000
B0452453207411S11701798EA0067500783000000000000
B0452493207424S11701739EA0068000788000000000000
B0452533207386S11701694EA0068400792000000000000
B0452573207334S11701706EA0069000798000000000000
B0453013207311S11701765EA0069200799000000000000
B0453053207345S11701818EA0069000795000000000000
B0453093207404S11701814EA0068300789000000000000
B0453133207455S11701771EA0068300794000000000000
B0453173207446S11701714EA0069500807000000000000
B0453213207401S11701722EA0070500814000000000000
B0453253207398S11701785EA0070100804000000000000
B0453293207454S11701815EA0070000807000000000000
B0453333207488S11701763EA0070300810000000000000
B0453373207456S11701706EA0070400816000000000000
B0453413207401S11701709EA0072000830000000000000
B0453453207377S11701765EA0072500831000000000000
B0453493207415S11701814EA0072400830000000000000
B0453533207475S11701802EA0072300830000000000000
B0453573207490S11701741EA0072600836000000000000
B0454013207454S11701693EA0073200841000000000000
B0454053207401S11701694EA0073800847000000000000
B0454093207368S11701748EA0074200848000000000000
B0454133207388S11701813EA0074000844000000000000
B0454173207446S11701835EA0073500839000000000000
B0454213207493S11701793EA0073900848000000000000
B0454253207480S11701739EA0074900857000000000000
B0454293207429S11701735EA0075100857000000000000
B0454333207406S11701791EA0074800854000000000000
B0454373207442S11701843EA0074800852000000000000
B0454413207502S11701867EA0074200848000000000000
B0454453207559S11701901EA0074800860000000000000
B0454493207612S11701927EA0075800866000000000000
B0454533207664S11701909EA0076100870000000000000
B0454573207676S11701848EA0076200870000000000000
B0455013207637S11701804EA0076000871000000000000
B0455053207583S11701815EA0076100869000000000000
B0455093207547S11701878EA0075700867000000000000
B0455133207528S11701953EA0076200871000000000000
B0455173207511S11702031EA0076200870000000000000
B0455213207498S11702110EA0076300875000000000000
B0455253207518S11702178EA0077500885000000000000
B0455293207579S11702191EA0078500894000000000000
B0455333207620S11702140EA0079400903000000000000
B0455373207602S11702079EA0080100911000000000000
B0455413207547S11702079EA0080600914000000000000
B0455453207520S11702139EA0080700914000000000000
B0455493207559S11702191EA0081000916000000000000
B0455533207619S11702175EA0081900927000000000000
B0455573207657S11702121EA0082300935000000000000
B0456013207638S11702058EA0083200943000000000000
B0456053207581S11702048EA0083700946000000000000
B0456093207545S11702101EA0084000948000000000000
B0456133207566S11702164EA0085000957000000000000
B0456173207624S11702174EA0085500963000000000000
B0456213207668S11702123EA0085900967000000000000
B0456253207657S11702053EA0086700976000000000000
B0456293207603S11702021EA0087000982000000000000
B0456333207545S11702048EA0087200981000000000000
B0456373207518S11702117EA0087500983000000000000
B0456413207550S11702179EA0088000989000000000000
B0456453207614S11702195EA0087800983000000000000
B0456493207666S11702147EA0087900989000000000000
B0456533207670S11702074EA0088700998000000000000
B0456573207619S11702044EA0089901010000000000000
B0457013207572S11702082EA0090201010000000000000
B0457053207562S11702157EA0089901005000000000000
B0457093207555S11702239EA0088200987000000000000
B0457133207544S11702327EA0086700968000000000000
B0457173207527S11702417EA0085000953000000000000
B0457213207507S11702507EA0084800956000000000000
B0457253207489S11702598EA0084800956000000000000
B0457293207475S11702689EA0085600966000000000000
B0457333207468S11702776EA0086400970000000000000
B0457373207498S11702847EA0087400984000000000000
B0457413207564S11702850EA0088000984000000000000
B0457453207602S11702782EA0087800986000000000000
B0457493207580S11702714EA0087900986000000000000
B0457533207525S11702711EA0087800981000000000000
B0457573207482S11702769EA0086600968000000000000
B0458013207459S11702847EA0086000966000000000000
B0458053207441S11702927EA0086000965000000000000
B0458093207427S11703009EA0085300958000000000000
B0458133207414S11703093EA0084900954000000000000
B0458173207401S11703175EA0084600955000000000000
B0458213207385S11703253EA0084900954000000000000
B0458253207372S11703327EA0085000956000000000000
B0458293207359S11703397EA0084900951000000000000
B0458333207350S11703469EA0084300945000000000000
B0458373207339S11703542EA0083600936000000000000
B0458413207334S11703617EA0082900928000000000000
B0458453207334S11703694EA0081800917000000000000
B0458493207332S11703772EA0080800909000000000000
B0458533207337S11703851EA0080300906000000000000
B0458573207347S11703929EA0080700913000000000000
B0459013207384S11703994EA0081000917000000000000
B0459053207446S11704024EA0081400919000000000000
B0459093207507S11703999EA0081700927000000000000
B0459133207518S11703937EA0083000939000000000000
B0459173207477S11703899EA0083100935000000000000
B0459213207427S11703919EA0082600930000000000000
B0459253207411S11703980EA0082000925000000000000
B0459293207432S11704045EA0081600922000000000000
B0459333207471S11704103EA0081100917000000000000
B0459373207516S11704153EA0080500909000000000000
B0459413207571S11704189EA0079400895000000000000
B0459453207633S11704211EA0078000886000000000000
B0459493207697S11704227EA0077500879000000000000
B0459533207762S11704225EA0077500883000000000000
B0459573207807S11704176EA0077800886000000000000
B0500013207806S11704102EA0077800884000000000000
B0500053207775S11704034EA0077600886000000000000
B0500093207733S11703977EA0077700886000000000000
B0500133207685S11703928EA0077800886000000000000
B0500173207632S11703881EA0077400881000000000000
B0500213207576S11703842EA0077600879000000000000
B0500253207523S11703804EA0077500877000000000000
B0500293207471S11703765EA0076700869000000000000
B0500333207421S11703721EA0075900863000000000000
B0500373207369S11703682EA0075800861000000000000
B0500413207311S11703648EA0075100854000000000000
B0500453207256S11703607EA0074700852000000000000
B0500493207209S11703559EA0074700850000000000000
B0500533207157S11703521EA0073800842000000000000
B0500573207100S11703492EA0073300836000000000000
B0501013207043S11703470EA0072500829000000000000
B0501053206985S11703451EA0071600819000000000000
B0501093206925S11703430EA0070500807000000000000
B0501133206864S11703410EA0069400794000000000000
B0501173206805S11703383EA0068400782000000000000
B0501213206771S11703321EA0067100771000000000000
B0501253206788S11703245EA0066100761000000000000
B0501293206838S11703187EA0065000749000000000000
B0501333206901S11703144EA0063900743000000000000
B0501373206965S11703104EA0064300747000000000000
B0501413206991S11703039EA0065800764000000000000
B0501453206943S11703011EA0067500777000000000000
B0501493206918S11703065EA0068200782000000000000
B0501533206956S11703111EA0068000779000000000000
B0501573207007S11703088EA0068400786000000000000
B0502013206987S11703029EA0069300796000000000000
B0502053206933S11703029EA0070000803000000000000
B0502093206912S11703088EA0070600809000000000000
B0502133206952S11703137EA0071100814000000000000
B0502173207005S11703118EA0071300817000000000000
B0502213207000S11703054EA0071900825000000000000
B0502253206949S11703040EA0072900836000000000000
B0502293206920S11703089EA0073600842000000000000
B0502333206946S11703150EA0074100847000000000000
B0502373207003S11703159EA0074500848000000000000
B0502413207037S11703109EA0074900857000000000000
B0502453207014S11703055EA0075700867000000000000
B0502493206966S11703055EA0076500872000000000000
B0502533206948S11703114EA0076900873000000000000
B0502573206983S11703170EA0077400883000000000000
B0503013207037S11703167EA0078300889000000000000
B0503053207068S11703122EA0078700896000000000000
B0503093207051S11703071EA0078900897000000000000
B0503133207000S11703067EA0079400901000000000000
B0503173206979S11703123EA0079700904000000000000
B0503213207017S11703175EA0080000907000000000000
B0503253207068S11703156EA0080500914000000000000
B0503293207074S11703100EA0081100920000000000000
B0503333207038S11703058EA0081300924000000000000
B0503373206991S11703066EA0082100933000000000000
B0503413206977S11703124EA0082300928000000000000
B0503453207022S11703172EA0081900928000000000000
B0503493207073S11703152EA0082700935000000000000
B0503533207077S11703093EA0083400944000000000000
B0503573207034S11703071EA0084300952000000000000
B0504013206998S11703111EA0084700955000000000000
B0504053207009S11703176EA0084600951000000000000
B0504093207060S11703209EA0084700955000000000000
B0504133207113S11703189EA0084900956000000000000
B0504173207137S11703132EA0085200961000000000000
B0504213207118S11703074EA0085400966000000000000
B0504253207068S11703054EA0086100973000000000000
B0504293207027S11703097EA0086500976000000000000
B0504333207038S11703165EA0086800978000000000000
B0504373207089S11703206EA0086400976000000000000
B0504413207148S11703191EA0086500979000000000000
B0504453207170S11703130EA0086800980000000000000
B0504493207143S11703071EA0087100983000000000000
B0504533207089S11703053EA0087200984000000000000
B0504573207038S11703084EA0088200992000000000000
B0505013207039S11703153EA0088200992000000000000
B0505053207087S11703205EA0087800988000000000000
B0505093207150S11703202EA0088000991000000000000
B0505133207195S11703159EA0088300994000000000000
B0505173207195S11703093EA0088500996000000000000
B0505213207151S11703053EA0088701001000000000000
B0505253207099S11703075EA0089701007000000000000
B0505293207087S11703140EA0090001009000000000000
B0505333207124S11703193EA0090101010000000000000
B0505373207181S11703189EA0090301015000000000000
B0505413207196S11703131EA0090101010000000000000
B0505453207157S11703081EA0089801010000000000000
B0505493207102S11703084EA0090401015000000000000
B0505533207069S11703139EA0090801016000000000000
B0505573207082S11703210EA0090401011000000000000
B0506013207135S11703256EA0089801007000000000000
B0506053207200S11703256EA0089901011000000000000
B0506093207251S11703215EA0090101012000000000000
B0506133207268S11703149EA0090301014000000000000
B0506173207248S11703088EA0090201015000000000000
B0506213207207S11703039EA0090501015000000000000
B0506253207152S11703046EA0090701019000000000000
B0506293207141S11703111EA0091401025000000000000
B0506333207187S11703156EA0091301023000000000000
B0506373207246S11703136EA0091601029000000000000
B0506413207272S11703078EA0092001033000000000000
B0506453207252S11703018EA0092501034000000000000
B0506493207202S11702989EA0093001041000000000000
B0506533207152S11703015EA0093901052000000000000
B0506573207154S11703076EA0095201063000000000000
B0507013207204S11703098EA0094901058000000000000
B0507053207247S11703050EA0094801057000000000000
B0507093207234S11702981EA0094701060000000000000
B0507133207180S11702962EA0095701071000000000000
B0507173207144S11703013EA0096901081000000000000
B0507213207174S11703065EA0098001093000000000000
B0507253207229S11703057EA0098501095000000000000
B0507293207258S11703000EA0098301096000000000000
B0507333207238S11702937EA0099201107000000000000
B0507373207185S11702925EA0100601119000000000000
B0507413207157S11702981EA0102001133000000000000
B0507453207193S11703031EA0103001141000000000000
B0507493207246S11703013EA0103001144000000000000
B0507533207264S11702949EA0103901156000000000000
B0507573207226S11702905EA0105301168000000000000
B0508013207174S11702922EA0106401178000000000000
B0508053207161S11702985EA0107701192000000000000
B0508093207203S11703027EA0109101203000000000000
B0508133207252S11703002EA0109601207000000000000
B0508173207261S11702938EA0109901214000000000000
B0508213207222S11702898EA0111201228000000000000
B0508253207170S11702919EA0112301236000000000000
B0508293207152S11702981EA0113701250000000000000
B0508333207183S11703039EA0114801261000000000000
B0508373207238S11703036EA0115401267000000000000
B0508413207265S11702981EA0116001272000000000000
B0508453207233S11702929EA0116601279000000000000
B0508493207176S11702936EA0118201291000000000000
B0508533207143S11702994EA0119101302000000000000
B0508573207159S11703065EA0119901312000000000000
B0509013207212S11703098EA0121001321000000000000
B0509053207263S11703068EA0121801331000000000000
B0509093207265S11703005EA0122501337000000000000
B0509133207220S11702967EA0123201346000000000000
B0509173207163S11702983EA0124301356000000000000
B0509213207133S11703046EA0125201361000000000000
B0509253207150S11703120EA0124801357000000000000
B0509293207209S11703162EA0125101364000000000000
B0509333207276S11703152EA0125601372000000000000
B0509373207312S11703094EA0126401378000000000000
B0509413207295S11703028EA0126801380000000000000
B0509453207237S11703002EA0127001385000000000000
B0509493207194S11703055EA0128301395000000000000
B0509533207211S11703127EA0128901401000000000000
B0509573207271S11703157EA0129301404000000000000
B0510013207326S11703122EA0129701410000000000000
B0510053207342S11703053EA0130201414000000000000
B0510093207315S11702990EA0130501422000000000000
B0510133207261S11702966EA0131401432000000000000
B0510173207204S11702990EA0132401437000000000000
B0510213207174S11703055EA0133101445000000000000
B0510253207202S11703117EA0134401459000000000000
B0510293207258S11703118EA0135101461000000000000
B0510333207287S11703066EA0135401468000000000000
B0510373207271S11703007EA0136301477000000000000
B0510413207220S11702985EA0137001483000000000000
B0510453207165S11703016EA0137601490000000000000
B0510493207139S11703084EA0138101492000000000000
B0510533207155S11703156EA0137801488000000000000
B0510573207208S11703198EA0137101482000000000000
B0511013207274S11703187EA0136801479000000000000
B0511053207329S11703141EA0137301487000000000000
B0511093207338S11703074EA0138301498000000000000
B0511133207299S11703029EA0139001504000000000000
B0511173207242S11703036EA0139501511000000000000
B0511213207219S11703100EA0140701519000000000000
B0511253207250S11703162EA0141001521000000000000
B0511293207308S11703193EA0141001521000000000000
B0511333207371S11703179EA0141001525000000000000
B0511373207415S11703128EA0141101522000000000000
B0511413207456S11703067EA0140801522000000000000
B0511453207499S11703005EA0141001524000000000000
B0511493207544S11702944EA0141101523000000000000
B0511533207589S11702884EA0141501530000000000000
B0511573207633S11702825EA0142301538000000000000
B0512013207672S11702767EA0143201548000000000000
B0512053207707S11702710EA0144301554000000000000
B0512093207713S11702649EA0144801557000000000000
B0512133207670S11702621EA0144801556000000000000
B0512173207632S11702662EA0144401549000000000000
B0512213207614S11702730EA0143801545000000000000
B0512253207602S11702801EA0144101551000000000000
B0512293207594S11702870EA0144601555000000000000
B0512333207589S11702938EA0145101560000000000000
B0512373207593S11703006EA0145701564000000000000
B0512413207624S11703066EA0146001568000000000000
B0512453207679S11703085EA0147001578000000000000
B0512493207724S11703058EA0147601581000000000000
B0512533207750S11703001EA0146701573000000000000
B0512573207778S11702933EA0145701566000000000000
B0513013207810S11702864EA0145801570000000000000
B0513053207846S11702799EA0146201573000000000000
B0513093207887S11702740EA0146201572000000000000
B0513133207934S11702682EA0146401572000000000000
B0513173207983S11702623EA0146301573000000000000
B0513213208032S11702563EA0146201571000000000000
B0513253208082S11702502EA0145901569000000000000
B0513293208131S11702442EA0145801565000000000000
B0513333208181S11702382EA0145401562000000000000
B0513373208226S11702320EA0145001556000000000000
B0513413208264S11702251EA0144601554000000000000
B0513453208295S11702181EA0144201548000000000000
B0513493208321S11702105EA0143901546000000000000
B0513533208342S11702027EA0144001549000000000000
B0513573208357S11701948EA0144001551000000000000
B0514013208361S11701871EA0144601555000000000000
B0514053208357S11701793EA0144701555000000000000
B0514093208340S11701719EA0144701556000000000000
B0514133208296S11701670EA0145201564000000000000
B0514173208243S11701666EA0146301573000000000000
B0514213208205S11701709EA0146401570000000000000
B0514253208214S11701775EA0146101566000000000000
B0514293208264S11701819EA0145801567000000000000
B0514333208331S11701831EA0145501565000000000000
B0514373208403S11701828EA0145301562000000000000
B0514413208474S11701818EA0144701555000000000000
B0514453208550S11701806EA0144401553000000000000
B0514493208621S11701792EA0144901554000000000000
B0514533208693S11701775EA0144301545000000000000
B0514573208767S11701755EA0143501535000000000000
B0515013208844S11701735EA0142201525000000000000
B0515053208923S11701713EA0141601519000000000000
B0515093209001S11701690EA0141401517000000000000
B0515133209076S11701664EA0140801512000000000000
B0515173209149S11701635EA0140901513000000000000
B0515213209218S11701602EA0140901512000000000000
B0515253209283S11701564EA0140801512000000000000
B0515293209345S11701523EA0140601511000000000000
B0515333209403S11701473EA0140901512000000000000
B0515373209418S11701404EA0141301515000000000000
B0515413209374S11701364EA0140601506000000000000
B0515453209326S11701397EA0140801508000000000000
B0515493209331S11701463EA0141001510000000000000
B0515533209375S11701521EA0140401505000000000000
B0515573209429S11701571EA0140201502000000000000
B0516013209484S11701620EA0139401494000000000000
B0516053209547S11701672EA0138101482000000000000
B0516093209607S11701726EA0137701479000000000000
B0516133209665S11701778EA0137401477000000000000
B0516173209713S11701844EA0136701471000000000000
B0516213209741S11701919EA0137201478000000000000
B0516253209742S11701995EA0137801485000000000000
B0516293209724S11702064EA0138401484000000000000
B0516333209699S11702131EA0137101471000000000000
B0516373209661S11702195EA0136301465000000000000
B0516413209612S11702248EA0135601459000000000000
B0516453209552S11702288EA0134701451000000000000
B0516493209484S11702314EA0133601439000000000000
B0516533209410S11702320EA0132701433000000000000
B0516573209340S11702309EA0133001439000000000000
B0517013209274S11702287EA0133701446000000000000
B0517053209214S11702257EA0134501452000000000000
B0517093209156S11702226EA0135001459000000000000
B0517133209102S11702248EA0136001464000000000000
B0517173209111S11702320EA0136301468000000000000
B0517213209169S11702344EA0136901476000000000000
B0517253209215S11702312EA0137101475000000000000
B0517293209231S11702252EA0137101479000000000000
B0517333209217S11702194EA0137601482000000000000
B0517373209172S11702162EA0136601472000000000000
B0517413209118S11702142EA0136101464000000000000
B0517453209057S11702127EA0135701465000000000000
B0517493208994S11702113EA0135701463000000000000
B0517533208931S11702100EA0136301473000000000000
B0517573208868S11702083EA0136901472000000000000
B0518013208827S11702031EA0136501473000000000000
B0518053208834S11701967EA0137401486000000000000
B0518093208892S11701965EA0138401493000000000000
B0518133208907S11702030EA0139201503000000000000
B0518173208866S11702073EA0140201507000000000000
B0518213208808S11702086EA0139601500000000000000
B0518253208747S11702093EA0139301498000000000000
B0518293208684S11702100EA0138401487000000000000
B0518333208616S11702106EA0137601480000000000000
B0518373208551S11702109EA0137801484000000000000
B0518413208489S11702116EA0138401491000000000000
B0518453208428S11702127EA0139301503000000000000
B0518493208385S11702173EA0140801516000000000000
B0518533208415S11702226EA0141801526000000000000
B0518573208463S11702197EA0142501534000000000000
B0519013208451S11702140EA0143601546000000000000
B0519053208398S11702134EA0144801557000000000000
B0519093208369S11702188EA0146301572000000000000
B0519133208398S11702240EA0147101577000000000000
B0519173208451S11702223EA0147501583000000000000
B0519213208464S11702162EA0148501596000000000000
B0519253208425S11702121EA0149501610000000000000
B0519293208373S11702139EA0150801622000000000000
B0519333208355S11702204EA0152101632000000000000
B0519373208386S11702257EA0153201644000000000000
B0519413208438S11702242EA0154001652000000000000
B0519453208451S11702183EA0155001664000000000000
B0519493208415S11702144EA0156501677000000000000
B0519533208361S11702168EA0156901678000000000000
B0519573208313S11702234EA0156101668000000000000
B0520013208269S11702317EA0154601652000000000000
B0520053208229S11702408EA0153701644000000000000
B0520093208192S11702503EA0152401631000000000000
B0520133208160S11702597EA0151901629000000000000
B0520173208129S11702688EA0151801624000000000000
B0520213208097S11702781EA0151001615000000000000
B0520253208064S11702875EA0149901607000000000000
B0520293208017S11702961EA0149701609000000000000
B0520333207961S11703032EA0151601630000000000000
B0520373207900S11703085EA0152701637000000000000
B0520413207835S11703124EA0153301640000000000000
B0520453207770S11703162EA0153101640000000000000
B0520493207706S11703201EA0152801633000000000000
B0520533207640S11703241EA0151601625000000000000
B0520573207575S11703280EA0151801626000000000000
B0521013207507S11703318EA0151501623000000000000
B0521053207442S11703356EA0151001618000000000000
B0521093207378S11703400EA0150301613000000000000
B0521133207315S11703449EA0149801605000000000000
B0521173207252S11703497EA0149701605000000000000
B0521213207193S11703546EA0149601605000000000000
B0521253207134S11703592EA0149701607000000000000
B0521293207073S11703635EA0149601605000000000000
B0521333207011S11703676EA0148901598000000000000
B0521373206946S11703711EA0148601595000000000000
B0521413206877S11703737EA0148101591000000000000
B0521453206804S11703754EA0147401584000000000000
B0521493206730S11703763EA0146701577000000000000
B0521533206656S11703765EA0146401573000000000000
B0521573206579S11703764EA0145801565000000000000
B0522013206504S11703757EA0145301561000000000000
B0522053206428S11703752EA0144801554000000000000
B0522093206353S11703747EA0144701554000000000000
B0522133206279S11703743EA0144201548000000000000
B0522173206206S11703741EA0144101549000000000000
B0522213206134S11703744EA0144401552000000000000
B0522253206071S11703770EA0144801557000000000000
B0522293206024S11703826EA0145601561000000000000
B0522333206038S11703899EA0146601572000000000000
B0522373206097S11703925EA0146601570000000000000
B0522413206150S11703889EA0146601573000000000000
B0522453206168S11703822EA0147201580000000000000
B0522493206143S11703764EA0147601584000000000000
B0522533206091S11703735EA0147401580000000000000
B0522573206029S11703720EA0147001575000000000000
B0523013205959S11703702EA0146301567000000000000
B0523053205889S11703689EA0145601561000000000000
B0523093205820S11703678EA0145301561000000000000
B0523133205752S11703661EA0145201558000000000000
B0523173205686S11703642EA0144401548000000000000
B0523213205618S11703617EA0143201539000000000000
B0523253205551S11703594EA0142601533000000000000
B0523293205483S11703569EA0142201527000000000000
B0523333205417S11703544EA0141601521000000000000
B0523373205349S11703522EA0140901513000000000000
B0523413205280S11703501EA0140101505000000000000
B0523453205210S11703479EA0139301499000000000000
B0523493205141S11703457EA0139201496000000000000
B0523533205070S11703442EA0138401488000000000000
B0523573204993S11703434EA0137501481000000000000
B0524013204918S11703430EA0136601471000000000000
B0524053204843S11703421EA0136201469000000000000
B0524093204773S11703405EA0136101465000000000000
B0524133204703S11703386EA0135701463000000000000
B0524173204637S11703360EA0135201456000000000000
B0524213204570S11703325EA0134401448000000000000
B0524253204503S11703289EA0133801443000000000000
B0524293204435S11703256EA0133201436000000000000
B0524333204366S11703222EA0132401428000000000000
B0524373204295S11703188EA0131901419000000000000
B0524413204223S11703154EA0130901410000000000000
B0524453204152S11703122EA0130401409000000000000
B0524493204082S11703093EA0130501412000000000000
B0524533204013S11703068EA0131201419000000000000
B0524573203946S11703048EA0131701420000000000000
B0525013203881S11703028EA0131501418000000000000
B0525053203813S11703009EA0130501407000000000000
B0525093203742S11702987EA0129501398000000000000
B0525133203672S11702963EA0129301396000000000000
B0525173203605S11702936EA0128901395000000000000
B0525213203538S11702907EA0128801392000000000000
B0525253203473S11702880EA0128301386000000000000
B0525293203407S11702853EA0127401376000000000000
B0525333203345S11702824EA0127301378000000000000
B0525373203287S11702793EA0127201377000000000000
B0525413203228S11702763EA0126701368000000000000
B0525453203169S11702729EA0126101364000000000000
B0525493203113S11702694EA0126101366000000000000
B0525533203057S11702659EA0125701359000000000000
B0525573203003S11702621EA0125201354000000000000
B0526013202956S11702568EA0124901354000000000000
B0526053202912S11702516EA0125601363000000000000
B0526093202857S11702517EA0126301367000000000000
B0526133202830S11702572EA0126501369000000000000
B0526173202849S11702633EA0126301367000000000000
B0526213202901S11702663EA0125701358000000000000
B0526253202961S11702649EA0124501348000000000000
B0526293203012S11702602EA0123501339000000000000
B0526333203062S11702545EA0122601331000000000000
B0526373203116S11702485EA0122301329000000000000
B0526413203157S11702417EA0122901335000000000000
B0526453203139S11702355EA0123601341000000000000
B0526493203088S11702361EA0123501336000000000000
B0526533203047S11702412EA0122601330000000000000
B0526573203008S11702467EA0122301326000000000000
B0527013202970S11702528EA0121501315000000000000
B0527053202935S11702598EA0120501308000000000000
B0527093202903S11702671EA0119901303000000000000
B0527133202873S11702745EA0119201296000000000000
B0527173202839S11702820EA0118401288000000000000
B0527213202796S11702886EA0118101287000000000000
B0527253202749S11702945EA0117801281000000000000
B0527293202700S11703000EA0117101270000000000000
B0527333202653S11703062EA0115901260000000000000
B0527373202602S11703123EA0115101251000000000000
B0527413202546S11703179EA0114301243000000000000
B0527453202492S11703227EA0114101239000000000000
B0527493202436S11703265EA0113701236000000000000
B0527533202377S11703306EA0112601224000000000000
B0527573202321S11703354EA0112201224000000000000
B0528013202271S11703405EA0112101221000000000000
B0528053202230S11703465EA0112101221000000000000
B0528093202193S11703525EA0112001222000000000000
B0528133202169S11703594EA0111801219000000000000
B0528173202156S11703669EA0111401218000000000000
B0528213202134S11703742EA0111401219000000000000
B0528253202106S11703812EA0111701220000000000000
B0528293202080S11703882EA0111601219000000000000
B0528333202080S11703958EA0111701220000000000000
B0528373202120S11704012EA0111401217000000000000
B0528413202184S11704024EA0111201214000000000000
B0528453202250S11704012EA0110801212000000000000
B0528493202318S11703990EA0110901213000000000000
B0528533202384S11703964EA0111601226000000000000
B0528573202432S11703919EA0113001237000000000000
B0529013202410S11703867EA0113901244000000000000
B0529053202363S11703891EA0114901255000000000000
B0529093202368S11703955EA0116201266000000000000
B0529133202419S11703986EA0117001276000000000000
B0529173202467S11703951EA0117901286000000000000
B0529213202459S11703893EA0118701296000000000000
B0529253202411S11703885EA0119901308000000000000
B0529293202384S11703934EA0121301320000000000000
B0529333202402S11703995EA0122001328000000000000
B0529373202454S11704016EA0123001338000000000000
B0529413202500S11703978EA0123701344000000000000
B0529453202496S11703919EA0124801355000000000000
B0529493202450S11703902EA0126201369000000000000
B0529533202419S11703946EA0127401380000000000000
B0529573202437S11704004EA0127701385000000000000
B0530013202492S11704017EA0128201391000000000000
B0530053202528S11703967EA0128701398000000000000
B0530093202507S11703915EA0130101413000000000000
B0530133202459S11703917EA0131301424000000000000
B0530173202431S11703968EA0132701435000000000000
B0530213202451S11704027EA0133501442000000000000
B0530253202509S11704036EA0133801450000000000000
B0530293202542S11703989EA0134801461000000000000
B0530333202524S11703934EA0135801469000000000000
B0530373202476S11703932EA0136801480000000000000
B0530413202453S11703988EA0137701488000000000000
B0530453202475S11704047EA0138501497000000000000
B0530493202527S11704071EA0139601508000000000000
B0530533202576S11704046EA0140601516000000000000
B0530573202583S11703988EA0141401524000000000000
B0531013202540S11703960EA0141901530000000000000
B0531053202500S11703995EA0143101540000000000000
B0531093202505S11704058EA0143701545000000000000
B0531133202557S11704084EA0144201552000000000000
B0531173202601S11704043EA0144701562000000000000
B0531213202593S11703986EA0146101574000000000000
B0531253202548S11703971EA0146901581000000000000
B0531293202511S11704016EA0147301583000000000000
B0531333202522S11704081EA0147901590000000000000
B0531373202571S11704114EA0148601597000000000000
B0531413202626S11704098EA0149201603000000000000
B0531453202654S11704042EA0150001611000000000000
B0531493202637S11703981EA0150501619000000000000
B0531533202585S11703968EA0151501628000000000000
B0531573202554S11704019EA0152401632000000000000
B0532013202579S11704084EA0152501634000000000000
B0532053202639S11704106EA0153301647000000000000
B0532093202688S11704071EA0154501657000000000000
B0532133202701S11704008EA0155201664000000000000
B0532173202674S11703958EA0155801671000000000000
B0532213202623S11703955EA0156501676000000000000
B0532253202591S11704002EA0156801677000000000000
B0532293202598S11704069EA0156801681000000000000
B0532333202645S11704114EA0157701691000000000000
B0532373202701S11704103EA0158701702000000000000
B0532413202731S11704051EA0159901712000000000000
B0532453202721S11703990EA0160001713000000000000
B0532493202675S11703958EA0160001714000000000000
B0532533202619S11703968EA0159901713000000000000
B0532573202585S11704021EA0160401718000000000000
B0533013202597S11704089EA0160901724000000000000
B0533053202649S11704124EA0161501729000000000000
B0533093202700S11704095EA0162301738000000000000
B0533133202697S11704036EA0163101744000000000000
B0533173202654S11703993EA0163101743000000000000
B0533213202598S11703959EA0162601740000000000000
B0533253202540S11703924EA0162501736000000000000
B0533293202477S11703893EA0160901715000000000000
B0533333202405S11703861EA0157601686000000000000
B0533373202321S11703822EA0155401667000000000000
B0533413202249S11703785EA0157601695000000000000
B0533453202189S11703751EA0160201715000000000000
B0533493202133S11703725EA0161001720000000000000
B0533533202077S11703702EA0160301712000000000000
B0533573202025S11703668EA0159901708000000000000
B0534013201977S11703626EA0158701691000000000000
B0534053201912S11703596EA0156501669000000000000
B0534093201839S11703578EA0156201673000000000000
B0534133201770S11703564EA0156901674000000000000
B0534173201700S11703551EA0156101667000000000000
B0534213201627S11703536EA0155101655000000000000
B0534253201551S11703527EA0154201648000000000000
B0534293201473S11703517EA0153401639000000000000
B0534333201395S11703507EA0153101638000000000000
B0534373201319S11703495EA0153101636000000000000
B0534413201245S11703478EA0152701633000000000000
B0534453201172S11703460EA0152301628000000000000
B0534493201099S11703440EA0151601622000000000000
B0534533201028S11703413EA0151101617000000000000
B0534573200956S11703388EA0150801615000000000000
B0535013200888S11703366EA0150701616000000000000
B0535053200823S11703348EA0150901615000000000000
B0535093200758S11703330EA0150601612000000000000
B0535133200693S11703312EA0150201605000000000000
B0535173200628S11703295EA0149301594000000000000
B0535213200560S11703278EA0147901583000000000000
B0535253200492S11703256EA0147001576000000000000
B0535293200422S11703228EA0146301570000000000000
B0535333200356S11703200EA0145701563000000000000
B0535373200292S11703167EA0144801552000000000000
B0535413200228S11703132EA0144101546000000000000
B0535453200166S11703094EA0143701546000000000000
B0535493200106S11703055EA0143801546000000000000
B0535533200046S11703019EA0143801546000000000000
B0535573159987S11702988EA0143601543000000000000
B0536013159924S11702963EA0143101539000000000000
B0536053159863S11702940EA0143001540000000000000
B0536093159805S11702912EA0143001536000000000000
B0536133159744S11702885EA0142601534000000000000
B0536173159682S11702864EA0142701535000000000000
B0536213159619S11702858EA0142801537000000000000
B0536253159555S11702854EA0143301541000000000000
B0536293159494S11702872EA0143801549000000000000
B0536333159437S11702903EA0144301550000000000000
B0536373159382S11702940EA0144401550000000000000
B0536413159329S11702981EA0144201549000000000000
B0536453159277S11703027EA0144401549000000000000
B0536493159224S11703075EA0143801541000000000000
B0536533159161S11703117EA0143201534000000000000
B0536573159088S11703141EA0142001524000000000000
B0537013159010S11703153EA0141401519000000000000
B0537053158932S11703156EA0141001517000000000000
B0537093158857S11703150EA0140801514000000000000
B0537133158783S11703140EA0140601512000000000000
B0537173158711S11703127EA0140401508000000000000
B0537213158639S11703115EA0140001502000000000000
B0537253158566S11703106EA0139001496000000000000
B0537293158494S11703100EA0138701491000000000000
B0537333158425S11703096EA0138401488000000000000
B0537373158356S11703091EA0138001486000000000000
B0537413158291S11703087EA0138001485000000000000
B0537453158228S11703081EA0137901485000000000000
B0537493158167S11703078EA0137801482000000000000
B0537533158106S11703071EA0137401478000000000000
B0537573158043S11703061EA0137201478000000000000
B0538013157979S11703046EA0137501484000000000000
B0538053157921S11703050EA0138701497000000000000
B0538093157900S11703107EA0139901502000000000000
B0538133157943S11703152EA0140301505000000000000
B0538173157999S11703135EA0140501506000000000000
B0538213158021S11703078EA0140801514000000000000
B0538253158007S11703020EA0142001525000000000000
B0538293157968S11702985EA0142301526000000000000
B0538333157918S11702983EA0142701530000000000000
B0538373157887S11703033EA0143201536000000000000
B0538413157905S11703093EA0143701542000000000000
B0538453157959S11703109EA0144401551000000000000
B0538493158004S11703071EA0144901553000000000000
B0538533158013S11703006EA0145201559000000000000
B0538573157986S11702950EA0145601564000000000000
B0539013157935S11702933EA0146201569000000000000
B0539053157888S11702962EA0146401568000000000000
B0539093157866S11703024EA0146001564000000000000
B0539133157886S11703092EA0146501572000000000000
B0539173157939S11703123EA0147201582000000000000
B0539213157994S11703098EA0147901589000000000000
B0539253158013S11703035EA0148901599000000000000
B0539293157979S11702992EA0149901607000000000000
B0539333157931S11703010EA0150301607000000000000
B0539373157913S11703071EA0150301608000000000000
B0539413157948S11703127EA0150701613000000000000
B0539453158009S11703131EA0151501625000000000000
B0539493158056S11703087EA0152601633000000000000
B0539533158070S11703018EA0153001636000000000000
B0539573158038S11702966EA0153401641000000000000
B0540013157985S11702970EA0153801644000000000000
B0540053157947S11703019EA0153601642000000000000
B0540093157950S11703088EA0154001646000000000000
B0540133157990S11703143EA0154001647000000000000
B0540173158051S11703156EA0154901660000000000000
B0540213158081S11703100EA0156001670000000000000
B0540253158052S11703048EA0156701675000000000000
B0540293158000S11703055EA0157001678000000000000
B0540333157972S11703114EA0157001678000000000000
B0540373157995S11703178EA0157701690000000000000
B0540413158047S11703201EA0159401703000000000000
B0540453158098S11703182EA0159601705000000000000
B0540493158122S11703124EA0159801709000000000000
B0540533158109S11703063EA0160601714000000000000
B0540573158063S11703039EA0160601714000000000000
B0541013158017S11703075EA0160201709000000000000
B0541053158013S11703145EA0160401716000000000000
B0541093158064S11703180EA0162001733000000000000
B0541133158119S11703159EA0162901740000000000000
B0541173158146S11703101EA0163801750000000000000
B0541213158126S11703044EA0164401752000000000000
B0541253158078S11703022EA0164201751000000000000
B0541293158031S11703055EA0164401750000000000000
B0541333158025S11703124EA0164201750000000000000
B0541373158065S11703175EA0164901759000000000000
B0541413158122S11703166EA0166101771000000000000
B0541453158146S11703105EA0166601775000000000000
B0541493158115S11703053EA0166801775000000000000
B0541533158056S11703053EA0166301772000000000000
B0541573158013S11703104EA0166601774000000000000
B0542013158013S11703176EA0166901777000000000000
B0542053158061S11703219EA0168301794000000000000
B0542093158119S11703204EA0169301805000000000000
B0542133158146S11703144EA0170401812000000000000
B0542173158128S11703083EA0170701817000000000000
B0542213158077S11703045EA0170401807000000000000
B0542253158013S11703006EA0168201777000000000000
B0542293157943S11702954EA0166101761000000000000
B0542333157885S11702872EA0164501749000000000000
B0542373157846S11702775EA0164101746000000000000
B0542413157820S11702673EA0163501741000000000000
B0542453157796S11702574EA0163301740000000000000
B0542493157775S11702482EA0163001738000000000000
B0542533157756S11702391EA0162601731000000000000
B0542573157738S11702301EA0162001722000000000000
B0543013157723S11702209EA0160801711000000000000
B0543053157710S11702116EA0160201707000000000000
B0543093157700S11702022EA0159401698000000000000
B0543133157692S11701928EA0158801691000000000000
B0543173157680S11701836EA0158001683000000000000
B0543213157666S11701745EA0157601680000000000000
B0543253157649S11701657EA0157301678000000000000
B0543293157627S11701572EA0156901675000000000000
B0543333157602S11701489EA0156701670000000000000
B0543373157578S11701406EA0156201666000000000000
B0543413157552S11701325EA0156201666000000000000
B0543453157524S11701248EA0156301669000000000000
B0543493157495S11701176EA0156701673000000000000
B0543533157465S11701107EA0157101676000000000000
B0543573157436S11701037EA0157101674000000000000
B0544013157406S11700969EA0157201679000000000000
B0544053157381S11700899EA0157701687000000000000
B0544093157341S11700848EA0159001695000000000000
B0544133157287S11700875EA0159301696000000000000
B0544173157279S11700948EA0159401694000000000000
B0544213157324S11701003EA0159101691000000000000
B0544253157387S11701001EA0158701689000000000000
B0544293157431S11700949EA0158601689000000000000
B0544333157440S11700877EA0158801692000000000000
B0544373157417S11700806EA0158801691000000000000
B0544413157374S11700745EA0158101681000000000000
B0544453157320S11700683EA0157201672000000000000
B0544493157266S11700619EA0156101659000000000000
B0544533157210S11700549EA0154901648000000000000
B0544573157151S11700480EA0153701636000000000000
B0545013157093S11700410EA0152801629000000000000
B0545053157033S11700342EA0152401626000000000000
B0545093156977S11700276EA0152201622000000000000
B0545133156921S11700212EA0151101614000000000000
B0545173156865S11700151EA0150601608000000000000
B0545213156811S11700090EA0150101604000000000000
B0545253156757S11700030EA0149801598000000000000
B0545293156703S11659972EA0148901591000000000000
B0545333156650S11659912EA0148201583000000000000
B0545373156594S11659854EA0147601577000000000000
B0545413156542S11659799EA0147601579000000000000
B0545453156492S11659744EA0147101571000000000000
B0545493156443S11659687EA0146301561000000000000
B0545533156393S11659631EA0145401556000000000000
B0545573156344S11659574EA0144801550000000000000
B0546013156297S11659513EA0143801539000000000000
B0546053156253S11659448EA0143201534000000000000
B0546093156211S11659380EA0142601530000000000000
B0546133156169S11659318EA0142201526000000000000
B0546173156124S11659256EA0141801521000000000000
B0546213156081S11659193EA0141801522000000000000
B0546253156044S11659126EA0141901523000000000000
B0546293156003S11659063EA0142101523000000000000
B0546333155955S11659009EA0142501530000000000000
B0546373155896S11658986EA0143101532000000000000
B0546413155849S11659037EA0143601538000000000000
B0546453155862S11659111EA0144401549000000000000
B0546493155920S11659144EA0144301544000000000000
B0546533155980S11659119EA0143901541000000000000
B0546573156001S11659055EA0143801542000000000000
B0547013155971S11658997EA0144301546000000000000
B0547053155911S11658980EA0143601535000000000000
B0547093155840S11658968EA0142401525000000000000
B0547133155768S11658938EA0142201526000000000000
B0547173155702S11658899EA0142201519000000000000
B0547213155634S11658854EA0140401503000000000000
B0547253155564S11658807EA0139401497000000000000
B0547293155496S11658760EA0139201496000000000000
B0547333155430S11658712EA0139001492000000000000
B0547373155368S11658664EA0139301498000000000000
B0547413155308S11658612EA0139801509000000000000
B0547453155253S11658560EA0140301505000000000000
B0547493155197S11658507EA0139701502000000000000
B0547533155143S11658452EA0139801504000000000000
B0547573155086S11658398EA0139401497000000000000
B0548013155027S11658343EA0138501484000000000000
B0548053154965S11658288EA0137601478000000000000
B0548093154902S11658240EA0137001472000000000000
B0548133154837S11658193EA0136301464000000000000
B0548173154772S11658148EA0135501452000000000000
B0548213154706S11658102EA0134601447000000000000
B0548253154640S11658057EA0133901437000000000000
B0548293154573S11658010EA0133001430000000000000
B0548333154508S11657961EA0132301425000000000000
B0548373154445S11657911EA0132301424000000000000
B0548413154381S11657863EA0131701418000000000000
B0548453154316S11657814EA0131201411000000000000
B0548493154251S11657764EA0130601404000000000000
B0548533154185S11657716EA0129801399000000000000
B0548573154120S11657667EA0129601397000000000000
B0549013154055S11657618EA0129101393000000000000
B0549053153991S11657567EA0129101395000000000000
B0549093153931S11657516EA0129401400000000000000
B0549133153873S11657464EA0129901405000000000000
B0549173153812S11657416EA0131501421000000000000
B0549213153749S11657415EA0132701438000000000000
B0549253153727S11657480EA0134001449000000000000
B0549293153770S11657528EA0135101457000000000000
B0549333153827S11657516EA0135401462000000000000
B0549373153856S11657458EA0135601464000000000000
B0549413153839S11657391EA0136201472000000000000
B0549453153788S11657372EA0137301483000000000000
B0549493153757S11657416EA0138401488000000000000
B0549533153786S11657472EA0138101485000000000000
B0549573153840S11657467EA0138501491000000000000
B0550013153864S11657410EA0139001499000000000000
B0550053153827S11657365EA0139501503000000000000
B0550093153783S11657391EA0140001508000000000000
B0550133153788S11657452EA0141001516000000000000
B0550173153839S11657476EA0141201519000000000000
B0550213153881S11657439EA0142101530000000000000
B0550253153870S11657381EA0142701533000000000000
B0550293153821S11657365EA0142701533000000000000
B0550333153791S11657415EA0143501543000000000000
B0550373153818S11657468EA0144101545000000000000
B0550413153873S11657465EA0144201549000000000000
B0550453153897S11657407EA0144801556000000000000
B0550493153877S11657348EA0145201558000000000000
B0550533153826S11657308EA0144001541000000000000
B0550573153761S11657265EA0141901521000000000000
B0551013153693S11657222EA0140801514000000000000
B0551053153624S11657181EA0140601514000000000000
B0551093153558S11657142EA0140501510000000000000
B0551133153494S11657100EA0140401508000000000000
B0551173153432S11657059EA0140001503000000000000
B0551213153370S11657018EA0139701499000000000000
B0551253153307S11656982EA0139501495000000000000
B0551293153244S11656951EA0138901489000000000000
B0551333153179S11656923EA0138501485000000000000
B0551373153112S11656896EA0138101484000000000000
B0551413153049S11656873EA0138501488000000000000
B0551453152986S11656854EA0138801488000000000000
B0551493152925S11656830EA0139101491000000000000
B0551533152870S11656796EA0139501496000000000000
B0551573152818S11656756EA0138401483000000000000
B0552013152764S11656715EA0137501470000000000000
B0552053152712S11656667EA0136701465000000000000
B0552093152660S11656619EA0136201463000000000000
B0552133152604S11656578EA0135901457000000000000
B0552173152543S11656548EA0135701459000000000000
B0552213152480S11656527EA0136801472000000000000
B0552253152422S11656539EA0137601477000000000000
B0552293152423S11656609EA0137101469000000000000
B0552333152486S11656632EA0136701467000000000000
B0552373152532S11656584EA0138001485000000000000
B0552413152523S11656518EA0139401502000000000000
B0552453152474S11656497EA0140901514000000000000
B0552493152432S11656535EA0141501513000000000000
B0552533152439S11656600EA0141201511000000000000
B0552573152491S11656633EA0141201511000000000000
B0553013152544S11656605EA0142101523000000000000
B0553053152561S11656541EA0142901529000000000000
B0553093152521S11656492EA0142801530000000000000
B0553133152466S11656515EA0144101541000000000000
B0553173152464S11656579EA0144601544000000000000
B0553213152513S11656604EA0144701545000000000000
B0553253152557S11656562EA0145101552000000000000
B0553293152565S11656496EA0145401553000000000000
B0553333152525S11656448EA0146101564000000000000
B0553373152475S11656467EA0147001567000000000000
B0553413152469S11656533EA0146601562000000000000
B0553453152517S11656574EA0146601564000000000000
B0553493152573S11656555EA0147201570000000000000
B0553533152590S11656496EA0147101568000000000000
B0553573152545S11656453EA0147001569000000000000
B0554013152492S11656484EA0147401570000000000000
B0554053152483S11656555EA0147201569000000000000
B0554093152525S11656607EA0147401573000000000000
B0554133152581S11656604EA0148001579000000000000
B0554173152608S11656552EA0148001576000000000000
B0554213152590S11656487EA0147601574000000000000
B0554253152544S11656435EA0147301573000000000000
B0554293152493S11656385EA0147001567000000000000
B0554333152443S11656329EA0146201556000000000000
B0554373152389S11656275EA0146001555000000000000
B0554413152332S11656224EA0145401550000000000000
B0554453152271S11656182EA0145001545000000000000
B0554493152210S11656194EA0145601551000000000000
B0554533152189S11656256EA0145601547000000000000
B0554573152224S11656319EA0144101531000000000000
B0555013152285S11656383EA0143001526000000015000
B0555053152337S11656453EA0143501533000000000000
B0555093152376S11656528EA0144201538000000000000
B0555133152409S11656609EA0144201533000000000000
B0555173152456S11656680EA0143801529000000000000
B0555213152517S11656734EA0143501529000000000000
B0555253152586S11656778EA0142801522000000000000
B0555293152657S11656822EA0142801525000000000000
B0555333152724S11656861EA0144001536000000000000
B0555373152791S11656906EA0142801521000000000000
B0555413152860S11656957EA0141901513000000000000
B0555453152929S11657008EA0141201504000000000000
B0555493152998S11657056EA0141101507000000000000
B0555533153065S11657099EA0141001506000000000000
B0555573153133S11657138EA0140701500000000000000
B0556013153199S11657181EA0139801492000000000000
B0556053153264S11657226EA0139101484000000000000
B0556093153329S11657273EA0138501479000000000000
B0556133153393S11657320EA0137901471000000000000
B0556173153455S11657367EA0136701460000000000000
B0556213153520S11657413EA0135601447000000000000
B0556253153585S11657462EA0134801440000000000000
B0556293153649S11657510EA0133901431000000000000
B0556333153714S11657556EA0132901423000000000000
B0556373153780S11657605EA0131901411000000000000
B0556413153848S11657655EA0130901401000000000000
B0556453153914S11657706EA0130201394000000000000
B0556493153977S11657766EA0129401387000000000000
B0556533154038S11657822EA0129401390000000000000
B0556573154098S11657879EA0129401384000000000000
B0557013154159S11657933EA0129601390000000000000
B0557053154219S11657980EA0129201382000000000000
B0557093154282S11658031EA0128101369000000000000
B0557133154347S11658083EA0126801357000000000000
B0557173154412S11658139EA0125401342000000000000
B0557213154476S11658199EA0124801340000000000000
B0557253154534S11658264EA0124001331000000000000
B0557293154594S11658327EA0123101318000000000000
B0557333154653S11658394EA0121901304000000000000
B0557373154714S11658459EA0121101299000000000000
B0557413154772S11658520EA0120801292000000000000
B0557453154830S11658580EA0120201287000000000000
B0557493154888S11658638EA0119901279000000000000
B0557533154945S11658694EA0119201272000000000000
B0557573155004S11658749EA0118401263000000000000
B0558013155062S11658807EA0117601253000000000000
B0558053155118S11658867EA0116901247000000000000
B0558093155173S11658928EA0116601245000000000000
B0558133155227S11658989EA0115901237000000000000
B0558173155283S11659051EA0115201228000000000000
B0558213155339S11659114EA0114501222000000000000
B0558253155395S11659172EA0114701227000000000000
B0558293155451S11659227EA0114501219000000000000
B0558333155508S11659279EA0113801212000000000000
B0558373155571S11659326EA0113001202000000000000
B0558413155637S11659366EA0111901189000000000000
B0558453155703S11659412EA0110601174000000000000
B0558493155766S11659469EA0109201163000000000000
B0558533155827S11659523EA0109001158000000000000
B0558573155896S11659561EA0108301151000000000000
B0559013155971S11659579EA0107801148000000000000
B0559053156045S11659587EA0108101151000000000000
B0559093156113S11659569EA0108201150000000000000
B0559133156158S11659514EA0108201152000000000000
B0559173156144S11659449EA0108601154000000000000
B0559213156088S11659441EA0108201153000000000000
B0559253156036S11659484EA0107701149000000000000
B0559293155987S11659538EA0107401144000000000000
B0559333155941S11659596EA0107001143000000000000
B0559373155935S11659669EA0107201148000000000000
B0559413155981S11659712EA0106901140000000000000
B0559453156048S11659709EA0105301125000000000000
B0559493156119S11659690EA0104101116000000000000
B0559533156189S11659661EA0103701113000000000000
B0559573156256S11659627EA0103101108000000000000
B0600013156322S11659591EA0102501103000000000000
B0600053156386S11659551EA0102201103000000000000
B0600093156445S11659505EA0102201101000000000000
B0600133156478S11659439EA0103001107000000000000
B0600173156458S11659367EA0103301109000000000000
B0600213156395S11659358EA0104101120000000000000
B0600253156361S11659421EA0105401132000000000000
B0600293156400S11659475EA0105501130000000000000
B0600333156460S11659462EA0104501122000000000000
B0600373156486S11659396EA0104801125000000000000
B0600413156465S11659327EA0105101131000000000000
B0600453156404S11659306EA0104701129000000000000
B0600493156353S11659363EA0104301128000000000000
B0600533156354S11659448EA0104401130000000000000
B0600573156391S11659517EA0104701137000000000000
B0601013156448S11659501EA0105201141000000000000
B0601053156483S11659440EA0104801138000000000000
B0601093156490S11659369EA0105101141000000000000
B0601133156443S11659326EA0105201143000000000000
B0601173156383S11659350EA0105101140000000000000
B0601213156374S11659421EA0105001137000000000000
B0601253156431S11659457EA0104201129000000000000
B0601293156503S11659444EA0103501125000000000000
B0601333156574S11659414EA0103101126000000000000
B0601373156643S11659382EA0103201127000000000000
B0601413156711S11659349EA0103101127000000000000
B0601453156777S11659318EA0102601120000000000000
B0601493156845S11659285EA0101901113000000000000
B0601533156917S11659258EA0100801105000000000000
B0601573156989S11659231EA0100401104000000000000
B0602013157059S11659202EA0100301102000000000000
B0602053157127S11659172EA0100401106000000000000
B0602093157188S11659142EA0101801124000000000000
B0602133157241S11659107EA0103601132000000000000
B0602173157255S11659044EA0103701135000000000000
B0602213157207S11659032EA0104001133000000000000
B0602253157181S11659094EA0103201123000000000000
B0602293157207S11659166EA0102401118000000000000
B0602333157263S11659218EA0102501122000000000000
B0602373157327S11659207EA0103401134000000000000
B0602413157336S11659139EA0104301143000000000000
B0602453157284S11659116EA0104801145000000000000
B0602493157242S11659170EA0104301140000000000000
B0602533157257S11659245EA0104601147000000000000
B0602573157316S11659257EA0105601156000000000000
B0603013157353S11659201EA0106301164000000000000
B0603053157335S11659136EA0107001172000000000000
B0603093157279S11659124EA0107301170000000000000
B0603133157235S11659176EA0106701164000000000000
B0603173157244S11659253EA0107001172000000000000
B0603213157290S11659301EA0107801178000000000000
B0603253157352S11659279EA0108301183000000000000
B0603293157358S11659213EA0109101193000000000000
B0603333157309S11659198EA0110101200000000000000
B0603373157280S11659256EA0110101200000000000000
B0603413157316S11659310EA0110101204000000000000
B0603453157376S11659298EA0111101216000000000000
B0603493157392S11659233EA0112201224000000000000
B0603533157349S11659197EA0112701228000000000000
B0603573157298S11659231EA0112501226000000000000
B0604013157297S11659302EA0113001233000000000000
B0604053157345S11659344EA0113801238000000000000
B0604093157397S11659311EA0115101254000000000000
B0604133157388S11659248EA0116201265000000000000
B0604173157335S11659237EA0116101263000000000000
B0604213157300S11659293EA0115901262000000000000
B0604253157314S11659365EA0116301263000000000000
B0604293157371S11659410EA0116201267000000000000
B0604333157428S11659383EA0117801289000000000000
B0604373157411S11659321EA0119601303000000000000
B0604413157358S11659321EA0120401307000000000000
B0604453157337S11659382EA0121001315000000000000
B0604493157375S11659430EA0122301326000000000000
B0604533157424S11659404EA0123501336000000000000
B0604573157418S11659340EA0124201346000000000000
B0605013157366S11659331EA0124801350000000000000
B0605053157345S11659391EA0125601357000000000000
B0605093157385S11659440EA0126401364000000000000
B0605133157439S11659415EA0127301378000000000000
B0605173157441S11659352EA0128701393000000000000
B0605213157394S11659334EA0129901398000000000000
B0605253157366S11659386EA0130101402000000000000
B0605293157401S11659438EA0130701409000000000000
B0605333157456S11659421EA0132001424000000000000
B0605373157467S11659361EA0133701439000000000000
B0605413157427S11659330EA0134601447000000000000
B0605453157383S11659360EA0135201451000000000000
B0605493157383S11659425EA0135601456000000000000
B0605533157431S11659460EA0136601467000000000000
B0605573157483S11659436EA0137101471000000000000
B0606013157506S11659370EA0137401479000000000000
B0606053157482S11659309EA0138701496000000000000
B0606093157427S11659302EA0139801503000000000000
B0606133157396S11659358EA0140701509000000000000
B0606173157418S11659425EA0141101514000000000000
B0606213157478S11659441EA0142101526000000000000
B0606253157518S11659387EA0142801534000000000000
B0606293157491S11659326EA0143801545000000000000
B0606333157432S11659327EA0145001551000000000000
B0606373157398S11659388EA0145301557000000000000
B0606413157415S11659458EA0146101564000000000000
B0606453157471S11659473EA0147101574000000000000
B0606493157504S11659417EA0147701580000000000000
B0606533157475S11659356EA0148201587000000000000
B0606573157418S11659360EA0149301598000000000000
B0607013157396S11659419EA0150201602000000000000
B0607053157424S11659482EA0150201601000000000000
B0607093157485S11659509EA0150801609000000000000
B0607133157544S11659488EA0151601622000000000000
B0607173157565S11659427EA0152801630000000000000
B0607213157532S11659370EA0153001634000000000000
B0607253157470S11659367EA0153501638000000000000
B0607293157428S11659423EA0154201648000000000000
B0607333157443S11659492EA0155701658000000000000
B0607373157498S11659514EA0156401666000000000000
B0607413157544S11659471EA0157001673000000000000
B0607453157534S11659404EA0158201685000000000000
B0607493157484S11659388EA0159001696000000000000
B0607533157452S11659441EA0159601695000000000000
B0607573157480S11659504EA0159701701000000000000
B0608013157541S11659517EA0160601710000000000000
B0608053157587S11659474EA0161601719000000000000
B0608093157583S11659405EA0162101724000000000000
B0608133157534S11659379EA0163001736000000000000
B0608173157492S11659421EA0164001743000000000000
B0608213157496S11659488EA0164701749000000000000
B0608253157541S11659531EA0165401757000000000000
B0608293157597S11659517EA0165901762000000000000
B0608333157617S11659453EA0166401767000000000000
B0608373157582S11659402EA0166901773000000000000
B0608413157527S11659412EA0167701778000000000000
B0608453157501S11659473EA0168101784000000000000
B0608493157530S11659535EA0168401784000000000000
B0608533157586S11659584EA0167401775000000000000
B0608573157645S11659642EA0166401764000000000000
B0609013157708S11659708EA0165301752000000000000
B0609053157774S11659781EA0164201744000000000000
B0609093157840S11659852EA0163701739000000000000
B0609133157908S11659920EA0163301731000000000000
B0609173157973S11659994EA0162501725000000000000
B0609213158034S11700073EA0162501725000000000000
B0609253158090S11700158EA0161901717000000000000
B0609293158139S11700247EA0160901707000000000000
B0609333158185S11700338EA0159801696000000000000
B0609373158228S11700431EA0159001689000000000000
B0609413158267S11700523EA0158601686000000000000
B0609453158307S11700613EA0158201680000000000000
B0609493158346S11700704EA0157401669000000000000
B0609533158381S11700800EA0156001657000000000000
B0609573158416S11700896EA0155401653000000000000
B0610013158453S11700992EA0155501655000000000000
B0610053158488S11701086EA0155501655000000000000
B0610093158522S11701181EA0155401652000000000000
B0610133158557S11701276EA0155001646000000000000
B0610173158593S11701372EA0154601640000000000000
B0610213158633S11701466EA0154301635000000000000
B0610253158666S11701562EA0153301626000000000000
B0610293158676S11701670EA0152601618000000000000
B0610333158668S11701779EA0152701621000000000000
B0610373158658S11701888EA0153001621000000015000
B0610413158650S11701992EA0153401622000000000000
B0610453158640S11702097EA0152601614000000000000
B0610493158627S11702204EA0151601608000000000000
B0610533158616S11702308EA0151601607000000000000
B0610573158610S11702415EA0150901597000000000000
B0611013158605S11702524EA0149501585000000000000
B0611053158602S11702633EA0148801578000000000000
B0611093158601S11702743EA0147901567000000000000
B0611133158602S11702855EA0146901555000000000000
B0611173158602S11702968EA0146101549000000000000
B0611213158602S11703079EA0146201552000000000000
B0611253158602S11703183EA0146001547000000000000
B0611293158605S11703287EA0145501542000000000000
B0611333158609S11703387EA0145301543000000000000
B0611373158613S11703482EA0145701547000000000000
B0611413158614S11703574EA0145601545000000000000
B0611453158614S11703664EA0145301542000000000000
B0611493158613S11703754EA0145201541000000000000
B0611533158613S11703841EA0145301544000000000000
B0611573158615S11703926EA0145501544000000000000
B0612013158614S11704014EA0145601545000000000000
B0612053158620S11704099EA0145901551000000000000
B0612093158633S11704179EA0147201564000000000000
B0612133158657S11704251EA0148201567000000000000
B0612173158711S11704294EA0148201569000000000000
B0612213158769S11704270EA0148401576000000000000
B0612253158776S11704205EA0149501591000000000000
B0612293158740S11704159EA0150501597000000000000
B0612333158684S11704168EA0151101603000000000000
B0612373158652S11704225EA0151401604000000000000
B0612413158678S11704284EA0151901611000000000000
B0612453158731S11704288EA0152301613000000000000
B0612493158752S11704232EA0152201613000000000000
B0612533158717S11704184EA0152701620000000000000
B0612573158662S11704186EA0153401629000000000000
B0613013158627S11704240EA0153901630000000000000
B0613053158629S11704311EA0153601627000000000000
B0613093158657S11704383EA0153201621000000000000
B0613133158693S11704456EA0152201610000000000000
B0613173158731S11704531EA0151301601000000000000
B0613213158774S11704612EA0149601584000000000000
B0613253158818S11704696EA0147901565000000000000
B0613293158865S11704784EA0146201552000000000000
B0613333158913S11704874EA0145801548000000000000
B0613373158961S11704960EA0145601546000000000000
B0613413159006S11705044EA0145601546000000000000
B0613453159051S11705126EA0145301541000000000000
B0613493159091S11705210EA0144501534000000000000
B0613533159133S11705294EA0143901527000000000000
B0613573159177S11705376EA0143101522000000000000
B0614013159225S11705458EA0142701515000000000000
B0614053159274S11705540EA0142701516000000000000
B0614093159326S11705618EA0142701517000000000000
B0614133159382S11705688EA0143001518000000000000
B0614173159441S11705753EA0142801515000000000000
B0614213159495S11705824EA0142101509000000000000
B0614253159532S11705912EA0141501504000000000000
B0614293159539S11706008EA0140801495000000000000
B0614333159529S11706101EA0140701494000000000000
B0614373159512S11706191EA0141001493000000000000
B0614413159484S11706277EA0140701497000000000000
B0614453159456S11706357EA0141101499000000000000
B0614493159432S11706441EA0141001498000000000000
B0614533159411S11706525EA0140801498000000000000
B0614573159391S11706610EA0142001511000000000000
B0615013159411S11706682EA0143401527000000000000
B0615053159471S11706686EA0143501524000000000000
B0615093159503S11706624EA0142601516000000000000
B0615133159486S11706552EA0142001509000000000000
B0615173159430S11706526EA0142001512000000000000
B0615213159381S11706567EA0142501518000000000000
B0615253159344S11706628EA0142701517000000000000
B0615293159315S11706702EA0142101514000000000000
B0615333159292S11706788EA0141801511000000000000
B0615373159269S11706881EA0141001500000000000000
B0615413159248S11706978EA0141101505000000000000
B0615453159235S11707071EA0141501510000000000000
B0615493159225S11707160EA0142201513000000000000
B0615533159220S11707249EA0142101514000000000000
B0615573159213S11707342EA0141901511000000000000
B0616013159220S11707434EA0141601509000000000000
B0616053159231S11707529EA0141301507000000000000
B0616093159246S11707622EA0141901514000000000000
B0616133159265S11707709EA0142301512000000000000
B0616173159307S11707784EA0141601508000000000000
B0616213159346S11707858EA0141001501000000000000
B0616253159372S11707940EA0140901503000000000000
B0616293159394S11708019EA0141801514000000000000
B0616333159425S11708093EA0142301514000000000000
B0616373159484S11708135EA0142801523000000000000
B0616413159533S11708097EA0143501530000000000000
B0616453159519S11708029EA0143801531000000000000
B0616493159463S11708012EA0144101535000000000000
B0616533159416S11708059EA0144801542000000000000
B0616573159415S11708133EA0145101546000000000000
B0617013159461S11708183EA0145901553000000000000
B0617053159516S11708163EA0145901550000000000000
B0617093159529S11708096EA0145001543000000000000
B0617133159490S11708038EA0145301546000000000000
B0617173159430S11708024EA0145601551000000000000
B0617213159411S11708085EA0147101570000000000000
B0617253159458S11708124EA0148201575000000000000
B0617293159515S11708096EA0148001573000000000000
B0617333159524S11708029EA0147501570000000000000
B0617373159473S11708002EA0148001575000000000000
B0617413159432S11708045EA0148501579000000000000
B0617453159438S11708118EA0148901584000000000000
B0617493159497S11708153EA0149401589000000000000
B0617533159552S11708120EA0149601593000000000000
B0617573159556S11708055EA0150301600000000000000
B0618013159516S11708015EA0150401600000000000000
B0618053159461S11708021EA0150501602000000000000
B0618093159419S11708070EA0150601602000000000000
B0618133159396S11708142EA0150801605000000000000
B0618173159383S11708223EA0151101608000000000000
B0618213159412S11708293EA0152301618000000000000
B0618253159471S11708288EA0152601620000000000000
B0618293159498S11708222EA0152201616000000000000
B0618333159502S11708140EA0151501612000000000000
B0618373159473S11708072EA0152001619000000000000
B0618413159419S11708050EA0152601624000000000000
B0618453159367S11708084EA0152901625000000000000
B0618493159341S11708158EA0152601621000000000000
B0618533159331S11708242EA0152901627000000000000
B0618573159321S11708328EA0153601632000000000000
B0619013159324S11708410EA0155001646000000000000
B0619053159380S11708439EA0156101657000000000000
B0619093159417S11708384EA0157001667000000000000
B0619133159404S11708314EA0157301670000000000000
B0619173159354S11708280EA0157701677000000000000
B0619213159296S11708304EA0158401681000000000000
B0619253159269S11708374EA0158601681000000000000
B0619293159286S11708453EA0158901688000000000000
B0619333159339S11708508EA0159401690000000000000
B0619373159409S11708506EA0159801699000000000000
B0619413159452S11708444EA0161001710000000000000
B0619453159426S11708382EA0162501726000000000000
B0619493159374S11708396EA0163001729000000000000
B0619533159367S11708465EA0163701736000000000000
B0619573159415S11708506EA0164101742000000000000
B0620013159465S11708471EA0164901750000000000000
B0620053159451S11708410EA0165901760000000000000
B0620093159399S11708417EA0166801763000000000000
B0620133159393S11708484EA0166801768000000000000
B0620173159447S11708514EA0167601774000000000000
B0620213159493S11708467EA0168401782000000000000
B0620253159480S11708404EA0169301793000000000000
B0620293159430S11708391EA0170101799000000000000
B0620333159393S11708437EA0169901795000000000000
B0620373159382S11708514EA0169601793000000000000
B0620413159387S11708599EA0169601791000000000000
B0620453159400S11708692EA0169001786000000000000
B0620493159417S11708786EA0169601798000000000000
B0620533159435S11708874EA0171401814000000000000
B0620573159493S11708922EA0173101829000000000000
B0621013159545S11708879EA0173501824000000000000
B0621053159534S11708813EA0172801821000000000000
B0621093159482S11708795EA0172801825000000000000
B0621133159437S11708840EA0173301831000000000000
B0621173159419S11708920EA0173701834000000000000
B0621213159419S11709007EA0174001837000000000000
B0621253159430S11709095EA0174501843000000000000
B0621293159448S11709182EA0174501840000000000000
B0621333159469S11709269EA0174401840000000000000
B0621373159495S11709354EA0174601840000000000000
B0621413159523S11709437EA0174201838000000000000
B0621453159552S11709519EA0174301837000000000000
B0621493159586S11709598EA0173901831000000000000
B0621533159614S11709682EA0173601829000000000000
B0621573159636S11709763EA0173201824000000000000
B0622013159655S11709848EA0172301814000000000000
B0622053159675S11709936EA0171701805000000000000
B0622093159694S11710023EA0171101799000000000000
B0622133159729S11710104EA0170601794000000000000
B0622173159784S11710166EA0169901787000000000000
B0622213159854S11710203EA0169301787000000000000
B0622253159931S11710213EA0168901782000000000000
B0622293200007S11710208EA0168301774000000000000
B0622333200088S11710196EA0167001761000000000000
B0622373200171S11710181EA0165901751000000000000
B0622413200254S11710163EA0165201743000000000000
B0622453200340S11710147EA0164401735000000000000
B0622493200425S11710131EA0163501730000000000000
B0622533200508S11710113EA0163101725000000000000
B0622573200592S11710095EA0162501718000000000000
B0623013200676S11710074EA0161601710000000000000
B0623053200759S11710051EA0160901705000000000000
B0623093200839S11710023EA0160601700000000000000
B0623133200919S11709995EA0160401698000000000000
B0623173200992S11709964EA0160401700000000000000
B0623213201060S11709932EA0160401700000000000000
B0623253201129S11709906EA0160201696000000000000
B0623293201200S11709884EA0159501687000000000000
B0623333201272S11709864EA0158301676000000000000
B0623373201346S11709844EA0157201667000000000000
B0623413201421S11709823EA0156301656000000000000
B0623453201495S11709805EA0155701646000000000000
B0623493201565S11709786EA0155201647000000000000
B0623533201635S11709766EA0155301647000000000000
B0623573201704S11709743EA0155201648000000000000
B0624013201770S11709717EA0156201659000000000000
B0624053201834S11709693EA0156901663000000000000
B0624093201898S11709663EA0157001663000000000000
B0624133201960S11709626EA0156601660000000000000
B0624173202024S11709588EA0156601661000000000000
B0624213202085S11709552EA0156601656000000000000
B0624253202146S11709511EA0155801647000000000000
B0624293202207S11709466EA0155401649000000000000
B0624333202268S11709419EA0155501648000000000000
B0624373202325S11709364EA0156601659000000000000
B0624413202344S11709293EA0157901673000000000000
B0624453202312S11709234EA0157901669000000000000
B0624493202249S11709224EA0157801668000000000000
B0624533202195S11709269EA0157901670000000000000
B0624573202175S11709345EA0157701668000000000000
B0625013202195S11709423EA0157601669000000000000
B0625053202250S11709476EA0157601670000000000000
B0625093202321S11709487EA0157801675000000000000
B0625133202383S11709451EA0158701684000000000000
B0625173202412S11709385EA0159101686000000000000
B0625213202389S11709321EA0159101687000000000000
B0625253202333S11709303EA0159101685000000000000
B0625293202282S11709341EA0159501692000000000000
B0625333202266S11709412EA0159701694000000000000
B0625373202293S11709481EA0160001699000000000000
B0625413202353S11709516EA0160501705000000000000
B0625453202418S11709502EA0160701703000000000000
B0625493202464S11709448EA0160501699000000000000
B0625533202475S11709372EA0160201700000000000000
B0625573202448S11709308EA0160401702000000000000
B0626013202393S11709290EA0160301700000000000000
B0626053202345S11709333EA0160501702000000000000
B0626093202338S11709405EA0161001709000000000000
B0626133202373S11709466EA0161401716000000000000
B0626173202436S11709487EA0161701717000000000000
B0626213202496S11709461EA0161601715000000000000
B0626253202539S11709405EA0161101707000000000000
B0626293202576S11709334EA0159801694000000000000
B0626333202611S11709256EA0159001686000000000000
B0626373202643S11709175EA0159801693000000000000
B0626413202649S11709090EA0160101692000000000000
B0626453202604S11709032EA0160501694000000000000
B0626493202536S11709035EA0160401693000000000000
B0626533202488S11709093EA0160001689000000000000
B0626573202479S11709172EA0159001680000000000000
B0627013202516S11709238EA0158201675000000000000
B0627053202584S11709262EA0157801673000000000000
B0627093202654S11709245EA0158001676000000000000
B0627133202718S11709203EA0158401679000000000000
B0627173202773S11709149EA0158201675000000000000
B0627213202821S11709081EA0157601672000000000000
B0627253202862S11709006EA0157501673000000000000
B0627293202903S11708929EA0157501671000000000000
B0627333202940S11708847EA0157401667000000000000
B0627373202975S11708764EA0156801659000000000000
B0627413203013S11708675EA0154301633000000000000
B0627453203056S11708584EA0152701617000000000000
B0627493203104S11708493EA0151501610000000000000
B0627533203153S11708404EA0151101603000000000000
B0627573203200S11708313EA0150201595000000000000
B0628013203246S11708219EA0149401586000000000000
B0628053203287S11708122EA0148401577000000000000
B0628093203329S11708025EA0148001571000000000000
B0628133203367S11707928EA0147401567000000000000
B0628173203404S11707833EA0147901576000000000000
B0628213203438S11707742EA0148901584000000000000
B0628253203465S11707655EA0149201585000000000000
B0628293203485S11707563EA0149201587000000000000
B0628333203488S11707470EA0149601593000000000000
B0628373203472S11707386EA0151201613000000000000
B0628413203417S11707355EA0154301633000000000000
B0628453203381S11707407EA0155101642000000000000
B0628493203408S11707469EA0155501643000000000000
B0628533203472S11707491EA0154801638000000000000
B0628573203537S11707460EA0154701639000000000000
B0629013203563S11707384EA0155701650000000000000
B0629053203528S11707318EA0156501661000000000000
B0629093203464S11707316EA0157601671000000000000
B0629133203424S11707377EA0158301679000000000000
B0629173203437S11707451EA0159301692000000000000
B0629213203493S11707492EA0160101697000000000000
B0629253203556S11707470EA0160501702000000000000
B0629293203571S11707396EA0161301710000000000000
B0629333203523S11707352EA0162101719000000000000
B0629373203465S11707381EA0162601724000000000000
B0629413203443S11707455EA0162801729000000000000
B0629453203480S11707517EA0163601738000000000000
B0629493203545S11707527EA0164001737000000000000
B0629533203606S11707481EA0163301729000000000000
B0629573203664S11707413EA0162801729000000000000
B0630013203723S11707339EA0163001729000000000000
B0630053203781S11707260EA0162701728000000000000
B0630093203839S11707180EA0162801727000000000000
B0630133203897S11707101EA0163201734000000000000
B0630173203952S11707030EA0163401732000000000000
B0630213204001S11706952EA0162801724000000000000
B0630253204047S11706864EA0161801709000000000000
B0630293204092S11706776EA0161201709000000000000
B0630333204141S11706694EA0162401731000000000000
B0630373204192S11706620EA0164201749000000000000
B0630413204239S11706551EA0165701762000000000000
B0630453204288S11706486EA0166301768000000000000
B0630493204344S11706422EA0165801762000000000000
B0630533204405S11706360EA0165201755000000000000
B0630573204465S11706294EA0165001751000000000000
B0631013204518S11706226EA0165301757000000000000
B0631053204578S11706160EA0165201753000000000000
B0631093204642S11706096EA0165401759000000000000
B0631133204699S11706032EA0166001761000000000000
B0631173204759S11705969EA0165101748000000000000
B0631213204815S11705899EA0163901734000000000000
B0631253204879S11705828EA0162901730000000000000
B0631293204938S11705762EA0164101745000000000000
B0631333204993S11705700EA0164201740000000000000
B0631373205050S11705633EA0163601729000000000000
B0631413205110S11705564EA0162701722000000000000
B0631453205175S11705497EA0162301723000000000000
B0631493205235S11705431EA0162401722000000000000
B0631533205296S11705364EA0160801702000000000000
B0631573205357S11705295EA0160101697000000000000
B0632013205415S11705221EA0158101674000000000000
B0632053205483S11705148EA0156801661000000000000
B0632093205553S11705081EA0156301662000000000000
B0632133205622S11705017EA0156201659000000000000
B0632173205688S11704955EA0156201660000000000000
B0632213205752S11704892EA0155701653000000000000
B0632253205818S11704830EA0154801643000000000000
B0632293205883S11704764EA0154001635000000000000
B0632333205952S11704697EA0152901621000000000000
B0632373206024S11704631EA0151601611000000000000
B0632413206097S11704565EA0150901605000000000000
B0632453206167S11704498EA0150401598000000000000
B0632493206236S11704430EA0149801595000000000000
B0632533206302S11704357EA0149201589000000000000
B0632573206366S11704280EA0149101594000000000000
B0633013206426S11704206EA0148801584000000000000
B0633053206483S11704127EA0147801572000000000000
B0633093206540S11704046EA0146301558000000000000
B0633133206596S11703967EA0146201565000000000000
B0633173206647S11703890EA0147201572000000000000
B0633213206699S11703817EA0147301570000000000000
B0633253206761S11703750EA0147301574000000000000
B0633293206819S11703685EA0148701587000000000000
B0633333206818S11703608EA0150401606000000000000
B0633373206761S11703612EA0151901621000000000000
B0633413206753S11703682EA0152801633000000000000
B0633453206801S11703729EA0153501638000000000000
B0633493206858S11703708EA0154101643000000000000
B0633533206860S11703642EA0154101639000000000000
B0633573206805S11703611EA0154401645000000000000
B0634013206751S11703647EA0155301654000000000000
B0634053206736S11703718EA0156401667000000000000
B0634093206767S11703782EA0157401676000000000000
B0634133206829S11703806EA0157801679000000000000
B0634173206882S11703772EA0158001681000000000000
B0634213206881S11703707EA0158401687000000000000
B0634253206830S11703677EA0158701688000000000000
B0634293206773S11703704EA0159201694000000000000
B0634333206748S11703772EA0160101703000000000000
B0634373206773S11703839EA0160701710000000000000
B0634413206831S11703867EA0161001710000000000000
B0634453206896S11703847EA0160101699000000000000
B0634493206965S11703808EA0158501683000000000000
B0634533207038S11703760EA0157401670000000000000
B0634573207117S11703709EA0157601677000000000000
B0635013207196S11703661EA0158301685000000000000
B0635053207274S11703608EA0158101670000000000000
B0635093207352S11703548EA0156701663000000000000
B0635133207429S11703488EA0157701677000000000000
B0635173207497S11703434EA0159501697000000000000
B0635213207559S11703382EA0160801705000000000000
B0635253207620S11703327EA0161201708000000000000
B0635293207684S11703275EA0161901714000000000000
B0635333207741S11703218EA0162701721000000000000
B0635373207791S11703157EA0163301730000000000000
B0635413207833S11703093EA0163901736000000000000
B0635453207880S11703029EA0163501731000000000000
B0635493207927S11702962EA0163401732000000000000
B0635533207973S11702890EA0163501732000000000000
B0635573208015S11702816EA0164001740000000000000
B0636013208057S11702743EA0164601743000000000000
B0636053208100S11702671EA0164301739000000000000
B0636093208148S11702597EA0164001734000000000000
B0636133208203S11702521EA0163901737000000000000
B0636173208260S11702446EA0163001720000000000000
B0636213208325S11702373EA0161901714000000000000
B0636253208390S11702300EA0161301709000000000000
B0636293208455S11702231EA0161701717000000000000
B0636333208517S11702168EA0163101731000000000000
B0636373208574S11702104EA0163701737000000000000
B0636413208625S11702036EA0164101741000000000000
B0636453208673S11701969EA0164401742000000000000
B0636493208721S11701896EA0164601745000000000000
B0636533208771S11701823EA0165101749000000000000
B0636573208818S11701752EA0165501752000000000000
B0637013208862S11701676EA0165401748000000000000
B0637053208911S11701599EA0164701742000000000000
B0637093208966S11701521EA0163901735000000000000
B0637133209026S11701447EA0163701734000000000000
B0637173209089S11701378EA0163801732000000000000
B0637213209156S11701316EA0163301729000000000000
B0637253209226S11701256EA0162901725000000000000
B0637293209300S11701202EA0162201718000000000000
B0637333209375S11701148EA0161701712000000000000
B0637373209451S11701091EA0160901705000000000000
B0637413209523S11701030EA0160401699000000000000
B0637453209595S11700966EA0159601691000000000000
B0637493209664S11700903EA0159301687000000000000
B0637533209731S11700839EA0158701682000000000000
B0637573209798S11700770EA0158201674000000000000
B0638013209858S11700697EA0157601668000000000000
B0638053209916S11700623EA0156701659000000000000
B0638093209976S11700550EA0155501648000000000000
B0638133210038S11700479EA0155001643000000000000
B0638173210092S11700402EA0154201638000000000000
B0638213210141S11700324EA0154101636000000000000
B0638253210192S11700249EA0154201637000000000000
B0638293210238S11700175EA0155101650000000000000
B0638333210276S11700106EA0157001667000000000000
B0638373210297S11700033EA0158301682000000000000
B0638413210264S11659984EA0159001685000000000000
B0638453210212S11700002EA0159601692000000000000
B0638493210189S11700069EA0159401692000000000000
B0638533210206S11700146EA0160001701000000000000
B0638573210266S11700155EA0161201714000000000000
B0639013210287S11700093EA0162301722000000000000
B0639053210248S11700052EA0162701727000000000000
B0639093210194S11700080EA0162701729000000000000
B0639133210186S11700154EA0163701741000000000000
B0639173210227S11700220EA0165001752000000000000
B0639213210289S11700250EA0165401754000000000000
B0639253210339S11700215EA0165701761000000000000
B0639293210320S11700160EA0166901770000000000000
B0639333210266S11700166EA0167101773000000000000
B0639373210232S11700234EA0167201777000000000000
B0639413210244S11700318EA0167501774000000000000
B0639453210297S11700375EA0166901767000000000000
B0639493210372S11700387EA0166001756000000000000
B0639533210450S11700363EA0164901748000000000000
B0639573210523S11700322EA0164801750000000000000
B0640013210592S11700270EA0165201752000000000000
B0640053210654S11700206EA0164701743000000000000
B0640093210713S11700136EA0164901743000000000000
B0640133210771S11700064EA0164301739000000000000
B0640173210836S11700000EA0164301743000000000000
B0640213210904S11659945EA0164401743000000000000
B0640253210974S11659889EA0164001737000000000000
B0640293211043S11659829EA0163101726000000000000
B0640333211116S11659770EA0162301719000000000000
B0640373211190S11659713EA0162401720000000000000
B0640413211262S11659659EA0162301716000000000000
B0640453211330S11659599EA0161701711000000000000
B0640493211399S11659544EA0161101705000000000000
B0640533211473S11659496EA0160601697000000000000
B0640573211550S11659451EA0159901689000000000000
B0641013211626S11659402EA0159101683000000000000
B0641053211698S11659350EA0158001673000000000000
B0641093211770S11659293EA0156701661000000000000
B0641133211844S11659241EA0156201655000000000000
B0641173211921S11659194EA0155901650000000000000
B0641213211997S11659148EA0155401646000000000000
B0641253212073S11659101EA0154801640000000000000
B0641293212147S11659049EA0154201635000000000000
B0641333212218S11658996EA0153501627000000000000
B0641373212287S11658937EA0152001611000000000000
B0641413212357S11658872EA0150901600000000000000
B0641453212425S11658803EA0150301596000000000000
B0641493212490S11658729EA0149701590000000000000
B0641533212552S11658652EA0149101582000000000000
B0641573212615S11658578EA0148401578000000000000
B0642013212675S11658502EA0147801570000000000000
B0642053212734S11658421EA0147101565000000000000
B0642093212796S11658344EA0147001566000000000000
B0642133212859S11658270EA0147201569000000000000
B0642173212924S11658205EA0147701574000000000000
B0642213212993S11658154EA0148001576000000000000
B0642253213063S11658114EA0147901572000000000000
B0642293213123S11658062EA0147401562000000000000
B0642333213150S11657982EA0145901550000000000000
B0642373213136S11657896EA0144701540000000000000
B0642413213087S11657829EA0143601526000000000000
B0642453213015S11657788EA0142401516000000000000
B0642493212937S11657757EA0141301500000000000000
B0642533212858S11657731EA0140001492000000000000
B0642573212776S11657710EA0139301485000000000000
B0643013212693S11657697EA0138401475000000000000
B0643053212608S11657685EA0137501467000000000000
B0643093212524S11657673EA0136801457000000000000
B0643133212435S11657663EA0135401443000000000000
B0643173212342S11657655EA0134601437000000000000
B0643213212250S11657647EA0134001431000000000000
B0643253212157S11657636EA0133401424000000000000
B0643293212065S11657627EA0133401426000000000000
B0643333211979S11657614EA0133701427000000000000
B0643373211892S11657602EA0133201418000000000000
B0643413211804S11657595EA0132201412000000000000
B0643453211718S11657588EA0132001408000000000000
B0643493211633S11657575EA0131601402000000000000
B0643533211551S11657560EA0131201399000000000000
B0643573211472S11657546EA0131201399000000000000
B0644013211395S11657532EA0131101399000000000000
B0644053211320S11657516EA0130801393000000000000
B0644093211243S11657499EA0130001386000000000000
B0644133211164S11657486EA0129301379000000000000
B0644173211082S11657473EA0128401371000000000000
B0644213210999S11657456EA0128101365000000000000
B0644253210914S11657437EA0126901351000000000000
B0644293210831S11657412EA0126101345000000000000
B0644333210748S11657387EA0125501339000000000000
B0644373210666S11657365EA0124801334000000000000
B0644413210586S11657339EA0124401329000000000000
B0644453210506S11657312EA0123801325000000000000
B0644493210428S11657285EA0123401321000000000000
B0644533210352S11657257EA0123001315000000000000
B0644573210275S11657228EA0122601312000000000000
B0645013210206S11657190EA0122801317000000000000
B0645053210145S11657148EA0123001318000000000000
B0645093210085S11657107EA0122801313000000000000
B0645133210025S11657066EA0122401312000000000000
B0645173209964S11657029EA0122201310000000000000
B0645213209902S11656991EA0122201312000000000000
B0645253209837S11656958EA0122201314000000000000
B0645293209769S11656935EA0122601318000000000000
B0645333209707S11656960EA0123901336000000000000
B0645373209698S11657031EA0124901343000000000000
B0645413209748S11657083EA0124801338000000000000
B0645453209819S11657073EA0124701337000000000000
B0645493209872S11657023EA0125001344000000000000
B0645533209880S11656953EA0126001353000000000000
B0645573209839S11656909EA0126401355000000000000
B0646013209781S11656925EA0126001353000000000000
B0646053209768S11656995EA0127201369000000000000
B0646093209820S11657035EA0128001373000000000000
B0646133209876S11657004EA0127801373000000000000
B0646173209881S11656936EA0128101373000000000000
B0646213209837S11656890EA0127801369000000000000
B0646253209773S11656896EA0127901374000000000000
B0646293209742S11656964EA0128901387000000000000
B0646333209777S11657025EA0129601393000000000000
B0646373209842S11657030EA0129801392000000000000
B0646413209900S11656992EA0129701391000000000000
B0646453209915S11656926EA0130001397000000000000
B0646493209871S11656884EA0130301399000000000000
B0646533209815S11656896EA0130701408000000000000
B0646573209798S11656964EA0132001419000000000000
B0647013209846S11657009EA0132701426000000000000
B0647053209899S11656978EA0133501430000000000000
B0647093209898S11656912EA0133301426000000000000
B0647133209845S11656882EA0133401430000000000000
B0647173209798S11656925EA0134901450000000000000
B0647213209803S11656996EA0136201459000000000000
B0647253209855S11657035EA0136801465000000000000
B0647293209913S11657013EA0137201467000000000000
B0647333209937S11656953EA0137401471000000000000
B0647373209911S11656904EA0137901479000000000000
B0647413209861S11656909EA0138801487000000000000
B0647453209845S11656970EA0139401494000000000000
B0647493209894S11657013EA0139901497000000000000
B0647533209945S11656978EA0140401500000000000000
B0647573209933S11656914EA0140401500000000000000
B0648013209877S11656887EA0140301499000000000000
B0648053209812S11656895EA0140501502000000000000
B0648093209744S11656925EA0140701503000000000000
B0648133209674S11656964EA0140301500000000000000
B0648173209599S11657004EA0140701503000000000000
B0648213209529S11657043EA0141201509000000000000
B0648253209460S11657079EA0141301505000000000000
B0648293209390S11657120EA0140501497000000000000
B0648333209319S11657161EA0139701491000000000000
B0648373209249S11657203EA0139001482000000000000
B0648413209180S11657250EA0137701470000000000000
B0648453209111S11657299EA0137001464000000000000
B0648493209041S11657345EA0136501460000000000000
B0648533208968S11657382EA0136501456000000000000
B0648573208897S11657421EA0136001453000000000000
B0649013208828S11657465EA0135401447000000000000
B0649053208759S11657512EA0134501437000000000000
B0649093208689S11657558EA0133801431000000000000
B0649133208619S11657602EA0133001423000000000000
B0649173208547S11657645EA0132901424000000000000
B0649213208478S11657686EA0133001423000000000000
B0649253208408S11657732EA0132001411000000000000
B0649293208333S11657779EA0131201405000000000000
B0649333208259S11657829EA0130701403000000000000
B0649373208187S11657883EA0130901406000000000000
B0649413208119S11657936EA0131001405000000000000
B0649453208051S11657988EA0130901404000000000000
B0649493207978S11658032EA0130601400000000000000
B0649533207905S11658082EA0130301399000000000000
B0649573207835S11658140EA0129601387000000000000
B0650013207763S11658203EA0128401376000000000000
B0650053207690S11658268EA0127501368000000000000
B0650093207620S11658336EA0126601359000000000000
B0650133207554S11658411EA0125701352000000000000
B0650173207495S11658490EA0125401351000000000000
B0650213207442S11658569EA0125601353000000000000
B0650253207395S11658647EA0125701351000000000000
B0650293207364S11658730EA0125301346000000000000
B0650333207341S11658816EA0124801339000000000000
B0650373207319S11658902EA0123801327000000000000
B0650413207300S11658994EA0122301313000000000000
B0650453207285S11659088EA0121301306000000000000
B0650493207272S11659183EA0120601299000000000000
B0650533207259S11659279EA0120001292000000000000
B0650573207245S11659374EA0119501288000000000000
B0651013207229S11659471EA0119001283000000000000
B0651053207216S11659569EA0118601278000000000000
B0651093207182S11659659EA0118501282000000000000
B0651133207128S11659727EA0118901282000000000000
B0651173207072S11659791EA0118901282000000000000
B0651213207024S11659863EA0118301273000000000000
B0651253206968S11659932EA0116101250000000000000
B0651293206888S11659980EA0113901230000000000000
B0651333206801S11659991EA0113201223000000000000
B0651373206717S11659972EA0112501217000000000000
B0651413206637S11659929EA0111601205000000000000
B0651453206565S11659870EA0110701197000000000000
B0651493206497S11659805EA0110101192000000000000
B0651533206429S11659742EA0109401184000000000000
B0651573206362S11659677EA0108801176000000000000
B0652013206293S11659613EA0107701166000000000000
B0652053206224S11659549EA0106701159000000000000
B0652093206156S11659490EA0106101151000000000000
B0652133206089S11659430EA0105301142000000000000
B0652173206028S11659365EA0104801140000000000000
B0652213205974S11659295EA0104601135000000000000
B0652253205928S11659223EA0103701130000000000000
B0652293205881S11659153EA0103201124000000000000
B0652333205837S11659083EA0102601118000000000000
B0652373205792S11659014EA0101901110000000000000
B0652413205747S11658945EA0101401105000000000000
B0652453205703S11658877EA0101201106000000000000
B0652493205660S11658811EA0101101104000000000000
B0652533205617S11658745EA0100601097000000000000
B0652573205574S11658676EA0099601085000000000000
B0653013205536S11658599EA0098801078000000000000
B0653053205504S11658522EA0098901082000000000000
B0653093205473S11658450EA0098701078000000000000
B0653133205440S11658378EA0098201071000000000000
B0653173205402S11658308EA0097501066000000000000
B0653213205365S11658244EA0097901069000000000000
B0653253205322S11658180EA0097501064000000000000
B0653293205271S11658126EA0097401061000000000000
B0653333205206S11658093EA0097401062000000000000
B0653373205137S11658108EA0097901068000000000000
B0653413205087S11658161EA0098101072000000000000
B0653453205042S11658227EA0097801066000000000000
B0653493205003S11658300EA0097801072000000000000
B0653533205001S11658377EA0098901084000000000000
B0653573205054S11658396EA0099301083000000000000
B0654013205085S11658342EA0099001081000000000000
B0654053205058S11658284EA0099701091000000000000
B0654093205002S11658275EA0099901091000000000000
B0654133204954S11658321EA0099801088000000000000
B0654173204950S11658396EA0099901092000000000000
B0654213204994S11658451EA0100101094000000000000
B0654253205055S11658448EA0100501097000000000000
B0654293205080S11658391EA0101001102000000000000
B0654333205036S11658349EA0101301105000000000000
B0654373204976S11658379EA0101101105000000000000
B0654413204966S11658451EA0102001121000000000000
B0654453205007S11658487EA0103201126000000000000
B0654493205054S11658461EA0103001125000000000000
B0654533205058S11658403EA0103301127000000000000
B0654573205011S11658366EA0103201127000000000000
B0655013204957S11658396EA0103301126000000000000
B0655053204959S11658466EA0103701133000000000000
B0655093205011S11658489EA0104301139000000000000
B0655133205049S11658447EA0104601143000000000000
B0655173205038S11658385EA0104601138000000000000
B0655213204980S11658359EA0104301138000000000000
B0655253204924S11658403EA0104401139000000000000
B0655293204921S11658479EA0104601145000000000000
B0655333204971S11658518EA0106601166000000000000
B0655373205022S11658491EA0107401172000000000000
B0655413205020S11658429EA0108101179000000000000
B0655453204972S11658403EA0108601178000000000000
B0655493204923S11658440EA0108601178000000000000
B0655533204921S11658509EA0108401178000000000000
B0655573204976S11658538EA0108801186000000000000
B0656013205022S11658494EA0109901194000000000000
B0656053205012S11658425EA0110101196000000000000
B0656093204957S11658394EA0110301197000000000000
B0656133204895S11658426EA0109901192000000000000
B0656173204884S11658504EA0110101197000000000000
B0656213204940S11658526EA0111401212000000000000
B0656253204950S11658468EA0112601220000000000000
B0656293204898S11658439EA0112401216000000000000
B0656333204842S11658479EA0112101216000000000000
B0656373204820S11658555EA0112701225000000000000
B0656413204871S11658577EA0114201242000000000000
B0656453204893S11658516EA0115301249000000000000
B0656493204847S11658468EA0116101258000000000000
B0656533204790S11658486EA0117001269000000000000
B0656573204775S11658548EA0118101277000000000000
B0657013204814S11658591EA0118901285000000000000
B0657053204866S11658569EA0119501290000000000000
B0657093204872S11658500EA0120201300000000000000
B0657133204820S11658466EA0121101307000000000000
B0657173204769S11658503EA0121301310000000000000
B0657213204776S11658568EA0122101322000000000000
B0657253204830S11658577EA0123201330000000000000
B0657293204853S11658516EA0124001339000000000000
B0657333204811S11658466EA0124901345000000000000
B0657373204752S11658491EA0125001343000000000000
B0657413204745S11658561EA0125501354000000000000
B0657453204794S11658600EA0126801369000000000000
B0657493204849S11658572EA0127901380000000000000
B0657533204862S11658504EA0128801388000000000000
B0657573204828S11658442EA0129101390000000000000
B0658013204765S11658422EA0129301391000000000000
B0658053204706S11658456EA0129401393000000000000
B0658093204706S11658525EA0130201404000000000000
B0658133204764S11658546EA0131201413000000000000
B0658173204798S11658489EA0132201423000000000000
B0658213204768S11658427EA0132601426000000000000
B0658253204706S11658420EA0133001429000000000000
B0658293204676S11658478EA0133601438000000000000
B0658333204719S11658522EA0134701448000000000000
B0658373204767S11658486EA0135601457000000000000
B0658413204754S11658421EA0136501463000000000000
B0658453204699S11658398EA0136401460000000000000
B0658493204651S11658439EA0136301464000000000000
B0658533204658S11658509EA0137101475000000000000
B0658573204712S11658548EA0137901480000000000000
B0659013204771S11658528EA0139001494000000000000
B0659053204780S11658464EA0140401502000000000000
B0659093204738S11658409EA0139301484000000000000
B0659133204668S11658366EA0137301471000000000000
B0659173204591S11658326EA0136701465000000000000
B0659213204511S11658288EA0137801479000000000000
B0659253204434S11658256EA0138401483000000000000
B0659293204357S11658225EA0138601483000000000000
B0659333204281S11658193EA0138101473000000000000
B0659373204201S11658161EA0137401469000000000000
B0659413204125S11658126EA0137301470000000000000
B0659453204047S11658092EA0137401472000000000000
B0659493203967S11658060EA0137701471000000000000
B0659533203888S11658024EA0137301468000000000000
B0659573203807S11657991EA0136901461000000000000
B0700013203729S11657961EA0137301469000000000000
B0700053203655S11657932EA0137201461000000000000
B0700093203579S11657905EA0136001450000000000000
B0700133203502S11657876EA0135101442000000000000
B0700173203425S11657846EA0134401435000000000000
B0700213203352S11657813EA0134101432000000000000
B0700253203281S11657776EA0133401425000000000000
B0700293203209S11657738EA0132701417000000000000
B0700333203138S11657701EA0131401408000000000000
B0700373203066S11657660EA0131101401000000000000
B0700413202994S11657619EA0130201393000000000000
B0700453202922S11657575EA0129601388000000000000
B0700493202852S11657532EA0129701392000000000000
B0700533202783S11657493EA0131101411000000015000
B0700573202717S11657458EA0131001402000000000000
B0701013202646S11657423EA0130201395000000000000
B0701053202574S11657384EA0130601400000000000000
B0701093202503S11657345EA0131001402000000000000
B0701133202435S11657303EA0130501397000000000000
B0701173202364S11657260EA0129801390000000000000
B0701213202293S11657218EA0129301385000000000000
B0701253202216S11657178EA0128301374000000000000
B0701293202139S11657139EA0127301366000000000000
B0701333202065S11657096EA0127001361000000000000
B0701373201989S11657055EA0125901350000000000000
B0701413201911S11657012EA0125201345000000000000
B0701453201837S11656973EA0125501345000000000000
B0701493201762S11656934EA0124601332000000000000
B0701533201686S11656897EA0122901316000000000000
