ACAM4N6
HFDTE150218
HFFXA050
HFPLTPILOT:JOHN WELSH              
HFGTYGLIDERTYPE:HORNET      
HFGIDGLIDERID:VH-GMY      
HFDTM100GPSDATUM:
HFRFWFIRMWAREVERSION:F2.6
HFRHWHARDWAREVERSION:300 Series Version 2
HFFTYFRTYPE:CAMBRIDGE AERO INSTRUMENTS, 302+
HFGPS:GARMIN,LVS-25,12,18000
HFPRSPRESSALTSENSOR:INTERSEMA, MS5534-AP, 20000
I033638FXA3941ENL4247REX
LCAMSBVER:5FWVER:F26300
C150218032938150218000103
C0000000N00000000WTAKEOFF     
C3207549S11656849EBEVAIR      
C3052001S11643979EWongan Hills
C3152966S11809465EBruce Rock  
C3239599S11707465EPopanyinning
C3207549S11656849EBEVAIR      
C0000000N00000000WLANDING     
B0330513207337S11656858EA0019100203000000000000
B0330533207337S11656858EA0019100203000000000000
B0330553207337S11656858EA0019200203000000000000
B0330573207337S11656858EA0019300203000000000000
B0330593207337S11656858EA0019200203000000000000
B0331013207337S11656858EA0019200203000000000000
B0331033207337S11656858EA0019200203000000000000
B0331053207337S11656858EA0019300203000000000000
B0331073207337S11656858EA0019200203000000000000
B0331093207337S11656858EA0019100203000000000000
B0331113207337S11656858EA0019100203000000000000
B0331133207337S11656858EA0019000203000000000000
B0331153207337S11656858EA0019200203000000000000
B0331173207337S11656858EA0019200203000000000000
B0331193207338S11656860EA0019100204000000000000
B0331243207356S11656875EA0019200204000000000000
B0331283207386S11656897EA0019200204000000000000
B0331323207430S11656927EA0019100206000000000000
B0331363207485S11656962EA0019300206000000000000
B0331403207544S11657001EA0019700214000000000000
B0331443207605S11657044EA0020100221000000000000
B0331483207658S11657091EA0021200236000000000000
B0331523207711S11657138EA0022400253000000000000
B0331563207763S11657181EA0024500273000000000000
B0332003207814S11657222EA0026000291000000000000
B0332043207862S11657267EA0027600307000000000000
B0332083207910S11657312EA0028900320000000000000
B0332123207947S11657372EA0030000329000000000000
B0332163207961S11657443EA0031100347000000000000
B0332203207957S11657519EA0033200364000000000000
B0332243207936S11657595EA0034400377000000000000
B0332283207904S11657668EA0035600388000000000000
B0332323207863S11657731EA0037900419000000000000
B0332363207822S11657788EA0040400439000000000000
B0332403207781S11657845EA0042000457000000000000
B0332443207740S11657904EA0044200477000000000000
B0332483207694S11657958EA0045300487000000000000
B0332523207649S11658014EA0046200496000000000000
B0332563207605S11658073EA0047100504000000000000
B0333003207560S11658128EA0047900513000000000000
B0333043207514S11658184EA0048900523000000000000
B0333083207462S11658236EA0049900533000000000000
B0333123207407S11658288EA0050800541000000000000
B0333163207345S11658338EA0051700552000000000000
B0333203207268S11658362EA0052800562000000000000
B0333243207185S11658353EA0053800580000000000000
B0333283207107S11658317EA0056500604000000000000
B0333323207035S11658262EA0057800621000000000000
B0333363206977S11658186EA0059700642000000000000
B0333403206939S11658091EA0061500658000000000000
B0333443206918S11657988EA0062500668000000000000
B0333483206921S11657884EA0063800685000000000000
B0333523206948S11657789EA0066000708000000000000
B0333563206994S11657705EA0067900727000000000000
B0334003207053S11657633EA0069400739000000000000
B0334043207125S11657586EA0070500750000000000000
B0334083207203S11657569EA0071500761000000000000
B0334123207280S11657572EA0072500773000000000000
B0334163207355S11657590EA0073400782000000000000
B0334203207425S11657625EA0074400791000000000000
B0334243207486S11657677EA0075200802000000000000
B0334283207528S11657749EA0076400811000000000000
B0334323207551S11657833EA0077100818000000000000
B0334363207550S11657920EA0078200828000000000000
B0334403207524S11658004EA0078800841000000000000
B0334443207490S11658079EA0080300855000000000000
B0334483207464S11658149EA0081300864000000000000
B0334523207484S11658209EA0081600866000000000000
B0334563207538S11658209EA0081800865000000000000
B0335003207581S11658152EA0080700853000000000000
B0335043207580S11658067EA0079900845000000000000
B0335083207534S11658008EA0079100836000000000000
B0335123207469S11657991EA0078300828000000000000
B0335163207406S11658008EA0077400818000000000000
B0335203207362S11658054EA0077200818000000000000
B0335243207346S11658118EA0076900814000000000000
B0335283207360S11658179EA0076600813000000000000
B0335323207378S11658239EA0077200821000000000000
B0335363207352S11658291EA0077800828000000000000
B0335403207295S11658277EA0078200831000000000000
B0335443207277S11658204EA0078400830000000000000
B0335483207308S11658143EA0078200826000000000000
B0335523207362S11658130EA0077900825000000000000
B0335563207394S11658169EA0078000824000000000000
B0336003207380S11658225EA0077600818000000000000
B0336043207345S11658278EA0077200811000000000000
B0336083207329S11658342EA0076800811000000000000
B0336123207359S11658390EA0076600806000000000000
B0336163207414S11658387EA0076100803000000000000
B0336203207446S11658329EA0076000803000000000000
B0336243207402S11658282EA0076400808000000000000
B0336283207363S11658326EA0077000814000000000000
B0336323207389S11658373EA0076900812000000000000
B0336363207441S11658357EA0076500806000000000000
B0336403207472S11658288EA0076500811000000000000
B0336443207446S11658222EA0077600820000000000000
B0336483207390S11658225EA0077900822000000000000
B0336523207382S11658283EA0077800824000000000000
B0336563207429S11658299EA0078500830000000000000
B0337003207460S11658239EA0078500829000000000000
B0337043207424S11658180EA0078600829000000000000
B0337083207368S11658195EA0078300827000000000000
B0337123207354S11658253EA0078700833000000000000
B0337163207390S11658294EA0078700830000000000000
B0337203207440S11658262EA0079100838000000000000
B0337243207433S11658193EA0079600841000000000000
B0337283207378S11658170EA0079100834000000000000
B0337323207347S11658219EA0079000836000000000000
B0337363207373S11658268EA0079200836000000000000
B0337403207424S11658252EA0079300837000000000000
B0337443207438S11658182EA0079200837000000000000
B0337483207393S11658131EA0079300838000000000000
B0337523207341S11658151EA0079200836000000000000
B0337563207329S11658212EA0078700831000000000000
B0338003207364S11658251EA0078900834000000000000
B0338043207411S11658227EA0079000835000000000000
B0338083207427S11658160EA0078800833000000000000
B0338123207391S11658100EA0078600832000000000000
B0338163207336S11658100EA0078300826000000000000
B0338203207300S11658152EA0077700819000000000000
B0338243207302S11658216EA0077200814000000000000
B0338283207347S11658247EA0076900813000000000000
B0338323207403S11658222EA0076400808000000000000
B0338363207440S11658158EA0076100807000000000000
B0338403207453S11658079EA0075400800000000000000
B0338443207469S11658001EA0074700790000000000000
B0338483207489S11657920EA0073700781000000000000
B0338523207482S11657841EA0074100787000000000000
B0338563207423S11657818EA0074500792000000000000
B0339003207389S11657866EA0074600793000000000000
B0339043207421S11657910EA0073800782000000000000
B0339083207475S11657880EA0073200777000000000000
B0339123207507S11657810EA0073100781000000000000
B0339163207520S11657732EA0073800787000000000000
B0339203207484S11657675EA0074900798000000000000
B0339243207433S11657692EA0074900793000000000000
B0339283207433S11657749EA0074500790000000000000
B0339323207484S11657758EA0074800795000000000000
B0339363207514S11657699EA0075300798000000000000
B0339403207480S11657634EA0075000794000000000000
B0339443207419S11657642EA0075200798000000000000
B0339483207399S11657699EA0075800808000000000000
B0339523207433S11657736EA0076400810000000000000
B0339563207482S11657711EA0076100806000000000000
B0340003207485S11657637EA0075900806000000000000
B0340043207434S11657590EA0075900801000000000000
B0340083207376S11657612EA0075600809000000000000
B0340123207381S11657668EA0076800822000000000000
B0340163207432S11657670EA0076900820000000000000
B0340203207450S11657606EA0076900821000000000000
B0340243207408S11657551EA0077000821000000000000
B0340283207354S11657575EA0076900818000000000000
B0340323207368S11657632EA0077400830000000000000
B0340363207419S11657614EA0077600828000000000000
B0340403207416S11657541EA0077800833000000000000
B0340443207363S11657503EA0078100833000000000000
B0340483207308S11657541EA0077900833000000000000
B0340523207310S11657606EA0078100834000000000000
B0340563207363S11657631EA0077400824000000000000
B0341003207416S11657586EA0077500829000000000000
B0341043207437S11657511EA0077900831000000000000
B0341083207402S11657450EA0078400839000000000000
B0341123207347S11657458EA0078600837000000000000
B0341163207343S11657516EA0078800840000000000000
B0341203207391S11657532EA0078900838000000000000
B0341243207430S11657478EA0078200832000000000000
B0341283207420S11657404EA0078100831000000000000
B0341323207363S11657384EA0078300833000000000000
B0341363207326S11657432EA0078500837000000000000
B0341403207363S11657465EA0079100841000000000000
B0341443207404S11657421EA0078500832000000000000
B0341483207390S11657343EA0078000828000000000000
B0341523207333S11657324EA0078600837000000000000
B0341563207319S11657377EA0078800836000000000000
B0342003207364S11657399EA0078500833000000000000
B0342043207412S11657350EA0078500832000000000000
B0342083207440S11657274EA0078800837000000000000
B0342123207438S11657195EA0079700847000000000000
B0342163207385S11657157EA0079900845000000000000
B0342203207338S11657195EA0079300842000000000000
B0342243207343S11657257EA0079700851000000000000
B0342283207394S11657268EA0080600861000000000000
B0342323207411S11657196EA0081500869000000000000
B0342363207360S11657150EA0081800869000000000000
B0342403207315S11657186EA0081600868000000000000
B0342443207334S11657239EA0082500879000000000000
B0342483207386S11657230EA0083200885000000000000
B0342523207410S11657161EA0083700888000000000000
B0342563207372S11657096EA0084100896000000000000
B0343003207316S11657098EA0084300894000000000000
B0343043207293S11657151EA0084100895000000000000
B0343083207325S11657195EA0084400898000000000000
B0343123207382S11657183EA0084800904000000000000
B0343163207411S11657113EA0085300908000000000000
B0343203207378S11657042EA0086200919000000000000
B0343243207321S11657044EA0086600918000000000000
B0343283207306S11657099EA0086100915000000000000
B0343323207336S11657142EA0086800923000000000000
B0343363207388S11657125EA0087500932000000000000
B0343403207410S11657059EA0088200938000000000000
B0343443207376S11656991EA0088100935000000000000
B0343483207313S11656986EA0088700942000000000000
B0343523207281S11657035EA0088600940000000000000
B0343563207299S11657086EA0089000943000000000000
B0344003207347S11657099EA0089100942000000000000
B0344043207386S11657042EA0088600939000000000000
B0344083207377S11656961EA0089500949000000000000
B0344123207319S11656934EA0090400956000000000000
B0344163207281S11656975EA0091000963000000000000
B0344203207298S11657023EA0091600970000000000000
B0344243207346S11657026EA0091900974000000000000
B0344283207382S11656969EA0091900970000000000000
B0344323207358S11656897EA0092800985000000000000
B0344363207302S11656892EA0093400984000000000000
B0344403207276S11656944EA0093400988000000000000
B0344443207299S11656990EA0094400999000000000000
B0344483207350S11656986EA0094200993000000000000
B0344523207385S11656922EA0093700991000000000000
B0344563207384S11656840EA0094200997000000000000
B0345003207334S11656796EA0095001003000000000000
B0345043207286S11656822EA0095101007000000000000
B0345083207280S11656877EA0095701016000000000000
B0345123207315S11656913EA0096501024000000000000
B0345163207365S11656896EA0097101025000000000000
B0345203207385S11656827EA0097601032000000000000
B0345243207350S11656769EA0098201038000000000000
B0345283207298S11656766EA0098601041000000000000
B0345323207272S11656813EA0099001046000000000000
B0345363207297S11656856EA0099801052000000000000
B0345403207345S11656844EA0099601051000000000000
B0345443207364S11656775EA0099901055000000000000
B0345483207330S11656709EA0100301060000000000000
B0345523207276S11656688EA0100901062000000000000
B0345563207233S11656721EA0100901065000000000000
B0346003207226S11656775EA0101501072000000000000
B0346043207256S11656818EA0102201077000000000000
B0346083207307S11656826EA0101801071000000000000
B0346123207352S11656784EA0102001075000000000000
B0346163207355S11656710EA0102401080000000000000
B0346203207306S11656675EA0103101088000000000000
B0346243207265S11656714EA0103001085000000000000
B0346283207280S11656765EA0103101086000000000000
B0346323207332S11656762EA0102801082000000000000
B0346363207371S11656700EA0102801082000000000000
B0346403207372S11656618EA0103601096000000000000
B0346443207324S11656576EA0104701102000000000000
B0346483207269S11656596EA0104201098000000000000
B0346523207251S11656650EA0104501103000000000000
B0346563207276S11656696EA0104401100000000000000
B0347003207328S11656710EA0103801096000000000000
B0347043207389S11656705EA0103601095000000000000
B0347083207454S11656696EA0102901088000000000000
B0347123207520S11656691EA0102501083000000000000
B0347163207585S11656698EA0102001077000000000000
B0347203207648S11656718EA0101501072000000000000
B0347243207706S11656748EA0100601061000000000000
B0347283207762S11656783EA0100101059000000000000
B0347323207793S11656840EA0099801056000000000000
B0347363207779S11656901EA0099201046000000000000
B0347403207729S11656945EA0097901032000000000000
B0347443207666S11656968EA0097501030000000000000
B0347483207601S11656983EA0097001021000000000000
B0347523207532S11656997EA0096101014000000000000
B0347563207460S11657010EA0094900997000000000000
B0348003207388S11657021EA0093300983000000000000
B0348043207312S11657034EA0092700981000000000000
B0348083207239S11657046EA0092900984000000000000
B0348123207169S11657056EA0092300976000000000000
B0348163207098S11657069EA0091900973000000000000
B0348203207031S11657087EA0091700971000000000000
B0348243206964S11657109EA0091300966000000000000
B0348283206896S11657130EA0090600959000000000000
B0348323206827S11657150EA0089900951000000000000
B0348363206757S11657169EA0088900939000000000000
B0348403206686S11657189EA0087700927000000000000
B0348443206610S11657208EA0086600919000000000000
B0348483206537S11657225EA0086300918000000000000
B0348523206470S11657243EA0086800923000000000000
B0348563206409S11657270EA0087500930000000000000
B0349003206354S11657304EA0087400928000000000000
B0349043206307S11657351EA0087000923000000000000
B0349083206267S11657404EA0086500916000000000000
B0349123206216S11657450EA0085700907000000000000
B0349163206150S11657478EA0085000898000000000000
B0349203206076S11657489EA0083900889000000000000
B0349243206000S11657491EA0083200881000000000000
B0349283205925S11657488EA0082800879000000000000
B0349323205852S11657473EA0082900878000000000000
B0349363205782S11657455EA0082600877000000000000
B0349403205714S11657433EA0082200868000000000000
B0349443205647S11657403EA0081100856000000000000
B0349483205579S11657373EA0080800859000000000000
B0349523205514S11657363EA0081500865000000000000
B0349563205465S11657395EA0082500878000000000000
B0350003205451S11657449EA0084200897000000000000
B0350043205496S11657460EA0085900913000000000000
B0350083205530S11657397EA0086200915000000000000
B0350123205500S11657333EA0086900924000000000000
B0350163205452S11657345EA0087700929000000000000
B0350203205461S11657395EA0088700940000000000000
B0350243205516S11657389EA0090000954000000000000
B0350283205539S11657321EA0090800964000000000000
B0350323205508S11657263EA0091500968000000000000
B0350363205456S11657264EA0091700971000000000000
B0350403205434S11657315EA0092100976000000000000
B0350443205477S11657343EA0093300992000000000000
B0350483205521S11657298EA0095101009000000000000
B0350523205514S11657229EA0095901013000000000000
B0350563205464S11657202EA0096101018000000000000
B0351003205427S11657238EA0096901024000000000000
B0351043205447S11657285EA0098101037000000000000
B0351083205497S11657270EA0099501053000000000000
B0351123205514S11657203EA0100301059000000000000
B0351163205482S11657147EA0100701063000000000000
B0351203205431S11657153EA0101001066000000000000
B0351243205421S11657208EA0101401074000000000000
B0351283205462S11657234EA0102701092000000000000
B0351323205509S11657191EA0104001101000000000000
B0351363205508S11657114EA0104501109000000000000
B0351403205461S11657073EA0105101110000000000000
B0351443205410S11657088EA0104301103000000000000
B0351483205391S11657139EA0104901112000000000000
B0351523205421S11657179EA0105901123000000000000
B0351563205470S11657148EA0106401124000000000000
B0352003205461S11657070EA0106901133000000000000
B0352043205410S11657056EA0107701139000000000000
B0352083205389S11657101EA0107701139000000000000
B0352123205412S11657151EA0108001143000000000000
B0352163205466S11657144EA0108801155000000000000
B0352203205486S11657077EA0109901162000000000000
B0352243205447S11657027EA0110301163000000000000
B0352283205397S11657042EA0110001162000000000000
B0352323205389S11657095EA0110701170000000000000
B0352363205431S11657125EA0111001173000000000000
B0352403205484S11657092EA0111401177000000000000
B0352443205493S11657017EA0112001184000000000000
B0352483205453S11656962EA0112301183000000000000
B0352523205402S11656973EA0111701179000000000000
B0352563205383S11657023EA0112101182000000000000
B0353003205389S11657079EA0112001181000000000000
B0353043205435S11657108EA0112101184000000000000
B0353083205490S11657083EA0112801191000000000000
B0353123205508S11657016EA0113001190000000000000
B0353163205465S11656968EA0112901192000000000000
B0353203205422S11656991EA0113201192000000000000
B0353243205421S11657044EA0113201192000000000000
B0353283205464S11657079EA0113201196000000000000
B0353323205521S11657062EA0113901203000000000000
B0353363205545S11656997EA0114601212000000000000
B0353403205521S11656935EA0114901211000000000000
B0353443205469S11656922EA0114401207000000000000
B0353483205412S11656943EA0113801196000000000000
B0353523205348S11656953EA0113301196000000000000
B0353563205282S11656955EA0113601201000000000000
B0354003205213S11656949EA0113701200000000000000
B0354043205144S11656945EA0113601199000000000000
B0354083205075S11656951EA0113701201000000000000
B0354123205044S11657007EA0115401221000000000000
B0354163205080S11657051EA0116201224000000000000
B0354203205139S11657033EA0115301218000000000000
B0354243205163S11656966EA0115301218000000000000
B0354283205141S11656896EA0115001213000000000000
B0354323205088S11656848EA0114601212000000000000
B0354363205025S11656832EA0115101218000000000000
B0354403204975S11656862EA0115501222000000000000
B0354443204927S11656903EA0115101215000000000000
B0354483204864S11656916EA0114401209000000000000
B0354523204799S11656908EA0114001206000000000000
B0354563204733S11656891EA0113801204000000000000
B0355003204667S11656871EA0113701202000000000000
B0355043204603S11656854EA0113601202000000000000
B0355083204541S11656840EA0113501200000000000000
B0355123204478S11656826EA0113101194000000000000
B0355163204417S11656813EA0112501189000000000000
B0355203204356S11656800EA0112101183000000000000
B0355243204296S11656783EA0111401178000000000000
B0355283204238S11656766EA0111001174000000000000
B0355323204180S11656749EA0110801170000000000000
B0355363204122S11656731EA0110401164000000000000
B0355403204063S11656713EA0109701159000000000000
B0355443204005S11656695EA0109201153000000000000
B0355483203946S11656675EA0108901151000000000000
B0355523203888S11656658EA0108701148000000000000
B0355563203831S11656640EA0108401143000000000000
B0356003203774S11656620EA0107701137000000000000
B0356043203716S11656598EA0107201127000000000000
B0356083203657S11656574EA0106101115000000000000
B0356123203592S11656549EA0105301110000000000000
B0356163203527S11656535EA0105201110000000000000
B0356203203465S11656554EA0105601116000000000000
B0356243203426S11656602EA0106001118000000000000
B0356283203404S11656663EA0105801116000000000000
B0356323203380S11656726EA0105101110000000000000
B0356363203335S11656774EA0104601107000000000000
B0356403203276S11656797EA0104601107000000000000
B0356443203211S11656799EA0104701108000000000000
B0356483203146S11656786EA0104701108000000000000
B0356523203082S11656760EA0104601106000000000000
B0356563203021S11656723EA0104101101000000000000
B0357003202961S11656687EA0104101097000000000000
B0357043202901S11656650EA0103601091000000000000
B0357083202841S11656614EA0102901086000000000000
B0357123202780S11656581EA0102601082000000000000
B0357163202719S11656546EA0102001075000000000000
B0357203202658S11656511EA0101601070000000000000
B0357243202594S11656477EA0100801061000000000000
B0357283202529S11656445EA0100401059000000000000
B0357323202466S11656412EA0100001055000000000000
B0357363202402S11656383EA0099701049000000000000
B0357403202338S11656353EA0099701051000000000000
B0357443202279S11656345EA0100301060000000000000
B0357483202242S11656388EA0100701062000000000000
B0357523202260S11656441EA0100701063000000000000
B0357563202315S11656450EA0100601061000000000000
B0358003202368S11656405EA0100501061000000000000
B0358043202370S11656328EA0101001068000000000000
B0358083202320S11656292EA0101201064000000000000
B0358123202290S11656336EA0101101066000000000000
B0358163202323S11656373EA0101401066000000000000
B0358203202379S11656351EA0100901063000000000000
B0358243202411S11656292EA0100901061000000000000
B0358283202393S11656223EA0100801063000000000000
B0358323202349S11656176EA0100501057000000000000
B0358363202295S11656147EA0100101050000000000000
B0358403202237S11656128EA0100001053000000000000
B0358443202186S11656150EA0100601061000000000000
B0358483202194S11656201EA0100501053000000000000
B0358523202250S11656199EA0099601047000000000000
B0358563202282S11656133EA0100001056000000000000
B0359003202271S11656059EA0100501057000000000000
B0359043202219S11656026EA0100901064000000000000
B0359083202186S11656068EA0101401070000000000000
B0359123202216S11656104EA0101901072000000000000
B0359163202264S11656068EA0102001077000000000000
B0359203202266S11655991EA0102501080000000000000
B0359243202216S11655947EA0102801083000000000000
B0359283202175S11655977EA0102901083000000000000
B0359323202193S11656022EA0103201089000000000000
B0359363202245S11656009EA0103701091000000000000
B0359403202273S11655942EA0103801093000000000000
B0359443202254S11655868EA0103801088000000000000
B0359483202203S11655834EA0102901079000000000000
B0359523202163S11655868EA0102001071000000000000
B0359563202146S11655926EA0101301067000000000000
B0400003202137S11655991EA0101301068000000000000
B0400043202138S11656059EA0100501061000000000000
B0400083202121S11656128EA0099501050000000000000
B0400123202072S11656177EA0099401053000000000000
B0400163202008S11656194EA0099701055000000000000
B0400203201943S11656189EA0099501051000000000000
B0400243201878S11656171EA0099101044000000000000
B0400283201811S11656152EA0098301036000000000000
B0400323201743S11656132EA0097501028000000000000
B0400363201674S11656108EA0097101024000000000000
B0400403201605S11656087EA0096501017000000000000
B0400443201535S11656071EA0096001010000000000000
B0400483201461S11656063EA0095300998000000000000
B0400523201387S11656059EA0094100992000000000000
B0400563201317S11656061EA0093700986000000000000
B0401003201252S11656072EA0093000982000000000000
B0401043201196S11656103EA0092900981000000000000
B0401083201151S11656152EA0092600977000000000000
B0401123201119S11656211EA0092200974000000000000
B0401163201096S11656273EA0091700967000000000000
B0401203201089S11656342EA0091100960000000000000
B0401243201112S11656406EA0090400953000000000000
B0401283201166S11656437EA0090200953000000000000
B0401323201229S11656425EA0089800949000000000000
B0401363201288S11656376EA0089200941000000000000
B0401403201337S11656307EA0088200928000000000000
B0401443201380S11656232EA0087400921000000000000
B0401483201421S11656155EA0086200909000000000000
B0401523201470S11656086EA0085100897000000000000
B0401563201526S11656028EA0084000885000000000000
B0402003201588S11655978EA0083200875000000000000
B0402043201652S11655934EA0082200866000000000000
B0402083201718S11655898EA0081300855000000000000
B0402123201788S11655869EA0080200842000000000000
B0402163201861S11655847EA0079300838000000000000
B0402203201934S11655830EA0078700829000000000000
B0402243202009S11655820EA0077800821000000000000
B0402283202082S11655817EA0077400819000000000000
B0402323202154S11655814EA0076700811000000000000
B0402363202225S11655821EA0075800795000000000000
B0402403202293S11655846EA0074600786000000000000
B0402443202359S11655885EA0074200783000000000000
B0402483202414S11655938EA0073900780000000000000
B0402523202457S11655999EA0073600776000000000000
B0402563202480S11656071EA0073000770000000000000
B0403003202483S11656146EA0072100758000000000000
B0403043202470S11656225EA0070800743000000000000
B0403083202449S11656303EA0069800735000000000000
B0403123202419S11656380EA0069000723000000000000
B0403163202375S11656450EA0067600707000000000000
B0403203202312S11656505EA0066200692000000000000
B0403243202240S11656549EA0065100685000000000000
B0403283202164S11656581EA0065100683000000000000
B0403323202086S11656601EA0064900680000000000000
B0403363202006S11656607EA0064600680000000000000
B0403403201933S11656631EA0065500689000000000000
B0403443201926S11656689EA0067300709000000000000
B0403483201981S11656685EA0067300707000000000000
B0403523202004S11656609EA0067800715000000015000
B0403563201955S11656554EA0068800723000000015000
B0404003201903S11656578EA0069000727000000015000
B0404043201909S11656631EA0069000725000000000000
B0404083201963S11656640EA0068400717000000000000
B0404123201994S11656578EA0068900729000000000000
B0404163201954S11656522EA0069900735000000000000
B0404203201905S11656550EA0070000736000000000000
B0404243201935S11656596EA0070000739000000000000
B0404283201990S11656568EA0070400743000000000000
B0404323201986S11656493EA0070900749000000000000
B0404363201930S11656455EA0071200751000000000000
B0404403201891S11656494EA0071400755000000000000
B0404443201922S11656536EA0071600759000000000000
B0404483201972S11656506EA0072100763000000000000
B0404523201970S11656433EA0072700769000000000000
B0404563201916S11656398EA0072800769000000000000
B0405003201876S11656436EA0073000772000000000000
B0405043201900S11656477EA0073400777000000000000
B0405083201948S11656449EA0073700777000000000000
B0405123201942S11656375EA0074100783000000000000
B0405163201886S11656341EA0074100779000000000000
B0405203201851S11656385EA0074100780000000000000
B0405243201895S11656412EA0074200783000000000000
B0405283201935S11656364EA0074400789000000000000
B0405323201917S11656290EA0074800792000000000000
B0405363201860S11656266EA0074700791000000000000
B0405403201824S11656303EA0075000793000000000000
B0405443201844S11656350EA0074700792000000000000
B0405483201896S11656346EA0074800791000000000000
B0405523201933S11656290EA0075200797000000000000
B0405563201929S11656217EA0075800804000000000000
B0406003201874S11656191EA0075700801000000000000
B0406043201850S11656236EA0075700801000000000000
B0406083201885S11656267EA0075400797000000000000
B0406123201928S11656223EA0075700802000000000000
B0406163201917S11656146EA0076000804000000000000
B0406203201857S11656117EA0075700798000000000000
B0406243201821S11656158EA0075700802000000000000
B0406283201846S11656199EA0075800799000000000000
B0406323201896S11656182EA0075500798000000000000
B0406363201933S11656120EA0075800799000000000000
B0406403201926S11656039EA0076000806000000000000
B0406443201870S11656007EA0076200801000000000000
B0406483201833S11656048EA0075400794000000000000
B0406523201856S11656100EA0074800788000000000000
B0406563201915S11656098EA0074900792000000000000
B0407003201967S11656046EA0075300796000000000000
B0407043201960S11655965EA0075900802000000000000
B0407083201904S11655931EA0075600795000000000000
B0407123201860S11655970EA0075300793000000000000
B0407163201855S11656032EA0075100795000000000000
B0407203201902S11656048EA0076400810000000000000
B0407243201918S11655981EA0077400818000000000000
B0407283201869S11655941EA0077200814000000000000
B0407323201835S11655982EA0077200815000000000000
B0407363201870S11656019EA0077800824000000000000
B0407403201917S11655976EA0078800835000000000000
B0407443201903S11655902EA0079200837000000000000
B0407483201846S11655890EA0079200835000000000000
B0407523201831S11655941EA0079400842000000000000
B0407563201874S11655964EA0080100849000000000000
B0408003201921S11655915EA0080500851000000000000
B0408043201909S11655834EA0080900856000000000000
B0408083201852S11655805EA0081000856000000000000
B0408123201808S11655844EA0081100857000000000000
B0408163201818S11655898EA0081100862000000000000
B0408203201870S11655895EA0081900869000000000000
B0408243201909S11655833EA0082100869000000000000
B0408283201890S11655757EA0082400870000000000000
B0408323201833S11655757EA0082000867000000000000
B0408363201813S11655813EA0082200873000000000000
B0408403201855S11655839EA0082700878000000000000
B0408443201894S11655781EA0082900876000000000000
B0408483201872S11655703EA0083000879000000000000
B0408523201812S11655687EA0083000879000000000000
B0408563201788S11655739EA0083300884000000000000
B0409003201825S11655772EA0083500886000000000000
B0409043201879S11655740EA0083800887000000000000
B0409083201892S11655661EA0083900889000000000000
B0409123201851S11655601EA0084100891000000000000
B0409163201798S11655610EA0084200890000000000000
B0409203201791S11655665EA0084100890000000000000
B0409243201835S11655695EA0083900886000000000000
B0409283201894S11655668EA0083800887000000000000
B0409323201937S11655599EA0083400883000000000000
B0409363201942S11655515EA0083900891000000000000
B0409403201899S11655467EA0084100887000000000000
B0409443201853S11655492EA0082800872000000000000
B0409483201840S11655554EA0081500862000000000000
B0409523201839S11655626EA0081000858000000000000
B0409563201842S11655696EA0081200861000000000000
B0410003201851S11655766EA0080900856000000000000
B0410043201857S11655838EA0080700854000000000000
B0410083201864S11655911EA0080400850000000000000
B0410123201868S11655985EA0080000849000000000000
B0410163201873S11656056EA0080200849000000000000
B0410203201904S11656116EA0080700857000000000000
B0410243201963S11656123EA0081500862000000000000
B0410283201994S11656052EA0082000866000000000000
B0410323201961S11655974EA0081900861000000000000
B0410363201895S11655959EA0081400859000000000000
B0410403201857S11656009EA0081500860000000000000
B0410443201874S11656065EA0081700861000000000000
B0410483201931S11656056EA0081700863000000000000
B0410523201952S11655980EA0081800864000000000000
B0410563201915S11655908EA0081800861000000000000
B0411003201851S11655903EA0081600858000000000000
B0411043201820S11655956EA0081400858000000000000
B0411083201843S11656009EA0081100854000000000000
B0411123201900S11655998EA0081000855000000000000
B0411163201930S11655926EA0081400859000000000000
B0411203201937S11655844EA0081500860000000000000
B0411243201900S11655783EA0081800860000000000000
B0411283201844S11655768EA0080900852000000000000
B0411323201785S11655774EA0080200845000000000000
B0411363201725S11655788EA0080000844000000000000
B0411403201668S11655807EA0079900842000000000000
B0411443201610S11655827EA0079600841000000000000
B0411483201553S11655850EA0079600839000000000000
B0411523201499S11655879EA0078800831000000000000
B0411563201461S11655928EA0079000836000000000000
B0412003201460S11655980EA0079700840000000000000
B0412043201500S11656013EA0079400836000000000000
B0412083201556S11656008EA0079400837000000000000
B0412123201584S11655942EA0079400836000000000000
B0412163201554S11655872EA0078700827000000000000
B0412203201489S11655856EA0077700816000000000000
B0412243201427S11655877EA0076800809000000000000
B0412283201378S11655918EA0076600807000000000000
B0412323201343S11655976EA0076300809000000000000
B0412363201322S11656039EA0076500809000000000000
B0412403201313S11656108EA0076400810000000000000
B0412443201307S11656180EA0076600810000000000000
B0412483201306S11656253EA0076500809000000000000
B0412523201332S11656312EA0077100817000000000000
B0412563201385S11656294EA0078100824000000000000
B0413003201393S11656221EA0077600812000000000000
B0413043201345S11656165EA0076800809000000000000
B0413083201280S11656167EA0076600808000000000000
B0413123201233S11656211EA0076900813000000000000
B0413163201254S11656260EA0078300826000000000000
B0413203201304S11656227EA0078100823000000000000
B0413243201283S11656152EA0078200826000000000000
B0413283201220S11656147EA0078100822000000000000
B0413323201214S11656207EA0078600828000000000000
B0413363201270S11656197EA0080500848000000000000
B0413403201272S11656128EA0081300846000000000000
B0413443201216S11656108EA0080500840000000000000
B0413483201209S11656167EA0081000852000000000000
B0413523201262S11656158EA0082100862000000000000
B0413563201271S11656085EA0082000858000000000000
B0414003201215S11656054EA0081800858000000000000
B0414043201181S11656106EA0082000864000000015000
B0414083201226S11656137EA0083200877000000000000
B0414123201267S11656091EA0083700874000000000000
B0414163201254S11656015EA0083300872000000000000
B0414203201197S11655991EA0083200872000000000000
B0414243201153S11656038EA0083500879000000000000
B0414283201179S11656080EA0085000897000000000000
B0414323201224S11656050EA0085300897000000000000
B0414363201227S11655978EA0085300897000000000000
B0414403201181S11655931EA0084900892000000000000
B0414443201127S11655948EA0084900895000000000000
B0414483201097S11656002EA0085400902000000000000
B0414523201123S11656041EA0086400916000000000000
B0414563201164S11656000EA0086700910000000000000
B0415003201145S11655929EA0086600918000000000000
B0415043201089S11655941EA0087400921000000000000
B0415083201101S11655994EA0088200933000000000000
B0415123201154S11655973EA0089300944000000000000
B0415163201157S11655898EA0089900946000000000000
B0415203201101S11655864EA0090600957000000000000
B0415243201055S11655905EA0091100959000000000000
B0415283201079S11655950EA0092000974000000000000
B0415323201129S11655929EA0093000980000000000000
B0415363201137S11655855EA0093600988000000000000
B0415403201083S11655811EA0094100994000000000000
B0415443201028S11655837EA0094200993000000000000
B0415483201029S11655895EA0095001007000000000000
B0415523201075S11655899EA0096301018000000000000
B0415563201090S11655829EA0096501016000000000000
B0416003201037S11655783EA0097001022000000000000
B0416043200988S11655816EA0097301024000000000000
B0416083200990S11655872EA0097501033000000000000
B0416123201041S11655876EA0098301040000000000000
B0416163201062S11655807EA0099301052000000000000
B0416203201014S11655760EA0100101057000000000000
B0416243200959S11655787EA0100101056000000000000
B0416283200947S11655848EA0100101058000000000000
B0416323200999S11655848EA0101401073000000000000
B0416363201007S11655777EA0102401083000000000000
B0416403200953S11655742EA0103001087000000000000
B0416443200912S11655787EA0103401090000000000000
B0416483200945S11655833EA0103801098000000000000
B0416523200988S11655791EA0104501100000000000000
B0416563200960S11655721EA0104801106000000000000
B0417003200903S11655716EA0105701119000000000000
B0417043200869S11655761EA0106001117000000000000
B0417083200894S11655804EA0106201123000000000000
B0417123200945S11655782EA0106601126000000000000
B0417163200956S11655707EA0106901131000000000000
B0417203200917S11655644EA0107301135000000000000
B0417243200859S11655649EA0106801123000000000000
B0417283200837S11655708EA0106501124000000000000
B0417323200864S11655757EA0106801127000000000000
B0417363200919S11655772EA0106901129000000000000
B0417403200975S11655730EA0106801127000000000000
B0417443200998S11655649EA0107501137000000000000
B0417483200969S11655573EA0108101142000000000000
B0417523200907S11655562EA0108101142000000000000
B0417563200865S11655606EA0108001140000000000000
B0418003200865S11655665EA0108001140000000000000
B0418043200901S11655709EA0107701133000000000000
B0418083200958S11655714EA0107201127000000000000
B0418123200999S11655653EA0107001130000000000000
B0418163200982S11655580EA0108101142000000000000
B0418203200924S11655579EA0108101137000000000000
B0418243200914S11655642EA0107901140000000000000
B0418283200962S11655675EA0108101139000000000000
B0418323201016S11655636EA0108301141000000000000
B0418363201023S11655557EA0108301143000000000000
B0418403200977S11655500EA0108501142000000000000
B0418443200915S11655506EA0108201138000000000000
B0418483200885S11655565EA0108301142000000000000
B0418523200906S11655622EA0108601147000000000000
B0418563200956S11655649EA0108601143000000000000
B0419003201012S11655613EA0108201140000000000000
B0419043201021S11655539EA0108701145000000000000
B0419083200973S11655493EA0108301141000000000000
B0419123200907S11655476EA0108101139000000000000
B0419163200837S11655469EA0108201137000000000000
B0419203200765S11655470EA0108101138000000000000
B0419243200706S11655501EA0108201136000000000000
B0419283200686S11655564EA0107801132000000000000
B0419323200717S11655613EA0106901124000000000000
B0419363200769S11655645EA0106301117000000000000
B0419403200825S11655661EA0106401119000000000000
B0419443200884S11655647EA0105701112000000000000
B0419483200932S11655586EA0104901105000000000000
B0419523200938S11655504EA0104901106000000000000
B0419563200891S11655447EA0105101110000000000000
B0420003200829S11655430EA0104901106000000000000
B0420043200763S11655430EA0104301098000000000000
B0420083200691S11655431EA0103401090000000000000
B0420123200618S11655436EA0103001083000000000000
B0420163200546S11655443EA0102401078000000000000
B0420203200472S11655443EA0101801074000000000000
B0420243200400S11655421EA0101501071000000000000
B0420283200330S11655392EA0100701063000000000000
B0420323200260S11655357EA0099701052000000000000
B0420363200192S11655310EA0099001046000000000000
B0420403200127S11655259EA0098801044000000000000
B0420443200069S11655201EA0098401039000000000000
B0420483200011S11655137EA0098001032000000000000
B0420523159955S11655072EA0097301028000000000000
B0420563159901S11655010EA0096801024000000000000
B0421003159845S11654950EA0096401016000000000000
B0421043159789S11654889EA0095301005000000000000
B0421083159731S11654834EA0094901005000000000000
B0421123159668S11654797EA0094601000000000000000
B0421163159604S11654767EA0094100997000000000000
B0421203159538S11654745EA0093900993000000000000
B0421243159472S11654734EA0094000996000000000000
B0421283159421S11654765EA0094501002000000000000
B0421323159408S11654823EA0094601003000000000000
B0421363159428S11654877EA0094300999000000000000
B0421403159455S11654930EA0093900993000000000000
B0421443159498S11654971EA0093900993000000000000
B0421483159551S11654954EA0093700991000000000000
B0421523159569S11654878EA0093200984000000000000
B0421563159545S11654798EA0092400975000000000000
B0422003159508S11654721EA0091700972000000000000
B0422043159467S11654650EA0091800972000000000000
B0422083159422S11654585EA0091400968000000000000
B0422123159377S11654521EA0091600969000000000000
B0422163159334S11654456EA0091300965000000000000
B0422203159290S11654392EA0090400957000000000000
B0422243159238S11654335EA0090100956000000000000
B0422283159188S11654282EA0090000957000000000000
B0422323159139S11654231EA0089900953000000000000
B0422363159084S11654189EA0089600951000000000000
B0422403159026S11654156EA0089500950000000000000
B0422443158969S11654152EA0089700952000000000000
B0422483158932S11654192EA0090100956000000000000
B0422523158944S11654247EA0090000952000000000000
B0422563159000S11654241EA0089500947000000000000
B0423003159016S11654166EA0088400932000000000000
B0423043158978S11654093EA0087800931000000000000
B0423083158922S11654039EA0088300940000000000000
B0423123158863S11654043EA0089400948000000000000
B0423163158876S11654088EA0089900958000000000000
B0423203158923S11654053EA0090800964000000000000
B0423243158913S11653976EA0091300970000000000000
B0423283158857S11653944EA0091800968000000000000
B0423323158819S11653985EA0091600973000000000000
B0423363158854S11654013EA0092200983000000000000
B0423403158893S11653957EA0092600982000000000000
B0423443158869S11653880EA0093200989000000000000
B0423483158810S11653854EA0093300990000000000000
B0423523158770S11653892EA0093500995000000000000
B0423563158791S11653937EA0093900998000000000000
B0424003158836S11653902EA0094100998000000000000
B0424043158818S11653823EA0094100996000000000000
B0424083158758S11653807EA0093700995000000000000
B0424123158726S11653857EA0093900998000000000000
B0424163158750S11653902EA0094701006000000000000
B0424203158804S11653887EA0095001010000000000000
B0424243158826S11653811EA0095701020000000000000
B0424283158792S11653744EA0096201019000000000000
B0424323158739S11653754EA0095701016000000000000
B0424363158733S11653809EA0095501014000000000000
B0424403158749S11653868EA0095201013000000000000
B0424443158780S11653922EA0095801021000000000000
B0424483158835S11653905EA0097101034000000000000
B0424523158832S11653824EA0097701039000000000000
B0424563158770S11653801EA0097801041000000000000
B0425003158743S11653854EA0097901042000000000000
B0425043158792S11653871EA0099201061000000000000
B0425083158818S11653801EA0100801071000000000000
B0425123158779S11653733EA0101201075000000000000
B0425163158719S11653728EA0101201076000000000000
B0425203158693S11653783EA0101101074000000000000
B0425243158718S11653838EA0101201076000000000000
B0425283158778S11653840EA0102001088000000000000
B0425323158801S11653763EA0103001093000000000000
B0425363158750S11653705EA0103101096000000000000
B0425403158693S11653728EA0103401097000000000000
B0425443158702S11653786EA0104101107000000000000
B0425483158754S11653760EA0105401119000000000000
B0425523158752S11653685EA0105901123000000000000
B0425563158694S11653660EA0105901122000000000000
B0426003158663S11653711EA0105301112000000000000
B0426043158689S11653764EA0105401116000000000000
B0426083158740S11653725EA0106301126000000000000
B0426123158728S11653651EA0107301136000000000000
B0426163158672S11653641EA0107501133000000000000
B0426203158661S11653694EA0106901130000000000000
B0426243158711S11653699EA0107301136000000000000
B0426283158730S11653630EA0107801142000000000000
B0426323158685S11653576EA0107901142000000000000
B0426363158633S11653595EA0107801137000000000000
B0426403158632S11653653EA0107501140000000000000
B0426443158678S11653675EA0108201147000000000000
B0426483158718S11653624EA0108701148000000000000
B0426523158702S11653550EA0108501148000000000000
B0426563158648S11653521EA0108401147000000000000
B0427003158605S11653558EA0107901140000000000000
B0427043158602S11653616EA0107801141000000000000
B0427083158611S11653676EA0107401135000000000000
B0427123158636S11653738EA0107101134000000000000
B0427163158667S11653794EA0107401138000000000000
B0427203158711S11653833EA0107501136000000000000
B0427243158771S11653823EA0107101130000000000000
B0427283158802S11653754EA0107301135000000000000
B0427323158784S11653676EA0107001133000000000000
B0427363158750S11653607EA0107001131000000000000
B0427403158707S11653543EA0106801127000000000000
B0427443158653S11653491EA0106701127000000000000
B0427483158588S11653477EA0106501125000000000000
B0427523158525S11653493EA0106301123000000000000
B0427563158490S11653543EA0106301125000000000000
B0428003158473S11653603EA0106101123000000000000
B0428043158458S11653667EA0106301126000000000000
B0428083158450S11653734EA0106001122000000000000
B0428123158445S11653806EA0105401114000000000000
B0428163158444S11653879EA0104801109000000000000
B0428203158433S11653952EA0104101102000000000000
B0428243158407S11654022EA0103201090000000000000
B0428283158367S11654085EA0102701087000000000000
B0428323158317S11654136EA0102501087000000000000
B0428363158260S11654175EA0102401083000000000000
B0428403158197S11654201EA0102101079000000000000
B0428443158130S11654221EA0102201083000000000000
B0428483158067S11654238EA0102301084000000000000
B0428523158002S11654257EA0102201084000000000000
B0428563157938S11654278EA0102201083000000000000
B0429003157873S11654299EA0101901078000000000000
B0429043157810S11654319EA0101601073000000000000
B0429083157745S11654340EA0100801066000000000000
B0429123157680S11654358EA0100201059000000000000
B0429163157615S11654375EA0099601054000000000000
B0429203157552S11654391EA0099101047000000000000
B0429243157488S11654408EA0098001034000000000000
B0429283157426S11654425EA0097201027000000000000
B0429323157365S11654444EA0096301019000000000000
B0429363157302S11654464EA0095701011000000000000
B0429403157240S11654482EA0095601014000000000000
B0429443157183S11654505EA0095801015000000000000
B0429483157136S11654546EA0095701015000000000000
B0429523157103S11654596EA0096301021000000000000
B0429563157118S11654644EA0096801025000000000000
B0430003157171S11654621EA0095801010000000000000
B0430043157172S11654537EA0094901003000000000000
B0430083157123S11654474EA0094701000000000000000
B0430123157055S11654449EA0094701004000000000000
B0430163157001S11654475EA0095301009000000000000
B0430203156978S11654535EA0095101007000000000000
B0430243156967S11654602EA0095001005000000000000
B0430283156958S11654673EA0094000992000000000000
B0430323156946S11654750EA0093100981000000000000
B0430363156915S11654823EA0092300974000000000000
B0430403156864S11654881EA0091200962000000000000
B0430443156800S11654925EA0090000952000000000000
B0430483156730S11654954EA0089800949000000000000
B0430523156657S11654975EA0088700934000000000000
B0430563156582S11654988EA0087600925000000000000
B0431003156508S11654995EA0087300922000000000000
B0431043156435S11655002EA0086800917000000000000
B0431083156364S11655005EA0086400911000000000000
B0431123156293S11655008EA0086200911000000000000
B0431163156226S11655018EA0085900907000000000000
B0431203156162S11655038EA0085700906000000000000
B0431243156113S11655077EA0085900909000000000000
B0431283156070S11655123EA0086600916000000000000
B0431323156041S11655180EA0086700916000000000000
B0431363156018S11655244EA0086300909000000000000
B0431403155997S11655311EA0085600903000000000000
B0431443155990S11655382EA0085200900000000000000
B0431483155992S11655450EA0084800893000000000000
B0431523155980S11655519EA0083500878000000000000
B0431563155937S11655578EA0083000877000000000000
B0432003155879S11655619EA0083300881000000000000
B0432043155816S11655655EA0083600884000000000000
B0432083155763S11655700EA0083500887000000000000
B0432123155741S11655756EA0084900899000000000000
B0432163155781S11655782EA0085000900000000000000
B0432203155816S11655723EA0084500892000000000000
B0432243155792S11655649EA0084700897000000000000
B0432283155730S11655632EA0084900897000000000000
B0432323155697S11655679EA0085000898000000000000
B0432363155732S11655717EA0084800897000000000000
B0432403155784S11655687EA0085400905000000000000
B0432443155802S11655618EA0085600905000000000000
B0432483155764S11655556EA0085700906000000000000
B0432523155707S11655564EA0085600904000000000000
B0432563155702S11655618EA0085900907000000000000
B0433003155751S11655636EA0085500904000000000000
B0433043155795S11655588EA0085500905000000000000
B0433083155777S11655513EA0085600905000000000000
B0433123155719S11655487EA0086000908000000000000
B0433163155678S11655528EA0085500903000000000000
B0433203155656S11655591EA0084800899000000000000
B0433243155641S11655657EA0085100904000000000000
B0433283155656S11655717EA0086200917000000000000
B0433323155707S11655699EA0087800933000000000000
B0433363155698S11655629EA0088300932000000000000
B0433403155639S11655614EA0088100932000000000000
B0433443155611S11655662EA0088700940000000000000
B0433483155650S11655697EA0089100942000000000000
B0433523155704S11655658EA0089500947000000000000
B0433563155704S11655582EA0090100952000000000000
B0434003155652S11655540EA0090000953000000000000
B0434043155616S11655575EA0090500959000000000000
B0434083155633S11655627EA0091200966000000000000
B0434123155689S11655632EA0091700971000000000000
B0434163155721S11655573EA0092200975000000000000
B0434203155691S11655508EA0091900971000000000000
B0434243155634S11655510EA0092000973000000000000
B0434283155607S11655562EA0092500982000000000000
B0434323155649S11655591EA0093000983000000000000
B0434363155677S11655523EA0092700983000000000000
B0434403155630S11655469EA0093400992000000000000
B0434443155580S11655491EA0094101001000000000000
B0434483155593S11655544EA0095001009000000000000
B0434523155649S11655541EA0095901020000000000000
B0434563155682S11655479EA0096601022000000000000
B0435003155669S11655405EA0096201020000000000000
B0435043155616S11655358EA0096201020000000000000
B0435083155559S11655367EA0096501022000000000000
B0435123155522S11655418EA0097101031000000000000
B0435163155529S11655475EA0098101043000000000000
B0435203155584S11655476EA0098701051000000000000
B0435243155585S11655402EA0099101051000000000000
B0435283155520S11655387EA0099401060000000000000
B0435323155496S11655448EA0100501070000000000000
B0435363155539S11655495EA0101701083000000000000
B0435403155595S11655471EA0102401089000000000000
B0435443155603S11655395EA0103301099000000000000
B0435483155552S11655343EA0104201107000000000000
B0435523155494S11655361EA0104901114000000000000
B0435563155480S11655427EA0105401120000000000000
B0436003155520S11655475EA0105301116000000000000
B0436043155580S11655448EA0105401121000000000000
B0436083155600S11655369EA0106401135000000000000
B0436123155573S11655300EA0107801151000000000000
B0436163155515S11655281EA0108901157000000000000
B0436203155470S11655324EA0109501167000000000000
B0436243155478S11655384EA0110001167000000000000
B0436283155533S11655404EA0109201157000000000000
B0436323155584S11655357EA0109401164000000000000
B0436363155602S11655280EA0110201172000000000000
B0436403155578S11655210EA0110901178000000000000
B0436443155526S11655203EA0111901188000000000000
B0436483155512S11655258EA0112501198000000000000
B0436523155558S11655289EA0113401205000000000000
B0436563155607S11655244EA0113901211000000000000
B0437003155602S11655166EA0114601220000000000000
B0437043155554S11655128EA0115301227000000000000
B0437083155511S11655159EA0115901234000000000000
B0437123155516S11655216EA0116401239000000000000
B0437163155571S11655239EA0116901247000000000000
B0437203155624S11655194EA0118001252000000000000
B0437243155636S11655115EA0118301255000000000000
B0437283155602S11655050EA0118401255000000000000
B0437323155545S11655041EA0118601256000000000000
B0437363155504S11655081EA0118601256000000000000
B0437403155493S11655142EA0118801257000000000000
B0437443155526S11655190EA0119101263000000000000
B0437483155586S11655194EA0119401259000000000000
B0437523155630S11655136EA0119101262000000000000
B0437563155621S11655060EA0119801265000000000000
B0438003155571S11655034EA0119601265000000000000
B0438043155538S11655081EA0119301261000000000000
B0438083155556S11655141EA0119701268000000000000
B0438123155621S11655140EA0119901269000000000000
B0438163155667S11655077EA0120501275000000000000
B0438203155663S11654998EA0120601275000000000000
B0438243155620S11654945EA0120301271000000000000
B0438283155563S11654920EA0119701259000000000000
B0438323155498S11654897EA0118501247000000000000
B0438363155431S11654878EA0118301253000000000000
B0438403155365S11654865EA0118701253000000000000
B0438443155296S11654858EA0118301248000000000000
B0438483155226S11654856EA0118101247000000000000
B0438523155153S11654852EA0117601239000000000000
B0438563155079S11654845EA0116301228000000000000
B0439003155004S11654834EA0115601219000000000000
B0439043154927S11654821EA0114901211000000000000
B0439083154850S11654802EA0114401206000000000000
B0439123154772S11654777EA0113801201000000000000
B0439163154697S11654754EA0113501197000000000000
B0439203154622S11654732EA0113001192000000000000
B0439243154545S11654709EA0112501186000000000000
B0439283154468S11654687EA0112101181000000000000
B0439323154391S11654665EA0111601176000000000000
B0439363154316S11654642EA0111001174000000000000
B0439403154241S11654618EA0110701170000000000000
B0439443154164S11654598EA0110301161000000000000
B0439483154089S11654577EA0109201149000000000000
B0439523154012S11654553EA0108301145000000000000
B0439563153936S11654531EA0108001141000000000000
B0440003153860S11654512EA0107501137000000000000
B0440043153783S11654494EA0107301132000000000000
B0440083153706S11654477EA0106401118000000000000
B0440123153626S11654466EA0105701113000000000000
B0440163153548S11654456EA0105101103000000000000
B0440203153467S11654446EA0104301095000000000000
B0440243153385S11654430EA0104001096000000000000
B0440283153306S11654413EA0104201099000000000000
B0440323153229S11654403EA0104701103000000000000
B0440363153172S11654433EA0105901120000000000000
B0440403153156S11654494EA0107001128000000000000
B0440443153186S11654550EA0106601120000000000000
B0440483153238S11654591EA0105501107000000000000
B0440523153302S11654572EA0104901105000000000000
B0440563153357S11654517EA0104901105000000000000
B0441003153409S11654455EA0105301108000000000000
B0441043153457S11654386EA0105401108000000000000
B0441083153467S11654301EA0106001118000000000000
B0441123153426S11654241EA0106201114000000000000
B0441163153374S11654261EA0106001116000000000000
B0441203153381S11654318EA0106001113000000000000
B0441243153445S11654325EA0105101102000000000000
B0441283153500S11654262EA0105001105000000000000
B0441323153498S11654175EA0105301107000000000000
B0441363153436S11654143EA0105401106000000000000
B0441403153396S11654192EA0104801101000000000000
B0441443153406S11654262EA0104801100000000000000
B0441483153457S11654303EA0105201107000000000000
B0441523153520S11654286EA0105201105000000000000
B0441563153566S11654223EA0105101102000000000000
B0442003153553S11654140EA0104901100000000000000
B0442043153496S11654085EA0104101091000000000000
B0442083153418S11654059EA0103101077000000000000
B0442123153338S11654046EA0102401073000000000000
B0442163153258S11654039EA0102501074000000000000
B0442203153179S11654032EA0102101069000000000000
B0442243153102S11654026EA0102301075000000000000
B0442283153028S11654019EA0102701081000000000000
B0442323152955S11654018EA0103001081000000000000
B0442363152894S11654044EA0103501088000000000000
B0442403152851S11654091EA0103801091000000000000
B0442443152808S11654144EA0102701074000000000000
B0442483152751S11654191EA0101101054000000000000
B0442523152681S11654221EA0099401043000000000000
B0442563152605S11654230EA0098701036000000000000
B0443003152529S11654228EA0098001027000000000000
B0443043152453S11654223EA0097301023000000000000
B0443083152378S11654213EA0096901017000000000000
B0443123152304S11654200EA0095901008000000000000
B0443163152230S11654180EA0095000997000000000000
B0443203152153S11654158EA0094200987000000000000
B0443243152079S11654134EA0093400978000000000000
B0443283152003S11654104EA0092000963000000000000
B0443323151928S11654072EA0091300958000000000000
B0443363151853S11654045EA0090800950000000000000
B0443403151777S11654026EA0090000942000000000000
B0443443151700S11654013EA0089000931000000000000
B0443483151622S11654005EA0088200922000000000000
B0443523151546S11654004EA0087800921000000000000
B0443563151476S11654005EA0088000922000000000000
B0444003151405S11654007EA0087800918000000000000
B0444043151340S11654020EA0087600919000000000000
B0444083151290S11654059EA0087700919000000000000
B0444123151256S11654111EA0087800922000000000000
B0444163151230S11654170EA0087800924000000000000
B0444203151210S11654232EA0087500916000000000000
B0444243151195S11654300EA0086600909000000000000
B0444283151174S11654369EA0086300903000000000000
B0444323151152S11654442EA0084800888000000000000
B0444363151139S11654518EA0084000883000000000000
B0444403151140S11654595EA0083500873000000000000
B0444443151143S11654674EA0082300863000000000000
B0444483151134S11654754EA0081500859000000000000
B0444523151121S11654829EA0081400858000000000000
B0444563151102S11654898EA0081300857000000000000
B0445003151080S11654962EA0081500862000000000000
B0445043151063S11655023EA0081400858000000000000
B0445083151050S11655085EA0080500847000000000000
B0445123151045S11655149EA0079900843000000000000
B0445163151053S11655211EA0079500838000000000000
B0445203151069S11655274EA0078900829000000000000
B0445243151088S11655336EA0077900818000000000000
B0445283151109S11655400EA0077200813000000000000
B0445323151132S11655465EA0076800808000000000000
B0445363151160S11655527EA0076400806000000000000
B0445403151180S11655593EA0076600808000000000000
B0445443151199S11655656EA0076900811000000000000
B0445483151239S11655697EA0077200813000000000000
B0445523151287S11655661EA0077100806000000000000
B0445563151271S11655579EA0076300803000000000000
B0446003151214S11655525EA0075700798000000000000
B0446043151149S11655526EA0075900798000000000000
B0446083151108S11655573EA0075800797000000000000
B0446123151099S11655636EA0075700799000000000000
B0446163151102S11655705EA0075100788000000000000
B0446203151113S11655777EA0074400780000000000000
B0446243151130S11655846EA0073700775000000000000
B0446283151151S11655912EA0073500776000000000000
B0446323151171S11655976EA0073800778000000000000
B0446363151196S11656035EA0074000776000000000000
B0446403151218S11656097EA0072900761000000000000
B0446443151249S11656156EA0071800751000000000000
B0446483151283S11656214EA0071300748000000000000
B0446523151303S11656281EA0071300750000000000000
B0446563151312S11656354EA0070500740000000000000
B0447003151323S11656427EA0069100723000000000000
B0447043151347S11656497EA0068600719000000000000
B0447083151378S11656561EA0068400717000000000000
B0447123151418S11656614EA0068300718000000000000
B0447163151470S11656644EA0068300720000000000000
B0447203151531S11656652EA0068800727000000000000
B0447243151587S11656618EA0069800736000000000000
B0447283151585S11656541EA0069400726000000000000
B0447323151521S11656519EA0068900725000000000000
B0447363151474S11656559EA0068500721000000000000
B0447403151457S11656627EA0068100717000000000000
B0447443151483S11656676EA0069300731000000000000
B0447483151529S11656630EA0069600730000000000000
B0447523151503S11656557EA0069800737000000000000
B0447563151442S11656558EA0070100734000000000000
B0448003151426S11656618EA0070300743000000000000
B0448043151474S11656632EA0071300752000000000000
B0448083151507S11656567EA0071200746000000000000
B0448123151469S11656500EA0070800744000000000000
B0448163151400S11656509EA0070600745000000000000
B0448203151374S11656570EA0071400759000000000000
B0448243151420S11656574EA0072400763000000000000
B0448283151434S11656493EA0071600754000000000000
B0448323151381S11656446EA0072600770000000000000
B0448363151326S11656474EA0073200774000000000000
B0448403151327S11656528EA0073800783000000000000
B0448443151378S11656536EA0074500788000000000000
B0448483151417S11656483EA0074400783000000000000
B0448523151392S11656410EA0074100783000000000000
B0448563151330S11656403EA0074800791000000000000
B0449003151317S11656455EA0075300795000000000000
B0449043151366S11656457EA0075300791000000000000
B0449083151386S11656385EA0075400794000000000000
B0449123151335S11656340EA0075800799000000000000
B0449163151281S11656366EA0075600794000000000000
B0449203151286S11656423EA0076000805000000000000
B0449243151334S11656437EA0076500803000000000000
B0449283151382S11656392EA0075600791000000000000
B0449323151403S11656306EA0074500781000000000000
B0449363151386S11656221EA0075200796000000000000
B0449403151327S11656210EA0076400804000000000000
B0449443151301S11656266EA0075600793000000000000
B0449483151314S11656333EA0074900784000000000000
B0449523151336S11656399EA0074900785000000000000
B0449563151379S11656437EA0075300788000000000000
B0450003151409S11656375EA0074800782000000015000
B0450043151360S11656318EA0073500769000000000000
B0450083151290S11656305EA0072600763000000000000
B0450123151238S11656341EA0072500763000000000000
B0450163151234S11656402EA0072600767000000000000
B0450203151256S11656463EA0072500764000000000000
B0450243151290S11656518EA0073100766000000000000
B0450283151343S11656507EA0073000764000000000000
B0450323151356S11656442EA0072600757000000000000
B0450363151307S11656381EA0071200744000000000000
B0450403151236S11656357EA0070500737000000000000
B0450443151175S11656380EA0071000746000000000000
B0450483151140S11656435EA0071400749000000000000
B0450523151152S11656488EA0071900754000000000000
B0450563151203S11656489EA0071500746000000000000
B0451003151219S11656419EA0071200743000000000000
B0451043151166S11656366EA0070400735000000000000
B0451083151099S11656371EA0070700742000000000000
B0451123151089S11656427EA0071600754000000000000
B0451163151134S11656416EA0072200756000000000000
B0451203151141S11656345EA0072600759000000000000
B0451243151087S11656311EA0073100766000000000000
B0451283151052S11656357EA0073500772000000000000
B0451323151084S11656390EA0073800774000000000000
B0451363151118S11656342EA0074300781000000000000
B0451403151088S11656275EA0074900786000000000000
B0451443151027S11656275EA0075100788000000000000
B0451483151013S11656333EA0074900791000000000000
B0451523151054S11656351EA0075700798000000000000
B0451563151080S11656290EA0076200801000000000000
B0452003151047S11656225EA0076700804000000000000
B0452043150989S11656242EA0076900810000000000000
B0452083150995S11656293EA0077500819000000000000
B0452123151041S11656277EA0077700817000000000000
B0452163151039S11656204EA0078300824000000000000
B0452203150982S11656177EA0078500821000000000000
B0452243150952S11656224EA0078500828000000000000
B0452283150987S11656253EA0079000828000000000000
B0452323151035S11656215EA0078500821000000000000
B0452363151036S11656136EA0078400826000000000000
B0452403150984S11656093EA0078800826000000000000
B0452443150932S11656119EA0079000831000000000000
B0452483150930S11656173EA0079200832000000000000
B0452523150953S11656230EA0078800825000000000000
B0452563150985S11656289EA0078800827000000000000
B0453003151037S11656294EA0079600832000000000000
B0453043151056S11656221EA0079300831000000000000
B0453083151021S11656152EA0079800837000000000000
B0453123150965S11656169EA0080600845000000000000
B0453163150966S11656223EA0081400856000000000000
B0453203151011S11656236EA0082000859000000000000
B0453243151049S11656189EA0081600853000000000000
B0453283151031S11656115EA0081200853000000000000
B0453323150970S11656110EA0081800862000000000000
B0453363150961S11656167EA0082600869000000000000
B0453403151013S11656176EA0083100875000000000000
B0453443151044S11656119EA0083400874000000000000
B0453483151014S11656051EA0083500880000000000000
B0453523150962S11656060EA0084600894000000000000
B0453563150958S11656115EA0085300899000000000000
B0454003151002S11656141EA0085600900000000000000
B0454043151045S11656103EA0085200894000000000000
B0454083151035S11656030EA0085000891000000000000
B0454123150979S11656007EA0085700903000000000000
B0454163150950S11656050EA0087200920000000000000
B0454203150978S11656093EA0087800923000000000000
B0454243151031S11656081EA0087300913000000000000
B0454283151058S11656015EA0086400903000000000000
B0454323151047S11655937EA0086000902000000000000
B0454363150997S11655890EA0086100907000000000000
B0454403150953S11655916EA0086800914000000000000
B0454443150982S11655960EA0087400920000000000000
B0454483151031S11655924EA0088200929000000000000
B0454523151018S11655853EA0088300926000000000000
B0454563150963S11655844EA0088600933000000000000
B0455003150946S11655895EA0089500944000000000000
B0455043150989S11655925EA0090100950000000000000
B0455083151036S11655882EA0090500951000000000000
B0455123151030S11655808EA0090500950000000000000
B0455163150976S11655774EA0090500951000000000000
B0455203150924S11655798EA0091100958000000000000
B0455243150922S11655853EA0091800969000000000000
B0455283150971S11655877EA0092100970000000000000
B0455323151023S11655834EA0092100967000000000000
B0455363151031S11655755EA0092100968000000000000
B0455403150995S11655691EA0092300971000000000000
B0455443150935S11655675EA0092500975000000000000
B0455483150892S11655710EA0093600987000000000000
B0455523150911S11655759EA0094300995000000000000
B0455563150967S11655736EA0094800997000000000000
B0456003150971S11655661EA0095100999000000000000
B0456043150918S11655630EA0095301003000000000000
B0456083150880S11655670EA0096001011000000000000
B0456123150901S11655722EA0096601019000000000000
B0456163150958S11655723EA0096801019000000000000
B0456203151005S11655670EA0096801017000000000000
B0456243151001S11655590EA0096901020000000000000
B0456283150952S11655536EA0097101023000000000000
B0456323150892S11655536EA0097901034000000000000
B0456363150866S11655579EA0098801043000000000000
B0456403150888S11655627EA0098701038000000000000
B0456443150945S11655643EA0098301035000000000000
B0456483150992S11655590EA0098601039000000000000
B0456523150980S11655513EA0099101043000000000000
B0456563150927S11655483EA0099101045000000000000
B0457003150881S11655512EA0099401049000000000000
B0457043150891S11655565EA0099701051000000000000
B0457083150949S11655569EA0099701049000000000000
B0457123151004S11655523EA0099601048000000000000
B0457163151022S11655441EA0099501048000000000000
B0457203151005S11655362EA0099701050000000000000
B0457243150952S11655322EA0099501046000000000000
B0457283150900S11655346EA0099701050000000000000
B0457323150878S11655401EA0100101055000000000000
B0457363150906S11655445EA0100101052000000000000
B0457403150965S11655449EA0099401046000000000000
B0457443151023S11655406EA0099101041000000000000
B0457483151052S11655330EA0099001043000000000000
B0457523151043S11655246EA0099001041000000000000
B0457563151015S11655168EA0098501037000000000000
B0458003150974S11655102EA0097701028000000000000
B0458043150924S11655042EA0096801014000000000000
B0458083150862S11654997EA0095501007000000000000
B0458123150797S11654959EA0095701010000000000000
B0458163150732S11654920EA0095000998000000000000
B0458203150663S11654884EA0094000987000000000000
B0458243150594S11654851EA0093600984000000000000
B0458283150524S11654832EA0093300981000000000000
B0458323150452S11654819EA0092500971000000000000
B0458363150378S11654807EA0091600962000000000000
B0458403150302S11654800EA0090800954000000000000
B0458443150226S11654799EA0090600955000000000000
B0458483150153S11654806EA0091000961000000000000
B0458523150085S11654816EA0091800967000000000000
B0458563150036S11654858EA0092300975000000000000
B0459003150009S11654910EA0093200986000000000000
B0459043150042S11654949EA0093600987000000000000
B0459083150095S11654911EA0093700986000000000000
B0459123150098S11654829EA0093500983000000000000
B0459163150056S11654760EA0093700985000000000000
B0459203149994S11654748EA0093600983000000000000
B0459243149947S11654787EA0093400983000000000000
B0459283149925S11654846EA0094000992000000000000
B0459323149919S11654906EA0094600995000000000000
B0459363149961S11654937EA0094500994000000000000
B0459403150007S11654894EA0094200990000000000000
B0459443149997S11654816EA0094100992000000000000
B0459483149964S11654742EA0094100993000000000000
B0459523149918S11654683EA0095001000000000000000
B0459563149864S11654690EA0095100997000000000000
B0500003149854S11654746EA0094800997000000000000
B0500043149884S11654787EA0094800996000000000000
B0500083149939S11654789EA0094600994000000000000
B0500123149970S11654726EA0095201005000000000000
B0500163149925S11654670EA0095201003000000015000
B0500203149882S11654706EA0095201001000000000000
B0500243149922S11654725EA0094900997000000015000
B0500283149940S11654652EA0095201001000000015000
B0500323149888S11654603EA0095701004000000000000
B0500363149843S11654638EA0095701005000000000000
B0500403149865S11654682EA0096201014000000000000
B0500443149909S11654648EA0096001009000000000000
B0500483149906S11654570EA0096001011000000000000
B0500523149854S11654526EA0096701016000000000000
B0500563149805S11654561EA0096401016000000000000
B0501003149817S11654612EA0097201026000000000000
B0501043149864S11654605EA0097501021000000000000
B0501083149883S11654537EA0097101022000000000000
B0501123149849S11654470EA0097901031000000000000
B0501163149788S11654457EA0098101032000000000000
B0501203149749S11654505EA0099001041000000000000
B0501243149770S11654548EA0099301044000000000000
B0501283149821S11654543EA0098801035000000000000
B0501323149857S11654486EA0099001042000000000000
B0501363149852S11654412EA0099901049000000000000
B0501403149800S11654368EA0099901048000000000000
B0501443149749S11654396EA0100901064000000000000
B0501483149757S11654443EA0101701069000000000000
B0501523149802S11654434EA0101601065000000000000
B0501563149819S11654364EA0101501069000000000000
B0502003149780S11654301EA0102401080000000000000
B0502043149724S11654316EA0103501089000000000000
B0502083149715S11654370EA0104101098000000000000
B0502123149753S11654384EA0104501096000000000000
B0502163149787S11654330EA0104101090000000000000
B0502203149756S11654257EA0104401102000000000000
B0502243149691S11654244EA0105601111000000000000
B0502283149646S11654288EA0105801110000000000000
B0502323149656S11654343EA0106001115000000000000
B0502363149698S11654340EA0106201114000000015000
B0502403149718S11654274EA0105301106000000015000
B0502443149680S11654200EA0105301107000000015000
B0502483149615S11654187EA0106601126000000015000
B0502523149584S11654236EA0106901121000000000000
B0502563149609S11654286EA0106201117000000000000
B0503003149656S11654280EA0106301116000000000000
B0503043149678S11654212EA0105601107000000000000
B0503083149657S11654128EA0105301111000000000000
B0503123149605S11654070EA0106201120000000000000
B0503163149536S11654054EA0106601122000000000000
B0503203149485S11654096EA0106801124000000000000
B0503243149492S11654150EA0106601117000000000000
B0503283149537S11654165EA0105801111000000000000
B0503323149579S11654118EA0105401106000000000000
B0503363149578S11654037EA0105501113000000000000
B0503403149552S11653957EA0105701113000000000000
B0503443149515S11653877EA0105601112000000000000
B0503483149471S11653798EA0105201107000000000000
B0503523149420S11653720EA0104601097000000000000
B0503563149367S11653638EA0103201088000000000000
B0504003149315S11653559EA0102801086000000000000
B0504043149264S11653482EA0102601083000000000000
B0504083149212S11653407EA0102701088000000000000
B0504123149159S11653341EA0103901102000000000000
B0504163149106S11653277EA0104901110000000000000
B0504203149051S11653214EA0104701107000000000000
B0504243148995S11653147EA0104501103000000000000
B0504283148942S11653077EA0103601090000000000000
B0504323148889S11653004EA0102901090000000000000
B0504363148840S11652927EA0103001088000000000000
B0504403148795S11652848EA0102701088000000000000
B0504443148752S11652767EA0102701085000000000000
B0504483148710S11652687EA0102301080000000000000
B0504523148673S11652606EA0102101078000000000000
B0504563148636S11652527EA0101601073000000000000
B0505003148601S11652447EA0101201069000000000000
B0505043148567S11652368EA0100801063000000000000
B0505083148539S11652286EA0100101058000000000000
B0505123148513S11652206EA0099901056000000000000
B0505163148484S11652129EA0099801053000000000000
B0505203148449S11652056EA0099501050000000000000
B0505243148409S11651990EA0098801045000000000000
B0505283148363S11651930EA0098301037000000000000
B0505323148317S11651873EA0097701028000000000000
B0505363148263S11651827EA0096901021000000000000
B0505403148211S11651784EA0096701018000000000000
B0505443148158S11651747EA0095701007000000000000
B0505483148101S11651710EA0094700994000000000000
B0505523148040S11651701EA0093700984000000000000
B0505563147990S11651731EA0092900975000000000000
B0506003147967S11651783EA0092200968000000000000
B0506043147993S11651834EA0090900952000000000000
B0506083148053S11651833EA0090100943000000000000
B0506123148109S11651801EA0090100946000000000000
B0506163148153S11651748EA0090000941000000000000
B0506203148176S11651674EA0089100934000000000000
B0506243148193S11651595EA0088000922000000000000
B0506283148202S11651511EA0086800913000000000000
B0506323148215S11651426EA0086100907000000000000
B0506363148236S11651342EA0085600903000000000000
B0506403148265S11651262EA0085000897000000000000
B0506443148302S11651184EA0084500887000000000000
B0506483148345S11651108EA0083900886000000000000
B0506523148387S11651037EA0084600893000000000000
B0506563148397S11650955EA0085700907000000000000
B0507003148376S11650878EA0086200904000000000000
B0507043148330S11650817EA0086200909000000000000
B0507083148268S11650812EA0086400909000000000000
B0507123148231S11650860EA0086400909000000000000
B0507163148232S11650919EA0086200905000000000000
B0507203148271S11650952EA0085600898000000000000
B0507243148322S11650933EA0085600898000000000000
B0507283148345S11650865EA0085700901000000000000
B0507323148330S11650787EA0085400894000000000000
B0507363148280S11650725EA0085100894000000000000
B0507403148215S11650690EA0085300895000000000000
B0507443148155S11650705EA0085500900000000000000
B0507483148141S11650760EA0085800901000000000000
B0507523148177S11650791EA0085700900000000000000
B0507563148220S11650757EA0085500899000000000000
B0508003148226S11650682EA0085100896000000000000
B0508043148201S11650605EA0084900894000000000000
B0508083148163S11650533EA0084700888000000000000
B0508123148110S11650473EA0083700878000000000000
B0508163148053S11650412EA0082900874000000000000
B0508203148001S11650340EA0082700873000000000000
B0508243147949S11650270EA0083300878000000000000
B0508283147881S11650262EA0084000885000000000000
B0508323147873S11650315EA0084800895000000000000
B0508363147923S11650323EA0084300883000000000000
B0508403147955S11650261EA0084000883000000000000
B0508443147942S11650180EA0084300887000000000000
B0508483147882S11650141EA0084700891000000000000
B0508523147841S11650187EA0085000894000000000000
B0508563147867S11650232EA0085000891000000000000
B0509003147919S11650213EA0084900888000000000000
B0509043147942S11650140EA0084800889000000000000
B0509083147912S11650061EA0085200897000000000000
B0509123147850S11650053EA0086500912000000000000
B0509163147841S11650109EA0087600919000000000000
B0509203147885S11650117EA0088000923000000000000
B0509243147904S11650052EA0088600928000000000000
B0509283147862S11649993EA0089200938000000000000
B0509323147810S11650007EA0090400950000000000000
B0509363147810S11650057EA0090600946000000000000
B0509403147855S11650061EA0090400949000000000000
B0509443147878S11650001EA0091500959000000000000
B0509483147843S11649938EA0091600959000000000000
B0509523147784S11649940EA0092500970000000000000
B0509563147764S11649989EA0092900972000000000000
B0510003147798S11650020EA0093500978000000000000
B0510043147839S11649988EA0093900981000000000000
B0510083147846S11649918EA0094300992000000000000
B0510123147803S11649863EA0095200997000000000000
B0510163147751S11649880EA0095601000000000000000
B0510203147756S11649928EA0096001004000000000000
B0510243147804S11649923EA0096101007000000000000
B0510283147833S11649860EA0097201020000000000000
B0510323147813S11649785EA0098101029000000000000
B0510363147756S11649753EA0098801035000000000000
B0510403147719S11649790EA0099101035000000000000
B0510443147741S11649838EA0099001036000000000000
B0510483147789S11649824EA0099701045000000000000
B0510523147806S11649750EA0100001047000000000000
B0510563147765S11649678EA0100401053000000000000
B0511003147703S11649665EA0100801059000000000000
B0511043147668S11649712EA0101301063000000000000
B0511083147686S11649767EA0101201060000000000000
B0511123147739S11649766EA0101801067000000000000
B0511163147765S11649698EA0102901080000000000000
B0511203147734S11649626EA0103001078000000000000
B0511243147670S11649604EA0103001079000000000000
B0511283147633S11649646EA0103501083000000000000
B0511323147652S11649699EA0103001077000000000000
B0511363147704S11649697EA0103601087000000000000
B0511403147741S11649639EA0104201093000000000000
B0511443147739S11649560EA0104301094000000000000
B0511483147685S11649508EA0103901090000000000000
B0511523147631S11649528EA0104301098000000000000
B0511563147620S11649578EA0104701096000000000000
B0512003147660S11649607EA0104201091000000000000
B0512043147709S11649571EA0104101092000000000000
B0512083147732S11649493EA0104101092000000000000
B0512123147737S11649405EA0104101094000000000000
B0512163147689S11649355EA0105001104000000000000
B0512203147646S11649383EA0105501110000000000000
B0512243147657S11649430EA0105401106000000000000
B0512283147709S11649422EA0104901101000000000000
B0512323147746S11649359EA0104901100000000000000
B0512363147733S11649274EA0105101104000000000000
B0512403147681S11649212EA0105201106000000000000
B0512443147617S11649209EA0105601110000000000000
B0512483147594S11649260EA0106001113000000000000
B0512523147634S11649286EA0106301118000000000000
B0512563147676S11649238EA0106501113000000000000
B0513003147665S11649156EA0105801109000000000000
B0513043147612S11649101EA0105801109000000000000
B0513083147546S11649091EA0106001114000000000000
B0513123147498S11649129EA0106001110000000000000
B0513163147470S11649192EA0105101100000000000000
B0513203147455S11649256EA0105701107000000000000
B0513243147482S11649305EA0106101108000000000000
B0513283147537S11649279EA0106301109000000000000
B0513323147551S11649201EA0105601100000000000000
B0513363147511S11649127EA0104701091000000000000
B0513403147440S11649104EA0104501095000000000000
B0513443147387S11649131EA0105501107000000000000
B0513483147396S11649183EA0105701104000000000000
B0513523147452S11649184EA0105301103000000000000
B0513563147485S11649121EA0106201110000000000000
B0514003147465S11649043EA0105701103000000000000
B0514043147405S11649004EA0105501103000000000000
B0514083147344S11649017EA0105301100000000000000
B0514123147313S11649077EA0104701094000000000000
B0514163147313S11649147EA0104601093000000000000
B0514203147336S11649212EA0104701093000000000000
B0514243147388S11649248EA0104601095000000000000
B0514283147440S11649287EA0104901104000000000000
B0514323147455S11649343EA0106901124000000000000
B0514363147404S11649356EA0108601141000000000000
B0514403147358S11649303EA0109501146000000000000
B0514443147347S11649222EA0110101156000000000000
B0514483147377S11649158EA0111001165000000000000
B0514523147429S11649143EA0111101162000000000000
B0514563147468S11649178EA0111001166000000000000
B0515003147446S11649222EA0112501184000000000000
B0515043147392S11649205EA0113901195000000000000
B0515083147375S11649134EA0114801204000000000000
B0515123147413S11649083EA0115101203000000000000
B0515163147464S11649090EA0114701206000000000000
B0515203147479S11649136EA0115901220000000000000
B0515243147451S11649178EA0116901226000000000000
B0515283147396S11649188EA0117201226000000000000
B0515323147343S11649140EA0117601235000000000000
B0515363147357S11649067EA0118901245000000000000
B0515403147412S11649064EA0118901247000000000000
B0515443147430S11649113EA0119701259000000000000
B0515483147397S11649156EA0120401263000000000000
B0515523147339S11649157EA0120801265000000000000
B0515563147280S11649110EA0120701263000000000000
B0516003147269S11649027EA0120601263000000000000
B0516043147308S11648963EA0121001269000000000000
B0516083147362S11648962EA0121301268000000000000
B0516123147392S11649012EA0121301272000000000000
B0516163147377S11649067EA0121701276000000000000
B0516203147319S11649087EA0121901276000000000000
B0516243147252S11649067EA0122001278000000000000
B0516283147208S11649001EA0122501285000000000000
B0516323147234S11648934EA0123501294000000000000
B0516363147284S11648947EA0123601294000000000000
B0516403147291S11649008EA0123901299000000000000
B0516443147254S11649056EA0124501307000000000000
B0516483147192S11649061EA0125701320000000000000
B0516523147131S11649027EA0125801319000000000000
B0516563147093S11648954EA0126001325000000000000
B0517003147114S11648880EA0126401325000000000000
B0517043147169S11648861EA0126701332000000000000
B0517083147208S11648893EA0127301337000000000000
B0517123147212S11648950EA0127201334000000000000
B0517163147174S11649000EA0127801343000000000000
B0517203147110S11648997EA0128701352000000000000
B0517243147071S11648930EA0128801351000000000000
B0517283147093S11648852EA0128501349000000000000
B0517323147150S11648830EA0128801357000000000000
B0517363147195S11648863EA0129001355000000000000
B0517403147206S11648923EA0129101358000000000000
B0517443147187S11648984EA0129301364000000000000
B0517483147136S11649022EA0130301374000000000000
B0517523147071S11649023EA0130801376000000000000
B0517563147014S11648970EA0130301369000000000000
B0518003147007S11648884EA0129901362000000000000
B0518043147049S11648818EA0129601363000000000000
B0518083147113S11648797EA0129801367000000000000
B0518123147174S11648811EA0130201372000000000000
B0518163147206S11648863EA0130301367000000000000
B0518203147193S11648931EA0130001368000000000000
B0518243147150S11648988EA0130601379000000000000
B0518283147091S11649026EA0131701391000000000000
B0518323147019S11649027EA0132301392000000000000
B0518363146954S11648976EA0131701383000000000000
B0518403146929S11648891EA0131101379000000000000
B0518443146957S11648811EA0130601372000000000000
B0518483147015S11648778EA0130101365000000000000
B0518523147070S11648804EA0129901367000000000000
B0518563147091S11648869EA0130101369000000000000
B0519003147065S11648936EA0130501375000000000000
B0519043147009S11648982EA0130701373000000000000
B0519083146937S11649002EA0130201366000000000000
B0519123146859S11649010EA0129201357000000000000
B0519163146779S11649008EA0128401350000000000000
B0519203146695S11648997EA0127401340000000000000
B0519243146611S11648984EA0126901335000000000000
B0519283146528S11648971EA0126501332000000000000
B0519323146445S11648956EA0126801339000000000000
B0519363146361S11648940EA0126601333000000000000
B0519403146277S11648922EA0126401333000000000000
B0519443146195S11648901EA0126501337000000000000
B0519483146116S11648878EA0127101344000000000000
B0519523146036S11648854EA0127201341000000000000
B0519563145956S11648831EA0126801338000000000000
B0520003145874S11648807EA0126301333000000000000
B0520043145791S11648785EA0125801325000000000000
B0520083145710S11648765EA0125501324000000000000
B0520123145631S11648746EA0125201320000000000000
B0520163145553S11648728EA0124901316000000000000
B0520203145477S11648710EA0124001306000000000000
B0520243145401S11648690EA0123301301000000000000
B0520283145324S11648671EA0122101284000000000000
B0520323145242S11648650EA0121301279000000000000
B0520363145161S11648629EA0120601272000000000000
B0520403145081S11648611EA0120001264000000000000
B0520443145003S11648596EA0119201255000000000000
B0520483144924S11648585EA0118801253000000000000
B0520523144847S11648580EA0119201259000000000000
B0520563144771S11648575EA0118901250000000000000
B0521003144693S11648568EA0118101246000000000000
B0521043144619S11648562EA0118301249000000000000
B0521083144549S11648555EA0118501251000000000000
B0521123144480S11648546EA0118101245000000000000
B0521163144407S11648537EA0117401234000000000000
B0521203144333S11648529EA0117101232000000000000
B0521243144259S11648520EA0116501221000000000000
B0521283144185S11648508EA0115101210000000000000
B0521323144112S11648498EA0114201203000000000000
B0521363144041S11648492EA0113901201000000000000
B0521403143969S11648485EA0113701199000000000000
B0521443143899S11648475EA0113601197000000000000
B0521483143833S11648463EA0113901205000000000000
B0521523143768S11648450EA0114801213000000000000
B0521563143703S11648453EA0115801222000000000000
B0522003143664S11648498EA0117001234000000000000
B0522043143678S11648550EA0118301256000000000000
B0522083143724S11648549EA0119701263000000000000
B0522123143752S11648488EA0120001263000000000000
B0522163143730S11648412EA0120201267000000000000
B0522203143672S11648380EA0120901275000000000000
B0522243143629S11648415EA0121701285000000000000
B0522283143651S11648460EA0123201305000000000000
B0522323143699S11648445EA0124701317000000000000
B0522363143718S11648376EA0125201320000000000000
B0522403143685S11648307EA0125801328000000000000
B0522443143625S11648289EA0126701337000000000000
B0522483143588S11648328EA0127501353000000000000
B0522523143607S11648373EA0128901364000000000000
B0522563143656S11648367EA0130001376000000000000
B0523003143681S11648304EA0131001385000000000000
B0523043143652S11648238EA0131601390000000000000
B0523083143594S11648220EA0131901394000000000000
B0523123143557S11648260EA0132701404000000000000
B0523163143570S11648312EA0133701413000000000000
B0523203143621S11648317EA0134801424000000000000
B0523243143655S11648259EA0135501432000000000000
B0523283143631S11648189EA0136001439000000000000
B0523323143577S11648165EA0137001449000000000000
B0523363143533S11648194EA0137701454000000000000
B0523403143516S11648246EA0137901454000000000000
B0523443143533S11648302EA0137801454000000000000
B0523483143583S11648310EA0139101475000000000000
B0523523143613S11648255EA0140801488000000000000
B0523563143587S11648190EA0141201491000000000000
B0524003143530S11648178EA0142101504000000000000
B0524043143497S11648222EA0142201501000000000000
B0524083143513S11648277EA0142701509000000000000
B0524123143561S11648297EA0143201512000000000000
B0524163143604S11648243EA0143701525000000000000
B0524203143591S11648173EA0145001535000000000000
B0524243143538S11648151EA0146001544000000000000
B0524283143496S11648189EA0146401549000000000000
B0524323143504S11648247EA0146801551000000000000
B0524363143556S11648268EA0147401560000000000000
B0524403143601S11648220EA0148801574000000000000
B0524443143590S11648147EA0149101578000000000000
B0524483143535S11648124EA0150201589000000000000
B0524523143507S11648170EA0151101602000000000000
B0524563143530S11648225EA0151901607000000000000
B0525003143587S11648229EA0152301615000000000000
B0525043143625S11648170EA0153001616000000000000
B0525083143608S11648095EA0152401614000000000000
B0525123143548S11648068EA0152801620000000000000
B0525163143505S11648109EA0153801632000000000000
B0525203143517S11648168EA0154901639000000000000
B0525243143574S11648182EA0155101644000000000000
B0525283143620S11648133EA0155501646000000000000
B0525323143612S11648056EA0155101643000000000000
B0525363143560S11648007EA0154701636000000000000
B0525403143487S11647985EA0153501624000000000000
B0525443143406S11647975EA0152501608000000000000
B0525483143321S11647979EA0150701593000000000000
B0525523143231S11647991EA0150001584000000000000
B0525563143141S11648003EA0149101576000000000000
B0526003143052S11648014EA0148701571000000000000
B0526043142964S11648025EA0148301566000000000000
B0526083142877S11648037EA0147501556000000000000
B0526123142789S11648048EA0146601550000000000000
B0526163142703S11648059EA0146401547000000000000
B0526203142616S11648065EA0145701540000000000000
B0526243142532S11648070EA0145301535000000000000
B0526283142448S11648073EA0145101532000000000000
B0526323142369S11648072EA0145101536000000000000
B0526363142295S11648066EA0145501539000000000000
B0526403142223S11648056EA0145301534000000000000
B0526443142149S11648047EA0144801531000000000000
B0526483142078S11648039EA0145301536000000000000
B0526523142008S11648030EA0145201532000000000000
B0526563141935S11648013EA0144701525000000000000
B0527003141862S11647986EA0144201523000000000000
B0527043141789S11647959EA0144301525000000000000
B0527083141718S11647936EA0144201522000000000000
B0527123141646S11647917EA0143901519000000000000
B0527163141576S11647899EA0143601515000000000000
B0527203141506S11647883EA0143201511000000000000
B0527243141436S11647869EA0142701507000000000000
B0527283141368S11647853EA0142401502000000000000
B0527323141300S11647838EA0142001496000000000000
B0527363141233S11647821EA0141401489000000000000
B0527403141165S11647804EA0140201475000000000000
B0527443141094S11647790EA0138801464000000000000
B0527483141024S11647774EA0138401460000000000000
B0527523140957S11647760EA0138101460000000000000
B0527563140897S11647767EA0138501463000000000000
B0528003140862S11647809EA0138901466000000000000
B0528043140865S11647862EA0138101454000000000000
B0528083140883S11647923EA0136801432000000000000
B0528123140871S11647990EA0135701430000000000000
B0528163140851S11648051EA0135701433000000000000
B0528203140834S11648115EA0135501426000000000000
B0528243140834S11648181EA0135501428000000000000
B0528283140856S11648245EA0135201424000000000000
B0528323140881S11648310EA0134701422000000000000
B0528363140888S11648380EA0134401416000000000000
B0528403140865S11648450EA0133601405000000000000
B0528443140809S11648505EA0132701396000000000000
B0528483140735S11648532EA0132701401000000000000
B0528523140656S11648537EA0133301409000000000000
B0528563140578S11648529EA0134201418000000000000
B0529003140506S11648542EA0135301432000000000000
B0529043140458S11648594EA0136101436000000000000
B0529083140450S11648661EA0135701429000000000000
B0529123140489S11648701EA0135201423000000000000
B0529163140539S11648675EA0134301415000000000000
B0529203140550S11648599EA0133801411000000000000
B0529243140515S11648525EA0133801412000000000000
B0529283140459S11648467EA0133901413000000000000
B0529323140397S11648424EA0134301422000000000000
B0529363140333S11648395EA0135301431000000000000
B0529403140267S11648385EA0134901419000000000000
B0529443140195S11648369EA0133701409000000000000
B0529483140128S11648333EA0132401395000000000000
B0529523140064S11648284EA0131301388000000000000
B0529563140000S11648229EA0130801380000000000000
B0530003139941S11648168EA0130301375000000000000
B0530043139880S11648107EA0129601368000000000000
B0530083139817S11648046EA0128901361000000000000
B0530123139756S11647985EA0128401357000000000000
B0530163139695S11647923EA0127901352000000000000
B0530203139635S11647864EA0127601350000000000000
B0530243139577S11647806EA0127501346000000000000
B0530283139518S11647749EA0126901340000000000000
B0530323139458S11647692EA0126501335000000000000
B0530363139399S11647636EA0126001327000000000000
B0530403139337S11647580EA0125001319000000000000
B0530443139278S11647523EA0124401313000000000000
B0530483139218S11647463EA0124001307000000000000
B0530523139161S11647400EA0123201299000000000000
B0530563139103S11647335EA0122601294000000000000
B0531003139045S11647276EA0122101289000000000000
B0531043138983S11647227EA0122101290000000000000
B0531083138923S11647181EA0121901285000000000000
B0531123138862S11647138EA0121401277000000000000
B0531163138798S11647097EA0120601270000000000000
B0531203138734S11647058EA0120001268000000000000
B0531243138678S11647006EA0119901264000000000000
B0531283138628S11646946EA0119201257000000000000
B0531323138576S11646883EA0118601253000000000000
B0531363138524S11646821EA0118301249000000000000
B0531403138468S11646757EA0118201247000000000000
B0531443138411S11646701EA0118501254000000000000
B0531483138351S11646700EA0119101258000000000000
B0531523138338S11646756EA0118801254000000000000
B0531563138386S11646790EA0118501248000000000000
B0532003138446S11646759EA0118101248000000000000
B0532043138481S11646692EA0118801255000000000000
B0532083138478S11646614EA0119001257000000000000
B0532123138464S11646532EA0118601252000000000000
B0532163138444S11646449EA0118301249000000000000
B0532203138421S11646369EA0118101246000000000000
B0532243138387S11646295EA0117601242000000000000
B0532283138353S11646217EA0116901232000000000000
B0532323138313S11646144EA0116601228000000000000
B0532363138256S11646102EA0116101224000000000000
B0532403138191S11646092EA0115601219000000000000
B0532443138123S11646096EA0114801211000000000000
B0532483138058S11646103EA0113701198000000000000
B0532523137993S11646119EA0113201192000000000000
B0532563137933S11646141EA0112701188000000000000
B0533003137876S11646168EA0112301182000000000000
B0533043137823S11646201EA0111601173000000000000
B0533083137770S11646239EA0110401158000000000000
B0533123137715S11646278EA0109201150000000000000
B0533163137659S11646319EA0108201136000000000000
B0533203137603S11646360EA0107601134000000000000
B0533243137550S11646396EA0107701133000000000000
B0533283137498S11646432EA0107601134000000000000
B0533323137445S11646469EA0107501130000000000000
B0533363137389S11646508EA0107201126000000000000
B0533403137337S11646555EA0106001113000000000000
B0533443137296S11646610EA0105601111000000000000
B0533483137273S11646674EA0105001100000000000000
B0533523137267S11646743EA0103101080000000000000
B0533563137269S11646813EA0102001072000000000000
B0534003137274S11646881EA0102001072000000000000
B0534043137291S11646943EA0102601082000000000000
B0534083137337S11646976EA0104301103000000000000
B0534123137374S11646928EA0106201121000000000000
B0534163137339S11646859EA0106801126000000000000
B0534203137274S11646852EA0107701142000000000000
B0534243137235S11646899EA0109101150000000000000
B0534283137244S11646960EA0108801143000000000000
B0534323137294S11646981EA0108301140000000000000
B0534363137342S11646935EA0109101154000000000000
B0534403137334S11646861EA0110101165000000000000
B0534443137278S11646831EA0110901173000000000000
B0534483137250S11646881EA0110701164000000000000
B0534523137298S11646906EA0110801173000000000000
B0534563137335S11646851EA0111901184000000000000
B0535003137307S11646783EA0112601192000000000000
B0535043137243S11646772EA0113301203000000000000
B0535083137204S11646821EA0114901220000000000000
B0535123137216S11646877EA0115301213000000000000
B0535163137273S11646889EA0114401210000000000000
B0535203137319S11646837EA0116101230000000000000
B0535243137315S11646760EA0117301240000000000000
B0535283137267S11646700EA0118101247000000000000
B0535323137200S11646691EA0119001259000000000000
B0535363137169S11646739EA0120301277000000000000
B0535403137194S11646786EA0121001275000000000000
B0535443137252S11646781EA0120601275000000000000
B0535483137280S11646716EA0122101295000000000000
B0535523137254S11646644EA0122701298000000000000
B0535563137191S11646612EA0123201308000000000000
B0536003137144S11646649EA0124201319000000000000
B0536043137163S11646707EA0124801324000000000000
B0536083137220S11646707EA0125401332000000000000
B0536123137251S11646644EA0126801345000000000000
B0536163137225S11646570EA0127201347000000000000
B0536203137161S11646538EA0127801353000000000000
B0536243137107S11646565EA0128801368000000000000
B0536283137095S11646623EA0129701375000000000000
B0536323137131S11646668EA0129701370000000000000
B0536363137185S11646648EA0130301388000000000000
B0536403137203S11646583EA0131401392000000000000
B0536443137170S11646513EA0131001385000000000000
B0536483137104S11646490EA0131301393000000000000
B0536523137061S11646530EA0132101402000000000000
B0536563137066S11646584EA0132401400000000000000
B0537003137118S11646601EA0131901396000000000000
B0537043137156S11646545EA0133201415000000000000
B0537083137133S11646474EA0133701415000000000000
B0537123137069S11646452EA0133601416000000000000
B0537163137034S11646497EA0134301423000000000000
B0537203137052S11646552EA0134001414000000000000
B0537243137109S11646561EA0133401414000000000000
B0537283137129S11646488EA0134401428000000000000
B0537323137085S11646427EA0135001434000000000000
B0537363137022S11646421EA0135101437000000000000
B0537403136992S11646470EA0134801427000000000000
B0537443137020S11646526EA0133401413000000000000
B0537483137073S11646566EA0133001409000000000000
B0537523137117S11646621EA0132401401000000000000
B0537563137144S11646694EA0131801390000000000000
B0538003137173S11646769EA0130901383000000000000
B0538043137200S11646844EA0130601379000000000000
B0538083137228S11646920EA0129901369000000000000
B0538123137254S11646994EA0128901358000000000000
B0538163137278S11647072EA0128001347000000000000
B0538203137302S11647150EA0127101340000000000000
B0538243137326S11647229EA0126301332000000000000
B0538283137350S11647311EA0125201319000000000000
B0538323137368S11647393EA0124901319000000000000
B0538363137384S11647471EA0125301323000000000000
B0538403137406S11647544EA0125101316000000000000
B0538443137434S11647618EA0124201304000000000000
B0538483137467S11647693EA0122901296000000000000
B0538523137502S11647767EA0122601293000000000000
B0538563137540S11647836EA0122501291000000000000
B0539003137575S11647907EA0121801286000000000000
B0539043137607S11647972EA0122101287000000000000
B0539083137636S11648037EA0122001287000000000000
B0539123137666S11648098EA0122501297000000000000
B0539163137701S11648156EA0123501307000000000000
B0539203137737S11648212EA0124801319000000000000
B0539243137792S11648217EA0126301336000000000000
B0539283137815S11648154EA0126901339000000000000
B0539323137775S11648091EA0126601339000000000000
B0539363137709S11648082EA0126701341000000000000
B0539403137658S11648118EA0128001356000000000000
B0539443137638S11648173EA0129101365000000000000
B0539483137670S11648219EA0129201365000000000000
B0539523137724S11648199EA0129301366000000000000
B0539563137742S11648125EA0129401369000000000000
B0540003137705S11648060EA0129801374000000000000
B0540043137646S11648038EA0130501382000000000000
B0540083137603S11648076EA0131101390000000000000
B0540123137603S11648135EA0131101385000000000000
B0540163137632S11648196EA0130401378000000000000
B0540203137664S11648260EA0130101376000000000000
B0540243137699S11648323EA0130101373000000000000
B0540283137736S11648390EA0129301364000000000000
B0540323137774S11648458EA0128701354000000000000
B0540363137810S11648525EA0128301356000000000000
B0540403137848S11648586EA0127801343000000000000
B0540443137888S11648646EA0126701329000000000000
B0540483137923S11648713EA0126401331000000000000
B0540523137950S11648783EA0127501346000000000000
B0540563137989S11648830EA0129401367000000000000
B0541003138036S11648789EA0130101376000000000000
B0541043138018S11648714EA0129601372000000000000
B0541083137953S11648687EA0130001385000000000000
B0541123137904S11648722EA0131401394000000000000
B0541163137906S11648787EA0132201402000000000000
B0541203137961S11648810EA0132701406000000000000
B0541243138013S11648761EA0133001410000000000000
B0541283138010S11648680EA0133101411000000000000
B0541323137961S11648622EA0134001425000000000000
B0541363137900S11648611EA0135401440000000000000
B0541403137854S11648648EA0135801440000000000000
B0541443137844S11648710EA0136301443000000000000
B0541483137883S11648750EA0136901452000000000000
B0541523137935S11648719EA0137601461000000000000
B0541563137941S11648646EA0138501473000000000000
B0542003137892S11648603EA0139201475000000000000
B0542043137833S11648625EA0139101475000000000000
B0542083137816S11648690EA0139501479000000000000
B0542123137850S11648750EA0139401479000000000000
B0542163137914S11648750EA0139201475000000000000
B0542203137956S11648685EA0139301482000000000000
B0542243137954S11648603EA0140501492000000000000
B0542283137904S11648555EA0141401508000000000000
B0542323137859S11648588EA0143101522000000000000
B0542363137875S11648646EA0143201517000000000000
B0542403137933S11648646EA0143201523000000000000
B0542443137956S11648580EA0144601538000000000000
B0542483137924S11648519EA0145601550000000000000
B0542523137868S11648506EA0146901555000000000000
B0542563137828S11648549EA0146601551000000000000
B0543003137836S11648610EA0147001560000000000000
B0543043137883S11648632EA0147501563000000000000
B0543083137927S11648586EA0147401564000000000000
B0543123137919S11648515EA0148101576000000000000
B0543163137871S11648475EA0149001581000000000000
B0543203137816S11648486EA0149001579000000000000
B0543243137784S11648542EA0148401571000000000000
B0543283137810S11648606EA0148301572000000000000
B0543323137871S11648622EA0148401573000000000000
B0543363137926S11648580EA0148501577000000000000
B0543403137933S11648505EA0149201585000000000000
B0543443137893S11648442EA0149901593000000000000
B0543483137835S11648421EA0150401596000000000000
B0543523137785S11648458EA0150101589000000000000
B0543563137766S11648528EA0149801587000000000000
B0544003137780S11648601EA0149801584000000000000
B0544043137832S11648642EA0149801583000000000000
B0544083137898S11648632EA0149101572000000000000
B0544123137943S11648571EA0148601572000000000000
B0544163137943S11648490EA0148901577000000000000
B0544203137906S11648423EA0149501581000000000000
B0544243137846S11648389EA0149601589000000000000
B0544283137789S11648415EA0150601598000000000000
B0544323137759S11648479EA0150801598000000000000
B0544363137764S11648557EA0150801593000000000000
B0544403137788S11648635EA0149301571000000000000
B0544443137819S11648724EA0147301550000000000000
B0544483137850S11648814EA0146501542000000000000
B0544523137879S11648908EA0145401532000000000000
B0544563137904S11649002EA0145101528000000000000
B0545003137931S11649097EA0144401521000000000000
B0545043137962S11649187EA0144001518000000000000
B0545083137993S11649274EA0143701517000000000000
B0545123138018S11649363EA0143201507000000000000
B0545163138035S11649455EA0142701504000000000000
B0545203138047S11649546EA0142201496000000000000
B0545243138058S11649638EA0141501490000000000000
B0545283138066S11649730EA0141201488000000000000
B0545323138075S11649820EA0141201490000000000000
B0545363138091S11649906EA0141601495000000000000
B0545403138110S11649988EA0142201501000000000000
B0545443138131S11650068EA0142301503000000000000
B0545483138156S11650146EA0141701494000000000000
B0545523138182S11650223EA0142601509000000000000
B0545563138230S11650266EA0144401530000000000000
B0546003138278S11650230EA0145801544000000000000
B0546043138265S11650157EA0146801556000000000000
B0546083138212S11650115EA0147101554000000000000
B0546123138153S11650148EA0146401552000000000000
B0546163138151S11650211EA0147401565000000000000
B0546203138200S11650234EA0148401572000000000000
B0546243138253S11650198EA0149001579000000000000
B0546283138252S11650127EA0150201593000000000000
B0546323138195S11650091EA0150801596000000000000
B0546363138139S11650122EA0150601592000000000000
B0546403138135S11650188EA0150501593000000000000
B0546443138160S11650254EA0150701597000000000000
B0546483138196S11650317EA0150501592000000000000
B0546523138238S11650382EA0149201572000000000000
B0546563138271S11650461EA0148001561000000000000
B0547003138296S11650547EA0147001554000000000000
B0547043138309S11650635EA0146301545000000000000
B0547083138318S11650724EA0145601539000000000000
B0547123138325S11650812EA0145301534000000000000
B0547163138334S11650899EA0145001532000000000000
B0547203138343S11650986EA0144601527000000000000
B0547243138352S11651072EA0144601526000000000000
B0547283138365S11651155EA0144301523000000000000
B0547323138381S11651236EA0144101522000000000000
B0547363138391S11651316EA0144201524000000000000
B0547403138401S11651396EA0143601513000000000000
B0547443138414S11651479EA0142701507000000000000
B0547483138422S11651560EA0142301506000000000000
B0547523138431S11651639EA0142401502000000000000
B0547563138439S11651721EA0141501492000000000000
B0548003138444S11651804EA0140901485000000000000
B0548043138452S11651887EA0140401482000000000000
B0548083138463S11651969EA0140001479000000000000
B0548123138473S11652050EA0139701478000000000000
B0548163138478S11652132EA0139201467000000000000
B0548203138489S11652215EA0137601448000000000000
