ACAM4N6
HFDTE270118
HFFXA050
HFPLTPILOT:JOHN WELSH              
HFGTYGLIDERTYPE:HORNET      
HFGIDGLIDERID:VH-GMY      
HFDTM100GPSDATUM:
HFRFWFIRMWAREVERSION:F2.6
HFRHWHARDWAREVERSION:300 Series Version 2
HFFTYFRTYPE:CAMBRIDGE AERO INSTRUMENTS, 302+
HFGPS:GARMIN,LVS-25,12,18000
HFPRSPRESSALTSENSOR:INTERSEMA, MS5534-AP, 20000
I033638FXA3941ENL4247REX
LCAMSBVER:5FWVER:F26300
C210118045320210118000103
C0000000N00000000WTAKEOFF     
C3207549S11656849EBEVAIR      
C3138766S11714465ECUNSIL      
C3256166S11710665ENARSIL      
C3255533S11704932ENARAIR      
C3207549S11656849EBEVAIR      
C0000000N00000000WLANDING     
B0434403207334S11656856EA0029900207000000000000
B0434423207334S11656856EA0029900207000000000000
B0434443207334S11656856EA0030000207000000000000
B0434463207334S11656856EA0030000207000000000000
B0434483207334S11656856EA0029800207000000000000
B0434503207334S11656856EA0029700207000000000000
B0434523207334S11656856EA0029900207000000000000
B0434543207334S11656856EA0029900207000000000000
B0434563207334S11656856EA0029800207000000000000
B0434583207334S11656856EA0029800207000000000000
B0435003207334S11656856EA0029900207000000000000
B0435023207334S11656856EA0029900207000000000000
B0435043207334S11656856EA0029800207000000000000
B0435063207334S11656856EA0029900207000000000000
B0435083207336S11656857EA0030000207000000000000
B0435133207355S11656873EA0030000207000000000000
B0435173207389S11656896EA0029900206000000000000
B0435213207437S11656927EA0030100207000000000000
B0435253207497S11656964EA0030200209000000000000
B0435293207560S11657004EA0030800215000000000000
B0435333207627S11657047EA0031400222000000000000
B0435373207687S11657094EA0032800241000000000000
B0435413207742S11657144EA0034300258000000000000
B0435453207802S11657194EA0035300271000000000000
B0435493207865S11657235EA0036600294000000000000
B0435533207930S11657277EA0038800306000000000000
B0435573207997S11657319EA0039500319000000000000
B0436013208064S11657360EA0040600333000000000000
B0436053208131S11657406EA0042200350000000000000
B0436093208199S11657451EA0044300368000000000000
B0436133208266S11657495EA0046200388000000000000
B0436173208326S11657553EA0048800415000000000000
B0436213208373S11657620EA0050900438000000000000
B0436253208396S11657703EA0052200455000000000000
B0436293208389S11657794EA0053600466000000000000
B0436333208370S11657885EA0054900480000000000000
B0436373208346S11657975EA0056500495000000000000
B0436413208324S11658066EA0057300497000000000000
B0436453208283S11658154EA0057500503000000000000
B0436493208217S11658225EA0058200512000000000000
B0436533208136S11658270EA0059200522000000000000
B0436573208048S11658294EA0060200534000000000000
B0437013207956S11658292EA0061400546000000000000
B0437053207866S11658262EA0062800560000000000000
B0437093207791S11658205EA0064500579000000000000
B0437133207728S11658135EA0067000611000000000000
B0437173207677S11658058EA0070100638000000000000
B0437213207637S11657979EA0072100657000000000000
B0437253207618S11657896EA0073700673000000000000
B0437293207625S11657811EA0074200675000000000000
B0437333207651S11657735EA0075500690000000000000
B0437373207659S11657655EA0077400710000000000000
B0437413207642S11657577EA0079200738000000000000
B0437453207601S11657506EA0081700760000000000000
B0437493207537S11657454EA0083100774000000000000
B0437533207458S11657424EA0084300785000000000000
B0437573207371S11657423EA0085200793000000000000
B0438013207289S11657460EA0086300805000000000000
B0438053207225S11657527EA0087400813000000000000
B0438093207181S11657610EA0088100820000000000000
B0438133207163S11657699EA0089300832000000000000
B0438173207172S11657789EA0090500845000000000000
B0438213207203S11657867EA0091500855000000000000
B0438253207251S11657926EA0092200865000000000000
B0438293207308S11657948EA0092600860000000000000
B0438333207362S11657926EA0091600847000000000000
B0438373207410S11657881EA0089800831000000000000
B0438413207455S11657828EA0088600817000000000000
B0438453207476S11657757EA0088000814000000000000
B0438493207451S11657679EA0088000816000000000000
B0438533207395S11657620EA0088800826000000000000
B0438573207321S11657619EA0089500832000000000000
B0439013207267S11657671EA0089300822000000000000
B0439053207263S11657741EA0088400811000000000000
B0439093207303S11657768EA0087400802000000000000
B0439133207338S11657736EA0086600796000000000000
B0439173207351S11657679EA0085700788000000000000
B0439213207358S11657614EA0085700790000000000000
B0439253207367S11657549EA0086500797000000000000
B0439293207369S11657482EA0086700801000000000000
B0439333207360S11657415EA0087200804000000000000
B0439373207342S11657346EA0087100803000000000000
B0439413207332S11657277EA0086400791000000000000
B0439453207337S11657209EA0085400784000000000000
B0439493207343S11657144EA0085500792000000000000
B0439533207347S11657082EA0085800788000000000000
B0439573207346S11657014EA0084800776000000000000
B0440013207338S11656945EA0083700770000000000000
B0440053207325S11656877EA0083200763000000000000
B0440093207316S11656809EA0083200766000000000000
B0440133207338S11656757EA0083600771000000000000
B0440173207381S11656735EA0084100777000000000000
B0440213207425S11656747EA0084200777000000000000
B0440253207456S11656795EA0084500780000000000000
B0440293207445S11656862EA0085400789000000000000
B0440333207385S11656897EA0086400799000000000000
B0440373207321S11656873EA0087100804000000000000
B0440413207293S11656814EA0087400810000000000000
B0440453207308S11656767EA0087800809000000000000
B0440493207350S11656757EA0087700808000000000000
B0440533207385S11656792EA0087900810000000000000
B0440573207393S11656856EA0087800810000000000000
B0441013207377S11656926EA0087500804000000000000
B0441053207326S11656979EA0087200804000000000000
B0441093207261S11656953EA0087900815000000000000
B0441133207263S11656892EA0088900822000000000000
B0441173207308S11656882EA0089300827000000000000
B0441213207338S11656929EA0090200834000000000000
B0441253207319S11656997EA0090200832000000000000
B0441293207251S11657036EA0089800829000000000000
B0441333207186S11657007EA0091000847000000000000
B0441373207186S11656951EA0092000853000000000000
B0441413207230S11656944EA0092100853000000000000
B0441453207259S11656997EA0092900865000000000000
B0441493207238S11657068EA0093700870000000000000
B0441533207177S11657112EA0093900877000000000000
B0441573207113S11657101EA0095100888000000000000
B0442013207078S11657048EA0095600892000000000000
B0442053207081S11656995EA0096000896000000000000
B0442093207111S11656968EA0096600899000000000000
B0442133207154S11656979EA0096700901000000000000
B0442173207178S11657031EA0097300908000000000000
B0442213207173S11657100EA0097400907000000000000
B0442253207129S11657166EA0097500912000000000000
B0442293207059S11657178EA0098500921000000000000
B0442333207013S11657134EA0099000927000000000000
B0442373207009S11657075EA0099100925000000000000
B0442413207012S11657012EA0099000929000000000000
B0442453207014S11656947EA0099600933000000000000
B0442493207029S11656882EA0100000937000000000000
B0442533207017S11656815EA0100900949000000000000
B0442573206960S11656795EA0101400952000000000000
B0443013206905S11656840EA0101000947000000000000
B0443053206896S11656913EA0100600939000000000000
B0443093206930S11656957EA0100500943000000000000
B0443133206975S11656975EA0100800950000000000000
B0443173207017S11656960EA0101400948000000000000
B0443213207024S11656900EA0100900947000000000000
B0443253206973S11656856EA0100700945000000000000
B0443293206904S11656860EA0101300953000000000000
B0443333206858S11656916EA0102000955000000000000
B0443373206861S11656982EA0101800955000000000000
B0443413206895S11657023EA0102200962000000000000
B0443453206938S11657044EA0102400961000000000000
B0443493206988S11657043EA0102100960000000000000
B0443533207039S11657039EA0102400964000000000000
B0443573207090S11657059EA0102400963000000000000
B0444013207146S11657065EA0101400948000000000000
B0444053207199S11657044EA0100300939000000000000
B0444093207243S11657004EA0099600935000000000000
B0444133207282S11656960EA0099300933000000000000
B0444173207320S11656914EA0099300933000000000000
B0444213207359S11656869EA0099200932000000000000
B0444253207399S11656823EA0099100933000000000000
B0444293207442S11656784EA0099500937000000000000
B0444333207488S11656757EA0099500934000000000000
B0444373207536S11656732EA0098400924000000000000
B0444413207580S11656704EA0098700931000000000000
B0444453207619S11656671EA0099400936000000000000
B0444493207640S11656620EA0099500932000000000000
B0444533207636S11656555EA0098400920000000000000
B0444573207637S11656488EA0098300922000000000000
B0445013207674S11656444EA0099500937000000000000
B0445053207726S11656444EA0100000938000000000000
B0445093207757S11656406EA0100100942000000000000
B0445133207726S11656357EA0100100943000000000000
B0445173207659S11656351EA0099500936000000000000
B0445213207603S11656401EA0098500927000000000000
B0445253207585S11656480EA0097600920000000000000
B0445293207594S11656562EA0097400919000000000000
B0445333207612S11656641EA0097500919000000000000
B0445373207651S11656691EA0097700917000000000000
B0445413207689S11656665EA0097100913000000000000
B0445453207680S11656602EA0096300905000000000000
B0445493207636S11656550EA0095600895000000000000
B0445533207575S11656511EA0094800890000000000000
B0445573207511S11656474EA0094700886000000000000
B0446013207445S11656437EA0093800874000000000000
B0446053207377S11656403EA0092600861000000000000
B0446093207310S11656370EA0091400850000000000000
B0446133207245S11656333EA0090700842000000000000
B0446173207178S11656298EA0089700829000000000000
B0446213207108S11656275EA0088400817000000000000
B0446253207033S11656273EA0087500807000000000000
B0446293206959S11656299EA0086600794000000000000
B0446333206888S11656338EA0086200795000000000000
B0446373206829S11656392EA0086500800000000000000
B0446413206783S11656457EA0087100803000000000000
B0446453206767S11656532EA0087200805000000000000
B0446493206791S11656594EA0087700813000000000000
B0446533206832S11656606EA0088400820000000000000
B0446573206823S11656549EA0088300816000000000000
B0447013206757S11656546EA0088200820000000000000
B0447053206723S11656610EA0089000828000000000000
B0447093206744S11656667EA0090000838000000000000
B0447133206788S11656671EA0090200839000000000000
B0447173206804S11656620EA0090700847000000000000
B0447213206770S11656566EA0091100851000000000000
B0447253206706S11656550EA0091400853000000000000
B0447293206648S11656592EA0091400852000000000000
B0447333206623S11656666EA0091700859000000000000
B0447373206639S11656732EA0093200876000000000000
B0447413206678S11656736EA0094500886000000000000
B0447453206686S11656684EA0094500884000000000000
B0447493206643S11656640EA0094500883000000000000
B0447533206575S11656649EA0094300883000000000000
B0447573206527S11656709EA0095300895000000000000
B0448013206530S11656775EA0096600914000000000000
B0448053206571S11656787EA0098200927000000000000
B0448093206585S11656737EA0099200935000000000000
B0448133206543S11656691EA0099400939000000000000
B0448173206479S11656697EA0100100947000000000000
B0448213206442S11656758EA0100700954000000000000
B0448253206466S11656815EA0101600967000000000000
B0448293206509S11656802EA0103000977000000000000
B0448333206506S11656743EA0103500985000000000000
B0448373206450S11656713EA0104300993000000000000
B0448413206392S11656745EA0104800996000000000000
B0448453206374S11656812EA0105701008000000000000
B0448493206407S11656853EA0107101019000000000000
B0448533206448S11656825EA0108201030000000000000
B0448573206441S11656762EA0109001039000000000000
B0449013206387S11656726EA0109501045000000000000
B0449053206319S11656744EA0109801050000000000000
B0449093206280S11656805EA0111101064000000000000
B0449133206298S11656861EA0112401081000000000000
B0449173206341S11656851EA0114101096000000000000
B0449213206344S11656793EA0115301107000000000000
B0449253206296S11656754EA0115701109000000000000
B0449293206231S11656771EA0116101114000000000000
B0449333206201S11656835EA0116701123000000000000
B0449373206223S11656887EA0118201144000000000000
B0449413206263S11656873EA0119901161000000000000
B0449453206255S11656813EA0121201174000000000000
B0449493206199S11656795EA0122301181000000000000
B0449533206151S11656844EA0122601188000000000000
B0449573206155S11656912EA0124301208000000000000
B0450013206195S11656947EA0126301225000000000000
B0450053206229S11656910EA0127601239000000000000
B0450093206205S11656849EA0128701250000000000000
B0450133206142S11656841EA0129701259000000000000
B0450173206099S11656900EA0130601270000000000000
B0450213206119S11656962EA0132201287000000000000
B0450253206171S11656964EA0133701306000000000000
B0450293206195S11656908EA0135201320000000000000
B0450333206168S11656845EA0136201328000000000000
B0450373206099S11656831EA0136601333000000000000
B0450413206043S11656883EA0137501342000000000000
B0450453206046S11656955EA0139201365000000000000
B0450493206091S11656975EA0141101378000000000000
B0450533206124S11656925EA0141901383000000000000
B0450573206098S11656856EA0142601392000000000000
B0451013206034S11656838EA0143801404000000000000
B0451053205980S11656886EA0144401412000000000000
B0451093205980S11656958EA0145701430000000000000
B0451133206023S11656990EA0147701448000000000000
B0451173206059S11656955EA0149101461000000000000
B0451213206045S11656890EA0149601467000000000000
B0451253205986S11656858EA0150801479000000000000
B0451293205925S11656886EA0151601488000000000000
B0451333205902S11656949EA0153001503000000000000
B0451373205924S11657003EA0154201515000000000000
B0451413205971S11657010EA0155301523000000000000
B0451453205991S11656955EA0156001535000000000000
B0451493205959S11656891EA0156701544000000000000
B0451533205891S11656878EA0157701554000000000000
B0451573205841S11656927EA0158701564000000000000
B0452013205842S11656996EA0159601572000000000000
B0452053205890S11657025EA0160201581000000000000
B0452093205934S11656992EA0161501597000000000000
B0452133205950S11656930EA0162901607000000000000
B0452173205932S11656865EA0163701617000000000000
B0452213205882S11656825EA0164301621000000000000
B0452253205818S11656834EA0164401625000000000000
B0452293205777S11656888EA0165101630000000000000
B0452333205777S11656953EA0165801638000000000000
B0452373205813S11657000EA0166401642000000000000
B0452413205864S11657007EA0167101653000000000000
B0452453205915S11656984EA0167101646000000000000
B0452493205973S11656964EA0166301642000000000000
B0452533206030S11656940EA0166101639000000000000
B0452573206086S11656918EA0165501633000000000000
B0453013206142S11656893EA0165001627000000000000
B0453053206194S11656869EA0164701624000000000000
B0453093206244S11656844EA0164701623000000000000
B0453133206290S11656817EA0164001616000000000000
B0453173206335S11656786EA0163301609000000000000
B0453243206409S11656723EA0162101595000000000000
B0453283206444S11656680EA0161301589000000000000
B0453323206481S11656641EA0161101587000000000000
B0453363206523S11656614EA0160801584000000000000
B0453403206572S11656615EA0160501581000000000000
B0453443206623S11656639EA0160301578000000000000
B0453483206674S11656658EA0160101575000000000000
B0453523206727S11656665EA0159501569000000000000
B0453563206779S11656666EA0158701560000000000000
B0454003206834S11656666EA0157901550000000000000
B0454043206887S11656666EA0156801540000000000000
B0454083206940S11656674EA0155701529000000000000
B0454123206998S11656695EA0154401516000000000000
B0454163207057S11656722EA0153401503000000000000
B0454203207115S11656752EA0152801500000000000000
B0454243207172S11656778EA0152301494000000000000
B0454283207229S11656805EA0151501483000000000000
B0454323207289S11656831EA0150201469000000000000
B0454363207346S11656854EA0149301460000000000000
B0454403207403S11656878EA0148201446000000000000
B0454443207462S11656909EA0146701428000000000000
B0454483207520S11656951EA0144801409000000000000
B0454523207572S11657012EA0143101389000000000000
B0454563207616S11657085EA0141901376000000000000
B0455003207650S11657163EA0140801364000000000000
B0455043207681S11657247EA0139101344000000000000
B0455083207713S11657337EA0137501328000000000000
B0455123207742S11657428EA0136701324000000000000
B0455163207776S11657514EA0136401322000000000000
B0455203207813S11657592EA0136601324000000000000
B0455243207856S11657662EA0136901325000000000000
B0455283207902S11657727EA0135901313000000000000
B0455323207947S11657802EA0134801295000000000000
B0455363207988S11657883EA0133201284000000000000
B0455403208028S11657963EA0133201290000000000000
B0455443208073S11658031EA0133401289000000000000
B0455483208125S11658087EA0133001284000000000000
B0455523208177S11658143EA0132801287000000000000
B0455563208227S11658197EA0132901288000000000000
B0456003208278S11658245EA0133001289000000000000
B0456043208330S11658291EA0132601284000000000000
B0456083208382S11658334EA0133001290000000000000
B0456123208434S11658373EA0133001284000000000000
B0456163208489S11658416EA0132501276000000000000
B0456203208542S11658472EA0131701274000000000000
B0456243208590S11658537EA0132101275000000000000
B0456283208639S11658602EA0131001260000000000000
B0456323208686S11658678EA0129401248000000000000
B0456363208721S11658763EA0128601240000000000000
B0456403208751S11658849EA0128101233000000000000
B0456443208779S11658933EA0127401223000000000000
B0456483208807S11659015EA0126901223000000000000
B0456523208833S11659093EA0127301229000000000000
B0456563208867S11659161EA0127701233000000000000
B0457003208909S11659215EA0128101237000000000000
B0457043208951S11659267EA0128501240000000000000
B0457083208994S11659315EA0128101233000000000000
B0457123209045S11659356EA0127501229000000000000
B0457163209096S11659392EA0127301226000000000000
B0457203209148S11659431EA0126501211000000000000
B0457243209198S11659483EA0125001196000000000000
B0457283209243S11659547EA0123701182000000000000
B0457323209282S11659618EA0122601171000000000000
B0457363209314S11659696EA0121201156000000000000
B0457403209344S11659777EA0119601142000000000000
B0457443209375S11659861EA0118401132000000000000
B0457483209405S11659946EA0117601122000000000000
B0457523209436S11700033EA0116801115000000000000
B0457563209468S11700119EA0116401113000000000000
B0458003209497S11700199EA0116601116000000000000
B0458043209526S11700276EA0116501111000000000000
B0458083209557S11700354EA0115801104000000000000
B0458123209587S11700432EA0115001092000000000000
B0458163209618S11700510EA0113901082000000000000
B0458203209648S11700587EA0113101070000000000000
B0458243209677S11700665EA0111701060000000000000
B0458283209709S11700744EA0110701046000000000000
B0458323209744S11700821EA0109301029000000000000
B0458363209783S11700899EA0107901017000000000000
B0458403209830S11700961EA0108101025000000000000
B0458443209884S11700972EA0109401041000000000000
B0458483209919S11700938EA0110101046000000000000
B0458523209942S11700891EA0110201043000000000000
B0458563209963S11700839EA0109801041000000000000
B0459003209978S11700780EA0109701039000000000000
B0459043209980S11700717EA0110101046000000000000
B0459083209977S11700650EA0110501049000000000000
B0459123209976S11700582EA0110901052000000000000
B0459163209964S11700514EA0111701061000000000000
B0459203209911S11700472EA0113201085000000000000
B0459243209848S11700498EA0114601094000000000000
B0459283209828S11700566EA0114601091000000000000
B0459323209852S11700623EA0114301090000000000000
B0459363209894S11700649EA0114801099000000000000
B0459403209938S11700643EA0115201100000000000000
B0459443209969S11700602EA0115101098000000000000
B0459483209958S11700544EA0116001111000000000000
B0459523209894S11700520EA0116501115000000000000
B0459563209826S11700557EA0116701118000000000000
B0500003209815S11700632EA0117801135000000000000
B0500043209852S11700657EA0119301148000000000000
B0500083209874S11700621EA0119701153000000000000
B0500123209841S11700574EA0120001155000000000000
B0500163209772S11700566EA0120201157000000000000
B0500203209715S11700614EA0121001169000000000000
B0500243209695S11700687EA0122201181000000000000
B0500283209720S11700739EA0122801184000000000000
B0500323209765S11700744EA0122901187000000000000
B0500363209790S11700700EA0123301192000000000000
B0500403209764S11700647EA0123901198000000000000
B0500443209703S11700621EA0124301201000000000000
B0500483209634S11700645EA0124601208000000000000
B0500523209591S11700710EA0125701218000000000000
B0500563209595S11700777EA0126301220000000000000
B0501003209637S11700810EA0126101220000000000000
B0501043209676S11700782EA0126501225000000000000
B0501083209666S11700726EA0127301234000000000000
B0501123209612S11700692EA0127501236000000000000
B0501163209543S11700708EA0127801239000000000000
B0501203209490S11700766EA0128201241000000000000
B0501243209470S11700840EA0128301240000000000000
B0501283209490S11700908EA0127601232000000000000
B0501323209531S11700960EA0126801223000000000000
B0501363209585S11700988EA0126701230000000000000
B0501403209630S11700973EA0127601234000000000000
B0501443209655S11700923EA0127301231000000000000
B0501483209668S11700862EA0126901224000000000000
B0501523209676S11700799EA0127101228000000000000
B0501563209644S11700743EA0127601232000000000000
B0502003209577S11700731EA0128001237000000000000
B0502043209512S11700773EA0128401240000000000000
B0502083209477S11700848EA0128801242000000000000
B0502123209487S11700918EA0128901244000000000000
B0502163209531S11700948EA0128701240000000000000
B0502203209573S11700927EA0128601243000000000000
B0502243209600S11700883EA0128201234000000000000
B0502283209642S11700851EA0127001225000000000000
B0502323209690S11700831EA0126001212000000000000
B0502363209748S11700835EA0124001187000000000000
B0502403209809S11700882EA0121901168000000000000
B0502443209865S11700948EA0120101146000000000000
B0502483209916S11701026EA0118901134000000000000
B0502523209965S11701108EA0117801125000000000000
B0502563210010S11701196EA0116901116000000000000
B0503003210051S11701289EA0116001104000000000000
B0503043210089S11701385EA0115001095000000000000
B0503083210125S11701482EA0114201087000000000000
B0503123210162S11701576EA0113501079000000000000
B0503163210198S11701667EA0113301078000000000000
B0503203210233S11701754EA0113201080000000000000
B0503243210270S11701836EA0114101091000000000000
B0503283210313S11701902EA0115601110000000000000
B0503323210363S11701918EA0117601129000000000000
B0503363210379S11701870EA0118801140000000000000
B0503403210332S11701823EA0119501146000000000000
B0503443210259S11701833EA0119601146000000000000
B0503483210210S11701896EA0120701160000000000000
B0503523210203S11701970EA0121701168000000000000
B0503563210235S11702019EA0122601178000000000000
B0504003210275S11702014EA0123301185000000000000
B0504043210284S11701969EA0123601188000000000000
B0504083210245S11701923EA0124001193000000000000
B0504123210176S11701924EA0124001191000000000000
B0504163210124S11701987EA0124301197000000000000
B0504203210114S11702067EA0125201207000000000000
B0504243210146S11702118EA0126301217000000000000
B0504283210186S11702104EA0127001221000000000000
B0504323210177S11702051EA0127401226000000000000
B0504363210116S11702034EA0127501227000000000000
B0504403210054S11702083EA0128101235000000000000
B0504443210024S11702160EA0129601249000000000000
B0504483210049S11702216EA0130601263000000000000
B0504523210089S11702205EA0131301269000000000000
B0504563210089S11702153EA0132001273000000000000
B0505003210037S11702118EA0132201275000000000000
B0505043209969S11702147EA0132701283000000000000
B0505083209936S11702221EA0133801297000000000000
B0505123209950S11702287EA0135201311000000000000
B0505163209995S11702314EA0135801314000000000000
B0505203210040S11702295EA0136001319000000000000
B0505243210045S11702242EA0137001329000000000000
B0505283210007S11702197EA0137601336000000000000
B0505323209943S11702197EA0138001340000000000000
B0505363209886S11702249EA0138301340000000000000
B0505403209868S11702331EA0138701349000000000000
B0505443209860S11702416EA0139401358000000000000
B0505483209861S11702498EA0141301381000000000000
B0505523209902S11702546EA0142901391000000000000
B0505563209943S11702520EA0143901407000000000000
B0506003209926S11702465EA0145501422000000000000
B0506043209867S11702444EA0146001425000000000000
B0506083209802S11702485EA0146901435000000000000
B0506123209764S11702559EA0148101451000000000000
B0506163209770S11702630EA0149101453000000000000
B0506203209820S11702664EA0148601451000000000000
B0506243209859S11702639EA0150001470000000000000
B0506283209828S11702597EA0151201482000000000000
B0506323209764S11702619EA0152401491000000000000
B0506363209737S11702697EA0153301498000000000000
B0506403209765S11702766EA0154101509000000000000
B0506443209812S11702767EA0155101519000000000000
B0506483209824S11702717EA0155301521000000000000
B0506523209786S11702671EA0156401534000000000000
B0506563209725S11702671EA0157501546000000000000
B0507003209677S11702728EA0158701557000000000000
B0507043209659S11702808EA0158601552000000000000
B0507083209672S11702892EA0158701556000000000000
B0507123209713S11702936EA0159001563000000000000
B0507163209760S11702924EA0159701567000000000000
B0507203209783S11702876EA0159701565000000000000
B0507243209772S11702818EA0159601564000000000000
B0507283209716S11702790EA0160201575000000000000
B0507323209653S11702823EA0160801579000000000000
B0507363209624S11702901EA0161601587000000000000
B0507403209640S11702975EA0162401594000000000000
B0507443209686S11703005EA0162601597000000000000
B0507483209730S11702984EA0162301590000000000000
B0507523209733S11702923EA0161801589000000000000
B0507563209683S11702877EA0161801589000000000000
B0508003209612S11702896EA0162101594000000000000
B0508043209566S11702967EA0162701597000000000000
B0508083209568S11703052EA0162501594000000000000
B0508123209587S11703135EA0162501595000000000000
B0508163209617S11703209EA0162601598000000000000
B0508203209653S11703276EA0162801591000000000000
B0508243209690S11703352EA0161201576000000000000
B0508283209725S11703431EA0160101566000000000000
B0508323209763S11703513EA0159201550000000000000
B0508363209806S11703595EA0157901539000000000000
B0508403209850S11703673EA0157201535000000000000
B0508443209893S11703746EA0156801533000000000000
B0508483209934S11703813EA0156901535000000000000
B0508523209969S11703881EA0157401541000000000000
B0508563209999S11703947EA0157601540000000000000
B0509003210032S11704014EA0157201536000000000000
B0509043210067S11704082EA0157201538000000000000
B0509083210101S11704151EA0157101532000000000000
B0509123210140S11704224EA0155801515000000000000
B0509163210184S11704300EA0154001496000000000000
B0509203210228S11704375EA0152801492000000000000
B0509243210271S11704448EA0152801491000000000000
B0509283210311S11704518EA0152301485000000000000
B0509323210352S11704591EA0151101470000000000000
B0509363210391S11704670EA0149801457000000000000
B0509403210430S11704748EA0149101452000000000000
B0509443210467S11704825EA0148001441000000000000
B0509483210513S11704898EA0147301430000000000000
B0509523210558S11704968EA0146601425000000000000
B0509563210601S11705041EA0145701415000000000000
B0510003210644S11705115EA0144801402000000000000
B0510043210686S11705193EA0144201397000000000000
B0510083210726S11705272EA0144201399000000000000
B0510123210766S11705345EA0144701404000000000000
B0510163210805S11705416EA0144401400000000000000
B0510203210843S11705488EA0143701390000000000000
B0510243210881S11705562EA0142801381000000000000
B0510283210918S11705635EA0141501368000000000000
B0510323210959S11705710EA0140201355000000000000
B0510363210999S11705785EA0139801350000000000000
B0510403211038S11705863EA0138501339000000000000
B0510443211078S11705939EA0137601330000000000000
B0510483211116S11706017EA0136701320000000000000
B0510523211156S11706094EA0135701307000000000000
B0510563211200S11706166EA0134301290000000000000
B0511003211245S11706242EA0132901279000000000000
B0511043211290S11706315EA0132001271000000000000
B0511083211333S11706387EA0131301266000000000000
B0511123211372S11706465EA0130901260000000000000
B0511163211406S11706546EA0130001251000000000000
B0511203211440S11706624EA0129901251000000000000
B0511243211473S11706699EA0129101240000000000000
B0511283211506S11706779EA0128001223000000000000
B0511323211533S11706866EA0126201203000000000000
B0511363211549S11706959EA0124501189000000000000
B0511403211558S11707057EA0123701180000000000000
B0511443211564S11707154EA0122601170000000000000
B0511483211568S11707252EA0121501155000000000000
B0511523211577S11707351EA0120201144000000000000
B0511563211583S11707449EA0119201135000000000000
B0512003211588S11707547EA0118101122000000000000
B0512043211590S11707643EA0116701106000000000000
B0512083211592S11707742EA0115401094000000000000
B0512123211590S11707837EA0114701088000000000000
B0512163211585S11707932EA0113901081000000000000
B0512203211581S11708027EA0113601078000000000000
B0512243211583S11708119EA0113601078000000000000
B0512283211583S11708207EA0113401075000000000000
B0512323211583S11708297EA0112801066000000000000
B0512363211583S11708391EA0112001057000000000000
B0512403211585S11708484EA0111801065000000000000
B0512443211589S11708574EA0113201077000000000000
B0512483211610S11708655EA0113901082000000000000
B0512523211662S11708686EA0114901102000000000000
B0512563211704S11708665EA0116201113000000000000
B0513003211700S11708605EA0116401111000000000000
B0513043211645S11708554EA0116201108000000000000
B0513083211570S11708569EA0116701120000000000000
B0513123211502S11708613EA0118301135000000000000
B0513163211477S11708688EA0119801150000000000000
B0513203211520S11708723EA0120401156000000000000
B0513243211535S11708674EA0121101166000000000000
B0513283211480S11708645EA0122201179000000000000
B0513323211424S11708688EA0123301187000000000000
B0513363211412S11708759EA0123701190000000000000
B0513403211453S11708800EA0123601188000000000000
B0513443211494S11708782EA0124101195000000000000
B0513483211479S11708727EA0124801202000000000000
B0513523211420S11708704EA0125401210000000000000
B0513563211369S11708747EA0126501223000000000000
B0514003211364S11708818EA0127001223000000000000
B0514043211403S11708863EA0126901221000000000000
B0514083211442S11708843EA0127501229000000000000
B0514123211432S11708791EA0128201235000000000000
B0514163211377S11708766EA0128501240000000000000
B0514203211317S11708796EA0129301250000000000000
B0514243211281S11708863EA0129401247000000000000
B0514283211272S11708943EA0129601256000000000000
B0514323211297S11709007EA0130401261000000000000
B0514363211340S11709006EA0130601260000000000000
B0514403211338S11708955EA0130901267000000000000
B0514443211284S11708924EA0131301268000000000000
B0514483211219S11708955EA0131401271000000000000
B0514523211176S11709022EA0132101279000000000000
B0514563211148S11709099EA0133201292000000000000
B0515003211161S11709164EA0134101299000000000000
B0515043211200S11709165EA0133901295000000000000
B0515083211217S11709116EA0133301289000000000000
B0515123211178S11709065EA0133701295000000000000
B0515163211106S11709073EA0134001298000000000000
B0515203211047S11709129EA0134601307000000000000
B0515243211028S11709207EA0135201311000000000000
B0515283211050S11709272EA0135401313000000000000
B0515323211094S11709293EA0135401310000000000000
B0515363211128S11709264EA0134901305000000000000
B0515403211139S11709208EA0134201299000000000000
B0515443211134S11709141EA0134101299000000000000
B0515483211115S11709073EA0134301301000000000000
B0515523211068S11709026EA0134501299000000000000
B0515563211002S11709055EA0135001308000000000000
B0516003210970S11709128EA0135001305000000000000
B0516043210972S11709210EA0134501303000000000000
B0516083210985S11709290EA0134701305000000000000
B0516123211002S11709370EA0134501303000000000000
B0516163211024S11709446EA0133901296000000000000
B0516203211046S11709522EA0133801291000000000000
B0516243211070S11709597EA0132601278000000000000
B0516283211098S11709671EA0132401277000000000000
B0516323211126S11709741EA0131901272000000000000
B0516363211155S11709813EA0131801270000000000000
B0516403211185S11709880EA0132001277000000000000
B0516443211213S11709945EA0132601281000000000000
B0516483211245S11710004EA0132701280000000000000
B0516523211288S11710036EA0132901280000000000000
B0516563211336S11710036EA0132001270000000000000
B0517003211386S11710040EA0131101260000000000000
B0517043211438S11710062EA0130201254000000000000
B0517083211485S11710100EA0129401242000000000000
B0517123211525S11710155EA0128701236000000000000
B0517163211555S11710224EA0128401233000000000000
B0517203211577S11710298EA0128101226000000000000
B0517243211598S11710374EA0127501224000000000000
B0517283211615S11710451EA0127701229000000000000
B0517323211629S11710524EA0128801241000000000000
B0517363211665S11710559EA0130401256000000000000
B0517403211691S11710525EA0130901262000000000000
B0517443211676S11710465EA0131501267000000000000
B0517483211615S11710433EA0131801268000000000000
B0517523211551S11710469EA0131801269000000000000
B0517563211519S11710541EA0132101276000000000000
B0518003211527S11710608EA0133101286000000000000
B0518043211562S11710650EA0133201288000000000000
B0518083211603S11710653EA0133901294000000000000
B0518123211640S11710624EA0133901294000000000000
B0518163211666S11710576EA0133901293000000000000
B0518203211661S11710511EA0133701291000000000000
B0518243211610S11710458EA0133601293000000000000
B0518283211533S11710450EA0134201302000000000000
B0518323211460S11710485EA0134901307000000000000
B0518363211412S11710555EA0135201311000000000000
B0518403211408S11710629EA0135801318000000000000
B0518443211447S11710667EA0135901317000000000000
B0518483211489S11710647EA0135701313000000000000
B0518523211490S11710584EA0136101319000000000000
B0518563211437S11710537EA0136901328000000000000
B0519003211359S11710545EA0137201330000000000000
B0519043211298S11710601EA0137201328000000000000
B0519083211258S11710679EA0137701336000000000000
B0519123211249S11710759EA0138001338000000000000
B0519163211271S11710828EA0137601331000000000000
B0519203211312S11710884EA0136801325000000000000
B0519243211360S11710933EA0136001316000000000000
B0519283211411S11710978EA0135301305000000000000
B0519323211466S11711018EA0134201295000000000000
B0519363211522S11711056EA0133501287000000000000
B0519403211579S11711096EA0132001270000000000000
B0519443211637S11711138EA0130901260000000000000
B0519483211696S11711182EA0130301255000000000000
B0519523211752S11711226EA0130101253000000000000
B0519563211808S11711274EA0129701246000000000000
B0520003211863S11711320EA0130301263000000000000
B0520043211915S11711336EA0132301284000000000000
B0520083211958S11711323EA0133901297000000000000
B0520123211953S11711271EA0134801307000000000000
B0520163211886S11711255EA0135601313000000000000
B0520203211821S11711308EA0136501324000000000000
B0520243211793S11711388EA0136501323000000000000
B0520283211811S11711466EA0137101333000000000000
B0520323211858S11711504EA0137601338000000000000
B0520363211905S11711495EA0138401345000000000000
B0520403211940S11711461EA0138801348000000000000
B0520443211957S11711411EA0139301354000000000000
B0520483211927S11711352EA0139701358000000000000
B0520523211857S11711343EA0140801374000000000000
B0520563211804S11711400EA0142401392000000000000
B0521003211801S11711476EA0143301397000000000000
B0521043211841S11711517EA0143901403000000000000
B0521083211886S11711508EA0144401410000000000000
B0521123211896S11711456EA0145401425000000000000
B0521163211854S11711409EA0146401431000000000000
B0521203211785S11711425EA0147501444000000000000
B0521243211756S11711499EA0148601455000000000000
B0521283211787S11711556EA0149401465000000000000
B0521323211826S11711542EA0150401470000000000000
B0521363211813S11711491EA0151401485000000000000
B0521403211753S11711483EA0151801489000000000000
B0521443211706S11711550EA0152301496000000000000
B0521483211723S11711621EA0153401510000000000000
B0521523211765S11711634EA0154501518000000000000
B0521563211782S11711595EA0155201521000000000000
B0522003211745S11711551EA0155101521000000000000
B0522043211675S11711547EA0155501527000000000000
B0522083211615S11711598EA0156701539000000000000
B0522123211609S11711687EA0157501549000000015000
B0522163211652S11711734EA0158501558000000000000
B0522203211694S11711713EA0158701559000000000000
B0522243211693S11711656EA0159401568000000000000
B0522283211642S11711620EA0159501570000000000000
B0522323211568S11711633EA0160001577000000000000
B0522363211515S11711700EA0161101588000000000000
B0522403211515S11711782EA0161801596000000000000
B0522443211558S11711829EA0162501602000000000000
B0522483211606S11711823EA0163201606000000000000
B0522523211626S11711773EA0163301605000000000000
B0522563211588S11711723EA0163301608000000000000
B0523003211518S11711728EA0163901613000000000000
B0523043211467S11711794EA0164401623000000000000
B0523083211451S11711877EA0165101630000000000000
B0523123211479S11711946EA0165601633000000000000
B0523163211528S11711949EA0166201638000000000000
B0523203211535S11711899EA0166701642000000000000
B0523243211486S11711864EA0166501639000000000000
B0523283211419S11711890EA0165801633000000000000
B0523323211380S11711967EA0166501641000000000000
B0523363211392S11712046EA0166601638000000000000
B0523403211441S11712106EA0164901618000000000000
B0523443211505S11712159EA0163501604000000000000
B0523483211574S11712211EA0162201590000000000000
B0523523211644S11712261EA0160801577000000000000
B0523563211717S11712309EA0159801562000000000000
B0524003211789S11712360EA0158601554000000000000
B0524043211858S11712415EA0158501553000000000000
B0524083211923S11712473EA0158201550000000000000
B0524123211983S11712529EA0157801546000000000000
B0524163212042S11712584EA0157301538000000000000
B0524203212100S11712640EA0156001525000000000000
B0524243212159S11712694EA0155501526000000000000
B0524283212216S11712743EA0156201532000000000000
B0524323212273S11712794EA0156601533000000000000
B0524363212328S11712847EA0156701539000000000000
B0524403212383S11712900EA0157301545000000000000
B0524443212437S11712951EA0157901546000000000000
B0524483212494S11713003EA0157901550000000000000
B0524523212549S11713054EA0158401552000000000000
B0524563212603S11713107EA0158301548000000000000
B0525003212659S11713164EA0157801541000000000000
B0525043212714S11713229EA0156901533000000000000
B0525083212768S11713298EA0156801535000000000000
B0525123212820S11713368EA0156201527000000000000
B0525163212871S11713440EA0155101516000000000000
B0525203212924S11713513EA0153901498000000000000
B0525243212980S11713588EA0151901474000000000000
B0525283213039S11713662EA0150701470000000000000
B0525323213093S11713734EA0150201462000000000000
B0525363213147S11713805EA0149601458000000000000
B0525403213197S11713874EA0149901461000000000000
B0525443213244S11713943EA0149701460000000000000
B0525483213287S11714008EA0149401456000000000000
B0525523213329S11714072EA0148801450000000000000
B0525563213371S11714134EA0148901453000000000000
B0526003213413S11714195EA0148701448000000000000
B0526043213459S11714258EA0147701436000000000000
B0526083213504S11714321EA0146801429000000000000
B0526123213551S11714382EA0146401424000000000000
B0526163213599S11714441EA0145401415000000000000
B0526203213646S11714503EA0144701405000000000000
B0526243213695S11714568EA0143801396000000000000
B0526283213746S11714635EA0142901389000000000000
B0526323213795S11714703EA0142201382000000000000
B0526363213843S11714774EA0141701376000000000000
B0526403213893S11714841EA0141201370000000000000
B0526443213942S11714906EA0140401358000000000000
B0526483213992S11714966EA0140001362000000000000
B0526523214034S11715025EA0141101375000000000000
B0526563214076S11715077EA0141701379000000000000
B0527003214123S11715117EA0141001370000000000000
B0527043214172S11715158EA0140701370000000000000
B0527083214218S11715203EA0141001372000000000000
B0527123214266S11715234EA0141201371000000000000
B0527163214317S11715230EA0140601362000000000000
B0527203214357S11715199EA0140101362000000000000
B0527243214376S11715149EA0140001361000000000000
B0527283214382S11715091EA0140101363000000000000
B0527323214384S11715032EA0140601368000000000000
B0527363214385S11714970EA0141101377000000000000
B0527403214359S11714911EA0142701393000000000000
B0527443214292S11714919EA0144101409000000000000
B0527483214250S11714988EA0145601418000000000000
B0527523214258S11715065EA0146101427000000000000
B0527563214304S11715093EA0147701444000000000000
B0528003214343S11715070EA0148701454000000000000
B0528043214340S11715018EA0150101468000000000000
B0528083214288S11714991EA0150801473000000000000
B0528123214229S11715035EA0151801485000000000000
B0528163214222S11715113EA0152901496000000000000
B0528203214267S11715147EA0153701505000000000000
B0528243214294S11715106EA0154801517000000000000
B0528283214262S11715058EA0155701526000000000000
B0528323214196S11715064EA0156101533000000000000
B0528363214154S11715131EA0157401543000000000000
B0528403214166S11715212EA0157901551000000000000
B0528443214215S11715243EA0159101564000000000000
B0528483214254S11715213EA0160101574000000000000
B0528523214253S11715157EA0161201585000000000000
B0528563214197S11715135EA0161801591000000000000
B0529003214142S11715184EA0162701601000000000000
B0529043214145S11715261EA0163701611000000000000
B0529083214194S11715281EA0164501615000000000000
B0529123214213S11715234EA0165901632000000000000
B0529163214175S11715195EA0166601639000000000000
B0529203214111S11715214EA0166401638000000000000
B0529243214083S11715290EA0167501653000000000000
B0529283214109S11715352EA0168301659000000000000
B0529323214158S11715355EA0168801665000000000000
B0529363214166S11715304EA0169801677000000000000
B0529403214118S11715279EA0170701682000000000000
B0529443214064S11715324EA0171001684000000000000
B0529483214058S11715402EA0171401689000000000000
B0529523214102S11715434EA0171501690000000000000
B0529563214136S11715396EA0172501701000000000000
B0530003214125S11715342EA0173201707000000000000
B0530043214075S11715318EA0172701698000000000000
B0530083214025S11715378EA0171901693000000000000
B0530123214007S11715465EA0172001698000000000000
B0530163213997S11715552EA0172501703000000000000
B0530203214006S11715636EA0172601699000000000000
B0530243214051S11715702EA0172001690000000000000
B0530283214109S11715764EA0170501671000000000000
B0530323214171S11715825EA0169101661000000000000
B0530363214235S11715884EA0168401653000000000000
B0530403214298S11715940EA0168401660000000000000
B0530443214358S11715989EA0169401668000000000000
B0530483214415S11716036EA0169701673000000000000
B0530523214471S11716079EA0170401677000000000000
B0530563214526S11716123EA0169801666000000000000
B0531003214584S11716172EA0167901643000000000000
B0531043214640S11716234EA0166001626000000000000
B0531083214691S11716304EA0164701614000000000000
B0531123214739S11716378EA0164601617000000000000
B0531163214783S11716447EA0165101625000000000000
B0531203214827S11716514EA0165101619000000000000
B0531243214874S11716583EA0164501612000000000000
B0531283214921S11716652EA0164201611000000000000
B0531323214970S11716721EA0163301595000000000000
B0531363215021S11716794EA0161301573000000000000
B0531403215073S11716867EA0159801561000000000000
B0531443215125S11716941EA0158601548000000000000
B0531483215177S11717014EA0158001544000000000000
B0531523215227S11717088EA0157501540000000000000
B0531563215272S11717164EA0157701545000000000000
B0532003215314S11717242EA0157601542000000000000
B0532043215357S11717319EA0157301536000000000000
B0532083215401S11717396EA0157001536000000000000
B0532123215445S11717474EA0156901534000000000000
B0532163215489S11717550EA0157701546000000000000
B0532203215533S11717623EA0159001559000000000000
B0532243215591S11717651EA0160301575000000000000
B0532283215618S11717609EA0161901588000000000000
B0532323215587S11717557EA0162001589000000000000
B0532363215519S11717536EA0162701599000000000000
B0532403215449S11717563EA0163901612000000000000
B0532443215394S11717623EA0165001619000000000000
B0532483215370S11717705EA0164901616000000000000
B0532523215393S11717788EA0164601620000000000000
B0532563215424S11717865EA0164901619000000000000
B0533003215461S11717942EA0164001604000000000000
B0533043215505S11718018EA0163301602000000000000
B0533083215552S11718091EA0163501605000000000000
B0533123215600S11718164EA0163201598000000000000
B0533163215650S11718238EA0162101584000000000000
B0533203215704S11718310EA0160801573000000000000
B0533243215760S11718382EA0159501554000000000000
B0533283215817S11718458EA0157501535000000000000
B0533323215875S11718533EA0156301527000000000000
B0533363215934S11718605EA0155701519000000000000
B0533403215992S11718674EA0154901512000000000000
B0533443216048S11718740EA0154201505000000000000
B0533483216104S11718809EA0153501498000000000000
B0533523216156S11718880EA0152701488000000000000
B0533563216204S11718957EA0151701477000000000000
B0534003216252S11719035EA0151101472000000000000
B0534043216302S11719109EA0150901471000000000000
B0534083216351S11719179EA0150601466000000000000
B0534123216399S11719251EA0149601452000000000000
B0534163216446S11719324EA0148401441000000000000
B0534203216494S11719396EA0147701436000000000000
B0534243216542S11719465EA0147401433000000000000
B0534283216593S11719526EA0146601425000000000000
B0534323216647S11719588EA0145801412000000000000
B0534363216703S11719647EA0144101394000000000000
B0534403216764S11719706EA0142501377000000000000
B0534443216820S11719772EA0141001363000000000000
B0534483216874S11719845EA0139501350000000000000
B0534523216927S11719915EA0138101332000000000000
B0534563216980S11719983EA0137101327000000000000
B0535003217031S11720048EA0136001314000000000000
B0535043217079S11720115EA0135001302000000000000
B0535083217126S11720182EA0134601296000000000000
B0535123217173S11720247EA0133501283000000000000
B0535163217222S11720308EA0132001266000000000000
B0535203217270S11720370EA0130901255000000000000
B0535243217318S11720434EA0129101234000000000000
B0535283217370S11720498EA0127101214000000000000
B0535323217425S11720555EA0125701202000000000000
B0535363217482S11720608EA0124001181000000000000
B0535403217542S11720656EA0123701187000000000000
B0535443217599S11720669EA0125001204000000000000
B0535483217641S11720633EA0126101212000000000000
B0535523217664S11720581EA0126201209000000000000
B0535563217674S11720520EA0124901189000000000000
B0536003217673S11720449EA0122901174000000000000
B0536043217665S11720381EA0121801159000000000000
B0536083217673S11720309EA0120101142000000000000
B0536123217715S11720256EA0119401139000000000000
B0536163217767S11720218EA0119501142000000000000
B0536203217810S11720173EA0119501141000000000000
B0536243217840S11720114EA0119001136000000000000
B0536283217862S11720050EA0118301125000000000000
B0536323217901S11719994EA0116701107000000000000
B0536363217962S11719965EA0114801089000000000000
B0536403218032S11719965EA0113601079000000000000
B0536443218100S11719993EA0113001070000000000000
B0536483218161S11720041EA0112001059000000000000
B0536523218218S11720102EA0110901047000000000000
B0536563218271S11720170EA0109601033000000000000
B0537003218318S11720245EA0108601022000000000000
B0537043218362S11720319EA0108001019000000000000
B0537083218405S11720388EA0107501011000000000000
B0537123218449S11720455EA0106500998000000000000
B0537163218496S11720517EA0105400991000000000000
B0537203218545S11720574EA0104700985000000000000
B0537243218594S11720629EA0103900974000000000000
B0537283218643S11720686EA0102700962000000000000
B0537323218691S11720743EA0101700951000000000000
B0537363218735S11720808EA0100500939000000000000
B0537403218774S11720878EA0099300925000000000000
B0537443218815S11720949EA0098100908000000000000
B0537483218860S11721019EA0096700896000000000000
B0537523218904S11721084EA0095400884000000000000
B0537563218950S11721149EA0094100871000000000000
B0538003218999S11721211EA0093100861000000000000
B0538043219054S11721263EA0092000850000000000000
B0538083219115S11721301EA0090800838000000000000
B0538123219179S11721328EA0090400834000000000000
B0538163219237S11721337EA0091000843000000000000
B0538203219281S11721306EA0092000857000000000000
B0538243219310S11721255EA0092500858000000000000
B0538283219335S11721198EA0092100852000000000000
B0538323219355S11721135EA0091800854000000000000
B0538363219376S11721070EA0091300846000000000000
B0538403219377S11720997EA0092400866000000000000
B0538443219322S11720964EA0093900879000000000000
B0538483219266S11721010EA0094800886000000000000
B0538523219259S11721079EA0094700883000000000000
B0538563219294S11721123EA0093700872000000000000
B0539003219348S11721123EA0092900864000000000000
B0539043219385S11721079EA0093200876000000000000
B0539083219351S11721027EA0094600890000000000000
B0539123219296S11721062EA0095800899000000000000
B0539163219305S11721128EA0096700910000000000000
B0539203219346S11721114EA0097700920000000000000
B0539243219335S11721054EA0098300927000000000000
B0539283219275S11721038EA0099400934000000000000
B0539323219233S11721097EA0100200944000000000000
B0539363219253S11721153EA0101300959000000000000
B0539403219292S11721140EA0102100960000000000000
B0539443219293S11721079EA0102400967000000000000
B0539483219238S11721053EA0103200975000000000000
B0539523219190S11721105EA0103800982000000000000
B0539563219202S11721168EA0105400998000000000000
B0540003219247S11721172EA0105801001000000000000
B0540043219273S11721120EA0106101007000000000000
B0540083219232S11721071EA0107301022000000000000
B0540123219172S11721098EA0108601035000000000000
B0540163219160S11721168EA0110101052000000000000
B0540203219199S11721198EA0111301061000000000000
B0540243219237S11721166EA0111701063000000000000
B0540283219228S11721106EA0112701077000000000000
B0540323219172S11721076EA0113201082000000000000
B0540363219108S11721106EA0113701087000000000000
B0540403219102S11721177EA0114601104000000000000
B0540443219142S11721192EA0116301119000000000000
B0540483219166S11721145EA0117101122000000000000
B0540523219132S11721089EA0117601131000000000000
B0540563219065S11721090EA0118601139000000000000
B0541003219030S11721155EA0119901154000000000000
B0541043219051S11721213EA0121301170000000000000
B0541083219094S11721205EA0122301178000000000000
B0541123219103S11721148EA0122901184000000000000
B0541163219056S11721102EA0123801193000000000000
B0541203218993S11721122EA0124801204000000000000
B0541243218972S11721190EA0125501217000000000000
B0541283219008S11721228EA0127001229000000000000
B0541323219046S11721194EA0128301247000000000000
B0541363219033S11721135EA0129501255000000000000
B0541403218969S11721115EA0130201262000000000000
B0541443218924S11721171EA0131401277000000000000
B0541483218938S11721231EA0132201283000000000000
B0541523218987S11721233EA0133501300000000000000
B0541563218999S11721181EA0134801311000000000000
B0542003218952S11721136EA0135601315000000000000
B0542043218885S11721151EA0136401327000000000000
B0542083218841S11721207EA0137601341000000000000
B0542123218847S11721274EA0138301350000000000000
B0542163218890S11721285EA0139601364000000000000
B0542203218902S11721233EA0141301383000000000000
B0542243218855S11721190EA0142701396000000000000
B0542283218792S11721209EA0144301412000000000000
B0542323218764S11721275EA0144901415000000000000
B0542363218789S11721332EA0145301419000000000000
B0542403218834S11721332EA0146501435000000000000
B0542443218843S11721278EA0148201453000000000000
B0542483218800S11721228EA0149001459000000000000
B0542523218735S11721242EA0149901474000000000000
B0542563218699S11721305EA0151201482000000000000
B0543003218708S11721374EA0151001478000000000000
B0543043218753S11721405EA0151401484000000000000
B0543083218794S11721374EA0152201496000000000000
B0543123218782S11721313EA0153501511000000000000
B0543163218727S11721280EA0154801524000000000000
B0543203218669S11721317EA0155901535000000000000
B0543243218655S11721391EA0156201535000000000000
B0543283218692S11721444EA0156301535000000000000
B0543323218739S11721418EA0156101535000000000000
B0543363218746S11721345EA0156601545000000000000
B0543403218695S11721293EA0158701570000000000000
B0543443218627S11721310EA0160101580000000000000
B0543483218592S11721382EA0161001586000000000000
B0543523218608S11721457EA0161201590000000000000
B0543563218657S11721489EA0161701596000000000000
B0544003218707S11721466EA0162301601000000000000
B0544043218731S11721405EA0163001610000000000000
B0544083218708S11721340EA0164501627000000000000
B0544123218642S11721326EA0166801654000000000000
B0544163218579S11721362EA0168201662000000000000
B0544203218552S11721436EA0168901673000000000000
B0544243218571S11721504EA0169601679000000000000
B0544283218622S11721532EA0170101685000000000000
B0544323218666S11721497EA0170601690000000000000
B0544363218665S11721430EA0171701701000000000000
B0544403218614S11721383EA0173101719000000000000
B0544443218548S11721392EA0174601735000000000000
B0544483218499S11721448EA0175701741000000000000
B0544523218490S11721526EA0176501751000000000000
B0544563218526S11721578EA0177501760000000000000
B0545003218573S11721571EA0178101767000000000000
B0545043218587S11721517EA0178601771000000000000
B0545083218548S11721470EA0179201778000000000000
B0545123218482S11721475EA0180001787000000000000
B0545163218440S11721536EA0180801796000000000000
B0545203218454S11721606EA0181801805000000000000
B0545243218500S11721629EA0182401808000000000000
B0545283218531S11721588EA0182101805000000000000
B0545323218516S11721525EA0182201807000000000000
B0545363218465S11721482EA0182901819000000000000
B0545403218396S11721480EA0183701825000000000000
B0545443218345S11721543EA0184301833000000000000
B0545483218332S11721626EA0185201840000000000000
B0545523218361S11721691EA0185601844000000000000
B0545563218412S11721703EA0185801844000000000000
B0546003218443S11721658EA0185601842000000000000
B0546043218471S11721604EA0184501825000000000000
B0546083218534S11721590EA0183201812000000000000
B0546123218607S11721621EA0183701826000000000000
B0546163218673S11721656EA0185501842000000000000
B0546203218737S11721681EA0186201849000000000000
B0546243218803S11721705EA0185301830000000000000
B0546283218870S11721757EA0183501815000000000000
B0546323218933S11721821EA0182501805000000000000
B0546363218994S11721890EA0181801799000000000000
B0546403219052S11721961EA0180901784000000000000
B0546443219112S11722035EA0179001767000000000000
B0546483219176S11722104EA0177501753000000000000
B0546523219241S11722175EA0176601743000000000000
B0546563219307S11722241EA0176001734000000000000
B0547003219379S11722302EA0175101728000000000000
B0547043219445S11722367EA0174901729000000000000
B0547083219505S11722438EA0174601724000000000000
B0547123219562S11722513EA0174201722000000000000
B0547163219617S11722589EA0174001717000000000000
B0547203219670S11722665EA0173501714000000000000
B0547243219719S11722740EA0173501711000000000000
B0547283219766S11722814EA0173301711000000000000
B0547323219809S11722888EA0173401710000000000000
B0547363219852S11722962EA0172901702000000000000
B0547403219892S11723038EA0172101693000000000000
B0547443219935S11723111EA0170801682000000000000
B0547483219978S11723185EA0169901672000000000000
B0547523220021S11723259EA0168701657000000000000
B0547563220065S11723334EA0167401644000000000000
B0548003220115S11723410EA0166801638000000000000
B0548043220165S11723484EA0165801623000000000000
B0548083220219S11723562EA0163701604000000000000
B0548123220274S11723641EA0162601593000000000000
B0548163220330S11723720EA0161501580000000000000
B0548203220385S11723800EA0160001562000000000000
B0548243220440S11723881EA0158201547000000000000
B0548283220493S11723963EA0157401539000000000000
B0548323220542S11724048EA0157001534000000000000
B0548363220592S11724134EA0156301523000000000000
B0548403220638S11724217EA0155601520000000000000
B0548443220684S11724300EA0155001512000000000000
B0548483220729S11724382EA0154101503000000000000
B0548523220775S11724465EA0153001492000000000000
B0548563220822S11724546EA0152201483000000000000
B0549003220869S11724628EA0151401471000000000000
B0549043220915S11724712EA0150001457000000000000
B0549083220965S11724795EA0148401437000000000000
B0549123221019S11724880EA0146801426000000000000
B0549163221075S11724957EA0147401439000000000000
B0549203221118S11725033EA0149401461000000000000
B0549243221144S11725110EA0151901489000000000000
B0549283221182S11725161EA0154101511000000000000
B0549323221221S11725136EA0155401521000000000000
B0549363221197S11725077EA0156601536000000000000
B0549403221130S11725077EA0158401555000000000000
B0549443221092S11725139EA0159701571000000000000
B0549483221110S11725204EA0160901582000000000000
B0549523221160S11725217EA0162201596000000000000
B0549563221191S11725174EA0162601596000000000000
B0550003221175S11725110EA0163301607000000000000
B0550043221112S11725093EA0164401620000000000000
B0550083221062S11725145EA0166001637000000000000
B0550123221070S11725214EA0167101645000000000000
B0550163221117S11725236EA0167501647000000000000
B0550203221147S11725189EA0167501649000000000000
B0550243221140S11725123EA0168301655000000000000
B0550283221091S11725072EA0168601659000000000000
B0550323221019S11725088EA0168901663000000000000
B0550363220971S11725155EA0169801678000000000000
B0550403220935S11725232EA0171001688000000000000
B0550443220908S11725315EA0172201702000000000000
B0550483220941S11725367EA0173301710000000000000
B0550523220980S11725332EA0173801714000000000000
B0550563220970S11725265EA0174901730000000000000
B0551003220923S11725217EA0176301744000000000000
B0551043220858S11725222EA0177701758000000000000
B0551083220809S11725274EA0178801767000000000000
B0551123220804S11725353EA0179601778000000000000
B0551163220845S11725393EA0181301797000000000000
B0551203220884S11725361EA0182201806000000000000
B0551243220870S11725300EA0183001815000000000000
B0551283220807S11725276EA0184201828000000000000
B0551323220744S11725311EA0185601841000000000000
B0551363220718S11725387EA0186801854000000000000
B0551403220745S11725449EA0188501873000000000000
B0551443220798S11725457EA0189501880000000000000
B0551483220828S11725404EA0190001886000000000000
B0551523220800S11725341EA0190601894000000000000
B0551563220733S11725332EA0191801912000000000000
B0552003220683S11725384EA0193501925000000000000
B0552043220675S11725461EA0194601934000000000000
B0552083220715S11725509EA0195701946000000000000
B0552123220755S11725478EA0196501955000000000000
B0552163220732S11725418EA0197001961000000000000
B0552203220668S11725413EA0197801967000000000000
B0552243220625S11725478EA0198801979000000000000
B0552283220644S11725549EA0200301994000000000000
B0552323220698S11725566EA0201302002000000000000
B0552363220736S11725526EA0202202016000000000000
B0552403220727S11725465EA0202902018000000000000
B0552443220674S11725434EA0203502029000000000000
B0552483220615S11725461EA0204602038000000000000
B0552523220583S11725531EA0204902040000000000000
B0552563220589S11725612EA0205702052000000000000
B0553003220640S11725649EA0206702061000000000000
B0553043220690S11725626EA0207802072000000000000
B0553083220700S11725568EA0208402078000000000000
B0553123220662S11725518EA0208802079000000000000
B0553163220598S11725522EA0209502089000000000000
B0553203220551S11725582EA0210202097000000000000
B0553243220550S11725662EA0211302109000000000000
B0553283220597S11725712EA0211902114000000000000
B0553323220649S11725690EA0212602120000000000000
B0553363220650S11725626EA0213302128000000000000
B0553403220606S11725584EA0214002135000000000000
B0553443220542S11725594EA0214802143000000000000
B0553483220497S11725651EA0215802155000000000000
B0553523220484S11725730EA0216302162000000000000
B0553563220511S11725800EA0216802167000000000000
B0554003220570S11725821EA0217202168000000000000
B0554043220620S11725786EA0217402171000000000000
B0554083220676S11725747EA0216202149000000000000
B0554123220759S11725763EA0214502135000000000000
B0554163220837S11725817EA0214002138000000000000
B0554203220908S11725881EA0214202138000000000000
B0554243220973S11725950EA0214102136000000000000
B0554283221035S11726024EA0213802131000000000000
B0554323221093S11726104EA0212902117000000000000
B0554363221152S11726193EA0211702106000000000000
B0554403221209S11726284EA0210602094000000000000
B0554443221265S11726374EA0209802088000000000000
B0554483221320S11726463EA0209102079000000000000
B0554523221377S11726552EA0208702079000000000000
B0554563221431S11726636EA0208602076000000000000
B0555003221487S11726719EA0207802065000000000000
B0555043221545S11726799EA0207202062000000000000
B0555083221604S11726871EA0206902054000000000000
B0555123221662S11726947EA0205802048000000000000
B0555163221714S11727025EA0205802050000000000000
B0555203221756S11727107EA0206202057000000000000
B0555243221793S11727189EA0206102049000000000000
B0555283221829S11727274EA0205002038000000000000
B0555323221868S11727362EA0204402033000000000000
B0555363221906S11727450EA0203802025000000000000
B0555403221945S11727540EA0203102017000000000000
B0555443221984S11727629EA0202502010000000000000
B0555483222024S11727718EA0202002006000000000000
B0555523222065S11727802EA0202302015000000000000
B0555563222107S11727882EA0203602028000000000000
B0556003222149S11727960EA0205302049000000000000
B0556043222193S11728026EA0207602071000000000000
B0556083222248S11728038EA0209702094000000000000
B0556123222273S11727989EA0210802103000000000000
B0556163222248S11727935EA0211402112000000000000
B0556203222188S11727917EA0211902115000000000000
B0556243222120S11727940EA0212702127000000000000
B0556283222065S11727997EA0213702138000000000000
B0556323222024S11728071EA0214902149000000000000
B0556363222009S11728155EA0215702156000000000000
B0556403222036S11728223EA0216902170000000000000
B0556443222085S11728239EA0217502174000000000000
B0556483222120S11728196EA0218002175000000000000
B0556523222128S11728135EA0218502189000000000000
B0556563222089S11728090EA0220002203000000000000
B0557003222026S11728105EA0221602221000000000000
B0557043221997S11728175EA0222802228000000000000
B0557083222019S11728244EA0222902231000000000000
B0557123222072S11728261EA0223502237000000000000
B0557163222102S11728221EA0224402245000000000000
B0557203222085S11728168EA0225402255000000000000
B0557243222029S11728145EA0226402267000000000000
B0557283221968S11728174EA0226902272000000000000
B0557323221936S11728249EA0227102276000000000000
B0557363221946S11728330EA0227302273000000000000
B0557403221985S11728400EA0226902272000000000000
B0557443222033S11728469EA0226902269000000000000
B0557483222084S11728533EA0226602268000000000000
B0557523222137S11728598EA0226002257000000000000
B0557563222188S11728676EA0224902246000000000000
B0558003222237S11728763EA0223602232000000000000
B0558043222284S11728855EA0222702217000000000000
B0558083222330S11728950EA0221302207000000000000
B0558123222375S11729045EA0220602196000000000000
B0558163222425S11729141EA0219002179000000000000
B0558203222479S11729235EA0217702168000000000000
B0558243222539S11729327EA0216802161000000000000
B0558283222598S11729416EA0216302159000000000000
B0558323222659S11729503EA0215602146000000000000
B0558363222722S11729591EA0214702136000000000000
B0558403222787S11729676EA0214602143000000000000
B0558443222845S11729759EA0215302148000000000000
B0558483222899S11729842EA0215202145000000000000
B0558523222955S11729924EA0214502136000000000000
B0558563223011S11730008EA0214002133000000000000
B0559003223064S11730094EA0213802128000000000000
B0559043223116S11730179EA0213202125000000000000
B0559083223168S11730263EA0213002122000000000000
B0559123223219S11730344EA0213002123000000000000
B0559163223266S11730426EA0212502114000000000000
B0559203223316S11730506EA0211602101000000000000
B0559243223370S11730587EA0210102087000000000000
B0559283223422S11730666EA0210002092000000000000
B0559323223470S11730736EA0210802103000000000000
B0559363223514S11730804EA0211102099000000000000
B0559403223560S11730878EA0210002088000000000000
B0559443223609S11730953EA0209102078000000000000
B0559483223660S11731029EA0208702077000000000000
B0559523223709S11731104EA0208202067000000000000
B0559563223755S11731186EA0207402059000000000000
B0600003223801S11731267EA0206502049000000000000
B0600043223847S11731345EA0205902046000000000000
B0600083223890S11731418EA0206602059000000000000
B0600123223930S11731486EA0207602067000000000000
B0600163223970S11731557EA0207302057000000000000
B0600203224015S11731632EA0206202046000000000000
B0600243224059S11731709EA0205602045000000000000
B0600283224104S11731784EA0206302055000000000000
B0600323224150S11731862EA0206902057000000000000
B0600363224197S11731941EA0207802072000000000000
B0600403224242S11732016EA0209202084000000000000
B0600443224288S11732091EA0208602073000000000000
B0600483224336S11732169EA0207802071000000000000
B0600523224386S11732250EA0206802057000000000000
B0600563224437S11732333EA0206102045000000000000
B0601003224488S11732417EA0205202039000000000000
B0601043224538S11732502EA0204502025000000000000
B0601083224588S11732591EA0203002014000000000000
B0601123224635S11732676EA0202802016000000000000
B0601163224676S11732753EA0203402026000000000000
B0601203224715S11732822EA0203702026000000000000
B0601243224759S11732893EA0202702015000000000000
B0601283224806S11732965EA0202002008000000000000
B0601323224856S11733040EA0200801992000000000000
B0601363224908S11733117EA0199301981000000000000
B0601403224960S11733195EA0198801979000000000000
B0601443225012S11733271EA0198601976000000000000
B0601483225058S11733347EA0198801980000000000000
B0601523225101S11733420EA0199101982000000000000
B0601563225144S11733492EA0198701976000000000000
B0602003225190S11733568EA0197701960000000000000
B0602043225240S11733647EA0195901941000000000000
B0602083225292S11733729EA0194701930000000000000
B0602123225342S11733812EA0193801925000000000000
B0602163225390S11733897EA0192501908000000000000
B0602203225438S11733984EA0191001892000000000000
B0602243225489S11734072EA0189801879000000000000
B0602283225529S11734159EA0189801889000000000000
B0602323225562S11734242EA0190401894000000000000
B0602363225589S11734322EA0191001897000000000000
B0602403225619S11734400EA0190301880000000000000
B0602443225666S11734474EA0187801853000000000000
B0602483225719S11734547EA0186301843000000000000
B0602523225768S11734619EA0185601837000000000000
B0602563225816S11734694EA0184801828000000000000
B0603003225861S11734772EA0183901818000000000000
B0603043225901S11734853EA0183101811000000000000
B0603083225940S11734937EA0182601808000000000000
B0603123225978S11735020EA0182001799000000000000
B0603163226018S11735107EA0181001788000000000000
B0603203226062S11735193EA0180901790000000000000
B0603243226108S11735277EA0180101779000000000000
B0603283226158S11735362EA0178801763000000000000
B0603323226213S11735448EA0177501752000000000000
B0603363226265S11735532EA0177101749000000000000
B0603403226318S11735615EA0176301739000000000000
B0603443226375S11735698EA0175101726000000000000
B0603483226438S11735779EA0173501709000000000000
B0603523226499S11735867EA0172301693000000000000
B0603563226556S11735960EA0171301686000000000000
B0604003226609S11736048EA0170401677000000000000
B0604043226661S11736134EA0169501667000000000000
B0604083226716S11736216EA0168301654000000000000
B0604123226772S11736294EA0167301646000000000000
B0604163226832S11736372EA0166201630000000000000
B0604203226897S11736445EA0164901617000000000000
B0604243226966S11736517EA0163801609000000000000
B0604283227036S11736580EA0163701611000000000000
B0604323227107S11736634EA0163701610000000000000
B0604363227174S11736692EA0163301608000000000000
B0604403227232S11736759EA0163301608000000000000
B0604443227283S11736833EA0162501594000000000000
B0604483227335S11736907EA0161001579000000000000
B0604523227389S11736979EA0159801564000000000000
B0604563227447S11737052EA0157801545000000000000
B0605003227501S11737128EA0156401532000000000000
B0605043227547S11737213EA0155301518000000000000
B0605083227587S11737299EA0154901521000000000000
B0605123227631S11737377EA0155001519000000000000
B0605163227681S11737448EA0154601513000000000000
B0605203227730S11737520EA0154201512000000000000
B0605243227779S11737590EA0154101509000000000000
B0605283227830S11737660EA0153301500000000000000
B0605323227885S11737733EA0152101485000000000000
B0605363227941S11737808EA0150601468000000000000
B0605403227995S11737890EA0149201451000000000000
B0605443228048S11737976EA0147901442000000000000
B0605483228089S11738070EA0148201451000000000000
B0605523228104S11738167EA0149101460000000000000
B0605563228107S11738257EA0150301477000000000000
B0606003228103S11738336EA0152001490000000000000
B0606043228091S11738415EA0152901498000000000000
B0606083228085S11738493EA0154001510000000000000
B0606123228111S11738553EA0154701515000000000000
B0606163228155S11738551EA0154501508000000000000
B0606203228177S11738496EA0153701497000000000000
B0606243228168S11738419EA0153601506000000000000
B0606283228143S11738348EA0155701530000000000000
B0606323228076S11738339EA0157101540000000000000
B0606363228041S11738406EA0157501544000000000000
B0606403228064S11738470EA0157401544000000000000
B0606443228115S11738483EA0157701548000000000000
B0606483228164S11738457EA0158701557000000000000
B0606523228194S11738401EA0159901577000000000000
B0606563228150S11738354EA0162201598000000000000
B0607003228085S11738384EA0163201604000000000000
B0607043228065S11738454EA0164201620000000000000
B0607083228100S11738496EA0165501628000000000000
B0607123228147S11738475EA0166201637000000000000
B0607163228162S11738413EA0167601655000000000000
B0607203228126S11738352EA0168701661000000000000
B0607243228055S11738334EA0168701660000000000000
B0607283227987S11738367EA0168401656000000000000
B0607323227955S11738441EA0168301657000000000000
B0607363227946S11738525EA0169101671000000000000
B0607403227981S11738569EA0170701684000000000000
B0607443228021S11738543EA0171301687000000000000
B0607483228015S11738477EA0172101698000000000000
B0607523227955S11738444EA0173501708000000000000
B0607563227891S11738483EA0173601708000000000000
B0608003227883S11738557EA0174501723000000000000
B0608043227924S11738592EA0175701732000000000000
B0608083227967S11738560EA0175901733000000000000
B0608123227965S11738488EA0177001746000000000000
B0608163227909S11738443EA0177701751000000000000
B0608203227838S11738464EA0177601747000000000000
B0608243227799S11738538EA0177401749000000000000
B0608283227791S11738623EA0177601755000000000000
B0608323227787S11738711EA0178601763000000000000
B0608363227792S11738794EA0178801762000000000000
B0608403227814S11738872EA0178801759000000000000
B0608443227852S11738942EA0177901751000000000000
B0608483227894S11739017EA0177001737000000000000
B0608523227941S11739093EA0176601739000000000000
B0608563227986S11739166EA0176801740000000000000
B0609003228037S11739236EA0176001725000000000000
B0609043228090S11739306EA0174201703000000000000
B0609083228146S11739377EA0172901701000000000000
B0609123228195S11739452EA0173201707000000000000
B0609163228238S11739527EA0174101721000000000000
B0609203228271S11739604EA0175201733000000000000
B0609243228301S11739683EA0176001737000000000000
B0609283228333S11739758EA0175601729000000000000
B0609323228376S11739826EA0174401717000000000000
B0609363228428S11739875EA0174601723000000000000
B0609403228484S11739904EA0174501719000000000000
B0609443228540S11739940EA0173601711000000000000
B0609483228593S11739988EA0172901703000000000000
B0609523228643S11740051EA0171701689000000000000
B0609563228685S11740130EA0170501676000000000000
B0610003228727S11740215EA0168901658000000000000
B0610043228769S11740299EA0168101652000000000000
B0610083228808S11740386EA0166301631000000000000
B0610123228847S11740481EA0164401611000000000000
B0610163228883S11740575EA0163901607000000000000
B0610203228922S11740666EA0163001596000000000000
B0610243228960S11740749EA0163101603000000000000
B0610283228999S11740830EA0163601607000000000000
B0610323229038S11740908EA0164801627000000000000
B0610363229070S11740978EA0167401653000000000000
B0610403229116S11741010EA0169401673000000000000
B0610443229153S11740973EA0170901687000000000000
B0610483229127S11740902EA0172801710000000000000
B0610523229055S11740888EA0174601723000000000000
B0610563229001S11740947EA0175801735000000000000
B0611003229009S11741012EA0176601746000000000000
B0611043229051S11741025EA0177701754000000000000
B0611083229077S11740974EA0178401766000000000000
B0611123229055S11740906EA0180001782000000000000
B0611163228983S11740913EA0181201791000000000000
B0611203228969S11740986EA0182101805000000000000
B0611243229009S11741002EA0183201813000000000000
B0611283229029S11740943EA0184101827000000000000
B0611323228988S11740880EA0186001844000000000000
B0611363228918S11740885EA0187201855000000000000
B0611403228875S11740949EA0187801864000000000000
B0611443228887S11741012EA0189201877000000000000
B0611483228927S11741017EA0190201885000000000000
B0611523228940S11740958EA0190901891000000000000
B0611563228888S11740909EA0191901907000000000000
B0612003228823S11740936EA0193201916000000000000
B0612043228801S11741005EA0193801923000000000000
B0612083228828S11741053EA0194501928000000000000
B0612123228866S11741031EA0195601944000000000000
B0612163228869S11740969EA0197001956000000000000
B0612203228822S11740914EA0197801964000000000000
B0612243228756S11740922EA0198601971000000000000
B0612283228721S11740987EA0198301970000000000000
B0612323228734S11741053EA0198801974000000000000
B0612363228774S11741096EA0199001977000000000000
B0612403228819S11741142EA0199101979000000000000
B0612443228860S11741197EA0200101989000000000000
B0612483228896S11741260EA0200401991000000000000
B0612523228930S11741330EA0200401984000000000000
B0612563228961S11741411EA0199601974000000000000
B0613003228992S11741493EA0199301976000000000000
B0613043229025S11741571EA0199201975000000000000
B0613083229056S11741649EA0198901973000000000000
B0613123229088S11741728EA0198901970000000000000
B0613163229121S11741810EA0198901969000000000000
B0613203229153S11741893EA0198501969000000000000
B0613243229185S11741975EA0198901974000000000000
B0613283229213S11742061EA0198501961000000000000
B0613323229247S11742150EA0196701942000000000000
B0613363229281S11742241EA0195201931000000000000
B0613403229317S11742335EA0193901915000000000000
B0613443229354S11742432EA0193001912000000000000
B0613483229387S11742529EA0192801908000000000000
B0613523229424S11742617EA0192301909000000000000
B0613563229460S11742702EA0192001903000000000000
B0614003229498S11742785EA0191401898000000000000
B0614043229537S11742868EA0190701886000000000000
B0614083229579S11742956EA0189201867000000000000
B0614123229623S11743047EA0187701856000000000000
B0614163229668S11743138EA0187001849000000000000
B0614203229712S11743231EA0186101839000000000000
B0614243229755S11743320EA0185301833000000000000
B0614283229800S11743407EA0184601826000000000000
B0614323229845S11743493EA0184001821000000000000
B0614363229889S11743576EA0183601820000000000000
B0614403229932S11743662EA0183201809000000000000
B0614443229975S11743751EA0182201801000000000000
B0614483230015S11743843EA0181401794000000000000
B0614523230053S11743935EA0180801789000000000000
B0614563230086S11744026EA0180601785000000000000
B0615003230113S11744119EA0180101781000000000000
B0615043230139S11744210EA0178901769000000000000
B0615083230169S11744299EA0177801756000000000000
B0615123230200S11744388EA0177001748000000000000
B0615163230231S11744473EA0176501742000000000000
B0615203230262S11744561EA0175701735000000000000
B0615243230292S11744653EA0174501718000000000000
B0615283230322S11744748EA0173401713000000000000
B0615323230349S11744840EA0173201710000000000000
B0615363230377S11744931EA0172501702000000000000
B0615403230403S11745023EA0171601692000000000000
B0615443230429S11745116EA0170801685000000000000
B0615483230453S11745207EA0170101678000000000000
B0615523230477S11745296EA0170001672000000000000
B0615563230502S11745386EA0168801658000000000000
B0616003230530S11745480EA0167801651000000000000
B0616043230563S11745568EA0168401665000000000000
B0616083230598S11745649EA0169801677000000000000
B0616123230634S11745729EA0170201681000000000000
B0616163230673S11745814EA0170201677000000000000
B0616203230715S11745901EA0170501691000000000000
B0616243230752S11745983EA0172501711000000000000
B0616283230786S11746065EA0172501700000000000000
B0616323230823S11746154EA0170501671000000000000
B0616363230864S11746251EA0168201651000000000000
B0616403230906S11746348EA0166701642000000000000
B0616443230942S11746444EA0166701644000000000000
B0616483230975S11746538EA0166001631000000000000
B0616523231006S11746635EA0164401615000000000000
B0616563231038S11746732EA0163301604000000000000
B0617003231071S11746830EA0162001589000000000000
B0617043231103S11746933EA0160501569000000000000
B0617083231136S11747038EA0158601551000000000000
B0617123231171S11747145EA0156701530000000000000
B0617163231209S11747249EA0155101517000000000000
B0617203231248S11747349EA0154001506000000000000
B0617243231284S11747447EA0153301506000000000000
B0617283231323S11747538EA0154101515000000000000
B0617323231374S11747601EA0155301535000000000000
B0617363231428S11747644EA0157401559000000000000
B0617403231484S11747673EA0158901567000000000000
B0617443231540S11747686EA0158401553000000000000
B0617483231599S11747727EA0156401532000000000000
B0617523231655S11747788EA0155101523000000000000
B0617563231707S11747853EA0155301526000000000000
B0618003231760S11747925EA0154401509000000000000
B0618043231812S11748007EA0154001513000000000000
B0618083231867S11748077EA0156001540000000000000
B0618123231925S11748091EA0159101574000000000000
B0618163231961S11748052EA0161101592000000000000
B0618203231943S11747998EA0162701605000000000000
B0618243231885S11747993EA0163601612000000000000
B0618283231844S11748051EA0164701623000000000000
B0618323231857S11748119EA0165901633000000000000
B0618363231907S11748136EA0166901643000000000000
B0618403231932S11748090EA0167801657000000000000
B0618443231899S11748043EA0168601664000000000000
B0618483231841S11748037EA0169701678000000000000
B0618523231791S11748077EA0170801686000000000000
B0618563231782S11748149EA0171601694000000000000
B0619003231822S11748188EA0172801705000000000000
B0619043231863S11748156EA0173301709000000000000
B0619083231846S11748095EA0174101719000000000000
B0619123231790S11748085EA0175601739000000000000
B0619163231742S11748130EA0176801747000000000000
B0619203231740S11748203EA0177701757000000000000
B0619243231783S11748241EA0178801765000000000000
B0619283231828S11748216EA0179001767000000000000
B0619323231829S11748154EA0179501774000000000000
B0619363231782S11748113EA0180401785000000000000
B0619403231717S11748119EA0181001793000000000000
B0619443231672S11748175EA0182401808000000000000
B0619483231666S11748253EA0182901807000000000000
B0619523231682S11748333EA0182201794000000000000
B0619563231713S11748420EA0179901766000000000000
B0620003231751S11748515EA0178501759000000000000
B0620043231790S11748607EA0178001751000000000000
B0620083231829S11748700EA0177401746000000000000
B0620123231868S11748792EA0177501751000000000000
B0620163231904S11748880EA0178401762000000000000
B0620203231937S11748964EA0179101768000000000000
B0620243231971S11749044EA0178301755000000000000
B0620283232004S11749129EA0177701753000000000000
B0620323232036S11749212EA0177401748000000000000
B0620363232064S11749298EA0177101748000000000000
B0620403232094S11749377EA0177801758000000000000
B0620443232121S11749451EA0178101767000000000000
B0620483232150S11749528EA0179201776000000000000
B0620523232179S11749602EA0179901780000000000000
B0620563232210S11749679EA0179701778000000000000
B0621003232241S11749757EA0179601774000000000000
B0621043232273S11749837EA0178301757000000000000
B0621083232307S11749922EA0176901747000000000000
B0621123232342S11750004EA0177401758000000000000
B0621163232379S11750084EA0178501768000000000000
B0621203232419S11750154EA0179501778000000000000
B0621243232474S11750186EA0181001795000000000000
B0621283232518S11750165EA0182001803000000000000
B0621323232531S11750112EA0182101799000000000000
B0621363232489S11750060EA0181001785000000000000
B0621403232415S11750061EA0180801787000000000000
B0621443232350S11750114EA0181001789000000000000
B0621483232306S11750192EA0181501796000000000000
B0621523232289S11750275EA0181901798000000000000
B0621563232294S11750357EA0181501793000000000000
B0622003232309S11750439EA0181001784000000000000
B0622043232329S11750525EA0179601767000000000000
B0622083232354S11750617EA0177801746000000000000
B0622123232383S11750715EA0175601727000000000000
B0622163232414S11750814EA0174501715000000000000
B0622203232446S11750914EA0173101699000000000000
B0622243232478S11751012EA0172001691000000000000
B0622283232513S11751111EA0170701676000000000000
B0622323232550S11751209EA0169701666000000000000
B0622363232587S11751301EA0169301662000000000000
B0622403232628S11751388EA0169101664000000000000
B0622443232673S11751474EA0168701657000000000000
B0622483232718S11751560EA0167501643000000000000
B0622523232762S11751648EA0166401634000000000000
B0622563232804S11751739EA0165901633000000000000
B0623003232845S11751830EA0165201620000000000000
B0623043232884S11751919EA0164601618000000000000
B0623083232921S11752008EA0164201611000000000000
B0623123232957S11752098EA0163601608000000000000
B0623163232995S11752184EA0162801591000000000000
B0623203233037S11752275EA0160901575000000000000
B0623243233077S11752367EA0160201572000000000000
B0623283233117S11752457EA0159701565000000000000
B0623323233160S11752545EA0158301548000000000000
B0623363233204S11752636EA0156901535000000000000
B0623403233248S11752727EA0155901527000000000000
B0623443233290S11752819EA0155201521000000000000
B0623483233333S11752907EA0155301524000000000000
B0623523233372S11752991EA0155001517000000000000
B0623563233410S11753078EA0153901502000000000000
B0624003233449S11753167EA0152501488000000000000
B0624043233488S11753255EA0151301479000000000000
B0624083233525S11753341EA0150401472000000000000
B0624123233566S11753423EA0149701464000000000000
B0624163233606S11753501EA0148501450000000000000
B0624203233646S11753577EA0147401442000000000000
B0624243233684S11753654EA0147201440000000000000
B0624283233720S11753729EA0146801433000000000000
B0624323233758S11753806EA0145901424000000000000
B0624363233798S11753884EA0144701409000000000000
B0624403233840S11753962EA0143301398000000000000
B0624443233882S11754039EA0142701392000000000000
B0624483233922S11754117EA0141801382000000000000
B0624523233962S11754194EA0140501368000000000000
B0624563234004S11754274EA0139401359000000000000
B0625003234044S11754355EA0138401345000000000000
B0625043234083S11754434EA0137001332000000000000
B0625083234121S11754513EA0135901319000000000000
B0625123234162S11754594EA0134601306000000000000
B0625163234201S11754680EA0133601295000000000000
B0625203234240S11754768EA0133201297000000000000
B0625243234282S11754846EA0134301308000000000000
B0625283234337S11754885EA0135701325000000000000
B0625323234390S11754889EA0136901339000000000000
B0625363234442S11754879EA0138201352000000000000
B0625403234463S11754831EA0139501365000000000000
B0625443234424S11754785EA0140201367000000000000
B0625483234359S11754805EA0141001378000000000000
B0625523234327S11754879EA0142201390000000000000
B0625563234357S11754941EA0142901396000000000000
B0626003234405S11754938EA0143801410000000000000
B0626043234415S11754885EA0144601410000000000000
B0626083234369S11754845EA0144601412000000000000
B0626123234309S11754868EA0145701428000000000000
B0626163234282S11754937EA0146501428000000000000
B0626203234301S11755014EA0146201428000000000000
B0626243234348S11755067EA0147401441000000000000
B0626283234403S11755080EA0147501436000000000000
B0626323234460S11755067EA0146201421000000000000
B0626363234521S11755053EA0145901417000000000000
B0626403234582S11755029EA0144401398000000000000
B0626443234645S11755046EA0143501396000000000000
B0626483234673S11755111EA0144701416000000000000
B0626523234672S11755188EA0146601432000000000000
B0626563234647S11755266EA0147401438000000000000
B0627003234598S11755332EA0147701441000000000000
B0627043234532S11755379EA0147501435000000000000
B0627083234464S11755427EA0147401441000000000000
B0627123234398S11755475EA0148201446000000000000
B0627163234330S11755526EA0147901444000000000000
B0627203234264S11755583EA0148701453000000000000
B0627243234218S11755656EA0149501463000000000000
B0627283234252S11755705EA0150501470000000000000
B0627323234287S11755670EA0150901473000000000000
B0627363234274S11755603EA0151001479000000000000
B0627403234217S11755560EA0152001491000000000000
B0627443234142S11755560EA0152701494000000000000
B0627483234074S11755607EA0152801494000000000000
B0627523234041S11755694EA0152601492000000000000
B0627563234039S11755793EA0152201484000000000000
B0628003234060S11755891EA0152701492000000000000
B0628043234095S11755969EA0155301518000000000000
B0628083234147S11755977EA0157001535000000000000
B0628123234166S11755923EA0158001549000000000000
B0628163234123S11755871EA0159501564000000000000
B0628203234054S11755890EA0161101580000000000000
B0628243234018S11755967EA0162001585000000000000
B0628283234043S11756037EA0163201599000000000000
B0628323234092S11756033EA0164101604000000000000
B0628363234106S11755975EA0165201622000000000000
B0628403234067S11755923EA0166801638000000000000
B0628443234000S11755930EA0168301652000000000000
B0628483233961S11756001EA0169701668000000000000
B0628523233982S11756067EA0170801676000000000000
B0628563234028S11756067EA0172001688000000000000
B0629003234030S11756012EA0173401708000000000000
B0629043233976S11755977EA0174601717000000000000
B0629083233910S11756010EA0175401730000000000000
B0629123233898S11756085EA0176901746000000000000
B0629163233940S11756127EA0177901751000000000000
B0629203233978S11756095EA0178901764000000000000
B0629243233961S11756036EA0180401781000000000000
B0629283233900S11756010EA0182301800000000000000
B0629323233836S11756046EA0183201809000000000000
B0629363233810S11756124EA0184701824000000000000
B0629403233833S11756188EA0185801833000000000000
B0629443233883S11756203EA0186601840000000000000
B0629483233906S11756158EA0187401849000000000000
B0629523233861S11756111EA0188801867000000000000
B0629563233798S11756136EA0189901880000000000000
B0630003233772S11756210EA0191201892000000000000
B0630043233798S11756274EA0192101900000000000000
B0630083233845S11756274EA0193001906000000000000
B0630123233858S11756220EA0193401913000000000000
B0630163233815S11756171EA0194401925000000000000
B0630203233748S11756177EA0195501938000000000000
B0630243233710S11756246EA0196801950000000000000
B0630283233735S11756313EA0197901958000000000000
B0630323233784S11756306EA0198601966000000000000
B0630363233791S11756249EA0199501975000000000000
B0630403233742S11756206EA0200601993000000000000
B0630443233680S11756227EA0202202009000000000000
B0630483233649S11756300EA0203402020000000000000
B0630523233668S11756367EA0204802033000000000000
B0630563233714S11756387EA0205702041000000000000
B0631003233749S11756354EA0206402048000000000000
B0631043233735S11756298EA0207402060000000000000
B0631083233674S11756280EA0208802076000000000000
B0631123233614S11756318EA0210502092000000000000
B0631163233589S11756391EA0211202102000000000000
B0631203233610S11756457EA0212302113000000000000
B0631243233655S11756482EA0213202120000000000000
B0631283233694S11756453EA0213802127000000000000
B0631323233690S11756396EA0214702138000000000000
B0631363233638S11756361EA0215602150000000000000
B0631403233577S11756392EA0216902163000000000000
B0631443233555S11756467EA0218202174000000000000
B0631483233586S11756526EA0218902183000000000000
B0631523233636S11756524EA0219702190000000000000
B0631563233655S11756474EA0220302198000000000000
B0632003233622S11756422EA0221402210000000000000
B0632043233557S11756419EA0222402221000000000000
B0632083233512S11756482EA0223902239000000000000
B0632123233518S11756557EA0225102246000000000000
B0632163233563S11756595EA0225502250000000000000
B0632203233610S11756573EA0226402260000000000000
B0632243233602S11756519EA0227702273000000000000
B0632283233544S11756504EA0228402279000000000000
B0632323233486S11756552EA0229202295000000000000
B0632363233471S11756631EA0230402302000000000000
B0632403233505S11756697EA0230802308000000000000
B0632443233558S11756714EA0231402315000000000000
B0632483233611S11756693EA0231902318000000000000
B0632523233635S11756643EA0232202320000000000000
B0632563233605S11756587EA0232402318000000000000
B0633003233540S11756604EA0231502298000000000000
B0633043233533S11756710EA0229902281000000000000
B0633083233576S11756813EA0229202277000000000000
B0633123233631S11756914EA0228002266000000000000
B0633163233688S11757017EA0227502254000000000000
B0633203233745S11757119EA0227202251000000000000
B0633243233802S11757224EA0226302237000000000000
B0633283233858S11757330EA0225002230000000000000
B0633323233914S11757436EA0224002221000000000000
B0633363233970S11757540EA0223502217000000000000
B0633403234025S11757642EA0222802212000000000000
B0633443234079S11757741EA0222802217000000000000
B0633483234129S11757839EA0222302209000000000000
B0633523234181S11757936EA0221202196000000000000
B0633563234235S11758036EA0219902181000000000000
B0634003234292S11758136EA0219402180000000000000
B0634043234347S11758230EA0219102177000000000000
B0634083234403S11758325EA0218402167000000000000
B0634123234460S11758419EA0217302157000000000000
B0634163234519S11758512EA0216802151000000000000
B0634203234574S11758604EA0216402149000000000000
B0634243234630S11758694EA0216402150000000000000
B0634283234686S11758779EA0216602153000000000000
B0634323234741S11758861EA0216102149000000000000
B0634363234789S11758945EA0215802142000000000000
B0634403234840S11759033EA0214202122000000000000
B0634443234893S11759123EA0213102116000000000000
B0634483234946S11759212EA0212102102000000000000
B0634523235001S11759300EA0210502087000000000000
B0634563235058S11759387EA0209202074000000000000
B0635003235117S11759481EA0208402062000000000000
B0635043235174S11759576EA0207302052000000000000
B0635083235230S11759676EA0205702035000000000000
B0635123235284S11759776EA0204802027000000000000
B0635163235338S11759876EA0203602014000000000000
B0635203235391S11759977EA0202402003000000000000
B0635243235443S11800076EA0201501994000000000000
B0635283235495S11800175EA0201001991000000000000
B0635323235543S11800272EA0201301999000000000000
B0635363235591S11800359EA0202502017000000000000
B0635403235635S11800444EA0203402017000000000000
B0635443235683S11800531EA0202102003000000000000
B0635483235735S11800617EA0201001992000000000000
B0635523235789S11800704EA0200401986000000000000
B0635563235842S11800790EA0200001984000000000000
B0636003235894S11800876EA0200201987000000000000
B0636043235945S11800959EA0200301987000000000000
B0636083235994S11801039EA0200501991000000000000
B0636123236046S11801117EA0200201981000000000000
B0636163236099S11801195EA0199901981000000000000
B0636203236150S11801275EA0199001971000000000000
B0636243236201S11801358EA0198501968000000000000
B0636283236249S11801438EA0198701968000000000000
B0636323236298S11801516EA0198501969000000000000
B0636363236346S11801592EA0198801971000000000000
B0636403236396S11801669EA0198101960000000000000
B0636443236444S11801744EA0197601957000000000000
B0636483236492S11801815EA0197001951000000000000
B0636523236541S11801890EA0196201941000000000000
B0636563236591S11801965EA0195201927000000000000
B0637003236639S11802044EA0193401908000000000000
B0637043236686S11802126EA0191901892000000000000
B0637083236731S11802212EA0190801881000000000000
B0637123236777S11802295EA0190401881000000000000
B0637163236822S11802372EA0190301884000000000000
B0637203236865S11802443EA0190801891000000000000
B0637243236909S11802512EA0189901877000000000000
B0637283236956S11802581EA0188701865000000000000
B0637323237004S11802655EA0187901859000000000000
B0637363237050S11802736EA0188101867000000000000
B0637403237091S11802814EA0190101896000000000000
B0637443237129S11802885EA0192601914000000000000
B0637483237168S11802961EA0192201902000000000000
B0637523237213S11803044EA0191501898000000000000
B0637563237258S11803134EA0191301896000000000000
B0638003237301S11803229EA0191601904000000000000
B0638043237343S11803321EA0192101904000000000000
B0638083237385S11803413EA0192501913000000000000
B0638123237425S11803512EA0192801908000000000000
B0638163237467S11803607EA0192801911000000000000
B0638203237509S11803700EA0193101917000000000000
B0638243237549S11803790EA0193301915000000000000
B0638283237590S11803876EA0193001913000000000000
B0638323237636S11803962EA0192301906000000000000
B0638363237685S11804049EA0191401893000000000000
B0638403237735S11804139EA0190401882000000000000
B0638443237784S11804231EA0189401875000000000000
B0638483237834S11804321EA0189401873000000000000
B0638523237880S11804413EA0188801866000000000000
B0638563237927S11804503EA0189401884000000000000
B0639003237967S11804586EA0190401885000000000000
B0639043238013S11804674EA0189301869000000000000
B0639083238062S11804765EA0188201860000000000000
B0639123238113S11804856EA0187301852000000000000
B0639163238165S11804947EA0186601841000000000000
B0639203238218S11805041EA0185701833000000000000
B0639243238272S11805132EA0185001830000000000000
B0639283238324S11805223EA0184701823000000000000
B0639323238378S11805314EA0183801812000000000000
B0639363238435S11805405EA0182701800000000000000
B0639403238493S11805500EA0181401786000000000000
B0639443238549S11805597EA0180301776000000000000
B0639483238603S11805695EA0179201766000000000000
B0639523238656S11805793EA0178001751000000000000
B0639563238707S11805891EA0177501749000000000000
B0640003238760S11805987EA0176201734000000000000
B0640043238815S11806083EA0174701720000000000000
B0640083238872S11806177EA0173701708000000000000
B0640123238931S11806268EA0172401692000000000000
B0640163238989S11806356EA0172001698000000000000
B0640203239046S11806440EA0173201707000000000000
B0640243239105S11806519EA0173301709000000000000
B0640283239162S11806601EA0173401712000000000000
B0640323239215S11806687EA0173501710000000000000
B0640363239270S11806774EA0172701700000000000000
B0640403239322S11806867EA0172201696000000000000
B0640443239369S11806962EA0172401701000000000000
B0640483239413S11807056EA0173301713000000000000
B0640523239457S11807144EA0175001733000000000000
B0640563239501S11807230EA0176001734000000000000
B0641003239539S11807321EA0175701736000000000000
B0641043239577S11807409EA0175801735000000000000
B0641083239615S11807495EA0175701737000000000000
B0641123239651S11807580EA0175701737000000000000
B0641163239689S11807659EA0176001741000000000000
B0641203239724S11807740EA0176701749000000000000
B0641243239758S11807820EA0177501757000000000000
B0641283239789S11807899EA0177901758000000000000
B0641323239823S11807977EA0177701753000000000000
B0641363239854S11808057EA0177101748000000000000
B0641403239882S11808137EA0177101750000000000000
B0641443239914S11808218EA0176601741000000000000
B0641483239945S11808301EA0175601730000000000000
B0641523239979S11808382EA0175101727000000000000
B0641563240012S11808462EA0174501719000000000000
B0642003240046S11808544EA0174001717000000000000
B0642043240080S11808625EA0173601712000000000000
B0642083240116S11808704EA0173501712000000000000
B0642123240158S11808778EA0173901720000000000000
B0642163240202S11808847EA0174601727000000000000
B0642203240248S11808915EA0174901728000000000000
B0642243240297S11808986EA0174901726000000000000
B0642283240346S11809059EA0174401722000000000000
B0642323240396S11809136EA0174401723000000000000
B0642363240444S11809214EA0174501723000000000000
B0642403240493S11809290EA0174501722000000000000
B0642443240540S11809367EA0174901731000000000000
B0642483240580S11809449EA0175101731000000000000
B0642523240599S11809549EA0174801724000000000000
B0642563240577S11809660EA0174501718000000000000
B0643003240517S11809760EA0174101713000000000000
B0643043240435S11809831EA0173301706000000000000
B0643083240343S11809864EA0173101709000000000000
B0643123240249S11809868EA0172801699000000000000
B0643163240158S11809847EA0171401682000000000000
B0643203240070S11809816EA0170201675000000000000
B0643243239982S11809788EA0170101672000000000000
B0643283239891S11809771EA0169501667000000000000
B0643323239798S11809765EA0168901653000000000000
B0643363239700S11809783EA0167401642000000000000
B0643403239608S11809822EA0167101640000000000000
B0643443239524S11809878EA0166501633000000000000
B0643483239443S11809946EA0165401622000000000000
B0643523239351S11809983EA0164401611000000000000
B0643563239260S11809965EA0164501620000000000000
B0644003239180S11809931EA0165101621000000000000
B0644043239101S11809899EA0164501609000000000000
B0644083239019S11809865EA0162901593000000000000
B0644123238937S11809827EA0162301590000000000000
B0644163238850S11809800EA0161201576000000000000
B0644203238764S11809762EA0159401556000000000000
B0644243238677S11809723EA0157901541000000000000
B0644283238595S11809675EA0156801533000000000000
B0644323238517S11809619EA0156101524000000000000
B0644363238443S11809557EA0155301513000000000000
B0644403238367S11809497EA0154101499000000000000
B0644443238283S11809443EA0152301480000000000000
B0644483238194S11809397EA0151301474000000000000
B0644523238099S11809375EA0151201474000000000000
B0644563238001S11809357EA0150201460000000000000
B0645003237905S11809331EA0149301454000000000000
B0645043237819S11809292EA0149601458000000000000
B0645083237733S11809262EA0149601457000000000000
B0645123237645S11809235EA0148701443000000000000
B0645163237558S11809196EA0147401431000000000000
B0645203237480S11809141EA0146101417000000000000
B0645243237408S11809076EA0145501415000000000000
B0645283237336S11809023EA0146401427000000000000
B0645323237262S11809021EA0147601444000000000000
B0645363237189S11809038EA0148501453000000000000
B0645403237117S11809058EA0149901466000000000000
B0645443237059S11809106EA0150301465000000000000
B0645483237060S11809180EA0148901449000000000000
B0645523237107S11809203EA0148101437000000000000
B0645563237147S11809159EA0147301430000000000000
B0646003237141S11809085EA0146601424000000000000
B0646043237091S11809015EA0146601429000000000000
B0646083237029S11808954EA0147501437000000000000
B0646123236959S11808906EA0147801436000000000000
B0646163236882S11808910EA0147401432000000000000
B0646203236799S11808929EA0145901414000000000000
B0646243236712S11808932EA0144401399000000000000
B0646283236623S11808924EA0142801382000000000000
B0646323236532S11808911EA0141301359000000000000
B0646363236439S11808899EA0139001334000000000000
B0646403236341S11808893EA0136801313000000000000
B0646443236244S11808887EA0134701290000000000000
B0646483236144S11808886EA0133001276000000000000
B0646523236045S11808889EA0132101269000000000000
B0646563235947S11808891EA0131701264000000000000
B0647003235846S11808895EA0130301249000000000000
B0647043235743S11808893EA0128701232000000000000
B0647083235638S11808887EA0127901222000000000000
B0647123235534S11808880EA0126701208000000000000
B0647163235429S11808864EA0125401196000000000000
B0647203235322S11808851EA0124101180000000000000
B0647243235221S11808852EA0125501213000000000000
B0647283235131S11808869EA0127501225000000000000
B0647323235046S11808893EA0127301223000000000000
B0647363234961S11808884EA0128101233000000000000
B0647403234944S11808817EA0130701267000000000000
B0647443234987S11808824EA0133001287000000000000
B0647483234983S11808890EA0135001310000000000000
B0647523234936S11808936EA0136601322000000000000
B0647563234870S11808941EA0136801319000000000000
B0648003234824S11808887EA0136701323000000000000
B0648043234851S11808838EA0137901341000000000000
B0648083234893S11808864EA0139401356000000000000
B0648123234886S11808936EA0141001372000000000000
B0648163234827S11808977EA0141901376000000000000
B0648203234762S11808942EA0141701376000000000000
B0648243234753S11808869EA0142701387000000000000
B0648283234785S11808817EA0144001401000000000000
B0648323234836S11808828EA0145301416000000000000
B0648363234847S11808899EA0147101435000000000000
B0648403234795S11808952EA0148401445000000000000
B0648443234727S11808934EA0149201454000000000000
B0648483234703S11808867EA0149901464000000000000
B0648523234737S11808828EA0151601486000000000000
B0648563234781S11808855EA0153301500000000000000
B0649003234789S11808929EA0154201509000000000000
B0649043234742S11808991EA0155301521000000000000
B0649083234675S11808986EA0156101525000000000000
B0649123234650S11808926EA0157401542000000000000
B0649163234688S11808898EA0159001559000000000000
B0649203234728S11808937EA0160301570000000000000
B0649243234727S11809012EA0160501570000000000000
B0649283234676S11809073EA0160101561000000000000
B0649323234600S11809082EA0159501558000000000000
B0649363234559S11809024EA0160201572000000000000
B0649403234594S11808998EA0162201596000000000000
B0649443234619S11809050EA0163301595000000000000
B0649483234585S11809116EA0162801593000000000000
B0649523234513S11809134EA0162901595000000000000
B0649563234450S11809094EA0163101598000000000000
B0650003234426S11809025EA0163801607000000000000
B0650043234463S11808998EA0164901619000000000000
B0650083234485S11809058EA0166201632000000000000
B0650123234441S11809115EA0167801651000000000000
B0650163234376S11809118EA0168801660000000000000
B0650203234330S11809072EA0169601670000000000000
B0650243234330S11809012EA0170101673000000000000
B0650283234366S11808982EA0170501679000000000000
B0650323234412S11809004EA0171201689000000000000
B0650363234433S11809069EA0172101696000000000000
B0650403234403S11809136EA0173001708000000000000
B0650443234339S11809164EA0173701710000000000000
B0650483234268S11809144EA0173601709000000000000
B0650523234192S11809107EA0173401705000000000000
B0650563234113S11809068EA0173601710000000000000
B0651003234031S11809028EA0173601709000000000000
B0651043233948S11808985EA0173301708000000000000
B0651083233865S11808938EA0173301705000000000000
B0651123233781S11808895EA0173001703000000000000
B0651163233698S11808855EA0172301695000000000000
B0651203233614S11808820EA0172101692000000000000
B0651243233528S11808789EA0171301683000000000000
B0651283233442S11808759EA0170301674000000000000
B0651323233355S11808738EA0169801668000000000000
B0651363233267S11808725EA0168901659000000000000
B0651403233178S11808708EA0167701644000000000000
B0651443233086S11808696EA0166901636000000000000
B0651483232995S11808676EA0165801626000000000000
B0651523232909S11808642EA0164801617000000000000
B0651563232829S11808603EA0164201610000000000000
B0652003232752S11808561EA0165301634000000000000
B0652043232682S11808527EA0166601641000000000000
B0652083232615S11808494EA0167001646000000000000
B0652123232545S11808471EA0167001645000000000000
