ACAM4N6
HFDTE170415
HFFXA050
HFPLTPILOT:JOHN WELSH              
HFGTYGLIDERTYPE:HORNET      
HFGIDGLIDERID:VH-GMY      
HFDTM100GPSDATUM:
HFRFWFIRMWAREVERSION:F2.6
HFRHWHARDWAREVERSION:300 Series Version 2
HFFTYFRTYPE:CAMBRIDGE AERO INSTRUMENTS, 302+
HFGPS:GARMIN,LVS-25,12,18000
HFPRSPRESSALTSENSOR:INTERSEMA, MS5534-AP, 20000
I033638FXA3941ENL4247REX
LCAMSBVER:5FWVER:F26300
C050415050137050415000102
C0000000N00000000WTAKEOFF     
C3207549S11656849EBEVAIR      
C3123325S11712260EWATRCRRN    
C3212499S11757329EBILBARIN    
C3207549S11656849EBEVAIR      
C0000000N00000000WLANDING     
B0509163207336S11656853EA0013800223000000000000
B0509183207336S11656853EA0013800223000000000000
B0509203207336S11656853EA0013700223000000000000
B0509223207336S11656853EA0013700223000000000000
B0509243207336S11656853EA0013800223000000000000
B0509263207336S11656853EA0013800223000000000000
B0509283207336S11656853EA0013800223000000000000
B0509303207336S11656853EA0013800223000000000000
B0509323207336S11656853EA0013800223000000000000
B0509343207336S11656853EA0013800223000000000000
B0509363207336S11656853EA0013700223000000000000
B0509383207336S11656853EA0013800223000000000000
B0509403207336S11656853EA0013800223000000000000
B0509423207337S11656854EA0013800222000000000000
B0509443207338S11656854EA0013900221000000000000
B0509493207355S11656870EA0013900219000000000000
B0509533207386S11656895EA0013700219000000000000
B0509573207434S11656927EA0013600219000000000000
B0510013207495S11656964EA0013700219000000000000
B0510053207564S11657007EA0014100223000000000000
B0510093207636S11657056EA0014500229000000000000
B0510133207710S11657103EA0015800247000000000000
B0510173207784S11657144EA0017700265000000000000
B0510213207859S11657183EA0019500281000000000000
B0510253207932S11657221EA0021400302000000000000
B0510293208004S11657260EA0023200317000000000000
B0510333208075S11657295EA0024700333000000000000
B0510373208145S11657322EA0026800358000000000000
B0510413208213S11657354EA0029700384000000000000
B0510453208279S11657386EA0031800404000000000000
B0510493208346S11657416EA0033500424000000000000
B0510533208415S11657446EA0035100436000000000000
B0510573208482S11657477EA0037200460000000000000
B0511013208542S11657530EA0039100477000000000000
B0511053208581S11657607EA0040600488000000000000
B0511093208597S11657699EA0041200495000000000000
B0511133208594S11657797EA0042400505000000000000
B0511173208577S11657894EA0043200514000000000000
B0511213208541S11657984EA0044300526000000000000
B0511253208483S11658058EA0045500540000000000000
B0511293208412S11658117EA0046700553000000000000
B0511333208327S11658145EA0048000565000000000000
B0511373208240S11658143EA0048800576000000000000
B0511413208160S11658110EA0050100588000000000000
B0511453208092S11658058EA0051700608000000000000
B0511493208035S11657995EA0053600626000000000000
B0511533207982S11657927EA0055600645000000000000
B0511573207924S11657863EA0057300660000000000000
B0512013207871S11657794EA0058800678000000000000
B0512053207818S11657723EA0060700694000000000000
B0512093207770S11657647EA0063000722000000000000
B0512133207719S11657577EA0065900750000000000000
B0512173207654S11657555EA0067500760000000000000
B0512213207609S11657608EA0068300770000000000000
B0512253207627S11657672EA0069100772000000000000
B0512293207683S11657692EA0069400784000000000000
B0512333207713S11657641EA0070500795000000000000
B0512373207680S11657584EA0071100800000000000000
B0512413207616S11657592EA0071400802000000000000
B0512453207590S11657657EA0072100805000000000000
B0512493207622S11657716EA0072100811000000000000
B0512533207674S11657715EA0073800831000000000000
B0512573207684S11657655EA0075000842000000000000
B0513013207636S11657616EA0075600846000000000000
B0513053207575S11657641EA0075600845000000000000
B0513093207557S11657715EA0075600845000000000000
B0513133207594S11657772EA0076500858000000000000
B0513173207648S11657761EA0077800869000000000000
B0513213207655S11657690EA0078000876000000000000
B0513253207598S11657658EA0079100887000000000000
B0513293207547S11657705EA0080200895000000000000
B0513333207546S11657777EA0081000901000000000000
B0513373207598S11657815EA0081500909000000000000
B0513413207644S11657771EA0082500920000000000000
B0513453207622S11657706EA0084000936000000000000
B0513493207558S11657701EA0084800940000000000000
B0513533207516S11657761EA0085700951000000000000
B0513573207534S11657829EA0087100964000000000000
B0514013207590S11657845EA0087700970000000000000
B0514053207629S11657793EA0088100977000000000000
B0514093207609S11657724EA0089300993000000000000
B0514133207550S11657707EA0091201012000000000000
B0514173207508S11657754EA0092701021000000000000
B0514213207523S11657816EA0093301027000000000000
B0514253207571S11657820EA0094601043000000000000
B0514293207584S11657766EA0095701048000000000000
B0514333207536S11657728EA0095701052000000000000
B0514373207482S11657766EA0096401060000000000000
B0514413207489S11657832EA0097701072000000000000
B0514453207538S11657846EA0098301080000000000000
B0514493207567S11657792EA0098801087000000000000
B0514533207533S11657737EA0099801099000000000000
B0514573207475S11657748EA0101301110000000000000
B0515013207446S11657809EA0101601109000000000000
B0515053207480S11657865EA0101601112000000000000
B0515093207536S11657854EA0102601125000000000000
B0515133207558S11657789EA0103501132000000000000
B0515173207521S11657728EA0104501143000000000000
B0515213207456S11657727EA0105601157000000000000
B0515253207407S11657777EA0106601161000000000000
B0515293207406S11657853EA0106801166000000000000
B0515333207453S11657901EA0107501171000000000000
B0515373207511S11657879EA0107901177000000000000
B0515413207527S11657805EA0108601187000000000000
B0515453207482S11657751EA0109901201000000000000
B0515493207421S11657763EA0111401215000000000000
B0515533207386S11657824EA0111701212000000000000
B0515573207397S11657898EA0111401212000000000000
B0516013207433S11657969EA0110901209000000000000
B0516053207477S11658041EA0110701203000000000000
B0516093207525S11658117EA0109501191000000000000
B0516133207579S11658192EA0108601188000000000000
B0516173207633S11658268EA0108901189000000000000
B0516213207688S11658342EA0108501181000000000000
B0516253207742S11658421EA0107501170000000000000
B0516293207796S11658505EA0106101155000000000000
B0516333207852S11658590EA0104701143000000000000
B0516373207910S11658676EA0103901135000000000000
B0516413207967S11658760EA0103501132000000000000
B0516453208022S11658845EA0103201128000000000000
B0516493208078S11658928EA0102801125000000000000
B0516533208132S11659010EA0102601121000000000000
B0516573208186S11659092EA0101801112000000000000
B0517013208240S11659171EA0101101106000000000000
B0517053208294S11659249EA0100701100000000000000
B0517093208348S11659326EA0099601090000000000000
B0517133208402S11659402EA0098801078000000000000
B0517173208454S11659483EA0097301060000000000000
B0517213208504S11659571EA0095101036000000000000
B0517253208558S11659674EA0091800997000000000000
B0517293208615S11659786EA0088200967000000000000
B0517333208678S11659896EA0086900970000000000000
B0517373208750S11659959EA0091901031000000000000
B0517413208808S11659930EA0097101071000000000000
B0517453208807S11659863EA0097801064000000000000
B0517493208749S11659830EA0095201039000000000000
B0517533208677S11659860EA0094801042000000000000
B0517573208626S11659924EA0095401047000000000000
B0518013208613S11700004EA0095801049000000000000
B0518053208643S11700068EA0095701047000000000000
B0518093208703S11700086EA0096201058000000000000
B0518133208759S11700071EA0097101069000000000000
B0518173208768S11700013EA0098901095000000000000
B0518213208717S11700000EA0100801105000000000000
B0518253208688S11700068EA0101601119000000000000
B0518293208729S11700114EA0103901141000000000000
B0518333208767S11700081EA0104901147000000000000
B0518373208758S11700017EA0105801161000000000000
B0518413208704S11659993EA0107601179000000000000
B0518453208654S11700033EA0108901189000000000000
B0518493208643S11700110EA0109901197000000000000
B0518533208685S11700167EA0110001200000000000000
B0518573208745S11700171EA0110601211000000000000
B0519013208793S11700133EA0111001211000000000000
B0519053208811S11700068EA0110801209000000000000
B0519093208801S11700002EA0111601224000000000000
B0519133208766S11659954EA0113001230000000000000
B0519173208707S11659961EA0112301220000000000000
B0519213208665S11700025EA0112601230000000000000
B0519253208652S11700104EA0113101238000000000000
B0519293208673S11700181EA0114101247000000000000
B0519333208725S11700210EA0115301259000000000000
B0519373208772S11700175EA0115701257000000000000
B0519413208782S11700106EA0114501250000000000000
B0519453208733S11700055EA0115401265000000000000
B0519493208668S11700071EA0117601287000000000000
B0519533208624S11700133EA0118701292000000000000
B0519573208633S11700215EA0119101296000000000000
B0520013208689S11700246EA0119901307000000000000
B0520053208733S11700210EA0120901312000000000000
B0520093208733S11700145EA0120801317000000000000
B0520133208682S11700107EA0121501324000000000000
B0520173208619S11700145EA0122301330000000000000
B0520213208599S11700231EA0122801337000000000000
B0520253208637S11700294EA0123501340000000000000
B0520293208695S11700288EA0123201336000000000000
B0520333208727S11700231EA0122901333000000000000
B0520373208710S11700155EA0122601334000000000000
B0520413208659S11700099EA0123301344000000000000
B0520453208587S11700108EA0123901339000000000000
B0520493208530S11700182EA0121901318000000000000
B0520533208485S11700280EA0120501302000000000000
B0520573208464S11700390EA0118501283000000000000
B0521013208461S11700507EA0116801268000000000000
B0521053208467S11700628EA0115201254000000000000
B0521093208478S11700749EA0114401248000000000000
B0521133208495S11700868EA0113701243000000000000
B0521173208513S11700982EA0113901245000000000000
B0521213208534S11701092EA0113801244000000000000
B0521253208558S11701200EA0113501239000000000000
B0521293208580S11701308EA0113201234000000000000
B0521333208598S11701415EA0112401227000000000000
B0521373208616S11701521EA0112201224000000000000
B0521413208630S11701624EA0112101224000000000000
B0521453208638S11701724EA0112101221000000000000
B0521493208638S11701826EA0111801217000000000000
B0521533208637S11701923EA0111601215000000000000
B0521573208630S11702017EA0111301213000000000000
B0522013208621S11702109EA0110701204000000000000
B0522053208603S11702200EA0109601194000000000000
B0522093208581S11702290EA0109801195000000000000
B0522133208563S11702379EA0110001199000000000000
B0522173208550S11702465EA0111001208000000000000
B0522213208542S11702551EA0111501211000000000000
B0522253208563S11702632EA0111401205000000000000
B0522293208625S11702639EA0110801202000000000000
B0522333208643S11702568EA0111401212000000000000
B0522373208606S11702506EA0111001207000000000000
B0522413208537S11702498EA0110901208000000000000
B0522453208473S11702534EA0111301209000000000000
B0522493208439S11702604EA0111301209000000000000
B0522533208454S11702682EA0110901203000000000000
B0522573208509S11702723EA0110601201000000000000
B0523013208565S11702695EA0110401198000000000000
B0523053208585S11702623EA0109201186000000000000
B0523093208581S11702538EA0108801187000000000000
B0523133208568S11702452EA0108601184000000000000
B0523173208550S11702364EA0108101177000000000000
B0523213208532S11702274EA0107501175000000000000
B0523253208513S11702188EA0108201184000000000000
B0523293208498S11702108EA0108801181000000000000
B0523333208485S11702023EA0107701169000000000000
B0523373208472S11701936EA0107001160000000000000
B0523413208457S11701845EA0105901149000000000000
B0523453208443S11701752EA0105701149000000000000
B0523493208433S11701659EA0105001140000000000000
B0523533208428S11701566EA0104301133000000000000
B0523573208426S11701472EA0103401124000000000000
B0524013208426S11701377EA0102701116000000000000
B0524053208429S11701284EA0102001106000000000000
B0524093208434S11701193EA0101101100000000000000
B0524133208441S11701102EA0100501095000000000000
B0524173208446S11701009EA0100901100000000000000
B0524213208452S11700920EA0100701097000000000000
B0524253208461S11700831EA0100101089000000000000
B0524293208476S11700743EA0098701079000000000000
B0524333208491S11700654EA0098401077000000000000
B0524373208507S11700571EA0098901081000000000000
B0524413208524S11700493EA0099001082000000000000
B0524453208535S11700414EA0098401075000000000000
B0524493208539S11700329EA0098501081000000000000
B0524533208543S11700250EA0099501089000000000000
B0524573208546S11700169EA0099501087000000000000
B0525013208508S11700107EA0100401103000000000000
B0525053208454S11700138EA0101701124000000000000
B0525093208468S11700203EA0102801134000000000000
B0525133208521S11700219EA0103001134000000000000
B0525173208559S11700175EA0103501141000000000000
B0525213208551S11700114EA0103801139000000000000
B0525253208519S11700054EA0103101130000000000000
B0525293208464S11700011EA0102201120000000000000
B0525333208400S11700028EA0102201123000000000000
B0525373208369S11700094EA0102201120000000000000
B0525413208390S11700167EA0101901117000000000000
B0525453208450S11700186EA0102101121000000000000
B0525493208495S11700145EA0102501126000000000000
B0525533208513S11700080EA0101901117000000000000
B0525573208521S11700004EA0101301109000000000000
B0526013208522S11659921EA0100701102000000000000
B0526053208515S11659835EA0100001092000000000000
B0526093208506S11659747EA0098901084000000000000
B0526133208494S11659657EA0098501078000000000000
B0526173208478S11659568EA0097801073000000000000
B0526213208461S11659479EA0097601067000000000000
B0526253208422S11659408EA0097901074000000000000
B0526293208360S11659391EA0098801079000000000000
B0526333208309S11659438EA0098101069000000000000
B0526373208291S11659516EA0096801057000000000000
B0526413208294S11659600EA0096101053000000000000
B0526453208308S11659685EA0095301046000000000000
B0526493208330S11659769EA0094601038000000000000
B0526533208366S11659848EA0093901034000000000000
B0526573208407S11659925EA0093601032000000000000
B0527013208450S11659998EA0093501029000000000000
B0527053208500S11700058EA0094201036000000000000
B0527093208563S11700075EA0094901042000000000000
B0527133208607S11700030EA0094701041000000000000
B0527173208610S11659955EA0094101028000000000000
B0527213208597S11659873EA0092601016000000000000
B0527253208576S11659790EA0092101011000000000000
B0527293208547S11659711EA0091901012000000000000
B0527333208507S11659638EA0092101012000000000000
B0527373208465S11659562EA0091001001000000000000
B0527413208428S11659480EA0089800990000000000000
B0527453208395S11659395EA0089000984000000000000
B0527493208368S11659310EA0088900983000000000000
B0527533208343S11659230EA0088900978000000000000
B0527573208321S11659149EA0088100969000000000000
B0528013208295S11659067EA0087300960000000000000
B0528053208266S11658989EA0086600954000000000000
B0528093208239S11658910EA0085700945000000000000
B0528133208212S11658829EA0084800936000000000000
B0528173208184S11658750EA0084100928000000000000
B0528213208157S11658672EA0083500920000000000000
B0528253208130S11658593EA0082800912000000000000
B0528293208105S11658512EA0082100905000000000000
B0528333208082S11658429EA0082000898000000000000
B0528373208062S11658346EA0081000897000000000000
B0528413208047S11658265EA0080400889000000000000
B0528453208035S11658186EA0080800896000000000000
B0528493208015S11658110EA0081000895000000000000
B0528533207996S11658035EA0080100887000000000000
B0528573207976S11657961EA0080000883000000000000
B0529013207962S11657887EA0079500878000000000000
B0529053207950S11657813EA0079200872000000000000
B0529093207937S11657738EA0078100858000000000000
B0529133207923S11657662EA0076700846000000000000
B0529173207914S11657585EA0075600834000000000000
B0529213207915S11657508EA0074800826000000000000
B0529253207922S11657433EA0074100817000000000000
B0529293207931S11657360EA0073200811000000000000
B0529333207937S11657286EA0072400799000000000000
B0529373207945S11657209EA0071500792000000000000
B0529413207935S11657130EA0071500796000000000000
B0529453207878S11657105EA0072000800000000000000
B0529493207833S11657153EA0072100798000000000000
B0529533207841S11657229EA0071400794000000000000
B0529573207883S11657283EA0071600799000000000000
B0530013207939S11657294EA0071800797000000000000
B0530053207969S11657239EA0071600799000000000000
B0530093207969S11657166EA0071000793000000000000
B0530133207965S11657088EA0070800788000000000000
B0530173207958S11657008EA0069700773000000000000
B0530213207952S11656923EA0068100758000000000000
B0530253207943S11656838EA0067000752000000000000
B0530293207931S11656756EA0067000752000000000000
B0530333207918S11656676EA0067200753000000000000
B0530373207905S11656600EA0067400755000000000000
B0530413207893S11656526EA0067500753000000000000
B0530453207882S11656453EA0067200750000000000000
B0530493207872S11656381EA0067200749000000000000
B0530533207863S11656308EA0067300749000000000000
B0530573207828S11656243EA0067300752000000000000
B0531013207768S11656211EA0068500767000000000000
B0531053207732S11656266EA0070300788000000000000
B0531093207763S11656314EA0071600795000000000000
B0531133207809S11656299EA0071400796000000000000
B0531173207815S11656241EA0071900803000000000000
B0531213207768S11656199EA0073000815000000000000
B0531253207709S11656216EA0073900826000000000000
B0531293207696S11656284EA0074800834000000000000
B0531333207744S11656310EA0074600829000000000000
B0531373207762S11656250EA0074600836000000000000
B0531413207709S11656215EA0076200854000000000000
B0531453207662S11656264EA0077100861000000000000
B0531493207685S11656328EA0078100874000000000000
B0531533207735S11656320EA0079100883000000000000
B0531573207739S11656263EA0080000891000000000000
B0532013207685S11656245EA0081000901000000000000
B0532053207664S11656302EA0082100912000000000000
B0532093207706S11656338EA0082600914000000000000
B0532133207740S11656301EA0083400926000000000000
B0532173207711S11656253EA0084600938000000000000
B0532213207655S11656264EA0085600945000000000000
B0532253207642S11656327EA0086500953000000000000
B0532293207683S11656364EA0086800953000000000000
B0532333207722S11656333EA0087000960000000000000
B0532373207705S11656279EA0088200973000000000000
B0532413207650S11656272EA0089500984000000000000
B0532453207614S11656320EA0090000992000000000000
B0532493207633S11656377EA0090900997000000000000
B0532533207679S11656380EA0090901000000000000000
B0532573207688S11656327EA0091501006000000000000
B0533013207640S11656303EA0092701020000000000000
B0533053207598S11656347EA0093501024000000000000
B0533093207614S11656410EA0093901029000000000000
B0533133207659S11656411EA0094501033000000000000
B0533173207672S11656360EA0094601037000000000000
B0533213207642S11656308EA0095701050000000000000
B0533253207586S11656320EA0097001060000000000000
B0533293207575S11656383EA0097501064000000000000
B0533333207618S11656416EA0097701068000000000000
B0533373207657S11656388EA0098401076000000000000
B0533413207638S11656334EA0099201087000000000000
B0533453207580S11656341EA0100501102000000000000
B0533493207570S11656403EA0101901111000000000000
B0533533207619S11656432EA0101201100000000000000
B0533573207685S11656437EA0099401081000000000000
B0534013207761S11656433EA0098701080000000000000
B0534053207836S11656424EA0098801079000000000000
B0534093207911S11656415EA0098901080000000000000
B0534133207984S11656406EA0098901078000000000000
B0534173208060S11656396EA0097701064000000000000
B0534213208138S11656386EA0097201062000000000000
B0534253208216S11656379EA0097001060000000000000
B0534293208292S11656372EA0097001058000000000000
B0534333208368S11656366EA0096901056000000000000
B0534373208443S11656357EA0096701054000000000000
B0534413208519S11656351EA0095801039000000000000
B0534453208593S11656344EA0095201037000000000000
B0534493208665S11656337EA0095001035000000000000
B0534533208736S11656332EA0094201027000000000000
B0534573208805S11656328EA0094301027000000000000
B0535013208871S11656325EA0094401027000000000000
B0535053208937S11656325EA0093601015000000000000
B0535093209006S11656325EA0092401006000000000000
B0535133209075S11656321EA0091601000000000000000
B0535173209144S11656318EA0091000992000000000000
B0535213209214S11656314EA0090200985000000000000
B0535253209286S11656312EA0089200973000000000000
B0535293209358S11656312EA0088500967000000000000
B0535333209431S11656310EA0088600972000000000000
B0535373209499S11656307EA0089400978000000000000
B0535413209564S11656303EA0090000983000000000000
B0535453209629S11656297EA0089800977000000000000
B0535493209696S11656288EA0089200973000000000000
B0535533209764S11656281EA0088600964000000000000
B0535573209834S11656271EA0088000959000000000000
B0536013209906S11656262EA0087300954000000000000
B0536053209976S11656254EA0086700948000000000000
B0536093210046S11656246EA0086100942000000000000
B0536133210119S11656238EA0085500935000000000000
B0536173210190S11656232EA0085300935000000000000
B0536213210258S11656228EA0085300934000000000000
B0536253210326S11656223EA0085200932000000000000
B0536293210389S11656216EA0085100932000000000000
B0536333210453S11656207EA0084500923000000000000
B0536373210519S11656198EA0084100922000000000000
B0536413210583S11656198EA0084500929000000000000
B0536453210644S11656204EA0084800928000000000000
B0536493210704S11656212EA0084200919000000000000
B0536533210768S11656225EA0083600912000000000000
B0536573210833S11656238EA0082400900000000000000
B0537013210896S11656255EA0081300891000000000000
B0537053210959S11656272EA0080400880000000000000
B0537093211021S11656269EA0080100879000000000000
B0537133211076S11656233EA0079500871000000000000
B0537173211112S11656171EA0078800865000000000000
B0537213211133S11656100EA0077900856000000000000
B0537253211146S11656029EA0077100844000000000000
B0537293211145S11655952EA0075900835000000000000
B0537333211146S11655874EA0075400827000000000000
B0537373211156S11655798EA0074600822000000000000
B0537413211158S11655721EA0074600823000000000000
B0537453211152S11655644EA0073900814000000000000
B0537493211125S11655571EA0073200806000000000000
B0537533211065S11655534EA0072200794000000000000
B0537573210994S11655557EA0070900782000000000000
B0538013210935S11655622EA0069800774000000000000
B0538053210883S11655695EA0069900778000000000000
B0538093210836S11655770EA0070600787000000000000
B0538133210823S11655851EA0071400794000000000000
B0538173210878S11655878EA0072300805000000000000
B0538213210891S11655821EA0073000813000000000000
B0538253210842S11655803EA0073900824000000000000
B0538293210814S11655860EA0074100817000000000000
B0538333210842S11655921EA0073200811000000000000
B0538373210900S11655935EA0072900809000000000000
B0538413210933S11655886EA0073500818000000000000
B0538453210920S11655829EA0074400826000000000000
B0538493210864S11655829EA0074600825000000000000
B0538533210849S11655900EA0074200823000000000000
B0538573210900S11655941EA0074200823000000000000
B0539013210952S11655917EA0075100832000000000000
B0539053210956S11655861EA0075600837000000000000
B0539093210911S11655834EA0075700840000000000000
B0539133210856S11655859EA0075800841000000000000
B0539173210803S11655903EA0075400833000000000000
B0539213210753S11655955EA0074800827000000000000
B0539253210703S11656009EA0074300825000000000000
B0539293210654S11656064EA0074500826000000000000
B0539333210606S11656117EA0074400824000000000000
B0539373210554S11656167EA0073900817000000000000
B0539413210498S11656215EA0073400813000000000000
B0539453210436S11656258EA0072800800000000000000
B0539493210374S11656303EA0071700795000000000000
B0539533210315S11656350EA0071800795000000000000
B0539573210258S11656398EA0071300787000000000000
B0540013210192S11656437EA0071100788000000000000
B0540053210125S11656466EA0072200805000000000000
B0540093210068S11656500EA0074000817000000000000
B0540133210053S11656565EA0073400806000000000000
B0540173210106S11656592EA0072000796000000000000
B0540213210149S11656552EA0072500803000000000000
B0540253210150S11656484EA0072800806000000000000
B0540293210112S11656429EA0073000809000000000000
B0540333210056S11656441EA0073500813000000000000
B0540373210034S11656505EA0073300807000000000000
B0540413210071S11656563EA0072200798000000000000
B0540453210119S11656537EA0072400805000000000000
B0540493210110S11656468EA0072600805000000000000
B0540533210066S11656416EA0072500803000000000000
B0540573209999S11656402EA0071600792000000000000
B0541013209925S11656401EA0070100778000000000000
B0541053209847S11656402EA0068900764000000000000
B0541093209764S11656396EA0067500750000000000000
B0541133209682S11656388EA0066800742000000000000
B0541173209599S11656377EA0065700732000000000000
B0541213209516S11656368EA0065000728000000000000
B0541253209435S11656362EA0065000726000000000000
B0541293209357S11656355EA0064500722000000000000
B0541333209280S11656350EA0064200719000000000000
B0541373209204S11656345EA0063500712000000000000
B0541413209128S11656340EA0063100706000000000000
B0541453209054S11656333EA0062900707000000000000
B0541493208987S11656329EA0063000705000000000000
B0541533208918S11656329EA0062400696000000000000
B0541573208847S11656327EA0061600689000000000000
B0542013208775S11656319EA0061000686000000000000
B0542053208704S11656310EA0060800680000000000000
B0542093208634S11656298EA0060200674000000000000
B0542133208565S11656280EA0060600682000000000000
B0542173208499S11656282EA0061400687000000000000
B0542213208478S11656351EA0061800696000000000000
B0542253208530S11656380EA0062300695000000000000
B0542293208567S11656333EA0062000696000000000000
B0542333208556S11656268EA0062200699000000000000
B0542373208511S11656230EA0062700705000000000000
B0542413208460S11656266EA0062900703000000000000
B0542453208470S11656333EA0062700704000000000000
B0542493208520S11656366EA0063000705000000000000
B0542533208567S11656340EA0062600700000000000000
B0542573208542S11656281EA0062100696000000000000
B0543013208480S11656282EA0062400699000000000000
B0543053208415S11656314EA0061900692000000000000
B0543093208352S11656357EA0061700691000000000000
B0543133208343S11656432EA0061800697000000000000
B0543173208394S11656461EA0062200698000000000000
B0543213208425S11656415EA0062500701000000000000
B0543253208395S11656366EA0063000707000000000000
B0543293208338S11656359EA0063300710000000000000
B0543333208307S11656420EA0063100706000000000000
B0543373208343S11656470EA0063200707000000000000
B0543413208386S11656440EA0063000705000000000000
B0543453208369S11656383EA0063800716000000000000
B0543493208317S11656368EA0064400721000000000000
B0543533208273S11656411EA0064400721000000000000
B0543573208282S11656477EA0064700725000000000000
B0544013208333S11656488EA0064500719000000000000
B0544053208351S11656433EA0064200720000000000000
B0544093208316S11656383EA0064600725000000000000
B0544133208259S11656376EA0065100729000000000000
B0544173208223S11656428EA0065800739000000000000
B0544213208251S11656480EA0066000737000000000000
B0544253208300S11656467EA0065900738000000000000
B0544293208299S11656411EA0066500744000000000000
B0544333208247S11656393EA0066700744000000000000
B0544373208204S11656441EA0066800747000000000000
B0544413208225S11656501EA0067100748000000000000
B0544453208277S11656497EA0067600753000000000000
B0544493208283S11656442EA0068000759000000000000
B0544533208234S11656412EA0068100757000000000000
B0544573208183S11656455EA0068200759000000000000
B0545013208192S11656524EA0068400763000000000000
B0545053208246S11656542EA0068900766000000000000
B0545093208282S11656503EA0069200771000000000000
B0545133208260S11656446EA0069400770000000000000
B0545173208201S11656432EA0068900768000000000000
B0545213208152S11656477EA0069300775000000000000
B0545253208149S11656548EA0070200782000000000000
B0545293208190S11656596EA0070700785000000000000
B0545333208240S11656581EA0070800784000000000000
B0545373208246S11656520EA0070600785000000000000
B0545413208201S11656475EA0071000789000000000000
B0545453208140S11656477EA0071400793000000000000
B0545493208095S11656527EA0071600795000000000000
B0545533208087S11656600EA0071700795000000000000
B0545573208122S11656658EA0071600794000000000000
B0546013208171S11656644EA0071800797000000000000
B0546053208171S11656583EA0072100800000000000000
B0546093208118S11656555EA0072000801000000000000
B0546133208060S11656583EA0072600809000000000000
B0546173208036S11656649EA0073200811000000000000
B0546213208061S11656713EA0073000808000000000000
B0546253208114S11656726EA0072900808000000000000
B0546293208144S11656679EA0072900807000000000000
B0546333208127S11656619EA0073200811000000000000
B0546373208078S11656583EA0073300813000000000000
B0546413208014S11656581EA0073100805000000000000
B0546453207954S11656619EA0072000793000000000000
B0546493207930S11656696EA0070800784000000000000
B0546533207950S11656774EA0069800776000000000000
B0546573207995S11656836EA0069200772000000000000
B0547013208045S11656890EA0068500761000000000000
B0547053208101S11656942EA0067800754000000000000
B0547093208158S11656992EA0066800745000000000000
B0547133208218S11657040EA0066300738000000000000
B0547173208278S11657083EA0065900732000000000000
B0547213208340S11657129EA0064800718000000000000
B0547253208405S11657173EA0063400705000000000000
B0547293208470S11657216EA0062400696000000000000
B0547333208535S11657255EA0062200697000000000000
B0547373208598S11657294EA0061800689000000000000
B0547413208659S11657332EA0060900682000000000000
B0547453208721S11657365EA0060500672000000000000
B0547493208784S11657398EA0059800668000000000000
B0547533208846S11657426EA0059500665000000000000
B0547573208903S11657451EA0059500663000000000000
B0548013208959S11657475EA0058700653000000000000
B0548053209018S11657495EA0057400641000000000000
B0548093209078S11657517EA0056100628000000000000
B0548133209139S11657534EA0055000621000000000000
B0548173209202S11657549EA0054800621000000000000
B0548213209265S11657555EA0055000620000000000000
B0548253209310S11657523EA0054700619000000000000
B0548293209286S11657471EA0055000628000000000000
B0548333209231S11657495EA0055500628000000000000
B0548373209198S11657563EA0055500631000000000000
B0548413209204S11657632EA0055400623000000000000
B0548453209254S11657638EA0054200617000000000000
B0548493209267S11657580EA0053800612000000000000
B0548533209226S11657534EA0052900606000000000000
B0548573209162S11657524EA0052700604000000000000
B0549013209102S11657559EA0053000607000000000000
B0549053209091S11657628EA0053000604000000000000
B0549093209137S11657644EA0052400597000000000000
B0549133209143S11657590EA0052200596000000000000
B0549173209085S11657576EA0052600604000000000000
B0549213209049S11657629EA0052500596000000000000
B0549253209088S11657667EA0051100580000000000000
B0549293209118S11657619EA0050400578000000000000
B0549333209083S11657571EA0051200585000000000000
B0549373209023S11657584EA0051300588000000000000
B0549413208979S11657640EA0051100583000000000000
B0549453208938S11657707EA0049700568000000000000
B0549493208899S11657779EA0049000563000000000000
B0549533208875S11657858EA0049200566000000000000
B0549573208918S11657906EA0049400567000000000000
B0550013208954S11657862EA0049800575000000000000
B0550053208915S11657826EA0051100587000000000000
B0550093208870S11657862EA0051300586000000000000
B0550133208888S11657922EA0051100584000000000000
B0550173208942S11657920EA0050700580000000000000
B0550213208963S11657865EA0050700581000000000000
B0550253208911S11657842EA0050800581000000000000
B0550293208872S11657896EA0050900584000000000000
B0550333208897S11657954EA0051500588000000000000
B0550373208953S11657952EA0051300585000000000000
B0550413208971S11657896EA0051300587000000000000
B0550453208920S11657883EA0052000591000000000000
B0550493208899S11657946EA0052000593000000000000
B0550533208944S11657985EA0052500598000000000000
B0550573208998S11657967EA0052600601000000000000
B0551013208997S11657913EA0053200607000000000000
B0551053208944S11657909EA0053600609000000000000
B0551093208906S11657961EA0053600612000000000000
B0551133208922S11658027EA0054000616000000000000
B0551173208975S11658036EA0054700622000000000000
B0551213208996S11657982EA0054600619000000000000
B0551253208954S11657944EA0054600622000000000000
B0551293208906S11657980EA0055500630000000000000
B0551333208915S11658048EA0055700633000000000000
B0551373208966S11658062EA0056300641000000000000
B0551413208981S11658009EA0056700643000000000000
B0551453208938S11657979EA0057300648000000000000
B0551493208898S11658021EA0057800656000000000000
B0551533208912S11658082EA0058300659000000000000
B0551573208962S11658086EA0058600663000000000000
B0552013208977S11658028EA0059000667000000000000
B0552053208938S11657993EA0059800677000000000000
B0552093208896S11658023EA0060700683000000000000
B0552133208898S11658087EA0060900687000000000000
B0552173208944S11658115EA0061700695000000000000
B0552213208984S11658083EA0062100700000000000000
B0552253208971S11658030EA0062700704000000000000
B0552293208920S11658023EA0063000707000000000000
B0552333208894S11658080EA0063500713000000000000
B0552373208929S11658123EA0064400723000000000000
B0552413208970S11658089EA0064900725000000000000
B0552453208954S11658034EA0065100727000000000000
B0552493208905S11658010EA0065400731000000000000
B0552533208849S11658031EA0065800736000000000000
B0552573208841S11658096EA0066700747000000000000
B0553013208893S11658118EA0067500753000000000000
B0553053208924S11658069EA0068300759000000000000
B0553093208890S11658024EA0068900767000000000000
B0553133208836S11658044EA0069500777000000000000
B0553173208818S11658109EA0070400784000000000000
B0553213208844S11658173EA0070300779000000000000
B0553253208902S11658196EA0070100783000000000000
B0553293208938S11658153EA0071200792000000000000
B0553333208903S11658112EA0071800799000000000000
B0553373208867S11658157EA0072300804000000000000
B0553413208896S11658210EA0072300800000000000000
B0553453208949S11658195EA0072000798000000000000
B0553493208958S11658127EA0071700796000000000000
B0553533208915S11658075EA0072000799000000000000
B0553573208853S11658057EA0072300803000000000000
B0554013208808S11658104EA0073900821000000000000
B0554053208820S11658170EA0074500825000000000000
B0554093208872S11658190EA0074700831000000000000
B0554133208903S11658144EA0075300834000000000000
B0554173208888S11658084EA0075900840000000000000
B0554213208837S11658058EA0076000840000000000000
B0554253208780S11658087EA0075900838000000000000
B0554293208767S11658160EA0076400849000000000000
B0554333208808S11658203EA0077900863000000000000
B0554373208855S11658183EA0078700867000000000000
B0554413208867S11658125EA0079000871000000000000
B0554453208825S11658087EA0079600878000000000000
B0554493208772S11658110EA0079900877000000000000
B0554533208756S11658179EA0080100886000000000000
B0554573208802S11658212EA0081300896000000000000
B0555013208836S11658169EA0081700901000000000000
B0555053208812S11658109EA0082000905000000000000
B0555093208758S11658121EA0082600911000000000000
B0555133208755S11658190EA0083000917000000000000
B0555173208806S11658206EA0084100927000000000000
B0555213208832S11658154EA0084600930000000000000
B0555253208797S11658105EA0085600942000000000000
B0555293208741S11658112EA0085900940000000000000
B0555333208711S11658169EA0086200948000000000000
B0555373208741S11658218EA0087200957000000000000
B0555413208788S11658192EA0087100954000000000000
B0555453208779S11658127EA0087600961000000000000
B0555493208720S11658122EA0088000963000000000000
B0555533208702S11658188EA0088500970000000000000
B0555573208743S11658232EA0089500980000000000000
B0556013208789S11658218EA0090300990000000000000
B0556053208792S11658160EA0090400985000000000000
B0556093208746S11658112EA0090000985000000000000
B0556133208685S11658108EA0090100983000000000000
B0556173208633S11658156EA0090400989000000000000
B0556213208602S11658222EA0090500985000000000000
B0556253208585S11658300EA0089900982000000000000
B0556293208573S11658383EA0089100972000000000000
B0556333208561S11658472EA0088300966000000000000
B0556373208554S11658564EA0087600957000000000000
B0556413208537S11658656EA0087100956000000000000
B0556453208509S11658741EA0086900954000000000000
B0556493208477S11658821EA0086200946000000000000
B0556533208439S11658899EA0085900943000000000000
B0556573208403S11658976EA0086400948000000000000
B0557013208364S11659045EA0086600949000000000000
B0557053208322S11659111EA0086300946000000000000
B0557093208290S11659185EA0085900937000000000000
B0557133208260S11659265EA0084900928000000000000
B0557173208223S11659340EA0085100931000000000000
B0557213208179S11659406EA0084800925000000000000
B0557253208127S11659465EA0083900918000000000000
B0557293208078S11659529EA0083300913000000000000
B0557333208034S11659595EA0082600904000000000000
B0557373208018S11659677EA0081900898000000000000
B0557413208035S11659752EA0081600892000000000000
B0557453208077S11659808EA0080600879000000000000
B0557493208131S11659850EA0079300864000000000000
B0557533208192S11659887EA0078100856000000000000
B0557573208252S11659915EA0077700849000000000000
B0558013208316S11659926EA0076700839000000000000
B0558053208377S11659903EA0075900832000000000000
B0558093208408S11659843EA0076000834000000000000
B0558133208385S11659777EA0075500827000000000000
B0558173208329S11659735EA0073900812000000000000
B0558213208260S11659705EA0072500800000000000000
B0558253208190S11659675EA0071500789000000000000
B0558293208119S11659643EA0071000781000000000000
B0558333208058S11659591EA0070100774000000000000
B0558373208002S11659535EA0070500783000000000000
B0558413207937S11659548EA0070800785000000000000
B0558453207935S11659614EA0070700780000000000000
B0558493207989S11659623EA0069700771000000000000
B0558533208052S11659599EA0069500772000000000000
B0558573208118S11659588EA0070000779000000000000
B0559013208171S11659557EA0070200775000000000000
B0559053208148S11659508EA0069500769000000000000
B0559093208088S11659540EA0069100763000000000000
B0559133208032S11659597EA0068500762000000000000
B0559173207980S11659660EA0069000766000000000000
B0559213207963S11659735EA0068900764000000000000
B0559253208006S11659766EA0068800762000000000000
B0559293208040S11659720EA0068100751000000000000
B0559333208047S11659643EA0066500734000000000000
B0559373208025S11659565EA0065900738000000000000
B0559413207969S11659522EA0066800745000000000000
B0559453207904S11659531EA0066900743000000000000
B0559493207870S11659596EA0066500738000000000000
B0559533207897S11659653EA0066400737000000000000
B0559573207953S11659657EA0066000735000000000000
B0600013208013S11659638EA0065600732000000000000
B0600053208075S11659618EA0065700732000000000000
B0600093208136S11659588EA0065000720000000000000
B0600133208204S11659565EA0064000713000000000000
B0600173208270S11659539EA0064000714000000000000
B0600213208301S11659479EA0064500720000000000000
B0600253208279S11659421EA0065300727000000000000
B0600293208223S11659432EA0065500727000000000000
B0600333208221S11659503EA0065600729000000000000
B0600373208274S11659521EA0065500728000000000000
B0600413208295S11659467EA0065400725000000000000
B0600453208251S11659430EA0065100723000000000000
B0600493208191S11659443EA0064700722000000000000
B0600533208157S11659509EA0064500717000000000000
B0600573208151S11659592EA0063900710000000000000
B0601013208187S11659661EA0063300704000000000000
B0601053208249S11659660EA0063000702000000000000
B0601093208295S11659612EA0062700699000000000000
B0601133208322S11659547EA0062100695000000000000
B0601173208330S11659473EA0061300688000000000000
B0601213208321S11659393EA0060800682000000000000
B0601253208303S11659310EA0060000674000000000000
B0601293208287S11659224EA0058900664000000000000
B0601333208272S11659136EA0058000655000000000000
B0601373208256S11659049EA0057500646000000000000
B0601413208226S11658966EA0056100633000000000000
B0601453208200S11658879EA0055000627000000000000
B0601493208184S11658790EA0055100627000000000000
B0601533208178S11658703EA0054800623000000000000
B0601573208168S11658611EA0053400608000000000000
B0602013208152S11658521EA0053400608000000000000
B0602053208134S11658435EA0052600600000000000000
B0602093208114S11658348EA0052100593000000000000
B0602133208112S11658258EA0051700590000000000000
B0602173208125S11658170EA0051400588000000000000
B0602213208127S11658080EA0051100585000000000000
B0602253208132S11657993EA0051300586000000000000
B0602293208138S11657911EA0051500585000000000000
B0602333208138S11657831EA0050700576000000000000
B0602373208140S11657748EA0049600564000000000000
B0602413208144S11657663EA0048500555000000000000
B0602453208147S11657579EA0048000547000000000000
B0602493208145S11657493EA0047300545000000000000
B0602533208138S11657411EA0047400543000000000000
B0602573208135S11657329EA0046700534000000000000
B0603013208140S11657243EA0045400522000000000000
B0603053208140S11657155EA0045000520000000000000
B0603093208132S11657068EA0044500511000000000000
B0603133208116S11656981EA0043700504000000000000
B0603173208092S11656897EA0043600508000000000000
B0603213208122S11656828EA0044900528000000000000
B0603253208171S11656852EA0047400551000000000000
B0603293208162S11656918EA0048300555000000000000
B0603333208106S11656940EA0048100552000000000000
B0603373208058S11656900EA0048100553000000000000
B0603413208069S11656841EA0049100571000000000000
B0603453208116S11656839EA0050200575000000000000
B0603493208142S11656895EA0050600583000000000000
B0603533208117S11656952EA0051700591000000000000
B0603573208062S11656952EA0051100583000000000000
B0604013208039S11656892EA0051500592000000000000
B0604053208073S11656852EA0052800601000000000000
B0604093208125S11656858EA0052700598000000000000
B0604133208161S11656910EA0052900605000000000000
B0604173208153S11656979EA0053300609000000000000
B0604213208100S11657001EA0053900615000000000000
B0604253208053S11656970EA0053800611000000000000
B0604293208048S11656906EA0053500610000000000000
B0604333208096S11656877EA0053900615000000000000
B0604373208144S11656917EA0054800625000000000000
B0604413208144S11656984EA0056000638000000000000
B0604453208095S11657013EA0056400640000000000000
B0604493208047S11656978EA0056100631000000000000
B0604533208045S11656909EA0055900634000000000000
B0604573208091S11656879EA0056200639000000000000
B0605013208125S11656932EA0057300652000000000000
B0605053208106S11657000EA0058200660000000000000
B0605093208054S11657016EA0058900666000000000000
B0605133208017S11656969EA0058900662000000000000
B0605173208045S11656919EA0059400672000000000000
B0605213208090S11656949EA0060000676000000000000
B0605253208078S11657016EA0060500680000000000000
B0605293208019S11657035EA0060300671000000000000
B0605333207962S11656992EA0059000664000000000000
B0605373207937S11656919EA0059600674000000000000
B0605413207976S11656878EA0061600694000000000000
B0605453208022S11656908EA0062200695000000000000
B0605493208032S11656977EA0061400687000000000000
B0605533208000S11657043EA0061100684000000000000
B0605573207936S11657060EA0061100684000000000000
B0606013207876S11657026EA0061100683000000000000
B0606053207862S11656961EA0061500695000000000000
B0606093207908S11656945EA0063200709000000000000
B0606133207930S11657003EA0063800714000000000000
B0606173207888S11657047EA0064300719000000000000
B0606213207843S11657012EA0064400718000000000000
B0606253207849S11656951EA0064800724000000000000
B0606293207898S11656923EA0064900727000000000000
B0606333207944S11656956EA0066200742000000000000
B0606373207961S11657017EA0067000746000000000000
B0606413207945S11657086EA0066900744000000000000
B0606453207892S11657112EA0067100748000000000000
B0606493207845S11657075EA0066800742000000000000
B0606533207846S11657013EA0066900752000000000000
B0606573207887S11656971EA0067700753000000000000
B0607013207949S11656965EA0067800756000000000000
B0607053208010S11657003EA0067800748000000000000
B0607093208079S11657048EA0066000731000000000000
B0607133208156S11657092EA0064500717000000000000
B0607173208238S11657137EA0062600698000000000000
B0607213208322S11657178EA0060900682000000000000
B0607253208407S11657217EA0059700672000000000000
B0607293208491S11657254EA0058700662000000000000
B0607333208572S11657286EA0058500658000000000000
B0607373208650S11657317EA0058200654000000000000
B0607413208725S11657347EA0057700648000000000000
B0607453208797S11657377EA0057300642000000000000
B0607493208868S11657402EA0056800639000000000000
B0607533208940S11657421EA0056700635000000000000
B0607573209011S11657430EA0056500636000000000000
B0608013209079S11657434EA0057200644000000000000
B0608053209144S11657433EA0057600651000000000000
B0608093209206S11657425EA0058700661000000000000
B0608133209247S11657381EA0060000672000000000000
B0608173209218S11657330EA0060800681000000000000
B0608213209172S11657355EA0061400686000000000000
B0608253209176S11657419EA0061300684000000000000
B0608293209226S11657452EA0061400687000000000000
B0608333209279S11657432EA0062000696000000000000
B0608373209286S11657372EA0063600714000000000000
B0608413209241S11657343EA0064700721000000000000
B0608453209193S11657377EA0065300727000000000000
B0608493209197S11657438EA0066100736000000000000
B0608533209243S11657464EA0066600740000000000000
B0608573209288S11657434EA0066700744000000000000
B0609013209289S11657380EA0068100764000000000000
B0609053209240S11657373EA0068700759000000000000
B0609093209214S11657438EA0068700765000000000000
B0609133209247S11657494EA0069700775000000000000
B0609173209302S11657488EA0069900776000000000000
B0609213209344S11657437EA0070000779000000000000
B0609253209365S11657371EA0070000779000000000000
B0609293209340S11657312EA0070900788000000000000
B0609333209284S11657282EA0071300790000000000000
B0609373209215S11657299EA0071100791000000000000
B0609413209191S11657372EA0071900795000000000000
B0609453209243S11657397EA0072500804000000000000
B0609493209258S11657337EA0073400813000000000000
B0609533209201S11657311EA0073900815000000000000
B0609573209153S11657363EA0074200821000000000000
B0610013209176S11657425EA0075100829000000000000
B0610053209234S11657428EA0075300828000000000000
B0610093209284S11657387EA0075000827000000000000
B0610133209300S11657320EA0075600836000000000000
B0610173209245S11657298EA0076800848000000000000
B0610213209208S11657354EA0078100859000000000000
B0610253209230S11657416EA0078600861000000000000
B0610293209289S11657411EA0078100858000000000000
B0610333209304S11657342EA0079400876000000000000
B0610373209258S11657306EA0082300908000000000000
B0610413209217S11657339EA0083400915000000000000
B0610453209232S11657397EA0083500912000000000000
B0610493209288S11657394EA0082800907000000000000
B0610533209313S11657335EA0084000928000000000000
B0610573209266S11657332EA0085800952000000015000
B0611013209269S11657394EA0087800968000000015000
B0611053209315S11657391EA0089100976000000000000
B0611093209318S11657333EA0090200990000000000000
B0611133209269S11657303EA0091801005000000000000
B0611173209222S11657346EA0093401020000000000000
B0611213209245S11657403EA0094901033000000000000
B0611253209288S11657386EA0096101049000000000000
B0611293209270S11657330EA0097701064000000000000
B0611333209208S11657332EA0098401068000000000000
B0611373209176S11657395EA0099701082000000000000
B0611413209197S11657454EA0100601089000000000000
B0611453209239S11657447EA0100801090000000000000
B0611493209239S11657384EA0100401085000000000000
B0611533209195S11657328EA0101201097000000000000
B0611573209131S11657325EA0102201107000000000000
B0612013209102S11657386EA0102901114000000000000
B0612053209141S11657430EA0103101115000000000000
B0612093209175S11657374EA0103201121000000000000
B0612133209146S11657312EA0104501135000000000000
B0612173209088S11657299EA0105901144000000000000
B0612213209028S11657319EA0106201149000000000000
B0612253208977S11657368EA0106101139000000000000
B0612293208977S11657449EA0105301138000000000000
B0612333209020S11657511EA0105301139000000000000
B0612373209081S11657520EA0106001149000000000000
B0612413209130S11657480EA0106401150000000000000
B0612453209175S11657424EA0106001147000000000000
B0612493209219S11657363EA0106001149000000000000
B0612533209261S11657296EA0106701153000000000000
B0612573209243S11657221EA0107401161000000000000
B0613013209182S11657228EA0107301157000000000000
B0613053209189S11657304EA0105901154000000000000
B0613093209232S11657378EA0105801158000000000000
B0613133209278S11657446EA0107301176000000000000
B0613173209334S11657480EA0109601196000000000000
B0613213209351S11657428EA0110601202000000000000
B0613253209297S11657397EA0111301209000000000000
B0613293209236S11657429EA0112401224000000000000
B0613333209239S11657499EA0114001232000000000000
B0613373209291S11657510EA0114501239000000000000
B0613413209299S11657456EA0115701253000000000000
B0613453209247S11657426EA0116601260000000000000
B0613493209198S11657475EA0117601272000000000000
B0613533209217S11657540EA0118401276000000000000
B0613573209266S11657542EA0118601278000000000000
B0614013209271S11657485EA0119401287000000000000
B0614053209222S11657451EA0120201294000000000000
B0614093209167S11657486EA0120501296000000000000
B0614133209165S11657563EA0120601297000000000000
B0614173209208S11657608EA0120301293000000000000
B0614213209263S11657593EA0119701282000000000000
B0614253209289S11657528EA0118801276000000000000
B0614293209273S11657455EA0119101286000000000000
B0614333209221S11657410EA0119801290000000000000
B0614373209150S11657397EA0120201298000000000000
B0614413209111S11657447EA0121201307000000000000
B0614453209162S11657484EA0121101306000000000000
B0614493209204S11657432EA0121401309000000000000
B0614533209179S11657364EA0122001317000000000000
B0614573209113S11657337EA0123401333000000000000
B0615013209055S11657371EA0125301348000000000000
B0615053209074S11657438EA0126301359000000000000
B0615093209126S11657416EA0126801361000000000000
B0615133209123S11657343EA0127101369000000000000
B0615173209070S11657302EA0128301389000000000000
B0615213209010S11657333EA0129801397000000000000
B0615253209007S11657408EA0130601407000000000000
B0615293209061S11657423EA0131701414000000000000
B0615333209087S11657364EA0131601412000000000000
B0615373209046S11657303EA0132201424000000000000
B0615413208985S11657326EA0133301431000000000000
B0615453208989S11657395EA0134001439000000000000
B0615493209041S11657391EA0134801446000000000000
B0615533209048S11657326EA0135201451000000000000
B0615573208990S11657298EA0136101461000000000000
B0616013208937S11657342EA0136801466000000000000
B0616053208945S11657412EA0136801462000000000000
B0616093209002S11657413EA0135901455000000000000
B0616133209029S11657350EA0136901468000000000000
B0616173209005S11657283EA0137401470000000000000
B0616213208941S11657257EA0137501469000000000000
B0616253208871S11657280EA0137301466000000000000
B0616293208808S11657332EA0136401455000000000000
B0616333208754S11657395EA0135201439000000000000
B0616373208703S11657469EA0133801427000000000000
B0616413208682S11657556EA0133101424000000000000
B0616453208724S11657620EA0133001422000000000000
B0616493208789S11657642EA0132201412000000000000
B0616533208860S11657644EA0131301404000000000000
B0616573208932S11657637EA0130701400000000000000
B0617013209001S11657619EA0130201391000000000000
B0617053209062S11657580EA0129201378000000000000
B0617093209111S11657523EA0128701378000000000000
B0617133209124S11657443EA0129801396000000000000
B0617173209084S11657386EA0132701420000000000000
B0617213209023S11657407EA0132801417000000000000
B0617253209036S11657482EA0133301427000000000000
B0617293209092S11657477EA0134501438000000000000
B0617333209094S11657413EA0135701448000000000000
B0617373209028S11657395EA0135801451000000000000
B0617413209002S11657465EA0136901463000000000000
B0617453209053S11657506EA0137101464000000000000
B0617493209094S11657460EA0137801471000000000000
B0617533209062S11657399EA0139101486000000000000
B0617573208998S11657407EA0139401487000000000000
B0618013208992S11657477EA0139701495000000000000
B0618053209040S11657511EA0139101484000000000000
B0618093209093S11657473EA0138601483000000000000
B0618133209092S11657402EA0139601494000000000000
B0618173209024S11657391EA0140101497000000000000
B0618213208990S11657458EA0139801494000000000000
B0618253209020S11657524EA0138801479000000000000
B0618293209089S11657547EA0137701471000000000000
B0618333209152S11657517EA0138201483000000000000
B0618373209192S11657456EA0139301493000000000000
B0618413209184S11657386EA0139401483000000000000
B0618453209123S11657345EA0137301461000000000000
B0618493209050S11657317EA0136201453000000000000
B0618533208975S11657296EA0134801437000000000000
B0618573208897S11657283EA0134601443000000000000
B0619013208821S11657298EA0135101448000000000000
B0619053208753S11657328EA0135401443000000000000
B0619093208684S11657363EA0133901431000000000000
B0619133208617S11657406EA0132901418000000000000
B0619173208551S11657455EA0132001411000000000000
B0619213208483S11657499EA0131601407000000000000
B0619253208412S11657528EA0131401407000000000000
B0619293208340S11657542EA0131601407000000000000
B0619333208269S11657542EA0131701406000000000000
B0619373208199S11657533EA0131601405000000000000
B0619413208130S11657524EA0131501403000000000000
B0619453208060S11657521EA0131101399000000000000
B0619493207991S11657524EA0130701394000000000000
B0619533207919S11657528EA0130201391000000000000
B0619573207852S11657511EA0130101390000000000000
B0620013207794S11657472EA0129901389000000000000
B0620053207745S11657425EA0130101391000000000000
B0620093207697S11657378EA0129801386000000000000
B0620133207648S11657330EA0129101380000000000000
B0620173207597S11657282EA0128901376000000000000
B0620213207544S11657238EA0128601372000000000000
B0620253207490S11657198EA0128201367000000000000
B0620293207437S11657153EA0127501357000000000000
B0620333207389S11657096EA0126701351000000000000
B0620373207354S11657029EA0126201346000000000000
B0620413207329S11656956EA0125501339000000000000
B0620453207306S11656884EA0125001334000000000000
B0620493207282S11656814EA0124501331000000000000
B0620533207259S11656745EA0124101324000000000000
B0620573207235S11656675EA0123401315000000000000
B0621013207212S11656604EA0122601312000000000000
B0621053207182S11656532EA0122301307000000000000
B0621093207151S11656461EA0122201307000000000000
B0621133207122S11656386EA0121301297000000000000
B0621173207095S11656310EA0120201286000000000000
B0621213207068S11656233EA0119701285000000000000
B0621253207043S11656156EA0119701283000000000000
B0621293207021S11656080EA0119701283000000000000
B0621333206998S11656003EA0119801285000000000000
B0621373206969S11655930EA0120401291000000000000
B0621413206923S11655876EA0120601292000000000000
B0621453206858S11655859EA0121001292000000000000
B0621493206796S11655883EA0120401286000000000000
B0621533206761S11655946EA0119901281000000000000
B0621573206769S11656016EA0119201274000000000000
B0622013206812S11656061EA0118301266000000000000
B0622053206866S11656076EA0117801260000000000000
B0622093206921S11656065EA0117301256000000000000
B0622133206973S11656034EA0116901250000000000000
B0622173207022S11655991EA0116601248000000000000
B0622213207057S11655933EA0117101255000000000000
B0622253207026S11655876EA0118301267000000000000
B0622293206964S11655882EA0118701275000000000000
B0622333206942S11655943EA0119201281000000000000
B0622373206977S11655985EA0119301280000000000000
B0622413207029S11655974EA0119501282000000000000
B0622453207061S11655924EA0119601283000000000000
B0622493207052S11655855EA0119901288000000000000
B0622533206996S11655827EA0120701297000000000000
B0622573206944S11655864EA0120901298000000000000
B0623013206943S11655929EA0121101299000000000000
B0623053206990S11655957EA0121401302000000000000
B0623093207033S11655925EA0121801307000000000000
B0623133207033S11655861EA0122501317000000000000
B0623173206992S11655818EA0123401321000000000000
B0623213206936S11655821EA0123001312000000000000
B0623253206899S11655874EA0122301312000000000000
B0623293206899S11655935EA0123301321000000000000
B0623333206933S11655977EA0123101319000000000000
B0623373206982S11655976EA0123301321000000000000
B0623413207017S11655930EA0123501323000000000000
B0623453207007S11655868EA0123901326000000000000
B0623493206953S11655842EA0124101328000000000000
B0623533206900S11655876EA0124401331000000000000
B0623573206888S11655942EA0124301331000000000000
B0624013206927S11655987EA0124501333000000000000
B0624053206982S11655985EA0124601332000000000000
B0624093207031S11655951EA0124501332000000000000
B0624133207064S11655898EA0124901336000000000000
B0624173207078S11655831EA0124901336000000000000
B0624213207079S11655759EA0124101325000000000000
B0624253207072S11655683EA0122801309000000000000
B0624293207056S11655604EA0121501297000000000000
B0624333207038S11655523EA0120401285000000000000
B0624373207016S11655437EA0119101273000000000000
B0624413206992S11655349EA0118301267000000000000
B0624453206968S11655261EA0117801264000000000000
B0624493206943S11655176EA0117601261000000000000
B0624533206921S11655092EA0117301258000000000000
B0624573206896S11655010EA0116901254000000000000
B0625013206873S11654928EA0116501247000000000000
B0625053206849S11654846EA0116001242000000000000
B0625093206825S11654764EA0115501238000000000000
B0625133206799S11654683EA0115401236000000000000
B0625173206775S11654607EA0115101232000000000000
B0625213206754S11654531EA0114601227000000000000
B0625253206731S11654455EA0113801219000000000000
B0625293206704S11654381EA0113701220000000000000
B0625333206678S11654312EA0113701222000000000000
B0625373206650S11654243EA0114001223000000000000
B0625413206621S11654174EA0113501216000000000000
B0625453206593S11654101EA0112801210000000000000
B0625493206569S11654028EA0112501207000000000000
B0625533206540S11653958EA0111901201000000000000
B0625573206511S11653885EA0111601197000000000000
B0626013206483S11653814EA0111301194000000000000
B0626053206455S11653745EA0111401193000000000000
B0626093206427S11653679EA0111001190000000000000
B0626133206392S11653615EA0110601186000000000000
B0626173206359S11653550EA0110201182000000000000
B0626213206331S11653486EA0109601175000000000000
B0626253206301S11653420EA0109001170000000000000
B0626293206268S11653352EA0108801168000000000000
B0626333206234S11653287EA0108601167000000000000
B0626373206199S11653225EA0108801170000000000000
B0626413206155S11653172EA0108801167000000000000
B0626453206107S11653114EA0108501166000000000000
B0626493206069S11653052EA0109101173000000000000
B0626533206045S11652983EA0109201171000000000000
B0626573206030S11652913EA0108601166000000000000
B0627013206020S11652840EA0108601170000000000000
B0627053206011S11652769EA0108601169000000000000
B0627093206004S11652696EA0108601170000000000000
B0627133205998S11652622EA0108501167000000000000
B0627173205998S11652544EA0107901160000000000000
B0627213206006S11652467EA0107401158000000000000
B0627253206020S11652393EA0107701163000000000000
B0627293206000S11652325EA0108401169000000000000
B0627333205939S11652329EA0109201176000000000000
B0627373205921S11652389EA0110001185000000000000
B0627413205958S11652431EA0109701180000000000000
B0627453206011S11652414EA0109501179000000000000
B0627493206051S11652363EA0109401177000000000000
B0627533206056S11652289EA0109201177000000000000
B0627573206008S11652250EA0109301181000000000000
B0628013205954S11652285EA0108901177000000000000
B0628053205908S11652343EA0108701176000000000000
B0628093205864S11652407EA0108501172000000000000
B0628133205842S11652484EA0108301173000000000000
B0628173205874S11652542EA0108401172000000000000
B0628213205933S11652540EA0108001166000000000000
B0628253205977S11652488EA0106901156000000000000
B0628293206010S11652416EA0106501155000000000000
B0628333206041S11652345EA0106701160000000000000
B0628373206067S11652272EA0107301165000000000000
B0628413206089S11652199EA0107201156000000000000
B0628453206114S11652122EA0105801142000000000000
B0628493206146S11652047EA0104701130000000000000
B0628533206185S11651976EA0104101126000000000000
B0628573206221S11651905EA0104001123000000000000
B0629013206247S11651829EA0103501118000000000000
B0629053206266S11651752EA0103201116000000000000
B0629093206296S11651684EA0103201114000000000000
B0629133206341S11651632EA0102801108000000000000
B0629173206402S11651614EA0102001100000000000000
B0629213206465S11651638EA0101201092000000000000
B0629253206513S11651691EA0101001091000000000000
B0629293206546S11651756EA0100701088000000000000
B0629333206576S11651825EA0100301085000000000000
B0629373206602S11651896EA0100001080000000000000
B0629413206630S11651966EA0100001087000000000000
B0629453206671S11652020EA0100701093000000000000
B0629493206728S11652012EA0101501099000000000000
B0629533206745S11651943EA0101501098000000000000
B0629573206702S11651885EA0101501102000000000000
B0630013206637S11651873EA0101801105000000000000
B0630053206591S11651916EA0102301114000000000000
B0630093206580S11651977EA0103001118000000000000
B0630133206610S11652021EA0102501110000000000000
B0630173206666S11652026EA0102501112000000000000
B0630213206704S11651977EA0102801114000000000000
B0630253206687S11651909EA0102201108000000000000
B0630293206624S11651878EA0101901108000000000000
B0630333206562S11651907EA0102601115000000000000
B0630373206541S11651972EA0102901118000000000000
B0630413206575S11652025EA0102401110000000000000
B0630453206623S11652076EA0101901106000000000000
B0630493206680S11652111EA0102801117000000000000
B0630533206731S11652083EA0103901124000000000000
B0630573206736S11652017EA0103901126000000000000
B0631013206684S11651976EA0104201133000000000000
B0631053206623S11651992EA0104401128000000000000
B0631093206600S11652059EA0104201133000000000000
B0631133206635S11652106EA0105201143000000000000
B0631173206683S11652081EA0106001147000000000000
B0631213206692S11652018EA0106301151000000000000
B0631253206645S11651978EA0106901164000000000000
B0631293206592S11651998EA0107301164000000000000
B0631333206567S11652056EA0107701170000000000000
B0631373206598S11652099EA0108001170000000000000
B0631413206647S11652072EA0107801170000000000000
B0631453206636S11652004EA0108201176000000000000
B0631493206578S11651995EA0108901181000000000000
B0631533206558S11652056EA0109301184000000000000
B0631573206601S11652094EA0109601188000000000000
B0632013206653S11652070EA0110101194000000000000
B0632053206670S11652008EA0110901202000000000000
B0632093206637S11651953EA0111301204000000000000
B0632133206579S11651935EA0111001196000000000000
B0632173206524S11651969EA0110401192000000000000
B0632213206515S11652039EA0110501195000000000000
B0632253206553S11652081EA0111501207000000000000
B0632293206591S11652051EA0112801218000000000000
B0632333206576S11651994EA0112801222000000000000
B0632373206520S11651979EA0113101224000000000000
B0632413206475S11652021EA0112901220000000000000
B0632453206470S11652087EA0113001227000000000000
B0632493206505S11652126EA0113701228000000000000
B0632533206554S11652113EA0112901220000000000000
B0632573206593S11652064EA0113001226000000000000
B0633013206588S11652003EA0113901233000000000000
B0633053206532S11651987EA0114001231000000000000
B0633093206491S11652039EA0113601228000000000000
B0633133206498S11652111EA0113501229000000000000
B0633173206541S11652159EA0113801228000000000000
B0633213206601S11652146EA0113701228000000000000
B0633253206634S11652086EA0113601228000000000000
B0633293206624S11652012EA0113501225000000000000
B0633333206571S11651964EA0113101227000000000000
B0633373206506S11651972EA0113901233000000000000
B0633413206465S11652029EA0114101235000000000000
B0633453206478S11652094EA0114801244000000000000
B0633493206531S11652108EA0115201246000000000000
B0633533206570S11652059EA0115401249000000000000
B0633573206557S11651991EA0115901255000000000000
B0634013206502S11651959EA0116001254000000000000
B0634053206440S11651977EA0115701248000000000000
B0634093206402S11652042EA0115201247000000000000
B0634133206403S11652119EA0115901252000000000000
B0634173206441S11652176EA0116001253000000000000
B0634213206496S11652204EA0115701246000000000000
B0634253206558S11652197EA0114401237000000000000
B0634293206623S11652182EA0113901231000000000000
B0634333206686S11652187EA0113401228000000000000
B0634373206745S11652216EA0112801220000000000000
B0634413206796S11652267EA0112001211000000000000
B0634453206840S11652328EA0111301203000000000000
B0634493206878S11652393EA0110701199000000000000
B0634533206912S11652458EA0110601196000000000000
B0634573206942S11652525EA0110401192000000000000
B0635013206973S11652590EA0109601185000000000000
B0635053207008S11652655EA0109501188000000000000
B0635093207051S11652702EA0110501195000000000000
B0635133207102S11652689EA0110701194000000000000
B0635173207122S11652624EA0109601182000000000000
B0635213207091S11652563EA0109701189000000000000
B0635253207040S11652544EA0110301191000000000000
B0635293206992S11652574EA0109201179000000000000
B0635333206960S11652635EA0108601176000000000000
B0635373206933S11652701EA0109001184000000000000
B0635413206939S11652761EA0109801186000000000000
B0635453206990S11652759EA0108901173000000000000
B0635493206994S11652694EA0108501178000000000000
B0635533206948S11652663EA0109601184000000000000
B0635573206897S11652687EA0109501184000000000000
B0636013206869S11652743EA0109801186000000000000
B0636053206883S11652800EA0110001188000000000000
B0636093206931S11652821EA0109601182000000000000
B0636133206970S11652780EA0108801176000000000000
B0636173206969S11652718EA0108601174000000000000
B0636213206923S11652676EA0108001170000000000000
B0636253206861S11652668EA0107901171000000000000
B0636293206803S11652691EA0108501178000000000000
B0636333206762S11652735EA0109001182000000000000
B0636373206749S11652792EA0109301183000000000000
B0636413206764S11652849EA0109501186000000000000
B0636453206803S11652884EA0109201181000000000000
B0636493206856S11652883EA0108401173000000000000
B0636533206894S11652834EA0107701168000000000000
B0636573206884S11652763EA0107401165000000000000
B0637013206844S11652702EA0106801159000000000000
B0637053206795S11652639EA0106301155000000000000
B0637093206747S11652576EA0105901149000000000000
B0637133206692S11652519EA0105101138000000000000
B0637173206632S11652467EA0104301132000000000000
B0637213206578S11652414EA0104201133000000000000
B0637253206528S11652366EA0104801135000000000000
B0637293206483S11652316EA0103901125000000000000
B0637333206441S11652260EA0102901115000000000000
B0637373206396S11652204EA0102101103000000000000
B0637413206342S11652150EA0101101095000000000000
B0637453206292S11652091EA0100701095000000000000
B0637493206251S11652030EA0101301100000000000000
B0637533206201S11651982EA0101501104000000000000
B0637573206140S11651985EA0102001108000000000000
B0638013206086S11652022EA0101601100000000000000
B0638053206054S11652086EA0101101096000000000000
B0638093206056S11652160EA0100701091000000000000
B0638133206078S11652233EA0099801084000000000000
B0638173206108S11652304EA0099101076000000000000
B0638213206137S11652376EA0098501073000000000000
B0638253206167S11652449EA0097801063000000000000
B0638293206197S11652523EA0096601053000000000000
B0638333206227S11652598EA0095801047000000000000
B0638373206257S11652672EA0095301041000000000000
B0638413206286S11652746EA0094801037000000000000
B0638453206316S11652819EA0094301030000000000000
B0638493206346S11652892EA0093901027000000000000
B0638533206375S11652964EA0093501020000000000000
B0638573206400S11653036EA0092801012000000000000
B0639013206424S11653110EA0091601002000000000000
B0639053206448S11653182EA0091601001000000000000
B0639093206470S11653252EA0091100995000000000000
B0639133206493S11653321EA0090200986000000000000
B0639173206520S11653393EA0089500977000000000000
B0639213206549S11653463EA0088800971000000000000
B0639253206578S11653534EA0088000962000000000000
B0639293206605S11653610EA0087100953000000000000
B0639333206631S11653688EA0086000943000000000000
B0639373206654S11653767EA0085200935000000000000
B0639413206679S11653844EA0084800932000000000000
B0639453206702S11653918EA0084200924000000000000
B0639493206726S11653994EA0083100913000000000000
B0639533206749S11654072EA0082400903000000000000
B0639573206775S11654149EA0081400894000000000000
B0640013206805S11654226EA0080600883000000000000
B0640053206835S11654305EA0079400872000000000000
B0640093206866S11654386EA0078800868000000000000
B0640133206897S11654464EA0078800869000000000000
B0640173206927S11654540EA0078700867000000000000
B0640213206957S11654616EA0078100862000000000000
B0640253206986S11654690EA0077900860000000000000
B0640293207014S11654761EA0077800858000000000000
B0640333207043S11654832EA0077600856000000000000
B0640373207072S11654899EA0077400852000000000000
B0640413207099S11654971EA0076600842000000000000
B0640453207129S11655041EA0075700835000000000000
B0640493207160S11655109EA0075100827000000000000
B0640533207190S11655176EA0074300823000000000000
B0640573207221S11655244EA0074000817000000000000
B0641013207255S11655310EA0073600815000000000000
B0641053207289S11655376EA0073900817000000000000
B0641093207325S11655434EA0073900816000000000000
B0641133207367S11655487EA0073000805000000000000
B0641173207408S11655544EA0072100799000000000000
B0641213207447S11655605EA0071400792000000000000
B0641253207484S11655671EA0070800784000000000000
B0641293207520S11655739EA0071100789000000000000
B0641333207567S11655792EA0070600783000000000000
B0641373207618S11655837EA0070100779000000000000
B0641413207668S11655881EA0070400780000000000000
B0641453207728S11655895EA0070300780000000000000
B0641493207783S11655873EA0070000773000000000000
B0641533207832S11655830EA0069000761000000000000
B0641573207892S11655805EA0068200757000000000000
B0642013207952S11655813EA0068700766000000000000
B0642053208006S11655827EA0069500771000000000000
B0642093208052S11655800EA0069100763000000000000
B0642133208048S11655736EA0068000755000000000000
B0642173207992S11655701EA0067900758000000000000
B0642213207931S11655726EA0068100762000000000000
B0642253207896S11655791EA0067800754000000000000
B0642293207879S11655870EA0067200752000000000000
B0642333207867S11655951EA0066600743000000000000
B0642373207861S11656032EA0065600733000000000000
B0642413207857S11656115EA0064800725000000000000
B0642453207861S11656198EA0064200721000000000000
B0642493207869S11656279EA0064200721000000000000
B0642533207883S11656357EA0063600716000000000000
B0642573207902S11656432EA0063100709000000000000
B0643013207923S11656503EA0062600701000000000000
B0643053207947S11656574EA0061900693000000000000
B0643093207975S11656640EA0060800684000000000000
B0643133208012S11656702EA0060100676000000000000
B0643173208056S11656760EA0058900662000000000000
B0643213208109S11656813EA0057400652000000000000
B0643253208166S11656860EA0057000648000000000000
B0643293208222S11656900EA0056500641000000000000
B0643333208278S11656939EA0056200638000000000000
B0643373208334S11656977EA0056600644000000000000
B0643413208392S11656988EA0057500654000000000000
B0643453208424S11656940EA0058100654000000000000
B0643493208396S11656879EA0057200643000000000000
B0643533208335S11656869EA0056900647000000000000
B0643573208278S11656904EA0056900647000000000000
B0644013208252S11656969EA0057200648000000000000
B0644053208299S11657000EA0057300652000000000000
B0644093208320S11656948EA0058200664000000000000
B0644133208279S11656908EA0058800671000000000000
B0644173208230S11656942EA0059500676000000000000
B0644213208243S11657003EA0059600678000000000000
B0644253208292S11656995EA0060000681000000000000
B0644293208292S11656935EA0060900689000000000000
B0644333208242S11656910EA0061200693000000000000
B0644373208190S11656949EA0061700701000000000000
B0644413208181S11657017EA0062500706000000000000
B0644453208222S11657056EA0062600709000000000000
B0644493208266S11657022EA0062800709000000000000
B0644533208260S11656955EA0062900714000000000000
B0644573208209S11656913EA0063500718000000000000
B0645013208143S11656921EA0063900723000000000000
B0645053208097S11656974EA0063700718000000000000
B0645093208106S11657040EA0063400714000000000000
B0645133208158S11657062EA0063200715000000000000
B0645173208212S11657033EA0063300716000000000000
B0645213208238S11656973EA0063500717000000000000
B0645253208209S11656913EA0064200727000000000000
B0645293208153S11656935EA0064900730000000000000
B0645333208161S11656999EA0065100736000000000000
B0645373208208S11656990EA0065900743000000000000
B0645413208195S11656931EA0066300750000000000000
B0645453208134S11656926EA0066800752000000000000
B0645493208100S11656987EA0066800748000000000000
B0645533208143S11657030EA0066000739000000000000
B0645573208181S11656975EA0066300751000000000000
B0646013208142S11656931EA0068900776000000000000
B0646053208087S11656956EA0069400772000000000000
B0646093208073S11657023EA0068800768000000000000
B0646133208112S11657069EA0069400776000000000000
B0646173208161S11657048EA0069400774000000000000
B0646213208153S11656988EA0070200785000000000000
B0646253208099S11657001EA0071100794000000000000
B0646293208097S11657064EA0072000805000000000000
B0646333208143S11657068EA0072500807000000000000
B0646373208151S11657009EA0072400806000000000000
B0646413208099S11656979EA0073400819000000000000
B0646453208044S11657014EA0074100825000000000000
B0646493208035S11657083EA0074400830000000000000
B0646533208073S11657127EA0074800830000000000000
B0646573208126S11657112EA0074100826000000000000
B0647013208136S11657044EA0074300832000000000000
B0647053208092S11656999EA0075800848000000000000
B0647093208034S11657012EA0076800853000000000000
B0647133207997S11657072EA0077100856000000000000
B0647173208013S11657134EA0077400857000000000000
B0647213208064S11657142EA0077400860000000000000
B0647253208093S11657091EA0077200857000000000000
B0647293208062S11657035EA0078100870000000000000
B0647333208004S11657044EA0079300878000000000000
B0647373207986S11657107EA0079300880000000000000
B0647413208021S11657150EA0079600881000000000000
B0647453208070S11657129EA0079200876000000000000
B0647493208084S11657065EA0079400885000000000000
B0647533208052S11657014EA0080700896000000000000
B0647573207992S11657016EA0081300901000000000000
B0648013207949S11657069EA0081500905000000000000
B0648053207953S11657134EA0082200912000000000000
B0648093207995S11657165EA0082200912000000000000
B0648133208038S11657134EA0081900908000000000000
B0648173208031S11657068EA0082000909000000000000
B0648213207984S11657020EA0082400917000000000000
B0648253207937S11657062EA0083400926000000000000
B0648293207962S11657113EA0084100933000000000000
B0648333208004S11657086EA0084800940000000000000
B0648373207987S11657027EA0085300946000000000000
B0648413207930S11657022EA0086400957000000000000
B0648453207897S11657078EA0087100962000000000000
B0648493207924S11657126EA0087500966000000000000
B0648533207970S11657114EA0087900970000000000000
B0648573207980S11657060EA0088200971000000000000
B0649013207947S11657005EA0088300974000000000000
B0649053207884S11656997EA0088600975000000000000
B0649093207826S11657029EA0088300969000000000000
B0649133207784S11657092EA0087800967000000000000
B0649173207779S11657164EA0088000972000000000000
B0649213207811S11657218EA0088400975000000000000
B0649253207859S11657250EA0088100972000000000000
B0649293207915S11657268EA0087500966000000000000
B0649333207978S11657278EA0086100951000000000000
B0649373208049S11657293EA0085100943000000000000
B0649413208123S11657304EA0085000943000000000000
B0649453208194S11657312EA0085000942000000000000
B0649493208265S11657321EA0085200943000000000000
B0649533208335S11657334EA0085100939000000000000
B0649573208407S11657345EA0084300932000000000000
B0650013208478S11657356EA0084500937000000000000
B0650053208546S11657367EA0085700951000000000000
B0650093208607S11657368EA0086400954000000000000
B0650133208669S11657368EA0085900946000000000000
B0650173208737S11657380EA0084800933000000000000
B0650213208806S11657404EA0083400922000000000000
B0650253208876S11657432EA0082800917000000000000
B0650293208945S11657455EA0082600915000000000000
B0650333209014S11657477EA0082400914000000000000
B0650373209083S11657495EA0082600917000000000000
B0650413209146S11657516EA0082800917000000000000
B0650453209209S11657537EA0083500925000000000000
B0650493209248S11657590EA0084600938000000000000
B0650533209228S11657654EA0086600967000000000000
B0650573209174S11657654EA0088300971000000000000
B0651013209148S11657593EA0088500974000000000000
B0651053209172S11657541EA0088600972000000000000
B0651093209223S11657543EA0088600980000000000000
B0651133209253S11657593EA0090100994000000000000
B0651173209239S11657657EA0091201006000000000000
B0651213209187S11657676EA0092201015000000000000
B0651253209150S11657616EA0093601033000000000000
B0651293209175S11657563EA0095501049000000000000
B0651333209227S11657571EA0096001055000000000000
B0651373209248S11657628EA0097301065000000000000
B0651413209214S11657681EA0097501069000000000000
B0651453209154S11657676EA0098701087000000000000
B0651493209132S11657611EA0100501101000000000000
B0651533209169S11657562EA0101901117000000000000
B0651573209215S11657573EA0103501129000000000000
B0652013209228S11657628EA0103501125000000000000
B0652053209183S11657671EA0102701119000000000000
B0652093209120S11657646EA0103801134000000000000
B0652133209105S11657577EA0105801156000000000000
B0652173209146S11657540EA0107201166000000000000
B0652213209189S11657571EA0107301165000000000000
B0652253209183S11657632EA0108001176000000000000
B0652293209137S11657660EA0109101186000000000000
B0652333209094S11657620EA0109801193000000000000
B0652373209110S11657563EA0110901205000000000000
B0652413209158S11657555EA0111601211000000000000
B0652453209185S11657602EA0111801210000000000000
B0652493209153S11657655EA0111301203000000000000
B0652533209094S11657649EA0112201218000000000000
B0652573209098S11657582EA0113001223000000000000
B0653013209149S11657594EA0113901234000000000000
B0653053209144S11657655EA0114901243000000000000
B0653093209100S11657685EA0116501262000000000000
B0653133209046S11657671EA0116901261000000000000
B0653173209007S11657611EA0117001265000000000000
B0653213209024S11657551EA0118601283000000000000
B0653253209071S11657556EA0119201285000000000000
B0653293209078S11657616EA0119101283000000000000
B0653333209018S11657638EA0119501292000000000000
B0653373208987S11657581EA0121001307000000000000
B0653413209020S11657541EA0121901313000000000000
B0653453209059S11657577EA0121601305000000000000
B0653493209037S11657642EA0122301321000000000000
B0653533208980S11657657EA0123301328000000000000
B0653573208945S11657601EA0124301336000000000000
B0654013208970S11657543EA0124901344000000000000
B0654053209016S11657550EA0125701351000000000000
B0654093209024S11657611EA0125601348000000000000
B0654133208979S11657662EA0125701350000000000000
B0654173208915S11657641EA0125801353000000000000
B0654213208885S11657567EA0126801363000000000000
B0654253208899S11657495EA0127701373000000000000
B0654293208945S11657462EA0128001368000000000000
B0654333209003S11657475EA0126001345000000000000
B0654373209061S11657534EA0124301336000000000000
B0654413209111S11657610EA0124401340000000000000
B0654453209154S11657690EA0124701345000000000000
B0654493209192S11657768EA0125701352000000000000
B0654533209228S11657845EA0125801353000000000000
B0654573209266S11657919EA0125801353000000000000
B0655013209305S11657996EA0125101342000000000000
B0655053209345S11658074EA0124001336000000000000
B0655093209383S11658153EA0123801334000000000000
B0655133209421S11658231EA0123701331000000000000
B0655173209456S11658308EA0123501330000000000000
B0655213209490S11658385EA0123301328000000000000
B0655253209521S11658463EA0122901322000000000000
B0655293209552S11658542EA0122301318000000000000
B0655333209583S11658621EA0122101316000000000000
B0655373209616S11658699EA0121101305000000000000
B0655413209652S11658775EA0120301297000000000000
B0655453209691S11658846EA0120401296000000000000
B0655493209731S11658915EA0119901292000000000000
B0655533209772S11658981EA0119501286000000000000
B0655573209813S11659045EA0119101285000000000000
B0656013209856S11659107EA0118501275000000000000
B0656053209904S11659170EA0117601270000000000000
B0656093209955S11659226EA0118401276000000000000
B0656133210004S11659279EA0118301277000000000000
B0656173210055S11659330EA0118201274000000000000
B0656213210103S11659382EA0118001271000000000000
B0656253210150S11659438EA0117801268000000000000
B0656293210197S11659492EA0117701272000000000000
B0656333210244S11659547EA0117701268000000000000
B0656373210279S11659617EA0117001266000000000000
B0656413210300S11659696EA0118001278000000000000
B0656453210340S11659744EA0119801298000000000000
B0656493210378S11659711EA0120601302000000000000
B0656533210357S11659651EA0120701303000000000000
B0656573210300S11659668EA0121601315000000000000
B0657013210298S11659735EA0122801326000000000000
B0657053210345S11659752EA0123001326000000000000
B0657093210379S11659705EA0123101327000000000000
B0657133210358S11659648EA0123501335000000000000
B0657173210297S11659647EA0123201328000000000000
B0657213210250S11659707EA0123901344000000000000
B0657253210279S11659753EA0125901359000000000000
B0657293210326S11659735EA0125401349000000000000
B0657333210352S11659674EA0125201347000000000000
B0657373210346S11659604EA0125301351000000000000
B0657413210297S11659570EA0126101361000000000000
B0657453210242S11659596EA0127001367000000000000
B0657493210192S11659640EA0126401359000000000000
B0657533210140S11659690EA0125901352000000000000
B0657573210085S11659743EA0125401351000000000000
B0658013210030S11659799EA0125201346000000000000
B0658053209973S11659863EA0124001334000000000000
B0658093209913S11659928EA0123601332000000000000
B0658133209852S11659991EA0123201325000000000000
B0658173209794S11700056EA0122501324000000000000
B0658213209735S11700120EA0122501322000000000000
B0658253209676S11700177EA0122901328000000000000
B0658293209617S11700232EA0123501330000000000000
B0658333209557S11700286EA0122601315000000000000
B0658373209494S11700342EA0121701315000000000000
B0658413209443S11700405EA0122301319000000000000
B0658453209405S11700476EA0122201315000000000000
B0658493209371S11700549EA0121801311000000000000
B0658533209336S11700622EA0121501311000000000000
B0658573209300S11700692EA0121401310000000000000
B0659013209261S11700761EA0121301308000000000000
B0659053209217S11700829EA0120901304000000000000
B0659093209171S11700897EA0120701302000000000000
B0659133209126S11700965EA0120701301000000000000
B0659173209079S11701034EA0120701302000000000000
B0659213209031S11701102EA0120701303000000000000
B0659253208989S11701173EA0120901306000000000000
B0659293208950S11701245EA0121101304000000000000
B0659333208914S11701321EA0120801301000000000000
B0659373208883S11701403EA0120901302000000000000
B0659413208844S11701486EA0120501300000000000000
B0659453208806S11701568EA0120801303000000000000
B0659493208767S11701648EA0120901303000000000000
B0659533208730S11701724EA0120501298000000000000
B0659573208694S11701804EA0120001289000000000000
B0700013208658S11701883EA0119001282000000000000
B0700053208607S11701949EA0118901283000000000000
B0700093208546S11701989EA0118901283000000000000
B0700133208478S11701992EA0118801280000000000000
B0700173208415S11701958EA0117401264000000000000
B0700213208361S11701900EA0116201249000000000000
B0700253208313S11701828EA0114701235000000000000
B0700293208270S11701753EA0114101232000000000000
B0700333208234S11701675EA0113901228000000000000
B0700373208204S11701589EA0112401214000000000000
B0700413208181S11701497EA0111401207000000000000
B0700453208164S11701404EA0111201205000000000000
B0700493208152S11701313EA0110801200000000000000
B0700533208147S11701221EA0110201191000000000000
B0700573208148S11701129EA0109401186000000000000
B0701013208149S11701039EA0109301185000000000000
B0701053208151S11700955EA0109101183000000000000
B0701093208156S11700871EA0108401170000000000000
B0701133208164S11700786EA0107001159000000000000
B0701173208171S11700700EA0106701159000000000000
B0701213208179S11700617EA0106401153000000000000
B0701253208190S11700532EA0105601144000000000000
B0701293208205S11700448EA0105301141000000000000
B0701333208223S11700367EA0104701135000000000000
B0701373208244S11700289EA0104801140000000000000
B0701413208268S11700216EA0105801150000000000000
B0701453208294S11700147EA0105801142000000000000
B0701493208325S11700075EA0104701132000000000000
B0701533208357S11659999EA0103101115000000000000
B0701573208392S11659921EA0101801105000000000000
B0702013208430S11659842EA0100701095000000000000
B0702053208469S11659763EA0100001088000000000000
B0702093208509S11659683EA0099301081000000000000
B0702133208550S11659604EA0098201071000000000000
B0702173208594S11659523EA0097101059000000000000
B0702213208639S11659441EA0096001049000000000000
B0702253208685S11659361EA0095201043000000000000
B0702293208728S11659279EA0094701039000000000000
B0702333208768S11659200EA0094401035000000000000
B0702373208808S11659120EA0094001029000000000000
B0702413208846S11659041EA0093501025000000000000
B0702453208883S11658963EA0092901016000000000000
B0702493208919S11658884EA0092001007000000000000
B0702533208948S11658799EA0091201002000000000000
B0702573208968S11658717EA0091501005000000000000
B0703013208988S11658635EA0090900995000000000000
B0703053209009S11658547EA0089500976000000000000
B0703093209037S11658453EA0087700961000000000000
B0703133209068S11658360EA0086200947000000000000
B0703173209101S11658268EA0085100938000000000000
B0703213209130S11658177EA0084800939000000000000
B0703253209152S11658087EA0085300941000000000000
B0703293209172S11658001EA0084700934000000000000
B0703333209196S11657915EA0084200926000000000000
B0703373209222S11657829EA0083200914000000000000
B0703413209250S11657746EA0082600914000000000000
B0703453209278S11657667EA0082600911000000000000
B0703493209306S11657592EA0082100904000000000000
B0703533209338S11657516EA0081300897000000000000
B0703573209370S11657446EA0081000892000000000000
B0704013209404S11657376EA0079800878000000000000
B0704053209448S11657311EA0078800864000000000000
B0704093209499S11657247EA0077200854000000000000
B0704133209548S11657183EA0077200858000000000000
B0704173209592S11657122EA0077200853000000000000
B0704213209625S11657052EA0077000853000000000000
B0704253209625S11656978EA0077400859000000000000
B0704293209591S11656912EA0077100848000000000000
B0704333209529S11656865EA0075400834000000000000
B0704373209457S11656841EA0074700830000000000000
B0704413209388S11656827EA0075000833000000000000
B0704453209322S11656815EA0075300837000000000000
B0704493209265S11656839EA0077000854000000000000
B0704533209263S11656901EA0076500842000000000000
B0704573209322S11656897EA0076900857000000000000
B0705013209328S11656836EA0078100862000000000000
B0705053209279S11656796EA0077300856000000000000
B0705093209217S11656802EA0078600873000000000000
B0705133209200S11656860EA0080000882000000000000
B0705173209244S11656895EA0079900884000000000000
B0705213209280S11656852EA0080500895000000000000
B0705253209261S11656791EA0081300900000000000000
B0705293209208S11656786EA0082000912000000000000
B0705333209193S11656841EA0082600913000000000000
B0705373209236S11656879EA0082700915000000000000
B0705413209283S11656849EA0083300923000000000000
B0705453209278S11656786EA0083500923000000000000
B0705493209226S11656758EA0083700928000000000000
B0705533209184S11656802EA0084200930000000000000
B0705573209175S11656874EA0083700922000000000000
B0706013209174S11656955EA0083300921000000000000
B0706053209169S11657035EA0083500923000000000000
B0706093209158S11657117EA0083300919000000000000
B0706133209149S11657200EA0083200924000000000000
B0706173209153S11657277EA0085200946000000000000
B0706213209200S11657306EA0087800971000000000000
B0706253209236S11657261EA0089300981000000000000
B0706293209211S11657203EA0090000988000000000000
B0706333209159S11657211EA0091001002000000000000
B0706373209158S11657273EA0092101013000000000000
B0706413209205S11657300EA0093501027000000000000
B0706453209239S11657257EA0094501033000000000000
B0706493209214S11657199EA0095201046000000000000
B0706533209161S11657191EA0096401056000000000000
B0706573209131S11657243EA0097701070000000000000
B0707013209161S11657294EA0099101082000000000000
B0707053209215S11657294EA0099901091000000000000
B0707093209248S11657242EA0100401096000000000000
B0707133209230S11657178EA0100601101000000000000
B0707173209174S11657148EA0101301108000000000000
B0707213209115S11657178EA0102401118000000000000
B0707253209098S11657247EA0103801138000000000000
B0707293209144S11657278EA0105901158000000000000
B0707333209188S11657243EA0107101169000000000000
B0707373209183S11657179EA0108101180000000000000
B0707413209131S11657159EA0108901187000000000000
B0707453209100S11657212EA0110201202000000000000
B0707493209133S11657260EA0111901218000000000000
B0707533209188S11657252EA0112801233000000000000
B0707573209219S11657202EA0114401247000000000000
B0708013209200S11657147EA0115501259000000000000
B0708053209149S11657137EA0116501266000000000000
B0708093209104S11657172EA0117301276000000000000
B0708133209094S11657231EA0118401290000000000000
B0708173209131S11657270EA0119901301000000000000
B0708213209178S11657247EA0121401317000000000000
B0708253209180S11657187EA0122001322000000000000
B0708293209133S11657159EA0122701335000000000000
B0708333209093S11657194EA0124001343000000000000
B0708373209107S11657251EA0124501348000000000000
B0708413209157S11657251EA0125701364000000000000
B0708453209178S11657198EA0126901372000000000000
B0708493209145S11657150EA0127301378000000000000
B0708533209091S11657156EA0128101386000000000000
B0708573209061S11657209EA0129001397000000000000
B0709013209076S11657265EA0129701403000000000000
B0709053209128S11657283EA0130201410000000000000
B0709093209180S11657252EA0130901417000000000000
B0709133209198S11657187EA0131301420000000000000
B0709173209165S11657133EA0131401421000000000000
B0709213209107S11657138EA0131601425000000000000
B0709253209076S11657190EA0132501433000000000000
B0709293209098S11657246EA0133001436000000000000
B0709333209153S11657274EA0133401440000000000000
B0709373209217S11657264EA0133201435000000000000
B0709413209261S11657209EA0132401429000000000000
B0709453209261S11657134EA0131801420000000000000
B0709493209228S11657061EA0130001402000000000000
B0709533209187S11656987EA0128101383000000000000
B0709573209136S11656914EA0126301374000000000000
B0710013209081S11656841EA0125701372000000000000
B0710053209032S11656769EA0126201376000000000000
B0710093208983S11656697EA0126301372000000000000
B0710133208935S11656624EA0125901367000000000000
B0710173208886S11656552EA0125401360000000000000
B0710213208838S11656479EA0124701353000000000000
B0710253208790S11656407EA0124501350000000000000
B0710293208742S11656336EA0124001344000000000000
B0710333208695S11656266EA0123601340000000000000
B0710373208650S11656195EA0123401336000000000000
B0710413208606S11656126EA0123001332000000000000
B0710453208564S11656051EA0122101320000000000000
B0710493208519S11655973EA0120901312000000000000
B0710533208474S11655896EA0120701310000000000000
B0710573208437S11655817EA0120601307000000000000
B0711013208404S11655738EA0120301303000000000000
B0711053208377S11655656EA0120101298000000000000
B0711093208352S11655574EA0119501294000000000000
B0711133208325S11655495EA0119201291000000000000
B0711173208298S11655417EA0118601284000000000000
B0711213208273S11655339EA0118601285000000000000
B0711253208248S11655262EA0118101278000000000000
B0711293208209S11655190EA0117601274000000000000
B0711333208164S11655122EA0118001281000000000000
B0711373208127S11655047EA0118501283000000000000
B0711413208101S11654969EA0118501283000000000000
B0711453208077S11654890EA0118501281000000000000
B0711493208054S11654811EA0118001273000000000000
B0711533208032S11654729EA0117001262000000000000
B0711573208009S11654646EA0115901253000000000000
B0712013207986S11654560EA0115301244000000000000
B0712053207965S11654475EA0114401237000000000000
B0712093207943S11654390EA0114001234000000000000
B0712133207922S11654304EA0113901233000000000000
B0712173207900S11654219EA0113601228000000000000
B0712213207878S11654132EA0112801220000000000000
B0712253207852S11654043EA0111801210000000000000
B0712293207824S11653953EA0111201206000000000000
B0712333207794S11653868EA0111201206000000000000
B0712373207767S11653786EA0111301205000000000000
B0712413207740S11653705EA0110701195000000000000
B0712453207710S11653623EA0109601187000000000000
B0712493207680S11653541EA0109001181000000000000
B0712533207658S11653455EA0108301172000000000000
B0712573207629S11653370EA0107401165000000000000
B0713013207586S11653296EA0107401164000000000000
B0713053207536S11653226EA0107001159000000000000
B0713093207482S11653160EA0105901150000000000000
B0713133207425S11653094EA0105401144000000000000
B0713173207369S11653029EA0104901141000000000000
B0713213207313S11652965EA0104601139000000000000
B0713253207256S11652904EA0104201132000000000000
B0713293207199S11652841EA0103501124000000000000
B0713333207142S11652778EA0102801117000000000000
B0713373207085S11652713EA0101901109000000000000
B0713413207029S11652648EA0101201102000000000000
B0713453206972S11652584EA0100501094000000000000
B0713493206916S11652520EA0099701085000000000000
B0713533206861S11652454EA0098901079000000000000
B0713573206808S11652388EA0098601076000000000000
B0714013206757S11652323EA0098501072000000000000
B0714053206705S11652258EA0097601064000000000000
B0714093206653S11652191EA0097201060000000000000
B0714133206600S11652125EA0096701053000000000000
B0714173206546S11652056EA0095601043000000000000
B0714213206493S11651985EA0095101039000000000000
B0714253206439S11651914EA0094901038000000000000
B0714293206388S11651847EA0094801035000000000000
B0714333206337S11651781EA0094401028000000000000
B0714373206283S11651714EA0093301015000000000000
B0714413206228S11651645EA0092501010000000000000
B0714453206172S11651578EA0091801000000000000000
B0714493206121S11651502EA0091601008000000000000
B0714533206055S11651476EA0093601029000000000000
B0714573206012S11651522EA0095001037000000000000
B0715013206013S11651591EA0094801030000000000000
B0715053206043S11651661EA0094101023000000000000
B0715093206088S11651717EA0094101027000000000000
B0715133206133S11651684EA0094901037000000000000
B0715173206088S11651638EA0095901049000000000000
B0715213206042S11651678EA0096401050000000000000
B0715253206043S11651748EA0096301049000000000000
B0715293206089S11651794EA0096901058000000000000
B0715333206147S11651784EA0097201059000000000000
B0715373206150S11651716EA0097801069000000000000
B0715413206093S11651688EA0098301072000000000000
B0715453206049S11651736EA0098401074000000000000
B0715493206077S11651790EA0099301082000000000000
B0715533206129S11651766EA0099401083000000000000
B0715573206124S11651699EA0100601099000000000000
B0716013206071S11651678EA0101401106000000000000
B0716053206032S11651722EA0101701107000000000000
B0716093206055S11651775EA0101901110000000000000
B0716133206104S11651765EA0102601119000000000000
B0716173206116S11651705EA0103501127000000000000
B0716213206072S11651669EA0103701129000000000000
B0716253206024S11651696EA0104201137000000000000
B0716293206029S11651752EA0104701137000000000000
B0716333206080S11651758EA0104501139000000000000
B0716373206098S11651699EA0105601153000000000000
B0716413206056S11651657EA0105801159000000000000
B0716453206008S11651691EA0106001161000000000000
B0716493206020S11651749EA0106801166000000000000
B0716533206069S11651744EA0107101169000000000000
B0716573206076S11651680EA0107501174000000000000
B0717013206024S11651651EA0107701177000000000000
B0717053205990S11651703EA0107901179000000000000
B0717093206021S11651757EA0108101178000000000000
B0717133206073S11651749EA0108701190000000000000
B0717173206071S11651684EA0109501195000000000000
B0717213206015S11651670EA0109701195000000000000
B0717253205977S11651725EA0109701194000000000000
B0717293205994S11651788EA0109701192000000000000
B0717333206050S11651813EA0109201194000000000000
B0717373206110S11651810EA0109601195000000000000
B0717413206171S11651797EA0108901187000000000000
B0717453206236S11651796EA0107901171000000000000
B0717493206302S11651818EA0106701163000000000000
B0717533206364S11651855EA0106401163000000000000
B0717573206419S11651899EA0106701164000000000000
B0718013206466S11651948EA0106501160000000000000
B0718053206510S11652004EA0105401146000000000000
B0718093206553S11652064EA0104301135000000000000
B0718133206595S11652128EA0103501125000000000000
B0718173206636S11652197EA0102501113000000000000
B0718213206674S11652271EA0101801106000000000000
B0718253206706S11652345EA0101501107000000000000
B0718293206734S11652418EA0101701104000000000000
B0718333206760S11652493EA0100601091000000000000
B0718373206787S11652571EA0099401080000000000000
B0718413206814S11652652EA0098401068000000000000
B0718453206844S11652733EA0096901052000000000000
B0718493206873S11652817EA0095701043000000000000
B0718533206900S11652899EA0095701043000000000000
B0718573206929S11652977EA0095501041000000000000
B0719013206959S11653053EA0095301039000000000000
B0719053206994S11653127EA0095901046000000000000
B0719093207046S11653173EA0097501066000000000000
B0719133207098S11653157EA0099301079000000000000
B0719173207115S11653100EA0098501064000000000000
B0719213207079S11653036EA0097001053000000000000
B0719253207014S11653017EA0097301059000000000000
B0719293206956S11653047EA0098101066000000000000
B0719333206913S11653101EA0098401070000000000000
B0719373206939S11653160EA0098601069000000000000
B0719413206991S11653135EA0098501073000000000000
B0719453206985S11653068EA0099101079000000000000
B0719493206930S11653034EA0099401081000000000000
B0719533206871S11653062EA0099501084000000000000
B0719573206848S11653125EA0100201089000000000000
B0720013206861S11653192EA0099501079000000000000
B0720053206890S11653261EA0098301067000000000000
B0720093206921S11653333EA0097001054000000000000
B0720133206955S11653407EA0096101044000000000000
B0720173206992S11653484EA0095301036000000000000
B0720213207030S11653559EA0094901034000000000000
B0720253207066S11653633EA0094201025000000000000
B0720293207104S11653708EA0093301015000000000000
B0720333207143S11653783EA0092301005000000000000
B0720373207181S11653857EA0091400995000000000000
B0720413207222S11653926EA0091000991000000000000
B0720453207263S11653998EA0091200996000000000000
B0720493207308S11654058EA0092301011000000000000
B0720533207364S11654052EA0094101025000000000000
B0720573207386S11653989EA0093701011000000000000
B0721013207346S11653923EA0092301002000000000000
B0721053207280S11653901EA0092101006000000000000
B0721093207215S11653926EA0092701010000000000000
B0721133207167S11653983EA0092401007000000000000
B0721173207128S11654052EA0092701009000000000000
B0721213207113S11654128EA0093301017000000000000
B0721253207154S11654169EA0094901035000000000000
B0721293207198S11654140EA0095201035000000000000
B0721333207190S11654074EA0095001036000000000000
B0721373207131S11654053EA0095301038000000000000
B0721413207089S11654106EA0095701041000000000000
B0721453207094S11654180EA0095901045000000000000
B0721493207135S11654230EA0096401050000000000000
B0721533207191S11654232EA0096801054000000000000
B0721573207226S11654179EA0097101056000000000000
B0722013207216S11654106EA0097501064000000000000
B0722053207163S11654075EA0099301083000000000000
B0722093207128S11654122EA0100101087000000000000
B0722133207154S11654178EA0100201087000000000000
B0722173207209S11654179EA0100601092000000000000
B0722213207247S11654132EA0101201104000000000000
B0722253207221S11654078EA0102601114000000000000
B0722293207167S11654091EA0103201118000000000000
B0722333207144S11654154EA0103501121000000000000
B0722373207176S11654209EA0104001128000000000000
B0722413207229S11654205EA0105101139000000000000
B0722453207259S11654149EA0105901149000000000000
B0722493207248S11654085EA0106901156000000000000
B0722533207203S11654045EA0107001157000000000000
B0722573207144S11654050EA0107201162000000000000
B0723013207098S11654096EA0107701167000000000000
B0723053207090S11654162EA0108101170000000000000
B0723093207128S11654213EA0108001168000000000000
B0723133207186S11654208EA0108501176000000000000
B0723173207215S11654147EA0109501186000000000000
B0723213207190S11654083EA0110301193000000000000
B0723253207131S11654067EA0110701198000000000000
B0723293207083S11654110EA0110901196000000000000
B0723333207077S11654180EA0110801203000000000000
B0723373207113S11654227EA0111801211000000000000
B0723413207168S11654228EA0112001207000000000000
B0723453207211S11654182EA0111901212000000000000
B0723493207203S11654117EA0112901221000000000000
B0723533207146S11654104EA0113101219000000000000
B0723573207105S11654161EA0113001221000000000000
B0724013207116S11654232EA0113201224000000000000
B0724053207169S11654262EA0113801226000000000000
B0724093207228S11654240EA0113301223000000000000
B0724133207276S11654191EA0113301226000000000000
B0724173207294S11654122EA0113201225000000000000
B0724213207258S11654063EA0113301220000000000000
B0724253207196S11654065EA0112501213000000000000
B0724293207163S11654123EA0112601218000000000000
B0724333207172S11654189EA0113101223000000000000
B0724373207204S11654241EA0113901232000000000000
B0724413207255S11654244EA0114401234000000000000
B0724453207274S11654187EA0114301232000000000000
B0724493207242S11654127EA0113501222000000000000
B0724533207181S11654117EA0112401214000000000000
B0724573207137S11654167EA0112601217000000000000
B0725013207128S11654240EA0112901221000000000000
B0725053207143S11654312EA0113001219000000000000
B0725093207170S11654381EA0112001209000000000000
B0725133207204S11654451EA0110901195000000000000
B0725173207243S11654521EA0109601184000000000000
B0725213207286S11654589EA0108601174000000000000
B0725253207332S11654657EA0108001169000000000000
B0725293207377S11654724EA0107801168000000000000
B0725333207420S11654789EA0107701168000000000000
B0725373207459S11654852EA0108101171000000000000
B0725413207497S11654917EA0107901165000000000000
B0725453207540S11654982EA0107301161000000000000
B0725493207583S11655047EA0107001157000000000000
B0725533207628S11655115EA0106601153000000000000
B0725573207675S11655176EA0106701160000000000000
B0726013207723S11655232EA0107701169000000000000
B0726053207771S11655285EA0108201172000000000000
B0726093207824S11655326EA0108301170000000000000
B0726133207879S11655367EA0107601164000000000000
B0726173207930S11655418EA0107601167000000000000
B0726213207976S11655473EA0108101170000000000000
B0726253208026S11655518EA0107901166000000000000
B0726293208078S11655564EA0107301155000000000000
B0726333208127S11655617EA0106201143000000000000
B0726373208177S11655677EA0105001132000000000000
B0726413208225S11655736EA0104501130000000000000
B0726453208274S11655795EA0104201125000000000000
B0726493208321S11655856EA0104001125000000000000
