ACAM4N6
HFDTE010121
HFFXA050
HFPLTPILOT:JOHN WELSH              
HFGTYGLIDERTYPE:HORNET      
HFGIDGLIDERID:VH-GMY      
HFDTM100GPSDATUM:
HFRFWFIRMWAREVERSION:F2.6
HFRHWHARDWAREVERSION:300 Series Version 2
HFFTYFRTYPE:CAMBRIDGE AERO INSTRUMENTS, 302+
HFGPS:GARMIN,LVS-25,12,18000
HFPRSPRESSALTSENSOR:INTERSEMA, MS5534-AP, 20000
I033638FXA3941ENL4247REX
LCAMSBVER:5FWVER:F26300
C010121052340010121000102
C0000000N00000000WTAKEOFF     
C3207549S11656849EBEVERLEY AF 
C3301433S11652382EWilliams    
C3220283S11752282ECorrigin    
C3207549S11656849EBEVERLEY AF 
C0000000N00000000WLANDING     
B0802193255816S11704987EA0034000325000000000000
B0802213255816S11704987EA0034000325000000000000
B0802233255816S11704989EA0033900325000000000000
B0802253255816S11704989EA0033900325000000000000
B0802273255816S11704987EA0033900325000000000000
B0802293255816S11704987EA0033900324000000000000
B0802313255816S11704987EA0034000325000000000000
B0802333255816S11704987EA0034000325000000000000
B0802353255816S11704987EA0033900325000000000000
B0802373255816S11704989EA0033900325000000000000
B0802393255816S11704989EA0034000325000000000000
B0802413255816S11704989EA0034000325000000000000
B0802433255816S11704989EA0034000325000000000000
B0802453255816S11704989EA0033900325000000000000
B0802473255816S11704987EA0034000325000000000000
B0802503255824S11704989EA0034100325000000000000
B0802543255848S11704992EA0034200325000000000000
B0802583255887S11705000EA0034400327000000000000
B0803023255937S11705007EA0034900329000000000000
B0803063255993S11705015EA0035200338000000000000
B0803103256048S11705021EA0036500353000000000000
B0803143256101S11705022EA0038100370000000000000
B0803183256153S11705022EA0039700384000000000000
B0803223256206S11705024EA0040900407000000000000
B0803263256258S11705029EA0043000427000000000000
B0803303256312S11705035EA0044800447000000000000
B0803343256366S11705041EA0046200460000000000000
B0803383256422S11705047EA0047500473000000000000
B0803423256476S11705059EA0048800488000000000000
B0803463256529S11705077EA0050000497000000000000
B0803503256577S11705106EA0050800506000000000000
B0803543256615S11705148EA0051800520000000000000
B0803583256645S11705203EA0053000532000000000000
B0804023256668S11705262EA0054500549000000000000
B0804063256689S11705324EA0056100567000000000000
B0804103256707S11705389EA0057400580000000000000
B0804143256720S11705460EA0059000594000000000000
B0804183256720S11705538EA0060200608000000000000
B0804223256700S11705616EA0061700625000000000000
B0804263256676S11705689EA0063900650000000000000
B0804303256645S11705756EA0066200670000000000000
B0804343256606S11705818EA0067700685000000000000
B0804383256555S11705875EA0068800696000000000000
B0804423256491S11705927EA0069500700000000000000
B0804463256418S11705971EA0070500714000000000000
B0804503256336S11706003EA0071400725000000000000
B0804543256255S11706027EA0072500737000000000000
B0804583256171S11706048EA0074000755000000000000
B0805023256080S11706062EA0075200764000000000000
B0805063255989S11706068EA0076400779000000000000
B0805103255900S11706068EA0077900792000000000000
B0805143255810S11706068EA0078900802000000000000
B0805183255719S11706065EA0079900811000000000000
B0805223255627S11706060EA0081000822000000000000
B0805263255534S11706056EA0081800830000000000000
B0805303255443S11706052EA0082700846000000000000
B0805343255354S11706045EA0084200855000000000000
B0805383255264S11706036EA0085200869000000000000
B0805423255173S11706029EA0086500882000000000000
B0805463255078S11706021EA0087500889000000000000
B0805503254984S11706014EA0088600905000000000000
B0805543254890S11706010EA0090300924000000000000
B0805583254793S11706006EA0091800935000000000000
B0806023254695S11706000EA0093300954000000000000
B0806063254597S11705996EA0095500978000000000000
B0806103254514S11706010EA0097700996000000000000
B0806143254474S11706058EA0098801002000000000000
B0806183254498S11706083EA0098901000000000000000
B0806223254532S11706031EA0098500997000000000000
B0806263254527S11705943EA0098601000000000000000
B0806303254468S11705876EA0098801002000000000000
B0806343254393S11705866EA0098901004000000000000
B0806383254344S11705908EA0099001004000000000000
B0806423254311S11705964EA0098600998000000000000
B0806463254258S11706010EA0098300996000000000000
B0806503254186S11706032EA0097700989000000000000
B0806543254110S11706045EA0096800979000000000000
B0806583254030S11706057EA0095600966000000000000
B0807023253951S11706062EA0095700973000000000000
B0807063253872S11706061EA0096100976000000000000
B0807103253791S11706039EA0097100990000000000000
B0807143253725S11706056EA0098300997000000000000
B0807183253717S11706100EA0098300992000000000000
B0807223253753S11706096EA0097900992000000000000
B0807263253782S11706029EA0098301001000000000000
B0807303253764S11705932EA0099401014000000000000
B0807343253696S11705886EA0100501019000000000000
B0807383253647S11705917EA0099901009000000000000
B0807423253661S11705954EA0099101002000000000000
B0807463253713S11705935EA0099301012000000000000
B0807503253743S11705860EA0101701043000000000000
B0807543253705S11705778EA0103601054000000000000
B0807583253638S11705770EA0104301058000000000000
B0808023253621S11705813EA0104401060000000000000
B0808063253657S11705810EA0105601077000000000000
B0808103253679S11705731EA0106501081000000000000
B0808143253640S11705636EA0106801088000000000000
B0808183253569S11705615EA0107701099000000000000
B0808223253540S11705655EA0108401103000000000000
B0808263253567S11705683EA0108401099000000000000
B0808303253616S11705629EA0109001119000000000000
B0808343253604S11705536EA0110901135000000000000
B0808383253535S11705498EA0112001140000000000000
B0808423253491S11705532EA0112801150000000000000
B0808463253517S11705563EA0113101150000000000000
B0808503253567S11705515EA0113601159000000000000
B0808543253562S11705415EA0114701173000000000000
B0808583253493S11705349EA0115501176000000015000
B0809023253424S11705364EA0116501190000000015000
B0809063253432S11705410EA0117801202000000015000
B0809103253482S11705380EA0118401209000000015000
B0809143253487S11705284EA0119301216000000015000
B0809183253423S11705206EA0119801222000000015000
B0809223253344S11705197EA0120501236000000015000
B0809263253313S11705241EA0122201253000000015000
B0809303253335S11705276EA0122801248000000015000
B0809343253388S11705255EA0122201246000000000000
B0809383253417S11705171EA0122501257000000015000
B0809423253369S11705082EA0124101271000000015000
B0809463253293S11705067EA0125101277000000015000
B0809503253276S11705112EA0125701281000000015000
B0809543253328S11705099EA0125401279000000015000
B0809583253349S11705005EA0126101289000000000000
B0810023253304S11704908EA0126601295000000015000
B0810063253220S11704875EA0127301301000000015000
B0810103253183S11704920EA0128301313000000015000
B0810143253232S11704925EA0128801308000000015000
B0810183253261S11704826EA0128801321000000015000
B0810223253201S11704739EA0130301335000000015000
B0810263253125S11704743EA0131501346000000015000
B0810303253135S11704779EA0133101362000000015000
B0810343253175S11704725EA0134301379000000015000
B0810383253149S11704632EA0135601392000000015000
B0810423253081S11704592EA0136601397000000015000
B0810463253038S11704621EA0137301407000000015000
B0810503253055S11704649EA0138301414000000015000
B0810543253102S11704622EA0139001424000000000000
B0810583253122S11704539EA0140401441000000015000
B0811023253085S11704453EA0141501446000000015000
B0811063253012S11704420EA0141501445000000015000
B0811103252967S11704453EA0142101460000000015000
B0811143252988S11704482EA0143401469000000015000
B0811183253037S11704437EA0143901474000000000000
B0811223253038S11704339EA0144901486000000000000
B0811263252980S11704259EA0145501491000000015000
B0811303252907S11704248EA0146201504000000015000
B0811343252882S11704287EA0147401510000000015000
B0811383252927S11704289EA0147701511000000015000
B0811423252963S11704206EA0147801510000000015000
B0811463252927S11704090EA0147601504000000015000
B0811503252839S11704040EA0148001519000000015000
B0811543252768S11704054EA0149201530000000015000
B0811583252741S11704102EA0150001535000000015000
B0812023252769S11704142EA0149501526000000015000
B0812063252832S11704124EA0150101543000000015000
B0812103252850S11704036EA0152901573000000015000
B0812143252810S11703943EA0153101560000000015000
B0812183252729S11703893EA0152501564000000015000
B0812223252663S11703908EA0153201570000000015000
B0812263252641S11703958EA0153301570000000015000
B0812303252651S11704007EA0153001567000000000000
B0812343252681S11704049EA0153201571000000000000
B0812383252732S11704067EA0153301570000000000000
B0812423252791S11704054EA0154001583000000000000
B0812463252830S11703978EA0154901585000000000000
B0812503252820S11703869EA0154601584000000000000
B0812543252750S11703786EA0154901592000000015000
B0812583252661S11703755EA0155701603000000015000
B0813023252581S11703761EA0156301607000000015000
B0813063252504S11703780EA0156701610000000015000
B0813103252426S11703800EA0156401603000000000000
B0813143252343S11703824EA0155801599000000000000
B0813183252261S11703848EA0155401591000000000000
B0813223252176S11703874EA0154101580000000000000
B0813263252089S11703899EA0153701578000000000000
B0813303252007S11703926EA0154001581000000000000
B0813343251929S11703952EA0153701575000000000000
B0813383251853S11703977EA0153001565000000000000
B0813423251772S11704003EA0151801552000000000000
B0813463251689S11704028EA0151301550000000000000
B0813503251606S11704049EA0151001547000000000000
B0813543251524S11704071EA0151101550000000000000
B0813583251446S11704093EA0151801562000000000000
B0814023251370S11704115EA0153001572000000000000
B0814063251298S11704136EA0153601576000000000000
B0814103251225S11704155EA0153601573000000000000
B0814143251153S11704173EA0152901563000000000000
B0814183251078S11704192EA0151901553000000000000
B0814223251001S11704211EA0151001546000000000000
B0814263250923S11704232EA0150501542000000000000
B0814303250844S11704254EA0149801531000000000000
B0814343250763S11704271EA0148501518000000000000
B0814383250678S11704283EA0147501510000000000000
B0814423250593S11704293EA0146801500000000000000
B0814463250509S11704303EA0146001493000000000000
B0814503250425S11704311EA0145601489000000000000
B0814543250342S11704315EA0145001484000000000000
B0814583250260S11704320EA0144501479000000000000
B0815023250180S11704326EA0144301476000000000000
B0815063250096S11704331EA0143901471000000000000
B0815103250013S11704336EA0143701469000000000000
B0815143249929S11704340EA0143301465000000000000
B0815183249843S11704327EA0143201466000000000000
B0815223249758S11704305EA0143001463000000000000
B0815263249677S11704281EA0142901461000000000000
B0815303249593S11704255EA0142101451000000000000
B0815343249511S11704229EA0141501447000000000000
B0815383249428S11704203EA0140901440000000000000
B0815423249346S11704177EA0139901429000000000000
B0815463249262S11704142EA0138901414000000000000
B0815503249173S11704105EA0137701406000000000000
B0815543249084S11704066EA0137101404000000000000
B0815583248997S11704027EA0137201403000000000000
B0816023248911S11703986EA0137101402000000000000
B0816063248832S11703924EA0136501397000000000000
B0816103248760S11703843EA0136101389000000000000
B0816143248700S11703752EA0135701389000000000000
B0816183248640S11703660EA0135901392000000000000
B0816223248583S11703574EA0136001393000000000000
B0816263248527S11703490EA0135901388000000000000
B0816303248466S11703406EA0135401382000000000000
B0816343248392S11703343EA0135001384000000000000
B0816383248312S11703295EA0135401387000000000000
B0816423248231S11703284EA0135901391000000000000
B0816463248175S11703319EA0136001393000000000000
B0816503248141S11703370EA0136101391000000000000
B0816543248114S11703425EA0135501385000000000000
B0816583248081S11703484EA0134901379000000000000
B0817023248045S11703546EA0134401372000000000000
B0817063247997S11703607EA0133701366000000000000
B0817103247959S11703673EA0134001377000000000000
B0817143247983S11703721EA0135801398000000000000
B0817183248027S11703679EA0137301410000000000000
B0817223248013S11703582EA0137701408000000000000
B0817263247945S11703518EA0137501411000000015000
B0817303247872S11703513EA0137901416000000015000
B0817343247818S11703546EA0138301417000000015000
B0817383247795S11703595EA0138601420000000015000
B0817423247797S11703646EA0138501417000000015000
B0817463247799S11703699EA0137801408000000000000
B0817503247773S11703763EA0135601380000000000000
B0817543247716S11703819EA0133701365000000000000
B0817583247645S11703863EA0133101362000000000000
B0818023247569S11703902EA0132601354000000000000
B0818063247489S11703933EA0131401343000000000000
B0818103247405S11703960EA0130801337000000000000
B0818143247322S11703989EA0130001328000000000000
B0818183247240S11704020EA0129401323000000000000
B0818223247158S11704051EA0128701314000000000000
B0818263247075S11704081EA0128001308000000000000
B0818303246991S11704110EA0127201295000000000000
B0818343246904S11704134EA0126601293000000000000
B0818383246818S11704158EA0126701293000000000000
B0818423246733S11704189EA0126401287000000000000
B0818463246650S11704222EA0125901285000000000000
B0818503246564S11704251EA0126101291000000000000
B0818543246479S11704283EA0126401290000000000000
B0818583246394S11704313EA0127601305000000000000
B0819023246351S11704362EA0129701332000000000000
B0819063246364S11704385EA0130901340000000000000
B0819103246395S11704341EA0130101328000000000000
B0819143246403S11704254EA0130001335000000015000
B0819183246389S11704160EA0130901344000000015000
B0819223246321S11704108EA0131901348000000030000
B0819263246285S11704151EA0132201350000000030000
B0819303246326S11704138EA0132701357000000030000
B0819343246308S11704038EA0133501363000000030000
B0819383246224S11704002EA0133901366000000045000
B0819423246194S11704053EA0134601382000000030000
B0819463246235S11704049EA0135801403000000030000
B0819503246241S11703964EA0137801415000000030000
B0819543246173S11703898EA0138101413000000030000
B0819583246111S11703923EA0138401420000000030000
B0820023246122S11703960EA0139101422000000030000
B0820063246163S11703924EA0140301437000000015000
B0820103246154S11703833EA0141401445000000030000
B0820143246085S11703773EA0141801447000000030000
B0820183246014S11703782EA0142201462000000030000
B0820223246001S11703822EA0143601476000000030000
B0820263246039S11703822EA0144401486000000015000
B0820303246068S11703755EA0145301497000000030000
B0820343246040S11703665EA0146401506000000030000
B0820383245977S11703607EA0147001511000000030000
B0820423245907S11703598EA0147401516000000030000
B0820463245864S11703624EA0147801522000000030000
B0820503245852S11703661EA0148001523000000015000
B0820543245860S11703698EA0148201528000000015000
B0820583245894S11703711EA0149301543000000015000
B0821023245931S11703672EA0150401552000000015000
B0821063245935S11703583EA0150801551000000015000
B0821103245882S11703497EA0151101551000000015000
B0821143245799S11703460EA0151401557000000030000
B0821183245741S11703490EA0152201564000000030000
B0821223245739S11703539EA0152301566000000015000
B0821263245778S11703533EA0152901574000000015000
B0821303245809S11703470EA0153601587000000015000
B0821343245795S11703383EA0154901595000000030000
B0821383245731S11703318EA0155401593000000030000
B0821423245656S11703312EA0155101590000000030000
B0821463245596S11703348EA0154401582000000030000
B0821503245533S11703388EA0154001580000000015000
B0821543245465S11703429EA0153101570000000015000
B0821583245389S11703469EA0151901559000000015000
B0822023245307S11703504EA0151101545000000015000
B0822063245223S11703534EA0149601533000000015000
B0822103245136S11703557EA0149401533000000000000
B0822143245049S11703577EA0148701522000000000000
B0822183244960S11703596EA0147901520000000000000
B0822223244872S11703611EA0147901518000000000000
B0822263244786S11703629EA0148001521000000000000
B0822303244703S11703648EA0149001530000000000000
B0822343244620S11703665EA0148901526000000000000
B0822383244535S11703681EA0148801527000000000000
B0822423244451S11703692EA0148801524000000000000
B0822463244365S11703702EA0147901513000000000000
B0822503244276S11703711EA0147401513000000000000
B0822543244191S11703713EA0147401511000000000000
B0822583244105S11703721EA0146601499000000000000
B0823023244022S11703721EA0146501505000000000000
B0823063243941S11703718EA0146701502000000000000
B0823103243859S11703718EA0146501498000000000000
B0823143243775S11703720EA0146401502000000000000
B0823183243702S11703735EA0147201507000000000000
B0823223243638S11703764EA0146801501000000000000
B0823263243572S11703793EA0146101494000000000000
B0823303243499S11703813EA0145701490000000000000
B0823343243422S11703825EA0145801493000000000000
B0823383243348S11703830EA0145301483000000000000
B0823423243273S11703833EA0144301474000000000000
B0823463243200S11703837EA0143901471000000000000
B0823503243125S11703841EA0142801457000000000000
B0823543243039S11703843EA0141101440000000000000
B0823583242950S11703843EA0140201435000000000000
B0824023242866S11703839EA0139801431000000000000
B0824063242783S11703839EA0139201419000000000000
B0824103242702S11703843EA0138401414000000000000
B0824143242621S11703845EA0138101411000000000000
B0824183242542S11703842EA0137801410000000000000
B0824223242464S11703843EA0137601404000000000000
B0824263242390S11703851EA0136601393000000000000
B0824303242313S11703861EA0135701387000000000000
B0824343242261S11703900EA0136501401000000000000
B0824383242282S11703932EA0138501420000000000000
B0824423242316S11703869EA0138901422000000015000
B0824463242285S11703780EA0138901419000000015000
B0824503242215S11703747EA0138701420000000015000
B0824543242161S11703770EA0139001425000000015000
B0824583242156S11703813EA0139601431000000015000
B0825023242202S11703790EA0139901430000000015000
B0825063242203S11703687EA0139901433000000015000
B0825103242135S11703608EA0139601422000000015000
B0825143242060S11703620EA0139301429000000030000
B0825183242051S11703674EA0140501444000000015000
B0825223242092S11703683EA0141801453000000015000
B0825263242122S11703604EA0143201469000000015000
B0825303242073S11703523EA0144001474000000030000
B0825343242003S11703523EA0144301477000000030000
B0825383242005S11703566EA0144601480000000030000
B0825423242053S11703516EA0144801482000000030000
B0825463242020S11703409EA0145501494000000030000
B0825503241940S11703391EA0146301506000000030000
B0825543241913S11703431EA0147701522000000030000
B0825583241942S11703452EA0148501524000000015000
B0826023241990S11703410EA0149001535000000015000
B0826063241984S11703318EA0150101538000000030000
B0826103241918S11703261EA0149601532000000030000
B0826143241857S11703275EA0149801540000000030000
B0826183241828S11703317EA0150501546000000015000
B0826223241826S11703361EA0151101552000000015000
B0826263241861S11703365EA0152301561000000015000
B0826303241884S11703293EA0152401550000000015000
B0826343241845S11703201EA0152001554000000015000
B0826383241771S11703165EA0152401562000000015000
B0826423241717S11703185EA0153101572000000015000
B0826463241706S11703223EA0153401574000000015000
B0826503241734S11703248EA0153501574000000015000
B0826543241776S11703244EA0153301571000000015000
B0826583241802S11703166EA0153601574000000015000
B0827023241763S11703078EA0153701576000000015000
B0827063241691S11703027EA0153201571000000015000
B0827103241609S11702993EA0153001571000000015000
B0827143241524S11702949EA0152601563000000015000
B0827183241436S11702897EA0152001560000000015000
B0827223241345S11702846EA0151001546000000000000
B0827263241249S11702795EA0149901537000000000000
B0827303241151S11702746EA0149401532000000000000
B0827343241056S11702695EA0149601540000000000000
B0827383240965S11702646EA0149901538000000000000
B0827423240870S11702599EA0148901525000000000000
B0827463240772S11702558EA0147801508000000000000
B0827503240671S11702517EA0146701504000000000000
B0827543240575S11702481EA0147401513000000000000
B0827583240480S11702451EA0147901519000000000000
B0828023240385S11702422EA0148101520000000000000
B0828063240292S11702398EA0148201521000000000000
B0828103240200S11702373EA0148101518000000000000
B0828143240109S11702342EA0147601514000000000000
B0828183240018S11702304EA0147101504000000000000
B0828223239923S11702262EA0145901492000000000000
B0828263239826S11702218EA0145301490000000000000
B0828303239734S11702178EA0145501493000000000000
B0828343239647S11702138EA0146101499000000000000
B0828383239564S11702095EA0146101496000000000000
B0828423239481S11702051EA0145301487000000000000
B0828463239394S11702005EA0144201471000000000000
B0828503239305S11701954EA0143101463000000000000
B0828543239218S11701905EA0142801464000000000000
B0828583239136S11701850EA0142901467000000000000
B0829023239059S11701793EA0143101466000000000000
B0829063238983S11701735EA0142301453000000000000
B0829103238901S11701679EA0140901440000000000000
B0829143238815S11701629EA0140001430000000000000
B0829183238725S11701596EA0138701418000000000000
B0829223238632S11701573EA0138101410000000000000
B0829263238541S11701557EA0137301403000000000000
B0829303238451S11701538EA0136601395000000000000
B0829343238363S11701521EA0136101394000000000000
B0829383238276S11701510EA0136201394000000000000
B0829423238187S11701506EA0135801389000000000000
B0829463238100S11701502EA0134901378000000000000
B0829503238010S11701498EA0133801366000000000000
B0829543237919S11701488EA0133201362000000000000
B0829583237831S11701482EA0133301365000000000000
B0830023237748S11701484EA0133601366000000000000
B0830063237668S11701501EA0133201362000000000000
B0830103237585S11701514EA0133001360000000000000
B0830143237503S11701528EA0133501369000000000000
B0830183237466S11701576EA0134701380000000000000
B0830223237497S11701594EA0135101382000000000000
B0830263237532S11701537EA0134501374000000000000
B0830303237516S11701449EA0134401380000000015000
B0830343237467S11701376EA0134601378000000015000
B0830383237403S11701310EA0134101370000000015000
B0830423237328S11701259EA0133801369000000000000
B0830463237246S11701228EA0133601366000000000000
B0830503237163S11701208EA0133201364000000000000
B0830543237087S11701212EA0134601382000000000000
B0830583237080S11701258EA0136201394000000000000
B0831023237124S11701220EA0135901398000000015000
B0831063237106S11701125EA0136901413000000015000
B0831103237033S11701091EA0138001418000000030000
B0831143237016S11701137EA0138901427000000030000
B0831183237060S11701108EA0140201446000000030000
B0831223237044S11701020EA0141401450000000030000
B0831263236969S11700988EA0141201449000000030000
B0831303236934S11701035EA0142201469000000030000
B0831343236961S11701063EA0143701479000000015000
B0831383237003S11701013EA0144801491000000015000
B0831423236978S11700922EA0145701493000000030000
B0831463236900S11700895EA0145301490000000030000
B0831503236853S11700940EA0146001506000000015000
B0831543236879S11700970EA0147401517000000015000
B0831583236911S11700905EA0148701533000000015000
B0832023236864S11700827EA0150001539000000015000
B0832063236803S11700844EA0150801548000000015000
B0832103236817S11700888EA0151301552000000015000
B0832143236865S11700848EA0152501570000000015000
B0832183236859S11700756EA0153501572000000015000
B0832223236787S11700702EA0153101569000000015000
B0832263236710S11700708EA0153501577000000015000
B0832303236684S11700758EA0154601587000000015000
B0832343236729S11700752EA0155401598000000015000
B0832383236726S11700657EA0156401610000000015000
B0832423236656S11700601EA0157501616000000015000
B0832463236591S11700627EA0157901619000000015000
B0832503236592S11700676EA0158801636000000015000
B0832543236634S11700662EA0160101641000000015000
B0832583236639S11700575EA0160901651000000015000
B0833023236576S11700513EA0161901661000000015000
B0833063236513S11700530EA0162701668000000015000
B0833103236506S11700576EA0163401673000000015000
B0833143236544S11700579EA0164101681000000015000
B0833183236578S11700518EA0164801689000000015000
B0833223236560S11700427EA0165901699000000015000
B0833263236491S11700377EA0166501707000000015000
B0833303236430S11700400EA0167301709000000015000
B0833343236430S11700450EA0167301710000000015000
B0833383236475S11700449EA0167701724000000015000
B0833423236506S11700384EA0169101737000000015000
B0833463236487S11700289EA0170001740000000015000
B0833503236420S11700225EA0169801738000000000000
B0833543236348S11700231EA0170401749000000015000
B0833583236324S11700279EA0170901756000000015000
B0834023236353S11700303EA0171601762000000015000
B0834063236398S11700267EA0172401768000000015000
B0834103236393S11700176EA0173401781000000015000
B0834143236329S11700120EA0174101785000000015000
B0834183236271S11700141EA0174201786000000015000
B0834223236261S11700186EA0174801799000000015000
B0834263236292S11700198EA0175701802000000015000
B0834303236328S11700143EA0175801805000000015000
B0834343236310S11700051EA0176401809000000000000
B0834383236242S11659989EA0176401808000000000000
B0834423236164S11659984EA0176301811000000000000
B0834463236119S11700024EA0177001821000000015000
B0834503236121S11700064EA0178101829000000015000
B0834543236163S11700059EA0178001826000000015000
B0834583236203S11700003EA0178101832000000015000
B0835023236197S11659913EA0179101843000000015000
B0835063236129S11659868EA0179801844000000015000
B0835103236055S11659885EA0179201836000000015000
B0835143235976S11659904EA0178901838000000000000
B0835183235887S11659919EA0178401830000000000000
B0835223235793S11659921EA0177901826000000000000
B0835263235695S11659920EA0178001829000000000000
B0835303235599S11659920EA0178401835000000000000
B0835343235507S11659920EA0179301846000000000000
B0835383235416S11659921EA0179901852000000000000
B0835423235327S11659930EA0180101850000000000000
B0835463235237S11659934EA0179701843000000000000
B0835503235146S11659929EA0178801837000000000000
B0835543235057S11659920EA0178701837000000000000
B0835583234970S11659911EA0178701837000000000000
B0836023234881S11659899EA0178901840000000000000
B0836063234795S11659885EA0178901840000000000000
B0836103234710S11659872EA0179301846000000000000
B0836143234626S11659856EA0179401841000000000000
B0836183234538S11659846EA0178201824000000000000
B0836223234446S11659838EA0177001818000000000000
B0836263234353S11659830EA0177001822000000000000
B0836303234265S11659822EA0177101822000000000000
B0836343234175S11659816EA0176801816000000000000
B0836383234086S11659808EA0176101809000000000000
B0836423233993S11659795EA0175301802000000000000
B0836463233902S11659782EA0175001798000000000000
B0836503233811S11659768EA0174401791000000000000
B0836543233719S11659751EA0173501779000000000000
B0836583233627S11659735EA0172401770000000000000
B0837023233534S11659717EA0171801766000000000000
B0837063233445S11659700EA0171501760000000000000
B0837103233354S11659683EA0170501747000000000000
B0837143233260S11659666EA0169601741000000000000
B0837183233169S11659649EA0169101736000000000000
B0837223233081S11659633EA0168601731000000000000
B0837263232992S11659614EA0168201725000000000000
B0837303232904S11659601EA0167301715000000000000
B0837343232817S11659596EA0166601712000000000000
B0837383232731S11659591EA0166301708000000000000
B0837423232647S11659581EA0165701699000000000000
B0837463232561S11659568EA0164801690000000000000
B0837503232475S11659555EA0163701678000000000000
B0837543232388S11659539EA0162501666000000000000
B0837583232298S11659513EA0161601651000000000000
B0838023232206S11659496EA0160301641000000000000
B0838063232114S11659478EA0159501635000000000000
B0838103232021S11659458EA0158901628000000000000
B0838143231929S11659440EA0158001618000000000000
B0838183231833S11659426EA0157001609000000000000
B0838223231738S11659415EA0156801608000000000000
B0838263231644S11659409EA0156401604000000000000
B0838303231551S11659397EA0156101602000000000000
B0838343231458S11659384EA0156601608000000000000
B0838383231384S11659410EA0157401619000000000000
B0838423231379S11659464EA0158501626000000000000
B0838463231427S11659454EA0158501626000000000000
B0838503231458S11659387EA0159001633000000000000
B0838543231436S11659300EA0159801639000000000000
B0838583231371S11659252EA0160101637000000000000
B0839023231323S11659283EA0159801633000000015000
B0839063231357S11659311EA0159201629000000015000
B0839103231400S11659261EA0159301634000000015000
B0839143231393S11659167EA0159401631000000015000
B0839183231341S11659088EA0159301631000000015000
B0839223231267S11659033EA0158601621000000000000
B0839263231185S11658989EA0157401608000000000000
B0839303231096S11658946EA0156401599000000000000
B0839343231001S11658912EA0156601609000000000000
B0839383230916S11658902EA0158101623000000000000
B0839423230868S11658944EA0159101632000000000000
B0839463230879S11658990EA0159301630000000000000
B0839503230915S11659024EA0158901629000000000000
B0839543230959S11659032EA0159501636000000000000
B0839583230990S11658971EA0160301638000000000000
B0840023230962S11658882EA0159901633000000000000
B0840063230893S11658879EA0160101640000000000000
B0840103230888S11658927EA0160301639000000015000
B0840143230931S11658916EA0160201642000000015000
B0840183230945S11658836EA0160501644000000015000
B0840223230899S11658758EA0160701647000000015000
B0840263230827S11658736EA0160901649000000015000
B0840303230769S11658763EA0160901650000000015000
B0840343230759S11658814EA0160901647000000015000
B0840383230799S11658821EA0160701651000000015000
B0840423230832S11658763EA0161201657000000015000
B0840463230840S11658674EA0161401652000000015000
B0840503230821S11658578EA0161401656000000000000
B0840543230773S11658500EA0162001660000000000000
B0840583230702S11658450EA0161701657000000000000
B0841023230622S11658424EA0161501653000000000000
B0841063230542S11658414EA0161701657000000000000
B0841103230461S11658412EA0162201665000000000000
B0841143230379S11658411EA0162801673000000000000
B0841183230312S11658434EA0163701683000000000000
B0841223230303S11658479EA0165101694000000000000
B0841263230342S11658472EA0164801690000000000000
B0841303230356S11658388EA0164601696000000015000
B0841343230310S11658307EA0165501703000000015000
B0841383230238S11658256EA0166101707000000000000
B0841423230170S11658273EA0166501711000000015000
B0841463230158S11658326EA0166801711000000015000
B0841503230195S11658340EA0166201703000000015000
B0841543230238S11658287EA0165301697000000015000
B0841583230227S11658191EA0165701707000000015000
B0842023230162S11658125EA0166601714000000015000
B0842063230084S11658122EA0167401722000000015000
B0842103230067S11658173EA0168101730000000015000
B0842143230109S11658157EA0168601726000000015000
B0842183230108S11658061EA0168301733000000015000
B0842223230039S11657995EA0169601746000000015000
B0842263229958S11657991EA0170301752000000015000
B0842303229915S11658036EA0171301761000000015000
B0842343229935S11658073EA0171001755000000015000
B0842383229978S11658034EA0169701746000000015000
B0842423229989S11657937EA0169801750000000015000
B0842463229962S11657842EA0171201761000000015000
B0842503229884S11657815EA0172201769000000015000
B0842543229859S11657863EA0172501769000000015000
B0842583229904S11657858EA0172701776000000015000
B0843023229914S11657770EA0173301783000000015000
B0843063229853S11657693EA0173801788000000015000
B0843103229774S11657684EA0174001789000000015000
B0843143229728S11657732EA0174201790000000015000
B0843183229744S11657776EA0174301796000000015000
B0843223229789S11657775EA0175001801000000015000
B0843263229822S11657707EA0175701806000000015000
B0843303229792S11657610EA0175801806000000015000
B0843343229707S11657562EA0175901805000000015000
B0843383229631S11657588EA0176001811000000015000
B0843423229611S11657650EA0176201809000000015000
B0843463229653S11657681EA0176201808000000015000
B0843503229710S11657653EA0175801807000000015000
B0843543229749S11657567EA0176101810000000015000
B0843583229749S11657452EA0176201808000000015000
B0844023229698S11657346EA0176301810000000015000
B0844063229614S11657277EA0175701798000000015000
B0844103229514S11657254EA0174001781000000015000
B0844143229410S11657255EA0172601769000000000000
B0844183229308S11657264EA0171801763000000000000
B0844223229207S11657277EA0171401759000000000000
B0844263229103S11657287EA0170901753000000000000
B0844303228995S11657295EA0170401746000000000000
B0844343228887S11657303EA0169901743000000000000
B0844383228783S11657311EA0169701741000000000000
B0844423228683S11657313EA0169601743000000000000
B0844463228593S11657312EA0170401749000000000000
B0844503228503S11657309EA0169501733000000000000
B0844543228407S11657302EA0168001720000000000000
B0844583228310S11657289EA0167701721000000000000
B0845023228216S11657269EA0167701719000000000000
B0845063228124S11657252EA0167601720000000000000
B0845103228032S11657237EA0167501716000000000000
B0845143227941S11657225EA0166901711000000000000
B0845183227850S11657216EA0166401706000000000000
B0845223227760S11657211EA0166201706000000000000
B0845263227670S11657207EA0166101703000000000000
B0845303227580S11657204EA0165601698000000000000
B0845343227495S11657204EA0165101693000000000000
B0845383227409S11657202EA0165001693000000000000
B0845423227327S11657190EA0164501685000000000000
B0845463227242S11657176EA0163501674000000000000
B0845503227155S11657157EA0162501661000000000000
B0845543227067S11657142EA0161701655000000000000
B0845583226980S11657125EA0161101651000000000000
B0846023226894S11657108EA0160901648000000000000
B0846063226808S11657090EA0160701643000000000000
B0846103226720S11657070EA0159701634000000000000
B0846143226631S11657052EA0159601634000000000000
B0846183226547S11657033EA0159301632000000000000
B0846223226461S11657010EA0159001627000000000000
B0846263226375S11656991EA0158701624000000000000
B0846303226290S11656971EA0158201619000000000000
B0846343226202S11656957EA0157901617000000000000
B0846383226114S11656942EA0157401612000000000000
B0846423226026S11656926EA0157201610000000000000
B0846463225936S11656908EA0156901607000000000000
B0846503225844S11656890EA0156401599000000000000
B0846543225751S11656870EA0155701595000000000000
B0846583225660S11656844EA0155401591000000000000
B0847023225568S11656823EA0155101588000000000000
B0847063225478S11656809EA0155001585000000000000
B0847103225389S11656806EA0154101577000000000000
B0847143225298S11656802EA0154001578000000000000
B0847183225209S11656792EA0153801575000000000000
B0847223225122S11656782EA0153001564000000000000
B0847263225036S11656786EA0152101553000000000000
B0847303224953S11656797EA0151101546000000000000
B0847343224873S11656810EA0150801544000000000000
B0847383224797S11656834EA0150801540000000000000
B0847423224730S11656870EA0150101531000000000000
B0847463224662S11656909EA0149001520000000000000
B0847503224590S11656949EA0147701505000000000000
B0847543224518S11656991EA0146501492000000000000
B0847583224441S11657033EA0145401482000000000000
B0848023224363S11657069EA0144701476000000000000
B0848063224285S11657100EA0144301476000000000000
B0848103224207S11657127EA0144101469000000000000
B0848143224125S11657150EA0143301465000000000000
B0848183224041S11657172EA0143101460000000000000
B0848223223953S11657194EA0142701457000000000000
B0848263223873S11657226EA0143001461000000000000
B0848303223813S11657280EA0143101462000000000000
B0848343223761S11657338EA0143101461000000000000
B0848383223719S11657400EA0143001459000000000000
B0848423223686S11657465EA0142501455000000000000
B0848463223639S11657523EA0141901449000000000000
B0848503223582S11657572EA0141401443000000000000
B0848543223515S11657614EA0140701436000000000000
B0848583223443S11657646EA0140001428000000000000
B0849023223365S11657670EA0139301421000000000000
B0849063223284S11657686EA0138901415000000000000
B0849103223201S11657697EA0138201408000000000000
B0849143223116S11657701EA0137601402000000000000
B0849183223032S11657707EA0137001396000000000000
B0849223222945S11657710EA0136501391000000000000
B0849263222858S11657714EA0136301391000000000000
B0849303222769S11657716EA0136001386000000000000
B0849343222679S11657719EA0136301392000000000000
B0849383222627S11657761EA0138201418000000000000
B0849423222652S11657785EA0140501431000000000000
B0849463222674S11657720EA0141301439000000000000
B0849503222633S11657636EA0141601440000000000000
B0849543222556S11657616EA0141801445000000015000
B0849583222520S11657662EA0142601459000000015000
B0850023222546S11657690EA0143601464000000015000
B0850063222590S11657653EA0143801468000000015000
B0850103222596S11657559EA0144501477000000015000
B0850143222551S11657472EA0145401488000000015000
B0850183222474S11657451EA0146201491000000015000
B0850223222439S11657491EA0146901505000000015000
B0850263222468S11657517EA0147301506000000015000
B0850303222513S11657482EA0148101517000000015000
B0850343222525S11657395EA0148801519000000015000
B0850383222479S11657307EA0148701514000000015000
B0850423222397S11657269EA0148701521000000015000
B0850463222336S11657299EA0149301529000000015000
B0850503222338S11657346EA0149801533000000015000
B0850543222382S11657348EA0150001536000000015000
B0850583222423S11657289EA0150701542000000015000
B0851023222426S11657196EA0151001545000000015000
B0851063222375S11657114EA0151101546000000015000
B0851103222301S11657100EA0151501552000000015000
B0851143222265S11657148EA0151201544000000015000
B0851183222266S11657207EA0151001545000000015000
B0851223222305S11657221EA0151701553000000015000
B0851263222325S11657146EA0152501556000000015000
B0851303222274S11657064EA0151901548000000015000
B0851343222187S11657031EA0151001537000000015000
B0851383222097S11657030EA0150001534000000015000
B0851423222007S11657030EA0150201538000000000000
B0851463221918S11657031EA0150301537000000000000
B0851503221827S11657034EA0150101534000000000000
B0851543221733S11657038EA0149601528000000000000
B0851583221639S11657039EA0149301527000000000000
B0852023221546S11657040EA0148601516000000000000
B0852063221452S11657040EA0148101513000000000000
B0852103221357S11657038EA0147901511000000000000
B0852143221265S11657038EA0147801512000000000000
B0852183221177S11657040EA0147401504000000000000
B0852223221084S11657042EA0146501492000000000000
B0852263220992S11657043EA0145401483000000000000
B0852303220900S11657044EA0144701474000000000000
B0852343220805S11657039EA0144001472000000000000
B0852383220714S11657035EA0144601480000000000000
B0852423220625S11657029EA0145201487000000000000
B0852463220540S11657021EA0145901495000000000000
B0852503220458S11657012EA0147101502000000000000
B0852543220381S11656999EA0147201505000000000000
B0852583220306S11656987EA0146901498000000000000
B0853023220225S11656978EA0145701485000000000000
B0853063220141S11656971EA0144901480000000000000
B0853103220055S11656966EA0144601478000000000000
B0853143219968S11656962EA0144201472000000000000
B0853183219881S11656961EA0144001474000000000000
B0853223219795S11656961EA0144201475000000000000
B0853263219709S11656961EA0144101472000000000000
B0853303219624S11656964EA0143901469000000000000
B0853343219540S11656969EA0143201460000000000000
B0853383219454S11656973EA0142701456000000000000
B0853423219368S11656971EA0142001449000000000000
B0853463219283S11656971EA0141101438000000000000
B0853503219195S11656973EA0140801439000000000000
B0853543219110S11656977EA0141001440000000000000
B0853583219025S11656981EA0140701435000000000000
B0854023218941S11656983EA0140001427000000000000
B0854063218856S11656984EA0139301419000000000000
B0854103218772S11656983EA0138401409000000000000
B0854143218686S11656983EA0137301397000000000000
B0854183218597S11656981EA0136601393000000000000
B0854223218509S11656978EA0136401393000000000000
B0854263218422S11656975EA0136301392000000000000
B0854303218335S11656974EA0135801385000000000000
B0854343218246S11656974EA0135001376000000000000
B0854383218159S11656978EA0134701374000000000000
B0854423218075S11656990EA0134301367000000000000
B0854463217989S11657001EA0133601361000000000000
B0854503217901S11657005EA0133201358000000000000
B0854543217815S11657007EA0133001355000000000000
B0854583217730S11657010EA0132801354000000000000
B0855023217650S11657018EA0132601351000000000000
B0855063217570S11657033EA0131901340000000000000
B0855103217489S11657048EA0131001332000000000000
B0855143217408S11657066EA0130501329000000000000
B0855183217329S11657090EA0130301329000000000000
B0855223217255S11657118EA0130301325000000000000
B0855263217178S11657148EA0129101310000000000000
B0855303217093S11657177EA0127801298000000000000
B0855343217006S11657202EA0127101296000000000000
B0855383216920S11657222EA0127301297000000000000
B0855423216832S11657241EA0127101293000000000000
B0855463216744S11657256EA0126701286000000000000
B0855503216651S11657268EA0125901278000000000000
B0855543216555S11657274EA0125301270000000000000
B0855583216456S11657278EA0124301262000000000000
B0856023216358S11657278EA0123401252000000000000
B0856063216255S11657276EA0123001251000000000000
B0856103216155S11657272EA0123001249000000000000
B0856143216055S11657269EA0122001235000000000000
B0856183215951S11657265EA0120901224000000000000
B0856223215845S11657260EA0120001217000000000000
B0856263215744S11657259EA0119301210000000000000
B0856303215641S11657256EA0118501200000000000000
B0856343215537S11657252EA0117801195000000000000
B0856383215437S11657250EA0117601192000000000000
B0856423215340S11657247EA0117101187000000000000
B0856463215242S11657244EA0116201176000000000000
B0856503215146S11657244EA0115401170000000000000
B0856543215050S11657247EA0115201169000000000000
B0856583214955S11657248EA0115001166000000000000
B0857023214857S11657248EA0114601162000000000000
B0857063214762S11657250EA0114701164000000000000
B0857103214671S11657251EA0115101170000000000000
B0857143214582S11657250EA0114601161000000000000
B0857183214492S11657248EA0113901152000000000000
B0857223214401S11657248EA0113001144000000000000
B0857263214309S11657246EA0112501138000000000000
B0857303214219S11657243EA0112301137000000000000
B0857343214131S11657242EA0112001134000000000000
B0857383214044S11657241EA0111601130000000000000
B0857423213956S11657237EA0111101124000000000000
B0857463213869S11657230EA0110601118000000000000
B0857503213782S11657226EA0110001114000000000000
B0857543213695S11657221EA0109401106000000000000
B0857583213608S11657217EA0108801099000000000000
B0858023213521S11657215EA0108201093000000000000
B0858063213435S11657216EA0107701089000000000000
B0858103213352S11657217EA0107401085000000000000
B0858143213266S11657215EA0106501073000000000000
B0858183213178S11657209EA0105601065000000000000
B0858223213087S11657202EA0104701057000000000000
B0858263212994S11657191EA0104101049000000000000
B0858303212901S11657178EA0103101040000000000000
B0858343212805S11657168EA0102301030000000000000
B0858383212707S11657160EA0101001015000000000000
B0858423212607S11657156EA0099701003000000000000
B0858463212507S11657152EA0099000996000000000000
B0858503212408S11657148EA0098300988000000000000
B0858543212309S11657143EA0097300976000000000000
B0858583212208S11657140EA0096500969000000000000
B0859023212108S11657138EA0095900966000000000000
B0859063212009S11657138EA0096000966000000000000
B0859103211909S11657138EA0096000965000000000000
B0859143211808S11657139EA0094900952000000000000
B0859183211704S11657138EA0094000945000000000000
B0859223211602S11657134EA0093700943000000000000
B0859263211502S11657131EA0093500940000000000000
B0859303211401S11657129EA0093500940000000000000
B0859343211298S11657124EA0092900929000000000000
B0859383211195S11657114EA0092000924000000000000
B0859423211095S11657107EA0091500921000000000000
B0859463210998S11657099EA0090900910000000000000
B0859503210899S11657092EA0089900899000000000000
B0859543210796S11657086EA0088500884000000000000
B0859583210691S11657078EA0087200868000000000000
B0900023210582S11657072EA0086100858000000000000
B0900063210470S11657065EA0084900844000000000000
B0900103210353S11657057EA0083500829000000000000
B0900143210231S11657048EA0082000810000000000000
B0900183210102S11657039EA0079600783000000000000
B0900223209967S11657029EA0077300762000000000000
B0900263209828S11657017EA0075500742000000000000
B0900303209686S11657005EA0073900724000000000000
B0900343209539S11656995EA0071900702000000000000
B0900383209390S11656984EA0070900695000000000000
B0900423209243S11656974EA0069400676000000000000
B0900463209094S11656964EA0066900646000000000000
B0900503208945S11656955EA0064500622000000000000
B0900543208794S11656947EA0061800589000000000000
B0900583208642S11656942EA0058700555000000000000
B0901023208491S11656938EA0056700548000000000000
B0901063208343S11656934EA0055700533000000000000
B0901103208195S11656932EA0053200497000000000000
B0901143208041S11656936EA0050200468000000000000
B0901183207884S11656942EA0047300440000000000000
B0901223207728S11656952EA0044900411000000000000
B0901263207571S11656969EA0042300391000000000000
B0901303207420S11656988EA0042000400000000000000
B0901343207287S11657021EA0044600435000000000000
B0901383207174S11657060EA0047500466000000000000
B0901423207076S11657099EA0049600481000000000000
B0901463206979S11657131EA0050400489000000000000
B0901503206887S11657156EA0051400496000000000000
B0901543206792S11657172EA0051000489000000000000
B0901583206695S11657174EA0050500484000000000000
B0902023206596S11657159EA0050000478000000000000
B0902063206500S11657118EA0049200469000000000000
B0902103206410S11657053EA0048200458000000000000
B0902143206335S11656964EA0047600455000000000000
B0902183206283S11656858EA0047000445000000000000
B0902223206273S11656743EA0045800432000000000000
B0902263206297S11656640EA0044900423000000000000
B0902303206344S11656557EA0044500420000000000000
B0902343206400S11656496EA0043700410000000000000
B0902383206459S11656458EA0042800400000000000000
B0902423206520S11656442EA0041800392000000000000
B0902463206578S11656449EA0041300387000000000000
B0902503206632S11656471EA0040400371000000000000
B0902543206687S11656496EA0038600353000000000000
B0902583206743S11656523EA0036900338000000000000
B0903023206793S11656552EA0035400323000000000000
B0903063206842S11656578EA0034500309000000000000
B0903103206888S11656606EA0033000291000000000000
B0903143206939S11656636EA0031300275000000000000
B0903183206995S11656669EA0029600256000000000000
B0903223207052S11656705EA0027600236000000000000
B0903263207104S11656739EA0025800218000000000000
B0903303207152S11656769EA0024900210000000000000
B0903343207191S11656791EA0024500207000000000000
B0903383207222S11656806EA0024300206000000000000
B0903423207246S11656819EA0024400206000000000000
B0903463207264S11656826EA0024500206000000000000
B0903503207277S11656828EA0024400205000000000000
B0903543207285S11656828EA0024300205000000000000
B0903583207287S11656826EA0024600204000000000000
B0904023207289S11656825EA0024500204000000000000
B0904063207289S11656825EA0024500204000000000000
B0904103207289S11656825EA0024600204000000000000
B0904143207287S11656823EA0024600204000000000000
B0904183207287S11656823EA0024600204000000000000
G00030000005F8ED4760000000000000000000000000000000000000000000000
G15FBAFBF04F29364A2560AAC8D20D9ABA5D27425000000006543C7637C61E762
G27AF84F3ECA29866105E7B9AC840BA8DA44101AF00000000000000000FB2A173
