ACAM4N6
HFDTE140115
HFFXA050
HFPLTPILOT:JOHN WELSH              
HFGTYGLIDERTYPE:HORNET      
HFGIDGLIDERID:VH-GMY      
HFDTM100GPSDATUM:
HFRFWFIRMWAREVERSION:F2.6
HFRHWHARDWAREVERSION:300 Series Version 2
HFFTYFRTYPE:CAMBRIDGE AERO INSTRUMENTS, 302+
HFGPS:GARMIN,LVS-25,12,18000
HFPRSPRESSALTSENSOR:INTERSEMA, MS5534-AP, 20000
I033638FXA3941ENL4247REX
LCAMSBVER:5FWVER:F26300
C140115040535140115000103
C0000000N00000000WTAKEOFF     
C3207549S11656849EBEVAIR      
C3138316S11646899EGRSSVLLY    
C3155866S11750649ESHACKLTN    
C3231466S11704865EPINGELLY    
C3207549S11656849EBEVAIR      
C0000000N00000000WLANDING     
B0409013207337S11656857EA0024200201000000000000
B0409033207337S11656857EA0024200201000000000000
B0409053207337S11656857EA0024100201000000000000
B0409073207337S11656857EA0024100201000000000000
B0409093207337S11656857EA0024000201000000000000
B0409113207337S11656857EA0024000201000000000000
B0409133207337S11656857EA0024100201000000000000
B0409153207337S11656857EA0024000201000000000000
B0409173207337S11656857EA0024000201000000000000
B0409193207337S11656857EA0024000201000000000000
B0409213207337S11656857EA0024000201000000000000
B0409233207337S11656857EA0024000201000000000000
B0409253207337S11656857EA0024100201000000000000
B0409273207339S11656858EA0024000201000000000000
B0409293207341S11656860EA0024100201000000000000
B0409323207352S11656869EA0023900201000000000000
B0409363207378S11656893EA0024000201000000000000
B0409403207421S11656921EA0023900202000000000000
B0409443207476S11656955EA0023900202000000000000
B0409483207534S11656994EA0024400205000000000000
B0409523207596S11657040EA0024900212000000000000
B0409563207657S11657092EA0025500221000000000000
B0410003207720S11657140EA0026500233000000000000
B0410043207784S11657190EA0027300244000000000000
B0410083207849S11657247EA0027800250000000000000
B0410123207918S11657302EA0028700261000000000000
B0410163207988S11657355EA0030000281000000000000
B0410203208052S11657419EA0032000302000000000000
B0410243208110S11657482EA0034000318000000000000
B0410283208173S11657538EA0035200332000000000000
B0410323208233S11657599EA0036800349000000000000
B0410363208275S11657681EA0038100362000000000000
B0410403208303S11657776EA0039000369000000000000
B0410443208309S11657879EA0039900382000000000000
B0410483208300S11657983EA0041100399000000000000
B0410523208281S11658082EA0043100420000000000000
B0410563208249S11658175EA0044800433000000000000
B0411003208217S11658266EA0046200454000000000000
B0411043208182S11658365EA0047200462000000000000
B0411083208145S11658465EA0048800483000000000000
B0411123208113S11658565EA0051000504000000000000
B0411163208099S11658668EA0053500535000000000000
B0411203208116S11658767EA0056200561000000000000
B0411243208162S11658850EA0057300575000000000000
B0411283208229S11658915EA0058300580000000000000
B0411323208303S11658954EA0058900591000000000000
B0411363208376S11658973EA0061000613000000000000
B0411403208448S11658993EA0062800626000000000000
B0411443208520S11658999EA0063600639000000000000
B0411483208577S11658966EA0064900651000000000000
B0411523208615S11658903EA0065500653000000000000
B0411563208628S11658828EA0066200664000000000000
B0412003208610S11658751EA0067100674000000000000
B0412043208559S11658687EA0068100685000000000000
B0412083208483S11658656EA0069200697000000000000
B0412123208399S11658674EA0070200707000000000000
B0412163208325S11658732EA0070700713000000000000
B0412203208261S11658803EA0071700728000000000000
B0412243208199S11658873EA0073100738000000000000
B0412283208136S11658944EA0073900748000000000000
B0412323208073S11659012EA0075400765000000000000
B0412363208002S11659071EA0077100780000000000000
B0412403207922S11659098EA0078500794000000000000
B0412443207843S11659101EA0080100812000000000000
B0412483207761S11659100EA0080800820000000000000
B0412523207683S11659132EA0081800833000000000000
B0412563207635S11659205EA0082900848000000000000
B0413003207645S11659283EA0083900850000000000000
B0413043207698S11659322EA0083400842000000000000
B0413083207754S11659300EA0082800839000000000000
B0413123207784S11659240EA0081900828000000000000
B0413163207797S11659165EA0080500816000000000000
B0413203207805S11659084EA0079600804000000000000
B0413243207809S11658999EA0078400789000000000000
B0413283207798S11658911EA0076900775000000000000
B0413323207772S11658825EA0075900768000000000000
B0413363207732S11658747EA0075800766000000000000
B0413403207681S11658678EA0075200758000000000000
B0413443207623S11658620EA0074400747000000000000
B0413483207563S11658564EA0073900747000000000000
B0413523207502S11658515EA0073900742000000000000
B0413563207427S11658496EA0073100732000000000000
B0414003207350S11658472EA0071800720000000000000
B0414043207286S11658420EA0071100710000000000000
B0414083207251S11658343EA0070300702000000000000
B0414123207250S11658261EA0070100700000000000000
B0414163207269S11658182EA0069000688000000000000
B0414203207297S11658104EA0068100682000000000000
B0414243207320S11658023EA0067700679000000000000
B0414283207343S11657941EA0067400677000000000000
B0414323207375S11657863EA0067600680000000000000
B0414363207381S11657783EA0069600707000000000000
B0414403207320S11657788EA0072700735000000015000
B0414443207319S11657871EA0074000753000000000000
B0414483207371S11657885EA0076300778000000000000
B0414523207385S11657835EA0077200784000000000000
B0414563207334S11657803EA0078300797000000000000
B0415003207277S11657845EA0079400808000000000000
B0415043207276S11657918EA0080900830000000000000
B0415083207319S11657953EA0082400842000000000000
B0415123207356S11657920EA0082900845000000000000
B0415163207320S11657875EA0083400856000000000000
B0415203207258S11657909EA0084700875000000000000
B0415243207252S11657985EA0086100891000000000000
B0415283207302S11658013EA0087600902000000000000
B0415323207325S11657966EA0088700911000000000000
B0415363207276S11657935EA0090200934000000000000
B0415403207219S11657974EA0091400941000000000000
B0415443207206S11658049EA0092000950000000000000
B0415483207242S11658104EA0092800955000000000000
B0415523207298S11658105EA0093100958000000000000
B0415563207329S11658056EA0093900968000000000000
B0416003207302S11658000EA0095100980000000000000
B0416043207238S11658002EA0096000990000000000000
B0416083207190S11658066EA0096400994000000000000
B0416123207194S11658149EA0097101004000000000000
B0416163207242S11658203EA0097401001000000000000
B0416203207306S11658197EA0096900996000000000000
B0416243207346S11658141EA0097101003000000000000
B0416283207337S11658070EA0098001009000000000000
B0416323207284S11658024EA0098601016000000000000
B0416363207216S11658050EA0100101032000000000000
B0416403207181S11658127EA0101801048000000000000
B0416443207202S11658201EA0103601066000000000000
B0416483207256S11658217EA0104301073000000000000
B0416523207293S11658170EA0104401075000000000000
B0416563207271S11658109EA0104401072000000000000
B0417003207202S11658104EA0104301074000000000000
B0417043207134S11658151EA0104501080000000000000
B0417083207104S11658239EA0105301088000000000000
B0417123207129S11658325EA0105901092000000000000
B0417163207190S11658364EA0105901091000000000000
B0417203207248S11658336EA0106301094000000000000
B0417243207290S11658279EA0106101094000000000000
B0417283207278S11658213EA0107101104000000000000
B0417323207216S11658191EA0107601107000000000000
B0417363207156S11658243EA0108201117000000000000
B0417403207152S11658327EA0109301125000000000000
B0417443207203S11658362EA0109501125000000000000
B0417483207247S11658318EA0109201119000000000000
B0417523207237S11658244EA0108601117000000000000
B0417563207186S11658188EA0108601114000000000000
B0418003207116S11658205EA0108801120000000000000
B0418043207078S11658288EA0109001123000000000000
B0418083207081S11658379EA0109801130000000000000
B0418123207130S11658435EA0110601138000000000000
B0418163207191S11658431EA0110601136000000000000
B0418203207226S11658375EA0110301133000000000000
B0418243207215S11658303EA0110601137000000000000
B0418283207164S11658256EA0110601138000000000000
B0418323207094S11658264EA0110401131000000000000
B0418363207037S11658329EA0110301137000000000000
B0418403207008S11658417EA0111001144000000000000
B0418443207024S11658499EA0111701149000000000000
B0418483207072S11658542EA0112201155000000000000
B0418523207125S11658535EA0112301156000000000000
B0418563207165S11658491EA0112101152000000000000
B0419003207191S11658429EA0112501159000000000000
B0419043207186S11658361EA0112401154000000000000
B0419083207125S11658355EA0112101161000000000000
B0419123207074S11658416EA0111901159000000000000
B0419163207078S11658502EA0112501169000000000000
B0419203207125S11658560EA0113701181000000000000
B0419243207181S11658555EA0115101193000000000000
B0419283207186S11658498EA0115701192000000000000
B0419323207131S11658472EA0115001189000000000000
B0419363207072S11658517EA0115101192000000000000
B0419403207059S11658599EA0116201206000000000000
B0419443207099S11658658EA0116901210000000000000
B0419483207157S11658668EA0117601214000000000000
B0419523207200S11658626EA0117301209000000000000
B0419563207198S11658561EA0116701202000000000000
B0420003207144S11658526EA0116801208000000000000
B0420043207077S11658555EA0117201211000000000000
B0420083207050S11658633EA0117901221000000000000
B0420123207083S11658700EA0119001229000000000000
B0420163207143S11658713EA0118601224000000000000
B0420203207190S11658674EA0117501211000000000000
B0420243207203S11658607EA0116701198000000000000
B0420283207169S11658543EA0115601193000000000000
B0420323207107S11658503EA0115301188000000000000
B0420363207040S11658466EA0114801187000000000000
B0420403206973S11658427EA0114601183000000000000
B0420443206901S11658394EA0114401180000000000000
B0420483206826S11658364EA0113501169000000000000
B0420523206748S11658335EA0112301159000000000000
B0420563206669S11658309EA0111701154000000000000
B0421003206591S11658284EA0111901157000000000000
B0421043206515S11658260EA0111601149000000000000
B0421083206439S11658229EA0110701138000000000000
B0421123206366S11658193EA0109901134000000000000
B0421163206294S11658157EA0109301125000000000000
B0421203206227S11658118EA0108701116000000000000
B0421243206162S11658078EA0107801108000000000000
B0421283206098S11658037EA0107101100000000000000
B0421323206036S11658001EA0106301090000000000000
B0421363205973S11657961EA0105001072000000000000
B0421403205915S11657913EA0104601074000000000000
B0421443205861S11657858EA0104901081000000000000
B0421483205818S11657801EA0105901087000000000000
B0421523205791S11657733EA0106001086000000000000
B0421563205776S11657660EA0106001086000000000000
B0422003205772S11657581EA0105901082000000000000
B0422043205761S11657504EA0106101090000000000000
B0422083205699S11657493EA0108801125000000000000
B0422123205674S11657567EA0112101157000000000000
B0422163205711S11657619EA0113101166000000000000
B0422203205751S11657597EA0112901161000000000000
B0422243205744S11657540EA0112901161000000000000
B0422283205694S11657503EA0113201166000000000000
B0422323205633S11657537EA0113801177000000000000
B0422363205620S11657619EA0115401194000000000000
B0422403205659S11657675EA0116701204000000000000
B0422443205708S11657663EA0117201209000000000000
B0422483205705S11657605EA0117901219000000000000
B0422523205655S11657576EA0118801225000000000000
B0422563205594S11657610EA0119101229000000000000
B0423003205566S11657689EA0120301241000000000000
B0423043205594S11657758EA0121001249000000000000
B0423083205649S11657771EA0121301250000000000000
B0423123205674S11657720EA0121701258000000000000
B0423163205626S11657683EA0122601270000000000000
B0423203205560S11657714EA0123101269000000000000
B0423243205539S11657798EA0123701285000000000000
B0423283205577S11657858EA0124601285000000000000
B0423323205636S11657859EA0124001280000000000000
B0423363205666S11657803EA0124501292000000000000
B0423403205633S11657758EA0126001307000000000000
B0423443205569S11657771EA0126901313000000000000
B0423483205527S11657841EA0127101319000000000000
B0423523205536S11657920EA0127901323000000000000
B0423563205583S11657966EA0127701320000000000000
B0424003205642S11657958EA0127101312000000000000
B0424043205679S11657906EA0127001313000000000000
B0424083205660S11657848EA0127701322000000000000
B0424123205596S11657839EA0128201331000000000000
B0424163205565S11657913EA0129501342000000000000
B0424203205607S11657963EA0130301349000000000000
B0424243205651S11657935EA0130001344000000000000
B0424283205638S11657875EA0130001349000000000000
B0424323205573S11657868EA0130901358000000000000
B0424363205526S11657939EA0131301364000000000000
B0424403205535S11658026EA0131801371000000000000
B0424443205587S11658071EA0132701381000000000000
B0424483205643S11658067EA0133001377000000000000
B0424523205662S11658013EA0132501372000000000000
B0424563205621S11657969EA0133501388000000000000
B0425003205560S11657978EA0134601397000000000000
B0425043205512S11658039EA0134501390000000000000
B0425083205506S11658127EA0133801388000000000000
B0425123205543S11658196EA0134301393000000000000
B0425163205600S11658219EA0134101381000000000000
B0425203205656S11658193EA0132101364000000000000
B0425243205712S11658147EA0130601349000000000000
B0425283205770S11658093EA0129401341000000000000
B0425323205818S11658027EA0129201340000000000000
B0425363205854S11657950EA0128301327000000000000
B0425403205885S11657868EA0127501312000000000000
B0425443205912S11657784EA0126301303000000000000
B0425483205939S11657702EA0126601306000000000000
B0425523205959S11657620EA0126201298000000000000
B0425563205978S11657537EA0125501289000000000000
B0426003206000S11657452EA0124301278000000000000
B0426043206026S11657369EA0123601272000000000000
B0426083206058S11657286EA0123201267000000000000
B0426123206097S11657205EA0122801265000000000000
B0426163206146S11657129EA0122801261000000000000
B0426203206207S11657059EA0121901255000000000000
B0426243206272S11656997EA0121801255000000000000
B0426283206344S11656948EA0121201243000000000000
B0426323206418S11656904EA0119901233000000000000
B0426363206492S11656862EA0120101239000000000000
B0426403206544S11656805EA0121401251000000000000
B0426443206579S11656737EA0120601239000000000000
B0426483206619S11656669EA0119701228000000000000
B0426523206670S11656605EA0119201221000000000000
B0426563206727S11656545EA0118201211000000000000
B0427003206792S11656492EA0117101201000000000000
B0427043206869S11656453EA0116601195000000000000
B0427083206952S11656427EA0115501182000000000000
B0427123207039S11656410EA0114701175000000000000
B0427163207129S11656402EA0114001172000000000000
B0427203207216S11656401EA0114201172000000000000
B0427243207300S11656403EA0113901165000000000000
B0427283207385S11656416EA0113001157000000000000
B0427323207466S11656433EA0112301154000000000000
B0427363207544S11656450EA0112301151000000000000
B0427403207622S11656467EA0111801145000000000000
B0427443207700S11656493EA0111001139000000000000
B0427483207778S11656520EA0111401145000000000000
B0427523207850S11656518EA0112101149000000000000
B0427563207909S11656483EA0112101150000000000000
B0428003207957S11656433EA0111801145000000000000
B0428043207997S11656376EA0111401146000000000000
B0428083208034S11656316EA0111601148000000000000
B0428123208070S11656256EA0112001152000000000000
B0428163208106S11656198EA0111701144000000000000
B0428203208144S11656137EA0110301129000000000000
B0428243208187S11656073EA0109101119000000000000
B0428283208230S11656007EA0108001109000000000000
B0428323208274S11655938EA0107301099000000000000
B0428363208303S11655857EA0106501088000000000000
B0428403208338S11655775EA0105601080000000000000
B0428443208383S11655707EA0104901075000000000000
B0428483208426S11655639EA0104101070000000000000
B0428523208464S11655570EA0104301070000000000000
B0428563208504S11655505EA0104801075000000000000
B0429003208525S11655431EA0105901091000000000000
B0429043208473S11655391EA0107301116000000000000
B0429083208431S11655450EA0109701141000000000000
B0429123208457S11655515EA0109901138000000000000
B0429163208511S11655512EA0110601149000000000000
B0429203208502S11655460EA0111801156000000000000
B0429243208442S11655463EA0111401160000000000000
B0429283208421S11655534EA0112401168000000000000
B0429323208460S11655583EA0112701168000000000000
B0429363208500S11655554EA0113001176000000000000
B0429403208468S11655502EA0113401172000000000000
B0429443208415S11655538EA0113001171000000000000
B0429483208439S11655600EA0114001178000000000000
B0429523208498S11655591EA0113801173000000000000
B0429563208504S11655532EA0114101178000000000000
B0430003208448S11655519EA0113901175000000000000
B0430043208413S11655583EA0114501183000000000000
B0430083208434S11655653EA0114501181000000000000
B0430123208491S11655691EA0114501184000000000000
B0430163208550S11655677EA0115101191000000000000
B0430203208547S11655617EA0114801182000000000000
B0430243208493S11655575EA0114101172000000000000
B0430283208421S11655561EA0112801168000000000000
B0430323208356S11655599EA0113701178000000000000
B0430363208365S11655671EA0115501199000000000000
B0430403208422S11655686EA0115701196000000000000
B0430443208455S11655630EA0115901198000000000000
B0430483208431S11655564EA0115901197000000000000
B0430523208370S11655556EA0116201204000000000000
B0430563208330S11655614EA0117001207000000000000
B0431003208355S11655687EA0117201215000000000000
B0431043208417S11655699EA0117701219000000000000
B0431083208459S11655648EA0118101219000000000000
B0431123208434S11655583EA0117301212000000000000
B0431163208365S11655574EA0117101207000000000000
B0431203208309S11655630EA0116301200000000000000
B0431243208278S11655717EA0115701194000000000000
B0431283208257S11655814EA0116001201000000000000
B0431323208295S11655886EA0117101210000000000000
B0431363208348S11655864EA0118001215000000000000
B0431403208338S11655798EA0118101223000000000000
B0431443208282S11655794EA0119901245000000000000
B0431483208261S11655856EA0121501256000000000000
B0431523208299S11655909EA0121501249000000000000
B0431563208353S11655886EA0121101250000000000000
B0432003208331S11655829EA0122101262000000000000
B0432043208273S11655840EA0122801265000000000000
B0432083208270S11655913EA0123301273000000000000
B0432123208330S11655948EA0123601274000000000000
B0432163208382S11655908EA0124101281000000000000
B0432203208377S11655839EA0124601286000000000000
B0432243208322S11655801EA0124201276000000000000
B0432283208256S11655835EA0123501274000000000000
B0432323208238S11655920EA0124501290000000000000
B0432363208287S11655965EA0126701310000000000000
B0432403208312S11655913EA0127901321000000000000
B0432443208268S11655877EA0128601327000000000000
B0432483208214S11655922EA0128701329000000000000
B0432523208233S11656000EA0129901346000000000000
B0432563208292S11656013EA0130801354000000000000
B0433003208318S11655955EA0131501365000000000000
B0433043208290S11655896EA0132401367000000000000
B0433083208227S11655894EA0132001364000000000000
B0433123208187S11655963EA0132201372000000000000
B0433163208217S11656030EA0134101394000000000000
B0433203208270S11656017EA0135601403000000000000
B0433243208270S11655959EA0136301412000000000000
B0433283208220S11655944EA0137001417000000000000
B0433323208178S11656000EA0137301425000000000000
B0433363208199S11656067EA0138701439000000000000
B0433403208249S11656054EA0139601445000000000000
B0433443208253S11655993EA0139901451000000000000
B0433483208203S11655967EA0140501454000000000000
B0433523208158S11656019EA0140801460000000000000
B0433563208181S11656089EA0141601470000000000000
B0434003208236S11656091EA0142301472000000000000
B0434043208264S11656030EA0142501477000000000000
B0434083208229S11655982EA0143401487000000000000
B0434123208171S11655998EA0143301483000000000000
B0434163208145S11656071EA0142801481000000000000
B0434203208168S11656150EA0142701480000000000000
B0434243208226S11656191EA0143001484000000000000
B0434283208288S11656173EA0143301486000000000000
B0434323208330S11656117EA0143301486000000000000
B0434363208359S11656050EA0143401487000000000000
B0434403208370S11655980EA0143601489000000000000
B0434443208330S11655933EA0143501485000000000000
B0434483208261S11655946EA0142801477000000000000
B0434523208196S11655994EA0141401460000000000000
B0434563208158S11656077EA0140701456000000000000
B0435003208168S11656172EA0140601458000000000000
B0435043208208S11656259EA0140701460000000000000
B0435083208270S11656319EA0141101465000000000000
B0435123208316S11656279EA0143001488000000000000
B0435163208286S11656229EA0144301494000000000000
B0435203208227S11656250EA0144201494000000000000
B0435243208222S11656332EA0144301494000000000000
B0435283208272S11656386EA0144201494000000000000
B0435323208331S11656364EA0144601501000000000000
B0435363208353S11656303EA0145201504000000000000
B0435403208322S11656250EA0145001500000000000000
B0435443208257S11656251EA0144601498000000000000
B0435483208201S11656308EA0144301494000000000000
B0435523208181S11656397EA0144401499000000000000
B0435563208201S11656483EA0145201506000000000000
B0436003208252S11656542EA0145401504000000000000
B0436043208321S11656563EA0145001496000000000000
B0436083208389S11656536EA0143801483000000000000
B0436123208446S11656481EA0142401467000000000000
B0436163208487S11656409EA0142001470000000000000
B0436203208482S11656331EA0142501474000000000000
B0436243208433S11656284EA0142501475000000000000
B0436283208365S11656288EA0142401472000000000000
B0436323208305S11656340EA0142101473000000000000
B0436363208261S11656418EA0141901469000000000000
B0436403208238S11656510EA0141501468000000000000
B0436443208264S11656594EA0141801472000000000000
B0436483208329S11656622EA0142101473000000000000
B0436523208374S11656574EA0142101468000000000000
B0436563208369S11656502EA0141501465000000000000
B0437003208320S11656459EA0141601463000000000000
B0437043208255S11656477EA0141101462000000000000
B0437083208216S11656549EA0140801456000000000000
B0437123208204S11656641EA0140201451000000000000
B0437163208200S11656736EA0140001449000000000000
B0437203208199S11656834EA0139401437000000000000
B0437243208199S11656930EA0137901418000000000000
B0437283208195S11657023EA0136601409000000000000
B0437323208192S11657118EA0135901403000000000000
B0437363208203S11657208EA0136001409000000000000
B0437403208239S11657285EA0136601412000000000000
B0437443208296S11657338EA0137001418000000000000
B0437483208346S11657313EA0139601447000000000000
B0437523208325S11657257EA0139801456000000015000
B0437563208262S11657282EA0139601457000000015000
B0438003208253S11657361EA0139901455000000015000
B0438043208304S11657412EA0139801455000000000000
B0438083208369S11657407EA0140201459000000000000
B0438123208408S11657345EA0140001454000000000000
B0438163208425S11657261EA0139801449000000000000
B0438203208430S11657174EA0138901437000000000000
B0438243208433S11657081EA0137601426000000000000
B0438283208435S11656986EA0136201407000000000000
B0438323208434S11656891EA0134601391000000000000
B0438363208433S11656795EA0133501382000000000000
B0438403208429S11656702EA0133201381000000000000
B0438443208420S11656614EA0133001376000000000000
B0438483208411S11656528EA0132501368000000000000
B0438523208403S11656444EA0131801359000000000000
B0438563208399S11656362EA0131101353000000000000
B0439003208400S11656282EA0130901350000000000000
B0439043208400S11656206EA0130401346000000000000
B0439083208394S11656129EA0129901341000000000000
B0439123208400S11656055EA0130001342000000000000
B0439163208415S11655982EA0130501348000000000000
B0439203208389S11655920EA0131401358000000000000
B0439243208325S11655921EA0132701372000000000000
B0439283208274S11655991EA0132801364000000000000
B0439323208279S11656089EA0131901360000000000000
B0439363208331S11656158EA0132101364000000000000
B0439403208398S11656188EA0132501366000000000000
B0439443208447S11656152EA0132601365000000000000
B0439483208426S11656099EA0132701371000000000000
B0439523208373S11656128EA0134601392000000000000
B0439563208365S11656206EA0135501395000000000000
B0440003208413S11656253EA0135501395000000000000
B0440043208464S11656228EA0135401392000000000000
B0440083208461S11656173EA0134601388000000000000
B0440123208405S11656182EA0135501400000000000000
B0440163208395S11656264EA0136901413000000000000
B0440203208447S11656308EA0137201417000000000000
B0440243208491S11656279EA0137301415000000000000
B0440283208483S11656225EA0136701407000000000000
B0440323208435S11656201EA0136701414000000000000
B0440363208381S11656234EA0137401423000000000000
B0440403208355S11656314EA0138001427000000000000
B0440443208382S11656393EA0138001430000000000000
B0440483208442S11656414EA0138501432000000000000
B0440523208486S11656376EA0138301427000000000000
B0440563208481S11656319EA0137901422000000000000
B0441003208430S11656295EA0137601424000000000000
B0441043208382S11656345EA0138401438000000000000
B0441083208398S11656424EA0139401443000000000000
B0441123208457S11656453EA0139101438000000000000
B0441163208486S11656403EA0139701447000000000000
B0441203208451S11656366EA0139701445000000000000
B0441243208395S11656399EA0139401446000000000000
B0441283208383S11656480EA0140501455000000000000
B0441323208424S11656545EA0140901458000000000000
B0441363208489S11656567EA0140401448000000000000
B0441403208542S11656533EA0139601441000000000000
B0441443208530S11656472EA0139501442000000000000
B0441483208476S11656448EA0139301438000000000000
B0441523208418S11656490EA0139301444000000000000
B0441563208404S11656575EA0140301455000000000000
B0442003208443S11656644EA0141101458000000000000
B0442043208508S11656652EA0140901452000000000000
B0442083208532S11656596EA0140401454000000000000
B0442123208495S11656555EA0141201462000000000000
B0442163208441S11656578EA0141701464000000000000
B0442203208417S11656654EA0141901463000000000000
B0442243208439S11656739EA0141801464000000000000
B0442283208494S11656788EA0142201468000000000000
B0442323208545S11656766EA0141901459000000000000
B0442363208576S11656710EA0140701447000000000000
B0442403208597S11656645EA0139601433000000000000
B0442443208599S11656571EA0138001418000000000000
B0442483208593S11656492EA0136601406000000000000
B0442523208595S11656409EA0135301394000000000000
B0442563208615S11656327EA0134801389000000000000
B0443003208642S11656245EA0134001383000000000000
B0443043208660S11656160EA0133801381000000000000
B0443083208665S11656074EA0133501377000000000000
B0443123208676S11655989EA0133001370000000000000
B0443163208691S11655904EA0132701369000000000000
B0443203208699S11655821EA0132901373000000000000
B0443243208707S11655739EA0133701385000000000000
B0443283208682S11655679EA0136001408000000000000
B0443323208629S11655710EA0137101414000000000000
B0443363208620S11655792EA0137001414000000000000
B0443403208663S11655857EA0137601426000000000000
B0443443208721S11655859EA0139401440000000000000
B0443483208747S11655816EA0140201447000000000000
B0443523208716S11655782EA0140601449000000000000
B0443563208668S11655812EA0140501452000000000000
B0444003208667S11655886EA0141601466000000000000
B0444043208716S11655928EA0142301470000000000000
B0444083208764S11655898EA0142401468000000000000
B0444123208760S11655842EA0142801479000000000000
B0444163208714S11655833EA0143501482000000000000
B0444203208685S11655899EA0143201478000000000000
B0444243208720S11655968EA0143701487000000000000
B0444283208779S11655963EA0144101486000000000000
B0444323208797S11655907EA0144101491000000000000
B0444363208760S11655876EA0145001498000000000000
B0444403208714S11655921EA0144701491000000000000
B0444443208724S11656004EA0145001503000000000000
B0444483208781S11656050EA0145801502000000000000
B0444523208842S11656028EA0145201496000000000000
B0444563208868S11655963EA0144901496000000000000
B0445003208845S11655908EA0146001511000000000000
B0445043208790S11655921EA0146801516000000000000
B0445083208766S11655995EA0147301524000000000000
B0445123208795S11656067EA0147201520000000000000
B0445163208860S11656080EA0146701514000000000000
B0445203208897S11656030EA0147001522000000000000
B0445243208872S11655991EA0148301535000000000000
B0445283208825S11656015EA0148601537000000000000
B0445323208802S11656084EA0148801537000000000000
B0445363208821S11656164EA0148101530000000000000
B0445403208877S11656208EA0148301534000000000000
B0445443208936S11656204EA0148701533000000000000
B0445483208971S11656159EA0147701524000000000000
B0445523208954S11656110EA0147701527000000000000
B0445563208906S11656112EA0147901529000000000000
B0446003208870S11656172EA0147701525000000000000
B0446043208879S11656255EA0147201521000000000000
B0446083208933S11656310EA0147401520000000000000
B0446123208998S11656311EA0146801510000000000000
B0446163209044S11656263EA0145401497000000000000
B0446203209076S11656197EA0143901483000000000000
B0446243209101S11656123EA0142701472000000000000
B0446283209122S11656047EA0142001468000000000000
B0446323209139S11655968EA0141201459000000015000
B0446363209154S11655886EA0140001446000000015000
B0446403209176S11655803EA0139001441000000000000
B0446443209197S11655721EA0139601448000000000000
B0446483209217S11655640EA0139901452000000000000
B0446523209192S11655578EA0141301468000000000000
B0446563209135S11655614EA0143201491000000000000
B0447003209137S11655696EA0144601496000000000000
B0447043209191S11655743EA0143601482000000000000
B0447083209245S11655717EA0142601473000000000000
B0447123209271S11655661EA0142301476000000000000
B0447163209243S11655614EA0143401486000000000000
B0447203209189S11655643EA0143901488000000000000
B0447243209197S11655727EA0144101489000000000000
B0447283209254S11655743EA0143501484000000000000
B0447323209295S11655699EA0143001479000000000000
B0447363209322S11655640EA0142301471000000000000
B0447403209341S11655574EA0141801468000000000000
B0447443209356S11655504EA0141701469000000000000
B0447483209370S11655431EA0141801468000000000000
B0447523209383S11655357EA0141601473000000000000
B0447563209358S11655297EA0142601484000000015000
B0448003209299S11655333EA0143801500000000000000
B0448043209312S11655417EA0145701517000000000000
B0448083209366S11655427EA0146301515000000000000
B0448123209377S11655378EA0146301518000000000000
B0448163209327S11655365EA0146701524000000000000
B0448203209296S11655436EA0147401530000000000000
B0448243209332S11655501EA0148101535000000000000
B0448283209382S11655483EA0148001533000000000000
B0448323209377S11655431EA0148101536000000000000
B0448363209323S11655422EA0148201538000000000000
B0448403209283S11655493EA0148701541000000000000
B0448443209295S11655582EA0148901544000000000000
B0448483209349S11655626EA0149501552000000000000
B0448523209405S11655601EA0149001539000000000000
B0448563209413S11655540EA0149001546000000000000
B0449003209369S11655508EA0150001559000000000000
B0449043209315S11655535EA0151201568000000000000
B0449083209288S11655610EA0151801572000000000000
B0449123209310S11655690EA0152101575000000000000
B0449163209367S11655726EA0152001573000000000000
B0449203209417S11655694EA0151201566000000000000
B0449243209448S11655635EA0151101564000000000000
B0449283209469S11655573EA0151001565000000000000
B0449323209486S11655508EA0151301565000000000000
B0449363209500S11655441EA0151001560000000000000
B0449403209514S11655374EA0150301550000000000000
B0449443209526S11655302EA0149601545000000015000
B0449483209535S11655229EA0148701534000000000000
B0449523209544S11655154EA0147301522000000000000
B0449563209553S11655080EA0146701519000000000000
B0450003209561S11655006EA0146301516000000000000
B0450043209566S11654932EA0146001506000000000000
B0450083209575S11654854EA0144601490000000000000
B0450123209582S11654773EA0143601485000000000000
B0450163209591S11654696EA0143501484000000000000
B0450203209603S11654621EA0143101476000000000000
B0450243209616S11654544EA0141901466000000000000
B0450283209627S11654466EA0141401463000000000000
B0450323209633S11654386EA0141101456000000000000
B0450363209634S11654304EA0140301449000000000000
B0450403209637S11654221EA0139401442000000000000
B0450443209644S11654139EA0139201440000000000000
B0450483209652S11654059EA0139501446000000000000
B0450523209663S11653984EA0139901446000000000000
B0450563209673S11653911EA0139601438000000000000
B0451003209686S11653838EA0138401428000000000000
B0451043209699S11653764EA0138401430000000000000
B0451083209715S11653689EA0139001435000000000000
B0451123209730S11653611EA0140401452000000000000
B0451163209699S11653549EA0143001483000000000000
B0451203209635S11653549EA0144501497000000000000
B0451243209599S11653617EA0144901503000000000000
B0451283209620S11653694EA0145601511000000000000
B0451323209683S11653715EA0146301518000000000000
B0451363209725S11653664EA0147701539000000000000
B0451403209702S11653610EA0150501565000000000000
B0451443209643S11653629EA0151801571000000000000
B0451483209633S11653708EA0152301585000000000000
B0451523209678S11653758EA0154001600000000000000
B0451563209731S11653732EA0155101610000000000000
B0452003209734S11653671EA0156801630000000000000
B0452043209683S11653654EA0158401647000000000000
B0452083209637S11653706EA0159201658000000000000
B0452123209655S11653775EA0160401674000000000000
B0452163209712S11653781EA0161701684000000000000
B0452203209738S11653731EA0163201702000000000000
B0452243209707S11653688EA0164501712000000000000
B0452283209651S11653705EA0164901715000000000000
B0452323209627S11653776EA0165901729000000000000
B0452363209661S11653831EA0167401745000000000000
B0452403209716S11653824EA0168401750000000000000
B0452443209731S11653767EA0169101757000000015000
B0452483209683S11653740EA0170001764000000015000
B0452523209637S11653789EA0170301767000000000000
B0452563209644S11653867EA0171301779000000000000
B0453003209699S11653898EA0172001789000000000000
B0453043209742S11653861EA0173101798000000000000
B0453083209731S11653805EA0174301811000000000000
B0453123209679S11653794EA0174801812000000000000
B0453163209635S11653850EA0174501813000000000000
B0453203209650S11653926EA0175701827000000000000
B0453243209707S11653948EA0176601832000000000000
B0453283209743S11653902EA0177401841000000000000
B0453323209717S11653854EA0178101846000000000000
B0453363209659S11653867EA0178201851000000000000
B0453403209629S11653936EA0179201861000000000000
B0453443209659S11654004EA0180101870000000000000
B0453483209718S11654002EA0180301869000000000000
B0453523209733S11653946EA0180801881000000000000
B0453563209692S11653911EA0181801892000000000000
B0454003209638S11653935EA0182501897000000000000
B0454043209626S11654013EA0182901901000000000000
B0454083209673S11654067EA0183501910000000000000
B0454123209735S11654061EA0183701908000000000000
B0454163209751S11654002EA0184501919000000000000
B0454203209711S11653965EA0185201923000000000000
B0454243209660S11653996EA0185601929000000000000
B0454283209657S11654071EA0185901932000000000000
B0454323209705S11654127EA0185901931000000000000
B0454363209770S11654134EA0185701929000000000000
B0454403209828S11654097EA0185201924000000000000
B0454443209858S11654035EA0185201928000000000000
B0454483209838S11653976EA0185201922000000000000
B0454523209778S11653966EA0184601920000000000000
B0454563209720S11654013EA0183701911000000000000
B0455003209678S11654092EA0183601913000000000000
B0455043209664S11654183EA0184301920000000000000
B0455083209707S11654256EA0184401917000000000000
B0455123209782S11654266EA0183601907000000000000
B0455163209838S11654217EA0183001904000000000000
B0455203209854S11654143EA0183401908000000000000
B0455243209826S11654078EA0183301901000000000000
B0455283209764S11654066EA0183001903000000000000
B0455323209702S11654105EA0182701896000000000000
B0455363209652S11654180EA0181601890000000000000
B0455403209614S11654269EA0181901891000000000000
B0455443209579S11654360EA0181301884000000000000
B0455483209543S11654455EA0181101883000000000000
B0455523209505S11654548EA0181701893000000000000
B0455563209466S11654638EA0182301894000000000000
B0456003209425S11654728EA0182301893000000000000
B0456043209383S11654820EA0181601882000000000000
B0456083209338S11654914EA0181001876000000000000
B0456123209292S11655007EA0180401872000000000000
B0456163209248S11655107EA0179401863000000000000
B0456203209206S11655205EA0179301864000000000000
B0456243209163S11655301EA0178701854000000000000
B0456283209120S11655398EA0178101849000000000000
B0456323209078S11655497EA0177701840000000000000
B0456363209036S11655599EA0176801834000000000000
B0456403208993S11655697EA0176601830000000000000
B0456443208948S11655790EA0176301827000000000000
B0456483208905S11655885EA0176101833000000000000
B0456523208871S11655980EA0176601830000000000000
B0456563208836S11656076EA0175801825000000000000
B0457003208801S11656169EA0175301813000000000000
B0457043208760S11656264EA0174301803000000000000
B0457083208711S11656355EA0173701796000000000000
B0457123208655S11656436EA0173401794000000000000
B0457163208593S11656507EA0172701785000000000000
B0457203208524S11656571EA0171901777000000000000
B0457243208452S11656627EA0171601774000000000000
B0457283208377S11656671EA0171401773000000000000
B0457323208298S11656709EA0171301771000000000000
B0457363208217S11656739EA0170801770000000000000
B0457403208136S11656765EA0171001770000000000000
B0457443208056S11656787EA0170501758000000000000
B0457483207973S11656806EA0169201746000000000000
B0457523207892S11656823EA0168501742000000000000
B0457563207814S11656839EA0168001734000000000000
B0458003207736S11656848EA0167201726000000000000
B0458043207659S11656854EA0166301716000000000000
B0458083207581S11656857EA0165401708000000000000
B0458123207506S11656857EA0164901701000000000000
B0458163207430S11656852EA0164701702000000000000
B0458203207358S11656848EA0164701701000000000000
B0458243207285S11656844EA0164601698000000000000
B0458283207212S11656838EA0163801686000000000000
B0458323207135S11656828EA0162401674000000000000
B0458363207053S11656815EA0161401663000000000000
B0458403206972S11656799EA0159901648000000000000
B0458443206887S11656783EA0158501633000000000000
B0458483206805S11656765EA0157701625000000000000
B0458523206727S11656735EA0157101618000000000000
B0458563206653S11656704EA0156401613000000000000
B0459003206579S11656674EA0155301600000000000000
B0459043206502S11656645EA0154201588000000000000
B0459083206424S11656618EA0153501585000000000000
B0459123206346S11656592EA0153601585000000000000
B0459163206271S11656561EA0153101580000000000000
B0459203206194S11656531EA0152001562000000000000
B0459243206114S11656498EA0150701552000000000000
B0459283206034S11656468EA0150501548000000015000
B0459323205956S11656444EA0151201563000000000000
B0459363205880S11656425EA0152701582000000000000
B0459403205817S11656470EA0155101606000000000000
B0459443205835S11656548EA0155901605000000000000
B0459483205898S11656549EA0156801622000000000000
B0459523205919S11656501EA0159001640000000000000
B0459563205876S11656474EA0159501646000000000000
B0500003205829S11656528EA0160501656000000000000
B0500043205847S11656602EA0161001657000000000000
B0500083205907S11656627EA0161901671000000000000
B0500123205942S11656593EA0162701672000000000000
B0500163205903S11656562EA0162201672000000000000
B0500203205843S11656601EA0162701681000000000000
B0500243205822S11656679EA0163901686000000000000
B0500283205873S11656740EA0162001664000000000000
B0500323205943S11656732EA0162001670000000000000
B0500363205993S11656691EA0161401660000000000000
B0500403205987S11656620EA0159901653000000000000
B0500443205929S11656563EA0159901658000000000000
B0500483205861S11656514EA0160001660000000000000
B0500523205790S11656471EA0159901657000000000000
B0500563205713S11656432EA0159001645000000000000
B0501003205636S11656394EA0157701631000000000000
B0501043205558S11656355EA0155901609000000000000
B0501083205479S11656312EA0154201592000000000000
B0501123205402S11656269EA0153901591000000000000
B0501163205327S11656230EA0155401614000000000000
B0501203205252S11656249EA0158501646000000000000
B0501243205236S11656334EA0160401660000000015000
B0501283205288S11656381EA0161301670000000015000
B0501323205345S11656372EA0161801670000000015000
B0501363205367S11656319EA0162101674000000015000
B0501403205314S11656307EA0163601696000000045000
B0501443205300S11656392EA0165601714000000030000
B0501483205354S11656432EA0167101724000000015000
B0501523205395S11656394EA0168101736000000030000
B0501563205371S11656345EA0167801736000000015000
B0502003205305S11656353EA0168401753000000015000
B0502043205293S11656437EA0170801774000000015000
B0502083205349S11656477EA0171301773000000015000
B0502123205378S11656435EA0171901783000000015000
B0502163205335S11656401EA0173101796000000015000
B0502203205280S11656445EA0174101807000000015000
B0502243205278S11656533EA0174601810000000000000
B0502283205334S11656580EA0174601808000000000000
B0502323205387S11656558EA0174701813000000000000
B0502363205422S11656506EA0174901810000000000000
B0502403205402S11656435EA0173101790000000015000
B0502443205337S11656375EA0170701771000000000000
B0502483205252S11656328EA0169501768000000000000
B0502523205161S11656286EA0170001772000000000000
B0502563205070S11656249EA0168701751000000000000
B0503003204976S11656212EA0167701745000000000000
B0503043204882S11656178EA0166701733000000000000
B0503083204786S11656147EA0165801724000000000000
B0503123204694S11656116EA0164901715000000000000
B0503163204604S11656089EA0164601712000000000000
B0503203204517S11656063EA0164601712000000000000
B0503243204435S11656035EA0165001713000000000000
B0503283204356S11656004EA0164501704000000000000
B0503323204277S11655972EA0163701700000000000000
B0503363204200S11655939EA0164401711000000000000
B0503403204132S11655899EA0165901722000000000000
B0503443204076S11655851EA0166501726000000000000
B0503483204015S11655809EA0166401722000000000000
B0503523203945S11655775EA0165601713000000000000
B0503563203868S11655751EA0165001709000000000000
B0504003203790S11655730EA0165101711000000000000
B0504043203711S11655710EA0165101710000000000000
B0504083203634S11655687EA0164401705000000000000
B0504123203558S11655666EA0164101700000000000000
B0504163203480S11655648EA0163001684000000000000
B0504203203400S11655629EA0161401669000000000000
B0504243203320S11655608EA0160701657000000000000
B0504283203237S11655587EA0159401646000000000000
B0504323203153S11655561EA0159001643000000000000
B0504363203073S11655532EA0159001646000000000000
B0504403202994S11655504EA0159801655000000000000
B0504443202922S11655471EA0160701665000000000000
B0504483202856S11655430EA0161501672000000000000
B0504523202793S11655382EA0162301678000000000000
B0504563202747S11655317EA0162301677000000000000
B0505003202696S11655255EA0160301653000000000000
B0505043202617S11655215EA0158601639000000000000
B0505083202529S11655187EA0157701634000000000000
B0505123202442S11655161EA0158001637000000000000
B0505163202358S11655127EA0158601646000000000000
B0505203202297S11655071EA0160801667000000000000
B0505243202285S11655005EA0162801688000000000000
B0505283202298S11654943EA0162801680000000000000
B0505323202279S11654880EA0160501650000000000000
B0505363202212S11654833EA0157801628000000000000
B0505403202134S11654803EA0157001627000000000000
B0505443202055S11654780EA0156401617000000000000
B0505483201973S11654759EA0155301604000000000000
B0505523201889S11654737EA0153501587000000000000
B0505563201803S11654709EA0152501577000000000000
B0506003201718S11654685EA0152001570000000000000
B0506043201632S11654657EA0150801558000000000000
B0506083201548S11654629EA0150301558000000000000
B0506123201466S11654602EA0150401555000000000000
B0506163201387S11654566EA0149801548000000000000
B0506203201311S11654524EA0149501545000000000000
B0506243201240S11654477EA0149101542000000000000
B0506283201168S11654430EA0148801541000000000000
B0506323201107S11654374EA0149101542000000000000
B0506363201070S11654301EA0149601547000000000000
B0506403201038S11654225EA0149201536000000000000
B0506443200998S11654150EA0147801523000000000000
B0506483200938S11654087EA0146201505000000000000
B0506523200868S11654032EA0144101487000000000000
B0506563200793S11653978EA0143301479000000000000
B0507003200716S11653929EA0142701471000000000000
B0507043200637S11653887EA0142101465000000000000
B0507083200556S11653849EA0141301455000000000000
B0507123200474S11653811EA0140601447000000000000
B0507163200394S11653771EA0139001428000000000000
B0507203200313S11653731EA0137601416000000000000
B0507243200234S11653692EA0136801412000000000000
B0507283200156S11653654EA0136501407000000000000
B0507323200079S11653617EA0136701410000000000000
B0507363200002S11653586EA0136801408000000000000
B0507403159939S11653536EA0137401414000000000000
B0507443159911S11653467EA0138201420000000000000
B0507483159903S11653395EA0137401406000000000000
B0507523159885S11653317EA0135201382000000000000
B0507563159864S11653231EA0133201364000000000000
B0508003159864S11653144EA0132901365000000000000
B0508043159880S11653064EA0133101369000000000000
B0508083159884S11652980EA0132401360000000000000
B0508123159855S11652899EA0132001358000000000000
B0508163159818S11652823EA0132101361000000000000
B0508203159785S11652746EA0132201360000000000000
B0508243159779S11652666EA0133001364000000000000
B0508283159805S11652590EA0132901365000000000000
B0508323159828S11652509EA0133601380000000000000
B0508363159807S11652441EA0136201412000000000000
B0508403159753S11652466EA0137701424000000000000
B0508443159762S11652540EA0139001442000000000000
B0508483159815S11652555EA0141201461000000000000
B0508523159846S11652502EA0142801480000000000000
B0508563159816S11652450EA0144501495000000000000
B0509003159762S11652467EA0144901498000000000000
B0509043159750S11652540EA0146001513000000000000
B0509083159799S11652566EA0148001534000000000000
B0509123159832S11652518EA0149501549000000000000
B0509163159805S11652468EA0150801564000000015000
B0509203159751S11652486EA0150901559000000015000
B0509243159746S11652558EA0151401577000000000000
B0509283159790S11652588EA0153901600000000000000
B0509323159828S11652548EA0154801606000000015000
B0509363159807S11652489EA0155601618000000015000
B0509403159754S11652486EA0156901630000000000000
B0509443159724S11652544EA0157701636000000000000
B0509483159750S11652603EA0158901651000000000000
B0509523159801S11652600EA0160301661000000000000
B0509563159814S11652541EA0160501665000000000000
B0510003159768S11652515EA0161301671000000000000
B0510043159728S11652566EA0161301672000000000000
B0510083159744S11652637EA0162401685000000000000
B0510123159797S11652646EA0163401697000000000000
B0510163159819S11652589EA0164501709000000000000
B0510203159781S11652545EA0164801708000000000000
B0510243159725S11652571EA0164401705000000000000
B0510283159698S11652644EA0164401708000000000000
B0510323159737S11652693EA0165901726000000000000
B0510363159786S11652667EA0167301733000000000000
B0510403159786S11652606EA0167401734000000000000
B0510443159738S11652575EA0167301730000000000000
B0510483159682S11652610EA0166101721000000000000
B0510523159625S11652670EA0163701680000000000000
B0510563159538S11652718EA0159401646000000000000
B0511003159438S11652749EA0157301627000000000000
B0511043159335S11652767EA0155901613000000000000
B0511083159234S11652776EA0154901606000000000000
B0511123159134S11652782EA0154401604000000000000
B0511163159038S11652784EA0154401601000000000000
B0511203158944S11652784EA0154501602000000000000
B0511243158852S11652783EA0154301599000000000000
B0511283158761S11652780EA0153901592000000000000
B0511323158670S11652776EA0153601595000000000000
B0511363158581S11652774EA0154301602000000000000
B0511403158496S11652771EA0154701601000000000000
B0511443158411S11652769EA0154401596000000000000
B0511483158325S11652765EA0153601586000000000000
B0511523158239S11652759EA0152701577000000000000
B0511563158154S11652754EA0152001568000000000000
B0512003158068S11652746EA0151101559000000000000
B0512043157983S11652739EA0150101550000000000000
B0512083157900S11652730EA0149501543000000000000
B0512123157818S11652723EA0149001539000000000000
B0512163157740S11652717EA0148801537000000000000
B0512203157664S11652705EA0148401531000000000000
B0512243157587S11652694EA0147901525000000000000
B0512283157506S11652683EA0147201515000000000000
B0512323157424S11652666EA0146401511000000000000
B0512363157341S11652648EA0145701504000000000000
B0512403157257S11652628EA0145401499000000000000
B0512443157172S11652607EA0145401504000000000000
B0512483157093S11652585EA0146101513000000000000
B0512523157023S11652553EA0147001514000000000000
B0512563156965S11652499EA0147201520000000000000
B0513003156941S11652427EA0148301530000000000000
B0513043156933S11652350EA0148501529000000000000
B0513083156926S11652269EA0147901523000000000000
B0513123156908S11652190EA0147501522000000000000
B0513163156868S11652119EA0146201501000000000000
B0513203156796S11652076EA0144901495000000000000
B0513243156716S11652055EA0144101487000000000000
B0513283156633S11652041EA0143401480000000000000
B0513323156544S11652031EA0142701470000000000000
B0513363156453S11652028EA0141201455000000000000
B0513403156360S11652024EA0140301442000000000000
B0513443156266S11652020EA0138901430000000000000
B0513483156174S11652017EA0138401428000000000000
B0513523156084S11652017EA0137901420000000000000
B0513563155993S11652016EA0136701410000000000000
B0514003155903S11652013EA0136501406000000000000
B0514043155816S11652007EA0136201404000000000000
B0514083155732S11651995EA0135501394000000000000
B0514123155649S11651978EA0134501387000000000000
B0514163155564S11651961EA0133801373000000000000
B0514203155474S11651943EA0131701351000000000000
B0514243155382S11651926EA0130101336000000000000
B0514283155290S11651913EA0129201330000000000000
B0514323155200S11651900EA0128601323000000000000
B0514363155110S11651888EA0127801313000000000000
B0514403155021S11651875EA0127201309000000000000
B0514443154932S11651864EA0127401311000000000000
B0514483154845S11651849EA0127001308000000000000
B0514523154759S11651836EA0127201314000000000000
B0514563154677S11651813EA0128401322000000000000
B0515003154633S11651749EA0129601337000000000000
B0515043154627S11651675EA0130801348000000000000
B0515083154620S11651600EA0130901344000000000000
B0515123154609S11651519EA0130601344000000000000
B0515163154642S11651456EA0132601376000000000000
B0515203154687S11651501EA0135601411000000000000
B0515243154658S11651560EA0136701417000000000000
B0515283154610S11651540EA0137101423000000000000
B0515323154623S11651488EA0138701439000000000000
B0515363154675S11651489EA0139401439000000000000
B0515403154716S11651552EA0139201440000000000000
B0515443154707S11651630EA0140501458000000000000
B0515483154655S11651657EA0141901469000000000000
B0515523154633S11651612EA0142901481000000000000
B0515563154679S11651589EA0144501494000000000000
B0516003154716S11651649EA0145001500000000000000
B0516043154700S11651727EA0145501502000000000000
B0516083154642S11651762EA0146301511000000000000
B0516123154601S11651731EA0146901515000000000000
B0516163154612S11651675EA0147001515000000000000
B0516203154659S11651636EA0147701522000000000000
B0516243154719S11651669EA0148401538000000000000
B0516283154732S11651749EA0149601550000000000000
B0516323154690S11651812EA0151301565000000000000
B0516363154632S11651822EA0151901567000000000000
B0516403154594S11651782EA0151601562000000000000
B0516443154584S11651718EA0151501566000000000000
B0516483154615S11651667EA0152801578000000000000
B0516523154672S11651671EA0153501585000000000000
B0516563154715S11651731EA0153701588000000000000
B0517003154736S11651813EA0154701599000000000000
B0517043154789S11651868EA0155601607000000000000
B0517083154843S11651839EA0156801622000000000000
B0517123154822S11651792EA0158401640000000000000
B0517163154768S11651809EA0159801660000000000000
B0517203154755S11651879EA0161801675000000000000
B0517243154804S11651927EA0162301677000000000000
B0517283154856S11651903EA0162901689000000000000
B0517323154844S11651859EA0164001708000000000000
B0517363154792S11651864EA0165601727000000000000
B0517403154758S11651921EA0167501741000000000000
B0517443154774S11651996EA0167701740000000000000
B0517483154832S11652030EA0167901744000000000000
B0517523154876S11651998EA0169101756000000000000
B0517563154861S11651953EA0170101766000000000000
B0518003154806S11651966EA0170501771000000000000
B0518043154779S11652044EA0171701787000000000000
B0518083154813S11652117EA0173001796000000000000
B0518123154872S11652122EA0173501805000000000000
B0518163154889S11652076EA0174501818000000000000
B0518203154848S11652056EA0175401823000000000000
B0518243154796S11652102EA0175601826000000000000
B0518283154789S11652187EA0176501837000000000000
B0518323154840S11652236EA0177201840000000000000
B0518363154891S11652212EA0177101840000000000000
B0518403154909S11652156EA0177501847000000000000
B0518443154869S11652132EA0178401854000000000000
B0518483154826S11652189EA0179401865000000000000
B0518523154848S11652267EA0180101870000000000000
B0518563154908S11652285EA0180201869000000000000
B0519003154923S11652232EA0179701862000000000000
B0519043154874S11652197EA0179701868000000000000
B0519083154809S11652182EA0179701870000000000000
B0519123154736S11652174EA0179701866000000000000
B0519163154658S11652172EA0179401862000000000000
B0519203154576S11652172EA0178501849000000000000
B0519243154486S11652172EA0176701832000000000000
B0519283154391S11652173EA0174601811000000000000
B0519323154293S11652174EA0173301801000000000000
B0519363154193S11652177EA0173001798000000000000
B0519403154096S11652178EA0172201791000000000000
B0519443153999S11652176EA0172101790000000000000
B0519483153905S11652168EA0173301805000000000000
B0519523153817S11652158EA0173401795000000000000
B0519563153725S11652143EA0172501782000000000000
B0520003153630S11652126EA0171301768000000000000
B0520043153533S11652108EA0169801757000000000000
B0520083153437S11652090EA0169001749000000000000
B0520123153344S11652072EA0168701746000000000000
B0520163153250S11652054EA0167801734000000000000
B0520203153159S11652035EA0167101729000000000000
B0520243153069S11652017EA0167101729000000000000
B0520283152980S11652002EA0166501718000000000000
B0520323152887S11651985EA0165101705000000000000
B0520363152794S11651966EA0164701704000000000000
B0520403152701S11651951EA0164101696000000000000
B0520443152610S11651933EA0163801695000000000000
B0520483152523S11651909EA0164301699000000000000
B0520523152436S11651882EA0163301684000000000000
B0520563152347S11651852EA0162701679000000000000
B0521003152257S11651820EA0161801672000000000000
B0521043152170S11651786EA0161601669000000000000
B0521083152081S11651755EA0160601656000000000000
B0521123151992S11651719EA0159301644000000000000
B0521163151903S11651686EA0159201648000000000000
B0521203151817S11651653EA0159701649000000000000
B0521243151732S11651623EA0159201642000000000000
B0521283151643S11651597EA0158701640000000000000
B0521323151556S11651569EA0158301637000000000000
B0521363151470S11651541EA0158601639000000000000
B0521403151385S11651521EA0158201633000000000000
B0521443151301S11651500EA0157301624000000000000
B0521483151217S11651475EA0156401610000000000000
B0521523151132S11651448EA0153901579000000000000
B0521563151043S11651422EA0152401568000000000000
B0522003150953S11651400EA0151301556000000000000
B0522043150862S11651379EA0150201545000000000000
B0522083150771S11651358EA0149901544000000000000
B0522123150684S11651337EA0150201550000000000000
B0522163150597S11651319EA0150501550000000000000
B0522203150510S11651302EA0150501552000000000000
B0522243150421S11651280EA0149901544000000000000
B0522283150333S11651257EA0149001532000000000000
B0522323150246S11651232EA0148201524000000000000
B0522363150160S11651205EA0146801509000000000000
B0522403150075S11651175EA0146101499000000000000
B0522443149992S11651142EA0145001488000000000000
B0522483149906S11651103EA0143401472000000000000
B0522523149821S11651060EA0142201462000000000000
B0522563149735S11651020EA0141601454000000000000
B0523003149645S11650986EA0140701447000000000000
B0523043149555S11650955EA0140001439000000000000
B0523083149467S11650924EA0139701437000000000000
B0523123149380S11650894EA0139401433000000000000
B0523163149293S11650865EA0138801424000000000000
B0523203149203S11650837EA0137801418000000000000
B0523243149120S11650808EA0138601430000000000000
B0523283149054S11650763EA0139901440000000000000
B0523323149015S11650694EA0140701448000000000000
B0523363148978S11650626EA0140701444000000000000
B0523403148925S11650566EA0140401441000000000000
B0523443148853S11650526EA0139001433000000000000
B0523483148775S11650495EA0138901438000000000000
B0523523148700S11650499EA0140901462000000000000
B0523563148655S11650565EA0142201466000000000000
B0524003148617S11650647EA0141101451000000000000
B0524043148558S11650716EA0140801455000000000000
B0524083148504S11650705EA0144501502000000000000
B0524123148517S11650660EA0145401493000000000000
B0524163148580S11650669EA0144901496000000000000
B0524203148616S11650734EA0146401514000000000000
B0524243148593S11650800EA0146701511000000000000
B0524283148534S11650812EA0147301521000000000000
B0524323148509S11650768EA0149301543000000000000
B0524363148539S11650728EA0149901546000000000000
B0524403148600S11650744EA0149701545000000000000
B0524443148631S11650819EA0150601559000000000000
B0524483148616S11650898EA0151601569000000000000
B0524523148565S11650945EA0152901584000000000000
B0524563148512S11650932EA0154101594000000000000
B0525003148506S11650877EA0155601609000000000000
B0525043148553S11650847EA0157101623000000000000
B0525083148612S11650867EA0157601628000000000000
B0525123148651S11650934EA0158501642000000000000
B0525163148652S11651017EA0159201646000000000000
B0525203148613S11651088EA0159301648000000000000
B0525243148551S11651115EA0160701663000000000000
B0525283148504S11651086EA0162101682000000000000
B0525323148506S11651032EA0163201688000000000000
B0525363148557S11651006EA0163201687000000000000
B0525403148622S11651036EA0163501696000000000000
B0525443148661S11651114EA0164901711000000000000
B0525483148651S11651194EA0166201723000000000000
B0525523148605S11651240EA0167301736000000000000
B0525563148560S11651225EA0168801750000000000000
B0526003148557S11651175EA0169501757000000000000
B0526043148599S11651134EA0170801771000000000000
B0526083148661S11651149EA0171501782000000000000
B0526123148705S11651215EA0172501790000000000000
B0526163148708S11651300EA0172801790000000000000
B0526203148669S11651359EA0173201796000000000000
B0526243148613S11651371EA0173601802000000000000
B0526283148580S11651335EA0175101819000000000000
B0526323148614S11651296EA0176501830000000000000
B0526363148675S11651329EA0177101841000000000000
B0526403148686S11651410EA0178701852000000000000
B0526443148644S11651461EA0179101858000000000000
B0526483148600S11651444EA0179901864000000000000
B0526523148609S11651389EA0180901879000000000000
B0526563148669S11651387EA0182701900000000000000
B0527003148709S11651450EA0184001903000000000000
B0527043148703S11651536EA0183401896000000000000
B0527083148653S11651592EA0183601906000000000000
B0527123148609S11651570EA0185301924000000000000
B0527163148632S11651524EA0186901942000000000000
B0527203148696S11651539EA0188501954000000000000
B0527243148731S11651612EA0189101961000000000000
B0527283148713S11651687EA0189501964000000000000
B0527323148658S11651729EA0189201954000000000000
B0527363148587S11651743EA0187301932000000000000
B0527403148500S11651736EA0185201918000000000000
B0527443148410S11651722EA0185001920000000000000
B0527483148317S11651700EA0184601917000000000000
B0527523148223S11651675EA0183801905000000000000
B0527563148128S11651645EA0183001905000000000000
B0528003148036S11651612EA0182901898000000000000
B0528043147945S11651575EA0181501883000000000000
B0528083147854S11651537EA0180801881000000000000
B0528123147765S11651502EA0180801878000000000000
B0528163147676S11651471EA0179801868000000000000
B0528203147585S11651439EA0179001861000000000000
B0528243147495S11651407EA0178701858000000000000
B0528283147409S11651384EA0179201863000000000000
B0528323147331S11651362EA0179501869000000000000
B0528363147256S11651345EA0179301860000000000000
B0528403147175S11651329EA0177201834000000000000
B0528443147089S11651313EA0174801810000000000000
B0528483147002S11651289EA0173701802000000000000
B0528523146919S11651266EA0172901795000000000000
B0528563146838S11651244EA0173301804000000000000
B0529003146768S11651220EA0175601831000000000000
B0529043146705S11651199EA0177401849000000000000
B0529083146643S11651180EA0178601865000000000000
B0529123146581S11651183EA0180301879000000000000
B0529163146542S11651248EA0181301882000000000000
B0529203146560S11651326EA0181001881000000000000
B0529243146623S11651346EA0181701878000000000000
B0529283146680S11651315EA0180801873000000000000
B0529323146690S11651241EA0179601863000000000000
B0529363146666S11651163EA0180401877000000000000
B0529403146608S11651129EA0180901881000000000000
B0529443146534S11651114EA0177601838000000000000
B0529483146442S11651088EA0174501814000000000000
B0529523146346S11651058EA0173601807000000000000
B0529563146251S11651025EA0173301800000000000000
B0530003146157S11650993EA0172601795000000000000
B0530043146066S11650960EA0172101792000000000000
B0530083145979S11650930EA0172101787000000000000
B0530123145893S11650902EA0171601783000000000000
B0530163145809S11650873EA0170701769000000000000
B0530203145722S11650845EA0169601764000000000000
B0530243145635S11650819EA0169001756000000000000
B0530283145549S11650791EA0168401749000000000000
B0530323145467S11650761EA0168001749000000000000
B0530363145389S11650730EA0168401752000000000000
B0530403145314S11650696EA0168601751000000000000
B0530443145239S11650664EA0168301747000000000000
B0530483145161S11650634EA0167201730000000000000
B0530523145077S11650605EA0165201713000000000000
B0530563144990S11650574EA0163501697000000000000
B0531003144903S11650542EA0162601691000000000000
B0531043144820S11650512EA0162201685000000000000
B0531083144738S11650482EA0161501677000000000000
B0531123144656S11650452EA0160601663000000000000
B0531163144575S11650422EA0159501653000000000000
B0531203144493S11650393EA0158401644000000000000
B0531243144414S11650364EA0158001640000000000000
B0531283144337S11650335EA0157301629000000000000
B0531323144259S11650306EA0156101620000000000000
B0531363144184S11650278EA0155701614000000000000
B0531403144107S11650249EA0155801617000000000000
B0531443144032S11650218EA0155401608000000000000
B0531483143956S11650184EA0155001605000000000000
B0531523143882S11650145EA0154101597000000000000
B0531563143804S11650105EA0154001601000000000000
B0532003143729S11650066EA0155401616000000000000
B0532043143655S11650070EA0157801641000000000000
B0532083143637S11650144EA0159201650000000000000
B0532123143695S11650176EA0159101648000000000000
B0532163143748S11650140EA0159001648000000000000
B0532203143790S11650083EA0158901647000000000000
B0532243143824S11650015EA0158801646000000000000
B0532283143854S11649942EA0159101650000000000000
B0532323143880S11649867EA0159401655000000000000
B0532363143899S11649789EA0159501655000000000000
B0532403143904S11649707EA0159701659000000000000
B0532443143869S11649636EA0159501656000000000000
B0532483143811S11649582EA0160201666000000000000
B0532523143750S11649599EA0163101699000000000000
B0532563143757S11649680EA0165001714000000000000
B0533003143821S11649711EA0165701726000000000000
B0533043143865S11649672EA0166601730000000000000
B0533083143841S11649620EA0167001737000000000000
B0533123143791S11649651EA0168501756000000000000
B0533163143802S11649727EA0169801767000000000000
B0533203143863S11649755EA0170401771000000000000
B0533243143915S11649723EA0171201778000000000000
B0533283143932S11649662EA0171301781000000000000
B0533323143910S11649606EA0171501782000000000000
B0533363143859S11649578EA0172001792000000000000
B0533403143803S11649594EA0173301806000000000000
B0533443143759S11649650EA0174401818000000000000
B0533483143746S11649727EA0175301827000000000000
B0533523143782S11649790EA0176201834000000000000
B0533563143843S11649798EA0176701841000000000000
B0534003143882S11649754EA0178501860000000000000
B0534043143865S11649706EA0179801870000000000000
B0534083143811S11649710EA0180301875000000000000
B0534123143773S11649773EA0181501887000000000000
B0534163143791S11649846EA0182501897000000000000
B0534203143850S11649877EA0182901902000000000000
B0534243143906S11649854EA0183501916000000000000
B0534283143928S11649801EA0185001928000000000000
B0534323143911S11649747EA0185601933000000000000
B0534363143863S11649717EA0185601932000000000000
B0534403143795S11649690EA0183801906000000000000
B0534443143712S11649662EA0181401880000000000000
B0534483143621S11649632EA0179401869000000000000
B0534523143529S11649600EA0179601875000000000000
B0534563143438S11649574EA0179701870000000000000
B0535003143347S11649548EA0179101866000000000000
B0535043143257S11649525EA0177701848000000000000
B0535083143162S11649499EA0176101833000000000000
B0535123143072S11649473EA0175901834000000000000
B0535163142984S11649446EA0175701823000000000000
B0535203142896S11649417EA0174401810000000000000
B0535243142808S11649381EA0173701805000000000000
B0535283142730S11649337EA0173801808000000000000
B0535323142659S11649291EA0174101810000000000000
B0535363142591S11649244EA0173801805000000000000
B0535403142522S11649196EA0173301800000000000000
B0535443142454S11649151EA0172401790000000000000
B0535483142383S11649105EA0171801782000000000000
B0535523142317S11649061EA0171701783000000000000
B0535563142249S11649019EA0170801768000000000000
B0536003142177S11648974EA0169101751000000000000
B0536043142105S11648924EA0168101746000000000000
B0536083142035S11648878EA0168001743000000000000
B0536123141962S11648832EA0166901729000000000000
B0536163141889S11648788EA0165701716000000000000
B0536203141815S11648742EA0165001712000000000000
B0536243141742S11648700EA0165001712000000000000
B0536283141672S11648659EA0165501717000000000000
B0536323141603S11648619EA0164701703000000000000
B0536363141529S11648577EA0163401687000000000000
B0536403141458S11648531EA0162301679000000000000
B0536443141384S11648485EA0162001678000000000000
B0536483141316S11648436EA0163501691000000000000
B0536523141261S11648371EA0163301686000000000000
B0536563141211S11648299EA0162201673000000000000
B0537003141154S11648230EA0161701675000000000000
B0537043141096S11648167EA0162701689000000000000
B0537083141040S11648107EA0163801698000000000000
B0537123140983S11648047EA0163901695000000000000
B0537163140922S11647986EA0162801681000000000000
B0537203140853S11647925EA0162201680000000000000
B0537243140787S11647862EA0161401670000000000000
B0537283140717S11647804EA0159601649000000000000
B0537323140641S11647747EA0158101636000000000000
B0537363140566S11647689EA0157201626000000000000
B0537403140487S11647636EA0156301614000000000000
B0537443140407S11647583EA0155201603000000000000
B0537483140329S11647530EA0154701597000000000000
B0537523140251S11647474EA0153701588000000000000
B0537563140176S11647420EA0152801582000000000000
B0538003140102S11647366EA0151801566000000000000
B0538043140028S11647310EA0150001546000000000000
B0538083139950S11647258EA0148401533000000000000
B0538123139872S11647210EA0148001529000000000000
B0538163139798S11647164EA0148001528000000000000
B0538203139727S11647120EA0147501520000000000000
B0538243139656S11647077EA0146401507000000000000
B0538283139582S11647029EA0144601487000000000000
B0538323139506S11646982EA0143101473000000000000
B0538363139428S11646938EA0142401470000000000000
B0538403139352S11646902EA0143101479000000000000
B0538443139278S11646869EA0143901490000000000000
B0538483139209S11646837EA0145101497000000000000
B0538523139139S11646807EA0145401500000000000000
B0538563139066S11646778EA0145301499000000000000
B0539003138992S11646748EA0144101480000000000000
B0539043138911S11646713EA0141701455000000000000
B0539083138828S11646678EA0140401444000000000000
B0539123138745S11646644EA0138801425000000000000
B0539163138658S11646612EA0137501416000000000000
B0539203138572S11646579EA0137101414000000000000
B0539243138490S11646547EA0136901416000000000000
B0539283138412S11646514EA0137301419000000000000
B0539323138339S11646478EA0137701422000000000000
B0539363138266S11646456EA0137801421000000000000
B0539403138196S11646479EA0138401429000000000000
B0539443138147S11646539EA0138701429000000000000
B0539483138121S11646621EA0137601412000000000000
B0539523138114S11646721EA0136001399000000000000
B0539563138121S11646829EA0134901387000000000000
B0540003138132S11646943EA0134401386000000000000
B0540043138147S11647056EA0134001382000000000000
B0540083138160S11647166EA0133601372000000000000
B0540123138171S11647276EA0132901363000000000000
B0540163138184S11647388EA0131301344000000000000
B0540203138191S11647506EA0130001337000000000000
B0540243138200S11647619EA0130001337000000000000
B0540283138210S11647732EA0129601328000000000000
B0540323138223S11647847EA0128001315000000000000
B0540363138239S11647962EA0127101306000000000000
B0540403138255S11648077EA0126301297000000000000
B0540443138269S11648194EA0125601286000000000000
B0540483138281S11648310EA0124701275000000000000
B0540523138305S11648424EA0124101276000000000000
B0540563138334S11648536EA0124401273000000000000
B0541003138347S11648646EA0125501295000000000000
B0541043138357S11648741EA0128401323000000000000
B0541083138418S11648780EA0130601344000000000000
B0541123138451S11648729EA0132901367000000000000
B0541163138414S11648692EA0134101376000000000000
B0541203138373S11648732EA0135101385000000000000
B0541243138391S11648802EA0136001397000000000000
B0541283138452S11648822EA0137201410000000000000
B0541323138477S11648767EA0138301422000000000000
B0541363138438S11648732EA0139601436000000000000
B0541403138392S11648771EA0140401444000000000000
B0541443138391S11648852EA0140501445000000000000
B0541483138442S11648913EA0141301457000000000000
B0541523138507S11648905EA0142401470000000000000
B0541563138526S11648844EA0143601480000000000000
B0542003138485S11648802EA0144301488000000000000
B0542043138435S11648833EA0145901505000000000000
B0542083138430S11648908EA0146501506000000000000
B0542123138472S11648975EA0146701511000000000000
B0542163138534S11648967EA0148001528000000000000
B0542203138550S11648911EA0148901533000000000000
B0542243138504S11648878EA0149201538000000000000
B0542283138451S11648906EA0149601544000000000000
B0542323138438S11648987EA0150201551000000000000
B0542363138470S11649062EA0150801553000000000000
B0542403138538S11649086EA0151101563000000000000
B0542443138586S11649045EA0152001570000000000000
B0542483138598S11648975EA0151701563000000000000
B0542523138581S11648904EA0151801568000000000000
B0542563138520S11648895EA0152701578000000000000
B0543003138485S11648958EA0153401586000000000000
B0543043138489S11649048EA0152901576000000000000
B0543083138505S11649151EA0152701577000000000000
B0543123138524S11649252EA0153401585000000000000
B0543163138583S11649300EA0154601595000000000000
B0543203138613S11649256EA0155201603000000000000
B0543243138567S11649227EA0154801600000000000000
B0543283138508S11649275EA0155001603000000000000
B0543323138479S11649364EA0154701595000000000000
B0543363138481S11649468EA0154001593000000000000
B0543403138491S11649580EA0154001584000000015000
B0543443138499S11649689EA0153301581000000000000
B0543483138507S11649801EA0152201564000000000000
B0543523138515S11649920EA0149701539000000000000
B0543563138521S11650045EA0148701535000000000000
B0544003138524S11650170EA0148101525000000000000
B0544043138526S11650295EA0147301520000000000000
B0544083138534S11650418EA0147601523000000000000
B0544123138547S11650538EA0148101529000000000000
B0544163138560S11650655EA0147701520000000000000
B0544203138581S11650770EA0147001513000000000000
B0544243138604S11650886EA0146201505000000000000
B0544283138616S11651002EA0146701518000000000000
B0544323138624S11651112EA0147401516000000000000
B0544363138641S11651224EA0147001516000000000000
B0544403138669S11651329EA0148901543000000000000
B0544443138699S11651426EA0150301551000000000000
B0544483138729S11651518EA0150801554000000000000
B0544523138767S11651608EA0150801551000000000000
B0544563138803S11651701EA0150701547000000000000
B0545003138823S11651800EA0150201550000000000000
B0545043138885S11651834EA0151501562000000000000
B0545083138906S11651779EA0151001549000000000000
B0545123138854S11651764EA0149501532000000000000
B0545163138803S11651834EA0147801518000000000000
B0545203138776S11651931EA0147001508000000000000
B0545243138775S11652041EA0145101490000000000000
B0545283138786S11652155EA0143001466000000000000
B0545323138803S11652276EA0140701447000000000000
B0545363138825S11652398EA0139201432000000000000
B0545403138851S11652523EA0138001416000000000000
B0545443138872S11652649EA0137401416000000000000
B0545483138892S11652767EA0137401413000000000000
B0545523138924S11652880EA0136801400000000000000
B0545563138960S11652991EA0136601405000000000000
B0546003139005S11653094EA0136501397000000000000
B0546043139050S11653201EA0135101376000000000000
B0546083139079S11653317EA0134601376000000000000
B0546123139085S11653428EA0135001380000000000000
B0546163139097S11653541EA0133501364000000000000
B0546203139124S11653654EA0132401353000000000000
B0546243139166S11653762EA0131101342000000000000
B0546283139217S11653864EA0129901329000000000000
B0546323139270S11653967EA0128301312000000000000
B0546363139326S11654074EA0126501291000000000000
B0546403139384S11654176EA0125701287000000000000
B0546443139443S11654278EA0125101282000000000000
B0546483139497S11654377EA0124901279000000000000
B0546523139552S11654474EA0124501276000000000000
B0546563139604S11654568EA0124801281000000000000
B0547003139655S11654657EA0124901280000000000000
B0547043139705S11654746EA0123901272000000000000
B0547083139761S11654829EA0123501262000000000000
B0547123139821S11654908EA0122201246000000000000
B0547163139885S11654993EA0120101224000000000000
B0547203139950S11655080EA0118001205000000000000
B0547243140020S11655164EA0116401192000000000000
B0547283140095S11655245EA0115701183000000000000
B0547323140172S11655324EA0114401172000000000000
B0547363140246S11655410EA0112701152000000000000
B0547403140314S11655501EA0111501143000000000000
B0547443140385S11655579EA0112101148000000000000
B0547483140455S11655653EA0111301137000000000000
B0547523140526S11655726EA0110701133000000000000
B0547563140600S11655791EA0109501117000000000000
B0548003140676S11655857EA0108401113000000000000
B0548043140743S11655925EA0109801125000000000000
B0548083140800S11656002EA0109601120000000000000
B0548123140858S11656077EA0109401119000000000000
B0548163140912S11656152EA0109801127000000000000
B0548203140968S11656221EA0110301130000000000000
B0548243141031S11656269EA0110401128000000000000
B0548283141102S11656273EA0110101124000000000000
B0548323141138S11656215EA0109901122000000000000
B0548363141134S11656137EA0109501116000000000000
B0548403141107S11656063EA0108401102000000000000
B0548443141042S11656032EA0107701099000000000000
B0548483140975S11656077EA0107601097000000000000
B0548523140947S11656169EA0107301088000000000000
B0548563140961S11656273EA0106401083000000000000
B0549003140996S11656372EA0106501088000000000000
B0549043141030S11656472EA0106601087000000000000
B0549083141068S11656566EA0107401101000000000000
B0549123141130S11656591EA0108801107000000000000
B0549163141133S11656536EA0108101102000000000000
B0549203141074S11656528EA0108801108000000000000
B0549243141021S11656578EA0108701107000000000000
B0549283141001S11656667EA0108401105000000000000
B0549323141033S11656753EA0108701110000000000000
B0549363141098S11656786EA0109101112000000000000
B0549403141150S11656749EA0109201115000000000000
B0549443141138S11656689EA0109301116000000000000
B0549483141078S11656687EA0109501118000000000000
B0549523141022S11656744EA0109501113000000000000
B0549563140983S11656827EA0109301116000000000000
B0550003140973S11656922EA0109301116000000000000
B0550043140988S11657018EA0108301103000000000000
B0550083141016S11657117EA0107601096000000000000
B0550123141053S11657215EA0106901088000000000000
B0550163141094S11657315EA0107301094000000000000
B0550203141125S11657413EA0108401111000000000000
B0550243141146S11657514EA0108601100000000000000
B0550283141178S11657618EA0107201090000000000000
B0550323141221S11657719EA0106801085000000000000
B0550363141264S11657820EA0106601081000000000000
B0550403141304S11657926EA0104901057000000000000
B0550443141345S11658037EA0102701034000000000000
B0550483141384S11658151EA0100801013000000000000
B0550523141420S11658265EA0098900995000000000000
B0550563141455S11658379EA0097300975000000000000
B0551003141490S11658495EA0095300958000000000000
B0551043141528S11658609EA0094000945000000000000
B0551083141567S11658721EA0093100936000000000000
B0551123141609S11658830EA0092100926000000000000
B0551163141650S11658941EA0091400919000000000000
B0551203141690S11659048EA0091400919000000000000
B0551243141728S11659150EA0091200915000000000000
B0551283141768S11659249EA0091100919000000000000
B0551323141806S11659341EA0091700920000000000000
B0551363141844S11659432EA0091400919000000000000
B0551403141883S11659522EA0091200912000000000000
B0551443141926S11659614EA0090200905000000000000
B0551483141970S11659704EA0090000902000000000000
B0551523142026S11659778EA0090000905000000000000
B0551563142091S11659838EA0090300912000000000000
B0552003142158S11659883EA0091600925000000000000
B0552043142208S11659847EA0092600935000000000000
B0552083142170S11659808EA0093800945000000000000
B0552123142123S11659857EA0094100945000000000000
B0552163142134S11659939EA0094200949000000000000
B0552203142196S11659958EA0095300962000000000000
B0552243142216S11659908EA0096900975000000000000
B0552283142173S11659880EA0096500969000000000000
B0552323142127S11659928EA0096800976000000000000
B0552363142127S11700010EA0097000977000000000000
B0552403142178S11700062EA0097300983000000000000
B0552443142220S11700023EA0098600998000000000000
B0552483142204S11659972EA0098900998000000000000
B0552523142151S11659967EA0098900995000000000000
B0552563142100S11700021EA0098400988000000000000
B0553003142070S11700107EA0097400981000000000000
B0553043142049S11700205EA0097400988000000000000
B0553083142078S11700288EA0098601004000000000000
B0553123142125S11700268EA0100901025000000000000
B0553163142096S11700229EA0101701034000000000000
B0553203142039S11700262EA0102501044000000000000
B0553243142045S11700341EA0103801056000000000000
B0553283142100S11700367EA0104701064000000000000
B0553323142126S11700327EA0105501072000000000000
B0553363142092S11700290EA0106801088000000000000
B0553403142036S11700301EA0107701096000000000000
B0553443141997S11700366EA0108401104000000000000
B0553483142009S11700446EA0108501101000000000000
B0553523142069S11700483EA0107901096000000000000
B0553563142126S11700459EA0107901103000000000000
B0554003142121S11700407EA0109501124000000000000
B0554043142064S11700426EA0110901134000000000000
B0554083142043S11700505EA0111201137000000000000
B0554123142082S11700570EA0111501141000000000000
B0554163142132S11700556EA0112101145000000000000
B0554203142134S11700502EA0112801153000000000000
B0554243142078S11700493EA0114001162000000000000
B0554283142031S11700554EA0114201165000000000000
B0554323142038S11700641EA0114201166000000000000
B0554363142092S11700700EA0113901161000000000000
B0554403142160S11700702EA0114001170000000000000
B0554443142194S11700653EA0115301182000000000000
B0554483142187S11700597EA0115901184000000000000
B0554523142142S11700558EA0115201179000000000000
B0554563142075S11700531EA0115301175000000000000
B0555003142005S11700562EA0114101164000000000000
B0555043141991S11700657EA0113601156000000000000
B0555083141999S11700761EA0112601151000000000000
B0555123141993S11700865EA0112501151000000000000
B0555163141978S11700970EA0112101147000000000000
B0555203141958S11701074EA0111901143000000000000
B0555243141935S11701178EA0111001124000000000000
B0555283141908S11701285EA0109401118000000000000
B0555323141885S11701393EA0108601103000000000000
B0555363141867S11701503EA0106701083000000000000
B0555403141843S11701616EA0104601063000000000000
B0555443141820S11701731EA0103401055000000000000
B0555483141805S11701843EA0102801045000000000000
B0555523141789S11701954EA0101401029000000000000
B0555563141763S11702061EA0100901026000000000000
B0556003141732S11702161EA0100401014000000000000
B0556043141698S11702262EA0099101005000000000000
B0556083141658S11702356EA0099101007000000000000
B0556123141629S11702454EA0100001019000000000000
B0556163141679S11702516EA0102101041000000000000
B0556203141714S11702470EA0102801039000000000000
B0556243141676S11702431EA0103301049000000000000
B0556283141623S11702461EA0104201052000000000000
B0556323141606S11702548EA0103501043000000000000
B0556363141619S11702650EA0103701054000000000000
B0556403141679S11702684EA0106101080000000000000
B0556443141696S11702634EA0107101090000000000000
B0556483141648S11702612EA0107101091000000000000
B0556523141606S11702677EA0108001102000000000000
B0556563141640S11702753EA0109501121000000000000
B0557003141697S11702745EA0110401126000000000000
B0557043141705S11702686EA0110301128000000000000
B0557083141657S11702665EA0111701145000000000000
B0557123141615S11702717EA0113101156000000000000
B0557163141645S11702788EA0113901164000000000000
B0557203141701S11702776EA0115201180000000000000
B0557243141689S11702729EA0116401190000000000000
B0557283141635S11702749EA0116901196000000000000
B0557323141623S11702828EA0117801210000000000000
B0557363141675S11702871EA0119301226000000000000
B0557403141706S11702829EA0120601235000000000000
B0557443141664S11702805EA0121401246000000000000
B0557483141622S11702858EA0122601257000000000000
B0557523141633S11702940EA0124001274000000000000
B0557563141685S11702976EA0126001295000000000000
B0558003141727S11702945EA0127101304000000000000
B0558043141706S11702897EA0128301318000000000000
B0558083141653S11702919EA0129401326000000000000
B0558123141644S11703000EA0130901345000000000000
B0558163141694S11703039EA0132501369000000000000
B0558203141727S11703001EA0134301384000000000000
B0558243141692S11702964EA0135301394000000000000
B0558283141637S11702997EA0136201405000000000000
B0558323141627S11703078EA0137601421000000000000
B0558363141670S11703130EA0139401441000000000000
B0558403141720S11703115EA0141201459000000000000
B0558443141731S11703063EA0142901477000000000000
B0558483141687S11703040EA0144401489000000000000
B0558523141644S11703089EA0145601503000000000000
B0558563141651S11703163EA0147501523000000000000
B0559003141702S11703195EA0149201538000000000000
B0559043141742S11703158EA0150501556000000000000
B0559083141727S11703113EA0152101574000000000000
B0559123141675S11703113EA0153201582000000000000
B0559163141636S11703170EA0154101593000000000000
B0559203141655S11703243EA0154801602000000000000
B0559243141714S11703252EA0156201619000000000000
B0559283141726S11703200EA0158101640000000000000
B0559323141683S11703174EA0159701654000000000000
B0559363141638S11703215EA0160501661000000000000
B0559403141644S11703292EA0160601661000000000000
B0559443141700S11703334EA0161801675000000000000
B0559483141731S11703292EA0163701696000000000000
B0559523141690S11703262EA0164901708000000000000
B0559563141646S11703310EA0165801717000000000000
B0600003141663S11703386EA0166901727000000000000
B0600043141723S11703405EA0167601740000000000000
B0600083141742S11703357EA0169101758000000000000
B0600123141694S11703345EA0170201766000000000000
B0600163141655S11703405EA0171001777000000000000
B0600203141675S11703479EA0172201788000000000000
B0600243141736S11703494EA0173401804000000000000
B0600283141766S11703444EA0174501813000000000000
B0600323141727S11703408EA0176001827000000000000
B0600363141675S11703447EA0176601832000000000000
B0600403141662S11703527EA0177001836000000000000
B0600443141703S11703588EA0178601857000000000000
B0600483141753S11703573EA0180501871000000000000
B0600523141753S11703518EA0180801873000000000000
B0600563141700S11703499EA0181401882000000000000
B0601003141655S11703553EA0182401892000000000000
B0601043141663S11703635EA0183001898000000000000
B0601083141715S11703685EA0183601910000000000000
B0601123141759S11703655EA0185201925000000000000
B0601163141746S11703603EA0185901932000000000000
B0601203141692S11703603EA0186801941000000000000
B0601243141657S11703665EA0187501947000000000000
B0601283141679S11703735EA0188601958000000000000
B0601323141736S11703744EA0189701969000000000000
B0601363141762S11703700EA0190901980000000000000
B0601403141729S11703666EA0191301983000000000000
B0601443141675S11703679EA0191301982000000000000
B0601483141640S11703752EA0189401957000000000000
B0601523141649S11703864EA0188101949000000000000
B0601563141671S11703981EA0188801961000000000000
B0602003141693S11704094EA0190101977000000000000
B0602043141716S11704203EA0190501970000000000000
B0602083141741S11704318EA0188501949000000000000
B0602123141767S11704440EA0186901935000000000000
B0602163141793S11704563EA0185801926000000000000
B0602203141818S11704686EA0185201920000000000000
B0602243141843S11704805EA0185401924000000000000
B0602283141875S11704921EA0185101919000000000000
B0602323141913S11705035EA0184101904000000000000
B0602363141944S11705159EA0183001890000000000000
B0602403141969S11705285EA0182101886000000000000
B0602443141992S11705408EA0181801883000000000000
B0602483142017S11705528EA0181401879000000000000
B0602523142045S11705645EA0180601869000000000000
B0602563142077S11705765EA0179501855000000000000
B0603003142106S11705886EA0179801867000000000000
B0603043142132S11706003EA0180401868000000000000
B0603083142156S11706118EA0180301866000000000000
B0603123142184S11706237EA0179701860000000000000
B0603163142216S11706359EA0179201849000000000000
B0603203142242S11706487EA0177601837000000000000
B0603243142261S11706617EA0176501825000000000000
B0603283142274S11706753EA0174901807000000000000
B0603323142299S11706885EA0174001803000000000000
B0603363142329S11707013EA0173701799000000000000
B0603403142360S11707137EA0173201794000000000000
B0603443142395S11707260EA0172801790000000000000
B0603483142430S11707381EA0172401785000000000000
B0603523142463S11707499EA0172001777000000000000
B0603563142493S11707618EA0170701760000000000000
B0604003142522S11707739EA0168901745000000000000
B0604043142551S11707858EA0167701736000000000000
B0604083142580S11707975EA0167101729000000000000
B0604123142610S11708090EA0167001728000000000000
B0604163142628S11708209EA0166901726000000000000
B0604203142645S11708328EA0165901712000000000000
B0604243142656S11708448EA0165101711000000000000
B0604283142668S11708564EA0165201709000000000000
B0604323142676S11708679EA0164501696000000000000
B0604363142694S11708791EA0164401701000000000000
B0604403142716S11708904EA0163301681000000000000
B0604443142762S11709012EA0161101662000000000000
B0604483142818S11709120EA0159501649000000000000
B0604523142877S11709230EA0158601644000000000000
B0604563142940S11709337EA0158501642000000000000
B0605003143003S11709442EA0158401639000000000000
B0605043143055S11709558EA0157301626000000000000
B0605083143100S11709676EA0156901623000000000000
B0605123143130S11709800EA0156301618000000000000
B0605163143144S11709923EA0156401623000000000000
B0605203143137S11710038EA0157601635000000000000
B0605243143133S11710144EA0159101651000000000000
B0605283143133S11710246EA0160501664000000000000
B0605323143133S11710345EA0161401670000000000000
B0605363143135S11710445EA0160801654000000000000
B0605403143144S11710554EA0158201628000000000000
B0605443143163S11710668EA0156101610000000000000
B0605483143195S11710780EA0156001617000000000000
B0605523143232S11710884EA0157501634000000000000
B0605563143260S11710988EA0158901647000000000000
B0606003143284S11711087EA0159501653000000000000
B0606043143313S11711184EA0160101651000000000000
B0606083143343S11711286EA0158401629000000000000
B0606123143377S11711392EA0157001622000000000000
B0606163143405S11711499EA0157701632000000000000
B0606203143426S11711603EA0158401636000000000000
B0606243143448S11711707EA0157901627000000000000
B0606283143470S11711815EA0156901617000000000000
B0606323143488S11711927EA0156001607000000000000
B0606363143509S11712038EA0154901597000000000000
B0606403143533S11712153EA0154101585000000000000
B0606443143562S11712267EA0152501568000000000000
B0606483143601S11712382EA0150401543000000000000
B0606523143660S11712490EA0148301520000000000000
B0606563143729S11712591EA0145701497000000000000
B0607003143804S11712692EA0143701482000000000000
B0607043143878S11712791EA0143401482000000000000
B0607083143951S11712883EA0143501484000000000000
B0607123144020S11712974EA0142901471000000000000
B0607163144089S11713065EA0142001467000000000000
B0607203144159S11713153EA0141101454000000000000
B0607243144229S11713237EA0139801441000000000000
B0607283144302S11713322EA0138301424000000000000
B0607323144375S11713409EA0136801409000000000000
B0607363144450S11713493EA0135501393000000000000
B0607403144527S11713580EA0133501368000000000000
B0607443144609S11713669EA0131601353000000000000
B0607483144691S11713757EA0130101337000000000000
B0607523144774S11713845EA0129101331000000000000
B0607563144853S11713933EA0128801327000000000000
B0608003144930S11714021EA0128301323000000000000
B0608043145007S11714109EA0128001317000000000000
B0608083145083S11714200EA0127401311000000000000
B0608123145154S11714293EA0128501331000000000000
B0608163145215S11714372EA0130701358000000000000
B0608203145275S11714442EA0131901361000000000000
B0608243145342S11714499EA0131801356000000000000
B0608283145411S11714563EA0130401335000000000000
B0608323145473S11714646EA0128801323000000000000
B0608363145524S11714741EA0127701311000000000000
B0608403145566S11714846EA0126101288000000000000
B0608443145603S11714958EA0123901267000000000000
B0608483145642S11715070EA0122201251000000000000
B0608523145692S11715174EA0121501245000000000000
B0608563145753S11715273EA0120001222000000000000
B0609003145808S11715379EA0118501211000000000000
B0609043145853S11715490EA0117901206000000000000
B0609083145888S11715607EA0116901191000000000000
B0609123145921S11715724EA0115701181000000000000
B0609163145960S11715840EA0114701169000000000000
B0609203146013S11715944EA0114101166000000000000
B0609243146077S11716031EA0114401175000000000000
B0609283146144S11716106EA0115301182000000000000
B0609323146216S11716166EA0115401180000000000000
B0609363146292S11716213EA0114901173000000000000
B0609403146377S11716248EA0113801160000000000000
B0609443146465S11716270EA0112701149000000000000
B0609483146555S11716284EA0111901142000000000000
B0609523146645S11716313EA0111401129000000000000
B0609563146727S11716377EA0110301115000000000000
B0610003146792S11716468EA0108601099000000000000
B0610043146845S11716573EA0106701084000000000000
B0610083146896S11716679EA0106101078000000000000
B0610123146944S11716785EA0105201068000000000000
B0610163146997S11716887EA0103601053000000000000
B0610203147059S11716975EA0103001048000000000000
B0610243147131S11717047EA0103001046000000000000
B0610283147208S11717106EA0102301035000000000000
B0610323147290S11717155EA0101001023000000000000
B0610363147373S11717198EA0100301019000000000000
B0610403147456S11717237EA0099401004000000000000
B0610443147543S11717274EA0098200995000000000000
B0610483147631S11717297EA0097300982000000000000
B0610523147721S11717311EA0095700967000000000000
B0610563147812S11717324EA0093900945000000000000
B0611003147904S11717335EA0092300929000000000000
B0611043147995S11717342EA0091700922000000000000
B0611083148085S11717354EA0090400905000000000000
B0611123148177S11717366EA0089500901000000000000
B0611163148265S11717361EA0089300898000000000000
B0611203148349S11717340EA0090200908000000000000
B0611243148380S11717277EA0093000938000000000000
B0611283148335S11717249EA0094600952000000000000
B0611323148284S11717297EA0095300957000000000000
B0611363148281S11717381EA0095400955000000000000
B0611403148333S11717443EA0094700952000000000000
B0611443148401S11717436EA0095600967000000000000
B0611483148391S11717383EA0097300992000000000000
B0611523148340S11717413EA0098701004000000000000
B0611563148345S11717489EA0099001000000000000000
B0612003148402S11717539EA0098901005000000000000
B0612043148440S11717504EA0100601025000000000000
B0612083148401S11717474EA0102201042000000000000
B0612123148354S11717518EA0103701053000000000000
B0612163148349S11717600EA0104001054000000000000
B0612203148402S11717640EA0104801067000000000000
B0612243148426S11717595EA0106101084000000015000
B0612283148380S11717574EA0107501100000000000000
B0612323148343S11717634EA0108801111000000000000
B0612363148366S11717709EA0109101113000000000000
B0612403148423S11717714EA0110101128000000000000
B0612443148423S11717661EA0111501142000000000000
B0612483148370S11717660EA0113001154000000000000
B0612523148335S11717723EA0113901162000000000000
B0612563148354S11717799EA0114701168000000000000
B0613003148411S11717816EA0115301179000000000000
B0613043148431S11717766EA0116201192000000000000
B0613083148387S11717744EA0117601208000000000000
B0613123148341S11717792EA0118801214000000000000
B0613163148349S11717874EA0118801215000000000000
B0613203148406S11717911EA0119401224000000000000
B0613243148461S11717885EA0120401236000000000000
B0613283148458S11717833EA0121701248000000000000
B0613323148397S11717843EA0122601258000000000000
B0613363148363S11717914EA0124301276000000000000
B0613403148389S11717991EA0125401284000000000000
B0613443148452S11718022EA0125801292000000000000
B0613483148499S11717982EA0127001306000000000000
B0613523148476S11717931EA0128501322000000000000
B0613563148417S11717950EA0129501328000000000000
B0614003148393S11718030EA0130301344000000000000
B0614043148432S11718104EA0131701354000000000000
B0614083148499S11718107EA0132501364000000000000
B0614123148512S11718051EA0134101387000000000000
B0614163148465S11718022EA0135101394000000000000
B0614203148409S11718064EA0136101405000000000000
B0614243148404S11718147EA0137601418000000000000
B0614283148457S11718197EA0138201424000000000000
B0614323148509S11718171EA0139401440000000000000
B0614363148500S11718119EA0141101458000000000000
B0614403148448S11718111EA0142201467000000000000
B0614443148405S11718171EA0142901473000000000000
B0614483148418S11718251EA0143901487000000000000
B0614523148474S11718278EA0144701491000000000000
B0614563148513S11718238EA0144901498000000000000
B0615003148495S11718187EA0145801510000000000000
B0615043148436S11718203EA0147101519000000000000
B0615083148409S11718280EA0147901526000000000000
B0615123148445S11718350EA0148701536000000000000
B0615163148504S11718358EA0149501545000000000000
B0615203148522S11718308EA0150301552000000000000
B0615243148482S11718273EA0151101564000000000000
B0615283148426S11718299EA0152501575000000000000
B0615323148401S11718380EA0152301568000000000000
B0615363148432S11718462EA0151901566000000000000
B0615403148495S11718483EA0152301576000000000000
B0615443148545S11718449EA0153001580000000000000
B0615483148583S11718389EA0153001583000000000000
B0615523148599S11718319EA0154001598000000000000
B0615563148548S11718295EA0155501611000000000000
B0616003148501S11718358EA0156401616000000000000
B0616043148518S11718441EA0157301627000000000000
B0616083148583S11718471EA0158401643000000000000
B0616123148642S11718444EA0159601653000000000000
B0616163148656S11718384EA0159901656000000000000
B0616203148616S11718333EA0159501649000000000000
B0616243148547S11718345EA0159601655000000000000
B0616283148497S11718415EA0160601665000000000000
B0616323148476S11718505EA0161301669000000000000
B0616363148463S11718602EA0161601672000000000000
B0616403148454S11718704EA0161201664000000000000
B0616443148447S11718815EA0159401645000000000000
B0616483148440S11718934EA0157501626000000000000
B0616523148435S11719057EA0156301615000000000000
B0616563148423S11719183EA0155201602000000000000
B0617003148410S11719313EA0154301593000000000000
B0617043148393S11719442EA0153301581000000000000
B0617083148379S11719572EA0152001569000000000000
B0617123148366S11719705EA0150701550000000000000
B0617163148356S11719840EA0148701542000000000000
B0617203148348S11719963EA0151401578000000000000
B0617243148333S11720074EA0153801591000000000000
B0617283148317S11720184EA0153001579000000000000
B0617323148296S11720299EA0152701579000000000000
B0617363148274S11720412EA0152501574000000000000
B0617403148252S11720527EA0151001559000000000000
B0617443148233S11720647EA0149901543000000000000
B0617483148220S11720771EA0148401526000000000000
B0617523148209S11720898EA0146901513000000000000
B0617563148202S11721028EA0145101492000000000000
B0618003148207S11721159EA0143401477000000000000
B0618043148218S11721289EA0141901458000000000000
B0618083148209S11721423EA0139901437000000000000
B0618123148180S11721549EA0138201420000000000000
B0618163148146S11721673EA0137301411000000000000
B0618203148103S11721783EA0137001408000000000000
B0618243148047S11721878EA0136901407000000000000
B0618283147994S11721973EA0136201396000000000000
B0618323147958S11722080EA0135301389000000000000
B0618363147953S11722195EA0134801382000000000000
B0618403147976S11722310EA0133501368000000000000
B0618443148014S11722424EA0132301355000000000000
B0618483148057S11722540EA0131101345000000000000
B0618523148102S11722654EA0130801342000000000000
B0618563148138S11722776EA0130501346000000015000
B0619003148168S11722892EA0132501369000000000000
B0619043148201S11723000EA0133901380000000000000
B0619083148271S11723047EA0135101387000000000000
B0619123148300S11722997EA0134601377000000000000
B0619163148257S11722964EA0134401381000000000000
B0619203148198S11722947EA0135101391000000000000
B0619243148155S11723007EA0136901410000000000000
B0619283148200S11723079EA0137601417000000000000
B0619323148250S11723060EA0138501429000000000000
B0619363148236S11723020EA0139601441000000000000
B0619403148183S11723027EA0140701449000000000000
B0619443148153S11723101EA0140901449000000000000
B0619483148190S11723177EA0141301454000000000000
B0619523148253S11723189EA0141801458000000000000
B0619563148284S11723146EA0141501458000000000000
B0620003148288S11723086EA0142101467000000000000
B0620043148241S11723064EA0143301487000000000000
B0620083148215S11723138EA0145201502000000000000
B0620123148258S11723213EA0145501498000000000000
B0620163148318S11723204EA0145701508000000000000
B0620203148328S11723153EA0147401530000000000000
B0620243148281S11723157EA0149001540000000000000
B0620283148272S11723242EA0149801548000000000000
B0620323148332S11723294EA0149801544000000000000
B0620363148369S11723257EA0150701566000000000000
B0620403148328S11723239EA0153001584000000000000
B0620443148296S11723309EA0154001590000000000000
B0620483148332S11723390EA0154401591000000000000
B0620523148400S11723403EA0154501598000000000000
B0620563148422S11723359EA0156701625000000000000
B0621003148379S11723341EA0158801642000000000000
B0621043148340S11723400EA0160101653000000000000
B0621083148367S11723485EA0160601662000000000000
B0621123148434S11723510EA0160801667000000000000
B0621163148467S11723465EA0162501690000000000000
B0621203148439S11723426EA0164201703000000000000
B0621243148387S11723464EA0165701722000000000000
B0621283148378S11723551EA0167201730000000000000
B0621323148428S11723620EA0167901739000000000000
B0621363148491S11723620EA0168601749000000000000
B0621403148509S11723576EA0170201766000000000000
B0621443148476S11723542EA0171001771000000000000
B0621483148421S11723569EA0172201790000000000000
B0621523148397S11723651EA0173601798000000000000
B0621563148436S11723733EA0173601798000000000000
B0622003148508S11723755EA0174501812000000000000
B0622043148544S11723719EA0176001829000000000000
B0622083148518S11723681EA0176801837000000000000
B0622123148469S11723715EA0178501855000000000000
B0622163148469S11723806EA0179601863000000000000
B0622203148528S11723866EA0179801868000000000000
B0622243148590S11723855EA0181001882000000000000
B0622283148595S11723805EA0182201892000000000000
B0622323148545S11723790EA0182401897000000000000
B0622363148506S11723861EA0183801913000000000000
B0622403148541S11723948EA0185001924000000000000
B0622443148608S11723958EA0186301938000000000000
B0622483148627S11723915EA0187301950000000000000
B0622523148590S11723893EA0188201955000000000000
B0622563148544S11723945EA0189501973000000000000
B0623003148543S11724034EA0190701980000000000000
B0623043148597S11724104EA0190901984000000000000
B0623083148658S11724099EA0192201998000000000000
B0623123148660S11724057EA0193202006000000000000
B0623163148609S11724050EA0193002006000000000000
B0623203148566S11724114EA0194702025000000000000
B0623243148583S11724204EA0195402026000000000000
B0623283148649S11724258EA0195102026000000000000
B0623323148703S11724232EA0195902046000000000000
B0623363148697S11724188EA0197402052000000000000
B0623403148647S11724179EA0197602054000000000000
B0623443148597S11724242EA0198202061000000000000
B0623483148566S11724335EA0198202054000000000000
B0623523148554S11724452EA0195802024000000000000
B0623563148551S11724589EA0193302007000000000000
B0624003148554S11724732EA0191301982000000000000
B0624043148561S11724879EA0189201964000000000000
B0624083148571S11725027EA0187501946000000000000
B0624123148580S11725176EA0185301924000000000000
B0624163148578S11725328EA0183801912000000000000
B0624203148569S11725478EA0183001903000000000000
B0624243148560S11725629EA0181601882000000000000
B0624283148561S11725778EA0180501880000000000000
B0624323148560S11725925EA0180901889000000000000
B0624363148558S11726060EA0182401907000000000000
B0624403148552S11726186EA0183501913000000000000
B0624443148554S11726307EA0183901912000000000000
B0624483148549S11726428EA0183001903000000000000
B0624523148539S11726548EA0182901905000000000000
B0624563148527S11726666EA0182001890000000000000
B0625003148521S11726791EA0179901867000000000000
B0625043148523S11726922EA0178401853000000000000
B0625083148531S11727053EA0177701845000000000000
B0625123148543S11727185EA0176601834000000000000
B0625163148554S11727316EA0175601819000000000000
B0625203148570S11727449EA0174001803000000000000
B0625243148587S11727585EA0172401786000000000000
B0625283148609S11727720EA0171201778000000000000
B0625323148632S11727854EA0170901773000000000000
B0625363148657S11727988EA0169501760000000000000
B0625403148681S11728121EA0169001753000000000000
B0625443148705S11728252EA0168401748000000000000
B0625483148730S11728377EA0168301752000000000000
B0625523148752S11728498EA0168901753000000000000
B0625563148773S11728615EA0168701749000000000000
B0626003148792S11728730EA0168101742000000000000
B0626043148808S11728849EA0167201731000000000000
B0626083148820S11728971EA0166001721000000000000
B0626123148839S11729092EA0164901708000000000000
B0626163148856S11729214EA0164101701000000000000
B0626203148874S11729334EA0163701691000000000000
B0626243148891S11729456EA0162201673000000000000
B0626283148911S11729585EA0159601646000000000000
