ACAM4N6
HFDTE270517
HFFXA050
HFPLTPILOT:JOHN WELSH              
HFGTYGLIDERTYPE:HORNET      
HFGIDGLIDERID:VH GMY      
HFDTM100GPSDATUM:
HFRFWFIRMWAREVERSION:F2.6
HFRHWHARDWAREVERSION:300 Series Version 2
HFFTYFRTYPE:CAMBRIDGE AERO INSTRUMENTS, 302+
HFGPS:GARMIN,LVS-25,12,18000
HFPRSPRESSALTSENSOR:INTERSEMA, MS5534-AP, 20000
I033638FXA3941ENL4247REX
LCAMSBVER:5FWVER:F26300
C121016042725121016000103
C0000000N00000000WTAKEOFF     
C3207549S11656849EBEVAIR      
C3157887S11735628EYOTING      
C3137789S11744052EKLLRBRRN    
C3137399S11712982ECunderdin AF
C3207549S11656849EBEVAIR      
C0000000N00000000WLANDING     
B0355573207339S11656861EA0011300200000004000000
B0355593207339S11656861EA0011400200000004000000
B0356013207339S11656861EA0011400200000004000000
B0356033207339S11656861EA0011400200000004000000
B0356053207339S11656861EA0011400200000004000000
B0356073207339S11656861EA0011500200000004000000
B0356093207339S11656861EA0011400200000004000000
B0356113207339S11656861EA0011400200000004000000
B0356133207339S11656861EA0011400200000004000000
B0356153207339S11656861EA0011400200000004000000
B0356173207339S11656861EA0011400200000004000000
B0356193207339S11656861EA0011400200000004000000
B0356213207339S11656861EA0011400200000004000000
B0356233207341S11656861EA0011400200000004000000
B0356253207342S11656862EA0011400201000004000000
B0356283207351S11656871EA0011400201000004000000
B0356323207378S11656893EA0011400202000004000000
B0356363207420S11656923EA0011600203000004000000
B0356403207477S11656957EA0011600204000004000000
B0356443207542S11656999EA0011900208000004000000
B0356483207606S11657040EA0012900221000004000000
B0356523207668S11657082EA0014400240000004000000
B0356563207728S11657120EA0016400259000004000000
B0357003207791S11657152EA0017700276000004000000
B0357043207854S11657186EA0019000291000004000000
B0357083207918S11657221EA0020100304000004000000
B0357123207983S11657259EA0021400315000004000000
B0357163208045S11657299EA0023100329000004000000
B0357203208096S11657355EA0024700345000004000000
B0357243208135S11657421EA0026200367000004000000
B0357283208164S11657493EA0028500391000004000000
B0357323208178S11657573EA0030600408000004000000
B0357363208183S11657654EA0032600429000004000000
B0357403208210S11657728EA0034700450000004000000
B0357443208266S11657777EA0036800470000004000000
B0357483208337S11657797EA0039100496000004000000
B0357523208407S11657784EA0042400532000004000000
B0357563208470S11657741EA0046000566000004000000
B0358003208519S11657668EA0048800589000004000000
B0358043208546S11657576EA0050500604000004000000
B0358083208546S11657475EA0052000618000004000000
B0358123208515S11657378EA0053400632000004000000
B0358163208459S11657299EA0054600643000004000000
B0358203208379S11657256EA0055900659000004000000
B0358243208296S11657252EA0057600674000004000000
B0358283208218S11657289EA0059400693000004000000
B0358323208161S11657355EA0061900716000004000000
B0358363208121S11657433EA0064300741000004000000
B0358403208084S11657515EA0066300762000004000000
B0358443208074S11657602EA0068600784000004000000
B0358483208099S11657676EA0071000808000004000000
B0358523208147S11657725EA0072900821000004000000
B0358563208195S11657703EA0075000849000004000000
B0359003208183S11657640EA0077500872000004000000
B0359043208126S11657627EA0078400885000004000000
B0359083208084S11657668EA0079400891000004000000
B0359123208088S11657722EA0079800892000004000000
B0359163208131S11657738EA0079700890000004000000
B0359203208162S11657697EA0080500900000004000000
B0359243208132S11657641EA0080900905000004000000
B0359283208077S11657658EA0082400919000004015000
B0359323208071S11657714EA0083700928000004015000
B0359363208109S11657736EA0084500937000004015000
B0359403208143S11657702EA0085100940000004000000
B0359443208139S11657631EA0084200931000004000000
B0359483208083S11657584EA0084900940000004015000
B0359523208030S11657616EA0086000954000004015000
B0359563208036S11657671EA0087100968000004015000
B0400003208075S11657667EA0088500977000004000000
B0400043208092S11657608EA0088200970000004000000
B0400083208056S11657543EA0088200979000004000000
B0400123207999S11657560EA0089600986000004015000
B0400163207995S11657620EA0090200998000004015000
B0400203208032S11657627EA0092001015000004015000
B0400243208054S11657573EA0092001013000004015000
B0400283208025S11657504EA0091901016000004015000
B0400323207961S11657486EA0093201030000004015000
B0400363207915S11657530EA0094301040000004015000
B0400403207918S11657590EA0094901045000004015000
B0400443207958S11657601EA0096201059000004015000
B0400483207988S11657556EA0097101066000004000000
B0400523207987S11657486EA0097501070000004000000
B0400563207937S11657442EA0098501088000004015000
B0401003207889S11657475EA0099301093000004015000
B0401043207900S11657528EA0099301087000004000000
B0401083207944S11657524EA0099801094000004000000
B0401123207954S11657459EA0100201095000004000000
B0401163207905S11657417EA0101101111000004000000
B0401203207863S11657455EA0102201114000004000000
B0401243207883S11657502EA0102101112000004000000
B0401283207924S11657491EA0102701120000004000000
B0401323207939S11657430EA0102901119000004000000
B0401363207900S11657372EA0102801120000004000000
B0401403207839S11657378EA0104101135000004000000
B0401443207815S11657430EA0104501134000004000000
B0401483207843S11657469EA0104901139000004000000
B0401523207884S11657447EA0105301143000004000000
B0401563207891S11657382EA0105101142000004000000
B0402003207844S11657333EA0105601150000004000000
B0402043207789S11657350EA0106701159000004000000
B0402083207774S11657406EA0106801160000004000000
B0402123207806S11657437EA0107501166000004000000
B0402163207846S11657416EA0107501166000004000000
B0402203207856S11657354EA0107601165000004000000
B0402243207820S11657293EA0107501164000004000000
B0402283207759S11657272EA0107901175000004000000
B0402323207706S11657300EA0109001180000004000000
B0402363207690S11657359EA0108901180000004000000
B0402403207713S11657412EA0108701178000004000000
B0402443207748S11657460EA0107901168000004000000
B0402483207787S11657510EA0107301163000004000000
B0402523207828S11657555EA0106701161000004000000
B0402563207870S11657599EA0106101155000004000000
B0403003207911S11657641EA0106001156000004000000
B0403043207953S11657683EA0106001156000004000000
B0403083207999S11657723EA0106701165000004000000
B0403123208041S11657759EA0107601177000004000000
B0403163208083S11657798EA0108101178000004000000
B0403203208127S11657835EA0108401184000004000000
B0403243208170S11657872EA0108601182000004000000
B0403283208214S11657911EA0107901172000004000000
B0403323208259S11657953EA0107301169000004000000
B0403363208299S11658000EA0107301169000004000000
B0403403208337S11658047EA0107701173000004000000
B0403443208370S11658095EA0108101177000004000000
B0403483208408S11658141EA0107601170000004000000
B0403523208448S11658188EA0107001162000004000000
B0403563208491S11658232EA0106101153000004000000
B0404003208533S11658277EA0104801139000004000000
B0404043208578S11658320EA0103801133000004000000
B0404083208620S11658359EA0103701134000004000000
B0404123208659S11658396EA0103301126000004000000
B0404163208701S11658435EA0102501119000004000000
B0404203208741S11658474EA0101801114000004000000
B0404243208779S11658515EA0101501110000004000000
B0404283208815S11658556EA0100901102000004000000
B0404323208849S11658602EA0100301097000004000000
B0404363208881S11658652EA0099801091000004000000
B0404403208916S11658702EA0099001080000004000000
B0404443208953S11658751EA0098001071000004000000
B0404483208985S11658803EA0097401068000004000000
B0404523209018S11658856EA0097301063000004000000
B0404563209055S11658905EA0096901057000004000000
B0405003209097S11658949EA0096401054000004000000
B0405043209139S11658992EA0096901062000004000000
B0405083209184S11659023EA0097701067000004000000
B0405123209239S11659020EA0098001070000004000000
B0405163209267S11658960EA0098601077000004000000
B0405203209244S11658889EA0098701076000004000000
B0405243209187S11658858EA0098601075000004000000
B0405283209139S11658888EA0098601077000004000000
B0405323209133S11658942EA0098801078000004000000
B0405363209157S11658990EA0099001076000004000000
B0405403209193S11659032EA0098901081000004000000
B0405443209232S11659070EA0099301086000004000000
B0405483209273S11659100EA0099701090000004000000
B0405523209314S11659126EA0099901088000004000000
B0405563209357S11659153EA0099901089000004000000
B0406003209397S11659184EA0099601085000004000000
B0406043209432S11659226EA0098901077000004000000
B0406083209464S11659274EA0098301069000004000000
B0406123209494S11659326EA0097401058000004000000
B0406163209518S11659383EA0096501051000004000000
B0406203209542S11659439EA0095901043000004000000
B0406243209566S11659495EA0095101035000004000000
B0406283209594S11659551EA0094001027000004000000
B0406323209622S11659608EA0093501019000004000000
B0406363209651S11659666EA0092401008000004000000
B0406403209681S11659724EA0091500999000004000000
B0406443209711S11659777EA0091901009000004000000
B0406483209738S11659828EA0092501014000004000000
B0406523209767S11659878EA0092601016000004000000
B0406563209796S11659928EA0093201023000004000000
B0407003209826S11659974EA0093801028000004000000
B0407043209860S11700017EA0094101029000004000000
B0407083209895S11700058EA0094901038000004000000
B0407123209933S11700094EA0095101039000004000000
B0407163209975S11700133EA0095101040000004000000
B0407203210015S11700175EA0095201040000004000000
B0407243210056S11700212EA0095401040000004000000
B0407283210108S11700201EA0095601043000004000000
B0407323210128S11700133EA0095601039000004000000
B0407363210095S11700068EA0094901035000004000000
B0407403210038S11700032EA0094301028000004000000
B0407443209977S11700007EA0093501022000004000000
B0407483209912S11700000EA0093301018000004000000
B0407523209846S11700016EA0093301023000004000000
B0407563209807S11700062EA0094701036000004000000
B0408003209838S11700093EA0096101053000004000000
B0408043209871S11700054EA0096701053000004000000
B0408083209850S11659987EA0096501055000004000000
B0408123209793S11659974EA0097101062000004000000
B0408163209757S11700019EA0097501064000004000000
B0408203209778S11700065EA0098101070000004000000
B0408243209824S11700059EA0099201082000004000000
B0408283209843S11700003EA0099501083000004000000
B0408323209822S11659938EA0099701086000004000000
B0408363209770S11659903EA0100101091000004000000
B0408403209724S11659932EA0100301091000004000000
B0408443209718S11659989EA0100401094000004000000
B0408483209757S11700019EA0101501109000004000000
B0408523209791S11659981EA0102801116000004000000
B0408563209777S11659915EA0102901119000004000000
B0409003209724S11659877EA0103301123000004000000
B0409043209670S11659891EA0103701128000004000000
B0409083209653S11659945EA0103701127000004000000
B0409123209681S11659985EA0104601137000004000000
B0409163209724S11659981EA0106001151000004000000
B0409203209754S11659937EA0106201152000004000000
B0409243209747S11659869EA0106601158000004000000
B0409283209705S11659824EA0107301162000004000000
B0409323209651S11659829EA0107301165000004000000
B0409363209627S11659878EA0107901167000004000000
B0409403209653S11659920EA0108201172000004000000
B0409443209695S11659893EA0109201183000004000000
B0409483209690S11659829EA0110101189000004000000
B0409523209638S11659799EA0109401181000004000000
B0409563209582S11659821EA0109801190000004000000
B0410003209553S11659872EA0110001188000004000000
B0410043209565S11659926EA0109701184000004000000
B0410083209598S11659978EA0109201180000004000000
B0410123209634S11700029EA0109001176000004000000
B0410163209673S11700080EA0108301170000004000000
B0410203209713S11700132EA0107501164000004000000
B0410243209754S11700181EA0107001157000004000000
B0410283209795S11700231EA0106101146000004000000
B0410323209838S11700281EA0105401142000004000000
B0410363209876S11700333EA0104901136000004000000
B0410403209911S11700388EA0104501128000004000000
B0410443209942S11700442EA0103801126000004000000
B0410483209972S11700497EA0103301119000004000000
B0410523209999S11700552EA0102401108000004000000
B0410563210028S11700608EA0101601104000004000000
B0411003210054S11700666EA0101501103000004000000
B0411043210077S11700722EA0101301100000004000000
B0411083210098S11700777EA0100701094000004000000
B0411123210118S11700830EA0100201088000004000000
B0411163210138S11700882EA0099701082000004000000
B0411203210162S11700933EA0098901074000004000000
B0411243210185S11700986EA0098101068000004000000
B0411283210209S11701040EA0097801066000004000000
B0411323210232S11701091EA0097801068000004000000
B0411363210258S11701139EA0097801066000004000000
B0411403210276S11701193EA0097901068000004000000
B0411443210274S11701252EA0098101070000004000000
B0411483210258S11701312EA0097901064000004000000
B0411523210262S11701372EA0097801068000004000000
B0411563210301S11701408EA0098501075000004000000
B0412003210353S11701399EA0098801076000004000000
B0412043210380S11701338EA0099401083000004000000
B0412083210348S11701277EA0099901089000004000000
B0412123210289S11701278EA0100301091000004000000
B0412163210270S11701333EA0100301091000004000000
B0412203210305S11701369EA0100801094000004000000
B0412243210350S11701342EA0101001097000004000000
B0412283210350S11701277EA0101301101000004000000
B0412323210301S11701241EA0101501104000004000000
B0412363210249S11701265EA0102101111000004000000
B0412403210237S11701320EA0102501112000004000000
B0412443210272S11701355EA0102501112000004000000
B0412483210316S11701328EA0102401113000004000000
B0412523210326S11701258EA0102901116000004000000
B0412563210288S11701200EA0103201118000004000000
B0413003210225S11701196EA0103501120000004000000
B0413043210189S11701245EA0103601120000004000000
B0413083210216S11701294EA0103501121000004000000
B0413123210266S11701281EA0104001129000004000000
B0413163210279S11701217EA0104701134000004000000
B0413203210238S11701161EA0104901135000004000000
B0413243210175S11701165EA0105001137000004000000
B0413283210151S11701221EA0105401139000004000000
B0413323210185S11701255EA0105801143000004000000
B0413363210227S11701229EA0106201146000004000000
B0413403210223S11701161EA0106301149000004000000
B0413443210167S11701125EA0106701154000004000000
B0413483210112S11701150EA0106901153000004000000
B0413523210101S11701208EA0106701151000004000000
B0413563210134S11701250EA0106101144000004000000
B0414003210185S11701280EA0105401137000004000000
B0414043210237S11701312EA0104901136000004000000
B0414083210290S11701346EA0104601131000004000000
B0414123210344S11701384EA0104301128000004000000
B0414163210394S11701421EA0103801124000004000000
B0414203210444S11701462EA0103401119000004000000
B0414243210492S11701497EA0103101116000004000000
B0414283210539S11701529EA0102801115000004000000
B0414323210584S11701562EA0102801112000004000000
B0414363210628S11701596EA0102401110000004000000
B0414403210671S11701629EA0102201107000004000000
B0414443210717S11701663EA0101701102000004000000
B0414483210764S11701701EA0101201095000004000000
B0414523210812S11701740EA0100701092000004000000
B0414563210859S11701780EA0100501092000004000000
B0415003210905S11701818EA0100201089000004000000
B0415043210953S11701854EA0100001085000004000000
B0415083211004S11701891EA0099601081000004000000
B0415123211055S11701930EA0099001074000004000000
B0415163211103S11701973EA0098701072000004000000
B0415203211148S11702017EA0098201066000004000000
B0415243211190S11702062EA0098001067000004000000
B0415283211228S11702106EA0098601073000004000000
B0415323211263S11702147EA0098601070000004000000
B0415363211306S11702184EA0097801060000004000000
B0415403211351S11702216EA0097301056000004000000
B0415443211393S11702253EA0096801050000004000000
B0415483211429S11702299EA0096101046000004000000
B0415523211462S11702351EA0096001044000004000000
B0415563211492S11702403EA0095701041000004000000
B0416003211522S11702452EA0095901044000004000000
B0416043211553S11702500EA0095701039000004000000
B0416083211588S11702546EA0095401037000004000000
B0416123211624S11702591EA0095501040000004000000
B0416163211662S11702634EA0095401040000004000000
B0416203211700S11702676EA0095601041000004000000
B0416243211737S11702720EA0095501038000004000000
B0416283211775S11702763EA0095601043000004000000
B0416323211813S11702802EA0095501040000004000000
B0416363211850S11702844EA0094701030000004000000
B0416403211886S11702893EA0093801018000004000000
B0416443211919S11702946EA0092401005000004000000
B0416483211951S11703003EA0091801000000004000000
B0416523211982S11703058EA0091300995000004000000
B0416563212018S11703109EA0090700994000004000000
B0417003212053S11703161EA0090600988000004000000
B0417043212090S11703215EA0089800981000004000000
B0417083212135S11703258EA0089300976000004000000
B0417123212190S11703284EA0088800973000004000000
B0417163212243S11703314EA0089900983000004000000
B0417203212283S11703274EA0091501002000004000000
B0417243212255S11703211EA0092301007000004000000
B0417283212201S11703217EA0092601010000004000000
B0417323212179S11703265EA0092801015000004000000
B0417363212199S11703312EA0093301019000004000000
B0417403212246S11703310EA0093901026000004000000
B0417443212252S11703245EA0094301032000004000000
B0417483212198S11703214EA0095301043000004000000
B0417523212157S11703252EA0096301052000004000000
B0417563212172S11703299EA0096601049000004000000
B0418003212218S11703302EA0096401049000004000000
B0418043212226S11703239EA0097501063000004000000
B0418083212174S11703206EA0098701076000004000000
B0418123212126S11703232EA0099501082000004000000
B0418163212122S11703286EA0099501079000004000000
B0418203212166S11703306EA0099201076000004000000
B0418243212195S11703256EA0099901087000004000000
B0418283212152S11703208EA0101001099000004000000
B0418323212103S11703232EA0101601104000004000000
B0418363212108S11703283EA0101901102000004000000
B0418403212153S11703293EA0101401099000004000000
B0418443212191S11703247EA0101701104000004000000
B0418483212194S11703176EA0102501111000004000000
B0418523212148S11703132EA0103401123000004000000
B0418563212099S11703153EA0104201129000004000000
B0419003212097S11703206EA0104301126000004000000
B0419043212143S11703215EA0104601131000004000000
B0419083212162S11703157EA0104901132000004000000
B0419123212125S11703098EA0105101136000004000000
B0419163212066S11703107EA0105701148000004000000
B0419203212051S11703158EA0106401148000004000000
B0419243212088S11703189EA0106301147000004000000
B0419283212122S11703146EA0107001154000004000000
B0419323212100S11703081EA0107201158000004000000
B0419363212040S11703071EA0107701164000004000000
B0419403212017S11703123EA0108001164000004000000
B0419443212052S11703156EA0108001164000004000000
B0419483212081S11703106EA0108001165000004000000
B0419523212042S11703050EA0108401169000004000000
B0419563211984S11703061EA0108401168000004000000
B0420003211969S11703115EA0108701172000004000000
B0420043212000S11703148EA0108901175000004000000
B0420083212039S11703122EA0108901172000004000000
B0420123212038S11703053EA0108301167000004000000
B0420163211984S11703015EA0108401171000004000000
B0420203211939S11703045EA0108901174000004000000
B0420243211940S11703096EA0108701169000004000000
B0420283211961S11703146EA0108101163000004000000
B0420323211995S11703182EA0107901163000004000000
B0420363212036S11703166EA0108101164000004000000
B0420403212040S11703100EA0107301156000004000000
B0420443212004S11703026EA0106201147000004000000
B0420483211961S11702951EA0106001144000004000000
B0420523211915S11702872EA0105401138000004000000
B0420563211875S11702793EA0105901152000004000000
B0421003211836S11702715EA0106901158000004000000
B0421043211804S11702634EA0107201162000004000000
B0421083211774S11702552EA0108101170000004000000
B0421123211746S11702472EA0108201170000004000000
B0421163211717S11702391EA0107901167000004000000
B0421203211684S11702314EA0107701166000004000000
B0421243211653S11702235EA0106901155000004000000
B0421283211622S11702153EA0105801144000004000000
B0421323211596S11702070EA0104901134000004000000
B0421363211572S11701987EA0104301130000004000000
B0421403211553S11701906EA0104301132000004000000
B0421443211540S11701828EA0105101139000004000000
B0421483211523S11701753EA0105801147000004000000
B0421523211503S11701681EA0106501153000004000000
B0421563211479S11701611EA0107101159000004000000
B0422003211429S11701568EA0107601164000004000000
B0422043211379S11701592EA0107501162000004000000
B0422083211380S11701646EA0107801165000004000000
B0422123211420S11701664EA0108401170000004000000
B0422163211459S11701638EA0108901175000004000000
B0422203211477S11701581EA0109201178000004000000
B0422243211468S11701514EA0109401181000004000000
B0422283211425S11701469EA0109701183000004000000
B0422323211372S11701476EA0109501179000004000000
B0422363211345S11701524EA0108801173000004000000
B0422403211366S11701568EA0108501171000004000000
B0422443211414S11701567EA0108501172000004000000
B0422483211450S11701519EA0108701177000004000000
B0422523211459S11701446EA0109301180000004000000
B0422563211437S11701371EA0109201179000004000000
B0423003211390S11701323EA0109501183000004000000
B0423043211333S11701324EA0109201178000004000000
B0423083211291S11701365EA0108601175000004000000
B0423123211286S11701417EA0108901176000004000000
B0423163211315S11701455EA0108301169000004000000
B0423203211362S11701456EA0107501162000004000000
B0423243211403S11701419EA0107101160000004000000
B0423283211429S11701355EA0107201157000004000000
B0423323211434S11701280EA0107001158000004000000
B0423363211419S11701203EA0106901157000004000000
B0423403211389S11701135EA0107301162000004000000
B0423443211343S11701091EA0107501164000004000000
B0423483211288S11701070EA0106701153000004000000
B0423523211228S11701077EA0106101149000004000000
B0423563211189S11701117EA0106001146000004000000
B0424003211180S11701173EA0105401139000004000000
B0424043211200S11701224EA0105201141000004000000
B0424083211245S11701248EA0105201138000004000000
B0424123211295S11701234EA0104701132000004000000
B0424163211333S11701181EA0104101129000004000000
B0424203211343S11701105EA0103801128000004000000
B0424243211330S11701026EA0103701126000004000000
B0424283211303S11700952EA0103701127000004000000
B0424323211272S11700884EA0103401122000004000000
B0424363211234S11700819EA0102601112000004000000
B0424403211191S11700757EA0101501102000004000000
B0424443211145S11700700EA0100901098000004000000
B0424483211094S11700648EA0101001098000004000000
B0424523211038S11700606EA0101601104000004000000
B0424563210982S11700572EA0102901118000004000000
B0425003210926S11700574EA0103501124000004000000
B0425043210887S11700618EA0103601124000004000000
B0425083210896S11700675EA0103901129000004000000
B0425123210942S11700689EA0104501138000004000000
B0425163210979S11700653EA0105001135000004000000
B0425203210995S11700585EA0104401133000004000000
B0425243210987S11700515EA0105501146000004000000
B0425283210952S11700459EA0106301152000004000000
B0425323210894S11700442EA0106801155000004000000
B0425363210853S11700483EA0106901158000004000000
B0425403210861S11700530EA0107801170000004000000
B0425443210903S11700537EA0108101168000004000000
B0425483210939S11700492EA0107701164000004000000
B0425523210930S11700419EA0107901168000004000000
B0425563210878S11700375EA0108401176000004000000
B0426003210821S11700393EA0109001177000004000000
B0426043210808S11700452EA0109001178000004000000
B0426083210843S11700483EA0109801187000004000000
B0426123210891S11700452EA0109501179000004000000
B0426163210912S11700380EA0109701186000004000000
B0426203210896S11700306EA0110601194000004000000
B0426243210852S11700249EA0111101199000004000000
B0426283210790S11700237EA0110901196000004000000
B0426323210743S11700277EA0110101185000004000000
B0426363210735S11700342EA0109501180000004000000
B0426403210748S11700405EA0109701187000004000000
B0426443210792S11700429EA0111101203000004000000
B0426483210835S11700393EA0111701202000004000000
B0426523210830S11700316EA0110801195000004000000
B0426563210782S11700267EA0111801209000004000000
B0427003210732S11700283EA0112601215000004000000
B0427043210723S11700336EA0112701212000004000000
B0427083210762S11700361EA0113101219000004000000
B0427123210805S11700325EA0113501221000004000000
B0427163210808S11700255EA0113401221000004000000
B0427203210760S11700203EA0113101219000004000000
B0427243210701S11700215EA0113901229000004000000
B0427283210693S11700266EA0114301232000004000000
B0427323210738S11700277EA0114901237000004000000
B0427363210766S11700221EA0114801234000004000000
B0427403210743S11700147EA0114701234000004000000
B0427443210684S11700123EA0115301242000004000000
B0427483210645S11700168EA0115001232000004000000
B0427523210669S11700218EA0115301242000004000000
B0427563210716S11700202EA0116001248000004000000
B0428003210731S11700138EA0115701241000004000000
B0428043210718S11700059EA0115301242000004000000
B0428083210700S11659981EA0115801246000004000000
B0428123210680S11659902EA0116001244000004000000
B0428163210656S11659826EA0115501231000004000000
B0428203210602S11659764EA0113701215000004000000
B0428243210539S11659716EA0112701208000004000000
B0428283210475S11659673EA0112301206000004000000
B0428323210414S11659631EA0112201204000004000000
B0428363210355S11659588EA0111901202000004000000
B0428403210298S11659547EA0111701200000004000000
B0428443210240S11659512EA0111901204000004000000
B0428483210181S11659483EA0111701198000004000000
B0428523210119S11659453EA0111001189000004000000
B0428563210056S11659422EA0110401187000004000000
B0429003209995S11659386EA0110501187000004000000
B0429043209938S11659349EA0110101181000004000000
B0429083209881S11659309EA0109001171000004000000
B0429123209819S11659266EA0107601157000004000000
B0429163209756S11659222EA0106701144000004000000
B0429203209692S11659178EA0105501131000004000000
B0429243209627S11659132EA0104301120000004000000
B0429283209562S11659092EA0103301110000004000000
B0429323209494S11659054EA0102401104000004000000
B0429363209427S11659023EA0102401107000004000000
B0429403209364S11658999EA0102601108000004000000
B0429443209300S11658979EA0102501107000004000000
B0429483209235S11658958EA0102801113000004000000
B0429523209171S11658953EA0103901123000004000000
B0429563209140S11658998EA0105401142000004000000
B0430003209170S11659033EA0106401150000004000000
B0430043209211S11659005EA0107201158000004000000
B0430083209205S11658938EA0107701163000004000000
B0430123209153S11658916EA0108501173000004000000
B0430163209119S11658957EA0109501180000004000000
B0430203209137S11659003EA0110101185000004000000
B0430243209183S11659003EA0111001194000004000000
B0430283209206S11658954EA0111501201000004000000
B0430323209183S11658893EA0111701201000004000000
B0430363209127S11658880EA0111901208000004000000
B0430403209096S11658925EA0112901217000004000000
B0430443209117S11658971EA0113601222000004000000
B0430483209161S11658967EA0114501230000004000000
B0430523209183S11658912EA0114701230000004000000
B0430563209163S11658847EA0114301226000004000000
B0431003209117S11658786EA0113701218000004000000
B0431043209065S11658723EA0113401217000004000000
B0431083209006S11658658EA0113201216000004000000
B0431123208946S11658591EA0113301217000004000000
B0431163208890S11658522EA0113201218000004000000
B0431203208834S11658455EA0113401219000004000000
B0431243208779S11658387EA0113501218000004000000
B0431283208720S11658317EA0113101213000004000000
B0431323208660S11658248EA0112901215000004000000
B0431363208600S11658182EA0112901213000004000000
B0431403208539S11658118EA0112301205000004000000
B0431443208477S11658056EA0111601199000004000000
B0431483208416S11657995EA0111501199000004000000
B0431523208355S11657941EA0111201196000004000000
B0431563208291S11657892EA0110701189000004000000
B0432003208229S11657842EA0110201181000004000000
B0432043208166S11657793EA0109401177000004000000
B0432083208105S11657745EA0109401176000004000000
B0432123208047S11657694EA0109001170000004000000
B0432163207987S11657645EA0107901160000004000000
B0432203207923S11657601EA0107301155000004000000
B0432243207857S11657562EA0107701158000004000000
B0432283207788S11657551EA0108501169000004000000
B0432323207754S11657595EA0110101191000004000000
B0432363207778S11657633EA0110801189000004000000
B0432403207820S11657614EA0111001194000004000000
B0432443207827S11657549EA0111601202000004000000
B0432483207785S11657494EA0112101206000004000000
B0432523207726S11657493EA0113101218000004000000
B0432563207702S11657540EA0114201226000004000000
B0433003207731S11657576EA0114301224000004000000
B0433043207771S11657545EA0114701234000004000000
B0433083207768S11657476EA0115601239000004000000
B0433123207718S11657426EA0116401249000004000000
B0433163207662S11657439EA0117501260000004000000
B0433203207645S11657490EA0118001267000004000000
B0433243207668S11657532EA0118301268000004000000
B0433283207710S11657520EA0119001278000004000000
B0433323207716S11657455EA0119701286000004000000
B0433363207668S11657407EA0120401292000004000000
B0433403207618S11657430EA0121101299000004000000
B0433443207627S11657480EA0121201298000004000000
B0433483207671S11657469EA0121701307000004000000
B0433523207680S11657402EA0122501317000004000000
B0433563207642S11657343EA0123601329000004000000
B0434003207586S11657329EA0124601335000004000000
B0434043207549S11657368EA0124501334000004000000
B0434083207559S11657416EA0124601334000004000000
B0434123207602S11657417EA0125401340000004000000
B0434163207624S11657364EA0126301352000004000000
B0434203207601S11657300EA0126901359000004000000
B0434243207544S11657282EA0127001360000004000000
B0434283207508S11657325EA0127201359000004000000
B0434323207533S11657368EA0127001358000004000000
B0434363207575S11657346EA0127601368000004000000
B0434403207573S11657281EA0128901379000004000000
B0434443207521S11657243EA0129401381000004000000
B0434483207472S11657276EA0128801371000004000000
B0434523207460S11657348EA0127501362000004000000
B0434563207463S11657411EA0128601377000004000000
B0435003207468S11657467EA0129001377000004000000
B0435043207467S11657528EA0127301357000004000000
B0435083207432S11657586EA0127001357000004000000
B0435123207372S11657614EA0126401348000004000000
B0435163207300S11657608EA0125601336000004000000
B0435203207228S11657589EA0124701328000004000000
B0435243207152S11657567EA0123901321000004000000
B0435283207076S11657542EA0123101313000004000000
B0435323206999S11657511EA0122501310000004000000
B0435363206927S11657472EA0122401309000004000000
B0435403206860S11657428EA0122101307000004000000
B0435443206796S11657377EA0122001302000004000000
B0435483206736S11657321EA0121801301000004000000
B0435523206676S11657264EA0121201294000004000000
B0435563206617S11657207EA0120801292000004000000
B0436003206559S11657150EA0120501288000004000000
B0436043206500S11657092EA0119501277000004000000
B0436083206439S11657031EA0118501269000004000000
B0436123206377S11656969EA0118101264000004000000
B0436163206318S11656908EA0117801262000004000000
B0436203206258S11656849EA0117801263000004000000
B0436243206199S11656796EA0117501260000004000000
B0436283206141S11656745EA0117301255000004000000
B0436323206085S11656695EA0117101258000004000000
B0436363206033S11656640EA0117801267000004000000
B0436403205985S11656583EA0118701275000004000000
B0436443205938S11656523EA0119501282000004000000
B0436483205891S11656463EA0119101278000004000000
B0436523205838S11656405EA0118601270000004000000
B0436563205781S11656353EA0118201270000004000000
B0437003205725S11656302EA0118101265000004000000
B0437043205673S11656253EA0117501259000004000000
B0437083205625S11656198EA0117301260000004000000
B0437123205586S11656138EA0117601263000004000000
B0437163205551S11656076EA0118001266000004000000
B0437203205509S11656019EA0118101269000004000000
B0437243205453S11655983EA0118401270000004000000
B0437283205393S11655987EA0118301269000004000000
B0437323205353S11656033EA0118201268000004000000
B0437363205347S11656095EA0118501275000004000000
B0437403205366S11656145EA0120001291000004000000
B0437443205413S11656139EA0120701292000004000000
B0437483205434S11656076EA0121101302000004000000
B0437523205395S11656026EA0122301313000004000000
B0437563205341S11656041EA0122901314000004000000
B0438003205336S11656094EA0122901317000004000000
B0438043205384S11656097EA0123301320000004000000
B0438083205409S11656034EA0123601326000004000000
B0438123205387S11655969EA0124401335000004000000
B0438163205340S11655920EA0124601331000004000000
B0438203205292S11655860EA0123701322000004000000
B0438243205253S11655788EA0123201317000004000000
B0438283205215S11655713EA0122601308000004000000
B0438323205181S11655635EA0122201308000004000000
B0438363205148S11655558EA0122601313000004000000
B0438403205115S11655487EA0123401321000004000000
B0438443205080S11655418EA0123101314000004000000
B0438483205045S11655345EA0122101305000004000000
B0438523205010S11655271EA0122201309000004000000
B0438563204970S11655201EA0122201305000004000000
B0439003204910S11655144EA0121301297000004000000
B0439043204840S11655098EA0120401286000004000000
B0439083204765S11655063EA0119701283000004000000
B0439123204693S11655032EA0119601281000004000000
B0439163204624S11654999EA0119201277000004000000
B0439203204555S11654968EA0118801273000004000000
B0439243204489S11654937EA0119201278000004000000
B0439283204422S11654910EA0119601282000004000000
B0439323204355S11654886EA0120001290000004000000
B0439363204284S11654885EA0120301290000004000000
B0439403204239S11654932EA0120601296000004000000
B0439443204253S11654984EA0120901298000004000000
B0439483204296S11654982EA0120901295000004000000
B0439523204320S11654925EA0119801281000004000000
B0439563204291S11654855EA0119301281000004000000
B0440003204231S11654816EA0119701285000004000000
B0440043204164S11654797EA0119601281000004000000
B0440083204092S11654784EA0119201276000004000000
B0440123204023S11654780EA0119001276000004000000
B0440163203957S11654777EA0118901273000004000000
B0440203203891S11654773EA0119001277000004000000
B0440243203824S11654769EA0119401280000004000000
B0440283203759S11654767EA0119501278000004000000
B0440323203694S11654768EA0119101271000004000000
B0440363203631S11654794EA0118001258000004000000
B0440403203599S11654850EA0117401256000004000000
B0440443203616S11654899EA0116701245000004000000
B0440483203666S11654893EA0115801237000004000000
B0440523203693S11654832EA0114801230000004000000
B0440563203699S11654754EA0114001224000004000000
B0441003203702S11654676EA0113501219000004000000
B0441043203701S11654596EA0113301219000004000000
B0441083203701S11654517EA0113801224000004000000
B0441123203705S11654439EA0115101237000004000000
B0441163203689S11654365EA0115801245000004000000
B0441203203634S11654327EA0116301250000004000000
B0441243203581S11654355EA0116301249000004000000
B0441283203568S11654410EA0116701258000004000000
B0441323203593S11654444EA0117901267000004000000
B0441363203638S11654433EA0118401270000004000000
B0441403203655S11654371EA0118801275000004000000
B0441443203614S11654316EA0119201280000004000000
B0441483203553S11654314EA0120001288000004000000
B0441523203517S11654357EA0120701296000004000000
B0441563203528S11654401EA0121301299000004000000
B0442003203573S11654401EA0121401298000004000000
B0442043203599S11654339EA0121401302000004000000
B0442083203566S11654270EA0121901307000004000000
B0442123203501S11654260EA0122101307000004000000
B0442163203459S11654308EA0122401314000004000000
B0442203203476S11654353EA0123301323000004000000
B0442243203520S11654347EA0124301331000004000000
B0442283203538S11654287EA0124601333000004000000
B0442323203499S11654227EA0124601333000004000000
B0442363203437S11654227EA0124701334000004000000
B0442403203406S11654275EA0125101339000004000000
B0442443203416S11654327EA0125201336000004000000
B0442483203434S11654386EA0125001338000004000000
B0442523203454S11654438EA0126101347000004000000
B0442563203478S11654486EA0126301346000004000000
B0443003203507S11654530EA0125901340000004000000
B0443043203550S11654544EA0126001342000004000000
B0443083203589S11654508EA0125101334000004000000
B0443123203607S11654439EA0123801320000004000000
B0443163203616S11654360EA0122901315000004000000
B0443203203621S11654282EA0122401305000004000000
B0443243203615S11654197EA0121301296000004000000
B0443283203606S11654114EA0120801294000004000000
B0443323203603S11654035EA0121201301000004000000
B0443363203605S11653961EA0121601299000004000000
B0443403203607S11653887EA0121201296000004000000
B0443443203606S11653810EA0121301298000004000000
B0443483203602S11653734EA0121901304000004000000
B0443523203592S11653659EA0122401307000004000000
B0443563203573S11653581EA0122501311000004000000
B0444003203555S11653507EA0123401319000004000000
B0444043203538S11653433EA0123801324000004000000
B0444083203525S11653356EA0124601332000004000000
B0444123203521S11653281EA0125201336000004000000
B0444163203501S11653213EA0124901332000004000000
B0444203203447S11653170EA0125101338000004000000
B0444243203385S11653183EA0125501342000004000000
B0444283203352S11653237EA0125501343000004000000
B0444323203365S11653285EA0125501340000004000000
B0444363203407S11653292EA0125501340000004000000
B0444403203442S11653248EA0125201335000004000000
B0444443203439S11653178EA0124301325000004000000
B0444483203400S11653109EA0123701322000004000000
B0444523203342S11653053EA0123601321000004000000
B0444563203280S11653004EA0123101313000004000000
B0445003203212S11652957EA0122401307000004000000
B0445043203144S11652913EA0122001299000004000000
B0445083203075S11652870EA0120901287000004000000
B0445123203005S11652826EA0120001280000004000000
B0445163202936S11652780EA0119201272000004000000
B0445203202869S11652727EA0118501265000004000000
B0445243202804S11652672EA0118101259000004000000
B0445283202740S11652619EA0117401254000004000000
B0445323202676S11652564EA0116701247000004000000
B0445363202613S11652510EA0116001241000004000000
B0445403202549S11652453EA0115501235000004000000
B0445443202485S11652398EA0115001233000004000000
B0445483202419S11652349EA0114601228000004000000
B0445523202353S11652299EA0113801218000004000000
B0445563202284S11652247EA0113101209000004000000
B0446003202215S11652198EA0112601207000004000000
B0446043202146S11652158EA0112401209000004000000
B0446083202080S11652122EA0112901213000004000000
B0446123202015S11652100EA0112901212000004000000
B0446163201950S11652080EA0112501205000004000000
B0446203201883S11652054EA0111701197000004000000
B0446243201817S11652025EA0111001190000004000000
B0446283201753S11651991EA0110501186000004000000
B0446323201692S11651953EA0110401184000004000000
B0446363201634S11651916EA0110201181000004000000
B0446403201578S11651877EA0109701176000004000000
B0446443201521S11651835EA0108801170000004000000
B0446483201465S11651795EA0109001175000004000000
B0446523201406S11651766EA0110101186000004000000
B0446563201354S11651786EA0111701205000004000000
B0447003201352S11651833EA0113301218000004000000
B0447043201393S11651849EA0114301226000004000000
B0447083201432S11651814EA0114601230000004000000
B0447123201431S11651748EA0114901235000004000000
B0447163201385S11651699EA0115601242000004000000
B0447203201327S11651693EA0116801256000004000000
B0447243201291S11651734EA0118101270000004000000
B0447283201292S11651787EA0119201277000004000000
B0447323201330S11651820EA0119901285000004000000
B0447363201376S11651812EA0119601276000004000000
B0447403201404S11651757EA0119201274000004000000
B0447443201392S11651691EA0119301276000004000000
B0447483201345S11651638EA0119501283000004000000
B0447523201285S11651625EA0120701299000004000000
B0447563201245S11651662EA0121901306000004000000
B0448003201254S11651717EA0122101306000004000000
B0448043201302S11651735EA0123201318000004000000
B0448083201344S11651701EA0123601318000004000000
B0448123201353S11651635EA0123001314000004000000
B0448163201318S11651573EA0123601325000004000000
B0448203201261S11651543EA0125001336000004000000
B0448243201203S11651553EA0125701341000004000000
B0448283201171S11651600EA0126201348000004000000
B0448323201187S11651651EA0126801353000004000000
B0448363201233S11651661EA0127501359000004000000
B0448403201271S11651618EA0127801359000004000000
B0448443201258S11651547EA0127901364000004000000
B0448483201205S11651502EA0128901375000004000000
B0448523201142S11651504EA0129801383000004000000
B0448563201096S11651544EA0130701391000004000000
B0449003201077S11651602EA0130901393000004000000
B0449043201086S11651665EA0130401385000004000000
B0449083201110S11651730EA0129601373000004000000
B0449123201140S11651797EA0128301362000004000000
B0449163201167S11651865EA0127801358000004000000
B0449203201193S11651933EA0127501356000004000000
B0449243201215S11651999EA0127301354000004000000
B0449283201233S11652063EA0127201350000004000000
B0449323201252S11652126EA0126801346000004000000
B0449363201267S11652190EA0126601344000004000000
B0449403201283S11652252EA0126501343000004000000
B0449443201294S11652314EA0126401342000004000000
B0449483201306S11652377EA0126201339000004000000
B0449523201318S11652441EA0126101337000004000000
B0449563201330S11652506EA0125801335000004000000
B0450003201341S11652571EA0125801334000004000000
B0450043201356S11652635EA0125401329000004000000
B0450083201370S11652698EA0125001327000004000000
B0450123201385S11652759EA0124901325000004000000
B0450163201397S11652822EA0124601321000004000000
B0450203201411S11652884EA0124101315000004000000
B0450243201428S11652948EA0123301309000004000000
B0450283201449S11653012EA0123001306000004000000
B0450323201470S11653075EA0122801306000004000000
B0450363201487S11653138EA0122801305000004000000
B0450403201500S11653203EA0122501302000004000000
B0450443201513S11653268EA0122401301000004000000
B0450483201527S11653330EA0122401300000004000000
B0450523201543S11653391EA0122201297000004000000
B0450563201558S11653454EA0121901292000004000000
B0451003201574S11653516EA0121701295000004000000
B0451043201587S11653576EA0121901295000004000000
B0451083201601S11653633EA0121901295000004000000
B0451123201619S11653690EA0121701291000004000000
B0451163201635S11653747EA0121301288000004000000
B0451203201648S11653805EA0120701280000004000000
B0451243201657S11653862EA0120901286000004000000
B0451283201662S11653918EA0120801283000004000000
B0451323201665S11653978EA0120601279000004000000
B0451363201666S11654039EA0120001277000004000000
B0451403201665S11654098EA0120501282000004000000
B0451443201662S11654156EA0120501281000004000000
B0451483201664S11654215EA0120101279000004000000
B0451523201662S11654279EA0119701272000004000000
B0451563201662S11654348EA0118701262000004000000
B0452003201662S11654418EA0118201259000004000000
B0452043201668S11654483EA0118201260000004000000
B0452083201682S11654544EA0118301261000004000000
B0452123201692S11654600EA0118701267000004000000
B0452163201704S11654656EA0119001269000004000000
B0452203201717S11654709EA0119101269000004000000
B0452243201729S11654763EA0118801266000004000000
B0452283201743S11654817EA0118601264000004000000
B0452323201764S11654869EA0118901267000004000000
B0452363201798S11654912EA0118901267000004000000
B0452403201826S11654963EA0118901267000004000000
B0452443201843S11655021EA0119101273000004000000
B0452483201851S11655081EA0120101283000004000000
B0452523201868S11655136EA0120501286000004000000
B0452563201913S11655144EA0120801289000004000000
B0453003201935S11655088EA0120501285000004000000
B0453043201900S11655023EA0120101283000004000000
B0453083201840S11655005EA0120801292000004000000
B0453123201798S11655040EA0121501295000004000000
B0453163201791S11655094EA0121301296000004000000
B0453203201799S11655151EA0120901288000004000000
B0453243201813S11655207EA0120101278000004000000
B0453283201830S11655263EA0119601273000004000000
B0453323201852S11655314EA0119601277000004000000
B0453363201873S11655365EA0120201283000004000000
B0453403201904S11655405EA0121301295000004000000
B0453443201946S11655380EA0122301307000004000000
B0453483201933S11655307EA0122301305000004000000
B0453523201872S11655281EA0123101321000004000000
B0453563201827S11655319EA0124201327000004000000
B0454003201829S11655372EA0125101337000004000000
B0454043201868S11655385EA0125801343000004000000
B0454083201900S11655340EA0125501334000004000000
B0454123201885S11655266EA0125301338000004000000
B0454163201829S11655229EA0126001349000004000000
B0454203201775S11655255EA0126801351000004000000
B0454243201765S11655311EA0127001355000004000000
B0454283201799S11655336EA0128501372000004000000
B0454323201833S11655302EA0128801368000004000000
B0454363201820S11655231EA0128201366000004000000
B0454403201762S11655202EA0129601386000004000000
B0454443201714S11655232EA0130201385000004000000
B0454483201707S11655289EA0130101389000004000000
B0454523201740S11655315EA0131801402000004000000
B0454563201778S11655284EA0131601395000004000000
B0455003201777S11655215EA0131401396000004000000
B0455043201730S11655168EA0131901407000004000000
B0455083201673S11655166EA0133001413000004000000
B0455123201626S11655202EA0132901411000004000000
B0455163201617S11655262EA0132901412000004000000
B0455203201635S11655319EA0132801407000004000000
B0455243201661S11655375EA0131401392000004000000
B0455283201691S11655434EA0130801391000004000000
B0455323201718S11655492EA0131401402000004000000
B0455363201747S11655548EA0132001408000004000000
B0455403201781S11655601EA0131901405000004000000
B0455443201818S11655651EA0131901405000004000000
B0455483201856S11655700EA0132201409000004000000
B0455523201894S11655747EA0132201409000004000000
B0455563201935S11655792EA0131901404000004000000
B0456003201980S11655837EA0131101396000004000000
B0456043202025S11655879EA0130401392000004000000
B0456083202068S11655921EA0130701396000004000000
B0456123202107S11655964EA0131601405000004000000
B0456163202147S11656002EA0131901409000004000000
B0456203202185S11656041EA0132701419000004000000
B0456243202216S11656076EA0133701425000004000000
B0456283202255S11656108EA0133101417000004000000
B0456323202298S11656146EA0132401407000004000000
B0456363202341S11656189EA0131901405000004000000
B0456403202384S11656232EA0131401401000004000000
B0456443202427S11656275EA0131101397000004000000
B0456483202468S11656318EA0130701399000004000000
B0456523202507S11656358EA0131001400000004000000
B0456563202549S11656397EA0130901397000004000000
B0457003202588S11656437EA0130601396000004000000
B0457043202627S11656475EA0130801396000004000000
B0457083202665S11656513EA0130601396000004000000
B0457123202700S11656549EA0130701397000004000000
B0457163202737S11656585EA0130701396000004000000
B0457203202774S11656620EA0130601394000004000000
B0457243202809S11656654EA0129901387000004000000
B0457283202844S11656693EA0129301377000004000000
B0457323202877S11656739EA0128401369000004000000
B0457363202913S11656787EA0127501363000004000000
B0457403202951S11656832EA0127001359000004000000
B0457443202990S11656880EA0126401351000004000000
B0457483203029S11656929EA0126001350000004000000
B0457523203065S11656975EA0126201351000004000000
B0457563203100S11657018EA0126201354000004000000
B0458003203135S11657057EA0125901350000004000000
B0458043203170S11657100EA0125601343000004000000
B0458083203205S11657144EA0125101343000004000000
B0458123203235S11657190EA0125001339000004000000
B0458163203268S11657235EA0124301332000004000000
B0458203203298S11657286EA0123801329000004000000
B0458243203321S11657337EA0124001332000004000000
B0458283203341S11657389EA0123701327000004000000
B0458323203358S11657446EA0123101319000004000000
B0458363203374S11657503EA0123101322000004000000
B0458403203386S11657558EA0123801329000004000000
B0458443203393S11657611EA0124001327000004000000
B0458483203399S11657668EA0123501318000004000000
B0458523203411S11657729EA0123101318000004000000
B0458563203419S11657788EA0123001317000004000000
B0459003203426S11657846EA0123001318000004000000
B0459043203434S11657902EA0123001316000004000000
B0459083203438S11657961EA0122301304000004000000
B0459123203439S11658023EA0121401299000004000000
B0459163203441S11658082EA0121601303000004000000
B0459203203442S11658136EA0121701305000004000000
B0459243203447S11658192EA0122001306000004000000
B0459283203459S11658248EA0121601298000004000000
B0459323203472S11658304EA0121101297000004000000
B0459363203489S11658357EA0120601291000004000000
B0459403203508S11658412EA0120401288000004000000
B0459443203521S11658472EA0120401290000004000000
B0459483203529S11658535EA0121301296000004000000
B0459523203569S11658574EA0122301309000004000000
B0459563203610S11658533EA0124101327000004000000
B0500003203590S11658460EA0124801338000004000000
B0500043203533S11658442EA0126601357000004000000
B0500083203494S11658481EA0127601363000004000000
B0500123203502S11658538EA0128301368000004000000
B0500163203549S11658559EA0128701374000004000000
B0500203203589S11658518EA0130001390000004000000
B0500243203582S11658453EA0131501405000004000000
B0500283203532S11658421EA0132401408000004000000
B0500323203480S11658447EA0132901417000004000000
B0500363203473S11658503EA0133901426000004000000
B0500403203515S11658528EA0134301428000004000000
B0500443203558S11658485EA0134201427000004000000
B0500483203550S11658412EA0135101442000004000000
B0500523203497S11658383EA0136601454000004000000
B0500563203454S11658420EA0137401461000004000000
B0501003203465S11658470EA0138001465000004000000
B0501043203515S11658465EA0137801462000004000000
B0501083203533S11658399EA0138201470000004000000
B0501123203493S11658344EA0139201481000004000000
B0501163203436S11658348EA0140101488000004000000
B0501203203407S11658396EA0140601492000004000000
B0501243203434S11658446EA0140801493000004000000
B0501283203485S11658470EA0140501489000004000000
B0501323203540S11658486EA0140401489000004000000
B0501363203594S11658500EA0140901493000004000000
B0501403203649S11658515EA0140501486000004000000
B0501443203703S11658533EA0139701477000004000000
B0501483203755S11658560EA0138701472000004000000
B0501523203800S11658595EA0139201479000004000000
B0501563203836S11658629EA0139701482000004000000
B0502003203862S11658669EA0139801482000004000000
B0502043203888S11658713EA0139301475000004000000
B0502083203924S11658756EA0138601469000004000000
B0502123203967S11658791EA0138501473000004000000
B0502163204009S11658820EA0138801474000004000000
B0502203204049S11658843EA0138801471000004000000
B0502243204089S11658867EA0138401469000004000000
B0502283204130S11658885EA0138601470000004000000
B0502323204170S11658899EA0138301467000004000000
B0502363204209S11658915EA0138101465000004000000
B0502403204247S11658932EA0138101465000004000000
B0502443204286S11658947EA0138001462000004000000
B0502483204331S11658958EA0137501458000004000000
B0502523204381S11658962EA0137801460000004000000
B0502563204433S11658970EA0137601459000004000000
B0503003204485S11658985EA0138101468000004000000
B0503043204534S11659002EA0138101465000004000000
B0503083204586S11659022EA0137701458000004000000
B0503123204642S11659041EA0136701446000004000000
B0503163204699S11659062EA0135701437000004000000
B0503203204758S11659084EA0134701430000004000000
B0503243204815S11659106EA0134701433000004000000
B0503283204871S11659126EA0134801432000004000000
B0503323204924S11659146EA0134501428000004000000
B0503363204975S11659170EA0134301425000004000000
B0503403205025S11659192EA0134001424000004000000
B0503443205076S11659211EA0133901420000004000000
B0503483205127S11659232EA0133201415000004000000
B0503523205179S11659254EA0132901412000004000000
B0503563205230S11659279EA0132501410000004000000
B0504003205280S11659305EA0132101404000004000000
B0504043205334S11659335EA0131501399000004000000
B0504083205384S11659367EA0131201397000004000000
B0504123205432S11659404EA0130901395000004000000
B0504163205479S11659444EA0130701393000004000000
B0504203205525S11659483EA0130501388000004000000
B0504243205577S11659518EA0129601382000004000000
B0504283205630S11659551EA0129301379000004000000
B0504323205681S11659586EA0129001377000004000000
B0504363205731S11659622EA0128701371000004000000
B0504403205782S11659659EA0127901365000004000000
B0504443205831S11659700EA0127601361000004000000
B0504483205881S11659740EA0127101357000004000000
B0504523205932S11659779EA0126901355000004000000
B0504563205980S11659815EA0127201362000004000000
B0505003206026S11659844EA0127601363000004000000
B0505043206069S11659876EA0127401355000004000000
B0505083206114S11659909EA0126501348000004000000
B0505123206159S11659941EA0126401352000004000000
B0505163206201S11659968EA0126501352000004000000
B0505203206242S11659989EA0126701352000004000000
B0505243206284S11700011EA0126201346000004000000
B0505283206327S11700033EA0126001345000004000000
B0505323206367S11700062EA0126201344000004000000
B0505363206407S11700089EA0126301350000004000000
B0505403206444S11700116EA0126801358000004000000
B0505443206480S11700147EA0127501361000004000000
B0505483206518S11700184EA0127601365000004000000
B0505523206563S11700195EA0128601375000004000000
B0505563206609S11700173EA0129601382000004000000
B0506003206640S11700117EA0129601385000004000000
B0506043206641S11700043EA0130001388000004000000
B0506083206609S11659981EA0130701398000004000000
B0506123206553S11659958EA0132101411000004000000
B0506163206502S11659981EA0133501422000004000000
B0506203206488S11700030EA0134501432000004000000
B0506243206526S11700052EA0134801432000004000000
B0506283206563S11700016EA0135801445000004000000
B0506323206566S11659954EA0136501450000004000000
B0506363206531S11659896EA0136901454000004000000
B0506403206472S11659876EA0137601463000004000000
B0506443206420S11659896EA0138501471000004000000
B0506483206402S11659945EA0138901473000004000000
B0506523206409S11700000EA0139201477000004000000
B0506563206418S11700060EA0139801484000004000000
B0507003206428S11700120EA0140201488000004000000
B0507043206440S11700179EA0141401501000004000000
B0507083206450S11700232EA0142101502000004000000
B0507123206462S11700285EA0141301487000004000000
B0507163206474S11700348EA0139901473000004000000
B0507203206481S11700411EA0139501473000004000000
B0507243206484S11700472EA0139701476000004000000
B0507283206484S11700535EA0139301470000004000000
B0507323206484S11700598EA0138901467000004000000
B0507363206484S11700660EA0138501463000004000000
B0507403206484S11700722EA0138101460000004000000
B0507443206484S11700786EA0137701456000004000000
B0507483206485S11700848EA0137301451000004000000
B0507523206489S11700912EA0136801447000004000000
B0507563206494S11700974EA0136301443000004000000
B0508003206509S11701034EA0135701435000004000000
B0508043206523S11701095EA0135201430000004000000
B0508083206536S11701156EA0134901426000004000000
B0508123206553S11701217EA0135101432000004000000
B0508163206578S11701269EA0136201443000004000000
B0508203206609S11701315EA0136501439000004000000
B0508243206641S11701363EA0136101439000004000000
B0508283206676S11701407EA0135501429000004000000
B0508323206710S11701453EA0135001426000004000000
B0508363206744S11701501EA0134901424000004000000
B0508403206778S11701547EA0135001427000004000000
B0508443206808S11701594EA0135201426000004000000
B0508483206835S11701648EA0134401413000004000000
B0508523206864S11701703EA0133301403000004000000
B0508563206894S11701762EA0132301394000004000000
B0509003206927S11701809EA0132801404000004000000
B0509043206960S11701856EA0133301407000004000000
B0509083206995S11701902EA0133001401000004000000
B0509123207029S11701949EA0132201395000004000000
B0509163207060S11701996EA0132001393000004000000
B0509203207090S11702043EA0131901393000004000000
B0509243207118S11702090EA0131501386000004000000
B0509283207147S11702136EA0131001382000004000000
B0509323207174S11702184EA0130701379000004000000
B0509363207202S11702231EA0130101370000004000000
B0509403207234S11702279EA0129301364000004000000
B0509443207265S11702329EA0128801360000004000000
B0509483207294S11702381EA0128301354000004000000
B0509523207324S11702435EA0127401346000004000000
B0509563207352S11702493EA0126701338000004000000
B0510003207388S11702547EA0126101333000004000000
B0510043207427S11702595EA0126101339000004000000
B0510083207466S11702637EA0126801343000004000000
B0510123207506S11702677EA0126801343000004000000
B0510163207547S11702714EA0126701343000004000000
B0510203207598S11702745EA0126501341000004000000
B0510243207648S11702772EA0126101338000004000000
B0510283207696S11702802EA0125701335000004000000
B0510323207741S11702840EA0125901338000004000000
B0510363207779S11702884EA0126401343000004000000
B0510403207818S11702923EA0126301341000004000000
B0510443207858S11702963EA0125801332000004000000
B0510483207893S11703011EA0125001323000004000000
B0510523207922S11703062EA0124201315000004000000
B0510563207948S11703114EA0123301307000004000000
B0511003207971S11703169EA0122201294000004000000
B0511043207988S11703231EA0121001282000004000000
B0511083208004S11703296EA0119901273000004000000
B0511123208022S11703360EA0119201265000004000000
B0511163208041S11703418EA0118701265000004000000
B0511203208060S11703471EA0118601263000004000000
B0511243208077S11703526EA0118201255000004000000
B0511283208105S11703581EA0117601249000004000000
B0511323208153S11703616EA0117201250000004000000
B0511363208205S11703639EA0116701243000004000000
B0511403208264S11703646EA0115701228000004000000
B0511443208324S11703640EA0115001224000004000000
B0511483208381S11703635EA0114301217000004000000
B0511523208434S11703629EA0114101217000004000000
B0511563208486S11703625EA0113301205000004000000
B0512003208539S11703617EA0111601191000004000000
B0512043208597S11703614EA0110001174000004000000
B0512083208659S11703617EA0109001166000004000000
B0512123208717S11703617EA0109201173000004000000
B0512163208775S11703612EA0109501175000004000000
B0512203208832S11703605EA0109501171000004000000
B0512243208890S11703599EA0108601161000004000000
B0512283208950S11703582EA0107801155000004000000
B0512323209009S11703560EA0107901159000004000000
B0512363209065S11703543EA0108001158000004000000
B0512403209119S11703521EA0108001159000004000000
B0512443209165S11703474EA0108201163000004000000
B0512483209183S11703406EA0109001173000004000000
B0512523209141S11703356EA0109601178000004000000
B0512563209088S11703379EA0109901181000004000000
B0513003209084S11703430EA0110701189000004000000
B0513043209122S11703447EA0111201194000004000000
B0513083209161S11703409EA0111101191000004000000
B0513123209169S11703338EA0111301193000004000000
B0513163209132S11703279EA0112001202000004000000
B0513203209075S11703279EA0112101202000004000000
B0513243209050S11703331EA0111701200000004000000
B0513283209080S11703362EA0112701213000004000000
B0513323209117S11703326EA0113501215000004000000
B0513363209109S11703254EA0113401213000004000000
B0513403209050S11703228EA0113701221000004000000
B0513443209009S11703266EA0114201227000004000000
B0513483209015S11703314EA0114401228000004000000
B0513523209058S11703326EA0115001235000004000000
B0513563209093S11703279EA0115501240000004000000
B0514003209093S11703213EA0115801238000004000000
B0514043209066S11703141EA0115201233000004000000
B0514083209037S11703065EA0115201235000004000000
B0514123209022S11702984EA0115101233000004000000
B0514163209015S11702903EA0114601222000004000000
B0514203209014S11702819EA0113501213000004000000
B0514243209015S11702733EA0112801208000004000000
B0514283209020S11702647EA0112801209000004000000
B0514323209022S11702564EA0113001210000004000000
B0514363209014S11702481EA0113101211000004000000
B0514403209003S11702396EA0112801205000004000000
B0514443208987S11702309EA0112001197000004000000
B0514483208966S11702220EA0111601193000004000000
B0514523208942S11702130EA0111301191000004000000
B0514563208927S11702040EA0110901188000004000000
B0515003208925S11701953EA0110901188000004000000
B0515043208932S11701870EA0110401181000004000000
B0515083208940S11701784EA0109601174000004000000
B0515123208950S11701701EA0109101172000004000000
B0515163208963S11701622EA0108701166000004000000
B0515203208979S11701541EA0107901158000004000000
B0515243208998S11701462EA0107401149000004000000
B0515283209022S11701384EA0106301142000004000000
B0515323209039S11701304EA0105801134000004000000
B0515363209055S11701226EA0104901125000004000000
B0515403209071S11701151EA0105301138000004000000
B0515443209071S11701076EA0106801150000004000000
B0515483209027S11701021EA0107501159000004000000
B0515523208971S11701038EA0107501155000004000000
B0515563208958S11701095EA0107001150000004000000
B0516003208993S11701125EA0106601148000004000000
B0516043209033S11701100EA0106701150000004000000
B0516083209057S11701044EA0107701163000004000000
B0516123209057S11700977EA0108601169000004000000
B0516163209009S11700938EA0108701171000004000000
B0516203208958S11700955EA0109001170000004000000
B0516243208938S11701012EA0108201161000004000000
B0516283208976S11701042EA0108801175000004000000
B0516323209005S11700996EA0110301191000004000000
B0516363208974S11700934EA0110201189000004000000
B0516403208915S11700948EA0110601194000004000000
B0516443208903S11701005EA0110901197000004000000
B0516483208941S11701038EA0111601204000004000000
B0516523208987S11701017EA0112301211000004000000
B0516563209005S11700949EA0113001217000004000000
B0517003208974S11700884EA0113901227000004000000
B0517043208916S11700866EA0114801235000004000000
B0517083208880S11700910EA0115401243000004000000
B0517123208896S11700956EA0116101248000004000000
B0517163208942S11700952EA0116201248000004000000
B0517203208962S11700887EA0117101260000004000000
B0517243208933S11700821EA0117701264000004000000
B0517283208873S11700795EA0118101264000004000000
B0517323208829S11700842EA0118701271000004000000
B0517363208845S11700894EA0119401280000004000000
B0517403208892S11700896EA0120001285000004000000
B0517443208918S11700840EA0120601294000004000000
B0517483208898S11700771EA0121301296000004000000
B0517523208840S11700735EA0121201296000004000000
B0517563208785S11700749EA0122001309000004000000
B0518003208775S11700801EA0122101300000004000000
B0518043208819S11700826EA0121401303000004000000
B0518083208866S11700796EA0122401314000004000000
B0518123208881S11700730EA0123101319000004000000
B0518163208859S11700656EA0122801316000004000000
B0518203208820S11700579EA0121901303000004000000
B0518243208780S11700505EA0120901294000004000000
B0518283208736S11700431EA0120901298000004000000
B0518323208690S11700359EA0121801313000004000000
B0518363208643S11700290EA0122901312000004000000
B0518403208599S11700220EA0124001329000004000000
B0518443208554S11700155EA0125801346000004000000
B0518483208504S11700093EA0126701353000004000000
B0518523208457S11700021EA0126601348000004000000
B0518563208415S11659946EA0127001353000004000000
B0519003208372S11659874EA0127701359000004000000
B0519043208331S11659805EA0128001361000004000000
B0519083208291S11659733EA0127901358000004000000
B0519123208256S11659656EA0127101347000004000000
B0519163208218S11659574EA0126001335000004000000
B0519203208177S11659492EA0124801324000004000000
B0519243208131S11659417EA0123801315000004000000
B0519283208086S11659350EA0123901325000004000000
B0519323208041S11659292EA0124501329000004000000
B0519363207996S11659227EA0124101324000004000000
B0519403207949S11659163EA0123801321000004000000
B0519443207887S11659123EA0124001328000004000000
B0519483207826S11659141EA0125101339000004000000
B0519523207822S11659196EA0125501342000004000000
B0519563207866S11659205EA0125501342000004000000
B0520003207895S11659149EA0125301341000004000000
B0520043207879S11659074EA0125301340000004000000
B0520083207845S11658999EA0125301342000004000000
B0520123207805S11658925EA0125601345000004000000
B0520163207759S11658855EA0125901346000004000000
B0520203207707S11658788EA0125601343000004000000
B0520243207650S11658729EA0125301338000004000000
B0520283207584S11658689EA0125101339000004000000
B0520323207515S11658694EA0126501358000004000000
B0520363207489S11658745EA0127901368000004000000
B0520403207516S11658785EA0128001369000004000000
B0520443207560S11658763EA0128801377000004000000
B0520483207570S11658694EA0129201381000004000000
B0520523207529S11658638EA0129801387000004000000
B0520563207471S11658643EA0130701398000004000000
B0521003207446S11658695EA0131701404000004000000
B0521043207471S11658736EA0132101408000004000000
B0521083207512S11658716EA0132601413000004000000
B0521123207532S11658652EA0132701414000004000000
B0521163207505S11658582EA0133301425000004000000
B0521203207449S11658557EA0134401437000004000000
B0521243207404S11658591EA0135801449000004000000
B0521283207404S11658643EA0136801454000004000000
B0521323207440S11658665EA0137301463000004000000
B0521363207479S11658638EA0138001468000004000000
B0521403207495S11658576EA0138301469000004000000
B0521443207466S11658512EA0138601475000004000000
B0521483207407S11658508EA0139201480000004000000
B0521523207385S11658559EA0140001488000004000000
B0521563207411S11658598EA0140201488000004000000
B0522003207459S11658585EA0140201492000004000000
B0522043207494S11658530EA0140501490000004000000
B0522083207527S11658466EA0140101488000004000000
B0522123207558S11658400EA0140101486000004000000
B0522163207588S11658334EA0139801485000004000000
B0522203207618S11658266EA0139101476000004000000
B0522243207651S11658199EA0138201467000004000000
B0522283207685S11658127EA0137701462000004000000
B0522323207719S11658056EA0137401458000004000000
B0522363207754S11657983EA0136701453000004000000
B0522403207788S11657909EA0136201447000004000000
B0522443207824S11657835EA0135501441000004000000
B0522483207861S11657763EA0134801433000004000000
B0522523207897S11657689EA0134001424000004000000
B0522563207932S11657612EA0133001413000004000000
B0523003207969S11657532EA0132301405000004000000
B0523043208002S11657452EA0132001404000004000000
B0523083208036S11657376EA0131701399000004000000
B0523123208075S11657306EA0131001395000004000000
B0523163208117S11657239EA0130901395000004000000
B0523203208156S11657178EA0130901394000004000000
B0523243208196S11657116EA0130201385000004000000
B0523283208235S11657049EA0129201375000004000000
B0523323208277S11656981EA0128601372000004000000
B0523363208316S11656914EA0128501370000004000000
B0523403208353S11656848EA0128101366000004000000
B0523443208396S11656786EA0127601361000004000000
B0523483208438S11656722EA0127301359000004000000
B0523523208476S11656658EA0126801354000004000000
B0523563208509S11656593EA0126301348000004000000
B0524003208543S11656529EA0125501342000004000000
B0524043208577S11656466EA0124701333000004000000
B0524083208617S11656406EA0123701322000004000000
B0524123208664S11656351EA0123101319000004000000
B0524163208710S11656294EA0123201324000004000000
B0524203208747S11656228EA0124001334000004000000
B0524243208775S11656159EA0125501347000004000000
B0524283208762S11656085EA0126901362000004000000
B0524323208708S11656059EA0128301377000004000000
B0524363208671S11656097EA0129201381000004000000
B0524403208685S11656139EA0129801386000004000000
B0524443208730S11656133EA0130301394000004000000
B0524483208755S11656069EA0131301402000004000000
B0524523208724S11656002EA0132101412000004000000
B0524563208665S11655993EA0132801418000004000000
B0525003208630S11656039EA0133601426000004000000
B0525043208655S11656076EA0134401434000004000000
B0525083208698S11656045EA0135001436000004000000
B0525123208698S11655972EA0135701446000004000000
B0525163208650S11655926EA0136201451000004000000
B0525203208597S11655950EA0137001458000004000000
B0525243208593S11656002EA0137801465000004000000
B0525283208634S11656012EA0138401469000004000000
B0525323208668S11655964EA0138801474000004000000
B0525363208659S11655892EA0139301479000004000000
B0525403208610S11655851EA0139501481000004000000
B0525443208556S11655869EA0139501480000004000000
B0525483208548S11655922EA0140001485000004000000
B0525523208591S11655946EA0140101487000004000000
B0525563208642S11655924EA0140701495000004000000
B0526003208676S11655865EA0140801494000004000000
B0526043208682S11655788EA0140701495000004000000
B0526083208660S11655713EA0141901508000004000000
B0526123208606S11655668EA0142301509000004000000
B0526163208538S11655634EA0142501513000004000000
B0526203208470S11655600EA0143201521000004000000
B0526243208404S11655565EA0143601522000004000000
B0526283208337S11655531EA0144201531000004000000
B0526323208270S11655499EA0144801531000004000000
B0526363208201S11655462EA0145001534000004000000
B0526403208135S11655424EA0145401538000004000000
B0526443208071S11655385EA0145501535000004000000
B0526483208006S11655346EA0145201532000004000000
B0526523207941S11655307EA0144501525000004000000
B0526563207874S11655274EA0143401509000004000000
B0527003207802S11655237EA0142001503000004000000
B0527043207731S11655205EA0142101502000004000000
B0527083207663S11655170EA0141801496000004000000
B0527123207593S11655140EA0141701498000004000000
B0527163207524S11655115EA0142001501000004000000
B0527203207453S11655093EA0141501493000004000000
B0527243207385S11655060EA0141001486000004000000
B0527283207321S11655010EA0140101476000004000000
B0527323207263S11654951EA0139201467000004000000
B0527363207207S11654890EA0138601460000004000000
B0527403207155S11654825EA0138001452000004000000
B0527443207102S11654763EA0137601449000004000000
B0527483207052S11654700EA0137001445000004000000
B0527523207007S11654637EA0136501441000004000000
B0527563206956S11654577EA0136001435000004000000
B0528003206904S11654516EA0135901435000004000000
B0528043206855S11654456EA0135701433000004000000
B0528083206795S11654403EA0135001424000004000000
B0528123206722S11654378EA0134301418000004000000
B0528163206650S11654397EA0134001417000004000000
B0528203206610S11654455EA0133901418000004000000
B0528243206622S11654511EA0133501413000004000000
B0528283206669S11654530EA0132301397000004000000
B0528323206723S11654531EA0131201391000004000000
B0528363206778S11654537EA0130901388000004000000
B0528403206830S11654543EA0130801386000004000000
B0528443206883S11654548EA0130201381000004000000
B0528483206935S11654552EA0130001380000004000000
B0528523206987S11654563EA0129601374000004000000
B0528563207039S11654577EA0128901368000004000000
B0529003207091S11654594EA0128301364000004000000
B0529043207138S11654616EA0127801360000004000000
B0529083207185S11654641EA0127201351000004000000
B0529123207234S11654669EA0126301341000004000000
B0529163207282S11654703EA0125801341000004000000
B0529203207326S11654742EA0126001344000004000000
B0529243207367S11654782EA0126001342000004000000
B0529283207406S11654828EA0125901339000004000000
B0529323207443S11654876EA0126001343000004000000
B0529363207479S11654923EA0126301342000004000000
B0529403207511S11654969EA0125901339000004000000
B0529443207541S11655019EA0124901326000004000000
B0529483207570S11655064EA0124501325000004000000
B0529523207602S11655110EA0124201320000004000000
B0529563207635S11655154EA0124701327000004000000
B0530003207674S11655187EA0125701342000004000000
B0530043207720S11655170EA0127001352000004000000
B0530083207744S11655109EA0127401354000004000000
B0530123207720S11655037EA0127301352000004000000
B0530163207659S11655006EA0126701347000004000000
B0530203207601S11655037EA0126301346000004000000
B0530243207584S11655098EA0127701363000004000000
B0530283207607S11655138EA0128901372000004000000
B0530323207651S11655133EA0129501380000004000000
B0530363207684S11655084EA0130101383000004000000
B0530403207681S11655014EA0130301385000004000000
B0530443207638S11654956EA0130101380000004000000
B0530483207576S11654951EA0129801380000004000000
B0530523207537S11654997EA0129901382000004000000
B0530563207546S11655046EA0130701391000004000000
B0531003207588S11655046EA0131101394000004000000
B0531043207615S11654989EA0131101392000004000000
B0531083207594S11654923EA0131201394000004000000
B0531123207537S11654897EA0130601387000004000000
B0531163207484S11654933EA0130401387000004000000
B0531203207481S11654990EA0130901392000004000000
B0531243207523S11655002EA0131301395000004000000
B0531283207553S11654949EA0131401397000004000000
B0531323207534S11654878EA0131601398000004000000
B0531363207480S11654845EA0131601399000004000000
B0531403207424S11654867EA0131901400000004000000
B0531443207411S11654921EA0131801397000004000000
B0531483207447S11654954EA0131701399000004000000
B0531523207493S11654967EA0132401408000004000000
B0531563207538S11654980EA0133001413000004000000
B0532003207584S11654997EA0133501422000004000000
B0532043207629S11655023EA0134101423000004000000
B0532083207672S11655058EA0133801419000004000000
B0532123207710S11655097EA0133301413000004000000
B0532163207742S11655137EA0132801410000004000000
B0532203207775S11655177EA0132701410000004000000
B0532243207805S11655218EA0133101412000004000000
B0532283207833S11655259EA0133501414000004000000
B0532323207870S11655298EA0133001409000004000000
B0532363207911S11655328EA0132801406000004000000
B0532403207956S11655354EA0132401405000004000000
B0532443207996S11655384EA0132401405000004000000
B0532483208025S11655434EA0132501404000004000000
B0532523208047S11655495EA0133001408000004000000
B0532563208080S11655543EA0132901406000004000000
B0533003208127S11655575EA0133001411000004000000
B0533043208171S11655599EA0133601421000004000000
B0533083208213S11655618EA0133401417000004000000
B0533123208261S11655634EA0132601405000004000000
B0533163208312S11655652EA0131701400000004000000
B0533203208363S11655670EA0131301395000004000000
B0533243208413S11655690EA0130601390000004000000
B0533283208465S11655708EA0130201385000004000000
B0533323208515S11655725EA0129601380000004000000
B0533363208561S11655746EA0129101376000004000000
B0533403208599S11655786EA0128301364000004000000
B0533443208620S11655846EA0127501353000004000000
B0533483208641S11655905EA0126801346000004000000
B0533523208659S11655965EA0126001339000004000000
B0533563208673S11656025EA0125401335000004000000
B0534003208686S11656087EA0124601325000004000000
B0534043208697S11656150EA0124301322000004000000
B0534083208706S11656210EA0124501328000004000000
B0534123208716S11656260EA0125301337000004000000
B0534163208730S11656311EA0125801336000004000000
B0534203208751S11656362EA0126301343000004000000
B0534243208797S11656362EA0126701346000004000000
B0534283208821S11656301EA0126501345000004000000
B0534323208795S11656233EA0126301339000004000000
B0534363208734S11656201EA0125401332000004000000
B0534403208676S11656207EA0125401336000004000000
B0534443208641S11656247EA0126201344000004000000
B0534483208642S11656299EA0126701349000004000000
B0534523208667S11656344EA0127601359000004000000
B0534563208715S11656349EA0128901370000004000000
B0535003208734S11656285EA0129801378000004000000
B0535043208698S11656227EA0129501372000004000000
B0535083208638S11656227EA0129301377000004000000
B0535123208608S11656275EA0130201389000004000000
B0535163208625S11656319EA0131501399000004000000
B0535203208675S11656316EA0132201405000004000000
B0535243208702S11656256EA0133201415000004000000
B0535283208690S11656188EA0134001423000004000000
B0535323208650S11656141EA0133701415000004000000
B0535363208590S11656134EA0133301415000004000000
B0535403208542S11656167EA0134001424000004000000
B0535443208524S11656221EA0134401427000004000000
B0535483208551S11656264EA0134501428000004000000
B0535523208603S11656245EA0135101437000004000000
B0535563208616S11656172EA0136201449000004000000
B0536003208574S11656113EA0137501460000004000000
B0536043208515S11656113EA0138501469000004000000
B0536083208480S11656160EA0139001472000004000000
B0536123208490S11656214EA0138901470000004000000
B0536163208529S11656262EA0138501467000004000000
B0536203208571S11656310EA0138901475000004000000
B0536243208612S11656355EA0139801482000004000000
B0536283208654S11656406EA0140301487000004000000
B0536323208693S11656458EA0140701489000004000000
B0536363208730S11656511EA0140301480000004000000
B0536403208763S11656567EA0139701477000004000000
B0536443208792S11656620EA0139401471000004000000
B0536483208824S11656671EA0138201458000004000000
B0536523208862S11656722EA0137401448000004000000
B0536563208899S11656773EA0136601443000004000000
B0537003208938S11656821EA0136301441000004000000
B0537043208979S11656867EA0136001435000004000000
B0537083209018S11656912EA0135401431000004000000
B0537123209055S11656956EA0135201428000004000000
B0537163209092S11656999EA0135101428000004000000
B0537203209132S11657040EA0134701422000004000000
B0537243209178S11657082EA0134501422000004000000
B0537283209222S11657121EA0135401436000004000000
B0537323209267S11657157EA0136001437000004000000
B0537363209309S11657204EA0135401431000004000000
B0537403209345S11657259EA0134901422000004000000
B0537443209377S11657319EA0134301416000004000000
B0537483209408S11657374EA0134301420000004000000
B0537523209436S11657424EA0134001412000004000000
B0537563209468S11657473EA0133001400000004000000
B0538003209500S11657525EA0132201393000004000000
B0538043209531S11657580EA0131801390000004000000
B0538083209564S11657631EA0132301399000004000000
B0538123209596S11657679EA0133201407000004000000
B0538163209627S11657725EA0133701411000004000000
B0538203209657S11657775EA0133601409000004000000
B0538243209687S11657824EA0133401405000004000000
B0538283209717S11657878EA0133401406000004000000
B0538323209746S11657931EA0133101401000004000000
B0538363209774S11657985EA0132701395000004000000
B0538403209804S11658039EA0132401396000004000000
B0538443209834S11658091EA0132701400000004000000
B0538483209865S11658138EA0133301406000004000000
B0538523209895S11658186EA0133701408000004000000
B0538563209925S11658235EA0133401402000004000000
B0539003209955S11658288EA0133401407000004000000
B0539043209986S11658336EA0134401418000004000000
B0539083210019S11658383EA0135301427000004000000
B0539123210047S11658435EA0135601426000004000000
B0539163210077S11658490EA0135401424000004000000
B0539203210111S11658537EA0136001432000004000000
B0539243210146S11658583EA0136701441000004000000
B0539283210184S11658625EA0137301444000004000000
B0539323210223S11658668EA0137501446000004000000
B0539363210255S11658720EA0137301444000004000000
B0539403210284S11658777EA0137301445000004000000
B0539443210311S11658828EA0138401456000004000000
B0539483210340S11658877EA0138901459000004000000
B0539523210368S11658932EA0138701455000004000000
B0539563210394S11658992EA0138301452000004000000
B0540003210424S11659050EA0137301438000004000000
B0540043210459S11659110EA0135901424000004000000
B0540083210498S11659167EA0135401424000004000000
B0540123210543S11659215EA0134901416000004000000
B0540163210592S11659257EA0134101409000004000000
B0540203210639S11659302EA0133501401000004000000
B0540243210686S11659345EA0132901397000004000000
B0540283210738S11659375EA0132601401000004000000
B0540323210792S11659395EA0133001404000004000000
B0540363210847S11659413EA0133101404000004000000
B0540403210904S11659431EA0133101406000004000000
B0540443210961S11659447EA0133301410000004000000
B0540483211020S11659457EA0133801415000004000000
B0540523211076S11659469EA0133601416000004000000
B0540563211126S11659482EA0133601417000004000000
B0541003211178S11659499EA0133101409000004000000
B0541043211229S11659525EA0132001399000004000000
B0541083211278S11659558EA0131901404000004000000
B0541123211324S11659590EA0132401409000004000000
B0541163211371S11659618EA0132401406000004000000
B0541203211423S11659640EA0132001403000004000000
B0541243211480S11659652EA0131801399000004000000
B0541283211535S11659625EA0131801400000004000000
B0541323211559S11659558EA0132401407000004000000
B0541363211537S11659484EA0132201406000004000000
B0541403211486S11659430EA0131701401000004000000
B0541443211428S11659384EA0131601400000004000000
B0541483211368S11659337EA0131501399000004000000
B0541523211303S11659297EA0131201395000004000000
B0541563211233S11659267EA0130801393000004000000
B0542003211164S11659241EA0131201400000004000000
B0542043211098S11659217EA0132101407000004000000
B0542083211031S11659187EA0132201406000004000000
B0542123210966S11659146EA0132401407000004000000
B0542163210907S11659097EA0132601410000004000000
B0542203210849S11659044EA0132701409000004000000
B0542243210794S11658988EA0132301402000004000000
B0542283210738S11658931EA0131701398000004000000
B0542323210680S11658876EA0131701400000004000000
B0542363210622S11658824EA0131501395000004000000
B0542403210563S11658768EA0130601385000004000000
B0542443210505S11658711EA0130301384000004000000
B0542483210449S11658652EA0129801378000004000000
B0542523210393S11658594EA0129501376000004000000
B0542563210339S11658541EA0129601377000004000000
B0543003210285S11658490EA0129201371000004000000
B0543043210229S11658440EA0128401364000004000000
B0543083210168S11658394EA0127701357000004000000
B0543123210107S11658348EA0127601358000004000000
B0543163210046S11658304EA0128301366000004000000
B0543203209986S11658265EA0129101374000004000000
B0543243209925S11658226EA0129201374000004000000
B0543283209887S11658156EA0129801382000004000000
B0543323209908S11658092EA0131001395000004000000
B0543363209955S11658082EA0131901402000004000000
B0543403209981S11658123EA0132501408000004000000
B0543443209960S11658173EA0133601418000004000000
B0543483209908S11658195EA0133801419000004000000
B0543523209850S11658170EA0133801418000004000000
B0543563209799S11658112EA0133001409000004000000
B0544003209748S11658049EA0132801404000004000000
B0544043209696S11657984EA0132201402000004000000
B0544083209644S11657922EA0132801411000004000000
B0544123209591S11657862EA0133201411000004000000
B0544163209538S11657801EA0132901410000004000000
B0544203209486S11657741EA0133201412000004000000
B0544243209432S11657685EA0133301414000004000000
B0544283209379S11657629EA0133001410000004000000
B0544323209325S11657573EA0132301403000004000000
B0544363209270S11657512EA0132101400000004000000
B0544403209215S11657456EA0133501415000004000000
B0544443209180S11657390EA0134201424000004000000
B0544483209204S11657335EA0135301438000004000000
B0544523209248S11657347EA0135901448000004000000
B0544563209263S11657399EA0136401456000004000000
B0545003209236S11657455EA0136801457000004000000
B0545043209174S11657475EA0137101461000004000000
B0545083209113S11657438EA0137301464000004000000
B0545123209093S11657369EA0138301473000004000000
B0545163209122S11657320EA0138701475000004000000
B0545203209171S11657321EA0138701475000004000000
B0545243209206S11657368EA0138901477000004000000
B0545283209205S11657434EA0139101481000004000000
B0545323209166S11657486EA0139301482000004000000
B0545363209104S11657506EA0138901478000004000000
B0545403209039S11657475EA0138901475000004000000
B0545443208985S11657412EA0138601474000004000000
B0545483208933S11657345EA0138701474000004000000
B0545523208884S11657273EA0137901462000004000000
B0545563208829S11657199EA0137101455000004000000
B0546003208779S11657126EA0136601447000004000000
B0546043208734S11657049EA0135801437000004000000
B0546083208691S11656975EA0135501436000004000000
B0546123208649S11656908EA0135301430000004000000
B0546163208595S11656844EA0135001428000004000000
B0546203208547S11656779EA0135201435000004000000
B0546243208500S11656714EA0135701437000004000000
B0546283208455S11656646EA0136001440000004000000
B0546323208420S11656574EA0136501445000004000000
B0546363208389S11656497EA0135901435000004000000
B0546403208352S11656416EA0135101424000004000000
B0546443208316S11656337EA0134301419000004000000
B0546483208288S11656259EA0134001416000004000000
B0546523208268S11656178EA0133501408000004000000
B0546563208248S11656098EA0132701399000004000000
B0547003208223S11656017EA0132401401000004000000
B0547043208186S11655943EA0133001407000004000000
B0547083208127S11655889EA0133501415000004000000
B0547123208056S11655877EA0133801416000004000000
B0547163207997S11655917EA0134201420000004000000
B0547203207971S11655981EA0134701426000004000000
B0547243207983S11656038EA0134801425000004000000
B0547283208025S11656063EA0134501422000004000000
B0547323208077S11656043EA0134101418000004000000
B0547363208108S11655978EA0133801416000004000000
B0547403208105S11655894EA0133801416000004000000
B0547443208070S11655811EA0134001420000004000000
B0547483208018S11655742EA0134601428000004000000
B0547523207969S11655671EA0135101432000004000000
B0547563207947S11655584EA0135201424000004000000
B0548003207963S11655491EA0134201415000004000000
B0548043208002S11655409EA0133901417000004000000
B0548083208049S11655337EA0134601423000004000000
B0548123208088S11655265EA0135701434000004000000
B0548163208088S11655180EA0136601444000004000000
B0548203208038S11655125EA0138001458000004000000
B0548243207980S11655141EA0138601462000004000000
B0548283207961S11655196EA0138701461000004000000
B0548323207989S11655229EA0139201469000004000000
B0548363208031S11655206EA0139901473000004000000
B0548403208047S11655137EA0139801475000004000000
B0548443208022S11655064EA0139901476000004000000
B0548483207967S11655006EA0139101464000004000000
B0548523207889S11654968EA0137801451000004000000
B0548563207801S11654943EA0137301449000004000000
B0549003207713S11654920EA0137001446000004000000
B0549043207623S11654897EA0136201438000004000000
B0549083207534S11654876EA0136201441000004000000
B0549123207453S11654860EA0136701444000004000000
B0549163207378S11654849EA0136301442000004000000
B0549203207303S11654843EA0135601433000004000000
B0549243207224S11654847EA0135401432000004000000
B0549283207147S11654858EA0135101430000004000000
B0549323207072S11654869EA0135301433000004000000
B0549363206998S11654878EA0135501432000004000000
B0549403206925S11654867EA0135901439000004000000
B0549443206860S11654829EA0136201437000004000000
B0549483206801S11654772EA0136601444000004000000
B0549523206740S11654724EA0137701454000004000000
B0549563206670S11654724EA0138301464000004000000
B0550003206636S11654781EA0139401476000004000000
B0550043206661S11654824EA0140201481000004000000
B0550083206705S11654811EA0139801473000004000000
B0550123206719S11654746EA0139101470000004000000
B0550163206691S11654670EA0139001469000004000000
B0550203206647S11654595EA0138801469000004000000
B0550243206600S11654520EA0139101468000004000000
B0550283206553S11654439EA0137801453000004000000
B0550323206506S11654349EA0136301438000004000000
B0550363206461S11654258EA0136001436000004000000
B0550403206418S11654167EA0135701432000004000000
B0550443206380S11654084EA0136201444000004000000
B0550483206342S11654007EA0136801441000004000000
B0550523206306S11653928EA0136501439000004000000
B0550563206273S11653850EA0136201438000004000000
B0551003206246S11653770EA0136401440000004000000
B0551043206220S11653689EA0136001435000004000000
B0551083206193S11653604EA0135401429000004000000
B0551123206167S11653521EA0135201427000004000000
B0551163206140S11653439EA0134701417000004000000
B0551203206106S11653357EA0134001412000004000000
B0551243206068S11653276EA0133501407000004000000
B0551283206029S11653195EA0133001405000004000000
B0551323205985S11653120EA0132701401000004000000
B0551363205938S11653044EA0132401399000004000000
B0551403205887S11652975EA0132801406000004000000
B0551443205830S11652915EA0133701412000004000000
B0551483205779S11652853EA0133901414000004000000
B0551523205735S11652787EA0133901413000004000000
B0551563205695S11652715EA0133401401000004000000
B0552003205657S11652636EA0132401397000004000000
B0552043205622S11652561EA0132501401000004000000
B0552083205590S11652486EA0132501398000004000000
B0552123205558S11652410EA0131401385000004000000
B0552163205523S11652332EA0130801382000004000000
B0552203205493S11652254EA0130601376000004000000
B0552243205469S11652172EA0130701383000004000000
B0552283205449S11652087EA0130701381000004000000
B0552323205445S11652000EA0130901384000004000000
B0552363205451S11651913EA0131501393000004000000
B0552403205435S11651831EA0132601404000004000000
B0552443205382S11651795EA0134001422000004000000
B0552483205332S11651826EA0134201417000004000000
B0552523205326S11651891EA0133601411000004000000
B0552563205361S11651931EA0133301412000004000000
B0553003205417S11651913EA0133701416000004000000
B0553043205453S11651853EA0134101422000004000000
B0553083205462S11651774EA0134201419000004000000
B0553123205464S11651693EA0133901418000004000000
B0553163205465S11651612EA0134301425000004000000
B0553203205453S11651526EA0134601427000004000000
B0553243205412S11651456EA0135401438000004000000
B0553283205349S11651411EA0135701439000004000000
B0553323205278S11651381EA0135601437000004000000
B0553363205205S11651370EA0136301445000004000000
B0553403205146S11651404EA0136601448000004000000
B0553443205132S11651467EA0136901449000004000000
B0553483205153S11651531EA0136201441000004000000
B0553523205188S11651587EA0136101445000004000000
B0553563205226S11651644EA0136601450000004000000
B0554003205265S11651703EA0136501446000004000000
B0554043205305S11651764EA0136301446000004000000
B0554083205349S11651821EA0135701439000004000000
B0554123205395S11651878EA0136101446000004000000
B0554163205436S11651934EA0136501451000004000000
B0554203205478S11651989EA0136801450000004000000
B0554243205517S11652044EA0136201441000004000000
B0554283205555S11652104EA0135401435000004000000
B0554323205591S11652163EA0134801432000004000000
B0554363205626S11652224EA0133801416000004000000
B0554403205655S11652298EA0133201414000004000000
B0554443205681S11652363EA0134801436000004000000
B0554483205707S11652419EA0135701441000004000000
B0554523205735S11652473EA0135401436000004000000
B0554563205766S11652528EA0135001432000004000000
B0555003205800S11652583EA0134601425000004000000
B0555043205835S11652636EA0134301427000004000000
B0555083205870S11652687EA0134401429000004000000
B0555123205906S11652739EA0134601428000004000000
B0555163205941S11652795EA0134201423000004000000
B0555203205976S11652854EA0134601428000004000000
B0555243206012S11652908EA0135601441000004000000
B0555283206051S11652956EA0136201445000004000000
B0555323206088S11653010EA0135901436000004000000
B0555363206127S11653069EA0134701424000004000000
B0555403206167S11653127EA0134701429000004000000
B0555443206205S11653181EA0135001429000004000000
B0555483206241S11653238EA0134301420000004000000
B0555523206280S11653299EA0133301408000004000000
B0555563206320S11653356EA0132601405000004000000
B0556003206361S11653408EA0132801407000004000000
B0556043206396S11653461EA0132701407000004000000
B0556083206428S11653515EA0132901412000004000000
B0556123206465S11653562EA0133401418000004000000
B0556163206502S11653604EA0133901422000004000000
B0556203206539S11653647EA0133801417000004000000
B0556243206580S11653689EA0133701416000004000000
B0556283206619S11653733EA0134401427000004000000
B0556323206653S11653779EA0134801431000004000000
B0556363206687S11653825EA0134701423000004000000
B0556403206725S11653875EA0133401409000004000000
B0556443206770S11653922EA0131801393000004000000
B0556483206829S11653953EA0130901390000004000000
B0556523206890S11653971EA0130401387000004000000
B0556563206949S11653987EA0130301386000004000000
B0557003207007S11654001EA0130201387000004000000
B0557043207060S11654024EA0129901382000004000000
B0557083207109S11654062EA0129601377000004000000
B0557123207152S11654109EA0129101375000004000000
B0557163207194S11654156EA0129101375000004000000
B0557203207232S11654210EA0128901373000004000000
B0557243207261S11654273EA0128401366000004000000
B0557283207287S11654339EA0127601360000004000000
B0557323207311S11654408EA0127301361000004000000
B0557363207334S11654475EA0127801363000004000000
B0557403207356S11654540EA0127701356000004000000
B0557443207378S11654609EA0126301343000004000000
B0557483207399S11654682EA0126101344000004000000
B0557523207423S11654746EA0127001356000004000000
B0557563207441S11654810EA0127001349000004000000
B0558003207447S11654881EA0126401341000004000000
B0558043207447S11654956EA0126201339000004000000
B0558083207450S11655029EA0126001338000004000000
B0558123207455S11655103EA0125201321000004000000
B0558163207449S11655192EA0122001284000004000000
B0558203207437S11655297EA0119901271000004000000
B0558243207428S11655405EA0119401269000004000000
B0558283207432S11655510EA0119101265000004000000
B0558323207447S11655617EA0118501259000004000000
B0558363207480S11655707EA0118901269000004000000
B0558403207531S11655769EA0119701275000004000000
B0558443207589S11655811EA0119201273000004000000
B0558483207645S11655846EA0119301276000004000000
B0558523207700S11655877EA0119501277000004000000
B0558563207757S11655899EA0119801283000004000000
B0559003207818S11655915EA0120001286000004000000
B0559043207876S11655934EA0119901280000004000000
B0559083207935S11655968EA0119001272000004000000
B0559123207989S11656008EA0119601284000004000000
B0559163208034S11656050EA0120501291000004000000
B0559203208077S11656091EA0120001282000004000000
B0559243208117S11656141EA0119801283000004000000
B0559283208152S11656190EA0120201288000004000000
B0559323208184S11656245EA0120201284000004000000
B0559363208221S11656302EA0120001284000004000000
B0559403208256S11656359EA0120301293000004000000
B0559443208291S11656415EA0121201300000004000000
B0559483208325S11656472EA0121801307000004000000
B0559523208360S11656531EA0122201309000004000000
B0559563208395S11656588EA0122401309000004000000
B0600003208426S11656649EA0122201308000004000000
B0600043208457S11656706EA0123001319000004000000
B0600083208493S11656758EA0123901327000004000000
B0600123208529S11656808EA0124201328000004000000
B0600163208569S11656853EA0124101325000004000000
B0600203208606S11656904EA0124501335000004000000
B0600243208638S11656955EA0125401342000004000000
B0600283208673S11657008EA0125901347000004000000
B0600323208711S11657057EA0126301347000004000000
B0600363208749S11657114EA0125801342000004000000
B0600403208786S11657173EA0126001344000004000000
B0600443208825S11657229EA0126601354000004000000
B0600483208863S11657281EA0127201357000004000000
B0600523208902S11657335EA0126901351000004000000
B0600563208940S11657387EA0127001352000004000000
B0601003208977S11657438EA0127001352000004000000
B0601043209013S11657491EA0127301357000004000000
B0601083209045S11657546EA0127301357000004000000
B0601123209080S11657599EA0127601360000004000000
B0601163209113S11657654EA0128501371000004000000
B0601203209146S11657707EA0129401377000004000000
B0601243209182S11657759EA0129501374000004000000
B0601283209218S11657815EA0129101378000004000000
B0601323209253S11657867EA0129701379000004000000
B0601363209293S11657917EA0129301367000004000000
B0601403209338S11657967EA0127801354000004000000
B0601443209378S11658022EA0127101351000004000000
B0601483209410S11658076EA0126901349000004000000
B0601523209439S11658132EA0126201340000004000000
B0601563209466S11658191EA0125301333000004000000
B0602003209501S11658247EA0124701326000004000000
B0602043209543S11658297EA0124001322000004000000
B0602083209588S11658344EA0124001321000004000000
B0602123209634S11658390EA0123601317000004000000
B0602163209681S11658433EA0123301315000004000000
B0602203209730S11658473EA0123401317000004000000
B0602243209778S11658513EA0123101309000004000000
B0602283209825S11658554EA0122501307000004000000
B0602323209873S11658591EA0122501305000004000000
B0602363209925S11658617EA0123001313000004000000
B0602403209980S11658630EA0125501341000004000000
B0602443210023S11658591EA0129601386000004000000
B0602483210008S11658516EA0133001412000004000000
B0602523209946S11658479EA0134401423000004000000
B0602563209894S11658515EA0136201442000004000000
B0603003209899S11658569EA0138001461000004000000
B0603043209954S11658572EA0140301484000004000000
B0603083209994S11658503EA0143301516000004000000
B0603123209978S11658414EA0146101540000004000000
B0603163209919S11658375EA0147901558000004000000
B0603203209867S11658403EA0148201560000004000000
B0603243209865S11658464EA0149001570000004000000
B0603283209917S11658483EA0150401589000004000000
B0603323209964S11658418EA0152801616000004000000
B0603363209947S11658326EA0155001629000004000000
B0603403209881S11658284EA0155501632000004000000
B0603443209834S11658325EA0156301643000004000000
B0603483209865S11658369EA0157801662000004000000
B0603523209929S11658357EA0158601666000004000000
B0603563209999S11658317EA0158501665000004000000
B0604003210075S11658277EA0157501652000004000000
B0604043210144S11658269EA0157901660000004000000
B0604083210185S11658314EA0158401663000004000000
B0604123210186S11658386EA0157601655000004000000
B0604163210160S11658456EA0157401652000004000000
B0604203210121S11658518EA0157101649000004000000
B0604243210076S11658574EA0156501641000004000000
B0604283210019S11658622EA0155601632000004000000
B0604323209956S11658663EA0155401636000004000000
B0604363209898S11658702EA0155101630000004000000
B0604403209839S11658741EA0154301627000004000000
B0604443209781S11658778EA0154001622000004000000
B0604483209721S11658815EA0153001613000004000000
B0604523209656S11658850EA0151901595000004000000
B0604563209578S11658855EA0150501583000004000000
B0605003209505S11658821EA0150101581000004000000
B0605043209452S11658760EA0150001580000004000000
B0605083209416S11658684EA0149901580000004000000
B0605123209392S11658603EA0149801578000004000000
B0605163209371S11658525EA0149601575000004000000
B0605203209344S11658446EA0149101569000004000000
B0605243209310S11658365EA0148901569000004000000
B0605283209274S11658286EA0148901566000004000000
B0605323209228S11658209EA0148401561000004000000
B0605363209169S11658140EA0148001556000004000000
B0605403209101S11658084EA0147801556000004000000
B0605443209032S11658036EA0147901556000004000000
B0605483208961S11657989EA0147401552000004000000
B0605523208883S11657949EA0146101539000004000000
B0605563208805S11657907EA0145501535000004000000
B0606003208729S11657863EA0145301535000004000000
B0606043208655S11657824EA0145101531000004000000
B0606083208580S11657790EA0144501526000004000000
B0606123208504S11657763EA0144501530000004000000
B0606163208430S11657742EA0144601524000004000000
B0606203208353S11657731EA0143601514000004000000
B0606243208277S11657727EA0143301514000004000000
B0606283208201S11657736EA0143201509000004000000
B0606323208136S11657781EA0142401503000004000000
B0606363208097S11657854EA0142101501000004000000
B0606403208078S11657932EA0141501492000004000000
B0606443208067S11658014EA0140701486000004000000
B0606483208058S11658096EA0140401482000004000000
B0606523208051S11658178EA0140001475000004000000
B0606563208043S11658260EA0139101471000004000000
B0607003208035S11658339EA0139301472000004000000
B0607043208025S11658416EA0139001469000004000000
B0607083208017S11658490EA0138901466000004000000
B0607123208012S11658563EA0138501461000004000000
B0607163208008S11658637EA0138101457000004000000
B0607203208006S11658711EA0137601453000004000000
B0607243208002S11658786EA0137101450000004000000
B0607283207999S11658862EA0136501444000004000000
B0607323207993S11658940EA0135701437000004000000
B0607363207983S11659018EA0135401433000004000000
B0607403207966S11659093EA0134901427000004000000
B0607443207949S11659172EA0133701413000004000000
B0607483207936S11659256EA0132701404000004000000
B0607523207928S11659340EA0132301405000004000000
B0607563207931S11659414EA0133001412000004000000
B0608003207944S11659478EA0133101415000004000000
B0608043207967S11659530EA0133301417000004000000
B0608083207987S11659584EA0133001410000004000000
B0608123207992S11659647EA0132801409000004000000
B0608163207976S11659709EA0133001412000004000000
B0608203207949S11659766EA0133101411000004000000
B0608243207918S11659825EA0132801410000004000000
B0608283207889S11659887EA0133201415000004000000
B0608323207856S11659950EA0133801420000004000000
B0608363207824S11700013EA0134701429000004000000
B0608403207824S11700080EA0136101445000004000000
B0608443207861S11700121EA0137001449000004000000
B0608483207919S11700114EA0136801448000004000000
B0608523207958S11700052EA0136801449000004000000
B0608563207950S11659969EA0136401445000004000000
B0609003207904S11659900EA0136201444000004000000
B0609043207836S11659864EA0136401447000004000000
B0609083207765S11659859EA0137101456000004000000
B0609123207698S11659880EA0137501456000004000000
B0609163207650S11659929EA0138001466000004000000
B0609203207628S11659987EA0138901475000004000000
B0609243207632S11700047EA0139301475000004000000
B0609283207655S11700102EA0139201475000004000000
B0609323207701S11700129EA0139801481000004000000
B0609363207757S11700115EA0139701479000004000000
B0609403207796S11700060EA0139301475000004000000
B0609443207806S11659987EA0139201474000004000000
B0609483207778S11659917EA0139101473000004000000
B0609523207722S11659873EA0139401478000004000000
B0609563207658S11659847EA0140101486000004000000
B0610003207602S11659867EA0140901494000004000000
B0610043207580S11659921EA0141501498000004000000
B0610083207586S11659981EA0141201496000004000000
B0610123207601S11700043EA0141201496000004000000
B0610163207625S11700099EA0141901500000004000000
B0610203207676S11700116EA0141001485000004000000
B0610243207742S11700085EA0138801466000004000000
B0610283207813S11700038EA0137801453000004000000
B0610323207885S11659994EA0137001450000004000000
B0610363207956S11659954EA0136801448000004000000
B0610403208026S11659913EA0136701446000004000000
B0610443208095S11659873EA0136101439000004000000
B0610483208166S11659837EA0135101425000004000000
B0610523208244S11659804EA0133801414000004000000
B0610563208324S11659777EA0132901407000004000000
B0611003208402S11659753EA0132401400000004000000
B0611043208480S11659727EA0131601394000004000000
B0611083208556S11659704EA0131201388000004000000
B0611123208633S11659683EA0130401379000004000000
B0611163208716S11659664EA0129101365000004000000
B0611203208803S11659647EA0127401348000004000000
B0611243208894S11659630EA0125801333000004000000
B0611283208989S11659618EA0124501320000004000000
B0611323209085S11659610EA0123301309000004000000
B0611363209180S11659610EA0122501299000004000000
B0611403209278S11659617EA0121101285000004000000
B0611443209374S11659627EA0119901276000004000000
B0611483209469S11659638EA0119401273000004000000
B0611523209559S11659649EA0119701279000004000000
B0611563209640S11659668EA0120201288000004000000
B0612003209712S11659691EA0121101298000004000000
B0612043209777S11659720EA0121301299000004000000
B0612083209835S11659756EA0120901294000004000000
B0612123209891S11659799EA0120401287000004000000
B0612163209943S11659847EA0119701280000004000000
B0612203209989S11659899EA0119401280000004000000
B0612243210033S11659950EA0119001275000004000000
B0612283210076S11700000EA0118301268000004000000
B0612323210116S11700050EA0117801263000004000000
B0612363210154S11700098EA0117401259000004000000
B0612403210189S11700145EA0116501248000004000000
B0612443210222S11700194EA0115501239000004000000
B0612483210254S11700240EA0115401241000004000000
B0612523210289S11700280EA0115001233000004000000
B0612563210327S11700320EA0114601230000004000000
B0613003210367S11700358EA0114301229000004000000
B0613043210406S11700400EA0114201227000004000000
B0613083210441S11700441EA0114601236000004000000
B0613123210470S11700487EA0114801234000004000000
B0613163210491S11700539EA0114201227000004000000
B0613203210513S11700591EA0114601236000004000000
B0613243210539S11700635EA0115601245000004000000
