ACAM4N6
HFDTE240115
HFFXA050
HFPLTPILOT:JOHN WELSH              
HFGTYGLIDERTYPE:HORNET      
HFGIDGLIDERID:VH-GMY      
HFDTM100GPSDATUM:
HFRFWFIRMWAREVERSION:F2.6
HFRHWHARDWAREVERSION:300 Series Version 2
HFFTYFRTYPE:CAMBRIDGE AERO INSTRUMENTS, 302+
HFGPS:GARMIN,LVS-25,12,18000
HFPRSPRESSALTSENSOR:INTERSEMA, MS5534-AP, 20000
I033638FXA3941ENL4247REX
LCAMSBVER:5FWVER:F26300
C240115044325240115000102
C0000000N00000000WTAKEOFF     
C3207547S11656819EBeverley AF 
C3110883S11723215EWYLKTCHM    
C3152967S11809479EBruce Rock  
C3207547S11656879EBeverley Air
C0000000N00000000WLANDING     
B0444493207342S11656857EA0019700210000000000000
B0444513207342S11656857EA0019800210000000000000
B0444533207342S11656857EA0019800210000000000000
B0444553207342S11656857EA0019700210000000000000
B0444573207342S11656857EA0019600210000000000000
B0444593207342S11656857EA0019600210000000000000
B0445013207342S11656857EA0019700210000000000000
B0445033207342S11656857EA0019700210000000000000
B0445053207342S11656857EA0019600210000000000000
B0445073207342S11656857EA0019700210000000000000
B0445093207342S11656857EA0019700210000000000000
B0445113207342S11656857EA0019800210000000000000
B0445133207342S11656857EA0019700210000000000000
B0445153207342S11656857EA0019700210000000000000
B0445173207345S11656857EA0019800210000000000000
B0445183207346S11656858EA0019700210000000000000
B0445223207363S11656875EA0019600209000000000000
B0445263207398S11656900EA0019500208000000000000
B0445303207446S11656930EA0019600208000000000000
B0445343207503S11656964EA0019800210000000000000
B0445383207559S11657005EA0020400219000000000000
B0445423207609S11657052EA0021800236000000000000
B0445463207655S11657101EA0022700254000000000000
B0445503207700S11657153EA0024700273000000000000
B0445543207742S11657208EA0026100290000000000000
B0445583207784S11657267EA0027800304000000000000
B0446023207831S11657324EA0028800315000000000000
B0446063207882S11657377EA0030000330000000000000
B0446103207935S11657432EA0031700349000000000000
B0446143207988S11657486EA0033400363000000000000
B0446183208045S11657541EA0034700377000000000000
B0446223208103S11657597EA0036500393000000000000
B0446263208156S11657660EA0037500408000000000000
B0446303208197S11657733EA0039500426000000000000
B0446343208230S11657813EA0040900441000000000000
B0446383208252S11657894EA0042600457000000000000
B0446423208266S11657980EA0044200478000000000000
B0446463208273S11658073EA0046300492000000000000
B0446503208272S11658169EA0047100502000000000000
B0446543208252S11658262EA0048500519000000000000
B0446583208218S11658349EA0050800541000000000000
B0447023208173S11658430EA0053000561000000000000
B0447063208116S11658502EA0054500576000000000000
B0447103208045S11658564EA0055900590000000000000
B0447143207965S11658608EA0057200611000000000000
B0447183207879S11658635EA0059600641000000000000
B0447223207793S11658650EA0063100678000000000000
B0447263207737S11658691EA0066600709000000000000
B0447303207762S11658734EA0068600723000000000000
B0447343207804S11658700EA0069100724000000000000
B0447383207796S11658622EA0068900724000000000000
B0447423207737S11658586EA0070200747000000000000
B0447463207698S11658629EA0072100759000000000000
B0447503207726S11658668EA0072900770000000000000
B0447543207765S11658635EA0073700772000000000000
B0447583207752S11658563EA0073800777000000000000
B0448023207690S11658548EA0075700801000000000000
B0448063207659S11658596EA0076900807000000000000
B0448103207690S11658630EA0077200815000000000000
B0448143207723S11658587EA0078700827000000000000
B0448183207692S11658522EA0079000831000000000000
B0448223207628S11658524EA0080200848000000000000
B0448263207603S11658581EA0081300855000000000000
B0448303207633S11658630EA0082000865000000000000
B0448343207683S11658625EA0083500880000000000000
B0448383207711S11658565EA0084500888000000000000
B0448423207679S11658503EA0086100907000000000000
B0448463207620S11658505EA0087300920000000000000
B0448503207593S11658559EA0088000927000000000000
B0448543207614S11658602EA0089100939000000000000
B0448583207658S11658589EA0089900943000000000000
B0449023207668S11658521EA0091100959000000000000
B0449063207624S11658474EA0093000978000000000000
B0449103207570S11658487EA0094200986000000000000
B0449143207541S11658539EA0094900994000000000000
B0449183207555S11658593EA0095901004000000000000
B0449223207601S11658603EA0096901012000000000000
B0449263207640S11658559EA0097601020000000000000
B0449303207632S11658485EA0098401033000000000000
B0449343207579S11658447EA0099801048000000000000
B0449383207529S11658476EA0101101060000000000000
B0449423207525S11658531EA0102001067000000000000
B0449463207564S11658557EA0102601072000000000000
B0449503207609S11658524EA0103401080000000000000
B0449543207611S11658452EA0104701094000000000000
B0449583207566S11658396EA0105101095000000000000
B0450023207499S11658392EA0106001107000000000000
B0450063207454S11658437EA0106901115000000000000
B0450103207450S11658498EA0107501122000000000000
B0450143207489S11658529EA0108201128000000000000
B0450183207528S11658492EA0109001138000000000000
B0450223207519S11658420EA0109401140000000000000
B0450263207462S11658378EA0110101150000000000000
B0450303207399S11658395EA0111001156000000000000
B0450343207368S11658455EA0111401160000000000000
B0450383207389S11658512EA0112101168000000000000
B0450423207438S11658517EA0112501171000000000000
B0450463207467S11658464EA0112901178000000000000
B0450503207442S11658395EA0113901187000000000000
B0450543207382S11658366EA0114701196000000000000
B0450583207326S11658398EA0115201199000000000000
B0451023207312S11658461EA0115301200000000000000
B0451063207341S11658515EA0115501201000000000000
B0451103207391S11658529EA0115501201000000000000
B0451143207433S11658491EA0115701202000000000000
B0451183207433S11658420EA0115501203000000000000
B0451223207388S11658361EA0116001211000000000000
B0451263207321S11658347EA0116901220000000000000
B0451303207272S11658391EA0117601229000000000000
B0451343207274S11658451EA0118101231000000000000
B0451383207317S11658474EA0117901228000000000000
B0451423207363S11658443EA0118301233000000000000
B0451463207372S11658381EA0119101244000000000000
B0451503207334S11658326EA0119601246000000000000
B0451543207271S11658322EA0120001253000000000000
B0451583207222S11658369EA0120401256000000000000
B0452023207216S11658435EA0120501254000000000000
B0452063207246S11658486EA0120201250000000000000
B0452103207295S11658496EA0120001248000000000000
B0452143207338S11658461EA0119201240000000000000
B0452183207365S11658398EA0118401233000000000000
B0452223207388S11658326EA0118001229000000000000
B0452263207404S11658248EA0118001228000000000000
B0452303207408S11658165EA0117601225000000000000
B0452343207408S11658076EA0116901216000000000000
B0452383207412S11657985EA0116001209000000000000
B0452423207425S11657894EA0115301201000000000000
B0452463207447S11657807EA0114501191000000000000
B0452503207475S11657722EA0113501183000000000000
B0452543207502S11657640EA0113301181000000000000
B0452583207528S11657563EA0113201178000000000000
B0453023207554S11657490EA0113001177000000000000
B0453063207576S11657417EA0112701173000000000000
B0453103207596S11657343EA0112501170000000000000
B0453143207611S11657270EA0112101167000000000000
B0453183207624S11657195EA0111601161000000000000
B0453223207636S11657120EA0110901152000000000000
B0453263207648S11657042EA0110001146000000000000
B0453303207657S11656964EA0109701144000000000000
B0453343207664S11656884EA0109701142000000000000
B0453383207670S11656806EA0109501139000000000000
B0453423207663S11656727EA0109401141000000000000
B0453463207620S11656670EA0109901145000000000000
B0453503207553S11656656EA0109501138000000000000
B0453543207481S11656674EA0108201128000000000000
B0453583207408S11656700EA0107501120000000000000
B0454023207337S11656728EA0106701113000000000000
B0454063207264S11656757EA0106201107000000000000
B0454103207191S11656788EA0105601102000000000000
B0454143207120S11656821EA0104901095000000000000
B0454183207047S11656853EA0104401091000000000000
B0454223206974S11656884EA0104101087000000000000
B0454263206901S11656913EA0103701083000000000000
B0454303206827S11656942EA0103201076000000000000
B0454343206753S11656970EA0102701070000000000000
B0454383206679S11656999EA0102201064000000000000
B0454423206605S11657027EA0101601056000000000000
B0454463206532S11657060EA0100901051000000000000
B0454503206461S11657092EA0100501046000000000000
B0454543206393S11657127EA0100101043000000000000
B0454583206325S11657161EA0099801041000000000000
B0455023206260S11657195EA0099601038000000000000
B0455063206194S11657228EA0098801028000000000000
B0455103206129S11657264EA0097901019000000000000
B0455143206067S11657304EA0097301008000000000000
B0455183206006S11657346EA0096201000000000000000
B0455223205943S11657386EA0095600997000000000000
B0455263205882S11657426EA0095200991000000000000
B0455303205820S11657465EA0094800987000000000000
B0455343205755S11657501EA0094600985000000000000
B0455383205695S11657546EA0094600986000000000000
B0455423205648S11657603EA0094100981000000000000
B0455463205595S11657657EA0093500972000000000000
B0455503205534S11657705EA0092600960000000000000
B0455543205465S11657744EA0091700950000000000000
B0455583205393S11657779EA0090500939000000000000
B0456023205319S11657813EA0089500929000000000000
B0456063205246S11657849EA0088500919000000000000
B0456103205176S11657888EA0087700912000000000000
B0456143205107S11657926EA0086900904000000000000
B0456183205038S11657962EA0086900907000000000000
B0456223204996S11658022EA0087800925000000000000
B0456263205018S11658069EA0090400947000000000000
B0456303205061S11658049EA0091800957000000000000
B0456343205059S11657978EA0092600967000000000000
B0456383205005S11657935EA0093500975000000000000
B0456423204950S11657958EA0094300985000000000000
B0456463204950S11658008EA0095400995000000000000
B0456503204993S11658014EA0095700993000000000000
B0456543205024S11657957EA0095901000000000000000
B0456583205003S11657881EA0096901009000000000000
B0457023204942S11657848EA0097401013000000000000
B0457063204890S11657880EA0098001019000000000000
B0457103204884S11657939EA0098301023000000000000
B0457143204920S11657970EA0099001030000000000000
B0457183204964S11657939EA0099501034000000000000
B0457223204968S11657863EA0099701036000000000000
B0457263204921S11657798EA0099901039000000000000
B0457303204851S11657775EA0099801037000000000000
B0457343204793S11657807EA0099901040000000000000
B0457383204781S11657868EA0100601047000000000000
B0457423204825S11657897EA0100601045000000000000
B0457463204873S11657853EA0101001051000000000000
B0457503204868S11657777EA0102501066000000000000
B0457543204823S11657720EA0103001070000000000000
B0457583204758S11657699EA0102301064000000000000
B0458023204703S11657735EA0102101066000000000000
B0458063204678S11657793EA0103001069000000000000
B0458103204700S11657842EA0102801069000000000000
B0458143204751S11657854EA0102401065000000000000
B0458183204793S11657806EA0102401065000000000000
B0458223204790S11657727EA0102801070000000000000
B0458263204752S11657655EA0102901070000000000000
B0458303204704S11657590EA0102601067000000000000
B0458343204646S11657530EA0102201062000000000000
B0458383204574S11657515EA0102001062000000000000
B0458423204529S11657556EA0102101064000000000000
B0458463204544S11657608EA0101501055000000000000
B0458503204596S11657632EA0101101053000000000000
B0458543204654S11657645EA0101001052000000000000
B0458583204713S11657650EA0100501049000000000000
B0459023204775S11657654EA0100501050000000000000
B0459063204837S11657651EA0100701053000000000000
B0459103204898S11657644EA0100801052000000000000
B0459143204959S11657634EA0100301046000000000000
B0459183205023S11657629EA0099701038000000000000
B0459223205087S11657631EA0098901029000000000000
B0459263205153S11657636EA0098101022000000000000
B0459303205218S11657645EA0098101025000000000000
B0459343205284S11657655EA0098001026000000000000
B0459383205350S11657664EA0097501019000000000000
B0459423205417S11657679EA0096901017000000000000
B0459463205480S11657696EA0096801015000000000000
B0459503205543S11657710EA0096301008000000000000
B0459543205605S11657724EA0095700998000000000000
B0459583205669S11657738EA0094800989000000000000
B0500023205734S11657757EA0094200987000000000000
B0500063205799S11657775EA0093700983000000000000
B0500103205863S11657796EA0094300991000000000000
B0500143205911S11657759EA0096401012000000000000
B0500183205885S11657693EA0098101025000000000000
B0500223205820S11657683EA0098501027000000000000
B0500263205782S11657735EA0099701039000000000000
B0500303205798S11657783EA0100001039000000000000
B0500343205843S11657779EA0100101042000000000000
B0500383205854S11657719EA0100601048000000000000
B0500423205804S11657670EA0101201055000000000000
B0500463205746S11657694EA0101801059000000000000
B0500503205737S11657757EA0102301064000000000000
B0500543205770S11657793EA0103001073000000000000
B0500583205804S11657759EA0103701077000000000000
B0501023205772S11657698EA0104001083000000000000
B0501063205707S11657701EA0105001094000000000000
B0501103205675S11657759EA0106001102000000000000
B0501143205694S11657813EA0106701109000000000000
B0501183205740S11657803EA0107201115000000000000
B0501223205747S11657740EA0107901126000000000000
B0501263205694S11657698EA0108601133000000000000
B0501303205634S11657728EA0108901137000000000000
B0501343205622S11657792EA0110001149000000000000
B0501383205655S11657828EA0110501149000000000000
B0501423205703S11657816EA0109901143000000000000
B0501463205722S11657750EA0109601142000000000000
B0501503205678S11657694EA0110701158000000000000
B0501543205614S11657711EA0111501161000000000000
B0501583205595S11657777EA0111801164000000000000
B0502023205627S11657822EA0111901163000000000000
B0502063205679S11657816EA0111201156000000000000
B0502103205714S11657759EA0111201156000000000000
B0502143205718S11657681EA0111401163000000000000
B0502183205677S11657619EA0112601177000000000000
B0502223205614S11657631EA0113801192000000000000
B0502263205597S11657690EA0114801197000000000000
B0502303205633S11657722EA0114801198000000000000
B0502343205672S11657693EA0115501204000000000000
B0502383205672S11657632EA0116001211000000000000
B0502423205617S11657599EA0116801219000000000000
B0502463205568S11657636EA0117401223000000000000
B0502503205573S11657694EA0117301223000000000000
B0502543205618S11657703EA0117701228000000000000
B0502583205652S11657659EA0118101227000000000000
B0503023205646S11657592EA0118501239000000000000
B0503063205600S11657546EA0119601251000000000000
B0503103205538S11657556EA0120601259000000000000
B0503143205514S11657614EA0121401266000000000000
B0503183205542S11657654EA0121801268000000000000
B0503223205584S11657649EA0122201272000000000000
B0503263205614S11657606EA0122301271000000000000
B0503303205616S11657542EA0122901281000000000000
B0503343205586S11657485EA0123401284000000000000
B0503383205525S11657465EA0123801293000000000000
B0503423205471S11657507EA0124401298000000000000
B0503463205471S11657568EA0125301307000000000000
B0503503205513S11657573EA0125801309000000000000
B0503543205534S11657517EA0125801315000000000000
B0503583205503S11657458EA0127501331000000000000
B0504023205441S11657442EA0128401339000000000000
B0504063205386S11657478EA0129101345000000000000
B0504103205370S11657542EA0129301346000000000000
B0504143205400S11657584EA0129701351000000000000
B0504183205441S11657572EA0129901349000000000000
B0504223205461S11657515EA0129601348000000000000
B0504263205439S11657445EA0130101358000000000000
B0504303205376S11657429EA0131901379000000000000
B0504343205332S11657477EA0132701378000000000000
B0504383205340S11657541EA0132501377000000000000
B0504423205386S11657550EA0133001383000000000000
B0504463205412S11657499EA0133501389000000000000
B0504503205392S11657433EA0133801393000000000000
B0504543205330S11657413EA0134901405000000000000
B0504583205279S11657456EA0135401410000000000000
B0505023205280S11657520EA0135701413000000000000
B0505063205318S11657546EA0136601422000000000000
B0505103205356S11657524EA0137101424000000000000
B0505143205367S11657463EA0136701420000000000000
B0505183205332S11657402EA0136901427000000000000
B0505223205267S11657382EA0137401431000000000000
B0505263205209S11657420EA0138101438000000000000
B0505303205191S11657485EA0138501440000000000000
B0505343205222S11657529EA0138401438000000000000
B0505383205267S11657517EA0138701441000000000000
B0505423205289S11657460EA0138901443000000000000
B0505463205269S11657393EA0139001448000000000000
B0505503205209S11657356EA0139401451000000000000
B0505543205135S11657359EA0139501451000000000000
B0505583205077S11657404EA0139501450000000000000
B0506023205076S11657472EA0139201444000000000000
B0506063205120S11657498EA0138101435000000000000
B0506103205172S11657484EA0137801435000000000000
B0506143205206S11657432EA0138301439000000000000
B0506183205193S11657359EA0138401442000000000000
B0506223205152S11657293EA0139001446000000000000
B0506263205098S11657235EA0139201450000000000000
B0506303205031S11657198EA0140101462000000000000
B0506343204959S11657169EA0140901469000000000000
B0506383204885S11657168EA0141601472000000000000
B0506423204841S11657221EA0141401469000000000000
B0506463204853S11657282EA0140801459000000000000
B0506503204902S11657298EA0139301444000000000000
B0506543204936S11657252EA0138701439000000000000
B0506583204942S11657177EA0138601444000000000000
B0507023204924S11657100EA0140401462000000000000
B0507063204859S11657073EA0140901465000000000000
B0507103204799S11657120EA0139801450000000000000
B0507143204797S11657191EA0139401447000000000000
B0507183204840S11657215EA0139101444000000000000
B0507223204880S11657177EA0139501452000000000000
B0507263204873S11657101EA0140401462000000000000
B0507303204816S11657048EA0141201471000000000000
B0507343204743S11657048EA0141401469000000000000
B0507383204671S11657074EA0140201451000000000000
B0507423204591S11657108EA0137901431000000000000
B0507463204508S11657140EA0137801434000000000000
B0507503204425S11657169EA0137601430000000000000
B0507543204340S11657194EA0137001427000000000000
B0507583204256S11657217EA0136901423000000000000
B0508023204170S11657241EA0136601417000000000000
B0508063204084S11657267EA0135901411000000000000
B0508103203998S11657293EA0135501409000000000000
B0508143203915S11657319EA0135501409000000000000
B0508183203833S11657345EA0135301405000000000000
B0508223203750S11657373EA0134801400000000000000
B0508263203668S11657403EA0134501397000000000000
B0508303203589S11657434EA0134701397000000000000
B0508343203510S11657467EA0134301389000000000000
B0508383203428S11657498EA0133601385000000000000
B0508423203348S11657529EA0133101380000000000000
B0508463203267S11657560EA0132401371000000000000
B0508503203186S11657592EA0131801366000000000000
B0508543203107S11657629EA0131101357000000000000
B0508583203029S11657668EA0130201350000000000000
B0509023202951S11657707EA0129601342000000000000
B0509063202874S11657745EA0129001334000000000000
B0509103202796S11657781EA0128101326000000000000
B0509143202719S11657815EA0128001329000000000000
B0509183202646S11657846EA0128401329000000000000
B0509223202572S11657878EA0127801323000000000000
B0509263202496S11657906EA0127001314000000000000
B0509303202415S11657932EA0126501311000000000000
B0509343202337S11657966EA0126401311000000000000
B0509383202260S11658004EA0126601311000000000000
B0509423202182S11658037EA0126801318000000000000
B0509463202123S11658091EA0127601325000000000000
B0509503202102S11658158EA0128701332000000000000
B0509543202093S11658227EA0127901319000000000000
B0509583202054S11658296EA0127501318000000000000
B0510023201986S11658339EA0128401331000000000000
B0510063201912S11658348EA0129101332000000000000
B0510103201833S11658340EA0127601314000000000000
B0510143201749S11658355EA0125601299000000000000
B0510183201665S11658382EA0124501287000000000000
B0510223201579S11658413EA0123801279000000000000
B0510263201493S11658447EA0123101272000000000000
B0510303201409S11658481EA0122701270000000000000
B0510343201327S11658518EA0122301265000000000000
B0510383201245S11658556EA0121401256000000000000
B0510423201166S11658598EA0120901251000000000000
B0510463201088S11658639EA0120501248000000000000
B0510503201012S11658680EA0120201246000000000000
B0510543200938S11658719EA0119801240000000000000
B0510583200864S11658756EA0119701238000000000000
B0511023200793S11658795EA0119201231000000000000
B0511063200720S11658837EA0118501228000000000000
B0511103200646S11658876EA0118001218000000000000
B0511143200573S11658918EA0117101213000000000000
B0511183200500S11658958EA0116901209000000000000
B0511223200429S11658999EA0116601205000000000000
B0511263200358S11659036EA0115701196000000000000
B0511303200286S11659072EA0115201192000000000000
B0511343200215S11659109EA0115101192000000000000
B0511383200147S11659141EA0115301193000000000000
B0511423200079S11659174EA0115101191000000000000
B0511463200011S11659206EA0114401183000000000000
B0511503159942S11659243EA0113501173000000000000
B0511543159874S11659282EA0112101162000000000000
B0511583159801S11659319EA0111601154000000000000
B0512023159729S11659356EA0111001153000000000000
B0512063159662S11659389EA0111601160000000000000
B0512103159595S11659423EA0111101147000000000000
B0512143159526S11659464EA0110001136000000000000
B0512183159463S11659510EA0108901126000000000000
B0512223159403S11659560EA0108101120000000000000
B0512263159346S11659610EA0108401128000000000000
B0512303159291S11659657EA0109801141000000000000
B0512343159247S11659709EA0111301157000000000000
B0512383159252S11659761EA0112401163000000000000
B0512423159295S11659759EA0112301160000000000000
B0512463159321S11659695EA0111301149000000000000
B0512503159292S11659618EA0110701147000000000000
B0512543159239S11659553EA0111101153000000000000
B0512583159188S11659487EA0111601156000000000000
B0513023159195S11659412EA0112301166000000000000
B0513063159248S11659397EA0112401160000000000000
B0513103159287S11659448EA0111401158000000000000
B0513143159274S11659517EA0111901163000000000000
B0513183159221S11659558EA0112901175000000000000
B0513223159157S11659570EA0114001184000000000000
B0513263159090S11659558EA0114501186000000000000
B0513303159018S11659544EA0114301185000000000000
B0513343158951S11659555EA0115101195000000000000
B0513383158941S11659604EA0115501195000000000000
B0513423158983S11659601EA0115901203000000000000
B0513463158997S11659534EA0116201207000000000000
B0513503158960S11659470EA0117301216000000000000
B0513543158896S11659467EA0117001209000000000000
B0513583158876S11659522EA0116801211000000000000
B0514023158897S11659571EA0116701211000000000000
B0514063158940S11659581EA0117001214000000000000
B0514103158965S11659525EA0117601216000000000000
B0514143158934S11659448EA0117301218000000000000
B0514183158884S11659379EA0117401217000000000000
B0514223158827S11659319EA0116801208000000000000
B0514263158757S11659280EA0115901201000000000000
B0514303158681S11659275EA0115801203000000000000
B0514343158606S11659276EA0115701201000000000000
B0514383158531S11659293EA0115201194000000000000
B0514423158455S11659324EA0114701187000000000000
B0514463158379S11659361EA0113901178000000000000
B0514503158301S11659397EA0113101175000000000000
B0514543158224S11659434EA0113001171000000000000
B0514583158148S11659469EA0112001158000000000000
B0515023158070S11659505EA0110701148000000000000
B0515063157991S11659539EA0109801135000000000000
B0515103157912S11659577EA0109001129000000000000
B0515143157835S11659617EA0108701127000000000000
B0515183157761S11659659EA0108101120000000000000
B0515223157687S11659700EA0107301109000000000000
B0515263157613S11659740EA0106501105000000000000
B0515303157543S11659781EA0106401104000000000000
B0515343157474S11659820EA0106201101000000000000
B0515383157406S11659855EA0106001097000000000000
B0515423157339S11659890EA0105301089000000000000
B0515463157270S11659920EA0104601083000000000000
B0515503157202S11659948EA0104201081000000000000
B0515543157140S11659984EA0104401080000000000000
B0515583157081S11700023EA0103901076000000000000
B0516023157019S11700058EA0103501069000000000000
B0516063156954S11700088EA0102401056000000000000
B0516103156884S11700111EA0100901041000000000000
B0516143156807S11700130EA0099401024000000000000
B0516183156725S11700146EA0098001011000000000000
B0516223156644S11700166EA0096701001000000000000
B0516263156566S11700194EA0095900991000000000000
B0516303156495S11700236EA0095300987000000000000
B0516343156429S11700279EA0095600995000000000000
B0516383156393S11700340EA0097701020000000000000
B0516423156432S11700367EA0099601033000000000000
B0516463156469S11700318EA0099601029000000000000
B0516503156445S11700241EA0098801017000000000000
B0516543156375S11700219EA0098101016000000000000
B0516583156305S11700242EA0098301020000000000000
B0517023156262S11700297EA0099201028000000000000
B0517063156276S11700357EA0099401029000000000000
B0517103156326S11700372EA0099701034000000000000
B0517143156339S11700305EA0100401038000000000000
B0517183156280S11700266EA0101001048000000000000
B0517223156249S11700315EA0101001046000000000000
B0517263156282S11700351EA0101201052000000000000
B0517303156328S11700337EA0101901052000000000000
B0517343156349S11700276EA0101301047000000000000
B0517383156317S11700210EA0100801039000000000000
B0517423156249S11700193EA0100101038000000000000
B0517463156196S11700232EA0100901048000000000000
B0517503156206S11700289EA0101001046000000000000
B0517543156256S11700290EA0101301047000000000000
B0517583156278S11700227EA0100601037000000000000
B0518023156239S11700156EA0099301025000000000000
B0518063156163S11700140EA0099201031000000000000
B0518103156093S11700159EA0100201044000000000000
B0518143156076S11700216EA0101701056000000000000
B0518183156114S11700237EA0102001054000000000000
B0518223156139S11700181EA0101601055000000000000
B0518263156100S11700123EA0102401061000000000000
B0518303156033S11700123EA0102201058000000000000
B0518343156005S11700180EA0102901067000000000000
B0518383156039S11700216EA0103101067000000000000
B0518423156078S11700177EA0102901067000000000000
B0518463156063S11700107EA0103501074000000000000
B0518503156001S11700076EA0103801075000000000000
B0518543155940S11700107EA0103501076000000000000
B0518583155931S11700169EA0104701087000000000000
B0519023155962S11700205EA0104401079000000000000
B0519063156009S11700177EA0103601072000000000000
B0519103156011S11700106EA0103701075000000000000
B0519143155959S11700054EA0103901073000000000000
B0519183155884S11700056EA0103501072000000000000
B0519223155829S11700101EA0104201086000000000000
B0519263155837S11700155EA0105101087000000000000
B0519303155885S11700142EA0104201076000000000000
B0519343155890S11700068EA0104001079000000000000
B0519383155831S11700029EA0104701087000000000000
B0519423155772S11700060EA0105101089000000000000
B0519463155767S11700124EA0105701095000000000000
B0519503155807S11700150EA0105801094000000000000
B0519543155849S11700111EA0105001083000000000000
B0519583155841S11700034EA0104301078000000000000
B0520023155777S11659993EA0104001074000000000000
B0520063155697S11659990EA0103801078000000000000
B0520103155645S11700041EA0105101093000000000000
B0520143155671S11700080EA0105801094000000000000
B0520183155711S11700038EA0105201088000000000000
B0520223155691S11659960EA0105301095000000000000
B0520263155620S11659938EA0106301106000000000000
B0520303155568S11659985EA0106701108000000000000
B0520343155573S11700050EA0106501105000000000000
B0520383155621S11700045EA0106901109000000000000
B0520423155629S11659977EA0107501115000000000000
B0520463155572S11659928EA0108101121000000000000
B0520503155503S11659945EA0108401124000000000000
B0520543155470S11700006EA0108701128000000000000
B0520583155481S11700069EA0108901129000000000000
B0521023155525S11700090EA0108701125000000000000
B0521063155563S11700043EA0107701112000000000000
B0521103155542S11659967EA0106801109000000000000
B0521143155478S11659917EA0107101111000000000000
B0521183155404S11659880EA0107001111000000000000
B0521223155326S11659883EA0107501117000000000000
B0521263155296S11659947EA0108401124000000000000
B0521303155335S11659982EA0108701126000000000000
B0521343155376S11659943EA0108101120000000000000
B0521383155356S11659870EA0108101123000000000000
B0521423155291S11659833EA0108501127000000000000
B0521463155218S11659847EA0108601123000000000000
B0521503155178S11659909EA0108301123000000000000
B0521543155192S11659973EA0108401122000000000000
B0521583155238S11700007EA0107701116000000000000
B0522023155294S11700006EA0106901109000000000000
B0522063155311S11659946EA0107601116000000000000
B0522103155275S11659887EA0107201111000000000000
B0522143155207S11659873EA0106601106000000000000
B0522183155155S11659920EA0106901111000000000000
B0522223155160S11659976EA0107201108000000000000
B0522263155207S11659982EA0105901094000000000000
B0522303155231S11659928EA0105101088000000000000
B0522343155199S11659867EA0104701085000000000000
B0522383155130S11659831EA0103501072000000000000
B0522423155051S11659809EA0102401062000000000000
B0522463154967S11659787EA0101201046000000000000
B0522503154880S11659759EA0099501028000000000000
B0522543154794S11659722EA0098301021000000000000
B0522583154713S11659677EA0098301020000000000000
B0523023154631S11659627EA0097701010000000000000
B0523063154550S11659574EA0096801003000000000000
B0523103154472S11659513EA0096601002000000000000
B0523143154398S11659445EA0096501002000000000000
B0523183154328S11659380EA0096801006000000000000
B0523223154263S11659313EA0096901004000000000000
B0523263154200S11659246EA0097001005000000000000
B0523303154139S11659179EA0097001004000000000000
B0523343154082S11659107EA0097101003000000000000
B0523383154021S11659038EA0096300994000000000000
B0523423153953S11658975EA0095800987000000000000
B0523463153875S11658934EA0095500987000000000000
B0523503153797S11658901EA0095200982000000000000
B0523543153734S11658845EA0094700975000000000000
B0523583153693S11658768EA0093800966000000000000
B0524023153671S11658681EA0092700955000000000000
B0524063153667S11658591EA0091300941000000000000
B0524103153678S11658503EA0090200932000000000000
B0524143153696S11658418EA0089600925000000000000
B0524183153718S11658335EA0088900920000000000000
B0524223153740S11658255EA0088300914000000000000
B0524263153761S11658173EA0088200914000000000000
B0524303153788S11658097EA0088600916000000000000
B0524343153836S11658041EA0088600918000000000000
B0524383153886S11658063EA0090300941000000000000
B0524423153884S11658125EA0092100958000000000000
B0524463153830S11658160EA0092800963000000000000
B0524503153773S11658130EA0093500972000000000000
B0524543153758S11658065EA0093800971000000000000
B0524583153795S11658024EA0093600971000000000000
B0525023153840S11658040EA0094100979000000000000
B0525063153861S11658096EA0094400979000000000000
B0525103153836S11658164EA0094100976000000000000
B0525143153775S11658201EA0094100976000000000000
B0525183153704S11658188EA0094700985000000000000
B0525223153654S11658132EA0095500993000000000000
B0525263153666S11658071EA0096100997000000000000
B0525303153712S11658070EA0096401003000000000000
B0525343153730S11658126EA0097001012000000000000
B0525383153696S11658184EA0097701018000000000000
B0525423153631S11658190EA0098501028000000000000
B0525463153591S11658134EA0099601038000000000000
B0525503153600S11658075EA0100001038000000000000
B0525543153644S11658075EA0099801037000000000000
B0525583153663S11658136EA0100101042000000000000
B0526023153635S11658204EA0100701046000000000000
B0526063153566S11658227EA0101601059000000000000
B0526103153513S11658179EA0103201075000000000000
B0526143153514S11658117EA0104301087000000000000
B0526183153556S11658099EA0105201096000000000000
B0526223153592S11658135EA0105601097000000000000
B0526263153588S11658203EA0105901103000000000000
B0526303153535S11658249EA0106701112000000000000
B0526343153470S11658231EA0108101126000000000000
B0526383153441S11658166EA0109201135000000000000
B0526423153470S11658119EA0110401148000000000000
B0526463153515S11658132EA0111301156000000000000
B0526503153537S11658190EA0111701161000000000000
B0526543153510S11658252EA0112501175000000000000
B0526583153448S11658278EA0113501182000000000000
B0527023153385S11658247EA0114301189000000000000
B0527063153367S11658178EA0115101198000000000000
B0527103153398S11658135EA0116301210000000000000
B0527143153440S11658152EA0117001215000000000000
B0527183153448S11658213EA0117301223000000000000
B0527223153403S11658264EA0118401233000000000000
B0527263153336S11658256EA0119001235000000000000
B0527303153298S11658193EA0119601247000000000000
B0527343153310S11658135EA0120701256000000000000
B0527383153355S11658121EA0121101259000000000000
B0527423153394S11658157EA0120901258000000000000
B0527463153401S11658225EA0121501264000000000000
B0527503153366S11658292EA0121501258000000000000
B0527543153294S11658316EA0121201259000000000000
B0527583153227S11658282EA0121601265000000000000
B0528023153180S11658221EA0122601274000000000000
B0528063153143S11658152EA0123201281000000000000
B0528103153146S11658089EA0124401292000000000000
B0528143153185S11658079EA0125201301000000000000
B0528183153201S11658131EA0125801309000000000000
B0528223153163S11658187EA0126401319000000000000
B0528263153095S11658206EA0127101325000000000000
B0528303153034S11658171EA0127701332000000000000
B0528343153019S11658104EA0128001330000000000000
B0528383153051S11658063EA0128301336000000000000
B0528423153095S11658083EA0129201345000000000000
B0528463153114S11658143EA0129801352000000000000
B0528503153085S11658210EA0130701360000000000000
B0528543153019S11658244EA0131501365000000000000
B0528583152950S11658219EA0131501363000000000000
B0529023152908S11658151EA0131201361000000000000
B0529063152896S11658073EA0131201364000000000000
B0529103152920S11658017EA0132101376000000000000
B0529143152964S11657996EA0133001384000000000000
B0529183153011S11658010EA0133901394000000000000
B0529223153034S11658065EA0134301398000000000000
B0529263153004S11658135EA0134101397000000000000
B0529303152934S11658167EA0134801406000000000000
B0529343152865S11658140EA0135801413000000000000
B0529383152833S11658074EA0136001415000000000000
B0529423152848S11658010EA0136001416000000000000
B0529463152893S11657978EA0136101419000000000000
B0529503152942S11657995EA0137001432000000000000
B0529543152967S11658050EA0138101442000000000000
B0529583152954S11658122EA0138401442000000000000
B0530023152900S11658178EA0138901447000000000000
B0530063152830S11658200EA0138701440000000000000
B0530103152757S11658175EA0138101436000000000000
B0530143152707S11658113EA0138101436000000000000
B0530183152692S11658035EA0138201438000000000000
B0530223152714S11657969EA0138401440000000000000
B0530263152761S11657931EA0139201452000000000000
B0530303152815S11657932EA0140701470000000000000
B0530343152838S11657983EA0142801490000000000000
B0530383152809S11658041EA0143801494000000000000
B0530423152746S11658067EA0142801480000000000000
B0530463152675S11658040EA0141801469000000000000
B0530503152627S11657969EA0141301468000000000000
B0530543152608S11657885EA0142101478000000000000
B0530583152640S11657833EA0143101490000000000000
B0531023152687S11657839EA0143701492000000000000
B0531063152716S11657889EA0143701495000000000000
B0531103152700S11657959EA0144601509000000000000
B0531143152636S11657995EA0146001517000000000000
B0531183152566S11657971EA0146301520000000000000
B0531223152525S11657905EA0147101529000000000000
B0531263152531S11657835EA0147701533000000000000
B0531303152571S11657793EA0147301529000000000000
B0531343152625S11657797EA0146701521000000000000
B0531383152665S11657845EA0146401525000000000000
B0531423152682S11657913EA0147101533000000000000
B0531463152640S11657974EA0148501544000000000000
B0531503152565S11657972EA0148601540000000000000
B0531543152512S11657907EA0148401542000000000000
B0531583152516S11657832EA0149401555000000000000
B0532023152555S11657787EA0150301560000000000000
B0532063152608S11657779EA0149901556000000000000
B0532103152651S11657822EA0149501555000000000000
B0532143152656S11657894EA0149901556000000000000
B0532183152622S11657966EA0149901554000000000000
B0532223152565S11658032EA0149201540000000000000
B0532263152496S11658095EA0147501523000000000000
B0532303152422S11658157EA0145701505000000000000
B0532343152344S11658218EA0144201494000000000000
B0532383152266S11658277EA0144001494000000000000
B0532423152188S11658333EA0143301483000000000000
B0532463152110S11658388EA0141901470000000000000
B0532503152032S11658444EA0141301465000000000000
B0532543151955S11658499EA0141001460000000000000
B0532583151879S11658552EA0140601457000000000000
B0533023151803S11658606EA0140401459000000000000
B0533063151730S11658658EA0140601456000000000000
B0533103151655S11658707EA0140101453000000000000
B0533143151581S11658755EA0140401454000000000000
B0533183151509S11658801EA0140001450000000000000
B0533223151437S11658845EA0139501444000000000000
B0533263151366S11658890EA0139101441000000000000
B0533303151296S11658933EA0138801437000000000000
B0533343151226S11658976EA0138401431000000000000
B0533383151154S11659018EA0138001426000000000000
B0533423151084S11659061EA0137401421000000000000
B0533463151015S11659105EA0137401422000000000000
B0533503150948S11659149EA0137501423000000000000
B0533543150879S11659194EA0137401421000000000000
B0533583150810S11659237EA0137101418000000000000
B0534023150740S11659280EA0136801415000000000000
B0534063150671S11659323EA0136401410000000000000
B0534103150603S11659363EA0136101407000000000000
B0534143150536S11659402EA0135801403000000000000
B0534183150467S11659439EA0134901392000000000000
B0534223150395S11659477EA0133801381000000000000
B0534263150322S11659517EA0132601369000000000000
B0534303150247S11659557EA0131501358000000000000
B0534343150172S11659596EA0130801350000000000000
B0534383150096S11659635EA0130501349000000000000
B0534423150022S11659677EA0130201344000000000000
B0534463149951S11659725EA0129401333000000000000
B0534503149878S11659776EA0128601328000000000000
B0534543149804S11659829EA0127401313000000000000
B0534583149731S11659883EA0126101299000000000000
B0535023149657S11659938EA0124901289000000000000
B0535063149583S11659993EA0123901280000000000000
B0535103149509S11700047EA0123501272000000000000
B0535143149437S11700104EA0122701269000000000000
B0535183149368S11700160EA0122301266000000000000
B0535223149303S11700218EA0123001276000000000000
B0535263149267S11700286EA0124601290000000000000
B0535303149271S11700351EA0125401297000000000000
B0535343149299S11700400EA0125501299000000000000
B0535383149347S11700394EA0125601298000000000000
B0535423149360S11700327EA0125201292000000000000
B0535463149310S11700263EA0124501286000000000000
B0535503149238S11700219EA0123901281000000000000
B0535543149160S11700194EA0124201289000000000000
B0535583149089S11700214EA0125201295000000000000
B0536023149060S11700273EA0124901290000000000000
B0536063149046S11700345EA0123001266000000000000
B0536103149015S11700422EA0120901248000000000000
B0536143148968S11700497EA0119401235000000000000
B0536183148915S11700569EA0119301238000000000000
B0536223148859S11700634EA0119601240000000000000
B0536263148803S11700697EA0119501236000000000000
B0536303148744S11700765EA0119501240000000000000
B0536343148687S11700832EA0120201249000000000000
B0536383148657S11700909EA0121401261000000000000
B0536423148687S11700952EA0122401272000000000000
B0536463148721S11700908EA0123301278000000000000
B0536503148696S11700832EA0123401278000000000000
B0536543148629S11700803EA0123601281000000000000
B0536583148566S11700839EA0124501289000000000000
B0537023148554S11700907EA0124301285000000000000
B0537063148593S11700939EA0124301288000000000000
B0537103148626S11700895EA0124801294000000000000
B0537143148606S11700821EA0124801289000000000000
B0537183148543S11700778EA0124801296000000000000
B0537223148470S11700793EA0125401299000000000000
B0537263148432S11700852EA0125601300000000000000
B0537303148450S11700907EA0125101294000000000000
B0537343148495S11700899EA0124901296000000000000
B0537383148508S11700835EA0124701293000000000000
B0537423148471S11700766EA0124501293000000000000
B0537463148400S11700740EA0124801293000000000000
B0537503148328S11700764EA0124001283000000000000
B0537543148263S11700814EA0122801270000000000000
B0537583148203S11700873EA0122001259000000000000
B0538023148142S11700938EA0120701245000000000000
B0538063148077S11701001EA0119301230000000000000
B0538103148011S11701065EA0118201221000000000000
B0538143147945S11701128EA0117601215000000000000
B0538183147881S11701189EA0117201213000000000000
B0538223147816S11701246EA0116901207000000000000
B0538263147752S11701303EA0116001197000000000000
B0538303147686S11701365EA0115001182000000000000
B0538343147621S11701430EA0113601170000000000000
B0538383147555S11701497EA0112801163000000000000
B0538423147492S11701562EA0112601166000000000000
B0538463147430S11701624EA0112401159000000000000
B0538503147368S11701689EA0111701155000000000000
B0538543147305S11701753EA0111201149000000000000
B0538583147243S11701817EA0110601142000000000000
B0539023147182S11701875EA0110401141000000000000
B0539063147121S11701935EA0110101132000000000000
B0539103147059S11701999EA0109001123000000000000
B0539143146998S11702064EA0108401121000000000000
B0539183146939S11702126EA0108501119000000000000
B0539223146881S11702196EA0107901113000000000000
B0539263146822S11702269EA0107201108000000000000
B0539303146762S11702339EA0107201106000000000000
B0539343146703S11702408EA0106901104000000000000
B0539383146646S11702476EA0106501099000000000000
B0539423146588S11702539EA0106101094000000000000
B0539463146529S11702602EA0105201085000000000000
B0539503146472S11702660EA0104601077000000000000
B0539543146415S11702719EA0104101074000000000000
B0539583146357S11702776EA0103601066000000000000
B0540023146300S11702833EA0102701058000000000000
B0540063146243S11702888EA0102101052000000000000
B0540103146185S11702942EA0101901052000000000000
B0540143146127S11702993EA0101601046000000000000
B0540183146065S11703042EA0100801036000000000000
B0540223146003S11703093EA0099601021000000000000
B0540263145936S11703145EA0097500998000000000000
B0540303145869S11703200EA0095600982000000000000
B0540343145800S11703252EA0094700972000000000000
B0540383145733S11703305EA0093700966000000000000
B0540423145670S11703357EA0093500964000000000000
B0540463145607S11703409EA0093400959000000000000
B0540503145545S11703460EA0092900955000000000000
B0540543145480S11703510EA0091800942000000000000
B0540583145414S11703562EA0090800934000000000000
B0541023145346S11703614EA0090300927000000000000
B0541063145280S11703666EA0090200931000000000000
B0541103145223S11703721EA0092000951000000000000
B0541143145219S11703789EA0093500969000000000000
B0541183145262S11703780EA0094900982000000000000
B0541223145247S11703717EA0095600988000000000000
B0541263145182S11703700EA0095800993000000000000
B0541303145150S11703759EA0097601017000000000000
B0541343145181S11703787EA0099601029000000000000
B0541383145208S11703747EA0099601028000000000000
B0541423145180S11703683EA0099601030000000000000
B0541463145113S11703677EA0101001051000000000000
B0541503145078S11703729EA0103601076000000000000
B0541543145099S11703769EA0104801083000000000000
B0541583145137S11703746EA0104801084000000000000
B0542023145133S11703683EA0105201090000000000000
B0542063145080S11703642EA0106201103000000000000
B0542103145026S11703676EA0108001122000000000000
B0542143145044S11703724EA0109401135000000000000
B0542183145082S11703702EA0110001138000000000000
B0542223145074S11703638EA0110301140000000000000
B0542263145018S11703598EA0110701147000000000000
B0542303144959S11703625EA0112901175000000000000
B0542343144964S11703679EA0115301197000000000000
B0542383145005S11703681EA0116101204000000000000
B0542423145033S11703627EA0117101215000000000000
B0542463145009S11703561EA0117501220000000000000
B0542503144946S11703534EA0118101228000000000000
B0542543144887S11703569EA0119601245000000000000
B0542583144887S11703629EA0121201263000000000000
B0543023144929S11703639EA0122801279000000000000
B0543063144953S11703587EA0123901290000000000000
B0543103144922S11703523EA0125101302000000000000
B0543143144856S11703507EA0126001308000000000000
B0543183144800S11703548EA0127101320000000000000
B0543223144795S11703611EA0127901334000000000000
B0543263144834S11703626EA0129501351000000000000
B0543303144859S11703575EA0130701360000000000000
B0543343144829S11703516EA0132001374000000000000
B0543383144766S11703508EA0132901381000000000000
B0543423144723S11703556EA0133601390000000000000
B0543463144727S11703614EA0134801403000000000000
B0543503144766S11703637EA0136301417000000000000
B0543543144805S11703607EA0136701422000000000000
B0543583144810S11703542EA0137301428000000000000
B0544023144760S11703496EA0138701443000000000000
B0544063144700S11703508EA0139401450000000000000
B0544103144669S11703565EA0139701457000000000000
B0544143144695S11703612EA0141501479000000000000
B0544183144739S11703604EA0143001487000000000000
B0544223144760S11703549EA0143501493000000000000
B0544263144731S11703487EA0144001495000000000000
B0544303144669S11703470EA0143901497000000000000
B0544343144619S11703517EA0144701504000000000000
B0544383144619S11703583EA0145701518000000000000
B0544423144664S11703599EA0147001531000000000000
B0544463144692S11703544EA0147601534000000000000
B0544503144664S11703481EA0148401549000000000000
B0544543144602S11703474EA0149501552000000000000
B0544583144557S11703530EA0148901546000000000000
B0545023144567S11703598EA0149701562000000000000
B0545063144614S11703611EA0151001567000000000000
B0545103144651S11703564EA0150401558000000000000
B0545143144652S11703484EA0149901562000000000000
B0545183144625S11703409EA0150201562000000000000
B0545223144561S11703377EA0150501565000000000000
B0545263144489S11703396EA0149901553000000000000
B0545303144428S11703456EA0149701561000000000000
B0545343144392S11703527EA0152201587000000000000
B0545383144415S11703572EA0153801598000000000000
B0545423144452S11703542EA0153401594000000000000
B0545463144439S11703478EA0154201606000000000000
B0545503144376S11703458EA0155401616000000000000
B0545543144322S11703501EA0155801624000000000000
B0545583144324S11703565EA0156501624000000000000
B0546023144367S11703582EA0155901613000000000000
B0546063144398S11703533EA0154601604000000000000
B0546103144366S11703464EA0155201620000000000000
B0546143144297S11703443EA0157101639000000000000
B0546183144225S11703457EA0158101647000000000000
B0546223144158S11703492EA0157801637000000000000
B0546263144097S11703547EA0156101620000000000000
B0546303144033S11703613EA0154201597000000000000
B0546343143969S11703689EA0151901578000000000000
B0546383143906S11703770EA0150801566000000000000
B0546423143841S11703852EA0150201561000000000000
B0546463143774S11703934EA0149501553000000000000
B0546503143708S11704016EA0149001551000000000000
B0546543143643S11704097EA0148601546000000000000
B0546583143579S11704175EA0148101541000000000000
B0547023143516S11704251EA0147701536000000000000
B0547063143452S11704327EA0147301531000000000000
B0547103143387S11704402EA0146701524000000000000
B0547143143323S11704476EA0146401524000000000000
B0547183143260S11704548EA0146501523000000000000
B0547223143196S11704618EA0146201521000000000000
B0547263143135S11704687EA0146201519000000000000
B0547303143074S11704756EA0145601513000000000000
B0547343143015S11704825EA0145501513000000000000
B0547383142958S11704892EA0145501511000000000000
B0547423142902S11704961EA0144601502000000000000
B0547463142846S11705035EA0144101495000000000000
B0547503142793S11705115EA0143701495000000000000
B0547543142742S11705194EA0143601492000000000000
B0547583142690S11705272EA0143601491000000000000
B0548023142639S11705354EA0142901484000000000000
B0548063142590S11705437EA0141801472000000000000
B0548103142538S11705520EA0141601476000000000000
B0548143142485S11705600EA0141801474000000000000
B0548183142429S11705676EA0141201470000000000000
B0548223142374S11705748EA0141101467000000000000
B0548263142321S11705819EA0140701461000000000000
B0548303142265S11705888EA0139701453000000000000
B0548343142208S11705957EA0139201445000000000000
B0548383142149S11706025EA0138901445000000000000
B0548423142091S11706092EA0138901445000000000000
B0548463142031S11706164EA0138701443000000000000
B0548503141969S11706235EA0139301449000000000000
B0548543141910S11706307EA0139701455000000000000
B0548583141853S11706376EA0140201458000000000000
B0549023141796S11706442EA0139901451000000000000
B0549063141739S11706512EA0139201447000000000000
B0549103141683S11706581EA0139401452000000000000
B0549143141628S11706649EA0139001442000000000000
B0549183141568S11706720EA0136701416000000000000
B0549223141506S11706797EA0135501404000000000000
B0549263141443S11706872EA0134701401000000000000
B0549303141382S11706948EA0134101393000000000000
B0549343141321S11707020EA0133101384000000000000
B0549383141261S11707095EA0132601378000000000000
B0549423141203S11707167EA0132001371000000000000
B0549463141146S11707239EA0131501368000000000000
B0549503141091S11707310EA0131401363000000000000
B0549543141038S11707383EA0130501356000000000000
B0549583140981S11707456EA0129701347000000000000
B0550023140925S11707529EA0129201341000000000000
B0550063140868S11707604EA0128301332000000000000
B0550103140810S11707678EA0127601325000000000000
B0550143140756S11707754EA0126701314000000000000
B0550183140704S11707830EA0125501303000000000000
B0550223140652S11707904EA0124801299000000000000
B0550263140601S11707977EA0124801301000000000000
B0550303140548S11708045EA0125001301000000000000
B0550343140494S11708111EA0125101302000000000000
B0550383140440S11708176EA0124901302000000000000
B0550423140381S11708241EA0124901299000000000000
B0550463140323S11708309EA0124601297000000000000
B0550503140266S11708379EA0124301294000000000000
B0550543140208S11708450EA0123701286000000000000
B0550583140153S11708525EA0123301283000000000000
B0551023140098S11708599EA0122701278000000000000
B0551063140043S11708674EA0122401274000000000000
B0551103139987S11708746EA0122201273000000000000
B0551143139939S11708818EA0123001282000000000000
B0551183139928S11708894EA0124101294000000000000
B0551223139971S11708921EA0125501306000000000000
B0551263139999S11708870EA0126601316000000000000
B0551303139973S11708805EA0126701313000000000000
B0551343139907S11708774EA0126201312000000000000
B0551383139838S11708790EA0126701317000000000000
B0551423139807S11708843EA0127301321000000000000
B0551463139830S11708889EA0126701314000000000000
B0551503139882S11708902EA0126001311000000000000
B0551543139939S11708903EA0126301315000000000000
B0551583139991S11708881EA0126701319000000000000
B0552023140010S11708817EA0126901317000000000000
B0552063139968S11708753EA0126001305000000000000
B0552103139894S11708744EA0125301301000000000000
B0552143139829S11708782EA0124701297000000000000
B0552183139772S11708837EA0123701288000000000000
B0552223139720S11708903EA0123901290000000000000
B0552263139669S11708973EA0123701285000000000000
B0552303139620S11709047EA0122801275000000000000
B0552343139566S11709121EA0122101265000000000000
B0552383139514S11709198EA0120901254000000000000
B0552423139465S11709276EA0119701242000000000000
B0552463139418S11709355EA0118801236000000000000
B0552503139370S11709435EA0118401229000000000000
B0552543139321S11709513EA0117501221000000000000
B0552583139272S11709589EA0116801216000000000000
B0553023139226S11709665EA0116401212000000000000
B0553063139180S11709737EA0116001205000000000000
B0553103139136S11709813EA0115301198000000000000
B0553143139097S11709893EA0114701195000000000000
B0553183139063S11709974EA0114601191000000000000
B0553223139033S11710055EA0113901184000000000000
B0553263139006S11710135EA0113501183000000000000
B0553303138984S11710213EA0113701184000000000000
B0553343138964S11710291EA0113201175000000000000
B0553383138949S11710371EA0111901164000000000000
B0553423138941S11710449EA0111401160000000000000
B0553463138936S11710523EA0111301159000000000000
B0553503138931S11710597EA0111101155000000000000
B0553543138931S11710673EA0110601149000000000000
B0553583138934S11710751EA0110001144000000000000
B0554023138944S11710824EA0110401150000000000000
B0554063138972S11710881EA0111501164000000000000
B0554103139020S11710884EA0113001174000000000000
B0554143139041S11710822EA0112801172000000000000
B0554183139005S11710759EA0112801170000000000000
B0554223138940S11710748EA0112201163000000000000
B0554263138873S11710771EA0111601154000000000000
B0554303138814S11710823EA0110901155000000000000
B0554343138785S11710889EA0112201170000000000000
B0554383138823S11710910EA0113001177000000000000
B0554423138837S11710850EA0113401182000000000000
B0554463138791S11710792EA0114301194000000000000
B0554503138726S11710790EA0115501203000000000000
B0554543138685S11710839EA0116401215000000000000
B0554583138702S11710888EA0117201220000000000000
B0555023138745S11710878EA0117101218000000000000
B0555063138754S11710811EA0117701229000000000000
B0555103138708S11710758EA0118901243000000000000
B0555143138646S11710763EA0119501243000000000000
B0555183138620S11710819EA0119801252000000000000
B0555223138651S11710848EA0120901256000000000000
B0555263138689S11710814EA0120201250000000000000
B0555303138686S11710737EA0120601264000000000000
B0555343138638S11710679EA0122301280000000000000
B0555383138570S11710667EA0122801282000000000000
B0555423138526S11710715EA0123201290000000000000
B0555463138539S11710763EA0124501300000000000000
B0555503138582S11710751EA0125301310000000000000
B0555543138585S11710684EA0126601325000000000000
B0555583138530S11710637EA0127401330000000000000
B0556023138465S11710654EA0128001337000000000000
B0556063138443S11710710EA0129401350000000000000
B0556103138476S11710738EA0130201360000000000000
B0556143138512S11710701EA0130801371000000000000
B0556183138500S11710629EA0132201387000000000000
B0556223138450S11710577EA0133301393000000000000
B0556263138382S11710567EA0133601396000000000000
B0556303138339S11710612EA0134501406000000000000
B0556343138356S11710659EA0135201412000000000000
B0556383138401S11710645EA0135901420000000000000
B0556423138413S11710572EA0136501428000000000000
B0556463138373S11710503EA0137201432000000000000
B0556503138303S11710480EA0137401435000000000000
B0556543138251S11710517EA0138401449000000000000
B0556583138248S11710573EA0139401457000000000000
B0557023138286S11710598EA0140101469000000000000
B0557063138323S11710560EA0141401480000000000000
B0557103138321S11710488EA0142101486000000000000
B0557143138273S11710430EA0142401489000000000000
B0557183138206S11710426EA0142701493000000000000
B0557223138164S11710469EA0143601501000000000000
B0557263138162S11710525EA0144101505000000000000
B0557303138199S11710555EA0144401511000000000000
B0557343138243S11710523EA0144901516000000000000
B0557383138248S11710446EA0145001517000000000000
B0557423138206S11710373EA0145101516000000000000
B0557463138138S11710346EA0145201520000000000000
B0557503138076S11710372EA0145901525000000000000
B0557543138052S11710429EA0146501531000000000000
B0557583138067S11710482EA0146601531000000000000
B0558023138114S11710490EA0147301540000000000000
B0558063138149S11710445EA0148001548000000000000
B0558103138145S11710371EA0148201545000000000000
B0558143138104S11710307EA0147701541000000000000
B0558183138039S11710280EA0147301539000000000000
B0558223137974S11710303EA0147101537000000000000
B0558263137936S11710359EA0147401544000000000000
B0558303137935S11710419EA0148101546000000000000
B0558343137970S11710456EA0148001547000000000000
B0558383138015S11710436EA0149201560000000000000
B0558423138028S11710369EA0149201558000000000000
B0558463137993S11710299EA0148701554000000000000
B0558503137927S11710276EA0148801558000000000000
B0558543137874S11710308EA0149501563000000000000
B0558583137840S11710361EA0149501560000000000000
B0559023137813S11710425EA0148901555000000000000
B0559063137787S11710491EA0148801555000000000000
B0559103137759S11710563EA0148801555000000000000
B0559143137732S11710637EA0149401563000000000000
B0559183137702S11710714EA0149901567000000000000
B0559223137673S11710792EA0150501573000000000000
B0559263137646S11710870EA0150901577000000000000
B0559303137616S11710948EA0151701583000000000000
B0559343137588S11711028EA0152101585000000000000
B0559383137562S11711110EA0151701577000000000000
B0559423137538S11711196EA0151001571000000000000
B0559463137515S11711286EA0149901560000000000000
B0559503137490S11711377EA0149001551000000000000
B0559543137467S11711469EA0148201544000000000000
B0559583137442S11711561EA0147701538000000000000
B0600023137420S11711654EA0147201539000000000000
B0600063137398S11711742EA0147901548000000000000
B0600103137378S11711828EA0148401547000000000000
B0600143137360S11711915EA0147801538000000000000
B0600183137342S11712002EA0146901530000000000000
B0600223137324S11712088EA0146201522000000000000
B0600263137307S11712172EA0145501516000000000000
B0600303137289S11712256EA0144801509000000000000
B0600343137272S11712339EA0144201502000000000000
B0600383137255S11712423EA0143801498000000000000
B0600423137239S11712505EA0143701495000000000000
B0600463137222S11712590EA0143201489000000000000
B0600503137204S11712673EA0142501483000000000000
B0600543137185S11712757EA0142101479000000000000
B0600583137163S11712839EA0141601472000000000000
B0601023137138S11712920EA0140701461000000000000
B0601063137121S11712999EA0140701463000000000000
B0601103137109S11713076EA0140401459000000000000
B0601143137087S11713153EA0139701447000000000000
B0601183137039S11713224EA0138701443000000000000
B0601223136968S11713277EA0139001449000000000000
B0601263136890S11713312EA0140001459000000000000
B0601303136812S11713337EA0140601459000000000000
B0601343136734S11713361EA0140101450000000000000
B0601383136654S11713388EA0139301445000000000000
B0601423136579S11713423EA0139101440000000000000
B0601463136514S11713470EA0138501435000000000000
B0601503136455S11713526EA0137801421000000000000
B0601543136383S11713561EA0136901417000000000000
B0601583136306S11713545EA0137101420000000000000
B0602023136237S11713494EA0137501426000000000000
B0602063136162S11713466EA0138401440000000000000
B0602103136099S11713502EA0139801449000000000000
B0602143136086S11713574EA0139801447000000000000
B0602183136126S11713608EA0139801452000000000000
B0602223136162S11713571EA0141201472000000000000
B0602263136154S11713506EA0142501481000000000000
B0602303136099S11713454EA0142301479000000000000
B0602343136024S11713445EA0142101478000000000000
B0602383135960S11713491EA0142001473000000000000
B0602423135929S11713569EA0141301465000000000000
B0602463135938S11713644EA0141101466000000000000
B0602503135980S11713693EA0141101466000000000000
B0602543136032S11713725EA0140601458000000000000
B0602583136089S11713747EA0139501448000000000000
B0603023136151S11713758EA0138201435000000000000
B0603063136215S11713760EA0137301429000000000000
B0603103136277S11713761EA0136701419000000000000
B0603143136342S11713748EA0136301421000000000000
B0603183136401S11713719EA0136801423000000000000
B0603223136458S11713688EA0136501419000000000000
B0603263136514S11713650EA0136501419000000000000
B0603303136570S11713614EA0136401417000000000000
B0603343136627S11713575EA0136701424000000000000
B0603383136679S11713533EA0137801435000000000000
B0603423136727S11713488EA0138601442000000000000
B0603463136769S11713444EA0139501453000000000000
B0603503136809S11713400EA0140001452000000000000
B0603543136848S11713355EA0139601449000000000000
B0603583136888S11713310EA0139301446000000000000
B0604023136929S11713266EA0139201442000000000000
B0604063136969S11713218EA0138101429000000000000
B0604103137014S11713168EA0137501426000000000000
B0604143137059S11713108EA0137601430000000000000
B0604183137098S11713045EA0138901444000000000000
B0604223137135S11712984EA0140401458000000000000
B0604263137137S11712908EA0141301470000000000000
B0604303137079S11712870EA0142501482000000000000
B0604343137023S11712906EA0143501487000000000000
B0604383137014S11712969EA0143601490000000000000
B0604423137055S11712997EA0144401504000000000000
B0604463137092S11712959EA0145401511000000000000
B0604503137087S11712887EA0146101519000000000000
B0604543137038S11712839EA0146801526000000000000
B0604583136973S11712842EA0147101527000000000000
B0605023136926S11712886EA0147001523000000000000
B0605063136921S11712947EA0146901526000000000000
B0605103136953S11712986EA0147701540000000000000
B0605143136997S11712982EA0148901551000000000000
B0605183137031S11712938EA0149801560000000000000
B0605223137026S11712869EA0149901560000000000000
B0605263136974S11712820EA0149801558000000000000
B0605303136904S11712821EA0149801559000000000000
B0605343136853S11712867EA0149901560000000000000
B0605383136847S11712928EA0150401565000000000000
B0605423136875S11712973EA0151001572000000000000
B0605463136922S11712980EA0152101584000000000000
B0605503136960S11712938EA0152901593000000000000
B0605543136964S11712870EA0153701603000000000000
B0605583136927S11712808EA0153701599000000000000
B0606023136862S11712785EA0153301595000000000000
B0606063136802S11712816EA0153001593000000000000
B0606103136784S11712877EA0153201601000000000000
B0606143136804S11712925EA0154301608000000000000
B0606183136847S11712935EA0154801614000000000000
B0606223136886S11712896EA0155101615000000000000
B0606263136886S11712826EA0155401621000000000000
B0606303136844S11712766EA0155601619000000000000
B0606343136782S11712742EA0155201613000000000000
B0606383136717S11712759EA0154501608000000000000
B0606423136669S11712809EA0154401607000000000000
B0606463136657S11712874EA0154401609000000000000
B0606503136678S11712925EA0155001617000000000000
B0606543136717S11712959EA0155501619000000000000
B0606583136765S11712986EA0155201614000000000000
B0607023136819S11713011EA0155201617000000000000
B0607063136878S11713034EA0155001609000000000000
B0607103136940S11713059EA0154201598000000000000
B0607143137007S11713085EA0152601584000000000000
B0607183137074S11713112EA0151501576000000000000
B0607223137142S11713142EA0150601563000000000000
B0607263137212S11713175EA0149401554000000000000
B0607303137285S11713205EA0148801547000000000000
B0607343137356S11713236EA0147901538000000000000
B0607383137429S11713264EA0147301535000000000000
B0607423137501S11713293EA0147201534000000000000
B0607463137571S11713320EA0146701529000000000000
B0607503137640S11713346EA0146301524000000000000
B0607543137707S11713371EA0146101521000000000000
B0607583137774S11713396EA0145601516000000000000
B0608023137841S11713419EA0145101509000000000000
B0608063137907S11713445EA0144501504000000000000
B0608103137972S11713472EA0144101500000000000000
B0608143138037S11713497EA0143601496000000000000
B0608183138102S11713524EA0143201492000000000000
B0608223138167S11713552EA0142801487000000000000
B0608263138234S11713580EA0142201482000000000000
B0608303138297S11713610EA0142001480000000000000
B0608343138361S11713640EA0141401472000000000000
B0608383138425S11713670EA0140701462000000000000
B0608423138490S11713701EA0139801456000000000000
B0608463138552S11713732EA0139401453000000000000
B0608503138615S11713762EA0139201450000000000000
B0608543138677S11713791EA0138601441000000000000
B0608583138742S11713818EA0137001425000000000000
B0609023138808S11713847EA0135801410000000000000
B0609063138877S11713874EA0134301398000000000000
B0609103138945S11713903EA0133701391000000000000
B0609143139011S11713934EA0133201389000000000000
B0609183139075S11713965EA0133601394000000000000
B0609223139136S11713996EA0133401389000000000000
B0609263139198S11714025EA0133101387000000000000
B0609303139262S11714056EA0132301376000000000000
B0609343139328S11714085EA0131101363000000000000
B0609383139395S11714109EA0129801353000000000000
B0609423139462S11714124EA0129301343000000000000
B0609463139531S11714112EA0128701333000000000000
B0609503139599S11714082EA0127401319000000000000
B0609543139665S11714047EA0126301316000000000000
B0609583139730S11714013EA0126101314000000000000
B0610023139791S11713975EA0126201312000000000000
B0610063139851S11713936EA0125601304000000000000
B0610103139911S11713897EA0124301288000000000000
B0610143139978S11713877EA0123501280000000000000
B0610183140046S11713882EA0122601273000000000000
B0610223140112S11713900EA0122001263000000000000
B0610263140177S11713923EA0121401255000000000000
B0610303140241S11713951EA0120601248000000000000
B0610343140302S11713978EA0119901239000000000000
B0610383140364S11714004EA0118701227000000000000
B0610423140424S11714038EA0117601216000000000000
B0610463140481S11714077EA0117101211000000000000
B0610503140536S11714116EA0116001199000000000000
B0610543140592S11714157EA0114801187000000000000
B0610583140645S11714203EA0113601175000000000000
B0611023140700S11714252EA0112801163000000000000
B0611063140751S11714303EA0111801153000000000000
B0611103140806S11714346EA0110701142000000000000
B0611143140868S11714342EA0110901148000000000000
B0611183140910S11714297EA0111101144000000000000
B0611223140940S11714232EA0109901131000000000000
B0611263140962S11714155EA0108301116000000000000
B0611303140985S11714072EA0106901106000000000000
B0611343141012S11713991EA0106501103000000000000
B0611383141060S11713933EA0106801112000000000000
B0611423141116S11713891EA0108001120000000000000
B0611463141172S11713853EA0108501125000000000000
B0611503141229S11713816EA0108901128000000000000
B0611543141278S11713765EA0110001144000000000000
B0611583141264S11713692EA0113001178000000000000
B0612023141202S11713674EA0115001190000000000000
B0612063141159S11713718EA0115401192000000000000
B0612103141176S11713769EA0115401191000000000000
B0612143141222S11713777EA0115501198000000000000
B0612183141263S11713739EA0117301218000000000000
B0612223141267S11713671EA0118801230000000000000
B0612263141225S11713611EA0119001231000000000000
B0612303141154S11713608EA0119001230000000000000
B0612343141109S11713663EA0119001232000000000000
B0612383141115S11713728EA0119401236000000000000
B0612423141155S11713760EA0120301249000000000000
B0612463141194S11713726EA0121901267000000000000
B0612503141185S11713657EA0122901278000000000000
B0612543141122S11713627EA0123701284000000000000
B0612583141065S11713667EA0124601294000000000000
B0613023141060S11713732EA0125701307000000000000
B0613063141095S11713771EA0126301313000000000000
B0613103141143S11713751EA0127001327000000000000
B0613143141152S11713684EA0128701344000000000000
B0613183141105S11713628EA0129301341000000000000
B0613223141031S11713632EA0129101346000000000000
B0613263140987S11713687EA0130701363000000000000
B0613303140986S11713749EA0131701368000000000000
B0613343141025S11713783EA0131901371000000000000
B0613383141072S11713757EA0132201376000000000000
B0613423141087S11713691EA0133101387000000000000
B0613463141050S11713627EA0134001397000000000000
B0613503140978S11713613EA0134101395000000000000
B0613543140923S11713663EA0134701405000000000000
B0613583140918S11713734EA0135401407000000000000
B0614023140959S11713780EA0135401407000000000000
B0614063141017S11713765EA0134901404000000000000
B0614103141042S11713691EA0135801419000000000000
B0614143141007S11713618EA0138101440000000000000
B0614183140935S11713591EA0139001447000000000000
B0614223140871S11713624EA0139801456000000000000
B0614263140858S11713689EA0141001466000000000000
B0614303140897S11713728EA0141101464000000000000
B0614343140951S11713710EA0141101466000000000000
B0614383140960S11713637EA0141501476000000000000
B0614423140904S11713588EA0142601484000000000000
B0614463140831S11713597EA0143201494000000000000
B0614503140799S11713656EA0144701510000000000000
B0614543140823S11713701EA0145501512000000000000
B0614583140877S11713689EA0145101509000000000000
B0615023140891S11713618EA0145301516000000000000
B0615063140836S11713567EA0146201518000000000000
B0615103140758S11713578EA0145501513000000000000
B0615143140699S11713626EA0146701528000000000000
B0615183140706S11713684EA0147801536000000000000
B0615223140758S11713693EA0147401533000000000000
B0615263140819S11713671EA0146301523000000000000
B0615303140884S11713641EA0146001529000000000000
B0615343140947S11713609EA0146401525000000000000
B0615383141012S11713575EA0145601512000000000000
B0615423141079S11713541EA0144701507000000000000
B0615463141146S11713509EA0144401503000000000000
B0615503141211S11713472EA0143901497000000000000
B0615543141274S11713435EA0143701491000000000000
B0615583141338S11713393EA0142701481000000000000
B0616023141402S11713351EA0142101473000000000000
B0616063141468S11713311EA0141401468000000000000
B0616103141541S11713285EA0140401452000000000000
B0616143141616S11713263EA0138901437000000000000
B0616183141696S11713266EA0137201422000000000000
B0616223141768S11713299EA0137701434000000000000
B0616263141836S11713341EA0139301449000000000000
B0616303141905S11713358EA0141201475000000000000
B0616343141952S11713327EA0144801513000000000000
B0616383141931S11713263EA0146401524000000000000
B0616423141867S11713266EA0146301525000000000000
B0616463141837S11713329EA0148001544000000000000
B0616503141861S11713375EA0150001561000000000000
B0616543141901S11713359EA0151201570000000000000
B0616583141905S11713296EA0151901580000000000000
B0617023141856S11713249EA0152801590000000000000
B0617063141793S11713266EA0154101602000000000000
B0617103141767S11713327EA0154801608000000000000
B0617143141797S11713374EA0155501619000000000000
B0617183141844S11713361EA0157001630000000000000
B0617223141844S11713299EA0158101640000000000000
B0617263141788S11713271EA0158801650000000000000
B0617303141737S11713310EA0159801659000000000000
B0617343141737S11713374EA0160501666000000000000
B0617383141780S11713398EA0161501677000000000000
B0617423141818S11713366EA0162401684000000000000
B0617463141806S11713302EA0162701691000000000000
B0617503141749S11713281EA0164001706000000000000
B0617543141710S11713329EA0165601720000000000000
B0617583141727S11713385EA0166401734000000000000
B0618023141772S11713380EA0167201745000000000000
B0618063141783S11713323EA0167701751000000000000
B0618103141736S11713290EA0168101754000000000000
B0618143141683S11713320EA0168601761000000000000
B0618183141672S11713385EA0169401765000000000000
B0618223141710S11713427EA0170101771000000000000
B0618263141752S11713398EA0170301771000000000000
B0618303141740S11713333EA0170201772000000000000
B0618343141685S11713303EA0170801779000000000000
B0618383141632S11713338EA0171401785000000000000
B0618423141619S11713410EA0171601784000000000000
B0618463141654S11713465EA0172101789000000000000
B0618503141703S11713474EA0172201784000000000000
B0618543141745S11713437EA0170801771000000000000
B0618583141752S11713374EA0170201765000000000000
B0619023141710S11713324EA0170101764000000000000
B0619063141644S11713327EA0170201767000000000000
B0619103141589S11713370EA0170301765000000000000
B0619143141575S11713442EA0170401768000000000000
B0619183141599S11713505EA0170501763000000000000
B0619223141651S11713536EA0167701732000000000000
B0619263141719S11713544EA0164901706000000000000
B0619303141792S11713549EA0162501682000000000000
B0619343141867S11713554EA0161701676000000000000
B0619383141944S11713562EA0160701666000000000000
B0619423142023S11713571EA0159401648000000000000
B0619463142103S11713576EA0158901654000000000000
B0619503142178S11713579EA0159501653000000000000
B0619543142253S11713579EA0158601640000000000000
B0619583142331S11713576EA0157701633000000000000
B0620023142407S11713574EA0157001626000000000000
B0620063142481S11713571EA0157001629000000000000
B0620103142554S11713569EA0156801620000000000000
B0620143142628S11713567EA0155701608000000000000
B0620183142704S11713578EA0154401597000000000000
B0620223142777S11713609EA0154001595000000000000
B0620263142849S11713641EA0154401603000000000000
B0620303142920S11713662EA0155601610000000000000
B0620343142989S11713678EA0155901612000000000000
B0620383143057S11713688EA0155901610000000000000
B0620423143126S11713699EA0155201601000000000000
B0620463143196S11713713EA0153701585000000000000
B0620503143270S11713719EA0152901577000000000000
B0620543143345S11713734EA0151801563000000000000
B0620583143419S11713756EA0151301564000000000000
B0621023143491S11713778EA0151201561000000000000
B0621063143561S11713805EA0150301548000000000000
B0621103143631S11713843EA0148701534000000000000
B0621143143703S11713883EA0147701525000000000000
B0621183143776S11713916EA0147201523000000000000
B0621223143850S11713946EA0147001517000000000000
B0621263143923S11713975EA0146401512000000000000
B0621303143995S11714005EA0146401512000000000000
B0621343144064S11714035EA0146501515000000000000
B0621383144128S11714065EA0146801516000000000000
B0621423144190S11714095EA0146501510000000000000
B0621463144254S11714130EA0145601500000000000000
B0621503144316S11714174EA0144501491000000000000
B0621543144375S11714224EA0143701479000000000000
B0621583144432S11714278EA0142501471000000000000
B0622023144484S11714337EA0141801460000000000000
B0622063144528S11714408EA0140301444000000000000
B0622103144573S11714481EA0139301437000000000000
B0622143144615S11714553EA0139401439000000000000
B0622183144662S11714622EA0138701430000000000000
B0622223144712S11714684EA0138701429000000000000
B0622263144771S11714728EA0137801421000000000000
B0622303144834S11714770EA0137401421000000000000
B0622343144894S11714810EA0137201414000000000000
B0622383144953S11714853EA0136301405000000000000
B0622423145013S11714892EA0135401397000000000000
B0622463145074S11714928EA0135401389000000000000
B0622503145133S11714966EA0135101392000000000000
B0622543145185S11715005EA0134801386000000000000
B0622583145239S11715047EA0133601375000000000000
B0623023145297S11715092EA0133001368000000000000
B0623063145355S11715138EA0132101357000000000000
B0623103145416S11715184EA0130901345000000000000
B0623143145476S11715230EA0130001340000000000000
B0623183145535S11715274EA0129901340000000000000
B0623223145590S11715317EA0129901338000000000000
B0623263145646S11715359EA0129501335000000000000
B0623303145705S11715394EA0129301331000000000000
B0623343145766S11715422EA0128501321000000000000
B0623383145830S11715450EA0127601313000000000000
B0623423145893S11715476EA0126801303000000000000
B0623463145957S11715499EA0126401302000000000000
B0623503146019S11715520EA0126901313000000000000
B0623543146079S11715529EA0127901322000000000000
B0623583146136S11715534EA0128301323000000000000
B0624023146196S11715535EA0127501310000000000000
B0624063146260S11715539EA0126301299000000000000
B0624103146325S11715543EA0125401290000000000000
B0624143146393S11715539EA0124401282000000000000
B0624183146461S11715535EA0123801275000000000000
B0624223146530S11715545EA0122601265000000000000
B0624263146597S11715559EA0122101257000000000000
B0624303146662S11715578EA0121401251000000000000
B0624343146723S11715603EA0121101247000000000000
B0624383146777S11715645EA0120401235000000000000
B0624423146816S11715712EA0119301229000000000000
B0624463146849S11715786EA0118901223000000000000
B0624503146889S11715850EA0118701220000000000000
B0624543146944S11715886EA0118601224000000000000
B0624583147002S11715899EA0118801220000000000000
B0625023147065S11715910EA0118301218000000000000
B0625063147124S11715914EA0119201229000000000000
B0625103147180S11715911EA0120001236000000000000
B0625143147226S11715875EA0120901245000000000000
B0625183147208S11715807EA0121401250000000000000
B0625223147137S11715806EA0121401253000000000000
B0625263147104S11715868EA0122301263000000000000
B0625303147123S11715919EA0122701268000000000000
B0625343147166S11715898EA0122601275000000000000
B0625383147166S11715829EA0122801275000000000000
B0625423147118S11715773EA0123101278000000000000
B0625463147057S11715730EA0123401282000000000000
B0625503146989S11715708EA0123901285000000000000
B0625543146944S11715753EA0124301286000000000000
B0625583146958S11715808EA0124501288000000000000
B0626023147004S11715820EA0124601289000000000000
B0626063147046S11715786EA0124301290000000000000
B0626103147053S11715723EA0125401302000000000000
B0626143147006S11715677EA0126301306000000000000
B0626183146944S11715690EA0125901302000000000000
B0626223146910S11715750EA0125901303000000000000
B0626263146929S11715802EA0126801312000000000000
B0626303146972S11715803EA0126801311000000000000
B0626343146992S11715749EA0126801313000000000000
B0626383146957S11715690EA0127001319000000000000
B0626423146893S11715689EA0127901325000000000000
B0626463146853S11715740EA0128301328000000000000
B0626503146861S11715798EA0128301326000000000000
B0626543146901S11715836EA0127201311000000000000
B0626583146954S11715871EA0125701294000000000000
B0627023147013S11715905EA0124101279000000000000
B0627063147078S11715932EA0122501262000000000000
B0627103147145S11715962EA0120901245000000000000
B0627143147212S11715992EA0119701235000000000000
B0627183147278S11716020EA0118901225000000000000
B0627223147343S11716050EA0118001214000000000000
B0627263147404S11716079EA0117601213000000000000
B0627303147464S11716106EA0117201203000000000000
B0627343147527S11716137EA0116001192000000000000
B0627383147591S11716162EA0115101184000000000000
B0627423147655S11716188EA0114401178000000000000
B0627463147719S11716215EA0113601166000000000000
B0627503147782S11716240EA0112601157000000000000
B0627543147847S11716257EA0112101152000000000000
B0627583147914S11716266EA0111101138000000000000
B0628023147980S11716273EA0110501133000000000000
B0628063148047S11716270EA0109901126000000000000
B0628103148114S11716265EA0109701126000000000000
B0628143148179S11716253EA0110301134000000000000
B0628183148240S11716244EA0110701139000000000000
B0628223148302S11716237EA0110701135000000000000
B0628263148366S11716227EA0109601123000000000000
B0628303148432S11716211EA0109001121000000000000
B0628343148499S11716197EA0109001118000000000000
B0628383148566S11716184EA0108201107000000000000
B0628423148638S11716171EA0106901094000000000000
B0628463148712S11716185EA0105801081000000000000
B0628503148772S11716244EA0105001079000000000000
B0628543148820S11716315EA0104301070000000000000
B0628583148864S11716391EA0103501063000000000000
B0629023148904S11716468EA0103001056000000000000
B0629063148941S11716544EA0102401049000000000000
B0629103148973S11716621EA0101101035000000000000
B0629143149004S11716696EA0100601030000000000000
B0629183149033S11716772EA0100301032000000000000
B0629223149068S11716838EA0100701037000000000000
B0629263149116S11716886EA0101601051000000000000
B0629303149145S11716950EA0103501068000000000000
B0629343149090S11716984EA0106701119000000000000
B0629383149045S11716933EA0108001125000000000000
B0629423149055S11716869EA0108901135000000000000
B0629463149093S11716865EA0110401150000000000000
B0629503149100S11716916EA0111401160000000000000
B0629543149055S11716959EA0112601175000000000000
B0629583148990S11716951EA0113401178000000000000
B0630023148944S11716899EA0114201190000000000000
B0630063148947S11716837EA0115401200000000000000
B0630103148985S11716817EA0116401213000000000000
B0630143149007S11716859EA0117701223000000000000
B0630183148967S11716908EA0118801237000000000000
B0630223148899S11716898EA0119601245000000015000
B0630263148863S11716834EA0120301255000000015000
B0630303148883S11716782EA0121501267000000000000
B0630343148916S11716802EA0123101279000000000000
B0630383148899S11716858EA0124601294000000000000
B0630423148840S11716887EA0125301300000000015000
B0630463148769S11716869EA0125801310000000000000
B0630503148730S11716807EA0127501324000000000000
B0630543148743S11716747EA0127801326000000000000
B0630583148783S11716737EA0128701336000000000000
B0631023148796S11716785EA0129901348000000000000
B0631063148751S11716830EA0131301364000000000000
B0631103148688S11716821EA0133101381000000015000
B0631143148647S11716768EA0134001385000000015000
B0631183148647S11716700EA0133501380000000000000
B0631223148681S11716650EA0133501380000000000000
B0631263148727S11716627EA0133501380000000000000
B0631303148768S11716659EA0133801387000000000000
B0631343148768S11716720EA0135001398000000000000
B0631383148716S11716756EA0136301419000000015000
B0631423148652S11716729EA0137601431000000015000
B0631463148625S11716660EA0138701440000000000000
B0631503148640S11716599EA0139001441000000000000
B0631543148684S11716587EA0139001440000000000000
B0631583148710S11716633EA0138801436000000000000
B0632023148687S11716695EA0139401445000000000000
B0632063148622S11716716EA0140501459000000015000
B0632103148558S11716674EA0141201466000000000000
B0632143148527S11716598EA0141901470000000000000
B0632183148547S11716529EA0141701467000000000000
B0632223148596S11716494EA0141701465000000000000
B0632263148655S11716477EA0140101438000000000000
B0632303148722S11716468EA0137701419000000000000
B0632343148792S11716481EA0137401416000000000000
B0632383148857S11716514EA0136001401000000000000
B0632423148922S11716553EA0134201379000000000000
B0632463148994S11716592EA0132401360000000000000
B0632503149061S11716644EA0130501337000000000000
B0632543149123S11716713EA0128201313000000000000
B0632583149178S11716791EA0126101294000000000000
B0633023149234S11716871EA0124501279000000000000
B0633063149288S11716951EA0123401268000000000000
B0633103149345S11717029EA0121901256000000000000
B0633143149405S11717099EA0121401250000000000000
B0633183149464S11717164EA0120901250000000000000
B0633223149522S11717223EA0121201240000000000000
B0633263149572S11717289EA0119801228000000000000
B0633303149619S11717362EA0118601214000000000000
B0633343149667S11717435EA0117301200000000000000
B0633383149714S11717506EA0116201191000000000000
B0633423149765S11717570EA0116201193000000000000
B0633463149825S11717604EA0116801197000000000000
B0633503149892S11717613EA0115301179000000000000
B0633543149966S11717623EA0113901165000000000000
B0633583150035S11717653EA0113001158000000000000
B0634023150104S11717686EA0112001147000000000000
B0634063150172S11717721EA0110701132000000000000
B0634103150233S11717773EA0109701123000000000000
B0634143150285S11717831EA0108701115000000000000
B0634183150332S11717887EA0109201122000000000000
B0634223150385S11717922EA0110301132000000000000
B0634263150439S11717921EA0111001147000000000000
B0634303150437S11717851EA0113001159000000000000
B0634343150360S11717829EA0112901153000000000000
B0634383150311S11717896EA0112601157000000000000
B0634423150337S11717942EA0113501165000000015000
B0634463150373S11717899EA0113901171000000015000
B0634503150346S11717826EA0114801181000000015000
B0634543150270S11717801EA0114501176000000000000
B0634583150211S11717852EA0114501178000000000000
B0635023150189S11717924EA0114801183000000000000
B0635063150225S11717938EA0115601191000000015000
B0635103150228S11717874EA0116101194000000015000
B0635143150163S11717831EA0115901192000000015000
B0635183150098S11717865EA0116501204000000015000
B0635223150088S11717924EA0117001205000000015000
B0635263150121S11717947EA0116801199000000015000
B0635303150138S11717894EA0116801200000000015000
B0635343150092S11717833EA0117001203000000015000
B0635383150022S11717835EA0117201207000000015000
B0635423149997S11717888EA0117501207000000015000
B0635463150022S11717925EA0116501192000000000000
B0635503150072S11717940EA0114701176000000000000
B0635543150130S11717951EA0113301168000000000000
B0635583150191S11717957EA0112401155000000000000
B0636023150255S11717960EA0111301142000000000000
B0636063150322S11717968EA0109901128000000000000
B0636103150393S11717976EA0108401112000000000000
B0636143150460S11718003EA0107501107000000000000
B0636183150519S11718047EA0108101118000000000000
B0636223150576S11718074EA0110801149000000000000
B0636263150608S11718025EA0113901182000000000000
B0636303150564S11717969EA0115401192000000000000
B0636343150501S11717986EA0116501207000000000000
B0636383150482S11718042EA0117501219000000000000
B0636423150512S11718073EA0119001231000000000000
B0636463150549S11718041EA0119701238000000000000
B0636503150547S11717969EA0120601246000000000000
B0636543150501S11717913EA0121001249000000000000
B0636583150430S11717905EA0121101248000000000000
B0637023150378S11717951EA0121401255000000000000
B0637063150378S11718011EA0122501266000000000000
B0637103150419S11718015EA0123801279000000015000
B0637143150417S11717944EA0125501299000000000000
B0637183150355S11717918EA0127101314000000015000
B0637223150311S11717961EA0127901323000000000000
B0637263150325S11718009EA0128701331000000000000
B0637303150363S11717978EA0130201352000000015000
B0637343150348S11717909EA0131301369000000015000
B0637383150290S11717873EA0133001380000000000000
B0637423150230S11717898EA0133801389000000000000
B0637463150215S11717956EA0134601398000000000000
B0637503150246S11717983EA0135801409000000000000
B0637543150280S11717940EA0136801419000000000000
B0637583150261S11717866EA0137401427000000000000
B0638023150195S11717840EA0138501440000000000000
B0638063150142S11717878EA0139501447000000000000
B0638103150133S11717938EA0139801449000000000000
B0638143150166S11717970EA0140501457000000000000
B0638183150209S11717939EA0141401468000000000000
B0638223150215S11717866EA0141501471000000000000
B0638263150166S11717803EA0142401480000000000000
B0638303150095S11717796EA0142801481000000000000
B0638343150051S11717849EA0142801482000000000000
B0638383150055S11717908EA0143301487000000000000
B0638423150094S11717927EA0143901495000000015000
B0638463150125S11717869EA0144201495000000015000
B0638503150091S11717791EA0144501503000000015000
B0638543150018S11717766EA0144901504000000000000
B0638583149958S11717805EA0144901504000000000000
B0639023149949S11717868EA0145701510000000000000
B0639063149982S11717909EA0145701514000000000000
B0639103150017S11717872EA0147001524000000000000
B0639143149986S11717805EA0147601530000000000000
B0639183149917S11717779EA0146901514000000000000
B0639223149864S11717822EA0146001515000000000000
B0639263149866S11717879EA0146701521000000000000
B0639303149905S11717905EA0147001529000000000000
B0639343149955S11717920EA0147301530000000000000
B0639383150008S11717925EA0147601538000000000000
B0639423150051S11717892EA0148701550000000000000
B0639463150033S11717826EA0149001546000000000000
B0639503149966S11717812EA0147901534000000000000
B0639543149923S11717865EA0146901525000000000000
B0639583149921S11717935EA0146301522000000000000
B0640023149947S11717995EA0147301534000000000000
B0640063149987S11718038EA0147301529000000000000
B0640103150040S11718065EA0147101533000000000000
B0640143150096S11718085EA0147601537000000000000
B0640183150152S11718104EA0147901537000000000000
B0640223150209S11718120EA0147801536000000000000
B0640263150270S11718132EA0147801537000000000000
B0640303150330S11718143EA0148501544000000000000
B0640343150387S11718159EA0148901547000000000000
B0640383150447S11718177EA0148101536000000000000
B0640423150511S11718197EA0147301528000000000000
B0640463150579S11718219EA0147001521000000000000
B0640503150649S11718239EA0146001512000000000000
B0640543150722S11718260EA0145001499000000000000
B0640583150796S11718286EA0143301488000000000000
B0641023150868S11718311EA0143301490000000000000
B0641063150940S11718334EA0143401487000000000000
B0641103151010S11718358EA0142601480000000000000
B0641143151080S11718384EA0142101474000000000000
B0641183151152S11718407EA0141501465000000000000
B0641223151226S11718432EA0140401455000000000000
B0641263151297S11718459EA0139701450000000000000
B0641303151369S11718489EA0138901441000000000000
B0641343151437S11718522EA0138401437000000000000
B0641383151503S11718554EA0138401438000000000000
B0641423151570S11718584EA0138001432000000000000
B0641463151638S11718609EA0137501427000000000000
B0641503151707S11718636EA0137001420000000000000
B0641543151775S11718666EA0136701419000000000000
B0641583151843S11718691EA0136901423000000000000
B0642023151911S11718713EA0137101421000000000000
B0642063151980S11718735EA0136601415000000000000
B0642103152049S11718757EA0136001413000000000000
B0642143152114S11718778EA0136601418000000000000
B0642183152180S11718798EA0135801406000000000000
B0642223152249S11718818EA0134401393000000000000
B0642263152319S11718839EA0133901385000000000000
B0642303152391S11718861EA0133201383000000000000
B0642343152461S11718883EA0133101382000000000000
B0642383152531S11718908EA0133001381000000000000
B0642423152601S11718934EA0132201368000000000000
B0642463152673S11718965EA0131101359000000000000
B0642503152744S11718995EA0130101348000000000000
B0642543152817S11719023EA0129701347000000000000
B0642583152889S11719051EA0129101338000000000000
B0643023152960S11719081EA0128301328000000000000
B0643063153032S11719107EA0127301318000000000000
B0643103153101S11719135EA0126301306000000000000
B0643143153168S11719164EA0125201292000000000000
B0643183153238S11719183EA0124101284000000000000
B0643223153310S11719194EA0123101271000000000000
B0643263153383S11719199EA0122001261000000000000
B0643303153454S11719195EA0121101255000000000000
B0643343153527S11719190EA0120501245000000000000
B0643383153601S11719187EA0119601235000000000000
B0643423153674S11719185EA0119201236000000000000
B0643463153744S11719179EA0119201232000000000000
B0643503153813S11719175EA0118501226000000000000
B0643543153882S11719169EA0118201226000000000000
B0643583153951S11719161EA0118101220000000000000
B0644023154020S11719153EA0117501214000000000000
B0644063154091S11719148EA0117101208000000000000
B0644103154163S11719143EA0116501203000000000000
B0644143154233S11719143EA0116201203000000000000
B0644183154300S11719147EA0116601207000000000000
B0644223154367S11719147EA0116501205000000000000
B0644263154432S11719144EA0116501209000000000000
B0644303154493S11719144EA0117401209000000000000
B0644343154557S11719138EA0116001191000000000000
B0644383154622S11719127EA0114701185000000000000
B0644423154681S11719125EA0115301196000000000000
B0644463154736S11719118EA0116301202000000000000
B0644503154789S11719112EA0116801211000000000000
B0644543154839S11719105EA0117901221000000000000
B0644583154889S11719097EA0118001216000000000000
B0645023154945S11719090EA0117201202000000000000
B0645063155006S11719079EA0116101194000000000000
B0645103155069S11719052EA0115301190000000000000
B0645143155132S11719030EA0115501197000000000000
B0645183155191S11719019EA0116101199000000000000
B0645223155249S11719006EA0115501188000000000000
B0645263155313S11718993EA0114101172000000000000
B0645303155379S11718979EA0112701164000000000000
B0645343155448S11718965EA0112101156000000000000
B0645383155519S11718953EA0111301147000000000000
B0645423155589S11718947EA0110501136000000000000
B0645463155662S11718951EA0109001125000000000000
B0645503155736S11718954EA0108001113000000000000
B0645543155811S11718956EA0106901098000000000000
B0645583155890S11718956EA0105301085000000000000
B0646023155968S11718957EA0103901069000000000000
B0646063156046S11718965EA0102501056000000000000
B0646103156118S11718988EA0102201055000000000000
B0646143156179S11719029EA0102201056000000000000
B0646183156232S11719081EA0102201053000000000000
B0646223156274S11719146EA0101801050000000000000
B0646263156309S11719213EA0101201044000000000000
B0646303156341S11719281EA0100501036000000000000
B0646343156374S11719348EA0099601027000000000000
B0646383156408S11719417EA0098501012000000000000
B0646423156445S11719489EA0096900995000000000000
B0646463156486S11719559EA0095800985000000000000
B0646503156526S11719629EA0095100980000000000000
B0646543156565S11719701EA0094300972000000000000
B0646583156596S11719775EA0094400976000000000000
B0647023156625S11719844EA0095000982000000000000
B0647063156648S11719909EA0095600987000000000000
B0647103156673S11719971EA0095800985000000000000
B0647143156705S11720028EA0095500983000000000000
B0647183156738S11720088EA0096100992000000000000
B0647223156781S11720097EA0097301012000000000000
B0647263156761S11720022EA0097801015000000015000
B0647303156678S11720013EA0097501024000000015000
B0647343156631S11720070EA0099001031000000000000
B0647383156638S11720136EA0099701041000000000000
B0647423156683S11720122EA0101001064000000015000
B0647463156664S11720043EA0101801068000000015000
B0647503156598S11720006EA0102201066000000000000
B0647543156527S11720043EA0101801060000000000000
B0647583156530S11720098EA0102901086000000015000
B0648023156561S11720059EA0104701090000000015000
B0648063156508S11720000EA0105001099000000015000
B0648103156444S11720028EA0106601112000000015000
B0648143156444S11720089EA0107101116000000015000
B0648183156488S11720104EA0107201121000000015000
B0648223156508S11720036EA0107601128000000015000
B0648263156447S11719984EA0108401142000000015000
B0648303156405S11720028EA0109801151000000015000
B0648343156442S11720040EA0110701157000000015000
B0648383156457S11719970EA0110701156000000015000
B0648423156408S11719909EA0111601168000000015000
B0648463156345S11719937EA0112701176000000015000
B0648503156353S11719988EA0113301178000000015000
B0648543156400S11719975EA0113401180000000015000
B0648583156434S11719907EA0113401184000000015000
B0649023156403S11719831EA0115201200000000000000
B0649063156330S11719823EA0115001196000000000000
B0649103156279S11719879EA0114601194000000000000
B0649143156273S11719949EA0115001199000000000000
B0649183156308S11719992EA0115301201000000000000
B0649223156361S11720020EA0114701202000000000000
B0649263156418S11720033EA0116101227000000000000
B0649303156442S11719974EA0119401248000000000000
B0649343156395S11719909EA0119001241000000000000
B0649383156318S11719916EA0119601259000000000000
B0649423156295S11719970EA0122101284000000000000
B0649463156326S11719985EA0123801303000000015000
B0649503156351S11719926EA0123901308000000015000
B0649543156305S11719859EA0125701324000000015000
B0649583156237S11719870EA0126501329000000015000
B0650023156221S11719927EA0127501341000000015000
B0650063156253S11719953EA0128901353000000015000
B0650103156286S11719903EA0129801362000000015000
B0650143156267S11719825EA0131201377000000000000
B0650183156201S11719788EA0132101380000000000000
B0650223156145S11719824EA0132201385000000000000
B0650263156141S11719881EA0133201392000000000000
B0650303156182S11719889EA0134101402000000000000
B0650343156208S11719827EA0134801414000000000000
B0650383156169S11719757EA0136401426000000000000
B0650423156100S11719742EA0137001431000000000000
B0650463156059S11719789EA0137601434000000000000
B0650503156078S11719833EA0137601435000000000000
B0650543156126S11719812EA0137701441000000000000
B0650583156127S11719736EA0139301460000000000000
B0651023156076S11719672EA0140101459000000000000
B0651063156006S11719675EA0140401471000000000000
B0651103155977S11719725EA0141501475000000000000
B0651143156003S11719763EA0141801480000000000000
B0651183156048S11719751EA0142301485000000000000
B0651223156068S11719686EA0143101495000000000000
B0651263156046S11719611EA0143601496000000000000
B0651303155977S11719575EA0143901498000000000000
B0651343155925S11719608EA0144801509000000000000
B0651383155927S11719655EA0145701515000000000000
B0651423155966S11719668EA0145601515000000000000
B0651463156003S11719625EA0145801520000000000000
B0651503155983S11719549EA0146201522000000000000
B0651543155912S11719510EA0146601526000000000000
B0651583155853S11719539EA0147401535000000000000
B0652023155845S11719594EA0147901535000000000000
B0652063155881S11719633EA0146901519000000000000
B0652103155936S11719666EA0145401513000000000000
B0652143155996S11719703EA0145101512000000000000
B0652183156055S11719740EA0146201527000000000000
B0652223156114S11719777EA0147401538000000000000
B0652263156172S11719815EA0148801550000000000000
B0652303156231S11719853EA0150001560000000000000
B0652343156286S11719829EA0152201585000000000000
B0652383156269S11719757EA0153301589000000000000
B0652423156201S11719746EA0152801580000000000000
B0652463156169S11719802EA0152701588000000000000
B0652503156171S11719866EA0153501593000000000000
B0652543156213S11719906EA0152701579000000000000
B0652583156266S11719949EA0150401549000000000000
B0653023156328S11719997EA0147001519000000000000
B0653063156397S11720048EA0145301508000000000000
B0653103156465S11720097EA0144801504000000000000
B0653143156533S11720145EA0144501500000000000000
B0653183156601S11720199EA0143301490000000000000
B0653223156670S11720254EA0143601494000000000000
B0653263156738S11720312EA0144501508000000000000
B0653303156803S11720365EA0145501517000000000000
B0653343156865S11720421EA0145801514000000000000
B0653383156929S11720475EA0145501506000000000000
B0653423156994S11720533EA0144101487000000000000
B0653463157063S11720587EA0142401472000000000000
B0653503157133S11720641EA0141201464000000000000
B0653543157201S11720695EA0140101454000000000000
B0653583157264S11720747EA0139801447000000000000
B0654023157331S11720798EA0138001429000000000000
B0654063157396S11720849EA0137501427000000000000
B0654103157462S11720895EA0137801430000000000000
B0654143157528S11720937EA0138201437000000000000
B0654183157592S11720975EA0138801436000000000000
B0654223157658S11721014EA0138601438000000000000
B0654263157726S11721053EA0138601434000000000000
B0654303157791S11721097EA0139601447000000000000
B0654343157856S11721140EA0138901435000000000000
B0654383157924S11721183EA0138001425000000000000
B0654423157992S11721228EA0136501407000000000000
B0654463158068S11721271EA0134801388000000000000
B0654503158145S11721313EA0132901372000000000000
B0654543158219S11721357EA0131701365000000000000
B0654583158282S11721406EA0132101370000000000000
B0655023158343S11721449EA0132801376000000000000
B0655063158405S11721483EA0133201375000000000000
B0655103158471S11721513EA0131901357000000000000
B0655143158542S11721548EA0129901341000000000000
B0655183158614S11721587EA0129001334000000000000
B0655223158680S11721631EA0128401325000000000000
B0655263158740S11721681EA0128301335000000000000
B0655303158795S11721725EA0130001351000000000000
B0655343158853S11721759EA0131201356000000000000
B0655383158915S11721791EA0130501350000000000000
B0655423158980S11721826EA0129301335000000000000
B0655463159048S11721864EA0129501343000000000000
B0655503159110S11721902EA0130601358000000000000
B0655543159165S11721942EA0132501376000000000000
B0655583159217S11721981EA0133701386000000000000
B0656023159265S11722020EA0134801399000000000000
B0656063159311S11722059EA0136501414000000000000
B0656103159356S11722099EA0137601425000000000000
B0656143159400S11722141EA0138101426000000000000
B0656183159447S11722185EA0137301407000000000000
B0656223159498S11722243EA0134701383000000000000
B0656263159550S11722312EA0133201366000000000000
B0656303159602S11722383EA0132101358000000000000
B0656343159653S11722455EA0131501354000000000000
B0656383159695S11722529EA0131701357000000000000
B0656423159737S11722597EA0132401368000000000000
B0656463159776S11722666EA0133201372000000000000
B0656503159818S11722735EA0132701361000000000000
B0656543159859S11722806EA0131601350000000000000
B0656583159903S11722877EA0130801341000000000000
B0657023159949S11722945EA0129601328000000000000
B0657063159996S11723017EA0127701311000000000000
B0657103200048S11723086EA0127101307000000000000
B0657143200101S11723151EA0126601296000000000000
B0657183200156S11723217EA0125201279000000000000
B0657223200212S11723282EA0124301277000000000000
B0657263200271S11723341EA0124001272000000000000
B0657303200332S11723397EA0123001262000000000000
B0657343200396S11723449EA0122101252000000000000
B0657383200460S11723502EA0121401248000000000000
B0657423200518S11723554EA0121201242000000000000
B0657463200579S11723603EA0120501236000000000000
B0657503200639S11723653EA0119801228000000000000
B0657543200694S11723709EA0119101224000000000000
B0657583200746S11723762EA0119201226000000000000
B0658023200803S11723794EA0119301223000000000000
B0658063200867S11723806EA0118801218000000000000
B0658103200933S11723794EA0117901207000000000000
B0658143200994S11723754EA0117201202000000000000
B0658183201044S11723689EA0116001190000000000000
B0658223201085S11723608EA0114701177000000000000
B0658263201120S11723523EA0113301163000000000000
B0658303201154S11723432EA0111301142000000000000
B0658343201188S11723338EA0110401136000000000000
B0658383201220S11723246EA0109801127000000000000
B0658423201255S11723153EA0109201117000000000000
B0658463201288S11723060EA0108101108000000000000
B0658503201317S11722965EA0107301101000000000000
B0658543201341S11722869EA0106101088000000000000
B0658583201362S11722773EA0105401083000000000000
B0659023201382S11722678EA0104801072000000000000
B0659063201402S11722584EA0103601060000000000000
B0659103201423S11722490EA0102501046000000000000
B0659143201448S11722397EA0101201033000000000000
B0659183201474S11722306EA0099901033000000000000
B0659223201501S11722216EA0100201036000000000000
B0659263201548S11722147EA0100901044000000000000
B0659303201606S11722136EA0102201054000000000000
B0659343201626S11722193EA0102501054000000000000
B0659383201573S11722243EA0102201053000000000000
B0659423201497S11722243EA0102401053000000000000
B0659463201419S11722223EA0102301051000000000000
B0659503201339S11722203EA0102001052000000000000
B0659543201257S11722185EA0102001050000000000000
B0659583201172S11722175EA0101501043000000000000
B0700023201085S11722177EA0101201038000000000000
B0700063200997S11722185EA0100001024000000000000
B0700103200906S11722186EA0099001016000000000000
B0700143200815S11722185EA0098301009000000000000
B0700183200725S11722168EA0097300999000000000000
B0700223200643S11722117EA0097000995000000000000
B0700263200592S11722032EA0096900994000000000000
B0700303200569S11721934EA0096700995000000000000
B0700343200574S11721842EA0097601012000000000000
B0700383200617S11721834EA0099701022000000000000
B0700423200587S11721881EA0101801032000000000000
B0700463200530S11721838EA0102301028000000015000
B0700503200548S11721769EA0102001040000000015000
B0700543200594S11721783EA0103801062000000015000
B0700583200578S11721842EA0105701079000000000000
B0701023200516S11721839EA0106801093000000015000
B0701063200485S11721770EA0107101095000000015000
B0701103200514S11721717EA0107901110000000015000
B0701143200546S11721751EA0109501126000000015000
B0701183200511S11721804EA0110601138000000015000
B0701223200447S11721787EA0111901151000000015000
B0701263200416S11721718EA0112201150000000000000
B0701303200444S11721666EA0113001163000000000000
B0701343200479S11721694EA0113901171000000000000
B0701383200459S11721759EA0114101175000000000000
B0701423200391S11721778EA0115801194000000000000
B0701463200327S11721739EA0116901204000000000000
B0701503200314S11721665EA0117401214000000000000
B0701543200349S11721627EA0118801226000000000000
B0701583200391S11721644EA0119201227000000000000
B0702023200407S11721709EA0118901225000000000000
B0702063200374S11721778EA0119401234000000000000
B0702103200306S11721799EA0120401247000000000000
B0702143200254S11721744EA0120901251000000000000
B0702183200261S11721673EA0121201258000000000000
