ACAM4N6
HFDTE280615
HFFXA050
HFPLTPILOT:JOHN WELSH              
HFGTYGLIDERTYPE:HORNET      
HFGIDGLIDERID:VH-GMY      
HFDTM100GPSDATUM:
HFRFWFIRMWAREVERSION:F2.6
HFRHWHARDWAREVERSION:300 Series Version 2
HFFTYFRTYPE:CAMBRIDGE AERO INSTRUMENTS, 302+
HFGPS:GARMIN,LVS-25,12,18000
HFPRSPRESSALTSENSOR:INTERSEMA, MS5534-AP, 20000
I033638FXA3941ENL4247REX
LCAMSBVER:5FWVER:F26300
C050415050137050415000102
C0000000N00000000WTAKEOFF     
C3207549S11656849EBEVAIR      
C3123325S11712260EWATRCRRN    
C3212499S11757329EBILBARIN    
C3207549S11656849EBEVAIR      
C0000000N00000000WLANDING     
B0440323207736S11657099EA0008600203000004000000
B0440343207736S11657099EA0008700203000004000000
B0440363207736S11657099EA0008700203000004000000
B0440383207736S11657099EA0008700203000004000000
B0440403207736S11657099EA0008800203000004000000
B0440423207736S11657099EA0008800203000004000000
B0440443207736S11657099EA0008800203000004000000
B0440463207736S11657099EA0008800203000004000000
B0440483207736S11657099EA0008800203000004000000
B0440503207736S11657099EA0008800203000004000000
B0440523207736S11657099EA0008800203000004000000
B0440543207736S11657099EA0008800203000004000000
B0440563207736S11657099EA0008700203000004000000
B0440583207736S11657099EA0008800202000004000000
B0441003207733S11657098EA0008900202000004000000
B0441013207731S11657096EA0008800202000004000000
B0441053207710S11657088EA0008800201000004000000
B0441093207672S11657072EA0008500202000004000000
B0441133207623S11657042EA0008800202000004000000
B0441173207560S11657005EA0008700202000004000000
B0441213207494S11656966EA0008900206000004000000
B0441253207428S11656931EA0010100217000004000000
B0441293207363S11656900EA0011600234000004000000
B0441333207298S11656871EA0013100251000004000000
B0441373207229S11656843EA0014500264000004000000
B0441413207157S11656815EA0015700275000004000000
B0441453207085S11656791EA0017000286000004000000
B0441493207011S11656763EA0018200302000004000000
B0441533206940S11656728EA0019900323000004000000
B0441573206875S11656684EA0022600344000004000000
B0442013206819S11656620EA0023600358000004000000
B0442053206777S11656542EA0025500376000004000000
B0442093206744S11656454EA0027400395000004000000
B0442133206730S11656357EA0029200413000004000000
B0442173206730S11656260EA0031300435000004000000
B0442213206740S11656165EA0033500456000004000000
B0442253206762S11656072EA0035100470000004000000
B0442293206792S11655980EA0036200480000004000000
B0442333206826S11655891EA0037800497000004000000
B0442373206865S11655801EA0039300508000004000000
B0442413206908S11655713EA0040500520000004000000
B0442453206955S11655627EA0041400535000004000000
B0442493207007S11655548EA0042800552000004000000
B0442533207068S11655478EA0044500568000004000000
B0442573207138S11655421EA0046300587000004000000
B0443013207215S11655382EA0048700611000004000000
B0443053207297S11655365EA0050400630000004000000
B0443093207378S11655379EA0052300647000004000000
B0443133207446S11655428EA0054100663000004000000
B0443173207492S11655501EA0055300672000004000000
B0443213207511S11655586EA0055800682000004000000
B0443253207507S11655670EA0057400699000004000000
B0443293207488S11655753EA0058600710000004000000
B0443333207464S11655833EA0060000726000004000000
B0443373207443S11655909EA0062000747000004000000
B0443413207425S11655986EA0064000762000004000000
B0443453207441S11656055EA0064800765000004000000
B0443493207499S11656078EA0065500775000004000000
B0443533207554S11656043EA0066200782000004000000
B0443573207570S11655981EA0066800785000004000000
B0444013207536S11655939EA0066500780000004000000
B0444053207495S11655961EA0065700775000004000000
B0444093207497S11656016EA0065600776000004000000
B0444133207542S11656055EA0065600776000004000000
B0444173207599S11656039EA0066000785000004000000
B0444213207602S11655973EA0066500785000004000000
B0444253207555S11655956EA0066200786000004000000
B0444293207534S11656000EA0066600791000004000000
B0444333207566S11656047EA0067200797000004000000
B0444373207622S11656041EA0067900802000004000000
B0444413207654S11655978EA0067900802000004000000
B0444453207631S11655921EA0068100804000004000000
B0444493207584S11655921EA0067900802000004000000
B0444533207572S11655973EA0068000806000004000000
B0444573207612S11656013EA0068800815000004000000
B0445013207668S11656000EA0069600819000004000000
B0445053207702S11655942EA0069500818000004000000
B0445093207684S11655882EA0069500820000004000000
B0445133207640S11655872EA0069600819000004000000
B0445173207612S11655913EA0069700822000004000000
B0445213207632S11655964EA0070400829000004000000
B0445253207688S11655969EA0070700827000004000000
B0445293207733S11655916EA0070100823000004000000
B0445333207731S11655847EA0070200828000004000000
B0445373207687S11655822EA0070600831000004000000
B0445413207657S11655860EA0070800831000004000000
B0445453207679S11655915EA0070800832000004000000
B0445493207739S11655924EA0071100833000004000000
B0445533207784S11655874EA0070900831000004000000
B0445573207783S11655803EA0071000831000004000000
B0446013207744S11655755EA0070800830000004000000
B0446053207692S11655751EA0070600828000004000000
B0446093207650S11655787EA0070600831000004000000
B0446133207641S11655844EA0071100836000004000000
B0446173207667S11655896EA0071300836000004000000
B0446213207726S11655916EA0071100835000004000000
B0446253207787S11655891EA0071300836000004000000
B0446293207827S11655831EA0071100834000004000000
B0446333207835S11655756EA0070800830000004000000
B0446373207813S11655687EA0071000831000004000000
B0446413207767S11655644EA0071100834000004000000
B0446453207714S11655638EA0071200834000004000000
B0446493207668S11655662EA0071000833000004000000
B0446533207642S11655713EA0071200837000004000000
B0446573207654S11655773EA0071300836000004000000
B0447013207698S11655816EA0071300837000004000000
B0447053207758S11655827EA0071800842000004000000
B0447093207815S11655799EA0072100846000004000000
B0447133207854S11655744EA0072100844000004000000
B0447173207863S11655674EA0071800846000004000000
B0447213207841S11655608EA0072100844000004000000
B0447253207796S11655562EA0071600839000004000000
B0447293207739S11655548EA0071200836000004000000
B0447333207692S11655575EA0071500841000004000000
B0447373207675S11655632EA0072100847000004000000
B0447413207693S11655690EA0072200845000004000000
B0447453207744S11655725EA0072000843000004000000
B0447493207809S11655725EA0071600839000004000000
B0447533207867S11655681EA0071300837000004000000
B0447573207896S11655609EA0071500841000004000000
B0448013207880S11655538EA0071600838000004000000
B0448053207830S11655491EA0070900831000004000000
B0448093207768S11655487EA0070500830000004000000
B0448133207728S11655531EA0071200839000004000000
B0448173207735S11655592EA0071800841000004000000
B0448213207780S11655636EA0071800840000004000000
B0448253207837S11655670EA0071500837000004000000
B0448293207901S11655674EA0071300836000004000000
B0448333207954S11655631EA0071400839000004000000
B0448373207962S11655565EA0072000845000004000000
B0448413207922S11655530EA0072500849000004000000
B0448453207882S11655554EA0072400848000004000000
B0448493207884S11655608EA0072200845000004000000
B0448533207931S11655643EA0071900841000004000000
B0448573207991S11655635EA0071900842000004000000
B0449013208048S11655606EA0071500838000004000000
B0449053208097S11655565EA0071500838000004000000
B0449093208121S11655501EA0071900843000004000000
B0449133208088S11655458EA0072200844000004000000
B0449173208049S11655491EA0072400847000004000000
B0449213208071S11655543EA0073000854000004000000
B0449253208129S11655540EA0073500858000004000000
B0449293208156S11655484EA0074000866000004000000
B0449333208139S11655430EA0074600867000004000000
B0449373208092S11655415EA0074200863000004000000
B0449413208054S11655450EA0074400867000004000000
B0449453208065S11655505EA0074800873000004000000
B0449493208119S11655514EA0075400878000004000000
B0449533208157S11655461EA0075600883000004000000
B0449573208139S11655402EA0076500889000004000000
B0450013208091S11655393EA0076700890000004000000
B0450053208060S11655436EA0076900894000004000000
B0450093208078S11655488EA0077800905000004000000
B0450133208131S11655499EA0078400907000004000000
B0450173208173S11655454EA0078600910000004000000
B0450213208174S11655389EA0079200916000004000000
B0450253208136S11655350EA0079500917000004000000
B0450293208091S11655370EA0079200917000004000000
B0450333208087S11655426EA0079900924000004000000
B0450373208131S11655461EA0080300927000004000000
B0450413208187S11655443EA0080800932000004000000
B0450453208209S11655384EA0081900942000004000000
B0450493208182S11655333EA0082000941000004000000
B0450533208135S11655344EA0081700940000004000000
B0450573208132S11655402EA0082000948000004000000
B0451013208181S11655431EA0083000954000004000000
B0451053208233S11655400EA0083100955000004000000
B0451093208242S11655335EA0084100966000004000000
B0451133208205S11655300EA0084700970000004000000
B0451173208165S11655330EA0084400966000004000000
B0451213208175S11655389EA0084800972000004000000
B0451253208229S11655409EA0085800981000004000000
B0451293208275S11655372EA0085900980000004000000
B0451333208279S11655309EA0086400987000004000000
B0451373208242S11655271EA0086800988000004000000
B0451413208199S11655292EA0086700991000004000000
B0451453208196S11655348EA0087300997000004000000
B0451493208243S11655379EA0087500998000004000000
B0451533208299S11655357EA0087801000000004000000
B0451573208313S11655296EA0088501008000004000000
B0452013208279S11655259EA0088901010000004000000
B0452053208236S11655281EA0089001011000004000000
B0452093208233S11655337EA0089601016000004000000
B0452133208281S11655369EA0089501015000004000000
B0452173208337S11655343EA0089401014000004000000
B0452213208352S11655279EA0089901020000004000000
B0452253208322S11655235EA0090401025000004000000
B0452293208279S11655248EA0090901028000004000000
B0452333208268S11655301EA0091101031000004000000
B0452373208301S11655346EA0091201032000004000000
B0452413208357S11655354EA0091201032000004000000
B0452453208409S11655324EA0091101030000004000000
B0452493208435S11655266EA0091201034000004000000
B0452533208431S11655203EA0091301034000004000000
B0452573208400S11655157EA0091301035000004000000
B0453013208356S11655150EA0091801041000004000000
B0453053208335S11655197EA0092001040000004000000
B0453093208372S11655242EA0091701041000004000000
B0453133208425S11655226EA0092401045000004000000
B0453173208442S11655164EA0092601046000004000000
B0453213208413S11655115EA0092501046000004000000
B0453253208364S11655110EA0092501044000004000000
B0453293208309S11655125EA0091801038000004000000
B0453333208249S11655149EA0091101028000004000000
B0453373208184S11655180EA0090301023000004000000
B0453413208122S11655207EA0090701031000004000000
B0453453208062S11655232EA0092001045000004000000
B0453493208014S11655271EA0092001040000004000000
B0453533208013S11655336EA0092001042000004000000
B0453573208065S11655363EA0092101042000004000000
B0454013208112S11655319EA0091601037000004000000
B0454053208116S11655242EA0090801031000004000000
B0454093208087S11655171EA0090701032000004000000
B0454133208038S11655123EA0090701030000004000000
B0454173207979S11655103EA0090401026000004000000
B0454213207918S11655105EA0089901023000004000000
B0454253207859S11655127EA0089601018000004000000
B0454293207811S11655164EA0088801011000004000000
B0454333207806S11655228EA0089101015000004000000
B0454373207858S11655266EA0089301014000004000000
B0454413207926S11655265EA0088401003000004000000
B0454453207992S11655249EA0088001004000004000000
B0454493208054S11655232EA0088401006000004000000
B0454533208112S11655213EA0088601004000004000000
B0454573208169S11655187EA0088301004000004000000
B0455013208217S11655142EA0088601007000004000000
B0455053208213S11655073EA0088801011000004000000
B0455093208161S11655060EA0089101015000004000000
B0455133208143S11655116EA0089701020000004000000
B0455173208184S11655159EA0089301017000004000000
B0455213208236S11655133EA0089501021000004000000
B0455253208242S11655070EA0090401029000004000000
B0455293208201S11655029EA0091001032000004000000
B0455333208157S11655050EA0091201035000004000000
B0455373208157S11655107EA0091101029000004000000
B0455413208204S11655135EA0090801028000004000000
B0455453208243S11655096EA0090501025000004000000
B0455493208238S11655021EA0089901019000004000000
B0455533208217S11654946EA0090101021000004000000
B0455573208191S11654876EA0090301023000004000000
B0456013208140S11654849EA0090701029000004000000
B0456053208119S11654898EA0091401032000004000000
B0456093208155S11654942EA0091201032000004000000
B0456133208208S11654932EA0091501036000004000000
B0456173208244S11654885EA0091701034000004000000
B0456213208266S11654817EA0091201031000004000000
B0456253208283S11654742EA0091001028000004000000
B0456293208295S11654664EA0091001025000004000000
B0456333208295S11654585EA0090801025000004000000
B0456373208261S11654521EA0090601022000004000000
B0456413208207S11654509EA0090501025000004000000
B0456453208178S11654557EA0090701027000004000000
B0456493208204S11654613EA0091101032000004000000
B0456533208262S11654626EA0091901038000004000000
B0456573208314S11654583EA0091801036000004000000
B0457013208320S11654511EA0091601035000004000000
B0457053208278S11654472EA0091701035000004000000
B0457093208239S11654503EA0092001040000004000000
B0457133208249S11654557EA0092701048000004000000
B0457173208300S11654583EA0093101050000004000000
B0457213208357S11654555EA0092801047000004000000
B0457253208373S11654483EA0093101048000004000000
B0457293208338S11654430EA0092401042000004000000
B0457333208291S11654444EA0092701050000004000000
B0457373208283S11654498EA0093501055000004000000
B0457413208321S11654540EA0093701058000004000000
B0457453208381S11654539EA0093901058000004000000
B0457493208426S11654488EA0093901058000004000000
B0457533208429S11654416EA0093601054000004000000
B0457573208390S11654370EA0093201051000004000000
B0458013208348S11654388EA0093401053000004000000
B0458053208346S11654443EA0093701057000004000000
B0458093208386S11654478EA0094001060000004000000
B0458133208444S11654465EA0093701056000004000000
B0458173208499S11654425EA0093401054000004000000
B0458213208547S11654373EA0093301054000004000000
B0458253208559S11654300EA0093701056000004000000
B0458293208521S11654244EA0093001045000004000000
B0458333208467S11654241EA0092201041000004000000
B0458373208421S11654271EA0091501034000004000000
B0458413208373S11654306EA0091101032000004000000
B0458453208326S11654347EA0091101033000004000000
B0458493208298S11654401EA0091501037000004000000
B0458533208326S11654452EA0091701036000004000000
B0458573208377S11654494EA0090501022000004000000
B0459013208426S11654543EA0090501025000004000000
B0459053208472S11654589EA0091201031000004000000
B0459093208517S11654626EA0091801036000004000000
B0459133208569S11654596EA0091601031000004000000
B0459173208550S11654530EA0091301036000004000000
B0459213208503S11654539EA0092301042000004000000
B0459253208496S11654594EA0092201043000004000000
B0459293208537S11654631EA0093101053000004000000
B0459333208587S11654609EA0093601056000004000000
B0459373208593S11654543EA0092901047000004000000
B0459413208551S11654508EA0093101053000004000000
B0459453208513S11654530EA0093401053000004000000
B0459493208508S11654585EA0093001050000004000000
B0459533208542S11654631EA0092801049000004000000
B0459573208602S11654630EA0092501045000004000000
B0500013208660S11654599EA0092001040000004000000
B0500053208706S11654547EA0092001040000004000000
B0500093208723S11654477EA0092501046000004000000
B0500133208708S11654413EA0092701045000004000000
B0500173208664S11654397EA0092601044000004000000
B0500213208645S11654447EA0092701047000004000000
B0500253208682S11654491EA0093101051000004000000
B0500293208745S11654478EA0093101052000004000000
B0500333208780S11654416EA0093801059000004000000
B0500373208768S11654349EA0093601052000004000000
B0500413208721S11654321EA0092901045000004000000
B0500453208676S11654347EA0092901050000004000000
B0500493208662S11654401EA0093401054000004000000
B0500533208677S11654460EA0093201052000004000000
B0500573208716S11654504EA0093201052000004000000
B0501013208775S11654503EA0092901047000004000000
B0501053208818S11654451EA0092501041000004000000
B0501093208832S11654377EA0092101039000004000000
B0501133208833S11654300EA0091601031000004000000
B0501173208824S11654223EA0090901024000004000000
B0501213208810S11654147EA0090801026000004000000
B0501253208792S11654070EA0090801026000004000000
B0501293208758S11654007EA0091301032000004000000
B0501333208708S11654005EA0091201028000004000000
B0501373208682S11654053EA0090701024000004000000
B0501413208686S11654113EA0090601024000004000000
B0501453208715S11654166EA0090701024000004000000
B0501493208750S11654218EA0090601025000004000000
B0501533208792S11654266EA0090501022000004000000
B0501573208842S11654309EA0089801015000004000000
B0502013208903S11654335EA0089501015000004000000
B0502053208963S11654313EA0089801017000004000000
B0502093208998S11654254EA0089601012000004000000
B0502133208996S11654182EA0089401010000004000000
B0502173208972S11654111EA0089001010000004000000
B0502213208935S11654050EA0089101011000004000000
B0502253208879S11654028EA0088901008000004000000
B0502293208823S11654046EA0088201000000004000000
B0502333208767S11654078EA0087600995000004000000
B0502373208710S11654111EA0087400994000004000000
B0502413208652S11654148EA0087100993000004000000
B0502453208595S11654187EA0086500988000004000000
B0502493208535S11654226EA0086100979000004000000
B0502533208480S11654270EA0085600977000004000000
B0502573208426S11654316EA0085300973000004000000
B0503013208373S11654360EA0085200973000004000000
B0503053208324S11654405EA0084800967000004000000
B0503093208275S11654451EA0084400963000004000000
B0503133208225S11654494EA0083700954000004000000
B0503173208170S11654535EA0083100949000004000000
B0503213208126S11654590EA0083100950000004000000
B0503253208088S11654650EA0082900948000004000000
B0503293208058S11654711EA0082800948000004000000
B0503333208030S11654769EA0082800948000004000000
B0503373208001S11654828EA0082700941000004000000
B0503413207966S11654882EA0081800936000004000000
B0503453207923S11654930EA0081700936000004000000
B0503493207880S11654973EA0081800938000004000000
B0503533207839S11655015EA0081900939000004000000
B0503573207796S11655057EA0081700935000004000000
B0504013207754S11655102EA0081100929000004000000
B0504053207714S11655149EA0080600923000004000000
B0504093207672S11655194EA0079900915000004000000
B0504133207632S11655241EA0079200908000004000000
B0504173207590S11655287EA0078800904000004000000
B0504213207554S11655339EA0078000896000004000000
B0504253207523S11655397EA0077400891000004000000
B0504293207492S11655456EA0077300890000004000000
B0504333207456S11655505EA0077400890000004000000
B0504373207415S11655548EA0077200887000004000000
B0504413207376S11655592EA0076700883000004000000
B0504453207334S11655634EA0076200880000004000000
B0504493207293S11655668EA0076100877000004000000
B0504533207246S11655696EA0075500869000004000000
B0504573207196S11655721EA0074700863000004000000
B0505013207147S11655748EA0074200857000004000000
B0505053207096S11655775EA0073500849000004000000
B0505093207046S11655808EA0072700841000004000000
B0505133206996S11655844EA0071800833000004000000
B0505173206944S11655879EA0070900824000004000000
B0505213206890S11655909EA0070200819000004000000
B0505253206838S11655938EA0070500822000004000000
B0505293206790S11655964EA0070600820000004000000
B0505333206745S11655991EA0070200814000004000000
B0505373206700S11656025EA0069400804000004000000
B0505413206656S11656061EA0068400796000004000000
B0505453206609S11656099EA0067800791000004000000
B0505493206559S11656130EA0067400788000004000000
B0505533206507S11656159EA0067000782000004000000
B0505573206453S11656185EA0066100773000004000000
B0506013206396S11656204EA0065500768000004000000
B0506053206340S11656228EA0065300767000004000000
B0506093206288S11656262EA0064900761000004000000
B0506133206237S11656297EA0064300754000004000000
B0506173206186S11656332EA0063600748000004000000
B0506213206141S11656375EA0062900744000004000000
B0506253206095S11656422EA0062400736000004000000
B0506293206046S11656468EA0061700730000004000000
B0506333205995S11656518EA0061600729000004000000
B0506373205956S11656576EA0061200728000004000000
B0506413205922S11656639EA0061600731000004000000
B0506453205890S11656700EA0061900733000004000000
B0506493205886S11656767EA0062200736000004000000
B0506533205935S11656800EA0062800740000004000000
B0506573205990S11656758EA0062500737000004000000
B0507013205995S11656684EA0061900729000004000000
B0507053205960S11656624EA0061000724000004000000
B0507093205907S11656589EA0060800724000004000000
B0507133205848S11656579EA0061600732000004000000
B0507173205818S11656617EA0062500742000004000000
B0507213205861S11656643EA0062800738000004000000
B0507253205896S11656588EA0062400743000004000000
B0507293205863S11656539EA0063500753000004000000
B0507333205820S11656558EA0064000756000004000000
B0507373205822S11656610EA0064700762000004000000
B0507413205870S11656630EA0064700760000004000000
B0507453205920S11656592EA0064400760000004000000
B0507493205920S11656528EA0065000766000004000000
B0507533205877S11656503EA0065400770000004000000
B0507573205848S11656542EA0065700771000004000000
B0508013205872S11656587EA0065900771000004000000
B0508053205928S11656575EA0065200765000004000000
B0508093205948S11656510EA0065300768000004000000
B0508133205919S11656457EA0065800774000004000000
B0508173205872S11656459EA0066400778000004000000
B0508213205860S11656507EA0066600781000004000000
B0508253205903S11656537EA0066400778000004000000
B0508293205956S11656506EA0066100774000004000000
B0508333205969S11656435EA0066300780000004000000
B0508373205938S11656377EA0066500783000004000000
B0508413205894S11656390EA0067500791000004000000
B0508453205902S11656440EA0067800793000004000000
B0508493205954S11656451EA0067800793000004000000
B0508533205990S11656397EA0067800796000004000000
B0508573205972S11656334EA0068600802000004000000
B0509013205921S11656325EA0068400800000004000000
B0509053205904S11656376EA0068700803000004000000
B0509093205938S11656419EA0069100806000004000000
B0509133205997S11656415EA0068800802000004000000
B0509173206036S11656362EA0069400812000004000000
B0509213206024S11656298EA0070100816000004000000
B0509253205980S11656268EA0070400819000004000000
B0509293205947S11656301EA0070800824000004000000
B0509333205971S11656345EA0071200826000004000000
B0509373206025S11656336EA0071000826000004000000
B0509413206049S11656277EA0072100838000004000000
B0509453206023S11656224EA0072500841000004000000
B0509493205978S11656224EA0072700843000004000000
B0509533205961S11656268EA0073000845000004000000
B0509573205991S11656308EA0072900843000004000000
B0510013206046S11656297EA0072800843000004000000
B0510053206072S11656236EA0073200849000004000000
B0510093206049S11656177EA0073500853000004000000
B0510133206002S11656168EA0074000855000004000000
B0510173205971S11656207EA0074100855000004000000
B0510213205984S11656258EA0074200855000004000000
B0510253206034S11656276EA0074000853000004000000
B0510293206089S11656253EA0073900856000004000000
B0510333206112S11656189EA0074100858000004000000
B0510373206082S11656128EA0074500860000004000000
B0510413206029S11656115EA0074600861000004000000
B0510453205987S11656150EA0074700862000004000000
B0510493205987S11656211EA0074500858000004000000
B0510533206034S11656247EA0074200857000004000000
B0510573206095S11656233EA0074000856000004000000
B0511013206149S11656188EA0074100855000004000000
B0511053206167S11656119EA0074600860000004000000
B0511093206130S11656065EA0074500860000004000000
B0511133206078S11656071EA0075500867000004000000
B0511173206055S11656117EA0075600872000004000000
B0511213206075S11656169EA0075500867000004000000
B0511253206127S11656193EA0075200867000004000000
B0511293206186S11656173EA0075000866000004000000
B0511333206241S11656133EA0074700861000004000000
B0511373206277S11656071EA0074600861000004000000
B0511413206273S11655996EA0074400859000004000000
B0511453206231S11655946EA0073900855000004000000
B0511493206172S11655931EA0073400849000004000000
B0511533206112S11655941EA0073100847000004000000
B0511573206073S11655982EA0073200851000004000000
B0512013206106S11656030EA0073500851000004000000
B0512053206167S11656012EA0073200850000004000000
B0512093206202S11655950EA0073700857000004000000
B0512133206169S11655898EA0073500852000004000000
B0512173206117S11655903EA0073100850000004000000
B0512213206073S11655937EA0072700843000004000000
B0512253206033S11655985EA0071500830000004000000
B0512293205994S11656038EA0070600823000004000000
B0512333205951S11656091EA0070100818000004000000
B0512373205908S11656142EA0069700813000004000000
B0512413205868S11656197EA0069200806000004000000
B0512453205838S11656259EA0068700804000004000000
B0512493205809S11656321EA0068400802000004000000
B0512533205772S11656376EA0068500801000004000000
B0512573205726S11656420EA0068400801000004000000
B0513013205683S11656467EA0068600802000004000000
B0513053205639S11656513EA0068500802000004000000
B0513093205586S11656511EA0069600815000004000000
B0513133205569S11656446EA0070300815000004000000
B0513173205607S11656385EA0069600811000004000000
B0513213205664S11656377EA0070000814000004000000
B0513253205700S11656418EA0069900813000004000000
B0513293205698S11656470EA0069900812000004000000
B0513333205673S11656518EA0069800811000004000000
B0513373205639S11656561EA0069700812000004000000
B0513413205626S11656618EA0070000813000004000000
B0513453205672S11656650EA0069800809000004000000
B0513493205714S11656598EA0069700817000004000000
B0513533205705S11656529EA0070400824000004000000
B0513573205661S11656503EA0070800827000004000000
B0514013205627S11656539EA0070900825000004000000
B0514053205643S11656591EA0070900826000004000000
B0514093205699S11656598EA0071000827000004000000
B0514133205735S11656548EA0071100827000004000000
B0514173205717S11656485EA0070600822000004000000
B0514213205666S11656466EA0070500821000004000000
B0514253205636S11656507EA0070700823000004000000
B0514293205672S11656549EA0071000825000004000000
B0514333205726S11656528EA0070900825000004000000
B0514373205740S11656461EA0070800825000004000000
B0514413205703S11656414EA0070600822000004000000
B0514453205656S11656433EA0070300821000004000000
B0514493205656S11656494EA0070100818000004000000
B0514533205683S11656559EA0070100820000004000000
B0514573205738S11656574EA0071000827000004000000
B0515013205764S11656513EA0071200826000004000000
B0515053205726S11656468EA0070800825000004000000
B0515093205675S11656476EA0071000826000004000000
B0515133205639S11656516EA0071300834000004000000
B0515173205657S11656565EA0071900831000004000000
B0515213205714S11656544EA0071300829000004000000
B0515253205714S11656474EA0071500833000004000000
B0515293205666S11656457EA0071800839000004000000
B0515333205643S11656503EA0072400839000004000000
B0515373205675S11656548EA0072100838000004000000
B0515413205735S11656536EA0072200834000004000000
B0515453205766S11656471EA0071800835000004000000
B0515493205740S11656407EA0072200839000004000000
B0515533205687S11656399EA0072400842000004000000
B0515573205659S11656446EA0072400840000004000000
B0516013205687S11656500EA0072400843000004000000
B0516053205750S11656492EA0072800844000004000000
B0516093205785S11656427EA0072700844000004000000
B0516133205756S11656373EA0073000850000004000000
B0516173205724S11656403EA0073500850000004000000
B0516213205763S11656446EA0072800844000004000000
B0516253205818S11656414EA0073000848000004000000
B0516293205822S11656342EA0073300846000004000000
B0516333205774S11656307EA0073200852000004000000
B0516373205739S11656344EA0073900859000004000000
B0516413205768S11656392EA0074100857000004000000
B0516453205828S11656372EA0074100859000004000000
B0516493205844S11656305EA0074600865000004000000
B0516533205809S11656255EA0074900867000004000000
B0516573205764S11656271EA0075100871000004000000
B0517013205764S11656325EA0075300871000004000000
B0517053205812S11656354EA0075400873000004000000
B0517093205864S11656318EA0075500874000004000000
B0517133205873S11656251EA0075700876000004000000
B0517173205839S11656202EA0075700875000004000000
B0517213205792S11656214EA0076000878000004000000
B0517253205791S11656268EA0075800876000004000000
B0517293205839S11656301EA0076200882000004000000
B0517333205891S11656271EA0076500883000004000000
B0517373205900S11656204EA0076400883000004000000
B0517413205857S11656169EA0076700886000004000000
B0517453205822S11656202EA0077100891000004000000
B0517493205835S11656256EA0077500894000004000000
B0517533205889S11656268EA0077800897000004000000
B0517573205937S11656220EA0077500891000004000000
B0518013205935S11656146EA0077300892000004000000
B0518053205891S11656108EA0077700897000004000000
B0518093205846S11656126EA0078100900000004000000
B0518133205837S11656181EA0078100899000004000000
B0518173205877S11656223EA0078500905000004000000
B0518213205933S11656206EA0079000909000004000000
B0518253205958S11656142EA0079100910000004000000
B0518293205925S11656093EA0079100910000004000000
B0518333205883S11656117EA0079500915000004000000
B0518373205896S11656171EA0080200925000004000000
B0518413205947S11656185EA0081000928000004000000
B0518453205997S11656143EA0081000928000004000000
B0518493206008S11656076EA0081200931000004000000
B0518533205976S11656024EA0081000928000004000000
B0518573205929S11656022EA0081200932000004000000
B0519013205913S11656069EA0081700938000004000000
B0519053205947S11656112EA0081900938000004000000
B0519093206007S11656100EA0082100940000004000000
B0519133206034S11656035EA0082000938000004000000
B0519173206007S11655977EA0081900939000004000000
B0519213205961S11655978EA0082200941000004000000
B0519253205946S11656029EA0082300943000004000000
B0519293205984S11656068EA0083000950000004000000
B0519333206036S11656050EA0083700954000004000000
B0519373206062S11655989EA0083400950000004000000
B0519413206041S11655929EA0083200951000004000000
B0519453205995S11655916EA0083300951000004000000
B0519493205964S11655951EA0083500952000004000000
B0519533205978S11656003EA0083600956000004000000
B0519573206033S11656006EA0084000958000004000000
B0520013206068S11655947EA0084300962000004000000
B0520053206050S11655882EA0084400964000004000000
B0520093206004S11655873EA0084500966000004000000
B0520133205982S11655917EA0084600966000004000000
B0520173206010S11655964EA0085000970000004000000
B0520213206065S11655960EA0085400971000004000000
B0520253206101S11655900EA0085100969000004000000
B0520293206086S11655831EA0085100969000004000000
B0520333206037S11655812EA0085200972000004000000
B0520373206010S11655853EA0085400971000004000000
B0520413206036S11655905EA0085300972000004000000
B0520453206094S11655904EA0086000980000004000000
B0520493206127S11655842EA0085900977000004000000
B0520533206102S11655777EA0085600977000004000000
B0520573206055S11655777EA0086000982000004000000
B0521013206043S11655829EA0085800978000004000000
B0521053206078S11655872EA0086100988000004000000
B0521093206130S11655870EA0087400993000004000000
B0521133206171S11655821EA0087100986000004000000
B0521173206176S11655748EA0086700985000004000000
B0521213206140S11655700EA0086700987000004000000
B0521253206093S11655704EA0086700988000004000000
B0521293206069S11655748EA0086800986000004000000
B0521333206084S11655801EA0087000991000004000000
B0521373206125S11655830EA0087600997000004000000
B0521413206182S11655820EA0087500994000004000000
B0521453206229S11655769EA0087300994000004000000
B0521493206242S11655695EA0087300989000004000000
B0521533206210S11655631EA0086600986000004000000
B0521573206158S11655604EA0086500986000004000000
B0522013206106S11655617EA0086400981000004000000
B0522053206069S11655666EA0085700976000004000000
B0522093206064S11655731EA0086000983000004000000
B0522133206101S11655781EA0086900989000004000000
B0522173206163S11655779EA0086800986000004000000
B0522213206212S11655723EA0086700989000004000000
B0522253206216S11655649EA0087200992000004000000
B0522293206180S11655599EA0087300992000004000000
B0522333206129S11655604EA0087000987000004000000
B0522373206099S11655651EA0086800987000004000000
B0522413206110S11655709EA0087200994000004000000
B0522453206159S11655740EA0087300991000004000000
B0522493206220S11655721EA0086800987000004000000
B0522533206257S11655653EA0086800987000004000000
B0522573206242S11655577EA0087000989000004000000
B0523013206193S11655541EA0086800988000004000000
B0523053206136S11655545EA0086600986000004000000
B0523093206091S11655582EA0086700990000004000000
B0523133206107S11655640EA0086900984000004000000
B0523173206173S11655642EA0086000978000004000000
B0523213206219S11655578EA0085900982000004000000
B0523253206233S11655495EA0086200984000004000000
B0523293206205S11655426EA0086500988000004000000
B0523333206156S11655424EA0087400993000004000000
B0523373206141S11655474EA0087200991000004000000
B0523413206177S11655518EA0087000989000004000000
B0523453206236S11655506EA0087300994000004000000
B0523493206258S11655439EA0087600995000004000000
B0523533206225S11655382EA0087400993000004000000
B0523573206175S11655378EA0087300995000004000000
B0524013206143S11655419EA0087300994000004000000
B0524053206153S11655478EA0087400994000004000000
B0524093206201S11655508EA0087600995000004000000
B0524133206260S11655487EA0087500996000004000000
B0524173206289S11655424EA0088100999000004000000
B0524213206258S11655369EA0087800998000004000000
B0524253206212S11655387EA0087700996000004000000
B0524293206212S11655443EA0087600995000004000000
B0524333206262S11655474EA0087200989000004000000
B0524373206318S11655444EA0087701000000004000000
B0524413206327S11655375EA0088201000000004000000
B0524453206283S11655341EA0087700996000004000000
B0524493206246S11655376EA0087600994000004000000
B0524533206263S11655432EA0087700997000004000000
B0524573206318S11655447EA0087800995000004000000
B0525013206370S11655406EA0087500993000004000000
B0525053206396S11655339EA0087900996000004000000
B0525093206362S11655292EA0088100997000004000000
B0525133206319S11655313EA0087700991000004000000
B0525173206312S11655372EA0087200989000004000000
B0525213206349S11655421EA0087800997000004000000
B0525253206406S11655426EA0087800994000004000000
B0525293206457S11655379EA0087300990000004000000
B0525333206459S11655306EA0087300992000004000000
B0525373206418S11655265EA0087400992000004000000
B0525413206375S11655291EA0087300989000004000000
B0525453206368S11655353EA0087000987000004000000
B0525493206410S11655401EA0087200990000004000000
B0525533206471S11655392EA0087100986000004000000
B0525573206518S11655339EA0086600982000004000000
B0526013206532S11655266EA0086400982000004000000
B0526053206515S11655196EA0086200978000004000000
B0526093206471S11655150EA0085800974000004000000
B0526133206419S11655151EA0085400973000004000000
B0526173206377S11655193EA0085500973000004000000
B0526213206344S11655246EA0085400972000004000000
B0526253206351S11655306EA0085600976000004000000
B0526293206407S11655317EA0085500969000004000000
B0526333206468S11655268EA0084100952000004000000
B0526373206532S11655219EA0083100946000004000000
B0526413206598S11655175EA0082800944000004000000
B0526453206665S11655140EA0082600942000004000000
B0526493206731S11655110EA0082700943000004000000
B0526533206797S11655084EA0082200935000004000000
B0526573206865S11655057EA0081100927000004000000
B0527013206934S11655031EA0081100931000004000000
B0527053206998S11655007EA0081700934000004000000
B0527093207056S11654985EA0082000937000004000000
B0527133207117S11654963EA0081900935000004000000
B0527173207180S11654942EA0081500933000004000000
B0527213207242S11654916EA0081300931000004000000
B0527253207284S11654858EA0081600936000004000000
B0527293207256S11654797EA0081500931000004000000
B0527333207200S11654799EA0081100926000004000000
B0527373207168S11654849EA0081500934000004000000
B0527413207172S11654906EA0082300940000004000000
B0527453207213S11654940EA0082200936000004000000
B0527493207269S11654936EA0081700932000004000000
B0527533207329S11654923EA0081200928000004000000
B0527573207389S11654899EA0080900925000004000000
B0528013207430S11654845EA0081400932000004000000
B0528053207424S11654778EA0081400928000004000000
B0528093207373S11654760EA0080800925000004000000
B0528133207351S11654815EA0080700925000004000000
B0528173207380S11654869EA0081200930000004000000
B0528213207436S11654877EA0081600931000004000000
B0528253207477S11654832EA0081900935000004000000
B0528293207476S11654764EA0081600932000004000000
B0528333207454S11654698EA0081400927000004000000
B0528373207407S11654655EA0080500921000004000000
B0528413207349S11654655EA0079700914000004000000
B0528453207297S11654690EA0079200906000004000000
B0528493207245S11654737EA0078400900000004000000
B0528533207186S11654765EA0078700906000004000000
B0528573207128S11654777EA0078800904000004000000
B0529013207064S11654776EA0078700902000004000000
B0529053207009S11654800EA0079200910000004000000
B0529093207024S11654859EA0079700910000004000000
B0529133207086S11654850EA0079300908000004000000
B0529173207116S11654787EA0079500908000004000000
B0529213207089S11654726EA0079400909000004000000
B0529253207037S11654695EA0079500913000004000000
B0529293206978S11654676EA0079800914000004000000
B0529333206917S11654667EA0079500911000004000000
B0529373206855S11654672EA0079200907000004000000
B0529413206790S11654669EA0078900905000004000000
B0529453206726S11654660EA0079200911000004000000
B0529493206663S11654665EA0079200906000004000000
B0529533206598S11654661EA0079200910000004000000
B0529573206539S11654650EA0080100921000004000000
B0530013206507S11654694EA0080800925000004000000
B0530053206553S11654720EA0081200926000004000000
B0530093206601S11654677EA0080700922000004000000
B0530133206604S11654605EA0081100927000004000000
B0530173206566S11654557EA0081300929000004000000
B0530213206533S11654594EA0081900938000004000000
B0530253206565S11654639EA0082300941000004000000
B0530293206619S11654616EA0082700945000004000000
B0530333206630S11654546EA0083200950000004000000
B0530373206585S11654504EA0083400949000004000000
B0530413206541S11654533EA0083600955000004000000
B0530453206552S11654590EA0084300961000004000000
B0530493206608S11654599EA0084500961000004000000
B0530533206657S11654551EA0085000969000004000000
B0530573206667S11654479EA0085900976000004000000
B0531013206636S11654420EA0085500970000004000000
B0531053206582S11654417EA0085300969000004000000
B0531093206561S11654470EA0085600974000004000000
B0531133206597S11654514EA0086100980000004000000
B0531173206656S11654495EA0086800986000004000000
B0531213206663S11654423EA0087500990000004000000
B0531253206615S11654392EA0087000984000004000000
B0531293206579S11654438EA0086600984000004000000
B0531333206600S11654498EA0087700995000004000000
B0531373206658S11654501EA0088301003000004000000
B0531413206686S11654443EA0089301011000004000000
B0531453206658S11654384EA0089401008000004000000
B0531493206604S11654378EA0088701005000004000000
B0531533206582S11654431EA0089501014000004000000
B0531573206619S11654472EA0090201023000004000000
B0532013206673S11654449EA0090901026000004000000
B0532053206687S11654386EA0091501031000004000000
B0532093206647S11654344EA0091401028000004000000
B0532133206600S11654371EA0091101029000004000000
B0532173206598S11654430EA0091801036000004000000
B0532213206637S11654469EA0091301026000004000000
B0532253206693S11654451EA0090401018000004000000
B0532293206726S11654387EA0090201019000004000000
B0532333206728S11654312EA0090201018000004000000
B0532373206683S11654271EA0089801011000004000000
B0532413206626S11654288EA0089101005000004000000
B0532453206576S11654332EA0088400999000004000000
B0532493206532S11654388EA0087800992000004000000
B0532533206488S11654447EA0087000990000004000000
B0532573206449S11654509EA0087300991000004000000
B0533013206414S11654573EA0086800988000004000000
B0533053206380S11654637EA0086800986000004000000
B0533093206345S11654702EA0086500984000004000000
B0533133206306S11654764EA0086100978000004000000
B0533173206270S11654829EA0085800979000004000000
B0533213206233S11654890EA0086200983000004000000
B0533253206236S11654955EA0087400997000004000000
B0533293206297S11654955EA0088601002000004000000
B0533333206322S11654889EA0088701006000004000000
B0533373206285S11654839EA0088701004000004000000
B0533413206238S11654852EA0088701004000004000000
B0533453206236S11654911EA0088601002000004000000
B0533493206284S11654951EA0088100994000004000000
B0533533206349S11654936EA0087600993000004000000
B0533573206388S11654872EA0087700993000004000000
B0534013206381S11654794EA0087400990000004000000
B0534053206337S11654739EA0087100988000004000000
B0534093206279S11654733EA0087000988000004000000
B0534133206228S11654767EA0087000990000004000000
B0534173206182S11654812EA0087000988000004000000
B0534213206141S11654865EA0086400980000004000000
B0534253206099S11654921EA0085900974000004000000
B0534293206059S11654981EA0085300970000004000000
B0534333206017S11655040EA0085000966000004000000
B0534373205977S11655102EA0084600966000004000000
B0534413205934S11655161EA0084900966000004000000
B0534453205894S11655216EA0085200972000004000000
B0534493205855S11655271EA0084800964000004000000
B0534533205816S11655328EA0084600964000004000000
B0534573205776S11655380EA0084900968000004000000
B0535013205737S11655431EA0085700976000004000000
B0535053205744S11655491EA0086300977000004000000
B0535093205807S11655489EA0086100979000004000000
B0535133205841S11655427EA0086300978000004000000
B0535173205825S11655358EA0086000976000004000000
B0535213205779S11655318EA0085900978000004000000
B0535253205726S11655309EA0085700974000004000000
B0535293205678S11655332EA0085400972000004000000
B0535333205638S11655372EA0085300969000004000000
B0535373205604S11655421EA0084600962000004000000
B0535413205574S11655474EA0084500962000004000000
B0535453205547S11655523EA0084800968000004000000
B0535493205523S11655567EA0085500972000004000000
B0535533205505S11655613EA0085200966000004000000
B0535573205483S11655657EA0084800964000004000000
B0536013205460S11655703EA0084700961000004000000
B0536053205438S11655746EA0084300961000004000000
B0536093205410S11655787EA0084200956000004000000
B0536133205380S11655830EA0083000944000004000000
B0536173205352S11655878EA0082000935000004000000
B0536213205326S11655929EA0081300929000004000000
B0536253205308S11655985EA0080600922000004000000
B0536293205292S11656047EA0079700910000004000000
B0536333205279S11656108EA0079100904000004000000
B0536373205272S11656171EA0078100895000004000000
B0536413205276S11656236EA0077400887000004000000
B0536453205288S11656301EA0076800885000004000000
B0536493205306S11656360EA0076300880000004000000
B0536533205330S11656419EA0075800874000004000000
B0536573205354S11656476EA0075600874000004000000
B0537013205379S11656531EA0075600872000004000000
B0537053205406S11656585EA0075400868000004000000
B0537093205431S11656640EA0075000865000004000000
B0537133205453S11656696EA0074700864000004000000
B0537173205475S11656749EA0074300857000004000000
B0537213205500S11656804EA0073600850000004000000
B0537253205529S11656857EA0073100849000004000000
B0537293205557S11656909EA0073400851000004000000
B0537333205592S11656956EA0073100849000004000000
B0537373205627S11657003EA0072600841000004000000
B0537413205661S11657053EA0072400841000004000000
B0537453205692S11657105EA0072300842000004000000
B0537493205704S11657161EA0072500841000004000000
B0537533205688S11657212EA0072200836000004000000
B0537573205662S11657259EA0071300828000004000000
B0538013205652S11657315EA0070700824000004000000
B0538053205662S11657371EA0070600822000004000000
B0538093205683S11657425EA0070200820000004000000
B0538133205709S11657475EA0070000817000004000000
B0538173205744S11657520EA0069700812000004000000
B0538213205787S11657559EA0069000807000004000000
B0538253205834S11657594EA0068600803000004000000
B0538293205881S11657624EA0068400802000004000000
B0538333205929S11657655EA0068100798000004000000
B0538373205977S11657688EA0067500792000004000000
B0538413206021S11657725EA0067500792000004000000
B0538453206047S11657776EA0067700794000004000000
B0538493206047S11657835EA0067200787000004000000
B0538533206025S11657885EA0066700783000004000000
B0538573205989S11657930EA0066200774000004000000
B0539013205956S11657978EA0065400769000004000000
B0539053205951S11658035EA0065100768000004000000
B0539093205971S11658086EA0064800761000004000000
B0539133206011S11658125EA0064100756000004000000
B0539173206059S11658154EA0063800753000004000000
B0539213206108S11658180EA0063600752000004000000
B0539253206156S11658210EA0063400750000004000000
B0539293206203S11658243EA0063200748000004000000
B0539333206253S11658275EA0063000746000004000000
B0539373206307S11658273EA0063000743000004000000
B0539413206333S11658210EA0062200734000004000000
B0539453206299S11658145EA0060900721000004000000
B0539493206244S11658136EA0060800724000004000000
B0539533206206S11658174EA0060900723000004000000
B0539573206176S11658223EA0060600719000004000000
B0540013206137S11658260EA0060300718000004000000
B0540053206089S11658279EA0060100717000004000000
B0540093206037S11658290EA0060500721000004000000
B0540133205984S11658303EA0060700721000004000000
B0540173205929S11658314EA0060600721000004000000
B0540213205886S11658349EA0060700722000004000000
B0540253205895S11658403EA0060700721000004000000
B0540293205950S11658398EA0059600705000004000000
B0540333205969S11658333EA0058800703000004000000
B0540373205937S11658282EA0058800704000004000000
B0540413205885S11658268EA0058500699000004000000
B0540453205833S11658266EA0058100695000004000000
B0540493205781S11658274EA0057600691000004000000
B0540533205727S11658283EA0057200684000004000000
B0540573205670S11658291EA0056700680000004000000
B0541013205614S11658296EA0056300679000004000000
B0541053205560S11658299EA0056300678000004000000
B0541093205508S11658314EA0056000675000004000000
B0541133205458S11658338EA0056000675000004000000
B0541173205415S11658374EA0056000676000004000000
B0541213205395S11658429EA0055900673000004000000
B0541253205389S11658492EA0055600671000004000000
B0541293205413S11658550EA0056200679000004000000
B0541333205469S11658543EA0057300690000004000000
B0541373205482S11658473EA0057300684000004000000
B0541413205435S11658438EA0057100688000004000000
B0541453205408S11658472EA0058200698000004000000
B0541493205432S11658517EA0058500700000004000000
B0541533205487S11658507EA0058900706000004000000
B0541573205504S11658442EA0059400708000004000000
B0542013205469S11658390EA0059000706000004000000
B0542053205418S11658391EA0059000703000004000000
B0542093205401S11658444EA0058900705000004000000
B0542133205432S11658495EA0059500713000004000000
B0542173205484S11658473EA0060400720000004000000
B0542213205478S11658408EA0060800723000004000000
B0542253205431S11658400EA0061200729000004000000
B0542293205415S11658444EA0062200740000004000000
B0542333205453S11658474EA0062900743000004000000
B0542373205500S11658439EA0063200747000004000000
B0542413205493S11658373EA0063500752000004000000
B0542453205448S11658356EA0064000757000004000000
B0542493205432S11658399EA0064600764000004000000
B0542533205471S11658426EA0065200765000004000000
B0542573205517S11658382EA0065000770000004000000
B0543013205506S11658320EA0066000777000004000000
B0543053205460S11658299EA0066300781000004000000
B0543093205430S11658330EA0066800786000004000000
B0543133205441S11658379EA0067600794000004000000
B0543173205492S11658387EA0067900794000004000000
B0543213205521S11658327EA0068000798000004000000
B0543253205488S11658275EA0068500802000004000000
B0543293205444S11658295EA0068800807000004000000
B0543333205439S11658349EA0069300813000004000000
B0543373205471S11658395EA0069700814000004000000
B0543413205523S11658379EA0070100819000004000000
B0543453205544S11658313EA0070200818000004000000
B0543493205514S11658252EA0070400823000004000000
B0543533205465S11658252EA0071200831000004000000
B0543573205452S11658299EA0072200842000004000000
B0544013205490S11658329EA0072600842000004000000
B0544053205534S11658290EA0072400840000004000000
B0544093205517S11658225EA0072500844000004000000
B0544133205467S11658214EA0073200850000004000000
B0544173205447S11658260EA0073800859000004000000
B0544213205473S11658304EA0074300859000004000000
B0544253205525S11658296EA0074300861000004000000
B0544293205552S11658238EA0074700866000004000000
B0544333205536S11658174EA0075000869000004000000
B0544373205492S11658143EA0075300872000004000000
B0544413205469S11658183EA0075400873000004000000
B0544453205509S11658212EA0075800876000004000000
B0544493205557S11658169EA0075900878000004000000
B0544533205553S11658099EA0076700886000004000000
B0544573205506S11658067EA0077300892000004000000
B0545013205471S11658097EA0077800897000004000000
B0545053205484S11658144EA0078400901000004000000
B0545093205534S11658151EA0078300901000004000000
B0545133205574S11658101EA0078700909000004000000
B0545173205561S11658036EA0079500913000004000000
B0545213205514S11658019EA0079800917000004000000
B0545253205493S11658061EA0080100919000004000000
B0545293205530S11658097EA0080300921000004000000
B0545333205581S11658074EA0081000929000004000000
B0545373205596S11658009EA0081700935000004000000
B0545413205564S11657957EA0081900938000004000000
B0545453205518S11657959EA0082200942000004000000
B0545493205504S11658005EA0082500942000004000000
B0545533205534S11658050EA0082100939000004000000
B0545573205590S11658061EA0082700946000004000000
B0546013205635S11658018EA0083200949000004000000
B0546053205620S11657952EA0083200948000004000000
B0546093205570S11657937EA0083900957000004000000
B0546133205551S11657982EA0084800964000004000000
B0546173205584S11658018EA0085400971000004000000
B0546213205636S11657993EA0085600974000004000000
B0546253205643S11657927EA0085700972000004000000
B0546293205599S11657885EA0085400974000004000000
B0546333205551S11657891EA0085900980000004000000
B0546373205527S11657933EA0086500982000004000000
B0546413205540S11657983EA0086400981000004000000
B0546453205587S11658008EA0086400981000004000000
B0546493205646S11657992EA0086600984000004000000
B0546533205673S11657932EA0087000987000004000000
B0546573205636S11657884EA0087000985000004000000
B0547013205588S11657905EA0086600985000004000000
B0547053205587S11657959EA0087600996000004000000
B0547093205631S11657987EA0088300998000004000000
B0547133205687S11657962EA0088200998000004000000
B0547173205704S11657897EA0088401002000004000000
B0547213205666S11657855EA0088401001000004000000
B0547253205620S11657871EA0088300999000004000000
B0547293205601S11657924EA0088100998000004000000
B0547333205595S11657988EA0087300991000004000000
B0547373205591S11658054EA0087100989000004000000
B0547413205587S11658125EA0087200990000004000000
B0547453205587S11658196EA0087400995000004000000
B0547493205587S11658265EA0088100997000004000000
B0547533205587S11658335EA0087900994000004000000
B0547573205587S11658407EA0087900997000004000000
B0548013205582S11658474EA0088201000000004000000
B0548053205577S11658539EA0088100998000004000000
B0548093205586S11658607EA0087600993000004000000
B0548133205625S11658665EA0087100987000004000000
B0548173205678S11658711EA0086400980000004000000
B0548213205737S11658745EA0086100978000004000000
B0548253205796S11658773EA0085900976000004000000
B0548293205857S11658802EA0085700970000004000000
B0548333205919S11658833EA0085100967000004000000
B0548373205980S11658863EA0084800963000004000000
B0548413206038S11658895EA0084400960000004000000
B0548453206095S11658927EA0084500961000004000000
B0548493206151S11658954EA0084500961000004000000
B0548533206208S11658981EA0084500961000004000000
B0548573206264S11659005EA0084800966000004000000
B0549013206319S11659023EA0085200968000004000000
B0549053206374S11659002EA0085400968000004000000
B0549093206393S11658933EA0085000966000004000000
B0549133206359S11658873EA0084800964000004000000
B0549173206306S11658867EA0085000964000004000000
B0549213206258S11658888EA0084400959000004000000
B0549253206229S11658936EA0084300958000004000000
B0549293206251S11658989EA0084000956000004000000
B0549333206299S11659024EA0084200959000004000000
B0549373206354S11659050EA0084000952000004000000
B0549413206414S11659070EA0083000944000004000000
B0549453206476S11659088EA0082300939000004000000
B0549493206540S11659106EA0082100937000004000000
B0549533206602S11659127EA0081300928000004000000
B0549573206667S11659144EA0081000927000004000000
B0550013206728S11659157EA0082000939000004000000
B0550053206784S11659170EA0083000945000004000000
B0550093206835S11659144EA0083200947000004000000
B0550133206829S11659077EA0083200947000004000000
B0550173206778S11659059EA0083000944000004000000
B0550213206748S11659103EA0083400950000004000000
B0550253206756S11659159EA0083900953000004000000
B0550293206790S11659204EA0083800952000004000000
B0550333206839S11659231EA0084000957000004000000
B0550373206890S11659194EA0084600960000004000000
B0550413206871S11659129EA0084400959000004000000
B0550453206821S11659131EA0084800963000004000000
B0550493206805S11659184EA0085000966000004000000
B0550533206840S11659224EA0085800974000004000000
B0550573206892S11659197EA0086200977000004000000
B0551013206901S11659129EA0086600982000004000000
B0551053206858S11659092EA0087100986000004000000
B0551093206818S11659119EA0087200988000004000000
B0551133206819S11659171EA0088000998000004000000
B0551173206860S11659202EA0088601001000004000000
B0551213206913S11659180EA0088600997000004000000
B0551253206939S11659107EA0088100996000004000000
B0551293206905S11659049EA0088701004000004000000
B0551333206868S11659079EA0089701012000004000000
B0551373206886S11659129EA0090401020000004000000
B0551413206940S11659140EA0090801024000004000000
B0551453206992S11659105EA0091201033000004000000
B0551493207003S11659037EA0091801034000004000000
B0551533206962S11658994EA0091901036000004000000
B0551573206922S11659018EA0092401041000004000000
B0552013206926S11659071EA0093101049000004000000
B0552053206968S11659101EA0094001058000004000000
B0552093207018S11659075EA0094401059000004000000
B0552133207029S11659002EA0094201061000004000000
B0552173206985S11658967EA0095001066000004000000
B0552213206949S11658998EA0095501073000004000000
B0552253206959S11659050EA0096001077000004000000
B0552293207005S11659072EA0096601081000004000000
B0552333207056S11659041EA0096601080000004000000
B0552373207079S11658972EA0096101077000004000000
B0552413207065S11658897EA0096201079000004000000
B0552453207017S11658869EA0096601084000004000000
B0552493206986S11658910EA0097001087000004000000
B0552533207009S11658960EA0097801095000004000000
B0552573207064S11658958EA0098401102000004000000
B0553013207100S11658901EA0098701103000004000000
B0553053207103S11658823EA0098401100000004000000
B0553093207063S11658767EA0098301099000004000000
B0553133207011S11658769EA0098701106000004000000
B0553173206988S11658815EA0099201107000004000000
B0553213207007S11658871EA0099001106000004000000
B0553253207050S11658916EA0099201110000004000000
B0553293207100S11658954EA0098701101000004000000
B0553333207159S11658990EA0097901096000004000000
B0553373207219S11659025EA0097701093000004000000
B0553413207281S11659057EA0097201085000004000000
B0553453207345S11659088EA0096101074000004000000
B0553493207407S11659119EA0096001078000004000000
B0553533207463S11659152EA0096701084000004000000
B0553573207520S11659181EA0097101089000004000000
B0554013207573S11659213EA0097901097000004000000
B0554053207624S11659245EA0098101096000004000000
B0554093207662S11659291EA0098101098000004000000
B0554133207666S11659345EA0098501103000004000000
B0554173207636S11659382EA0098401098000004000000
B0554213207588S11659376EA0098301099000004000000
B0554253207554S11659324EA0097901094000004000000
B0554293207560S11659253EA0097801092000004000000
B0554333207602S11659197EA0097301084000004000000
B0554373207666S11659166EA0096401078000004000000
B0554413207735S11659148EA0096101075000004000000
B0554453207802S11659135EA0096301078000004000000
B0554493207869S11659124EA0096401079000004000000
B0554533207926S11659141EA0096601082000004000000
B0554573207960S11659187EA0096701080000004000000
B0555013207961S11659241EA0096301076000004000000
B0555053207927S11659284EA0095501062000004000000
B0555093207875S11659315EA0094001052000004000000
B0555133207820S11659345EA0093301045000004000000
B0555173207766S11659373EA0092701043000004000000
B0555213207716S11659399EA0092901039000004000000
B0555253207666S11659426EA0092001031000004000000
B0555293207614S11659456EA0091401026000004000000
B0555333207563S11659488EA0090901022000004000000
B0555373207514S11659522EA0090301017000004000000
B0555413207462S11659553EA0090001015000004000000
B0555453207410S11659584EA0089801014000004000000
B0555493207355S11659616EA0089601010000004000000
B0555533207302S11659651EA0089301009000004000000
B0555573207248S11659686EA0089301012000004000000
B0556013207196S11659720EA0089801016000004000000
B0556053207144S11659752EA0089701015000004000000
B0556093207092S11659782EA0090101020000004000000
B0556133207043S11659812EA0090401023000004000000
B0556173206994S11659847EA0090401023000004000000
B0556213206942S11659877EA0090501025000004000000
B0556253206894S11659913EA0091001031000004000000
B0556293206896S11659971EA0091601035000004000000
B0556333206951S11659987EA0091501033000004000000
B0556373206995S11659932EA0092001037000004000000
B0556413206987S11659856EA0092101038000004000000
B0556453206939S11659817EA0092501043000004000000
B0556493206897S11659846EA0092801047000004000000
B0556533206905S11659900EA0092901046000004000000
B0556573206955S11659919EA0092901044000004000000
B0557013207003S11659880EA0092101035000004000000
B0557053207009S11659811EA0092401044000004000000
B0557093206983S11659751EA0092901047000004000000
B0557133206933S11659746EA0092901047000004000000
B0557173206923S11659799EA0093001047000004000000
B0557213206968S11659830EA0093101047000004000000
B0557253207020S11659811EA0093401051000004000000
B0557293207047S11659757EA0093801058000004000000
B0557333207050S11659691EA0093801056000004000000
B0557373207031S11659626EA0093801056000004000000
B0557413206983S11659588EA0093701054000004000000
B0557453206934S11659601EA0093701057000004000000
B0557493206913S11659653EA0094201060000004000000
B0557533206927S11659705EA0094201058000004000000
B0557573206968S11659739EA0093901055000004000000
B0558013207020S11659763EA0093501052000004000000
B0558053207074S11659779EA0093801054000004000000
B0558093207130S11659789EA0093601054000004000000
B0558133207187S11659785EA0093901057000004000000
B0558173207228S11659734EA0094101061000004000000
B0558213207208S11659670EA0094401059000004000000
B0558253207155S11659661EA0094501062000004000000
B0558293207124S11659703EA0094701064000004000000
B0558333207137S11659761EA0094901068000004000000
B0558373207182S11659799EA0095301072000004000000
B0558413207238S11659776EA0095001068000004000000
B0558453207259S11659705EA0094501063000004000000
B0558493207241S11659630EA0093901058000004000000
B0558533207207S11659557EA0093701059000004000000
B0558573207173S11659486EA0093901061000004000000
B0559013207134S11659421EA0094701069000004000000
B0559053207079S11659415EA0095501074000004000000
B0559093207073S11659473EA0095801073000004000000
B0559133207122S11659495EA0095901077000004000000
B0559173207167S11659452EA0096301080000004000000
B0559213207170S11659379EA0096201079000004000000
B0559253207130S11659324EA0096601085000004000000
B0559293207081S11659335EA0097001087000004000000
B0559333207076S11659387EA0096501078000004000000
B0559373207122S11659419EA0096301082000004000000
B0559413207182S11659415EA0096901089000004000000
B0559453207225S11659366EA0097701094000004000000
B0559493207221S11659295EA0098101096000004000000
B0559533207176S11659253EA0098701103000004000000
B0559573207128S11659265EA0099001104000004000000
B0600013207108S11659314EA0099201108000004000000
B0600053207129S11659362EA0099501110000004000000
B0600093207180S11659375EA0099901115000004000000
B0600133207224S11659332EA0100301121000004000000
B0600173207226S11659263EA0100701124000004000000
B0600213207186S11659214EA0101001125000004000000
B0600253207135S11659218EA0101201130000004000000
B0600293207116S11659265EA0102001137000004000000
B0600333207143S11659309EA0102001136000004000000
B0600373207196S11659319EA0102201142000004000000
B0600413207245S11659282EA0102601141000004000000
B0600453207254S11659209EA0102401140000004000000
B0600493207213S11659150EA0102301142000004000000
B0600533207161S11659152EA0103401155000004000000
B0600573207147S11659200EA0104101156000004000000
B0601013207180S11659241EA0104001160000004000000
B0601053207235S11659232EA0104501163000004000000
B0601093207278S11659176EA0104601162000004000000
B0601133207276S11659098EA0104701166000004000000
B0601173207228S11659055EA0104901168000004000000
B0601213207180S11659079EA0105301175000004000000
B0601253207172S11659135EA0106101181000004000000
B0601293207212S11659172EA0106401186000004000000
B0601333207267S11659145EA0107101189000004000000
B0601373207289S11659071EA0106601186000004000000
B0601413207269S11658993EA0106901188000004000000
B0601453207219S11658947EA0107201193000004000000
B0601493207165S11658959EA0107601197000004000000
B0601533207144S11659007EA0108301203000004000000
B0601573207160S11659057EA0107901195000004000000
B0602013207211S11659080EA0107401192000004000000
B0602053207272S11659070EA0107301191000004000000
B0602093207329S11659033EA0107401193000004000000
B0602133207354S11658963EA0107801195000004000000
B0602173207315S11658907EA0107601194000004000000
B0602213207263S11658918EA0107701196000004000000
B0602253207245S11658970EA0108401203000004000000
B0602293207267S11659019EA0109201209000004000000
B0602333207321S11659031EA0109201209000004000000
B0602373207376S11658989EA0109101205000004000000
B0602413207402S11658914EA0108801205000004000000
B0602453207385S11658838EA0109101209000004000000
B0602493207338S11658794EA0109401211000004000000
B0602533207285S11658798EA0109301210000004000000
B0602573207245S11658838EA0108801206000004000000
B0603013207211S11658894EA0108501205000004000000
B0603053207181S11658947EA0109301214000004000000
B0603093207168S11659005EA0109901218000004000000
B0603133207169S11659067EA0110201222000004000000
B0603173207204S11659114EA0110701228000004000000
B0603213207260S11659103EA0110901224000004000000
B0603253207284S11659040EA0110601223000004000000
B0603293207250S11658981EA0110601227000004000000
B0603333207199S11658968EA0111301234000004000000
B0603373207159S11658997EA0111701239000004000000
B0603413207148S11659049EA0112101241000004000000
B0603453207183S11659089EA0111501232000004000000
B0603493207243S11659079EA0110801226000004000000
B0603533207289S11659024EA0110601222000004000000
B0603573207326S11658955EA0110401221000004000000
B0604013207358S11658880EA0110401223000004000000
B0604053207386S11658802EA0110701226000004000000
B0604093207407S11658721EA0110601223000004000000
B0604133207404S11658634EA0110301223000004000000
B0604173207365S11658564EA0110601227000004000000
B0604213207306S11658531EA0110701225000004000000
B0604253207239S11658525EA0110101217000004000000
B0604293207172S11658529EA0108901205000004000000
B0604333207102S11658533EA0107601195000004000000
B0604373207031S11658534EA0106901189000004000000
B0604413206962S11658538EA0106401184000004000000
B0604453206894S11658548EA0105701178000004000000
B0604493206827S11658559EA0105401176000004000000
B0604533206762S11658567EA0105301172000004000000
B0604573206696S11658570EA0104801167000004000000
B0605013206631S11658569EA0104501164000004000000
B0605053206565S11658569EA0104201162000004000000
B0605093206500S11658570EA0103701157000004000000
B0605133206433S11658570EA0103101151000004000000
B0605173206366S11658569EA0102901150000004000000
B0605213206298S11658565EA0103101152000004000000
B0605253206233S11658560EA0103201152000004000000
B0605293206169S11658555EA0103001149000004000000
B0605333206106S11658550EA0102701145000004000000
B0605373206038S11658548EA0101801136000004000000
B0605413205972S11658554EA0101401138000004000000
B0605453205909S11658560EA0102001143000004000000
B0605493205848S11658568EA0102201143000004000000
B0605533205789S11658576EA0102401144000004000000
B0605573205729S11658581EA0102001137000004000000
B0606013205666S11658587EA0100601127000004000000
B0606053205604S11658595EA0100501127000004000000
B0606093205544S11658600EA0100601124000004000000
B0606133205482S11658604EA0099701115000004000000
B0606173205418S11658608EA0099201111000004000000
B0606213205356S11658613EA0098901108000004000000
B0606253205295S11658619EA0098401102000004000000
B0606293205232S11658628EA0097601096000004000000
B0606333205167S11658635EA0097601097000004000000
B0606373205103S11658638EA0098001103000004000000
B0606413205041S11658637EA0098301105000004000000
B0606453204981S11658637EA0099001114000004000000
B0606493204923S11658638EA0099601116000004000000
B0606533204866S11658648EA0099901118000004000000
B0606573204820S11658686EA0100101121000004000000
B0607013204806S11658742EA0100701127000004000000
B0607053204853S11658771EA0101101131000004000000
B0607093204899S11658723EA0101801139000004000000
B0607133204890S11658656EA0102101145000004000000
B0607173204843S11658629EA0102501147000004000000
B0607213204806S11658655EA0103001152000004000000
B0607253204811S11658702EA0103201154000004000000
B0607293204859S11658719EA0103501155000004000000
B0607333204905S11658678EA0103501157000004000000
B0607373204902S11658609EA0103901161000004000000
B0607413204855S11658581EA0104501165000004000000
B0607453204819S11658611EA0104501164000004000000
B0607493204823S11658667EA0103901159000004000000
B0607533204875S11658694EA0103901158000004000000
B0607573204933S11658659EA0104001164000004000000
B0608013204959S11658589EA0104701170000004000000
B0608053204945S11658516EA0105301173000004000000
B0608093204898S11658470EA0105301172000004000000
B0608133204845S11658476EA0105301175000004000000
B0608173204828S11658524EA0105901178000004000000
B0608213204858S11658565EA0106201183000004000000
B0608253204912S11658560EA0106501184000004000000
B0608293204957S11658509EA0106701185000004000000
B0608333204984S11658444EA0106701186000004000000
B0608373204971S11658375EA0106801187000004000000
B0608413204920S11658349EA0106901183000004000000
B0608453204881S11658383EA0106201180000004000000
B0608493204895S11658437EA0106701185000004000000
B0608533204949S11658453EA0106701186000004000000
B0608573205005S11658418EA0106701185000004000000
B0609013205024S11658347EA0106701186000004000000
B0609053204986S11658286EA0106701184000004000000
B0609093204931S11658277EA0106701184000004000000
B0609133204892S11658314EA0106501181000004000000
B0609173204871S11658372EA0106001179000004000000
B0609213204856S11658435EA0105701173000004000000
B0609253204842S11658503EA0104501162000004000000
B0609293204824S11658572EA0103601154000004000000
B0609333204806S11658638EA0103501154000004000000
B0609373204789S11658704EA0103701155000004000000
B0609413204773S11658767EA0103501150000004000000
B0609453204758S11658829EA0102901145000004000000
B0609493204739S11658894EA0102401140000004000000
B0609533204719S11658957EA0102201142000004000000
B0609573204693S11659012EA0102501144000004000000
B0610013204659S11659063EA0102801147000004000000
B0610053204615S11659101EA0103101151000004000000
B0610093204565S11659129EA0103601154000004000000
B0610133204512S11659152EA0102801143000004000000
B0610173204455S11659174EA0102101135000004000000
B0610213204398S11659198EA0101601132000004000000
B0610253204343S11659223EA0101301130000004000000
B0610293204288S11659252EA0101001126000004000000
B0610333204235S11659288EA0100601123000004000000
B0610373204186S11659323EA0100901126000004000000
B0610413204139S11659357EA0100701123000004000000
B0610453204091S11659384EA0100601122000004000000
B0610493204037S11659405EA0100001114000004000000
B0610533203983S11659427EA0099701113000004000000
B0610573203931S11659452EA0100001116000004000000
B0611013203878S11659477EA0100001114000004000000
B0611053203829S11659509EA0100701122000004000000
B0611093203840S11659557EA0102001134000004000000
B0611133203893S11659549EA0102201134000004000000
B0611173203919S11659483EA0102501138000004000000
B0611213203891S11659425EA0102801140000004000000
B0611253203844S11659414EA0103201143000004000000
B0611293203810S11659447EA0103101143000004000000
B0611333203792S11659500EA0102801142000004000000
B0611373203781S11659558EA0102901146000004000000
B0611413203815S11659599EA0104001156000004000000
B0611453203867S11659565EA0104301158000004000000
B0611493203867S11659496EA0105201169000004000000
B0611533203824S11659465EA0105701172000004000000
B0611573203788S11659492EA0105801172000004000000
B0612013203802S11659544EA0106001178000004000000
B0612053203853S11659561EA0107001186000004000000
B0612093203906S11659531EA0107301189000004000000
B0612133203933S11659469EA0107701196000004000000
B0612173203926S11659405EA0108301201000004000000
B0612213203888S11659361EA0108401201000004000000
B0612253203839S11659353EA0108701204000004000000
B0612293203800S11659383EA0108801207000004000000
B0612333203794S11659435EA0109301211000004000000
B0612373203835S11659462EA0110101219000004000000
B0612413203883S11659427EA0110001217000004000000
B0612453203878S11659358EA0110101221000004000000
B0612493203829S11659339EA0110401220000004000000
B0612533203793S11659378EA0110101219000004000000
B0612573203805S11659434EA0110601225000004000000
B0613013203854S11659452EA0111501234000004000000
B0613053203902S11659410EA0112201240000004000000
B0613093203907S11659340EA0112301241000004000000
B0613133203866S11659296EA0112701243000004000000
B0613173203823S11659321EA0112401239000004000000
B0613213203823S11659376EA0112501245000004000000
B0613253203871S11659400EA0113001249000004000000
B0613293203924S11659362EA0113701256000004000000
B0613333203940S11659292EA0114101262000004000000
B0613373203913S11659235EA0114801267000004000000
B0613413203863S11659222EA0114701264000004000000
B0613453203823S11659253EA0114701264000004000000
B0613493203807S11659306EA0114801265000004000000
B0613533203813S11659366EA0114401260000004000000
B0613573203829S11659427EA0114301265000004000000
B0614013203865S11659474EA0115401272000004000000
B0614053203922S11659467EA0115901276000004000000
B0614093203950S11659406EA0116201276000004000000
B0614133203919S11659347EA0115901274000004000000
B0614173203865S11659323EA0116001279000004000000
B0614213203823S11659347EA0116801288000004000000
B0614253203841S11659393EA0117001287000004000000
B0614293203900S11659392EA0116501285000004000000
B0614333203933S11659327EA0117001290000004000000
B0614373203909S11659262EA0117501294000004000000
B0614413203855S11659243EA0117501293000004000000
B0614453203818S11659279EA0117601295000004000000
B0614493203819S11659336EA0117801295000004000000
B0614533203863S11659374EA0117701296000004000000
B0614573203926S11659376EA0118201301000004000000
B0615013203980S11659340EA0118501300000004000000
B0615053204011S11659270EA0118101299000004000000
B0615093204000S11659197EA0119101312000004000000
B0615133203953S11659163EA0119801317000004000000
B0615173203907S11659181EA0119801314000004000000
B0615213203896S11659239EA0119801315000004000000
B0615253203928S11659289EA0119901317000004000000
B0615293203987S11659308EA0119901318000004000000
B0615333204048S11659291EA0119901315000004000000
B0615373204096S11659237EA0119201309000004000000
B0615413204110S11659161EA0118601303000004000000
B0615453204079S11659089EA0118101298000004000000
B0615493204024S11659055EA0118801301000004000000
B0615533203972S11659068EA0118701302000004000000
B0615573203937S11659114EA0118501303000004000000
B0616013203913S11659168EA0118701306000004000000
B0616053203892S11659224EA0119001307000004000000
B0616093203875S11659284EA0118801303000004000000
B0616133203858S11659349EA0117701291000004000000
B0616173203836S11659418EA0116601280000004000000
B0616213203813S11659487EA0116301282000004000000
B0616253203788S11659551EA0116801285000004000000
B0616293203762S11659610EA0116801286000004000000
B0616333203736S11659666EA0116901288000004000000
B0616373203711S11659721EA0117001284000004000000
B0616413203685S11659776EA0116501280000004000000
B0616453203662S11659831EA0116301278000004000000
B0616493203641S11659886EA0116201277000004000000
B0616533203621S11659941EA0116101276000004000000
B0616573203605S11659994EA0115801273000004000000
B0617013203588S11700047EA0115401268000004000000
B0617053203571S11700099EA0114801261000004000000
B0617093203551S11700154EA0113901247000004000000
B0617133203527S11700212EA0112401235000004000000
B0617173203494S11700270EA0111501226000004000000
B0617213203462S11700325EA0111001224000004000000
B0617253203433S11700384EA0111001224000004000000
B0617293203403S11700444EA0110201213000004000000
B0617333203374S11700510EA0109601211000004000000
B0617373203347S11700578EA0109901217000004000000
B0617413203320S11700643EA0110501223000004000000
B0617453203291S11700700EA0111201227000004000000
B0617493203260S11700752EA0110501212000004000000
B0617533203229S11700808EA0108601198000004000000
B0617573203199S11700869EA0107401184000004000000
B0618013203166S11700934EA0106201177000004000000
B0618053203133S11700996EA0106301173000004000000
B0618093203112S11701068EA0106301176000004000000
B0618133203105S11701141EA0107101186000004000000
B0618173203131S11701200EA0108101194000004000000
B0618213203194S11701206EA0108201196000004000000
B0618253203235S11701150EA0107701188000004000000
B0618293203220S11701085EA0106901178000004000000
B0618333203166S11701069EA0106301175000004000000
B0618373203113S11701091EA0106201176000004000000
B0618413203065S11701128EA0105801172000004000000
B0618453203020S11701173EA0104801164000004000000
B0618493202978S11701222EA0104701168000004000000
B0618533202940S11701272EA0106501184000004000000
B0618573202949S11701329EA0107501196000004000000
B0619013203008S11701328EA0108301202000004000000
B0619053203018S11701259EA0109001207000004000000
B0619093202969S11701235EA0109401213000004000000
B0619133202944S11701280EA0110301222000004000000
B0619173202974S11701326EA0110501223000004000000
B0619213203034S11701313EA0110501224000004000000
B0619253203056S11701248EA0111301233000004000000
B0619293203018S11701206EA0111901239000004000000
B0619333202981S11701230EA0112901250000004000000
B0619373202995S11701281EA0113201251000004000000
B0619413203052S11701290EA0112901248000004000000
B0619453203082S11701230EA0113701260000004000000
B0619493203044S11701185EA0114401264000004000000
B0619533203008S11701212EA0115301274000004000000
B0619573203027S11701261EA0115501276000004000000
B0620013203086S11701248EA0115501276000004000000
B0620053203103S11701181EA0116701292000004000000
B0620093203065S11701141EA0117201295000004000000
B0620133203027S11701167EA0118001304000004000000
B0620173203046S11701216EA0118201301000004000000
B0620213203105S11701211EA0118101308000004000000
B0620253203129S11701147EA0119401319000004000000
B0620293203099S11701092EA0120001320000004000000
B0620333203049S11701091EA0120401328000004000000
B0620373203029S11701137EA0121001334000004000000
B0620413203057S11701183EA0120801329000004000000
B0620453203114S11701191EA0121301334000004000000
B0620493203164S11701147EA0121701341000004000000
B0620533203172S11701077EA0122301348000004000000
B0620573203137S11701027EA0122701352000004000000
B0621013203090S11701033EA0123501360000004000000
B0621053203077S11701083EA0123801364000004000000
B0621093203109S11701129EA0124101363000004000000
B0621133203169S11701133EA0124201368000004000000
B0621173203208S11701078EA0125101376000004000000
B0621213203189S11701013EA0125601379000004000000
B0621253203139S11700995EA0126201385000004000000
B0621293203100S11701026EA0126601389000004000000
B0621333203095S11701081EA0126601389000004000000
B0621373203127S11701122EA0126501388000004000000
B0621413203185S11701116EA0126301387000004000000
B0621453203231S11701063EA0126801393000004000000
B0621493203238S11700992EA0127501400000004000000
B0621533203204S11700942EA0128001405000004000000
B0621573203157S11700935EA0128701412000004000000
B0622013203126S11700968EA0128901412000004000000
B0622053203122S11701018EA0128701408000004000000
B0622093203151S11701061EA0128301405000004000000
B0622133203204S11701076EA0128101405000004000000
B0622173203260S11701055EA0128301407000004000000
B0622213203298S11700999EA0128401405000004000000
B0622253203306S11700923EA0128301406000004000000
B0622293203277S11700861EA0128501409000004000000
B0622333203228S11700830EA0129401416000004000000
B0622373203177S11700835EA0129601417000004000000
B0622413203143S11700874EA0129501416000004000000
B0622453203142S11700931EA0129101409000004000000
B0622493203183S11700970EA0128601407000004000000
B0622533203244S11700961EA0128401409000004000000
B0622573203289S11700905EA0128101402000004000000
B0623013203313S11700829EA0127101395000004000000
B0623053203325S11700744EA0127101393000004000000
B0623093203321S11700658EA0127501397000004000000
B0623133203300S11700576EA0128201402000004000000
B0623173203261S11700510EA0128501408000004000000
B0623213203208S11700488EA0129301419000004000000
B0623253203172S11700518EA0130201423000004000000
B0623293203176S11700571EA0130101421000004000000
B0623333203222S11700606EA0130001421000004000000
B0623373203286S11700587EA0129901421000004000000
B0623413203319S11700520EA0130101427000004000000
B0623453203303S11700450EA0130901432000004000000
B0623493203257S11700414EA0131201434000004000000
B0623533203213S11700422EA0131401438000004000000
B0623573203194S11700466EA0131401436000004000000
B0624013203215S11700515EA0131201433000004000000
B0624053203270S11700535EA0130801429000004000000
B0624093203341S11700532EA0130301422000004000000
B0624133203416S11700523EA0129801417000004000000
B0624173203488S11700500EA0130801429000004000000
B0624213203523S11700432EA0132201442000004000000
B0624253203494S11700375EA0133001445000004000000
B0624293203452S11700380EA0133001447000004000000
B0624333203443S11700428EA0133001449000004000000
B0624373203478S11700472EA0133001449000004000000
B0624413203541S11700481EA0133401453000004000000
B0624453203598S11700444EA0134101462000004000000
B0624493203627S11700374EA0134601462000004000000
B0624533203616S11700299EA0134201459000004000000
B0624573203572S11700254EA0133801453000004000000
B0625013203521S11700258EA0133201450000004000000
B0625053203494S11700302EA0133301453000004000000
B0625093203499S11700362EA0133101452000004000000
B0625133203520S11700426EA0133001451000004000000
B0625173203543S11700492EA0132401443000004000000
B0625213203564S11700567EA0131301431000004000000
B0625253203576S11700649EA0130201419000004000000
B0625293203575S11700734EA0129301412000004000000
B0625333203563S11700816EA0128401403000004000000
B0625373203546S11700895EA0127701397000004000000
B0625413203529S11700973EA0127501396000004000000
B0625453203510S11701047EA0127401394000004000000
B0625493203489S11701118EA0127401396000004000000
B0625533203471S11701187EA0128401407000004000000
B0625573203469S11701252EA0130301424000004000000
B0626013203510S11701295EA0130901429000004000000
B0626053203573S11701284EA0130601422000004000000
B0626093203621S11701216EA0129801414000004000000
B0626133203625S11701129EA0129301409000004000000
B0626173203588S11701059EA0129101407000004000000
B0626213203528S11701031EA0129601416000004000000
B0626253203472S11701042EA0130601429000004000000
B0626293203428S11701078EA0131401437000004000000
B0626333203411S11701133EA0131901443000004000000
B0626373203432S11701185EA0132801452000004000000
B0626413203485S11701208EA0133401457000004000000
B0626453203551S11701193EA0133201454000004000000
B0626493203612S11701150EA0133101450000004000000
B0626533203658S11701079EA0132701447000004000000
B0626573203664S11700992EA0132401443000004000000
B0627013203623S11700923EA0132201445000004000000
B0627053203563S11700896EA0132901452000004000000
B0627093203502S11700888EA0133501461000004000000
B0627133203449S11700901EA0134701469000004000000
B0627173203430S11700951EA0135301472000004000000
B0627213203472S11700983EA0135501477000004000000
B0627253203524S11700943EA0135901480000004000000
B0627293203520S11700866EA0135901478000004000000
B0627333203464S11700839EA0136201480000004000000
B0627373203426S11700878EA0136501486000004000000
B0627413203434S11700931EA0136901488000004000000
B0627453203488S11700951EA0136601486000004000000
B0627493203549S11700916EA0136501486000004000000
B0627533203594S11700848EA0136801488000004000000
B0627573203602S11700766EA0137301495000004000000
B0628013203567S11700706EA0138101502000004000000
B0628053203514S11700704EA0137901499000004000000
B0628093203475S11700745EA0137901499000004000000
B0628133203469S11700804EA0138001501000004000000
B0628173203508S11700847EA0137901498000004000000
B0628213203573S11700840EA0137901501000004000000
B0628253203629S11700795EA0138601510000004000000
B0628293203644S11700718EA0139301515000004000000
B0628333203607S11700663EA0139601518000004000000
B0628373203558S11700670EA0139801517000004000000
B0628413203546S11700723EA0139601518000004000000
B0628453203585S11700762EA0139701521000004000000
B0628493203647S11700757EA0140101524000004000000
B0628533203698S11700706EA0140201524000004000000
B0628573203701S11700624EA0140001520000004000000
B0629013203653S11700571EA0139301516000004000000
B0629053203593S11700574EA0139101515000004000000
B0629093203546S11700617EA0138901511000004000000
B0629133203508S11700670EA0138001502000004000000
B0629173203471S11700728EA0136801489000004000000
B0629213203429S11700792EA0135501474000004000000
B0629253203384S11700856EA0135101471000004000000
B0629293203339S11700917EA0134601466000004000000
B0629333203298S11700978EA0134201460000004000000
B0629373203259S11701038EA0133801457000004000000
B0629413203218S11701095EA0133601456000004000000
B0629453203177S11701146EA0133901458000004000000
B0629493203135S11701198EA0134001457000004000000
B0629533203095S11701248EA0133601453000004000000
B0629573203057S11701302EA0132701445000004000000
B0630013203017S11701354EA0132501443000004000000
B0630053202977S11701403EA0132401442000004000000
B0630093202938S11701453EA0132201438000004000000
B0630133202896S11701502EA0131901440000004000000
B0630173202857S11701546EA0132501442000004000000
B0630213202819S11701593EA0132101437000004000000
B0630253202792S11701649EA0131201428000004000000
B0630293202770S11701710EA0130301420000004000000
B0630333202748S11701776EA0129601409000004000000
B0630373202726S11701845EA0128401401000004000000
B0630413202700S11701914EA0128001395000004000000
B0630453202667S11701979EA0127601393000004000000
B0630493202631S11702039EA0127501391000004000000
B0630533202592S11702096EA0127001388000004000000
B0630573202555S11702155EA0126901386000004000000
B0631013202520S11702212EA0126701385000004000000
B0631053202489S11702269EA0126801388000004000000
B0631093202462S11702322EA0127201391000004000000
B0631133202436S11702370EA0127301392000004000000
B0631173202410S11702418EA0126901383000004000000
B0631213202381S11702468EA0126201377000004000000
B0631253202349S11702516EA0125801373000004000000
B0631293202314S11702558EA0125601373000004000000
B0631333202279S11702600EA0125501373000004000000
B0631373202245S11702642EA0125601377000004000000
B0631413202212S11702680EA0126101377000004000000
B0631453202177S11702708EA0125901378000004000000
B0631493202141S11702733EA0126001376000004000000
B0631533202103S11702759EA0125401367000004000000
B0631573202052S11702760EA0124501362000004000000
B0632013202011S11702714EA0124401361000004000000
B0632053202004S11702637EA0123401350000004000000
B0632093202039S11702558EA0122201340000004000000
B0632133202098S11702490EA0121701335000004000000
B0632173202159S11702428EA0121701337000004000000
B0632213202216S11702363EA0121401333000004000000
B0632253202273S11702294EA0120701325000004000000
B0632293202331S11702225EA0120301324000004000000
B0632333202386S11702155EA0119901320000004000000
B0632373202441S11702083EA0119401315000004000000
B0632413202496S11702010EA0118801307000004000000
B0632453202550S11701936EA0118101298000004000000
B0632493202605S11701861EA0117501293000004000000
B0632533202657S11701783EA0117101293000004000000
B0632573202706S11701707EA0117401294000004000000
B0633013202754S11701633EA0117401292000004000000
B0633053202800S11701558EA0116901286000004000000
B0633093202844S11701480EA0116201279000004000000
B0633133202887S11701401EA0116101277000004000000
B0633173202929S11701324EA0115901276000004000000
B0633213202968S11701246EA0115801273000004000000
B0633253203008S11701170EA0115401269000004000000
B0633293203061S11701109EA0115201269000004000000
B0633333203125S11701069EA0115101265000004000000
B0633373203195S11701047EA0114501260000004000000
B0633413203268S11701031EA0114101257000004000000
B0633453203338S11701005EA0114601262000004000000
B0633493203397S11700953EA0115001266000004000000
B0633533203442S11700887EA0115101265000004000000
B0633573203486S11700817EA0114801263000004000000
B0634013203529S11700744EA0114401259000004000000
B0634053203569S11700669EA0113501249000004000000
B0634093203605S11700587EA0113501248000004000000
B0634133203606S11700500EA0113301246000004000000
B0634173203573S11700424EA0113101244000004000000
B0634213203550S11700344EA0112501240000004000000
B0634253203566S11700257EA0112401241000004000000
B0634293203615S11700188EA0112801241000004000000
B0634333203676S11700133EA0112501241000004000000
B0634373203738S11700085EA0112401239000004000000
B0634413203801S11700037EA0111501226000004000000
B0634453203865S11659986EA0110501217000004000000
B0634493203918S11659921EA0109701212000004000000
B0634533203971S11659854EA0109501207000004000000
B0634573204026S11659790EA0109501209000004000000
B0635013204076S11659725EA0109601208000004000000
B0635053204125S11659659EA0109001203000004000000
B0635093204180S11659599EA0108701202000004000000
B0635133204245S11659558EA0108901203000004000000
B0635173204313S11659552EA0108901203000004000000
B0635213204368S11659583EA0109601210000004000000
B0635253204401S11659633EA0109701207000004000000
B0635293204422S11659696EA0109201205000004000000
B0635333204429S11659759EA0109701215000004000000
B0635373204401S11659800EA0111201229000004000000
B0635413204355S11659789EA0111501224000004000000
B0635453204329S11659726EA0110801221000004000000
B0635493204342S11659649EA0111001224000004000000
B0635533204391S11659597EA0111601229000004000000
B0635573204452S11659592EA0111701230000004000000
B0636013204499S11659631EA0111801230000004000000
B0636053204508S11659691EA0112001233000004000000
B0636093204473S11659727EA0112601242000004000000
B0636133204429S11659701EA0112501235000004000000
B0636173204412S11659627EA0112001234000004000000
B0636213204435S11659548EA0112201239000004000000
B0636253204485S11659495EA0112901247000004000000
B0636293204547S11659486EA0113001247000004000000
B0636333204600S11659516EA0113401251000004000000
B0636373204628S11659569EA0113901254000004000000
B0636413204634S11659633EA0113601253000004000000
B0636453204642S11659699EA0113501252000004000000
B0636493204655S11659765EA0113201245000004000000
B0636533204669S11659833EA0112401238000004000000
B0636573204680S11659900EA0111601232000004000000
B0637013204684S11659968EA0111001225000004000000
B0637053204684S11700036EA0110501222000004000000
B0637093204680S11700101EA0110701226000004000000
B0637133204665S11700156EA0111401233000004000000
B0637173204645S11700206EA0111501231000004000000
B0637213204621S11700251EA0111301230000004000000
B0637253204582S11700283EA0111501232000004000000
B0637293204531S11700298EA0111301228000004000000
B0637333204479S11700307EA0111001228000004000000
B0637373204426S11700319EA0110801223000004000000
B0637413204372S11700332EA0110101219000004000000
B0637453204314S11700344EA0110601226000004000000
B0637493204271S11700375EA0112301243000004000000
B0637533204290S11700420EA0113301251000004000000
B0637573204343S11700407EA0113001246000004000000
B0638013204365S11700337EA0112301240000004000000
B0638053204338S11700270EA0112801251000004000000
B0638093204290S11700268EA0114001262000004000000
B0638133204299S11700322EA0115201275000004000000
B0638173204353S11700315EA0116301288000004000000
B0638213204374S11700249EA0117401297000004000000
B0638253204342S11700198EA0118201304000004000000
B0638293204295S11700210EA0118901313000004000000
B0638333204284S11700264EA0120301328000004000000
B0638373204325S11700302EA0120901331000004000000
B0638413204381S11700283EA0121401337000004000000
B0638453204403S11700218EA0122101347000004000000
B0638493204373S11700163EA0123001355000004000000
B0638533204325S11700172EA0124001368000004000000
B0638573204320S11700225EA0125501380000004000000
B0639013204368S11700253EA0125901384000004000000
B0639053204416S11700215EA0126701393000004000000
B0639093204412S11700146EA0127501400000004000000
B0639133204364S11700129EA0128101408000004000000
B0639173204346S11700182EA0129101419000004000000
B0639213204390S11700216EA0130101429000004000000
B0639253204438S11700180EA0131001438000004000000
B0639293204433S11700112EA0131701442000004000000
B0639333204386S11700094EA0132401454000004000000
B0639373204360S11700138EA0133801465000004000000
B0639413204382S11700189EA0134501472000004000000
B0639453204438S11700186EA0135001473000004000000
B0639493204463S11700120EA0134801471000004000000
B0639533204433S11700059EA0135501481000004000000
B0639573204391S11700082EA0136501487000004000000
B0640013204420S11700133EA0137101496000004000000
B0640053204476S11700108EA0137901503000004000000
B0640093204482S11700036EA0138401506000004000000
B0640133204440S11659989EA0139301516000004000000
B0640173204400S11700013EA0140601529000004000000
B0640213204414S11700069EA0140901531000004000000
B0640253204476S11700071EA0140801532000004000000
B0640293204507S11700004EA0141501541000004000000
B0640333204479S11659945EA0142801550000004000000
B0640373204431S11659954EA0143701561000004000000
B0640413204420S11700008EA0144801569000004000000
B0640453204463S11700046EA0145001571000004000000
B0640493204518S11700015EA0145401575000004000000
B0640533204526S11659942EA0145601577000004000000
B0640573204485S11659899EA0146401585000004000000
B0641013204446S11659924EA0147501601000004000000
B0641053204448S11659977EA0148001601000004000000
B0641093204498S11700007EA0147901599000004000000
B0641133204563S11659985EA0147101589000004000000
B0641173204628S11659933EA0146401583000004000000
B0641213204693S11659877EA0146701590000004000000
B0641253204758S11659824EA0147501596000004000000
B0641293204823S11659774EA0147601595000004000000
B0641333204889S11659724EA0147001588000004000000
B0641373204958S11659670EA0146201578000004000000
B0641413205028S11659614EA0145301568000004000000
B0641453205102S11659557EA0144101555000004000000
B0641493205178S11659500EA0144201561000004000000
B0641533205248S11659441EA0143701548000004000000
B0641573205322S11659375EA0142601541000004000000
B0642013205395S11659305EA0141801534000004000000
B0642053205469S11659236EA0141401530000004000000
B0642093205544S11659174EA0140601518000004000000
B0642133205621S11659113EA0139501506000004000000
B0642173205699S11659051EA0138501500000004000000
B0642213205776S11658993EA0138301498000004000000
B0642253205851S11658938EA0138201497000004000000
B0642293205926S11658882EA0137901491000004000000
B0642333206002S11658827EA0137201486000004000000
B0642373206078S11658771EA0136701481000004000000
B0642413206155S11658715EA0136401478000004000000
B0642453206229S11658659EA0136201475000004000000
B0642493206305S11658603EA0135901471000004000000
B0642533206379S11658546EA0135201465000004000000
B0642573206454S11658489EA0134501459000004000000
B0643013206530S11658433EA0134001455000004000000
B0643053206605S11658377EA0133501450000004000000
B0643093206682S11658322EA0133101446000004000000
B0643133206757S11658270EA0132801444000004000000
B0643173206830S11658217EA0132601442000004000000
B0643213206901S11658165EA0132401437000004000000
B0643253206974S11658112EA0131701430000004000000
B0643293207048S11658062EA0131001426000004000000
B0643333207125S11658017EA0131101428000004000000
B0643373207200S11657975EA0131401431000004000000
B0643413207272S11657935EA0131501431000004000000
B0643453207342S11657897EA0131401429000004000000
B0643493207411S11657859EA0131501430000004000000
B0643533207477S11657814EA0131601436000004000000
B0643573207540S11657763EA0132201442000004000000
B0644013207598S11657707EA0132501437000004000000
B0644053207657S11657647EA0132001434000004000000
B0644093207710S11657586EA0132101434000004000000
B0644133207758S11657523EA0132401435000004000000
B0644173207794S11657449EA0131901429000004000000
B0644213207810S11657360EA0130901419000004000000
B0644253207807S11657269EA0130401412000004000000
B0644293207796S11657179EA0129501402000004000000
B0644333207780S11657086EA0128001388000004000000
B0644373207763S11656988EA0126901378000004000000
B0644413207748S11656888EA0126101371000004000000
B0644453207732S11656788EA0125701368000004000000
B0644493207715S11656691EA0125301366000004000000
B0644533207694S11656596EA0125201368000004000000
B0644573207674S11656503EA0125201367000004000000
B0645013207653S11656414EA0125401371000004000000
B0645053207632S11656329EA0125901377000004000000
B0645093207612S11656245EA0126301375000004000000
B0645133207584S11656165EA0126601379000004000000
B0645173207540S11656104EA0126601379000004000000
B0645213207481S11656073EA0125601368000004000000
B0645253207419S11656081EA0125501369000004000000
B0645293207380S11656121EA0125801373000004000000
B0645333207375S11656184EA0124901360000004000000
B0645373207417S11656236EA0124501359000004000000
B0645413207479S11656256EA0123901353000004000000
B0645453207545S11656269EA0123301342000004000000
B0645493207616S11656285EA0122101332000004000000
B0645533207690S11656297EA0121701333000004000000
B0645573207761S11656308EA0122201338000004000000
B0646013207817S11656345EA0122401340000004000000
B0646053207844S11656403EA0122401339000004000000
B0646093207831S11656467EA0121801330000004000000
B0646133207783S11656502EA0121301329000004000000
B0646173207724S11656492EA0121101327000004000000
B0646213207672S11656455EA0120901323000004000000
B0646253207619S11656414EA0120201314000004000000
B0646293207560S11656371EA0119101303000004000000
B0646333207501S11656321EA0118501298000004000000
B0646373207442S11656267EA0118201293000004000000
B0646413207385S11656211EA0117601287000004000000
B0646453207329S11656156EA0117601292000004000000
B0646493207281S11656099EA0118401298000004000000
B0646533207232S11656048EA0117701288000004000000
B0646573207176S11656002EA0116601277000004000000
B0647013207120S11655954EA0116301277000004000000
B0647053207069S11655904EA0116101274000004000000
B0647093207022S11655847EA0116001274000004000000
B0647133206977S11655787EA0115701269000004000000
B0647173206930S11655725EA0115001262000004000000
B0647213206878S11655664EA0114501255000004000000
B0647253206825S11655601EA0113801249000004000000
B0647293206770S11655544EA0113701251000004000000
B0647333206717S11655492EA0113701247000004000000
B0647373206661S11655437EA0112601237000004000000
B0647413206605S11655380EA0112301235000004000000
B0647453206552S11655326EA0112001235000004000000
B0647493206500S11655271EA0112001233000004000000
B0647533206453S11655215EA0111901230000004000000
B0647573206403S11655164EA0111301222000004000000
B0648013206349S11655116EA0110101211000004000000
B0648053206286S11655073EA0108801201000004000000
B0648093206223S11655036EA0108601199000004000000
B0648133206163S11654993EA0108901201000004000000
B0648173206110S11654950EA0108901200000004000000
B0648213206056S11654908EA0108401192000004000000
B0648253205998S11654869EA0107301183000004000000
B0648293205941S11654824EA0106701178000004000000
B0648333205891S11654768EA0106301174000004000000
B0648373205850S11654700EA0106001171000004000000
B0648413205813S11654626EA0105701168000004000000
B0648453205782S11654550EA0105701171000004000000
B0648493205752S11654474EA0106001174000004000000
B0648533205721S11654400EA0106701181000004000000
B0648573205674S11654349EA0107001182000004000000
B0649013205616S11654322EA0106901181000004000000
B0649053205555S11654291EA0107401190000004000000
B0649093205504S11654310EA0108701202000004000000
B0649133205505S11654368EA0109501212000004000000
B0649173205551S11654392EA0110401222000004000000
B0649213205601S11654361EA0110901225000004000000
B0649253205614S11654290EA0111301229000004000000
B0649293205575S11654241EA0111901236000004000000
B0649333205525S11654258EA0112101235000004000000
B0649373205514S11654319EA0111901237000004000000
B0649413205555S11654365EA0113101251000004000000
B0649453205612S11654356EA0114101259000004000000
B0649493205646S11654296EA0114501264000004000000
B0649533205623S11654230EA0115301274000004000000
B0649573205571S11654210EA0116201283000004000000
B0650013205539S11654252EA0117001292000004000000
B0650053205560S11654300EA0117901300000004000000
B0650093205614S11654299EA0118101301000004000000
B0650133205649S11654239EA0118701307000004000000
B0650173205635S11654171EA0119601318000004000000
B0650213205592S11654135EA0120301326000004000000
B0650253205544S11654144EA0120501326000004000000
B0650293205522S11654191EA0120601329000004000000
B0650333205547S11654240EA0121001334000004000000
B0650373205603S11654249EA0121501339000004000000
B0650413205640S11654199EA0122101345000004000000
B0650453205621S11654135EA0122801354000004000000
B0650493205570S11654121EA0123801364000004000000
B0650533205545S11654163EA0124601371000004000000
B0650573205577S11654208EA0124901373000004000000
B0651013205631S11654191EA0125301378000004000000
B0651053205657S11654130EA0126001385000004000000
B0651093205642S11654065EA0126501390000004000000
B0651133205595S11654031EA0126801394000004000000
B0651173205548S11654056EA0126901392000004000000
B0651213205543S11654113EA0126901395000004000000
B0651253205583S11654156EA0127601400000004000000
B0651293205643S11654152EA0127501399000004000000
B0651333205683S11654093EA0127501402000004000000
B0651373205675S11654018EA0127901403000004000000
B0651413205625S11653972EA0128001403000004000000
B0651453205565S11653978EA0128001404000004000000
B0651493205529S11654027EA0128201406000004000000
B0651533205547S11654088EA0128701411000004000000
B0651573205608S11654108EA0129001412000004000000
B0652013205668S11654067EA0129101414000004000000
B0652053205686S11653989EA0129601419000004000000
B0652093205660S11653916EA0129801421000004000000
B0652133205605S11653876EA0130001423000004000000
B0652173205545S11653880EA0129801418000004000000
B0652213205512S11653932EA0129401416000004000000
B0652253205513S11654002EA0129401416000004000000
B0652293205553S11654058EA0129501419000004000000
B0652333205621S11654067EA0129801422000004000000
B0652373205665S11654007EA0130401431000004000000
B0652413205642S11653940EA0131401440000004000000
B0652453205591S11653946EA0131601438000004000000
B0652493205583S11654014EA0130701430000004000000
B0652533205599S11654095EA0129201417000004000000
B0652573205618S11654182EA0128301407000004000000
B0653013205640S11654271EA0127801402000004000000
B0653053205662S11654361EA0127501398000004000000
B0653093205687S11654448EA0127201396000004000000
B0653133205714S11654533EA0127201397000004000000
B0653173205740S11654613EA0127401400000004000000
B0653213205764S11654689EA0127901402000004000000
B0653253205782S11654765EA0127601397000004000000
B0653293205790S11654845EA0127101394000004000000
B0653333205790S11654923EA0127001392000004000000
B0653373205787S11654999EA0126601388000004000000
B0653413205783S11655077EA0126301386000004000000
B0653453205778S11655154EA0125901383000004000000
B0653493205772S11655231EA0125401377000004000000
B0653533205763S11655307EA0125201376000004000000
B0653573205752S11655384EA0125001375000004000000
B0654013205742S11655458EA0125201377000004000000
B0654053205734S11655531EA0125501378000004000000
B0654093205730S11655604EA0125401377000004000000
B0654133205727S11655679EA0125001371000004000000
B0654173205721S11655753EA0124501371000004000000
B0654213205717S11655829EA0125001376000004000000
B0654253205716S11655902EA0125401383000004000000
B0654293205724S11655973EA0126901394000004000000
B0654333205770S11656019EA0128001404000004000000
B0654373205835S11655996EA0128601409000004000000
B0654413205861S11655921EA0129201414000004000000
B0654453205842S11655848EA0129001415000004000000
B0654493205792S11655805EA0129401417000004000000
B0654533205735S11655809EA0129601421000004000000
B0654573205694S11655855EA0129901424000004000000
B0655013205685S11655918EA0130201426000004000000
B0655053205714S11655976EA0130501429000004000000
B0655093205774S11656002EA0130501429000004000000
B0655133205839S11655974EA0130401428000004000000
B0655173205874S11655898EA0130301428000004000000
B0655213205864S11655813EA0130601431000004000000
B0655253205818S11655756EA0130601433000004000000
B0655293205763S11655751EA0131801446000004000000
B0655333205726S11655791EA0132401447000004000000
B0655373205730S11655850EA0132201447000004000000
B0655413205778S11655889EA0132101445000004000000
B0655453205847S11655878EA0132001444000004000000
B0655493205899S11655820EA0132101448000004000000
B0655533205912S11655739EA0132701452000004000000
B0655573205885S11655673EA0133001455000004000000
B0656013205834S11655645EA0133301458000004000000
B0656053205782S11655656EA0133701461000004000000
B0656093205739S11655691EA0133401456000004000000
B0656133205704S11655740EA0132901451000004000000
B0656173205675S11655795EA0132401446000004000000
B0656213205653S11655856EA0132101445000004000000
B0656253205646S11655921EA0132401451000004000000
B0656293205668S11655980EA0133201458000004000000
B0656333205722S11655994EA0134001463000004000000
B0656373205766S11655938EA0134301466000004000000
B0656413205759S11655855EA0134301467000004000000
B0656453205713S11655791EA0134801474000004000000
B0656493205652S11655770EA0135601481000004000000
B0656533205601S11655791EA0136101485000004000000
B0656573205571S11655838EA0135801480000004000000
B0657013205577S11655898EA0135101474000004000000
B0657053205626S11655935EA0135001474000004000000
B0657093205688S11655916EA0135101479000004000000
B0657133205720S11655852EA0135801488000004000000
B0657173205704S11655785EA0136101487000004000000
B0657213205652S11655740EA0135301475000004000000
B0657253205587S11655725EA0134301465000004000000
B0657293205518S11655729EA0133101450000004000000
B0657333205444S11655734EA0131201432000004000000
B0657373205365S11655733EA0129901423000004000000
B0657413205285S11655720EA0129601420000004000000
B0657453205209S11655700EA0129401417000004000000
B0657493205133S11655674EA0128901413000004000000
B0657533205059S11655647EA0128501409000004000000
B0657573204985S11655619EA0128301408000004000000
B0658013204914S11655591EA0128001403000004000000
