ACAM4N6
HFDTE230115
HFFXA050
HFPLTPILOT:JOHN WELSH              
HFGTYGLIDERTYPE:HORNET      
HFGIDGLIDERID:VH-GMY      
HFDTM100GPSDATUM:
HFRFWFIRMWAREVERSION:F2.6
HFRHWHARDWAREVERSION:300 Series Version 2
HFFTYFRTYPE:CAMBRIDGE AERO INSTRUMENTS, 302+
HFGPS:GARMIN,LVS-25,12,18000
HFPRSPRESSALTSENSOR:INTERSEMA, MS5534-AP, 20000
I033638FXA3941ENL4247REX
LCAMSBVER:5FWVER:F26300
C230115050608230115000102
C0000000N00000000WTAKEOFF     
C3207547S11656879EBeverley Air
C3301433S11652382EWILLIAMS    
C3220283S11752282ECORRIGIN    
C3207547S11656879EBeverley Air
C0000000N00000000WLANDING     
B0510033207338S11656857EA0020900213000000000000
B0510053207338S11656857EA0020900213000000000000
B0510073207338S11656857EA0021000213000000000000
B0510093207338S11656857EA0021000213000000000000
B0510113207338S11656857EA0020900213000000000000
B0510133207338S11656857EA0020800213000000000000
B0510153207338S11656857EA0020900213000000000000
B0510173207338S11656857EA0020900213000000000000
B0510193207338S11656857EA0020800213000000000000
B0510213207338S11656857EA0020800213000000000000
B0510233207338S11656857EA0020900213000000000000
B0510253207338S11656857EA0021100213000000000000
B0510273207338S11656857EA0020900213000000000000
B0510293207339S11656857EA0020900212000000000000
B0510313207342S11656858EA0021000212000000000000
B0510323207345S11656861EA0020900212000000000000
B0510363207365S11656880EA0020800210000000000000
B0510403207403S11656909EA0020700210000000000000
B0510443207456S11656943EA0020800209000000000000
B0510483207519S11656983EA0020700210000000000000
B0510523207584S11657030EA0021000219000000000000
B0510563207646S11657086EA0022100230000000000000
B0511003207703S11657152EA0023000243000000000000
B0511043207752S11657228EA0024800264000000000000
B0511083207791S11657306EA0028300292000000000000
B0511123207832S11657381EA0029800306000000000000
B0511163207878S11657458EA0030900321000000000000
B0511203207918S11657538EA0032400338000000000000
B0511243207962S11657623EA0033500347000000000000
B0511283208005S11657706EA0034600361000000000000
B0511323208043S11657787EA0037000381000000000000
B0511363208075S11657868EA0038000398000000000000
B0511403208105S11657953EA0039200403000000000000
B0511443208130S11658043EA0040700423000000000000
B0511483208153S11658136EA0041800430000000000000
B0511523208174S11658227EA0043200446000000000000
B0511563208192S11658318EA0044300457000000000000
B0512003208209S11658407EA0046500489000000000000
B0512043208225S11658496EA0049400518000000000000
B0512083208247S11658590EA0051900543000000000000
B0512123208285S11658673EA0054400573000000000000
B0512163208338S11658738EA0057500606000000000000
B0512203208403S11658778EA0060600636000000000000
B0512243208473S11658798EA0063300661000000000000
B0512283208542S11658790EA0065700689000000000000
B0512323208593S11658751EA0068400713000000000000
B0512363208602S11658682EA0069100709000000000000
B0512403208554S11658628EA0068400701000000000000
B0512443208485S11658639EA0068100697000000000000
B0512483208439S11658700EA0067000684000000000000
B0512523208444S11658775EA0066700683000000000000
B0512563208494S11658797EA0067100685000000000000
B0513003208537S11658755EA0066800682000000000000
B0513043208546S11658680EA0066000672000000000000
B0513083208529S11658600EA0064800662000000000000
B0513123208481S11658534EA0064000653000000000000
B0513163208417S11658486EA0063300649000000000000
B0513203208344S11658459EA0063500651000000000000
B0513243208272S11658451EA0063600652000000000000
B0513283208201S11658470EA0064100658000000000000
B0513323208173S11658537EA0065500673000000000000
B0513363208218S11658568EA0065600668000000000000
B0513403208255S11658513EA0065300665000000000000
B0513443208231S11658440EA0064600658000000000000
B0513483208164S11658413EA0064800666000000000000
B0513523208117S11658459EA0066400686000000000000
B0513563208142S11658508EA0068100702000000000000
B0514003208187S11658486EA0069300711000000000000
B0514043208184S11658421EA0069400713000000000000
B0514083208134S11658386EA0069800715000000000000
B0514123208074S11658414EA0069800713000000000000
B0514163208054S11658487EA0069800717000000000000
B0514203208090S11658544EA0070700730000000000000
B0514243208131S11658509EA0072500747000000000000
B0514283208108S11658443EA0073000750000000000000
B0514323208038S11658434EA0073700759000000000000
B0514363207997S11658494EA0075100778000000000000
B0514403208023S11658546EA0076800790000000000000
B0514443208071S11658526EA0077200796000000000000
B0514483208062S11658465EA0079200817000000000000
B0514523208006S11658443EA0080200826000000000000
B0514563207954S11658485EA0080600831000000000000
B0515003207956S11658552EA0080600826000000000000
B0515043208005S11658578EA0080600831000000000000
B0515083208049S11658538EA0081400843000000000000
B0515123208021S11658477EA0082400852000000000000
B0515163207954S11658477EA0082900857000000000000
B0515203207906S11658534EA0083100852000000000000
B0515243207909S11658612EA0082100844000000000000
B0515283207954S11658664EA0081700845000000000000
B0515323208015S11658689EA0082600855000000000000
B0515363208056S11658647EA0083900867000000000000
B0515403208035S11658585EA0084500869000000000000
B0515443207973S11658568EA0084400872000000000000
B0515483207930S11658616EA0085400884000000000000
B0515523207954S11658665EA0086100885000000000000
B0515563208005S11658650EA0086200889000000000000
B0516003208021S11658586EA0086300887000000000000
B0516043207986S11658521EA0085600880000000000000
B0516083207918S11658483EA0085300879000000000000
B0516123207845S11658489EA0085600885000000000000
B0516163207798S11658547EA0085900887000000000000
B0516203207796S11658622EA0085300876000000000000
B0516243207836S11658686EA0084300867000000000000
B0516283207891S11658736EA0083800871000000000000
B0516323207950S11658756EA0085400892000000000000
B0516363207975S11658703EA0086900900000000000000
B0516403207930S11658658EA0087500911000000000000
B0516443207879S11658694EA0088800922000000000000
B0516483207895S11658758EA0089100922000000000000
B0516523207948S11658751EA0090100936000000000000
B0516563207969S11658691EA0091100944000000000000
B0517003207934S11658637EA0091500949000000000000
B0517043207867S11658637EA0091600950000000000000
B0517083207819S11658695EA0092000953000000000000
B0517123207823S11658773EA0092100957000000000000
B0517163207870S11658816EA0093500976000000000000
B0517203207914S11658794EA0095300989000000000000
B0517243207919S11658732EA0095700991000000000000
B0517283207871S11658691EA0096801006000000000000
B0517323207813S11658710EA0098201018000000000000
B0517363207785S11658769EA0098901023000000000000
B0517403207805S11658830EA0099501029000000000000
B0517443207854S11658841EA0100401043000000000000
B0517483207884S11658797EA0101801052000000000000
B0517523207874S11658732EA0101901054000000000000
B0517563207819S11658699EA0102601067000000000000
B0518003207763S11658732EA0103901080000000000000
B0518043207742S11658797EA0104601084000000000000
B0518083207768S11658853EA0105201095000000000000
B0518123207817S11658862EA0106201102000000000000
B0518163207853S11658816EA0106701105000000000000
B0518203207846S11658747EA0107101111000000000000
B0518243207798S11658703EA0108101119000000000000
B0518283207733S11658708EA0108601130000000000000
B0518323207693S11658760EA0109701136000000000000
B0518363207694S11658825EA0109801138000000000000
B0518403207735S11658868EA0110301146000000000000
B0518443207787S11658863EA0110901151000000000000
B0518483207815S11658803EA0111201152000000000000
B0518523207794S11658732EA0111401158000000000000
B0518563207733S11658703EA0112601170000000000000
B0519003207674S11658737EA0113401175000000000000
B0519043207649S11658807EA0113301173000000000000
B0519083207674S11658875EA0113801184000000000000
B0519123207728S11658895EA0115101195000000000000
B0519163207781S11658860EA0115501199000000000000
B0519203207789S11658790EA0116301211000000000000
B0519243207746S11658741EA0117301216000000000000
B0519283207683S11658747EA0118001227000000000000
B0519323207642S11658802EA0118801235000000000000
B0519363207648S11658873EA0119601242000000000000
B0519403207694S11658910EA0120801257000000000000
B0519443207748S11658890EA0121301258000000000000
B0519483207770S11658825EA0121401261000000000000
B0519523207739S11658762EA0121801265000000000000
B0519563207677S11658746EA0122201267000000000000
B0520003207622S11658784EA0122301272000000000000
B0520043207607S11658851EA0123401286000000000000
B0520083207650S11658882EA0124901299000000000000
B0520123207694S11658841EA0125501304000000000000
B0520163207696S11658769EA0125801305000000000000
B0520203207650S11658716EA0125901305000000000000
B0520243207586S11658706EA0126301313000000000000
B0520283207529S11658739EA0127101320000000000000
B0520323207499S11658802EA0127501319000000000000
B0520363207510S11658869EA0127401319000000000000
B0520403207553S11658916EA0127601327000000000000
B0520443207606S11658914EA0128401334000000000000
B0520483207631S11658854EA0128801337000000000000
B0520523207606S11658786EA0129301343000000000000
B0520563207544S11658771EA0130101351000000000000
B0521003207498S11658816EA0130401353000000000000
B0521043207498S11658888EA0130301352000000000000
B0521083207544S11658932EA0130601359000000000000
B0521123207601S11658919EA0131101360000000000000
B0521163207633S11658856EA0131401365000000000000
B0521203207628S11658777EA0131201359000000000000
B0521243207576S11658724EA0130801359000000000000
B0521283207506S11658721EA0131101361000000000000
B0521323207442S11658755EA0131701369000000000000
B0521363207421S11658821EA0132001368000000000000
B0521403207455S11658873EA0131701364000000000000
B0521443207514S11658893EA0131701376000000000000
B0521483207563S11658858EA0133601393000000000000
B0521523207566S11658788EA0134201390000000000000
B0521563207516S11658736EA0133801388000000000000
B0522003207453S11658743EA0134101392000000000000
B0522043207412S11658797EA0134401397000000000000
B0522083207414S11658864EA0134201390000000000000
B0522123207462S11658903EA0134301396000000000000
B0522163207524S11658898EA0134801402000000000000
B0522203207571S11658843EA0135201401000000000000
B0522243207576S11658762EA0134701397000000000000
B0522283207531S11658702EA0134701397000000000000
B0522323207464S11658694EA0134101387000000000000
B0522363207407S11658737EA0133401384000000000000
B0522403207365S11658798EA0133301383000000000000
B0522443207355S11658873EA0133001376000000000000
B0522483207388S11658932EA0132901382000000000000
B0522523207441S11658957EA0133301384000000000000
B0522563207499S11658966EA0132501372000000000000
B0523003207562S11658947EA0131601363000000000000
B0523043207623S11658914EA0130401349000000000000
B0523083207679S11658858EA0128801331000000000000
B0523123207720S11658780EA0127601320000000000000
B0523163207749S11658691EA0126601307000000000000
B0523203207774S11658598EA0125201294000000000000
B0523243207794S11658504EA0124201287000000000000
B0523283207811S11658413EA0123801283000000000000
B0523323207826S11658322EA0123301278000000000000
B0523363207843S11658230EA0123301281000000000000
B0523403207859S11658140EA0124401295000000000000
B0523443207840S11658067EA0127301327000000000000
B0523483207784S11658071EA0129401336000000000000
B0523523207768S11658132EA0129201336000000000000
B0523563207814S11658162EA0129601343000000000000
B0524003207862S11658119EA0130101351000000000000
B0524043207857S11658049EA0131401363000000000000
B0524083207800S11658024EA0131901367000000000000
B0524123207753S11658071EA0131701363000000000000
B0524163207768S11658135EA0132501374000000000000
B0524203207823S11658149EA0132901378000000000000
B0524243207871S11658105EA0133401387000000000000
B0524283207882S11658034EA0134501398000000000000
B0524323207850S11657970EA0135401404000000000000
B0524363207791S11657949EA0135701404000000000000
B0524403207733S11657982EA0135201398000000000000
B0524443207713S11658045EA0135701406000000000000
B0524483207742S11658093EA0136301414000000000000
B0524523207796S11658102EA0136501414000000000000
B0524563207837S11658061EA0136901422000000000000
B0525003207828S11657996EA0137301426000000000000
B0525043207775S11657963EA0137401422000000000000
B0525083207720S11657993EA0137001418000000000000
B0525123207711S11658058EA0137001421000000000000
B0525163207750S11658105EA0137601428000000000000
B0525203207806S11658104EA0138401439000000000000
B0525243207839S11658052EA0138901442000000000000
B0525283207826S11657985EA0139001441000000000000
B0525323207776S11657943EA0138801439000000000000
B0525363207718S11657950EA0138901439000000000000
B0525403207676S11657998EA0138201429000000000000
B0525443207675S11658069EA0137701429000000000000
B0525483207694S11658138EA0137701429000000000000
B0525523207727S11658200EA0137901433000000000000
B0525563207767S11658255EA0138801441000000000000
B0526003207823S11658257EA0139101443000000000000
B0526043207861S11658200EA0138701436000000000000
B0526083207866S11658122EA0137801424000000000000
B0526123207848S11658039EA0137201424000000000000
B0526163207819S11657959EA0136901421000000000000
B0526203207783S11657883EA0136401411000000000000
B0526243207741S11657805EA0135201402000000000000
B0526283207696S11657729EA0135101401000000000000
B0526323207649S11657655EA0134801393000000000000
B0526363207603S11657579EA0134001387000000000000
B0526403207559S11657498EA0133001375000000000000
B0526443207519S11657413EA0131701358000000000000
B0526483207481S11657324EA0130501346000000000000
B0526523207443S11657238EA0129601342000000000000
B0526563207406S11657156EA0129401340000000000000
B0527003207372S11657075EA0129401341000000000000
B0527043207341S11656996EA0128901332000000000000
B0527083207313S11656916EA0128401327000000000000
B0527123207325S11656839EA0128701333000000000000
B0527163207378S11656805EA0129001337000000000000
B0527203207443S11656806EA0127901321000000000000
B0527243207514S11656823EA0126501303000000000000
B0527283207586S11656844EA0125101293000000000000
B0527323207658S11656864EA0124301290000000000000
B0527363207728S11656882EA0123701279000000000000
B0527403207798S11656900EA0122601271000000000000
B0527443207870S11656927EA0121801265000000000000
B0527483207939S11656961EA0120901254000000000000
B0527523208010S11656983EA0120301249000000000000
B0527563208082S11656995EA0119501240000000000000
B0528003208153S11657003EA0119101234000000000000
B0528043208225S11657022EA0118401225000000000000
B0528083208295S11657053EA0117601221000000000000
B0528123208363S11657094EA0116701211000000000000
B0528163208431S11657133EA0116601209000000000000
B0528203208503S11657152EA0117001217000000000000
B0528243208574S11657169EA0117801226000000000000
B0528283208647S11657189EA0118001224000000000000
B0528323208720S11657207EA0117701224000000000000
B0528363208790S11657218EA0117901220000000000000
B0528403208860S11657220EA0116801205000000000000
B0528443208935S11657222EA0115301190000000000000
B0528483209009S11657221EA0114401182000000000000
B0528523209085S11657224EA0112801167000000000000
B0528563209162S11657233EA0111601156000000000000
B0529003209239S11657244EA0110501147000000000000
B0529043209315S11657263EA0109501137000000000000
B0529083209390S11657285EA0108901129000000000000
B0529123209462S11657307EA0107701112000000000000
B0529163209539S11657320EA0106401099000000000000
B0529203209614S11657346EA0104901087000000000000
B0529243209686S11657385EA0104801089000000000000
B0529283209750S11657434EA0105301095000000000000
B0529323209808S11657485EA0106001102000000000000
B0529363209869S11657521EA0106801110000000000000
B0529403209933S11657550EA0106801109000000000000
B0529443210001S11657564EA0107901121000000000000
B0529483210016S11657502EA0110101143000000000000
B0529523209960S11657475EA0111001148000000000000
B0529563209913S11657517EA0111301152000000000000
B0530003209916S11657585EA0111501155000000000000
B0530043209963S11657621EA0112201162000000000000
B0530083210014S11657595EA0112901175000000000000
B0530123210015S11657532EA0114501184000000000000
B0530163209967S11657488EA0114601190000000000000
B0530203209908S11657506EA0115901203000000000000
B0530243209884S11657566EA0116501205000000000000
B0530283209912S11657619EA0117001211000000000000
B0530323209967S11657623EA0117201212000000000000
B0530363209999S11657566EA0117901225000000000000
B0530403209977S11657502EA0119001233000000000000
B0530443209917S11657489EA0119501243000000000000
B0530483209880S11657540EA0120901253000000000000
B0530523209899S11657598EA0121301259000000000000
B0530563209950S11657608EA0122001268000000000000
B0531003209985S11657562EA0123101279000000000000
B0531043209971S11657497EA0123901285000000000000
B0531083209916S11657471EA0124601293000000000000
B0531123209863S11657511EA0125101295000000000000
B0531163209852S11657582EA0125301300000000000000
B0531203209890S11657633EA0126201308000000000000
B0531243209950S11657631EA0126301312000000000000
B0531283209977S11657573EA0127601328000000000000
B0531323209932S11657524EA0128701336000000000000
B0531363209873S11657542EA0129001337000000000000
B0531403209854S11657610EA0129301343000000000000
B0531443209885S11657666EA0130201353000000000000
B0531483209939S11657663EA0131301368000000000000
B0531523209959S11657601EA0132901382000000000000
B0531563209917S11657549EA0133501386000000000000
B0532003209855S11657556EA0133801386000000000000
B0532043209817S11657616EA0133601387000000000000
B0532083209829S11657685EA0134201396000000000000
B0532123209881S11657710EA0135101405000000000000
B0532163209910S11657659EA0136401421000000000000
B0532203209873S11657605EA0137601429000000000000
B0532243209815S11657619EA0137901433000000000000
B0532283209791S11657685EA0138501439000000000000
B0532323209820S11657748EA0139101444000000000000
B0532363209877S11657758EA0139401450000000000000
B0532403209912S11657703EA0140301460000000000000
B0532443209882S11657642EA0141701475000000000000
B0532483209824S11657649EA0142801485000000000000
B0532523209799S11657710EA0143501491000000000000
B0532563209832S11657767EA0144101497000000000000
B0533003209889S11657764EA0144701507000000000000
B0533043209916S11657706EA0146201520000000000000
B0533083209885S11657650EA0146901525000000000000
B0533123209825S11657653EA0147601531000000000000
B0533163209783S11657710EA0147701536000000000000
B0533203209790S11657783EA0148901548000000000000
B0533243209839S11657820EA0149601561000000000000
B0533283209882S11657783EA0150701572000000000000
B0533323209868S11657714EA0150901573000000000000
B0533363209809S11657688EA0151701587000000000000
B0533403209756S11657720EA0153201602000000000000
B0533443209751S11657785EA0154501612000000000000
B0533483209794S11657822EA0155101617000000000000
B0533523209847S11657805EA0155501623000000000000
B0533563209863S11657744EA0156001622000000000000
B0534003209821S11657692EA0155801623000000000000
B0534043209759S11657690EA0156401632000000000000
B0534083209715S11657740EA0156701630000000000000
B0534123209721S11657814EA0156801636000000000000
B0534163209769S11657854EA0157701644000000000000
B0534203209825S11657840EA0158101646000000000000
B0534243209855S11657781EA0157801640000000000000
B0534283209833S11657710EA0157401634000000000000
B0534323209772S11657679EA0157401638000000000000
B0534363209709S11657689EA0158001644000000000000
B0534403209670S11657745EA0158001638000000000000
B0534443209682S11657820EA0157601641000000000000
B0534483209730S11657872EA0158201649000000000000
B0534523209791S11657906EA0158101646000000000000
B0534563209859S11657927EA0158001643000000000000
B0535003209930S11657944EA0156001622000000000000
B0535043210004S11657961EA0154901613000000000000
B0535083210079S11657975EA0154201608000000000000
B0535123210153S11657989EA0153701600000000000000
B0535163210227S11658000EA0153301595000000000000
B0535203210302S11658006EA0152801591000000000000
B0535243210376S11658010EA0153001591000000000000
B0535283210448S11658006EA0153001587000000000000
B0535323210519S11657998EA0152101576000000000000
B0535363210595S11657988EA0151201567000000000000
B0535403210671S11657974EA0151001570000000000000
B0535443210745S11657956EA0151601577000000000000
B0535483210817S11657937EA0152001577000000000000
B0535523210885S11657915EA0151901576000000000000
B0535563210951S11657888EA0151501572000000000000
B0536003211017S11657862EA0151101564000000000000
B0536043211087S11657852EA0150201554000000000000
B0536083211161S11657846EA0148901537000000000000
B0536123211241S11657840EA0147001517000000000000
B0536163211320S11657820EA0146001511000000000000
B0536203211393S11657785EA0145701510000000000000
B0536243211460S11657745EA0144601499000000000000
B0536283211533S11657718EA0143601490000000000000
B0536323211607S11657697EA0143501488000000000000
B0536363211679S11657680EA0143301484000000000000
B0536403211749S11657666EA0142701475000000000000
B0536443211819S11657647EA0142101471000000000000
B0536483211891S11657628EA0141201462000000000000
B0536523211966S11657615EA0140601456000000000000
B0536563212043S11657607EA0140301452000000000000
B0537003212117S11657607EA0140201453000000000000
B0537043212188S11657611EA0140501457000000000000
B0537083212257S11657616EA0140601454000000000000
B0537123212325S11657627EA0139501443000000000000
B0537163212393S11657633EA0138801435000000000000
B0537203212460S11657645EA0137801425000000000000
B0537243212529S11657664EA0137301424000000000000
B0537283212595S11657676EA0136901417000000000000
B0537323212668S11657692EA0136401414000000000000
B0537363212738S11657715EA0137101424000000000000
B0537403212807S11657727EA0139501452000000000000
B0537443212849S11657685EA0142301475000000000000
B0537483212829S11657619EA0143101483000000000000
B0537523212768S11657627EA0144601500000000000000
B0537563212762S11657690EA0146201516000000000000
B0538003212809S11657712EA0147201529000000000000
B0538043212845S11657668EA0148001532000000000000
B0538083212828S11657602EA0148201542000000000000
B0538123212768S11657589EA0149801561000000000000
B0538163212732S11657644EA0151701575000000000000
B0538203212747S11657709EA0152501582000000000000
B0538243212801S11657738EA0152801585000000000000
B0538283212855S11657707EA0152901586000000000000
B0538323212868S11657636EA0153701596000000000000
B0538363212827S11657580EA0154001596000000000000
B0538403212760S11657558EA0154601610000000000000
B0538443212731S11657612EA0156801639000000000000
B0538483212772S11657645EA0159101658000000000000
B0538523212812S11657606EA0159801662000000000000
B0538563212794S11657541EA0160501670000000000000
B0539003212738S11657536EA0161701687000000000000
B0539043212719S11657598EA0162901694000000000000
B0539083212762S11657636EA0164001708000000000000
B0539123212803S11657593EA0164801713000000000000
B0539163212789S11657528EA0165401719000000000000
B0539203212732S11657516EA0166501733000000000000
B0539243212689S11657564EA0167301740000000000000
B0539283212702S11657632EA0167901746000000000000
B0539323212753S11657641EA0169001759000000000000
B0539363212771S11657580EA0169201763000000000000
B0539403212724S11657540EA0170401776000000000000
B0539443212673S11657572EA0171301777000000000000
B0539483212659S11657646EA0171401780000000000000
B0539523212693S11657701EA0172301794000000000000
B0539563212744S11657681EA0172801793000000000000
B0540003212737S11657615EA0172501794000000000000
B0540043212679S11657584EA0173201806000000000000
B0540083212616S11657611EA0173701806000000000000
B0540123212591S11657685EA0173401802000000000000
B0540163212620S11657757EA0173701806000000000000
B0540203212682S11657785EA0174401811000000000000
B0540243212753S11657788EA0173401798000000000000
B0540283212824S11657780EA0172901791000000000000
B0540323212900S11657767EA0171501774000000000000
B0540363212978S11657750EA0169601756000000000000
B0540403213058S11657733EA0168401745000000000000
B0540443213137S11657719EA0168101743000000000000
B0540483213217S11657710EA0166901730000000000000
B0540523213295S11657696EA0166101722000000000000
B0540563213374S11657680EA0165101712000000000000
B0541003213457S11657667EA0164001701000000000000
B0541043213540S11657653EA0163001691000000000000
B0541083213625S11657645EA0162701691000000000000
B0541123213704S11657640EA0163301697000000000000
B0541163213781S11657636EA0163301692000000000000
B0541203213859S11657633EA0162701685000000000000
B0541243213938S11657633EA0161701675000000000000
B0541283214020S11657632EA0161301672000000000000
B0541323214101S11657627EA0161401676000000000000
B0541363214176S11657611EA0161601674000000000000
B0541403214250S11657592EA0161501674000000000000
B0541443214327S11657577EA0161301669000000000000
B0541483214405S11657569EA0160801664000000000000
B0541523214482S11657559EA0160601666000000000000
B0541563214556S11657542EA0160301659000000000000
B0542003214634S11657525EA0159201646000000000000
B0542043214709S11657502EA0158701645000000000000
B0542083214783S11657475EA0158001637000000000000
B0542123214860S11657455EA0157601633000000000000
B0542163214935S11657446EA0157401631000000000000
B0542203215011S11657433EA0156701626000000000000
B0542243215087S11657426EA0156801629000000000000
B0542283215163S11657430EA0157001632000000000000
B0542323215240S11657441EA0156901629000000000000
B0542363215321S11657455EA0155801620000000000000
B0542403215406S11657465EA0154901614000000000000
B0542443215488S11657473EA0154801611000000000000
B0542483215568S11657476EA0154401610000000000000
B0542523215645S11657478EA0154501607000000000000
B0542563215722S11657478EA0153801600000000000000
B0543003215800S11657478EA0153001594000000000000
B0543043215875S11657471EA0152501588000000000000
B0543083215949S11657459EA0152401589000000000000
B0543123216020S11657455EA0152401587000000000000
B0543163216092S11657452EA0151401579000000000000
B0543203216166S11657449EA0151201577000000000000
B0543243216239S11657436EA0151001573000000000000
B0543283216315S11657426EA0150101561000000000000
B0543323216390S11657421EA0149401555000000000000
B0543363216463S11657398EA0148501549000000000000
B0543403216533S11657359EA0147901540000000000000
B0543443216606S11657326EA0147201533000000000000
B0543483216683S11657303EA0146201521000000000000
B0543523216763S11657291EA0145001506000000000000
B0543563216844S11657274EA0143801497000000000000
B0544003216926S11657264EA0142801486000000000000
B0544043217009S11657276EA0142101485000000000000
B0544083217087S11657296EA0142501491000000000000
B0544123217164S11657303EA0142601487000000000000
B0544163217240S11657303EA0141701478000000000000
B0544203217317S11657304EA0140901472000000000000
B0544243217396S11657307EA0140301463000000000000
B0544283217476S11657312EA0139401452000000000000
B0544323217554S11657317EA0138401443000000000000
B0544363217630S11657321EA0137501432000000000000
B0544403217707S11657329EA0136401419000000000000
B0544443217784S11657337EA0135501412000000000000
B0544483217858S11657341EA0135101409000000000000
B0544523217931S11657347EA0135101409000000000000
B0544563218003S11657358EA0135201410000000000000
B0545003218076S11657367EA0135101406000000000000
B0545043218152S11657374EA0134501400000000000000
B0545083218227S11657380EA0133601387000000000000
B0545123218306S11657384EA0132401375000000000000
B0545163218387S11657382EA0130801357000000000000
B0545203218469S11657384EA0129101340000000000000
B0545243218544S11657360EA0127801325000000000000
B0545283218620S11657329EA0125801301000000000000
B0545323218696S11657290EA0123701279000000000000
B0545363218776S11657247EA0121501257000000000000
B0545403218857S11657208EA0119601242000000000000
B0545443218942S11657196EA0119101243000000000000
B0545483219023S11657202EA0118901238000000000000
B0545523219102S11657208EA0118201231000000000000
B0545563219181S11657215EA0117401217000000000000
B0546003219263S11657218EA0116301207000000000000
B0546043219344S11657216EA0114901192000000000000
B0546083219427S11657216EA0113901185000000000000
B0546123219507S11657218EA0113501180000000000000
B0546163219585S11657224EA0112801170000000000000
B0546203219663S11657231EA0111701159000000000000
B0546243219740S11657234EA0110601149000000000000
B0546283219817S11657231EA0109701138000000000000
B0546323219891S11657229EA0109501132000000000000
B0546363219968S11657221EA0108701128000000000000
B0546403220043S11657213EA0108901131000000000000
B0546443220117S11657211EA0108601125000000000000
B0546483220187S11657209EA0108301125000000000000
B0546523220251S11657207EA0108801127000000000000
B0546563220313S11657195EA0108001117000000000000
B0547003220380S11657181EA0106201096000000000000
B0547043220451S11657178EA0105201093000000000000
B0547083220520S11657187EA0105101090000000000000
B0547123220588S11657213EA0104801087000000000000
B0547163220651S11657248EA0104101080000000000000
B0547203220718S11657281EA0104501090000000000000
B0547243220783S11657302EA0105301093000000000000
B0547283220846S11657302EA0105701099000000000000
B0547323220882S11657248EA0107201116000000000000
B0547363220839S11657194EA0107901122000000000000
B0547403220780S11657222EA0108901134000000000000
B0547443220776S11657291EA0109801141000000000000
B0547483220822S11657324EA0110201143000000000000
B0547523220870S11657293EA0111201160000000000000
B0547563220883S11657233EA0112301168000000000000
B0548003220850S11657177EA0113201180000000000000
B0548043220792S11657166EA0114101187000000000000
B0548083220745S11657213EA0114501192000000000000
B0548123220731S11657283EA0114801195000000000000
B0548163220746S11657352EA0115101201000000000000
B0548203220789S11657402EA0115701207000000000000
B0548243220837S11657390EA0116401215000000000000
B0548283220849S11657333EA0116701215000000000000
B0548323220811S11657282EA0116701216000000000000
B0548363220748S11657267EA0117101222000000000000
B0548403220709S11657319EA0118001231000000000000
B0548443220741S11657372EA0118401236000000000000
B0548483220796S11657358EA0118301236000000000000
B0548523220819S11657298EA0118501238000000000000
B0548563220791S11657237EA0118801242000000000000
B0549003220727S11657212EA0119401249000000000000
B0549043220661S11657218EA0120101254000000000000
B0549083220628S11657282EA0120201254000000000000
B0549123220653S11657348EA0120301256000000000000
B0549163220700S11657402EA0120101254000000000000
B0549203220757S11657425EA0120501260000000000000
B0549243220787S11657376EA0120901261000000000000
B0549283220761S11657313EA0119801247000000000000
B0549323220694S11657287EA0119501248000000000000
B0549363220619S11657277EA0119601251000000000000
B0549403220545S11657285EA0119801252000000000000
B0549443220495S11657345EA0120401256000000000000
B0549483220498S11657421EA0120001252000000000000
B0549523220538S11657480EA0119901253000000000000
B0549563220592S11657528EA0119301244000000000000
B0550003220650S11657571EA0118801240000000000000
B0550043220711S11657618EA0117801226000000000000
B0550083220774S11657664EA0117201219000000000000
B0550123220835S11657712EA0115901205000000000000
B0550163220900S11657767EA0115301202000000000000
B0550203220962S11657822EA0115901211000000000000
B0550243221019S11657811EA0118601239000000000000
B0550283221000S11657749EA0119701246000000000000
B0550323220931S11657741EA0119601247000000000000
B0550363220863S11657770EA0119801251000000000000
B0550403220840S11657841EA0120301258000000000000
B0550443220870S11657893EA0121301265000000000000
B0550483220915S11657876EA0121401265000000000000
B0550523220914S11657801EA0121801269000000000000
B0550563220852S11657771EA0122201276000000000000
B0551003220798S11657818EA0123101284000000000000
B0551043220791S11657885EA0123601290000000000000
B0551083220814S11657943EA0123301282000000000000
B0551123220852S11657997EA0122101272000000000000
B0551163220905S11658040EA0120901259000000000000
B0551203220967S11658080EA0120101251000000000000
B0551243221034S11658117EA0119301245000000000000
B0551283221104S11658152EA0118601236000000000000
B0551323221174S11658187EA0117601223000000000000
B0551363221247S11658221EA0117001217000000000000
B0551403221320S11658252EA0116301210000000000000
B0551443221395S11658281EA0115701207000000000000
B0551483221472S11658303EA0117101225000000000000
B0551523221525S11658266EA0119601247000000000000
B0551563221495S11658200EA0121001261000000000000
B0552003221426S11658199EA0121901269000000000000
B0552043221390S11658260EA0122101269000000000000
B0552083221404S11658334EA0121701269000000000000
B0552123221454S11658359EA0122801284000000000000
B0552163221485S11658310EA0123501285000000000000
B0552203221454S11658242EA0123501286000000000000
B0552243221383S11658223EA0123801290000000000000
B0552283221326S11658273EA0124201294000000000000
B0552323221311S11658355EA0125001303000000000000
B0552363221330S11658427EA0125501308000000000000
B0552403221382S11658468EA0125101300000000000000
B0552443221448S11658489EA0124001293000000000000
B0552483221519S11658509EA0123801294000000000000
B0552523221589S11658526EA0124501306000000000000
B0552563221654S11658531EA0125801318000000000000
B0553003221686S11658482EA0127201331000000000000
B0553043221646S11658422EA0127801335000000000000
B0553083221574S11658429EA0128101338000000000000
B0553123221539S11658500EA0129501354000000000000
B0553163221561S11658567EA0130701364000000000000
B0553203221615S11658583EA0130401358000000000000
B0553243221649S11658529EA0130201360000000000000
B0553283221626S11658457EA0130601363000000000000
B0553323221565S11658407EA0130501361000000000000
B0553363221494S11658392EA0131701379000000000000
B0553403221465S11658451EA0133401392000000000000
B0553443221498S11658504EA0133201391000000000000
B0553483221534S11658473EA0134001402000000000000
B0553523221504S11658417EA0134401402000000000000
B0553563221438S11658420EA0134601407000000000000
B0554003221398S11658479EA0135201410000000000000
B0554043221404S11658552EA0135201408000000000000
B0554083221450S11658599EA0134601408000000000000
B0554123221507S11658596EA0135401418000000000000
B0554163221545S11658547EA0136701432000000000000
B0554203221534S11658481EA0138001443000000000000
B0554243221472S11658459EA0137801439000000000000
B0554283221415S11658509EA0137401435000000000000
B0554323221411S11658593EA0137701439000000000000
B0554363221443S11658660EA0137701443000000000000
B0554403221500S11658690EA0138201448000000000000
B0554443221565S11658698EA0138201445000000000000
B0554483221636S11658699EA0137801442000000000000
B0554523221706S11658700EA0138101449000000000000
B0554563221779S11658703EA0137801436000000000000
B0555003221854S11658713EA0137001434000000000000
B0555043221931S11658724EA0136901431000000000000
B0555083222009S11658743EA0135101412000000000000
B0555123222089S11658769EA0134001404000000000000
B0555163222166S11658795EA0133801397000000000000
B0555203222241S11658824EA0132801386000000000000
B0555243222317S11658851EA0131401371000000000000
B0555283222392S11658876EA0130201357000000000000
B0555323222465S11658866EA0128801342000000000000
B0555363222529S11658824EA0128001337000000000000
B0555403222581S11658768EA0128701346000000000000
B0555443222607S11658690EA0128901343000000000000
B0555483222635S11658608EA0127201326000000000000
B0555523222672S11658528EA0126901326000000000000
B0555563222721S11658469EA0128101341000000000000
B0556003222776S11658430EA0128901347000000000000
B0556043222834S11658391EA0128801342000000000000
B0556083222898S11658352EA0128601347000000000000
B0556123222900S11658284EA0131001374000000000000
B0556163222838S11658281EA0131401371000000000000
B0556203222804S11658355EA0132101384000000000000
B0556243222839S11658405EA0134101403000000000000
B0556283222887S11658381EA0134501403000000000000
B0556323222891S11658309EA0134501405000000000000
B0556363222838S11658265EA0135401415000000000000
B0556403222769S11658281EA0135201410000000000000
B0556443222728S11658351EA0135501420000000000000
B0556483222735S11658426EA0136701433000000000000
B0556523222786S11658459EA0137901445000000000000
B0556563222835S11658425EA0138601452000000000000
B0557003222826S11658359EA0139801465000000000000
B0557043222769S11658334EA0140101465000000000000
B0557083222716S11658386EA0140301469000000000000
B0557123222720S11658460EA0141501484000000000000
B0557163222769S11658478EA0143301504000000000000
B0557203222803S11658431EA0144301513000000000000
B0557243222780S11658372EA0144401512000000000000
B0557283222716S11658361EA0145001518000000000000
B0557323222664S11658411EA0145501524000000000000
B0557363222665S11658481EA0146501534000000000000
B0557403222716S11658507EA0147301541000000000000
B0557443222769S11658473EA0147801552000000000000
B0557483222776S11658407EA0149301567000000000000
B0557523222735S11658356EA0149801568000000000000
B0557563222668S11658359EA0149101559000000000000
B0558003222620S11658421EA0149001563000000000000
B0558043222627S11658495EA0149901575000000000000
B0558083222679S11658513EA0151201587000000000000
B0558123222731S11658474EA0151701587000000000000
B0558163222729S11658404EA0152101597000000000000
B0558203222673S11658369EA0152701598000000000000
B0558243222607S11658398EA0152201590000000000000
B0558283222568S11658472EA0152101594000000000000
B0558323222560S11658551EA0153101608000000000000
B0558363222595S11658607EA0155001626000000000000
B0558403222650S11658606EA0155701631000000000000
B0558443222678S11658548EA0155701631000000000000
B0558483222650S11658483EA0155601630000000000000
B0558523222587S11658468EA0155701634000000000000
B0558563222530S11658508EA0156201636000000000000
B0559003222514S11658577EA0157501655000000000000
B0559043222561S11658603EA0158901668000000000000
B0559083222591S11658552EA0159801676000000000000
B0559123222560S11658495EA0160001678000000000000
B0559163222496S11658487EA0160101674000000000000
B0559203222443S11658542EA0160201680000000000000
B0559243222452S11658611EA0161901704000000000000
B0559283222501S11658600EA0164101722000000000000
B0559323222503S11658534EA0164901729000000000000
B0559363222453S11658491EA0165301731000000000000
B0559403222386S11658518EA0165101729000000000000
B0559443222352S11658595EA0165901738000000000000
B0559483222382S11658654EA0167301753000000000000
B0559523222435S11658632EA0168301764000000000000
B0559563222427S11658561EA0169601779000000000000
B0600003222366S11658550EA0170501788000000000000
B0600043222323S11658612EA0171301796000000000000
B0600083222338S11658678EA0172701808000000000000
B0600123222390S11658689EA0173601821000000000000
B0600163222405S11658630EA0174701832000000000000
B0600203222356S11658591EA0175501843000000000000
B0600243222302S11658635EA0176701848000000000000
B0600283222314S11658704EA0177801860000000000000
B0600323222366S11658708EA0178501868000000000000
B0600363222379S11658646EA0179401879000000000000
B0600403222331S11658608EA0180701893000000000000
B0600443222274S11658638EA0182001900000000000000
B0600483222262S11658711EA0181601893000000000000
B0600523222309S11658752EA0182201905000000000000
B0600563222349S11658720EA0183701919000000000000
B0601003222338S11658660EA0184401927000000000000
B0601043222280S11658638EA0184501925000000000000
B0601083222222S11658676EA0184801931000000000000
B0601123222196S11658745EA0185701938000000000000
B0601163222206S11658816EA0186201939000000000000
B0601203222243S11658871EA0185801936000000000000
B0601243222295S11658902EA0185401929000000000000
B0601283222356S11658925EA0183901912000000000000
B0601323222423S11658946EA0182501896000000000000
B0601363222497S11658959EA0179901868000000000000
B0601403222579S11658951EA0177401847000000000000
B0601443222663S11658938EA0176301839000000000000
B0601483222744S11658921EA0175301829000000000000
B0601523222826S11658902EA0174501819000000000000
B0601563222910S11658880EA0174101815000000000000
B0602003222991S11658859EA0173701808000000000000
B0602043223075S11658838EA0173101806000000000000
B0602083223157S11658817EA0173301808000000000000
B0602123223235S11658798EA0174101816000000000000
B0602163223310S11658778EA0174901823000000000000
B0602203223384S11658756EA0175001823000000000000
B0602243223458S11658738EA0174801816000000000000
B0602283223536S11658719EA0173801807000000000000
B0602323223615S11658702EA0173301801000000000000
B0602363223700S11658686EA0172401791000000000000
B0602403223787S11658674EA0171401777000000000000
B0602443223879S11658659EA0169701767000000000000
B0602483223969S11658645EA0169301762000000000000
B0602523224059S11658628EA0169101759000000000000
B0602563224150S11658613EA0168401751000000000000
B0603003224239S11658598EA0168001750000000000000
B0603043224327S11658583EA0168101747000000000000
B0603083224411S11658568EA0168101748000000000000
B0603123224492S11658550EA0168101747000000000000
B0603163224572S11658531EA0167401732000000000000
B0603203224658S11658516EA0165201711000000000000
B0603243224745S11658494EA0163701694000000000000
B0603283224821S11658444EA0162401685000000000000
B0603323224893S11658390EA0161501677000000000000
B0603363224973S11658352EA0161201675000000000000
B0603403225051S11658322EA0161301676000000000000
B0603443225126S11658290EA0160901673000000000000
B0603483225199S11658253EA0160501668000000000000
B0603523225272S11658221EA0160001663000000000000
B0603563225347S11658195EA0159401656000000000000
B0604003225425S11658167EA0158301644000000000000
B0604043225504S11658143EA0157201634000000000000
B0604083225588S11658125EA0156601629000000000000
B0604123225672S11658104EA0155501612000000000000
B0604163225762S11658084EA0154001599000000000000
B0604203225850S11658062EA0154001606000000000000
B0604243225933S11658045EA0154701608000000000000
B0604283226014S11658024EA0154201599000000000000
B0604323226097S11658002EA0152301578000000000000
B0604363226176S11657966EA0151801577000000000000
B0604403226254S11657930EA0152101581000000000000
B0604443226334S11657897EA0152101584000000000000
B0604483226395S11657852EA0155101615000000000000
B0604523226405S11657781EA0157101630000000000000
B0604563226356S11657725EA0157401631000000000000
B0605003226279S11657699EA0157401631000000000000
B0605043226201S11657710EA0158101644000000000000
B0605083226166S11657779EA0159001646000000000000
B0605123226196S11657845EA0158001632000000000000
B0605163226257S11657885EA0157201626000000000000
B0605203226330S11657902EA0156401620000000000000
B0605243226408S11657904EA0155801617000000000000
B0605283226485S11657888EA0156301627000000000000
B0605323226560S11657865EA0156401620000000000000
B0605363226637S11657837EA0154901604000000000000
B0605403226715S11657807EA0154001602000000000000
B0605443226791S11657767EA0153401592000000000000
B0605483226868S11657731EA0153401597000000000000
B0605523226943S11657698EA0153101589000000000000
B0605563227019S11657666EA0152101582000000000000
B0606003227096S11657637EA0150801564000000000000
B0606043227176S11657607EA0149801554000000000000
B0606083227257S11657577EA0148901544000000000000
B0606123227339S11657551EA0147801531000000000000
B0606163227423S11657525EA0146401520000000000000
B0606203227506S11657489EA0146001517000000000000
B0606243227588S11657454EA0145601513000000000000
B0606283227669S11657423EA0145201508000000000000
B0606323227748S11657387EA0144301498000000000000
B0606363227829S11657351EA0142601482000000000000
B0606403227916S11657326EA0141501474000000000000
B0606443228002S11657304EA0141001462000000000000
B0606483228085S11657273EA0139801457000000000000
B0606523228163S11657239EA0139901454000000000000
B0606563228232S11657196EA0140501467000000000000
B0607003228295S11657153EA0140801465000000000000
B0607043228358S11657108EA0139901453000000000000
B0607083228429S11657066EA0138001434000000000000
B0607123228503S11657026EA0137001424000000000000
B0607163228580S11656984EA0135701405000000000000
B0607203228669S11656966EA0134601404000000000000
B0607243228750S11656947EA0135201408000000000000
B0607283228830S11656922EA0134301392000000000000
B0607323228912S11656891EA0132001369000000000000
B0607363228995S11656864EA0130901361000000000000
B0607403229075S11656835EA0130101354000000000000
B0607443229152S11656800EA0129401344000000000000
B0607483229228S11656758EA0128401336000000000000
B0607523229299S11656709EA0128001334000000000000
B0607563229373S11656672EA0128301336000000000000
B0608003229446S11656645EA0128301336000000000000
B0608043229517S11656615EA0127701325000000000000
B0608083229593S11656585EA0126701317000000000000
B0608123229672S11656568EA0125801306000000000000
B0608163229755S11656574EA0124901297000000000000
B0608203229840S11656598EA0123701284000000000000
B0608243229923S11656640EA0122801277000000000000
B0608283230001S11656692EA0121901266000000000000
B0608323230078S11656753EA0120701253000000000000
B0608363230151S11656819EA0119501241000000000000
B0608403230223S11656891EA0118301227000000000000
B0608443230295S11656969EA0117301216000000000000
B0608483230362S11657049EA0116801213000000000000
B0608523230425S11657131EA0116401208000000000000
B0608563230482S11657215EA0116001202000000000000
B0609003230538S11657298EA0115001190000000000000
B0609043230590S11657384EA0114201184000000000000
B0609083230638S11657469EA0114001186000000000000
B0609123230682S11657553EA0114001183000000000000
B0609163230725S11657637EA0113601179000000000000
B0609203230767S11657720EA0113601179000000000000
B0609243230817S11657798EA0114401189000000000000
B0609283230877S11657806EA0117201219000000000000
B0609323230876S11657748EA0119301243000000000000
B0609363230820S11657736EA0120701257000000000000
B0609403230780S11657793EA0121001260000000000000
B0609443230802S11657862EA0121701270000000000000
B0609483230847S11657853EA0122601277000000000000
B0609523230842S11657796EA0123301290000000000000
B0609563230786S11657780EA0124701304000000000000
B0610003230741S11657831EA0125801312000000000000
B0610043230743S11657904EA0126701324000000000000
B0610083230789S11657926EA0127801333000000000000
B0610123230801S11657874EA0127801335000000000000
B0610163230747S11657853EA0129001350000000000000
B0610203230700S11657904EA0129501350000000000000
B0610243230706S11657983EA0130601362000000000000
B0610283230754S11658019EA0132201379000000000000
B0610323230795S11657991EA0133201393000000000000
B0610363230793S11657927EA0134101398000000000000
B0610403230745S11657876EA0134501408000000000000
B0610443230678S11657875EA0136001424000000000000
B0610483230625S11657926EA0137001431000000000000
B0610523230609S11658009EA0137401431000000000000
B0610563230642S11658087EA0137201430000000000000
B0611003230704S11658104EA0138601451000000000000
B0611043230745S11658061EA0140201466000000000000
B0611083230728S11658000EA0141301478000000000000
B0611123230668S11657988EA0142501487000000000000
B0611163230615S11658044EA0143201495000000000000
B0611203230599S11658126EA0144301510000000000000
B0611243230629S11658183EA0145501519000000000000
B0611283230680S11658186EA0146101529000000000000
B0611323230710S11658144EA0147701545000000000000
B0611363230698S11658091EA0148201548000000000000
B0611403230643S11658065EA0148501553000000000000
B0611443230589S11658106EA0149601564000000000000
B0611483230583S11658184EA0150601571000000000000
B0611523230625S11658230EA0151101578000000000000
B0611563230664S11658208EA0151801585000000000000
B0612003230652S11658156EA0151901585000000000000
B0612043230595S11658144EA0152101591000000000000
B0612083230552S11658204EA0153101600000000000000
B0612123230565S11658279EA0154001610000000000000
B0612163230612S11658316EA0154701615000000000000
B0612203230655S11658295EA0155401624000000000000
B0612243230659S11658238EA0155701628000000000000
B0612283230626S11658186EA0156401636000000000000
B0612323230574S11658158EA0157501647000000000000
B0612363230525S11658205EA0158401654000000000000
B0612403230535S11658291EA0158501654000000000000
B0612443230590S11658342EA0159001663000000000000
B0612483230650S11658360EA0159501668000000000000
B0612523230695S11658330EA0160201674000000000000
B0612563230693S11658270EA0160801679000000000000
B0613003230643S11658243EA0161201686000000000000
B0613043230583S11658275EA0161701690000000000000
B0613083230548S11658352EA0162101693000000000000
B0613123230554S11658438EA0162401695000000000000
B0613163230603S11658492EA0162401698000000000000
B0613203230668S11658507EA0162201696000000000000
B0613243230736S11658499EA0161901692000000000000
B0613283230804S11658482EA0161501687000000000000
B0613323230863S11658442EA0161401685000000000000
B0613363230910S11658386EA0161101683000000000000
B0613403230947S11658321EA0160501671000000000000
B0613443230976S11658245EA0158901654000000000000
B0613483231003S11658167EA0157501645000000000000
B0613523231024S11658087EA0156901635000000000000
B0613563231023S11658004EA0156701637000000000000
B0614003230989S11657936EA0157201639000000000000
B0614043230928S11657904EA0157501638000000000000
B0614083230856S11657918EA0156501625000000000000
B0614123230781S11657945EA0155601621000000000000
B0614163230711S11657988EA0156101627000000000000
B0614203230643S11658039EA0155901621000000000000
B0614243230572S11658086EA0156101627000000000000
B0614283230505S11658134EA0157201639000000000000
B0614323230490S11658214EA0159301661000000000000
B0614363230534S11658260EA0160201672000000000000
B0614403230581S11658242EA0160601676000000000000
B0614443230578S11658188EA0160501677000000000000
B0614483230526S11658166EA0160601676000000000000
B0614523230472S11658214EA0161301683000000000000
B0614563230463S11658299EA0161601685000000000000
B0615003230500S11658366EA0161901690000000000000
B0615043230557S11658385EA0162301693000000000000
B0615083230606S11658360EA0162401696000000000000
B0615123230628S11658308EA0162301693000000000000
B0615163230615S11658247EA0161301683000000000000
B0615203230583S11658186EA0160701678000000000000
B0615243230541S11658130EA0160501678000000000000
B0615283230496S11658076EA0161201688000000000000
B0615323230452S11658026EA0162401698000000000000
B0615363230398S11657985EA0163201705000000000000
B0615403230335S11658008EA0164501720000000000000
B0615443230316S11658083EA0165301723000000000000
B0615483230356S11658143EA0165701732000000000000
B0615523230411S11658132EA0166801741000000000000
B0615563230422S11658075EA0167401749000000000000
B0616003230378S11658032EA0167701750000000000000
B0616043230314S11658054EA0168101759000000000000
B0616083230277S11658126EA0169101764000000000000
B0616123230286S11658210EA0169601769000000000000
B0616163230338S11658260EA0170301776000000000000
B0616203230390S11658242EA0170901784000000000000
B0616243230405S11658184EA0171301786000000000000
B0616283230394S11658123EA0171401789000000000000
B0616323230346S11658086EA0171801793000000000000
B0616363230283S11658109EA0171801794000000000000
B0616403230248S11658187EA0172201798000000000000
B0616443230266S11658270EA0173201810000000000000
B0616483230317S11658317EA0174401818000000000000
B0616523230375S11658310EA0173901815000000000000
B0616563230401S11658257EA0174201820000000000000
B0617003230379S11658199EA0174801826000000000000
B0617043230320S11658180EA0175201831000000000000
B0617083230260S11658222EA0176001839000000000000
B0617123230238S11658301EA0176801850000000000000
B0617163230264S11658373EA0177701853000000000000
B0617203230321S11658407EA0177501849000000000000
B0617243230378S11658391EA0177001847000000000000
B0617283230411S11658339EA0177301849000000000000
B0617323230401S11658277EA0177501849000000000000
B0617363230359S11658226EA0176601838000000000000
B0617403230291S11658203EA0175901834000000000000
B0617443230214S11658204EA0176101838000000000000
B0617483230138S11658213EA0176601844000000000000
B0617523230061S11658225EA0176801844000000000000
B0617563229982S11658242EA0176701841000000000000
B0618003229901S11658255EA0176901843000000000000
B0618043229822S11658270EA0176701839000000000000
B0618083229740S11658288EA0176001828000000000000
B0618123229653S11658301EA0174901820000000000000
B0618163229567S11658323EA0175101821000000000000
B0618203229484S11658355EA0175201822000000000000
B0618243229400S11658388EA0174701816000000000000
B0618283229319S11658424EA0174401812000000000000
B0618323229235S11658455EA0173701803000000000000
B0618363229148S11658483EA0172601792000000000000
B0618403229059S11658508EA0172101790000000000000
B0618443228969S11658526EA0171701786000000000000
B0618483228879S11658543EA0171001778000000000000
B0618523228788S11658560EA0170501771000000000000
B0618563228698S11658578EA0170101766000000000000
B0619003228607S11658595EA0169801761000000000000
B0619043228513S11658612EA0168701751000000000000
B0619083228418S11658625EA0168501757000000000000
B0619123228329S11658637EA0169201759000000000000
B0619163228242S11658646EA0168901752000000000000
B0619203228152S11658658EA0168101745000000000000
B0619243228063S11658668EA0167601742000000000000
B0619283227976S11658678EA0167201737000000000000
B0619323227890S11658689EA0166801734000000000000
B0619363227805S11658699EA0166601729000000000000
B0619403227721S11658708EA0165901720000000000000
B0619443227632S11658717EA0165001707000000000000
B0619483227541S11658728EA0164001704000000000000
B0619523227453S11658738EA0164101702000000000000
B0619563227367S11658747EA0163901700000000000000
B0620003227281S11658758EA0163301693000000000000
B0620043227197S11658769EA0162901692000000000000
B0620083227115S11658782EA0162901693000000000000
B0620123227034S11658794EA0163001692000000000000
B0620163226954S11658807EA0162601685000000000000
B0620203226873S11658821EA0162201684000000000000
B0620243226793S11658836EA0162201683000000000000
B0620283226712S11658851EA0161601672000000000000
B0620323226631S11658866EA0160401662000000000000
B0620363226550S11658879EA0159701653000000000000
B0620403226469S11658892EA0158901645000000000000
B0620443226386S11658903EA0158001630000000000000
B0620483226301S11658915EA0156701620000000000000
B0620523226214S11658923EA0155501608000000000000
B0620563226126S11658928EA0154601598000000000000
B0621003226033S11658929EA0153201583000000000000
B0621043225941S11658928EA0152601583000000000000
B0621083225850S11658925EA0152201574000000000000
B0621123225758S11658924EA0151001564000000000000
B0621163225664S11658919EA0150401554000000000000
B0621203225568S11658919EA0149701549000000000000
B0621243225471S11658925EA0149201545000000000000
B0621283225369S11658927EA0148701541000000000000
B0621323225265S11658929EA0148501544000000000000
B0621363225178S11658970EA0151401583000000000000
B0621403225148S11659059EA0154401602000000000000
B0621443225187S11659127EA0154701602000000000000
B0621483225251S11659118EA0154301601000000000000
B0621523225273S11659049EA0155001614000000000000
B0621563225237S11658986EA0157101640000000000000
B0622003225170S11658977EA0159001653000000000000
B0622043225112S11659029EA0159001651000000000000
B0622083225087S11659115EA0159401656000000000000
B0622123225116S11659180EA0160001666000000015000
B0622163225174S11659179EA0159801661000000015000
B0622203225207S11659118EA0159801670000000015000
B0622243225214S11659044EA0160201674000000015000
B0622283225183S11658976EA0161201690000000015000
B0622323225116S11658976EA0162601702000000015000
B0622363225074S11659046EA0163301708000000000000
B0622403225097S11659116EA0164501721000000015000
B0622443225148S11659127EA0165401731000000015000
B0622483225165S11659083EA0166401739000000015000
B0622523225121S11659040EA0165701731000000015000
B0622563225051S11659050EA0165801733000000000000
B0623003225010S11659122EA0166501742000000000000
B0623043225026S11659200EA0167201745000000000000
B0623083225078S11659232EA0167201746000000000000
B0623123225118S11659200EA0168001757000000000000
B0623163225109S11659144EA0168701756000000000000
B0623203225051S11659109EA0168001751000000000000
B0623243224974S11659107EA0167101738000000000000
B0623283224888S11659118EA0166201733000000000000
B0623323224798S11659131EA0165601722000000000000
B0623363224704S11659141EA0164001705000000000000
B0623403224602S11659152EA0162501688000000000000
B0623443224498S11659149EA0161201674000000000000
B0623483224394S11659136EA0160401672000000000000
B0623523224293S11659118EA0159901662000000000000
B0623563224194S11659101EA0159101654000000000000
B0624003224095S11659088EA0158501649000000000000
B0624043223999S11659070EA0158901658000000000000
B0624083223909S11659049EA0160401671000000000000
B0624123223823S11659029EA0160701672000000000000
B0624163223742S11659014EA0160701669000000000000
B0624203223658S11658999EA0160101660000000000000
B0624243223575S11658985EA0159301656000000000000
B0624283223491S11658970EA0159301654000000000000
B0624323223406S11658957EA0158801650000000000000
B0624363223320S11658941EA0158901653000000000000
B0624403223238S11658925EA0159901666000000000000
B0624443223158S11658907EA0160301663000000000000
B0624483223075S11658893EA0159601658000000000000
B0624523222988S11658885EA0158801645000000000000
B0624563222897S11658877EA0157901638000000000000
B0625003222806S11658873EA0157801640000000000000
B0625043222712S11658869EA0157701635000000000000
B0625083222618S11658860EA0157101633000000000000
B0625123222525S11658859EA0156801628000000000000
B0625163222430S11658858EA0156601626000000000000
B0625203222338S11658855EA0156601624000000000000
B0625243222248S11658855EA0156301622000000000000
B0625283222159S11658855EA0156001618000000000000
B0625323222072S11658854EA0155501612000000000000
B0625363221984S11658851EA0154401600000000000000
B0625403221894S11658845EA0153701594000000000000
B0625443221805S11658840EA0152901584000000000000
B0625483221715S11658832EA0152101575000000000000
B0625523221625S11658816EA0151101564000000000000
B0625563221535S11658785EA0150101555000000000000
B0626003221455S11658737EA0150601569000000000000
B0626043221381S11658689EA0152301583000000000000
B0626083221301S11658661EA0152701582000000000000
B0626123221217S11658642EA0152701582000000000000
B0626163221129S11658624EA0152301579000000000000
B0626203221039S11658609EA0152301577000000000000
B0626243220949S11658613EA0152801587000000000000
B0626283220861S11658630EA0152501577000000000000
B0626323220767S11658643EA0150401556000000000000
B0626363220670S11658652EA0149501549000000000000
B0626403220573S11658658EA0149201545000000000000
B0626443220477S11658661EA0148801543000000000000
B0626483220382S11658664EA0148001530000000000000
B0626523220286S11658664EA0146801519000000000000
B0626563220191S11658668EA0145901509000000000000
B0627003220096S11658673EA0144601493000000000000
B0627043220003S11658680EA0143201482000000000000
B0627083219909S11658680EA0142401474000000000000
B0627123219816S11658674EA0141501466000000000000
B0627163219721S11658669EA0140801458000000000000
B0627203219626S11658661EA0140101449000000000000
B0627243219531S11658654EA0139201438000000000000
B0627283219432S11658648EA0137801423000000000000
B0627323219331S11658641EA0136601413000000000000
B0627363219232S11658626EA0136101414000000000000
B0627403219136S11658612EA0136001409000000000000
B0627443219039S11658606EA0136001413000000000000
B0627483218946S11658600EA0136401416000000000000
B0627523218854S11658596EA0136901416000000000000
B0627563218759S11658594EA0136001404000000000000
B0628003218660S11658589EA0134801398000000000000
B0628043218564S11658585EA0135401404000000000000
B0628083218469S11658581EA0135801411000000000000
B0628123218379S11658586EA0136801417000000000000
B0628163218289S11658595EA0136501414000000000000
B0628203218200S11658613EA0136201406000000000000
B0628243218106S11658635EA0135101398000000000000
B0628283218014S11658660EA0134301389000000000000
B0628323217920S11658680EA0133101373000000000000
B0628363217824S11658689EA0131901363000000000000
B0628403217729S11658691EA0131101359000000000000
B0628443217634S11658694EA0130001337000000000000
B0628483217534S11658689EA0127801320000000000000
B0628523217437S11658677EA0127601321000000000000
B0628563217338S11658677EA0127601316000000000000
B0629003217236S11658680EA0126801305000000000000
B0629043217132S11658680EA0125701302000000000000
B0629083217032S11658677EA0126101306000000000000
B0629123216936S11658673EA0126101303000000000000
B0629163216840S11658665EA0125701297000000000000
B0629203216742S11658659EA0125001291000000000000
B0629243216644S11658652EA0124201283000000000000
B0629283216546S11658648EA0123301273000000000000
B0629323216446S11658645EA0121701256000000000000
B0629363216347S11658642EA0120901250000000000000
B0629403216250S11658641EA0120401245000000000000
B0629443216152S11658639EA0119501233000000000000
B0629483216055S11658638EA0118601227000000000000
B0629523215962S11658639EA0118801227000000000000
B0629563215880S11658687EA0120001246000000000000
B0630003215875S11658778EA0121901263000000000000
B0630043215931S11658819EA0121901270000000000000
B0630083216004S11658833EA0120701257000000000000
B0630123216077S11658838EA0120001250000000000000
B0630163216127S11658795EA0119901247000000000000
B0630203216124S11658723EA0118801232000000000000
B0630243216064S11658671EA0116101204000000000000
B0630283215974S11658658EA0114501184000000000000
B0630323215882S11658656EA0112901174000000000000
B0630363215787S11658655EA0112801172000000000000
B0630403215695S11658650EA0112901175000000000000
B0630443215602S11658646EA0113001169000000000000
B0630483215506S11658642EA0111401144000000000000
B0630523215407S11658638EA0109301127000000000000
B0630563215307S11658634EA0108701130000000000000
B0631003215215S11658629EA0110501153000000000000
B0631043215129S11658626EA0112501167000000000000
B0631083215048S11658637EA0114001183000000000000
B0631123215004S11658694EA0116701209000000000000
B0631163215032S11658743EA0117601218000000000000
B0631203215086S11658732EA0116801212000000000000
B0631243215123S11658671EA0116701218000000000000
B0631283215119S11658596EA0118001233000000000000
B0631323215074S11658538EA0118501236000000000000
B0631363215008S11658525EA0119501250000000000000
B0631403214956S11658567EA0120901261000000000000
B0631443214951S11658633EA0121401264000000000000
B0631483214998S11658664EA0121801273000000015000
B0631523215042S11658632EA0122801282000000015000
B0631563215050S11658564EA0123801292000000000000
B0632003215011S11658507EA0124601299000000000000
B0632043214944S11658500EA0125001301000000000000
B0632083214900S11658554EA0125501310000000000000
B0632123214912S11658619EA0126501317000000000000
B0632163214965S11658625EA0127101329000000015000
B0632203215004S11658568EA0128001339000000015000
B0632243214987S11658495EA0129401355000000015000
B0632283214928S11658464EA0130601364000000000000
B0632323214872S11658498EA0131301367000000000000
B0632363214853S11658567EA0131001364000000000000
B0632403214886S11658628EA0131401370000000000000
B0632443214939S11658660EA0132901382000000000000
B0632483214996S11658645EA0134201400000000000000
B0632523215025S11658585EA0134901408000000000000
B0632563215016S11658512EA0136101417000000000000
B0633003214968S11658464EA0136901424000000000000
B0633043214903S11658478EA0137401433000000000000
B0633083214876S11658546EA0138401444000000000000
B0633123214907S11658603EA0140201466000000000000
B0633163214963S11658608EA0141901474000000000000
B0633203215007S11658563EA0142701481000000000000
B0633243215009S11658491EA0143101489000000000000
B0633283214974S11658431EA0143701495000000000000
B0633323214909S11658413EA0144001496000000000000
B0633363214853S11658452EA0144401503000000000000
B0633403214843S11658524EA0145601516000000000000
B0633443214879S11658576EA0147001528000000000000
B0633483214938S11658585EA0147701533000000000000
B0633523214990S11658550EA0148001538000000000000
B0633563215008S11658481EA0148301538000000000000
B0634003214985S11658411EA0147801529000000000000
B0634043214928S11658361EA0147201529000000000000
B0634083214861S11658339EA0147401531000000000000
B0634123214788S11658329EA0147701532000000000000
B0634163214717S11658325EA0147201524000000000000
B0634203214644S11658323EA0146901524000000000000
B0634243214569S11658321EA0146701519000000000000
B0634283214489S11658320EA0145901512000000000000
B0634323214406S11658316EA0144901499000000000000
B0634363214319S11658309EA0143901493000000000000
B0634403214231S11658304EA0143601491000000000000
B0634443214140S11658299EA0143301486000000000000
B0634483214049S11658295EA0142701479000000000000
B0634523213960S11658294EA0142801486000000000000
B0634563213877S11658295EA0143601491000000000000
B0635003213798S11658297EA0143101477000000000000
B0635043213716S11658296EA0141301459000000000000
B0635083213631S11658301EA0141201465000000000000
B0635123213550S11658312EA0141701468000000000000
B0635163213473S11658313EA0142101474000000000000
B0635203213397S11658313EA0142601476000000000000
B0635243213325S11658313EA0142901473000000000000
B0635283213247S11658310EA0142501465000000000000
B0635323213169S11658305EA0142501468000000000000
B0635363213089S11658304EA0141901466000000000000
B0635403213014S11658304EA0141501462000000000000
B0635443212936S11658303EA0140901453000000000000
B0635483212857S11658299EA0140601453000000000000
B0635523212775S11658294EA0140301453000000000000
B0635563212697S11658294EA0140801458000000000000
B0636003212619S11658297EA0140701453000000000000
B0636043212541S11658301EA0140301447000000000000
B0636083212459S11658307EA0139601440000000000000
B0636123212376S11658309EA0138901434000000000000
B0636163212292S11658314EA0138301424000000000000
B0636203212208S11658316EA0137901425000000000000
B0636243212122S11658314EA0138001424000000000000
B0636283212038S11658313EA0137601421000000000000
B0636323211952S11658310EA0136701408000000000000
B0636363211862S11658310EA0135701399000000000000
B0636403211776S11658313EA0135301397000000000000
B0636443211691S11658314EA0134901389000000000000
B0636483211603S11658313EA0134001381000000000000
B0636523211518S11658310EA0133301374000000000000
B0636563211432S11658308EA0132301360000000000000
B0637003211343S11658301EA0130501342000000000000
B0637043211258S11658295EA0129501338000000000000
B0637083211173S11658291EA0129801339000000000000
B0637123211091S11658287EA0129501332000000000000
B0637163211007S11658278EA0128401321000000000000
B0637203210921S11658270EA0127201308000000000000
B0637243210835S11658261EA0126301300000000000000
B0637283210751S11658251EA0125501293000000000000
B0637323210669S11658242EA0124901291000000000000
B0637363210589S11658235EA0126301308000000000000
B0637403210511S11658238EA0127101310000000000000
B0637443210445S11658278EA0127101307000000000000
B0637483210381S11658331EA0125801287000000000000
B0637523210298S11658374EA0124101276000000000000
B0637563210210S11658396EA0123901275000000000000
B0638003210119S11658405EA0123001265000000000000
B0638043210029S11658417EA0121801247000000000000
B0638083209936S11658429EA0119901228000000000000
B0638123209842S11658433EA0118701221000000000000
B0638163209750S11658427EA0118101212000000000000
B0638203209657S11658417EA0116801199000000000000
B0638243209570S11658394EA0115701188000000000000
B0638283209482S11658372EA0114701178000000000000
B0638323209392S11658357EA0113401163000000000000
B0638363209299S11658353EA0112201152000000000000
B0638403209204S11658360EA0111301145000000000000
B0638443209111S11658382EA0110801142000000000000
B0638483209024S11658414EA0111601152000000000000
B0638523208942S11658457EA0112101155000000000000
B0638563208862S11658504EA0112101152000000000000
B0639003208785S11658556EA0111801150000000000000
B0639043208717S11658621EA0111301143000000000000
B0639083208651S11658693EA0109701121000000000000
B0639123208573S11658752EA0107901106000000000000
B0639163208486S11658793EA0106901098000000000000
B0639203208398S11658806EA0106601095000000000000
B0639243208311S11658797EA0106101091000000000000
B0639283208226S11658777EA0105801088000000000000
B0639323208142S11658750EA0104801076000000000000
B0639363208058S11658719EA0103701068000000000000
B0639403207975S11658693EA0102901060000000000000
B0639443207893S11658661EA0102601056000000000000
B0639483207811S11658632EA0102401052000000000000
B0639523207727S11658600EA0101701043000000000000
B0639563207644S11658564EA0101001038000000000000
B0640003207559S11658525EA0101001042000000000000
B0640043207477S11658489EA0101801049000000000000
B0640083207394S11658453EA0101901050000000000000
B0640123207310S11658414EA0101801049000000000000
B0640163207224S11658404EA0103101062000000000000
B0640203207157S11658448EA0103701070000000000000
B0640243207135S11658529EA0103601055000000000000
B0640283207174S11658589EA0102001046000000000000
B0640323207237S11658613EA0101401041000000000000
B0640363207303S11658629EA0100501032000000000000
B0640403207368S11658615EA0100901042000000000000
B0640443207406S11658556EA0102601057000000000000
B0640483207401S11658479EA0103201062000000000000
B0640523207339S11658448EA0103901073000000000000
B0640563207310S11658505EA0103501064000000000000
B0641003207350S11658542EA0102901067000000000000
B0641043207404S11658542EA0103201069000000000000
B0641083207463S11658541EA0103401068000000000000
B0641123207525S11658534EA0103001061000000000000
B0641163207594S11658541EA0102401057000000000000
B0641203207664S11658550EA0102401059000000000000
B0641243207732S11658552EA0102801061000000000000
B0641283207798S11658537EA0102701058000000000000
B0641323207858S11658491EA0102101050000000000000
B0641363207898S11658416EA0101401046000000000000
B0641403207926S11658333EA0101801054000000000000
B0641443207917S11658253EA0103301071000000000000
B0641483207861S11658214EA0105101086000000000000
B0641523207801S11658245EA0107201107000000000000
B0641563207798S11658316EA0108601124000000000000
B0642003207852S11658330EA0109601147000000000000
B0642043207876S11658274EA0110201158000000000000
B0642083207841S11658222EA0110901162000000000000
B0642123207778S11658232EA0111801172000000000000
B0642163207748S11658299EA0113501189000000000000
B0642203207772S11658366EA0114701199000000000000
B0642243207831S11658390EA0115101210000000015000
B0642283207883S11658359EA0116301217000000000000
B0642323207905S11658296EA0115901210000000000000
B0642363207889S11658223EA0115301199000000000000
B0642403207839S11658167EA0114501192000000000000
B0642443207768S11658135EA0114401192000000000000
B0642483207694S11658109EA0114201189000000000000
B0642523207620S11658119EA0114801201000000000000
B0642563207606S11658187EA0116601217000000000000
B0643003207655S11658218EA0116801213000000000000
B0643043207711S11658184EA0115901205000000000000
B0643083207732S11658115EA0116001208000000000000
B0643123207711S11658039EA0115901206000000000000
B0643163207676S11657962EA0116001206000000000000
B0643203207633S11657883EA0115001191000000000000
B0643243207586S11657803EA0114501188000000000000
B0643283207545S11657723EA0113901177000000000000
B0643323207514S11657634EA0113001168000000000000
B0643363207497S11657546EA0112501166000000000000
B0643403207484S11657459EA0113001169000000000000
B0643443207475S11657372EA0113401174000000000000
B0643483207469S11657285EA0114201184000000000000
B0643523207455S11657205EA0116301209000000000000
B0643563207399S11657174EA0119201236000000000000
B0644003207352S11657228EA0119801237000000000000
B0644043207369S11657307EA0119701238000000000000
B0644083207428S11657341EA0120001244000000000000
B0644123207485S11657313EA0121001257000000000000
B0644163207499S11657247EA0122601278000000000000
B0644203207468S11657190EA0124301292000000000000
B0644243207407S11657164EA0125101299000000000000
B0644283207342S11657182EA0126401311000000000000
B0644323207300S11657241EA0127401320000000000000
B0644363207302S11657315EA0127701320000000000000
B0644403207349S11657361EA0128301328000000000000
B0644443207408S11657360EA0128601333000000000000
B0644483207451S11657313EA0129301344000000000000
B0644523207446S11657246EA0130901360000000000000
B0644563207393S11657202EA0131901368000000000000
B0645003207325S11657213EA0132801379000000000000
B0645043207280S11657272EA0134001390000000000000
B0645083207276S11657346EA0134901398000000000000
B0645123207316S11657394EA0135301398000000000000
B0645163207373S11657386EA0135601404000000000000
B0645203207411S11657337EA0136201414000000000000
B0645243207384S11657281EA0137401430000000000000
B0645283207321S11657287EA0138701441000000000000
B0645323207290S11657351EA0139901452000000000000
B0645363207315S11657411EA0140501455000000000000
B0645403207365S11657420EA0140901458000000015000
B0645443207398S11657377EA0141301467000000000000
B0645483207386S11657319EA0142401480000000000000
B0645523207342S11657276EA0143701491000000000000
B0645563207278S11657296EA0144101496000000000000
B0646003207252S11657369EA0144601503000000000000
B0646043207278S11657434EA0145201507000000000000
B0646083207334S11657463EA0145101505000000000000
B0646123207397S11657454EA0145301509000000000000
B0646163207450S11657417EA0146201522000000000000
B0646203207451S11657352EA0147401530000000000000
B0646243207391S11657313EA0147401530000000000000
B0646283207312S11657304EA0147701538000000000000
B0646323207233S11657306EA0148701544000000000000
B0646363207152S11657308EA0148501541000000000000
B0646403207065S11657315EA0147701533000000000000
B0646443206977S11657334EA0147701534000000000000
B0646483206887S11657355EA0147401529000000000000
B0646523206796S11657371EA0147101525000000000000
B0646563206705S11657387EA0146701522000000000000
B0647003206615S11657403EA0146201512000000000000
B0647043206523S11657416EA0144901499000000000000
B0647083206428S11657416EA0144201494000000000000
B0647123206333S11657411EA0143701492000000000000
B0647163206241S11657407EA0143701491000000000000
B0647203206153S11657406EA0143901492000000000000
B0647243206063S11657400EA0142601467000000000000
B0647283205968S11657391EA0141001458000000000000
B0647323205874S11657381EA0140301453000000000000
B0647363205781S11657373EA0140101454000000000000
B0647403205691S11657364EA0140201456000000000000
B0647443205604S11657358EA0140301453000000000000
B0647483205517S11657354EA0139601443000000000000
B0647523205428S11657356EA0138101426000000000000
B0647563205340S11657355EA0137001412000000000000
B0648003205252S11657348EA0135401394000000000000
B0648043205161S11657343EA0134401390000000000000
B0648083205072S11657337EA0134001386000000000000
B0648123204983S11657332EA0133701381000000000000
B0648163204892S11657335EA0133001372000000000000
B0648203204804S11657360EA0132201362000000000000
B0648243204729S11657417EA0130901352000000000000
B0648283204664S11657486EA0130301343000000000000
B0648323204604S11657563EA0129101330000000000000
B0648363204550S11657641EA0128801335000000000000
B0648403204499S11657715EA0129201335000000000000
B0648443204463S11657794EA0128601325000000000000
B0648483204448S11657881EA0127301314000000000000
B0648523204450S11657970EA0126901311000000000000
B0648563204455S11658057EA0126901311000000000000
B0649003204463S11658145EA0127401317000000000000
B0649043204481S11658227EA0129301332000000000000
B0649083204529S11658247EA0132001356000000000000
B0649123204556S11658193EA0133001368000000000000
B0649163204521S11658135EA0133301373000000000000
B0649203204456S11658127EA0134301389000000000000
B0649243204411S11658177EA0135801402000000000000
B0649283204414S11658248EA0136701414000000000000
B0649323204461S11658275EA0138201437000000000000
B0649363204502S11658234EA0139301446000000000000
B0649403204489S11658169EA0140101456000000000000
B0649443204431S11658138EA0141301468000000000000
B0649483204374S11658164EA0142501482000000000000
B0649523204353S11658231EA0143201484000000000000
B0649563204381S11658295EA0143501488000000000000
B0650003204434S11658303EA0144801500000000000000
B0650043204457S11658247EA0146101511000000000000
B0650083204412S11658192EA0146501516000000000000
B0650123204343S11658203EA0147201528000000000000
B0650163204300S11658268EA0148201534000000000000
B0650203204295S11658351EA0148801537000000000000
B0650243204329S11658417EA0149501550000000000000
B0650283204386S11658444EA0150801560000000000000
B0650323204437S11658418EA0152201576000000000000
B0650363204427S11658355EA0152701578000000000000
B0650403204365S11658321EA0152301573000000000000
B0650443204291S11658344EA0152601580000000000000
B0650483204242S11658412EA0153401587000000000000
B0650523204236S11658494EA0154501603000000000000
B0650563204269S11658557EA0156201614000000000000
B0651003204320S11658564EA0157701632000000000000
B0651043204339S11658509EA0158501636000000000000
B0651083204308S11658450EA0158601640000000000000
B0651123204243S11658431EA0159901657000000000000
B0651163204184S11658463EA0161101667000000000000
B0651203204148S11658529EA0161501669000000000000
B0651243204153S11658608EA0161701671000000000000
B0651283204196S11658663EA0161901677000000000000
B0651323204252S11658658EA0162801682000000000000
B0651363204270S11658593EA0163201687000000000000
B0651403204227S11658529EA0163401691000000000000
B0651443204154S11658522EA0164601713000000000000
B0651483204100S11658569EA0166601726000000000000
B0651523204088S11658648EA0166801724000000000000
B0651563204128S11658711EA0166701727000000000000
B0652003204188S11658721EA0167701738000000000000
B0652043204239S11658689EA0168501748000000000000
B0652083204251S11658629EA0169301757000000000000
B0652123204213S11658574EA0169701759000000000000
B0652163204145S11658564EA0170001764000000000000
B0652203204079S11658604EA0170701772000000000000
B0652243204032S11658677EA0170801769000000000000
B0652283204015S11658773EA0170201760000000000000
B0652323204041S11658860EA0170801771000000000000
B0652363204096S11658911EA0171301778000000000000
B0652403204158S11658928EA0172001783000000000000
B0652443204222S11658928EA0171701778000000000000
B0652483204287S11658915EA0171101772000000000000
B0652523204351S11658895EA0170801768000000000000
B0652563204414S11658871EA0170201760000000000000
B0653003204478S11658841EA0168901748000000000000
B0653043204543S11658806EA0167701735000000000000
B0653083204611S11658771EA0166601725000000000000
B0653123204680S11658743EA0166201723000000000000
B0653163204746S11658716EA0165701714000000000000
B0653203204814S11658682EA0165201711000000000000
B0653243204882S11658650EA0164801707000000000000
B0653283204955S11658615EA0163701694000000000000
B0653323205028S11658574EA0162901686000000000000
B0653363205102S11658535EA0161201666000000000000
B0653403205178S11658498EA0159401653000000000000
B0653443205252S11658463EA0158501648000000000000
B0653483205321S11658433EA0159001652000000000000
B0653523205382S11658398EA0159501653000000000000
B0653563205441S11658365EA0158901642000000000000
B0654003205506S11658334EA0157201620000000000000
B0654043205578S11658301EA0155101606000000000000
B0654083205649S11658270EA0154301603000000000000
B0654123205718S11658238EA0154601605000000000000
B0654163205783S11658208EA0154901610000000000000
B0654203205846S11658175EA0155901619000000000000
B0654243205907S11658141EA0156401623000000000000
B0654283205968S11658106EA0156701625000000000000
B0654323206028S11658069EA0156701621000000000000
B0654363206090S11658036EA0156001614000000000000
B0654403206159S11657997EA0155101599000000000000
B0654443206232S11657954EA0153701594000000000000
B0654483206307S11657914EA0153401589000000000000
B0654523206383S11657878EA0152501580000000000000
B0654563206462S11657841EA0152101580000000000000
B0655003206541S11657805EA0152501585000000000000
B0655043206622S11657768EA0152701585000000000000
B0655083206706S11657729EA0151401570000000000000
B0655123206804S11657688EA0148501537000000000000
B0655163206912S11657645EA0146501517000000000000
B0655203207027S11657603EA0144701503000000000000
B0655243207144S11657559EA0143101487000000000000
B0655283207258S11657507EA0142301483000000000000
B0655323207367S11657451EA0141501472000000000000
B0655363207476S11657399EA0141101474000000000000
B0655403207579S11657372EA0144301510000000000000
B0655443207663S11657411EA0149201562000000000000
B0655483207689S11657501EA0153601601000000000000
B0655523207650S11657577EA0155501614000000000000
B0655563207580S11657588EA0155901614000000015000
B0656003207529S11657537EA0155501609000000000000
B0656043207511S11657462EA0155201612000000000000
B0656083207544S11657398EA0155801619000000000000
B0656123207605S11657384EA0157301640000000000000
B0656163207635S11657451EA0159801663000000000000
B0656203207607S11657529EA0161001672000000015000
B0656243207542S11657559EA0162401687000000015000
B0656283207488S11657525EA0163201692000000015000
B0656323207473S11657459EA0163401697000000015000
B0656363207497S11657398EA0163701700000000000000
B0656403207549S11657368EA0164401709000000000000
B0656443207606S11657385EA0165701729000000000000
B0656483207638S11657446EA0167401740000000000000
B0656523207640S11657528EA0167401737000000000000
B0656563207599S11657599EA0167801743000000000000
B0657003207534S11657636EA0168501752000000000000
B0657043207467S11657624EA0169301761000000000000
B0657083207430S11657573EA0170501770000000000000
B0657123207433S11657511EA0170501772000000000000
B0657163207473S11657465EA0170601772000000000000
B0657203207533S11657445EA0170801774000000000000
B0657243207593S11657475EA0171701792000000000000
B0657283207616S11657549EA0173501802000000000000
B0657323207593S11657627EA0173601803000000000000
B0657363207532S11657670EA0173901808000000000000
B0657403207467S11657647EA0174201811000000000000
B0657443207449S11657577EA0174701819000000000000
B0657483207481S11657517EA0175401826000000000000
B0657523207542S11657499EA0175901833000000000000
B0657563207607S11657530EA0176301832000000000000
B0658003207651S11657603EA0175601822000000000000
B0658043207655S11657701EA0174701808000000000000
B0658083207612S11657781EA0173701800000000000000
B0658123207540S11657822EA0173201793000000000000
B0658163207460S11657844EA0172601790000000000000
B0658203207381S11657859EA0173101799000000000000
B0658243207303S11657872EA0173801801000000000000
B0658283207224S11657892EA0173201795000000000000
B0658323207146S11657913EA0173001793000000000000
B0658363207066S11657930EA0172401780000000000000
B0658403206982S11657952EA0170401760000000000000
B0658443206899S11657976EA0169001748000000000000
B0658483206813S11658001EA0167901737000000000000
B0658523206725S11658022EA0167101733000000000000
B0658563206637S11658047EA0167101737000000000000
B0659003206550S11658076EA0167001729000000000000
B0659043206461S11658117EA0165901721000000000000
B0659083206370S11658169EA0165501715000000000000
B0659123206277S11658226EA0164201702000000000000
B0659163206186S11658283EA0164401716000000000000
B0659203206106S11658333EA0167101747000000000000
B0659243206032S11658381EA0168501743000000000000
B0659283205952S11658434EA0166501716000000000000
B0659323205867S11658492EA0164401705000000000000
B0659363205781S11658551EA0163601693000000000000
B0659403205696S11658611EA0162201679000000000000
B0659443205617S11658676EA0161101672000000000000
B0659483205538S11658745EA0159801654000000000000
B0659523205448S11658807EA0158401646000000000000
B0659563205361S11658871EA0158701646000000000000
B0700003205272S11658937EA0157801632000000000000
B0700043205180S11659005EA0156401617000000000000
B0700083205087S11659072EA0154601600000000000000
B0700123204993S11659140EA0153101584000000000000
B0700163204898S11659207EA0151401567000000000000
B0700203204802S11659272EA0150301557000000000000
B0700243204708S11659336EA0149201547000000000000
B0700283204616S11659397EA0149301552000000000000
B0700323204533S11659470EA0149801552000000000000
B0700363204453S11659548EA0148801536000000000000
B0700403204372S11659626EA0147001521000000000000
B0700443204290S11659699EA0146601522000000000000
B0700483204208S11659763EA0146401517000000000000
B0700523204132S11659838EA0146301524000000000000
B0700563204075S11659913EA0149301563000000000000
B0701003204031S11659982EA0152201582000000000000
B0701043204019S11700064EA0152101573000000000000
B0701083204067S11700116EA0151101564000000000000
B0701123204128S11700107EA0150701559000000000000
B0701163204165S11700049EA0150301556000000000000
B0701203204156S11659973EA0149901553000000000000
B0701243204108S11659911EA0149401550000000000000
B0701283204039S11659870EA0149701557000000000000
B0701323203962S11659847EA0150001555000000000000
B0701363203878S11659865EA0149001543000000000000
B0701403203793S11659895EA0147401525000000000000
B0701443203703S11659926EA0146401514000000000000
B0701483203628S11659987EA0147101529000000000000
B0701523203592S11700078EA0148301535000000000000
B0701563203598S11700171EA0147901530000000000000
B0702003203647S11700231EA0147501525000000000000
B0702043203714S11700229EA0146901522000000000000
B0702083203777S11700195EA0146301521000000000000
B0702123203832S11700142EA0146701526000000000000
B0702163203850S11700065EA0146901528000000000000
B0702203203810S11700000EA0146101512000000000000
B0702243203732S11659976EA0144301497000000000000
B0702283203641S11659982EA0143401491000000000000
B0702323203549S11659999EA0144801509000000000000
B0702363203480S11700049EA0146501520000000000000
B0702403203481S11700132EA0146201513000000000000
B0702443203541S11700164EA0145201500000000000000
B0702483203611S11700149EA0143801490000000000000
B0702523203677S11700111EA0143401493000000000000
B0702563203738S11700058EA0143801498000000000000
B0703003203796S11659998EA0143701489000000000000
B0703043203854S11659935EA0141901475000000000000
B0703083203913S11659869EA0141901479000000000000
B0703123203966S11659799EA0142401486000000000000
B0703163204011S11659730EA0143301492000000000000
B0703203204050S11659656EA0143001478000000000000
B0703243204073S11659568EA0141301461000000000000
B0703283204065S11659469EA0139901453000000000000
B0703323204019S11659383EA0139601448000000000000
B0703363203946S11659319EA0139201444000000000000
B0703403203865S11659280EA0139201447000000000000
B0703443203783S11659256EA0139201441000000000000
B0703483203693S11659246EA0137201416000000000000
B0703523203595S11659253EA0135101397000000000000
B0703563203498S11659263EA0134001383000000000000
B0704003203399S11659283EA0133001378000000000000
B0704043203303S11659305EA0133501385000000000000
B0704083203211S11659335EA0133401379000000000000
B0704123203117S11659365EA0132201360000000000000
B0704163203020S11659397EA0130001335000000000000
B0704203202921S11659425EA0128701329000000000000
B0704243202825S11659452EA0128001320000000000000
B0704283202730S11659482EA0127201311000000000000
B0704323202636S11659512EA0126301300000000000000
B0704363202541S11659539EA0125601293000000000000
B0704403202449S11659569EA0126101303000000000000
B0704443202359S11659604EA0126501303000000000000
B0704483202272S11659644EA0126401311000000000000
B0704523202191S11659685EA0127301315000000000000
B0704563202110S11659721EA0127301313000000000000
B0705003202035S11659769EA0127701318000000000000
B0705043202019S11659848EA0128901331000000000000
B0705083202061S11659886EA0129701333000000000000
B0705123202112S11659859EA0128801324000000000000
B0705163202116S11659794EA0128201326000000000000
B0705203202072S11659743EA0128601330000000000000
B0705243202008S11659713EA0128201321000000000000
B0705283201937S11659692EA0127201310000000000000
B0705323201859S11659692EA0126101299000000000000
B0705363201779S11659714EA0124701281000000000000
B0705403201697S11659744EA0122801265000000000000
B0705443201618S11659774EA0122201257000000000000
B0705483201538S11659811EA0121101248000000000000
B0705523201462S11659847EA0122301266000000000000
B0705563201389S11659881EA0123001270000000000000
B0706003201320S11659917EA0122901268000000000000
B0706043201249S11659955EA0122501257000000000000
B0706083201179S11700002EA0121401250000000000000
B0706123201114S11700049EA0121301247000000000000
B0706163201057S11700106EA0120601239000000000000
B0706203201046S11700182EA0119801233000000000000
B0706243201088S11700232EA0118801224000000000000
B0706283201149S11700232EA0117901222000000000000
B0706323201207S11700206EA0117401209000000000000
B0706363201270S11700168EA0115801196000000000000
B0706403201333S11700127EA0115301197000000000000
B0706443201396S11700082EA0116301211000000000000
B0706483201452S11700033EA0116701212000000000000
B0706523201500S11659977EA0117601223000000000000
B0706563201539S11659911EA0118701231000000000000
B0707003201523S11659841EA0120101244000000000000
B0707043201461S11659830EA0119301226000000000000
B0707083201419S11659903EA0117201214000000000000
B0707123201408S11659991EA0118401230000000000000
B0707163201444S11700026EA0120801258000000000000
B0707203201461S11659972EA0121301259000000000000
B0707243201410S11659924EA0121501269000000000000
B0707283201349S11659950EA0123301287000000000000
B0707323201332S11700019EA0124401294000000000000
B0707363201365S11700064EA0125201299000000000000
B0707403201410S11700052EA0125501306000000000000
B0707443201428S11659994EA0125801304000000000000
B0707483201393S11659930EA0126001311000000000000
B0707523201327S11659924EA0127301324000000000000
B0707563201276S11659973EA0128001331000000000000
B0708003201271S11700043EA0129301344000000000000
B0708043201310S11700076EA0129301344000000000000
B0708083201349S11700041EA0129501349000000000000
B0708123201345S11659972EA0129601346000000000000
B0708163201293S11659917EA0129601345000000000000
B0708203201222S11659902EA0129801349000000000000
B0708243201164S11659954EA0130201355000000000000
B0708283201154S11700033EA0131001362000000000000
B0708323201187S11700094EA0131701365000000000000
B0708363201236S11700095EA0132501372000000000000
B0708403201255S11700034EA0132601373000000000000
B0708443201215S11659972EA0132501374000000000000
B0708483201144S11659971EA0133401386000000000000
B0708523201094S11700025EA0134501394000000000000
B0708563201089S11700101EA0134601397000000000000
B0709003201132S11700136EA0135101403000000000000
B0709043201185S11700119EA0134501392000000000000
B0709083201241S11700086EA0134001390000000000000
B0709123201297S11700045EA0133801392000000000000
B0709163201350S11659997EA0133801389000000000000
B0709203201406S11659948EA0132901376000000000000
B0709243201467S11659906EA0131701365000000000000
B0709283201528S11659863EA0131001358000000000000
B0709323201590S11659818EA0130301351000000000000
B0709363201651S11659778EA0130401356000000000000
B0709403201713S11659746EA0130901353000000000000
B0709443201775S11659712EA0130301351000000000000
B0709483201837S11659675EA0129901344000000000000
B0709523201899S11659633EA0129301336000000000000
B0709563201963S11659592EA0128801334000000000000
B0710003202025S11659555EA0128501332000000000000
B0710043202085S11659521EA0129601348000000000000
B0710083202143S11659538EA0131401360000000000000
B0710123202150S11659617EA0131701352000000000000
B0710163202091S11659678EA0130301340000000000000
B0710203202019S11659713EA0129901339000000000000
B0710243201943S11659737EA0129601333000000000000
B0710283201866S11659730EA0128501323000000000000
B0710323201803S11659683EA0127801319000000000000
B0710363201765S11659614EA0127501318000000000000
B0710403201751S11659535EA0127501318000000000000
B0710443201759S11659454EA0127301315000000000000
B0710483201790S11659379EA0127001311000000000000
B0710523201837S11659315EA0127001311000000000000
B0710563201895S11659263EA0126501305000000000000
B0711003201967S11659228EA0126001298000000000000
B0711043202041S11659209EA0125701301000000000000
B0711083202113S11659191EA0126501311000000000000
B0711123202182S11659172EA0127001312000000000000
B0711163202249S11659155EA0126501303000000000000
B0711203202318S11659136EA0125501288000000000000
B0711243202388S11659115EA0123701274000000000000
B0711283202455S11659088EA0123501278000000000000
B0711323202522S11659054EA0124101279000000000000
B0711363202589S11659020EA0124401291000000000000
B0711403202650S11658986EA0126101303000000000000
B0711443202714S11658954EA0127001313000000000000
B0711483202778S11658929EA0127401318000000000000
B0711523202840S11658905EA0127201313000000000000
B0711563202904S11658879EA0126601303000000000000
B0712003202971S11658849EA0125401292000000000000
B0712043203040S11658824EA0125501299000000000000
B0712083203108S11658802EA0126401312000000000000
B0712123203170S11658772EA0127601319000000000000
B0712163203173S11658707EA0129001338000000000000
B0712203203105S11658708EA0130201344000000000000
B0712243203088S11658786EA0131401366000000000000
B0712283203126S11658837EA0133301376000000000000
B0712323203173S11658820EA0133001372000000000000
B0712363203192S11658752EA0132001358000000000000
B0712403203218S11658682EA0131101355000000000000
B0712443203263S11658632EA0130901352000000000000
B0712483203319S11658591EA0130301341000000000000
B0712523203385S11658565EA0129601335000000000000
B0712563203456S11658552EA0128801327000000000000
B0713003203528S11658542EA0128701333000000000000
B0713043203597S11658529EA0129301336000000000000
B0713083203663S11658512EA0129201335000000000000
B0713123203731S11658495EA0129201333000000000000
B0713163203800S11658477EA0128801328000000000000
B0713203203871S11658461EA0128001320000000000000
B0713243203941S11658438EA0127601317000000000000
B0713283204011S11658411EA0127401317000000000000
B0713323204079S11658381EA0127001312000000000000
B0713363204145S11658351EA0127201320000000000000
B0713403204208S11658320EA0127601319000000000000
B0713443204274S11658294EA0127301311000000000000
B0713483204342S11658269EA0126501308000000000000
B0713523204409S11658240EA0127401325000000000000
B0713563204472S11658218EA0129501343000000000000
B0714003204529S11658191EA0130901353000000000000
B0714043204586S11658161EA0132101367000000000000
B0714083204628S11658112EA0134301391000000000000
B0714123204613S11658050EA0137101418000000000000
B0714163204556S11658022EA0137201407000000000000
B0714203204492S11658050EA0136101403000000000000
B0714243204460S11658123EA0136401412000000000000
B0714283204463S11658197EA0137901431000000000000
B0714323204500S11658238EA0139701448000000000000
B0714363204542S11658212EA0141101458000000000000
B0714403204531S11658147EA0142001469000000000000
B0714443204465S11658125EA0143601485000000000000
B0714483204401S11658161EA0144201486000000000000
B0714523204377S11658242EA0144301494000000000000
B0714563204404S11658305EA0146001509000000000000
B0715003204455S11658290EA0147401524000000000000
B0715043204463S11658216EA0147801531000000000000
B0715083204404S11658162EA0149101554000000000000
B0715123204334S11658183EA0150901567000000000000
B0715163204297S11658256EA0151601574000000000000
B0715203204321S11658314EA0153101596000000000000
B0715243204366S11658303EA0155101611000000000000
B0715283204383S11658236EA0155701618000000000000
B0715323204344S11658169EA0156501628000000000000
B0715363204269S11658153EA0157401633000000000000
B0715403204204S11658201EA0157401635000000000000
B0715443204190S11658283EA0158101638000000000000
B0715483204227S11658338EA0158801647000000000000
B0715523204283S11658322EA0160101663000000000000
B0715563204304S11658249EA0160601668000000000000
B0716003204260S11658175EA0161201682000000000000
B0716043204182S11658152EA0162601693000000000000
B0716083204112S11658188EA0163401697000000000000
B0716123204079S11658264EA0164001707000000000000
B0716163204086S11658336EA0165201717000000000000
B0716203204130S11658377EA0166001725000000000000
B0716243204186S11658370EA0167401741000000000000
B0716283204204S11658303EA0168201748000000000000
B0716323204156S11658239EA0168701753000000000000
B0716363204086S11658239EA0170101771000000000000
B0716403204034S11658281EA0171001774000000000000
B0716443204017S11658349EA0170601766000000000000
B0716483204043S11658414EA0170301770000000000000
B0716523204096S11658425EA0171601788000000000000
B0716563204138S11658377EA0172801796000000000000
B0717003204139S11658296EA0173301800000000000000
B0717043204092S11658227EA0173701805000000000000
B0717083204019S11658205EA0174101810000000000000
B0717123203948S11658232EA0173801805000000000000
B0717163203901S11658295EA0174101807000000000000
B0717203203901S11658366EA0174301810000000000000
B0717243203935S11658416EA0174601815000000000000
B0717283203984S11658427EA0175501823000000000000
B0717323204037S11658414EA0176201831000000000000
B0717363204093S11658388EA0176501834000000000000
B0717403204149S11658353EA0177401848000000000000
B0717443204196S11658304EA0179001862000000000000
B0717483204200S11658229EA0179801871000000000000
B0717523204144S11658173EA0179701867000000000000
B0717563204063S11658167EA0179201860000000000000
B0718003203991S11658206EA0178801862000000000000
B0718043203953S11658277EA0179601866000000000000
B0718083203950S11658352EA0179801867000000000000
B0718123203982S11658417EA0180201874000000000000
B0718163204028S11658455EA0181601890000000000000
B0718203204080S11658461EA0182801901000000000000
B0718243204130S11658431EA0183201897000000000000
B0718283204156S11658360EA0182601897000000000000
B0718323204132S11658282EA0183401905000000000000
B0718363204074S11658229EA0184001908000000000000
B0718403203997S11658214EA0183501901000000000000
B0718443203922S11658248EA0182801898000000000000
B0718483203872S11658317EA0183101903000000000000
B0718523203859S11658392EA0183901911000000000000
B0718563203880S11658455EA0184801924000000000000
B0719003203918S11658495EA0185901929000000000000
B0719043203967S11658495EA0186201930000000000000
B0719083204018S11658464EA0186301936000000000000
B0719123204060S11658417EA0186901941000000000000
B0719163204044S11658344EA0187201943000000000000
B0719203203982S11658309EA0187801949000000000000
B0719243203911S11658303EA0187801949000000000000
B0719283203839S11658295EA0188101951000000000000
B0719323203763S11658291EA0188201952000000000000
B0719363203693S11658310EA0188201951000000000000
B0719403203647S11658368EA0188001950000000000000
B0719443203641S11658438EA0187901950000000000000
B0719483203666S11658492EA0188501957000000000000
B0719523203710S11658526EA0189101963000000000000
B0719563203761S11658526EA0189201965000000000000
B0720003203803S11658492EA0189901973000000000000
B0720043203797S11658426EA0190101971000000000000
B0720083203735S11658382EA0189801969000000000000
B0720123203663S11658398EA0189701969000000000000
B0720163203627S11658460EA0189701971000000000000
B0720203203637S11658522EA0190501977000000000000
B0720243203681S11658554EA0190001968000000000000
B0720283203737S11658547EA0189901972000000000000
B0720323203793S11658529EA0190201972000000000000
B0720363203844S11658492EA0190301977000000000000
B0720403203874S11658429EA0191001983000000000000
B0720443203857S11658349EA0190901977000000000000
B0720483203853S11658265EA0188801955000000000000
B0720523203909S11658210EA0187701942000000000000
B0720563203980S11658186EA0187001937000000000000
B0721003204052S11658165EA0186001920000000000000
B0721043204130S11658140EA0183501894000000000000
B0721083204212S11658106EA0181801885000000000000
B0721123204294S11658071EA0181101880000000000000
B0721163204373S11658040EA0181001878000000000000
B0721203204452S11658008EA0180101870000000000000
B0721243204528S11657969EA0179801869000000000000
B0721283204600S11657935EA0180301870000000000000
B0721323204673S11657907EA0179701878000000000000
B0721363204739S11657884EA0181501884000000000000
B0721403204803S11657865EA0181501879000000000000
B0721443204871S11657848EA0180501870000000000000
B0721483204937S11657829EA0180101869000000000000
B0721523205005S11657813EA0180101865000000000000
B0721563205074S11657797EA0179301861000000000000
B0722003205139S11657779EA0179501864000000000000
B0722043205198S11657766EA0179801864000000000000
B0722083205257S11657751EA0179501854000000000000
B0722123205319S11657733EA0177901836000000000000
B0722163205389S11657718EA0176201821000000000000
B0722203205460S11657712EA0175401816000000000000
B0722243205526S11657714EA0175701819000000000000
B0722283205587S11657710EA0175701816000000000000
B0722323205647S11657703EA0174801806000000000000
B0722363205711S11657696EA0173501788000000000000
B0722403205777S11657690EA0171701773000000000000
B0722443205844S11657685EA0171401779000000000000
B0722483205909S11657677EA0172201788000000000000
B0722523205968S11657673EA0173701806000000000000
B0722563206021S11657672EA0174701813000000000000
B0723003206075S11657672EA0175101815000000000000
B0723043206127S11657668EA0175701821000000000000
B0723083206180S11657667EA0176101824000000000000
B0723123206237S11657667EA0175501818000000000000
B0723163206298S11657666EA0175301815000000000000
B0723203206364S11657666EA0175201817000000000000
B0723243206431S11657666EA0175301820000000000000
B0723283206497S11657668EA0176201827000000000000
B0723323206565S11657671EA0175601816000000000000
B0723363206635S11657676EA0174701807000000000000
B0723403206710S11657680EA0173901802000000000000
B0723443206787S11657684EA0173701797000000000000
B0723483206866S11657688EA0172801790000000000000
B0723523206944S11657693EA0172601785000000000000
B0723563207026S11657696EA0171201769000000000000
B0724003207109S11657690EA0170001759000000000000
B0724043207191S11657692EA0169201753000000000000
B0724083207273S11657698EA0168601745000000000000
B0724123207355S11657714EA0167701739000000000000
B0724163207436S11657738EA0167101732000000000000
B0724203207516S11657761EA0166101721000000000000
B0724243207598S11657779EA0164801707000000000000
B0724283207681S11657796EA0163901698000000000000
B0724323207765S11657806EA0163501696000000000000
B0724363207845S11657814EA0162601685000000000000
B0724403207926S11657822EA0161801675000000000000
B0724443208006S11657828EA0160801665000000000000
B0724483208088S11657833EA0159801657000000000000
B0724523208170S11657832EA0159901659000000000000
B0724563208249S11657820EA0159601657000000000000
B0725003208327S11657806EA0160101662000000000000
B0725043208407S11657789EA0160201662000000000000
B0725083208485S11657767EA0160001658000000000000
B0725123208564S11657750EA0159501653000000000000
B0725163208646S11657745EA0159101645000000000000
B0725203208733S11657751EA0157801632000000000000
B0725243208825S11657762EA0156901629000000000000
B0725283208919S11657768EA0157201633000000000000
B0725323209007S11657763EA0158901659000000000000
B0725363209080S11657731EA0162001686000000000000
B0725403209123S11657670EA0163301694000000000000
B0725443209130S11657590EA0163301691000000000000
B0725483209110S11657503EA0162601685000000000000
B0725523209091S11657416EA0162201679000000000000
B0725563209105S11657333EA0160601662000000000000
B0726003209172S11657286EA0159601649000000000000
B0726043209256S11657293EA0158401636000000000000
B0726083209335S11657330EA0157301627000000000000
B0726123209410S11657374EA0156701622000000000000
B0726163209488S11657387EA0156201616000000000000
B0726203209568S11657364EA0154801597000000000000
B0726243209647S11657319EA0153001582000000000000
B0726283209728S11657299EA0153001591000000000000
B0726323209795S11657326EA0155201611000000000000
B0726363209833S11657387EA0154801594000000000000
B0726403209811S11657472EA0150401542000000000000
B0726443209730S11657497EA0145501493000000000000
B0726483209665S11657432EA0141801458000000000000
B0726523209665S11657342EA0139701429000000000000
B0726563209707S11657265EA0137401407000000000000
B0727003209747S11657182EA0135901397000000000000
B0727043209755S11657085EA0135601396000000000000
B0727083209707S11657003EA0135301391000000000000
B0727123209620S11657003EA0134501385000000000000
B0727163209578S11657091EA0134601390000000000000
B0727203209616S11657150EA0135501399000000000000
B0727243209668S11657135EA0135401393000000000000
B0727283209700S11657064EA0132301351000000000000
B0727323209722S11656966EA0130601351000000015000
