ACAM4N6
HFDTE200517
HFFXA050
HFPLTPILOT:JOHN WELSH              
HFGTYGLIDERTYPE:HORNET      
HFGIDGLIDERID:VH GMY      
HFDTM100GPSDATUM:
HFRFWFIRMWAREVERSION:F2.6
HFRHWHARDWAREVERSION:300 Series Version 2
HFFTYFRTYPE:CAMBRIDGE AERO INSTRUMENTS, 302+
HFGPS:GARMIN,LVS-25,12,18000
HFPRSPRESSALTSENSOR:INTERSEMA, MS5534-AP, 20000
I033638FXA3941ENL4247REX
LCAMSBVER:5FWVER:F26300
C121016042725121016000103
C0000000N00000000WTAKEOFF     
C3207549S11656849EBEVAIR      
C3157887S11735628EYOTING      
C3137789S11744052EKLLRBRRN    
C3137399S11712982ECunderdin AF
C3207549S11656849EBEVAIR      
C0000000N00000000WLANDING     
B0412423207735S11657096EA0021200220000000000000
B0412443207735S11657096EA0021200220000000000000
B0412463207735S11657096EA0021300220000000000000
B0412483207735S11657096EA0021100220000000000000
B0412503207735S11657096EA0021100220000000000000
B0412523207735S11657096EA0021200220000000000000
B0412543207735S11657096EA0021300220000000000000
B0412563207735S11657096EA0021200220000000000000
B0412583207735S11657096EA0021100220000000000000
B0413003207735S11657096EA0021100220000000000000
B0413023207735S11657096EA0021100220000000000000
B0413043207735S11657096EA0021000220000000000000
B0413063207735S11657096EA0021100220000000000000
B0413083207735S11657096EA0021200220000000000000
B0413103207733S11657096EA0021200220000000000000
B0413133207726S11657094EA0021200219000000000000
B0413173207700S11657083EA0021000219000000000000
B0413213207659S11657061EA0021300219000000000000
B0413253207605S11657027EA0021400219000000000000
B0413293207542S11656991EA0021500221000000000000
B0413333207477S11656949EA0022100227000000000000
B0413373207415S11656912EA0023900248000000000000
B0413413207351S11656878EA0026100270000000000000
B0413453207290S11656835EA0027800292000000000000
B0413493207235S11656784EA0030200317000000000000
B0413533207187S11656723EA0032200336000000000000
B0413573207142S11656657EA0033700348000000000000
B0414013207096S11656591EA0035100362000000000000
B0414053207048S11656523EA0036300371000000000000
B0414093207001S11656451EA0037400385000000000000
B0414133206956S11656383EA0039100400000000000000
B0414173206913S11656314EA0040600417000000000000
B0414213206869S11656247EA0042700438000000000000
B0414253206825S11656175EA0044500450000000000000
B0414293206783S11656098EA0045600464000000000000
B0414333206743S11656017EA0046700475000000000000
B0414373206712S11655931EA0048800502000000000000
B0414413206689S11655840EA0051300523000000000000
B0414453206686S11655744EA0053100539000000000000
B0414493206705S11655648EA0054500550000000000000
B0414533206749S11655558EA0055700563000000000000
B0414573206808S11655484EA0057600583000000000000
B0415013206878S11655424EA0059200597000000000000
B0415053206962S11655385EA0060500610000000000000
B0415093207051S11655367EA0062100626000000000000
B0415133207141S11655370EA0064100644000000000000
B0415173207228S11655387EA0065800659000000000000
B0415213207312S11655419EA0067200677000000000000
B0415253207389S11655465EA0069100696000000000000
B0415293207460S11655523EA0071100719000000000000
B0415333207524S11655592EA0073300736000000000000
B0415373207579S11655671EA0075400758000000000000
B0415413207620S11655759EA0077500779000000000000
B0415453207648S11655853EA0079800800000000000000
B0415493207662S11655947EA0082100824000000000000
B0415533207664S11656045EA0083700835000000000000
B0415573207658S11656142EA0085000850000000000000
B0416013207648S11656236EA0086800869000000000000
B0416053207636S11656328EA0088000884000000000000
B0416093207615S11656420EA0089600898000000000000
B0416133207584S11656507EA0091000913000000000000
B0416173207541S11656583EA0092900930000000000000
B0416213207484S11656641EA0094600945000000000000
B0416253207417S11656682EA0096300962000000000000
B0416293207347S11656710EA0098300978000000000000
B0416333207276S11656735EA0099700993000000000000
B0416373207204S11656766EA0101201005000000000000
B0416413207131S11656795EA0102301018000000000000
B0416453207059S11656822EA0103701030000000000000
B0416493206987S11656848EA0105001048000000000000
B0416533206914S11656873EA0106801065000000000000
B0416573206843S11656899EA0108501082000000000000
B0417013206770S11656932EA0110001096000000000000
B0417053206700S11656974EA0111401110000000000000
B0417093206640S11657029EA0112501120000000000000
B0417133206601S11657099EA0112601121000000000000
B0417173206601S11657178EA0113401129000000000000
B0417213206640S11657237EA0113501130000000000000
B0417253206700S11657261EA0113401127000000000000
B0417293206760S11657250EA0113201124000000000000
B0417333206812S11657220EA0112901123000000000000
B0417373206862S11657186EA0112601118000000000000
B0417413206916S11657155EA0112001114000000000000
B0417453206972S11657125EA0111301104000000000000
B0417493207030S11657103EA0110501097000000000000
B0417533207091S11657101EA0109501087000000000000
B0417573207151S11657125EA0108801078000000000000
B0418013207194S11657177EA0108201074000000000000
B0418053207204S11657243EA0107801069000000000000
B0418093207180S11657296EA0107701067000000000000
B0418133207139S11657335EA0107801069000000000000
B0418173207096S11657371EA0107401063000000000000
B0418213207050S11657403EA0107001060000000000000
B0418253207001S11657433EA0106301053000000000000
B0418293206951S11657462EA0106001050000000000000
B0418333206895S11657490EA0105501039000000000000
B0418373206835S11657499EA0105101043000000000000
B0418413206787S11657468EA0106001052000000000000
B0418453206770S11657412EA0105901046000000000000
B0418493206787S11657350EA0105101038000000000000
B0418533206825S11657291EA0104101027000000000000
B0418573206878S11657254EA0104101032000000000000
B0419013206939S11657238EA0103801027000000000000
B0419053207000S11657233EA0103401026000000000000
B0419093207063S11657231EA0103101020000000000000
B0419133207126S11657224EA0102701016000000000000
B0419173207187S11657191EA0102301011000000000000
B0419213207229S11657129EA0101701005000000000000
B0419253207243S11657051EA0100700994000000000000
B0419293207229S11656971EA0099700986000000000000
B0419333207203S11656899EA0099200982000000000000
B0419373207173S11656832EA0099100980000000000000
B0419413207141S11656769EA0098800977000000000000
B0419453207105S11656708EA0098500973000000000000
B0419493207073S11656646EA0098200973000000000000
B0419533207040S11656588EA0098000969000000000000
B0419573207008S11656528EA0097700966000000000000
B0420013206975S11656471EA0097700971000000000000
B0420053206946S11656420EA0097900970000000000000
B0420093206917S11656367EA0097400966000000000000
B0420133206888S11656311EA0096800959000000000000
B0420173206862S11656251EA0096500957000000000000
B0420213206835S11656191EA0096100952000000000000
B0420253206809S11656128EA0095500947000000000000
B0420293206782S11656065EA0095300942000000000000
B0420333206753S11656002EA0094500935000000000000
B0420373206730S11655935EA0094000930000000000000
B0420413206709S11655866EA0093200921000000000000
B0420453206688S11655798EA0092900920000000000000
B0420493206670S11655734EA0093200919000000000000
B0420533206652S11655673EA0092700913000000000000
B0420573206636S11655610EA0092200910000000000000
B0421013206619S11655549EA0092100908000000000000
B0421053206604S11655486EA0091800905000000000000
B0421093206587S11655421EA0091200899000000000000
B0421133206569S11655356EA0090700895000000000000
B0421173206549S11655289EA0090200889000000000000
B0421213206530S11655220EA0089300879000000000000
B0421253206510S11655151EA0088600870000000000000
B0421293206485S11655083EA0087700864000000000000
B0421333206461S11655016EA0087300859000000000000
B0421373206436S11654947EA0086600851000000000000
B0421413206424S11654871EA0086300849000000000000
B0421453206426S11654793EA0085800845000000000000
B0421493206437S11654713EA0085700843000000000000
B0421533206453S11654638EA0085700840000000000000
B0421573206472S11654565EA0085500838000000000000
B0422013206500S11654495EA0085100834000000000000
B0422053206531S11654425EA0084600826000000000000
B0422093206565S11654355EA0083800819000000000000
B0422133206601S11654283EA0083400817000000000000
B0422173206623S11654208EA0083400816000000000000
B0422213206613S11654139EA0083200815000000000000
B0422253206596S11654071EA0082600806000000000000
B0422293206598S11653996EA0082200803000000000000
B0422333206618S11653923EA0082000802000000000000
B0422373206627S11653850EA0082900813000000000000
B0422413206592S11653811EA0084000825000000000000
B0422453206552S11653835EA0084100824000000000000
B0422493206548S11653896EA0084200822000000000000
B0422533206589S11653948EA0083900822000000000000
B0422573206650S11653958EA0083900820000000000000
B0423013206691S11653913EA0084100824000000000000
B0423053206669S11653862EA0084100826000000000000
B0423093206622S11653871EA0084600831000000000000
B0423133206608S11653927EA0084600830000000000000
B0423173206640S11653983EA0084400827000000000000
B0423213206704S11653997EA0084100822000000000000
B0423253206761S11653961EA0083600818000000000000
B0423293206784S11653898EA0083700823000000000000
B0423333206756S11653853EA0084200829000000000000
B0423373206713S11653871EA0084400829000000000000
B0423413206712S11653931EA0084700833000000000000
B0423453206758S11653968EA0084600829000000000000
B0423493206816S11653953EA0084100826000000000000
B0423533206843S11653896EA0084600831000000000000
B0423573206823S11653845EA0085000836000000000000
B0424013206780S11653851EA0085100837000000000000
B0424053206769S11653906EA0085200839000000000000
B0424093206805S11653957EA0085000836000000000000
B0424133206865S11653962EA0084800832000000000000
B0424173206909S11653918EA0084900834000000000000
B0424213206910S11653857EA0085500842000000000000
B0424253206874S11653829EA0086100849000000000000
B0424293206835S11653855EA0086000845000000000000
B0424333206832S11653915EA0086200849000000000000
B0424373206878S11653957EA0086200848000000000000
B0424413206935S11653941EA0085700843000000000000
B0424453206966S11653883EA0085300840000000000000
B0424493206956S11653824EA0085800845000000000000
B0424533206914S11653812EA0086400852000000000000
B0424573206897S11653864EA0086700850000000000000
B0425013206939S11653918EA0086200849000000000000
B0425053207000S11653918EA0086200850000000000000
B0425093207035S11653867EA0086200849000000000000
B0425133207029S11653809EA0086400854000000000000
B0425173206992S11653784EA0086600857000000000000
B0425213206966S11653824EA0087400862000000000000
B0425253206996S11653879EA0087200858000000000000
B0425293207060S11653890EA0086800854000000000000
B0425333207100S11653842EA0086900862000000000000
B0425373207085S11653790EA0087400863000000000000
B0425413207042S11653794EA0087200862000000000000
B0425453207031S11653851EA0088000868000000000000
B0425493207079S11653896EA0087600863000000000000
B0425533207143S11653887EA0087500863000000000000
B0425573207176S11653833EA0088000869000000000000
B0426013207157S11653783EA0087600862000000000000
B0426053207112S11653767EA0086900858000000000000
B0426093207081S11653811EA0087300860000000000000
B0426133207108S11653871EA0087600866000000000000
B0426173207173S11653885EA0088100869000000000000
B0426213207222S11653845EA0087900867000000000000
B0426253207225S11653781EA0087700862000000000000
B0426293207186S11653738EA0086700855000000000000
B0426333207134S11653712EA0086600858000000000000
B0426373207081S11653695EA0087200863000000000000
B0426413207034S11653718EA0087400863000000000000
B0426453207031S11653783EA0087500867000000000000
B0426493207082S11653828EA0087800869000000000000
B0426533207150S11653824EA0087800869000000000000
B0426573207190S11653770EA0087600867000000000000
B0427013207186S11653702EA0087600868000000000000
B0427053207148S11653655EA0087700869000000000000
B0427093207098S11653653EA0087500867000000000000
B0427133207060S11653698EA0087100862000000000000
B0427173207060S11653770EA0087400867000000000000
B0427213207092S11653829EA0088600879000000000000
B0427253207152S11653836EA0089000881000000000000
B0427293207183S11653780EA0088700880000000000000
B0427333207160S11653724EA0088700875000000000000
B0427373207107S11653720EA0088000870000000000000
B0427413207078S11653776EA0088600880000000000000
B0427453207109S11653833EA0089400884000000000000
B0427493207173S11653833EA0089200881000000000000
B0427533207206S11653777EA0089100884000000000000
B0427573207181S11653727EA0088900877000000000000
B0428013207130S11653732EA0088500875000000000000
B0428053207121S11653790EA0089800889000000000000
B0428093207169S11653829EA0089900887000000000000
B0428133207229S11653807EA0089600885000000000000
B0428173207248S11653744EA0089600884000000000000
B0428213207215S11653701EA0089300881000000000000
B0428253207168S11653718EA0089100883000000000000
B0428293207163S11653781EA0089700890000000000000
B0428333207209S11653820EA0090500899000000000000
B0428373207263S11653797EA0090700896000000000000
B0428413207264S11653733EA0089800888000000000000
B0428453207224S11653702EA0090200895000000000000
B0428493207186S11653727EA0090600899000000000000
B0428533207183S11653783EA0091000904000000000000
B0428573207221S11653828EA0091100902000000000000
B0429013207284S11653829EA0090800899000000000000
B0429053207329S11653780EA0090400897000000000000
B0429093207329S11653718EA0091100904000000000000
B0429133207293S11653688EA0090900902000000000000
B0429173207251S11653711EA0090600899000000000000
B0429213207245S11653771EA0091100904000000000000
B0429253207281S11653818EA0091200905000000000000
B0429293207339S11653815EA0091300906000000000000
B0429333207380S11653768EA0091300903000000000000
B0429373207378S11653707EA0091400903000000000000
B0429413207343S11653669EA0091100901000000000000
B0429453207298S11653682EA0091000902000000000000
B0429493207273S11653733EA0091000899000000000000
B0429533207289S11653790EA0091000900000000000000
B0429573207343S11653810EA0090600897000000000000
B0430013207388S11653771EA0090600899000000000000
B0430053207381S11653715EA0090700899000000000000
B0430093207342S11653675EA0090500897000000000000
B0430133207293S11653669EA0090400895000000000000
B0430173207261S11653718EA0090300892000000000000
B0430213207284S11653781EA0089900890000000000000
B0430253207345S11653798EA0089600888000000000000
B0430293207397S11653762EA0089300886000000000000
B0430333207406S11653699EA0088800880000000000000
B0430373207372S11653655EA0087700870000000000000
B0430413207324S11653629EA0087200865000000000000
B0430453207272S11653607EA0086400855000000000000
B0430493207217S11653584EA0085400844000000000000
B0430533207160S11653558EA0084300835000000000000
B0430573207100S11653534EA0083700830000000000000
B0431013207043S11653510EA0083500826000000000000
B0431053206985S11653486EA0082900825000000000000
B0431093206927S11653467EA0083100825000000000000
B0431133206869S11653450EA0082800821000000000000
B0431173206810S11653430EA0082300814000000000000
B0431213206751S11653408EA0082000814000000000000
B0431253206695S11653389EA0082500821000000000000
B0431293206640S11653372EA0082400812000000000000
B0431333206585S11653355EA0081700806000000000000
B0431373206531S11653333EA0081500805000000000000
B0431413206475S11653320EA0081200802000000000000
B0431453206419S11653335EA0080200791000000000000
B0431493206375S11653381EA0079700788000000000000
B0431533206346S11653447EA0079600786000000000000
B0431573206341S11653524EA0079200782000000000000
B0432013206354S11653601EA0079000785000000000000
B0432053206371S11653672EA0078900782000000000000
B0432093206394S11653746EA0078200776000000000000
B0432133206419S11653816EA0077900775000000000000
B0432173206444S11653885EA0077900773000000000000
B0432213206471S11653953EA0077100765000000000000
B0432253206505S11654020EA0076300758000000000000
B0432293206540S11654087EA0075900755000000000000
B0432333206574S11654150EA0076000757000000000000
B0432373206606S11654210EA0075900753000000000000
B0432413206640S11654273EA0075000742000000000000
B0432453206675S11654338EA0074200736000000000000
B0432493206706S11654401EA0073900730000000000000
B0432533206735S11654469EA0073100723000000000000
B0432573206765S11654537EA0072000712000000000000
B0433013206796S11654607EA0071100704000000000000
B0433053206826S11654677EA0070600701000000000000
B0433093206861S11654741EA0070800706000000000000
B0433133206897S11654800EA0071400710000000000000
B0433173206933S11654859EA0071400708000000000000
B0433213206970S11654917EA0070900705000000000000
B0433253207007S11654973EA0071000704000000000000
B0433293207033S11655033EA0070500700000000000000
B0433333207055S11655097EA0070400698000000000000
B0433373207103S11655144EA0070900705000000000000
B0433413207157S11655118EA0071600710000000000000
B0433453207151S11655055EA0072300717000000000000
B0433493207108S11655059EA0072900721000000000000
B0433533207107S11655119EA0073100722000000000000
B0433573207163S11655135EA0073300723000000000000
B0434013207186S11655072EA0073300726000000000000
B0434053207146S11655042EA0074200733000000000000
B0434093207129S11655094EA0074600738000000000000
B0434133207176S11655132EA0075000739000000000000
B0434173207229S11655101EA0075000742000000000000
B0434213207228S11655037EA0075700748000000000000
B0434253207185S11655033EA0076200755000000000000
B0434293207174S11655088EA0076700759000000000000
B0434333207216S11655127EA0077200759000000000000
B0434373207269S11655105EA0077100761000000000000
B0434413207284S11655042EA0077600768000000000000
B0434453207248S11655016EA0078200773000000000000
B0434493207222S11655058EA0078500774000000000000
B0434533207251S11655111EA0078700776000000000000
B0434573207308S11655105EA0079200781000000000000
B0435013207329S11655047EA0079500783000000000000
B0435053207299S11655006EA0079900787000000000000
B0435093207261S11655034EA0080100789000000000000
B0435133207280S11655094EA0080500791000000000000
B0435173207338S11655097EA0080800796000000000000
B0435213207367S11655040EA0081300802000000000000
B0435253207342S11654989EA0081500806000000000000
B0435293207299S11655001EA0082000808000000000000
B0435333207293S11655055EA0082400812000000000000
B0435373207334S11655101EA0082500813000000000000
B0435413207394S11655093EA0082700815000000000000
B0435453207420S11655033EA0082900818000000000000
B0435493207393S11654984EA0083400823000000000000
B0435533207349S11654997EA0083500822000000000000
B0435573207338S11655057EA0083500822000000000000
B0436013207381S11655105EA0083600822000000000000
B0436053207440S11655081EA0083800826000000000000
B0436093207449S11655018EA0084300830000000000000
B0436133207408S11654989EA0084100829000000000000
B0436173207376S11655029EA0084600835000000000000
B0436213207395S11655085EA0085000838000000000000
B0436253207453S11655096EA0085200841000000000000
B0436293207493S11655051EA0085700849000000000000
B0436333207488S11654994EA0085800846000000000000
B0436373207450S11654969EA0085900850000000000000
B0436413207415S11654993EA0086300853000000000000
B0436453207407S11655045EA0086200850000000000000
B0436493207440S11655096EA0085900848000000000000
B0436533207495S11655094EA0086700858000000000000
B0436573207519S11655037EA0087200861000000000000
B0437013207492S11654992EA0087300862000000000000
B0437053207449S11654999EA0087500863000000000000
B0437093207432S11655051EA0087500864000000000000
B0437133207459S11655106EA0087300861000000000000
B0437173207516S11655125EA0087600866000000000000
B0437213207554S11655081EA0088300872000000000000
B0437253207537S11655024EA0088500878000000000000
B0437293207492S11655016EA0089000880000000000000
B0437333207463S11655063EA0089100879000000000000
B0437373207480S11655124EA0088900875000000000000
B0437413207533S11655154EA0088600873000000000000
B0437453207584S11655122EA0089500884000000000000
B0437493207584S11655062EA0090000887000000000000
B0437533207537S11655044EA0089800885000000000000
B0437573207502S11655086EA0090400891000000000000
B0438013207516S11655149EA0090200884000000000000
B0438053207573S11655175EA0089600880000000000000
B0438093207623S11655138EA0090200890000000000000
B0438133207632S11655079EA0091200901000000000000
B0438173207598S11655042EA0091600904000000000000
B0438213207554S11655063EA0091600903000000000000
B0438253207546S11655123EA0091700902000000000000
B0438293207588S11655168EA0091200895000000000000
B0438333207646S11655161EA0090900894000000000000
B0438373207677S11655103EA0091200901000000000000
B0438413207664S11655047EA0092000909000000000000
B0438453207622S11655033EA0092300912000000000000
B0438493207590S11655073EA0092400911000000000000
B0438533207606S11655135EA0092000902000000000000
B0438573207663S11655159EA0091500898000000000000
B0439013207718S11655128EA0091600901000000000000
B0439053207749S11655071EA0091700906000000000000
B0439093207739S11655011EA0091900907000000000000
B0439133207692S11654990EA0091700903000000000000
B0439173207635S11654989EA0091100897000000000000
B0439213207576S11654995EA0090500891000000000000
B0439253207518S11655007EA0089500881000000000000
B0439293207456S11655023EA0088400871000000000000
B0439333207395S11655037EA0088000865000000000000
B0439373207338S11655050EA0087600864000000000000
B0439413207282S11655063EA0087200860000000000000
B0439453207225S11655075EA0086700853000000000000
B0439493207169S11655080EA0086400853000000000000
B0439533207115S11655079EA0086600855000000000000
B0439573207061S11655071EA0086300849000000000000
B0440013207007S11655060EA0085900847000000000000
B0440053206953S11655051EA0085900845000000000000
B0440093206900S11655044EA0085200839000000000000
B0440133206845S11655031EA0085000838000000000000
B0440173206793S11655012EA0084900838000000000000
B0440213206743S11654994EA0084800837000000000000
B0440253206692S11654973EA0084600834000000000000
B0440293206641S11654955EA0084200829000000000000
B0440333206589S11654936EA0083800827000000000000
B0440373206539S11654917EA0083500825000000000000
B0440413206488S11654901EA0083100817000000000000
B0440453206439S11654873EA0082300810000000000000
B0440493206388S11654845EA0081700805000000000000
B0440533206337S11654820EA0081600808000000000000
B0440573206288S11654799EA0081700804000000000000
B0441013206236S11654777EA0081000799000000000000
B0441053206184S11654756EA0081100802000000000000
B0441093206136S11654733EA0081300803000000000000
B0441133206090S11654709EA0080700795000000000000
B0441173206041S11654686EA0080200790000000000000
B0441213205990S11654663EA0080100789000000000000
B0441253205942S11654637EA0079500785000000000000
B0441293205893S11654608EA0079000778000000000000
B0441333205846S11654577EA0079200779000000000000
B0441373205803S11654546EA0078800773000000000000
B0441413205755S11654517EA0077600763000000000000
B0441453205705S11654485EA0076700756000000000000
B0441493205657S11654451EA0076700757000000000000
B0441533205612S11654420EA0076700756000000000000
B0441573205565S11654388EA0076100749000000000000
B0442013205518S11654358EA0075200739000000000000
B0442053205464S11654336EA0074400733000000000000
B0442093205408S11654327EA0073800727000000000000
B0442133205352S11654326EA0073500724000000000000
B0442173205297S11654323EA0073200720000000000000
B0442213205244S11654317EA0072800716000000000000
B0442253205192S11654317EA0072400710000000000000
B0442293205139S11654323EA0071600701000000000000
B0442333205089S11654339EA0071100696000000000000
B0442373205051S11654387EA0070200684000000000000
B0442413205041S11654459EA0069200680000000000000
B0442453205053S11654534EA0068800677000000000000
B0442493205077S11654607EA0068700677000000000000
B0442533205113S11654677EA0068800679000000000000
B0442573205144S11654747EA0069100682000000000000
B0443013205178S11654816EA0069600687000000000000
B0443053205217S11654880EA0069400681000000000000
B0443093205265S11654938EA0068900678000000000000
B0443133205317S11654988EA0068400675000000000000
B0443173205370S11655036EA0068300673000000000000
B0443213205421S11655088EA0067700666000000000000
B0443253205467S11655145EA0067500666000000000000
B0443293205513S11655202EA0067400663000000000000
B0443333205561S11655255EA0067300665000000000000
B0443373205612S11655304EA0067700667000000000000
B0443413205664S11655350EA0067000656000000000000
B0443453205717S11655400EA0066100650000000000000
B0443493205769S11655450EA0065800648000000000000
B0443533205818S11655504EA0065300641000000000000
B0443573205869S11655556EA0065000639000000000000
B0444013205920S11655606EA0065200642000000000000
B0444053205973S11655652EA0064900639000000000000
B0444093206029S11655697EA0064500632000000000000
B0444133206084S11655747EA0064000628000000000000
B0444173206134S11655796EA0063600621000000000000
B0444213206185S11655847EA0063200620000000000000
B0444253206250S11655863EA0063400622000000000000
B0444293206305S11655820EA0063500622000000000000
B0444333206299S11655755EA0063000618000000000000
B0444373206253S11655733EA0062200609000000000000
B0444413206216S11655774EA0061400603000000000000
B0444453206218S11655843EA0060900596000000000000
B0444493206238S11655913EA0060800600000000000000
B0444533206268S11655978EA0061100601000000000000
B0444573206305S11656042EA0061200602000000000000
B0445013206348S11656102EA0061900608000000000000
B0445053206409S11656107EA0062500615000000000000
B0445093206420S11656038EA0062200612000000000000
B0445133206374S11656016EA0062400617000000000000
B0445173206346S11656065EA0063100623000000000000
B0445213206376S11656121EA0063800629000000000000
B0445253206436S11656115EA0064000633000000000000
B0445293206450S11656054EA0064000632000000000000
B0445333206409S11656026EA0063700629000000000000
B0445373206372S11656072EA0063900629000000000000
B0445413206398S11656133EA0064700642000000000000
B0445453206455S11656121EA0065300645000000000000
B0445493206461S11656059EA0065400645000000000000
B0445533206416S11656043EA0065500647000000000000
B0445573206388S11656095EA0065800651000000000000
B0446013206419S11656149EA0066700661000000000000
B0446053206475S11656132EA0066800660000000000000
B0446093206480S11656068EA0067000664000000000000
B0446133206439S11656048EA0067300667000000000000
B0446173206405S11656093EA0067600670000000000000
B0446213206418S11656158EA0068300673000000000000
B0446253206468S11656193EA0068700677000000000000
B0446293206524S11656172EA0068700677000000000000
B0446333206543S11656110EA0068800681000000000000
B0446373206509S11656073EA0069300686000000000000
B0446413206467S11656098EA0069600687000000000000
B0446453206466S11656163EA0070000690000000000000
B0446493206522S11656195EA0070100691000000000000
B0446533206570S11656155EA0070400696000000000000
B0446573206561S11656098EA0070800699000000000000
B0447013206513S11656099EA0071100702000000000000
B0447053206494S11656160EA0071500704000000000000
B0447093206536S11656212EA0071600706000000000000
B0447133206596S11656198EA0071700706000000000000
B0447173206611S11656137EA0071700710000000000000
B0447213206575S11656103EA0072200714000000000000
B0447253206527S11656123EA0072300713000000000000
B0447293206505S11656182EA0072700717000000000000
B0447333206541S11656241EA0073100720000000000000
B0447373206602S11656236EA0072600715000000000000
B0447413206628S11656175EA0072400714000000000000
B0447453206605S11656116EA0072800718000000000000
B0447493206557S11656098EA0073000720000000000000
B0447533206522S11656143EA0073500725000000000000
B0447573206559S11656201EA0074100729000000000000
B0448013206627S11656185EA0073300718000000000000
B0448053206637S11656116EA0073700727000000000000
B0448093206593S11656085EA0073900730000000000000
B0448133206550S11656124EA0074100732000000000000
B0448173206556S11656195EA0074900738000000000000
B0448213206613S11656234EA0075500742000000000000
B0448253206671S11656208EA0074700735000000000000
B0448293206675S11656143EA0074700738000000000000
B0448333206640S11656099EA0075000741000000000000
B0448373206597S11656126EA0075300742000000000000
B0448413206604S11656194EA0075500743000000000000
B0448453206665S11656227EA0075100735000000000000
B0448493206718S11656182EA0074100728000000000000
B0448533206728S11656111EA0074400735000000000000
B0448573206704S11656054EA0074900737000000000000
B0449013206653S11656041EA0074900736000000000000
B0449053206613S11656089EA0075300741000000000000
B0449093206631S11656160EA0076100751000000000000
B0449133206696S11656186EA0076300750000000000000
B0449173206745S11656143EA0076700761000000000000
B0449213206732S11656091EA0077300764000000000000
B0449253206688S11656091EA0077500768000000000000
B0449293206670S11656145EA0078100773000000000000
B0449333206708S11656194EA0078700775000000000000
B0449373206766S11656186EA0078600777000000000000
B0449413206792S11656133EA0079000779000000000000
B0449453206766S11656090EA0078900780000000000000
B0449493206727S11656111EA0079300782000000000000
B0449533206734S11656172EA0079600786000000000000
B0449573206791S11656199EA0080000788000000000000
B0450013206842S11656165EA0080100791000000000000
B0450053206843S11656106EA0080300793000000000000
B0450093206801S11656087EA0080200791000000000000
B0450133206767S11656128EA0080600798000000000000
B0450173206800S11656180EA0081300801000000000000
B0450213206860S11656162EA0081300803000000000000
B0450253206868S11656100EA0081300802000000000000
B0450293206825S11656076EA0081100798000000000000
B0450333206788S11656123EA0081400806000000000000
B0450373206816S11656184EA0082300812000000000000
B0450413206879S11656181EA0082500814000000000000
B0450453206904S11656120EA0082900821000000000000
B0450493206870S11656078EA0083000818000000000000
B0450533206829S11656112EA0083100821000000000000
B0450573206849S11656176EA0084200833000000000000
B0451013206912S11656189EA0084600835000000000000
B0451053206955S11656138EA0084700838000000000000
B0451093206946S11656076EA0085100841000000000000
B0451133206897S11656063EA0085100837000000000000
B0451173206865S11656116EA0085600845000000000000
B0451213206895S11656176EA0086300852000000000000
B0451253206960S11656184EA0086500856000000000000
B0451293207001S11656134EA0087100863000000000000
B0451333206988S11656078EA0087500864000000000000
B0451373206940S11656073EA0087200862000000000000
B0451413206931S11656134EA0088100872000000000000
B0451453206982S11656172EA0088200872000000000000
B0451493207039S11656139EA0088500876000000000000
B0451533207039S11656076EA0089000882000000000000
B0451573206995S11656055EA0089000880000000000000
B0452013206952S11656090EA0089000883000000000000
B0452053206948S11656152EA0089800888000000000000
B0452093206988S11656204EA0089700886000000000000
B0452133207053S11656210EA0089700888000000000000
B0452173207091S11656159EA0090400898000000000000
B0452213207069S11656112EA0090500897000000000000
B0452253207024S11656125EA0090500898000000000000
B0452293207013S11656186EA0091200904000000000000
B0452333207056S11656236EA0091300906000000000000
B0452373207117S11656228EA0091300908000000000000
B0452413207143S11656172EA0091800912000000000000
B0452453207116S11656130EA0091800912000000000000
B0452493207069S11656141EA0091900912000000000000
B0452533207057S11656198EA0092300917000000000000
B0452573207102S11656247EA0092200914000000000000
B0453013207163S11656233EA0092400919000000000000
B0453053207181S11656175EA0092600923000000000000
B0453093207150S11656137EA0092400920000000000000
B0453133207103S11656139EA0092300921000000000000
B0453173207057S11656164EA0092200919000000000000
B0453213207008S11656184EA0092100920000000000000
B0453253206957S11656195EA0092300921000000000000
B0453293206907S11656198EA0092400919000000000000
B0453333206855S11656191EA0092300917000000000000
B0453373206806S11656182EA0092100915000000000000
B0453413206757S11656165EA0092100913000000000000
B0453453206708S11656150EA0092300918000000000000
B0453493206657S11656134EA0092300912000000000000
B0453533206604S11656123EA0091600908000000000000
B0453573206553S11656116EA0091700911000000000000
B0454013206502S11656111EA0091300901000000000000
B0454053206450S11656108EA0090600895000000000000
B0454093206397S11656107EA0089800886000000000000
B0454133206342S11656104EA0089400879000000000000
B0454173206289S11656103EA0088700875000000000000
B0454213206237S11656100EA0088500872000000000000
B0454253206184S11656100EA0088300871000000000000
B0454293206134S11656100EA0088200870000000000000
B0454333206082S11656102EA0088900878000000000000
B0454373206046S11656137EA0089700885000000000000
B0454413206073S11656197EA0089300881000000000000
B0454453206142S11656185EA0089200882000000015000
B0454493206163S11656116EA0090000897000000015000
B0454533206130S11656076EA0090800904000000000000
B0454573206089S11656104EA0091000901000000000000
B0455013206101S11656171EA0091400907000000000000
B0455053206162S11656190EA0091700910000000000000
B0455093206203S11656138EA0091600914000000000000
B0455133206185S11656084EA0092400922000000000000
B0455173206141S11656080EA0092700923000000000000
B0455213206110S11656125EA0093200927000000000000
B0455253206132S11656188EA0093600929000000000000
B0455293206195S11656203EA0093900930000000000000
B0455333206242S11656151EA0093200922000000000000
B0455373206227S11656081EA0093200927000000000000
B0455413206177S11656063EA0093800934000000000000
B0455453206141S11656107EA0094700942000000000000
B0455493206146S11656172EA0095600948000000000000
B0455533206193S11656214EA0096000949000000000000
B0455573206253S11656197EA0096200951000000000000
B0456013206281S11656137EA0096200950000000000000
B0456053206250S11656097EA0096400953000000000000
B0456093206218S11656138EA0096800957000000000000
B0456133206242S11656198EA0097700965000000000000
B0456173206302S11656206EA0098000967000000000000
B0456213206341S11656151EA0097900964000000000000
B0456253206324S11656094EA0098100970000000000000
B0456293206277S11656089EA0098900974000000000000
B0456333206249S11656138EA0099500980000000000000
B0456373206263S11656203EA0099900983000000000000
B0456413206316S11656243EA0100000981000000000000
B0456453206379S11656223EA0099900983000000000000
B0456493206406S11656160EA0100000985000000000000
B0456533206387S11656103EA0100000984000000000000
B0456573206338S11656082EA0100000985000000000000
B0457013206286S11656084EA0100400992000000000000
B0457053206251S11656126EA0101400999000000000000
B0457093206267S11656188EA0101601000000000000000
B0457133206327S11656207EA0101100994000000000000
B0457173206380S11656165EA0101100996000000000000
B0457213206396S11656103EA0101701003000000000000
B0457253206371S11656051EA0101801002000000000000
B0457293206333S11656009EA0101701003000000000000
B0457333206293S11655972EA0101601001000000000000
B0457373206250S11655938EA0101701005000000000000
B0457413206207S11655909EA0102201009000000000000
B0457453206163S11655883EA0102301008000000000000
B0457493206117S11655856EA0102001006000000000000
B0457533206075S11655824EA0101901002000000000000
B0457573206032S11655785EA0101801000000000000000
B0458013205993S11655746EA0101701000000000000000
B0458053205958S11655704EA0101200996000000000000
B0458093205921S11655661EA0100800993000000000000
B0458133205885S11655622EA0100800990000000000000
B0458173205846S11655587EA0100500986000000000000
B0458213205802S11655562EA0100000981000000000000
B0458253205755S11655553EA0099900981000000000000
B0458293205708S11655558EA0099500976000000000000
B0458333205662S11655570EA0099000971000000000000
B0458373205618S11655586EA0098700969000000000000
B0458413205577S11655604EA0098400963000000000000
B0458453205536S11655626EA0097800958000000000000
B0458493205496S11655652EA0097900959000000000000
B0458533205453S11655675EA0097900959000000000000
B0458573205410S11655700EA0098100961000000000000
B0459013205371S11655735EA0098500965000000000000
B0459053205371S11655795EA0099100972000000000000
B0459093205425S11655827EA0099600978000000000000
B0459133205473S11655786EA0100100981000000000000
B0459173205467S11655725EA0100000981000000000000
B0459213205425S11655708EA0100000981000000000000
B0459253205391S11655747EA0100300986000000000000
B0459293205386S11655803EA0101500996000000000000
B0459333205425S11655846EA0101500993000000000000
B0459373205483S11655830EA0101500996000000000000
B0459413205496S11655768EA0102101005000000000000
B0459453205460S11655735EA0102701008000000000000
B0459493205423S11655772EA0102801010000000000000
B0459533205439S11655831EA0103201015000000000000
B0459573205499S11655840EA0103101010000000000000
B0500013205527S11655779EA0102901015000000000000
B0500053205499S11655731EA0103901022000000000000
B0500093205453S11655746EA0104001023000000000000
B0500133205444S11655805EA0104501028000000000000
B0500173205491S11655842EA0104601026000000000000
B0500213205544S11655811EA0104401024000000000000
B0500253205543S11655748EA0104901032000000000000
B0500293205503S11655727EA0105101035000000000000
B0500333205471S11655769EA0105301037000000000000
B0500373205492S11655824EA0105501039000000000000
B0500413205549S11655831EA0105301034000000000000
B0500453205588S11655782EA0105101040000000000000
B0500493205578S11655727EA0105701041000000000000
B0500533205532S11655699EA0104701023000000000000
B0500573205469S11655679EA0103201015000000000000
B0501013205402S11655664EA0103301018000000000000
B0501053205337S11655661EA0103601025000000000000
B0501093205288S11655695EA0104401031000000000000
B0501133205259S11655749EA0104301027000000000000
B0501173205245S11655814EA0103801024000000000000
B0501213205245S11655878EA0104001030000000000000
B0501253205253S11655938EA0104701040000000000000
B0501293205266S11655996EA0105301048000000000000
B0501333205282S11656052EA0105801045000000000000
B0501373205306S11656112EA0104801039000000000000
B0501413205353S11656152EA0105201043000000000000
B0501453205410S11656143EA0105401046000000000000
B0501493205439S11656089EA0105801051000000000000
B0501533205426S11656030EA0106101056000000000000
B0501573205382S11656008EA0106701059000000000000
B0502013205337S11656041EA0106701057000000000000
B0502053205335S11656106EA0106501054000000000000
B0502093205379S11656151EA0106501056000000000000
B0502133205438S11656143EA0106801060000000000000
B0502173205465S11656090EA0107301065000000000000
B0502213205445S11656034EA0107501065000000000000
B0502253205396S11656019EA0107701068000000000000
B0502293205353S11656056EA0107901066000000000000
B0502333205344S11656124EA0107201059000000000000
B0502373205384S11656177EA0106701056000000000000
B0502413205445S11656175EA0107101062000000000000
B0502453205471S11656123EA0107701067000000000000
B0502493205440S11656074EA0107701069000000000000
B0502533205387S11656068EA0108301074000000000000
B0502573205332S11656080EA0108001065000000000000
B0503013205274S11656087EA0106901056000000000000
B0503053205217S11656082EA0106701051000000000000
B0503093205162S11656060EA0106101044000000000000
B0503133205111S11656028EA0105701042000000000000
B0503173205063S11655990EA0105501036000000000000
B0503213205016S11655950EA0105101033000000000000
B0503253204971S11655911EA0105001031000000000000
B0503293204925S11655870EA0104701031000000000000
B0503333204886S11655830EA0105101036000000000000
B0503373204853S11655792EA0105401037000000000000
B0503413204816S11655755EA0104901031000000000000
B0503453204780S11655712EA0104401026000000000000
B0503493204743S11655665EA0103901019000000000000
B0503533204707S11655622EA0103801023000000000000
B0503573204669S11655583EA0104001023000000000000
B0504013204632S11655543EA0103501017000000000000
B0504053204595S11655504EA0103101015000000000000
B0504093204555S11655467EA0102901014000000000000
B0504133204516S11655434EA0102801012000000000000
B0504173204477S11655401EA0102501008000000000000
B0504213204439S11655367EA0102101005000000000000
B0504253204401S11655332EA0101701001000000000000
B0504293204370S11655291EA0101400999000000000000
B0504333204346S11655240EA0100900992000000000000
B0504373204320S11655188EA0100400989000000000000
B0504413204295S11655136EA0100900998000000000000
B0504453204265S11655096EA0101701002000000000000
B0504493204223S11655103EA0101601000000000000000
B0504533204222S11655166EA0101500999000000000000
B0504573204273S11655202EA0101901005000000000000
B0505013204321S11655168EA0102601013000000000000
B0505053204327S11655106EA0103001016000000000000
B0505093204292S11655072EA0103201018000000000000
B0505133204255S11655099EA0103201018000000000000
B0505173204257S11655163EA0102901012000000000000
B0505213204308S11655206EA0103001017000000000000
B0505253204366S11655196EA0103901028000000000000
B0505293204400S11655145EA0104701033000000000000
B0505333204396S11655085EA0105001037000000000000
B0505373204364S11655051EA0104901035000000000000
B0505413204320S11655055EA0104701033000000000000
B0505453204286S11655094EA0104301027000000000000
B0505493204271S11655154EA0103601022000000000000
B0505533204286S11655218EA0103401017000000000000
B0505573204329S11655267EA0103001015000000000000
B0506013204387S11655297EA0102401011000000000000
B0506053204447S11655320EA0102701015000000000000
B0506093204507S11655317EA0102801013000000000000
B0506133204535S11655262EA0102201006000000000000
B0506173204516S11655207EA0101500999000000000000
B0506213204466S11655197EA0101401001000000000000
B0506253204424S11655229EA0102001008000000000000
B0506293204417S11655294EA0102001005000000000000
B0506333204456S11655352EA0101500999000000000000
B0506373204517S11655387EA0101100997000000000000
B0506413204581S11655411EA0100500990000000000000
B0506453204650S11655432EA0099700981000000000000
B0506493204720S11655453EA0098900976000000000000
B0506533204788S11655476EA0098700975000000000000
B0506573204854S11655504EA0098400972000000000000
B0507013204916S11655532EA0098300973000000000000
B0507053204976S11655562EA0098400974000000000000
B0507093205033S11655590EA0098300971000000000000
B0507133205092S11655618EA0098100970000000000000
B0507173205148S11655649EA0098200967000000000000
B0507213205204S11655681EA0097600964000000000000
B0507253205262S11655710EA0097300958000000000000
B0507293205322S11655738EA0096700953000000000000
B0507333205384S11655762EA0096500952000000000000
B0507373205447S11655787EA0096300949000000000000
B0507413205508S11655813EA0095900947000000000000
B0507453205568S11655842EA0095700945000000000000
B0507493205625S11655870EA0095700946000000000000
B0507533205679S11655900EA0095500943000000000000
B0507573205733S11655930EA0095000940000000000000
B0508013205786S11655963EA0094700935000000000000
B0508053205841S11655999EA0094200929000000000000
B0508093205896S11656035EA0093900925000000000000
B0508133205952S11656073EA0093900928000000000000
B0508173206012S11656093EA0094900936000000000000
B0508213206060S11656058EA0095600944000000000000
B0508253206063S11655994EA0095600942000000000000
B0508293206024S11655961EA0095900949000000000000
B0508333205984S11655990EA0096600957000000000000
B0508373205977S11656054EA0097100959000000000000
B0508413206016S11656103EA0097200960000000000000
B0508453206076S11656102EA0097800967000000000000
B0508493206117S11656059EA0098300972000000000000
B0508533206124S11655999EA0098700975000000000000
B0508573206095S11655957EA0099000979000000000000
B0509013206055S11655973EA0099500983000000000000
B0509053206050S11656037EA0099500982000000000000
B0509093206097S11656081EA0099600987000000000000
B0509133206155S11656064EA0100400994000000000000
B0509173206177S11656006EA0101101002000000000000
B0509213206153S11655960EA0101501003000000000000
B0509253206112S11655977EA0101701002000000000000
B0509293206108S11656045EA0101701005000000000000
B0509333206153S11656091EA0102501013000000000000
B0509373206210S11656080EA0102901016000000000000
B0509413206236S11656020EA0103201018000000000000
B0509453206216S11655965EA0103501024000000000000
B0509493206175S11655965EA0103901027000000000000
B0509533206159S11656024EA0103901027000000000000
B0509573206192S11656084EA0104701038000000000000
B0510013206249S11656097EA0105801046000000000000
B0510053206292S11656052EA0106101049000000000000
B0510093206286S11655993EA0106201050000000000000
B0510133206246S11655968EA0106301051000000000000
B0510173206207S11655995EA0107301060000000000000
B0510213206203S11656052EA0107701065000000000000
B0510253206241S11656100EA0108201070000000000000
B0510293206298S11656100EA0108501070000000000000
B0510333206337S11656052EA0108601074000000000000
B0510373206336S11655991EA0109001078000000000000
B0510413206306S11655947EA0109201079000000000000
B0510453206260S11655931EA0109401080000000000000
B0510493206216S11655955EA0109001074000000000000
B0510533206197S11656017EA0107601059000000000000
B0510573206216S11656091EA0106701050000000000000
B0511013206244S11656164EA0106901053000000000000
B0511053206272S11656229EA0107201055000000000000
B0511093206307S11656289EA0107101055000000000000
B0511133206345S11656344EA0106901052000000000000
B0511173206388S11656397EA0106501048000000000000
B0511213206431S11656449EA0106201046000000000000
B0511253206479S11656497EA0106401048000000000000
B0511293206523S11656546EA0106001040000000000000
B0511333206567S11656598EA0105401033000000000000
B0511373206613S11656649EA0104801034000000000000
B0511413206654S11656696EA0105101034000000000000
B0511453206696S11656743EA0104901030000000000000
B0511493206739S11656789EA0104301025000000000000
B0511533206782S11656840EA0103701022000000000000
B0511573206825S11656890EA0103501018000000000000
B0512013206868S11656939EA0103201015000000000000
B0512053206916S11656987EA0102901011000000000000
B0512093206962S11657036EA0102701010000000000000
B0512133207011S11657087EA0102501008000000000000
B0512173207060S11657135EA0102101004000000000000
B0512213207109S11657185EA0101601000000000000000
B0512253207159S11657231EA0101200994000000000000
B0512293207209S11657277EA0100600988000000000000
B0512333207261S11657322EA0100100984000000000000
B0512373207313S11657367EA0100000983000000000000
B0512413207363S11657413EA0100100986000000000000
B0512453207414S11657455EA0100200988000000000000
B0512493207468S11657494EA0100400988000000000000
B0512533207532S11657510EA0100300987000000000000
B0512573207593S11657489EA0100500993000000000000
B0513013207636S11657442EA0101300999000000000000
B0513053207655S11657380EA0101200996000000000000
B0513093207649S11657311EA0100600990000000000000
B0513133207623S11657248EA0100400990000000000000
B0513173207589S11657194EA0100500990000000000000
B0513213207555S11657143EA0100100985000000000000
B0513253207520S11657094EA0099900983000000000000
B0513293207480S11657049EA0099700983000000000000
B0513333207438S11657009EA0099500981000000000000
B0513373207395S11656970EA0099200978000000000000
B0513413207352S11656932EA0099000974000000000000
B0513453207312S11656888EA0098600970000000000000
B0513493207273S11656845EA0098400969000000000000
B0513533207233S11656808EA0098400967000000000000
B0513573207193S11656771EA0097800962000000000000
B0514013207152S11656731EA0097400957000000000000
B0514053207113S11656687EA0096700951000000000000
B0514093207076S11656640EA0096300945000000000000
B0514133207038S11656593EA0095600940000000000000
B0514173207000S11656546EA0095200938000000000000
B0514213206959S11656501EA0095100935000000000000
B0514253206916S11656458EA0094900935000000000000
B0514293206870S11656423EA0094500931000000000000
B0514333206825S11656389EA0094300928000000000000
B0514373206782S11656353EA0094200926000000000000
B0514413206743S11656314EA0094000924000000000000
B0514453206705S11656272EA0093600920000000000000
B0514493206667S11656230EA0093500920000000000000
B0514533206630S11656193EA0093600921000000000000
B0514573206591S11656158EA0093400917000000000000
B0515013206552S11656123EA0092900911000000000000
B0515053206511S11656087EA0092300906000000000000
B0515093206472S11656050EA0092000904000000000000
B0515133206433S11656012EA0092100903000000000000
B0515173206396S11655976EA0091600899000000000000
B0515213206355S11655935EA0090800892000000000000
B0515253206315S11655894EA0090800892000000000000
B0515293206280S11655848EA0090700892000000000000
B0515333206255S11655794EA0090800892000000000000
B0515373206232S11655739EA0090600891000000000000
B0515413206208S11655686EA0090200885000000000000
B0515453206182S11655632EA0089800880000000000000
B0515493206151S11655582EA0089300872000000000000
B0515533206111S11655538EA0088100863000000000000
B0515573206064S11655506EA0087800862000000000000
B0516013206013S11655493EA0087400857000000000000
B0516053205963S11655487EA0087200854000000000000
B0516093205912S11655488EA0087000852000000000000
B0516133205864S11655509EA0086500846000000000000
B0516173205820S11655545EA0086200845000000000000
B0516213205777S11655579EA0085800840000000000000
B0516253205731S11655610EA0085300836000000000000
B0516293205686S11655640EA0085000831000000000000
B0516333205642S11655673EA0084900829000000000000
B0516373205596S11655701EA0084600826000000000000
B0516413205552S11655730EA0084400823000000000000
B0516453205509S11655759EA0084400824000000000000
B0516493205465S11655785EA0084100820000000000000
B0516533205417S11655811EA0083900817000000000000
B0516573205371S11655835EA0084400824000000000000
B0517013205330S11655861EA0084700824000000000000
B0517053205288S11655892EA0084600823000000000000
B0517093205265S11655947EA0084300821000000000000
B0517133205295S11656011EA0083300809000000000000
B0517173205365S11656033EA0082600805000000000000
B0517213205434S11656035EA0082600806000000000000
B0517253205499S11656037EA0082400803000000000000
B0517293205562S11656035EA0082000797000000000000
B0517333205627S11656034EA0081000789000000000000
B0517373205692S11656043EA0080300783000000000000
B0517413205756S11656060EA0079900779000000000000
B0517453205820S11656077EA0079500777000000000000
B0517493205885S11656093EA0079400775000000000000
B0517533205950S11656091EA0079500777000000000000
B0517573206007S11656060EA0079600778000000000000
B0518013206037S11656003EA0079900781000000000000
B0518053206032S11655941EA0079500775000000000000
B0518093205994S11655902EA0078900770000000000000
B0518133205945S11655907EA0078400766000000000000
B0518173205912S11655956EA0078100765000000000000
B0518213205917S11656022EA0078400768000000000000
B0518253205961S11656068EA0078400764000000000000
B0518293206025S11656061EA0077900761000000000000
B0518333206060S11656006EA0077600759000000000000
B0518373206046S11655944EA0077100753000000000000
B0518413206000S11655924EA0076900753000000000000
B0518453205954S11655938EA0077100756000000000000
B0518493205917S11655977EA0077200757000000000000
B0518533205913S11656042EA0077300755000000000000
B0518573205960S11656093EA0076400747000000000000
B0519013206029S11656089EA0076000744000000000000
B0519053206063S11656032EA0076400750000000000000
B0519093206045S11655970EA0076700753000000000000
B0519133205999S11655951EA0076900754000000000000
B0519173205961S11655993EA0076500750000000000000
B0519213205982S11656064EA0075900745000000000000
B0519253206050S11656091EA0075500743000000000000
B0519293206115S11656063EA0076000751000000000000
B0519333206149S11656008EA0077300764000000000000
B0519373206146S11655952EA0077400760000000000000
B0519413206111S11655916EA0076600749000000000000
B0519453206062S11655933EA0076000749000000000000
B0519493206041S11655993EA0076700757000000000000
B0519533206052S11656059EA0076900755000000000000
B0519573206073S11656126EA0076400750000000000000
B0520013206091S11656194EA0076000745000000000000
B0520053206103S11656262EA0075400741000000000000
B0520093206111S11656331EA0074900737000000000000
B0520133206116S11656399EA0074500732000000000000
B0520173206124S11656464EA0074100730000000000000
B0520213206134S11656527EA0073900724000000000000
B0520253206140S11656591EA0073100716000000000000
B0520293206143S11656657EA0072700717000000000000
B0520333206147S11656721EA0073200722000000000000
B0520373206150S11656782EA0073400724000000000000
B0520413206134S11656835EA0073400722000000000000
B0520453206097S11656853EA0073000716000000000000
B0520493206056S11656840EA0072800713000000000000
B0520533206017S11656812EA0072400710000000000000
B0520573205978S11656778EA0071700703000000000000
B0521013205939S11656743EA0071500700000000000000
B0521053205903S11656702EA0071400700000000000000
B0521093205869S11656659EA0071400696000000000000
B0521133205837S11656613EA0070800692000000000000
B0521173205804S11656565EA0070400687000000000000
B0521213205773S11656514EA0069900682000000000000
B0521253205740S11656466EA0069300677000000000000
B0521293205705S11656422EA0069000674000000000000
B0521333205670S11656380EA0068800672000000000000
B0521373205635S11656340EA0068700669000000000000
B0521413205600S11656298EA0068300665000000000000
B0521453205560S11656263EA0067700660000000000000
B0521493205518S11656230EA0067400658000000000000
B0521533205475S11656198EA0066900650000000000000
B0521573205434S11656164EA0066300647000000000000
B0522013205395S11656126EA0066100643000000000000
B0522053205353S11656091EA0065100637000000000000
B0522093205309S11656065EA0065100635000000000000
B0522133205266S11656043EA0064600629000000000000
B0522173205227S11656015EA0064300624000000000000
B0522213205192S11655981EA0064000623000000000000
B0522253205158S11655942EA0063800619000000000000
B0522293205122S11655904EA0063600620000000000000
B0522333205085S11655869EA0063700620000000000000
B0522373205048S11655837EA0063300614000000000000
B0522413205014S11655796EA0062700608000000000000
B0522453204999S11655739EA0062400607000000000000
B0522493205024S11655679EA0062200603000000000000
B0522533205085S11655656EA0061900603000000000000
B0522573205150S11655671EA0062400608000000000000
B0523013205210S11655704EA0062500608000000000000
B0523053205271S11655731EA0062600611000000000000
B0523093205330S11655721EA0062900614000000000000
B0523133205353S11655664EA0062700610000000000000
B0523173205323S11655621EA0062500609000000000000
B0523213205285S11655636EA0062700613000000000000
B0523253205282S11655691EA0062400606000000000000
B0523293205321S11655739EA0061900604000000000000
B0523333205378S11655770EA0061900601000000000000
B0523373205436S11655803EA0061800603000000000000
B0523413205492S11655837EA0062100607000000000000
B0523453205548S11655874EA0062200610000000000000
B0523493205604S11655912EA0063100617000000000000
B0523533205664S11655912EA0063500624000000000000
B0523573205698S11655857EA0063900626000000000000
B0524013205682S11655798EA0064600635000000000000
B0524053205640S11655779EA0064900638000000000000
B0524093205607S11655813EA0065200640000000000000
B0524133205613S11655872EA0065600643000000000000
B0524173205659S11655908EA0065900645000000000000
B0524213205716S11655900EA0065700642000000000000
B0524253205750S11655843EA0065900649000000000000
B0524293205733S11655790EA0066700656000000000000
B0524333205688S11655796EA0066900654000000000000
B0524373205678S11655860EA0066600650000000000000
B0524413205724S11655903EA0067000661000000000000
B0524453205778S11655879EA0067500662000000000000
B0524493205795S11655813EA0067800664000000000000
B0524533205761S11655764EA0068000670000000000000
B0524573205716S11655768EA0068500672000000000000
B0525013205694S11655818EA0068600671000000000000
B0525053205707S11655883EA0068500671000000000000
B0525093205753S11655921EA0068900676000000000000
B0525133205815S11655913EA0069200679000000000000
B0525173205850S11655861EA0069500684000000000000
B0525213205830S11655808EA0070000689000000000000
B0525253205783S11655813EA0070000686000000000000
B0525293205760S11655869EA0070000689000000000000
B0525333205790S11655925EA0070400692000000000000
B0525373205851S11655937EA0070400689000000000000
B0525413205902S11655896EA0070600693000000000000
B0525453205911S11655835EA0071300700000000000000
B0525493205878S11655791EA0071300698000000000000
B0525533205833S11655801EA0071200699000000000000
B0525573205821S11655861EA0071200700000000000000
B0526013205857S11655916EA0071100696000000000000
B0526053205920S11655931EA0071300702000000000000
B0526093205977S11655905EA0071800704000000000000
B0526133206008S11655848EA0072100709000000000000
B0526173206000S11655788EA0072400710000000000000
B0526213205963S11655751EA0071800703000000000000
B0526253205912S11655736EA0071500697000000000000
B0526293205869S11655768EA0071000695000000000000
B0526333205880S11655825EA0071200700000000000000
B0526373205935S11655840EA0071000695000000000000
B0526413205981S11655796EA0070800693000000000000
B0526453205982S11655735EA0070500689000000000000
B0526493205945S11655697EA0069900682000000000000
B0526533205899S11655705EA0069000674000000000000
B0526573205851S11655734EA0067400655000000000000
B0527013205800S11655765EA0066900652000000000000
B0527053205753S11655796EA0067200658000000000000
B0527093205709S11655826EA0067900662000000000000
B0527133205665S11655855EA0067700656000000000000
B0527173205618S11655883EA0066500642000000000000
B0527213205564S11655899EA0065300634000000000000
B0527253205509S11655900EA0065200632000000000000
B0527293205457S11655892EA0065100633000000000000
B0527333205409S11655878EA0065300631000000000000
B0527373205361S11655855EA0064700625000000000000
B0527413205330S11655801EA0064500628000000000000
B0527453205341S11655739EA0065100635000000000000
B0527493205383S11655691EA0064800626000000000000
B0527533205451S11655677EA0063700614000000000000
B0527573205521S11655699EA0063500619000000000000
B0528013205583S11655735EA0064200628000000000000
B0528053205643S11655773EA0064700633000000000000
B0528093205696S11655816EA0065000633000000000000
B0528133205744S11655865EA0064300626000000000000
B0528173205786S11655925EA0063600619000000000000
B0528213205821S11655987EA0063800622000000000000
B0528253205852S11656048EA0064200624000000000000
B0528293205881S11656108EA0063600618000000000000
B0528333205909S11656171EA0062900611000000000000
B0528373205925S11656236EA0062500608000000000000
B0528413205929S11656302EA0062100604000000000000
B0528453205928S11656370EA0061500599000000000000
B0528493205920S11656436EA0061100596000000000000
B0528533205908S11656498EA0061300602000000000000
B0528573205898S11656561EA0062200610000000000000
B0529013205916S11656620EA0062800614000000000000
B0529053205969S11656650EA0062700613000000000000
B0529093206020S11656620EA0063300622000000000000
B0529133206025S11656566EA0063800622000000000000
B0529173205986S11656537EA0063900623000000000000
B0529213205950S11656563EA0064700633000000000000
B0529253205952S11656619EA0064800630000000000000
B0529293205997S11656665EA0064500629000000000000
B0529333206054S11656656EA0064700633000000000000
B0529373206084S11656602EA0064900632000000000000
B0529413206065S11656550EA0065000634000000000000
B0529453206023S11656545EA0065200638000000000000
B0529493205998S11656588EA0065900642000000000000
B0529533206021S11656644EA0065300634000000000000
B0529573206080S11656661EA0065400639000000000000
B0530013206124S11656623EA0065900643000000000000
B0530053206127S11656563EA0065600639000000000000
B0530093206103S11656506EA0065300636000000000000
B0530133206062S11656468EA0065100637000000000000
B0530173206012S11656477EA0065700643000000000000
B0530213205995S11656533EA0066500651000000000000
B0530253206033S11656588EA0066200644000000000000
B0530293206099S11656598EA0065600641000000000000
B0530333206146S11656548EA0065800644000000000000
B0530373206146S11656479EA0066200647000000000000
B0530413206119S11656422EA0066300648000000000000
B0530453206076S11656390EA0066500649000000000000
B0530493206028S11656401EA0066100646000000000000
B0530533205987S11656440EA0066300648000000000000
B0530573205982S11656502EA0066600652000000000000
B0531013206037S11656540EA0066500650000000000000
B0531053206094S11656510EA0066300648000000000000
B0531093206107S11656449EA0066900657000000000000
B0531133206077S11656406EA0066800653000000000000
B0531173206030S11656405EA0066700655000000000000
B0531213205997S11656450EA0067100655000000000000
B0531253205998S11656514EA0066600648000000000000
B0531293206041S11656563EA0066000643000000000000
B0531333206103S11656558EA0065600638000000000000
B0531373206141S11656506EA0065500641000000000000
B0531413206142S11656444EA0066000646000000000000
B0531453206112S11656394EA0066100648000000000000
B0531493206068S11656383EA0066600652000000000000
B0531533206030S11656414EA0066600649000000000000
B0531573206021S11656474EA0066200642000000000000
B0532013206045S11656533EA0065600638000000000000
B0532053206102S11656562EA0065100633000000000000
B0532093206159S11656540EA0065000633000000000000
B0532133206189S11656481EA0064900635000000000000
B0532173206181S11656422EA0065400639000000000000
B0532213206149S11656377EA0066200649000000000000
B0532253206107S11656376EA0066600650000000000000
B0532293206078S11656422EA0066400646000000000000
B0532333206089S11656485EA0065800639000000000000
B0532373206138S11656532EA0065100634000000000000
B0532413206198S11656526EA0065000634000000000000
B0532453206215S11656467EA0065000634000000000000
B0532493206181S11656435EA0065800644000000000000
B0532533206150S11656472EA0065300634000000000000
B0532573206163S11656535EA0064900633000000000000
B0533013206207S11656580EA0064500629000000000000
B0533053206264S11656597EA0064100627000000000000
B0533093206319S11656570EA0063700620000000000000
B0533133206357S11656514EA0063300620000000000000
B0533173206379S11656450EA0063400624000000000000
B0533213206376S11656389EA0064000626000000000000
B0533253206338S11656351EA0064000626000000000000
B0533293206296S11656368EA0064500634000000000000
B0533333206280S11656423EA0065300639000000000000
B0533373206301S11656483EA0064700629000000000000
B0533413206358S11656514EA0063700621000000000000
B0533453206420S11656488EA0064000627000000000000
B0533493206445S11656425EA0064500635000000000000
B0533533206433S11656366EA0064800635000000000000
B0533573206394S11656328EA0064700633000000000000
B0534013206346S11656333EA0064800634000000000000
B0534053206314S11656383EA0065100635000000000000
B0534093206322S11656451EA0064700631000000000000
B0534133206374S11656498EA0064500630000000000000
B0534173206439S11656494EA0064500629000000000000
B0534213206487S11656445EA0064300631000000000000
B0534253206519S11656384EA0065000637000000000000
B0534293206530S11656316EA0065100637000000000000
B0534333206515S11656254EA0064800632000000000000
B0534373206484S11656204EA0064300629000000000000
B0534413206445S11656167EA0064100623000000000000
B0534453206397S11656138EA0063100614000000000000
B0534493206346S11656116EA0062500606000000000000
B0534533206301S11656078EA0061400596000000000000
B0534573206284S11656011EA0060500589000000000000
B0535013206298S11655938EA0060200585000000000000
B0535053206324S11655873EA0060100586000000000000
B0535093206362S11655814EA0059500578000000000000
B0535133206426S11655786EA0058600568000000000000
B0535173206497S11655803EA0057600556000000000000
B0535213206549S11655861EA0057100553000000000000
B0535253206571S11655935EA0056700548000000000000
B0535293206571S11656008EA0056200545000000000000
B0535333206556S11656076EA0055800541000000000000
B0535373206530S11656137EA0055200532000000000000
B0535413206500S11656199EA0054200521000000000000
B0535453206470S11656262EA0053800520000000000000
B0535493206445S11656318EA0053900522000000000000
B0535533206424S11656375EA0054300527000000000000
B0535573206410S11656435EA0054600531000000000000
B0536013206431S11656498EA0054500525000000000000
B0536053206465S11656563EA0053400512000000000000
B0536093206458S11656630EA0052900510000000000000
B0536133206436S11656688EA0052400506000000000000
B0536173206410S11656744EA0051700498000000000000
B0536213206392S11656806EA0051100490000000000000
B0536253206406S11656875EA0050400483000000000000
B0536293206463S11656918EA0049300474000000000000
B0536333206530S11656906EA0048900471000000000000
B0536373206571S11656853EA0048500464000000000000
B0536413206606S11656792EA0047900456000000000000
B0536453206667S11656756EA0047300450000000000000
B0536493206738S11656767EA0046700445000000000000
B0536533206793S11656818EA0046500444000000000000
B0536573206836S11656879EA0046300442000000000000
B0537013206874S11656944EA0045800435000000000000
B0537053206913S11657012EA0045200428000000000000
B0537093206956S11657075EA0044700425000000000000
B0537133207000S11657133EA0044400422000000000000
B0537173207053S11657186EA0044300423000000000000
B0537213207111S11657235EA0044800427000000000000
B0537253207156S11657298EA0044700424000000000000
B0537293207195S11657364EA0044500426000000000000
B0537333207230S11657426EA0044700425000000000000
B0537373207265S11657491EA0044400422000000000000
B0537413207298S11657558EA0044500424000000000000
B0537453207334S11657623EA0044400422000000000000
B0537493207380S11657683EA0044300418000000000000
B0537533207436S11657727EA0044200420000000000000
B0537573207494S11657767EA0044100418000000000000
B0538013207553S11657805EA0043300412000000000000
B0538053207610S11657844EA0043000407000000000000
B0538093207670S11657881EA0042500402000000000000
B0538133207729S11657917EA0042100400000000000000
B0538173207788S11657952EA0041700395000000000000
B0538213207849S11657987EA0041700396000000000000
B0538253207910S11658017EA0041700395000000000000
B0538293207976S11658040EA0041500393000000000000
B0538333208045S11658037EA0041300390000000000000
B0538373208113S11658008EA0040800388000000000000
B0538413208166S11657959EA0040900390000000000000
B0538453208209S11657904EA0040700387000000000000
B0538493208251S11657848EA0040600382000000000000
B0538533208296S11657789EA0039300370000000000000
B0538573208340S11657725EA0038400359000000000000
B0539013208376S11657658EA0038400364000000000000
B0539053208392S11657588EA0038400363000000000000
B0539093208373S11657523EA0037800356000000000000
B0539133208329S11657484EA0037200354000000000000
B0539173208283S11657450EA0036300341000000000000
B0539213208238S11657420EA0035400335000000000000
B0539253208196S11657394EA0034300322000000000000
B0539293208157S11657369EA0032600304000000000000
B0539333208116S11657342EA0031100285000000000000
B0539373208073S11657316EA0029100265000000000000
B0539413208026S11657289EA0027500251000000000000
B0539453207979S11657263EA0026300240000000000000
B0539493207934S11657235EA0025200226000000000000
B0539533207889S11657208EA0023600212000000000000
B0539573207848S11657182EA0022400204000000000000
B0540013207813S11657161EA0022400204000000000000
B0540053207788S11657144EA0022300204000000000000
B0540093207774S11657131EA0022500204000000000000
B0540133207765S11657121EA0022400204000000000000
B0540173207759S11657113EA0022400203000000000000
B0540213207755S11657108EA0022500203000000000000
B0540253207755S11657107EA0022500203000000000000
B0540293207755S11657108EA0022400203000000000000
B0540333207755S11657108EA0022500203000000000000
B0540373207755S11657108EA0022500203000000000000
B0540413207755S11657108EA0022500203000000000000
G0003000000B5E298860000000000000000000000000000000000000000000000
G8510DCA31E8AB7C96A706B4C76CC86C4264C9AB80000000062362BCB5D40E9ED
G832697BE93BC78F547C1CCD344B01419FE17CD5A00000000000000003D392BDB
