ACAM4N6
HFDTE040421
HFFXA050
HFPLTPILOT:JOHN WELSH              
HFGTYGLIDERTYPE:HORNET      
HFGIDGLIDERID:VH-GMY      
HFDTM100GPSDATUM:
HFRFWFIRMWAREVERSION:F2.6
HFRHWHARDWAREVERSION:300 Series Version 2
HFFTYFRTYPE:CAMBRIDGE AERO INSTRUMENTS, 302+
HFGPS:GARMIN,LVS-25,12,18000
HFPRSPRESSALTSENSOR:INTERSEMA, MS5534-AP, 20000
I033638FXA3941ENL4247REX
LCAMSBVER:5FWVER:F26300
C040421052719040421000102
C0000000N00000000WTAKEOFF     
C3207549S11656849EBEVAIR      
C3212499S11757332EBilbarin    
C3112149S11722799EWyalka AF   
C3207549S11656849EBEVAIR      
C0000000N00000000WLANDING     
B0531373207341S11656856EA0021100198000000000000
B0531393207341S11656856EA0021000198000000000000
B0531413207341S11656856EA0021000198000000000000
B0531433207341S11656856EA0021000198000000000000
B0531453207341S11656856EA0021100198000000000000
B0531473207341S11656856EA0021100198000000000000
B0531493207341S11656856EA0021000198000000000000
B0531513207341S11656856EA0021100198000000000000
B0531533207339S11656856EA0020900198000000000000
B0531553207339S11656856EA0020900198000000000000
B0531573207339S11656856EA0021000198000000000000
B0531593207339S11656856EA0021000199000000000000
B0532013207339S11656856EA0021100199000000000000
B0532033207341S11656856EA0021100199000000000000
B0532053207343S11656857EA0021100199000000000000
B0532063207345S11656860EA0021100199000000000000
B0532103207363S11656875EA0021100199000000000000
B0532143207394S11656901EA0021200199000000000000
B0532183207441S11656932EA0021400200000000000000
B0532223207498S11656969EA0021600201000000000000
B0532263207563S11657012EA0021800205000000000000
B0532303207629S11657055EA0022500214000000000000
B0532343207694S11657103EA0023200220000000000000
B0532383207758S11657153EA0023900229000000000000
B0532423207818S11657208EA0024700244000000000000
B0532463207876S11657263EA0026300265000000000000
B0532503207934S11657316EA0028000282000000000000
B0532543207989S11657364EA0029700303000000000000
B0532583208045S11657411EA0031400318000000000000
B0533023208103S11657454EA0032600328000000000000
B0533063208160S11657499EA0033600338000000000000
B0533103208221S11657543EA0034700348000000000000
B0533143208283S11657588EA0035500364000000000000
B0533183208343S11657633EA0038100387000000000000
B0533223208404S11657679EA0040200409000000000000
B0533263208461S11657729EA0042300425000000000000
B0533303208509S11657788EA0043600447000000000000
B0533343208555S11657852EA0045600466000000000000
B0533383208590S11657923EA0047800490000000000000
B0533423208619S11657996EA0050200516000000000000
B0533463208642S11658071EA0052700543000000000000
B0533503208663S11658149EA0054700554000000000000
B0533543208682S11658222EA0055900574000000000000
B0533583208701S11658292EA0058000592000000000000
B0534023208715S11658365EA0059500604000000000000
B0534063208723S11658438EA0060400613000000000000
B0534103208723S11658513EA0061400621000000000000
B0534143208723S11658587EA0062200630000000000000
B0534183208721S11658664EA0062900635000000000000
B0534223208720S11658741EA0063500643000000000000
B0534263208716S11658819EA0064100650000000000000
B0534303208708S11658899EA0065000662000000000000
B0534343208684S11658980EA0066200671000000000000
B0534383208647S11659063EA0066600672000000000000
B0534423208597S11659137EA0066900678000000000000
B0534463208532S11659194EA0067800687000000000000
B0534503208457S11659233EA0068600697000000000000
B0534543208376S11659257EA0069600708000000000000
B0534583208287S11659259EA0070500715000000000000
B0535023208196S11659240EA0071500731000000000000
B0535063208109S11659202EA0073500755000000000000
B0535103208028S11659178EA0075900773000000000000
B0535143207983S11659222EA0077000783000000000000
B0535183208008S11659261EA0077400780000000000000
B0535223208058S11659223EA0077000782000000000000
B0535263208074S11659140EA0077400788000000015000
B0535303208027S11659077EA0078200797000000015000
B0535343207971S11659090EA0078400794000000015000
B0535383207971S11659141EA0078200793000000015000
B0535423208017S11659145EA0078300791000000015000
B0535463208057S11659089EA0077900789000000015000
B0535503208056S11659006EA0078000792000000015000
B0535543207997S11658981EA0078600803000000015000
B0535583207979S11659028EA0079500809000000015000
B0536023208021S11659040EA0079900811000000015000
B0536063208052S11658980EA0080100814000000015000
B0536103208019S11658911EA0080200816000000015000
B0536143207963S11658919EA0080800825000000015000
B0536183207970S11658967EA0081500831000000015000
B0536223208015S11658949EA0082200835000000015000
B0536263208015S11658873EA0082300836000000015000
B0536303207961S11658828EA0082500842000000015000
B0536343207910S11658850EA0083100847000000015000
B0536383207927S11658897EA0083300848000000015000
B0536423207974S11658871EA0083900856000000015000
B0536463207967S11658797EA0084400857000000015000
B0536503207908S11658775EA0084300858000000015000
B0536543207880S11658821EA0084800862000000015000
B0536583207919S11658849EA0084900864000000015000
B0537023207960S11658799EA0085300871000000015000
B0537063207947S11658726EA0085700873000000015000
B0537103207891S11658690EA0085700873000000015000
B0537143207841S11658715EA0086000876000000015000
B0537183207849S11658764EA0086300878000000015000
B0537223207893S11658769EA0086600881000000015000
B0537263207923S11658710EA0086600881000000015000
B0537303207896S11658641EA0086600880000000015000
B0537343207833S11658625EA0086200877000000015000
B0537383207783S11658658EA0086100875000000015000
B0537423207791S11658713EA0086100876000000015000
B0537463207841S11658710EA0086200877000000015000
B0537503207867S11658642EA0086100877000000015000
B0537543207867S11658557EA0086200876000000015000
B0537583207820S11658495EA0086200878000000015000
B0538023207763S11658509EA0086700884000000015000
B0538063207776S11658560EA0087200887000000015000
B0538103207830S11658548EA0087200886000000015000
B0538143207852S11658474EA0087100885000000015000
B0538183207811S11658401EA0086900880000000015000
B0538223207741S11658388EA0086500879000000015000
B0538263207697S11658434EA0086700883000000015000
B0538303207713S11658490EA0087400889000000015000
B0538343207765S11658499EA0087600887000000015000
B0538383207811S11658443EA0087200885000000015000
B0538423207815S11658357EA0087200887000000015000
B0538463207770S11658294EA0087200886000000015000
B0538503207706S11658294EA0087200887000000015000
B0538543207675S11658344EA0087100888000000015000
B0538583207661S11658405EA0087200890000000000000
B0539023207662S11658466EA0087500890000000000000
B0539063207709S11658490EA0087600890000000000000
B0539103207755S11658444EA0087500888000000015000
B0539143207753S11658359EA0087200886000000015000
B0539183207703S11658296EA0087000885000000015000
B0539223207638S11658292EA0087000885000000015000
B0539263207603S11658343EA0087200888000000015000
B0539303207588S11658404EA0086900882000000000000
B0539343207584S11658469EA0086300877000000000000
B0539383207590S11658534EA0085700868000000000000
B0539423207631S11658578EA0085200864000000000000
B0539463207693S11658563EA0085000861000000000000
B0539503207735S11658494EA0084500860000000015000
B0539543207755S11658407EA0084600862000000000000
B0539583207771S11658316EA0084200856000000000000
B0540023207780S11658221EA0083500842000000000000
B0540063207789S11658119EA0082200834000000000000
B0540103207810S11658026EA0081900831000000000000
B0540143207843S11657940EA0081400827000000000000
B0540183207885S11657861EA0081000824000000000000
B0540223207923S11657781EA0081900833000000000000
B0540263207896S11657701EA0082700842000000000000
B0540303207828S11657688EA0082700839000000000000
B0540343207787S11657732EA0082800843000000000000
B0540383207788S11657787EA0083100844000000000000
B0540423207826S11657818EA0082900845000000000000
B0540463207878S11657805EA0083100848000000000000
B0540503207926S11657762EA0083700853000000015000
B0540543207921S11657686EA0084300857000000015000
B0540583207862S11657654EA0084200853000000015000
B0541023207817S11657693EA0084000854000000015000
B0541063207822S11657750EA0084100856000000015000
B0541103207865S11657780EA0084400861000000015000
B0541143207906S11657737EA0085200869000000015000
B0541183207879S11657670EA0085900880000000015000
B0541223207820S11657672EA0086700888000000000000
B0541263207813S11657723EA0087400894000000015000
B0541303207856S11657736EA0088000898000000015000
B0541343207885S11657684EA0088400901000000015000
B0541383207856S11657621EA0088600904000000015000
B0541423207797S11657616EA0088900907000000015000
B0541463207770S11657664EA0089500916000000000000
B0541503207804S11657696EA0089800916000000015000
B0541543207845S11657657EA0090000915000000015000
B0541583207832S11657582EA0089900918000000015000
B0542023207772S11657551EA0090100923000000015000
B0542063207723S11657585EA0090400927000000000000
B0542103207732S11657638EA0091000933000000000000
B0542143207779S11657647EA0091500935000000000000
B0542183207814S11657599EA0091900935000000000000
B0542223207800S11657527EA0091500931000000000000
B0542263207741S11657485EA0091500934000000000000
B0542303207694S11657517EA0091900939000000000000
B0542343207724S11657554EA0092500942000000000000
B0542383207762S11657504EA0092700947000000000000
B0542423207736S11657434EA0092900946000000000000
B0542463207671S11657423EA0092700946000000000000
B0542503207637S11657471EA0093000953000000000000
B0542543207657S11657519EA0093300952000000000000
B0542583207707S11657521EA0093000949000000000000
B0543023207750S11657472EA0093100951000000000000
B0543063207759S11657395EA0092800944000000000000
B0543103207722S11657319EA0092200938000000000000
B0543143207653S11657291EA0091800938000000000000
B0543183207579S11657303EA0091500933000000000000
B0543223207523S11657350EA0091300935000000000000
B0543263207484S11657408EA0091300932000000000000
B0543303207490S11657469EA0091200933000000000000
B0543343207536S11657497EA0091100928000000000000
B0543383207592S11657475EA0090500921000000000000
B0543423207638S11657415EA0089800917000000000000
B0543463207670S11657341EA0089900920000000000000
B0543503207651S11657261EA0090400924000000000000
B0543543207589S11657230EA0090100919000000000000
B0543583207533S11657263EA0090100921000000000000
B0544023207515S11657324EA0089900919000000000000
B0544063207542S11657374EA0089700914000000000000
B0544103207597S11657384EA0089300909000000000000
B0544143207648S11657339EA0088900906000000000000
B0544183207657S11657260EA0088700904000000000000
B0544223207615S11657195EA0088500904000000000000
B0544263207551S11657185EA0088300900000000000000
B0544303207505S11657224EA0087900898000000000000
B0544343207471S11657280EA0087200888000000000000
B0544383207441S11657341EA0086400878000000000000
B0544423207410S11657402EA0085500869000000000000
B0544463207391S11657471EA0084100852000000000000
B0544503207372S11657542EA0082900841000000000000
B0544543207346S11657611EA0081900833000000000000
B0544583207304S11657672EA0081200826000000000000
B0545023207251S11657723EA0081000825000000000000
B0545063207195S11657770EA0081100827000000000000
B0545103207142S11657816EA0081500830000000000000
B0545143207115S11657880EA0081500834000000000000
B0545183207102S11657950EA0082300839000000000000
B0545223207139S11657989EA0083300852000000000000
B0545263207177S11657940EA0084800866000000000000
B0545303207148S11657870EA0085800874000000000000
B0545343207087S11657865EA0086700887000000000000
B0545383207066S11657913EA0087700895000000000000
B0545423207107S11657935EA0088200899000000000000
B0545463207142S11657878EA0088700906000000000000
B0545503207116S11657805EA0089600916000000000000
B0545543207056S11657798EA0090600925000000000000
B0545583207037S11657849EA0091200932000000000000
B0546023207074S11657881EA0091900937000000000000
B0546063207112S11657836EA0092900946000000000000
B0546103207081S11657775EA0093600955000000000000
B0546143207020S11657777EA0094700969000000000000
B0546183207001S11657827EA0095500974000000000000
B0546223207042S11657846EA0096100980000000000000
B0546263207073S11657792EA0096500989000000000000
B0546303207042S11657729EA0097400997000000000000
B0546343206985S11657738EA0098101004000000000000
B0546383206974S11657790EA0098701012000000000000
B0546423207016S11657803EA0099401017000000000000
B0546463207047S11657751EA0100101024000000000000
B0546503207022S11657686EA0100701030000000000000
B0546543206962S11657679EA0101201035000000000000
B0546583206939S11657727EA0101701040000000000000
B0547023206973S11657754EA0102001041000000000000
B0547063207012S11657712EA0102501051000000000000
B0547103207014S11657644EA0103301056000000000000
B0547143206968S11657595EA0103401059000000000000
B0547183206913S11657610EA0103701063000000000000
B0547223206904S11657660EA0104101066000000000000
B0547263206942S11657684EA0104101064000000000000
B0547303206977S11657636EA0104301069000000000000
B0547343206951S11657569EA0105101078000000000000
B0547383206896S11657558EA0105601080000000000000
B0547423206868S11657602EA0105601079000000000000
B0547463206895S11657638EA0105401078000000000000
B0547503206940S11657616EA0105501079000000000000
B0547543206944S11657546EA0106201088000000000000
B0547583206894S11657503EA0106701094000000000000
B0548023206843S11657528EA0107301098000000000000
B0548063206845S11657577EA0106901092000000000000
B0548103206895S11657582EA0106401087000000000000
B0548143206918S11657521EA0107001099000000000000
B0548183206883S11657459EA0107701104000000000000
B0548223206823S11657455EA0108201108000000000000
B0548263206801S11657504EA0108001103000000000000
B0548303206832S11657545EA0107701102000000000000
B0548343206879S11657520EA0108001104000000000000
B0548383206888S11657449EA0108601113000000000000
B0548423206847S11657391EA0109301121000000000000
B0548463206790S11657389EA0109601121000000000000
B0548503206758S11657436EA0109501120000000000000
B0548543206769S11657486EA0109501120000000000000
B0548583206816S11657497EA0109501121000000000000
B0549023206844S11657438EA0110201129000000000000
B0549063206817S11657373EA0110501127000000000000
B0549103206757S11657364EA0110301128000000000000
B0549143206718S11657404EA0110801136000000000000
B0549183206723S11657456EA0111101138000000000000
B0549223206765S11657473EA0111301142000000000000
B0549263206797S11657424EA0111801143000000000000
B0549303206771S11657355EA0111601140000000000000
B0549343206713S11657345EA0111401142000000000000
B0549383206679S11657389EA0112001149000000000000
B0549423206697S11657432EA0112301147000000000000
B0549463206745S11657429EA0112101145000000000000
B0549503206783S11657376EA0112001145000000000000
B0549543206779S11657302EA0112101145000000000000
B0549583206731S11657255EA0112001145000000000000
B0550023206675S11657267EA0111901148000000000000
B0550063206644S11657313EA0112101146000000000000
B0550103206641S11657371EA0112401153000000000000
B0550143206688S11657384EA0113001158000000000000
B0550183206721S11657328EA0113101155000000000000
B0550223206699S11657254EA0113001154000000000000
B0550263206637S11657224EA0112901155000000000000
B0550303206580S11657247EA0112801156000000000000
B0550343206558S11657308EA0113201160000000000000
B0550383206588S11657351EA0113601166000000000000
B0550423206635S11657322EA0114101170000000000000
B0550463206641S11657250EA0114501173000000000000
B0550503206591S11657200EA0114101166000000000000
B0550543206528S11657215EA0114201176000000000000
B0550583206502S11657267EA0115101181000000000000
B0551023206522S11657315EA0115201181000000000000
B0551063206570S11657313EA0115501184000000000000
B0551103206600S11657257EA0116001191000000000000
B0551143206583S11657186EA0116301190000000000000
B0551183206524S11657150EA0116101191000000000000
B0551223206466S11657174EA0116501200000000000000
B0551263206440S11657230EA0117101199000000000000
B0551303206466S11657273EA0116701192000000000000
B0551343206515S11657256EA0116401194000000000000
B0551383206540S11657192EA0117101202000000000000
B0551423206518S11657121EA0117801207000000000000
B0551463206453S11657103EA0118401216000000000000
B0551503206418S11657152EA0119101220000000000000
B0551543206442S11657199EA0118801217000000000000
B0551583206494S11657191EA0118601216000000000000
B0552023206517S11657126EA0119201223000000015000
B0552063206489S11657056EA0119501223000000015000
B0552103206427S11657035EA0119801233000000015000
B0552143206384S11657079EA0120501236000000015000
B0552183206398S11657135EA0120501235000000015000
B0552223206448S11657143EA0120501234000000015000
B0552263206479S11657086EA0120801237000000015000
B0552303206453S11657014EA0120801234000000015000
B0552343206387S11656995EA0120701241000000015000
B0552383206328S11657029EA0121401246000000015000
B0552423206309S11657092EA0121201239000000015000
B0552463206344S11657137EA0120701237000000015000
B0552503206396S11657121EA0120401235000000015000
B0552543206423S11657056EA0120401239000000015000
B0552583206428S11656978EA0120401236000000015000
B0553023206393S11656909EA0120201232000000015000
B0553063206327S11656878EA0120101235000000000000
B0553103206257S11656890EA0120201234000000000000
B0553143206223S11656949EA0120001226000000000000
B0553183206236S11657013EA0118801212000000000000
B0553223206286S11657038EA0117901208000000000000
B0553263206342S11657023EA0117501203000000015000
B0553303206393S11656984EA0117301200000000015000
B0553343206440S11656936EA0117001195000000015000
B0553383206488S11656883EA0116801192000000015000
B0553423206536S11656822EA0116601188000000015000
B0553463206588S11656758EA0117101194000000015000
B0553503206634S11656687EA0117001189000000015000
B0553543206676S11656611EA0116001179000000015000
B0553583206723S11656542EA0115601170000000015000
B0554023206773S11656481EA0115601162000000030000
B0554063206827S11656437EA0115701156000000030000
B0554103206887S11656407EA0115601164000000030000
B0554143206944S11656384EA0115601172000000015000
B0554183206998S11656362EA0115701176000000015000
B0554223207051S11656344EA0115501176000000015000
B0554263207103S11656334EA0115501177000000000000
B0554303207155S11656334EA0115301178000000000000
B0554343207208S11656338EA0115101176000000000000
B0554383207261S11656344EA0114801172000000000000
B0554423207316S11656345EA0114401167000000000000
B0554463207369S11656350EA0113701161000000000000
B0554503207415S11656377EA0113201154000000000000
B0554543207442S11656431EA0112201143000000000000
B0554583207445S11656500EA0111001137000000000000
B0555023207424S11656570EA0110401129000000000000
B0555063207393S11656635EA0109901127000000000000
B0555103207358S11656700EA0109701124000000000000
B0555143207321S11656762EA0109301120000000000000
B0555183207284S11656822EA0109001116000000000000
B0555223207247S11656883EA0108801117000000000000
B0555263207213S11656943EA0108901112000000000000
B0555303207185S11657009EA0107901101000000000000
B0555343207157S11657078EA0107201097000000000000
B0555383207133S11657147EA0107001097000000000000
B0555423207111S11657216EA0107301099000000000000
B0555463207098S11657285EA0107901106000000000000
B0555503207107S11657352EA0108101103000000000000
B0555543207111S11657425EA0107101092000000000000
B0555583207100S11657503EA0106401083000000000000
B0556023207085S11657582EA0105501078000000000000
B0556063207063S11657655EA0105101072000000000000
B0556103207029S11657723EA0104501067000000000000
B0556143206994S11657788EA0104401068000000000000
B0556183206972S11657854EA0104501069000000000000
B0556223206956S11657922EA0104501067000000000000
B0556263206947S11657991EA0103901059000000000000
B0556303206942S11658062EA0103001053000000000000
B0556343206940S11658132EA0102701048000000000000
B0556383206939S11658201EA0102201043000000000000
B0556423206938S11658269EA0101901040000000000000
B0556463206936S11658338EA0101501036000000000000
B0556503206935S11658405EA0101101033000000000000
B0556543206935S11658473EA0100801030000000000000
B0556583206936S11658537EA0100801032000000000000
B0557023206940S11658599EA0100301027000000000000
B0557063206948S11658660EA0100101024000000000000
B0557103206965S11658719EA0099801020000000015000
B0557143206994S11658771EA0099701021000000000000
B0557183207025S11658825EA0099601018000000000000
B0557223207043S11658889EA0099401017000000000000
B0557263207044S11658955EA0099201016000000000000
B0557303207046S11659020EA0098701010000000000000
B0557343207051S11659085EA0098201004000000000000
B0557383207056S11659153EA0097600997000000000000
B0557423207051S11659222EA0097000993000000000000
B0557463207033S11659288EA0096700989000000000000
B0557503207000S11659348EA0096100983000000000000
B0557543206961S11659404EA0095600977000000000000
B0557583206918S11659457EA0095000973000000000000
B0558023206874S11659510EA0094600968000000000000
B0558063206830S11659564EA0094200965000000000000
B0558103206790S11659617EA0094300965000000000000
B0558143206767S11659677EA0093900960000000000000
B0558183206765S11659740EA0093600956000000000000
B0558223206780S11659800EA0093000949000000000000
B0558263206808S11659857EA0092400943000000000000
B0558303206865S11659881EA0091600930000000000000
B0558343206925S11659847EA0091000931000000015000
B0558383206978S11659792EA0090600921000000000000
B0558423207025S11659724EA0089600909000000000000
B0558463207053S11659640EA0089400905000000015000
B0558503207063S11659552EA0089100902000000015000
B0558543207050S11659465EA0088500897000000015000
B0558583207014S11659379EA0087700893000000030000
B0559023206983S11659287EA0086900888000000030000
B0559063206940S11659194EA0086400884000000030000
B0559103206935S11659101EA0086100880000000030000
B0559143206946S11659012EA0086000876015000030000
B0559183206965S11658927EA0085300873015000045000
B0559223206979S11658841EA0084400869015000045000
B0559263206990S11658750EA0083700865015000045000
B0559303206983S11658656EA0083300861015000060000
B0559343206965S11658561EA0083000856015000060000
B0559383206960S11658466EA0083200852015000075000
B0559423206969S11658374EA0083100849015000060000
B0559463207001S11658291EA0082400846015000060000
B0559503207111S11658366EA0081800841015000045000
B0559543207165S11658375EA0081300837015000060000
B0559583207217S11658398EA0080600828000000030000
B0600023207268S11658414EA0079800818000000030000
B0600063207320S11658430EA0079300813000000030000
B0600103207376S11658440EA0079100808000000015000
B0600143207432S11658446EA0079000805000000015000
B0600183207488S11658435EA0079000804000000030000
B0600223207523S11658370EA0079100805000000030000
B0600263207540S11658282EA0078500798000000030000
B0600303207576S11658212EA0078100793000000030000
B0600343207631S11658170EA0078100787000000030000
B0600383207687S11658134EA0077600782000000015000
B0600423207740S11658093EA0078100791000000015000
B0600463207762S11658023EA0078900800000000015000
B0600503207711S11657970EA0079200803000000015000
B0600543207657S11657998EA0079500809000000015000
B0600583207662S11658052EA0080200818000000000000
B0601023207706S11658057EA0081000827000000000000
B0601063207736S11658005EA0082000835000000015000
B0601103207711S11657932EA0082000831000000015000
B0601143207648S11657915EA0082100839000000000000
B0601183207618S11657962EA0082500842000000000000
B0601223207648S11657996EA0082800845000000000000
B0601263207688S11657961EA0083400854000000000000
B0601303207681S11657889EA0083900857000000000000
B0601343207627S11657848EA0084000860000000000000
B0601383207579S11657876EA0084400865000000000000
B0601423207584S11657924EA0084700869000000000000
B0601463207628S11657927EA0085400876000000000000
B0601503207654S11657870EA0086000881000000000000
B0601543207627S11657797EA0086200880000000000000
B0601583207563S11657770EA0086500887000000000000
B0602023207510S11657800EA0086700888000000000000
B0602063207511S11657857EA0086900889000000000000
B0602103207557S11657871EA0087200894000000000000
B0602143207601S11657833EA0088200904000000000000
B0602183207603S11657759EA0089000913000000000000
B0602223207553S11657716EA0089600918000000000000
B0602263207507S11657749EA0089700917000000000000
B0602303207521S11657797EA0089600917000000000000
B0602343207567S11657783EA0089900919000000015000
B0602383207577S11657709EA0090200925000000015000
B0602423207532S11657650EA0091100934000000000000
B0602463207479S11657670EA0091800939000000000000
B0602503207479S11657719EA0092300942000000000000
B0602543207519S11657718EA0092700944000000000000
B0602583207536S11657653EA0092700943000000015000
B0603023207488S11657592EA0092700946000000015000
B0603063207425S11657590EA0093400956000000030000
B0603103207401S11657644EA0093600952000000015000
B0603143207432S11657686EA0093500953000000015000
B0603183207480S11657670EA0093700954000000015000
B0603223207489S11657592EA0093400954000000015000
B0603263207447S11657519EA0093900964000000000000
B0603303207381S11657497EA0094700972000000015000
B0603343207346S11657546EA0095300973000000045000
B0603383207377S11657588EA0095500977000000030000
B0603423207416S11657547EA0096300986000000030000
B0603463207402S11657471EA0096800991000000045000
B0603503207342S11657442EA0097100995000000045000
B0603543207312S11657491EA0097500999000000030000
B0603583207354S11657511EA0096900991000000045000
B0604023207402S11657467EA0097601003000000075000
B0604063207406S11657395EA0098901012000000030000
B0604103207347S11657364EA0099401019000000030000
B0604143207319S11657412EA0099701022000000045000
B0604183207352S11657445EA0100401026000000045000
B0604223207397S11657407EA0101601037000000060000
B0604263207390S11657332EA0102301043000000075000
B0604303207332S11657300EA0102801049000000060000
B0604343207291S11657345EA0103401055000000045000
B0604383207316S11657389EA0104201064000000075000
B0604423207364S11657368EA0105801078000000075000
B0604463207369S11657300EA0106801082000000075000
B0604503207319S11657259EA0107301089000000060000
B0604543207277S11657299EA0107801102000000045000
B0604583207306S11657333EA0108901110000000075000
B0605023207346S11657291EA0109301113000000105000
B0605063207337S11657217EA0109901118000000090000
B0605103207276S11657183EA0110401132000000060000
B0605143207220S11657211EA0111401143000000075000
B0605183207196S11657264EA0112201148000000075000
B0605223207194S11657317EA0112501155000000075000
B0605263207277S11657296EA0112801155000000075000
B0605303207324S11657237EA0113101156000000075000
B0605343207325S11657157EA0113601165000000060000
B0605383207272S11657109EA0114001171000000030000
B0605423207207S11657117EA0114901185000000015000
B0605463207167S11657165EA0116101190000000015000
B0605503207174S11657228EA0116301192000000015000
B0605543207221S11657260EA0116501193000000015000
B0605583207277S11657241EA0116201186000000015000
B0606023207313S11657179EA0115901187000000015000
B0606063207319S11657100EA0116201194000000015000
B0606103207282S11657026EA0116601197000000000000
B0606143207219S11657009EA0117301208000000000000
B0606183207199S11657066EA0118501217000000000000
B0606223207248S11657087EA0119201222000000000000
B0606263207284S11657031EA0119601223000000000000
B0606303207254S11656958EA0119501226000000000000
B0606343207189S11656944EA0120201237000000000000
B0606383207137S11656984EA0121501250000000000000
B0606423207148S11657046EA0122501259000000000000
B0606463207202S11657040EA0123601266000000000000
B0606503207224S11656974EA0123801270000000015000
B0606543207194S11656905EA0124101274000000000000
B0606583207128S11656880EA0124501280000000000000
B0607023207066S11656906EA0124801278000000000000
B0607063207038S11656973EA0124501276000000000000
B0607103207048S11657040EA0124801282000000000000
B0607143207095S11657077EA0125201284000000000000
B0607183207151S11657059EA0125301283000000000000
B0607223207185S11656997EA0125001276000000015000
B0607263207187S11656916EA0124301274000000015000
B0607303207156S11656838EA0124901284000000000000
B0607343207116S11656766EA0126001297000000000000
B0607383207055S11656747EA0127001301000000000000
B0607423207018S11656792EA0126301287000000000000
B0607463207031S11656852EA0125501289000000000000
B0607503207068S11656893EA0126001291000000000000
B0607543207118S11656896EA0126401296000000000000
B0607583207167S11656862EA0126601295000000000000
B0608023207182S11656792EA0126501296000000015000
B0608063207148S11656723EA0126701300000000000000
B0608103207091S11656680EA0127401310000000000000
B0608143207035S11656697EA0128001314000000000000
B0608183207027S11656760EA0128801324000000000000
B0608223207061S11656805EA0129301326000000000000
B0608263207113S11656792EA0129401325000000000000
B0608303207142S11656727EA0129401325000000015000
B0608343207137S11656653EA0129501328000000015000
B0608383207086S11656611EA0129601329000000000000
B0608423207030S11656627EA0129101324000000000000
B0608463206999S11656684EA0129101326000000000000
B0608503206981S11656753EA0129101325000000000000
B0608543206973S11656827EA0128601316000000000000
B0608583206970S11656905EA0127701305000000000000
B0609023206972S11656986EA0126501292000000000000
B0609063206975S11657070EA0125201275000000000000
B0609103206983S11657156EA0124101264000000000000
B0609143206998S11657242EA0122701255000000000000
B0609183207014S11657325EA0122001249000000000000
B0609223207030S11657408EA0121301239000000000000
B0609263207046S11657491EA0120501232000000000000
B0609303207060S11657576EA0119401221000000000000
B0609343207066S11657664EA0118601213000000000000
B0609383207069S11657754EA0117401200000000000000
B0609423207070S11657844EA0117101199000000000000
B0609463207074S11657928EA0117301202000000000000
B0609503207078S11658010EA0116801192000000000000
B0609543207087S11658095EA0116001186000000000000
B0609583207100S11658178EA0115701183000000000000
B0610023207111S11658262EA0115401182000000000000
B0610063207122S11658344EA0115501183000000000000
B0610103207133S11658425EA0115601184000000000000
B0610143207143S11658502EA0115601184000000000000
B0610183207154S11658578EA0115301180000000000000
B0610223207165S11658656EA0114801175000000000000
B0610263207173S11658736EA0114301169000000000000
B0610303207182S11658816EA0113501161000000000000
B0610343207189S11658898EA0113001157000000000000
B0610383207195S11658977EA0112801154000000000000
B0610423207199S11659055EA0112301152000000000000
B0610463207203S11659132EA0112501154000000000000
B0610503207208S11659205EA0112601154000000000000
B0610543207213S11659278EA0112101143000000000000
B0610583207220S11659350EA0111001133000000000000
B0611023207226S11659427EA0110101124000000000000
B0611063207232S11659505EA0109501121000000000000
B0611103207238S11659582EA0109701126000000000000
B0611143207246S11659656EA0110401131000000000000
B0611183207254S11659727EA0110701132000000000000
B0611223207263S11659800EA0110101122000000000000
B0611263207273S11659876EA0109101109000000000000
B0611303207284S11659956EA0107901099000000000000
B0611343207294S11700039EA0106901090000000000000
B0611383207303S11700121EA0106101080000000000000
B0611423207312S11700203EA0105401078000000000000
B0611463207319S11700284EA0105101074000000000000
B0611503207326S11700367EA0104401065000000000000
B0611543207333S11700453EA0103401055000000000000
B0611583207342S11700539EA0102801050000000000000
B0612023207350S11700623EA0102401044000000000000
B0612063207360S11700706EA0102001044000000000000
B0612103207371S11700786EA0102301044000000000000
B0612143207384S11700864EA0102101045000000000000
B0612183207398S11700939EA0101701040000000000000
B0612223207410S11701013EA0101901043000000000000
B0612263207419S11701091EA0102201044000000000000
B0612303207427S11701161EA0103001049000000000000
B0612343207433S11701230EA0102701041000000000000
B0612383207440S11701302EA0102001036000000000000
B0612423207449S11701373EA0102201039000000000000
B0612463207456S11701447EA0101901038000000000000
B0612503207460S11701521EA0101501030000000000000
B0612543207467S11701601EA0100701028000000000000
B0612583207477S11701676EA0100701025000000000000
B0613023207484S11701752EA0100001017000000000000
B0613063207489S11701826EA0100301029000000000000
B0613103207490S11701889EA0101501038000000000000
B0613143207493S11701952EA0102001045000000000000
B0613183207505S11702005EA0103101058000000000000
B0613223207544S11702030EA0103901063000000000000
B0613263207588S11701992EA0104101059000000000000
B0613303207583S11701910EA0103501057000000000000
B0613343207528S11701849EA0104101067000000000000
B0613383207462S11701846EA0104901073000000015000
B0613423207434S11701897EA0104901069000000015000
B0613463207468S11701936EA0104801069000000015000
B0613503207519S11701910EA0105501076000000015000
B0613543207531S11701833EA0105601074000000015000
B0613583207488S11701762EA0105601079000000015000
B0614023207421S11701736EA0106201085000000015000
B0614063207375S11701778EA0106201081000000015000
B0614103207385S11701831EA0106201083000000015000
B0614143207433S11701833EA0106201083000000015000
B0614183207460S11701768EA0106501087000000015000
B0614223207427S11701696EA0106701091000000015000
B0614263207363S11701654EA0106701088000000015000
B0614303207294S11701658EA0106601089000000015000
B0614343207247S11701702EA0106201080000000015000
B0614383207232S11701767EA0105401080000000015000
B0614423207228S11701836EA0105101078000000015000
B0614463207232S11701908EA0104201064000000015000
B0614503207233S11701983EA0103301058000000015000
B0614543207233S11702057EA0102801051000000015000
B0614583207235S11702131EA0102401045000000030000
B0615023207254S11702203EA0102101041000000030000
B0615063207277S11702272EA0101501035000000030000
B0615103207303S11702340EA0100801029000000030000
B0615143207328S11702407EA0100601023000000030000
B0615183207347S11702477EA0099601017000000045000
B0615223207342S11702552EA0098901013000000045000
B0615263207315S11702621EA0098901009000000045000
B0615303207273S11702678EA0098601004000000045000
B0615343207220S11702728EA0098301000000000060000
B0615383207168S11702776EA0098000995000000060000
B0615423207117S11702828EA0097300991000000075000
B0615463207069S11702881EA0096900986000000075000
B0615503207021S11702937EA0096200982015000075000
B0615543206974S11702996EA0095700978015000090000
B0615583206931S11703058EA0094900974015000090000
B0616023206894S11703123EA0094300971015000090000
B0616063206861S11703188EA0094000967015000105000
B0616103206831S11703252EA0093700963015000105000
B0616143206809S11703317EA0093200960015000105000
B0616183206795S11703383EA0092400956015000105000
B0616223206779S11703452EA0091600951015000120000
B0616263206756S11703520EA0091000947015000120000
B0616303206730S11703585EA0090400942015000120000
B0616343206700S11703648EA0089800937015000120000
B0616383206670S11703713EA0089800932015000120000
B0616423206653S11703782EA0090900934000000060000
B0616463206697S11703811EA0091800935000000030000
B0616503206736S11703747EA0091600929000000030000
B0616543206702S11703673EA0091500937000000015000
B0616583206639S11703657EA0092300945000000015000
B0617023206595S11703695EA0092800948000000015000
B0617063206609S11703743EA0092900947000000015000
B0617103206661S11703735EA0092400941000000015000
B0617143206688S11703661EA0092500943000000015000
B0617183206660S11703586EA0092300943000000015000
B0617223206593S11703564EA0092500949000000015000
B0617263206539S11703592EA0092900948000000015000
B0617303206539S11703647EA0092900948000000015000
B0617343206587S11703660EA0093000946000000015000
B0617383206621S11703596EA0092800943000000045000
B0617423206609S11703508EA0092100936000000015000
B0617463206562S11703440EA0092300944000000015000
B0617503206505S11703452EA0092900946000000015000
B0617543206510S11703505EA0092500941000000015000
B0617583206565S11703503EA0092500941000000030000
B0618023206591S11703434EA0092700946000000045000
B0618063206575S11703351EA0092500949000000045000
B0618103206531S11703276EA0092300950000000045000
B0618143206472S11703217EA0091900949000000045000
B0618183206407S11703167EA0091900949000000045000
B0618223206332S11703137EA0091800948000000030000
B0618263206262S11703100EA0091800948000000030000
B0618303206193S11703054EA0091700949000000045000
B0618343206124S11703005EA0091800948000000045000
B0618383206054S11702994EA0092200950000000015000
B0618423206033S11703048EA0092200945000000015000
B0618463206081S11703071EA0092300945000000015000
B0618503206134S11703027EA0092700949000000015000
B0618543206137S11702941EA0093400958000000015000
B0618583206086S11702879EA0093800958000000015000
B0619023206023S11702881EA0093900960000000015000
B0619063205995S11702932EA0093600957000000030000
B0619103206016S11702981EA0092900954000000030000
B0619143206041S11703020EA0092400952000000030000
B0619183206065S11703039EA0092700949000000030000
B0619223206069S11702821EA0092600948000000030000
B0619263205982S11702750EA0092000941000000045000
B0619303205932S11702784EA0091600937000000030000
B0619343205943S11702836EA0091300932000000030000
B0619383205997S11702834EA0091000926000000030000
B0619423206024S11702766EA0090700924000000045000
B0619463205997S11702685EA0090200918000000015000
B0619503205938S11702628EA0089300911000000015000
B0619543205865S11702595EA0088500904000000015000
B0619583205789S11702580EA0087800898000000015000
B0620023205716S11702589EA0088300906000000015000
B0620063205698S11702649EA0088800910000000015000
B0620103205750S11702668EA0089000911000000015000
B0620143205787S11702600EA0090000923000000015000
B0620183205755S11702528EA0090900928000000015000
B0620223205692S11702525EA0091200932000000015000
B0620263205683S11702578EA0091000926000000015000
B0620303205734S11702591EA0091300930000000015000
B0620343205765S11702529EA0091600932000000015000
B0620383205733S11702452EA0091400932000000000000
B0620423205666S11702428EA0091800938000000000000
B0620463205644S11702481EA0091700930000000000000
B0620503205694S11702502EA0091200929000000000000
B0620543205735S11702439EA0091200927000000000000
B0620583205714S11702355EA0091000928000000000000
B0621023205669S11702279EA0090900925000000000000
B0621063205605S11702262EA0091300933000000000000
B0621103205587S11702316EA0091400931000000000000
B0621143205634S11702335EA0091700935000000000000
B0621183205672S11702270EA0091000924000000000000
B0621223205652S11702178EA0090800924000000000000
B0621263205595S11702126EA0090700923000000000000
B0621303205535S11702139EA0090300917000000000000
B0621343205518S11702197EA0090000913000000000000
B0621383205530S11702262EA0089300910000000000000
B0621423205562S11702314EA0090100925000000000000
B0621463205613S11702283EA0091300925000000000000
B0621503205597S11702204EA0090800920000000000000
B0621543205536S11702182EA0090000913000000000000
B0621583205490S11702222EA0089600914000000000000
B0622023205469S11702279EA0090600927000000000000
B0622063205504S11702314EA0091500934000000000000
B0622103205549S11702262EA0091800935000000000000
B0622143205530S11702182EA0092600945000000000000
B0622183205470S11702152EA0093100951000000000000
B0622223205440S11702192EA0093700957000000000000
B0622263205477S11702218EA0094200963000000000000
B0622303205518S11702165EA0094800967000000015000
B0622343205491S11702087EA0095100973000000000000
B0622383205431S11702073EA0095500977000000000000
B0622423205406S11702119EA0095900979000000000000
B0622463205440S11702157EA0096200986000000000000
B0622503205496S11702131EA0096900993000000000000
B0622543205514S11702049EA0097700997000000000000
B0622583205469S11701983EA0097700995000000000000
B0623023205406S11701988EA0097500996000000000000
B0623063205383S11702041EA0097700998000000000000
B0623103205414S11702088EA0097901000000000000000
B0623143205473S11702062EA0098801015000000000000
B0623183205475S11701980EA0099901022000000000000
B0623223205417S11701937EA0100101021000000000000
B0623263205369S11701965EA0100301025000000000000
B0623303205370S11702021EA0100301024000000000000
B0623343205423S11702041EA0100701028000000000000
B0623383205470S11701986EA0101101031000000000000
B0623423205458S11701900EA0101201033000000000000
B0623463205397S11701848EA0101201034000000000000
B0623503205337S11701859EA0101701040000000000000
B0623543205310S11701911EA0101801041000000000000
B0623583205310S11701975EA0101801044000000000000
B0624023205341S11702025EA0102401047000000000000
B0624063205391S11701979EA0102501044000000015000
B0624103205373S11701887EA0102201041000000030000
B0624143205308S11701849EA0102401050000000045000
B0624183205252S11701869EA0103401056000000045000
B0624223205232S11701926EA0104501068000000060000
B0624263205250S11701979EA0105201072000000060000
B0624303205279S11702019EA0105101078000000060000
B0624343205330S11701908EA0104501077000000090000
B0624383205302S11701813EA0103901071000000120000
B0624423205239S11701776EA0104001069000000090000
B0624463205179S11701798EA0104801082000000150000
B0624503205161S11701849EA0106601095000000225000
B0624543205205S11701861EA0107301098000000045000
B0624583205228S11701792EA0107301097000000180000
B0625023205191S11701722EA0107201097000000075000
B0625063205124S11701703EA0107901109000000060000
B0625103205074S11701737EA0109101115000000075000
B0625143205071S11701794EA0110101123000000120000
B0625183205119S11701806EA0110801134000000105000
B0625223205154S11701748EA0111101139000000105000
B0625263205142S11701666EA0111501148000000045000
B0625303205087S11701620EA0112301156000000045000
B0625343205028S11701637EA0112901161000000045000
B0625383205006S11701696EA0113101165000000045000
B0625423205035S11701742EA0113901171000000045000
B0625463205084S11701727EA0114601179000000045000
B0625503205111S11701657EA0114501180000000045000
B0625543205084S11701577EA0114501179000000045000
B0625583205019S11701549EA0115001185000000045000
B0626023204960S11701576EA0115701192000000045000
B0626063204957S11701636EA0116201196000000045000
B0626103204998S11701666EA0116501199000000030000
B0626143205045S11701635EA0117001201000000045000
B0626183205055S11701560EA0117101200000000060000
B0626223205018S11701494EA0117201203000000060000
B0626263204955S11701482EA0117701208000000045000
B0626303204908S11701523EA0117701208000000030000
B0626343204893S11701579EA0118001210000000030000
B0626383204902S11701632EA0118101213000000030000
B0626423204928S11701684EA0117501211000000030000
B0626463204959S11701736EA0116801203000000030000
B0626503204979S11701796EA0116101196000000030000
B0626543204980S11701863EA0115201189000000030000
B0626583204960S11701934EA0114001180000000045000
B0627023204928S11702002EA0113401172000000045000
B0627063204885S11702071EA0112901165000000045000
B0627103204845S11702138EA0112701165000000045000
B0627143204807S11702201EA0112201159000000030000
B0627183204771S11702264EA0112101156000000030000
B0627223204734S11702326EA0111801152000000030000
B0627263204700S11702386EA0111501146000000015000
B0627303204668S11702450EA0111101142000000030000
B0627343204635S11702511EA0110701138000000030000
B0627383204603S11702574EA0110201134000000030000
B0627423204572S11702639EA0109501129000000045000
B0627463204543S11702706EA0109101125000000045000
B0627503204515S11702772EA0108701121000000045000
B0627543204487S11702836EA0108401118000000045000
B0627583204460S11702899EA0108101112000000030000
B0628023204431S11702962EA0107801108000000015000
B0628063204401S11703020EA0107501104000000015000
B0628103204375S11703083EA0107201099000000015000
B0628143204355S11703146EA0107001096000000000000
B0628183204338S11703214EA0106701094000000000000
B0628223204321S11703282EA0106401091000000000000
B0628263204307S11703348EA0106101089000000015000
B0628303204295S11703413EA0105501085000000015000
B0628343204286S11703482EA0104501075000000015000
B0628383204281S11703549EA0103701069000000015000
B0628423204275S11703617EA0103601064000000030000
B0628463204269S11703679EA0104201060000000030000
B0628503204282S11703731EA0104701063000000030000
B0628543204329S11703752EA0104601057000000030000
B0628583204375S11703708EA0103901051000000030000
B0629023204378S11703624EA0103001044000000060000
B0629063204327S11703555EA0102301037000000060000
B0629103204269S11703497EA0102201035000000060000
B0629143204203S11703478EA0102201039000000045000
B0629183204151S11703514EA0102201042000000045000
B0629223204115S11703568EA0102201040000000030000
B0629263204102S11703631EA0102101040000000030000
B0629303204110S11703694EA0102201041000000030000
B0629343204135S11703755EA0102101041000000030000
B0629383204164S11703815EA0102001038000000045000
B0629423204195S11703871EA0101901037000000045000
B0629463204234S11703923EA0101101035000000045000
B0629503204283S11703971EA0101001034000000045000
B0629543204323S11704025EA0101101036000000045000
B0629583204353S11704088EA0102001040000000045000
B0630023204372S11704151EA0103501045000000045000
B0630063204372S11704193EA0104901051000000045000
B0630103204360S11704207EA0105501056000000045000
B0630143204364S11704173EA0106001062000000045000
B0630183204351S11704077EA0107101071015000045000
B0630223204365S11704076EA0107801085000000045000
B0630263204329S11704121EA0109001108000000030000
B0630303204270S11704110EA0109501111000000015000
B0630343204227S11704049EA0109301113000000015000
B0630383204222S11703965EA0109201113000000015000
B0630423204262S11703900EA0109701127000000015000
B0630463204309S11703908EA0111701149000000015000
B0630503204305S11703952EA0112401138000000015000
B0630543204251S11703980EA0111601144000000015000
B0630583204192S11703954EA0112601154000000000000
B0631023204165S11703886EA0113201157000000000000
B0631063204182S11703812EA0113401157000000015000
B0631103204231S11703774EA0113901166000000015000
B0631143204274S11703791EA0114501173000000015000
B0631183204277S11703842EA0114901177000000015000
B0631223204236S11703878EA0115501185000000000000
B0631263204179S11703871EA0116301190000000000000
B0631303204132S11703819EA0116401191000000015000
B0631343204113S11703744EA0117001200000000015000
B0631383204121S11703666EA0117201196000000015000
B0631423204161S11703607EA0116201187000000015000
B0631463204218S11703586EA0115401179000000015000
B0631503204269S11703605EA0114801169000000015000
B0631543204297S11703655EA0113701162000000015000
B0631583204314S11703718EA0113001160000000015000
B0632023204326S11703783EA0113201159000000015000
B0632063204342S11703850EA0112901159000000015000
B0632103204356S11703915EA0112701152000000015000
B0632143204373S11703985EA0111201139000000015000
B0632183204387S11704062EA0109601129000000015000
B0632223204399S11704141EA0108901121000000015000
B0632263204409S11704219EA0108301115000000015000
B0632303204420S11704297EA0107901113000000030000
B0632343204434S11704375EA0107201105000000030000
B0632383204444S11704450EA0107001101000000030000
B0632423204455S11704523EA0107201102000000030000
B0632463204468S11704593EA0108001111000000030000
B0632503204494S11704654EA0108401111000000015000
B0632543204537S11704697EA0109301122000000015000
B0632583204587S11704662EA0110201125000000015000
B0633023204589S11704579EA0109701118000000015000
B0633063204535S11704524EA0109401121000000015000
B0633103204476S11704530EA0109401121000000015000
B0633143204438S11704573EA0109501121000000030000
B0633183204425S11704634EA0109201119000000030000
B0633223204422S11704700EA0109201118000000030000
B0633263204426S11704768EA0109101117000000015000
B0633303204442S11704834EA0108201112000000015000
B0633343204465S11704899EA0107601104000000015000
B0633383204490S11704963EA0107101098000000030000
B0633423204518S11705022EA0107201093000000030000
B0633463204557S11705076EA0107001092000000030000
B0633503204599S11705129EA0106801090000000030000
B0633543204639S11705186EA0106401086000000030000
B0633583204680S11705242EA0106301083000000030000
B0634023204716S11705298EA0106201081000000045000
B0634063204749S11705358EA0105601075000000045000
B0634103204775S11705423EA0105701071000000045000
B0634143204793S11705490EA0106001071000000045000
B0634183204808S11705561EA0106001070000000045000
B0634223204827S11705629EA0106001070000000045000
B0634263204845S11705700EA0105701069000000045000
B0634303204868S11705766EA0105401068000000045000
B0634343204892S11705832EA0105901076000000030000
B0634383204924S11705883EA0106901088000000015000
B0634423204977S11705848EA0107201086000000015000
B0634463204977S11705756EA0106901087000000015000
B0634503204924S11705691EA0106901090000000015000
B0634543204855S11705675EA0107001096000000015000
B0634583204797S11705701EA0107301096000000015000
B0635023204763S11705754EA0107101095000000015000
B0635063204752S11705819EA0106801091000000015000
B0635103204762S11705884EA0106501087000000015000
B0635143204777S11705945EA0106401087000000030000
B0635183204803S11706003EA0106301086000000030000
B0635223204832S11706061EA0106001085000000045000
B0635263204863S11706123EA0104901077000000030000
B0635303204880S11706190EA0104301073000000030000
B0635343204895S11706256EA0103801069000000030000
B0635383204911S11706322EA0103001065000000045000
B0635423204923S11706390EA0102801060000000030000
B0635463204927S11706460EA0102301056000000045000
B0635503204925S11706533EA0101701052000000045000
B0635543204921S11706607EA0100901048000000060000
B0635583204915S11706681EA0100601043000000060000
B0636023204908S11706754EA0100101039000000060000
B0636063204899S11706827EA0099801035000000075000
B0636103204892S11706898EA0099301031000000075000
B0636143204881S11706966EA0099201025000000075000
B0636183204875S11707033EA0098801022000000075000
B0636223204867S11707102EA0098101019000000075000
B0636263204860S11707170EA0097701016000000090000
B0636303204855S11707240EA0097101013000000090000
B0636343204850S11707310EA0096101009000000090000
B0636383204846S11707383EA0095401004015000105000
B0636423204843S11707453EA0094701000015000105000
B0636463204840S11707522EA0094200995015000105000
B0636503204834S11707590EA0093800991015000120000
B0636543204829S11707659EA0093000986015000120000
B0636583204819S11707728EA0092300981015000105000
B0637023204810S11707798EA0091800977015000105000
B0637063204802S11707867EA0091200972015000105000
B0637103204794S11707936EA0090900968015000120000
B0637143204785S11708002EA0090900963015000120000
B0637183204781S11708066EA0090200959015000120000
B0637223204786S11708129EA0089600955015000120000
B0637263204790S11708193EA0089000951015000135000
B0637303204789S11708258EA0088800947015000135000
B0637343204784S11708313EA0088900935015000090000
B0637383204786S11708371EA0089200936000000090000
B0637423204815S11708422EA0088900923000000060000
B0637463204846S11708474EA0088200916000000060000
B0637503204884S11708523EA0087800908000000045000
B0637543204915S11708570EA0087500909000000045000
B0637583204941S11708621EA0086600909000000045000
B0638023204954S11708682EA0085900906000000060000
B0638063204955S11708748EA0085000904000000060000
B0638103204944S11708818EA0083900900000000060000
B0638143204919S11708890EA0082700887000000060000
B0638183204908S11708961EA0082700892000000060000
B0638223204905S11709029EA0082100897000000060000
B0638263204921S11709089EA0081100901000000060000
B0638303204949S11709145EA0080300905015000075000
B0638343204973S11709204EA0079500908015000075000
B0638383204989S11709272EA0078700911015000075000
B0638423204996S11709344EA0078100914015000090000
B0638463204996S11709412EA0077400916015000090000
B0638503204997S11709481EA0076400916015000105000
B0638543204999S11709553EA0075700916015000105000
B0638583205005S11709620EA0075600916015000105000
B0639023205012S11709678EA0075500915015000105000
B0639063205024S11709731EA0074700913015000120000
B0639103205038S11709789EA0073900912015000120000
B0639143205054S11709849EA0073000910015000120000
B0639183205067S11709913EA0072100908015000120000
B0639223205074S11709981EA0071000905015000135000
B0639263205083S11710046EA0070300902030000135000
B0639303205090S11710112EA0069800899030000135000
B0639343205105S11710177EA0069400896030000150000
B0639383205124S11710242EA0068800893030000150000
B0639423205142S11710311EA0067900890030000150000
B0639463205159S11710372EA0066900885030000135000
B0639503205174S11710438EA0066400883030000105000
B0639543205194S11710504EA0066000883030000090000
B0639583205205S11710569EA0065500883030000090000
B0640023205218S11710634EA0064700883030000075000
B0640063205231S11710698EA0064000883030000075000
B0640103205241S11710762EA0063500883030000075000
B0640143205248S11710823EA0062800883030000075000
B0640183205224S11710888EA0062200874030000075000
B0640223205237S11710952EA0061200864030000075000
B0640263205257S11711017EA0060900858030000075000
B0640303205283S11711074EA0060400852030000075000
B0640343205322S11711127EA0059400846030000075000
B0640383205358S11711184EA0058600841030000075000
B0640423205387S11711245EA0058700835030000075000
B0640463205417S11711309EA0058800830030000075000
B0640503205431S11711372EA0059000823030000075000
B0640543205439S11711435EA0058600811015000075000
B0640583205436S11711496EA0058800808015000090000
B0641023205461S11711537EA0059000767015000120000
B0641063205556S11711515EA0058900707015000210000
B0641103205599S11711446EA0058200690015000180000
B0641143205568S11711377EA0057700673000000150000
B0641183205512S11711372EA0057400658000000150000
B0641223205475S11711417EA0057200639000000120000
B0641263205469S11711479EA0057200623000000105000
B0641303205500S11711537EA0056800594000000060000
B0641343205542S11711585EA0056100573000000030000
B0641383205587S11711628EA0055400563000000015000
B0641423205631S11711673EA0054800557000000015000
B0641463205673S11711721EA0054600555000000015000
B0641503205712S11711773EA0054500555000000015000
B0641543205752S11711823EA0055300562000000015000
B0641583205808S11711806EA0056300572000000015000
B0642023205803S11711729EA0056900573000000015000
B0642063205739S11711712EA0056800575000000015000
B0642103205704S11711758EA0057600582000000015000
B0642143205731S11711802EA0058100585000000030000
B0642183205783S11711773EA0058700592000000075000
B0642223205787S11711694EA0059300602000000045000
B0642263205738S11711650EA0060000604000000030000
B0642303205692S11711678EA0060000602000000030000
B0642343205708S11711729EA0060100608000000030000
B0642383205759S11711723EA0060800612000000030000
B0642423205776S11711651EA0061400620000000045000
B0642463205731S11711595EA0061700624000000030000
B0642503205682S11711615EA0062000627000000030000
B0642543205690S11711664EA0062600630000000030000
B0642583205739S11711664EA0063000634000000045000
B0643023205772S11711606EA0063800643000000060000
B0643063205751S11711533EA0063900643000000045000
B0643103205696S11711513EA0063800640000000030000
B0643143205669S11711559EA0063600642000000030000
B0643183205692S11711606EA0063800648000000030000
B0643223205742S11711577EA0064300651000000030000
B0643263205733S11711498EA0064300652000000030000
B0643303205674S11711463EA0064500654000000030000
B0643343205630S11711495EA0064900657000000045000
B0643383205643S11711544EA0064900656000000090000
B0643423205696S11711533EA0065100662000000150000
B0643463205722S11711460EA0065800668000000105000
B0643503205699S11711381EA0066100671000000060000
B0643543205643S11711339EA0065600663000000030000
B0643583205583S11711348EA0064800658000000015000
B0644023205548S11711398EA0064900661000000015000
B0644063205568S11711446EA0065000660000000015000
B0644103205618S11711421EA0065000657000000015000
B0644143205625S11711340EA0065100660000000015000
B0644183205577S11711279EA0065400662000000015000
B0644223205514S11711278EA0065700665000000015000
B0644263205499S11711331EA0066000663000000030000
B0644303205545S11711344EA0065800662000000045000
B0644343205582S11711283EA0065500658000000090000
B0644383205556S11711206EA0065700661000000090000
B0644423205492S11711182EA0065700663000000135000
B0644463205443S11711221EA0066200666000000225000
B0644503205466S11711261EA0066400664000000105000
B0644543205510S11711205EA0066100660000000105000
B0644583205492S11711128EA0066400660000000105000
B0645023205423S11711108EA0066700674000000060000
B0645063205395S11711156EA0067000678000000060000
B0645103205443S11711166EA0067400682000000060000
B0645143205461S11711091EA0067600685000000060000
B0645183205410S11711037EA0067800685000000060000
B0645223205358S11711065EA0067800683000000045000
B0645263205360S11711122EA0068000683000000045000
B0645303205414S11711126EA0068000684000000030000
B0645343205447S11711057EA0067900687000000030000
B0645383205418S11710982EA0067800685000000015000
B0645423205358S11710931EA0067400683000000015000
B0645463205289S11710900EA0067400680000000015000
B0645503205235S11710930EA0067200676000000015000
B0645543205236S11710983EA0066600669000000030000
B0645583205275S11711024EA0065000650000000015000
B0646023205323S11711065EA0063500637000000015000
B0646063205373S11711110EA0062400626000000015000
B0646103205422S11711160EA0061200614000000015000
B0646143205467S11711214EA0059900601000000015000
B0646183205506S11711273EA0059100596000000000000
B0646223205542S11711330EA0058200585000000000000
B0646263205574S11711391EA0057000573000000000000
B0646303205604S11711453EA0056200564000000000000
B0646343205630S11711516EA0055600558000000000000
B0646383205653S11711580EA0054900549000000000000
B0646423205678S11711645EA0054100541000000015000
B0646463205705S11711708EA0053400534000000015000
B0646503205730S11711771EA0052800528000000015000
B0646543205755S11711833EA0052100523000000000000
B0646583205776S11711895EA0051700518000000000000
B0647023205796S11711957EA0051300513000000000000
B0647063205826S11712014EA0050600503000000000000
B0647103205855S11712074EA0049700496000000000000
B0647143205880S11712133EA0049100492000000000000
B0647183205899S11712194EA0048900489000000000000
B0647223205912S11712259EA0048900492000000000000
B0647263205922S11712323EA0049900499000000000000
B0647303205967S11712354EA0050700504000000015000
B0647343206010S11712304EA0049900490000000015000
B0647383205986S11712228EA0049000484000000015000
B0647423205925S11712215EA0048400483000000015000
B0647463205873S11712250EA0048500488000000015000
B0647503205885S11712304EA0049200494000000015000
B0647543205935S11712280EA0049900496000000030000
B0647583205925S11712207EA0049400488000000030000
B0648023205865S11712196EA0049200490000000030000
B0648063205833S11712243EA0049400493000000030000
B0648103205859S11712292EA0049600494000000030000
B0648143205908S11712266EA0050000497000000045000
B0648183205907S11712192EA0049700493000000030000
B0648223205852S11712162EA0049100490000000030000
B0648263205804S11712198EA0049200491000000030000
B0648303205809S11712259EA0049000488000000030000
B0648343205856S11712297EA0049100492000000030000
B0648383205906S11712266EA0049800499000000030000
B0648423205886S11712201EA0049800489000000030000
B0648463205828S11712205EA0048900488000000030000
B0648503205791S11712257EA0049200495000000030000
B0648543205805S11712313EA0049700497000000030000
B0648583205856S11712302EA0050400504000000015000
B0649023205860S11712232EA0050500504000000015000
B0649063205807S11712198EA0050700507000000015000
B0649103205765S11712239EA0050500504000000015000
B0649143205796S11712276EA0050700509000000015000
B0649183205828S11712218EA0051000509000000015000
B0649223205783S11712163EA0050800506000000015000
B0649263205733S11712198EA0050400506000000015000
B0649303205739S11712259EA0050200503000000015000
B0649343205792S11712252EA0050600509000000030000
B0649383205789S11712176EA0051200513000000030000
B0649423205726S11712153EA0051000513000000030000
B0649463205687S11712201EA0050900512000000045000
B0649503205716S11712252EA0050900515000000060000
B0649543205770S11712230EA0051400521000000075000
B0649583205781S11712155EA0052400530000000060000
B0650023205735S11712110EA0052900528000000045000
B0650063205682S11712132EA0052700529000000075000
B0650103205672S11712191EA0052600527000000120000
B0650143205708S11712232EA0052500525000000060000
B0650183205755S11712204EA0052700524000000075000
B0650223205750S11712129EA0053500530000000135000
B0650263205692S11712106EA0054300543000000090000
B0650303205670S11712152EA0054400544000000045000
B0650343205716S11712165EA0054200545000000030000
B0650383205755S11712106EA0054300547000000030000
B0650423205747S11712031EA0054800554000000030000
B0650463205688S11712018EA0054700550000000015000
B0650503205675S11712074EA0054600551000000030000
B0650543205722S11712085EA0054900553000000090000
B0650583205747S11712016EA0054900560000000210000
B0651023205720S11711940EA0055300561000000045000
B0651063205659S11711918EA0055500568000000030000
B0651103205622S11711959EA0056000570000000030000
B0651143205648S11712005EA0056100566000000030000
B0651183205695S11711971EA0056300570000000030000
B0651223205672S11711903EA0057200575000000045000
B0651263205614S11711906EA0057400582000000045000
B0651303205597S11711959EA0057500581000000045000
B0651343205638S11711992EA0057100573000000030000
B0651383205688S11711949EA0057200580000000030000
B0651423205703S11711873EA0058000591000000045000
B0651463205660S11711819EA0058500594000000060000
B0651503205601S11711827EA0058700596000000120000
B0651543205578S11711882EA0058800594000000135000
B0651583205610S11711921EA0058800591000000090000
B0652023205657S11711892EA0059000593000000150000
B0652063205659S11711811EA0059400602000000075000
B0652103205607S11711765EA0060000610000000030000
B0652143205560S11711795EA0060200605000000030000
B0652183205582S11711845EA0059800599000000030000
B0652223205635S11711808EA0059600598000000060000
B0652263205647S11711726EA0060300611000000045000
B0652303205601S11711673EA0061000615000000075000
B0652343205543S11711691EA0060900616000000045000
B0652383205525S11711746EA0061000616000000045000
B0652423205561S11711778EA0060800611000000060000
B0652463205608S11711736EA0060800612000000060000
B0652503205597S11711659EA0061200615000000105000
B0652543205539S11711624EA0061200619000000060000
B0652583205487S11711650EA0060700615000000060000
B0653023205487S11711707EA0060500611000000045000
B0653063205527S11711750EA0059700603000000030000
B0653103205574S11711791EA0059100600000000015000
B0653143205634S11711795EA0059600605000000015000
B0653183205668S11711725EA0060500613000000030000
B0653223205653S11711648EA0061300619000000030000
B0653263205594S11711626EA0061200615000000030000
B0653303205557S11711676EA0061000615000000030000
B0653343205562S11711738EA0061100615000000045000
B0653383205620S11711746EA0061300616000000060000
B0653423205629S11711669EA0061900625000000045000
B0653463205568S11711647EA0062200629000000030000
B0653503205542S11711703EA0062000627000000015000
B0653543205575S11711755EA0062400630000000015000
B0653583205626S11711708EA0064100650000000015000
B0654023205594S11711639EA0065000660000000015000
B0654063205539S11711654EA0065400662000000015000
B0654103205536S11711711EA0065700665000000015000
B0654143205587S11711732EA0066500681000000015000
B0654183205629S11711680EA0068300697000000015000
B0654223205610S11711607EA0069500707000000015000
B0654263205553S11711585EA0069900710000000015000
B0654303205516S11711626EA0070200715000000015000
B0654343205534S11711677EA0070600723000000015000
B0654383205586S11711674EA0072200739000000015000
B0654423205610S11711609EA0073600752000000015000
B0654463205578S11711546EA0074700763000000015000
B0654503205522S11711539EA0075200773000000015000
B0654543205501S11711589EA0075800772000000015000
B0654583205543S11711622EA0076200784000000015000
B0655023205590S11711573EA0077700798000000015000
B0655063205571S11711496EA0079200812000000015000
B0655103205512S11711476EA0080100820000000015000
B0655143205479S11711522EA0080900829000000015000
B0655183205505S11711570EA0081700841000000015000
B0655223205560S11711556EA0083000855000000015000
B0655263205579S11711481EA0084000862000000015000
B0655303205532S11711422EA0084800874000000015000
B0655343205483S11711448EA0085800882000000015000
B0655383205493S11711504EA0086600890000000015000
B0655423205548S11711511EA0087400901000000015000
B0655463205583S11711446EA0088800913000000015000
B0655503205557S11711369EA0089800922000000015000
B0655543205495S11711348EA0090600930000000015000
B0655583205458S11711394EA0091500941000000015000
B0656023205478S11711443EA0092800957000000015000
B0656063205530S11711446EA0094000967000000015000
B0656103205570S11711388EA0095200979000000015000
B0656143205573S11711305EA0095800980000000015000
B0656183205529S11711243EA0096000987000000015000
B0656223205469S11711236EA0096700996000000015000
B0656263205426S11711279EA0097200999000000015000
B0656303205427S11711340EA0097601007000000015000
B0656343205477S11711356EA0099001014000000015000
B0656383205512S11711299EA0099901014000000015000
B0656423205488S11711219EA0099501012000000015000
B0656463205428S11711180EA0100101030000000015000
B0656503205383S11711214EA0101301037000000015000
B0656543205393S11711268EA0101601039000000015000
B0656583205443S11711291EA0101801042000000015000
B0657023205496S11711260EA0102401050000000015000
B0657063205518S11711187EA0103201062000000015000
B0657103205493S11711115EA0104101069000000015000
B0657143205439S11711091EA0104501074000000015000
B0657183205406S11711130EA0104901077000000015000
B0657223205435S11711171EA0105301087000000015000
B0657263205488S11711167EA0106301096000000015000
B0657303205530S11711118EA0107001102000000015000
B0657343205530S11711044EA0107601106000000015000
B0657383205488S11710993EA0107901108000000015000
B0657423205434S11710989EA0107801105000000015000
B0657463205399S11711031EA0107601105000000015000
B0657503205386S11711086EA0108101115000000015000
B0657543205418S11711125EA0108801119000000015000
B0657583205467S11711096EA0109301123000000015000
B0658023205475S11711022EA0109801126000000015000
B0658063205430S11710971EA0110201133000000015000
B0658103205379S11710984EA0110701135000000015000
B0658143205365S11711036EA0111201141000000015000
B0658183205400S11711070EA0111601143000000015000
B0658223205453S11711044EA0111601145000000015000
B0658263205478S11710972EA0111801147000000015000
B0658303205454S11710897EA0112101153000000015000
B0658343205399S11710871EA0112401155000000015000
B0658383205356S11710902EA0112301153000000015000
B0658423205358S11710959EA0112401158000000015000
B0658463205401S11710989EA0113101162000000015000
B0658503205458S11710974EA0113201165000000015000
B0658543205500S11710915EA0113601164000000015000
B0658583205501S11710833EA0113501164000000015000
B0659023205469S11710762EA0113301162000000015000
B0659063205428S11710694EA0112101140000000015000
B0659103205392S11710612EA0109901121000000000000
B0659143205362S11710520EA0108501110000000000000
B0659183205343S11710425EA0107701105000000000000
B0659223205327S11710329EA0107001098000000000000
B0659263205314S11710230EA0106201092000000000000
B0659303205306S11710133EA0105801086000000000000
B0659343205305S11710033EA0105201080000000000000
B0659383205308S11709934EA0104701076000000000000
B0659423205314S11709835EA0104501074000000000000
B0659463205324S11709741EA0104501073000000000000
B0659503205336S11709650EA0104101067000000000000
B0659543205347S11709555EA0103301060000000000000
B0659583205357S11709462EA0103101061000000000000
B0700023205365S11709372EA0103101061000000000000
B0700063205373S11709282EA0103001058000000000000
B0700103205380S11709191EA0102501051000000000000
B0700143205388S11709097EA0102101048000000000000
B0700183205396S11709003EA0101701044000000000000
B0700223205402S11708908EA0101401043000000000000
B0700263205408S11708813EA0101201039000000000000
B0700303205412S11708720EA0101001036000000000000
B0700343205417S11708629EA0100901035000000000000
B0700383205425S11708538EA0100401030000000000000
B0700423205434S11708447EA0099801024000000000000
B0700463205444S11708356EA0099301020000000000000
B0700503205451S11708263EA0099001015000000000000
B0700543205458S11708171EA0098401009000000000000
B0700583205467S11708077EA0098001006000000000000
B0701023205478S11707984EA0097300997000000000000
B0701063205488S11707888EA0096400987000000000000
B0701103205495S11707789EA0095300977000000000000
B0701143205501S11707689EA0094300968000000000000
B0701183205508S11707590EA0093600963000000000000
B0701223205518S11707491EA0093700967000000000000
B0701263205523S11707392EA0094000965000000000000
B0701303205522S11707292EA0093700965000000000000
B0701343205497S11707201EA0094300970000000000000
B0701383205435S11707166EA0094800974000000000000
B0701423205376S11707183EA0094300965000000000000
B0701463205334S11707227EA0093600959000000000000
B0701503205340S11707286EA0093600961000000000000
B0701543205374S11707338EA0093300953000000000000
B0701583205421S11707384EA0092900953000000000000
B0702023205471S11707425EA0093200957000000000000
B0702063205531S11707409EA0093900962000000000000
B0702103205535S11707325EA0093800959000000000000
B0702143205477S11707284EA0093900964000000000000
B0702183205432S11707318EA0094400965000000000000
B0702223205439S11707377EA0093500957000000000000
B0702263205473S11707431EA0093200954000000000000
B0702303205531S11707429EA0093500959000000000000
B0702343205564S11707361EA0094200966000000000000
B0702383205549S11707282EA0094100964000000000000
B0702423205516S11707206EA0093600958000000000000
B0702463205475S11707131EA0093300955000000000000
B0702503205432S11707056EA0093000953000000000000
B0702543205386S11706983EA0092800952000000000000
B0702583205339S11706910EA0092400944000000000000
B0703023205297S11706829EA0091500936000000000000
B0703063205256S11706746EA0091000933000000000000
B0703103205218S11706660EA0090400925000000000000
B0703143205185S11706568EA0089500913000000000000
B0703183205162S11706473EA0088600905000000000000
B0703223205144S11706377EA0088100900000000000000
B0703263205129S11706286EA0088000903000000000000
B0703303205119S11706199EA0088100902000000000000
B0703343205110S11706113EA0087900898000000000000
B0703383205101S11706025EA0087100889000000000000
B0703423205089S11705932EA0086200882000000000000
B0703463205080S11705841EA0085800876000000000000
B0703503205076S11705749EA0085200870000000000000
B0703543205071S11705658EA0084300861000000000000
B0703583205067S11705564EA0083700857000000000000
B0704023205066S11705471EA0083300851000000000000
B0704063205058S11705375EA0082500843000000000000
B0704103205050S11705280EA0081700834000000000000
B0704143205042S11705182EA0081300832000000000000
B0704183205055S11705089EA0081100827000000000000
B0704223205087S11705000EA0080600822000000000000
B0704263205098S11704907EA0080200821000000000000
B0704303205092S11704814EA0080100818000000000000
B0704343205077S11704723EA0079900815000000000000
B0704383205058S11704632EA0079200808000000000000
B0704423205033S11704541EA0078500798000000000000
B0704463205014S11704448EA0078000796000000000000
B0704503204994S11704354EA0077900792000000000000
B0704543204960S11704267EA0078100801000000000000
B0704583204895S11704266EA0079600818000000000000
B0705023204888S11704322EA0080700828000000000000
B0705063204928S11704344EA0081100822000000000000
B0705103204975S11704306EA0080300814000000000000
B0705143204990S11704228EA0080200818000000000000
B0705183204976S11704146EA0080500825000000000000
B0705223204920S11704129EA0081600833000000000000
B0705263204905S11704181EA0081900833000000000000
B0705303204950S11704203EA0082300842000000000000
B0705343204990S11704154EA0083400852000000000000
B0705383204979S11704079EA0084300862000000000000
B0705423204923S11704056EA0084900865000000000000
B0705463204893S11704102EA0084800864000000000000
B0705503204927S11704141EA0085300872000000000000
B0705543204979S11704115EA0085900882000000000000
B0705583204990S11704041EA0086900892000000015000
B0706023204944S11703990EA0087900900000000000000
B0706063204895S11704014EA0088300903000000000000
B0706103204903S11704063EA0088900910000000000000
B0706143204953S11704067EA0089400915000000000000
B0706183204985S11704008EA0090100922000000015000
B0706223204959S11703938EA0090800931000000015000
B0706263204903S11703929EA0091400935000000000000
B0706303204881S11703980EA0091400934000000000000
B0706343204914S11704024EA0091900943000000000000
B0706383204970S11704010EA0092600950000000000000
B0706423204996S11703936EA0093000950000000015000
B0706463204957S11703871EA0093400959000000000000
B0706503204897S11703874EA0094300967000000000000
B0706543204872S11703930EA0095100978000000000000
B0706583204898S11703978EA0096300988000000000000
B0707023204950S11703982EA0096800990000000000000
B0707063204999S11703934EA0096600991000000000000
B0707103205005S11703860EA0097200997000000000000
B0707143204959S11703808EA0097701002000000000000
B0707183204903S11703819EA0098201010000000000000
B0707223204886S11703872EA0098801014000000000000
B0707263204923S11703911EA0099501023000000000000
B0707303204977S11703907EA0099801022000000000000
B0707343205018S11703850EA0099801020000000000000
B0707383205007S11703773EA0099601022000000015000
B0707423204953S11703735EA0100501031000000015000
B0707463204902S11703757EA0100901032000000015000
B0707503204898S11703815EA0101001036000000000000
B0707543204947S11703839EA0101401039000000000000
B0707583204999S11703798EA0101401039000000015000
B0708023205007S11703722EA0101601042000000015000
B0708063204971S11703653EA0101501038000000015000
B0708103204925S11703585EA0101201037000000000000
B0708143204892S11703503EA0101101036000000000000
B0708183204882S11703410EA0100701030000000000000
B0708223204894S11703317EA0100301027000000000000
B0708263204920S11703226EA0099901021000000000000
B0708303204957S11703140EA0099301016000000000000
B0708343204993S11703053EA0098601007000000000000
B0708383205029S11702963EA0097901003000000000000
B0708423205068S11702876EA0097600998000000000000
B0708463205109S11702790EA0096700989000000000000
B0708503205148S11702703EA0095900982000000000000
B0708543205187S11702615EA0095200975000000000000
B0708583205226S11702526EA0095100975000000000000
B0709023205256S11702437EA0095300978000000000000
B0709063205266S11702344EA0096100987000000000000
B0709103205261S11702251EA0096500988000000000000
B0709143205248S11702158EA0096300987000000000000
B0709183205249S11702069EA0096200986000000000000
B0709223205283S11701999EA0096200987000000000000
B0709263205337S11701961EA0096200986000000000000
B0709303205399S11701952EA0095900983000000000000
B0709343205462S11701950EA0095900981000000000000
B0709383205531S11701943EA0095600981000000000000
B0709423205595S11701913EA0096400989000000000000
B0709463205625S11701837EA0096900994000000000000
B0709503205630S11701746EA0096600983000000000000
B0709543205644S11701651EA0096000982000000000000
B0709583205666S11701560EA0095900981000000000000
B0710023205696S11701473EA0096000981000000000000
B0710063205729S11701390EA0095800980000000000000
B0710103205761S11701310EA0096200985000000000000
B0710143205794S11701229EA0096400987000000000000
B0710183205828S11701146EA0096600989000000000000
B0710223205857S11701059EA0096800994000000000000
B0710263205881S11700974EA0097500999000000000000
B0710303205880S11700884EA0097400996000000000000
B0710343205852S11700800EA0096800988000000000000
B0710383205796S11700743EA0096400986000000000000
B0710423205731S11700738EA0096600988000000000000
B0710463205699S11700786EA0096500987000000000000
B0710503205713S11700840EA0096400984000000000000
B0710543205756S11700882EA0095700972000000000000
B0710583205820S11700903EA0094700964000000000000
B0711023205893S11700887EA0094100964000000000000
B0711063205955S11700839EA0094400970000000000000
B0711103206002S11700771EA0094500966000000000000
B0711143206037S11700695EA0093600953000000000000
B0711183206069S11700614EA0092700946000000000000
B0711223206102S11700535EA0092200940000000000000
B0711263206134S11700457EA0091800934000000000000
B0711303206166S11700377EA0091100927000000000000
B0711343206190S11700294EA0090600918000000000000
B0711383206216S11700210EA0090100912000000000000
B0711423206245S11700130EA0089700912000000000000
B0711463206273S11700055EA0089500909000000000000
B0711503206302S11659980EA0088200895000000000000
B0711543206329S11659899EA0086600881000000000000
B0711583206362S11659817EA0085600870000000000000
B0712023206393S11659735EA0085000867000000000000
B0712063206424S11659653EA0084600860000000000000
B0712103206457S11659574EA0083900854000000000000
B0712143206491S11659493EA0083100846000000000000
B0712183206524S11659412EA0082200838000000000000
B0712223206557S11659328EA0082100840000000000000
B0712263206591S11659252EA0082900847000000000000
B0712303206624S11659176EA0082600842000000000000
B0712343206654S11659094EA0082100839000000000000
B0712383206683S11659007EA0082000837000000000000
B0712423206708S11658919EA0082200842000000000000
B0712463206686S11658836EA0082900844000000000000
B0712503206624S11658810EA0082600839000000000000
B0712543206587S11658851EA0082000832000000000000
B0712583206598S11658902EA0081300825000000000000
B0713023206647S11658921EA0080600819000000000000
B0713063206706S11658899EA0080100815000000000000
B0713103206766S11658856EA0080200818000000000000
B0713143206822S11658803EA0080600828000000000000
B0713183206849S11658726EA0081500834000000000000
B0713223206813S11658660EA0081700828000000000000
B0713263206754S11658669EA0080600818000000000000
B0713303206736S11658725EA0079800812000000000000
B0713343206761S11658775EA0079500811000000000000
B0713383206804S11658812EA0080000819000000000000
B0713423206856S11658820EA0081200833000000000000
B0713463206894S11658760EA0081500830000000000000
B0713503206877S11658685EA0081100823000000000000
B0713543206821S11658645EA0080800826000000000000
B0713583206766S11658655EA0081100826000000000000
B0714023206727S11658697EA0080600817000000000000
B0714063206710S11658756EA0080500824000000000000
B0714103206728S11658810EA0081500837000000000000
B0714143206771S11658836EA0083000851000000000000
B0714183206819S11658808EA0083800854000000000000
B0714223206835S11658734EA0083300847000000000000
B0714263206801S11658663EA0083400854000000000000
B0714303206744S11658635EA0084100864000000000000
B0714343206700S11658663EA0085200873000000000000
B0714383206700S11658715EA0085800877000000000000
B0714423206745S11658739EA0086100879000000000000
B0714463206803S11658710EA0086500881000000000000
B0714503206838S11658637EA0086000875000000000000
B0714543206835S11658546EA0085900876000000000000
B0714583206801S11658468EA0086500885000000000000
B0715023206745S11658421EA0087000886000000000000
B0715063206684S11658416EA0086400875000000000000
B0715103206641S11658455EA0085400866000000000000
B0715143206640S11658515EA0084800862000000000000
B0715183206686S11658552EA0084500865000000000000
B0715223206747S11658539EA0085400878000000000000
B0715263206797S11658494EA0087100895000000015000
B0715303206804S11658414EA0088000899000000015000
B0715343206757S11658360EA0088100899000000015000
B0715383206700S11658366EA0088400902000000000000
B0715423206673S11658414EA0088200894000000015000
B0715463206695S11658469EA0087500894000000015000
B0715503206749S11658479EA0088300908000000015000
B0715543206800S11658438EA0089400913000000015000
B0715583206826S11658361EA0089500912000000015000
B0716023206818S11658275EA0089300910000000015000
B0716063206775S11658206EA0089100907000000015000
B0716103206714S11658180EA0088200898000000000000
B0716143206670S11658229EA0086700881000000000000
B0716183206678S11658297EA0085900877000000000000
B0716223206714S11658357EA0086000883000000000000
B0716263206764S11658399EA0087300898000000000000
B0716303206814S11658360EA0088500900000000000000
B0716343206809S11658277EA0087200880000000000000
B0716383206753S11658210EA0085900878000000000000
B0716423206687S11658209EA0087300899000000000000
B0716463206656S11658258EA0088700905000000000000
B0716503206675S11658313EA0088700905000000000000
B0716543206735S11658312EA0089300913000000000000
B0716583206762S11658240EA0090000920000000000000
B0717023206731S11658169EA0090300924000000000000
B0717063206670S11658157EA0091000933000000000000
B0717103206637S11658206EA0091600937000000000000
B0717143206661S11658260EA0092000939000000000000
B0717183206718S11658266EA0092100939000000000000
B0717223206770S11658217EA0091700931000000015000
B0717263206779S11658128EA0090800924000000015000
B0717303206744S11658047EA0090600925000000000000
B0717343206679S11658001EA0091100932000000000000
B0717383206611S11658002EA0091400933000000000000
B0717423206565S11658045EA0091300928000000000000
B0717463206553S11658109EA0091000927000000015000
B0717503206589S11658154EA0091100928000000015000
B0717543206650S11658139EA0091000925000000015000
B0717583206686S11658063EA0090700925000000015000
B0718023206667S11657978EA0090800927000000030000
B0718063206606S11657936EA0091500935000000015000
B0718103206552S11657961EA0091400932000000015000
B0718143206537S11658021EA0091000925000000015000
B0718183206576S11658066EA0090600925000000015000
B0718223206637S11658071EA0090800928000000015000
B0718263206697S11658053EA0090800928000000015000
B0718303206754S11658013EA0090400926000000015000
B0718343206806S11657954EA0089600920000000015000
B0718383206856S11657884EA0088800914000000015000
B0718423206901S11657810EA0088400909000000015000
B0718463206943S11657735EA0088200904000000015000
B0718503206983S11657657EA0087700898000000015000
B0718543207018S11657573EA0087100892000000015000
B0718583207048S11657485EA0086800892000000015000
B0719023207073S11657398EA0087000895000000000000
B0719063207096S11657313EA0086800889000000000000
B0719103207118S11657229EA0086300885000000015000
B0719143207135S11657144EA0085900881000000015000
B0719183207143S11657057EA0085400874000000015000
B0719223207137S11656968EA0084500864000000015000
B0719263207121S11656879EA0083400852000000000000
B0719303207096S11656791EA0082400839000000015000
B0719343207069S11656704EA0081500832000000015000
B0719383207037S11656623EA0080900827000000015000
B0719423207001S11656545EA0080600825000000015000
B0719463206961S11656468EA0080300822000000015000
B0719503206916S11656393EA0079900815000000015000
B0719543206870S11656312EA0079300811000000015000
B0719583206821S11656233EA0079400813000000015000
B0720023206753S11656198EA0080000820000000015000
B0720063206702S11656234EA0080700826000000015000
B0720103206700S11656292EA0080700824000000015000
B0720143206736S11656336EA0080500821000000015000
B0720183206795S11656359EA0080200818000000015000
B0720223206858S11656375EA0080100818000000015000
B0720263206922S11656367EA0080700827000000015000
B0720303206960S11656308EA0081900842000000015000
B0720343206952S11656228EA0082600841000000015000
B0720383206903S11656164EA0081900833000000015000
B0720423206836S11656152EA0081600831000000015000
B0720463206797S11656193EA0081900838000000015000
B0720503206806S11656236EA0082600842000000015000
B0720543206847S11656249EA0082600841000000015000
B0720583206888S11656202EA0081500832000000015000
B0721023206888S11656115EA0081000833000000015000
B0721063206860S11656033EA0080600828000000030000
B0721103206816S11655960EA0080400824000000030000
B0721143206765S11655894EA0080300826000000015000
B0721183206712S11655831EA0080200819000000015000
B0721223206658S11655762EA0079400807000000015000
B0721263206609S11655688EA0079000807000000015000
B0721303206562S11655613EA0078700801000000000000
B0721343206515S11655538EA0078100792000000000000
B0721383206466S11655463EA0077400789000000000000
B0721423206407S11655404EA0077300787000000000000
B0721463206340S11655392EA0076700776000000000000
B0721503206283S11655426EA0075900772000000000000
B0721543206260S11655482EA0075400765000000000000
B0721583206273S11655540EA0074200756000000000000
B0722023206306S11655590EA0073800753000000000000
B0722063206346S11655631EA0074300760000000000000
B0722103206384S11655674EA0074300753000000000000
B0722143206427S11655716EA0073500745000000000000
B0722183206475S11655752EA0072900741000000000000
B0722223206523S11655791EA0072900741000000000000
B0722263206572S11655830EA0073000745000000015000
B0722303206622S11655865EA0073000740000000015000
B0722343206671S11655905EA0072600740000000015000
B0722383206719S11655943EA0072500739000000000000
B0722423206769S11655980EA0072300737000000000000
B0722463206822S11656013EA0072000739000000000000
B0722503206874S11656046EA0072900746000000000000
B0722543206927S11656076EA0073200749000000000000
B0722583206981S11656107EA0073900758000000000000
B0723023207030S11656145EA0074400761000000000000
B0723063207077S11656188EA0074900765000000000000
B0723103207133S11656202EA0075400773000000000000
B0723143207170S11656142EA0076000775000000015000
B0723183207141S11656064EA0075600770000000015000
B0723223207074S11656048EA0075900777000000015000
B0723263207033S11656091EA0076600784000000015000
B0723303207026S11656152EA0076900783000000015000
B0723343207051S11656204EA0076800783000000015000
B0723383207096S11656236EA0076200769000000015000
B0723423207152S11656262EA0074700757000000015000
B0723463207209S11656289EA0073500751000000015000
B0723503207264S11656315EA0073400752000000015000
B0723543207315S11656341EA0073200748000000015000
B0723583207367S11656370EA0072400740000000015000
B0724023207419S11656399EA0072000737000000015000
B0724063207469S11656432EA0072000740000000015000
B0724103207515S11656470EA0072700745000000015000
B0724143207560S11656507EA0072900746000000015000
B0724183207611S11656540EA0073000746000000015000
B0724223207663S11656571EA0073100748000000015000
B0724263207711S11656609EA0073200745000000015000
B0724303207761S11656648EA0072500737000000015000
B0724343207811S11656685EA0071600727000000015000
B0724383207866S11656721EA0070500716000000000000
B0724423207922S11656753EA0069500708000000000000
B0724463207979S11656784EA0068600699000000000000
B0724503208035S11656815EA0068300696000000000000
B0724543208088S11656847EA0068000694000000000000
B0724583208143S11656883EA0067400684000000000000
B0725023208195S11656925EA0066600678000000000000
B0725063208246S11656970EA0065900670000000000000
B0725103208294S11657021EA0065300666000000000000
B0725143208335S11657077EA0064900661000000000000
B0725183208369S11657135EA0064300655000000000000
B0725223208400S11657194EA0063500643000000000000
B0725263208430S11657255EA0062700636000000000000
B0725303208455S11657316EA0062800642000000000000
B0725343208480S11657376EA0063600650000000000000
B0725383208526S11657399EA0064400656000000000000
B0725423208572S11657356EA0064800658000000000000
B0725463208568S11657278EA0065000662000000000000
B0725503208520S11657225EA0065300664000000000000
B0725543208459S11657218EA0064900657000000000000
B0725583208412S11657259EA0064500657000000000000
B0726023208391S11657317EA0064500657000000000000
B0726063208396S11657378EA0064500657000000000000
B0726103208425S11657434EA0064500656000000000000
B0726143208474S11657469EA0064300652000000000000
B0726183208535S11657456EA0064000653000000000000
B0726223208582S11657399EA0064200655000000015000
B0726263208591S11657317EA0064400656000000015000
B0726303208556S11657246EA0064400657000000015000
B0726343208494S11657212EA0064800660000000015000
B0726383208443S11657244EA0064800658000000015000
B0726423208441S11657306EA0064900659000000000000
B0726463208485S11657338EA0064800655000000000000
B0726503208541S11657312EA0064500656000000015000
B0726543208569S11657243EA0064800662000000015000
B0726583208555S11657169EA0065300664000000015000
B0727023208512S11657107EA0065100663000000015000
B0727063208451S11657082EA0065200665000000000000
B0727103208399S11657113EA0065400666000000000000
B0727143208390S11657172EA0065500668000000015000
B0727183208424S11657215EA0065700669000000015000
B0727223208477S11657217EA0065600669000000015000
B0727263208524S11657172EA0065900670000000030000
B0727303208541S11657100EA0066200670000000030000
B0727343208525S11657025EA0066500673000000015000
B0727383208481S11656965EA0066600675000000015000
B0727423208422S11656944EA0066600677000000015000
B0727463208369S11656955EA0066600672000000000000
B0727503208330S11656997EA0066100669000000000000
B0727543208322S11657056EA0065900667000000015000
B0727583208347S11657108EA0065600665000000000000
B0728023208394S11657137EA0065500663000000015000
B0728063208450S11657142EA0065500664000000015000
B0728103208506S11657127EA0065400664000000015000
B0728143208559S11657099EA0065000657000000015000
B0728183208599S11657042EA0064100647000000015000
B0728223208612S11656964EA0063300640000000015000
B0728263208587S11656887EA0063000640000000015000
B0728303208541S11656826EA0063000639000000015000
B0728343208487S11656774EA0063200644000000015000
B0728383208429S11656766EA0063400639000000015000
B0728423208396S11656815EA0062600629000000015000
B0728463208421S11656871EA0062100629000000015000
B0728503208477S11656880EA0062400630000000015000
B0728543208524S11656832EA0062600636000000015000
B0728583208525S11656756EA0063500646000000015000
B0729023208486S11656698EA0063800648000000015000
B0729063208430S11656688EA0063600642000000015000
B0729103208389S11656727EA0062800634000000015000
B0729143208368S11656787EA0062100625000000015000
B0729183208360S11656851EA0062100631000000015000
B0729223208357S11656916EA0061700625000000015000
B0729263208356S11656982EA0061100619000000015000
B0729303208357S11657049EA0060900619000000015000
B0729343208357S11657116EA0060800616000000015000
B0729383208355S11657182EA0060200608000000000000
B0729423208351S11657250EA0059500602000000000000
B0729463208350S11657317EA0059000598000000000000
B0729503208350S11657384EA0058600594000000000000
B0729543208351S11657449EA0058300590000000000000
B0729583208352S11657515EA0057800586000000000000
B0730023208356S11657580EA0057200579000000000000
B0730063208360S11657646EA0056300569000000000000
B0730103208368S11657712EA0055300558000000000000
B0730143208378S11657780EA0054100545000000000000
B0730183208392S11657849EA0053300537000000000000
B0730223208404S11657919EA0052600531000000000000
B0730263208418S11657987EA0052500535000000000000
B0730303208431S11658052EA0052400529000000000000
B0730343208446S11658118EA0051900525000000000000
B0730383208461S11658184EA0051400520000000000000
B0730423208493S11658240EA0051500520000000000000
B0730463208543S11658264EA0051300517000000000000
B0730503208597S11658231EA0050700510000000000000
B0730543208611S11658152EA0049900498000000000000
B0730583208574S11658075EA0048600486000000000000
B0731023208509S11658028EA0047200473000000000000
B0731063208433S11658005EA0046400468000000015000
B0731103208355S11657991EA0046000463000000015000
B0731143208278S11657975EA0045200454000000015000
B0731183208200S11657953EA0044600447000000015000
B0731223208123S11657928EA0043800440000000015000
B0731263208048S11657904EA0043600438000000000000
B0731303207974S11657879EA0043200432000000000000
B0731343207898S11657850EA0042600424000000000000
B0731383207823S11657816EA0042100423000000000000
B0731423207749S11657781EA0042200424000000000000
B0731463207674S11657750EA0041800417000000000000
B0731503207597S11657724EA0041500414000000000000
B0731543207520S11657697EA0040900407000000000000
B0731583207443S11657667EA0040300403000000000000
B0732023207367S11657637EA0040300406000000000000
B0732063207293S11657606EA0040400407000000000000
B0732103207219S11657575EA0040300403000000000000
B0732143207146S11657541EA0039600392000000000000
B0732183207074S11657497EA0038400379000000000000
B0732223207012S11657436EA0038000378000000000000
B0732263206955S11657372EA0038000380000000000000
B0732303206901S11657307EA0038400384000000000000
B0732343206848S11657244EA0038500386000000000000
B0732383206793S11657181EA0038300381000000000000
B0732423206734S11657121EA0038100380000000000000
B0732463206678S11657056EA0038200383000000000000
B0732503206623S11656987EA0038500385000000000000
B0732543206576S11656913EA0038400382000000000000
B0732583206543S11656826EA0038300384000000000000
B0733023206514S11656739EA0038700386000000000000
B0733063206485S11656653EA0038400381000000000000
B0733103206501S11656562EA0037600371000000000000
B0733143206550S11656502EA0036700362000000000000
B0733183206610S11656487EA0035100340000000000000
B0733223206670S11656497EA0033400326000000000000
B0733263206727S11656520EA0032400312000000000000
B0733303206782S11656546EA0031300303000000015000
B0733343206834S11656572EA0030000288000000015000
B0733383206887S11656602EA0028700278000000015000
B0733423206940S11656631EA0027700268000000000000
B0733463206988S11656662EA0026400255000000000000
B0733503207035S11656693EA0025100240000000000000
B0733543207081S11656722EA0023700226000000000000
B0733583207125S11656750EA0022400212000000000000
B0734023207164S11656775EA0021900206000000000000
B0734063207199S11656795EA0021700205000000000000
B0734103207226S11656809EA0021700205000000000000
B0734143207251S11656819EA0021700205000000000000
B0734183207271S11656826EA0021700206000000000000
B0734223207287S11656830EA0021800206000000000000
B0734263207300S11656834EA0021700205000000000000
B0734303207306S11656835EA0021700205000000000000
B0734343207306S11656835EA0021800205000000000000
B0734383207306S11656835EA0021700206000000000000
B0734423207306S11656835EA0021800207000000000000
B0734463207306S11656835EA0021700207000000000000
B0734503207306S11656835EA0021700207000000000000
B0734543207306S11656835EA0021700207000000000000
G00030000009366E3AA0000000000000000000000000000000000000000000000
G82F209818F8FD04273EFC677D114FE290A34E3DB00000000C21431528E6F2702
G88274F67E1E2E1B38E222DA260B06D4E434CE63B000000000000000009322F81
