ACAM4N6
HFDTE040921
HFFXA050
HFPLTPILOT:JOHN WELSH              
HFGTYGLIDERTYPE:HORNET      
HFGIDGLIDERID:VH-GMY      
HFDTM100GPSDATUM:
HFRFWFIRMWAREVERSION:F2.6
HFRHWHARDWAREVERSION:300 Series Version 2
HFFTYFRTYPE:CAMBRIDGE AERO INSTRUMENTS, 302+
HFGPS:GARMIN,LVS-25,12,18000
HFPRSPRESSALTSENSOR:INTERSEMA, MS5534-AP, 20000
I033638FXA3941ENL4247REX
LCAMSBVER:5FWVER:F26300
C020521044002020521000101
C0000000N00000000WTAKEOFF     
C3207549S11656849EBEVAIR      
C3255649S11704983ENARRAIR     
C3207549S11656849EBEVAIR      
C0000000N00000000WLANDING     
B0358103207736S11657096EA0006700215000004000000
B0358123207736S11657096EA0006700215000000000000
B0358143207736S11657096EA0006800215000000000000
B0358163207736S11657096EA0006800215000004000000
B0358183207736S11657096EA0006800215000004000000
B0358203207736S11657096EA0006700215000004000000
B0358223207736S11657096EA0006700215000004000000
B0358243207736S11657096EA0006700215000004000000
B0358263207736S11657096EA0006700215000004000000
B0358283207736S11657096EA0006800215000004000000
B0358303207736S11657096EA0006700215000004000000
B0358323207736S11657096EA0006700215000004000000
B0358343207736S11657096EA0006700215000004000000
B0358363207736S11657096EA0006700215000000000000
B0358383207736S11657096EA0006700215000000000000
B0358413207728S11657094EA0006700215000004000000
B0358453207701S11657085EA0006800215000000000000
B0358493207659S11657065EA0006900216000000000000
B0358533207607S11657033EA0007100217000000000000
B0358573207547S11656999EA0007700223000004000000
B0359013207484S11656968EA0008500234000000000000
B0359053207420S11656944EA0010100258000004000000
B0359093207356S11656929EA0012200277000004000000
B0359133207290S11656914EA0013700295000000000000
B0359173207226S11656893EA0015900315000000000000
B0359213207161S11656862EA0017400328000000000000
B0359253207099S11656828EA0018800345000000000000
B0359293207037S11656796EA0020700363000000000000
B0359333206972S11656758EA0022300375000000000000
B0359373206905S11656717EA0023000383000000000000
B0359413206844S11656665EA0024200399000000000000
B0359453206792S11656606EA0026100419000004000000
B0359493206743S11656544EA0028300439000004000000
B0359533206693S11656480EA0030100456000000000000
B0359573206650S11656411EA0032200481000000000000
B0400013206610S11656340EA0034500500000000000000
B0400053206569S11656268EA0036200516000000000000
B0400093206530S11656195EA0037700532000004000000
B0400133206505S11656113EA0039400548000004000000
B0400173206498S11656026EA0041500569000000000000
B0400213206507S11655938EA0043200580000000000000
B0400253206531S11655851EA0044200589000000000000
B0400293206569S11655770EA0045200601000004000000
B0400333206623S11655708EA0046900618000004000000
B0400373206689S11655664EA0048100627000004000000
B0400413206761S11655638EA0049100645000004000000
B0400453206832S11655640EA0051200663000000000000
B0400493206903S11655666EA0053000676000004000000
B0400533206969S11655713EA0054000686000004000000
B0400573207022S11655777EA0055600706000000000000
B0401013207053S11655855EA0057800727000000000000
B0401053207068S11655935EA0059900746000000000000
B0401093207069S11656016EA0061600764000000000000
B0401133207060S11656095EA0063400780000000000000
B0401173207037S11656172EA0064500795000000000000
B0401213207000S11656241EA0065800805000004000000
B0401253206956S11656298EA0066900815000004000000
B0401293206920S11656354EA0067200814000004000000
B0401333206901S11656418EA0066800811000004000000
B0401373206888S11656485EA0066500804000004000000
B0401413206879S11656555EA0065500795000004000000
B0401453206877S11656630EA0064700787000000000000
B0401493206879S11656705EA0063700777000004000000
B0401533206886S11656783EA0062700761000004000000
B0401573206897S11656864EA0061100748000004000000
B0402013206931S11656936EA0060400745000004000000
B0402053206973S11657003EA0060300746000004000000
B0402093207013S11657068EA0060800752000004000000
B0402133207055S11657130EA0061700759000004000000
B0402173207120S11657138EA0062500766000000000000
B0402213207159S11657077EA0063200774000004000000
B0402253207137S11657020EA0063900784000000000000
B0402293207092S11657017EA0064800790000004000000
B0402333207068S11657056EA0065700795000004015000
B0402373207078S11657111EA0066200797000004015000
B0402413207128S11657134EA0066500798000000015000
B0402453207181S11657096EA0066600801000000015000
B0402493207193S11657025EA0066700803000000015000
B0402533207159S11656970EA0066900806000000015000
B0402573207108S11656981EA0067200808000004015000
B0403013207092S11657040EA0067400813000000015000
B0403053207122S11657099EA0067800817000000015000
B0403093207186S11657107EA0068500824000004015000
B0403133207221S11657046EA0069000832000000015000
B0403173207194S11656991EA0070000842000000015000
B0403213207147S11656996EA0070800847000000015000
B0403253207130S11657048EA0071400851000000015000
B0403293207165S11657095EA0072000857000000015000
B0403333207222S11657090EA0072900866000004015000
B0403373207252S11657035EA0073500873000004015000
B0403413207230S11656983EA0073700876000004015000
B0403453207185S11656986EA0074300883000004015000
B0403493207168S11657033EA0075200889000004015000
B0403533207199S11657082EA0075300890000004015000
B0403573207259S11657086EA0075700899000004015000
B0404013207298S11657038EA0076900909000004015000
B0404053207293S11656977EA0077400912000004015000
B0404093207248S11656955EA0077500914000000015000
B0404133207215S11656991EA0077900918000000015000
B0404173207233S11657047EA0078400921000000015000
B0404213207291S11657059EA0078900928000000015000
B0404253207330S11657008EA0079500935000004015000
B0404293207316S11656947EA0079700935000000015000
B0404333207265S11656938EA0079600934000000015000
B0404373207234S11656987EA0079700938000004015000
B0404413207245S11657052EA0080300946000004015000
B0404453207299S11657077EA0081300953000004015000
B0404493207352S11657035EA0081800958000000015000
B0404533207359S11656965EA0082200961000000015000
B0404573207323S11656913EA0082100958000000015000
B0405013207265S11656912EA0082000957000000015000
B0405053207228S11656962EA0082000959000004015000
B0405093207235S11657034EA0082300961000004015000
B0405133207290S11657075EA0082700964000000015000
B0405173207355S11657048EA0083000971000004015000
B0405213207385S11656977EA0083700972000004015000
B0405253207367S11656904EA0083900977000000015000
B0405293207315S11656874EA0084100979000000015000
B0405333207259S11656897EA0084000975000000015000
B0405373207212S11656947EA0084000977000004015000
B0405413207211S11657014EA0084900989000004015000
B0405453207269S11657033EA0085900995000000015000
B0405493207297S11656970EA0086601005000000015000
B0405533207260S11656926EA0087601014000004015000
B0405573207216S11656948EA0087901016000004015000
B0406013207211S11657004EA0088501023000004015000
B0406053207252S11657038EA0089301028000004015000
B0406093207294S11656995EA0089701031000004015000
B0406133207271S11656936EA0090201040000004015000
B0406173207221S11656936EA0090901045000004015000
B0406213207202S11656991EA0090901044000004015000
B0406253207239S11657043EA0091401052000004015000
B0406293207297S11657038EA0092601067000000015000
B0406333207313S11656977EA0094001078000004015000
B0406373207274S11656940EA0094801083000004015000
B0406413207235S11656971EA0095501092000004015000
B0406453207248S11657029EA0096501100000000015000
B0406493207303S11657040EA0097101104000000015000
B0406533207326S11656979EA0097901118000000015000
B0406573207287S11656943EA0099101127000000015000
B0407013207254S11656982EA0099601130000000015000
B0407053207284S11657030EA0100301139000000015000
B0407093207337S11657008EA0101001147000000015000
B0407133207341S11656940EA0101801156000000015000
B0407173207294S11656923EA0102601164000004015000
B0407213207273S11656974EA0103301172000000015000
B0407253207310S11657017EA0104301179000000015000
B0407293207360S11656992EA0105401190000000015000
B0407333207358S11656925EA0105901192000000015000
B0407373207306S11656912EA0106301199000000015000
B0407413207285S11656968EA0107001207000000015000
B0407453207323S11657017EA0108101214000000015000
B0407493207380S11656999EA0109001224000000015000
B0407533207385S11656930EA0109601232000000015000
B0407573207339S11656904EA0110601242000004015000
B0408013207313S11656949EA0111501251000004015000
B0408053207347S11656992EA0112401260000004015000
B0408093207398S11656973EA0113101265000004015000
B0408133207408S11656906EA0113701271000004015000
B0408173207371S11656862EA0114401280000000015000
B0408213207325S11656877EA0115201283000000015000
B0408253207316S11656934EA0115601290000004015000
B0408293207359S11656969EA0116701301000004015000
B0408333207406S11656935EA0117501307000000015000
B0408373207398S11656866EA0117501303000000015000
B0408413207347S11656845EA0118001316000000015000
B0408453207317S11656890EA0119201325000000015000
B0408493207351S11656934EA0119901330000000015000
B0408533207401S11656899EA0120201331000004015000
B0408573207381S11656832EA0120301334000004015000
B0409013207330S11656839EA0120901345000004015000
B0409053207326S11656893EA0122101355000000015000
B0409093207375S11656914EA0122901357000004015000
B0409133207410S11656864EA0123001358000004015000
B0409173207386S11656806EA0123301365000000000000
B0409213207338S11656808EA0124001371000004015000
B0409253207319S11656856EA0124701378000000015000
B0409293207350S11656896EA0125601384000004015000
B0409333207399S11656884EA0125801385000000015000
B0409373207427S11656831EA0125801386000000015000
B0409413207412S11656771EA0125801387000000015000
B0409453207364S11656752EA0125701384000004015000
B0409493207328S11656795EA0125701390000004015000
B0409533207349S11656848EA0126701396000004015000
B0409573207399S11656851EA0127801404000004015000
B0410013207432S11656801EA0128401405000004015000
B0410053207424S11656732EA0128001404000004015000
B0410093207376S11656689EA0128201407000004015000
B0410133207319S11656698EA0128101408000004015000
B0410173207267S11656734EA0128201411000004000000
B0410213207216S11656774EA0128401413000000000000
B0410253207168S11656819EA0128601415000000000000
B0410293207125S11656873EA0128701414000000000000
B0410333207086S11656931EA0128601413000000000000
B0410373207043S11656990EA0128101407000000000000
B0410413206999S11657046EA0127701405000004000000
B0410453206959S11657107EA0127301400000000000000
B0410493206918S11657166EA0126801395000000000000
B0410533206874S11657221EA0126601389000000000000
B0410573206821S11657267EA0126301387000000000000
B0411013206765S11657306EA0126301386000004000000
B0411053206704S11657337EA0126601393000004000000
B0411093206643S11657361EA0127001393000004000000
B0411133206584S11657390EA0127001395000004000000
B0411173206526S11657415EA0126801391000004000000
B0411213206465S11657438EA0125801380000004000000
B0411253206400S11657458EA0124801366000000000000
B0411293206331S11657473EA0123801358000000000000
B0411333206263S11657490EA0123001352000000000000
B0411373206198S11657506EA0122601351000004000000
B0411413206136S11657527EA0123101355000000000000
B0411453206076S11657566EA0123501362000000000000
B0411493206042S11657624EA0125201381000004000000
B0411533206081S11657668EA0126601389000004000000
B0411573206140S11657636EA0126401387000000000000
B0412013206162S11657556EA0127301403000000000000
B0412053206145S11657482EA0129101420000004000000
B0412093206098S11657446EA0130101428000004000000
B0412133206047S11657462EA0130501435000004000000
B0412173206033S11657516EA0131601447000000000000
B0412213206071S11657553EA0132901459000004000000
B0412253206123S11657528EA0133001450000004000000
B0412293206134S11657450EA0132801460000004015000
B0412333206095S11657393EA0133901467000004015000
B0412373206039S11657355EA0134301468000004015000
B0412413205980S11657319EA0134101464000000015000
B0412453205916S11657278EA0133501459000000015000
B0412493205850S11657237EA0133101453000004000000
B0412533205781S11657191EA0132501447000004000000
B0412573205712S11657142EA0131301435000004000000
B0413013205642S11657087EA0129901420000004000000
B0413053205570S11657033EA0129101413000004000000
B0413093205500S11656978EA0128601411000000000000
B0413133205431S11656927EA0128101405000000000000
B0413173205361S11656879EA0127301396000004000000
B0413213205289S11656832EA0126301386000004000000
B0413253205220S11656783EA0125601381000004000000
B0413293205154S11656740EA0125901388000004000000
B0413333205088S11656708EA0126301390000004000000
B0413373205020S11656678EA0126201392000000000000
B0413413204954S11656662EA0127701407000000000000
B0413453204914S11656709EA0129101419000000000000
B0413493204942S11656761EA0130001428000000000000
B0413533204998S11656765EA0130101424000000000000
B0413573205048S11656724EA0129401416000004000000
B0414013205064S11656657EA0129301418000000000000
B0414053205037S11656600EA0129901430000000000000
B0414093204992S11656565EA0130601435000000000000
B0414133204938S11656541EA0130801437000000000000
B0414173204881S11656536EA0131201439000000000000
B0414213204842S11656580EA0131601441000000000000
B0414253204854S11656644EA0131601437000000015000
B0414293204906S11656676EA0131201438000000015000
B0414333204964S11656658EA0131501441000000015000
B0414373205007S11656606EA0132001447000000015000
B0414413205020S11656539EA0132601451000000000000
B0414453204994S11656474EA0133001453000000000000
B0414493204951S11656420EA0132901452000004000000
B0414533204903S11656370EA0132701449000004000000
B0414573204853S11656318EA0132301443000004000000
B0415013204797S11656267EA0131601437000004000000
B0415053204736S11656219EA0131001431000004000000
B0415093204674S11656173EA0130101424000000000000
B0415133204613S11656130EA0129801423000000000000
B0415173204552S11656090EA0129501419000000000000
B0415213204491S11656050EA0129301418000004000000
B0415253204431S11656009EA0128901412000004000000
B0415293204370S11655969EA0128301407000004000000
B0415333204310S11655928EA0127801404000000000000
B0415373204252S11655881EA0127301398000004000000
B0415413204195S11655829EA0126501391000004000000
B0415453204136S11655778EA0125901386000004000000
B0415493204079S11655729EA0125501381000004000000
B0415533204023S11655681EA0125001375000004000000
B0415573203970S11655631EA0124201364000004000000
B0416013203913S11655586EA0123101356000000000000
B0416053203854S11655540EA0122201349000000000000
B0416093203796S11655493EA0121701346000004000000
B0416133203740S11655444EA0121301340000000000000
B0416173203680S11655397EA0120601334000000015000
B0416213203616S11655352EA0120401333000000015000
B0416253203553S11655311EA0121401344000004015000
B0416293203486S11655309EA0122201355000004015000
B0416333203452S11655366EA0123301361000000015000
B0416373203477S11655427EA0123101356000000030000
B0416413203536S11655439EA0122101348000000015000
B0416453203586S11655395EA0122201354000004015000
B0416493203614S11655328EA0122601356000004015000
B0416533203620S11655253EA0122901360000004015000
B0416573203602S11655187EA0123201361000004015000
B0417013203558S11655140EA0122901357000004015000
B0417053203498S11655115EA0122201349000004015000
B0417093203429S11655105EA0121101343000004015000
B0417133203356S11655103EA0120701341000004015000
B0417173203283S11655109EA0120401338000004030000
B0417213203212S11655114EA0120101334000004030000
B0417253203139S11655120EA0119201325000004030000
B0417293203065S11655128EA0118601322000004030000
B0417333202991S11655138EA0117801317000000030000
B0417373202914S11655150EA0117101312000000030000
B0417413202840S11655154EA0116901307000004030000
B0417453202765S11655157EA0116301301000000030000
B0417493202691S11655158EA0115601295000004030000
B0417533202617S11655157EA0114701288000004030000
B0417573202542S11655155EA0114201284000004030000
B0418013202471S11655155EA0114101282000004030000
B0418053202403S11655168EA0114401286000004030000
B0418093202340S11655196EA0114601288000004030000
B0418133202279S11655228EA0114601282000000030000
B0418173202224S11655278EA0114601284000000030000
B0418213202172S11655331EA0114601281000000015000
B0418253202113S11655380EA0113901275000000030000
B0418293202041S11655408EA0113701273000004030000
B0418333201965S11655426EA0113901273000000030000
B0418373201889S11655436EA0113901273000004030000
B0418413201812S11655439EA0113801268000000030000
B0418453201736S11655437EA0113701265000000030000
B0418493201660S11655430EA0113301261000000030000
B0418533201580S11655411EA0112501256000004030000
B0418573201502S11655387EA0111801251000004030000
B0419013201427S11655356EA0111201245000004015000
B0419053201353S11655324EA0110301238000000015000
B0419093201275S11655296EA0109301232000004030000
B0419133201198S11655268EA0108901228000004015000
B0419173201124S11655246EA0108601222000004015000
B0419213201051S11655224EA0108001218000004015000
B0419253200981S11655202EA0107701215000000015000
B0419293200912S11655181EA0107501211000000015000
B0419333200843S11655154EA0106701202000000015000
B0419373200774S11655125EA0105801197000000015000
B0419413200708S11655099EA0105701196000000015000
B0419453200642S11655075EA0105901197000000015000
B0419493200577S11655051EA0105901198000004015000
B0419533200512S11655031EA0106201199000000015000
B0419573200446S11655015EA0106101197000000030000
B0420013200379S11654998EA0106201197000004030000
B0420053200314S11654984EA0107301204000004030000
B0420093200280S11655036EA0108401211000004030000
B0420133200317S11655086EA0108601209000004030000
B0420173200374S11655073EA0108601213000000030000
B0420213200399S11655012EA0109001220000000030000
B0420253200382S11654945EA0109501223000004075000
B0420293200329S11654906EA0109701226000004075000
B0420333200279S11654941EA0110501233000004090000
B0420373200292S11655001EA0111101240000000120000
B0420413200348S11655007EA0111001240000000165000
B0420453200390S11654955EA0110801243000004120000
B0420493200401S11654882EA0111701249000004105000
B0420533200391S11654812EA0112401256000000105000
B0420573200340S11654851EA0113301262000004090000
B0421013200352S11654916EA0114301269000000135000
B0421053200396S11654924EA0114801274000004225000
B0421093200420S11654868EA0115201277000004120000
B0421133200395S11654800EA0115201273000000075000
B0421173200338S11654784EA0115701282000000105000
B0421213200300S11654826EA0116601293000000120000
B0421253200303S11654888EA0117001300000004195000
B0421293200357S11654912EA0117301308000000015000
B0421333200410S11654869EA0117601308000000225000
B0421373200410S11654791EA0117801301000000075000
B0421413200357S11654751EA0118001308000000075000
B0421453200305S11654773EA0119401323000000060000
B0421493200297S11654830EA0120101327000000060000
B0421533200338S11654868EA0120501332000000060000
B0421573200392S11654859EA0120501335000004045000
B0422013200427S11654802EA0120501336000004045000
B0422053200423S11654729EA0120801338000004060000
B0422093200366S11654702EA0121101340000000060000
B0422133200303S11654721EA0120301329000000090000
B0422173200230S11654748EA0119501318000000075000
B0422213200156S11654774EA0118901314000000045000
B0422253200078S11654804EA0117601306000000045000
B0422293200000S11654839EA0117001297000000045000
B0422333159923S11654875EA0115901289000004045000
B0422373159841S11654908EA0115001281000004045000
B0422413159760S11654942EA0113801274000004045000
B0422453159679S11654972EA0112801267000004045000
B0422493159597S11654997EA0112101261000000045000
B0422533159516S11655021EA0111701255000000045000
B0422573159437S11655042EA0111001252000000045000
B0423013159360S11655060EA0110501248000004045000
B0423053159289S11655080EA0110401243000004045000
B0423093159218S11655098EA0110001238000000045000
B0423133159151S11655119EA0110101237000000030000
B0423173159083S11655140EA0110101235000000030000
B0423213159019S11655166EA0110101234000000030000
B0423253158960S11655196EA0110801239000000030000
B0423293158901S11655229EA0111701244000004030000
B0423333158876S11655285EA0113101260000004030000
B0423373158906S11655335EA0114101270000000030000
B0423413158973S11655333EA0113901271000000030000
B0423453159021S11655276EA0113701270000000075000
B0423493159019S11655198EA0113501265000000060000
B0423533158974S11655145EA0113801269000000135000
B0423573158914S11655124EA0114201276000000120000
B0424013158856S11655125EA0114001281000000135000
B0424053158806S11655150EA0114401286000004120000
B0424093158776S11655202EA0114401291000000105000
B0424133158771S11655252EA0114301296015004105000
B0424173158970S11655397EA0114201300015004090000
B0424213159040S11655418EA0114001305015000105000
B0424253159129S11655369EA0113901307015000090000
B0424293159147S11655287EA0114101307015004120000
B0424333159122S11655207EA0113601296015004135000
B0424373159073S11655144EA0112901282000000120000
B0424413159006S11655094EA0112501269000000075000
B0424453158939S11655051EA0112701265000000075000
B0424493158867S11655016EA0113101265000000060000
B0424533158802S11655021EA0114401271000000060000
B0424573158804S11655084EA0115601273000004090000
B0425013158863S11655099EA0115501267000000180000
B0425053158914S11655051EA0115601269000004210000
B0425093158932S11654985EA0115801275000004180000
B0425133158922S11654916EA0115301282000004180000
B0425173158858S11654873EA0114301289000000135000
B0425213158783S11654845EA0113301278000000090000
B0425253158715S11654816EA0112501256000004045000
B0425293158649S11654789EA0111001241000000030000
B0425333158581S11654763EA0109601227000000030000
B0425373158507S11654741EA0107801217000000030000
B0425413158437S11654717EA0107601216000000030000
B0425453158369S11654689EA0107801221000000030000
B0425493158308S11654652EA0109201230000000030000
B0425533158247S11654652EA0109701228000000030000
B0425573158234S11654717EA0109901231000000030000
B0426013158284S11654748EA0110201234000000045000
B0426053158336S11654712EA0110101237000000045000
B0426093158369S11654646EA0111001246000000045000
B0426133158371S11654569EA0111801249000000030000
B0426173158332S11654507EA0112501257000004030000
B0426213158275S11654509EA0113301266000000045000
B0426253158259S11654576EA0113701263000004060000
B0426293158310S11654616EA0113301261000004045000
B0426333158369S11654581EA0113101265000004045000
B0426373158397S11654504EA0113601269000004045000
B0426413158382S11654426EA0114201273000004045000
B0426453158328S11654401EA0114601275000004045000
B0426493158288S11654446EA0115001280000004030000
B0426533158295S11654514EA0115001273000004045000
B0426573158345S11654561EA0114601269000004030000
B0427013158411S11654568EA0114601269000004045000
B0427053158462S11654518EA0115401279000004105000
B0427093158460S11654448EA0116901292000004060000
B0427133158421S11654397EA0116701287000004045000
B0427173158369S11654351EA0115201279000004045000
B0427213158308S11654304EA0114201274000004045000
B0427253158243S11654260EA0113301267000004030000
B0427293158174S11654215EA0111901259000004030000
B0427333158100S11654174EA0111301253000004030000
B0427373158029S11654132EA0110701246000000030000
B0427413157957S11654095EA0109901239000004030000
B0427453157887S11654057EA0109301232000000030000
B0427493157820S11654017EA0108501225000000030000
B0427533157752S11653976EA0108101219000000030000
B0427573157683S11653932EA0107901214000000030000
B0428013157618S11653883EA0107901215000000030000
B0428053157560S11653829EA0107901214000000030000
B0428093157502S11653773EA0107401208000000030000
B0428133157441S11653715EA0107301207000000030000
B0428173157381S11653658EA0107501208000000030000
B0428213157322S11653604EA0108301211000000030000
B0428253157263S11653549EA0109101219000000030000
B0428293157270S11653473EA0111501236000000030000
B0428333157327S11653455EA0113601249000000030000
B0428373157361S11653500EA0114501259000000045000
B0428413157344S11653555EA0115501268000000030000
B0428453157292S11653563EA0116201276000000030000
B0428493157248S11653523EA0118101293000000030000
B0428533157254S11653459EA0119901313000000045000
B0428573157303S11653430EA0120601319000004060000
B0429013157357S11653458EA0121301335000000060000
B0429053157379S11653510EA0122801350000004030000
B0429093157366S11653563EA0123101353000000030000
B0429133157324S11653597EA0122801352000000015000
B0429173157270S11653590EA0122501354000000030000
B0429213157223S11653550EA0123401361000000030000
B0429253157184S11653497EA0124101368000004030000
B0429293157192S11653428EA0125101382000004030000
B0429333157235S11653378EA0126201390000004030000
B0429373157294S11653351EA0126501391000004030000
B0429413157362S11653344EA0127001394000000030000
B0429453157428S11653361EA0127801399000000030000
B0429493157483S11653402EA0128801407000004030000
B0429533157514S11653456EA0128901408000000015000
B0429573157523S11653520EA0128401399000000015000
B0430013157495S11653582EA0127501395000000015000
B0430053157443S11653624EA0127001392000004015000
B0430093157376S11653629EA0126501385000000015000
B0430133157309S11653606EA0125801377000004015000
B0430173157238S11653577EA0125801383000000015000
B0430213157168S11653552EA0126301386000000000000
B0430253157095S11653528EA0125801376000000000000
B0430293157019S11653503EA0124901371000000000000
B0430333156942S11653476EA0124001360000000000000
B0430373156864S11653447EA0122801352000000000000
B0430413156789S11653417EA0122901356000000000000
B0430453156721S11653389EA0123601363000000000000
B0430493156653S11653360EA0123201354000000000000
B0430533156583S11653330EA0122401348000000000000
B0430573156514S11653299EA0122201347000000000000
B0431013156448S11653265EA0121601340000004000000
B0431053156380S11653233EA0120701330000004000000
B0431093156310S11653201EA0119901323000004000000
B0431133156239S11653174EA0119201315000004000000
B0431173156166S11653151EA0118301305000004000000
B0431213156091S11653130EA0117401295000004000000
B0431253156013S11653112EA0116501289000004000000
B0431293155933S11653095EA0116701293000004000000
B0431333155857S11653081EA0117201301000000000000
B0431373155781S11653073EA0117501298000000000000
B0431413155702S11653065EA0117201297000000000000
B0431453155624S11653062EA0117901308000004000000
B0431493155547S11653061EA0119001315000004000000
B0431533155495S11653108EA0119901327000000000000
B0431573155495S11653175EA0120601331000004015000
B0432013155542S11653208EA0120901334000000015000
B0432053155593S11653177EA0120701330000004015000
B0432093155623S11653112EA0120401332000004015000
B0432133155636S11653040EA0121301343000004015000
B0432173155603S11652983EA0122101347000004015000
B0432213155550S11652983EA0122301348000004015000
B0432253155525S11653032EA0122601351000000015000
B0432293155547S11653079EA0122401345000000015000
B0432333155602S11653074EA0121401337000000015000
B0432373155626S11653010EA0121401345000000015000
B0432413155602S11652944EA0122001342000000015000
B0432453155554S11652887EA0121001329000000015000
B0432493155495S11652830EA0119601315000000015000
B0432533155431S11652772EA0118401304000000015000
B0432573155364S11652714EA0117401294000000015000
B0433013155298S11652653EA0116501286000000000000
B0433053155233S11652592EA0115801282000000000000
B0433093155169S11652529EA0115301276000000000000
B0433133155109S11652467EA0114901274000000000000
B0433173155049S11652407EA0114301264000000000000
B0433213154987S11652349EA0113201254000000000000
B0433253154922S11652293EA0112301245000000000000
B0433293154858S11652238EA0111501239000004000000
B0433333154793S11652185EA0111001234000000000000
B0433373154728S11652133EA0110301227000000000000
B0433413154663S11652082EA0109601220000000000000
B0433453154599S11652030EA0108701210000000000000
B0433493154533S11651976EA0107801207000000000000
B0433533154472S11651925EA0108601219000000000000
B0433573154412S11651877EA0110001234000000000000
B0434013154351S11651865EA0111601245000000000000
B0434053154321S11651912EA0112001245000004000000
B0434093154349S11651959EA0111601242000000000000
B0434133154406S11651948EA0111301241000000015000
B0434173154449S11651890EA0111301244000000015000
B0434213154481S11651821EA0112201249000000015000
B0434253154464S11651753EA0112901255000000015000
B0434293154412S11651739EA0113201257000000030000
B0434333154382S11651788EA0113501259000000030000
B0434373154407S11651847EA0113801263000000045000
B0434413154464S11651866EA0114501272000000030000
B0434453154516S11651830EA0114701277000004030000
B0434493154538S11651766EA0115501285000004030000
B0434533154534S11651700EA0115801284000004030000
B0434573154506S11651638EA0115001278000000015000
B0435013154454S11651589EA0113601268000004015000
B0435053154388S11651548EA0112201255000004015000
B0435093154313S11651510EA0110401246000004030000
B0435133154239S11651472EA0109901238000004015000
B0435173154164S11651432EA0108901231000004015000
B0435213154091S11651392EA0107801222000004015000
B0435253154021S11651350EA0107401221000004015000
B0435293153956S11651314EA0107501213000000015000
B0435333153887S11651280EA0106101208000000030000
B0435373153821S11651241EA0105301197000000015000
B0435413153754S11651203EA0104601192000000030000
B0435453153692S11651166EA0104301185000000015000
B0435493153628S11651128EA0103601175000000015000
B0435533153565S11651089EA0102701163000000015000
B0435573153501S11651046EA0101601156000000015000
B0436013153436S11650998EA0101001151000000015000
B0436053153374S11650952EA0101301152000000015000
B0436093153322S11650919EA0103501162000000030000
B0436133153271S11650947EA0104801166000000030000
B0436173153277S11651012EA0105201172000000030000
B0436213153331S11651040EA0104701166000000060000
B0436253153384S11651002EA0104101170000000120000
B0436293153394S11650929EA0104601176000000150000
B0436333153367S11650865EA0105601178000000105000
B0436373153312S11650839EA0106101182000000075000
B0436413153255S11650842EA0106401184000004060000
B0436453153224S11650900EA0106701187000004060000
B0436493153249S11650955EA0107701201000000060000
B0436533153302S11650968EA0107901199000000090000
B0436573153349S11650919EA0107101199000000165000
B0437013153366S11650839EA0107101203000004210000
B0437053153336S11650770EA0108401220000004150000
B0437093153281S11650787EA0109401232000004165000
B0437133153284S11650856EA0109801238000004165000
B0437173153341S11650885EA0109801242000000225000
B0437213153398S11650845EA0110101247000004045000
B0437253153409S11650770EA0111601264000004090000
B0437293153371S11650729EA0112801262000004135000
B0437333153324S11650752EA0113201261000004105000
B0437373153323S11650815EA0113901268000000075000
B0437413153371S11650846EA0114401272000000075000
B0437453153426S11650812EA0114601278000004075000
B0437493153431S11650742EA0115601284000000075000
B0437533153392S11650700EA0116801292000000075000
B0437573153344S11650716EA0117401299000000060000
B0438013153340S11650777EA0118101306000004060000
B0438053153392S11650807EA0118301307000004075000
B0438093153446S11650768EA0118601321000004120000
B0438133153445S11650704EA0120401339000004120000
B0438173153405S11650672EA0121101339000004060000
B0438213153358S11650692EA0121601346000004045000
B0438253153350S11650747EA0122601354000004045000
B0438293153387S11650787EA0122901359000004045000
B0438333153449S11650760EA0122401355000004045000
B0438373153459S11650685EA0122501358000004060000
B0438413153413S11650634EA0123001361000004075000
B0438453153354S11650646EA0123601367000000060000
B0438493153328S11650705EA0124701375000000075000
B0438533153341S11650776EA0125101379000004075000
B0438573153387S11650828EA0124301381000004075000
B0439013153468S11650841EA0123001382000004075000
B0439053153557S11650847EA0123201378000004090000
B0439093153643S11650856EA0123401377000004090000
B0439133153725S11650867EA0123201366000004075000
B0439173153809S11650873EA0121801342000004045000
B0439213153897S11650878EA0120001326000004045000
B0439253153982S11650887EA0119201318000004045000
B0439293154065S11650899EA0118701311000004030000
B0439333154146S11650916EA0118001304000004030000
B0439373154226S11650933EA0118101307000004030000
B0439413154304S11650949EA0118701312000004030000
B0439453154381S11650962EA0119701317000004030000
B0439493154454S11650952EA0121401325000004030000
B0439533154462S11650867EA0122901336000004060000
B0439573154420S11650821EA0123801346000004180000
B0440013154365S11650807EA0124401356000004210000
B0440053154317S11650808EA0125101367000004030000
B0440093154307S11650863EA0125901383000004225000
B0440133154438S11650889EA0126801368015004150000
B0440173154471S11650835EA0126901372015004165000
B0440213154430S11650782EA0127301375015004000000
B0440253154375S11650789EA0127601381015004150000
B0440293154349S11650854EA0127801384015004225000
B0440333154377S11650923EA0128001397015004000000
B0440373154436S11650965EA0128601403015000210000
B0440413154512S11650982EA0128701406000004150000
B0440453154592S11650995EA0128101399000004120000
B0440493154676S11651004EA0127301394000004105000
B0440533154763S11651010EA0126801390000004105000
B0440573154852S11651014EA0126701390000004075000
B0441013154937S11651019EA0126401386000004075000
B0441053155022S11651028EA0126001382000004075000
B0441093155105S11651040EA0125301377000000075000
B0441133155188S11651053EA0124601373000004075000
B0441173155270S11651071EA0124001367000004075000
B0441213155351S11651092EA0123201363000000075000
B0441253155429S11651108EA0123701368000000075000
B0441293155503S11651125EA0123601369000004075000
B0441333155580S11651142EA0123001367000000075000
B0441373155658S11651159EA0122201363000000075000
B0441413155737S11651177EA0121301358000000090000
B0441453155815S11651197EA0120701354000000090000
B0441493155893S11651219EA0120301352000000090000
B0441533155968S11651244EA0119601349000000105000
B0441573156042S11651263EA0119301347000000105000
B0442013156117S11651276EA0119201346000000105000
B0442053156191S11651287EA0118801342000000105000
B0442093156265S11651292EA0119301342000000090000
B0442133156338S11651277EA0120301346000004075000
B0442173156410S11651258EA0121201352000000075000
B0442213156484S11651248EA0121601356000000090000
B0442253156561S11651253EA0121201354000000075000
B0442293156638S11651275EA0120101345000000075000
B0442333156715S11651309EA0119201330000000060000
B0442373156791S11651346EA0118601320000000045000
B0442413156869S11651380EA0117901311000004045000
B0442453156947S11651414EA0117401303000000045000
B0442493157024S11651449EA0116601296000000045000
B0442533157101S11651483EA0115801288000000045000
B0442573157177S11651515EA0115501283000000045000
B0443013157254S11651545EA0114801275000004045000
B0443053157332S11651575EA0113701267000004045000
B0443093157407S11651599EA0113401264000000045000
B0443133157480S11651628EA0113001260000004045000
B0443173157549S11651660EA0113001259000004030000
B0443213157619S11651687EA0112901258000004045000
B0443253157693S11651710EA0112801256000004045000
B0443293157764S11651735EA0112801258000000060000
B0443333157838S11651757EA0112401258000000045000
B0443373157913S11651778EA0111201252000000060000
B0443413157991S11651797EA0110301239000000045000
B0443453158068S11651818EA0109201228000000045000
B0443493158146S11651839EA0108001221000000045000
B0443533158226S11651859EA0106601215000000045000
B0443573158304S11651878EA0105601207000000045000
B0444013158380S11651900EA0105201202000004045000
B0444053158450S11651925EA0105201200000000045000
B0444093158514S11651948EA0105101193000000045000
B0444133158579S11651972EA0104201179000000060000
B0444173158645S11651998EA0103201171000000060000
B0444213158713S11652025EA0101801161000000045000
B0444253158779S11652057EA0101201150000000045000
B0444293158843S11652093EA0100701145000000045000
B0444333158905S11652130EA0100201142000000045000
B0444373158965S11652164EA0100501142000004030000
B0444413159023S11652197EA0100701142000004045000
B0444453159081S11652233EA0100601143000000045000
B0444493159139S11652267EA0100101140000004045000
B0444533159196S11652299EA0100101139000000030000
B0444573159247S11652340EA0100901144000004030000
B0445013159290S11652390EA0102201151000004045000
B0445053159343S11652389EA0103301156000004045000
B0445093159339S11652320EA0103701168000004060000
B0445133159289S11652297EA0105001181000004060000
B0445173159252S11652334EA0106601188000004060000
B0445213159260S11652393EA0108101197000000060000
B0445253159305S11652425EA0109301208000004045000
B0445293159354S11652397EA0110101214000004075000
B0445333159363S11652332EA0111001225000004075000
B0445373159326S11652290EA0112401234000004075000
B0445413159281S11652310EA0113801244000000075000
B0445453159269S11652367EA0114501256000000060000
B0445493159307S11652411EA0115201263000000045000
B0445533159364S11652403EA0115501273000000045000
B0445573159402S11652349EA0115901279000000060000
B0446013159400S11652281EA0117401296000000075000
B0446053159360S11652239EA0118501305000000060000
B0446093159307S11652247EA0118901310000004060000
B0446133159277S11652304EA0119401318000000060000
B0446173159294S11652366EA0120601328000000075000
B0446213159343S11652390EA0121601339000000075000
B0446253159396S11652375EA0122101349000000180000
B0446293159396S11652298EA0123101355000000225000
B0446333159348S11652255EA0123501361000004195000
B0446373159299S11652285EA0124101367000004210000
B0446413159304S11652350EA0124901376000004000000
B0446453159356S11652379EA0126001379000004210000
B0446493159409S11652347EA0126901387000004195000
B0446533159409S11652280EA0127601399000004180000
B0446573159360S11652246EA0128501407000004210000
B0447013159308S11652260EA0129101412000004060000
B0447053159269S11652302EA0129601415000004045000
B0447093159261S11652373EA0130301425000004015000
B0447133159303S11652434EA0130701433015004030000
B0447173159367S11652442EA0131001429015004000000
B0447213159409S11652347EA0132101437015004105000
B0447253159365S11652277EA0132801419015004165000
B0447293159312S11652291EA0132901417015004150000
B0447333159283S11652349EA0133401421015004120000
B0447373159279S11652419EA0134201434015004015000
B0447413159320S11652468EA0134501449015004030000
B0447453159393S11652466EA0134301455015000105000
B0447493159464S11652445EA0133001439015000120000
B0447533159520S11652395EA0131601427015000165000
B0447573159558S11652303EA0132701423015000090000
B0448013159563S11652220EA0134801422030000150000
B0448053159526S11652154EA0135401422030000165000
B0448093159487S11652121EA0136001436030000165000
B0448133159434S11652158EA0136101428030000090000
B0448173159442S11652353EA0136801444030000225000
B0448213159546S11652356EA0137301435030000180000
B0448253159584S11652298EA0138101460015000195000
B0448293159571S11652237EA0138801457015000030000
B0448333159523S11652197EA0138901471015000150000
B0448373159469S11652193EA0139401465015000000000
B0448413159421S11652197EA0139301451015000180000
B0448453159409S11652216EA0139201449030000030000
B0448493159400S11652219EV0138500000000004000128
B0448533159400S11652219EV0137300000000004000128
B0448573159400S11652219EV0136300000000000000128
B0449013159400S11652219EV0134500000000000000128
B0449053159400S11652219EV0132700000000004000128
B0449093159400S11652219EV0132500000000000000128
B0449133159400S11652219EV0133200000000000000128
B0449173200067S11652741EA0133401442045000090000
B0449213200131S11652784EA0131801452045000180000
B0449253200201S11652819EA0131401441045000225000
B0449293200270S11652847EA0132401427015000225000
B0449333200332S11652879EA0132501423015000165000
B0449373200392S11652912EA0131901419015000105000
B0449413200452S11652948EA0130301413015004090000
B0449453200518S11652988EA0129301406015004135000
B0449493200587S11653022EA0129001400015004120000
B0449533200657S11653052EA0128901394015000105000
B0449573200725S11653081EA0128301387015004030000
B0450013200797S11653108EA0127401380015004015000
B0450053200869S11653134EA0127001373015004015000
B0450093200938S11653164EA0126901366015004000000
B0450133201007S11653199EA0126801362015000225000
B0450173201072S11653242EA0125901356015000210000
B0450213201137S11653292EA0124501348015004210000
B0450253201205S11653347EA0122801342015000210000
B0450293201274S11653400EA0122101335015004195000
B0450333201341S11653455EA0120901327030000195000
B0450373201409S11653510EA0120201319030000195000
B0450413201476S11653563EA0120101311030004195000
B0450453201543S11653614EA0120101308015000120000
B0450493201612S11653656EA0120101302015004105000
B0450533201681S11653698EA0120401298015004105000
B0450573201746S11653742EA0120301294015004105000
B0451013201809S11653789EA0119901288015004090000
B0451053201870S11653838EA0119601283015004090000
B0451093201929S11653894EA0118901286015004000000
B0451133201991S11653944EA0118801290000004195000
B0451173202052S11653991EA0119201293000004195000
B0451213202111S11654039EA0119601295000004180000
B0451253202173S11654088EA0119301295000004180000
B0451293202240S11654131EA0120001307000000135000
B0451333202307S11654104EA0121701331000000105000
B0451373202314S11654024EA0123501341000000120000
B0451413202271S11653966EA0124301348000000120000
B0451453202210S11653962EA0125301359000004105000
B0451493202175S11654019EA0126401366000004105000
B0451533202178S11654096EA0127001372000000105000
B0451573202232S11654141EA0127801385000000105000
B0452013202294S11654124EA0128501397000004090000
B0452053202323S11654058EA0129901407000000105000
B0452093202306S11653992EA0131501420000000120000
B0452133202255S11653970EA0132701432000000135000
B0452173202211S11654002EA0133401446000000090000
B0452213202204S11654066EA0133501448000000060000
B0452253202246S11654124EA0132901445000004045000
B0452293202307S11654165EA0133601451000000060000
B0452333202375S11654195EA0135001458000000060000
B0452373202440S11654218EA0135601465000000060000
B0452413202501S11654239EA0135301458000000060000
B0452453202562S11654264EA0134201453000004060000
B0452493202623S11654288EA0133801452000004060000
B0452533202680S11654317EA0133601449000004060000
B0452573202736S11654348EA0133401450000004060000
B0453013202789S11654383EA0132701446000004045000
B0453053202844S11654420EA0131701440000004045000
B0453093202897S11654456EA0130701432000004060000
B0453133202949S11654494EA0129901425000004060000
B0453173203000S11654531EA0129301420000004045000
B0453213203055S11654566EA0128801417000000060000
B0453253203111S11654598EA0128401415000000060000
B0453293203168S11654631EA0128201413000000060000
B0453333203220S11654667EA0129001413000004075000
B0453373203273S11654696EA0129901415000000075000
B0453413203326S11654721EA0131001419000000075000
B0453453203380S11654739EA0131401424000000075000
B0453493203438S11654758EA0131301422000000075000
B0453533203499S11654778EA0131401421000000090000
B0453573203559S11654802EA0131401419000000090000
B0454013203620S11654829EA0131301417000000090000
B0454053203684S11654858EA0130301413000000090000
B0454093203751S11654888EA0129801410000000090000
B0454133203820S11654917EA0130001409000000090000
B0454173203888S11654954EA0129901408000000090000
B0454213203953S11655001EA0129901407000000105000
B0454253204015S11655046EA0130601408000000105000
B0454293204074S11655096EA0131201409000000105000
B0454333204131S11655146EA0131101410000004120000
B0454373204190S11655200EA0130901409000004120000
B0454413204252S11655255EA0130101407000004120000
B0454453204314S11655319EA0129301404000004120000
B0454493204373S11655385EA0129101400000004135000
B0454533204430S11655450EA0128701396015004135000
B0454573204487S11655513EA0128501393015000135000
B0455013204547S11655575EA0128401389015000135000
B0455053204609S11655635EA0128601391015000120000
B0455093204673S11655690EA0129401393000000120000
B0455133204732S11655747EA0130001397000000120000
B0455173204794S11655796EA0129801398000000120000
B0455213204867S11655829EA0129201400015000120000
B0455253204949S11655842EA0128801401015000135000
B0455293205028S11655847EA0128501401015000135000
B0455333205109S11655847EA0128001402015000150000
B0455373205196S11655826EA0127601401000000105000
B0455413205272S11655812EA0126801398000000105000
B0455453205349S11655792EA0126001392000000120000
B0455493205425S11655765EA0125401388000004105000
B0455533205499S11655746EA0125301386000000105000
B0455573205571S11655735EA0124901384000004090000
B0456013205643S11655731EA0124301377000000075000
B0456053205713S11655735EA0123801371000000090000
B0456093205779S11655755EA0123701366000004090000
B0456133205842S11655783EA0123301361000004090000
B0456173205896S11655821EA0122601355000004090000
B0456213205947S11655869EA0121801350000004105000
B0456253205999S11655915EA0120901344000004105000
B0456293206054S11655957EA0120401338000004105000
B0456333206107S11656003EA0119701332015004120000
B0456373206154S11656059EA0118901325015004120000
B0456413206190S11656125EA0118201319015004135000
B0456453206206S11656215EA0117101312015004120000
B0456493206224S11656294EA0116401306015000135000
B0456533206237S11656376EA0115701300015004135000
B0456573206247S11656459EA0115301293015004135000
B0457013206255S11656541EA0114901288015004135000
B0457053206260S11656624EA0114201282015000135000
B0457093206267S11656708EA0113101276015000150000
B0457133206276S11656789EA0112101269015000150000
B0457173206288S11656869EA0111901263015000150000
B0457213206303S11656944EA0111901257015004150000
B0457253206314S11657020EA0111501252015000150000
B0457293206323S11657098EA0110501247015000150000
B0457333206331S11657176EA0109601241015000150000
B0457373206344S11657255EA0109201234015000150000
B0457413206372S11657332EA0108901228015004150000
B0457453206418S11657399EA0108801222015004150000
B0457493206485S11657429EA0108801219015004120000
B0457533206553S11657456EA0108401215015004120000
B0457573206624S11657478EA0109101213015000105000
B0458013206691S11657502EA0110401217015004090000
B0458053206757S11657495EA0111801221015004105000
B0458093206777S11657415EA0112201226000000105000
B0458133206736S11657356EA0111801218000004120000
B0458173206678S11657358EA0111501227000004090000
B0458213206627S11657395EA0112801235000000090000
B0458253206610S11657460EA0114201251000000075000
B0458293206653S11657506EA0115101261000000075000
B0458333206708S11657476EA0115401263000000060000
B0458373206699S11657411EA0116901273000000075000
B0458413206653S11657408EA0119101285000000075000
B0458453206632S11657462EA0119701292000000075000
B0458493206671S11657512EA0119901302000000060000
B0458533206734S11657493EA0120101312000004060000
B0458573206748S11657425EA0121401326000004075000
B0459013206710S11657380EA0122901338000000090000
B0459053206660S11657403EA0123301345000004075000
B0459093206648S11657471EA0124001357000000060000
B0459133206692S11657520EA0124301361000000045000
B0459173206756S11657498EA0124701364000004060000
B0459213206764S11657425EA0125801380000004090000
B0459253206721S11657378EA0127401389000004090000
B0459293206667S11657390EA0128501403000004060000
B0459333206643S11657449EA0129201407000004045000
B0459373206666S11657515EA0129301412000004045000
B0459413206728S11657537EA0129801419000004045000
B0459453206787S11657511EA0130401427000004060000
B0459493206790S11657438EA0131401437000004075000
B0459533206739S11657395EA0132401447000004120000
B0459573206683S11657417EA0133001448000000075000
B0500013206669S11657486EA0133601453000004045000
B0500053206708S11657545EA0133901457000000045000
B0500093206773S11657553EA0134601463000000060000
B0500133206818S11657501EA0135101469000000060000
B0500173206816S11657428EA0135701476000000060000
B0500213206765S11657389EA0136201480000000075000
B0500253206713S11657421EA0136701486000000060000
B0500293206708S11657494EA0137201493000004045000
B0500333206751S11657553EA0137401493000004045000
B0500373206818S11657581EA0136801486000004045000
B0500413206896S11657595EA0135801478000004060000
B0500453206977S11657608EA0135501477000004060000
B0500493207056S11657620EA0135801479000004060000
B0500533207135S11657628EA0136301482000004060000
B0500573207215S11657636EA0136601485000004060000
B0501013207293S11657646EA0136801487000004075000
B0501053207373S11657659EA0136601490000004075000
B0501093207455S11657677EA0136001489000004075000
B0501133207541S11657698EA0134801483000004075000
B0501173207628S11657718EA0133301477000004075000
B0501213207719S11657740EA0132301468000004075000
B0501253207811S11657763EA0131101461000004075000
B0501293207904S11657787EA0130401456000004075000
B0501333207995S11657805EA0130101455000004075000
B0501373208083S11657822EA0129801454000004075000
B0501413208169S11657836EA0129801452000004075000
B0501453208253S11657854EA0129301451000004075000
B0501493208340S11657871EA0128301448000004090000
B0501533208428S11657884EA0127801446000004090000
B0501573208512S11657896EA0127401444015004105000
B0502013208597S11657905EA0126501441015004090000
B0502053208684S11657913EA0126201438015004105000
B0502093208768S11657923EA0126501436015004105000
B0502133208849S11657935EA0126401434015000120000
B0502173208925S11657945EA0126001425000004105000
B0502213209002S11657957EA0125801420000004105000
B0502253209078S11657965EA0125201416000004120000
B0502293209156S11657966EA0124501406000004105000
B0502333209234S11657969EA0123301394000004090000
B0502373209315S11657972EA0122801383000000075000
B0502413209395S11657978EA0122801381000000090000
B0502453209474S11657980EA0122901379000004090000
B0502493209551S11657983EA0122301377000004090000
B0502533209629S11657987EA0121601374000004105000
B0502573209707S11657991EA0121501371000004105000
B0503013209780S11658004EA0121701369000004105000
B0503053209852S11658018EA0121201366000004120000
B0503093209925S11658028EA0120801362000004120000
B0503133209999S11658041EA0120701358015004120000
B0503173210073S11658054EA0120501355015004120000
B0503213210146S11658067EA0120301352015004135000
B0503253210218S11658083EA0120201349015004135000
B0503293210290S11658100EA0119701345015004135000
B0503333210362S11658115EA0119001340015004135000
B0503373210433S11658130EA0118301335015004150000
B0503413210506S11658145EA0117401330015004150000
B0503453210578S11658161EA0117001324015004150000
B0503493210645S11658183EA0116201319015000165000
B0503533210712S11658206EA0115201313015000165000
B0503573210778S11658235EA0114301306015000165000
B0504013210840S11658266EA0113601299015000165000
B0504053210904S11658299EA0112801292015000180000
B0504093210969S11658338EA0111701284015000180000
B0504133211031S11658390EA0110801276015004180000
B0504173211087S11658448EA0110301268015004195000
B0504213211137S11658511EA0109501260015004195000
B0504253211178S11658580EA0109001250015004195000
B0504293211216S11658654EA0108101241015004195000
B0504333211255S11658730EA0107301233015000195000
B0504373211298S11658806EA0106901224015000195000
B0504413211342S11658875EA0106601216015000195000
B0504453211382S11658944EA0106301209015000180000
B0504493211423S11659012EA0105301200015000150000
B0504533211470S11659087EA0104101193015004150000
B0504573211520S11659157EA0103101186015004165000
B0505013211572S11659223EA0102701179015004165000
B0505053211622S11659285EA0102401174015004165000
B0505093211670S11659348EA0102101170015004165000
B0505133211719S11659412EA0101201165015004165000
B0505173211772S11659466EA0100001144000004105000
B0505213211818S11659535EA0099301141000004105000
B0505253211860S11659610EA0098901138000004105000
B0505293211902S11659683EA0098201135000000105000
B0505333211951S11659747EA0097401128000004090000
B0505373211995S11659811EA0098301132000000105000
B0505413212034S11659872EA0098801136000000105000
B0505453212073S11659928EA0099801141000004105000
B0505493212113S11659982EA0100001144000000105000
B0505533212168S11700026EA0099101146000000090000
B0505573212227S11700067EA0099101145000000090000
B0506013212270S11700130EA0099401140000000075000
B0506053212286S11700210EA0099201139000000075000
B0506093212272S11700285EA0099101132000000060000
B0506133212235S11700350EA0098601123000000060000
B0506173212186S11700409EA0097901118000004060000
B0506213212122S11700442EA0096901112000004075000
B0506253212040S11700441EA0096301107000004075000
B0506293211961S11700445EA0096701104000000060000
B0506333211887S11700448EA0096601103000004060000
B0506373211811S11700461EA0095601098000004060000
B0506413211737S11700478EA0095501092000004045000
B0506453211663S11700494EA0095301088000000045000
B0506493211589S11700518EA0094901085000004045000
B0506533211520S11700546EA0095801089000004045000
B0506573211454S11700576EA0096601095000004045000
B0507013211390S11700606EA0097501101000004045000
B0507053211343S11700661EA0097601102000004045000
B0507093211347S11700743EA0098001108000000045000
B0507133211402S11700795EA0098501114000000045000
B0507173211473S11700784EA0099001116000000060000
B0507213211510S11700712EA0099201121000000060000
B0507253211485S11700636EA0100001130000004075000
B0507293211424S11700610EA0100901139000004090000
B0507333211373S11700649EA0101601140000004060000
B0507373211394S11700715EA0101701140000004045000
B0507413211458S11700734EA0102001150000004045000
B0507453211506S11700693EA0103201157000004045000
B0507493211502S11700619EA0103101155000004060000
B0507533211454S11700563EA0103301153000004075000
B0507573211392S11700546EA0104201159000004060000
B0508013211338S11700569EA0104601166000004060000
B0508053211350S11700649EA0104701171000004075000
B0508093211405S11700693EA0105001180000004090000
B0508133211466S11700679EA0105801188000004150000
B0508173211490S11700614EA0106001182000000165000
B0508213211455S11700539EA0105801184000000165000
B0508253211405S11700484EA0106101187000000165000
B0508293211338S11700458EA0106101192000000135000
B0508333211275S11700462EA0105801193000000150000
B0508373211217S11700494EA0105201193000000150000
B0508413211171S11700569EA0105001192000000135000
B0508453211133S11700634EA0104601193000004150000
B0508493211112S11700715EA0104601190000004120000
B0508533211090S11700792EA0105001190000000105000
B0508573211072S11700870EA0105201194000000120000
B0509013211064S11700956EA0105401193000000090000
B0509053211096S11701025EA0105601195000000075000
B0509093211158S11701061EA0104901180000000075000
B0509133211234S11701072EA0104101169000000060000
B0509173211311S11701077EA0103901166000000060000
B0509213211388S11701076EA0103901163000000060000
B0509253211463S11701072EA0104301163000000060000
B0509293211537S11701064EA0104801165000000060000
B0509333211611S11701056EA0105601166000004060000
B0509373211679S11701031EA0106601169000004075000
B0509413211700S11700961EA0105901170000004090000
B0509453211652S11700896EA0104801161000004105000
B0509493211579S11700870EA0103901154000004105000
B0509533211501S11700858EA0103701146000000105000
B0509573211419S11700858EA0104101145000000090000
B0510013211346S11700874EA0104901146000004090000
B0510053211284S11700903EA0104901146000004090000
B0510093211225S11700931EA0103801147015004090000
B0510133211251S11701121EA0102401141015004090000
B0510173211216S11701212EA0102101138015004090000
B0510213211173S11701294EA0101501135015000090000
B0510253211126S11701375EA0100701131015004090000
B0510293211077S11701450EA0100001127015004090000
B0510333211026S11701524EA0099401122015000090000
B0510373210982S11701598EA0100001122015004090000
B0510413210943S11701670EA0101101124015004090000
B0510453210911S11701741EA0101701127015004090000
B0510493210901S11701817EA0102201132015004090000
B0510533210973S11701867EA0102801141015004075000
B0510573211047S11701866EA0103601153000004060000
B0511013211080S11701805EA0103701153000004075000
B0511053211056S11701737EA0102901143000004105000
B0511093210996S11701709EA0102101142000004120000
B0511133210933S11701716EA0102101145000000225000
B0511173210874S11701754EA0102001141000000135000
B0511213210823S11701814EA0102301142000004060000
B0511253210786S11701893EA0101801147000000120000
B0511293210751S11701971EA0100501145000004090000
B0511333210716S11702060EA0098701141000004075000
B0511373210679S11702151EA0097801123000004000000
B0511413210643S11702238EA0097301113000004000000
B0511453210610S11702321EA0098101104000000225000
B0511493210576S11702404EA0099201107000000225000
B0511533210549S11702487EA0100401111000004225000
B0511573210527S11702577EA0099701114000000165000
B0512013210496S11702667EA0098301108000000165000
B0512053210459S11702759EA0098701104015000150000
B0512093210443S11702845EA0100701119000004090000
B0512133210484S11702898EA0102601145000004060000
B0512173210528S11702855EA0103301148000004060000
B0512213210510S11702789EA0103701157000000090000
B0512253210472S11702745EA0104401162000000075000
B0512293210410S11702815EA0104601171000004075000
B0512333210409S11702888EA0105101172000000090000
B0512373210458S11702929EA0104701175000004075000
B0512413210510S11702897EA0104601174000000105000
B0512453210531S11702832EA0104801172000004105000
B0512493210485S11702799EA0105201167000004075000
B0512533210454S11702864EA0104701167000004060000
B0512573210497S11702923EA0105001174000000060000
B0513013210565S11702906EA0105401175000000075000
B0513053210617S11702853EA0105801177000000165000
B0513093210647S11702786EA0106101181000000225000
B0513133210641S11702724EA0106101180000000030000
B0513173210609S11702665EA0105701161015000000000
B0513213210578S11702616EA0105601137015000060000
B0513253210418S11702816EA0106201169015000105000
B0513293210361S11702909EA0105401177015004120000
B0513333210323S11702980EA0104301168015000090000
B0513373210284S11703057EA0103701158000000150000
B0513413210242S11703128EA0103601155000000150000
B0513453210201S11703196EA0104301157000004105000
B0513493210159S11703263EA0104501160000004105000
B0513533210115S11703331EA0104501162000004075000
B0513573210072S11703401EA0104901162000004090000
B0514013210060S11703475EA0106501177000004060000
B0514053210106S11703514EA0107701191000004060000
B0514093210150S11703471EA0108601199000004105000
B0514133210133S11703404EA0109401204000004210000
B0514173210076S11703388EA0109801216000004225000
B0514213210041S11703442EA0110001215000004195000
B0514253210066S11703505EA0110101224000000135000
B0514293210125S11703510EA0111001233000000120000
B0514333210151S11703448EA0111501239000004090000
B0514373210108S11703399EA0112401248000004075000
B0514413210056S11703426EA0113301258000000060000
B0514453210055S11703491EA0113901260000000060000
B0514493210102S11703525EA0114201264000000090000
B0514533210154S11703491EA0114901269000000090000
B0514573210160S11703421EA0115601273000000105000
B0515013210127S11703361EA0116301278000000180000
B0515053210067S11703374EA0117001283000000105000
B0515093210040S11703432EA0117901289000004105000
B0515133210050S11703497EA0118001287000004150000
B0515173210095S11703543EA0118101287000004180000
B0515213210155S11703551EA0118501286000000165000
B0515253210192S11703488EA0119401297000000150000
B0515293210171S11703418EA0119701295000004165000
B0515333210105S11703401EA0119401306000004075000
B0515373210049S11703438EA0120401315000004075000
B0515413210015S11703499EA0121601323000000075000
B0515453210010S11703572EA0121601334000000075000
B0515493210073S11703612EA0121401335000000045000
B0515533210150S11703587EA0121601339000004060000
B0515573210196S11703520EA0122301352000004075000
B0516013210176S11703451EA0123301363000004105000
B0516053210119S11703422EA0123501360000004075000
B0516093210054S11703439EA0123901363000004060000
B0516133210016S11703496EA0125001371000004060000
B0516173210027S11703566EA0125101370000000060000
B0516213210084S11703604EA0124701364000000060000
B0516253210154S11703600EA0125001361000000075000
B0516293210207S11703560EA0125301358000000075000
B0516333210223S11703468EA0125801358000000075000
B0516373210193S11703396EA0125701356000000120000
B0516413210129S11703341EA0125501356000000180000
B0516453210056S11703328EA0126001360000000225000
B0516493209984S11703378EA0126801379000000210000
B0516533209946S11703452EA0127101382000004090000
B0516573209926S11703536EA0125501363000004045000
B0517013209908S11703626EA0124601360000000045000
B0517053209887S11703717EA0124801362000000030000
B0517093209860S11703807EA0124801362000004030000
B0517133209829S11703895EA0124401359000004030000
B0517173209791S11703981EA0123801356000004030000
B0517213209750S11704068EA0123001348000004030000
B0517253209708S11704155EA0121801342000004030000
B0517293209655S11704232EA0121101336000004015000
B0517333209595S11704298EA0120401330000000015000
B0517373209533S11704358EA0120201326000004030000
B0517413209469S11704414EA0120001324000004030000
B0517453209406S11704470EA0119101321000004030000
B0517493209343S11704526EA0118401317000004030000
B0517533209279S11704580EA0117501311000000045000
B0517573209210S11704625EA0116701305000000045000
B0518013209143S11704656EA0116701304000004045000
B0518053209076S11704692EA0116301302000004045000
B0518093209010S11704730EA0115301301000004045000
B0518133208941S11704768EA0115101300000000060000
B0518173208871S11704805EA0114601298000000060000
B0518213208799S11704840EA0114501297000000075000
B0518253208734S11704874EA0115001296000000060000
B0518293208678S11704911EA0116201299000000045000
B0518333208628S11704950EA0116701298000000045000
B0518373208589S11705009EA0116201291000004045000
B0518413208572S11705089EA0116101291000000030000
B0518453208560S11705168EA0116401294000004030000
B0518493208552S11705250EA0116101292000004030000
B0518533208555S11705332EA0116101291000000030000
B0518573208560S11705415EA0116601293000000045000
B0519013208573S11705493EA0117601297000000045000
B0519053208589S11705574EA0117301298000000045000
B0519093208602S11705661EA0116001296000000045000
B0519133208608S11705749EA0115201293000000045000
B0519173208615S11705836EA0114701291000000060000
B0519213208621S11705923EA0114201288000000060000
B0519253208628S11706012EA0113901285000004075000
B0519293208629S11706099EA0113901282000000075000
B0519333208636S11706185EA0114201281000004075000
B0519373208682S11706238EA0114601278000004060000
B0519413208746S11706209EA0114001263000000045000
B0519453208760S11706126EA0113101256000000075000
B0519493208714S11706058EA0113101259000004090000
B0519533208645S11706040EA0113901263000000090000
B0519573208584S11706082EA0114301263000000090000
B0520013208539S11706152EA0114601267000000090000
B0520053208506S11706225EA0114401267000000060000
B0520093208481S11706298EA0114101266000000060000
B0520133208465S11706368EA0113801264000004060000
B0520173208528S11706445EA0113301262000004045000
B0520213208619S11706415EA0112801255000000045000
B0520253208667S11706348EA0111601247000000075000
B0520293208695S11706263EA0110701242000004075000
B0520333208711S11706177EA0110401235000004060000
B0520373208720S11706092EA0110401235000004075000
B0520413208728S11706006EA0110101235015004075000
B0520453208732S11705915EA0110501234000000060000
B0520493208733S11705827EA0110901237000000060000
B0520533208733S11705741EA0110801236000000060000
B0520573208737S11705653EA0110501232000000060000
B0521013208738S11705563EA0111101230000000060000
B0521053208729S11705473EA0111901231000000060000
B0521093208707S11705386EA0112901231000000060000
B0521133208649S11705362EA0112900000015000000064
B0521173208629S11705336EV0113200000000000000128
B0521213208629S11705336EV0113200000000000000128
B0521253208629S11705336EV0113200000000000000128
B0521293208694S11705493EA0113101235030000075000
B0521333208758S11705419EA0113801236030000060000
B0521373208715S11705384EA0114801247015000075000
B0521413208693S11705440EA0115701251000000090000
B0521453208741S11705472EA0115701255015000180000
B0521493208786S11705431EA0116801277000000180000
B0521533208776S11705369EA0117401285000000030000
B0521573208724S11705350EA0118501297015004180000
B0522013208685S11705389EA0119501305015004135000
B0522053208693S11705451EA0119101305000004135000
B0522093208749S11705466EA0119001315000004120000
B0522133208786S11705418EA0120101330000004210000
B0522173208764S11705353EA0120601328000004210000
B0522213208707S11705334EA0121101331000004195000
B0522253208659S11705375EA0121801339000004120000
B0522293208651S11705441EA0121901344000004180000
B0522333208690S11705493EA0122101350000004225000
B0522373208751S11705484EA0122301355000004045000
B0522413208786S11705421EA0122601360000004015000
B0522453208771S11705349EA0123601366000004210000
B0522493208717S11705327EA0125101372000004150000
B0522533208675S11705362EA0125801376000004075000
B0522573208680S11705428EA0125301368000004045000
B0523013208736S11705464EA0125001373000004030000
B0523053208794S11705442EA0126001385000004060000
B0523093208838S11705395EA0127001394000000150000
B0523133208847S11705325EA0127401395000000180000
B0523173208841S11705238EA0127001387000004075000
B0523213208838S11705156EA0127101389000004075000
B0523253208834S11705078EA0127701389000004075000
B0523293208823S11704999EA0127701392000004060000
B0523333208807S11704913EA0127601395000004060000
B0523373208785S11704833EA0127701396000004060000
B0523413208749S11704756EA0127001397000004060000
B0523453208694S11704697EA0126701398000000075000
B0523493208634S11704649EA0126601399000004075000
B0523533208573S11704595EA0126701400000000075000
B0523573208516S11704543EA0126801401000000075000
B0524013208454S11704498EA0126501395000000060000
B0524053208391S11704449EA0125701388000004045000
B0524093208327S11704397EA0125301381000000060000
B0524133208264S11704341EA0124401375000000060000
B0524173208203S11704281EA0124001369000000075000
B0524213208149S11704232EA0123901364000000060000
B0524253208091S11704181EA0123101358000000060000
B0524293208026S11704128EA0122101352000000060000
B0524333207961S11704069EA0121901345000000075000
B0524373207900S11704014EA0122301340000000075000
B0524413207841S11703960EA0122601339000000060000
B0524453207787S11703910EA0122801341000004060000
B0524493207729S11703861EA0122601338000004060000
B0524533207670S11703813EA0122601335000004060000
B0524573207611S11703768EA0122501331000000075000
B0525013207551S11703726EA0122101328000000075000
B0525053207490S11703686EA0121801324000000090000
B0525093207428S11703646EA0121601320015000090000
B0525133207365S11703604EA0121101316015000090000
B0525173207298S11703568EA0121601312015000105000
B0525213207232S11703534EA0122301313015000090000
B0525253207165S11703509EA0123501313015004105000
B0525293207105S11703518EA0125201317015000105000
B0525333207059S11703535EA0125901319015004075000
B0525373207047S11703546EA0126101325015000060000
B0525413207104S11703527EA0126501329015000060000
B0525453207156S11703534EA0126901327015000060000
B0525493207118S11703478EA0127301327015000105000
B0525533207077S11703440EA0127001326015004210000
B0525573207031S11703426EA0126301320030004045000
B0526013206987S11703466EA0125701306030004225000
B0526053206960S11703573EA0126001308030000000000
B0526093207004S11703660EA0126801317030004090000
B0526133207055S11703685EA0127000000030004000064
B0526173207144S11703634EA0127901323030004225000
B0526213207104S11703520EA0129601373015004225000
B0526253207033S11703501EA0130401406015000195000
B0526293207007S11703562EA0130901415015000225000
B0526333207048S11703611EA0131201426015000165000
B0526373207099S11703566EA0132201433000000150000
B0526413207090S11703491EA0133401442000000150000
B0526453207033S11703458EA0134301451000000105000
B0526493206985S11703492EA0135001455000000105000
B0526533206975S11703553EA0135401460000000105000
B0526573207004S11703603EA0136001467000004165000
B0527013207051S11703627EA0136601472000000210000
B0527053207103S11703608EA0137801484000000015000
B0527093207139S11703561EA0138901488000000135000
B0527133207125S11703487EA0139201487000000000000
B0527173207047S11703458EA0139601505000004060000
B0527213207004S11703500EA0140301517000000120000
B0527253207014S11703565EA0140301521000000090000
B0527293207065S11703595EA0140801526000000090000
B0527333207118S11703601EA0142201531000000105000
B0527373207156S11703526EA0143001537000004090000
B0527413207142S11703443EA0143401544000000105000
B0527453207102S11703383EA0144101548000000150000
B0527493207040S11703364EA0144901557000004165000
B0527533206987S11703373EA0145501561000000165000
B0527573206947S11703404EA0145301565000000165000
B0528013206916S11703443EA0144901568015004150000
B0528053206910S11703487EA0144501571015000120000
B0528093206929S11703514EA0144201575015000105000
B0528133206970S11703536EA0145301580015000105000
B0528173207060S11703403EA0146201588030004135000
B0528213207059S11703336EA0146601591030000165000
B0528253207018S11703287EA0146301592030000135000
B0528293206996S11703279EA0146201589030004120000
B0528333206946S11703275EA0146401589030004105000
B0528373206890S11703313EA0146201589030004075000
B0528413206851S11703354EA0145901589030000075000
B0528453206818S11703392EA0145601589045000075000
B0528493206788S11703429EA0144901588045000075000
B0528533206788S11703429EV0144200000000000000128
B0528573206788S11703601EA0143901587060000075000
B0529013206774S11703674EA0143101586060000075000
B0529053206803S11703811EA0142701585060004075000
B0529093206771S11703869EA0143001584045004090000
B0529133206735S11703920EA0143401585045004090000
B0529173206695S11703971EA0142901585030004090000
B0529213206652S11704025EA0142201585030000105000
B0529253206611S11704085EA0141601585030000105000
B0529293206575S11704149EA0141501584030000105000
B0529333206541S11704215EA0140701583030000120000
B0529373206511S11704285EA0140401581030004120000
B0529413206484S11704359EA0139601580030000135000
B0529453206461S11704436EA0138801577030000135000
B0529493206439S11704513EA0138301575030000135000
B0529533206416S11704588EA0137901572030004135000
B0529573206388S11704660EA0137901571030004135000
B0530013206353S11704716EA0137601552015004105000
B0530053206312S11704781EA0137301546015004075000
B0530093206270S11704842EA0137001541015004090000
B0530133206216S11704896EA0136501536015000090000
B0530173206169S11704952EA0135701508000004060000
B0530213206116S11704999EA0134801490000000045000
B0530253206060S11705041EA0134201478000004030000
B0530293206006S11705082EA0133801469000004015000
B0530333205951S11705126EA0133101458000004015000
B0530373205894S11705173EA0132601452000004015000
B0530413205838S11705219EA0132201447000004015000
B0530453205779S11705256EA0131901443000004015000
B0530493205714S11705284EA0132001443000004015000
B0530533205646S11705302EA0132001443000004015000
B0530573205578S11705321EA0132501443000004030000
B0531013205512S11705345EA0132601442000004030000
B0531053205445S11705371EA0132201440000004030000
B0531093205380S11705403EA0132101439000004045000
B0531133205317S11705437EA0131801438000004045000
B0531173205252S11705473EA0130801435000004060000
B0531213205187S11705510EA0130401432000004060000
B0531253205126S11705551EA0130501429000004060000
B0531293205064S11705592EA0130601429000004060000
B0531333205002S11705628EA0130301428000004060000
B0531373204940S11705666EA0130001426000004060000
B0531413204875S11705702EA0129701423000000060000
B0531453204807S11705737EA0129301417000004045000
B0531493204737S11705772EA0129301416000000045000
B0531533204667S11705802EA0129801415000000060000
B0531573204596S11705832EA0130001416000000060000
B0532013204525S11705860EA0130301416000000060000
B0532053204453S11705884EA0130801417000000075000
B0532093204379S11705899EA0131701427000004060000
B0532133204308S11705917EA0131001416000004030000
B0532173204234S11705941EA0129301400000004030000
B0532213204156S11705967EA0127901386000004015000
B0532253204075S11705995EA0127101382000000015000
B0532293203997S11706023EA0126701377000000015000
B0532333203919S11706052EA0126201373000000015000
B0532373203842S11706082EA0125901371000000015000
B0532413203767S11706110EA0125401366000000015000
B0532453203692S11706136EA0125101363000004015000
B0532493203616S11706160EA0124501355000004015000
B0532533203542S11706179EA0123901352000004015000
B0532573203472S11706207EA0124501361000004015000
B0533013203424S11706252EA0126101373000004015000
B0533053203438S11706315EA0127001376000004015000
B0533093203494S11706321EA0126501372000004015000
B0533133203532S11706266EA0126201374000004030000
B0533173203530S11706195EA0126301374000004045000
B0533213203502S11706130EA0125901375000004030000
B0533253203447S11706087EA0125501372000004060000
B0533293203378S11706071EA0125101366000004045000
B0533333203307S11706082EA0125101366000004045000
B0533373203237S11706107EA0124901366000000045000
B0533413203169S11706140EA0124701365000000030000
B0533453203100S11706173EA0123901360000000030000
B0533493203033S11706209EA0123201349000000030000
B0533533202961S11706251EA0121801337000004015000
B0533573202888S11706290EA0121101331000004015000
B0534013202814S11706328EA0120301324000004015000
B0534053202740S11706361EA0119401314000000015000
B0534093202666S11706396EA0118301304000000015000
B0534133202589S11706434EA0117401298000000030000
B0534173202513S11706471EA0116501291000000030000
B0534213202441S11706512EA0116001285000004030000
B0534253202368S11706556EA0115301279000004030000
B0534293202298S11706603EA0114401273000004030000
B0534333202229S11706650EA0113801267000004030000
B0534373202162S11706694EA0113401261000000030000
B0534413202094S11706738EA0112901257000004030000
B0534453202028S11706779EA0112801256000004015000
B0534493201961S11706812EA0112901257000000030000
B0534533201895S11706845EA0112801255000000030000
B0534573201829S11706879EA0113001256000000030000
B0535013201782S11706932EA0113801259000004030000
B0535053201783S11707009EA0113601255000000030000
B0535093201822S11707076EA0113201250000000045000
B0535133201876S11707127EA0113301247000000045000
B0535173201960S11707082EA0113701245000000045000
B0535213202013S11707052EA0112901242015000045000
B0535253202042S11707011EA0112601239015004045000
B0535293201915S11706812EA0112601236015004045000
B0535333201860S11706720EA0111901232015004045000
B0535373201820S11706642EA0110801227015000045000
B0535413201772S11706542EA0111601226000000045000
B0535453201717S11706494EA0112201226000004045000
B0535493201651S11706499EA0112201222000004090000
B0535533201592S11706526EA0112201224000000180000
B0535573201548S11706560EA0112801238015004045000
B0536013201535S11706611EA0113301263015004060000
B0536053201522S11706628EV0113500000000004000128
B0536093201716S11706489EA0113001235030004105000
B0536133201710S11706456EA0112301239015000180000
B0536173201651S11706433EA0111401234000000105000
B0536213201590S11706448EA0110401227000004075000
B0536253201534S11706493EA0109901220000004060000
B0536293201486S11706554EA0110901225000004045000
B0536333201439S11706611EA0111301227000004045000
B0536373201404S11706668EA0111601229000004045000
B0536413201387S11706725EA0112201233000004045000
B0536453201391S11706636EA0112701236015004045000
B0536493201345S11706591EA0113201239015004060000
B0536533201317S11706615EA0113101240015004105000
B0536573201405S11706702EA0113301241015000105000
B0537013201474S11706734EA0113901244015000120000
B0537053201535S11706720EA0114301252015004120000
B0537093201587S11706686EA0114901258015004210000
B0537133201625S11706645EA0115701257015004075000
B0537173201649S11706591EA0115601239015004015000
B0537213201662S11706569EV0116100000000004000128
B0537253201662S11706569EV0116400000000000000128
B0537293201662S11706569EV0116600000000004000128
B0537333201584S11706641EA0117101283045004075000
B0537373201588S11706582EA0117901283045000210000
B0537413201573S11706520EA0118701278045000030000
B0537453201430S11706647EA0119001305045000060000
B0537493201361S11706705EA0119001316045000165000
B0537533201327S11706736EV0119000000000000000128
B0537573201327S11706736EV0119000000000000000128
B0538013201327S11706736EV0119600000000004000128
B0538053201475S11706614EA0120001309045000105000
B0538093201470S11706689EA0120201322030000045000
B0538133201518S11706737EA0121101332015000210000
B0538173201570S11706729EA0121701335000000135000
B0538213201600S11706671EA0121801336000000105000
B0538253201603S11706593EA0121801338000004120000
B0538293201583S11706515EA0123101342000000120000
B0538333201544S11706460EA0124001346000000105000
B0538373201474S11706493EA0123901344015000075000
B0538413201445S11706602EA0123401343015000060000
B0538453201492S11706659EA0124301349015000105000
B0538493201548S11706651EA0125301363015004000000
B0538533201547S11706585EA0125401353015000210000
B0538573201487S11706565EA0125801350015000180000
B0539013201444S11706619EA0126001349015000150000
B0539053201447S11706692EA0126401350015000210000
B0539093201475S11706754EA0127001353015000090000
B0539133201510S11706798EA0127301357015004120000
B0539173201565S11706803EA0127201356015004015000
B0539213201631S11706762EA0126701348015004195000
B0539253201673S11706658EA0126601341015000045000
B0539293201692S11706552EA0127401341015000180000
B0539333201699S11706458EA0127701377015000045000
B0539373201688S11706364EA0126501395015000195000
B0539413201701S11706272EA0124601381000000150000
B0539453201712S11706183EA0124201373000000120000
B0539493201710S11706094EA0123501366000000090000
B0539533201690S11706005EA0123201359000000060000
B0539573201657S11705917EA0122901350000000045000
B0540013201623S11705832EA0123301358000000030000
B0540053201590S11705750EA0123501348000000030000
B0540093201558S11705661EA0122601338000000030000
B0540133201527S11705570EA0123101348000000030000
B0540173201484S11705493EA0124601367000000015000
B0540213201437S11705428EA0125301371000000015000
B0540253201397S11705358EA0125201365000000015000
B0540293201374S11705273EA0124701360000000015000
B0540333201361S11705184EA0124001354000000015000
B0540373201356S11705087EA0123801353000000015000
B0540413201358S11704992EA0124301359000000015000
B0540453201345S11704903EA0124701358000004015000
B0540493201341S11704810EA0124401360000004015000
B0540533201349S11704717EA0124501358000004015000
B0540573201361S11704625EA0124101353000000015000
B0541013201371S11704535EA0123801351000000015000
B0541053201384S11704448EA0124001353000000015000
B0541093201398S11704362EA0124001349000000015000
B0541133201417S11704272EA0123601349000000015000
B0541173201432S11704180EA0123401348000000015000
B0541213201445S11704092EA0123601353000000015000
B0541253201458S11704008EA0123201344000000015000
B0541293201471S11703920EA0121501324000000015000
B0541333201489S11703828EA0120101316000000015000
B0541373201499S11703735EA0120001319000000015000
B0541413201500S11703646EA0120101320000000000000
B0541453201505S11703555EA0119801316000000000000
B0541493201519S11703465EA0119701315000000000000
B0541533201539S11703374EA0119501310000000000000
B0541573201561S11703280EA0118401296000000000000
B0542013201580S11703184EA0116701280000000000000
B0542053201597S11703088EA0115201269000004000000
B0542093201614S11702994EA0114901269000004000000
B0542133201635S11702906EA0114701262000004000000
B0542173201652S11702818EA0115001273000004015000
B0542213201660S11702729EA0116101285000000000000
B0542253201665S11702642EA0117101288000004000000
B0542293201669S11702554EA0117101287000004000000
B0542333201686S11702467EA0116901286000004000000
B0542373201716S11702382EA0116601282000004000000
B0542413201756S11702303EA0116501284000004000000
B0542453201800S11702227EA0116501282000004000000
B0542493201846S11702156EA0116301283000004000000
B0542533201898S11702095EA0116401281000004000000
B0542573201955S11702039EA0115701273000000000000
B0543013202019S11701984EA0114801265000004000000
B0543053202087S11701934EA0114201262000004000000
B0543093202156S11701891EA0114701272000004000000
B0543133202219S11701845EA0115301275000004000000
B0543173202280S11701801EA0115001271000004000000
B0543213202342S11701761EA0114601265000004000000
B0543253202405S11701719EA0114001260000004000000
B0543293202470S11701679EA0113701256000004000000
B0543333202528S11701631EA0113201251000004000000
B0543373202585S11701579EA0112401243000000000000
B0543413202644S11701527EA0111801237000000000000
B0543453202706S11701475EA0111301233000000000000
B0543493202763S11701415EA0111201232000000000000
B0543533202809S11701343EA0111201232000000000000
B0543573202848S11701267EA0111101231000000000000
B0544013202884S11701193EA0111301234000000000000
B0544053202936S11701126EA0110401223000000000000
B0544093202999S11701072EA0109501217000000000000
B0544133203068S11701029EA0109401219000004000000
B0544173203139S11700999EA0109201213000004000000
B0544213203213S11700978EA0108201202000000000000
B0544253203289S11700952EA0107601197000000000000
B0544293203360S11700910EA0106701189000004015000
B0544333203425S11700856EA0105701181000004015000
B0544373203486S11700795EA0105101175000000015000
B0544413203542S11700731EA0104401166000000015000
B0544453203598S11700665EA0103401156000000015000
B0544493203655S11700596EA0102001148000000015000
B0544533203715S11700524EA0100801140000000030000
B0544573203775S11700452EA0100201132000004030000
B0545013203829S11700381EA0099801125000000030000
B0545053203883S11700311EA0099601118000000045000
B0545093203933S11700242EA0099401114000000045000
B0545133203984S11700176EA0099001109000000045000
B0545173204036S11700110EA0098401105000000060000
B0545213204089S11700046EA0097801100000000060000
B0545253204143S11659980EA0097001095000000060000
B0545293204196S11659912EA0096201090000000075000
B0545333204243S11659843EA0095801084000000060000
B0545373204287S11659773EA0095101078000000060000
B0545413204338S11659704EA0094101072000004060000
B0545453204394S11659642EA0093101066000000075000
B0545493204451S11659587EA0092401060015004075000
B0545533204541S11659571EA0091601053015000075000
B0545573204628S11659557EA0091101047015000090000
B0546013204700S11659534EA0091401041015000075000
B0546053204769S11659514EA0091701039015000090000
B0546093204838S11659497EA0091501037000000045000
B0546133204907S11659477EA0091501036000000045000
B0546173204973S11659449EA0092301045000004030000
B0546213205027S11659404EA0093701055000004030000
B0546253205061S11659343EA0093801056000004030000
B0546293205019S11659256EA0093601053000000030000
B0546333205009S11659192EA0094301054000004030000
B0546373204980S11659163EA0094901056015000030000
B0546413204929S11659443EA0095601060015000030000
B0546453205019S11659466EA0096501069015000045000
B0546493205053S11659401EA0097201073015000075000
B0546533205014S11659349EA0097701083015000165000
B0546573204958S11659343EA0098901098015000180000
B0547013204901S11659352EA0099301103015000045000
B0547053204962S11659458EA0099801111015000225000
B0547093205007S11659487EA0100501118015004090000
B0547133205066S11659417EA0100601124015000015000
B0547173205036S11659339EA0100901132015000195000
B0547213204976S11659326EA0101801136000000120000
B0547253204938S11659374EA0102401137000000180000
B0547293204951S11659439EA0102801145015004000000
B0547333204999S11659470EA0104001154015000060000
B0547373205050S11659458EA0104301159015004225000
B0547413205059S11659361EA0104501164015000180000
B0547453205005S11659321EA0104601170000004060000
B0547493204953S11659356EA0104801176000004045000
B0547533204947S11659425EA0105701184000004045000
B0547573204990S11659466EA0106601194000000030000
B0548013205044S11659435EA0107301196000000030000
B0548053205044S11659358EA0107501198000000030000
B0548093204992S11659309EA0108001200000004030000
B0548133204933S11659334EA0108501211000000030000
B0548173204923S11659399EA0109501215000000015000
B0548213204967S11659447EA0109801219000000015000
B0548253205029S11659445EA0110801232000000015000
B0548293205061S11659383EA0112001239000000015000
B0548333205027S11659319EA0112301241000000015000
B0548373204966S11659315EA0112701244000000075000
B0548413204910S11659349EA0113501254000000180000
B0548453204908S11659413EA0114601269000004165000
B0548493205006S11659443EA0115401271000000135000
B0548533205045S11659378EA0115501269000004105000
B0548573205016S11659304EA0116101279000000060000
B0549013204953S11659285EA0116801284000000060000
B0549053204903S11659327EA0117501292000000060000
B0549093204901S11659396EA0118101297000000060000
B0549133204944S11659444EA0118701304000000060000
B0549173205005S11659449EA0119401311000000060000
B0549213205051S11659386EA0119101311000000105000
B0549253205075S11659291EA0118801311000000105000
B0549293205090S11659192EA0118601301000000045000
B0549333205105S11659092EA0117601295000004045000
B0549373205118S11658988EA0116501288000004045000
B0549413205129S11658882EA0115601278000004030000
B0549453205142S11658780EA0115101274000004030000
B0549493205159S11658682EA0115001274000000030000
B0549533205176S11658586EA0114401273000000045000
B0549573205196S11658487EA0113701271000000045000
B0550013205217S11658390EA0113801270000000045000
B0550053205237S11658296EA0114201270000000045000
B0550093205258S11658208EA0114001270000000045000
B0550133205282S11658119EA0113301269000004060000
B0550173205305S11658028EA0112001266000004060000
B0550213205324S11657935EA0111001262000004060000
B0550253205341S11657837EA0110401258000004075000
B0550293205347S11657738EA0110101255000004075000
B0550333205337S11657641EA0110401247000004060000
B0550373205331S11657553EA0112301246000004045000
B0550413205308S11657478EA0113901253000004045000
B0550453205270S11657424EA0115001261000000045000
B0550493205214S11657475EA0114801262000000045000
B0550533205204S11657564EA0114201259000000030000
B0550573205250S11657619EA0114201261000000030000
B0551013205311S11657625EA0114601267000000030000
B0551053205369S11657598EA0115001271000004045000
B0551093205409S11657546EA0115901276000004045000
B0551133205389S11657476EA0116401281000000060000
B0551173205345S11657421EA0116901287000000075000
B0551213205284S11657395EA0117401292000000090000
B0551253205227S11657412EA0116901296000000060000
B0551293205198S11657469EA0116401296015000045000
B0551333205194S11657516EA0116601297015000045000
B0551373205217S11657559EA0117301299015000045000
B0551413205292S11657559EA0118301301015000045000
B0551453205335S11657560EA0118701304030004045000
B0551493205354S11657562EV0119700000000000000128
B0551533205354S11657562EV0120700000000000000128
B0551573205423S11657567EA0120601312045000045000
B0552013205430S11657569EV0120900000000000000128
B0552053205522S11657569EA0122701319015000045000
B0552093205518S11657490EA0124301329015004060000
B0552133205469S11657459EA0124701326015004090000
B0552173205410S11657495EA0124701335000004075000
B0552213205388S11657558EA0125501352000004075000
B0552253205395S11657615EA0126301364000004165000
B0552293205427S11657664EA0126801374015004075000
B0552333205480S11657699EA0127701390015004180000
B0552373205564S11657660EA0128901409015000225000
B0552413205625S11657593EA0129901415000000090000
B0552453205666S11657540EA0130701422000000060000
B0552493205687S11657475EA0131301424000000045000
B0552533205669S11657408EA0131201425000004030000
B0552573205614S11657381EA0130501416000004030000
B0553013205551S11657400EA0130101417000004030000
B0553053205495S11657439EA0130501422000004015000
B0553093205447S11657495EA0130801427000004015000
B0553133205432S11657568EA0131701435000000015000
B0553173205473S11657631EA0132601443000000015000
B0553213205542S11657650EA0133601450000004030000
B0553253205588S11657601EA0135301470000004045000
B0553293205575S11657534EA0136601481000000030000
B0553333205522S11657506EA0137001483000004030000
B0553373205464S11657534EA0137001484000004060000
B0553413205438S11657603EA0137901496000000060000
B0553453205465S11657668EA0138801508000004060000
B0553493205527S11657689EA0139201512000004075000
B0553533205600S11657663EA0139401518000004045000
B0553573205666S11657621EA0140601524000004045000
B0554013205729S11657573EA0141101526000004030000
B0554053205792S11657527EA0140801522000004030000
B0554093205851S11657473EA0139901519000004030000
B0554133205903S11657410EA0139101516000004030000
B0554173205933S11657329EA0138601511000000030000
B0554213205973S11657257EA0138001505000004030000
B0554253206024S11657204EA0137601501000000030000
B0554293206082S11657163EA0137101497000000030000
B0554333206129S11657108EA0137001496000000030000
B0554373206156S11657034EA0137201497000000030000
B0554413206182S11656958EA0137101498000000030000
B0554453206203S11656875EA0137001498000000045000
B0554493206207S11656782EA0137301497000000030000
B0554533206210S11656692EA0137501497000000030000
B0554573206210S11656601EA0137601496000004030000
B0555013206208S11656509EA0137901496000004030000
B0555053206203S11656414EA0138301497000000030000
B0555093206176S11656329EA0138701499000000030000
B0555133206125S11656282EA0138301502000004030000
B0555173206055S11656293EA0137901501015000030000
B0555213205994S11656394EA0138401504015000030000
B0555253206033S11656476EA0136501472015000030000
B0555293206043S11656384EA0134601470000000030000
B0555333205976S11656332EA0135401480000004045000
B0555373205896S11656315EA0135101484000004045000
B0555413205816S11656293EA0133101483000004045000
B0555453205743S11656260EA0129801486000004060000
B0555493205683S11656201EA0124501487000004060000
B0555533205625S11656129EA0120101490000004060000
B0555573205648S11655895EA0116701488015004060000
B0556013205614S11655751EA0115401487015004120000
B0556053205583S11655606EA0114401481015004195000
B0556093205556S11655462EA0113401476015004225000
B0556133205523S11655339EA0112501441000004225000
B0556173205492S11655218EA0112201415000004195000
B0556213205471S11655096EA0111801404000004195000
B0556253205454S11654977EA0111201390000004180000
B0556293205440S11654863EA0110901374000004165000
B0556333205431S11654751EA0110101358000004165000
B0556373205427S11654638EA0109401341000004150000
B0556413205431S11654524EA0108401324000004150000
B0556453205435S11654408EA0107501310000000135000
B0556493205443S11654290EA0106201298000000135000
B0556533205451S11654174EA0105601285000000135000
B0556573205464S11654061EA0105601253000000105000
B0557013205473S11653957EA0106101244000000075000
B0557053205474S11653862EA0106901227000000060000
B0557093205477S11653772EA0107501219000004030000
B0557133205474S11653688EA0107901219000004030000
B0557173205486S11653607EA0108601220000004030000
B0557213205526S11653543EA0109201218000000015000
B0557253205586S11653520EA0109601218000000015000
B0557293205649S11653525EA0109401216000000030000
B0557333205716S11653556EA0108801212000000030000
B0557373205786S11653573EA0108601213000000015000
B0557413205854S11653580EA0108701216000000015000
B0557453205921S11653580EA0108501212000000015000
B0557493205989S11653568EA0107501202000000015000
B0557533206063S11653568EA0106601195000000015000
B0557573206134S11653569EA0106701198000000015000
B0558013206206S11653562EA0106801198000000015000
B0558053206277S11653551EA0106601195000000015000
B0558093206344S11653521EA0107501201000000030000
B0558133206366S11653450EA0109701227000004030000
B0558173206329S11653399EA0111501246000004090000
B0558213206276S11653426EA0112001246000000090000
B0558253206283S11653493EA0112801250000004060000
B0558293206337S11653517EA0114001259000004060000
B0558333206383S11653472EA0115001266000004060000
B0558373206363S11653406EA0115801277000004105000
B0558413206305S11653403EA0117301297000004075000
B0558453206280S11653461EA0118101304000004075000
B0558493206311S11653517EA0119001312000004075000
B0558533206368S11653515EA0120201323000004135000
B0558573206393S11653450EA0120601325000004090000
B0559013206355S11653393EA0121601341000004075000
B0559053206301S11653407EA0123101346000004075000
B0559093206294S11653478EA0124301358000004060000
B0559133206346S11653513EA0125601370000004060000
B0559173206397S11653473EA0126401376000000060000
B0559213206400S11653398EA0126801381000000060000
B0559253206351S11653344EA0127601390000000045000
B0559293206290S11653367EA0129101397000000045000
B0559333206280S11653445EA0129701403000000045000
B0559373206333S11653499EA0130201411000004045000
B0559413206402S11653487EA0131201423000004045000
B0559453206432S11653417EA0131901426000004060000
B0559493206396S11653344EA0132001426000004060000
B0559533206322S11653339EA0133301451000004030000
B0559573206283S11653400EA0135701467000004045000
B0600013206305S11653469EA0137601482000004030000
B0600053206366S11653476EA0138501488000004030000
B0600093206400S11653409EA0138701488000004045000
B0600133206366S11653343EA0139301498000004090000
B0600173206299S11653354EA0140701517000004030000
B0600213206276S11653425EA0142001532000004030000
B0600253206309S11653498EA0142701537000004030000
B0600293206379S11653545EA0140901514000004030000
B0600333206466S11653577EA0139001499000004015000
B0600373206557S11653602EA0137801485000000015000
B0600413206654S11653621EA0136701477000000015000
B0600453206752S11653638EA0135701466000000015000
B0600493206852S11653658EA0135001454000000015000
B0600533206951S11653679EA0133601441000000015000
B0600573207047S11653706EA0132801436000000015000
B0601013207137S11653737EA0132401432000004015000
B0601053207224S11653767EA0132201432000004015000
B0601093207308S11653789EA0132701439000004015000
B0601133207386S11653806EA0132901442000004015000
B0601173207464S11653825EA0132801440000000015000
B0601213207542S11653850EA0132401434000000015000
B0601253207616S11653890EA0131901428000000015000
B0601293207685S11653944EA0131001422000004015000
B0601333207746S11654009EA0130301416000004015000
B0601373207800S11654082EA0129801411000000015000
B0601413207846S11654162EA0129201406000004015000
B0601453207887S11654248EA0128001400000004015000
B0601493207923S11654342EA0126601393000004030000
B0601533207962S11654434EA0125801386000004030000
B0601573208001S11654522EA0125301385000000030000
B0602013208036S11654611EA0125001385000004030000
B0602053208070S11654698EA0124501384000000045000
B0602093208104S11654781EA0124401384000004045000
B0602133208135S11654859EA0124701387000004045000
B0602173208166S11654933EA0125301391000000060000
B0602213208200S11655006EA0126101398000000060000
B0602253208239S11655071EA0127701404000000060000
B0602293208294S11655073EA0129501419000000060000
B0602333208307S11655007EA0129801418000000060000
B0602373208259S11654958EA0129401406000000075000
B0602413208204S11654995EA0128701408000004090000
B0602453208184S11655067EA0129001414000004075000
B0602493208196S11655141EA0128901422000004090000
B0602533208256S11655211EA0129401429000004075000
B0602573208305S11655242EA0130901435000000060000
B0603013208348S11655265EA0132201442015000060000
B0603053208382S11655287EA0131501449015000045000
B0603093208382S11655293EA0131901454015004060000
B0603133208439S11655291EA0132401462015000135000
B0603173208499S11655261EA0130701458015000150000
B0603213208568S11655187EA0128401417015000000000
B0603253208636S11655114EA0127001423015000135000
B0603293208706S11655045EA0125401414015000135000
B0603333208768S11654967EA0124701406030000120000
B0603373208827S11654891EA0125901405030000120000
B0603413208871S11654815EA0125801402030004105000
B0603453208903S11654742EA0125501395015004090000
B0603493208985S11654735EA0126601395015004075000
B0603533209085S11654761EA0127401399015004060000
B0603573209171S11654778EA0128101404015000060000
B0604013209256S11654802EA0128401406000000060000
B0604053209340S11654829EA0128001407000000060000
B0604093209426S11654863EA0127501406000000060000
B0604133209509S11654898EA0127101406015000075000
B0604173209591S11654936EA0126401405015000075000
B0604213209672S11654975EA0125701397000000060000
B0604253209751S11655014EA0125001394000000075000
B0604293209830S11655055EA0124001389015000075000
B0604333209908S11655094EA0123601386015000075000
B0604373209981S11655135EA0123001382015000075000
B0604413210051S11655177EA0122101377015000090000
B0604453210121S11655223EA0121001373015000090000
B0604493210190S11655275EA0121101369015000105000
B0604533210250S11655333EA0121901365015004105000
B0604573210305S11655391EA0122201362015000105000
B0605013210348S11655454EA0121601356015000105000
B0605053210392S11655531EA0120501350015000105000
B0605093210419S11655621EA0119901344015000105000
B0605133210430S11655723EA0119801338015000090000
B0605173210432S11655822EA0119901334015000090000
B0605213210420S11655918EA0120001330015000075000
B0605253210405S11656011EA0118801327015000075000
B0605293210378S11656103EA0117101323015004090000
B0605333210342S11656197EA0115901319015004090000
B0605373210305S11656289EA0114701312015004090000
B0605413210258S11656377EA0114001306015004090000
B0605453210207S11656462EA0114301291015004075000
B0605493210168S11656546EA0114001272000004045000
B0605533210129S11656635EA0112601260000004045000
B0605573210093S11656722EA0112001251000000030000
B0606013210068S11656812EA0111501239000004015000
B0606053210047S11656905EA0110401227000004015000
B0606093210020S11657003EA0109301218000000015000
B0606133209978S11657092EA0108701212000004015000
B0606173209926S11657173EA0108201208000000015000
B0606213209873S11657246EA0108601210000000015000
B0606253209822S11657320EA0108101198000000015000
B0606293209770S11657397EA0106801187000004015000
B0606333209715S11657471EA0105901182000000015000
B0606373209660S11657542EA0105601180000000015000
B0606413209611S11657614EA0105601179000000015000
B0606453209557S11657683EA0105401173000000015000
B0606493209510S11657758EA0105001170000000015000
B0606533209470S11657840EA0104701170000004015000
B0606573209431S11657917EA0104701171000000015000
B0607013209397S11657992EA0104901172000004015000
B0607053209369S11658069EA0104501169000004030000
B0607093209345S11658147EA0105001170000000030000
B0607133209319S11658221EA0105701175000000030000
B0607173209292S11658299EA0105101177000000030000
B0607213209261S11658374EA0105301177000004030000
B0607253209247S11658453EA0105301175000000015000
B0607293209243S11658537EA0104801170000004030000
B0607333209282S11658613EA0104201159000000030000
B0607373209315S11658697EA0102801144000000015000
B0607413209339S11658788EA0101601139000000030000
B0607453209357S11658880EA0100701133000004030000
B0607493209370S11658971EA0099701127000000045000
B0607533209379S11659062EA0099001121000000045000
B0607573209384S11659154EA0097901114000004060000
B0608013209387S11659246EA0096701108000000060000
B0608053209384S11659339EA0096201101000000060000
B0608093209379S11659426EA0096201095015000075000
B0608133209371S11659512EA0096201090015000075000
B0608173209371S11659596EA0096201085015000075000
B0608213209377S11659675EA0096601082015000075000
B0608253209386S11659753EA0096701079015004090000
B0608293209409S11659825EA0097101077015000090000
B0608333209438S11659889EA0098301077015000090000
B0608373209479S11659937EA0098901077015004090000
B0608413209539S11659959EA0099501078015000090000
B0608453209518S11659812EA0099501076015000090000
B0608493209458S11659790EA0098901070015000090000
B0608533209416S11659852EA0099501067015004075000
B0608573209426S11659937EA0099801072015000075000
B0609013209462S11659999EA0099701074015004060000
B0609053209510S11700062EA0099701077015004075000
B0609093209569S11700108EA0098701084000004045000
B0609133209622S11700160EA0097601083000000045000
B0609173209673S11700214EA0097101083000000045000
B0609213209724S11700266EA0096401081000000045000
B0609253209774S11700320EA0095601078000000045000
B0609293209820S11700381EA0095701081000000045000
B0609333209864S11700441EA0095901086000004045000
B0609373209907S11700500EA0096101089000000045000
B0609413209951S11700557EA0096101092000000045000
B0609453209998S11700609EA0096301094000000045000
B0609493210051S11700653EA0097201098000000045000
B0609533210105S11700623EA0098301107000000045000
B0609573210089S11700556EA0098501101000000045000
B0610013210029S11700552EA0097801098000000030000
B0610053209993S11700610EA0097701099000000045000
B0610093210007S11700670EA0098701102000000060000
B0610133210060S11700712EA0099101105000000150000
B0610173210119S11700734EA0099501112000000195000
B0610213210158S11700710EA0099401128015000045000
B0610253210029S11700522EA0099101118015000225000
B0610293209965S11700584EA0099201113015000195000
B0610333209923S11700652EA0099801117015000060000
B0610373209906S11700706EA0100201119015000060000
B0610413210006S11700764EA0100001155015000030000
B0610453210089S11700648EA0100001116015000165000
B0610493210040S11700589EA0101101139000000135000
B0610533210003S11700636EA0102301151000000195000
B0610573210043S11700692EA0102801154000000150000
B0611013210103S11700670EA0103401161000000150000
B0611053210115S11700608EA0103901166015004150000
B0611093210054S11700574EA0103901167015004225000
B0611133209991S11700597EA0104401173015000150000
B0611173210001S11700670EA0105101184015004150000
B0611213210050S11700721EA0105101183015000195000
B0611253210110S11700760EA0105301184015000090000
B0611293210171S11700796EA0105801188015000075000
B0611333210236S11700823EA0105501190015000225000
B0611373210306S11700856EA0105101182015000150000
B0611413210378S11700887EA0105201179000000120000
B0611453210449S11700914EA0105701181000000060000
B0611493210517S11700927EA0107501189000000060000
B0611533210558S11700869EA0109001196000000045000
B0611573210518S11700806EA0109601205000000045000
B0612013210454S11700827EA0109701205000000030000
B0612053210435S11700907EA0109701212000000030000
B0612093210469S11700974EA0111101231000000030000
B0612133210527S11700968EA0113201250000004030000
B0612173210539S11700899EA0114201261000004045000
B0612213210488S11700861EA0115301272000000045000
B0612253210444S11700900EA0116301274000000045000
B0612293210463S11700964EA0116501281000000030000
B0612333210521S11700977EA0117701291000000045000
B0612373210573S11700951EA0118801295000000045000
B0612413210596S11700888EA0119401302000000045000
B0612453210548S11700838EA0120001311000000045000
B0612493210504S11700810EA0120501318015000045000
B0612533210563S11700983EA0121601321015000060000
B0612573210601S11700947EA0122401324015000090000
B0613013210599S11700870EA0123101330015000165000
B0613053210539S11700840EA0123901336015000000000
B0613093210497S11700888EA0124701346015000045000
B0613133210532S11700946EA0125201363000004120000
B0613173210584S11700897EA0126001378000004090000
B0613213210570S11700819EA0126701383000004060000
B0613253210506S11700812EA0127301392000004045000
B0613293210478S11700878EA0127801396000004045000
B0613333210515S11700939EA0128601407000004045000
B0613373210579S11700926EA0129901418000004030000
B0613413210604S11700853EA0130601422000004060000
B0613453210570S11700786EA0130901429000004075000
B0613493210508S11700766EA0131301433000004060000
B0613533210444S11700766EA0131401437000004060000
B0613573210401S11700775EA0131501441000004060000
B0614013210446S11700907EA0131801442000000045000
B0614053210511S11700969EA0132701444000000060000
B0614093210588S11700939EA0132701437015004090000
B0614133210614S11700862EA0132901435015004105000
B0614173210586S11700796EA0133401435000004075000
B0614213210527S11700736EA0132301421000004045000
B0614253210457S11700667EA0130301407000004030000
B0614293210379S11700595EA0128601392000000015000
B0614333210303S11700520EA0128401392000000015000
B0614373210229S11700446EA0127401383000000015000
B0614413210154S11700371EA0126601377000004015000
B0614453210082S11700299EA0126501387000004015000
B0614493210015S11700231EA0126801386000004015000
B0614533209945S11700164EA0126501380000004015000
B0614573209873S11700101EA0125801377000004015000
B0615013209802S11700041EA0125801375000004015000
B0615053209729S11659981EA0125101363000004015000
B0615093209648S11659935EA0123601357000004015000
B0615133209560S11659908EA0123001351000004015000
B0615173209473S11659882EA0122601348000004015000
B0615213209388S11659851EA0122501343000004015000
B0615253209306S11659815EA0122501343000004015000
B0615293209228S11659774EA0122601345000004015000
B0615333209158S11659722EA0122601346000004015000
B0615373209098S11659664EA0123001352000004015000
B0615413209045S11659592EA0123101354000004015000
