ACAM4N6
HFDTE120715
HFFXA050
HFPLTPILOT:JOHN WELSH              
HFGTYGLIDERTYPE:HORNET      
HFGIDGLIDERID:VH-GMY      
HFDTM100GPSDATUM:
HFRFWFIRMWAREVERSION:F2.6
HFRHWHARDWAREVERSION:300 Series Version 2
HFFTYFRTYPE:CAMBRIDGE AERO INSTRUMENTS, 302+
HFGPS:GARMIN,LVS-25,12,18000
HFPRSPRESSALTSENSOR:INTERSEMA, MS5534-AP, 20000
I033638FXA3941ENL4247REX
LCAMSBVER:5FWVER:F26300
C050415050137050415000102
C0000000N00000000WTAKEOFF     
C3207549S11656849EBEVAIR      
C3123325S11712260EWATRCRRN    
C3212499S11757329EBILBARIN    
C3207549S11656849EBEVAIR      
C0000000N00000000WLANDING     
B0500493207733S11657092EA0006700224000000000000
B0500513207733S11657091EA0006600224000000000000
B0500533207733S11657091EA0006500223000000000000
B0500553207733S11657091EA0006600223000000000000
B0500573207733S11657091EA0006600223000000000000
B0500593207733S11657091EA0006600223000000000000
B0501013207733S11657091EA0006700223000000000000
B0501033207733S11657091EA0006600223000000000000
B0501053207733S11657091EA0006600222000000000000
B0501073207733S11657091EA0006600222000000000000
B0501093207733S11657091EA0006600222000000000000
B0501113207733S11657091EA0006700222000000000000
B0501133207733S11657091EA0006600222000000000000
B0501153207732S11657091EA0006700222000000000000
B0501173207731S11657090EA0006700222000000000000
B0501203207719S11657087EA0006600222000000000000
B0501243207688S11657074EA0006500222000000000000
B0501283207642S11657049EA0006500223000000000000
B0501323207584S11657014EA0006600224000000000000
B0501363207518S11656979EA0007000227000000000000
B0501403207450S11656945EA0008300243000000000000
B0501443207382S11656917EA0010200261000000000000
B0501483207315S11656892EA0012000278000000000000
B0501523207250S11656858EA0013700295000000000000
B0501563207183S11656821EA0014700310000000000000
B0502003207115S11656776EA0016400325000000000000
B0502043207057S11656713EA0018500350000000000000
B0502083207026S11656631EA0020600377000000000000
B0502123207021S11656541EA0023200400000000000000
B0502163207029S11656454EA0025800427000000000000
B0502203207051S11656368EA0027800440000000000000
B0502243207095S11656289EA0028600449000000000000
B0502283207161S11656233EA0030200462000000000000
B0502323207239S11656199EA0031600476000000000000
B0502363207317S11656188EA0033300496000000000000
B0502403207390S11656199EA0036300526000000000000
B0502443207458S11656236EA0038600545000000000000
B0502483207511S11656298EA0039700556000000000000
B0502523207544S11656373EA0041300575000000000000
B0502563207551S11656455EA0044000599000000000000
B0503003207541S11656533EA0045800615000000000000
B0503043207520S11656607EA0047300629000000000000
B0503083207489S11656676EA0048700644000000000000
B0503123207450S11656740EA0049900659000000000000
B0503163207403S11656802EA0051100668000000000000
B0503203207356S11656869EA0052100678000000000000
B0503243207310S11656935EA0053300690000000000000
B0503283207260S11656997EA0054800706000000000000
B0503323207212S11657060EA0056400723000000000000
B0503363207160S11657118EA0058200739000000000000
B0503403207108S11657176EA0059900756000000000000
B0503443207059S11657228EA0062200780000000000000
B0503483207008S11657276EA0064200795000000000000
B0503523206952S11657325EA0065100804000000000000
B0503563206897S11657376EA0066300819000000000000
B0504003206861S11657430EA0067500826000000000000
B0504043206866S11657482EA0067700827000000000000
B0504083206908S11657503EA0067600820000000000000
B0504123206957S11657473EA0066500812000000000000
B0504163206983S11657412EA0066200811000000000000
B0504203206987S11657346EA0066000806000000000000
B0504243206969S11657277EA0065300800000000000000
B0504283206936S11657217EA0064500794000000000000
B0504323206895S11657161EA0063900786000000000000
B0504363206852S11657108EA0063200783000000000000
B0504403206810S11657053EA0063000778000000000000
B0504443206769S11656997EA0061900768000000000000
B0504483206725S11656944EA0060900759000000000000
B0504523206676S11656893EA0060700760000000000000
B0504563206627S11656844EA0061200762000000000000
B0505003206572S11656832EA0061700766000000000000
B0505043206549S11656882EA0061900767000000000000
B0505083206578S11656930EA0062000768000000000000
B0505123206632S11656927EA0061900768000000000000
B0505163206671S11656877EA0062000774000000000000
B0505203206671S11656806EA0062500777000000000000
B0505243206627S11656765EA0062600779000000000000
B0505283206584S11656789EA0062600776000000000000
B0505323206591S11656844EA0062500776000000000000
B0505363206637S11656861EA0062500777000000000000
B0505403206687S11656830EA0063000782000000000000
B0505443206713S11656773EA0063600790000000000000
B0505483206692S11656711EA0063800785000000000000
B0505523206640S11656700EA0063500787000000000000
B0505563206624S11656745EA0063700787000000000000
B0506003206663S11656775EA0063400785000000000000
B0506043206715S11656752EA0063500788000000000000
B0506083206730S11656689EA0064200793000000000000
B0506123206689S11656653EA0064400790000000000000
B0506163206653S11656688EA0063200779000000000000
B0506203206673S11656739EA0063500787000000000000
B0506243206723S11656740EA0064100792000000000000
B0506283206758S11656689EA0064000790000000000000
B0506323206747S11656623EA0063800788000000000000
B0506363206696S11656593EA0063500784000000000000
B0506403206649S11656620EA0063500786000000000000
B0506443206648S11656675EA0063400783000000000000
B0506483206692S11656706EA0063500786000000000000
B0506523206748S11656688EA0063900788000000000000
B0506563206774S11656624EA0063800788000000000000
B0507003206745S11656565EA0063800788000000000000
B0507043206689S11656553EA0063700788000000000000
B0507083206647S11656588EA0064100793000000000000
B0507123206649S11656640EA0064100790000000000000
B0507163206696S11656666EA0064300795000000000000
B0507203206735S11656620EA0064700799000000000000
B0507243206709S11656562EA0065000800000000000000
B0507283206660S11656568EA0065400804000000000000
B0507323206656S11656620EA0065600805000000000000
B0507363206702S11656628EA0065800807000000000000
B0507403206722S11656565EA0065900811000000000000
B0507443206676S11656523EA0066500817000000000000
B0507483206634S11656548EA0067100819000000000000
B0507523206640S11656598EA0067100823000000000000
B0507563206684S11656605EA0068000830000000000000
B0508003206715S11656554EA0068000831000000000000
B0508043206692S11656492EA0068100831000000000000
B0508083206639S11656471EA0068500837000000000000
B0508123206600S11656501EA0068800837000000000000
B0508163206609S11656549EA0068800839000000000000
B0508203206656S11656553EA0069200843000000000000
B0508243206686S11656498EA0069800849000000000000
B0508283206663S11656435EA0070200854000000000000
B0508323206613S11656419EA0070700856000000000000
B0508363206579S11656458EA0070700855000000000000
B0508383206588S11656509EA0070800856000000000000
B0508423206631S11656528EA0070800861000000000000
B0508463206676S11656502EA0071900868000000000000
B0508503206691S11656441EA0072000868000000000000
B0508543206661S11656383EA0071900868000000000000
B0508583206609S11656376EA0072300871000000000000
B0509023206580S11656419EA0072500870000000000000
B0509063206595S11656467EA0072800874000000000000
B0509103206641S11656472EA0073100876000000000000
B0509143206671S11656423EA0073600882000000000000
B0509183206656S11656359EA0073600883000000000000
B0509223206605S11656329EA0073800883000000000000
B0509263206559S11656353EA0073800882000000000000
B0509303206550S11656406EA0073800883000000000000
B0509343206575S11656453EA0073700882000000000000
B0509383206618S11656471EA0074100887000000000000
B0509423206658S11656425EA0074500889000000000000
B0509463206644S11656357EA0074900893000000000000
B0509503206593S11656338EA0075400896000000000000
B0509543206562S11656379EA0075100892000000000000
B0509583206572S11656429EA0075000895000000000000
B0510023206610S11656455EA0075400896000000000000
B0510063206657S11656448EA0075400897000000000000
B0510103206699S11656412EA0075700897000000000000
B0510143206712S11656349EA0075400895000000000000
B0510183206700S11656279EA0074900887000000000000
B0510223206706S11656201EA0073500875000000000000
B0510263206743S11656128EA0073000874000000000000
B0510303206792S11656072EA0073700878000000000000
B0510343206845S11656025EA0073400870000000000000
B0510383206903S11655980EA0071900855000000000000
B0510423206962S11655935EA0070900847000000000000
B0510463207021S11655898EA0070800847000000000000
B0510503207076S11655864EA0071200851000000000000
B0510543207125S11655827EA0071900858000000000000
B0510583207173S11655788EA0071700850000000000000
B0511023207230S11655761EA0071000846000000000000
B0511063207289S11655747EA0071600850000000000000
B0511103207343S11655735EA0072000855000000000000
B0511143207372S11655679EA0072300858000000000000
B0511183207336S11655627EA0072000852000000000000
B0511223207286S11655642EA0071600852000000000000
B0511263207272S11655690EA0072300861000000000000
B0511303207291S11655735EA0072700863000000000000
B0511343207334S11655764EA0072500863000000000000
B0511383207389S11655778EA0072500865000000000000
B0511423207446S11655786EA0073600874000000000000
B0511463207494S11655753EA0074600883000000000000
B0511503207492S11655691EA0074400878000000000000
B0511543207441S11655668EA0074000877000000000000
B0511583207408S11655704EA0074200877000000000000
B0512023207420S11655760EA0074300880000000000000
B0512063207458S11655807EA0074800886000000000000
B0512103207507S11655826EA0075200892000000000000
B0512143207549S11655790EA0075600893000000000000
B0512183207540S11655733EA0075800895000000000000
B0512223207492S11655718EA0074900884000000000000
B0512263207466S11655769EA0074400883000000000000
B0512303207481S11655834EA0075100889000000000000
B0512343207531S11655853EA0075600896000000000000
B0512383207571S11655813EA0075500889000000000000
B0512423207558S11655752EA0075700895000000000000
B0512463207510S11655735EA0076100901000000000000
B0512503207482S11655781EA0076900907000000000000
B0512543207505S11655833EA0077100909000000000000
B0512583207555S11655850EA0076900906000000000000
B0513023207611S11655827EA0075800892000000000000
B0513063207672S11655805EA0074200879000000000000
B0513103207736S11655792EA0073800875000000000000
B0513143207797S11655773EA0073900875000000000000
B0513183207843S11655729EA0074500882000000000000
B0513223207828S11655670EA0074900886000000000000
B0513263207776S11655671EA0075100887000000000000
B0513303207771S11655730EA0075400890000000000000
B0513343207819S11655747EA0075900897000000000000
B0513383207843S11655696EA0076100896000000000000
B0513423207806S11655653EA0076200898000000000000
B0513463207757S11655668EA0076400902000000000000
B0513503207741S11655725EA0076600904000000000000
B0513543207767S11655774EA0076800903000000000000
B0513583207820S11655782EA0076500903000000000000
B0514023207866S11655748EA0076900906000000000000
B0514063207884S11655694EA0076900904000000000000
B0514103207866S11655634EA0076300901000000000000
B0514143207823S11655595EA0076300901000000000000
B0514183207771S11655588EA0076200905000000000000
B0514223207736S11655626EA0076900908000000000000
B0514263207762S11655675EA0076900906000000000000
B0514303207817S11655669EA0076200902000000000000
B0514343207862S11655627EA0076700906000000000000
B0514383207867S11655567EA0077200912000000000000
B0514423207828S11655530EA0077200910000000000000
B0514463207780S11655541EA0077100911000000000000
B0514503207766S11655596EA0077300912000000000000
B0514543207807S11655631EA0077400913000000000000
B0514583207856S11655603EA0077300911000000000000
B0515023207859S11655543EA0077400913000000000000
B0515063207822S11655504EA0077400912000000000000
B0515103207768S11655505EA0077100911000000000000
B0515143207720S11655532EA0077600914000000000000
B0515183207724S11655590EA0077800917000000000000
B0515223207778S11655603EA0078000920000000000000
B0515263207824S11655565EA0078100919000000000000
B0515303207832S11655502EA0078200920000000000000
B0515343207800S11655450EA0078200919000000000000
B0515383207750S11655440EA0079000931000000000000
B0515423207739S11655489EA0079800937000000000000
B0515463207791S11655506EA0079600934000000000000
B0515503207822S11655456EA0080300943000000000000
B0515543207796S11655405EA0080500944000000000000
B0515583207748S11655411EA0081200954000000000000
B0516023207737S11655466EA0082600967000000000000
B0516063207778S11655500EA0083500973000000000000
B0516103207824S11655471EA0083700973000000000000
B0516143207826S11655411EA0083700974000000000000
B0516183207783S11655380EA0083700977000000000000
B0516223207745S11655409EA0085000991000000000000
B0516263207755S11655465EA0086101001000000000000
B0516303207805S11655482EA0086801005000000000000
B0516343207843S11655441EA0087001005000000000000
B0516383207832S11655383EA0086901005000000000000
B0516423207787S11655365EA0087401011000000000000
B0516463207761S11655409EA0088401021000000000000
B0516503207785S11655458EA0089401034000000000000
B0516543207835S11655460EA0090201037000000000000
B0516583207863S11655408EA0089801033000000000000
B0517023207843S11655352EA0089801036000000000000
B0517063207793S11655341EA0090101040000000000000
B0517103207770S11655388EA0090801047000000000000
B0517143207802S11655435EA0091601058000000000000
B0517183207853S11655418EA0092301059000000000000
B0517223207870S11655358EA0092201060000000000000
B0517263207837S11655307EA0092201061000000000000
B0517303207787S11655307EA0092801067000000000000
B0517343207761S11655358EA0093701077000000000000
B0517383207784S11655411EA0094401085000000000000
B0517423207836S11655413EA0095101090000000000000
B0517463207867S11655359EA0094701085000000000000
B0517503207850S11655294EA0094801085000000000000
B0517543207801S11655263EA0095001090000000000000
B0517583207759S11655301EA0096001102000000000000
B0518023207772S11655359EA0097301112000000000000
B0518063207826S11655378EA0097501114000000000000
B0518103207869S11655337EA0097901117000000000000
B0518143207861S11655272EA0097801116000000000000
B0518183207813S11655241EA0097901118000000000000
B0518223207768S11655271EA0098601128000000000000
B0518263207791S11655323EA0099501135000000000000
B0518303207845S11655314EA0099601133000000000000
B0518343207862S11655253EA0099701138000000000000
B0518383207824S11655209EA0100001141000000000000
B0518423207775S11655224EA0100701150000000000000
B0518463207778S11655281EA0101801160000000000000
B0518503207830S11655293EA0101901157000000000000
B0518543207869S11655244EA0102001160000000000000
B0518583207858S11655181EA0102201161000000000000
B0519023207810S11655153EA0102701168000000000000
B0519063207774S11655194EA0103501175000000000000
B0519103207796S11655246EA0104501186000000000000
B0519143207849S11655248EA0104801188000000000000
B0519183207887S11655196EA0104601187000000000000
B0519223207878S11655129EA0104701189000000000000
B0519263207833S11655094EA0105301193000000000000
B0519303207781S11655112EA0105701199000000000000
B0519343207758S11655168EA0106101205000000000000
B0519383207796S11655206EA0106801211000000000000
B0519423207841S11655168EA0107301216000000000000
B0519463207828S11655109EA0107901220000000000000
B0519503207775S11655101EA0108601229000000000000
B0519543207742S11655150EA0109501237000000000000
B0519583207765S11655201EA0110601248000000000000
B0520023207817S11655205EA0110701247000000000000
B0520063207853S11655151EA0110401246000000000000
B0520103207836S11655092EA0111101253000000000000
B0520143207788S11655077EA0111901261000000000000
B0520183207759S11655127EA0112101263000000000000
B0520223207789S11655175EA0112701268000000000000
B0520263207843S11655164EA0113001271000000000000
B0520303207869S11655111EA0113001270000000000000
B0520343207844S11655057EA0113301272000000000000
B0520383207794S11655055EA0113501275000000000000
B0520423207744S11655090EA0113401274000000000000
B0520463207707S11655146EA0113701277000000000000
B0520503207720S11655210EA0114101282000000000000
B0520543207771S11655236EA0113801273000000000000
B0520583207828S11655214EA0112401260000000000000
B0521023207882S11655172EA0111701257000000000000
B0521063207924S11655118EA0111501254000000000000
B0521103207923S11655047EA0111201253000000000000
B0521143207885S11654993EA0111401256000000000000
B0521183207835S11654997EA0112301265000000000000
B0521223207835S11655050EA0112801267000000000000
B0521263207887S11655057EA0112301260000000000000
B0521303207913S11655002EA0111901259000000000000
B0521343207882S11654954EA0112401265000000000000
B0521383207835S11654963EA0113001269000000000000
B0521423207796S11655003EA0113001267000000000000
B0521463207757S11655053EA0112501260000000000000
B0521503207718S11655105EA0111601253000000000000
B0521543207676S11655159EA0110901245000000000000
B0521583207636S11655219EA0110301240000000000000
B0522023207601S11655284EA0109201232000000000000
B0522063207567S11655350EA0108901232000000000000
B0522103207537S11655415EA0109001232000000000000
B0522143207510S11655479EA0109001229000000000000
B0522183207484S11655543EA0108501222000000000000
B0522223207455S11655606EA0107901217000000000000
B0522263207428S11655668EA0107401213000000000000
B0522303207399S11655729EA0107001209000000000000
B0522343207371S11655787EA0106701205000000000000
B0522383207339S11655844EA0106301202000000000000
B0522423207310S11655902EA0105801197000000000000
B0522463207280S11655960EA0105501194000000000000
B0522503207251S11656020EA0104901188000000000000
B0522543207224S11656084EA0104401181000000000000
B0522583207196S11656150EA0103601175000000000000
B0523023207168S11656217EA0103001165000000000000
B0523063207135S11656285EA0101701156000000000000
B0523103207096S11656346EA0101401156000000000000
B0523143207050S11656398EA0101501156000000000000
B0523183207003S11656444EA0101501152000000000000
B0523223206957S11656490EA0101001147000000000000
B0523263206917S11656545EA0100301143000000000000
B0523303206881S11656601EA0100301144000000000000
B0523343206845S11656658EA0100301144000000000000
B0523383206816S11656719EA0100201143000000000000
B0523423206790S11656780EA0100701147000000000000
B0523463206765S11656840EA0101001148000000000000
B0523503206738S11656897EA0100101138000000000000
B0523543206710S11656960EA0099201125000000000000
B0523583206671S11657017EA0098001119000000000000
B0524023206619S11657064EA0097601115000000000000
B0524063206563S11657100EA0097401112000000000000
B0524103206504S11657127EA0096901106000000000000
B0524143206440S11657146EA0096401099000000000000
B0524183206374S11657155EA0095801093000000000000
B0524223206309S11657164EA0095001086000000000000
B0524263206241S11657165EA0094501079000000000000
B0524303206175S11657160EA0093901072000000000000
B0524343206110S11657150EA0093101064000000000000
B0524383206043S11657137EA0092101054000000000000
B0524423205976S11657131EA0091401049000000000000
B0524463205912S11657131EA0090901045000000000000
B0524503205848S11657131EA0090301041000000000000
B0524543205783S11657135EA0089601030000000000000
B0524583205717S11657127EA0088801027000000000000
B0525023205653S11657111EA0088901027000000000000
B0525063205591S11657095EA0088701025000000000000
B0525103205529S11657082EA0088401020000000000000
B0525143205466S11657062EA0087801015000000000000
B0525183205404S11657039EA0087301011000000000000
B0525223205343S11657013EA0086801005000000000000
B0525263205283S11656986EA0086200999000000000000
B0525303205224S11656960EA0085600992000000000000
B0525343205166S11656935EA0085000983000000000000
B0525383205106S11656909EA0084000972000000000000
B0525423205045S11656879EA0083000965000000000000
B0525463204985S11656848EA0082600963000000000000
B0525503204925S11656815EA0082500960000000000000
B0525543204864S11656806EA0082300963000000000000
B0525583204812S11656831EA0083000968000000000000
B0526023204769S11656869EA0082600963000000000000
B0526063204733S11656916EA0082400959000000000000
B0526103204694S11656966EA0082100956000000000000
B0526143204658S11657021EA0081700955000000000000
B0526183204634S11657079EA0082100961000000000000
B0526223204672S11657118EA0083000969000000000000
B0526263204723S11657082EA0082800962000000000000
B0526303204724S11657012EA0082300960000000000000
B0526343204690S11656960EA0082000959000000000000
B0526383204641S11656944EA0081800954000000000000
B0526423204590S11656961EA0081200951000000000000
B0526463204544S11656994EA0081700959000000000000
B0526503204541S11657049EA0082500965000000000000
B0526543204596S11657052EA0082800966000000000000
B0526583204622S11656991EA0082800968000000000000
B0527023204595S11656936EA0082900972000000000000
B0527063204547S11656931EA0083600975000000000000
B0527103204537S11656986EA0083800980000000000000
B0527143204586S11657007EA0084100980000000000000
B0527183204621S11656951EA0083800979000000000000
B0527223204593S11656892EA0084700990000000000000
B0527263204546S11656897EA0085500995000000000000
B0527303204531S11656948EA0085801000000000000000
B0527343204573S11656978EA0086101002000000000000
B0527383204619S11656940EA0086201004000000000000
B0527423204609S11656878EA0086901010000000000000
B0527463204563S11656865EA0087101009000000000000
B0527503204531S11656906EA0087201015000000000000
B0527543204538S11656961EA0087201015000000000000
B0527583204583S11656987EA0087701020000000000000
B0528023204633S11656961EA0088001020000000000000
B0528063204651S11656897EA0088101021000000000000
B0528103204629S11656838EA0088401026000000000000
B0528143204583S11656821EA0088501026000000000000
B0528183204552S11656861EA0088401028000000000000
B0528223204577S11656906EA0088901031000000000000
B0528263204632S11656892EA0088901031000000000000
B0528303204648S11656825EA0088901034000000000000
B0528343204613S11656779EA0089501037000000000000
B0528383204563S11656787EA0089101031000000000000
B0528423204528S11656832EA0089001034000000000000
B0528463204551S11656884EA0089401036000000000000
B0528503204607S11656875EA0089501040000000000000
B0528543204624S11656809EA0089901041000000000000
B0528583204586S11656762EA0089901042000000000000
B0529023204539S11656780EA0089701040000000000000
B0529063204500S11656827EA0089401035000000000000
B0529103204464S11656883EA0088901033000000000000
B0529143204431S11656944EA0088401028000000000000
B0529183204403S11657009EA0088101025000000000000
B0529223204362S11657066EA0087701020000000000000
B0529263204309S11657107EA0087101016000000000000
B0529303204248S11657131EA0086801012000000000000
B0529343204184S11657144EA0086201007000000000000
B0529383204119S11657151EA0085800999000000000000
B0529423204056S11657170EA0085000993000000000000
B0529463204000S11657205EA0084500987000000000000
B0529503203949S11657250EA0084100986000000000000
B0529543203904S11657295EA0084100983000000000000
B0529583203859S11657347EA0083500980000000000000
B0530023203818S11657399EA0084000987000000000000
B0530063203781S11657451EA0084600992000000000000
B0530103203748S11657503EA0085100996000000000000
B0530143203714S11657555EA0085601002000000000000
B0530183203668S11657585EA0086401011000000000000
B0530223203623S11657555EA0087501021000000000000
B0530263203627S11657488EA0088001024000000000000
B0530303203676S11657449EA0088301024000000000000
B0530343203731S11657456EA0088801027000000000000
B0530383203767S11657499EA0089101030000000000000
B0530423203774S11657559EA0089301032000000000000
B0530463203753S11657612EA0089401034000000000000
B0530503203714S11657654EA0089901037000000000000
B0530543203664S11657677EA0089901038000000000000
B0530583203612S11657653EA0090401046000000000000
B0531023203590S11657592EA0091201050000000000000
B0531063203605S11657521EA0091201049000000000000
B0531103203653S11657476EA0091201050000000000000
B0531143203711S11657477EA0091701059000000000000
B0531183203749S11657520EA0092301060000000000000
B0531223203746S11657582EA0092301059000000000000
B0531263203702S11657621EA0092101058000000000000
B0531303203642S11657605EA0092301062000000000000
B0531343203607S11657542EA0093201071000000000000
B0531383203611S11657467EA0093701072000000000000
B0531423203653S11657408EA0093501074000000000000
B0531463203710S11657390EA0094601087000000000000
B0531503203758S11657410EA0095401089000000000000
B0531543203781S11657464EA0095101084000000000000
B0531583203772S11657528EA0095101084000000000000
B0532023203736S11657576EA0095401088000000000000
B0532063203686S11657605EA0095501088000000000000
B0532103203631S11657627EA0095301088000000000000
B0532143203572S11657632EA0095101088000000000000
B0532183203517S11657598EA0095101084000000000000
B0532223203490S11657529EA0094601081000000000000
B0532263203508S11657463EA0094601081000000000000
B0532303203559S11657434EA0094301077000000000000
B0532343203616S11657433EA0094001075000000000000
B0532383203667S11657449EA0094901086000000000000
B0532423203689S11657495EA0095301094000000000000
B0532463203660S11657538EA0095901098000000000000
B0532503203610S11657523EA0096101099000000000000
B0532543203585S11657459EA0096201101000000000000
B0532583203607S11657399EA0096701105000000000000
B0533023203655S11657391EA0096901106000000000000
B0533063203685S11657434EA0097001107000000000000
B0533103203672S11657489EA0097301111000000000000
B0533143203623S11657507EA0097701111000000000000
B0533183203571S11657480EA0097301110000000000000
B0533223203543S11657415EA0097301108000000000000
B0533263203547S11657339EA0096801103000000000000
B0533303203581S11657278EA0096101097000000000000
B0533343203637S11657251EA0095901094000000000000
B0533383203694S11657251EA0095801094000000000000
B0533423203751S11657254EA0096301097000000000000
B0533463203801S11657281EA0096101096000000000000
B0533503203820S11657335EA0096101094000000000000
B0533543203798S11657389EA0095801091000000000000
B0533583203744S11657406EA0095601092000000000000
B0534023203688S11657416EA0096201098000000000000
B0534063203658S11657467EA0096301099000000000000
B0534103203686S11657510EA0096401099000000000000
B0534143203737S11657493EA0096101095000000000000
B0534183203762S11657434EA0096001095000000000000
B0534223203740S11657369EA0095601091000000000000
B0534263203689S11657325EA0095501092000000000000
B0534303203632S11657319EA0096001102000000000000
B0534343203602S11657364EA0096701106000000000000
B0534383203623S11657412EA0096301100000000000000
B0534423203675S11657411EA0095301089000000000000
B0534463203714S11657363EA0095101091000000000000
B0534503203720S11657291EA0095501095000000000000
B0534543203688S11657231EA0095701099000000000000
B0534583203634S11657220EA0096301103000000000000
B0535023203599S11657261EA0096401104000000000000
B0535063203618S11657312EA0096301101000000000000
B0535103203667S11657324EA0096101100000000000000
B0535143203709S11657280EA0096501105000000000000
B0535183203710S11657208EA0096601103000000000000
B0535223203667S11657153EA0096101101000000000000
B0535263203606S11657144EA0096201103000000000000
B0535303203549S11657165EA0096101101000000000000
B0535343203512S11657215EA0096001100000000000000
B0535383203528S11657268EA0096001099000000000000
B0535423203577S11657287EA0095001083000000000000
B0535463203638S11657287EA0093701078000000000000
B0535503203698S11657283EA0094001081000000000000
B0535543203759S11657274EA0094501085000000000000
B0535583203816S11657283EA0095501095000000000000
B0536023203846S11657325EA0096901110000000000000
B0536063203826S11657373EA0096901102000000000000
B0536103203774S11657380EA0096201096000000000000
B0536143203737S11657334EA0095901094000000000000
B0536183203749S11657273EA0095801093000000000000
B0536223203790S11657234EA0096301100000000000000
B0536263203840S11657220EA0096801100000000000000
B0536303203878S11657256EA0096801104000000000000
B0536343203861S11657308EA0097501110000000000000
B0536383203809S11657307EA0097401105000000000000
B0536423203779S11657252EA0096901103000000000000
B0536463203796S11657189EA0097301109000000000000
B0536503203844S11657168EA0098101113000000000000
B0536543203887S11657199EA0098101117000000000000
B0536583203891S11657256EA0099101127000000000000
B0537023203854S11657294EA0099501126000000000000
B0537063203802S11657286EA0098601117000000000000
B0537103203763S11657234EA0097801111000000000000
B0537143203751S11657165EA0097901116000000000000
B0537183203767S11657098EA0098101120000000000000
B0537223203803S11657040EA0098401122000000000000
B0537263203855S11657020EA0098201121000000000000
B0537303203902S11657043EA0098501123000000000000
B0537343203930S11657092EA0098401121000000000000
B0537383203932S11657153EA0098401122000000000000
B0537423203917S11657213EA0098701124000000000000
B0537463203881S11657260EA0098301117000000000000
B0537503203828S11657280EA0097101104000000000000
B0537543203775S11657252EA0096501099000000000000
B0537583203733S11657199EA0095201084000000000000
B0538023203714S11657127EA0094601084000000000000
B0538063203731S11657061EA0095501094000000000000
B0538103203771S11657021EA0096201099000000000000
B0538143203816S11656984EA0096301101000000000000
B0538183203866S11656949EA0096501102000000000000
B0538223203917S11656960EA0097001109000000000000
B0538263203924S11657013EA0097601115000000000000
B0538303203889S11657052EA0098401123000000000000
B0538343203837S11657047EA0098901128000000000000
B0538383203798S11656992EA0099601136000000000000
B0538423203802S11656922EA0100401143000000000000
B0538463203849S11656887EA0100601145000000000000
B0538503203894S11656908EA0100801142000000000000
B0538543203905S11656965EA0101001145000000000000
B0538583203874S11657012EA0101901157000000000000
B0539023203822S11657012EA0102801165000000000000
B0539063203777S11656966EA0103101168000000000000
B0539103203772S11656893EA0103701173000000000000
B0539143203803S11656835EA0104101176000000000000
B0539183203853S11656814EA0104001173000000000000
B0539223203904S11656831EA0103501166000000000000
B0539263203935S11656879EA0103201165000000000000
B0539303203948S11656940EA0103601167000000000000
B0539343203923S11656996EA0103501166000000000000
B0539383203880S11657040EA0102601154000000000000
B0539423203823S11657072EA0101201141000000000000
B0539463203758S11657065EA0100201136000000000000
B0539503203703S11657020EA0099901133000000000000
B0539543203671S11656948EA0099101122000000000000
B0539583203668S11656866EA0098901128000000000000
B0540023203679S11656787EA0099501129000000000000
B0540063203696S11656709EA0099001122000000000000
B0540103203723S11656639EA0098001111000000000000
B0540143203768S11656581EA0097301108000000000000
B0540183203822S11656546EA0097501111000000000000
B0540223203876S11656520EA0097801113000000000000
B0540263203932S11656498EA0098201117000000000000
B0540303203984S11656516EA0098701124000000000000
B0540343203980S11656570EA0099901136000000000000
B0540383203931S11656579EA0100501138000000000000
B0540423203891S11656535EA0100801143000000000000
B0540463203893S11656470EA0101401148000000000000
B0540503203937S11656435EA0102001154000000000000
B0540543203984S11656451EA0102801161000000000000
B0540583203991S11656502EA0103601168000000000000
B0541023203954S11656535EA0104101169000000000000
B0541063203902S11656519EA0103701170000000000000
B0541103203867S11656462EA0103901172000000000000
B0541143203870S11656392EA0104101176000000000000
B0541183203910S11656344EA0104201177000000000000
B0541223203969S11656344EA0104201176000000000000
B0541263204009S11656388EA0104801181000000000000
B0541303204008S11656453EA0105501185000000000000
B0541343203970S11656500EA0105701188000000000000
B0541383203914S11656516EA0105501184000000000000
B0541423203852S11656500EA0105001177000000000000
B0541463203806S11656444EA0104301175000000000000
B0541503203793S11656370EA0104701181000000000000
B0541543203809S11656301EA0105001183000000000000
B0541583203842S11656243EA0104801182000000000000
B0542023203888S11656202EA0104801179000000000000
B0542063203945S11656178EA0104501177000000000000
B0542103204005S11656169EA0104701178000000000000
B0542143204066S11656165EA0104901178000000000000
B0542183204131S11656163EA0104401171000000000000
B0542223204200S11656163EA0104101168000000000000
B0542263204270S11656168EA0103501161000000000000
B0542303204338S11656178EA0102601154000000000000
B0542343204405S11656191EA0102001148000000000000
B0542383204472S11656206EA0102001147000000000000
B0542423204534S11656219EA0102001147000000000000
B0542463204596S11656233EA0101501140000000000000
B0542503204658S11656253EA0100901136000000000000
B0542543204717S11656271EA0100801135000000000000
B0542583204773S11656290EA0100501133000000000000
B0543023204827S11656316EA0100201128000000000000
B0543063204876S11656349EA0099701124000000000000
B0543103204923S11656383EA0099501123000000000000
B0543143204967S11656422EA0099201118000000000000
B0543183205009S11656463EA0098401111000000000000
B0543223205051S11656507EA0097501102000000000000
B0543263205094S11656553EA0096501092000000000000
B0543303205140S11656597EA0095801086000000000000
B0543343205187S11656639EA0095301081000000000000
B0543383205235S11656676EA0094701073000000000000
B0543423205285S11656711EA0093901066000000000000
B0543463205336S11656743EA0093301059000000000000
B0543503205391S11656770EA0092501053000000000000
B0543543205447S11656795EA0092201048000000000000
B0543583205504S11656817EA0091801046000000000000
B0544023205561S11656836EA0091601043000000000000
B0544063205618S11656856EA0091301042000000000000
B0544103205677S11656874EA0091001037000000000000
B0544143205737S11656895EA0090401032000000000000
B0544183205796S11656916EA0090201030000000000000
B0544223205859S11656935EA0090101031000000000000
B0544263205920S11656956EA0090601036000000000000
B0544303205978S11656981EA0091001040000000000000
B0544343206037S11657009EA0090801037000000000000
B0544383206095S11657038EA0090501031000000000000
B0544423206156S11657069EA0089801025000000000000
B0544463206214S11657101EA0089301020000000000000
B0544503206270S11657135EA0088801016000000000000
B0544543206323S11657170EA0088201010000000000000
B0544583206375S11657209EA0087601005000000000000
B0545023206424S11657248EA0087201003000000000000
B0545063206478S11657276EA0087201001000000000000
B0545103206535S11657295EA0086500992000000000000
B0545143206595S11657306EA0085500980000000000000
B0545183206657S11657294EA0084300969000000000000
B0545223206717S11657256EA0083100956000000000000
B0545263206775S11657209EA0082100950000000000000
B0545303206827S11657153EA0081700947000000000000
B0545343206878S11657094EA0081100939000000000000
B0545383206925S11657027EA0080300933000000000000
B0545423206957S11656953EA0080400932000000000000
B0545463206961S11656871EA0079800923000000000000
B0545503206948S11656792EA0078900918000000000000
B0545543206930S11656715EA0078400909000000000000
B0545583206904S11656640EA0077800906000000000000
B0546023206874S11656570EA0077600905000000000000
B0546063206840S11656500EA0077100898000000000000
B0546103206801S11656432EA0076700897000000000000
B0546143206754S11656373EA0076400893000000000000
B0546183206719S11656305EA0076400896000000000000
B0546223206702S11656227EA0076800898000000000000
B0546263206705S11656146EA0077000903000000000000
B0546303206723S11656071EA0077600908000000000000
B0546343206700S11656009EA0077700907000000000000
B0546383206652S11656019EA0077300901000000000000
B0546423206640S11656076EA0076300898000000000000
B0546463206669S11656125EA0076500901000000000000
B0546503206721S11656142EA0077100907000000000000
B0546543206758S11656094EA0077500909000000000000
B0546583206725S11656041EA0077400908000000000000
B0547023206689S11656073EA0077700911000000000000
B0547063206717S11656111EA0078300917000000000000
B0547103206767S11656090EA0078200915000000000000
B0547143206773S11656021EA0078700924000000000000
B0547183206727S11655998EA0079100926000000000000
B0547223206713S11656045EA0078600920000000000000
B0547263206756S11656071EA0078900928000000000000
B0547303206805S11656042EA0079100930000000000000
B0547343206818S11655974EA0079500936000000000000
B0547383206786S11655921EA0079300930000000000000
B0547423206735S11655917EA0078900925000000000000
B0547463206708S11655960EA0078600927000000000000
B0547503206719S11656011EA0078900930000000000000
B0547543206764S11656034EA0079000930000000000000
B0547583206806S11655996EA0078800927000000000000
B0548023206793S11655930EA0079100933000000000000
B0548063206743S11655925EA0079700938000000000000
B0548103206728S11655973EA0079900941000000000000
B0548143206767S11656007EA0079700940000000000000
B0548183206819S11655987EA0079800940000000000000
B0548223206834S11655921EA0079600940000000000000
B0548263206793S11655874EA0080000940000000000000
B0548303206740S11655891EA0080100944000000000000
B0548343206730S11655943EA0080700950000000000000
B0548383206770S11655973EA0080600948000000000000
B0548423206822S11655944EA0080200942000000000000
B0548463206825S11655876EA0080200948000000000000
B0548503206779S11655837EA0080900950000000000000
B0548543206722S11655844EA0080600947000000000000
B0548583206695S11655887EA0081000955000000000000
B0549023206740S11655915EA0080300948000000000000
B0549063206780S11655866EA0080800954000000000000
B0549103206767S11655799EA0081500957000000000000
B0549143206718S11655764EA0081800959000000000000
B0549183206676S11655786EA0081800957000000000000
B0549223206680S11655839EA0081700959000000000000
B0549263206726S11655861EA0082200964000000000000
B0549303206766S11655820EA0082400963000000000000
B0549343206753S11655752EA0082200962000000000000
B0549383206700S11655730EA0082500963000000000000
B0549423206667S11655770EA0082200959000000000000
B0549463206691S11655824EA0081800954000000000000
B0549503206747S11655826EA0081800956000000000000
B0549543206780S11655766EA0081900955000000000000
B0549583206753S11655699EA0082100959000000000000
B0550023206696S11655687EA0082800963000000000000
B0550063206665S11655734EA0082600964000000000000
B0550103206686S11655788EA0082600963000000000000
B0550143206740S11655792EA0083000966000000000000
B0550183206778S11655735EA0082800964000000000000
B0550223206761S11655661EA0082600965000000000000
B0550263206708S11655618EA0083200968000000000000
B0550303206657S11655639EA0083200967000000000000
B0550343206650S11655697EA0083100967000000000000
B0550383206692S11655738EA0082800965000000000000
B0550423206752S11655720EA0082900967000000000000
B0550463206796S11655664EA0083200971000000000000
B0550503206790S11655587EA0083500974000000000000
B0550543206739S11655541EA0083800976000000000000
B0550583206683S11655549EA0084000975000000000000
B0551023206666S11655605EA0083800973000000000000
B0551063206706S11655648EA0083300970000000000000
B0551103206767S11655621EA0084200979000000000000
B0551143206780S11655544EA0084300980000000000000
B0551183206735S11655487EA0084300978000000000000
B0551223206675S11655489EA0084100975000000000000
B0551263206643S11655543EA0083700973000000000000
B0551303206663S11655601EA0083200967000000000000
B0551343206727S11655613EA0083000967000000000000
B0551383206783S11655562EA0083100970000000000000
B0551423206788S11655479EA0083700975000000000000
B0551463206741S11655431EA0084100979000000000000
B0551503206684S11655437EA0084200978000000000000
B0551543206650S11655484EA0084000976000000000000
B0551583206665S11655543EA0083700973000000000000
B0552023206710S11655578EA0084000978000000000000
B0552063206767S11655578EA0084800987000000000000
B0552103206823S11655554EA0085000985000000000000
B0552143206881S11655522EA0084700981000000000000
B0552183206936S11655482EA0083900974000000000000
B0552223206996S11655447EA0083300969000000000000
B0552263207061S11655423EA0082800963000000000000
B0552303207126S11655410EA0082300954000000000000
B0552343207194S11655406EA0081000940000000000000
B0552383207261S11655414EA0079900931000000000000
B0552423207325S11655436EA0079400925000000000000
B0552463207382S11655467EA0078900919000000000000
B0552503207434S11655505EA0078100911000000000000
B0552543207486S11655548EA0077500905000000000000
B0552583207536S11655592EA0076900898000000000000
B0553023207585S11655640EA0076600894000000000000
B0553063207633S11655687EA0076000891000000000000
B0553103207679S11655735EA0075800888000000000000
B0553143207724S11655786EA0075400884000000000000
B0553183207774S11655827EA0075400884000000000000
B0553223207831S11655847EA0075600883000000000000
B0553263207892S11655829EA0074800876000000000000
B0553303207949S11655790EA0073900867000000000000
B0553343208009S11655751EA0073200860000000000000
B0553383208074S11655717EA0072900859000000000000
B0553423208142S11655694EA0072500853000000000000
B0553463208210S11655692EA0072200849000000000000
B0553503208274S11655716EA0071900848000000000000
B0553543208329S11655759EA0071600846000000000000
B0553583208374S11655812EA0071500844000000000000
B0554023208399S11655876EA0071100843000000000000
B0554063208392S11655939EA0071000841000000000000
B0554103208364S11655994EA0070700834000000000000
B0554143208330S11656050EA0069700825000000000000
B0554183208301S11656111EA0069100822000000000000
B0554223208270S11656173EA0068600816000000000000
B0554263208235S11656236EA0068000811000000000000
B0554303208194S11656294EA0067600807000000000000
B0554343208153S11656357EA0067800811000000000000
B0554383208142S11656423EA0069100824000000000000
B0554423208194S11656436EA0069800830000000000000
B0554463208213S11656372EA0070100834000000000000
B0554503208173S11656320EA0069800829000000000000
B0554543208113S11656318EA0070000835000000000000
B0554583208080S11656360EA0070500840000000000000
B0555023208116S11656394EA0071100844000000000000
B0555063208161S11656353EA0070900846000000000000
B0555103208144S11656284EA0071600855000000000000
B0555143208091S11656268EA0072100856000000000000
B0555183208054S11656312EA0071500851000000000000
B0555223208084S11656358EA0072000859000000000000
B0555263208139S11656333EA0072700863000000000000
B0555303208143S11656264EA0073000868000000000000
B0555343208095S11656229EA0073300871000000000000
B0555383208048S11656254EA0073100865000000000000
B0555423208043S11656310EA0073200874000000000000
B0555463208083S11656340EA0074000881000000000000
B0555503208136S11656323EA0074600885000000000000
B0555543208157S11656264EA0075300891000000000000
B0555583208123S11656211EA0075500895000000000000
B0556023208074S11656219EA0075700896000000000000
B0556063208065S11656271EA0076100903000000000000
B0556103208105S11656306EA0076800907000000000000
B0556143208158S11656294EA0077000911000000000000
B0556183208186S11656232EA0077400918000000000000
B0556223208169S11656167EA0078000922000000000000
B0556263208117S11656142EA0078000919000000000000
B0556303208075S11656181EA0077700917000000000000
B0556343208078S11656241EA0078000924000000000000
B0556383208123S11656272EA0079000931000000000000
B0556423208178S11656250EA0079300933000000000000
B0556463208196S11656181EA0079700939000000000000
B0556503208166S11656121EA0079900941000000000000
B0556543208110S11656107EA0080100942000000000000
B0556583208069S11656146EA0080200944000000000000
B0557023208082S11656201EA0081100955000000000000
B0557063208134S11656219EA0081500955000000000000
B0557103208186S11656176EA0081500956000000000000
B0557143208199S11656100EA0081800960000000000000
B0557183208168S11656034EA0082100963000000000000
B0557223208112S11656002EA0082400967000000000000
B0557263208056S11656011EA0082900971000000000000
B0557303208026S11656055EA0083400975000000000000
B0557343208032S11656108EA0083300973000000000000
B0557383208075S11656143EA0083400976000000000000
B0557423208130S11656136EA0084000984000000000000
B0557463208161S11656080EA0085100993000000000000
B0557503208148S11656015EA0085801001000000000000
B0557543208103S11655980EA0086201003000000000000
B0557583208053S11655993EA0086001002000000000000
B0558023208034S11656039EA0086501006000000000000
B0558063208058S11656084EA0086501006000000000000
B0558103208112S11656089EA0087001014000000000000
B0558143208152S11656042EA0087801023000000000000
B0558183208142S11655978EA0089001035000000000000
B0558223208092S11655954EA0089801038000000000000
B0558263208048S11655982EA0089601036000000000000
B0558303208040S11656037EA0090201043000000000000
B0558343208073S11656078EA0091201050000000000000
B0558383208125S11656077EA0091601055000000000000
B0558423208160S11656024EA0092001060000000000000
B0558463208136S11655963EA0092401066000000000000
B0558503208075S11655960EA0092601064000000000000
B0558543208040S11656015EA0092801073000000000000
B0558583208054S11656069EA0094801092000000000000
B0559023208103S11656085EA0095701099000000000000
B0559063208145S11656045EA0096001101000000000000
B0559103208139S11655977EA0096101104000000000000
B0559143208087S11655960EA0097301115000000000000
B0559183208062S11656012EA0097801117000000000000
B0559223208103S11656050EA0098801127000000000000
B0559263208151S11656020EA0099301133000000000000
B0559303208157S11655954EA0099501137000000000000
B0559343208114S11655915EA0100001141000000000000
B0559383208067S11655942EA0100701147000000000000
B0559423208077S11655996EA0101801156000000000000
B0559463208127S11656003EA0102101158000000000000
B0559503208156S11655944EA0102501162000000000000
B0559543208131S11655886EA0103401173000000000000
B0559583208080S11655872EA0104201178000000000000
B0600023208038S11655907EA0104501180000000000000
B0600063208036S11655965EA0104801187000000000000
B0600103208079S11655994EA0105601193000000000000
B0600143208127S11655961EA0106201200000000000000
B0600183208138S11655895EA0106901208000000000000
B0600223208106S11655843EA0107701216000000000000
B0600263208056S11655831EA0108101219000000000000
B0600303208012S11655863EA0108501223000000000000
B0600343208000S11655918EA0108701223000000000000
B0600383208030S11655963EA0109301231000000000000
B0600423208083S11655970EA0109801237000000000000
B0600463208129S11655930EA0110501243000000000000
B0600503208142S11655863EA0110701246000000000000
B0600543208114S11655807EA0111101250000000000000
B0600583208062S11655790EA0111301251000000000000
B0601023208019S11655818EA0111801256000000000000
B0601063208009S11655870EA0112201259000000000000
B0601103208040S11655911EA0112101257000000000000
B0601143208092S11655908EA0112301261000000000000
B0601183208129S11655861EA0112701261000000000000
B0601223208129S11655795EA0112401261000000000000
B0601263208092S11655747EA0112601261000000000000
B0601303208036S11655740EA0112201255000000000000
B0601343207987S11655775EA0112101257000000000000
B0601383207974S11655835EA0112101257000000000000
B0601423208010S11655879EA0111901256000000000000
B0601463208071S11655873EA0111701253000000000000
B0601503208130S11655837EA0111201247000000000000
B0601543208179S11655783EA0111001249000000000000
B0601583208188S11655709EA0111601253000000000000
B0602023208152S11655652EA0111601254000000000000
B0602063208096S11655636EA0111601253000000000000
B0602103208047S11655669EA0111401250000000000000
B0602143208015S11655725EA0110701245000000000000
B0602183207991S11655790EA0110401242000000000000
B0602223207975S11655860EA0109901236000000000000
B0602263207958S11655937EA0109701235000000000000
B0602303207943S11656013EA0109701235000000000000
B0602343207930S11656091EA0108901223000000000000
B0602383207919S11656172EA0108001219000000000000
B0602423207909S11656251EA0107801214000000000000
B0602463207901S11656329EA0107001208000000000000
B0602503207893S11656410EA0106701204000000000000
B0602543207891S11656488EA0106701205000000000000
B0602583207889S11656561EA0106901206000000000000
B0603023207891S11656633EA0106901203000000000000
B0603063207892S11656706EA0106201197000000000000
B0603103207895S11656780EA0105801194000000000000
B0603143207896S11656852EA0106001196000000000000
B0603183207898S11656919EA0105901193000000000000
B0603223207900S11656988EA0105601189000000000000
B0603263207900S11657055EA0105001185000000000000
B0603303207892S11657120EA0104801184000000000000
B0603343207871S11657178EA0104801183000000000000
B0603383207844S11657231EA0104801181000000000000
B0603423207815S11657291EA0104201175000000000000
B0603463207785S11657350EA0103701169000000000000
B0603503207754S11657410EA0103101164000000000000
B0603543207724S11657471EA0102301152000000000000
B0603583207681S11657527EA0101201144000000000000
B0604023207640S11657580EA0101101147000000000000
B0604063207601S11657632EA0100901140000000000000
B0604103207563S11657686EA0100201136000000000000
B0604143207527S11657744EA0099901132000000000000
B0604183207490S11657806EA0099301126000000000000
B0604223207454S11657871EA0098801121000000000000
B0604263207419S11657935EA0098401121000000000000
B0604303207382S11657997EA0098301118000000000000
B0604343207350S11658065EA0098201117000000000000
B0604383207323S11658136EA0098701124000000000000
B0604423207307S11658205EA0100001140000000000000
B0604463207350S11658239EA0101801156000000000000
B0604503207391S11658184EA0102301153000000000000
B0604543207367S11658112EA0102501162000000000000
B0604583207315S11658101EA0103001165000000000000
B0605023207277S11658141EA0103501171000000000000
B0605063207295S11658191EA0103801171000000000000
B0605103207352S11658200EA0103901173000000000000
B0605143207402S11658154EA0104101174000000000000
B0605183207393S11658082EA0104101175000000000000
B0605223207339S11658061EA0104001174000000000000
B0605263207308S11658105EA0104601182000000000000
B0605303207336S11658152EA0105401189000000000000
B0605343207394S11658151EA0105301187000000000000
B0605383207433S11658089EA0105301187000000000000
B0605423207415S11658018EA0105401189000000000000
B0605463207359S11657998EA0105701192000000000000
B0605503207315S11658037EA0105701191000000000000
B0605543207320S11658099EA0106401198000000000000
B0605583207367S11658134EA0106601199000000000000
B0606023207428S11658121EA0106501200000000000000
B0606063207463S11658057EA0106701203000000000000
B0606103207449S11657985EA0106701203000000000000
B0606143207398S11657954EA0106601204000000000000
B0606183207351S11657991EA0106501198000000000000
B0606223207315S11658048EA0106401199000000000000
B0606263207316S11658110EA0107301209000000000000
B0606303207364S11658138EA0107401210000000000000
B0606343207416S11658097EA0107701211000000000000
B0606383207441S11658026EA0107301210000000000000
B0606423207454S11657949EA0107001208000000000000
B0606463207462S11657870EA0107001210000000000000
B0606503207460S11657789EA0107501213000000000000
B0606543207425S11657731EA0108001219000000000000
B0606583207373S11657740EA0108501223000000000000
B0607023207354S11657792EA0109001229000000000000
B0607063207391S11657828EA0109701232000000000000
B0607103207446S11657800EA0109401231000000000000
B0607143207456S11657729EA0109701236000000000000
B0607183207420S11657676EA0110301239000000000000
B0607223207367S11657676EA0110401241000000000000
B0607263207343S11657723EA0110701244000000000000
B0607303207372S11657767EA0110801244000000000000
B0607343207429S11657763EA0110601240000000000000
B0607383207472S11657709EA0110401242000000000000
B0607423207486S11657634EA0110401242000000000000
B0607463207463S11657564EA0110401242000000000000
B0607503207415S11657519EA0110201239000000000000
B0607543207359S11657521EA0110301241000000000000
B0607583207321S11657563EA0110401241000000000000
B0608023207298S11657616EA0110001238000000000000
B0608063207280S11657676EA0109801233000000000000
B0608103207265S11657738EA0109301231000000000000
B0608143207252S11657802EA0109101230000000000000
B0608183207241S11657868EA0108901228000000000000
B0608223207233S11657937EA0109001228000000000000
B0608263207222S11658008EA0108901226000000000000
B0608303207215S11658078EA0108301220000000000000
B0608343207200S11658147EA0107701214000000000000
B0608383207181S11658216EA0106801205000000000000
B0608423207161S11658288EA0105901196000000000000
B0608463207133S11658360EA0105201186000000000000
B0608503207100S11658430EA0104501182000000000000
B0608543207070S11658502EA0104201180000000000000
B0608583207042S11658569EA0104401182000000000000
B0609023207020S11658639EA0104001174000000000000
B0609063206998S11658712EA0103001167000000000000
B0609103206973S11658784EA0102901164000000000000
B0609143206948S11658855EA0102101154000000000000
B0609183206931S11658931EA0101101145000000000000
B0609223206920S11659006EA0100701143000000000000
B0609263206907S11659079EA0100301138000000000000
B0609303206894S11659152EA0100001135000000000000
B0609343206882S11659222EA0099601131000000000000
B0609383206869S11659293EA0099001125000000000000
B0609423206856S11659363EA0098501121000000000000
B0609463206840S11659431EA0098701125000000000000
B0609503206829S11659499EA0099201133000000000000
B0609543206826S11659564EA0100001132000000000000
B0609583206838S11659633EA0099001121000000000000
B0610023206838S11659707EA0098201116000000000000
B0610063206822S11659777EA0097601110000000000000
B0610103206801S11659846EA0096701104000000000000
B0610143206783S11659913EA0096601101000000000000
B0610183206769S11659982EA0096201099000000000000
B0610223206753S11700051EA0095801093000000000000
B0610263206738S11700123EA0095101085000000000000
B0610303206726S11700195EA0094301078000000000000
B0610343206719S11700270EA0093601070000000000000
B0610383206718S11700345EA0092901064000000000000
B0610423206713S11700418EA0092801064000000000000
B0610463206702S11700487EA0092401060000000000000
B0610503206686S11700558EA0091201046000000000000
B0610543206661S11700630EA0090501040000000000000
B0610583206640S11700702EA0090101034000000000000
B0611023206627S11700778EA0089001022000000000000
B0611063206606S11700853EA0087601010000000000000
B0611103206579S11700926EA0086901005000000000000
B0611143206558S11701000EA0086400999000000000000
B0611183206562S11701077EA0085500989000000000000
B0611223206592S11701147EA0084600980000000000000
B0611263206640S11701202EA0084200977000000000000
B0611303206704S11701233EA0083900973000000000000
B0611343206773S11701242EA0083500968000000000000
B0611383206842S11701233EA0082800964000000000000
B0611423206910S11701208EA0082400957000000000000
B0611463206974S11701170EA0081500949000000000000
B0611503207038S11701126EA0080400939000000000000
B0611543207102S11701078EA0079700933000000000000
B0611583207161S11701027EA0079300929000000000000
B0612023207220S11700975EA0078900923000000000000
B0612063207278S11700922EA0078100915000000000000
B0612103207337S11700868EA0077300907000000000000
B0612143207397S11700814EA0076600903000000000000
B0612183207454S11700760EA0076100896000000000000
B0612223207511S11700705EA0075400889000000000000
B0612263207567S11700650EA0074300878000000000000
B0612303207624S11700596EA0073200866000000000000
B0612343207683S11700543EA0072200856000000000000
B0612383207742S11700493EA0071000846000000000000
B0612423207804S11700446EA0070200839000000000000
B0612463207866S11700403EA0069600833000000000000
B0612503207927S11700361EA0068900825000000000000
B0612543207988S11700316EA0068200817000000000000
B0612583208051S11700272EA0067700815000000000000
B0613023208112S11700227EA0067900818000000000000
B0613063208166S11700177EA0069000827000000000000
B0613103208175S11700103EA0069700836000000000000
B0613143208127S11700073EA0070100838000000000000
B0613183208095S11700116EA0069800835000000000000
B0613223208114S11700168EA0069800836000000000000
B0613263208164S11700182EA0069800836000000000000
B0613303208217S11700153EA0069600836000000000000
B0613343208259S11700097EA0069600835000000000000
B0613383208255S11700024EA0069900839000000000000
B0613423208204S11659985EA0069700835000000000000
B0613463208155S11700010EA0069900839000000000000
B0613503208151S11700063EA0070200840000000000000
B0613543208192S11700097EA0069900837000000000000
B0613583208243S11700073EA0070000839000000000000
B0614023208251S11700004EA0069500833000000000000
B0614063208229S11659928EA0068900827000000000000
B0614103208220S11659846EA0068800831000000000000
B0614143208248S11659778EA0069600833000000000000
B0614183208304S11659750EA0069300832000000000000
B0614223208355S11659765EA0069300830000000000000
B0614263208378S11659815EA0068400820000000000000
B0614303208359S11659869EA0067900818000000000000
B0614343208308S11659885EA0068000820000000000000
B0614383208260S11659842EA0067900815000000000000
B0614423208243S11659763EA0067700815000000000000
B0614463208259S11659686EA0067800819000000000000
B0614503208288S11659618EA0067800814000000000000
B0614543208311S11659540EA0067000810000000000000
B0614583208331S11659460EA0066400802000000000000
B0615023208350S11659374EA0066000796000000000000
B0615063208360S11659284EA0065300787000000000000
B0615103208364S11659192EA0064600779000000000000
B0615143208352S11659101EA0063700769000000000000
B0615183208326S11659014EA0062900762000000000000
B0615223208286S11658934EA0062100756000000000000
B0615263208235S11658866EA0061300749000000000000
B0615303208175S11658807EA0060600741000000000000
B0615343208114S11658756EA0060200738000000000000
B0615383208054S11658711EA0059700732000000000000
B0615423207992S11658668EA0059000720000000000000
B0615463207930S11658625EA0057900712000000000000
B0615503207866S11658582EA0057300707000000000000
B0615543207802S11658541EA0056800703000000000000
B0615583207740S11658500EA0056600701000000000000
B0616023207680S11658459EA0056400699000000000000
B0616063207623S11658417EA0056000694000000000000
B0616103207566S11658375EA0055300688000000000000
B0616143207508S11658339EA0054800679000000000000
B0616183207449S11658303EA0054000673000000000000
B0616223207386S11658274EA0054000675000000000000
B0616263207330S11658287EA0054000675000000000000
B0616303207325S11658343EA0054300676000000000000
B0616343207376S11658355EA0053700666000000000000
B0616383207411S11658299EA0052900660000000000000
B0616423207417S11658225EA0052000654000000000000
B0616463207416S11658147EA0051500650000000000000
B0616503207390S11658076EA0051400647000000000000
B0616543207334S11658053EA0051100644000000000000
B0616583207274S11658061EA0050200635000000000000
B0617023207228S11658095EA0049900633000000000000
B0617063207221S11658153EA0049400626000000000000
B0617103207247S11658208EA0048000612000000000000
B0617143207293S11658253EA0047200608000000000000
B0617183207347S11658297EA0046100593000000000000
B0617223207407S11658335EA0044800583000000000000
B0617263207469S11658365EA0044000575000000000000
B0617303207536S11658392EA0043300569000000000000
B0617343207601S11658417EA0043100567000000000000
B0617383207668S11658430EA0042400560000000000000
B0617423207737S11658437EA0041900555000000000000
B0617463207805S11658437EA0041500551000000000000
B0617503207871S11658427EA0041000546000000000000
B0617543207935S11658418EA0040600541000000000000
B0617583207999S11658407EA0040100536000000000000
B0618023208061S11658387EA0039600529000000000000
B0618063208122S11658362EA0038900522000000000000
B0618103208175S11658318EA0038600520000000000000
B0618143208205S11658251EA0038100515000000000000
B0618183208201S11658174EA0038000518000000000000
B0618223208171S11658105EA0038200521000000000000
B0618263208119S11658083EA0038800524000000000000
B0618303208095S11658123EA0038200515000000000000
B0618343208119S11658165EA0037100505000000000000
B0618383208169S11658178EA0036700503000000000000
B0618423208225S11658174EA0036700500000000000000
B0618463208269S11658134EA0036000494000000000000
B0618503208268S11658062EA0035100484000000000000
B0618543208225S11658010EA0033500468000000000000
B0618583208165S11657978EA0032100460000000000000
B0619023208100S11657954EA0032100462000000000000
B0619063208038S11657940EA0032600465000000000000
B0619103207974S11657939EA0031600454000000000000
B0619143207906S11657935EA0030500441000000000000
B0619183207835S11657914EA0029200431000000000000
B0619223207766S11657881EA0028800427000000000000
B0619263207701S11657842EA0028300419000000000000
B0619303207636S11657796EA0027100406000000000000
B0619343207575S11657744EA0026700406000000000000
B0619383207514S11657697EA0026900406000000000000
B0619423207450S11657659EA0026000394000000000000
B0619463207386S11657621EA0025700397000000000000
B0619503207329S11657589EA0026100399000000000000
B0619543207271S11657560EA0026200400000000000000
B0619583207209S11657533EA0026100394000000000000
B0620023207144S11657506EA0025400392000000000000
B0620063207082S11657482EA0025400391000000000000
B0620103207021S11657455EA0024900381000000000000
B0620143206960S11657421EA0024200377000000000000
B0620183206900S11657380EA0023800372000000000000
B0620223206845S11657329EA0023100368000000000000
B0620263206792S11657272EA0022500362000000000000
B0620303206739S11657215EA0021900357000000000000
B0620343206688S11657155EA0021500354000000000000
B0620383206644S11657087EA0021400352000000000000
B0620423206605S11657016EA0021200351000000000000
B0620463206572S11656939EA0020800348000000000000
B0620503206549S11656860EA0020500345000000000000
B0620543206530S11656783EA0020500344000000000000
B0620583206522S11656704EA0020600346000000000000
B0621023206527S11656622EA0021500356000000000000
B0621063206543S11656541EA0021300354000000000000
B0621103206587S11656481EA0020900351000000000000
B0621143206645S11656467EA0021500359000000000000
B0621183206697S11656480EA0021300353000000000000
B0621223206747S11656507EA0020300341000000000000
B0621263206791S11656535EA0019200327000000000000
B0621303206835S11656562EA0017700312000000000000
B0621343206879S11656591EA0016200298000000000000
B0621383206922S11656620EA0015000284000000000000
B0621423206966S11656650EA0013500270000000000000
B0621463207013S11656680EA0012000253000000000000
B0621503207060S11656710EA0010400236000000000000
B0621543207105S11656739EA0008800223000000000000
B0621583207150S11656766EA0007900215000000000000
B0622023207189S11656789EA0007700213000000000000
B0622063207221S11656808EA0007700213000000000000
B0622103207248S11656822EA0007700212000000000000
B0622143207269S11656835EA0007600213000000000000
B0622183207286S11656844EA0007700213000000000000
B0622223207299S11656852EA0007600212000000000000
B0622263207310S11656857EA0007600212000000000000
B0622303207315S11656860EA0007700213000000000000
B0622343207317S11656861EA0007700213000000000000
B0622383207317S11656861EA0007800213000000000000
B0622423207317S11656861EA0007700213000000000000
B0622463207317S11656861EA0007600213000000000000
B0622503207317S11656861EA0007600213000000000000
B0622543207317S11656861EA0007800213000000000000
G0003000000CACA58ED0000000000000000000000000000000000000000000000
G0CC8F947F20C9D896326DA790299D01643203A7F000000003106E92A78496E3B
G41AF51FCB48E51734E62015A0992E135093FE5A200000000000000004E4FE2DF
