ACAM4N6
HFDTE280517
HFFXA050
HFPLTPILOT:JOHN WELSH              
HFGTYGLIDERTYPE:HORNET      
HFGIDGLIDERID:VH GMY      
HFDTM100GPSDATUM:
HFRFWFIRMWAREVERSION:F2.6
HFRHWHARDWAREVERSION:300 Series Version 2
HFFTYFRTYPE:CAMBRIDGE AERO INSTRUMENTS, 302+
HFGPS:GARMIN,LVS-25,12,18000
HFPRSPRESSALTSENSOR:INTERSEMA, MS5534-AP, 20000
I033638FXA3941ENL4247REX
LCAMSBVER:5FWVER:F26300
C121016042725121016000103
C0000000N00000000WTAKEOFF     
C3207549S11656849EBEVAIR      
C3157887S11735628EYOTING      
C3137789S11744052EKLLRBRRN    
C3137399S11712982ECunderdin AF
C3207549S11656849EBEVAIR      
C0000000N00000000WLANDING     
B0403023207338S11656858EA0010600221000004000000
B0403043207338S11656858EA0010500221000004000000
B0403063207338S11656858EA0010600221000004000000
B0403083207338S11656858EA0010600221000004000000
B0403103207338S11656858EA0010500221000004000000
B0403123207338S11656858EA0010600221000004000000
B0403143207338S11656858EA0010700221000004000000
B0403163207338S11656858EA0010700221000004000000
B0403183207338S11656858EA0010800221000004000000
B0403203207338S11656858EA0010800221000004000000
B0403223207338S11656858EA0010800221000004000000
B0403243207338S11656858EA0010800221000004000000
B0403263207338S11656858EA0010700221000004000000
B0403283207338S11656860EA0010700221000004000000
B0403303207339S11656860EA0010700221000004000000
B0403313207341S11656861EA0010700221000004000000
B0403353207358S11656877EA0010600221000004000000
B0403393207391S11656903EA0010800221000004000000
B0403433207441S11656934EA0010900222000004000000
B0403473207501S11656970EA0011000224000004000000
B0403513207562S11657010EA0011600233000004000000
B0403553207619S11657051EA0013700256000004000000
B0403593207677S11657085EA0015500276000004000000
B0404033207733S11657120EA0017400296000004000000
B0404073207791S11657151EA0019100313000004000000
B0404113207848S11657187EA0021000330000004000000
B0404153207897S11657231EA0023400356000004000000
B0404193207934S11657286EA0026300385000004000000
B0404233207970S11657342EA0028600406000004000000
B0404273208019S11657381EA0030500425000004000000
B0404313208084S11657384EA0031900438000004000000
B0404353208149S11657346EA0032400445000004000000
B0404393208191S11657274EA0034000464000004000000
B0404433208199S11657183EA0036300480000004000000
B0404473208171S11657096EA0037600499000004000000
B0404513208117S11657029EA0039500517000004000000
B0404553208044S11656987EA0040800529000004000000
B0404593207963S11656979EA0042200543000004000000
B0405033207888S11657003EA0044100561000004000000
B0405073207818S11657038EA0046300587000004000000
B0405113207748S11657069EA0049300614000004000000
B0405153207685S11657116EA0051500635000004000000
B0405193207650S11657183EA0053900659000004000000
B0405233207653S11657263EA0055900674000004000000
B0405273207694S11657325EA0057600692000004000000
B0405313207761S11657351EA0059400712000004000000
B0405353207832S11657335EA0061200728000004000000
B0405393207895S11657278EA0062500737000004000000
B0405433207928S11657194EA0064100753000004000000
B0405473207931S11657100EA0066000773000004000000
B0405513207901S11657013EA0067700789000004000000
B0405553207839S11656951EA0068500799000004000000
B0405593207763S11656938EA0070000820000004000000
B0406033207701S11656966EA0071800829000004000000
B0406073207651S11657010EA0072400832000004000000
B0406083207622S11657066EA0073100834000004000000
B0406123207645S11657118EA0073400836000004000000
B0406163207697S11657122EA0073200831000004000000
B0406203207740S11657078EA0072500824000004000000
B0406243207746S11657012EA0072200823000004000000
B0406283207720S11656953EA0072000821000004000000
B0406323207675S11656914EA0071700817000004000000
B0406363207618S11656908EA0071100810000004000000
B0406403207563S11656930EA0070700809000004000000
B0406443207516S11656969EA0070700808000004000000
B0406483207475S11657016EA0070400803000004000000
B0406523207438S11657065EA0070300806000004000000
B0406563207406S11657114EA0070700803000004000000
B0407003207375S11657166EA0070300798000004000000
B0407043207343S11657220EA0069900794000004000000
B0407083207312S11657273EA0069500788000004000000
B0407123207281S11657328EA0068900782000004000000
B0407163207252S11657384EA0068600780000004000000
B0407203207226S11657438EA0068300778000004000000
B0407243207200S11657493EA0067800770000004000000
B0407283207180S11657550EA0067100765000004000000
B0407323207157S11657608EA0066900764000004000000
B0407363207135S11657666EA0066700762000004000000
B0407403207112S11657723EA0066500759000004000000
B0407443207091S11657779EA0066200759000004000000
B0407483207074S11657836EA0066400760000004000000
B0407523207070S11657894EA0067000763000004000000
B0407563207104S11657939EA0067000764000004000000
B0408003207156S11657932EA0066500757000004000000
B0408043207186S11657874EA0065900754000004000000
B0408083207170S11657805EA0065500748000004000000
B0408123207122S11657767EA0065000743000004000000
B0408163207065S11657763EA0064800743000004000000
B0408203207013S11657783EA0065400749000004000000
B0408243206982S11657829EA0066000757000004000000
B0408283207003S11657878EA0066700761000004000000
B0408323207056S11657870EA0066400757000004000000
B0408363207081S11657806EA0066100756000004000000
B0408403207056S11657744EA0066200760000004000000
B0408443207005S11657725EA0067000766000004000000
B0408483206969S11657762EA0067000764000004000000
B0408523206986S11657819EA0066900766000004000000
B0408563207039S11657828EA0067500771000004000000
B0409003207079S11657781EA0067500769000004000000
B0409043207078S11657711EA0067300766000004000000
B0409083207039S11657660EA0067400769000004000000
B0409123206986S11657667EA0067400769000004000000
B0409163206968S11657723EA0067700770000004000000
B0409203207005S11657767EA0068300779000004000000
B0409243207056S11657746EA0068800782000004000000
B0409283207065S11657677EA0068700778000004000000
B0409323207027S11657623EA0068500781000004000000
B0409363206974S11657624EA0068900783000004000000
B0409403206952S11657675EA0069300786000004000000
B0409443206986S11657722EA0069800793000004000000
B0409483207040S11657709EA0070500797000004000000
B0409523207064S11657646EA0070800801000004000000
B0409563207042S11657586EA0070700801000004000000
B0410003206991S11657571EA0070700799000004000000
B0410043206955S11657610EA0070800801000004000000
B0410083206968S11657664EA0071300807000004000000
B0410123207020S11657675EA0072200816000004000000
B0410163207059S11657628EA0072600819000004000000
B0410203207051S11657562EA0072300818000004000000
B0410243207005S11657527EA0072400819000004000000
B0410283206959S11657546EA0072300819000004000000
B0410323206952S11657601EA0073200828000004000000
B0410363206990S11657636EA0073900836000004000000
B0410403207043S11657618EA0074400839000004000000
B0410443207068S11657556EA0074600842000004000000
B0410483207046S11657498EA0074600842000004000000
B0410523206995S11657488EA0074600841000004000000
B0410563206959S11657528EA0074500842000004000000
B0411003206953S11657585EA0074900846000004000000
B0411043206996S11657619EA0075600851000004000000
B0411083207046S11657584EA0075600851000004000000
B0411123207046S11657515EA0076000857000004000000
B0411163207004S11657477EA0076200858000004000000
B0411203206959S11657494EA0076300861000004000000
B0411243206948S11657547EA0076400863000004000000
B0411283206990S11657586EA0076900866000004000000
B0411323207043S11657563EA0077100866000004000000
B0411363207056S11657493EA0077200869000004000000
B0411403207022S11657438EA0077500871000004000000
B0411443206972S11657434EA0077800875000004000000
B0411483206942S11657480EA0077900877000004000000
B0411523206961S11657533EA0078300883000004000000
B0411563207014S11657542EA0078800885000004000000
B0412003207059S11657494EA0078700884000004000000
B0412043207060S11657423EA0078800884000004000000
B0412083207022S11657376EA0078800886000004000000
B0412123206972S11657385EA0079000886000004000000
B0412163206952S11657437EA0079300889000004000000
B0412203206983S11657481EA0080100897000004000000
B0412243207035S11657463EA0080400898000004000000
B0412283207050S11657394EA0080100895000004000000
B0412323207011S11657343EA0080300900000004000000
B0412363206962S11657358EA0080500899000004000000
B0412403206964S11657416EA0080600899000004000000
B0412443207018S11657425EA0081000907000004000000
B0412483207061S11657374EA0081600910000004000000
B0412523207059S11657304EA0081800914000004000000
B0412563207014S11657268EA0081700912000004000000
B0413003206965S11657290EA0081700910000004000000
B0413043206953S11657348EA0081700912000004000000
B0413083206988S11657387EA0082600923000004000000
B0413123207040S11657368EA0082800920000004000000
B0413163207065S11657304EA0082600922000004000000
B0413203207037S11657247EA0082800926000004000000
B0413243206987S11657243EA0083000924000004000000
B0413283206957S11657293EA0082500918000004000000
B0413323206952S11657360EA0081600909000004000000
B0413363206959S11657433EA0081400908000004000000
B0413403206964S11657504EA0081200906000004000000
B0413443206969S11657576EA0081000904000004000000
B0413483206973S11657646EA0081100907000004000000
B0413523206975S11657715EA0081100910000004000000
B0413563206978S11657784EA0081300910000004000000
B0414003206982S11657854EA0081300909000004000000
B0414043206985S11657926EA0081200907000004000000
B0414083206982S11658001EA0080800904000004000000
B0414123206975S11658075EA0080800900000004000000
B0414163206969S11658148EA0080100892000004000000
B0414203206961S11658225EA0079000885000004000000
B0414243206953S11658299EA0079200886000004000000
B0414283206947S11658370EA0079000885000004000000
B0414323206939S11658440EA0079200885000004000000
B0414363206930S11658509EA0078900880000004000000
B0414403206921S11658580EA0077900872000004000000
B0414443206910S11658650EA0077400868000004000000
B0414483206901S11658719EA0077100867000004000000
B0414523206894S11658786EA0076700862000004000000
B0414563206888S11658851EA0076500860000004000000
B0415003206886S11658915EA0076100855000004000000
B0415043206882S11658979EA0075400848000004000000
B0415083206873S11659045EA0075200845000004000000
B0415123206858S11659111EA0074800842000004000000
B0415163206847S11659176EA0074800843000004000000
B0415203206838S11659241EA0074500839000004000000
B0415243206829S11659306EA0074000835000004000000
B0415283206821S11659373EA0073400829000004000000
B0415323206822S11659439EA0072900825000004000000
B0415363206834S11659499EA0073100829000004000000
B0415403206849S11659555EA0073300833000004000000
B0415443206869S11659608EA0073300828000004000000
B0415483206892S11659665EA0072300817000004000000
B0415523206920S11659721EA0071500810000004000000
B0415563206953S11659773EA0070600802000004000000
B0416003206990S11659824EA0070200798000004000000
B0416043207025S11659874EA0069700793000004000000
B0416083207055S11659926EA0069500791000004000000
B0416123207081S11659980EA0069100787000004000000
B0416163207102S11700036EA0068800785000004000000
B0416203207122S11700090EA0068600784000004000000
B0416243207142S11700146EA0068300780000004000000
B0416283207163S11700203EA0068100777000004000000
B0416323207195S11700254EA0068000775000004000000
B0416363207248S11700255EA0068300779000004000000
B0416403207274S11700195EA0068400781000004000000
B0416443207247S11700132EA0068200777000004000000
B0416483207194S11700129EA0067600772000004000000
B0416523207161S11700179EA0067100764000004000000
B0416563207157S11700241EA0066400760000004000000
B0417003207172S11700302EA0066300760000004000000
B0417043207194S11700358EA0066400758000004000000
B0417083207224S11700409EA0066000757000004000000
B0417123207260S11700450EA0065900756000004000000
B0417163207302S11700487EA0065900755000004000000
B0417203207347S11700515EA0066000756000004000000
B0417243207394S11700539EA0065700753000004000000
B0417283207443S11700556EA0064900740000004000000
B0417323207502S11700557EA0063400726000004000000
B0417363207560S11700537EA0063000727000004000000
B0417403207614S11700507EA0063000724000004000000
B0417443207657S11700459EA0063000729000004000000
B0417483207663S11700387EA0063300728000004000000
B0417523207659S11700311EA0063300728000004000000
B0417563207654S11700236EA0063300728000004000000
B0418003207641S11700162EA0063200728000004000000
B0418043207637S11700085EA0063000720000004000000
B0418083207649S11700010EA0062500719000004000000
B0418123207674S11659937EA0062700720000004000000
B0418163207671S11659865EA0062800721000004000000
B0418203207619S11659838EA0062300713000004000000
B0418243207573S11659882EA0061600708000004000000
B0418283207555S11659945EA0060800701000004000000
B0418323207568S11700004EA0060500699000004000000
B0418363207614S11700034EA0060500698000004000000
B0418403207670S11700013EA0060500701000004000000
B0418443207694S11659951EA0061300709000004000000
B0418483207653S11659911EA0061500705000004000000
B0418523207619S11659951EA0060900698000004000000
B0418563207629S11700013EA0060200693000004000000
B0419003207674S11700055EA0060100695000004000000
B0419043207729S11700045EA0060800705000004000000
B0419083207739S11659980EA0061700712000004000000
B0419123207685S11659959EA0061700711000004000000
B0419163207658S11700011EA0062000715000004000000
B0419203207694S11700049EA0062300719000004000000
B0419243207737S11700008EA0063100728000004000000
B0419283207722S11659943EA0063500731000004000000
B0419323207666S11659937EA0063700734000004000000
B0419363207642S11659989EA0064100738000004000000
B0419403207680S11700019EA0064500742000004000000
B0419443207715S11659969EA0064900746000004000000
B0419483207690S11659908EA0065100751000004000000
B0419523207637S11659912EA0065600753000004000000
B0419563207625S11659968EA0065600752000004000000
B0420003207671S11659982EA0066000761000004000000
B0420043207701S11659929EA0066600766000004000000
B0420083207674S11659867EA0066800767000004000000
B0420123207619S11659870EA0066700767000004000000
B0420163207601S11659925EA0066600769000004000000
B0420203207637S11659967EA0066800767000004000000
B0420243207689S11659941EA0067000771000004000000
B0420283207677S11659874EA0067900781000004000000
B0420323207627S11659876EA0068000782000004000000
B0420363207622S11659930EA0067800781000004000000
B0420403207671S11659950EA0068000781000004000000
B0420443207711S11659900EA0068300785000004000000
B0420483207692S11659835EA0068900794000004000000
B0420523207638S11659833EA0069300794000004000000
B0420563207622S11659885EA0069600799000004000000
B0421003207663S11659915EA0069900799000004000000
B0421043207707S11659869EA0070000803000004000000
B0421083207697S11659799EA0071200816000004000000
B0421123207650S11659768EA0071800821000004000000
B0421163207609S11659794EA0072000819000004000000
B0421203207612S11659846EA0071800819000004000000
B0421243207661S11659867EA0072100820000004000000
B0421283207705S11659825EA0072500826000004000000
B0421323207694S11659760EA0073000831000004000000
B0421363207641S11659737EA0073100830000004000000
B0421403207606S11659778EA0073100833000004000000
B0421443207625S11659826EA0073400833000004000000
B0421483207677S11659829EA0073500834000004000000
B0421523207710S11659776EA0073900840000004000000
B0421563207685S11659714EA0074200840000004000000
B0422003207629S11659714EA0074100840000004000000
B0422043207609S11659768EA0074100840000004000000
B0422083207638S11659815EA0074200838000004000000
B0422123207694S11659802EA0074000840000004000000
B0422163207702S11659734EA0074500847000004000000
B0422203207657S11659691EA0074900848000004000000
B0422243207606S11659712EA0074900846000004000000
B0422283207597S11659766EA0075300851000004000000
B0422323207635S11659800EA0075300849000004000000
B0422363207685S11659778EA0075300850000004000000
B0422403207696S11659714EA0075900854000004000000
B0422443207653S11659669EA0075800854000004000000
B0422483207603S11659687EA0075900855000004000000
B0422523207607S11659742EA0076300859000004000000
B0422563207655S11659763EA0076000856000004000000
B0423003207697S11659722EA0076400863000004000000
B0423043207692S11659656EA0077100868000004000000
B0423083207642S11659621EA0077300870000004000000
B0423123207596S11659646EA0077500872000004000000
B0423163207602S11659698EA0077900876000004000000
B0423203207653S11659705EA0077600869000004000000
B0423243207685S11659649EA0077700872000004000000
B0423283207659S11659584EA0077900875000004000000
B0423323207602S11659578EA0077900874000004000000
B0423363207579S11659629EA0078300881000004000000
B0423403207610S11659673EA0078500880000004000000
B0423443207664S11659664EA0078500880000004000000
B0423483207690S11659603EA0078600885000004000000
B0423523207667S11659542EA0079300890000004000000
B0423563207614S11659540EA0079300889000004000000
B0424003207598S11659591EA0079500890000004000000
B0424043207640S11659620EA0079000884000004000000
B0424083207687S11659583EA0079100890000004000000
B0424123207684S11659514EA0079800897000004000000
B0424163207635S11659480EA0080500899000004000000
B0424203207586S11659501EA0080700898000004000000
B0424243207571S11659555EA0080500896000004000000
B0424283207602S11659601EA0079900891000004000000
B0424323207658S11659620EA0079700888000004000000
B0424363207710S11659591EA0080300897000004000000
B0424403207722S11659526EA0081200906000004000000
B0424443207677S11659487EA0082100916000004000000
B0424483207633S11659519EA0082500920000004000000
B0424523207637S11659573EA0082900923000004000000
B0424563207681S11659595EA0083000920000004000000
B0425003207727S11659561EA0082900922000004000000
B0425043207732S11659495EA0083100925000004000000
B0425083207689S11659452EA0083600932000004000000
B0425123207635S11659469EA0084100933000004000000
B0425163207618S11659530EA0084400939000004000000
B0425203207648S11659575EA0084800940000004000000
B0425243207700S11659566EA0084800942000004000000
B0425283207731S11659516EA0085000943000004000000
B0425323207727S11659449EA0085200946000004000000
B0425363207679S11659422EA0085500945000004000000
B0425403207640S11659466EA0085600952000004000000
B0425443207663S11659514EA0086400958000004000000
B0425483207714S11659513EA0086700960000004000000
B0425523207744S11659458EA0086800961000004000000
B0425563207720S11659396EA0087000962000004000000
B0426003207666S11659392EA0087400970000004000000
B0426043207645S11659447EA0088200978000004000000
B0426083207679S11659484EA0088800983000004000000
B0426123207727S11659460EA0089200985000004000000
B0426163207740S11659397EA0089300986000004000000
B0426203207703S11659344EA0089500990000004000000
B0426243207653S11659356EA0090400999000004000000
B0426283207645S11659412EA0090801000000004000000
B0426323207688S11659435EA0091301008000004000000
B0426363207726S11659393EA0091401007000004000000
B0426403207711S11659328EA0091401008000004000000
B0426443207661S11659313EA0092001018000004000000
B0426483207631S11659356EA0093001024000004000000
B0426523207654S11659401EA0093201025000004000000
B0426563207703S11659399EA0093701028000004000000
B0427003207736S11659352EA0093801031000004000000
B0427043207729S11659287EA0094101034000004000000
B0427083207690S11659245EA0094301039000004000000
B0427123207641S11659246EA0094201037000004000000
B0427163207610S11659293EA0094001035000004000000
B0427203207607S11659353EA0094001039000004000000
B0427243207611S11659412EA0094401043000004000000
B0427283207615S11659475EA0094301040000004000000
B0427323207623S11659542EA0093801033000004000000
B0427363207631S11659609EA0093201029000004000000
B0427403207640S11659677EA0093201033000004000000
B0427443207649S11659740EA0093501035000004000000
B0427483207657S11659803EA0093701036000004000000
B0427523207664S11659864EA0093801039000004000000
B0427563207675S11659924EA0093801037000004000000
B0428003207684S11659987EA0092801025000004000000
B0428043207693S11700055EA0091701015000004000000
B0428083207701S11700123EA0091601017000004000000
B0428123207710S11700188EA0091201011000004000000
B0428163207718S11700253EA0090501003000004000000
B0428203207722S11700319EA0089800997000004000000
B0428243207723S11700387EA0089400993000004000000
B0428283207727S11700454EA0088800987000004000000
B0428323207733S11700520EA0088500984000004000000
B0428363207741S11700583EA0088100983000004000000
B0428403207750S11700639EA0087800980000004000000
B0428443207757S11700696EA0087400975000004000000
B0428483207762S11700753EA0086900968000004000000
B0428523207766S11700812EA0086400964000004000000
B0428563207767S11700869EA0085900960000004000000
B0429003207761S11700926EA0085200950000004000000
B0429043207753S11700986EA0084300942000004000000
B0429083207745S11701050EA0083800938000004000000
B0429123207735S11701108EA0083700941000004000000
B0429163207719S11701165EA0083600941000004000000
B0429203207701S11701224EA0084500947000004015000
B0429243207713S11701277EA0085500957000004000000
B0429283207766S11701290EA0085900958000004000000
B0429323207805S11701235EA0085400953000004000000
B0429363207792S11701164EA0085000953000004000000
B0429403207745S11701128EA0085500961000004000000
B0429443207698S11701139EA0086300965000004000000
B0429483207680S11701190EA0086300964000004000000
B0429523207716S11701230EA0086900971000004000000
B0429563207771S11701212EA0087000968000004000000
B0430003207796S11701143EA0086800968000004000000
B0430043207771S11701078EA0087100975000004000000
B0430083207723S11701052EA0087400978000004000000
B0430123207675S11701064EA0087400974000004000000
B0430163207644S11701109EA0087000969000004000000
B0430203207622S11701173EA0087000972000004000000
B0430243207623S11701237EA0088200984000004000000
B0430283207668S11701264EA0088400984000004000000
B0430323207709S11701209EA0088300986000004000000
B0430363207690S11701139EA0088300988000004000000
B0430403207637S11701109EA0088900996000004000000
B0430443207585S11701129EA0089701001000004000000
B0430483207563S11701186EA0090101007000004000000
B0430523207594S11701233EA0091501020000004000000
B0430563207640S11701204EA0092201026000004000000
B0431003207641S11701135EA0092001023000004000000
B0431043207594S11701092EA0092401031000004000000
B0431083207538S11701108EA0092801032000004000000
B0431123207519S11701168EA0093001035000004000000
B0431163207550S11701220EA0093901042000004000000
B0431203207606S11701222EA0094901052000004000000
B0431243207641S11701168EA0095401059000004000000
B0431283207638S11701096EA0095501059000004000000
B0431323207601S11701046EA0096101069000004000000
B0431363207549S11701034EA0096801072000004000000
B0431403207503S11701056EA0096601069000004000000
B0431443207467S11701100EA0096501067000004000000
B0431483207440S11701159EA0096201063000004000000
B0431523207419S11701222EA0096101063000004000000
B0431563207401S11701290EA0096301067000004000000
B0432003207380S11701355EA0096301065000004000000
B0432043207362S11701423EA0095901061000004000000
B0432083207345S11701492EA0095701062000004000000
B0432123207329S11701557EA0095901063000004000000
B0432163207315S11701622EA0095701058000004000000
B0432203207299S11701688EA0095101053000004000000
B0432243207289S11701753EA0095001055000004000000
B0432283207280S11701818EA0094701049000004000000
B0432323207273S11701884EA0094101039000004000000
B0432363207264S11701952EA0093001030000004000000
B0432403207254S11702018EA0092401030000004000000
B0432443207243S11702079EA0092401028000004000000
B0432483207226S11702138EA0092101022000004000000
B0432523207208S11702196EA0091501018000004000000
B0432563207196S11702259EA0091401015000004000000
B0433003207185S11702320EA0090901013000004000000
B0433043207173S11702382EA0090801013000004000000
B0433083207163S11702441EA0091201016000004000000
B0433123207151S11702499EA0091301016000004000000
B0433163207139S11702556EA0091001013000004000000
B0433203207124S11702615EA0090701010000004000000
B0433243207104S11702672EA0090201004000004000000
B0433283207083S11702730EA0090101005000004000000
B0433323207060S11702782EA0090001000000004000000
B0433363207039S11702838EA0088900991000004000000
B0433403207026S11702901EA0088500987000004000000
B0433443207021S11702961EA0088400985000004000000
B0433483207018S11703019EA0088100981000004000000
B0433523207014S11703080EA0087400971000004000000
B0433563207008S11703145EA0086200962000004000000
B0434003207004S11703209EA0086000964000004000000
B0434043206999S11703270EA0086100963000004000000
B0434083206996S11703331EA0085600957000004000000
B0434123206999S11703392EA0085200954000004000000
B0434163207001S11703452EA0085200954000004000000
B0434203207009S11703510EA0085100950000004000000
B0434243207013S11703570EA0084700949000004000000
B0434283207013S11703631EA0085000953000004000000
B0434323207012S11703691EA0085200952000004000000
B0434363207011S11703752EA0085100953000004000000
B0434403207007S11703812EA0085400956000004000000
B0434443207003S11703872EA0085200952000004000000
B0434483206996S11703932EA0084500942000004000000
B0434523206991S11703991EA0083800937000004000000
B0434563206987S11704050EA0083200930000004000000
B0435003206986S11704110EA0082600926000004000000
B0435043206986S11704168EA0082700928000004000000
B0435083206983S11704225EA0082900931000004000000
B0435123206983S11704281EA0082800927000004000000
B0435163206987S11704342EA0081800917000004000000
B0435203206975S11704405EA0081000908000004000000
B0435243206938S11704459EA0080800909000004000000
B0435283206886S11704488EA0081400917000004000000
B0435323206832S11704495EA0081900918000004000000
B0435363206780S11704471EA0081700909000004000000
B0435403206732S11704427EA0080500900000004000000
B0435443206692S11704366EA0079700891000004000000
B0435483206653S11704301EA0079000885000004000000
B0435523206611S11704235EA0079200889000004000000
B0435563206562S11704189EA0080200900000004000000
B0436003206513S11704192EA0081400914000004000000
B0436043206501S11704244EA0081500910000004000000
B0436083206544S11704276EA0081300910000004000000
B0436123206593S11704254EA0081100906000004000000
B0436163206608S11704188EA0080700905000004000000
B0436203206587S11704120EA0080900906000004000000
B0436243206539S11704088EA0081000909000004000000
B0436283206494S11704111EA0081000905000004000000
B0436323206489S11704173EA0080400900000004000000
B0436363206528S11704211EA0081300910000004000000
B0436403206567S11704177EA0081900917000004000000
B0436443206558S11704112EA0081700914000004000000
B0436483206509S11704085EA0081700916000004000000
B0436523206467S11704115EA0081900914000004000000
B0436563206479S11704168EA0081500913000004000000
B0437003206528S11704176EA0082200921000004000000
B0437043206558S11704127EA0083100928000004000000
B0437083206541S11704064EA0083000927000004000000
B0437123206492S11704038EA0083000926000004000000
B0437163206449S11704071EA0082700923000004000000
B0437203206428S11704133EA0082900930000004000000
B0437243206428S11704198EA0083900940000004000000
B0437283206474S11704228EA0084400943000004000000
B0437323206522S11704192EA0084600947000004000000
B0437363206524S11704125EA0084900951000004000000
B0437403206481S11704076EA0085200954000004000000
B0437443206429S11704088EA0085800963000004000000
B0437483206433S11704142EA0087000973000004000000
B0437523206483S11704144EA0087700979000004000000
B0437563206509S11704090EA0088400989000004000000
B0438003206491S11704033EA0089500996000004000000
B0438043206441S11704010EA0089800999000004000000
B0438083206402S11704043EA0090501005000004000000
B0438123206405S11704103EA0090701007000004000000
B0438163206450S11704132EA0091701016000004000000
B0438203206496S11704098EA0092101019000004000000
B0438243206493S11704032EA0092401026000004000000
B0438283206448S11703997EA0093401032000004000000
B0438323206403S11704020EA0093901038000004000000
B0438363206396S11704082EA0094301041000004000000
B0438403206441S11704111EA0095001049000004000000
B0438443206488S11704076EA0095501053000004000000
B0438483206493S11704008EA0095901060000004000000
B0438523206454S11703965EA0096601065000004000000
B0438563206406S11703976EA0096901065000004000000
B0439003206377S11704029EA0096501064000004000000
B0439043206380S11704093EA0097001071000004000000
B0439083206426S11704119EA0098101079000004000000
B0439123206471S11704081EA0098101079000004000000
B0439163206487S11704012EA0097901078000004000000
B0439203206491S11703938EA0098101081000004000000
B0439243206492S11703863EA0098401082000004000000
B0439283206493S11703785EA0098101080000004000000
B0439323206500S11703702EA0098301082000004000000
B0439363206500S11703617EA0098401082000004000000
B0439403206498S11703534EA0098501083000004000000
B0439443206496S11703452EA0098401082000004000000
B0439483206496S11703374EA0098301081000004000000
B0439523206493S11703295EA0097701074000004000000
B0439563206493S11703214EA0096601064000004000000
B0440003206496S11703130EA0096201061000004000000
B0440043206496S11703052EA0096401063000004000000
B0440083206497S11702976EA0096401060000004000000
B0440123206500S11702901EA0096001056000004000000
B0440163206501S11702824EA0095301048000004000000
B0440203206506S11702745EA0094501040000004000000
B0440243206513S11702665EA0094101037000004000000
B0440283206518S11702590EA0094301040000004000000
B0440323206522S11702519EA0094401039000004000000
B0440363206527S11702448EA0094101037000004000000
B0440403206526S11702378EA0093801033000004000000
B0440443206528S11702301EA0093401027000004000000
B0440483206535S11702223EA0092901019000004000000
B0440523206544S11702144EA0092001015000004000000
B0440563206549S11702064EA0092201015000004000000
B0441003206552S11701982EA0092001014000004000000
B0441043206541S11701902EA0092201016000004000000
B0441083206526S11701832EA0093101025000004000000
B0441123206515S11701762EA0092901022000004000000
B0441163206505S11701690EA0092501015000004000000
B0441203206497S11701616EA0092601018000004000000
B0441243206497S11701542EA0092801022000004000000
B0441283206496S11701467EA0092901023000004000000
B0441323206493S11701391EA0092701018000004000000
B0441363206496S11701313EA0092101014000004000000
B0441403206494S11701235EA0092101016000004000000
B0441443206496S11701163EA0092301017000004000000
B0441483206497S11701091EA0092001013000004000000
B0441523206500S11701021EA0091501007000004000000
B0441563206506S11700949EA0090800999000004000000
B0442003206511S11700874EA0090200993000004000000
B0442043206513S11700796EA0090000994000004000000
B0442083206515S11700721EA0090200997000004000000
B0442123206513S11700647EA0090600998000004000000
B0442163206489S11700575EA0090501001000004000000
B0442203206454S11700513EA0090600999000004000000
B0442243206401S11700468EA0090500998000004000000
B0442283206337S11700455EA0091001005000004000000
B0442323206294S11700500EA0091501012000004000000
B0442363206306S11700557EA0092301021000004000000
B0442403206354S11700569EA0093401031000004000000
B0442443206390S11700520EA0094201038000004000000
B0442483206380S11700457EA0094901047000004000000
B0442523206335S11700418EA0095401051000004000000
B0442563206283S11700429EA0095301047000004000000
B0443003206262S11700485EA0095501052000004000000
B0443043206290S11700528EA0096101061000004000000
B0443083206336S11700507EA0097101070000004000000
B0443123206335S11700441EA0097601073000004000000
B0443163206283S11700405EA0097901079000004000000
B0443203206233S11700431EA0098701087000004000000
B0443243206218S11700485EA0099001088000004000000
B0443283206246S11700526EA0099701096000004000000
B0443323206296S11700517EA0100301101000004000000
B0443363206324S11700461EA0101001107000004000000
B0443403206311S11700394EA0101401113000004000000
B0443443206262S11700363EA0102001115000004000000
B0443483206216S11700392EA0102001116000004000000
B0443523206212S11700448EA0101901115000004000000
B0443563206250S11700485EA0102501122000004000000
B0444003206298S11700462EA0102701123000004000000
B0444043206298S11700392EA0103201131000004000000
B0444083206250S11700348EA0104001138000004000000
B0444123206195S11700361EA0104301141000004000000
B0444163206162S11700411EA0104301138000004000000
B0444203206132S11700472EA0104101138000004000000
B0444243206086S11700526EA0103901133000004000000
B0444283206016S11700546EA0103801136000004000000
B0444323205946S11700545EA0104701143000004000000
B0444363205880S11700530EA0105101143000004000000
B0444403205818S11700515EA0104701140000004000000
B0444443205755S11700510EA0104301134000004000000
B0444483205694S11700511EA0103701128000004000000
B0444523205634S11700520EA0103201125000004000000
B0444563205581S11700541EA0103401125000004000000
B0445003205535S11700574EA0103301127000004000000
B0445043205500S11700611EA0103401127000004000000
B0445083205469S11700653EA0103301124000004000000
B0445123205448S11700702EA0103001123000004000000
B0445163205434S11700754EA0102801119000004000000
B0445203205412S11700808EA0102501114000004000000
B0445243205386S11700858EA0102301116000004000000
B0445283205357S11700908EA0102501115000004000000
B0445323205332S11700956EA0102201114000004000000
B0445363205317S11701007EA0102201114000004000000
B0445403205309S11701057EA0101701110000004000000
B0445443205289S11701107EA0101201103000004000000
B0445483205252S11701147EA0100301097000004000000
B0445523205202S11701170EA0100101093000004000000
B0445563205146S11701182EA0099701089000004000000
B0446003205089S11701186EA0099601087000004000000
B0446043205032S11701193EA0099201085000004000000
B0446083204975S11701203EA0098901081000004000000
B0446123204919S11701216EA0098401077000004000000
B0446163204864S11701235EA0098201076000004000000
B0446203204816S11701258EA0098301078000004000000
B0446243204771S11701281EA0098101075000004000000
B0446283204728S11701304EA0097601069000004000000
B0446323204682S11701330EA0096901060000004000000
B0446363204637S11701362EA0096401057000004000000
B0446403204591S11701390EA0095901053000004000000
B0446443204543S11701420EA0095901053000004000000
B0446483204498S11701447EA0096101056000004000000
B0446523204452S11701475EA0096101057000004000000
B0446563204407S11701505EA0096601061000004000000
B0447003204386S11701554EA0097101068000004000000
B0447043204416S11701589EA0097801072000004000000
B0447083204464S11701563EA0097501070000004000000
B0447123204476S11701494EA0097501069000004000000
B0447163204440S11701436EA0097401069000004000000
B0447203204387S11701417EA0097801074000004000000
B0447243204340S11701442EA0098201078000004000000
B0447283204318S11701492EA0099101086000004000000
B0447323204342S11701538EA0099701090000004000000
B0447363204396S11701532EA0100201097000004000000
B0447403204424S11701471EA0100701101000004000000
B0447443204405S11701402EA0100801102000004000000
B0447483204353S11701367EA0100801101000004000000
B0447523204299S11701378EA0101201110000004000000
B0447563204270S11701424EA0102001117000004000000
B0448003204274S11701479EA0102501117000004000000
B0448043204318S11701512EA0102401119000004000000
B0448083204369S11701489EA0103701135000004000000
B0448123204392S11701430EA0104401138000004000000
B0448163204378S11701364EA0104501140000004000000
B0448203204333S11701324EA0104801142000004000000
B0448243204279S11701329EA0104901145000004000000
B0448283204247S11701373EA0105101146000004000000
B0448323204248S11701434EA0104901143000004000000
B0448363204265S11701501EA0104701143000004000000
B0448403204281S11701566EA0105501153000004000000
B0448443204297S11701629EA0106101155000004000000
B0448483204312S11701693EA0105501150000004000000
B0448523204325S11701759EA0105101147000004000000
B0448563204338S11701823EA0104501141000004000000
B0449003204347S11701889EA0104101135000004000000
B0449043204353S11701957EA0103401128000004000000
B0449083204355S11702025EA0102801124000004000000
B0449123204349S11702091EA0102301120000004000000
B0449163204346S11702160EA0101201109000004000000
B0449203204348S11702229EA0100701106000004000000
B0449243204357S11702298EA0100201100000004000000
B0449283204365S11702366EA0099901099000004000000
B0449323204370S11702431EA0100401105000004000000
B0449363204373S11702493EA0100701109000004000000
B0449403204378S11702552EA0100801111000004000000
B0449443204381S11702612EA0101501118000004000000
B0449483204383S11702673EA0101601117000004000000
B0449523204385S11702738EA0101401114000004000000
B0449563204387S11702803EA0100801106000004000000
B0450003204392S11702868EA0100101102000004000000
B0450043204395S11702933EA0099601093000004000000
B0450083204395S11703000EA0098101077000004000000
B0450123204394S11703067EA0097201074000004000000
B0450163204394S11703133EA0096801068000004000000
B0450203204385S11703200EA0096401064000004000000
B0450243204379S11703267EA0096001058000004000000
B0450283204377S11703336EA0095401053000004000000
B0450323204377S11703404EA0095201052000004000000
B0450363204370S11703468EA0094701044000004000000
B0450403204357S11703534EA0093401033000004000000
B0450443204344S11703600EA0092601027000004000000
B0450483204335S11703666EA0092201023000004000000
B0450523204329S11703733EA0091601019000004000000
B0450563204323S11703798EA0091401016000004000000
B0451003204316S11703861EA0090801010000004000000
B0451043204301S11703925EA0090101005000004000000
B0451083204290S11703989EA0089800998000004000000
B0451123204274S11704050EA0088900993000004000000
B0451163204249S11704108EA0088700988000004000000
B0451203204222S11704163EA0088400987000004000000
B0451243204197S11704218EA0088100981000004000000
B0451283204183S11704279EA0087300972000004000000
B0451323204190S11704341EA0087000973000004000000
B0451363204205S11704398EA0087400977000004000000
B0451403204227S11704450EA0087600978000004000000
B0451443204248S11704502EA0087800978000004000000
B0451483204270S11704553EA0087800977000004000000
B0451523204287S11704606EA0087900977000004000000
B0451563204292S11704662EA0087600973000004000000
B0452003204301S11704717EA0087200969000004000000
B0452043204320S11704773EA0086500961000004000000
B0452083204347S11704825EA0086100955000004000000
B0452123204378S11704875EA0085700954000004000000
B0452163204411S11704924EA0085500949000004000000
B0452203204443S11704970EA0085200948000004000000
B0452243204477S11705016EA0085000948000004000000
B0452283204511S11705059EA0085000946000004000000
B0452323204547S11705102EA0084600942000004000000
B0452363204583S11705146EA0084500941000004000000
B0452403204621S11705191EA0084100937000004000000
B0452443204656S11705239EA0083900933000004000000
B0452483204690S11705290EA0083700934000004000000
B0452523204724S11705337EA0083500929000004000000
B0452563204759S11705386EA0082600919000004000000
B0453003204794S11705436EA0081800913000004000000
B0453043204829S11705485EA0081500909000004000000
B0453083204859S11705538EA0081100906000004000000
B0453123204877S11705597EA0080700902000004000000
B0453163204893S11705658EA0080100894000004000000
B0453203204918S11705719EA0079400890000004000000
B0453243204946S11705774EA0079400891000004000000
B0453283204979S11705826EA0079300887000004000000
B0453323205011S11705879EA0078400878000004000000
B0453363205045S11705935EA0077700871000004000000
B0453403205080S11705991EA0077300868000004000000
B0453443205113S11706044EA0077000865000004000000
B0453483205145S11706100EA0076400857000004000000
B0453523205176S11706157EA0076000853000004000000
B0453563205206S11706217EA0075200845000004000000
B0454003205235S11706277EA0075000842000004000000
B0454043205262S11706335EA0074500837000004000000
B0454083205293S11706393EA0073800831000004000000
B0454123205326S11706448EA0073800834000004000000
B0454163205357S11706504EA0073900832000004000000
B0454203205391S11706556EA0073400828000004000000
B0454243205423S11706607EA0073200829000004000000
B0454283205453S11706656EA0073600831000004000000
B0454323205479S11706706EA0073900835000004000000
B0454363205500S11706760EA0074000834000004000000
B0454403205516S11706818EA0074300838000004000000
B0454443205553S11706855EA0075400850000004000000
B0454483205601S11706831EA0075600849000004000000
B0454523205601S11706759EA0075400851000004000000
B0454563205552S11706719EA0075800854000004000000
B0455003205497S11706733EA0075600851000004000000
B0455043205473S11706785EA0076000861000004000000
B0455083205478S11706841EA0076800866000004000000
B0455123205517S11706879EA0076800862000004000000
B0455163205570S11706866EA0076300857000004000000
B0455203205588S11706797EA0075400848000004000000
B0455243205552S11706734EA0075100846000004000000
B0455283205493S11706708EA0075200849000004000000
B0455323205448S11706742EA0076000856000004000000
B0455363205478S11706783EA0076700864000004000000
B0455403205521S11706742EA0077200870000004000000
B0455443205501S11706677EA0077800874000004000000
B0455483205447S11706676EA0077600872000004000000
B0455523205430S11706732EA0077900877000004000000
B0455563205473S11706762EA0078700887000004000000
B0456003205519S11706724EA0079200892000004000000
B0456043205519S11706655EA0080000900000004000000
B0456083205474S11706619EA0079900896000004000000
B0456123205423S11706646EA0079600892000004000000
B0456163205410S11706707EA0079900898000004000000
B0456203205449S11706744EA0080000899000004000000
B0456243205501S11706711EA0080200901000004000000
B0456283205517S11706641EA0080700910000004000000
B0456323205483S11706588EA0081300912000004000000
B0456363205431S11706601EA0080800902000004000000
B0456403205409S11706659EA0080500906000004000000
B0456443205435S11706708EA0081300914000004000000
B0456483205488S11706694EA0081500911000004000000
B0456523205501S11706624EA0081500916000004000000
B0456563205460S11706576EA0081900917000004000000
B0457003205405S11706586EA0081400912000004000000
B0457043205384S11706643EA0081900918000004000000
B0457083205406S11706695EA0082200918000004000000
B0457123205461S11706705EA0081900915000004000000
B0457163205499S11706654EA0081800913000004000000
B0457203205483S11706586EA0081800917000004000000
B0457243205434S11706560EA0082000917000004000000
B0457283205391S11706594EA0082000919000004000000
B0457323205388S11706653EA0082400922000004000000
B0457363205431S11706688EA0082200916000004000000
B0457403205483S11706656EA0081500911000004000000
B0457443205490S11706586EA0081200909000004000000
B0457483205447S11706537EA0081100911000004000000
B0457523205391S11706538EA0081400911000004000000
B0457563205360S11706588EA0081500915000004000000
B0458003205376S11706642EA0081800915000004000000
B0458043205427S11706662EA0081200908000004000000
B0458083205478S11706630EA0080800905000004000000
B0458123205519S11706578EA0080100897000004000000
B0458163205581S11706560EA0079000887000004000000
B0458203205633S11706595EA0078800887000004000000
B0458243205646S11706653EA0079200891000004000000
B0458283205630S11706708EA0078800887000004000000
B0458323205597S11706758EA0078300882000004000000
B0458363205552S11706793EA0078100880000004000000
B0458403205497S11706803EA0077600874000004000000
B0458443205439S11706785EA0077100868000004000000
B0458483205387S11706742EA0077100868000004000000
B0458523205344S11706689EA0077500870000004000000
B0458563205310S11706630EA0077400868000004000000
B0459003205270S11706576EA0076900861000004000000
B0459043205215S11706558EA0076500857000004000000
B0459083205161S11706573EA0076000852000004000000
B0459123205110S11706607EA0075300847000004000000
B0459163205063S11706645EA0074700840000004000000
B0459203205015S11706682EA0074200837000004000000
B0459243204970S11706716EA0073900832000004000000
B0459283204923S11706745EA0073100823000004000000
B0459323204872S11706772EA0072500816000004000000
B0459363204817S11706794EA0071800808000004000000
B0459403204762S11706814EA0070800801000004000000
B0459443204707S11706836EA0070300797000004000000
B0459483204659S11706863EA0070000795000004000000
B0459523204612S11706894EA0069500788000004000000
B0459563204567S11706935EA0069300788000004000000
B0500003204537S11706985EA0069700792000004000000
B0500043204512S11707040EA0069800795000004000000
B0500083204492S11707097EA0070400800000004000000
B0500123204479S11707157EA0070700803000004000000
B0500163204477S11707219EA0070500797000004000000
B0500203204508S11707267EA0070200797000004000000
B0500243204555S11707254EA0070000795000004000000
B0500283204572S11707191EA0069800793000004000000
B0500323204556S11707124EA0070000795000004000000
B0500363204508S11707093EA0070200796000004000000
B0500403204470S11707128EA0070500801000004000000
B0500443204490S11707176EA0070000791000004000000
B0500483204541S11707173EA0069200785000004000000
B0500523204564S11707111EA0069200787000004000000
B0500563204550S11707039EA0069300787000004000000
B0501003204500S11707001EA0069500790000004000000
B0501043204455S11707033EA0069700793000004000000
B0501083204465S11707087EA0070100796000004000000
B0501123204513S11707092EA0070200795000004000000
B0501163204537S11707031EA0069500788000004000000
B0501203204500S11706976EA0070200798000004000000
B0501243204455S11706994EA0070500799000004000000
B0501283204452S11707050EA0070500798000004000000
B0501323204495S11707076EA0070700802000004000000
B0501363204542S11707040EA0070700800000004000000
B0501403204541S11706971EA0071200809000004000000
B0501443204495S11706944EA0071700812000004000000
B0501483204461S11706983EA0071500807000004000000
B0501523204482S11707027EA0071700814000004000000
B0501563204529S11707018EA0072100813000004000000
B0502003204548S11706953EA0071700811000004000000
B0502043204522S11706889EA0072100816000004000000
B0502083204472S11706884EA0072400818000004000000
B0502123204448S11706935EA0072400817000004000000
B0502163204469S11706987EA0072700818000004000000
B0502203204518S11706976EA0072900822000004000000
B0502243204530S11706911EA0072800816000004000000
B0502283204486S11706866EA0072400818000004000000
B0502323204443S11706894EA0073100826000004000000
B0502363204452S11706946EA0073300824000004000000
B0502403204503S11706950EA0073100825000004000000
B0502443204541S11706901EA0073600827000004000000
B0502483204535S11706829EA0073200823000004000000
B0502523204489S11706790EA0073400829000004000000
B0502563204448S11706816EA0074100835000004000000
B0503003204455S11706868EA0073700831000004000000
B0503043204502S11706898EA0073900833000004000000
B0503083204555S11706870EA0074100837000004000000
B0503123204573S11706805EA0074400836000004000000
B0503163204546S11706742EA0074000830000004000000
B0503203204495S11706725EA0073800832000004000000
B0503243204456S11706755EA0074600840000004000000
B0503283204473S11706803EA0074600835000004000000
B0503323204525S11706785EA0074500838000004000000
B0503363204533S11706714EA0074500836000004000000
B0503403204487S11706669EA0074700841000004000000
B0503443204444S11706693EA0075400849000004000000
B0503483204440S11706744EA0075400844000004000000
B0503523204481S11706775EA0075300844000004000000
B0503563204528S11706737EA0075600848000004000000
B0504003204528S11706667EA0075200844000004000000
B0504043204481S11706625EA0075100846000004000000
B0504083204440S11706650EA0075600853000004000000
B0504123204450S11706699EA0075700848000004000000
B0504163204500S11706712EA0075500849000004000000
B0504203204539S11706666EA0075600848000004000000
B0504243204526S11706598EA0075000841000004000000
B0504283204478S11706568EA0074900845000004000000
B0504323204440S11706597EA0075300846000004000000
B0504363204447S11706649EA0075300843000004000000
B0504403204495S11706663EA0075100842000004000000
B0504443204533S11706616EA0075000842000004000000
B0504483204524S11706550EA0074500836000004000000
B0504523204478S11706511EA0074300834000004000000
B0504563204430S11706523EA0074100834000004000000
B0505003204411S11706572EA0074100835000004000000
B0505043204417S11706632EA0074000831000004000000
B0505083204433S11706692EA0073900828000004000000
B0505123204478S11706712EA0074100834000004000000
B0505163204512S11706662EA0074000827000004000000
B0505203204491S11706591EA0073000818000004000000
B0505243204444S11706542EA0072800819000004000000
B0505283204391S11706519EA0073000824000004000000
B0505323204336S11706521EA0073600828000004000000
B0505363204291S11706549EA0074300834000004000000
B0505403204288S11706602EA0074800840000004000000
B0505443204335S11706612EA0075600851000004000000
B0505483204362S11706559EA0076300855000004000000
B0505523204339S11706502EA0076500858000004000000
B0505563204291S11706499EA0076700861000004000000
B0506003204269S11706546EA0077200866000004000000
B0506043204294S11706589EA0078100875000004000000
B0506083204343S11706585EA0078800882000004000000
B0506123204373S11706529EA0079100882000004000000
B0506163204357S11706464EA0078800878000004000000
B0506203204308S11706441EA0079000883000004000000
B0506243204269S11706469EA0079900889000004000000
B0506283204275S11706520EA0080600897000004000000
B0506323204321S11706529EA0081300905000004000000
B0506363204356S11706478EA0081300903000004000000
B0506403204343S11706413EA0081600909000004000000
B0506443204299S11706385EA0082000912000004000000
B0506483204260S11706416EA0082600918000004000000
B0506523204265S11706471EA0083300925000004000000
B0506563204310S11706489EA0084300935000004000000
B0507003204351S11706443EA0084800938000004000000
B0507043204347S11706377EA0085000942000004000000
B0507083204307S11706346EA0085300947000004000000
B0507123204266S11706372EA0085900952000004000000
B0507163204270S11706425EA0086200954000004000000
B0507203204318S11706442EA0087000963000004000000
B0507243204359S11706399EA0087700968000004000000
B0507283204361S11706333EA0087700965000004000000
B0507323204322S11706292EA0087400966000004000000
B0507363204275S11706307EA0088100972000004000000
B0507403204251S11706352EA0088400974000004000000
B0507443204257S11706408EA0088700979000004000000
B0507483204303S11706430EA0089100984000004000000
B0507523204343S11706383EA0089600987000004000000
B0507563204335S11706317EA0089700986000004000000
B0508003204292S11706279EA0089800990000004000000
B0508043204245S11706286EA0090200995000004000000
B0508083204214S11706325EA0090600994000004000000
B0508123204214S11706382EA0090800998000004000000
B0508163204253S11706419EA0091401002000004000000
B0508203204304S11706396EA0091801010000004000000
B0508243204314S11706329EA0092101011000004000000
B0508283204277S11706277EA0092001009000004000000
B0508323204221S11706279EA0092501016000004000000
B0508363204182S11706320EA0093501024000004000000
B0508403204180S11706380EA0094201033000004000000
B0508443204221S11706416EA0095001040000004000000
B0508483204270S11706395EA0095501043000004000000
B0508523204287S11706328EA0095601044000004000000
B0508563204264S11706259EA0095801049000004000000
B0509003204213S11706234EA0096601058000004000000
B0509043204171S11706261EA0097501068000004000000
B0509083204157S11706315EA0098201073000004000000
B0509123204186S11706363EA0098901081000004000000
B0509163204238S11706376EA0099101078000004000000
B0509203204281S11706330EA0099201083000004000000
B0509243204275S11706256EA0099401083000004000000
B0509283204230S11706211EA0100001090000004000000
B0509323204175S11706216EA0100901099000004000000
B0509363204143S11706260EA0101401103000004000000
B0509403204151S11706317EA0102001114000004000000
B0509443204200S11706339EA0102801119000004000000
B0509483204244S11706300EA0103001119000004000000
B0509523204243S11706230EA0102901117000004000000
B0509563204197S11706187EA0103101121000004000000
B0510003204144S11706192EA0103801128000004000000
B0510043204104S11706229EA0104201129000004000000
B0510083204104S11706292EA0104601138000004000000
B0510123204115S11706356EA0105301142000004000000
B0510163204127S11706421EA0105101140000004000000
B0510203204141S11706478EA0105101139000004000000
B0510243204161S11706536EA0105101139000004000000
B0510283204180S11706594EA0105601146000004000000
B0510323204196S11706650EA0107001162000004000000
B0510363204210S11706705EA0108601177000004000000
B0510403204225S11706754EA0109601184000004000000
B0510443204242S11706803EA0110101192000004000000
B0510483204258S11706846EA0111601206000004000000
B0510523204273S11706890EA0112101207000004000000
B0510563204290S11706944EA0111501199000004000000
B0511003204307S11707000EA0111001193000004000000
B0511043204313S11707058EA0110901193000004000000
B0511083204318S11707119EA0111001198000004000000
B0511123204322S11707175EA0111701205000004000000
B0511163204326S11707228EA0111901206000004000000
B0511203204333S11707280EA0111901208000004000000
B0511243204339S11707331EA0112301209000004000000
B0511283204347S11707382EA0112101207000004000000
B0511323204353S11707434EA0112501212000004000000
B0511363204364S11707487EA0112501208000004000000
B0511403204375S11707542EA0112001203000004000000
B0511443204391S11707596EA0112201206000004000000
B0511483204407S11707650EA0112201208000004000000
B0511523204422S11707704EA0112501210000004000000
B0511563204437S11707760EA0113301218000004000000
B0512003204450S11707817EA0113901226000004000000
B0512043204468S11707875EA0114401231000004000000
B0512083204486S11707933EA0115201241000004000000
B0512123204507S11707994EA0116001247000004000000
B0512163204529S11708057EA0117001257000004000000
B0512203204560S11708114EA0117301259000004000000
B0512243204607S11708159EA0117201257000004000000
B0512283204660S11708194EA0117601261000004000000
B0512323204707S11708220EA0118301272000004000000
B0512363204752S11708244EA0118001262000004000000
B0512403204803S11708263EA0116901254000004000000
B0512443204849S11708296EA0116101245000004000000
B0512483204862S11708352EA0115601239000004000000
B0512523204827S11708402EA0114601220000004000000
B0512563204765S11708423EA0113301214000004000000
B0513003204699S11708422EA0112901211000004000000
B0513043204635S11708402EA0112301203000004000000
B0513083204580S11708353EA0111501194000004000000
B0513123204534S11708285EA0110701188000004000000
B0513163204499S11708214EA0110201185000004000000
B0513203204474S11708140EA0109901182000004000000
B0513243204463S11708062EA0109201178000004000000
B0513283204468S11707984EA0109001175000004000000
B0513323204490S11707907EA0108901173000004000000
B0513363204529S11707837EA0109001177000004000000
B0513403204580S11707776EA0109901186000004000000
B0513443204634S11707719EA0110001184000004000000
B0513483204694S11707664EA0109501176000004000000
B0513523204755S11707611EA0108701172000004000000
B0513563204815S11707560EA0108401169000004000000
B0514003204872S11707511EA0107901167000004000000
B0514043204927S11707461EA0107501161000004000000
B0514083204983S11707416EA0106901154000004000000
B0514123205041S11707369EA0106001147000004000000
B0514163205096S11707321EA0105901149000004000000
B0514203205146S11707274EA0105901145000004000000
B0514243205196S11707226EA0105401142000004000000
B0514283205245S11707176EA0105101141000004000000
B0514323205293S11707127EA0104901137000004000000
B0514363205343S11707075EA0104601134000004000000
B0514403205393S11707024EA0104101130000004000000
B0514443205447S11706975EA0103801127000004000000
B0514483205499S11706926EA0103401122000004000000
B0514523205548S11706871EA0103101119000004000000
B0514563205596S11706816EA0102801116000004000000
B0515003205642S11706762EA0102701115000004000000
B0515043205678S11706702EA0103101121000004000000
B0515083205701S11706633EA0104501139000004000000
B0515123205698S11706562EA0106301160000004000000
B0515163205651S11706519EA0107501169000004000000
B0515203205595S11706538EA0107801170000004000000
B0515243205573S11706598EA0107901173000004000000
B0515283205594S11706651EA0108601182000004000000
B0515323205639S11706681EA0109601187000004000000
B0515363205695S11706675EA0109701192000004000000
B0515403205740S11706629EA0110401198000004000000
B0515443205765S11706565EA0110601200000004000000
B0515483205769S11706490EA0110701202000004000000
B0515523205768S11706407EA0110401197000004000000
B0515563205770S11706320EA0109901196000004000000
B0516003205777S11706230EA0109601189000004000000
B0516043205787S11706138EA0109301189000004000000
B0516083205800S11706045EA0109301185000004000000
B0516123205818S11705951EA0108701178000004000000
B0516163205841S11705854EA0107801167000004000000
B0516203205861S11705754EA0106901156000004000000
B0516243205880S11705653EA0106101149000004000000
B0516283205896S11705554EA0105601145000004000000
B0516323205915S11705458EA0105001139000004000000
B0516363205933S11705363EA0104601134000004000000
B0516403205948S11705268EA0103901126000004000000
B0516443205964S11705173EA0103401123000004000000
B0516483205980S11705081EA0103301124000004000000
B0516523205991S11704990EA0103401124000004000000
B0516563205995S11704900EA0103501123000004000000
B0517003205991S11704810EA0103101123000004000000
B0517043205986S11704725EA0103201124000004000000
B0517083205978S11704640EA0103201123000004000000
B0517123205964S11704557EA0102801119000004000000
B0517163205948S11704475EA0102201114000004000000
B0517203205933S11704393EA0101601111000004000000
B0517243205922S11704309EA0101401112000004000000
B0517283205911S11704227EA0102401124000004000000
B0517323205896S11704149EA0103301129000004000000
B0517363205882S11704071EA0103301131000004000000
B0517403205874S11703993EA0104301144000004000000
B0517443205867S11703920EA0105201149000004000000
B0517483205857S11703845EA0104901142000004000000
B0517523205854S11703763EA0104701143000004000000
B0517563205851S11703681EA0104401137000004000000
B0518003205846S11703601EA0104201140000004000000
B0518043205838S11703525EA0104601140000004000000
B0518083205829S11703448EA0103701129000004000000
B0518123205820S11703369EA0102601116000004000000
B0518163205805S11703287EA0101701110000004000000
B0518203205785S11703210EA0101601110000004000000
B0518243205759S11703137EA0101201106000004000000
B0518283205734S11703067EA0101101104000004000000
B0518323205707S11702998EA0100601098000004000000
B0518363205679S11702929EA0100201096000004000000
B0518403205649S11702864EA0100101096000004000000
B0518443205618S11702801EA0100501100000004000000
B0518483205583S11702741EA0101601110000004000000
B0518523205538S11702697EA0101901114000004000000
B0518563205486S11702704EA0102901126000004000000
B0519003205469S11702763EA0103801129000004000000
B0519043205500S11702808EA0103701128000004000000
B0519083205556S11702799EA0103901133000004000000
B0519123205584S11702738EA0104501137000004000000
B0519163205568S11702672EA0105001145000004000000
B0519203205525S11702624EA0106001154000004000000
B0519243205471S11702611EA0107001165000004000000
B0519283205427S11702646EA0107801173000004000000
B0519323205428S11702707EA0108401175000004000000
B0519363205478S11702730EA0108401175000004000000
B0519403205526S11702691EA0108501177000004000000
B0519443205536S11702620EA0108901182000004000000
B0519483205542S11702550EA0109701192000004000000
B0519523205566S11702482EA0110001191000004000000
B0519563205601S11702417EA0109601186000004000000
B0520003205640S11702350EA0109101180000004000000
B0520043205682S11702282EA0108801179000004000000
B0520083205726S11702218EA0108801178000004000000
B0520123205770S11702156EA0108001170000004000000
B0520163205812S11702091EA0107801170000004000000
B0520203205850S11702026EA0107501164000004000000
B0520243205886S11701961EA0107101164000004000000
B0520283205916S11701896EA0107301165000004000000
B0520323205942S11701831EA0107301162000004000000
B0520363205959S11701759EA0106801159000004000000
B0520403205969S11701687EA0106701157000004000000
B0520443205977S11701614EA0106601156000004000000
B0520483205982S11701542EA0106501155000004000000
B0520523205986S11701471EA0106101151000004000000
B0520563205994S11701399EA0105701147000004000000
B0521003206002S11701328EA0105101139000004000000
B0521043206008S11701256EA0104401135000004000000
B0521083206015S11701182EA0104101131000004000000
B0521123206016S11701108EA0104401136000004000000
B0521163206016S11701037EA0105101143000004000000
B0521203206016S11700966EA0104601133000004000000
B0521243206017S11700890EA0103401123000004000000
B0521283206026S11700813EA0102601114000004000000
B0521323206056S11700741EA0101701104000004000000
B0521363206099S11700682EA0100901096000004000000
B0521403206147S11700626EA0100501094000004000000
B0521443206194S11700571EA0100301094000004000000
B0521483206241S11700515EA0100001091000004000000
B0521523206286S11700459EA0099701091000004000000
B0521563206332S11700405EA0099601088000004000000
B0522003206381S11700350EA0099301086000004000000
B0522043206431S11700297EA0099701094000004000000
B0522083206476S11700241EA0099901093000004000000
B0522123206522S11700185EA0099301088000004000000
B0522163206566S11700130EA0098801083000004000000
B0522203206610S11700075EA0098201077000004000000
B0522243206654S11700019EA0097701070000004000000
B0522283206696S11659960EA0096901058000004000000
B0522323206735S11659894EA0095701047000004000000
B0522363206770S11659821EA0095001040000004000000
B0522403206797S11659747EA0095601049000004000000
B0522443206816S11659675EA0096501057000004000000
B0522483206829S11659605EA0096901060000004000000
B0522523206836S11659531EA0097301067000004000000
B0522563206836S11659457EA0098001078000004000000
B0523003206831S11659382EA0098601081000004000000
B0523043206825S11659306EA0098501079000004000000
B0523083206813S11659230EA0098001072000004000000
B0523123206804S11659152EA0097401068000004000000
B0523163206803S11659072EA0097001062000004000000
B0523203206803S11658994EA0096201052000004000000
B0523243206804S11658914EA0095301044000004000000
B0523283206809S11658836EA0094801039000004000000
B0523323206818S11658760EA0094201033000004000000
B0523363206830S11658685EA0093701026000004000000
B0523403206844S11658612EA0093101021000004000000
B0523443206858S11658541EA0092801016000004000000
B0523483206871S11658468EA0092001007000004000000
B0523523206883S11658394EA0091401003000004000000
B0523563206895S11658322EA0091000998000004000000
B0524003206905S11658249EA0090400994000004000000
B0524043206910S11658174EA0089800989000004000000
B0524083206917S11658102EA0089700987000004000000
B0524123206922S11658031EA0089300982000004000000
B0524163206925S11657959EA0088800981000004000000
B0524203206926S11657892EA0088700977000004000000
B0524243206923S11657823EA0088700982000004000000
B0524283206918S11657757EA0089300987000004000000
B0524323206899S11657690EA0090000996000004000000
B0524363206851S11657655EA0091001005000004000000
B0524403206806S11657683EA0091501004000004000000
B0524443206808S11657735EA0091001000000004000000
B0524483206844S11657766EA0091001002000004000000
B0524523206892S11657762EA0091201004000004000000
B0524563206936S11657731EA0091301006000004000000
B0525003206961S11657673EA0091501006000004000000
B0525043206951S11657602EA0091501008000004000000
B0525083206914S11657542EA0092101017000004000000
B0525123206861S11657546EA0092601020000004000000
B0525163206855S11657599EA0093101025000004000000
B0525203206897S11657616EA0093401025000004000000
B0525243206935S11657569EA0093501029000004000000
B0525283206921S11657503EA0094601041000004000000
B0525323206868S11657481EA0095001042000004000000
B0525363206827S11657519EA0095201043000004000000
B0525403206840S11657566EA0095801055000004000000
B0525443206879S11657571EA0096101051000004000000
B0525483206920S11657525EA0095801050000004000000
B0525523206921S11657454EA0096501059000004000000
B0525563206877S11657408EA0096601058000004000000
B0526003206822S11657424EA0096701059000004000000
B0526043206805S11657476EA0097301064000004000000
B0526083206829S11657514EA0097601066000004000000
B0526123206873S11657508EA0098001071000004000000
B0526163206897S11657447EA0098201073000004000000
B0526203206881S11657378EA0098701079000004000000
B0526243206834S11657350EA0098801078000004000000
B0526283206806S11657397EA0098101069000004000000
B0526323206840S11657428EA0098301077000004000000
B0526363206883S11657397EA0099101083000004000000
B0526403206895S11657332EA0099601084000004000000
B0526443206894S11657256EA0098701071000004000000
B0526483206914S11657174EA0098101067000004000000
B0526523206946S11657095EA0098101069000004000000
B0526563206972S11657025EA0099701090000004015000
B0527003206998S11656949EA0099301079000004000000
B0527043207020S11656874EA0099201079000004000000
B0527083207039S11656795EA0098901075000004000000
B0527123207056S11656714EA0098301071000004000000
B0527163207070S11656631EA0097301060000004000000
B0527203207085S11656548EA0096501053000004000000
B0527243207100S11656470EA0096401055000004000000
B0527283207112S11656394EA0096401052000004000000
B0527323207121S11656320EA0096101053000004000000
B0527363207128S11656245EA0096501055000004000000
B0527403207130S11656169EA0096001051000004000000
B0527443207133S11656094EA0096001055000004000000
B0527483207126S11656020EA0095901051000004000000
B0527523207126S11655947EA0095901051000004000000
B0527563207137S11655877EA0095701047000004000000
B0528003207152S11655808EA0095501044000004000000
B0528043207170S11655739EA0095201040000004000000
B0528083207190S11655669EA0094701033000004000000
B0528123207207S11655595EA0094201026000004000000
B0528163207225S11655521EA0093301018000004000000
B0528203207242S11655445EA0092401010000004000000
B0528243207261S11655370EA0092101006000004000000
B0528283207286S11655296EA0091300994000004000000
B0528323207319S11655220EA0090300988000004000000
B0528363207343S11655144EA0089900986000004000000
B0528403207371S11655071EA0089800981000004000000
B0528443207404S11655001EA0089300977000004000000
B0528483207437S11654930EA0088800971000004000000
B0528523207463S11654860EA0089600983000004000000
B0528563207484S11654798EA0090500992000004000000
B0529003207508S11654738EA0090500991000004000000
B0529043207538S11654676EA0090300988000004000000
B0529083207567S11654609EA0089900983000004000000
B0529123207593S11654540EA0089700981000004000000
B0529163207619S11654472EA0089500976000004000000
B0529203207650S11654405EA0089000972000004000000
B0529243207681S11654336EA0088900971000004000000
B0529283207711S11654266EA0088800971000004000000
B0529323207740S11654192EA0088500965000004000000
B0529363207768S11654117EA0088300963000004000000
B0529403207801S11654044EA0088000960000004000000
B0529443207833S11653972EA0087500954000004000000
B0529483207869S11653902EA0086600947000004000000
B0529523207904S11653832EA0086100943000004000000
B0529563207937S11653762EA0085700939000004000000
B0530003207970S11653690EA0085000931000004000000
B0530043207997S11653616EA0084900930000004000000
B0530083208025S11653545EA0084700927000004000000
B0530123208052S11653477EA0084800933000004000000
B0530163208078S11653413EA0085100933000004000000
B0530203208099S11653346EA0085000930000004000000
B0530243208118S11653276EA0084600927000004000000
B0530283208140S11653205EA0084700928000004000000
B0530323208161S11653133EA0085000932000004000000
B0530363208183S11653060EA0084900932000004000000
B0530403208231S11653017EA0085200938000004000000
B0530443208277S11653042EA0086200947000004000000
B0530483208270S11653096EA0087000956000004000000
B0530523208222S11653113EA0087800964000004000000
B0530563208175S11653078EA0087900964000004000000
B0531003208161S11653010EA0088000965000004000000
B0531043208178S11652945EA0088300968000004000000
B0531083208216S11652900EA0088200967000004000000
B0531123208265S11652875EA0088100966000004000000
B0531163208318S11652854EA0088000964000004000000
B0531203208364S11652810EA0088300969000004000000
B0531243208382S11652748EA0089200979000004000000
B0531283208350S11652694EA0089400981000004000000
B0531323208296S11652705EA0089400981000004000000
B0531363208279S11652763EA0089500980000004000000
B0531403208313S11652805EA0089600984000004000000
B0531443208364S11652798EA0089900985000004000000
B0531483208402S11652749EA0089800986000004000000
B0531523208416S11652683EA0090200990000004000000
B0531563208400S11652616EA0090500990000004000000
B0532003208348S11652585EA0090100987000004000000
B0532043208298S11652614EA0090000988000004000000
B0532083208270S11652671EA0090000988000004000000
B0532123208248S11652732EA0090100991000004000000
B0532163208230S11652792EA0090600994000004000000
B0532203208212S11652853EA0090400992000004000000
B0532243208205S11652917EA0090801000000004000000
B0532283208235S11652960EA0091801008000004000000
B0532323208283S11652938EA0092201011000004000000
B0532363208278S11652865EA0092201012000004000000
B0532403208225S11652831EA0092501016000004000000
B0532443208182S11652862EA0093401022000004000000
B0532483208184S11652912EA0094001030000004000000
B0532523208223S11652931EA0094501032000004000000
B0532563208272S11652900EA0094301035000004000000
B0533003208292S11652839EA0095201041000004000000
B0533043208279S11652772EA0095301039000004000000
B0533083208242S11652722EA0094701033000004000000
B0533123208188S11652694EA0094101026000004000000
B0533163208131S11652696EA0093901024000004000000
B0533203208084S11652730EA0093601023000004000000
B0533243208062S11652784EA0093701024000004000000
B0533283208062S11652843EA0093701024000004000000
B0533323208087S11652892EA0093801027000004000000
B0533363208132S11652917EA0093601021000004000000
B0533403208188S11652939EA0092901015000004000000
B0533443208242S11652969EA0093201025000004000000
B0533483208266S11653026EA0094201035000004000000
B0533523208233S11653077EA0095301049000004000000
B0533563208181S11653064EA0096501058000004000000
B0534003208161S11653004EA0097101061000004000000
B0534043208178S11652940EA0097101061000004000000
B0534083208222S11652899EA0097601067000004000000
B0534123208275S11652899EA0098501076000004000000
B0534163208316S11652935EA0099101081000004000000
B0534203208322S11652993EA0099501082000004000000
B0534243208291S11653044EA0100001091000004000000
B0534283208238S11653049EA0100401091000004000000
B0534323208194S11653004EA0100201091000004000000
B0534363208187S11652935EA0100501093000004000000
B0534403208207S11652865EA0101101099000004000000
B0534443208247S11652815EA0102201109000004000000
B0534483208299S11652806EA0102601113000004000000
B0534523208344S11652834EA0102501110000004000000
B0534563208366S11652888EA0102301111000004000000
B0535003208355S11652948EA0102801117000004000000
B0535043208324S11652997EA0103901127000004000000
B0535083208283S11653038EA0104101125000004000000
B0535123208242S11653077EA0103801126000004000000
B0535163208201S11653109EA0104001125000004000000
B0535203208158S11653146EA0103001114000004000000
B0535243208113S11653181EA0102201111000004000000
B0535283208070S11653216EA0101401106000004000000
B0535323208026S11653252EA0101101106000004000000
B0535363207986S11653289EA0101401109000004000000
B0535403207952S11653328EA0101601111000004000000
B0535443207923S11653373EA0101401104000004000000
B0535483207893S11653425EA0100401095000004000000
B0535523207865S11653477EA0100001092000004000000
B0535563207840S11653532EA0099601087000004000000
B0536003207819S11653588EA0099101083000004000000
B0536043207801S11653643EA0098701079000004000000
B0536083207787S11653701EA0098501075000004000000
B0536123207778S11653759EA0097801068000004000000
B0536163207771S11653815EA0097401066000004000000
B0536203207763S11653868EA0097201062000004000000
B0536243207750S11653922EA0096901059000004000000
B0536283207733S11653971EA0096701055000004000000
B0536323207719S11654023EA0095701046000004000000
B0536363207698S11654074EA0095001041000004000000
B0536403207667S11654121EA0094501034000004000000
B0536443207635S11654167EA0094201032000004000000
B0536483207610S11654217EA0094701037000004000000
B0536523207592S11654274EA0094901041000004000000
B0536563207577S11654331EA0095601047000004000000
B0537003207567S11654386EA0096301052000004000000
B0537043207557S11654443EA0095901046000004000000
B0537083207546S11654503EA0095301043000004000000
B0537123207541S11654564EA0095201041000004000000
B0537163207534S11654624EA0095301039000004000000
B0537203207527S11654682EA0094901037000004000000
B0537243207520S11654743EA0094501032000004000000
B0537283207516S11654803EA0094401034000004000000
B0537323207511S11654860EA0094601037000004000000
B0537363207510S11654917EA0095001037000004000000
B0537403207508S11654972EA0094501030000004000000
B0537443207505S11655029EA0093801024000004000000
B0537483207503S11655090EA0093401019000004000000
B0537523207498S11655154EA0092901014000004000000
B0537563207488S11655216EA0092501012000004000000
B0538003207472S11655275EA0092701013000004000000
B0538043207458S11655331EA0092201010000004000000
B0538083207445S11655387EA0092501015000004000000
B0538123207434S11655444EA0093101020000004000000
B0538163207424S11655500EA0093101019000004000000
B0538203207412S11655556EA0093201018000004000000
B0538243207403S11655614EA0093201020000004000000
B0538283207417S11655674EA0093101017000004000000
B0538323207467S11655705EA0093301018000004000000
B0538363207516S11655677EA0092701010000004000000
B0538403207536S11655610EA0091901002000004000000
B0538443207515S11655543EA0090900996000004000000
B0538483207467S11655502EA0090600994000004000000
B0538523207411S11655501EA0090400992000004000000
B0538563207365S11655534EA0090800997000004000000
B0539003207330S11655579EA0091201000000004000000
B0539043207317S11655640EA0091301007000004000000
B0539083207341S11655692EA0092401016000004000000
B0539123207391S11655700EA0092801018000004000000
B0539163207432S11655653EA0093001017000004000000
B0539203207421S11655588EA0093001018000004000000
B0539243207376S11655554EA0093401022000004000000
B0539283207326S11655561EA0093901027000004000000
B0539323207293S11655603EA0094101030000004000000
B0539363207285S11655662EA0094101029000004000000
B0539403207280S11655727EA0093701023000004000000
B0539443207273S11655791EA0093601022000004000000
B0539483207265S11655852EA0093501024000004000000
B0539523207259S11655909EA0093501018000004000000
B0539563207252S11655970EA0092101005000004000000
B0540003207250S11656034EA0091000995000004000000
B0540043207241S11656098EA0090300990000004000000
B0540083207229S11656158EA0089900985000004000000
B0540123207222S11656220EA0088700975000004000000
B0540163207220S11656286EA0087800964000004000000
B0540203207224S11656357EA0087200957000004000000
B0540243207234S11656425EA0086600953000004000000
B0540283207245S11656493EA0086200949000004000000
B0540323207255S11656558EA0085900945000004000000
B0540363207264S11656622EA0085400939000004000000
B0540403207274S11656685EA0084600930000004000000
B0540443207289S11656749EA0084000926000004000000
B0540483207303S11656812EA0084000926000004000000
B0540523207303S11656871EA0084000925000004000000
B0540563207282S11656927EA0083900919000004000000
B0541003207246S11656974EA0083300916000004000000
B0541043207203S11657013EA0083500921000004000000
B0541083207161S11657051EA0083900928000004000000
B0541123207125S11657094EA0084900938000004000000
B0541163207122S11657144EA0085900946000004000000
B0541203207168S11657165EA0085300936000004000000
B0541243207220S11657124EA0084900939000004000000
B0541283207230S11657055EA0086000948000004000000
B0541323207200S11656992EA0086300952000004000000
B0541363207148S11656964EA0086800956000004000000
B0541403207099S11656975EA0086800957000004000000
B0541443207069S11657020EA0086700951000004000000
B0541483207059S11657083EA0085500939000004000000
B0541523207046S11657150EA0085200941000004000000
B0541563207022S11657208EA0085200938000004000000
B0542003206995S11657268EA0084300926000004000000
B0542043206968S11657332EA0083600924000004000000
B0542083206939S11657394EA0083500924000004000000
B0542123206916S11657454EA0083700923000004000000
B0542163206897S11657519EA0083400922000004000000
B0542203206873S11657579EA0083800930000004000000
B0542243206845S11657634EA0084400934000004000000
B0542283206819S11657694EA0083700925000004000000
B0542323206791S11657755EA0083100921000004000000
B0542363206766S11657816EA0083100921000004000000
B0542403206745S11657879EA0082700917000004000000
B0542443206725S11657941EA0082300912000004000000
B0542483206700S11658002EA0082700916000004000000
B0542523206676S11658061EA0083000918000004000000
B0542563206653S11658117EA0082700915000004000000
B0543003206627S11658171EA0083000920000004000000
B0543043206601S11658225EA0083300919000004000000
B0543083206580S11658282EA0082800911000004000000
B0543123206562S11658340EA0082300910000004000000
B0543163206549S11658399EA0081800903000004000000
B0543203206527S11658459EA0080700892000004000000
B0543243206483S11658503EA0080300886000004000000
B0543283206427S11658535EA0079600881000004000000
B0543323206372S11658563EA0079100878000004000000
B0543363206319S11658593EA0078500870000004000000
B0543403206266S11658630EA0077500862000004000000
B0543443206214S11658664EA0077100861000004000000
B0543483206163S11658695EA0076700858000004000000
B0543523206114S11658725EA0076200854000004000000
B0543563206064S11658754EA0076200855000004000000
B0544003206015S11658780EA0076400861000004000000
B0544043205967S11658806EA0076900864000004000000
B0544083205920S11658841EA0077100864000004000000
B0544123205894S11658894EA0077900874000004000000
B0544163205920S11658936EA0078800882000004000000
B0544203205969S11658912EA0078600878000004000000
B0544243205980S11658843EA0079100884000004000000
B0544283205946S11658793EA0079500888000004000000
B0544323205895S11658793EA0079400886000004000000
B0544363205859S11658837EA0079900891000004000000
B0544403205865S11658894EA0080500900000004000000
B0544443205913S11658897EA0081600911000004000000
B0544483205942S11658845EA0082000910000004000000
B0544523205921S11658784EA0082000913000004000000
B0544563205869S11658759EA0082500916000004000000
B0545003205820S11658786EA0083000919000004000000
B0545043205803S11658842EA0083500927000004000000
B0545083205826S11658889EA0084400937000004000000
B0545123205874S11658898EA0085500947000004000000
B0545163205909S11658854EA0086200954000004000000
B0545203205899S11658791EA0086800963000004000000
B0545243205854S11658762EA0087600968000004000000
B0545283205808S11658788EA0087600965000004000000
B0545323205796S11658846EA0088100974000004000000
B0545363205828S11658889EA0089300987000004000000
B0545403205878S11658890EA0090600997000004000000
B0545443205912S11658841EA0091201003000004000000
B0545483205906S11658777EA0092001011000004000000
B0545523205860S11658743EA0093101020000004000000
B0545563205809S11658759EA0094101029000004000000
B0546003205786S11658810EA0094701040000004000000
B0546043205811S11658856EA0096001054000004000000
B0546083205860S11658851EA0097301065000004000000
B0546123205886S11658795EA0098201074000004000000
B0546163205867S11658734EA0099701092000004000000
B0546203205824S11658698EA0100801099000004000000
B0546243205770S11658702EA0100701095000004000000
B0546283205738S11658750EA0101201102000004000000
B0546323205755S11658802EA0102201114000004000000
B0546363205802S11658804EA0103701129000004000000
B0546403205829S11658749EA0104801142000004000000
B0546443205809S11658689EA0106301157000004000000
B0546483205761S11658664EA0107101161000004000000
B0546523205720S11658691EA0107501164000004000000
B0546563205718S11658746EA0108001168000004000000
B0547003205759S11658778EA0108801179000004000000
B0547043205807S11658755EA0110501195000004000000
B0547083205825S11658694EA0111501205000004000000
B0547123205795S11658638EA0112501216000004000000
B0547163205743S11658626EA0113001220000004000000
B0547203205708S11658664EA0113101219000004000000
B0547243205699S11658724EA0113501225000004000000
B0547283205695S11658789EA0114001228000004000000
B0547323205688S11658856EA0113301217000004000000
B0547363205686S11658929EA0112301209000004000000
B0547403205685S11658998EA0112101207000004000000
B0547443205683S11659064EA0111801204000004000000
B0547483205677S11659128EA0112101208000004000000
B0547523205673S11659187EA0112801215000004000000
B0547563205673S11659243EA0112801213000004000000
B0548003205662S11659300EA0112701211000004000000
B0548043205635S11659356EA0112801212000004000000
B0548083205599S11659406EA0112801214000004000000
B0548123205562S11659460EA0113501221000004000000
B0548163205529S11659512EA0113401218000004000000
B0548203205493S11659569EA0112701210000004000000
B0548243205456S11659622EA0112201209000004000000
B0548283205415S11659672EA0112001207000004000000
B0548323205376S11659718EA0112001207000004000000
B0548363205341S11659765EA0112101206000004000000
B0548403205304S11659813EA0111701203000004000000
B0548443205265S11659863EA0112101210000004000000
B0548483205222S11659907EA0112701216000004000000
B0548523205179S11659952EA0112801214000004000000
B0548563205136S11700000EA0112501211000004000000
B0549003205094S11700051EA0111901201000004000000
B0549043205061S11700107EA0111301199000004000000
B0549083205033S11700162EA0111401198000004000000
B0549123205009S11700218EA0110501188000004000000
B0549163204990S11700280EA0109601181000004000000
B0549203204972S11700344EA0109301177000004000000
B0549243204951S11700406EA0108801172000004000000
B0549283204924S11700467EA0108401167000004000000
B0549323204897S11700527EA0108201168000004000000
B0549363204875S11700588EA0108301170000004000000
B0549403204850S11700648EA0108401170000004000000
B0549443204825S11700709EA0107601156000004000000
B0549483204802S11700774EA0106401148000004000000
B0549523204775S11700836EA0106001145000004000000
B0549563204746S11700895EA0105501139000004000000
B0550003204717S11700951EA0104701129000004000000
B0550043204689S11701005EA0104101126000004000000
B0550083204658S11701057EA0103501120000004000000
B0550123204626S11701108EA0103201119000004000000
B0550163204602S11701163EA0103201118000004000000
B0550203204590S11701226EA0102701113000004000000
B0550243204591S11701293EA0102301110000004000000
B0550283204595S11701359EA0101801103000004000000
B0550323204600S11701425EA0101001094000004000000
B0550363204604S11701485EA0101001094000004000000
B0550403204608S11701542EA0100401088000004000000
B0550443204612S11701602EA0099601075000004000000
B0550483204613S11701666EA0098401065000004000000
B0550523204617S11701728EA0097601060000004000000
B0550563204622S11701788EA0097401059000004000000
B0551003204633S11701845EA0097501060000004000000
B0551043204647S11701900EA0097601062000004000000
B0551083204665S11701952EA0097701063000004000000
B0551123204684S11702001EA0097501061000004000000
B0551163204702S11702054EA0097401058000004000000
B0551203204716S11702108EA0097401060000004000000
B0551243204723S11702162EA0097401058000004000000
B0551283204728S11702218EA0097301057000004000000
B0551323204730S11702275EA0096901053000004000000
B0551363204737S11702333EA0096701050000004000000
B0551403204743S11702395EA0095901041000004000000
B0551443204743S11702456EA0095501039000004000000
B0551483204745S11702516EA0095501038000004000000
B0551523204749S11702576EA0095101035000004000000
B0551563204751S11702634EA0094901032000004000000
B0552003204749S11702691EA0094901033000004000000
B0552043204747S11702753EA0094601028000004000000
B0552083204742S11702814EA0094901036000004000000
B0552123204736S11702873EA0095501037000004000000
B0552163204734S11702937EA0095401041000004000000
B0552203204734S11703003EA0095701044000004000000
B0552243204736S11703068EA0095901043000004000000
B0552283204737S11703135EA0095301035000004000000
B0552323204734S11703202EA0094701031000004000000
B0552363204730S11703271EA0094401028000004000000
B0552403204720S11703336EA0094001024000004000000
B0552443204697S11703393EA0094201026000004000000
B0552483204669S11703444EA0094301026000004000000
B0552523204645S11703499EA0093801023000004000000
B0552563204619S11703552EA0093901023000004000000
B0553003204599S11703611EA0093701023000004000000
B0553043204593S11703669EA0094201029000004000000
B0553083204591S11703726EA0094401029000004000000
B0553123204591S11703785EA0094301028000004000000
B0553163204587S11703842EA0094701033000004000000
B0553203204586S11703903EA0094901034000004000000
B0553243204586S11703964EA0095201039000004000000
B0553283204587S11704025EA0094901032000004000000
B0553323204586S11704086EA0094301028000004000000
B0553363204583S11704147EA0094301027000004000000
B0553403204574S11704206EA0093901022000004000000
B0553443204557S11704266EA0093701022000004000000
B0553483204543S11704324EA0093801025000004000000
B0553523204539S11704385EA0094301028000004000000
B0553563204537S11704445EA0094401029000004000000
B0554003204544S11704502EA0094701032000004000000
B0554043204587S11704528EA0094701032000004000000
B0554083204630S11704489EA0094001024000004000000
B0554123204630S11704417EA0093701023000004000000
B0554163204612S11704344EA0093001013000004000000
B0554203204590S11704263EA0092501011000004000000
B0554243204565S11704186EA0093101017000004000000
B0554283204542S11704112EA0093101013000004000000
B0554323204526S11704034EA0092601008000004000000
B0554363204521S11703954EA0092601010000004000000
B0554403204520S11703880EA0092501004000004000000
B0554443204520S11703802EA0091300992000004000000
B0554483204522S11703721EA0091000993000004000000
B0554523204535S11703646EA0092001002000004000000
B0554563204524S11703575EA0092701010000004000000
B0555003204477S11703555EA0093201011000004000000
B0555043204447S11703598EA0093201011000004000000
B0555083204463S11703650EA0093601018000004000000
B0555123204508S11703665EA0094101021000004000000
B0555163204548S11703618EA0094301024000004000000
B0555203204538S11703551EA0094301026000004000000
B0555243204491S11703527EA0094501028000004000000
B0555283204456S11703560EA0094301026000004000000
B0555323204465S11703616EA0094401028000004000000
B0555363204508S11703642EA0095101037000004000000
B0555403204556S11703614EA0095601041000004000000
B0555443204574S11703546EA0095301037000004000000
B0555483204546S11703483EA0095301041000004000000
B0555523204499S11703465EA0095701043000004000000
B0555563204464S11703497EA0095301036000004000000
B0556003204468S11703555EA0095101037000004000000
B0556043204508S11703591EA0095301041000004000000
B0556083204563S11703574EA0095801047000004000000
B0556123204594S11703510EA0096101048000004000000
B0556163204595S11703435EA0095701044000004000000
B0556203204593S11703357EA0095301039000004000000
B0556243204595S11703278EA0094801032000004000000
B0556283204603S11703197EA0093901022000004000000
B0556323204616S11703115EA0092901013000004000000
B0556363204638S11703036EA0092401009000004000000
B0556403204661S11702961EA0091901003000004000000
B0556443204685S11702884EA0091100993000004000000
B0556483204706S11702806EA0090500990000004000000
B0556523204717S11702730EA0090200988000004000000
B0556563204728S11702654EA0089300975000004000000
B0557003204755S11702578EA0088400966000004000000
B0557043204795S11702512EA0088000963000004000000
B0557083204842S11702454EA0088000964000004000000
B0557123204894S11702405EA0087900963000004000000
B0557163204946S11702363EA0087300953000004000000
B0557203205003S11702324EA0086500944000004000000
B0557243205058S11702286EA0086500945000004000000
B0557283205111S11702248EA0086600946000004000000
B0557323205165S11702210EA0086600945000004000000
B0557363205218S11702169EA0086100935000004000000
B0557403205276S11702129EA0084600926000004000000
B0557443205336S11702097EA0084600925000004000000
B0557483205396S11702077EA0084200923000004000000
B0557523205456S11702058EA0083900921000004000000
B0557563205516S11702044EA0083800921000004000000
B0558003205575S11702036EA0083500917000004000000
B0558043205636S11702034EA0082900912000004000000
B0558083205698S11702032EA0082300907000004000000
B0558123205760S11702030EA0081800903000004000000
B0558163205821S11702023EA0081400898000004000000
B0558203205882S11702019EA0080800893000004000000
B0558243205942S11702017EA0080400892000004000000
B0558283206000S11702018EA0080100888000004000000
B0558323206059S11702021EA0079200880000004000000
B0558363206120S11702028EA0078400874000004000000
B0558403206177S11702040EA0078400876000004000000
B0558443206232S11702049EA0078600880000004000000
B0558483206286S11702058EA0078700878000004000000
B0558523206342S11702069EA0078700881000004000000
B0558563206393S11702034EA0079700891000004000000
B0559003206402S11701969EA0080800903000004000000
B0559043206359S11701931EA0081300906000004000000
B0559083206319S11701965EA0082000915000004000000
B0559123206328S11702017EA0083000921000004000000
B0559163206376S11702032EA0083600926000004000000
B0559203206422S11701995EA0083700927000004000000
B0559243206433S11701928EA0083900932000004000000
B0559283206396S11701884EA0084600940000004000000
B0559323206349S11701898EA0085200943000004000000
B0559363206338S11701953EA0085300944000004000000
B0559403206367S11701997EA0086600958000004000000
B0559443206416S11702002EA0086600952000004000000
B0559483206461S11701957EA0086200950000004000000
B0559523206458S11701891EA0086500957000004000000
B0559563206415S11701854EA0086700959000004000000
B0600003206364S11701871EA0086800957000004000000
B0600043206337S11701927EA0086900962000004000000
B0600083206353S11701980EA0087800971000004000000
B0600123206406S11701984EA0087900966000004000000
B0600163206448S11701932EA0087400965000004000000
B0600203206441S11701866EA0087700971000004000000
B0600243206396S11701837EA0088400975000004000000
B0600283206353S11701867EA0088300974000004000000
B0600323206353S11701924EA0089200983000004000000
B0600363206394S11701950EA0089300979000004000000
B0600403206446S11701917EA0088600974000004000000
B0600443206470S11701848EA0088100972000004000000
B0600483206483S11701776EA0088400973000004000000
B0600523206497S11701702EA0088500974000004000000
B0600563206510S11701628EA0088500976000004000000
B0601003206523S11701553EA0088400973000004000000
B0601043206539S11701475EA0088100969000004000000
B0601083206557S11701401EA0087900967000004000000
B0601123206574S11701330EA0087600963000004000000
B0601163206593S11701259EA0087100958000004000000
B0601203206614S11701187EA0086600950000004000000
B0601243206635S11701120EA0086100947000004000000
B0601283206658S11701053EA0085600939000004000000
B0601323206683S11700987EA0085000934000004000000
B0601363206705S11700918EA0084400932000004000000
B0601403206719S11700849EA0085200941000004000000
B0601443206727S11700786EA0085900946000004000000
B0601483206736S11700719EA0085800944000004000000
B0601523206749S11700653EA0086200949000004000000
B0601563206731S11700589EA0086900960000004000000
B0602003206679S11700576EA0087400962000004000000
B0602043206644S11700623EA0087500959000004000000
B0602083206652S11700682EA0088200968000004000000
B0602123206689S11700717EA0088600972000004000000
B0602163206740S11700718EA0088400968000004000000
B0602203206787S11700683EA0088600971000004000000
B0602243206821S11700627EA0088600972000004000000
B0602283206844S11700562EA0088600971000004000000
B0602323206865S11700494EA0088300967000004000000
B0602363206883S11700423EA0087600962000004000000
B0602403206901S11700348EA0087100956000004000000
B0602443206918S11700271EA0086500950000004000000
B0602483206930S11700194EA0085900943000004000000
B0602523206935S11700116EA0085400939000004000000
B0602563206933S11700041EA0085200938000004000000
B0603003206929S11659968EA0085000936000004000000
B0603043206923S11659898EA0084700930000004000000
B0603083206917S11659828EA0084200926000004000000
B0603123206903S11659757EA0083900924000004000000
B0603163206886S11659687EA0083600919000004000000
B0603203206882S11659612EA0083700920000004000000
B0603243206913S11659552EA0084400928000004000000
B0603283206964S11659527EA0085100935000004000000
B0603323207009S11659551EA0085700941000004000000
B0603363207017S11659604EA0085900943000004000000
B0603403206979S11659638EA0086100947000004000000
B0603443206933S11659612EA0086700954000004000000
B0603483206912S11659552EA0087300960000004000000
B0603523206925S11659488EA0087600960000004000000
B0603563206969S11659447EA0088000962000004000000
B0604003207021S11659451EA0087900965000004000000
B0604043207056S11659491EA0088100966000004000000
B0604083207050S11659548EA0088000962000004000000
B0604123207012S11659595EA0087900964000004000000
B0604163206969S11659621EA0088500970000004000000
B0604203206920S11659607EA0088600973000004000000
B0604243206888S11659549EA0088500969000004000000
B0604283206912S11659490EA0088900979000004000000
B0604323206957S11659501EA0089900991000004000000
B0604363206956S11659555EA0090000989000004000000
B0604403206909S11659577EA0090500998000004000000
B0604443206864S11659542EA0091001000000004000000
B0604483206849S11659475EA0091201003000004000000
B0604523206875S11659415EA0091701008000004000000
B0604563206923S11659395EA0092301014000004000000
B0605003206965S11659417EA0092901019000004000000
B0605043206978S11659467EA0093001018000004000000
B0605083206955S11659519EA0092701015000004000000
B0605123206918S11659565EA0093101022000004000000
B0605163206869S11659581EA0093701029000004000000
B0605203206823S11659547EA0093901029000004000000
B0605243206816S11659482EA0093801026000004000000
B0605283206844S11659423EA0093901029000004000000
B0605323206888S11659383EA0094301030000004000000
B0605363206940S11659392EA0094701038000004000000
B0605403206961S11659443EA0095501044000004000000
B0605443206935S11659490EA0095901046000004000000
B0605483206884S11659493EA0096401052000004000000
B0605523206844S11659448EA0096501053000004000000
B0605563206835S11659380EA0096701056000004000000
B0606003206861S11659326EA0097201060000004000000
B0606043206908S11659308EA0097801064000004000000
B0606083206948S11659335EA0098301066000004000000
B0606123206957S11659392EA0098001066000004000000
B0606163206940S11659452EA0098301071000004000000
B0606203206918S11659510EA0098901076000004000000
B0606243206912S11659570EA0099401080000004000000
B0606283206948S11659612EA0099901086000004000000
B0606323207004S11659597EA0100001085000004000000
B0606363207038S11659536EA0100101090000004000000
B0606403207043S11659465EA0100601097000004000000
B0606443207009S11659412EA0100901098000004000000
B0606483206952S11659405EA0100801096000004000000
B0606523206909S11659449EA0101301102000004000000
B0606563206918S11659510EA0101801107000004000000
B0607003206969S11659534EA0102601116000004000000
B0607043207025S11659501EA0103101120000004000000
B0607083207065S11659438EA0103201120000004000000
B0607123207098S11659365EA0102801114000004000000
B0607163207129S11659288EA0102201110000004000000
B0607203207159S11659214EA0102301114000004000000
B0607243207187S11659144EA0102701114000004000000
B0607283207212S11659071EA0102901118000004000000
B0607323207229S11658998EA0103501125000004000000
B0607363207252S11658928EA0104101130000004000000
B0607403207273S11658858EA0105401141000004000000
B0607443207250S11658797EA0106601155000004000000
B0607483207198S11658791EA0106901154000004000000
B0607523207160S11658834EA0106501150000004000000
B0607563207159S11658893EA0106401150000004000000
B0608003207185S11658944EA0106501154000004000000
B0608043207225S11658983EA0107401165000004000000
B0608083207277S11658980EA0107601163000004000000
B0608123207329S11658938EA0107001156000004000000
B0608163207377S11658888EA0107001156000004000000
B0608203207419S11658830EA0106901154000004000000
B0608243207460S11658772EA0107301161000004000000
B0608283207499S11658719EA0107801164000004000000
B0608323207538S11658663EA0107301155000004000000
B0608363207577S11658603EA0106801153000004000000
B0608403207615S11658542EA0106601148000004000000
B0608443207654S11658478EA0105401133000004000000
B0608483207690S11658412EA0104701134000004000000
B0608523207722S11658347EA0105101137000004000000
B0608563207745S11658282EA0106201148000004000000
B0609003207750S11658214EA0107101156000004000000
B0609043207714S11658161EA0107101156000004000000
B0609083207655S11658160EA0107001156000004000000
B0609123207615S11658208EA0107401162000004000000
B0609163207605S11658266EA0108201170000004000000
B0609203207622S11658325EA0107801165000004000000
B0609243207663S11658370EA0107701162000004000000
B0609283207723S11658383EA0106901155000004000000
B0609323207788S11658356EA0107101159000004000000
B0609363207835S11658300EA0107901170000004000000
B0609403207866S11658231EA0108701177000004000000
B0609443207883S11658158EA0109101181000004000000
B0609483207892S11658082EA0108901175000004000000
B0609523207901S11658002EA0108601177000004000000
B0609563207908S11657926EA0109201179000004000000
B0610003207910S11657846EA0109201175000004000000
B0610043207913S11657762EA0108101163000004000000
B0610083207911S11657676EA0107201156000004000000
B0610123207896S11657593EA0106701151000004000000
B0610163207872S11657517EA0106201146000004000000
B0610203207845S11657447EA0105601137000004000000
B0610243207818S11657380EA0105401140000004000000
B0610283207787S11657316EA0106001146000004000000
B0610323207750S11657256EA0106501151000004000000
B0610363207693S11657228EA0106701154000004000000
B0610403207644S11657261EA0107401163000004000000
B0610443207638S11657325EA0108601173000004000000
B0610483207674S11657365EA0108401168000004000000
B0610523207724S11657361EA0108001164000004000000
B0610563207763S11657317EA0107801165000004000000
B0611003207771S11657254EA0108401172000004000000
B0611043207757S11657191EA0108801175000004000000
B0611083207728S11657134EA0109001176000004000000
B0611123207684S11657094EA0108701173000004000000
B0611163207629S11657074EA0107901166000004000000
B0611203207572S11657060EA0108001172000004000000
B0611243207515S11657052EA0108401176000004000000
B0611283207456S11657049EA0108501175000004000000
B0611323207404S11657072EA0108401174000004000000
B0611363207378S11657127EA0107301158000004000000
B0611403207399S11657186EA0106001146000004000000
B0611443207451S11657198EA0104901139000004000000
B0611483207502S11657168EA0104601138000004000000
B0611523207536S11657118EA0104601138000004000000
B0611563207559S11657061EA0105101142000004000000
B0612003207579S11657000EA0104801138000004000000
B0612043207596S11656932EA0104901140000004000000
B0612083207602S11656860EA0105401145000004000000
B0612123207601S11656787EA0106101153000004000000
B0612163207601S11656717EA0106901160000004000000
B0612203207609S11656650EA0106701156000004000000
B0612243207627S11656587EA0106401148000004000000
B0612283207657S11656532EA0106001146000004000000
B0612323207698S11656485EA0106001147000004000000
B0612363207736S11656437EA0106601155000004000000
B0612403207766S11656384EA0107601166000004000000
B0612443207791S11656329EA0108201168000004000000
B0612483207820S11656276EA0108601173000004000000
B0612523207854S11656225EA0108801173000004000000
B0612563207888S11656172EA0108901175000004000000
B0613003207930S11656130EA0109001171000004000000
B0613043207983S11656107EA0108401166000004000000
B0613083208032S11656091EA0108601170000004000000
B0613123208077S11656067EA0108601167000004000000
B0613163208122S11656033EA0107601153000004000000
B0613203208169S11655989EA0107101152000004000000
B0613243208209S11655942EA0107401154000004000000
B0613283208247S11655890EA0107301151000004000000
B0613323208287S11655837EA0106901150000004000000
B0613363208327S11655785EA0107201155000004000000
B0613403208365S11655730EA0107301159000004000000
B0613443208386S11655665EA0107201157000004000000
B0613483208382S11655592EA0107301160000004000000
B0613523208360S11655528EA0108001165000004000000
B0613563208321S11655473EA0107301155000004000000
B0614003208266S11655435EA0106901153000004000000
B0614043208207S11655423EA0107101157000004000000
B0614083208148S11655440EA0106901155000004000000
B0614123208095S11655473EA0106701153000004000000
B0614163208048S11655513EA0106901156000004000000
B0614203208006S11655558EA0106601154000004000000
B0614243207966S11655608EA0106301150000004000000
B0614283207931S11655660EA0106001145000004000000
B0614323207905S11655717EA0105401141000004000000
B0614363207892S11655777EA0105101140000004000000
B0614403207888S11655835EA0105101141000004000000
B0614443207895S11655892EA0105001137000004000000
B0614483207909S11655952EA0104001128000004000000
B0614523207927S11656013EA0103801128000004000000
B0614563207948S11656071EA0103801127000004000000
B0615003207969S11656126EA0103801129000004000000
B0615043207989S11656184EA0103501126000004000000
B0615083208010S11656243EA0103601128000004000000
B0615123208036S11656298EA0103601126000004000000
B0615163208066S11656351EA0102701115000004000000
B0615203208097S11656406EA0101701107000004000000
B0615243208123S11656461EA0101201105000004000000
B0615283208144S11656518EA0100401099000004000000
B0615323208149S11656579EA0099501085000004000000
B0615363208130S11656641EA0097801069000004000000
B0615403208095S11656695EA0097501068000004000000
B0615443208056S11656741EA0097601067000004000000
B0615483208018S11656787EA0096801058000004000000
B0615523207980S11656835EA0096101051000004000000
B0615563207943S11656883EA0095901053000004000000
B0616003207905S11656927EA0096101055000004000000
B0616043207866S11656970EA0096201056000004000000
B0616083207830S11657017EA0096201054000004000000
B0616123207796S11657066EA0095501045000004000000
B0616163207761S11657117EA0094601036000004000000
B0616203207731S11657172EA0093701027000004000000
B0616243207698S11657226EA0093401026000004000000
B0616283207666S11657277EA0093401026000004000000
B0616323207635S11657329EA0093601031000004000000
B0616363207606S11657377EA0094201039000004000000
B0616403207577S11657424EA0094701043000004000000
B0616443207544S11657472EA0095201049000004000000
B0616483207520S11657525EA0095701052000004000000
B0616523207531S11657579EA0096201056000004000000
B0616563207577S11657595EA0095601051000004000000
B0617003207624S11657554EA0095601053000004000000
B0617043207638S11657484EA0096101060000004000000
B0617083207610S11657424EA0097001070000004000000
B0617123207558S11657403EA0097701074000004000000
B0617163207508S11657429EA0098001078000004000000
B0617203207495S11657486EA0098001080000004000000
B0617243207527S11657530EA0098101079000004000000
B0617283207580S11657533EA0098201080000004000000
B0617323207627S11657490EA0098401084000004000000
B0617363207644S11657423EA0099001090000004000000
B0617403207622S11657360EA0099501095000004000000
B0617443207573S11657330EA0100201102000004000000
B0617483207521S11657346EA0100901106000004000000
B0617523207494S11657399EA0100501103000004000000
B0617563207508S11657456EA0100801108000004000000
B0618003207553S11657486EA0101401117000004000000
B0618043207606S11657481EA0102101120000004000000
B0618083207653S11657439EA0101901118000004000000
B0618123207670S11657369EA0102001119000004000000
B0618163207646S11657303EA0102201121000004000000
B0618203207594S11657276EA0102301125000004000000
B0618243207542S11657298EA0102901133000004000000
B0618283207514S11657350EA0103301133000004000000
B0618323207523S11657410EA0103501137000004000000
B0618363207566S11657447EA0104001141000004000000
B0618403207622S11657436EA0103901140000004000000
B0618443207655S11657373EA0104001143000004000000
B0618483207650S11657299EA0104401151000004000000
B0618523207616S11657244EA0105101157000004000000
B0618563207566S11657222EA0105201157000004000000
B0619003207514S11657235EA0105401159000004000000
B0619043207471S11657270EA0105501161000004000000
B0619083207433S11657313EA0104801153000004000000
B0619123207398S11657365EA0104401149000004000000
B0619163207365S11657423EA0103801141000004000000
B0619203207332S11657477EA0103701141000004000000
B0619243207293S11657525EA0103301139000004000000
B0619283207252S11657569EA0103501140000004000000
B0619323207208S11657615EA0103301133000004000000
B0619363207165S11657662EA0103001132000004000000
B0619403207124S11657707EA0102801126000004000000
B0619443207086S11657758EA0102401121000004000000
B0619483207051S11657811EA0102301122000004000000
B0619523207016S11657866EA0102501124000004000000
B0619563206978S11657915EA0102701122000004000000
B0620003206940S11657966EA0102001111000004000000
B0620043206907S11658023EA0101101104000004000000
B0620083206871S11658079EA0100501098000004000000
B0620123206834S11658138EA0100201097000004000000
B0620163206806S11658200EA0100401100000004000000
B0620203206780S11658261EA0100401102000004000000
B0620243206749S11658316EA0101201111000004000000
