ACAM4N6
HFDTE280915
HFFXA050
HFPLTPILOT:JOHN WELSH              
HFGTYGLIDERTYPE:HORNET      
HFGIDGLIDERID:VH-GMY      
HFDTM100GPSDATUM:
HFRFWFIRMWAREVERSION:F2.6
HFRHWHARDWAREVERSION:300 Series Version 2
HFFTYFRTYPE:CAMBRIDGE AERO INSTRUMENTS, 302+
HFGPS:GARMIN,LVS-25,12,18000
HFPRSPRESSALTSENSOR:INTERSEMA, MS5534-AP, 20000
I033638FXA3941ENL4247REX
LCAMSBVER:5FWVER:F26300
C050415050137050415000102
C0000000N00000000WTAKEOFF     
C3207549S11656849EBEVAIR      
C3123325S11712260EWATRCRRN    
C3212499S11757329EBILBARIN    
C3207549S11656849EBEVAIR      
C0000000N00000000WLANDING     
B0435583207740S11657098EA0019800211000000000000
B0436003207740S11657098EA0019900211000000000000
B0436023207740S11657098EA0019900211000000000000
B0436043207740S11657098EA0019900211000000000000
B0436063207740S11657098EA0019900211000000000000
B0436083207740S11657098EA0019800211000000000000
B0436103207740S11657098EA0019800211000000000000
B0436123207740S11657098EA0019900211000000000000
B0436143207740S11657098EA0019800211000000000000
B0436163207740S11657098EA0019800211000000000000
B0436183207740S11657098EA0019900211000000000000
B0436203207740S11657098EA0019800211000000000000
B0436223207740S11657098EA0019800211000000000000
B0436243207740S11657098EA0019800211000000000000
B0436263207739S11657098EA0019800211000000000000
B0436313207720S11657091EA0019700211000000000000
B0436353207687S11657075EA0019700211000000000000
B0436393207638S11657048EA0019700211000000000000
B0436433207580S11657013EA0019500212000000000000
B0436473207514S11656973EA0019500217000000000000
B0436513207446S11656934EA0020800233000000000000
B0436553207377S11656897EA0022300247000000000000
B0436593207315S11656862EA0024500273000000000000
B0437033207254S11656834EA0026600293000000000000
B0437073207193S11656808EA0028200306000000000000
B0437113207125S11656792EA0029300324000000000000
B0437153207060S11656809EA0032100356000000000000
B0437193207001S11656849EA0034400377000000000000
B0437233206948S11656901EA0036300394000000000000
B0437273206895S11656958EA0037400403000000000000
B0437313206838S11657016EA0038600414000000000000
B0437353206782S11657077EA0040400436000000000000
B0437393206732S11657143EA0042900463000000000000
B0437433206678S11657203EA0045100482000000000000
B0437473206622S11657256EA0046500504000000000000
B0437513206571S11657309EA0049000530000000000000
B0437553206522S11657367EA0051500553000000000000
B0437593206471S11657428EA0053100565000000000000
B0438033206422S11657491EA0054300584000000000000
B0438073206376S11657559EA0056200602000000000000
B0438113206340S11657629EA0058100623000000000000
B0438153206305S11657703EA0060300646000000000000
B0438193206262S11657775EA0062600669000000000000
B0438233206206S11657829EA0064700691000000000000
B0438273206138S11657854EA0066900714000000000000
B0438313206073S11657857EA0070000747000000000000
B0438353206010S11657853EA0072400778000000000000
B0438393205947S11657842EA0075300803000000000000
B0438433205887S11657845EA0076700814000000000000
B0438473205850S11657896EA0077400817000000000000
B0438513205874S11657958EA0076800805000000000000
B0438553205938S11657975EA0075500795000000000000
B0438593205995S11657952EA0075300795000000000000
B0439033206038S11657902EA0075100791000000000000
B0439073206059S11657837EA0075300797000000000000
B0439113206020S11657813EA0076500809000000000000
B0439153206004S11657876EA0077300818000000000000
B0439193206052S11657915EA0078500827000000000000
B0439233206095S11657881EA0079400834000000015000
B0439273206080S11657828EA0079700844000000015000
B0439313206030S11657832EA0080600851000000015000
B0439353206006S11657891EA0081200857000000015000
B0439393206028S11657956EA0081700860000000000000
B0439433206084S11657984EA0081800861000000000000
B0439473206137S11657957EA0082600870000000000000
B0439513206150S11657897EA0082900875000000000000
B0439553206111S11657870EA0083900887000000000000
B0439593206071S11657910EA0084600893000000000000
B0440033206072S11657980EA0085100899000000000000
B0440073206123S11658023EA0085500901000000000000
B0440113206182S11658005EA0085800906000000000000
B0440153206197S11657941EA0086300916000000000000
B0440193206164S11657893EA0087000924000000000000
B0440233206115S11657901EA0088200934000000000000
B0440273206088S11657959EA0088700938000000000000
B0440313206108S11658028EA0088600933000000000000
B0440353206172S11658054EA0088300932000000000000
B0440393206224S11658015EA0088900942000000000000
B0440433206207S11657965EA0089900954000000015000
B0440473206164S11657996EA0091000965000000015000
B0440513206188S11658061EA0091200966000000000000
B0440553206247S11658056EA0091300968000000000000
B0440593206260S11657996EA0092000979000000015000
B0441033206223S11657962EA0092900988000000015000
B0441073206177S11657992EA0093700994000000000000
B0441093206179S11658060EA0094500997000000000000
B0441133206228S11658104EA0094800997000000000000
B0441173206286S11658089EA0095301004000000000000
B0441213206298S11658034EA0096001015000000000000
B0441253206254S11658015EA0096501014000000000000
B0441293206215S11658066EA0097101019000000000000
B0441333206237S11658132EA0097801027000000000000
B0441373206296S11658148EA0098601031000000000000
B0441413206337S11658106EA0099001036000000000000
B0441453206320S11658053EA0099301040000000000000
B0441493206267S11658045EA0099501042000000000000
B0441533206223S11658091EA0100201048000000000000
B0441573206229S11658162EA0100101041000000000000
B0442013206284S11658204EA0099001027000000000000
B0442053206353S11658190EA0098401027000000000000
B0442093206396S11658132EA0098801031000000000000
B0442133206379S11658063EA0099301037000000000000
B0442173206319S11658053EA0099801041000000000000
B0442213206279S11658114EA0100301046000000000000
B0442253206286S11658197EA0099901035000000000000
B0442293206345S11658252EA0098801024000000000000
B0442333206419S11658247EA0098601031000000000000
B0442373206472S11658196EA0100101048000000000000
B0442413206491S11658132EA0101401061000000000000
B0442453206455S11658096EA0102201066000000000000
B0442493206406S11658135EA0102001063000000000000
B0442533206427S11658206EA0103001076000000000000
B0442573206491S11658209EA0103701079000000000000
B0443013206520S11658151EA0103901085000000000000
B0443053206492S11658100EA0105001094000000000000
B0443093206439S11658095EA0105601101000000000000
B0443133206396S11658143EA0106301110000000000000
B0443173206388S11658216EA0107501121000000000000
B0443213206418S11658283EA0108001123000000000000
B0443253206476S11658318EA0108201126000000000000
B0443293206535S11658299EA0108601130000000000000
B0443333206554S11658238EA0108801132000000000000
B0443373206520S11658190EA0109201137000000000000
B0443413206474S11658217EA0110501149000000000000
B0443453206472S11658288EA0111101154000000000000
B0443493206513S11658344EA0111201158000000000000
B0443533206571S11658343EA0111601161000000000000
B0443573206597S11658287EA0111401160000000000000
B0444013206574S11658230EA0111801167000000000000
B0444053206526S11658208EA0112901179000000000000
B0444093206475S11658234EA0113801186000000000000
B0444133206442S11658294EA0113901185000000000000
B0444173206445S11658369EA0113201174000000000000
B0444213206494S11658420EA0111801163000000000000
B0444253206562S11658424EA0111001154000000000000
B0444293206630S11658407EA0110901155000000000000
B0444333206695S11658378EA0111401161000000000000
B0444373206756S11658339EA0111801165000000000000
B0444413206812S11658291EA0112201164000000000000
B0444453206853S11658226EA0110401141000000000000
B0444493206907S11658162EA0108401123000000000000
B0444533206975S11658110EA0107201112000000000000
B0444573207050S11658066EA0106401105000000000000
B0445013207129S11658039EA0106301103000000000000
B0445053207207S11658026EA0106401105000000000000
B0445093207284S11658013EA0106601106000000000000
B0445133207359S11657997EA0106901109000000000000
B0445173207425S11657967EA0107001112000000000000
B0445213207459S11657904EA0107401112000000000000
B0445253207443S11657845EA0107001104000000000000
B0445293207398S11657831EA0106301096000000000000
B0445333207349S11657858EA0105001082000000000000
B0445373207307S11657911EA0104801084000000000000
B0445413207274S11657969EA0104701080000000000000
B0445453207243S11658031EA0104201077000000000000
B0445493207209S11658093EA0103401063000000000000
B0445533207159S11658144EA0101801054000000000000
B0445573207098S11658169EA0101501053000000000000
B0446013207035S11658171EA0101101048000000000000
B0446053206975S11658165EA0100301035000000000000
B0446093206913S11658152EA0099201025000000000000
B0446133206851S11658138EA0098801024000000000000
B0446173206790S11658121EA0098701025000000000000
B0446213206730S11658105EA0098801023000000000000
B0446253206669S11658088EA0098901028000000000000
B0446293206609S11658074EA0099001028000000000000
B0446333206550S11658062EA0099201031000000000000
B0446373206492S11658060EA0098901025000000000000
B0446413206429S11658057EA0097601011000000000000
B0446453206366S11658043EA0097001009000000000000
B0446493206303S11658034EA0096701004000000000000
B0446533206240S11658022EA0096200995000000000000
B0446573206173S11658023EA0095600993000000000000
B0447013206110S11658032EA0095600996000000000000
B0447053206047S11658044EA0095900997000000000000
B0447093205986S11658056EA0095900994000000000000
B0447133205925S11658070EA0095400991000000000000
B0447173205864S11658086EA0095200986000000000000
B0447213205803S11658100EA0094700978000000000000
B0447253205739S11658102EA0094100973000000000000
B0447293205678S11658080EA0093700971000000000000
B0447333205629S11658035EA0093200961000000000000
B0447373205592S11657970EA0092100950000000000000
B0447413205565S11657894EA0091000939000000000000
B0447453205543S11657813EA0089800927000000000000
B0447493205526S11657727EA0088900919000000000000
B0447533205513S11657641EA0088000912000000000000
B0447573205505S11657555EA0087200904000000000000
B0448013205508S11657467EA0087000903000000000000
B0448053205490S11657386EA0087400912000000000000
B0448093205435S11657374EA0089300935000000000000
B0448133205425S11657447EA0090800939000000000000
B0448173205482S11657491EA0089600927000000000000
B0448213205545S11657463EA0089400931000000000000
B0448253205581S11657397EA0089700937000000000000
B0448293205569S11657326EA0090800950000000000000
B0448333205516S11657315EA0092400963000000000000
B0448373205495S11657377EA0093700976000000000000
B0448413205531S11657439EA0094700987000000000000
B0448453205594S11657446EA0095100991000000000000
B0448493205623S11657390EA0095300996000000000000
B0448533205586S11657354EA0096401011000000000000
B0448573205548S11657397EA0097601020000000000000
B0449013205573S11657464EA0098101026000000000000
B0449053205635S11657473EA0098701030000000000000
B0449093205665S11657419EA0099001036000000000000
B0449133205642S11657372EA0100201048000000000000
B0449173205596S11657369EA0100701049000000000000
B0449213205560S11657415EA0100301043000000000000
B0449253205561S11657493EA0099801040000000000000
B0449293205612S11657550EA0100001045000000000000
B0449333205682S11657550EA0100001040000000000000
B0449373205729S11657495EA0100101046000000000000
B0449413205738S11657428EA0100501049000000000000
B0449453205711S11657373EA0100601049000000000000
B0449493205668S11657333EA0100101040000000000000
B0449533205616S11657307EA0099001029000000000000
B0449573205560S11657286EA0098401025000000000000
B0450013205505S11657269EA0098401023000000000000
B0450053205451S11657248EA0097901018000000000000
B0450093205397S11657221EA0097701014000000000000
B0450133205339S11657196EA0097401009000000000000
B0450173205278S11657169EA0097101007000000000000
B0450213205215S11657143EA0097301013000000000000
B0450253205157S11657121EA0098001021000000000000
B0450293205101S11657105EA0099001031000000000000
B0450333205057S11657142EA0100301044000000000000
B0450373205068S11657212EA0101401052000000000000
B0450413205126S11657252EA0101101048000000000000
B0450453205192S11657243EA0100801045000000000000
B0450493205237S11657199EA0100601044000000000000
B0450533205252S11657139EA0100901048000000000000
B0450573205237S11657082EA0101201049000000000000
B0451013205206S11657031EA0100901045000000000000
B0451053205162S11657001EA0101001050000000000000
B0451093205116S11657021EA0101401054000000000000
B0451133205115S11657088EA0101901058000000000000
B0451173205168S11657127EA0102001058000000000000
B0451213205222S11657098EA0101801055000000000000
B0451253205220S11657036EA0102001062000000000000
B0451293205175S11657022EA0102201064000000000000
B0451333205146S11657078EA0102401066000000000000
B0451373205170S11657150EA0102501069000000000000
B0451413205231S11657177EA0103001073000000000000
B0451453205276S11657139EA0103101070000000000000
B0451493205263S11657074EA0102801070000000000000
B0451533205213S11657064EA0103201077000000000000
B0451573205191S11657124EA0104301083000000000000
B0452013205224S11657187EA0104101084000000000000
B0452053205289S11657200EA0104301085000000000000
B0452093205332S11657151EA0104101086000000000000
B0452133205321S11657086EA0105001095000000000000
B0452173205274S11657066EA0105201096000000000000
B0452213205246S11657118EA0106101104000000000000
B0452253205278S11657182EA0105901101000000000000
B0452293205343S11657203EA0105901102000000000000
B0452333205396S11657168EA0106301111000000000000
B0452373205402S11657111EA0106801110000000000000
B0452413205365S11657073EA0106001098000000000000
B0452453205313S11657048EA0105201093000000000000
B0452493205257S11657026EA0104701089000000000000
B0452533205202S11657009EA0104301083000000000000
B0452573205146S11656991EA0103901079000000000000
B0453013205093S11656970EA0103101072000000000000
B0453053205042S11656942EA0102401062000000000000
B0453093205001S11656897EA0101401050000000000000
B0453133204975S11656831EA0100201039000000000000
B0453173204964S11656753EA0099201029000000000000
B0453213204967S11656671EA0098301020000000000000
B0453253204972S11656588EA0097401007000000000000
B0453293204976S11656505EA0096200999000000000000
B0453333204973S11656424EA0096201005000000000000
B0453373204946S11656357EA0097501018000000000000
B0453413204895S11656346EA0099101031000000000000
B0453453204881S11656410EA0100501043000000000000
B0453493204927S11656459EA0100701045000000000000
B0453533204988S11656444EA0100301042000000000000
B0453573205009S11656384EA0101301052000000000000
B0454013204972S11656360EA0101001051000000000000
B0454053204940S11656406EA0101301055000000000000
B0454093204963S11656470EA0101801061000000000000
B0454133205023S11656490EA0102001060000000000000
B0454173205075S11656454EA0102401070000000000000
B0454213205066S11656403EA0103401076000000000000
B0454253205023S11656411EA0103301073000000000000
B0454293205009S11656474EA0103801084000000000000
B0454333205050S11656524EA0104601089000000000000
B0454373205114S11656529EA0104401086000000000000
B0454413205159S11656483EA0104901095000000000000
B0454453205149S11656427EA0105501096000000000000
B0454493205105S11656428EA0105401097000000000000
B0454533205080S11656485EA0105901102000000000000
B0454573205106S11656552EA0106301106000000000000
B0455013205170S11656587EA0106401105000000000000
B0455053205237S11656571EA0106201100000000000000
B0455093205276S11656514EA0105601098000000000000
B0455133205278S11656445EA0105601098000000000000
B0455173205245S11656392EA0105001093000000000000
B0455213205200S11656358EA0104101079000000000000
B0455253205148S11656334EA0103501073000000000000
B0455293205089S11656314EA0102301057000000000000
B0455333205032S11656284EA0100801041000000000000
B0455373204980S11656236EA0099801029000000000000
B0455413204928S11656189EA0098901022000000000000
B0455453204868S11656163EA0098301017000000000000
B0455493204808S11656150EA0098301019000000000000
B0455533204750S11656150EA0098301017000000000000
B0455573204694S11656145EA0098501019000000000000
B0456013204642S11656138EA0098901022000000000000
B0456053204609S11656184EA0099301027000000000000
B0456093204632S11656243EA0099601028000000000000
B0456133204694S11656258EA0099301025000000000000
B0456173204743S11656211EA0098801020000000000000
B0456213204746S11656147EA0098401016000000000000
B0456253204711S11656106EA0098101014000000000000
B0456293204663S11656080EA0097801010000000000000
B0456333204611S11656064EA0097601007000000000000
B0456373204556S11656056EA0097201003000000000000
B0456413204502S11656047EA0096900999000000000000
B0456453204451S11656022EA0096600998000000000000
B0456493204411S11655976EA0096800998000000000000
B0456533204388S11655913EA0096600993000000000000
B0456573204378S11655842EA0096000990000000000000
B0457013204381S11655766EA0095400983000000000000
B0457053204392S11655690EA0094700978000000000000
B0457093204409S11655613EA0094400976000000000000
B0457133204427S11655539EA0093800967000000000000
B0457173204448S11655462EA0092100951000000000000
B0457213204473S11655385EA0091200944000000000000
B0457253204504S11655309EA0090900940000000000000
B0457293204538S11655236EA0090400934000000000000
B0457333204569S11655163EA0090000929000000000000
B0457373204596S11655092EA0089500924000000000000
B0457413204621S11655019EA0088900919000000000000
B0457453204647S11654947EA0088500912000000000000
B0457493204681S11654880EA0087800905000000000000
B0457533204726S11654815EA0087000897000000000000
B0457573204781S11654759EA0085900888000000000000
B0458013204842S11654707EA0085300882000000000000
B0458053204902S11654656EA0085400884000000000000
B0458093204960S11654609EA0085000875000000000000
B0458133205022S11654561EA0084100868000000000000
B0458173205077S11654509EA0083900868000000000000
B0458213205113S11654442EA0083600863000000000000
B0458253205137S11654368EA0082900855000000000000
B0458293205153S11654293EA0082800856000000000000
B0458333205152S11654223EA0081900848000000000000
B0458373205148S11654149EA0081200840000000000000
B0458413205155S11654075EA0080400831000000000000
B0458453205179S11653998EA0079400821000000000000
B0458493205217S11653927EA0079100820000000000000
B0458533205266S11653866EA0078700814000000000000
B0458573205326S11653811EA0077800806000000000000
B0459013205387S11653763EA0077900808000000000000
B0459053205447S11653718EA0078000806000000000000
B0459093205508S11653675EA0077400799000000000000
B0459133205571S11653633EA0076800789000000000000
B0459173205635S11653589EA0076100779000000000000
B0459213205700S11653545EA0074800773000000000000
B0459253205755S11653493EA0075600785000000000000
B0459293205746S11653434EA0077200799000000000000
B0459333205703S11653474EA0078400810000000000000
B0459373205722S11653545EA0078500810000000000000
B0459413205782S11653573EA0078200809000000000000
B0459453205842S11653547EA0078300810000000000000
B0459493205869S11653487EA0078200811000000000000
B0459533205843S11653437EA0079100823000000000000
B0459573205807S11653487EA0080000828000000000000
B0500013205850S11653549EA0080500838000000000000
B0500053205907S11653523EA0081700852000000000000
B0500093205898S11653468EA0083100865000000000000
B0500133205851S11653478EA0084400875000000000000
B0500173205850S11653550EA0084600873000000000000
B0500213205911S11653589EA0085300889000000000000
B0500253205959S11653554EA0087000905000000000000
B0500293205938S11653510EA0088100916000000000000
B0500333205895S11653537EA0088700916000000000000
B0500373205911S11653612EA0088700921000000000000
B0500413205973S11653642EA0089900935000000000000
B0500453206016S11653602EA0091200948000000000000
B0500493205997S11653556EA0092000955000000000000
B0500533205952S11653575EA0092800962000000000000
B0500573205939S11653641EA0094000975000000000000
B0501013205977S11653705EA0094400976000000000000
B0501053206041S11653698EA0094400976000000000000
B0501093206052S11653640EA0095000986000000000000
B0501133206015S11653615EA0096300999000000000000
B0501173205977S11653654EA0097201008000000000000
B0501213205981S11653727EA0097601010000000000000
B0501253206032S11653780EA0097301003000000000000
B0501293206104S11653777EA0096901002000000000000
B0501333206149S11653724EA0096600997000000000000
B0501373206146S11653658EA0096501002000000000000
B0501413206108S11653630EA0097701011000000000000
B0501453206101S11653701EA0098201019000000000000
B0501493206162S11653740EA0099101029000000000000
B0501533206212S11653706EA0100401042000000000000
B0501573206207S11653651EA0100701042000000000000
B0502013206162S11653656EA0100801045000000000000
B0502053206171S11653729EA0101601052000000000000
B0502093206238S11653745EA0101801056000000000000
B0502133206273S11653690EA0102401063000000000000
B0502173206244S11653647EA0102901067000000000000
B0502213206199S11653673EA0103601073000000000000
B0502253206202S11653745EA0104001077000000000000
B0502293206258S11653792EA0104301081000000000000
B0502333206322S11653781EA0104901090000000000000
B0502373206366S11653737EA0105501092000000000000
B0502413206376S11653676EA0105101089000000000000
B0502453206349S11653627EA0104501081000000000000
B0502493206298S11653628EA0104101078000000000000
B0502533206267S11653688EA0104101078000000000000
B0502573206281S11653770EA0104001077000000000000
B0503013206340S11653831EA0103601076000000000000
B0503053206414S11653845EA0104401087000000000000
B0503093206467S11653806EA0105401095000000000000
B0503133206478S11653742EA0105001089000000000000
B0503173206449S11653689EA0104201079000000000000
B0503213206396S11653673EA0103801075000000000000
B0503253206344S11653695EA0104401084000000000000
B0503293206329S11653760EA0104801085000000000000
B0503333206371S11653822EA0103901073000000000000
B0503373206445S11653827EA0103601076000000000000
B0503413206487S11653779EA0104101078000000000000
B0503453206488S11653718EA0103601071000000000000
B0503493206474S11653655EA0102801062000000000000
B0503533206457S11653591EA0102201058000000000000
B0503573206432S11653534EA0101801052000000000000
B0504013206400S11653482EA0101301048000000000000
B0504053206367S11653430EA0101401044000000000000
B0504093206333S11653378EA0100701040000000000000
B0504133206293S11653337EA0100401037000000000000
B0504173206246S11653338EA0100501039000000000000
B0504213206240S11653404EA0100601038000000000000
B0504253206285S11653472EA0099701031000000000000
B0504293206341S11653538EA0099601029000000000000
B0504333206400S11653602EA0099301025000000000000
B0504373206458S11653664EA0099001023000000000000
B0504413206517S11653725EA0098301017000000000000
B0504453206578S11653786EA0097801011000000000000
B0504493206640S11653851EA0097201005000000000000
B0504533206700S11653923EA0096500997000000000000
B0504573206753S11654000EA0096100994000000000000
B0505013206803S11654078EA0095700989000000000000
B0505053206849S11654156EA0095400985000000000000
B0505093206895S11654231EA0095600991000000000000
B0505133206942S11654303EA0096000995000000000000
B0505173206986S11654373EA0095900991000000000000
B0505213207029S11654443EA0095500988000000000000
B0505253207068S11654511EA0095200983000000000000
B0505293207105S11654581EA0095100982000000000000
B0505333207138S11654654EA0094900981000000000000
B0505373207165S11654732EA0094800979000000000000
B0505413207189S11654810EA0095100986000000000000
B0505453207216S11654885EA0095200984000000000000
B0505493207242S11654962EA0094300972000000000000
B0505533207260S11655045EA0093600964000000000000
B0505573207272S11655129EA0092500951000000000000
B0506013207281S11655218EA0091100932000000000000
B0506053207290S11655314EA0089600915000000000000
B0506093207300S11655411EA0087600904000000000000
B0506133207313S11655506EA0087100903000000000000
B0506173207328S11655596EA0087300904000000000000
B0506213207341S11655682EA0087600910000000000000
B0506253207352S11655764EA0088100914000000000000
B0506293207365S11655844EA0088600921000000000000
B0506333207380S11655925EA0089000921000000000000
B0506373207393S11656006EA0088800918000000000000
B0506413207402S11656086EA0088400913000000000000
B0506453207399S11656165EA0088200913000000000000
B0506493207378S11656237EA0088400916000000000000
B0506533207343S11656292EA0088500919000000000000
B0506573207295S11656323EA0088700918000000000000
B0507013207242S11656333EA0088400912000000000000
B0507053207186S11656321EA0087800907000000000000
B0507093207135S11656295EA0087400904000000000000
B0507133207089S11656259EA0087600906000000000000
B0507173207047S11656211EA0087600905000000000000
B0507213207003S11656164EA0087100899000000000000
B0507253206957S11656116EA0086300890000000000000
B0507293206910S11656071EA0085500883000000000000
B0507333206865S11656024EA0084900878000000000000
B0507373206818S11655982EA0083900867000000000000
B0507413206778S11655931EA0082900856000000000000
B0507453206749S11655866EA0081700842000000000000
B0507493206732S11655791EA0080800835000000000000
B0507533206725S11655712EA0080600836000000000000
B0507573206718S11655635EA0081000843000000000000
B0508013206708S11655564EA0081700848000000000000
B0508053206696S11655495EA0082200852000000000000
B0508093206691S11655426EA0083200863000000000000
B0508133206730S11655376EA0084100871000000000000
B0508173206787S11655404EA0084200869000000000000
B0508213206804S11655478EA0083800865000000000000
B0508253206779S11655540EA0084000868000000000000
B0508293206732S11655580EA0084100870000000000000
B0508333206676S11655591EA0084500870000000000000
B0508373206623S11655566EA0084100870000000000000
B0508413206582S11655522EA0084600876000000000000
B0508453206572S11655460EA0085900889000000000000
B0508493206615S11655424EA0086600892000000000000
B0508533206674S11655448EA0085300877000000000000
B0508573206696S11655522EA0085100879000000000000
B0509013206669S11655584EA0085700887000000000000
B0509053206621S11655622EA0086200891000000000000
B0509093206566S11655627EA0086800898000000000000
B0509133206523S11655593EA0087200900000000000000
B0509173206504S11655536EA0086900897000000000000
B0509213206509S11655471EA0086700891000000000000
B0509253206523S11655401EA0085500879000000000000
B0509293206543S11655324EA0084700875000000000000
B0509333206567S11655248EA0084300871000000000000
B0509373206597S11655171EA0083800867000000000000
B0509413206628S11655094EA0083300862000000000000
B0509453206660S11655018EA0082600856000000000000
B0509493206691S11654941EA0082300852000000000000
B0509533206708S11654864EA0082400858000000000000
B0509573206680S11654819EA0084300879000000000000
B0510013206639S11654852EA0085200879000000000000
B0510053206657S11654924EA0085100885000000000000
B0510093206719S11654923EA0085500890000000000000
B0510133206722S11654868EA0086000896000000000000
B0510173206679S11654860EA0086600896000000000000
B0510213206643S11654910EA0086200897000000000000
B0510253206644S11654982EA0087100908000000000000
B0510293206701S11655007EA0087600907000000000000
B0510333206738S11654956EA0087400907000000000000
B0510373206723S11654893EA0087300911000000000000
B0510413206674S11654890EA0087700912000000000000
B0510453206652S11654951EA0088200922000000000000
B0510493206684S11655012EA0089300931000000000000
B0510533206747S11655019EA0089900936000000000000
B0510573206777S11654963EA0090200939000000000000
B0511013206745S11654923EA0090600943000000000000
B0511053206705S11654960EA0090600944000000000000
B0511093206714S11655029EA0091400957000000000000
B0511133206767S11655070EA0092500966000000000000
B0511173206826S11655054EA0092900968000000000000
B0511213206847S11654995EA0093100968000000000000
B0511253206813S11654954EA0093200971000000000000
B0511293206766S11654977EA0093400970000000000000
B0511333206754S11655047EA0093800977000000000000
B0511373206797S11655106EA0094300978000000000000
B0511413206865S11655102EA0093900977000000000000
B0511453206900S11655045EA0094200981000000000000
B0511493206879S11654985EA0094900986000000000000
B0511533206830S11654979EA0094800980000000000000
B0511573206790S11655032EA0094200982000000000000
B0512013206787S11655107EA0095200994000000000000
B0512053206827S11655170EA0095800997000000000000
B0512093206892S11655181EA0096401003000000000000
B0512133206938S11655136EA0096200998000000000000
B0512173206927S11655073EA0095800997000000000000
B0512213206888S11655027EA0095700995000000000000
B0512253206840S11654990EA0095300989000000000000
B0512293206783S11654959EA0094500977000000000000
B0512333206732S11654911EA0093700973000000000000
B0512373206705S11654842EA0094100977000000000000
B0512413206697S11654769EA0094200979000000000000
B0512453206732S11654709EA0094900986000000000000
B0512493206801S11654711EA0094900980000000000000
B0512533206853S11654772EA0094000971000000000000
B0512573206888S11654852EA0092900962000000000000
B0513013206931S11654930EA0092200954000000000000
B0513053206977S11655007EA0091300947000000000000
B0513093207037S11655072EA0091400949000000000000
B0513133207095S11655133EA0091300946000000000000
B0513173207155S11655196EA0090800940000000000000
B0513213207217S11655253EA0090700944000000000000
B0513253207285S11655292EA0091100947000000000000
B0513293207349S11655337EA0090900940000000000000
B0513333207410S11655393EA0090100931000000000000
B0513373207469S11655453EA0089100921000000000000
B0513413207527S11655518EA0088600917000000000000
B0513453207577S11655587EA0088500919000000000000
B0513493207622S11655657EA0088600917000000000000
B0513533207668S11655726EA0088400915000000000000
B0513573207713S11655796EA0088100912000000000000
B0514013207768S11655857EA0087900910000000000000
B0514053207831S11655909EA0087600908000000000000
B0514093207891S11655956EA0087700908000000000000
B0514133207953S11655993EA0087400903000000000000
B0514173208019S11656000EA0086900896000000000000
B0514213208080S11655968EA0085400884000000000000
B0514253208118S11655907EA0084700877000000000000
B0514293208131S11655838EA0084700877000000000000
B0514333208123S11655765EA0083600863000000000000
B0514373208104S11655690EA0082500851000000000000
B0514413208062S11655632EA0081800847000000000000
B0514453208002S11655608EA0081300838000000000000
B0514493207935S11655616EA0081100842000000000000
B0514533207872S11655645EA0081900852000000000000
B0514573207885S11655718EA0083600868000000000000
B0515013207943S11655700EA0084500888000000000000
B0515053207926S11655652EA0085600897000000000000
B0515093207878S11655670EA0085400893000000000000
B0515133207863S11655739EA0085600896000000000000
B0515173207904S11655796EA0086100901000000000000
B0515213207961S11655782EA0086600905000000000000
B0515253207965S11655723EA0087500915000000000000
B0515293207918S11655733EA0087800917000000000000
B0515333207910S11655800EA0088300924000000000000
B0515373207962S11655829EA0088200918000000000000
B0515413208010S11655790EA0088400928000000000000
B0515453208012S11655731EA0089300933000000000000
B0515493207966S11655703EA0088900922000000000000
B0515533207915S11655731EA0088000918000000000000
B0515573207893S11655799EA0087800913000000000000
B0516013207906S11655876EA0086900902000000000000
B0516053207945S11655946EA0086800905000000000000
B0516093207995S11656006EA0087600912000000000000
B0516133208054S11656002EA0087600912000000000000
B0516173208065S11655944EA0087300904000000000000
B0516213208021S11655913EA0086600900000000000000
B0516253207965S11655928EA0087000904000000000000
B0516293207921S11655974EA0087600910000000000000
B0516333207915S11656042EA0087700908000000000000
B0516373207944S11656111EA0087200902000000000000
B0516413207982S11656177EA0086600897000000000000
B0516453208026S11656241EA0086000892000000000000
B0516493208077S11656299EA0085500884000000000000
B0516533208127S11656360EA0084700875000000000000
B0516573208152S11656438EA0084000868000000000000
B0517013208145S11656519EA0082800855000000000000
B0517053208110S11656588EA0081200840000000000000
B0517093208062S11656645EA0080000827000000000000
B0517133208008S11656693EA0078700815000000000000
B0517173207952S11656739EA0078000810000000000000
B0517213207896S11656782EA0077800808000000000000
B0517253207841S11656825EA0077700804000000000000
B0517293207785S11656867EA0076700794000000000000
B0517333207728S11656909EA0076000784000000000000
B0517373207671S11656949EA0075300779000000000000
B0517413207614S11656994EA0075200778000000000000
B0517453207558S11657035EA0075200778000000000000
B0517493207499S11657074EA0074900772000000000000
B0517533207440S11657114EA0074300765000000000000
B0517573207375S11657148EA0073600761000000000000
B0518013207310S11657176EA0073600764000000000000
B0518053207246S11657187EA0074000765000000000000
B0518093207185S11657177EA0074600773000000000000
B0518133207133S11657150EA0075400777000000000000
B0518173207083S11657117EA0074900771000000000000
B0518213207029S11657086EA0074100763000000000000
B0518253206972S11657060EA0073700761000000000000
B0518293206910S11657044EA0073300756000000000000
B0518333206849S11657022EA0072900754000000000000
B0518373206788S11657003EA0072800746000000000000
B0518413206723S11656997EA0071600741000000000000
B0518453206660S11656999EA0071500737000000000000
B0518493206597S11656996EA0071200730000000000000
B0518533206533S11656987EA0070100722000000000000
B0518573206470S11656988EA0069200712000000000000
B0519013206405S11657009EA0068000698000000000000
B0519053206342S11657048EA0066800687000000000000
B0519093206286S11657103EA0066500680000000000000
B0519133206236S11657164EA0065800672000000000000
B0519173206186S11657228EA0064700662000000000000
B0519213206142S11657296EA0064200661000000000000
B0519253206102S11657367EA0064100659000000000000
B0519293206063S11657439EA0063900660000000000000
B0519333206030S11657512EA0065600679000000000000
B0519373206042S11657588EA0067400694000000000000
B0519413206099S11657588EA0066900683000000000000
B0519453206097S11657525EA0065900681000000000000
B0519493206042S11657502EA0066900696000000000000
B0519533206012S11657559EA0069300717000000000000
B0519573206050S11657618EA0070300724000000000000
B0520013206104S11657605EA0070500729000000000000
B0520053206094S11657555EA0070600730000000000000
B0520093206042S11657572EA0071300743000000000000
B0520133206016S11657638EA0072700756000000000000
B0520173206034S11657714EA0073900766000000000000
B0520213206090S11657757EA0073500757000000000000
B0520253206150S11657740EA0072500746000000000000
B0520293206164S11657677EA0071700744000000000000
B0520333206134S11657623EA0072100749000000000000
B0520373206082S11657611EA0073400764000000000000
B0520413206073S11657683EA0074400771000000000000
B0520453206129S11657727EA0074600774000000000000
B0520493206184S11657699EA0075200781000000000000
B0520533206192S11657641EA0075600788000000000000
B0520573206151S11657611EA0076200792000000000000
B0521013206103S11657636EA0076300790000000000000
B0521053206080S11657705EA0076200788000000000000
B0521093206102S11657785EA0076400793000000000000
B0521133206156S11657835EA0077200801000000000000
B0521173206202S11657801EA0076900800000000000000
B0521213206180S11657748EA0076900804000000000000
B0521253206125S11657746EA0077800808000000000000
B0521293206089S11657806EA0078300815000000000000
B0521333206097S11657885EA0078600815000000000000
B0521373206134S11657958EA0078600816000000000000
B0521413206190S11657995EA0078500812000000000000
B0521453206242S11657966EA0077700806000000000000
B0521493206246S11657907EA0076700798000000000000
B0521533206203S11657872EA0076700800000000000000
B0521573206150S11657857EA0077100800000000000000
B0522013206094S11657858EA0077500808000000000000
B0522053206063S11657917EA0078400813000000000000
B0522093206082S11657991EA0077300798000000000000
B0522133206138S11658044EA0076200791000000000000
B0522173206205S11658053EA0076000790000000000000
B0522213206258S11658018EA0075300779000000000000
B0522253206272S11657957EA0074700777000000000000
B0522293206249S11657904EA0074600774000000000000
B0522333206210S11657857EA0073700759000000000000
B0522373206163S11657814EA0072200746000000000000
B0522413206104S11657784EA0071300736000000000000
B0522453206039S11657774EA0071000737000000000000
B0522493205974S11657776EA0072000748000000000000
B0522533205919S11657806EA0072900757000000000000
B0522573205899S11657880EA0074300759000000000000
B0523013205933S11657957EA0073700762000000000000
B0523053205999S11657979EA0073800763000000000000
B0523093206045S11657939EA0073600757000000000000
B0523133206032S11657884EA0072600747000000000000
B0523173205981S11657859EA0071800743000000000000
B0523213205924S11657846EA0071400739000000000000
B0523253205861S11657839EA0071700743000000000000
B0523293205812S11657872EA0073000754000000000000
B0523333205830S11657941EA0072900750000000000000
B0523373205894S11657949EA0072200742000000000000
B0523413205921S11657891EA0071500741000000000000
B0523453205903S11657829EA0071500741000000000000
B0523493205863S11657775EA0071300743000000000000
B0523533205807S11657768EA0072800761000000000000
B0523573205803S11657841EA0073700762000000000000
B0524013205864S11657867EA0074100769000000000000
B0524053205899S11657815EA0074500776000000000000
B0524093205867S11657766EA0075300784000000000000
B0524133205812S11657790EA0075900788000000000000
B0524173205808S11657867EA0076400794000000000000
B0524213205863S11657902EA0077300803000000000000
B0524253205916S11657874EA0077600804000000000000
B0524293205925S11657806EA0077500806000000000000
B0524333205882S11657766EA0078100815000000000000
B0524373205838S11657810EA0079000820000000000000
B0524413205852S11657884EA0079900830000000000000
B0524453205908S11657914EA0080400830000000000000
B0524493205956S11657874EA0080200833000000000000
B0524533205947S11657810EA0080600841000000000000
B0524573205895S11657797EA0081600849000000000000
B0525013205864S11657857EA0082600858000000000000
B0525053205889S11657930EA0082900857000000000000
B0525093205954S11657957EA0083000864000000000000
B0525133205995S11657914EA0084400878000000000000
B0525173205968S11657867EA0084600876000000000000
B0525213205916S11657888EA0084600878000000000000
B0525253205904S11657958EA0085400887000000000000
B0525293205954S11658010EA0085400885000000000000
B0525333206011S11657989EA0086100901000000000000
B0525373206017S11657932EA0087200904000000000000
B0525413205968S11657907EA0086600900000000000000
B0525453205916S11657940EA0086800902000000000000
B0525493205899S11658014EA0087400908000000000000
B0525533205943S11658079EA0087000901000000000000
B0525573206013S11658080EA0087000907000000000000
B0526013206060S11658035EA0088300920000000000000
B0526053206058S11657974EA0088800922000000000000
B0526093206011S11657952EA0089000925000000000000
B0526133205971S11658001EA0089000924000000000000
B0526173205982S11658075EA0089100927000000000000
B0526213206032S11658127EA0089300926000000000000
B0526253206095S11658122EA0089500934000000000000
B0526293206127S11658069EA0090600939000000000000
B0526333206107S11658013EA0090400935000000000000
B0526373206054S11658001EA0090400939000000000000
B0526413206002S11658043EA0090600939000000000000
B0526453205971S11658117EA0090800942000000000000
B0526493205972S11658201EA0091000941000000000000
B0526533206017S11658268EA0090400937000000000000
B0526573206088S11658277EA0090200935000000000000
B0527013206138S11658234EA0089700932000000000000
B0527053206151S11658166EA0089800934000000000000
B0527093206137S11658100EA0090000936000000000000
B0527133206107S11658039EA0089900934000000000000
B0527173206056S11658024EA0091200949000000000000
B0527213206045S11658097EA0092100957000000000000
B0527253206097S11658143EA0092400961000000000000
B0527293206149S11658110EA0092200958000000000000
B0527333206155S11658047EA0092000957000000000000
B0527373206120S11657996EA0092700965000000000000
B0527413206065S11658009EA0093800976000000000000
B0527453206054S11658084EA0094400982000000000000
B0527493206095S11658149EA0094700984000000000000
B0527533206159S11658151EA0094900986000000000000
B0527573206193S11658095EA0094700984000000000000
B0528013206181S11658028EA0095300994000000000000
B0528053206134S11658013EA0096501003000000000000
B0528093206099S11658073EA0096701001000000000000
B0528133206121S11658151EA0096601005000000000000
B0528173206185S11658183EA0097401013000000000000
B0528213206240S11658149EA0097701014000000000000
B0528253206240S11658087EA0098201023000000000000
B0528293206192S11658065EA0098901024000000000000
B0528333206143S11658109EA0098801023000000000000
B0528373206133S11658192EA0098701024000000000000
B0528413206160S11658270EA0099501031000000000000
B0528453206220S11658283EA0099801036000000000000
B0528493206255S11658234EA0099901036000000000000
B0528533206246S11658173EA0100201037000000000000
B0528573206214S11658123EA0099801032000000000000
B0529013206173S11658076EA0099301031000000000000
B0529053206129S11658035EA0099301024000000000000
B0529093206076S11657997EA0098401017000000000000
B0529133206020S11657963EA0098701024000000000000
B0529173205968S11657928EA0099201029000000000000
B0529213205919S11657892EA0098801020000000000000
B0529253205869S11657850EA0097901014000000000000
B0529293205822S11657807EA0097701010000000000000
B0529333205774S11657768EA0097001002000000000000
B0529373205724S11657732EA0095900990000000000000
B0529413205670S11657689EA0094600975000000000000
B0529453205626S11657627EA0093000963000000000000
B0529493205596S11657554EA0092500958000000000000
B0529533205578S11657476EA0091800952000000000000
B0529573205573S11657394EA0090800940000000000000
B0530013205570S11657309EA0089200924000000000000
B0530053205571S11657222EA0088100913000000000000
B0530093205574S11657138EA0087900914000000000000
B0530133205574S11657057EA0088200917000000000000
B0530173205573S11656978EA0088000907000000000000
B0530213205564S11656895EA0086300890000000000000
B0530253205553S11656809EA0084600873000000000000
B0530293205562S11656719EA0083400861000000000000
B0530333205597S11656637EA0082400852000000000000
B0530373205652S11656568EA0081800843000000000000
B0530413205721S11656513EA0080500831000000000000
B0530453205795S11656468EA0079500821000000000000
B0530493205869S11656428EA0079000818000000000000
B0530533205939S11656388EA0078600812000000000000
B0530573206008S11656346EA0078100806000000000000
B0531013206073S11656298EA0077400799000000000000
B0531053206134S11656247EA0076900794000000000000
B0531093206189S11656191EA0077400800000000000000
B0531133206210S11656125EA0078300814000000000000
B0531173206184S11656080EA0079300817000000000000
B0531213206134S11656104EA0078900814000000000000
B0531253206138S11656186EA0078900812000000000000
B0531293206188S11656253EA0078500811000000000000
B0531333206250S11656294EA0078700811000000000000
B0531373206314S11656284EA0078700813000000000000
B0531413206357S11656234EA0078300806000000000000
B0531453206389S11656169EA0077200799000000000000
B0531493206420S11656103EA0076800797000000000000
B0531533206452S11656034EA0076500790000000000000
B0531573206481S11655959EA0075000775000000000000
B0532013206506S11655877EA0074000763000000000000
B0532053206527S11655792EA0073500760000000000000
B0532093206544S11655710EA0073100757000000000000
B0532133206557S11655630EA0072800752000000000000
B0532173206567S11655548EA0072800753000000000000
B0532213206563S11655473EA0073300760000000000000
B0532253206528S11655418EA0074300768000000000000
B0532293206484S11655453EA0074900771000000000000
B0532333206504S11655532EA0074300764000000000000
B0532373206569S11655567EA0074100762000000000000
B0532413206630S11655536EA0073800763000000000000
B0532453206665S11655473EA0073900761000000000000
B0532493206674S11655397EA0073300755000000000000
B0532533206670S11655318EA0072200743000000000000
B0532573206662S11655237EA0070700729000000000000
B0533013206654S11655155EA0069900723000000000000
B0533053206647S11655072EA0069100716000000000000
B0533093206639S11654988EA0068400709000000000000
B0533133206628S11654902EA0067500697000000000000
B0533173206621S11654817EA0066800691000000000000
B0533213206615S11654734EA0066400687000000000000
B0533253206610S11654655EA0066200686000000000000
B0533293206583S11654595EA0066600691000000000000
B0533333206533S11654596EA0067100690000000000000
B0533373206505S11654667EA0065800671000000000000
B0533413206511S11654760EA0064000658000000000000
B0533453206539S11654852EA0062900650000000000000
B0533493206571S11654942EA0062100641000000000000
B0533533206609S11655029EA0061300630000000000000
B0533573206656S11655111EA0060400623000000000000
B0534013206705S11655189EA0060200621000000000000
B0534053206756S11655267EA0059800616000000000000
B0534093206804S11655345EA0059500615000000000000
B0534133206852S11655421EA0059300613000000000000
B0534173206901S11655493EA0058800606000000000000
B0534213206953S11655567EA0057800593000000000000
B0534253207008S11655640EA0056900586000000000000
B0534293207063S11655716EA0056500584000000000000
B0534333207107S11655796EA0057500596000000000000
B0534373207109S11655878EA0058800609000000000000
B0534413207066S11655891EA0059800619000000000000
B0534453207056S11655837EA0060100625000000000000
B0534493207104S11655804EA0061100632000000000000
B0534533207164S11655847EA0061100630000000000000
B0534573207176S11655924EA0061500639000000000000
B0535013207139S11655959EA0062200642000000000000
B0535053207109S11655920EA0062000639000000000000
B0535093207124S11655855EA0062200646000000000000
B0535133207181S11655821EA0063300657000000000000
B0535173207243S11655859EA0063600658000000000000
B0535213207258S11655938EA0062900649000000000000
B0535253207219S11655994EA0062900650000000000000
B0535293207167S11656000EA0063100655000000000000
B0535333207160S11655946EA0063800662000000000000
B0535373207219S11655922EA0064900674000000000000
B0535413207274S11655974EA0065500677000000000000
B0535453207281S11656055EA0065400677000000000000
B0535493207242S11656106EA0066000682000000000000
B0535533207200S11656086EA0066800691000000000000
B0535573207213S11656030EA0067500698000000000000
B0536013207276S11656013EA0067900701000000000000
B0536053207333S11656069EA0067900702000000000000
B0536093207329S11656147EA0068400706000000000000
B0536133207281S11656167EA0068400707000000000000
B0536173207261S11656120EA0069300717000000000000
B0536213207297S11656074EA0070100725000000000000
B0536253207364S11656078EA0070000723000000000000
B0536293207408S11656142EA0070400727000000000000
B0536333207390S11656211EA0070200725000000000000
B0536373207339S11656234EA0070100724000000000000
B0536413207294S11656210EA0070300723000000000000
B0536453207276S11656150EA0070500729000000000000
B0536493207313S11656099EA0072000745000000000000
B0536533207378S11656119EA0072800750000000000000
B0536573207408S11656191EA0072200740000000000000
B0537013207377S11656253EA0072000740000000000000
B0537053207329S11656240EA0072400747000000000000
B0537093207304S11656189EA0073000754000000000000
B0537133207339S11656141EA0073700763000000000000
B0537173207402S11656165EA0074600769000000000000
B0537213207425S11656242EA0073900757000000000000
B0537253207394S11656308EA0073500758000000000000
B0537293207341S11656320EA0073800763000000000000
B0537333207299S11656286EA0074300769000000000000
B0537373207304S11656228EA0075100779000000000000
B0537413207363S11656202EA0075800782000000000000
B0537453207429S11656243EA0075700780000000000000
B0537493207453S11656329EA0075500779000000000000
B0537533207420S11656394EA0075600784000000000000
B0537573207365S11656403EA0076200787000000000000
B0538013207319S11656368EA0076600793000000000000
B0538053207316S11656303EA0077600804000000000000
B0538093207375S11656289EA0079000816000000000000
B0538133207420S11656351EA0078100804000000000000
B0538173207395S11656423EA0078400810000000000000
B0538213207342S11656442EA0078800816000000000000
B0538253207295S11656410EA0078900816000000000000
B0538293207281S11656347EA0079400821000000000000
B0538333207323S11656299EA0079900827000000000000
B0538373207389S11656298EA0079900825000000000000
B0538413207446S11656351EA0079300821000000000000
B0538453207488S11656428EA0079100820000000000000
B0538493207536S11656507EA0079100821000000000000
B0538533207603S11656513EA0080100832000000000000
B0538573207616S11656454EA0079900830000000000000
B0539013207568S11656436EA0079700823000000000000
B0539053207516S11656479EA0079400824000000000000
B0539093207502S11656563EA0080100831000000000000
B0539133207545S11656636EA0080300834000000000000
B0539173207611S11656639EA0081100842000000000000
B0539213207640S11656583EA0080900837000000000000
B0539253207607S11656540EA0081100845000000000000
B0539293207560S11656575EA0082000852000000000000
B0539333207562S11656661EA0081400846000000000000
B0539373207620S11656715EA0081900854000000000000
B0539413207694S11656724EA0081900851000000000000
B0539453207771S11656718EA0081700850000000000000
B0539493207846S11656704EA0081400851000000000000
B0539533207882S11656649EA0083000869000000000000
B0539573207845S11656613EA0083400862000000000000
B0540013207796S11656646EA0082100850000000000000
B0540053207776S11656726EA0081700848000000000000
B0540093207768S11656814EA0081000844000000000000
B0540133207767S11656906EA0080600840000000000000
B0540173207770S11657001EA0080100837000000000000
B0540213207775S11657096EA0080400842000000000000
B0540253207802S11657179EA0081700855000000000000
B0540293207863S11657172EA0082500860000000000000
B0540333207867S11657104EA0082400860000000000000
B0540373207819S11657075EA0083400870000000000000
B0540413207767S11657105EA0083900874000000000000
B0540453207740S11657174EA0084200877000000000000
B0540493207750S11657252EA0084800886000000000000
B0540533207806S11657278EA0085000881000000000000
B0540573207841S11657222EA0083800870000000000000
B0541013207822S11657152EA0083600872000000000000
B0541053207768S11657118EA0084400881000000000000
B0541093207714S11657157EA0085000884000000000000
B0541133207690S11657239EA0085500892000000000000
B0541173207718S11657313EA0086200898000000000000
B0541213207784S11657329EA0086200898000000000000
B0541253207831S11657280EA0086200895000000000000
B0541293207830S11657208EA0086200902000000000000
B0541333207785S11657161EA0086900907000000000000
B0541373207728S11657186EA0087400909000000000000
B0541413207696S11657263EA0087500907000000000000
B0541453207688S11657355EA0087900917000000000000
B0541493207733S11657411EA0089400928000000000000
B0541533207772S11657371EA0089500926000000000000
B0541573207736S11657325EA0090200939000000000000
B0542013207688S11657368EA0091900955000000000000
B0542053207692S11657447EA0092800962000000000000
B0542093207748S11657478EA0093200966000000000000
B0542133207789S11657441EA0093400970000000000000
B0542173207776S11657382EA0093500970000000000000
B0542213207719S11657382EA0093900978000000000000
B0542253207705S11657463EA0095100992000000000000
B0542293207752S11657523EA0095800993000000000000
B0542333207813S11657506EA0095800993000000000000
B0542373207828S11657442EA0095800997000000000000
B0542413207788S11657399EA0097001011000000000000
B0542453207731S11657419EA0098401021000000000000
B0542493207705S11657495EA0098801027000000000000
B0542533207732S11657567EA0100201044000000000000
B0542573207791S11657581EA0100301036000000000000
B0543013207824S11657528EA0099701035000000000000
B0543053207793S11657475EA0100401046000000000000
B0543093207736S11657489EA0102201062000000000000
B0543133207703S11657554EA0103201072000000000000
B0543173207719S11657629EA0103701072000000000000
B0543213207774S11657664EA0103501072000000000000
B0543253207824S11657634EA0103501071000000000000
B0543293207827S11657571EA0103501074000000000000
B0543333207779S11657538EA0104001080000000000000
B0543373207724S11657576EA0105101088000000000000
B0543413207711S11657655EA0105301091000000000000
B0543453207746S11657722EA0105401092000000000000
B0543493207807S11657738EA0105801098000000000000
B0543533207841S11657693EA0106001097000000000000
B0543573207815S11657638EA0105501094000000000000
B0544013207753S11657616EA0105401093000000000000
B0544053207689S11657645EA0105801094000000000000
B0544093207650S11657718EA0105801099000000000000
B0544133207645S11657805EA0106201101000000000000
B0544173207674S11657883EA0106401103000000000000
B0544213207728S11657932EA0106901105000000000000
B0544253207788S11657933EA0106901105000000000000
B0544293207830S11657892EA0106701108000000000000
B0544333207845S11657833EA0107101111000000000000
B0544373207844S11657770EA0106801106000000000000
B0544413207835S11657699EA0106201101000000000000
B0544453207822S11657624EA0106401106000000000000
B0544493207789S11657566EA0107501121000000000000
B0544533207735S11657580EA0109301137000000000000
B0544573207714S11657657EA0110101142000000000000
B0545013207744S11657735EA0110101140000000000000
B0545053207809S11657774EA0109601137000000000000
B0545093207871S11657753EA0109801139000000000000
B0545133207908S11657692EA0109701140000000000000
B0545173207901S11657625EA0110201150000000000000
B0545213207853S11657610EA0111801161000000000000
B0545253207817S11657668EA0111701156000000000000
B0545293207827S11657751EA0111701160000000000000
B0545333207876S11657810EA0112401168000000000000
B0545373207939S11657816EA0113301178000000000000
B0545413207974S11657771EA0113701184000000000000
B0545453207954S11657715EA0113501180000000000000
B0545493207898S11657709EA0113901186000000000000
B0545533207850S11657754EA0114401193000000000000
B0545573207827S11657829EA0114901195000000000000
B0546013207839S11657911EA0115101197000000000000
B0546053207880S11657979EA0115501202000000000000
B0546093207939S11658010EA0116301206000000000000
B0546133207989S11657987EA0116701214000000000000
B0546173208002S11657932EA0117201215000000000000
B0546213207965S11657889EA0116701209000000000000
B0546253207906S11657893EA0116601211000000000000
B0546293207856S11657941EA0117201217000000000000
B0546333207833S11658015EA0117601220000000000000
B0546373207844S11658093EA0117401216000000000000
B0546413207885S11658156EA0117001211000000000000
B0546453207944S11658192EA0116801211000000000000
B0546493208009S11658200EA0117101212000000000000
B0546533208061S11658169EA0116801211000000000000
B0546573208088S11658109EA0116701210000000000000
B0547013208093S11658043EA0117001213000000000000
B0547053208086S11657976EA0117201214000000000000
B0547093208044S11657936EA0117501219000000000000
B0547133207991S11657961EA0117901221000000000000
B0547173207978S11658036EA0117601217000000000000
B0547213208017S11658105EA0117701219000000000000
B0547253208080S11658132EA0117701220000000000000
B0547293208142S11658112EA0117901222000000000000
B0547333208175S11658056EA0118201226000000000000
B0547373208166S11657993EA0118601232000000000000
B0547413208118S11657969EA0119301235000000000000
B0547453208064S11657989EA0119001233000000000000
B0547493208023S11658048EA0119501239000000000000
B0547533208009S11658123EA0119601239000000000000
B0547573208025S11658201EA0119501239000000000000
B0548013208069S11658262EA0119701242000000000000
B0548053208127S11658287EA0120101246000000000000
B0548093208186S11658283EA0120201245000000000000
B0548133208239S11658257EA0119801241000000000000
B0548173208279S11658212EA0119601241000000000000
B0548213208298S11658151EA0119501240000000000000
B0548253208296S11658087EA0119201236000000000000
B0548293208287S11658021EA0119001230000000000000
B0548333208265S11657950EA0118201226000000000000
B0548373208239S11657883EA0118901237000000000000
B0548413208212S11657819EA0119901243000000000000
B0548453208169S11657774EA0121001257000000000000
B0548493208122S11657809EA0122301267000000000000
B0548533208126S11657885EA0122401267000000000000
B0548573208178S11657937EA0122301264000000000000
B0549013208240S11657930EA0122101264000000000000
B0549053208266S11657872EA0121901266000000000000
B0549093208260S11657806EA0122101263000000000000
B0549133208212S11657771EA0122201270000000000000
B0549173208175S11657829EA0124001283000000000000
B0549213208217S11657893EA0124701290000000000000
B0549253208275S11657875EA0125301296000000000000
B0549293208277S11657816EA0125001293000000000000
B0549333208230S11657787EA0125101295000000000000
B0549373208181S11657829EA0126001301000000000000
B0549413208181S11657913EA0126201307000000000000
B0549453208234S11657970EA0126601310000000000000
B0549493208300S11657963EA0127001318000000000000
B0549533208331S11657913EA0127801322000000000000
B0549573208300S11657866EA0127801323000000000000
B0550013208247S11657889EA0128201326000000000000
B0550053208235S11657971EA0128401330000000000000
B0550093208275S11658037EA0129601343000000000000
B0550133208338S11658049EA0130801352000000000000
B0550173208385S11658011EA0130601349000000000000
B0550213208381S11657948EA0130301350000000000000
B0550253208330S11657931EA0131501368000000000000
B0550293208286S11657980EA0132801374000000000000
B0550333208283S11658061EA0133101377000000000000
B0550373208329S11658122EA0134001387000000000000
B0550413208390S11658123EA0134601393000000000000
B0550453208428S11658078EA0134601393000000000000
B0550493208416S11658018EA0134801395000000000000
B0550533208369S11657987EA0135501405000000000000
B0550573208316S11658013EA0136201407000000000000
B0551013208292S11658091EA0136201412000000000000
B0551053208314S11658171EA0136601417000000000000
B0551093208377S11658203EA0137201421000000000000
B0551133208426S11658164EA0137301421000000000000
B0551173208428S11658097EA0137201422000000000000
B0551213208377S11658071EA0138601439000000000000
B0551253208335S11658123EA0140001450000000000000
B0551293208348S11658203EA0140201452000000000000
B0551333208404S11658242EA0141201462000000000000
B0551373208457S11658219EA0141101457000000000000
B0551413208470S11658157EA0141001461000000000000
B0551453208434S11658114EA0141901474000000000000
B0551493208386S11658149EA0142701481000000000000
B0551533208383S11658231EA0143201482000000000000
B0551573208435S11658286EA0143501493000000000000
B0552013208493S11658273EA0145101506000000000000
B0552053208508S11658217EA0145701512000000000000
B0552093208474S11658171EA0146301517000000000000
B0552133208418S11658187EA0146501517000000000000
B0552173208391S11658264EA0146701525000000000000
B0552213208417S11658340EA0147701536000000000000
B0552253208480S11658370EA0148701543000000000000
B0552293208530S11658333EA0149101547000000000000
B0552333208526S11658270EA0150201560000000000000
B0552373208480S11658243EA0150901565000000000000
B0552413208425S11658273EA0151101564000000000000
B0552453208402S11658353EA0151501573000000000000
B0552493208431S11658433EA0152501582000000000000
B0552533208495S11658453EA0153201588000000000000
B0552573208541S11658412EA0153601594000000000000
B0553013208535S11658349EA0154401602000000000000
B0553053208489S11658321EA0155001608000000000000
B0553093208434S11658352EA0155301611000000000000
B0553133208409S11658429EA0155901618000000000000
B0553173208431S11658513EA0156101619000000000000
B0553213208491S11658557EA0157101629000000000000
B0553253208548S11658541EA0158101638000000000000
B0553293208572S11658487EA0158501644000000000000
B0553333208547S11658440EA0158501643000000000000
B0553373208494S11658442EA0158601643000000000000
B0553413208451S11658500EA0159201651000000000000
B0553453208456S11658585EA0159701652000000000000
B0553493208512S11658635EA0159501652000000000000
B0553533208573S11658619EA0159801656000000000000
B0553573208597S11658561EA0160101662000000000000
B0554013208572S11658513EA0161001669000000000000
B0554053208520S11658531EA0161001667000000000000
B0554093208503S11658615EA0161101667000000000000
B0554133208542S11658693EA0161201669000000000000
B0554173208610S11658719EA0161601675000000000000
B0554213208664S11658689EA0162001676000000000000
B0554253208676S11658629EA0161701676000000000000
B0554293208646S11658574EA0161701673000000000000
B0554333208591S11658556EA0161701676000000000000
B0554373208533S11658599EA0161601673000000000000
B0554413208503S11658686EA0161901682000000000000
B0554453208519S11658773EA0163101693000000000000
B0554493208568S11658833EA0164201702000000000000
B0554533208632S11658849EA0164401702000000000000
B0554573208685S11658820EA0164501704000000000000
B0555013208704S11658765EA0164601707000000000000
B0555053208680S11658717EA0164701708000000000000
B0555093208628S11658717EA0164701705000000000000
B0555133208582S11658778EA0164501704000000000000
B0555173208577S11658866EA0164801706000000000000
B0555213208613S11658945EA0165101712000000000000
B0555253208673S11658990EA0165201712000000000000
B0555293208733S11658988EA0165901720000000000000
B0555333208768S11658946EA0165901717000000000000
B0555373208766S11658886EA0165301713000000000000
B0555413208749S11658827EA0164801708000000000000
B0555453208724S11658765EA0164401706000000000000
B0555493208697S11658706EA0164601709000000000000
B0555533208671S11658645EA0165101714000000000000
B0555573208649S11658587EA0166201724000000000000
B0556013208626S11658534EA0166601726000000000000
B0556053208604S11658481EA0166701726000000000000
B0556093208602S11658424EA0167001730000000000000
B0556133208595S11658373EA0167301732000000000000
B0556173208561S11658342EA0167201729000000000000
B0556213208509S11658352EA0167101726000000000000
B0556253208476S11658420EA0166701722000000000000
B0556293208486S11658505EA0166301719000000000000
B0556333208517S11658586EA0166001718000000000000
B0556373208552S11658664EA0165801716000000000000
B0556413208587S11658745EA0165701714000000000000
B0556453208624S11658824EA0165601715000000000000
B0556493208651S11658908EA0165801719000000000000
B0556533208650S11658996EA0166301725000000000000
B0556573208617S11659061EA0166801728000000000000
B0557013208567S11659094EA0167001727000000000000
B0557053208515S11659119EA0167001728000000000000
B0557093208463S11659148EA0167201729000000000000
B0557133208412S11659167EA0167201731000000000000
B0557173208376S11659144EA0167201728000000000000
B0557213208390S11659096EA0166601719000000000000
B0557253208448S11659076EA0166001716000000000000
B0557293208516S11659077EA0166201716000000000000
B0557333208584S11659080EA0165901717000000000000
B0557373208647S11659076EA0166201720000000000000
B0557413208707S11659064EA0166401722000000000000
B0557453208766S11659048EA0166801726000000000000
B0557493208821S11659028EA0167401732000000000000
B0557533208879S11659009EA0168001737000000000000
B0557573208938S11658989EA0168201742000000000000
B0558013208997S11658966EA0168901747000000000000
B0558053209048S11658932EA0169401752000000000000
B0558093209063S11658882EA0170101760000000000000
B0558133209037S11658847EA0170601763000000000000
B0558173208989S11658847EA0171101767000000000000
B0558213208940S11658881EA0171501771000000000000
B0558253208892S11658928EA0171601773000000000000
B0558293208845S11658980EA0171601774000000000000
B0558333208794S11659033EA0171601776000000000000
B0558373208742S11659085EA0171701776000000000000
B0558413208689S11659137EA0171601775000000000000
B0558453208630S11659172EA0171401774000000000000
B0558493208580S11659159EA0171601776000000000000
B0558533208560S11659113EA0171401774000000000000
B0558573208584S11659063EA0171001768000000000000
B0559013208641S11659040EA0170701765000000000000
B0559053208708S11659040EA0170401760000000000000
B0559093208779S11659048EA0169901759000000000000
B0559133208849S11659063EA0170401762000000000000
B0559173208918S11659081EA0170501766000000000000
B0559213208987S11659107EA0170901769000000000000
B0559253209058S11659136EA0171601775000000000000
B0559293209131S11659152EA0172001782000000000000
B0559333209205S11659158EA0172601787000000000000
B0559373209280S11659161EA0172901789000000000000
B0559413209353S11659149EA0173301796000000000000
B0559453209392S11659101EA0174201802000000000000
B0559493209379S11659050EA0174201799000000000000
B0559533209326S11659042EA0174401800000000000000
B0559573209270S11659071EA0174801804000000000000
B0600013209215S11659116EA0174901808000000000000
B0600053209162S11659168EA0175001812000000000000
B0600093209109S11659227EA0175401818000000000000
B0600133209058S11659288EA0176201825000000000000
B0600173209007S11659349EA0176901832000000000000
B0600213208958S11659414EA0177301837000000000000
B0600253208907S11659478EA0177601838000000000000
B0600293208850S11659519EA0177901843000000000000
B0600333208798S11659517EA0178601848000000000000
B0600373208764S11659480EA0178301842000000000000
B0600413208755S11659426EA0177701837000000000000
B0600453208777S11659371EA0177201833000000000000
B0600493208824S11659331EA0176901830000000000000
B0600533208885S11659308EA0176601829000000000000
B0600573208954S11659309EA0176701830000000000000
B0601013209023S11659326EA0176901832000000000000
B0601053209089S11659353EA0177401837000000000000
B0601093209153S11659389EA0178101844000000000000
B0601133209219S11659418EA0178201843000000000000
B0601173209288S11659439EA0178601850000000000000
B0601213209358S11659448EA0179201856000000000000
B0601253209425S11659440EA0179601860000000000000
B0601293209488S11659421EA0179901860000000000000
B0601333209540S11659383EA0180101865000000000000
B0601373209549S11659330EA0180701870000000000000
B0601413209513S11659304EA0181201872000000000000
B0601453209460S11659321EA0180801870000000000000
B0601493209406S11659361EA0180901873000000000000
B0601533209353S11659409EA0181101875000000000000
B0601573209300S11659457EA0181301877000000000000
B0602013209241S11659500EA0181601880000000000000
B0602053209183S11659539EA0181701878000000000000
B0602093209123S11659579EA0181601879000000000000
B0602133209062S11659623EA0181501876000000000000
B0602173209000S11659672EA0181101873000000000000
B0602213208937S11659724EA0180701870000000000000
B0602253208873S11659776EA0180301863000000000000
B0602293208805S11659813EA0179501857000000000000
B0602333208736S11659820EA0179101855000000000000
B0602373208677S11659798EA0179101853000000000000
B0602413208634S11659753EA0179101851000000000000
B0602453208610S11659698EA0178801848000000000000
B0602493208602S11659635EA0178201842000000000000
B0602533208607S11659570EA0177701836000000000000
B0602573208626S11659506EA0176901829000000000000
B0603013208659S11659445EA0176301820000000000000
B0603053208714S11659399EA0175501811000000000000
B0603093208789S11659379EA0174901805000000000000
B0603133208871S11659391EA0174201798000000000000
B0603173208951S11659427EA0173401792000000000000
B0603213209027S11659480EA0172701785000000000000
B0603253209097S11659544EA0172201782000000000000
B0603293209162S11659612EA0172201780000000000000
B0603333209223S11659682EA0172101778000000000000
B0603373209286S11659753EA0171701773000000000000
B0603413209349S11659828EA0171401773000000000000
B0603453209419S11659874EA0172601786000000000000
B0603493209490S11659874EA0173601790000000000000
B0603533209548S11659834EA0173401792000000000000
B0603573209603S11659782EA0173701796000000000000
B0604013209657S11659730EA0174301803000000000000
B0604053209708S11659678EA0174401803000000000000
B0604093209728S11659620EA0175001811000000000000
B0604133209699S11659579EA0175401811000000000000
B0604173209644S11659587EA0175001806000000000000
B0604213209587S11659623EA0174501802000000000000
B0604253209529S11659661EA0174301801000000000000
B0604293209468S11659699EA0174401800000000000000
B0604333209401S11659729EA0173501792000000000000
B0604373209331S11659755EA0172801785000000000000
B0604413209260S11659757EA0171801776000000000000
B0604453209197S11659731EA0171601774000000000000
B0604493209150S11659686EA0171601773000000000000
B0604533209123S11659627EA0171501769000000000000
B0604573209107S11659562EA0170701761000000000000
B0605013209098S11659495EA0169701752000000000000
B0605053209088S11659425EA0169001745000000000000
B0605093209081S11659356EA0168601742000000000000
B0605133209075S11659287EA0168201737000000000000
B0605173209070S11659219EA0167601730000000000000
B0605213209062S11659150EA0166901721000000000000
B0605253209052S11659081EA0166101712000000000000
B0605293209040S11659014EA0165301704000000000000
B0605333209024S11658946EA0164601698000000000000
B0605373209007S11658880EA0164401695000000000000
B0605413208985S11658817EA0164001692000000000000
B0605453208967S11658754EA0163601689000000000000
B0605493208948S11658691EA0163701691000000000000
B0605533208927S11658633EA0163901692000000000000
B0605573208899S11658580EA0164101695000000000000
B0606013208853S11658556EA0164801701000000000000
B0606053208799S11658554EA0164901701000000000000
B0606093208741S11658564EA0164501695000000000000
B0606133208680S11658578EA0163901689000000000000
B0606173208616S11658596EA0163301685000000000000
B0606213208554S11658620EA0162901681000000000000
B0606253208491S11658645EA0162601677000000000000
B0606293208431S11658668EA0162201672000000000000
B0606333208370S11658684EA0161801665000000000000
B0606373208312S11658681EA0160901659000000000000
B0606413208262S11658656EA0160301650000000000000
B0606453208227S11658611EA0159101636000000000000
B0606493208204S11658551EA0157301619000000000000
B0606533208183S11658486EA0156101609000000000000
B0606573208170S11658420EA0155501605000000000000
B0607013208166S11658351EA0154801597000000000000
B0607053208164S11658281EA0153901584000000000000
B0607093208160S11658209EA0152701574000000000000
B0607133208156S11658138EA0152101568000000000000
B0607173208152S11658067EA0151601562000000000000
B0607213208143S11658000EA0151101556000000000000
B0607253208135S11657932EA0150301549000000000000
B0607293208130S11657865EA0150201550000000000000
B0607333208129S11657801EA0150601551000000000000
B0607373208129S11657742EA0150401547000000000000
B0607413208127S11657684EA0149801538000000000000
B0607453208122S11657623EA0148701527000000000000
B0607493208114S11657560EA0147701519000000000000
B0607533208101S11657498EA0147001512000000000000
B0607573208065S11657450EA0146401508000000000000
B0608013208017S11657420EA0146301506000000000000
B0608053207965S11657403EA0145801499000000000000
B0608093207910S11657389EA0144801489000000000000
B0608133207852S11657381EA0144201482000000000000
B0608173207794S11657378EA0143501478000000000000
B0608213207739S11657376EA0143701484000000000000
B0608253207687S11657400EA0144901499000000000000
B0608293207670S11657472EA0146501512000000000000
B0608333207705S11657549EA0146701508000000000000
B0608373207779S11657567EA0145801499000000000000
B0608413207818S11657511EA0145101495000000000000
B0608453207794S11657462EA0145801500000000000000
B0608493207750S11657450EA0146301509000000000000
B0608533207711S11657491EA0146801511000000000000
B0608573207710S11657573EA0146701507000000000000
B0609013207762S11657641EA0146301505000000000000
B0609053207835S11657660EA0146401506000000000000
B0609093207893S11657632EA0145901502000000000000
B0609133207927S11657577EA0145301497000000000000
B0609173207936S11657514EA0145301499000000000000
B0609213207936S11657452EA0144801493000000000000
B0609253207926S11657390EA0144101486000000000000
B0609293207911S11657329EA0143501481000000000000
B0609333207897S11657269EA0143401481000000000000
B0609373207884S11657211EA0143301477000000000000
B0609413207874S11657153EA0142901472000000000000
B0609453207863S11657095EA0142401467000000000000
B0609493207854S11657036EA0141701457000000000000
B0609533207845S11656975EA0140601447000000000000
B0609573207845S11656910EA0139601437000000000000
B0610013207848S11656844EA0138701425000000000000
B0610053207843S11656776EA0137701413000000000000
B0610093207840S11656706EA0136701406000000000000
B0610133207837S11656636EA0136401404000000000000
B0610173207835S11656567EA0135801394000000000000
B0610213207830S11656498EA0134601381000000000000
B0610253207810S11656432EA0133201368000000000000
B0610293207776S11656371EA0131901355000000000000
B0610333207736S11656312EA0131401354000000000000
B0610373207698S11656256EA0131601355000000000000
B0610413207657S11656201EA0131501353000000000000
B0610453207612S11656150EA0131401352000000000000
B0610493207566S11656100EA0131401354000000000000
B0610533207512S11656058EA0131601357000000000000
B0610573207449S11656058EA0132301362000000000000
B0611013207403S11656121EA0133201371000000000000
B0611053207401S11656211EA0132601360000000000000
B0611093207446S11656289EA0131401354000000000000
B0611133207516S11656324EA0131101351000000000000
B0611173207589S11656314EA0130401339000000000000
B0611213207655S11656271EA0128801321000000000000
B0611253207716S11656210EA0127601316000000000000
B0611293207774S11656139EA0127201313000000000000
B0611333207830S11656068EA0126601306000000000000
B0611373207883S11655995EA0125801294000000000000
B0611413207936S11655920EA0124101280000000000000
B0611453207992S11655848EA0123501277000000000000
B0611493208048S11655781EA0123401276000000000000
B0611533208103S11655717EA0123001267000000000000
B0611573208158S11655656EA0122101257000000000000
B0612013208214S11655599EA0121401250000000000000
B0612053208269S11655540EA0120301237000000000000
B0612093208325S11655480EA0119101225000000000000
B0612133208383S11655422EA0118301216000000000000
B0612173208444S11655362EA0117101201000000000000
B0612213208509S11655302EA0115601190000000000000
B0612253208576S11655242EA0115101183000000000000
B0612293208641S11655188EA0115301193000000000000
B0612333208699S11655138EA0116301199000000000000
B0612373208756S11655090EA0116401195000000000000
B0612413208815S11655038EA0115701190000000000000
B0612453208871S11654985EA0116401206000000000000
B0612493208915S11654932EA0118501221000000000000
B0612533208901S11654876EA0119601232000000000000
B0612573208845S11654894EA0120201233000000000000
B0613013208828S11654971EA0120401239000000000000
B0613053208871S11655029EA0120901247000000000000
B0613093208932S11655034EA0121301252000000000000
B0613133208975S11654992EA0121701255000000000000
B0613173208966S11654933EA0122501264000000000000
B0613213208909S11654941EA0123201268000000000000
B0613253208894S11655021EA0123401274000000000000
B0613293208948S11655063EA0124801286000000000000
B0613333208996S11655029EA0125001287000000000000
B0613373208997S11654966EA0125401294000000000000
B0613413208945S11654943EA0127301314000000000000
B0613453208907S11655003EA0128901328000000000000
B0613493208928S11655076EA0129101326000000000000
B0613533208988S11655097EA0129301337000000000000
B0613573209042S11655068EA0130201343000000000000
B0614013209061S11655007EA0130901352000000000000
B0614053209016S11654973EA0131801359000000000000
B0614093208971S11655024EA0132801372000000000000
B0614133208992S11655097EA0133701378000000000000
B0614173209053S11655107EA0134601392000000000000
B0614213209080S11655055EA0135701401000000000000
B0614253209041S11655015EA0136501409000000000000
B0614293208992S11655057EA0137601424000000000000
B0614333208998S11655133EA0139101437000000000000
B0614373209054S11655162EA0140501452000000000000
B0614413209098S11655127EA0141401459000000000000
B0614453209093S11655063EA0141801464000000000000
B0614493209037S11655049EA0142801475000000000000
B0614533209010S11655115EA0144001486000000000000
B0614573209054S11655172EA0144501495000000000000
B0615013209106S11655149EA0145401502000000000000
B0615053209101S11655088EA0146001507000000000000
B0615093209042S11655084EA0146801520000000000000
B0615133209027S11655158EA0148301532000000000000
B0615173209076S11655211EA0149301546000000000000
B0615213209133S11655198EA0150801559000000000000
B0615253209157S11655138EA0151301562000000000000
B0615293209130S11655079EA0151901572000000000000
B0615333209072S11655077EA0153101584000000000000
B0615373209048S11655146EA0154301594000000000000
B0615413209084S11655215EA0155301606000000000000
B0615453209148S11655224EA0156701624000000000000
B0615493209184S11655175EA0157901631000000000000
B0615533209169S11655110EA0158101633000000000000
B0615573209113S11655093EA0159001645000000000000
B0616013209070S11655149EA0160001654000000000000
B0616053209084S11655223EA0161501672000000000000
B0616093209140S11655253EA0162901683000000000000
B0616133209191S11655223EA0163501689000000000000
B0616173209197S11655158EA0164101696000000000000
B0616213209154S11655119EA0164801703000000000000
B0616253209102S11655154EA0165501710000000000000
B0616293209102S11655227EA0166601724000000000000
B0616333209149S11655266EA0167601729000000000000
B0616373209204S11655242EA0167501729000000000000
B0616413209198S11655177EA0168101739000000000000
B0616453209148S11655158EA0169201749000000000000
B0616493209102S11655207EA0169601752000000000000
B0616533209098S11655284EA0170601762000000000000
B0616573209139S11655344EA0171401769000000000000
B0617013209204S11655358EA0171701773000000000000
B0617053209245S11655310EA0172301785000000000000
B0617093209215S11655255EA0173501794000000000000
B0617133209156S11655275EA0174001793000000000000
B0617173209141S11655356EA0174001797000000000000
B0617213209187S11655419EA0174201801000000000000
B0617253209256S11655437EA0174701809000000000000
B0617293209308S11655401EA0176501826000000000000
B0617333209305S11655337EA0177701836000000000000
B0617373209254S11655317EA0178701849000000000000
B0617413209211S11655369EA0179501848000000000000
B0617453209217S11655452EA0178901847000000000000
B0617493209265S11655508EA0179301852000000000000
B0617533209330S11655523EA0179801859000000000000
B0617573209384S11655492EA0180101863000000000000
B0618013209416S11655434EA0180801867000000000000
B0618053209414S11655361EA0180701869000000000000
B0618093209384S11655297EA0181701882000000000000
B0618133209328S11655284EA0183101898000000000000
B0618173209296S11655348EA0184101899000000000000
B0618213209331S11655422EA0183401894000000000000
B0618253209406S11655439EA0183801904000000000000
B0618293209470S11655401EA0185301916000000000000
B0618333209486S11655332EA0186401928000000000000
B0618373209443S11655291EA0187701942000000000000
B0618413209383S11655323EA0188401946000000000000
B0618453209371S11655411EA0189201957000000000000
B0618493209412S11655487EA0190001964000000000000
B0618533209483S11655517EA0190901975000000000000
B0618573209556S11655497EA0191801983000000000000
B0619013209587S11655432EA0192701995000000000000
B0619053209559S11655376EA0194102007000000000000
B0619093209496S11655380EA0194702012000000000000
B0619133209447S11655439EA0195202017000000000000
B0619173209436S11655526EA0195702023000000000000
B0619213209473S11655603EA0196802038000000000000
B0619253209535S11655645EA0197902040000000000000
B0619293209611S11655636EA0197402038000000000000
B0619333209664S11655582EA0198202052000000000000
B0619373209664S11655517EA0199802068000000000000
B0619413209613S11655512EA0200902076000000000000
B0619453209585S11655580EA0201702083000000000000
B0619493209609S11655661EA0202302088000000000000
B0619533209674S11655707EA0202902101000000000000
B0619573209744S11655699EA0204102110000000000000
B0620013209790S11655647EA0204502111000000000000
B0620053209785S11655582EA0205002120000000000000
B0620093209738S11655552EA0205802128000000000000
B0620133209686S11655592EA0206802137000000000000
B0620173209677S11655677EA0208402153000000000000
B0620213209722S11655748EA0209402166000000000000
B0620253209793S11655765EA0210802180000000000000
B0620293209842S11655723EA0211602184000000000000
B0620333209835S11655664EA0211802188000000000000
B0620373209785S11655645EA0212502196000000000000
B0620413209738S11655694EA0213202205000000000000
B0620453209735S11655778EA0214902222000000000000
B0620493209783S11655840EA0216402236000000000000
B0620533209851S11655840EA0217502245000000000000
B0620573209887S11655791EA0217902252000000000000
B0621013209869S11655738EA0218802259000000000000
B0621053209822S11655723EA0219502264000000000000
B0621093209778S11655773EA0219802268000000000000
B0621133209780S11655859EA0220602277000000000000
B0621173209834S11655922EA0221302287000000000000
B0621213209907S11655930EA0222702302000000000000
B0621253209960S11655892EA0223902313000000000000
B0621293209967S11655837EA0224502318000000000000
B0621333209937S11655796EA0224602317000000000000
B0621373209886S11655800EA0224202314000000000000
B0621413209851S11655857EA0225002321000000000000
B0621453209860S11655938EA0225302327000000000000
B0621493209912S11656003EA0225602330000000000000
B0621533209981S11656039EA0226402337000000000000
B0621573210045S11656026EA0226902342000000000000
B0622013210066S11655976EA0227202344000000000000
B0622053210040S11655931EA0226702335000000000000
B0622093209984S11655929EA0225702327000000000000
B0622133209921S11655961EA0226102333000000000000
B0622173209886S11656030EA0227602350000000000000
B0622213209926S11656108EA0227502343000000000000
B0622253210008S11656126EA0227702351000000000000
B0622293210066S11656086EA0228902364000000000000
B0622333210080S11656022EA0229302360000000000000
B0622373210046S11655973EA0228402352000000000000
B0622413209986S11655980EA0228202355000000000000
B0622453209943S11656043EA0229002363000000000000
B0622493209941S11656134EA0229202362000000000000
B0622533209972S11656225EA0228902358000000000000
B0622573210028S11656307EA0228802362000000000000
B0623013210105S11656345EA0230102376000000000000
B0623053210167S11656321EA0231402386000000000000
B0623093210192S11656263EA0231202380000000000000
B0623133210168S11656210EA0230902378000000000000
B0623173210116S11656199EA0230602374000000000000
B0623213210069S11656249EA0230302371000000000000
B0623253210068S11656336EA0230302373000000000000
B0623293210105S11656422EA0230302372000000000000
B0623333210159S11656497EA0230102372000000000000
B0623373210229S11656548EA0229702367000000000000
B0623413210310S11656555EA0229202362000000000000
B0623453210368S11656514EA0229202365000000000000
B0623493210407S11656453EA0229102361000000000000
B0623533210439S11656385EA0228702359000000000000
B0623573210461S11656315EA0228002344000000000000
B0624013210454S11656246EA0226802338000000000000
B0624053210415S11656207EA0226402328000000000000
B0624093210358S11656206EA0224502304000000000000
B0624133210296S11656219EA0222802288000000000000
B0624173210227S11656240EA0221002270000000000000
B0624213210155S11656264EA0219802256000000000000
B0624253210084S11656289EA0219902263000000000000
B0624293210016S11656314EA0220302269000000000000
B0624333209949S11656334EA0220702270000000000000
B0624373209877S11656357EA0221302282000000000000
B0624413209815S11656397EA0223202303000000000000
B0624453209803S11656479EA0224502312000000000000
B0624493209855S11656532EA0224802318000000000000
B0624533209912S11656516EA0225802327000000000000
B0624573209943S11656462EA0226002327000000000000
B0625013209937S11656392EA0226002329000000000000
B0625053209894S11656337EA0226702341000000000000
B0625093209834S11656359EA0227902354000000000000
B0625133209822S11656448EA0228502356000000000000
B0625173209869S11656528EA0229002366000000000000
B0625213209939S11656541EA0231402391000000000000
B0625253209963S11656490EA0233102406000000000000
B0625293209926S11656446EA0233602408000000000000
B0625333209872S11656467EA0234402417000000000000
B0625373209846S11656545EA0234402412000000000000
B0625413209868S11656639EA0234402416000000000000
B0625453209924S11656702EA0236102436000000000000
B0625493209975S11656682EA0237502452000000000000
B0625533209963S11656631EA0238102454000000000000
B0625573209906S11656628EA0238302458000000000000
B0626013209855S11656687EA0239002465000000000000
B0626053209841S11656778EA0239502468000000000000
B0626093209873S11656869EA0239802476000000000000
B0626133209936S11656913EA0242202499000000000000
B0626173209998S11656908EA0242902500000000000000
B0626213210027S11656857EA0242902503000000000000
B0626253209995S11656812EA0243902517000000000000
B0626293209939S11656823EA0245202527000000000000
B0626333209902S11656896EA0245202526000000000000
B0626373209915S11656994EA0245102521000000000000
B0626413209978S11657055EA0245502532000000000000
B0626453210046S11657056EA0246702540000000000000
B0626493210079S11657009EA0246702541000000000000
B0626533210054S11656960EA0247502553000000000000
B0626573209999S11656955EA0248202555000000000000
B0627013209945S11657004EA0247702546000000000000
B0627053209899S11657085EA0246702540000000000000
B0627093209855S11657166EA0245402521000000000000
B0627133209800S11657250EA0242902497000000000000
B0627173209735S11657329EA0241702487000000000000
B0627213209666S11657398EA0241102483000000000000
B0627253209598S11657458EA0240802483000000000000
B0627293209529S11657511EA0240702477000000000000
B0627333209461S11657558EA0240702472000000000000
B0627373209395S11657599EA0240102468000000000000
B0627413209330S11657637EA0240102467000000000000
B0627453209265S11657672EA0239902464000000000000
B0627493209200S11657703EA0239602460000000000000
B0627533209136S11657732EA0239202455000000000000
B0627573209071S11657758EA0238702449000000000000
B0628013209005S11657783EA0237702438000000000000
B0628053208936S11657807EA0236602428000000000000
B0628093208867S11657831EA0235902421000000000000
B0628133208797S11657855EA0235102413000000000000
B0628173208727S11657876EA0234302406000000000000
B0628213208658S11657893EA0233802401000000000000
B0628253208589S11657909EA0233602396000000000000
B0628293208520S11657927EA0233102394000000000000
B0628333208452S11657949EA0232602389000000000000
B0628373208386S11657970EA0232302387000000000000
B0628413208321S11657995EA0231902383000000000000
B0628453208255S11658019EA0231002373000000000000
B0628493208187S11658045EA0229802359000000000000
B0628533208118S11658069EA0228702349000000000000
B0628573208051S11658093EA0228302347000000000000
B0629013207986S11658117EA0228202344000000000000
B0629053207922S11658141EA0227402334000000000000
B0629093207858S11658175EA0226302321000000000000
B0629133207792S11658221EA0224602301000000000000
B0629173207719S11658258EA0223402295000000000000
B0629213207644S11658287EA0223102295000000000000
B0629253207571S11658308EA0223502301000000000000
B0629293207498S11658329EA0223902306000000000000
B0629333207429S11658365EA0224802317000000000000
B0629373207410S11658452EA0227202345000000000000
B0629413207466S11658512EA0227602335000000000000
B0629453207541S11658485EA0225702321000000000000
B0629493207573S11658414EA0225302320000000000000
B0629533207560S11658343EA0225602326000000000000
B0629573207521S11658283EA0225702323000000000000
B0630013207463S11658249EA0226002330000000000000
B0630053207395S11658248EA0226702336000000000000
B0630093207329S11658291EA0227202342000000000000
B0630133207278S11658372EA0227202341000000000000
B0630173207254S11658473EA0227202340000000000000
B0630213207263S11658585EA0226902336000000000000
B0630253207303S11658687EA0227302341000000000000
B0630293207363S11658767EA0227802344000000000000
B0630333207440S11658802EA0227202340000000000000
B0630373207515S11658793EA0226102327000000000000
B0630413207577S11658747EA0225702327000000000000
B0630453207628S11658681EA0226002328000000000000
B0630493207655S11658606EA0226902343000000000000
B0630533207644S11658531EA0227502344000000000000
B0630573207594S11658473EA0226702333000000000000
B0631013207518S11658443EA0226202330000000000000
B0631053207436S11658464EA0226702345000000000000
B0631093207372S11658530EA0228802362000000000000
B0631133207338S11658628EA0228902354000000000000
B0631173207342S11658745EA0227602340000000000000
B0631213207381S11658858EA0226702335000000000000
B0631253207450S11658941EA0226502332000000000000
B0631293207533S11658984EA0226402334000000000000
B0631333207612S11658975EA0227702350000000000000
B0631373207670S11658931EA0228802361000000000000
B0631413207693S11658864EA0230002373000000000000
B0631453207680S11658799EA0230202373000000000000
B0631493207636S11658749EA0229902370000000000000
B0631533207566S11658729EA0229902373000000000000
B0631573207490S11658755EA0230602378000000000000
B0632013207425S11658820EA0230702378000000000000
B0632053207382S11658915EA0230902378000000000000
B0632093207375S11659024EA0230502376000000000000
B0632133207403S11659127EA0230102369000000000000
B0632173207462S11659213EA0228302348000000000000
B0632213207544S11659267EA0227002334000000000000
B0632253207628S11659283EA0226402333000000000000
B0632293207698S11659259EA0227302350000000000000
B0632333207752S11659213EA0228702362000000000000
B0632373207783S11659152EA0229502369000000000000
B0632413207781S11659087EA0230102376000000000000
B0632453207755S11659031EA0230502375000000000000
B0632493207705S11658988EA0230502376000000000000
B0632533207640S11658968EA0230102371000000000000
B0632573207564S11658976EA0229802369000000000000
B0633013207489S11658994EA0229702365000000000000
B0633053207415S11659015EA0229602364000000000000
B0633093207343S11659038EA0229302359000000000000
B0633133207271S11659062EA0228502347000000000000
B0633173207195S11659077EA0227002330000000000000
B0633213207121S11659080EA0225802321000000000000
B0633253207046S11659079EA0225502322000000000000
B0633293206975S11659083EA0226002330000000000000
B0633333206912S11659087EA0226202330000000000000
B0633373206848S11659090EA0225602322000000000000
B0633413206783S11659094EA0224702307000000000000
B0633453206715S11659098EA0223702298000000000000
B0633493206649S11659103EA0223302297000000000000
B0633533206588S11659115EA0223102296000000000000
B0633573206528S11659128EA0222702286000000000000
B0634013206465S11659144EA0221002269000000000000
B0634053206398S11659163EA0219602257000000000000
B0634093206331S11659181EA0218602247000000000000
B0634133206264S11659198EA0218302245000000000000
B0634173206201S11659213EA0217902238000000000000
B0634213206138S11659223EA0217402236000000000000
B0634253206078S11659231EA0217402236000000000000
B0634293206021S11659241EA0217202233000000000000
B0634333205961S11659254EA0216602224000000000000
B0634373205899S11659270EA0215302212000000000000
B0634413205834S11659285EA0214602207000000000000
B0634453205770S11659302EA0214302204000000000000
B0634493205707S11659318EA0214202204000000000000
B0634533205647S11659334EA0214302204000000000000
B0634573205588S11659349EA0214102201000000000000
B0635013205532S11659365EA0213702198000000000000
B0635053205475S11659380EA0213302193000000000000
B0635093205418S11659396EA0212902189000000000000
B0635133205360S11659412EA0212402185000000000000
B0635173205298S11659427EA0211902181000000000000
B0635213205239S11659443EA0211702180000000000000
B0635253205178S11659460EA0212002181000000000000
B0635293205119S11659477EA0212002182000000000000
B0635333205059S11659491EA0212002181000000000000
B0635373205001S11659496EA0212102186000000000000
B0635413204950S11659488EA0212702191000000000000
B0635453204907S11659470EA0213102193000000000000
B0635493204868S11659445EA0212802189000000000000
B0635533204828S11659417EA0212402184000000000000
B0635573204785S11659388EA0211702176000000000000
B0636013204741S11659360EA0211002170000000000000
B0636053204694S11659330EA0210402167000000000000
B0636093204645S11659302EA0210702168000000000000
B0636133204593S11659280EA0210802170000000000000
B0636173204539S11659261EA0210602171000000000000
B0636213204489S11659237EA0210302169000000000000
B0636253204442S11659211EA0210002167000000000000
B0636293204395S11659187EA0209902161000000000000
B0636333204347S11659163EA0209202152000000000000
B0636373204296S11659137EA0208402140000000000000
B0636413204245S11659110EA0207402128000000000000
B0636453204191S11659087EA0206102117000000000000
B0636493204138S11659058EA0205602114000000000000
B0636533204084S11659031EA0205102108000000000000
B0636573204030S11659003EA0204002097000000000000
B0637013203971S11658979EA0203102085000000000000
B0637053203910S11658957EA0202002075000000000000
B0637093203849S11658940EA0201102065000000000000
B0637133203788S11658921EA0200102057000000000000
B0637173203728S11658901EA0199602051000000000000
B0637213203671S11658875EA0199002046000000000000
B0637253203616S11658845EA0198702042000000000000
B0637293203560S11658814EA0198002034000000000000
B0637333203503S11658781EA0197402027000000000000
B0637373203446S11658746EA0196502020000000000000
B0637413203391S11658706EA0195802009000000000000
B0637453203338S11658659EA0194701999000000000000
B0637493203283S11658612EA0193601991000000000000
B0637533203228S11658568EA0193301987000000000000
B0637573203174S11658521EA0192501977000000000000
B0638013203122S11658472EA0191701971000000000000
B0638053203072S11658421EA0191501970000000000000
B0638093203026S11658362EA0191201968000000000000
B0638133202979S11658304EA0191201966000000000000
B0638173202931S11658245EA0191101966000000000000
B0638213202880S11658191EA0191001967000000000000
B0638253202830S11658139EA0191001964000000000000
B0638293202776S11658089EA0191001967000000000000
B0638333202719S11658048EA0190901964000000000000
B0638373202662S11658002EA0190801965000000000000
B0638413202607S11657956EA0190701961000000000000
B0638453202552S11657910EA0190201954000000000000
B0638493202493S11657867EA0189401947000000000000
B0638533202431S11657824EA0188701941000000000000
B0638573202370S11657780EA0188401939000000000000
B0639013202310S11657737EA0188301936000000000000
B0639053202250S11657697EA0187701929000000000000
B0639093202190S11657657EA0187201925000000000000
B0639133202129S11657616EA0187301930000000000000
B0639173202069S11657582EA0188701945000000000000
B0639213202006S11657598EA0190801964000000000000
B0639253201980S11657672EA0192301982000000000000
B0639293202007S11657748EA0193001986000000000000
B0639333202069S11657779EA0192801985000000000000
B0639373202130S11657757EA0192701986000000000000
B0639413202167S11657706EA0192901987000000000000
B0639453202175S11657642EA0193501993000000000000
B0639493202146S11657590EA0193801998000000000000
B0639533202091S11657579EA0194101998000000000000
B0639573202041S11657627EA0193601995000000000000
B0640013202034S11657718EA0194202001000000000000
B0640053202080S11657788EA0195202014000000000000
B0640093202149S11657811EA0196002022000000000000
B0640133202211S11657787EA0196502026000000000000
B0640173202246S11657729EA0196802029000000000000
B0640213202237S11657667EA0197102032000000000000
B0640253202193S11657637EA0197302035000000000000
B0640293202137S11657660EA0197802036000000000000
B0640333202098S11657729EA0198102039000000000000
B0640373202104S11657816EA0198602047000000000000
B0640413202156S11657878EA0199102051000000000000
B0640453202224S11657883EA0199102051000000000000
B0640493202266S11657833EA0199102052000000000000
B0640533202262S11657772EA0199502055000000000000
B0640573202219S11657738EA0199502058000000000000
B0641013202163S11657762EA0199602063000000000000
B0641053202137S11657839EA0200302069000000000000
B0641093202164S11657918EA0200702072000000000000
B0641133202229S11657945EA0200902073000000000000
B0641173202281S11657911EA0200902072000000000000
B0641213202285S11657852EA0200702073000000000000
B0641253202243S11657822EA0201202078000000000000
B0641293202189S11657850EA0201702083000000000000
B0641333202164S11657931EA0202202086000000000000
B0641373202190S11658017EA0202402090000000000000
B0641413202251S11658057EA0202602091000000000000
B0641453202308S11658032EA0202602091000000000000
B0641493202319S11657975EA0202702093000000000000
B0641533202281S11657937EA0203002094000000000000
B0641573202223S11657950EA0202802093000000000000
B0642013202173S11658011EA0203402100000000000000
B0642053202156S11658099EA0204302109000000000000
B0642093202181S11658182EA0204502111000000000000
B0642133202238S11658235EA0204802117000000000000
B0642173202301S11658230EA0205402122000000000000
B0642213202331S11658179EA0205802125000000000000
B0642253202310S11658130EA0206102130000000000000
B0642293202258S11658127EA0206402131000000000000
B0642333202208S11658180EA0206202130000000000000
B0642373202197S11658269EA0206502131000000000000
B0642413202234S11658349EA0206702135000000000000
B0642453202301S11658381EA0206902139000000000000
B0642493202357S11658352EA0207702147000000000000
B0642533202372S11658292EA0208202148000000000000
B0642573202340S11658244EA0208002149000000000000
B0643013202284S11658251EA0208702157000000000000
B0643053202241S11658312EA0209402164000000000000
B0643093202240S11658399EA0209702163000000000000
B0643133202285S11658469EA0209402160000000000000
B0643173202353S11658487EA0209802167000000000000
B0643213202398S11658450EA0210402175000000000000
B0643253202393S11658396EA0210702173000000000000
B0643293202347S11658372EA0210702173000000000000
B0643333202293S11658409EA0211002180000000000000
B0643373202276S11658494EA0211702187000000000000
B0643413202310S11658569EA0212302190000000000000
B0643453202372S11658591EA0212202190000000000000
B0643493202419S11658559EA0212402189000000000000
B0643533202423S11658502EA0212102188000000000000
B0643573202386S11658464EA0212102192000000000000
B0644013202331S11658456EA0212702199000000000000
B0644053202272S11658490EA0213302204000000000000
B0644093202242S11658570EA0214002212000000000000
B0644133202256S11658661EA0214702216000000000000
B0644173202311S11658720EA0215202222000000000000
B0644213202376S11658724EA0215102219000000000000
B0644253202410S11658678EA0215002217000000000000
B0644293202392S11658628EA0214902216000000000000
B0644333202338S11658608EA0214502213000000000000
B0644373202273S11658617EA0214802222000000000000
B0644413202217S11658661EA0216302237000000000000
B0644453202210S11658750EA0217602244000000000000
B0644493202264S11658816EA0217302240000000000000
B0644533202331S11658807EA0216802238000000000000
B0644573202344S11658752EA0216802235000000000000
B0645013202294S11658728EA0216902241000000000000
B0645053202232S11658739EA0217202240000000000000
B0645093202167S11658760EA0216602233000000000000
B0645133202097S11658784EA0215902222000000000000
B0645173202022S11658808EA0214702208000000000000
B0645213201943S11658832EA0213502200000000000000
B0645253201864S11658850EA0213102197000000000000
B0645293201785S11658866EA0212802193000000000000
B0645333201704S11658881EA0212602193000000000000
B0645373201625S11658894EA0212602191000000000000
B0645413201545S11658903EA0212302187000000000000
B0645453201465S11658911EA0211802180000000000000
B0645493201383S11658919EA0211002176000000000000
B0645533201304S11658923EA0211102177000000000000
B0645573201224S11658920EA0211002178000000000000
B0646013201149S11658920EA0210802172000000000000
B0646053201073S11658921EA0209902166000000000000
B0646093201001S11658924EA0209902163000000000000
B0646133200928S11658921EA0209902161000000000000
B0646173200852S11658919EA0209102152000000000000
B0646213200777S11658916EA0208902154000000000000
B0646253200702S11658916EA0208702148000000000000
B0646293200621S11658915EA0208602145000000000000
B0646333200540S11658914EA0208202141000000000000
B0646373200459S11658912EA0207802139000000000000
B0646413200375S11658910EA0207702138000000000000
B0646453200291S11658908EA0207602136000000000000
B0646493200206S11658908EA0207102130000000000000
B0646533200122S11658907EA0206802127000000000000
B0646573200039S11658906EA0206402122000000000000
B0647013159955S11658903EA0205802114000000000000
B0647053159871S11658902EA0205202109000000000000
B0647093159789S11658902EA0205402117000000000000
B0647133159714S11658903EA0206502126000000000000
B0647173159642S11658905EA0207302130000000000000
B0647213159572S11658905EA0206902128000000000000
B0647253159502S11658908EA0206702127000000000000
B0647293159432S11658914EA0206602128000000000000
B0647333159363S11658918EA0206902130000000000000
B0647373159295S11658916EA0206902125000000000000
B0647413159226S11658915EA0205902116000000000000
B0647453159155S11658914EA0205102107000000000000
B0647493159083S11658912EA0204402104000000000000
B0647533159014S11658911EA0204502103000000000000
B0647573158947S11658908EA0204102098000000000000
B0648013158880S11658903EA0203702092000000000000
B0648053158817S11658889EA0202802083000000000000
B0648093158752S11658876EA0201902074000000000000
B0648133158685S11658867EA0201202067000000000000
B0648173158619S11658854EA0200602061000000000000
B0648213158555S11658836EA0200102058000000000000
B0648253158492S11658815EA0199802054000000000000
B0648293158431S11658793EA0199502053000000000000
B0648333158371S11658771EA0199102042000000000000
B0648373158312S11658745EA0197602028000000000000
B0648413158254S11658716EA0196302018000000000000
B0648453158194S11658687EA0195702010000000000000
B0648493158134S11658661EA0195002005000000000000
B0648533158073S11658635EA0194401996000000000000
B0648573158012S11658608EA0193701990000000000000
B0649013157950S11658583EA0193101984000000000000
B0649053157887S11658560EA0192401975000000000000
B0649093157823S11658535EA0191401965000000000000
B0649133157760S11658505EA0190201953000000000000
B0649173157699S11658470EA0189401949000000000000
B0649213157638S11658440EA0189001948000000000000
B0649253157576S11658411EA0188901943000000000000
B0649293157514S11658382EA0188301933000000000000
B0649333157449S11658352EA0187101924000000000000
B0649373157384S11658323EA0186701921000000000000
B0649413157320S11658303EA0186301915000000000000
B0649453157257S11658281EA0185601909000000000000
B0649493157196S11658261EA0185401906000000000000
B0649533157137S11658240EA0184601895000000000000
B0649573157077S11658226EA0184001890000000000000
B0650013157019S11658214EA0183201884000000000000
B0650053156972S11658187EA0183201881000000000000
B0650093156919S11658182EA0182701879000000000000
B0650133156872S11658240EA0182801875000000000000
B0650173156859S11658338EA0181701865000000000000
B0650213156889S11658438EA0181301865000000000000
B0650253156951S11658511EA0181101863000000000000
B0650293157030S11658550EA0180601857000000000000
B0650333157115S11658568EA0179201844000000000000
B0650373157203S11658580EA0178401834000000000000
B0650413157292S11658590EA0177501823000000000000
B0650453157381S11658599EA0175801808000000000000
B0650493157472S11658604EA0175201806000000000000
B0650533157558S11658615EA0175401803000000000000
B0650573157643S11658625EA0174501789000000000000
B0651013157730S11658630EA0173001776000000000000
B0651053157817S11658634EA0172501774000000000000
B0651093157903S11658635EA0172301770000000000000
B0651133157990S11658637EA0171401756000000000000
B0651173158080S11658641EA0170301745000000000000
B0651213158171S11658647EA0169201733000000000000
B0651253158265S11658651EA0167901721000000000000
B0651293158362S11658654EA0166901716000000000000
B0651333158457S11658656EA0166701713000000000000
B0651373158550S11658660EA0166001703000000000000
B0651413158645S11658663EA0164501688000000000000
B0651453158739S11658663EA0163501679000000000000
B0651493158834S11658660EA0162801669000000000000
B0651533158930S11658655EA0162101665000000000000
B0651573159022S11658646EA0161801659000000000000
B0652013159112S11658637EA0161101651000000000000
B0652053159200S11658628EA0159501633000000000000
B0652093159287S11658619EA0159001633000000000000
B0652133159370S11658611EA0158701629000000000000
B0652173159451S11658602EA0158601627000000000000
B0652213159534S11658593EA0158001619000000000000
B0652253159617S11658585EA0157401618000000000000
B0652293159699S11658578EA0158001622000000000000
B0652333159780S11658567EA0157401611000000000000
B0652373159864S11658554EA0155901595000000000000
B0652413159948S11658541EA0154801588000000000000
B0652453200031S11658528EA0153701574000000000000
B0652493200117S11658520EA0151401551000000000000
B0652533200202S11658511EA0150101530000000000000
B0652573200292S11658496EA0147601502000000000000
B0653013200383S11658483EA0145401484000000000000
B0653053200474S11658472EA0143801467000000000000
B0653093200566S11658463EA0141801449000000000000
B0653133200660S11658453EA0140101434000000000000
B0653173200758S11658446EA0138101410000000000000
B0653213200859S11658438EA0136401395000000000000
B0653253200960S11658426EA0136001397000000000000
B0653293201057S11658413EA0137001412000000000000
